{
	"RebaseAirdrop.sol": {
		"testRebase": {
			"abi": [
				{
					"inputs": [
						{
							"internalType": "address",
							"name": "_btonAddr",
							"type": "address"
						}
					],
					"stateMutability": "nonpayable",
					"type": "constructor"
				},
				{
					"inputs": [],
					"name": "Bton",
					"outputs": [
						{
							"internalType": "contract IERC20",
							"name": "",
							"type": "address"
						}
					],
					"stateMutability": "view",
					"type": "function"
				},
				{
					"inputs": [],
					"name": "USDC",
					"outputs": [
						{
							"internalType": "contract IERC20",
							"name": "",
							"type": "address"
						}
					],
					"stateMutability": "view",
					"type": "function"
				},
				{
					"inputs": [
						{
							"internalType": "address",
							"name": "",
							"type": "address"
						}
					],
					"name": "airdroppedBal",
					"outputs": [
						{
							"internalType": "uint256",
							"name": "timeInit",
							"type": "uint256"
						},
						{
							"internalType": "uint256",
							"name": "amounts",
							"type": "uint256"
						}
					],
					"stateMutability": "view",
					"type": "function"
				},
				{
					"inputs": [],
					"name": "calcAirdrop",
					"outputs": [],
					"stateMutability": "nonpayable",
					"type": "function"
				},
				{
					"inputs": [],
					"name": "startAirDrop",
					"outputs": [],
					"stateMutability": "nonpayable",
					"type": "function"
				},
				{
					"inputs": [],
					"name": "withdrawAirDrop",
					"outputs": [],
					"stateMutability": "nonpayable",
					"type": "function"
				}
			],
			"devdoc": {
				"kind": "dev",
				"methods": {},
				"version": 1
			},
			"evm": {
				"assembly": "    /* \"RebaseAirdrop.sol\":55:1626  contract testRebase { \r... */\n  mstore(0x40, 0x80)\n    /* \"RebaseAirdrop.sol\":466:612  constructor(address _btonAddr) {\r... */\n  callvalue\n  dup1\n  iszero\n  tag_1\n  jumpi\n  0x00\n  dup1\n  revert\ntag_1:\n  pop\n  mload(0x40)\n  sub(codesize, bytecodeSize)\n  dup1\n  bytecodeSize\n  dup4\n  codecopy\n  dup2\n  dup2\n  add\n  0x40\n  mstore\n  dup2\n  add\n  swap1\n  tag_2\n  swap2\n  swap1\n  tag_3\n  jump\t// in\ntag_2:\n    /* \"RebaseAirdrop.sol\":522:564  0xD7ACd2a9FD159E69Bb102A1ca21C9a3e3A5F771B */\n  0xd7acd2a9fd159e69bb102a1ca21c9a3e3a5f771b\n    /* \"RebaseAirdrop.sol\":508:512  USDC */\n  0x01\n  0x00\n    /* \"RebaseAirdrop.sol\":508:565  USDC = IERC20(0xD7ACd2a9FD159E69Bb102A1ca21C9a3e3A5F771B) */\n  0x0100\n  exp\n  dup2\n  sload\n  dup2\n  0xffffffffffffffffffffffffffffffffffffffff\n  mul\n  not\n  and\n  swap1\n  dup4\n  0xffffffffffffffffffffffffffffffffffffffff\n  and\n  mul\n  or\n  swap1\n  sstore\n  pop\n    /* \"RebaseAirdrop.sol\":590:599  _btonAddr */\n  dup1\n    /* \"RebaseAirdrop.sol\":576:580  Bton */\n  0x02\n  0x00\n    /* \"RebaseAirdrop.sol\":576:600  Bton = IERC20(_btonAddr) */\n  0x0100\n  exp\n  dup2\n  sload\n  dup2\n  0xffffffffffffffffffffffffffffffffffffffff\n  mul\n  not\n  and\n  swap1\n  dup4\n  0xffffffffffffffffffffffffffffffffffffffff\n  and\n  mul\n  or\n  swap1\n  sstore\n  pop\n    /* \"RebaseAirdrop.sol\":466:612  constructor(address _btonAddr) {\r... */\n  pop\n    /* \"RebaseAirdrop.sol\":55:1626  contract testRebase { \r... */\n  jump(tag_6)\n    /* \"#utility.yul\":7:150   */\ntag_8:\n    /* \"#utility.yul\":64:69   */\n  0x00\n    /* \"#utility.yul\":95:101   */\n  dup2\n    /* \"#utility.yul\":89:102   */\n  mload\n    /* \"#utility.yul\":80:102   */\n  swap1\n  pop\n    /* \"#utility.yul\":111:144   */\n  tag_10\n    /* \"#utility.yul\":138:143   */\n  dup2\n    /* \"#utility.yul\":111:144   */\n  tag_11\n  jump\t// in\ntag_10:\n    /* \"#utility.yul\":7:150   */\n  swap3\n  swap2\n  pop\n  pop\n  jump\t// out\n    /* \"#utility.yul\":156:507   */\ntag_3:\n    /* \"#utility.yul\":226:232   */\n  0x00\n    /* \"#utility.yul\":275:277   */\n  0x20\n    /* \"#utility.yul\":263:272   */\n  dup3\n    /* \"#utility.yul\":254:261   */\n  dup5\n    /* \"#utility.yul\":250:273   */\n  sub\n    /* \"#utility.yul\":246:278   */\n  slt\n    /* \"#utility.yul\":243:362   */\n  iszero\n  tag_13\n  jumpi\n    /* \"#utility.yul\":281:360   */\n  tag_14\n  tag_15\n  jump\t// in\ntag_14:\n    /* \"#utility.yul\":243:362   */\ntag_13:\n    /* \"#utility.yul\":401:402   */\n  0x00\n    /* \"#utility.yul\":426:490   */\n  tag_16\n    /* \"#utility.yul\":482:489   */\n  dup5\n    /* \"#utility.yul\":473:479   */\n  dup3\n    /* \"#utility.yul\":462:471   */\n  dup6\n    /* \"#utility.yul\":458:480   */\n  add\n    /* \"#utility.yul\":426:490   */\n  tag_8\n  jump\t// in\ntag_16:\n    /* \"#utility.yul\":416:490   */\n  swap2\n  pop\n    /* \"#utility.yul\":372:500   */\n  pop\n    /* \"#utility.yul\":156:507   */\n  swap3\n  swap2\n  pop\n  pop\n  jump\t// out\n    /* \"#utility.yul\":594:690   */\ntag_19:\n    /* \"#utility.yul\":631:638   */\n  0x00\n    /* \"#utility.yul\":660:684   */\n  tag_21\n    /* \"#utility.yul\":678:683   */\n  dup3\n    /* \"#utility.yul\":660:684   */\n  tag_22\n  jump\t// in\ntag_21:\n    /* \"#utility.yul\":649:684   */\n  swap1\n  pop\n    /* \"#utility.yul\":594:690   */\n  swap2\n  swap1\n  pop\n  jump\t// out\n    /* \"#utility.yul\":696:822   */\ntag_22:\n    /* \"#utility.yul\":733:740   */\n  0x00\n    /* \"#utility.yul\":773:815   */\n  0xffffffffffffffffffffffffffffffffffffffff\n    /* \"#utility.yul\":766:771   */\n  dup3\n    /* \"#utility.yul\":762:816   */\n  and\n    /* \"#utility.yul\":751:816   */\n  swap1\n  pop\n    /* \"#utility.yul\":696:822   */\n  swap2\n  swap1\n  pop\n  jump\t// out\n    /* \"#utility.yul\":951:1068   */\ntag_15:\n    /* \"#utility.yul\":1060:1061   */\n  0x00\n    /* \"#utility.yul\":1057:1058   */\n  dup1\n    /* \"#utility.yul\":1050:1062   */\n  revert\n    /* \"#utility.yul\":1074:1196   */\ntag_11:\n    /* \"#utility.yul\":1147:1171   */\n  tag_28\n    /* \"#utility.yul\":1165:1170   */\n  dup2\n    /* \"#utility.yul\":1147:1171   */\n  tag_19\n  jump\t// in\ntag_28:\n    /* \"#utility.yul\":1140:1145   */\n  dup2\n    /* \"#utility.yul\":1137:1172   */\n  eq\n    /* \"#utility.yul\":1127:1190   */\n  tag_29\n  jumpi\n    /* \"#utility.yul\":1186:1187   */\n  0x00\n    /* \"#utility.yul\":1183:1184   */\n  dup1\n    /* \"#utility.yul\":1176:1188   */\n  revert\n    /* \"#utility.yul\":1127:1190   */\ntag_29:\n    /* \"#utility.yul\":1074:1196   */\n  pop\n  jump\t// out\n    /* \"RebaseAirdrop.sol\":55:1626  contract testRebase { \r... */\ntag_6:\n  dataSize(sub_0)\n  dup1\n  dataOffset(sub_0)\n  0x00\n  codecopy\n  0x00\n  return\nstop\n\nsub_0: assembly {\n        /* \"RebaseAirdrop.sol\":55:1626  contract testRebase { \r... */\n      mstore(0x40, 0x80)\n      callvalue\n      dup1\n      iszero\n      tag_1\n      jumpi\n      0x00\n      dup1\n      revert\n    tag_1:\n      pop\n      jumpi(tag_2, lt(calldatasize, 0x04))\n      shr(0xe0, calldataload(0x00))\n      dup1\n      0x02699df8\n      eq\n      tag_3\n      jumpi\n      dup1\n      0x283a1e16\n      eq\n      tag_4\n      jumpi\n      dup1\n      0x754fe93e\n      eq\n      tag_5\n      jumpi\n      dup1\n      0x77af3226\n      eq\n      tag_6\n      jumpi\n      dup1\n      0x89a30271\n      eq\n      tag_7\n      jumpi\n      dup1\n      0xa87c70fa\n      eq\n      tag_8\n      jumpi\n    tag_2:\n      0x00\n      dup1\n      revert\n        /* \"RebaseAirdrop.sol\":784:1197  function calcAirdrop() public { //TODO: Make this internal and this has to be called in withdraw to update.\r... */\n    tag_3:\n      tag_9\n      tag_10\n      jump\t// in\n    tag_9:\n      stop\n        /* \"RebaseAirdrop.sol\":625:776  function startAirDrop() external\r... */\n    tag_4:\n      tag_11\n      tag_12\n      jump\t// in\n    tag_11:\n      stop\n        /* \"RebaseAirdrop.sol\":441:459  IERC20 public Bton */\n    tag_5:\n      tag_13\n      tag_14\n      jump\t// in\n    tag_13:\n      mload(0x40)\n      tag_15\n      swap2\n      swap1\n      tag_16\n      jump\t// in\n    tag_15:\n      mload(0x40)\n      dup1\n      swap2\n      sub\n      swap1\n      return\n        /* \"RebaseAirdrop.sol\":1203:1617  function withdrawAirDrop() public { //withdraw everything\r... */\n    tag_6:\n      tag_17\n      tag_18\n      jump\t// in\n    tag_17:\n      stop\n        /* \"RebaseAirdrop.sol\":416:434  IERC20 public USDC */\n    tag_7:\n      tag_19\n      tag_20\n      jump\t// in\n    tag_19:\n      mload(0x40)\n      tag_21\n      swap2\n      swap1\n      tag_16\n      jump\t// in\n    tag_21:\n      mload(0x40)\n      dup1\n      swap2\n      sub\n      swap1\n      return\n        /* \"RebaseAirdrop.sol\":357:409  mapping(address => btonsLocked) public airdroppedBal */\n    tag_8:\n      tag_22\n      0x04\n      dup1\n      calldatasize\n      sub\n      dup2\n      add\n      swap1\n      tag_23\n      swap2\n      swap1\n      tag_24\n      jump\t// in\n    tag_23:\n      tag_25\n      jump\t// in\n    tag_22:\n      mload(0x40)\n      tag_26\n      swap3\n      swap2\n      swap1\n      tag_27\n      jump\t// in\n    tag_26:\n      mload(0x40)\n      dup1\n      swap2\n      sub\n      swap1\n      return\n        /* \"RebaseAirdrop.sol\":784:1197  function calcAirdrop() public { //TODO: Make this internal and this has to be called in withdraw to update.\r... */\n    tag_10:\n        /* \"RebaseAirdrop.sol\":901:926  uint256 deltaTimeFromInit */\n      0x00\n        /* \"RebaseAirdrop.sol\":937:951  uint256 epochs */\n      dup1\n        /* \"RebaseAirdrop.sol\":962:980  uint256 airdropAmt */\n      0x00\n        /* \"RebaseAirdrop.sol\":1025:1038  airdroppedBal */\n      dup1\n        /* \"RebaseAirdrop.sol\":1025:1050  airdroppedBal[msg.sender] */\n      0x00\n        /* \"RebaseAirdrop.sol\":1039:1049  msg.sender */\n      caller\n        /* \"RebaseAirdrop.sol\":1025:1050  airdroppedBal[msg.sender] */\n      0xffffffffffffffffffffffffffffffffffffffff\n      and\n      0xffffffffffffffffffffffffffffffffffffffff\n      and\n      dup2\n      mstore\n      0x20\n      add\n      swap1\n      dup2\n      mstore\n      0x20\n      add\n      0x00\n      keccak256\n        /* \"RebaseAirdrop.sol\":1025:1059  airdroppedBal[msg.sender].timeInit */\n      0x00\n      add\n      sload\n        /* \"RebaseAirdrop.sol\":1007:1022  block.timestamp */\n      timestamp\n        /* \"RebaseAirdrop.sol\":1007:1059  block.timestamp - airdroppedBal[msg.sender].timeInit */\n      tag_29\n      swap2\n      swap1\n      tag_30\n      jump\t// in\n    tag_29:\n        /* \"RebaseAirdrop.sol\":987:1059  deltaTimeFromInit = block.timestamp - airdroppedBal[msg.sender].timeInit */\n      swap3\n      pop\n        /* \"RebaseAirdrop.sol\":1095:1098  180 */\n      0xb4\n        /* \"RebaseAirdrop.sol\":1075:1092  deltaTimeFromInit */\n      dup4\n        /* \"RebaseAirdrop.sol\":1075:1098  deltaTimeFromInit / 180 */\n      tag_31\n      swap2\n      swap1\n      tag_32\n      jump\t// in\n    tag_31:\n        /* \"RebaseAirdrop.sol\":1066:1098  epochs = deltaTimeFromInit / 180 */\n      swap2\n      pop\n        /* \"RebaseAirdrop.sol\":1133:1134  1 */\n      0x01\n        /* \"RebaseAirdrop.sol\":1125:1131  epochs */\n      dup3\n        /* \"RebaseAirdrop.sol\":1125:1134  epochs *1 */\n      tag_33\n      swap2\n      swap1\n      tag_34\n      jump\t// in\n    tag_33:\n        /* \"RebaseAirdrop.sol\":1112:1134  airdropAmt = epochs *1 */\n      swap1\n      pop\n        /* \"RebaseAirdrop.sol\":1177:1187  airdropAmt */\n      dup1\n        /* \"RebaseAirdrop.sol\":1141:1154  airdroppedBal */\n      0x00\n        /* \"RebaseAirdrop.sol\":1141:1166  airdroppedBal[msg.sender] */\n      dup1\n        /* \"RebaseAirdrop.sol\":1155:1165  msg.sender */\n      caller\n        /* \"RebaseAirdrop.sol\":1141:1166  airdroppedBal[msg.sender] */\n      0xffffffffffffffffffffffffffffffffffffffff\n      and\n      0xffffffffffffffffffffffffffffffffffffffff\n      and\n      dup2\n      mstore\n      0x20\n      add\n      swap1\n      dup2\n      mstore\n      0x20\n      add\n      0x00\n      keccak256\n        /* \"RebaseAirdrop.sol\":1141:1174  airdroppedBal[msg.sender].amounts */\n      0x01\n      add\n        /* \"RebaseAirdrop.sol\":1141:1187  airdroppedBal[msg.sender].amounts = airdropAmt */\n      dup2\n      swap1\n      sstore\n      pop\n        /* \"RebaseAirdrop.sol\":814:1197  { //TODO: Make this internal and this has to be called in withdraw to update.\r... */\n      pop\n      pop\n      pop\n        /* \"RebaseAirdrop.sol\":784:1197  function calcAirdrop() public { //TODO: Make this internal and this has to be called in withdraw to update.\r... */\n      jump\t// out\n        /* \"RebaseAirdrop.sol\":625:776  function startAirDrop() external\r... */\n    tag_12:\n        /* \"RebaseAirdrop.sol\":711:726  block.timestamp */\n      timestamp\n        /* \"RebaseAirdrop.sol\":674:687  airdroppedBal */\n      0x00\n        /* \"RebaseAirdrop.sol\":674:699  airdroppedBal[msg.sender] */\n      dup1\n        /* \"RebaseAirdrop.sol\":688:698  msg.sender */\n      caller\n        /* \"RebaseAirdrop.sol\":674:699  airdroppedBal[msg.sender] */\n      0xffffffffffffffffffffffffffffffffffffffff\n      and\n      0xffffffffffffffffffffffffffffffffffffffff\n      and\n      dup2\n      mstore\n      0x20\n      add\n      swap1\n      dup2\n      mstore\n      0x20\n      add\n      0x00\n      keccak256\n        /* \"RebaseAirdrop.sol\":674:708  airdroppedBal[msg.sender].timeInit */\n      0x00\n      add\n        /* \"RebaseAirdrop.sol\":674:726  airdroppedBal[msg.sender].timeInit = block.timestamp */\n      dup2\n      swap1\n      sstore\n      pop\n        /* \"RebaseAirdrop.sol\":625:776  function startAirDrop() external\r... */\n      jump\t// out\n        /* \"RebaseAirdrop.sol\":441:459  IERC20 public Bton */\n    tag_14:\n      0x02\n      0x00\n      swap1\n      sload\n      swap1\n      0x0100\n      exp\n      swap1\n      div\n      0xffffffffffffffffffffffffffffffffffffffff\n      and\n      dup2\n      jump\t// out\n        /* \"RebaseAirdrop.sol\":1203:1617  function withdrawAirDrop() public { //withdraw everything\r... */\n    tag_18:\n        /* \"RebaseAirdrop.sol\":1314:1315  0 */\n      0x00\n        /* \"RebaseAirdrop.sol\":1279:1292  airdroppedBal */\n      dup1\n        /* \"RebaseAirdrop.sol\":1279:1304  airdroppedBal[msg.sender] */\n      0x00\n        /* \"RebaseAirdrop.sol\":1293:1303  msg.sender */\n      caller\n        /* \"RebaseAirdrop.sol\":1279:1304  airdroppedBal[msg.sender] */\n      0xffffffffffffffffffffffffffffffffffffffff\n      and\n      0xffffffffffffffffffffffffffffffffffffffff\n      and\n      dup2\n      mstore\n      0x20\n      add\n      swap1\n      dup2\n      mstore\n      0x20\n      add\n      0x00\n      keccak256\n        /* \"RebaseAirdrop.sol\":1279:1312  airdroppedBal[msg.sender].amounts */\n      0x01\n      add\n      sload\n        /* \"RebaseAirdrop.sol\":1279:1315  airdroppedBal[msg.sender].amounts >0 */\n      gt\n        /* \"RebaseAirdrop.sol\":1270:1342  require (airdroppedBal[msg.sender].amounts >0, \"You dont have anything\") */\n      tag_37\n      jumpi\n      mload(0x40)\n      0x08c379a000000000000000000000000000000000000000000000000000000000\n      dup2\n      mstore\n      0x04\n      add\n      tag_38\n      swap1\n      tag_39\n      jump\t// in\n    tag_38:\n      mload(0x40)\n      dup1\n      swap2\n      sub\n      swap1\n      revert\n    tag_37:\n        /* \"RebaseAirdrop.sol\":1390:1391  0 */\n      0x00\n        /* \"RebaseAirdrop.sol\":1355:1368  airdroppedBal */\n      dup1\n        /* \"RebaseAirdrop.sol\":1355:1380  airdroppedBal[msg.sender] */\n      0x00\n        /* \"RebaseAirdrop.sol\":1369:1379  msg.sender */\n      caller\n        /* \"RebaseAirdrop.sol\":1355:1380  airdroppedBal[msg.sender] */\n      0xffffffffffffffffffffffffffffffffffffffff\n      and\n      0xffffffffffffffffffffffffffffffffffffffff\n      and\n      dup2\n      mstore\n      0x20\n      add\n      swap1\n      dup2\n      mstore\n      0x20\n      add\n      0x00\n      keccak256\n        /* \"RebaseAirdrop.sol\":1355:1388  airdroppedBal[msg.sender].amounts */\n      0x01\n      add\n        /* \"RebaseAirdrop.sol\":1355:1391  airdroppedBal[msg.sender].amounts =0 */\n      dup2\n      swap1\n      sstore\n      pop\n        /* \"RebaseAirdrop.sol\":1439:1454  block.timestamp */\n      timestamp\n        /* \"RebaseAirdrop.sol\":1402:1415  airdroppedBal */\n      0x00\n        /* \"RebaseAirdrop.sol\":1402:1427  airdroppedBal[msg.sender] */\n      dup1\n        /* \"RebaseAirdrop.sol\":1416:1426  msg.sender */\n      caller\n        /* \"RebaseAirdrop.sol\":1402:1427  airdroppedBal[msg.sender] */\n      0xffffffffffffffffffffffffffffffffffffffff\n      and\n      0xffffffffffffffffffffffffffffffffffffffff\n      and\n      dup2\n      mstore\n      0x20\n      add\n      swap1\n      dup2\n      mstore\n      0x20\n      add\n      0x00\n      keccak256\n        /* \"RebaseAirdrop.sol\":1402:1436  airdroppedBal[msg.sender].timeInit */\n      0x00\n      add\n        /* \"RebaseAirdrop.sol\":1402:1454  airdroppedBal[msg.sender].timeInit = block.timestamp */\n      dup2\n      swap1\n      sstore\n      pop\n        /* \"RebaseAirdrop.sol\":1203:1617  function withdrawAirDrop() public { //withdraw everything\r... */\n      jump\t// out\n        /* \"RebaseAirdrop.sol\":416:434  IERC20 public USDC */\n    tag_20:\n      0x01\n      0x00\n      swap1\n      sload\n      swap1\n      0x0100\n      exp\n      swap1\n      div\n      0xffffffffffffffffffffffffffffffffffffffff\n      and\n      dup2\n      jump\t// out\n        /* \"RebaseAirdrop.sol\":357:409  mapping(address => btonsLocked) public airdroppedBal */\n    tag_25:\n      mstore(0x20, 0x00)\n      dup1\n      0x00\n      mstore\n      keccak256(0x00, 0x40)\n      0x00\n      swap2\n      pop\n      swap1\n      pop\n      dup1\n      0x00\n      add\n      sload\n      swap1\n      dup1\n      0x01\n      add\n      sload\n      swap1\n      pop\n      dup3\n      jump\t// out\n        /* \"#utility.yul\":7:146   */\n    tag_41:\n        /* \"#utility.yul\":53:58   */\n      0x00\n        /* \"#utility.yul\":91:97   */\n      dup2\n        /* \"#utility.yul\":78:98   */\n      calldataload\n        /* \"#utility.yul\":69:98   */\n      swap1\n      pop\n        /* \"#utility.yul\":107:140   */\n      tag_43\n        /* \"#utility.yul\":134:139   */\n      dup2\n        /* \"#utility.yul\":107:140   */\n      tag_44\n      jump\t// in\n    tag_43:\n        /* \"#utility.yul\":7:146   */\n      swap3\n      swap2\n      pop\n      pop\n      jump\t// out\n        /* \"#utility.yul\":152:481   */\n    tag_24:\n        /* \"#utility.yul\":211:217   */\n      0x00\n        /* \"#utility.yul\":260:262   */\n      0x20\n        /* \"#utility.yul\":248:257   */\n      dup3\n        /* \"#utility.yul\":239:246   */\n      dup5\n        /* \"#utility.yul\":235:258   */\n      sub\n        /* \"#utility.yul\":231:263   */\n      slt\n        /* \"#utility.yul\":228:347   */\n      iszero\n      tag_46\n      jumpi\n        /* \"#utility.yul\":266:345   */\n      tag_47\n      tag_48\n      jump\t// in\n    tag_47:\n        /* \"#utility.yul\":228:347   */\n    tag_46:\n        /* \"#utility.yul\":386:387   */\n      0x00\n        /* \"#utility.yul\":411:464   */\n      tag_49\n        /* \"#utility.yul\":456:463   */\n      dup5\n        /* \"#utility.yul\":447:453   */\n      dup3\n        /* \"#utility.yul\":436:445   */\n      dup6\n        /* \"#utility.yul\":432:454   */\n      add\n        /* \"#utility.yul\":411:464   */\n      tag_41\n      jump\t// in\n    tag_49:\n        /* \"#utility.yul\":401:464   */\n      swap2\n      pop\n        /* \"#utility.yul\":357:474   */\n      pop\n        /* \"#utility.yul\":152:481   */\n      swap3\n      swap2\n      pop\n      pop\n      jump\t// out\n        /* \"#utility.yul\":487:644   */\n    tag_50:\n        /* \"#utility.yul\":587:637   */\n      tag_52\n        /* \"#utility.yul\":631:636   */\n      dup2\n        /* \"#utility.yul\":587:637   */\n      tag_53\n      jump\t// in\n    tag_52:\n        /* \"#utility.yul\":582:585   */\n      dup3\n        /* \"#utility.yul\":575:638   */\n      mstore\n        /* \"#utility.yul\":487:644   */\n      pop\n      pop\n      jump\t// out\n        /* \"#utility.yul\":650:1016   */\n    tag_54:\n        /* \"#utility.yul\":792:795   */\n      0x00\n        /* \"#utility.yul\":813:880   */\n      tag_56\n        /* \"#utility.yul\":877:879   */\n      0x16\n        /* \"#utility.yul\":872:875   */\n      dup4\n        /* \"#utility.yul\":813:880   */\n      tag_57\n      jump\t// in\n    tag_56:\n        /* \"#utility.yul\":806:880   */\n      swap2\n      pop\n        /* \"#utility.yul\":889:982   */\n      tag_58\n        /* \"#utility.yul\":978:981   */\n      dup3\n        /* \"#utility.yul\":889:982   */\n      tag_59\n      jump\t// in\n    tag_58:\n        /* \"#utility.yul\":1007:1009   */\n      0x20\n        /* \"#utility.yul\":1002:1005   */\n      dup3\n        /* \"#utility.yul\":998:1010   */\n      add\n        /* \"#utility.yul\":991:1010   */\n      swap1\n      pop\n        /* \"#utility.yul\":650:1016   */\n      swap2\n      swap1\n      pop\n      jump\t// out\n        /* \"#utility.yul\":1022:1140   */\n    tag_60:\n        /* \"#utility.yul\":1109:1133   */\n      tag_62\n        /* \"#utility.yul\":1127:1132   */\n      dup2\n        /* \"#utility.yul\":1109:1133   */\n      tag_63\n      jump\t// in\n    tag_62:\n        /* \"#utility.yul\":1104:1107   */\n      dup3\n        /* \"#utility.yul\":1097:1134   */\n      mstore\n        /* \"#utility.yul\":1022:1140   */\n      pop\n      pop\n      jump\t// out\n        /* \"#utility.yul\":1146:1394   */\n    tag_16:\n        /* \"#utility.yul\":1252:1256   */\n      0x00\n        /* \"#utility.yul\":1290:1292   */\n      0x20\n        /* \"#utility.yul\":1279:1288   */\n      dup3\n        /* \"#utility.yul\":1275:1293   */\n      add\n        /* \"#utility.yul\":1267:1293   */\n      swap1\n      pop\n        /* \"#utility.yul\":1303:1387   */\n      tag_65\n        /* \"#utility.yul\":1384:1385   */\n      0x00\n        /* \"#utility.yul\":1373:1382   */\n      dup4\n        /* \"#utility.yul\":1369:1386   */\n      add\n        /* \"#utility.yul\":1360:1366   */\n      dup5\n        /* \"#utility.yul\":1303:1387   */\n      tag_50\n      jump\t// in\n    tag_65:\n        /* \"#utility.yul\":1146:1394   */\n      swap3\n      swap2\n      pop\n      pop\n      jump\t// out\n        /* \"#utility.yul\":1400:1819   */\n    tag_39:\n        /* \"#utility.yul\":1566:1570   */\n      0x00\n        /* \"#utility.yul\":1604:1606   */\n      0x20\n        /* \"#utility.yul\":1593:1602   */\n      dup3\n        /* \"#utility.yul\":1589:1607   */\n      add\n        /* \"#utility.yul\":1581:1607   */\n      swap1\n      pop\n        /* \"#utility.yul\":1653:1662   */\n      dup2\n        /* \"#utility.yul\":1647:1651   */\n      dup2\n        /* \"#utility.yul\":1643:1663   */\n      sub\n        /* \"#utility.yul\":1639:1640   */\n      0x00\n        /* \"#utility.yul\":1628:1637   */\n      dup4\n        /* \"#utility.yul\":1624:1641   */\n      add\n        /* \"#utility.yul\":1617:1664   */\n      mstore\n        /* \"#utility.yul\":1681:1812   */\n      tag_67\n        /* \"#utility.yul\":1807:1811   */\n      dup2\n        /* \"#utility.yul\":1681:1812   */\n      tag_54\n      jump\t// in\n    tag_67:\n        /* \"#utility.yul\":1673:1812   */\n      swap1\n      pop\n        /* \"#utility.yul\":1400:1819   */\n      swap2\n      swap1\n      pop\n      jump\t// out\n        /* \"#utility.yul\":1825:2157   */\n    tag_27:\n        /* \"#utility.yul\":1946:1950   */\n      0x00\n        /* \"#utility.yul\":1984:1986   */\n      0x40\n        /* \"#utility.yul\":1973:1982   */\n      dup3\n        /* \"#utility.yul\":1969:1987   */\n      add\n        /* \"#utility.yul\":1961:1987   */\n      swap1\n      pop\n        /* \"#utility.yul\":1997:2068   */\n      tag_69\n        /* \"#utility.yul\":2065:2066   */\n      0x00\n        /* \"#utility.yul\":2054:2063   */\n      dup4\n        /* \"#utility.yul\":2050:2067   */\n      add\n        /* \"#utility.yul\":2041:2047   */\n      dup6\n        /* \"#utility.yul\":1997:2068   */\n      tag_60\n      jump\t// in\n    tag_69:\n        /* \"#utility.yul\":2078:2150   */\n      tag_70\n        /* \"#utility.yul\":2146:2148   */\n      0x20\n        /* \"#utility.yul\":2135:2144   */\n      dup4\n        /* \"#utility.yul\":2131:2149   */\n      add\n        /* \"#utility.yul\":2122:2128   */\n      dup5\n        /* \"#utility.yul\":2078:2150   */\n      tag_60\n      jump\t// in\n    tag_70:\n        /* \"#utility.yul\":1825:2157   */\n      swap4\n      swap3\n      pop\n      pop\n      pop\n      jump\t// out\n        /* \"#utility.yul\":2244:2413   */\n    tag_57:\n        /* \"#utility.yul\":2328:2339   */\n      0x00\n        /* \"#utility.yul\":2362:2368   */\n      dup3\n        /* \"#utility.yul\":2357:2360   */\n      dup3\n        /* \"#utility.yul\":2350:2369   */\n      mstore\n        /* \"#utility.yul\":2402:2406   */\n      0x20\n        /* \"#utility.yul\":2397:2400   */\n      dup3\n        /* \"#utility.yul\":2393:2407   */\n      add\n        /* \"#utility.yul\":2378:2407   */\n      swap1\n      pop\n        /* \"#utility.yul\":2244:2413   */\n      swap3\n      swap2\n      pop\n      pop\n      jump\t// out\n        /* \"#utility.yul\":2419:2604   */\n    tag_32:\n        /* \"#utility.yul\":2459:2460   */\n      0x00\n        /* \"#utility.yul\":2476:2496   */\n      tag_75\n        /* \"#utility.yul\":2494:2495   */\n      dup3\n        /* \"#utility.yul\":2476:2496   */\n      tag_63\n      jump\t// in\n    tag_75:\n        /* \"#utility.yul\":2471:2496   */\n      swap2\n      pop\n        /* \"#utility.yul\":2510:2530   */\n      tag_76\n        /* \"#utility.yul\":2528:2529   */\n      dup4\n        /* \"#utility.yul\":2510:2530   */\n      tag_63\n      jump\t// in\n    tag_76:\n        /* \"#utility.yul\":2505:2530   */\n      swap3\n      pop\n        /* \"#utility.yul\":2549:2550   */\n      dup3\n        /* \"#utility.yul\":2539:2574   */\n      tag_77\n      jumpi\n        /* \"#utility.yul\":2554:2572   */\n      tag_78\n      tag_79\n      jump\t// in\n    tag_78:\n        /* \"#utility.yul\":2539:2574   */\n    tag_77:\n        /* \"#utility.yul\":2596:2597   */\n      dup3\n        /* \"#utility.yul\":2593:2594   */\n      dup3\n        /* \"#utility.yul\":2589:2598   */\n      div\n        /* \"#utility.yul\":2584:2598   */\n      swap1\n      pop\n        /* \"#utility.yul\":2419:2604   */\n      swap3\n      swap2\n      pop\n      pop\n      jump\t// out\n        /* \"#utility.yul\":2610:2958   */\n    tag_34:\n        /* \"#utility.yul\":2650:2657   */\n      0x00\n        /* \"#utility.yul\":2673:2693   */\n      tag_81\n        /* \"#utility.yul\":2691:2692   */\n      dup3\n        /* \"#utility.yul\":2673:2693   */\n      tag_63\n      jump\t// in\n    tag_81:\n        /* \"#utility.yul\":2668:2693   */\n      swap2\n      pop\n        /* \"#utility.yul\":2707:2727   */\n      tag_82\n        /* \"#utility.yul\":2725:2726   */\n      dup4\n        /* \"#utility.yul\":2707:2727   */\n      tag_63\n      jump\t// in\n    tag_82:\n        /* \"#utility.yul\":2702:2727   */\n      swap3\n      pop\n        /* \"#utility.yul\":2895:2896   */\n      dup2\n        /* \"#utility.yul\":2827:2893   */\n      0xffffffffffffffffffffffffffffffffffffffffffffffffffffffffffffffff\n        /* \"#utility.yul\":2823:2897   */\n      div\n        /* \"#utility.yul\":2820:2821   */\n      dup4\n        /* \"#utility.yul\":2817:2898   */\n      gt\n        /* \"#utility.yul\":2812:2813   */\n      dup3\n        /* \"#utility.yul\":2805:2814   */\n      iszero\n        /* \"#utility.yul\":2798:2815   */\n      iszero\n        /* \"#utility.yul\":2794:2899   */\n      and\n        /* \"#utility.yul\":2791:2922   */\n      iszero\n      tag_83\n      jumpi\n        /* \"#utility.yul\":2902:2920   */\n      tag_84\n      tag_85\n      jump\t// in\n    tag_84:\n        /* \"#utility.yul\":2791:2922   */\n    tag_83:\n        /* \"#utility.yul\":2950:2951   */\n      dup3\n        /* \"#utility.yul\":2947:2948   */\n      dup3\n        /* \"#utility.yul\":2943:2952   */\n      mul\n        /* \"#utility.yul\":2932:2952   */\n      swap1\n      pop\n        /* \"#utility.yul\":2610:2958   */\n      swap3\n      swap2\n      pop\n      pop\n      jump\t// out\n        /* \"#utility.yul\":2964:3155   */\n    tag_30:\n        /* \"#utility.yul\":3004:3008   */\n      0x00\n        /* \"#utility.yul\":3024:3044   */\n      tag_87\n        /* \"#utility.yul\":3042:3043   */\n      dup3\n        /* \"#utility.yul\":3024:3044   */\n      tag_63\n      jump\t// in\n    tag_87:\n        /* \"#utility.yul\":3019:3044   */\n      swap2\n      pop\n        /* \"#utility.yul\":3058:3078   */\n      tag_88\n        /* \"#utility.yul\":3076:3077   */\n      dup4\n        /* \"#utility.yul\":3058:3078   */\n      tag_63\n      jump\t// in\n    tag_88:\n        /* \"#utility.yul\":3053:3078   */\n      swap3\n      pop\n        /* \"#utility.yul\":3097:3098   */\n      dup3\n        /* \"#utility.yul\":3094:3095   */\n      dup3\n        /* \"#utility.yul\":3091:3099   */\n      lt\n        /* \"#utility.yul\":3088:3122   */\n      iszero\n      tag_89\n      jumpi\n        /* \"#utility.yul\":3102:3120   */\n      tag_90\n      tag_85\n      jump\t// in\n    tag_90:\n        /* \"#utility.yul\":3088:3122   */\n    tag_89:\n        /* \"#utility.yul\":3147:3148   */\n      dup3\n        /* \"#utility.yul\":3144:3145   */\n      dup3\n        /* \"#utility.yul\":3140:3149   */\n      sub\n        /* \"#utility.yul\":3132:3149   */\n      swap1\n      pop\n        /* \"#utility.yul\":2964:3155   */\n      swap3\n      swap2\n      pop\n      pop\n      jump\t// out\n        /* \"#utility.yul\":3161:3257   */\n    tag_91:\n        /* \"#utility.yul\":3198:3205   */\n      0x00\n        /* \"#utility.yul\":3227:3251   */\n      tag_93\n        /* \"#utility.yul\":3245:3250   */\n      dup3\n        /* \"#utility.yul\":3227:3251   */\n      tag_94\n      jump\t// in\n    tag_93:\n        /* \"#utility.yul\":3216:3251   */\n      swap1\n      pop\n        /* \"#utility.yul\":3161:3257   */\n      swap2\n      swap1\n      pop\n      jump\t// out\n        /* \"#utility.yul\":3263:3389   */\n    tag_94:\n        /* \"#utility.yul\":3300:3307   */\n      0x00\n        /* \"#utility.yul\":3340:3382   */\n      0xffffffffffffffffffffffffffffffffffffffff\n        /* \"#utility.yul\":3333:3338   */\n      dup3\n        /* \"#utility.yul\":3329:3383   */\n      and\n        /* \"#utility.yul\":3318:3383   */\n      swap1\n      pop\n        /* \"#utility.yul\":3263:3389   */\n      swap2\n      swap1\n      pop\n      jump\t// out\n        /* \"#utility.yul\":3395:3472   */\n    tag_63:\n        /* \"#utility.yul\":3432:3439   */\n      0x00\n        /* \"#utility.yul\":3461:3466   */\n      dup2\n        /* \"#utility.yul\":3450:3466   */\n      swap1\n      pop\n        /* \"#utility.yul\":3395:3472   */\n      swap2\n      swap1\n      pop\n      jump\t// out\n        /* \"#utility.yul\":3478:3617   */\n    tag_53:\n        /* \"#utility.yul\":3541:3550   */\n      0x00\n        /* \"#utility.yul\":3574:3611   */\n      tag_98\n        /* \"#utility.yul\":3605:3610   */\n      dup3\n        /* \"#utility.yul\":3574:3611   */\n      tag_99\n      jump\t// in\n    tag_98:\n        /* \"#utility.yul\":3561:3611   */\n      swap1\n      pop\n        /* \"#utility.yul\":3478:3617   */\n      swap2\n      swap1\n      pop\n      jump\t// out\n        /* \"#utility.yul\":3623:3749   */\n    tag_99:\n        /* \"#utility.yul\":3673:3682   */\n      0x00\n        /* \"#utility.yul\":3706:3743   */\n      tag_101\n        /* \"#utility.yul\":3737:3742   */\n      dup3\n        /* \"#utility.yul\":3706:3743   */\n      tag_102\n      jump\t// in\n    tag_101:\n        /* \"#utility.yul\":3693:3743   */\n      swap1\n      pop\n        /* \"#utility.yul\":3623:3749   */\n      swap2\n      swap1\n      pop\n      jump\t// out\n        /* \"#utility.yul\":3755:3868   */\n    tag_102:\n        /* \"#utility.yul\":3805:3814   */\n      0x00\n        /* \"#utility.yul\":3838:3862   */\n      tag_104\n        /* \"#utility.yul\":3856:3861   */\n      dup3\n        /* \"#utility.yul\":3838:3862   */\n      tag_94\n      jump\t// in\n    tag_104:\n        /* \"#utility.yul\":3825:3862   */\n      swap1\n      pop\n        /* \"#utility.yul\":3755:3868   */\n      swap2\n      swap1\n      pop\n      jump\t// out\n        /* \"#utility.yul\":3874:4054   */\n    tag_85:\n        /* \"#utility.yul\":3922:3999   */\n      0x4e487b7100000000000000000000000000000000000000000000000000000000\n        /* \"#utility.yul\":3919:3920   */\n      0x00\n        /* \"#utility.yul\":3912:4000   */\n      mstore\n        /* \"#utility.yul\":4019:4023   */\n      0x11\n        /* \"#utility.yul\":4016:4017   */\n      0x04\n        /* \"#utility.yul\":4009:4024   */\n      mstore\n        /* \"#utility.yul\":4043:4047   */\n      0x24\n        /* \"#utility.yul\":4040:4041   */\n      0x00\n        /* \"#utility.yul\":4033:4048   */\n      revert\n        /* \"#utility.yul\":4060:4240   */\n    tag_79:\n        /* \"#utility.yul\":4108:4185   */\n      0x4e487b7100000000000000000000000000000000000000000000000000000000\n        /* \"#utility.yul\":4105:4106   */\n      0x00\n        /* \"#utility.yul\":4098:4186   */\n      mstore\n        /* \"#utility.yul\":4205:4209   */\n      0x12\n        /* \"#utility.yul\":4202:4203   */\n      0x04\n        /* \"#utility.yul\":4195:4210   */\n      mstore\n        /* \"#utility.yul\":4229:4233   */\n      0x24\n        /* \"#utility.yul\":4226:4227   */\n      0x00\n        /* \"#utility.yul\":4219:4234   */\n      revert\n        /* \"#utility.yul\":4369:4486   */\n    tag_48:\n        /* \"#utility.yul\":4478:4479   */\n      0x00\n        /* \"#utility.yul\":4475:4476   */\n      dup1\n        /* \"#utility.yul\":4468:4480   */\n      revert\n        /* \"#utility.yul\":4492:4664   */\n    tag_59:\n        /* \"#utility.yul\":4632:4656   */\n      0x596f7520646f6e74206861766520616e797468696e6700000000000000000000\n        /* \"#utility.yul\":4628:4629   */\n      0x00\n        /* \"#utility.yul\":4620:4626   */\n      dup3\n        /* \"#utility.yul\":4616:4630   */\n      add\n        /* \"#utility.yul\":4609:4657   */\n      mstore\n        /* \"#utility.yul\":4492:4664   */\n      pop\n      jump\t// out\n        /* \"#utility.yul\":4670:4792   */\n    tag_44:\n        /* \"#utility.yul\":4743:4767   */\n      tag_112\n        /* \"#utility.yul\":4761:4766   */\n      dup2\n        /* \"#utility.yul\":4743:4767   */\n      tag_91\n      jump\t// in\n    tag_112:\n        /* \"#utility.yul\":4736:4741   */\n      dup2\n        /* \"#utility.yul\":4733:4768   */\n      eq\n        /* \"#utility.yul\":4723:4786   */\n      tag_113\n      jumpi\n        /* \"#utility.yul\":4782:4783   */\n      0x00\n        /* \"#utility.yul\":4779:4780   */\n      dup1\n        /* \"#utility.yul\":4772:4784   */\n      revert\n        /* \"#utility.yul\":4723:4786   */\n    tag_113:\n        /* \"#utility.yul\":4670:4792   */\n      pop\n      jump\t// out\n\n    auxdata: 0xa26469706673582212202ecfb83087921ef861d45ffc0fa1d45b8849e480c8d789a8e6db07c268f7655c64736f6c63430008070033\n}\n",
				"bytecode": {
					"linkReferences": {},
					"object": "608060405234801561001057600080fd5b506040516107e93803806107e9833981810160405281019061003291906100e3565b73d7acd2a9fd159e69bb102a1ca21c9a3e3a5f771b600160006101000a81548173ffffffffffffffffffffffffffffffffffffffff021916908373ffffffffffffffffffffffffffffffffffffffff16021790555080600260006101000a81548173ffffffffffffffffffffffffffffffffffffffff021916908373ffffffffffffffffffffffffffffffffffffffff1602179055505061015e565b6000815190506100dd81610147565b92915050565b6000602082840312156100f9576100f8610142565b5b6000610107848285016100ce565b91505092915050565b600061011b82610122565b9050919050565b600073ffffffffffffffffffffffffffffffffffffffff82169050919050565b600080fd5b61015081610110565b811461015b57600080fd5b50565b61067c8061016d6000396000f3fe608060405234801561001057600080fd5b50600436106100625760003560e01c806302699df814610067578063283a1e1614610071578063754fe93e1461007b57806377af32261461009957806389a30271146100a3578063a87c70fa146100c1575b600080fd5b61006f6100f2565b005b6100796101af565b005b6100836101f7565b60405161009091906103fd565b60405180910390f35b6100a161021d565b005b6100ab610330565b6040516100b891906103fd565b60405180910390f35b6100db60048036038101906100d6919061038f565b610356565b6040516100e9929190610438565b60405180910390f35b60008060008060003373ffffffffffffffffffffffffffffffffffffffff1673ffffffffffffffffffffffffffffffffffffffff168152602001908152602001600020600001544261014491906104fd565b925060b4836101539190610472565b915060018261016291906104a3565b9050806000803373ffffffffffffffffffffffffffffffffffffffff1673ffffffffffffffffffffffffffffffffffffffff16815260200190815260200160002060010181905550505050565b426000803373ffffffffffffffffffffffffffffffffffffffff1673ffffffffffffffffffffffffffffffffffffffff16815260200190815260200160002060000181905550565b600260009054906101000a900473ffffffffffffffffffffffffffffffffffffffff1681565b60008060003373ffffffffffffffffffffffffffffffffffffffff1673ffffffffffffffffffffffffffffffffffffffff16815260200190815260200160002060010154116102a1576040517f08c379a000000000000000000000000000000000000000000000000000000000815260040161029890610418565b60405180910390fd5b60008060003373ffffffffffffffffffffffffffffffffffffffff1673ffffffffffffffffffffffffffffffffffffffff16815260200190815260200160002060010181905550426000803373ffffffffffffffffffffffffffffffffffffffff1673ffffffffffffffffffffffffffffffffffffffff16815260200190815260200160002060000181905550565b600160009054906101000a900473ffffffffffffffffffffffffffffffffffffffff1681565b60006020528060005260406000206000915090508060000154908060010154905082565b6000813590506103898161062f565b92915050565b6000602082840312156103a5576103a4610601565b5b60006103b38482850161037a565b91505092915050565b6103c58161056d565b82525050565b60006103d8601683610461565b91506103e382610606565b602082019050919050565b6103f781610563565b82525050565b600060208201905061041260008301846103bc565b92915050565b60006020820190508181036000830152610431816103cb565b9050919050565b600060408201905061044d60008301856103ee565b61045a60208301846103ee565b9392505050565b600082825260208201905092915050565b600061047d82610563565b915061048883610563565b925082610498576104976105d2565b5b828204905092915050565b60006104ae82610563565b91506104b983610563565b9250817fffffffffffffffffffffffffffffffffffffffffffffffffffffffffffffffff04831182151516156104f2576104f16105a3565b5b828202905092915050565b600061050882610563565b915061051383610563565b925082821015610526576105256105a3565b5b828203905092915050565b600061053c82610543565b9050919050565b600073ffffffffffffffffffffffffffffffffffffffff82169050919050565b6000819050919050565b60006105788261057f565b9050919050565b600061058a82610591565b9050919050565b600061059c82610543565b9050919050565b7f4e487b7100000000000000000000000000000000000000000000000000000000600052601160045260246000fd5b7f4e487b7100000000000000000000000000000000000000000000000000000000600052601260045260246000fd5b600080fd5b7f596f7520646f6e74206861766520616e797468696e6700000000000000000000600082015250565b61063881610531565b811461064357600080fd5b5056fea26469706673582212202ecfb83087921ef861d45ffc0fa1d45b8849e480c8d789a8e6db07c268f7655c64736f6c63430008070033",
					"opcodes": "PUSH1 0x80 PUSH1 0x40 MSTORE CALLVALUE DUP1 ISZERO PUSH2 0x10 JUMPI PUSH1 0x0 DUP1 REVERT JUMPDEST POP PUSH1 0x40 MLOAD PUSH2 0x7E9 CODESIZE SUB DUP1 PUSH2 0x7E9 DUP4 CODECOPY DUP2 DUP2 ADD PUSH1 0x40 MSTORE DUP2 ADD SWAP1 PUSH2 0x32 SWAP2 SWAP1 PUSH2 0xE3 JUMP JUMPDEST PUSH20 0xD7ACD2A9FD159E69BB102A1CA21C9A3E3A5F771B PUSH1 0x1 PUSH1 0x0 PUSH2 0x100 EXP DUP2 SLOAD DUP2 PUSH20 0xFFFFFFFFFFFFFFFFFFFFFFFFFFFFFFFFFFFFFFFF MUL NOT AND SWAP1 DUP4 PUSH20 0xFFFFFFFFFFFFFFFFFFFFFFFFFFFFFFFFFFFFFFFF AND MUL OR SWAP1 SSTORE POP DUP1 PUSH1 0x2 PUSH1 0x0 PUSH2 0x100 EXP DUP2 SLOAD DUP2 PUSH20 0xFFFFFFFFFFFFFFFFFFFFFFFFFFFFFFFFFFFFFFFF MUL NOT AND SWAP1 DUP4 PUSH20 0xFFFFFFFFFFFFFFFFFFFFFFFFFFFFFFFFFFFFFFFF AND MUL OR SWAP1 SSTORE POP POP PUSH2 0x15E JUMP JUMPDEST PUSH1 0x0 DUP2 MLOAD SWAP1 POP PUSH2 0xDD DUP2 PUSH2 0x147 JUMP JUMPDEST SWAP3 SWAP2 POP POP JUMP JUMPDEST PUSH1 0x0 PUSH1 0x20 DUP3 DUP5 SUB SLT ISZERO PUSH2 0xF9 JUMPI PUSH2 0xF8 PUSH2 0x142 JUMP JUMPDEST JUMPDEST PUSH1 0x0 PUSH2 0x107 DUP5 DUP3 DUP6 ADD PUSH2 0xCE JUMP JUMPDEST SWAP2 POP POP SWAP3 SWAP2 POP POP JUMP JUMPDEST PUSH1 0x0 PUSH2 0x11B DUP3 PUSH2 0x122 JUMP JUMPDEST SWAP1 POP SWAP2 SWAP1 POP JUMP JUMPDEST PUSH1 0x0 PUSH20 0xFFFFFFFFFFFFFFFFFFFFFFFFFFFFFFFFFFFFFFFF DUP3 AND SWAP1 POP SWAP2 SWAP1 POP JUMP JUMPDEST PUSH1 0x0 DUP1 REVERT JUMPDEST PUSH2 0x150 DUP2 PUSH2 0x110 JUMP JUMPDEST DUP2 EQ PUSH2 0x15B JUMPI PUSH1 0x0 DUP1 REVERT JUMPDEST POP JUMP JUMPDEST PUSH2 0x67C DUP1 PUSH2 0x16D PUSH1 0x0 CODECOPY PUSH1 0x0 RETURN INVALID PUSH1 0x80 PUSH1 0x40 MSTORE CALLVALUE DUP1 ISZERO PUSH2 0x10 JUMPI PUSH1 0x0 DUP1 REVERT JUMPDEST POP PUSH1 0x4 CALLDATASIZE LT PUSH2 0x62 JUMPI PUSH1 0x0 CALLDATALOAD PUSH1 0xE0 SHR DUP1 PUSH4 0x2699DF8 EQ PUSH2 0x67 JUMPI DUP1 PUSH4 0x283A1E16 EQ PUSH2 0x71 JUMPI DUP1 PUSH4 0x754FE93E EQ PUSH2 0x7B JUMPI DUP1 PUSH4 0x77AF3226 EQ PUSH2 0x99 JUMPI DUP1 PUSH4 0x89A30271 EQ PUSH2 0xA3 JUMPI DUP1 PUSH4 0xA87C70FA EQ PUSH2 0xC1 JUMPI JUMPDEST PUSH1 0x0 DUP1 REVERT JUMPDEST PUSH2 0x6F PUSH2 0xF2 JUMP JUMPDEST STOP JUMPDEST PUSH2 0x79 PUSH2 0x1AF JUMP JUMPDEST STOP JUMPDEST PUSH2 0x83 PUSH2 0x1F7 JUMP JUMPDEST PUSH1 0x40 MLOAD PUSH2 0x90 SWAP2 SWAP1 PUSH2 0x3FD JUMP JUMPDEST PUSH1 0x40 MLOAD DUP1 SWAP2 SUB SWAP1 RETURN JUMPDEST PUSH2 0xA1 PUSH2 0x21D JUMP JUMPDEST STOP JUMPDEST PUSH2 0xAB PUSH2 0x330 JUMP JUMPDEST PUSH1 0x40 MLOAD PUSH2 0xB8 SWAP2 SWAP1 PUSH2 0x3FD JUMP JUMPDEST PUSH1 0x40 MLOAD DUP1 SWAP2 SUB SWAP1 RETURN JUMPDEST PUSH2 0xDB PUSH1 0x4 DUP1 CALLDATASIZE SUB DUP2 ADD SWAP1 PUSH2 0xD6 SWAP2 SWAP1 PUSH2 0x38F JUMP JUMPDEST PUSH2 0x356 JUMP JUMPDEST PUSH1 0x40 MLOAD PUSH2 0xE9 SWAP3 SWAP2 SWAP1 PUSH2 0x438 JUMP JUMPDEST PUSH1 0x40 MLOAD DUP1 SWAP2 SUB SWAP1 RETURN JUMPDEST PUSH1 0x0 DUP1 PUSH1 0x0 DUP1 PUSH1 0x0 CALLER PUSH20 0xFFFFFFFFFFFFFFFFFFFFFFFFFFFFFFFFFFFFFFFF AND PUSH20 0xFFFFFFFFFFFFFFFFFFFFFFFFFFFFFFFFFFFFFFFF AND DUP2 MSTORE PUSH1 0x20 ADD SWAP1 DUP2 MSTORE PUSH1 0x20 ADD PUSH1 0x0 KECCAK256 PUSH1 0x0 ADD SLOAD TIMESTAMP PUSH2 0x144 SWAP2 SWAP1 PUSH2 0x4FD JUMP JUMPDEST SWAP3 POP PUSH1 0xB4 DUP4 PUSH2 0x153 SWAP2 SWAP1 PUSH2 0x472 JUMP JUMPDEST SWAP2 POP PUSH1 0x1 DUP3 PUSH2 0x162 SWAP2 SWAP1 PUSH2 0x4A3 JUMP JUMPDEST SWAP1 POP DUP1 PUSH1 0x0 DUP1 CALLER PUSH20 0xFFFFFFFFFFFFFFFFFFFFFFFFFFFFFFFFFFFFFFFF AND PUSH20 0xFFFFFFFFFFFFFFFFFFFFFFFFFFFFFFFFFFFFFFFF AND DUP2 MSTORE PUSH1 0x20 ADD SWAP1 DUP2 MSTORE PUSH1 0x20 ADD PUSH1 0x0 KECCAK256 PUSH1 0x1 ADD DUP2 SWAP1 SSTORE POP POP POP POP JUMP JUMPDEST TIMESTAMP PUSH1 0x0 DUP1 CALLER PUSH20 0xFFFFFFFFFFFFFFFFFFFFFFFFFFFFFFFFFFFFFFFF AND PUSH20 0xFFFFFFFFFFFFFFFFFFFFFFFFFFFFFFFFFFFFFFFF AND DUP2 MSTORE PUSH1 0x20 ADD SWAP1 DUP2 MSTORE PUSH1 0x20 ADD PUSH1 0x0 KECCAK256 PUSH1 0x0 ADD DUP2 SWAP1 SSTORE POP JUMP JUMPDEST PUSH1 0x2 PUSH1 0x0 SWAP1 SLOAD SWAP1 PUSH2 0x100 EXP SWAP1 DIV PUSH20 0xFFFFFFFFFFFFFFFFFFFFFFFFFFFFFFFFFFFFFFFF AND DUP2 JUMP JUMPDEST PUSH1 0x0 DUP1 PUSH1 0x0 CALLER PUSH20 0xFFFFFFFFFFFFFFFFFFFFFFFFFFFFFFFFFFFFFFFF AND PUSH20 0xFFFFFFFFFFFFFFFFFFFFFFFFFFFFFFFFFFFFFFFF AND DUP2 MSTORE PUSH1 0x20 ADD SWAP1 DUP2 MSTORE PUSH1 0x20 ADD PUSH1 0x0 KECCAK256 PUSH1 0x1 ADD SLOAD GT PUSH2 0x2A1 JUMPI PUSH1 0x40 MLOAD PUSH32 0x8C379A000000000000000000000000000000000000000000000000000000000 DUP2 MSTORE PUSH1 0x4 ADD PUSH2 0x298 SWAP1 PUSH2 0x418 JUMP JUMPDEST PUSH1 0x40 MLOAD DUP1 SWAP2 SUB SWAP1 REVERT JUMPDEST PUSH1 0x0 DUP1 PUSH1 0x0 CALLER PUSH20 0xFFFFFFFFFFFFFFFFFFFFFFFFFFFFFFFFFFFFFFFF AND PUSH20 0xFFFFFFFFFFFFFFFFFFFFFFFFFFFFFFFFFFFFFFFF AND DUP2 MSTORE PUSH1 0x20 ADD SWAP1 DUP2 MSTORE PUSH1 0x20 ADD PUSH1 0x0 KECCAK256 PUSH1 0x1 ADD DUP2 SWAP1 SSTORE POP TIMESTAMP PUSH1 0x0 DUP1 CALLER PUSH20 0xFFFFFFFFFFFFFFFFFFFFFFFFFFFFFFFFFFFFFFFF AND PUSH20 0xFFFFFFFFFFFFFFFFFFFFFFFFFFFFFFFFFFFFFFFF AND DUP2 MSTORE PUSH1 0x20 ADD SWAP1 DUP2 MSTORE PUSH1 0x20 ADD PUSH1 0x0 KECCAK256 PUSH1 0x0 ADD DUP2 SWAP1 SSTORE POP JUMP JUMPDEST PUSH1 0x1 PUSH1 0x0 SWAP1 SLOAD SWAP1 PUSH2 0x100 EXP SWAP1 DIV PUSH20 0xFFFFFFFFFFFFFFFFFFFFFFFFFFFFFFFFFFFFFFFF AND DUP2 JUMP JUMPDEST PUSH1 0x0 PUSH1 0x20 MSTORE DUP1 PUSH1 0x0 MSTORE PUSH1 0x40 PUSH1 0x0 KECCAK256 PUSH1 0x0 SWAP2 POP SWAP1 POP DUP1 PUSH1 0x0 ADD SLOAD SWAP1 DUP1 PUSH1 0x1 ADD SLOAD SWAP1 POP DUP3 JUMP JUMPDEST PUSH1 0x0 DUP2 CALLDATALOAD SWAP1 POP PUSH2 0x389 DUP2 PUSH2 0x62F JUMP JUMPDEST SWAP3 SWAP2 POP POP JUMP JUMPDEST PUSH1 0x0 PUSH1 0x20 DUP3 DUP5 SUB SLT ISZERO PUSH2 0x3A5 JUMPI PUSH2 0x3A4 PUSH2 0x601 JUMP JUMPDEST JUMPDEST PUSH1 0x0 PUSH2 0x3B3 DUP5 DUP3 DUP6 ADD PUSH2 0x37A JUMP JUMPDEST SWAP2 POP POP SWAP3 SWAP2 POP POP JUMP JUMPDEST PUSH2 0x3C5 DUP2 PUSH2 0x56D JUMP JUMPDEST DUP3 MSTORE POP POP JUMP JUMPDEST PUSH1 0x0 PUSH2 0x3D8 PUSH1 0x16 DUP4 PUSH2 0x461 JUMP JUMPDEST SWAP2 POP PUSH2 0x3E3 DUP3 PUSH2 0x606 JUMP JUMPDEST PUSH1 0x20 DUP3 ADD SWAP1 POP SWAP2 SWAP1 POP JUMP JUMPDEST PUSH2 0x3F7 DUP2 PUSH2 0x563 JUMP JUMPDEST DUP3 MSTORE POP POP JUMP JUMPDEST PUSH1 0x0 PUSH1 0x20 DUP3 ADD SWAP1 POP PUSH2 0x412 PUSH1 0x0 DUP4 ADD DUP5 PUSH2 0x3BC JUMP JUMPDEST SWAP3 SWAP2 POP POP JUMP JUMPDEST PUSH1 0x0 PUSH1 0x20 DUP3 ADD SWAP1 POP DUP2 DUP2 SUB PUSH1 0x0 DUP4 ADD MSTORE PUSH2 0x431 DUP2 PUSH2 0x3CB JUMP JUMPDEST SWAP1 POP SWAP2 SWAP1 POP JUMP JUMPDEST PUSH1 0x0 PUSH1 0x40 DUP3 ADD SWAP1 POP PUSH2 0x44D PUSH1 0x0 DUP4 ADD DUP6 PUSH2 0x3EE JUMP JUMPDEST PUSH2 0x45A PUSH1 0x20 DUP4 ADD DUP5 PUSH2 0x3EE JUMP JUMPDEST SWAP4 SWAP3 POP POP POP JUMP JUMPDEST PUSH1 0x0 DUP3 DUP3 MSTORE PUSH1 0x20 DUP3 ADD SWAP1 POP SWAP3 SWAP2 POP POP JUMP JUMPDEST PUSH1 0x0 PUSH2 0x47D DUP3 PUSH2 0x563 JUMP JUMPDEST SWAP2 POP PUSH2 0x488 DUP4 PUSH2 0x563 JUMP JUMPDEST SWAP3 POP DUP3 PUSH2 0x498 JUMPI PUSH2 0x497 PUSH2 0x5D2 JUMP JUMPDEST JUMPDEST DUP3 DUP3 DIV SWAP1 POP SWAP3 SWAP2 POP POP JUMP JUMPDEST PUSH1 0x0 PUSH2 0x4AE DUP3 PUSH2 0x563 JUMP JUMPDEST SWAP2 POP PUSH2 0x4B9 DUP4 PUSH2 0x563 JUMP JUMPDEST SWAP3 POP DUP2 PUSH32 0xFFFFFFFFFFFFFFFFFFFFFFFFFFFFFFFFFFFFFFFFFFFFFFFFFFFFFFFFFFFFFFFF DIV DUP4 GT DUP3 ISZERO ISZERO AND ISZERO PUSH2 0x4F2 JUMPI PUSH2 0x4F1 PUSH2 0x5A3 JUMP JUMPDEST JUMPDEST DUP3 DUP3 MUL SWAP1 POP SWAP3 SWAP2 POP POP JUMP JUMPDEST PUSH1 0x0 PUSH2 0x508 DUP3 PUSH2 0x563 JUMP JUMPDEST SWAP2 POP PUSH2 0x513 DUP4 PUSH2 0x563 JUMP JUMPDEST SWAP3 POP DUP3 DUP3 LT ISZERO PUSH2 0x526 JUMPI PUSH2 0x525 PUSH2 0x5A3 JUMP JUMPDEST JUMPDEST DUP3 DUP3 SUB SWAP1 POP SWAP3 SWAP2 POP POP JUMP JUMPDEST PUSH1 0x0 PUSH2 0x53C DUP3 PUSH2 0x543 JUMP JUMPDEST SWAP1 POP SWAP2 SWAP1 POP JUMP JUMPDEST PUSH1 0x0 PUSH20 0xFFFFFFFFFFFFFFFFFFFFFFFFFFFFFFFFFFFFFFFF DUP3 AND SWAP1 POP SWAP2 SWAP1 POP JUMP JUMPDEST PUSH1 0x0 DUP2 SWAP1 POP SWAP2 SWAP1 POP JUMP JUMPDEST PUSH1 0x0 PUSH2 0x578 DUP3 PUSH2 0x57F JUMP JUMPDEST SWAP1 POP SWAP2 SWAP1 POP JUMP JUMPDEST PUSH1 0x0 PUSH2 0x58A DUP3 PUSH2 0x591 JUMP JUMPDEST SWAP1 POP SWAP2 SWAP1 POP JUMP JUMPDEST PUSH1 0x0 PUSH2 0x59C DUP3 PUSH2 0x543 JUMP JUMPDEST SWAP1 POP SWAP2 SWAP1 POP JUMP JUMPDEST PUSH32 0x4E487B7100000000000000000000000000000000000000000000000000000000 PUSH1 0x0 MSTORE PUSH1 0x11 PUSH1 0x4 MSTORE PUSH1 0x24 PUSH1 0x0 REVERT JUMPDEST PUSH32 0x4E487B7100000000000000000000000000000000000000000000000000000000 PUSH1 0x0 MSTORE PUSH1 0x12 PUSH1 0x4 MSTORE PUSH1 0x24 PUSH1 0x0 REVERT JUMPDEST PUSH1 0x0 DUP1 REVERT JUMPDEST PUSH32 0x596F7520646F6E74206861766520616E797468696E6700000000000000000000 PUSH1 0x0 DUP3 ADD MSTORE POP JUMP JUMPDEST PUSH2 0x638 DUP2 PUSH2 0x531 JUMP JUMPDEST DUP2 EQ PUSH2 0x643 JUMPI PUSH1 0x0 DUP1 REVERT JUMPDEST POP JUMP INVALID LOG2 PUSH5 0x6970667358 0x22 SLT KECCAK256 0x2E 0xCF 0xB8 ADDRESS DUP8 SWAP3 0x1E 0xF8 PUSH2 0xD45F 0xFC 0xF LOG1 0xD4 JUMPDEST DUP9 0x49 0xE4 DUP1 0xC8 0xD7 DUP10 0xA8 0xE6 0xDB SMOD 0xC2 PUSH9 0xF7655C64736F6C6343 STOP ADDMOD SMOD STOP CALLER "
				},
				"gasEstimates": {
					"creation": {
						"codeDepositCost": "332000",
						"executionCost": "infinite",
						"totalCost": "infinite"
					},
					"external": {
						"Bton()": "2622",
						"USDC()": "2666",
						"airdroppedBal(address)": "infinite",
						"calcAirdrop()": "infinite",
						"startAirDrop()": "22352",
						"withdrawAirDrop()": "29723"
					}
				},
				"methodIdentifiers": {
					"Bton()": "754fe93e",
					"USDC()": "89a30271",
					"airdroppedBal(address)": "a87c70fa",
					"calcAirdrop()": "02699df8",
					"startAirDrop()": "283a1e16",
					"withdrawAirDrop()": "77af3226"
				}
			},
			"userdoc": {
				"kind": "user",
				"methods": {},
				"version": 1
			}
		}
	}
}