{
	"saf.sol": {
		"Safuu": {
			"abi": [
				{
					"inputs": [],
					"stateMutability": "nonpayable",
					"type": "constructor"
				},
				{
					"anonymous": false,
					"inputs": [
						{
							"indexed": true,
							"internalType": "address",
							"name": "owner",
							"type": "address"
						},
						{
							"indexed": true,
							"internalType": "address",
							"name": "spender",
							"type": "address"
						},
						{
							"indexed": false,
							"internalType": "uint256",
							"name": "value",
							"type": "uint256"
						}
					],
					"name": "Approval",
					"type": "event"
				},
				{
					"anonymous": false,
					"inputs": [
						{
							"indexed": true,
							"internalType": "uint256",
							"name": "epoch",
							"type": "uint256"
						},
						{
							"indexed": false,
							"internalType": "uint256",
							"name": "totalSupply",
							"type": "uint256"
						}
					],
					"name": "LogRebase",
					"type": "event"
				},
				{
					"anonymous": false,
					"inputs": [
						{
							"indexed": true,
							"internalType": "address",
							"name": "previousOwner",
							"type": "address"
						}
					],
					"name": "OwnershipRenounced",
					"type": "event"
				},
				{
					"anonymous": false,
					"inputs": [
						{
							"indexed": true,
							"internalType": "address",
							"name": "previousOwner",
							"type": "address"
						},
						{
							"indexed": true,
							"internalType": "address",
							"name": "newOwner",
							"type": "address"
						}
					],
					"name": "OwnershipTransferred",
					"type": "event"
				},
				{
					"anonymous": false,
					"inputs": [
						{
							"indexed": true,
							"internalType": "address",
							"name": "from",
							"type": "address"
						},
						{
							"indexed": true,
							"internalType": "address",
							"name": "to",
							"type": "address"
						},
						{
							"indexed": false,
							"internalType": "uint256",
							"name": "value",
							"type": "uint256"
						}
					],
					"name": "Transfer",
					"type": "event"
				},
				{
					"inputs": [],
					"name": "DECIMALS",
					"outputs": [
						{
							"internalType": "uint256",
							"name": "",
							"type": "uint256"
						}
					],
					"stateMutability": "view",
					"type": "function"
				},
				{
					"inputs": [],
					"name": "MAX_UINT256",
					"outputs": [
						{
							"internalType": "uint256",
							"name": "",
							"type": "uint256"
						}
					],
					"stateMutability": "view",
					"type": "function"
				},
				{
					"inputs": [],
					"name": "RATE_DECIMALS",
					"outputs": [
						{
							"internalType": "uint8",
							"name": "",
							"type": "uint8"
						}
					],
					"stateMutability": "view",
					"type": "function"
				},
				{
					"inputs": [],
					"name": "_autoAddLiquidity",
					"outputs": [
						{
							"internalType": "bool",
							"name": "",
							"type": "bool"
						}
					],
					"stateMutability": "view",
					"type": "function"
				},
				{
					"inputs": [],
					"name": "_autoRebase",
					"outputs": [
						{
							"internalType": "bool",
							"name": "",
							"type": "bool"
						}
					],
					"stateMutability": "view",
					"type": "function"
				},
				{
					"inputs": [],
					"name": "_decimals",
					"outputs": [
						{
							"internalType": "uint8",
							"name": "",
							"type": "uint8"
						}
					],
					"stateMutability": "view",
					"type": "function"
				},
				{
					"inputs": [],
					"name": "_initRebaseStartTime",
					"outputs": [
						{
							"internalType": "uint256",
							"name": "",
							"type": "uint256"
						}
					],
					"stateMutability": "view",
					"type": "function"
				},
				{
					"inputs": [],
					"name": "_lastAddLiquidityTime",
					"outputs": [
						{
							"internalType": "uint256",
							"name": "",
							"type": "uint256"
						}
					],
					"stateMutability": "view",
					"type": "function"
				},
				{
					"inputs": [],
					"name": "_lastRebasedTime",
					"outputs": [
						{
							"internalType": "uint256",
							"name": "",
							"type": "uint256"
						}
					],
					"stateMutability": "view",
					"type": "function"
				},
				{
					"inputs": [],
					"name": "_name",
					"outputs": [
						{
							"internalType": "string",
							"name": "",
							"type": "string"
						}
					],
					"stateMutability": "view",
					"type": "function"
				},
				{
					"inputs": [],
					"name": "_symbol",
					"outputs": [
						{
							"internalType": "string",
							"name": "",
							"type": "string"
						}
					],
					"stateMutability": "view",
					"type": "function"
				},
				{
					"inputs": [],
					"name": "_totalSupply",
					"outputs": [
						{
							"internalType": "uint256",
							"name": "",
							"type": "uint256"
						}
					],
					"stateMutability": "view",
					"type": "function"
				},
				{
					"inputs": [
						{
							"internalType": "address",
							"name": "owner_",
							"type": "address"
						},
						{
							"internalType": "address",
							"name": "spender",
							"type": "address"
						}
					],
					"name": "allowance",
					"outputs": [
						{
							"internalType": "uint256",
							"name": "",
							"type": "uint256"
						}
					],
					"stateMutability": "view",
					"type": "function"
				},
				{
					"inputs": [
						{
							"internalType": "address",
							"name": "spender",
							"type": "address"
						},
						{
							"internalType": "uint256",
							"name": "value",
							"type": "uint256"
						}
					],
					"name": "approve",
					"outputs": [
						{
							"internalType": "bool",
							"name": "",
							"type": "bool"
						}
					],
					"stateMutability": "nonpayable",
					"type": "function"
				},
				{
					"inputs": [],
					"name": "autoLiquidityReceiver",
					"outputs": [
						{
							"internalType": "address",
							"name": "",
							"type": "address"
						}
					],
					"stateMutability": "view",
					"type": "function"
				},
				{
					"inputs": [
						{
							"internalType": "address",
							"name": "who",
							"type": "address"
						}
					],
					"name": "balanceOf",
					"outputs": [
						{
							"internalType": "uint256",
							"name": "",
							"type": "uint256"
						}
					],
					"stateMutability": "view",
					"type": "function"
				},
				{
					"inputs": [
						{
							"internalType": "address",
							"name": "",
							"type": "address"
						}
					],
					"name": "blacklist",
					"outputs": [
						{
							"internalType": "bool",
							"name": "",
							"type": "bool"
						}
					],
					"stateMutability": "view",
					"type": "function"
				},
				{
					"inputs": [
						{
							"internalType": "address",
							"name": "_addr",
							"type": "address"
						}
					],
					"name": "checkFeeExempt",
					"outputs": [
						{
							"internalType": "bool",
							"name": "",
							"type": "bool"
						}
					],
					"stateMutability": "view",
					"type": "function"
				},
				{
					"inputs": [],
					"name": "decimals",
					"outputs": [
						{
							"internalType": "uint8",
							"name": "",
							"type": "uint8"
						}
					],
					"stateMutability": "view",
					"type": "function"
				},
				{
					"inputs": [
						{
							"internalType": "address",
							"name": "spender",
							"type": "address"
						},
						{
							"internalType": "uint256",
							"name": "subtractedValue",
							"type": "uint256"
						}
					],
					"name": "decreaseAllowance",
					"outputs": [
						{
							"internalType": "bool",
							"name": "",
							"type": "bool"
						}
					],
					"stateMutability": "nonpayable",
					"type": "function"
				},
				{
					"inputs": [],
					"name": "feeDenominator",
					"outputs": [
						{
							"internalType": "uint256",
							"name": "",
							"type": "uint256"
						}
					],
					"stateMutability": "view",
					"type": "function"
				},
				{
					"inputs": [],
					"name": "firePit",
					"outputs": [
						{
							"internalType": "address",
							"name": "",
							"type": "address"
						}
					],
					"stateMutability": "view",
					"type": "function"
				},
				{
					"inputs": [],
					"name": "firePitFee",
					"outputs": [
						{
							"internalType": "uint256",
							"name": "",
							"type": "uint256"
						}
					],
					"stateMutability": "view",
					"type": "function"
				},
				{
					"inputs": [],
					"name": "getCirculatingSupply",
					"outputs": [
						{
							"internalType": "uint256",
							"name": "",
							"type": "uint256"
						}
					],
					"stateMutability": "view",
					"type": "function"
				},
				{
					"inputs": [
						{
							"internalType": "uint256",
							"name": "accuracy",
							"type": "uint256"
						}
					],
					"name": "getLiquidityBacking",
					"outputs": [
						{
							"internalType": "uint256",
							"name": "",
							"type": "uint256"
						}
					],
					"stateMutability": "view",
					"type": "function"
				},
				{
					"inputs": [
						{
							"internalType": "address",
							"name": "spender",
							"type": "address"
						},
						{
							"internalType": "uint256",
							"name": "addedValue",
							"type": "uint256"
						}
					],
					"name": "increaseAllowance",
					"outputs": [
						{
							"internalType": "bool",
							"name": "",
							"type": "bool"
						}
					],
					"stateMutability": "nonpayable",
					"type": "function"
				},
				{
					"inputs": [],
					"name": "isNotInSwap",
					"outputs": [
						{
							"internalType": "bool",
							"name": "",
							"type": "bool"
						}
					],
					"stateMutability": "view",
					"type": "function"
				},
				{
					"inputs": [],
					"name": "isOwner",
					"outputs": [
						{
							"internalType": "bool",
							"name": "",
							"type": "bool"
						}
					],
					"stateMutability": "view",
					"type": "function"
				},
				{
					"inputs": [],
					"name": "liquidityFee",
					"outputs": [
						{
							"internalType": "uint256",
							"name": "",
							"type": "uint256"
						}
					],
					"stateMutability": "view",
					"type": "function"
				},
				{
					"inputs": [],
					"name": "manualSync",
					"outputs": [],
					"stateMutability": "nonpayable",
					"type": "function"
				},
				{
					"inputs": [],
					"name": "name",
					"outputs": [
						{
							"internalType": "string",
							"name": "",
							"type": "string"
						}
					],
					"stateMutability": "view",
					"type": "function"
				},
				{
					"inputs": [],
					"name": "owner",
					"outputs": [
						{
							"internalType": "address",
							"name": "",
							"type": "address"
						}
					],
					"stateMutability": "view",
					"type": "function"
				},
				{
					"inputs": [],
					"name": "pair",
					"outputs": [
						{
							"internalType": "address",
							"name": "",
							"type": "address"
						}
					],
					"stateMutability": "view",
					"type": "function"
				},
				{
					"inputs": [],
					"name": "pairAddress",
					"outputs": [
						{
							"internalType": "address",
							"name": "",
							"type": "address"
						}
					],
					"stateMutability": "view",
					"type": "function"
				},
				{
					"inputs": [],
					"name": "renounceOwnership",
					"outputs": [],
					"stateMutability": "nonpayable",
					"type": "function"
				},
				{
					"inputs": [],
					"name": "safuuInsuranceFundFee",
					"outputs": [
						{
							"internalType": "uint256",
							"name": "",
							"type": "uint256"
						}
					],
					"stateMutability": "view",
					"type": "function"
				},
				{
					"inputs": [],
					"name": "safuuInsuranceFundReceiver",
					"outputs": [
						{
							"internalType": "address",
							"name": "",
							"type": "address"
						}
					],
					"stateMutability": "view",
					"type": "function"
				},
				{
					"inputs": [],
					"name": "sellFee",
					"outputs": [
						{
							"internalType": "uint256",
							"name": "",
							"type": "uint256"
						}
					],
					"stateMutability": "view",
					"type": "function"
				},
				{
					"inputs": [
						{
							"internalType": "bool",
							"name": "_flag",
							"type": "bool"
						}
					],
					"name": "setAutoAddLiquidity",
					"outputs": [],
					"stateMutability": "nonpayable",
					"type": "function"
				},
				{
					"inputs": [
						{
							"internalType": "bool",
							"name": "_flag",
							"type": "bool"
						}
					],
					"name": "setAutoRebase",
					"outputs": [],
					"stateMutability": "nonpayable",
					"type": "function"
				},
				{
					"inputs": [
						{
							"internalType": "address",
							"name": "_botAddress",
							"type": "address"
						},
						{
							"internalType": "bool",
							"name": "_flag",
							"type": "bool"
						}
					],
					"name": "setBotBlacklist",
					"outputs": [],
					"stateMutability": "nonpayable",
					"type": "function"
				},
				{
					"inputs": [
						{
							"internalType": "address",
							"name": "_autoLiquidityReceiver",
							"type": "address"
						},
						{
							"internalType": "address",
							"name": "_treasuryReceiver",
							"type": "address"
						},
						{
							"internalType": "address",
							"name": "_safuuInsuranceFundReceiver",
							"type": "address"
						},
						{
							"internalType": "address",
							"name": "_firePit",
							"type": "address"
						}
					],
					"name": "setFeeReceivers",
					"outputs": [],
					"stateMutability": "nonpayable",
					"type": "function"
				},
				{
					"inputs": [
						{
							"internalType": "address",
							"name": "_address",
							"type": "address"
						}
					],
					"name": "setLP",
					"outputs": [],
					"stateMutability": "nonpayable",
					"type": "function"
				},
				{
					"inputs": [
						{
							"internalType": "address",
							"name": "_pairAddress",
							"type": "address"
						}
					],
					"name": "setPairAddress",
					"outputs": [],
					"stateMutability": "nonpayable",
					"type": "function"
				},
				{
					"inputs": [
						{
							"internalType": "address",
							"name": "_addr",
							"type": "address"
						}
					],
					"name": "setWhitelist",
					"outputs": [],
					"stateMutability": "nonpayable",
					"type": "function"
				},
				{
					"inputs": [],
					"name": "swapEnabled",
					"outputs": [
						{
							"internalType": "bool",
							"name": "",
							"type": "bool"
						}
					],
					"stateMutability": "view",
					"type": "function"
				},
				{
					"inputs": [],
					"name": "symbol",
					"outputs": [
						{
							"internalType": "string",
							"name": "",
							"type": "string"
						}
					],
					"stateMutability": "view",
					"type": "function"
				},
				{
					"inputs": [],
					"name": "totalFee",
					"outputs": [
						{
							"internalType": "uint256",
							"name": "",
							"type": "uint256"
						}
					],
					"stateMutability": "view",
					"type": "function"
				},
				{
					"inputs": [],
					"name": "totalSupply",
					"outputs": [
						{
							"internalType": "uint256",
							"name": "",
							"type": "uint256"
						}
					],
					"stateMutability": "view",
					"type": "function"
				},
				{
					"inputs": [
						{
							"internalType": "address",
							"name": "to",
							"type": "address"
						},
						{
							"internalType": "uint256",
							"name": "value",
							"type": "uint256"
						}
					],
					"name": "transfer",
					"outputs": [
						{
							"internalType": "bool",
							"name": "",
							"type": "bool"
						}
					],
					"stateMutability": "nonpayable",
					"type": "function"
				},
				{
					"inputs": [
						{
							"internalType": "address",
							"name": "from",
							"type": "address"
						},
						{
							"internalType": "address",
							"name": "to",
							"type": "address"
						},
						{
							"internalType": "uint256",
							"name": "value",
							"type": "uint256"
						}
					],
					"name": "transferFrom",
					"outputs": [
						{
							"internalType": "bool",
							"name": "",
							"type": "bool"
						}
					],
					"stateMutability": "nonpayable",
					"type": "function"
				},
				{
					"inputs": [
						{
							"internalType": "address",
							"name": "newOwner",
							"type": "address"
						}
					],
					"name": "transferOwnership",
					"outputs": [],
					"stateMutability": "nonpayable",
					"type": "function"
				},
				{
					"inputs": [],
					"name": "treasuryFee",
					"outputs": [
						{
							"internalType": "uint256",
							"name": "",
							"type": "uint256"
						}
					],
					"stateMutability": "view",
					"type": "function"
				},
				{
					"inputs": [],
					"name": "treasuryReceiver",
					"outputs": [
						{
							"internalType": "address",
							"name": "",
							"type": "address"
						}
					],
					"stateMutability": "view",
					"type": "function"
				},
				{
					"inputs": [],
					"name": "withdrawAllToTreasury",
					"outputs": [],
					"stateMutability": "nonpayable",
					"type": "function"
				},
				{
					"stateMutability": "payable",
					"type": "receive"
				}
			],
			"devdoc": {
				"kind": "dev",
				"methods": {},
				"version": 1
			},
			"evm": {
				"assembly": "    /* \"saf.sol\":4982:19250  contract Safuu is ERC20Detailed, Ownable {\r... */\n  mstore(0x40, 0x80)\n    /* \"saf.sol\":5170:5199  string public _name = \"Safuu\" */\n  mload(0x40)\n  dup1\n  0x40\n  add\n  0x40\n  mstore\n  dup1\n  0x05\n  dup2\n  mstore\n  0x20\n  add\n  0x5361667575000000000000000000000000000000000000000000000000000000\n  dup2\n  mstore\n  pop\n  0x03\n  swap1\n  dup1\n  mload\n  swap1\n  0x20\n  add\n  swap1\n  tag_1\n  swap3\n  swap2\n  swap1\n  tag_2\n  jump\t// in\ntag_1:\n  pop\n    /* \"saf.sol\":5206:5237  string public _symbol = \"SAFUU\" */\n  mload(0x40)\n  dup1\n  0x40\n  add\n  0x40\n  mstore\n  dup1\n  0x05\n  dup2\n  mstore\n  0x20\n  add\n  0x5341465555000000000000000000000000000000000000000000000000000000\n  dup2\n  mstore\n  pop\n  0x04\n  swap1\n  dup1\n  mload\n  swap1\n  0x20\n  add\n  swap1\n  tag_3\n  swap3\n  swap2\n  swap1\n  tag_2\n  jump\t// in\ntag_3:\n  pop\n    /* \"saf.sol\":5269:5270  5 */\n  0x05\n    /* \"saf.sol\":5244:5270  uint8 public _decimals = 5 */\n  dup1\n  exp(0x0100, 0x00)\n  dup2\n  sload\n  dup2\n  0xff\n  mul\n  not\n  and\n  swap1\n  dup4\n  0xff\n  and\n  mul\n  or\n  swap1\n  sstore\n  pop\n    /* \"saf.sol\":5700:5702  40 */\n  0x28\n    /* \"saf.sol\":5670:5702  uint256 public liquidityFee = 40 */\n  0x07\n  sstore\n    /* \"saf.sol\":5738:5740  25 */\n  0x19\n    /* \"saf.sol\":5709:5740  uint256 public treasuryFee = 25 */\n  0x08\n  sstore\n    /* \"saf.sol\":5786:5788  50 */\n  0x32\n    /* \"saf.sol\":5747:5788  uint256 public safuuInsuranceFundFee = 50 */\n  0x09\n  sstore\n    /* \"saf.sol\":5820:5822  20 */\n  0x14\n    /* \"saf.sol\":5795:5822  uint256 public sellFee = 20 */\n  0x0a\n  sstore\n    /* \"saf.sol\":5857:5859  25 */\n  0x19\n    /* \"saf.sol\":5829:5859  uint256 public firePitFee = 25 */\n  0x0b\n  sstore\n    /* \"saf.sol\":5901:5997  liquidityFee.add(treasuryFee).add(safuuInsuranceFundFee).add(\r... */\n  tag_4\n    /* \"saf.sol\":5976:5986  firePitFee */\n  sload(0x0b)\n    /* \"saf.sol\":5901:5957  liquidityFee.add(treasuryFee).add(safuuInsuranceFundFee) */\n  tag_5\n    /* \"saf.sol\":5935:5956  safuuInsuranceFundFee */\n  sload(0x09)\n    /* \"saf.sol\":5901:5930  liquidityFee.add(treasuryFee) */\n  tag_6\n    /* \"saf.sol\":5918:5929  treasuryFee */\n  sload(0x08)\n    /* \"saf.sol\":5901:5913  liquidityFee */\n  sload(0x07)\n    /* \"saf.sol\":5901:5917  liquidityFee.add */\n  or(tag_0_273, shl(0x20, tag_7))\n  swap1\n    /* \"saf.sol\":5901:5930  liquidityFee.add(treasuryFee) */\n  swap2\n  swap1\n  0x20\n  shr\n  jump\t// in\ntag_6:\n    /* \"saf.sol\":5901:5934  liquidityFee.add(treasuryFee).add */\n  or(tag_0_273, shl(0x20, tag_7))\n  swap1\n    /* \"saf.sol\":5901:5957  liquidityFee.add(treasuryFee).add(safuuInsuranceFundFee) */\n  swap2\n  swap1\n  0x20\n  shr\n  jump\t// in\ntag_5:\n    /* \"saf.sol\":5901:5961  liquidityFee.add(treasuryFee).add(safuuInsuranceFundFee).add */\n  or(tag_0_273, shl(0x20, tag_7))\n  swap1\n    /* \"saf.sol\":5901:5997  liquidityFee.add(treasuryFee).add(safuuInsuranceFundFee).add(\r... */\n  swap2\n  swap1\n  0x20\n  shr\n  jump\t// in\ntag_4:\n    /* \"saf.sol\":5866:5997  uint256 public totalFee =\r... */\n  0x0c\n  sstore\n    /* \"saf.sol\":6036:6040  1000 */\n  0x03e8\n    /* \"saf.sol\":6004:6040  uint256 public feeDenominator = 1000 */\n  0x0d\n  sstore\n    /* \"saf.sol\":6064:6106  0x000000000000000000000000000000000000dEaD */\n  0xdead\n    /* \"saf.sol\":6049:6106  address DEAD = 0x000000000000000000000000000000000000dEaD */\n  0x0e\n  exp(0x0100, 0x00)\n  dup2\n  sload\n  dup2\n  0xffffffffffffffffffffffffffffffffffffffff\n  mul\n  not\n  and\n  swap1\n  dup4\n  0xffffffffffffffffffffffffffffffffffffffff\n  and\n  mul\n  or\n  swap1\n  sstore\n  pop\n    /* \"saf.sol\":6128:6170  0x0000000000000000000000000000000000000000 */\n  0x00\n    /* \"saf.sol\":6113:6170  address ZERO = 0x0000000000000000000000000000000000000000 */\n  0x0f\n  exp(0x0100, 0x00)\n  dup2\n  sload\n  dup2\n  0xffffffffffffffffffffffffffffffffffffffff\n  mul\n  not\n  and\n  swap1\n  dup4\n  0xffffffffffffffffffffffffffffffffffffffff\n  and\n  mul\n  or\n  swap1\n  sstore\n  pop\n    /* \"saf.sol\":6396:6400  true */\n  0x01\n    /* \"saf.sol\":6370:6400  bool public swapEnabled = true */\n  0x14\n  dup1\n  0x0100\n  exp\n  dup2\n  sload\n  dup2\n  0xff\n  mul\n  not\n  and\n  swap1\n  dup4\n  iszero\n  iszero\n  mul\n  or\n  swap1\n  sstore\n  pop\n    /* \"saf.sol\":6488:6493  false */\n  0x00\n    /* \"saf.sol\":6474:6493  bool inSwap = false */\n  0x15\n  exp(0x0100, 0x14)\n  dup2\n  sload\n  dup2\n  0xff\n  mul\n  not\n  and\n  swap1\n  dup4\n  iszero\n  iszero\n  mul\n  or\n  swap1\n  sstore\n  pop\n    /* \"saf.sol\":7229:8446  constructor() ERC20Detailed(\"Safuu\", \"SAFUU\", uint8(DECIMALS)) Ownable() {\r... */\n  callvalue\n  dup1\n  iszero\n  tag_8\n  jumpi\n  0x00\n  dup1\n  revert\ntag_8:\n  pop\n    /* \"saf.sol\":4499:4698  constructor(\r... */\n  mload(0x40)\n  dup1\n  0x40\n  add\n  0x40\n  mstore\n  dup1\n  0x05\n  dup2\n  mstore\n  0x20\n  add\n  0x5361667575000000000000000000000000000000000000000000000000000000\n  dup2\n  mstore\n  pop\n  mload(0x40)\n  dup1\n  0x40\n  add\n  0x40\n  mstore\n  dup1\n  0x05\n  dup2\n  mstore\n  0x20\n  add\n  0x5341465555000000000000000000000000000000000000000000000000000000\n  dup2\n  mstore\n  pop\n    /* \"saf.sol\":5462:5463  5 */\n  0x05\n    /* \"saf.sol\":4625:4630  name_ */\n  dup3\n    /* \"saf.sol\":4617:4622  _name */\n  0x00\n    /* \"saf.sol\":4617:4630  _name = name_ */\n  swap1\n  dup1\n  mload\n  swap1\n  0x20\n  add\n  swap1\n  tag_13\n  swap3\n  swap2\n  swap1\n  tag_2\n  jump\t// in\ntag_13:\n  pop\n    /* \"saf.sol\":4651:4658  symbol_ */\n  dup2\n    /* \"saf.sol\":4641:4648  _symbol */\n  0x01\n    /* \"saf.sol\":4641:4658  _symbol = symbol_ */\n  swap1\n  dup1\n  mload\n  swap1\n  0x20\n  add\n  swap1\n  tag_14\n  swap3\n  swap2\n  swap1\n  tag_2\n  jump\t// in\ntag_14:\n  pop\n    /* \"saf.sol\":4681:4690  decimals_ */\n  dup1\n    /* \"saf.sol\":4669:4678  _decimals */\n  0x02\n  0x00\n    /* \"saf.sol\":4669:4690  _decimals = decimals_ */\n  0x0100\n  exp\n  dup2\n  sload\n  dup2\n  0xff\n  mul\n  not\n  and\n  swap1\n  dup4\n  0xff\n  and\n  mul\n  or\n  swap1\n  sstore\n  pop\n    /* \"saf.sol\":4499:4698  constructor(\r... */\n  pop\n  pop\n  pop\n    /* \"saf.sol\":3626:3636  msg.sender */\n  caller\n    /* \"saf.sol\":3617:3623  _owner */\n  0x02\n  0x01\n    /* \"saf.sol\":3617:3636  _owner = msg.sender */\n  0x0100\n  exp\n  dup2\n  sload\n  dup2\n  0xffffffffffffffffffffffffffffffffffffffff\n  mul\n  not\n  and\n  swap1\n  dup4\n  0xffffffffffffffffffffffffffffffffffffffff\n  and\n  mul\n  or\n  swap1\n  sstore\n  pop\n    /* \"saf.sol\":7498:7540  0x5562640B953b6c2f79a655E930aFa68b2a65C627 */\n  0x5562640b953b6c2f79a655e930afa68b2a65c627\n    /* \"saf.sol\":7474:7495  autoLiquidityReceiver */\n  0x10\n  0x00\n    /* \"saf.sol\":7474:7540  autoLiquidityReceiver = 0x5562640B953b6c2f79a655E930aFa68b2a65C627 */\n  0x0100\n  exp\n  dup2\n  sload\n  dup2\n  0xffffffffffffffffffffffffffffffffffffffff\n  mul\n  not\n  and\n  swap1\n  dup4\n  0xffffffffffffffffffffffffffffffffffffffff\n  and\n  mul\n  or\n  swap1\n  sstore\n  pop\n    /* \"saf.sol\":7570:7612  0xa9c6d0cc785569b450393A69599E97fAED5D9dd9 */\n  0xa9c6d0cc785569b450393a69599e97faed5d9dd9\n    /* \"saf.sol\":7551:7567  treasuryReceiver */\n  0x11\n  0x00\n    /* \"saf.sol\":7551:7612  treasuryReceiver = 0xa9c6d0cc785569b450393A69599E97fAED5D9dd9 */\n  0x0100\n  exp\n  dup2\n  sload\n  dup2\n  0xffffffffffffffffffffffffffffffffffffffff\n  mul\n  not\n  and\n  swap1\n  dup4\n  0xffffffffffffffffffffffffffffffffffffffff\n  and\n  mul\n  or\n  swap1\n  sstore\n  pop\n    /* \"saf.sol\":7653:7695  0x082D0FbCA3D80b2d4A05E20bFc227523bE8EFEF3 */\n  0x082d0fbca3d80b2d4a05e20bfc227523be8efef3\n    /* \"saf.sol\":7624:7650  safuuInsuranceFundReceiver */\n  0x12\n  0x00\n    /* \"saf.sol\":7624:7695  safuuInsuranceFundReceiver = 0x082D0FbCA3D80b2d4A05E20bFc227523bE8EFEF3 */\n  0x0100\n  exp\n  dup2\n  sload\n  dup2\n  0xffffffffffffffffffffffffffffffffffffffff\n  mul\n  not\n  and\n  swap1\n  dup4\n  0xffffffffffffffffffffffffffffffffffffffff\n  and\n  mul\n  or\n  swap1\n  sstore\n  pop\n    /* \"saf.sol\":7716:7758  0xaA32C984AfDfa6B95e88B8aB7faBfa65De89b98C */\n  0xaa32c984afdfa6b95e88b8ab7fabfa65de89b98c\n    /* \"saf.sol\":7706:7713  firePit */\n  0x13\n  0x00\n    /* \"saf.sol\":7706:7758  firePit = 0xaA32C984AfDfa6B95e88B8aB7faBfa65De89b98C */\n  0x0100\n  exp\n  dup2\n  sload\n  dup2\n  0xffffffffffffffffffffffffffffffffffffffff\n  mul\n  not\n  and\n  swap1\n  dup4\n  0xffffffffffffffffffffffffffffffffffffffff\n  and\n  mul\n  or\n  swap1\n  sstore\n  pop\n    /* \"saf.sol\":7867:7869  -1 */\n  0xffffffffffffffffffffffffffffffffffffffffffffffffffffffffffffffff\n    /* \"saf.sol\":7771:7788  _allowedFragments */\n  0x1c\n    /* \"saf.sol\":7771:7803  _allowedFragments[address(this)] */\n  0x00\n    /* \"saf.sol\":7797:7801  this */\n  address\n    /* \"saf.sol\":7771:7803  _allowedFragments[address(this)] */\n  0xffffffffffffffffffffffffffffffffffffffff\n  and\n  0xffffffffffffffffffffffffffffffffffffffff\n  and\n  dup2\n  mstore\n  0x20\n  add\n  swap1\n  dup2\n  mstore\n  0x20\n  add\n  0x00\n  keccak256\n    /* \"saf.sol\":7771:7856  _allowedFragments[address(this)][address(0x10ED43C718714eb63d5aA57B78B54704E256024E)] */\n  0x00\n    /* \"saf.sol\":7812:7854  0x10ED43C718714eb63d5aA57B78B54704E256024E */\n  0x10ed43c718714eb63d5aa57b78b54704e256024e\n    /* \"saf.sol\":7771:7856  _allowedFragments[address(this)][address(0x10ED43C718714eb63d5aA57B78B54704E256024E)] */\n  0xffffffffffffffffffffffffffffffffffffffff\n  and\n  0xffffffffffffffffffffffffffffffffffffffff\n  and\n  dup2\n  mstore\n  0x20\n  add\n  swap1\n  dup2\n  mstore\n  0x20\n  add\n  0x00\n  keccak256\n    /* \"saf.sol\":7771:7870  _allowedFragments[address(this)][address(0x10ED43C718714eb63d5aA57B78B54704E256024E)] = uint256(-1) */\n  dup2\n  swap1\n  sstore\n  pop\n    /* \"saf.sol\":7895:7899  pair */\n  0x15\n  0x00\n  swap1\n  sload\n  swap1\n  0x0100\n  exp\n  swap1\n  div\n  0xffffffffffffffffffffffffffffffffffffffff\n  and\n    /* \"saf.sol\":7881:7892  pairAddress */\n  0x14\n  0x00\n    /* \"saf.sol\":7881:7899  pairAddress = pair */\n  0x0100\n  exp\n  dup2\n  sload\n  dup2\n  0xffffffffffffffffffffffffffffffffffffffff\n  mul\n  not\n  and\n  swap1\n  dup4\n  0xffffffffffffffffffffffffffffffffffffffff\n  and\n  mul\n  or\n  swap1\n  sstore\n  pop\n    /* \"saf.sol\":5462:5463  5 */\n  0x05\n    /* \"saf.sol\":5649:5651  10 */\n  0x0a\n    /* \"saf.sol\":5649:5661  10**DECIMALS */\n  exp\n    /* \"saf.sol\":5635:5646  325 * 10**3 */\n  0x04f588\n    /* \"saf.sol\":5635:5661  325 * 10**3 * 10**DECIMALS */\n  mul\n    /* \"saf.sol\":7917:7929  _totalSupply */\n  0x19\n    /* \"saf.sol\":7917:7956  _totalSupply = INITIAL_FRAGMENTS_SUPPLY */\n  dup2\n  swap1\n  sstore\n  pop\n    /* \"saf.sol\":5462:5463  5 */\n  0x05\n    /* \"saf.sol\":5649:5651  10 */\n  0x0a\n    /* \"saf.sol\":5649:5661  10**DECIMALS */\n  exp\n    /* \"saf.sol\":5635:5646  325 * 10**3 */\n  0x04f588\n    /* \"saf.sol\":5635:5661  325 * 10**3 * 10**DECIMALS */\n  mul\n    /* \"saf.sol\":5517:5518  0 */\n  0x00\n    /* \"saf.sol\":5508:5519  ~uint256(0) */\n  not\n    /* \"saf.sol\":6659:6697  MAX_UINT256 % INITIAL_FRAGMENTS_SUPPLY */\n  dup2\n  tag_17\n  jumpi\n  invalid\ntag_17:\n  mod\n    /* \"saf.sol\":5517:5518  0 */\n  0x00\n    /* \"saf.sol\":5508:5519  ~uint256(0) */\n  not\n    /* \"saf.sol\":6644:6698  MAX_UINT256 - (MAX_UINT256 % INITIAL_FRAGMENTS_SUPPLY) */\n  sub\n    /* \"saf.sol\":7967:7979  _gonBalances */\n  0x1b\n    /* \"saf.sol\":7967:7997  _gonBalances[treasuryReceiver] */\n  0x00\n    /* \"saf.sol\":7980:7996  treasuryReceiver */\n  0x11\n  0x00\n  swap1\n  sload\n  swap1\n  0x0100\n  exp\n  swap1\n  div\n  0xffffffffffffffffffffffffffffffffffffffff\n  and\n    /* \"saf.sol\":7967:7997  _gonBalances[treasuryReceiver] */\n  0xffffffffffffffffffffffffffffffffffffffff\n  and\n  0xffffffffffffffffffffffffffffffffffffffff\n  and\n  dup2\n  mstore\n  0x20\n  add\n  swap1\n  dup2\n  mstore\n  0x20\n  add\n  0x00\n  keccak256\n    /* \"saf.sol\":7967:8010  _gonBalances[treasuryReceiver] = TOTAL_GONS */\n  dup2\n  swap1\n  sstore\n  pop\n    /* \"saf.sol\":8040:8068  TOTAL_GONS.div(_totalSupply) */\n  tag_18\n    /* \"saf.sol\":8055:8067  _totalSupply */\n  sload(0x19)\n    /* \"saf.sol\":5462:5463  5 */\n  0x05\n    /* \"saf.sol\":5649:5651  10 */\n  0x0a\n    /* \"saf.sol\":5649:5661  10**DECIMALS */\n  exp\n    /* \"saf.sol\":5635:5646  325 * 10**3 */\n  0x04f588\n    /* \"saf.sol\":5635:5661  325 * 10**3 * 10**DECIMALS */\n  mul\n    /* \"saf.sol\":5517:5518  0 */\n  0x00\n    /* \"saf.sol\":5508:5519  ~uint256(0) */\n  not\n    /* \"saf.sol\":6659:6697  MAX_UINT256 % INITIAL_FRAGMENTS_SUPPLY */\n  dup2\n  tag_19\n  jumpi\n  invalid\ntag_19:\n  mod\n    /* \"saf.sol\":5517:5518  0 */\n  0x00\n    /* \"saf.sol\":5508:5519  ~uint256(0) */\n  not\n    /* \"saf.sol\":6644:6698  MAX_UINT256 - (MAX_UINT256 % INITIAL_FRAGMENTS_SUPPLY) */\n  sub\n    /* \"saf.sol\":8040:8054  TOTAL_GONS.div */\n  or(tag_0_274, shl(0x20, tag_20))\n  swap1\n    /* \"saf.sol\":8040:8068  TOTAL_GONS.div(_totalSupply) */\n  swap2\n  swap1\n  0x20\n  shr\n  jump\t// in\ntag_18:\n    /* \"saf.sol\":8021:8037  _gonsPerFragment */\n  0x1a\n    /* \"saf.sol\":8021:8068  _gonsPerFragment = TOTAL_GONS.div(_totalSupply) */\n  dup2\n  swap1\n  sstore\n  pop\n    /* \"saf.sol\":8102:8117  block.timestamp */\n  timestamp\n    /* \"saf.sol\":8079:8099  _initRebaseStartTime */\n  0x16\n    /* \"saf.sol\":8079:8117  _initRebaseStartTime = block.timestamp */\n  dup2\n  swap1\n  sstore\n  pop\n    /* \"saf.sol\":8147:8162  block.timestamp */\n  timestamp\n    /* \"saf.sol\":8128:8144  _lastRebasedTime */\n  0x17\n    /* \"saf.sol\":8128:8162  _lastRebasedTime = block.timestamp */\n  dup2\n  swap1\n  sstore\n  pop\n    /* \"saf.sol\":8187:8191  true */\n  0x01\n    /* \"saf.sol\":8173:8184  _autoRebase */\n  0x15\n  dup1\n    /* \"saf.sol\":8173:8191  _autoRebase = true */\n  0x0100\n  exp\n  dup2\n  sload\n  dup2\n  0xff\n  mul\n  not\n  and\n  swap1\n  dup4\n  iszero\n  iszero\n  mul\n  or\n  swap1\n  sstore\n  pop\n    /* \"saf.sol\":8222:8226  true */\n  0x01\n    /* \"saf.sol\":8202:8219  _autoAddLiquidity */\n  0x15\n  0x16\n    /* \"saf.sol\":8202:8226  _autoAddLiquidity = true */\n  0x0100\n  exp\n  dup2\n  sload\n  dup2\n  0xff\n  mul\n  not\n  and\n  swap1\n  dup4\n  iszero\n  iszero\n  mul\n  or\n  swap1\n  sstore\n  pop\n    /* \"saf.sol\":8270:8274  true */\n  0x01\n    /* \"saf.sol\":8237:8249  _isFeeExempt */\n  0x06\n    /* \"saf.sol\":8237:8267  _isFeeExempt[treasuryReceiver] */\n  0x00\n    /* \"saf.sol\":8250:8266  treasuryReceiver */\n  0x11\n  0x00\n  swap1\n  sload\n  swap1\n  0x0100\n  exp\n  swap1\n  div\n  0xffffffffffffffffffffffffffffffffffffffff\n  and\n    /* \"saf.sol\":8237:8267  _isFeeExempt[treasuryReceiver] */\n  0xffffffffffffffffffffffffffffffffffffffff\n  and\n  0xffffffffffffffffffffffffffffffffffffffff\n  and\n  dup2\n  mstore\n  0x20\n  add\n  swap1\n  dup2\n  mstore\n  0x20\n  add\n  0x00\n  keccak256\n  0x00\n    /* \"saf.sol\":8237:8274  _isFeeExempt[treasuryReceiver] = true */\n  0x0100\n  exp\n  dup2\n  sload\n  dup2\n  0xff\n  mul\n  not\n  and\n  swap1\n  dup4\n  iszero\n  iszero\n  mul\n  or\n  swap1\n  sstore\n  pop\n    /* \"saf.sol\":8315:8319  true */\n  0x01\n    /* \"saf.sol\":8285:8297  _isFeeExempt */\n  0x06\n    /* \"saf.sol\":8285:8312  _isFeeExempt[address(this)] */\n  0x00\n    /* \"saf.sol\":8306:8310  this */\n  address\n    /* \"saf.sol\":8285:8312  _isFeeExempt[address(this)] */\n  0xffffffffffffffffffffffffffffffffffffffff\n  and\n  0xffffffffffffffffffffffffffffffffffffffff\n  and\n  dup2\n  mstore\n  0x20\n  add\n  swap1\n  dup2\n  mstore\n  0x20\n  add\n  0x00\n  keccak256\n  0x00\n    /* \"saf.sol\":8285:8319  _isFeeExempt[address(this)] = true */\n  0x0100\n  exp\n  dup2\n  sload\n  dup2\n  0xff\n  mul\n  not\n  and\n  swap1\n  dup4\n  iszero\n  iszero\n  mul\n  or\n  swap1\n  sstore\n  pop\n    /* \"saf.sol\":8332:8368  _transferOwnership(treasuryReceiver) */\n  tag_21\n    /* \"saf.sol\":8351:8367  treasuryReceiver */\n  0x11\n  0x00\n  swap1\n  sload\n  swap1\n  0x0100\n  exp\n  swap1\n  div\n  0xffffffffffffffffffffffffffffffffffffffff\n  and\n    /* \"saf.sol\":8332:8350  _transferOwnership */\n  shl(0x20, tag_22)\n    /* \"saf.sol\":8332:8368  _transferOwnership(treasuryReceiver) */\n  0x20\n  shr\n  jump\t// in\ntag_21:\n    /* \"saf.sol\":8407:8423  treasuryReceiver */\n  0x11\n  0x00\n  swap1\n  sload\n  swap1\n  0x0100\n  exp\n  swap1\n  div\n  0xffffffffffffffffffffffffffffffffffffffff\n  and\n    /* \"saf.sol\":8384:8438  Transfer(address(0x0), treasuryReceiver, _totalSupply) */\n  0xffffffffffffffffffffffffffffffffffffffff\n  and\n    /* \"saf.sol\":8401:8404  0x0 */\n  0x00\n    /* \"saf.sol\":8384:8438  Transfer(address(0x0), treasuryReceiver, _totalSupply) */\n  0xffffffffffffffffffffffffffffffffffffffff\n  and\n  0xddf252ad1be2c89b69c2b068fc378daa952ba7f163c4a11628f55a4df523b3ef\n    /* \"saf.sol\":8425:8437  _totalSupply */\n  sload(0x19)\n    /* \"saf.sol\":8384:8438  Transfer(address(0x0), treasuryReceiver, _totalSupply) */\n  mload(0x40)\n  dup1\n  dup3\n  dup2\n  mstore\n  0x20\n  add\n  swap2\n  pop\n  pop\n  mload(0x40)\n  dup1\n  swap2\n  sub\n  swap1\n  log3\n    /* \"saf.sol\":4982:19250  contract Safuu is ERC20Detailed, Ownable {\r... */\n  jump(tag_23)\n    /* \"saf.sol\":1260:1441  function add(uint256 a, uint256 b) internal pure returns (uint256) {\r... */\ntag_7:\n    /* \"saf.sol\":1318:1325  uint256 */\n  0x00\n    /* \"saf.sol\":1338:1347  uint256 c */\n  dup1\n    /* \"saf.sol\":1354:1355  b */\n  dup3\n    /* \"saf.sol\":1350:1351  a */\n  dup5\n    /* \"saf.sol\":1350:1355  a + b */\n  add\n    /* \"saf.sol\":1338:1355  uint256 c = a + b */\n  swap1\n  pop\n    /* \"saf.sol\":1379:1380  a */\n  dup4\n    /* \"saf.sol\":1374:1375  c */\n  dup2\n    /* \"saf.sol\":1374:1380  c >= a */\n  lt\n  iszero\n    /* \"saf.sol\":1366:1412  require(c >= a, \"SafeMath: addition overflow\") */\n  tag_25\n  jumpi\n  mload(0x40)\n  0x08c379a000000000000000000000000000000000000000000000000000000000\n  dup2\n  mstore\n  0x04\n  add\n  dup1\n  dup1\n  0x20\n  add\n  dup3\n  dup2\n  sub\n  dup3\n  mstore\n  0x1b\n  dup2\n  mstore\n  0x20\n  add\n  dup1\n  0x536166654d6174683a206164646974696f6e206f766572666c6f770000000000\n  dup2\n  mstore\n  pop\n  0x20\n  add\n  swap2\n  pop\n  pop\n  mload(0x40)\n  dup1\n  swap2\n  sub\n  swap1\n  revert\ntag_25:\n    /* \"saf.sol\":1432:1433  c */\n  dup1\n    /* \"saf.sol\":1425:1433  return c */\n  swap2\n  pop\n  pop\n    /* \"saf.sol\":1260:1441  function add(uint256 a, uint256 b) internal pure returns (uint256) {\r... */\n  swap3\n  swap2\n  pop\n  pop\n  jump\t// out\n    /* \"saf.sol\":2085:2217  function div(uint256 a, uint256 b) internal pure returns (uint256) {\r... */\ntag_20:\n    /* \"saf.sol\":2143:2150  uint256 */\n  0x00\n    /* \"saf.sol\":2170:2209  div(a, b, \"SafeMath: division by zero\") */\n  tag_27\n    /* \"saf.sol\":2174:2175  a */\n  dup4\n    /* \"saf.sol\":2177:2178  b */\n  dup4\n    /* \"saf.sol\":2170:2209  div(a, b, \"SafeMath: division by zero\") */\n  mload(0x40)\n  dup1\n  0x40\n  add\n  0x40\n  mstore\n  dup1\n  0x1a\n  dup2\n  mstore\n  0x20\n  add\n  0x536166654d6174683a206469766973696f6e206279207a65726f000000000000\n  dup2\n  mstore\n  pop\n    /* \"saf.sol\":2170:2173  div */\n  shl(0x20, tag_28)\n    /* \"saf.sol\":2170:2209  div(a, b, \"SafeMath: division by zero\") */\n  0x20\n  shr\n  jump\t// in\ntag_27:\n    /* \"saf.sol\":2163:2209  return div(a, b, \"SafeMath: division by zero\") */\n  swap1\n  pop\n    /* \"saf.sol\":2085:2217  function div(uint256 a, uint256 b) internal pure returns (uint256) {\r... */\n  swap3\n  swap2\n  pop\n  pop\n  jump\t// out\n    /* \"saf.sol\":4168:4355  function _transferOwnership(address newOwner) internal {\r... */\ntag_22:\n    /* \"saf.sol\":4262:4263  0 */\n  0x00\n    /* \"saf.sol\":4242:4264  newOwner != address(0) */\n  0xffffffffffffffffffffffffffffffffffffffff\n  and\n    /* \"saf.sol\":4242:4250  newOwner */\n  dup2\n    /* \"saf.sol\":4242:4264  newOwner != address(0) */\n  0xffffffffffffffffffffffffffffffffffffffff\n  and\n  eq\n  iszero\n    /* \"saf.sol\":4234:4265  require(newOwner != address(0)) */\n  tag_30\n  jumpi\n  0x00\n  dup1\n  revert\ntag_30:\n    /* \"saf.sol\":4310:4318  newOwner */\n  dup1\n    /* \"saf.sol\":4281:4319  OwnershipTransferred(_owner, newOwner) */\n  0xffffffffffffffffffffffffffffffffffffffff\n  and\n    /* \"saf.sol\":4302:4308  _owner */\n  0x02\n  0x01\n  swap1\n  sload\n  swap1\n  0x0100\n  exp\n  swap1\n  div\n  0xffffffffffffffffffffffffffffffffffffffff\n  and\n    /* \"saf.sol\":4281:4319  OwnershipTransferred(_owner, newOwner) */\n  0xffffffffffffffffffffffffffffffffffffffff\n  and\n  0x8be0079c531659141344cd1fd0a4f28419497f9722a3daafe3b4186f6b6457e0\n  mload(0x40)\n  mload(0x40)\n  dup1\n  swap2\n  sub\n  swap1\n  log3\n    /* \"saf.sol\":4339:4347  newOwner */\n  dup1\n    /* \"saf.sol\":4330:4336  _owner */\n  0x02\n  0x01\n    /* \"saf.sol\":4330:4347  _owner = newOwner */\n  0x0100\n  exp\n  dup2\n  sload\n  dup2\n  0xffffffffffffffffffffffffffffffffffffffff\n  mul\n  not\n  and\n  swap1\n  dup4\n  0xffffffffffffffffffffffffffffffffffffffff\n  and\n  mul\n  or\n  swap1\n  sstore\n  pop\n    /* \"saf.sol\":4168:4355  function _transferOwnership(address newOwner) internal {\r... */\n  pop\n  jump\t// out\n    /* \"saf.sol\":2225:2450  function div(\r... */\ntag_28:\n    /* \"saf.sol\":2345:2352  uint256 */\n  0x00\n    /* \"saf.sol\":2377:2378  0 */\n  dup1\n    /* \"saf.sol\":2373:2374  b */\n  dup4\n    /* \"saf.sol\":2373:2378  b > 0 */\n  gt\n    /* \"saf.sol\":2380:2392  errorMessage */\n  dup3\n    /* \"saf.sol\":2365:2393  require(b > 0, errorMessage) */\n  swap1\n  tag_32\n  jumpi\n  mload(0x40)\n  0x08c379a000000000000000000000000000000000000000000000000000000000\n  dup2\n  mstore\n  0x04\n  add\n  dup1\n  dup1\n  0x20\n  add\n  dup3\n  dup2\n  sub\n  dup3\n  mstore\n  dup4\n  dup2\n  dup2\n  mload\n  dup2\n  mstore\n  0x20\n  add\n  swap2\n  pop\n  dup1\n  mload\n  swap1\n  0x20\n  add\n  swap1\n  dup1\n  dup4\n  dup4\n  0x00\ntag_33:\n  dup4\n  dup2\n  lt\n  iszero\n  tag_35\n  jumpi\n  dup1\n  dup3\n  add\n  mload\n  dup2\n  dup5\n  add\n  mstore\n  0x20\n  dup2\n  add\n  swap1\n  pop\n  jump(tag_33)\ntag_35:\n  pop\n  pop\n  pop\n  pop\n  swap1\n  pop\n  swap1\n  dup2\n  add\n  swap1\n  0x1f\n  and\n  dup1\n  iszero\n  tag_36\n  jumpi\n  dup1\n  dup3\n  sub\n  dup1\n  mload\n  0x01\n  dup4\n  0x20\n  sub\n  0x0100\n  exp\n  sub\n  not\n  and\n  dup2\n  mstore\n  0x20\n  add\n  swap2\n  pop\ntag_36:\n  pop\n  swap3\n  pop\n  pop\n  pop\n  mload(0x40)\n  dup1\n  swap2\n  sub\n  swap1\n  revert\ntag_32:\n  pop\n    /* \"saf.sol\":2404:2413  uint256 c */\n  0x00\n    /* \"saf.sol\":2420:2421  b */\n  dup4\n    /* \"saf.sol\":2416:2417  a */\n  dup6\n    /* \"saf.sol\":2416:2421  a / b */\n  dup2\n  tag_37\n  jumpi\n  invalid\ntag_37:\n  div\n    /* \"saf.sol\":2404:2421  uint256 c = a / b */\n  swap1\n  pop\n    /* \"saf.sol\":2441:2442  c */\n  dup1\n    /* \"saf.sol\":2434:2442  return c */\n  swap2\n  pop\n  pop\n    /* \"saf.sol\":2225:2450  function div(\r... */\n  swap4\n  swap3\n  pop\n  pop\n  pop\n  jump\t// out\n    /* \"saf.sol\":4982:19250  contract Safuu is ERC20Detailed, Ownable {\r... */\ntag_2:\n  dup3\n  dup1\n  sload\n  0x01\n  dup2\n  0x01\n  and\n  iszero\n  0x0100\n  mul\n  sub\n  and\n  0x02\n  swap1\n  div\n  swap1\n  0x00\n  mstore\n  keccak256(0x00, 0x20)\n  swap1\n  0x1f\n  add\n  0x20\n  swap1\n  div\n  dup2\n  add\n  swap3\n  dup3\n  tag_39\n  jumpi\n  0x00\n  dup6\n  sstore\n  jump(tag_38)\ntag_39:\n  dup3\n  0x1f\n  lt\n  tag_40\n  jumpi\n  dup1\n  mload\n  not(0xff)\n  and\n  dup4\n  dup1\n  add\n  or\n  dup6\n  sstore\n  jump(tag_38)\ntag_40:\n  dup3\n  dup1\n  add\n  0x01\n  add\n  dup6\n  sstore\n  dup3\n  iszero\n  tag_38\n  jumpi\n  swap2\n  dup3\n  add\ntag_41:\n  dup3\n  dup2\n  gt\n  iszero\n  tag_42\n  jumpi\n  dup3\n  mload\n  dup3\n  sstore\n  swap2\n  0x20\n  add\n  swap2\n  swap1\n  0x01\n  add\n  swap1\n  jump(tag_41)\ntag_42:\ntag_38:\n  pop\n  swap1\n  pop\n  tag_43\n  swap2\n  swap1\n  tag_44\n  jump\t// in\ntag_43:\n  pop\n  swap1\n  jump\t// out\ntag_44:\ntag_45:\n  dup1\n  dup3\n  gt\n  iszero\n  tag_46\n  jumpi\n  0x00\n  dup2\n  0x00\n  swap1\n  sstore\n  pop\n  0x01\n  add\n  jump(tag_45)\ntag_46:\n  pop\n  swap1\n  jump\t// out\ntag_23:\n  dataSize(sub_0)\n  dup1\n  dataOffset(sub_0)\n  0x00\n  codecopy\n  0x00\n  return\nstop\n\nsub_0: assembly {\n        /* \"saf.sol\":4982:19250  contract Safuu is ERC20Detailed, Ownable {\r... */\n      mstore(0x40, 0x80)\n      jumpi(tag_1, lt(calldatasize, 0x04))\n      shr(0xe0, calldataload(0x00))\n      dup1\n      0x753d02a1\n      gt\n      tag_58\n      jumpi\n      dup1\n      0xa9059cbb\n      gt\n      tag_59\n      jumpi\n      dup1\n      0xd28d8852\n      gt\n      tag_60\n      jumpi\n      dup1\n      0xdd62ed3e\n      gt\n      tag_61\n      jumpi\n      dup1\n      0xdd62ed3e\n      eq\n      tag_54\n      jumpi\n      dup1\n      0xe15beb80\n      eq\n      tag_55\n      jumpi\n      dup1\n      0xf2fde38b\n      eq\n      tag_56\n      jumpi\n      dup1\n      0xf9f92be4\n      eq\n      tag_57\n      jumpi\n      jump(tag_2)\n    tag_61:\n      dup1\n      0xd28d8852\n      eq\n      tag_51\n      jumpi\n      dup1\n      0xd4399790\n      eq\n      tag_52\n      jumpi\n      dup1\n      0xd51ed1c8\n      eq\n      tag_53\n      jumpi\n      jump(tag_2)\n    tag_60:\n      dup1\n      0xbd595581\n      gt\n      tag_62\n      jumpi\n      dup1\n      0xbd595581\n      eq\n      tag_47\n      jumpi\n      dup1\n      0xca33e64c\n      eq\n      tag_48\n      jumpi\n      dup1\n      0xcc32d176\n      eq\n      tag_49\n      jumpi\n      dup1\n      0xcfbac92f\n      eq\n      tag_50\n      jumpi\n      jump(tag_2)\n    tag_62:\n      dup1\n      0xa9059cbb\n      eq\n      tag_44\n      jumpi\n      dup1\n      0xafb9cf6d\n      eq\n      tag_45\n      jumpi\n      dup1\n      0xb09f1266\n      eq\n      tag_46\n      jumpi\n      jump(tag_2)\n    tag_59:\n      dup1\n      0x9b2912cc\n      gt\n      tag_63\n      jumpi\n      dup1\n      0xa457c2d7\n      gt\n      tag_64\n      jumpi\n      dup1\n      0xa457c2d7\n      eq\n      tag_40\n      jumpi\n      dup1\n      0xa6cf7293\n      eq\n      tag_41\n      jumpi\n      dup1\n      0xa8aa1b31\n      eq\n      tag_42\n      jumpi\n      dup1\n      0xa8b08982\n      eq\n      tag_43\n      jumpi\n      jump(tag_2)\n    tag_64:\n      dup1\n      0x9b2912cc\n      eq\n      tag_37\n      jumpi\n      dup1\n      0x9b87676c\n      eq\n      tag_38\n      jumpi\n      dup1\n      0xa22d4832\n      eq\n      tag_39\n      jumpi\n      jump(tag_2)\n    tag_63:\n      dup1\n      0x8da5cb5b\n      gt\n      tag_65\n      jumpi\n      dup1\n      0x8da5cb5b\n      eq\n      tag_33\n      jumpi\n      dup1\n      0x8f32d59b\n      eq\n      tag_34\n      jumpi\n      dup1\n      0x95d89b41\n      eq\n      tag_35\n      jumpi\n      dup1\n      0x98118cb4\n      eq\n      tag_36\n      jumpi\n      jump(tag_2)\n    tag_65:\n      dup1\n      0x753d02a1\n      eq\n      tag_30\n      jumpi\n      dup1\n      0x83b4ac68\n      eq\n      tag_31\n      jumpi\n      dup1\n      0x854cff2f\n      eq\n      tag_32\n      jumpi\n      jump(tag_2)\n    tag_58:\n      dup1\n      0x32b75683\n      gt\n      tag_66\n      jumpi\n      dup1\n      0x49d98142\n      gt\n      tag_67\n      jumpi\n      dup1\n      0x6912652c\n      gt\n      tag_68\n      jumpi\n      dup1\n      0x6912652c\n      eq\n      tag_26\n      jumpi\n      dup1\n      0x6ddd1713\n      eq\n      tag_27\n      jumpi\n      dup1\n      0x70a08231\n      eq\n      tag_28\n      jumpi\n      dup1\n      0x715018a6\n      eq\n      tag_29\n      jumpi\n      jump(tag_2)\n    tag_68:\n      dup1\n      0x49d98142\n      eq\n      tag_23\n      jumpi\n      dup1\n      0x4de41e83\n      eq\n      tag_24\n      jumpi\n      dup1\n      0x5a604c52\n      eq\n      tag_25\n      jumpi\n      jump(tag_2)\n    tag_67:\n      dup1\n      0x39509351\n      gt\n      tag_69\n      jumpi\n      dup1\n      0x39509351\n      eq\n      tag_19\n      jumpi\n      dup1\n      0x3b91aca9\n      eq\n      tag_20\n      jumpi\n      dup1\n      0x3c8e556d\n      eq\n      tag_21\n      jumpi\n      dup1\n      0x3eaaf86b\n      eq\n      tag_22\n      jumpi\n      jump(tag_2)\n    tag_69:\n      dup1\n      0x32b75683\n      eq\n      tag_16\n      jumpi\n      dup1\n      0x33a581d2\n      eq\n      tag_17\n      jumpi\n      dup1\n      0x37c9be87\n      eq\n      tag_18\n      jumpi\n      jump(tag_2)\n    tag_66:\n      dup1\n      0x23b872dd\n      gt\n      tag_70\n      jumpi\n      dup1\n      0x2e0f2625\n      gt\n      tag_71\n      jumpi\n      dup1\n      0x2e0f2625\n      eq\n      tag_12\n      jumpi\n      dup1\n      0x2f34d282\n      eq\n      tag_13\n      jumpi\n      dup1\n      0x313ce567\n      eq\n      tag_14\n      jumpi\n      dup1\n      0x32424aa3\n      eq\n      tag_15\n      jumpi\n      jump(tag_2)\n    tag_71:\n      dup1\n      0x23b872dd\n      eq\n      tag_9\n      jumpi\n      dup1\n      0x2b112e49\n      eq\n      tag_10\n      jumpi\n      dup1\n      0x2b14ca56\n      eq\n      tag_11\n      jumpi\n      jump(tag_2)\n    tag_70:\n      dup1\n      0x06fdde03\n      eq\n      tag_3\n      jumpi\n      dup1\n      0x08b1fd8f\n      eq\n      tag_4\n      jumpi\n      dup1\n      0x095ea7b3\n      eq\n      tag_5\n      jumpi\n      dup1\n      0x180b0d7e\n      eq\n      tag_6\n      jumpi\n      dup1\n      0x18160ddd\n      eq\n      tag_7\n      jumpi\n      dup1\n      0x1df4ccfc\n      eq\n      tag_8\n      jumpi\n      jump(tag_2)\n    tag_1:\n      jumpi(tag_2, calldatasize)\n      stop\n    tag_2:\n      0x00\n      dup1\n      revert\n        /* \"saf.sol\":4706:4789  function name() public view returns (string memory) {\r... */\n    tag_3:\n      callvalue\n      dup1\n      iszero\n      tag_74\n      jumpi\n      0x00\n      dup1\n      revert\n    tag_74:\n      pop\n      tag_75\n      tag_76\n      jump\t// in\n    tag_75:\n      mload(0x40)\n      dup1\n      dup1\n      0x20\n      add\n      dup3\n      dup2\n      sub\n      dup3\n      mstore\n      dup4\n      dup2\n      dup2\n      mload\n      dup2\n      mstore\n      0x20\n      add\n      swap2\n      pop\n      dup1\n      mload\n      swap1\n      0x20\n      add\n      swap1\n      dup1\n      dup4\n      dup4\n      0x00\n    tag_77:\n      dup4\n      dup2\n      lt\n      iszero\n      tag_79\n      jumpi\n      dup1\n      dup3\n      add\n      mload\n      dup2\n      dup5\n      add\n      mstore\n      0x20\n      dup2\n      add\n      swap1\n      pop\n      jump(tag_77)\n    tag_79:\n      pop\n      pop\n      pop\n      pop\n      swap1\n      pop\n      swap1\n      dup2\n      add\n      swap1\n      0x1f\n      and\n      dup1\n      iszero\n      tag_80\n      jumpi\n      dup1\n      dup3\n      sub\n      dup1\n      mload\n      0x01\n      dup4\n      0x20\n      sub\n      0x0100\n      exp\n      sub\n      not\n      and\n      dup2\n      mstore\n      0x20\n      add\n      swap2\n      pop\n    tag_80:\n      pop\n      swap3\n      pop\n      pop\n      pop\n      mload(0x40)\n      dup1\n      swap2\n      sub\n      swap1\n      return\n        /* \"saf.sol\":6222:6253  address public treasuryReceiver */\n    tag_4:\n      callvalue\n      dup1\n      iszero\n      tag_81\n      jumpi\n      0x00\n      dup1\n      revert\n    tag_81:\n      pop\n      tag_82\n      tag_83\n      jump\t// in\n    tag_82:\n      mload(0x40)\n      dup1\n      dup3\n      0xffffffffffffffffffffffffffffffffffffffff\n      and\n      dup2\n      mstore\n      0x20\n      add\n      swap2\n      pop\n      pop\n      mload(0x40)\n      dup1\n      swap2\n      sub\n      swap1\n      return\n        /* \"saf.sol\":16684:16937  function approve(address spender, uint256 value)\r... */\n    tag_5:\n      callvalue\n      dup1\n      iszero\n      tag_84\n      jumpi\n      0x00\n      dup1\n      revert\n    tag_84:\n      pop\n      tag_85\n      0x04\n      dup1\n      calldatasize\n      sub\n      0x40\n      dup2\n      lt\n      iszero\n      tag_86\n      jumpi\n      0x00\n      dup1\n      revert\n    tag_86:\n      dup2\n      add\n      swap1\n      dup1\n      dup1\n      calldataload\n      0xffffffffffffffffffffffffffffffffffffffff\n      and\n      swap1\n      0x20\n      add\n      swap1\n      swap3\n      swap2\n      swap1\n      dup1\n      calldataload\n      swap1\n      0x20\n      add\n      swap1\n      swap3\n      swap2\n      swap1\n      pop\n      pop\n      pop\n      tag_87\n      jump\t// in\n    tag_85:\n      mload(0x40)\n      dup1\n      dup3\n      iszero\n      iszero\n      dup2\n      mstore\n      0x20\n      add\n      swap2\n      pop\n      pop\n      mload(0x40)\n      dup1\n      swap2\n      sub\n      swap1\n      return\n        /* \"saf.sol\":6004:6040  uint256 public feeDenominator = 1000 */\n    tag_6:\n      callvalue\n      dup1\n      iszero\n      tag_88\n      jumpi\n      0x00\n      dup1\n      revert\n    tag_88:\n      pop\n      tag_89\n      tag_90\n      jump\t// in\n    tag_89:\n      mload(0x40)\n      dup1\n      dup3\n      dup2\n      mstore\n      0x20\n      add\n      swap2\n      pop\n      pop\n      mload(0x40)\n      dup1\n      swap2\n      sub\n      swap1\n      return\n        /* \"saf.sol\":18786:18888  function totalSupply() external view override returns (uint256) {\r... */\n    tag_7:\n      callvalue\n      dup1\n      iszero\n      tag_91\n      jumpi\n      0x00\n      dup1\n      revert\n    tag_91:\n      pop\n      tag_92\n      tag_93\n      jump\t// in\n    tag_92:\n      mload(0x40)\n      dup1\n      dup3\n      dup2\n      mstore\n      0x20\n      add\n      swap2\n      pop\n      pop\n      mload(0x40)\n      dup1\n      swap2\n      sub\n      swap1\n      return\n        /* \"saf.sol\":5866:5997  uint256 public totalFee =\r... */\n    tag_8:\n      callvalue\n      dup1\n      iszero\n      tag_94\n      jumpi\n      0x00\n      dup1\n      revert\n    tag_94:\n      pop\n      tag_95\n      tag_96\n      jump\t// in\n    tag_95:\n      mload(0x40)\n      dup1\n      dup3\n      dup2\n      mstore\n      0x20\n      add\n      swap2\n      pop\n      pop\n      mload(0x40)\n      dup1\n      swap2\n      sub\n      swap1\n      return\n        /* \"saf.sol\":9774:10239  function transferFrom(\r... */\n    tag_9:\n      callvalue\n      dup1\n      iszero\n      tag_97\n      jumpi\n      0x00\n      dup1\n      revert\n    tag_97:\n      pop\n      tag_98\n      0x04\n      dup1\n      calldatasize\n      sub\n      0x60\n      dup2\n      lt\n      iszero\n      tag_99\n      jumpi\n      0x00\n      dup1\n      revert\n    tag_99:\n      dup2\n      add\n      swap1\n      dup1\n      dup1\n      calldataload\n      0xffffffffffffffffffffffffffffffffffffffff\n      and\n      swap1\n      0x20\n      add\n      swap1\n      swap3\n      swap2\n      swap1\n      dup1\n      calldataload\n      0xffffffffffffffffffffffffffffffffffffffff\n      and\n      swap1\n      0x20\n      add\n      swap1\n      swap3\n      swap2\n      swap1\n      dup1\n      calldataload\n      swap1\n      0x20\n      add\n      swap1\n      swap3\n      swap2\n      swap1\n      pop\n      pop\n      pop\n      tag_100\n      jump\t// in\n    tag_98:\n      mload(0x40)\n      dup1\n      dup3\n      iszero\n      iszero\n      dup2\n      mstore\n      0x20\n      add\n      swap2\n      pop\n      pop\n      mload(0x40)\n      dup1\n      swap2\n      sub\n      swap1\n      return\n        /* \"saf.sol\":17066:17281  function getCirculatingSupply() public view returns (uint256) {\r... */\n    tag_10:\n      callvalue\n      dup1\n      iszero\n      tag_101\n      jumpi\n      0x00\n      dup1\n      revert\n    tag_101:\n      pop\n      tag_102\n      tag_103\n      jump\t// in\n    tag_102:\n      mload(0x40)\n      dup1\n      dup3\n      dup2\n      mstore\n      0x20\n      add\n      swap2\n      pop\n      pop\n      mload(0x40)\n      dup1\n      swap2\n      sub\n      swap1\n      return\n        /* \"saf.sol\":5795:5822  uint256 public sellFee = 20 */\n    tag_11:\n      callvalue\n      dup1\n      iszero\n      tag_104\n      jumpi\n      0x00\n      dup1\n      revert\n    tag_104:\n      pop\n      tag_105\n      tag_106\n      jump\t// in\n    tag_105:\n      mload(0x40)\n      dup1\n      dup3\n      dup2\n      mstore\n      0x20\n      add\n      swap2\n      pop\n      pop\n      mload(0x40)\n      dup1\n      swap2\n      sub\n      swap1\n      return\n        /* \"saf.sol\":5427:5463  uint256 public constant DECIMALS = 5 */\n    tag_12:\n      callvalue\n      dup1\n      iszero\n      tag_107\n      jumpi\n      0x00\n      dup1\n      revert\n    tag_107:\n      pop\n      tag_108\n      tag_109\n      jump\t// in\n    tag_108:\n      mload(0x40)\n      dup1\n      dup3\n      dup2\n      mstore\n      0x20\n      add\n      swap2\n      pop\n      pop\n      mload(0x40)\n      dup1\n      swap2\n      sub\n      swap1\n      return\n        /* \"saf.sol\":18660:18774  function setLP(address _address) external onlyOwner {\r... */\n    tag_13:\n      callvalue\n      dup1\n      iszero\n      tag_110\n      jumpi\n      0x00\n      dup1\n      revert\n    tag_110:\n      pop\n      tag_111\n      0x04\n      dup1\n      calldatasize\n      sub\n      0x20\n      dup2\n      lt\n      iszero\n      tag_112\n      jumpi\n      0x00\n      dup1\n      revert\n    tag_112:\n      dup2\n      add\n      swap1\n      dup1\n      dup1\n      calldataload\n      0xffffffffffffffffffffffffffffffffffffffff\n      and\n      swap1\n      0x20\n      add\n      swap1\n      swap3\n      swap2\n      swap1\n      pop\n      pop\n      pop\n      tag_113\n      jump\t// in\n    tag_111:\n      stop\n        /* \"saf.sol\":4892:4975  function decimals() public view returns (uint8) {\r... */\n    tag_14:\n      callvalue\n      dup1\n      iszero\n      tag_114\n      jumpi\n      0x00\n      dup1\n      revert\n    tag_114:\n      pop\n      tag_115\n      tag_116\n      jump\t// in\n    tag_115:\n      mload(0x40)\n      dup1\n      dup3\n      0xff\n      and\n      dup2\n      mstore\n      0x20\n      add\n      swap2\n      pop\n      pop\n      mload(0x40)\n      dup1\n      swap2\n      sub\n      swap1\n      return\n        /* \"saf.sol\":5244:5270  uint8 public _decimals = 5 */\n    tag_15:\n      callvalue\n      dup1\n      iszero\n      tag_117\n      jumpi\n      0x00\n      dup1\n      revert\n    tag_117:\n      pop\n      tag_118\n      tag_119\n      jump\t// in\n    tag_118:\n      mload(0x40)\n      dup1\n      dup3\n      0xff\n      and\n      dup2\n      mstore\n      0x20\n      add\n      swap2\n      pop\n      pop\n      mload(0x40)\n      dup1\n      swap2\n      sub\n      swap1\n      return\n        /* \"saf.sol\":6888:6919  uint256 public _lastRebasedTime */\n    tag_16:\n      callvalue\n      dup1\n      iszero\n      tag_120\n      jumpi\n      0x00\n      dup1\n      revert\n    tag_120:\n      pop\n      tag_121\n      tag_122\n      jump\t// in\n    tag_121:\n      mload(0x40)\n      dup1\n      dup3\n      dup2\n      mstore\n      0x20\n      add\n      swap2\n      pop\n      pop\n      mload(0x40)\n      dup1\n      swap2\n      sub\n      swap1\n      return\n        /* \"saf.sol\":5470:5519  uint256 public constant MAX_UINT256 = ~uint256(0) */\n    tag_17:\n      callvalue\n      dup1\n      iszero\n      tag_123\n      jumpi\n      0x00\n      dup1\n      revert\n    tag_123:\n      pop\n      tag_124\n      tag_125\n      jump\t// in\n    tag_124:\n      mload(0x40)\n      dup1\n      dup3\n      dup2\n      mstore\n      0x20\n      add\n      swap2\n      pop\n      pop\n      mload(0x40)\n      dup1\n      swap2\n      sub\n      swap1\n      return\n        /* \"saf.sol\":18296:18532  function setBotBlacklist(address _botAddress, bool _flag) external onlyOwner {\r... */\n    tag_18:\n      callvalue\n      dup1\n      iszero\n      tag_126\n      jumpi\n      0x00\n      dup1\n      revert\n    tag_126:\n      pop\n      tag_127\n      0x04\n      dup1\n      calldatasize\n      sub\n      0x40\n      dup2\n      lt\n      iszero\n      tag_128\n      jumpi\n      0x00\n      dup1\n      revert\n    tag_128:\n      dup2\n      add\n      swap1\n      dup1\n      dup1\n      calldataload\n      0xffffffffffffffffffffffffffffffffffffffff\n      and\n      swap1\n      0x20\n      add\n      swap1\n      swap3\n      swap2\n      swap1\n      dup1\n      calldataload\n      iszero\n      iszero\n      swap1\n      0x20\n      add\n      swap1\n      swap3\n      swap2\n      swap1\n      pop\n      pop\n      pop\n      tag_129\n      jump\t// in\n    tag_127:\n      stop\n        /* \"saf.sol\":16270:16676  function increaseAllowance(address spender, uint256 addedValue)\r... */\n    tag_19:\n      callvalue\n      dup1\n      iszero\n      tag_130\n      jumpi\n      0x00\n      dup1\n      revert\n    tag_130:\n      pop\n      tag_131\n      0x04\n      dup1\n      calldatasize\n      sub\n      0x40\n      dup2\n      lt\n      iszero\n      tag_132\n      jumpi\n      0x00\n      dup1\n      revert\n    tag_132:\n      dup2\n      add\n      swap1\n      dup1\n      dup1\n      calldataload\n      0xffffffffffffffffffffffffffffffffffffffff\n      and\n      swap1\n      0x20\n      add\n      swap1\n      swap3\n      swap2\n      swap1\n      dup1\n      calldataload\n      swap1\n      0x20\n      add\n      swap1\n      swap3\n      swap2\n      swap1\n      pop\n      pop\n      pop\n      tag_133\n      jump\t// in\n    tag_131:\n      mload(0x40)\n      dup1\n      dup3\n      iszero\n      iszero\n      dup2\n      mstore\n      0x20\n      add\n      swap2\n      pop\n      pop\n      mload(0x40)\n      dup1\n      swap2\n      sub\n      swap1\n      return\n        /* \"saf.sol\":6260:6301  address public safuuInsuranceFundReceiver */\n    tag_20:\n      callvalue\n      dup1\n      iszero\n      tag_134\n      jumpi\n      0x00\n      dup1\n      revert\n    tag_134:\n      pop\n      tag_135\n      tag_136\n      jump\t// in\n    tag_135:\n      mload(0x40)\n      dup1\n      dup3\n      0xffffffffffffffffffffffffffffffffffffffff\n      and\n      dup2\n      mstore\n      0x20\n      add\n      swap2\n      pop\n      pop\n      mload(0x40)\n      dup1\n      swap2\n      sub\n      swap1\n      return\n        /* \"saf.sol\":17471:17880  function setFeeReceivers(\r... */\n    tag_21:\n      callvalue\n      dup1\n      iszero\n      tag_137\n      jumpi\n      0x00\n      dup1\n      revert\n    tag_137:\n      pop\n      tag_138\n      0x04\n      dup1\n      calldatasize\n      sub\n      0x80\n      dup2\n      lt\n      iszero\n      tag_139\n      jumpi\n      0x00\n      dup1\n      revert\n    tag_139:\n      dup2\n      add\n      swap1\n      dup1\n      dup1\n      calldataload\n      0xffffffffffffffffffffffffffffffffffffffff\n      and\n      swap1\n      0x20\n      add\n      swap1\n      swap3\n      swap2\n      swap1\n      dup1\n      calldataload\n      0xffffffffffffffffffffffffffffffffffffffff\n      and\n      swap1\n      0x20\n      add\n      swap1\n      swap3\n      swap2\n      swap1\n      dup1\n      calldataload\n      0xffffffffffffffffffffffffffffffffffffffff\n      and\n      swap1\n      0x20\n      add\n      swap1\n      swap3\n      swap2\n      swap1\n      dup1\n      calldataload\n      0xffffffffffffffffffffffffffffffffffffffff\n      and\n      swap1\n      0x20\n      add\n      swap1\n      swap3\n      swap2\n      swap1\n      pop\n      pop\n      pop\n      tag_140\n      jump\t// in\n    tag_138:\n      stop\n        /* \"saf.sol\":6969:6996  uint256 public _totalSupply */\n    tag_22:\n      callvalue\n      dup1\n      iszero\n      tag_141\n      jumpi\n      0x00\n      dup1\n      revert\n    tag_141:\n      pop\n      tag_142\n      tag_143\n      jump\t// in\n    tag_142:\n      mload(0x40)\n      dup1\n      dup3\n      dup2\n      mstore\n      0x20\n      add\n      swap2\n      pop\n      pop\n      mload(0x40)\n      dup1\n      swap2\n      sub\n      swap1\n      return\n        /* \"saf.sol\":6308:6330  address public firePit */\n    tag_23:\n      callvalue\n      dup1\n      iszero\n      tag_144\n      jumpi\n      0x00\n      dup1\n      revert\n    tag_144:\n      pop\n      tag_145\n      tag_146\n      jump\t// in\n    tag_145:\n      mload(0x40)\n      dup1\n      dup3\n      0xffffffffffffffffffffffffffffffffffffffff\n      and\n      dup2\n      mstore\n      0x20\n      add\n      swap2\n      pop\n      pop\n      mload(0x40)\n      dup1\n      swap2\n      sub\n      swap1\n      return\n        /* \"saf.sol\":5747:5788  uint256 public safuuInsuranceFundFee = 50 */\n    tag_24:\n      callvalue\n      dup1\n      iszero\n      tag_147\n      jumpi\n      0x00\n      dup1\n      revert\n    tag_147:\n      pop\n      tag_148\n      tag_149\n      jump\t// in\n    tag_148:\n      mload(0x40)\n      dup1\n      dup3\n      dup2\n      mstore\n      0x20\n      add\n      swap2\n      pop\n      pop\n      mload(0x40)\n      dup1\n      swap2\n      sub\n      swap1\n      return\n        /* \"saf.sol\":5526:5565  uint8 public constant RATE_DECIMALS = 7 */\n    tag_25:\n      callvalue\n      dup1\n      iszero\n      tag_150\n      jumpi\n      0x00\n      dup1\n      revert\n    tag_150:\n      pop\n      tag_151\n      tag_152\n      jump\t// in\n    tag_151:\n      mload(0x40)\n      dup1\n      dup3\n      0xff\n      and\n      dup2\n      mstore\n      0x20\n      add\n      swap2\n      pop\n      pop\n      mload(0x40)\n      dup1\n      swap2\n      sub\n      swap1\n      return\n        /* \"saf.sol\":6810:6839  bool public _autoAddLiquidity */\n    tag_26:\n      callvalue\n      dup1\n      iszero\n      tag_153\n      jumpi\n      0x00\n      dup1\n      revert\n    tag_153:\n      pop\n      tag_154\n      tag_155\n      jump\t// in\n    tag_154:\n      mload(0x40)\n      dup1\n      dup3\n      iszero\n      iszero\n      dup2\n      mstore\n      0x20\n      add\n      swap2\n      pop\n      pop\n      mload(0x40)\n      dup1\n      swap2\n      sub\n      swap1\n      return\n        /* \"saf.sol\":6370:6400  bool public swapEnabled = true */\n    tag_27:\n      callvalue\n      dup1\n      iszero\n      tag_156\n      jumpi\n      0x00\n      dup1\n      revert\n    tag_156:\n      pop\n      tag_157\n      tag_158\n      jump\t// in\n    tag_157:\n      mload(0x40)\n      dup1\n      dup3\n      iszero\n      iszero\n      dup2\n      mstore\n      0x20\n      add\n      swap2\n      pop\n      pop\n      mload(0x40)\n      dup1\n      swap2\n      sub\n      swap1\n      return\n        /* \"saf.sol\":18899:19037  function balanceOf(address who) external view override returns (uint256) {\r... */\n    tag_28:\n      callvalue\n      dup1\n      iszero\n      tag_159\n      jumpi\n      0x00\n      dup1\n      revert\n    tag_159:\n      pop\n      tag_160\n      0x04\n      dup1\n      calldatasize\n      sub\n      0x20\n      dup2\n      lt\n      iszero\n      tag_161\n      jumpi\n      0x00\n      dup1\n      revert\n    tag_161:\n      dup2\n      add\n      swap1\n      dup1\n      dup1\n      calldataload\n      0xffffffffffffffffffffffffffffffffffffffff\n      and\n      swap1\n      0x20\n      add\n      swap1\n      swap3\n      swap2\n      swap1\n      pop\n      pop\n      pop\n      tag_162\n      jump\t// in\n    tag_160:\n      mload(0x40)\n      dup1\n      dup3\n      dup2\n      mstore\n      0x20\n      add\n      swap2\n      pop\n      pop\n      mload(0x40)\n      dup1\n      swap2\n      sub\n      swap1\n      return\n        /* \"saf.sol\":3917:4043  function renounceOwnership() public onlyOwner {\r... */\n    tag_29:\n      callvalue\n      dup1\n      iszero\n      tag_163\n      jumpi\n      0x00\n      dup1\n      revert\n    tag_163:\n      pop\n      tag_164\n      tag_165\n      jump\t// in\n    tag_164:\n      stop\n        /* \"saf.sol\":17382:17463  function manualSync() external {\r... */\n    tag_30:\n      callvalue\n      dup1\n      iszero\n      tag_166\n      jumpi\n      0x00\n      dup1\n      revert\n    tag_166:\n      pop\n      tag_167\n      tag_168\n      jump\t// in\n    tag_167:\n      stop\n        /* \"saf.sol\":17289:17374  function isNotInSwap() external view returns (bool) {\r... */\n    tag_31:\n      callvalue\n      dup1\n      iszero\n      tag_169\n      jumpi\n      0x00\n      dup1\n      revert\n    tag_169:\n      pop\n      tag_170\n      tag_171\n      jump\t// in\n    tag_170:\n      mload(0x40)\n      dup1\n      dup3\n      iszero\n      iszero\n      dup2\n      mstore\n      0x20\n      add\n      swap2\n      pop\n      pop\n      mload(0x40)\n      dup1\n      swap2\n      sub\n      swap1\n      return\n        /* \"saf.sol\":18187:18288  function setWhitelist(address _addr) external onlyOwner {\r... */\n    tag_32:\n      callvalue\n      dup1\n      iszero\n      tag_172\n      jumpi\n      0x00\n      dup1\n      revert\n    tag_172:\n      pop\n      tag_173\n      0x04\n      dup1\n      calldatasize\n      sub\n      0x20\n      dup2\n      lt\n      iszero\n      tag_174\n      jumpi\n      0x00\n      dup1\n      revert\n    tag_174:\n      dup2\n      add\n      swap1\n      dup1\n      dup1\n      calldataload\n      0xffffffffffffffffffffffffffffffffffffffff\n      and\n      swap1\n      0x20\n      add\n      swap1\n      swap3\n      swap2\n      swap1\n      pop\n      pop\n      pop\n      tag_175\n      jump\t// in\n    tag_173:\n      stop\n        /* \"saf.sol\":3652:3731  function owner() public view returns (address) {\r... */\n    tag_33:\n      callvalue\n      dup1\n      iszero\n      tag_176\n      jumpi\n      0x00\n      dup1\n      revert\n    tag_176:\n      pop\n      tag_177\n      tag_178\n      jump\t// in\n    tag_177:\n      mload(0x40)\n      dup1\n      dup3\n      0xffffffffffffffffffffffffffffffffffffffff\n      and\n      dup2\n      mstore\n      0x20\n      add\n      swap2\n      pop\n      pop\n      mload(0x40)\n      dup1\n      swap2\n      sub\n      swap1\n      return\n        /* \"saf.sol\":3817:3909  function isOwner() public view returns (bool) {\r... */\n    tag_34:\n      callvalue\n      dup1\n      iszero\n      tag_179\n      jumpi\n      0x00\n      dup1\n      revert\n    tag_179:\n      pop\n      tag_180\n      tag_181\n      jump\t// in\n    tag_180:\n      mload(0x40)\n      dup1\n      dup3\n      iszero\n      iszero\n      dup2\n      mstore\n      0x20\n      add\n      swap2\n      pop\n      pop\n      mload(0x40)\n      dup1\n      swap2\n      sub\n      swap1\n      return\n        /* \"saf.sol\":4797:4884  function symbol() public view returns (string memory) {\r... */\n    tag_35:\n      callvalue\n      dup1\n      iszero\n      tag_182\n      jumpi\n      0x00\n      dup1\n      revert\n    tag_182:\n      pop\n      tag_183\n      tag_184\n      jump\t// in\n    tag_183:\n      mload(0x40)\n      dup1\n      dup1\n      0x20\n      add\n      dup3\n      dup2\n      sub\n      dup3\n      mstore\n      dup4\n      dup2\n      dup2\n      mload\n      dup2\n      mstore\n      0x20\n      add\n      swap2\n      pop\n      dup1\n      mload\n      swap1\n      0x20\n      add\n      swap1\n      dup1\n      dup4\n      dup4\n      0x00\n    tag_185:\n      dup4\n      dup2\n      lt\n      iszero\n      tag_187\n      jumpi\n      dup1\n      dup3\n      add\n      mload\n      dup2\n      dup5\n      add\n      mstore\n      0x20\n      dup2\n      add\n      swap1\n      pop\n      jump(tag_185)\n    tag_187:\n      pop\n      pop\n      pop\n      pop\n      swap1\n      pop\n      swap1\n      dup2\n      add\n      swap1\n      0x1f\n      and\n      dup1\n      iszero\n      tag_188\n      jumpi\n      dup1\n      dup3\n      sub\n      dup1\n      mload\n      0x01\n      dup4\n      0x20\n      sub\n      0x0100\n      exp\n      sub\n      not\n      and\n      dup2\n      mstore\n      0x20\n      add\n      swap2\n      pop\n    tag_188:\n      pop\n      swap3\n      pop\n      pop\n      pop\n      mload(0x40)\n      dup1\n      swap2\n      sub\n      swap1\n      return\n        /* \"saf.sol\":5670:5702  uint256 public liquidityFee = 40 */\n    tag_36:\n      callvalue\n      dup1\n      iszero\n      tag_189\n      jumpi\n      0x00\n      dup1\n      revert\n    tag_189:\n      pop\n      tag_190\n      tag_191\n      jump\t// in\n    tag_190:\n      mload(0x40)\n      dup1\n      dup3\n      dup2\n      mstore\n      0x20\n      add\n      swap2\n      pop\n      pop\n      mload(0x40)\n      dup1\n      swap2\n      sub\n      swap1\n      return\n        /* \"saf.sol\":6926:6962  uint256 public _lastAddLiquidityTime */\n    tag_37:\n      callvalue\n      dup1\n      iszero\n      tag_192\n      jumpi\n      0x00\n      dup1\n      revert\n    tag_192:\n      pop\n      tag_193\n      tag_194\n      jump\t// in\n    tag_193:\n      mload(0x40)\n      dup1\n      dup3\n      dup2\n      mstore\n      0x20\n      add\n      swap2\n      pop\n      pop\n      mload(0x40)\n      dup1\n      swap2\n      sub\n      swap1\n      return\n        /* \"saf.sol\":6846:6881  uint256 public _initRebaseStartTime */\n    tag_38:\n      callvalue\n      dup1\n      iszero\n      tag_195\n      jumpi\n      0x00\n      dup1\n      revert\n    tag_195:\n      pop\n      tag_196\n      tag_197\n      jump\t// in\n    tag_196:\n      mload(0x40)\n      dup1\n      dup3\n      dup2\n      mstore\n      0x20\n      add\n      swap2\n      pop\n      pop\n      mload(0x40)\n      dup1\n      swap2\n      sub\n      swap1\n      return\n        /* \"saf.sol\":18544:18652  function setPairAddress(address _pairAddress) public onlyOwner {\r... */\n    tag_39:\n      callvalue\n      dup1\n      iszero\n      tag_198\n      jumpi\n      0x00\n      dup1\n      revert\n    tag_198:\n      pop\n      tag_199\n      0x04\n      dup1\n      calldatasize\n      sub\n      0x20\n      dup2\n      lt\n      iszero\n      tag_200\n      jumpi\n      0x00\n      dup1\n      revert\n    tag_200:\n      dup2\n      add\n      swap1\n      dup1\n      dup1\n      calldataload\n      0xffffffffffffffffffffffffffffffffffffffff\n      and\n      swap1\n      0x20\n      add\n      swap1\n      swap3\n      swap2\n      swap1\n      pop\n      pop\n      pop\n      tag_201\n      jump\t// in\n    tag_199:\n      stop\n        /* \"saf.sol\":15666:16262  function decreaseAllowance(address spender, uint256 subtractedValue)\r... */\n    tag_40:\n      callvalue\n      dup1\n      iszero\n      tag_202\n      jumpi\n      0x00\n      dup1\n      revert\n    tag_202:\n      pop\n      tag_203\n      0x04\n      dup1\n      calldatasize\n      sub\n      0x40\n      dup2\n      lt\n      iszero\n      tag_204\n      jumpi\n      0x00\n      dup1\n      revert\n    tag_204:\n      dup2\n      add\n      swap1\n      dup1\n      dup1\n      calldataload\n      0xffffffffffffffffffffffffffffffffffffffff\n      and\n      swap1\n      0x20\n      add\n      swap1\n      swap3\n      swap2\n      swap1\n      dup1\n      calldataload\n      swap1\n      0x20\n      add\n      swap1\n      swap3\n      swap2\n      swap1\n      pop\n      pop\n      pop\n      tag_205\n      jump\t// in\n    tag_203:\n      mload(0x40)\n      dup1\n      dup3\n      iszero\n      iszero\n      dup2\n      mstore\n      0x20\n      add\n      swap2\n      pop\n      pop\n      mload(0x40)\n      dup1\n      swap2\n      sub\n      swap1\n      return\n        /* \"saf.sol\":5829:5859  uint256 public firePitFee = 25 */\n    tag_41:\n      callvalue\n      dup1\n      iszero\n      tag_206\n      jumpi\n      0x00\n      dup1\n      revert\n    tag_206:\n      pop\n      tag_207\n      tag_208\n      jump\t// in\n    tag_207:\n      mload(0x40)\n      dup1\n      dup3\n      dup2\n      mstore\n      0x20\n      add\n      swap2\n      pop\n      pop\n      mload(0x40)\n      dup1\n      swap2\n      sub\n      swap1\n      return\n        /* \"saf.sol\":6448:6467  address public pair */\n    tag_42:\n      callvalue\n      dup1\n      iszero\n      tag_209\n      jumpi\n      0x00\n      dup1\n      revert\n    tag_209:\n      pop\n      tag_210\n      tag_211\n      jump\t// in\n    tag_210:\n      mload(0x40)\n      dup1\n      dup3\n      0xffffffffffffffffffffffffffffffffffffffff\n      and\n      dup2\n      mstore\n      0x20\n      add\n      swap2\n      pop\n      pop\n      mload(0x40)\n      dup1\n      swap2\n      sub\n      swap1\n      return\n        /* \"saf.sol\":6337:6363  address public pairAddress */\n    tag_43:\n      callvalue\n      dup1\n      iszero\n      tag_212\n      jumpi\n      0x00\n      dup1\n      revert\n    tag_212:\n      pop\n      tag_213\n      tag_214\n      jump\t// in\n    tag_213:\n      mload(0x40)\n      dup1\n      dup3\n      0xffffffffffffffffffffffffffffffffffffffff\n      and\n      dup2\n      mstore\n      0x20\n      add\n      swap2\n      pop\n      pop\n      mload(0x40)\n      dup1\n      swap2\n      sub\n      swap1\n      return\n        /* \"saf.sol\":9551:9766  function transfer(address to, uint256 value)\r... */\n    tag_44:\n      callvalue\n      dup1\n      iszero\n      tag_215\n      jumpi\n      0x00\n      dup1\n      revert\n    tag_215:\n      pop\n      tag_216\n      0x04\n      dup1\n      calldatasize\n      sub\n      0x40\n      dup2\n      lt\n      iszero\n      tag_217\n      jumpi\n      0x00\n      dup1\n      revert\n    tag_217:\n      dup2\n      add\n      swap1\n      dup1\n      dup1\n      calldataload\n      0xffffffffffffffffffffffffffffffffffffffff\n      and\n      swap1\n      0x20\n      add\n      swap1\n      swap3\n      swap2\n      swap1\n      dup1\n      calldataload\n      swap1\n      0x20\n      add\n      swap1\n      swap3\n      swap2\n      swap1\n      pop\n      pop\n      pop\n      tag_218\n      jump\t// in\n    tag_216:\n      mload(0x40)\n      dup1\n      dup3\n      iszero\n      iszero\n      dup2\n      mstore\n      0x20\n      add\n      swap2\n      pop\n      pop\n      mload(0x40)\n      dup1\n      swap2\n      sub\n      swap1\n      return\n        /* \"saf.sol\":6780:6803  bool public _autoRebase */\n    tag_45:\n      callvalue\n      dup1\n      iszero\n      tag_219\n      jumpi\n      0x00\n      dup1\n      revert\n    tag_219:\n      pop\n      tag_220\n      tag_221\n      jump\t// in\n    tag_220:\n      mload(0x40)\n      dup1\n      dup3\n      iszero\n      iszero\n      dup2\n      mstore\n      0x20\n      add\n      swap2\n      pop\n      pop\n      mload(0x40)\n      dup1\n      swap2\n      sub\n      swap1\n      return\n        /* \"saf.sol\":5206:5237  string public _symbol = \"SAFUU\" */\n    tag_46:\n      callvalue\n      dup1\n      iszero\n      tag_222\n      jumpi\n      0x00\n      dup1\n      revert\n    tag_222:\n      pop\n      tag_223\n      tag_224\n      jump\t// in\n    tag_223:\n      mload(0x40)\n      dup1\n      dup1\n      0x20\n      add\n      dup3\n      dup2\n      sub\n      dup3\n      mstore\n      dup4\n      dup2\n      dup2\n      mload\n      dup2\n      mstore\n      0x20\n      add\n      swap2\n      pop\n      dup1\n      mload\n      swap1\n      0x20\n      add\n      swap1\n      dup1\n      dup4\n      dup4\n      0x00\n    tag_225:\n      dup4\n      dup2\n      lt\n      iszero\n      tag_227\n      jumpi\n      dup1\n      dup3\n      add\n      mload\n      dup2\n      dup5\n      add\n      mstore\n      0x20\n      dup2\n      add\n      swap1\n      pop\n      jump(tag_225)\n    tag_227:\n      pop\n      pop\n      pop\n      pop\n      swap1\n      pop\n      swap1\n      dup2\n      add\n      swap1\n      0x1f\n      and\n      dup1\n      iszero\n      tag_228\n      jumpi\n      dup1\n      dup3\n      sub\n      dup1\n      mload\n      0x01\n      dup4\n      0x20\n      sub\n      0x0100\n      exp\n      sub\n      not\n      and\n      dup2\n      mstore\n      0x20\n      add\n      swap2\n      pop\n    tag_228:\n      pop\n      swap3\n      pop\n      pop\n      pop\n      mload(0x40)\n      dup1\n      swap2\n      sub\n      swap1\n      return\n        /* \"saf.sol\":13722:14054  function withdrawAllToTreasury() external swapping onlyOwner {\r... */\n    tag_47:\n      callvalue\n      dup1\n      iszero\n      tag_229\n      jumpi\n      0x00\n      dup1\n      revert\n    tag_229:\n      pop\n      tag_230\n      tag_231\n      jump\t// in\n    tag_230:\n      stop\n        /* \"saf.sol\":6179:6215  address public autoLiquidityReceiver */\n    tag_48:\n      callvalue\n      dup1\n      iszero\n      tag_232\n      jumpi\n      0x00\n      dup1\n      revert\n    tag_232:\n      pop\n      tag_233\n      tag_234\n      jump\t// in\n    tag_233:\n      mload(0x40)\n      dup1\n      dup3\n      0xffffffffffffffffffffffffffffffffffffffff\n      and\n      dup2\n      mstore\n      0x20\n      add\n      swap2\n      pop\n      pop\n      mload(0x40)\n      dup1\n      swap2\n      sub\n      swap1\n      return\n        /* \"saf.sol\":5709:5740  uint256 public treasuryFee = 25 */\n    tag_49:\n      callvalue\n      dup1\n      iszero\n      tag_235\n      jumpi\n      0x00\n      dup1\n      revert\n    tag_235:\n      pop\n      tag_236\n      tag_237\n      jump\t// in\n    tag_236:\n      mload(0x40)\n      dup1\n      dup3\n      dup2\n      mstore\n      0x20\n      add\n      swap2\n      pop\n      pop\n      mload(0x40)\n      dup1\n      swap2\n      sub\n      swap1\n      return\n        /* \"saf.sol\":15204:15456  function setAutoAddLiquidity(bool _flag) external onlyOwner {\r... */\n    tag_50:\n      callvalue\n      dup1\n      iszero\n      tag_238\n      jumpi\n      0x00\n      dup1\n      revert\n    tag_238:\n      pop\n      tag_239\n      0x04\n      dup1\n      calldatasize\n      sub\n      0x20\n      dup2\n      lt\n      iszero\n      tag_240\n      jumpi\n      0x00\n      dup1\n      revert\n    tag_240:\n      dup2\n      add\n      swap1\n      dup1\n      dup1\n      calldataload\n      iszero\n      iszero\n      swap1\n      0x20\n      add\n      swap1\n      swap3\n      swap2\n      swap1\n      pop\n      pop\n      pop\n      tag_241\n      jump\t// in\n    tag_239:\n      stop\n        /* \"saf.sol\":5170:5199  string public _name = \"Safuu\" */\n    tag_51:\n      callvalue\n      dup1\n      iszero\n      tag_242\n      jumpi\n      0x00\n      dup1\n      revert\n    tag_242:\n      pop\n      tag_243\n      tag_244\n      jump\t// in\n    tag_243:\n      mload(0x40)\n      dup1\n      dup1\n      0x20\n      add\n      dup3\n      dup2\n      sub\n      dup3\n      mstore\n      dup4\n      dup2\n      dup2\n      mload\n      dup2\n      mstore\n      0x20\n      add\n      swap2\n      pop\n      dup1\n      mload\n      swap1\n      0x20\n      add\n      swap1\n      dup1\n      dup4\n      dup4\n      0x00\n    tag_245:\n      dup4\n      dup2\n      lt\n      iszero\n      tag_247\n      jumpi\n      dup1\n      dup3\n      add\n      mload\n      dup2\n      dup5\n      add\n      mstore\n      0x20\n      dup2\n      add\n      swap1\n      pop\n      jump(tag_245)\n    tag_247:\n      pop\n      pop\n      pop\n      pop\n      swap1\n      pop\n      swap1\n      dup2\n      add\n      swap1\n      0x1f\n      and\n      dup1\n      iszero\n      tag_248\n      jumpi\n      dup1\n      dup3\n      sub\n      dup1\n      mload\n      0x01\n      dup4\n      0x20\n      sub\n      0x0100\n      exp\n      sub\n      not\n      and\n      dup2\n      mstore\n      0x20\n      add\n      swap2\n      pop\n    tag_248:\n      pop\n      swap3\n      pop\n      pop\n      pop\n      mload(0x40)\n      dup1\n      swap2\n      sub\n      swap1\n      return\n        /* \"saf.sol\":16945:17058  function checkFeeExempt(address _addr) external view returns (bool) {\r... */\n    tag_52:\n      callvalue\n      dup1\n      iszero\n      tag_249\n      jumpi\n      0x00\n      dup1\n      revert\n    tag_249:\n      pop\n      tag_250\n      0x04\n      dup1\n      calldatasize\n      sub\n      0x20\n      dup2\n      lt\n      iszero\n      tag_251\n      jumpi\n      0x00\n      dup1\n      revert\n    tag_251:\n      dup2\n      add\n      swap1\n      dup1\n      dup1\n      calldataload\n      0xffffffffffffffffffffffffffffffffffffffff\n      and\n      swap1\n      0x20\n      add\n      swap1\n      swap3\n      swap2\n      swap1\n      pop\n      pop\n      pop\n      tag_252\n      jump\t// in\n    tag_250:\n      mload(0x40)\n      dup1\n      dup3\n      iszero\n      iszero\n      dup2\n      mstore\n      0x20\n      add\n      swap2\n      pop\n      pop\n      mload(0x40)\n      dup1\n      swap2\n      sub\n      swap1\n      return\n        /* \"saf.sol\":17888:18179  function getLiquidityBacking(uint256 accuracy)\r... */\n    tag_53:\n      callvalue\n      dup1\n      iszero\n      tag_253\n      jumpi\n      0x00\n      dup1\n      revert\n    tag_253:\n      pop\n      tag_254\n      0x04\n      dup1\n      calldatasize\n      sub\n      0x20\n      dup2\n      lt\n      iszero\n      tag_255\n      jumpi\n      0x00\n      dup1\n      revert\n    tag_255:\n      dup2\n      add\n      swap1\n      dup1\n      dup1\n      calldataload\n      swap1\n      0x20\n      add\n      swap1\n      swap3\n      swap2\n      swap1\n      pop\n      pop\n      pop\n      tag_256\n      jump\t// in\n    tag_254:\n      mload(0x40)\n      dup1\n      dup3\n      dup2\n      mstore\n      0x20\n      add\n      swap2\n      pop\n      pop\n      mload(0x40)\n      dup1\n      swap2\n      sub\n      swap1\n      return\n        /* \"saf.sol\":15464:15658  function allowance(address owner_, address spender)\r... */\n    tag_54:\n      callvalue\n      dup1\n      iszero\n      tag_257\n      jumpi\n      0x00\n      dup1\n      revert\n    tag_257:\n      pop\n      tag_258\n      0x04\n      dup1\n      calldatasize\n      sub\n      0x40\n      dup2\n      lt\n      iszero\n      tag_259\n      jumpi\n      0x00\n      dup1\n      revert\n    tag_259:\n      dup2\n      add\n      swap1\n      dup1\n      dup1\n      calldataload\n      0xffffffffffffffffffffffffffffffffffffffff\n      and\n      swap1\n      0x20\n      add\n      swap1\n      swap3\n      swap2\n      swap1\n      dup1\n      calldataload\n      0xffffffffffffffffffffffffffffffffffffffff\n      and\n      swap1\n      0x20\n      add\n      swap1\n      swap3\n      swap2\n      swap1\n      pop\n      pop\n      pop\n      tag_260\n      jump\t// in\n    tag_258:\n      mload(0x40)\n      dup1\n      dup3\n      dup2\n      mstore\n      0x20\n      add\n      swap2\n      pop\n      pop\n      mload(0x40)\n      dup1\n      swap2\n      sub\n      swap1\n      return\n        /* \"saf.sol\":14966:15196  function setAutoRebase(bool _flag) external onlyOwner {\r... */\n    tag_55:\n      callvalue\n      dup1\n      iszero\n      tag_261\n      jumpi\n      0x00\n      dup1\n      revert\n    tag_261:\n      pop\n      tag_262\n      0x04\n      dup1\n      calldatasize\n      sub\n      0x20\n      dup2\n      lt\n      iszero\n      tag_263\n      jumpi\n      0x00\n      dup1\n      revert\n    tag_263:\n      dup2\n      add\n      swap1\n      dup1\n      dup1\n      calldataload\n      iszero\n      iszero\n      swap1\n      0x20\n      add\n      swap1\n      swap3\n      swap2\n      swap1\n      pop\n      pop\n      pop\n      tag_264\n      jump\t// in\n    tag_262:\n      stop\n        /* \"saf.sol\":4051:4160  function transferOwnership(address newOwner) public onlyOwner {\r... */\n    tag_56:\n      callvalue\n      dup1\n      iszero\n      tag_265\n      jumpi\n      0x00\n      dup1\n      revert\n    tag_265:\n      pop\n      tag_266\n      0x04\n      dup1\n      calldatasize\n      sub\n      0x20\n      dup2\n      lt\n      iszero\n      tag_267\n      jumpi\n      0x00\n      dup1\n      revert\n    tag_267:\n      dup2\n      add\n      swap1\n      dup1\n      dup1\n      calldataload\n      0xffffffffffffffffffffffffffffffffffffffff\n      and\n      swap1\n      0x20\n      add\n      swap1\n      swap3\n      swap2\n      swap1\n      pop\n      pop\n      pop\n      tag_268\n      jump\t// in\n    tag_266:\n      stop\n        /* \"saf.sol\":7179:7220  mapping(address => bool) public blacklist */\n    tag_57:\n      callvalue\n      dup1\n      iszero\n      tag_269\n      jumpi\n      0x00\n      dup1\n      revert\n    tag_269:\n      pop\n      tag_270\n      0x04\n      dup1\n      calldatasize\n      sub\n      0x20\n      dup2\n      lt\n      iszero\n      tag_271\n      jumpi\n      0x00\n      dup1\n      revert\n    tag_271:\n      dup2\n      add\n      swap1\n      dup1\n      dup1\n      calldataload\n      0xffffffffffffffffffffffffffffffffffffffff\n      and\n      swap1\n      0x20\n      add\n      swap1\n      swap3\n      swap2\n      swap1\n      pop\n      pop\n      pop\n      tag_272\n      jump\t// in\n    tag_270:\n      mload(0x40)\n      dup1\n      dup3\n      iszero\n      iszero\n      dup2\n      mstore\n      0x20\n      add\n      swap2\n      pop\n      pop\n      mload(0x40)\n      dup1\n      swap2\n      sub\n      swap1\n      return\n        /* \"saf.sol\":4706:4789  function name() public view returns (string memory) {\r... */\n    tag_76:\n        /* \"saf.sol\":4743:4756  string memory */\n      0x60\n        /* \"saf.sol\":4776:4781  _name */\n      0x00\n        /* \"saf.sol\":4769:4781  return _name */\n      dup1\n      sload\n      0x01\n      dup2\n      0x01\n      and\n      iszero\n      0x0100\n      mul\n      sub\n      and\n      0x02\n      swap1\n      div\n      dup1\n      0x1f\n      add\n      0x20\n      dup1\n      swap2\n      div\n      mul\n      0x20\n      add\n      mload(0x40)\n      swap1\n      dup2\n      add\n      0x40\n      mstore\n      dup1\n      swap3\n      swap2\n      swap1\n      dup2\n      dup2\n      mstore\n      0x20\n      add\n      dup3\n      dup1\n      sload\n      0x01\n      dup2\n      0x01\n      and\n      iszero\n      0x0100\n      mul\n      sub\n      and\n      0x02\n      swap1\n      div\n      dup1\n      iszero\n      tag_276\n      jumpi\n      dup1\n      0x1f\n      lt\n      tag_277\n      jumpi\n      0x0100\n      dup1\n      dup4\n      sload\n      div\n      mul\n      dup4\n      mstore\n      swap2\n      0x20\n      add\n      swap2\n      jump(tag_276)\n    tag_277:\n      dup3\n      add\n      swap2\n      swap1\n      0x00\n      mstore\n      keccak256(0x00, 0x20)\n      swap1\n    tag_278:\n      dup2\n      sload\n      dup2\n      mstore\n      swap1\n      0x01\n      add\n      swap1\n      0x20\n      add\n      dup1\n      dup4\n      gt\n      tag_278\n      jumpi\n      dup3\n      swap1\n      sub\n      0x1f\n      and\n      dup3\n      add\n      swap2\n    tag_276:\n      pop\n      pop\n      pop\n      pop\n      pop\n      swap1\n      pop\n        /* \"saf.sol\":4706:4789  function name() public view returns (string memory) {\r... */\n      swap1\n      jump\t// out\n        /* \"saf.sol\":6222:6253  address public treasuryReceiver */\n    tag_83:\n      0x11\n      0x00\n      swap1\n      sload\n      swap1\n      0x0100\n      exp\n      swap1\n      div\n      0xffffffffffffffffffffffffffffffffffffffff\n      and\n      dup2\n      jump\t// out\n        /* \"saf.sol\":16684:16937  function approve(address spender, uint256 value)\r... */\n    tag_87:\n        /* \"saf.sol\":16787:16791  bool */\n      0x00\n        /* \"saf.sol\":16850:16855  value */\n      dup2\n        /* \"saf.sol\":16809:16826  _allowedFragments */\n      0x1c\n        /* \"saf.sol\":16809:16838  _allowedFragments[msg.sender] */\n      0x00\n        /* \"saf.sol\":16827:16837  msg.sender */\n      caller\n        /* \"saf.sol\":16809:16838  _allowedFragments[msg.sender] */\n      0xffffffffffffffffffffffffffffffffffffffff\n      and\n      0xffffffffffffffffffffffffffffffffffffffff\n      and\n      dup2\n      mstore\n      0x20\n      add\n      swap1\n      dup2\n      mstore\n      0x20\n      add\n      0x00\n      keccak256\n        /* \"saf.sol\":16809:16847  _allowedFragments[msg.sender][spender] */\n      0x00\n        /* \"saf.sol\":16839:16846  spender */\n      dup6\n        /* \"saf.sol\":16809:16847  _allowedFragments[msg.sender][spender] */\n      0xffffffffffffffffffffffffffffffffffffffff\n      and\n      0xffffffffffffffffffffffffffffffffffffffff\n      and\n      dup2\n      mstore\n      0x20\n      add\n      swap1\n      dup2\n      mstore\n      0x20\n      add\n      0x00\n      keccak256\n        /* \"saf.sol\":16809:16855  _allowedFragments[msg.sender][spender] = value */\n      dup2\n      swap1\n      sstore\n      pop\n        /* \"saf.sol\":16892:16899  spender */\n      dup3\n        /* \"saf.sol\":16871:16907  Approval(msg.sender, spender, value) */\n      0xffffffffffffffffffffffffffffffffffffffff\n      and\n        /* \"saf.sol\":16880:16890  msg.sender */\n      caller\n        /* \"saf.sol\":16871:16907  Approval(msg.sender, spender, value) */\n      0xffffffffffffffffffffffffffffffffffffffff\n      and\n      0x8c5be1e5ebec7d5bd14f71427d1e84f3dd0314c0f7b2291e5b200ac8c7c3b925\n        /* \"saf.sol\":16901:16906  value */\n      dup5\n        /* \"saf.sol\":16871:16907  Approval(msg.sender, spender, value) */\n      mload(0x40)\n      dup1\n      dup3\n      dup2\n      mstore\n      0x20\n      add\n      swap2\n      pop\n      pop\n      mload(0x40)\n      dup1\n      swap2\n      sub\n      swap1\n      log3\n        /* \"saf.sol\":16925:16929  true */\n      0x01\n        /* \"saf.sol\":16918:16929  return true */\n      swap1\n      pop\n        /* \"saf.sol\":16684:16937  function approve(address spender, uint256 value)\r... */\n      swap3\n      swap2\n      pop\n      pop\n      jump\t// out\n        /* \"saf.sol\":6004:6040  uint256 public feeDenominator = 1000 */\n    tag_90:\n      sload(0x0d)\n      dup2\n      jump\t// out\n        /* \"saf.sol\":18786:18888  function totalSupply() external view override returns (uint256) {\r... */\n    tag_93:\n        /* \"saf.sol\":18841:18848  uint256 */\n      0x00\n        /* \"saf.sol\":18868:18880  _totalSupply */\n      sload(0x19)\n        /* \"saf.sol\":18861:18880  return _totalSupply */\n      swap1\n      pop\n        /* \"saf.sol\":18786:18888  function totalSupply() external view override returns (uint256) {\r... */\n      swap1\n      jump\t// out\n        /* \"saf.sol\":5866:5997  uint256 public totalFee =\r... */\n    tag_96:\n      sload(0x0c)\n      dup2\n      jump\t// out\n        /* \"saf.sol\":9774:10239  function transferFrom(\r... */\n    tag_100:\n        /* \"saf.sol\":9917:9921  bool */\n      0x00\n        /* \"saf.sol\":9904:9906  to */\n      dup3\n        /* \"saf.sol\":5394:5397  0x0 */\n      0x00\n        /* \"saf.sol\":5380:5398  to != address(0x0) */\n      0xffffffffffffffffffffffffffffffffffffffff\n      and\n        /* \"saf.sol\":5380:5382  to */\n      dup2\n        /* \"saf.sol\":5380:5398  to != address(0x0) */\n      0xffffffffffffffffffffffffffffffffffffffff\n      and\n      eq\n      iszero\n        /* \"saf.sol\":5372:5399  require(to != address(0x0)) */\n      tag_282\n      jumpi\n      0x00\n      dup1\n      revert\n    tag_282:\n        /* \"saf.sol\":9995:9997  -1 */\n      0xffffffffffffffffffffffffffffffffffffffffffffffffffffffffffffffff\n        /* \"saf.sol\":9948:9965  _allowedFragments */\n      0x1c\n        /* \"saf.sol\":9948:9971  _allowedFragments[from] */\n      0x00\n        /* \"saf.sol\":9966:9970  from */\n      dup8\n        /* \"saf.sol\":9948:9971  _allowedFragments[from] */\n      0xffffffffffffffffffffffffffffffffffffffff\n      and\n      0xffffffffffffffffffffffffffffffffffffffff\n      and\n      dup2\n      mstore\n      0x20\n      add\n      swap1\n      dup2\n      mstore\n      0x20\n      add\n      0x00\n      keccak256\n        /* \"saf.sol\":9948:9983  _allowedFragments[from][msg.sender] */\n      0x00\n        /* \"saf.sol\":9972:9982  msg.sender */\n      caller\n        /* \"saf.sol\":9948:9983  _allowedFragments[from][msg.sender] */\n      0xffffffffffffffffffffffffffffffffffffffff\n      and\n      0xffffffffffffffffffffffffffffffffffffffff\n      and\n      dup2\n      mstore\n      0x20\n      add\n      swap1\n      dup2\n      mstore\n      0x20\n      add\n      0x00\n      keccak256\n      sload\n        /* \"saf.sol\":9948:9998  _allowedFragments[from][msg.sender] != uint256(-1) */\n      eq\n        /* \"saf.sol\":9944:10169  if (_allowedFragments[from][msg.sender] != uint256(-1)) {\r... */\n      tag_284\n      jumpi\n        /* \"saf.sol\":10053:10157  _allowedFragments[from][\r... */\n      tag_285\n        /* \"saf.sol\":10125:10130  value */\n      dup4\n        /* \"saf.sol\":10053:10157  _allowedFragments[from][\r... */\n      mload(0x40)\n      dup1\n      0x40\n      add\n      0x40\n      mstore\n      dup1\n      0x16\n      dup2\n      mstore\n      0x20\n      add\n      0x496e73756666696369656e7420416c6c6f77616e636500000000000000000000\n      dup2\n      mstore\n      pop\n        /* \"saf.sol\":10053:10070  _allowedFragments */\n      0x1c\n        /* \"saf.sol\":10053:10076  _allowedFragments[from] */\n      0x00\n        /* \"saf.sol\":10071:10075  from */\n      dup10\n        /* \"saf.sol\":10053:10076  _allowedFragments[from] */\n      0xffffffffffffffffffffffffffffffffffffffff\n      and\n      0xffffffffffffffffffffffffffffffffffffffff\n      and\n      dup2\n      mstore\n      0x20\n      add\n      swap1\n      dup2\n      mstore\n      0x20\n      add\n      0x00\n      keccak256\n        /* \"saf.sol\":10053:10120  _allowedFragments[from][\r... */\n      0x00\n        /* \"saf.sol\":10095:10105  msg.sender */\n      caller\n        /* \"saf.sol\":10053:10120  _allowedFragments[from][\r... */\n      0xffffffffffffffffffffffffffffffffffffffff\n      and\n      0xffffffffffffffffffffffffffffffffffffffff\n      and\n      dup2\n      mstore\n      0x20\n      add\n      swap1\n      dup2\n      mstore\n      0x20\n      add\n      0x00\n      keccak256\n      sload\n        /* \"saf.sol\":10053:10124  _allowedFragments[from][\r... */\n      tag_286\n      swap1\n        /* \"saf.sol\":10053:10157  _allowedFragments[from][\r... */\n      swap3\n      swap2\n      swap1\n      0xffffffff\n      and\n      jump\t// in\n    tag_285:\n        /* \"saf.sol\":10015:10032  _allowedFragments */\n      0x1c\n        /* \"saf.sol\":10015:10038  _allowedFragments[from] */\n      0x00\n        /* \"saf.sol\":10033:10037  from */\n      dup8\n        /* \"saf.sol\":10015:10038  _allowedFragments[from] */\n      0xffffffffffffffffffffffffffffffffffffffff\n      and\n      0xffffffffffffffffffffffffffffffffffffffff\n      and\n      dup2\n      mstore\n      0x20\n      add\n      swap1\n      dup2\n      mstore\n      0x20\n      add\n      0x00\n      keccak256\n        /* \"saf.sol\":10015:10050  _allowedFragments[from][msg.sender] */\n      0x00\n        /* \"saf.sol\":10039:10049  msg.sender */\n      caller\n        /* \"saf.sol\":10015:10050  _allowedFragments[from][msg.sender] */\n      0xffffffffffffffffffffffffffffffffffffffff\n      and\n      0xffffffffffffffffffffffffffffffffffffffff\n      and\n      dup2\n      mstore\n      0x20\n      add\n      swap1\n      dup2\n      mstore\n      0x20\n      add\n      0x00\n      keccak256\n        /* \"saf.sol\":10015:10157  _allowedFragments[from][msg.sender] = _allowedFragments[from][\r... */\n      dup2\n      swap1\n      sstore\n      pop\n        /* \"saf.sol\":9944:10169  if (_allowedFragments[from][msg.sender] != uint256(-1)) {\r... */\n    tag_284:\n        /* \"saf.sol\":10179:10209  _transferFrom(from, to, value) */\n      tag_287\n        /* \"saf.sol\":10193:10197  from */\n      dup6\n        /* \"saf.sol\":10199:10201  to */\n      dup6\n        /* \"saf.sol\":10203:10208  value */\n      dup6\n        /* \"saf.sol\":10179:10192  _transferFrom */\n      tag_288\n        /* \"saf.sol\":10179:10209  _transferFrom(from, to, value) */\n      jump\t// in\n    tag_287:\n      pop\n        /* \"saf.sol\":10227:10231  true */\n      0x01\n        /* \"saf.sol\":10220:10231  return true */\n      swap2\n      pop\n        /* \"saf.sol\":9774:10239  function transferFrom(\r... */\n      pop\n      swap4\n      swap3\n      pop\n      pop\n      pop\n      jump\t// out\n        /* \"saf.sol\":17066:17281  function getCirculatingSupply() public view returns (uint256) {\r... */\n    tag_103:\n        /* \"saf.sol\":17119:17126  uint256 */\n      0x00\n        /* \"saf.sol\":17159:17273  (TOTAL_GONS.sub(_gonBalances[DEAD]).sub(_gonBalances[ZERO])).div(\r... */\n      tag_290\n        /* \"saf.sol\":17242:17258  _gonsPerFragment */\n      sload(0x1a)\n        /* \"saf.sol\":17160:17218  TOTAL_GONS.sub(_gonBalances[DEAD]).sub(_gonBalances[ZERO]) */\n      tag_291\n        /* \"saf.sol\":17199:17211  _gonBalances */\n      0x1b\n        /* \"saf.sol\":17199:17217  _gonBalances[ZERO] */\n      0x00\n        /* \"saf.sol\":17212:17216  ZERO */\n      0x0f\n      0x00\n      swap1\n      sload\n      swap1\n      0x0100\n      exp\n      swap1\n      div\n      0xffffffffffffffffffffffffffffffffffffffff\n      and\n        /* \"saf.sol\":17199:17217  _gonBalances[ZERO] */\n      0xffffffffffffffffffffffffffffffffffffffff\n      and\n      0xffffffffffffffffffffffffffffffffffffffff\n      and\n      dup2\n      mstore\n      0x20\n      add\n      swap1\n      dup2\n      mstore\n      0x20\n      add\n      0x00\n      keccak256\n      sload\n        /* \"saf.sol\":17160:17194  TOTAL_GONS.sub(_gonBalances[DEAD]) */\n      tag_292\n        /* \"saf.sol\":17175:17187  _gonBalances */\n      0x1b\n        /* \"saf.sol\":17175:17193  _gonBalances[DEAD] */\n      0x00\n        /* \"saf.sol\":17188:17192  DEAD */\n      0x0e\n      0x00\n      swap1\n      sload\n      swap1\n      0x0100\n      exp\n      swap1\n      div\n      0xffffffffffffffffffffffffffffffffffffffff\n      and\n        /* \"saf.sol\":17175:17193  _gonBalances[DEAD] */\n      0xffffffffffffffffffffffffffffffffffffffff\n      and\n      0xffffffffffffffffffffffffffffffffffffffff\n      and\n      dup2\n      mstore\n      0x20\n      add\n      swap1\n      dup2\n      mstore\n      0x20\n      add\n      0x00\n      keccak256\n      sload\n        /* \"saf.sol\":5462:5463  5 */\n      0x05\n        /* \"saf.sol\":5649:5651  10 */\n      0x0a\n        /* \"saf.sol\":5649:5661  10**DECIMALS */\n      exp\n        /* \"saf.sol\":5635:5646  325 * 10**3 */\n      0x04f588\n        /* \"saf.sol\":5635:5661  325 * 10**3 * 10**DECIMALS */\n      mul\n        /* \"saf.sol\":5517:5518  0 */\n      0x00\n        /* \"saf.sol\":5508:5519  ~uint256(0) */\n      not\n        /* \"saf.sol\":6659:6697  MAX_UINT256 % INITIAL_FRAGMENTS_SUPPLY */\n      dup2\n      tag_293\n      jumpi\n      invalid\n    tag_293:\n      mod\n        /* \"saf.sol\":5517:5518  0 */\n      0x00\n        /* \"saf.sol\":5508:5519  ~uint256(0) */\n      not\n        /* \"saf.sol\":6644:6698  MAX_UINT256 - (MAX_UINT256 % INITIAL_FRAGMENTS_SUPPLY) */\n      sub\n        /* \"saf.sol\":17160:17174  TOTAL_GONS.sub */\n      tag_294\n      swap1\n        /* \"saf.sol\":17160:17194  TOTAL_GONS.sub(_gonBalances[DEAD]) */\n      swap2\n      swap1\n      0xffffffff\n      and\n      jump\t// in\n    tag_292:\n        /* \"saf.sol\":17160:17198  TOTAL_GONS.sub(_gonBalances[DEAD]).sub */\n      tag_294\n      swap1\n        /* \"saf.sol\":17160:17218  TOTAL_GONS.sub(_gonBalances[DEAD]).sub(_gonBalances[ZERO]) */\n      swap2\n      swap1\n      0xffffffff\n      and\n      jump\t// in\n    tag_291:\n        /* \"saf.sol\":17159:17223  (TOTAL_GONS.sub(_gonBalances[DEAD]).sub(_gonBalances[ZERO])).div */\n      tag_274\n      swap1\n        /* \"saf.sol\":17159:17273  (TOTAL_GONS.sub(_gonBalances[DEAD]).sub(_gonBalances[ZERO])).div(\r... */\n      swap2\n      swap1\n      0xffffffff\n      and\n      jump\t// in\n    tag_290:\n        /* \"saf.sol\":17139:17273  return\r... */\n      swap1\n      pop\n        /* \"saf.sol\":17066:17281  function getCirculatingSupply() public view returns (uint256) {\r... */\n      swap1\n      jump\t// out\n        /* \"saf.sol\":5795:5822  uint256 public sellFee = 20 */\n    tag_106:\n      sload(0x0a)\n      dup2\n      jump\t// out\n        /* \"saf.sol\":5427:5463  uint256 public constant DECIMALS = 5 */\n    tag_109:\n        /* \"saf.sol\":5462:5463  5 */\n      0x05\n        /* \"saf.sol\":5427:5463  uint256 public constant DECIMALS = 5 */\n      dup2\n      jump\t// out\n        /* \"saf.sol\":18660:18774  function setLP(address _address) external onlyOwner {\r... */\n    tag_113:\n        /* \"saf.sol\":3779:3788  isOwner() */\n      tag_296\n        /* \"saf.sol\":3779:3786  isOwner */\n      tag_181\n        /* \"saf.sol\":3779:3788  isOwner() */\n      jump\t// in\n    tag_296:\n        /* \"saf.sol\":3771:3789  require(isOwner()) */\n      tag_297\n      jumpi\n      0x00\n      dup1\n      revert\n    tag_297:\n        /* \"saf.sol\":18660:18774  function setLP(address _address) external onlyOwner {\r... */\n      pop\n      jump\t// out\n        /* \"saf.sol\":4892:4975  function decimals() public view returns (uint8) {\r... */\n    tag_116:\n        /* \"saf.sol\":4933:4938  uint8 */\n      0x00\n        /* \"saf.sol\":4958:4967  _decimals */\n      0x02\n      0x00\n      swap1\n      sload\n      swap1\n      0x0100\n      exp\n      swap1\n      div\n      0xff\n      and\n        /* \"saf.sol\":4951:4967  return _decimals */\n      swap1\n      pop\n        /* \"saf.sol\":4892:4975  function decimals() public view returns (uint8) {\r... */\n      swap1\n      jump\t// out\n        /* \"saf.sol\":5244:5270  uint8 public _decimals = 5 */\n    tag_119:\n      0x05\n      0x00\n      swap1\n      sload\n      swap1\n      0x0100\n      exp\n      swap1\n      div\n      0xff\n      and\n      dup2\n      jump\t// out\n        /* \"saf.sol\":6888:6919  uint256 public _lastRebasedTime */\n    tag_122:\n      sload(0x17)\n      dup2\n      jump\t// out\n        /* \"saf.sol\":5470:5519  uint256 public constant MAX_UINT256 = ~uint256(0) */\n    tag_125:\n        /* \"saf.sol\":5517:5518  0 */\n      0x00\n        /* \"saf.sol\":5508:5519  ~uint256(0) */\n      not\n        /* \"saf.sol\":5470:5519  uint256 public constant MAX_UINT256 = ~uint256(0) */\n      dup2\n      jump\t// out\n        /* \"saf.sol\":18296:18532  function setBotBlacklist(address _botAddress, bool _flag) external onlyOwner {\r... */\n    tag_129:\n        /* \"saf.sol\":3779:3788  isOwner() */\n      tag_301\n        /* \"saf.sol\":3779:3786  isOwner */\n      tag_181\n        /* \"saf.sol\":3779:3788  isOwner() */\n      jump\t// in\n    tag_301:\n        /* \"saf.sol\":3771:3789  require(isOwner()) */\n      tag_302\n      jumpi\n      0x00\n      dup1\n      revert\n    tag_302:\n        /* \"saf.sol\":18392:18415  isContract(_botAddress) */\n      tag_304\n        /* \"saf.sol\":18403:18414  _botAddress */\n      dup3\n        /* \"saf.sol\":18392:18402  isContract */\n      tag_305\n        /* \"saf.sol\":18392:18415  isContract(_botAddress) */\n      jump\t// in\n    tag_304:\n        /* \"saf.sol\":18384:18479  require(isContract(_botAddress), \"only contract address, not allowed exteranlly owned account\") */\n      tag_306\n      jumpi\n      mload(0x40)\n      0x08c379a000000000000000000000000000000000000000000000000000000000\n      dup2\n      mstore\n      0x04\n      add\n      dup1\n      dup1\n      0x20\n      add\n      dup3\n      dup2\n      sub\n      dup3\n      mstore\n      0x3b\n      dup2\n      mstore\n      0x20\n      add\n      dup1\n      data_a9fc452bf136d05a2ea42cd97645774b862952c28b211935b1074bbb4b1bbfcc\n      0x3b\n      swap2\n      codecopy\n      0x40\n      add\n      swap2\n      pop\n      pop\n      mload(0x40)\n      dup1\n      swap2\n      sub\n      swap1\n      revert\n    tag_306:\n        /* \"saf.sol\":18515:18520  _flag */\n      dup1\n        /* \"saf.sol\":18490:18499  blacklist */\n      0x1d\n        /* \"saf.sol\":18490:18512  blacklist[_botAddress] */\n      0x00\n        /* \"saf.sol\":18500:18511  _botAddress */\n      dup5\n        /* \"saf.sol\":18490:18512  blacklist[_botAddress] */\n      0xffffffffffffffffffffffffffffffffffffffff\n      and\n      0xffffffffffffffffffffffffffffffffffffffff\n      and\n      dup2\n      mstore\n      0x20\n      add\n      swap1\n      dup2\n      mstore\n      0x20\n      add\n      0x00\n      keccak256\n      0x00\n        /* \"saf.sol\":18490:18520  blacklist[_botAddress] = _flag */\n      0x0100\n      exp\n      dup2\n      sload\n      dup2\n      0xff\n      mul\n      not\n      and\n      swap1\n      dup4\n      iszero\n      iszero\n      mul\n      or\n      swap1\n      sstore\n      pop\n        /* \"saf.sol\":18296:18532  function setBotBlacklist(address _botAddress, bool _flag) external onlyOwner {\r... */\n      pop\n      pop\n      jump\t// out\n        /* \"saf.sol\":16270:16676  function increaseAllowance(address spender, uint256 addedValue)\r... */\n    tag_133:\n        /* \"saf.sol\":16370:16374  bool */\n      0x00\n        /* \"saf.sol\":16433:16511  _allowedFragments[msg.sender][\r... */\n      tag_308\n        /* \"saf.sol\":16500:16510  addedValue */\n      dup3\n        /* \"saf.sol\":16433:16450  _allowedFragments */\n      0x1c\n        /* \"saf.sol\":16433:16462  _allowedFragments[msg.sender] */\n      0x00\n        /* \"saf.sol\":16451:16461  msg.sender */\n      caller\n        /* \"saf.sol\":16433:16462  _allowedFragments[msg.sender] */\n      0xffffffffffffffffffffffffffffffffffffffff\n      and\n      0xffffffffffffffffffffffffffffffffffffffff\n      and\n      dup2\n      mstore\n      0x20\n      add\n      swap1\n      dup2\n      mstore\n      0x20\n      add\n      0x00\n      keccak256\n        /* \"saf.sol\":16433:16495  _allowedFragments[msg.sender][\r... */\n      0x00\n        /* \"saf.sol\":16477:16484  spender */\n      dup7\n        /* \"saf.sol\":16433:16495  _allowedFragments[msg.sender][\r... */\n      0xffffffffffffffffffffffffffffffffffffffff\n      and\n      0xffffffffffffffffffffffffffffffffffffffff\n      and\n      dup2\n      mstore\n      0x20\n      add\n      swap1\n      dup2\n      mstore\n      0x20\n      add\n      0x00\n      keccak256\n      sload\n        /* \"saf.sol\":16433:16499  _allowedFragments[msg.sender][\r... */\n      tag_273\n      swap1\n        /* \"saf.sol\":16433:16511  _allowedFragments[msg.sender][\r... */\n      swap2\n      swap1\n      0xffffffff\n      and\n      jump\t// in\n    tag_308:\n        /* \"saf.sol\":16392:16409  _allowedFragments */\n      0x1c\n        /* \"saf.sol\":16392:16421  _allowedFragments[msg.sender] */\n      0x00\n        /* \"saf.sol\":16410:16420  msg.sender */\n      caller\n        /* \"saf.sol\":16392:16421  _allowedFragments[msg.sender] */\n      0xffffffffffffffffffffffffffffffffffffffff\n      and\n      0xffffffffffffffffffffffffffffffffffffffff\n      and\n      dup2\n      mstore\n      0x20\n      add\n      swap1\n      dup2\n      mstore\n      0x20\n      add\n      0x00\n      keccak256\n        /* \"saf.sol\":16392:16430  _allowedFragments[msg.sender][spender] */\n      0x00\n        /* \"saf.sol\":16422:16429  spender */\n      dup6\n        /* \"saf.sol\":16392:16430  _allowedFragments[msg.sender][spender] */\n      0xffffffffffffffffffffffffffffffffffffffff\n      and\n      0xffffffffffffffffffffffffffffffffffffffff\n      and\n      dup2\n      mstore\n      0x20\n      add\n      swap1\n      dup2\n      mstore\n      0x20\n      add\n      0x00\n      keccak256\n        /* \"saf.sol\":16392:16511  _allowedFragments[msg.sender][spender] = _allowedFragments[msg.sender][\r... */\n      dup2\n      swap1\n      sstore\n      pop\n        /* \"saf.sol\":16575:16582  spender */\n      dup3\n        /* \"saf.sol\":16527:16646  Approval(\r... */\n      0xffffffffffffffffffffffffffffffffffffffff\n      and\n        /* \"saf.sol\":16550:16560  msg.sender */\n      caller\n        /* \"saf.sol\":16527:16646  Approval(\r... */\n      0xffffffffffffffffffffffffffffffffffffffff\n      and\n      0x8c5be1e5ebec7d5bd14f71427d1e84f3dd0314c0f7b2291e5b200ac8c7c3b925\n        /* \"saf.sol\":16597:16614  _allowedFragments */\n      0x1c\n        /* \"saf.sol\":16597:16626  _allowedFragments[msg.sender] */\n      0x00\n        /* \"saf.sol\":16615:16625  msg.sender */\n      caller\n        /* \"saf.sol\":16597:16626  _allowedFragments[msg.sender] */\n      0xffffffffffffffffffffffffffffffffffffffff\n      and\n      0xffffffffffffffffffffffffffffffffffffffff\n      and\n      dup2\n      mstore\n      0x20\n      add\n      swap1\n      dup2\n      mstore\n      0x20\n      add\n      0x00\n      keccak256\n        /* \"saf.sol\":16597:16635  _allowedFragments[msg.sender][spender] */\n      0x00\n        /* \"saf.sol\":16627:16634  spender */\n      dup8\n        /* \"saf.sol\":16597:16635  _allowedFragments[msg.sender][spender] */\n      0xffffffffffffffffffffffffffffffffffffffff\n      and\n      0xffffffffffffffffffffffffffffffffffffffff\n      and\n      dup2\n      mstore\n      0x20\n      add\n      swap1\n      dup2\n      mstore\n      0x20\n      add\n      0x00\n      keccak256\n      sload\n        /* \"saf.sol\":16527:16646  Approval(\r... */\n      mload(0x40)\n      dup1\n      dup3\n      dup2\n      mstore\n      0x20\n      add\n      swap2\n      pop\n      pop\n      mload(0x40)\n      dup1\n      swap2\n      sub\n      swap1\n      log3\n        /* \"saf.sol\":16664:16668  true */\n      0x01\n        /* \"saf.sol\":16657:16668  return true */\n      swap1\n      pop\n        /* \"saf.sol\":16270:16676  function increaseAllowance(address spender, uint256 addedValue)\r... */\n      swap3\n      swap2\n      pop\n      pop\n      jump\t// out\n        /* \"saf.sol\":6260:6301  address public safuuInsuranceFundReceiver */\n    tag_136:\n      0x12\n      0x00\n      swap1\n      sload\n      swap1\n      0x0100\n      exp\n      swap1\n      div\n      0xffffffffffffffffffffffffffffffffffffffff\n      and\n      dup2\n      jump\t// out\n        /* \"saf.sol\":17471:17880  function setFeeReceivers(\r... */\n    tag_140:\n        /* \"saf.sol\":3779:3788  isOwner() */\n      tag_310\n        /* \"saf.sol\":3779:3786  isOwner */\n      tag_181\n        /* \"saf.sol\":3779:3788  isOwner() */\n      jump\t// in\n    tag_310:\n        /* \"saf.sol\":3771:3789  require(isOwner()) */\n      tag_311\n      jumpi\n      0x00\n      dup1\n      revert\n    tag_311:\n        /* \"saf.sol\":17707:17729  _autoLiquidityReceiver */\n      dup4\n        /* \"saf.sol\":17683:17704  autoLiquidityReceiver */\n      0x10\n      0x00\n        /* \"saf.sol\":17683:17729  autoLiquidityReceiver = _autoLiquidityReceiver */\n      0x0100\n      exp\n      dup2\n      sload\n      dup2\n      0xffffffffffffffffffffffffffffffffffffffff\n      mul\n      not\n      and\n      swap1\n      dup4\n      0xffffffffffffffffffffffffffffffffffffffff\n      and\n      mul\n      or\n      swap1\n      sstore\n      pop\n        /* \"saf.sol\":17759:17776  _treasuryReceiver */\n      dup3\n        /* \"saf.sol\":17740:17756  treasuryReceiver */\n      0x11\n      0x00\n        /* \"saf.sol\":17740:17776  treasuryReceiver = _treasuryReceiver */\n      0x0100\n      exp\n      dup2\n      sload\n      dup2\n      0xffffffffffffffffffffffffffffffffffffffff\n      mul\n      not\n      and\n      swap1\n      dup4\n      0xffffffffffffffffffffffffffffffffffffffff\n      and\n      mul\n      or\n      swap1\n      sstore\n      pop\n        /* \"saf.sol\":17816:17843  _safuuInsuranceFundReceiver */\n      dup2\n        /* \"saf.sol\":17787:17813  safuuInsuranceFundReceiver */\n      0x12\n      0x00\n        /* \"saf.sol\":17787:17843  safuuInsuranceFundReceiver = _safuuInsuranceFundReceiver */\n      0x0100\n      exp\n      dup2\n      sload\n      dup2\n      0xffffffffffffffffffffffffffffffffffffffff\n      mul\n      not\n      and\n      swap1\n      dup4\n      0xffffffffffffffffffffffffffffffffffffffff\n      and\n      mul\n      or\n      swap1\n      sstore\n      pop\n        /* \"saf.sol\":17864:17872  _firePit */\n      dup1\n        /* \"saf.sol\":17854:17861  firePit */\n      0x13\n      0x00\n        /* \"saf.sol\":17854:17872  firePit = _firePit */\n      0x0100\n      exp\n      dup2\n      sload\n      dup2\n      0xffffffffffffffffffffffffffffffffffffffff\n      mul\n      not\n      and\n      swap1\n      dup4\n      0xffffffffffffffffffffffffffffffffffffffff\n      and\n      mul\n      or\n      swap1\n      sstore\n      pop\n        /* \"saf.sol\":17471:17880  function setFeeReceivers(\r... */\n      pop\n      pop\n      pop\n      pop\n      jump\t// out\n        /* \"saf.sol\":6969:6996  uint256 public _totalSupply */\n    tag_143:\n      sload(0x19)\n      dup2\n      jump\t// out\n        /* \"saf.sol\":6308:6330  address public firePit */\n    tag_146:\n      0x13\n      0x00\n      swap1\n      sload\n      swap1\n      0x0100\n      exp\n      swap1\n      div\n      0xffffffffffffffffffffffffffffffffffffffff\n      and\n      dup2\n      jump\t// out\n        /* \"saf.sol\":5747:5788  uint256 public safuuInsuranceFundFee = 50 */\n    tag_149:\n      sload(0x09)\n      dup2\n      jump\t// out\n        /* \"saf.sol\":5526:5565  uint8 public constant RATE_DECIMALS = 7 */\n    tag_152:\n        /* \"saf.sol\":5564:5565  7 */\n      0x07\n        /* \"saf.sol\":5526:5565  uint8 public constant RATE_DECIMALS = 7 */\n      dup2\n      jump\t// out\n        /* \"saf.sol\":6810:6839  bool public _autoAddLiquidity */\n    tag_155:\n      0x15\n      0x16\n      swap1\n      sload\n      swap1\n      0x0100\n      exp\n      swap1\n      div\n      0xff\n      and\n      dup2\n      jump\t// out\n        /* \"saf.sol\":6370:6400  bool public swapEnabled = true */\n    tag_158:\n      0x14\n      dup1\n      sload\n      swap1\n      0x0100\n      exp\n      swap1\n      div\n      0xff\n      and\n      dup2\n      jump\t// out\n        /* \"saf.sol\":18899:19037  function balanceOf(address who) external view override returns (uint256) {\r... */\n    tag_162:\n        /* \"saf.sol\":18963:18970  uint256 */\n      0x00\n        /* \"saf.sol\":18990:19029  _gonBalances[who].div(_gonsPerFragment) */\n      tag_314\n        /* \"saf.sol\":19012:19028  _gonsPerFragment */\n      sload(0x1a)\n        /* \"saf.sol\":18990:19002  _gonBalances */\n      0x1b\n        /* \"saf.sol\":18990:19007  _gonBalances[who] */\n      0x00\n        /* \"saf.sol\":19003:19006  who */\n      dup6\n        /* \"saf.sol\":18990:19007  _gonBalances[who] */\n      0xffffffffffffffffffffffffffffffffffffffff\n      and\n      0xffffffffffffffffffffffffffffffffffffffff\n      and\n      dup2\n      mstore\n      0x20\n      add\n      swap1\n      dup2\n      mstore\n      0x20\n      add\n      0x00\n      keccak256\n      sload\n        /* \"saf.sol\":18990:19011  _gonBalances[who].div */\n      tag_274\n      swap1\n        /* \"saf.sol\":18990:19029  _gonBalances[who].div(_gonsPerFragment) */\n      swap2\n      swap1\n      0xffffffff\n      and\n      jump\t// in\n    tag_314:\n        /* \"saf.sol\":18983:19029  return _gonBalances[who].div(_gonsPerFragment) */\n      swap1\n      pop\n        /* \"saf.sol\":18899:19037  function balanceOf(address who) external view override returns (uint256) {\r... */\n      swap2\n      swap1\n      pop\n      jump\t// out\n        /* \"saf.sol\":3917:4043  function renounceOwnership() public onlyOwner {\r... */\n    tag_165:\n        /* \"saf.sol\":3779:3788  isOwner() */\n      tag_316\n        /* \"saf.sol\":3779:3786  isOwner */\n      tag_181\n        /* \"saf.sol\":3779:3788  isOwner() */\n      jump\t// in\n    tag_316:\n        /* \"saf.sol\":3771:3789  require(isOwner()) */\n      tag_317\n      jumpi\n      0x00\n      dup1\n      revert\n    tag_317:\n        /* \"saf.sol\":3998:4004  _owner */\n      0x02\n      0x01\n      swap1\n      sload\n      swap1\n      0x0100\n      exp\n      swap1\n      div\n      0xffffffffffffffffffffffffffffffffffffffff\n      and\n        /* \"saf.sol\":3979:4005  OwnershipRenounced(_owner) */\n      0xffffffffffffffffffffffffffffffffffffffff\n      and\n      0xf8df31144d9c2f0f6b59d69b8b98abd5459d07f2742c4df920b25aae33c64820\n      mload(0x40)\n      mload(0x40)\n      dup1\n      swap2\n      sub\n      swap1\n      log2\n        /* \"saf.sol\":4033:4034  0 */\n      0x00\n        /* \"saf.sol\":4016:4022  _owner */\n      0x02\n      0x01\n        /* \"saf.sol\":4016:4035  _owner = address(0) */\n      0x0100\n      exp\n      dup2\n      sload\n      dup2\n      0xffffffffffffffffffffffffffffffffffffffff\n      mul\n      not\n      and\n      swap1\n      dup4\n      0xffffffffffffffffffffffffffffffffffffffff\n      and\n      mul\n      or\n      swap1\n      sstore\n      pop\n        /* \"saf.sol\":3917:4043  function renounceOwnership() public onlyOwner {\r... */\n      jump\t// out\n        /* \"saf.sol\":17382:17463  function manualSync() external {\r... */\n    tag_168:\n      jump\t// out\n        /* \"saf.sol\":17289:17374  function isNotInSwap() external view returns (bool) {\r... */\n    tag_171:\n        /* \"saf.sol\":17335:17339  bool */\n      0x00\n        /* \"saf.sol\":17360:17366  inSwap */\n      0x15\n      0x14\n      swap1\n      sload\n      swap1\n      0x0100\n      exp\n      swap1\n      div\n      0xff\n      and\n        /* \"saf.sol\":17359:17366  !inSwap */\n      iszero\n        /* \"saf.sol\":17352:17366  return !inSwap */\n      swap1\n      pop\n        /* \"saf.sol\":17289:17374  function isNotInSwap() external view returns (bool) {\r... */\n      swap1\n      jump\t// out\n        /* \"saf.sol\":18187:18288  function setWhitelist(address _addr) external onlyOwner {\r... */\n    tag_175:\n        /* \"saf.sol\":3779:3788  isOwner() */\n      tag_322\n        /* \"saf.sol\":3779:3786  isOwner */\n      tag_181\n        /* \"saf.sol\":3779:3788  isOwner() */\n      jump\t// in\n    tag_322:\n        /* \"saf.sol\":3771:3789  require(isOwner()) */\n      tag_323\n      jumpi\n      0x00\n      dup1\n      revert\n    tag_323:\n        /* \"saf.sol\":18276:18280  true */\n      0x01\n        /* \"saf.sol\":18254:18266  _isFeeExempt */\n      0x06\n        /* \"saf.sol\":18254:18273  _isFeeExempt[_addr] */\n      0x00\n        /* \"saf.sol\":18267:18272  _addr */\n      dup4\n        /* \"saf.sol\":18254:18273  _isFeeExempt[_addr] */\n      0xffffffffffffffffffffffffffffffffffffffff\n      and\n      0xffffffffffffffffffffffffffffffffffffffff\n      and\n      dup2\n      mstore\n      0x20\n      add\n      swap1\n      dup2\n      mstore\n      0x20\n      add\n      0x00\n      keccak256\n      0x00\n        /* \"saf.sol\":18254:18280  _isFeeExempt[_addr] = true */\n      0x0100\n      exp\n      dup2\n      sload\n      dup2\n      0xff\n      mul\n      not\n      and\n      swap1\n      dup4\n      iszero\n      iszero\n      mul\n      or\n      swap1\n      sstore\n      pop\n        /* \"saf.sol\":18187:18288  function setWhitelist(address _addr) external onlyOwner {\r... */\n      pop\n      jump\t// out\n        /* \"saf.sol\":3652:3731  function owner() public view returns (address) {\r... */\n    tag_178:\n        /* \"saf.sol\":3690:3697  address */\n      0x00\n        /* \"saf.sol\":3717:3723  _owner */\n      0x02\n      0x01\n      swap1\n      sload\n      swap1\n      0x0100\n      exp\n      swap1\n      div\n      0xffffffffffffffffffffffffffffffffffffffff\n      and\n        /* \"saf.sol\":3710:3723  return _owner */\n      swap1\n      pop\n        /* \"saf.sol\":3652:3731  function owner() public view returns (address) {\r... */\n      swap1\n      jump\t// out\n        /* \"saf.sol\":3817:3909  function isOwner() public view returns (bool) {\r... */\n    tag_181:\n        /* \"saf.sol\":3857:3861  bool */\n      0x00\n        /* \"saf.sol\":3895:3901  _owner */\n      0x02\n      0x01\n      swap1\n      sload\n      swap1\n      0x0100\n      exp\n      swap1\n      div\n      0xffffffffffffffffffffffffffffffffffffffff\n      and\n        /* \"saf.sol\":3881:3901  msg.sender == _owner */\n      0xffffffffffffffffffffffffffffffffffffffff\n      and\n        /* \"saf.sol\":3881:3891  msg.sender */\n      caller\n        /* \"saf.sol\":3881:3901  msg.sender == _owner */\n      0xffffffffffffffffffffffffffffffffffffffff\n      and\n      eq\n        /* \"saf.sol\":3874:3901  return msg.sender == _owner */\n      swap1\n      pop\n        /* \"saf.sol\":3817:3909  function isOwner() public view returns (bool) {\r... */\n      swap1\n      jump\t// out\n        /* \"saf.sol\":4797:4884  function symbol() public view returns (string memory) {\r... */\n    tag_184:\n        /* \"saf.sol\":4836:4849  string memory */\n      0x60\n        /* \"saf.sol\":4869:4876  _symbol */\n      0x01\n        /* \"saf.sol\":4862:4876  return _symbol */\n      dup1\n      sload\n      0x01\n      dup2\n      0x01\n      and\n      iszero\n      0x0100\n      mul\n      sub\n      and\n      0x02\n      swap1\n      div\n      dup1\n      0x1f\n      add\n      0x20\n      dup1\n      swap2\n      div\n      mul\n      0x20\n      add\n      mload(0x40)\n      swap1\n      dup2\n      add\n      0x40\n      mstore\n      dup1\n      swap3\n      swap2\n      swap1\n      dup2\n      dup2\n      mstore\n      0x20\n      add\n      dup3\n      dup1\n      sload\n      0x01\n      dup2\n      0x01\n      and\n      iszero\n      0x0100\n      mul\n      sub\n      and\n      0x02\n      swap1\n      div\n      dup1\n      iszero\n      tag_328\n      jumpi\n      dup1\n      0x1f\n      lt\n      tag_329\n      jumpi\n      0x0100\n      dup1\n      dup4\n      sload\n      div\n      mul\n      dup4\n      mstore\n      swap2\n      0x20\n      add\n      swap2\n      jump(tag_328)\n    tag_329:\n      dup3\n      add\n      swap2\n      swap1\n      0x00\n      mstore\n      keccak256(0x00, 0x20)\n      swap1\n    tag_330:\n      dup2\n      sload\n      dup2\n      mstore\n      swap1\n      0x01\n      add\n      swap1\n      0x20\n      add\n      dup1\n      dup4\n      gt\n      tag_330\n      jumpi\n      dup3\n      swap1\n      sub\n      0x1f\n      and\n      dup3\n      add\n      swap2\n    tag_328:\n      pop\n      pop\n      pop\n      pop\n      pop\n      swap1\n      pop\n        /* \"saf.sol\":4797:4884  function symbol() public view returns (string memory) {\r... */\n      swap1\n      jump\t// out\n        /* \"saf.sol\":5670:5702  uint256 public liquidityFee = 40 */\n    tag_191:\n      sload(0x07)\n      dup2\n      jump\t// out\n        /* \"saf.sol\":6926:6962  uint256 public _lastAddLiquidityTime */\n    tag_194:\n      sload(0x18)\n      dup2\n      jump\t// out\n        /* \"saf.sol\":6846:6881  uint256 public _initRebaseStartTime */\n    tag_197:\n      sload(0x16)\n      dup2\n      jump\t// out\n        /* \"saf.sol\":18544:18652  function setPairAddress(address _pairAddress) public onlyOwner {\r... */\n    tag_201:\n        /* \"saf.sol\":3779:3788  isOwner() */\n      tag_332\n        /* \"saf.sol\":3779:3786  isOwner */\n      tag_181\n        /* \"saf.sol\":3779:3788  isOwner() */\n      jump\t// in\n    tag_332:\n        /* \"saf.sol\":3771:3789  require(isOwner()) */\n      tag_333\n      jumpi\n      0x00\n      dup1\n      revert\n    tag_333:\n        /* \"saf.sol\":18632:18644  _pairAddress */\n      dup1\n        /* \"saf.sol\":18618:18629  pairAddress */\n      0x14\n      0x00\n        /* \"saf.sol\":18618:18644  pairAddress = _pairAddress */\n      0x0100\n      exp\n      dup2\n      sload\n      dup2\n      0xffffffffffffffffffffffffffffffffffffffff\n      mul\n      not\n      and\n      swap1\n      dup4\n      0xffffffffffffffffffffffffffffffffffffffff\n      and\n      mul\n      or\n      swap1\n      sstore\n      pop\n        /* \"saf.sol\":18544:18652  function setPairAddress(address _pairAddress) public onlyOwner {\r... */\n      pop\n      jump\t// out\n        /* \"saf.sol\":15666:16262  function decreaseAllowance(address spender, uint256 subtractedValue)\r... */\n    tag_205:\n        /* \"saf.sol\":15771:15775  bool */\n      0x00\n        /* \"saf.sol\":15793:15809  uint256 oldValue */\n      dup1\n        /* \"saf.sol\":15812:15829  _allowedFragments */\n      0x1c\n        /* \"saf.sol\":15812:15841  _allowedFragments[msg.sender] */\n      0x00\n        /* \"saf.sol\":15830:15840  msg.sender */\n      caller\n        /* \"saf.sol\":15812:15841  _allowedFragments[msg.sender] */\n      0xffffffffffffffffffffffffffffffffffffffff\n      and\n      0xffffffffffffffffffffffffffffffffffffffff\n      and\n      dup2\n      mstore\n      0x20\n      add\n      swap1\n      dup2\n      mstore\n      0x20\n      add\n      0x00\n      keccak256\n        /* \"saf.sol\":15812:15850  _allowedFragments[msg.sender][spender] */\n      0x00\n        /* \"saf.sol\":15842:15849  spender */\n      dup6\n        /* \"saf.sol\":15812:15850  _allowedFragments[msg.sender][spender] */\n      0xffffffffffffffffffffffffffffffffffffffff\n      and\n      0xffffffffffffffffffffffffffffffffffffffff\n      and\n      dup2\n      mstore\n      0x20\n      add\n      swap1\n      dup2\n      mstore\n      0x20\n      add\n      0x00\n      keccak256\n      sload\n        /* \"saf.sol\":15793:15850  uint256 oldValue = _allowedFragments[msg.sender][spender] */\n      swap1\n      pop\n        /* \"saf.sol\":15884:15892  oldValue */\n      dup1\n        /* \"saf.sol\":15865:15880  subtractedValue */\n      dup4\n        /* \"saf.sol\":15865:15892  subtractedValue >= oldValue */\n      lt\n        /* \"saf.sol\":15861:16098  if (subtractedValue >= oldValue) {\r... */\n      tag_336\n      jumpi\n        /* \"saf.sol\":15950:15951  0 */\n      0x00\n        /* \"saf.sol\":15909:15926  _allowedFragments */\n      0x1c\n        /* \"saf.sol\":15909:15938  _allowedFragments[msg.sender] */\n      0x00\n        /* \"saf.sol\":15927:15937  msg.sender */\n      caller\n        /* \"saf.sol\":15909:15938  _allowedFragments[msg.sender] */\n      0xffffffffffffffffffffffffffffffffffffffff\n      and\n      0xffffffffffffffffffffffffffffffffffffffff\n      and\n      dup2\n      mstore\n      0x20\n      add\n      swap1\n      dup2\n      mstore\n      0x20\n      add\n      0x00\n      keccak256\n        /* \"saf.sol\":15909:15947  _allowedFragments[msg.sender][spender] */\n      0x00\n        /* \"saf.sol\":15939:15946  spender */\n      dup7\n        /* \"saf.sol\":15909:15947  _allowedFragments[msg.sender][spender] */\n      0xffffffffffffffffffffffffffffffffffffffff\n      and\n      0xffffffffffffffffffffffffffffffffffffffff\n      and\n      dup2\n      mstore\n      0x20\n      add\n      swap1\n      dup2\n      mstore\n      0x20\n      add\n      0x00\n      keccak256\n        /* \"saf.sol\":15909:15951  _allowedFragments[msg.sender][spender] = 0 */\n      dup2\n      swap1\n      sstore\n      pop\n        /* \"saf.sol\":15861:16098  if (subtractedValue >= oldValue) {\r... */\n      jump(tag_337)\n    tag_336:\n        /* \"saf.sol\":16025:16086  oldValue.sub(\r... */\n      tag_338\n        /* \"saf.sol\":16056:16071  subtractedValue */\n      dup4\n        /* \"saf.sol\":16025:16033  oldValue */\n      dup3\n        /* \"saf.sol\":16025:16037  oldValue.sub */\n      tag_294\n      swap1\n        /* \"saf.sol\":16025:16086  oldValue.sub(\r... */\n      swap2\n      swap1\n      0xffffffff\n      and\n      jump\t// in\n    tag_338:\n        /* \"saf.sol\":15984:16001  _allowedFragments */\n      0x1c\n        /* \"saf.sol\":15984:16013  _allowedFragments[msg.sender] */\n      0x00\n        /* \"saf.sol\":16002:16012  msg.sender */\n      caller\n        /* \"saf.sol\":15984:16013  _allowedFragments[msg.sender] */\n      0xffffffffffffffffffffffffffffffffffffffff\n      and\n      0xffffffffffffffffffffffffffffffffffffffff\n      and\n      dup2\n      mstore\n      0x20\n      add\n      swap1\n      dup2\n      mstore\n      0x20\n      add\n      0x00\n      keccak256\n        /* \"saf.sol\":15984:16022  _allowedFragments[msg.sender][spender] */\n      0x00\n        /* \"saf.sol\":16014:16021  spender */\n      dup7\n        /* \"saf.sol\":15984:16022  _allowedFragments[msg.sender][spender] */\n      0xffffffffffffffffffffffffffffffffffffffff\n      and\n      0xffffffffffffffffffffffffffffffffffffffff\n      and\n      dup2\n      mstore\n      0x20\n      add\n      swap1\n      dup2\n      mstore\n      0x20\n      add\n      0x00\n      keccak256\n        /* \"saf.sol\":15984:16086  _allowedFragments[msg.sender][spender] = oldValue.sub(\r... */\n      dup2\n      swap1\n      sstore\n      pop\n        /* \"saf.sol\":15861:16098  if (subtractedValue >= oldValue) {\r... */\n    tag_337:\n        /* \"saf.sol\":16161:16168  spender */\n      dup4\n        /* \"saf.sol\":16113:16232  Approval(\r... */\n      0xffffffffffffffffffffffffffffffffffffffff\n      and\n        /* \"saf.sol\":16136:16146  msg.sender */\n      caller\n        /* \"saf.sol\":16113:16232  Approval(\r... */\n      0xffffffffffffffffffffffffffffffffffffffff\n      and\n      0x8c5be1e5ebec7d5bd14f71427d1e84f3dd0314c0f7b2291e5b200ac8c7c3b925\n        /* \"saf.sol\":16183:16200  _allowedFragments */\n      0x1c\n        /* \"saf.sol\":16183:16212  _allowedFragments[msg.sender] */\n      0x00\n        /* \"saf.sol\":16201:16211  msg.sender */\n      caller\n        /* \"saf.sol\":16183:16212  _allowedFragments[msg.sender] */\n      0xffffffffffffffffffffffffffffffffffffffff\n      and\n      0xffffffffffffffffffffffffffffffffffffffff\n      and\n      dup2\n      mstore\n      0x20\n      add\n      swap1\n      dup2\n      mstore\n      0x20\n      add\n      0x00\n      keccak256\n        /* \"saf.sol\":16183:16221  _allowedFragments[msg.sender][spender] */\n      0x00\n        /* \"saf.sol\":16213:16220  spender */\n      dup9\n        /* \"saf.sol\":16183:16221  _allowedFragments[msg.sender][spender] */\n      0xffffffffffffffffffffffffffffffffffffffff\n      and\n      0xffffffffffffffffffffffffffffffffffffffff\n      and\n      dup2\n      mstore\n      0x20\n      add\n      swap1\n      dup2\n      mstore\n      0x20\n      add\n      0x00\n      keccak256\n      sload\n        /* \"saf.sol\":16113:16232  Approval(\r... */\n      mload(0x40)\n      dup1\n      dup3\n      dup2\n      mstore\n      0x20\n      add\n      swap2\n      pop\n      pop\n      mload(0x40)\n      dup1\n      swap2\n      sub\n      swap1\n      log3\n        /* \"saf.sol\":16250:16254  true */\n      0x01\n        /* \"saf.sol\":16243:16254  return true */\n      swap2\n      pop\n      pop\n        /* \"saf.sol\":15666:16262  function decreaseAllowance(address spender, uint256 subtractedValue)\r... */\n      swap3\n      swap2\n      pop\n      pop\n      jump\t// out\n        /* \"saf.sol\":5829:5859  uint256 public firePitFee = 25 */\n    tag_208:\n      sload(0x0b)\n      dup2\n      jump\t// out\n        /* \"saf.sol\":6448:6467  address public pair */\n    tag_211:\n      0x15\n      0x00\n      swap1\n      sload\n      swap1\n      0x0100\n      exp\n      swap1\n      div\n      0xffffffffffffffffffffffffffffffffffffffff\n      and\n      dup2\n      jump\t// out\n        /* \"saf.sol\":6337:6363  address public pairAddress */\n    tag_214:\n      0x14\n      0x00\n      swap1\n      sload\n      swap1\n      0x0100\n      exp\n      swap1\n      div\n      0xffffffffffffffffffffffffffffffffffffffff\n      and\n      dup2\n      jump\t// out\n        /* \"saf.sol\":9551:9766  function transfer(address to, uint256 value)\r... */\n    tag_218:\n        /* \"saf.sol\":9678:9682  bool */\n      0x00\n        /* \"saf.sol\":9656:9658  to */\n      dup3\n        /* \"saf.sol\":5394:5397  0x0 */\n      0x00\n        /* \"saf.sol\":5380:5398  to != address(0x0) */\n      0xffffffffffffffffffffffffffffffffffffffff\n      and\n        /* \"saf.sol\":5380:5382  to */\n      dup2\n        /* \"saf.sol\":5380:5398  to != address(0x0) */\n      0xffffffffffffffffffffffffffffffffffffffff\n      and\n      eq\n      iszero\n        /* \"saf.sol\":5372:5399  require(to != address(0x0)) */\n      tag_340\n      jumpi\n      0x00\n      dup1\n      revert\n    tag_340:\n        /* \"saf.sol\":9700:9736  _transferFrom(msg.sender, to, value) */\n      tag_342\n        /* \"saf.sol\":9714:9724  msg.sender */\n      caller\n        /* \"saf.sol\":9726:9728  to */\n      dup6\n        /* \"saf.sol\":9730:9735  value */\n      dup6\n        /* \"saf.sol\":9700:9713  _transferFrom */\n      tag_288\n        /* \"saf.sol\":9700:9736  _transferFrom(msg.sender, to, value) */\n      jump\t// in\n    tag_342:\n      pop\n        /* \"saf.sol\":9754:9758  true */\n      0x01\n        /* \"saf.sol\":9747:9758  return true */\n      swap2\n      pop\n        /* \"saf.sol\":9551:9766  function transfer(address to, uint256 value)\r... */\n      pop\n      swap3\n      swap2\n      pop\n      pop\n      jump\t// out\n        /* \"saf.sol\":6780:6803  bool public _autoRebase */\n    tag_221:\n      0x15\n      dup1\n      sload\n      swap1\n      0x0100\n      exp\n      swap1\n      div\n      0xff\n      and\n      dup2\n      jump\t// out\n        /* \"saf.sol\":5206:5237  string public _symbol = \"SAFUU\" */\n    tag_224:\n      0x04\n      dup1\n      sload\n      0x01\n      dup2\n      0x01\n      and\n      iszero\n      0x0100\n      mul\n      sub\n      and\n      0x02\n      swap1\n      div\n      dup1\n      0x1f\n      add\n      0x20\n      dup1\n      swap2\n      div\n      mul\n      0x20\n      add\n      mload(0x40)\n      swap1\n      dup2\n      add\n      0x40\n      mstore\n      dup1\n      swap3\n      swap2\n      swap1\n      dup2\n      dup2\n      mstore\n      0x20\n      add\n      dup3\n      dup1\n      sload\n      0x01\n      dup2\n      0x01\n      and\n      iszero\n      0x0100\n      mul\n      sub\n      and\n      0x02\n      swap1\n      div\n      dup1\n      iszero\n      tag_343\n      jumpi\n      dup1\n      0x1f\n      lt\n      tag_344\n      jumpi\n      0x0100\n      dup1\n      dup4\n      sload\n      div\n      mul\n      dup4\n      mstore\n      swap2\n      0x20\n      add\n      swap2\n      jump(tag_343)\n    tag_344:\n      dup3\n      add\n      swap2\n      swap1\n      0x00\n      mstore\n      keccak256(0x00, 0x20)\n      swap1\n    tag_345:\n      dup2\n      sload\n      dup2\n      mstore\n      swap1\n      0x01\n      add\n      swap1\n      0x20\n      add\n      dup1\n      dup4\n      gt\n      tag_345\n      jumpi\n      dup3\n      swap1\n      sub\n      0x1f\n      and\n      dup3\n      add\n      swap2\n    tag_343:\n      pop\n      pop\n      pop\n      pop\n      pop\n      dup2\n      jump\t// out\n        /* \"saf.sol\":13722:14054  function withdrawAllToTreasury() external swapping onlyOwner {\r... */\n    tag_231:\n        /* \"saf.sol\":6540:6544  true */\n      0x01\n        /* \"saf.sol\":6531:6537  inSwap */\n      0x15\n      0x14\n        /* \"saf.sol\":6531:6544  inSwap = true */\n      0x0100\n      exp\n      dup2\n      sload\n      dup2\n      0xff\n      mul\n      not\n      and\n      swap1\n      dup4\n      iszero\n      iszero\n      mul\n      or\n      swap1\n      sstore\n      pop\n        /* \"saf.sol\":3779:3788  isOwner() */\n      tag_348\n        /* \"saf.sol\":3779:3786  isOwner */\n      tag_181\n        /* \"saf.sol\":3779:3788  isOwner() */\n      jump\t// in\n    tag_348:\n        /* \"saf.sol\":3771:3789  require(isOwner()) */\n      tag_349\n      jumpi\n      0x00\n      dup1\n      revert\n    tag_349:\n        /* \"saf.sol\":13796:13816  uint256 amountToSwap */\n      0x00\n        /* \"saf.sol\":13819:13868  _gonBalances[address(this)].div(_gonsPerFragment) */\n      tag_351\n        /* \"saf.sol\":13851:13867  _gonsPerFragment */\n      sload(0x1a)\n        /* \"saf.sol\":13819:13831  _gonBalances */\n      0x1b\n        /* \"saf.sol\":13819:13846  _gonBalances[address(this)] */\n      0x00\n        /* \"saf.sol\":13840:13844  this */\n      address\n        /* \"saf.sol\":13819:13846  _gonBalances[address(this)] */\n      0xffffffffffffffffffffffffffffffffffffffff\n      and\n      0xffffffffffffffffffffffffffffffffffffffff\n      and\n      dup2\n      mstore\n      0x20\n      add\n      swap1\n      dup2\n      mstore\n      0x20\n      add\n      0x00\n      keccak256\n      sload\n        /* \"saf.sol\":13819:13850  _gonBalances[address(this)].div */\n      tag_274\n      swap1\n        /* \"saf.sol\":13819:13868  _gonBalances[address(this)].div(_gonsPerFragment) */\n      swap2\n      swap1\n      0xffffffff\n      and\n      jump\t// in\n    tag_351:\n        /* \"saf.sol\":13796:13868  uint256 amountToSwap = _gonBalances[address(this)].div(_gonsPerFragment) */\n      swap1\n      pop\n        /* \"saf.sol\":13903:13904  0 */\n      0x00\n        /* \"saf.sol\":13888:13900  amountToSwap */\n      dup2\n        /* \"saf.sol\":13888:13904  amountToSwap > 0 */\n      gt\n        /* \"saf.sol\":13879:13959  require( amountToSwap > 0,\"There is no Safuu token deposited in token contract\") */\n      tag_352\n      jumpi\n      mload(0x40)\n      0x08c379a000000000000000000000000000000000000000000000000000000000\n      dup2\n      mstore\n      0x04\n      add\n      dup1\n      dup1\n      0x20\n      add\n      dup3\n      dup2\n      sub\n      dup3\n      mstore\n      0x33\n      dup2\n      mstore\n      0x20\n      add\n      dup1\n      data_02b80227d7ee5be30ffaddd176f79d825f278320e9e030ccf3d6dcded5203c3c\n      0x33\n      swap2\n      codecopy\n      0x40\n      add\n      swap2\n      pop\n      pop\n      mload(0x40)\n      dup1\n      swap2\n      sub\n      swap1\n      revert\n    tag_352:\n        /* \"saf.sol\":13970:13991  address[] memory path */\n      0x60\n        /* \"saf.sol\":14008:14009  2 */\n      0x02\n        /* \"saf.sol\":13994:14010  new address[](2) */\n      0xffffffffffffffff\n      dup2\n      gt\n      dup1\n      iszero\n      tag_353\n      jumpi\n      0x00\n      dup1\n      revert\n    tag_353:\n      pop\n      mload(0x40)\n      swap1\n      dup1\n      dup3\n      mstore\n      dup1\n      0x20\n      mul\n      0x20\n      add\n      dup3\n      add\n      0x40\n      mstore\n      dup1\n      iszero\n      tag_354\n      jumpi\n      dup2\n      0x20\n      add\n      0x20\n      dup3\n      mul\n      dup1\n      calldatasize\n      dup4\n      calldatacopy\n      dup1\n      dup3\n      add\n      swap2\n      pop\n      pop\n      swap1\n      pop\n    tag_354:\n      pop\n        /* \"saf.sol\":13970:14010  address[] memory path = new address[](2) */\n      swap1\n      pop\n        /* \"saf.sol\":14039:14043  this */\n      address\n        /* \"saf.sol\":14021:14025  path */\n      dup2\n        /* \"saf.sol\":14026:14027  0 */\n      0x00\n        /* \"saf.sol\":14021:14028  path[0] */\n      dup2\n      mload\n      dup2\n      lt\n      tag_355\n      jumpi\n      invalid\n    tag_355:\n      0x20\n      mul\n      0x20\n      add\n      add\n        /* \"saf.sol\":14021:14044  path[0] = address(this) */\n      swap1\n      0xffffffffffffffffffffffffffffffffffffffff\n      and\n      swap1\n      dup2\n      0xffffffffffffffffffffffffffffffffffffffff\n      and\n      dup2\n      mstore\n      pop\n      pop\n        /* \"saf.sol\":3800:3801  _ */\n      pop\n      pop\n        /* \"saf.sol\":6576:6581  false */\n      0x00\n        /* \"saf.sol\":6567:6573  inSwap */\n      0x15\n      0x14\n        /* \"saf.sol\":6567:6581  inSwap = false */\n      0x0100\n      exp\n      dup2\n      sload\n      dup2\n      0xff\n      mul\n      not\n      and\n      swap1\n      dup4\n      iszero\n      iszero\n      mul\n      or\n      swap1\n      sstore\n      pop\n        /* \"saf.sol\":13722:14054  function withdrawAllToTreasury() external swapping onlyOwner {\r... */\n      jump\t// out\n        /* \"saf.sol\":6179:6215  address public autoLiquidityReceiver */\n    tag_234:\n      0x10\n      0x00\n      swap1\n      sload\n      swap1\n      0x0100\n      exp\n      swap1\n      div\n      0xffffffffffffffffffffffffffffffffffffffff\n      and\n      dup2\n      jump\t// out\n        /* \"saf.sol\":5709:5740  uint256 public treasuryFee = 25 */\n    tag_237:\n      sload(0x08)\n      dup2\n      jump\t// out\n        /* \"saf.sol\":15204:15456  function setAutoAddLiquidity(bool _flag) external onlyOwner {\r... */\n    tag_241:\n        /* \"saf.sol\":3779:3788  isOwner() */\n      tag_357\n        /* \"saf.sol\":3779:3786  isOwner */\n      tag_181\n        /* \"saf.sol\":3779:3788  isOwner() */\n      jump\t// in\n    tag_357:\n        /* \"saf.sol\":3771:3789  require(isOwner()) */\n      tag_358\n      jumpi\n      0x00\n      dup1\n      revert\n    tag_358:\n        /* \"saf.sol\":15278:15283  _flag */\n      dup1\n        /* \"saf.sol\":15275:15449  if(_flag) {\r... */\n      iszero\n      tag_360\n      jumpi\n        /* \"saf.sol\":15320:15325  _flag */\n      dup1\n        /* \"saf.sol\":15300:15317  _autoAddLiquidity */\n      0x15\n      0x16\n        /* \"saf.sol\":15300:15325  _autoAddLiquidity = _flag */\n      0x0100\n      exp\n      dup2\n      sload\n      dup2\n      0xff\n      mul\n      not\n      and\n      swap1\n      dup4\n      iszero\n      iszero\n      mul\n      or\n      swap1\n      sstore\n      pop\n        /* \"saf.sol\":15364:15379  block.timestamp */\n      timestamp\n        /* \"saf.sol\":15340:15361  _lastAddLiquidityTime */\n      0x18\n        /* \"saf.sol\":15340:15379  _lastAddLiquidityTime = block.timestamp */\n      dup2\n      swap1\n      sstore\n      pop\n        /* \"saf.sol\":15275:15449  if(_flag) {\r... */\n      jump(tag_361)\n    tag_360:\n        /* \"saf.sol\":15432:15437  _flag */\n      dup1\n        /* \"saf.sol\":15412:15429  _autoAddLiquidity */\n      0x15\n      0x16\n        /* \"saf.sol\":15412:15437  _autoAddLiquidity = _flag */\n      0x0100\n      exp\n      dup2\n      sload\n      dup2\n      0xff\n      mul\n      not\n      and\n      swap1\n      dup4\n      iszero\n      iszero\n      mul\n      or\n      swap1\n      sstore\n      pop\n        /* \"saf.sol\":15275:15449  if(_flag) {\r... */\n    tag_361:\n        /* \"saf.sol\":15204:15456  function setAutoAddLiquidity(bool _flag) external onlyOwner {\r... */\n      pop\n      jump\t// out\n        /* \"saf.sol\":5170:5199  string public _name = \"Safuu\" */\n    tag_244:\n      0x03\n      dup1\n      sload\n      0x01\n      dup2\n      0x01\n      and\n      iszero\n      0x0100\n      mul\n      sub\n      and\n      0x02\n      swap1\n      div\n      dup1\n      0x1f\n      add\n      0x20\n      dup1\n      swap2\n      div\n      mul\n      0x20\n      add\n      mload(0x40)\n      swap1\n      dup2\n      add\n      0x40\n      mstore\n      dup1\n      swap3\n      swap2\n      swap1\n      dup2\n      dup2\n      mstore\n      0x20\n      add\n      dup3\n      dup1\n      sload\n      0x01\n      dup2\n      0x01\n      and\n      iszero\n      0x0100\n      mul\n      sub\n      and\n      0x02\n      swap1\n      div\n      dup1\n      iszero\n      tag_362\n      jumpi\n      dup1\n      0x1f\n      lt\n      tag_363\n      jumpi\n      0x0100\n      dup1\n      dup4\n      sload\n      div\n      mul\n      dup4\n      mstore\n      swap2\n      0x20\n      add\n      swap2\n      jump(tag_362)\n    tag_363:\n      dup3\n      add\n      swap2\n      swap1\n      0x00\n      mstore\n      keccak256(0x00, 0x20)\n      swap1\n    tag_364:\n      dup2\n      sload\n      dup2\n      mstore\n      swap1\n      0x01\n      add\n      swap1\n      0x20\n      add\n      dup1\n      dup4\n      gt\n      tag_364\n      jumpi\n      dup3\n      swap1\n      sub\n      0x1f\n      and\n      dup3\n      add\n      swap2\n    tag_362:\n      pop\n      pop\n      pop\n      pop\n      pop\n      dup2\n      jump\t// out\n        /* \"saf.sol\":16945:17058  function checkFeeExempt(address _addr) external view returns (bool) {\r... */\n    tag_252:\n        /* \"saf.sol\":17007:17011  bool */\n      0x00\n        /* \"saf.sol\":17031:17043  _isFeeExempt */\n      0x06\n        /* \"saf.sol\":17031:17050  _isFeeExempt[_addr] */\n      0x00\n        /* \"saf.sol\":17044:17049  _addr */\n      dup4\n        /* \"saf.sol\":17031:17050  _isFeeExempt[_addr] */\n      0xffffffffffffffffffffffffffffffffffffffff\n      and\n      0xffffffffffffffffffffffffffffffffffffffff\n      and\n      dup2\n      mstore\n      0x20\n      add\n      swap1\n      dup2\n      mstore\n      0x20\n      add\n      0x00\n      keccak256\n      0x00\n      swap1\n      sload\n      swap1\n      0x0100\n      exp\n      swap1\n      div\n      0xff\n      and\n        /* \"saf.sol\":17024:17050  return _isFeeExempt[_addr] */\n      swap1\n      pop\n        /* \"saf.sol\":16945:17058  function checkFeeExempt(address _addr) external view returns (bool) {\r... */\n      swap2\n      swap1\n      pop\n      jump\t// out\n        /* \"saf.sol\":17888:18179  function getLiquidityBacking(uint256 accuracy)\r... */\n    tag_256:\n        /* \"saf.sol\":17983:17990  uint256 */\n      0x00\n        /* \"saf.sol\":18008:18032  uint256 liquidityBalance */\n      dup1\n        /* \"saf.sol\":18035:18075  _gonBalances[pair].div(_gonsPerFragment) */\n      tag_367\n        /* \"saf.sol\":18058:18074  _gonsPerFragment */\n      sload(0x1a)\n        /* \"saf.sol\":18035:18047  _gonBalances */\n      0x1b\n        /* \"saf.sol\":18035:18053  _gonBalances[pair] */\n      0x00\n        /* \"saf.sol\":18048:18052  pair */\n      0x15\n      0x00\n      swap1\n      sload\n      swap1\n      0x0100\n      exp\n      swap1\n      div\n      0xffffffffffffffffffffffffffffffffffffffff\n      and\n        /* \"saf.sol\":18035:18053  _gonBalances[pair] */\n      0xffffffffffffffffffffffffffffffffffffffff\n      and\n      0xffffffffffffffffffffffffffffffffffffffff\n      and\n      dup2\n      mstore\n      0x20\n      add\n      swap1\n      dup2\n      mstore\n      0x20\n      add\n      0x00\n      keccak256\n      sload\n        /* \"saf.sol\":18035:18057  _gonBalances[pair].div */\n      tag_274\n      swap1\n        /* \"saf.sol\":18035:18075  _gonBalances[pair].div(_gonsPerFragment) */\n      swap2\n      swap1\n      0xffffffff\n      and\n      jump\t// in\n    tag_367:\n        /* \"saf.sol\":18008:18075  uint256 liquidityBalance = _gonBalances[pair].div(_gonsPerFragment) */\n      swap1\n      pop\n        /* \"saf.sol\":18106:18171  accuracy.mul(liquidityBalance.mul(2)).div(getCirculatingSupply()) */\n      tag_368\n        /* \"saf.sol\":18148:18170  getCirculatingSupply() */\n      tag_369\n        /* \"saf.sol\":18148:18168  getCirculatingSupply */\n      tag_103\n        /* \"saf.sol\":18148:18170  getCirculatingSupply() */\n      jump\t// in\n    tag_369:\n        /* \"saf.sol\":18106:18143  accuracy.mul(liquidityBalance.mul(2)) */\n      tag_370\n        /* \"saf.sol\":18119:18142  liquidityBalance.mul(2) */\n      tag_371\n        /* \"saf.sol\":18140:18141  2 */\n      0x02\n        /* \"saf.sol\":18119:18135  liquidityBalance */\n      dup6\n        /* \"saf.sol\":18119:18139  liquidityBalance.mul */\n      tag_372\n      swap1\n        /* \"saf.sol\":18119:18142  liquidityBalance.mul(2) */\n      swap2\n      swap1\n      0xffffffff\n      and\n      jump\t// in\n    tag_371:\n        /* \"saf.sol\":18106:18114  accuracy */\n      dup7\n        /* \"saf.sol\":18106:18118  accuracy.mul */\n      tag_372\n      swap1\n        /* \"saf.sol\":18106:18143  accuracy.mul(liquidityBalance.mul(2)) */\n      swap2\n      swap1\n      0xffffffff\n      and\n      jump\t// in\n    tag_370:\n        /* \"saf.sol\":18106:18147  accuracy.mul(liquidityBalance.mul(2)).div */\n      tag_274\n      swap1\n        /* \"saf.sol\":18106:18171  accuracy.mul(liquidityBalance.mul(2)).div(getCirculatingSupply()) */\n      swap2\n      swap1\n      0xffffffff\n      and\n      jump\t// in\n    tag_368:\n        /* \"saf.sol\":18086:18171  return\r... */\n      swap2\n      pop\n      pop\n        /* \"saf.sol\":17888:18179  function getLiquidityBacking(uint256 accuracy)\r... */\n      swap2\n      swap1\n      pop\n      jump\t// out\n        /* \"saf.sol\":15464:15658  function allowance(address owner_, address spender)\r... */\n    tag_260:\n        /* \"saf.sol\":15584:15591  uint256 */\n      0x00\n        /* \"saf.sol\":15616:15633  _allowedFragments */\n      0x1c\n        /* \"saf.sol\":15616:15641  _allowedFragments[owner_] */\n      0x00\n        /* \"saf.sol\":15634:15640  owner_ */\n      dup5\n        /* \"saf.sol\":15616:15641  _allowedFragments[owner_] */\n      0xffffffffffffffffffffffffffffffffffffffff\n      and\n      0xffffffffffffffffffffffffffffffffffffffff\n      and\n      dup2\n      mstore\n      0x20\n      add\n      swap1\n      dup2\n      mstore\n      0x20\n      add\n      0x00\n      keccak256\n        /* \"saf.sol\":15616:15650  _allowedFragments[owner_][spender] */\n      0x00\n        /* \"saf.sol\":15642:15649  spender */\n      dup4\n        /* \"saf.sol\":15616:15650  _allowedFragments[owner_][spender] */\n      0xffffffffffffffffffffffffffffffffffffffff\n      and\n      0xffffffffffffffffffffffffffffffffffffffff\n      and\n      dup2\n      mstore\n      0x20\n      add\n      swap1\n      dup2\n      mstore\n      0x20\n      add\n      0x00\n      keccak256\n      sload\n        /* \"saf.sol\":15609:15650  return _allowedFragments[owner_][spender] */\n      swap1\n      pop\n        /* \"saf.sol\":15464:15658  function allowance(address owner_, address spender)\r... */\n      swap3\n      swap2\n      pop\n      pop\n      jump\t// out\n        /* \"saf.sol\":14966:15196  function setAutoRebase(bool _flag) external onlyOwner {\r... */\n    tag_264:\n        /* \"saf.sol\":3779:3788  isOwner() */\n      tag_375\n        /* \"saf.sol\":3779:3786  isOwner */\n      tag_181\n        /* \"saf.sol\":3779:3788  isOwner() */\n      jump\t// in\n    tag_375:\n        /* \"saf.sol\":3771:3789  require(isOwner()) */\n      tag_376\n      jumpi\n      0x00\n      dup1\n      revert\n    tag_376:\n        /* \"saf.sol\":15035:15040  _flag */\n      dup1\n        /* \"saf.sol\":15031:15189  if (_flag) {\r... */\n      iszero\n      tag_378\n      jumpi\n        /* \"saf.sol\":15071:15076  _flag */\n      dup1\n        /* \"saf.sol\":15057:15068  _autoRebase */\n      0x15\n      dup1\n        /* \"saf.sol\":15057:15076  _autoRebase = _flag */\n      0x0100\n      exp\n      dup2\n      sload\n      dup2\n      0xff\n      mul\n      not\n      and\n      swap1\n      dup4\n      iszero\n      iszero\n      mul\n      or\n      swap1\n      sstore\n      pop\n        /* \"saf.sol\":15110:15125  block.timestamp */\n      timestamp\n        /* \"saf.sol\":15091:15107  _lastRebasedTime */\n      0x17\n        /* \"saf.sol\":15091:15125  _lastRebasedTime = block.timestamp */\n      dup2\n      swap1\n      sstore\n      pop\n        /* \"saf.sol\":15031:15189  if (_flag) {\r... */\n      jump(tag_379)\n    tag_378:\n        /* \"saf.sol\":15172:15177  _flag */\n      dup1\n        /* \"saf.sol\":15158:15169  _autoRebase */\n      0x15\n      dup1\n        /* \"saf.sol\":15158:15177  _autoRebase = _flag */\n      0x0100\n      exp\n      dup2\n      sload\n      dup2\n      0xff\n      mul\n      not\n      and\n      swap1\n      dup4\n      iszero\n      iszero\n      mul\n      or\n      swap1\n      sstore\n      pop\n        /* \"saf.sol\":15031:15189  if (_flag) {\r... */\n    tag_379:\n        /* \"saf.sol\":14966:15196  function setAutoRebase(bool _flag) external onlyOwner {\r... */\n      pop\n      jump\t// out\n        /* \"saf.sol\":4051:4160  function transferOwnership(address newOwner) public onlyOwner {\r... */\n    tag_268:\n        /* \"saf.sol\":3779:3788  isOwner() */\n      tag_381\n        /* \"saf.sol\":3779:3786  isOwner */\n      tag_181\n        /* \"saf.sol\":3779:3788  isOwner() */\n      jump\t// in\n    tag_381:\n        /* \"saf.sol\":3771:3789  require(isOwner()) */\n      tag_382\n      jumpi\n      0x00\n      dup1\n      revert\n    tag_382:\n        /* \"saf.sol\":4124:4152  _transferOwnership(newOwner) */\n      tag_384\n        /* \"saf.sol\":4143:4151  newOwner */\n      dup2\n        /* \"saf.sol\":4124:4142  _transferOwnership */\n      tag_385\n        /* \"saf.sol\":4124:4152  _transferOwnership(newOwner) */\n      jump\t// in\n    tag_384:\n        /* \"saf.sol\":4051:4160  function transferOwnership(address newOwner) public onlyOwner {\r... */\n      pop\n      jump\t// out\n        /* \"saf.sol\":7179:7220  mapping(address => bool) public blacklist */\n    tag_272:\n      mstore(0x20, 0x1d)\n      dup1\n      0x00\n      mstore\n      keccak256(0x00, 0x40)\n      0x00\n      swap2\n      pop\n      sload\n      swap1\n      0x0100\n      exp\n      swap1\n      div\n      0xff\n      and\n      dup2\n      jump\t// out\n        /* \"saf.sol\":1260:1441  function add(uint256 a, uint256 b) internal pure returns (uint256) {\r... */\n    tag_273:\n        /* \"saf.sol\":1318:1325  uint256 */\n      0x00\n        /* \"saf.sol\":1338:1347  uint256 c */\n      dup1\n        /* \"saf.sol\":1354:1355  b */\n      dup3\n        /* \"saf.sol\":1350:1351  a */\n      dup5\n        /* \"saf.sol\":1350:1355  a + b */\n      add\n        /* \"saf.sol\":1338:1355  uint256 c = a + b */\n      swap1\n      pop\n        /* \"saf.sol\":1379:1380  a */\n      dup4\n        /* \"saf.sol\":1374:1375  c */\n      dup2\n        /* \"saf.sol\":1374:1380  c >= a */\n      lt\n      iszero\n        /* \"saf.sol\":1366:1412  require(c >= a, \"SafeMath: addition overflow\") */\n      tag_387\n      jumpi\n      mload(0x40)\n      0x08c379a000000000000000000000000000000000000000000000000000000000\n      dup2\n      mstore\n      0x04\n      add\n      dup1\n      dup1\n      0x20\n      add\n      dup3\n      dup2\n      sub\n      dup3\n      mstore\n      0x1b\n      dup2\n      mstore\n      0x20\n      add\n      dup1\n      0x536166654d6174683a206164646974696f6e206f766572666c6f770000000000\n      dup2\n      mstore\n      pop\n      0x20\n      add\n      swap2\n      pop\n      pop\n      mload(0x40)\n      dup1\n      swap2\n      sub\n      swap1\n      revert\n    tag_387:\n        /* \"saf.sol\":1432:1433  c */\n      dup1\n        /* \"saf.sol\":1425:1433  return c */\n      swap2\n      pop\n      pop\n        /* \"saf.sol\":1260:1441  function add(uint256 a, uint256 b) internal pure returns (uint256) {\r... */\n      swap3\n      swap2\n      pop\n      pop\n      jump\t// out\n        /* \"saf.sol\":2085:2217  function div(uint256 a, uint256 b) internal pure returns (uint256) {\r... */\n    tag_274:\n        /* \"saf.sol\":2143:2150  uint256 */\n      0x00\n        /* \"saf.sol\":2170:2209  div(a, b, \"SafeMath: division by zero\") */\n      tag_389\n        /* \"saf.sol\":2174:2175  a */\n      dup4\n        /* \"saf.sol\":2177:2178  b */\n      dup4\n        /* \"saf.sol\":2170:2209  div(a, b, \"SafeMath: division by zero\") */\n      mload(0x40)\n      dup1\n      0x40\n      add\n      0x40\n      mstore\n      dup1\n      0x1a\n      dup2\n      mstore\n      0x20\n      add\n      0x536166654d6174683a206469766973696f6e206279207a65726f000000000000\n      dup2\n      mstore\n      pop\n        /* \"saf.sol\":2170:2173  div */\n      tag_390\n        /* \"saf.sol\":2170:2209  div(a, b, \"SafeMath: division by zero\") */\n      jump\t// in\n    tag_389:\n        /* \"saf.sol\":2163:2209  return div(a, b, \"SafeMath: division by zero\") */\n      swap1\n      pop\n        /* \"saf.sol\":2085:2217  function div(uint256 a, uint256 b) internal pure returns (uint256) {\r... */\n      swap3\n      swap2\n      pop\n      pop\n      jump\t// out\n        /* \"saf.sol\":1593:1819  function sub(\r... */\n    tag_286:\n        /* \"saf.sol\":1713:1720  uint256 */\n      0x00\n        /* \"saf.sol\":1746:1747  a */\n      dup4\n        /* \"saf.sol\":1741:1742  b */\n      dup4\n        /* \"saf.sol\":1741:1747  b <= a */\n      gt\n      iszero\n        /* \"saf.sol\":1749:1761  errorMessage */\n      dup3\n        /* \"saf.sol\":1733:1762  require(b <= a, errorMessage) */\n      swap1\n      tag_392\n      jumpi\n      mload(0x40)\n      0x08c379a000000000000000000000000000000000000000000000000000000000\n      dup2\n      mstore\n      0x04\n      add\n      dup1\n      dup1\n      0x20\n      add\n      dup3\n      dup2\n      sub\n      dup3\n      mstore\n      dup4\n      dup2\n      dup2\n      mload\n      dup2\n      mstore\n      0x20\n      add\n      swap2\n      pop\n      dup1\n      mload\n      swap1\n      0x20\n      add\n      swap1\n      dup1\n      dup4\n      dup4\n      0x00\n    tag_393:\n      dup4\n      dup2\n      lt\n      iszero\n      tag_395\n      jumpi\n      dup1\n      dup3\n      add\n      mload\n      dup2\n      dup5\n      add\n      mstore\n      0x20\n      dup2\n      add\n      swap1\n      pop\n      jump(tag_393)\n    tag_395:\n      pop\n      pop\n      pop\n      pop\n      swap1\n      pop\n      swap1\n      dup2\n      add\n      swap1\n      0x1f\n      and\n      dup1\n      iszero\n      tag_396\n      jumpi\n      dup1\n      dup3\n      sub\n      dup1\n      mload\n      0x01\n      dup4\n      0x20\n      sub\n      0x0100\n      exp\n      sub\n      not\n      and\n      dup2\n      mstore\n      0x20\n      add\n      swap2\n      pop\n    tag_396:\n      pop\n      swap3\n      pop\n      pop\n      pop\n      mload(0x40)\n      dup1\n      swap2\n      sub\n      swap1\n      revert\n    tag_392:\n      pop\n        /* \"saf.sol\":1773:1782  uint256 c */\n      0x00\n        /* \"saf.sol\":1789:1790  b */\n      dup4\n        /* \"saf.sol\":1785:1786  a */\n      dup6\n        /* \"saf.sol\":1785:1790  a - b */\n      sub\n        /* \"saf.sol\":1773:1790  uint256 c = a - b */\n      swap1\n      pop\n        /* \"saf.sol\":1810:1811  c */\n      dup1\n        /* \"saf.sol\":1803:1811  return c */\n      swap2\n      pop\n      pop\n        /* \"saf.sol\":1593:1819  function sub(\r... */\n      swap4\n      swap3\n      pop\n      pop\n      pop\n      jump\t// out\n        /* \"saf.sol\":10594:11676  function _transferFrom(\r... */\n    tag_288:\n        /* \"saf.sol\":10720:10724  bool */\n      0x00\n        /* \"saf.sol\":10748:10757  blacklist */\n      0x1d\n        /* \"saf.sol\":10748:10765  blacklist[sender] */\n      0x00\n        /* \"saf.sol\":10758:10764  sender */\n      dup6\n        /* \"saf.sol\":10748:10765  blacklist[sender] */\n      0xffffffffffffffffffffffffffffffffffffffff\n      and\n      0xffffffffffffffffffffffffffffffffffffffff\n      and\n      dup2\n      mstore\n      0x20\n      add\n      swap1\n      dup2\n      mstore\n      0x20\n      add\n      0x00\n      keccak256\n      0x00\n      swap1\n      sload\n      swap1\n      0x0100\n      exp\n      swap1\n      div\n      0xff\n      and\n        /* \"saf.sol\":10747:10765  !blacklist[sender] */\n      iszero\n        /* \"saf.sol\":10747:10790  !blacklist[sender] && !blacklist[recipient] */\n      dup1\n      iszero\n      tag_398\n      jumpi\n      pop\n        /* \"saf.sol\":10770:10779  blacklist */\n      0x1d\n        /* \"saf.sol\":10770:10790  blacklist[recipient] */\n      0x00\n        /* \"saf.sol\":10780:10789  recipient */\n      dup5\n        /* \"saf.sol\":10770:10790  blacklist[recipient] */\n      0xffffffffffffffffffffffffffffffffffffffff\n      and\n      0xffffffffffffffffffffffffffffffffffffffff\n      and\n      dup2\n      mstore\n      0x20\n      add\n      swap1\n      dup2\n      mstore\n      0x20\n      add\n      0x00\n      keccak256\n      0x00\n      swap1\n      sload\n      swap1\n      0x0100\n      exp\n      swap1\n      div\n      0xff\n      and\n        /* \"saf.sol\":10769:10790  !blacklist[recipient] */\n      iszero\n        /* \"saf.sol\":10747:10790  !blacklist[sender] && !blacklist[recipient] */\n    tag_398:\n        /* \"saf.sol\":10739:10807  require(!blacklist[sender] && !blacklist[recipient], \"in_blacklist\") */\n      tag_399\n      jumpi\n      mload(0x40)\n      0x08c379a000000000000000000000000000000000000000000000000000000000\n      dup2\n      mstore\n      0x04\n      add\n      dup1\n      dup1\n      0x20\n      add\n      dup3\n      dup2\n      sub\n      dup3\n      mstore\n      0x0c\n      dup2\n      mstore\n      0x20\n      add\n      dup1\n      0x696e5f626c61636b6c6973740000000000000000000000000000000000000000\n      dup2\n      mstore\n      pop\n      0x20\n      add\n      swap2\n      pop\n      pop\n      mload(0x40)\n      dup1\n      swap2\n      sub\n      swap1\n      revert\n    tag_399:\n        /* \"saf.sol\":10824:10830  inSwap */\n      0x15\n      0x14\n      swap1\n      sload\n      swap1\n      0x0100\n      exp\n      swap1\n      div\n      0xff\n      and\n        /* \"saf.sol\":10820:10907  if (inSwap) {\r... */\n      iszero\n      tag_400\n      jumpi\n        /* \"saf.sol\":10854:10895  _basicTransfer(sender, recipient, amount) */\n      tag_401\n        /* \"saf.sol\":10869:10875  sender */\n      dup5\n        /* \"saf.sol\":10877:10886  recipient */\n      dup5\n        /* \"saf.sol\":10888:10894  amount */\n      dup5\n        /* \"saf.sol\":10854:10868  _basicTransfer */\n      tag_402\n        /* \"saf.sol\":10854:10895  _basicTransfer(sender, recipient, amount) */\n      jump\t// in\n    tag_401:\n        /* \"saf.sol\":10847:10895  return _basicTransfer(sender, recipient, amount) */\n      swap1\n      pop\n      jump(tag_397)\n        /* \"saf.sol\":10820:10907  if (inSwap) {\r... */\n    tag_400:\n        /* \"saf.sol\":10921:10935  shouldRebase() */\n      tag_403\n        /* \"saf.sol\":10921:10933  shouldRebase */\n      tag_404\n        /* \"saf.sol\":10921:10935  shouldRebase() */\n      jump\t// in\n    tag_403:\n        /* \"saf.sol\":10917:10971  if (shouldRebase()) {\r... */\n      iszero\n      tag_405\n      jumpi\n        /* \"saf.sol\":10951:10959  rebase() */\n      tag_406\n        /* \"saf.sol\":10951:10957  rebase */\n      tag_407\n        /* \"saf.sol\":10951:10959  rebase() */\n      jump\t// in\n    tag_406:\n        /* \"saf.sol\":10917:10971  if (shouldRebase()) {\r... */\n    tag_405:\n        /* \"saf.sol\":10987:11007  shouldAddLiquidity() */\n      tag_408\n        /* \"saf.sol\":10987:11005  shouldAddLiquidity */\n      tag_409\n        /* \"saf.sol\":10987:11007  shouldAddLiquidity() */\n      jump\t// in\n    tag_408:\n        /* \"saf.sol\":10983:11052  if (shouldAddLiquidity()) {\r... */\n      pop\n        /* \"saf.sol\":11068:11084  shouldSwapBack() */\n      tag_411\n        /* \"saf.sol\":11068:11082  shouldSwapBack */\n      tag_412\n        /* \"saf.sol\":11068:11084  shouldSwapBack() */\n      jump\t// in\n    tag_411:\n        /* \"saf.sol\":11064:11123  if (shouldSwapBack()) {\r... */\n      iszero\n      tag_413\n      jumpi\n        /* \"saf.sol\":11101:11111  swapBack() */\n      tag_414\n        /* \"saf.sol\":11101:11109  swapBack */\n      tag_415\n        /* \"saf.sol\":11101:11111  swapBack() */\n      jump\t// in\n    tag_414:\n        /* \"saf.sol\":11064:11123  if (shouldSwapBack()) {\r... */\n    tag_413:\n        /* \"saf.sol\":11135:11152  uint256 gonAmount */\n      0x00\n        /* \"saf.sol\":11155:11183  amount.mul(_gonsPerFragment) */\n      tag_416\n        /* \"saf.sol\":11166:11182  _gonsPerFragment */\n      sload(0x1a)\n        /* \"saf.sol\":11155:11161  amount */\n      dup5\n        /* \"saf.sol\":11155:11165  amount.mul */\n      tag_372\n      swap1\n        /* \"saf.sol\":11155:11183  amount.mul(_gonsPerFragment) */\n      swap2\n      swap1\n      0xffffffff\n      and\n      jump\t// in\n    tag_416:\n        /* \"saf.sol\":11135:11183  uint256 gonAmount = amount.mul(_gonsPerFragment) */\n      swap1\n      pop\n        /* \"saf.sol\":11217:11252  _gonBalances[sender].sub(gonAmount) */\n      tag_417\n        /* \"saf.sol\":11242:11251  gonAmount */\n      dup2\n        /* \"saf.sol\":11217:11229  _gonBalances */\n      0x1b\n        /* \"saf.sol\":11217:11237  _gonBalances[sender] */\n      0x00\n        /* \"saf.sol\":11230:11236  sender */\n      dup9\n        /* \"saf.sol\":11217:11237  _gonBalances[sender] */\n      0xffffffffffffffffffffffffffffffffffffffff\n      and\n      0xffffffffffffffffffffffffffffffffffffffff\n      and\n      dup2\n      mstore\n      0x20\n      add\n      swap1\n      dup2\n      mstore\n      0x20\n      add\n      0x00\n      keccak256\n      sload\n        /* \"saf.sol\":11217:11241  _gonBalances[sender].sub */\n      tag_294\n      swap1\n        /* \"saf.sol\":11217:11252  _gonBalances[sender].sub(gonAmount) */\n      swap2\n      swap1\n      0xffffffff\n      and\n      jump\t// in\n    tag_417:\n        /* \"saf.sol\":11194:11206  _gonBalances */\n      0x1b\n        /* \"saf.sol\":11194:11214  _gonBalances[sender] */\n      0x00\n        /* \"saf.sol\":11207:11213  sender */\n      dup8\n        /* \"saf.sol\":11194:11214  _gonBalances[sender] */\n      0xffffffffffffffffffffffffffffffffffffffff\n      and\n      0xffffffffffffffffffffffffffffffffffffffff\n      and\n      dup2\n      mstore\n      0x20\n      add\n      swap1\n      dup2\n      mstore\n      0x20\n      add\n      0x00\n      keccak256\n        /* \"saf.sol\":11194:11252  _gonBalances[sender] = _gonBalances[sender].sub(gonAmount) */\n      dup2\n      swap1\n      sstore\n      pop\n        /* \"saf.sol\":11263:11288  uint256 gonAmountReceived */\n      0x00\n        /* \"saf.sol\":11291:11323  shouldTakeFee(sender, recipient) */\n      tag_418\n        /* \"saf.sol\":11305:11311  sender */\n      dup7\n        /* \"saf.sol\":11313:11322  recipient */\n      dup7\n        /* \"saf.sol\":11291:11304  shouldTakeFee */\n      tag_419\n        /* \"saf.sol\":11291:11323  shouldTakeFee(sender, recipient) */\n      jump\t// in\n    tag_418:\n        /* \"saf.sol\":11291:11401  shouldTakeFee(sender, recipient)\r... */\n      tag_420\n      jumpi\n        /* \"saf.sol\":11392:11401  gonAmount */\n      dup2\n        /* \"saf.sol\":11291:11401  shouldTakeFee(sender, recipient)\r... */\n      jump(tag_421)\n    tag_420:\n        /* \"saf.sol\":11339:11376  takeFee(sender, recipient, gonAmount) */\n      tag_422\n        /* \"saf.sol\":11347:11353  sender */\n      dup7\n        /* \"saf.sol\":11355:11364  recipient */\n      dup7\n        /* \"saf.sol\":11366:11375  gonAmount */\n      dup5\n        /* \"saf.sol\":11339:11346  takeFee */\n      tag_423\n        /* \"saf.sol\":11339:11376  takeFee(sender, recipient, gonAmount) */\n      jump\t// in\n    tag_422:\n        /* \"saf.sol\":11291:11401  shouldTakeFee(sender, recipient)\r... */\n    tag_421:\n        /* \"saf.sol\":11263:11401  uint256 gonAmountReceived = shouldTakeFee(sender, recipient)\r... */\n      swap1\n      pop\n        /* \"saf.sol\":11438:11508  _gonBalances[recipient].add(\r... */\n      tag_424\n        /* \"saf.sol\":11480:11497  gonAmountReceived */\n      dup2\n        /* \"saf.sol\":11438:11450  _gonBalances */\n      0x1b\n        /* \"saf.sol\":11438:11461  _gonBalances[recipient] */\n      0x00\n        /* \"saf.sol\":11451:11460  recipient */\n      dup9\n        /* \"saf.sol\":11438:11461  _gonBalances[recipient] */\n      0xffffffffffffffffffffffffffffffffffffffff\n      and\n      0xffffffffffffffffffffffffffffffffffffffff\n      and\n      dup2\n      mstore\n      0x20\n      add\n      swap1\n      dup2\n      mstore\n      0x20\n      add\n      0x00\n      keccak256\n      sload\n        /* \"saf.sol\":11438:11465  _gonBalances[recipient].add */\n      tag_273\n      swap1\n        /* \"saf.sol\":11438:11508  _gonBalances[recipient].add(\r... */\n      swap2\n      swap1\n      0xffffffff\n      and\n      jump\t// in\n    tag_424:\n        /* \"saf.sol\":11412:11424  _gonBalances */\n      0x1b\n        /* \"saf.sol\":11412:11435  _gonBalances[recipient] */\n      0x00\n        /* \"saf.sol\":11425:11434  recipient */\n      dup8\n        /* \"saf.sol\":11412:11435  _gonBalances[recipient] */\n      0xffffffffffffffffffffffffffffffffffffffff\n      and\n      0xffffffffffffffffffffffffffffffffffffffff\n      and\n      dup2\n      mstore\n      0x20\n      add\n      swap1\n      dup2\n      mstore\n      0x20\n      add\n      0x00\n      keccak256\n        /* \"saf.sol\":11412:11508  _gonBalances[recipient] = _gonBalances[recipient].add(\r... */\n      dup2\n      swap1\n      sstore\n      pop\n        /* \"saf.sol\":11572:11581  recipient */\n      dup5\n        /* \"saf.sol\":11528:11646  Transfer(\r... */\n      0xffffffffffffffffffffffffffffffffffffffff\n      and\n        /* \"saf.sol\":11551:11557  sender */\n      dup7\n        /* \"saf.sol\":11528:11646  Transfer(\r... */\n      0xffffffffffffffffffffffffffffffffffffffff\n      and\n      0xddf252ad1be2c89b69c2b068fc378daa952ba7f163c4a11628f55a4df523b3ef\n        /* \"saf.sol\":11596:11635  gonAmountReceived.div(_gonsPerFragment) */\n      tag_425\n        /* \"saf.sol\":11618:11634  _gonsPerFragment */\n      sload(0x1a)\n        /* \"saf.sol\":11596:11613  gonAmountReceived */\n      dup6\n        /* \"saf.sol\":11596:11617  gonAmountReceived.div */\n      tag_274\n      swap1\n        /* \"saf.sol\":11596:11635  gonAmountReceived.div(_gonsPerFragment) */\n      swap2\n      swap1\n      0xffffffff\n      and\n      jump\t// in\n    tag_425:\n        /* \"saf.sol\":11528:11646  Transfer(\r... */\n      mload(0x40)\n      dup1\n      dup3\n      dup2\n      mstore\n      0x20\n      add\n      swap2\n      pop\n      pop\n      mload(0x40)\n      dup1\n      swap2\n      sub\n      swap1\n      log3\n        /* \"saf.sol\":11664:11668  true */\n      0x01\n        /* \"saf.sol\":11657:11668  return true */\n      swap3\n      pop\n      pop\n      pop\n        /* \"saf.sol\":10594:11676  function _transferFrom(\r... */\n    tag_397:\n      swap4\n      swap3\n      pop\n      pop\n      pop\n      jump\t// out\n        /* \"saf.sol\":1449:1585  function sub(uint256 a, uint256 b) internal pure returns (uint256) {\r... */\n    tag_294:\n        /* \"saf.sol\":1507:1514  uint256 */\n      0x00\n        /* \"saf.sol\":1534:1577  sub(a, b, \"SafeMath: subtraction overflow\") */\n      tag_427\n        /* \"saf.sol\":1538:1539  a */\n      dup4\n        /* \"saf.sol\":1541:1542  b */\n      dup4\n        /* \"saf.sol\":1534:1577  sub(a, b, \"SafeMath: subtraction overflow\") */\n      mload(0x40)\n      dup1\n      0x40\n      add\n      0x40\n      mstore\n      dup1\n      0x1e\n      dup2\n      mstore\n      0x20\n      add\n      0x536166654d6174683a207375627472616374696f6e206f766572666c6f770000\n      dup2\n      mstore\n      pop\n        /* \"saf.sol\":1534:1537  sub */\n      tag_286\n        /* \"saf.sol\":1534:1577  sub(a, b, \"SafeMath: subtraction overflow\") */\n      jump\t// in\n    tag_427:\n        /* \"saf.sol\":1527:1577  return sub(a, b, \"SafeMath: subtraction overflow\") */\n      swap1\n      pop\n        /* \"saf.sol\":1449:1585  function sub(uint256 a, uint256 b) internal pure returns (uint256) {\r... */\n      swap3\n      swap2\n      pop\n      pop\n      jump\t// out\n        /* \"saf.sol\":19045:19210  function isContract(address addr) internal view returns (bool) {\r... */\n    tag_305:\n        /* \"saf.sol\":19102:19106  bool */\n      0x00\n        /* \"saf.sol\":19119:19128  uint size */\n      dup1\n        /* \"saf.sol\":19170:19174  addr */\n      dup3\n        /* \"saf.sol\":19158:19175  extcodesize(addr) */\n      extcodesize\n        /* \"saf.sol\":19150:19175  size := extcodesize(addr) */\n      swap1\n      pop\n        /* \"saf.sol\":19201:19202  0 */\n      0x00\n        /* \"saf.sol\":19194:19198  size */\n      dup2\n        /* \"saf.sol\":19194:19202  size > 0 */\n      gt\n        /* \"saf.sol\":19187:19202  return size > 0 */\n      swap2\n      pop\n      pop\n        /* \"saf.sol\":19045:19210  function isContract(address addr) internal view returns (bool) {\r... */\n      swap2\n      swap1\n      pop\n      jump\t// out\n        /* \"saf.sol\":1827:2077  function mul(uint256 a, uint256 b) internal pure returns (uint256) {\r... */\n    tag_372:\n        /* \"saf.sol\":1885:1892  uint256 */\n      0x00\n        /* \"saf.sol\":1914:1915  0 */\n      dup1\n        /* \"saf.sol\":1909:1910  a */\n      dup4\n        /* \"saf.sol\":1909:1915  a == 0 */\n      eq\n        /* \"saf.sol\":1905:1952  if (a == 0) {\r... */\n      iszero\n      tag_430\n      jumpi\n        /* \"saf.sol\":1939:1940  0 */\n      0x00\n        /* \"saf.sol\":1932:1940  return 0 */\n      swap1\n      pop\n      jump(tag_429)\n        /* \"saf.sol\":1905:1952  if (a == 0) {\r... */\n    tag_430:\n        /* \"saf.sol\":1964:1973  uint256 c */\n      0x00\n        /* \"saf.sol\":1980:1981  b */\n      dup3\n        /* \"saf.sol\":1976:1977  a */\n      dup5\n        /* \"saf.sol\":1976:1981  a * b */\n      mul\n        /* \"saf.sol\":1964:1981  uint256 c = a * b */\n      swap1\n      pop\n        /* \"saf.sol\":2009:2010  b */\n      dup3\n        /* \"saf.sol\":2004:2005  a */\n      dup5\n        /* \"saf.sol\":2000:2001  c */\n      dup3\n        /* \"saf.sol\":2000:2005  c / a */\n      dup2\n      tag_431\n      jumpi\n      invalid\n    tag_431:\n      div\n        /* \"saf.sol\":2000:2010  c / a == b */\n      eq\n        /* \"saf.sol\":1992:2048  require(c / a == b, \"SafeMath: multiplication overflow\") */\n      tag_432\n      jumpi\n      mload(0x40)\n      0x08c379a000000000000000000000000000000000000000000000000000000000\n      dup2\n      mstore\n      0x04\n      add\n      dup1\n      dup1\n      0x20\n      add\n      dup3\n      dup2\n      sub\n      dup3\n      mstore\n      0x21\n      dup2\n      mstore\n      0x20\n      add\n      dup1\n      data_9113bb53c2876a3805b2c9242029423fc540a728243ce887ab24c82cf119fba3\n      0x21\n      swap2\n      codecopy\n      0x40\n      add\n      swap2\n      pop\n      pop\n      mload(0x40)\n      dup1\n      swap2\n      sub\n      swap1\n      revert\n    tag_432:\n        /* \"saf.sol\":2068:2069  c */\n      dup1\n        /* \"saf.sol\":2061:2069  return c */\n      swap2\n      pop\n      pop\n        /* \"saf.sol\":1827:2077  function mul(uint256 a, uint256 b) internal pure returns (uint256) {\r... */\n    tag_429:\n      swap3\n      swap2\n      pop\n      pop\n      jump\t// out\n        /* \"saf.sol\":4168:4355  function _transferOwnership(address newOwner) internal {\r... */\n    tag_385:\n        /* \"saf.sol\":4262:4263  0 */\n      0x00\n        /* \"saf.sol\":4242:4264  newOwner != address(0) */\n      0xffffffffffffffffffffffffffffffffffffffff\n      and\n        /* \"saf.sol\":4242:4250  newOwner */\n      dup2\n        /* \"saf.sol\":4242:4264  newOwner != address(0) */\n      0xffffffffffffffffffffffffffffffffffffffff\n      and\n      eq\n      iszero\n        /* \"saf.sol\":4234:4265  require(newOwner != address(0)) */\n      tag_434\n      jumpi\n      0x00\n      dup1\n      revert\n    tag_434:\n        /* \"saf.sol\":4310:4318  newOwner */\n      dup1\n        /* \"saf.sol\":4281:4319  OwnershipTransferred(_owner, newOwner) */\n      0xffffffffffffffffffffffffffffffffffffffff\n      and\n        /* \"saf.sol\":4302:4308  _owner */\n      0x02\n      0x01\n      swap1\n      sload\n      swap1\n      0x0100\n      exp\n      swap1\n      div\n      0xffffffffffffffffffffffffffffffffffffffff\n      and\n        /* \"saf.sol\":4281:4319  OwnershipTransferred(_owner, newOwner) */\n      0xffffffffffffffffffffffffffffffffffffffff\n      and\n      0x8be0079c531659141344cd1fd0a4f28419497f9722a3daafe3b4186f6b6457e0\n      mload(0x40)\n      mload(0x40)\n      dup1\n      swap2\n      sub\n      swap1\n      log3\n        /* \"saf.sol\":4339:4347  newOwner */\n      dup1\n        /* \"saf.sol\":4330:4336  _owner */\n      0x02\n      0x01\n        /* \"saf.sol\":4330:4347  _owner = newOwner */\n      0x0100\n      exp\n      dup2\n      sload\n      dup2\n      0xffffffffffffffffffffffffffffffffffffffff\n      mul\n      not\n      and\n      swap1\n      dup4\n      0xffffffffffffffffffffffffffffffffffffffff\n      and\n      mul\n      or\n      swap1\n      sstore\n      pop\n        /* \"saf.sol\":4168:4355  function _transferOwnership(address newOwner) internal {\r... */\n      pop\n      jump\t// out\n        /* \"saf.sol\":2225:2450  function div(\r... */\n    tag_390:\n        /* \"saf.sol\":2345:2352  uint256 */\n      0x00\n        /* \"saf.sol\":2377:2378  0 */\n      dup1\n        /* \"saf.sol\":2373:2374  b */\n      dup4\n        /* \"saf.sol\":2373:2378  b > 0 */\n      gt\n        /* \"saf.sol\":2380:2392  errorMessage */\n      dup3\n        /* \"saf.sol\":2365:2393  require(b > 0, errorMessage) */\n      swap1\n      tag_436\n      jumpi\n      mload(0x40)\n      0x08c379a000000000000000000000000000000000000000000000000000000000\n      dup2\n      mstore\n      0x04\n      add\n      dup1\n      dup1\n      0x20\n      add\n      dup3\n      dup2\n      sub\n      dup3\n      mstore\n      dup4\n      dup2\n      dup2\n      mload\n      dup2\n      mstore\n      0x20\n      add\n      swap2\n      pop\n      dup1\n      mload\n      swap1\n      0x20\n      add\n      swap1\n      dup1\n      dup4\n      dup4\n      0x00\n    tag_437:\n      dup4\n      dup2\n      lt\n      iszero\n      tag_439\n      jumpi\n      dup1\n      dup3\n      add\n      mload\n      dup2\n      dup5\n      add\n      mstore\n      0x20\n      dup2\n      add\n      swap1\n      pop\n      jump(tag_437)\n    tag_439:\n      pop\n      pop\n      pop\n      pop\n      swap1\n      pop\n      swap1\n      dup2\n      add\n      swap1\n      0x1f\n      and\n      dup1\n      iszero\n      tag_440\n      jumpi\n      dup1\n      dup3\n      sub\n      dup1\n      mload\n      0x01\n      dup4\n      0x20\n      sub\n      0x0100\n      exp\n      sub\n      not\n      and\n      dup2\n      mstore\n      0x20\n      add\n      swap2\n      pop\n    tag_440:\n      pop\n      swap3\n      pop\n      pop\n      pop\n      mload(0x40)\n      dup1\n      swap2\n      sub\n      swap1\n      revert\n    tag_436:\n      pop\n        /* \"saf.sol\":2404:2413  uint256 c */\n      0x00\n        /* \"saf.sol\":2420:2421  b */\n      dup4\n        /* \"saf.sol\":2416:2417  a */\n      dup6\n        /* \"saf.sol\":2416:2421  a / b */\n      dup2\n      tag_441\n      jumpi\n      invalid\n    tag_441:\n      div\n        /* \"saf.sol\":2404:2421  uint256 c = a / b */\n      swap1\n      pop\n        /* \"saf.sol\":2441:2442  c */\n      dup1\n        /* \"saf.sol\":2434:2442  return c */\n      swap2\n      pop\n      pop\n        /* \"saf.sol\":2225:2450  function div(\r... */\n      swap4\n      swap3\n      pop\n      pop\n      pop\n      jump\t// out\n        /* \"saf.sol\":10247:10586  function _basicTransfer(\r... */\n    tag_402:\n        /* \"saf.sol\":10365:10369  bool */\n      0x00\n        /* \"saf.sol\":10382:10399  uint256 gonAmount */\n      dup1\n        /* \"saf.sol\":10402:10430  amount.mul(_gonsPerFragment) */\n      tag_443\n        /* \"saf.sol\":10413:10429  _gonsPerFragment */\n      sload(0x1a)\n        /* \"saf.sol\":10402:10408  amount */\n      dup5\n        /* \"saf.sol\":10402:10412  amount.mul */\n      tag_372\n      swap1\n        /* \"saf.sol\":10402:10430  amount.mul(_gonsPerFragment) */\n      swap2\n      swap1\n      0xffffffff\n      and\n      jump\t// in\n    tag_443:\n        /* \"saf.sol\":10382:10430  uint256 gonAmount = amount.mul(_gonsPerFragment) */\n      swap1\n      pop\n        /* \"saf.sol\":10462:10495  _gonBalances[from].sub(gonAmount) */\n      tag_444\n        /* \"saf.sol\":10485:10494  gonAmount */\n      dup2\n        /* \"saf.sol\":10462:10474  _gonBalances */\n      0x1b\n        /* \"saf.sol\":10462:10480  _gonBalances[from] */\n      0x00\n        /* \"saf.sol\":10475:10479  from */\n      dup9\n        /* \"saf.sol\":10462:10480  _gonBalances[from] */\n      0xffffffffffffffffffffffffffffffffffffffff\n      and\n      0xffffffffffffffffffffffffffffffffffffffff\n      and\n      dup2\n      mstore\n      0x20\n      add\n      swap1\n      dup2\n      mstore\n      0x20\n      add\n      0x00\n      keccak256\n      sload\n        /* \"saf.sol\":10462:10484  _gonBalances[from].sub */\n      tag_294\n      swap1\n        /* \"saf.sol\":10462:10495  _gonBalances[from].sub(gonAmount) */\n      swap2\n      swap1\n      0xffffffff\n      and\n      jump\t// in\n    tag_444:\n        /* \"saf.sol\":10441:10453  _gonBalances */\n      0x1b\n        /* \"saf.sol\":10441:10459  _gonBalances[from] */\n      0x00\n        /* \"saf.sol\":10454:10458  from */\n      dup8\n        /* \"saf.sol\":10441:10459  _gonBalances[from] */\n      0xffffffffffffffffffffffffffffffffffffffff\n      and\n      0xffffffffffffffffffffffffffffffffffffffff\n      and\n      dup2\n      mstore\n      0x20\n      add\n      swap1\n      dup2\n      mstore\n      0x20\n      add\n      0x00\n      keccak256\n        /* \"saf.sol\":10441:10495  _gonBalances[from] = _gonBalances[from].sub(gonAmount) */\n      dup2\n      swap1\n      sstore\n      pop\n        /* \"saf.sol\":10525:10556  _gonBalances[to].add(gonAmount) */\n      tag_445\n        /* \"saf.sol\":10546:10555  gonAmount */\n      dup2\n        /* \"saf.sol\":10525:10537  _gonBalances */\n      0x1b\n        /* \"saf.sol\":10525:10541  _gonBalances[to] */\n      0x00\n        /* \"saf.sol\":10538:10540  to */\n      dup8\n        /* \"saf.sol\":10525:10541  _gonBalances[to] */\n      0xffffffffffffffffffffffffffffffffffffffff\n      and\n      0xffffffffffffffffffffffffffffffffffffffff\n      and\n      dup2\n      mstore\n      0x20\n      add\n      swap1\n      dup2\n      mstore\n      0x20\n      add\n      0x00\n      keccak256\n      sload\n        /* \"saf.sol\":10525:10545  _gonBalances[to].add */\n      tag_273\n      swap1\n        /* \"saf.sol\":10525:10556  _gonBalances[to].add(gonAmount) */\n      swap2\n      swap1\n      0xffffffff\n      and\n      jump\t// in\n    tag_445:\n        /* \"saf.sol\":10506:10518  _gonBalances */\n      0x1b\n        /* \"saf.sol\":10506:10522  _gonBalances[to] */\n      0x00\n        /* \"saf.sol\":10519:10521  to */\n      dup7\n        /* \"saf.sol\":10506:10522  _gonBalances[to] */\n      0xffffffffffffffffffffffffffffffffffffffff\n      and\n      0xffffffffffffffffffffffffffffffffffffffff\n      and\n      dup2\n      mstore\n      0x20\n      add\n      swap1\n      dup2\n      mstore\n      0x20\n      add\n      0x00\n      keccak256\n        /* \"saf.sol\":10506:10556  _gonBalances[to] = _gonBalances[to].add(gonAmount) */\n      dup2\n      swap1\n      sstore\n      pop\n        /* \"saf.sol\":10574:10578  true */\n      0x01\n        /* \"saf.sol\":10567:10578  return true */\n      swap2\n      pop\n      pop\n        /* \"saf.sol\":10247:10586  function _basicTransfer(\r... */\n      swap4\n      swap3\n      pop\n      pop\n      pop\n      jump\t// out\n        /* \"saf.sol\":14284:14558  function shouldRebase() internal view returns (bool) {\r... */\n    tag_404:\n        /* \"saf.sol\":14331:14335  bool */\n      0x00\n        /* \"saf.sol\":14368:14379  _autoRebase */\n      0x15\n      dup1\n      sload\n      swap1\n      0x0100\n      exp\n      swap1\n      div\n      0xff\n      and\n        /* \"saf.sol\":14368:14423  _autoRebase &&\r... */\n      dup1\n      iszero\n      tag_447\n      jumpi\n      pop\n        /* \"saf.sol\":5462:5463  5 */\n      0x05\n        /* \"saf.sol\":6759:6761  10 */\n      0x0a\n        /* \"saf.sol\":6759:6771  10**DECIMALS */\n      exp\n        /* \"saf.sol\":6745:6756  325 * 10**7 */\n      0xc1b71080\n        /* \"saf.sol\":6745:6771  325 * 10**7 * 10**DECIMALS */\n      mul\n        /* \"saf.sol\":14397:14409  _totalSupply */\n      sload(0x19)\n        /* \"saf.sol\":14397:14422  _totalSupply < MAX_SUPPLY */\n      lt\n        /* \"saf.sol\":14368:14423  _autoRebase &&\r... */\n    tag_447:\n        /* \"saf.sol\":14368:14458  _autoRebase &&\r... */\n      dup1\n      iszero\n      tag_448\n      jumpi\n      pop\n        /* \"saf.sol\":14454:14458  pair */\n      0x15\n      0x00\n      swap1\n      sload\n      swap1\n      0x0100\n      exp\n      swap1\n      div\n      0xffffffffffffffffffffffffffffffffffffffff\n      and\n        /* \"saf.sol\":14440:14458  msg.sender != pair */\n      0xffffffffffffffffffffffffffffffffffffffff\n      and\n        /* \"saf.sol\":14440:14450  msg.sender */\n      caller\n        /* \"saf.sol\":14440:14458  msg.sender != pair */\n      0xffffffffffffffffffffffffffffffffffffffff\n      and\n      eq\n      iszero\n        /* \"saf.sol\":14368:14458  _autoRebase &&\r... */\n    tag_448:\n        /* \"saf.sol\":14368:14483  _autoRebase &&\r... */\n      dup1\n      iszero\n      tag_449\n      jumpi\n      pop\n        /* \"saf.sol\":14477:14483  inSwap */\n      0x15\n      0x14\n      swap1\n      sload\n      swap1\n      0x0100\n      exp\n      swap1\n      div\n      0xff\n      and\n        /* \"saf.sol\":14476:14483  !inSwap */\n      iszero\n        /* \"saf.sol\":14368:14483  _autoRebase &&\r... */\n    tag_449:\n        /* \"saf.sol\":14368:14550  _autoRebase &&\r... */\n      dup1\n      iszero\n      tag_450\n      jumpi\n      pop\n        /* \"saf.sol\":14539:14549  15 minutes */\n      0x0384\n        /* \"saf.sol\":14520:14536  _lastRebasedTime */\n      sload(0x17)\n        /* \"saf.sol\":14520:14549  _lastRebasedTime + 15 minutes */\n      add\n        /* \"saf.sol\":14500:14515  block.timestamp */\n      timestamp\n        /* \"saf.sol\":14500:14550  block.timestamp >= (_lastRebasedTime + 15 minutes) */\n      lt\n      iszero\n        /* \"saf.sol\":14368:14550  _autoRebase &&\r... */\n    tag_450:\n        /* \"saf.sol\":14348:14550  return\r... */\n      swap1\n      pop\n        /* \"saf.sol\":14284:14558  function shouldRebase() internal view returns (bool) {\r... */\n      swap1\n      jump\t// out\n        /* \"saf.sol\":8454:9543  function rebase() internal {\r... */\n    tag_407:\n        /* \"saf.sol\":8507:8513  inSwap */\n      0x15\n      0x14\n      swap1\n      sload\n      swap1\n      0x0100\n      exp\n      swap1\n      div\n      0xff\n      and\n        /* \"saf.sol\":8502:8523  if ( inSwap ) return; */\n      iszero\n      tag_452\n      jumpi\n        /* \"saf.sol\":8516:8523  return; */\n      jump(tag_451)\n        /* \"saf.sol\":8502:8523  if ( inSwap ) return; */\n    tag_452:\n        /* \"saf.sol\":8533:8551  uint256 rebaseRate */\n      0x00\n        /* \"saf.sol\":8562:8587  uint256 deltaTimeFromInit */\n      dup1\n        /* \"saf.sol\":8608:8628  _initRebaseStartTime */\n      sload(0x16)\n        /* \"saf.sol\":8590:8605  block.timestamp */\n      timestamp\n        /* \"saf.sol\":8590:8628  block.timestamp - _initRebaseStartTime */\n      sub\n        /* \"saf.sol\":8562:8628  uint256 deltaTimeFromInit = block.timestamp - _initRebaseStartTime */\n      swap1\n      pop\n        /* \"saf.sol\":8639:8656  uint256 deltaTime */\n      0x00\n        /* \"saf.sol\":8677:8693  _lastRebasedTime */\n      sload(0x17)\n        /* \"saf.sol\":8659:8674  block.timestamp */\n      timestamp\n        /* \"saf.sol\":8659:8693  block.timestamp - _lastRebasedTime */\n      sub\n        /* \"saf.sol\":8639:8693  uint256 deltaTime = block.timestamp - _lastRebasedTime */\n      swap1\n      pop\n        /* \"saf.sol\":8704:8717  uint256 times */\n      0x00\n        /* \"saf.sol\":8720:8745  deltaTime.div(15 minutes) */\n      tag_453\n        /* \"saf.sol\":8734:8744  15 minutes */\n      0x0384\n        /* \"saf.sol\":8720:8729  deltaTime */\n      dup4\n        /* \"saf.sol\":8720:8733  deltaTime.div */\n      tag_274\n      swap1\n        /* \"saf.sol\":8720:8745  deltaTime.div(15 minutes) */\n      swap2\n      swap1\n      0xffffffff\n      and\n      jump\t// in\n    tag_453:\n        /* \"saf.sol\":8704:8745  uint256 times = deltaTime.div(15 minutes) */\n      swap1\n      pop\n        /* \"saf.sol\":8756:8769  uint256 epoch */\n      0x00\n        /* \"saf.sol\":8772:8785  times.mul(15) */\n      tag_454\n        /* \"saf.sol\":8782:8784  15 */\n      0x0f\n        /* \"saf.sol\":8772:8777  times */\n      dup4\n        /* \"saf.sol\":8772:8781  times.mul */\n      tag_372\n      swap1\n        /* \"saf.sol\":8772:8785  times.mul(15) */\n      swap2\n      swap1\n      0xffffffff\n      and\n      jump\t// in\n    tag_454:\n        /* \"saf.sol\":8756:8785  uint256 epoch = times.mul(15) */\n      swap1\n      pop\n        /* \"saf.sol\":8823:8831  365 days */\n      0x01e13380\n        /* \"saf.sol\":8802:8819  deltaTimeFromInit */\n      dup5\n        /* \"saf.sol\":8802:8832  deltaTimeFromInit < (365 days) */\n      lt\n        /* \"saf.sol\":8798:9149  if (deltaTimeFromInit < (365 days)) {\r... */\n      iszero\n      tag_455\n      jumpi\n        /* \"saf.sol\":8862:8866  2355 */\n      0x0933\n        /* \"saf.sol\":8849:8866  rebaseRate = 2355 */\n      swap5\n      pop\n        /* \"saf.sol\":8798:9149  if (deltaTimeFromInit < (365 days)) {\r... */\n      jump(tag_456)\n    tag_455:\n        /* \"saf.sol\":8910:8918  365 days */\n      0x01e13380\n        /* \"saf.sol\":8888:8905  deltaTimeFromInit */\n      dup5\n        /* \"saf.sol\":8888:8919  deltaTimeFromInit >= (365 days) */\n      lt\n        /* \"saf.sol\":8884:9149  if (deltaTimeFromInit >= (365 days)) {\r... */\n      tag_457\n      jumpi\n        /* \"saf.sol\":8949:8952  211 */\n      0xd3\n        /* \"saf.sol\":8936:8952  rebaseRate = 211 */\n      swap5\n      pop\n        /* \"saf.sol\":8884:9149  if (deltaTimeFromInit >= (365 days)) {\r... */\n      jump(tag_458)\n    tag_457:\n        /* \"saf.sol\":8996:9016  (15 * 365 days) / 10 */\n      0x02d1cd40\n        /* \"saf.sol\":8974:8991  deltaTimeFromInit */\n      dup5\n        /* \"saf.sol\":8974:9017  deltaTimeFromInit >= ((15 * 365 days) / 10) */\n      lt\n        /* \"saf.sol\":8970:9149  if (deltaTimeFromInit >= ((15 * 365 days) / 10)) {\r... */\n      tag_459\n      jumpi\n        /* \"saf.sol\":9047:9049  14 */\n      0x0e\n        /* \"saf.sol\":9034:9049  rebaseRate = 14 */\n      swap5\n      pop\n        /* \"saf.sol\":8970:9149  if (deltaTimeFromInit >= ((15 * 365 days) / 10)) {\r... */\n      jump(tag_460)\n    tag_459:\n        /* \"saf.sol\":9093:9105  7 * 365 days */\n      0x0d286880\n        /* \"saf.sol\":9071:9088  deltaTimeFromInit */\n      dup5\n        /* \"saf.sol\":9071:9106  deltaTimeFromInit >= (7 * 365 days) */\n      lt\n        /* \"saf.sol\":9067:9149  if (deltaTimeFromInit >= (7 * 365 days)) {\r... */\n      tag_461\n      jumpi\n        /* \"saf.sol\":9136:9137  2 */\n      0x02\n        /* \"saf.sol\":9123:9137  rebaseRate = 2 */\n      swap5\n      pop\n        /* \"saf.sol\":9067:9149  if (deltaTimeFromInit >= (7 * 365 days)) {\r... */\n    tag_461:\n        /* \"saf.sol\":8970:9149  if (deltaTimeFromInit >= ((15 * 365 days) / 10)) {\r... */\n    tag_460:\n        /* \"saf.sol\":8884:9149  if (deltaTimeFromInit >= (365 days)) {\r... */\n    tag_458:\n        /* \"saf.sol\":8798:9149  if (deltaTimeFromInit < (365 days)) {\r... */\n    tag_456:\n        /* \"saf.sol\":9166:9175  uint256 i */\n      0x00\n        /* \"saf.sol\":9161:9351  for (uint256 i = 0; i < times; i++) {\r... */\n    tag_462:\n        /* \"saf.sol\":9185:9190  times */\n      dup3\n        /* \"saf.sol\":9181:9182  i */\n      dup2\n        /* \"saf.sol\":9181:9190  i < times */\n      lt\n        /* \"saf.sol\":9161:9351  for (uint256 i = 0; i < times; i++) {\r... */\n      iszero\n      tag_463\n      jumpi\n        /* \"saf.sol\":9227:9339  _totalSupply\r... */\n      tag_465\n        /* \"saf.sol\":5564:5565  7 */\n      0x07\n        /* \"saf.sol\":9321:9338  10**RATE_DECIMALS */\n      0xff\n      and\n        /* \"saf.sol\":9321:9323  10 */\n      0x0a\n        /* \"saf.sol\":9321:9338  10**RATE_DECIMALS */\n      exp\n        /* \"saf.sol\":9227:9298  _totalSupply\r... */\n      tag_466\n        /* \"saf.sol\":9262:9297  (10**RATE_DECIMALS).add(rebaseRate) */\n      tag_467\n        /* \"saf.sol\":9286:9296  rebaseRate */\n      dup10\n        /* \"saf.sol\":5564:5565  7 */\n      0x07\n        /* \"saf.sol\":9263:9280  10**RATE_DECIMALS */\n      0xff\n      and\n        /* \"saf.sol\":9263:9265  10 */\n      0x0a\n        /* \"saf.sol\":9263:9280  10**RATE_DECIMALS */\n      exp\n        /* \"saf.sol\":9262:9285  (10**RATE_DECIMALS).add */\n      tag_273\n      swap1\n        /* \"saf.sol\":9262:9297  (10**RATE_DECIMALS).add(rebaseRate) */\n      swap2\n      swap1\n      0xffffffff\n      and\n      jump\t// in\n    tag_467:\n        /* \"saf.sol\":9227:9239  _totalSupply */\n      sload(0x19)\n        /* \"saf.sol\":9227:9261  _totalSupply\r... */\n      tag_372\n      swap1\n        /* \"saf.sol\":9227:9298  _totalSupply\r... */\n      swap2\n      swap1\n      0xffffffff\n      and\n      jump\t// in\n    tag_466:\n        /* \"saf.sol\":9227:9320  _totalSupply\r... */\n      tag_274\n      swap1\n        /* \"saf.sol\":9227:9339  _totalSupply\r... */\n      swap2\n      swap1\n      0xffffffff\n      and\n      jump\t// in\n    tag_465:\n        /* \"saf.sol\":9212:9224  _totalSupply */\n      0x19\n        /* \"saf.sol\":9212:9339  _totalSupply = _totalSupply\r... */\n      dup2\n      swap1\n      sstore\n      pop\n        /* \"saf.sol\":9192:9195  i++ */\n      dup1\n      dup1\n      0x01\n      add\n      swap2\n      pop\n      pop\n        /* \"saf.sol\":9161:9351  for (uint256 i = 0; i < times; i++) {\r... */\n      jump(tag_462)\n    tag_463:\n      pop\n        /* \"saf.sol\":9382:9410  TOTAL_GONS.div(_totalSupply) */\n      tag_468\n        /* \"saf.sol\":9397:9409  _totalSupply */\n      sload(0x19)\n        /* \"saf.sol\":5462:5463  5 */\n      0x05\n        /* \"saf.sol\":5649:5651  10 */\n      0x0a\n        /* \"saf.sol\":5649:5661  10**DECIMALS */\n      exp\n        /* \"saf.sol\":5635:5646  325 * 10**3 */\n      0x04f588\n        /* \"saf.sol\":5635:5661  325 * 10**3 * 10**DECIMALS */\n      mul\n        /* \"saf.sol\":5517:5518  0 */\n      0x00\n        /* \"saf.sol\":5508:5519  ~uint256(0) */\n      not\n        /* \"saf.sol\":6659:6697  MAX_UINT256 % INITIAL_FRAGMENTS_SUPPLY */\n      dup2\n      tag_469\n      jumpi\n      invalid\n    tag_469:\n      mod\n        /* \"saf.sol\":5517:5518  0 */\n      0x00\n        /* \"saf.sol\":5508:5519  ~uint256(0) */\n      not\n        /* \"saf.sol\":6644:6698  MAX_UINT256 - (MAX_UINT256 % INITIAL_FRAGMENTS_SUPPLY) */\n      sub\n        /* \"saf.sol\":9382:9396  TOTAL_GONS.div */\n      tag_274\n      swap1\n        /* \"saf.sol\":9382:9410  TOTAL_GONS.div(_totalSupply) */\n      swap2\n      swap1\n      0xffffffff\n      and\n      jump\t// in\n    tag_468:\n        /* \"saf.sol\":9363:9379  _gonsPerFragment */\n      0x1a\n        /* \"saf.sol\":9363:9410  _gonsPerFragment = TOTAL_GONS.div(_totalSupply) */\n      dup2\n      swap1\n      sstore\n      pop\n        /* \"saf.sol\":9440:9483  _lastRebasedTime.add(times.mul(15 minutes)) */\n      tag_470\n        /* \"saf.sol\":9461:9482  times.mul(15 minutes) */\n      tag_471\n        /* \"saf.sol\":9471:9481  15 minutes */\n      0x0384\n        /* \"saf.sol\":9461:9466  times */\n      dup5\n        /* \"saf.sol\":9461:9470  times.mul */\n      tag_372\n      swap1\n        /* \"saf.sol\":9461:9482  times.mul(15 minutes) */\n      swap2\n      swap1\n      0xffffffff\n      and\n      jump\t// in\n    tag_471:\n        /* \"saf.sol\":9440:9456  _lastRebasedTime */\n      sload(0x17)\n        /* \"saf.sol\":9440:9460  _lastRebasedTime.add */\n      tag_273\n      swap1\n        /* \"saf.sol\":9440:9483  _lastRebasedTime.add(times.mul(15 minutes)) */\n      swap2\n      swap1\n      0xffffffff\n      and\n      jump\t// in\n    tag_470:\n        /* \"saf.sol\":9421:9437  _lastRebasedTime */\n      0x17\n        /* \"saf.sol\":9421:9483  _lastRebasedTime = _lastRebasedTime.add(times.mul(15 minutes)) */\n      dup2\n      swap1\n      sstore\n      pop\n        /* \"saf.sol\":9515:9520  epoch */\n      dup1\n        /* \"saf.sol\":9505:9535  LogRebase(epoch, _totalSupply) */\n      0x72725a3b1e5bd622d6bcd1339bb31279c351abe8f541ac7fd320f24e1b1641f2\n        /* \"saf.sol\":9522:9534  _totalSupply */\n      sload(0x19)\n        /* \"saf.sol\":9505:9535  LogRebase(epoch, _totalSupply) */\n      mload(0x40)\n      dup1\n      dup3\n      dup2\n      mstore\n      0x20\n      add\n      swap2\n      pop\n      pop\n      mload(0x40)\n      dup1\n      swap2\n      sub\n      swap1\n      log2\n        /* \"saf.sol\":8454:9543  function rebase() internal {\r... */\n      pop\n      pop\n      pop\n      pop\n      pop\n    tag_451:\n      jump\t// out\n        /* \"saf.sol\":14566:14810  function shouldAddLiquidity() internal view returns (bool) {\r... */\n    tag_409:\n        /* \"saf.sol\":14619:14623  bool */\n      0x00\n        /* \"saf.sol\":14656:14673  _autoAddLiquidity */\n      0x15\n      0x16\n      swap1\n      sload\n      swap1\n      0x0100\n      exp\n      swap1\n      div\n      0xff\n      and\n        /* \"saf.sol\":14656:14698  _autoAddLiquidity && \r... */\n      dup1\n      iszero\n      tag_473\n      jumpi\n      pop\n        /* \"saf.sol\":14692:14698  inSwap */\n      0x15\n      0x14\n      swap1\n      sload\n      swap1\n      0x0100\n      exp\n      swap1\n      div\n      0xff\n      and\n        /* \"saf.sol\":14691:14698  !inSwap */\n      iszero\n        /* \"saf.sol\":14656:14698  _autoAddLiquidity && \r... */\n    tag_473:\n        /* \"saf.sol\":14656:14734  _autoAddLiquidity && \r... */\n      dup1\n      iszero\n      tag_474\n      jumpi\n      pop\n        /* \"saf.sol\":14730:14734  pair */\n      0x15\n      0x00\n      swap1\n      sload\n      swap1\n      0x0100\n      exp\n      swap1\n      div\n      0xffffffffffffffffffffffffffffffffffffffff\n      and\n        /* \"saf.sol\":14716:14734  msg.sender != pair */\n      0xffffffffffffffffffffffffffffffffffffffff\n      and\n        /* \"saf.sol\":14716:14726  msg.sender */\n      caller\n        /* \"saf.sol\":14716:14734  msg.sender != pair */\n      0xffffffffffffffffffffffffffffffffffffffff\n      and\n      eq\n      iszero\n        /* \"saf.sol\":14656:14734  _autoAddLiquidity && \r... */\n    tag_474:\n        /* \"saf.sol\":14656:14802  _autoAddLiquidity && \r... */\n      dup1\n      iszero\n      tag_475\n      jumpi\n      pop\n        /* \"saf.sol\":14795:14801  2 days */\n      0x02a300\n        /* \"saf.sol\":14771:14792  _lastAddLiquidityTime */\n      sload(0x18)\n        /* \"saf.sol\":14771:14801  _lastAddLiquidityTime + 2 days */\n      add\n        /* \"saf.sol\":14751:14766  block.timestamp */\n      timestamp\n        /* \"saf.sol\":14751:14802  block.timestamp >= (_lastAddLiquidityTime + 2 days) */\n      lt\n      iszero\n        /* \"saf.sol\":14656:14802  _autoAddLiquidity && \r... */\n    tag_475:\n        /* \"saf.sol\":14636:14802  return\r... */\n      swap1\n      pop\n        /* \"saf.sol\":14566:14810  function shouldAddLiquidity() internal view returns (bool) {\r... */\n      swap1\n      jump\t// out\n        /* \"saf.sol\":14818:14958  function shouldSwapBack() internal view returns (bool) {\r... */\n    tag_412:\n        /* \"saf.sol\":14867:14871  bool */\n      0x00\n        /* \"saf.sol\":14906:14912  inSwap */\n      0x15\n      0x14\n      swap1\n      sload\n      swap1\n      0x0100\n      exp\n      swap1\n      div\n      0xff\n      and\n        /* \"saf.sol\":14905:14912  !inSwap */\n      iszero\n        /* \"saf.sol\":14905:14947  !inSwap &&\r... */\n      dup1\n      iszero\n      tag_477\n      jumpi\n      pop\n        /* \"saf.sol\":14943:14947  pair */\n      0x15\n      0x00\n      swap1\n      sload\n      swap1\n      0x0100\n      exp\n      swap1\n      div\n      0xffffffffffffffffffffffffffffffffffffffff\n      and\n        /* \"saf.sol\":14929:14947  msg.sender != pair */\n      0xffffffffffffffffffffffffffffffffffffffff\n      and\n        /* \"saf.sol\":14929:14939  msg.sender */\n      caller\n        /* \"saf.sol\":14929:14947  msg.sender != pair */\n      0xffffffffffffffffffffffffffffffffffffffff\n      and\n      eq\n      iszero\n        /* \"saf.sol\":14905:14947  !inSwap &&\r... */\n    tag_477:\n        /* \"saf.sol\":14884:14947  return \r... */\n      swap1\n      pop\n        /* \"saf.sol\":14818:14958  function shouldSwapBack() internal view returns (bool) {\r... */\n      swap1\n      jump\t// out\n        /* \"saf.sol\":12752:13714  function swapBack() internal swapping {\r... */\n    tag_415:\n        /* \"saf.sol\":6540:6544  true */\n      0x01\n        /* \"saf.sol\":6531:6537  inSwap */\n      0x15\n      0x14\n        /* \"saf.sol\":6531:6544  inSwap = true */\n      0x0100\n      exp\n      dup2\n      sload\n      dup2\n      0xff\n      mul\n      not\n      and\n      swap1\n      dup4\n      iszero\n      iszero\n      mul\n      or\n      swap1\n      sstore\n      pop\n        /* \"saf.sol\":12803:12823  uint256 amountToSwap */\n      0x00\n        /* \"saf.sol\":12826:12875  _gonBalances[address(this)].div(_gonsPerFragment) */\n      tag_480\n        /* \"saf.sol\":12858:12874  _gonsPerFragment */\n      sload(0x1a)\n        /* \"saf.sol\":12826:12838  _gonBalances */\n      0x1b\n        /* \"saf.sol\":12826:12853  _gonBalances[address(this)] */\n      0x00\n        /* \"saf.sol\":12847:12851  this */\n      address\n        /* \"saf.sol\":12826:12853  _gonBalances[address(this)] */\n      0xffffffffffffffffffffffffffffffffffffffff\n      and\n      0xffffffffffffffffffffffffffffffffffffffff\n      and\n      dup2\n      mstore\n      0x20\n      add\n      swap1\n      dup2\n      mstore\n      0x20\n      add\n      0x00\n      keccak256\n      sload\n        /* \"saf.sol\":12826:12857  _gonBalances[address(this)].div */\n      tag_274\n      swap1\n        /* \"saf.sol\":12826:12875  _gonBalances[address(this)].div(_gonsPerFragment) */\n      swap2\n      swap1\n      0xffffffff\n      and\n      jump\t// in\n    tag_480:\n        /* \"saf.sol\":12803:12875  uint256 amountToSwap = _gonBalances[address(this)].div(_gonsPerFragment) */\n      swap1\n      pop\n        /* \"saf.sol\":12908:12909  0 */\n      0x00\n        /* \"saf.sol\":12892:12904  amountToSwap */\n      dup2\n        /* \"saf.sol\":12892:12909  amountToSwap == 0 */\n      eq\n        /* \"saf.sol\":12888:12944  if( amountToSwap == 0) {\r... */\n      iszero\n      tag_481\n      jumpi\n        /* \"saf.sol\":12926:12933  return; */\n      pop\n      jump(tag_479)\n        /* \"saf.sol\":12888:12944  if( amountToSwap == 0) {\r... */\n    tag_481:\n        /* \"saf.sol\":12956:12977  uint256 balanceBefore */\n      0x00\n        /* \"saf.sol\":12980:13001  address(this).balance */\n      selfbalance\n        /* \"saf.sol\":12956:13001  uint256 balanceBefore = address(this).balance */\n      swap1\n      pop\n        /* \"saf.sol\":13012:13033  address[] memory path */\n      0x60\n        /* \"saf.sol\":13050:13051  2 */\n      0x02\n        /* \"saf.sol\":13036:13052  new address[](2) */\n      0xffffffffffffffff\n      dup2\n      gt\n      dup1\n      iszero\n      tag_482\n      jumpi\n      0x00\n      dup1\n      revert\n    tag_482:\n      pop\n      mload(0x40)\n      swap1\n      dup1\n      dup3\n      mstore\n      dup1\n      0x20\n      mul\n      0x20\n      add\n      dup3\n      add\n      0x40\n      mstore\n      dup1\n      iszero\n      tag_483\n      jumpi\n      dup2\n      0x20\n      add\n      0x20\n      dup3\n      mul\n      dup1\n      calldatasize\n      dup4\n      calldatacopy\n      dup1\n      dup3\n      add\n      swap2\n      pop\n      pop\n      swap1\n      pop\n    tag_483:\n      pop\n        /* \"saf.sol\":13012:13052  address[] memory path = new address[](2) */\n      swap1\n      pop\n        /* \"saf.sol\":13081:13085  this */\n      address\n        /* \"saf.sol\":13063:13067  path */\n      dup2\n        /* \"saf.sol\":13068:13069  0 */\n      0x00\n        /* \"saf.sol\":13063:13070  path[0] */\n      dup2\n      mload\n      dup2\n      lt\n      tag_484\n      jumpi\n      invalid\n    tag_484:\n      0x20\n      mul\n      0x20\n      add\n      add\n        /* \"saf.sol\":13063:13086  path[0] = address(this) */\n      swap1\n      0xffffffffffffffffffffffffffffffffffffffff\n      and\n      swap1\n      dup2\n      0xffffffffffffffffffffffffffffffffffffffff\n      and\n      dup2\n      mstore\n      pop\n      pop\n        /* \"saf.sol\":13109:13142  uint256 amountETHToTreasuryAndSIF */\n      0x00\n        /* \"saf.sol\":13145:13209  address(this).balance.sub(\r... */\n      tag_485\n        /* \"saf.sol\":13185:13198  balanceBefore */\n      dup4\n        /* \"saf.sol\":13145:13166  address(this).balance */\n      selfbalance\n        /* \"saf.sol\":13145:13170  address(this).balance.sub */\n      tag_294\n      swap1\n        /* \"saf.sol\":13145:13209  address(this).balance.sub(\r... */\n      swap2\n      swap1\n      0xffffffff\n      and\n      jump\t// in\n    tag_485:\n        /* \"saf.sol\":13109:13209  uint256 amountETHToTreasuryAndSIF = address(this).balance.sub(\r... */\n      swap1\n      pop\n        /* \"saf.sol\":13223:13235  bool success */\n      0x00\n        /* \"saf.sol\":13249:13265  treasuryReceiver */\n      0x11\n      0x00\n      swap1\n      sload\n      swap1\n      0x0100\n      exp\n      swap1\n      div\n      0xffffffffffffffffffffffffffffffffffffffff\n      and\n        /* \"saf.sol\":13241:13271  payable(treasuryReceiver).call */\n      0xffffffffffffffffffffffffffffffffffffffff\n      and\n        /* \"saf.sol\":13293:13411  amountETHToTreasuryAndSIF.mul(treasuryFee).div(\r... */\n      tag_486\n        /* \"saf.sol\":13358:13396  treasuryFee.add(safuuInsuranceFundFee) */\n      tag_487\n        /* \"saf.sol\":13374:13395  safuuInsuranceFundFee */\n      sload(0x09)\n        /* \"saf.sol\":13358:13369  treasuryFee */\n      sload(0x08)\n        /* \"saf.sol\":13358:13373  treasuryFee.add */\n      tag_273\n      swap1\n        /* \"saf.sol\":13358:13396  treasuryFee.add(safuuInsuranceFundFee) */\n      swap2\n      swap1\n      0xffffffff\n      and\n      jump\t// in\n    tag_487:\n        /* \"saf.sol\":13293:13335  amountETHToTreasuryAndSIF.mul(treasuryFee) */\n      tag_488\n        /* \"saf.sol\":13323:13334  treasuryFee */\n      sload(0x08)\n        /* \"saf.sol\":13293:13318  amountETHToTreasuryAndSIF */\n      dup7\n        /* \"saf.sol\":13293:13322  amountETHToTreasuryAndSIF.mul */\n      tag_372\n      swap1\n        /* \"saf.sol\":13293:13335  amountETHToTreasuryAndSIF.mul(treasuryFee) */\n      swap2\n      swap1\n      0xffffffff\n      and\n      jump\t// in\n    tag_488:\n        /* \"saf.sol\":13293:13339  amountETHToTreasuryAndSIF.mul(treasuryFee).div */\n      tag_274\n      swap1\n        /* \"saf.sol\":13293:13411  amountETHToTreasuryAndSIF.mul(treasuryFee).div(\r... */\n      swap2\n      swap1\n      0xffffffff\n      and\n      jump\t// in\n    tag_486:\n        /* \"saf.sol\":13431:13436  30000 */\n      0x7530\n        /* \"saf.sol\":13241:13451  payable(treasuryReceiver).call{\r... */\n      swap1\n      mload(0x40)\n      dup1\n      0x00\n      add\n      swap1\n      pop\n      0x00\n      mload(0x40)\n      dup1\n      dup4\n      sub\n      dup2\n      dup6\n      dup9\n      dup9\n      call\n      swap4\n      pop\n      pop\n      pop\n      pop\n      returndatasize\n      dup1\n      0x00\n      dup2\n      eq\n      tag_491\n      jumpi\n      mload(0x40)\n      swap2\n      pop\n      and(add(returndatasize, 0x3f), not(0x1f))\n      dup3\n      add\n      0x40\n      mstore\n      returndatasize\n      dup3\n      mstore\n      returndatasize\n      0x00\n      0x20\n      dup5\n      add\n      returndatacopy\n      jump(tag_490)\n    tag_491:\n      0x60\n      swap2\n      pop\n    tag_490:\n      pop\n        /* \"saf.sol\":13222:13451  (bool success, ) = payable(treasuryReceiver).call{\r... */\n      pop\n      swap1\n      pop\n        /* \"saf.sol\":13484:13510  safuuInsuranceFundReceiver */\n      0x12\n      0x00\n      swap1\n      sload\n      swap1\n      0x0100\n      exp\n      swap1\n      div\n      0xffffffffffffffffffffffffffffffffffffffff\n      and\n        /* \"saf.sol\":13476:13516  payable(safuuInsuranceFundReceiver).call */\n      0xffffffffffffffffffffffffffffffffffffffff\n      and\n        /* \"saf.sol\":13538:13666  amountETHToTreasuryAndSIF.mul(safuuInsuranceFundFee).div(\r... */\n      tag_492\n        /* \"saf.sol\":13613:13651  treasuryFee.add(safuuInsuranceFundFee) */\n      tag_493\n        /* \"saf.sol\":13629:13650  safuuInsuranceFundFee */\n      sload(0x09)\n        /* \"saf.sol\":13613:13624  treasuryFee */\n      sload(0x08)\n        /* \"saf.sol\":13613:13628  treasuryFee.add */\n      tag_273\n      swap1\n        /* \"saf.sol\":13613:13651  treasuryFee.add(safuuInsuranceFundFee) */\n      swap2\n      swap1\n      0xffffffff\n      and\n      jump\t// in\n    tag_493:\n        /* \"saf.sol\":13538:13590  amountETHToTreasuryAndSIF.mul(safuuInsuranceFundFee) */\n      tag_494\n        /* \"saf.sol\":13568:13589  safuuInsuranceFundFee */\n      sload(0x09)\n        /* \"saf.sol\":13538:13563  amountETHToTreasuryAndSIF */\n      dup7\n        /* \"saf.sol\":13538:13567  amountETHToTreasuryAndSIF.mul */\n      tag_372\n      swap1\n        /* \"saf.sol\":13538:13590  amountETHToTreasuryAndSIF.mul(safuuInsuranceFundFee) */\n      swap2\n      swap1\n      0xffffffff\n      and\n      jump\t// in\n    tag_494:\n        /* \"saf.sol\":13538:13594  amountETHToTreasuryAndSIF.mul(safuuInsuranceFundFee).div */\n      tag_274\n      swap1\n        /* \"saf.sol\":13538:13666  amountETHToTreasuryAndSIF.mul(safuuInsuranceFundFee).div(\r... */\n      swap2\n      swap1\n      0xffffffff\n      and\n      jump\t// in\n    tag_492:\n        /* \"saf.sol\":13686:13691  30000 */\n      0x7530\n        /* \"saf.sol\":13476:13706  payable(safuuInsuranceFundReceiver).call{\r... */\n      swap1\n      mload(0x40)\n      dup1\n      0x00\n      add\n      swap1\n      pop\n      0x00\n      mload(0x40)\n      dup1\n      dup4\n      sub\n      dup2\n      dup6\n      dup9\n      dup9\n      call\n      swap4\n      pop\n      pop\n      pop\n      pop\n      returndatasize\n      dup1\n      0x00\n      dup2\n      eq\n      tag_497\n      jumpi\n      mload(0x40)\n      swap2\n      pop\n      and(add(returndatasize, 0x3f), not(0x1f))\n      dup3\n      add\n      0x40\n      mstore\n      returndatasize\n      dup3\n      mstore\n      returndatasize\n      0x00\n      0x20\n      dup5\n      add\n      returndatacopy\n      jump(tag_496)\n    tag_497:\n      0x60\n      swap2\n      pop\n    tag_496:\n      pop\n        /* \"saf.sol\":13462:13706  (success, ) = payable(safuuInsuranceFundReceiver).call{\r... */\n      pop\n      dup1\n      swap2\n      pop\n      pop\n        /* \"saf.sol\":6555:6556  _ */\n      pop\n      pop\n      pop\n      pop\n      pop\n    tag_479:\n        /* \"saf.sol\":6576:6581  false */\n      0x00\n        /* \"saf.sol\":6567:6573  inSwap */\n      0x15\n      0x14\n        /* \"saf.sol\":6567:6581  inSwap = false */\n      0x0100\n      exp\n      dup2\n      sload\n      dup2\n      0xff\n      mul\n      not\n      and\n      swap1\n      dup4\n      iszero\n      iszero\n      mul\n      or\n      swap1\n      sstore\n      pop\n        /* \"saf.sol\":12752:13714  function swapBack() internal swapping {\r... */\n      jump\t// out\n        /* \"saf.sol\":14062:14276  function shouldTakeFee(address from, address to)\r... */\n    tag_419:\n        /* \"saf.sol\":14161:14165  bool */\n      0x00\n        /* \"saf.sol\":14213:14217  from */\n      dup3\n        /* \"saf.sol\":14205:14217  pair == from */\n      0xffffffffffffffffffffffffffffffffffffffff\n      and\n        /* \"saf.sol\":14205:14209  pair */\n      0x15\n      0x00\n      swap1\n      sload\n      swap1\n      0x0100\n      exp\n      swap1\n      div\n      0xffffffffffffffffffffffffffffffffffffffff\n      and\n        /* \"saf.sol\":14205:14217  pair == from */\n      0xffffffffffffffffffffffffffffffffffffffff\n      and\n      eq\n        /* \"saf.sol\":14205:14231  pair == from || pair == to */\n      dup1\n      tag_499\n      jumpi\n      pop\n        /* \"saf.sol\":14229:14231  to */\n      dup2\n        /* \"saf.sol\":14221:14231  pair == to */\n      0xffffffffffffffffffffffffffffffffffffffff\n      and\n        /* \"saf.sol\":14221:14225  pair */\n      0x15\n      0x00\n      swap1\n      sload\n      swap1\n      0x0100\n      exp\n      swap1\n      div\n      0xffffffffffffffffffffffffffffffffffffffff\n      and\n        /* \"saf.sol\":14221:14231  pair == to */\n      0xffffffffffffffffffffffffffffffffffffffff\n      and\n      eq\n        /* \"saf.sol\":14205:14231  pair == from || pair == to */\n    tag_499:\n        /* \"saf.sol\":14204:14268  (pair == from || pair == to) &&\r... */\n      dup1\n      iszero\n      tag_500\n      jumpi\n      pop\n        /* \"saf.sol\":14250:14262  _isFeeExempt */\n      0x06\n        /* \"saf.sol\":14250:14268  _isFeeExempt[from] */\n      0x00\n        /* \"saf.sol\":14263:14267  from */\n      dup5\n        /* \"saf.sol\":14250:14268  _isFeeExempt[from] */\n      0xffffffffffffffffffffffffffffffffffffffff\n      and\n      0xffffffffffffffffffffffffffffffffffffffff\n      and\n      dup2\n      mstore\n      0x20\n      add\n      swap1\n      dup2\n      mstore\n      0x20\n      add\n      0x00\n      keccak256\n      0x00\n      swap1\n      sload\n      swap1\n      0x0100\n      exp\n      swap1\n      div\n      0xff\n      and\n        /* \"saf.sol\":14249:14268  !_isFeeExempt[from] */\n      iszero\n        /* \"saf.sol\":14204:14268  (pair == from || pair == to) &&\r... */\n    tag_500:\n        /* \"saf.sol\":14183:14268  return \r... */\n      swap1\n      pop\n        /* \"saf.sol\":14062:14276  function shouldTakeFee(address from, address to)\r... */\n      swap3\n      swap2\n      pop\n      pop\n      jump\t// out\n        /* \"saf.sol\":11684:12740  function takeFee(\r... */\n    tag_423:\n        /* \"saf.sol\":11808:11815  uint256 */\n      0x00\n        /* \"saf.sol\":11828:11845  uint256 _totalFee */\n      dup1\n        /* \"saf.sol\":11848:11856  totalFee */\n      sload(0x0c)\n        /* \"saf.sol\":11828:11856  uint256 _totalFee = totalFee */\n      swap1\n      pop\n        /* \"saf.sol\":11867:11887  uint256 _treasuryFee */\n      0x00\n        /* \"saf.sol\":11890:11901  treasuryFee */\n      sload(0x08)\n        /* \"saf.sol\":11867:11901  uint256 _treasuryFee = treasuryFee */\n      swap1\n      pop\n        /* \"saf.sol\":11931:11935  pair */\n      0x15\n      0x00\n      swap1\n      sload\n      swap1\n      0x0100\n      exp\n      swap1\n      div\n      0xffffffffffffffffffffffffffffffffffffffff\n      and\n        /* \"saf.sol\":11918:11935  recipient == pair */\n      0xffffffffffffffffffffffffffffffffffffffff\n      and\n        /* \"saf.sol\":11918:11927  recipient */\n      dup6\n        /* \"saf.sol\":11918:11935  recipient == pair */\n      0xffffffffffffffffffffffffffffffffffffffff\n      and\n      eq\n        /* \"saf.sol\":11914:12051  if (recipient == pair) {\r... */\n      iszero\n      tag_502\n      jumpi\n        /* \"saf.sol\":11964:11985  totalFee.add(sellFee) */\n      tag_503\n        /* \"saf.sol\":11977:11984  sellFee */\n      sload(0x0a)\n        /* \"saf.sol\":11964:11972  totalFee */\n      sload(0x0c)\n        /* \"saf.sol\":11964:11976  totalFee.add */\n      tag_273\n      swap1\n        /* \"saf.sol\":11964:11985  totalFee.add(sellFee) */\n      swap2\n      swap1\n      0xffffffff\n      and\n      jump\t// in\n    tag_503:\n        /* \"saf.sol\":11952:11985  _totalFee = totalFee.add(sellFee) */\n      swap2\n      pop\n        /* \"saf.sol\":12015:12039  treasuryFee.add(sellFee) */\n      tag_504\n        /* \"saf.sol\":12031:12038  sellFee */\n      sload(0x0a)\n        /* \"saf.sol\":12015:12026  treasuryFee */\n      sload(0x08)\n        /* \"saf.sol\":12015:12030  treasuryFee.add */\n      tag_273\n      swap1\n        /* \"saf.sol\":12015:12039  treasuryFee.add(sellFee) */\n      swap2\n      swap1\n      0xffffffff\n      and\n      jump\t// in\n    tag_504:\n        /* \"saf.sol\":12000:12039  _treasuryFee = treasuryFee.add(sellFee) */\n      swap1\n      pop\n        /* \"saf.sol\":11914:12051  if (recipient == pair) {\r... */\n    tag_502:\n        /* \"saf.sol\":12063:12080  uint256 feeAmount */\n      0x00\n        /* \"saf.sol\":12083:12127  gonAmount.div(feeDenominator).mul(_totalFee) */\n      tag_505\n        /* \"saf.sol\":12117:12126  _totalFee */\n      dup4\n        /* \"saf.sol\":12083:12112  gonAmount.div(feeDenominator) */\n      tag_506\n        /* \"saf.sol\":12097:12111  feeDenominator */\n      sload(0x0d)\n        /* \"saf.sol\":12083:12092  gonAmount */\n      dup9\n        /* \"saf.sol\":12083:12096  gonAmount.div */\n      tag_274\n      swap1\n        /* \"saf.sol\":12083:12112  gonAmount.div(feeDenominator) */\n      swap2\n      swap1\n      0xffffffff\n      and\n      jump\t// in\n    tag_506:\n        /* \"saf.sol\":12083:12116  gonAmount.div(feeDenominator).mul */\n      tag_372\n      swap1\n        /* \"saf.sol\":12083:12127  gonAmount.div(feeDenominator).mul(_totalFee) */\n      swap2\n      swap1\n      0xffffffff\n      and\n      jump\t// in\n    tag_505:\n        /* \"saf.sol\":12063:12127  uint256 feeAmount = gonAmount.div(feeDenominator).mul(_totalFee) */\n      swap1\n      pop\n        /* \"saf.sol\":12171:12267  _gonBalances[firePit].add(\r... */\n      tag_507\n        /* \"saf.sol\":12211:12256  gonAmount.div(feeDenominator).mul(firePitFee) */\n      tag_508\n        /* \"saf.sol\":12245:12255  firePitFee */\n      sload(0x0b)\n        /* \"saf.sol\":12211:12240  gonAmount.div(feeDenominator) */\n      tag_509\n        /* \"saf.sol\":12225:12239  feeDenominator */\n      sload(0x0d)\n        /* \"saf.sol\":12211:12220  gonAmount */\n      dup10\n        /* \"saf.sol\":12211:12224  gonAmount.div */\n      tag_274\n      swap1\n        /* \"saf.sol\":12211:12240  gonAmount.div(feeDenominator) */\n      swap2\n      swap1\n      0xffffffff\n      and\n      jump\t// in\n    tag_509:\n        /* \"saf.sol\":12211:12244  gonAmount.div(feeDenominator).mul */\n      tag_372\n      swap1\n        /* \"saf.sol\":12211:12256  gonAmount.div(feeDenominator).mul(firePitFee) */\n      swap2\n      swap1\n      0xffffffff\n      and\n      jump\t// in\n    tag_508:\n        /* \"saf.sol\":12171:12183  _gonBalances */\n      0x1b\n        /* \"saf.sol\":12171:12192  _gonBalances[firePit] */\n      0x00\n        /* \"saf.sol\":12184:12191  firePit */\n      0x13\n      0x00\n      swap1\n      sload\n      swap1\n      0x0100\n      exp\n      swap1\n      div\n      0xffffffffffffffffffffffffffffffffffffffff\n      and\n        /* \"saf.sol\":12171:12192  _gonBalances[firePit] */\n      0xffffffffffffffffffffffffffffffffffffffff\n      and\n      0xffffffffffffffffffffffffffffffffffffffff\n      and\n      dup2\n      mstore\n      0x20\n      add\n      swap1\n      dup2\n      mstore\n      0x20\n      add\n      0x00\n      keccak256\n      sload\n        /* \"saf.sol\":12171:12196  _gonBalances[firePit].add */\n      tag_273\n      swap1\n        /* \"saf.sol\":12171:12267  _gonBalances[firePit].add(\r... */\n      swap2\n      swap1\n      0xffffffff\n      and\n      jump\t// in\n    tag_507:\n        /* \"saf.sol\":12147:12159  _gonBalances */\n      0x1b\n        /* \"saf.sol\":12147:12168  _gonBalances[firePit] */\n      0x00\n        /* \"saf.sol\":12160:12167  firePit */\n      0x13\n      0x00\n      swap1\n      sload\n      swap1\n      0x0100\n      exp\n      swap1\n      div\n      0xffffffffffffffffffffffffffffffffffffffff\n      and\n        /* \"saf.sol\":12147:12168  _gonBalances[firePit] */\n      0xffffffffffffffffffffffffffffffffffffffff\n      and\n      0xffffffffffffffffffffffffffffffffffffffff\n      and\n      dup2\n      mstore\n      0x20\n      add\n      swap1\n      dup2\n      mstore\n      0x20\n      add\n      0x00\n      keccak256\n        /* \"saf.sol\":12147:12267  _gonBalances[firePit] = _gonBalances[firePit].add(\r... */\n      dup2\n      swap1\n      sstore\n      pop\n        /* \"saf.sol\":12308:12439  _gonBalances[address(this)].add(\r... */\n      tag_510\n        /* \"saf.sol\":12354:12428  gonAmount.div(feeDenominator).mul(_treasuryFee.add(safuuInsuranceFundFee)) */\n      tag_511\n        /* \"saf.sol\":12388:12427  _treasuryFee.add(safuuInsuranceFundFee) */\n      tag_512\n        /* \"saf.sol\":12405:12426  safuuInsuranceFundFee */\n      sload(0x09)\n        /* \"saf.sol\":12388:12400  _treasuryFee */\n      dup6\n        /* \"saf.sol\":12388:12404  _treasuryFee.add */\n      tag_273\n      swap1\n        /* \"saf.sol\":12388:12427  _treasuryFee.add(safuuInsuranceFundFee) */\n      swap2\n      swap1\n      0xffffffff\n      and\n      jump\t// in\n    tag_512:\n        /* \"saf.sol\":12354:12383  gonAmount.div(feeDenominator) */\n      tag_513\n        /* \"saf.sol\":12368:12382  feeDenominator */\n      sload(0x0d)\n        /* \"saf.sol\":12354:12363  gonAmount */\n      dup10\n        /* \"saf.sol\":12354:12367  gonAmount.div */\n      tag_274\n      swap1\n        /* \"saf.sol\":12354:12383  gonAmount.div(feeDenominator) */\n      swap2\n      swap1\n      0xffffffff\n      and\n      jump\t// in\n    tag_513:\n        /* \"saf.sol\":12354:12387  gonAmount.div(feeDenominator).mul */\n      tag_372\n      swap1\n        /* \"saf.sol\":12354:12428  gonAmount.div(feeDenominator).mul(_treasuryFee.add(safuuInsuranceFundFee)) */\n      swap2\n      swap1\n      0xffffffff\n      and\n      jump\t// in\n    tag_511:\n        /* \"saf.sol\":12308:12320  _gonBalances */\n      0x1b\n        /* \"saf.sol\":12308:12335  _gonBalances[address(this)] */\n      0x00\n        /* \"saf.sol\":12329:12333  this */\n      address\n        /* \"saf.sol\":12308:12335  _gonBalances[address(this)] */\n      0xffffffffffffffffffffffffffffffffffffffff\n      and\n      0xffffffffffffffffffffffffffffffffffffffff\n      and\n      dup2\n      mstore\n      0x20\n      add\n      swap1\n      dup2\n      mstore\n      0x20\n      add\n      0x00\n      keccak256\n      sload\n        /* \"saf.sol\":12308:12339  _gonBalances[address(this)].add */\n      tag_273\n      swap1\n        /* \"saf.sol\":12308:12439  _gonBalances[address(this)].add(\r... */\n      swap2\n      swap1\n      0xffffffff\n      and\n      jump\t// in\n    tag_510:\n        /* \"saf.sol\":12278:12290  _gonBalances */\n      0x1b\n        /* \"saf.sol\":12278:12305  _gonBalances[address(this)] */\n      0x00\n        /* \"saf.sol\":12299:12303  this */\n      address\n        /* \"saf.sol\":12278:12305  _gonBalances[address(this)] */\n      0xffffffffffffffffffffffffffffffffffffffff\n      and\n      0xffffffffffffffffffffffffffffffffffffffff\n      and\n      dup2\n      mstore\n      0x20\n      add\n      swap1\n      dup2\n      mstore\n      0x20\n      add\n      0x00\n      keccak256\n        /* \"saf.sol\":12278:12439  _gonBalances[address(this)] = _gonBalances[address(this)].add(\r... */\n      dup2\n      swap1\n      sstore\n      pop\n        /* \"saf.sol\":12488:12600  _gonBalances[autoLiquidityReceiver].add(\r... */\n      tag_514\n        /* \"saf.sol\":12542:12589  gonAmount.div(feeDenominator).mul(liquidityFee) */\n      tag_515\n        /* \"saf.sol\":12576:12588  liquidityFee */\n      sload(0x07)\n        /* \"saf.sol\":12542:12571  gonAmount.div(feeDenominator) */\n      tag_516\n        /* \"saf.sol\":12556:12570  feeDenominator */\n      sload(0x0d)\n        /* \"saf.sol\":12542:12551  gonAmount */\n      dup10\n        /* \"saf.sol\":12542:12555  gonAmount.div */\n      tag_274\n      swap1\n        /* \"saf.sol\":12542:12571  gonAmount.div(feeDenominator) */\n      swap2\n      swap1\n      0xffffffff\n      and\n      jump\t// in\n    tag_516:\n        /* \"saf.sol\":12542:12575  gonAmount.div(feeDenominator).mul */\n      tag_372\n      swap1\n        /* \"saf.sol\":12542:12589  gonAmount.div(feeDenominator).mul(liquidityFee) */\n      swap2\n      swap1\n      0xffffffff\n      and\n      jump\t// in\n    tag_515:\n        /* \"saf.sol\":12488:12500  _gonBalances */\n      0x1b\n        /* \"saf.sol\":12488:12523  _gonBalances[autoLiquidityReceiver] */\n      0x00\n        /* \"saf.sol\":12501:12522  autoLiquidityReceiver */\n      0x10\n      0x00\n      swap1\n      sload\n      swap1\n      0x0100\n      exp\n      swap1\n      div\n      0xffffffffffffffffffffffffffffffffffffffff\n      and\n        /* \"saf.sol\":12488:12523  _gonBalances[autoLiquidityReceiver] */\n      0xffffffffffffffffffffffffffffffffffffffff\n      and\n      0xffffffffffffffffffffffffffffffffffffffff\n      and\n      dup2\n      mstore\n      0x20\n      add\n      swap1\n      dup2\n      mstore\n      0x20\n      add\n      0x00\n      keccak256\n      sload\n        /* \"saf.sol\":12488:12527  _gonBalances[autoLiquidityReceiver].add */\n      tag_273\n      swap1\n        /* \"saf.sol\":12488:12600  _gonBalances[autoLiquidityReceiver].add(\r... */\n      swap2\n      swap1\n      0xffffffff\n      and\n      jump\t// in\n    tag_514:\n        /* \"saf.sol\":12450:12462  _gonBalances */\n      0x1b\n        /* \"saf.sol\":12450:12485  _gonBalances[autoLiquidityReceiver] */\n      0x00\n        /* \"saf.sol\":12463:12484  autoLiquidityReceiver */\n      0x10\n      0x00\n      swap1\n      sload\n      swap1\n      0x0100\n      exp\n      swap1\n      div\n      0xffffffffffffffffffffffffffffffffffffffff\n      and\n        /* \"saf.sol\":12450:12485  _gonBalances[autoLiquidityReceiver] */\n      0xffffffffffffffffffffffffffffffffffffffff\n      and\n      0xffffffffffffffffffffffffffffffffffffffff\n      and\n      dup2\n      mstore\n      0x20\n      add\n      swap1\n      dup2\n      mstore\n      0x20\n      add\n      0x00\n      keccak256\n        /* \"saf.sol\":12450:12600  _gonBalances[autoLiquidityReceiver] = _gonBalances[autoLiquidityReceiver].add(\r... */\n      dup2\n      swap1\n      sstore\n      pop\n        /* \"saf.sol\":12651:12655  this */\n      address\n        /* \"saf.sol\":12626:12690  Transfer(sender, address(this), feeAmount.div(_gonsPerFragment)) */\n      0xffffffffffffffffffffffffffffffffffffffff\n      and\n        /* \"saf.sol\":12635:12641  sender */\n      dup8\n        /* \"saf.sol\":12626:12690  Transfer(sender, address(this), feeAmount.div(_gonsPerFragment)) */\n      0xffffffffffffffffffffffffffffffffffffffff\n      and\n      0xddf252ad1be2c89b69c2b068fc378daa952ba7f163c4a11628f55a4df523b3ef\n        /* \"saf.sol\":12658:12689  feeAmount.div(_gonsPerFragment) */\n      tag_517\n        /* \"saf.sol\":12672:12688  _gonsPerFragment */\n      sload(0x1a)\n        /* \"saf.sol\":12658:12667  feeAmount */\n      dup6\n        /* \"saf.sol\":12658:12671  feeAmount.div */\n      tag_274\n      swap1\n        /* \"saf.sol\":12658:12689  feeAmount.div(_gonsPerFragment) */\n      swap2\n      swap1\n      0xffffffff\n      and\n      jump\t// in\n    tag_517:\n        /* \"saf.sol\":12626:12690  Transfer(sender, address(this), feeAmount.div(_gonsPerFragment)) */\n      mload(0x40)\n      dup1\n      dup3\n      dup2\n      mstore\n      0x20\n      add\n      swap2\n      pop\n      pop\n      mload(0x40)\n      dup1\n      swap2\n      sub\n      swap1\n      log3\n        /* \"saf.sol\":12708:12732  gonAmount.sub(feeAmount) */\n      tag_518\n        /* \"saf.sol\":12722:12731  feeAmount */\n      dup2\n        /* \"saf.sol\":12708:12717  gonAmount */\n      dup7\n        /* \"saf.sol\":12708:12721  gonAmount.sub */\n      tag_294\n      swap1\n        /* \"saf.sol\":12708:12732  gonAmount.sub(feeAmount) */\n      swap2\n      swap1\n      0xffffffff\n      and\n      jump\t// in\n    tag_518:\n        /* \"saf.sol\":12701:12732  return gonAmount.sub(feeAmount) */\n      swap4\n      pop\n      pop\n      pop\n      pop\n        /* \"saf.sol\":11684:12740  function takeFee(\r... */\n      swap4\n      swap3\n      pop\n      pop\n      pop\n      jump\t// out\n    stop\n    data_02b80227d7ee5be30ffaddd176f79d825f278320e9e030ccf3d6dcded5203c3c 5468657265206973206e6f20536166757520746f6b656e206465706f736974656420696e20746f6b656e20636f6e7472616374\n    data_9113bb53c2876a3805b2c9242029423fc540a728243ce887ab24c82cf119fba3 536166654d6174683a206d756c7469706c69636174696f6e206f766572666c6f77\n    data_a9fc452bf136d05a2ea42cd97645774b862952c28b211935b1074bbb4b1bbfcc 6f6e6c7920636f6e747261637420616464726573732c206e6f7420616c6c6f776564206578746572616e6c6c79206f776e6564206163636f756e74\n\n    auxdata: 0xa26469706673582212208bed4b6c6d88eb79df29d1727230ee65689e801d4249bdaf576414e221a3a7f164736f6c63430007040033\n}\n",
				"bytecode": {
					"linkReferences": {},
					"object": "60806040526040518060400160405280600581526020017f5361667575000000000000000000000000000000000000000000000000000000815250600390805190602001906200005192919062000aa7565b506040518060400160405280600581526020017f5341465555000000000000000000000000000000000000000000000000000000815250600490805190602001906200009f92919062000aa7565b5060058060006101000a81548160ff021916908360ff1602179055506028600755601960085560326009556014600a556019600b5562000128600b5462000114600954620001006008546007546200080660201b6200289b1790919060201c565b6200080660201b6200289b1790919060201c565b6200080660201b6200289b1790919060201c565b600c556103e8600d5561dead600e60006101000a81548173ffffffffffffffffffffffffffffffffffffffff021916908373ffffffffffffffffffffffffffffffffffffffff1602179055506000600f60006101000a81548173ffffffffffffffffffffffffffffffffffffffff021916908373ffffffffffffffffffffffffffffffffffffffff16021790555060016014806101000a81548160ff0219169083151502179055506000601560146101000a81548160ff021916908315150217905550348015620001f857600080fd5b506040518060400160405280600581526020017f53616675750000000000000000000000000000000000000000000000000000008152506040518060400160405280600581526020017f5341465555000000000000000000000000000000000000000000000000000000815250600582600090805190602001906200027f92919062000aa7565b5081600190805190602001906200029892919062000aa7565b5080600260006101000a81548160ff021916908360ff16021790555050505033600260016101000a81548173ffffffffffffffffffffffffffffffffffffffff021916908373ffffffffffffffffffffffffffffffffffffffff160217905550735562640b953b6c2f79a655e930afa68b2a65c627601060006101000a81548173ffffffffffffffffffffffffffffffffffffffff021916908373ffffffffffffffffffffffffffffffffffffffff16021790555073a9c6d0cc785569b450393a69599e97faed5d9dd9601160006101000a81548173ffffffffffffffffffffffffffffffffffffffff021916908373ffffffffffffffffffffffffffffffffffffffff16021790555073082d0fbca3d80b2d4a05e20bfc227523be8efef3601260006101000a81548173ffffffffffffffffffffffffffffffffffffffff021916908373ffffffffffffffffffffffffffffffffffffffff16021790555073aa32c984afdfa6b95e88b8ab7fabfa65de89b98c601360006101000a81548173ffffffffffffffffffffffffffffffffffffffff021916908373ffffffffffffffffffffffffffffffffffffffff1602179055507fffffffffffffffffffffffffffffffffffffffffffffffffffffffffffffffff601c60003073ffffffffffffffffffffffffffffffffffffffff1673ffffffffffffffffffffffffffffffffffffffff16815260200190815260200160002060007310ed43c718714eb63d5aa57b78b54704e256024e73ffffffffffffffffffffffffffffffffffffffff1673ffffffffffffffffffffffffffffffffffffffff16815260200190815260200160002081905550601560009054906101000a900473ffffffffffffffffffffffffffffffffffffffff16601460006101000a81548173ffffffffffffffffffffffffffffffffffffffff021916908373ffffffffffffffffffffffffffffffffffffffff1602179055506005600a0a6204f588026019819055506005600a0a6204f58802600019816200058957fe5b0660001903601b6000601160009054906101000a900473ffffffffffffffffffffffffffffffffffffffff1673ffffffffffffffffffffffffffffffffffffffff1673ffffffffffffffffffffffffffffffffffffffff16815260200190815260200160002081905550620006286019546005600a0a6204f58802600019816200060f57fe5b06600019036200088f60201b620029231790919060201c565b601a81905550426016819055504260178190555060016015806101000a81548160ff0219169083151502179055506001601560166101000a81548160ff021916908315150217905550600160066000601160009054906101000a900473ffffffffffffffffffffffffffffffffffffffff1673ffffffffffffffffffffffffffffffffffffffff1673ffffffffffffffffffffffffffffffffffffffff16815260200190815260200160002060006101000a81548160ff0219169083151502179055506001600660003073ffffffffffffffffffffffffffffffffffffffff1673ffffffffffffffffffffffffffffffffffffffff16815260200190815260200160002060006101000a81548160ff02191690831515021790555062000776601160009054906101000a900473ffffffffffffffffffffffffffffffffffffffff16620008e160201b60201c565b601160009054906101000a900473ffffffffffffffffffffffffffffffffffffffff1673ffffffffffffffffffffffffffffffffffffffff16600073ffffffffffffffffffffffffffffffffffffffff167fddf252ad1be2c89b69c2b068fc378daa952ba7f163c4a11628f55a4df523b3ef6019546040518082815260200191505060405180910390a362000b5d565b60008082840190508381101562000885576040517f08c379a000000000000000000000000000000000000000000000000000000000815260040180806020018281038252601b8152602001807f536166654d6174683a206164646974696f6e206f766572666c6f77000000000081525060200191505060405180910390fd5b8091505092915050565b6000620008d983836040518060400160405280601a81526020017f536166654d6174683a206469766973696f6e206279207a65726f000000000000815250620009dc60201b60201c565b905092915050565b600073ffffffffffffffffffffffffffffffffffffffff168173ffffffffffffffffffffffffffffffffffffffff1614156200091c57600080fd5b8073ffffffffffffffffffffffffffffffffffffffff16600260019054906101000a900473ffffffffffffffffffffffffffffffffffffffff1673ffffffffffffffffffffffffffffffffffffffff167f8be0079c531659141344cd1fd0a4f28419497f9722a3daafe3b4186f6b6457e060405160405180910390a380600260016101000a81548173ffffffffffffffffffffffffffffffffffffffff021916908373ffffffffffffffffffffffffffffffffffffffff16021790555050565b6000808311829062000a8c576040517f08c379a00000000000000000000000000000000000000000000000000000000081526004018080602001828103825283818151815260200191508051906020019080838360005b8381101562000a5057808201518184015260208101905062000a33565b50505050905090810190601f16801562000a7e5780820380516001836020036101000a031916815260200191505b509250505060405180910390fd5b50600083858162000a9957fe5b049050809150509392505050565b828054600181600116156101000203166002900490600052602060002090601f01602090048101928262000adf576000855562000b2b565b82601f1062000afa57805160ff191683800117855562000b2b565b8280016001018555821562000b2b579182015b8281111562000b2a57825182559160200191906001019062000b0d565b5b50905062000b3a919062000b3e565b5090565b5b8082111562000b5957600081600090555060010162000b3f565b5090565b613de28062000b6d6000396000f3fe6080604052600436106103545760003560e01c8063753d02a1116101c6578063a9059cbb116100f7578063d28d885211610095578063dd62ed3e1161006f578063dd62ed3e1461114a578063e15beb80146111cf578063f2fde38b1461120c578063f9f92be41461125d5761035b565b8063d28d885214611004578063d439979014611094578063d51ed1c8146110fb5761035b565b8063bd595581116100d1578063bd59558114610f44578063ca33e64c14610f5b578063cc32d17614610f9c578063cfbac92f14610fc75761035b565b8063a9059cbb14610e16578063afb9cf6d14610e87578063b09f126614610eb45761035b565b80639b2912cc11610164578063a457c2d71161013e578063a457c2d714610cf8578063a6cf729314610d69578063a8aa1b3114610d94578063a8b0898214610dd55761035b565b80639b2912cc14610c515780639b87676c14610c7c578063a22d483214610ca75761035b565b80638da5cb5b116101a05780638da5cb5b14610b285780638f32d59b14610b6957806395d89b4114610b9657806398118cb414610c265761035b565b8063753d02a114610a9357806383b4ac6814610aaa578063854cff2f14610ad75761035b565b806332b75683116102a057806349d981421161023e5780636912652c116102185780636912652c146109bd5780636ddd1713146109ea57806370a0823114610a17578063715018a614610a7c5761035b565b806349d98142146109235780634de41e83146109645780635a604c521461098f5761035b565b8063395093511161027a57806339509351146107955780633b91aca9146108065780633c8e556d146108475780633eaaf86b146108f85761035b565b806332b75683146106e257806333a581d21461070d57806337c9be87146107385761035b565b806323b872dd1161030d5780632e0f2625116102e75780632e0f26251461060a5780632f34d28214610635578063313ce5671461068657806332424aa3146106b45761035b565b806323b872dd146105235780632b112e49146105b45780632b14ca56146105df5761035b565b806306fdde031461036057806308b1fd8f146103f0578063095ea7b314610431578063180b0d7e146104a257806318160ddd146104cd5780631df4ccfc146104f85761035b565b3661035b57005b600080fd5b34801561036c57600080fd5b506103756112c4565b6040518080602001828103825283818151815260200191508051906020019080838360005b838110156103b557808201518184015260208101905061039a565b50505050905090810190601f1680156103e25780820380516001836020036101000a031916815260200191505b509250505060405180910390f35b3480156103fc57600080fd5b50610405611366565b604051808273ffffffffffffffffffffffffffffffffffffffff16815260200191505060405180910390f35b34801561043d57600080fd5b5061048a6004803603604081101561045457600080fd5b81019080803573ffffffffffffffffffffffffffffffffffffffff1690602001909291908035906020019092919050505061138c565b60405180821515815260200191505060405180910390f35b3480156104ae57600080fd5b506104b761147e565b6040518082815260200191505060405180910390f35b3480156104d957600080fd5b506104e2611484565b6040518082815260200191505060405180910390f35b34801561050457600080fd5b5061050d61148e565b6040518082815260200191505060405180910390f35b34801561052f57600080fd5b5061059c6004803603606081101561054657600080fd5b81019080803573ffffffffffffffffffffffffffffffffffffffff169060200190929190803573ffffffffffffffffffffffffffffffffffffffff16906020019092919080359060200190929190505050611494565b60405180821515815260200191505060405180910390f35b3480156105c057600080fd5b506105c96116d3565b6040518082815260200191505060405180910390f35b3480156105eb57600080fd5b506105f46117ed565b6040518082815260200191505060405180910390f35b34801561061657600080fd5b5061061f6117f3565b6040518082815260200191505060405180910390f35b34801561064157600080fd5b506106846004803603602081101561065857600080fd5b81019080803573ffffffffffffffffffffffffffffffffffffffff1690602001909291905050506117f8565b005b34801561069257600080fd5b5061069b61180c565b604051808260ff16815260200191505060405180910390f35b3480156106c057600080fd5b506106c9611823565b604051808260ff16815260200191505060405180910390f35b3480156106ee57600080fd5b506106f7611836565b6040518082815260200191505060405180910390f35b34801561071957600080fd5b5061072261183c565b6040518082815260200191505060405180910390f35b34801561074457600080fd5b506107936004803603604081101561075b57600080fd5b81019080803573ffffffffffffffffffffffffffffffffffffffff169060200190929190803515159060200190929190505050611842565b005b3480156107a157600080fd5b506107ee600480360360408110156107b857600080fd5b81019080803573ffffffffffffffffffffffffffffffffffffffff1690602001909291908035906020019092919050505061190c565b60405180821515815260200191505060405180910390f35b34801561081257600080fd5b5061081b611b08565b604051808273ffffffffffffffffffffffffffffffffffffffff16815260200191505060405180910390f35b34801561085357600080fd5b506108f66004803603608081101561086a57600080fd5b81019080803573ffffffffffffffffffffffffffffffffffffffff169060200190929190803573ffffffffffffffffffffffffffffffffffffffff169060200190929190803573ffffffffffffffffffffffffffffffffffffffff169060200190929190803573ffffffffffffffffffffffffffffffffffffffff169060200190929190505050611b2e565b005b34801561090457600080fd5b5061090d611c49565b6040518082815260200191505060405180910390f35b34801561092f57600080fd5b50610938611c4f565b604051808273ffffffffffffffffffffffffffffffffffffffff16815260200191505060405180910390f35b34801561097057600080fd5b50610979611c75565b6040518082815260200191505060405180910390f35b34801561099b57600080fd5b506109a4611c7b565b604051808260ff16815260200191505060405180910390f35b3480156109c957600080fd5b506109d2611c80565b60405180821515815260200191505060405180910390f35b3480156109f657600080fd5b506109ff611c93565b60405180821515815260200191505060405180910390f35b348015610a2357600080fd5b50610a6660048036036020811015610a3a57600080fd5b81019080803573ffffffffffffffffffffffffffffffffffffffff169060200190929190505050611ca4565b6040518082815260200191505060405180910390f35b348015610a8857600080fd5b50610a91611d01565b005b348015610a9f57600080fd5b50610aa8611dbb565b005b348015610ab657600080fd5b50610abf611dbd565b60405180821515815260200191505060405180910390f35b348015610ae357600080fd5b50610b2660048036036020811015610afa57600080fd5b81019080803573ffffffffffffffffffffffffffffffffffffffff169060200190929190505050611dd5565b005b348015610b3457600080fd5b50610b3d611e41565b604051808273ffffffffffffffffffffffffffffffffffffffff16815260200191505060405180910390f35b348015610b7557600080fd5b50610b7e611e6b565b60405180821515815260200191505060405180910390f35b348015610ba257600080fd5b50610bab611ec3565b6040518080602001828103825283818151815260200191508051906020019080838360005b83811015610beb578082015181840152602081019050610bd0565b50505050905090810190601f168015610c185780820380516001836020036101000a031916815260200191505b509250505060405180910390f35b348015610c3257600080fd5b50610c3b611f65565b6040518082815260200191505060405180910390f35b348015610c5d57600080fd5b50610c66611f6b565b6040518082815260200191505060405180910390f35b348015610c8857600080fd5b50610c91611f71565b6040518082815260200191505060405180910390f35b348015610cb357600080fd5b50610cf660048036036020811015610cca57600080fd5b81019080803573ffffffffffffffffffffffffffffffffffffffff169060200190929190505050611f77565b005b348015610d0457600080fd5b50610d5160048036036040811015610d1b57600080fd5b81019080803573ffffffffffffffffffffffffffffffffffffffff16906020019092919080359060200190929190505050611fcc565b60405180821515815260200191505060405180910390f35b348015610d7557600080fd5b50610d7e61225c565b6040518082815260200191505060405180910390f35b348015610da057600080fd5b50610da9612262565b604051808273ffffffffffffffffffffffffffffffffffffffff16815260200191505060405180910390f35b348015610de157600080fd5b50610dea612288565b604051808273ffffffffffffffffffffffffffffffffffffffff16815260200191505060405180910390f35b348015610e2257600080fd5b50610e6f60048036036040811015610e3957600080fd5b81019080803573ffffffffffffffffffffffffffffffffffffffff169060200190929190803590602001909291905050506122ae565b60405180821515815260200191505060405180910390f35b348015610e9357600080fd5b50610e9c612302565b60405180821515815260200191505060405180910390f35b348015610ec057600080fd5b50610ec9612313565b6040518080602001828103825283818151815260200191508051906020019080838360005b83811015610f09578082015181840152602081019050610eee565b50505050905090810190601f168015610f365780820380516001836020036101000a031916815260200191505b509250505060405180910390f35b348015610f5057600080fd5b50610f596123b1565b005b348015610f6757600080fd5b50610f70612541565b604051808273ffffffffffffffffffffffffffffffffffffffff16815260200191505060405180910390f35b348015610fa857600080fd5b50610fb1612567565b6040518082815260200191505060405180910390f35b348015610fd357600080fd5b5061100260048036036020811015610fea57600080fd5b8101908080351515906020019092919050505061256d565b005b34801561101057600080fd5b506110196125c8565b6040518080602001828103825283818151815260200191508051906020019080838360005b8381101561105957808201518184015260208101905061103e565b50505050905090810190601f1680156110865780820380516001836020036101000a031916815260200191505b509250505060405180910390f35b3480156110a057600080fd5b506110e3600480360360208110156110b757600080fd5b81019080803573ffffffffffffffffffffffffffffffffffffffff169060200190929190505050612666565b60405180821515815260200191505060405180910390f35b34801561110757600080fd5b506111346004803603602081101561111e57600080fd5b81019080803590602001909291905050506126bc565b6040518082815260200191505060405180910390f35b34801561115657600080fd5b506111b96004803603604081101561116d57600080fd5b81019080803573ffffffffffffffffffffffffffffffffffffffff169060200190929190803573ffffffffffffffffffffffffffffffffffffffff16906020019092919050505061277e565b6040518082815260200191505060405180910390f35b3480156111db57600080fd5b5061120a600480360360208110156111f257600080fd5b81019080803515159060200190929190505050612805565b005b34801561121857600080fd5b5061125b6004803603602081101561122f57600080fd5b81019080803573ffffffffffffffffffffffffffffffffffffffff16906020019092919050505061285e565b005b34801561126957600080fd5b506112ac6004803603602081101561128057600080fd5b81019080803573ffffffffffffffffffffffffffffffffffffffff16906020019092919050505061287b565b60405180821515815260200191505060405180910390f35b606060008054600181600116156101000203166002900480601f01602080910402602001604051908101604052809291908181526020018280546001816001161561010002031660029004801561135c5780601f106113315761010080835404028352916020019161135c565b820191906000526020600020905b81548152906001019060200180831161133f57829003601f168201915b5050505050905090565b601160009054906101000a900473ffffffffffffffffffffffffffffffffffffffff1681565b600081601c60003373ffffffffffffffffffffffffffffffffffffffff1673ffffffffffffffffffffffffffffffffffffffff16815260200190815260200160002060008573ffffffffffffffffffffffffffffffffffffffff1673ffffffffffffffffffffffffffffffffffffffff168152602001908152602001600020819055508273ffffffffffffffffffffffffffffffffffffffff163373ffffffffffffffffffffffffffffffffffffffff167f8c5be1e5ebec7d5bd14f71427d1e84f3dd0314c0f7b2291e5b200ac8c7c3b925846040518082815260200191505060405180910390a36001905092915050565b600d5481565b6000601954905090565b600c5481565b600082600073ffffffffffffffffffffffffffffffffffffffff168173ffffffffffffffffffffffffffffffffffffffff1614156114d157600080fd5b7fffffffffffffffffffffffffffffffffffffffffffffffffffffffffffffffff601c60008773ffffffffffffffffffffffffffffffffffffffff1673ffffffffffffffffffffffffffffffffffffffff16815260200190815260200160002060003373ffffffffffffffffffffffffffffffffffffffff1673ffffffffffffffffffffffffffffffffffffffff16815260200190815260200160002054146116bb5761163a836040518060400160405280601681526020017f496e73756666696369656e7420416c6c6f77616e636500000000000000000000815250601c60008973ffffffffffffffffffffffffffffffffffffffff1673ffffffffffffffffffffffffffffffffffffffff16815260200190815260200160002060003373ffffffffffffffffffffffffffffffffffffffff1673ffffffffffffffffffffffffffffffffffffffff1681526020019081526020016000205461296d9092919063ffffffff16565b601c60008773ffffffffffffffffffffffffffffffffffffffff1673ffffffffffffffffffffffffffffffffffffffff16815260200190815260200160002060003373ffffffffffffffffffffffffffffffffffffffff1673ffffffffffffffffffffffffffffffffffffffff168152602001908152602001600020819055505b6116c6858585612a2d565b5060019150509392505050565b60006117e8601a546117da601b6000600f60009054906101000a900473ffffffffffffffffffffffffffffffffffffffff1673ffffffffffffffffffffffffffffffffffffffff1673ffffffffffffffffffffffffffffffffffffffff168152602001908152602001600020546117cc601b6000600e60009054906101000a900473ffffffffffffffffffffffffffffffffffffffff1673ffffffffffffffffffffffffffffffffffffffff1673ffffffffffffffffffffffffffffffffffffffff168152602001908152602001600020546005600a0a6204f58802600019816117b957fe5b0660001903612d8f90919063ffffffff16565b612d8f90919063ffffffff16565b61292390919063ffffffff16565b905090565b600a5481565b600581565b611800611e6b565b61180957600080fd5b50565b6000600260009054906101000a900460ff16905090565b600560009054906101000a900460ff1681565b60175481565b60001981565b61184a611e6b565b61185357600080fd5b61185c82612dd9565b6118b1576040517f08c379a000000000000000000000000000000000000000000000000000000000815260040180806020018281038252603b815260200180613d72603b913960400191505060405180910390fd5b80601d60008473ffffffffffffffffffffffffffffffffffffffff1673ffffffffffffffffffffffffffffffffffffffff16815260200190815260200160002060006101000a81548160ff0219169083151502179055505050565b600061199d82601c60003373ffffffffffffffffffffffffffffffffffffffff1673ffffffffffffffffffffffffffffffffffffffff16815260200190815260200160002060008673ffffffffffffffffffffffffffffffffffffffff1673ffffffffffffffffffffffffffffffffffffffff1681526020019081526020016000205461289b90919063ffffffff16565b601c60003373ffffffffffffffffffffffffffffffffffffffff1673ffffffffffffffffffffffffffffffffffffffff16815260200190815260200160002060008573ffffffffffffffffffffffffffffffffffffffff1673ffffffffffffffffffffffffffffffffffffffff168152602001908152602001600020819055508273ffffffffffffffffffffffffffffffffffffffff163373ffffffffffffffffffffffffffffffffffffffff167f8c5be1e5ebec7d5bd14f71427d1e84f3dd0314c0f7b2291e5b200ac8c7c3b925601c60003373ffffffffffffffffffffffffffffffffffffffff1673ffffffffffffffffffffffffffffffffffffffff16815260200190815260200160002060008773ffffffffffffffffffffffffffffffffffffffff1673ffffffffffffffffffffffffffffffffffffffff168152602001908152602001600020546040518082815260200191505060405180910390a36001905092915050565b601260009054906101000a900473ffffffffffffffffffffffffffffffffffffffff1681565b611b36611e6b565b611b3f57600080fd5b83601060006101000a81548173ffffffffffffffffffffffffffffffffffffffff021916908373ffffffffffffffffffffffffffffffffffffffff16021790555082601160006101000a81548173ffffffffffffffffffffffffffffffffffffffff021916908373ffffffffffffffffffffffffffffffffffffffff16021790555081601260006101000a81548173ffffffffffffffffffffffffffffffffffffffff021916908373ffffffffffffffffffffffffffffffffffffffff16021790555080601360006101000a81548173ffffffffffffffffffffffffffffffffffffffff021916908373ffffffffffffffffffffffffffffffffffffffff16021790555050505050565b60195481565b601360009054906101000a900473ffffffffffffffffffffffffffffffffffffffff1681565b60095481565b600781565b601560169054906101000a900460ff1681565b60148054906101000a900460ff1681565b6000611cfa601a54601b60008573ffffffffffffffffffffffffffffffffffffffff1673ffffffffffffffffffffffffffffffffffffffff1681526020019081526020016000205461292390919063ffffffff16565b9050919050565b611d09611e6b565b611d1257600080fd5b600260019054906101000a900473ffffffffffffffffffffffffffffffffffffffff1673ffffffffffffffffffffffffffffffffffffffff167ff8df31144d9c2f0f6b59d69b8b98abd5459d07f2742c4df920b25aae33c6482060405160405180910390a26000600260016101000a81548173ffffffffffffffffffffffffffffffffffffffff021916908373ffffffffffffffffffffffffffffffffffffffff160217905550565b565b6000601560149054906101000a900460ff1615905090565b611ddd611e6b565b611de657600080fd5b6001600660008373ffffffffffffffffffffffffffffffffffffffff1673ffffffffffffffffffffffffffffffffffffffff16815260200190815260200160002060006101000a81548160ff02191690831515021790555050565b6000600260019054906101000a900473ffffffffffffffffffffffffffffffffffffffff16905090565b6000600260019054906101000a900473ffffffffffffffffffffffffffffffffffffffff1673ffffffffffffffffffffffffffffffffffffffff163373ffffffffffffffffffffffffffffffffffffffff1614905090565b606060018054600181600116156101000203166002900480601f016020809104026020016040519081016040528092919081815260200182805460018160011615610100020316600290048015611f5b5780601f10611f3057610100808354040283529160200191611f5b565b820191906000526020600020905b815481529060010190602001808311611f3e57829003601f168201915b5050505050905090565b60075481565b60185481565b60165481565b611f7f611e6b565b611f8857600080fd5b80601460006101000a81548173ffffffffffffffffffffffffffffffffffffffff021916908373ffffffffffffffffffffffffffffffffffffffff16021790555050565b600080601c60003373ffffffffffffffffffffffffffffffffffffffff1673ffffffffffffffffffffffffffffffffffffffff16815260200190815260200160002060008573ffffffffffffffffffffffffffffffffffffffff1673ffffffffffffffffffffffffffffffffffffffff1681526020019081526020016000205490508083106120dc576000601c60003373ffffffffffffffffffffffffffffffffffffffff1673ffffffffffffffffffffffffffffffffffffffff16815260200190815260200160002060008673ffffffffffffffffffffffffffffffffffffffff1673ffffffffffffffffffffffffffffffffffffffff16815260200190815260200160002081905550612170565b6120ef8382612d8f90919063ffffffff16565b601c60003373ffffffffffffffffffffffffffffffffffffffff1673ffffffffffffffffffffffffffffffffffffffff16815260200190815260200160002060008673ffffffffffffffffffffffffffffffffffffffff1673ffffffffffffffffffffffffffffffffffffffff168152602001908152602001600020819055505b8373ffffffffffffffffffffffffffffffffffffffff163373ffffffffffffffffffffffffffffffffffffffff167f8c5be1e5ebec7d5bd14f71427d1e84f3dd0314c0f7b2291e5b200ac8c7c3b925601c60003373ffffffffffffffffffffffffffffffffffffffff1673ffffffffffffffffffffffffffffffffffffffff16815260200190815260200160002060008873ffffffffffffffffffffffffffffffffffffffff1673ffffffffffffffffffffffffffffffffffffffff168152602001908152602001600020546040518082815260200191505060405180910390a3600191505092915050565b600b5481565b601560009054906101000a900473ffffffffffffffffffffffffffffffffffffffff1681565b601460009054906101000a900473ffffffffffffffffffffffffffffffffffffffff1681565b600082600073ffffffffffffffffffffffffffffffffffffffff168173ffffffffffffffffffffffffffffffffffffffff1614156122eb57600080fd5b6122f6338585612a2d565b50600191505092915050565b60158054906101000a900460ff1681565b60048054600181600116156101000203166002900480601f0160208091040260200160405190810160405280929190818152602001828054600181600116156101000203166002900480156123a95780601f1061237e576101008083540402835291602001916123a9565b820191906000526020600020905b81548152906001019060200180831161238c57829003601f168201915b505050505081565b6001601560146101000a81548160ff0219169083151502179055506123d4611e6b565b6123dd57600080fd5b6000612433601a54601b60003073ffffffffffffffffffffffffffffffffffffffff1673ffffffffffffffffffffffffffffffffffffffff1681526020019081526020016000205461292390919063ffffffff16565b90506000811161248e576040517f08c379a0000000000000000000000000000000000000000000000000000000008152600401808060200182810382526033815260200180613d1e6033913960400191505060405180910390fd5b6060600267ffffffffffffffff811180156124a857600080fd5b506040519080825280602002602001820160405280156124d75781602001602082028036833780820191505090505b50905030816000815181106124e857fe5b602002602001019073ffffffffffffffffffffffffffffffffffffffff16908173ffffffffffffffffffffffffffffffffffffffff168152505050506000601560146101000a81548160ff021916908315150217905550565b601060009054906101000a900473ffffffffffffffffffffffffffffffffffffffff1681565b60085481565b612575611e6b565b61257e57600080fd5b80156125aa5780601560166101000a81548160ff021916908315150217905550426018819055506125c5565b80601560166101000a81548160ff0219169083151502179055505b50565b60038054600181600116156101000203166002900480601f01602080910402602001604051908101604052809291908181526020018280546001816001161561010002031660029004801561265e5780601f106126335761010080835404028352916020019161265e565b820191906000526020600020905b81548152906001019060200180831161264157829003601f168201915b505050505081565b6000600660008373ffffffffffffffffffffffffffffffffffffffff1673ffffffffffffffffffffffffffffffffffffffff16815260200190815260200160002060009054906101000a900460ff169050919050565b600080612735601a54601b6000601560009054906101000a900473ffffffffffffffffffffffffffffffffffffffff1673ffffffffffffffffffffffffffffffffffffffff1673ffffffffffffffffffffffffffffffffffffffff1681526020019081526020016000205461292390919063ffffffff16565b90506127766127426116d3565b612768612759600285612dec90919063ffffffff16565b86612dec90919063ffffffff16565b61292390919063ffffffff16565b915050919050565b6000601c60008473ffffffffffffffffffffffffffffffffffffffff1673ffffffffffffffffffffffffffffffffffffffff16815260200190815260200160002060008373ffffffffffffffffffffffffffffffffffffffff1673ffffffffffffffffffffffffffffffffffffffff16815260200190815260200160002054905092915050565b61280d611e6b565b61281657600080fd5b801561284157806015806101000a81548160ff0219169083151502179055504260178190555061285b565b806015806101000a81548160ff0219169083151502179055505b50565b612866611e6b565b61286f57600080fd5b61287881612e72565b50565b601d6020528060005260406000206000915054906101000a900460ff1681565b600080828401905083811015612919576040517f08c379a000000000000000000000000000000000000000000000000000000000815260040180806020018281038252601b8152602001807f536166654d6174683a206164646974696f6e206f766572666c6f77000000000081525060200191505060405180910390fd5b8091505092915050565b600061296583836040518060400160405280601a81526020017f536166654d6174683a206469766973696f6e206279207a65726f000000000000815250612f6c565b905092915050565b6000838311158290612a1a576040517f08c379a00000000000000000000000000000000000000000000000000000000081526004018080602001828103825283818151815260200191508051906020019080838360005b838110156129df5780820151818401526020810190506129c4565b50505050905090810190601f168015612a0c5780820380516001836020036101000a031916815260200191505b509250505060405180910390fd5b5060008385039050809150509392505050565b6000601d60008573ffffffffffffffffffffffffffffffffffffffff1673ffffffffffffffffffffffffffffffffffffffff16815260200190815260200160002060009054906101000a900460ff16158015612ad35750601d60008473ffffffffffffffffffffffffffffffffffffffff1673ffffffffffffffffffffffffffffffffffffffff16815260200190815260200160002060009054906101000a900460ff16155b612b45576040517f08c379a000000000000000000000000000000000000000000000000000000000815260040180806020018281038252600c8152602001807f696e5f626c61636b6c697374000000000000000000000000000000000000000081525060200191505060405180910390fd5b601560149054906101000a900460ff1615612b6c57612b65848484613032565b9050612d88565b612b74613182565b15612b8257612b81613233565b5b612b8a6133ec565b50612b93613489565b15612ba157612ba06134fb565b5b6000612bb8601a5484612dec90919063ffffffff16565b9050612c0c81601b60008873ffffffffffffffffffffffffffffffffffffffff1673ffffffffffffffffffffffffffffffffffffffff16815260200190815260200160002054612d8f90919063ffffffff16565b601b60008773ffffffffffffffffffffffffffffffffffffffff1673ffffffffffffffffffffffffffffffffffffffff168152602001908152602001600020819055506000612c5b86866137e8565b612c655781612c71565b612c708686846138f1565b5b9050612cc581601b60008873ffffffffffffffffffffffffffffffffffffffff1673ffffffffffffffffffffffffffffffffffffffff1681526020019081526020016000205461289b90919063ffffffff16565b601b60008773ffffffffffffffffffffffffffffffffffffffff1673ffffffffffffffffffffffffffffffffffffffff168152602001908152602001600020819055508473ffffffffffffffffffffffffffffffffffffffff168673ffffffffffffffffffffffffffffffffffffffff167fddf252ad1be2c89b69c2b068fc378daa952ba7f163c4a11628f55a4df523b3ef612d6c601a548561292390919063ffffffff16565b6040518082815260200191505060405180910390a36001925050505b9392505050565b6000612dd183836040518060400160405280601e81526020017f536166654d6174683a207375627472616374696f6e206f766572666c6f77000081525061296d565b905092915050565b600080823b905060008111915050919050565b600080831415612dff5760009050612e6c565b6000828402905082848281612e1057fe5b0414612e67576040517f08c379a0000000000000000000000000000000000000000000000000000000008152600401808060200182810382526021815260200180613d516021913960400191505060405180910390fd5b809150505b92915050565b600073ffffffffffffffffffffffffffffffffffffffff168173ffffffffffffffffffffffffffffffffffffffff161415612eac57600080fd5b8073ffffffffffffffffffffffffffffffffffffffff16600260019054906101000a900473ffffffffffffffffffffffffffffffffffffffff1673ffffffffffffffffffffffffffffffffffffffff167f8be0079c531659141344cd1fd0a4f28419497f9722a3daafe3b4186f6b6457e060405160405180910390a380600260016101000a81548173ffffffffffffffffffffffffffffffffffffffff021916908373ffffffffffffffffffffffffffffffffffffffff16021790555050565b60008083118290613018576040517f08c379a00000000000000000000000000000000000000000000000000000000081526004018080602001828103825283818151815260200191508051906020019080838360005b83811015612fdd578082015181840152602081019050612fc2565b50505050905090810190601f16801561300a5780820380516001836020036101000a031916815260200191505b509250505060405180910390fd5b50600083858161302457fe5b049050809150509392505050565b60008061304a601a5484612dec90919063ffffffff16565b905061309e81601b60008873ffffffffffffffffffffffffffffffffffffffff1673ffffffffffffffffffffffffffffffffffffffff16815260200190815260200160002054612d8f90919063ffffffff16565b601b60008773ffffffffffffffffffffffffffffffffffffffff1673ffffffffffffffffffffffffffffffffffffffff1681526020019081526020016000208190555061313381601b60008773ffffffffffffffffffffffffffffffffffffffff1673ffffffffffffffffffffffffffffffffffffffff1681526020019081526020016000205461289b90919063ffffffff16565b601b60008673ffffffffffffffffffffffffffffffffffffffff1673ffffffffffffffffffffffffffffffffffffffff1681526020019081526020016000208190555060019150509392505050565b600060158054906101000a900460ff1680156131a957506005600a0a63c1b7108002601954105b80156132035750601560009054906101000a900473ffffffffffffffffffffffffffffffffffffffff1673ffffffffffffffffffffffffffffffffffffffff163373ffffffffffffffffffffffffffffffffffffffff1614155b801561321c5750601560149054906101000a900460ff16155b801561322e5750610384601754014210155b905090565b601560149054906101000a900460ff161561324d576133ea565b6000806016544203905060006017544203905060006132776103848361292390919063ffffffff16565b9050600061328f600f83612dec90919063ffffffff16565b90506301e133808410156132a75761093394506132e2565b6301e1338084106132bb5760d394506132e1565b6302d1cd4084106132cf57600e94506132e0565b630d28688084106132df57600294505b5b5b5b60005b8281101561334757613334600760ff16600a0a61332661331589600760ff16600a0a61289b90919063ffffffff16565b601954612dec90919063ffffffff16565b61292390919063ffffffff16565b60198190555080806001019150506132e5565b506133756019546005600a0a6204f588026000198161336257fe5b066000190361292390919063ffffffff16565b601a819055506133a461339361038484612dec90919063ffffffff16565b60175461289b90919063ffffffff16565b601781905550807f72725a3b1e5bd622d6bcd1339bb31279c351abe8f541ac7fd320f24e1b1641f26019546040518082815260200191505060405180910390a250505050505b565b6000601560169054906101000a900460ff1680156134175750601560149054906101000a900460ff16155b80156134715750601560009054906101000a900473ffffffffffffffffffffffffffffffffffffffff1673ffffffffffffffffffffffffffffffffffffffff163373ffffffffffffffffffffffffffffffffffffffff1614155b801561348457506202a300601854014210155b905090565b6000601560149054906101000a900460ff161580156134f65750601560009054906101000a900473ffffffffffffffffffffffffffffffffffffffff1673ffffffffffffffffffffffffffffffffffffffff163373ffffffffffffffffffffffffffffffffffffffff1614155b905090565b6001601560146101000a81548160ff021916908315150217905550600061356c601a54601b60003073ffffffffffffffffffffffffffffffffffffffff1673ffffffffffffffffffffffffffffffffffffffff1681526020019081526020016000205461292390919063ffffffff16565b9050600081141561357d57506137cb565b60004790506060600267ffffffffffffffff8111801561359c57600080fd5b506040519080825280602002602001820160405280156135cb5781602001602082028036833780820191505090505b50905030816000815181106135dc57fe5b602002602001019073ffffffffffffffffffffffffffffffffffffffff16908173ffffffffffffffffffffffffffffffffffffffff1681525050600061362b8347612d8f90919063ffffffff16565b90506000601160009054906101000a900473ffffffffffffffffffffffffffffffffffffffff1673ffffffffffffffffffffffffffffffffffffffff166136a561368260095460085461289b90919063ffffffff16565b61369760085486612dec90919063ffffffff16565b61292390919063ffffffff16565b61753090604051806000019050600060405180830381858888f193505050503d80600081146136f0576040519150601f19603f3d011682016040523d82523d6000602084013e6136f5565b606091505b50509050601260009054906101000a900473ffffffffffffffffffffffffffffffffffffffff1673ffffffffffffffffffffffffffffffffffffffff1661376f61374c60095460085461289b90919063ffffffff16565b61376160095486612dec90919063ffffffff16565b61292390919063ffffffff16565b61753090604051806000019050600060405180830381858888f193505050503d80600081146137ba576040519150601f19603f3d011682016040523d82523d6000602084013e6137bf565b606091505b50508091505050505050505b6000601560146101000a81548160ff021916908315150217905550565b60008273ffffffffffffffffffffffffffffffffffffffff16601560009054906101000a900473ffffffffffffffffffffffffffffffffffffffff1673ffffffffffffffffffffffffffffffffffffffff16148061389357508173ffffffffffffffffffffffffffffffffffffffff16601560009054906101000a900473ffffffffffffffffffffffffffffffffffffffff1673ffffffffffffffffffffffffffffffffffffffff16145b80156138e95750600660008473ffffffffffffffffffffffffffffffffffffffff1673ffffffffffffffffffffffffffffffffffffffff16815260200190815260200160002060009054906101000a900460ff16155b905092915050565b600080600c54905060006008549050601560009054906101000a900473ffffffffffffffffffffffffffffffffffffffff1673ffffffffffffffffffffffffffffffffffffffff168573ffffffffffffffffffffffffffffffffffffffff1614156139895761396d600a54600c5461289b90919063ffffffff16565b9150613986600a5460085461289b90919063ffffffff16565b90505b60006139b2836139a4600d548861292390919063ffffffff16565b612dec90919063ffffffff16565b9050613a506139e0600b546139d2600d548961292390919063ffffffff16565b612dec90919063ffffffff16565b601b6000601360009054906101000a900473ffffffffffffffffffffffffffffffffffffffff1673ffffffffffffffffffffffffffffffffffffffff1673ffffffffffffffffffffffffffffffffffffffff1681526020019081526020016000205461289b90919063ffffffff16565b601b6000601360009054906101000a900473ffffffffffffffffffffffffffffffffffffffff1673ffffffffffffffffffffffffffffffffffffffff1673ffffffffffffffffffffffffffffffffffffffff16815260200190815260200160002081905550613b41613af3613ad06009548561289b90919063ffffffff16565b613ae5600d548961292390919063ffffffff16565b612dec90919063ffffffff16565b601b60003073ffffffffffffffffffffffffffffffffffffffff1673ffffffffffffffffffffffffffffffffffffffff1681526020019081526020016000205461289b90919063ffffffff16565b601b60003073ffffffffffffffffffffffffffffffffffffffff1673ffffffffffffffffffffffffffffffffffffffff16815260200190815260200160002081905550613c20613bb0600754613ba2600d548961292390919063ffffffff16565b612dec90919063ffffffff16565b601b6000601060009054906101000a900473ffffffffffffffffffffffffffffffffffffffff1673ffffffffffffffffffffffffffffffffffffffff1673ffffffffffffffffffffffffffffffffffffffff1681526020019081526020016000205461289b90919063ffffffff16565b601b6000601060009054906101000a900473ffffffffffffffffffffffffffffffffffffffff1673ffffffffffffffffffffffffffffffffffffffff1673ffffffffffffffffffffffffffffffffffffffff168152602001908152602001600020819055503073ffffffffffffffffffffffffffffffffffffffff168773ffffffffffffffffffffffffffffffffffffffff167fddf252ad1be2c89b69c2b068fc378daa952ba7f163c4a11628f55a4df523b3ef613ce9601a548561292390919063ffffffff16565b6040518082815260200191505060405180910390a3613d118186612d8f90919063ffffffff16565b9350505050939250505056fe5468657265206973206e6f20536166757520746f6b656e206465706f736974656420696e20746f6b656e20636f6e7472616374536166654d6174683a206d756c7469706c69636174696f6e206f766572666c6f776f6e6c7920636f6e747261637420616464726573732c206e6f7420616c6c6f776564206578746572616e6c6c79206f776e6564206163636f756e74a26469706673582212208bed4b6c6d88eb79df29d1727230ee65689e801d4249bdaf576414e221a3a7f164736f6c63430007040033",
					"opcodes": "PUSH1 0x80 PUSH1 0x40 MSTORE PUSH1 0x40 MLOAD DUP1 PUSH1 0x40 ADD PUSH1 0x40 MSTORE DUP1 PUSH1 0x5 DUP2 MSTORE PUSH1 0x20 ADD PUSH32 0x5361667575000000000000000000000000000000000000000000000000000000 DUP2 MSTORE POP PUSH1 0x3 SWAP1 DUP1 MLOAD SWAP1 PUSH1 0x20 ADD SWAP1 PUSH3 0x51 SWAP3 SWAP2 SWAP1 PUSH3 0xAA7 JUMP JUMPDEST POP PUSH1 0x40 MLOAD DUP1 PUSH1 0x40 ADD PUSH1 0x40 MSTORE DUP1 PUSH1 0x5 DUP2 MSTORE PUSH1 0x20 ADD PUSH32 0x5341465555000000000000000000000000000000000000000000000000000000 DUP2 MSTORE POP PUSH1 0x4 SWAP1 DUP1 MLOAD SWAP1 PUSH1 0x20 ADD SWAP1 PUSH3 0x9F SWAP3 SWAP2 SWAP1 PUSH3 0xAA7 JUMP JUMPDEST POP PUSH1 0x5 DUP1 PUSH1 0x0 PUSH2 0x100 EXP DUP2 SLOAD DUP2 PUSH1 0xFF MUL NOT AND SWAP1 DUP4 PUSH1 0xFF AND MUL OR SWAP1 SSTORE POP PUSH1 0x28 PUSH1 0x7 SSTORE PUSH1 0x19 PUSH1 0x8 SSTORE PUSH1 0x32 PUSH1 0x9 SSTORE PUSH1 0x14 PUSH1 0xA SSTORE PUSH1 0x19 PUSH1 0xB SSTORE PUSH3 0x128 PUSH1 0xB SLOAD PUSH3 0x114 PUSH1 0x9 SLOAD PUSH3 0x100 PUSH1 0x8 SLOAD PUSH1 0x7 SLOAD PUSH3 0x806 PUSH1 0x20 SHL PUSH3 0x289B OR SWAP1 SWAP2 SWAP1 PUSH1 0x20 SHR JUMP JUMPDEST PUSH3 0x806 PUSH1 0x20 SHL PUSH3 0x289B OR SWAP1 SWAP2 SWAP1 PUSH1 0x20 SHR JUMP JUMPDEST PUSH3 0x806 PUSH1 0x20 SHL PUSH3 0x289B OR SWAP1 SWAP2 SWAP1 PUSH1 0x20 SHR JUMP JUMPDEST PUSH1 0xC SSTORE PUSH2 0x3E8 PUSH1 0xD SSTORE PUSH2 0xDEAD PUSH1 0xE PUSH1 0x0 PUSH2 0x100 EXP DUP2 SLOAD DUP2 PUSH20 0xFFFFFFFFFFFFFFFFFFFFFFFFFFFFFFFFFFFFFFFF MUL NOT AND SWAP1 DUP4 PUSH20 0xFFFFFFFFFFFFFFFFFFFFFFFFFFFFFFFFFFFFFFFF AND MUL OR SWAP1 SSTORE POP PUSH1 0x0 PUSH1 0xF PUSH1 0x0 PUSH2 0x100 EXP DUP2 SLOAD DUP2 PUSH20 0xFFFFFFFFFFFFFFFFFFFFFFFFFFFFFFFFFFFFFFFF MUL NOT AND SWAP1 DUP4 PUSH20 0xFFFFFFFFFFFFFFFFFFFFFFFFFFFFFFFFFFFFFFFF AND MUL OR SWAP1 SSTORE POP PUSH1 0x1 PUSH1 0x14 DUP1 PUSH2 0x100 EXP DUP2 SLOAD DUP2 PUSH1 0xFF MUL NOT AND SWAP1 DUP4 ISZERO ISZERO MUL OR SWAP1 SSTORE POP PUSH1 0x0 PUSH1 0x15 PUSH1 0x14 PUSH2 0x100 EXP DUP2 SLOAD DUP2 PUSH1 0xFF MUL NOT AND SWAP1 DUP4 ISZERO ISZERO MUL OR SWAP1 SSTORE POP CALLVALUE DUP1 ISZERO PUSH3 0x1F8 JUMPI PUSH1 0x0 DUP1 REVERT JUMPDEST POP PUSH1 0x40 MLOAD DUP1 PUSH1 0x40 ADD PUSH1 0x40 MSTORE DUP1 PUSH1 0x5 DUP2 MSTORE PUSH1 0x20 ADD PUSH32 0x5361667575000000000000000000000000000000000000000000000000000000 DUP2 MSTORE POP PUSH1 0x40 MLOAD DUP1 PUSH1 0x40 ADD PUSH1 0x40 MSTORE DUP1 PUSH1 0x5 DUP2 MSTORE PUSH1 0x20 ADD PUSH32 0x5341465555000000000000000000000000000000000000000000000000000000 DUP2 MSTORE POP PUSH1 0x5 DUP3 PUSH1 0x0 SWAP1 DUP1 MLOAD SWAP1 PUSH1 0x20 ADD SWAP1 PUSH3 0x27F SWAP3 SWAP2 SWAP1 PUSH3 0xAA7 JUMP JUMPDEST POP DUP2 PUSH1 0x1 SWAP1 DUP1 MLOAD SWAP1 PUSH1 0x20 ADD SWAP1 PUSH3 0x298 SWAP3 SWAP2 SWAP1 PUSH3 0xAA7 JUMP JUMPDEST POP DUP1 PUSH1 0x2 PUSH1 0x0 PUSH2 0x100 EXP DUP2 SLOAD DUP2 PUSH1 0xFF MUL NOT AND SWAP1 DUP4 PUSH1 0xFF AND MUL OR SWAP1 SSTORE POP POP POP POP CALLER PUSH1 0x2 PUSH1 0x1 PUSH2 0x100 EXP DUP2 SLOAD DUP2 PUSH20 0xFFFFFFFFFFFFFFFFFFFFFFFFFFFFFFFFFFFFFFFF MUL NOT AND SWAP1 DUP4 PUSH20 0xFFFFFFFFFFFFFFFFFFFFFFFFFFFFFFFFFFFFFFFF AND MUL OR SWAP1 SSTORE POP PUSH20 0x5562640B953B6C2F79A655E930AFA68B2A65C627 PUSH1 0x10 PUSH1 0x0 PUSH2 0x100 EXP DUP2 SLOAD DUP2 PUSH20 0xFFFFFFFFFFFFFFFFFFFFFFFFFFFFFFFFFFFFFFFF MUL NOT AND SWAP1 DUP4 PUSH20 0xFFFFFFFFFFFFFFFFFFFFFFFFFFFFFFFFFFFFFFFF AND MUL OR SWAP1 SSTORE POP PUSH20 0xA9C6D0CC785569B450393A69599E97FAED5D9DD9 PUSH1 0x11 PUSH1 0x0 PUSH2 0x100 EXP DUP2 SLOAD DUP2 PUSH20 0xFFFFFFFFFFFFFFFFFFFFFFFFFFFFFFFFFFFFFFFF MUL NOT AND SWAP1 DUP4 PUSH20 0xFFFFFFFFFFFFFFFFFFFFFFFFFFFFFFFFFFFFFFFF AND MUL OR SWAP1 SSTORE POP PUSH20 0x82D0FBCA3D80B2D4A05E20BFC227523BE8EFEF3 PUSH1 0x12 PUSH1 0x0 PUSH2 0x100 EXP DUP2 SLOAD DUP2 PUSH20 0xFFFFFFFFFFFFFFFFFFFFFFFFFFFFFFFFFFFFFFFF MUL NOT AND SWAP1 DUP4 PUSH20 0xFFFFFFFFFFFFFFFFFFFFFFFFFFFFFFFFFFFFFFFF AND MUL OR SWAP1 SSTORE POP PUSH20 0xAA32C984AFDFA6B95E88B8AB7FABFA65DE89B98C PUSH1 0x13 PUSH1 0x0 PUSH2 0x100 EXP DUP2 SLOAD DUP2 PUSH20 0xFFFFFFFFFFFFFFFFFFFFFFFFFFFFFFFFFFFFFFFF MUL NOT AND SWAP1 DUP4 PUSH20 0xFFFFFFFFFFFFFFFFFFFFFFFFFFFFFFFFFFFFFFFF AND MUL OR SWAP1 SSTORE POP PUSH32 0xFFFFFFFFFFFFFFFFFFFFFFFFFFFFFFFFFFFFFFFFFFFFFFFFFFFFFFFFFFFFFFFF PUSH1 0x1C PUSH1 0x0 ADDRESS PUSH20 0xFFFFFFFFFFFFFFFFFFFFFFFFFFFFFFFFFFFFFFFF AND PUSH20 0xFFFFFFFFFFFFFFFFFFFFFFFFFFFFFFFFFFFFFFFF AND DUP2 MSTORE PUSH1 0x20 ADD SWAP1 DUP2 MSTORE PUSH1 0x20 ADD PUSH1 0x0 KECCAK256 PUSH1 0x0 PUSH20 0x10ED43C718714EB63D5AA57B78B54704E256024E PUSH20 0xFFFFFFFFFFFFFFFFFFFFFFFFFFFFFFFFFFFFFFFF AND PUSH20 0xFFFFFFFFFFFFFFFFFFFFFFFFFFFFFFFFFFFFFFFF AND DUP2 MSTORE PUSH1 0x20 ADD SWAP1 DUP2 MSTORE PUSH1 0x20 ADD PUSH1 0x0 KECCAK256 DUP2 SWAP1 SSTORE POP PUSH1 0x15 PUSH1 0x0 SWAP1 SLOAD SWAP1 PUSH2 0x100 EXP SWAP1 DIV PUSH20 0xFFFFFFFFFFFFFFFFFFFFFFFFFFFFFFFFFFFFFFFF AND PUSH1 0x14 PUSH1 0x0 PUSH2 0x100 EXP DUP2 SLOAD DUP2 PUSH20 0xFFFFFFFFFFFFFFFFFFFFFFFFFFFFFFFFFFFFFFFF MUL NOT AND SWAP1 DUP4 PUSH20 0xFFFFFFFFFFFFFFFFFFFFFFFFFFFFFFFFFFFFFFFF AND MUL OR SWAP1 SSTORE POP PUSH1 0x5 PUSH1 0xA EXP PUSH3 0x4F588 MUL PUSH1 0x19 DUP2 SWAP1 SSTORE POP PUSH1 0x5 PUSH1 0xA EXP PUSH3 0x4F588 MUL PUSH1 0x0 NOT DUP2 PUSH3 0x589 JUMPI INVALID JUMPDEST MOD PUSH1 0x0 NOT SUB PUSH1 0x1B PUSH1 0x0 PUSH1 0x11 PUSH1 0x0 SWAP1 SLOAD SWAP1 PUSH2 0x100 EXP SWAP1 DIV PUSH20 0xFFFFFFFFFFFFFFFFFFFFFFFFFFFFFFFFFFFFFFFF AND PUSH20 0xFFFFFFFFFFFFFFFFFFFFFFFFFFFFFFFFFFFFFFFF AND PUSH20 0xFFFFFFFFFFFFFFFFFFFFFFFFFFFFFFFFFFFFFFFF AND DUP2 MSTORE PUSH1 0x20 ADD SWAP1 DUP2 MSTORE PUSH1 0x20 ADD PUSH1 0x0 KECCAK256 DUP2 SWAP1 SSTORE POP PUSH3 0x628 PUSH1 0x19 SLOAD PUSH1 0x5 PUSH1 0xA EXP PUSH3 0x4F588 MUL PUSH1 0x0 NOT DUP2 PUSH3 0x60F JUMPI INVALID JUMPDEST MOD PUSH1 0x0 NOT SUB PUSH3 0x88F PUSH1 0x20 SHL PUSH3 0x2923 OR SWAP1 SWAP2 SWAP1 PUSH1 0x20 SHR JUMP JUMPDEST PUSH1 0x1A DUP2 SWAP1 SSTORE POP TIMESTAMP PUSH1 0x16 DUP2 SWAP1 SSTORE POP TIMESTAMP PUSH1 0x17 DUP2 SWAP1 SSTORE POP PUSH1 0x1 PUSH1 0x15 DUP1 PUSH2 0x100 EXP DUP2 SLOAD DUP2 PUSH1 0xFF MUL NOT AND SWAP1 DUP4 ISZERO ISZERO MUL OR SWAP1 SSTORE POP PUSH1 0x1 PUSH1 0x15 PUSH1 0x16 PUSH2 0x100 EXP DUP2 SLOAD DUP2 PUSH1 0xFF MUL NOT AND SWAP1 DUP4 ISZERO ISZERO MUL OR SWAP1 SSTORE POP PUSH1 0x1 PUSH1 0x6 PUSH1 0x0 PUSH1 0x11 PUSH1 0x0 SWAP1 SLOAD SWAP1 PUSH2 0x100 EXP SWAP1 DIV PUSH20 0xFFFFFFFFFFFFFFFFFFFFFFFFFFFFFFFFFFFFFFFF AND PUSH20 0xFFFFFFFFFFFFFFFFFFFFFFFFFFFFFFFFFFFFFFFF AND PUSH20 0xFFFFFFFFFFFFFFFFFFFFFFFFFFFFFFFFFFFFFFFF AND DUP2 MSTORE PUSH1 0x20 ADD SWAP1 DUP2 MSTORE PUSH1 0x20 ADD PUSH1 0x0 KECCAK256 PUSH1 0x0 PUSH2 0x100 EXP DUP2 SLOAD DUP2 PUSH1 0xFF MUL NOT AND SWAP1 DUP4 ISZERO ISZERO MUL OR SWAP1 SSTORE POP PUSH1 0x1 PUSH1 0x6 PUSH1 0x0 ADDRESS PUSH20 0xFFFFFFFFFFFFFFFFFFFFFFFFFFFFFFFFFFFFFFFF AND PUSH20 0xFFFFFFFFFFFFFFFFFFFFFFFFFFFFFFFFFFFFFFFF AND DUP2 MSTORE PUSH1 0x20 ADD SWAP1 DUP2 MSTORE PUSH1 0x20 ADD PUSH1 0x0 KECCAK256 PUSH1 0x0 PUSH2 0x100 EXP DUP2 SLOAD DUP2 PUSH1 0xFF MUL NOT AND SWAP1 DUP4 ISZERO ISZERO MUL OR SWAP1 SSTORE POP PUSH3 0x776 PUSH1 0x11 PUSH1 0x0 SWAP1 SLOAD SWAP1 PUSH2 0x100 EXP SWAP1 DIV PUSH20 0xFFFFFFFFFFFFFFFFFFFFFFFFFFFFFFFFFFFFFFFF AND PUSH3 0x8E1 PUSH1 0x20 SHL PUSH1 0x20 SHR JUMP JUMPDEST PUSH1 0x11 PUSH1 0x0 SWAP1 SLOAD SWAP1 PUSH2 0x100 EXP SWAP1 DIV PUSH20 0xFFFFFFFFFFFFFFFFFFFFFFFFFFFFFFFFFFFFFFFF AND PUSH20 0xFFFFFFFFFFFFFFFFFFFFFFFFFFFFFFFFFFFFFFFF AND PUSH1 0x0 PUSH20 0xFFFFFFFFFFFFFFFFFFFFFFFFFFFFFFFFFFFFFFFF AND PUSH32 0xDDF252AD1BE2C89B69C2B068FC378DAA952BA7F163C4A11628F55A4DF523B3EF PUSH1 0x19 SLOAD PUSH1 0x40 MLOAD DUP1 DUP3 DUP2 MSTORE PUSH1 0x20 ADD SWAP2 POP POP PUSH1 0x40 MLOAD DUP1 SWAP2 SUB SWAP1 LOG3 PUSH3 0xB5D JUMP JUMPDEST PUSH1 0x0 DUP1 DUP3 DUP5 ADD SWAP1 POP DUP4 DUP2 LT ISZERO PUSH3 0x885 JUMPI PUSH1 0x40 MLOAD PUSH32 0x8C379A000000000000000000000000000000000000000000000000000000000 DUP2 MSTORE PUSH1 0x4 ADD DUP1 DUP1 PUSH1 0x20 ADD DUP3 DUP2 SUB DUP3 MSTORE PUSH1 0x1B DUP2 MSTORE PUSH1 0x20 ADD DUP1 PUSH32 0x536166654D6174683A206164646974696F6E206F766572666C6F770000000000 DUP2 MSTORE POP PUSH1 0x20 ADD SWAP2 POP POP PUSH1 0x40 MLOAD DUP1 SWAP2 SUB SWAP1 REVERT JUMPDEST DUP1 SWAP2 POP POP SWAP3 SWAP2 POP POP JUMP JUMPDEST PUSH1 0x0 PUSH3 0x8D9 DUP4 DUP4 PUSH1 0x40 MLOAD DUP1 PUSH1 0x40 ADD PUSH1 0x40 MSTORE DUP1 PUSH1 0x1A DUP2 MSTORE PUSH1 0x20 ADD PUSH32 0x536166654D6174683A206469766973696F6E206279207A65726F000000000000 DUP2 MSTORE POP PUSH3 0x9DC PUSH1 0x20 SHL PUSH1 0x20 SHR JUMP JUMPDEST SWAP1 POP SWAP3 SWAP2 POP POP JUMP JUMPDEST PUSH1 0x0 PUSH20 0xFFFFFFFFFFFFFFFFFFFFFFFFFFFFFFFFFFFFFFFF AND DUP2 PUSH20 0xFFFFFFFFFFFFFFFFFFFFFFFFFFFFFFFFFFFFFFFF AND EQ ISZERO PUSH3 0x91C JUMPI PUSH1 0x0 DUP1 REVERT JUMPDEST DUP1 PUSH20 0xFFFFFFFFFFFFFFFFFFFFFFFFFFFFFFFFFFFFFFFF AND PUSH1 0x2 PUSH1 0x1 SWAP1 SLOAD SWAP1 PUSH2 0x100 EXP SWAP1 DIV PUSH20 0xFFFFFFFFFFFFFFFFFFFFFFFFFFFFFFFFFFFFFFFF AND PUSH20 0xFFFFFFFFFFFFFFFFFFFFFFFFFFFFFFFFFFFFFFFF AND PUSH32 0x8BE0079C531659141344CD1FD0A4F28419497F9722A3DAAFE3B4186F6B6457E0 PUSH1 0x40 MLOAD PUSH1 0x40 MLOAD DUP1 SWAP2 SUB SWAP1 LOG3 DUP1 PUSH1 0x2 PUSH1 0x1 PUSH2 0x100 EXP DUP2 SLOAD DUP2 PUSH20 0xFFFFFFFFFFFFFFFFFFFFFFFFFFFFFFFFFFFFFFFF MUL NOT AND SWAP1 DUP4 PUSH20 0xFFFFFFFFFFFFFFFFFFFFFFFFFFFFFFFFFFFFFFFF AND MUL OR SWAP1 SSTORE POP POP JUMP JUMPDEST PUSH1 0x0 DUP1 DUP4 GT DUP3 SWAP1 PUSH3 0xA8C JUMPI PUSH1 0x40 MLOAD PUSH32 0x8C379A000000000000000000000000000000000000000000000000000000000 DUP2 MSTORE PUSH1 0x4 ADD DUP1 DUP1 PUSH1 0x20 ADD DUP3 DUP2 SUB DUP3 MSTORE DUP4 DUP2 DUP2 MLOAD DUP2 MSTORE PUSH1 0x20 ADD SWAP2 POP DUP1 MLOAD SWAP1 PUSH1 0x20 ADD SWAP1 DUP1 DUP4 DUP4 PUSH1 0x0 JUMPDEST DUP4 DUP2 LT ISZERO PUSH3 0xA50 JUMPI DUP1 DUP3 ADD MLOAD DUP2 DUP5 ADD MSTORE PUSH1 0x20 DUP2 ADD SWAP1 POP PUSH3 0xA33 JUMP JUMPDEST POP POP POP POP SWAP1 POP SWAP1 DUP2 ADD SWAP1 PUSH1 0x1F AND DUP1 ISZERO PUSH3 0xA7E JUMPI DUP1 DUP3 SUB DUP1 MLOAD PUSH1 0x1 DUP4 PUSH1 0x20 SUB PUSH2 0x100 EXP SUB NOT AND DUP2 MSTORE PUSH1 0x20 ADD SWAP2 POP JUMPDEST POP SWAP3 POP POP POP PUSH1 0x40 MLOAD DUP1 SWAP2 SUB SWAP1 REVERT JUMPDEST POP PUSH1 0x0 DUP4 DUP6 DUP2 PUSH3 0xA99 JUMPI INVALID JUMPDEST DIV SWAP1 POP DUP1 SWAP2 POP POP SWAP4 SWAP3 POP POP POP JUMP JUMPDEST DUP3 DUP1 SLOAD PUSH1 0x1 DUP2 PUSH1 0x1 AND ISZERO PUSH2 0x100 MUL SUB AND PUSH1 0x2 SWAP1 DIV SWAP1 PUSH1 0x0 MSTORE PUSH1 0x20 PUSH1 0x0 KECCAK256 SWAP1 PUSH1 0x1F ADD PUSH1 0x20 SWAP1 DIV DUP2 ADD SWAP3 DUP3 PUSH3 0xADF JUMPI PUSH1 0x0 DUP6 SSTORE PUSH3 0xB2B JUMP JUMPDEST DUP3 PUSH1 0x1F LT PUSH3 0xAFA JUMPI DUP1 MLOAD PUSH1 0xFF NOT AND DUP4 DUP1 ADD OR DUP6 SSTORE PUSH3 0xB2B JUMP JUMPDEST DUP3 DUP1 ADD PUSH1 0x1 ADD DUP6 SSTORE DUP3 ISZERO PUSH3 0xB2B JUMPI SWAP2 DUP3 ADD JUMPDEST DUP3 DUP2 GT ISZERO PUSH3 0xB2A JUMPI DUP3 MLOAD DUP3 SSTORE SWAP2 PUSH1 0x20 ADD SWAP2 SWAP1 PUSH1 0x1 ADD SWAP1 PUSH3 0xB0D JUMP JUMPDEST JUMPDEST POP SWAP1 POP PUSH3 0xB3A SWAP2 SWAP1 PUSH3 0xB3E JUMP JUMPDEST POP SWAP1 JUMP JUMPDEST JUMPDEST DUP1 DUP3 GT ISZERO PUSH3 0xB59 JUMPI PUSH1 0x0 DUP2 PUSH1 0x0 SWAP1 SSTORE POP PUSH1 0x1 ADD PUSH3 0xB3F JUMP JUMPDEST POP SWAP1 JUMP JUMPDEST PUSH2 0x3DE2 DUP1 PUSH3 0xB6D PUSH1 0x0 CODECOPY PUSH1 0x0 RETURN INVALID PUSH1 0x80 PUSH1 0x40 MSTORE PUSH1 0x4 CALLDATASIZE LT PUSH2 0x354 JUMPI PUSH1 0x0 CALLDATALOAD PUSH1 0xE0 SHR DUP1 PUSH4 0x753D02A1 GT PUSH2 0x1C6 JUMPI DUP1 PUSH4 0xA9059CBB GT PUSH2 0xF7 JUMPI DUP1 PUSH4 0xD28D8852 GT PUSH2 0x95 JUMPI DUP1 PUSH4 0xDD62ED3E GT PUSH2 0x6F JUMPI DUP1 PUSH4 0xDD62ED3E EQ PUSH2 0x114A JUMPI DUP1 PUSH4 0xE15BEB80 EQ PUSH2 0x11CF JUMPI DUP1 PUSH4 0xF2FDE38B EQ PUSH2 0x120C JUMPI DUP1 PUSH4 0xF9F92BE4 EQ PUSH2 0x125D JUMPI PUSH2 0x35B JUMP JUMPDEST DUP1 PUSH4 0xD28D8852 EQ PUSH2 0x1004 JUMPI DUP1 PUSH4 0xD4399790 EQ PUSH2 0x1094 JUMPI DUP1 PUSH4 0xD51ED1C8 EQ PUSH2 0x10FB JUMPI PUSH2 0x35B JUMP JUMPDEST DUP1 PUSH4 0xBD595581 GT PUSH2 0xD1 JUMPI DUP1 PUSH4 0xBD595581 EQ PUSH2 0xF44 JUMPI DUP1 PUSH4 0xCA33E64C EQ PUSH2 0xF5B JUMPI DUP1 PUSH4 0xCC32D176 EQ PUSH2 0xF9C JUMPI DUP1 PUSH4 0xCFBAC92F EQ PUSH2 0xFC7 JUMPI PUSH2 0x35B JUMP JUMPDEST DUP1 PUSH4 0xA9059CBB EQ PUSH2 0xE16 JUMPI DUP1 PUSH4 0xAFB9CF6D EQ PUSH2 0xE87 JUMPI DUP1 PUSH4 0xB09F1266 EQ PUSH2 0xEB4 JUMPI PUSH2 0x35B JUMP JUMPDEST DUP1 PUSH4 0x9B2912CC GT PUSH2 0x164 JUMPI DUP1 PUSH4 0xA457C2D7 GT PUSH2 0x13E JUMPI DUP1 PUSH4 0xA457C2D7 EQ PUSH2 0xCF8 JUMPI DUP1 PUSH4 0xA6CF7293 EQ PUSH2 0xD69 JUMPI DUP1 PUSH4 0xA8AA1B31 EQ PUSH2 0xD94 JUMPI DUP1 PUSH4 0xA8B08982 EQ PUSH2 0xDD5 JUMPI PUSH2 0x35B JUMP JUMPDEST DUP1 PUSH4 0x9B2912CC EQ PUSH2 0xC51 JUMPI DUP1 PUSH4 0x9B87676C EQ PUSH2 0xC7C JUMPI DUP1 PUSH4 0xA22D4832 EQ PUSH2 0xCA7 JUMPI PUSH2 0x35B JUMP JUMPDEST DUP1 PUSH4 0x8DA5CB5B GT PUSH2 0x1A0 JUMPI DUP1 PUSH4 0x8DA5CB5B EQ PUSH2 0xB28 JUMPI DUP1 PUSH4 0x8F32D59B EQ PUSH2 0xB69 JUMPI DUP1 PUSH4 0x95D89B41 EQ PUSH2 0xB96 JUMPI DUP1 PUSH4 0x98118CB4 EQ PUSH2 0xC26 JUMPI PUSH2 0x35B JUMP JUMPDEST DUP1 PUSH4 0x753D02A1 EQ PUSH2 0xA93 JUMPI DUP1 PUSH4 0x83B4AC68 EQ PUSH2 0xAAA JUMPI DUP1 PUSH4 0x854CFF2F EQ PUSH2 0xAD7 JUMPI PUSH2 0x35B JUMP JUMPDEST DUP1 PUSH4 0x32B75683 GT PUSH2 0x2A0 JUMPI DUP1 PUSH4 0x49D98142 GT PUSH2 0x23E JUMPI DUP1 PUSH4 0x6912652C GT PUSH2 0x218 JUMPI DUP1 PUSH4 0x6912652C EQ PUSH2 0x9BD JUMPI DUP1 PUSH4 0x6DDD1713 EQ PUSH2 0x9EA JUMPI DUP1 PUSH4 0x70A08231 EQ PUSH2 0xA17 JUMPI DUP1 PUSH4 0x715018A6 EQ PUSH2 0xA7C JUMPI PUSH2 0x35B JUMP JUMPDEST DUP1 PUSH4 0x49D98142 EQ PUSH2 0x923 JUMPI DUP1 PUSH4 0x4DE41E83 EQ PUSH2 0x964 JUMPI DUP1 PUSH4 0x5A604C52 EQ PUSH2 0x98F JUMPI PUSH2 0x35B JUMP JUMPDEST DUP1 PUSH4 0x39509351 GT PUSH2 0x27A JUMPI DUP1 PUSH4 0x39509351 EQ PUSH2 0x795 JUMPI DUP1 PUSH4 0x3B91ACA9 EQ PUSH2 0x806 JUMPI DUP1 PUSH4 0x3C8E556D EQ PUSH2 0x847 JUMPI DUP1 PUSH4 0x3EAAF86B EQ PUSH2 0x8F8 JUMPI PUSH2 0x35B JUMP JUMPDEST DUP1 PUSH4 0x32B75683 EQ PUSH2 0x6E2 JUMPI DUP1 PUSH4 0x33A581D2 EQ PUSH2 0x70D JUMPI DUP1 PUSH4 0x37C9BE87 EQ PUSH2 0x738 JUMPI PUSH2 0x35B JUMP JUMPDEST DUP1 PUSH4 0x23B872DD GT PUSH2 0x30D JUMPI DUP1 PUSH4 0x2E0F2625 GT PUSH2 0x2E7 JUMPI DUP1 PUSH4 0x2E0F2625 EQ PUSH2 0x60A JUMPI DUP1 PUSH4 0x2F34D282 EQ PUSH2 0x635 JUMPI DUP1 PUSH4 0x313CE567 EQ PUSH2 0x686 JUMPI DUP1 PUSH4 0x32424AA3 EQ PUSH2 0x6B4 JUMPI PUSH2 0x35B JUMP JUMPDEST DUP1 PUSH4 0x23B872DD EQ PUSH2 0x523 JUMPI DUP1 PUSH4 0x2B112E49 EQ PUSH2 0x5B4 JUMPI DUP1 PUSH4 0x2B14CA56 EQ PUSH2 0x5DF JUMPI PUSH2 0x35B JUMP JUMPDEST DUP1 PUSH4 0x6FDDE03 EQ PUSH2 0x360 JUMPI DUP1 PUSH4 0x8B1FD8F EQ PUSH2 0x3F0 JUMPI DUP1 PUSH4 0x95EA7B3 EQ PUSH2 0x431 JUMPI DUP1 PUSH4 0x180B0D7E EQ PUSH2 0x4A2 JUMPI DUP1 PUSH4 0x18160DDD EQ PUSH2 0x4CD JUMPI DUP1 PUSH4 0x1DF4CCFC EQ PUSH2 0x4F8 JUMPI PUSH2 0x35B JUMP JUMPDEST CALLDATASIZE PUSH2 0x35B JUMPI STOP JUMPDEST PUSH1 0x0 DUP1 REVERT JUMPDEST CALLVALUE DUP1 ISZERO PUSH2 0x36C JUMPI PUSH1 0x0 DUP1 REVERT JUMPDEST POP PUSH2 0x375 PUSH2 0x12C4 JUMP JUMPDEST PUSH1 0x40 MLOAD DUP1 DUP1 PUSH1 0x20 ADD DUP3 DUP2 SUB DUP3 MSTORE DUP4 DUP2 DUP2 MLOAD DUP2 MSTORE PUSH1 0x20 ADD SWAP2 POP DUP1 MLOAD SWAP1 PUSH1 0x20 ADD SWAP1 DUP1 DUP4 DUP4 PUSH1 0x0 JUMPDEST DUP4 DUP2 LT ISZERO PUSH2 0x3B5 JUMPI DUP1 DUP3 ADD MLOAD DUP2 DUP5 ADD MSTORE PUSH1 0x20 DUP2 ADD SWAP1 POP PUSH2 0x39A JUMP JUMPDEST POP POP POP POP SWAP1 POP SWAP1 DUP2 ADD SWAP1 PUSH1 0x1F AND DUP1 ISZERO PUSH2 0x3E2 JUMPI DUP1 DUP3 SUB DUP1 MLOAD PUSH1 0x1 DUP4 PUSH1 0x20 SUB PUSH2 0x100 EXP SUB NOT AND DUP2 MSTORE PUSH1 0x20 ADD SWAP2 POP JUMPDEST POP SWAP3 POP POP POP PUSH1 0x40 MLOAD DUP1 SWAP2 SUB SWAP1 RETURN JUMPDEST CALLVALUE DUP1 ISZERO PUSH2 0x3FC JUMPI PUSH1 0x0 DUP1 REVERT JUMPDEST POP PUSH2 0x405 PUSH2 0x1366 JUMP JUMPDEST PUSH1 0x40 MLOAD DUP1 DUP3 PUSH20 0xFFFFFFFFFFFFFFFFFFFFFFFFFFFFFFFFFFFFFFFF AND DUP2 MSTORE PUSH1 0x20 ADD SWAP2 POP POP PUSH1 0x40 MLOAD DUP1 SWAP2 SUB SWAP1 RETURN JUMPDEST CALLVALUE DUP1 ISZERO PUSH2 0x43D JUMPI PUSH1 0x0 DUP1 REVERT JUMPDEST POP PUSH2 0x48A PUSH1 0x4 DUP1 CALLDATASIZE SUB PUSH1 0x40 DUP2 LT ISZERO PUSH2 0x454 JUMPI PUSH1 0x0 DUP1 REVERT JUMPDEST DUP2 ADD SWAP1 DUP1 DUP1 CALLDATALOAD PUSH20 0xFFFFFFFFFFFFFFFFFFFFFFFFFFFFFFFFFFFFFFFF AND SWAP1 PUSH1 0x20 ADD SWAP1 SWAP3 SWAP2 SWAP1 DUP1 CALLDATALOAD SWAP1 PUSH1 0x20 ADD SWAP1 SWAP3 SWAP2 SWAP1 POP POP POP PUSH2 0x138C JUMP JUMPDEST PUSH1 0x40 MLOAD DUP1 DUP3 ISZERO ISZERO DUP2 MSTORE PUSH1 0x20 ADD SWAP2 POP POP PUSH1 0x40 MLOAD DUP1 SWAP2 SUB SWAP1 RETURN JUMPDEST CALLVALUE DUP1 ISZERO PUSH2 0x4AE JUMPI PUSH1 0x0 DUP1 REVERT JUMPDEST POP PUSH2 0x4B7 PUSH2 0x147E JUMP JUMPDEST PUSH1 0x40 MLOAD DUP1 DUP3 DUP2 MSTORE PUSH1 0x20 ADD SWAP2 POP POP PUSH1 0x40 MLOAD DUP1 SWAP2 SUB SWAP1 RETURN JUMPDEST CALLVALUE DUP1 ISZERO PUSH2 0x4D9 JUMPI PUSH1 0x0 DUP1 REVERT JUMPDEST POP PUSH2 0x4E2 PUSH2 0x1484 JUMP JUMPDEST PUSH1 0x40 MLOAD DUP1 DUP3 DUP2 MSTORE PUSH1 0x20 ADD SWAP2 POP POP PUSH1 0x40 MLOAD DUP1 SWAP2 SUB SWAP1 RETURN JUMPDEST CALLVALUE DUP1 ISZERO PUSH2 0x504 JUMPI PUSH1 0x0 DUP1 REVERT JUMPDEST POP PUSH2 0x50D PUSH2 0x148E JUMP JUMPDEST PUSH1 0x40 MLOAD DUP1 DUP3 DUP2 MSTORE PUSH1 0x20 ADD SWAP2 POP POP PUSH1 0x40 MLOAD DUP1 SWAP2 SUB SWAP1 RETURN JUMPDEST CALLVALUE DUP1 ISZERO PUSH2 0x52F JUMPI PUSH1 0x0 DUP1 REVERT JUMPDEST POP PUSH2 0x59C PUSH1 0x4 DUP1 CALLDATASIZE SUB PUSH1 0x60 DUP2 LT ISZERO PUSH2 0x546 JUMPI PUSH1 0x0 DUP1 REVERT JUMPDEST DUP2 ADD SWAP1 DUP1 DUP1 CALLDATALOAD PUSH20 0xFFFFFFFFFFFFFFFFFFFFFFFFFFFFFFFFFFFFFFFF AND SWAP1 PUSH1 0x20 ADD SWAP1 SWAP3 SWAP2 SWAP1 DUP1 CALLDATALOAD PUSH20 0xFFFFFFFFFFFFFFFFFFFFFFFFFFFFFFFFFFFFFFFF AND SWAP1 PUSH1 0x20 ADD SWAP1 SWAP3 SWAP2 SWAP1 DUP1 CALLDATALOAD SWAP1 PUSH1 0x20 ADD SWAP1 SWAP3 SWAP2 SWAP1 POP POP POP PUSH2 0x1494 JUMP JUMPDEST PUSH1 0x40 MLOAD DUP1 DUP3 ISZERO ISZERO DUP2 MSTORE PUSH1 0x20 ADD SWAP2 POP POP PUSH1 0x40 MLOAD DUP1 SWAP2 SUB SWAP1 RETURN JUMPDEST CALLVALUE DUP1 ISZERO PUSH2 0x5C0 JUMPI PUSH1 0x0 DUP1 REVERT JUMPDEST POP PUSH2 0x5C9 PUSH2 0x16D3 JUMP JUMPDEST PUSH1 0x40 MLOAD DUP1 DUP3 DUP2 MSTORE PUSH1 0x20 ADD SWAP2 POP POP PUSH1 0x40 MLOAD DUP1 SWAP2 SUB SWAP1 RETURN JUMPDEST CALLVALUE DUP1 ISZERO PUSH2 0x5EB JUMPI PUSH1 0x0 DUP1 REVERT JUMPDEST POP PUSH2 0x5F4 PUSH2 0x17ED JUMP JUMPDEST PUSH1 0x40 MLOAD DUP1 DUP3 DUP2 MSTORE PUSH1 0x20 ADD SWAP2 POP POP PUSH1 0x40 MLOAD DUP1 SWAP2 SUB SWAP1 RETURN JUMPDEST CALLVALUE DUP1 ISZERO PUSH2 0x616 JUMPI PUSH1 0x0 DUP1 REVERT JUMPDEST POP PUSH2 0x61F PUSH2 0x17F3 JUMP JUMPDEST PUSH1 0x40 MLOAD DUP1 DUP3 DUP2 MSTORE PUSH1 0x20 ADD SWAP2 POP POP PUSH1 0x40 MLOAD DUP1 SWAP2 SUB SWAP1 RETURN JUMPDEST CALLVALUE DUP1 ISZERO PUSH2 0x641 JUMPI PUSH1 0x0 DUP1 REVERT JUMPDEST POP PUSH2 0x684 PUSH1 0x4 DUP1 CALLDATASIZE SUB PUSH1 0x20 DUP2 LT ISZERO PUSH2 0x658 JUMPI PUSH1 0x0 DUP1 REVERT JUMPDEST DUP2 ADD SWAP1 DUP1 DUP1 CALLDATALOAD PUSH20 0xFFFFFFFFFFFFFFFFFFFFFFFFFFFFFFFFFFFFFFFF AND SWAP1 PUSH1 0x20 ADD SWAP1 SWAP3 SWAP2 SWAP1 POP POP POP PUSH2 0x17F8 JUMP JUMPDEST STOP JUMPDEST CALLVALUE DUP1 ISZERO PUSH2 0x692 JUMPI PUSH1 0x0 DUP1 REVERT JUMPDEST POP PUSH2 0x69B PUSH2 0x180C JUMP JUMPDEST PUSH1 0x40 MLOAD DUP1 DUP3 PUSH1 0xFF AND DUP2 MSTORE PUSH1 0x20 ADD SWAP2 POP POP PUSH1 0x40 MLOAD DUP1 SWAP2 SUB SWAP1 RETURN JUMPDEST CALLVALUE DUP1 ISZERO PUSH2 0x6C0 JUMPI PUSH1 0x0 DUP1 REVERT JUMPDEST POP PUSH2 0x6C9 PUSH2 0x1823 JUMP JUMPDEST PUSH1 0x40 MLOAD DUP1 DUP3 PUSH1 0xFF AND DUP2 MSTORE PUSH1 0x20 ADD SWAP2 POP POP PUSH1 0x40 MLOAD DUP1 SWAP2 SUB SWAP1 RETURN JUMPDEST CALLVALUE DUP1 ISZERO PUSH2 0x6EE JUMPI PUSH1 0x0 DUP1 REVERT JUMPDEST POP PUSH2 0x6F7 PUSH2 0x1836 JUMP JUMPDEST PUSH1 0x40 MLOAD DUP1 DUP3 DUP2 MSTORE PUSH1 0x20 ADD SWAP2 POP POP PUSH1 0x40 MLOAD DUP1 SWAP2 SUB SWAP1 RETURN JUMPDEST CALLVALUE DUP1 ISZERO PUSH2 0x719 JUMPI PUSH1 0x0 DUP1 REVERT JUMPDEST POP PUSH2 0x722 PUSH2 0x183C JUMP JUMPDEST PUSH1 0x40 MLOAD DUP1 DUP3 DUP2 MSTORE PUSH1 0x20 ADD SWAP2 POP POP PUSH1 0x40 MLOAD DUP1 SWAP2 SUB SWAP1 RETURN JUMPDEST CALLVALUE DUP1 ISZERO PUSH2 0x744 JUMPI PUSH1 0x0 DUP1 REVERT JUMPDEST POP PUSH2 0x793 PUSH1 0x4 DUP1 CALLDATASIZE SUB PUSH1 0x40 DUP2 LT ISZERO PUSH2 0x75B JUMPI PUSH1 0x0 DUP1 REVERT JUMPDEST DUP2 ADD SWAP1 DUP1 DUP1 CALLDATALOAD PUSH20 0xFFFFFFFFFFFFFFFFFFFFFFFFFFFFFFFFFFFFFFFF AND SWAP1 PUSH1 0x20 ADD SWAP1 SWAP3 SWAP2 SWAP1 DUP1 CALLDATALOAD ISZERO ISZERO SWAP1 PUSH1 0x20 ADD SWAP1 SWAP3 SWAP2 SWAP1 POP POP POP PUSH2 0x1842 JUMP JUMPDEST STOP JUMPDEST CALLVALUE DUP1 ISZERO PUSH2 0x7A1 JUMPI PUSH1 0x0 DUP1 REVERT JUMPDEST POP PUSH2 0x7EE PUSH1 0x4 DUP1 CALLDATASIZE SUB PUSH1 0x40 DUP2 LT ISZERO PUSH2 0x7B8 JUMPI PUSH1 0x0 DUP1 REVERT JUMPDEST DUP2 ADD SWAP1 DUP1 DUP1 CALLDATALOAD PUSH20 0xFFFFFFFFFFFFFFFFFFFFFFFFFFFFFFFFFFFFFFFF AND SWAP1 PUSH1 0x20 ADD SWAP1 SWAP3 SWAP2 SWAP1 DUP1 CALLDATALOAD SWAP1 PUSH1 0x20 ADD SWAP1 SWAP3 SWAP2 SWAP1 POP POP POP PUSH2 0x190C JUMP JUMPDEST PUSH1 0x40 MLOAD DUP1 DUP3 ISZERO ISZERO DUP2 MSTORE PUSH1 0x20 ADD SWAP2 POP POP PUSH1 0x40 MLOAD DUP1 SWAP2 SUB SWAP1 RETURN JUMPDEST CALLVALUE DUP1 ISZERO PUSH2 0x812 JUMPI PUSH1 0x0 DUP1 REVERT JUMPDEST POP PUSH2 0x81B PUSH2 0x1B08 JUMP JUMPDEST PUSH1 0x40 MLOAD DUP1 DUP3 PUSH20 0xFFFFFFFFFFFFFFFFFFFFFFFFFFFFFFFFFFFFFFFF AND DUP2 MSTORE PUSH1 0x20 ADD SWAP2 POP POP PUSH1 0x40 MLOAD DUP1 SWAP2 SUB SWAP1 RETURN JUMPDEST CALLVALUE DUP1 ISZERO PUSH2 0x853 JUMPI PUSH1 0x0 DUP1 REVERT JUMPDEST POP PUSH2 0x8F6 PUSH1 0x4 DUP1 CALLDATASIZE SUB PUSH1 0x80 DUP2 LT ISZERO PUSH2 0x86A JUMPI PUSH1 0x0 DUP1 REVERT JUMPDEST DUP2 ADD SWAP1 DUP1 DUP1 CALLDATALOAD PUSH20 0xFFFFFFFFFFFFFFFFFFFFFFFFFFFFFFFFFFFFFFFF AND SWAP1 PUSH1 0x20 ADD SWAP1 SWAP3 SWAP2 SWAP1 DUP1 CALLDATALOAD PUSH20 0xFFFFFFFFFFFFFFFFFFFFFFFFFFFFFFFFFFFFFFFF AND SWAP1 PUSH1 0x20 ADD SWAP1 SWAP3 SWAP2 SWAP1 DUP1 CALLDATALOAD PUSH20 0xFFFFFFFFFFFFFFFFFFFFFFFFFFFFFFFFFFFFFFFF AND SWAP1 PUSH1 0x20 ADD SWAP1 SWAP3 SWAP2 SWAP1 DUP1 CALLDATALOAD PUSH20 0xFFFFFFFFFFFFFFFFFFFFFFFFFFFFFFFFFFFFFFFF AND SWAP1 PUSH1 0x20 ADD SWAP1 SWAP3 SWAP2 SWAP1 POP POP POP PUSH2 0x1B2E JUMP JUMPDEST STOP JUMPDEST CALLVALUE DUP1 ISZERO PUSH2 0x904 JUMPI PUSH1 0x0 DUP1 REVERT JUMPDEST POP PUSH2 0x90D PUSH2 0x1C49 JUMP JUMPDEST PUSH1 0x40 MLOAD DUP1 DUP3 DUP2 MSTORE PUSH1 0x20 ADD SWAP2 POP POP PUSH1 0x40 MLOAD DUP1 SWAP2 SUB SWAP1 RETURN JUMPDEST CALLVALUE DUP1 ISZERO PUSH2 0x92F JUMPI PUSH1 0x0 DUP1 REVERT JUMPDEST POP PUSH2 0x938 PUSH2 0x1C4F JUMP JUMPDEST PUSH1 0x40 MLOAD DUP1 DUP3 PUSH20 0xFFFFFFFFFFFFFFFFFFFFFFFFFFFFFFFFFFFFFFFF AND DUP2 MSTORE PUSH1 0x20 ADD SWAP2 POP POP PUSH1 0x40 MLOAD DUP1 SWAP2 SUB SWAP1 RETURN JUMPDEST CALLVALUE DUP1 ISZERO PUSH2 0x970 JUMPI PUSH1 0x0 DUP1 REVERT JUMPDEST POP PUSH2 0x979 PUSH2 0x1C75 JUMP JUMPDEST PUSH1 0x40 MLOAD DUP1 DUP3 DUP2 MSTORE PUSH1 0x20 ADD SWAP2 POP POP PUSH1 0x40 MLOAD DUP1 SWAP2 SUB SWAP1 RETURN JUMPDEST CALLVALUE DUP1 ISZERO PUSH2 0x99B JUMPI PUSH1 0x0 DUP1 REVERT JUMPDEST POP PUSH2 0x9A4 PUSH2 0x1C7B JUMP JUMPDEST PUSH1 0x40 MLOAD DUP1 DUP3 PUSH1 0xFF AND DUP2 MSTORE PUSH1 0x20 ADD SWAP2 POP POP PUSH1 0x40 MLOAD DUP1 SWAP2 SUB SWAP1 RETURN JUMPDEST CALLVALUE DUP1 ISZERO PUSH2 0x9C9 JUMPI PUSH1 0x0 DUP1 REVERT JUMPDEST POP PUSH2 0x9D2 PUSH2 0x1C80 JUMP JUMPDEST PUSH1 0x40 MLOAD DUP1 DUP3 ISZERO ISZERO DUP2 MSTORE PUSH1 0x20 ADD SWAP2 POP POP PUSH1 0x40 MLOAD DUP1 SWAP2 SUB SWAP1 RETURN JUMPDEST CALLVALUE DUP1 ISZERO PUSH2 0x9F6 JUMPI PUSH1 0x0 DUP1 REVERT JUMPDEST POP PUSH2 0x9FF PUSH2 0x1C93 JUMP JUMPDEST PUSH1 0x40 MLOAD DUP1 DUP3 ISZERO ISZERO DUP2 MSTORE PUSH1 0x20 ADD SWAP2 POP POP PUSH1 0x40 MLOAD DUP1 SWAP2 SUB SWAP1 RETURN JUMPDEST CALLVALUE DUP1 ISZERO PUSH2 0xA23 JUMPI PUSH1 0x0 DUP1 REVERT JUMPDEST POP PUSH2 0xA66 PUSH1 0x4 DUP1 CALLDATASIZE SUB PUSH1 0x20 DUP2 LT ISZERO PUSH2 0xA3A JUMPI PUSH1 0x0 DUP1 REVERT JUMPDEST DUP2 ADD SWAP1 DUP1 DUP1 CALLDATALOAD PUSH20 0xFFFFFFFFFFFFFFFFFFFFFFFFFFFFFFFFFFFFFFFF AND SWAP1 PUSH1 0x20 ADD SWAP1 SWAP3 SWAP2 SWAP1 POP POP POP PUSH2 0x1CA4 JUMP JUMPDEST PUSH1 0x40 MLOAD DUP1 DUP3 DUP2 MSTORE PUSH1 0x20 ADD SWAP2 POP POP PUSH1 0x40 MLOAD DUP1 SWAP2 SUB SWAP1 RETURN JUMPDEST CALLVALUE DUP1 ISZERO PUSH2 0xA88 JUMPI PUSH1 0x0 DUP1 REVERT JUMPDEST POP PUSH2 0xA91 PUSH2 0x1D01 JUMP JUMPDEST STOP JUMPDEST CALLVALUE DUP1 ISZERO PUSH2 0xA9F JUMPI PUSH1 0x0 DUP1 REVERT JUMPDEST POP PUSH2 0xAA8 PUSH2 0x1DBB JUMP JUMPDEST STOP JUMPDEST CALLVALUE DUP1 ISZERO PUSH2 0xAB6 JUMPI PUSH1 0x0 DUP1 REVERT JUMPDEST POP PUSH2 0xABF PUSH2 0x1DBD JUMP JUMPDEST PUSH1 0x40 MLOAD DUP1 DUP3 ISZERO ISZERO DUP2 MSTORE PUSH1 0x20 ADD SWAP2 POP POP PUSH1 0x40 MLOAD DUP1 SWAP2 SUB SWAP1 RETURN JUMPDEST CALLVALUE DUP1 ISZERO PUSH2 0xAE3 JUMPI PUSH1 0x0 DUP1 REVERT JUMPDEST POP PUSH2 0xB26 PUSH1 0x4 DUP1 CALLDATASIZE SUB PUSH1 0x20 DUP2 LT ISZERO PUSH2 0xAFA JUMPI PUSH1 0x0 DUP1 REVERT JUMPDEST DUP2 ADD SWAP1 DUP1 DUP1 CALLDATALOAD PUSH20 0xFFFFFFFFFFFFFFFFFFFFFFFFFFFFFFFFFFFFFFFF AND SWAP1 PUSH1 0x20 ADD SWAP1 SWAP3 SWAP2 SWAP1 POP POP POP PUSH2 0x1DD5 JUMP JUMPDEST STOP JUMPDEST CALLVALUE DUP1 ISZERO PUSH2 0xB34 JUMPI PUSH1 0x0 DUP1 REVERT JUMPDEST POP PUSH2 0xB3D PUSH2 0x1E41 JUMP JUMPDEST PUSH1 0x40 MLOAD DUP1 DUP3 PUSH20 0xFFFFFFFFFFFFFFFFFFFFFFFFFFFFFFFFFFFFFFFF AND DUP2 MSTORE PUSH1 0x20 ADD SWAP2 POP POP PUSH1 0x40 MLOAD DUP1 SWAP2 SUB SWAP1 RETURN JUMPDEST CALLVALUE DUP1 ISZERO PUSH2 0xB75 JUMPI PUSH1 0x0 DUP1 REVERT JUMPDEST POP PUSH2 0xB7E PUSH2 0x1E6B JUMP JUMPDEST PUSH1 0x40 MLOAD DUP1 DUP3 ISZERO ISZERO DUP2 MSTORE PUSH1 0x20 ADD SWAP2 POP POP PUSH1 0x40 MLOAD DUP1 SWAP2 SUB SWAP1 RETURN JUMPDEST CALLVALUE DUP1 ISZERO PUSH2 0xBA2 JUMPI PUSH1 0x0 DUP1 REVERT JUMPDEST POP PUSH2 0xBAB PUSH2 0x1EC3 JUMP JUMPDEST PUSH1 0x40 MLOAD DUP1 DUP1 PUSH1 0x20 ADD DUP3 DUP2 SUB DUP3 MSTORE DUP4 DUP2 DUP2 MLOAD DUP2 MSTORE PUSH1 0x20 ADD SWAP2 POP DUP1 MLOAD SWAP1 PUSH1 0x20 ADD SWAP1 DUP1 DUP4 DUP4 PUSH1 0x0 JUMPDEST DUP4 DUP2 LT ISZERO PUSH2 0xBEB JUMPI DUP1 DUP3 ADD MLOAD DUP2 DUP5 ADD MSTORE PUSH1 0x20 DUP2 ADD SWAP1 POP PUSH2 0xBD0 JUMP JUMPDEST POP POP POP POP SWAP1 POP SWAP1 DUP2 ADD SWAP1 PUSH1 0x1F AND DUP1 ISZERO PUSH2 0xC18 JUMPI DUP1 DUP3 SUB DUP1 MLOAD PUSH1 0x1 DUP4 PUSH1 0x20 SUB PUSH2 0x100 EXP SUB NOT AND DUP2 MSTORE PUSH1 0x20 ADD SWAP2 POP JUMPDEST POP SWAP3 POP POP POP PUSH1 0x40 MLOAD DUP1 SWAP2 SUB SWAP1 RETURN JUMPDEST CALLVALUE DUP1 ISZERO PUSH2 0xC32 JUMPI PUSH1 0x0 DUP1 REVERT JUMPDEST POP PUSH2 0xC3B PUSH2 0x1F65 JUMP JUMPDEST PUSH1 0x40 MLOAD DUP1 DUP3 DUP2 MSTORE PUSH1 0x20 ADD SWAP2 POP POP PUSH1 0x40 MLOAD DUP1 SWAP2 SUB SWAP1 RETURN JUMPDEST CALLVALUE DUP1 ISZERO PUSH2 0xC5D JUMPI PUSH1 0x0 DUP1 REVERT JUMPDEST POP PUSH2 0xC66 PUSH2 0x1F6B JUMP JUMPDEST PUSH1 0x40 MLOAD DUP1 DUP3 DUP2 MSTORE PUSH1 0x20 ADD SWAP2 POP POP PUSH1 0x40 MLOAD DUP1 SWAP2 SUB SWAP1 RETURN JUMPDEST CALLVALUE DUP1 ISZERO PUSH2 0xC88 JUMPI PUSH1 0x0 DUP1 REVERT JUMPDEST POP PUSH2 0xC91 PUSH2 0x1F71 JUMP JUMPDEST PUSH1 0x40 MLOAD DUP1 DUP3 DUP2 MSTORE PUSH1 0x20 ADD SWAP2 POP POP PUSH1 0x40 MLOAD DUP1 SWAP2 SUB SWAP1 RETURN JUMPDEST CALLVALUE DUP1 ISZERO PUSH2 0xCB3 JUMPI PUSH1 0x0 DUP1 REVERT JUMPDEST POP PUSH2 0xCF6 PUSH1 0x4 DUP1 CALLDATASIZE SUB PUSH1 0x20 DUP2 LT ISZERO PUSH2 0xCCA JUMPI PUSH1 0x0 DUP1 REVERT JUMPDEST DUP2 ADD SWAP1 DUP1 DUP1 CALLDATALOAD PUSH20 0xFFFFFFFFFFFFFFFFFFFFFFFFFFFFFFFFFFFFFFFF AND SWAP1 PUSH1 0x20 ADD SWAP1 SWAP3 SWAP2 SWAP1 POP POP POP PUSH2 0x1F77 JUMP JUMPDEST STOP JUMPDEST CALLVALUE DUP1 ISZERO PUSH2 0xD04 JUMPI PUSH1 0x0 DUP1 REVERT JUMPDEST POP PUSH2 0xD51 PUSH1 0x4 DUP1 CALLDATASIZE SUB PUSH1 0x40 DUP2 LT ISZERO PUSH2 0xD1B JUMPI PUSH1 0x0 DUP1 REVERT JUMPDEST DUP2 ADD SWAP1 DUP1 DUP1 CALLDATALOAD PUSH20 0xFFFFFFFFFFFFFFFFFFFFFFFFFFFFFFFFFFFFFFFF AND SWAP1 PUSH1 0x20 ADD SWAP1 SWAP3 SWAP2 SWAP1 DUP1 CALLDATALOAD SWAP1 PUSH1 0x20 ADD SWAP1 SWAP3 SWAP2 SWAP1 POP POP POP PUSH2 0x1FCC JUMP JUMPDEST PUSH1 0x40 MLOAD DUP1 DUP3 ISZERO ISZERO DUP2 MSTORE PUSH1 0x20 ADD SWAP2 POP POP PUSH1 0x40 MLOAD DUP1 SWAP2 SUB SWAP1 RETURN JUMPDEST CALLVALUE DUP1 ISZERO PUSH2 0xD75 JUMPI PUSH1 0x0 DUP1 REVERT JUMPDEST POP PUSH2 0xD7E PUSH2 0x225C JUMP JUMPDEST PUSH1 0x40 MLOAD DUP1 DUP3 DUP2 MSTORE PUSH1 0x20 ADD SWAP2 POP POP PUSH1 0x40 MLOAD DUP1 SWAP2 SUB SWAP1 RETURN JUMPDEST CALLVALUE DUP1 ISZERO PUSH2 0xDA0 JUMPI PUSH1 0x0 DUP1 REVERT JUMPDEST POP PUSH2 0xDA9 PUSH2 0x2262 JUMP JUMPDEST PUSH1 0x40 MLOAD DUP1 DUP3 PUSH20 0xFFFFFFFFFFFFFFFFFFFFFFFFFFFFFFFFFFFFFFFF AND DUP2 MSTORE PUSH1 0x20 ADD SWAP2 POP POP PUSH1 0x40 MLOAD DUP1 SWAP2 SUB SWAP1 RETURN JUMPDEST CALLVALUE DUP1 ISZERO PUSH2 0xDE1 JUMPI PUSH1 0x0 DUP1 REVERT JUMPDEST POP PUSH2 0xDEA PUSH2 0x2288 JUMP JUMPDEST PUSH1 0x40 MLOAD DUP1 DUP3 PUSH20 0xFFFFFFFFFFFFFFFFFFFFFFFFFFFFFFFFFFFFFFFF AND DUP2 MSTORE PUSH1 0x20 ADD SWAP2 POP POP PUSH1 0x40 MLOAD DUP1 SWAP2 SUB SWAP1 RETURN JUMPDEST CALLVALUE DUP1 ISZERO PUSH2 0xE22 JUMPI PUSH1 0x0 DUP1 REVERT JUMPDEST POP PUSH2 0xE6F PUSH1 0x4 DUP1 CALLDATASIZE SUB PUSH1 0x40 DUP2 LT ISZERO PUSH2 0xE39 JUMPI PUSH1 0x0 DUP1 REVERT JUMPDEST DUP2 ADD SWAP1 DUP1 DUP1 CALLDATALOAD PUSH20 0xFFFFFFFFFFFFFFFFFFFFFFFFFFFFFFFFFFFFFFFF AND SWAP1 PUSH1 0x20 ADD SWAP1 SWAP3 SWAP2 SWAP1 DUP1 CALLDATALOAD SWAP1 PUSH1 0x20 ADD SWAP1 SWAP3 SWAP2 SWAP1 POP POP POP PUSH2 0x22AE JUMP JUMPDEST PUSH1 0x40 MLOAD DUP1 DUP3 ISZERO ISZERO DUP2 MSTORE PUSH1 0x20 ADD SWAP2 POP POP PUSH1 0x40 MLOAD DUP1 SWAP2 SUB SWAP1 RETURN JUMPDEST CALLVALUE DUP1 ISZERO PUSH2 0xE93 JUMPI PUSH1 0x0 DUP1 REVERT JUMPDEST POP PUSH2 0xE9C PUSH2 0x2302 JUMP JUMPDEST PUSH1 0x40 MLOAD DUP1 DUP3 ISZERO ISZERO DUP2 MSTORE PUSH1 0x20 ADD SWAP2 POP POP PUSH1 0x40 MLOAD DUP1 SWAP2 SUB SWAP1 RETURN JUMPDEST CALLVALUE DUP1 ISZERO PUSH2 0xEC0 JUMPI PUSH1 0x0 DUP1 REVERT JUMPDEST POP PUSH2 0xEC9 PUSH2 0x2313 JUMP JUMPDEST PUSH1 0x40 MLOAD DUP1 DUP1 PUSH1 0x20 ADD DUP3 DUP2 SUB DUP3 MSTORE DUP4 DUP2 DUP2 MLOAD DUP2 MSTORE PUSH1 0x20 ADD SWAP2 POP DUP1 MLOAD SWAP1 PUSH1 0x20 ADD SWAP1 DUP1 DUP4 DUP4 PUSH1 0x0 JUMPDEST DUP4 DUP2 LT ISZERO PUSH2 0xF09 JUMPI DUP1 DUP3 ADD MLOAD DUP2 DUP5 ADD MSTORE PUSH1 0x20 DUP2 ADD SWAP1 POP PUSH2 0xEEE JUMP JUMPDEST POP POP POP POP SWAP1 POP SWAP1 DUP2 ADD SWAP1 PUSH1 0x1F AND DUP1 ISZERO PUSH2 0xF36 JUMPI DUP1 DUP3 SUB DUP1 MLOAD PUSH1 0x1 DUP4 PUSH1 0x20 SUB PUSH2 0x100 EXP SUB NOT AND DUP2 MSTORE PUSH1 0x20 ADD SWAP2 POP JUMPDEST POP SWAP3 POP POP POP PUSH1 0x40 MLOAD DUP1 SWAP2 SUB SWAP1 RETURN JUMPDEST CALLVALUE DUP1 ISZERO PUSH2 0xF50 JUMPI PUSH1 0x0 DUP1 REVERT JUMPDEST POP PUSH2 0xF59 PUSH2 0x23B1 JUMP JUMPDEST STOP JUMPDEST CALLVALUE DUP1 ISZERO PUSH2 0xF67 JUMPI PUSH1 0x0 DUP1 REVERT JUMPDEST POP PUSH2 0xF70 PUSH2 0x2541 JUMP JUMPDEST PUSH1 0x40 MLOAD DUP1 DUP3 PUSH20 0xFFFFFFFFFFFFFFFFFFFFFFFFFFFFFFFFFFFFFFFF AND DUP2 MSTORE PUSH1 0x20 ADD SWAP2 POP POP PUSH1 0x40 MLOAD DUP1 SWAP2 SUB SWAP1 RETURN JUMPDEST CALLVALUE DUP1 ISZERO PUSH2 0xFA8 JUMPI PUSH1 0x0 DUP1 REVERT JUMPDEST POP PUSH2 0xFB1 PUSH2 0x2567 JUMP JUMPDEST PUSH1 0x40 MLOAD DUP1 DUP3 DUP2 MSTORE PUSH1 0x20 ADD SWAP2 POP POP PUSH1 0x40 MLOAD DUP1 SWAP2 SUB SWAP1 RETURN JUMPDEST CALLVALUE DUP1 ISZERO PUSH2 0xFD3 JUMPI PUSH1 0x0 DUP1 REVERT JUMPDEST POP PUSH2 0x1002 PUSH1 0x4 DUP1 CALLDATASIZE SUB PUSH1 0x20 DUP2 LT ISZERO PUSH2 0xFEA JUMPI PUSH1 0x0 DUP1 REVERT JUMPDEST DUP2 ADD SWAP1 DUP1 DUP1 CALLDATALOAD ISZERO ISZERO SWAP1 PUSH1 0x20 ADD SWAP1 SWAP3 SWAP2 SWAP1 POP POP POP PUSH2 0x256D JUMP JUMPDEST STOP JUMPDEST CALLVALUE DUP1 ISZERO PUSH2 0x1010 JUMPI PUSH1 0x0 DUP1 REVERT JUMPDEST POP PUSH2 0x1019 PUSH2 0x25C8 JUMP JUMPDEST PUSH1 0x40 MLOAD DUP1 DUP1 PUSH1 0x20 ADD DUP3 DUP2 SUB DUP3 MSTORE DUP4 DUP2 DUP2 MLOAD DUP2 MSTORE PUSH1 0x20 ADD SWAP2 POP DUP1 MLOAD SWAP1 PUSH1 0x20 ADD SWAP1 DUP1 DUP4 DUP4 PUSH1 0x0 JUMPDEST DUP4 DUP2 LT ISZERO PUSH2 0x1059 JUMPI DUP1 DUP3 ADD MLOAD DUP2 DUP5 ADD MSTORE PUSH1 0x20 DUP2 ADD SWAP1 POP PUSH2 0x103E JUMP JUMPDEST POP POP POP POP SWAP1 POP SWAP1 DUP2 ADD SWAP1 PUSH1 0x1F AND DUP1 ISZERO PUSH2 0x1086 JUMPI DUP1 DUP3 SUB DUP1 MLOAD PUSH1 0x1 DUP4 PUSH1 0x20 SUB PUSH2 0x100 EXP SUB NOT AND DUP2 MSTORE PUSH1 0x20 ADD SWAP2 POP JUMPDEST POP SWAP3 POP POP POP PUSH1 0x40 MLOAD DUP1 SWAP2 SUB SWAP1 RETURN JUMPDEST CALLVALUE DUP1 ISZERO PUSH2 0x10A0 JUMPI PUSH1 0x0 DUP1 REVERT JUMPDEST POP PUSH2 0x10E3 PUSH1 0x4 DUP1 CALLDATASIZE SUB PUSH1 0x20 DUP2 LT ISZERO PUSH2 0x10B7 JUMPI PUSH1 0x0 DUP1 REVERT JUMPDEST DUP2 ADD SWAP1 DUP1 DUP1 CALLDATALOAD PUSH20 0xFFFFFFFFFFFFFFFFFFFFFFFFFFFFFFFFFFFFFFFF AND SWAP1 PUSH1 0x20 ADD SWAP1 SWAP3 SWAP2 SWAP1 POP POP POP PUSH2 0x2666 JUMP JUMPDEST PUSH1 0x40 MLOAD DUP1 DUP3 ISZERO ISZERO DUP2 MSTORE PUSH1 0x20 ADD SWAP2 POP POP PUSH1 0x40 MLOAD DUP1 SWAP2 SUB SWAP1 RETURN JUMPDEST CALLVALUE DUP1 ISZERO PUSH2 0x1107 JUMPI PUSH1 0x0 DUP1 REVERT JUMPDEST POP PUSH2 0x1134 PUSH1 0x4 DUP1 CALLDATASIZE SUB PUSH1 0x20 DUP2 LT ISZERO PUSH2 0x111E JUMPI PUSH1 0x0 DUP1 REVERT JUMPDEST DUP2 ADD SWAP1 DUP1 DUP1 CALLDATALOAD SWAP1 PUSH1 0x20 ADD SWAP1 SWAP3 SWAP2 SWAP1 POP POP POP PUSH2 0x26BC JUMP JUMPDEST PUSH1 0x40 MLOAD DUP1 DUP3 DUP2 MSTORE PUSH1 0x20 ADD SWAP2 POP POP PUSH1 0x40 MLOAD DUP1 SWAP2 SUB SWAP1 RETURN JUMPDEST CALLVALUE DUP1 ISZERO PUSH2 0x1156 JUMPI PUSH1 0x0 DUP1 REVERT JUMPDEST POP PUSH2 0x11B9 PUSH1 0x4 DUP1 CALLDATASIZE SUB PUSH1 0x40 DUP2 LT ISZERO PUSH2 0x116D JUMPI PUSH1 0x0 DUP1 REVERT JUMPDEST DUP2 ADD SWAP1 DUP1 DUP1 CALLDATALOAD PUSH20 0xFFFFFFFFFFFFFFFFFFFFFFFFFFFFFFFFFFFFFFFF AND SWAP1 PUSH1 0x20 ADD SWAP1 SWAP3 SWAP2 SWAP1 DUP1 CALLDATALOAD PUSH20 0xFFFFFFFFFFFFFFFFFFFFFFFFFFFFFFFFFFFFFFFF AND SWAP1 PUSH1 0x20 ADD SWAP1 SWAP3 SWAP2 SWAP1 POP POP POP PUSH2 0x277E JUMP JUMPDEST PUSH1 0x40 MLOAD DUP1 DUP3 DUP2 MSTORE PUSH1 0x20 ADD SWAP2 POP POP PUSH1 0x40 MLOAD DUP1 SWAP2 SUB SWAP1 RETURN JUMPDEST CALLVALUE DUP1 ISZERO PUSH2 0x11DB JUMPI PUSH1 0x0 DUP1 REVERT JUMPDEST POP PUSH2 0x120A PUSH1 0x4 DUP1 CALLDATASIZE SUB PUSH1 0x20 DUP2 LT ISZERO PUSH2 0x11F2 JUMPI PUSH1 0x0 DUP1 REVERT JUMPDEST DUP2 ADD SWAP1 DUP1 DUP1 CALLDATALOAD ISZERO ISZERO SWAP1 PUSH1 0x20 ADD SWAP1 SWAP3 SWAP2 SWAP1 POP POP POP PUSH2 0x2805 JUMP JUMPDEST STOP JUMPDEST CALLVALUE DUP1 ISZERO PUSH2 0x1218 JUMPI PUSH1 0x0 DUP1 REVERT JUMPDEST POP PUSH2 0x125B PUSH1 0x4 DUP1 CALLDATASIZE SUB PUSH1 0x20 DUP2 LT ISZERO PUSH2 0x122F JUMPI PUSH1 0x0 DUP1 REVERT JUMPDEST DUP2 ADD SWAP1 DUP1 DUP1 CALLDATALOAD PUSH20 0xFFFFFFFFFFFFFFFFFFFFFFFFFFFFFFFFFFFFFFFF AND SWAP1 PUSH1 0x20 ADD SWAP1 SWAP3 SWAP2 SWAP1 POP POP POP PUSH2 0x285E JUMP JUMPDEST STOP JUMPDEST CALLVALUE DUP1 ISZERO PUSH2 0x1269 JUMPI PUSH1 0x0 DUP1 REVERT JUMPDEST POP PUSH2 0x12AC PUSH1 0x4 DUP1 CALLDATASIZE SUB PUSH1 0x20 DUP2 LT ISZERO PUSH2 0x1280 JUMPI PUSH1 0x0 DUP1 REVERT JUMPDEST DUP2 ADD SWAP1 DUP1 DUP1 CALLDATALOAD PUSH20 0xFFFFFFFFFFFFFFFFFFFFFFFFFFFFFFFFFFFFFFFF AND SWAP1 PUSH1 0x20 ADD SWAP1 SWAP3 SWAP2 SWAP1 POP POP POP PUSH2 0x287B JUMP JUMPDEST PUSH1 0x40 MLOAD DUP1 DUP3 ISZERO ISZERO DUP2 MSTORE PUSH1 0x20 ADD SWAP2 POP POP PUSH1 0x40 MLOAD DUP1 SWAP2 SUB SWAP1 RETURN JUMPDEST PUSH1 0x60 PUSH1 0x0 DUP1 SLOAD PUSH1 0x1 DUP2 PUSH1 0x1 AND ISZERO PUSH2 0x100 MUL SUB AND PUSH1 0x2 SWAP1 DIV DUP1 PUSH1 0x1F ADD PUSH1 0x20 DUP1 SWAP2 DIV MUL PUSH1 0x20 ADD PUSH1 0x40 MLOAD SWAP1 DUP2 ADD PUSH1 0x40 MSTORE DUP1 SWAP3 SWAP2 SWAP1 DUP2 DUP2 MSTORE PUSH1 0x20 ADD DUP3 DUP1 SLOAD PUSH1 0x1 DUP2 PUSH1 0x1 AND ISZERO PUSH2 0x100 MUL SUB AND PUSH1 0x2 SWAP1 DIV DUP1 ISZERO PUSH2 0x135C JUMPI DUP1 PUSH1 0x1F LT PUSH2 0x1331 JUMPI PUSH2 0x100 DUP1 DUP4 SLOAD DIV MUL DUP4 MSTORE SWAP2 PUSH1 0x20 ADD SWAP2 PUSH2 0x135C JUMP JUMPDEST DUP3 ADD SWAP2 SWAP1 PUSH1 0x0 MSTORE PUSH1 0x20 PUSH1 0x0 KECCAK256 SWAP1 JUMPDEST DUP2 SLOAD DUP2 MSTORE SWAP1 PUSH1 0x1 ADD SWAP1 PUSH1 0x20 ADD DUP1 DUP4 GT PUSH2 0x133F JUMPI DUP3 SWAP1 SUB PUSH1 0x1F AND DUP3 ADD SWAP2 JUMPDEST POP POP POP POP POP SWAP1 POP SWAP1 JUMP JUMPDEST PUSH1 0x11 PUSH1 0x0 SWAP1 SLOAD SWAP1 PUSH2 0x100 EXP SWAP1 DIV PUSH20 0xFFFFFFFFFFFFFFFFFFFFFFFFFFFFFFFFFFFFFFFF AND DUP2 JUMP JUMPDEST PUSH1 0x0 DUP2 PUSH1 0x1C PUSH1 0x0 CALLER PUSH20 0xFFFFFFFFFFFFFFFFFFFFFFFFFFFFFFFFFFFFFFFF AND PUSH20 0xFFFFFFFFFFFFFFFFFFFFFFFFFFFFFFFFFFFFFFFF AND DUP2 MSTORE PUSH1 0x20 ADD SWAP1 DUP2 MSTORE PUSH1 0x20 ADD PUSH1 0x0 KECCAK256 PUSH1 0x0 DUP6 PUSH20 0xFFFFFFFFFFFFFFFFFFFFFFFFFFFFFFFFFFFFFFFF AND PUSH20 0xFFFFFFFFFFFFFFFFFFFFFFFFFFFFFFFFFFFFFFFF AND DUP2 MSTORE PUSH1 0x20 ADD SWAP1 DUP2 MSTORE PUSH1 0x20 ADD PUSH1 0x0 KECCAK256 DUP2 SWAP1 SSTORE POP DUP3 PUSH20 0xFFFFFFFFFFFFFFFFFFFFFFFFFFFFFFFFFFFFFFFF AND CALLER PUSH20 0xFFFFFFFFFFFFFFFFFFFFFFFFFFFFFFFFFFFFFFFF AND PUSH32 0x8C5BE1E5EBEC7D5BD14F71427D1E84F3DD0314C0F7B2291E5B200AC8C7C3B925 DUP5 PUSH1 0x40 MLOAD DUP1 DUP3 DUP2 MSTORE PUSH1 0x20 ADD SWAP2 POP POP PUSH1 0x40 MLOAD DUP1 SWAP2 SUB SWAP1 LOG3 PUSH1 0x1 SWAP1 POP SWAP3 SWAP2 POP POP JUMP JUMPDEST PUSH1 0xD SLOAD DUP2 JUMP JUMPDEST PUSH1 0x0 PUSH1 0x19 SLOAD SWAP1 POP SWAP1 JUMP JUMPDEST PUSH1 0xC SLOAD DUP2 JUMP JUMPDEST PUSH1 0x0 DUP3 PUSH1 0x0 PUSH20 0xFFFFFFFFFFFFFFFFFFFFFFFFFFFFFFFFFFFFFFFF AND DUP2 PUSH20 0xFFFFFFFFFFFFFFFFFFFFFFFFFFFFFFFFFFFFFFFF AND EQ ISZERO PUSH2 0x14D1 JUMPI PUSH1 0x0 DUP1 REVERT JUMPDEST PUSH32 0xFFFFFFFFFFFFFFFFFFFFFFFFFFFFFFFFFFFFFFFFFFFFFFFFFFFFFFFFFFFFFFFF PUSH1 0x1C PUSH1 0x0 DUP8 PUSH20 0xFFFFFFFFFFFFFFFFFFFFFFFFFFFFFFFFFFFFFFFF AND PUSH20 0xFFFFFFFFFFFFFFFFFFFFFFFFFFFFFFFFFFFFFFFF AND DUP2 MSTORE PUSH1 0x20 ADD SWAP1 DUP2 MSTORE PUSH1 0x20 ADD PUSH1 0x0 KECCAK256 PUSH1 0x0 CALLER PUSH20 0xFFFFFFFFFFFFFFFFFFFFFFFFFFFFFFFFFFFFFFFF AND PUSH20 0xFFFFFFFFFFFFFFFFFFFFFFFFFFFFFFFFFFFFFFFF AND DUP2 MSTORE PUSH1 0x20 ADD SWAP1 DUP2 MSTORE PUSH1 0x20 ADD PUSH1 0x0 KECCAK256 SLOAD EQ PUSH2 0x16BB JUMPI PUSH2 0x163A DUP4 PUSH1 0x40 MLOAD DUP1 PUSH1 0x40 ADD PUSH1 0x40 MSTORE DUP1 PUSH1 0x16 DUP2 MSTORE PUSH1 0x20 ADD PUSH32 0x496E73756666696369656E7420416C6C6F77616E636500000000000000000000 DUP2 MSTORE POP PUSH1 0x1C PUSH1 0x0 DUP10 PUSH20 0xFFFFFFFFFFFFFFFFFFFFFFFFFFFFFFFFFFFFFFFF AND PUSH20 0xFFFFFFFFFFFFFFFFFFFFFFFFFFFFFFFFFFFFFFFF AND DUP2 MSTORE PUSH1 0x20 ADD SWAP1 DUP2 MSTORE PUSH1 0x20 ADD PUSH1 0x0 KECCAK256 PUSH1 0x0 CALLER PUSH20 0xFFFFFFFFFFFFFFFFFFFFFFFFFFFFFFFFFFFFFFFF AND PUSH20 0xFFFFFFFFFFFFFFFFFFFFFFFFFFFFFFFFFFFFFFFF AND DUP2 MSTORE PUSH1 0x20 ADD SWAP1 DUP2 MSTORE PUSH1 0x20 ADD PUSH1 0x0 KECCAK256 SLOAD PUSH2 0x296D SWAP1 SWAP3 SWAP2 SWAP1 PUSH4 0xFFFFFFFF AND JUMP JUMPDEST PUSH1 0x1C PUSH1 0x0 DUP8 PUSH20 0xFFFFFFFFFFFFFFFFFFFFFFFFFFFFFFFFFFFFFFFF AND PUSH20 0xFFFFFFFFFFFFFFFFFFFFFFFFFFFFFFFFFFFFFFFF AND DUP2 MSTORE PUSH1 0x20 ADD SWAP1 DUP2 MSTORE PUSH1 0x20 ADD PUSH1 0x0 KECCAK256 PUSH1 0x0 CALLER PUSH20 0xFFFFFFFFFFFFFFFFFFFFFFFFFFFFFFFFFFFFFFFF AND PUSH20 0xFFFFFFFFFFFFFFFFFFFFFFFFFFFFFFFFFFFFFFFF AND DUP2 MSTORE PUSH1 0x20 ADD SWAP1 DUP2 MSTORE PUSH1 0x20 ADD PUSH1 0x0 KECCAK256 DUP2 SWAP1 SSTORE POP JUMPDEST PUSH2 0x16C6 DUP6 DUP6 DUP6 PUSH2 0x2A2D JUMP JUMPDEST POP PUSH1 0x1 SWAP2 POP POP SWAP4 SWAP3 POP POP POP JUMP JUMPDEST PUSH1 0x0 PUSH2 0x17E8 PUSH1 0x1A SLOAD PUSH2 0x17DA PUSH1 0x1B PUSH1 0x0 PUSH1 0xF PUSH1 0x0 SWAP1 SLOAD SWAP1 PUSH2 0x100 EXP SWAP1 DIV PUSH20 0xFFFFFFFFFFFFFFFFFFFFFFFFFFFFFFFFFFFFFFFF AND PUSH20 0xFFFFFFFFFFFFFFFFFFFFFFFFFFFFFFFFFFFFFFFF AND PUSH20 0xFFFFFFFFFFFFFFFFFFFFFFFFFFFFFFFFFFFFFFFF AND DUP2 MSTORE PUSH1 0x20 ADD SWAP1 DUP2 MSTORE PUSH1 0x20 ADD PUSH1 0x0 KECCAK256 SLOAD PUSH2 0x17CC PUSH1 0x1B PUSH1 0x0 PUSH1 0xE PUSH1 0x0 SWAP1 SLOAD SWAP1 PUSH2 0x100 EXP SWAP1 DIV PUSH20 0xFFFFFFFFFFFFFFFFFFFFFFFFFFFFFFFFFFFFFFFF AND PUSH20 0xFFFFFFFFFFFFFFFFFFFFFFFFFFFFFFFFFFFFFFFF AND PUSH20 0xFFFFFFFFFFFFFFFFFFFFFFFFFFFFFFFFFFFFFFFF AND DUP2 MSTORE PUSH1 0x20 ADD SWAP1 DUP2 MSTORE PUSH1 0x20 ADD PUSH1 0x0 KECCAK256 SLOAD PUSH1 0x5 PUSH1 0xA EXP PUSH3 0x4F588 MUL PUSH1 0x0 NOT DUP2 PUSH2 0x17B9 JUMPI INVALID JUMPDEST MOD PUSH1 0x0 NOT SUB PUSH2 0x2D8F SWAP1 SWAP2 SWAP1 PUSH4 0xFFFFFFFF AND JUMP JUMPDEST PUSH2 0x2D8F SWAP1 SWAP2 SWAP1 PUSH4 0xFFFFFFFF AND JUMP JUMPDEST PUSH2 0x2923 SWAP1 SWAP2 SWAP1 PUSH4 0xFFFFFFFF AND JUMP JUMPDEST SWAP1 POP SWAP1 JUMP JUMPDEST PUSH1 0xA SLOAD DUP2 JUMP JUMPDEST PUSH1 0x5 DUP2 JUMP JUMPDEST PUSH2 0x1800 PUSH2 0x1E6B JUMP JUMPDEST PUSH2 0x1809 JUMPI PUSH1 0x0 DUP1 REVERT JUMPDEST POP JUMP JUMPDEST PUSH1 0x0 PUSH1 0x2 PUSH1 0x0 SWAP1 SLOAD SWAP1 PUSH2 0x100 EXP SWAP1 DIV PUSH1 0xFF AND SWAP1 POP SWAP1 JUMP JUMPDEST PUSH1 0x5 PUSH1 0x0 SWAP1 SLOAD SWAP1 PUSH2 0x100 EXP SWAP1 DIV PUSH1 0xFF AND DUP2 JUMP JUMPDEST PUSH1 0x17 SLOAD DUP2 JUMP JUMPDEST PUSH1 0x0 NOT DUP2 JUMP JUMPDEST PUSH2 0x184A PUSH2 0x1E6B JUMP JUMPDEST PUSH2 0x1853 JUMPI PUSH1 0x0 DUP1 REVERT JUMPDEST PUSH2 0x185C DUP3 PUSH2 0x2DD9 JUMP JUMPDEST PUSH2 0x18B1 JUMPI PUSH1 0x40 MLOAD PUSH32 0x8C379A000000000000000000000000000000000000000000000000000000000 DUP2 MSTORE PUSH1 0x4 ADD DUP1 DUP1 PUSH1 0x20 ADD DUP3 DUP2 SUB DUP3 MSTORE PUSH1 0x3B DUP2 MSTORE PUSH1 0x20 ADD DUP1 PUSH2 0x3D72 PUSH1 0x3B SWAP2 CODECOPY PUSH1 0x40 ADD SWAP2 POP POP PUSH1 0x40 MLOAD DUP1 SWAP2 SUB SWAP1 REVERT JUMPDEST DUP1 PUSH1 0x1D PUSH1 0x0 DUP5 PUSH20 0xFFFFFFFFFFFFFFFFFFFFFFFFFFFFFFFFFFFFFFFF AND PUSH20 0xFFFFFFFFFFFFFFFFFFFFFFFFFFFFFFFFFFFFFFFF AND DUP2 MSTORE PUSH1 0x20 ADD SWAP1 DUP2 MSTORE PUSH1 0x20 ADD PUSH1 0x0 KECCAK256 PUSH1 0x0 PUSH2 0x100 EXP DUP2 SLOAD DUP2 PUSH1 0xFF MUL NOT AND SWAP1 DUP4 ISZERO ISZERO MUL OR SWAP1 SSTORE POP POP POP JUMP JUMPDEST PUSH1 0x0 PUSH2 0x199D DUP3 PUSH1 0x1C PUSH1 0x0 CALLER PUSH20 0xFFFFFFFFFFFFFFFFFFFFFFFFFFFFFFFFFFFFFFFF AND PUSH20 0xFFFFFFFFFFFFFFFFFFFFFFFFFFFFFFFFFFFFFFFF AND DUP2 MSTORE PUSH1 0x20 ADD SWAP1 DUP2 MSTORE PUSH1 0x20 ADD PUSH1 0x0 KECCAK256 PUSH1 0x0 DUP7 PUSH20 0xFFFFFFFFFFFFFFFFFFFFFFFFFFFFFFFFFFFFFFFF AND PUSH20 0xFFFFFFFFFFFFFFFFFFFFFFFFFFFFFFFFFFFFFFFF AND DUP2 MSTORE PUSH1 0x20 ADD SWAP1 DUP2 MSTORE PUSH1 0x20 ADD PUSH1 0x0 KECCAK256 SLOAD PUSH2 0x289B SWAP1 SWAP2 SWAP1 PUSH4 0xFFFFFFFF AND JUMP JUMPDEST PUSH1 0x1C PUSH1 0x0 CALLER PUSH20 0xFFFFFFFFFFFFFFFFFFFFFFFFFFFFFFFFFFFFFFFF AND PUSH20 0xFFFFFFFFFFFFFFFFFFFFFFFFFFFFFFFFFFFFFFFF AND DUP2 MSTORE PUSH1 0x20 ADD SWAP1 DUP2 MSTORE PUSH1 0x20 ADD PUSH1 0x0 KECCAK256 PUSH1 0x0 DUP6 PUSH20 0xFFFFFFFFFFFFFFFFFFFFFFFFFFFFFFFFFFFFFFFF AND PUSH20 0xFFFFFFFFFFFFFFFFFFFFFFFFFFFFFFFFFFFFFFFF AND DUP2 MSTORE PUSH1 0x20 ADD SWAP1 DUP2 MSTORE PUSH1 0x20 ADD PUSH1 0x0 KECCAK256 DUP2 SWAP1 SSTORE POP DUP3 PUSH20 0xFFFFFFFFFFFFFFFFFFFFFFFFFFFFFFFFFFFFFFFF AND CALLER PUSH20 0xFFFFFFFFFFFFFFFFFFFFFFFFFFFFFFFFFFFFFFFF AND PUSH32 0x8C5BE1E5EBEC7D5BD14F71427D1E84F3DD0314C0F7B2291E5B200AC8C7C3B925 PUSH1 0x1C PUSH1 0x0 CALLER PUSH20 0xFFFFFFFFFFFFFFFFFFFFFFFFFFFFFFFFFFFFFFFF AND PUSH20 0xFFFFFFFFFFFFFFFFFFFFFFFFFFFFFFFFFFFFFFFF AND DUP2 MSTORE PUSH1 0x20 ADD SWAP1 DUP2 MSTORE PUSH1 0x20 ADD PUSH1 0x0 KECCAK256 PUSH1 0x0 DUP8 PUSH20 0xFFFFFFFFFFFFFFFFFFFFFFFFFFFFFFFFFFFFFFFF AND PUSH20 0xFFFFFFFFFFFFFFFFFFFFFFFFFFFFFFFFFFFFFFFF AND DUP2 MSTORE PUSH1 0x20 ADD SWAP1 DUP2 MSTORE PUSH1 0x20 ADD PUSH1 0x0 KECCAK256 SLOAD PUSH1 0x40 MLOAD DUP1 DUP3 DUP2 MSTORE PUSH1 0x20 ADD SWAP2 POP POP PUSH1 0x40 MLOAD DUP1 SWAP2 SUB SWAP1 LOG3 PUSH1 0x1 SWAP1 POP SWAP3 SWAP2 POP POP JUMP JUMPDEST PUSH1 0x12 PUSH1 0x0 SWAP1 SLOAD SWAP1 PUSH2 0x100 EXP SWAP1 DIV PUSH20 0xFFFFFFFFFFFFFFFFFFFFFFFFFFFFFFFFFFFFFFFF AND DUP2 JUMP JUMPDEST PUSH2 0x1B36 PUSH2 0x1E6B JUMP JUMPDEST PUSH2 0x1B3F JUMPI PUSH1 0x0 DUP1 REVERT JUMPDEST DUP4 PUSH1 0x10 PUSH1 0x0 PUSH2 0x100 EXP DUP2 SLOAD DUP2 PUSH20 0xFFFFFFFFFFFFFFFFFFFFFFFFFFFFFFFFFFFFFFFF MUL NOT AND SWAP1 DUP4 PUSH20 0xFFFFFFFFFFFFFFFFFFFFFFFFFFFFFFFFFFFFFFFF AND MUL OR SWAP1 SSTORE POP DUP3 PUSH1 0x11 PUSH1 0x0 PUSH2 0x100 EXP DUP2 SLOAD DUP2 PUSH20 0xFFFFFFFFFFFFFFFFFFFFFFFFFFFFFFFFFFFFFFFF MUL NOT AND SWAP1 DUP4 PUSH20 0xFFFFFFFFFFFFFFFFFFFFFFFFFFFFFFFFFFFFFFFF AND MUL OR SWAP1 SSTORE POP DUP2 PUSH1 0x12 PUSH1 0x0 PUSH2 0x100 EXP DUP2 SLOAD DUP2 PUSH20 0xFFFFFFFFFFFFFFFFFFFFFFFFFFFFFFFFFFFFFFFF MUL NOT AND SWAP1 DUP4 PUSH20 0xFFFFFFFFFFFFFFFFFFFFFFFFFFFFFFFFFFFFFFFF AND MUL OR SWAP1 SSTORE POP DUP1 PUSH1 0x13 PUSH1 0x0 PUSH2 0x100 EXP DUP2 SLOAD DUP2 PUSH20 0xFFFFFFFFFFFFFFFFFFFFFFFFFFFFFFFFFFFFFFFF MUL NOT AND SWAP1 DUP4 PUSH20 0xFFFFFFFFFFFFFFFFFFFFFFFFFFFFFFFFFFFFFFFF AND MUL OR SWAP1 SSTORE POP POP POP POP POP JUMP JUMPDEST PUSH1 0x19 SLOAD DUP2 JUMP JUMPDEST PUSH1 0x13 PUSH1 0x0 SWAP1 SLOAD SWAP1 PUSH2 0x100 EXP SWAP1 DIV PUSH20 0xFFFFFFFFFFFFFFFFFFFFFFFFFFFFFFFFFFFFFFFF AND DUP2 JUMP JUMPDEST PUSH1 0x9 SLOAD DUP2 JUMP JUMPDEST PUSH1 0x7 DUP2 JUMP JUMPDEST PUSH1 0x15 PUSH1 0x16 SWAP1 SLOAD SWAP1 PUSH2 0x100 EXP SWAP1 DIV PUSH1 0xFF AND DUP2 JUMP JUMPDEST PUSH1 0x14 DUP1 SLOAD SWAP1 PUSH2 0x100 EXP SWAP1 DIV PUSH1 0xFF AND DUP2 JUMP JUMPDEST PUSH1 0x0 PUSH2 0x1CFA PUSH1 0x1A SLOAD PUSH1 0x1B PUSH1 0x0 DUP6 PUSH20 0xFFFFFFFFFFFFFFFFFFFFFFFFFFFFFFFFFFFFFFFF AND PUSH20 0xFFFFFFFFFFFFFFFFFFFFFFFFFFFFFFFFFFFFFFFF AND DUP2 MSTORE PUSH1 0x20 ADD SWAP1 DUP2 MSTORE PUSH1 0x20 ADD PUSH1 0x0 KECCAK256 SLOAD PUSH2 0x2923 SWAP1 SWAP2 SWAP1 PUSH4 0xFFFFFFFF AND JUMP JUMPDEST SWAP1 POP SWAP2 SWAP1 POP JUMP JUMPDEST PUSH2 0x1D09 PUSH2 0x1E6B JUMP JUMPDEST PUSH2 0x1D12 JUMPI PUSH1 0x0 DUP1 REVERT JUMPDEST PUSH1 0x2 PUSH1 0x1 SWAP1 SLOAD SWAP1 PUSH2 0x100 EXP SWAP1 DIV PUSH20 0xFFFFFFFFFFFFFFFFFFFFFFFFFFFFFFFFFFFFFFFF AND PUSH20 0xFFFFFFFFFFFFFFFFFFFFFFFFFFFFFFFFFFFFFFFF AND PUSH32 0xF8DF31144D9C2F0F6B59D69B8B98ABD5459D07F2742C4DF920B25AAE33C64820 PUSH1 0x40 MLOAD PUSH1 0x40 MLOAD DUP1 SWAP2 SUB SWAP1 LOG2 PUSH1 0x0 PUSH1 0x2 PUSH1 0x1 PUSH2 0x100 EXP DUP2 SLOAD DUP2 PUSH20 0xFFFFFFFFFFFFFFFFFFFFFFFFFFFFFFFFFFFFFFFF MUL NOT AND SWAP1 DUP4 PUSH20 0xFFFFFFFFFFFFFFFFFFFFFFFFFFFFFFFFFFFFFFFF AND MUL OR SWAP1 SSTORE POP JUMP JUMPDEST JUMP JUMPDEST PUSH1 0x0 PUSH1 0x15 PUSH1 0x14 SWAP1 SLOAD SWAP1 PUSH2 0x100 EXP SWAP1 DIV PUSH1 0xFF AND ISZERO SWAP1 POP SWAP1 JUMP JUMPDEST PUSH2 0x1DDD PUSH2 0x1E6B JUMP JUMPDEST PUSH2 0x1DE6 JUMPI PUSH1 0x0 DUP1 REVERT JUMPDEST PUSH1 0x1 PUSH1 0x6 PUSH1 0x0 DUP4 PUSH20 0xFFFFFFFFFFFFFFFFFFFFFFFFFFFFFFFFFFFFFFFF AND PUSH20 0xFFFFFFFFFFFFFFFFFFFFFFFFFFFFFFFFFFFFFFFF AND DUP2 MSTORE PUSH1 0x20 ADD SWAP1 DUP2 MSTORE PUSH1 0x20 ADD PUSH1 0x0 KECCAK256 PUSH1 0x0 PUSH2 0x100 EXP DUP2 SLOAD DUP2 PUSH1 0xFF MUL NOT AND SWAP1 DUP4 ISZERO ISZERO MUL OR SWAP1 SSTORE POP POP JUMP JUMPDEST PUSH1 0x0 PUSH1 0x2 PUSH1 0x1 SWAP1 SLOAD SWAP1 PUSH2 0x100 EXP SWAP1 DIV PUSH20 0xFFFFFFFFFFFFFFFFFFFFFFFFFFFFFFFFFFFFFFFF AND SWAP1 POP SWAP1 JUMP JUMPDEST PUSH1 0x0 PUSH1 0x2 PUSH1 0x1 SWAP1 SLOAD SWAP1 PUSH2 0x100 EXP SWAP1 DIV PUSH20 0xFFFFFFFFFFFFFFFFFFFFFFFFFFFFFFFFFFFFFFFF AND PUSH20 0xFFFFFFFFFFFFFFFFFFFFFFFFFFFFFFFFFFFFFFFF AND CALLER PUSH20 0xFFFFFFFFFFFFFFFFFFFFFFFFFFFFFFFFFFFFFFFF AND EQ SWAP1 POP SWAP1 JUMP JUMPDEST PUSH1 0x60 PUSH1 0x1 DUP1 SLOAD PUSH1 0x1 DUP2 PUSH1 0x1 AND ISZERO PUSH2 0x100 MUL SUB AND PUSH1 0x2 SWAP1 DIV DUP1 PUSH1 0x1F ADD PUSH1 0x20 DUP1 SWAP2 DIV MUL PUSH1 0x20 ADD PUSH1 0x40 MLOAD SWAP1 DUP2 ADD PUSH1 0x40 MSTORE DUP1 SWAP3 SWAP2 SWAP1 DUP2 DUP2 MSTORE PUSH1 0x20 ADD DUP3 DUP1 SLOAD PUSH1 0x1 DUP2 PUSH1 0x1 AND ISZERO PUSH2 0x100 MUL SUB AND PUSH1 0x2 SWAP1 DIV DUP1 ISZERO PUSH2 0x1F5B JUMPI DUP1 PUSH1 0x1F LT PUSH2 0x1F30 JUMPI PUSH2 0x100 DUP1 DUP4 SLOAD DIV MUL DUP4 MSTORE SWAP2 PUSH1 0x20 ADD SWAP2 PUSH2 0x1F5B JUMP JUMPDEST DUP3 ADD SWAP2 SWAP1 PUSH1 0x0 MSTORE PUSH1 0x20 PUSH1 0x0 KECCAK256 SWAP1 JUMPDEST DUP2 SLOAD DUP2 MSTORE SWAP1 PUSH1 0x1 ADD SWAP1 PUSH1 0x20 ADD DUP1 DUP4 GT PUSH2 0x1F3E JUMPI DUP3 SWAP1 SUB PUSH1 0x1F AND DUP3 ADD SWAP2 JUMPDEST POP POP POP POP POP SWAP1 POP SWAP1 JUMP JUMPDEST PUSH1 0x7 SLOAD DUP2 JUMP JUMPDEST PUSH1 0x18 SLOAD DUP2 JUMP JUMPDEST PUSH1 0x16 SLOAD DUP2 JUMP JUMPDEST PUSH2 0x1F7F PUSH2 0x1E6B JUMP JUMPDEST PUSH2 0x1F88 JUMPI PUSH1 0x0 DUP1 REVERT JUMPDEST DUP1 PUSH1 0x14 PUSH1 0x0 PUSH2 0x100 EXP DUP2 SLOAD DUP2 PUSH20 0xFFFFFFFFFFFFFFFFFFFFFFFFFFFFFFFFFFFFFFFF MUL NOT AND SWAP1 DUP4 PUSH20 0xFFFFFFFFFFFFFFFFFFFFFFFFFFFFFFFFFFFFFFFF AND MUL OR SWAP1 SSTORE POP POP JUMP JUMPDEST PUSH1 0x0 DUP1 PUSH1 0x1C PUSH1 0x0 CALLER PUSH20 0xFFFFFFFFFFFFFFFFFFFFFFFFFFFFFFFFFFFFFFFF AND PUSH20 0xFFFFFFFFFFFFFFFFFFFFFFFFFFFFFFFFFFFFFFFF AND DUP2 MSTORE PUSH1 0x20 ADD SWAP1 DUP2 MSTORE PUSH1 0x20 ADD PUSH1 0x0 KECCAK256 PUSH1 0x0 DUP6 PUSH20 0xFFFFFFFFFFFFFFFFFFFFFFFFFFFFFFFFFFFFFFFF AND PUSH20 0xFFFFFFFFFFFFFFFFFFFFFFFFFFFFFFFFFFFFFFFF AND DUP2 MSTORE PUSH1 0x20 ADD SWAP1 DUP2 MSTORE PUSH1 0x20 ADD PUSH1 0x0 KECCAK256 SLOAD SWAP1 POP DUP1 DUP4 LT PUSH2 0x20DC JUMPI PUSH1 0x0 PUSH1 0x1C PUSH1 0x0 CALLER PUSH20 0xFFFFFFFFFFFFFFFFFFFFFFFFFFFFFFFFFFFFFFFF AND PUSH20 0xFFFFFFFFFFFFFFFFFFFFFFFFFFFFFFFFFFFFFFFF AND DUP2 MSTORE PUSH1 0x20 ADD SWAP1 DUP2 MSTORE PUSH1 0x20 ADD PUSH1 0x0 KECCAK256 PUSH1 0x0 DUP7 PUSH20 0xFFFFFFFFFFFFFFFFFFFFFFFFFFFFFFFFFFFFFFFF AND PUSH20 0xFFFFFFFFFFFFFFFFFFFFFFFFFFFFFFFFFFFFFFFF AND DUP2 MSTORE PUSH1 0x20 ADD SWAP1 DUP2 MSTORE PUSH1 0x20 ADD PUSH1 0x0 KECCAK256 DUP2 SWAP1 SSTORE POP PUSH2 0x2170 JUMP JUMPDEST PUSH2 0x20EF DUP4 DUP3 PUSH2 0x2D8F SWAP1 SWAP2 SWAP1 PUSH4 0xFFFFFFFF AND JUMP JUMPDEST PUSH1 0x1C PUSH1 0x0 CALLER PUSH20 0xFFFFFFFFFFFFFFFFFFFFFFFFFFFFFFFFFFFFFFFF AND PUSH20 0xFFFFFFFFFFFFFFFFFFFFFFFFFFFFFFFFFFFFFFFF AND DUP2 MSTORE PUSH1 0x20 ADD SWAP1 DUP2 MSTORE PUSH1 0x20 ADD PUSH1 0x0 KECCAK256 PUSH1 0x0 DUP7 PUSH20 0xFFFFFFFFFFFFFFFFFFFFFFFFFFFFFFFFFFFFFFFF AND PUSH20 0xFFFFFFFFFFFFFFFFFFFFFFFFFFFFFFFFFFFFFFFF AND DUP2 MSTORE PUSH1 0x20 ADD SWAP1 DUP2 MSTORE PUSH1 0x20 ADD PUSH1 0x0 KECCAK256 DUP2 SWAP1 SSTORE POP JUMPDEST DUP4 PUSH20 0xFFFFFFFFFFFFFFFFFFFFFFFFFFFFFFFFFFFFFFFF AND CALLER PUSH20 0xFFFFFFFFFFFFFFFFFFFFFFFFFFFFFFFFFFFFFFFF AND PUSH32 0x8C5BE1E5EBEC7D5BD14F71427D1E84F3DD0314C0F7B2291E5B200AC8C7C3B925 PUSH1 0x1C PUSH1 0x0 CALLER PUSH20 0xFFFFFFFFFFFFFFFFFFFFFFFFFFFFFFFFFFFFFFFF AND PUSH20 0xFFFFFFFFFFFFFFFFFFFFFFFFFFFFFFFFFFFFFFFF AND DUP2 MSTORE PUSH1 0x20 ADD SWAP1 DUP2 MSTORE PUSH1 0x20 ADD PUSH1 0x0 KECCAK256 PUSH1 0x0 DUP9 PUSH20 0xFFFFFFFFFFFFFFFFFFFFFFFFFFFFFFFFFFFFFFFF AND PUSH20 0xFFFFFFFFFFFFFFFFFFFFFFFFFFFFFFFFFFFFFFFF AND DUP2 MSTORE PUSH1 0x20 ADD SWAP1 DUP2 MSTORE PUSH1 0x20 ADD PUSH1 0x0 KECCAK256 SLOAD PUSH1 0x40 MLOAD DUP1 DUP3 DUP2 MSTORE PUSH1 0x20 ADD SWAP2 POP POP PUSH1 0x40 MLOAD DUP1 SWAP2 SUB SWAP1 LOG3 PUSH1 0x1 SWAP2 POP POP SWAP3 SWAP2 POP POP JUMP JUMPDEST PUSH1 0xB SLOAD DUP2 JUMP JUMPDEST PUSH1 0x15 PUSH1 0x0 SWAP1 SLOAD SWAP1 PUSH2 0x100 EXP SWAP1 DIV PUSH20 0xFFFFFFFFFFFFFFFFFFFFFFFFFFFFFFFFFFFFFFFF AND DUP2 JUMP JUMPDEST PUSH1 0x14 PUSH1 0x0 SWAP1 SLOAD SWAP1 PUSH2 0x100 EXP SWAP1 DIV PUSH20 0xFFFFFFFFFFFFFFFFFFFFFFFFFFFFFFFFFFFFFFFF AND DUP2 JUMP JUMPDEST PUSH1 0x0 DUP3 PUSH1 0x0 PUSH20 0xFFFFFFFFFFFFFFFFFFFFFFFFFFFFFFFFFFFFFFFF AND DUP2 PUSH20 0xFFFFFFFFFFFFFFFFFFFFFFFFFFFFFFFFFFFFFFFF AND EQ ISZERO PUSH2 0x22EB JUMPI PUSH1 0x0 DUP1 REVERT JUMPDEST PUSH2 0x22F6 CALLER DUP6 DUP6 PUSH2 0x2A2D JUMP JUMPDEST POP PUSH1 0x1 SWAP2 POP POP SWAP3 SWAP2 POP POP JUMP JUMPDEST PUSH1 0x15 DUP1 SLOAD SWAP1 PUSH2 0x100 EXP SWAP1 DIV PUSH1 0xFF AND DUP2 JUMP JUMPDEST PUSH1 0x4 DUP1 SLOAD PUSH1 0x1 DUP2 PUSH1 0x1 AND ISZERO PUSH2 0x100 MUL SUB AND PUSH1 0x2 SWAP1 DIV DUP1 PUSH1 0x1F ADD PUSH1 0x20 DUP1 SWAP2 DIV MUL PUSH1 0x20 ADD PUSH1 0x40 MLOAD SWAP1 DUP2 ADD PUSH1 0x40 MSTORE DUP1 SWAP3 SWAP2 SWAP1 DUP2 DUP2 MSTORE PUSH1 0x20 ADD DUP3 DUP1 SLOAD PUSH1 0x1 DUP2 PUSH1 0x1 AND ISZERO PUSH2 0x100 MUL SUB AND PUSH1 0x2 SWAP1 DIV DUP1 ISZERO PUSH2 0x23A9 JUMPI DUP1 PUSH1 0x1F LT PUSH2 0x237E JUMPI PUSH2 0x100 DUP1 DUP4 SLOAD DIV MUL DUP4 MSTORE SWAP2 PUSH1 0x20 ADD SWAP2 PUSH2 0x23A9 JUMP JUMPDEST DUP3 ADD SWAP2 SWAP1 PUSH1 0x0 MSTORE PUSH1 0x20 PUSH1 0x0 KECCAK256 SWAP1 JUMPDEST DUP2 SLOAD DUP2 MSTORE SWAP1 PUSH1 0x1 ADD SWAP1 PUSH1 0x20 ADD DUP1 DUP4 GT PUSH2 0x238C JUMPI DUP3 SWAP1 SUB PUSH1 0x1F AND DUP3 ADD SWAP2 JUMPDEST POP POP POP POP POP DUP2 JUMP JUMPDEST PUSH1 0x1 PUSH1 0x15 PUSH1 0x14 PUSH2 0x100 EXP DUP2 SLOAD DUP2 PUSH1 0xFF MUL NOT AND SWAP1 DUP4 ISZERO ISZERO MUL OR SWAP1 SSTORE POP PUSH2 0x23D4 PUSH2 0x1E6B JUMP JUMPDEST PUSH2 0x23DD JUMPI PUSH1 0x0 DUP1 REVERT JUMPDEST PUSH1 0x0 PUSH2 0x2433 PUSH1 0x1A SLOAD PUSH1 0x1B PUSH1 0x0 ADDRESS PUSH20 0xFFFFFFFFFFFFFFFFFFFFFFFFFFFFFFFFFFFFFFFF AND PUSH20 0xFFFFFFFFFFFFFFFFFFFFFFFFFFFFFFFFFFFFFFFF AND DUP2 MSTORE PUSH1 0x20 ADD SWAP1 DUP2 MSTORE PUSH1 0x20 ADD PUSH1 0x0 KECCAK256 SLOAD PUSH2 0x2923 SWAP1 SWAP2 SWAP1 PUSH4 0xFFFFFFFF AND JUMP JUMPDEST SWAP1 POP PUSH1 0x0 DUP2 GT PUSH2 0x248E JUMPI PUSH1 0x40 MLOAD PUSH32 0x8C379A000000000000000000000000000000000000000000000000000000000 DUP2 MSTORE PUSH1 0x4 ADD DUP1 DUP1 PUSH1 0x20 ADD DUP3 DUP2 SUB DUP3 MSTORE PUSH1 0x33 DUP2 MSTORE PUSH1 0x20 ADD DUP1 PUSH2 0x3D1E PUSH1 0x33 SWAP2 CODECOPY PUSH1 0x40 ADD SWAP2 POP POP PUSH1 0x40 MLOAD DUP1 SWAP2 SUB SWAP1 REVERT JUMPDEST PUSH1 0x60 PUSH1 0x2 PUSH8 0xFFFFFFFFFFFFFFFF DUP2 GT DUP1 ISZERO PUSH2 0x24A8 JUMPI PUSH1 0x0 DUP1 REVERT JUMPDEST POP PUSH1 0x40 MLOAD SWAP1 DUP1 DUP3 MSTORE DUP1 PUSH1 0x20 MUL PUSH1 0x20 ADD DUP3 ADD PUSH1 0x40 MSTORE DUP1 ISZERO PUSH2 0x24D7 JUMPI DUP2 PUSH1 0x20 ADD PUSH1 0x20 DUP3 MUL DUP1 CALLDATASIZE DUP4 CALLDATACOPY DUP1 DUP3 ADD SWAP2 POP POP SWAP1 POP JUMPDEST POP SWAP1 POP ADDRESS DUP2 PUSH1 0x0 DUP2 MLOAD DUP2 LT PUSH2 0x24E8 JUMPI INVALID JUMPDEST PUSH1 0x20 MUL PUSH1 0x20 ADD ADD SWAP1 PUSH20 0xFFFFFFFFFFFFFFFFFFFFFFFFFFFFFFFFFFFFFFFF AND SWAP1 DUP2 PUSH20 0xFFFFFFFFFFFFFFFFFFFFFFFFFFFFFFFFFFFFFFFF AND DUP2 MSTORE POP POP POP POP PUSH1 0x0 PUSH1 0x15 PUSH1 0x14 PUSH2 0x100 EXP DUP2 SLOAD DUP2 PUSH1 0xFF MUL NOT AND SWAP1 DUP4 ISZERO ISZERO MUL OR SWAP1 SSTORE POP JUMP JUMPDEST PUSH1 0x10 PUSH1 0x0 SWAP1 SLOAD SWAP1 PUSH2 0x100 EXP SWAP1 DIV PUSH20 0xFFFFFFFFFFFFFFFFFFFFFFFFFFFFFFFFFFFFFFFF AND DUP2 JUMP JUMPDEST PUSH1 0x8 SLOAD DUP2 JUMP JUMPDEST PUSH2 0x2575 PUSH2 0x1E6B JUMP JUMPDEST PUSH2 0x257E JUMPI PUSH1 0x0 DUP1 REVERT JUMPDEST DUP1 ISZERO PUSH2 0x25AA JUMPI DUP1 PUSH1 0x15 PUSH1 0x16 PUSH2 0x100 EXP DUP2 SLOAD DUP2 PUSH1 0xFF MUL NOT AND SWAP1 DUP4 ISZERO ISZERO MUL OR SWAP1 SSTORE POP TIMESTAMP PUSH1 0x18 DUP2 SWAP1 SSTORE POP PUSH2 0x25C5 JUMP JUMPDEST DUP1 PUSH1 0x15 PUSH1 0x16 PUSH2 0x100 EXP DUP2 SLOAD DUP2 PUSH1 0xFF MUL NOT AND SWAP1 DUP4 ISZERO ISZERO MUL OR SWAP1 SSTORE POP JUMPDEST POP JUMP JUMPDEST PUSH1 0x3 DUP1 SLOAD PUSH1 0x1 DUP2 PUSH1 0x1 AND ISZERO PUSH2 0x100 MUL SUB AND PUSH1 0x2 SWAP1 DIV DUP1 PUSH1 0x1F ADD PUSH1 0x20 DUP1 SWAP2 DIV MUL PUSH1 0x20 ADD PUSH1 0x40 MLOAD SWAP1 DUP2 ADD PUSH1 0x40 MSTORE DUP1 SWAP3 SWAP2 SWAP1 DUP2 DUP2 MSTORE PUSH1 0x20 ADD DUP3 DUP1 SLOAD PUSH1 0x1 DUP2 PUSH1 0x1 AND ISZERO PUSH2 0x100 MUL SUB AND PUSH1 0x2 SWAP1 DIV DUP1 ISZERO PUSH2 0x265E JUMPI DUP1 PUSH1 0x1F LT PUSH2 0x2633 JUMPI PUSH2 0x100 DUP1 DUP4 SLOAD DIV MUL DUP4 MSTORE SWAP2 PUSH1 0x20 ADD SWAP2 PUSH2 0x265E JUMP JUMPDEST DUP3 ADD SWAP2 SWAP1 PUSH1 0x0 MSTORE PUSH1 0x20 PUSH1 0x0 KECCAK256 SWAP1 JUMPDEST DUP2 SLOAD DUP2 MSTORE SWAP1 PUSH1 0x1 ADD SWAP1 PUSH1 0x20 ADD DUP1 DUP4 GT PUSH2 0x2641 JUMPI DUP3 SWAP1 SUB PUSH1 0x1F AND DUP3 ADD SWAP2 JUMPDEST POP POP POP POP POP DUP2 JUMP JUMPDEST PUSH1 0x0 PUSH1 0x6 PUSH1 0x0 DUP4 PUSH20 0xFFFFFFFFFFFFFFFFFFFFFFFFFFFFFFFFFFFFFFFF AND PUSH20 0xFFFFFFFFFFFFFFFFFFFFFFFFFFFFFFFFFFFFFFFF AND DUP2 MSTORE PUSH1 0x20 ADD SWAP1 DUP2 MSTORE PUSH1 0x20 ADD PUSH1 0x0 KECCAK256 PUSH1 0x0 SWAP1 SLOAD SWAP1 PUSH2 0x100 EXP SWAP1 DIV PUSH1 0xFF AND SWAP1 POP SWAP2 SWAP1 POP JUMP JUMPDEST PUSH1 0x0 DUP1 PUSH2 0x2735 PUSH1 0x1A SLOAD PUSH1 0x1B PUSH1 0x0 PUSH1 0x15 PUSH1 0x0 SWAP1 SLOAD SWAP1 PUSH2 0x100 EXP SWAP1 DIV PUSH20 0xFFFFFFFFFFFFFFFFFFFFFFFFFFFFFFFFFFFFFFFF AND PUSH20 0xFFFFFFFFFFFFFFFFFFFFFFFFFFFFFFFFFFFFFFFF AND PUSH20 0xFFFFFFFFFFFFFFFFFFFFFFFFFFFFFFFFFFFFFFFF AND DUP2 MSTORE PUSH1 0x20 ADD SWAP1 DUP2 MSTORE PUSH1 0x20 ADD PUSH1 0x0 KECCAK256 SLOAD PUSH2 0x2923 SWAP1 SWAP2 SWAP1 PUSH4 0xFFFFFFFF AND JUMP JUMPDEST SWAP1 POP PUSH2 0x2776 PUSH2 0x2742 PUSH2 0x16D3 JUMP JUMPDEST PUSH2 0x2768 PUSH2 0x2759 PUSH1 0x2 DUP6 PUSH2 0x2DEC SWAP1 SWAP2 SWAP1 PUSH4 0xFFFFFFFF AND JUMP JUMPDEST DUP7 PUSH2 0x2DEC SWAP1 SWAP2 SWAP1 PUSH4 0xFFFFFFFF AND JUMP JUMPDEST PUSH2 0x2923 SWAP1 SWAP2 SWAP1 PUSH4 0xFFFFFFFF AND JUMP JUMPDEST SWAP2 POP POP SWAP2 SWAP1 POP JUMP JUMPDEST PUSH1 0x0 PUSH1 0x1C PUSH1 0x0 DUP5 PUSH20 0xFFFFFFFFFFFFFFFFFFFFFFFFFFFFFFFFFFFFFFFF AND PUSH20 0xFFFFFFFFFFFFFFFFFFFFFFFFFFFFFFFFFFFFFFFF AND DUP2 MSTORE PUSH1 0x20 ADD SWAP1 DUP2 MSTORE PUSH1 0x20 ADD PUSH1 0x0 KECCAK256 PUSH1 0x0 DUP4 PUSH20 0xFFFFFFFFFFFFFFFFFFFFFFFFFFFFFFFFFFFFFFFF AND PUSH20 0xFFFFFFFFFFFFFFFFFFFFFFFFFFFFFFFFFFFFFFFF AND DUP2 MSTORE PUSH1 0x20 ADD SWAP1 DUP2 MSTORE PUSH1 0x20 ADD PUSH1 0x0 KECCAK256 SLOAD SWAP1 POP SWAP3 SWAP2 POP POP JUMP JUMPDEST PUSH2 0x280D PUSH2 0x1E6B JUMP JUMPDEST PUSH2 0x2816 JUMPI PUSH1 0x0 DUP1 REVERT JUMPDEST DUP1 ISZERO PUSH2 0x2841 JUMPI DUP1 PUSH1 0x15 DUP1 PUSH2 0x100 EXP DUP2 SLOAD DUP2 PUSH1 0xFF MUL NOT AND SWAP1 DUP4 ISZERO ISZERO MUL OR SWAP1 SSTORE POP TIMESTAMP PUSH1 0x17 DUP2 SWAP1 SSTORE POP PUSH2 0x285B JUMP JUMPDEST DUP1 PUSH1 0x15 DUP1 PUSH2 0x100 EXP DUP2 SLOAD DUP2 PUSH1 0xFF MUL NOT AND SWAP1 DUP4 ISZERO ISZERO MUL OR SWAP1 SSTORE POP JUMPDEST POP JUMP JUMPDEST PUSH2 0x2866 PUSH2 0x1E6B JUMP JUMPDEST PUSH2 0x286F JUMPI PUSH1 0x0 DUP1 REVERT JUMPDEST PUSH2 0x2878 DUP2 PUSH2 0x2E72 JUMP JUMPDEST POP JUMP JUMPDEST PUSH1 0x1D PUSH1 0x20 MSTORE DUP1 PUSH1 0x0 MSTORE PUSH1 0x40 PUSH1 0x0 KECCAK256 PUSH1 0x0 SWAP2 POP SLOAD SWAP1 PUSH2 0x100 EXP SWAP1 DIV PUSH1 0xFF AND DUP2 JUMP JUMPDEST PUSH1 0x0 DUP1 DUP3 DUP5 ADD SWAP1 POP DUP4 DUP2 LT ISZERO PUSH2 0x2919 JUMPI PUSH1 0x40 MLOAD PUSH32 0x8C379A000000000000000000000000000000000000000000000000000000000 DUP2 MSTORE PUSH1 0x4 ADD DUP1 DUP1 PUSH1 0x20 ADD DUP3 DUP2 SUB DUP3 MSTORE PUSH1 0x1B DUP2 MSTORE PUSH1 0x20 ADD DUP1 PUSH32 0x536166654D6174683A206164646974696F6E206F766572666C6F770000000000 DUP2 MSTORE POP PUSH1 0x20 ADD SWAP2 POP POP PUSH1 0x40 MLOAD DUP1 SWAP2 SUB SWAP1 REVERT JUMPDEST DUP1 SWAP2 POP POP SWAP3 SWAP2 POP POP JUMP JUMPDEST PUSH1 0x0 PUSH2 0x2965 DUP4 DUP4 PUSH1 0x40 MLOAD DUP1 PUSH1 0x40 ADD PUSH1 0x40 MSTORE DUP1 PUSH1 0x1A DUP2 MSTORE PUSH1 0x20 ADD PUSH32 0x536166654D6174683A206469766973696F6E206279207A65726F000000000000 DUP2 MSTORE POP PUSH2 0x2F6C JUMP JUMPDEST SWAP1 POP SWAP3 SWAP2 POP POP JUMP JUMPDEST PUSH1 0x0 DUP4 DUP4 GT ISZERO DUP3 SWAP1 PUSH2 0x2A1A JUMPI PUSH1 0x40 MLOAD PUSH32 0x8C379A000000000000000000000000000000000000000000000000000000000 DUP2 MSTORE PUSH1 0x4 ADD DUP1 DUP1 PUSH1 0x20 ADD DUP3 DUP2 SUB DUP3 MSTORE DUP4 DUP2 DUP2 MLOAD DUP2 MSTORE PUSH1 0x20 ADD SWAP2 POP DUP1 MLOAD SWAP1 PUSH1 0x20 ADD SWAP1 DUP1 DUP4 DUP4 PUSH1 0x0 JUMPDEST DUP4 DUP2 LT ISZERO PUSH2 0x29DF JUMPI DUP1 DUP3 ADD MLOAD DUP2 DUP5 ADD MSTORE PUSH1 0x20 DUP2 ADD SWAP1 POP PUSH2 0x29C4 JUMP JUMPDEST POP POP POP POP SWAP1 POP SWAP1 DUP2 ADD SWAP1 PUSH1 0x1F AND DUP1 ISZERO PUSH2 0x2A0C JUMPI DUP1 DUP3 SUB DUP1 MLOAD PUSH1 0x1 DUP4 PUSH1 0x20 SUB PUSH2 0x100 EXP SUB NOT AND DUP2 MSTORE PUSH1 0x20 ADD SWAP2 POP JUMPDEST POP SWAP3 POP POP POP PUSH1 0x40 MLOAD DUP1 SWAP2 SUB SWAP1 REVERT JUMPDEST POP PUSH1 0x0 DUP4 DUP6 SUB SWAP1 POP DUP1 SWAP2 POP POP SWAP4 SWAP3 POP POP POP JUMP JUMPDEST PUSH1 0x0 PUSH1 0x1D PUSH1 0x0 DUP6 PUSH20 0xFFFFFFFFFFFFFFFFFFFFFFFFFFFFFFFFFFFFFFFF AND PUSH20 0xFFFFFFFFFFFFFFFFFFFFFFFFFFFFFFFFFFFFFFFF AND DUP2 MSTORE PUSH1 0x20 ADD SWAP1 DUP2 MSTORE PUSH1 0x20 ADD PUSH1 0x0 KECCAK256 PUSH1 0x0 SWAP1 SLOAD SWAP1 PUSH2 0x100 EXP SWAP1 DIV PUSH1 0xFF AND ISZERO DUP1 ISZERO PUSH2 0x2AD3 JUMPI POP PUSH1 0x1D PUSH1 0x0 DUP5 PUSH20 0xFFFFFFFFFFFFFFFFFFFFFFFFFFFFFFFFFFFFFFFF AND PUSH20 0xFFFFFFFFFFFFFFFFFFFFFFFFFFFFFFFFFFFFFFFF AND DUP2 MSTORE PUSH1 0x20 ADD SWAP1 DUP2 MSTORE PUSH1 0x20 ADD PUSH1 0x0 KECCAK256 PUSH1 0x0 SWAP1 SLOAD SWAP1 PUSH2 0x100 EXP SWAP1 DIV PUSH1 0xFF AND ISZERO JUMPDEST PUSH2 0x2B45 JUMPI PUSH1 0x40 MLOAD PUSH32 0x8C379A000000000000000000000000000000000000000000000000000000000 DUP2 MSTORE PUSH1 0x4 ADD DUP1 DUP1 PUSH1 0x20 ADD DUP3 DUP2 SUB DUP3 MSTORE PUSH1 0xC DUP2 MSTORE PUSH1 0x20 ADD DUP1 PUSH32 0x696E5F626C61636B6C6973740000000000000000000000000000000000000000 DUP2 MSTORE POP PUSH1 0x20 ADD SWAP2 POP POP PUSH1 0x40 MLOAD DUP1 SWAP2 SUB SWAP1 REVERT JUMPDEST PUSH1 0x15 PUSH1 0x14 SWAP1 SLOAD SWAP1 PUSH2 0x100 EXP SWAP1 DIV PUSH1 0xFF AND ISZERO PUSH2 0x2B6C JUMPI PUSH2 0x2B65 DUP5 DUP5 DUP5 PUSH2 0x3032 JUMP JUMPDEST SWAP1 POP PUSH2 0x2D88 JUMP JUMPDEST PUSH2 0x2B74 PUSH2 0x3182 JUMP JUMPDEST ISZERO PUSH2 0x2B82 JUMPI PUSH2 0x2B81 PUSH2 0x3233 JUMP JUMPDEST JUMPDEST PUSH2 0x2B8A PUSH2 0x33EC JUMP JUMPDEST POP PUSH2 0x2B93 PUSH2 0x3489 JUMP JUMPDEST ISZERO PUSH2 0x2BA1 JUMPI PUSH2 0x2BA0 PUSH2 0x34FB JUMP JUMPDEST JUMPDEST PUSH1 0x0 PUSH2 0x2BB8 PUSH1 0x1A SLOAD DUP5 PUSH2 0x2DEC SWAP1 SWAP2 SWAP1 PUSH4 0xFFFFFFFF AND JUMP JUMPDEST SWAP1 POP PUSH2 0x2C0C DUP2 PUSH1 0x1B PUSH1 0x0 DUP9 PUSH20 0xFFFFFFFFFFFFFFFFFFFFFFFFFFFFFFFFFFFFFFFF AND PUSH20 0xFFFFFFFFFFFFFFFFFFFFFFFFFFFFFFFFFFFFFFFF AND DUP2 MSTORE PUSH1 0x20 ADD SWAP1 DUP2 MSTORE PUSH1 0x20 ADD PUSH1 0x0 KECCAK256 SLOAD PUSH2 0x2D8F SWAP1 SWAP2 SWAP1 PUSH4 0xFFFFFFFF AND JUMP JUMPDEST PUSH1 0x1B PUSH1 0x0 DUP8 PUSH20 0xFFFFFFFFFFFFFFFFFFFFFFFFFFFFFFFFFFFFFFFF AND PUSH20 0xFFFFFFFFFFFFFFFFFFFFFFFFFFFFFFFFFFFFFFFF AND DUP2 MSTORE PUSH1 0x20 ADD SWAP1 DUP2 MSTORE PUSH1 0x20 ADD PUSH1 0x0 KECCAK256 DUP2 SWAP1 SSTORE POP PUSH1 0x0 PUSH2 0x2C5B DUP7 DUP7 PUSH2 0x37E8 JUMP JUMPDEST PUSH2 0x2C65 JUMPI DUP2 PUSH2 0x2C71 JUMP JUMPDEST PUSH2 0x2C70 DUP7 DUP7 DUP5 PUSH2 0x38F1 JUMP JUMPDEST JUMPDEST SWAP1 POP PUSH2 0x2CC5 DUP2 PUSH1 0x1B PUSH1 0x0 DUP9 PUSH20 0xFFFFFFFFFFFFFFFFFFFFFFFFFFFFFFFFFFFFFFFF AND PUSH20 0xFFFFFFFFFFFFFFFFFFFFFFFFFFFFFFFFFFFFFFFF AND DUP2 MSTORE PUSH1 0x20 ADD SWAP1 DUP2 MSTORE PUSH1 0x20 ADD PUSH1 0x0 KECCAK256 SLOAD PUSH2 0x289B SWAP1 SWAP2 SWAP1 PUSH4 0xFFFFFFFF AND JUMP JUMPDEST PUSH1 0x1B PUSH1 0x0 DUP8 PUSH20 0xFFFFFFFFFFFFFFFFFFFFFFFFFFFFFFFFFFFFFFFF AND PUSH20 0xFFFFFFFFFFFFFFFFFFFFFFFFFFFFFFFFFFFFFFFF AND DUP2 MSTORE PUSH1 0x20 ADD SWAP1 DUP2 MSTORE PUSH1 0x20 ADD PUSH1 0x0 KECCAK256 DUP2 SWAP1 SSTORE POP DUP5 PUSH20 0xFFFFFFFFFFFFFFFFFFFFFFFFFFFFFFFFFFFFFFFF AND DUP7 PUSH20 0xFFFFFFFFFFFFFFFFFFFFFFFFFFFFFFFFFFFFFFFF AND PUSH32 0xDDF252AD1BE2C89B69C2B068FC378DAA952BA7F163C4A11628F55A4DF523B3EF PUSH2 0x2D6C PUSH1 0x1A SLOAD DUP6 PUSH2 0x2923 SWAP1 SWAP2 SWAP1 PUSH4 0xFFFFFFFF AND JUMP JUMPDEST PUSH1 0x40 MLOAD DUP1 DUP3 DUP2 MSTORE PUSH1 0x20 ADD SWAP2 POP POP PUSH1 0x40 MLOAD DUP1 SWAP2 SUB SWAP1 LOG3 PUSH1 0x1 SWAP3 POP POP POP JUMPDEST SWAP4 SWAP3 POP POP POP JUMP JUMPDEST PUSH1 0x0 PUSH2 0x2DD1 DUP4 DUP4 PUSH1 0x40 MLOAD DUP1 PUSH1 0x40 ADD PUSH1 0x40 MSTORE DUP1 PUSH1 0x1E DUP2 MSTORE PUSH1 0x20 ADD PUSH32 0x536166654D6174683A207375627472616374696F6E206F766572666C6F770000 DUP2 MSTORE POP PUSH2 0x296D JUMP JUMPDEST SWAP1 POP SWAP3 SWAP2 POP POP JUMP JUMPDEST PUSH1 0x0 DUP1 DUP3 EXTCODESIZE SWAP1 POP PUSH1 0x0 DUP2 GT SWAP2 POP POP SWAP2 SWAP1 POP JUMP JUMPDEST PUSH1 0x0 DUP1 DUP4 EQ ISZERO PUSH2 0x2DFF JUMPI PUSH1 0x0 SWAP1 POP PUSH2 0x2E6C JUMP JUMPDEST PUSH1 0x0 DUP3 DUP5 MUL SWAP1 POP DUP3 DUP5 DUP3 DUP2 PUSH2 0x2E10 JUMPI INVALID JUMPDEST DIV EQ PUSH2 0x2E67 JUMPI PUSH1 0x40 MLOAD PUSH32 0x8C379A000000000000000000000000000000000000000000000000000000000 DUP2 MSTORE PUSH1 0x4 ADD DUP1 DUP1 PUSH1 0x20 ADD DUP3 DUP2 SUB DUP3 MSTORE PUSH1 0x21 DUP2 MSTORE PUSH1 0x20 ADD DUP1 PUSH2 0x3D51 PUSH1 0x21 SWAP2 CODECOPY PUSH1 0x40 ADD SWAP2 POP POP PUSH1 0x40 MLOAD DUP1 SWAP2 SUB SWAP1 REVERT JUMPDEST DUP1 SWAP2 POP POP JUMPDEST SWAP3 SWAP2 POP POP JUMP JUMPDEST PUSH1 0x0 PUSH20 0xFFFFFFFFFFFFFFFFFFFFFFFFFFFFFFFFFFFFFFFF AND DUP2 PUSH20 0xFFFFFFFFFFFFFFFFFFFFFFFFFFFFFFFFFFFFFFFF AND EQ ISZERO PUSH2 0x2EAC JUMPI PUSH1 0x0 DUP1 REVERT JUMPDEST DUP1 PUSH20 0xFFFFFFFFFFFFFFFFFFFFFFFFFFFFFFFFFFFFFFFF AND PUSH1 0x2 PUSH1 0x1 SWAP1 SLOAD SWAP1 PUSH2 0x100 EXP SWAP1 DIV PUSH20 0xFFFFFFFFFFFFFFFFFFFFFFFFFFFFFFFFFFFFFFFF AND PUSH20 0xFFFFFFFFFFFFFFFFFFFFFFFFFFFFFFFFFFFFFFFF AND PUSH32 0x8BE0079C531659141344CD1FD0A4F28419497F9722A3DAAFE3B4186F6B6457E0 PUSH1 0x40 MLOAD PUSH1 0x40 MLOAD DUP1 SWAP2 SUB SWAP1 LOG3 DUP1 PUSH1 0x2 PUSH1 0x1 PUSH2 0x100 EXP DUP2 SLOAD DUP2 PUSH20 0xFFFFFFFFFFFFFFFFFFFFFFFFFFFFFFFFFFFFFFFF MUL NOT AND SWAP1 DUP4 PUSH20 0xFFFFFFFFFFFFFFFFFFFFFFFFFFFFFFFFFFFFFFFF AND MUL OR SWAP1 SSTORE POP POP JUMP JUMPDEST PUSH1 0x0 DUP1 DUP4 GT DUP3 SWAP1 PUSH2 0x3018 JUMPI PUSH1 0x40 MLOAD PUSH32 0x8C379A000000000000000000000000000000000000000000000000000000000 DUP2 MSTORE PUSH1 0x4 ADD DUP1 DUP1 PUSH1 0x20 ADD DUP3 DUP2 SUB DUP3 MSTORE DUP4 DUP2 DUP2 MLOAD DUP2 MSTORE PUSH1 0x20 ADD SWAP2 POP DUP1 MLOAD SWAP1 PUSH1 0x20 ADD SWAP1 DUP1 DUP4 DUP4 PUSH1 0x0 JUMPDEST DUP4 DUP2 LT ISZERO PUSH2 0x2FDD JUMPI DUP1 DUP3 ADD MLOAD DUP2 DUP5 ADD MSTORE PUSH1 0x20 DUP2 ADD SWAP1 POP PUSH2 0x2FC2 JUMP JUMPDEST POP POP POP POP SWAP1 POP SWAP1 DUP2 ADD SWAP1 PUSH1 0x1F AND DUP1 ISZERO PUSH2 0x300A JUMPI DUP1 DUP3 SUB DUP1 MLOAD PUSH1 0x1 DUP4 PUSH1 0x20 SUB PUSH2 0x100 EXP SUB NOT AND DUP2 MSTORE PUSH1 0x20 ADD SWAP2 POP JUMPDEST POP SWAP3 POP POP POP PUSH1 0x40 MLOAD DUP1 SWAP2 SUB SWAP1 REVERT JUMPDEST POP PUSH1 0x0 DUP4 DUP6 DUP2 PUSH2 0x3024 JUMPI INVALID JUMPDEST DIV SWAP1 POP DUP1 SWAP2 POP POP SWAP4 SWAP3 POP POP POP JUMP JUMPDEST PUSH1 0x0 DUP1 PUSH2 0x304A PUSH1 0x1A SLOAD DUP5 PUSH2 0x2DEC SWAP1 SWAP2 SWAP1 PUSH4 0xFFFFFFFF AND JUMP JUMPDEST SWAP1 POP PUSH2 0x309E DUP2 PUSH1 0x1B PUSH1 0x0 DUP9 PUSH20 0xFFFFFFFFFFFFFFFFFFFFFFFFFFFFFFFFFFFFFFFF AND PUSH20 0xFFFFFFFFFFFFFFFFFFFFFFFFFFFFFFFFFFFFFFFF AND DUP2 MSTORE PUSH1 0x20 ADD SWAP1 DUP2 MSTORE PUSH1 0x20 ADD PUSH1 0x0 KECCAK256 SLOAD PUSH2 0x2D8F SWAP1 SWAP2 SWAP1 PUSH4 0xFFFFFFFF AND JUMP JUMPDEST PUSH1 0x1B PUSH1 0x0 DUP8 PUSH20 0xFFFFFFFFFFFFFFFFFFFFFFFFFFFFFFFFFFFFFFFF AND PUSH20 0xFFFFFFFFFFFFFFFFFFFFFFFFFFFFFFFFFFFFFFFF AND DUP2 MSTORE PUSH1 0x20 ADD SWAP1 DUP2 MSTORE PUSH1 0x20 ADD PUSH1 0x0 KECCAK256 DUP2 SWAP1 SSTORE POP PUSH2 0x3133 DUP2 PUSH1 0x1B PUSH1 0x0 DUP8 PUSH20 0xFFFFFFFFFFFFFFFFFFFFFFFFFFFFFFFFFFFFFFFF AND PUSH20 0xFFFFFFFFFFFFFFFFFFFFFFFFFFFFFFFFFFFFFFFF AND DUP2 MSTORE PUSH1 0x20 ADD SWAP1 DUP2 MSTORE PUSH1 0x20 ADD PUSH1 0x0 KECCAK256 SLOAD PUSH2 0x289B SWAP1 SWAP2 SWAP1 PUSH4 0xFFFFFFFF AND JUMP JUMPDEST PUSH1 0x1B PUSH1 0x0 DUP7 PUSH20 0xFFFFFFFFFFFFFFFFFFFFFFFFFFFFFFFFFFFFFFFF AND PUSH20 0xFFFFFFFFFFFFFFFFFFFFFFFFFFFFFFFFFFFFFFFF AND DUP2 MSTORE PUSH1 0x20 ADD SWAP1 DUP2 MSTORE PUSH1 0x20 ADD PUSH1 0x0 KECCAK256 DUP2 SWAP1 SSTORE POP PUSH1 0x1 SWAP2 POP POP SWAP4 SWAP3 POP POP POP JUMP JUMPDEST PUSH1 0x0 PUSH1 0x15 DUP1 SLOAD SWAP1 PUSH2 0x100 EXP SWAP1 DIV PUSH1 0xFF AND DUP1 ISZERO PUSH2 0x31A9 JUMPI POP PUSH1 0x5 PUSH1 0xA EXP PUSH4 0xC1B71080 MUL PUSH1 0x19 SLOAD LT JUMPDEST DUP1 ISZERO PUSH2 0x3203 JUMPI POP PUSH1 0x15 PUSH1 0x0 SWAP1 SLOAD SWAP1 PUSH2 0x100 EXP SWAP1 DIV PUSH20 0xFFFFFFFFFFFFFFFFFFFFFFFFFFFFFFFFFFFFFFFF AND PUSH20 0xFFFFFFFFFFFFFFFFFFFFFFFFFFFFFFFFFFFFFFFF AND CALLER PUSH20 0xFFFFFFFFFFFFFFFFFFFFFFFFFFFFFFFFFFFFFFFF AND EQ ISZERO JUMPDEST DUP1 ISZERO PUSH2 0x321C JUMPI POP PUSH1 0x15 PUSH1 0x14 SWAP1 SLOAD SWAP1 PUSH2 0x100 EXP SWAP1 DIV PUSH1 0xFF AND ISZERO JUMPDEST DUP1 ISZERO PUSH2 0x322E JUMPI POP PUSH2 0x384 PUSH1 0x17 SLOAD ADD TIMESTAMP LT ISZERO JUMPDEST SWAP1 POP SWAP1 JUMP JUMPDEST PUSH1 0x15 PUSH1 0x14 SWAP1 SLOAD SWAP1 PUSH2 0x100 EXP SWAP1 DIV PUSH1 0xFF AND ISZERO PUSH2 0x324D JUMPI PUSH2 0x33EA JUMP JUMPDEST PUSH1 0x0 DUP1 PUSH1 0x16 SLOAD TIMESTAMP SUB SWAP1 POP PUSH1 0x0 PUSH1 0x17 SLOAD TIMESTAMP SUB SWAP1 POP PUSH1 0x0 PUSH2 0x3277 PUSH2 0x384 DUP4 PUSH2 0x2923 SWAP1 SWAP2 SWAP1 PUSH4 0xFFFFFFFF AND JUMP JUMPDEST SWAP1 POP PUSH1 0x0 PUSH2 0x328F PUSH1 0xF DUP4 PUSH2 0x2DEC SWAP1 SWAP2 SWAP1 PUSH4 0xFFFFFFFF AND JUMP JUMPDEST SWAP1 POP PUSH4 0x1E13380 DUP5 LT ISZERO PUSH2 0x32A7 JUMPI PUSH2 0x933 SWAP5 POP PUSH2 0x32E2 JUMP JUMPDEST PUSH4 0x1E13380 DUP5 LT PUSH2 0x32BB JUMPI PUSH1 0xD3 SWAP5 POP PUSH2 0x32E1 JUMP JUMPDEST PUSH4 0x2D1CD40 DUP5 LT PUSH2 0x32CF JUMPI PUSH1 0xE SWAP5 POP PUSH2 0x32E0 JUMP JUMPDEST PUSH4 0xD286880 DUP5 LT PUSH2 0x32DF JUMPI PUSH1 0x2 SWAP5 POP JUMPDEST JUMPDEST JUMPDEST JUMPDEST PUSH1 0x0 JUMPDEST DUP3 DUP2 LT ISZERO PUSH2 0x3347 JUMPI PUSH2 0x3334 PUSH1 0x7 PUSH1 0xFF AND PUSH1 0xA EXP PUSH2 0x3326 PUSH2 0x3315 DUP10 PUSH1 0x7 PUSH1 0xFF AND PUSH1 0xA EXP PUSH2 0x289B SWAP1 SWAP2 SWAP1 PUSH4 0xFFFFFFFF AND JUMP JUMPDEST PUSH1 0x19 SLOAD PUSH2 0x2DEC SWAP1 SWAP2 SWAP1 PUSH4 0xFFFFFFFF AND JUMP JUMPDEST PUSH2 0x2923 SWAP1 SWAP2 SWAP1 PUSH4 0xFFFFFFFF AND JUMP JUMPDEST PUSH1 0x19 DUP2 SWAP1 SSTORE POP DUP1 DUP1 PUSH1 0x1 ADD SWAP2 POP POP PUSH2 0x32E5 JUMP JUMPDEST POP PUSH2 0x3375 PUSH1 0x19 SLOAD PUSH1 0x5 PUSH1 0xA EXP PUSH3 0x4F588 MUL PUSH1 0x0 NOT DUP2 PUSH2 0x3362 JUMPI INVALID JUMPDEST MOD PUSH1 0x0 NOT SUB PUSH2 0x2923 SWAP1 SWAP2 SWAP1 PUSH4 0xFFFFFFFF AND JUMP JUMPDEST PUSH1 0x1A DUP2 SWAP1 SSTORE POP PUSH2 0x33A4 PUSH2 0x3393 PUSH2 0x384 DUP5 PUSH2 0x2DEC SWAP1 SWAP2 SWAP1 PUSH4 0xFFFFFFFF AND JUMP JUMPDEST PUSH1 0x17 SLOAD PUSH2 0x289B SWAP1 SWAP2 SWAP1 PUSH4 0xFFFFFFFF AND JUMP JUMPDEST PUSH1 0x17 DUP2 SWAP1 SSTORE POP DUP1 PUSH32 0x72725A3B1E5BD622D6BCD1339BB31279C351ABE8F541AC7FD320F24E1B1641F2 PUSH1 0x19 SLOAD PUSH1 0x40 MLOAD DUP1 DUP3 DUP2 MSTORE PUSH1 0x20 ADD SWAP2 POP POP PUSH1 0x40 MLOAD DUP1 SWAP2 SUB SWAP1 LOG2 POP POP POP POP POP JUMPDEST JUMP JUMPDEST PUSH1 0x0 PUSH1 0x15 PUSH1 0x16 SWAP1 SLOAD SWAP1 PUSH2 0x100 EXP SWAP1 DIV PUSH1 0xFF AND DUP1 ISZERO PUSH2 0x3417 JUMPI POP PUSH1 0x15 PUSH1 0x14 SWAP1 SLOAD SWAP1 PUSH2 0x100 EXP SWAP1 DIV PUSH1 0xFF AND ISZERO JUMPDEST DUP1 ISZERO PUSH2 0x3471 JUMPI POP PUSH1 0x15 PUSH1 0x0 SWAP1 SLOAD SWAP1 PUSH2 0x100 EXP SWAP1 DIV PUSH20 0xFFFFFFFFFFFFFFFFFFFFFFFFFFFFFFFFFFFFFFFF AND PUSH20 0xFFFFFFFFFFFFFFFFFFFFFFFFFFFFFFFFFFFFFFFF AND CALLER PUSH20 0xFFFFFFFFFFFFFFFFFFFFFFFFFFFFFFFFFFFFFFFF AND EQ ISZERO JUMPDEST DUP1 ISZERO PUSH2 0x3484 JUMPI POP PUSH3 0x2A300 PUSH1 0x18 SLOAD ADD TIMESTAMP LT ISZERO JUMPDEST SWAP1 POP SWAP1 JUMP JUMPDEST PUSH1 0x0 PUSH1 0x15 PUSH1 0x14 SWAP1 SLOAD SWAP1 PUSH2 0x100 EXP SWAP1 DIV PUSH1 0xFF AND ISZERO DUP1 ISZERO PUSH2 0x34F6 JUMPI POP PUSH1 0x15 PUSH1 0x0 SWAP1 SLOAD SWAP1 PUSH2 0x100 EXP SWAP1 DIV PUSH20 0xFFFFFFFFFFFFFFFFFFFFFFFFFFFFFFFFFFFFFFFF AND PUSH20 0xFFFFFFFFFFFFFFFFFFFFFFFFFFFFFFFFFFFFFFFF AND CALLER PUSH20 0xFFFFFFFFFFFFFFFFFFFFFFFFFFFFFFFFFFFFFFFF AND EQ ISZERO JUMPDEST SWAP1 POP SWAP1 JUMP JUMPDEST PUSH1 0x1 PUSH1 0x15 PUSH1 0x14 PUSH2 0x100 EXP DUP2 SLOAD DUP2 PUSH1 0xFF MUL NOT AND SWAP1 DUP4 ISZERO ISZERO MUL OR SWAP1 SSTORE POP PUSH1 0x0 PUSH2 0x356C PUSH1 0x1A SLOAD PUSH1 0x1B PUSH1 0x0 ADDRESS PUSH20 0xFFFFFFFFFFFFFFFFFFFFFFFFFFFFFFFFFFFFFFFF AND PUSH20 0xFFFFFFFFFFFFFFFFFFFFFFFFFFFFFFFFFFFFFFFF AND DUP2 MSTORE PUSH1 0x20 ADD SWAP1 DUP2 MSTORE PUSH1 0x20 ADD PUSH1 0x0 KECCAK256 SLOAD PUSH2 0x2923 SWAP1 SWAP2 SWAP1 PUSH4 0xFFFFFFFF AND JUMP JUMPDEST SWAP1 POP PUSH1 0x0 DUP2 EQ ISZERO PUSH2 0x357D JUMPI POP PUSH2 0x37CB JUMP JUMPDEST PUSH1 0x0 SELFBALANCE SWAP1 POP PUSH1 0x60 PUSH1 0x2 PUSH8 0xFFFFFFFFFFFFFFFF DUP2 GT DUP1 ISZERO PUSH2 0x359C JUMPI PUSH1 0x0 DUP1 REVERT JUMPDEST POP PUSH1 0x40 MLOAD SWAP1 DUP1 DUP3 MSTORE DUP1 PUSH1 0x20 MUL PUSH1 0x20 ADD DUP3 ADD PUSH1 0x40 MSTORE DUP1 ISZERO PUSH2 0x35CB JUMPI DUP2 PUSH1 0x20 ADD PUSH1 0x20 DUP3 MUL DUP1 CALLDATASIZE DUP4 CALLDATACOPY DUP1 DUP3 ADD SWAP2 POP POP SWAP1 POP JUMPDEST POP SWAP1 POP ADDRESS DUP2 PUSH1 0x0 DUP2 MLOAD DUP2 LT PUSH2 0x35DC JUMPI INVALID JUMPDEST PUSH1 0x20 MUL PUSH1 0x20 ADD ADD SWAP1 PUSH20 0xFFFFFFFFFFFFFFFFFFFFFFFFFFFFFFFFFFFFFFFF AND SWAP1 DUP2 PUSH20 0xFFFFFFFFFFFFFFFFFFFFFFFFFFFFFFFFFFFFFFFF AND DUP2 MSTORE POP POP PUSH1 0x0 PUSH2 0x362B DUP4 SELFBALANCE PUSH2 0x2D8F SWAP1 SWAP2 SWAP1 PUSH4 0xFFFFFFFF AND JUMP JUMPDEST SWAP1 POP PUSH1 0x0 PUSH1 0x11 PUSH1 0x0 SWAP1 SLOAD SWAP1 PUSH2 0x100 EXP SWAP1 DIV PUSH20 0xFFFFFFFFFFFFFFFFFFFFFFFFFFFFFFFFFFFFFFFF AND PUSH20 0xFFFFFFFFFFFFFFFFFFFFFFFFFFFFFFFFFFFFFFFF AND PUSH2 0x36A5 PUSH2 0x3682 PUSH1 0x9 SLOAD PUSH1 0x8 SLOAD PUSH2 0x289B SWAP1 SWAP2 SWAP1 PUSH4 0xFFFFFFFF AND JUMP JUMPDEST PUSH2 0x3697 PUSH1 0x8 SLOAD DUP7 PUSH2 0x2DEC SWAP1 SWAP2 SWAP1 PUSH4 0xFFFFFFFF AND JUMP JUMPDEST PUSH2 0x2923 SWAP1 SWAP2 SWAP1 PUSH4 0xFFFFFFFF AND JUMP JUMPDEST PUSH2 0x7530 SWAP1 PUSH1 0x40 MLOAD DUP1 PUSH1 0x0 ADD SWAP1 POP PUSH1 0x0 PUSH1 0x40 MLOAD DUP1 DUP4 SUB DUP2 DUP6 DUP9 DUP9 CALL SWAP4 POP POP POP POP RETURNDATASIZE DUP1 PUSH1 0x0 DUP2 EQ PUSH2 0x36F0 JUMPI PUSH1 0x40 MLOAD SWAP2 POP PUSH1 0x1F NOT PUSH1 0x3F RETURNDATASIZE ADD AND DUP3 ADD PUSH1 0x40 MSTORE RETURNDATASIZE DUP3 MSTORE RETURNDATASIZE PUSH1 0x0 PUSH1 0x20 DUP5 ADD RETURNDATACOPY PUSH2 0x36F5 JUMP JUMPDEST PUSH1 0x60 SWAP2 POP JUMPDEST POP POP SWAP1 POP PUSH1 0x12 PUSH1 0x0 SWAP1 SLOAD SWAP1 PUSH2 0x100 EXP SWAP1 DIV PUSH20 0xFFFFFFFFFFFFFFFFFFFFFFFFFFFFFFFFFFFFFFFF AND PUSH20 0xFFFFFFFFFFFFFFFFFFFFFFFFFFFFFFFFFFFFFFFF AND PUSH2 0x376F PUSH2 0x374C PUSH1 0x9 SLOAD PUSH1 0x8 SLOAD PUSH2 0x289B SWAP1 SWAP2 SWAP1 PUSH4 0xFFFFFFFF AND JUMP JUMPDEST PUSH2 0x3761 PUSH1 0x9 SLOAD DUP7 PUSH2 0x2DEC SWAP1 SWAP2 SWAP1 PUSH4 0xFFFFFFFF AND JUMP JUMPDEST PUSH2 0x2923 SWAP1 SWAP2 SWAP1 PUSH4 0xFFFFFFFF AND JUMP JUMPDEST PUSH2 0x7530 SWAP1 PUSH1 0x40 MLOAD DUP1 PUSH1 0x0 ADD SWAP1 POP PUSH1 0x0 PUSH1 0x40 MLOAD DUP1 DUP4 SUB DUP2 DUP6 DUP9 DUP9 CALL SWAP4 POP POP POP POP RETURNDATASIZE DUP1 PUSH1 0x0 DUP2 EQ PUSH2 0x37BA JUMPI PUSH1 0x40 MLOAD SWAP2 POP PUSH1 0x1F NOT PUSH1 0x3F RETURNDATASIZE ADD AND DUP3 ADD PUSH1 0x40 MSTORE RETURNDATASIZE DUP3 MSTORE RETURNDATASIZE PUSH1 0x0 PUSH1 0x20 DUP5 ADD RETURNDATACOPY PUSH2 0x37BF JUMP JUMPDEST PUSH1 0x60 SWAP2 POP JUMPDEST POP POP DUP1 SWAP2 POP POP POP POP POP POP POP JUMPDEST PUSH1 0x0 PUSH1 0x15 PUSH1 0x14 PUSH2 0x100 EXP DUP2 SLOAD DUP2 PUSH1 0xFF MUL NOT AND SWAP1 DUP4 ISZERO ISZERO MUL OR SWAP1 SSTORE POP JUMP JUMPDEST PUSH1 0x0 DUP3 PUSH20 0xFFFFFFFFFFFFFFFFFFFFFFFFFFFFFFFFFFFFFFFF AND PUSH1 0x15 PUSH1 0x0 SWAP1 SLOAD SWAP1 PUSH2 0x100 EXP SWAP1 DIV PUSH20 0xFFFFFFFFFFFFFFFFFFFFFFFFFFFFFFFFFFFFFFFF AND PUSH20 0xFFFFFFFFFFFFFFFFFFFFFFFFFFFFFFFFFFFFFFFF AND EQ DUP1 PUSH2 0x3893 JUMPI POP DUP2 PUSH20 0xFFFFFFFFFFFFFFFFFFFFFFFFFFFFFFFFFFFFFFFF AND PUSH1 0x15 PUSH1 0x0 SWAP1 SLOAD SWAP1 PUSH2 0x100 EXP SWAP1 DIV PUSH20 0xFFFFFFFFFFFFFFFFFFFFFFFFFFFFFFFFFFFFFFFF AND PUSH20 0xFFFFFFFFFFFFFFFFFFFFFFFFFFFFFFFFFFFFFFFF AND EQ JUMPDEST DUP1 ISZERO PUSH2 0x38E9 JUMPI POP PUSH1 0x6 PUSH1 0x0 DUP5 PUSH20 0xFFFFFFFFFFFFFFFFFFFFFFFFFFFFFFFFFFFFFFFF AND PUSH20 0xFFFFFFFFFFFFFFFFFFFFFFFFFFFFFFFFFFFFFFFF AND DUP2 MSTORE PUSH1 0x20 ADD SWAP1 DUP2 MSTORE PUSH1 0x20 ADD PUSH1 0x0 KECCAK256 PUSH1 0x0 SWAP1 SLOAD SWAP1 PUSH2 0x100 EXP SWAP1 DIV PUSH1 0xFF AND ISZERO JUMPDEST SWAP1 POP SWAP3 SWAP2 POP POP JUMP JUMPDEST PUSH1 0x0 DUP1 PUSH1 0xC SLOAD SWAP1 POP PUSH1 0x0 PUSH1 0x8 SLOAD SWAP1 POP PUSH1 0x15 PUSH1 0x0 SWAP1 SLOAD SWAP1 PUSH2 0x100 EXP SWAP1 DIV PUSH20 0xFFFFFFFFFFFFFFFFFFFFFFFFFFFFFFFFFFFFFFFF AND PUSH20 0xFFFFFFFFFFFFFFFFFFFFFFFFFFFFFFFFFFFFFFFF AND DUP6 PUSH20 0xFFFFFFFFFFFFFFFFFFFFFFFFFFFFFFFFFFFFFFFF AND EQ ISZERO PUSH2 0x3989 JUMPI PUSH2 0x396D PUSH1 0xA SLOAD PUSH1 0xC SLOAD PUSH2 0x289B SWAP1 SWAP2 SWAP1 PUSH4 0xFFFFFFFF AND JUMP JUMPDEST SWAP2 POP PUSH2 0x3986 PUSH1 0xA SLOAD PUSH1 0x8 SLOAD PUSH2 0x289B SWAP1 SWAP2 SWAP1 PUSH4 0xFFFFFFFF AND JUMP JUMPDEST SWAP1 POP JUMPDEST PUSH1 0x0 PUSH2 0x39B2 DUP4 PUSH2 0x39A4 PUSH1 0xD SLOAD DUP9 PUSH2 0x2923 SWAP1 SWAP2 SWAP1 PUSH4 0xFFFFFFFF AND JUMP JUMPDEST PUSH2 0x2DEC SWAP1 SWAP2 SWAP1 PUSH4 0xFFFFFFFF AND JUMP JUMPDEST SWAP1 POP PUSH2 0x3A50 PUSH2 0x39E0 PUSH1 0xB SLOAD PUSH2 0x39D2 PUSH1 0xD SLOAD DUP10 PUSH2 0x2923 SWAP1 SWAP2 SWAP1 PUSH4 0xFFFFFFFF AND JUMP JUMPDEST PUSH2 0x2DEC SWAP1 SWAP2 SWAP1 PUSH4 0xFFFFFFFF AND JUMP JUMPDEST PUSH1 0x1B PUSH1 0x0 PUSH1 0x13 PUSH1 0x0 SWAP1 SLOAD SWAP1 PUSH2 0x100 EXP SWAP1 DIV PUSH20 0xFFFFFFFFFFFFFFFFFFFFFFFFFFFFFFFFFFFFFFFF AND PUSH20 0xFFFFFFFFFFFFFFFFFFFFFFFFFFFFFFFFFFFFFFFF AND PUSH20 0xFFFFFFFFFFFFFFFFFFFFFFFFFFFFFFFFFFFFFFFF AND DUP2 MSTORE PUSH1 0x20 ADD SWAP1 DUP2 MSTORE PUSH1 0x20 ADD PUSH1 0x0 KECCAK256 SLOAD PUSH2 0x289B SWAP1 SWAP2 SWAP1 PUSH4 0xFFFFFFFF AND JUMP JUMPDEST PUSH1 0x1B PUSH1 0x0 PUSH1 0x13 PUSH1 0x0 SWAP1 SLOAD SWAP1 PUSH2 0x100 EXP SWAP1 DIV PUSH20 0xFFFFFFFFFFFFFFFFFFFFFFFFFFFFFFFFFFFFFFFF AND PUSH20 0xFFFFFFFFFFFFFFFFFFFFFFFFFFFFFFFFFFFFFFFF AND PUSH20 0xFFFFFFFFFFFFFFFFFFFFFFFFFFFFFFFFFFFFFFFF AND DUP2 MSTORE PUSH1 0x20 ADD SWAP1 DUP2 MSTORE PUSH1 0x20 ADD PUSH1 0x0 KECCAK256 DUP2 SWAP1 SSTORE POP PUSH2 0x3B41 PUSH2 0x3AF3 PUSH2 0x3AD0 PUSH1 0x9 SLOAD DUP6 PUSH2 0x289B SWAP1 SWAP2 SWAP1 PUSH4 0xFFFFFFFF AND JUMP JUMPDEST PUSH2 0x3AE5 PUSH1 0xD SLOAD DUP10 PUSH2 0x2923 SWAP1 SWAP2 SWAP1 PUSH4 0xFFFFFFFF AND JUMP JUMPDEST PUSH2 0x2DEC SWAP1 SWAP2 SWAP1 PUSH4 0xFFFFFFFF AND JUMP JUMPDEST PUSH1 0x1B PUSH1 0x0 ADDRESS PUSH20 0xFFFFFFFFFFFFFFFFFFFFFFFFFFFFFFFFFFFFFFFF AND PUSH20 0xFFFFFFFFFFFFFFFFFFFFFFFFFFFFFFFFFFFFFFFF AND DUP2 MSTORE PUSH1 0x20 ADD SWAP1 DUP2 MSTORE PUSH1 0x20 ADD PUSH1 0x0 KECCAK256 SLOAD PUSH2 0x289B SWAP1 SWAP2 SWAP1 PUSH4 0xFFFFFFFF AND JUMP JUMPDEST PUSH1 0x1B PUSH1 0x0 ADDRESS PUSH20 0xFFFFFFFFFFFFFFFFFFFFFFFFFFFFFFFFFFFFFFFF AND PUSH20 0xFFFFFFFFFFFFFFFFFFFFFFFFFFFFFFFFFFFFFFFF AND DUP2 MSTORE PUSH1 0x20 ADD SWAP1 DUP2 MSTORE PUSH1 0x20 ADD PUSH1 0x0 KECCAK256 DUP2 SWAP1 SSTORE POP PUSH2 0x3C20 PUSH2 0x3BB0 PUSH1 0x7 SLOAD PUSH2 0x3BA2 PUSH1 0xD SLOAD DUP10 PUSH2 0x2923 SWAP1 SWAP2 SWAP1 PUSH4 0xFFFFFFFF AND JUMP JUMPDEST PUSH2 0x2DEC SWAP1 SWAP2 SWAP1 PUSH4 0xFFFFFFFF AND JUMP JUMPDEST PUSH1 0x1B PUSH1 0x0 PUSH1 0x10 PUSH1 0x0 SWAP1 SLOAD SWAP1 PUSH2 0x100 EXP SWAP1 DIV PUSH20 0xFFFFFFFFFFFFFFFFFFFFFFFFFFFFFFFFFFFFFFFF AND PUSH20 0xFFFFFFFFFFFFFFFFFFFFFFFFFFFFFFFFFFFFFFFF AND PUSH20 0xFFFFFFFFFFFFFFFFFFFFFFFFFFFFFFFFFFFFFFFF AND DUP2 MSTORE PUSH1 0x20 ADD SWAP1 DUP2 MSTORE PUSH1 0x20 ADD PUSH1 0x0 KECCAK256 SLOAD PUSH2 0x289B SWAP1 SWAP2 SWAP1 PUSH4 0xFFFFFFFF AND JUMP JUMPDEST PUSH1 0x1B PUSH1 0x0 PUSH1 0x10 PUSH1 0x0 SWAP1 SLOAD SWAP1 PUSH2 0x100 EXP SWAP1 DIV PUSH20 0xFFFFFFFFFFFFFFFFFFFFFFFFFFFFFFFFFFFFFFFF AND PUSH20 0xFFFFFFFFFFFFFFFFFFFFFFFFFFFFFFFFFFFFFFFF AND PUSH20 0xFFFFFFFFFFFFFFFFFFFFFFFFFFFFFFFFFFFFFFFF AND DUP2 MSTORE PUSH1 0x20 ADD SWAP1 DUP2 MSTORE PUSH1 0x20 ADD PUSH1 0x0 KECCAK256 DUP2 SWAP1 SSTORE POP ADDRESS PUSH20 0xFFFFFFFFFFFFFFFFFFFFFFFFFFFFFFFFFFFFFFFF AND DUP8 PUSH20 0xFFFFFFFFFFFFFFFFFFFFFFFFFFFFFFFFFFFFFFFF AND PUSH32 0xDDF252AD1BE2C89B69C2B068FC378DAA952BA7F163C4A11628F55A4DF523B3EF PUSH2 0x3CE9 PUSH1 0x1A SLOAD DUP6 PUSH2 0x2923 SWAP1 SWAP2 SWAP1 PUSH4 0xFFFFFFFF AND JUMP JUMPDEST PUSH1 0x40 MLOAD DUP1 DUP3 DUP2 MSTORE PUSH1 0x20 ADD SWAP2 POP POP PUSH1 0x40 MLOAD DUP1 SWAP2 SUB SWAP1 LOG3 PUSH2 0x3D11 DUP2 DUP7 PUSH2 0x2D8F SWAP1 SWAP2 SWAP1 PUSH4 0xFFFFFFFF AND JUMP JUMPDEST SWAP4 POP POP POP POP SWAP4 SWAP3 POP POP POP JUMP INVALID SLOAD PUSH9 0x657265206973206E6F KECCAK256 MSTORE8 PUSH2 0x6675 PUSH22 0x20746F6B656E206465706F736974656420696E20746F PUSH12 0x656E20636F6E747261637453 PUSH2 0x6665 0x4D PUSH2 0x7468 GASPRICE KECCAK256 PUSH14 0x756C7469706C69636174696F6E20 PUSH16 0x766572666C6F776F6E6C7920636F6E74 PUSH19 0x61637420616464726573732C206E6F7420616C PUSH13 0x6F776564206578746572616E6C PUSH13 0x79206F776E6564206163636F75 PUSH15 0x74A26469706673582212208BED4B6C PUSH14 0x88EB79DF29D1727230EE65689E80 SAR TIMESTAMP 0x49 0xBD 0xAF JUMPI PUSH5 0x14E221A3A7 CALL PUSH5 0x736F6C6343 STOP SMOD DIV STOP CALLER "
				},
				"gasEstimates": {
					"creation": {
						"codeDepositCost": "3168400",
						"executionCost": "infinite",
						"totalCost": "infinite"
					},
					"external": {
						"DECIMALS()": "273",
						"MAX_UINT256()": "299",
						"RATE_DECIMALS()": "323",
						"_autoAddLiquidity()": "1164",
						"_autoRebase()": "1184",
						"_decimals()": "1181",
						"_initRebaseStartTime()": "1095",
						"_lastAddLiquidityTime()": "1073",
						"_lastRebasedTime()": "1074",
						"_name()": "infinite",
						"_symbol()": "infinite",
						"_totalSupply()": "1139",
						"allowance(address,address)": "1387",
						"approve(address,uint256)": "22453",
						"autoLiquidityReceiver()": "1136",
						"balanceOf(address)": "infinite",
						"blacklist(address)": "1332",
						"checkFeeExempt(address)": "1327",
						"decimals()": "1167",
						"decreaseAllowance(address,uint256)": "infinite",
						"feeDenominator()": "1118",
						"firePit()": "1115",
						"firePitFee()": "1094",
						"getCirculatingSupply()": "infinite",
						"getLiquidityBacking(uint256)": "infinite",
						"increaseAllowance(address,uint256)": "infinite",
						"isNotInSwap()": "1199",
						"isOwner()": "1212",
						"liquidityFee()": "1139",
						"manualSync()": "213",
						"name()": "infinite",
						"owner()": "1173",
						"pair()": "1158",
						"pairAddress()": "1180",
						"renounceOwnership()": "24196",
						"safuuInsuranceFundFee()": "1095",
						"safuuInsuranceFundReceiver()": "1137",
						"sellFee()": "1118",
						"setAutoAddLiquidity(bool)": "42283",
						"setAutoRebase(bool)": "42238",
						"setBotBlacklist(address,bool)": "infinite",
						"setFeeReceivers(address,address,address,address)": "84874",
						"setLP(address)": "1279",
						"setPairAddress(address)": "22168",
						"setWhitelist(address)": "22259",
						"swapEnabled()": "1183",
						"symbol()": "infinite",
						"totalFee()": "1162",
						"totalSupply()": "1148",
						"transfer(address,uint256)": "infinite",
						"transferFrom(address,address,uint256)": "infinite",
						"transferOwnership(address)": "24714",
						"treasuryFee()": "1116",
						"treasuryReceiver()": "1116",
						"withdrawAllToTreasury()": "infinite"
					},
					"internal": {
						"_basicTransfer(address,address,uint256)": "infinite",
						"_transferFrom(address,address,uint256)": "infinite",
						"isContract(address)": "747",
						"rebase()": "infinite",
						"shouldAddLiquidity()": "3543",
						"shouldRebase()": "4442",
						"shouldSwapBack()": "1793",
						"shouldTakeFee(address,address)": "2720",
						"swapBack()": "infinite",
						"takeFee(address,address,uint256)": "infinite"
					}
				},
				"methodIdentifiers": {
					"DECIMALS()": "2e0f2625",
					"MAX_UINT256()": "33a581d2",
					"RATE_DECIMALS()": "5a604c52",
					"_autoAddLiquidity()": "6912652c",
					"_autoRebase()": "afb9cf6d",
					"_decimals()": "32424aa3",
					"_initRebaseStartTime()": "9b87676c",
					"_lastAddLiquidityTime()": "9b2912cc",
					"_lastRebasedTime()": "32b75683",
					"_name()": "d28d8852",
					"_symbol()": "b09f1266",
					"_totalSupply()": "3eaaf86b",
					"allowance(address,address)": "dd62ed3e",
					"approve(address,uint256)": "095ea7b3",
					"autoLiquidityReceiver()": "ca33e64c",
					"balanceOf(address)": "70a08231",
					"blacklist(address)": "f9f92be4",
					"checkFeeExempt(address)": "d4399790",
					"decimals()": "313ce567",
					"decreaseAllowance(address,uint256)": "a457c2d7",
					"feeDenominator()": "180b0d7e",
					"firePit()": "49d98142",
					"firePitFee()": "a6cf7293",
					"getCirculatingSupply()": "2b112e49",
					"getLiquidityBacking(uint256)": "d51ed1c8",
					"increaseAllowance(address,uint256)": "39509351",
					"isNotInSwap()": "83b4ac68",
					"isOwner()": "8f32d59b",
					"liquidityFee()": "98118cb4",
					"manualSync()": "753d02a1",
					"name()": "06fdde03",
					"owner()": "8da5cb5b",
					"pair()": "a8aa1b31",
					"pairAddress()": "a8b08982",
					"renounceOwnership()": "715018a6",
					"safuuInsuranceFundFee()": "4de41e83",
					"safuuInsuranceFundReceiver()": "3b91aca9",
					"sellFee()": "2b14ca56",
					"setAutoAddLiquidity(bool)": "cfbac92f",
					"setAutoRebase(bool)": "e15beb80",
					"setBotBlacklist(address,bool)": "37c9be87",
					"setFeeReceivers(address,address,address,address)": "3c8e556d",
					"setLP(address)": "2f34d282",
					"setPairAddress(address)": "a22d4832",
					"setWhitelist(address)": "854cff2f",
					"swapEnabled()": "6ddd1713",
					"symbol()": "95d89b41",
					"totalFee()": "1df4ccfc",
					"totalSupply()": "18160ddd",
					"transfer(address,uint256)": "a9059cbb",
					"transferFrom(address,address,uint256)": "23b872dd",
					"transferOwnership(address)": "f2fde38b",
					"treasuryFee()": "cc32d176",
					"treasuryReceiver()": "08b1fd8f",
					"withdrawAllToTreasury()": "bd595581"
				}
			},
			"userdoc": {
				"kind": "user",
				"methods": {},
				"version": 1
			}
		}
	}
}