{
	"WandInstruments.sol": {
		"testSticks": {
			"abi": [
				{
					"inputs": [],
					"stateMutability": "nonpayable",
					"type": "constructor"
				},
				{
					"anonymous": false,
					"inputs": [
						{
							"indexed": true,
							"internalType": "address",
							"name": "_from",
							"type": "address"
						},
						{
							"indexed": false,
							"internalType": "uint256",
							"name": "_amount",
							"type": "uint256"
						}
					],
					"name": "sceptersBought",
					"type": "event"
				},
				{
					"anonymous": false,
					"inputs": [
						{
							"indexed": true,
							"internalType": "address",
							"name": "_from",
							"type": "address"
						},
						{
							"indexed": false,
							"internalType": "uint256",
							"name": "_amount",
							"type": "uint256"
						}
					],
					"name": "sceptersSold",
					"type": "event"
				},
				{
					"inputs": [],
					"name": "BTON",
					"outputs": [
						{
							"internalType": "contract IERC20",
							"name": "",
							"type": "address"
						}
					],
					"stateMutability": "view",
					"type": "function"
				},
				{
					"inputs": [],
					"name": "SPTR",
					"outputs": [
						{
							"internalType": "contract IERC20",
							"name": "",
							"type": "address"
						}
					],
					"stateMutability": "view",
					"type": "function"
				},
				{
					"inputs": [],
					"name": "WAND",
					"outputs": [
						{
							"internalType": "contract IERC20",
							"name": "",
							"type": "address"
						}
					],
					"stateMutability": "view",
					"type": "function"
				},
				{
					"inputs": [
						{
							"internalType": "string",
							"name": "_ticker",
							"type": "string"
						},
						{
							"internalType": "address",
							"name": "_addr",
							"type": "address"
						},
						{
							"internalType": "uint256",
							"name": "_dec",
							"type": "uint256"
						}
					],
					"name": "addStable",
					"outputs": [],
					"stateMutability": "nonpayable",
					"type": "function"
				},
				{
					"inputs": [
						{
							"internalType": "uint256",
							"name": "amountSCPtoBuy",
							"type": "uint256"
						},
						{
							"internalType": "string",
							"name": "_stableChosen",
							"type": "string"
						}
					],
					"name": "buyScepter",
					"outputs": [],
					"stateMutability": "nonpayable",
					"type": "function"
				},
				{
					"inputs": [
						{
							"internalType": "uint256",
							"name": "amountSCPtoSell",
							"type": "uint256"
						},
						{
							"internalType": "uint256",
							"name": "timeChosenLocked",
							"type": "uint256"
						},
						{
							"internalType": "string",
							"name": "_stableChosen",
							"type": "string"
						}
					],
					"name": "cashOutScepter",
					"outputs": [],
					"stateMutability": "payable",
					"type": "function"
				},
				{
					"inputs": [
						{
							"internalType": "uint256",
							"name": "",
							"type": "uint256"
						}
					],
					"name": "circulatingSupplyXDays",
					"outputs": [
						{
							"internalType": "uint256",
							"name": "",
							"type": "uint256"
						}
					],
					"stateMutability": "view",
					"type": "function"
				},
				{
					"inputs": [
						{
							"internalType": "address",
							"name": "_claimant",
							"type": "address"
						},
						{
							"internalType": "string",
							"name": "_stableChosen",
							"type": "string"
						}
					],
					"name": "claimLockedUSDC",
					"outputs": [],
					"stateMutability": "nonpayable",
					"type": "function"
				},
				{
					"inputs": [],
					"name": "daysInCalculation",
					"outputs": [
						{
							"internalType": "uint256",
							"name": "",
							"type": "uint256"
						}
					],
					"stateMutability": "view",
					"type": "function"
				},
				{
					"inputs": [],
					"name": "devWalletAddr",
					"outputs": [
						{
							"internalType": "address",
							"name": "",
							"type": "address"
						}
					],
					"stateMutability": "view",
					"type": "function"
				},
				{
					"inputs": [],
					"name": "getBackingPrice",
					"outputs": [
						{
							"internalType": "uint256",
							"name": "",
							"type": "uint256"
						}
					],
					"stateMutability": "view",
					"type": "function"
				},
				{
					"inputs": [],
					"name": "getBuyPrice",
					"outputs": [
						{
							"internalType": "uint256",
							"name": "",
							"type": "uint256"
						}
					],
					"stateMutability": "view",
					"type": "function"
				},
				{
					"inputs": [],
					"name": "getCircSupplyXDays",
					"outputs": [
						{
							"internalType": "uint256",
							"name": "",
							"type": "uint256"
						}
					],
					"stateMutability": "view",
					"type": "function"
				},
				{
					"inputs": [],
					"name": "getGrowthFactor",
					"outputs": [
						{
							"internalType": "uint256",
							"name": "",
							"type": "uint256"
						}
					],
					"stateMutability": "view",
					"type": "function"
				},
				{
					"inputs": [],
					"name": "getSellFactor",
					"outputs": [
						{
							"internalType": "uint256",
							"name": "",
							"type": "uint256"
						}
					],
					"stateMutability": "view",
					"type": "function"
				},
				{
					"inputs": [],
					"name": "getSellPrice",
					"outputs": [
						{
							"internalType": "uint256",
							"name": "",
							"type": "uint256"
						}
					],
					"stateMutability": "view",
					"type": "function"
				},
				{
					"inputs": [],
					"name": "getTokensBoughtXDays",
					"outputs": [
						{
							"internalType": "uint256",
							"name": "",
							"type": "uint256"
						}
					],
					"stateMutability": "view",
					"type": "function"
				},
				{
					"inputs": [],
					"name": "getTokensSoldXDays",
					"outputs": [
						{
							"internalType": "uint256",
							"name": "",
							"type": "uint256"
						}
					],
					"stateMutability": "view",
					"type": "function"
				},
				{
					"inputs": [],
					"name": "growthFactor",
					"outputs": [
						{
							"internalType": "uint256",
							"name": "",
							"type": "uint256"
						}
					],
					"stateMutability": "view",
					"type": "function"
				},
				{
					"inputs": [],
					"name": "res",
					"outputs": [
						{
							"internalType": "int128",
							"name": "",
							"type": "int128"
						}
					],
					"stateMutability": "view",
					"type": "function"
				},
				{
					"inputs": [],
					"name": "riskTreasuryAddr",
					"outputs": [
						{
							"internalType": "address",
							"name": "",
							"type": "address"
						}
					],
					"stateMutability": "view",
					"type": "function"
				},
				{
					"inputs": [],
					"name": "scepterTreasuryAddr",
					"outputs": [
						{
							"internalType": "address",
							"name": "",
							"type": "address"
						}
					],
					"stateMutability": "view",
					"type": "function"
				},
				{
					"inputs": [],
					"name": "sellFactor",
					"outputs": [
						{
							"internalType": "uint256",
							"name": "",
							"type": "uint256"
						}
					],
					"stateMutability": "view",
					"type": "function"
				},
				{
					"inputs": [
						{
							"internalType": "uint256",
							"name": "numDays",
							"type": "uint256"
						}
					],
					"name": "setDaysUsedInFactors",
					"outputs": [],
					"stateMutability": "nonpayable",
					"type": "function"
				},
				{
					"inputs": [],
					"name": "sptrTreasuryBal",
					"outputs": [
						{
							"internalType": "uint256",
							"name": "",
							"type": "uint256"
						}
					],
					"stateMutability": "view",
					"type": "function"
				},
				{
					"inputs": [
						{
							"internalType": "string",
							"name": "",
							"type": "string"
						}
					],
					"name": "stableERC20Info",
					"outputs": [
						{
							"internalType": "address",
							"name": "contractAddress",
							"type": "address"
						},
						{
							"internalType": "uint256",
							"name": "tokenDecimals",
							"type": "uint256"
						}
					],
					"stateMutability": "view",
					"type": "function"
				},
				{
					"inputs": [
						{
							"internalType": "uint256",
							"name": "amt",
							"type": "uint256"
						}
					],
					"name": "testUpdatetimeLockedminus",
					"outputs": [],
					"stateMutability": "nonpayable",
					"type": "function"
				},
				{
					"inputs": [
						{
							"internalType": "uint256",
							"name": "amt",
							"type": "uint256"
						}
					],
					"name": "testUpdatetimeLockedplus",
					"outputs": [],
					"stateMutability": "nonpayable",
					"type": "function"
				},
				{
					"inputs": [],
					"name": "testwallet",
					"outputs": [
						{
							"internalType": "address",
							"name": "",
							"type": "address"
						}
					],
					"stateMutability": "view",
					"type": "function"
				},
				{
					"inputs": [],
					"name": "timeLaunched",
					"outputs": [
						{
							"internalType": "uint256",
							"name": "",
							"type": "uint256"
						}
					],
					"stateMutability": "view",
					"type": "function"
				},
				{
					"inputs": [],
					"name": "tokenStable",
					"outputs": [
						{
							"internalType": "contract IERC20",
							"name": "",
							"type": "address"
						}
					],
					"stateMutability": "view",
					"type": "function"
				},
				{
					"inputs": [
						{
							"internalType": "uint256",
							"name": "",
							"type": "uint256"
						}
					],
					"name": "tokensBoughtXDays",
					"outputs": [
						{
							"internalType": "uint256",
							"name": "",
							"type": "uint256"
						}
					],
					"stateMutability": "view",
					"type": "function"
				},
				{
					"inputs": [
						{
							"internalType": "uint256",
							"name": "",
							"type": "uint256"
						}
					],
					"name": "tokensSoldXDays",
					"outputs": [
						{
							"internalType": "uint256",
							"name": "",
							"type": "uint256"
						}
					],
					"stateMutability": "view",
					"type": "function"
				},
				{
					"inputs": [
						{
							"internalType": "uint256",
							"name": "amountSCPtoSwap",
							"type": "uint256"
						}
					],
					"name": "transformScepterToBaton",
					"outputs": [],
					"stateMutability": "payable",
					"type": "function"
				},
				{
					"inputs": [],
					"name": "treasury1Addr",
					"outputs": [
						{
							"internalType": "address",
							"name": "",
							"type": "address"
						}
					],
					"stateMutability": "view",
					"type": "function"
				},
				{
					"inputs": [],
					"name": "updateSPTRTreasuryBal",
					"outputs": [],
					"stateMutability": "nonpayable",
					"type": "function"
				},
				{
					"inputs": [
						{
							"internalType": "address",
							"name": "_addr",
							"type": "address"
						}
					],
					"name": "whitelist",
					"outputs": [],
					"stateMutability": "nonpayable",
					"type": "function"
				},
				{
					"inputs": [
						{
							"internalType": "uint256",
							"name": "_amtToWithdraw",
							"type": "uint256"
						}
					],
					"name": "withdrawStables",
					"outputs": [],
					"stateMutability": "nonpayable",
					"type": "function"
				},
				{
					"inputs": [
						{
							"internalType": "address",
							"name": "",
							"type": "address"
						}
					],
					"name": "withheldWithdrawals",
					"outputs": [
						{
							"internalType": "uint256",
							"name": "timeUnlocked",
							"type": "uint256"
						},
						{
							"internalType": "uint256",
							"name": "amounts",
							"type": "uint256"
						}
					],
					"stateMutability": "view",
					"type": "function"
				}
			],
			"devdoc": {
				"kind": "dev",
				"methods": {},
				"version": 1
			},
			"evm": {
				"assembly": "    /* \"WandInstruments.sol\":157:16224  contract testSticks is ReentrancyGuard{\r... */\n  mstore(0x40, 0x80)\n    /* \"WandInstruments.sol\":988:994  100000 */\n  0x0186a0\n    /* \"WandInstruments.sol\":957:994  uint256 private ft5daybought = 100000 */\n  0x0e\n  sstore\n    /* \"WandInstruments.sol\":1030:1035  90000 */\n  0x015f90\n    /* \"WandInstruments.sol\":1001:1035  uint256 private ft5daysold = 90000 */\n  0x0f\n  sstore\n    /* \"WandInstruments.sol\":1077:1083  600000 */\n  0x0927c0\n    /* \"WandInstruments.sol\":1042:1083  uint256 private double5daytokens = 600000 */\n  0x10\n  sstore\n    /* \"WandInstruments.sol\":1204:1246  0x617F2E2fD72FD9D5503197092aC168c91465E7f2 */\n  0x617f2e2fd72fd9d5503197092ac168c91465e7f2\n    /* \"WandInstruments.sol\":1176:1246  address public testwallet = 0x617F2E2fD72FD9D5503197092aC168c91465E7f2 */\n  0x12\n  exp(0x0100, 0x00)\n  dup2\n  sload\n  dup2\n  0xffffffffffffffffffffffffffffffffffffffff\n  mul\n  not\n  and\n  swap1\n  dup4\n  0xffffffffffffffffffffffffffffffffffffffff\n  and\n  mul\n  or\n  swap1\n  sstore\n  pop\n    /* \"WandInstruments.sol\":2465:4288  constructor() {   \r... */\n  callvalue\n  dup1\n  iszero\n  tag_1\n  jumpi\n  0x00\n  dup1\n  revert\ntag_1:\n  pop\n    /* \"ReentrancyGuard.sol\":1734:1735  1 */\n  0x01\n    /* \"ReentrancyGuard.sol\":1845:1852  _status */\n  0x00\n    /* \"ReentrancyGuard.sol\":1845:1867  _status = _NOT_ENTERED */\n  dup2\n  swap1\n  sstore\n  pop\n    /* \"WandInstruments.sol\":2562:2604  0x660c3f2A92c9aD7a8e65705Ed2111946ac2d4BB4 */\n  0x660c3f2a92c9ad7a8e65705ed2111946ac2d4bb4\n    /* \"WandInstruments.sol\":2548:2552  SPTR */\n  0x13\n  0x00\n    /* \"WandInstruments.sol\":2548:2605  SPTR = IERC20(0x660c3f2A92c9aD7a8e65705Ed2111946ac2d4BB4) */\n  0x0100\n  exp\n  dup2\n  sload\n  dup2\n  0xffffffffffffffffffffffffffffffffffffffff\n  mul\n  not\n  and\n  swap1\n  dup4\n  0xffffffffffffffffffffffffffffffffffffffff\n  and\n  mul\n  or\n  swap1\n  sstore\n  pop\n    /* \"WandInstruments.sol\":2630:2672  0xF65DbDB9cFA568b2AD52D44312a520C7EaEf8a2d */\n  0xf65dbdb9cfa568b2ad52d44312a520c7eaef8a2d\n    /* \"WandInstruments.sol\":2616:2620  WAND */\n  0x14\n  0x00\n    /* \"WandInstruments.sol\":2616:2673  WAND = IERC20(0xF65DbDB9cFA568b2AD52D44312a520C7EaEf8a2d) */\n  0x0100\n  exp\n  dup2\n  sload\n  dup2\n  0xffffffffffffffffffffffffffffffffffffffff\n  mul\n  not\n  and\n  swap1\n  dup4\n  0xffffffffffffffffffffffffffffffffffffffff\n  and\n  mul\n  or\n  swap1\n  sstore\n  pop\n    /* \"WandInstruments.sol\":2698:2740  0x2557F4c8Ba4BE59eDDAbfd26dF4ECd7F2e678f1d */\n  0x2557f4c8ba4be59eddabfd26df4ecd7f2e678f1d\n    /* \"WandInstruments.sol\":2684:2688  BTON */\n  0x15\n  0x00\n    /* \"WandInstruments.sol\":2684:2741  BTON = IERC20(0x2557F4c8Ba4BE59eDDAbfd26dF4ECd7F2e678f1d) */\n  0x0100\n  exp\n  dup2\n  sload\n  dup2\n  0xffffffffffffffffffffffffffffffffffffffff\n  mul\n  not\n  and\n  swap1\n  dup4\n  0xffffffffffffffffffffffffffffffffffffffff\n  and\n  mul\n  or\n  swap1\n  sstore\n  pop\n    /* \"WandInstruments.sol\":2853:2895  0x85F05208B6C3613f42366dE27BAFBd4df40a8ceb */\n  0x85f05208b6c3613f42366de27bafbd4df40a8ceb\n    /* \"WandInstruments.sol\":2811:2826  stableERC20Info */\n  0x1a\n    /* \"WandInstruments.sol\":2811:2834  stableERC20Info[\"USDC\"] */\n  mload(0x40)\n  tag_6\n  swap1\n  tag_7\n  jump\t// in\ntag_6:\n  swap1\n  dup2\n  mstore\n  0x20\n  add\n  mload(0x40)\n  dup1\n  swap2\n  sub\n  swap1\n  keccak256\n    /* \"WandInstruments.sol\":2811:2850  stableERC20Info[\"USDC\"].contractAddress */\n  0x00\n  add\n  0x00\n    /* \"WandInstruments.sol\":2811:2895  stableERC20Info[\"USDC\"].contractAddress = 0x85F05208B6C3613f42366dE27BAFBd4df40a8ceb */\n  0x0100\n  exp\n  dup2\n  sload\n  dup2\n  0xffffffffffffffffffffffffffffffffffffffff\n  mul\n  not\n  and\n  swap1\n  dup4\n  0xffffffffffffffffffffffffffffffffffffffff\n  and\n  mul\n  or\n  swap1\n  sstore\n  pop\n    /* \"WandInstruments.sol\":2946:2947  6 */\n  0x06\n    /* \"WandInstruments.sol\":2906:2921  stableERC20Info */\n  0x1a\n    /* \"WandInstruments.sol\":2906:2929  stableERC20Info[\"USDC\"] */\n  mload(0x40)\n  tag_8\n  swap1\n  tag_7\n  jump\t// in\ntag_8:\n  swap1\n  dup2\n  mstore\n  0x20\n  add\n  mload(0x40)\n  dup1\n  swap2\n  sub\n  swap1\n  keccak256\n    /* \"WandInstruments.sol\":2906:2943  stableERC20Info[\"USDC\"].tokenDecimals */\n  0x01\n  add\n    /* \"WandInstruments.sol\":2906:2947  stableERC20Info[\"USDC\"].tokenDecimals = 6 */\n  dup2\n  swap1\n  sstore\n  pop\n    /* \"WandInstruments.sol\":3019:3061  0x2A4a8Ab6A0Bc0d377098F8688F77003833BC1C9d */\n  0x2a4a8ab6a0bc0d377098f8688f77003833bc1c9d\n    /* \"WandInstruments.sol\":2978:2993  stableERC20Info */\n  0x1a\n    /* \"WandInstruments.sol\":2978:3000  stableERC20Info[\"DAI\"] */\n  mload(0x40)\n  tag_9\n  swap1\n  tag_10\n  jump\t// in\ntag_9:\n  swap1\n  dup2\n  mstore\n  0x20\n  add\n  mload(0x40)\n  dup1\n  swap2\n  sub\n  swap1\n  keccak256\n    /* \"WandInstruments.sol\":2978:3016  stableERC20Info[\"DAI\"].contractAddress */\n  0x00\n  add\n  0x00\n    /* \"WandInstruments.sol\":2978:3061  stableERC20Info[\"DAI\"].contractAddress = 0x2A4a8Ab6A0Bc0d377098F8688F77003833BC1C9d */\n  0x0100\n  exp\n  dup2\n  sload\n  dup2\n  0xffffffffffffffffffffffffffffffffffffffff\n  mul\n  not\n  and\n  swap1\n  dup4\n  0xffffffffffffffffffffffffffffffffffffffff\n  and\n  mul\n  or\n  swap1\n  sstore\n  pop\n    /* \"WandInstruments.sol\":3111:3113  18 */\n  0x12\n    /* \"WandInstruments.sol\":3072:3087  stableERC20Info */\n  0x1a\n    /* \"WandInstruments.sol\":3072:3094  stableERC20Info[\"DAI\"] */\n  mload(0x40)\n  tag_11\n  swap1\n  tag_10\n  jump\t// in\ntag_11:\n  swap1\n  dup2\n  mstore\n  0x20\n  add\n  mload(0x40)\n  dup1\n  swap2\n  sub\n  swap1\n  keccak256\n    /* \"WandInstruments.sol\":3072:3108  stableERC20Info[\"DAI\"].tokenDecimals */\n  0x01\n  add\n    /* \"WandInstruments.sol\":3072:3113  stableERC20Info[\"DAI\"].tokenDecimals = 18 */\n  dup2\n  swap1\n  sstore\n  pop\n    /* \"WandInstruments.sol\":3187:3229  0xdc301622e621166BD8E82f2cA0A26c13Ad0BE355 */\n  0xdc301622e621166bd8e82f2ca0a26c13ad0be355\n    /* \"WandInstruments.sol\":3145:3160  stableERC20Info */\n  0x1a\n    /* \"WandInstruments.sol\":3145:3168  stableERC20Info[\"FRAX\"] */\n  mload(0x40)\n  tag_12\n  swap1\n  tag_13\n  jump\t// in\ntag_12:\n  swap1\n  dup2\n  mstore\n  0x20\n  add\n  mload(0x40)\n  dup1\n  swap2\n  sub\n  swap1\n  keccak256\n    /* \"WandInstruments.sol\":3145:3184  stableERC20Info[\"FRAX\"].contractAddress */\n  0x00\n  add\n  0x00\n    /* \"WandInstruments.sol\":3145:3229  stableERC20Info[\"FRAX\"].contractAddress = 0xdc301622e621166BD8E82f2cA0A26c13Ad0BE355 */\n  0x0100\n  exp\n  dup2\n  sload\n  dup2\n  0xffffffffffffffffffffffffffffffffffffffff\n  mul\n  not\n  and\n  swap1\n  dup4\n  0xffffffffffffffffffffffffffffffffffffffff\n  and\n  mul\n  or\n  swap1\n  sstore\n  pop\n    /* \"WandInstruments.sol\":3280:3282  18 */\n  0x12\n    /* \"WandInstruments.sol\":3240:3255  stableERC20Info */\n  0x1a\n    /* \"WandInstruments.sol\":3240:3263  stableERC20Info[\"FRAX\"] */\n  mload(0x40)\n  tag_14\n  swap1\n  tag_13\n  jump\t// in\ntag_14:\n  swap1\n  dup2\n  mstore\n  0x20\n  add\n  mload(0x40)\n  dup1\n  swap2\n  sub\n  swap1\n  keccak256\n    /* \"WandInstruments.sol\":3240:3277  stableERC20Info[\"FRAX\"].tokenDecimals */\n  0x01\n  add\n    /* \"WandInstruments.sol\":3240:3282  stableERC20Info[\"FRAX\"].tokenDecimals = 18 */\n  dup2\n  swap1\n  sstore\n  pop\n    /* \"WandInstruments.sol\":3311:3353  0x617F2E2fD72FD9D5503197092aC168c91465E7f2 */\n  0x617f2e2fd72fd9d5503197092ac168c91465e7f2\n    /* \"WandInstruments.sol\":3295:3308  treasury1Addr */\n  0x07\n  0x00\n    /* \"WandInstruments.sol\":3295:3353  treasury1Addr = 0x617F2E2fD72FD9D5503197092aC168c91465E7f2 */\n  0x0100\n  exp\n  dup2\n  sload\n  dup2\n  0xffffffffffffffffffffffffffffffffffffffff\n  mul\n  not\n  and\n  swap1\n  dup4\n  0xffffffffffffffffffffffffffffffffffffffff\n  and\n  mul\n  or\n  swap1\n  sstore\n  pop\n    /* \"WandInstruments.sol\":3552:3567  block.timestamp */\n  timestamp\n    /* \"WandInstruments.sol\":3537:3549  timeLaunched */\n  0x0c\n    /* \"WandInstruments.sol\":3537:3567  timeLaunched = block.timestamp */\n  dup2\n  swap1\n  sstore\n  pop\n    /* \"WandInstruments.sol\":3598:3604  5 days */\n  0x069780\n    /* \"WandInstruments.sol\":3578:3595  daysInCalculation */\n  0x0d\n    /* \"WandInstruments.sol\":3578:3604  daysInCalculation = 5 days */\n  dup2\n  swap1\n  sstore\n  pop\n    /* \"WandInstruments.sol\":3651:3655  SPTR */\n  0x13\n  0x00\n  swap1\n  sload\n  swap1\n  0x0100\n  exp\n  swap1\n  div\n  0xffffffffffffffffffffffffffffffffffffffff\n  and\n    /* \"WandInstruments.sol\":3651:3660  SPTR.mint */\n  0xffffffffffffffffffffffffffffffffffffffff\n  and\n  0x40c10f19\n    /* \"WandInstruments.sol\":3661:3703  0x617F2E2fD72FD9D5503197092aC168c91465E7f2 */\n  0x617f2e2fd72fd9d5503197092ac168c91465e7f2\n    /* \"WandInstruments.sol\":3705:3724  9411764706 * 10**12 */\n  0x01fe36793670c0c82000\n    /* \"WandInstruments.sol\":3651:3725  SPTR.mint(0x617F2E2fD72FD9D5503197092aC168c91465E7f2, 9411764706 * 10**12) */\n  mload(0x40)\n  dup4\n  0xffffffff\n  and\n  0xe0\n  shl\n  dup2\n  mstore\n  0x04\n  add\n  tag_15\n  swap3\n  swap2\n  swap1\n  tag_16\n  jump\t// in\ntag_15:\n  0x00\n  mload(0x40)\n  dup1\n  dup4\n  sub\n  dup2\n  0x00\n  dup8\n  dup1\n  extcodesize\n  iszero\n  dup1\n  iszero\n  tag_17\n  jumpi\n  0x00\n  dup1\n  revert\ntag_17:\n  pop\n  gas\n  call\n  iszero\n  dup1\n  iszero\n  tag_19\n  jumpi\n  returndatasize\n  0x00\n  dup1\n  returndatacopy\n  revert(0x00, returndatasize)\ntag_19:\n  pop\n  pop\n  pop\n  pop\n    /* \"WandInstruments.sol\":3745:3749  SPTR */\n  0x13\n  0x00\n  swap1\n  sload\n  swap1\n  0x0100\n  exp\n  swap1\n  div\n  0xffffffffffffffffffffffffffffffffffffffff\n  and\n    /* \"WandInstruments.sol\":3745:3754  SPTR.mint */\n  0xffffffffffffffffffffffffffffffffffffffff\n  and\n  0x40c10f19\n    /* \"WandInstruments.sol\":3755:3797  0x17F6AD8Ef982297579C203069C1DbfFE4348c372 */\n  0x17f6ad8ef982297579c203069c1dbffe4348c372\n    /* \"WandInstruments.sol\":3799:3818  4470588235 * 10**13 */\n  0x097782bfbf68ab74e000\n    /* \"WandInstruments.sol\":3745:3819  SPTR.mint(0x17F6AD8Ef982297579C203069C1DbfFE4348c372, 4470588235 * 10**13) */\n  mload(0x40)\n  dup4\n  0xffffffff\n  and\n  0xe0\n  shl\n  dup2\n  mstore\n  0x04\n  add\n  tag_20\n  swap3\n  swap2\n  swap1\n  tag_21\n  jump\t// in\ntag_20:\n  0x00\n  mload(0x40)\n  dup1\n  dup4\n  sub\n  dup2\n  0x00\n  dup8\n  dup1\n  extcodesize\n  iszero\n  dup1\n  iszero\n  tag_22\n  jumpi\n  0x00\n  dup1\n  revert\ntag_22:\n  pop\n  gas\n  call\n  iszero\n  dup1\n  iszero\n  tag_24\n  jumpi\n  returndatasize\n  0x00\n  dup1\n  returndatacopy\n  revert(0x00, returndatasize)\ntag_24:\n  pop\n  pop\n  pop\n  pop\n    /* \"WandInstruments.sol\":3839:3843  SPTR */\n  0x13\n  0x00\n  swap1\n  sload\n  swap1\n  0x0100\n  exp\n  swap1\n  div\n  0xffffffffffffffffffffffffffffffffffffffff\n  and\n    /* \"WandInstruments.sol\":3839:3848  SPTR.mint */\n  0xffffffffffffffffffffffffffffffffffffffff\n  and\n  0x40c10f19\n    /* \"WandInstruments.sol\":3849:3891  0x5c6B0f7Bf3E7ce046039Bd8FABdfD3f9F5021678 */\n  0x5c6b0f7bf3e7ce046039bd8fabdfd3f9f5021678\n    /* \"WandInstruments.sol\":3893:3912  4705882353 * 10**13 */\n  0x09f7105e1033c3e8a000\n    /* \"WandInstruments.sol\":3839:3913  SPTR.mint(0x5c6B0f7Bf3E7ce046039Bd8FABdfD3f9F5021678, 4705882353 * 10**13) */\n  mload(0x40)\n  dup4\n  0xffffffff\n  and\n  0xe0\n  shl\n  dup2\n  mstore\n  0x04\n  add\n  tag_25\n  swap3\n  swap2\n  swap1\n  tag_26\n  jump\t// in\ntag_25:\n  0x00\n  mload(0x40)\n  dup1\n  dup4\n  sub\n  dup2\n  0x00\n  dup8\n  dup1\n  extcodesize\n  iszero\n  dup1\n  iszero\n  tag_27\n  jumpi\n  0x00\n  dup1\n  revert\ntag_27:\n  pop\n  gas\n  call\n  iszero\n  dup1\n  iszero\n  tag_29\n  jumpi\n  returndatasize\n  0x00\n  dup1\n  returndatacopy\n  revert(0x00, returndatasize)\ntag_29:\n  pop\n  pop\n  pop\n  pop\n    /* \"WandInstruments.sol\":3968:4037  (9411764706 * 10**12) + (4470588235 * 10**13) + (4705882353 * 10**13) */\n  0x156cc997060d3025a000\n    /* \"WandInstruments.sol\":3945:3962  tokensBoughtXDays */\n  0x17\n    /* \"WandInstruments.sol\":3945:3965  tokensBoughtXDays[0] */\n  0x00\n    /* \"WandInstruments.sol\":3963:3964  0 */\n  dup1\n    /* \"WandInstruments.sol\":3945:3965  tokensBoughtXDays[0] */\n  dup2\n  mstore\n  0x20\n  add\n  swap1\n  dup2\n  mstore\n  0x20\n  add\n  0x00\n  keccak256\n    /* \"WandInstruments.sol\":3945:4037  tokensBoughtXDays[0] = (9411764706 * 10**12) + (4470588235 * 10**13) + (4705882353 * 10**13) */\n  dup2\n  swap1\n  sstore\n  pop\n    /* \"WandInstruments.sol\":4076:4145  (9411764706 * 10**12) + (4470588235 * 10**13) + (4705882353 * 10**13) */\n  0x156cc997060d3025a000\n    /* \"WandInstruments.sol\":4048:4070  circulatingSupplyXDays */\n  0x19\n    /* \"WandInstruments.sol\":4048:4073  circulatingSupplyXDays[0] */\n  0x00\n    /* \"WandInstruments.sol\":4071:4072  0 */\n  dup1\n    /* \"WandInstruments.sol\":4048:4073  circulatingSupplyXDays[0] */\n  dup2\n  mstore\n  0x20\n  add\n  swap1\n  dup2\n  mstore\n  0x20\n  add\n  0x00\n  keccak256\n    /* \"WandInstruments.sol\":4048:4145  circulatingSupplyXDays[0] = (9411764706 * 10**12) + (4470588235 * 10**13) + (4705882353 * 10**13) */\n  dup2\n  swap1\n  sstore\n  pop\n    /* \"WandInstruments.sol\":4176:4182  570000 */\n  0x08b290\n    /* \"WandInstruments.sol\":4158:4173  sptrTreasuryBal */\n  0x0b\n    /* \"WandInstruments.sol\":4158:4182  sptrTreasuryBal = 570000 */\n  dup2\n  swap1\n  sstore\n  pop\n    /* \"WandInstruments.sol\":157:16224  contract testSticks is ReentrancyGuard{\r... */\n  jump(tag_30)\n    /* \"#utility.yul\":7:125   */\ntag_32:\n    /* \"#utility.yul\":94:118   */\n  tag_34\n    /* \"#utility.yul\":112:117   */\n  dup2\n    /* \"#utility.yul\":94:118   */\n  tag_35\n  jump\t// in\ntag_34:\n    /* \"#utility.yul\":89:92   */\n  dup3\n    /* \"#utility.yul\":82:119   */\n  mstore\n    /* \"#utility.yul\":7:125   */\n  pop\n  pop\n  jump\t// out\n    /* \"#utility.yul\":131:322   */\ntag_36:\n    /* \"#utility.yul\":248:315   */\n  tag_38\n    /* \"#utility.yul\":309:314   */\n  dup2\n    /* \"#utility.yul\":248:315   */\n  tag_39\n  jump\t// in\ntag_38:\n    /* \"#utility.yul\":243:246   */\n  dup3\n    /* \"#utility.yul\":236:316   */\n  mstore\n    /* \"#utility.yul\":131:322   */\n  pop\n  pop\n  jump\t// out\n    /* \"#utility.yul\":328:519   */\ntag_40:\n    /* \"#utility.yul\":445:512   */\n  tag_42\n    /* \"#utility.yul\":506:511   */\n  dup2\n    /* \"#utility.yul\":445:512   */\n  tag_43\n  jump\t// in\ntag_42:\n    /* \"#utility.yul\":440:443   */\n  dup3\n    /* \"#utility.yul\":433:513   */\n  mstore\n    /* \"#utility.yul\":328:519   */\n  pop\n  pop\n  jump\t// out\n    /* \"#utility.yul\":525:714   */\ntag_44:\n    /* \"#utility.yul\":641:707   */\n  tag_46\n    /* \"#utility.yul\":701:706   */\n  dup2\n    /* \"#utility.yul\":641:707   */\n  tag_47\n  jump\t// in\ntag_46:\n    /* \"#utility.yul\":636:639   */\n  dup3\n    /* \"#utility.yul\":629:708   */\n  mstore\n    /* \"#utility.yul\":525:714   */\n  pop\n  pop\n  jump\t// out\n    /* \"#utility.yul\":720:1120   */\ntag_48:\n    /* \"#utility.yul\":880:883   */\n  0x00\n    /* \"#utility.yul\":901:985   */\n  tag_50\n    /* \"#utility.yul\":983:984   */\n  0x04\n    /* \"#utility.yul\":978:981   */\n  dup4\n    /* \"#utility.yul\":901:985   */\n  tag_51\n  jump\t// in\ntag_50:\n    /* \"#utility.yul\":894:985   */\n  swap2\n  pop\n    /* \"#utility.yul\":994:1087   */\n  tag_52\n    /* \"#utility.yul\":1083:1086   */\n  dup3\n    /* \"#utility.yul\":994:1087   */\n  tag_53\n  jump\t// in\ntag_52:\n    /* \"#utility.yul\":1112:1113   */\n  0x04\n    /* \"#utility.yul\":1107:1110   */\n  dup3\n    /* \"#utility.yul\":1103:1114   */\n  add\n    /* \"#utility.yul\":1096:1114   */\n  swap1\n  pop\n    /* \"#utility.yul\":720:1120   */\n  swap2\n  swap1\n  pop\n  jump\t// out\n    /* \"#utility.yul\":1126:1526   */\ntag_54:\n    /* \"#utility.yul\":1286:1289   */\n  0x00\n    /* \"#utility.yul\":1307:1391   */\n  tag_56\n    /* \"#utility.yul\":1389:1390   */\n  0x03\n    /* \"#utility.yul\":1384:1387   */\n  dup4\n    /* \"#utility.yul\":1307:1391   */\n  tag_51\n  jump\t// in\ntag_56:\n    /* \"#utility.yul\":1300:1391   */\n  swap2\n  pop\n    /* \"#utility.yul\":1400:1493   */\n  tag_57\n    /* \"#utility.yul\":1489:1492   */\n  dup3\n    /* \"#utility.yul\":1400:1493   */\n  tag_58\n  jump\t// in\ntag_57:\n    /* \"#utility.yul\":1518:1519   */\n  0x03\n    /* \"#utility.yul\":1513:1516   */\n  dup3\n    /* \"#utility.yul\":1509:1520   */\n  add\n    /* \"#utility.yul\":1502:1520   */\n  swap1\n  pop\n    /* \"#utility.yul\":1126:1526   */\n  swap2\n  swap1\n  pop\n  jump\t// out\n    /* \"#utility.yul\":1532:1932   */\ntag_59:\n    /* \"#utility.yul\":1692:1695   */\n  0x00\n    /* \"#utility.yul\":1713:1797   */\n  tag_61\n    /* \"#utility.yul\":1795:1796   */\n  0x04\n    /* \"#utility.yul\":1790:1793   */\n  dup4\n    /* \"#utility.yul\":1713:1797   */\n  tag_51\n  jump\t// in\ntag_61:\n    /* \"#utility.yul\":1706:1797   */\n  swap2\n  pop\n    /* \"#utility.yul\":1806:1899   */\n  tag_62\n    /* \"#utility.yul\":1895:1898   */\n  dup3\n    /* \"#utility.yul\":1806:1899   */\n  tag_63\n  jump\t// in\ntag_62:\n    /* \"#utility.yul\":1924:1925   */\n  0x04\n    /* \"#utility.yul\":1919:1922   */\n  dup3\n    /* \"#utility.yul\":1915:1926   */\n  add\n    /* \"#utility.yul\":1908:1926   */\n  swap1\n  pop\n    /* \"#utility.yul\":1532:1932   */\n  swap2\n  swap1\n  pop\n  jump\t// out\n    /* \"#utility.yul\":1938:2319   */\ntag_13:\n    /* \"#utility.yul\":2123:2126   */\n  0x00\n    /* \"#utility.yul\":2145:2293   */\n  tag_65\n    /* \"#utility.yul\":2289:2292   */\n  dup3\n    /* \"#utility.yul\":2145:2293   */\n  tag_48\n  jump\t// in\ntag_65:\n    /* \"#utility.yul\":2138:2293   */\n  swap2\n  pop\n    /* \"#utility.yul\":2310:2313   */\n  dup2\n    /* \"#utility.yul\":2303:2313   */\n  swap1\n  pop\n    /* \"#utility.yul\":1938:2319   */\n  swap2\n  swap1\n  pop\n  jump\t// out\n    /* \"#utility.yul\":2325:2706   */\ntag_10:\n    /* \"#utility.yul\":2510:2513   */\n  0x00\n    /* \"#utility.yul\":2532:2680   */\n  tag_67\n    /* \"#utility.yul\":2676:2679   */\n  dup3\n    /* \"#utility.yul\":2532:2680   */\n  tag_54\n  jump\t// in\ntag_67:\n    /* \"#utility.yul\":2525:2680   */\n  swap2\n  pop\n    /* \"#utility.yul\":2697:2700   */\n  dup2\n    /* \"#utility.yul\":2690:2700   */\n  swap1\n  pop\n    /* \"#utility.yul\":2325:2706   */\n  swap2\n  swap1\n  pop\n  jump\t// out\n    /* \"#utility.yul\":2712:3093   */\ntag_7:\n    /* \"#utility.yul\":2897:2900   */\n  0x00\n    /* \"#utility.yul\":2919:3067   */\n  tag_69\n    /* \"#utility.yul\":3063:3066   */\n  dup3\n    /* \"#utility.yul\":2919:3067   */\n  tag_59\n  jump\t// in\ntag_69:\n    /* \"#utility.yul\":2912:3067   */\n  swap2\n  pop\n    /* \"#utility.yul\":3084:3087   */\n  dup2\n    /* \"#utility.yul\":3077:3087   */\n  swap1\n  pop\n    /* \"#utility.yul\":2712:3093   */\n  swap2\n  swap1\n  pop\n  jump\t// out\n    /* \"#utility.yul\":3099:3491   */\ntag_21:\n    /* \"#utility.yul\":3250:3254   */\n  0x00\n    /* \"#utility.yul\":3288:3290   */\n  0x40\n    /* \"#utility.yul\":3277:3286   */\n  dup3\n    /* \"#utility.yul\":3273:3291   */\n  add\n    /* \"#utility.yul\":3265:3291   */\n  swap1\n  pop\n    /* \"#utility.yul\":3301:3372   */\n  tag_71\n    /* \"#utility.yul\":3369:3370   */\n  0x00\n    /* \"#utility.yul\":3358:3367   */\n  dup4\n    /* \"#utility.yul\":3354:3371   */\n  add\n    /* \"#utility.yul\":3345:3351   */\n  dup6\n    /* \"#utility.yul\":3301:3372   */\n  tag_32\n  jump\t// in\ntag_71:\n    /* \"#utility.yul\":3382:3484   */\n  tag_72\n    /* \"#utility.yul\":3480:3482   */\n  0x20\n    /* \"#utility.yul\":3469:3478   */\n  dup4\n    /* \"#utility.yul\":3465:3483   */\n  add\n    /* \"#utility.yul\":3456:3462   */\n  dup5\n    /* \"#utility.yul\":3382:3484   */\n  tag_36\n  jump\t// in\ntag_72:\n    /* \"#utility.yul\":3099:3491   */\n  swap4\n  swap3\n  pop\n  pop\n  pop\n  jump\t// out\n    /* \"#utility.yul\":3497:3889   */\ntag_26:\n    /* \"#utility.yul\":3648:3652   */\n  0x00\n    /* \"#utility.yul\":3686:3688   */\n  0x40\n    /* \"#utility.yul\":3675:3684   */\n  dup3\n    /* \"#utility.yul\":3671:3689   */\n  add\n    /* \"#utility.yul\":3663:3689   */\n  swap1\n  pop\n    /* \"#utility.yul\":3699:3770   */\n  tag_74\n    /* \"#utility.yul\":3767:3768   */\n  0x00\n    /* \"#utility.yul\":3756:3765   */\n  dup4\n    /* \"#utility.yul\":3752:3769   */\n  add\n    /* \"#utility.yul\":3743:3749   */\n  dup6\n    /* \"#utility.yul\":3699:3770   */\n  tag_32\n  jump\t// in\ntag_74:\n    /* \"#utility.yul\":3780:3882   */\n  tag_75\n    /* \"#utility.yul\":3878:3880   */\n  0x20\n    /* \"#utility.yul\":3867:3876   */\n  dup4\n    /* \"#utility.yul\":3863:3881   */\n  add\n    /* \"#utility.yul\":3854:3860   */\n  dup5\n    /* \"#utility.yul\":3780:3882   */\n  tag_40\n  jump\t// in\ntag_75:\n    /* \"#utility.yul\":3497:3889   */\n  swap4\n  swap3\n  pop\n  pop\n  pop\n  jump\t// out\n    /* \"#utility.yul\":3895:4285   */\ntag_16:\n    /* \"#utility.yul\":4045:4049   */\n  0x00\n    /* \"#utility.yul\":4083:4085   */\n  0x40\n    /* \"#utility.yul\":4072:4081   */\n  dup3\n    /* \"#utility.yul\":4068:4086   */\n  add\n    /* \"#utility.yul\":4060:4086   */\n  swap1\n  pop\n    /* \"#utility.yul\":4096:4167   */\n  tag_77\n    /* \"#utility.yul\":4164:4165   */\n  0x00\n    /* \"#utility.yul\":4153:4162   */\n  dup4\n    /* \"#utility.yul\":4149:4166   */\n  add\n    /* \"#utility.yul\":4140:4146   */\n  dup6\n    /* \"#utility.yul\":4096:4167   */\n  tag_32\n  jump\t// in\ntag_77:\n    /* \"#utility.yul\":4177:4278   */\n  tag_78\n    /* \"#utility.yul\":4274:4276   */\n  0x20\n    /* \"#utility.yul\":4263:4272   */\n  dup4\n    /* \"#utility.yul\":4259:4277   */\n  add\n    /* \"#utility.yul\":4250:4256   */\n  dup5\n    /* \"#utility.yul\":4177:4278   */\n  tag_44\n  jump\t// in\ntag_78:\n    /* \"#utility.yul\":3895:4285   */\n  swap4\n  swap3\n  pop\n  pop\n  pop\n  jump\t// out\n    /* \"#utility.yul\":4291:4439   */\ntag_51:\n    /* \"#utility.yul\":4393:4404   */\n  0x00\n    /* \"#utility.yul\":4430:4433   */\n  dup2\n    /* \"#utility.yul\":4415:4433   */\n  swap1\n  pop\n    /* \"#utility.yul\":4291:4439   */\n  swap3\n  swap2\n  pop\n  pop\n  jump\t// out\n    /* \"#utility.yul\":4445:4541   */\ntag_35:\n    /* \"#utility.yul\":4482:4489   */\n  0x00\n    /* \"#utility.yul\":4511:4535   */\n  tag_81\n    /* \"#utility.yul\":4529:4534   */\n  dup3\n    /* \"#utility.yul\":4511:4535   */\n  tag_82\n  jump\t// in\ntag_81:\n    /* \"#utility.yul\":4500:4535   */\n  swap1\n  pop\n    /* \"#utility.yul\":4445:4541   */\n  swap2\n  swap1\n  pop\n  jump\t// out\n    /* \"#utility.yul\":4547:4673   */\ntag_82:\n    /* \"#utility.yul\":4584:4591   */\n  0x00\n    /* \"#utility.yul\":4624:4666   */\n  0xffffffffffffffffffffffffffffffffffffffff\n    /* \"#utility.yul\":4617:4622   */\n  dup3\n    /* \"#utility.yul\":4613:4667   */\n  and\n    /* \"#utility.yul\":4602:4667   */\n  swap1\n  pop\n    /* \"#utility.yul\":4547:4673   */\n  swap2\n  swap1\n  pop\n  jump\t// out\n    /* \"#utility.yul\":4679:4756   */\ntag_84:\n    /* \"#utility.yul\":4716:4723   */\n  0x00\n    /* \"#utility.yul\":4745:4750   */\n  dup2\n    /* \"#utility.yul\":4734:4750   */\n  swap1\n  pop\n    /* \"#utility.yul\":4679:4756   */\n  swap2\n  swap1\n  pop\n  jump\t// out\n    /* \"#utility.yul\":4762:4905   */\ntag_39:\n    /* \"#utility.yul\":4842:4851   */\n  0x00\n    /* \"#utility.yul\":4875:4899   */\n  tag_87\n    /* \"#utility.yul\":4893:4898   */\n  dup3\n    /* \"#utility.yul\":4875:4899   */\n  tag_84\n  jump\t// in\ntag_87:\n    /* \"#utility.yul\":4862:4899   */\n  swap1\n  pop\n    /* \"#utility.yul\":4762:4905   */\n  swap2\n  swap1\n  pop\n  jump\t// out\n    /* \"#utility.yul\":4911:5054   */\ntag_43:\n    /* \"#utility.yul\":4991:5000   */\n  0x00\n    /* \"#utility.yul\":5024:5048   */\n  tag_89\n    /* \"#utility.yul\":5042:5047   */\n  dup3\n    /* \"#utility.yul\":5024:5048   */\n  tag_84\n  jump\t// in\ntag_89:\n    /* \"#utility.yul\":5011:5048   */\n  swap1\n  pop\n    /* \"#utility.yul\":4911:5054   */\n  swap2\n  swap1\n  pop\n  jump\t// out\n    /* \"#utility.yul\":5060:5202   */\ntag_47:\n    /* \"#utility.yul\":5139:5148   */\n  0x00\n    /* \"#utility.yul\":5172:5196   */\n  tag_91\n    /* \"#utility.yul\":5190:5195   */\n  dup3\n    /* \"#utility.yul\":5172:5196   */\n  tag_84\n  jump\t// in\ntag_91:\n    /* \"#utility.yul\":5159:5196   */\n  swap1\n  pop\n    /* \"#utility.yul\":5060:5202   */\n  swap2\n  swap1\n  pop\n  jump\t// out\n    /* \"#utility.yul\":5208:5362   */\ntag_53:\n    /* \"#utility.yul\":5348:5354   */\n  0x4652415800000000000000000000000000000000000000000000000000000000\n    /* \"#utility.yul\":5344:5345   */\n  0x00\n    /* \"#utility.yul\":5336:5342   */\n  dup3\n    /* \"#utility.yul\":5332:5346   */\n  add\n    /* \"#utility.yul\":5325:5355   */\n  mstore\n    /* \"#utility.yul\":5208:5362   */\n  pop\n  jump\t// out\n    /* \"#utility.yul\":5368:5521   */\ntag_58:\n    /* \"#utility.yul\":5508:5513   */\n  0x4441490000000000000000000000000000000000000000000000000000000000\n    /* \"#utility.yul\":5504:5505   */\n  0x00\n    /* \"#utility.yul\":5496:5502   */\n  dup3\n    /* \"#utility.yul\":5492:5506   */\n  add\n    /* \"#utility.yul\":5485:5514   */\n  mstore\n    /* \"#utility.yul\":5368:5521   */\n  pop\n  jump\t// out\n    /* \"#utility.yul\":5527:5681   */\ntag_63:\n    /* \"#utility.yul\":5667:5673   */\n  0x5553444300000000000000000000000000000000000000000000000000000000\n    /* \"#utility.yul\":5663:5664   */\n  0x00\n    /* \"#utility.yul\":5655:5661   */\n  dup3\n    /* \"#utility.yul\":5651:5665   */\n  add\n    /* \"#utility.yul\":5644:5674   */\n  mstore\n    /* \"#utility.yul\":5527:5681   */\n  pop\n  jump\t// out\n    /* \"WandInstruments.sol\":157:16224  contract testSticks is ReentrancyGuard{\r... */\ntag_30:\n  dataSize(sub_0)\n  dup1\n  dataOffset(sub_0)\n  0x00\n  codecopy\n  0x00\n  return\nstop\n\nsub_0: assembly {\n        /* \"WandInstruments.sol\":157:16224  contract testSticks is ReentrancyGuard{\r... */\n      mstore(0x40, 0x80)\n      jumpi(tag_1, lt(calldatasize, 0x04))\n      shr(0xe0, calldataload(0x00))\n      dup1\n      0x6f10e285\n      gt\n      tag_41\n      jumpi\n      dup1\n      0xc0ca6fb4\n      gt\n      tag_42\n      jumpi\n      dup1\n      0xe5d98082\n      gt\n      tag_43\n      jumpi\n      dup1\n      0xe5d98082\n      eq\n      tag_36\n      jumpi\n      dup1\n      0xee620868\n      eq\n      tag_37\n      jumpi\n      dup1\n      0xeee05f5e\n      eq\n      tag_38\n      jumpi\n      dup1\n      0xfbbb4589\n      eq\n      tag_39\n      jumpi\n      dup1\n      0xfc361443\n      eq\n      tag_40\n      jumpi\n      jump(tag_1)\n    tag_43:\n      dup1\n      0xc0ca6fb4\n      eq\n      tag_31\n      jumpi\n      dup1\n      0xc0ce5889\n      eq\n      tag_32\n      jumpi\n      dup1\n      0xcbff4617\n      eq\n      tag_33\n      jumpi\n      dup1\n      0xd04d7908\n      eq\n      tag_34\n      jumpi\n      dup1\n      0xd82eddf2\n      eq\n      tag_35\n      jumpi\n      jump(tag_1)\n    tag_42:\n      dup1\n      0x9b19251a\n      gt\n      tag_44\n      jumpi\n      dup1\n      0x9b19251a\n      eq\n      tag_26\n      jumpi\n      dup1\n      0xa475bf48\n      eq\n      tag_27\n      jumpi\n      dup1\n      0xbcb3de54\n      eq\n      tag_28\n      jumpi\n      dup1\n      0xbdad7f02\n      eq\n      tag_29\n      jumpi\n      dup1\n      0xc079d7f6\n      eq\n      tag_30\n      jumpi\n      jump(tag_1)\n    tag_44:\n      dup1\n      0x6f10e285\n      eq\n      tag_21\n      jumpi\n      dup1\n      0x7087a7a5\n      eq\n      tag_22\n      jumpi\n      dup1\n      0x71cd58f9\n      eq\n      tag_23\n      jumpi\n      dup1\n      0x862d1b35\n      eq\n      tag_24\n      jumpi\n      dup1\n      0x93f7b711\n      eq\n      tag_25\n      jumpi\n      jump(tag_1)\n    tag_41:\n      dup1\n      0x1f564a06\n      gt\n      tag_45\n      jumpi\n      dup1\n      0x3c6eb17a\n      gt\n      tag_46\n      jumpi\n      dup1\n      0x3c6eb17a\n      eq\n      tag_16\n      jumpi\n      dup1\n      0x43d32e9c\n      eq\n      tag_17\n      jumpi\n      dup1\n      0x66763319\n      eq\n      tag_18\n      jumpi\n      dup1\n      0x67b48c91\n      eq\n      tag_19\n      jumpi\n      dup1\n      0x67e927a8\n      eq\n      tag_20\n      jumpi\n      jump(tag_1)\n    tag_46:\n      dup1\n      0x1f564a06\n      eq\n      tag_11\n      jumpi\n      dup1\n      0x26ae486e\n      eq\n      tag_12\n      jumpi\n      dup1\n      0x29982a32\n      eq\n      tag_13\n      jumpi\n      dup1\n      0x2a9f0fb1\n      eq\n      tag_14\n      jumpi\n      dup1\n      0x39ad95d6\n      eq\n      tag_15\n      jumpi\n      jump(tag_1)\n    tag_45:\n      dup1\n      0x12b2ed94\n      gt\n      tag_47\n      jumpi\n      dup1\n      0x12b2ed94\n      eq\n      tag_6\n      jumpi\n      dup1\n      0x1514c976\n      eq\n      tag_7\n      jumpi\n      dup1\n      0x164c8501\n      eq\n      tag_8\n      jumpi\n      dup1\n      0x1a30e872\n      eq\n      tag_9\n      jumpi\n      dup1\n      0x1bc9cc45\n      eq\n      tag_10\n      jumpi\n      jump(tag_1)\n    tag_47:\n      dup1\n      0x018a25e8\n      eq\n      tag_2\n      jumpi\n      dup1\n      0x047729b0\n      eq\n      tag_3\n      jumpi\n      dup1\n      0x0ccaf04f\n      eq\n      tag_4\n      jumpi\n      dup1\n      0x0f65de3e\n      eq\n      tag_5\n      jumpi\n    tag_1:\n      0x00\n      dup1\n      revert\n        /* \"WandInstruments.sol\":12187:12461  function getBuyPrice() external view returns (uint256){\r... */\n    tag_2:\n      callvalue\n      dup1\n      iszero\n      tag_48\n      jumpi\n      0x00\n      dup1\n      revert\n    tag_48:\n      pop\n      tag_49\n      tag_50\n      jump\t// in\n    tag_49:\n      mload(0x40)\n      tag_51\n      swap2\n      swap1\n      tag_52\n      jump\t// in\n    tag_51:\n      mload(0x40)\n      dup1\n      swap2\n      sub\n      swap1\n      return\n        /* \"WandInstruments.sol\":701:732  address public riskTreasuryAddr */\n    tag_3:\n      callvalue\n      dup1\n      iszero\n      tag_53\n      jumpi\n      0x00\n      dup1\n      revert\n    tag_53:\n      pop\n      tag_54\n      tag_55\n      jump\t// in\n    tag_54:\n      mload(0x40)\n      tag_56\n      swap2\n      swap1\n      tag_57\n      jump\t// in\n    tag_56:\n      mload(0x40)\n      dup1\n      swap2\n      sub\n      swap1\n      return\n        /* \"WandInstruments.sol\":11060:11955  function getSellFactor() external view returns (uint256){\r... */\n    tag_4:\n      callvalue\n      dup1\n      iszero\n      tag_58\n      jumpi\n      0x00\n      dup1\n      revert\n    tag_58:\n      pop\n      tag_59\n      tag_60\n      jump\t// in\n    tag_59:\n      mload(0x40)\n      tag_61\n      swap2\n      swap1\n      tag_52\n      jump\t// in\n    tag_61:\n      mload(0x40)\n      dup1\n      swap2\n      sub\n      swap1\n      return\n        /* \"WandInstruments.sol\":15186:15621  function getCircSupplyXDays() external view returns (uint256){\r... */\n    tag_5:\n      callvalue\n      dup1\n      iszero\n      tag_62\n      jumpi\n      0x00\n      dup1\n      revert\n    tag_62:\n      pop\n      tag_63\n      tag_64\n      jump\t// in\n    tag_63:\n      mload(0x40)\n      tag_65\n      swap2\n      swap1\n      tag_52\n      jump\t// in\n    tag_65:\n      mload(0x40)\n      dup1\n      swap2\n      sub\n      swap1\n      return\n        /* \"WandInstruments.sol\":2058:2118  mapping(address => lockedamounts) public withheldWithdrawals */\n    tag_6:\n      callvalue\n      dup1\n      iszero\n      tag_66\n      jumpi\n      0x00\n      dup1\n      revert\n    tag_66:\n      pop\n      tag_67\n      0x04\n      dup1\n      calldatasize\n      sub\n      dup2\n      add\n      swap1\n      tag_68\n      swap2\n      swap1\n      tag_69\n      jump\t// in\n    tag_68:\n      tag_70\n      jump\t// in\n    tag_67:\n      mload(0x40)\n      tag_71\n      swap3\n      swap2\n      swap1\n      tag_72\n      jump\t// in\n    tag_71:\n      mload(0x40)\n      dup1\n      swap2\n      sub\n      swap1\n      return\n        /* \"WandInstruments.sol\":1641:1691  mapping(uint256 => uint256) public tokensSoldXDays */\n    tag_7:\n      callvalue\n      dup1\n      iszero\n      tag_73\n      jumpi\n      0x00\n      dup1\n      revert\n    tag_73:\n      pop\n      tag_74\n      0x04\n      dup1\n      calldatasize\n      sub\n      dup2\n      add\n      swap1\n      tag_75\n      swap2\n      swap1\n      tag_76\n      jump\t// in\n    tag_75:\n      tag_77\n      jump\t// in\n    tag_74:\n      mload(0x40)\n      tag_78\n      swap2\n      swap1\n      tag_52\n      jump\t// in\n    tag_78:\n      mload(0x40)\n      dup1\n      swap2\n      sub\n      swap1\n      return\n        /* \"WandInstruments.sol\":13744:14246  function testUpdatetimeLockedminus(uint256 amt) public  {\r... */\n    tag_8:\n      callvalue\n      dup1\n      iszero\n      tag_79\n      jumpi\n      0x00\n      dup1\n      revert\n    tag_79:\n      pop\n      tag_80\n      0x04\n      dup1\n      calldatasize\n      sub\n      dup2\n      add\n      swap1\n      tag_81\n      swap2\n      swap1\n      tag_76\n      jump\t// in\n    tag_81:\n      tag_82\n      jump\t// in\n    tag_80:\n      stop\n        /* \"WandInstruments.sol\":1698:1755  mapping(uint256 => uint256) public circulatingSupplyXDays */\n    tag_9:\n      callvalue\n      dup1\n      iszero\n      tag_83\n      jumpi\n      0x00\n      dup1\n      revert\n    tag_83:\n      pop\n      tag_84\n      0x04\n      dup1\n      calldatasize\n      sub\n      dup2\n      add\n      swap1\n      tag_85\n      swap2\n      swap1\n      tag_76\n      jump\t// in\n    tag_85:\n      tag_86\n      jump\t// in\n    tag_84:\n      mload(0x40)\n      tag_87\n      swap2\n      swap1\n      tag_52\n      jump\t// in\n    tag_87:\n      mload(0x40)\n      dup1\n      swap2\n      sub\n      swap1\n      return\n        /* \"WandInstruments.sol\":7594:8341  function transformScepterToBaton(uint256 amountSCPtoSwap) public payable{\r... */\n    tag_10:\n      tag_88\n      0x04\n      dup1\n      calldatasize\n      sub\n      dup2\n      add\n      swap1\n      tag_89\n      swap2\n      swap1\n      tag_76\n      jump\t// in\n    tag_89:\n      tag_90\n      jump\t// in\n    tag_88:\n      stop\n        /* \"WandInstruments.sol\":11961:12181  function getBackingPrice() external view returns (uint256){\r... */\n    tag_11:\n      callvalue\n      dup1\n      iszero\n      tag_91\n      jumpi\n      0x00\n      dup1\n      revert\n    tag_91:\n      pop\n      tag_92\n      tag_93\n      jump\t// in\n    tag_92:\n      mload(0x40)\n      tag_94\n      swap2\n      swap1\n      tag_52\n      jump\t// in\n    tag_94:\n      mload(0x40)\n      dup1\n      swap2\n      sub\n      swap1\n      return\n        /* \"WandInstruments.sol\":1422:1440  IERC20 public SPTR */\n    tag_12:\n      callvalue\n      dup1\n      iszero\n      tag_95\n      jumpi\n      0x00\n      dup1\n      revert\n    tag_95:\n      pop\n      tag_96\n      tag_97\n      jump\t// in\n    tag_96:\n      mload(0x40)\n      tag_98\n      swap2\n      swap1\n      tag_99\n      jump\t// in\n    tag_98:\n      mload(0x40)\n      dup1\n      swap2\n      sub\n      swap1\n      return\n        /* \"WandInstruments.sol\":739:767  address public devWalletAddr */\n    tag_13:\n      callvalue\n      dup1\n      iszero\n      tag_100\n      jumpi\n      0x00\n      dup1\n      revert\n    tag_100:\n      pop\n      tag_101\n      tag_102\n      jump\t// in\n    tag_101:\n      mload(0x40)\n      tag_103\n      swap2\n      swap1\n      tag_57\n      jump\t// in\n    tag_103:\n      mload(0x40)\n      dup1\n      swap2\n      sub\n      swap1\n      return\n        /* \"WandInstruments.sol\":1582:1634  mapping(uint256 => uint256) public tokensBoughtXDays */\n    tag_14:\n      callvalue\n      dup1\n      iszero\n      tag_104\n      jumpi\n      0x00\n      dup1\n      revert\n    tag_104:\n      pop\n      tag_105\n      0x04\n      dup1\n      calldatasize\n      sub\n      dup2\n      add\n      swap1\n      tag_106\n      swap2\n      swap1\n      tag_76\n      jump\t// in\n    tag_106:\n      tag_107\n      jump\t// in\n    tag_105:\n      mload(0x40)\n      tag_108\n      swap2\n      swap1\n      tag_52\n      jump\t// in\n    tag_108:\n      mload(0x40)\n      dup1\n      swap2\n      sub\n      swap1\n      return\n        /* \"WandInstruments.sol\":13176:13252  function withdrawStables(uint256 _amtToWithdraw) public onlyOwner {\r... */\n    tag_15:\n      callvalue\n      dup1\n      iszero\n      tag_109\n      jumpi\n      0x00\n      dup1\n      revert\n    tag_109:\n      pop\n      tag_110\n      0x04\n      dup1\n      calldatasize\n      sub\n      dup2\n      add\n      swap1\n      tag_111\n      swap2\n      swap1\n      tag_76\n      jump\t// in\n    tag_111:\n      tag_112\n      jump\t// in\n    tag_110:\n      stop\n        /* \"WandInstruments.sol\":867:894  uint256 public timeLaunched */\n    tag_16:\n      callvalue\n      dup1\n      iszero\n      tag_113\n      jumpi\n      0x00\n      dup1\n      revert\n    tag_113:\n      pop\n      tag_114\n      tag_115\n      jump\t// in\n    tag_114:\n      mload(0x40)\n      tag_116\n      swap2\n      swap1\n      tag_52\n      jump\t// in\n    tag_116:\n      mload(0x40)\n      dup1\n      swap2\n      sub\n      swap1\n      return\n        /* \"WandInstruments.sol\":12467:12740  function getSellPrice() external view returns (uint256){\r... */\n    tag_17:\n      callvalue\n      dup1\n      iszero\n      tag_117\n      jumpi\n      0x00\n      dup1\n      revert\n    tag_117:\n      pop\n      tag_118\n      tag_119\n      jump\t// in\n    tag_118:\n      mload(0x40)\n      tag_120\n      swap2\n      swap1\n      tag_52\n      jump\t// in\n    tag_120:\n      mload(0x40)\n      dup1\n      swap2\n      sub\n      swap1\n      return\n        /* \"WandInstruments.sol\":808:838  uint256 public sptrTreasuryBal */\n    tag_18:\n      callvalue\n      dup1\n      iszero\n      tag_121\n      jumpi\n      0x00\n      dup1\n      revert\n    tag_121:\n      pop\n      tag_122\n      tag_123\n      jump\t// in\n    tag_122:\n      mload(0x40)\n      tag_124\n      swap2\n      swap1\n      tag_52\n      jump\t// in\n    tag_124:\n      mload(0x40)\n      dup1\n      swap2\n      sub\n      swap1\n      return\n        /* \"WandInstruments.sol\":901:933  uint256 public daysInCalculation */\n    tag_19:\n      callvalue\n      dup1\n      iszero\n      tag_125\n      jumpi\n      0x00\n      dup1\n      revert\n    tag_125:\n      pop\n      tag_126\n      tag_127\n      jump\t// in\n    tag_126:\n      mload(0x40)\n      tag_128\n      swap2\n      swap1\n      tag_52\n      jump\t// in\n    tag_128:\n      mload(0x40)\n      dup1\n      swap2\n      sub\n      swap1\n      return\n        /* \"WandInstruments.sol\":13260:13732  function testUpdatetimeLockedplus(uint256 amt) public  {\r... */\n    tag_20:\n      callvalue\n      dup1\n      iszero\n      tag_129\n      jumpi\n      0x00\n      dup1\n      revert\n    tag_129:\n      pop\n      tag_130\n      0x04\n      dup1\n      calldatasize\n      sub\n      dup2\n      add\n      swap1\n      tag_131\n      swap2\n      swap1\n      tag_76\n      jump\t// in\n    tag_131:\n      tag_132\n      jump\t// in\n    tag_130:\n      stop\n        /* \"WandInstruments.sol\":1152:1169  int128 public res */\n    tag_21:\n      callvalue\n      dup1\n      iszero\n      tag_133\n      jumpi\n      0x00\n      dup1\n      revert\n    tag_133:\n      pop\n      tag_134\n      tag_135\n      jump\t// in\n    tag_134:\n      mload(0x40)\n      tag_136\n      swap2\n      swap1\n      tag_137\n      jump\t// in\n    tag_136:\n      mload(0x40)\n      dup1\n      swap2\n      sub\n      swap1\n      return\n        /* \"WandInstruments.sol\":1499:1524  IERC20 public tokenStable */\n    tag_22:\n      callvalue\n      dup1\n      iszero\n      tag_138\n      jumpi\n      0x00\n      dup1\n      revert\n    tag_138:\n      pop\n      tag_139\n      tag_140\n      jump\t// in\n    tag_139:\n      mload(0x40)\n      tag_141\n      swap2\n      swap1\n      tag_99\n      jump\t// in\n    tag_141:\n      mload(0x40)\n      dup1\n      swap2\n      sub\n      swap1\n      return\n        /* \"WandInstruments.sol\":14360:14888  function getTokensBoughtXDays() external view returns (uint256){\r... */\n    tag_23:\n      callvalue\n      dup1\n      iszero\n      tag_142\n      jumpi\n      0x00\n      dup1\n      revert\n    tag_142:\n      pop\n      tag_143\n      tag_144\n      jump\t// in\n    tag_143:\n      mload(0x40)\n      tag_145\n      swap2\n      swap1\n      tag_52\n      jump\t// in\n    tag_145:\n      mload(0x40)\n      dup1\n      swap2\n      sub\n      swap1\n      return\n        /* \"WandInstruments.sol\":8356:9603  function buyScepter(uint256 amountSCPtoBuy, string memory _stableChosen) public nonReentrant{\r... */\n    tag_24:\n      callvalue\n      dup1\n      iszero\n      tag_146\n      jumpi\n      0x00\n      dup1\n      revert\n    tag_146:\n      pop\n      tag_147\n      0x04\n      dup1\n      calldatasize\n      sub\n      dup2\n      add\n      swap1\n      tag_148\n      swap2\n      swap1\n      tag_149\n      jump\t// in\n    tag_148:\n      tag_150\n      jump\t// in\n    tag_147:\n      stop\n        /* \"WandInstruments.sol\":10151:11054  function getGrowthFactor() external view returns (uint256){\r... */\n    tag_25:\n      callvalue\n      dup1\n      iszero\n      tag_151\n      jumpi\n      0x00\n      dup1\n      revert\n    tag_151:\n      pop\n      tag_152\n      tag_153\n      jump\t// in\n    tag_152:\n      mload(0x40)\n      tag_154\n      swap2\n      swap1\n      tag_52\n      jump\t// in\n    tag_154:\n      mload(0x40)\n      dup1\n      swap2\n      sub\n      swap1\n      return\n        /* \"WandInstruments.sol\":15629:15718  function whitelist(address _addr) public onlyOwner {  \r... */\n    tag_26:\n      callvalue\n      dup1\n      iszero\n      tag_155\n      jumpi\n      0x00\n      dup1\n      revert\n    tag_155:\n      pop\n      tag_156\n      0x04\n      dup1\n      calldatasize\n      sub\n      dup2\n      add\n      swap1\n      tag_157\n      swap2\n      swap1\n      tag_69\n      jump\t// in\n    tag_157:\n      tag_158\n      jump\t// in\n    tag_156:\n      stop\n        /* \"WandInstruments.sol\":1886:1947  mapping (string => stableTokensParams) public stableERC20Info */\n    tag_27:\n      callvalue\n      dup1\n      iszero\n      tag_159\n      jumpi\n      0x00\n      dup1\n      revert\n    tag_159:\n      pop\n      tag_160\n      0x04\n      dup1\n      calldatasize\n      sub\n      dup2\n      add\n      swap1\n      tag_161\n      swap2\n      swap1\n      tag_162\n      jump\t// in\n    tag_161:\n      tag_163\n      jump\t// in\n    tag_160:\n      mload(0x40)\n      tag_164\n      swap3\n      swap2\n      swap1\n      tag_165\n      jump\t// in\n    tag_164:\n      mload(0x40)\n      dup1\n      swap2\n      sub\n      swap1\n      return\n        /* \"WandInstruments.sol\":12748:12968  function updateSPTRTreasuryBal() external {\r... */\n    tag_28:\n      callvalue\n      dup1\n      iszero\n      tag_166\n      jumpi\n      0x00\n      dup1\n      revert\n    tag_166:\n      pop\n      tag_167\n      tag_168\n      jump\t// in\n    tag_167:\n      stop\n        /* \"WandInstruments.sol\":9611:10118  function claimLockedUSDC(address _claimant, string memory _stableChosen) public {\r... */\n    tag_29:\n      callvalue\n      dup1\n      iszero\n      tag_169\n      jumpi\n      0x00\n      dup1\n      revert\n    tag_169:\n      pop\n      tag_170\n      0x04\n      dup1\n      calldatasize\n      sub\n      dup2\n      add\n      swap1\n      tag_171\n      swap2\n      swap1\n      tag_172\n      jump\t// in\n    tag_171:\n      tag_173\n      jump\t// in\n    tag_170:\n      stop\n        /* \"WandInstruments.sol\":660:694  address public scepterTreasuryAddr */\n    tag_30:\n      callvalue\n      dup1\n      iszero\n      tag_174\n      jumpi\n      0x00\n      dup1\n      revert\n    tag_174:\n      pop\n      tag_175\n      tag_176\n      jump\t// in\n    tag_175:\n      mload(0x40)\n      tag_177\n      swap2\n      swap1\n      tag_57\n      jump\t// in\n    tag_177:\n      mload(0x40)\n      dup1\n      swap2\n      sub\n      swap1\n      return\n        /* \"WandInstruments.sol\":1472:1490  IERC20 public BTON */\n    tag_31:\n      callvalue\n      dup1\n      iszero\n      tag_178\n      jumpi\n      0x00\n      dup1\n      revert\n    tag_178:\n      pop\n      tag_179\n      tag_180\n      jump\t// in\n    tag_179:\n      mload(0x40)\n      tag_181\n      swap2\n      swap1\n      tag_99\n      jump\t// in\n    tag_181:\n      mload(0x40)\n      dup1\n      swap2\n      sub\n      swap1\n      return\n        /* \"WandInstruments.sol\":5860:7586  function cashOutScepter(uint256 amountSCPtoSell, uint256 timeChosenLocked, string memory _stableChosen) public payable{\r... */\n    tag_32:\n      tag_182\n      0x04\n      dup1\n      calldatasize\n      sub\n      dup2\n      add\n      swap1\n      tag_183\n      swap2\n      swap1\n      tag_184\n      jump\t// in\n    tag_183:\n      tag_185\n      jump\t// in\n    tag_182:\n      stop\n        /* \"WandInstruments.sol\":411:436  uint256 public sellFactor */\n    tag_33:\n      callvalue\n      dup1\n      iszero\n      tag_186\n      jumpi\n      0x00\n      dup1\n      revert\n    tag_186:\n      pop\n      tag_187\n      tag_188\n      jump\t// in\n    tag_187:\n      mload(0x40)\n      tag_189\n      swap2\n      swap1\n      tag_52\n      jump\t// in\n    tag_189:\n      mload(0x40)\n      dup1\n      swap2\n      sub\n      swap1\n      return\n        /* \"WandInstruments.sol\":1447:1465  IERC20 public WAND */\n    tag_34:\n      callvalue\n      dup1\n      iszero\n      tag_190\n      jumpi\n      0x00\n      dup1\n      revert\n    tag_190:\n      pop\n      tag_191\n      tag_192\n      jump\t// in\n    tag_191:\n      mload(0x40)\n      tag_193\n      swap2\n      swap1\n      tag_99\n      jump\t// in\n    tag_193:\n      mload(0x40)\n      dup1\n      swap2\n      sub\n      swap1\n      return\n        /* \"WandInstruments.sol\":14894:15180  function getTokensSoldXDays() external view returns (uint256){\r... */\n    tag_35:\n      callvalue\n      dup1\n      iszero\n      tag_194\n      jumpi\n      0x00\n      dup1\n      revert\n    tag_194:\n      pop\n      tag_195\n      tag_196\n      jump\t// in\n    tag_195:\n      mload(0x40)\n      tag_197\n      swap2\n      swap1\n      tag_52\n      jump\t// in\n    tag_197:\n      mload(0x40)\n      dup1\n      swap2\n      sub\n      swap1\n      return\n        /* \"WandInstruments.sol\":15726:15945  function addStable(string memory _ticker, address _addr, uint256 _dec) public onlyOwner {\r... */\n    tag_36:\n      callvalue\n      dup1\n      iszero\n      tag_198\n      jumpi\n      0x00\n      dup1\n      revert\n    tag_198:\n      pop\n      tag_199\n      0x04\n      dup1\n      calldatasize\n      sub\n      dup2\n      add\n      swap1\n      tag_200\n      swap2\n      swap1\n      tag_201\n      jump\t// in\n    tag_200:\n      tag_202\n      jump\t// in\n    tag_199:\n      stop\n        /* \"WandInstruments.sol\":377:404  uint256 public growthFactor */\n    tag_37:\n      callvalue\n      dup1\n      iszero\n      tag_203\n      jumpi\n      0x00\n      dup1\n      revert\n    tag_203:\n      pop\n      tag_204\n      tag_205\n      jump\t// in\n    tag_204:\n      mload(0x40)\n      tag_206\n      swap2\n      swap1\n      tag_52\n      jump\t// in\n    tag_206:\n      mload(0x40)\n      dup1\n      swap2\n      sub\n      swap1\n      return\n        /* \"WandInstruments.sol\":1176:1246  address public testwallet = 0x617F2E2fD72FD9D5503197092aC168c91465E7f2 */\n    tag_38:\n      callvalue\n      dup1\n      iszero\n      tag_207\n      jumpi\n      0x00\n      dup1\n      revert\n    tag_207:\n      pop\n      tag_208\n      tag_209\n      jump\t// in\n    tag_208:\n      mload(0x40)\n      tag_210\n      swap2\n      swap1\n      tag_57\n      jump\t// in\n    tag_210:\n      mload(0x40)\n      dup1\n      swap2\n      sub\n      swap1\n      return\n        /* \"WandInstruments.sol\":625:653  address public treasury1Addr */\n    tag_39:\n      callvalue\n      dup1\n      iszero\n      tag_211\n      jumpi\n      0x00\n      dup1\n      revert\n    tag_211:\n      pop\n      tag_212\n      tag_213\n      jump\t// in\n    tag_212:\n      mload(0x40)\n      tag_214\n      swap2\n      swap1\n      tag_57\n      jump\t// in\n    tag_214:\n      mload(0x40)\n      dup1\n      swap2\n      sub\n      swap1\n      return\n        /* \"WandInstruments.sol\":13008:13164  function setDaysUsedInFactors(uint256 numDays) public {  \r... */\n    tag_40:\n      callvalue\n      dup1\n      iszero\n      tag_215\n      jumpi\n      0x00\n      dup1\n      revert\n    tag_215:\n      pop\n      tag_216\n      0x04\n      dup1\n      calldatasize\n      sub\n      dup2\n      add\n      swap1\n      tag_217\n      swap2\n      swap1\n      tag_76\n      jump\t// in\n    tag_217:\n      tag_218\n      jump\t// in\n    tag_216:\n      stop\n        /* \"WandInstruments.sol\":12187:12461  function getBuyPrice() external view returns (uint256){\r... */\n    tag_50:\n        /* \"WandInstruments.sol\":12233:12240  uint256 */\n      0x00\n        /* \"WandInstruments.sol\":12370:12451  decMul18(this.getBackingPrice() , (1200000000000000000 + this.getGrowthFactor())) */\n      tag_220\n        /* \"WandInstruments.sol\":12379:12383  this */\n      address\n        /* \"WandInstruments.sol\":12379:12399  this.getBackingPrice */\n      0xffffffffffffffffffffffffffffffffffffffff\n      and\n      0x1f564a06\n        /* \"WandInstruments.sol\":12379:12401  this.getBackingPrice() */\n      mload(0x40)\n      dup2\n      0xffffffff\n      and\n      0xe0\n      shl\n      dup2\n      mstore\n      0x04\n      add\n      0x20\n      mload(0x40)\n      dup1\n      dup4\n      sub\n      dup2\n      dup7\n      dup1\n      extcodesize\n      iszero\n      dup1\n      iszero\n      tag_221\n      jumpi\n      0x00\n      dup1\n      revert\n    tag_221:\n      pop\n      gas\n      staticcall\n      iszero\n      dup1\n      iszero\n      tag_223\n      jumpi\n      returndatasize\n      0x00\n      dup1\n      returndatacopy\n      revert(0x00, returndatasize)\n    tag_223:\n      pop\n      pop\n      pop\n      pop\n      mload(0x40)\n      returndatasize\n      not(0x1f)\n      0x1f\n      dup3\n      add\n      and\n      dup3\n      add\n      dup1\n      0x40\n      mstore\n      pop\n      dup2\n      add\n      swap1\n      tag_224\n      swap2\n      swap1\n      tag_225\n      jump\t// in\n    tag_224:\n        /* \"WandInstruments.sol\":12427:12431  this */\n      address\n        /* \"WandInstruments.sol\":12427:12447  this.getGrowthFactor */\n      0xffffffffffffffffffffffffffffffffffffffff\n      and\n      0x93f7b711\n        /* \"WandInstruments.sol\":12427:12449  this.getGrowthFactor() */\n      mload(0x40)\n      dup2\n      0xffffffff\n      and\n      0xe0\n      shl\n      dup2\n      mstore\n      0x04\n      add\n      0x20\n      mload(0x40)\n      dup1\n      dup4\n      sub\n      dup2\n      dup7\n      dup1\n      extcodesize\n      iszero\n      dup1\n      iszero\n      tag_226\n      jumpi\n      0x00\n      dup1\n      revert\n    tag_226:\n      pop\n      gas\n      staticcall\n      iszero\n      dup1\n      iszero\n      tag_228\n      jumpi\n      returndatasize\n      0x00\n      dup1\n      returndatacopy\n      revert(0x00, returndatasize)\n    tag_228:\n      pop\n      pop\n      pop\n      pop\n      mload(0x40)\n      returndatasize\n      not(0x1f)\n      0x1f\n      dup3\n      add\n      and\n      dup3\n      add\n      dup1\n      0x40\n      mstore\n      pop\n      dup2\n      add\n      swap1\n      tag_229\n      swap2\n      swap1\n      tag_225\n      jump\t// in\n    tag_229:\n        /* \"WandInstruments.sol\":12405:12424  1200000000000000000 */\n      0x10a741a462780000\n        /* \"WandInstruments.sol\":12405:12449  1200000000000000000 + this.getGrowthFactor() */\n      tag_230\n      swap2\n      swap1\n      tag_231\n      jump\t// in\n    tag_230:\n        /* \"WandInstruments.sol\":12370:12378  decMul18 */\n      tag_232\n        /* \"WandInstruments.sol\":12370:12451  decMul18(this.getBackingPrice() , (1200000000000000000 + this.getGrowthFactor())) */\n      jump\t// in\n    tag_220:\n        /* \"WandInstruments.sol\":12363:12451  return decMul18(this.getBackingPrice() , (1200000000000000000 + this.getGrowthFactor())) */\n      swap1\n      pop\n        /* \"WandInstruments.sol\":12187:12461  function getBuyPrice() external view returns (uint256){\r... */\n      swap1\n      jump\t// out\n        /* \"WandInstruments.sol\":701:732  address public riskTreasuryAddr */\n    tag_55:\n      0x09\n      0x00\n      swap1\n      sload\n      swap1\n      0x0100\n      exp\n      swap1\n      div\n      0xffffffffffffffffffffffffffffffffffffffff\n      and\n      dup2\n      jump\t// out\n        /* \"WandInstruments.sol\":11060:11955  function getSellFactor() external view returns (uint256){\r... */\n    tag_60:\n        /* \"WandInstruments.sol\":11108:11115  uint256 */\n      0x00\n        /* \"WandInstruments.sol\":11261:11272  uint256 _sF */\n      dup1\n        /* \"WandInstruments.sol\":11284:11307  uint256 xDaysCircSupply */\n      0x00\n        /* \"WandInstruments.sol\":11318:11333  uint256 numdays */\n      dup1\n        /* \"WandInstruments.sol\":11354:11359  86400 */\n      0x015180\n        /* \"WandInstruments.sol\":11336:11353  daysInCalculation */\n      sload(0x0d)\n        /* \"WandInstruments.sol\":11336:11359  daysInCalculation/86400 */\n      tag_234\n      swap2\n      swap1\n      tag_235\n      jump\t// in\n    tag_234:\n        /* \"WandInstruments.sol\":11318:11359  uint256 numdays = daysInCalculation/86400 */\n      swap1\n      pop\n        /* \"WandInstruments.sol\":11370:11394  uint256 daySinceLaunched */\n      0x00\n        /* \"WandInstruments.sol\":11432:11437  86400 */\n      0x015180\n        /* \"WandInstruments.sol\":11416:11428  timeLaunched */\n      sload(0x0c)\n        /* \"WandInstruments.sol\":11398:11413  block.timestamp */\n      timestamp\n        /* \"WandInstruments.sol\":11398:11428  block.timestamp - timeLaunched */\n      tag_236\n      swap2\n      swap1\n      tag_237\n      jump\t// in\n    tag_236:\n        /* \"WandInstruments.sol\":11397:11437  (block.timestamp - timeLaunched) / 86400 */\n      tag_238\n      swap2\n      swap1\n      tag_235\n      jump\t// in\n    tag_238:\n        /* \"WandInstruments.sol\":11370:11437  uint256 daySinceLaunched = (block.timestamp - timeLaunched) / 86400 */\n      swap1\n      pop\n        /* \"WandInstruments.sol\":11448:11457  uint256 d */\n      0x00\n        /* \"WandInstruments.sol\":11494:11495  0 */\n      dup1\n        /* \"WandInstruments.sol\":11474:11490  daySinceLaunched */\n      dup3\n        /* \"WandInstruments.sol\":11474:11495  daySinceLaunched == 0 */\n      eq\n        /* \"WandInstruments.sol\":11470:11762  if (daySinceLaunched == 0) {\r... */\n      iszero\n      tag_239\n      jumpi\n        /* \"WandInstruments.sol\":11526:11548  circulatingSupplyXDays */\n      0x19\n        /* \"WandInstruments.sol\":11526:11551  circulatingSupplyXDays[0] */\n      0x00\n        /* \"WandInstruments.sol\":11549:11550  0 */\n      dup1\n        /* \"WandInstruments.sol\":11526:11551  circulatingSupplyXDays[0] */\n      dup2\n      mstore\n      0x20\n      add\n      swap1\n      dup2\n      mstore\n      0x20\n      add\n      0x00\n      keccak256\n      sload\n        /* \"WandInstruments.sol\":11508:11551  xDaysCircSupply = circulatingSupplyXDays[0] */\n      swap4\n      pop\n        /* \"WandInstruments.sol\":11470:11762  if (daySinceLaunched == 0) {\r... */\n      jump(tag_240)\n    tag_239:\n        /* \"WandInstruments.sol\":11620:11627  numdays */\n      dup3\n        /* \"WandInstruments.sol\":11601:11617  daySinceLaunched */\n      dup3\n        /* \"WandInstruments.sol\":11601:11627  daySinceLaunched - numdays */\n      tag_244\n      swap2\n      swap1\n      tag_237\n      jump\t// in\n    tag_244:\n        /* \"WandInstruments.sol\":11597:11627  d = daySinceLaunched - numdays */\n      swap1\n      pop\n        /* \"WandInstruments.sol\":11592:11751  for (d = daySinceLaunched - numdays; d < daySinceLaunched; d++) {  //for loop example\r... */\n    tag_241:\n        /* \"WandInstruments.sol\":11633:11649  daySinceLaunched */\n      dup2\n        /* \"WandInstruments.sol\":11629:11630  d */\n      dup2\n        /* \"WandInstruments.sol\":11629:11649  d < daySinceLaunched */\n      lt\n        /* \"WandInstruments.sol\":11592:11751  for (d = daySinceLaunched - numdays; d < daySinceLaunched; d++) {  //for loop example\r... */\n      iszero\n      tag_242\n      jumpi\n        /* \"WandInstruments.sol\":11710:11732  circulatingSupplyXDays */\n      0x19\n        /* \"WandInstruments.sol\":11710:11735  circulatingSupplyXDays[d] */\n      0x00\n        /* \"WandInstruments.sol\":11733:11734  d */\n      dup3\n        /* \"WandInstruments.sol\":11710:11735  circulatingSupplyXDays[d] */\n      dup2\n      mstore\n      0x20\n      add\n      swap1\n      dup2\n      mstore\n      0x20\n      add\n      0x00\n      keccak256\n      sload\n        /* \"WandInstruments.sol\":11691:11735  xDaysCircSupply += circulatingSupplyXDays[d] */\n      dup5\n      tag_245\n      swap2\n      swap1\n      tag_231\n      jump\t// in\n    tag_245:\n      swap4\n      pop\n        /* \"WandInstruments.sol\":11651:11654  d++ */\n      dup1\n      dup1\n      tag_246\n      swap1\n      tag_247\n      jump\t// in\n    tag_246:\n      swap2\n      pop\n      pop\n        /* \"WandInstruments.sol\":11592:11751  for (d = daySinceLaunched - numdays; d < daySinceLaunched; d++) {  //for loop example\r... */\n      jump(tag_241)\n    tag_242:\n        /* \"WandInstruments.sol\":11470:11762  if (daySinceLaunched == 0) {\r... */\n    tag_240:\n        /* \"WandInstruments.sol\":11779:11830  decDiv18(this.getTokensSoldXDays(),xDaysCircSupply) */\n      tag_248\n        /* \"WandInstruments.sol\":11788:11792  this */\n      address\n        /* \"WandInstruments.sol\":11788:11811  this.getTokensSoldXDays */\n      0xffffffffffffffffffffffffffffffffffffffff\n      and\n      0xd82eddf2\n        /* \"WandInstruments.sol\":11788:11813  this.getTokensSoldXDays() */\n      mload(0x40)\n      dup2\n      0xffffffff\n      and\n      0xe0\n      shl\n      dup2\n      mstore\n      0x04\n      add\n      0x20\n      mload(0x40)\n      dup1\n      dup4\n      sub\n      dup2\n      dup7\n      dup1\n      extcodesize\n      iszero\n      dup1\n      iszero\n      tag_249\n      jumpi\n      0x00\n      dup1\n      revert\n    tag_249:\n      pop\n      gas\n      staticcall\n      iszero\n      dup1\n      iszero\n      tag_251\n      jumpi\n      returndatasize\n      0x00\n      dup1\n      returndatacopy\n      revert(0x00, returndatasize)\n    tag_251:\n      pop\n      pop\n      pop\n      pop\n      mload(0x40)\n      returndatasize\n      not(0x1f)\n      0x1f\n      dup3\n      add\n      and\n      dup3\n      add\n      dup1\n      0x40\n      mstore\n      pop\n      dup2\n      add\n      swap1\n      tag_252\n      swap2\n      swap1\n      tag_225\n      jump\t// in\n    tag_252:\n        /* \"WandInstruments.sol\":11814:11829  xDaysCircSupply */\n      dup6\n        /* \"WandInstruments.sol\":11779:11787  decDiv18 */\n      tag_253\n        /* \"WandInstruments.sol\":11779:11830  decDiv18(this.getTokensSoldXDays(),xDaysCircSupply) */\n      jump\t// in\n    tag_248:\n        /* \"WandInstruments.sol\":11773:11830  _sF = decDiv18(this.getTokensSoldXDays(),xDaysCircSupply) */\n      swap5\n      pop\n        /* \"WandInstruments.sol\":11850:11868  300000000000000000 */\n      0x0429d069189e0000\n        /* \"WandInstruments.sol\":11844:11847  _sF */\n      dup6\n        /* \"WandInstruments.sol\":11844:11868  _sF > 300000000000000000 */\n      gt\n        /* \"WandInstruments.sol\":11840:11927  if (_sF > 300000000000000000)\r... */\n      iszero\n      tag_254\n      jumpi\n        /* \"WandInstruments.sol\":11898:11916  300000000000000000 */\n      0x0429d069189e0000\n        /* \"WandInstruments.sol\":11892:11916  _sF = 300000000000000000 */\n      swap5\n      pop\n        /* \"WandInstruments.sol\":11840:11927  if (_sF > 300000000000000000)\r... */\n    tag_254:\n        /* \"WandInstruments.sol\":11943:11946  _sF */\n      dup5\n        /* \"WandInstruments.sol\":11936:11946  return _sF */\n      swap6\n      pop\n      pop\n      pop\n      pop\n      pop\n      pop\n        /* \"WandInstruments.sol\":11060:11955  function getSellFactor() external view returns (uint256){\r... */\n      swap1\n      jump\t// out\n        /* \"WandInstruments.sol\":15186:15621  function getCircSupplyXDays() external view returns (uint256){\r... */\n    tag_64:\n        /* \"WandInstruments.sol\":15239:15246  uint256 */\n      0x00\n        /* \"WandInstruments.sol\":15252:15276  uint256 daySinceLaunched */\n      dup1\n        /* \"WandInstruments.sol\":15314:15319  86400 */\n      0x015180\n        /* \"WandInstruments.sol\":15298:15310  timeLaunched */\n      sload(0x0c)\n        /* \"WandInstruments.sol\":15280:15295  block.timestamp */\n      timestamp\n        /* \"WandInstruments.sol\":15280:15310  block.timestamp - timeLaunched */\n      tag_256\n      swap2\n      swap1\n      tag_237\n      jump\t// in\n    tag_256:\n        /* \"WandInstruments.sol\":15279:15319  (block.timestamp - timeLaunched) / 86400 */\n      tag_257\n      swap2\n      swap1\n      tag_235\n      jump\t// in\n    tag_257:\n        /* \"WandInstruments.sol\":15252:15319  uint256 daySinceLaunched = (block.timestamp - timeLaunched) / 86400 */\n      swap1\n      pop\n        /* \"WandInstruments.sol\":15330:15353  uint256 CircSupplyXDays */\n      0x00\n        /* \"WandInstruments.sol\":15368:15383  uint256 numdays */\n      dup1\n        /* \"WandInstruments.sol\":15404:15409  86400 */\n      0x015180\n        /* \"WandInstruments.sol\":15386:15403  daysInCalculation */\n      sload(0x0d)\n        /* \"WandInstruments.sol\":15386:15409  daysInCalculation/86400 */\n      tag_258\n      swap2\n      swap1\n      tag_235\n      jump\t// in\n    tag_258:\n        /* \"WandInstruments.sol\":15368:15409  uint256 numdays = daysInCalculation/86400 */\n      swap1\n      pop\n        /* \"WandInstruments.sol\":15420:15429  uint256 d */\n      0x00\n        /* \"WandInstruments.sol\":15478:15485  numdays */\n      dup2\n        /* \"WandInstruments.sol\":15459:15475  daySinceLaunched */\n      dup5\n        /* \"WandInstruments.sol\":15459:15485  daySinceLaunched - numdays */\n      tag_262\n      swap2\n      swap1\n      tag_237\n      jump\t// in\n    tag_262:\n        /* \"WandInstruments.sol\":15455:15485  d = daySinceLaunched - numdays */\n      swap1\n      pop\n        /* \"WandInstruments.sol\":15450:15581  for (d = daySinceLaunched - numdays; d < daySinceLaunched; d++) {\r... */\n    tag_259:\n        /* \"WandInstruments.sol\":15491:15507  daySinceLaunched */\n      dup4\n        /* \"WandInstruments.sol\":15487:15488  d */\n      dup2\n        /* \"WandInstruments.sol\":15487:15507  d < daySinceLaunched */\n      lt\n        /* \"WandInstruments.sol\":15450:15581  for (d = daySinceLaunched - numdays; d < daySinceLaunched; d++) {\r... */\n      iszero\n      tag_260\n      jumpi\n        /* \"WandInstruments.sol\":15544:15566  circulatingSupplyXDays */\n      0x19\n        /* \"WandInstruments.sol\":15544:15569  circulatingSupplyXDays[d] */\n      0x00\n        /* \"WandInstruments.sol\":15567:15568  d */\n      dup3\n        /* \"WandInstruments.sol\":15544:15569  circulatingSupplyXDays[d] */\n      dup2\n      mstore\n      0x20\n      add\n      swap1\n      dup2\n      mstore\n      0x20\n      add\n      0x00\n      keccak256\n      sload\n        /* \"WandInstruments.sol\":15525:15569  CircSupplyXDays += circulatingSupplyXDays[d] */\n      dup4\n      tag_263\n      swap2\n      swap1\n      tag_231\n      jump\t// in\n    tag_263:\n      swap3\n      pop\n        /* \"WandInstruments.sol\":15509:15512  d++ */\n      dup1\n      dup1\n      tag_264\n      swap1\n      tag_247\n      jump\t// in\n    tag_264:\n      swap2\n      pop\n      pop\n        /* \"WandInstruments.sol\":15450:15581  for (d = daySinceLaunched - numdays; d < daySinceLaunched; d++) {\r... */\n      jump(tag_259)\n    tag_260:\n        /* \"WandInstruments.sol\":15598:15613  CircSupplyXDays */\n      dup3\n        /* \"WandInstruments.sol\":15591:15613  return CircSupplyXDays */\n      swap5\n      pop\n      pop\n      pop\n      pop\n      pop\n        /* \"WandInstruments.sol\":15186:15621  function getCircSupplyXDays() external view returns (uint256){\r... */\n      swap1\n      jump\t// out\n        /* \"WandInstruments.sol\":2058:2118  mapping(address => lockedamounts) public withheldWithdrawals */\n    tag_70:\n      mstore(0x20, 0x1b)\n      dup1\n      0x00\n      mstore\n      keccak256(0x00, 0x40)\n      0x00\n      swap2\n      pop\n      swap1\n      pop\n      dup1\n      0x00\n      add\n      sload\n      swap1\n      dup1\n      0x01\n      add\n      sload\n      swap1\n      pop\n      dup3\n      jump\t// out\n        /* \"WandInstruments.sol\":1641:1691  mapping(uint256 => uint256) public tokensSoldXDays */\n    tag_77:\n      mstore(0x20, 0x18)\n      dup1\n      0x00\n      mstore\n      keccak256(0x00, 0x40)\n      0x00\n      swap2\n      pop\n      swap1\n      pop\n      sload\n      dup2\n      jump\t// out\n        /* \"WandInstruments.sol\":13744:14246  function testUpdatetimeLockedminus(uint256 amt) public  {\r... */\n    tag_82:\n        /* \"WandInstruments.sol\":13825:13844  withheldWithdrawals */\n      0x1b\n        /* \"WandInstruments.sol\":13825:13856  withheldWithdrawals[msg.sender] */\n      0x00\n        /* \"WandInstruments.sol\":13845:13855  msg.sender */\n      caller\n        /* \"WandInstruments.sol\":13825:13856  withheldWithdrawals[msg.sender] */\n      0xffffffffffffffffffffffffffffffffffffffff\n      and\n      0xffffffffffffffffffffffffffffffffffffffff\n      and\n      dup2\n      mstore\n      0x20\n      add\n      swap1\n      dup2\n      mstore\n      0x20\n      add\n      0x00\n      keccak256\n        /* \"WandInstruments.sol\":13825:13864  withheldWithdrawals[msg.sender].amounts */\n      0x01\n      add\n      sload\n        /* \"WandInstruments.sol\":13819:13822  amt */\n      dup2\n        /* \"WandInstruments.sol\":13819:13864  amt < withheldWithdrawals[msg.sender].amounts */\n      lt\n        /* \"WandInstruments.sol\":13811:13905  require(amt < withheldWithdrawals[msg.sender].amounts, \"You dont have that much to withdraw!\") */\n      tag_266\n      jumpi\n      mload(0x40)\n      0x08c379a000000000000000000000000000000000000000000000000000000000\n      dup2\n      mstore\n      0x04\n      add\n      tag_267\n      swap1\n      tag_268\n      jump\t// in\n    tag_267:\n      mload(0x40)\n      dup1\n      swap2\n      sub\n      swap1\n      revert\n    tag_266:\n        /* \"WandInstruments.sol\":14110:14113  amt */\n      dup1\n        /* \"WandInstruments.sol\":14067:14086  withheldWithdrawals */\n      0x1b\n        /* \"WandInstruments.sol\":14067:14098  withheldWithdrawals[msg.sender] */\n      0x00\n        /* \"WandInstruments.sol\":14087:14097  msg.sender */\n      caller\n        /* \"WandInstruments.sol\":14067:14098  withheldWithdrawals[msg.sender] */\n      0xffffffffffffffffffffffffffffffffffffffff\n      and\n      0xffffffffffffffffffffffffffffffffffffffff\n      and\n      dup2\n      mstore\n      0x20\n      add\n      swap1\n      dup2\n      mstore\n      0x20\n      add\n      0x00\n      keccak256\n        /* \"WandInstruments.sol\":14067:14106  withheldWithdrawals[msg.sender].amounts */\n      0x01\n      add\n      0x00\n        /* \"WandInstruments.sol\":14067:14113  withheldWithdrawals[msg.sender].amounts -= amt */\n      dup3\n      dup3\n      sload\n      tag_269\n      swap2\n      swap1\n      tag_237\n      jump\t// in\n    tag_269:\n      swap3\n      pop\n      pop\n      dup2\n      swap1\n      sstore\n      pop\n        /* \"WandInstruments.sol\":14170:14171  0 */\n      0x00\n        /* \"WandInstruments.sol\":14128:14147  withheldWithdrawals */\n      0x1b\n        /* \"WandInstruments.sol\":14128:14159  withheldWithdrawals[msg.sender] */\n      0x00\n        /* \"WandInstruments.sol\":14148:14158  msg.sender */\n      caller\n        /* \"WandInstruments.sol\":14128:14159  withheldWithdrawals[msg.sender] */\n      0xffffffffffffffffffffffffffffffffffffffff\n      and\n      0xffffffffffffffffffffffffffffffffffffffff\n      and\n      dup2\n      mstore\n      0x20\n      add\n      swap1\n      dup2\n      mstore\n      0x20\n      add\n      0x00\n      keccak256\n        /* \"WandInstruments.sol\":14128:14167  withheldWithdrawals[msg.sender].amounts */\n      0x01\n      add\n      sload\n        /* \"WandInstruments.sol\":14128:14171  withheldWithdrawals[msg.sender].amounts ==0 */\n      eq\n        /* \"WandInstruments.sol\":14124:14239  if (withheldWithdrawals[msg.sender].amounts ==0 ){\r... */\n      iszero\n      tag_270\n      jumpi\n        /* \"WandInstruments.sol\":14195:14214  withheldWithdrawals */\n      0x1b\n        /* \"WandInstruments.sol\":14195:14226  withheldWithdrawals[msg.sender] */\n      0x00\n        /* \"WandInstruments.sol\":14215:14225  msg.sender */\n      caller\n        /* \"WandInstruments.sol\":14195:14226  withheldWithdrawals[msg.sender] */\n      0xffffffffffffffffffffffffffffffffffffffff\n      and\n      0xffffffffffffffffffffffffffffffffffffffff\n      and\n      dup2\n      mstore\n      0x20\n      add\n      swap1\n      dup2\n      mstore\n      0x20\n      add\n      0x00\n      keccak256\n      0x00\n        /* \"WandInstruments.sol\":14188:14227  delete(withheldWithdrawals[msg.sender]) */\n      dup1\n      dup3\n      add\n      0x00\n      swap1\n      sstore\n      0x01\n      dup3\n      add\n      0x00\n      swap1\n      sstore\n      pop\n      pop\n        /* \"WandInstruments.sol\":14124:14239  if (withheldWithdrawals[msg.sender].amounts ==0 ){\r... */\n    tag_270:\n        /* \"WandInstruments.sol\":13744:14246  function testUpdatetimeLockedminus(uint256 amt) public  {\r... */\n      pop\n      jump\t// out\n        /* \"WandInstruments.sol\":1698:1755  mapping(uint256 => uint256) public circulatingSupplyXDays */\n    tag_86:\n      mstore(0x20, 0x19)\n      dup1\n      0x00\n      mstore\n      keccak256(0x00, 0x40)\n      0x00\n      swap2\n      pop\n      swap1\n      pop\n      sload\n      dup2\n      jump\t// out\n        /* \"WandInstruments.sol\":7594:8341  function transformScepterToBaton(uint256 amountSCPtoSwap) public payable{\r... */\n    tag_90:\n        /* \"WandInstruments.sol\":7738:7764  uint256 trader_tsc_balance */\n      0x00\n        /* \"WandInstruments.sol\":7767:7771  SPTR */\n      0x13\n      0x00\n      swap1\n      sload\n      swap1\n      0x0100\n      exp\n      swap1\n      div\n      0xffffffffffffffffffffffffffffffffffffffff\n      and\n        /* \"WandInstruments.sol\":7767:7781  SPTR.balanceOf */\n      0xffffffffffffffffffffffffffffffffffffffff\n      and\n      0x70a08231\n        /* \"WandInstruments.sol\":7782:7792  msg.sender */\n      caller\n        /* \"WandInstruments.sol\":7767:7793  SPTR.balanceOf(msg.sender) */\n      mload(0x40)\n      dup3\n      0xffffffff\n      and\n      0xe0\n      shl\n      dup2\n      mstore\n      0x04\n      add\n      tag_272\n      swap2\n      swap1\n      tag_57\n      jump\t// in\n    tag_272:\n      0x20\n      mload(0x40)\n      dup1\n      dup4\n      sub\n      dup2\n      dup7\n      dup1\n      extcodesize\n      iszero\n      dup1\n      iszero\n      tag_273\n      jumpi\n      0x00\n      dup1\n      revert\n    tag_273:\n      pop\n      gas\n      staticcall\n      iszero\n      dup1\n      iszero\n      tag_275\n      jumpi\n      returndatasize\n      0x00\n      dup1\n      returndatacopy\n      revert(0x00, returndatasize)\n    tag_275:\n      pop\n      pop\n      pop\n      pop\n      mload(0x40)\n      returndatasize\n      not(0x1f)\n      0x1f\n      dup3\n      add\n      and\n      dup3\n      add\n      dup1\n      0x40\n      mstore\n      pop\n      dup2\n      add\n      swap1\n      tag_276\n      swap2\n      swap1\n      tag_225\n      jump\t// in\n    tag_276:\n        /* \"WandInstruments.sol\":7738:7793  uint256 trader_tsc_balance = SPTR.balanceOf(msg.sender) */\n      swap1\n      pop\n        /* \"WandInstruments.sol\":7833:7848  amountSCPtoSwap */\n      dup2\n        /* \"WandInstruments.sol\":7812:7830  trader_tsc_balance */\n      dup2\n        /* \"WandInstruments.sol\":7812:7848  trader_tsc_balance > amountSCPtoSwap */\n      gt\n        /* \"WandInstruments.sol\":7804:7879  require(trader_tsc_balance > amountSCPtoSwap, \"You dont have that amount!\") */\n      tag_277\n      jumpi\n      mload(0x40)\n      0x08c379a000000000000000000000000000000000000000000000000000000000\n      dup2\n      mstore\n      0x04\n      add\n      tag_278\n      swap1\n      tag_279\n      jump\t// in\n    tag_278:\n      mload(0x40)\n      dup1\n      swap2\n      sub\n      swap1\n      revert\n    tag_277:\n        /* \"WandInstruments.sol\":7933:8000  _safeTransferFrom(SPTR, msg.sender, address(this), amountSCPtoSwap) */\n      tag_280\n        /* \"WandInstruments.sol\":7951:7955  SPTR */\n      0x13\n      0x00\n      swap1\n      sload\n      swap1\n      0x0100\n      exp\n      swap1\n      div\n      0xffffffffffffffffffffffffffffffffffffffff\n      and\n        /* \"WandInstruments.sol\":7957:7967  msg.sender */\n      caller\n        /* \"WandInstruments.sol\":7977:7981  this */\n      address\n        /* \"WandInstruments.sol\":7984:7999  amountSCPtoSwap */\n      dup6\n        /* \"WandInstruments.sol\":7933:7950  _safeTransferFrom */\n      tag_281\n        /* \"WandInstruments.sol\":7933:8000  _safeTransferFrom(SPTR, msg.sender, address(this), amountSCPtoSwap) */\n      jump\t// in\n    tag_280:\n        /* \"WandInstruments.sol\":8061:8077  uint256 dInArray */\n      0x00\n        /* \"WandInstruments.sol\":8111:8116  86400 */\n      0x015180\n        /* \"WandInstruments.sol\":8097:8109  timeLaunched */\n      sload(0x0c)\n        /* \"WandInstruments.sol\":8080:8095  block.timestamp */\n      timestamp\n        /* \"WandInstruments.sol\":8080:8109  block.timestamp- timeLaunched */\n      tag_282\n      swap2\n      swap1\n      tag_237\n      jump\t// in\n    tag_282:\n        /* \"WandInstruments.sol\":8079:8116  (block.timestamp- timeLaunched)/86400 */\n      tag_283\n      swap2\n      swap1\n      tag_235\n      jump\t// in\n    tag_283:\n        /* \"WandInstruments.sol\":8061:8116  uint256 dInArray =(block.timestamp- timeLaunched)/86400 */\n      swap1\n      pop\n        /* \"WandInstruments.sol\":8157:8172  amountSCPtoSwap */\n      dup3\n        /* \"WandInstruments.sol\":8128:8143  tokensSoldXDays */\n      0x18\n        /* \"WandInstruments.sol\":8128:8153  tokensSoldXDays[dInArray] */\n      0x00\n        /* \"WandInstruments.sol\":8144:8152  dInArray */\n      dup4\n        /* \"WandInstruments.sol\":8128:8153  tokensSoldXDays[dInArray] */\n      dup2\n      mstore\n      0x20\n      add\n      swap1\n      dup2\n      mstore\n      0x20\n      add\n      0x00\n      keccak256\n      0x00\n        /* \"WandInstruments.sol\":8128:8172  tokensSoldXDays[dInArray] += amountSCPtoSwap */\n      dup3\n      dup3\n      sload\n      tag_284\n      swap2\n      swap1\n      tag_231\n      jump\t// in\n    tag_284:\n      swap3\n      pop\n      pop\n      dup2\n      swap1\n      sstore\n      pop\n        /* \"WandInstruments.sol\":8219:8234  amountSCPtoSwap */\n      dup3\n        /* \"WandInstruments.sol\":8183:8205  circulatingSupplyXDays */\n      0x19\n        /* \"WandInstruments.sol\":8183:8215  circulatingSupplyXDays[dInArray] */\n      0x00\n        /* \"WandInstruments.sol\":8206:8214  dInArray */\n      dup4\n        /* \"WandInstruments.sol\":8183:8215  circulatingSupplyXDays[dInArray] */\n      dup2\n      mstore\n      0x20\n      add\n      swap1\n      dup2\n      mstore\n      0x20\n      add\n      0x00\n      keccak256\n      0x00\n        /* \"WandInstruments.sol\":8183:8234  circulatingSupplyXDays[dInArray] -= amountSCPtoSwap */\n      dup3\n      dup3\n      sload\n      tag_285\n      swap2\n      swap1\n      tag_237\n      jump\t// in\n    tag_285:\n      swap3\n      pop\n      pop\n      dup2\n      swap1\n      sstore\n      pop\n        /* \"WandInstruments.sol\":7666:8341  {\r... */\n      pop\n      pop\n        /* \"WandInstruments.sol\":7594:8341  function transformScepterToBaton(uint256 amountSCPtoSwap) public payable{\r... */\n      pop\n      jump\t// out\n        /* \"WandInstruments.sol\":11961:12181  function getBackingPrice() external view returns (uint256){\r... */\n    tag_93:\n        /* \"WandInstruments.sol\":12011:12018  uint256 */\n      0x00\n        /* \"WandInstruments.sol\":12118:12173  decDiv18(sptrTreasuryBal * DECIMALS,SPTR.totalSupply()) */\n      tag_287\n        /* \"WandInstruments.sol\":362:368  10**18 */\n      0x0de0b6b3a7640000\n        /* \"WandInstruments.sol\":12127:12142  sptrTreasuryBal */\n      sload(0x0b)\n        /* \"WandInstruments.sol\":12127:12153  sptrTreasuryBal * DECIMALS */\n      tag_288\n      swap2\n      swap1\n      tag_289\n      jump\t// in\n    tag_288:\n        /* \"WandInstruments.sol\":12154:12158  SPTR */\n      0x13\n      0x00\n      swap1\n      sload\n      swap1\n      0x0100\n      exp\n      swap1\n      div\n      0xffffffffffffffffffffffffffffffffffffffff\n      and\n        /* \"WandInstruments.sol\":12154:12170  SPTR.totalSupply */\n      0xffffffffffffffffffffffffffffffffffffffff\n      and\n      0x18160ddd\n        /* \"WandInstruments.sol\":12154:12172  SPTR.totalSupply() */\n      mload(0x40)\n      dup2\n      0xffffffff\n      and\n      0xe0\n      shl\n      dup2\n      mstore\n      0x04\n      add\n      0x20\n      mload(0x40)\n      dup1\n      dup4\n      sub\n      dup2\n      dup7\n      dup1\n      extcodesize\n      iszero\n      dup1\n      iszero\n      tag_290\n      jumpi\n      0x00\n      dup1\n      revert\n    tag_290:\n      pop\n      gas\n      staticcall\n      iszero\n      dup1\n      iszero\n      tag_292\n      jumpi\n      returndatasize\n      0x00\n      dup1\n      returndatacopy\n      revert(0x00, returndatasize)\n    tag_292:\n      pop\n      pop\n      pop\n      pop\n      mload(0x40)\n      returndatasize\n      not(0x1f)\n      0x1f\n      dup3\n      add\n      and\n      dup3\n      add\n      dup1\n      0x40\n      mstore\n      pop\n      dup2\n      add\n      swap1\n      tag_293\n      swap2\n      swap1\n      tag_225\n      jump\t// in\n    tag_293:\n        /* \"WandInstruments.sol\":12118:12126  decDiv18 */\n      tag_253\n        /* \"WandInstruments.sol\":12118:12173  decDiv18(sptrTreasuryBal * DECIMALS,SPTR.totalSupply()) */\n      jump\t// in\n    tag_287:\n        /* \"WandInstruments.sol\":12111:12173  return decDiv18(sptrTreasuryBal * DECIMALS,SPTR.totalSupply()) */\n      swap1\n      pop\n        /* \"WandInstruments.sol\":11961:12181  function getBackingPrice() external view returns (uint256){\r... */\n      swap1\n      jump\t// out\n        /* \"WandInstruments.sol\":1422:1440  IERC20 public SPTR */\n    tag_97:\n      0x13\n      0x00\n      swap1\n      sload\n      swap1\n      0x0100\n      exp\n      swap1\n      div\n      0xffffffffffffffffffffffffffffffffffffffff\n      and\n      dup2\n      jump\t// out\n        /* \"WandInstruments.sol\":739:767  address public devWalletAddr */\n    tag_102:\n      0x0a\n      0x00\n      swap1\n      sload\n      swap1\n      0x0100\n      exp\n      swap1\n      div\n      0xffffffffffffffffffffffffffffffffffffffff\n      and\n      dup2\n      jump\t// out\n        /* \"WandInstruments.sol\":1582:1634  mapping(uint256 => uint256) public tokensBoughtXDays */\n    tag_107:\n      mstore(0x20, 0x17)\n      dup1\n      0x00\n      mstore\n      keccak256(0x00, 0x40)\n      0x00\n      swap2\n      pop\n      swap1\n      pop\n      sload\n      dup2\n      jump\t// out\n        /* \"WandInstruments.sol\":13176:13252  function withdrawStables(uint256 _amtToWithdraw) public onlyOwner {\r... */\n    tag_112:\n      pop\n      jump\t// out\n        /* \"WandInstruments.sol\":867:894  uint256 public timeLaunched */\n    tag_115:\n      sload(0x0c)\n      dup2\n      jump\t// out\n        /* \"WandInstruments.sol\":12467:12740  function getSellPrice() external view returns (uint256){\r... */\n    tag_119:\n        /* \"WandInstruments.sol\":12514:12521  uint256 */\n      0x00\n        /* \"WandInstruments.sol\":12654:12732  decMul18(this.getBackingPrice() , (900000000000000000 - this.getSellFactor())) */\n      tag_297\n        /* \"WandInstruments.sol\":12663:12667  this */\n      address\n        /* \"WandInstruments.sol\":12663:12683  this.getBackingPrice */\n      0xffffffffffffffffffffffffffffffffffffffff\n      and\n      0x1f564a06\n        /* \"WandInstruments.sol\":12663:12685  this.getBackingPrice() */\n      mload(0x40)\n      dup2\n      0xffffffff\n      and\n      0xe0\n      shl\n      dup2\n      mstore\n      0x04\n      add\n      0x20\n      mload(0x40)\n      dup1\n      dup4\n      sub\n      dup2\n      dup7\n      dup1\n      extcodesize\n      iszero\n      dup1\n      iszero\n      tag_298\n      jumpi\n      0x00\n      dup1\n      revert\n    tag_298:\n      pop\n      gas\n      staticcall\n      iszero\n      dup1\n      iszero\n      tag_300\n      jumpi\n      returndatasize\n      0x00\n      dup1\n      returndatacopy\n      revert(0x00, returndatasize)\n    tag_300:\n      pop\n      pop\n      pop\n      pop\n      mload(0x40)\n      returndatasize\n      not(0x1f)\n      0x1f\n      dup3\n      add\n      and\n      dup3\n      add\n      dup1\n      0x40\n      mstore\n      pop\n      dup2\n      add\n      swap1\n      tag_301\n      swap2\n      swap1\n      tag_225\n      jump\t// in\n    tag_301:\n        /* \"WandInstruments.sol\":12710:12714  this */\n      address\n        /* \"WandInstruments.sol\":12710:12728  this.getSellFactor */\n      0xffffffffffffffffffffffffffffffffffffffff\n      and\n      0x0ccaf04f\n        /* \"WandInstruments.sol\":12710:12730  this.getSellFactor() */\n      mload(0x40)\n      dup2\n      0xffffffff\n      and\n      0xe0\n      shl\n      dup2\n      mstore\n      0x04\n      add\n      0x20\n      mload(0x40)\n      dup1\n      dup4\n      sub\n      dup2\n      dup7\n      dup1\n      extcodesize\n      iszero\n      dup1\n      iszero\n      tag_302\n      jumpi\n      0x00\n      dup1\n      revert\n    tag_302:\n      pop\n      gas\n      staticcall\n      iszero\n      dup1\n      iszero\n      tag_304\n      jumpi\n      returndatasize\n      0x00\n      dup1\n      returndatacopy\n      revert(0x00, returndatasize)\n    tag_304:\n      pop\n      pop\n      pop\n      pop\n      mload(0x40)\n      returndatasize\n      not(0x1f)\n      0x1f\n      dup3\n      add\n      and\n      dup3\n      add\n      dup1\n      0x40\n      mstore\n      pop\n      dup2\n      add\n      swap1\n      tag_305\n      swap2\n      swap1\n      tag_225\n      jump\t// in\n    tag_305:\n        /* \"WandInstruments.sol\":12689:12707  900000000000000000 */\n      0x0c7d713b49da0000\n        /* \"WandInstruments.sol\":12689:12730  900000000000000000 - this.getSellFactor() */\n      tag_306\n      swap2\n      swap1\n      tag_237\n      jump\t// in\n    tag_306:\n        /* \"WandInstruments.sol\":12654:12662  decMul18 */\n      tag_232\n        /* \"WandInstruments.sol\":12654:12732  decMul18(this.getBackingPrice() , (900000000000000000 - this.getSellFactor())) */\n      jump\t// in\n    tag_297:\n        /* \"WandInstruments.sol\":12647:12732  return decMul18(this.getBackingPrice() , (900000000000000000 - this.getSellFactor())) */\n      swap1\n      pop\n        /* \"WandInstruments.sol\":12467:12740  function getSellPrice() external view returns (uint256){\r... */\n      swap1\n      jump\t// out\n        /* \"WandInstruments.sol\":808:838  uint256 public sptrTreasuryBal */\n    tag_123:\n      sload(0x0b)\n      dup2\n      jump\t// out\n        /* \"WandInstruments.sol\":901:933  uint256 public daysInCalculation */\n    tag_127:\n      sload(0x0d)\n      dup2\n      jump\t// out\n        /* \"WandInstruments.sol\":13260:13732  function testUpdatetimeLockedplus(uint256 amt) public  {\r... */\n    tag_132:\n        /* \"WandInstruments.sol\":13655:13661  864000 */\n      0x0d2f00\n        /* \"WandInstruments.sol\":13637:13652  block.timestamp */\n      timestamp\n        /* \"WandInstruments.sol\":13637:13661  block.timestamp + 864000 */\n      tag_308\n      swap2\n      swap1\n      tag_231\n      jump\t// in\n    tag_308:\n        /* \"WandInstruments.sol\":13590:13609  withheldWithdrawals */\n      0x1b\n        /* \"WandInstruments.sol\":13590:13621  withheldWithdrawals[msg.sender] */\n      0x00\n        /* \"WandInstruments.sol\":13610:13620  msg.sender */\n      caller\n        /* \"WandInstruments.sol\":13590:13621  withheldWithdrawals[msg.sender] */\n      0xffffffffffffffffffffffffffffffffffffffff\n      and\n      0xffffffffffffffffffffffffffffffffffffffff\n      and\n      dup2\n      mstore\n      0x20\n      add\n      swap1\n      dup2\n      mstore\n      0x20\n      add\n      0x00\n      keccak256\n        /* \"WandInstruments.sol\":13590:13634  withheldWithdrawals[msg.sender].timeUnlocked */\n      0x00\n      add\n        /* \"WandInstruments.sol\":13590:13661  withheldWithdrawals[msg.sender].timeUnlocked = block.timestamp + 864000 */\n      dup2\n      swap1\n      sstore\n      pop\n        /* \"WandInstruments.sol\":13715:13718  amt */\n      dup1\n        /* \"WandInstruments.sol\":13672:13691  withheldWithdrawals */\n      0x1b\n        /* \"WandInstruments.sol\":13672:13703  withheldWithdrawals[msg.sender] */\n      0x00\n        /* \"WandInstruments.sol\":13692:13702  msg.sender */\n      caller\n        /* \"WandInstruments.sol\":13672:13703  withheldWithdrawals[msg.sender] */\n      0xffffffffffffffffffffffffffffffffffffffff\n      and\n      0xffffffffffffffffffffffffffffffffffffffff\n      and\n      dup2\n      mstore\n      0x20\n      add\n      swap1\n      dup2\n      mstore\n      0x20\n      add\n      0x00\n      keccak256\n        /* \"WandInstruments.sol\":13672:13711  withheldWithdrawals[msg.sender].amounts */\n      0x01\n      add\n      0x00\n        /* \"WandInstruments.sol\":13672:13718  withheldWithdrawals[msg.sender].amounts += amt */\n      dup3\n      dup3\n      sload\n      tag_309\n      swap2\n      swap1\n      tag_231\n      jump\t// in\n    tag_309:\n      swap3\n      pop\n      pop\n      dup2\n      swap1\n      sstore\n      pop\n        /* \"WandInstruments.sol\":13260:13732  function testUpdatetimeLockedplus(uint256 amt) public  {\r... */\n      pop\n      jump\t// out\n        /* \"WandInstruments.sol\":1152:1169  int128 public res */\n    tag_135:\n      0x11\n      0x00\n      swap1\n      sload\n      swap1\n      0x0100\n      exp\n      swap1\n      div\n      0x0f\n      signextend\n      dup2\n      jump\t// out\n        /* \"WandInstruments.sol\":1499:1524  IERC20 public tokenStable */\n    tag_140:\n      0x16\n      0x00\n      swap1\n      sload\n      swap1\n      0x0100\n      exp\n      swap1\n      div\n      0xffffffffffffffffffffffffffffffffffffffff\n      and\n      dup2\n      jump\t// out\n        /* \"WandInstruments.sol\":14360:14888  function getTokensBoughtXDays() external view returns (uint256){\r... */\n    tag_144:\n        /* \"WandInstruments.sol\":14415:14422  uint256 */\n      0x00\n        /* \"WandInstruments.sol\":14434:14451  uint256 boughtnum */\n      dup1\n        /* \"WandInstruments.sol\":14462:14471  uint256 d */\n      0x00\n        /* \"WandInstruments.sol\":14482:14497  uint256 numdays */\n      dup1\n        /* \"WandInstruments.sol\":14518:14523  86400 */\n      0x015180\n        /* \"WandInstruments.sol\":14500:14517  daysInCalculation */\n      sload(0x0d)\n        /* \"WandInstruments.sol\":14500:14523  daysInCalculation/86400 */\n      tag_311\n      swap2\n      swap1\n      tag_235\n      jump\t// in\n    tag_311:\n        /* \"WandInstruments.sol\":14482:14523  uint256 numdays = daysInCalculation/86400 */\n      swap1\n      pop\n        /* \"WandInstruments.sol\":14534:14558  uint256 daySinceLaunched */\n      0x00\n        /* \"WandInstruments.sol\":14596:14601  86400 */\n      0x015180\n        /* \"WandInstruments.sol\":14580:14592  timeLaunched */\n      sload(0x0c)\n        /* \"WandInstruments.sol\":14562:14577  block.timestamp */\n      timestamp\n        /* \"WandInstruments.sol\":14562:14592  block.timestamp - timeLaunched */\n      tag_312\n      swap2\n      swap1\n      tag_237\n      jump\t// in\n    tag_312:\n        /* \"WandInstruments.sol\":14561:14601  (block.timestamp - timeLaunched) / 86400 */\n      tag_313\n      swap2\n      swap1\n      tag_235\n      jump\t// in\n    tag_313:\n        /* \"WandInstruments.sol\":14534:14601  uint256 daySinceLaunched = (block.timestamp - timeLaunched) / 86400 */\n      swap1\n      pop\n        /* \"WandInstruments.sol\":14636:14637  0 */\n      0x00\n        /* \"WandInstruments.sol\":14616:14632  daySinceLaunched */\n      dup2\n        /* \"WandInstruments.sol\":14616:14637  daySinceLaunched == 0 */\n      eq\n        /* \"WandInstruments.sol\":14612:14689  if (daySinceLaunched == 0) {\r... */\n      iszero\n      tag_314\n      jumpi\n        /* \"WandInstruments.sol\":14657:14674  tokensBoughtXDays */\n      0x17\n        /* \"WandInstruments.sol\":14657:14677  tokensBoughtXDays[0] */\n      0x00\n        /* \"WandInstruments.sol\":14675:14676  0 */\n      dup1\n        /* \"WandInstruments.sol\":14657:14677  tokensBoughtXDays[0] */\n      dup2\n      mstore\n      0x20\n      add\n      swap1\n      dup2\n      mstore\n      0x20\n      add\n      0x00\n      keccak256\n      sload\n        /* \"WandInstruments.sol\":14650:14677  return tokensBoughtXDays[0] */\n      swap5\n      pop\n      pop\n      pop\n      pop\n      pop\n      jump(tag_310)\n        /* \"WandInstruments.sol\":14612:14689  if (daySinceLaunched == 0) {\r... */\n    tag_314:\n        /* \"WandInstruments.sol\":14727:14734  numdays */\n      dup2\n        /* \"WandInstruments.sol\":14708:14724  daySinceLaunched */\n      dup2\n        /* \"WandInstruments.sol\":14708:14734  daySinceLaunched - numdays */\n      tag_318\n      swap2\n      swap1\n      tag_237\n      jump\t// in\n    tag_318:\n        /* \"WandInstruments.sol\":14704:14734  d = daySinceLaunched - numdays */\n      swap3\n      pop\n        /* \"WandInstruments.sol\":14699:14845  for (d = daySinceLaunched - numdays; d < daySinceLaunched; d++) {  //for loop example\r... */\n    tag_315:\n        /* \"WandInstruments.sol\":14740:14756  daySinceLaunched */\n      dup1\n        /* \"WandInstruments.sol\":14736:14737  d */\n      dup4\n        /* \"WandInstruments.sol\":14736:14756  d < daySinceLaunched */\n      lt\n        /* \"WandInstruments.sol\":14699:14845  for (d = daySinceLaunched - numdays; d < daySinceLaunched; d++) {  //for loop example\r... */\n      iszero\n      tag_316\n      jumpi\n        /* \"WandInstruments.sol\":14809:14826  tokensBoughtXDays */\n      0x17\n        /* \"WandInstruments.sol\":14809:14829  tokensBoughtXDays[d] */\n      0x00\n        /* \"WandInstruments.sol\":14827:14828  d */\n      dup5\n        /* \"WandInstruments.sol\":14809:14829  tokensBoughtXDays[d] */\n      dup2\n      mstore\n      0x20\n      add\n      swap1\n      dup2\n      mstore\n      0x20\n      add\n      0x00\n      keccak256\n      sload\n        /* \"WandInstruments.sol\":14796:14829  boughtnum += tokensBoughtXDays[d] */\n      dup5\n      tag_319\n      swap2\n      swap1\n      tag_231\n      jump\t// in\n    tag_319:\n      swap4\n      pop\n        /* \"WandInstruments.sol\":14758:14761  d++ */\n      dup3\n      dup1\n      tag_320\n      swap1\n      tag_247\n      jump\t// in\n    tag_320:\n      swap4\n      pop\n      pop\n        /* \"WandInstruments.sol\":14699:14845  for (d = daySinceLaunched - numdays; d < daySinceLaunched; d++) {  //for loop example\r... */\n      jump(tag_315)\n    tag_316:\n        /* \"WandInstruments.sol\":14871:14880  boughtnum */\n      dup4\n        /* \"WandInstruments.sol\":14864:14880  return boughtnum */\n      swap5\n      pop\n      pop\n      pop\n      pop\n      pop\n        /* \"WandInstruments.sol\":14360:14888  function getTokensBoughtXDays() external view returns (uint256){\r... */\n    tag_310:\n      swap1\n      jump\t// out\n        /* \"WandInstruments.sol\":8356:9603  function buyScepter(uint256 amountSCPtoBuy, string memory _stableChosen) public nonReentrant{\r... */\n    tag_150:\n        /* \"ReentrancyGuard.sol\":1778:1779  2 */\n      0x02\n        /* \"ReentrancyGuard.sol\":2376:2383  _status */\n      sload(0x00)\n        /* \"ReentrancyGuard.sol\":2376:2395  _status != _ENTERED */\n      eq\n      iszero\n        /* \"ReentrancyGuard.sol\":2368:2431  require(_status != _ENTERED, \"ReentrancyGuard: reentrant call\") */\n      tag_322\n      jumpi\n      mload(0x40)\n      0x08c379a000000000000000000000000000000000000000000000000000000000\n      dup2\n      mstore\n      0x04\n      add\n      tag_323\n      swap1\n      tag_324\n      jump\t// in\n    tag_323:\n      mload(0x40)\n      dup1\n      swap2\n      sub\n      swap1\n      revert\n    tag_322:\n        /* \"ReentrancyGuard.sol\":1778:1779  2 */\n      0x02\n        /* \"ReentrancyGuard.sol\":2509:2516  _status */\n      0x00\n        /* \"ReentrancyGuard.sol\":2509:2527  _status = _ENTERED */\n      dup2\n      swap1\n      sstore\n      pop\n        /* \"WandInstruments.sol\":8541:8556  stableERC20Info */\n      0x1a\n        /* \"WandInstruments.sol\":8557:8570  _stableChosen */\n      dup2\n        /* \"WandInstruments.sol\":8541:8571  stableERC20Info[_stableChosen] */\n      mload(0x40)\n      tag_326\n      swap2\n      swap1\n      tag_327\n      jump\t// in\n    tag_326:\n      swap1\n      dup2\n      mstore\n      0x20\n      add\n      mload(0x40)\n      dup1\n      swap2\n      sub\n      swap1\n      keccak256\n        /* \"WandInstruments.sol\":8541:8587  stableERC20Info[_stableChosen].contractAddress */\n      0x00\n      add\n      0x00\n      swap1\n      sload\n      swap1\n      0x0100\n      exp\n      swap1\n      div\n      0xffffffffffffffffffffffffffffffffffffffff\n      and\n        /* \"WandInstruments.sol\":8520:8531  tokenStable */\n      0x16\n      0x00\n        /* \"WandInstruments.sol\":8520:8588  tokenStable = IERC20(stableERC20Info[_stableChosen].contractAddress) */\n      0x0100\n      exp\n      dup2\n      sload\n      dup2\n      0xffffffffffffffffffffffffffffffffffffffff\n      mul\n      not\n      and\n      swap1\n      dup4\n      0xffffffffffffffffffffffffffffffffffffffff\n      and\n      mul\n      or\n      swap1\n      sstore\n      pop\n        /* \"WandInstruments.sol\":8625:8631  250000 */\n      0x03d090\n        /* \"WandInstruments.sol\":8607:8621  amountSCPtoBuy */\n      dup3\n        /* \"WandInstruments.sol\":8607:8631  amountSCPtoBuy <= 250000 */\n      gt\n      iszero\n        /* \"WandInstruments.sol\":8599:8658  require(amountSCPtoBuy <= 250000 , \"Per transaction limit\") */\n      tag_328\n      jumpi\n      mload(0x40)\n      0x08c379a000000000000000000000000000000000000000000000000000000000\n      dup2\n      mstore\n      0x04\n      add\n      tag_329\n      swap1\n      tag_330\n      jump\t// in\n    tag_329:\n      mload(0x40)\n      dup1\n      swap2\n      sub\n      swap1\n      revert\n    tag_328:\n        /* \"WandInstruments.sol\":8669:8696  uint256 trader_usdc_balance */\n      0x00\n        /* \"WandInstruments.sol\":8699:8710  tokenStable */\n      0x16\n      0x00\n      swap1\n      sload\n      swap1\n      0x0100\n      exp\n      swap1\n      div\n      0xffffffffffffffffffffffffffffffffffffffff\n      and\n        /* \"WandInstruments.sol\":8699:8720  tokenStable.balanceOf */\n      0xffffffffffffffffffffffffffffffffffffffff\n      and\n      0x70a08231\n        /* \"WandInstruments.sol\":8721:8731  msg.sender */\n      caller\n        /* \"WandInstruments.sol\":8699:8732  tokenStable.balanceOf(msg.sender) */\n      mload(0x40)\n      dup3\n      0xffffffff\n      and\n      0xe0\n      shl\n      dup2\n      mstore\n      0x04\n      add\n      tag_331\n      swap2\n      swap1\n      tag_57\n      jump\t// in\n    tag_331:\n      0x20\n      mload(0x40)\n      dup1\n      dup4\n      sub\n      dup2\n      dup7\n      dup1\n      extcodesize\n      iszero\n      dup1\n      iszero\n      tag_332\n      jumpi\n      0x00\n      dup1\n      revert\n    tag_332:\n      pop\n      gas\n      staticcall\n      iszero\n      dup1\n      iszero\n      tag_334\n      jumpi\n      returndatasize\n      0x00\n      dup1\n      returndatacopy\n      revert(0x00, returndatasize)\n    tag_334:\n      pop\n      pop\n      pop\n      pop\n      mload(0x40)\n      returndatasize\n      not(0x1f)\n      0x1f\n      dup3\n      add\n      and\n      dup3\n      add\n      dup1\n      0x40\n      mstore\n      pop\n      dup2\n      add\n      swap1\n      tag_335\n      swap2\n      swap1\n      tag_225\n      jump\t// in\n    tag_335:\n        /* \"WandInstruments.sol\":8669:8732  uint256 trader_usdc_balance = tokenStable.balanceOf(msg.sender) */\n      swap1\n      pop\n        /* \"WandInstruments.sol\":8773:8787  amountSCPtoBuy */\n      dup3\n        /* \"WandInstruments.sol\":8751:8770  trader_usdc_balance */\n      dup2\n        /* \"WandInstruments.sol\":8751:8787  trader_usdc_balance > amountSCPtoBuy */\n      gt\n        /* \"WandInstruments.sol\":8743:8818  require(trader_usdc_balance > amountSCPtoBuy, \"You dont have that amount!\") */\n      tag_336\n      jumpi\n      mload(0x40)\n      0x08c379a000000000000000000000000000000000000000000000000000000000\n      dup2\n      mstore\n      0x04\n      add\n      tag_337\n      swap1\n      tag_279\n      jump\t// in\n    tag_337:\n      mload(0x40)\n      dup1\n      swap2\n      sub\n      swap1\n      revert\n    tag_336:\n        /* \"WandInstruments.sol\":8885:8904  uint256 usdAmtToPay */\n      0x00\n        /* \"WandInstruments.sol\":8976:8991  stableERC20Info */\n      0x1a\n        /* \"WandInstruments.sol\":8992:9005  _stableChosen */\n      dup4\n        /* \"WandInstruments.sol\":8976:9006  stableERC20Info[_stableChosen] */\n      mload(0x40)\n      tag_338\n      swap2\n      swap1\n      tag_327\n      jump\t// in\n    tag_338:\n      swap1\n      dup2\n      mstore\n      0x20\n      add\n      mload(0x40)\n      dup1\n      swap2\n      sub\n      swap1\n      keccak256\n        /* \"WandInstruments.sol\":8976:9020  stableERC20Info[_stableChosen].tokenDecimals */\n      0x01\n      add\n      sload\n        /* \"WandInstruments.sol\":8929:8973  decMul18(amountSCPtoBuy, this.getBuyPrice()) */\n      tag_339\n        /* \"WandInstruments.sol\":8938:8952  amountSCPtoBuy */\n      dup6\n        /* \"WandInstruments.sol\":8954:8958  this */\n      address\n        /* \"WandInstruments.sol\":8954:8970  this.getBuyPrice */\n      0xffffffffffffffffffffffffffffffffffffffff\n      and\n      0x018a25e8\n        /* \"WandInstruments.sol\":8954:8972  this.getBuyPrice() */\n      mload(0x40)\n      dup2\n      0xffffffff\n      and\n      0xe0\n      shl\n      dup2\n      mstore\n      0x04\n      add\n      0x20\n      mload(0x40)\n      dup1\n      dup4\n      sub\n      dup2\n      dup7\n      dup1\n      extcodesize\n      iszero\n      dup1\n      iszero\n      tag_340\n      jumpi\n      0x00\n      dup1\n      revert\n    tag_340:\n      pop\n      gas\n      staticcall\n      iszero\n      dup1\n      iszero\n      tag_342\n      jumpi\n      returndatasize\n      0x00\n      dup1\n      returndatacopy\n      revert(0x00, returndatasize)\n    tag_342:\n      pop\n      pop\n      pop\n      pop\n      mload(0x40)\n      returndatasize\n      not(0x1f)\n      0x1f\n      dup3\n      add\n      and\n      dup3\n      add\n      dup1\n      0x40\n      mstore\n      pop\n      dup2\n      add\n      swap1\n      tag_343\n      swap2\n      swap1\n      tag_225\n      jump\t// in\n    tag_343:\n        /* \"WandInstruments.sol\":8929:8937  decMul18 */\n      tag_232\n        /* \"WandInstruments.sol\":8929:8973  decMul18(amountSCPtoBuy, this.getBuyPrice()) */\n      jump\t// in\n    tag_339:\n        /* \"WandInstruments.sol\":8929:9020  decMul18(amountSCPtoBuy, this.getBuyPrice()) * stableERC20Info[_stableChosen].tokenDecimals */\n      tag_344\n      swap2\n      swap1\n      tag_289\n      jump\t// in\n    tag_344:\n        /* \"WandInstruments.sol\":8915:9020  usdAmtToPay = decMul18(amountSCPtoBuy, this.getBuyPrice()) * stableERC20Info[_stableChosen].tokenDecimals */\n      swap1\n      pop\n        /* \"WandInstruments.sol\":9076:9146  _safeTransferFrom(tokenStable, msg.sender, address(this), usdAmtToPay) */\n      tag_345\n        /* \"WandInstruments.sol\":9094:9105  tokenStable */\n      0x16\n      0x00\n      swap1\n      sload\n      swap1\n      0x0100\n      exp\n      swap1\n      div\n      0xffffffffffffffffffffffffffffffffffffffff\n      and\n        /* \"WandInstruments.sol\":9107:9117  msg.sender */\n      caller\n        /* \"WandInstruments.sol\":9127:9131  this */\n      address\n        /* \"WandInstruments.sol\":9134:9145  usdAmtToPay */\n      dup5\n        /* \"WandInstruments.sol\":9076:9093  _safeTransferFrom */\n      tag_281\n        /* \"WandInstruments.sol\":9076:9146  _safeTransferFrom(tokenStable, msg.sender, address(this), usdAmtToPay) */\n      jump\t// in\n    tag_345:\n        /* \"WandInstruments.sol\":9165:9169  SPTR */\n      0x13\n      0x00\n      swap1\n      sload\n      swap1\n      0x0100\n      exp\n      swap1\n      div\n      0xffffffffffffffffffffffffffffffffffffffff\n      and\n        /* \"WandInstruments.sol\":9165:9174  SPTR.mint */\n      0xffffffffffffffffffffffffffffffffffffffff\n      and\n      0x40c10f19\n        /* \"WandInstruments.sol\":9175:9185  msg.sender */\n      caller\n        /* \"WandInstruments.sol\":362:368  10**18 */\n      0x0de0b6b3a7640000\n        /* \"WandInstruments.sol\":9186:9200  amountSCPtoBuy */\n      dup8\n        /* \"WandInstruments.sol\":9186:9211  amountSCPtoBuy * DECIMALS */\n      tag_346\n      swap2\n      swap1\n      tag_289\n      jump\t// in\n    tag_346:\n        /* \"WandInstruments.sol\":9165:9212  SPTR.mint(msg.sender,amountSCPtoBuy * DECIMALS) */\n      mload(0x40)\n      dup4\n      0xffffffff\n      and\n      0xe0\n      shl\n      dup2\n      mstore\n      0x04\n      add\n      tag_347\n      swap3\n      swap2\n      swap1\n      tag_165\n      jump\t// in\n    tag_347:\n      0x00\n      mload(0x40)\n      dup1\n      dup4\n      sub\n      dup2\n      0x00\n      dup8\n      dup1\n      extcodesize\n      iszero\n      dup1\n      iszero\n      tag_348\n      jumpi\n      0x00\n      dup1\n      revert\n    tag_348:\n      pop\n      gas\n      call\n      iszero\n      dup1\n      iszero\n      tag_350\n      jumpi\n      returndatasize\n      0x00\n      dup1\n      returndatacopy\n      revert(0x00, returndatasize)\n    tag_350:\n      pop\n      pop\n      pop\n      pop\n        /* \"WandInstruments.sol\":9223:9227  WAND */\n      0x14\n      0x00\n      swap1\n      sload\n      swap1\n      0x0100\n      exp\n      swap1\n      div\n      0xffffffffffffffffffffffffffffffffffffffff\n      and\n        /* \"WandInstruments.sol\":9223:9232  WAND.mint */\n      0xffffffffffffffffffffffffffffffffffffffff\n      and\n      0x40c10f19\n        /* \"WandInstruments.sol\":9241:9245  this */\n      address\n        /* \"WandInstruments.sol\":362:368  10**18 */\n      0x0de0b6b3a7640000\n        /* \"WandInstruments.sol\":9247:9261  amountSCPtoBuy */\n      dup8\n        /* \"WandInstruments.sol\":9247:9272  amountSCPtoBuy * DECIMALS */\n      tag_351\n      swap2\n      swap1\n      tag_289\n      jump\t// in\n    tag_351:\n        /* \"WandInstruments.sol\":9223:9273  WAND.mint(address(this),amountSCPtoBuy * DECIMALS) */\n      mload(0x40)\n      dup4\n      0xffffffff\n      and\n      0xe0\n      shl\n      dup2\n      mstore\n      0x04\n      add\n      tag_352\n      swap3\n      swap2\n      swap1\n      tag_165\n      jump\t// in\n    tag_352:\n      0x00\n      mload(0x40)\n      dup1\n      dup4\n      sub\n      dup2\n      0x00\n      dup8\n      dup1\n      extcodesize\n      iszero\n      dup1\n      iszero\n      tag_353\n      jumpi\n      0x00\n      dup1\n      revert\n    tag_353:\n      pop\n      gas\n      call\n      iszero\n      dup1\n      iszero\n      tag_355\n      jumpi\n      returndatasize\n      0x00\n      dup1\n      returndatacopy\n      revert(0x00, returndatasize)\n    tag_355:\n      pop\n      pop\n      pop\n      pop\n        /* \"WandInstruments.sol\":9362:9378  uint256 dInArray */\n      0x00\n        /* \"WandInstruments.sol\":9412:9417  86400 */\n      0x015180\n        /* \"WandInstruments.sol\":9398:9410  timeLaunched */\n      sload(0x0c)\n        /* \"WandInstruments.sol\":9381:9396  block.timestamp */\n      timestamp\n        /* \"WandInstruments.sol\":9381:9410  block.timestamp- timeLaunched */\n      tag_356\n      swap2\n      swap1\n      tag_237\n      jump\t// in\n    tag_356:\n        /* \"WandInstruments.sol\":9380:9417  (block.timestamp- timeLaunched)/86400 */\n      tag_357\n      swap2\n      swap1\n      tag_235\n      jump\t// in\n    tag_357:\n        /* \"WandInstruments.sol\":9362:9417  uint256 dInArray =(block.timestamp- timeLaunched)/86400 */\n      swap1\n      pop\n        /* \"WandInstruments.sol\":9460:9474  amountSCPtoBuy */\n      dup5\n        /* \"WandInstruments.sol\":9429:9446  tokensBoughtXDays */\n      0x17\n        /* \"WandInstruments.sol\":9429:9456  tokensBoughtXDays[dInArray] */\n      0x00\n        /* \"WandInstruments.sol\":9447:9455  dInArray */\n      dup4\n        /* \"WandInstruments.sol\":9429:9456  tokensBoughtXDays[dInArray] */\n      dup2\n      mstore\n      0x20\n      add\n      swap1\n      dup2\n      mstore\n      0x20\n      add\n      0x00\n      keccak256\n      0x00\n        /* \"WandInstruments.sol\":9429:9474  tokensBoughtXDays[dInArray] += amountSCPtoBuy */\n      dup3\n      dup3\n      sload\n      tag_358\n      swap2\n      swap1\n      tag_231\n      jump\t// in\n    tag_358:\n      swap3\n      pop\n      pop\n      dup2\n      swap1\n      sstore\n      pop\n        /* \"WandInstruments.sol\":9521:9535  amountSCPtoBuy */\n      dup5\n        /* \"WandInstruments.sol\":9485:9507  circulatingSupplyXDays */\n      0x19\n        /* \"WandInstruments.sol\":9485:9517  circulatingSupplyXDays[dInArray] */\n      0x00\n        /* \"WandInstruments.sol\":9508:9516  dInArray */\n      dup4\n        /* \"WandInstruments.sol\":9485:9517  circulatingSupplyXDays[dInArray] */\n      dup2\n      mstore\n      0x20\n      add\n      swap1\n      dup2\n      mstore\n      0x20\n      add\n      0x00\n      keccak256\n      0x00\n        /* \"WandInstruments.sol\":9485:9535  circulatingSupplyXDays[dInArray] += amountSCPtoBuy */\n      dup3\n      dup3\n      sload\n      tag_359\n      swap2\n      swap1\n      tag_231\n      jump\t// in\n    tag_359:\n      swap3\n      pop\n      pop\n      dup2\n      swap1\n      sstore\n      pop\n        /* \"WandInstruments.sol\":9568:9578  msg.sender */\n      caller\n        /* \"WandInstruments.sol\":9553:9595  sceptersBought(msg.sender, amountSCPtoBuy) */\n      0xffffffffffffffffffffffffffffffffffffffff\n      and\n      0xf633443b01504d269657083d48bb6de98e089cfff672b47fefbed21608b5c779\n        /* \"WandInstruments.sol\":9580:9594  amountSCPtoBuy */\n      dup7\n        /* \"WandInstruments.sol\":9553:9595  sceptersBought(msg.sender, amountSCPtoBuy) */\n      mload(0x40)\n      tag_360\n      swap2\n      swap1\n      tag_52\n      jump\t// in\n    tag_360:\n      mload(0x40)\n      dup1\n      swap2\n      sub\n      swap1\n      log2\n        /* \"WandInstruments.sol\":8448:9603  {\r... */\n      pop\n      pop\n      pop\n        /* \"ReentrancyGuard.sol\":1734:1735  1 */\n      0x01\n        /* \"ReentrancyGuard.sol\":2688:2695  _status */\n      0x00\n        /* \"ReentrancyGuard.sol\":2688:2710  _status = _NOT_ENTERED */\n      dup2\n      swap1\n      sstore\n      pop\n        /* \"WandInstruments.sol\":8356:9603  function buyScepter(uint256 amountSCPtoBuy, string memory _stableChosen) public nonReentrant{\r... */\n      pop\n      pop\n      jump\t// out\n        /* \"WandInstruments.sol\":10151:11054  function getGrowthFactor() external view returns (uint256){\r... */\n    tag_153:\n        /* \"WandInstruments.sol\":10201:10208  uint256 */\n      0x00\n        /* \"WandInstruments.sol\":10353:10364  uint256 _gF */\n      dup1\n        /* \"WandInstruments.sol\":10375:10398  uint256 xDaysCircSupply */\n      0x00\n        /* \"WandInstruments.sol\":10409:10424  uint256 numdays */\n      dup1\n        /* \"WandInstruments.sol\":10445:10450  86400 */\n      0x015180\n        /* \"WandInstruments.sol\":10427:10444  daysInCalculation */\n      sload(0x0d)\n        /* \"WandInstruments.sol\":10427:10450  daysInCalculation/86400 */\n      tag_362\n      swap2\n      swap1\n      tag_235\n      jump\t// in\n    tag_362:\n        /* \"WandInstruments.sol\":10409:10450  uint256 numdays = daysInCalculation/86400 */\n      swap1\n      pop\n        /* \"WandInstruments.sol\":10461:10485  uint256 daySinceLaunched */\n      0x00\n        /* \"WandInstruments.sol\":10523:10528  86400 */\n      0x015180\n        /* \"WandInstruments.sol\":10507:10519  timeLaunched */\n      sload(0x0c)\n        /* \"WandInstruments.sol\":10489:10504  block.timestamp */\n      timestamp\n        /* \"WandInstruments.sol\":10489:10519  block.timestamp - timeLaunched */\n      tag_363\n      swap2\n      swap1\n      tag_237\n      jump\t// in\n    tag_363:\n        /* \"WandInstruments.sol\":10488:10528  (block.timestamp - timeLaunched) / 86400 */\n      tag_364\n      swap2\n      swap1\n      tag_235\n      jump\t// in\n    tag_364:\n        /* \"WandInstruments.sol\":10461:10528  uint256 daySinceLaunched = (block.timestamp - timeLaunched) / 86400 */\n      swap1\n      pop\n        /* \"WandInstruments.sol\":10539:10548  uint256 d */\n      0x00\n        /* \"WandInstruments.sol\":10593:10594  0 */\n      dup1\n        /* \"WandInstruments.sol\":10573:10589  daySinceLaunched */\n      dup3\n        /* \"WandInstruments.sol\":10573:10594  daySinceLaunched == 0 */\n      eq\n        /* \"WandInstruments.sol\":10569:10861  if (daySinceLaunched == 0) {\r... */\n      iszero\n      tag_365\n      jumpi\n        /* \"WandInstruments.sol\":10625:10647  circulatingSupplyXDays */\n      0x19\n        /* \"WandInstruments.sol\":10625:10650  circulatingSupplyXDays[0] */\n      0x00\n        /* \"WandInstruments.sol\":10648:10649  0 */\n      dup1\n        /* \"WandInstruments.sol\":10625:10650  circulatingSupplyXDays[0] */\n      dup2\n      mstore\n      0x20\n      add\n      swap1\n      dup2\n      mstore\n      0x20\n      add\n      0x00\n      keccak256\n      sload\n        /* \"WandInstruments.sol\":10607:10650  xDaysCircSupply = circulatingSupplyXDays[0] */\n      swap4\n      pop\n        /* \"WandInstruments.sol\":10569:10861  if (daySinceLaunched == 0) {\r... */\n      jump(tag_366)\n    tag_365:\n        /* \"WandInstruments.sol\":10719:10726  numdays */\n      dup3\n        /* \"WandInstruments.sol\":10700:10716  daySinceLaunched */\n      dup3\n        /* \"WandInstruments.sol\":10700:10726  daySinceLaunched - numdays */\n      tag_370\n      swap2\n      swap1\n      tag_237\n      jump\t// in\n    tag_370:\n        /* \"WandInstruments.sol\":10696:10726  d = daySinceLaunched - numdays */\n      swap1\n      pop\n        /* \"WandInstruments.sol\":10691:10850  for (d = daySinceLaunched - numdays; d < daySinceLaunched; d++) {  //for loop example\r... */\n    tag_367:\n        /* \"WandInstruments.sol\":10732:10748  daySinceLaunched */\n      dup2\n        /* \"WandInstruments.sol\":10728:10729  d */\n      dup2\n        /* \"WandInstruments.sol\":10728:10748  d < daySinceLaunched */\n      lt\n        /* \"WandInstruments.sol\":10691:10850  for (d = daySinceLaunched - numdays; d < daySinceLaunched; d++) {  //for loop example\r... */\n      iszero\n      tag_368\n      jumpi\n        /* \"WandInstruments.sol\":10809:10831  circulatingSupplyXDays */\n      0x19\n        /* \"WandInstruments.sol\":10809:10834  circulatingSupplyXDays[d] */\n      0x00\n        /* \"WandInstruments.sol\":10832:10833  d */\n      dup3\n        /* \"WandInstruments.sol\":10809:10834  circulatingSupplyXDays[d] */\n      dup2\n      mstore\n      0x20\n      add\n      swap1\n      dup2\n      mstore\n      0x20\n      add\n      0x00\n      keccak256\n      sload\n        /* \"WandInstruments.sol\":10790:10834  xDaysCircSupply += circulatingSupplyXDays[d] */\n      dup5\n      tag_371\n      swap2\n      swap1\n      tag_231\n      jump\t// in\n    tag_371:\n      swap4\n      pop\n        /* \"WandInstruments.sol\":10750:10753  d++ */\n      dup1\n      dup1\n      tag_372\n      swap1\n      tag_247\n      jump\t// in\n    tag_372:\n      swap2\n      pop\n      pop\n        /* \"WandInstruments.sol\":10691:10850  for (d = daySinceLaunched - numdays; d < daySinceLaunched; d++) {  //for loop example\r... */\n      jump(tag_367)\n    tag_368:\n        /* \"WandInstruments.sol\":10569:10861  if (daySinceLaunched == 0) {\r... */\n    tag_366:\n        /* \"WandInstruments.sol\":10876:10929  decDiv18(this.getTokensBoughtXDays(),xDaysCircSupply) */\n      tag_373\n        /* \"WandInstruments.sol\":10885:10889  this */\n      address\n        /* \"WandInstruments.sol\":10885:10910  this.getTokensBoughtXDays */\n      0xffffffffffffffffffffffffffffffffffffffff\n      and\n      0x71cd58f9\n        /* \"WandInstruments.sol\":10885:10912  this.getTokensBoughtXDays() */\n      mload(0x40)\n      dup2\n      0xffffffff\n      and\n      0xe0\n      shl\n      dup2\n      mstore\n      0x04\n      add\n      0x20\n      mload(0x40)\n      dup1\n      dup4\n      sub\n      dup2\n      dup7\n      dup1\n      extcodesize\n      iszero\n      dup1\n      iszero\n      tag_374\n      jumpi\n      0x00\n      dup1\n      revert\n    tag_374:\n      pop\n      gas\n      staticcall\n      iszero\n      dup1\n      iszero\n      tag_376\n      jumpi\n      returndatasize\n      0x00\n      dup1\n      returndatacopy\n      revert(0x00, returndatasize)\n    tag_376:\n      pop\n      pop\n      pop\n      pop\n      mload(0x40)\n      returndatasize\n      not(0x1f)\n      0x1f\n      dup3\n      add\n      and\n      dup3\n      add\n      dup1\n      0x40\n      mstore\n      pop\n      dup2\n      add\n      swap1\n      tag_377\n      swap2\n      swap1\n      tag_225\n      jump\t// in\n    tag_377:\n        /* \"WandInstruments.sol\":10913:10928  xDaysCircSupply */\n      dup6\n        /* \"WandInstruments.sol\":10876:10884  decDiv18 */\n      tag_253\n        /* \"WandInstruments.sol\":10876:10929  decDiv18(this.getTokensBoughtXDays(),xDaysCircSupply) */\n      jump\t// in\n    tag_373:\n        /* \"WandInstruments.sol\":10870:10929  _gF = decDiv18(this.getTokensBoughtXDays(),xDaysCircSupply) */\n      swap5\n      pop\n        /* \"WandInstruments.sol\":10949:10967  300000000000000000 */\n      0x0429d069189e0000\n        /* \"WandInstruments.sol\":10943:10946  _gF */\n      dup6\n        /* \"WandInstruments.sol\":10943:10967  _gF > 300000000000000000 */\n      gt\n        /* \"WandInstruments.sol\":10939:11026  if (_gF > 300000000000000000)\r... */\n      iszero\n      tag_378\n      jumpi\n        /* \"WandInstruments.sol\":10997:11015  300000000000000000 */\n      0x0429d069189e0000\n        /* \"WandInstruments.sol\":10991:11015  _gF = 300000000000000000 */\n      swap5\n      pop\n        /* \"WandInstruments.sol\":10939:11026  if (_gF > 300000000000000000)\r... */\n    tag_378:\n        /* \"WandInstruments.sol\":11042:11045  _gF */\n      dup5\n        /* \"WandInstruments.sol\":11035:11045  return _gF */\n      swap6\n      pop\n      pop\n      pop\n      pop\n      pop\n      pop\n        /* \"WandInstruments.sol\":10151:11054  function getGrowthFactor() external view returns (uint256){\r... */\n      swap1\n      jump\t// out\n        /* \"WandInstruments.sol\":15629:15718  function whitelist(address _addr) public onlyOwner {  \r... */\n    tag_158:\n      pop\n      jump\t// out\n        /* \"WandInstruments.sol\":1886:1947  mapping (string => stableTokensParams) public stableERC20Info */\n    tag_163:\n      0x1a\n      dup2\n      dup1\n      mload\n      0x20\n      dup2\n      add\n      dup3\n      add\n      dup1\n      mload\n      dup5\n      dup3\n      mstore\n      0x20\n      dup4\n      add\n      0x20\n      dup6\n      add\n      keccak256\n      dup2\n      dup4\n      mstore\n      dup1\n      swap6\n      pop\n      pop\n      pop\n      pop\n      pop\n      pop\n      0x00\n      swap2\n      pop\n      swap1\n      pop\n      dup1\n      0x00\n      add\n      0x00\n      swap1\n      sload\n      swap1\n      0x0100\n      exp\n      swap1\n      div\n      0xffffffffffffffffffffffffffffffffffffffff\n      and\n      swap1\n      dup1\n      0x01\n      add\n      sload\n      swap1\n      pop\n      dup3\n      jump\t// out\n        /* \"WandInstruments.sol\":12748:12968  function updateSPTRTreasuryBal() external {\r... */\n    tag_168:\n        /* \"WandInstruments.sol\":12822:12837  stableERC20Info */\n      0x1a\n        /* \"WandInstruments.sol\":12822:12845  stableERC20Info[\"USDC\"] */\n      mload(0x40)\n      tag_382\n      swap1\n      tag_383\n      jump\t// in\n    tag_382:\n      swap1\n      dup2\n      mstore\n      0x20\n      add\n      mload(0x40)\n      dup1\n      swap2\n      sub\n      swap1\n      keccak256\n        /* \"WandInstruments.sol\":12822:12861  stableERC20Info[\"USDC\"].contractAddress */\n      0x00\n      add\n      0x00\n      swap1\n      sload\n      swap1\n      0x0100\n      exp\n      swap1\n      div\n      0xffffffffffffffffffffffffffffffffffffffff\n      and\n        /* \"WandInstruments.sol\":12801:12812  tokenStable */\n      0x16\n      0x00\n        /* \"WandInstruments.sol\":12801:12862  tokenStable = IERC20(stableERC20Info[\"USDC\"].contractAddress) */\n      0x0100\n      exp\n      dup2\n      sload\n      dup2\n      0xffffffffffffffffffffffffffffffffffffffff\n      mul\n      not\n      and\n      swap1\n      dup4\n      0xffffffffffffffffffffffffffffffffffffffff\n      and\n      mul\n      or\n      swap1\n      sstore\n      pop\n        /* \"WandInstruments.sol\":12748:12968  function updateSPTRTreasuryBal() external {\r... */\n      jump\t// out\n        /* \"WandInstruments.sol\":9611:10118  function claimLockedUSDC(address _claimant, string memory _stableChosen) public {\r... */\n    tag_173:\n        /* \"WandInstruments.sol\":9730:9749  withheldWithdrawals */\n      0x1b\n        /* \"WandInstruments.sol\":9730:9760  withheldWithdrawals[_claimant] */\n      0x00\n        /* \"WandInstruments.sol\":9750:9759  _claimant */\n      dup4\n        /* \"WandInstruments.sol\":9730:9760  withheldWithdrawals[_claimant] */\n      0xffffffffffffffffffffffffffffffffffffffff\n      and\n      0xffffffffffffffffffffffffffffffffffffffff\n      and\n      dup2\n      mstore\n      0x20\n      add\n      swap1\n      dup2\n      mstore\n      0x20\n      add\n      0x00\n      keccak256\n        /* \"WandInstruments.sol\":9730:9773  withheldWithdrawals[_claimant].timeUnlocked */\n      0x00\n      add\n      sload\n        /* \"WandInstruments.sol\":9711:9726  block.timestamp */\n      timestamp\n        /* \"WandInstruments.sol\":9711:9773  block.timestamp >= withheldWithdrawals[_claimant].timeUnlocked */\n      lt\n      iszero\n        /* \"WandInstruments.sol\":9702:9790  require (block.timestamp >= withheldWithdrawals[_claimant].timeUnlocked, \"Not unlocked\") */\n      tag_385\n      jumpi\n      mload(0x40)\n      0x08c379a000000000000000000000000000000000000000000000000000000000\n      dup2\n      mstore\n      0x04\n      add\n      tag_386\n      swap1\n      tag_387\n      jump\t// in\n    tag_386:\n      mload(0x40)\n      dup1\n      swap2\n      sub\n      swap1\n      revert\n    tag_385:\n        /* \"WandInstruments.sol\":9822:9837  stableERC20Info */\n      0x1a\n        /* \"WandInstruments.sol\":9838:9851  _stableChosen */\n      dup2\n        /* \"WandInstruments.sol\":9822:9852  stableERC20Info[_stableChosen] */\n      mload(0x40)\n      tag_388\n      swap2\n      swap1\n      tag_327\n      jump\t// in\n    tag_388:\n      swap1\n      dup2\n      mstore\n      0x20\n      add\n      mload(0x40)\n      dup1\n      swap2\n      sub\n      swap1\n      keccak256\n        /* \"WandInstruments.sol\":9822:9868  stableERC20Info[_stableChosen].contractAddress */\n      0x00\n      add\n      0x00\n      swap1\n      sload\n      swap1\n      0x0100\n      exp\n      swap1\n      div\n      0xffffffffffffffffffffffffffffffffffffffff\n      and\n        /* \"WandInstruments.sol\":9801:9812  tokenStable */\n      0x16\n      0x00\n        /* \"WandInstruments.sol\":9801:9869  tokenStable = IERC20(stableERC20Info[_stableChosen].contractAddress) */\n      0x0100\n      exp\n      dup2\n      sload\n      dup2\n      0xffffffffffffffffffffffffffffffffffffffff\n      mul\n      not\n      and\n      swap1\n      dup4\n      0xffffffffffffffffffffffffffffffffffffffff\n      and\n      mul\n      or\n      swap1\n      sstore\n      pop\n        /* \"WandInstruments.sol\":9951:9968  uint256 claimAmts */\n      0x00\n        /* \"WandInstruments.sol\":9991:10010  withheldWithdrawals */\n      0x1b\n        /* \"WandInstruments.sol\":9991:10021  withheldWithdrawals[_claimant] */\n      0x00\n        /* \"WandInstruments.sol\":10011:10020  _claimant */\n      dup5\n        /* \"WandInstruments.sol\":9991:10021  withheldWithdrawals[_claimant] */\n      0xffffffffffffffffffffffffffffffffffffffff\n      and\n      0xffffffffffffffffffffffffffffffffffffffff\n      and\n      dup2\n      mstore\n      0x20\n      add\n      swap1\n      dup2\n      mstore\n      0x20\n      add\n      0x00\n      keccak256\n        /* \"WandInstruments.sol\":9991:10029  withheldWithdrawals[_claimant].amounts */\n      0x01\n      add\n      sload\n        /* \"WandInstruments.sol\":9979:10029  claimAmts = withheldWithdrawals[_claimant].amounts */\n      swap1\n      pop\n        /* \"WandInstruments.sol\":10040:10108  _safeTransferFrom(tokenStable, address(this), msg.sender, claimAmts) */\n      tag_389\n        /* \"WandInstruments.sol\":10058:10069  tokenStable */\n      0x16\n      0x00\n      swap1\n      sload\n      swap1\n      0x0100\n      exp\n      swap1\n      div\n      0xffffffffffffffffffffffffffffffffffffffff\n      and\n        /* \"WandInstruments.sol\":10079:10083  this */\n      address\n        /* \"WandInstruments.sol\":10086:10096  msg.sender */\n      caller\n        /* \"WandInstruments.sol\":10098:10107  claimAmts */\n      dup5\n        /* \"WandInstruments.sol\":10040:10057  _safeTransferFrom */\n      tag_281\n        /* \"WandInstruments.sol\":10040:10108  _safeTransferFrom(tokenStable, address(this), msg.sender, claimAmts) */\n      jump\t// in\n    tag_389:\n        /* \"WandInstruments.sol\":9691:10118  {\r... */\n      pop\n        /* \"WandInstruments.sol\":9611:10118  function claimLockedUSDC(address _claimant, string memory _stableChosen) public {\r... */\n      pop\n      pop\n      jump\t// out\n        /* \"WandInstruments.sol\":660:694  address public scepterTreasuryAddr */\n    tag_176:\n      0x08\n      0x00\n      swap1\n      sload\n      swap1\n      0x0100\n      exp\n      swap1\n      div\n      0xffffffffffffffffffffffffffffffffffffffff\n      and\n      dup2\n      jump\t// out\n        /* \"WandInstruments.sol\":1472:1490  IERC20 public BTON */\n    tag_180:\n      0x15\n      0x00\n      swap1\n      sload\n      swap1\n      0x0100\n      exp\n      swap1\n      div\n      0xffffffffffffffffffffffffffffffffffffffff\n      and\n      dup2\n      jump\t// out\n        /* \"WandInstruments.sol\":5860:7586  function cashOutScepter(uint256 amountSCPtoSell, uint256 timeChosenLocked, string memory _stableChosen) public payable{\r... */\n    tag_185:\n        /* \"WandInstruments.sol\":6071:6086  stableERC20Info */\n      0x1a\n        /* \"WandInstruments.sol\":6087:6100  _stableChosen */\n      dup2\n        /* \"WandInstruments.sol\":6071:6101  stableERC20Info[_stableChosen] */\n      mload(0x40)\n      tag_391\n      swap2\n      swap1\n      tag_327\n      jump\t// in\n    tag_391:\n      swap1\n      dup2\n      mstore\n      0x20\n      add\n      mload(0x40)\n      dup1\n      swap2\n      sub\n      swap1\n      keccak256\n        /* \"WandInstruments.sol\":6071:6117  stableERC20Info[_stableChosen].contractAddress */\n      0x00\n      add\n      0x00\n      swap1\n      sload\n      swap1\n      0x0100\n      exp\n      swap1\n      div\n      0xffffffffffffffffffffffffffffffffffffffff\n      and\n        /* \"WandInstruments.sol\":6050:6061  tokenStable */\n      0x16\n      0x00\n        /* \"WandInstruments.sol\":6050:6118  tokenStable = IERC20(stableERC20Info[_stableChosen].contractAddress) */\n      0x0100\n      exp\n      dup2\n      sload\n      dup2\n      0xffffffffffffffffffffffffffffffffffffffff\n      mul\n      not\n      and\n      swap1\n      dup4\n      0xffffffffffffffffffffffffffffffffffffffff\n      and\n      mul\n      or\n      swap1\n      sstore\n      pop\n        /* \"WandInstruments.sol\":6129:6155  uint256 trader_tsc_balance */\n      0x00\n        /* \"WandInstruments.sol\":6158:6162  SPTR */\n      0x13\n      0x00\n      swap1\n      sload\n      swap1\n      0x0100\n      exp\n      swap1\n      div\n      0xffffffffffffffffffffffffffffffffffffffff\n      and\n        /* \"WandInstruments.sol\":6158:6172  SPTR.balanceOf */\n      0xffffffffffffffffffffffffffffffffffffffff\n      and\n      0x70a08231\n        /* \"WandInstruments.sol\":6173:6183  msg.sender */\n      caller\n        /* \"WandInstruments.sol\":6158:6184  SPTR.balanceOf(msg.sender) */\n      mload(0x40)\n      dup3\n      0xffffffff\n      and\n      0xe0\n      shl\n      dup2\n      mstore\n      0x04\n      add\n      tag_392\n      swap2\n      swap1\n      tag_57\n      jump\t// in\n    tag_392:\n      0x20\n      mload(0x40)\n      dup1\n      dup4\n      sub\n      dup2\n      dup7\n      dup1\n      extcodesize\n      iszero\n      dup1\n      iszero\n      tag_393\n      jumpi\n      0x00\n      dup1\n      revert\n    tag_393:\n      pop\n      gas\n      staticcall\n      iszero\n      dup1\n      iszero\n      tag_395\n      jumpi\n      returndatasize\n      0x00\n      dup1\n      returndatacopy\n      revert(0x00, returndatasize)\n    tag_395:\n      pop\n      pop\n      pop\n      pop\n      mload(0x40)\n      returndatasize\n      not(0x1f)\n      0x1f\n      dup3\n      add\n      and\n      dup3\n      add\n      dup1\n      0x40\n      mstore\n      pop\n      dup2\n      add\n      swap1\n      tag_396\n      swap2\n      swap1\n      tag_225\n      jump\t// in\n    tag_396:\n        /* \"WandInstruments.sol\":6129:6184  uint256 trader_tsc_balance = SPTR.balanceOf(msg.sender) */\n      swap1\n      pop\n        /* \"WandInstruments.sol\":6224:6239  amountSCPtoSell */\n      dup4\n        /* \"WandInstruments.sol\":6203:6221  trader_tsc_balance */\n      dup2\n        /* \"WandInstruments.sol\":6203:6239  trader_tsc_balance > amountSCPtoSell */\n      gt\n        /* \"WandInstruments.sol\":6195:6270  require(trader_tsc_balance > amountSCPtoSell, \"You dont have that amount!\") */\n      tag_397\n      jumpi\n      mload(0x40)\n      0x08c379a000000000000000000000000000000000000000000000000000000000\n      dup2\n      mstore\n      0x04\n      add\n      tag_398\n      swap1\n      tag_279\n      jump\t// in\n    tag_398:\n      mload(0x40)\n      dup1\n      swap2\n      sub\n      swap1\n      revert\n    tag_397:\n        /* \"WandInstruments.sol\":6472:6483  tokenStable */\n      0x16\n      0x00\n      swap1\n      sload\n      swap1\n      0x0100\n      exp\n      swap1\n      div\n      0xffffffffffffffffffffffffffffffffffffffff\n      and\n        /* \"WandInstruments.sol\":6472:6492  tokenStable.transfer */\n      0xffffffffffffffffffffffffffffffffffffffff\n      and\n      0xa9059cbb\n        /* \"WandInstruments.sol\":6493:6503  msg.sender */\n      caller\n        /* \"WandInstruments.sol\":362:368  10**18 */\n      0x0de0b6b3a7640000\n        /* \"WandInstruments.sol\":6524:6525  1 */\n      0x01\n        /* \"WandInstruments.sol\":6524:6536  1*(DECIMALS) */\n      tag_399\n      swap2\n      swap1\n      tag_289\n      jump\t// in\n    tag_399:\n        /* \"WandInstruments.sol\":6505:6520  amountSCPtoSell */\n      dup8\n        /* \"WandInstruments.sol\":6505:6537  amountSCPtoSell + (1*(DECIMALS)) */\n      tag_400\n      swap2\n      swap1\n      tag_231\n      jump\t// in\n    tag_400:\n        /* \"WandInstruments.sol\":6472:6538  tokenStable.transfer(msg.sender, amountSCPtoSell + (1*(DECIMALS))) */\n      mload(0x40)\n      dup4\n      0xffffffff\n      and\n      0xe0\n      shl\n      dup2\n      mstore\n      0x04\n      add\n      tag_401\n      swap3\n      swap2\n      swap1\n      tag_165\n      jump\t// in\n    tag_401:\n      0x20\n      mload(0x40)\n      dup1\n      dup4\n      sub\n      dup2\n      0x00\n      dup8\n      dup1\n      extcodesize\n      iszero\n      dup1\n      iszero\n      tag_402\n      jumpi\n      0x00\n      dup1\n      revert\n    tag_402:\n      pop\n      gas\n      call\n      iszero\n      dup1\n      iszero\n      tag_404\n      jumpi\n      returndatasize\n      0x00\n      dup1\n      returndatacopy\n      revert(0x00, returndatasize)\n    tag_404:\n      pop\n      pop\n      pop\n      pop\n      mload(0x40)\n      returndatasize\n      not(0x1f)\n      0x1f\n      dup3\n      add\n      and\n      dup3\n      add\n      dup1\n      0x40\n      mstore\n      pop\n      dup2\n      add\n      swap1\n      tag_405\n      swap2\n      swap1\n      tag_406\n      jump\t// in\n    tag_405:\n      pop\n        /* \"WandInstruments.sol\":6641:6708  _safeTransferFrom(SPTR, msg.sender, address(this), amountSCPtoSell) */\n      tag_407\n        /* \"WandInstruments.sol\":6659:6663  SPTR */\n      0x13\n      0x00\n      swap1\n      sload\n      swap1\n      0x0100\n      exp\n      swap1\n      div\n      0xffffffffffffffffffffffffffffffffffffffff\n      and\n        /* \"WandInstruments.sol\":6665:6675  msg.sender */\n      caller\n        /* \"WandInstruments.sol\":6685:6689  this */\n      address\n        /* \"WandInstruments.sol\":6692:6707  amountSCPtoSell */\n      dup8\n        /* \"WandInstruments.sol\":6641:6658  _safeTransferFrom */\n      tag_281\n        /* \"WandInstruments.sol\":6641:6708  _safeTransferFrom(SPTR, msg.sender, address(this), amountSCPtoSell) */\n      jump\t// in\n    tag_407:\n        /* \"WandInstruments.sol\":6722:6737  uint256 usdcAmt */\n      0x00\n        /* \"WandInstruments.sol\":6784:6799  amountSCPtoSell */\n      dup5\n        /* \"WandInstruments.sol\":6762:6766  this */\n      address\n        /* \"WandInstruments.sol\":6762:6779  this.getSellPrice */\n      0xffffffffffffffffffffffffffffffffffffffff\n      and\n      0x43d32e9c\n        /* \"WandInstruments.sol\":6762:6781  this.getSellPrice() */\n      mload(0x40)\n      dup2\n      0xffffffff\n      and\n      0xe0\n      shl\n      dup2\n      mstore\n      0x04\n      add\n      0x20\n      mload(0x40)\n      dup1\n      dup4\n      sub\n      dup2\n      dup7\n      dup1\n      extcodesize\n      iszero\n      dup1\n      iszero\n      tag_408\n      jumpi\n      0x00\n      dup1\n      revert\n    tag_408:\n      pop\n      gas\n      staticcall\n      iszero\n      dup1\n      iszero\n      tag_410\n      jumpi\n      returndatasize\n      0x00\n      dup1\n      returndatacopy\n      revert(0x00, returndatasize)\n    tag_410:\n      pop\n      pop\n      pop\n      pop\n      mload(0x40)\n      returndatasize\n      not(0x1f)\n      0x1f\n      dup3\n      add\n      and\n      dup3\n      add\n      dup1\n      0x40\n      mstore\n      pop\n      dup2\n      add\n      swap1\n      tag_411\n      swap2\n      swap1\n      tag_225\n      jump\t// in\n    tag_411:\n        /* \"WandInstruments.sol\":6762:6799  this.getSellPrice() * amountSCPtoSell */\n      tag_412\n      swap2\n      swap1\n      tag_289\n      jump\t// in\n    tag_412:\n        /* \"WandInstruments.sol\":6752:6799  usdcAmt = this.getSellPrice() * amountSCPtoSell */\n      swap1\n      pop\n        /* \"WandInstruments.sol\":7074:7090  uint256 dInArray */\n      0x00\n        /* \"WandInstruments.sol\":7124:7129  86400 */\n      0x015180\n        /* \"WandInstruments.sol\":7110:7122  timeLaunched */\n      sload(0x0c)\n        /* \"WandInstruments.sol\":7093:7108  block.timestamp */\n      timestamp\n        /* \"WandInstruments.sol\":7093:7122  block.timestamp- timeLaunched */\n      tag_413\n      swap2\n      swap1\n      tag_237\n      jump\t// in\n    tag_413:\n        /* \"WandInstruments.sol\":7092:7129  (block.timestamp- timeLaunched)/86400 */\n      tag_414\n      swap2\n      swap1\n      tag_235\n      jump\t// in\n    tag_414:\n        /* \"WandInstruments.sol\":7074:7129  uint256 dInArray =(block.timestamp- timeLaunched)/86400 */\n      swap1\n      pop\n        /* \"WandInstruments.sol\":7170:7185  amountSCPtoSell */\n      dup6\n        /* \"WandInstruments.sol\":7141:7156  tokensSoldXDays */\n      0x18\n        /* \"WandInstruments.sol\":7141:7166  tokensSoldXDays[dInArray] */\n      0x00\n        /* \"WandInstruments.sol\":7157:7165  dInArray */\n      dup4\n        /* \"WandInstruments.sol\":7141:7166  tokensSoldXDays[dInArray] */\n      dup2\n      mstore\n      0x20\n      add\n      swap1\n      dup2\n      mstore\n      0x20\n      add\n      0x00\n      keccak256\n      0x00\n        /* \"WandInstruments.sol\":7141:7185  tokensSoldXDays[dInArray] += amountSCPtoSell */\n      dup3\n      dup3\n      sload\n      tag_415\n      swap2\n      swap1\n      tag_231\n      jump\t// in\n    tag_415:\n      swap3\n      pop\n      pop\n      dup2\n      swap1\n      sstore\n      pop\n        /* \"WandInstruments.sol\":7232:7247  amountSCPtoSell */\n      dup6\n        /* \"WandInstruments.sol\":7196:7218  circulatingSupplyXDays */\n      0x19\n        /* \"WandInstruments.sol\":7196:7228  circulatingSupplyXDays[dInArray] */\n      0x00\n        /* \"WandInstruments.sol\":7219:7227  dInArray */\n      dup4\n        /* \"WandInstruments.sol\":7196:7228  circulatingSupplyXDays[dInArray] */\n      dup2\n      mstore\n      0x20\n      add\n      swap1\n      dup2\n      mstore\n      0x20\n      add\n      0x00\n      keccak256\n      0x00\n        /* \"WandInstruments.sol\":7196:7247  circulatingSupplyXDays[dInArray] -= amountSCPtoSell */\n      dup3\n      dup3\n      sload\n      tag_416\n      swap2\n      swap1\n      tag_237\n      jump\t// in\n    tag_416:\n      swap3\n      pop\n      pop\n      dup2\n      swap1\n      sstore\n      pop\n        /* \"WandInstruments.sol\":5978:7586  {\r... */\n      pop\n      pop\n      pop\n        /* \"WandInstruments.sol\":5860:7586  function cashOutScepter(uint256 amountSCPtoSell, uint256 timeChosenLocked, string memory _stableChosen) public payable{\r... */\n      pop\n      pop\n      pop\n      jump\t// out\n        /* \"WandInstruments.sol\":411:436  uint256 public sellFactor */\n    tag_188:\n      sload(0x02)\n      dup2\n      jump\t// out\n        /* \"WandInstruments.sol\":1447:1465  IERC20 public WAND */\n    tag_192:\n      0x14\n      0x00\n      swap1\n      sload\n      swap1\n      0x0100\n      exp\n      swap1\n      div\n      0xffffffffffffffffffffffffffffffffffffffff\n      and\n      dup2\n      jump\t// out\n        /* \"WandInstruments.sol\":14894:15180  function getTokensSoldXDays() external view returns (uint256){\r... */\n    tag_196:\n        /* \"WandInstruments.sol\":14947:14954  uint256 */\n      0x00\n        /* \"WandInstruments.sol\":14966:14981  uint256 soldNum */\n      dup1\n        /* \"WandInstruments.sol\":14992:15001  uint256 d */\n      0x00\n        /* \"WandInstruments.sol\":15012:15027  uint256 numdays */\n      dup1\n        /* \"WandInstruments.sol\":15048:15053  86400 */\n      0x015180\n        /* \"WandInstruments.sol\":15030:15047  daysInCalculation */\n      sload(0x0d)\n        /* \"WandInstruments.sol\":15030:15053  daysInCalculation/86400 */\n      tag_418\n      swap2\n      swap1\n      tag_235\n      jump\t// in\n    tag_418:\n        /* \"WandInstruments.sol\":15012:15053  uint256 numdays = daysInCalculation/86400 */\n      swap1\n      pop\n        /* \"WandInstruments.sol\":15075:15076  0 */\n      0x00\n        /* \"WandInstruments.sol\":15071:15076  d = 0 */\n      swap2\n      pop\n        /* \"WandInstruments.sol\":15066:15149  for (d = 0; d < numdays; d++) { \r... */\n    tag_419:\n        /* \"WandInstruments.sol\":15082:15089  numdays */\n      dup1\n        /* \"WandInstruments.sol\":15078:15079  d */\n      dup3\n        /* \"WandInstruments.sol\":15078:15089  d < numdays */\n      lt\n        /* \"WandInstruments.sol\":15066:15149  for (d = 0; d < numdays; d++) { \r... */\n      iszero\n      tag_420\n      jumpi\n        /* \"WandInstruments.sol\":15121:15136  tokensSoldXDays */\n      0x18\n        /* \"WandInstruments.sol\":15121:15139  tokensSoldXDays[d] */\n      0x00\n        /* \"WandInstruments.sol\":15137:15138  d */\n      dup4\n        /* \"WandInstruments.sol\":15121:15139  tokensSoldXDays[d] */\n      dup2\n      mstore\n      0x20\n      add\n      swap1\n      dup2\n      mstore\n      0x20\n      add\n      0x00\n      keccak256\n      sload\n        /* \"WandInstruments.sol\":15110:15139  soldNum += tokensSoldXDays[d] */\n      dup4\n      tag_422\n      swap2\n      swap1\n      tag_231\n      jump\t// in\n    tag_422:\n      swap3\n      pop\n        /* \"WandInstruments.sol\":15091:15094  d++ */\n      dup2\n      dup1\n      tag_423\n      swap1\n      tag_247\n      jump\t// in\n    tag_423:\n      swap3\n      pop\n      pop\n        /* \"WandInstruments.sol\":15066:15149  for (d = 0; d < numdays; d++) { \r... */\n      jump(tag_419)\n    tag_420:\n        /* \"WandInstruments.sol\":15165:15172  soldNum */\n      dup3\n        /* \"WandInstruments.sol\":15158:15172  return soldNum */\n      swap4\n      pop\n      pop\n      pop\n      pop\n        /* \"WandInstruments.sol\":14894:15180  function getTokensSoldXDays() external view returns (uint256){\r... */\n      swap1\n      jump\t// out\n        /* \"WandInstruments.sol\":15726:15945  function addStable(string memory _ticker, address _addr, uint256 _dec) public onlyOwner {\r... */\n    tag_202:\n        /* \"WandInstruments.sol\":15874:15879  _addr */\n      dup2\n        /* \"WandInstruments.sol\":15831:15846  stableERC20Info */\n      0x1a\n        /* \"WandInstruments.sol\":15847:15854  _ticker */\n      dup5\n        /* \"WandInstruments.sol\":15831:15855  stableERC20Info[_ticker] */\n      mload(0x40)\n      tag_426\n      swap2\n      swap1\n      tag_327\n      jump\t// in\n    tag_426:\n      swap1\n      dup2\n      mstore\n      0x20\n      add\n      mload(0x40)\n      dup1\n      swap2\n      sub\n      swap1\n      keccak256\n        /* \"WandInstruments.sol\":15831:15871  stableERC20Info[_ticker].contractAddress */\n      0x00\n      add\n      0x00\n        /* \"WandInstruments.sol\":15831:15879  stableERC20Info[_ticker].contractAddress = _addr */\n      0x0100\n      exp\n      dup2\n      sload\n      dup2\n      0xffffffffffffffffffffffffffffffffffffffff\n      mul\n      not\n      and\n      swap1\n      dup4\n      0xffffffffffffffffffffffffffffffffffffffff\n      and\n      mul\n      or\n      swap1\n      sstore\n      pop\n        /* \"WandInstruments.sol\":15931:15935  _dec */\n      dup1\n        /* \"WandInstruments.sol\":15890:15905  stableERC20Info */\n      0x1a\n        /* \"WandInstruments.sol\":15906:15913  _ticker */\n      dup5\n        /* \"WandInstruments.sol\":15890:15914  stableERC20Info[_ticker] */\n      mload(0x40)\n      tag_427\n      swap2\n      swap1\n      tag_327\n      jump\t// in\n    tag_427:\n      swap1\n      dup2\n      mstore\n      0x20\n      add\n      mload(0x40)\n      dup1\n      swap2\n      sub\n      swap1\n      keccak256\n        /* \"WandInstruments.sol\":15890:15928  stableERC20Info[_ticker].tokenDecimals */\n      0x01\n      add\n        /* \"WandInstruments.sol\":15890:15935  stableERC20Info[_ticker].tokenDecimals = _dec */\n      dup2\n      swap1\n      sstore\n      pop\n        /* \"WandInstruments.sol\":15726:15945  function addStable(string memory _ticker, address _addr, uint256 _dec) public onlyOwner {\r... */\n      pop\n      pop\n      pop\n      jump\t// out\n        /* \"WandInstruments.sol\":377:404  uint256 public growthFactor */\n    tag_205:\n      sload(0x01)\n      dup2\n      jump\t// out\n        /* \"WandInstruments.sol\":1176:1246  address public testwallet = 0x617F2E2fD72FD9D5503197092aC168c91465E7f2 */\n    tag_209:\n      0x12\n      0x00\n      swap1\n      sload\n      swap1\n      0x0100\n      exp\n      swap1\n      div\n      0xffffffffffffffffffffffffffffffffffffffff\n      and\n      dup2\n      jump\t// out\n        /* \"WandInstruments.sol\":625:653  address public treasury1Addr */\n    tag_213:\n      0x07\n      0x00\n      swap1\n      sload\n      swap1\n      0x0100\n      exp\n      swap1\n      div\n      0xffffffffffffffffffffffffffffffffffffffff\n      and\n      dup2\n      jump\t// out\n        /* \"WandInstruments.sol\":13008:13164  function setDaysUsedInFactors(uint256 numDays) public {  \r... */\n    tag_218:\n        /* \"WandInstruments.sol\":13141:13146  86400 */\n      0x015180\n        /* \"WandInstruments.sol\":13131:13138  numDays */\n      dup2\n        /* \"WandInstruments.sol\":13131:13146  numDays * 86400 */\n      tag_429\n      swap2\n      swap1\n      tag_289\n      jump\t// in\n    tag_429:\n        /* \"WandInstruments.sol\":13111:13128  daysInCalculation */\n      0x0d\n        /* \"WandInstruments.sol\":13111:13146  daysInCalculation = numDays * 86400 */\n      dup2\n      swap1\n      sstore\n      pop\n        /* \"WandInstruments.sol\":13008:13164  function setDaysUsedInFactors(uint256 numDays) public {  \r... */\n      pop\n      jump\t// out\n        /* \"WandInstruments.sol\":5142:5314  function decMul18(uint x, uint y) internal pure returns (uint decProd) {\r... */\n    tag_232:\n        /* \"WandInstruments.sol\":5199:5211  uint decProd */\n      0x00\n        /* \"WandInstruments.sol\":5224:5236  uint prod_xy */\n      dup1\n        /* \"WandInstruments.sol\":5239:5248  mul(x, y) */\n      tag_431\n        /* \"WandInstruments.sol\":5243:5244  x */\n      dup5\n        /* \"WandInstruments.sol\":5246:5247  y */\n      dup5\n        /* \"WandInstruments.sol\":5239:5242  mul */\n      tag_432\n        /* \"WandInstruments.sol\":5239:5248  mul(x, y) */\n      jump\t// in\n    tag_431:\n        /* \"WandInstruments.sol\":5224:5248  uint prod_xy = mul(x, y) */\n      swap1\n      pop\n        /* \"WandInstruments.sol\":362:368  10**18 */\n      0x0de0b6b3a7640000\n        /* \"WandInstruments.sol\":5269:5295  add(prod_xy, DECIMALS / 2) */\n      tag_433\n        /* \"WandInstruments.sol\":5273:5280  prod_xy */\n      dup3\n        /* \"WandInstruments.sol\":5293:5294  2 */\n      0x02\n        /* \"WandInstruments.sol\":362:368  10**18 */\n      0x0de0b6b3a7640000\n        /* \"WandInstruments.sol\":5282:5294  DECIMALS / 2 */\n      tag_434\n      swap2\n      swap1\n      tag_235\n      jump\t// in\n    tag_434:\n        /* \"WandInstruments.sol\":5269:5272  add */\n      tag_435\n        /* \"WandInstruments.sol\":5269:5295  add(prod_xy, DECIMALS / 2) */\n      jump\t// in\n    tag_433:\n        /* \"WandInstruments.sol\":5269:5306  add(prod_xy, DECIMALS / 2) / DECIMALS */\n      tag_436\n      swap2\n      swap1\n      tag_235\n      jump\t// in\n    tag_436:\n        /* \"WandInstruments.sol\":5259:5306  decProd = add(prod_xy, DECIMALS / 2) / DECIMALS */\n      swap2\n      pop\n        /* \"WandInstruments.sol\":5213:5314  {\r... */\n      pop\n        /* \"WandInstruments.sol\":5142:5314  function decMul18(uint x, uint y) internal pure returns (uint decProd) {\r... */\n      swap3\n      swap2\n      pop\n      pop\n      jump\t// out\n        /* \"WandInstruments.sol\":5322:5503  function decDiv18(uint x, uint y) internal pure returns (uint decQuotient) {\r... */\n    tag_253:\n        /* \"WandInstruments.sol\":5379:5395  uint decQuotient */\n      0x00\n        /* \"WandInstruments.sol\":5408:5424  uint prod_xTEN18 */\n      dup1\n        /* \"WandInstruments.sol\":5427:5443  mul(x, DECIMALS) */\n      tag_438\n        /* \"WandInstruments.sol\":5431:5432  x */\n      dup5\n        /* \"WandInstruments.sol\":362:368  10**18 */\n      0x0de0b6b3a7640000\n        /* \"WandInstruments.sol\":5427:5430  mul */\n      tag_432\n        /* \"WandInstruments.sol\":5427:5443  mul(x, DECIMALS) */\n      jump\t// in\n    tag_438:\n        /* \"WandInstruments.sol\":5408:5443  uint prod_xTEN18 = mul(x, DECIMALS) */\n      swap1\n      pop\n        /* \"WandInstruments.sol\":5494:5495  y */\n      dup3\n        /* \"WandInstruments.sol\":5468:5491  add(prod_xTEN18, y / 2) */\n      tag_439\n        /* \"WandInstruments.sol\":5472:5483  prod_xTEN18 */\n      dup3\n        /* \"WandInstruments.sol\":5489:5490  2 */\n      0x02\n        /* \"WandInstruments.sol\":5485:5486  y */\n      dup7\n        /* \"WandInstruments.sol\":5485:5490  y / 2 */\n      tag_440\n      swap2\n      swap1\n      tag_235\n      jump\t// in\n    tag_440:\n        /* \"WandInstruments.sol\":5468:5471  add */\n      tag_435\n        /* \"WandInstruments.sol\":5468:5491  add(prod_xTEN18, y / 2) */\n      jump\t// in\n    tag_439:\n        /* \"WandInstruments.sol\":5468:5495  add(prod_xTEN18, y / 2) / y */\n      tag_441\n      swap2\n      swap1\n      tag_235\n      jump\t// in\n    tag_441:\n        /* \"WandInstruments.sol\":5454:5495  decQuotient = add(prod_xTEN18, y / 2) / y */\n      swap2\n      pop\n        /* \"WandInstruments.sol\":5397:5503  {\r... */\n      pop\n        /* \"WandInstruments.sol\":5322:5503  function decDiv18(uint x, uint y) internal pure returns (uint decQuotient) {\r... */\n      swap3\n      swap2\n      pop\n      pop\n      jump\t// out\n        /* \"WandInstruments.sol\":15957:16219  function _safeTransferFrom(\r... */\n    tag_281:\n        /* \"WandInstruments.sol\":16105:16114  bool sent */\n      0x00\n        /* \"WandInstruments.sol\":16117:16122  token */\n      dup5\n        /* \"WandInstruments.sol\":16117:16135  token.transferFrom */\n      0xffffffffffffffffffffffffffffffffffffffff\n      and\n      0x23b872dd\n        /* \"WandInstruments.sol\":16136:16142  sender */\n      dup6\n        /* \"WandInstruments.sol\":16144:16153  recipient */\n      dup6\n        /* \"WandInstruments.sol\":16155:16161  amount */\n      dup6\n        /* \"WandInstruments.sol\":16117:16162  token.transferFrom(sender, recipient, amount) */\n      mload(0x40)\n      dup5\n      0xffffffff\n      and\n      0xe0\n      shl\n      dup2\n      mstore\n      0x04\n      add\n      tag_443\n      swap4\n      swap3\n      swap2\n      swap1\n      tag_444\n      jump\t// in\n    tag_443:\n      0x20\n      mload(0x40)\n      dup1\n      dup4\n      sub\n      dup2\n      0x00\n      dup8\n      dup1\n      extcodesize\n      iszero\n      dup1\n      iszero\n      tag_445\n      jumpi\n      0x00\n      dup1\n      revert\n    tag_445:\n      pop\n      gas\n      call\n      iszero\n      dup1\n      iszero\n      tag_447\n      jumpi\n      returndatasize\n      0x00\n      dup1\n      returndatacopy\n      revert(0x00, returndatasize)\n    tag_447:\n      pop\n      pop\n      pop\n      pop\n      mload(0x40)\n      returndatasize\n      not(0x1f)\n      0x1f\n      dup3\n      add\n      and\n      dup3\n      add\n      dup1\n      0x40\n      mstore\n      pop\n      dup2\n      add\n      swap1\n      tag_448\n      swap2\n      swap1\n      tag_406\n      jump\t// in\n    tag_448:\n        /* \"WandInstruments.sol\":16105:16162  bool sent = token.transferFrom(sender, recipient, amount) */\n      swap1\n      pop\n        /* \"WandInstruments.sol\":16181:16185  sent */\n      dup1\n        /* \"WandInstruments.sol\":16173:16211  require(sent, \"Token transfer failed\") */\n      tag_449\n      jumpi\n      mload(0x40)\n      0x08c379a000000000000000000000000000000000000000000000000000000000\n      dup2\n      mstore\n      0x04\n      add\n      tag_450\n      swap1\n      tag_451\n      jump\t// in\n    tag_450:\n      mload(0x40)\n      dup1\n      swap2\n      sub\n      swap1\n      revert\n    tag_449:\n        /* \"WandInstruments.sol\":16094:16219  {\r... */\n      pop\n        /* \"WandInstruments.sol\":15957:16219  function _safeTransferFrom(\r... */\n      pop\n      pop\n      pop\n      pop\n      jump\t// out\n        /* \"WandInstruments.sol\":4327:4569  function mul(uint256 a, uint256 b) internal pure returns (uint256) {\r... */\n    tag_432:\n        /* \"WandInstruments.sol\":4385:4392  uint256 */\n      0x00\n        /* \"WandInstruments.sol\":4414:4415  0 */\n      dup1\n        /* \"WandInstruments.sol\":4409:4410  a */\n      dup4\n        /* \"WandInstruments.sol\":4409:4415  a == 0 */\n      eq\n        /* \"WandInstruments.sol\":4405:4448  if (a == 0) {\r... */\n      iszero\n      tag_453\n      jumpi\n        /* \"WandInstruments.sol\":4435:4436  0 */\n      0x00\n        /* \"WandInstruments.sol\":4428:4436  return 0 */\n      swap1\n      pop\n      jump(tag_452)\n        /* \"WandInstruments.sol\":4405:4448  if (a == 0) {\r... */\n    tag_453:\n        /* \"WandInstruments.sol\":4458:4467  uint256 c */\n      0x00\n        /* \"WandInstruments.sol\":4474:4475  b */\n      dup3\n        /* \"WandInstruments.sol\":4470:4471  a */\n      dup5\n        /* \"WandInstruments.sol\":4470:4475  a * b */\n      tag_454\n      swap2\n      swap1\n      tag_289\n      jump\t// in\n    tag_454:\n        /* \"WandInstruments.sol\":4458:4475  uint256 c = a * b */\n      swap1\n      pop\n        /* \"WandInstruments.sol\":4503:4504  b */\n      dup3\n        /* \"WandInstruments.sol\":4498:4499  a */\n      dup5\n        /* \"WandInstruments.sol\":4494:4495  c */\n      dup3\n        /* \"WandInstruments.sol\":4494:4499  c / a */\n      tag_455\n      swap2\n      swap1\n      tag_235\n      jump\t// in\n    tag_455:\n        /* \"WandInstruments.sol\":4494:4504  c / a == b */\n      eq\n        /* \"WandInstruments.sol\":4486:4542  require(c / a == b, \"uint overflow from multiplication\") */\n      tag_456\n      jumpi\n      mload(0x40)\n      0x08c379a000000000000000000000000000000000000000000000000000000000\n      dup2\n      mstore\n      0x04\n      add\n      tag_457\n      swap1\n      tag_458\n      jump\t// in\n    tag_457:\n      mload(0x40)\n      dup1\n      swap2\n      sub\n      swap1\n      revert\n    tag_456:\n        /* \"WandInstruments.sol\":4560:4561  c */\n      dup1\n        /* \"WandInstruments.sol\":4553:4561  return c */\n      swap2\n      pop\n      pop\n        /* \"WandInstruments.sol\":4327:4569  function mul(uint256 a, uint256 b) internal pure returns (uint256) {\r... */\n    tag_452:\n      swap3\n      swap2\n      pop\n      pop\n      jump\t// out\n        /* \"WandInstruments.sol\":4945:5130  function add(uint256 a, uint256 b) internal pure returns (uint256) {\r... */\n    tag_435:\n        /* \"WandInstruments.sol\":5003:5010  uint256 */\n      0x00\n        /* \"WandInstruments.sol\":5023:5032  uint256 c */\n      dup1\n        /* \"WandInstruments.sol\":5039:5040  b */\n      dup3\n        /* \"WandInstruments.sol\":5035:5036  a */\n      dup5\n        /* \"WandInstruments.sol\":5035:5040  a + b */\n      tag_460\n      swap2\n      swap1\n      tag_231\n      jump\t// in\n    tag_460:\n        /* \"WandInstruments.sol\":5023:5040  uint256 c = a + b */\n      swap1\n      pop\n        /* \"WandInstruments.sol\":5064:5065  a */\n      dup4\n        /* \"WandInstruments.sol\":5059:5060  c */\n      dup2\n        /* \"WandInstruments.sol\":5059:5065  c >= a */\n      lt\n      iszero\n        /* \"WandInstruments.sol\":5051:5103  require(c >= a, \"uint overflow from multiplication\") */\n      tag_461\n      jumpi\n      mload(0x40)\n      0x08c379a000000000000000000000000000000000000000000000000000000000\n      dup2\n      mstore\n      0x04\n      add\n      tag_462\n      swap1\n      tag_458\n      jump\t// in\n    tag_462:\n      mload(0x40)\n      dup1\n      swap2\n      sub\n      swap1\n      revert\n    tag_461:\n        /* \"WandInstruments.sol\":5121:5122  c */\n      dup1\n        /* \"WandInstruments.sol\":5114:5122  return c */\n      swap2\n      pop\n      pop\n        /* \"WandInstruments.sol\":4945:5130  function add(uint256 a, uint256 b) internal pure returns (uint256) {\r... */\n      swap3\n      swap2\n      pop\n      pop\n      jump\t// out\n        /* \"#utility.yul\":7:419   */\n    tag_464:\n        /* \"#utility.yul\":85:90   */\n      0x00\n        /* \"#utility.yul\":110:176   */\n      tag_466\n        /* \"#utility.yul\":126:175   */\n      tag_467\n        /* \"#utility.yul\":168:174   */\n      dup5\n        /* \"#utility.yul\":126:175   */\n      tag_468\n      jump\t// in\n    tag_467:\n        /* \"#utility.yul\":110:176   */\n      tag_469\n      jump\t// in\n    tag_466:\n        /* \"#utility.yul\":101:176   */\n      swap1\n      pop\n        /* \"#utility.yul\":199:205   */\n      dup3\n        /* \"#utility.yul\":192:197   */\n      dup2\n        /* \"#utility.yul\":185:206   */\n      mstore\n        /* \"#utility.yul\":237:241   */\n      0x20\n        /* \"#utility.yul\":230:235   */\n      dup2\n        /* \"#utility.yul\":226:242   */\n      add\n        /* \"#utility.yul\":275:278   */\n      dup5\n        /* \"#utility.yul\":266:272   */\n      dup5\n        /* \"#utility.yul\":261:264   */\n      dup5\n        /* \"#utility.yul\":257:273   */\n      add\n        /* \"#utility.yul\":254:279   */\n      gt\n        /* \"#utility.yul\":251:363   */\n      iszero\n      tag_470\n      jumpi\n        /* \"#utility.yul\":282:361   */\n      tag_471\n      tag_472\n      jump\t// in\n    tag_471:\n        /* \"#utility.yul\":251:363   */\n    tag_470:\n        /* \"#utility.yul\":372:413   */\n      tag_473\n        /* \"#utility.yul\":406:412   */\n      dup5\n        /* \"#utility.yul\":401:404   */\n      dup3\n        /* \"#utility.yul\":396:399   */\n      dup6\n        /* \"#utility.yul\":372:413   */\n      tag_474\n      jump\t// in\n    tag_473:\n        /* \"#utility.yul\":91:419   */\n      pop\n        /* \"#utility.yul\":7:419   */\n      swap4\n      swap3\n      pop\n      pop\n      pop\n      jump\t// out\n        /* \"#utility.yul\":425:564   */\n    tag_475:\n        /* \"#utility.yul\":471:476   */\n      0x00\n        /* \"#utility.yul\":509:515   */\n      dup2\n        /* \"#utility.yul\":496:516   */\n      calldataload\n        /* \"#utility.yul\":487:516   */\n      swap1\n      pop\n        /* \"#utility.yul\":525:558   */\n      tag_477\n        /* \"#utility.yul\":552:557   */\n      dup2\n        /* \"#utility.yul\":525:558   */\n      tag_478\n      jump\t// in\n    tag_477:\n        /* \"#utility.yul\":425:564   */\n      swap3\n      swap2\n      pop\n      pop\n      jump\t// out\n        /* \"#utility.yul\":570:707   */\n    tag_479:\n        /* \"#utility.yul\":624:629   */\n      0x00\n        /* \"#utility.yul\":655:661   */\n      dup2\n        /* \"#utility.yul\":649:662   */\n      mload\n        /* \"#utility.yul\":640:662   */\n      swap1\n      pop\n        /* \"#utility.yul\":671:701   */\n      tag_481\n        /* \"#utility.yul\":695:700   */\n      dup2\n        /* \"#utility.yul\":671:701   */\n      tag_482\n      jump\t// in\n    tag_481:\n        /* \"#utility.yul\":570:707   */\n      swap3\n      swap2\n      pop\n      pop\n      jump\t// out\n        /* \"#utility.yul\":727:1067   */\n    tag_483:\n        /* \"#utility.yul\":783:788   */\n      0x00\n        /* \"#utility.yul\":832:835   */\n      dup3\n        /* \"#utility.yul\":825:829   */\n      0x1f\n        /* \"#utility.yul\":817:823   */\n      dup4\n        /* \"#utility.yul\":813:830   */\n      add\n        /* \"#utility.yul\":809:836   */\n      slt\n        /* \"#utility.yul\":799:921   */\n      tag_485\n      jumpi\n        /* \"#utility.yul\":840:919   */\n      tag_486\n      tag_487\n      jump\t// in\n    tag_486:\n        /* \"#utility.yul\":799:921   */\n    tag_485:\n        /* \"#utility.yul\":957:963   */\n      dup2\n        /* \"#utility.yul\":944:964   */\n      calldataload\n        /* \"#utility.yul\":982:1061   */\n      tag_488\n        /* \"#utility.yul\":1057:1060   */\n      dup5\n        /* \"#utility.yul\":1049:1055   */\n      dup3\n        /* \"#utility.yul\":1042:1046   */\n      0x20\n        /* \"#utility.yul\":1034:1040   */\n      dup7\n        /* \"#utility.yul\":1030:1047   */\n      add\n        /* \"#utility.yul\":982:1061   */\n      tag_464\n      jump\t// in\n    tag_488:\n        /* \"#utility.yul\":973:1061   */\n      swap2\n      pop\n        /* \"#utility.yul\":789:1067   */\n      pop\n        /* \"#utility.yul\":727:1067   */\n      swap3\n      swap2\n      pop\n      pop\n      jump\t// out\n        /* \"#utility.yul\":1073:1212   */\n    tag_489:\n        /* \"#utility.yul\":1119:1124   */\n      0x00\n        /* \"#utility.yul\":1157:1163   */\n      dup2\n        /* \"#utility.yul\":1144:1164   */\n      calldataload\n        /* \"#utility.yul\":1135:1164   */\n      swap1\n      pop\n        /* \"#utility.yul\":1173:1206   */\n      tag_491\n        /* \"#utility.yul\":1200:1205   */\n      dup2\n        /* \"#utility.yul\":1173:1206   */\n      tag_492\n      jump\t// in\n    tag_491:\n        /* \"#utility.yul\":1073:1212   */\n      swap3\n      swap2\n      pop\n      pop\n      jump\t// out\n        /* \"#utility.yul\":1218:1361   */\n    tag_493:\n        /* \"#utility.yul\":1275:1280   */\n      0x00\n        /* \"#utility.yul\":1306:1312   */\n      dup2\n        /* \"#utility.yul\":1300:1313   */\n      mload\n        /* \"#utility.yul\":1291:1313   */\n      swap1\n      pop\n        /* \"#utility.yul\":1322:1355   */\n      tag_495\n        /* \"#utility.yul\":1349:1354   */\n      dup2\n        /* \"#utility.yul\":1322:1355   */\n      tag_492\n      jump\t// in\n    tag_495:\n        /* \"#utility.yul\":1218:1361   */\n      swap3\n      swap2\n      pop\n      pop\n      jump\t// out\n        /* \"#utility.yul\":1367:1696   */\n    tag_69:\n        /* \"#utility.yul\":1426:1432   */\n      0x00\n        /* \"#utility.yul\":1475:1477   */\n      0x20\n        /* \"#utility.yul\":1463:1472   */\n      dup3\n        /* \"#utility.yul\":1454:1461   */\n      dup5\n        /* \"#utility.yul\":1450:1473   */\n      sub\n        /* \"#utility.yul\":1446:1478   */\n      slt\n        /* \"#utility.yul\":1443:1562   */\n      iszero\n      tag_497\n      jumpi\n        /* \"#utility.yul\":1481:1560   */\n      tag_498\n      tag_499\n      jump\t// in\n    tag_498:\n        /* \"#utility.yul\":1443:1562   */\n    tag_497:\n        /* \"#utility.yul\":1601:1602   */\n      0x00\n        /* \"#utility.yul\":1626:1679   */\n      tag_500\n        /* \"#utility.yul\":1671:1678   */\n      dup5\n        /* \"#utility.yul\":1662:1668   */\n      dup3\n        /* \"#utility.yul\":1651:1660   */\n      dup6\n        /* \"#utility.yul\":1647:1669   */\n      add\n        /* \"#utility.yul\":1626:1679   */\n      tag_475\n      jump\t// in\n    tag_500:\n        /* \"#utility.yul\":1616:1679   */\n      swap2\n      pop\n        /* \"#utility.yul\":1572:1689   */\n      pop\n        /* \"#utility.yul\":1367:1696   */\n      swap3\n      swap2\n      pop\n      pop\n      jump\t// out\n        /* \"#utility.yul\":1702:2356   */\n    tag_172:\n        /* \"#utility.yul\":1780:1786   */\n      0x00\n        /* \"#utility.yul\":1788:1794   */\n      dup1\n        /* \"#utility.yul\":1837:1839   */\n      0x40\n        /* \"#utility.yul\":1825:1834   */\n      dup4\n        /* \"#utility.yul\":1816:1823   */\n      dup6\n        /* \"#utility.yul\":1812:1835   */\n      sub\n        /* \"#utility.yul\":1808:1840   */\n      slt\n        /* \"#utility.yul\":1805:1924   */\n      iszero\n      tag_502\n      jumpi\n        /* \"#utility.yul\":1843:1922   */\n      tag_503\n      tag_499\n      jump\t// in\n    tag_503:\n        /* \"#utility.yul\":1805:1924   */\n    tag_502:\n        /* \"#utility.yul\":1963:1964   */\n      0x00\n        /* \"#utility.yul\":1988:2041   */\n      tag_504\n        /* \"#utility.yul\":2033:2040   */\n      dup6\n        /* \"#utility.yul\":2024:2030   */\n      dup3\n        /* \"#utility.yul\":2013:2022   */\n      dup7\n        /* \"#utility.yul\":2009:2031   */\n      add\n        /* \"#utility.yul\":1988:2041   */\n      tag_475\n      jump\t// in\n    tag_504:\n        /* \"#utility.yul\":1978:2041   */\n      swap3\n      pop\n        /* \"#utility.yul\":1934:2051   */\n      pop\n        /* \"#utility.yul\":2118:2120   */\n      0x20\n        /* \"#utility.yul\":2107:2116   */\n      dup4\n        /* \"#utility.yul\":2103:2121   */\n      add\n        /* \"#utility.yul\":2090:2122   */\n      calldataload\n        /* \"#utility.yul\":2149:2167   */\n      0xffffffffffffffff\n        /* \"#utility.yul\":2141:2147   */\n      dup2\n        /* \"#utility.yul\":2138:2168   */\n      gt\n        /* \"#utility.yul\":2135:2252   */\n      iszero\n      tag_505\n      jumpi\n        /* \"#utility.yul\":2171:2250   */\n      tag_506\n      tag_507\n      jump\t// in\n    tag_506:\n        /* \"#utility.yul\":2135:2252   */\n    tag_505:\n        /* \"#utility.yul\":2276:2339   */\n      tag_508\n        /* \"#utility.yul\":2331:2338   */\n      dup6\n        /* \"#utility.yul\":2322:2328   */\n      dup3\n        /* \"#utility.yul\":2311:2320   */\n      dup7\n        /* \"#utility.yul\":2307:2329   */\n      add\n        /* \"#utility.yul\":2276:2339   */\n      tag_483\n      jump\t// in\n    tag_508:\n        /* \"#utility.yul\":2266:2339   */\n      swap2\n      pop\n        /* \"#utility.yul\":2061:2349   */\n      pop\n        /* \"#utility.yul\":1702:2356   */\n      swap3\n      pop\n      swap3\n      swap1\n      pop\n      jump\t// out\n        /* \"#utility.yul\":2362:2707   */\n    tag_406:\n        /* \"#utility.yul\":2429:2435   */\n      0x00\n        /* \"#utility.yul\":2478:2480   */\n      0x20\n        /* \"#utility.yul\":2466:2475   */\n      dup3\n        /* \"#utility.yul\":2457:2464   */\n      dup5\n        /* \"#utility.yul\":2453:2476   */\n      sub\n        /* \"#utility.yul\":2449:2481   */\n      slt\n        /* \"#utility.yul\":2446:2565   */\n      iszero\n      tag_510\n      jumpi\n        /* \"#utility.yul\":2484:2563   */\n      tag_511\n      tag_499\n      jump\t// in\n    tag_511:\n        /* \"#utility.yul\":2446:2565   */\n    tag_510:\n        /* \"#utility.yul\":2604:2605   */\n      0x00\n        /* \"#utility.yul\":2629:2690   */\n      tag_512\n        /* \"#utility.yul\":2682:2689   */\n      dup5\n        /* \"#utility.yul\":2673:2679   */\n      dup3\n        /* \"#utility.yul\":2662:2671   */\n      dup6\n        /* \"#utility.yul\":2658:2680   */\n      add\n        /* \"#utility.yul\":2629:2690   */\n      tag_479\n      jump\t// in\n    tag_512:\n        /* \"#utility.yul\":2619:2690   */\n      swap2\n      pop\n        /* \"#utility.yul\":2575:2700   */\n      pop\n        /* \"#utility.yul\":2362:2707   */\n      swap3\n      swap2\n      pop\n      pop\n      jump\t// out\n        /* \"#utility.yul\":2713:3222   */\n    tag_162:\n        /* \"#utility.yul\":2782:2788   */\n      0x00\n        /* \"#utility.yul\":2831:2833   */\n      0x20\n        /* \"#utility.yul\":2819:2828   */\n      dup3\n        /* \"#utility.yul\":2810:2817   */\n      dup5\n        /* \"#utility.yul\":2806:2829   */\n      sub\n        /* \"#utility.yul\":2802:2834   */\n      slt\n        /* \"#utility.yul\":2799:2918   */\n      iszero\n      tag_514\n      jumpi\n        /* \"#utility.yul\":2837:2916   */\n      tag_515\n      tag_499\n      jump\t// in\n    tag_515:\n        /* \"#utility.yul\":2799:2918   */\n    tag_514:\n        /* \"#utility.yul\":2985:2986   */\n      0x00\n        /* \"#utility.yul\":2974:2983   */\n      dup3\n        /* \"#utility.yul\":2970:2987   */\n      add\n        /* \"#utility.yul\":2957:2988   */\n      calldataload\n        /* \"#utility.yul\":3015:3033   */\n      0xffffffffffffffff\n        /* \"#utility.yul\":3007:3013   */\n      dup2\n        /* \"#utility.yul\":3004:3034   */\n      gt\n        /* \"#utility.yul\":3001:3118   */\n      iszero\n      tag_516\n      jumpi\n        /* \"#utility.yul\":3037:3116   */\n      tag_517\n      tag_507\n      jump\t// in\n    tag_517:\n        /* \"#utility.yul\":3001:3118   */\n    tag_516:\n        /* \"#utility.yul\":3142:3205   */\n      tag_518\n        /* \"#utility.yul\":3197:3204   */\n      dup5\n        /* \"#utility.yul\":3188:3194   */\n      dup3\n        /* \"#utility.yul\":3177:3186   */\n      dup6\n        /* \"#utility.yul\":3173:3195   */\n      add\n        /* \"#utility.yul\":3142:3205   */\n      tag_483\n      jump\t// in\n    tag_518:\n        /* \"#utility.yul\":3132:3205   */\n      swap2\n      pop\n        /* \"#utility.yul\":2928:3215   */\n      pop\n        /* \"#utility.yul\":2713:3222   */\n      swap3\n      swap2\n      pop\n      pop\n      jump\t// out\n        /* \"#utility.yul\":3228:4027   */\n    tag_201:\n        /* \"#utility.yul\":3315:3321   */\n      0x00\n        /* \"#utility.yul\":3323:3329   */\n      dup1\n        /* \"#utility.yul\":3331:3337   */\n      0x00\n        /* \"#utility.yul\":3380:3382   */\n      0x60\n        /* \"#utility.yul\":3368:3377   */\n      dup5\n        /* \"#utility.yul\":3359:3366   */\n      dup7\n        /* \"#utility.yul\":3355:3378   */\n      sub\n        /* \"#utility.yul\":3351:3383   */\n      slt\n        /* \"#utility.yul\":3348:3467   */\n      iszero\n      tag_520\n      jumpi\n        /* \"#utility.yul\":3386:3465   */\n      tag_521\n      tag_499\n      jump\t// in\n    tag_521:\n        /* \"#utility.yul\":3348:3467   */\n    tag_520:\n        /* \"#utility.yul\":3534:3535   */\n      0x00\n        /* \"#utility.yul\":3523:3532   */\n      dup5\n        /* \"#utility.yul\":3519:3536   */\n      add\n        /* \"#utility.yul\":3506:3537   */\n      calldataload\n        /* \"#utility.yul\":3564:3582   */\n      0xffffffffffffffff\n        /* \"#utility.yul\":3556:3562   */\n      dup2\n        /* \"#utility.yul\":3553:3583   */\n      gt\n        /* \"#utility.yul\":3550:3667   */\n      iszero\n      tag_522\n      jumpi\n        /* \"#utility.yul\":3586:3665   */\n      tag_523\n      tag_507\n      jump\t// in\n    tag_523:\n        /* \"#utility.yul\":3550:3667   */\n    tag_522:\n        /* \"#utility.yul\":3691:3754   */\n      tag_524\n        /* \"#utility.yul\":3746:3753   */\n      dup7\n        /* \"#utility.yul\":3737:3743   */\n      dup3\n        /* \"#utility.yul\":3726:3735   */\n      dup8\n        /* \"#utility.yul\":3722:3744   */\n      add\n        /* \"#utility.yul\":3691:3754   */\n      tag_483\n      jump\t// in\n    tag_524:\n        /* \"#utility.yul\":3681:3754   */\n      swap4\n      pop\n        /* \"#utility.yul\":3477:3764   */\n      pop\n        /* \"#utility.yul\":3803:3805   */\n      0x20\n        /* \"#utility.yul\":3829:3882   */\n      tag_525\n        /* \"#utility.yul\":3874:3881   */\n      dup7\n        /* \"#utility.yul\":3865:3871   */\n      dup3\n        /* \"#utility.yul\":3854:3863   */\n      dup8\n        /* \"#utility.yul\":3850:3872   */\n      add\n        /* \"#utility.yul\":3829:3882   */\n      tag_475\n      jump\t// in\n    tag_525:\n        /* \"#utility.yul\":3819:3882   */\n      swap3\n      pop\n        /* \"#utility.yul\":3774:3892   */\n      pop\n        /* \"#utility.yul\":3931:3933   */\n      0x40\n        /* \"#utility.yul\":3957:4010   */\n      tag_526\n        /* \"#utility.yul\":4002:4009   */\n      dup7\n        /* \"#utility.yul\":3993:3999   */\n      dup3\n        /* \"#utility.yul\":3982:3991   */\n      dup8\n        /* \"#utility.yul\":3978:4000   */\n      add\n        /* \"#utility.yul\":3957:4010   */\n      tag_489\n      jump\t// in\n    tag_526:\n        /* \"#utility.yul\":3947:4010   */\n      swap2\n      pop\n        /* \"#utility.yul\":3902:4020   */\n      pop\n        /* \"#utility.yul\":3228:4027   */\n      swap3\n      pop\n      swap3\n      pop\n      swap3\n      jump\t// out\n        /* \"#utility.yul\":4033:4362   */\n    tag_76:\n        /* \"#utility.yul\":4092:4098   */\n      0x00\n        /* \"#utility.yul\":4141:4143   */\n      0x20\n        /* \"#utility.yul\":4129:4138   */\n      dup3\n        /* \"#utility.yul\":4120:4127   */\n      dup5\n        /* \"#utility.yul\":4116:4139   */\n      sub\n        /* \"#utility.yul\":4112:4144   */\n      slt\n        /* \"#utility.yul\":4109:4228   */\n      iszero\n      tag_528\n      jumpi\n        /* \"#utility.yul\":4147:4226   */\n      tag_529\n      tag_499\n      jump\t// in\n    tag_529:\n        /* \"#utility.yul\":4109:4228   */\n    tag_528:\n        /* \"#utility.yul\":4267:4268   */\n      0x00\n        /* \"#utility.yul\":4292:4345   */\n      tag_530\n        /* \"#utility.yul\":4337:4344   */\n      dup5\n        /* \"#utility.yul\":4328:4334   */\n      dup3\n        /* \"#utility.yul\":4317:4326   */\n      dup6\n        /* \"#utility.yul\":4313:4335   */\n      add\n        /* \"#utility.yul\":4292:4345   */\n      tag_489\n      jump\t// in\n    tag_530:\n        /* \"#utility.yul\":4282:4345   */\n      swap2\n      pop\n        /* \"#utility.yul\":4238:4355   */\n      pop\n        /* \"#utility.yul\":4033:4362   */\n      swap3\n      swap2\n      pop\n      pop\n      jump\t// out\n        /* \"#utility.yul\":4368:4719   */\n    tag_225:\n        /* \"#utility.yul\":4438:4444   */\n      0x00\n        /* \"#utility.yul\":4487:4489   */\n      0x20\n        /* \"#utility.yul\":4475:4484   */\n      dup3\n        /* \"#utility.yul\":4466:4473   */\n      dup5\n        /* \"#utility.yul\":4462:4485   */\n      sub\n        /* \"#utility.yul\":4458:4490   */\n      slt\n        /* \"#utility.yul\":4455:4574   */\n      iszero\n      tag_532\n      jumpi\n        /* \"#utility.yul\":4493:4572   */\n      tag_533\n      tag_499\n      jump\t// in\n    tag_533:\n        /* \"#utility.yul\":4455:4574   */\n    tag_532:\n        /* \"#utility.yul\":4613:4614   */\n      0x00\n        /* \"#utility.yul\":4638:4702   */\n      tag_534\n        /* \"#utility.yul\":4694:4701   */\n      dup5\n        /* \"#utility.yul\":4685:4691   */\n      dup3\n        /* \"#utility.yul\":4674:4683   */\n      dup6\n        /* \"#utility.yul\":4670:4692   */\n      add\n        /* \"#utility.yul\":4638:4702   */\n      tag_493\n      jump\t// in\n    tag_534:\n        /* \"#utility.yul\":4628:4702   */\n      swap2\n      pop\n        /* \"#utility.yul\":4584:4712   */\n      pop\n        /* \"#utility.yul\":4368:4719   */\n      swap3\n      swap2\n      pop\n      pop\n      jump\t// out\n        /* \"#utility.yul\":4725:5379   */\n    tag_149:\n        /* \"#utility.yul\":4803:4809   */\n      0x00\n        /* \"#utility.yul\":4811:4817   */\n      dup1\n        /* \"#utility.yul\":4860:4862   */\n      0x40\n        /* \"#utility.yul\":4848:4857   */\n      dup4\n        /* \"#utility.yul\":4839:4846   */\n      dup6\n        /* \"#utility.yul\":4835:4858   */\n      sub\n        /* \"#utility.yul\":4831:4863   */\n      slt\n        /* \"#utility.yul\":4828:4947   */\n      iszero\n      tag_536\n      jumpi\n        /* \"#utility.yul\":4866:4945   */\n      tag_537\n      tag_499\n      jump\t// in\n    tag_537:\n        /* \"#utility.yul\":4828:4947   */\n    tag_536:\n        /* \"#utility.yul\":4986:4987   */\n      0x00\n        /* \"#utility.yul\":5011:5064   */\n      tag_538\n        /* \"#utility.yul\":5056:5063   */\n      dup6\n        /* \"#utility.yul\":5047:5053   */\n      dup3\n        /* \"#utility.yul\":5036:5045   */\n      dup7\n        /* \"#utility.yul\":5032:5054   */\n      add\n        /* \"#utility.yul\":5011:5064   */\n      tag_489\n      jump\t// in\n    tag_538:\n        /* \"#utility.yul\":5001:5064   */\n      swap3\n      pop\n        /* \"#utility.yul\":4957:5074   */\n      pop\n        /* \"#utility.yul\":5141:5143   */\n      0x20\n        /* \"#utility.yul\":5130:5139   */\n      dup4\n        /* \"#utility.yul\":5126:5144   */\n      add\n        /* \"#utility.yul\":5113:5145   */\n      calldataload\n        /* \"#utility.yul\":5172:5190   */\n      0xffffffffffffffff\n        /* \"#utility.yul\":5164:5170   */\n      dup2\n        /* \"#utility.yul\":5161:5191   */\n      gt\n        /* \"#utility.yul\":5158:5275   */\n      iszero\n      tag_539\n      jumpi\n        /* \"#utility.yul\":5194:5273   */\n      tag_540\n      tag_507\n      jump\t// in\n    tag_540:\n        /* \"#utility.yul\":5158:5275   */\n    tag_539:\n        /* \"#utility.yul\":5299:5362   */\n      tag_541\n        /* \"#utility.yul\":5354:5361   */\n      dup6\n        /* \"#utility.yul\":5345:5351   */\n      dup3\n        /* \"#utility.yul\":5334:5343   */\n      dup7\n        /* \"#utility.yul\":5330:5352   */\n      add\n        /* \"#utility.yul\":5299:5362   */\n      tag_483\n      jump\t// in\n    tag_541:\n        /* \"#utility.yul\":5289:5362   */\n      swap2\n      pop\n        /* \"#utility.yul\":5084:5372   */\n      pop\n        /* \"#utility.yul\":4725:5379   */\n      swap3\n      pop\n      swap3\n      swap1\n      pop\n      jump\t// out\n        /* \"#utility.yul\":5385:6184   */\n    tag_184:\n        /* \"#utility.yul\":5472:5478   */\n      0x00\n        /* \"#utility.yul\":5480:5486   */\n      dup1\n        /* \"#utility.yul\":5488:5494   */\n      0x00\n        /* \"#utility.yul\":5537:5539   */\n      0x60\n        /* \"#utility.yul\":5525:5534   */\n      dup5\n        /* \"#utility.yul\":5516:5523   */\n      dup7\n        /* \"#utility.yul\":5512:5535   */\n      sub\n        /* \"#utility.yul\":5508:5540   */\n      slt\n        /* \"#utility.yul\":5505:5624   */\n      iszero\n      tag_543\n      jumpi\n        /* \"#utility.yul\":5543:5622   */\n      tag_544\n      tag_499\n      jump\t// in\n    tag_544:\n        /* \"#utility.yul\":5505:5624   */\n    tag_543:\n        /* \"#utility.yul\":5663:5664   */\n      0x00\n        /* \"#utility.yul\":5688:5741   */\n      tag_545\n        /* \"#utility.yul\":5733:5740   */\n      dup7\n        /* \"#utility.yul\":5724:5730   */\n      dup3\n        /* \"#utility.yul\":5713:5722   */\n      dup8\n        /* \"#utility.yul\":5709:5731   */\n      add\n        /* \"#utility.yul\":5688:5741   */\n      tag_489\n      jump\t// in\n    tag_545:\n        /* \"#utility.yul\":5678:5741   */\n      swap4\n      pop\n        /* \"#utility.yul\":5634:5751   */\n      pop\n        /* \"#utility.yul\":5790:5792   */\n      0x20\n        /* \"#utility.yul\":5816:5869   */\n      tag_546\n        /* \"#utility.yul\":5861:5868   */\n      dup7\n        /* \"#utility.yul\":5852:5858   */\n      dup3\n        /* \"#utility.yul\":5841:5850   */\n      dup8\n        /* \"#utility.yul\":5837:5859   */\n      add\n        /* \"#utility.yul\":5816:5869   */\n      tag_489\n      jump\t// in\n    tag_546:\n        /* \"#utility.yul\":5806:5869   */\n      swap3\n      pop\n        /* \"#utility.yul\":5761:5879   */\n      pop\n        /* \"#utility.yul\":5946:5948   */\n      0x40\n        /* \"#utility.yul\":5935:5944   */\n      dup5\n        /* \"#utility.yul\":5931:5949   */\n      add\n        /* \"#utility.yul\":5918:5950   */\n      calldataload\n        /* \"#utility.yul\":5977:5995   */\n      0xffffffffffffffff\n        /* \"#utility.yul\":5969:5975   */\n      dup2\n        /* \"#utility.yul\":5966:5996   */\n      gt\n        /* \"#utility.yul\":5963:6080   */\n      iszero\n      tag_547\n      jumpi\n        /* \"#utility.yul\":5999:6078   */\n      tag_548\n      tag_507\n      jump\t// in\n    tag_548:\n        /* \"#utility.yul\":5963:6080   */\n    tag_547:\n        /* \"#utility.yul\":6104:6167   */\n      tag_549\n        /* \"#utility.yul\":6159:6166   */\n      dup7\n        /* \"#utility.yul\":6150:6156   */\n      dup3\n        /* \"#utility.yul\":6139:6148   */\n      dup8\n        /* \"#utility.yul\":6135:6157   */\n      add\n        /* \"#utility.yul\":6104:6167   */\n      tag_483\n      jump\t// in\n    tag_549:\n        /* \"#utility.yul\":6094:6167   */\n      swap2\n      pop\n        /* \"#utility.yul\":5889:6177   */\n      pop\n        /* \"#utility.yul\":5385:6184   */\n      swap3\n      pop\n      swap3\n      pop\n      swap3\n      jump\t// out\n        /* \"#utility.yul\":6190:6308   */\n    tag_550:\n        /* \"#utility.yul\":6277:6301   */\n      tag_552\n        /* \"#utility.yul\":6295:6300   */\n      dup2\n        /* \"#utility.yul\":6277:6301   */\n      tag_553\n      jump\t// in\n    tag_552:\n        /* \"#utility.yul\":6272:6275   */\n      dup3\n        /* \"#utility.yul\":6265:6302   */\n      mstore\n        /* \"#utility.yul\":6190:6308   */\n      pop\n      pop\n      jump\t// out\n        /* \"#utility.yul\":6314:6475   */\n    tag_554:\n        /* \"#utility.yul\":6416:6468   */\n      tag_556\n        /* \"#utility.yul\":6462:6467   */\n      dup2\n        /* \"#utility.yul\":6416:6468   */\n      tag_557\n      jump\t// in\n    tag_556:\n        /* \"#utility.yul\":6411:6414   */\n      dup3\n        /* \"#utility.yul\":6404:6469   */\n      mstore\n        /* \"#utility.yul\":6314:6475   */\n      pop\n      pop\n      jump\t// out\n        /* \"#utility.yul\":6481:6596   */\n    tag_558:\n        /* \"#utility.yul\":6566:6589   */\n      tag_560\n        /* \"#utility.yul\":6583:6588   */\n      dup2\n        /* \"#utility.yul\":6566:6589   */\n      tag_561\n      jump\t// in\n    tag_560:\n        /* \"#utility.yul\":6561:6564   */\n      dup3\n        /* \"#utility.yul\":6554:6590   */\n      mstore\n        /* \"#utility.yul\":6481:6596   */\n      pop\n      pop\n      jump\t// out\n        /* \"#utility.yul\":6602:6979   */\n    tag_562:\n        /* \"#utility.yul\":6708:6711   */\n      0x00\n        /* \"#utility.yul\":6736:6775   */\n      tag_564\n        /* \"#utility.yul\":6769:6774   */\n      dup3\n        /* \"#utility.yul\":6736:6775   */\n      tag_565\n      jump\t// in\n    tag_564:\n        /* \"#utility.yul\":6791:6880   */\n      tag_566\n        /* \"#utility.yul\":6873:6879   */\n      dup2\n        /* \"#utility.yul\":6868:6871   */\n      dup6\n        /* \"#utility.yul\":6791:6880   */\n      tag_567\n      jump\t// in\n    tag_566:\n        /* \"#utility.yul\":6784:6880   */\n      swap4\n      pop\n        /* \"#utility.yul\":6889:6941   */\n      tag_568\n        /* \"#utility.yul\":6934:6940   */\n      dup2\n        /* \"#utility.yul\":6929:6932   */\n      dup6\n        /* \"#utility.yul\":6922:6926   */\n      0x20\n        /* \"#utility.yul\":6915:6920   */\n      dup7\n        /* \"#utility.yul\":6911:6927   */\n      add\n        /* \"#utility.yul\":6889:6941   */\n      tag_569\n      jump\t// in\n    tag_568:\n        /* \"#utility.yul\":6966:6972   */\n      dup1\n        /* \"#utility.yul\":6961:6964   */\n      dup5\n        /* \"#utility.yul\":6957:6973   */\n      add\n        /* \"#utility.yul\":6950:6973   */\n      swap2\n      pop\n        /* \"#utility.yul\":6712:6979   */\n      pop\n        /* \"#utility.yul\":6602:6979   */\n      swap3\n      swap2\n      pop\n      pop\n      jump\t// out\n        /* \"#utility.yul\":6985:7351   */\n    tag_570:\n        /* \"#utility.yul\":7127:7130   */\n      0x00\n        /* \"#utility.yul\":7148:7215   */\n      tag_572\n        /* \"#utility.yul\":7212:7214   */\n      0x24\n        /* \"#utility.yul\":7207:7210   */\n      dup4\n        /* \"#utility.yul\":7148:7215   */\n      tag_573\n      jump\t// in\n    tag_572:\n        /* \"#utility.yul\":7141:7215   */\n      swap2\n      pop\n        /* \"#utility.yul\":7224:7317   */\n      tag_574\n        /* \"#utility.yul\":7313:7316   */\n      dup3\n        /* \"#utility.yul\":7224:7317   */\n      tag_575\n      jump\t// in\n    tag_574:\n        /* \"#utility.yul\":7342:7344   */\n      0x40\n        /* \"#utility.yul\":7337:7340   */\n      dup3\n        /* \"#utility.yul\":7333:7345   */\n      add\n        /* \"#utility.yul\":7326:7345   */\n      swap1\n      pop\n        /* \"#utility.yul\":6985:7351   */\n      swap2\n      swap1\n      pop\n      jump\t// out\n        /* \"#utility.yul\":7357:7723   */\n    tag_576:\n        /* \"#utility.yul\":7499:7502   */\n      0x00\n        /* \"#utility.yul\":7520:7587   */\n      tag_578\n        /* \"#utility.yul\":7584:7586   */\n      0x15\n        /* \"#utility.yul\":7579:7582   */\n      dup4\n        /* \"#utility.yul\":7520:7587   */\n      tag_573\n      jump\t// in\n    tag_578:\n        /* \"#utility.yul\":7513:7587   */\n      swap2\n      pop\n        /* \"#utility.yul\":7596:7689   */\n      tag_579\n        /* \"#utility.yul\":7685:7688   */\n      dup3\n        /* \"#utility.yul\":7596:7689   */\n      tag_580\n      jump\t// in\n    tag_579:\n        /* \"#utility.yul\":7714:7716   */\n      0x20\n        /* \"#utility.yul\":7709:7712   */\n      dup3\n        /* \"#utility.yul\":7705:7717   */\n      add\n        /* \"#utility.yul\":7698:7717   */\n      swap1\n      pop\n        /* \"#utility.yul\":7357:7723   */\n      swap2\n      swap1\n      pop\n      jump\t// out\n        /* \"#utility.yul\":7729:8095   */\n    tag_581:\n        /* \"#utility.yul\":7871:7874   */\n      0x00\n        /* \"#utility.yul\":7892:7959   */\n      tag_583\n        /* \"#utility.yul\":7956:7958   */\n      0x1a\n        /* \"#utility.yul\":7951:7954   */\n      dup4\n        /* \"#utility.yul\":7892:7959   */\n      tag_573\n      jump\t// in\n    tag_583:\n        /* \"#utility.yul\":7885:7959   */\n      swap2\n      pop\n        /* \"#utility.yul\":7968:8061   */\n      tag_584\n        /* \"#utility.yul\":8057:8060   */\n      dup3\n        /* \"#utility.yul\":7968:8061   */\n      tag_585\n      jump\t// in\n    tag_584:\n        /* \"#utility.yul\":8086:8088   */\n      0x20\n        /* \"#utility.yul\":8081:8084   */\n      dup3\n        /* \"#utility.yul\":8077:8089   */\n      add\n        /* \"#utility.yul\":8070:8089   */\n      swap1\n      pop\n        /* \"#utility.yul\":7729:8095   */\n      swap2\n      swap1\n      pop\n      jump\t// out\n        /* \"#utility.yul\":8101:8467   */\n    tag_586:\n        /* \"#utility.yul\":8243:8246   */\n      0x00\n        /* \"#utility.yul\":8264:8331   */\n      tag_588\n        /* \"#utility.yul\":8328:8330   */\n      0x15\n        /* \"#utility.yul\":8323:8326   */\n      dup4\n        /* \"#utility.yul\":8264:8331   */\n      tag_573\n      jump\t// in\n    tag_588:\n        /* \"#utility.yul\":8257:8331   */\n      swap2\n      pop\n        /* \"#utility.yul\":8340:8433   */\n      tag_589\n        /* \"#utility.yul\":8429:8432   */\n      dup3\n        /* \"#utility.yul\":8340:8433   */\n      tag_590\n      jump\t// in\n    tag_589:\n        /* \"#utility.yul\":8458:8460   */\n      0x20\n        /* \"#utility.yul\":8453:8456   */\n      dup3\n        /* \"#utility.yul\":8449:8461   */\n      add\n        /* \"#utility.yul\":8442:8461   */\n      swap1\n      pop\n        /* \"#utility.yul\":8101:8467   */\n      swap2\n      swap1\n      pop\n      jump\t// out\n        /* \"#utility.yul\":8473:8873   */\n    tag_591:\n        /* \"#utility.yul\":8633:8636   */\n      0x00\n        /* \"#utility.yul\":8654:8738   */\n      tag_593\n        /* \"#utility.yul\":8736:8737   */\n      0x04\n        /* \"#utility.yul\":8731:8734   */\n      dup4\n        /* \"#utility.yul\":8654:8738   */\n      tag_567\n      jump\t// in\n    tag_593:\n        /* \"#utility.yul\":8647:8738   */\n      swap2\n      pop\n        /* \"#utility.yul\":8747:8840   */\n      tag_594\n        /* \"#utility.yul\":8836:8839   */\n      dup3\n        /* \"#utility.yul\":8747:8840   */\n      tag_595\n      jump\t// in\n    tag_594:\n        /* \"#utility.yul\":8865:8866   */\n      0x04\n        /* \"#utility.yul\":8860:8863   */\n      dup3\n        /* \"#utility.yul\":8856:8867   */\n      add\n        /* \"#utility.yul\":8849:8867   */\n      swap1\n      pop\n        /* \"#utility.yul\":8473:8873   */\n      swap2\n      swap1\n      pop\n      jump\t// out\n        /* \"#utility.yul\":8879:9245   */\n    tag_596:\n        /* \"#utility.yul\":9021:9024   */\n      0x00\n        /* \"#utility.yul\":9042:9109   */\n      tag_598\n        /* \"#utility.yul\":9106:9108   */\n      0x0c\n        /* \"#utility.yul\":9101:9104   */\n      dup4\n        /* \"#utility.yul\":9042:9109   */\n      tag_573\n      jump\t// in\n    tag_598:\n        /* \"#utility.yul\":9035:9109   */\n      swap2\n      pop\n        /* \"#utility.yul\":9118:9211   */\n      tag_599\n        /* \"#utility.yul\":9207:9210   */\n      dup3\n        /* \"#utility.yul\":9118:9211   */\n      tag_600\n      jump\t// in\n    tag_599:\n        /* \"#utility.yul\":9236:9238   */\n      0x20\n        /* \"#utility.yul\":9231:9234   */\n      dup3\n        /* \"#utility.yul\":9227:9239   */\n      add\n        /* \"#utility.yul\":9220:9239   */\n      swap1\n      pop\n        /* \"#utility.yul\":8879:9245   */\n      swap2\n      swap1\n      pop\n      jump\t// out\n        /* \"#utility.yul\":9251:9617   */\n    tag_601:\n        /* \"#utility.yul\":9393:9396   */\n      0x00\n        /* \"#utility.yul\":9414:9481   */\n      tag_603\n        /* \"#utility.yul\":9478:9480   */\n      0x1f\n        /* \"#utility.yul\":9473:9476   */\n      dup4\n        /* \"#utility.yul\":9414:9481   */\n      tag_573\n      jump\t// in\n    tag_603:\n        /* \"#utility.yul\":9407:9481   */\n      swap2\n      pop\n        /* \"#utility.yul\":9490:9583   */\n      tag_604\n        /* \"#utility.yul\":9579:9582   */\n      dup3\n        /* \"#utility.yul\":9490:9583   */\n      tag_605\n      jump\t// in\n    tag_604:\n        /* \"#utility.yul\":9608:9610   */\n      0x20\n        /* \"#utility.yul\":9603:9606   */\n      dup3\n        /* \"#utility.yul\":9599:9611   */\n      add\n        /* \"#utility.yul\":9592:9611   */\n      swap1\n      pop\n        /* \"#utility.yul\":9251:9617   */\n      swap2\n      swap1\n      pop\n      jump\t// out\n        /* \"#utility.yul\":9623:9989   */\n    tag_606:\n        /* \"#utility.yul\":9765:9768   */\n      0x00\n        /* \"#utility.yul\":9786:9853   */\n      tag_608\n        /* \"#utility.yul\":9850:9852   */\n      0x21\n        /* \"#utility.yul\":9845:9848   */\n      dup4\n        /* \"#utility.yul\":9786:9853   */\n      tag_573\n      jump\t// in\n    tag_608:\n        /* \"#utility.yul\":9779:9853   */\n      swap2\n      pop\n        /* \"#utility.yul\":9862:9955   */\n      tag_609\n        /* \"#utility.yul\":9951:9954   */\n      dup3\n        /* \"#utility.yul\":9862:9955   */\n      tag_610\n      jump\t// in\n    tag_609:\n        /* \"#utility.yul\":9980:9982   */\n      0x40\n        /* \"#utility.yul\":9975:9978   */\n      dup3\n        /* \"#utility.yul\":9971:9983   */\n      add\n        /* \"#utility.yul\":9964:9983   */\n      swap1\n      pop\n        /* \"#utility.yul\":9623:9989   */\n      swap2\n      swap1\n      pop\n      jump\t// out\n        /* \"#utility.yul\":9995:10113   */\n    tag_611:\n        /* \"#utility.yul\":10082:10106   */\n      tag_613\n        /* \"#utility.yul\":10100:10105   */\n      dup2\n        /* \"#utility.yul\":10082:10106   */\n      tag_614\n      jump\t// in\n    tag_613:\n        /* \"#utility.yul\":10077:10080   */\n      dup3\n        /* \"#utility.yul\":10070:10107   */\n      mstore\n        /* \"#utility.yul\":9995:10113   */\n      pop\n      pop\n      jump\t// out\n        /* \"#utility.yul\":10119:10394   */\n    tag_327:\n        /* \"#utility.yul\":10251:10254   */\n      0x00\n        /* \"#utility.yul\":10273:10368   */\n      tag_616\n        /* \"#utility.yul\":10364:10367   */\n      dup3\n        /* \"#utility.yul\":10355:10361   */\n      dup5\n        /* \"#utility.yul\":10273:10368   */\n      tag_562\n      jump\t// in\n    tag_616:\n        /* \"#utility.yul\":10266:10368   */\n      swap2\n      pop\n        /* \"#utility.yul\":10385:10388   */\n      dup2\n        /* \"#utility.yul\":10378:10388   */\n      swap1\n      pop\n        /* \"#utility.yul\":10119:10394   */\n      swap3\n      swap2\n      pop\n      pop\n      jump\t// out\n        /* \"#utility.yul\":10400:10781   */\n    tag_383:\n        /* \"#utility.yul\":10585:10588   */\n      0x00\n        /* \"#utility.yul\":10607:10755   */\n      tag_618\n        /* \"#utility.yul\":10751:10754   */\n      dup3\n        /* \"#utility.yul\":10607:10755   */\n      tag_591\n      jump\t// in\n    tag_618:\n        /* \"#utility.yul\":10600:10755   */\n      swap2\n      pop\n        /* \"#utility.yul\":10772:10775   */\n      dup2\n        /* \"#utility.yul\":10765:10775   */\n      swap1\n      pop\n        /* \"#utility.yul\":10400:10781   */\n      swap2\n      swap1\n      pop\n      jump\t// out\n        /* \"#utility.yul\":10787:11009   */\n    tag_57:\n        /* \"#utility.yul\":10880:10884   */\n      0x00\n        /* \"#utility.yul\":10918:10920   */\n      0x20\n        /* \"#utility.yul\":10907:10916   */\n      dup3\n        /* \"#utility.yul\":10903:10921   */\n      add\n        /* \"#utility.yul\":10895:10921   */\n      swap1\n      pop\n        /* \"#utility.yul\":10931:11002   */\n      tag_620\n        /* \"#utility.yul\":10999:11000   */\n      0x00\n        /* \"#utility.yul\":10988:10997   */\n      dup4\n        /* \"#utility.yul\":10984:11001   */\n      add\n        /* \"#utility.yul\":10975:10981   */\n      dup5\n        /* \"#utility.yul\":10931:11002   */\n      tag_550\n      jump\t// in\n    tag_620:\n        /* \"#utility.yul\":10787:11009   */\n      swap3\n      swap2\n      pop\n      pop\n      jump\t// out\n        /* \"#utility.yul\":11015:11457   */\n    tag_444:\n        /* \"#utility.yul\":11164:11168   */\n      0x00\n        /* \"#utility.yul\":11202:11204   */\n      0x60\n        /* \"#utility.yul\":11191:11200   */\n      dup3\n        /* \"#utility.yul\":11187:11205   */\n      add\n        /* \"#utility.yul\":11179:11205   */\n      swap1\n      pop\n        /* \"#utility.yul\":11215:11286   */\n      tag_622\n        /* \"#utility.yul\":11283:11284   */\n      0x00\n        /* \"#utility.yul\":11272:11281   */\n      dup4\n        /* \"#utility.yul\":11268:11285   */\n      add\n        /* \"#utility.yul\":11259:11265   */\n      dup7\n        /* \"#utility.yul\":11215:11286   */\n      tag_550\n      jump\t// in\n    tag_622:\n        /* \"#utility.yul\":11296:11368   */\n      tag_623\n        /* \"#utility.yul\":11364:11366   */\n      0x20\n        /* \"#utility.yul\":11353:11362   */\n      dup4\n        /* \"#utility.yul\":11349:11367   */\n      add\n        /* \"#utility.yul\":11340:11346   */\n      dup6\n        /* \"#utility.yul\":11296:11368   */\n      tag_550\n      jump\t// in\n    tag_623:\n        /* \"#utility.yul\":11378:11450   */\n      tag_624\n        /* \"#utility.yul\":11446:11448   */\n      0x40\n        /* \"#utility.yul\":11435:11444   */\n      dup4\n        /* \"#utility.yul\":11431:11449   */\n      add\n        /* \"#utility.yul\":11422:11428   */\n      dup5\n        /* \"#utility.yul\":11378:11450   */\n      tag_611\n      jump\t// in\n    tag_624:\n        /* \"#utility.yul\":11015:11457   */\n      swap5\n      swap4\n      pop\n      pop\n      pop\n      pop\n      jump\t// out\n        /* \"#utility.yul\":11463:11795   */\n    tag_165:\n        /* \"#utility.yul\":11584:11588   */\n      0x00\n        /* \"#utility.yul\":11622:11624   */\n      0x40\n        /* \"#utility.yul\":11611:11620   */\n      dup3\n        /* \"#utility.yul\":11607:11625   */\n      add\n        /* \"#utility.yul\":11599:11625   */\n      swap1\n      pop\n        /* \"#utility.yul\":11635:11706   */\n      tag_626\n        /* \"#utility.yul\":11703:11704   */\n      0x00\n        /* \"#utility.yul\":11692:11701   */\n      dup4\n        /* \"#utility.yul\":11688:11705   */\n      add\n        /* \"#utility.yul\":11679:11685   */\n      dup6\n        /* \"#utility.yul\":11635:11706   */\n      tag_550\n      jump\t// in\n    tag_626:\n        /* \"#utility.yul\":11716:11788   */\n      tag_627\n        /* \"#utility.yul\":11784:11786   */\n      0x20\n        /* \"#utility.yul\":11773:11782   */\n      dup4\n        /* \"#utility.yul\":11769:11787   */\n      add\n        /* \"#utility.yul\":11760:11766   */\n      dup5\n        /* \"#utility.yul\":11716:11788   */\n      tag_611\n      jump\t// in\n    tag_627:\n        /* \"#utility.yul\":11463:11795   */\n      swap4\n      swap3\n      pop\n      pop\n      pop\n      jump\t// out\n        /* \"#utility.yul\":11801:12053   */\n    tag_99:\n        /* \"#utility.yul\":11909:11913   */\n      0x00\n        /* \"#utility.yul\":11947:11949   */\n      0x20\n        /* \"#utility.yul\":11936:11945   */\n      dup3\n        /* \"#utility.yul\":11932:11950   */\n      add\n        /* \"#utility.yul\":11924:11950   */\n      swap1\n      pop\n        /* \"#utility.yul\":11960:12046   */\n      tag_629\n        /* \"#utility.yul\":12043:12044   */\n      0x00\n        /* \"#utility.yul\":12032:12041   */\n      dup4\n        /* \"#utility.yul\":12028:12045   */\n      add\n        /* \"#utility.yul\":12019:12025   */\n      dup5\n        /* \"#utility.yul\":11960:12046   */\n      tag_554\n      jump\t// in\n    tag_629:\n        /* \"#utility.yul\":11801:12053   */\n      swap3\n      swap2\n      pop\n      pop\n      jump\t// out\n        /* \"#utility.yul\":12059:12277   */\n    tag_137:\n        /* \"#utility.yul\":12150:12154   */\n      0x00\n        /* \"#utility.yul\":12188:12190   */\n      0x20\n        /* \"#utility.yul\":12177:12186   */\n      dup3\n        /* \"#utility.yul\":12173:12191   */\n      add\n        /* \"#utility.yul\":12165:12191   */\n      swap1\n      pop\n        /* \"#utility.yul\":12201:12270   */\n      tag_631\n        /* \"#utility.yul\":12267:12268   */\n      0x00\n        /* \"#utility.yul\":12256:12265   */\n      dup4\n        /* \"#utility.yul\":12252:12269   */\n      add\n        /* \"#utility.yul\":12243:12249   */\n      dup5\n        /* \"#utility.yul\":12201:12270   */\n      tag_558\n      jump\t// in\n    tag_631:\n        /* \"#utility.yul\":12059:12277   */\n      swap3\n      swap2\n      pop\n      pop\n      jump\t// out\n        /* \"#utility.yul\":12283:12702   */\n    tag_268:\n        /* \"#utility.yul\":12449:12453   */\n      0x00\n        /* \"#utility.yul\":12487:12489   */\n      0x20\n        /* \"#utility.yul\":12476:12485   */\n      dup3\n        /* \"#utility.yul\":12472:12490   */\n      add\n        /* \"#utility.yul\":12464:12490   */\n      swap1\n      pop\n        /* \"#utility.yul\":12536:12545   */\n      dup2\n        /* \"#utility.yul\":12530:12534   */\n      dup2\n        /* \"#utility.yul\":12526:12546   */\n      sub\n        /* \"#utility.yul\":12522:12523   */\n      0x00\n        /* \"#utility.yul\":12511:12520   */\n      dup4\n        /* \"#utility.yul\":12507:12524   */\n      add\n        /* \"#utility.yul\":12500:12547   */\n      mstore\n        /* \"#utility.yul\":12564:12695   */\n      tag_633\n        /* \"#utility.yul\":12690:12694   */\n      dup2\n        /* \"#utility.yul\":12564:12695   */\n      tag_570\n      jump\t// in\n    tag_633:\n        /* \"#utility.yul\":12556:12695   */\n      swap1\n      pop\n        /* \"#utility.yul\":12283:12702   */\n      swap2\n      swap1\n      pop\n      jump\t// out\n        /* \"#utility.yul\":12708:13127   */\n    tag_451:\n        /* \"#utility.yul\":12874:12878   */\n      0x00\n        /* \"#utility.yul\":12912:12914   */\n      0x20\n        /* \"#utility.yul\":12901:12910   */\n      dup3\n        /* \"#utility.yul\":12897:12915   */\n      add\n        /* \"#utility.yul\":12889:12915   */\n      swap1\n      pop\n        /* \"#utility.yul\":12961:12970   */\n      dup2\n        /* \"#utility.yul\":12955:12959   */\n      dup2\n        /* \"#utility.yul\":12951:12971   */\n      sub\n        /* \"#utility.yul\":12947:12948   */\n      0x00\n        /* \"#utility.yul\":12936:12945   */\n      dup4\n        /* \"#utility.yul\":12932:12949   */\n      add\n        /* \"#utility.yul\":12925:12972   */\n      mstore\n        /* \"#utility.yul\":12989:13120   */\n      tag_635\n        /* \"#utility.yul\":13115:13119   */\n      dup2\n        /* \"#utility.yul\":12989:13120   */\n      tag_576\n      jump\t// in\n    tag_635:\n        /* \"#utility.yul\":12981:13120   */\n      swap1\n      pop\n        /* \"#utility.yul\":12708:13127   */\n      swap2\n      swap1\n      pop\n      jump\t// out\n        /* \"#utility.yul\":13133:13552   */\n    tag_279:\n        /* \"#utility.yul\":13299:13303   */\n      0x00\n        /* \"#utility.yul\":13337:13339   */\n      0x20\n        /* \"#utility.yul\":13326:13335   */\n      dup3\n        /* \"#utility.yul\":13322:13340   */\n      add\n        /* \"#utility.yul\":13314:13340   */\n      swap1\n      pop\n        /* \"#utility.yul\":13386:13395   */\n      dup2\n        /* \"#utility.yul\":13380:13384   */\n      dup2\n        /* \"#utility.yul\":13376:13396   */\n      sub\n        /* \"#utility.yul\":13372:13373   */\n      0x00\n        /* \"#utility.yul\":13361:13370   */\n      dup4\n        /* \"#utility.yul\":13357:13374   */\n      add\n        /* \"#utility.yul\":13350:13397   */\n      mstore\n        /* \"#utility.yul\":13414:13545   */\n      tag_637\n        /* \"#utility.yul\":13540:13544   */\n      dup2\n        /* \"#utility.yul\":13414:13545   */\n      tag_581\n      jump\t// in\n    tag_637:\n        /* \"#utility.yul\":13406:13545   */\n      swap1\n      pop\n        /* \"#utility.yul\":13133:13552   */\n      swap2\n      swap1\n      pop\n      jump\t// out\n        /* \"#utility.yul\":13558:13977   */\n    tag_330:\n        /* \"#utility.yul\":13724:13728   */\n      0x00\n        /* \"#utility.yul\":13762:13764   */\n      0x20\n        /* \"#utility.yul\":13751:13760   */\n      dup3\n        /* \"#utility.yul\":13747:13765   */\n      add\n        /* \"#utility.yul\":13739:13765   */\n      swap1\n      pop\n        /* \"#utility.yul\":13811:13820   */\n      dup2\n        /* \"#utility.yul\":13805:13809   */\n      dup2\n        /* \"#utility.yul\":13801:13821   */\n      sub\n        /* \"#utility.yul\":13797:13798   */\n      0x00\n        /* \"#utility.yul\":13786:13795   */\n      dup4\n        /* \"#utility.yul\":13782:13799   */\n      add\n        /* \"#utility.yul\":13775:13822   */\n      mstore\n        /* \"#utility.yul\":13839:13970   */\n      tag_639\n        /* \"#utility.yul\":13965:13969   */\n      dup2\n        /* \"#utility.yul\":13839:13970   */\n      tag_586\n      jump\t// in\n    tag_639:\n        /* \"#utility.yul\":13831:13970   */\n      swap1\n      pop\n        /* \"#utility.yul\":13558:13977   */\n      swap2\n      swap1\n      pop\n      jump\t// out\n        /* \"#utility.yul\":13983:14402   */\n    tag_387:\n        /* \"#utility.yul\":14149:14153   */\n      0x00\n        /* \"#utility.yul\":14187:14189   */\n      0x20\n        /* \"#utility.yul\":14176:14185   */\n      dup3\n        /* \"#utility.yul\":14172:14190   */\n      add\n        /* \"#utility.yul\":14164:14190   */\n      swap1\n      pop\n        /* \"#utility.yul\":14236:14245   */\n      dup2\n        /* \"#utility.yul\":14230:14234   */\n      dup2\n        /* \"#utility.yul\":14226:14246   */\n      sub\n        /* \"#utility.yul\":14222:14223   */\n      0x00\n        /* \"#utility.yul\":14211:14220   */\n      dup4\n        /* \"#utility.yul\":14207:14224   */\n      add\n        /* \"#utility.yul\":14200:14247   */\n      mstore\n        /* \"#utility.yul\":14264:14395   */\n      tag_641\n        /* \"#utility.yul\":14390:14394   */\n      dup2\n        /* \"#utility.yul\":14264:14395   */\n      tag_596\n      jump\t// in\n    tag_641:\n        /* \"#utility.yul\":14256:14395   */\n      swap1\n      pop\n        /* \"#utility.yul\":13983:14402   */\n      swap2\n      swap1\n      pop\n      jump\t// out\n        /* \"#utility.yul\":14408:14827   */\n    tag_324:\n        /* \"#utility.yul\":14574:14578   */\n      0x00\n        /* \"#utility.yul\":14612:14614   */\n      0x20\n        /* \"#utility.yul\":14601:14610   */\n      dup3\n        /* \"#utility.yul\":14597:14615   */\n      add\n        /* \"#utility.yul\":14589:14615   */\n      swap1\n      pop\n        /* \"#utility.yul\":14661:14670   */\n      dup2\n        /* \"#utility.yul\":14655:14659   */\n      dup2\n        /* \"#utility.yul\":14651:14671   */\n      sub\n        /* \"#utility.yul\":14647:14648   */\n      0x00\n        /* \"#utility.yul\":14636:14645   */\n      dup4\n        /* \"#utility.yul\":14632:14649   */\n      add\n        /* \"#utility.yul\":14625:14672   */\n      mstore\n        /* \"#utility.yul\":14689:14820   */\n      tag_643\n        /* \"#utility.yul\":14815:14819   */\n      dup2\n        /* \"#utility.yul\":14689:14820   */\n      tag_601\n      jump\t// in\n    tag_643:\n        /* \"#utility.yul\":14681:14820   */\n      swap1\n      pop\n        /* \"#utility.yul\":14408:14827   */\n      swap2\n      swap1\n      pop\n      jump\t// out\n        /* \"#utility.yul\":14833:15252   */\n    tag_458:\n        /* \"#utility.yul\":14999:15003   */\n      0x00\n        /* \"#utility.yul\":15037:15039   */\n      0x20\n        /* \"#utility.yul\":15026:15035   */\n      dup3\n        /* \"#utility.yul\":15022:15040   */\n      add\n        /* \"#utility.yul\":15014:15040   */\n      swap1\n      pop\n        /* \"#utility.yul\":15086:15095   */\n      dup2\n        /* \"#utility.yul\":15080:15084   */\n      dup2\n        /* \"#utility.yul\":15076:15096   */\n      sub\n        /* \"#utility.yul\":15072:15073   */\n      0x00\n        /* \"#utility.yul\":15061:15070   */\n      dup4\n        /* \"#utility.yul\":15057:15074   */\n      add\n        /* \"#utility.yul\":15050:15097   */\n      mstore\n        /* \"#utility.yul\":15114:15245   */\n      tag_645\n        /* \"#utility.yul\":15240:15244   */\n      dup2\n        /* \"#utility.yul\":15114:15245   */\n      tag_606\n      jump\t// in\n    tag_645:\n        /* \"#utility.yul\":15106:15245   */\n      swap1\n      pop\n        /* \"#utility.yul\":14833:15252   */\n      swap2\n      swap1\n      pop\n      jump\t// out\n        /* \"#utility.yul\":15258:15480   */\n    tag_52:\n        /* \"#utility.yul\":15351:15355   */\n      0x00\n        /* \"#utility.yul\":15389:15391   */\n      0x20\n        /* \"#utility.yul\":15378:15387   */\n      dup3\n        /* \"#utility.yul\":15374:15392   */\n      add\n        /* \"#utility.yul\":15366:15392   */\n      swap1\n      pop\n        /* \"#utility.yul\":15402:15473   */\n      tag_647\n        /* \"#utility.yul\":15470:15471   */\n      0x00\n        /* \"#utility.yul\":15459:15468   */\n      dup4\n        /* \"#utility.yul\":15455:15472   */\n      add\n        /* \"#utility.yul\":15446:15452   */\n      dup5\n        /* \"#utility.yul\":15402:15473   */\n      tag_611\n      jump\t// in\n    tag_647:\n        /* \"#utility.yul\":15258:15480   */\n      swap3\n      swap2\n      pop\n      pop\n      jump\t// out\n        /* \"#utility.yul\":15486:15818   */\n    tag_72:\n        /* \"#utility.yul\":15607:15611   */\n      0x00\n        /* \"#utility.yul\":15645:15647   */\n      0x40\n        /* \"#utility.yul\":15634:15643   */\n      dup3\n        /* \"#utility.yul\":15630:15648   */\n      add\n        /* \"#utility.yul\":15622:15648   */\n      swap1\n      pop\n        /* \"#utility.yul\":15658:15729   */\n      tag_649\n        /* \"#utility.yul\":15726:15727   */\n      0x00\n        /* \"#utility.yul\":15715:15724   */\n      dup4\n        /* \"#utility.yul\":15711:15728   */\n      add\n        /* \"#utility.yul\":15702:15708   */\n      dup6\n        /* \"#utility.yul\":15658:15729   */\n      tag_611\n      jump\t// in\n    tag_649:\n        /* \"#utility.yul\":15739:15811   */\n      tag_650\n        /* \"#utility.yul\":15807:15809   */\n      0x20\n        /* \"#utility.yul\":15796:15805   */\n      dup4\n        /* \"#utility.yul\":15792:15810   */\n      add\n        /* \"#utility.yul\":15783:15789   */\n      dup5\n        /* \"#utility.yul\":15739:15811   */\n      tag_611\n      jump\t// in\n    tag_650:\n        /* \"#utility.yul\":15486:15818   */\n      swap4\n      swap3\n      pop\n      pop\n      pop\n      jump\t// out\n        /* \"#utility.yul\":15824:15953   */\n    tag_469:\n        /* \"#utility.yul\":15858:15864   */\n      0x00\n        /* \"#utility.yul\":15885:15905   */\n      tag_652\n      tag_653\n      jump\t// in\n    tag_652:\n        /* \"#utility.yul\":15875:15905   */\n      swap1\n      pop\n        /* \"#utility.yul\":15914:15947   */\n      tag_654\n        /* \"#utility.yul\":15942:15946   */\n      dup3\n        /* \"#utility.yul\":15934:15940   */\n      dup3\n        /* \"#utility.yul\":15914:15947   */\n      tag_655\n      jump\t// in\n    tag_654:\n        /* \"#utility.yul\":15824:15953   */\n      swap2\n      swap1\n      pop\n      jump\t// out\n        /* \"#utility.yul\":15959:16034   */\n    tag_653:\n        /* \"#utility.yul\":15992:15998   */\n      0x00\n        /* \"#utility.yul\":16025:16027   */\n      0x40\n        /* \"#utility.yul\":16019:16028   */\n      mload\n        /* \"#utility.yul\":16009:16028   */\n      swap1\n      pop\n        /* \"#utility.yul\":15959:16034   */\n      swap1\n      jump\t// out\n        /* \"#utility.yul\":16040:16348   */\n    tag_468:\n        /* \"#utility.yul\":16102:16106   */\n      0x00\n        /* \"#utility.yul\":16192:16210   */\n      0xffffffffffffffff\n        /* \"#utility.yul\":16184:16190   */\n      dup3\n        /* \"#utility.yul\":16181:16211   */\n      gt\n        /* \"#utility.yul\":16178:16234   */\n      iszero\n      tag_658\n      jumpi\n        /* \"#utility.yul\":16214:16232   */\n      tag_659\n      tag_660\n      jump\t// in\n    tag_659:\n        /* \"#utility.yul\":16178:16234   */\n    tag_658:\n        /* \"#utility.yul\":16252:16281   */\n      tag_661\n        /* \"#utility.yul\":16274:16280   */\n      dup3\n        /* \"#utility.yul\":16252:16281   */\n      tag_662\n      jump\t// in\n    tag_661:\n        /* \"#utility.yul\":16244:16281   */\n      swap1\n      pop\n        /* \"#utility.yul\":16336:16340   */\n      0x20\n        /* \"#utility.yul\":16330:16334   */\n      dup2\n        /* \"#utility.yul\":16326:16341   */\n      add\n        /* \"#utility.yul\":16318:16341   */\n      swap1\n      pop\n        /* \"#utility.yul\":16040:16348   */\n      swap2\n      swap1\n      pop\n      jump\t// out\n        /* \"#utility.yul\":16354:16453   */\n    tag_565:\n        /* \"#utility.yul\":16406:16412   */\n      0x00\n        /* \"#utility.yul\":16440:16445   */\n      dup2\n        /* \"#utility.yul\":16434:16446   */\n      mload\n        /* \"#utility.yul\":16424:16446   */\n      swap1\n      pop\n        /* \"#utility.yul\":16354:16453   */\n      swap2\n      swap1\n      pop\n      jump\t// out\n        /* \"#utility.yul\":16459:16628   */\n    tag_573:\n        /* \"#utility.yul\":16543:16554   */\n      0x00\n        /* \"#utility.yul\":16577:16583   */\n      dup3\n        /* \"#utility.yul\":16572:16575   */\n      dup3\n        /* \"#utility.yul\":16565:16584   */\n      mstore\n        /* \"#utility.yul\":16617:16621   */\n      0x20\n        /* \"#utility.yul\":16612:16615   */\n      dup3\n        /* \"#utility.yul\":16608:16622   */\n      add\n        /* \"#utility.yul\":16593:16622   */\n      swap1\n      pop\n        /* \"#utility.yul\":16459:16628   */\n      swap3\n      swap2\n      pop\n      pop\n      jump\t// out\n        /* \"#utility.yul\":16634:16782   */\n    tag_567:\n        /* \"#utility.yul\":16736:16747   */\n      0x00\n        /* \"#utility.yul\":16773:16776   */\n      dup2\n        /* \"#utility.yul\":16758:16776   */\n      swap1\n      pop\n        /* \"#utility.yul\":16634:16782   */\n      swap3\n      swap2\n      pop\n      pop\n      jump\t// out\n        /* \"#utility.yul\":16788:17093   */\n    tag_231:\n        /* \"#utility.yul\":16828:16831   */\n      0x00\n        /* \"#utility.yul\":16847:16867   */\n      tag_667\n        /* \"#utility.yul\":16865:16866   */\n      dup3\n        /* \"#utility.yul\":16847:16867   */\n      tag_614\n      jump\t// in\n    tag_667:\n        /* \"#utility.yul\":16842:16867   */\n      swap2\n      pop\n        /* \"#utility.yul\":16881:16901   */\n      tag_668\n        /* \"#utility.yul\":16899:16900   */\n      dup4\n        /* \"#utility.yul\":16881:16901   */\n      tag_614\n      jump\t// in\n    tag_668:\n        /* \"#utility.yul\":16876:16901   */\n      swap3\n      pop\n        /* \"#utility.yul\":17035:17036   */\n      dup3\n        /* \"#utility.yul\":16967:17033   */\n      0xffffffffffffffffffffffffffffffffffffffffffffffffffffffffffffffff\n        /* \"#utility.yul\":16963:17037   */\n      sub\n        /* \"#utility.yul\":16960:16961   */\n      dup3\n        /* \"#utility.yul\":16957:17038   */\n      gt\n        /* \"#utility.yul\":16954:17061   */\n      iszero\n      tag_669\n      jumpi\n        /* \"#utility.yul\":17041:17059   */\n      tag_670\n      tag_671\n      jump\t// in\n    tag_670:\n        /* \"#utility.yul\":16954:17061   */\n    tag_669:\n        /* \"#utility.yul\":17085:17086   */\n      dup3\n        /* \"#utility.yul\":17082:17083   */\n      dup3\n        /* \"#utility.yul\":17078:17087   */\n      add\n        /* \"#utility.yul\":17071:17087   */\n      swap1\n      pop\n        /* \"#utility.yul\":16788:17093   */\n      swap3\n      swap2\n      pop\n      pop\n      jump\t// out\n        /* \"#utility.yul\":17099:17284   */\n    tag_235:\n        /* \"#utility.yul\":17139:17140   */\n      0x00\n        /* \"#utility.yul\":17156:17176   */\n      tag_673\n        /* \"#utility.yul\":17174:17175   */\n      dup3\n        /* \"#utility.yul\":17156:17176   */\n      tag_614\n      jump\t// in\n    tag_673:\n        /* \"#utility.yul\":17151:17176   */\n      swap2\n      pop\n        /* \"#utility.yul\":17190:17210   */\n      tag_674\n        /* \"#utility.yul\":17208:17209   */\n      dup4\n        /* \"#utility.yul\":17190:17210   */\n      tag_614\n      jump\t// in\n    tag_674:\n        /* \"#utility.yul\":17185:17210   */\n      swap3\n      pop\n        /* \"#utility.yul\":17229:17230   */\n      dup3\n        /* \"#utility.yul\":17219:17254   */\n      tag_675\n      jumpi\n        /* \"#utility.yul\":17234:17252   */\n      tag_676\n      tag_677\n      jump\t// in\n    tag_676:\n        /* \"#utility.yul\":17219:17254   */\n    tag_675:\n        /* \"#utility.yul\":17276:17277   */\n      dup3\n        /* \"#utility.yul\":17273:17274   */\n      dup3\n        /* \"#utility.yul\":17269:17278   */\n      div\n        /* \"#utility.yul\":17264:17278   */\n      swap1\n      pop\n        /* \"#utility.yul\":17099:17284   */\n      swap3\n      swap2\n      pop\n      pop\n      jump\t// out\n        /* \"#utility.yul\":17290:17638   */\n    tag_289:\n        /* \"#utility.yul\":17330:17337   */\n      0x00\n        /* \"#utility.yul\":17353:17373   */\n      tag_679\n        /* \"#utility.yul\":17371:17372   */\n      dup3\n        /* \"#utility.yul\":17353:17373   */\n      tag_614\n      jump\t// in\n    tag_679:\n        /* \"#utility.yul\":17348:17373   */\n      swap2\n      pop\n        /* \"#utility.yul\":17387:17407   */\n      tag_680\n        /* \"#utility.yul\":17405:17406   */\n      dup4\n        /* \"#utility.yul\":17387:17407   */\n      tag_614\n      jump\t// in\n    tag_680:\n        /* \"#utility.yul\":17382:17407   */\n      swap3\n      pop\n        /* \"#utility.yul\":17575:17576   */\n      dup2\n        /* \"#utility.yul\":17507:17573   */\n      0xffffffffffffffffffffffffffffffffffffffffffffffffffffffffffffffff\n        /* \"#utility.yul\":17503:17577   */\n      div\n        /* \"#utility.yul\":17500:17501   */\n      dup4\n        /* \"#utility.yul\":17497:17578   */\n      gt\n        /* \"#utility.yul\":17492:17493   */\n      dup3\n        /* \"#utility.yul\":17485:17494   */\n      iszero\n        /* \"#utility.yul\":17478:17495   */\n      iszero\n        /* \"#utility.yul\":17474:17579   */\n      and\n        /* \"#utility.yul\":17471:17602   */\n      iszero\n      tag_681\n      jumpi\n        /* \"#utility.yul\":17582:17600   */\n      tag_682\n      tag_671\n      jump\t// in\n    tag_682:\n        /* \"#utility.yul\":17471:17602   */\n    tag_681:\n        /* \"#utility.yul\":17630:17631   */\n      dup3\n        /* \"#utility.yul\":17627:17628   */\n      dup3\n        /* \"#utility.yul\":17623:17632   */\n      mul\n        /* \"#utility.yul\":17612:17632   */\n      swap1\n      pop\n        /* \"#utility.yul\":17290:17638   */\n      swap3\n      swap2\n      pop\n      pop\n      jump\t// out\n        /* \"#utility.yul\":17644:17835   */\n    tag_237:\n        /* \"#utility.yul\":17684:17688   */\n      0x00\n        /* \"#utility.yul\":17704:17724   */\n      tag_684\n        /* \"#utility.yul\":17722:17723   */\n      dup3\n        /* \"#utility.yul\":17704:17724   */\n      tag_614\n      jump\t// in\n    tag_684:\n        /* \"#utility.yul\":17699:17724   */\n      swap2\n      pop\n        /* \"#utility.yul\":17738:17758   */\n      tag_685\n        /* \"#utility.yul\":17756:17757   */\n      dup4\n        /* \"#utility.yul\":17738:17758   */\n      tag_614\n      jump\t// in\n    tag_685:\n        /* \"#utility.yul\":17733:17758   */\n      swap3\n      pop\n        /* \"#utility.yul\":17777:17778   */\n      dup3\n        /* \"#utility.yul\":17774:17775   */\n      dup3\n        /* \"#utility.yul\":17771:17779   */\n      lt\n        /* \"#utility.yul\":17768:17802   */\n      iszero\n      tag_686\n      jumpi\n        /* \"#utility.yul\":17782:17800   */\n      tag_687\n      tag_671\n      jump\t// in\n    tag_687:\n        /* \"#utility.yul\":17768:17802   */\n    tag_686:\n        /* \"#utility.yul\":17827:17828   */\n      dup3\n        /* \"#utility.yul\":17824:17825   */\n      dup3\n        /* \"#utility.yul\":17820:17829   */\n      sub\n        /* \"#utility.yul\":17812:17829   */\n      swap1\n      pop\n        /* \"#utility.yul\":17644:17835   */\n      swap3\n      swap2\n      pop\n      pop\n      jump\t// out\n        /* \"#utility.yul\":17841:17937   */\n    tag_553:\n        /* \"#utility.yul\":17878:17885   */\n      0x00\n        /* \"#utility.yul\":17907:17931   */\n      tag_689\n        /* \"#utility.yul\":17925:17930   */\n      dup3\n        /* \"#utility.yul\":17907:17931   */\n      tag_690\n      jump\t// in\n    tag_689:\n        /* \"#utility.yul\":17896:17931   */\n      swap1\n      pop\n        /* \"#utility.yul\":17841:17937   */\n      swap2\n      swap1\n      pop\n      jump\t// out\n        /* \"#utility.yul\":17943:18033   */\n    tag_691:\n        /* \"#utility.yul\":17977:17984   */\n      0x00\n        /* \"#utility.yul\":18020:18025   */\n      dup2\n        /* \"#utility.yul\":18013:18026   */\n      iszero\n        /* \"#utility.yul\":18006:18027   */\n      iszero\n        /* \"#utility.yul\":17995:18027   */\n      swap1\n      pop\n        /* \"#utility.yul\":17943:18033   */\n      swap2\n      swap1\n      pop\n      jump\t// out\n        /* \"#utility.yul\":18039:18131   */\n    tag_561:\n        /* \"#utility.yul\":18075:18082   */\n      0x00\n        /* \"#utility.yul\":18119:18124   */\n      dup2\n        /* \"#utility.yul\":18115:18117   */\n      0x0f\n        /* \"#utility.yul\":18104:18125   */\n      signextend\n        /* \"#utility.yul\":18093:18125   */\n      swap1\n      pop\n        /* \"#utility.yul\":18039:18131   */\n      swap2\n      swap1\n      pop\n      jump\t// out\n        /* \"#utility.yul\":18137:18263   */\n    tag_690:\n        /* \"#utility.yul\":18174:18181   */\n      0x00\n        /* \"#utility.yul\":18214:18256   */\n      0xffffffffffffffffffffffffffffffffffffffff\n        /* \"#utility.yul\":18207:18212   */\n      dup3\n        /* \"#utility.yul\":18203:18257   */\n      and\n        /* \"#utility.yul\":18192:18257   */\n      swap1\n      pop\n        /* \"#utility.yul\":18137:18263   */\n      swap2\n      swap1\n      pop\n      jump\t// out\n        /* \"#utility.yul\":18269:18346   */\n    tag_614:\n        /* \"#utility.yul\":18306:18313   */\n      0x00\n        /* \"#utility.yul\":18335:18340   */\n      dup2\n        /* \"#utility.yul\":18324:18340   */\n      swap1\n      pop\n        /* \"#utility.yul\":18269:18346   */\n      swap2\n      swap1\n      pop\n      jump\t// out\n        /* \"#utility.yul\":18352:18493   */\n    tag_557:\n        /* \"#utility.yul\":18417:18426   */\n      0x00\n        /* \"#utility.yul\":18450:18487   */\n      tag_697\n        /* \"#utility.yul\":18481:18486   */\n      dup3\n        /* \"#utility.yul\":18450:18487   */\n      tag_698\n      jump\t// in\n    tag_697:\n        /* \"#utility.yul\":18437:18487   */\n      swap1\n      pop\n        /* \"#utility.yul\":18352:18493   */\n      swap2\n      swap1\n      pop\n      jump\t// out\n        /* \"#utility.yul\":18499:18625   */\n    tag_698:\n        /* \"#utility.yul\":18549:18558   */\n      0x00\n        /* \"#utility.yul\":18582:18619   */\n      tag_700\n        /* \"#utility.yul\":18613:18618   */\n      dup3\n        /* \"#utility.yul\":18582:18619   */\n      tag_701\n      jump\t// in\n    tag_700:\n        /* \"#utility.yul\":18569:18619   */\n      swap1\n      pop\n        /* \"#utility.yul\":18499:18625   */\n      swap2\n      swap1\n      pop\n      jump\t// out\n        /* \"#utility.yul\":18631:18744   */\n    tag_701:\n        /* \"#utility.yul\":18681:18690   */\n      0x00\n        /* \"#utility.yul\":18714:18738   */\n      tag_703\n        /* \"#utility.yul\":18732:18737   */\n      dup3\n        /* \"#utility.yul\":18714:18738   */\n      tag_690\n      jump\t// in\n    tag_703:\n        /* \"#utility.yul\":18701:18738   */\n      swap1\n      pop\n        /* \"#utility.yul\":18631:18744   */\n      swap2\n      swap1\n      pop\n      jump\t// out\n        /* \"#utility.yul\":18750:18904   */\n    tag_474:\n        /* \"#utility.yul\":18834:18840   */\n      dup3\n        /* \"#utility.yul\":18829:18832   */\n      dup2\n        /* \"#utility.yul\":18824:18827   */\n      dup4\n        /* \"#utility.yul\":18811:18841   */\n      calldatacopy\n        /* \"#utility.yul\":18896:18897   */\n      0x00\n        /* \"#utility.yul\":18887:18893   */\n      dup4\n        /* \"#utility.yul\":18882:18885   */\n      dup4\n        /* \"#utility.yul\":18878:18894   */\n      add\n        /* \"#utility.yul\":18871:18898   */\n      mstore\n        /* \"#utility.yul\":18750:18904   */\n      pop\n      pop\n      pop\n      jump\t// out\n        /* \"#utility.yul\":18910:19217   */\n    tag_569:\n        /* \"#utility.yul\":18978:18979   */\n      0x00\n        /* \"#utility.yul\":18988:19101   */\n    tag_706:\n        /* \"#utility.yul\":19002:19008   */\n      dup4\n        /* \"#utility.yul\":18999:19000   */\n      dup2\n        /* \"#utility.yul\":18996:19009   */\n      lt\n        /* \"#utility.yul\":18988:19101   */\n      iszero\n      tag_708\n      jumpi\n        /* \"#utility.yul\":19087:19088   */\n      dup1\n        /* \"#utility.yul\":19082:19085   */\n      dup3\n        /* \"#utility.yul\":19078:19089   */\n      add\n        /* \"#utility.yul\":19072:19090   */\n      mload\n        /* \"#utility.yul\":19068:19069   */\n      dup2\n        /* \"#utility.yul\":19063:19066   */\n      dup5\n        /* \"#utility.yul\":19059:19070   */\n      add\n        /* \"#utility.yul\":19052:19091   */\n      mstore\n        /* \"#utility.yul\":19024:19026   */\n      0x20\n        /* \"#utility.yul\":19021:19022   */\n      dup2\n        /* \"#utility.yul\":19017:19027   */\n      add\n        /* \"#utility.yul\":19012:19027   */\n      swap1\n      pop\n        /* \"#utility.yul\":18988:19101   */\n      jump(tag_706)\n    tag_708:\n        /* \"#utility.yul\":19119:19125   */\n      dup4\n        /* \"#utility.yul\":19116:19117   */\n      dup2\n        /* \"#utility.yul\":19113:19126   */\n      gt\n        /* \"#utility.yul\":19110:19211   */\n      iszero\n      tag_709\n      jumpi\n        /* \"#utility.yul\":19199:19200   */\n      0x00\n        /* \"#utility.yul\":19190:19196   */\n      dup5\n        /* \"#utility.yul\":19185:19188   */\n      dup5\n        /* \"#utility.yul\":19181:19197   */\n      add\n        /* \"#utility.yul\":19174:19201   */\n      mstore\n        /* \"#utility.yul\":19110:19211   */\n    tag_709:\n        /* \"#utility.yul\":18959:19217   */\n      pop\n        /* \"#utility.yul\":18910:19217   */\n      pop\n      pop\n      pop\n      jump\t// out\n        /* \"#utility.yul\":19223:19504   */\n    tag_655:\n        /* \"#utility.yul\":19306:19333   */\n      tag_711\n        /* \"#utility.yul\":19328:19332   */\n      dup3\n        /* \"#utility.yul\":19306:19333   */\n      tag_662\n      jump\t// in\n    tag_711:\n        /* \"#utility.yul\":19298:19304   */\n      dup2\n        /* \"#utility.yul\":19294:19334   */\n      add\n        /* \"#utility.yul\":19436:19442   */\n      dup2\n        /* \"#utility.yul\":19424:19434   */\n      dup2\n        /* \"#utility.yul\":19421:19443   */\n      lt\n        /* \"#utility.yul\":19400:19418   */\n      0xffffffffffffffff\n        /* \"#utility.yul\":19388:19398   */\n      dup3\n        /* \"#utility.yul\":19385:19419   */\n      gt\n        /* \"#utility.yul\":19382:19444   */\n      or\n        /* \"#utility.yul\":19379:19467   */\n      iszero\n      tag_712\n      jumpi\n        /* \"#utility.yul\":19447:19465   */\n      tag_713\n      tag_660\n      jump\t// in\n    tag_713:\n        /* \"#utility.yul\":19379:19467   */\n    tag_712:\n        /* \"#utility.yul\":19487:19497   */\n      dup1\n        /* \"#utility.yul\":19483:19485   */\n      0x40\n        /* \"#utility.yul\":19476:19498   */\n      mstore\n        /* \"#utility.yul\":19266:19504   */\n      pop\n        /* \"#utility.yul\":19223:19504   */\n      pop\n      pop\n      jump\t// out\n        /* \"#utility.yul\":19510:19743   */\n    tag_247:\n        /* \"#utility.yul\":19549:19552   */\n      0x00\n        /* \"#utility.yul\":19572:19596   */\n      tag_715\n        /* \"#utility.yul\":19590:19595   */\n      dup3\n        /* \"#utility.yul\":19572:19596   */\n      tag_614\n      jump\t// in\n    tag_715:\n        /* \"#utility.yul\":19563:19596   */\n      swap2\n      pop\n        /* \"#utility.yul\":19618:19684   */\n      0xffffffffffffffffffffffffffffffffffffffffffffffffffffffffffffffff\n        /* \"#utility.yul\":19611:19616   */\n      dup3\n        /* \"#utility.yul\":19608:19685   */\n      eq\n        /* \"#utility.yul\":19605:19708   */\n      iszero\n      tag_716\n      jumpi\n        /* \"#utility.yul\":19688:19706   */\n      tag_717\n      tag_671\n      jump\t// in\n    tag_717:\n        /* \"#utility.yul\":19605:19708   */\n    tag_716:\n        /* \"#utility.yul\":19735:19736   */\n      0x01\n        /* \"#utility.yul\":19728:19733   */\n      dup3\n        /* \"#utility.yul\":19724:19737   */\n      add\n        /* \"#utility.yul\":19717:19737   */\n      swap1\n      pop\n        /* \"#utility.yul\":19510:19743   */\n      swap2\n      swap1\n      pop\n      jump\t// out\n        /* \"#utility.yul\":19749:19929   */\n    tag_671:\n        /* \"#utility.yul\":19797:19874   */\n      0x4e487b7100000000000000000000000000000000000000000000000000000000\n        /* \"#utility.yul\":19794:19795   */\n      0x00\n        /* \"#utility.yul\":19787:19875   */\n      mstore\n        /* \"#utility.yul\":19894:19898   */\n      0x11\n        /* \"#utility.yul\":19891:19892   */\n      0x04\n        /* \"#utility.yul\":19884:19899   */\n      mstore\n        /* \"#utility.yul\":19918:19922   */\n      0x24\n        /* \"#utility.yul\":19915:19916   */\n      0x00\n        /* \"#utility.yul\":19908:19923   */\n      revert\n        /* \"#utility.yul\":19935:20115   */\n    tag_677:\n        /* \"#utility.yul\":19983:20060   */\n      0x4e487b7100000000000000000000000000000000000000000000000000000000\n        /* \"#utility.yul\":19980:19981   */\n      0x00\n        /* \"#utility.yul\":19973:20061   */\n      mstore\n        /* \"#utility.yul\":20080:20084   */\n      0x12\n        /* \"#utility.yul\":20077:20078   */\n      0x04\n        /* \"#utility.yul\":20070:20085   */\n      mstore\n        /* \"#utility.yul\":20104:20108   */\n      0x24\n        /* \"#utility.yul\":20101:20102   */\n      0x00\n        /* \"#utility.yul\":20094:20109   */\n      revert\n        /* \"#utility.yul\":20121:20301   */\n    tag_660:\n        /* \"#utility.yul\":20169:20246   */\n      0x4e487b7100000000000000000000000000000000000000000000000000000000\n        /* \"#utility.yul\":20166:20167   */\n      0x00\n        /* \"#utility.yul\":20159:20247   */\n      mstore\n        /* \"#utility.yul\":20266:20270   */\n      0x41\n        /* \"#utility.yul\":20263:20264   */\n      0x04\n        /* \"#utility.yul\":20256:20271   */\n      mstore\n        /* \"#utility.yul\":20290:20294   */\n      0x24\n        /* \"#utility.yul\":20287:20288   */\n      0x00\n        /* \"#utility.yul\":20280:20295   */\n      revert\n        /* \"#utility.yul\":20307:20424   */\n    tag_487:\n        /* \"#utility.yul\":20416:20417   */\n      0x00\n        /* \"#utility.yul\":20413:20414   */\n      dup1\n        /* \"#utility.yul\":20406:20418   */\n      revert\n        /* \"#utility.yul\":20430:20547   */\n    tag_472:\n        /* \"#utility.yul\":20539:20540   */\n      0x00\n        /* \"#utility.yul\":20536:20537   */\n      dup1\n        /* \"#utility.yul\":20529:20541   */\n      revert\n        /* \"#utility.yul\":20553:20670   */\n    tag_507:\n        /* \"#utility.yul\":20662:20663   */\n      0x00\n        /* \"#utility.yul\":20659:20660   */\n      dup1\n        /* \"#utility.yul\":20652:20664   */\n      revert\n        /* \"#utility.yul\":20676:20793   */\n    tag_499:\n        /* \"#utility.yul\":20785:20786   */\n      0x00\n        /* \"#utility.yul\":20782:20783   */\n      dup1\n        /* \"#utility.yul\":20775:20787   */\n      revert\n        /* \"#utility.yul\":20799:20901   */\n    tag_662:\n        /* \"#utility.yul\":20840:20846   */\n      0x00\n        /* \"#utility.yul\":20891:20893   */\n      0x1f\n        /* \"#utility.yul\":20887:20894   */\n      not\n        /* \"#utility.yul\":20882:20884   */\n      0x1f\n        /* \"#utility.yul\":20875:20880   */\n      dup4\n        /* \"#utility.yul\":20871:20885   */\n      add\n        /* \"#utility.yul\":20867:20895   */\n      and\n        /* \"#utility.yul\":20857:20895   */\n      swap1\n      pop\n        /* \"#utility.yul\":20799:20901   */\n      swap2\n      swap1\n      pop\n      jump\t// out\n        /* \"#utility.yul\":20907:21130   */\n    tag_575:\n        /* \"#utility.yul\":21047:21081   */\n      0x596f7520646f6e7420686176652074686174206d75636820746f207769746864\n        /* \"#utility.yul\":21043:21044   */\n      0x00\n        /* \"#utility.yul\":21035:21041   */\n      dup3\n        /* \"#utility.yul\":21031:21045   */\n      add\n        /* \"#utility.yul\":21024:21082   */\n      mstore\n        /* \"#utility.yul\":21116:21122   */\n      0x7261772100000000000000000000000000000000000000000000000000000000\n        /* \"#utility.yul\":21111:21113   */\n      0x20\n        /* \"#utility.yul\":21103:21109   */\n      dup3\n        /* \"#utility.yul\":21099:21114   */\n      add\n        /* \"#utility.yul\":21092:21123   */\n      mstore\n        /* \"#utility.yul\":20907:21130   */\n      pop\n      jump\t// out\n        /* \"#utility.yul\":21136:21307   */\n    tag_580:\n        /* \"#utility.yul\":21276:21299   */\n      0x546f6b656e207472616e73666572206661696c65640000000000000000000000\n        /* \"#utility.yul\":21272:21273   */\n      0x00\n        /* \"#utility.yul\":21264:21270   */\n      dup3\n        /* \"#utility.yul\":21260:21274   */\n      add\n        /* \"#utility.yul\":21253:21300   */\n      mstore\n        /* \"#utility.yul\":21136:21307   */\n      pop\n      jump\t// out\n        /* \"#utility.yul\":21313:21489   */\n    tag_585:\n        /* \"#utility.yul\":21453:21481   */\n      0x596f7520646f6e742068617665207468617420616d6f756e7421000000000000\n        /* \"#utility.yul\":21449:21450   */\n      0x00\n        /* \"#utility.yul\":21441:21447   */\n      dup3\n        /* \"#utility.yul\":21437:21451   */\n      add\n        /* \"#utility.yul\":21430:21482   */\n      mstore\n        /* \"#utility.yul\":21313:21489   */\n      pop\n      jump\t// out\n        /* \"#utility.yul\":21495:21666   */\n    tag_590:\n        /* \"#utility.yul\":21635:21658   */\n      0x506572207472616e73616374696f6e206c696d69740000000000000000000000\n        /* \"#utility.yul\":21631:21632   */\n      0x00\n        /* \"#utility.yul\":21623:21629   */\n      dup3\n        /* \"#utility.yul\":21619:21633   */\n      add\n        /* \"#utility.yul\":21612:21659   */\n      mstore\n        /* \"#utility.yul\":21495:21666   */\n      pop\n      jump\t// out\n        /* \"#utility.yul\":21672:21826   */\n    tag_595:\n        /* \"#utility.yul\":21812:21818   */\n      0x5553444300000000000000000000000000000000000000000000000000000000\n        /* \"#utility.yul\":21808:21809   */\n      0x00\n        /* \"#utility.yul\":21800:21806   */\n      dup3\n        /* \"#utility.yul\":21796:21810   */\n      add\n        /* \"#utility.yul\":21789:21819   */\n      mstore\n        /* \"#utility.yul\":21672:21826   */\n      pop\n      jump\t// out\n        /* \"#utility.yul\":21832:21994   */\n    tag_600:\n        /* \"#utility.yul\":21972:21986   */\n      0x4e6f7420756e6c6f636b65640000000000000000000000000000000000000000\n        /* \"#utility.yul\":21968:21969   */\n      0x00\n        /* \"#utility.yul\":21960:21966   */\n      dup3\n        /* \"#utility.yul\":21956:21970   */\n      add\n        /* \"#utility.yul\":21949:21987   */\n      mstore\n        /* \"#utility.yul\":21832:21994   */\n      pop\n      jump\t// out\n        /* \"#utility.yul\":22000:22181   */\n    tag_605:\n        /* \"#utility.yul\":22140:22173   */\n      0x5265656e7472616e637947756172643a207265656e7472616e742063616c6c00\n        /* \"#utility.yul\":22136:22137   */\n      0x00\n        /* \"#utility.yul\":22128:22134   */\n      dup3\n        /* \"#utility.yul\":22124:22138   */\n      add\n        /* \"#utility.yul\":22117:22174   */\n      mstore\n        /* \"#utility.yul\":22000:22181   */\n      pop\n      jump\t// out\n        /* \"#utility.yul\":22187:22407   */\n    tag_610:\n        /* \"#utility.yul\":22327:22361   */\n      0x75696e74206f766572666c6f772066726f6d206d756c7469706c69636174696f\n        /* \"#utility.yul\":22323:22324   */\n      0x00\n        /* \"#utility.yul\":22315:22321   */\n      dup3\n        /* \"#utility.yul\":22311:22325   */\n      add\n        /* \"#utility.yul\":22304:22362   */\n      mstore\n        /* \"#utility.yul\":22396:22399   */\n      0x6e00000000000000000000000000000000000000000000000000000000000000\n        /* \"#utility.yul\":22391:22393   */\n      0x20\n        /* \"#utility.yul\":22383:22389   */\n      dup3\n        /* \"#utility.yul\":22379:22394   */\n      add\n        /* \"#utility.yul\":22372:22400   */\n      mstore\n        /* \"#utility.yul\":22187:22407   */\n      pop\n      jump\t// out\n        /* \"#utility.yul\":22413:22535   */\n    tag_478:\n        /* \"#utility.yul\":22486:22510   */\n      tag_735\n        /* \"#utility.yul\":22504:22509   */\n      dup2\n        /* \"#utility.yul\":22486:22510   */\n      tag_553\n      jump\t// in\n    tag_735:\n        /* \"#utility.yul\":22479:22484   */\n      dup2\n        /* \"#utility.yul\":22476:22511   */\n      eq\n        /* \"#utility.yul\":22466:22529   */\n      tag_736\n      jumpi\n        /* \"#utility.yul\":22525:22526   */\n      0x00\n        /* \"#utility.yul\":22522:22523   */\n      dup1\n        /* \"#utility.yul\":22515:22527   */\n      revert\n        /* \"#utility.yul\":22466:22529   */\n    tag_736:\n        /* \"#utility.yul\":22413:22535   */\n      pop\n      jump\t// out\n        /* \"#utility.yul\":22541:22657   */\n    tag_482:\n        /* \"#utility.yul\":22611:22632   */\n      tag_738\n        /* \"#utility.yul\":22626:22631   */\n      dup2\n        /* \"#utility.yul\":22611:22632   */\n      tag_691\n      jump\t// in\n    tag_738:\n        /* \"#utility.yul\":22604:22609   */\n      dup2\n        /* \"#utility.yul\":22601:22633   */\n      eq\n        /* \"#utility.yul\":22591:22651   */\n      tag_739\n      jumpi\n        /* \"#utility.yul\":22647:22648   */\n      0x00\n        /* \"#utility.yul\":22644:22645   */\n      dup1\n        /* \"#utility.yul\":22637:22649   */\n      revert\n        /* \"#utility.yul\":22591:22651   */\n    tag_739:\n        /* \"#utility.yul\":22541:22657   */\n      pop\n      jump\t// out\n        /* \"#utility.yul\":22663:22785   */\n    tag_492:\n        /* \"#utility.yul\":22736:22760   */\n      tag_741\n        /* \"#utility.yul\":22754:22759   */\n      dup2\n        /* \"#utility.yul\":22736:22760   */\n      tag_614\n      jump\t// in\n    tag_741:\n        /* \"#utility.yul\":22729:22734   */\n      dup2\n        /* \"#utility.yul\":22726:22761   */\n      eq\n        /* \"#utility.yul\":22716:22779   */\n      tag_742\n      jumpi\n        /* \"#utility.yul\":22775:22776   */\n      0x00\n        /* \"#utility.yul\":22772:22773   */\n      dup1\n        /* \"#utility.yul\":22765:22777   */\n      revert\n        /* \"#utility.yul\":22716:22779   */\n    tag_742:\n        /* \"#utility.yul\":22663:22785   */\n      pop\n      jump\t// out\n\n    auxdata: 0xa26469706673582212208ea0e7e68f9fd4c3a9a508a13c780cdd07aff10dce1c691accf69a47f933eaca64736f6c63430008070033\n}\n",
				"bytecode": {
					"linkReferences": {},
					"object": "6080604052620186a0600e5562015f90600f55620927c060105573617f2e2fd72fd9d5503197092ac168c91465e7f2601260006101000a81548173ffffffffffffffffffffffffffffffffffffffff021916908373ffffffffffffffffffffffffffffffffffffffff1602179055503480156200007b57600080fd5b50600160008190555073660c3f2a92c9ad7a8e65705ed2111946ac2d4bb4601360006101000a81548173ffffffffffffffffffffffffffffffffffffffff021916908373ffffffffffffffffffffffffffffffffffffffff16021790555073f65dbdb9cfa568b2ad52d44312a520c7eaef8a2d601460006101000a81548173ffffffffffffffffffffffffffffffffffffffff021916908373ffffffffffffffffffffffffffffffffffffffff160217905550732557f4c8ba4be59eddabfd26df4ecd7f2e678f1d601560006101000a81548173ffffffffffffffffffffffffffffffffffffffff021916908373ffffffffffffffffffffffffffffffffffffffff1602179055507385f05208b6c3613f42366de27bafbd4df40a8ceb601a604051620001a89062000708565b908152602001604051809103902060000160006101000a81548173ffffffffffffffffffffffffffffffffffffffff021916908373ffffffffffffffffffffffffffffffffffffffff1602179055506006601a604051620002099062000708565b908152602001604051809103902060010181905550732a4a8ab6a0bc0d377098f8688f77003833bc1c9d601a6040516200024390620006f1565b908152602001604051809103902060000160006101000a81548173ffffffffffffffffffffffffffffffffffffffff021916908373ffffffffffffffffffffffffffffffffffffffff1602179055506012601a604051620002a490620006f1565b90815260200160405180910390206001018190555073dc301622e621166bd8e82f2ca0a26c13ad0be355601a604051620002de90620006da565b908152602001604051809103902060000160006101000a81548173ffffffffffffffffffffffffffffffffffffffff021916908373ffffffffffffffffffffffffffffffffffffffff1602179055506012601a6040516200033f90620006da565b90815260200160405180910390206001018190555073617f2e2fd72fd9d5503197092ac168c91465e7f2600760006101000a81548173ffffffffffffffffffffffffffffffffffffffff021916908373ffffffffffffffffffffffffffffffffffffffff16021790555042600c8190555062069780600d81905550601360009054906101000a900473ffffffffffffffffffffffffffffffffffffffff1673ffffffffffffffffffffffffffffffffffffffff166340c10f1973617f2e2fd72fd9d5503197092ac168c91465e7f26901fe36793670c0c820006040518363ffffffff1660e01b81526004016200043792919062000779565b600060405180830381600087803b1580156200045257600080fd5b505af115801562000467573d6000803e3d6000fd5b50505050601360009054906101000a900473ffffffffffffffffffffffffffffffffffffffff1673ffffffffffffffffffffffffffffffffffffffff166340c10f197317f6ad8ef982297579c203069c1dbffe4348c37269097782bfbf68ab74e0006040518363ffffffff1660e01b8152600401620004e89291906200071f565b600060405180830381600087803b1580156200050357600080fd5b505af115801562000518573d6000803e3d6000fd5b50505050601360009054906101000a900473ffffffffffffffffffffffffffffffffffffffff1673ffffffffffffffffffffffffffffffffffffffff166340c10f19735c6b0f7bf3e7ce046039bd8fabdfd3f9f50216786909f7105e1033c3e8a0006040518363ffffffff1660e01b8152600401620005999291906200074c565b600060405180830381600087803b158015620005b457600080fd5b505af1158015620005c9573d6000803e3d6000fd5b5050505069156cc997060d3025a000601760008081526020019081526020016000208190555069156cc997060d3025a00060196000808152602001908152602001600020819055506208b290600b81905550620008a6565b6200062c81620007b1565b82525050565b6200063d81620007ef565b82525050565b6200064e8162000803565b82525050565b6200065f8162000817565b82525050565b600062000674600483620007a6565b915062000681826200082b565b600482019050919050565b60006200069b600383620007a6565b9150620006a88262000854565b600382019050919050565b6000620006c2600483620007a6565b9150620006cf826200087d565b600482019050919050565b6000620006e78262000665565b9150819050919050565b6000620006fe826200068c565b9150819050919050565b60006200071582620006b3565b9150819050919050565b600060408201905062000736600083018562000621565b62000745602083018462000632565b9392505050565b600060408201905062000763600083018562000621565b62000772602083018462000643565b9392505050565b600060408201905062000790600083018562000621565b6200079f602083018462000654565b9392505050565b600081905092915050565b6000620007be82620007c5565b9050919050565b600073ffffffffffffffffffffffffffffffffffffffff82169050919050565b6000819050919050565b6000620007fc82620007e5565b9050919050565b60006200081082620007e5565b9050919050565b60006200082482620007e5565b9050919050565b7f4652415800000000000000000000000000000000000000000000000000000000600082015250565b7f4441490000000000000000000000000000000000000000000000000000000000600082015250565b7f5553444300000000000000000000000000000000000000000000000000000000600082015250565b61302780620008b66000396000f3fe6080604052600436106102305760003560e01c80636f10e2851161012e578063c0ca6fb4116100ab578063e5d980821161006f578063e5d9808214610809578063ee62086814610832578063eee05f5e1461085d578063fbbb458914610888578063fc361443146108b357610230565b8063c0ca6fb414610741578063c0ce58891461076c578063cbff461714610788578063d04d7908146107b3578063d82eddf2146107de57610230565b80639b19251a116100f25780639b19251a1461066f578063a475bf4814610698578063bcb3de54146106d6578063bdad7f02146106ed578063c079d7f61461071657610230565b80636f10e2851461059a5780637087a7a5146105c557806371cd58f9146105f0578063862d1b351461061b57806393f7b7111461064457610230565b80631f564a06116101bc5780633c6eb17a116101805780633c6eb17a146104c557806343d32e9c146104f0578063667633191461051b57806367b48c911461054657806367e927a81461057157610230565b80631f564a06146103de57806326ae486e1461040957806329982a32146104345780632a9f0fb11461045f57806339ad95d61461049c57610230565b806312b2ed941161020357806312b2ed94146102e15780631514c9761461031f578063164c85011461035c5780631a30e872146103855780631bc9cc45146103c257610230565b8063018a25e814610235578063047729b0146102605780630ccaf04f1461028b5780630f65de3e146102b6575b600080fd5b34801561024157600080fd5b5061024a6108dc565b6040516102579190612a49565b60405180910390f35b34801561026c57600080fd5b506102756109fa565b60405161028291906128b8565b60405180910390f35b34801561029757600080fd5b506102a0610a20565b6040516102ad9190612a49565b60405180910390f35b3480156102c257600080fd5b506102cb610b7a565b6040516102d89190612a49565b60405180910390f35b3480156102ed57600080fd5b5061030860048036038101906103039190612474565b610c08565b604051610316929190612a64565b60405180910390f35b34801561032b57600080fd5b50610346600480360381019061034191906125e2565b610c2c565b6040516103539190612a49565b60405180910390f35b34801561036857600080fd5b50610383600480360381019061037e91906125e2565b610c44565b005b34801561039157600080fd5b506103ac60048036038101906103a791906125e2565b610dc2565b6040516103b99190612a49565b60405180910390f35b6103dc60048036038101906103d791906125e2565b610dda565b005b3480156103ea57600080fd5b506103f3610f72565b6040516104009190612a49565b60405180910390f35b34801561041557600080fd5b5061041e611037565b60405161042b9190612933565b60405180910390f35b34801561044057600080fd5b5061044961105d565b60405161045691906128b8565b60405180910390f35b34801561046b57600080fd5b50610486600480360381019061048191906125e2565b611083565b6040516104939190612a49565b60405180910390f35b3480156104a857600080fd5b506104c360048036038101906104be91906125e2565b61109b565b005b3480156104d157600080fd5b506104da61109e565b6040516104e79190612a49565b60405180910390f35b3480156104fc57600080fd5b506105056110a4565b6040516105129190612a49565b60405180910390f35b34801561052757600080fd5b506105306111c2565b60405161053d9190612a49565b60405180910390f35b34801561055257600080fd5b5061055b6111c8565b6040516105689190612a49565b60405180910390f35b34801561057d57600080fd5b50610598600480360381019061059391906125e2565b6111ce565b005b3480156105a657600080fd5b506105af61127f565b6040516105bc919061294e565b60405180910390f35b3480156105d157600080fd5b506105da611292565b6040516105e79190612933565b60405180910390f35b3480156105fc57600080fd5b506106056112b8565b6040516106129190612a49565b60405180910390f35b34801561062757600080fd5b50610642600480360381019061063d919061263c565b61136f565b005b34801561065057600080fd5b50610659611870565b6040516106669190612a49565b60405180910390f35b34801561067b57600080fd5b5061069660048036038101906106919190612474565b6119ca565b005b3480156106a457600080fd5b506106bf60048036038101906106ba919061252a565b6119cd565b6040516106cd92919061290a565b60405180910390f35b3480156106e257600080fd5b506106eb611a27565b005b3480156106f957600080fd5b50610714600480360381019061070f91906124a1565b611aa9565b005b34801561072257600080fd5b5061072b611c2a565b60405161073891906128b8565b60405180910390f35b34801561074d57600080fd5b50610756611c50565b6040516107639190612933565b60405180910390f35b61078660048036038101906107819190612698565b611c76565b005b34801561079457600080fd5b5061079d611fef565b6040516107aa9190612a49565b60405180910390f35b3480156107bf57600080fd5b506107c8611ff5565b6040516107d59190612933565b60405180910390f35b3480156107ea57600080fd5b506107f361201b565b6040516108009190612a49565b60405180910390f35b34801561081557600080fd5b50610830600480360381019061082b9190612573565b61207e565b005b34801561083e57600080fd5b50610847612109565b6040516108549190612a49565b60405180910390f35b34801561086957600080fd5b5061087261210f565b60405161087f91906128b8565b60405180910390f35b34801561089457600080fd5b5061089d612135565b6040516108aa91906128b8565b60405180910390f35b3480156108bf57600080fd5b506108da60048036038101906108d591906125e2565b61215b565b005b60006109f53073ffffffffffffffffffffffffffffffffffffffff16631f564a066040518163ffffffff1660e01b815260040160206040518083038186803b15801561092757600080fd5b505afa15801561093b573d6000803e3d6000fd5b505050506040513d601f19601f8201168201806040525081019061095f919061260f565b3073ffffffffffffffffffffffffffffffffffffffff166393f7b7116040518163ffffffff1660e01b815260040160206040518083038186803b1580156109a557600080fd5b505afa1580156109b9573d6000803e3d6000fd5b505050506040513d601f19601f820116820180604052508101906109dd919061260f565b6710a741a4627800006109f09190612b0a565b612173565b905090565b600960009054906101000a900473ffffffffffffffffffffffffffffffffffffffff1681565b60008060008062015180600d54610a379190612b60565b9050600062015180600c5442610a4d9190612beb565b610a579190612b60565b9050600080821415610a7e5760196000808152602001908152602001600020549350610aca565b8282610a8a9190612beb565b90505b81811015610ac957601960008281526020019081526020016000205484610ab49190612b0a565b93508080610ac190612d1d565b915050610a8d565b5b610b513073ffffffffffffffffffffffffffffffffffffffff1663d82eddf26040518163ffffffff1660e01b815260040160206040518083038186803b158015610b1357600080fd5b505afa158015610b27573d6000803e3d6000fd5b505050506040513d601f19601f82011682018060405250810190610b4b919061260f565b856121bc565b9450670429d069189e0000851115610b6f57670429d069189e000094505b849550505050505090565b60008062015180600c5442610b8f9190612beb565b610b999190612b60565b905060008062015180600d54610baf9190612b60565b905060008184610bbf9190612beb565b90505b83811015610bfe57601960008281526020019081526020016000205483610be99190612b0a565b92508080610bf690612d1d565b915050610bc2565b8294505050505090565b601b6020528060005260406000206000915090508060000154908060010154905082565b60186020528060005260406000206000915090505481565b601b60003373ffffffffffffffffffffffffffffffffffffffff1673ffffffffffffffffffffffffffffffffffffffff168152602001908152602001600020600101548110610cc8576040517f08c379a0000000000000000000000000000000000000000000000000000000008152600401610cbf90612969565b60405180910390fd5b80601b60003373ffffffffffffffffffffffffffffffffffffffff1673ffffffffffffffffffffffffffffffffffffffff1681526020019081526020016000206001016000828254610d1a9190612beb565b925050819055506000601b60003373ffffffffffffffffffffffffffffffffffffffff1673ffffffffffffffffffffffffffffffffffffffff168152602001908152602001600020600101541415610dbf57601b60003373ffffffffffffffffffffffffffffffffffffffff1673ffffffffffffffffffffffffffffffffffffffff168152602001908152602001600020600080820160009055600182016000905550505b50565b60196020528060005260406000206000915090505481565b6000601360009054906101000a900473ffffffffffffffffffffffffffffffffffffffff1673ffffffffffffffffffffffffffffffffffffffff166370a08231336040518263ffffffff1660e01b8152600401610e3791906128b8565b60206040518083038186803b158015610e4f57600080fd5b505afa158015610e63573d6000803e3d6000fd5b505050506040513d601f19601f82011682018060405250810190610e87919061260f565b9050818111610ecb576040517f08c379a0000000000000000000000000000000000000000000000000000000008152600401610ec2906129a9565b60405180910390fd5b610ef9601360009054906101000a900473ffffffffffffffffffffffffffffffffffffffff163330856121fd565b600062015180600c5442610f0d9190612beb565b610f179190612b60565b905082601860008381526020019081526020016000206000828254610f3c9190612b0a565b9250508190555082601960008381526020019081526020016000206000828254610f669190612beb565b92505081905550505050565b6000611032670de0b6b3a7640000600b54610f8d9190612b91565b601360009054906101000a900473ffffffffffffffffffffffffffffffffffffffff1673ffffffffffffffffffffffffffffffffffffffff166318160ddd6040518163ffffffff1660e01b815260040160206040518083038186803b158015610ff557600080fd5b505afa158015611009573d6000803e3d6000fd5b505050506040513d601f19601f8201168201806040525081019061102d919061260f565b6121bc565b905090565b601360009054906101000a900473ffffffffffffffffffffffffffffffffffffffff1681565b600a60009054906101000a900473ffffffffffffffffffffffffffffffffffffffff1681565b60176020528060005260406000206000915090505481565b50565b600c5481565b60006111bd3073ffffffffffffffffffffffffffffffffffffffff16631f564a066040518163ffffffff1660e01b815260040160206040518083038186803b1580156110ef57600080fd5b505afa158015611103573d6000803e3d6000fd5b505050506040513d601f19601f82011682018060405250810190611127919061260f565b3073ffffffffffffffffffffffffffffffffffffffff16630ccaf04f6040518163ffffffff1660e01b815260040160206040518083038186803b15801561116d57600080fd5b505afa158015611181573d6000803e3d6000fd5b505050506040513d601f19601f820116820180604052508101906111a5919061260f565b670c7d713b49da00006111b89190612beb565b612173565b905090565b600b5481565b600d5481565b620d2f00426111dd9190612b0a565b601b60003373ffffffffffffffffffffffffffffffffffffffff1673ffffffffffffffffffffffffffffffffffffffff1681526020019081526020016000206000018190555080601b60003373ffffffffffffffffffffffffffffffffffffffff1673ffffffffffffffffffffffffffffffffffffffff16815260200190815260200160002060010160008282546112759190612b0a565b9250508190555050565b601160009054906101000a9004600f0b81565b601660009054906101000a900473ffffffffffffffffffffffffffffffffffffffff1681565b60008060008062015180600d546112cf9190612b60565b9050600062015180600c54426112e59190612beb565b6112ef9190612b60565b9050600081141561131957601760008081526020019081526020016000205494505050505061136c565b81816113259190612beb565b92505b808310156113645760176000848152602001908152602001600020548461134f9190612b0a565b9350828061135c90612d1d565b935050611328565b839450505050505b90565b600260005414156113b5576040517f08c379a00000000000000000000000000000000000000000000000000000000081526004016113ac90612a09565b60405180910390fd5b6002600081905550601a816040516113cd919061288c565b908152602001604051809103902060000160009054906101000a900473ffffffffffffffffffffffffffffffffffffffff16601660006101000a81548173ffffffffffffffffffffffffffffffffffffffff021916908373ffffffffffffffffffffffffffffffffffffffff1602179055506203d090821115611485576040517f08c379a000000000000000000000000000000000000000000000000000000000815260040161147c906129c9565b60405180910390fd5b6000601660009054906101000a900473ffffffffffffffffffffffffffffffffffffffff1673ffffffffffffffffffffffffffffffffffffffff166370a08231336040518263ffffffff1660e01b81526004016114e291906128b8565b60206040518083038186803b1580156114fa57600080fd5b505afa15801561150e573d6000803e3d6000fd5b505050506040513d601f19601f82011682018060405250810190611532919061260f565b9050828111611576576040517f08c379a000000000000000000000000000000000000000000000000000000000815260040161156d906129a9565b60405180910390fd5b6000601a83604051611588919061288c565b908152602001604051809103902060010154611621853073ffffffffffffffffffffffffffffffffffffffff1663018a25e86040518163ffffffff1660e01b815260040160206040518083038186803b1580156115e457600080fd5b505afa1580156115f8573d6000803e3d6000fd5b505050506040513d601f19601f8201168201806040525081019061161c919061260f565b612173565b61162b9190612b91565b905061165b601660009054906101000a900473ffffffffffffffffffffffffffffffffffffffff163330846121fd565b601360009054906101000a900473ffffffffffffffffffffffffffffffffffffffff1673ffffffffffffffffffffffffffffffffffffffff166340c10f1933670de0b6b3a7640000876116ae9190612b91565b6040518363ffffffff1660e01b81526004016116cb92919061290a565b600060405180830381600087803b1580156116e557600080fd5b505af11580156116f9573d6000803e3d6000fd5b50505050601460009054906101000a900473ffffffffffffffffffffffffffffffffffffffff1673ffffffffffffffffffffffffffffffffffffffff166340c10f1930670de0b6b3a7640000876117509190612b91565b6040518363ffffffff1660e01b815260040161176d92919061290a565b600060405180830381600087803b15801561178757600080fd5b505af115801561179b573d6000803e3d6000fd5b50505050600062015180600c54426117b39190612beb565b6117bd9190612b60565b9050846017600083815260200190815260200160002060008282546117e29190612b0a565b925050819055508460196000838152602001908152602001600020600082825461180c9190612b0a565b925050819055503373ffffffffffffffffffffffffffffffffffffffff167ff633443b01504d269657083d48bb6de98e089cfff672b47fefbed21608b5c779866040516118599190612a49565b60405180910390a250505060016000819055505050565b60008060008062015180600d546118879190612b60565b9050600062015180600c544261189d9190612beb565b6118a79190612b60565b90506000808214156118ce576019600080815260200190815260200160002054935061191a565b82826118da9190612beb565b90505b81811015611919576019600082815260200190815260200160002054846119049190612b0a565b9350808061191190612d1d565b9150506118dd565b5b6119a13073ffffffffffffffffffffffffffffffffffffffff166371cd58f96040518163ffffffff1660e01b815260040160206040518083038186803b15801561196357600080fd5b505afa158015611977573d6000803e3d6000fd5b505050506040513d601f19601f8201168201806040525081019061199b919061260f565b856121bc565b9450670429d069189e00008511156119bf57670429d069189e000094505b849550505050505090565b50565b601a818051602081018201805184825260208301602085012081835280955050505050506000915090508060000160009054906101000a900473ffffffffffffffffffffffffffffffffffffffff16908060010154905082565b601a604051611a35906128a3565b908152602001604051809103902060000160009054906101000a900473ffffffffffffffffffffffffffffffffffffffff16601660006101000a81548173ffffffffffffffffffffffffffffffffffffffff021916908373ffffffffffffffffffffffffffffffffffffffff160217905550565b601b60008373ffffffffffffffffffffffffffffffffffffffff1673ffffffffffffffffffffffffffffffffffffffff16815260200190815260200160002060000154421015611b2e576040517f08c379a0000000000000000000000000000000000000000000000000000000008152600401611b25906129e9565b60405180910390fd5b601a81604051611b3e919061288c565b908152602001604051809103902060000160009054906101000a900473ffffffffffffffffffffffffffffffffffffffff16601660006101000a81548173ffffffffffffffffffffffffffffffffffffffff021916908373ffffffffffffffffffffffffffffffffffffffff1602179055506000601b60008473ffffffffffffffffffffffffffffffffffffffff1673ffffffffffffffffffffffffffffffffffffffff168152602001908152602001600020600101549050611c25601660009054906101000a900473ffffffffffffffffffffffffffffffffffffffff163033846121fd565b505050565b600860009054906101000a900473ffffffffffffffffffffffffffffffffffffffff1681565b601560009054906101000a900473ffffffffffffffffffffffffffffffffffffffff1681565b601a81604051611c86919061288c565b908152602001604051809103902060000160009054906101000a900473ffffffffffffffffffffffffffffffffffffffff16601660006101000a81548173ffffffffffffffffffffffffffffffffffffffff021916908373ffffffffffffffffffffffffffffffffffffffff1602179055506000601360009054906101000a900473ffffffffffffffffffffffffffffffffffffffff1673ffffffffffffffffffffffffffffffffffffffff166370a08231336040518263ffffffff1660e01b8152600401611d5591906128b8565b60206040518083038186803b158015611d6d57600080fd5b505afa158015611d81573d6000803e3d6000fd5b505050506040513d601f19601f82011682018060405250810190611da5919061260f565b9050838111611de9576040517f08c379a0000000000000000000000000000000000000000000000000000000008152600401611de0906129a9565b60405180910390fd5b601660009054906101000a900473ffffffffffffffffffffffffffffffffffffffff1673ffffffffffffffffffffffffffffffffffffffff1663a9059cbb33670de0b6b3a76400006001611e3d9190612b91565b87611e489190612b0a565b6040518363ffffffff1660e01b8152600401611e6592919061290a565b602060405180830381600087803b158015611e7f57600080fd5b505af1158015611e93573d6000803e3d6000fd5b505050506040513d601f19601f82011682018060405250810190611eb791906124fd565b50611ee6601360009054906101000a900473ffffffffffffffffffffffffffffffffffffffff163330876121fd565b6000843073ffffffffffffffffffffffffffffffffffffffff166343d32e9c6040518163ffffffff1660e01b815260040160206040518083038186803b158015611f2f57600080fd5b505afa158015611f43573d6000803e3d6000fd5b505050506040513d601f19601f82011682018060405250810190611f67919061260f565b611f719190612b91565b9050600062015180600c5442611f879190612beb565b611f919190612b60565b905085601860008381526020019081526020016000206000828254611fb69190612b0a565b9250508190555085601960008381526020019081526020016000206000828254611fe09190612beb565b92505081905550505050505050565b60025481565b601460009054906101000a900473ffffffffffffffffffffffffffffffffffffffff1681565b60008060008062015180600d546120329190612b60565b9050600091505b80821015612075576018600083815260200190815260200160002054836120609190612b0a565b9250818061206d90612d1d565b925050612039565b82935050505090565b81601a8460405161208f919061288c565b908152602001604051809103902060000160006101000a81548173ffffffffffffffffffffffffffffffffffffffff021916908373ffffffffffffffffffffffffffffffffffffffff16021790555080601a846040516120ef919061288c565b908152602001604051809103902060010181905550505050565b60015481565b601260009054906101000a900473ffffffffffffffffffffffffffffffffffffffff1681565b600760009054906101000a900473ffffffffffffffffffffffffffffffffffffffff1681565b620151808161216a9190612b91565b600d8190555050565b60008061218084846122d7565b9050670de0b6b3a76400006121a9826002670de0b6b3a76400006121a49190612b60565b612352565b6121b39190612b60565b91505092915050565b6000806121d184670de0b6b3a76400006122d7565b9050826121ea826002866121e59190612b60565b612352565b6121f49190612b60565b91505092915050565b60008473ffffffffffffffffffffffffffffffffffffffff166323b872dd8585856040518463ffffffff1660e01b815260040161223c939291906128d3565b602060405180830381600087803b15801561225657600080fd5b505af115801561226a573d6000803e3d6000fd5b505050506040513d601f19601f8201168201806040525081019061228e91906124fd565b9050806122d0576040517f08c379a00000000000000000000000000000000000000000000000000000000081526004016122c790612989565b60405180910390fd5b5050505050565b6000808314156122ea576000905061234c565b600082846122f89190612b91565b90508284826123079190612b60565b14612347576040517f08c379a000000000000000000000000000000000000000000000000000000000815260040161233e90612a29565b60405180910390fd5b809150505b92915050565b60008082846123619190612b0a565b9050838110156123a6576040517f08c379a000000000000000000000000000000000000000000000000000000000815260040161239d90612a29565b60405180910390fd5b8091505092915050565b60006123c36123be84612ab2565b612a8d565b9050828152602081018484840111156123df576123de612df8565b5b6123ea848285612caa565b509392505050565b60008135905061240181612fac565b92915050565b60008151905061241681612fc3565b92915050565b600082601f83011261243157612430612df3565b5b81356124418482602086016123b0565b91505092915050565b60008135905061245981612fda565b92915050565b60008151905061246e81612fda565b92915050565b60006020828403121561248a57612489612e02565b5b6000612498848285016123f2565b91505092915050565b600080604083850312156124b8576124b7612e02565b5b60006124c6858286016123f2565b925050602083013567ffffffffffffffff8111156124e7576124e6612dfd565b5b6124f38582860161241c565b9150509250929050565b60006020828403121561251357612512612e02565b5b600061252184828501612407565b91505092915050565b6000602082840312156125405761253f612e02565b5b600082013567ffffffffffffffff81111561255e5761255d612dfd565b5b61256a8482850161241c565b91505092915050565b60008060006060848603121561258c5761258b612e02565b5b600084013567ffffffffffffffff8111156125aa576125a9612dfd565b5b6125b68682870161241c565b93505060206125c7868287016123f2565b92505060406125d88682870161244a565b9150509250925092565b6000602082840312156125f8576125f7612e02565b5b60006126068482850161244a565b91505092915050565b60006020828403121561262557612624612e02565b5b60006126338482850161245f565b91505092915050565b6000806040838503121561265357612652612e02565b5b60006126618582860161244a565b925050602083013567ffffffffffffffff81111561268257612681612dfd565b5b61268e8582860161241c565b9150509250929050565b6000806000606084860312156126b1576126b0612e02565b5b60006126bf8682870161244a565b93505060206126d08682870161244a565b925050604084013567ffffffffffffffff8111156126f1576126f0612dfd565b5b6126fd8682870161241c565b9150509250925092565b61271081612c1f565b82525050565b61271f81612c74565b82525050565b61272e81612c3d565b82525050565b600061273f82612ae3565b6127498185612aff565b9350612759818560208601612cb9565b80840191505092915050565b6000612772602483612aee565b915061277d82612e18565b604082019050919050565b6000612795601583612aee565b91506127a082612e67565b602082019050919050565b60006127b8601a83612aee565b91506127c382612e90565b602082019050919050565b60006127db601583612aee565b91506127e682612eb9565b602082019050919050565b60006127fe600483612aff565b915061280982612ee2565b600482019050919050565b6000612821600c83612aee565b915061282c82612f0b565b602082019050919050565b6000612844601f83612aee565b915061284f82612f34565b602082019050919050565b6000612867602183612aee565b915061287282612f5d565b604082019050919050565b61288681612c6a565b82525050565b60006128988284612734565b915081905092915050565b60006128ae826127f1565b9150819050919050565b60006020820190506128cd6000830184612707565b92915050565b60006060820190506128e86000830186612707565b6128f56020830185612707565b612902604083018461287d565b949350505050565b600060408201905061291f6000830185612707565b61292c602083018461287d565b9392505050565b60006020820190506129486000830184612716565b92915050565b60006020820190506129636000830184612725565b92915050565b6000602082019050818103600083015261298281612765565b9050919050565b600060208201905081810360008301526129a281612788565b9050919050565b600060208201905081810360008301526129c2816127ab565b9050919050565b600060208201905081810360008301526129e2816127ce565b9050919050565b60006020820190508181036000830152612a0281612814565b9050919050565b60006020820190508181036000830152612a2281612837565b9050919050565b60006020820190508181036000830152612a428161285a565b9050919050565b6000602082019050612a5e600083018461287d565b92915050565b6000604082019050612a79600083018561287d565b612a86602083018461287d565b9392505050565b6000612a97612aa8565b9050612aa38282612cec565b919050565b6000604051905090565b600067ffffffffffffffff821115612acd57612acc612dc4565b5b612ad682612e07565b9050602081019050919050565b600081519050919050565b600082825260208201905092915050565b600081905092915050565b6000612b1582612c6a565b9150612b2083612c6a565b9250827fffffffffffffffffffffffffffffffffffffffffffffffffffffffffffffffff03821115612b5557612b54612d66565b5b828201905092915050565b6000612b6b82612c6a565b9150612b7683612c6a565b925082612b8657612b85612d95565b5b828204905092915050565b6000612b9c82612c6a565b9150612ba783612c6a565b9250817fffffffffffffffffffffffffffffffffffffffffffffffffffffffffffffffff0483118215151615612be057612bdf612d66565b5b828202905092915050565b6000612bf682612c6a565b9150612c0183612c6a565b925082821015612c1457612c13612d66565b5b828203905092915050565b6000612c2a82612c4a565b9050919050565b60008115159050919050565b600081600f0b9050919050565b600073ffffffffffffffffffffffffffffffffffffffff82169050919050565b6000819050919050565b6000612c7f82612c86565b9050919050565b6000612c9182612c98565b9050919050565b6000612ca382612c4a565b9050919050565b82818337600083830152505050565b60005b83811015612cd7578082015181840152602081019050612cbc565b83811115612ce6576000848401525b50505050565b612cf582612e07565b810181811067ffffffffffffffff82111715612d1457612d13612dc4565b5b80604052505050565b6000612d2882612c6a565b91507fffffffffffffffffffffffffffffffffffffffffffffffffffffffffffffffff821415612d5b57612d5a612d66565b5b600182019050919050565b7f4e487b7100000000000000000000000000000000000000000000000000000000600052601160045260246000fd5b7f4e487b7100000000000000000000000000000000000000000000000000000000600052601260045260246000fd5b7f4e487b7100000000000000000000000000000000000000000000000000000000600052604160045260246000fd5b600080fd5b600080fd5b600080fd5b600080fd5b6000601f19601f8301169050919050565b7f596f7520646f6e7420686176652074686174206d75636820746f20776974686460008201527f7261772100000000000000000000000000000000000000000000000000000000602082015250565b7f546f6b656e207472616e73666572206661696c65640000000000000000000000600082015250565b7f596f7520646f6e742068617665207468617420616d6f756e7421000000000000600082015250565b7f506572207472616e73616374696f6e206c696d69740000000000000000000000600082015250565b7f5553444300000000000000000000000000000000000000000000000000000000600082015250565b7f4e6f7420756e6c6f636b65640000000000000000000000000000000000000000600082015250565b7f5265656e7472616e637947756172643a207265656e7472616e742063616c6c00600082015250565b7f75696e74206f766572666c6f772066726f6d206d756c7469706c69636174696f60008201527f6e00000000000000000000000000000000000000000000000000000000000000602082015250565b612fb581612c1f565b8114612fc057600080fd5b50565b612fcc81612c31565b8114612fd757600080fd5b50565b612fe381612c6a565b8114612fee57600080fd5b5056fea26469706673582212208ea0e7e68f9fd4c3a9a508a13c780cdd07aff10dce1c691accf69a47f933eaca64736f6c63430008070033",
					"opcodes": "PUSH1 0x80 PUSH1 0x40 MSTORE PUSH3 0x186A0 PUSH1 0xE SSTORE PUSH3 0x15F90 PUSH1 0xF SSTORE PUSH3 0x927C0 PUSH1 0x10 SSTORE PUSH20 0x617F2E2FD72FD9D5503197092AC168C91465E7F2 PUSH1 0x12 PUSH1 0x0 PUSH2 0x100 EXP DUP2 SLOAD DUP2 PUSH20 0xFFFFFFFFFFFFFFFFFFFFFFFFFFFFFFFFFFFFFFFF MUL NOT AND SWAP1 DUP4 PUSH20 0xFFFFFFFFFFFFFFFFFFFFFFFFFFFFFFFFFFFFFFFF AND MUL OR SWAP1 SSTORE POP CALLVALUE DUP1 ISZERO PUSH3 0x7B JUMPI PUSH1 0x0 DUP1 REVERT JUMPDEST POP PUSH1 0x1 PUSH1 0x0 DUP2 SWAP1 SSTORE POP PUSH20 0x660C3F2A92C9AD7A8E65705ED2111946AC2D4BB4 PUSH1 0x13 PUSH1 0x0 PUSH2 0x100 EXP DUP2 SLOAD DUP2 PUSH20 0xFFFFFFFFFFFFFFFFFFFFFFFFFFFFFFFFFFFFFFFF MUL NOT AND SWAP1 DUP4 PUSH20 0xFFFFFFFFFFFFFFFFFFFFFFFFFFFFFFFFFFFFFFFF AND MUL OR SWAP1 SSTORE POP PUSH20 0xF65DBDB9CFA568B2AD52D44312A520C7EAEF8A2D PUSH1 0x14 PUSH1 0x0 PUSH2 0x100 EXP DUP2 SLOAD DUP2 PUSH20 0xFFFFFFFFFFFFFFFFFFFFFFFFFFFFFFFFFFFFFFFF MUL NOT AND SWAP1 DUP4 PUSH20 0xFFFFFFFFFFFFFFFFFFFFFFFFFFFFFFFFFFFFFFFF AND MUL OR SWAP1 SSTORE POP PUSH20 0x2557F4C8BA4BE59EDDABFD26DF4ECD7F2E678F1D PUSH1 0x15 PUSH1 0x0 PUSH2 0x100 EXP DUP2 SLOAD DUP2 PUSH20 0xFFFFFFFFFFFFFFFFFFFFFFFFFFFFFFFFFFFFFFFF MUL NOT AND SWAP1 DUP4 PUSH20 0xFFFFFFFFFFFFFFFFFFFFFFFFFFFFFFFFFFFFFFFF AND MUL OR SWAP1 SSTORE POP PUSH20 0x85F05208B6C3613F42366DE27BAFBD4DF40A8CEB PUSH1 0x1A PUSH1 0x40 MLOAD PUSH3 0x1A8 SWAP1 PUSH3 0x708 JUMP JUMPDEST SWAP1 DUP2 MSTORE PUSH1 0x20 ADD PUSH1 0x40 MLOAD DUP1 SWAP2 SUB SWAP1 KECCAK256 PUSH1 0x0 ADD PUSH1 0x0 PUSH2 0x100 EXP DUP2 SLOAD DUP2 PUSH20 0xFFFFFFFFFFFFFFFFFFFFFFFFFFFFFFFFFFFFFFFF MUL NOT AND SWAP1 DUP4 PUSH20 0xFFFFFFFFFFFFFFFFFFFFFFFFFFFFFFFFFFFFFFFF AND MUL OR SWAP1 SSTORE POP PUSH1 0x6 PUSH1 0x1A PUSH1 0x40 MLOAD PUSH3 0x209 SWAP1 PUSH3 0x708 JUMP JUMPDEST SWAP1 DUP2 MSTORE PUSH1 0x20 ADD PUSH1 0x40 MLOAD DUP1 SWAP2 SUB SWAP1 KECCAK256 PUSH1 0x1 ADD DUP2 SWAP1 SSTORE POP PUSH20 0x2A4A8AB6A0BC0D377098F8688F77003833BC1C9D PUSH1 0x1A PUSH1 0x40 MLOAD PUSH3 0x243 SWAP1 PUSH3 0x6F1 JUMP JUMPDEST SWAP1 DUP2 MSTORE PUSH1 0x20 ADD PUSH1 0x40 MLOAD DUP1 SWAP2 SUB SWAP1 KECCAK256 PUSH1 0x0 ADD PUSH1 0x0 PUSH2 0x100 EXP DUP2 SLOAD DUP2 PUSH20 0xFFFFFFFFFFFFFFFFFFFFFFFFFFFFFFFFFFFFFFFF MUL NOT AND SWAP1 DUP4 PUSH20 0xFFFFFFFFFFFFFFFFFFFFFFFFFFFFFFFFFFFFFFFF AND MUL OR SWAP1 SSTORE POP PUSH1 0x12 PUSH1 0x1A PUSH1 0x40 MLOAD PUSH3 0x2A4 SWAP1 PUSH3 0x6F1 JUMP JUMPDEST SWAP1 DUP2 MSTORE PUSH1 0x20 ADD PUSH1 0x40 MLOAD DUP1 SWAP2 SUB SWAP1 KECCAK256 PUSH1 0x1 ADD DUP2 SWAP1 SSTORE POP PUSH20 0xDC301622E621166BD8E82F2CA0A26C13AD0BE355 PUSH1 0x1A PUSH1 0x40 MLOAD PUSH3 0x2DE SWAP1 PUSH3 0x6DA JUMP JUMPDEST SWAP1 DUP2 MSTORE PUSH1 0x20 ADD PUSH1 0x40 MLOAD DUP1 SWAP2 SUB SWAP1 KECCAK256 PUSH1 0x0 ADD PUSH1 0x0 PUSH2 0x100 EXP DUP2 SLOAD DUP2 PUSH20 0xFFFFFFFFFFFFFFFFFFFFFFFFFFFFFFFFFFFFFFFF MUL NOT AND SWAP1 DUP4 PUSH20 0xFFFFFFFFFFFFFFFFFFFFFFFFFFFFFFFFFFFFFFFF AND MUL OR SWAP1 SSTORE POP PUSH1 0x12 PUSH1 0x1A PUSH1 0x40 MLOAD PUSH3 0x33F SWAP1 PUSH3 0x6DA JUMP JUMPDEST SWAP1 DUP2 MSTORE PUSH1 0x20 ADD PUSH1 0x40 MLOAD DUP1 SWAP2 SUB SWAP1 KECCAK256 PUSH1 0x1 ADD DUP2 SWAP1 SSTORE POP PUSH20 0x617F2E2FD72FD9D5503197092AC168C91465E7F2 PUSH1 0x7 PUSH1 0x0 PUSH2 0x100 EXP DUP2 SLOAD DUP2 PUSH20 0xFFFFFFFFFFFFFFFFFFFFFFFFFFFFFFFFFFFFFFFF MUL NOT AND SWAP1 DUP4 PUSH20 0xFFFFFFFFFFFFFFFFFFFFFFFFFFFFFFFFFFFFFFFF AND MUL OR SWAP1 SSTORE POP TIMESTAMP PUSH1 0xC DUP2 SWAP1 SSTORE POP PUSH3 0x69780 PUSH1 0xD DUP2 SWAP1 SSTORE POP PUSH1 0x13 PUSH1 0x0 SWAP1 SLOAD SWAP1 PUSH2 0x100 EXP SWAP1 DIV PUSH20 0xFFFFFFFFFFFFFFFFFFFFFFFFFFFFFFFFFFFFFFFF AND PUSH20 0xFFFFFFFFFFFFFFFFFFFFFFFFFFFFFFFFFFFFFFFF AND PUSH4 0x40C10F19 PUSH20 0x617F2E2FD72FD9D5503197092AC168C91465E7F2 PUSH10 0x1FE36793670C0C82000 PUSH1 0x40 MLOAD DUP4 PUSH4 0xFFFFFFFF AND PUSH1 0xE0 SHL DUP2 MSTORE PUSH1 0x4 ADD PUSH3 0x437 SWAP3 SWAP2 SWAP1 PUSH3 0x779 JUMP JUMPDEST PUSH1 0x0 PUSH1 0x40 MLOAD DUP1 DUP4 SUB DUP2 PUSH1 0x0 DUP8 DUP1 EXTCODESIZE ISZERO DUP1 ISZERO PUSH3 0x452 JUMPI PUSH1 0x0 DUP1 REVERT JUMPDEST POP GAS CALL ISZERO DUP1 ISZERO PUSH3 0x467 JUMPI RETURNDATASIZE PUSH1 0x0 DUP1 RETURNDATACOPY RETURNDATASIZE PUSH1 0x0 REVERT JUMPDEST POP POP POP POP PUSH1 0x13 PUSH1 0x0 SWAP1 SLOAD SWAP1 PUSH2 0x100 EXP SWAP1 DIV PUSH20 0xFFFFFFFFFFFFFFFFFFFFFFFFFFFFFFFFFFFFFFFF AND PUSH20 0xFFFFFFFFFFFFFFFFFFFFFFFFFFFFFFFFFFFFFFFF AND PUSH4 0x40C10F19 PUSH20 0x17F6AD8EF982297579C203069C1DBFFE4348C372 PUSH10 0x97782BFBF68AB74E000 PUSH1 0x40 MLOAD DUP4 PUSH4 0xFFFFFFFF AND PUSH1 0xE0 SHL DUP2 MSTORE PUSH1 0x4 ADD PUSH3 0x4E8 SWAP3 SWAP2 SWAP1 PUSH3 0x71F JUMP JUMPDEST PUSH1 0x0 PUSH1 0x40 MLOAD DUP1 DUP4 SUB DUP2 PUSH1 0x0 DUP8 DUP1 EXTCODESIZE ISZERO DUP1 ISZERO PUSH3 0x503 JUMPI PUSH1 0x0 DUP1 REVERT JUMPDEST POP GAS CALL ISZERO DUP1 ISZERO PUSH3 0x518 JUMPI RETURNDATASIZE PUSH1 0x0 DUP1 RETURNDATACOPY RETURNDATASIZE PUSH1 0x0 REVERT JUMPDEST POP POP POP POP PUSH1 0x13 PUSH1 0x0 SWAP1 SLOAD SWAP1 PUSH2 0x100 EXP SWAP1 DIV PUSH20 0xFFFFFFFFFFFFFFFFFFFFFFFFFFFFFFFFFFFFFFFF AND PUSH20 0xFFFFFFFFFFFFFFFFFFFFFFFFFFFFFFFFFFFFFFFF AND PUSH4 0x40C10F19 PUSH20 0x5C6B0F7BF3E7CE046039BD8FABDFD3F9F5021678 PUSH10 0x9F7105E1033C3E8A000 PUSH1 0x40 MLOAD DUP4 PUSH4 0xFFFFFFFF AND PUSH1 0xE0 SHL DUP2 MSTORE PUSH1 0x4 ADD PUSH3 0x599 SWAP3 SWAP2 SWAP1 PUSH3 0x74C JUMP JUMPDEST PUSH1 0x0 PUSH1 0x40 MLOAD DUP1 DUP4 SUB DUP2 PUSH1 0x0 DUP8 DUP1 EXTCODESIZE ISZERO DUP1 ISZERO PUSH3 0x5B4 JUMPI PUSH1 0x0 DUP1 REVERT JUMPDEST POP GAS CALL ISZERO DUP1 ISZERO PUSH3 0x5C9 JUMPI RETURNDATASIZE PUSH1 0x0 DUP1 RETURNDATACOPY RETURNDATASIZE PUSH1 0x0 REVERT JUMPDEST POP POP POP POP PUSH10 0x156CC997060D3025A000 PUSH1 0x17 PUSH1 0x0 DUP1 DUP2 MSTORE PUSH1 0x20 ADD SWAP1 DUP2 MSTORE PUSH1 0x20 ADD PUSH1 0x0 KECCAK256 DUP2 SWAP1 SSTORE POP PUSH10 0x156CC997060D3025A000 PUSH1 0x19 PUSH1 0x0 DUP1 DUP2 MSTORE PUSH1 0x20 ADD SWAP1 DUP2 MSTORE PUSH1 0x20 ADD PUSH1 0x0 KECCAK256 DUP2 SWAP1 SSTORE POP PUSH3 0x8B290 PUSH1 0xB DUP2 SWAP1 SSTORE POP PUSH3 0x8A6 JUMP JUMPDEST PUSH3 0x62C DUP2 PUSH3 0x7B1 JUMP JUMPDEST DUP3 MSTORE POP POP JUMP JUMPDEST PUSH3 0x63D DUP2 PUSH3 0x7EF JUMP JUMPDEST DUP3 MSTORE POP POP JUMP JUMPDEST PUSH3 0x64E DUP2 PUSH3 0x803 JUMP JUMPDEST DUP3 MSTORE POP POP JUMP JUMPDEST PUSH3 0x65F DUP2 PUSH3 0x817 JUMP JUMPDEST DUP3 MSTORE POP POP JUMP JUMPDEST PUSH1 0x0 PUSH3 0x674 PUSH1 0x4 DUP4 PUSH3 0x7A6 JUMP JUMPDEST SWAP2 POP PUSH3 0x681 DUP3 PUSH3 0x82B JUMP JUMPDEST PUSH1 0x4 DUP3 ADD SWAP1 POP SWAP2 SWAP1 POP JUMP JUMPDEST PUSH1 0x0 PUSH3 0x69B PUSH1 0x3 DUP4 PUSH3 0x7A6 JUMP JUMPDEST SWAP2 POP PUSH3 0x6A8 DUP3 PUSH3 0x854 JUMP JUMPDEST PUSH1 0x3 DUP3 ADD SWAP1 POP SWAP2 SWAP1 POP JUMP JUMPDEST PUSH1 0x0 PUSH3 0x6C2 PUSH1 0x4 DUP4 PUSH3 0x7A6 JUMP JUMPDEST SWAP2 POP PUSH3 0x6CF DUP3 PUSH3 0x87D JUMP JUMPDEST PUSH1 0x4 DUP3 ADD SWAP1 POP SWAP2 SWAP1 POP JUMP JUMPDEST PUSH1 0x0 PUSH3 0x6E7 DUP3 PUSH3 0x665 JUMP JUMPDEST SWAP2 POP DUP2 SWAP1 POP SWAP2 SWAP1 POP JUMP JUMPDEST PUSH1 0x0 PUSH3 0x6FE DUP3 PUSH3 0x68C JUMP JUMPDEST SWAP2 POP DUP2 SWAP1 POP SWAP2 SWAP1 POP JUMP JUMPDEST PUSH1 0x0 PUSH3 0x715 DUP3 PUSH3 0x6B3 JUMP JUMPDEST SWAP2 POP DUP2 SWAP1 POP SWAP2 SWAP1 POP JUMP JUMPDEST PUSH1 0x0 PUSH1 0x40 DUP3 ADD SWAP1 POP PUSH3 0x736 PUSH1 0x0 DUP4 ADD DUP6 PUSH3 0x621 JUMP JUMPDEST PUSH3 0x745 PUSH1 0x20 DUP4 ADD DUP5 PUSH3 0x632 JUMP JUMPDEST SWAP4 SWAP3 POP POP POP JUMP JUMPDEST PUSH1 0x0 PUSH1 0x40 DUP3 ADD SWAP1 POP PUSH3 0x763 PUSH1 0x0 DUP4 ADD DUP6 PUSH3 0x621 JUMP JUMPDEST PUSH3 0x772 PUSH1 0x20 DUP4 ADD DUP5 PUSH3 0x643 JUMP JUMPDEST SWAP4 SWAP3 POP POP POP JUMP JUMPDEST PUSH1 0x0 PUSH1 0x40 DUP3 ADD SWAP1 POP PUSH3 0x790 PUSH1 0x0 DUP4 ADD DUP6 PUSH3 0x621 JUMP JUMPDEST PUSH3 0x79F PUSH1 0x20 DUP4 ADD DUP5 PUSH3 0x654 JUMP JUMPDEST SWAP4 SWAP3 POP POP POP JUMP JUMPDEST PUSH1 0x0 DUP2 SWAP1 POP SWAP3 SWAP2 POP POP JUMP JUMPDEST PUSH1 0x0 PUSH3 0x7BE DUP3 PUSH3 0x7C5 JUMP JUMPDEST SWAP1 POP SWAP2 SWAP1 POP JUMP JUMPDEST PUSH1 0x0 PUSH20 0xFFFFFFFFFFFFFFFFFFFFFFFFFFFFFFFFFFFFFFFF DUP3 AND SWAP1 POP SWAP2 SWAP1 POP JUMP JUMPDEST PUSH1 0x0 DUP2 SWAP1 POP SWAP2 SWAP1 POP JUMP JUMPDEST PUSH1 0x0 PUSH3 0x7FC DUP3 PUSH3 0x7E5 JUMP JUMPDEST SWAP1 POP SWAP2 SWAP1 POP JUMP JUMPDEST PUSH1 0x0 PUSH3 0x810 DUP3 PUSH3 0x7E5 JUMP JUMPDEST SWAP1 POP SWAP2 SWAP1 POP JUMP JUMPDEST PUSH1 0x0 PUSH3 0x824 DUP3 PUSH3 0x7E5 JUMP JUMPDEST SWAP1 POP SWAP2 SWAP1 POP JUMP JUMPDEST PUSH32 0x4652415800000000000000000000000000000000000000000000000000000000 PUSH1 0x0 DUP3 ADD MSTORE POP JUMP JUMPDEST PUSH32 0x4441490000000000000000000000000000000000000000000000000000000000 PUSH1 0x0 DUP3 ADD MSTORE POP JUMP JUMPDEST PUSH32 0x5553444300000000000000000000000000000000000000000000000000000000 PUSH1 0x0 DUP3 ADD MSTORE POP JUMP JUMPDEST PUSH2 0x3027 DUP1 PUSH3 0x8B6 PUSH1 0x0 CODECOPY PUSH1 0x0 RETURN INVALID PUSH1 0x80 PUSH1 0x40 MSTORE PUSH1 0x4 CALLDATASIZE LT PUSH2 0x230 JUMPI PUSH1 0x0 CALLDATALOAD PUSH1 0xE0 SHR DUP1 PUSH4 0x6F10E285 GT PUSH2 0x12E JUMPI DUP1 PUSH4 0xC0CA6FB4 GT PUSH2 0xAB JUMPI DUP1 PUSH4 0xE5D98082 GT PUSH2 0x6F JUMPI DUP1 PUSH4 0xE5D98082 EQ PUSH2 0x809 JUMPI DUP1 PUSH4 0xEE620868 EQ PUSH2 0x832 JUMPI DUP1 PUSH4 0xEEE05F5E EQ PUSH2 0x85D JUMPI DUP1 PUSH4 0xFBBB4589 EQ PUSH2 0x888 JUMPI DUP1 PUSH4 0xFC361443 EQ PUSH2 0x8B3 JUMPI PUSH2 0x230 JUMP JUMPDEST DUP1 PUSH4 0xC0CA6FB4 EQ PUSH2 0x741 JUMPI DUP1 PUSH4 0xC0CE5889 EQ PUSH2 0x76C JUMPI DUP1 PUSH4 0xCBFF4617 EQ PUSH2 0x788 JUMPI DUP1 PUSH4 0xD04D7908 EQ PUSH2 0x7B3 JUMPI DUP1 PUSH4 0xD82EDDF2 EQ PUSH2 0x7DE JUMPI PUSH2 0x230 JUMP JUMPDEST DUP1 PUSH4 0x9B19251A GT PUSH2 0xF2 JUMPI DUP1 PUSH4 0x9B19251A EQ PUSH2 0x66F JUMPI DUP1 PUSH4 0xA475BF48 EQ PUSH2 0x698 JUMPI DUP1 PUSH4 0xBCB3DE54 EQ PUSH2 0x6D6 JUMPI DUP1 PUSH4 0xBDAD7F02 EQ PUSH2 0x6ED JUMPI DUP1 PUSH4 0xC079D7F6 EQ PUSH2 0x716 JUMPI PUSH2 0x230 JUMP JUMPDEST DUP1 PUSH4 0x6F10E285 EQ PUSH2 0x59A JUMPI DUP1 PUSH4 0x7087A7A5 EQ PUSH2 0x5C5 JUMPI DUP1 PUSH4 0x71CD58F9 EQ PUSH2 0x5F0 JUMPI DUP1 PUSH4 0x862D1B35 EQ PUSH2 0x61B JUMPI DUP1 PUSH4 0x93F7B711 EQ PUSH2 0x644 JUMPI PUSH2 0x230 JUMP JUMPDEST DUP1 PUSH4 0x1F564A06 GT PUSH2 0x1BC JUMPI DUP1 PUSH4 0x3C6EB17A GT PUSH2 0x180 JUMPI DUP1 PUSH4 0x3C6EB17A EQ PUSH2 0x4C5 JUMPI DUP1 PUSH4 0x43D32E9C EQ PUSH2 0x4F0 JUMPI DUP1 PUSH4 0x66763319 EQ PUSH2 0x51B JUMPI DUP1 PUSH4 0x67B48C91 EQ PUSH2 0x546 JUMPI DUP1 PUSH4 0x67E927A8 EQ PUSH2 0x571 JUMPI PUSH2 0x230 JUMP JUMPDEST DUP1 PUSH4 0x1F564A06 EQ PUSH2 0x3DE JUMPI DUP1 PUSH4 0x26AE486E EQ PUSH2 0x409 JUMPI DUP1 PUSH4 0x29982A32 EQ PUSH2 0x434 JUMPI DUP1 PUSH4 0x2A9F0FB1 EQ PUSH2 0x45F JUMPI DUP1 PUSH4 0x39AD95D6 EQ PUSH2 0x49C JUMPI PUSH2 0x230 JUMP JUMPDEST DUP1 PUSH4 0x12B2ED94 GT PUSH2 0x203 JUMPI DUP1 PUSH4 0x12B2ED94 EQ PUSH2 0x2E1 JUMPI DUP1 PUSH4 0x1514C976 EQ PUSH2 0x31F JUMPI DUP1 PUSH4 0x164C8501 EQ PUSH2 0x35C JUMPI DUP1 PUSH4 0x1A30E872 EQ PUSH2 0x385 JUMPI DUP1 PUSH4 0x1BC9CC45 EQ PUSH2 0x3C2 JUMPI PUSH2 0x230 JUMP JUMPDEST DUP1 PUSH4 0x18A25E8 EQ PUSH2 0x235 JUMPI DUP1 PUSH4 0x47729B0 EQ PUSH2 0x260 JUMPI DUP1 PUSH4 0xCCAF04F EQ PUSH2 0x28B JUMPI DUP1 PUSH4 0xF65DE3E EQ PUSH2 0x2B6 JUMPI JUMPDEST PUSH1 0x0 DUP1 REVERT JUMPDEST CALLVALUE DUP1 ISZERO PUSH2 0x241 JUMPI PUSH1 0x0 DUP1 REVERT JUMPDEST POP PUSH2 0x24A PUSH2 0x8DC JUMP JUMPDEST PUSH1 0x40 MLOAD PUSH2 0x257 SWAP2 SWAP1 PUSH2 0x2A49 JUMP JUMPDEST PUSH1 0x40 MLOAD DUP1 SWAP2 SUB SWAP1 RETURN JUMPDEST CALLVALUE DUP1 ISZERO PUSH2 0x26C JUMPI PUSH1 0x0 DUP1 REVERT JUMPDEST POP PUSH2 0x275 PUSH2 0x9FA JUMP JUMPDEST PUSH1 0x40 MLOAD PUSH2 0x282 SWAP2 SWAP1 PUSH2 0x28B8 JUMP JUMPDEST PUSH1 0x40 MLOAD DUP1 SWAP2 SUB SWAP1 RETURN JUMPDEST CALLVALUE DUP1 ISZERO PUSH2 0x297 JUMPI PUSH1 0x0 DUP1 REVERT JUMPDEST POP PUSH2 0x2A0 PUSH2 0xA20 JUMP JUMPDEST PUSH1 0x40 MLOAD PUSH2 0x2AD SWAP2 SWAP1 PUSH2 0x2A49 JUMP JUMPDEST PUSH1 0x40 MLOAD DUP1 SWAP2 SUB SWAP1 RETURN JUMPDEST CALLVALUE DUP1 ISZERO PUSH2 0x2C2 JUMPI PUSH1 0x0 DUP1 REVERT JUMPDEST POP PUSH2 0x2CB PUSH2 0xB7A JUMP JUMPDEST PUSH1 0x40 MLOAD PUSH2 0x2D8 SWAP2 SWAP1 PUSH2 0x2A49 JUMP JUMPDEST PUSH1 0x40 MLOAD DUP1 SWAP2 SUB SWAP1 RETURN JUMPDEST CALLVALUE DUP1 ISZERO PUSH2 0x2ED JUMPI PUSH1 0x0 DUP1 REVERT JUMPDEST POP PUSH2 0x308 PUSH1 0x4 DUP1 CALLDATASIZE SUB DUP2 ADD SWAP1 PUSH2 0x303 SWAP2 SWAP1 PUSH2 0x2474 JUMP JUMPDEST PUSH2 0xC08 JUMP JUMPDEST PUSH1 0x40 MLOAD PUSH2 0x316 SWAP3 SWAP2 SWAP1 PUSH2 0x2A64 JUMP JUMPDEST PUSH1 0x40 MLOAD DUP1 SWAP2 SUB SWAP1 RETURN JUMPDEST CALLVALUE DUP1 ISZERO PUSH2 0x32B JUMPI PUSH1 0x0 DUP1 REVERT JUMPDEST POP PUSH2 0x346 PUSH1 0x4 DUP1 CALLDATASIZE SUB DUP2 ADD SWAP1 PUSH2 0x341 SWAP2 SWAP1 PUSH2 0x25E2 JUMP JUMPDEST PUSH2 0xC2C JUMP JUMPDEST PUSH1 0x40 MLOAD PUSH2 0x353 SWAP2 SWAP1 PUSH2 0x2A49 JUMP JUMPDEST PUSH1 0x40 MLOAD DUP1 SWAP2 SUB SWAP1 RETURN JUMPDEST CALLVALUE DUP1 ISZERO PUSH2 0x368 JUMPI PUSH1 0x0 DUP1 REVERT JUMPDEST POP PUSH2 0x383 PUSH1 0x4 DUP1 CALLDATASIZE SUB DUP2 ADD SWAP1 PUSH2 0x37E SWAP2 SWAP1 PUSH2 0x25E2 JUMP JUMPDEST PUSH2 0xC44 JUMP JUMPDEST STOP JUMPDEST CALLVALUE DUP1 ISZERO PUSH2 0x391 JUMPI PUSH1 0x0 DUP1 REVERT JUMPDEST POP PUSH2 0x3AC PUSH1 0x4 DUP1 CALLDATASIZE SUB DUP2 ADD SWAP1 PUSH2 0x3A7 SWAP2 SWAP1 PUSH2 0x25E2 JUMP JUMPDEST PUSH2 0xDC2 JUMP JUMPDEST PUSH1 0x40 MLOAD PUSH2 0x3B9 SWAP2 SWAP1 PUSH2 0x2A49 JUMP JUMPDEST PUSH1 0x40 MLOAD DUP1 SWAP2 SUB SWAP1 RETURN JUMPDEST PUSH2 0x3DC PUSH1 0x4 DUP1 CALLDATASIZE SUB DUP2 ADD SWAP1 PUSH2 0x3D7 SWAP2 SWAP1 PUSH2 0x25E2 JUMP JUMPDEST PUSH2 0xDDA JUMP JUMPDEST STOP JUMPDEST CALLVALUE DUP1 ISZERO PUSH2 0x3EA JUMPI PUSH1 0x0 DUP1 REVERT JUMPDEST POP PUSH2 0x3F3 PUSH2 0xF72 JUMP JUMPDEST PUSH1 0x40 MLOAD PUSH2 0x400 SWAP2 SWAP1 PUSH2 0x2A49 JUMP JUMPDEST PUSH1 0x40 MLOAD DUP1 SWAP2 SUB SWAP1 RETURN JUMPDEST CALLVALUE DUP1 ISZERO PUSH2 0x415 JUMPI PUSH1 0x0 DUP1 REVERT JUMPDEST POP PUSH2 0x41E PUSH2 0x1037 JUMP JUMPDEST PUSH1 0x40 MLOAD PUSH2 0x42B SWAP2 SWAP1 PUSH2 0x2933 JUMP JUMPDEST PUSH1 0x40 MLOAD DUP1 SWAP2 SUB SWAP1 RETURN JUMPDEST CALLVALUE DUP1 ISZERO PUSH2 0x440 JUMPI PUSH1 0x0 DUP1 REVERT JUMPDEST POP PUSH2 0x449 PUSH2 0x105D JUMP JUMPDEST PUSH1 0x40 MLOAD PUSH2 0x456 SWAP2 SWAP1 PUSH2 0x28B8 JUMP JUMPDEST PUSH1 0x40 MLOAD DUP1 SWAP2 SUB SWAP1 RETURN JUMPDEST CALLVALUE DUP1 ISZERO PUSH2 0x46B JUMPI PUSH1 0x0 DUP1 REVERT JUMPDEST POP PUSH2 0x486 PUSH1 0x4 DUP1 CALLDATASIZE SUB DUP2 ADD SWAP1 PUSH2 0x481 SWAP2 SWAP1 PUSH2 0x25E2 JUMP JUMPDEST PUSH2 0x1083 JUMP JUMPDEST PUSH1 0x40 MLOAD PUSH2 0x493 SWAP2 SWAP1 PUSH2 0x2A49 JUMP JUMPDEST PUSH1 0x40 MLOAD DUP1 SWAP2 SUB SWAP1 RETURN JUMPDEST CALLVALUE DUP1 ISZERO PUSH2 0x4A8 JUMPI PUSH1 0x0 DUP1 REVERT JUMPDEST POP PUSH2 0x4C3 PUSH1 0x4 DUP1 CALLDATASIZE SUB DUP2 ADD SWAP1 PUSH2 0x4BE SWAP2 SWAP1 PUSH2 0x25E2 JUMP JUMPDEST PUSH2 0x109B JUMP JUMPDEST STOP JUMPDEST CALLVALUE DUP1 ISZERO PUSH2 0x4D1 JUMPI PUSH1 0x0 DUP1 REVERT JUMPDEST POP PUSH2 0x4DA PUSH2 0x109E JUMP JUMPDEST PUSH1 0x40 MLOAD PUSH2 0x4E7 SWAP2 SWAP1 PUSH2 0x2A49 JUMP JUMPDEST PUSH1 0x40 MLOAD DUP1 SWAP2 SUB SWAP1 RETURN JUMPDEST CALLVALUE DUP1 ISZERO PUSH2 0x4FC JUMPI PUSH1 0x0 DUP1 REVERT JUMPDEST POP PUSH2 0x505 PUSH2 0x10A4 JUMP JUMPDEST PUSH1 0x40 MLOAD PUSH2 0x512 SWAP2 SWAP1 PUSH2 0x2A49 JUMP JUMPDEST PUSH1 0x40 MLOAD DUP1 SWAP2 SUB SWAP1 RETURN JUMPDEST CALLVALUE DUP1 ISZERO PUSH2 0x527 JUMPI PUSH1 0x0 DUP1 REVERT JUMPDEST POP PUSH2 0x530 PUSH2 0x11C2 JUMP JUMPDEST PUSH1 0x40 MLOAD PUSH2 0x53D SWAP2 SWAP1 PUSH2 0x2A49 JUMP JUMPDEST PUSH1 0x40 MLOAD DUP1 SWAP2 SUB SWAP1 RETURN JUMPDEST CALLVALUE DUP1 ISZERO PUSH2 0x552 JUMPI PUSH1 0x0 DUP1 REVERT JUMPDEST POP PUSH2 0x55B PUSH2 0x11C8 JUMP JUMPDEST PUSH1 0x40 MLOAD PUSH2 0x568 SWAP2 SWAP1 PUSH2 0x2A49 JUMP JUMPDEST PUSH1 0x40 MLOAD DUP1 SWAP2 SUB SWAP1 RETURN JUMPDEST CALLVALUE DUP1 ISZERO PUSH2 0x57D JUMPI PUSH1 0x0 DUP1 REVERT JUMPDEST POP PUSH2 0x598 PUSH1 0x4 DUP1 CALLDATASIZE SUB DUP2 ADD SWAP1 PUSH2 0x593 SWAP2 SWAP1 PUSH2 0x25E2 JUMP JUMPDEST PUSH2 0x11CE JUMP JUMPDEST STOP JUMPDEST CALLVALUE DUP1 ISZERO PUSH2 0x5A6 JUMPI PUSH1 0x0 DUP1 REVERT JUMPDEST POP PUSH2 0x5AF PUSH2 0x127F JUMP JUMPDEST PUSH1 0x40 MLOAD PUSH2 0x5BC SWAP2 SWAP1 PUSH2 0x294E JUMP JUMPDEST PUSH1 0x40 MLOAD DUP1 SWAP2 SUB SWAP1 RETURN JUMPDEST CALLVALUE DUP1 ISZERO PUSH2 0x5D1 JUMPI PUSH1 0x0 DUP1 REVERT JUMPDEST POP PUSH2 0x5DA PUSH2 0x1292 JUMP JUMPDEST PUSH1 0x40 MLOAD PUSH2 0x5E7 SWAP2 SWAP1 PUSH2 0x2933 JUMP JUMPDEST PUSH1 0x40 MLOAD DUP1 SWAP2 SUB SWAP1 RETURN JUMPDEST CALLVALUE DUP1 ISZERO PUSH2 0x5FC JUMPI PUSH1 0x0 DUP1 REVERT JUMPDEST POP PUSH2 0x605 PUSH2 0x12B8 JUMP JUMPDEST PUSH1 0x40 MLOAD PUSH2 0x612 SWAP2 SWAP1 PUSH2 0x2A49 JUMP JUMPDEST PUSH1 0x40 MLOAD DUP1 SWAP2 SUB SWAP1 RETURN JUMPDEST CALLVALUE DUP1 ISZERO PUSH2 0x627 JUMPI PUSH1 0x0 DUP1 REVERT JUMPDEST POP PUSH2 0x642 PUSH1 0x4 DUP1 CALLDATASIZE SUB DUP2 ADD SWAP1 PUSH2 0x63D SWAP2 SWAP1 PUSH2 0x263C JUMP JUMPDEST PUSH2 0x136F JUMP JUMPDEST STOP JUMPDEST CALLVALUE DUP1 ISZERO PUSH2 0x650 JUMPI PUSH1 0x0 DUP1 REVERT JUMPDEST POP PUSH2 0x659 PUSH2 0x1870 JUMP JUMPDEST PUSH1 0x40 MLOAD PUSH2 0x666 SWAP2 SWAP1 PUSH2 0x2A49 JUMP JUMPDEST PUSH1 0x40 MLOAD DUP1 SWAP2 SUB SWAP1 RETURN JUMPDEST CALLVALUE DUP1 ISZERO PUSH2 0x67B JUMPI PUSH1 0x0 DUP1 REVERT JUMPDEST POP PUSH2 0x696 PUSH1 0x4 DUP1 CALLDATASIZE SUB DUP2 ADD SWAP1 PUSH2 0x691 SWAP2 SWAP1 PUSH2 0x2474 JUMP JUMPDEST PUSH2 0x19CA JUMP JUMPDEST STOP JUMPDEST CALLVALUE DUP1 ISZERO PUSH2 0x6A4 JUMPI PUSH1 0x0 DUP1 REVERT JUMPDEST POP PUSH2 0x6BF PUSH1 0x4 DUP1 CALLDATASIZE SUB DUP2 ADD SWAP1 PUSH2 0x6BA SWAP2 SWAP1 PUSH2 0x252A JUMP JUMPDEST PUSH2 0x19CD JUMP JUMPDEST PUSH1 0x40 MLOAD PUSH2 0x6CD SWAP3 SWAP2 SWAP1 PUSH2 0x290A JUMP JUMPDEST PUSH1 0x40 MLOAD DUP1 SWAP2 SUB SWAP1 RETURN JUMPDEST CALLVALUE DUP1 ISZERO PUSH2 0x6E2 JUMPI PUSH1 0x0 DUP1 REVERT JUMPDEST POP PUSH2 0x6EB PUSH2 0x1A27 JUMP JUMPDEST STOP JUMPDEST CALLVALUE DUP1 ISZERO PUSH2 0x6F9 JUMPI PUSH1 0x0 DUP1 REVERT JUMPDEST POP PUSH2 0x714 PUSH1 0x4 DUP1 CALLDATASIZE SUB DUP2 ADD SWAP1 PUSH2 0x70F SWAP2 SWAP1 PUSH2 0x24A1 JUMP JUMPDEST PUSH2 0x1AA9 JUMP JUMPDEST STOP JUMPDEST CALLVALUE DUP1 ISZERO PUSH2 0x722 JUMPI PUSH1 0x0 DUP1 REVERT JUMPDEST POP PUSH2 0x72B PUSH2 0x1C2A JUMP JUMPDEST PUSH1 0x40 MLOAD PUSH2 0x738 SWAP2 SWAP1 PUSH2 0x28B8 JUMP JUMPDEST PUSH1 0x40 MLOAD DUP1 SWAP2 SUB SWAP1 RETURN JUMPDEST CALLVALUE DUP1 ISZERO PUSH2 0x74D JUMPI PUSH1 0x0 DUP1 REVERT JUMPDEST POP PUSH2 0x756 PUSH2 0x1C50 JUMP JUMPDEST PUSH1 0x40 MLOAD PUSH2 0x763 SWAP2 SWAP1 PUSH2 0x2933 JUMP JUMPDEST PUSH1 0x40 MLOAD DUP1 SWAP2 SUB SWAP1 RETURN JUMPDEST PUSH2 0x786 PUSH1 0x4 DUP1 CALLDATASIZE SUB DUP2 ADD SWAP1 PUSH2 0x781 SWAP2 SWAP1 PUSH2 0x2698 JUMP JUMPDEST PUSH2 0x1C76 JUMP JUMPDEST STOP JUMPDEST CALLVALUE DUP1 ISZERO PUSH2 0x794 JUMPI PUSH1 0x0 DUP1 REVERT JUMPDEST POP PUSH2 0x79D PUSH2 0x1FEF JUMP JUMPDEST PUSH1 0x40 MLOAD PUSH2 0x7AA SWAP2 SWAP1 PUSH2 0x2A49 JUMP JUMPDEST PUSH1 0x40 MLOAD DUP1 SWAP2 SUB SWAP1 RETURN JUMPDEST CALLVALUE DUP1 ISZERO PUSH2 0x7BF JUMPI PUSH1 0x0 DUP1 REVERT JUMPDEST POP PUSH2 0x7C8 PUSH2 0x1FF5 JUMP JUMPDEST PUSH1 0x40 MLOAD PUSH2 0x7D5 SWAP2 SWAP1 PUSH2 0x2933 JUMP JUMPDEST PUSH1 0x40 MLOAD DUP1 SWAP2 SUB SWAP1 RETURN JUMPDEST CALLVALUE DUP1 ISZERO PUSH2 0x7EA JUMPI PUSH1 0x0 DUP1 REVERT JUMPDEST POP PUSH2 0x7F3 PUSH2 0x201B JUMP JUMPDEST PUSH1 0x40 MLOAD PUSH2 0x800 SWAP2 SWAP1 PUSH2 0x2A49 JUMP JUMPDEST PUSH1 0x40 MLOAD DUP1 SWAP2 SUB SWAP1 RETURN JUMPDEST CALLVALUE DUP1 ISZERO PUSH2 0x815 JUMPI PUSH1 0x0 DUP1 REVERT JUMPDEST POP PUSH2 0x830 PUSH1 0x4 DUP1 CALLDATASIZE SUB DUP2 ADD SWAP1 PUSH2 0x82B SWAP2 SWAP1 PUSH2 0x2573 JUMP JUMPDEST PUSH2 0x207E JUMP JUMPDEST STOP JUMPDEST CALLVALUE DUP1 ISZERO PUSH2 0x83E JUMPI PUSH1 0x0 DUP1 REVERT JUMPDEST POP PUSH2 0x847 PUSH2 0x2109 JUMP JUMPDEST PUSH1 0x40 MLOAD PUSH2 0x854 SWAP2 SWAP1 PUSH2 0x2A49 JUMP JUMPDEST PUSH1 0x40 MLOAD DUP1 SWAP2 SUB SWAP1 RETURN JUMPDEST CALLVALUE DUP1 ISZERO PUSH2 0x869 JUMPI PUSH1 0x0 DUP1 REVERT JUMPDEST POP PUSH2 0x872 PUSH2 0x210F JUMP JUMPDEST PUSH1 0x40 MLOAD PUSH2 0x87F SWAP2 SWAP1 PUSH2 0x28B8 JUMP JUMPDEST PUSH1 0x40 MLOAD DUP1 SWAP2 SUB SWAP1 RETURN JUMPDEST CALLVALUE DUP1 ISZERO PUSH2 0x894 JUMPI PUSH1 0x0 DUP1 REVERT JUMPDEST POP PUSH2 0x89D PUSH2 0x2135 JUMP JUMPDEST PUSH1 0x40 MLOAD PUSH2 0x8AA SWAP2 SWAP1 PUSH2 0x28B8 JUMP JUMPDEST PUSH1 0x40 MLOAD DUP1 SWAP2 SUB SWAP1 RETURN JUMPDEST CALLVALUE DUP1 ISZERO PUSH2 0x8BF JUMPI PUSH1 0x0 DUP1 REVERT JUMPDEST POP PUSH2 0x8DA PUSH1 0x4 DUP1 CALLDATASIZE SUB DUP2 ADD SWAP1 PUSH2 0x8D5 SWAP2 SWAP1 PUSH2 0x25E2 JUMP JUMPDEST PUSH2 0x215B JUMP JUMPDEST STOP JUMPDEST PUSH1 0x0 PUSH2 0x9F5 ADDRESS PUSH20 0xFFFFFFFFFFFFFFFFFFFFFFFFFFFFFFFFFFFFFFFF AND PUSH4 0x1F564A06 PUSH1 0x40 MLOAD DUP2 PUSH4 0xFFFFFFFF AND PUSH1 0xE0 SHL DUP2 MSTORE PUSH1 0x4 ADD PUSH1 0x20 PUSH1 0x40 MLOAD DUP1 DUP4 SUB DUP2 DUP7 DUP1 EXTCODESIZE ISZERO DUP1 ISZERO PUSH2 0x927 JUMPI PUSH1 0x0 DUP1 REVERT JUMPDEST POP GAS STATICCALL ISZERO DUP1 ISZERO PUSH2 0x93B JUMPI RETURNDATASIZE PUSH1 0x0 DUP1 RETURNDATACOPY RETURNDATASIZE PUSH1 0x0 REVERT JUMPDEST POP POP POP POP PUSH1 0x40 MLOAD RETURNDATASIZE PUSH1 0x1F NOT PUSH1 0x1F DUP3 ADD AND DUP3 ADD DUP1 PUSH1 0x40 MSTORE POP DUP2 ADD SWAP1 PUSH2 0x95F SWAP2 SWAP1 PUSH2 0x260F JUMP JUMPDEST ADDRESS PUSH20 0xFFFFFFFFFFFFFFFFFFFFFFFFFFFFFFFFFFFFFFFF AND PUSH4 0x93F7B711 PUSH1 0x40 MLOAD DUP2 PUSH4 0xFFFFFFFF AND PUSH1 0xE0 SHL DUP2 MSTORE PUSH1 0x4 ADD PUSH1 0x20 PUSH1 0x40 MLOAD DUP1 DUP4 SUB DUP2 DUP7 DUP1 EXTCODESIZE ISZERO DUP1 ISZERO PUSH2 0x9A5 JUMPI PUSH1 0x0 DUP1 REVERT JUMPDEST POP GAS STATICCALL ISZERO DUP1 ISZERO PUSH2 0x9B9 JUMPI RETURNDATASIZE PUSH1 0x0 DUP1 RETURNDATACOPY RETURNDATASIZE PUSH1 0x0 REVERT JUMPDEST POP POP POP POP PUSH1 0x40 MLOAD RETURNDATASIZE PUSH1 0x1F NOT PUSH1 0x1F DUP3 ADD AND DUP3 ADD DUP1 PUSH1 0x40 MSTORE POP DUP2 ADD SWAP1 PUSH2 0x9DD SWAP2 SWAP1 PUSH2 0x260F JUMP JUMPDEST PUSH8 0x10A741A462780000 PUSH2 0x9F0 SWAP2 SWAP1 PUSH2 0x2B0A JUMP JUMPDEST PUSH2 0x2173 JUMP JUMPDEST SWAP1 POP SWAP1 JUMP JUMPDEST PUSH1 0x9 PUSH1 0x0 SWAP1 SLOAD SWAP1 PUSH2 0x100 EXP SWAP1 DIV PUSH20 0xFFFFFFFFFFFFFFFFFFFFFFFFFFFFFFFFFFFFFFFF AND DUP2 JUMP JUMPDEST PUSH1 0x0 DUP1 PUSH1 0x0 DUP1 PUSH3 0x15180 PUSH1 0xD SLOAD PUSH2 0xA37 SWAP2 SWAP1 PUSH2 0x2B60 JUMP JUMPDEST SWAP1 POP PUSH1 0x0 PUSH3 0x15180 PUSH1 0xC SLOAD TIMESTAMP PUSH2 0xA4D SWAP2 SWAP1 PUSH2 0x2BEB JUMP JUMPDEST PUSH2 0xA57 SWAP2 SWAP1 PUSH2 0x2B60 JUMP JUMPDEST SWAP1 POP PUSH1 0x0 DUP1 DUP3 EQ ISZERO PUSH2 0xA7E JUMPI PUSH1 0x19 PUSH1 0x0 DUP1 DUP2 MSTORE PUSH1 0x20 ADD SWAP1 DUP2 MSTORE PUSH1 0x20 ADD PUSH1 0x0 KECCAK256 SLOAD SWAP4 POP PUSH2 0xACA JUMP JUMPDEST DUP3 DUP3 PUSH2 0xA8A SWAP2 SWAP1 PUSH2 0x2BEB JUMP JUMPDEST SWAP1 POP JUMPDEST DUP2 DUP2 LT ISZERO PUSH2 0xAC9 JUMPI PUSH1 0x19 PUSH1 0x0 DUP3 DUP2 MSTORE PUSH1 0x20 ADD SWAP1 DUP2 MSTORE PUSH1 0x20 ADD PUSH1 0x0 KECCAK256 SLOAD DUP5 PUSH2 0xAB4 SWAP2 SWAP1 PUSH2 0x2B0A JUMP JUMPDEST SWAP4 POP DUP1 DUP1 PUSH2 0xAC1 SWAP1 PUSH2 0x2D1D JUMP JUMPDEST SWAP2 POP POP PUSH2 0xA8D JUMP JUMPDEST JUMPDEST PUSH2 0xB51 ADDRESS PUSH20 0xFFFFFFFFFFFFFFFFFFFFFFFFFFFFFFFFFFFFFFFF AND PUSH4 0xD82EDDF2 PUSH1 0x40 MLOAD DUP2 PUSH4 0xFFFFFFFF AND PUSH1 0xE0 SHL DUP2 MSTORE PUSH1 0x4 ADD PUSH1 0x20 PUSH1 0x40 MLOAD DUP1 DUP4 SUB DUP2 DUP7 DUP1 EXTCODESIZE ISZERO DUP1 ISZERO PUSH2 0xB13 JUMPI PUSH1 0x0 DUP1 REVERT JUMPDEST POP GAS STATICCALL ISZERO DUP1 ISZERO PUSH2 0xB27 JUMPI RETURNDATASIZE PUSH1 0x0 DUP1 RETURNDATACOPY RETURNDATASIZE PUSH1 0x0 REVERT JUMPDEST POP POP POP POP PUSH1 0x40 MLOAD RETURNDATASIZE PUSH1 0x1F NOT PUSH1 0x1F DUP3 ADD AND DUP3 ADD DUP1 PUSH1 0x40 MSTORE POP DUP2 ADD SWAP1 PUSH2 0xB4B SWAP2 SWAP1 PUSH2 0x260F JUMP JUMPDEST DUP6 PUSH2 0x21BC JUMP JUMPDEST SWAP5 POP PUSH8 0x429D069189E0000 DUP6 GT ISZERO PUSH2 0xB6F JUMPI PUSH8 0x429D069189E0000 SWAP5 POP JUMPDEST DUP5 SWAP6 POP POP POP POP POP POP SWAP1 JUMP JUMPDEST PUSH1 0x0 DUP1 PUSH3 0x15180 PUSH1 0xC SLOAD TIMESTAMP PUSH2 0xB8F SWAP2 SWAP1 PUSH2 0x2BEB JUMP JUMPDEST PUSH2 0xB99 SWAP2 SWAP1 PUSH2 0x2B60 JUMP JUMPDEST SWAP1 POP PUSH1 0x0 DUP1 PUSH3 0x15180 PUSH1 0xD SLOAD PUSH2 0xBAF SWAP2 SWAP1 PUSH2 0x2B60 JUMP JUMPDEST SWAP1 POP PUSH1 0x0 DUP2 DUP5 PUSH2 0xBBF SWAP2 SWAP1 PUSH2 0x2BEB JUMP JUMPDEST SWAP1 POP JUMPDEST DUP4 DUP2 LT ISZERO PUSH2 0xBFE JUMPI PUSH1 0x19 PUSH1 0x0 DUP3 DUP2 MSTORE PUSH1 0x20 ADD SWAP1 DUP2 MSTORE PUSH1 0x20 ADD PUSH1 0x0 KECCAK256 SLOAD DUP4 PUSH2 0xBE9 SWAP2 SWAP1 PUSH2 0x2B0A JUMP JUMPDEST SWAP3 POP DUP1 DUP1 PUSH2 0xBF6 SWAP1 PUSH2 0x2D1D JUMP JUMPDEST SWAP2 POP POP PUSH2 0xBC2 JUMP JUMPDEST DUP3 SWAP5 POP POP POP POP POP SWAP1 JUMP JUMPDEST PUSH1 0x1B PUSH1 0x20 MSTORE DUP1 PUSH1 0x0 MSTORE PUSH1 0x40 PUSH1 0x0 KECCAK256 PUSH1 0x0 SWAP2 POP SWAP1 POP DUP1 PUSH1 0x0 ADD SLOAD SWAP1 DUP1 PUSH1 0x1 ADD SLOAD SWAP1 POP DUP3 JUMP JUMPDEST PUSH1 0x18 PUSH1 0x20 MSTORE DUP1 PUSH1 0x0 MSTORE PUSH1 0x40 PUSH1 0x0 KECCAK256 PUSH1 0x0 SWAP2 POP SWAP1 POP SLOAD DUP2 JUMP JUMPDEST PUSH1 0x1B PUSH1 0x0 CALLER PUSH20 0xFFFFFFFFFFFFFFFFFFFFFFFFFFFFFFFFFFFFFFFF AND PUSH20 0xFFFFFFFFFFFFFFFFFFFFFFFFFFFFFFFFFFFFFFFF AND DUP2 MSTORE PUSH1 0x20 ADD SWAP1 DUP2 MSTORE PUSH1 0x20 ADD PUSH1 0x0 KECCAK256 PUSH1 0x1 ADD SLOAD DUP2 LT PUSH2 0xCC8 JUMPI PUSH1 0x40 MLOAD PUSH32 0x8C379A000000000000000000000000000000000000000000000000000000000 DUP2 MSTORE PUSH1 0x4 ADD PUSH2 0xCBF SWAP1 PUSH2 0x2969 JUMP JUMPDEST PUSH1 0x40 MLOAD DUP1 SWAP2 SUB SWAP1 REVERT JUMPDEST DUP1 PUSH1 0x1B PUSH1 0x0 CALLER PUSH20 0xFFFFFFFFFFFFFFFFFFFFFFFFFFFFFFFFFFFFFFFF AND PUSH20 0xFFFFFFFFFFFFFFFFFFFFFFFFFFFFFFFFFFFFFFFF AND DUP2 MSTORE PUSH1 0x20 ADD SWAP1 DUP2 MSTORE PUSH1 0x20 ADD PUSH1 0x0 KECCAK256 PUSH1 0x1 ADD PUSH1 0x0 DUP3 DUP3 SLOAD PUSH2 0xD1A SWAP2 SWAP1 PUSH2 0x2BEB JUMP JUMPDEST SWAP3 POP POP DUP2 SWAP1 SSTORE POP PUSH1 0x0 PUSH1 0x1B PUSH1 0x0 CALLER PUSH20 0xFFFFFFFFFFFFFFFFFFFFFFFFFFFFFFFFFFFFFFFF AND PUSH20 0xFFFFFFFFFFFFFFFFFFFFFFFFFFFFFFFFFFFFFFFF AND DUP2 MSTORE PUSH1 0x20 ADD SWAP1 DUP2 MSTORE PUSH1 0x20 ADD PUSH1 0x0 KECCAK256 PUSH1 0x1 ADD SLOAD EQ ISZERO PUSH2 0xDBF JUMPI PUSH1 0x1B PUSH1 0x0 CALLER PUSH20 0xFFFFFFFFFFFFFFFFFFFFFFFFFFFFFFFFFFFFFFFF AND PUSH20 0xFFFFFFFFFFFFFFFFFFFFFFFFFFFFFFFFFFFFFFFF AND DUP2 MSTORE PUSH1 0x20 ADD SWAP1 DUP2 MSTORE PUSH1 0x20 ADD PUSH1 0x0 KECCAK256 PUSH1 0x0 DUP1 DUP3 ADD PUSH1 0x0 SWAP1 SSTORE PUSH1 0x1 DUP3 ADD PUSH1 0x0 SWAP1 SSTORE POP POP JUMPDEST POP JUMP JUMPDEST PUSH1 0x19 PUSH1 0x20 MSTORE DUP1 PUSH1 0x0 MSTORE PUSH1 0x40 PUSH1 0x0 KECCAK256 PUSH1 0x0 SWAP2 POP SWAP1 POP SLOAD DUP2 JUMP JUMPDEST PUSH1 0x0 PUSH1 0x13 PUSH1 0x0 SWAP1 SLOAD SWAP1 PUSH2 0x100 EXP SWAP1 DIV PUSH20 0xFFFFFFFFFFFFFFFFFFFFFFFFFFFFFFFFFFFFFFFF AND PUSH20 0xFFFFFFFFFFFFFFFFFFFFFFFFFFFFFFFFFFFFFFFF AND PUSH4 0x70A08231 CALLER PUSH1 0x40 MLOAD DUP3 PUSH4 0xFFFFFFFF AND PUSH1 0xE0 SHL DUP2 MSTORE PUSH1 0x4 ADD PUSH2 0xE37 SWAP2 SWAP1 PUSH2 0x28B8 JUMP JUMPDEST PUSH1 0x20 PUSH1 0x40 MLOAD DUP1 DUP4 SUB DUP2 DUP7 DUP1 EXTCODESIZE ISZERO DUP1 ISZERO PUSH2 0xE4F JUMPI PUSH1 0x0 DUP1 REVERT JUMPDEST POP GAS STATICCALL ISZERO DUP1 ISZERO PUSH2 0xE63 JUMPI RETURNDATASIZE PUSH1 0x0 DUP1 RETURNDATACOPY RETURNDATASIZE PUSH1 0x0 REVERT JUMPDEST POP POP POP POP PUSH1 0x40 MLOAD RETURNDATASIZE PUSH1 0x1F NOT PUSH1 0x1F DUP3 ADD AND DUP3 ADD DUP1 PUSH1 0x40 MSTORE POP DUP2 ADD SWAP1 PUSH2 0xE87 SWAP2 SWAP1 PUSH2 0x260F JUMP JUMPDEST SWAP1 POP DUP2 DUP2 GT PUSH2 0xECB JUMPI PUSH1 0x40 MLOAD PUSH32 0x8C379A000000000000000000000000000000000000000000000000000000000 DUP2 MSTORE PUSH1 0x4 ADD PUSH2 0xEC2 SWAP1 PUSH2 0x29A9 JUMP JUMPDEST PUSH1 0x40 MLOAD DUP1 SWAP2 SUB SWAP1 REVERT JUMPDEST PUSH2 0xEF9 PUSH1 0x13 PUSH1 0x0 SWAP1 SLOAD SWAP1 PUSH2 0x100 EXP SWAP1 DIV PUSH20 0xFFFFFFFFFFFFFFFFFFFFFFFFFFFFFFFFFFFFFFFF AND CALLER ADDRESS DUP6 PUSH2 0x21FD JUMP JUMPDEST PUSH1 0x0 PUSH3 0x15180 PUSH1 0xC SLOAD TIMESTAMP PUSH2 0xF0D SWAP2 SWAP1 PUSH2 0x2BEB JUMP JUMPDEST PUSH2 0xF17 SWAP2 SWAP1 PUSH2 0x2B60 JUMP JUMPDEST SWAP1 POP DUP3 PUSH1 0x18 PUSH1 0x0 DUP4 DUP2 MSTORE PUSH1 0x20 ADD SWAP1 DUP2 MSTORE PUSH1 0x20 ADD PUSH1 0x0 KECCAK256 PUSH1 0x0 DUP3 DUP3 SLOAD PUSH2 0xF3C SWAP2 SWAP1 PUSH2 0x2B0A JUMP JUMPDEST SWAP3 POP POP DUP2 SWAP1 SSTORE POP DUP3 PUSH1 0x19 PUSH1 0x0 DUP4 DUP2 MSTORE PUSH1 0x20 ADD SWAP1 DUP2 MSTORE PUSH1 0x20 ADD PUSH1 0x0 KECCAK256 PUSH1 0x0 DUP3 DUP3 SLOAD PUSH2 0xF66 SWAP2 SWAP1 PUSH2 0x2BEB JUMP JUMPDEST SWAP3 POP POP DUP2 SWAP1 SSTORE POP POP POP POP JUMP JUMPDEST PUSH1 0x0 PUSH2 0x1032 PUSH8 0xDE0B6B3A7640000 PUSH1 0xB SLOAD PUSH2 0xF8D SWAP2 SWAP1 PUSH2 0x2B91 JUMP JUMPDEST PUSH1 0x13 PUSH1 0x0 SWAP1 SLOAD SWAP1 PUSH2 0x100 EXP SWAP1 DIV PUSH20 0xFFFFFFFFFFFFFFFFFFFFFFFFFFFFFFFFFFFFFFFF AND PUSH20 0xFFFFFFFFFFFFFFFFFFFFFFFFFFFFFFFFFFFFFFFF AND PUSH4 0x18160DDD PUSH1 0x40 MLOAD DUP2 PUSH4 0xFFFFFFFF AND PUSH1 0xE0 SHL DUP2 MSTORE PUSH1 0x4 ADD PUSH1 0x20 PUSH1 0x40 MLOAD DUP1 DUP4 SUB DUP2 DUP7 DUP1 EXTCODESIZE ISZERO DUP1 ISZERO PUSH2 0xFF5 JUMPI PUSH1 0x0 DUP1 REVERT JUMPDEST POP GAS STATICCALL ISZERO DUP1 ISZERO PUSH2 0x1009 JUMPI RETURNDATASIZE PUSH1 0x0 DUP1 RETURNDATACOPY RETURNDATASIZE PUSH1 0x0 REVERT JUMPDEST POP POP POP POP PUSH1 0x40 MLOAD RETURNDATASIZE PUSH1 0x1F NOT PUSH1 0x1F DUP3 ADD AND DUP3 ADD DUP1 PUSH1 0x40 MSTORE POP DUP2 ADD SWAP1 PUSH2 0x102D SWAP2 SWAP1 PUSH2 0x260F JUMP JUMPDEST PUSH2 0x21BC JUMP JUMPDEST SWAP1 POP SWAP1 JUMP JUMPDEST PUSH1 0x13 PUSH1 0x0 SWAP1 SLOAD SWAP1 PUSH2 0x100 EXP SWAP1 DIV PUSH20 0xFFFFFFFFFFFFFFFFFFFFFFFFFFFFFFFFFFFFFFFF AND DUP2 JUMP JUMPDEST PUSH1 0xA PUSH1 0x0 SWAP1 SLOAD SWAP1 PUSH2 0x100 EXP SWAP1 DIV PUSH20 0xFFFFFFFFFFFFFFFFFFFFFFFFFFFFFFFFFFFFFFFF AND DUP2 JUMP JUMPDEST PUSH1 0x17 PUSH1 0x20 MSTORE DUP1 PUSH1 0x0 MSTORE PUSH1 0x40 PUSH1 0x0 KECCAK256 PUSH1 0x0 SWAP2 POP SWAP1 POP SLOAD DUP2 JUMP JUMPDEST POP JUMP JUMPDEST PUSH1 0xC SLOAD DUP2 JUMP JUMPDEST PUSH1 0x0 PUSH2 0x11BD ADDRESS PUSH20 0xFFFFFFFFFFFFFFFFFFFFFFFFFFFFFFFFFFFFFFFF AND PUSH4 0x1F564A06 PUSH1 0x40 MLOAD DUP2 PUSH4 0xFFFFFFFF AND PUSH1 0xE0 SHL DUP2 MSTORE PUSH1 0x4 ADD PUSH1 0x20 PUSH1 0x40 MLOAD DUP1 DUP4 SUB DUP2 DUP7 DUP1 EXTCODESIZE ISZERO DUP1 ISZERO PUSH2 0x10EF JUMPI PUSH1 0x0 DUP1 REVERT JUMPDEST POP GAS STATICCALL ISZERO DUP1 ISZERO PUSH2 0x1103 JUMPI RETURNDATASIZE PUSH1 0x0 DUP1 RETURNDATACOPY RETURNDATASIZE PUSH1 0x0 REVERT JUMPDEST POP POP POP POP PUSH1 0x40 MLOAD RETURNDATASIZE PUSH1 0x1F NOT PUSH1 0x1F DUP3 ADD AND DUP3 ADD DUP1 PUSH1 0x40 MSTORE POP DUP2 ADD SWAP1 PUSH2 0x1127 SWAP2 SWAP1 PUSH2 0x260F JUMP JUMPDEST ADDRESS PUSH20 0xFFFFFFFFFFFFFFFFFFFFFFFFFFFFFFFFFFFFFFFF AND PUSH4 0xCCAF04F PUSH1 0x40 MLOAD DUP2 PUSH4 0xFFFFFFFF AND PUSH1 0xE0 SHL DUP2 MSTORE PUSH1 0x4 ADD PUSH1 0x20 PUSH1 0x40 MLOAD DUP1 DUP4 SUB DUP2 DUP7 DUP1 EXTCODESIZE ISZERO DUP1 ISZERO PUSH2 0x116D JUMPI PUSH1 0x0 DUP1 REVERT JUMPDEST POP GAS STATICCALL ISZERO DUP1 ISZERO PUSH2 0x1181 JUMPI RETURNDATASIZE PUSH1 0x0 DUP1 RETURNDATACOPY RETURNDATASIZE PUSH1 0x0 REVERT JUMPDEST POP POP POP POP PUSH1 0x40 MLOAD RETURNDATASIZE PUSH1 0x1F NOT PUSH1 0x1F DUP3 ADD AND DUP3 ADD DUP1 PUSH1 0x40 MSTORE POP DUP2 ADD SWAP1 PUSH2 0x11A5 SWAP2 SWAP1 PUSH2 0x260F JUMP JUMPDEST PUSH8 0xC7D713B49DA0000 PUSH2 0x11B8 SWAP2 SWAP1 PUSH2 0x2BEB JUMP JUMPDEST PUSH2 0x2173 JUMP JUMPDEST SWAP1 POP SWAP1 JUMP JUMPDEST PUSH1 0xB SLOAD DUP2 JUMP JUMPDEST PUSH1 0xD SLOAD DUP2 JUMP JUMPDEST PUSH3 0xD2F00 TIMESTAMP PUSH2 0x11DD SWAP2 SWAP1 PUSH2 0x2B0A JUMP JUMPDEST PUSH1 0x1B PUSH1 0x0 CALLER PUSH20 0xFFFFFFFFFFFFFFFFFFFFFFFFFFFFFFFFFFFFFFFF AND PUSH20 0xFFFFFFFFFFFFFFFFFFFFFFFFFFFFFFFFFFFFFFFF AND DUP2 MSTORE PUSH1 0x20 ADD SWAP1 DUP2 MSTORE PUSH1 0x20 ADD PUSH1 0x0 KECCAK256 PUSH1 0x0 ADD DUP2 SWAP1 SSTORE POP DUP1 PUSH1 0x1B PUSH1 0x0 CALLER PUSH20 0xFFFFFFFFFFFFFFFFFFFFFFFFFFFFFFFFFFFFFFFF AND PUSH20 0xFFFFFFFFFFFFFFFFFFFFFFFFFFFFFFFFFFFFFFFF AND DUP2 MSTORE PUSH1 0x20 ADD SWAP1 DUP2 MSTORE PUSH1 0x20 ADD PUSH1 0x0 KECCAK256 PUSH1 0x1 ADD PUSH1 0x0 DUP3 DUP3 SLOAD PUSH2 0x1275 SWAP2 SWAP1 PUSH2 0x2B0A JUMP JUMPDEST SWAP3 POP POP DUP2 SWAP1 SSTORE POP POP JUMP JUMPDEST PUSH1 0x11 PUSH1 0x0 SWAP1 SLOAD SWAP1 PUSH2 0x100 EXP SWAP1 DIV PUSH1 0xF SIGNEXTEND DUP2 JUMP JUMPDEST PUSH1 0x16 PUSH1 0x0 SWAP1 SLOAD SWAP1 PUSH2 0x100 EXP SWAP1 DIV PUSH20 0xFFFFFFFFFFFFFFFFFFFFFFFFFFFFFFFFFFFFFFFF AND DUP2 JUMP JUMPDEST PUSH1 0x0 DUP1 PUSH1 0x0 DUP1 PUSH3 0x15180 PUSH1 0xD SLOAD PUSH2 0x12CF SWAP2 SWAP1 PUSH2 0x2B60 JUMP JUMPDEST SWAP1 POP PUSH1 0x0 PUSH3 0x15180 PUSH1 0xC SLOAD TIMESTAMP PUSH2 0x12E5 SWAP2 SWAP1 PUSH2 0x2BEB JUMP JUMPDEST PUSH2 0x12EF SWAP2 SWAP1 PUSH2 0x2B60 JUMP JUMPDEST SWAP1 POP PUSH1 0x0 DUP2 EQ ISZERO PUSH2 0x1319 JUMPI PUSH1 0x17 PUSH1 0x0 DUP1 DUP2 MSTORE PUSH1 0x20 ADD SWAP1 DUP2 MSTORE PUSH1 0x20 ADD PUSH1 0x0 KECCAK256 SLOAD SWAP5 POP POP POP POP POP PUSH2 0x136C JUMP JUMPDEST DUP2 DUP2 PUSH2 0x1325 SWAP2 SWAP1 PUSH2 0x2BEB JUMP JUMPDEST SWAP3 POP JUMPDEST DUP1 DUP4 LT ISZERO PUSH2 0x1364 JUMPI PUSH1 0x17 PUSH1 0x0 DUP5 DUP2 MSTORE PUSH1 0x20 ADD SWAP1 DUP2 MSTORE PUSH1 0x20 ADD PUSH1 0x0 KECCAK256 SLOAD DUP5 PUSH2 0x134F SWAP2 SWAP1 PUSH2 0x2B0A JUMP JUMPDEST SWAP4 POP DUP3 DUP1 PUSH2 0x135C SWAP1 PUSH2 0x2D1D JUMP JUMPDEST SWAP4 POP POP PUSH2 0x1328 JUMP JUMPDEST DUP4 SWAP5 POP POP POP POP POP JUMPDEST SWAP1 JUMP JUMPDEST PUSH1 0x2 PUSH1 0x0 SLOAD EQ ISZERO PUSH2 0x13B5 JUMPI PUSH1 0x40 MLOAD PUSH32 0x8C379A000000000000000000000000000000000000000000000000000000000 DUP2 MSTORE PUSH1 0x4 ADD PUSH2 0x13AC SWAP1 PUSH2 0x2A09 JUMP JUMPDEST PUSH1 0x40 MLOAD DUP1 SWAP2 SUB SWAP1 REVERT JUMPDEST PUSH1 0x2 PUSH1 0x0 DUP2 SWAP1 SSTORE POP PUSH1 0x1A DUP2 PUSH1 0x40 MLOAD PUSH2 0x13CD SWAP2 SWAP1 PUSH2 0x288C JUMP JUMPDEST SWAP1 DUP2 MSTORE PUSH1 0x20 ADD PUSH1 0x40 MLOAD DUP1 SWAP2 SUB SWAP1 KECCAK256 PUSH1 0x0 ADD PUSH1 0x0 SWAP1 SLOAD SWAP1 PUSH2 0x100 EXP SWAP1 DIV PUSH20 0xFFFFFFFFFFFFFFFFFFFFFFFFFFFFFFFFFFFFFFFF AND PUSH1 0x16 PUSH1 0x0 PUSH2 0x100 EXP DUP2 SLOAD DUP2 PUSH20 0xFFFFFFFFFFFFFFFFFFFFFFFFFFFFFFFFFFFFFFFF MUL NOT AND SWAP1 DUP4 PUSH20 0xFFFFFFFFFFFFFFFFFFFFFFFFFFFFFFFFFFFFFFFF AND MUL OR SWAP1 SSTORE POP PUSH3 0x3D090 DUP3 GT ISZERO PUSH2 0x1485 JUMPI PUSH1 0x40 MLOAD PUSH32 0x8C379A000000000000000000000000000000000000000000000000000000000 DUP2 MSTORE PUSH1 0x4 ADD PUSH2 0x147C SWAP1 PUSH2 0x29C9 JUMP JUMPDEST PUSH1 0x40 MLOAD DUP1 SWAP2 SUB SWAP1 REVERT JUMPDEST PUSH1 0x0 PUSH1 0x16 PUSH1 0x0 SWAP1 SLOAD SWAP1 PUSH2 0x100 EXP SWAP1 DIV PUSH20 0xFFFFFFFFFFFFFFFFFFFFFFFFFFFFFFFFFFFFFFFF AND PUSH20 0xFFFFFFFFFFFFFFFFFFFFFFFFFFFFFFFFFFFFFFFF AND PUSH4 0x70A08231 CALLER PUSH1 0x40 MLOAD DUP3 PUSH4 0xFFFFFFFF AND PUSH1 0xE0 SHL DUP2 MSTORE PUSH1 0x4 ADD PUSH2 0x14E2 SWAP2 SWAP1 PUSH2 0x28B8 JUMP JUMPDEST PUSH1 0x20 PUSH1 0x40 MLOAD DUP1 DUP4 SUB DUP2 DUP7 DUP1 EXTCODESIZE ISZERO DUP1 ISZERO PUSH2 0x14FA JUMPI PUSH1 0x0 DUP1 REVERT JUMPDEST POP GAS STATICCALL ISZERO DUP1 ISZERO PUSH2 0x150E JUMPI RETURNDATASIZE PUSH1 0x0 DUP1 RETURNDATACOPY RETURNDATASIZE PUSH1 0x0 REVERT JUMPDEST POP POP POP POP PUSH1 0x40 MLOAD RETURNDATASIZE PUSH1 0x1F NOT PUSH1 0x1F DUP3 ADD AND DUP3 ADD DUP1 PUSH1 0x40 MSTORE POP DUP2 ADD SWAP1 PUSH2 0x1532 SWAP2 SWAP1 PUSH2 0x260F JUMP JUMPDEST SWAP1 POP DUP3 DUP2 GT PUSH2 0x1576 JUMPI PUSH1 0x40 MLOAD PUSH32 0x8C379A000000000000000000000000000000000000000000000000000000000 DUP2 MSTORE PUSH1 0x4 ADD PUSH2 0x156D SWAP1 PUSH2 0x29A9 JUMP JUMPDEST PUSH1 0x40 MLOAD DUP1 SWAP2 SUB SWAP1 REVERT JUMPDEST PUSH1 0x0 PUSH1 0x1A DUP4 PUSH1 0x40 MLOAD PUSH2 0x1588 SWAP2 SWAP1 PUSH2 0x288C JUMP JUMPDEST SWAP1 DUP2 MSTORE PUSH1 0x20 ADD PUSH1 0x40 MLOAD DUP1 SWAP2 SUB SWAP1 KECCAK256 PUSH1 0x1 ADD SLOAD PUSH2 0x1621 DUP6 ADDRESS PUSH20 0xFFFFFFFFFFFFFFFFFFFFFFFFFFFFFFFFFFFFFFFF AND PUSH4 0x18A25E8 PUSH1 0x40 MLOAD DUP2 PUSH4 0xFFFFFFFF AND PUSH1 0xE0 SHL DUP2 MSTORE PUSH1 0x4 ADD PUSH1 0x20 PUSH1 0x40 MLOAD DUP1 DUP4 SUB DUP2 DUP7 DUP1 EXTCODESIZE ISZERO DUP1 ISZERO PUSH2 0x15E4 JUMPI PUSH1 0x0 DUP1 REVERT JUMPDEST POP GAS STATICCALL ISZERO DUP1 ISZERO PUSH2 0x15F8 JUMPI RETURNDATASIZE PUSH1 0x0 DUP1 RETURNDATACOPY RETURNDATASIZE PUSH1 0x0 REVERT JUMPDEST POP POP POP POP PUSH1 0x40 MLOAD RETURNDATASIZE PUSH1 0x1F NOT PUSH1 0x1F DUP3 ADD AND DUP3 ADD DUP1 PUSH1 0x40 MSTORE POP DUP2 ADD SWAP1 PUSH2 0x161C SWAP2 SWAP1 PUSH2 0x260F JUMP JUMPDEST PUSH2 0x2173 JUMP JUMPDEST PUSH2 0x162B SWAP2 SWAP1 PUSH2 0x2B91 JUMP JUMPDEST SWAP1 POP PUSH2 0x165B PUSH1 0x16 PUSH1 0x0 SWAP1 SLOAD SWAP1 PUSH2 0x100 EXP SWAP1 DIV PUSH20 0xFFFFFFFFFFFFFFFFFFFFFFFFFFFFFFFFFFFFFFFF AND CALLER ADDRESS DUP5 PUSH2 0x21FD JUMP JUMPDEST PUSH1 0x13 PUSH1 0x0 SWAP1 SLOAD SWAP1 PUSH2 0x100 EXP SWAP1 DIV PUSH20 0xFFFFFFFFFFFFFFFFFFFFFFFFFFFFFFFFFFFFFFFF AND PUSH20 0xFFFFFFFFFFFFFFFFFFFFFFFFFFFFFFFFFFFFFFFF AND PUSH4 0x40C10F19 CALLER PUSH8 0xDE0B6B3A7640000 DUP8 PUSH2 0x16AE SWAP2 SWAP1 PUSH2 0x2B91 JUMP JUMPDEST PUSH1 0x40 MLOAD DUP4 PUSH4 0xFFFFFFFF AND PUSH1 0xE0 SHL DUP2 MSTORE PUSH1 0x4 ADD PUSH2 0x16CB SWAP3 SWAP2 SWAP1 PUSH2 0x290A JUMP JUMPDEST PUSH1 0x0 PUSH1 0x40 MLOAD DUP1 DUP4 SUB DUP2 PUSH1 0x0 DUP8 DUP1 EXTCODESIZE ISZERO DUP1 ISZERO PUSH2 0x16E5 JUMPI PUSH1 0x0 DUP1 REVERT JUMPDEST POP GAS CALL ISZERO DUP1 ISZERO PUSH2 0x16F9 JUMPI RETURNDATASIZE PUSH1 0x0 DUP1 RETURNDATACOPY RETURNDATASIZE PUSH1 0x0 REVERT JUMPDEST POP POP POP POP PUSH1 0x14 PUSH1 0x0 SWAP1 SLOAD SWAP1 PUSH2 0x100 EXP SWAP1 DIV PUSH20 0xFFFFFFFFFFFFFFFFFFFFFFFFFFFFFFFFFFFFFFFF AND PUSH20 0xFFFFFFFFFFFFFFFFFFFFFFFFFFFFFFFFFFFFFFFF AND PUSH4 0x40C10F19 ADDRESS PUSH8 0xDE0B6B3A7640000 DUP8 PUSH2 0x1750 SWAP2 SWAP1 PUSH2 0x2B91 JUMP JUMPDEST PUSH1 0x40 MLOAD DUP4 PUSH4 0xFFFFFFFF AND PUSH1 0xE0 SHL DUP2 MSTORE PUSH1 0x4 ADD PUSH2 0x176D SWAP3 SWAP2 SWAP1 PUSH2 0x290A JUMP JUMPDEST PUSH1 0x0 PUSH1 0x40 MLOAD DUP1 DUP4 SUB DUP2 PUSH1 0x0 DUP8 DUP1 EXTCODESIZE ISZERO DUP1 ISZERO PUSH2 0x1787 JUMPI PUSH1 0x0 DUP1 REVERT JUMPDEST POP GAS CALL ISZERO DUP1 ISZERO PUSH2 0x179B JUMPI RETURNDATASIZE PUSH1 0x0 DUP1 RETURNDATACOPY RETURNDATASIZE PUSH1 0x0 REVERT JUMPDEST POP POP POP POP PUSH1 0x0 PUSH3 0x15180 PUSH1 0xC SLOAD TIMESTAMP PUSH2 0x17B3 SWAP2 SWAP1 PUSH2 0x2BEB JUMP JUMPDEST PUSH2 0x17BD SWAP2 SWAP1 PUSH2 0x2B60 JUMP JUMPDEST SWAP1 POP DUP5 PUSH1 0x17 PUSH1 0x0 DUP4 DUP2 MSTORE PUSH1 0x20 ADD SWAP1 DUP2 MSTORE PUSH1 0x20 ADD PUSH1 0x0 KECCAK256 PUSH1 0x0 DUP3 DUP3 SLOAD PUSH2 0x17E2 SWAP2 SWAP1 PUSH2 0x2B0A JUMP JUMPDEST SWAP3 POP POP DUP2 SWAP1 SSTORE POP DUP5 PUSH1 0x19 PUSH1 0x0 DUP4 DUP2 MSTORE PUSH1 0x20 ADD SWAP1 DUP2 MSTORE PUSH1 0x20 ADD PUSH1 0x0 KECCAK256 PUSH1 0x0 DUP3 DUP3 SLOAD PUSH2 0x180C SWAP2 SWAP1 PUSH2 0x2B0A JUMP JUMPDEST SWAP3 POP POP DUP2 SWAP1 SSTORE POP CALLER PUSH20 0xFFFFFFFFFFFFFFFFFFFFFFFFFFFFFFFFFFFFFFFF AND PUSH32 0xF633443B01504D269657083D48BB6DE98E089CFFF672B47FEFBED21608B5C779 DUP7 PUSH1 0x40 MLOAD PUSH2 0x1859 SWAP2 SWAP1 PUSH2 0x2A49 JUMP JUMPDEST PUSH1 0x40 MLOAD DUP1 SWAP2 SUB SWAP1 LOG2 POP POP POP PUSH1 0x1 PUSH1 0x0 DUP2 SWAP1 SSTORE POP POP POP JUMP JUMPDEST PUSH1 0x0 DUP1 PUSH1 0x0 DUP1 PUSH3 0x15180 PUSH1 0xD SLOAD PUSH2 0x1887 SWAP2 SWAP1 PUSH2 0x2B60 JUMP JUMPDEST SWAP1 POP PUSH1 0x0 PUSH3 0x15180 PUSH1 0xC SLOAD TIMESTAMP PUSH2 0x189D SWAP2 SWAP1 PUSH2 0x2BEB JUMP JUMPDEST PUSH2 0x18A7 SWAP2 SWAP1 PUSH2 0x2B60 JUMP JUMPDEST SWAP1 POP PUSH1 0x0 DUP1 DUP3 EQ ISZERO PUSH2 0x18CE JUMPI PUSH1 0x19 PUSH1 0x0 DUP1 DUP2 MSTORE PUSH1 0x20 ADD SWAP1 DUP2 MSTORE PUSH1 0x20 ADD PUSH1 0x0 KECCAK256 SLOAD SWAP4 POP PUSH2 0x191A JUMP JUMPDEST DUP3 DUP3 PUSH2 0x18DA SWAP2 SWAP1 PUSH2 0x2BEB JUMP JUMPDEST SWAP1 POP JUMPDEST DUP2 DUP2 LT ISZERO PUSH2 0x1919 JUMPI PUSH1 0x19 PUSH1 0x0 DUP3 DUP2 MSTORE PUSH1 0x20 ADD SWAP1 DUP2 MSTORE PUSH1 0x20 ADD PUSH1 0x0 KECCAK256 SLOAD DUP5 PUSH2 0x1904 SWAP2 SWAP1 PUSH2 0x2B0A JUMP JUMPDEST SWAP4 POP DUP1 DUP1 PUSH2 0x1911 SWAP1 PUSH2 0x2D1D JUMP JUMPDEST SWAP2 POP POP PUSH2 0x18DD JUMP JUMPDEST JUMPDEST PUSH2 0x19A1 ADDRESS PUSH20 0xFFFFFFFFFFFFFFFFFFFFFFFFFFFFFFFFFFFFFFFF AND PUSH4 0x71CD58F9 PUSH1 0x40 MLOAD DUP2 PUSH4 0xFFFFFFFF AND PUSH1 0xE0 SHL DUP2 MSTORE PUSH1 0x4 ADD PUSH1 0x20 PUSH1 0x40 MLOAD DUP1 DUP4 SUB DUP2 DUP7 DUP1 EXTCODESIZE ISZERO DUP1 ISZERO PUSH2 0x1963 JUMPI PUSH1 0x0 DUP1 REVERT JUMPDEST POP GAS STATICCALL ISZERO DUP1 ISZERO PUSH2 0x1977 JUMPI RETURNDATASIZE PUSH1 0x0 DUP1 RETURNDATACOPY RETURNDATASIZE PUSH1 0x0 REVERT JUMPDEST POP POP POP POP PUSH1 0x40 MLOAD RETURNDATASIZE PUSH1 0x1F NOT PUSH1 0x1F DUP3 ADD AND DUP3 ADD DUP1 PUSH1 0x40 MSTORE POP DUP2 ADD SWAP1 PUSH2 0x199B SWAP2 SWAP1 PUSH2 0x260F JUMP JUMPDEST DUP6 PUSH2 0x21BC JUMP JUMPDEST SWAP5 POP PUSH8 0x429D069189E0000 DUP6 GT ISZERO PUSH2 0x19BF JUMPI PUSH8 0x429D069189E0000 SWAP5 POP JUMPDEST DUP5 SWAP6 POP POP POP POP POP POP SWAP1 JUMP JUMPDEST POP JUMP JUMPDEST PUSH1 0x1A DUP2 DUP1 MLOAD PUSH1 0x20 DUP2 ADD DUP3 ADD DUP1 MLOAD DUP5 DUP3 MSTORE PUSH1 0x20 DUP4 ADD PUSH1 0x20 DUP6 ADD KECCAK256 DUP2 DUP4 MSTORE DUP1 SWAP6 POP POP POP POP POP POP PUSH1 0x0 SWAP2 POP SWAP1 POP DUP1 PUSH1 0x0 ADD PUSH1 0x0 SWAP1 SLOAD SWAP1 PUSH2 0x100 EXP SWAP1 DIV PUSH20 0xFFFFFFFFFFFFFFFFFFFFFFFFFFFFFFFFFFFFFFFF AND SWAP1 DUP1 PUSH1 0x1 ADD SLOAD SWAP1 POP DUP3 JUMP JUMPDEST PUSH1 0x1A PUSH1 0x40 MLOAD PUSH2 0x1A35 SWAP1 PUSH2 0x28A3 JUMP JUMPDEST SWAP1 DUP2 MSTORE PUSH1 0x20 ADD PUSH1 0x40 MLOAD DUP1 SWAP2 SUB SWAP1 KECCAK256 PUSH1 0x0 ADD PUSH1 0x0 SWAP1 SLOAD SWAP1 PUSH2 0x100 EXP SWAP1 DIV PUSH20 0xFFFFFFFFFFFFFFFFFFFFFFFFFFFFFFFFFFFFFFFF AND PUSH1 0x16 PUSH1 0x0 PUSH2 0x100 EXP DUP2 SLOAD DUP2 PUSH20 0xFFFFFFFFFFFFFFFFFFFFFFFFFFFFFFFFFFFFFFFF MUL NOT AND SWAP1 DUP4 PUSH20 0xFFFFFFFFFFFFFFFFFFFFFFFFFFFFFFFFFFFFFFFF AND MUL OR SWAP1 SSTORE POP JUMP JUMPDEST PUSH1 0x1B PUSH1 0x0 DUP4 PUSH20 0xFFFFFFFFFFFFFFFFFFFFFFFFFFFFFFFFFFFFFFFF AND PUSH20 0xFFFFFFFFFFFFFFFFFFFFFFFFFFFFFFFFFFFFFFFF AND DUP2 MSTORE PUSH1 0x20 ADD SWAP1 DUP2 MSTORE PUSH1 0x20 ADD PUSH1 0x0 KECCAK256 PUSH1 0x0 ADD SLOAD TIMESTAMP LT ISZERO PUSH2 0x1B2E JUMPI PUSH1 0x40 MLOAD PUSH32 0x8C379A000000000000000000000000000000000000000000000000000000000 DUP2 MSTORE PUSH1 0x4 ADD PUSH2 0x1B25 SWAP1 PUSH2 0x29E9 JUMP JUMPDEST PUSH1 0x40 MLOAD DUP1 SWAP2 SUB SWAP1 REVERT JUMPDEST PUSH1 0x1A DUP2 PUSH1 0x40 MLOAD PUSH2 0x1B3E SWAP2 SWAP1 PUSH2 0x288C JUMP JUMPDEST SWAP1 DUP2 MSTORE PUSH1 0x20 ADD PUSH1 0x40 MLOAD DUP1 SWAP2 SUB SWAP1 KECCAK256 PUSH1 0x0 ADD PUSH1 0x0 SWAP1 SLOAD SWAP1 PUSH2 0x100 EXP SWAP1 DIV PUSH20 0xFFFFFFFFFFFFFFFFFFFFFFFFFFFFFFFFFFFFFFFF AND PUSH1 0x16 PUSH1 0x0 PUSH2 0x100 EXP DUP2 SLOAD DUP2 PUSH20 0xFFFFFFFFFFFFFFFFFFFFFFFFFFFFFFFFFFFFFFFF MUL NOT AND SWAP1 DUP4 PUSH20 0xFFFFFFFFFFFFFFFFFFFFFFFFFFFFFFFFFFFFFFFF AND MUL OR SWAP1 SSTORE POP PUSH1 0x0 PUSH1 0x1B PUSH1 0x0 DUP5 PUSH20 0xFFFFFFFFFFFFFFFFFFFFFFFFFFFFFFFFFFFFFFFF AND PUSH20 0xFFFFFFFFFFFFFFFFFFFFFFFFFFFFFFFFFFFFFFFF AND DUP2 MSTORE PUSH1 0x20 ADD SWAP1 DUP2 MSTORE PUSH1 0x20 ADD PUSH1 0x0 KECCAK256 PUSH1 0x1 ADD SLOAD SWAP1 POP PUSH2 0x1C25 PUSH1 0x16 PUSH1 0x0 SWAP1 SLOAD SWAP1 PUSH2 0x100 EXP SWAP1 DIV PUSH20 0xFFFFFFFFFFFFFFFFFFFFFFFFFFFFFFFFFFFFFFFF AND ADDRESS CALLER DUP5 PUSH2 0x21FD JUMP JUMPDEST POP POP POP JUMP JUMPDEST PUSH1 0x8 PUSH1 0x0 SWAP1 SLOAD SWAP1 PUSH2 0x100 EXP SWAP1 DIV PUSH20 0xFFFFFFFFFFFFFFFFFFFFFFFFFFFFFFFFFFFFFFFF AND DUP2 JUMP JUMPDEST PUSH1 0x15 PUSH1 0x0 SWAP1 SLOAD SWAP1 PUSH2 0x100 EXP SWAP1 DIV PUSH20 0xFFFFFFFFFFFFFFFFFFFFFFFFFFFFFFFFFFFFFFFF AND DUP2 JUMP JUMPDEST PUSH1 0x1A DUP2 PUSH1 0x40 MLOAD PUSH2 0x1C86 SWAP2 SWAP1 PUSH2 0x288C JUMP JUMPDEST SWAP1 DUP2 MSTORE PUSH1 0x20 ADD PUSH1 0x40 MLOAD DUP1 SWAP2 SUB SWAP1 KECCAK256 PUSH1 0x0 ADD PUSH1 0x0 SWAP1 SLOAD SWAP1 PUSH2 0x100 EXP SWAP1 DIV PUSH20 0xFFFFFFFFFFFFFFFFFFFFFFFFFFFFFFFFFFFFFFFF AND PUSH1 0x16 PUSH1 0x0 PUSH2 0x100 EXP DUP2 SLOAD DUP2 PUSH20 0xFFFFFFFFFFFFFFFFFFFFFFFFFFFFFFFFFFFFFFFF MUL NOT AND SWAP1 DUP4 PUSH20 0xFFFFFFFFFFFFFFFFFFFFFFFFFFFFFFFFFFFFFFFF AND MUL OR SWAP1 SSTORE POP PUSH1 0x0 PUSH1 0x13 PUSH1 0x0 SWAP1 SLOAD SWAP1 PUSH2 0x100 EXP SWAP1 DIV PUSH20 0xFFFFFFFFFFFFFFFFFFFFFFFFFFFFFFFFFFFFFFFF AND PUSH20 0xFFFFFFFFFFFFFFFFFFFFFFFFFFFFFFFFFFFFFFFF AND PUSH4 0x70A08231 CALLER PUSH1 0x40 MLOAD DUP3 PUSH4 0xFFFFFFFF AND PUSH1 0xE0 SHL DUP2 MSTORE PUSH1 0x4 ADD PUSH2 0x1D55 SWAP2 SWAP1 PUSH2 0x28B8 JUMP JUMPDEST PUSH1 0x20 PUSH1 0x40 MLOAD DUP1 DUP4 SUB DUP2 DUP7 DUP1 EXTCODESIZE ISZERO DUP1 ISZERO PUSH2 0x1D6D JUMPI PUSH1 0x0 DUP1 REVERT JUMPDEST POP GAS STATICCALL ISZERO DUP1 ISZERO PUSH2 0x1D81 JUMPI RETURNDATASIZE PUSH1 0x0 DUP1 RETURNDATACOPY RETURNDATASIZE PUSH1 0x0 REVERT JUMPDEST POP POP POP POP PUSH1 0x40 MLOAD RETURNDATASIZE PUSH1 0x1F NOT PUSH1 0x1F DUP3 ADD AND DUP3 ADD DUP1 PUSH1 0x40 MSTORE POP DUP2 ADD SWAP1 PUSH2 0x1DA5 SWAP2 SWAP1 PUSH2 0x260F JUMP JUMPDEST SWAP1 POP DUP4 DUP2 GT PUSH2 0x1DE9 JUMPI PUSH1 0x40 MLOAD PUSH32 0x8C379A000000000000000000000000000000000000000000000000000000000 DUP2 MSTORE PUSH1 0x4 ADD PUSH2 0x1DE0 SWAP1 PUSH2 0x29A9 JUMP JUMPDEST PUSH1 0x40 MLOAD DUP1 SWAP2 SUB SWAP1 REVERT JUMPDEST PUSH1 0x16 PUSH1 0x0 SWAP1 SLOAD SWAP1 PUSH2 0x100 EXP SWAP1 DIV PUSH20 0xFFFFFFFFFFFFFFFFFFFFFFFFFFFFFFFFFFFFFFFF AND PUSH20 0xFFFFFFFFFFFFFFFFFFFFFFFFFFFFFFFFFFFFFFFF AND PUSH4 0xA9059CBB CALLER PUSH8 0xDE0B6B3A7640000 PUSH1 0x1 PUSH2 0x1E3D SWAP2 SWAP1 PUSH2 0x2B91 JUMP JUMPDEST DUP8 PUSH2 0x1E48 SWAP2 SWAP1 PUSH2 0x2B0A JUMP JUMPDEST PUSH1 0x40 MLOAD DUP4 PUSH4 0xFFFFFFFF AND PUSH1 0xE0 SHL DUP2 MSTORE PUSH1 0x4 ADD PUSH2 0x1E65 SWAP3 SWAP2 SWAP1 PUSH2 0x290A JUMP JUMPDEST PUSH1 0x20 PUSH1 0x40 MLOAD DUP1 DUP4 SUB DUP2 PUSH1 0x0 DUP8 DUP1 EXTCODESIZE ISZERO DUP1 ISZERO PUSH2 0x1E7F JUMPI PUSH1 0x0 DUP1 REVERT JUMPDEST POP GAS CALL ISZERO DUP1 ISZERO PUSH2 0x1E93 JUMPI RETURNDATASIZE PUSH1 0x0 DUP1 RETURNDATACOPY RETURNDATASIZE PUSH1 0x0 REVERT JUMPDEST POP POP POP POP PUSH1 0x40 MLOAD RETURNDATASIZE PUSH1 0x1F NOT PUSH1 0x1F DUP3 ADD AND DUP3 ADD DUP1 PUSH1 0x40 MSTORE POP DUP2 ADD SWAP1 PUSH2 0x1EB7 SWAP2 SWAP1 PUSH2 0x24FD JUMP JUMPDEST POP PUSH2 0x1EE6 PUSH1 0x13 PUSH1 0x0 SWAP1 SLOAD SWAP1 PUSH2 0x100 EXP SWAP1 DIV PUSH20 0xFFFFFFFFFFFFFFFFFFFFFFFFFFFFFFFFFFFFFFFF AND CALLER ADDRESS DUP8 PUSH2 0x21FD JUMP JUMPDEST PUSH1 0x0 DUP5 ADDRESS PUSH20 0xFFFFFFFFFFFFFFFFFFFFFFFFFFFFFFFFFFFFFFFF AND PUSH4 0x43D32E9C PUSH1 0x40 MLOAD DUP2 PUSH4 0xFFFFFFFF AND PUSH1 0xE0 SHL DUP2 MSTORE PUSH1 0x4 ADD PUSH1 0x20 PUSH1 0x40 MLOAD DUP1 DUP4 SUB DUP2 DUP7 DUP1 EXTCODESIZE ISZERO DUP1 ISZERO PUSH2 0x1F2F JUMPI PUSH1 0x0 DUP1 REVERT JUMPDEST POP GAS STATICCALL ISZERO DUP1 ISZERO PUSH2 0x1F43 JUMPI RETURNDATASIZE PUSH1 0x0 DUP1 RETURNDATACOPY RETURNDATASIZE PUSH1 0x0 REVERT JUMPDEST POP POP POP POP PUSH1 0x40 MLOAD RETURNDATASIZE PUSH1 0x1F NOT PUSH1 0x1F DUP3 ADD AND DUP3 ADD DUP1 PUSH1 0x40 MSTORE POP DUP2 ADD SWAP1 PUSH2 0x1F67 SWAP2 SWAP1 PUSH2 0x260F JUMP JUMPDEST PUSH2 0x1F71 SWAP2 SWAP1 PUSH2 0x2B91 JUMP JUMPDEST SWAP1 POP PUSH1 0x0 PUSH3 0x15180 PUSH1 0xC SLOAD TIMESTAMP PUSH2 0x1F87 SWAP2 SWAP1 PUSH2 0x2BEB JUMP JUMPDEST PUSH2 0x1F91 SWAP2 SWAP1 PUSH2 0x2B60 JUMP JUMPDEST SWAP1 POP DUP6 PUSH1 0x18 PUSH1 0x0 DUP4 DUP2 MSTORE PUSH1 0x20 ADD SWAP1 DUP2 MSTORE PUSH1 0x20 ADD PUSH1 0x0 KECCAK256 PUSH1 0x0 DUP3 DUP3 SLOAD PUSH2 0x1FB6 SWAP2 SWAP1 PUSH2 0x2B0A JUMP JUMPDEST SWAP3 POP POP DUP2 SWAP1 SSTORE POP DUP6 PUSH1 0x19 PUSH1 0x0 DUP4 DUP2 MSTORE PUSH1 0x20 ADD SWAP1 DUP2 MSTORE PUSH1 0x20 ADD PUSH1 0x0 KECCAK256 PUSH1 0x0 DUP3 DUP3 SLOAD PUSH2 0x1FE0 SWAP2 SWAP1 PUSH2 0x2BEB JUMP JUMPDEST SWAP3 POP POP DUP2 SWAP1 SSTORE POP POP POP POP POP POP POP JUMP JUMPDEST PUSH1 0x2 SLOAD DUP2 JUMP JUMPDEST PUSH1 0x14 PUSH1 0x0 SWAP1 SLOAD SWAP1 PUSH2 0x100 EXP SWAP1 DIV PUSH20 0xFFFFFFFFFFFFFFFFFFFFFFFFFFFFFFFFFFFFFFFF AND DUP2 JUMP JUMPDEST PUSH1 0x0 DUP1 PUSH1 0x0 DUP1 PUSH3 0x15180 PUSH1 0xD SLOAD PUSH2 0x2032 SWAP2 SWAP1 PUSH2 0x2B60 JUMP JUMPDEST SWAP1 POP PUSH1 0x0 SWAP2 POP JUMPDEST DUP1 DUP3 LT ISZERO PUSH2 0x2075 JUMPI PUSH1 0x18 PUSH1 0x0 DUP4 DUP2 MSTORE PUSH1 0x20 ADD SWAP1 DUP2 MSTORE PUSH1 0x20 ADD PUSH1 0x0 KECCAK256 SLOAD DUP4 PUSH2 0x2060 SWAP2 SWAP1 PUSH2 0x2B0A JUMP JUMPDEST SWAP3 POP DUP2 DUP1 PUSH2 0x206D SWAP1 PUSH2 0x2D1D JUMP JUMPDEST SWAP3 POP POP PUSH2 0x2039 JUMP JUMPDEST DUP3 SWAP4 POP POP POP POP SWAP1 JUMP JUMPDEST DUP2 PUSH1 0x1A DUP5 PUSH1 0x40 MLOAD PUSH2 0x208F SWAP2 SWAP1 PUSH2 0x288C JUMP JUMPDEST SWAP1 DUP2 MSTORE PUSH1 0x20 ADD PUSH1 0x40 MLOAD DUP1 SWAP2 SUB SWAP1 KECCAK256 PUSH1 0x0 ADD PUSH1 0x0 PUSH2 0x100 EXP DUP2 SLOAD DUP2 PUSH20 0xFFFFFFFFFFFFFFFFFFFFFFFFFFFFFFFFFFFFFFFF MUL NOT AND SWAP1 DUP4 PUSH20 0xFFFFFFFFFFFFFFFFFFFFFFFFFFFFFFFFFFFFFFFF AND MUL OR SWAP1 SSTORE POP DUP1 PUSH1 0x1A DUP5 PUSH1 0x40 MLOAD PUSH2 0x20EF SWAP2 SWAP1 PUSH2 0x288C JUMP JUMPDEST SWAP1 DUP2 MSTORE PUSH1 0x20 ADD PUSH1 0x40 MLOAD DUP1 SWAP2 SUB SWAP1 KECCAK256 PUSH1 0x1 ADD DUP2 SWAP1 SSTORE POP POP POP POP JUMP JUMPDEST PUSH1 0x1 SLOAD DUP2 JUMP JUMPDEST PUSH1 0x12 PUSH1 0x0 SWAP1 SLOAD SWAP1 PUSH2 0x100 EXP SWAP1 DIV PUSH20 0xFFFFFFFFFFFFFFFFFFFFFFFFFFFFFFFFFFFFFFFF AND DUP2 JUMP JUMPDEST PUSH1 0x7 PUSH1 0x0 SWAP1 SLOAD SWAP1 PUSH2 0x100 EXP SWAP1 DIV PUSH20 0xFFFFFFFFFFFFFFFFFFFFFFFFFFFFFFFFFFFFFFFF AND DUP2 JUMP JUMPDEST PUSH3 0x15180 DUP2 PUSH2 0x216A SWAP2 SWAP1 PUSH2 0x2B91 JUMP JUMPDEST PUSH1 0xD DUP2 SWAP1 SSTORE POP POP JUMP JUMPDEST PUSH1 0x0 DUP1 PUSH2 0x2180 DUP5 DUP5 PUSH2 0x22D7 JUMP JUMPDEST SWAP1 POP PUSH8 0xDE0B6B3A7640000 PUSH2 0x21A9 DUP3 PUSH1 0x2 PUSH8 0xDE0B6B3A7640000 PUSH2 0x21A4 SWAP2 SWAP1 PUSH2 0x2B60 JUMP JUMPDEST PUSH2 0x2352 JUMP JUMPDEST PUSH2 0x21B3 SWAP2 SWAP1 PUSH2 0x2B60 JUMP JUMPDEST SWAP2 POP POP SWAP3 SWAP2 POP POP JUMP JUMPDEST PUSH1 0x0 DUP1 PUSH2 0x21D1 DUP5 PUSH8 0xDE0B6B3A7640000 PUSH2 0x22D7 JUMP JUMPDEST SWAP1 POP DUP3 PUSH2 0x21EA DUP3 PUSH1 0x2 DUP7 PUSH2 0x21E5 SWAP2 SWAP1 PUSH2 0x2B60 JUMP JUMPDEST PUSH2 0x2352 JUMP JUMPDEST PUSH2 0x21F4 SWAP2 SWAP1 PUSH2 0x2B60 JUMP JUMPDEST SWAP2 POP POP SWAP3 SWAP2 POP POP JUMP JUMPDEST PUSH1 0x0 DUP5 PUSH20 0xFFFFFFFFFFFFFFFFFFFFFFFFFFFFFFFFFFFFFFFF AND PUSH4 0x23B872DD DUP6 DUP6 DUP6 PUSH1 0x40 MLOAD DUP5 PUSH4 0xFFFFFFFF AND PUSH1 0xE0 SHL DUP2 MSTORE PUSH1 0x4 ADD PUSH2 0x223C SWAP4 SWAP3 SWAP2 SWAP1 PUSH2 0x28D3 JUMP JUMPDEST PUSH1 0x20 PUSH1 0x40 MLOAD DUP1 DUP4 SUB DUP2 PUSH1 0x0 DUP8 DUP1 EXTCODESIZE ISZERO DUP1 ISZERO PUSH2 0x2256 JUMPI PUSH1 0x0 DUP1 REVERT JUMPDEST POP GAS CALL ISZERO DUP1 ISZERO PUSH2 0x226A JUMPI RETURNDATASIZE PUSH1 0x0 DUP1 RETURNDATACOPY RETURNDATASIZE PUSH1 0x0 REVERT JUMPDEST POP POP POP POP PUSH1 0x40 MLOAD RETURNDATASIZE PUSH1 0x1F NOT PUSH1 0x1F DUP3 ADD AND DUP3 ADD DUP1 PUSH1 0x40 MSTORE POP DUP2 ADD SWAP1 PUSH2 0x228E SWAP2 SWAP1 PUSH2 0x24FD JUMP JUMPDEST SWAP1 POP DUP1 PUSH2 0x22D0 JUMPI PUSH1 0x40 MLOAD PUSH32 0x8C379A000000000000000000000000000000000000000000000000000000000 DUP2 MSTORE PUSH1 0x4 ADD PUSH2 0x22C7 SWAP1 PUSH2 0x2989 JUMP JUMPDEST PUSH1 0x40 MLOAD DUP1 SWAP2 SUB SWAP1 REVERT JUMPDEST POP POP POP POP POP JUMP JUMPDEST PUSH1 0x0 DUP1 DUP4 EQ ISZERO PUSH2 0x22EA JUMPI PUSH1 0x0 SWAP1 POP PUSH2 0x234C JUMP JUMPDEST PUSH1 0x0 DUP3 DUP5 PUSH2 0x22F8 SWAP2 SWAP1 PUSH2 0x2B91 JUMP JUMPDEST SWAP1 POP DUP3 DUP5 DUP3 PUSH2 0x2307 SWAP2 SWAP1 PUSH2 0x2B60 JUMP JUMPDEST EQ PUSH2 0x2347 JUMPI PUSH1 0x40 MLOAD PUSH32 0x8C379A000000000000000000000000000000000000000000000000000000000 DUP2 MSTORE PUSH1 0x4 ADD PUSH2 0x233E SWAP1 PUSH2 0x2A29 JUMP JUMPDEST PUSH1 0x40 MLOAD DUP1 SWAP2 SUB SWAP1 REVERT JUMPDEST DUP1 SWAP2 POP POP JUMPDEST SWAP3 SWAP2 POP POP JUMP JUMPDEST PUSH1 0x0 DUP1 DUP3 DUP5 PUSH2 0x2361 SWAP2 SWAP1 PUSH2 0x2B0A JUMP JUMPDEST SWAP1 POP DUP4 DUP2 LT ISZERO PUSH2 0x23A6 JUMPI PUSH1 0x40 MLOAD PUSH32 0x8C379A000000000000000000000000000000000000000000000000000000000 DUP2 MSTORE PUSH1 0x4 ADD PUSH2 0x239D SWAP1 PUSH2 0x2A29 JUMP JUMPDEST PUSH1 0x40 MLOAD DUP1 SWAP2 SUB SWAP1 REVERT JUMPDEST DUP1 SWAP2 POP POP SWAP3 SWAP2 POP POP JUMP JUMPDEST PUSH1 0x0 PUSH2 0x23C3 PUSH2 0x23BE DUP5 PUSH2 0x2AB2 JUMP JUMPDEST PUSH2 0x2A8D JUMP JUMPDEST SWAP1 POP DUP3 DUP2 MSTORE PUSH1 0x20 DUP2 ADD DUP5 DUP5 DUP5 ADD GT ISZERO PUSH2 0x23DF JUMPI PUSH2 0x23DE PUSH2 0x2DF8 JUMP JUMPDEST JUMPDEST PUSH2 0x23EA DUP5 DUP3 DUP6 PUSH2 0x2CAA JUMP JUMPDEST POP SWAP4 SWAP3 POP POP POP JUMP JUMPDEST PUSH1 0x0 DUP2 CALLDATALOAD SWAP1 POP PUSH2 0x2401 DUP2 PUSH2 0x2FAC JUMP JUMPDEST SWAP3 SWAP2 POP POP JUMP JUMPDEST PUSH1 0x0 DUP2 MLOAD SWAP1 POP PUSH2 0x2416 DUP2 PUSH2 0x2FC3 JUMP JUMPDEST SWAP3 SWAP2 POP POP JUMP JUMPDEST PUSH1 0x0 DUP3 PUSH1 0x1F DUP4 ADD SLT PUSH2 0x2431 JUMPI PUSH2 0x2430 PUSH2 0x2DF3 JUMP JUMPDEST JUMPDEST DUP2 CALLDATALOAD PUSH2 0x2441 DUP5 DUP3 PUSH1 0x20 DUP7 ADD PUSH2 0x23B0 JUMP JUMPDEST SWAP2 POP POP SWAP3 SWAP2 POP POP JUMP JUMPDEST PUSH1 0x0 DUP2 CALLDATALOAD SWAP1 POP PUSH2 0x2459 DUP2 PUSH2 0x2FDA JUMP JUMPDEST SWAP3 SWAP2 POP POP JUMP JUMPDEST PUSH1 0x0 DUP2 MLOAD SWAP1 POP PUSH2 0x246E DUP2 PUSH2 0x2FDA JUMP JUMPDEST SWAP3 SWAP2 POP POP JUMP JUMPDEST PUSH1 0x0 PUSH1 0x20 DUP3 DUP5 SUB SLT ISZERO PUSH2 0x248A JUMPI PUSH2 0x2489 PUSH2 0x2E02 JUMP JUMPDEST JUMPDEST PUSH1 0x0 PUSH2 0x2498 DUP5 DUP3 DUP6 ADD PUSH2 0x23F2 JUMP JUMPDEST SWAP2 POP POP SWAP3 SWAP2 POP POP JUMP JUMPDEST PUSH1 0x0 DUP1 PUSH1 0x40 DUP4 DUP6 SUB SLT ISZERO PUSH2 0x24B8 JUMPI PUSH2 0x24B7 PUSH2 0x2E02 JUMP JUMPDEST JUMPDEST PUSH1 0x0 PUSH2 0x24C6 DUP6 DUP3 DUP7 ADD PUSH2 0x23F2 JUMP JUMPDEST SWAP3 POP POP PUSH1 0x20 DUP4 ADD CALLDATALOAD PUSH8 0xFFFFFFFFFFFFFFFF DUP2 GT ISZERO PUSH2 0x24E7 JUMPI PUSH2 0x24E6 PUSH2 0x2DFD JUMP JUMPDEST JUMPDEST PUSH2 0x24F3 DUP6 DUP3 DUP7 ADD PUSH2 0x241C JUMP JUMPDEST SWAP2 POP POP SWAP3 POP SWAP3 SWAP1 POP JUMP JUMPDEST PUSH1 0x0 PUSH1 0x20 DUP3 DUP5 SUB SLT ISZERO PUSH2 0x2513 JUMPI PUSH2 0x2512 PUSH2 0x2E02 JUMP JUMPDEST JUMPDEST PUSH1 0x0 PUSH2 0x2521 DUP5 DUP3 DUP6 ADD PUSH2 0x2407 JUMP JUMPDEST SWAP2 POP POP SWAP3 SWAP2 POP POP JUMP JUMPDEST PUSH1 0x0 PUSH1 0x20 DUP3 DUP5 SUB SLT ISZERO PUSH2 0x2540 JUMPI PUSH2 0x253F PUSH2 0x2E02 JUMP JUMPDEST JUMPDEST PUSH1 0x0 DUP3 ADD CALLDATALOAD PUSH8 0xFFFFFFFFFFFFFFFF DUP2 GT ISZERO PUSH2 0x255E JUMPI PUSH2 0x255D PUSH2 0x2DFD JUMP JUMPDEST JUMPDEST PUSH2 0x256A DUP5 DUP3 DUP6 ADD PUSH2 0x241C JUMP JUMPDEST SWAP2 POP POP SWAP3 SWAP2 POP POP JUMP JUMPDEST PUSH1 0x0 DUP1 PUSH1 0x0 PUSH1 0x60 DUP5 DUP7 SUB SLT ISZERO PUSH2 0x258C JUMPI PUSH2 0x258B PUSH2 0x2E02 JUMP JUMPDEST JUMPDEST PUSH1 0x0 DUP5 ADD CALLDATALOAD PUSH8 0xFFFFFFFFFFFFFFFF DUP2 GT ISZERO PUSH2 0x25AA JUMPI PUSH2 0x25A9 PUSH2 0x2DFD JUMP JUMPDEST JUMPDEST PUSH2 0x25B6 DUP7 DUP3 DUP8 ADD PUSH2 0x241C JUMP JUMPDEST SWAP4 POP POP PUSH1 0x20 PUSH2 0x25C7 DUP7 DUP3 DUP8 ADD PUSH2 0x23F2 JUMP JUMPDEST SWAP3 POP POP PUSH1 0x40 PUSH2 0x25D8 DUP7 DUP3 DUP8 ADD PUSH2 0x244A JUMP JUMPDEST SWAP2 POP POP SWAP3 POP SWAP3 POP SWAP3 JUMP JUMPDEST PUSH1 0x0 PUSH1 0x20 DUP3 DUP5 SUB SLT ISZERO PUSH2 0x25F8 JUMPI PUSH2 0x25F7 PUSH2 0x2E02 JUMP JUMPDEST JUMPDEST PUSH1 0x0 PUSH2 0x2606 DUP5 DUP3 DUP6 ADD PUSH2 0x244A JUMP JUMPDEST SWAP2 POP POP SWAP3 SWAP2 POP POP JUMP JUMPDEST PUSH1 0x0 PUSH1 0x20 DUP3 DUP5 SUB SLT ISZERO PUSH2 0x2625 JUMPI PUSH2 0x2624 PUSH2 0x2E02 JUMP JUMPDEST JUMPDEST PUSH1 0x0 PUSH2 0x2633 DUP5 DUP3 DUP6 ADD PUSH2 0x245F JUMP JUMPDEST SWAP2 POP POP SWAP3 SWAP2 POP POP JUMP JUMPDEST PUSH1 0x0 DUP1 PUSH1 0x40 DUP4 DUP6 SUB SLT ISZERO PUSH2 0x2653 JUMPI PUSH2 0x2652 PUSH2 0x2E02 JUMP JUMPDEST JUMPDEST PUSH1 0x0 PUSH2 0x2661 DUP6 DUP3 DUP7 ADD PUSH2 0x244A JUMP JUMPDEST SWAP3 POP POP PUSH1 0x20 DUP4 ADD CALLDATALOAD PUSH8 0xFFFFFFFFFFFFFFFF DUP2 GT ISZERO PUSH2 0x2682 JUMPI PUSH2 0x2681 PUSH2 0x2DFD JUMP JUMPDEST JUMPDEST PUSH2 0x268E DUP6 DUP3 DUP7 ADD PUSH2 0x241C JUMP JUMPDEST SWAP2 POP POP SWAP3 POP SWAP3 SWAP1 POP JUMP JUMPDEST PUSH1 0x0 DUP1 PUSH1 0x0 PUSH1 0x60 DUP5 DUP7 SUB SLT ISZERO PUSH2 0x26B1 JUMPI PUSH2 0x26B0 PUSH2 0x2E02 JUMP JUMPDEST JUMPDEST PUSH1 0x0 PUSH2 0x26BF DUP7 DUP3 DUP8 ADD PUSH2 0x244A JUMP JUMPDEST SWAP4 POP POP PUSH1 0x20 PUSH2 0x26D0 DUP7 DUP3 DUP8 ADD PUSH2 0x244A JUMP JUMPDEST SWAP3 POP POP PUSH1 0x40 DUP5 ADD CALLDATALOAD PUSH8 0xFFFFFFFFFFFFFFFF DUP2 GT ISZERO PUSH2 0x26F1 JUMPI PUSH2 0x26F0 PUSH2 0x2DFD JUMP JUMPDEST JUMPDEST PUSH2 0x26FD DUP7 DUP3 DUP8 ADD PUSH2 0x241C JUMP JUMPDEST SWAP2 POP POP SWAP3 POP SWAP3 POP SWAP3 JUMP JUMPDEST PUSH2 0x2710 DUP2 PUSH2 0x2C1F JUMP JUMPDEST DUP3 MSTORE POP POP JUMP JUMPDEST PUSH2 0x271F DUP2 PUSH2 0x2C74 JUMP JUMPDEST DUP3 MSTORE POP POP JUMP JUMPDEST PUSH2 0x272E DUP2 PUSH2 0x2C3D JUMP JUMPDEST DUP3 MSTORE POP POP JUMP JUMPDEST PUSH1 0x0 PUSH2 0x273F DUP3 PUSH2 0x2AE3 JUMP JUMPDEST PUSH2 0x2749 DUP2 DUP6 PUSH2 0x2AFF JUMP JUMPDEST SWAP4 POP PUSH2 0x2759 DUP2 DUP6 PUSH1 0x20 DUP7 ADD PUSH2 0x2CB9 JUMP JUMPDEST DUP1 DUP5 ADD SWAP2 POP POP SWAP3 SWAP2 POP POP JUMP JUMPDEST PUSH1 0x0 PUSH2 0x2772 PUSH1 0x24 DUP4 PUSH2 0x2AEE JUMP JUMPDEST SWAP2 POP PUSH2 0x277D DUP3 PUSH2 0x2E18 JUMP JUMPDEST PUSH1 0x40 DUP3 ADD SWAP1 POP SWAP2 SWAP1 POP JUMP JUMPDEST PUSH1 0x0 PUSH2 0x2795 PUSH1 0x15 DUP4 PUSH2 0x2AEE JUMP JUMPDEST SWAP2 POP PUSH2 0x27A0 DUP3 PUSH2 0x2E67 JUMP JUMPDEST PUSH1 0x20 DUP3 ADD SWAP1 POP SWAP2 SWAP1 POP JUMP JUMPDEST PUSH1 0x0 PUSH2 0x27B8 PUSH1 0x1A DUP4 PUSH2 0x2AEE JUMP JUMPDEST SWAP2 POP PUSH2 0x27C3 DUP3 PUSH2 0x2E90 JUMP JUMPDEST PUSH1 0x20 DUP3 ADD SWAP1 POP SWAP2 SWAP1 POP JUMP JUMPDEST PUSH1 0x0 PUSH2 0x27DB PUSH1 0x15 DUP4 PUSH2 0x2AEE JUMP JUMPDEST SWAP2 POP PUSH2 0x27E6 DUP3 PUSH2 0x2EB9 JUMP JUMPDEST PUSH1 0x20 DUP3 ADD SWAP1 POP SWAP2 SWAP1 POP JUMP JUMPDEST PUSH1 0x0 PUSH2 0x27FE PUSH1 0x4 DUP4 PUSH2 0x2AFF JUMP JUMPDEST SWAP2 POP PUSH2 0x2809 DUP3 PUSH2 0x2EE2 JUMP JUMPDEST PUSH1 0x4 DUP3 ADD SWAP1 POP SWAP2 SWAP1 POP JUMP JUMPDEST PUSH1 0x0 PUSH2 0x2821 PUSH1 0xC DUP4 PUSH2 0x2AEE JUMP JUMPDEST SWAP2 POP PUSH2 0x282C DUP3 PUSH2 0x2F0B JUMP JUMPDEST PUSH1 0x20 DUP3 ADD SWAP1 POP SWAP2 SWAP1 POP JUMP JUMPDEST PUSH1 0x0 PUSH2 0x2844 PUSH1 0x1F DUP4 PUSH2 0x2AEE JUMP JUMPDEST SWAP2 POP PUSH2 0x284F DUP3 PUSH2 0x2F34 JUMP JUMPDEST PUSH1 0x20 DUP3 ADD SWAP1 POP SWAP2 SWAP1 POP JUMP JUMPDEST PUSH1 0x0 PUSH2 0x2867 PUSH1 0x21 DUP4 PUSH2 0x2AEE JUMP JUMPDEST SWAP2 POP PUSH2 0x2872 DUP3 PUSH2 0x2F5D JUMP JUMPDEST PUSH1 0x40 DUP3 ADD SWAP1 POP SWAP2 SWAP1 POP JUMP JUMPDEST PUSH2 0x2886 DUP2 PUSH2 0x2C6A JUMP JUMPDEST DUP3 MSTORE POP POP JUMP JUMPDEST PUSH1 0x0 PUSH2 0x2898 DUP3 DUP5 PUSH2 0x2734 JUMP JUMPDEST SWAP2 POP DUP2 SWAP1 POP SWAP3 SWAP2 POP POP JUMP JUMPDEST PUSH1 0x0 PUSH2 0x28AE DUP3 PUSH2 0x27F1 JUMP JUMPDEST SWAP2 POP DUP2 SWAP1 POP SWAP2 SWAP1 POP JUMP JUMPDEST PUSH1 0x0 PUSH1 0x20 DUP3 ADD SWAP1 POP PUSH2 0x28CD PUSH1 0x0 DUP4 ADD DUP5 PUSH2 0x2707 JUMP JUMPDEST SWAP3 SWAP2 POP POP JUMP JUMPDEST PUSH1 0x0 PUSH1 0x60 DUP3 ADD SWAP1 POP PUSH2 0x28E8 PUSH1 0x0 DUP4 ADD DUP7 PUSH2 0x2707 JUMP JUMPDEST PUSH2 0x28F5 PUSH1 0x20 DUP4 ADD DUP6 PUSH2 0x2707 JUMP JUMPDEST PUSH2 0x2902 PUSH1 0x40 DUP4 ADD DUP5 PUSH2 0x287D JUMP JUMPDEST SWAP5 SWAP4 POP POP POP POP JUMP JUMPDEST PUSH1 0x0 PUSH1 0x40 DUP3 ADD SWAP1 POP PUSH2 0x291F PUSH1 0x0 DUP4 ADD DUP6 PUSH2 0x2707 JUMP JUMPDEST PUSH2 0x292C PUSH1 0x20 DUP4 ADD DUP5 PUSH2 0x287D JUMP JUMPDEST SWAP4 SWAP3 POP POP POP JUMP JUMPDEST PUSH1 0x0 PUSH1 0x20 DUP3 ADD SWAP1 POP PUSH2 0x2948 PUSH1 0x0 DUP4 ADD DUP5 PUSH2 0x2716 JUMP JUMPDEST SWAP3 SWAP2 POP POP JUMP JUMPDEST PUSH1 0x0 PUSH1 0x20 DUP3 ADD SWAP1 POP PUSH2 0x2963 PUSH1 0x0 DUP4 ADD DUP5 PUSH2 0x2725 JUMP JUMPDEST SWAP3 SWAP2 POP POP JUMP JUMPDEST PUSH1 0x0 PUSH1 0x20 DUP3 ADD SWAP1 POP DUP2 DUP2 SUB PUSH1 0x0 DUP4 ADD MSTORE PUSH2 0x2982 DUP2 PUSH2 0x2765 JUMP JUMPDEST SWAP1 POP SWAP2 SWAP1 POP JUMP JUMPDEST PUSH1 0x0 PUSH1 0x20 DUP3 ADD SWAP1 POP DUP2 DUP2 SUB PUSH1 0x0 DUP4 ADD MSTORE PUSH2 0x29A2 DUP2 PUSH2 0x2788 JUMP JUMPDEST SWAP1 POP SWAP2 SWAP1 POP JUMP JUMPDEST PUSH1 0x0 PUSH1 0x20 DUP3 ADD SWAP1 POP DUP2 DUP2 SUB PUSH1 0x0 DUP4 ADD MSTORE PUSH2 0x29C2 DUP2 PUSH2 0x27AB JUMP JUMPDEST SWAP1 POP SWAP2 SWAP1 POP JUMP JUMPDEST PUSH1 0x0 PUSH1 0x20 DUP3 ADD SWAP1 POP DUP2 DUP2 SUB PUSH1 0x0 DUP4 ADD MSTORE PUSH2 0x29E2 DUP2 PUSH2 0x27CE JUMP JUMPDEST SWAP1 POP SWAP2 SWAP1 POP JUMP JUMPDEST PUSH1 0x0 PUSH1 0x20 DUP3 ADD SWAP1 POP DUP2 DUP2 SUB PUSH1 0x0 DUP4 ADD MSTORE PUSH2 0x2A02 DUP2 PUSH2 0x2814 JUMP JUMPDEST SWAP1 POP SWAP2 SWAP1 POP JUMP JUMPDEST PUSH1 0x0 PUSH1 0x20 DUP3 ADD SWAP1 POP DUP2 DUP2 SUB PUSH1 0x0 DUP4 ADD MSTORE PUSH2 0x2A22 DUP2 PUSH2 0x2837 JUMP JUMPDEST SWAP1 POP SWAP2 SWAP1 POP JUMP JUMPDEST PUSH1 0x0 PUSH1 0x20 DUP3 ADD SWAP1 POP DUP2 DUP2 SUB PUSH1 0x0 DUP4 ADD MSTORE PUSH2 0x2A42 DUP2 PUSH2 0x285A JUMP JUMPDEST SWAP1 POP SWAP2 SWAP1 POP JUMP JUMPDEST PUSH1 0x0 PUSH1 0x20 DUP3 ADD SWAP1 POP PUSH2 0x2A5E PUSH1 0x0 DUP4 ADD DUP5 PUSH2 0x287D JUMP JUMPDEST SWAP3 SWAP2 POP POP JUMP JUMPDEST PUSH1 0x0 PUSH1 0x40 DUP3 ADD SWAP1 POP PUSH2 0x2A79 PUSH1 0x0 DUP4 ADD DUP6 PUSH2 0x287D JUMP JUMPDEST PUSH2 0x2A86 PUSH1 0x20 DUP4 ADD DUP5 PUSH2 0x287D JUMP JUMPDEST SWAP4 SWAP3 POP POP POP JUMP JUMPDEST PUSH1 0x0 PUSH2 0x2A97 PUSH2 0x2AA8 JUMP JUMPDEST SWAP1 POP PUSH2 0x2AA3 DUP3 DUP3 PUSH2 0x2CEC JUMP JUMPDEST SWAP2 SWAP1 POP JUMP JUMPDEST PUSH1 0x0 PUSH1 0x40 MLOAD SWAP1 POP SWAP1 JUMP JUMPDEST PUSH1 0x0 PUSH8 0xFFFFFFFFFFFFFFFF DUP3 GT ISZERO PUSH2 0x2ACD JUMPI PUSH2 0x2ACC PUSH2 0x2DC4 JUMP JUMPDEST JUMPDEST PUSH2 0x2AD6 DUP3 PUSH2 0x2E07 JUMP JUMPDEST SWAP1 POP PUSH1 0x20 DUP2 ADD SWAP1 POP SWAP2 SWAP1 POP JUMP JUMPDEST PUSH1 0x0 DUP2 MLOAD SWAP1 POP SWAP2 SWAP1 POP JUMP JUMPDEST PUSH1 0x0 DUP3 DUP3 MSTORE PUSH1 0x20 DUP3 ADD SWAP1 POP SWAP3 SWAP2 POP POP JUMP JUMPDEST PUSH1 0x0 DUP2 SWAP1 POP SWAP3 SWAP2 POP POP JUMP JUMPDEST PUSH1 0x0 PUSH2 0x2B15 DUP3 PUSH2 0x2C6A JUMP JUMPDEST SWAP2 POP PUSH2 0x2B20 DUP4 PUSH2 0x2C6A JUMP JUMPDEST SWAP3 POP DUP3 PUSH32 0xFFFFFFFFFFFFFFFFFFFFFFFFFFFFFFFFFFFFFFFFFFFFFFFFFFFFFFFFFFFFFFFF SUB DUP3 GT ISZERO PUSH2 0x2B55 JUMPI PUSH2 0x2B54 PUSH2 0x2D66 JUMP JUMPDEST JUMPDEST DUP3 DUP3 ADD SWAP1 POP SWAP3 SWAP2 POP POP JUMP JUMPDEST PUSH1 0x0 PUSH2 0x2B6B DUP3 PUSH2 0x2C6A JUMP JUMPDEST SWAP2 POP PUSH2 0x2B76 DUP4 PUSH2 0x2C6A JUMP JUMPDEST SWAP3 POP DUP3 PUSH2 0x2B86 JUMPI PUSH2 0x2B85 PUSH2 0x2D95 JUMP JUMPDEST JUMPDEST DUP3 DUP3 DIV SWAP1 POP SWAP3 SWAP2 POP POP JUMP JUMPDEST PUSH1 0x0 PUSH2 0x2B9C DUP3 PUSH2 0x2C6A JUMP JUMPDEST SWAP2 POP PUSH2 0x2BA7 DUP4 PUSH2 0x2C6A JUMP JUMPDEST SWAP3 POP DUP2 PUSH32 0xFFFFFFFFFFFFFFFFFFFFFFFFFFFFFFFFFFFFFFFFFFFFFFFFFFFFFFFFFFFFFFFF DIV DUP4 GT DUP3 ISZERO ISZERO AND ISZERO PUSH2 0x2BE0 JUMPI PUSH2 0x2BDF PUSH2 0x2D66 JUMP JUMPDEST JUMPDEST DUP3 DUP3 MUL SWAP1 POP SWAP3 SWAP2 POP POP JUMP JUMPDEST PUSH1 0x0 PUSH2 0x2BF6 DUP3 PUSH2 0x2C6A JUMP JUMPDEST SWAP2 POP PUSH2 0x2C01 DUP4 PUSH2 0x2C6A JUMP JUMPDEST SWAP3 POP DUP3 DUP3 LT ISZERO PUSH2 0x2C14 JUMPI PUSH2 0x2C13 PUSH2 0x2D66 JUMP JUMPDEST JUMPDEST DUP3 DUP3 SUB SWAP1 POP SWAP3 SWAP2 POP POP JUMP JUMPDEST PUSH1 0x0 PUSH2 0x2C2A DUP3 PUSH2 0x2C4A JUMP JUMPDEST SWAP1 POP SWAP2 SWAP1 POP JUMP JUMPDEST PUSH1 0x0 DUP2 ISZERO ISZERO SWAP1 POP SWAP2 SWAP1 POP JUMP JUMPDEST PUSH1 0x0 DUP2 PUSH1 0xF SIGNEXTEND SWAP1 POP SWAP2 SWAP1 POP JUMP JUMPDEST PUSH1 0x0 PUSH20 0xFFFFFFFFFFFFFFFFFFFFFFFFFFFFFFFFFFFFFFFF DUP3 AND SWAP1 POP SWAP2 SWAP1 POP JUMP JUMPDEST PUSH1 0x0 DUP2 SWAP1 POP SWAP2 SWAP1 POP JUMP JUMPDEST PUSH1 0x0 PUSH2 0x2C7F DUP3 PUSH2 0x2C86 JUMP JUMPDEST SWAP1 POP SWAP2 SWAP1 POP JUMP JUMPDEST PUSH1 0x0 PUSH2 0x2C91 DUP3 PUSH2 0x2C98 JUMP JUMPDEST SWAP1 POP SWAP2 SWAP1 POP JUMP JUMPDEST PUSH1 0x0 PUSH2 0x2CA3 DUP3 PUSH2 0x2C4A JUMP JUMPDEST SWAP1 POP SWAP2 SWAP1 POP JUMP JUMPDEST DUP3 DUP2 DUP4 CALLDATACOPY PUSH1 0x0 DUP4 DUP4 ADD MSTORE POP POP POP JUMP JUMPDEST PUSH1 0x0 JUMPDEST DUP4 DUP2 LT ISZERO PUSH2 0x2CD7 JUMPI DUP1 DUP3 ADD MLOAD DUP2 DUP5 ADD MSTORE PUSH1 0x20 DUP2 ADD SWAP1 POP PUSH2 0x2CBC JUMP JUMPDEST DUP4 DUP2 GT ISZERO PUSH2 0x2CE6 JUMPI PUSH1 0x0 DUP5 DUP5 ADD MSTORE JUMPDEST POP POP POP POP JUMP JUMPDEST PUSH2 0x2CF5 DUP3 PUSH2 0x2E07 JUMP JUMPDEST DUP2 ADD DUP2 DUP2 LT PUSH8 0xFFFFFFFFFFFFFFFF DUP3 GT OR ISZERO PUSH2 0x2D14 JUMPI PUSH2 0x2D13 PUSH2 0x2DC4 JUMP JUMPDEST JUMPDEST DUP1 PUSH1 0x40 MSTORE POP POP POP JUMP JUMPDEST PUSH1 0x0 PUSH2 0x2D28 DUP3 PUSH2 0x2C6A JUMP JUMPDEST SWAP2 POP PUSH32 0xFFFFFFFFFFFFFFFFFFFFFFFFFFFFFFFFFFFFFFFFFFFFFFFFFFFFFFFFFFFFFFFF DUP3 EQ ISZERO PUSH2 0x2D5B JUMPI PUSH2 0x2D5A PUSH2 0x2D66 JUMP JUMPDEST JUMPDEST PUSH1 0x1 DUP3 ADD SWAP1 POP SWAP2 SWAP1 POP JUMP JUMPDEST PUSH32 0x4E487B7100000000000000000000000000000000000000000000000000000000 PUSH1 0x0 MSTORE PUSH1 0x11 PUSH1 0x4 MSTORE PUSH1 0x24 PUSH1 0x0 REVERT JUMPDEST PUSH32 0x4E487B7100000000000000000000000000000000000000000000000000000000 PUSH1 0x0 MSTORE PUSH1 0x12 PUSH1 0x4 MSTORE PUSH1 0x24 PUSH1 0x0 REVERT JUMPDEST PUSH32 0x4E487B7100000000000000000000000000000000000000000000000000000000 PUSH1 0x0 MSTORE PUSH1 0x41 PUSH1 0x4 MSTORE PUSH1 0x24 PUSH1 0x0 REVERT JUMPDEST PUSH1 0x0 DUP1 REVERT JUMPDEST PUSH1 0x0 DUP1 REVERT JUMPDEST PUSH1 0x0 DUP1 REVERT JUMPDEST PUSH1 0x0 DUP1 REVERT JUMPDEST PUSH1 0x0 PUSH1 0x1F NOT PUSH1 0x1F DUP4 ADD AND SWAP1 POP SWAP2 SWAP1 POP JUMP JUMPDEST PUSH32 0x596F7520646F6E7420686176652074686174206D75636820746F207769746864 PUSH1 0x0 DUP3 ADD MSTORE PUSH32 0x7261772100000000000000000000000000000000000000000000000000000000 PUSH1 0x20 DUP3 ADD MSTORE POP JUMP JUMPDEST PUSH32 0x546F6B656E207472616E73666572206661696C65640000000000000000000000 PUSH1 0x0 DUP3 ADD MSTORE POP JUMP JUMPDEST PUSH32 0x596F7520646F6E742068617665207468617420616D6F756E7421000000000000 PUSH1 0x0 DUP3 ADD MSTORE POP JUMP JUMPDEST PUSH32 0x506572207472616E73616374696F6E206C696D69740000000000000000000000 PUSH1 0x0 DUP3 ADD MSTORE POP JUMP JUMPDEST PUSH32 0x5553444300000000000000000000000000000000000000000000000000000000 PUSH1 0x0 DUP3 ADD MSTORE POP JUMP JUMPDEST PUSH32 0x4E6F7420756E6C6F636B65640000000000000000000000000000000000000000 PUSH1 0x0 DUP3 ADD MSTORE POP JUMP JUMPDEST PUSH32 0x5265656E7472616E637947756172643A207265656E7472616E742063616C6C00 PUSH1 0x0 DUP3 ADD MSTORE POP JUMP JUMPDEST PUSH32 0x75696E74206F766572666C6F772066726F6D206D756C7469706C69636174696F PUSH1 0x0 DUP3 ADD MSTORE PUSH32 0x6E00000000000000000000000000000000000000000000000000000000000000 PUSH1 0x20 DUP3 ADD MSTORE POP JUMP JUMPDEST PUSH2 0x2FB5 DUP2 PUSH2 0x2C1F JUMP JUMPDEST DUP2 EQ PUSH2 0x2FC0 JUMPI PUSH1 0x0 DUP1 REVERT JUMPDEST POP JUMP JUMPDEST PUSH2 0x2FCC DUP2 PUSH2 0x2C31 JUMP JUMPDEST DUP2 EQ PUSH2 0x2FD7 JUMPI PUSH1 0x0 DUP1 REVERT JUMPDEST POP JUMP JUMPDEST PUSH2 0x2FE3 DUP2 PUSH2 0x2C6A JUMP JUMPDEST DUP2 EQ PUSH2 0x2FEE JUMPI PUSH1 0x0 DUP1 REVERT JUMPDEST POP JUMP INVALID LOG2 PUSH5 0x6970667358 0x22 SLT KECCAK256 DUP15 LOG0 0xE7 0xE6 DUP16 SWAP16 0xD4 0xC3 0xA9 0xA5 ADDMOD LOG1 EXTCODECOPY PUSH25 0xCDD07AFF10DCE1C691ACCF69A47F933EACA64736F6C634300 ADDMOD SMOD STOP CALLER "
				},
				"gasEstimates": {
					"creation": {
						"codeDepositCost": "2465400",
						"executionCost": "infinite",
						"totalCost": "infinite"
					},
					"external": {
						"BTON()": "2645",
						"SPTR()": "2668",
						"WAND()": "2711",
						"addStable(string,address,uint256)": "infinite",
						"buyScepter(uint256,string)": "infinite",
						"cashOutScepter(uint256,uint256,string)": "infinite",
						"circulatingSupplyXDays(uint256)": "infinite",
						"claimLockedUSDC(address,string)": "infinite",
						"daysInCalculation()": "2540",
						"devWalletAddr()": "2604",
						"getBackingPrice()": "infinite",
						"getBuyPrice()": "infinite",
						"getCircSupplyXDays()": "infinite",
						"getGrowthFactor()": "infinite",
						"getSellFactor()": "infinite",
						"getSellPrice()": "infinite",
						"getTokensBoughtXDays()": "infinite",
						"getTokensSoldXDays()": "infinite",
						"growthFactor()": "2495",
						"res()": "2521",
						"riskTreasuryAddr()": "2583",
						"scepterTreasuryAddr()": "2647",
						"sellFactor()": "2518",
						"setDaysUsedInFactors(uint256)": "infinite",
						"sptrTreasuryBal()": "2518",
						"stableERC20Info(string)": "infinite",
						"testUpdatetimeLockedminus(uint256)": "infinite",
						"testUpdatetimeLockedplus(uint256)": "infinite",
						"testwallet()": "2602",
						"timeLaunched()": "2474",
						"tokenStable()": "2668",
						"tokensBoughtXDays(uint256)": "infinite",
						"tokensSoldXDays(uint256)": "infinite",
						"transformScepterToBaton(uint256)": "infinite",
						"treasury1Addr()": "2624",
						"updateSPTRTreasuryBal()": "26935",
						"whitelist(address)": "500",
						"withdrawStables(uint256)": "540",
						"withheldWithdrawals(address)": "infinite"
					},
					"internal": {
						"_safeTransferFrom(contract IERC20,address,address,uint256)": "infinite",
						"add(uint256,uint256)": "infinite",
						"decDiv18(uint256,uint256)": "infinite",
						"decMul18(uint256,uint256)": "infinite",
						"div(uint256,uint256)": "infinite",
						"mintBaton(uint256)": "infinite",
						"mul(uint256,uint256)": "infinite",
						"sub(uint256,uint256)": "infinite"
					}
				},
				"methodIdentifiers": {
					"BTON()": "c0ca6fb4",
					"SPTR()": "26ae486e",
					"WAND()": "d04d7908",
					"addStable(string,address,uint256)": "e5d98082",
					"buyScepter(uint256,string)": "862d1b35",
					"cashOutScepter(uint256,uint256,string)": "c0ce5889",
					"circulatingSupplyXDays(uint256)": "1a30e872",
					"claimLockedUSDC(address,string)": "bdad7f02",
					"daysInCalculation()": "67b48c91",
					"devWalletAddr()": "29982a32",
					"getBackingPrice()": "1f564a06",
					"getBuyPrice()": "018a25e8",
					"getCircSupplyXDays()": "0f65de3e",
					"getGrowthFactor()": "93f7b711",
					"getSellFactor()": "0ccaf04f",
					"getSellPrice()": "43d32e9c",
					"getTokensBoughtXDays()": "71cd58f9",
					"getTokensSoldXDays()": "d82eddf2",
					"growthFactor()": "ee620868",
					"res()": "6f10e285",
					"riskTreasuryAddr()": "047729b0",
					"scepterTreasuryAddr()": "c079d7f6",
					"sellFactor()": "cbff4617",
					"setDaysUsedInFactors(uint256)": "fc361443",
					"sptrTreasuryBal()": "66763319",
					"stableERC20Info(string)": "a475bf48",
					"testUpdatetimeLockedminus(uint256)": "164c8501",
					"testUpdatetimeLockedplus(uint256)": "67e927a8",
					"testwallet()": "eee05f5e",
					"timeLaunched()": "3c6eb17a",
					"tokenStable()": "7087a7a5",
					"tokensBoughtXDays(uint256)": "2a9f0fb1",
					"tokensSoldXDays(uint256)": "1514c976",
					"transformScepterToBaton(uint256)": "1bc9cc45",
					"treasury1Addr()": "fbbb4589",
					"updateSPTRTreasuryBal()": "bcb3de54",
					"whitelist(address)": "9b19251a",
					"withdrawStables(uint256)": "39ad95d6",
					"withheldWithdrawals(address)": "12b2ed94"
				}
			},
			"storageLayout": {
				"storage": [
					{
						"astId": 10,
						"contract": "WandInstruments.sol:testSticks",
						"label": "_status",
						"offset": 0,
						"slot": "0",
						"type": "t_uint256"
					},
					{
						"astId": 52,
						"contract": "WandInstruments.sol:testSticks",
						"label": "growthFactor",
						"offset": 0,
						"slot": "1",
						"type": "t_uint256"
					},
					{
						"astId": 54,
						"contract": "WandInstruments.sol:testSticks",
						"label": "sellFactor",
						"offset": 0,
						"slot": "2",
						"type": "t_uint256"
					},
					{
						"astId": 56,
						"contract": "WandInstruments.sol:testSticks",
						"label": "backingPrice",
						"offset": 0,
						"slot": "3",
						"type": "t_uint256"
					},
					{
						"astId": 58,
						"contract": "WandInstruments.sol:testSticks",
						"label": "scepterBuyPrice",
						"offset": 0,
						"slot": "4",
						"type": "t_uint256"
					},
					{
						"astId": 60,
						"contract": "WandInstruments.sol:testSticks",
						"label": "scepterSellPrice",
						"offset": 0,
						"slot": "5",
						"type": "t_uint256"
					},
					{
						"astId": 62,
						"contract": "WandInstruments.sol:testSticks",
						"label": "treasuryUSDC",
						"offset": 0,
						"slot": "6",
						"type": "t_uint256"
					},
					{
						"astId": 64,
						"contract": "WandInstruments.sol:testSticks",
						"label": "treasury1Addr",
						"offset": 0,
						"slot": "7",
						"type": "t_address"
					},
					{
						"astId": 66,
						"contract": "WandInstruments.sol:testSticks",
						"label": "scepterTreasuryAddr",
						"offset": 0,
						"slot": "8",
						"type": "t_address"
					},
					{
						"astId": 68,
						"contract": "WandInstruments.sol:testSticks",
						"label": "riskTreasuryAddr",
						"offset": 0,
						"slot": "9",
						"type": "t_address"
					},
					{
						"astId": 70,
						"contract": "WandInstruments.sol:testSticks",
						"label": "devWalletAddr",
						"offset": 0,
						"slot": "10",
						"type": "t_address"
					},
					{
						"astId": 72,
						"contract": "WandInstruments.sol:testSticks",
						"label": "sptrTreasuryBal",
						"offset": 0,
						"slot": "11",
						"type": "t_uint256"
					},
					{
						"astId": 74,
						"contract": "WandInstruments.sol:testSticks",
						"label": "timeLaunched",
						"offset": 0,
						"slot": "12",
						"type": "t_uint256"
					},
					{
						"astId": 76,
						"contract": "WandInstruments.sol:testSticks",
						"label": "daysInCalculation",
						"offset": 0,
						"slot": "13",
						"type": "t_uint256"
					},
					{
						"astId": 79,
						"contract": "WandInstruments.sol:testSticks",
						"label": "ft5daybought",
						"offset": 0,
						"slot": "14",
						"type": "t_uint256"
					},
					{
						"astId": 82,
						"contract": "WandInstruments.sol:testSticks",
						"label": "ft5daysold",
						"offset": 0,
						"slot": "15",
						"type": "t_uint256"
					},
					{
						"astId": 85,
						"contract": "WandInstruments.sol:testSticks",
						"label": "double5daytokens",
						"offset": 0,
						"slot": "16",
						"type": "t_uint256"
					},
					{
						"astId": 87,
						"contract": "WandInstruments.sol:testSticks",
						"label": "res",
						"offset": 0,
						"slot": "17",
						"type": "t_int128"
					},
					{
						"astId": 90,
						"contract": "WandInstruments.sol:testSticks",
						"label": "testwallet",
						"offset": 0,
						"slot": "18",
						"type": "t_address"
					},
					{
						"astId": 93,
						"contract": "WandInstruments.sol:testSticks",
						"label": "SPTR",
						"offset": 0,
						"slot": "19",
						"type": "t_contract(IERC20)1418"
					},
					{
						"astId": 96,
						"contract": "WandInstruments.sol:testSticks",
						"label": "WAND",
						"offset": 0,
						"slot": "20",
						"type": "t_contract(IERC20)1418"
					},
					{
						"astId": 99,
						"contract": "WandInstruments.sol:testSticks",
						"label": "BTON",
						"offset": 0,
						"slot": "21",
						"type": "t_contract(IERC20)1418"
					},
					{
						"astId": 102,
						"contract": "WandInstruments.sol:testSticks",
						"label": "tokenStable",
						"offset": 0,
						"slot": "22",
						"type": "t_contract(IERC20)1418"
					},
					{
						"astId": 106,
						"contract": "WandInstruments.sol:testSticks",
						"label": "tokensBoughtXDays",
						"offset": 0,
						"slot": "23",
						"type": "t_mapping(t_uint256,t_uint256)"
					},
					{
						"astId": 110,
						"contract": "WandInstruments.sol:testSticks",
						"label": "tokensSoldXDays",
						"offset": 0,
						"slot": "24",
						"type": "t_mapping(t_uint256,t_uint256)"
					},
					{
						"astId": 114,
						"contract": "WandInstruments.sol:testSticks",
						"label": "circulatingSupplyXDays",
						"offset": 0,
						"slot": "25",
						"type": "t_mapping(t_uint256,t_uint256)"
					},
					{
						"astId": 124,
						"contract": "WandInstruments.sol:testSticks",
						"label": "stableERC20Info",
						"offset": 0,
						"slot": "26",
						"type": "t_mapping(t_string_memory_ptr,t_struct(stableTokensParams)119_storage)"
					},
					{
						"astId": 134,
						"contract": "WandInstruments.sol:testSticks",
						"label": "withheldWithdrawals",
						"offset": 0,
						"slot": "27",
						"type": "t_mapping(t_address,t_struct(lockedamounts)129_storage)"
					}
				],
				"types": {
					"t_address": {
						"encoding": "inplace",
						"label": "address",
						"numberOfBytes": "20"
					},
					"t_contract(IERC20)1418": {
						"encoding": "inplace",
						"label": "contract IERC20",
						"numberOfBytes": "20"
					},
					"t_int128": {
						"encoding": "inplace",
						"label": "int128",
						"numberOfBytes": "16"
					},
					"t_mapping(t_address,t_struct(lockedamounts)129_storage)": {
						"encoding": "mapping",
						"key": "t_address",
						"label": "mapping(address => struct testSticks.lockedamounts)",
						"numberOfBytes": "32",
						"value": "t_struct(lockedamounts)129_storage"
					},
					"t_mapping(t_string_memory_ptr,t_struct(stableTokensParams)119_storage)": {
						"encoding": "mapping",
						"key": "t_string_memory_ptr",
						"label": "mapping(string => struct testSticks.stableTokensParams)",
						"numberOfBytes": "32",
						"value": "t_struct(stableTokensParams)119_storage"
					},
					"t_mapping(t_uint256,t_uint256)": {
						"encoding": "mapping",
						"key": "t_uint256",
						"label": "mapping(uint256 => uint256)",
						"numberOfBytes": "32",
						"value": "t_uint256"
					},
					"t_string_memory_ptr": {
						"encoding": "bytes",
						"label": "string",
						"numberOfBytes": "32"
					},
					"t_struct(lockedamounts)129_storage": {
						"encoding": "inplace",
						"label": "struct testSticks.lockedamounts",
						"members": [
							{
								"astId": 126,
								"contract": "WandInstruments.sol:testSticks",
								"label": "timeUnlocked",
								"offset": 0,
								"slot": "0",
								"type": "t_uint256"
							},
							{
								"astId": 128,
								"contract": "WandInstruments.sol:testSticks",
								"label": "amounts",
								"offset": 0,
								"slot": "1",
								"type": "t_uint256"
							}
						],
						"numberOfBytes": "64"
					},
					"t_struct(stableTokensParams)119_storage": {
						"encoding": "inplace",
						"label": "struct testSticks.stableTokensParams",
						"members": [
							{
								"astId": 116,
								"contract": "WandInstruments.sol:testSticks",
								"label": "contractAddress",
								"offset": 0,
								"slot": "0",
								"type": "t_address"
							},
							{
								"astId": 118,
								"contract": "WandInstruments.sol:testSticks",
								"label": "tokenDecimals",
								"offset": 0,
								"slot": "1",
								"type": "t_uint256"
							}
						],
						"numberOfBytes": "64"
					},
					"t_uint256": {
						"encoding": "inplace",
						"label": "uint256",
						"numberOfBytes": "32"
					}
				}
			},
			"userdoc": {
				"events": {
					"sceptersBought(address,uint256)": {
						"notice": "Events*"
					}
				},
				"kind": "user",
				"methods": {},
				"version": 1
			}
		}
	}
}