{
	"WandInstruments.sol": {
		"testSticks": {
			"abi": [
				{
					"inputs": [
						{
							"internalType": "address",
							"name": "scepterAddr",
							"type": "address"
						},
						{
							"internalType": "address",
							"name": "batonAddr",
							"type": "address"
						}
					],
					"stateMutability": "nonpayable",
					"type": "constructor"
				},
				{
					"inputs": [
						{
							"internalType": "uint256",
							"name": "amountSCPtoBuy",
							"type": "uint256"
						}
					],
					"name": "buyScepter",
					"outputs": [],
					"stateMutability": "payable",
					"type": "function"
				},
				{
					"inputs": [
						{
							"internalType": "uint256",
							"name": "x",
							"type": "uint256"
						},
						{
							"internalType": "uint256",
							"name": "y",
							"type": "uint256"
						}
					],
					"name": "decDiv18",
					"outputs": [
						{
							"internalType": "uint256",
							"name": "decQuotient",
							"type": "uint256"
						}
					],
					"stateMutability": "pure",
					"type": "function"
				},
				{
					"inputs": [
						{
							"internalType": "uint256",
							"name": "x",
							"type": "uint256"
						},
						{
							"internalType": "uint256",
							"name": "y",
							"type": "uint256"
						}
					],
					"name": "decMul18",
					"outputs": [
						{
							"internalType": "uint256",
							"name": "decProd",
							"type": "uint256"
						}
					],
					"stateMutability": "pure",
					"type": "function"
				},
				{
					"inputs": [],
					"name": "getBackingPrice",
					"outputs": [
						{
							"internalType": "uint256",
							"name": "",
							"type": "uint256"
						}
					],
					"stateMutability": "view",
					"type": "function"
				},
				{
					"inputs": [],
					"name": "getBuyPrice",
					"outputs": [
						{
							"internalType": "uint256",
							"name": "",
							"type": "uint256"
						}
					],
					"stateMutability": "view",
					"type": "function"
				},
				{
					"inputs": [],
					"name": "getSellPrice",
					"outputs": [
						{
							"internalType": "uint256",
							"name": "",
							"type": "uint256"
						}
					],
					"stateMutability": "view",
					"type": "function"
				},
				{
					"inputs": [],
					"name": "growthFactor",
					"outputs": [
						{
							"internalType": "uint256",
							"name": "",
							"type": "uint256"
						}
					],
					"stateMutability": "view",
					"type": "function"
				},
				{
					"inputs": [
						{
							"internalType": "uint256",
							"name": "amount",
							"type": "uint256"
						}
					],
					"name": "mintBaton",
					"outputs": [],
					"stateMutability": "nonpayable",
					"type": "function"
				},
				{
					"inputs": [],
					"name": "mockUSDC",
					"outputs": [
						{
							"internalType": "contract IERC20",
							"name": "",
							"type": "address"
						}
					],
					"stateMutability": "view",
					"type": "function"
				},
				{
					"inputs": [
						{
							"internalType": "address",
							"name": "_tokenAddress",
							"type": "address"
						},
						{
							"internalType": "address",
							"name": "_addressToQuery",
							"type": "address"
						}
					],
					"name": "queryERC20Balance",
					"outputs": [
						{
							"internalType": "uint256",
							"name": "",
							"type": "uint256"
						}
					],
					"stateMutability": "view",
					"type": "function"
				},
				{
					"inputs": [],
					"name": "res",
					"outputs": [
						{
							"internalType": "int128",
							"name": "",
							"type": "int128"
						}
					],
					"stateMutability": "view",
					"type": "function"
				},
				{
					"inputs": [],
					"name": "riskTreasuryAddr",
					"outputs": [
						{
							"internalType": "address",
							"name": "",
							"type": "address"
						}
					],
					"stateMutability": "view",
					"type": "function"
				},
				{
					"inputs": [],
					"name": "scepterTreasuryAddr",
					"outputs": [
						{
							"internalType": "address",
							"name": "",
							"type": "address"
						}
					],
					"stateMutability": "view",
					"type": "function"
				},
				{
					"inputs": [],
					"name": "sellFactor",
					"outputs": [
						{
							"internalType": "uint256",
							"name": "",
							"type": "uint256"
						}
					],
					"stateMutability": "view",
					"type": "function"
				},
				{
					"inputs": [
						{
							"internalType": "uint256",
							"name": "amountSCPtoSell",
							"type": "uint256"
						}
					],
					"name": "sellScepter",
					"outputs": [],
					"stateMutability": "payable",
					"type": "function"
				},
				{
					"inputs": [],
					"name": "tSC",
					"outputs": [
						{
							"internalType": "contract IERC20",
							"name": "",
							"type": "address"
						}
					],
					"stateMutability": "view",
					"type": "function"
				},
				{
					"inputs": [],
					"name": "testwallet",
					"outputs": [
						{
							"internalType": "address",
							"name": "",
							"type": "address"
						}
					],
					"stateMutability": "view",
					"type": "function"
				},
				{
					"inputs": [],
					"name": "timeLaunched",
					"outputs": [
						{
							"internalType": "uint256",
							"name": "",
							"type": "uint256"
						}
					],
					"stateMutability": "view",
					"type": "function"
				},
				{
					"inputs": [],
					"name": "treasury1Addr",
					"outputs": [
						{
							"internalType": "address",
							"name": "",
							"type": "address"
						}
					],
					"stateMutability": "view",
					"type": "function"
				},
				{
					"inputs": [],
					"name": "treasury1bal",
					"outputs": [
						{
							"internalType": "uint256",
							"name": "",
							"type": "uint256"
						}
					],
					"stateMutability": "view",
					"type": "function"
				}
			],
			"devdoc": {
				"kind": "dev",
				"methods": {},
				"version": 1
			},
			"evm": {
				"assembly": "    /* \"WandInstruments.sol\":96:6101  contract testSticks {\r... */\n  mstore(0x40, 0x80)\n    /* \"WandInstruments.sol\":283:289  10**18 */\n  0x0de0b6b3a7640000\n    /* \"WandInstruments.sol\":726:732  500000 */\n  0x07a120\n    /* \"WandInstruments.sol\":726:743  500000*(DECIMALS) */\n  tag_1\n  swap2\n  swap1\n  tag_2\n  jump\t// in\ntag_1:\n    /* \"WandInstruments.sol\":696:743  uint256 public treasury1bal = 500000*(DECIMALS) */\n  0x09\n  sstore\n    /* \"WandInstruments.sol\":856:862  100000 */\n  0x0186a0\n    /* \"WandInstruments.sol\":825:862  uint256 private ft5daybought = 100000 */\n  0x0b\n  sstore\n    /* \"WandInstruments.sol\":898:903  90000 */\n  0x015f90\n    /* \"WandInstruments.sol\":869:903  uint256 private ft5daysold = 90000 */\n  0x0c\n  sstore\n    /* \"WandInstruments.sol\":945:951  600000 */\n  0x0927c0\n    /* \"WandInstruments.sol\":910:951  uint256 private double5daytokens = 600000 */\n  0x0d\n  sstore\n    /* \"WandInstruments.sol\":1072:1114  0x617F2E2fD72FD9D5503197092aC168c91465E7f2 */\n  0x617f2e2fd72fd9d5503197092ac168c91465e7f2\n    /* \"WandInstruments.sol\":1044:1114  address public testwallet = 0x617F2E2fD72FD9D5503197092aC168c91465E7f2 */\n  0x0f\n  exp(0x0100, 0x00)\n  dup2\n  sload\n  dup2\n  0xffffffffffffffffffffffffffffffffffffffff\n  mul\n  not\n  and\n  swap1\n  dup4\n  0xffffffffffffffffffffffffffffffffffffffff\n  and\n  mul\n  or\n  swap1\n  sstore\n  pop\n    /* \"WandInstruments.sol\":1369:1951  constructor(address scepterAddr, address batonAddr) {   \r... */\n  callvalue\n  dup1\n  iszero\n  tag_3\n  jumpi\n  0x00\n  dup1\n  revert\ntag_3:\n  pop\n  mload(0x40)\n  sub(codesize, bytecodeSize)\n  dup1\n  bytecodeSize\n  dup4\n  codecopy\n  dup2\n  dup2\n  add\n  0x40\n  mstore\n  dup2\n  add\n  swap1\n  tag_4\n  swap2\n  swap1\n  tag_5\n  jump\t// in\ntag_4:\n    /* \"WandInstruments.sol\":1539:1548  batonAddr */\n  dup1\n    /* \"WandInstruments.sol\":1527:1530  btn */\n  0x12\n  0x00\n    /* \"WandInstruments.sol\":1527:1549  btn = Baton(batonAddr) */\n  0x0100\n  exp\n  dup2\n  sload\n  dup2\n  0xffffffffffffffffffffffffffffffffffffffff\n  mul\n  not\n  and\n  swap1\n  dup4\n  0xffffffffffffffffffffffffffffffffffffffff\n  and\n  mul\n  or\n  swap1\n  sstore\n  pop\n    /* \"WandInstruments.sol\":1573:1584  scepterAddr */\n  dup2\n    /* \"WandInstruments.sol\":1560:1563  tSC */\n  0x10\n  0x00\n    /* \"WandInstruments.sol\":1560:1585  tSC = IERC20(scepterAddr) */\n  0x0100\n  exp\n  dup2\n  sload\n  dup2\n  0xffffffffffffffffffffffffffffffffffffffff\n  mul\n  not\n  and\n  swap1\n  dup4\n  0xffffffffffffffffffffffffffffffffffffffff\n  and\n  mul\n  or\n  swap1\n  sstore\n  pop\n    /* \"WandInstruments.sol\":1616:1658  0xD7ACd2a9FD159E69Bb102A1ca21C9a3e3A5F771B */\n  0xd7acd2a9fd159e69bb102a1ca21c9a3e3a5f771b\n    /* \"WandInstruments.sol\":1598:1606  mockUSDC */\n  0x11\n  0x00\n    /* \"WandInstruments.sol\":1598:1659  mockUSDC = IERC20(0xD7ACd2a9FD159E69Bb102A1ca21C9a3e3A5F771B) */\n  0x0100\n  exp\n  dup2\n  sload\n  dup2\n  0xffffffffffffffffffffffffffffffffffffffff\n  mul\n  not\n  and\n  swap1\n  dup4\n  0xffffffffffffffffffffffffffffffffffffffff\n  and\n  mul\n  or\n  swap1\n  sstore\n  pop\n    /* \"WandInstruments.sol\":1686:1728  0x617F2E2fD72FD9D5503197092aC168c91465E7f2 */\n  0x617f2e2fd72fd9d5503197092ac168c91465e7f2\n    /* \"WandInstruments.sol\":1670:1683  treasury1Addr */\n  0x06\n  0x00\n    /* \"WandInstruments.sol\":1670:1728  treasury1Addr = 0x617F2E2fD72FD9D5503197092aC168c91465E7f2 */\n  0x0100\n  exp\n  dup2\n  sload\n  dup2\n  0xffffffffffffffffffffffffffffffffffffffff\n  mul\n  not\n  and\n  swap1\n  dup4\n  0xffffffffffffffffffffffffffffffffffffffff\n  and\n  mul\n  or\n  swap1\n  sstore\n  pop\n    /* \"WandInstruments.sol\":1799:1838  decDiv18(ft5daybought,double5daytokens) */\n  tag_8\n    /* \"WandInstruments.sol\":1808:1820  ft5daybought */\n  sload(0x0b)\n    /* \"WandInstruments.sol\":1821:1837  double5daytokens */\n  sload(0x0d)\n    /* \"WandInstruments.sol\":1799:1807  decDiv18 */\n  shl(0x20, tag_9)\n    /* \"WandInstruments.sol\":1799:1838  decDiv18(ft5daybought,double5daytokens) */\n  0x20\n  shr\n  jump\t// in\ntag_8:\n    /* \"WandInstruments.sol\":1786:1798  growthFactor */\n  0x00\n    /* \"WandInstruments.sol\":1786:1838  growthFactor=decDiv18(ft5daybought,double5daytokens) */\n  dup2\n  swap1\n  sstore\n  pop\n    /* \"WandInstruments.sol\":1860:1897  decDiv18(ft5daysold,double5daytokens) */\n  tag_10\n    /* \"WandInstruments.sol\":1869:1879  ft5daysold */\n  sload(0x0c)\n    /* \"WandInstruments.sol\":1880:1896  double5daytokens */\n  sload(0x0d)\n    /* \"WandInstruments.sol\":1860:1868  decDiv18 */\n  shl(0x20, tag_9)\n    /* \"WandInstruments.sol\":1860:1897  decDiv18(ft5daysold,double5daytokens) */\n  0x20\n  shr\n  jump\t// in\ntag_10:\n    /* \"WandInstruments.sol\":1849:1859  sellFactor */\n  0x01\n    /* \"WandInstruments.sol\":1849:1897  sellFactor=decDiv18(ft5daysold,double5daytokens) */\n  dup2\n  swap1\n  sstore\n  pop\n    /* \"WandInstruments.sol\":1922:1937  block.timestamp */\n  timestamp\n    /* \"WandInstruments.sol\":1908:1920  timeLaunched */\n  0x0a\n    /* \"WandInstruments.sol\":1908:1937  timeLaunched =block.timestamp */\n  dup2\n  swap1\n  sstore\n  pop\n    /* \"WandInstruments.sol\":1369:1951  constructor(address scepterAddr, address batonAddr) {   \r... */\n  pop\n  pop\n    /* \"WandInstruments.sol\":96:6101  contract testSticks {\r... */\n  jump(tag_11)\n    /* \"WandInstruments.sol\":2910:3089  function decDiv18(uint x, uint y) public pure returns (uint decQuotient) {\r... */\ntag_9:\n    /* \"WandInstruments.sol\":2965:2981  uint decQuotient */\n  0x00\n    /* \"WandInstruments.sol\":2994:3010  uint prod_xTEN18 */\n  dup1\n    /* \"WandInstruments.sol\":3013:3029  mul(x, DECIMALS) */\n  tag_13\n    /* \"WandInstruments.sol\":3017:3018  x */\n  dup5\n    /* \"WandInstruments.sol\":283:289  10**18 */\n  0x0de0b6b3a7640000\n    /* \"WandInstruments.sol\":3013:3016  mul */\n  shl(0x20, tag_14)\n    /* \"WandInstruments.sol\":3013:3029  mul(x, DECIMALS) */\n  0x20\n  shr\n  jump\t// in\ntag_13:\n    /* \"WandInstruments.sol\":2994:3029  uint prod_xTEN18 = mul(x, DECIMALS) */\n  swap1\n  pop\n    /* \"WandInstruments.sol\":3080:3081  y */\n  dup3\n    /* \"WandInstruments.sol\":3054:3077  add(prod_xTEN18, y / 2) */\n  tag_15\n    /* \"WandInstruments.sol\":3058:3069  prod_xTEN18 */\n  dup3\n    /* \"WandInstruments.sol\":3075:3076  2 */\n  0x02\n    /* \"WandInstruments.sol\":3071:3072  y */\n  dup7\n    /* \"WandInstruments.sol\":3071:3076  y / 2 */\n  tag_16\n  swap2\n  swap1\n  tag_17\n  jump\t// in\ntag_16:\n    /* \"WandInstruments.sol\":3054:3057  add */\n  shl(0x20, tag_18)\n    /* \"WandInstruments.sol\":3054:3077  add(prod_xTEN18, y / 2) */\n  0x20\n  shr\n  jump\t// in\ntag_15:\n    /* \"WandInstruments.sol\":3054:3081  add(prod_xTEN18, y / 2) / y */\n  tag_19\n  swap2\n  swap1\n  tag_17\n  jump\t// in\ntag_19:\n    /* \"WandInstruments.sol\":3040:3081  decQuotient = add(prod_xTEN18, y / 2) / y */\n  swap2\n  pop\n    /* \"WandInstruments.sol\":2983:3089  {\r... */\n  pop\n    /* \"WandInstruments.sol\":2910:3089  function decDiv18(uint x, uint y) public pure returns (uint decQuotient) {\r... */\n  swap3\n  swap2\n  pop\n  pop\n  jump\t// out\n    /* \"WandInstruments.sol\":1993:2213  function mul(uint256 a, uint256 b) internal pure returns (uint256) {\r... */\ntag_14:\n    /* \"WandInstruments.sol\":2051:2058  uint256 */\n  0x00\n    /* \"WandInstruments.sol\":2076:2077  0 */\n  dup1\n    /* \"WandInstruments.sol\":2071:2072  a */\n  dup4\n    /* \"WandInstruments.sol\":2071:2077  a == 0 */\n  eq\n    /* \"WandInstruments.sol\":2067:2106  if (a == 0) {\r... */\n  iszero\n  tag_21\n  jumpi\n    /* \"WandInstruments.sol\":2097:2098  0 */\n  0x00\n    /* \"WandInstruments.sol\":2090:2098  return 0 */\n  swap1\n  pop\n  jump(tag_20)\n    /* \"WandInstruments.sol\":2067:2106  if (a == 0) {\r... */\ntag_21:\n    /* \"WandInstruments.sol\":2112:2121  uint256 c */\n  0x00\n    /* \"WandInstruments.sol\":2128:2129  b */\n  dup3\n    /* \"WandInstruments.sol\":2124:2125  a */\n  dup5\n    /* \"WandInstruments.sol\":2124:2129  a * b */\n  tag_22\n  swap2\n  swap1\n  tag_2\n  jump\t// in\ntag_22:\n    /* \"WandInstruments.sol\":2112:2129  uint256 c = a * b */\n  swap1\n  pop\n    /* \"WandInstruments.sol\":2153:2154  b */\n  dup3\n    /* \"WandInstruments.sol\":2148:2149  a */\n  dup5\n    /* \"WandInstruments.sol\":2144:2145  c */\n  dup3\n    /* \"WandInstruments.sol\":2144:2149  c / a */\n  tag_23\n  swap2\n  swap1\n  tag_17\n  jump\t// in\ntag_23:\n    /* \"WandInstruments.sol\":2144:2154  c / a == b */\n  eq\n    /* \"WandInstruments.sol\":2136:2192  require(c / a == b, \"uint overflow from multiplication\") */\n  tag_24\n  jumpi\n  mload(0x40)\n  0x08c379a000000000000000000000000000000000000000000000000000000000\n  dup2\n  mstore\n  0x04\n  add\n  tag_25\n  swap1\n  tag_26\n  jump\t// in\ntag_25:\n  mload(0x40)\n  dup1\n  swap2\n  sub\n  swap1\n  revert\ntag_24:\n    /* \"WandInstruments.sol\":2206:2207  c */\n  dup1\n    /* \"WandInstruments.sol\":2199:2207  return c */\n  swap2\n  pop\n  pop\n    /* \"WandInstruments.sol\":1993:2213  function mul(uint256 a, uint256 b) internal pure returns (uint256) {\r... */\ntag_20:\n  swap3\n  swap2\n  pop\n  pop\n  jump\t// out\n    /* \"WandInstruments.sol\":2555:2726  function add(uint256 a, uint256 b) internal pure returns (uint256) {\r... */\ntag_18:\n    /* \"WandInstruments.sol\":2613:2620  uint256 */\n  0x00\n    /* \"WandInstruments.sol\":2629:2638  uint256 c */\n  dup1\n    /* \"WandInstruments.sol\":2645:2646  b */\n  dup3\n    /* \"WandInstruments.sol\":2641:2642  a */\n  dup5\n    /* \"WandInstruments.sol\":2641:2646  a + b */\n  tag_28\n  swap2\n  swap1\n  tag_29\n  jump\t// in\ntag_28:\n    /* \"WandInstruments.sol\":2629:2646  uint256 c = a + b */\n  swap1\n  pop\n    /* \"WandInstruments.sol\":2666:2667  a */\n  dup4\n    /* \"WandInstruments.sol\":2661:2662  c */\n  dup2\n    /* \"WandInstruments.sol\":2661:2667  c >= a */\n  lt\n  iszero\n    /* \"WandInstruments.sol\":2653:2705  require(c >= a, \"uint overflow from multiplication\") */\n  tag_30\n  jumpi\n  mload(0x40)\n  0x08c379a000000000000000000000000000000000000000000000000000000000\n  dup2\n  mstore\n  0x04\n  add\n  tag_31\n  swap1\n  tag_26\n  jump\t// in\ntag_31:\n  mload(0x40)\n  dup1\n  swap2\n  sub\n  swap1\n  revert\ntag_30:\n    /* \"WandInstruments.sol\":2719:2720  c */\n  dup1\n    /* \"WandInstruments.sol\":2712:2720  return c */\n  swap2\n  pop\n  pop\n    /* \"WandInstruments.sol\":2555:2726  function add(uint256 a, uint256 b) internal pure returns (uint256) {\r... */\n  swap3\n  swap2\n  pop\n  pop\n  jump\t// out\n    /* \"#utility.yul\":7:150   */\ntag_33:\n    /* \"#utility.yul\":64:69   */\n  0x00\n    /* \"#utility.yul\":95:101   */\n  dup2\n    /* \"#utility.yul\":89:102   */\n  mload\n    /* \"#utility.yul\":80:102   */\n  swap1\n  pop\n    /* \"#utility.yul\":111:144   */\n  tag_35\n    /* \"#utility.yul\":138:143   */\n  dup2\n    /* \"#utility.yul\":111:144   */\n  tag_36\n  jump\t// in\ntag_35:\n    /* \"#utility.yul\":7:150   */\n  swap3\n  swap2\n  pop\n  pop\n  jump\t// out\n    /* \"#utility.yul\":156:663   */\ntag_5:\n    /* \"#utility.yul\":235:241   */\n  0x00\n    /* \"#utility.yul\":243:249   */\n  dup1\n    /* \"#utility.yul\":292:294   */\n  0x40\n    /* \"#utility.yul\":280:289   */\n  dup4\n    /* \"#utility.yul\":271:278   */\n  dup6\n    /* \"#utility.yul\":267:290   */\n  sub\n    /* \"#utility.yul\":263:295   */\n  slt\n    /* \"#utility.yul\":260:379   */\n  iszero\n  tag_38\n  jumpi\n    /* \"#utility.yul\":298:377   */\n  tag_39\n  tag_40\n  jump\t// in\ntag_39:\n    /* \"#utility.yul\":260:379   */\ntag_38:\n    /* \"#utility.yul\":418:419   */\n  0x00\n    /* \"#utility.yul\":443:507   */\n  tag_41\n    /* \"#utility.yul\":499:506   */\n  dup6\n    /* \"#utility.yul\":490:496   */\n  dup3\n    /* \"#utility.yul\":479:488   */\n  dup7\n    /* \"#utility.yul\":475:497   */\n  add\n    /* \"#utility.yul\":443:507   */\n  tag_33\n  jump\t// in\ntag_41:\n    /* \"#utility.yul\":433:507   */\n  swap3\n  pop\n    /* \"#utility.yul\":389:517   */\n  pop\n    /* \"#utility.yul\":556:558   */\n  0x20\n    /* \"#utility.yul\":582:646   */\n  tag_42\n    /* \"#utility.yul\":638:645   */\n  dup6\n    /* \"#utility.yul\":629:635   */\n  dup3\n    /* \"#utility.yul\":618:627   */\n  dup7\n    /* \"#utility.yul\":614:636   */\n  add\n    /* \"#utility.yul\":582:646   */\n  tag_33\n  jump\t// in\ntag_42:\n    /* \"#utility.yul\":572:646   */\n  swap2\n  pop\n    /* \"#utility.yul\":527:656   */\n  pop\n    /* \"#utility.yul\":156:663   */\n  swap3\n  pop\n  swap3\n  swap1\n  pop\n  jump\t// out\n    /* \"#utility.yul\":669:1035   */\ntag_43:\n    /* \"#utility.yul\":811:814   */\n  0x00\n    /* \"#utility.yul\":832:899   */\n  tag_45\n    /* \"#utility.yul\":896:898   */\n  0x21\n    /* \"#utility.yul\":891:894   */\n  dup4\n    /* \"#utility.yul\":832:899   */\n  tag_46\n  jump\t// in\ntag_45:\n    /* \"#utility.yul\":825:899   */\n  swap2\n  pop\n    /* \"#utility.yul\":908:1001   */\n  tag_47\n    /* \"#utility.yul\":997:1000   */\n  dup3\n    /* \"#utility.yul\":908:1001   */\n  tag_48\n  jump\t// in\ntag_47:\n    /* \"#utility.yul\":1026:1028   */\n  0x40\n    /* \"#utility.yul\":1021:1024   */\n  dup3\n    /* \"#utility.yul\":1017:1029   */\n  add\n    /* \"#utility.yul\":1010:1029   */\n  swap1\n  pop\n    /* \"#utility.yul\":669:1035   */\n  swap2\n  swap1\n  pop\n  jump\t// out\n    /* \"#utility.yul\":1041:1460   */\ntag_26:\n    /* \"#utility.yul\":1207:1211   */\n  0x00\n    /* \"#utility.yul\":1245:1247   */\n  0x20\n    /* \"#utility.yul\":1234:1243   */\n  dup3\n    /* \"#utility.yul\":1230:1248   */\n  add\n    /* \"#utility.yul\":1222:1248   */\n  swap1\n  pop\n    /* \"#utility.yul\":1294:1303   */\n  dup2\n    /* \"#utility.yul\":1288:1292   */\n  dup2\n    /* \"#utility.yul\":1284:1304   */\n  sub\n    /* \"#utility.yul\":1280:1281   */\n  0x00\n    /* \"#utility.yul\":1269:1278   */\n  dup4\n    /* \"#utility.yul\":1265:1282   */\n  add\n    /* \"#utility.yul\":1258:1305   */\n  mstore\n    /* \"#utility.yul\":1322:1453   */\n  tag_50\n    /* \"#utility.yul\":1448:1452   */\n  dup2\n    /* \"#utility.yul\":1322:1453   */\n  tag_43\n  jump\t// in\ntag_50:\n    /* \"#utility.yul\":1314:1453   */\n  swap1\n  pop\n    /* \"#utility.yul\":1041:1460   */\n  swap2\n  swap1\n  pop\n  jump\t// out\n    /* \"#utility.yul\":1547:1716   */\ntag_46:\n    /* \"#utility.yul\":1631:1642   */\n  0x00\n    /* \"#utility.yul\":1665:1671   */\n  dup3\n    /* \"#utility.yul\":1660:1663   */\n  dup3\n    /* \"#utility.yul\":1653:1672   */\n  mstore\n    /* \"#utility.yul\":1705:1709   */\n  0x20\n    /* \"#utility.yul\":1700:1703   */\n  dup3\n    /* \"#utility.yul\":1696:1710   */\n  add\n    /* \"#utility.yul\":1681:1710   */\n  swap1\n  pop\n    /* \"#utility.yul\":1547:1716   */\n  swap3\n  swap2\n  pop\n  pop\n  jump\t// out\n    /* \"#utility.yul\":1722:2027   */\ntag_29:\n    /* \"#utility.yul\":1762:1765   */\n  0x00\n    /* \"#utility.yul\":1781:1801   */\n  tag_55\n    /* \"#utility.yul\":1799:1800   */\n  dup3\n    /* \"#utility.yul\":1781:1801   */\n  tag_56\n  jump\t// in\ntag_55:\n    /* \"#utility.yul\":1776:1801   */\n  swap2\n  pop\n    /* \"#utility.yul\":1815:1835   */\n  tag_57\n    /* \"#utility.yul\":1833:1834   */\n  dup4\n    /* \"#utility.yul\":1815:1835   */\n  tag_56\n  jump\t// in\ntag_57:\n    /* \"#utility.yul\":1810:1835   */\n  swap3\n  pop\n    /* \"#utility.yul\":1969:1970   */\n  dup3\n    /* \"#utility.yul\":1901:1967   */\n  0xffffffffffffffffffffffffffffffffffffffffffffffffffffffffffffffff\n    /* \"#utility.yul\":1897:1971   */\n  sub\n    /* \"#utility.yul\":1894:1895   */\n  dup3\n    /* \"#utility.yul\":1891:1972   */\n  gt\n    /* \"#utility.yul\":1888:1995   */\n  iszero\n  tag_58\n  jumpi\n    /* \"#utility.yul\":1975:1993   */\n  tag_59\n  tag_60\n  jump\t// in\ntag_59:\n    /* \"#utility.yul\":1888:1995   */\ntag_58:\n    /* \"#utility.yul\":2019:2020   */\n  dup3\n    /* \"#utility.yul\":2016:2017   */\n  dup3\n    /* \"#utility.yul\":2012:2021   */\n  add\n    /* \"#utility.yul\":2005:2021   */\n  swap1\n  pop\n    /* \"#utility.yul\":1722:2027   */\n  swap3\n  swap2\n  pop\n  pop\n  jump\t// out\n    /* \"#utility.yul\":2033:2218   */\ntag_17:\n    /* \"#utility.yul\":2073:2074   */\n  0x00\n    /* \"#utility.yul\":2090:2110   */\n  tag_62\n    /* \"#utility.yul\":2108:2109   */\n  dup3\n    /* \"#utility.yul\":2090:2110   */\n  tag_56\n  jump\t// in\ntag_62:\n    /* \"#utility.yul\":2085:2110   */\n  swap2\n  pop\n    /* \"#utility.yul\":2124:2144   */\n  tag_63\n    /* \"#utility.yul\":2142:2143   */\n  dup4\n    /* \"#utility.yul\":2124:2144   */\n  tag_56\n  jump\t// in\ntag_63:\n    /* \"#utility.yul\":2119:2144   */\n  swap3\n  pop\n    /* \"#utility.yul\":2163:2164   */\n  dup3\n    /* \"#utility.yul\":2153:2188   */\n  tag_64\n  jumpi\n    /* \"#utility.yul\":2168:2186   */\n  tag_65\n  tag_66\n  jump\t// in\ntag_65:\n    /* \"#utility.yul\":2153:2188   */\ntag_64:\n    /* \"#utility.yul\":2210:2211   */\n  dup3\n    /* \"#utility.yul\":2207:2208   */\n  dup3\n    /* \"#utility.yul\":2203:2212   */\n  div\n    /* \"#utility.yul\":2198:2212   */\n  swap1\n  pop\n    /* \"#utility.yul\":2033:2218   */\n  swap3\n  swap2\n  pop\n  pop\n  jump\t// out\n    /* \"#utility.yul\":2224:2572   */\ntag_2:\n    /* \"#utility.yul\":2264:2271   */\n  0x00\n    /* \"#utility.yul\":2287:2307   */\n  tag_68\n    /* \"#utility.yul\":2305:2306   */\n  dup3\n    /* \"#utility.yul\":2287:2307   */\n  tag_56\n  jump\t// in\ntag_68:\n    /* \"#utility.yul\":2282:2307   */\n  swap2\n  pop\n    /* \"#utility.yul\":2321:2341   */\n  tag_69\n    /* \"#utility.yul\":2339:2340   */\n  dup4\n    /* \"#utility.yul\":2321:2341   */\n  tag_56\n  jump\t// in\ntag_69:\n    /* \"#utility.yul\":2316:2341   */\n  swap3\n  pop\n    /* \"#utility.yul\":2509:2510   */\n  dup2\n    /* \"#utility.yul\":2441:2507   */\n  0xffffffffffffffffffffffffffffffffffffffffffffffffffffffffffffffff\n    /* \"#utility.yul\":2437:2511   */\n  div\n    /* \"#utility.yul\":2434:2435   */\n  dup4\n    /* \"#utility.yul\":2431:2512   */\n  gt\n    /* \"#utility.yul\":2426:2427   */\n  dup3\n    /* \"#utility.yul\":2419:2428   */\n  iszero\n    /* \"#utility.yul\":2412:2429   */\n  iszero\n    /* \"#utility.yul\":2408:2513   */\n  and\n    /* \"#utility.yul\":2405:2536   */\n  iszero\n  tag_70\n  jumpi\n    /* \"#utility.yul\":2516:2534   */\n  tag_71\n  tag_60\n  jump\t// in\ntag_71:\n    /* \"#utility.yul\":2405:2536   */\ntag_70:\n    /* \"#utility.yul\":2564:2565   */\n  dup3\n    /* \"#utility.yul\":2561:2562   */\n  dup3\n    /* \"#utility.yul\":2557:2566   */\n  mul\n    /* \"#utility.yul\":2546:2566   */\n  swap1\n  pop\n    /* \"#utility.yul\":2224:2572   */\n  swap3\n  swap2\n  pop\n  pop\n  jump\t// out\n    /* \"#utility.yul\":2578:2674   */\ntag_72:\n    /* \"#utility.yul\":2615:2622   */\n  0x00\n    /* \"#utility.yul\":2644:2668   */\n  tag_74\n    /* \"#utility.yul\":2662:2667   */\n  dup3\n    /* \"#utility.yul\":2644:2668   */\n  tag_75\n  jump\t// in\ntag_74:\n    /* \"#utility.yul\":2633:2668   */\n  swap1\n  pop\n    /* \"#utility.yul\":2578:2674   */\n  swap2\n  swap1\n  pop\n  jump\t// out\n    /* \"#utility.yul\":2680:2806   */\ntag_75:\n    /* \"#utility.yul\":2717:2724   */\n  0x00\n    /* \"#utility.yul\":2757:2799   */\n  0xffffffffffffffffffffffffffffffffffffffff\n    /* \"#utility.yul\":2750:2755   */\n  dup3\n    /* \"#utility.yul\":2746:2800   */\n  and\n    /* \"#utility.yul\":2735:2800   */\n  swap1\n  pop\n    /* \"#utility.yul\":2680:2806   */\n  swap2\n  swap1\n  pop\n  jump\t// out\n    /* \"#utility.yul\":2812:2889   */\ntag_56:\n    /* \"#utility.yul\":2849:2856   */\n  0x00\n    /* \"#utility.yul\":2878:2883   */\n  dup2\n    /* \"#utility.yul\":2867:2883   */\n  swap1\n  pop\n    /* \"#utility.yul\":2812:2889   */\n  swap2\n  swap1\n  pop\n  jump\t// out\n    /* \"#utility.yul\":2895:3075   */\ntag_60:\n    /* \"#utility.yul\":2943:3020   */\n  0x4e487b7100000000000000000000000000000000000000000000000000000000\n    /* \"#utility.yul\":2940:2941   */\n  0x00\n    /* \"#utility.yul\":2933:3021   */\n  mstore\n    /* \"#utility.yul\":3040:3044   */\n  0x11\n    /* \"#utility.yul\":3037:3038   */\n  0x04\n    /* \"#utility.yul\":3030:3045   */\n  mstore\n    /* \"#utility.yul\":3064:3068   */\n  0x24\n    /* \"#utility.yul\":3061:3062   */\n  0x00\n    /* \"#utility.yul\":3054:3069   */\n  revert\n    /* \"#utility.yul\":3081:3261   */\ntag_66:\n    /* \"#utility.yul\":3129:3206   */\n  0x4e487b7100000000000000000000000000000000000000000000000000000000\n    /* \"#utility.yul\":3126:3127   */\n  0x00\n    /* \"#utility.yul\":3119:3207   */\n  mstore\n    /* \"#utility.yul\":3226:3230   */\n  0x12\n    /* \"#utility.yul\":3223:3224   */\n  0x04\n    /* \"#utility.yul\":3216:3231   */\n  mstore\n    /* \"#utility.yul\":3250:3254   */\n  0x24\n    /* \"#utility.yul\":3247:3248   */\n  0x00\n    /* \"#utility.yul\":3240:3255   */\n  revert\n    /* \"#utility.yul\":3390:3507   */\ntag_40:\n    /* \"#utility.yul\":3499:3500   */\n  0x00\n    /* \"#utility.yul\":3496:3497   */\n  dup1\n    /* \"#utility.yul\":3489:3501   */\n  revert\n    /* \"#utility.yul\":3513:3733   */\ntag_48:\n    /* \"#utility.yul\":3653:3687   */\n  0x75696e74206f766572666c6f772066726f6d206d756c7469706c69636174696f\n    /* \"#utility.yul\":3649:3650   */\n  0x00\n    /* \"#utility.yul\":3641:3647   */\n  dup3\n    /* \"#utility.yul\":3637:3651   */\n  add\n    /* \"#utility.yul\":3630:3688   */\n  mstore\n    /* \"#utility.yul\":3722:3725   */\n  0x6e00000000000000000000000000000000000000000000000000000000000000\n    /* \"#utility.yul\":3717:3719   */\n  0x20\n    /* \"#utility.yul\":3709:3715   */\n  dup3\n    /* \"#utility.yul\":3705:3720   */\n  add\n    /* \"#utility.yul\":3698:3726   */\n  mstore\n    /* \"#utility.yul\":3513:3733   */\n  pop\n  jump\t// out\n    /* \"#utility.yul\":3739:3861   */\ntag_36:\n    /* \"#utility.yul\":3812:3836   */\n  tag_85\n    /* \"#utility.yul\":3830:3835   */\n  dup2\n    /* \"#utility.yul\":3812:3836   */\n  tag_72\n  jump\t// in\ntag_85:\n    /* \"#utility.yul\":3805:3810   */\n  dup2\n    /* \"#utility.yul\":3802:3837   */\n  eq\n    /* \"#utility.yul\":3792:3855   */\n  tag_86\n  jumpi\n    /* \"#utility.yul\":3851:3852   */\n  0x00\n    /* \"#utility.yul\":3848:3849   */\n  dup1\n    /* \"#utility.yul\":3841:3853   */\n  revert\n    /* \"#utility.yul\":3792:3855   */\ntag_86:\n    /* \"#utility.yul\":3739:3861   */\n  pop\n  jump\t// out\n    /* \"WandInstruments.sol\":96:6101  contract testSticks {\r... */\ntag_11:\n  dataSize(sub_0)\n  dup1\n  dataOffset(sub_0)\n  0x00\n  codecopy\n  0x00\n  return\nstop\n\nsub_0: assembly {\n        /* \"WandInstruments.sol\":96:6101  contract testSticks {\r... */\n      mstore(0x40, 0x80)\n      jumpi(tag_1, lt(calldatasize, 0x04))\n      shr(0xe0, calldataload(0x00))\n      dup1\n      0x6f10e285\n      gt\n      tag_22\n      jumpi\n      dup1\n      0xee546a51\n      gt\n      tag_23\n      jumpi\n      dup1\n      0xee546a51\n      eq\n      tag_17\n      jumpi\n      dup1\n      0xee620868\n      eq\n      tag_18\n      jumpi\n      dup1\n      0xeee05f5e\n      eq\n      tag_19\n      jumpi\n      dup1\n      0xf7523c52\n      eq\n      tag_20\n      jumpi\n      dup1\n      0xfbbb4589\n      eq\n      tag_21\n      jumpi\n      jump(tag_1)\n    tag_23:\n      dup1\n      0x6f10e285\n      eq\n      tag_12\n      jumpi\n      dup1\n      0xc079d7f6\n      eq\n      tag_13\n      jumpi\n      dup1\n      0xcbff4617\n      eq\n      tag_14\n      jumpi\n      dup1\n      0xdaa3a4a4\n      eq\n      tag_15\n      jumpi\n      dup1\n      0xee467678\n      eq\n      tag_16\n      jumpi\n      jump(tag_1)\n    tag_22:\n      dup1\n      0x3c6eb17a\n      gt\n      tag_24\n      jumpi\n      dup1\n      0x3c6eb17a\n      eq\n      tag_7\n      jumpi\n      dup1\n      0x43d32e9c\n      eq\n      tag_8\n      jumpi\n      dup1\n      0x64ce07d8\n      eq\n      tag_9\n      jumpi\n      dup1\n      0x65819f7e\n      eq\n      tag_10\n      jumpi\n      dup1\n      0x6e05c1b9\n      eq\n      tag_11\n      jumpi\n      jump(tag_1)\n    tag_24:\n      dup1\n      0x018a25e8\n      eq\n      tag_2\n      jumpi\n      dup1\n      0x047729b0\n      eq\n      tag_3\n      jumpi\n      dup1\n      0x1f564a06\n      eq\n      tag_4\n      jumpi\n      dup1\n      0x2934b237\n      eq\n      tag_5\n      jumpi\n      dup1\n      0x35453307\n      eq\n      tag_6\n      jumpi\n    tag_1:\n      0x00\n      dup1\n      revert\n        /* \"WandInstruments.sol\":5431:5592  function getBuyPrice() external view returns (uint256){\r... */\n    tag_2:\n      callvalue\n      dup1\n      iszero\n      tag_25\n      jumpi\n      0x00\n      dup1\n      revert\n    tag_25:\n      pop\n      tag_26\n      tag_27\n      jump\t// in\n    tag_26:\n      mload(0x40)\n      tag_28\n      swap2\n      swap1\n      tag_29\n      jump\t// in\n    tag_28:\n      mload(0x40)\n      dup1\n      swap2\n      sub\n      swap1\n      return\n        /* \"WandInstruments.sol\":624:655  address public riskTreasuryAddr */\n    tag_3:\n      callvalue\n      dup1\n      iszero\n      tag_30\n      jumpi\n      0x00\n      dup1\n      revert\n    tag_30:\n      pop\n      tag_31\n      tag_32\n      jump\t// in\n    tag_31:\n      mload(0x40)\n      tag_33\n      swap2\n      swap1\n      tag_34\n      jump\t// in\n    tag_33:\n      mload(0x40)\n      dup1\n      swap2\n      sub\n      swap1\n      return\n        /* \"WandInstruments.sol\":5225:5425  function getBackingPrice() external view returns (uint256){\r... */\n    tag_4:\n      callvalue\n      dup1\n      iszero\n      tag_35\n      jumpi\n      0x00\n      dup1\n      revert\n    tag_35:\n      pop\n      tag_36\n      tag_37\n      jump\t// in\n    tag_36:\n      mload(0x40)\n      tag_38\n      swap2\n      swap1\n      tag_29\n      jump\t// in\n    tag_38:\n      mload(0x40)\n      dup1\n      swap2\n      sub\n      swap1\n      return\n        /* \"WandInstruments.sol\":5106:5215  function mintBaton(uint256 amount) public {\r... */\n    tag_5:\n      callvalue\n      dup1\n      iszero\n      tag_39\n      jumpi\n      0x00\n      dup1\n      revert\n    tag_39:\n      pop\n      tag_40\n      0x04\n      dup1\n      calldatasize\n      sub\n      dup2\n      add\n      swap1\n      tag_41\n      swap2\n      swap1\n      tag_42\n      jump\t// in\n    tag_41:\n      tag_43\n      jump\t// in\n    tag_40:\n      stop\n        /* \"WandInstruments.sol\":696:743  uint256 public treasury1bal = 500000*(DECIMALS) */\n    tag_6:\n      callvalue\n      dup1\n      iszero\n      tag_44\n      jumpi\n      0x00\n      dup1\n      revert\n    tag_44:\n      pop\n      tag_45\n      tag_46\n      jump\t// in\n    tag_45:\n      mload(0x40)\n      tag_47\n      swap2\n      swap1\n      tag_29\n      jump\t// in\n    tag_47:\n      mload(0x40)\n      dup1\n      swap2\n      sub\n      swap1\n      return\n        /* \"WandInstruments.sol\":772:799  uint256 public timeLaunched */\n    tag_7:\n      callvalue\n      dup1\n      iszero\n      tag_48\n      jumpi\n      0x00\n      dup1\n      revert\n    tag_48:\n      pop\n      tag_49\n      tag_50\n      jump\t// in\n    tag_49:\n      mload(0x40)\n      tag_51\n      swap2\n      swap1\n      tag_29\n      jump\t// in\n    tag_51:\n      mload(0x40)\n      dup1\n      swap2\n      sub\n      swap1\n      return\n        /* \"WandInstruments.sol\":5598:5822  function getSellPrice() external view returns (uint256){\r... */\n    tag_8:\n      callvalue\n      dup1\n      iszero\n      tag_52\n      jumpi\n      0x00\n      dup1\n      revert\n    tag_52:\n      pop\n      tag_53\n      tag_54\n      jump\t// in\n    tag_53:\n      mload(0x40)\n      tag_55\n      swap2\n      swap1\n      tag_29\n      jump\t// in\n    tag_55:\n      mload(0x40)\n      dup1\n      swap2\n      sub\n      swap1\n      return\n        /* \"WandInstruments.sol\":2910:3089  function decDiv18(uint x, uint y) public pure returns (uint decQuotient) {\r... */\n    tag_9:\n      callvalue\n      dup1\n      iszero\n      tag_56\n      jumpi\n      0x00\n      dup1\n      revert\n    tag_56:\n      pop\n      tag_57\n      0x04\n      dup1\n      calldatasize\n      sub\n      dup2\n      add\n      swap1\n      tag_58\n      swap2\n      swap1\n      tag_59\n      jump\t// in\n    tag_58:\n      tag_60\n      jump\t// in\n    tag_57:\n      mload(0x40)\n      tag_61\n      swap2\n      swap1\n      tag_29\n      jump\t// in\n    tag_61:\n      mload(0x40)\n      dup1\n      swap2\n      sub\n      swap1\n      return\n        /* \"WandInstruments.sol\":4303:5100  function buyScepter(uint256 amountSCPtoBuy) public payable{\r... */\n    tag_10:\n      tag_62\n      0x04\n      dup1\n      calldatasize\n      sub\n      dup2\n      add\n      swap1\n      tag_63\n      swap2\n      swap1\n      tag_42\n      jump\t// in\n    tag_63:\n      tag_64\n      jump\t// in\n    tag_62:\n      stop\n        /* \"WandInstruments.sol\":1242:1259  IERC20 public tSC */\n    tag_11:\n      callvalue\n      dup1\n      iszero\n      tag_65\n      jumpi\n      0x00\n      dup1\n      revert\n    tag_65:\n      pop\n      tag_66\n      tag_67\n      jump\t// in\n    tag_66:\n      mload(0x40)\n      tag_68\n      swap2\n      swap1\n      tag_69\n      jump\t// in\n    tag_68:\n      mload(0x40)\n      dup1\n      swap2\n      sub\n      swap1\n      return\n        /* \"WandInstruments.sol\":1020:1037  int128 public res */\n    tag_12:\n      callvalue\n      dup1\n      iszero\n      tag_70\n      jumpi\n      0x00\n      dup1\n      revert\n    tag_70:\n      pop\n      tag_71\n      tag_72\n      jump\t// in\n    tag_71:\n      mload(0x40)\n      tag_73\n      swap2\n      swap1\n      tag_74\n      jump\t// in\n    tag_73:\n      mload(0x40)\n      dup1\n      swap2\n      sub\n      swap1\n      return\n        /* \"WandInstruments.sol\":583:617  address public scepterTreasuryAddr */\n    tag_13:\n      callvalue\n      dup1\n      iszero\n      tag_75\n      jumpi\n      0x00\n      dup1\n      revert\n    tag_75:\n      pop\n      tag_76\n      tag_77\n      jump\t// in\n    tag_76:\n      mload(0x40)\n      tag_78\n      swap2\n      swap1\n      tag_34\n      jump\t// in\n    tag_78:\n      mload(0x40)\n      dup1\n      swap2\n      sub\n      swap1\n      return\n        /* \"WandInstruments.sol\":332:357  uint256 public sellFactor */\n    tag_14:\n      callvalue\n      dup1\n      iszero\n      tag_79\n      jumpi\n      0x00\n      dup1\n      revert\n    tag_79:\n      pop\n      tag_80\n      tag_81\n      jump\t// in\n    tag_80:\n      mload(0x40)\n      tag_82\n      swap2\n      swap1\n      tag_29\n      jump\t// in\n    tag_82:\n      mload(0x40)\n      dup1\n      swap2\n      sub\n      swap1\n      return\n        /* \"WandInstruments.sol\":3414:4297  function sellScepter(uint256 amountSCPtoSell) public payable{\r... */\n    tag_15:\n      tag_83\n      0x04\n      dup1\n      calldatasize\n      sub\n      dup2\n      add\n      swap1\n      tag_84\n      swap2\n      swap1\n      tag_42\n      jump\t// in\n    tag_84:\n      tag_85\n      jump\t// in\n    tag_83:\n      stop\n        /* \"WandInstruments.sol\":1288:1310  IERC20 public mockUSDC */\n    tag_16:\n      callvalue\n      dup1\n      iszero\n      tag_86\n      jumpi\n      0x00\n      dup1\n      revert\n    tag_86:\n      pop\n      tag_87\n      tag_88\n      jump\t// in\n    tag_87:\n      mload(0x40)\n      tag_89\n      swap2\n      swap1\n      tag_69\n      jump\t// in\n    tag_89:\n      mload(0x40)\n      dup1\n      swap2\n      sub\n      swap1\n      return\n        /* \"WandInstruments.sol\":3097:3281  function queryERC20Balance(address _tokenAddress, address _addressToQuery) view public returns (uint) {\r... */\n    tag_17:\n      callvalue\n      dup1\n      iszero\n      tag_90\n      jumpi\n      0x00\n      dup1\n      revert\n    tag_90:\n      pop\n      tag_91\n      0x04\n      dup1\n      calldatasize\n      sub\n      dup2\n      add\n      swap1\n      tag_92\n      swap2\n      swap1\n      tag_93\n      jump\t// in\n    tag_92:\n      tag_94\n      jump\t// in\n    tag_91:\n      mload(0x40)\n      tag_95\n      swap2\n      swap1\n      tag_29\n      jump\t// in\n    tag_95:\n      mload(0x40)\n      dup1\n      swap2\n      sub\n      swap1\n      return\n        /* \"WandInstruments.sol\":298:325  uint256 public growthFactor */\n    tag_18:\n      callvalue\n      dup1\n      iszero\n      tag_96\n      jumpi\n      0x00\n      dup1\n      revert\n    tag_96:\n      pop\n      tag_97\n      tag_98\n      jump\t// in\n    tag_97:\n      mload(0x40)\n      tag_99\n      swap2\n      swap1\n      tag_29\n      jump\t// in\n    tag_99:\n      mload(0x40)\n      dup1\n      swap2\n      sub\n      swap1\n      return\n        /* \"WandInstruments.sol\":1044:1114  address public testwallet = 0x617F2E2fD72FD9D5503197092aC168c91465E7f2 */\n    tag_19:\n      callvalue\n      dup1\n      iszero\n      tag_100\n      jumpi\n      0x00\n      dup1\n      revert\n    tag_100:\n      pop\n      tag_101\n      tag_102\n      jump\t// in\n    tag_101:\n      mload(0x40)\n      tag_103\n      swap2\n      swap1\n      tag_34\n      jump\t// in\n    tag_103:\n      mload(0x40)\n      dup1\n      swap2\n      sub\n      swap1\n      return\n        /* \"WandInstruments.sol\":2732:2902  function decMul18(uint x, uint y) public pure returns (uint decProd) {\r... */\n    tag_20:\n      callvalue\n      dup1\n      iszero\n      tag_104\n      jumpi\n      0x00\n      dup1\n      revert\n    tag_104:\n      pop\n      tag_105\n      0x04\n      dup1\n      calldatasize\n      sub\n      dup2\n      add\n      swap1\n      tag_106\n      swap2\n      swap1\n      tag_59\n      jump\t// in\n    tag_106:\n      tag_107\n      jump\t// in\n    tag_105:\n      mload(0x40)\n      tag_108\n      swap2\n      swap1\n      tag_29\n      jump\t// in\n    tag_108:\n      mload(0x40)\n      dup1\n      swap2\n      sub\n      swap1\n      return\n        /* \"WandInstruments.sol\":548:576  address public treasury1Addr */\n    tag_21:\n      callvalue\n      dup1\n      iszero\n      tag_109\n      jumpi\n      0x00\n      dup1\n      revert\n    tag_109:\n      pop\n      tag_110\n      tag_111\n      jump\t// in\n    tag_110:\n      mload(0x40)\n      tag_112\n      swap2\n      swap1\n      tag_34\n      jump\t// in\n    tag_112:\n      mload(0x40)\n      dup1\n      swap2\n      sub\n      swap1\n      return\n        /* \"WandInstruments.sol\":5431:5592  function getBuyPrice() external view returns (uint256){\r... */\n    tag_27:\n        /* \"WandInstruments.sol\":5477:5484  uint256 */\n      0x00\n        /* \"WandInstruments.sol\":5574:5580  10**18 */\n      0x0de0b6b3a7640000\n        /* \"WandInstruments.sol\":5559:5569  sellFactor */\n      sload(0x01)\n        /* \"WandInstruments.sol\":5540:5556  (9/10) *(10**18) */\n      0x0c7d713b49da0000\n        /* \"WandInstruments.sol\":5540:5569  (9/10) *(10**18) - sellFactor */\n      tag_114\n      swap2\n      swap1\n      tag_115\n      jump\t// in\n    tag_114:\n        /* \"WandInstruments.sol\":5514:5518  this */\n      address\n        /* \"WandInstruments.sol\":5514:5534  this.getBackingPrice */\n      0xffffffffffffffffffffffffffffffffffffffff\n      and\n      0x1f564a06\n        /* \"WandInstruments.sol\":5514:5536  this.getBackingPrice() */\n      mload(0x40)\n      dup2\n      0xffffffff\n      and\n      0xe0\n      shl\n      dup2\n      mstore\n      0x04\n      add\n      0x20\n      mload(0x40)\n      dup1\n      dup4\n      sub\n      dup2\n      dup7\n      dup1\n      extcodesize\n      iszero\n      dup1\n      iszero\n      tag_116\n      jumpi\n      0x00\n      dup1\n      revert\n    tag_116:\n      pop\n      gas\n      staticcall\n      iszero\n      dup1\n      iszero\n      tag_118\n      jumpi\n      returndatasize\n      0x00\n      dup1\n      returndatacopy\n      revert(0x00, returndatasize)\n    tag_118:\n      pop\n      pop\n      pop\n      pop\n      mload(0x40)\n      returndatasize\n      not(0x1f)\n      0x1f\n      dup3\n      add\n      and\n      dup3\n      add\n      dup1\n      0x40\n      mstore\n      pop\n      dup2\n      add\n      swap1\n      tag_119\n      swap2\n      swap1\n      tag_120\n      jump\t// in\n    tag_119:\n        /* \"WandInstruments.sol\":5514:5570  this.getBackingPrice() * ((9/10) *(10**18) - sellFactor) */\n      tag_121\n      swap2\n      swap1\n      tag_122\n      jump\t// in\n    tag_121:\n        /* \"WandInstruments.sol\":5514:5581  this.getBackingPrice() * ((9/10) *(10**18) - sellFactor) / (10**18) */\n      tag_123\n      swap2\n      swap1\n      tag_124\n      jump\t// in\n    tag_123:\n        /* \"WandInstruments.sol\":5506:5582  return (this.getBackingPrice() * ((9/10) *(10**18) - sellFactor) / (10**18)) */\n      swap1\n      pop\n        /* \"WandInstruments.sol\":5431:5592  function getBuyPrice() external view returns (uint256){\r... */\n      swap1\n      jump\t// out\n        /* \"WandInstruments.sol\":624:655  address public riskTreasuryAddr */\n    tag_32:\n      0x08\n      0x00\n      swap1\n      sload\n      swap1\n      0x0100\n      exp\n      swap1\n      div\n      0xffffffffffffffffffffffffffffffffffffffff\n      and\n      dup2\n      jump\t// out\n        /* \"WandInstruments.sol\":5225:5425  function getBackingPrice() external view returns (uint256){\r... */\n    tag_37:\n        /* \"WandInstruments.sol\":5275:5282  uint256 */\n      0x00\n        /* \"WandInstruments.sol\":5376:5379  tSC */\n      0x10\n      0x00\n      swap1\n      sload\n      swap1\n      0x0100\n      exp\n      swap1\n      div\n      0xffffffffffffffffffffffffffffffffffffffff\n      and\n        /* \"WandInstruments.sol\":5376:5391  tSC.totalSupply */\n      0xffffffffffffffffffffffffffffffffffffffff\n      and\n      0x18160ddd\n        /* \"WandInstruments.sol\":5376:5393  tSC.totalSupply() */\n      mload(0x40)\n      dup2\n      0xffffffff\n      and\n      0xe0\n      shl\n      dup2\n      mstore\n      0x04\n      add\n      0x20\n      mload(0x40)\n      dup1\n      dup4\n      sub\n      dup2\n      dup7\n      dup1\n      extcodesize\n      iszero\n      dup1\n      iszero\n      tag_126\n      jumpi\n      0x00\n      dup1\n      revert\n    tag_126:\n      pop\n      gas\n      staticcall\n      iszero\n      dup1\n      iszero\n      tag_128\n      jumpi\n      returndatasize\n      0x00\n      dup1\n      returndatacopy\n      revert(0x00, returndatasize)\n    tag_128:\n      pop\n      pop\n      pop\n      pop\n      mload(0x40)\n      returndatasize\n      not(0x1f)\n      0x1f\n      dup3\n      add\n      and\n      dup3\n      add\n      dup1\n      0x40\n      mstore\n      pop\n      dup2\n      add\n      swap1\n      tag_129\n      swap2\n      swap1\n      tag_120\n      jump\t// in\n    tag_129:\n        /* \"WandInstruments.sol\":5363:5375  treasury1bal */\n      sload(0x09)\n        /* \"WandInstruments.sol\":5363:5393  treasury1bal/tSC.totalSupply() */\n      tag_130\n      swap2\n      swap1\n      tag_124\n      jump\t// in\n    tag_130:\n        /* \"WandInstruments.sol\":5355:5394  return (treasury1bal/tSC.totalSupply()) */\n      swap1\n      pop\n        /* \"WandInstruments.sol\":5225:5425  function getBackingPrice() external view returns (uint256){\r... */\n      swap1\n      jump\t// out\n        /* \"WandInstruments.sol\":5106:5215  function mintBaton(uint256 amount) public {\r... */\n    tag_43:\n        /* \"WandInstruments.sol\":5169:5172  btn */\n      0x12\n      0x00\n      swap1\n      sload\n      swap1\n      0x0100\n      exp\n      swap1\n      div\n      0xffffffffffffffffffffffffffffffffffffffff\n      and\n        /* \"WandInstruments.sol\":5169:5177  btn.mint */\n      0xffffffffffffffffffffffffffffffffffffffff\n      and\n      0x40c10f19\n        /* \"WandInstruments.sol\":5178:5188  msg.sender */\n      caller\n        /* \"WandInstruments.sol\":5190:5196  amount */\n      dup4\n        /* \"WandInstruments.sol\":5169:5197  btn.mint(msg.sender, amount) */\n      mload(0x40)\n      dup4\n      0xffffffff\n      and\n      0xe0\n      shl\n      dup2\n      mstore\n      0x04\n      add\n      tag_132\n      swap3\n      swap2\n      swap1\n      tag_133\n      jump\t// in\n    tag_132:\n      0x00\n      mload(0x40)\n      dup1\n      dup4\n      sub\n      dup2\n      0x00\n      dup8\n      dup1\n      extcodesize\n      iszero\n      dup1\n      iszero\n      tag_134\n      jumpi\n      0x00\n      dup1\n      revert\n    tag_134:\n      pop\n      gas\n      call\n      iszero\n      dup1\n      iszero\n      tag_136\n      jumpi\n      returndatasize\n      0x00\n      dup1\n      returndatacopy\n      revert(0x00, returndatasize)\n    tag_136:\n      pop\n      pop\n      pop\n      pop\n        /* \"WandInstruments.sol\":5106:5215  function mintBaton(uint256 amount) public {\r... */\n      pop\n      jump\t// out\n        /* \"WandInstruments.sol\":696:743  uint256 public treasury1bal = 500000*(DECIMALS) */\n    tag_46:\n      sload(0x09)\n      dup2\n      jump\t// out\n        /* \"WandInstruments.sol\":772:799  uint256 public timeLaunched */\n    tag_50:\n      sload(0x0a)\n      dup2\n      jump\t// out\n        /* \"WandInstruments.sol\":5598:5822  function getSellPrice() external view returns (uint256){\r... */\n    tag_54:\n        /* \"WandInstruments.sol\":5645:5652  uint256 */\n      0x00\n        /* \"WandInstruments.sol\":283:289  10**18 */\n      0x0de0b6b3a7640000\n        /* \"WandInstruments.sol\":5798:5799  5 */\n      0x05\n        /* \"WandInstruments.sol\":283:289  10**18 */\n      0x0de0b6b3a7640000\n        /* \"WandInstruments.sol\":5785:5786  6 */\n      0x06\n        /* \"WandInstruments.sol\":5785:5797  6*(DECIMALS) */\n      tag_138\n      swap2\n      swap1\n      tag_122\n      jump\t// in\n    tag_138:\n        /* \"WandInstruments.sol\":5785:5799  6*(DECIMALS)/5 */\n      tag_139\n      swap2\n      swap1\n      tag_124\n      jump\t// in\n    tag_139:\n        /* \"WandInstruments.sol\":5769:5781  growthFactor */\n      sload(0x00)\n        /* \"WandInstruments.sol\":5769:5800  growthFactor + (6*(DECIMALS)/5) */\n      tag_140\n      swap2\n      swap1\n      tag_141\n      jump\t// in\n    tag_140:\n        /* \"WandInstruments.sol\":5743:5747  this */\n      address\n        /* \"WandInstruments.sol\":5743:5763  this.getBackingPrice */\n      0xffffffffffffffffffffffffffffffffffffffff\n      and\n      0x1f564a06\n        /* \"WandInstruments.sol\":5743:5765  this.getBackingPrice() */\n      mload(0x40)\n      dup2\n      0xffffffff\n      and\n      0xe0\n      shl\n      dup2\n      mstore\n      0x04\n      add\n      0x20\n      mload(0x40)\n      dup1\n      dup4\n      sub\n      dup2\n      dup7\n      dup1\n      extcodesize\n      iszero\n      dup1\n      iszero\n      tag_142\n      jumpi\n      0x00\n      dup1\n      revert\n    tag_142:\n      pop\n      gas\n      staticcall\n      iszero\n      dup1\n      iszero\n      tag_144\n      jumpi\n      returndatasize\n      0x00\n      dup1\n      returndatacopy\n      revert(0x00, returndatasize)\n    tag_144:\n      pop\n      pop\n      pop\n      pop\n      mload(0x40)\n      returndatasize\n      not(0x1f)\n      0x1f\n      dup3\n      add\n      and\n      dup3\n      add\n      dup1\n      0x40\n      mstore\n      pop\n      dup2\n      add\n      swap1\n      tag_145\n      swap2\n      swap1\n      tag_120\n      jump\t// in\n    tag_145:\n        /* \"WandInstruments.sol\":5743:5801  this.getBackingPrice() * (growthFactor + (6*(DECIMALS)/5)) */\n      tag_146\n      swap2\n      swap1\n      tag_122\n      jump\t// in\n    tag_146:\n        /* \"WandInstruments.sol\":5742:5814  (this.getBackingPrice() * (growthFactor + (6*(DECIMALS)/5)))/ (DECIMALS) */\n      tag_147\n      swap2\n      swap1\n      tag_124\n      jump\t// in\n    tag_147:\n        /* \"WandInstruments.sol\":5735:5814  return (this.getBackingPrice() * (growthFactor + (6*(DECIMALS)/5)))/ (DECIMALS) */\n      swap1\n      pop\n        /* \"WandInstruments.sol\":5598:5822  function getSellPrice() external view returns (uint256){\r... */\n      swap1\n      jump\t// out\n        /* \"WandInstruments.sol\":2910:3089  function decDiv18(uint x, uint y) public pure returns (uint decQuotient) {\r... */\n    tag_60:\n        /* \"WandInstruments.sol\":2965:2981  uint decQuotient */\n      0x00\n        /* \"WandInstruments.sol\":2994:3010  uint prod_xTEN18 */\n      dup1\n        /* \"WandInstruments.sol\":3013:3029  mul(x, DECIMALS) */\n      tag_149\n        /* \"WandInstruments.sol\":3017:3018  x */\n      dup5\n        /* \"WandInstruments.sol\":283:289  10**18 */\n      0x0de0b6b3a7640000\n        /* \"WandInstruments.sol\":3013:3016  mul */\n      tag_150\n        /* \"WandInstruments.sol\":3013:3029  mul(x, DECIMALS) */\n      jump\t// in\n    tag_149:\n        /* \"WandInstruments.sol\":2994:3029  uint prod_xTEN18 = mul(x, DECIMALS) */\n      swap1\n      pop\n        /* \"WandInstruments.sol\":3080:3081  y */\n      dup3\n        /* \"WandInstruments.sol\":3054:3077  add(prod_xTEN18, y / 2) */\n      tag_151\n        /* \"WandInstruments.sol\":3058:3069  prod_xTEN18 */\n      dup3\n        /* \"WandInstruments.sol\":3075:3076  2 */\n      0x02\n        /* \"WandInstruments.sol\":3071:3072  y */\n      dup7\n        /* \"WandInstruments.sol\":3071:3076  y / 2 */\n      tag_152\n      swap2\n      swap1\n      tag_124\n      jump\t// in\n    tag_152:\n        /* \"WandInstruments.sol\":3054:3057  add */\n      tag_153\n        /* \"WandInstruments.sol\":3054:3077  add(prod_xTEN18, y / 2) */\n      jump\t// in\n    tag_151:\n        /* \"WandInstruments.sol\":3054:3081  add(prod_xTEN18, y / 2) / y */\n      tag_154\n      swap2\n      swap1\n      tag_124\n      jump\t// in\n    tag_154:\n        /* \"WandInstruments.sol\":3040:3081  decQuotient = add(prod_xTEN18, y / 2) / y */\n      swap2\n      pop\n        /* \"WandInstruments.sol\":2983:3089  {\r... */\n      pop\n        /* \"WandInstruments.sol\":2910:3089  function decDiv18(uint x, uint y) public pure returns (uint decQuotient) {\r... */\n      swap3\n      swap2\n      pop\n      pop\n      jump\t// out\n        /* \"WandInstruments.sol\":4303:5100  function buyScepter(uint256 amountSCPtoBuy) public payable{\r... */\n    tag_64:\n        /* \"WandInstruments.sol\":4433:4460  uint256 trader_usdc_balance */\n      0x00\n        /* \"WandInstruments.sol\":4463:4471  mockUSDC */\n      0x11\n      0x00\n      swap1\n      sload\n      swap1\n      0x0100\n      exp\n      swap1\n      div\n      0xffffffffffffffffffffffffffffffffffffffff\n      and\n        /* \"WandInstruments.sol\":4463:4481  mockUSDC.balanceOf */\n      0xffffffffffffffffffffffffffffffffffffffff\n      and\n      0x70a08231\n        /* \"WandInstruments.sol\":4482:4492  msg.sender */\n      caller\n        /* \"WandInstruments.sol\":4463:4493  mockUSDC.balanceOf(msg.sender) */\n      mload(0x40)\n      dup3\n      0xffffffff\n      and\n      0xe0\n      shl\n      dup2\n      mstore\n      0x04\n      add\n      tag_156\n      swap2\n      swap1\n      tag_34\n      jump\t// in\n    tag_156:\n      0x20\n      mload(0x40)\n      dup1\n      dup4\n      sub\n      dup2\n      dup7\n      dup1\n      extcodesize\n      iszero\n      dup1\n      iszero\n      tag_157\n      jumpi\n      0x00\n      dup1\n      revert\n    tag_157:\n      pop\n      gas\n      staticcall\n      iszero\n      dup1\n      iszero\n      tag_159\n      jumpi\n      returndatasize\n      0x00\n      dup1\n      returndatacopy\n      revert(0x00, returndatasize)\n    tag_159:\n      pop\n      pop\n      pop\n      pop\n      mload(0x40)\n      returndatasize\n      not(0x1f)\n      0x1f\n      dup3\n      add\n      and\n      dup3\n      add\n      dup1\n      0x40\n      mstore\n      pop\n      dup2\n      add\n      swap1\n      tag_160\n      swap2\n      swap1\n      tag_120\n      jump\t// in\n    tag_160:\n        /* \"WandInstruments.sol\":4433:4493  uint256 trader_usdc_balance = mockUSDC.balanceOf(msg.sender) */\n      swap1\n      pop\n        /* \"WandInstruments.sol\":4534:4548  amountSCPtoBuy */\n      dup2\n        /* \"WandInstruments.sol\":4512:4531  trader_usdc_balance */\n      dup2\n        /* \"WandInstruments.sol\":4512:4548  trader_usdc_balance > amountSCPtoBuy */\n      gt\n        /* \"WandInstruments.sol\":4504:4579  require(trader_usdc_balance > amountSCPtoBuy, \"You dont have that amount!\") */\n      tag_161\n      jumpi\n      mload(0x40)\n      0x08c379a000000000000000000000000000000000000000000000000000000000\n      dup2\n      mstore\n      0x04\n      add\n      tag_162\n      swap1\n      tag_163\n      jump\t// in\n    tag_162:\n      mload(0x40)\n      dup1\n      swap2\n      sub\n      swap1\n      revert\n    tag_161:\n        /* \"WandInstruments.sol\":4630:4633  tSC */\n      0x10\n      0x00\n      swap1\n      sload\n      swap1\n      0x0100\n      exp\n      swap1\n      div\n      0xffffffffffffffffffffffffffffffffffffffff\n      and\n        /* \"WandInstruments.sol\":4630:4642  tSC.transfer */\n      0xffffffffffffffffffffffffffffffffffffffff\n      and\n      0xa9059cbb\n        /* \"WandInstruments.sol\":4643:4653  msg.sender */\n      caller\n        /* \"WandInstruments.sol\":4655:4669  amountSCPtoBuy */\n      dup5\n        /* \"WandInstruments.sol\":4630:4670  tSC.transfer(msg.sender, amountSCPtoBuy) */\n      mload(0x40)\n      dup4\n      0xffffffff\n      and\n      0xe0\n      shl\n      dup2\n      mstore\n      0x04\n      add\n      tag_164\n      swap3\n      swap2\n      swap1\n      tag_133\n      jump\t// in\n    tag_164:\n      0x20\n      mload(0x40)\n      dup1\n      dup4\n      sub\n      dup2\n      0x00\n      dup8\n      dup1\n      extcodesize\n      iszero\n      dup1\n      iszero\n      tag_165\n      jumpi\n      0x00\n      dup1\n      revert\n    tag_165:\n      pop\n      gas\n      call\n      iszero\n      dup1\n      iszero\n      tag_167\n      jumpi\n      returndatasize\n      0x00\n      dup1\n      returndatacopy\n      revert(0x00, returndatasize)\n    tag_167:\n      pop\n      pop\n      pop\n      pop\n      mload(0x40)\n      returndatasize\n      not(0x1f)\n      0x1f\n      dup3\n      add\n      and\n      dup3\n      add\n      dup1\n      0x40\n      mstore\n      pop\n      dup2\n      add\n      swap1\n      tag_168\n      swap2\n      swap1\n      tag_169\n      jump\t// in\n    tag_168:\n      pop\n        /* \"WandInstruments.sol\":4804:4874  _safeTransferFrom(mockUSDC, msg.sender, address(this), amountSCPtoBuy) */\n      tag_170\n        /* \"WandInstruments.sol\":4822:4830  mockUSDC */\n      0x11\n      0x00\n      swap1\n      sload\n      swap1\n      0x0100\n      exp\n      swap1\n      div\n      0xffffffffffffffffffffffffffffffffffffffff\n      and\n        /* \"WandInstruments.sol\":4832:4842  msg.sender */\n      caller\n        /* \"WandInstruments.sol\":4852:4856  this */\n      address\n        /* \"WandInstruments.sol\":4859:4873  amountSCPtoBuy */\n      dup6\n        /* \"WandInstruments.sol\":4804:4821  _safeTransferFrom */\n      tag_171\n        /* \"WandInstruments.sol\":4804:4874  _safeTransferFrom(mockUSDC, msg.sender, address(this), amountSCPtoBuy) */\n      jump\t// in\n    tag_170:\n        /* \"WandInstruments.sol\":4361:5100  {\r... */\n      pop\n        /* \"WandInstruments.sol\":4303:5100  function buyScepter(uint256 amountSCPtoBuy) public payable{\r... */\n      pop\n      jump\t// out\n        /* \"WandInstruments.sol\":1242:1259  IERC20 public tSC */\n    tag_67:\n      0x10\n      0x00\n      swap1\n      sload\n      swap1\n      0x0100\n      exp\n      swap1\n      div\n      0xffffffffffffffffffffffffffffffffffffffff\n      and\n      dup2\n      jump\t// out\n        /* \"WandInstruments.sol\":1020:1037  int128 public res */\n    tag_72:\n      0x0e\n      0x00\n      swap1\n      sload\n      swap1\n      0x0100\n      exp\n      swap1\n      div\n      0x0f\n      signextend\n      dup2\n      jump\t// out\n        /* \"WandInstruments.sol\":583:617  address public scepterTreasuryAddr */\n    tag_77:\n      0x07\n      0x00\n      swap1\n      sload\n      swap1\n      0x0100\n      exp\n      swap1\n      div\n      0xffffffffffffffffffffffffffffffffffffffff\n      and\n      dup2\n      jump\t// out\n        /* \"WandInstruments.sol\":332:357  uint256 public sellFactor */\n    tag_81:\n      sload(0x01)\n      dup2\n      jump\t// out\n        /* \"WandInstruments.sol\":3414:4297  function sellScepter(uint256 amountSCPtoSell) public payable{\r... */\n    tag_85:\n        /* \"WandInstruments.sol\":3546:3572  uint256 trader_tsc_balance */\n      0x00\n        /* \"WandInstruments.sol\":3575:3578  tSC */\n      0x10\n      0x00\n      swap1\n      sload\n      swap1\n      0x0100\n      exp\n      swap1\n      div\n      0xffffffffffffffffffffffffffffffffffffffff\n      and\n        /* \"WandInstruments.sol\":3575:3588  tSC.balanceOf */\n      0xffffffffffffffffffffffffffffffffffffffff\n      and\n      0x70a08231\n        /* \"WandInstruments.sol\":3589:3599  msg.sender */\n      caller\n        /* \"WandInstruments.sol\":3575:3600  tSC.balanceOf(msg.sender) */\n      mload(0x40)\n      dup3\n      0xffffffff\n      and\n      0xe0\n      shl\n      dup2\n      mstore\n      0x04\n      add\n      tag_173\n      swap2\n      swap1\n      tag_34\n      jump\t// in\n    tag_173:\n      0x20\n      mload(0x40)\n      dup1\n      dup4\n      sub\n      dup2\n      dup7\n      dup1\n      extcodesize\n      iszero\n      dup1\n      iszero\n      tag_174\n      jumpi\n      0x00\n      dup1\n      revert\n    tag_174:\n      pop\n      gas\n      staticcall\n      iszero\n      dup1\n      iszero\n      tag_176\n      jumpi\n      returndatasize\n      0x00\n      dup1\n      returndatacopy\n      revert(0x00, returndatasize)\n    tag_176:\n      pop\n      pop\n      pop\n      pop\n      mload(0x40)\n      returndatasize\n      not(0x1f)\n      0x1f\n      dup3\n      add\n      and\n      dup3\n      add\n      dup1\n      0x40\n      mstore\n      pop\n      dup2\n      add\n      swap1\n      tag_177\n      swap2\n      swap1\n      tag_120\n      jump\t// in\n    tag_177:\n        /* \"WandInstruments.sol\":3546:3600  uint256 trader_tsc_balance = tSC.balanceOf(msg.sender) */\n      swap1\n      pop\n        /* \"WandInstruments.sol\":3640:3655  amountSCPtoSell */\n      dup2\n        /* \"WandInstruments.sol\":3619:3637  trader_tsc_balance */\n      dup2\n        /* \"WandInstruments.sol\":3619:3655  trader_tsc_balance > amountSCPtoSell */\n      gt\n        /* \"WandInstruments.sol\":3611:3686  require(trader_tsc_balance > amountSCPtoSell, \"You dont have that amount!\") */\n      tag_178\n      jumpi\n      mload(0x40)\n      0x08c379a000000000000000000000000000000000000000000000000000000000\n      dup2\n      mstore\n      0x04\n      add\n      tag_179\n      swap1\n      tag_163\n      jump\t// in\n    tag_179:\n      mload(0x40)\n      dup1\n      swap2\n      sub\n      swap1\n      revert\n    tag_178:\n        /* \"WandInstruments.sol\":3888:3896  mockUSDC */\n      0x11\n      0x00\n      swap1\n      sload\n      swap1\n      0x0100\n      exp\n      swap1\n      div\n      0xffffffffffffffffffffffffffffffffffffffff\n      and\n        /* \"WandInstruments.sol\":3888:3905  mockUSDC.transfer */\n      0xffffffffffffffffffffffffffffffffffffffff\n      and\n      0xa9059cbb\n        /* \"WandInstruments.sol\":3906:3916  msg.sender */\n      caller\n        /* \"WandInstruments.sol\":283:289  10**18 */\n      0x0de0b6b3a7640000\n        /* \"WandInstruments.sol\":3937:3938  1 */\n      0x01\n        /* \"WandInstruments.sol\":3937:3949  1*(DECIMALS) */\n      tag_180\n      swap2\n      swap1\n      tag_122\n      jump\t// in\n    tag_180:\n        /* \"WandInstruments.sol\":3918:3933  amountSCPtoSell */\n      dup6\n        /* \"WandInstruments.sol\":3918:3950  amountSCPtoSell + (1*(DECIMALS)) */\n      tag_181\n      swap2\n      swap1\n      tag_141\n      jump\t// in\n    tag_181:\n        /* \"WandInstruments.sol\":3888:3951  mockUSDC.transfer(msg.sender, amountSCPtoSell + (1*(DECIMALS))) */\n      mload(0x40)\n      dup4\n      0xffffffff\n      and\n      0xe0\n      shl\n      dup2\n      mstore\n      0x04\n      add\n      tag_182\n      swap3\n      swap2\n      swap1\n      tag_133\n      jump\t// in\n    tag_182:\n      0x20\n      mload(0x40)\n      dup1\n      dup4\n      sub\n      dup2\n      0x00\n      dup8\n      dup1\n      extcodesize\n      iszero\n      dup1\n      iszero\n      tag_183\n      jumpi\n      0x00\n      dup1\n      revert\n    tag_183:\n      pop\n      gas\n      call\n      iszero\n      dup1\n      iszero\n      tag_185\n      jumpi\n      returndatasize\n      0x00\n      dup1\n      returndatacopy\n      revert(0x00, returndatasize)\n    tag_185:\n      pop\n      pop\n      pop\n      pop\n      mload(0x40)\n      returndatasize\n      not(0x1f)\n      0x1f\n      dup3\n      add\n      and\n      dup3\n      add\n      dup1\n      0x40\n      mstore\n      pop\n      dup2\n      add\n      swap1\n      tag_186\n      swap2\n      swap1\n      tag_169\n      jump\t// in\n    tag_186:\n      pop\n        /* \"WandInstruments.sol\":4007:4073  _safeTransferFrom(tSC, msg.sender, address(this), amountSCPtoSell) */\n      tag_187\n        /* \"WandInstruments.sol\":4025:4028  tSC */\n      0x10\n      0x00\n      swap1\n      sload\n      swap1\n      0x0100\n      exp\n      swap1\n      div\n      0xffffffffffffffffffffffffffffffffffffffff\n      and\n        /* \"WandInstruments.sol\":4030:4040  msg.sender */\n      caller\n        /* \"WandInstruments.sol\":4050:4054  this */\n      address\n        /* \"WandInstruments.sol\":4057:4072  amountSCPtoSell */\n      dup6\n        /* \"WandInstruments.sol\":4007:4024  _safeTransferFrom */\n      tag_171\n        /* \"WandInstruments.sol\":4007:4073  _safeTransferFrom(tSC, msg.sender, address(this), amountSCPtoSell) */\n      jump\t// in\n    tag_187:\n        /* \"WandInstruments.sol\":3474:4297  {\r... */\n      pop\n        /* \"WandInstruments.sol\":3414:4297  function sellScepter(uint256 amountSCPtoSell) public payable{\r... */\n      pop\n      jump\t// out\n        /* \"WandInstruments.sol\":1288:1310  IERC20 public mockUSDC */\n    tag_88:\n      0x11\n      0x00\n      swap1\n      sload\n      swap1\n      0x0100\n      exp\n      swap1\n      div\n      0xffffffffffffffffffffffffffffffffffffffff\n      and\n      dup2\n      jump\t// out\n        /* \"WandInstruments.sol\":3097:3281  function queryERC20Balance(address _tokenAddress, address _addressToQuery) view public returns (uint) {\r... */\n    tag_94:\n        /* \"WandInstruments.sol\":3193:3197  uint */\n      0x00\n        /* \"WandInstruments.sol\":3232:3245  _tokenAddress */\n      dup3\n        /* \"WandInstruments.sol\":3217:3256  ERC20Interface(_tokenAddress).balanceOf */\n      0xffffffffffffffffffffffffffffffffffffffff\n      and\n      0x70a08231\n        /* \"WandInstruments.sol\":3257:3272  _addressToQuery */\n      dup4\n        /* \"WandInstruments.sol\":3217:3273  ERC20Interface(_tokenAddress).balanceOf(_addressToQuery) */\n      mload(0x40)\n      dup3\n      0xffffffff\n      and\n      0xe0\n      shl\n      dup2\n      mstore\n      0x04\n      add\n      tag_189\n      swap2\n      swap1\n      tag_34\n      jump\t// in\n    tag_189:\n      0x20\n      mload(0x40)\n      dup1\n      dup4\n      sub\n      dup2\n      dup7\n      dup1\n      extcodesize\n      iszero\n      dup1\n      iszero\n      tag_190\n      jumpi\n      0x00\n      dup1\n      revert\n    tag_190:\n      pop\n      gas\n      staticcall\n      iszero\n      dup1\n      iszero\n      tag_192\n      jumpi\n      returndatasize\n      0x00\n      dup1\n      returndatacopy\n      revert(0x00, returndatasize)\n    tag_192:\n      pop\n      pop\n      pop\n      pop\n      mload(0x40)\n      returndatasize\n      not(0x1f)\n      0x1f\n      dup3\n      add\n      and\n      dup3\n      add\n      dup1\n      0x40\n      mstore\n      pop\n      dup2\n      add\n      swap1\n      tag_193\n      swap2\n      swap1\n      tag_120\n      jump\t// in\n    tag_193:\n        /* \"WandInstruments.sol\":3210:3273  return ERC20Interface(_tokenAddress).balanceOf(_addressToQuery) */\n      swap1\n      pop\n        /* \"WandInstruments.sol\":3097:3281  function queryERC20Balance(address _tokenAddress, address _addressToQuery) view public returns (uint) {\r... */\n      swap3\n      swap2\n      pop\n      pop\n      jump\t// out\n        /* \"WandInstruments.sol\":298:325  uint256 public growthFactor */\n    tag_98:\n      sload(0x00)\n      dup2\n      jump\t// out\n        /* \"WandInstruments.sol\":1044:1114  address public testwallet = 0x617F2E2fD72FD9D5503197092aC168c91465E7f2 */\n    tag_102:\n      0x0f\n      0x00\n      swap1\n      sload\n      swap1\n      0x0100\n      exp\n      swap1\n      div\n      0xffffffffffffffffffffffffffffffffffffffff\n      and\n      dup2\n      jump\t// out\n        /* \"WandInstruments.sol\":2732:2902  function decMul18(uint x, uint y) public pure returns (uint decProd) {\r... */\n    tag_107:\n        /* \"WandInstruments.sol\":2787:2799  uint decProd */\n      0x00\n        /* \"WandInstruments.sol\":2812:2824  uint prod_xy */\n      dup1\n        /* \"WandInstruments.sol\":2827:2836  mul(x, y) */\n      tag_195\n        /* \"WandInstruments.sol\":2831:2832  x */\n      dup5\n        /* \"WandInstruments.sol\":2834:2835  y */\n      dup5\n        /* \"WandInstruments.sol\":2827:2830  mul */\n      tag_150\n        /* \"WandInstruments.sol\":2827:2836  mul(x, y) */\n      jump\t// in\n    tag_195:\n        /* \"WandInstruments.sol\":2812:2836  uint prod_xy = mul(x, y) */\n      swap1\n      pop\n        /* \"WandInstruments.sol\":283:289  10**18 */\n      0x0de0b6b3a7640000\n        /* \"WandInstruments.sol\":2857:2883  add(prod_xy, DECIMALS / 2) */\n      tag_196\n        /* \"WandInstruments.sol\":2861:2868  prod_xy */\n      dup3\n        /* \"WandInstruments.sol\":2881:2882  2 */\n      0x02\n        /* \"WandInstruments.sol\":283:289  10**18 */\n      0x0de0b6b3a7640000\n        /* \"WandInstruments.sol\":2870:2882  DECIMALS / 2 */\n      tag_197\n      swap2\n      swap1\n      tag_124\n      jump\t// in\n    tag_197:\n        /* \"WandInstruments.sol\":2857:2860  add */\n      tag_153\n        /* \"WandInstruments.sol\":2857:2883  add(prod_xy, DECIMALS / 2) */\n      jump\t// in\n    tag_196:\n        /* \"WandInstruments.sol\":2857:2894  add(prod_xy, DECIMALS / 2) / DECIMALS */\n      tag_198\n      swap2\n      swap1\n      tag_124\n      jump\t// in\n    tag_198:\n        /* \"WandInstruments.sol\":2847:2894  decProd = add(prod_xy, DECIMALS / 2) / DECIMALS */\n      swap2\n      pop\n        /* \"WandInstruments.sol\":2801:2902  {\r... */\n      pop\n        /* \"WandInstruments.sol\":2732:2902  function decMul18(uint x, uint y) public pure returns (uint decProd) {\r... */\n      swap3\n      swap2\n      pop\n      pop\n      jump\t// out\n        /* \"WandInstruments.sol\":548:576  address public treasury1Addr */\n    tag_111:\n      0x06\n      0x00\n      swap1\n      sload\n      swap1\n      0x0100\n      exp\n      swap1\n      div\n      0xffffffffffffffffffffffffffffffffffffffff\n      and\n      dup2\n      jump\t// out\n        /* \"WandInstruments.sol\":1993:2213  function mul(uint256 a, uint256 b) internal pure returns (uint256) {\r... */\n    tag_150:\n        /* \"WandInstruments.sol\":2051:2058  uint256 */\n      0x00\n        /* \"WandInstruments.sol\":2076:2077  0 */\n      dup1\n        /* \"WandInstruments.sol\":2071:2072  a */\n      dup4\n        /* \"WandInstruments.sol\":2071:2077  a == 0 */\n      eq\n        /* \"WandInstruments.sol\":2067:2106  if (a == 0) {\r... */\n      iszero\n      tag_200\n      jumpi\n        /* \"WandInstruments.sol\":2097:2098  0 */\n      0x00\n        /* \"WandInstruments.sol\":2090:2098  return 0 */\n      swap1\n      pop\n      jump(tag_199)\n        /* \"WandInstruments.sol\":2067:2106  if (a == 0) {\r... */\n    tag_200:\n        /* \"WandInstruments.sol\":2112:2121  uint256 c */\n      0x00\n        /* \"WandInstruments.sol\":2128:2129  b */\n      dup3\n        /* \"WandInstruments.sol\":2124:2125  a */\n      dup5\n        /* \"WandInstruments.sol\":2124:2129  a * b */\n      tag_201\n      swap2\n      swap1\n      tag_122\n      jump\t// in\n    tag_201:\n        /* \"WandInstruments.sol\":2112:2129  uint256 c = a * b */\n      swap1\n      pop\n        /* \"WandInstruments.sol\":2153:2154  b */\n      dup3\n        /* \"WandInstruments.sol\":2148:2149  a */\n      dup5\n        /* \"WandInstruments.sol\":2144:2145  c */\n      dup3\n        /* \"WandInstruments.sol\":2144:2149  c / a */\n      tag_202\n      swap2\n      swap1\n      tag_124\n      jump\t// in\n    tag_202:\n        /* \"WandInstruments.sol\":2144:2154  c / a == b */\n      eq\n        /* \"WandInstruments.sol\":2136:2192  require(c / a == b, \"uint overflow from multiplication\") */\n      tag_203\n      jumpi\n      mload(0x40)\n      0x08c379a000000000000000000000000000000000000000000000000000000000\n      dup2\n      mstore\n      0x04\n      add\n      tag_204\n      swap1\n      tag_205\n      jump\t// in\n    tag_204:\n      mload(0x40)\n      dup1\n      swap2\n      sub\n      swap1\n      revert\n    tag_203:\n        /* \"WandInstruments.sol\":2206:2207  c */\n      dup1\n        /* \"WandInstruments.sol\":2199:2207  return c */\n      swap2\n      pop\n      pop\n        /* \"WandInstruments.sol\":1993:2213  function mul(uint256 a, uint256 b) internal pure returns (uint256) {\r... */\n    tag_199:\n      swap3\n      swap2\n      pop\n      pop\n      jump\t// out\n        /* \"WandInstruments.sol\":2555:2726  function add(uint256 a, uint256 b) internal pure returns (uint256) {\r... */\n    tag_153:\n        /* \"WandInstruments.sol\":2613:2620  uint256 */\n      0x00\n        /* \"WandInstruments.sol\":2629:2638  uint256 c */\n      dup1\n        /* \"WandInstruments.sol\":2645:2646  b */\n      dup3\n        /* \"WandInstruments.sol\":2641:2642  a */\n      dup5\n        /* \"WandInstruments.sol\":2641:2646  a + b */\n      tag_207\n      swap2\n      swap1\n      tag_141\n      jump\t// in\n    tag_207:\n        /* \"WandInstruments.sol\":2629:2646  uint256 c = a + b */\n      swap1\n      pop\n        /* \"WandInstruments.sol\":2666:2667  a */\n      dup4\n        /* \"WandInstruments.sol\":2661:2662  c */\n      dup2\n        /* \"WandInstruments.sol\":2661:2667  c >= a */\n      lt\n      iszero\n        /* \"WandInstruments.sol\":2653:2705  require(c >= a, \"uint overflow from multiplication\") */\n      tag_208\n      jumpi\n      mload(0x40)\n      0x08c379a000000000000000000000000000000000000000000000000000000000\n      dup2\n      mstore\n      0x04\n      add\n      tag_209\n      swap1\n      tag_205\n      jump\t// in\n    tag_209:\n      mload(0x40)\n      dup1\n      swap2\n      sub\n      swap1\n      revert\n    tag_208:\n        /* \"WandInstruments.sol\":2719:2720  c */\n      dup1\n        /* \"WandInstruments.sol\":2712:2720  return c */\n      swap2\n      pop\n      pop\n        /* \"WandInstruments.sol\":2555:2726  function add(uint256 a, uint256 b) internal pure returns (uint256) {\r... */\n      swap3\n      swap2\n      pop\n      pop\n      jump\t// out\n        /* \"WandInstruments.sol\":5828:6096  function _safeTransferFrom(\r... */\n    tag_171:\n        /* \"WandInstruments.sol\":5982:5991  bool sent */\n      0x00\n        /* \"WandInstruments.sol\":5994:5999  token */\n      dup5\n        /* \"WandInstruments.sol\":5994:6012  token.transferFrom */\n      0xffffffffffffffffffffffffffffffffffffffff\n      and\n      0x23b872dd\n        /* \"WandInstruments.sol\":6013:6019  sender */\n      dup6\n        /* \"WandInstruments.sol\":6021:6030  recipient */\n      dup6\n        /* \"WandInstruments.sol\":6032:6038  amount */\n      dup6\n        /* \"WandInstruments.sol\":5994:6039  token.transferFrom(sender, recipient, amount) */\n      mload(0x40)\n      dup5\n      0xffffffff\n      and\n      0xe0\n      shl\n      dup2\n      mstore\n      0x04\n      add\n      tag_211\n      swap4\n      swap3\n      swap2\n      swap1\n      tag_212\n      jump\t// in\n    tag_211:\n      0x20\n      mload(0x40)\n      dup1\n      dup4\n      sub\n      dup2\n      0x00\n      dup8\n      dup1\n      extcodesize\n      iszero\n      dup1\n      iszero\n      tag_213\n      jumpi\n      0x00\n      dup1\n      revert\n    tag_213:\n      pop\n      gas\n      call\n      iszero\n      dup1\n      iszero\n      tag_215\n      jumpi\n      returndatasize\n      0x00\n      dup1\n      returndatacopy\n      revert(0x00, returndatasize)\n    tag_215:\n      pop\n      pop\n      pop\n      pop\n      mload(0x40)\n      returndatasize\n      not(0x1f)\n      0x1f\n      dup3\n      add\n      and\n      dup3\n      add\n      dup1\n      0x40\n      mstore\n      pop\n      dup2\n      add\n      swap1\n      tag_216\n      swap2\n      swap1\n      tag_169\n      jump\t// in\n    tag_216:\n        /* \"WandInstruments.sol\":5982:6039  bool sent = token.transferFrom(sender, recipient, amount) */\n      swap1\n      pop\n        /* \"WandInstruments.sol\":6058:6062  sent */\n      dup1\n        /* \"WandInstruments.sol\":6050:6088  require(sent, \"Token transfer failed\") */\n      tag_217\n      jumpi\n      mload(0x40)\n      0x08c379a000000000000000000000000000000000000000000000000000000000\n      dup2\n      mstore\n      0x04\n      add\n      tag_218\n      swap1\n      tag_219\n      jump\t// in\n    tag_218:\n      mload(0x40)\n      dup1\n      swap2\n      sub\n      swap1\n      revert\n    tag_217:\n        /* \"WandInstruments.sol\":5971:6096  {\r... */\n      pop\n        /* \"WandInstruments.sol\":5828:6096  function _safeTransferFrom(\r... */\n      pop\n      pop\n      pop\n      pop\n      jump\t// out\n        /* \"#utility.yul\":7:146   */\n    tag_221:\n        /* \"#utility.yul\":53:58   */\n      0x00\n        /* \"#utility.yul\":91:97   */\n      dup2\n        /* \"#utility.yul\":78:98   */\n      calldataload\n        /* \"#utility.yul\":69:98   */\n      swap1\n      pop\n        /* \"#utility.yul\":107:140   */\n      tag_223\n        /* \"#utility.yul\":134:139   */\n      dup2\n        /* \"#utility.yul\":107:140   */\n      tag_224\n      jump\t// in\n    tag_223:\n        /* \"#utility.yul\":7:146   */\n      swap3\n      swap2\n      pop\n      pop\n      jump\t// out\n        /* \"#utility.yul\":152:289   */\n    tag_225:\n        /* \"#utility.yul\":206:211   */\n      0x00\n        /* \"#utility.yul\":237:243   */\n      dup2\n        /* \"#utility.yul\":231:244   */\n      mload\n        /* \"#utility.yul\":222:244   */\n      swap1\n      pop\n        /* \"#utility.yul\":253:283   */\n      tag_227\n        /* \"#utility.yul\":277:282   */\n      dup2\n        /* \"#utility.yul\":253:283   */\n      tag_228\n      jump\t// in\n    tag_227:\n        /* \"#utility.yul\":152:289   */\n      swap3\n      swap2\n      pop\n      pop\n      jump\t// out\n        /* \"#utility.yul\":295:434   */\n    tag_229:\n        /* \"#utility.yul\":341:346   */\n      0x00\n        /* \"#utility.yul\":379:385   */\n      dup2\n        /* \"#utility.yul\":366:386   */\n      calldataload\n        /* \"#utility.yul\":357:386   */\n      swap1\n      pop\n        /* \"#utility.yul\":395:428   */\n      tag_231\n        /* \"#utility.yul\":422:427   */\n      dup2\n        /* \"#utility.yul\":395:428   */\n      tag_232\n      jump\t// in\n    tag_231:\n        /* \"#utility.yul\":295:434   */\n      swap3\n      swap2\n      pop\n      pop\n      jump\t// out\n        /* \"#utility.yul\":440:583   */\n    tag_233:\n        /* \"#utility.yul\":497:502   */\n      0x00\n        /* \"#utility.yul\":528:534   */\n      dup2\n        /* \"#utility.yul\":522:535   */\n      mload\n        /* \"#utility.yul\":513:535   */\n      swap1\n      pop\n        /* \"#utility.yul\":544:577   */\n      tag_235\n        /* \"#utility.yul\":571:576   */\n      dup2\n        /* \"#utility.yul\":544:577   */\n      tag_232\n      jump\t// in\n    tag_235:\n        /* \"#utility.yul\":440:583   */\n      swap3\n      swap2\n      pop\n      pop\n      jump\t// out\n        /* \"#utility.yul\":589:1063   */\n    tag_93:\n        /* \"#utility.yul\":657:663   */\n      0x00\n        /* \"#utility.yul\":665:671   */\n      dup1\n        /* \"#utility.yul\":714:716   */\n      0x40\n        /* \"#utility.yul\":702:711   */\n      dup4\n        /* \"#utility.yul\":693:700   */\n      dup6\n        /* \"#utility.yul\":689:712   */\n      sub\n        /* \"#utility.yul\":685:717   */\n      slt\n        /* \"#utility.yul\":682:801   */\n      iszero\n      tag_237\n      jumpi\n        /* \"#utility.yul\":720:799   */\n      tag_238\n      tag_239\n      jump\t// in\n    tag_238:\n        /* \"#utility.yul\":682:801   */\n    tag_237:\n        /* \"#utility.yul\":840:841   */\n      0x00\n        /* \"#utility.yul\":865:918   */\n      tag_240\n        /* \"#utility.yul\":910:917   */\n      dup6\n        /* \"#utility.yul\":901:907   */\n      dup3\n        /* \"#utility.yul\":890:899   */\n      dup7\n        /* \"#utility.yul\":886:908   */\n      add\n        /* \"#utility.yul\":865:918   */\n      tag_221\n      jump\t// in\n    tag_240:\n        /* \"#utility.yul\":855:918   */\n      swap3\n      pop\n        /* \"#utility.yul\":811:928   */\n      pop\n        /* \"#utility.yul\":967:969   */\n      0x20\n        /* \"#utility.yul\":993:1046   */\n      tag_241\n        /* \"#utility.yul\":1038:1045   */\n      dup6\n        /* \"#utility.yul\":1029:1035   */\n      dup3\n        /* \"#utility.yul\":1018:1027   */\n      dup7\n        /* \"#utility.yul\":1014:1036   */\n      add\n        /* \"#utility.yul\":993:1046   */\n      tag_221\n      jump\t// in\n    tag_241:\n        /* \"#utility.yul\":983:1046   */\n      swap2\n      pop\n        /* \"#utility.yul\":938:1056   */\n      pop\n        /* \"#utility.yul\":589:1063   */\n      swap3\n      pop\n      swap3\n      swap1\n      pop\n      jump\t// out\n        /* \"#utility.yul\":1069:1414   */\n    tag_169:\n        /* \"#utility.yul\":1136:1142   */\n      0x00\n        /* \"#utility.yul\":1185:1187   */\n      0x20\n        /* \"#utility.yul\":1173:1182   */\n      dup3\n        /* \"#utility.yul\":1164:1171   */\n      dup5\n        /* \"#utility.yul\":1160:1183   */\n      sub\n        /* \"#utility.yul\":1156:1188   */\n      slt\n        /* \"#utility.yul\":1153:1272   */\n      iszero\n      tag_243\n      jumpi\n        /* \"#utility.yul\":1191:1270   */\n      tag_244\n      tag_239\n      jump\t// in\n    tag_244:\n        /* \"#utility.yul\":1153:1272   */\n    tag_243:\n        /* \"#utility.yul\":1311:1312   */\n      0x00\n        /* \"#utility.yul\":1336:1397   */\n      tag_245\n        /* \"#utility.yul\":1389:1396   */\n      dup5\n        /* \"#utility.yul\":1380:1386   */\n      dup3\n        /* \"#utility.yul\":1369:1378   */\n      dup6\n        /* \"#utility.yul\":1365:1387   */\n      add\n        /* \"#utility.yul\":1336:1397   */\n      tag_225\n      jump\t// in\n    tag_245:\n        /* \"#utility.yul\":1326:1397   */\n      swap2\n      pop\n        /* \"#utility.yul\":1282:1407   */\n      pop\n        /* \"#utility.yul\":1069:1414   */\n      swap3\n      swap2\n      pop\n      pop\n      jump\t// out\n        /* \"#utility.yul\":1420:1749   */\n    tag_42:\n        /* \"#utility.yul\":1479:1485   */\n      0x00\n        /* \"#utility.yul\":1528:1530   */\n      0x20\n        /* \"#utility.yul\":1516:1525   */\n      dup3\n        /* \"#utility.yul\":1507:1514   */\n      dup5\n        /* \"#utility.yul\":1503:1526   */\n      sub\n        /* \"#utility.yul\":1499:1531   */\n      slt\n        /* \"#utility.yul\":1496:1615   */\n      iszero\n      tag_247\n      jumpi\n        /* \"#utility.yul\":1534:1613   */\n      tag_248\n      tag_239\n      jump\t// in\n    tag_248:\n        /* \"#utility.yul\":1496:1615   */\n    tag_247:\n        /* \"#utility.yul\":1654:1655   */\n      0x00\n        /* \"#utility.yul\":1679:1732   */\n      tag_249\n        /* \"#utility.yul\":1724:1731   */\n      dup5\n        /* \"#utility.yul\":1715:1721   */\n      dup3\n        /* \"#utility.yul\":1704:1713   */\n      dup6\n        /* \"#utility.yul\":1700:1722   */\n      add\n        /* \"#utility.yul\":1679:1732   */\n      tag_229\n      jump\t// in\n    tag_249:\n        /* \"#utility.yul\":1669:1732   */\n      swap2\n      pop\n        /* \"#utility.yul\":1625:1742   */\n      pop\n        /* \"#utility.yul\":1420:1749   */\n      swap3\n      swap2\n      pop\n      pop\n      jump\t// out\n        /* \"#utility.yul\":1755:2106   */\n    tag_120:\n        /* \"#utility.yul\":1825:1831   */\n      0x00\n        /* \"#utility.yul\":1874:1876   */\n      0x20\n        /* \"#utility.yul\":1862:1871   */\n      dup3\n        /* \"#utility.yul\":1853:1860   */\n      dup5\n        /* \"#utility.yul\":1849:1872   */\n      sub\n        /* \"#utility.yul\":1845:1877   */\n      slt\n        /* \"#utility.yul\":1842:1961   */\n      iszero\n      tag_251\n      jumpi\n        /* \"#utility.yul\":1880:1959   */\n      tag_252\n      tag_239\n      jump\t// in\n    tag_252:\n        /* \"#utility.yul\":1842:1961   */\n    tag_251:\n        /* \"#utility.yul\":2000:2001   */\n      0x00\n        /* \"#utility.yul\":2025:2089   */\n      tag_253\n        /* \"#utility.yul\":2081:2088   */\n      dup5\n        /* \"#utility.yul\":2072:2078   */\n      dup3\n        /* \"#utility.yul\":2061:2070   */\n      dup6\n        /* \"#utility.yul\":2057:2079   */\n      add\n        /* \"#utility.yul\":2025:2089   */\n      tag_233\n      jump\t// in\n    tag_253:\n        /* \"#utility.yul\":2015:2089   */\n      swap2\n      pop\n        /* \"#utility.yul\":1971:2099   */\n      pop\n        /* \"#utility.yul\":1755:2106   */\n      swap3\n      swap2\n      pop\n      pop\n      jump\t// out\n        /* \"#utility.yul\":2112:2586   */\n    tag_59:\n        /* \"#utility.yul\":2180:2186   */\n      0x00\n        /* \"#utility.yul\":2188:2194   */\n      dup1\n        /* \"#utility.yul\":2237:2239   */\n      0x40\n        /* \"#utility.yul\":2225:2234   */\n      dup4\n        /* \"#utility.yul\":2216:2223   */\n      dup6\n        /* \"#utility.yul\":2212:2235   */\n      sub\n        /* \"#utility.yul\":2208:2240   */\n      slt\n        /* \"#utility.yul\":2205:2324   */\n      iszero\n      tag_255\n      jumpi\n        /* \"#utility.yul\":2243:2322   */\n      tag_256\n      tag_239\n      jump\t// in\n    tag_256:\n        /* \"#utility.yul\":2205:2324   */\n    tag_255:\n        /* \"#utility.yul\":2363:2364   */\n      0x00\n        /* \"#utility.yul\":2388:2441   */\n      tag_257\n        /* \"#utility.yul\":2433:2440   */\n      dup6\n        /* \"#utility.yul\":2424:2430   */\n      dup3\n        /* \"#utility.yul\":2413:2422   */\n      dup7\n        /* \"#utility.yul\":2409:2431   */\n      add\n        /* \"#utility.yul\":2388:2441   */\n      tag_229\n      jump\t// in\n    tag_257:\n        /* \"#utility.yul\":2378:2441   */\n      swap3\n      pop\n        /* \"#utility.yul\":2334:2451   */\n      pop\n        /* \"#utility.yul\":2490:2492   */\n      0x20\n        /* \"#utility.yul\":2516:2569   */\n      tag_258\n        /* \"#utility.yul\":2561:2568   */\n      dup6\n        /* \"#utility.yul\":2552:2558   */\n      dup3\n        /* \"#utility.yul\":2541:2550   */\n      dup7\n        /* \"#utility.yul\":2537:2559   */\n      add\n        /* \"#utility.yul\":2516:2569   */\n      tag_229\n      jump\t// in\n    tag_258:\n        /* \"#utility.yul\":2506:2569   */\n      swap2\n      pop\n        /* \"#utility.yul\":2461:2579   */\n      pop\n        /* \"#utility.yul\":2112:2586   */\n      swap3\n      pop\n      swap3\n      swap1\n      pop\n      jump\t// out\n        /* \"#utility.yul\":2592:2710   */\n    tag_259:\n        /* \"#utility.yul\":2679:2703   */\n      tag_261\n        /* \"#utility.yul\":2697:2702   */\n      dup2\n        /* \"#utility.yul\":2679:2703   */\n      tag_262\n      jump\t// in\n    tag_261:\n        /* \"#utility.yul\":2674:2677   */\n      dup3\n        /* \"#utility.yul\":2667:2704   */\n      mstore\n        /* \"#utility.yul\":2592:2710   */\n      pop\n      pop\n      jump\t// out\n        /* \"#utility.yul\":2716:2873   */\n    tag_263:\n        /* \"#utility.yul\":2816:2866   */\n      tag_265\n        /* \"#utility.yul\":2860:2865   */\n      dup2\n        /* \"#utility.yul\":2816:2866   */\n      tag_266\n      jump\t// in\n    tag_265:\n        /* \"#utility.yul\":2811:2814   */\n      dup3\n        /* \"#utility.yul\":2804:2867   */\n      mstore\n        /* \"#utility.yul\":2716:2873   */\n      pop\n      pop\n      jump\t// out\n        /* \"#utility.yul\":2879:2994   */\n    tag_267:\n        /* \"#utility.yul\":2964:2987   */\n      tag_269\n        /* \"#utility.yul\":2981:2986   */\n      dup2\n        /* \"#utility.yul\":2964:2987   */\n      tag_270\n      jump\t// in\n    tag_269:\n        /* \"#utility.yul\":2959:2962   */\n      dup3\n        /* \"#utility.yul\":2952:2988   */\n      mstore\n        /* \"#utility.yul\":2879:2994   */\n      pop\n      pop\n      jump\t// out\n        /* \"#utility.yul\":3000:3366   */\n    tag_271:\n        /* \"#utility.yul\":3142:3145   */\n      0x00\n        /* \"#utility.yul\":3163:3230   */\n      tag_273\n        /* \"#utility.yul\":3227:3229   */\n      0x15\n        /* \"#utility.yul\":3222:3225   */\n      dup4\n        /* \"#utility.yul\":3163:3230   */\n      tag_274\n      jump\t// in\n    tag_273:\n        /* \"#utility.yul\":3156:3230   */\n      swap2\n      pop\n        /* \"#utility.yul\":3239:3332   */\n      tag_275\n        /* \"#utility.yul\":3328:3331   */\n      dup3\n        /* \"#utility.yul\":3239:3332   */\n      tag_276\n      jump\t// in\n    tag_275:\n        /* \"#utility.yul\":3357:3359   */\n      0x20\n        /* \"#utility.yul\":3352:3355   */\n      dup3\n        /* \"#utility.yul\":3348:3360   */\n      add\n        /* \"#utility.yul\":3341:3360   */\n      swap1\n      pop\n        /* \"#utility.yul\":3000:3366   */\n      swap2\n      swap1\n      pop\n      jump\t// out\n        /* \"#utility.yul\":3372:3738   */\n    tag_277:\n        /* \"#utility.yul\":3514:3517   */\n      0x00\n        /* \"#utility.yul\":3535:3602   */\n      tag_279\n        /* \"#utility.yul\":3599:3601   */\n      0x1a\n        /* \"#utility.yul\":3594:3597   */\n      dup4\n        /* \"#utility.yul\":3535:3602   */\n      tag_274\n      jump\t// in\n    tag_279:\n        /* \"#utility.yul\":3528:3602   */\n      swap2\n      pop\n        /* \"#utility.yul\":3611:3704   */\n      tag_280\n        /* \"#utility.yul\":3700:3703   */\n      dup3\n        /* \"#utility.yul\":3611:3704   */\n      tag_281\n      jump\t// in\n    tag_280:\n        /* \"#utility.yul\":3729:3731   */\n      0x20\n        /* \"#utility.yul\":3724:3727   */\n      dup3\n        /* \"#utility.yul\":3720:3732   */\n      add\n        /* \"#utility.yul\":3713:3732   */\n      swap1\n      pop\n        /* \"#utility.yul\":3372:3738   */\n      swap2\n      swap1\n      pop\n      jump\t// out\n        /* \"#utility.yul\":3744:4110   */\n    tag_282:\n        /* \"#utility.yul\":3886:3889   */\n      0x00\n        /* \"#utility.yul\":3907:3974   */\n      tag_284\n        /* \"#utility.yul\":3971:3973   */\n      0x21\n        /* \"#utility.yul\":3966:3969   */\n      dup4\n        /* \"#utility.yul\":3907:3974   */\n      tag_274\n      jump\t// in\n    tag_284:\n        /* \"#utility.yul\":3900:3974   */\n      swap2\n      pop\n        /* \"#utility.yul\":3983:4076   */\n      tag_285\n        /* \"#utility.yul\":4072:4075   */\n      dup3\n        /* \"#utility.yul\":3983:4076   */\n      tag_286\n      jump\t// in\n    tag_285:\n        /* \"#utility.yul\":4101:4103   */\n      0x40\n        /* \"#utility.yul\":4096:4099   */\n      dup3\n        /* \"#utility.yul\":4092:4104   */\n      add\n        /* \"#utility.yul\":4085:4104   */\n      swap1\n      pop\n        /* \"#utility.yul\":3744:4110   */\n      swap2\n      swap1\n      pop\n      jump\t// out\n        /* \"#utility.yul\":4116:4234   */\n    tag_287:\n        /* \"#utility.yul\":4203:4227   */\n      tag_289\n        /* \"#utility.yul\":4221:4226   */\n      dup2\n        /* \"#utility.yul\":4203:4227   */\n      tag_290\n      jump\t// in\n    tag_289:\n        /* \"#utility.yul\":4198:4201   */\n      dup3\n        /* \"#utility.yul\":4191:4228   */\n      mstore\n        /* \"#utility.yul\":4116:4234   */\n      pop\n      pop\n      jump\t// out\n        /* \"#utility.yul\":4240:4462   */\n    tag_34:\n        /* \"#utility.yul\":4333:4337   */\n      0x00\n        /* \"#utility.yul\":4371:4373   */\n      0x20\n        /* \"#utility.yul\":4360:4369   */\n      dup3\n        /* \"#utility.yul\":4356:4374   */\n      add\n        /* \"#utility.yul\":4348:4374   */\n      swap1\n      pop\n        /* \"#utility.yul\":4384:4455   */\n      tag_292\n        /* \"#utility.yul\":4452:4453   */\n      0x00\n        /* \"#utility.yul\":4441:4450   */\n      dup4\n        /* \"#utility.yul\":4437:4454   */\n      add\n        /* \"#utility.yul\":4428:4434   */\n      dup5\n        /* \"#utility.yul\":4384:4455   */\n      tag_259\n      jump\t// in\n    tag_292:\n        /* \"#utility.yul\":4240:4462   */\n      swap3\n      swap2\n      pop\n      pop\n      jump\t// out\n        /* \"#utility.yul\":4468:4910   */\n    tag_212:\n        /* \"#utility.yul\":4617:4621   */\n      0x00\n        /* \"#utility.yul\":4655:4657   */\n      0x60\n        /* \"#utility.yul\":4644:4653   */\n      dup3\n        /* \"#utility.yul\":4640:4658   */\n      add\n        /* \"#utility.yul\":4632:4658   */\n      swap1\n      pop\n        /* \"#utility.yul\":4668:4739   */\n      tag_294\n        /* \"#utility.yul\":4736:4737   */\n      0x00\n        /* \"#utility.yul\":4725:4734   */\n      dup4\n        /* \"#utility.yul\":4721:4738   */\n      add\n        /* \"#utility.yul\":4712:4718   */\n      dup7\n        /* \"#utility.yul\":4668:4739   */\n      tag_259\n      jump\t// in\n    tag_294:\n        /* \"#utility.yul\":4749:4821   */\n      tag_295\n        /* \"#utility.yul\":4817:4819   */\n      0x20\n        /* \"#utility.yul\":4806:4815   */\n      dup4\n        /* \"#utility.yul\":4802:4820   */\n      add\n        /* \"#utility.yul\":4793:4799   */\n      dup6\n        /* \"#utility.yul\":4749:4821   */\n      tag_259\n      jump\t// in\n    tag_295:\n        /* \"#utility.yul\":4831:4903   */\n      tag_296\n        /* \"#utility.yul\":4899:4901   */\n      0x40\n        /* \"#utility.yul\":4888:4897   */\n      dup4\n        /* \"#utility.yul\":4884:4902   */\n      add\n        /* \"#utility.yul\":4875:4881   */\n      dup5\n        /* \"#utility.yul\":4831:4903   */\n      tag_287\n      jump\t// in\n    tag_296:\n        /* \"#utility.yul\":4468:4910   */\n      swap5\n      swap4\n      pop\n      pop\n      pop\n      pop\n      jump\t// out\n        /* \"#utility.yul\":4916:5248   */\n    tag_133:\n        /* \"#utility.yul\":5037:5041   */\n      0x00\n        /* \"#utility.yul\":5075:5077   */\n      0x40\n        /* \"#utility.yul\":5064:5073   */\n      dup3\n        /* \"#utility.yul\":5060:5078   */\n      add\n        /* \"#utility.yul\":5052:5078   */\n      swap1\n      pop\n        /* \"#utility.yul\":5088:5159   */\n      tag_298\n        /* \"#utility.yul\":5156:5157   */\n      0x00\n        /* \"#utility.yul\":5145:5154   */\n      dup4\n        /* \"#utility.yul\":5141:5158   */\n      add\n        /* \"#utility.yul\":5132:5138   */\n      dup6\n        /* \"#utility.yul\":5088:5159   */\n      tag_259\n      jump\t// in\n    tag_298:\n        /* \"#utility.yul\":5169:5241   */\n      tag_299\n        /* \"#utility.yul\":5237:5239   */\n      0x20\n        /* \"#utility.yul\":5226:5235   */\n      dup4\n        /* \"#utility.yul\":5222:5240   */\n      add\n        /* \"#utility.yul\":5213:5219   */\n      dup5\n        /* \"#utility.yul\":5169:5241   */\n      tag_287\n      jump\t// in\n    tag_299:\n        /* \"#utility.yul\":4916:5248   */\n      swap4\n      swap3\n      pop\n      pop\n      pop\n      jump\t// out\n        /* \"#utility.yul\":5254:5502   */\n    tag_69:\n        /* \"#utility.yul\":5360:5364   */\n      0x00\n        /* \"#utility.yul\":5398:5400   */\n      0x20\n        /* \"#utility.yul\":5387:5396   */\n      dup3\n        /* \"#utility.yul\":5383:5401   */\n      add\n        /* \"#utility.yul\":5375:5401   */\n      swap1\n      pop\n        /* \"#utility.yul\":5411:5495   */\n      tag_301\n        /* \"#utility.yul\":5492:5493   */\n      0x00\n        /* \"#utility.yul\":5481:5490   */\n      dup4\n        /* \"#utility.yul\":5477:5494   */\n      add\n        /* \"#utility.yul\":5468:5474   */\n      dup5\n        /* \"#utility.yul\":5411:5495   */\n      tag_263\n      jump\t// in\n    tag_301:\n        /* \"#utility.yul\":5254:5502   */\n      swap3\n      swap2\n      pop\n      pop\n      jump\t// out\n        /* \"#utility.yul\":5508:5726   */\n    tag_74:\n        /* \"#utility.yul\":5599:5603   */\n      0x00\n        /* \"#utility.yul\":5637:5639   */\n      0x20\n        /* \"#utility.yul\":5626:5635   */\n      dup3\n        /* \"#utility.yul\":5622:5640   */\n      add\n        /* \"#utility.yul\":5614:5640   */\n      swap1\n      pop\n        /* \"#utility.yul\":5650:5719   */\n      tag_303\n        /* \"#utility.yul\":5716:5717   */\n      0x00\n        /* \"#utility.yul\":5705:5714   */\n      dup4\n        /* \"#utility.yul\":5701:5718   */\n      add\n        /* \"#utility.yul\":5692:5698   */\n      dup5\n        /* \"#utility.yul\":5650:5719   */\n      tag_267\n      jump\t// in\n    tag_303:\n        /* \"#utility.yul\":5508:5726   */\n      swap3\n      swap2\n      pop\n      pop\n      jump\t// out\n        /* \"#utility.yul\":5732:6151   */\n    tag_219:\n        /* \"#utility.yul\":5898:5902   */\n      0x00\n        /* \"#utility.yul\":5936:5938   */\n      0x20\n        /* \"#utility.yul\":5925:5934   */\n      dup3\n        /* \"#utility.yul\":5921:5939   */\n      add\n        /* \"#utility.yul\":5913:5939   */\n      swap1\n      pop\n        /* \"#utility.yul\":5985:5994   */\n      dup2\n        /* \"#utility.yul\":5979:5983   */\n      dup2\n        /* \"#utility.yul\":5975:5995   */\n      sub\n        /* \"#utility.yul\":5971:5972   */\n      0x00\n        /* \"#utility.yul\":5960:5969   */\n      dup4\n        /* \"#utility.yul\":5956:5973   */\n      add\n        /* \"#utility.yul\":5949:5996   */\n      mstore\n        /* \"#utility.yul\":6013:6144   */\n      tag_305\n        /* \"#utility.yul\":6139:6143   */\n      dup2\n        /* \"#utility.yul\":6013:6144   */\n      tag_271\n      jump\t// in\n    tag_305:\n        /* \"#utility.yul\":6005:6144   */\n      swap1\n      pop\n        /* \"#utility.yul\":5732:6151   */\n      swap2\n      swap1\n      pop\n      jump\t// out\n        /* \"#utility.yul\":6157:6576   */\n    tag_163:\n        /* \"#utility.yul\":6323:6327   */\n      0x00\n        /* \"#utility.yul\":6361:6363   */\n      0x20\n        /* \"#utility.yul\":6350:6359   */\n      dup3\n        /* \"#utility.yul\":6346:6364   */\n      add\n        /* \"#utility.yul\":6338:6364   */\n      swap1\n      pop\n        /* \"#utility.yul\":6410:6419   */\n      dup2\n        /* \"#utility.yul\":6404:6408   */\n      dup2\n        /* \"#utility.yul\":6400:6420   */\n      sub\n        /* \"#utility.yul\":6396:6397   */\n      0x00\n        /* \"#utility.yul\":6385:6394   */\n      dup4\n        /* \"#utility.yul\":6381:6398   */\n      add\n        /* \"#utility.yul\":6374:6421   */\n      mstore\n        /* \"#utility.yul\":6438:6569   */\n      tag_307\n        /* \"#utility.yul\":6564:6568   */\n      dup2\n        /* \"#utility.yul\":6438:6569   */\n      tag_277\n      jump\t// in\n    tag_307:\n        /* \"#utility.yul\":6430:6569   */\n      swap1\n      pop\n        /* \"#utility.yul\":6157:6576   */\n      swap2\n      swap1\n      pop\n      jump\t// out\n        /* \"#utility.yul\":6582:7001   */\n    tag_205:\n        /* \"#utility.yul\":6748:6752   */\n      0x00\n        /* \"#utility.yul\":6786:6788   */\n      0x20\n        /* \"#utility.yul\":6775:6784   */\n      dup3\n        /* \"#utility.yul\":6771:6789   */\n      add\n        /* \"#utility.yul\":6763:6789   */\n      swap1\n      pop\n        /* \"#utility.yul\":6835:6844   */\n      dup2\n        /* \"#utility.yul\":6829:6833   */\n      dup2\n        /* \"#utility.yul\":6825:6845   */\n      sub\n        /* \"#utility.yul\":6821:6822   */\n      0x00\n        /* \"#utility.yul\":6810:6819   */\n      dup4\n        /* \"#utility.yul\":6806:6823   */\n      add\n        /* \"#utility.yul\":6799:6846   */\n      mstore\n        /* \"#utility.yul\":6863:6994   */\n      tag_309\n        /* \"#utility.yul\":6989:6993   */\n      dup2\n        /* \"#utility.yul\":6863:6994   */\n      tag_282\n      jump\t// in\n    tag_309:\n        /* \"#utility.yul\":6855:6994   */\n      swap1\n      pop\n        /* \"#utility.yul\":6582:7001   */\n      swap2\n      swap1\n      pop\n      jump\t// out\n        /* \"#utility.yul\":7007:7229   */\n    tag_29:\n        /* \"#utility.yul\":7100:7104   */\n      0x00\n        /* \"#utility.yul\":7138:7140   */\n      0x20\n        /* \"#utility.yul\":7127:7136   */\n      dup3\n        /* \"#utility.yul\":7123:7141   */\n      add\n        /* \"#utility.yul\":7115:7141   */\n      swap1\n      pop\n        /* \"#utility.yul\":7151:7222   */\n      tag_311\n        /* \"#utility.yul\":7219:7220   */\n      0x00\n        /* \"#utility.yul\":7208:7217   */\n      dup4\n        /* \"#utility.yul\":7204:7221   */\n      add\n        /* \"#utility.yul\":7195:7201   */\n      dup5\n        /* \"#utility.yul\":7151:7222   */\n      tag_287\n      jump\t// in\n    tag_311:\n        /* \"#utility.yul\":7007:7229   */\n      swap3\n      swap2\n      pop\n      pop\n      jump\t// out\n        /* \"#utility.yul\":7316:7485   */\n    tag_274:\n        /* \"#utility.yul\":7400:7411   */\n      0x00\n        /* \"#utility.yul\":7434:7440   */\n      dup3\n        /* \"#utility.yul\":7429:7432   */\n      dup3\n        /* \"#utility.yul\":7422:7441   */\n      mstore\n        /* \"#utility.yul\":7474:7478   */\n      0x20\n        /* \"#utility.yul\":7469:7472   */\n      dup3\n        /* \"#utility.yul\":7465:7479   */\n      add\n        /* \"#utility.yul\":7450:7479   */\n      swap1\n      pop\n        /* \"#utility.yul\":7316:7485   */\n      swap3\n      swap2\n      pop\n      pop\n      jump\t// out\n        /* \"#utility.yul\":7491:7796   */\n    tag_141:\n        /* \"#utility.yul\":7531:7534   */\n      0x00\n        /* \"#utility.yul\":7550:7570   */\n      tag_316\n        /* \"#utility.yul\":7568:7569   */\n      dup3\n        /* \"#utility.yul\":7550:7570   */\n      tag_290\n      jump\t// in\n    tag_316:\n        /* \"#utility.yul\":7545:7570   */\n      swap2\n      pop\n        /* \"#utility.yul\":7584:7604   */\n      tag_317\n        /* \"#utility.yul\":7602:7603   */\n      dup4\n        /* \"#utility.yul\":7584:7604   */\n      tag_290\n      jump\t// in\n    tag_317:\n        /* \"#utility.yul\":7579:7604   */\n      swap3\n      pop\n        /* \"#utility.yul\":7738:7739   */\n      dup3\n        /* \"#utility.yul\":7670:7736   */\n      0xffffffffffffffffffffffffffffffffffffffffffffffffffffffffffffffff\n        /* \"#utility.yul\":7666:7740   */\n      sub\n        /* \"#utility.yul\":7663:7664   */\n      dup3\n        /* \"#utility.yul\":7660:7741   */\n      gt\n        /* \"#utility.yul\":7657:7764   */\n      iszero\n      tag_318\n      jumpi\n        /* \"#utility.yul\":7744:7762   */\n      tag_319\n      tag_320\n      jump\t// in\n    tag_319:\n        /* \"#utility.yul\":7657:7764   */\n    tag_318:\n        /* \"#utility.yul\":7788:7789   */\n      dup3\n        /* \"#utility.yul\":7785:7786   */\n      dup3\n        /* \"#utility.yul\":7781:7790   */\n      add\n        /* \"#utility.yul\":7774:7790   */\n      swap1\n      pop\n        /* \"#utility.yul\":7491:7796   */\n      swap3\n      swap2\n      pop\n      pop\n      jump\t// out\n        /* \"#utility.yul\":7802:7987   */\n    tag_124:\n        /* \"#utility.yul\":7842:7843   */\n      0x00\n        /* \"#utility.yul\":7859:7879   */\n      tag_322\n        /* \"#utility.yul\":7877:7878   */\n      dup3\n        /* \"#utility.yul\":7859:7879   */\n      tag_290\n      jump\t// in\n    tag_322:\n        /* \"#utility.yul\":7854:7879   */\n      swap2\n      pop\n        /* \"#utility.yul\":7893:7913   */\n      tag_323\n        /* \"#utility.yul\":7911:7912   */\n      dup4\n        /* \"#utility.yul\":7893:7913   */\n      tag_290\n      jump\t// in\n    tag_323:\n        /* \"#utility.yul\":7888:7913   */\n      swap3\n      pop\n        /* \"#utility.yul\":7932:7933   */\n      dup3\n        /* \"#utility.yul\":7922:7957   */\n      tag_324\n      jumpi\n        /* \"#utility.yul\":7937:7955   */\n      tag_325\n      tag_326\n      jump\t// in\n    tag_325:\n        /* \"#utility.yul\":7922:7957   */\n    tag_324:\n        /* \"#utility.yul\":7979:7980   */\n      dup3\n        /* \"#utility.yul\":7976:7977   */\n      dup3\n        /* \"#utility.yul\":7972:7981   */\n      div\n        /* \"#utility.yul\":7967:7981   */\n      swap1\n      pop\n        /* \"#utility.yul\":7802:7987   */\n      swap3\n      swap2\n      pop\n      pop\n      jump\t// out\n        /* \"#utility.yul\":7993:8341   */\n    tag_122:\n        /* \"#utility.yul\":8033:8040   */\n      0x00\n        /* \"#utility.yul\":8056:8076   */\n      tag_328\n        /* \"#utility.yul\":8074:8075   */\n      dup3\n        /* \"#utility.yul\":8056:8076   */\n      tag_290\n      jump\t// in\n    tag_328:\n        /* \"#utility.yul\":8051:8076   */\n      swap2\n      pop\n        /* \"#utility.yul\":8090:8110   */\n      tag_329\n        /* \"#utility.yul\":8108:8109   */\n      dup4\n        /* \"#utility.yul\":8090:8110   */\n      tag_290\n      jump\t// in\n    tag_329:\n        /* \"#utility.yul\":8085:8110   */\n      swap3\n      pop\n        /* \"#utility.yul\":8278:8279   */\n      dup2\n        /* \"#utility.yul\":8210:8276   */\n      0xffffffffffffffffffffffffffffffffffffffffffffffffffffffffffffffff\n        /* \"#utility.yul\":8206:8280   */\n      div\n        /* \"#utility.yul\":8203:8204   */\n      dup4\n        /* \"#utility.yul\":8200:8281   */\n      gt\n        /* \"#utility.yul\":8195:8196   */\n      dup3\n        /* \"#utility.yul\":8188:8197   */\n      iszero\n        /* \"#utility.yul\":8181:8198   */\n      iszero\n        /* \"#utility.yul\":8177:8282   */\n      and\n        /* \"#utility.yul\":8174:8305   */\n      iszero\n      tag_330\n      jumpi\n        /* \"#utility.yul\":8285:8303   */\n      tag_331\n      tag_320\n      jump\t// in\n    tag_331:\n        /* \"#utility.yul\":8174:8305   */\n    tag_330:\n        /* \"#utility.yul\":8333:8334   */\n      dup3\n        /* \"#utility.yul\":8330:8331   */\n      dup3\n        /* \"#utility.yul\":8326:8335   */\n      mul\n        /* \"#utility.yul\":8315:8335   */\n      swap1\n      pop\n        /* \"#utility.yul\":7993:8341   */\n      swap3\n      swap2\n      pop\n      pop\n      jump\t// out\n        /* \"#utility.yul\":8347:8538   */\n    tag_115:\n        /* \"#utility.yul\":8387:8391   */\n      0x00\n        /* \"#utility.yul\":8407:8427   */\n      tag_333\n        /* \"#utility.yul\":8425:8426   */\n      dup3\n        /* \"#utility.yul\":8407:8427   */\n      tag_290\n      jump\t// in\n    tag_333:\n        /* \"#utility.yul\":8402:8427   */\n      swap2\n      pop\n        /* \"#utility.yul\":8441:8461   */\n      tag_334\n        /* \"#utility.yul\":8459:8460   */\n      dup4\n        /* \"#utility.yul\":8441:8461   */\n      tag_290\n      jump\t// in\n    tag_334:\n        /* \"#utility.yul\":8436:8461   */\n      swap3\n      pop\n        /* \"#utility.yul\":8480:8481   */\n      dup3\n        /* \"#utility.yul\":8477:8478   */\n      dup3\n        /* \"#utility.yul\":8474:8482   */\n      lt\n        /* \"#utility.yul\":8471:8505   */\n      iszero\n      tag_335\n      jumpi\n        /* \"#utility.yul\":8485:8503   */\n      tag_336\n      tag_320\n      jump\t// in\n    tag_336:\n        /* \"#utility.yul\":8471:8505   */\n    tag_335:\n        /* \"#utility.yul\":8530:8531   */\n      dup3\n        /* \"#utility.yul\":8527:8528   */\n      dup3\n        /* \"#utility.yul\":8523:8532   */\n      sub\n        /* \"#utility.yul\":8515:8532   */\n      swap1\n      pop\n        /* \"#utility.yul\":8347:8538   */\n      swap3\n      swap2\n      pop\n      pop\n      jump\t// out\n        /* \"#utility.yul\":8544:8640   */\n    tag_262:\n        /* \"#utility.yul\":8581:8588   */\n      0x00\n        /* \"#utility.yul\":8610:8634   */\n      tag_338\n        /* \"#utility.yul\":8628:8633   */\n      dup3\n        /* \"#utility.yul\":8610:8634   */\n      tag_339\n      jump\t// in\n    tag_338:\n        /* \"#utility.yul\":8599:8634   */\n      swap1\n      pop\n        /* \"#utility.yul\":8544:8640   */\n      swap2\n      swap1\n      pop\n      jump\t// out\n        /* \"#utility.yul\":8646:8736   */\n    tag_340:\n        /* \"#utility.yul\":8680:8687   */\n      0x00\n        /* \"#utility.yul\":8723:8728   */\n      dup2\n        /* \"#utility.yul\":8716:8729   */\n      iszero\n        /* \"#utility.yul\":8709:8730   */\n      iszero\n        /* \"#utility.yul\":8698:8730   */\n      swap1\n      pop\n        /* \"#utility.yul\":8646:8736   */\n      swap2\n      swap1\n      pop\n      jump\t// out\n        /* \"#utility.yul\":8742:8834   */\n    tag_270:\n        /* \"#utility.yul\":8778:8785   */\n      0x00\n        /* \"#utility.yul\":8822:8827   */\n      dup2\n        /* \"#utility.yul\":8818:8820   */\n      0x0f\n        /* \"#utility.yul\":8807:8828   */\n      signextend\n        /* \"#utility.yul\":8796:8828   */\n      swap1\n      pop\n        /* \"#utility.yul\":8742:8834   */\n      swap2\n      swap1\n      pop\n      jump\t// out\n        /* \"#utility.yul\":8840:8966   */\n    tag_339:\n        /* \"#utility.yul\":8877:8884   */\n      0x00\n        /* \"#utility.yul\":8917:8959   */\n      0xffffffffffffffffffffffffffffffffffffffff\n        /* \"#utility.yul\":8910:8915   */\n      dup3\n        /* \"#utility.yul\":8906:8960   */\n      and\n        /* \"#utility.yul\":8895:8960   */\n      swap1\n      pop\n        /* \"#utility.yul\":8840:8966   */\n      swap2\n      swap1\n      pop\n      jump\t// out\n        /* \"#utility.yul\":8972:9049   */\n    tag_290:\n        /* \"#utility.yul\":9009:9016   */\n      0x00\n        /* \"#utility.yul\":9038:9043   */\n      dup2\n        /* \"#utility.yul\":9027:9043   */\n      swap1\n      pop\n        /* \"#utility.yul\":8972:9049   */\n      swap2\n      swap1\n      pop\n      jump\t// out\n        /* \"#utility.yul\":9055:9194   */\n    tag_266:\n        /* \"#utility.yul\":9118:9127   */\n      0x00\n        /* \"#utility.yul\":9151:9188   */\n      tag_346\n        /* \"#utility.yul\":9182:9187   */\n      dup3\n        /* \"#utility.yul\":9151:9188   */\n      tag_347\n      jump\t// in\n    tag_346:\n        /* \"#utility.yul\":9138:9188   */\n      swap1\n      pop\n        /* \"#utility.yul\":9055:9194   */\n      swap2\n      swap1\n      pop\n      jump\t// out\n        /* \"#utility.yul\":9200:9326   */\n    tag_347:\n        /* \"#utility.yul\":9250:9259   */\n      0x00\n        /* \"#utility.yul\":9283:9320   */\n      tag_349\n        /* \"#utility.yul\":9314:9319   */\n      dup3\n        /* \"#utility.yul\":9283:9320   */\n      tag_350\n      jump\t// in\n    tag_349:\n        /* \"#utility.yul\":9270:9320   */\n      swap1\n      pop\n        /* \"#utility.yul\":9200:9326   */\n      swap2\n      swap1\n      pop\n      jump\t// out\n        /* \"#utility.yul\":9332:9445   */\n    tag_350:\n        /* \"#utility.yul\":9382:9391   */\n      0x00\n        /* \"#utility.yul\":9415:9439   */\n      tag_352\n        /* \"#utility.yul\":9433:9438   */\n      dup3\n        /* \"#utility.yul\":9415:9439   */\n      tag_339\n      jump\t// in\n    tag_352:\n        /* \"#utility.yul\":9402:9439   */\n      swap1\n      pop\n        /* \"#utility.yul\":9332:9445   */\n      swap2\n      swap1\n      pop\n      jump\t// out\n        /* \"#utility.yul\":9451:9631   */\n    tag_320:\n        /* \"#utility.yul\":9499:9576   */\n      0x4e487b7100000000000000000000000000000000000000000000000000000000\n        /* \"#utility.yul\":9496:9497   */\n      0x00\n        /* \"#utility.yul\":9489:9577   */\n      mstore\n        /* \"#utility.yul\":9596:9600   */\n      0x11\n        /* \"#utility.yul\":9593:9594   */\n      0x04\n        /* \"#utility.yul\":9586:9601   */\n      mstore\n        /* \"#utility.yul\":9620:9624   */\n      0x24\n        /* \"#utility.yul\":9617:9618   */\n      0x00\n        /* \"#utility.yul\":9610:9625   */\n      revert\n        /* \"#utility.yul\":9637:9817   */\n    tag_326:\n        /* \"#utility.yul\":9685:9762   */\n      0x4e487b7100000000000000000000000000000000000000000000000000000000\n        /* \"#utility.yul\":9682:9683   */\n      0x00\n        /* \"#utility.yul\":9675:9763   */\n      mstore\n        /* \"#utility.yul\":9782:9786   */\n      0x12\n        /* \"#utility.yul\":9779:9780   */\n      0x04\n        /* \"#utility.yul\":9772:9787   */\n      mstore\n        /* \"#utility.yul\":9806:9810   */\n      0x24\n        /* \"#utility.yul\":9803:9804   */\n      0x00\n        /* \"#utility.yul\":9796:9811   */\n      revert\n        /* \"#utility.yul\":9946:10063   */\n    tag_239:\n        /* \"#utility.yul\":10055:10056   */\n      0x00\n        /* \"#utility.yul\":10052:10053   */\n      dup1\n        /* \"#utility.yul\":10045:10057   */\n      revert\n        /* \"#utility.yul\":10069:10240   */\n    tag_276:\n        /* \"#utility.yul\":10209:10232   */\n      0x546f6b656e207472616e73666572206661696c65640000000000000000000000\n        /* \"#utility.yul\":10205:10206   */\n      0x00\n        /* \"#utility.yul\":10197:10203   */\n      dup3\n        /* \"#utility.yul\":10193:10207   */\n      add\n        /* \"#utility.yul\":10186:10233   */\n      mstore\n        /* \"#utility.yul\":10069:10240   */\n      pop\n      jump\t// out\n        /* \"#utility.yul\":10246:10422   */\n    tag_281:\n        /* \"#utility.yul\":10386:10414   */\n      0x596f7520646f6e742068617665207468617420616d6f756e7421000000000000\n        /* \"#utility.yul\":10382:10383   */\n      0x00\n        /* \"#utility.yul\":10374:10380   */\n      dup3\n        /* \"#utility.yul\":10370:10384   */\n      add\n        /* \"#utility.yul\":10363:10415   */\n      mstore\n        /* \"#utility.yul\":10246:10422   */\n      pop\n      jump\t// out\n        /* \"#utility.yul\":10428:10648   */\n    tag_286:\n        /* \"#utility.yul\":10568:10602   */\n      0x75696e74206f766572666c6f772066726f6d206d756c7469706c69636174696f\n        /* \"#utility.yul\":10564:10565   */\n      0x00\n        /* \"#utility.yul\":10556:10562   */\n      dup3\n        /* \"#utility.yul\":10552:10566   */\n      add\n        /* \"#utility.yul\":10545:10603   */\n      mstore\n        /* \"#utility.yul\":10637:10640   */\n      0x6e00000000000000000000000000000000000000000000000000000000000000\n        /* \"#utility.yul\":10632:10634   */\n      0x20\n        /* \"#utility.yul\":10624:10630   */\n      dup3\n        /* \"#utility.yul\":10620:10635   */\n      add\n        /* \"#utility.yul\":10613:10641   */\n      mstore\n        /* \"#utility.yul\":10428:10648   */\n      pop\n      jump\t// out\n        /* \"#utility.yul\":10654:10776   */\n    tag_224:\n        /* \"#utility.yul\":10727:10751   */\n      tag_362\n        /* \"#utility.yul\":10745:10750   */\n      dup2\n        /* \"#utility.yul\":10727:10751   */\n      tag_262\n      jump\t// in\n    tag_362:\n        /* \"#utility.yul\":10720:10725   */\n      dup2\n        /* \"#utility.yul\":10717:10752   */\n      eq\n        /* \"#utility.yul\":10707:10770   */\n      tag_363\n      jumpi\n        /* \"#utility.yul\":10766:10767   */\n      0x00\n        /* \"#utility.yul\":10763:10764   */\n      dup1\n        /* \"#utility.yul\":10756:10768   */\n      revert\n        /* \"#utility.yul\":10707:10770   */\n    tag_363:\n        /* \"#utility.yul\":10654:10776   */\n      pop\n      jump\t// out\n        /* \"#utility.yul\":10782:10898   */\n    tag_228:\n        /* \"#utility.yul\":10852:10873   */\n      tag_365\n        /* \"#utility.yul\":10867:10872   */\n      dup2\n        /* \"#utility.yul\":10852:10873   */\n      tag_340\n      jump\t// in\n    tag_365:\n        /* \"#utility.yul\":10845:10850   */\n      dup2\n        /* \"#utility.yul\":10842:10874   */\n      eq\n        /* \"#utility.yul\":10832:10892   */\n      tag_366\n      jumpi\n        /* \"#utility.yul\":10888:10889   */\n      0x00\n        /* \"#utility.yul\":10885:10886   */\n      dup1\n        /* \"#utility.yul\":10878:10890   */\n      revert\n        /* \"#utility.yul\":10832:10892   */\n    tag_366:\n        /* \"#utility.yul\":10782:10898   */\n      pop\n      jump\t// out\n        /* \"#utility.yul\":10904:11026   */\n    tag_232:\n        /* \"#utility.yul\":10977:11001   */\n      tag_368\n        /* \"#utility.yul\":10995:11000   */\n      dup2\n        /* \"#utility.yul\":10977:11001   */\n      tag_290\n      jump\t// in\n    tag_368:\n        /* \"#utility.yul\":10970:10975   */\n      dup2\n        /* \"#utility.yul\":10967:11002   */\n      eq\n        /* \"#utility.yul\":10957:11020   */\n      tag_369\n      jumpi\n        /* \"#utility.yul\":11016:11017   */\n      0x00\n        /* \"#utility.yul\":11013:11014   */\n      dup1\n        /* \"#utility.yul\":11006:11018   */\n      revert\n        /* \"#utility.yul\":10957:11020   */\n    tag_369:\n        /* \"#utility.yul\":10904:11026   */\n      pop\n      jump\t// out\n\n    auxdata: 0xa2646970667358221220e879d6ef8c90b37b91ee8765de452838c04a699c18ed7150fda253a0b4acf50664736f6c63430008070033\n}\n",
				"bytecode": {
					"linkReferences": {},
					"object": "6080604052670de0b6b3a76400006207a1206200001d9190620004b9565b600955620186a0600b5562015f90600c55620927c0600d5573617f2e2fd72fd9d5503197092ac168c91465e7f2600f60006101000a81548173ffffffffffffffffffffffffffffffffffffffff021916908373ffffffffffffffffffffffffffffffffffffffff1602179055503480156200009757600080fd5b5060405162001b9838038062001b988339818101604052810190620000bd919062000383565b80601260006101000a81548173ffffffffffffffffffffffffffffffffffffffff021916908373ffffffffffffffffffffffffffffffffffffffff16021790555081601060006101000a81548173ffffffffffffffffffffffffffffffffffffffff021916908373ffffffffffffffffffffffffffffffffffffffff16021790555073d7acd2a9fd159e69bb102a1ca21c9a3e3a5f771b601160006101000a81548173ffffffffffffffffffffffffffffffffffffffff021916908373ffffffffffffffffffffffffffffffffffffffff16021790555073617f2e2fd72fd9d5503197092ac168c91465e7f2600660006101000a81548173ffffffffffffffffffffffffffffffffffffffff021916908373ffffffffffffffffffffffffffffffffffffffff160217905550620001ff600b54600d546200023060201b60201c565b6000819055506200021b600c54600d546200023060201b60201c565b60018190555042600a81905550505062000624565b6000806200024d84670de0b6b3a76400006200028560201b60201c565b905082620002708260028662000264919062000481565b6200030960201b60201c565b6200027c919062000481565b91505092915050565b6000808314156200029a576000905062000303565b60008284620002aa9190620004b9565b9050828482620002bb919062000481565b14620002fe576040517f08c379a0000000000000000000000000000000000000000000000000000000008152600401620002f590620003f1565b60405180910390fd5b809150505b92915050565b60008082846200031a919062000424565b90508381101562000362576040517f08c379a00000000000000000000000000000000000000000000000000000000081526004016200035990620003f1565b60405180910390fd5b8091505092915050565b6000815190506200037d816200060a565b92915050565b600080604083850312156200039d576200039c620005b6565b5b6000620003ad858286016200036c565b9250506020620003c0858286016200036c565b9150509250929050565b6000620003d960218362000413565b9150620003e682620005bb565b604082019050919050565b600060208201905081810360008301526200040c81620003ca565b9050919050565b600082825260208201905092915050565b600062000431826200054e565b91506200043e836200054e565b9250827fffffffffffffffffffffffffffffffffffffffffffffffffffffffffffffffff0382111562000476576200047562000558565b5b828201905092915050565b60006200048e826200054e565b91506200049b836200054e565b925082620004ae57620004ad62000587565b5b828204905092915050565b6000620004c6826200054e565b9150620004d3836200054e565b9250817fffffffffffffffffffffffffffffffffffffffffffffffffffffffffffffffff04831182151516156200050f576200050e62000558565b5b828202905092915050565b600062000527826200052e565b9050919050565b600073ffffffffffffffffffffffffffffffffffffffff82169050919050565b6000819050919050565b7f4e487b7100000000000000000000000000000000000000000000000000000000600052601160045260246000fd5b7f4e487b7100000000000000000000000000000000000000000000000000000000600052601260045260246000fd5b600080fd5b7f75696e74206f766572666c6f772066726f6d206d756c7469706c69636174696f60008201527f6e00000000000000000000000000000000000000000000000000000000000000602082015250565b62000615816200051a565b81146200062157600080fd5b50565b61156480620006346000396000f3fe60806040526004361061011f5760003560e01c80636f10e285116100a0578063ee546a5111610064578063ee546a511461039b578063ee620868146103d8578063eee05f5e14610403578063f7523c521461042e578063fbbb45891461046b5761011f565b80636f10e285146102d3578063c079d7f6146102fe578063cbff461714610329578063daa3a4a414610354578063ee467678146103705761011f565b80633c6eb17a116100e75780633c6eb17a146101f957806343d32e9c1461022457806364ce07d81461024f57806365819f7e1461028c5780636e05c1b9146102a85761011f565b8063018a25e814610124578063047729b01461014f5780631f564a061461017a5780632934b237146101a557806335453307146101ce575b600080fd5b34801561013057600080fd5b50610139610496565b6040516101469190611219565b60405180910390f35b34801561015b57600080fd5b5061016461054e565b6040516101719190611108565b60405180910390f35b34801561018657600080fd5b5061018f610574565b60405161019c9190611219565b60405180910390f35b3480156101b157600080fd5b506101cc60048036038101906101c79190610fc9565b610628565b005b3480156101da57600080fd5b506101e36106ba565b6040516101f09190611219565b60405180910390f35b34801561020557600080fd5b5061020e6106c0565b60405161021b9190611219565b60405180910390f35b34801561023057600080fd5b506102396106c6565b6040516102469190611219565b60405180910390f35b34801561025b57600080fd5b5061027660048036038101906102719190611023565b610796565b6040516102839190611219565b60405180910390f35b6102a660048036038101906102a19190610fc9565b6107d7565b005b3480156102b457600080fd5b506102bd6109aa565b6040516102ca9190611183565b60405180910390f35b3480156102df57600080fd5b506102e86109d0565b6040516102f5919061119e565b60405180910390f35b34801561030a57600080fd5b506103136109e3565b6040516103209190611108565b60405180910390f35b34801561033557600080fd5b5061033e610a09565b60405161034b9190611219565b60405180910390f35b61036e60048036038101906103699190610fc9565b610a0f565b005b34801561037c57600080fd5b50610385610c01565b6040516103929190611183565b60405180910390f35b3480156103a757600080fd5b506103c260048036038101906103bd9190610f5c565b610c27565b6040516103cf9190611219565b60405180910390f35b3480156103e457600080fd5b506103ed610cba565b6040516103fa9190611219565b60405180910390f35b34801561040f57600080fd5b50610418610cc0565b6040516104259190611108565b60405180910390f35b34801561043a57600080fd5b5061045560048036038101906104509190611023565b610ce6565b6040516104629190611219565b60405180910390f35b34801561047757600080fd5b50610480610d2f565b60405161048d9190611108565b60405180910390f35b6000670de0b6b3a7640000600154670c7d713b49da00006104b79190611326565b3073ffffffffffffffffffffffffffffffffffffffff16631f564a066040518163ffffffff1660e01b815260040160206040518083038186803b1580156104fd57600080fd5b505afa158015610511573d6000803e3d6000fd5b505050506040513d601f19601f820116820180604052508101906105359190610ff6565b61053f91906112cc565b610549919061129b565b905090565b600860009054906101000a900473ffffffffffffffffffffffffffffffffffffffff1681565b6000601060009054906101000a900473ffffffffffffffffffffffffffffffffffffffff1673ffffffffffffffffffffffffffffffffffffffff166318160ddd6040518163ffffffff1660e01b815260040160206040518083038186803b1580156105de57600080fd5b505afa1580156105f2573d6000803e3d6000fd5b505050506040513d601f19601f820116820180604052508101906106169190610ff6565b600954610623919061129b565b905090565b601260009054906101000a900473ffffffffffffffffffffffffffffffffffffffff1673ffffffffffffffffffffffffffffffffffffffff166340c10f1933836040518363ffffffff1660e01b815260040161068592919061115a565b600060405180830381600087803b15801561069f57600080fd5b505af11580156106b3573d6000803e3d6000fd5b5050505050565b60095481565b600a5481565b6000670de0b6b3a76400006005670de0b6b3a764000060066106e891906112cc565b6106f2919061129b565b6000546106ff9190611245565b3073ffffffffffffffffffffffffffffffffffffffff16631f564a066040518163ffffffff1660e01b815260040160206040518083038186803b15801561074557600080fd5b505afa158015610759573d6000803e3d6000fd5b505050506040513d601f19601f8201168201806040525081019061077d9190610ff6565b61078791906112cc565b610791919061129b565b905090565b6000806107ab84670de0b6b3a7640000610d55565b9050826107c4826002866107bf919061129b565b610dd0565b6107ce919061129b565b91505092915050565b6000601160009054906101000a900473ffffffffffffffffffffffffffffffffffffffff1673ffffffffffffffffffffffffffffffffffffffff166370a08231336040518263ffffffff1660e01b81526004016108349190611108565b60206040518083038186803b15801561084c57600080fd5b505afa158015610860573d6000803e3d6000fd5b505050506040513d601f19601f820116820180604052508101906108849190610ff6565b90508181116108c8576040517f08c379a00000000000000000000000000000000000000000000000000000000081526004016108bf906111d9565b60405180910390fd5b601060009054906101000a900473ffffffffffffffffffffffffffffffffffffffff1673ffffffffffffffffffffffffffffffffffffffff1663a9059cbb33846040518363ffffffff1660e01b815260040161092592919061115a565b602060405180830381600087803b15801561093f57600080fd5b505af1158015610953573d6000803e3d6000fd5b505050506040513d601f19601f820116820180604052508101906109779190610f9c565b506109a6601160009054906101000a900473ffffffffffffffffffffffffffffffffffffffff16333085610e2e565b5050565b601060009054906101000a900473ffffffffffffffffffffffffffffffffffffffff1681565b600e60009054906101000a9004600f0b81565b600760009054906101000a900473ffffffffffffffffffffffffffffffffffffffff1681565b60015481565b6000601060009054906101000a900473ffffffffffffffffffffffffffffffffffffffff1673ffffffffffffffffffffffffffffffffffffffff166370a08231336040518263ffffffff1660e01b8152600401610a6c9190611108565b60206040518083038186803b158015610a8457600080fd5b505afa158015610a98573d6000803e3d6000fd5b505050506040513d601f19601f82011682018060405250810190610abc9190610ff6565b9050818111610b00576040517f08c379a0000000000000000000000000000000000000000000000000000000008152600401610af7906111d9565b60405180910390fd5b601160009054906101000a900473ffffffffffffffffffffffffffffffffffffffff1673ffffffffffffffffffffffffffffffffffffffff1663a9059cbb33670de0b6b3a76400006001610b5491906112cc565b85610b5f9190611245565b6040518363ffffffff1660e01b8152600401610b7c92919061115a565b602060405180830381600087803b158015610b9657600080fd5b505af1158015610baa573d6000803e3d6000fd5b505050506040513d601f19601f82011682018060405250810190610bce9190610f9c565b50610bfd601060009054906101000a900473ffffffffffffffffffffffffffffffffffffffff16333085610e2e565b5050565b601160009054906101000a900473ffffffffffffffffffffffffffffffffffffffff1681565b60008273ffffffffffffffffffffffffffffffffffffffff166370a08231836040518263ffffffff1660e01b8152600401610c629190611108565b60206040518083038186803b158015610c7a57600080fd5b505afa158015610c8e573d6000803e3d6000fd5b505050506040513d601f19601f82011682018060405250810190610cb29190610ff6565b905092915050565b60005481565b600f60009054906101000a900473ffffffffffffffffffffffffffffffffffffffff1681565b600080610cf38484610d55565b9050670de0b6b3a7640000610d1c826002670de0b6b3a7640000610d17919061129b565b610dd0565b610d26919061129b565b91505092915050565b600660009054906101000a900473ffffffffffffffffffffffffffffffffffffffff1681565b600080831415610d685760009050610dca565b60008284610d7691906112cc565b9050828482610d85919061129b565b14610dc5576040517f08c379a0000000000000000000000000000000000000000000000000000000008152600401610dbc906111f9565b60405180910390fd5b809150505b92915050565b6000808284610ddf9190611245565b905083811015610e24576040517f08c379a0000000000000000000000000000000000000000000000000000000008152600401610e1b906111f9565b60405180910390fd5b8091505092915050565b60008473ffffffffffffffffffffffffffffffffffffffff166323b872dd8585856040518463ffffffff1660e01b8152600401610e6d93929190611123565b602060405180830381600087803b158015610e8757600080fd5b505af1158015610e9b573d6000803e3d6000fd5b505050506040513d601f19601f82011682018060405250810190610ebf9190610f9c565b905080610f01576040517f08c379a0000000000000000000000000000000000000000000000000000000008152600401610ef8906111b9565b60405180910390fd5b5050505050565b600081359050610f17816114e9565b92915050565b600081519050610f2c81611500565b92915050565b600081359050610f4181611517565b92915050565b600081519050610f5681611517565b92915050565b60008060408385031215610f7357610f72611443565b5b6000610f8185828601610f08565b9250506020610f9285828601610f08565b9150509250929050565b600060208284031215610fb257610fb1611443565b5b6000610fc084828501610f1d565b91505092915050565b600060208284031215610fdf57610fde611443565b5b6000610fed84828501610f32565b91505092915050565b60006020828403121561100c5761100b611443565b5b600061101a84828501610f47565b91505092915050565b6000806040838503121561103a57611039611443565b5b600061104885828601610f32565b925050602061105985828601610f32565b9150509250929050565b61106c8161135a565b82525050565b61107b816113af565b82525050565b61108a81611378565b82525050565b600061109d601583611234565b91506110a882611448565b602082019050919050565b60006110c0601a83611234565b91506110cb82611471565b602082019050919050565b60006110e3602183611234565b91506110ee8261149a565b604082019050919050565b611102816113a5565b82525050565b600060208201905061111d6000830184611063565b92915050565b60006060820190506111386000830186611063565b6111456020830185611063565b61115260408301846110f9565b949350505050565b600060408201905061116f6000830185611063565b61117c60208301846110f9565b9392505050565b60006020820190506111986000830184611072565b92915050565b60006020820190506111b36000830184611081565b92915050565b600060208201905081810360008301526111d281611090565b9050919050565b600060208201905081810360008301526111f2816110b3565b9050919050565b60006020820190508181036000830152611212816110d6565b9050919050565b600060208201905061122e60008301846110f9565b92915050565b600082825260208201905092915050565b6000611250826113a5565b915061125b836113a5565b9250827fffffffffffffffffffffffffffffffffffffffffffffffffffffffffffffffff038211156112905761128f6113e5565b5b828201905092915050565b60006112a6826113a5565b91506112b1836113a5565b9250826112c1576112c0611414565b5b828204905092915050565b60006112d7826113a5565b91506112e2836113a5565b9250817fffffffffffffffffffffffffffffffffffffffffffffffffffffffffffffffff048311821515161561131b5761131a6113e5565b5b828202905092915050565b6000611331826113a5565b915061133c836113a5565b92508282101561134f5761134e6113e5565b5b828203905092915050565b600061136582611385565b9050919050565b60008115159050919050565b600081600f0b9050919050565b600073ffffffffffffffffffffffffffffffffffffffff82169050919050565b6000819050919050565b60006113ba826113c1565b9050919050565b60006113cc826113d3565b9050919050565b60006113de82611385565b9050919050565b7f4e487b7100000000000000000000000000000000000000000000000000000000600052601160045260246000fd5b7f4e487b7100000000000000000000000000000000000000000000000000000000600052601260045260246000fd5b600080fd5b7f546f6b656e207472616e73666572206661696c65640000000000000000000000600082015250565b7f596f7520646f6e742068617665207468617420616d6f756e7421000000000000600082015250565b7f75696e74206f766572666c6f772066726f6d206d756c7469706c69636174696f60008201527f6e00000000000000000000000000000000000000000000000000000000000000602082015250565b6114f28161135a565b81146114fd57600080fd5b50565b6115098161136c565b811461151457600080fd5b50565b611520816113a5565b811461152b57600080fd5b5056fea2646970667358221220e879d6ef8c90b37b91ee8765de452838c04a699c18ed7150fda253a0b4acf50664736f6c63430008070033",
					"opcodes": "PUSH1 0x80 PUSH1 0x40 MSTORE PUSH8 0xDE0B6B3A7640000 PUSH3 0x7A120 PUSH3 0x1D SWAP2 SWAP1 PUSH3 0x4B9 JUMP JUMPDEST PUSH1 0x9 SSTORE PUSH3 0x186A0 PUSH1 0xB SSTORE PUSH3 0x15F90 PUSH1 0xC SSTORE PUSH3 0x927C0 PUSH1 0xD SSTORE PUSH20 0x617F2E2FD72FD9D5503197092AC168C91465E7F2 PUSH1 0xF PUSH1 0x0 PUSH2 0x100 EXP DUP2 SLOAD DUP2 PUSH20 0xFFFFFFFFFFFFFFFFFFFFFFFFFFFFFFFFFFFFFFFF MUL NOT AND SWAP1 DUP4 PUSH20 0xFFFFFFFFFFFFFFFFFFFFFFFFFFFFFFFFFFFFFFFF AND MUL OR SWAP1 SSTORE POP CALLVALUE DUP1 ISZERO PUSH3 0x97 JUMPI PUSH1 0x0 DUP1 REVERT JUMPDEST POP PUSH1 0x40 MLOAD PUSH3 0x1B98 CODESIZE SUB DUP1 PUSH3 0x1B98 DUP4 CODECOPY DUP2 DUP2 ADD PUSH1 0x40 MSTORE DUP2 ADD SWAP1 PUSH3 0xBD SWAP2 SWAP1 PUSH3 0x383 JUMP JUMPDEST DUP1 PUSH1 0x12 PUSH1 0x0 PUSH2 0x100 EXP DUP2 SLOAD DUP2 PUSH20 0xFFFFFFFFFFFFFFFFFFFFFFFFFFFFFFFFFFFFFFFF MUL NOT AND SWAP1 DUP4 PUSH20 0xFFFFFFFFFFFFFFFFFFFFFFFFFFFFFFFFFFFFFFFF AND MUL OR SWAP1 SSTORE POP DUP2 PUSH1 0x10 PUSH1 0x0 PUSH2 0x100 EXP DUP2 SLOAD DUP2 PUSH20 0xFFFFFFFFFFFFFFFFFFFFFFFFFFFFFFFFFFFFFFFF MUL NOT AND SWAP1 DUP4 PUSH20 0xFFFFFFFFFFFFFFFFFFFFFFFFFFFFFFFFFFFFFFFF AND MUL OR SWAP1 SSTORE POP PUSH20 0xD7ACD2A9FD159E69BB102A1CA21C9A3E3A5F771B PUSH1 0x11 PUSH1 0x0 PUSH2 0x100 EXP DUP2 SLOAD DUP2 PUSH20 0xFFFFFFFFFFFFFFFFFFFFFFFFFFFFFFFFFFFFFFFF MUL NOT AND SWAP1 DUP4 PUSH20 0xFFFFFFFFFFFFFFFFFFFFFFFFFFFFFFFFFFFFFFFF AND MUL OR SWAP1 SSTORE POP PUSH20 0x617F2E2FD72FD9D5503197092AC168C91465E7F2 PUSH1 0x6 PUSH1 0x0 PUSH2 0x100 EXP DUP2 SLOAD DUP2 PUSH20 0xFFFFFFFFFFFFFFFFFFFFFFFFFFFFFFFFFFFFFFFF MUL NOT AND SWAP1 DUP4 PUSH20 0xFFFFFFFFFFFFFFFFFFFFFFFFFFFFFFFFFFFFFFFF AND MUL OR SWAP1 SSTORE POP PUSH3 0x1FF PUSH1 0xB SLOAD PUSH1 0xD SLOAD PUSH3 0x230 PUSH1 0x20 SHL PUSH1 0x20 SHR JUMP JUMPDEST PUSH1 0x0 DUP2 SWAP1 SSTORE POP PUSH3 0x21B PUSH1 0xC SLOAD PUSH1 0xD SLOAD PUSH3 0x230 PUSH1 0x20 SHL PUSH1 0x20 SHR JUMP JUMPDEST PUSH1 0x1 DUP2 SWAP1 SSTORE POP TIMESTAMP PUSH1 0xA DUP2 SWAP1 SSTORE POP POP POP PUSH3 0x624 JUMP JUMPDEST PUSH1 0x0 DUP1 PUSH3 0x24D DUP5 PUSH8 0xDE0B6B3A7640000 PUSH3 0x285 PUSH1 0x20 SHL PUSH1 0x20 SHR JUMP JUMPDEST SWAP1 POP DUP3 PUSH3 0x270 DUP3 PUSH1 0x2 DUP7 PUSH3 0x264 SWAP2 SWAP1 PUSH3 0x481 JUMP JUMPDEST PUSH3 0x309 PUSH1 0x20 SHL PUSH1 0x20 SHR JUMP JUMPDEST PUSH3 0x27C SWAP2 SWAP1 PUSH3 0x481 JUMP JUMPDEST SWAP2 POP POP SWAP3 SWAP2 POP POP JUMP JUMPDEST PUSH1 0x0 DUP1 DUP4 EQ ISZERO PUSH3 0x29A JUMPI PUSH1 0x0 SWAP1 POP PUSH3 0x303 JUMP JUMPDEST PUSH1 0x0 DUP3 DUP5 PUSH3 0x2AA SWAP2 SWAP1 PUSH3 0x4B9 JUMP JUMPDEST SWAP1 POP DUP3 DUP5 DUP3 PUSH3 0x2BB SWAP2 SWAP1 PUSH3 0x481 JUMP JUMPDEST EQ PUSH3 0x2FE JUMPI PUSH1 0x40 MLOAD PUSH32 0x8C379A000000000000000000000000000000000000000000000000000000000 DUP2 MSTORE PUSH1 0x4 ADD PUSH3 0x2F5 SWAP1 PUSH3 0x3F1 JUMP JUMPDEST PUSH1 0x40 MLOAD DUP1 SWAP2 SUB SWAP1 REVERT JUMPDEST DUP1 SWAP2 POP POP JUMPDEST SWAP3 SWAP2 POP POP JUMP JUMPDEST PUSH1 0x0 DUP1 DUP3 DUP5 PUSH3 0x31A SWAP2 SWAP1 PUSH3 0x424 JUMP JUMPDEST SWAP1 POP DUP4 DUP2 LT ISZERO PUSH3 0x362 JUMPI PUSH1 0x40 MLOAD PUSH32 0x8C379A000000000000000000000000000000000000000000000000000000000 DUP2 MSTORE PUSH1 0x4 ADD PUSH3 0x359 SWAP1 PUSH3 0x3F1 JUMP JUMPDEST PUSH1 0x40 MLOAD DUP1 SWAP2 SUB SWAP1 REVERT JUMPDEST DUP1 SWAP2 POP POP SWAP3 SWAP2 POP POP JUMP JUMPDEST PUSH1 0x0 DUP2 MLOAD SWAP1 POP PUSH3 0x37D DUP2 PUSH3 0x60A JUMP JUMPDEST SWAP3 SWAP2 POP POP JUMP JUMPDEST PUSH1 0x0 DUP1 PUSH1 0x40 DUP4 DUP6 SUB SLT ISZERO PUSH3 0x39D JUMPI PUSH3 0x39C PUSH3 0x5B6 JUMP JUMPDEST JUMPDEST PUSH1 0x0 PUSH3 0x3AD DUP6 DUP3 DUP7 ADD PUSH3 0x36C JUMP JUMPDEST SWAP3 POP POP PUSH1 0x20 PUSH3 0x3C0 DUP6 DUP3 DUP7 ADD PUSH3 0x36C JUMP JUMPDEST SWAP2 POP POP SWAP3 POP SWAP3 SWAP1 POP JUMP JUMPDEST PUSH1 0x0 PUSH3 0x3D9 PUSH1 0x21 DUP4 PUSH3 0x413 JUMP JUMPDEST SWAP2 POP PUSH3 0x3E6 DUP3 PUSH3 0x5BB JUMP JUMPDEST PUSH1 0x40 DUP3 ADD SWAP1 POP SWAP2 SWAP1 POP JUMP JUMPDEST PUSH1 0x0 PUSH1 0x20 DUP3 ADD SWAP1 POP DUP2 DUP2 SUB PUSH1 0x0 DUP4 ADD MSTORE PUSH3 0x40C DUP2 PUSH3 0x3CA JUMP JUMPDEST SWAP1 POP SWAP2 SWAP1 POP JUMP JUMPDEST PUSH1 0x0 DUP3 DUP3 MSTORE PUSH1 0x20 DUP3 ADD SWAP1 POP SWAP3 SWAP2 POP POP JUMP JUMPDEST PUSH1 0x0 PUSH3 0x431 DUP3 PUSH3 0x54E JUMP JUMPDEST SWAP2 POP PUSH3 0x43E DUP4 PUSH3 0x54E JUMP JUMPDEST SWAP3 POP DUP3 PUSH32 0xFFFFFFFFFFFFFFFFFFFFFFFFFFFFFFFFFFFFFFFFFFFFFFFFFFFFFFFFFFFFFFFF SUB DUP3 GT ISZERO PUSH3 0x476 JUMPI PUSH3 0x475 PUSH3 0x558 JUMP JUMPDEST JUMPDEST DUP3 DUP3 ADD SWAP1 POP SWAP3 SWAP2 POP POP JUMP JUMPDEST PUSH1 0x0 PUSH3 0x48E DUP3 PUSH3 0x54E JUMP JUMPDEST SWAP2 POP PUSH3 0x49B DUP4 PUSH3 0x54E JUMP JUMPDEST SWAP3 POP DUP3 PUSH3 0x4AE JUMPI PUSH3 0x4AD PUSH3 0x587 JUMP JUMPDEST JUMPDEST DUP3 DUP3 DIV SWAP1 POP SWAP3 SWAP2 POP POP JUMP JUMPDEST PUSH1 0x0 PUSH3 0x4C6 DUP3 PUSH3 0x54E JUMP JUMPDEST SWAP2 POP PUSH3 0x4D3 DUP4 PUSH3 0x54E JUMP JUMPDEST SWAP3 POP DUP2 PUSH32 0xFFFFFFFFFFFFFFFFFFFFFFFFFFFFFFFFFFFFFFFFFFFFFFFFFFFFFFFFFFFFFFFF DIV DUP4 GT DUP3 ISZERO ISZERO AND ISZERO PUSH3 0x50F JUMPI PUSH3 0x50E PUSH3 0x558 JUMP JUMPDEST JUMPDEST DUP3 DUP3 MUL SWAP1 POP SWAP3 SWAP2 POP POP JUMP JUMPDEST PUSH1 0x0 PUSH3 0x527 DUP3 PUSH3 0x52E JUMP JUMPDEST SWAP1 POP SWAP2 SWAP1 POP JUMP JUMPDEST PUSH1 0x0 PUSH20 0xFFFFFFFFFFFFFFFFFFFFFFFFFFFFFFFFFFFFFFFF DUP3 AND SWAP1 POP SWAP2 SWAP1 POP JUMP JUMPDEST PUSH1 0x0 DUP2 SWAP1 POP SWAP2 SWAP1 POP JUMP JUMPDEST PUSH32 0x4E487B7100000000000000000000000000000000000000000000000000000000 PUSH1 0x0 MSTORE PUSH1 0x11 PUSH1 0x4 MSTORE PUSH1 0x24 PUSH1 0x0 REVERT JUMPDEST PUSH32 0x4E487B7100000000000000000000000000000000000000000000000000000000 PUSH1 0x0 MSTORE PUSH1 0x12 PUSH1 0x4 MSTORE PUSH1 0x24 PUSH1 0x0 REVERT JUMPDEST PUSH1 0x0 DUP1 REVERT JUMPDEST PUSH32 0x75696E74206F766572666C6F772066726F6D206D756C7469706C69636174696F PUSH1 0x0 DUP3 ADD MSTORE PUSH32 0x6E00000000000000000000000000000000000000000000000000000000000000 PUSH1 0x20 DUP3 ADD MSTORE POP JUMP JUMPDEST PUSH3 0x615 DUP2 PUSH3 0x51A JUMP JUMPDEST DUP2 EQ PUSH3 0x621 JUMPI PUSH1 0x0 DUP1 REVERT JUMPDEST POP JUMP JUMPDEST PUSH2 0x1564 DUP1 PUSH3 0x634 PUSH1 0x0 CODECOPY PUSH1 0x0 RETURN INVALID PUSH1 0x80 PUSH1 0x40 MSTORE PUSH1 0x4 CALLDATASIZE LT PUSH2 0x11F JUMPI PUSH1 0x0 CALLDATALOAD PUSH1 0xE0 SHR DUP1 PUSH4 0x6F10E285 GT PUSH2 0xA0 JUMPI DUP1 PUSH4 0xEE546A51 GT PUSH2 0x64 JUMPI DUP1 PUSH4 0xEE546A51 EQ PUSH2 0x39B JUMPI DUP1 PUSH4 0xEE620868 EQ PUSH2 0x3D8 JUMPI DUP1 PUSH4 0xEEE05F5E EQ PUSH2 0x403 JUMPI DUP1 PUSH4 0xF7523C52 EQ PUSH2 0x42E JUMPI DUP1 PUSH4 0xFBBB4589 EQ PUSH2 0x46B JUMPI PUSH2 0x11F JUMP JUMPDEST DUP1 PUSH4 0x6F10E285 EQ PUSH2 0x2D3 JUMPI DUP1 PUSH4 0xC079D7F6 EQ PUSH2 0x2FE JUMPI DUP1 PUSH4 0xCBFF4617 EQ PUSH2 0x329 JUMPI DUP1 PUSH4 0xDAA3A4A4 EQ PUSH2 0x354 JUMPI DUP1 PUSH4 0xEE467678 EQ PUSH2 0x370 JUMPI PUSH2 0x11F JUMP JUMPDEST DUP1 PUSH4 0x3C6EB17A GT PUSH2 0xE7 JUMPI DUP1 PUSH4 0x3C6EB17A EQ PUSH2 0x1F9 JUMPI DUP1 PUSH4 0x43D32E9C EQ PUSH2 0x224 JUMPI DUP1 PUSH4 0x64CE07D8 EQ PUSH2 0x24F JUMPI DUP1 PUSH4 0x65819F7E EQ PUSH2 0x28C JUMPI DUP1 PUSH4 0x6E05C1B9 EQ PUSH2 0x2A8 JUMPI PUSH2 0x11F JUMP JUMPDEST DUP1 PUSH4 0x18A25E8 EQ PUSH2 0x124 JUMPI DUP1 PUSH4 0x47729B0 EQ PUSH2 0x14F JUMPI DUP1 PUSH4 0x1F564A06 EQ PUSH2 0x17A JUMPI DUP1 PUSH4 0x2934B237 EQ PUSH2 0x1A5 JUMPI DUP1 PUSH4 0x35453307 EQ PUSH2 0x1CE JUMPI JUMPDEST PUSH1 0x0 DUP1 REVERT JUMPDEST CALLVALUE DUP1 ISZERO PUSH2 0x130 JUMPI PUSH1 0x0 DUP1 REVERT JUMPDEST POP PUSH2 0x139 PUSH2 0x496 JUMP JUMPDEST PUSH1 0x40 MLOAD PUSH2 0x146 SWAP2 SWAP1 PUSH2 0x1219 JUMP JUMPDEST PUSH1 0x40 MLOAD DUP1 SWAP2 SUB SWAP1 RETURN JUMPDEST CALLVALUE DUP1 ISZERO PUSH2 0x15B JUMPI PUSH1 0x0 DUP1 REVERT JUMPDEST POP PUSH2 0x164 PUSH2 0x54E JUMP JUMPDEST PUSH1 0x40 MLOAD PUSH2 0x171 SWAP2 SWAP1 PUSH2 0x1108 JUMP JUMPDEST PUSH1 0x40 MLOAD DUP1 SWAP2 SUB SWAP1 RETURN JUMPDEST CALLVALUE DUP1 ISZERO PUSH2 0x186 JUMPI PUSH1 0x0 DUP1 REVERT JUMPDEST POP PUSH2 0x18F PUSH2 0x574 JUMP JUMPDEST PUSH1 0x40 MLOAD PUSH2 0x19C SWAP2 SWAP1 PUSH2 0x1219 JUMP JUMPDEST PUSH1 0x40 MLOAD DUP1 SWAP2 SUB SWAP1 RETURN JUMPDEST CALLVALUE DUP1 ISZERO PUSH2 0x1B1 JUMPI PUSH1 0x0 DUP1 REVERT JUMPDEST POP PUSH2 0x1CC PUSH1 0x4 DUP1 CALLDATASIZE SUB DUP2 ADD SWAP1 PUSH2 0x1C7 SWAP2 SWAP1 PUSH2 0xFC9 JUMP JUMPDEST PUSH2 0x628 JUMP JUMPDEST STOP JUMPDEST CALLVALUE DUP1 ISZERO PUSH2 0x1DA JUMPI PUSH1 0x0 DUP1 REVERT JUMPDEST POP PUSH2 0x1E3 PUSH2 0x6BA JUMP JUMPDEST PUSH1 0x40 MLOAD PUSH2 0x1F0 SWAP2 SWAP1 PUSH2 0x1219 JUMP JUMPDEST PUSH1 0x40 MLOAD DUP1 SWAP2 SUB SWAP1 RETURN JUMPDEST CALLVALUE DUP1 ISZERO PUSH2 0x205 JUMPI PUSH1 0x0 DUP1 REVERT JUMPDEST POP PUSH2 0x20E PUSH2 0x6C0 JUMP JUMPDEST PUSH1 0x40 MLOAD PUSH2 0x21B SWAP2 SWAP1 PUSH2 0x1219 JUMP JUMPDEST PUSH1 0x40 MLOAD DUP1 SWAP2 SUB SWAP1 RETURN JUMPDEST CALLVALUE DUP1 ISZERO PUSH2 0x230 JUMPI PUSH1 0x0 DUP1 REVERT JUMPDEST POP PUSH2 0x239 PUSH2 0x6C6 JUMP JUMPDEST PUSH1 0x40 MLOAD PUSH2 0x246 SWAP2 SWAP1 PUSH2 0x1219 JUMP JUMPDEST PUSH1 0x40 MLOAD DUP1 SWAP2 SUB SWAP1 RETURN JUMPDEST CALLVALUE DUP1 ISZERO PUSH2 0x25B JUMPI PUSH1 0x0 DUP1 REVERT JUMPDEST POP PUSH2 0x276 PUSH1 0x4 DUP1 CALLDATASIZE SUB DUP2 ADD SWAP1 PUSH2 0x271 SWAP2 SWAP1 PUSH2 0x1023 JUMP JUMPDEST PUSH2 0x796 JUMP JUMPDEST PUSH1 0x40 MLOAD PUSH2 0x283 SWAP2 SWAP1 PUSH2 0x1219 JUMP JUMPDEST PUSH1 0x40 MLOAD DUP1 SWAP2 SUB SWAP1 RETURN JUMPDEST PUSH2 0x2A6 PUSH1 0x4 DUP1 CALLDATASIZE SUB DUP2 ADD SWAP1 PUSH2 0x2A1 SWAP2 SWAP1 PUSH2 0xFC9 JUMP JUMPDEST PUSH2 0x7D7 JUMP JUMPDEST STOP JUMPDEST CALLVALUE DUP1 ISZERO PUSH2 0x2B4 JUMPI PUSH1 0x0 DUP1 REVERT JUMPDEST POP PUSH2 0x2BD PUSH2 0x9AA JUMP JUMPDEST PUSH1 0x40 MLOAD PUSH2 0x2CA SWAP2 SWAP1 PUSH2 0x1183 JUMP JUMPDEST PUSH1 0x40 MLOAD DUP1 SWAP2 SUB SWAP1 RETURN JUMPDEST CALLVALUE DUP1 ISZERO PUSH2 0x2DF JUMPI PUSH1 0x0 DUP1 REVERT JUMPDEST POP PUSH2 0x2E8 PUSH2 0x9D0 JUMP JUMPDEST PUSH1 0x40 MLOAD PUSH2 0x2F5 SWAP2 SWAP1 PUSH2 0x119E JUMP JUMPDEST PUSH1 0x40 MLOAD DUP1 SWAP2 SUB SWAP1 RETURN JUMPDEST CALLVALUE DUP1 ISZERO PUSH2 0x30A JUMPI PUSH1 0x0 DUP1 REVERT JUMPDEST POP PUSH2 0x313 PUSH2 0x9E3 JUMP JUMPDEST PUSH1 0x40 MLOAD PUSH2 0x320 SWAP2 SWAP1 PUSH2 0x1108 JUMP JUMPDEST PUSH1 0x40 MLOAD DUP1 SWAP2 SUB SWAP1 RETURN JUMPDEST CALLVALUE DUP1 ISZERO PUSH2 0x335 JUMPI PUSH1 0x0 DUP1 REVERT JUMPDEST POP PUSH2 0x33E PUSH2 0xA09 JUMP JUMPDEST PUSH1 0x40 MLOAD PUSH2 0x34B SWAP2 SWAP1 PUSH2 0x1219 JUMP JUMPDEST PUSH1 0x40 MLOAD DUP1 SWAP2 SUB SWAP1 RETURN JUMPDEST PUSH2 0x36E PUSH1 0x4 DUP1 CALLDATASIZE SUB DUP2 ADD SWAP1 PUSH2 0x369 SWAP2 SWAP1 PUSH2 0xFC9 JUMP JUMPDEST PUSH2 0xA0F JUMP JUMPDEST STOP JUMPDEST CALLVALUE DUP1 ISZERO PUSH2 0x37C JUMPI PUSH1 0x0 DUP1 REVERT JUMPDEST POP PUSH2 0x385 PUSH2 0xC01 JUMP JUMPDEST PUSH1 0x40 MLOAD PUSH2 0x392 SWAP2 SWAP1 PUSH2 0x1183 JUMP JUMPDEST PUSH1 0x40 MLOAD DUP1 SWAP2 SUB SWAP1 RETURN JUMPDEST CALLVALUE DUP1 ISZERO PUSH2 0x3A7 JUMPI PUSH1 0x0 DUP1 REVERT JUMPDEST POP PUSH2 0x3C2 PUSH1 0x4 DUP1 CALLDATASIZE SUB DUP2 ADD SWAP1 PUSH2 0x3BD SWAP2 SWAP1 PUSH2 0xF5C JUMP JUMPDEST PUSH2 0xC27 JUMP JUMPDEST PUSH1 0x40 MLOAD PUSH2 0x3CF SWAP2 SWAP1 PUSH2 0x1219 JUMP JUMPDEST PUSH1 0x40 MLOAD DUP1 SWAP2 SUB SWAP1 RETURN JUMPDEST CALLVALUE DUP1 ISZERO PUSH2 0x3E4 JUMPI PUSH1 0x0 DUP1 REVERT JUMPDEST POP PUSH2 0x3ED PUSH2 0xCBA JUMP JUMPDEST PUSH1 0x40 MLOAD PUSH2 0x3FA SWAP2 SWAP1 PUSH2 0x1219 JUMP JUMPDEST PUSH1 0x40 MLOAD DUP1 SWAP2 SUB SWAP1 RETURN JUMPDEST CALLVALUE DUP1 ISZERO PUSH2 0x40F JUMPI PUSH1 0x0 DUP1 REVERT JUMPDEST POP PUSH2 0x418 PUSH2 0xCC0 JUMP JUMPDEST PUSH1 0x40 MLOAD PUSH2 0x425 SWAP2 SWAP1 PUSH2 0x1108 JUMP JUMPDEST PUSH1 0x40 MLOAD DUP1 SWAP2 SUB SWAP1 RETURN JUMPDEST CALLVALUE DUP1 ISZERO PUSH2 0x43A JUMPI PUSH1 0x0 DUP1 REVERT JUMPDEST POP PUSH2 0x455 PUSH1 0x4 DUP1 CALLDATASIZE SUB DUP2 ADD SWAP1 PUSH2 0x450 SWAP2 SWAP1 PUSH2 0x1023 JUMP JUMPDEST PUSH2 0xCE6 JUMP JUMPDEST PUSH1 0x40 MLOAD PUSH2 0x462 SWAP2 SWAP1 PUSH2 0x1219 JUMP JUMPDEST PUSH1 0x40 MLOAD DUP1 SWAP2 SUB SWAP1 RETURN JUMPDEST CALLVALUE DUP1 ISZERO PUSH2 0x477 JUMPI PUSH1 0x0 DUP1 REVERT JUMPDEST POP PUSH2 0x480 PUSH2 0xD2F JUMP JUMPDEST PUSH1 0x40 MLOAD PUSH2 0x48D SWAP2 SWAP1 PUSH2 0x1108 JUMP JUMPDEST PUSH1 0x40 MLOAD DUP1 SWAP2 SUB SWAP1 RETURN JUMPDEST PUSH1 0x0 PUSH8 0xDE0B6B3A7640000 PUSH1 0x1 SLOAD PUSH8 0xC7D713B49DA0000 PUSH2 0x4B7 SWAP2 SWAP1 PUSH2 0x1326 JUMP JUMPDEST ADDRESS PUSH20 0xFFFFFFFFFFFFFFFFFFFFFFFFFFFFFFFFFFFFFFFF AND PUSH4 0x1F564A06 PUSH1 0x40 MLOAD DUP2 PUSH4 0xFFFFFFFF AND PUSH1 0xE0 SHL DUP2 MSTORE PUSH1 0x4 ADD PUSH1 0x20 PUSH1 0x40 MLOAD DUP1 DUP4 SUB DUP2 DUP7 DUP1 EXTCODESIZE ISZERO DUP1 ISZERO PUSH2 0x4FD JUMPI PUSH1 0x0 DUP1 REVERT JUMPDEST POP GAS STATICCALL ISZERO DUP1 ISZERO PUSH2 0x511 JUMPI RETURNDATASIZE PUSH1 0x0 DUP1 RETURNDATACOPY RETURNDATASIZE PUSH1 0x0 REVERT JUMPDEST POP POP POP POP PUSH1 0x40 MLOAD RETURNDATASIZE PUSH1 0x1F NOT PUSH1 0x1F DUP3 ADD AND DUP3 ADD DUP1 PUSH1 0x40 MSTORE POP DUP2 ADD SWAP1 PUSH2 0x535 SWAP2 SWAP1 PUSH2 0xFF6 JUMP JUMPDEST PUSH2 0x53F SWAP2 SWAP1 PUSH2 0x12CC JUMP JUMPDEST PUSH2 0x549 SWAP2 SWAP1 PUSH2 0x129B JUMP JUMPDEST SWAP1 POP SWAP1 JUMP JUMPDEST PUSH1 0x8 PUSH1 0x0 SWAP1 SLOAD SWAP1 PUSH2 0x100 EXP SWAP1 DIV PUSH20 0xFFFFFFFFFFFFFFFFFFFFFFFFFFFFFFFFFFFFFFFF AND DUP2 JUMP JUMPDEST PUSH1 0x0 PUSH1 0x10 PUSH1 0x0 SWAP1 SLOAD SWAP1 PUSH2 0x100 EXP SWAP1 DIV PUSH20 0xFFFFFFFFFFFFFFFFFFFFFFFFFFFFFFFFFFFFFFFF AND PUSH20 0xFFFFFFFFFFFFFFFFFFFFFFFFFFFFFFFFFFFFFFFF AND PUSH4 0x18160DDD PUSH1 0x40 MLOAD DUP2 PUSH4 0xFFFFFFFF AND PUSH1 0xE0 SHL DUP2 MSTORE PUSH1 0x4 ADD PUSH1 0x20 PUSH1 0x40 MLOAD DUP1 DUP4 SUB DUP2 DUP7 DUP1 EXTCODESIZE ISZERO DUP1 ISZERO PUSH2 0x5DE JUMPI PUSH1 0x0 DUP1 REVERT JUMPDEST POP GAS STATICCALL ISZERO DUP1 ISZERO PUSH2 0x5F2 JUMPI RETURNDATASIZE PUSH1 0x0 DUP1 RETURNDATACOPY RETURNDATASIZE PUSH1 0x0 REVERT JUMPDEST POP POP POP POP PUSH1 0x40 MLOAD RETURNDATASIZE PUSH1 0x1F NOT PUSH1 0x1F DUP3 ADD AND DUP3 ADD DUP1 PUSH1 0x40 MSTORE POP DUP2 ADD SWAP1 PUSH2 0x616 SWAP2 SWAP1 PUSH2 0xFF6 JUMP JUMPDEST PUSH1 0x9 SLOAD PUSH2 0x623 SWAP2 SWAP1 PUSH2 0x129B JUMP JUMPDEST SWAP1 POP SWAP1 JUMP JUMPDEST PUSH1 0x12 PUSH1 0x0 SWAP1 SLOAD SWAP1 PUSH2 0x100 EXP SWAP1 DIV PUSH20 0xFFFFFFFFFFFFFFFFFFFFFFFFFFFFFFFFFFFFFFFF AND PUSH20 0xFFFFFFFFFFFFFFFFFFFFFFFFFFFFFFFFFFFFFFFF AND PUSH4 0x40C10F19 CALLER DUP4 PUSH1 0x40 MLOAD DUP4 PUSH4 0xFFFFFFFF AND PUSH1 0xE0 SHL DUP2 MSTORE PUSH1 0x4 ADD PUSH2 0x685 SWAP3 SWAP2 SWAP1 PUSH2 0x115A JUMP JUMPDEST PUSH1 0x0 PUSH1 0x40 MLOAD DUP1 DUP4 SUB DUP2 PUSH1 0x0 DUP8 DUP1 EXTCODESIZE ISZERO DUP1 ISZERO PUSH2 0x69F JUMPI PUSH1 0x0 DUP1 REVERT JUMPDEST POP GAS CALL ISZERO DUP1 ISZERO PUSH2 0x6B3 JUMPI RETURNDATASIZE PUSH1 0x0 DUP1 RETURNDATACOPY RETURNDATASIZE PUSH1 0x0 REVERT JUMPDEST POP POP POP POP POP JUMP JUMPDEST PUSH1 0x9 SLOAD DUP2 JUMP JUMPDEST PUSH1 0xA SLOAD DUP2 JUMP JUMPDEST PUSH1 0x0 PUSH8 0xDE0B6B3A7640000 PUSH1 0x5 PUSH8 0xDE0B6B3A7640000 PUSH1 0x6 PUSH2 0x6E8 SWAP2 SWAP1 PUSH2 0x12CC JUMP JUMPDEST PUSH2 0x6F2 SWAP2 SWAP1 PUSH2 0x129B JUMP JUMPDEST PUSH1 0x0 SLOAD PUSH2 0x6FF SWAP2 SWAP1 PUSH2 0x1245 JUMP JUMPDEST ADDRESS PUSH20 0xFFFFFFFFFFFFFFFFFFFFFFFFFFFFFFFFFFFFFFFF AND PUSH4 0x1F564A06 PUSH1 0x40 MLOAD DUP2 PUSH4 0xFFFFFFFF AND PUSH1 0xE0 SHL DUP2 MSTORE PUSH1 0x4 ADD PUSH1 0x20 PUSH1 0x40 MLOAD DUP1 DUP4 SUB DUP2 DUP7 DUP1 EXTCODESIZE ISZERO DUP1 ISZERO PUSH2 0x745 JUMPI PUSH1 0x0 DUP1 REVERT JUMPDEST POP GAS STATICCALL ISZERO DUP1 ISZERO PUSH2 0x759 JUMPI RETURNDATASIZE PUSH1 0x0 DUP1 RETURNDATACOPY RETURNDATASIZE PUSH1 0x0 REVERT JUMPDEST POP POP POP POP PUSH1 0x40 MLOAD RETURNDATASIZE PUSH1 0x1F NOT PUSH1 0x1F DUP3 ADD AND DUP3 ADD DUP1 PUSH1 0x40 MSTORE POP DUP2 ADD SWAP1 PUSH2 0x77D SWAP2 SWAP1 PUSH2 0xFF6 JUMP JUMPDEST PUSH2 0x787 SWAP2 SWAP1 PUSH2 0x12CC JUMP JUMPDEST PUSH2 0x791 SWAP2 SWAP1 PUSH2 0x129B JUMP JUMPDEST SWAP1 POP SWAP1 JUMP JUMPDEST PUSH1 0x0 DUP1 PUSH2 0x7AB DUP5 PUSH8 0xDE0B6B3A7640000 PUSH2 0xD55 JUMP JUMPDEST SWAP1 POP DUP3 PUSH2 0x7C4 DUP3 PUSH1 0x2 DUP7 PUSH2 0x7BF SWAP2 SWAP1 PUSH2 0x129B JUMP JUMPDEST PUSH2 0xDD0 JUMP JUMPDEST PUSH2 0x7CE SWAP2 SWAP1 PUSH2 0x129B JUMP JUMPDEST SWAP2 POP POP SWAP3 SWAP2 POP POP JUMP JUMPDEST PUSH1 0x0 PUSH1 0x11 PUSH1 0x0 SWAP1 SLOAD SWAP1 PUSH2 0x100 EXP SWAP1 DIV PUSH20 0xFFFFFFFFFFFFFFFFFFFFFFFFFFFFFFFFFFFFFFFF AND PUSH20 0xFFFFFFFFFFFFFFFFFFFFFFFFFFFFFFFFFFFFFFFF AND PUSH4 0x70A08231 CALLER PUSH1 0x40 MLOAD DUP3 PUSH4 0xFFFFFFFF AND PUSH1 0xE0 SHL DUP2 MSTORE PUSH1 0x4 ADD PUSH2 0x834 SWAP2 SWAP1 PUSH2 0x1108 JUMP JUMPDEST PUSH1 0x20 PUSH1 0x40 MLOAD DUP1 DUP4 SUB DUP2 DUP7 DUP1 EXTCODESIZE ISZERO DUP1 ISZERO PUSH2 0x84C JUMPI PUSH1 0x0 DUP1 REVERT JUMPDEST POP GAS STATICCALL ISZERO DUP1 ISZERO PUSH2 0x860 JUMPI RETURNDATASIZE PUSH1 0x0 DUP1 RETURNDATACOPY RETURNDATASIZE PUSH1 0x0 REVERT JUMPDEST POP POP POP POP PUSH1 0x40 MLOAD RETURNDATASIZE PUSH1 0x1F NOT PUSH1 0x1F DUP3 ADD AND DUP3 ADD DUP1 PUSH1 0x40 MSTORE POP DUP2 ADD SWAP1 PUSH2 0x884 SWAP2 SWAP1 PUSH2 0xFF6 JUMP JUMPDEST SWAP1 POP DUP2 DUP2 GT PUSH2 0x8C8 JUMPI PUSH1 0x40 MLOAD PUSH32 0x8C379A000000000000000000000000000000000000000000000000000000000 DUP2 MSTORE PUSH1 0x4 ADD PUSH2 0x8BF SWAP1 PUSH2 0x11D9 JUMP JUMPDEST PUSH1 0x40 MLOAD DUP1 SWAP2 SUB SWAP1 REVERT JUMPDEST PUSH1 0x10 PUSH1 0x0 SWAP1 SLOAD SWAP1 PUSH2 0x100 EXP SWAP1 DIV PUSH20 0xFFFFFFFFFFFFFFFFFFFFFFFFFFFFFFFFFFFFFFFF AND PUSH20 0xFFFFFFFFFFFFFFFFFFFFFFFFFFFFFFFFFFFFFFFF AND PUSH4 0xA9059CBB CALLER DUP5 PUSH1 0x40 MLOAD DUP4 PUSH4 0xFFFFFFFF AND PUSH1 0xE0 SHL DUP2 MSTORE PUSH1 0x4 ADD PUSH2 0x925 SWAP3 SWAP2 SWAP1 PUSH2 0x115A JUMP JUMPDEST PUSH1 0x20 PUSH1 0x40 MLOAD DUP1 DUP4 SUB DUP2 PUSH1 0x0 DUP8 DUP1 EXTCODESIZE ISZERO DUP1 ISZERO PUSH2 0x93F JUMPI PUSH1 0x0 DUP1 REVERT JUMPDEST POP GAS CALL ISZERO DUP1 ISZERO PUSH2 0x953 JUMPI RETURNDATASIZE PUSH1 0x0 DUP1 RETURNDATACOPY RETURNDATASIZE PUSH1 0x0 REVERT JUMPDEST POP POP POP POP PUSH1 0x40 MLOAD RETURNDATASIZE PUSH1 0x1F NOT PUSH1 0x1F DUP3 ADD AND DUP3 ADD DUP1 PUSH1 0x40 MSTORE POP DUP2 ADD SWAP1 PUSH2 0x977 SWAP2 SWAP1 PUSH2 0xF9C JUMP JUMPDEST POP PUSH2 0x9A6 PUSH1 0x11 PUSH1 0x0 SWAP1 SLOAD SWAP1 PUSH2 0x100 EXP SWAP1 DIV PUSH20 0xFFFFFFFFFFFFFFFFFFFFFFFFFFFFFFFFFFFFFFFF AND CALLER ADDRESS DUP6 PUSH2 0xE2E JUMP JUMPDEST POP POP JUMP JUMPDEST PUSH1 0x10 PUSH1 0x0 SWAP1 SLOAD SWAP1 PUSH2 0x100 EXP SWAP1 DIV PUSH20 0xFFFFFFFFFFFFFFFFFFFFFFFFFFFFFFFFFFFFFFFF AND DUP2 JUMP JUMPDEST PUSH1 0xE PUSH1 0x0 SWAP1 SLOAD SWAP1 PUSH2 0x100 EXP SWAP1 DIV PUSH1 0xF SIGNEXTEND DUP2 JUMP JUMPDEST PUSH1 0x7 PUSH1 0x0 SWAP1 SLOAD SWAP1 PUSH2 0x100 EXP SWAP1 DIV PUSH20 0xFFFFFFFFFFFFFFFFFFFFFFFFFFFFFFFFFFFFFFFF AND DUP2 JUMP JUMPDEST PUSH1 0x1 SLOAD DUP2 JUMP JUMPDEST PUSH1 0x0 PUSH1 0x10 PUSH1 0x0 SWAP1 SLOAD SWAP1 PUSH2 0x100 EXP SWAP1 DIV PUSH20 0xFFFFFFFFFFFFFFFFFFFFFFFFFFFFFFFFFFFFFFFF AND PUSH20 0xFFFFFFFFFFFFFFFFFFFFFFFFFFFFFFFFFFFFFFFF AND PUSH4 0x70A08231 CALLER PUSH1 0x40 MLOAD DUP3 PUSH4 0xFFFFFFFF AND PUSH1 0xE0 SHL DUP2 MSTORE PUSH1 0x4 ADD PUSH2 0xA6C SWAP2 SWAP1 PUSH2 0x1108 JUMP JUMPDEST PUSH1 0x20 PUSH1 0x40 MLOAD DUP1 DUP4 SUB DUP2 DUP7 DUP1 EXTCODESIZE ISZERO DUP1 ISZERO PUSH2 0xA84 JUMPI PUSH1 0x0 DUP1 REVERT JUMPDEST POP GAS STATICCALL ISZERO DUP1 ISZERO PUSH2 0xA98 JUMPI RETURNDATASIZE PUSH1 0x0 DUP1 RETURNDATACOPY RETURNDATASIZE PUSH1 0x0 REVERT JUMPDEST POP POP POP POP PUSH1 0x40 MLOAD RETURNDATASIZE PUSH1 0x1F NOT PUSH1 0x1F DUP3 ADD AND DUP3 ADD DUP1 PUSH1 0x40 MSTORE POP DUP2 ADD SWAP1 PUSH2 0xABC SWAP2 SWAP1 PUSH2 0xFF6 JUMP JUMPDEST SWAP1 POP DUP2 DUP2 GT PUSH2 0xB00 JUMPI PUSH1 0x40 MLOAD PUSH32 0x8C379A000000000000000000000000000000000000000000000000000000000 DUP2 MSTORE PUSH1 0x4 ADD PUSH2 0xAF7 SWAP1 PUSH2 0x11D9 JUMP JUMPDEST PUSH1 0x40 MLOAD DUP1 SWAP2 SUB SWAP1 REVERT JUMPDEST PUSH1 0x11 PUSH1 0x0 SWAP1 SLOAD SWAP1 PUSH2 0x100 EXP SWAP1 DIV PUSH20 0xFFFFFFFFFFFFFFFFFFFFFFFFFFFFFFFFFFFFFFFF AND PUSH20 0xFFFFFFFFFFFFFFFFFFFFFFFFFFFFFFFFFFFFFFFF AND PUSH4 0xA9059CBB CALLER PUSH8 0xDE0B6B3A7640000 PUSH1 0x1 PUSH2 0xB54 SWAP2 SWAP1 PUSH2 0x12CC JUMP JUMPDEST DUP6 PUSH2 0xB5F SWAP2 SWAP1 PUSH2 0x1245 JUMP JUMPDEST PUSH1 0x40 MLOAD DUP4 PUSH4 0xFFFFFFFF AND PUSH1 0xE0 SHL DUP2 MSTORE PUSH1 0x4 ADD PUSH2 0xB7C SWAP3 SWAP2 SWAP1 PUSH2 0x115A JUMP JUMPDEST PUSH1 0x20 PUSH1 0x40 MLOAD DUP1 DUP4 SUB DUP2 PUSH1 0x0 DUP8 DUP1 EXTCODESIZE ISZERO DUP1 ISZERO PUSH2 0xB96 JUMPI PUSH1 0x0 DUP1 REVERT JUMPDEST POP GAS CALL ISZERO DUP1 ISZERO PUSH2 0xBAA JUMPI RETURNDATASIZE PUSH1 0x0 DUP1 RETURNDATACOPY RETURNDATASIZE PUSH1 0x0 REVERT JUMPDEST POP POP POP POP PUSH1 0x40 MLOAD RETURNDATASIZE PUSH1 0x1F NOT PUSH1 0x1F DUP3 ADD AND DUP3 ADD DUP1 PUSH1 0x40 MSTORE POP DUP2 ADD SWAP1 PUSH2 0xBCE SWAP2 SWAP1 PUSH2 0xF9C JUMP JUMPDEST POP PUSH2 0xBFD PUSH1 0x10 PUSH1 0x0 SWAP1 SLOAD SWAP1 PUSH2 0x100 EXP SWAP1 DIV PUSH20 0xFFFFFFFFFFFFFFFFFFFFFFFFFFFFFFFFFFFFFFFF AND CALLER ADDRESS DUP6 PUSH2 0xE2E JUMP JUMPDEST POP POP JUMP JUMPDEST PUSH1 0x11 PUSH1 0x0 SWAP1 SLOAD SWAP1 PUSH2 0x100 EXP SWAP1 DIV PUSH20 0xFFFFFFFFFFFFFFFFFFFFFFFFFFFFFFFFFFFFFFFF AND DUP2 JUMP JUMPDEST PUSH1 0x0 DUP3 PUSH20 0xFFFFFFFFFFFFFFFFFFFFFFFFFFFFFFFFFFFFFFFF AND PUSH4 0x70A08231 DUP4 PUSH1 0x40 MLOAD DUP3 PUSH4 0xFFFFFFFF AND PUSH1 0xE0 SHL DUP2 MSTORE PUSH1 0x4 ADD PUSH2 0xC62 SWAP2 SWAP1 PUSH2 0x1108 JUMP JUMPDEST PUSH1 0x20 PUSH1 0x40 MLOAD DUP1 DUP4 SUB DUP2 DUP7 DUP1 EXTCODESIZE ISZERO DUP1 ISZERO PUSH2 0xC7A JUMPI PUSH1 0x0 DUP1 REVERT JUMPDEST POP GAS STATICCALL ISZERO DUP1 ISZERO PUSH2 0xC8E JUMPI RETURNDATASIZE PUSH1 0x0 DUP1 RETURNDATACOPY RETURNDATASIZE PUSH1 0x0 REVERT JUMPDEST POP POP POP POP PUSH1 0x40 MLOAD RETURNDATASIZE PUSH1 0x1F NOT PUSH1 0x1F DUP3 ADD AND DUP3 ADD DUP1 PUSH1 0x40 MSTORE POP DUP2 ADD SWAP1 PUSH2 0xCB2 SWAP2 SWAP1 PUSH2 0xFF6 JUMP JUMPDEST SWAP1 POP SWAP3 SWAP2 POP POP JUMP JUMPDEST PUSH1 0x0 SLOAD DUP2 JUMP JUMPDEST PUSH1 0xF PUSH1 0x0 SWAP1 SLOAD SWAP1 PUSH2 0x100 EXP SWAP1 DIV PUSH20 0xFFFFFFFFFFFFFFFFFFFFFFFFFFFFFFFFFFFFFFFF AND DUP2 JUMP JUMPDEST PUSH1 0x0 DUP1 PUSH2 0xCF3 DUP5 DUP5 PUSH2 0xD55 JUMP JUMPDEST SWAP1 POP PUSH8 0xDE0B6B3A7640000 PUSH2 0xD1C DUP3 PUSH1 0x2 PUSH8 0xDE0B6B3A7640000 PUSH2 0xD17 SWAP2 SWAP1 PUSH2 0x129B JUMP JUMPDEST PUSH2 0xDD0 JUMP JUMPDEST PUSH2 0xD26 SWAP2 SWAP1 PUSH2 0x129B JUMP JUMPDEST SWAP2 POP POP SWAP3 SWAP2 POP POP JUMP JUMPDEST PUSH1 0x6 PUSH1 0x0 SWAP1 SLOAD SWAP1 PUSH2 0x100 EXP SWAP1 DIV PUSH20 0xFFFFFFFFFFFFFFFFFFFFFFFFFFFFFFFFFFFFFFFF AND DUP2 JUMP JUMPDEST PUSH1 0x0 DUP1 DUP4 EQ ISZERO PUSH2 0xD68 JUMPI PUSH1 0x0 SWAP1 POP PUSH2 0xDCA JUMP JUMPDEST PUSH1 0x0 DUP3 DUP5 PUSH2 0xD76 SWAP2 SWAP1 PUSH2 0x12CC JUMP JUMPDEST SWAP1 POP DUP3 DUP5 DUP3 PUSH2 0xD85 SWAP2 SWAP1 PUSH2 0x129B JUMP JUMPDEST EQ PUSH2 0xDC5 JUMPI PUSH1 0x40 MLOAD PUSH32 0x8C379A000000000000000000000000000000000000000000000000000000000 DUP2 MSTORE PUSH1 0x4 ADD PUSH2 0xDBC SWAP1 PUSH2 0x11F9 JUMP JUMPDEST PUSH1 0x40 MLOAD DUP1 SWAP2 SUB SWAP1 REVERT JUMPDEST DUP1 SWAP2 POP POP JUMPDEST SWAP3 SWAP2 POP POP JUMP JUMPDEST PUSH1 0x0 DUP1 DUP3 DUP5 PUSH2 0xDDF SWAP2 SWAP1 PUSH2 0x1245 JUMP JUMPDEST SWAP1 POP DUP4 DUP2 LT ISZERO PUSH2 0xE24 JUMPI PUSH1 0x40 MLOAD PUSH32 0x8C379A000000000000000000000000000000000000000000000000000000000 DUP2 MSTORE PUSH1 0x4 ADD PUSH2 0xE1B SWAP1 PUSH2 0x11F9 JUMP JUMPDEST PUSH1 0x40 MLOAD DUP1 SWAP2 SUB SWAP1 REVERT JUMPDEST DUP1 SWAP2 POP POP SWAP3 SWAP2 POP POP JUMP JUMPDEST PUSH1 0x0 DUP5 PUSH20 0xFFFFFFFFFFFFFFFFFFFFFFFFFFFFFFFFFFFFFFFF AND PUSH4 0x23B872DD DUP6 DUP6 DUP6 PUSH1 0x40 MLOAD DUP5 PUSH4 0xFFFFFFFF AND PUSH1 0xE0 SHL DUP2 MSTORE PUSH1 0x4 ADD PUSH2 0xE6D SWAP4 SWAP3 SWAP2 SWAP1 PUSH2 0x1123 JUMP JUMPDEST PUSH1 0x20 PUSH1 0x40 MLOAD DUP1 DUP4 SUB DUP2 PUSH1 0x0 DUP8 DUP1 EXTCODESIZE ISZERO DUP1 ISZERO PUSH2 0xE87 JUMPI PUSH1 0x0 DUP1 REVERT JUMPDEST POP GAS CALL ISZERO DUP1 ISZERO PUSH2 0xE9B JUMPI RETURNDATASIZE PUSH1 0x0 DUP1 RETURNDATACOPY RETURNDATASIZE PUSH1 0x0 REVERT JUMPDEST POP POP POP POP PUSH1 0x40 MLOAD RETURNDATASIZE PUSH1 0x1F NOT PUSH1 0x1F DUP3 ADD AND DUP3 ADD DUP1 PUSH1 0x40 MSTORE POP DUP2 ADD SWAP1 PUSH2 0xEBF SWAP2 SWAP1 PUSH2 0xF9C JUMP JUMPDEST SWAP1 POP DUP1 PUSH2 0xF01 JUMPI PUSH1 0x40 MLOAD PUSH32 0x8C379A000000000000000000000000000000000000000000000000000000000 DUP2 MSTORE PUSH1 0x4 ADD PUSH2 0xEF8 SWAP1 PUSH2 0x11B9 JUMP JUMPDEST PUSH1 0x40 MLOAD DUP1 SWAP2 SUB SWAP1 REVERT JUMPDEST POP POP POP POP POP JUMP JUMPDEST PUSH1 0x0 DUP2 CALLDATALOAD SWAP1 POP PUSH2 0xF17 DUP2 PUSH2 0x14E9 JUMP JUMPDEST SWAP3 SWAP2 POP POP JUMP JUMPDEST PUSH1 0x0 DUP2 MLOAD SWAP1 POP PUSH2 0xF2C DUP2 PUSH2 0x1500 JUMP JUMPDEST SWAP3 SWAP2 POP POP JUMP JUMPDEST PUSH1 0x0 DUP2 CALLDATALOAD SWAP1 POP PUSH2 0xF41 DUP2 PUSH2 0x1517 JUMP JUMPDEST SWAP3 SWAP2 POP POP JUMP JUMPDEST PUSH1 0x0 DUP2 MLOAD SWAP1 POP PUSH2 0xF56 DUP2 PUSH2 0x1517 JUMP JUMPDEST SWAP3 SWAP2 POP POP JUMP JUMPDEST PUSH1 0x0 DUP1 PUSH1 0x40 DUP4 DUP6 SUB SLT ISZERO PUSH2 0xF73 JUMPI PUSH2 0xF72 PUSH2 0x1443 JUMP JUMPDEST JUMPDEST PUSH1 0x0 PUSH2 0xF81 DUP6 DUP3 DUP7 ADD PUSH2 0xF08 JUMP JUMPDEST SWAP3 POP POP PUSH1 0x20 PUSH2 0xF92 DUP6 DUP3 DUP7 ADD PUSH2 0xF08 JUMP JUMPDEST SWAP2 POP POP SWAP3 POP SWAP3 SWAP1 POP JUMP JUMPDEST PUSH1 0x0 PUSH1 0x20 DUP3 DUP5 SUB SLT ISZERO PUSH2 0xFB2 JUMPI PUSH2 0xFB1 PUSH2 0x1443 JUMP JUMPDEST JUMPDEST PUSH1 0x0 PUSH2 0xFC0 DUP5 DUP3 DUP6 ADD PUSH2 0xF1D JUMP JUMPDEST SWAP2 POP POP SWAP3 SWAP2 POP POP JUMP JUMPDEST PUSH1 0x0 PUSH1 0x20 DUP3 DUP5 SUB SLT ISZERO PUSH2 0xFDF JUMPI PUSH2 0xFDE PUSH2 0x1443 JUMP JUMPDEST JUMPDEST PUSH1 0x0 PUSH2 0xFED DUP5 DUP3 DUP6 ADD PUSH2 0xF32 JUMP JUMPDEST SWAP2 POP POP SWAP3 SWAP2 POP POP JUMP JUMPDEST PUSH1 0x0 PUSH1 0x20 DUP3 DUP5 SUB SLT ISZERO PUSH2 0x100C JUMPI PUSH2 0x100B PUSH2 0x1443 JUMP JUMPDEST JUMPDEST PUSH1 0x0 PUSH2 0x101A DUP5 DUP3 DUP6 ADD PUSH2 0xF47 JUMP JUMPDEST SWAP2 POP POP SWAP3 SWAP2 POP POP JUMP JUMPDEST PUSH1 0x0 DUP1 PUSH1 0x40 DUP4 DUP6 SUB SLT ISZERO PUSH2 0x103A JUMPI PUSH2 0x1039 PUSH2 0x1443 JUMP JUMPDEST JUMPDEST PUSH1 0x0 PUSH2 0x1048 DUP6 DUP3 DUP7 ADD PUSH2 0xF32 JUMP JUMPDEST SWAP3 POP POP PUSH1 0x20 PUSH2 0x1059 DUP6 DUP3 DUP7 ADD PUSH2 0xF32 JUMP JUMPDEST SWAP2 POP POP SWAP3 POP SWAP3 SWAP1 POP JUMP JUMPDEST PUSH2 0x106C DUP2 PUSH2 0x135A JUMP JUMPDEST DUP3 MSTORE POP POP JUMP JUMPDEST PUSH2 0x107B DUP2 PUSH2 0x13AF JUMP JUMPDEST DUP3 MSTORE POP POP JUMP JUMPDEST PUSH2 0x108A DUP2 PUSH2 0x1378 JUMP JUMPDEST DUP3 MSTORE POP POP JUMP JUMPDEST PUSH1 0x0 PUSH2 0x109D PUSH1 0x15 DUP4 PUSH2 0x1234 JUMP JUMPDEST SWAP2 POP PUSH2 0x10A8 DUP3 PUSH2 0x1448 JUMP JUMPDEST PUSH1 0x20 DUP3 ADD SWAP1 POP SWAP2 SWAP1 POP JUMP JUMPDEST PUSH1 0x0 PUSH2 0x10C0 PUSH1 0x1A DUP4 PUSH2 0x1234 JUMP JUMPDEST SWAP2 POP PUSH2 0x10CB DUP3 PUSH2 0x1471 JUMP JUMPDEST PUSH1 0x20 DUP3 ADD SWAP1 POP SWAP2 SWAP1 POP JUMP JUMPDEST PUSH1 0x0 PUSH2 0x10E3 PUSH1 0x21 DUP4 PUSH2 0x1234 JUMP JUMPDEST SWAP2 POP PUSH2 0x10EE DUP3 PUSH2 0x149A JUMP JUMPDEST PUSH1 0x40 DUP3 ADD SWAP1 POP SWAP2 SWAP1 POP JUMP JUMPDEST PUSH2 0x1102 DUP2 PUSH2 0x13A5 JUMP JUMPDEST DUP3 MSTORE POP POP JUMP JUMPDEST PUSH1 0x0 PUSH1 0x20 DUP3 ADD SWAP1 POP PUSH2 0x111D PUSH1 0x0 DUP4 ADD DUP5 PUSH2 0x1063 JUMP JUMPDEST SWAP3 SWAP2 POP POP JUMP JUMPDEST PUSH1 0x0 PUSH1 0x60 DUP3 ADD SWAP1 POP PUSH2 0x1138 PUSH1 0x0 DUP4 ADD DUP7 PUSH2 0x1063 JUMP JUMPDEST PUSH2 0x1145 PUSH1 0x20 DUP4 ADD DUP6 PUSH2 0x1063 JUMP JUMPDEST PUSH2 0x1152 PUSH1 0x40 DUP4 ADD DUP5 PUSH2 0x10F9 JUMP JUMPDEST SWAP5 SWAP4 POP POP POP POP JUMP JUMPDEST PUSH1 0x0 PUSH1 0x40 DUP3 ADD SWAP1 POP PUSH2 0x116F PUSH1 0x0 DUP4 ADD DUP6 PUSH2 0x1063 JUMP JUMPDEST PUSH2 0x117C PUSH1 0x20 DUP4 ADD DUP5 PUSH2 0x10F9 JUMP JUMPDEST SWAP4 SWAP3 POP POP POP JUMP JUMPDEST PUSH1 0x0 PUSH1 0x20 DUP3 ADD SWAP1 POP PUSH2 0x1198 PUSH1 0x0 DUP4 ADD DUP5 PUSH2 0x1072 JUMP JUMPDEST SWAP3 SWAP2 POP POP JUMP JUMPDEST PUSH1 0x0 PUSH1 0x20 DUP3 ADD SWAP1 POP PUSH2 0x11B3 PUSH1 0x0 DUP4 ADD DUP5 PUSH2 0x1081 JUMP JUMPDEST SWAP3 SWAP2 POP POP JUMP JUMPDEST PUSH1 0x0 PUSH1 0x20 DUP3 ADD SWAP1 POP DUP2 DUP2 SUB PUSH1 0x0 DUP4 ADD MSTORE PUSH2 0x11D2 DUP2 PUSH2 0x1090 JUMP JUMPDEST SWAP1 POP SWAP2 SWAP1 POP JUMP JUMPDEST PUSH1 0x0 PUSH1 0x20 DUP3 ADD SWAP1 POP DUP2 DUP2 SUB PUSH1 0x0 DUP4 ADD MSTORE PUSH2 0x11F2 DUP2 PUSH2 0x10B3 JUMP JUMPDEST SWAP1 POP SWAP2 SWAP1 POP JUMP JUMPDEST PUSH1 0x0 PUSH1 0x20 DUP3 ADD SWAP1 POP DUP2 DUP2 SUB PUSH1 0x0 DUP4 ADD MSTORE PUSH2 0x1212 DUP2 PUSH2 0x10D6 JUMP JUMPDEST SWAP1 POP SWAP2 SWAP1 POP JUMP JUMPDEST PUSH1 0x0 PUSH1 0x20 DUP3 ADD SWAP1 POP PUSH2 0x122E PUSH1 0x0 DUP4 ADD DUP5 PUSH2 0x10F9 JUMP JUMPDEST SWAP3 SWAP2 POP POP JUMP JUMPDEST PUSH1 0x0 DUP3 DUP3 MSTORE PUSH1 0x20 DUP3 ADD SWAP1 POP SWAP3 SWAP2 POP POP JUMP JUMPDEST PUSH1 0x0 PUSH2 0x1250 DUP3 PUSH2 0x13A5 JUMP JUMPDEST SWAP2 POP PUSH2 0x125B DUP4 PUSH2 0x13A5 JUMP JUMPDEST SWAP3 POP DUP3 PUSH32 0xFFFFFFFFFFFFFFFFFFFFFFFFFFFFFFFFFFFFFFFFFFFFFFFFFFFFFFFFFFFFFFFF SUB DUP3 GT ISZERO PUSH2 0x1290 JUMPI PUSH2 0x128F PUSH2 0x13E5 JUMP JUMPDEST JUMPDEST DUP3 DUP3 ADD SWAP1 POP SWAP3 SWAP2 POP POP JUMP JUMPDEST PUSH1 0x0 PUSH2 0x12A6 DUP3 PUSH2 0x13A5 JUMP JUMPDEST SWAP2 POP PUSH2 0x12B1 DUP4 PUSH2 0x13A5 JUMP JUMPDEST SWAP3 POP DUP3 PUSH2 0x12C1 JUMPI PUSH2 0x12C0 PUSH2 0x1414 JUMP JUMPDEST JUMPDEST DUP3 DUP3 DIV SWAP1 POP SWAP3 SWAP2 POP POP JUMP JUMPDEST PUSH1 0x0 PUSH2 0x12D7 DUP3 PUSH2 0x13A5 JUMP JUMPDEST SWAP2 POP PUSH2 0x12E2 DUP4 PUSH2 0x13A5 JUMP JUMPDEST SWAP3 POP DUP2 PUSH32 0xFFFFFFFFFFFFFFFFFFFFFFFFFFFFFFFFFFFFFFFFFFFFFFFFFFFFFFFFFFFFFFFF DIV DUP4 GT DUP3 ISZERO ISZERO AND ISZERO PUSH2 0x131B JUMPI PUSH2 0x131A PUSH2 0x13E5 JUMP JUMPDEST JUMPDEST DUP3 DUP3 MUL SWAP1 POP SWAP3 SWAP2 POP POP JUMP JUMPDEST PUSH1 0x0 PUSH2 0x1331 DUP3 PUSH2 0x13A5 JUMP JUMPDEST SWAP2 POP PUSH2 0x133C DUP4 PUSH2 0x13A5 JUMP JUMPDEST SWAP3 POP DUP3 DUP3 LT ISZERO PUSH2 0x134F JUMPI PUSH2 0x134E PUSH2 0x13E5 JUMP JUMPDEST JUMPDEST DUP3 DUP3 SUB SWAP1 POP SWAP3 SWAP2 POP POP JUMP JUMPDEST PUSH1 0x0 PUSH2 0x1365 DUP3 PUSH2 0x1385 JUMP JUMPDEST SWAP1 POP SWAP2 SWAP1 POP JUMP JUMPDEST PUSH1 0x0 DUP2 ISZERO ISZERO SWAP1 POP SWAP2 SWAP1 POP JUMP JUMPDEST PUSH1 0x0 DUP2 PUSH1 0xF SIGNEXTEND SWAP1 POP SWAP2 SWAP1 POP JUMP JUMPDEST PUSH1 0x0 PUSH20 0xFFFFFFFFFFFFFFFFFFFFFFFFFFFFFFFFFFFFFFFF DUP3 AND SWAP1 POP SWAP2 SWAP1 POP JUMP JUMPDEST PUSH1 0x0 DUP2 SWAP1 POP SWAP2 SWAP1 POP JUMP JUMPDEST PUSH1 0x0 PUSH2 0x13BA DUP3 PUSH2 0x13C1 JUMP JUMPDEST SWAP1 POP SWAP2 SWAP1 POP JUMP JUMPDEST PUSH1 0x0 PUSH2 0x13CC DUP3 PUSH2 0x13D3 JUMP JUMPDEST SWAP1 POP SWAP2 SWAP1 POP JUMP JUMPDEST PUSH1 0x0 PUSH2 0x13DE DUP3 PUSH2 0x1385 JUMP JUMPDEST SWAP1 POP SWAP2 SWAP1 POP JUMP JUMPDEST PUSH32 0x4E487B7100000000000000000000000000000000000000000000000000000000 PUSH1 0x0 MSTORE PUSH1 0x11 PUSH1 0x4 MSTORE PUSH1 0x24 PUSH1 0x0 REVERT JUMPDEST PUSH32 0x4E487B7100000000000000000000000000000000000000000000000000000000 PUSH1 0x0 MSTORE PUSH1 0x12 PUSH1 0x4 MSTORE PUSH1 0x24 PUSH1 0x0 REVERT JUMPDEST PUSH1 0x0 DUP1 REVERT JUMPDEST PUSH32 0x546F6B656E207472616E73666572206661696C65640000000000000000000000 PUSH1 0x0 DUP3 ADD MSTORE POP JUMP JUMPDEST PUSH32 0x596F7520646F6E742068617665207468617420616D6F756E7421000000000000 PUSH1 0x0 DUP3 ADD MSTORE POP JUMP JUMPDEST PUSH32 0x75696E74206F766572666C6F772066726F6D206D756C7469706C69636174696F PUSH1 0x0 DUP3 ADD MSTORE PUSH32 0x6E00000000000000000000000000000000000000000000000000000000000000 PUSH1 0x20 DUP3 ADD MSTORE POP JUMP JUMPDEST PUSH2 0x14F2 DUP2 PUSH2 0x135A JUMP JUMPDEST DUP2 EQ PUSH2 0x14FD JUMPI PUSH1 0x0 DUP1 REVERT JUMPDEST POP JUMP JUMPDEST PUSH2 0x1509 DUP2 PUSH2 0x136C JUMP JUMPDEST DUP2 EQ PUSH2 0x1514 JUMPI PUSH1 0x0 DUP1 REVERT JUMPDEST POP JUMP JUMPDEST PUSH2 0x1520 DUP2 PUSH2 0x13A5 JUMP JUMPDEST DUP2 EQ PUSH2 0x152B JUMPI PUSH1 0x0 DUP1 REVERT JUMPDEST POP JUMP INVALID LOG2 PUSH5 0x6970667358 0x22 SLT KECCAK256 0xE8 PUSH26 0xD6EF8C90B37B91EE8765DE452838C04A699C18ED7150FDA253A0 0xB4 0xAC CREATE2 MOD PUSH5 0x736F6C6343 STOP ADDMOD SMOD STOP CALLER "
				},
				"gasEstimates": {
					"creation": {
						"codeDepositCost": "1095200",
						"executionCost": "infinite",
						"totalCost": "infinite"
					},
					"external": {
						"buyScepter(uint256)": "infinite",
						"decDiv18(uint256,uint256)": "infinite",
						"decMul18(uint256,uint256)": "infinite",
						"getBackingPrice()": "infinite",
						"getBuyPrice()": "infinite",
						"getSellPrice()": "infinite",
						"growthFactor()": "2473",
						"mintBaton(uint256)": "infinite",
						"mockUSDC()": "2711",
						"queryERC20Balance(address,address)": "infinite",
						"res()": "2498",
						"riskTreasuryAddr()": "2560",
						"scepterTreasuryAddr()": "2559",
						"sellFactor()": "2496",
						"sellScepter(uint256)": "infinite",
						"tSC()": "2711",
						"testwallet()": "2580",
						"timeLaunched()": "2452",
						"treasury1Addr()": "2624",
						"treasury1bal()": "2541"
					},
					"internal": {
						"_safeTransferFrom(contract IERC20,address,address,uint256)": "infinite",
						"add(uint256,uint256)": "infinite",
						"div(uint256,uint256)": "infinite",
						"mul(uint256,uint256)": "infinite",
						"sub(uint256,uint256)": "infinite"
					}
				},
				"methodIdentifiers": {
					"buyScepter(uint256)": "65819f7e",
					"decDiv18(uint256,uint256)": "64ce07d8",
					"decMul18(uint256,uint256)": "f7523c52",
					"getBackingPrice()": "1f564a06",
					"getBuyPrice()": "018a25e8",
					"getSellPrice()": "43d32e9c",
					"growthFactor()": "ee620868",
					"mintBaton(uint256)": "2934b237",
					"mockUSDC()": "ee467678",
					"queryERC20Balance(address,address)": "ee546a51",
					"res()": "6f10e285",
					"riskTreasuryAddr()": "047729b0",
					"scepterTreasuryAddr()": "c079d7f6",
					"sellFactor()": "cbff4617",
					"sellScepter(uint256)": "daa3a4a4",
					"tSC()": "6e05c1b9",
					"testwallet()": "eee05f5e",
					"timeLaunched()": "3c6eb17a",
					"treasury1Addr()": "fbbb4589",
					"treasury1bal()": "35453307"
				}
			},
			"userdoc": {
				"kind": "user",
				"methods": {},
				"version": 1
			}
		}
	}
}