{
	"WandInstruments.sol": {
		"testSticks": {
			"abi": [
				{
					"inputs": [
						{
							"internalType": "address",
							"name": "scepterAddr",
							"type": "address"
						},
						{
							"internalType": "address",
							"name": "batonAddr",
							"type": "address"
						}
					],
					"stateMutability": "nonpayable",
					"type": "constructor"
				},
				{
					"inputs": [
						{
							"internalType": "uint256",
							"name": "amountSCPtoBuy",
							"type": "uint256"
						}
					],
					"name": "buyScepter",
					"outputs": [],
					"stateMutability": "payable",
					"type": "function"
				},
				{
					"inputs": [
						{
							"internalType": "uint256",
							"name": "amountSCPtoSell",
							"type": "uint256"
						}
					],
					"name": "cashOutScepter",
					"outputs": [],
					"stateMutability": "payable",
					"type": "function"
				},
				{
					"inputs": [],
					"name": "daysInCalculation",
					"outputs": [
						{
							"internalType": "uint256",
							"name": "",
							"type": "uint256"
						}
					],
					"stateMutability": "view",
					"type": "function"
				},
				{
					"inputs": [
						{
							"internalType": "uint256",
							"name": "x",
							"type": "uint256"
						},
						{
							"internalType": "uint256",
							"name": "y",
							"type": "uint256"
						}
					],
					"name": "decDiv18",
					"outputs": [
						{
							"internalType": "uint256",
							"name": "decQuotient",
							"type": "uint256"
						}
					],
					"stateMutability": "pure",
					"type": "function"
				},
				{
					"inputs": [
						{
							"internalType": "uint256",
							"name": "x",
							"type": "uint256"
						},
						{
							"internalType": "uint256",
							"name": "y",
							"type": "uint256"
						}
					],
					"name": "decMul18",
					"outputs": [
						{
							"internalType": "uint256",
							"name": "decProd",
							"type": "uint256"
						}
					],
					"stateMutability": "pure",
					"type": "function"
				},
				{
					"inputs": [],
					"name": "devWalletAddr",
					"outputs": [
						{
							"internalType": "address",
							"name": "",
							"type": "address"
						}
					],
					"stateMutability": "view",
					"type": "function"
				},
				{
					"inputs": [],
					"name": "getBackingPrice",
					"outputs": [
						{
							"internalType": "uint256",
							"name": "",
							"type": "uint256"
						}
					],
					"stateMutability": "view",
					"type": "function"
				},
				{
					"inputs": [],
					"name": "getBuyPrice",
					"outputs": [
						{
							"internalType": "uint256",
							"name": "",
							"type": "uint256"
						}
					],
					"stateMutability": "view",
					"type": "function"
				},
				{
					"inputs": [],
					"name": "getGrowthFactor",
					"outputs": [
						{
							"internalType": "uint256",
							"name": "",
							"type": "uint256"
						}
					],
					"stateMutability": "view",
					"type": "function"
				},
				{
					"inputs": [],
					"name": "getSellFactor",
					"outputs": [
						{
							"internalType": "uint256",
							"name": "",
							"type": "uint256"
						}
					],
					"stateMutability": "view",
					"type": "function"
				},
				{
					"inputs": [],
					"name": "getSellPrice",
					"outputs": [
						{
							"internalType": "uint256",
							"name": "",
							"type": "uint256"
						}
					],
					"stateMutability": "view",
					"type": "function"
				},
				{
					"inputs": [],
					"name": "getTokensBoughtXDays",
					"outputs": [
						{
							"internalType": "uint256",
							"name": "",
							"type": "uint256"
						}
					],
					"stateMutability": "view",
					"type": "function"
				},
				{
					"inputs": [],
					"name": "getTokensSoldXDays",
					"outputs": [
						{
							"internalType": "uint256",
							"name": "",
							"type": "uint256"
						}
					],
					"stateMutability": "view",
					"type": "function"
				},
				{
					"inputs": [],
					"name": "growthFactor",
					"outputs": [
						{
							"internalType": "uint256",
							"name": "",
							"type": "uint256"
						}
					],
					"stateMutability": "view",
					"type": "function"
				},
				{
					"inputs": [],
					"name": "mockUSDC",
					"outputs": [
						{
							"internalType": "contract IERC20",
							"name": "",
							"type": "address"
						}
					],
					"stateMutability": "view",
					"type": "function"
				},
				{
					"inputs": [
						{
							"internalType": "address",
							"name": "_tokenAddress",
							"type": "address"
						},
						{
							"internalType": "address",
							"name": "_addressToQuery",
							"type": "address"
						}
					],
					"name": "queryERC20Balance",
					"outputs": [
						{
							"internalType": "uint256",
							"name": "",
							"type": "uint256"
						}
					],
					"stateMutability": "view",
					"type": "function"
				},
				{
					"inputs": [],
					"name": "res",
					"outputs": [
						{
							"internalType": "int128",
							"name": "",
							"type": "int128"
						}
					],
					"stateMutability": "view",
					"type": "function"
				},
				{
					"inputs": [],
					"name": "riskTreasuryAddr",
					"outputs": [
						{
							"internalType": "address",
							"name": "",
							"type": "address"
						}
					],
					"stateMutability": "view",
					"type": "function"
				},
				{
					"inputs": [],
					"name": "scepterTreasuryAddr",
					"outputs": [
						{
							"internalType": "address",
							"name": "",
							"type": "address"
						}
					],
					"stateMutability": "view",
					"type": "function"
				},
				{
					"inputs": [],
					"name": "sellFactor",
					"outputs": [
						{
							"internalType": "uint256",
							"name": "",
							"type": "uint256"
						}
					],
					"stateMutability": "view",
					"type": "function"
				},
				{
					"inputs": [
						{
							"internalType": "uint256",
							"name": "numDays",
							"type": "uint256"
						}
					],
					"name": "setDaysUsedInFactors",
					"outputs": [],
					"stateMutability": "nonpayable",
					"type": "function"
				},
				{
					"inputs": [],
					"name": "tSC",
					"outputs": [
						{
							"internalType": "contract IERC20",
							"name": "",
							"type": "address"
						}
					],
					"stateMutability": "view",
					"type": "function"
				},
				{
					"inputs": [
						{
							"internalType": "uint256",
							"name": "t",
							"type": "uint256"
						},
						{
							"internalType": "uint256",
							"name": "_amt",
							"type": "uint256"
						}
					],
					"name": "testMappings",
					"outputs": [
						{
							"internalType": "uint256",
							"name": "",
							"type": "uint256"
						}
					],
					"stateMutability": "nonpayable",
					"type": "function"
				},
				{
					"inputs": [
						{
							"internalType": "uint256",
							"name": "amt",
							"type": "uint256"
						}
					],
					"name": "testUpdatetimeLockedminus",
					"outputs": [],
					"stateMutability": "nonpayable",
					"type": "function"
				},
				{
					"inputs": [
						{
							"internalType": "uint256",
							"name": "amt",
							"type": "uint256"
						}
					],
					"name": "testUpdatetimeLockedplus",
					"outputs": [],
					"stateMutability": "nonpayable",
					"type": "function"
				},
				{
					"inputs": [],
					"name": "testwallet",
					"outputs": [
						{
							"internalType": "address",
							"name": "",
							"type": "address"
						}
					],
					"stateMutability": "view",
					"type": "function"
				},
				{
					"inputs": [],
					"name": "timeLaunched",
					"outputs": [
						{
							"internalType": "uint256",
							"name": "",
							"type": "uint256"
						}
					],
					"stateMutability": "view",
					"type": "function"
				},
				{
					"inputs": [
						{
							"internalType": "uint256",
							"name": "",
							"type": "uint256"
						}
					],
					"name": "tokensBoughtXDays",
					"outputs": [
						{
							"internalType": "uint256",
							"name": "",
							"type": "uint256"
						}
					],
					"stateMutability": "view",
					"type": "function"
				},
				{
					"inputs": [
						{
							"internalType": "uint256",
							"name": "",
							"type": "uint256"
						}
					],
					"name": "tokensSoldXDays",
					"outputs": [
						{
							"internalType": "uint256",
							"name": "",
							"type": "uint256"
						}
					],
					"stateMutability": "view",
					"type": "function"
				},
				{
					"inputs": [
						{
							"internalType": "uint256",
							"name": "amountSCPtoSwap",
							"type": "uint256"
						}
					],
					"name": "transformScepterToBaton",
					"outputs": [],
					"stateMutability": "payable",
					"type": "function"
				},
				{
					"inputs": [],
					"name": "treasury1Addr",
					"outputs": [
						{
							"internalType": "address",
							"name": "",
							"type": "address"
						}
					],
					"stateMutability": "view",
					"type": "function"
				},
				{
					"inputs": [],
					"name": "treasury1bal",
					"outputs": [
						{
							"internalType": "uint256",
							"name": "",
							"type": "uint256"
						}
					],
					"stateMutability": "view",
					"type": "function"
				},
				{
					"inputs": [
						{
							"internalType": "address",
							"name": "",
							"type": "address"
						}
					],
					"name": "withheldWithdrawals",
					"outputs": [
						{
							"internalType": "uint256",
							"name": "timeUnlocked",
							"type": "uint256"
						},
						{
							"internalType": "uint256",
							"name": "amounts",
							"type": "uint256"
						}
					],
					"stateMutability": "view",
					"type": "function"
				}
			],
			"devdoc": {
				"kind": "dev",
				"methods": {},
				"version": 1
			},
			"evm": {
				"assembly": "    /* \"WandInstruments.sol\":96:10466  contract testSticks {\r... */\n  mstore(0x40, 0x80)\n    /* \"WandInstruments.sol\":283:289  10**18 */\n  0x0de0b6b3a7640000\n    /* \"WandInstruments.sol\":759:764  50000 */\n  0xc350\n    /* \"WandInstruments.sol\":759:775  50000*(DECIMALS) */\n  tag_1\n  swap2\n  swap1\n  tag_2\n  jump\t// in\ntag_1:\n    /* \"WandInstruments.sol\":729:775  uint256 public treasury1bal = 50000*(DECIMALS) */\n  0x0a\n  sstore\n    /* \"WandInstruments.sol\":925:931  100000 */\n  0x0186a0\n    /* \"WandInstruments.sol\":894:931  uint256 private ft5daybought = 100000 */\n  0x0d\n  sstore\n    /* \"WandInstruments.sol\":967:972  90000 */\n  0x015f90\n    /* \"WandInstruments.sol\":938:972  uint256 private ft5daysold = 90000 */\n  0x0e\n  sstore\n    /* \"WandInstruments.sol\":1014:1020  600000 */\n  0x0927c0\n    /* \"WandInstruments.sol\":979:1020  uint256 private double5daytokens = 600000 */\n  0x0f\n  sstore\n    /* \"WandInstruments.sol\":1141:1183  0x617F2E2fD72FD9D5503197092aC168c91465E7f2 */\n  0x617f2e2fd72fd9d5503197092ac168c91465e7f2\n    /* \"WandInstruments.sol\":1113:1183  address public testwallet = 0x617F2E2fD72FD9D5503197092aC168c91465E7f2 */\n  0x11\n  exp(0x0100, 0x00)\n  dup2\n  sload\n  dup2\n  0xffffffffffffffffffffffffffffffffffffffff\n  mul\n  not\n  and\n  swap1\n  dup4\n  0xffffffffffffffffffffffffffffffffffffffff\n  and\n  mul\n  or\n  swap1\n  sstore\n  pop\n    /* \"WandInstruments.sol\":1875:2495  constructor(address scepterAddr, address batonAddr) {   \r... */\n  callvalue\n  dup1\n  iszero\n  tag_3\n  jumpi\n  0x00\n  dup1\n  revert\ntag_3:\n  pop\n  mload(0x40)\n  sub(codesize, bytecodeSize)\n  dup1\n  bytecodeSize\n  dup4\n  codecopy\n  dup2\n  dup2\n  add\n  0x40\n  mstore\n  dup2\n  add\n  swap1\n  tag_4\n  swap2\n  swap1\n  tag_5\n  jump\t// in\ntag_4:\n    /* \"WandInstruments.sol\":2045:2054  batonAddr */\n  dup1\n    /* \"WandInstruments.sol\":2033:2036  btn */\n  0x17\n  0x00\n    /* \"WandInstruments.sol\":2033:2055  btn = Baton(batonAddr) */\n  0x0100\n  exp\n  dup2\n  sload\n  dup2\n  0xffffffffffffffffffffffffffffffffffffffff\n  mul\n  not\n  and\n  swap1\n  dup4\n  0xffffffffffffffffffffffffffffffffffffffff\n  and\n  mul\n  or\n  swap1\n  sstore\n  pop\n    /* \"WandInstruments.sol\":2079:2090  scepterAddr */\n  dup2\n    /* \"WandInstruments.sol\":2066:2069  tSC */\n  0x12\n  0x00\n    /* \"WandInstruments.sol\":2066:2091  tSC = IERC20(scepterAddr) */\n  0x0100\n  exp\n  dup2\n  sload\n  dup2\n  0xffffffffffffffffffffffffffffffffffffffff\n  mul\n  not\n  and\n  swap1\n  dup4\n  0xffffffffffffffffffffffffffffffffffffffff\n  and\n  mul\n  or\n  swap1\n  sstore\n  pop\n    /* \"WandInstruments.sol\":2122:2164  0xD7ACd2a9FD159E69Bb102A1ca21C9a3e3A5F771B */\n  0xd7acd2a9fd159e69bb102a1ca21c9a3e3a5f771b\n    /* \"WandInstruments.sol\":2104:2112  mockUSDC */\n  0x13\n  0x00\n    /* \"WandInstruments.sol\":2104:2165  mockUSDC = IERC20(0xD7ACd2a9FD159E69Bb102A1ca21C9a3e3A5F771B) */\n  0x0100\n  exp\n  dup2\n  sload\n  dup2\n  0xffffffffffffffffffffffffffffffffffffffff\n  mul\n  not\n  and\n  swap1\n  dup4\n  0xffffffffffffffffffffffffffffffffffffffff\n  and\n  mul\n  or\n  swap1\n  sstore\n  pop\n    /* \"WandInstruments.sol\":2192:2234  0x617F2E2fD72FD9D5503197092aC168c91465E7f2 */\n  0x617f2e2fd72fd9d5503197092ac168c91465e7f2\n    /* \"WandInstruments.sol\":2176:2189  treasury1Addr */\n  0x06\n  0x00\n    /* \"WandInstruments.sol\":2176:2234  treasury1Addr = 0x617F2E2fD72FD9D5503197092aC168c91465E7f2 */\n  0x0100\n  exp\n  dup2\n  sload\n  dup2\n  0xffffffffffffffffffffffffffffffffffffffff\n  mul\n  not\n  and\n  swap1\n  dup4\n  0xffffffffffffffffffffffffffffffffffffffff\n  and\n  mul\n  or\n  swap1\n  sstore\n  pop\n    /* \"WandInstruments.sol\":2305:2344  decDiv18(ft5daybought,double5daytokens) */\n  tag_8\n    /* \"WandInstruments.sol\":2314:2326  ft5daybought */\n  sload(0x0d)\n    /* \"WandInstruments.sol\":2327:2343  double5daytokens */\n  sload(0x0f)\n    /* \"WandInstruments.sol\":2305:2313  decDiv18 */\n  shl(0x20, tag_9)\n    /* \"WandInstruments.sol\":2305:2344  decDiv18(ft5daybought,double5daytokens) */\n  0x20\n  shr\n  jump\t// in\ntag_8:\n    /* \"WandInstruments.sol\":2292:2304  growthFactor */\n  0x00\n    /* \"WandInstruments.sol\":2292:2344  growthFactor=decDiv18(ft5daybought,double5daytokens) */\n  dup2\n  swap1\n  sstore\n  pop\n    /* \"WandInstruments.sol\":2366:2403  decDiv18(ft5daysold,double5daytokens) */\n  tag_10\n    /* \"WandInstruments.sol\":2375:2385  ft5daysold */\n  sload(0x0e)\n    /* \"WandInstruments.sol\":2386:2402  double5daytokens */\n  sload(0x0f)\n    /* \"WandInstruments.sol\":2366:2374  decDiv18 */\n  shl(0x20, tag_9)\n    /* \"WandInstruments.sol\":2366:2403  decDiv18(ft5daysold,double5daytokens) */\n  0x20\n  shr\n  jump\t// in\ntag_10:\n    /* \"WandInstruments.sol\":2355:2365  sellFactor */\n  0x01\n    /* \"WandInstruments.sol\":2355:2403  sellFactor=decDiv18(ft5daysold,double5daytokens) */\n  dup2\n  swap1\n  sstore\n  pop\n    /* \"WandInstruments.sol\":2429:2444  block.timestamp */\n  timestamp\n    /* \"WandInstruments.sol\":2414:2426  timeLaunched */\n  0x0b\n    /* \"WandInstruments.sol\":2414:2444  timeLaunched = block.timestamp */\n  dup2\n  swap1\n  sstore\n  pop\n    /* \"WandInstruments.sol\":2475:2481  5 days */\n  0x069780\n    /* \"WandInstruments.sol\":2455:2472  daysInCalculation */\n  0x0c\n    /* \"WandInstruments.sol\":2455:2481  daysInCalculation = 5 days */\n  dup2\n  swap1\n  sstore\n  pop\n    /* \"WandInstruments.sol\":1875:2495  constructor(address scepterAddr, address batonAddr) {   \r... */\n  pop\n  pop\n    /* \"WandInstruments.sol\":96:10466  contract testSticks {\r... */\n  jump(tag_11)\n    /* \"WandInstruments.sol\":3452:3631  function decDiv18(uint x, uint y) public pure returns (uint decQuotient) {\r... */\ntag_9:\n    /* \"WandInstruments.sol\":3507:3523  uint decQuotient */\n  0x00\n    /* \"WandInstruments.sol\":3536:3552  uint prod_xTEN18 */\n  dup1\n    /* \"WandInstruments.sol\":3555:3571  mul(x, DECIMALS) */\n  tag_13\n    /* \"WandInstruments.sol\":3559:3560  x */\n  dup5\n    /* \"WandInstruments.sol\":283:289  10**18 */\n  0x0de0b6b3a7640000\n    /* \"WandInstruments.sol\":3555:3558  mul */\n  shl(0x20, tag_14)\n    /* \"WandInstruments.sol\":3555:3571  mul(x, DECIMALS) */\n  0x20\n  shr\n  jump\t// in\ntag_13:\n    /* \"WandInstruments.sol\":3536:3571  uint prod_xTEN18 = mul(x, DECIMALS) */\n  swap1\n  pop\n    /* \"WandInstruments.sol\":3622:3623  y */\n  dup3\n    /* \"WandInstruments.sol\":3596:3619  add(prod_xTEN18, y / 2) */\n  tag_15\n    /* \"WandInstruments.sol\":3600:3611  prod_xTEN18 */\n  dup3\n    /* \"WandInstruments.sol\":3617:3618  2 */\n  0x02\n    /* \"WandInstruments.sol\":3613:3614  y */\n  dup7\n    /* \"WandInstruments.sol\":3613:3618  y / 2 */\n  tag_16\n  swap2\n  swap1\n  tag_17\n  jump\t// in\ntag_16:\n    /* \"WandInstruments.sol\":3596:3599  add */\n  shl(0x20, tag_18)\n    /* \"WandInstruments.sol\":3596:3619  add(prod_xTEN18, y / 2) */\n  0x20\n  shr\n  jump\t// in\ntag_15:\n    /* \"WandInstruments.sol\":3596:3623  add(prod_xTEN18, y / 2) / y */\n  tag_19\n  swap2\n  swap1\n  tag_17\n  jump\t// in\ntag_19:\n    /* \"WandInstruments.sol\":3582:3623  decQuotient = add(prod_xTEN18, y / 2) / y */\n  swap2\n  pop\n    /* \"WandInstruments.sol\":3525:3631  {\r... */\n  pop\n    /* \"WandInstruments.sol\":3452:3631  function decDiv18(uint x, uint y) public pure returns (uint decQuotient) {\r... */\n  swap3\n  swap2\n  pop\n  pop\n  jump\t// out\n    /* \"WandInstruments.sol\":2535:2755  function mul(uint256 a, uint256 b) internal pure returns (uint256) {\r... */\ntag_14:\n    /* \"WandInstruments.sol\":2593:2600  uint256 */\n  0x00\n    /* \"WandInstruments.sol\":2618:2619  0 */\n  dup1\n    /* \"WandInstruments.sol\":2613:2614  a */\n  dup4\n    /* \"WandInstruments.sol\":2613:2619  a == 0 */\n  eq\n    /* \"WandInstruments.sol\":2609:2648  if (a == 0) {\r... */\n  iszero\n  tag_21\n  jumpi\n    /* \"WandInstruments.sol\":2639:2640  0 */\n  0x00\n    /* \"WandInstruments.sol\":2632:2640  return 0 */\n  swap1\n  pop\n  jump(tag_20)\n    /* \"WandInstruments.sol\":2609:2648  if (a == 0) {\r... */\ntag_21:\n    /* \"WandInstruments.sol\":2654:2663  uint256 c */\n  0x00\n    /* \"WandInstruments.sol\":2670:2671  b */\n  dup3\n    /* \"WandInstruments.sol\":2666:2667  a */\n  dup5\n    /* \"WandInstruments.sol\":2666:2671  a * b */\n  tag_22\n  swap2\n  swap1\n  tag_2\n  jump\t// in\ntag_22:\n    /* \"WandInstruments.sol\":2654:2671  uint256 c = a * b */\n  swap1\n  pop\n    /* \"WandInstruments.sol\":2695:2696  b */\n  dup3\n    /* \"WandInstruments.sol\":2690:2691  a */\n  dup5\n    /* \"WandInstruments.sol\":2686:2687  c */\n  dup3\n    /* \"WandInstruments.sol\":2686:2691  c / a */\n  tag_23\n  swap2\n  swap1\n  tag_17\n  jump\t// in\ntag_23:\n    /* \"WandInstruments.sol\":2686:2696  c / a == b */\n  eq\n    /* \"WandInstruments.sol\":2678:2734  require(c / a == b, \"uint overflow from multiplication\") */\n  tag_24\n  jumpi\n  mload(0x40)\n  0x08c379a000000000000000000000000000000000000000000000000000000000\n  dup2\n  mstore\n  0x04\n  add\n  tag_25\n  swap1\n  tag_26\n  jump\t// in\ntag_25:\n  mload(0x40)\n  dup1\n  swap2\n  sub\n  swap1\n  revert\ntag_24:\n    /* \"WandInstruments.sol\":2748:2749  c */\n  dup1\n    /* \"WandInstruments.sol\":2741:2749  return c */\n  swap2\n  pop\n  pop\n    /* \"WandInstruments.sol\":2535:2755  function mul(uint256 a, uint256 b) internal pure returns (uint256) {\r... */\ntag_20:\n  swap3\n  swap2\n  pop\n  pop\n  jump\t// out\n    /* \"WandInstruments.sol\":3097:3268  function add(uint256 a, uint256 b) internal pure returns (uint256) {\r... */\ntag_18:\n    /* \"WandInstruments.sol\":3155:3162  uint256 */\n  0x00\n    /* \"WandInstruments.sol\":3171:3180  uint256 c */\n  dup1\n    /* \"WandInstruments.sol\":3187:3188  b */\n  dup3\n    /* \"WandInstruments.sol\":3183:3184  a */\n  dup5\n    /* \"WandInstruments.sol\":3183:3188  a + b */\n  tag_28\n  swap2\n  swap1\n  tag_29\n  jump\t// in\ntag_28:\n    /* \"WandInstruments.sol\":3171:3188  uint256 c = a + b */\n  swap1\n  pop\n    /* \"WandInstruments.sol\":3208:3209  a */\n  dup4\n    /* \"WandInstruments.sol\":3203:3204  c */\n  dup2\n    /* \"WandInstruments.sol\":3203:3209  c >= a */\n  lt\n  iszero\n    /* \"WandInstruments.sol\":3195:3247  require(c >= a, \"uint overflow from multiplication\") */\n  tag_30\n  jumpi\n  mload(0x40)\n  0x08c379a000000000000000000000000000000000000000000000000000000000\n  dup2\n  mstore\n  0x04\n  add\n  tag_31\n  swap1\n  tag_26\n  jump\t// in\ntag_31:\n  mload(0x40)\n  dup1\n  swap2\n  sub\n  swap1\n  revert\ntag_30:\n    /* \"WandInstruments.sol\":3261:3262  c */\n  dup1\n    /* \"WandInstruments.sol\":3254:3262  return c */\n  swap2\n  pop\n  pop\n    /* \"WandInstruments.sol\":3097:3268  function add(uint256 a, uint256 b) internal pure returns (uint256) {\r... */\n  swap3\n  swap2\n  pop\n  pop\n  jump\t// out\n    /* \"#utility.yul\":7:150   */\ntag_33:\n    /* \"#utility.yul\":64:69   */\n  0x00\n    /* \"#utility.yul\":95:101   */\n  dup2\n    /* \"#utility.yul\":89:102   */\n  mload\n    /* \"#utility.yul\":80:102   */\n  swap1\n  pop\n    /* \"#utility.yul\":111:144   */\n  tag_35\n    /* \"#utility.yul\":138:143   */\n  dup2\n    /* \"#utility.yul\":111:144   */\n  tag_36\n  jump\t// in\ntag_35:\n    /* \"#utility.yul\":7:150   */\n  swap3\n  swap2\n  pop\n  pop\n  jump\t// out\n    /* \"#utility.yul\":156:663   */\ntag_5:\n    /* \"#utility.yul\":235:241   */\n  0x00\n    /* \"#utility.yul\":243:249   */\n  dup1\n    /* \"#utility.yul\":292:294   */\n  0x40\n    /* \"#utility.yul\":280:289   */\n  dup4\n    /* \"#utility.yul\":271:278   */\n  dup6\n    /* \"#utility.yul\":267:290   */\n  sub\n    /* \"#utility.yul\":263:295   */\n  slt\n    /* \"#utility.yul\":260:379   */\n  iszero\n  tag_38\n  jumpi\n    /* \"#utility.yul\":298:377   */\n  tag_39\n  tag_40\n  jump\t// in\ntag_39:\n    /* \"#utility.yul\":260:379   */\ntag_38:\n    /* \"#utility.yul\":418:419   */\n  0x00\n    /* \"#utility.yul\":443:507   */\n  tag_41\n    /* \"#utility.yul\":499:506   */\n  dup6\n    /* \"#utility.yul\":490:496   */\n  dup3\n    /* \"#utility.yul\":479:488   */\n  dup7\n    /* \"#utility.yul\":475:497   */\n  add\n    /* \"#utility.yul\":443:507   */\n  tag_33\n  jump\t// in\ntag_41:\n    /* \"#utility.yul\":433:507   */\n  swap3\n  pop\n    /* \"#utility.yul\":389:517   */\n  pop\n    /* \"#utility.yul\":556:558   */\n  0x20\n    /* \"#utility.yul\":582:646   */\n  tag_42\n    /* \"#utility.yul\":638:645   */\n  dup6\n    /* \"#utility.yul\":629:635   */\n  dup3\n    /* \"#utility.yul\":618:627   */\n  dup7\n    /* \"#utility.yul\":614:636   */\n  add\n    /* \"#utility.yul\":582:646   */\n  tag_33\n  jump\t// in\ntag_42:\n    /* \"#utility.yul\":572:646   */\n  swap2\n  pop\n    /* \"#utility.yul\":527:656   */\n  pop\n    /* \"#utility.yul\":156:663   */\n  swap3\n  pop\n  swap3\n  swap1\n  pop\n  jump\t// out\n    /* \"#utility.yul\":669:1035   */\ntag_43:\n    /* \"#utility.yul\":811:814   */\n  0x00\n    /* \"#utility.yul\":832:899   */\n  tag_45\n    /* \"#utility.yul\":896:898   */\n  0x21\n    /* \"#utility.yul\":891:894   */\n  dup4\n    /* \"#utility.yul\":832:899   */\n  tag_46\n  jump\t// in\ntag_45:\n    /* \"#utility.yul\":825:899   */\n  swap2\n  pop\n    /* \"#utility.yul\":908:1001   */\n  tag_47\n    /* \"#utility.yul\":997:1000   */\n  dup3\n    /* \"#utility.yul\":908:1001   */\n  tag_48\n  jump\t// in\ntag_47:\n    /* \"#utility.yul\":1026:1028   */\n  0x40\n    /* \"#utility.yul\":1021:1024   */\n  dup3\n    /* \"#utility.yul\":1017:1029   */\n  add\n    /* \"#utility.yul\":1010:1029   */\n  swap1\n  pop\n    /* \"#utility.yul\":669:1035   */\n  swap2\n  swap1\n  pop\n  jump\t// out\n    /* \"#utility.yul\":1041:1460   */\ntag_26:\n    /* \"#utility.yul\":1207:1211   */\n  0x00\n    /* \"#utility.yul\":1245:1247   */\n  0x20\n    /* \"#utility.yul\":1234:1243   */\n  dup3\n    /* \"#utility.yul\":1230:1248   */\n  add\n    /* \"#utility.yul\":1222:1248   */\n  swap1\n  pop\n    /* \"#utility.yul\":1294:1303   */\n  dup2\n    /* \"#utility.yul\":1288:1292   */\n  dup2\n    /* \"#utility.yul\":1284:1304   */\n  sub\n    /* \"#utility.yul\":1280:1281   */\n  0x00\n    /* \"#utility.yul\":1269:1278   */\n  dup4\n    /* \"#utility.yul\":1265:1282   */\n  add\n    /* \"#utility.yul\":1258:1305   */\n  mstore\n    /* \"#utility.yul\":1322:1453   */\n  tag_50\n    /* \"#utility.yul\":1448:1452   */\n  dup2\n    /* \"#utility.yul\":1322:1453   */\n  tag_43\n  jump\t// in\ntag_50:\n    /* \"#utility.yul\":1314:1453   */\n  swap1\n  pop\n    /* \"#utility.yul\":1041:1460   */\n  swap2\n  swap1\n  pop\n  jump\t// out\n    /* \"#utility.yul\":1547:1716   */\ntag_46:\n    /* \"#utility.yul\":1631:1642   */\n  0x00\n    /* \"#utility.yul\":1665:1671   */\n  dup3\n    /* \"#utility.yul\":1660:1663   */\n  dup3\n    /* \"#utility.yul\":1653:1672   */\n  mstore\n    /* \"#utility.yul\":1705:1709   */\n  0x20\n    /* \"#utility.yul\":1700:1703   */\n  dup3\n    /* \"#utility.yul\":1696:1710   */\n  add\n    /* \"#utility.yul\":1681:1710   */\n  swap1\n  pop\n    /* \"#utility.yul\":1547:1716   */\n  swap3\n  swap2\n  pop\n  pop\n  jump\t// out\n    /* \"#utility.yul\":1722:2027   */\ntag_29:\n    /* \"#utility.yul\":1762:1765   */\n  0x00\n    /* \"#utility.yul\":1781:1801   */\n  tag_55\n    /* \"#utility.yul\":1799:1800   */\n  dup3\n    /* \"#utility.yul\":1781:1801   */\n  tag_56\n  jump\t// in\ntag_55:\n    /* \"#utility.yul\":1776:1801   */\n  swap2\n  pop\n    /* \"#utility.yul\":1815:1835   */\n  tag_57\n    /* \"#utility.yul\":1833:1834   */\n  dup4\n    /* \"#utility.yul\":1815:1835   */\n  tag_56\n  jump\t// in\ntag_57:\n    /* \"#utility.yul\":1810:1835   */\n  swap3\n  pop\n    /* \"#utility.yul\":1969:1970   */\n  dup3\n    /* \"#utility.yul\":1901:1967   */\n  0xffffffffffffffffffffffffffffffffffffffffffffffffffffffffffffffff\n    /* \"#utility.yul\":1897:1971   */\n  sub\n    /* \"#utility.yul\":1894:1895   */\n  dup3\n    /* \"#utility.yul\":1891:1972   */\n  gt\n    /* \"#utility.yul\":1888:1995   */\n  iszero\n  tag_58\n  jumpi\n    /* \"#utility.yul\":1975:1993   */\n  tag_59\n  tag_60\n  jump\t// in\ntag_59:\n    /* \"#utility.yul\":1888:1995   */\ntag_58:\n    /* \"#utility.yul\":2019:2020   */\n  dup3\n    /* \"#utility.yul\":2016:2017   */\n  dup3\n    /* \"#utility.yul\":2012:2021   */\n  add\n    /* \"#utility.yul\":2005:2021   */\n  swap1\n  pop\n    /* \"#utility.yul\":1722:2027   */\n  swap3\n  swap2\n  pop\n  pop\n  jump\t// out\n    /* \"#utility.yul\":2033:2218   */\ntag_17:\n    /* \"#utility.yul\":2073:2074   */\n  0x00\n    /* \"#utility.yul\":2090:2110   */\n  tag_62\n    /* \"#utility.yul\":2108:2109   */\n  dup3\n    /* \"#utility.yul\":2090:2110   */\n  tag_56\n  jump\t// in\ntag_62:\n    /* \"#utility.yul\":2085:2110   */\n  swap2\n  pop\n    /* \"#utility.yul\":2124:2144   */\n  tag_63\n    /* \"#utility.yul\":2142:2143   */\n  dup4\n    /* \"#utility.yul\":2124:2144   */\n  tag_56\n  jump\t// in\ntag_63:\n    /* \"#utility.yul\":2119:2144   */\n  swap3\n  pop\n    /* \"#utility.yul\":2163:2164   */\n  dup3\n    /* \"#utility.yul\":2153:2188   */\n  tag_64\n  jumpi\n    /* \"#utility.yul\":2168:2186   */\n  tag_65\n  tag_66\n  jump\t// in\ntag_65:\n    /* \"#utility.yul\":2153:2188   */\ntag_64:\n    /* \"#utility.yul\":2210:2211   */\n  dup3\n    /* \"#utility.yul\":2207:2208   */\n  dup3\n    /* \"#utility.yul\":2203:2212   */\n  div\n    /* \"#utility.yul\":2198:2212   */\n  swap1\n  pop\n    /* \"#utility.yul\":2033:2218   */\n  swap3\n  swap2\n  pop\n  pop\n  jump\t// out\n    /* \"#utility.yul\":2224:2572   */\ntag_2:\n    /* \"#utility.yul\":2264:2271   */\n  0x00\n    /* \"#utility.yul\":2287:2307   */\n  tag_68\n    /* \"#utility.yul\":2305:2306   */\n  dup3\n    /* \"#utility.yul\":2287:2307   */\n  tag_56\n  jump\t// in\ntag_68:\n    /* \"#utility.yul\":2282:2307   */\n  swap2\n  pop\n    /* \"#utility.yul\":2321:2341   */\n  tag_69\n    /* \"#utility.yul\":2339:2340   */\n  dup4\n    /* \"#utility.yul\":2321:2341   */\n  tag_56\n  jump\t// in\ntag_69:\n    /* \"#utility.yul\":2316:2341   */\n  swap3\n  pop\n    /* \"#utility.yul\":2509:2510   */\n  dup2\n    /* \"#utility.yul\":2441:2507   */\n  0xffffffffffffffffffffffffffffffffffffffffffffffffffffffffffffffff\n    /* \"#utility.yul\":2437:2511   */\n  div\n    /* \"#utility.yul\":2434:2435   */\n  dup4\n    /* \"#utility.yul\":2431:2512   */\n  gt\n    /* \"#utility.yul\":2426:2427   */\n  dup3\n    /* \"#utility.yul\":2419:2428   */\n  iszero\n    /* \"#utility.yul\":2412:2429   */\n  iszero\n    /* \"#utility.yul\":2408:2513   */\n  and\n    /* \"#utility.yul\":2405:2536   */\n  iszero\n  tag_70\n  jumpi\n    /* \"#utility.yul\":2516:2534   */\n  tag_71\n  tag_60\n  jump\t// in\ntag_71:\n    /* \"#utility.yul\":2405:2536   */\ntag_70:\n    /* \"#utility.yul\":2564:2565   */\n  dup3\n    /* \"#utility.yul\":2561:2562   */\n  dup3\n    /* \"#utility.yul\":2557:2566   */\n  mul\n    /* \"#utility.yul\":2546:2566   */\n  swap1\n  pop\n    /* \"#utility.yul\":2224:2572   */\n  swap3\n  swap2\n  pop\n  pop\n  jump\t// out\n    /* \"#utility.yul\":2578:2674   */\ntag_72:\n    /* \"#utility.yul\":2615:2622   */\n  0x00\n    /* \"#utility.yul\":2644:2668   */\n  tag_74\n    /* \"#utility.yul\":2662:2667   */\n  dup3\n    /* \"#utility.yul\":2644:2668   */\n  tag_75\n  jump\t// in\ntag_74:\n    /* \"#utility.yul\":2633:2668   */\n  swap1\n  pop\n    /* \"#utility.yul\":2578:2674   */\n  swap2\n  swap1\n  pop\n  jump\t// out\n    /* \"#utility.yul\":2680:2806   */\ntag_75:\n    /* \"#utility.yul\":2717:2724   */\n  0x00\n    /* \"#utility.yul\":2757:2799   */\n  0xffffffffffffffffffffffffffffffffffffffff\n    /* \"#utility.yul\":2750:2755   */\n  dup3\n    /* \"#utility.yul\":2746:2800   */\n  and\n    /* \"#utility.yul\":2735:2800   */\n  swap1\n  pop\n    /* \"#utility.yul\":2680:2806   */\n  swap2\n  swap1\n  pop\n  jump\t// out\n    /* \"#utility.yul\":2812:2889   */\ntag_56:\n    /* \"#utility.yul\":2849:2856   */\n  0x00\n    /* \"#utility.yul\":2878:2883   */\n  dup2\n    /* \"#utility.yul\":2867:2883   */\n  swap1\n  pop\n    /* \"#utility.yul\":2812:2889   */\n  swap2\n  swap1\n  pop\n  jump\t// out\n    /* \"#utility.yul\":2895:3075   */\ntag_60:\n    /* \"#utility.yul\":2943:3020   */\n  0x4e487b7100000000000000000000000000000000000000000000000000000000\n    /* \"#utility.yul\":2940:2941   */\n  0x00\n    /* \"#utility.yul\":2933:3021   */\n  mstore\n    /* \"#utility.yul\":3040:3044   */\n  0x11\n    /* \"#utility.yul\":3037:3038   */\n  0x04\n    /* \"#utility.yul\":3030:3045   */\n  mstore\n    /* \"#utility.yul\":3064:3068   */\n  0x24\n    /* \"#utility.yul\":3061:3062   */\n  0x00\n    /* \"#utility.yul\":3054:3069   */\n  revert\n    /* \"#utility.yul\":3081:3261   */\ntag_66:\n    /* \"#utility.yul\":3129:3206   */\n  0x4e487b7100000000000000000000000000000000000000000000000000000000\n    /* \"#utility.yul\":3126:3127   */\n  0x00\n    /* \"#utility.yul\":3119:3207   */\n  mstore\n    /* \"#utility.yul\":3226:3230   */\n  0x12\n    /* \"#utility.yul\":3223:3224   */\n  0x04\n    /* \"#utility.yul\":3216:3231   */\n  mstore\n    /* \"#utility.yul\":3250:3254   */\n  0x24\n    /* \"#utility.yul\":3247:3248   */\n  0x00\n    /* \"#utility.yul\":3240:3255   */\n  revert\n    /* \"#utility.yul\":3390:3507   */\ntag_40:\n    /* \"#utility.yul\":3499:3500   */\n  0x00\n    /* \"#utility.yul\":3496:3497   */\n  dup1\n    /* \"#utility.yul\":3489:3501   */\n  revert\n    /* \"#utility.yul\":3513:3733   */\ntag_48:\n    /* \"#utility.yul\":3653:3687   */\n  0x75696e74206f766572666c6f772066726f6d206d756c7469706c69636174696f\n    /* \"#utility.yul\":3649:3650   */\n  0x00\n    /* \"#utility.yul\":3641:3647   */\n  dup3\n    /* \"#utility.yul\":3637:3651   */\n  add\n    /* \"#utility.yul\":3630:3688   */\n  mstore\n    /* \"#utility.yul\":3722:3725   */\n  0x6e00000000000000000000000000000000000000000000000000000000000000\n    /* \"#utility.yul\":3717:3719   */\n  0x20\n    /* \"#utility.yul\":3709:3715   */\n  dup3\n    /* \"#utility.yul\":3705:3720   */\n  add\n    /* \"#utility.yul\":3698:3726   */\n  mstore\n    /* \"#utility.yul\":3513:3733   */\n  pop\n  jump\t// out\n    /* \"#utility.yul\":3739:3861   */\ntag_36:\n    /* \"#utility.yul\":3812:3836   */\n  tag_85\n    /* \"#utility.yul\":3830:3835   */\n  dup2\n    /* \"#utility.yul\":3812:3836   */\n  tag_72\n  jump\t// in\ntag_85:\n    /* \"#utility.yul\":3805:3810   */\n  dup2\n    /* \"#utility.yul\":3802:3837   */\n  eq\n    /* \"#utility.yul\":3792:3855   */\n  tag_86\n  jumpi\n    /* \"#utility.yul\":3851:3852   */\n  0x00\n    /* \"#utility.yul\":3848:3849   */\n  dup1\n    /* \"#utility.yul\":3841:3853   */\n  revert\n    /* \"#utility.yul\":3792:3855   */\ntag_86:\n    /* \"#utility.yul\":3739:3861   */\n  pop\n  jump\t// out\n    /* \"WandInstruments.sol\":96:10466  contract testSticks {\r... */\ntag_11:\n  dataSize(sub_0)\n  dup1\n  dataOffset(sub_0)\n  0x00\n  codecopy\n  0x00\n  return\nstop\n\nsub_0: assembly {\n        /* \"WandInstruments.sol\":96:10466  contract testSticks {\r... */\n      mstore(0x40, 0x80)\n      jumpi(tag_1, lt(calldatasize, 0x04))\n      shr(0xe0, calldataload(0x00))\n      dup1\n      0x67b48c91\n      gt\n      tag_35\n      jumpi\n      dup1\n      0xd82eddf2\n      gt\n      tag_36\n      jumpi\n      dup1\n      0xeee05f5e\n      gt\n      tag_37\n      jumpi\n      dup1\n      0xeee05f5e\n      eq\n      tag_30\n      jumpi\n      dup1\n      0xf7523c52\n      eq\n      tag_31\n      jumpi\n      dup1\n      0xfbbb4589\n      eq\n      tag_32\n      jumpi\n      dup1\n      0xfc361443\n      eq\n      tag_33\n      jumpi\n      dup1\n      0xff357f5b\n      eq\n      tag_34\n      jumpi\n      jump(tag_1)\n    tag_37:\n      dup1\n      0xd82eddf2\n      eq\n      tag_26\n      jumpi\n      dup1\n      0xee467678\n      eq\n      tag_27\n      jumpi\n      dup1\n      0xee546a51\n      eq\n      tag_28\n      jumpi\n      dup1\n      0xee620868\n      eq\n      tag_29\n      jumpi\n      jump(tag_1)\n    tag_36:\n      dup1\n      0x71cd58f9\n      gt\n      tag_38\n      jumpi\n      dup1\n      0x71cd58f9\n      eq\n      tag_22\n      jumpi\n      dup1\n      0x93f7b711\n      eq\n      tag_23\n      jumpi\n      dup1\n      0xc079d7f6\n      eq\n      tag_24\n      jumpi\n      dup1\n      0xcbff4617\n      eq\n      tag_25\n      jumpi\n      jump(tag_1)\n    tag_38:\n      dup1\n      0x67b48c91\n      eq\n      tag_18\n      jumpi\n      dup1\n      0x67e927a8\n      eq\n      tag_19\n      jumpi\n      dup1\n      0x6e05c1b9\n      eq\n      tag_20\n      jumpi\n      dup1\n      0x6f10e285\n      eq\n      tag_21\n      jumpi\n      jump(tag_1)\n    tag_35:\n      dup1\n      0x29982a32\n      gt\n      tag_39\n      jumpi\n      dup1\n      0x43d32e9c\n      gt\n      tag_40\n      jumpi\n      dup1\n      0x43d32e9c\n      eq\n      tag_14\n      jumpi\n      dup1\n      0x46bfe626\n      eq\n      tag_15\n      jumpi\n      dup1\n      0x64ce07d8\n      eq\n      tag_16\n      jumpi\n      dup1\n      0x65819f7e\n      eq\n      tag_17\n      jumpi\n      jump(tag_1)\n    tag_40:\n      dup1\n      0x29982a32\n      eq\n      tag_10\n      jumpi\n      dup1\n      0x2a9f0fb1\n      eq\n      tag_11\n      jumpi\n      dup1\n      0x35453307\n      eq\n      tag_12\n      jumpi\n      dup1\n      0x3c6eb17a\n      eq\n      tag_13\n      jumpi\n      jump(tag_1)\n    tag_39:\n      dup1\n      0x1514c976\n      gt\n      tag_41\n      jumpi\n      dup1\n      0x1514c976\n      eq\n      tag_6\n      jumpi\n      dup1\n      0x164c8501\n      eq\n      tag_7\n      jumpi\n      dup1\n      0x1bc9cc45\n      eq\n      tag_8\n      jumpi\n      dup1\n      0x1f564a06\n      eq\n      tag_9\n      jumpi\n      jump(tag_1)\n    tag_41:\n      dup1\n      0x018a25e8\n      eq\n      tag_2\n      jumpi\n      dup1\n      0x047729b0\n      eq\n      tag_3\n      jumpi\n      dup1\n      0x0ccaf04f\n      eq\n      tag_4\n      jumpi\n      dup1\n      0x12b2ed94\n      eq\n      tag_5\n      jumpi\n    tag_1:\n      0x00\n      dup1\n      revert\n        /* \"WandInstruments.sol\":9730:9952  function getBuyPrice() external view returns (uint256){\r... */\n    tag_2:\n      callvalue\n      dup1\n      iszero\n      tag_42\n      jumpi\n      0x00\n      dup1\n      revert\n    tag_42:\n      pop\n      tag_43\n      tag_44\n      jump\t// in\n    tag_43:\n      mload(0x40)\n      tag_45\n      swap2\n      swap1\n      tag_46\n      jump\t// in\n    tag_45:\n      mload(0x40)\n      dup1\n      swap2\n      sub\n      swap1\n      return\n        /* \"WandInstruments.sol\":622:653  address public riskTreasuryAddr */\n    tag_3:\n      callvalue\n      dup1\n      iszero\n      tag_47\n      jumpi\n      0x00\n      dup1\n      revert\n    tag_47:\n      pop\n      tag_48\n      tag_49\n      jump\t// in\n    tag_48:\n      mload(0x40)\n      tag_50\n      swap2\n      swap1\n      tag_51\n      jump\t// in\n    tag_50:\n      mload(0x40)\n      dup1\n      swap2\n      sub\n      swap1\n      return\n        /* \"WandInstruments.sol\":9168:9504  function getSellFactor() external view returns (uint256){\r... */\n    tag_4:\n      callvalue\n      dup1\n      iszero\n      tag_52\n      jumpi\n      0x00\n      dup1\n      revert\n    tag_52:\n      pop\n      tag_53\n      tag_54\n      jump\t// in\n    tag_53:\n      mload(0x40)\n      tag_55\n      swap2\n      swap1\n      tag_46\n      jump\t// in\n    tag_55:\n      mload(0x40)\n      dup1\n      swap2\n      sub\n      swap1\n      return\n        /* \"WandInstruments.sol\":1660:1720  mapping(address => lockedamounts) public withheldWithdrawals */\n    tag_5:\n      callvalue\n      dup1\n      iszero\n      tag_56\n      jumpi\n      0x00\n      dup1\n      revert\n    tag_56:\n      pop\n      tag_57\n      0x04\n      dup1\n      calldatasize\n      sub\n      dup2\n      add\n      swap1\n      tag_58\n      swap2\n      swap1\n      tag_59\n      jump\t// in\n    tag_58:\n      tag_60\n      jump\t// in\n    tag_57:\n      mload(0x40)\n      tag_61\n      swap3\n      swap2\n      swap1\n      tag_62\n      jump\t// in\n    tag_61:\n      mload(0x40)\n      dup1\n      swap2\n      sub\n      swap1\n      return\n        /* \"WandInstruments.sol\":1496:1546  mapping(uint256 => uint256) public tokensSoldXDays */\n    tag_6:\n      callvalue\n      dup1\n      iszero\n      tag_63\n      jumpi\n      0x00\n      dup1\n      revert\n    tag_63:\n      pop\n      tag_64\n      0x04\n      dup1\n      calldatasize\n      sub\n      dup2\n      add\n      swap1\n      tag_65\n      swap2\n      swap1\n      tag_66\n      jump\t// in\n    tag_65:\n      tag_67\n      jump\t// in\n    tag_64:\n      mload(0x40)\n      tag_68\n      swap2\n      swap1\n      tag_46\n      jump\t// in\n    tag_68:\n      mload(0x40)\n      dup1\n      swap2\n      sub\n      swap1\n      return\n        /* \"WandInstruments.sol\":7577:8075  function testUpdatetimeLockedminus(uint256 amt) public  {\r... */\n    tag_7:\n      callvalue\n      dup1\n      iszero\n      tag_69\n      jumpi\n      0x00\n      dup1\n      revert\n    tag_69:\n      pop\n      tag_70\n      0x04\n      dup1\n      calldatasize\n      sub\n      dup2\n      add\n      swap1\n      tag_71\n      swap2\n      swap1\n      tag_66\n      jump\t// in\n    tag_71:\n      tag_72\n      jump\t// in\n    tag_70:\n      stop\n        /* \"WandInstruments.sol\":5499:6083  function transformScepterToBaton(uint256 amountSCPtoSwap) public payable{\r... */\n    tag_8:\n      tag_73\n      0x04\n      dup1\n      calldatasize\n      sub\n      dup2\n      add\n      swap1\n      tag_74\n      swap2\n      swap1\n      tag_66\n      jump\t// in\n    tag_74:\n      tag_75\n      jump\t// in\n    tag_73:\n      stop\n        /* \"WandInstruments.sol\":9510:9724  function getBackingPrice() external view returns (uint256){\r... */\n    tag_9:\n      callvalue\n      dup1\n      iszero\n      tag_76\n      jumpi\n      0x00\n      dup1\n      revert\n    tag_76:\n      pop\n      tag_77\n      tag_78\n      jump\t// in\n    tag_77:\n      mload(0x40)\n      tag_79\n      swap2\n      swap1\n      tag_46\n      jump\t// in\n    tag_79:\n      mload(0x40)\n      dup1\n      swap2\n      sub\n      swap1\n      return\n        /* \"WandInstruments.sol\":660:688  address public devWalletAddr */\n    tag_10:\n      callvalue\n      dup1\n      iszero\n      tag_80\n      jumpi\n      0x00\n      dup1\n      revert\n    tag_80:\n      pop\n      tag_81\n      tag_82\n      jump\t// in\n    tag_81:\n      mload(0x40)\n      tag_83\n      swap2\n      swap1\n      tag_51\n      jump\t// in\n    tag_83:\n      mload(0x40)\n      dup1\n      swap2\n      sub\n      swap1\n      return\n        /* \"WandInstruments.sol\":1437:1489  mapping(uint256 => uint256) public tokensBoughtXDays */\n    tag_11:\n      callvalue\n      dup1\n      iszero\n      tag_84\n      jumpi\n      0x00\n      dup1\n      revert\n    tag_84:\n      pop\n      tag_85\n      0x04\n      dup1\n      calldatasize\n      sub\n      dup2\n      add\n      swap1\n      tag_86\n      swap2\n      swap1\n      tag_66\n      jump\t// in\n    tag_86:\n      tag_87\n      jump\t// in\n    tag_85:\n      mload(0x40)\n      tag_88\n      swap2\n      swap1\n      tag_46\n      jump\t// in\n    tag_88:\n      mload(0x40)\n      dup1\n      swap2\n      sub\n      swap1\n      return\n        /* \"WandInstruments.sol\":729:775  uint256 public treasury1bal = 50000*(DECIMALS) */\n    tag_12:\n      callvalue\n      dup1\n      iszero\n      tag_89\n      jumpi\n      0x00\n      dup1\n      revert\n    tag_89:\n      pop\n      tag_90\n      tag_91\n      jump\t// in\n    tag_90:\n      mload(0x40)\n      tag_92\n      swap2\n      swap1\n      tag_46\n      jump\t// in\n    tag_92:\n      mload(0x40)\n      dup1\n      swap2\n      sub\n      swap1\n      return\n        /* \"WandInstruments.sol\":804:831  uint256 public timeLaunched */\n    tag_13:\n      callvalue\n      dup1\n      iszero\n      tag_93\n      jumpi\n      0x00\n      dup1\n      revert\n    tag_93:\n      pop\n      tag_94\n      tag_95\n      jump\t// in\n    tag_94:\n      mload(0x40)\n      tag_96\n      swap2\n      swap1\n      tag_46\n      jump\t// in\n    tag_96:\n      mload(0x40)\n      dup1\n      swap2\n      sub\n      swap1\n      return\n        /* \"WandInstruments.sol\":9958:10181  function getSellPrice() external view returns (uint256){\r... */\n    tag_14:\n      callvalue\n      dup1\n      iszero\n      tag_97\n      jumpi\n      0x00\n      dup1\n      revert\n    tag_97:\n      pop\n      tag_98\n      tag_99\n      jump\t// in\n    tag_98:\n      mload(0x40)\n      tag_100\n      swap2\n      swap1\n      tag_46\n      jump\t// in\n    tag_100:\n      mload(0x40)\n      dup1\n      swap2\n      sub\n      swap1\n      return\n        /* \"WandInstruments.sol\":4110:4300  function testMappings(uint256 t, uint256 _amt) public returns (uint256)\r... */\n    tag_15:\n      callvalue\n      dup1\n      iszero\n      tag_101\n      jumpi\n      0x00\n      dup1\n      revert\n    tag_101:\n      pop\n      tag_102\n      0x04\n      dup1\n      calldatasize\n      sub\n      dup2\n      add\n      swap1\n      tag_103\n      swap2\n      swap1\n      tag_104\n      jump\t// in\n    tag_103:\n      tag_105\n      jump\t// in\n    tag_102:\n      mload(0x40)\n      tag_106\n      swap2\n      swap1\n      tag_46\n      jump\t// in\n    tag_106:\n      mload(0x40)\n      dup1\n      swap2\n      sub\n      swap1\n      return\n        /* \"WandInstruments.sol\":3452:3631  function decDiv18(uint x, uint y) public pure returns (uint decQuotient) {\r... */\n    tag_16:\n      callvalue\n      dup1\n      iszero\n      tag_107\n      jumpi\n      0x00\n      dup1\n      revert\n    tag_107:\n      pop\n      tag_108\n      0x04\n      dup1\n      calldatasize\n      sub\n      dup2\n      add\n      swap1\n      tag_109\n      swap2\n      swap1\n      tag_104\n      jump\t// in\n    tag_109:\n      tag_110\n      jump\t// in\n    tag_108:\n      mload(0x40)\n      tag_111\n      swap2\n      swap1\n      tag_46\n      jump\t// in\n    tag_111:\n      mload(0x40)\n      dup1\n      swap2\n      sub\n      swap1\n      return\n        /* \"WandInstruments.sol\":6089:7101  function buyScepter(uint256 amountSCPtoBuy) public payable{\r... */\n    tag_17:\n      tag_112\n      0x04\n      dup1\n      calldatasize\n      sub\n      dup2\n      add\n      swap1\n      tag_113\n      swap2\n      swap1\n      tag_66\n      jump\t// in\n    tag_113:\n      tag_114\n      jump\t// in\n    tag_112:\n      stop\n        /* \"WandInstruments.sol\":838:870  uint256 public daysInCalculation */\n    tag_18:\n      callvalue\n      dup1\n      iszero\n      tag_115\n      jumpi\n      0x00\n      dup1\n      revert\n    tag_115:\n      pop\n      tag_116\n      tag_117\n      jump\t// in\n    tag_116:\n      mload(0x40)\n      tag_118\n      swap2\n      swap1\n      tag_46\n      jump\t// in\n    tag_118:\n      mload(0x40)\n      dup1\n      swap2\n      sub\n      swap1\n      return\n        /* \"WandInstruments.sol\":7107:7571  function testUpdatetimeLockedplus(uint256 amt) public  {\r... */\n    tag_19:\n      callvalue\n      dup1\n      iszero\n      tag_119\n      jumpi\n      0x00\n      dup1\n      revert\n    tag_119:\n      pop\n      tag_120\n      0x04\n      dup1\n      calldatasize\n      sub\n      dup2\n      add\n      swap1\n      tag_121\n      swap2\n      swap1\n      tag_66\n      jump\t// in\n    tag_121:\n      tag_122\n      jump\t// in\n    tag_120:\n      stop\n        /* \"WandInstruments.sol\":1311:1328  IERC20 public tSC */\n    tag_20:\n      callvalue\n      dup1\n      iszero\n      tag_123\n      jumpi\n      0x00\n      dup1\n      revert\n    tag_123:\n      pop\n      tag_124\n      tag_125\n      jump\t// in\n    tag_124:\n      mload(0x40)\n      tag_126\n      swap2\n      swap1\n      tag_127\n      jump\t// in\n    tag_126:\n      mload(0x40)\n      dup1\n      swap2\n      sub\n      swap1\n      return\n        /* \"WandInstruments.sol\":1089:1106  int128 public res */\n    tag_21:\n      callvalue\n      dup1\n      iszero\n      tag_128\n      jumpi\n      0x00\n      dup1\n      revert\n    tag_128:\n      pop\n      tag_129\n      tag_130\n      jump\t// in\n    tag_129:\n      mload(0x40)\n      tag_131\n      swap2\n      swap1\n      tag_132\n      jump\t// in\n    tag_131:\n      mload(0x40)\n      dup1\n      swap2\n      sub\n      swap1\n      return\n        /* \"WandInstruments.sol\":8186:8505  function getTokensBoughtXDays() external view returns (uint256){\r... */\n    tag_22:\n      callvalue\n      dup1\n      iszero\n      tag_133\n      jumpi\n      0x00\n      dup1\n      revert\n    tag_133:\n      pop\n      tag_134\n      tag_135\n      jump\t// in\n    tag_134:\n      mload(0x40)\n      tag_136\n      swap2\n      swap1\n      tag_46\n      jump\t// in\n    tag_136:\n      mload(0x40)\n      dup1\n      swap2\n      sub\n      swap1\n      return\n        /* \"WandInstruments.sol\":8820:9162  function getGrowthFactor() external view returns (uint256){\r... */\n    tag_23:\n      callvalue\n      dup1\n      iszero\n      tag_137\n      jumpi\n      0x00\n      dup1\n      revert\n    tag_137:\n      pop\n      tag_138\n      tag_139\n      jump\t// in\n    tag_138:\n      mload(0x40)\n      tag_140\n      swap2\n      swap1\n      tag_46\n      jump\t// in\n    tag_140:\n      mload(0x40)\n      dup1\n      swap2\n      sub\n      swap1\n      return\n        /* \"WandInstruments.sol\":581:615  address public scepterTreasuryAddr */\n    tag_24:\n      callvalue\n      dup1\n      iszero\n      tag_141\n      jumpi\n      0x00\n      dup1\n      revert\n    tag_141:\n      pop\n      tag_142\n      tag_143\n      jump\t// in\n    tag_142:\n      mload(0x40)\n      tag_144\n      swap2\n      swap1\n      tag_51\n      jump\t// in\n    tag_144:\n      mload(0x40)\n      dup1\n      swap2\n      sub\n      swap1\n      return\n        /* \"WandInstruments.sol\":332:357  uint256 public sellFactor */\n    tag_25:\n      callvalue\n      dup1\n      iszero\n      tag_145\n      jumpi\n      0x00\n      dup1\n      revert\n    tag_145:\n      pop\n      tag_146\n      tag_147\n      jump\t// in\n    tag_146:\n      mload(0x40)\n      tag_148\n      swap2\n      swap1\n      tag_46\n      jump\t// in\n    tag_148:\n      mload(0x40)\n      dup1\n      swap2\n      sub\n      swap1\n      return\n        /* \"WandInstruments.sol\":8511:8814  function getTokensSoldXDays() external view returns (uint256){\r... */\n    tag_26:\n      callvalue\n      dup1\n      iszero\n      tag_149\n      jumpi\n      0x00\n      dup1\n      revert\n    tag_149:\n      pop\n      tag_150\n      tag_151\n      jump\t// in\n    tag_150:\n      mload(0x40)\n      tag_152\n      swap2\n      swap1\n      tag_46\n      jump\t// in\n    tag_152:\n      mload(0x40)\n      dup1\n      swap2\n      sub\n      swap1\n      return\n        /* \"WandInstruments.sol\":1357:1379  IERC20 public mockUSDC */\n    tag_27:\n      callvalue\n      dup1\n      iszero\n      tag_153\n      jumpi\n      0x00\n      dup1\n      revert\n    tag_153:\n      pop\n      tag_154\n      tag_155\n      jump\t// in\n    tag_154:\n      mload(0x40)\n      tag_156\n      swap2\n      swap1\n      tag_127\n      jump\t// in\n    tag_156:\n      mload(0x40)\n      dup1\n      swap2\n      sub\n      swap1\n      return\n        /* \"WandInstruments.sol\":3639:3823  function queryERC20Balance(address _tokenAddress, address _addressToQuery) view public returns (uint) {\r... */\n    tag_28:\n      callvalue\n      dup1\n      iszero\n      tag_157\n      jumpi\n      0x00\n      dup1\n      revert\n    tag_157:\n      pop\n      tag_158\n      0x04\n      dup1\n      calldatasize\n      sub\n      dup2\n      add\n      swap1\n      tag_159\n      swap2\n      swap1\n      tag_160\n      jump\t// in\n    tag_159:\n      tag_161\n      jump\t// in\n    tag_158:\n      mload(0x40)\n      tag_162\n      swap2\n      swap1\n      tag_46\n      jump\t// in\n    tag_162:\n      mload(0x40)\n      dup1\n      swap2\n      sub\n      swap1\n      return\n        /* \"WandInstruments.sol\":298:325  uint256 public growthFactor */\n    tag_29:\n      callvalue\n      dup1\n      iszero\n      tag_163\n      jumpi\n      0x00\n      dup1\n      revert\n    tag_163:\n      pop\n      tag_164\n      tag_165\n      jump\t// in\n    tag_164:\n      mload(0x40)\n      tag_166\n      swap2\n      swap1\n      tag_46\n      jump\t// in\n    tag_166:\n      mload(0x40)\n      dup1\n      swap2\n      sub\n      swap1\n      return\n        /* \"WandInstruments.sol\":1113:1183  address public testwallet = 0x617F2E2fD72FD9D5503197092aC168c91465E7f2 */\n    tag_30:\n      callvalue\n      dup1\n      iszero\n      tag_167\n      jumpi\n      0x00\n      dup1\n      revert\n    tag_167:\n      pop\n      tag_168\n      tag_169\n      jump\t// in\n    tag_168:\n      mload(0x40)\n      tag_170\n      swap2\n      swap1\n      tag_51\n      jump\t// in\n    tag_170:\n      mload(0x40)\n      dup1\n      swap2\n      sub\n      swap1\n      return\n        /* \"WandInstruments.sol\":3274:3444  function decMul18(uint x, uint y) public pure returns (uint decProd) {\r... */\n    tag_31:\n      callvalue\n      dup1\n      iszero\n      tag_171\n      jumpi\n      0x00\n      dup1\n      revert\n    tag_171:\n      pop\n      tag_172\n      0x04\n      dup1\n      calldatasize\n      sub\n      dup2\n      add\n      swap1\n      tag_173\n      swap2\n      swap1\n      tag_104\n      jump\t// in\n    tag_173:\n      tag_174\n      jump\t// in\n    tag_172:\n      mload(0x40)\n      tag_175\n      swap2\n      swap1\n      tag_46\n      jump\t// in\n    tag_175:\n      mload(0x40)\n      dup1\n      swap2\n      sub\n      swap1\n      return\n        /* \"WandInstruments.sol\":546:574  address public treasury1Addr */\n    tag_32:\n      callvalue\n      dup1\n      iszero\n      tag_176\n      jumpi\n      0x00\n      dup1\n      revert\n    tag_176:\n      pop\n      tag_177\n      tag_178\n      jump\t// in\n    tag_177:\n      mload(0x40)\n      tag_179\n      swap2\n      swap1\n      tag_51\n      jump\t// in\n    tag_179:\n      mload(0x40)\n      dup1\n      swap2\n      sub\n      swap1\n      return\n        /* \"WandInstruments.sol\":3954:4104  function setDaysUsedInFactors(uint256 numDays) public {  \r... */\n    tag_33:\n      callvalue\n      dup1\n      iszero\n      tag_180\n      jumpi\n      0x00\n      dup1\n      revert\n    tag_180:\n      pop\n      tag_181\n      0x04\n      dup1\n      calldatasize\n      sub\n      dup2\n      add\n      swap1\n      tag_182\n      swap2\n      swap1\n      tag_66\n      jump\t// in\n    tag_182:\n      tag_183\n      jump\t// in\n    tag_181:\n      stop\n        /* \"WandInstruments.sol\":4306:5493  function cashOutScepter(uint256 amountSCPtoSell) public payable{\r... */\n    tag_34:\n      tag_184\n      0x04\n      dup1\n      calldatasize\n      sub\n      dup2\n      add\n      swap1\n      tag_185\n      swap2\n      swap1\n      tag_66\n      jump\t// in\n    tag_185:\n      tag_186\n      jump\t// in\n    tag_184:\n      stop\n        /* \"WandInstruments.sol\":9730:9952  function getBuyPrice() external view returns (uint256){\r... */\n    tag_44:\n        /* \"WandInstruments.sol\":9776:9783  uint256 */\n      0x00\n        /* \"WandInstruments.sol\":9861:9942  decMul18(this.getBackingPrice() , (1200000000000000000 + this.getGrowthFactor())) */\n      tag_188\n        /* \"WandInstruments.sol\":9870:9874  this */\n      address\n        /* \"WandInstruments.sol\":9870:9890  this.getBackingPrice */\n      0xffffffffffffffffffffffffffffffffffffffff\n      and\n      0x1f564a06\n        /* \"WandInstruments.sol\":9870:9892  this.getBackingPrice() */\n      mload(0x40)\n      dup2\n      0xffffffff\n      and\n      0xe0\n      shl\n      dup2\n      mstore\n      0x04\n      add\n      0x20\n      mload(0x40)\n      dup1\n      dup4\n      sub\n      dup2\n      dup7\n      dup1\n      extcodesize\n      iszero\n      dup1\n      iszero\n      tag_189\n      jumpi\n      0x00\n      dup1\n      revert\n    tag_189:\n      pop\n      gas\n      staticcall\n      iszero\n      dup1\n      iszero\n      tag_191\n      jumpi\n      returndatasize\n      0x00\n      dup1\n      returndatacopy\n      revert(0x00, returndatasize)\n    tag_191:\n      pop\n      pop\n      pop\n      pop\n      mload(0x40)\n      returndatasize\n      not(0x1f)\n      0x1f\n      dup3\n      add\n      and\n      dup3\n      add\n      dup1\n      0x40\n      mstore\n      pop\n      dup2\n      add\n      swap1\n      tag_192\n      swap2\n      swap1\n      tag_193\n      jump\t// in\n    tag_192:\n        /* \"WandInstruments.sol\":9918:9922  this */\n      address\n        /* \"WandInstruments.sol\":9918:9938  this.getGrowthFactor */\n      0xffffffffffffffffffffffffffffffffffffffff\n      and\n      0x93f7b711\n        /* \"WandInstruments.sol\":9918:9940  this.getGrowthFactor() */\n      mload(0x40)\n      dup2\n      0xffffffff\n      and\n      0xe0\n      shl\n      dup2\n      mstore\n      0x04\n      add\n      0x20\n      mload(0x40)\n      dup1\n      dup4\n      sub\n      dup2\n      dup7\n      dup1\n      extcodesize\n      iszero\n      dup1\n      iszero\n      tag_194\n      jumpi\n      0x00\n      dup1\n      revert\n    tag_194:\n      pop\n      gas\n      staticcall\n      iszero\n      dup1\n      iszero\n      tag_196\n      jumpi\n      returndatasize\n      0x00\n      dup1\n      returndatacopy\n      revert(0x00, returndatasize)\n    tag_196:\n      pop\n      pop\n      pop\n      pop\n      mload(0x40)\n      returndatasize\n      not(0x1f)\n      0x1f\n      dup3\n      add\n      and\n      dup3\n      add\n      dup1\n      0x40\n      mstore\n      pop\n      dup2\n      add\n      swap1\n      tag_197\n      swap2\n      swap1\n      tag_193\n      jump\t// in\n    tag_197:\n        /* \"WandInstruments.sol\":9896:9915  1200000000000000000 */\n      0x10a741a462780000\n        /* \"WandInstruments.sol\":9896:9940  1200000000000000000 + this.getGrowthFactor() */\n      tag_198\n      swap2\n      swap1\n      tag_199\n      jump\t// in\n    tag_198:\n        /* \"WandInstruments.sol\":9861:9869  decMul18 */\n      tag_174\n        /* \"WandInstruments.sol\":9861:9942  decMul18(this.getBackingPrice() , (1200000000000000000 + this.getGrowthFactor())) */\n      jump\t// in\n    tag_188:\n        /* \"WandInstruments.sol\":9854:9942  return decMul18(this.getBackingPrice() , (1200000000000000000 + this.getGrowthFactor())) */\n      swap1\n      pop\n        /* \"WandInstruments.sol\":9730:9952  function getBuyPrice() external view returns (uint256){\r... */\n      swap1\n      jump\t// out\n        /* \"WandInstruments.sol\":622:653  address public riskTreasuryAddr */\n    tag_49:\n      0x08\n      0x00\n      swap1\n      sload\n      swap1\n      0x0100\n      exp\n      swap1\n      div\n      0xffffffffffffffffffffffffffffffffffffffff\n      and\n      dup2\n      jump\t// out\n        /* \"WandInstruments.sol\":9168:9504  function getSellFactor() external view returns (uint256){\r... */\n    tag_54:\n        /* \"WandInstruments.sol\":9216:9223  uint256 */\n      0x00\n        /* \"WandInstruments.sol\":9314:9325  uint256 _sF */\n      dup1\n        /* \"WandInstruments.sol\":9342:9379  decDiv18(ft5daysold,double5daytokens) */\n      tag_201\n        /* \"WandInstruments.sol\":9351:9361  ft5daysold */\n      sload(0x0e)\n        /* \"WandInstruments.sol\":9362:9378  double5daytokens */\n      sload(0x0f)\n        /* \"WandInstruments.sol\":9342:9350  decDiv18 */\n      tag_110\n        /* \"WandInstruments.sol\":9342:9379  decDiv18(ft5daysold,double5daytokens) */\n      jump\t// in\n    tag_201:\n        /* \"WandInstruments.sol\":9336:9379  _sF = decDiv18(ft5daysold,double5daytokens) */\n      swap1\n      pop\n        /* \"WandInstruments.sol\":9399:9417  300000000000000000 */\n      0x0429d069189e0000\n        /* \"WandInstruments.sol\":9393:9396  _sF */\n      dup2\n        /* \"WandInstruments.sol\":9393:9417  _sF > 300000000000000000 */\n      gt\n        /* \"WandInstruments.sol\":9389:9476  if (_sF > 300000000000000000)\r... */\n      iszero\n      tag_202\n      jumpi\n        /* \"WandInstruments.sol\":9447:9465  300000000000000000 */\n      0x0429d069189e0000\n        /* \"WandInstruments.sol\":9441:9465  _sF = 300000000000000000 */\n      swap1\n      pop\n        /* \"WandInstruments.sol\":9389:9476  if (_sF > 300000000000000000)\r... */\n    tag_202:\n        /* \"WandInstruments.sol\":9492:9495  _sF */\n      dup1\n        /* \"WandInstruments.sol\":9485:9495  return _sF */\n      swap2\n      pop\n      pop\n        /* \"WandInstruments.sol\":9168:9504  function getSellFactor() external view returns (uint256){\r... */\n      swap1\n      jump\t// out\n        /* \"WandInstruments.sol\":1660:1720  mapping(address => lockedamounts) public withheldWithdrawals */\n    tag_60:\n      mstore(0x20, 0x16)\n      dup1\n      0x00\n      mstore\n      keccak256(0x00, 0x40)\n      0x00\n      swap2\n      pop\n      swap1\n      pop\n      dup1\n      0x00\n      add\n      sload\n      swap1\n      dup1\n      0x01\n      add\n      sload\n      swap1\n      pop\n      dup3\n      jump\t// out\n        /* \"WandInstruments.sol\":1496:1546  mapping(uint256 => uint256) public tokensSoldXDays */\n    tag_67:\n      mstore(0x20, 0x15)\n      dup1\n      0x00\n      mstore\n      keccak256(0x00, 0x40)\n      0x00\n      swap2\n      pop\n      swap1\n      pop\n      sload\n      dup2\n      jump\t// out\n        /* \"WandInstruments.sol\":7577:8075  function testUpdatetimeLockedminus(uint256 amt) public  {\r... */\n    tag_72:\n        /* \"WandInstruments.sol\":7658:7677  withheldWithdrawals */\n      0x16\n        /* \"WandInstruments.sol\":7658:7689  withheldWithdrawals[msg.sender] */\n      0x00\n        /* \"WandInstruments.sol\":7678:7688  msg.sender */\n      caller\n        /* \"WandInstruments.sol\":7658:7689  withheldWithdrawals[msg.sender] */\n      0xffffffffffffffffffffffffffffffffffffffff\n      and\n      0xffffffffffffffffffffffffffffffffffffffff\n      and\n      dup2\n      mstore\n      0x20\n      add\n      swap1\n      dup2\n      mstore\n      0x20\n      add\n      0x00\n      keccak256\n        /* \"WandInstruments.sol\":7658:7697  withheldWithdrawals[msg.sender].amounts */\n      0x01\n      add\n      sload\n        /* \"WandInstruments.sol\":7652:7655  amt */\n      dup2\n        /* \"WandInstruments.sol\":7652:7697  amt < withheldWithdrawals[msg.sender].amounts */\n      lt\n        /* \"WandInstruments.sol\":7644:7738  require(amt < withheldWithdrawals[msg.sender].amounts, \"You dont have that much to withdraw!\") */\n      tag_204\n      jumpi\n      mload(0x40)\n      0x08c379a000000000000000000000000000000000000000000000000000000000\n      dup2\n      mstore\n      0x04\n      add\n      tag_205\n      swap1\n      tag_206\n      jump\t// in\n    tag_205:\n      mload(0x40)\n      dup1\n      swap2\n      sub\n      swap1\n      revert\n    tag_204:\n        /* \"WandInstruments.sol\":7943:7946  amt */\n      dup1\n        /* \"WandInstruments.sol\":7900:7919  withheldWithdrawals */\n      0x16\n        /* \"WandInstruments.sol\":7900:7931  withheldWithdrawals[msg.sender] */\n      0x00\n        /* \"WandInstruments.sol\":7920:7930  msg.sender */\n      caller\n        /* \"WandInstruments.sol\":7900:7931  withheldWithdrawals[msg.sender] */\n      0xffffffffffffffffffffffffffffffffffffffff\n      and\n      0xffffffffffffffffffffffffffffffffffffffff\n      and\n      dup2\n      mstore\n      0x20\n      add\n      swap1\n      dup2\n      mstore\n      0x20\n      add\n      0x00\n      keccak256\n        /* \"WandInstruments.sol\":7900:7939  withheldWithdrawals[msg.sender].amounts */\n      0x01\n      add\n      0x00\n        /* \"WandInstruments.sol\":7900:7946  withheldWithdrawals[msg.sender].amounts -= amt */\n      dup3\n      dup3\n      sload\n      tag_207\n      swap2\n      swap1\n      tag_208\n      jump\t// in\n    tag_207:\n      swap3\n      pop\n      pop\n      dup2\n      swap1\n      sstore\n      pop\n        /* \"WandInstruments.sol\":8003:8004  0 */\n      0x00\n        /* \"WandInstruments.sol\":7961:7980  withheldWithdrawals */\n      0x16\n        /* \"WandInstruments.sol\":7961:7992  withheldWithdrawals[msg.sender] */\n      0x00\n        /* \"WandInstruments.sol\":7981:7991  msg.sender */\n      caller\n        /* \"WandInstruments.sol\":7961:7992  withheldWithdrawals[msg.sender] */\n      0xffffffffffffffffffffffffffffffffffffffff\n      and\n      0xffffffffffffffffffffffffffffffffffffffff\n      and\n      dup2\n      mstore\n      0x20\n      add\n      swap1\n      dup2\n      mstore\n      0x20\n      add\n      0x00\n      keccak256\n        /* \"WandInstruments.sol\":7961:8000  withheldWithdrawals[msg.sender].amounts */\n      0x01\n      add\n      sload\n        /* \"WandInstruments.sol\":7961:8004  withheldWithdrawals[msg.sender].amounts ==0 */\n      eq\n        /* \"WandInstruments.sol\":7957:8072  if (withheldWithdrawals[msg.sender].amounts ==0 ){\r... */\n      iszero\n      tag_209\n      jumpi\n        /* \"WandInstruments.sol\":8028:8047  withheldWithdrawals */\n      0x16\n        /* \"WandInstruments.sol\":8028:8059  withheldWithdrawals[msg.sender] */\n      0x00\n        /* \"WandInstruments.sol\":8048:8058  msg.sender */\n      caller\n        /* \"WandInstruments.sol\":8028:8059  withheldWithdrawals[msg.sender] */\n      0xffffffffffffffffffffffffffffffffffffffff\n      and\n      0xffffffffffffffffffffffffffffffffffffffff\n      and\n      dup2\n      mstore\n      0x20\n      add\n      swap1\n      dup2\n      mstore\n      0x20\n      add\n      0x00\n      keccak256\n      0x00\n        /* \"WandInstruments.sol\":8021:8060  delete(withheldWithdrawals[msg.sender]) */\n      dup1\n      dup3\n      add\n      0x00\n      swap1\n      sstore\n      0x01\n      dup3\n      add\n      0x00\n      swap1\n      sstore\n      pop\n      pop\n        /* \"WandInstruments.sol\":7957:8072  if (withheldWithdrawals[msg.sender].amounts ==0 ){\r... */\n    tag_209:\n        /* \"WandInstruments.sol\":7577:8075  function testUpdatetimeLockedminus(uint256 amt) public  {\r... */\n      pop\n      jump\t// out\n        /* \"WandInstruments.sol\":5499:6083  function transformScepterToBaton(uint256 amountSCPtoSwap) public payable{\r... */\n    tag_75:\n        /* \"WandInstruments.sol\":5643:5669  uint256 trader_tsc_balance */\n      0x00\n        /* \"WandInstruments.sol\":5672:5675  tSC */\n      0x12\n      0x00\n      swap1\n      sload\n      swap1\n      0x0100\n      exp\n      swap1\n      div\n      0xffffffffffffffffffffffffffffffffffffffff\n      and\n        /* \"WandInstruments.sol\":5672:5685  tSC.balanceOf */\n      0xffffffffffffffffffffffffffffffffffffffff\n      and\n      0x70a08231\n        /* \"WandInstruments.sol\":5686:5696  msg.sender */\n      caller\n        /* \"WandInstruments.sol\":5672:5697  tSC.balanceOf(msg.sender) */\n      mload(0x40)\n      dup3\n      0xffffffff\n      and\n      0xe0\n      shl\n      dup2\n      mstore\n      0x04\n      add\n      tag_211\n      swap2\n      swap1\n      tag_51\n      jump\t// in\n    tag_211:\n      0x20\n      mload(0x40)\n      dup1\n      dup4\n      sub\n      dup2\n      dup7\n      dup1\n      extcodesize\n      iszero\n      dup1\n      iszero\n      tag_212\n      jumpi\n      0x00\n      dup1\n      revert\n    tag_212:\n      pop\n      gas\n      staticcall\n      iszero\n      dup1\n      iszero\n      tag_214\n      jumpi\n      returndatasize\n      0x00\n      dup1\n      returndatacopy\n      revert(0x00, returndatasize)\n    tag_214:\n      pop\n      pop\n      pop\n      pop\n      mload(0x40)\n      returndatasize\n      not(0x1f)\n      0x1f\n      dup3\n      add\n      and\n      dup3\n      add\n      dup1\n      0x40\n      mstore\n      pop\n      dup2\n      add\n      swap1\n      tag_215\n      swap2\n      swap1\n      tag_193\n      jump\t// in\n    tag_215:\n        /* \"WandInstruments.sol\":5643:5697  uint256 trader_tsc_balance = tSC.balanceOf(msg.sender) */\n      swap1\n      pop\n        /* \"WandInstruments.sol\":5737:5752  amountSCPtoSwap */\n      dup2\n        /* \"WandInstruments.sol\":5716:5734  trader_tsc_balance */\n      dup2\n        /* \"WandInstruments.sol\":5716:5752  trader_tsc_balance > amountSCPtoSwap */\n      gt\n        /* \"WandInstruments.sol\":5708:5783  require(trader_tsc_balance > amountSCPtoSwap, \"You dont have that amount!\") */\n      tag_216\n      jumpi\n      mload(0x40)\n      0x08c379a000000000000000000000000000000000000000000000000000000000\n      dup2\n      mstore\n      0x04\n      add\n      tag_217\n      swap1\n      tag_218\n      jump\t// in\n    tag_217:\n      mload(0x40)\n      dup1\n      swap2\n      sub\n      swap1\n      revert\n    tag_216:\n        /* \"WandInstruments.sol\":5837:5903  _safeTransferFrom(tSC, msg.sender, address(this), amountSCPtoSwap) */\n      tag_219\n        /* \"WandInstruments.sol\":5855:5858  tSC */\n      0x12\n      0x00\n      swap1\n      sload\n      swap1\n      0x0100\n      exp\n      swap1\n      div\n      0xffffffffffffffffffffffffffffffffffffffff\n      and\n        /* \"WandInstruments.sol\":5860:5870  msg.sender */\n      caller\n        /* \"WandInstruments.sol\":5880:5884  this */\n      address\n        /* \"WandInstruments.sol\":5887:5902  amountSCPtoSwap */\n      dup6\n        /* \"WandInstruments.sol\":5837:5854  _safeTransferFrom */\n      tag_220\n        /* \"WandInstruments.sol\":5837:5903  _safeTransferFrom(tSC, msg.sender, address(this), amountSCPtoSwap) */\n      jump\t// in\n    tag_219:\n        /* \"WandInstruments.sol\":5964:5980  uint256 dInArray */\n      0x00\n        /* \"WandInstruments.sol\":6014:6019  86400 */\n      0x015180\n        /* \"WandInstruments.sol\":6000:6012  timeLaunched */\n      sload(0x0b)\n        /* \"WandInstruments.sol\":5983:5998  block.timestamp */\n      timestamp\n        /* \"WandInstruments.sol\":5983:6012  block.timestamp- timeLaunched */\n      tag_221\n      swap2\n      swap1\n      tag_208\n      jump\t// in\n    tag_221:\n        /* \"WandInstruments.sol\":5982:6019  (block.timestamp- timeLaunched)/86400 */\n      tag_222\n      swap2\n      swap1\n      tag_223\n      jump\t// in\n    tag_222:\n        /* \"WandInstruments.sol\":5964:6019  uint256 dInArray =(block.timestamp- timeLaunched)/86400 */\n      swap1\n      pop\n        /* \"WandInstruments.sol\":6060:6075  amountSCPtoSwap */\n      dup3\n        /* \"WandInstruments.sol\":6031:6046  tokensSoldXDays */\n      0x15\n        /* \"WandInstruments.sol\":6031:6056  tokensSoldXDays[dInArray] */\n      0x00\n        /* \"WandInstruments.sol\":6047:6055  dInArray */\n      dup4\n        /* \"WandInstruments.sol\":6031:6056  tokensSoldXDays[dInArray] */\n      dup2\n      mstore\n      0x20\n      add\n      swap1\n      dup2\n      mstore\n      0x20\n      add\n      0x00\n      keccak256\n      0x00\n        /* \"WandInstruments.sol\":6031:6075  tokensSoldXDays[dInArray] += amountSCPtoSwap */\n      dup3\n      dup3\n      sload\n      tag_224\n      swap2\n      swap1\n      tag_199\n      jump\t// in\n    tag_224:\n      swap3\n      pop\n      pop\n      dup2\n      swap1\n      sstore\n      pop\n        /* \"WandInstruments.sol\":5571:6083  {\r... */\n      pop\n      pop\n        /* \"WandInstruments.sol\":5499:6083  function transformScepterToBaton(uint256 amountSCPtoSwap) public payable{\r... */\n      pop\n      jump\t// out\n        /* \"WandInstruments.sol\":9510:9724  function getBackingPrice() external view returns (uint256){\r... */\n    tag_78:\n        /* \"WandInstruments.sol\":9560:9567  uint256 */\n      0x00\n        /* \"WandInstruments.sol\":9674:9714  decDiv18(treasury1bal,tSC.totalSupply()) */\n      tag_226\n        /* \"WandInstruments.sol\":9683:9695  treasury1bal */\n      sload(0x0a)\n        /* \"WandInstruments.sol\":9696:9699  tSC */\n      0x12\n      0x00\n      swap1\n      sload\n      swap1\n      0x0100\n      exp\n      swap1\n      div\n      0xffffffffffffffffffffffffffffffffffffffff\n      and\n        /* \"WandInstruments.sol\":9696:9711  tSC.totalSupply */\n      0xffffffffffffffffffffffffffffffffffffffff\n      and\n      0x18160ddd\n        /* \"WandInstruments.sol\":9696:9713  tSC.totalSupply() */\n      mload(0x40)\n      dup2\n      0xffffffff\n      and\n      0xe0\n      shl\n      dup2\n      mstore\n      0x04\n      add\n      0x20\n      mload(0x40)\n      dup1\n      dup4\n      sub\n      dup2\n      dup7\n      dup1\n      extcodesize\n      iszero\n      dup1\n      iszero\n      tag_227\n      jumpi\n      0x00\n      dup1\n      revert\n    tag_227:\n      pop\n      gas\n      staticcall\n      iszero\n      dup1\n      iszero\n      tag_229\n      jumpi\n      returndatasize\n      0x00\n      dup1\n      returndatacopy\n      revert(0x00, returndatasize)\n    tag_229:\n      pop\n      pop\n      pop\n      pop\n      mload(0x40)\n      returndatasize\n      not(0x1f)\n      0x1f\n      dup3\n      add\n      and\n      dup3\n      add\n      dup1\n      0x40\n      mstore\n      pop\n      dup2\n      add\n      swap1\n      tag_230\n      swap2\n      swap1\n      tag_193\n      jump\t// in\n    tag_230:\n        /* \"WandInstruments.sol\":9674:9682  decDiv18 */\n      tag_110\n        /* \"WandInstruments.sol\":9674:9714  decDiv18(treasury1bal,tSC.totalSupply()) */\n      jump\t// in\n    tag_226:\n        /* \"WandInstruments.sol\":9667:9714  return decDiv18(treasury1bal,tSC.totalSupply()) */\n      swap1\n      pop\n        /* \"WandInstruments.sol\":9510:9724  function getBackingPrice() external view returns (uint256){\r... */\n      swap1\n      jump\t// out\n        /* \"WandInstruments.sol\":660:688  address public devWalletAddr */\n    tag_82:\n      0x09\n      0x00\n      swap1\n      sload\n      swap1\n      0x0100\n      exp\n      swap1\n      div\n      0xffffffffffffffffffffffffffffffffffffffff\n      and\n      dup2\n      jump\t// out\n        /* \"WandInstruments.sol\":1437:1489  mapping(uint256 => uint256) public tokensBoughtXDays */\n    tag_87:\n      mstore(0x20, 0x14)\n      dup1\n      0x00\n      mstore\n      keccak256(0x00, 0x40)\n      0x00\n      swap2\n      pop\n      swap1\n      pop\n      sload\n      dup2\n      jump\t// out\n        /* \"WandInstruments.sol\":729:775  uint256 public treasury1bal = 50000*(DECIMALS) */\n    tag_91:\n      sload(0x0a)\n      dup2\n      jump\t// out\n        /* \"WandInstruments.sol\":804:831  uint256 public timeLaunched */\n    tag_95:\n      sload(0x0b)\n      dup2\n      jump\t// out\n        /* \"WandInstruments.sol\":9958:10181  function getSellPrice() external view returns (uint256){\r... */\n    tag_99:\n        /* \"WandInstruments.sol\":10005:10012  uint256 */\n      0x00\n        /* \"WandInstruments.sol\":10095:10173  decMul18(this.getBackingPrice() , (900000000000000000 - this.getSellFactor())) */\n      tag_232\n        /* \"WandInstruments.sol\":10104:10108  this */\n      address\n        /* \"WandInstruments.sol\":10104:10124  this.getBackingPrice */\n      0xffffffffffffffffffffffffffffffffffffffff\n      and\n      0x1f564a06\n        /* \"WandInstruments.sol\":10104:10126  this.getBackingPrice() */\n      mload(0x40)\n      dup2\n      0xffffffff\n      and\n      0xe0\n      shl\n      dup2\n      mstore\n      0x04\n      add\n      0x20\n      mload(0x40)\n      dup1\n      dup4\n      sub\n      dup2\n      dup7\n      dup1\n      extcodesize\n      iszero\n      dup1\n      iszero\n      tag_233\n      jumpi\n      0x00\n      dup1\n      revert\n    tag_233:\n      pop\n      gas\n      staticcall\n      iszero\n      dup1\n      iszero\n      tag_235\n      jumpi\n      returndatasize\n      0x00\n      dup1\n      returndatacopy\n      revert(0x00, returndatasize)\n    tag_235:\n      pop\n      pop\n      pop\n      pop\n      mload(0x40)\n      returndatasize\n      not(0x1f)\n      0x1f\n      dup3\n      add\n      and\n      dup3\n      add\n      dup1\n      0x40\n      mstore\n      pop\n      dup2\n      add\n      swap1\n      tag_236\n      swap2\n      swap1\n      tag_193\n      jump\t// in\n    tag_236:\n        /* \"WandInstruments.sol\":10151:10155  this */\n      address\n        /* \"WandInstruments.sol\":10151:10169  this.getSellFactor */\n      0xffffffffffffffffffffffffffffffffffffffff\n      and\n      0x0ccaf04f\n        /* \"WandInstruments.sol\":10151:10171  this.getSellFactor() */\n      mload(0x40)\n      dup2\n      0xffffffff\n      and\n      0xe0\n      shl\n      dup2\n      mstore\n      0x04\n      add\n      0x20\n      mload(0x40)\n      dup1\n      dup4\n      sub\n      dup2\n      dup7\n      dup1\n      extcodesize\n      iszero\n      dup1\n      iszero\n      tag_237\n      jumpi\n      0x00\n      dup1\n      revert\n    tag_237:\n      pop\n      gas\n      staticcall\n      iszero\n      dup1\n      iszero\n      tag_239\n      jumpi\n      returndatasize\n      0x00\n      dup1\n      returndatacopy\n      revert(0x00, returndatasize)\n    tag_239:\n      pop\n      pop\n      pop\n      pop\n      mload(0x40)\n      returndatasize\n      not(0x1f)\n      0x1f\n      dup3\n      add\n      and\n      dup3\n      add\n      dup1\n      0x40\n      mstore\n      pop\n      dup2\n      add\n      swap1\n      tag_240\n      swap2\n      swap1\n      tag_193\n      jump\t// in\n    tag_240:\n        /* \"WandInstruments.sol\":10130:10148  900000000000000000 */\n      0x0c7d713b49da0000\n        /* \"WandInstruments.sol\":10130:10171  900000000000000000 - this.getSellFactor() */\n      tag_241\n      swap2\n      swap1\n      tag_208\n      jump\t// in\n    tag_241:\n        /* \"WandInstruments.sol\":10095:10103  decMul18 */\n      tag_174\n        /* \"WandInstruments.sol\":10095:10173  decMul18(this.getBackingPrice() , (900000000000000000 - this.getSellFactor())) */\n      jump\t// in\n    tag_232:\n        /* \"WandInstruments.sol\":10088:10173  return decMul18(this.getBackingPrice() , (900000000000000000 - this.getSellFactor())) */\n      swap1\n      pop\n        /* \"WandInstruments.sol\":9958:10181  function getSellPrice() external view returns (uint256){\r... */\n      swap1\n      jump\t// out\n        /* \"WandInstruments.sol\":4110:4300  function testMappings(uint256 t, uint256 _amt) public returns (uint256)\r... */\n    tag_105:\n        /* \"WandInstruments.sol\":4173:4180  uint256 */\n      0x00\n        /* \"WandInstruments.sol\":4197:4206  uint256 i */\n      dup1\n        /* \"WandInstruments.sol\":4230:4235  86400 */\n      0x015180\n        /* \"WandInstruments.sol\":4214:4226  timeLaunched */\n      sload(0x0b)\n        /* \"WandInstruments.sol\":4210:4211  t */\n      dup6\n        /* \"WandInstruments.sol\":4210:4226  t - timeLaunched */\n      tag_243\n      swap2\n      swap1\n      tag_208\n      jump\t// in\n    tag_243:\n        /* \"WandInstruments.sol\":4209:4235  (t - timeLaunched) / 86400 */\n      tag_244\n      swap2\n      swap1\n      tag_223\n      jump\t// in\n    tag_244:\n        /* \"WandInstruments.sol\":4197:4235  uint256 i = (t - timeLaunched) / 86400 */\n      swap1\n      pop\n        /* \"WandInstruments.sol\":4269:4273  _amt */\n      dup3\n        /* \"WandInstruments.sol\":4246:4263  tokensBoughtXDays */\n      0x14\n        /* \"WandInstruments.sol\":4246:4266  tokensBoughtXDays[i] */\n      0x00\n        /* \"WandInstruments.sol\":4264:4265  i */\n      dup4\n        /* \"WandInstruments.sol\":4246:4266  tokensBoughtXDays[i] */\n      dup2\n      mstore\n      0x20\n      add\n      swap1\n      dup2\n      mstore\n      0x20\n      add\n      0x00\n      keccak256\n        /* \"WandInstruments.sol\":4246:4273  tokensBoughtXDays[i] = _amt */\n      dup2\n      swap1\n      sstore\n      pop\n        /* \"WandInstruments.sol\":4291:4292  i */\n      dup1\n        /* \"WandInstruments.sol\":4284:4292  return i */\n      swap2\n      pop\n      pop\n        /* \"WandInstruments.sol\":4110:4300  function testMappings(uint256 t, uint256 _amt) public returns (uint256)\r... */\n      swap3\n      swap2\n      pop\n      pop\n      jump\t// out\n        /* \"WandInstruments.sol\":3452:3631  function decDiv18(uint x, uint y) public pure returns (uint decQuotient) {\r... */\n    tag_110:\n        /* \"WandInstruments.sol\":3507:3523  uint decQuotient */\n      0x00\n        /* \"WandInstruments.sol\":3536:3552  uint prod_xTEN18 */\n      dup1\n        /* \"WandInstruments.sol\":3555:3571  mul(x, DECIMALS) */\n      tag_246\n        /* \"WandInstruments.sol\":3559:3560  x */\n      dup5\n        /* \"WandInstruments.sol\":283:289  10**18 */\n      0x0de0b6b3a7640000\n        /* \"WandInstruments.sol\":3555:3558  mul */\n      tag_247\n        /* \"WandInstruments.sol\":3555:3571  mul(x, DECIMALS) */\n      jump\t// in\n    tag_246:\n        /* \"WandInstruments.sol\":3536:3571  uint prod_xTEN18 = mul(x, DECIMALS) */\n      swap1\n      pop\n        /* \"WandInstruments.sol\":3622:3623  y */\n      dup3\n        /* \"WandInstruments.sol\":3596:3619  add(prod_xTEN18, y / 2) */\n      tag_248\n        /* \"WandInstruments.sol\":3600:3611  prod_xTEN18 */\n      dup3\n        /* \"WandInstruments.sol\":3617:3618  2 */\n      0x02\n        /* \"WandInstruments.sol\":3613:3614  y */\n      dup7\n        /* \"WandInstruments.sol\":3613:3618  y / 2 */\n      tag_249\n      swap2\n      swap1\n      tag_223\n      jump\t// in\n    tag_249:\n        /* \"WandInstruments.sol\":3596:3599  add */\n      tag_250\n        /* \"WandInstruments.sol\":3596:3619  add(prod_xTEN18, y / 2) */\n      jump\t// in\n    tag_248:\n        /* \"WandInstruments.sol\":3596:3623  add(prod_xTEN18, y / 2) / y */\n      tag_251\n      swap2\n      swap1\n      tag_223\n      jump\t// in\n    tag_251:\n        /* \"WandInstruments.sol\":3582:3623  decQuotient = add(prod_xTEN18, y / 2) / y */\n      swap2\n      pop\n        /* \"WandInstruments.sol\":3525:3631  {\r... */\n      pop\n        /* \"WandInstruments.sol\":3452:3631  function decDiv18(uint x, uint y) public pure returns (uint decQuotient) {\r... */\n      swap3\n      swap2\n      pop\n      pop\n      jump\t// out\n        /* \"WandInstruments.sol\":6089:7101  function buyScepter(uint256 amountSCPtoBuy) public payable{\r... */\n    tag_114:\n        /* \"WandInstruments.sol\":6219:6246  uint256 trader_usdc_balance */\n      0x00\n        /* \"WandInstruments.sol\":6249:6257  mockUSDC */\n      0x13\n      0x00\n      swap1\n      sload\n      swap1\n      0x0100\n      exp\n      swap1\n      div\n      0xffffffffffffffffffffffffffffffffffffffff\n      and\n        /* \"WandInstruments.sol\":6249:6267  mockUSDC.balanceOf */\n      0xffffffffffffffffffffffffffffffffffffffff\n      and\n      0x70a08231\n        /* \"WandInstruments.sol\":6268:6278  msg.sender */\n      caller\n        /* \"WandInstruments.sol\":6249:6279  mockUSDC.balanceOf(msg.sender) */\n      mload(0x40)\n      dup3\n      0xffffffff\n      and\n      0xe0\n      shl\n      dup2\n      mstore\n      0x04\n      add\n      tag_253\n      swap2\n      swap1\n      tag_51\n      jump\t// in\n    tag_253:\n      0x20\n      mload(0x40)\n      dup1\n      dup4\n      sub\n      dup2\n      dup7\n      dup1\n      extcodesize\n      iszero\n      dup1\n      iszero\n      tag_254\n      jumpi\n      0x00\n      dup1\n      revert\n    tag_254:\n      pop\n      gas\n      staticcall\n      iszero\n      dup1\n      iszero\n      tag_256\n      jumpi\n      returndatasize\n      0x00\n      dup1\n      returndatacopy\n      revert(0x00, returndatasize)\n    tag_256:\n      pop\n      pop\n      pop\n      pop\n      mload(0x40)\n      returndatasize\n      not(0x1f)\n      0x1f\n      dup3\n      add\n      and\n      dup3\n      add\n      dup1\n      0x40\n      mstore\n      pop\n      dup2\n      add\n      swap1\n      tag_257\n      swap2\n      swap1\n      tag_193\n      jump\t// in\n    tag_257:\n        /* \"WandInstruments.sol\":6219:6279  uint256 trader_usdc_balance = mockUSDC.balanceOf(msg.sender) */\n      swap1\n      pop\n        /* \"WandInstruments.sol\":6320:6334  amountSCPtoBuy */\n      dup2\n        /* \"WandInstruments.sol\":6298:6317  trader_usdc_balance */\n      dup2\n        /* \"WandInstruments.sol\":6298:6334  trader_usdc_balance > amountSCPtoBuy */\n      gt\n        /* \"WandInstruments.sol\":6290:6365  require(trader_usdc_balance > amountSCPtoBuy, \"You dont have that amount!\") */\n      tag_258\n      jumpi\n      mload(0x40)\n      0x08c379a000000000000000000000000000000000000000000000000000000000\n      dup2\n      mstore\n      0x04\n      add\n      tag_259\n      swap1\n      tag_218\n      jump\t// in\n    tag_259:\n      mload(0x40)\n      dup1\n      swap2\n      sub\n      swap1\n      revert\n    tag_258:\n        /* \"WandInstruments.sol\":6458:6461  tSC */\n      0x12\n      0x00\n      swap1\n      sload\n      swap1\n      0x0100\n      exp\n      swap1\n      div\n      0xffffffffffffffffffffffffffffffffffffffff\n      and\n        /* \"WandInstruments.sol\":6458:6470  tSC.transfer */\n      0xffffffffffffffffffffffffffffffffffffffff\n      and\n      0xa9059cbb\n        /* \"WandInstruments.sol\":6471:6481  msg.sender */\n      caller\n        /* \"WandInstruments.sol\":6483:6497  amountSCPtoBuy */\n      dup5\n        /* \"WandInstruments.sol\":6458:6498  tSC.transfer(msg.sender, amountSCPtoBuy) */\n      mload(0x40)\n      dup4\n      0xffffffff\n      and\n      0xe0\n      shl\n      dup2\n      mstore\n      0x04\n      add\n      tag_260\n      swap3\n      swap2\n      swap1\n      tag_261\n      jump\t// in\n    tag_260:\n      0x20\n      mload(0x40)\n      dup1\n      dup4\n      sub\n      dup2\n      0x00\n      dup8\n      dup1\n      extcodesize\n      iszero\n      dup1\n      iszero\n      tag_262\n      jumpi\n      0x00\n      dup1\n      revert\n    tag_262:\n      pop\n      gas\n      call\n      iszero\n      dup1\n      iszero\n      tag_264\n      jumpi\n      returndatasize\n      0x00\n      dup1\n      returndatacopy\n      revert(0x00, returndatasize)\n    tag_264:\n      pop\n      pop\n      pop\n      pop\n      mload(0x40)\n      returndatasize\n      not(0x1f)\n      0x1f\n      dup3\n      add\n      and\n      dup3\n      add\n      dup1\n      0x40\n      mstore\n      pop\n      dup2\n      add\n      swap1\n      tag_265\n      swap2\n      swap1\n      tag_266\n      jump\t// in\n    tag_265:\n      pop\n        /* \"WandInstruments.sol\":6632:6702  _safeTransferFrom(mockUSDC, msg.sender, address(this), amountSCPtoBuy) */\n      tag_267\n        /* \"WandInstruments.sol\":6650:6658  mockUSDC */\n      0x13\n      0x00\n      swap1\n      sload\n      swap1\n      0x0100\n      exp\n      swap1\n      div\n      0xffffffffffffffffffffffffffffffffffffffff\n      and\n        /* \"WandInstruments.sol\":6660:6670  msg.sender */\n      caller\n        /* \"WandInstruments.sol\":6680:6684  this */\n      address\n        /* \"WandInstruments.sol\":6687:6701  amountSCPtoBuy */\n      dup6\n        /* \"WandInstruments.sol\":6632:6649  _safeTransferFrom */\n      tag_220\n        /* \"WandInstruments.sol\":6632:6702  _safeTransferFrom(mockUSDC, msg.sender, address(this), amountSCPtoBuy) */\n      jump\t// in\n    tag_267:\n        /* \"WandInstruments.sol\":6979:6995  uint256 dInArray */\n      0x00\n        /* \"WandInstruments.sol\":7029:7034  86400 */\n      0x015180\n        /* \"WandInstruments.sol\":7015:7027  timeLaunched */\n      sload(0x0b)\n        /* \"WandInstruments.sol\":6998:7013  block.timestamp */\n      timestamp\n        /* \"WandInstruments.sol\":6998:7027  block.timestamp- timeLaunched */\n      tag_268\n      swap2\n      swap1\n      tag_208\n      jump\t// in\n    tag_268:\n        /* \"WandInstruments.sol\":6997:7034  (block.timestamp- timeLaunched)/86400 */\n      tag_269\n      swap2\n      swap1\n      tag_223\n      jump\t// in\n    tag_269:\n        /* \"WandInstruments.sol\":6979:7034  uint256 dInArray =(block.timestamp- timeLaunched)/86400 */\n      swap1\n      pop\n        /* \"WandInstruments.sol\":7077:7091  amountSCPtoBuy */\n      dup3\n        /* \"WandInstruments.sol\":7046:7063  tokensBoughtXDays */\n      0x14\n        /* \"WandInstruments.sol\":7046:7073  tokensBoughtXDays[dInArray] */\n      0x00\n        /* \"WandInstruments.sol\":7064:7072  dInArray */\n      dup4\n        /* \"WandInstruments.sol\":7046:7073  tokensBoughtXDays[dInArray] */\n      dup2\n      mstore\n      0x20\n      add\n      swap1\n      dup2\n      mstore\n      0x20\n      add\n      0x00\n      keccak256\n      0x00\n        /* \"WandInstruments.sol\":7046:7091  tokensBoughtXDays[dInArray] += amountSCPtoBuy */\n      dup3\n      dup3\n      sload\n      tag_270\n      swap2\n      swap1\n      tag_199\n      jump\t// in\n    tag_270:\n      swap3\n      pop\n      pop\n      dup2\n      swap1\n      sstore\n      pop\n        /* \"WandInstruments.sol\":6147:7101  {\r... */\n      pop\n      pop\n        /* \"WandInstruments.sol\":6089:7101  function buyScepter(uint256 amountSCPtoBuy) public payable{\r... */\n      pop\n      jump\t// out\n        /* \"WandInstruments.sol\":838:870  uint256 public daysInCalculation */\n    tag_117:\n      sload(0x0c)\n      dup2\n      jump\t// out\n        /* \"WandInstruments.sol\":7107:7571  function testUpdatetimeLockedplus(uint256 amt) public  {\r... */\n    tag_122:\n        /* \"WandInstruments.sol\":7498:7504  864000 */\n      0x0d2f00\n        /* \"WandInstruments.sol\":7480:7495  block.timestamp */\n      timestamp\n        /* \"WandInstruments.sol\":7480:7504  block.timestamp + 864000 */\n      tag_272\n      swap2\n      swap1\n      tag_199\n      jump\t// in\n    tag_272:\n        /* \"WandInstruments.sol\":7433:7452  withheldWithdrawals */\n      0x16\n        /* \"WandInstruments.sol\":7433:7464  withheldWithdrawals[msg.sender] */\n      0x00\n        /* \"WandInstruments.sol\":7453:7463  msg.sender */\n      caller\n        /* \"WandInstruments.sol\":7433:7464  withheldWithdrawals[msg.sender] */\n      0xffffffffffffffffffffffffffffffffffffffff\n      and\n      0xffffffffffffffffffffffffffffffffffffffff\n      and\n      dup2\n      mstore\n      0x20\n      add\n      swap1\n      dup2\n      mstore\n      0x20\n      add\n      0x00\n      keccak256\n        /* \"WandInstruments.sol\":7433:7477  withheldWithdrawals[msg.sender].timeUnlocked */\n      0x00\n      add\n        /* \"WandInstruments.sol\":7433:7504  withheldWithdrawals[msg.sender].timeUnlocked = block.timestamp + 864000 */\n      dup2\n      swap1\n      sstore\n      pop\n        /* \"WandInstruments.sol\":7554:7557  amt */\n      dup1\n        /* \"WandInstruments.sol\":7511:7530  withheldWithdrawals */\n      0x16\n        /* \"WandInstruments.sol\":7511:7542  withheldWithdrawals[msg.sender] */\n      0x00\n        /* \"WandInstruments.sol\":7531:7541  msg.sender */\n      caller\n        /* \"WandInstruments.sol\":7511:7542  withheldWithdrawals[msg.sender] */\n      0xffffffffffffffffffffffffffffffffffffffff\n      and\n      0xffffffffffffffffffffffffffffffffffffffff\n      and\n      dup2\n      mstore\n      0x20\n      add\n      swap1\n      dup2\n      mstore\n      0x20\n      add\n      0x00\n      keccak256\n        /* \"WandInstruments.sol\":7511:7550  withheldWithdrawals[msg.sender].amounts */\n      0x01\n      add\n      0x00\n        /* \"WandInstruments.sol\":7511:7557  withheldWithdrawals[msg.sender].amounts += amt */\n      dup3\n      dup3\n      sload\n      tag_273\n      swap2\n      swap1\n      tag_199\n      jump\t// in\n    tag_273:\n      swap3\n      pop\n      pop\n      dup2\n      swap1\n      sstore\n      pop\n        /* \"WandInstruments.sol\":7107:7571  function testUpdatetimeLockedplus(uint256 amt) public  {\r... */\n      pop\n      jump\t// out\n        /* \"WandInstruments.sol\":1311:1328  IERC20 public tSC */\n    tag_125:\n      0x12\n      0x00\n      swap1\n      sload\n      swap1\n      0x0100\n      exp\n      swap1\n      div\n      0xffffffffffffffffffffffffffffffffffffffff\n      and\n      dup2\n      jump\t// out\n        /* \"WandInstruments.sol\":1089:1106  int128 public res */\n    tag_130:\n      0x10\n      0x00\n      swap1\n      sload\n      swap1\n      0x0100\n      exp\n      swap1\n      div\n      0x0f\n      signextend\n      dup2\n      jump\t// out\n        /* \"WandInstruments.sol\":8186:8505  function getTokensBoughtXDays() external view returns (uint256){\r... */\n    tag_135:\n        /* \"WandInstruments.sol\":8241:8248  uint256 */\n      0x00\n        /* \"WandInstruments.sol\":8260:8277  uint256 boughtnum */\n      dup1\n        /* \"WandInstruments.sol\":8288:8297  uint256 d */\n      0x00\n        /* \"WandInstruments.sol\":8308:8323  uint256 numdays */\n      dup1\n        /* \"WandInstruments.sol\":8344:8349  86400 */\n      0x015180\n        /* \"WandInstruments.sol\":8326:8343  daysInCalculation */\n      sload(0x0c)\n        /* \"WandInstruments.sol\":8326:8349  daysInCalculation/86400 */\n      tag_275\n      swap2\n      swap1\n      tag_223\n      jump\t// in\n    tag_275:\n        /* \"WandInstruments.sol\":8308:8349  uint256 numdays = daysInCalculation/86400 */\n      swap1\n      pop\n        /* \"WandInstruments.sol\":8369:8370  0 */\n      0x00\n        /* \"WandInstruments.sol\":8365:8370  d = 0 */\n      swap2\n      pop\n        /* \"WandInstruments.sol\":8360:8472  for (d = 0; d < numdays; d++) {  //for loop example\r... */\n    tag_276:\n        /* \"WandInstruments.sol\":8376:8383  numdays */\n      dup1\n        /* \"WandInstruments.sol\":8372:8373  d */\n      dup3\n        /* \"WandInstruments.sol\":8372:8383  d < numdays */\n      lt\n        /* \"WandInstruments.sol\":8360:8472  for (d = 0; d < numdays; d++) {  //for loop example\r... */\n      iszero\n      tag_277\n      jumpi\n        /* \"WandInstruments.sol\":8436:8453  tokensBoughtXDays */\n      0x14\n        /* \"WandInstruments.sol\":8436:8456  tokensBoughtXDays[d] */\n      0x00\n        /* \"WandInstruments.sol\":8454:8455  d */\n      dup4\n        /* \"WandInstruments.sol\":8436:8456  tokensBoughtXDays[d] */\n      dup2\n      mstore\n      0x20\n      add\n      swap1\n      dup2\n      mstore\n      0x20\n      add\n      0x00\n      keccak256\n      sload\n        /* \"WandInstruments.sol\":8423:8456  boughtnum += tokensBoughtXDays[d] */\n      dup4\n      tag_279\n      swap2\n      swap1\n      tag_199\n      jump\t// in\n    tag_279:\n      swap3\n      pop\n        /* \"WandInstruments.sol\":8385:8388  d++ */\n      dup2\n      dup1\n      tag_280\n      swap1\n      tag_281\n      jump\t// in\n    tag_280:\n      swap3\n      pop\n      pop\n        /* \"WandInstruments.sol\":8360:8472  for (d = 0; d < numdays; d++) {  //for loop example\r... */\n      jump(tag_276)\n    tag_277:\n        /* \"WandInstruments.sol\":8488:8497  boughtnum */\n      dup3\n        /* \"WandInstruments.sol\":8481:8497  return boughtnum */\n      swap4\n      pop\n      pop\n      pop\n      pop\n        /* \"WandInstruments.sol\":8186:8505  function getTokensBoughtXDays() external view returns (uint256){\r... */\n      swap1\n      jump\t// out\n        /* \"WandInstruments.sol\":8820:9162  function getGrowthFactor() external view returns (uint256){\r... */\n    tag_139:\n        /* \"WandInstruments.sol\":8870:8877  uint256 */\n      0x00\n        /* \"WandInstruments.sol\":8969:8980  uint256 _gF */\n      dup1\n        /* \"WandInstruments.sol\":8996:9035  decDiv18(ft5daybought,double5daytokens) */\n      tag_283\n        /* \"WandInstruments.sol\":9005:9017  ft5daybought */\n      sload(0x0d)\n        /* \"WandInstruments.sol\":9018:9034  double5daytokens */\n      sload(0x0f)\n        /* \"WandInstruments.sol\":8996:9004  decDiv18 */\n      tag_110\n        /* \"WandInstruments.sol\":8996:9035  decDiv18(ft5daybought,double5daytokens) */\n      jump\t// in\n    tag_283:\n        /* \"WandInstruments.sol\":8990:9035  _gF = decDiv18(ft5daybought,double5daytokens) */\n      swap1\n      pop\n        /* \"WandInstruments.sol\":9055:9074  1200000000000000000 */\n      0x10a741a462780000\n        /* \"WandInstruments.sol\":9049:9052  _gF */\n      dup2\n        /* \"WandInstruments.sol\":9049:9074  _gF > 1200000000000000000 */\n      gt\n        /* \"WandInstruments.sol\":9045:9134  if (_gF > 1200000000000000000)\r... */\n      iszero\n      tag_284\n      jumpi\n        /* \"WandInstruments.sol\":9104:9123  1200000000000000000 */\n      0x10a741a462780000\n        /* \"WandInstruments.sol\":9098:9123  _gF = 1200000000000000000 */\n      swap1\n      pop\n        /* \"WandInstruments.sol\":9045:9134  if (_gF > 1200000000000000000)\r... */\n    tag_284:\n        /* \"WandInstruments.sol\":9150:9153  _gF */\n      dup1\n        /* \"WandInstruments.sol\":9143:9153  return _gF */\n      swap2\n      pop\n      pop\n        /* \"WandInstruments.sol\":8820:9162  function getGrowthFactor() external view returns (uint256){\r... */\n      swap1\n      jump\t// out\n        /* \"WandInstruments.sol\":581:615  address public scepterTreasuryAddr */\n    tag_143:\n      0x07\n      0x00\n      swap1\n      sload\n      swap1\n      0x0100\n      exp\n      swap1\n      div\n      0xffffffffffffffffffffffffffffffffffffffff\n      and\n      dup2\n      jump\t// out\n        /* \"WandInstruments.sol\":332:357  uint256 public sellFactor */\n    tag_147:\n      sload(0x01)\n      dup2\n      jump\t// out\n        /* \"WandInstruments.sol\":8511:8814  function getTokensSoldXDays() external view returns (uint256){\r... */\n    tag_151:\n        /* \"WandInstruments.sol\":8564:8571  uint256 */\n      0x00\n        /* \"WandInstruments.sol\":8583:8598  uint256 soldNum */\n      dup1\n        /* \"WandInstruments.sol\":8609:8618  uint256 d */\n      0x00\n        /* \"WandInstruments.sol\":8629:8644  uint256 numdays */\n      dup1\n        /* \"WandInstruments.sol\":8665:8670  86400 */\n      0x015180\n        /* \"WandInstruments.sol\":8647:8664  daysInCalculation */\n      sload(0x0c)\n        /* \"WandInstruments.sol\":8647:8670  daysInCalculation/86400 */\n      tag_286\n      swap2\n      swap1\n      tag_223\n      jump\t// in\n    tag_286:\n        /* \"WandInstruments.sol\":8629:8670  uint256 numdays = daysInCalculation/86400 */\n      swap1\n      pop\n        /* \"WandInstruments.sol\":8690:8691  0 */\n      0x00\n        /* \"WandInstruments.sol\":8686:8691  d = 0 */\n      swap2\n      pop\n        /* \"WandInstruments.sol\":8681:8783  for (d = 0; d < numdays; d++) {  //for loop example\r... */\n    tag_287:\n        /* \"WandInstruments.sol\":8697:8704  numdays */\n      dup1\n        /* \"WandInstruments.sol\":8693:8694  d */\n      dup3\n        /* \"WandInstruments.sol\":8693:8704  d < numdays */\n      lt\n        /* \"WandInstruments.sol\":8681:8783  for (d = 0; d < numdays; d++) {  //for loop example\r... */\n      iszero\n      tag_288\n      jumpi\n        /* \"WandInstruments.sol\":8755:8770  tokensSoldXDays */\n      0x15\n        /* \"WandInstruments.sol\":8755:8773  tokensSoldXDays[d] */\n      0x00\n        /* \"WandInstruments.sol\":8771:8772  d */\n      dup4\n        /* \"WandInstruments.sol\":8755:8773  tokensSoldXDays[d] */\n      dup2\n      mstore\n      0x20\n      add\n      swap1\n      dup2\n      mstore\n      0x20\n      add\n      0x00\n      keccak256\n      sload\n        /* \"WandInstruments.sol\":8744:8773  soldNum += tokensSoldXDays[d] */\n      dup4\n      tag_290\n      swap2\n      swap1\n      tag_199\n      jump\t// in\n    tag_290:\n      swap3\n      pop\n        /* \"WandInstruments.sol\":8706:8709  d++ */\n      dup2\n      dup1\n      tag_291\n      swap1\n      tag_281\n      jump\t// in\n    tag_291:\n      swap3\n      pop\n      pop\n        /* \"WandInstruments.sol\":8681:8783  for (d = 0; d < numdays; d++) {  //for loop example\r... */\n      jump(tag_287)\n    tag_288:\n        /* \"WandInstruments.sol\":8799:8806  soldNum */\n      dup3\n        /* \"WandInstruments.sol\":8792:8806  return soldNum */\n      swap4\n      pop\n      pop\n      pop\n      pop\n        /* \"WandInstruments.sol\":8511:8814  function getTokensSoldXDays() external view returns (uint256){\r... */\n      swap1\n      jump\t// out\n        /* \"WandInstruments.sol\":1357:1379  IERC20 public mockUSDC */\n    tag_155:\n      0x13\n      0x00\n      swap1\n      sload\n      swap1\n      0x0100\n      exp\n      swap1\n      div\n      0xffffffffffffffffffffffffffffffffffffffff\n      and\n      dup2\n      jump\t// out\n        /* \"WandInstruments.sol\":3639:3823  function queryERC20Balance(address _tokenAddress, address _addressToQuery) view public returns (uint) {\r... */\n    tag_161:\n        /* \"WandInstruments.sol\":3735:3739  uint */\n      0x00\n        /* \"WandInstruments.sol\":3774:3787  _tokenAddress */\n      dup3\n        /* \"WandInstruments.sol\":3759:3798  ERC20Interface(_tokenAddress).balanceOf */\n      0xffffffffffffffffffffffffffffffffffffffff\n      and\n      0x70a08231\n        /* \"WandInstruments.sol\":3799:3814  _addressToQuery */\n      dup4\n        /* \"WandInstruments.sol\":3759:3815  ERC20Interface(_tokenAddress).balanceOf(_addressToQuery) */\n      mload(0x40)\n      dup3\n      0xffffffff\n      and\n      0xe0\n      shl\n      dup2\n      mstore\n      0x04\n      add\n      tag_293\n      swap2\n      swap1\n      tag_51\n      jump\t// in\n    tag_293:\n      0x20\n      mload(0x40)\n      dup1\n      dup4\n      sub\n      dup2\n      dup7\n      dup1\n      extcodesize\n      iszero\n      dup1\n      iszero\n      tag_294\n      jumpi\n      0x00\n      dup1\n      revert\n    tag_294:\n      pop\n      gas\n      staticcall\n      iszero\n      dup1\n      iszero\n      tag_296\n      jumpi\n      returndatasize\n      0x00\n      dup1\n      returndatacopy\n      revert(0x00, returndatasize)\n    tag_296:\n      pop\n      pop\n      pop\n      pop\n      mload(0x40)\n      returndatasize\n      not(0x1f)\n      0x1f\n      dup3\n      add\n      and\n      dup3\n      add\n      dup1\n      0x40\n      mstore\n      pop\n      dup2\n      add\n      swap1\n      tag_297\n      swap2\n      swap1\n      tag_193\n      jump\t// in\n    tag_297:\n        /* \"WandInstruments.sol\":3752:3815  return ERC20Interface(_tokenAddress).balanceOf(_addressToQuery) */\n      swap1\n      pop\n        /* \"WandInstruments.sol\":3639:3823  function queryERC20Balance(address _tokenAddress, address _addressToQuery) view public returns (uint) {\r... */\n      swap3\n      swap2\n      pop\n      pop\n      jump\t// out\n        /* \"WandInstruments.sol\":298:325  uint256 public growthFactor */\n    tag_165:\n      sload(0x00)\n      dup2\n      jump\t// out\n        /* \"WandInstruments.sol\":1113:1183  address public testwallet = 0x617F2E2fD72FD9D5503197092aC168c91465E7f2 */\n    tag_169:\n      0x11\n      0x00\n      swap1\n      sload\n      swap1\n      0x0100\n      exp\n      swap1\n      div\n      0xffffffffffffffffffffffffffffffffffffffff\n      and\n      dup2\n      jump\t// out\n        /* \"WandInstruments.sol\":3274:3444  function decMul18(uint x, uint y) public pure returns (uint decProd) {\r... */\n    tag_174:\n        /* \"WandInstruments.sol\":3329:3341  uint decProd */\n      0x00\n        /* \"WandInstruments.sol\":3354:3366  uint prod_xy */\n      dup1\n        /* \"WandInstruments.sol\":3369:3378  mul(x, y) */\n      tag_299\n        /* \"WandInstruments.sol\":3373:3374  x */\n      dup5\n        /* \"WandInstruments.sol\":3376:3377  y */\n      dup5\n        /* \"WandInstruments.sol\":3369:3372  mul */\n      tag_247\n        /* \"WandInstruments.sol\":3369:3378  mul(x, y) */\n      jump\t// in\n    tag_299:\n        /* \"WandInstruments.sol\":3354:3378  uint prod_xy = mul(x, y) */\n      swap1\n      pop\n        /* \"WandInstruments.sol\":283:289  10**18 */\n      0x0de0b6b3a7640000\n        /* \"WandInstruments.sol\":3399:3425  add(prod_xy, DECIMALS / 2) */\n      tag_300\n        /* \"WandInstruments.sol\":3403:3410  prod_xy */\n      dup3\n        /* \"WandInstruments.sol\":3423:3424  2 */\n      0x02\n        /* \"WandInstruments.sol\":283:289  10**18 */\n      0x0de0b6b3a7640000\n        /* \"WandInstruments.sol\":3412:3424  DECIMALS / 2 */\n      tag_301\n      swap2\n      swap1\n      tag_223\n      jump\t// in\n    tag_301:\n        /* \"WandInstruments.sol\":3399:3402  add */\n      tag_250\n        /* \"WandInstruments.sol\":3399:3425  add(prod_xy, DECIMALS / 2) */\n      jump\t// in\n    tag_300:\n        /* \"WandInstruments.sol\":3399:3436  add(prod_xy, DECIMALS / 2) / DECIMALS */\n      tag_302\n      swap2\n      swap1\n      tag_223\n      jump\t// in\n    tag_302:\n        /* \"WandInstruments.sol\":3389:3436  decProd = add(prod_xy, DECIMALS / 2) / DECIMALS */\n      swap2\n      pop\n        /* \"WandInstruments.sol\":3343:3444  {\r... */\n      pop\n        /* \"WandInstruments.sol\":3274:3444  function decMul18(uint x, uint y) public pure returns (uint decProd) {\r... */\n      swap3\n      swap2\n      pop\n      pop\n      jump\t// out\n        /* \"WandInstruments.sol\":546:574  address public treasury1Addr */\n    tag_178:\n      0x06\n      0x00\n      swap1\n      sload\n      swap1\n      0x0100\n      exp\n      swap1\n      div\n      0xffffffffffffffffffffffffffffffffffffffff\n      and\n      dup2\n      jump\t// out\n        /* \"WandInstruments.sol\":3954:4104  function setDaysUsedInFactors(uint256 numDays) public {  \r... */\n    tag_183:\n        /* \"WandInstruments.sol\":4081:4086  86400 */\n      0x015180\n        /* \"WandInstruments.sol\":4071:4078  numDays */\n      dup2\n        /* \"WandInstruments.sol\":4071:4086  numDays * 86400 */\n      tag_304\n      swap2\n      swap1\n      tag_305\n      jump\t// in\n    tag_304:\n        /* \"WandInstruments.sol\":4051:4068  daysInCalculation */\n      0x0c\n        /* \"WandInstruments.sol\":4051:4086  daysInCalculation = numDays * 86400 */\n      dup2\n      swap1\n      sstore\n      pop\n        /* \"WandInstruments.sol\":3954:4104  function setDaysUsedInFactors(uint256 numDays) public {  \r... */\n      pop\n      jump\t// out\n        /* \"WandInstruments.sol\":4306:5493  function cashOutScepter(uint256 amountSCPtoSell) public payable{\r... */\n    tag_186:\n        /* \"WandInstruments.sol\":4441:4467  uint256 trader_tsc_balance */\n      0x00\n        /* \"WandInstruments.sol\":4470:4473  tSC */\n      0x12\n      0x00\n      swap1\n      sload\n      swap1\n      0x0100\n      exp\n      swap1\n      div\n      0xffffffffffffffffffffffffffffffffffffffff\n      and\n        /* \"WandInstruments.sol\":4470:4483  tSC.balanceOf */\n      0xffffffffffffffffffffffffffffffffffffffff\n      and\n      0x70a08231\n        /* \"WandInstruments.sol\":4484:4494  msg.sender */\n      caller\n        /* \"WandInstruments.sol\":4470:4495  tSC.balanceOf(msg.sender) */\n      mload(0x40)\n      dup3\n      0xffffffff\n      and\n      0xe0\n      shl\n      dup2\n      mstore\n      0x04\n      add\n      tag_307\n      swap2\n      swap1\n      tag_51\n      jump\t// in\n    tag_307:\n      0x20\n      mload(0x40)\n      dup1\n      dup4\n      sub\n      dup2\n      dup7\n      dup1\n      extcodesize\n      iszero\n      dup1\n      iszero\n      tag_308\n      jumpi\n      0x00\n      dup1\n      revert\n    tag_308:\n      pop\n      gas\n      staticcall\n      iszero\n      dup1\n      iszero\n      tag_310\n      jumpi\n      returndatasize\n      0x00\n      dup1\n      returndatacopy\n      revert(0x00, returndatasize)\n    tag_310:\n      pop\n      pop\n      pop\n      pop\n      mload(0x40)\n      returndatasize\n      not(0x1f)\n      0x1f\n      dup3\n      add\n      and\n      dup3\n      add\n      dup1\n      0x40\n      mstore\n      pop\n      dup2\n      add\n      swap1\n      tag_311\n      swap2\n      swap1\n      tag_193\n      jump\t// in\n    tag_311:\n        /* \"WandInstruments.sol\":4441:4495  uint256 trader_tsc_balance = tSC.balanceOf(msg.sender) */\n      swap1\n      pop\n        /* \"WandInstruments.sol\":4535:4550  amountSCPtoSell */\n      dup2\n        /* \"WandInstruments.sol\":4514:4532  trader_tsc_balance */\n      dup2\n        /* \"WandInstruments.sol\":4514:4550  trader_tsc_balance > amountSCPtoSell */\n      gt\n        /* \"WandInstruments.sol\":4506:4581  require(trader_tsc_balance > amountSCPtoSell, \"You dont have that amount!\") */\n      tag_312\n      jumpi\n      mload(0x40)\n      0x08c379a000000000000000000000000000000000000000000000000000000000\n      dup2\n      mstore\n      0x04\n      add\n      tag_313\n      swap1\n      tag_218\n      jump\t// in\n    tag_313:\n      mload(0x40)\n      dup1\n      swap2\n      sub\n      swap1\n      revert\n    tag_312:\n        /* \"WandInstruments.sol\":4783:4791  mockUSDC */\n      0x13\n      0x00\n      swap1\n      sload\n      swap1\n      0x0100\n      exp\n      swap1\n      div\n      0xffffffffffffffffffffffffffffffffffffffff\n      and\n        /* \"WandInstruments.sol\":4783:4800  mockUSDC.transfer */\n      0xffffffffffffffffffffffffffffffffffffffff\n      and\n      0xa9059cbb\n        /* \"WandInstruments.sol\":4801:4811  msg.sender */\n      caller\n        /* \"WandInstruments.sol\":283:289  10**18 */\n      0x0de0b6b3a7640000\n        /* \"WandInstruments.sol\":4832:4833  1 */\n      0x01\n        /* \"WandInstruments.sol\":4832:4844  1*(DECIMALS) */\n      tag_314\n      swap2\n      swap1\n      tag_305\n      jump\t// in\n    tag_314:\n        /* \"WandInstruments.sol\":4813:4828  amountSCPtoSell */\n      dup6\n        /* \"WandInstruments.sol\":4813:4845  amountSCPtoSell + (1*(DECIMALS)) */\n      tag_315\n      swap2\n      swap1\n      tag_199\n      jump\t// in\n    tag_315:\n        /* \"WandInstruments.sol\":4783:4846  mockUSDC.transfer(msg.sender, amountSCPtoSell + (1*(DECIMALS))) */\n      mload(0x40)\n      dup4\n      0xffffffff\n      and\n      0xe0\n      shl\n      dup2\n      mstore\n      0x04\n      add\n      tag_316\n      swap3\n      swap2\n      swap1\n      tag_261\n      jump\t// in\n    tag_316:\n      0x20\n      mload(0x40)\n      dup1\n      dup4\n      sub\n      dup2\n      0x00\n      dup8\n      dup1\n      extcodesize\n      iszero\n      dup1\n      iszero\n      tag_317\n      jumpi\n      0x00\n      dup1\n      revert\n    tag_317:\n      pop\n      gas\n      call\n      iszero\n      dup1\n      iszero\n      tag_319\n      jumpi\n      returndatasize\n      0x00\n      dup1\n      returndatacopy\n      revert(0x00, returndatasize)\n    tag_319:\n      pop\n      pop\n      pop\n      pop\n      mload(0x40)\n      returndatasize\n      not(0x1f)\n      0x1f\n      dup3\n      add\n      and\n      dup3\n      add\n      dup1\n      0x40\n      mstore\n      pop\n      dup2\n      add\n      swap1\n      tag_320\n      swap2\n      swap1\n      tag_266\n      jump\t// in\n    tag_320:\n      pop\n        /* \"WandInstruments.sol\":4947:5013  _safeTransferFrom(tSC, msg.sender, address(this), amountSCPtoSell) */\n      tag_321\n        /* \"WandInstruments.sol\":4965:4968  tSC */\n      0x12\n      0x00\n      swap1\n      sload\n      swap1\n      0x0100\n      exp\n      swap1\n      div\n      0xffffffffffffffffffffffffffffffffffffffff\n      and\n        /* \"WandInstruments.sol\":4970:4980  msg.sender */\n      caller\n        /* \"WandInstruments.sol\":4990:4994  this */\n      address\n        /* \"WandInstruments.sol\":4997:5012  amountSCPtoSell */\n      dup6\n        /* \"WandInstruments.sol\":4947:4964  _safeTransferFrom */\n      tag_220\n        /* \"WandInstruments.sol\":4947:5013  _safeTransferFrom(tSC, msg.sender, address(this), amountSCPtoSell) */\n      jump\t// in\n    tag_321:\n        /* \"WandInstruments.sol\":5290:5306  uint256 dInArray */\n      0x00\n        /* \"WandInstruments.sol\":5340:5345  86400 */\n      0x015180\n        /* \"WandInstruments.sol\":5326:5338  timeLaunched */\n      sload(0x0b)\n        /* \"WandInstruments.sol\":5309:5324  block.timestamp */\n      timestamp\n        /* \"WandInstruments.sol\":5309:5338  block.timestamp- timeLaunched */\n      tag_322\n      swap2\n      swap1\n      tag_208\n      jump\t// in\n    tag_322:\n        /* \"WandInstruments.sol\":5308:5345  (block.timestamp- timeLaunched)/86400 */\n      tag_323\n      swap2\n      swap1\n      tag_223\n      jump\t// in\n    tag_323:\n        /* \"WandInstruments.sol\":5290:5345  uint256 dInArray =(block.timestamp- timeLaunched)/86400 */\n      swap1\n      pop\n        /* \"WandInstruments.sol\":5386:5401  amountSCPtoSell */\n      dup3\n        /* \"WandInstruments.sol\":5357:5372  tokensSoldXDays */\n      0x15\n        /* \"WandInstruments.sol\":5357:5382  tokensSoldXDays[dInArray] */\n      0x00\n        /* \"WandInstruments.sol\":5373:5381  dInArray */\n      dup4\n        /* \"WandInstruments.sol\":5357:5382  tokensSoldXDays[dInArray] */\n      dup2\n      mstore\n      0x20\n      add\n      swap1\n      dup2\n      mstore\n      0x20\n      add\n      0x00\n      keccak256\n      0x00\n        /* \"WandInstruments.sol\":5357:5401  tokensSoldXDays[dInArray] += amountSCPtoSell */\n      dup3\n      dup3\n      sload\n      tag_324\n      swap2\n      swap1\n      tag_199\n      jump\t// in\n    tag_324:\n      swap3\n      pop\n      pop\n      dup2\n      swap1\n      sstore\n      pop\n        /* \"WandInstruments.sol\":4369:5493  {\r... */\n      pop\n      pop\n        /* \"WandInstruments.sol\":4306:5493  function cashOutScepter(uint256 amountSCPtoSell) public payable{\r... */\n      pop\n      jump\t// out\n        /* \"WandInstruments.sol\":10193:10461  function _safeTransferFrom(\r... */\n    tag_220:\n        /* \"WandInstruments.sol\":10347:10356  bool sent */\n      0x00\n        /* \"WandInstruments.sol\":10359:10364  token */\n      dup5\n        /* \"WandInstruments.sol\":10359:10377  token.transferFrom */\n      0xffffffffffffffffffffffffffffffffffffffff\n      and\n      0x23b872dd\n        /* \"WandInstruments.sol\":10378:10384  sender */\n      dup6\n        /* \"WandInstruments.sol\":10386:10395  recipient */\n      dup6\n        /* \"WandInstruments.sol\":10397:10403  amount */\n      dup6\n        /* \"WandInstruments.sol\":10359:10404  token.transferFrom(sender, recipient, amount) */\n      mload(0x40)\n      dup5\n      0xffffffff\n      and\n      0xe0\n      shl\n      dup2\n      mstore\n      0x04\n      add\n      tag_326\n      swap4\n      swap3\n      swap2\n      swap1\n      tag_327\n      jump\t// in\n    tag_326:\n      0x20\n      mload(0x40)\n      dup1\n      dup4\n      sub\n      dup2\n      0x00\n      dup8\n      dup1\n      extcodesize\n      iszero\n      dup1\n      iszero\n      tag_328\n      jumpi\n      0x00\n      dup1\n      revert\n    tag_328:\n      pop\n      gas\n      call\n      iszero\n      dup1\n      iszero\n      tag_330\n      jumpi\n      returndatasize\n      0x00\n      dup1\n      returndatacopy\n      revert(0x00, returndatasize)\n    tag_330:\n      pop\n      pop\n      pop\n      pop\n      mload(0x40)\n      returndatasize\n      not(0x1f)\n      0x1f\n      dup3\n      add\n      and\n      dup3\n      add\n      dup1\n      0x40\n      mstore\n      pop\n      dup2\n      add\n      swap1\n      tag_331\n      swap2\n      swap1\n      tag_266\n      jump\t// in\n    tag_331:\n        /* \"WandInstruments.sol\":10347:10404  bool sent = token.transferFrom(sender, recipient, amount) */\n      swap1\n      pop\n        /* \"WandInstruments.sol\":10423:10427  sent */\n      dup1\n        /* \"WandInstruments.sol\":10415:10453  require(sent, \"Token transfer failed\") */\n      tag_332\n      jumpi\n      mload(0x40)\n      0x08c379a000000000000000000000000000000000000000000000000000000000\n      dup2\n      mstore\n      0x04\n      add\n      tag_333\n      swap1\n      tag_334\n      jump\t// in\n    tag_333:\n      mload(0x40)\n      dup1\n      swap2\n      sub\n      swap1\n      revert\n    tag_332:\n        /* \"WandInstruments.sol\":10336:10461  {\r... */\n      pop\n        /* \"WandInstruments.sol\":10193:10461  function _safeTransferFrom(\r... */\n      pop\n      pop\n      pop\n      pop\n      jump\t// out\n        /* \"WandInstruments.sol\":2535:2755  function mul(uint256 a, uint256 b) internal pure returns (uint256) {\r... */\n    tag_247:\n        /* \"WandInstruments.sol\":2593:2600  uint256 */\n      0x00\n        /* \"WandInstruments.sol\":2618:2619  0 */\n      dup1\n        /* \"WandInstruments.sol\":2613:2614  a */\n      dup4\n        /* \"WandInstruments.sol\":2613:2619  a == 0 */\n      eq\n        /* \"WandInstruments.sol\":2609:2648  if (a == 0) {\r... */\n      iszero\n      tag_336\n      jumpi\n        /* \"WandInstruments.sol\":2639:2640  0 */\n      0x00\n        /* \"WandInstruments.sol\":2632:2640  return 0 */\n      swap1\n      pop\n      jump(tag_335)\n        /* \"WandInstruments.sol\":2609:2648  if (a == 0) {\r... */\n    tag_336:\n        /* \"WandInstruments.sol\":2654:2663  uint256 c */\n      0x00\n        /* \"WandInstruments.sol\":2670:2671  b */\n      dup3\n        /* \"WandInstruments.sol\":2666:2667  a */\n      dup5\n        /* \"WandInstruments.sol\":2666:2671  a * b */\n      tag_337\n      swap2\n      swap1\n      tag_305\n      jump\t// in\n    tag_337:\n        /* \"WandInstruments.sol\":2654:2671  uint256 c = a * b */\n      swap1\n      pop\n        /* \"WandInstruments.sol\":2695:2696  b */\n      dup3\n        /* \"WandInstruments.sol\":2690:2691  a */\n      dup5\n        /* \"WandInstruments.sol\":2686:2687  c */\n      dup3\n        /* \"WandInstruments.sol\":2686:2691  c / a */\n      tag_338\n      swap2\n      swap1\n      tag_223\n      jump\t// in\n    tag_338:\n        /* \"WandInstruments.sol\":2686:2696  c / a == b */\n      eq\n        /* \"WandInstruments.sol\":2678:2734  require(c / a == b, \"uint overflow from multiplication\") */\n      tag_339\n      jumpi\n      mload(0x40)\n      0x08c379a000000000000000000000000000000000000000000000000000000000\n      dup2\n      mstore\n      0x04\n      add\n      tag_340\n      swap1\n      tag_341\n      jump\t// in\n    tag_340:\n      mload(0x40)\n      dup1\n      swap2\n      sub\n      swap1\n      revert\n    tag_339:\n        /* \"WandInstruments.sol\":2748:2749  c */\n      dup1\n        /* \"WandInstruments.sol\":2741:2749  return c */\n      swap2\n      pop\n      pop\n        /* \"WandInstruments.sol\":2535:2755  function mul(uint256 a, uint256 b) internal pure returns (uint256) {\r... */\n    tag_335:\n      swap3\n      swap2\n      pop\n      pop\n      jump\t// out\n        /* \"WandInstruments.sol\":3097:3268  function add(uint256 a, uint256 b) internal pure returns (uint256) {\r... */\n    tag_250:\n        /* \"WandInstruments.sol\":3155:3162  uint256 */\n      0x00\n        /* \"WandInstruments.sol\":3171:3180  uint256 c */\n      dup1\n        /* \"WandInstruments.sol\":3187:3188  b */\n      dup3\n        /* \"WandInstruments.sol\":3183:3184  a */\n      dup5\n        /* \"WandInstruments.sol\":3183:3188  a + b */\n      tag_343\n      swap2\n      swap1\n      tag_199\n      jump\t// in\n    tag_343:\n        /* \"WandInstruments.sol\":3171:3188  uint256 c = a + b */\n      swap1\n      pop\n        /* \"WandInstruments.sol\":3208:3209  a */\n      dup4\n        /* \"WandInstruments.sol\":3203:3204  c */\n      dup2\n        /* \"WandInstruments.sol\":3203:3209  c >= a */\n      lt\n      iszero\n        /* \"WandInstruments.sol\":3195:3247  require(c >= a, \"uint overflow from multiplication\") */\n      tag_344\n      jumpi\n      mload(0x40)\n      0x08c379a000000000000000000000000000000000000000000000000000000000\n      dup2\n      mstore\n      0x04\n      add\n      tag_345\n      swap1\n      tag_341\n      jump\t// in\n    tag_345:\n      mload(0x40)\n      dup1\n      swap2\n      sub\n      swap1\n      revert\n    tag_344:\n        /* \"WandInstruments.sol\":3261:3262  c */\n      dup1\n        /* \"WandInstruments.sol\":3254:3262  return c */\n      swap2\n      pop\n      pop\n        /* \"WandInstruments.sol\":3097:3268  function add(uint256 a, uint256 b) internal pure returns (uint256) {\r... */\n      swap3\n      swap2\n      pop\n      pop\n      jump\t// out\n        /* \"#utility.yul\":7:146   */\n    tag_347:\n        /* \"#utility.yul\":53:58   */\n      0x00\n        /* \"#utility.yul\":91:97   */\n      dup2\n        /* \"#utility.yul\":78:98   */\n      calldataload\n        /* \"#utility.yul\":69:98   */\n      swap1\n      pop\n        /* \"#utility.yul\":107:140   */\n      tag_349\n        /* \"#utility.yul\":134:139   */\n      dup2\n        /* \"#utility.yul\":107:140   */\n      tag_350\n      jump\t// in\n    tag_349:\n        /* \"#utility.yul\":7:146   */\n      swap3\n      swap2\n      pop\n      pop\n      jump\t// out\n        /* \"#utility.yul\":152:289   */\n    tag_351:\n        /* \"#utility.yul\":206:211   */\n      0x00\n        /* \"#utility.yul\":237:243   */\n      dup2\n        /* \"#utility.yul\":231:244   */\n      mload\n        /* \"#utility.yul\":222:244   */\n      swap1\n      pop\n        /* \"#utility.yul\":253:283   */\n      tag_353\n        /* \"#utility.yul\":277:282   */\n      dup2\n        /* \"#utility.yul\":253:283   */\n      tag_354\n      jump\t// in\n    tag_353:\n        /* \"#utility.yul\":152:289   */\n      swap3\n      swap2\n      pop\n      pop\n      jump\t// out\n        /* \"#utility.yul\":295:434   */\n    tag_355:\n        /* \"#utility.yul\":341:346   */\n      0x00\n        /* \"#utility.yul\":379:385   */\n      dup2\n        /* \"#utility.yul\":366:386   */\n      calldataload\n        /* \"#utility.yul\":357:386   */\n      swap1\n      pop\n        /* \"#utility.yul\":395:428   */\n      tag_357\n        /* \"#utility.yul\":422:427   */\n      dup2\n        /* \"#utility.yul\":395:428   */\n      tag_358\n      jump\t// in\n    tag_357:\n        /* \"#utility.yul\":295:434   */\n      swap3\n      swap2\n      pop\n      pop\n      jump\t// out\n        /* \"#utility.yul\":440:583   */\n    tag_359:\n        /* \"#utility.yul\":497:502   */\n      0x00\n        /* \"#utility.yul\":528:534   */\n      dup2\n        /* \"#utility.yul\":522:535   */\n      mload\n        /* \"#utility.yul\":513:535   */\n      swap1\n      pop\n        /* \"#utility.yul\":544:577   */\n      tag_361\n        /* \"#utility.yul\":571:576   */\n      dup2\n        /* \"#utility.yul\":544:577   */\n      tag_358\n      jump\t// in\n    tag_361:\n        /* \"#utility.yul\":440:583   */\n      swap3\n      swap2\n      pop\n      pop\n      jump\t// out\n        /* \"#utility.yul\":589:918   */\n    tag_59:\n        /* \"#utility.yul\":648:654   */\n      0x00\n        /* \"#utility.yul\":697:699   */\n      0x20\n        /* \"#utility.yul\":685:694   */\n      dup3\n        /* \"#utility.yul\":676:683   */\n      dup5\n        /* \"#utility.yul\":672:695   */\n      sub\n        /* \"#utility.yul\":668:700   */\n      slt\n        /* \"#utility.yul\":665:784   */\n      iszero\n      tag_363\n      jumpi\n        /* \"#utility.yul\":703:782   */\n      tag_364\n      tag_365\n      jump\t// in\n    tag_364:\n        /* \"#utility.yul\":665:784   */\n    tag_363:\n        /* \"#utility.yul\":823:824   */\n      0x00\n        /* \"#utility.yul\":848:901   */\n      tag_366\n        /* \"#utility.yul\":893:900   */\n      dup5\n        /* \"#utility.yul\":884:890   */\n      dup3\n        /* \"#utility.yul\":873:882   */\n      dup6\n        /* \"#utility.yul\":869:891   */\n      add\n        /* \"#utility.yul\":848:901   */\n      tag_347\n      jump\t// in\n    tag_366:\n        /* \"#utility.yul\":838:901   */\n      swap2\n      pop\n        /* \"#utility.yul\":794:911   */\n      pop\n        /* \"#utility.yul\":589:918   */\n      swap3\n      swap2\n      pop\n      pop\n      jump\t// out\n        /* \"#utility.yul\":924:1398   */\n    tag_160:\n        /* \"#utility.yul\":992:998   */\n      0x00\n        /* \"#utility.yul\":1000:1006   */\n      dup1\n        /* \"#utility.yul\":1049:1051   */\n      0x40\n        /* \"#utility.yul\":1037:1046   */\n      dup4\n        /* \"#utility.yul\":1028:1035   */\n      dup6\n        /* \"#utility.yul\":1024:1047   */\n      sub\n        /* \"#utility.yul\":1020:1052   */\n      slt\n        /* \"#utility.yul\":1017:1136   */\n      iszero\n      tag_368\n      jumpi\n        /* \"#utility.yul\":1055:1134   */\n      tag_369\n      tag_365\n      jump\t// in\n    tag_369:\n        /* \"#utility.yul\":1017:1136   */\n    tag_368:\n        /* \"#utility.yul\":1175:1176   */\n      0x00\n        /* \"#utility.yul\":1200:1253   */\n      tag_370\n        /* \"#utility.yul\":1245:1252   */\n      dup6\n        /* \"#utility.yul\":1236:1242   */\n      dup3\n        /* \"#utility.yul\":1225:1234   */\n      dup7\n        /* \"#utility.yul\":1221:1243   */\n      add\n        /* \"#utility.yul\":1200:1253   */\n      tag_347\n      jump\t// in\n    tag_370:\n        /* \"#utility.yul\":1190:1253   */\n      swap3\n      pop\n        /* \"#utility.yul\":1146:1263   */\n      pop\n        /* \"#utility.yul\":1302:1304   */\n      0x20\n        /* \"#utility.yul\":1328:1381   */\n      tag_371\n        /* \"#utility.yul\":1373:1380   */\n      dup6\n        /* \"#utility.yul\":1364:1370   */\n      dup3\n        /* \"#utility.yul\":1353:1362   */\n      dup7\n        /* \"#utility.yul\":1349:1371   */\n      add\n        /* \"#utility.yul\":1328:1381   */\n      tag_347\n      jump\t// in\n    tag_371:\n        /* \"#utility.yul\":1318:1381   */\n      swap2\n      pop\n        /* \"#utility.yul\":1273:1391   */\n      pop\n        /* \"#utility.yul\":924:1398   */\n      swap3\n      pop\n      swap3\n      swap1\n      pop\n      jump\t// out\n        /* \"#utility.yul\":1404:1749   */\n    tag_266:\n        /* \"#utility.yul\":1471:1477   */\n      0x00\n        /* \"#utility.yul\":1520:1522   */\n      0x20\n        /* \"#utility.yul\":1508:1517   */\n      dup3\n        /* \"#utility.yul\":1499:1506   */\n      dup5\n        /* \"#utility.yul\":1495:1518   */\n      sub\n        /* \"#utility.yul\":1491:1523   */\n      slt\n        /* \"#utility.yul\":1488:1607   */\n      iszero\n      tag_373\n      jumpi\n        /* \"#utility.yul\":1526:1605   */\n      tag_374\n      tag_365\n      jump\t// in\n    tag_374:\n        /* \"#utility.yul\":1488:1607   */\n    tag_373:\n        /* \"#utility.yul\":1646:1647   */\n      0x00\n        /* \"#utility.yul\":1671:1732   */\n      tag_375\n        /* \"#utility.yul\":1724:1731   */\n      dup5\n        /* \"#utility.yul\":1715:1721   */\n      dup3\n        /* \"#utility.yul\":1704:1713   */\n      dup6\n        /* \"#utility.yul\":1700:1722   */\n      add\n        /* \"#utility.yul\":1671:1732   */\n      tag_351\n      jump\t// in\n    tag_375:\n        /* \"#utility.yul\":1661:1732   */\n      swap2\n      pop\n        /* \"#utility.yul\":1617:1742   */\n      pop\n        /* \"#utility.yul\":1404:1749   */\n      swap3\n      swap2\n      pop\n      pop\n      jump\t// out\n        /* \"#utility.yul\":1755:2084   */\n    tag_66:\n        /* \"#utility.yul\":1814:1820   */\n      0x00\n        /* \"#utility.yul\":1863:1865   */\n      0x20\n        /* \"#utility.yul\":1851:1860   */\n      dup3\n        /* \"#utility.yul\":1842:1849   */\n      dup5\n        /* \"#utility.yul\":1838:1861   */\n      sub\n        /* \"#utility.yul\":1834:1866   */\n      slt\n        /* \"#utility.yul\":1831:1950   */\n      iszero\n      tag_377\n      jumpi\n        /* \"#utility.yul\":1869:1948   */\n      tag_378\n      tag_365\n      jump\t// in\n    tag_378:\n        /* \"#utility.yul\":1831:1950   */\n    tag_377:\n        /* \"#utility.yul\":1989:1990   */\n      0x00\n        /* \"#utility.yul\":2014:2067   */\n      tag_379\n        /* \"#utility.yul\":2059:2066   */\n      dup5\n        /* \"#utility.yul\":2050:2056   */\n      dup3\n        /* \"#utility.yul\":2039:2048   */\n      dup6\n        /* \"#utility.yul\":2035:2057   */\n      add\n        /* \"#utility.yul\":2014:2067   */\n      tag_355\n      jump\t// in\n    tag_379:\n        /* \"#utility.yul\":2004:2067   */\n      swap2\n      pop\n        /* \"#utility.yul\":1960:2077   */\n      pop\n        /* \"#utility.yul\":1755:2084   */\n      swap3\n      swap2\n      pop\n      pop\n      jump\t// out\n        /* \"#utility.yul\":2090:2441   */\n    tag_193:\n        /* \"#utility.yul\":2160:2166   */\n      0x00\n        /* \"#utility.yul\":2209:2211   */\n      0x20\n        /* \"#utility.yul\":2197:2206   */\n      dup3\n        /* \"#utility.yul\":2188:2195   */\n      dup5\n        /* \"#utility.yul\":2184:2207   */\n      sub\n        /* \"#utility.yul\":2180:2212   */\n      slt\n        /* \"#utility.yul\":2177:2296   */\n      iszero\n      tag_381\n      jumpi\n        /* \"#utility.yul\":2215:2294   */\n      tag_382\n      tag_365\n      jump\t// in\n    tag_382:\n        /* \"#utility.yul\":2177:2296   */\n    tag_381:\n        /* \"#utility.yul\":2335:2336   */\n      0x00\n        /* \"#utility.yul\":2360:2424   */\n      tag_383\n        /* \"#utility.yul\":2416:2423   */\n      dup5\n        /* \"#utility.yul\":2407:2413   */\n      dup3\n        /* \"#utility.yul\":2396:2405   */\n      dup6\n        /* \"#utility.yul\":2392:2414   */\n      add\n        /* \"#utility.yul\":2360:2424   */\n      tag_359\n      jump\t// in\n    tag_383:\n        /* \"#utility.yul\":2350:2424   */\n      swap2\n      pop\n        /* \"#utility.yul\":2306:2434   */\n      pop\n        /* \"#utility.yul\":2090:2441   */\n      swap3\n      swap2\n      pop\n      pop\n      jump\t// out\n        /* \"#utility.yul\":2447:2921   */\n    tag_104:\n        /* \"#utility.yul\":2515:2521   */\n      0x00\n        /* \"#utility.yul\":2523:2529   */\n      dup1\n        /* \"#utility.yul\":2572:2574   */\n      0x40\n        /* \"#utility.yul\":2560:2569   */\n      dup4\n        /* \"#utility.yul\":2551:2558   */\n      dup6\n        /* \"#utility.yul\":2547:2570   */\n      sub\n        /* \"#utility.yul\":2543:2575   */\n      slt\n        /* \"#utility.yul\":2540:2659   */\n      iszero\n      tag_385\n      jumpi\n        /* \"#utility.yul\":2578:2657   */\n      tag_386\n      tag_365\n      jump\t// in\n    tag_386:\n        /* \"#utility.yul\":2540:2659   */\n    tag_385:\n        /* \"#utility.yul\":2698:2699   */\n      0x00\n        /* \"#utility.yul\":2723:2776   */\n      tag_387\n        /* \"#utility.yul\":2768:2775   */\n      dup6\n        /* \"#utility.yul\":2759:2765   */\n      dup3\n        /* \"#utility.yul\":2748:2757   */\n      dup7\n        /* \"#utility.yul\":2744:2766   */\n      add\n        /* \"#utility.yul\":2723:2776   */\n      tag_355\n      jump\t// in\n    tag_387:\n        /* \"#utility.yul\":2713:2776   */\n      swap3\n      pop\n        /* \"#utility.yul\":2669:2786   */\n      pop\n        /* \"#utility.yul\":2825:2827   */\n      0x20\n        /* \"#utility.yul\":2851:2904   */\n      tag_388\n        /* \"#utility.yul\":2896:2903   */\n      dup6\n        /* \"#utility.yul\":2887:2893   */\n      dup3\n        /* \"#utility.yul\":2876:2885   */\n      dup7\n        /* \"#utility.yul\":2872:2894   */\n      add\n        /* \"#utility.yul\":2851:2904   */\n      tag_355\n      jump\t// in\n    tag_388:\n        /* \"#utility.yul\":2841:2904   */\n      swap2\n      pop\n        /* \"#utility.yul\":2796:2914   */\n      pop\n        /* \"#utility.yul\":2447:2921   */\n      swap3\n      pop\n      swap3\n      swap1\n      pop\n      jump\t// out\n        /* \"#utility.yul\":2927:3045   */\n    tag_389:\n        /* \"#utility.yul\":3014:3038   */\n      tag_391\n        /* \"#utility.yul\":3032:3037   */\n      dup2\n        /* \"#utility.yul\":3014:3038   */\n      tag_392\n      jump\t// in\n    tag_391:\n        /* \"#utility.yul\":3009:3012   */\n      dup3\n        /* \"#utility.yul\":3002:3039   */\n      mstore\n        /* \"#utility.yul\":2927:3045   */\n      pop\n      pop\n      jump\t// out\n        /* \"#utility.yul\":3051:3208   */\n    tag_393:\n        /* \"#utility.yul\":3151:3201   */\n      tag_395\n        /* \"#utility.yul\":3195:3200   */\n      dup2\n        /* \"#utility.yul\":3151:3201   */\n      tag_396\n      jump\t// in\n    tag_395:\n        /* \"#utility.yul\":3146:3149   */\n      dup3\n        /* \"#utility.yul\":3139:3202   */\n      mstore\n        /* \"#utility.yul\":3051:3208   */\n      pop\n      pop\n      jump\t// out\n        /* \"#utility.yul\":3214:3329   */\n    tag_397:\n        /* \"#utility.yul\":3299:3322   */\n      tag_399\n        /* \"#utility.yul\":3316:3321   */\n      dup2\n        /* \"#utility.yul\":3299:3322   */\n      tag_400\n      jump\t// in\n    tag_399:\n        /* \"#utility.yul\":3294:3297   */\n      dup3\n        /* \"#utility.yul\":3287:3323   */\n      mstore\n        /* \"#utility.yul\":3214:3329   */\n      pop\n      pop\n      jump\t// out\n        /* \"#utility.yul\":3335:3701   */\n    tag_401:\n        /* \"#utility.yul\":3477:3480   */\n      0x00\n        /* \"#utility.yul\":3498:3565   */\n      tag_403\n        /* \"#utility.yul\":3562:3564   */\n      0x24\n        /* \"#utility.yul\":3557:3560   */\n      dup4\n        /* \"#utility.yul\":3498:3565   */\n      tag_404\n      jump\t// in\n    tag_403:\n        /* \"#utility.yul\":3491:3565   */\n      swap2\n      pop\n        /* \"#utility.yul\":3574:3667   */\n      tag_405\n        /* \"#utility.yul\":3663:3666   */\n      dup3\n        /* \"#utility.yul\":3574:3667   */\n      tag_406\n      jump\t// in\n    tag_405:\n        /* \"#utility.yul\":3692:3694   */\n      0x40\n        /* \"#utility.yul\":3687:3690   */\n      dup3\n        /* \"#utility.yul\":3683:3695   */\n      add\n        /* \"#utility.yul\":3676:3695   */\n      swap1\n      pop\n        /* \"#utility.yul\":3335:3701   */\n      swap2\n      swap1\n      pop\n      jump\t// out\n        /* \"#utility.yul\":3707:4073   */\n    tag_407:\n        /* \"#utility.yul\":3849:3852   */\n      0x00\n        /* \"#utility.yul\":3870:3937   */\n      tag_409\n        /* \"#utility.yul\":3934:3936   */\n      0x15\n        /* \"#utility.yul\":3929:3932   */\n      dup4\n        /* \"#utility.yul\":3870:3937   */\n      tag_404\n      jump\t// in\n    tag_409:\n        /* \"#utility.yul\":3863:3937   */\n      swap2\n      pop\n        /* \"#utility.yul\":3946:4039   */\n      tag_410\n        /* \"#utility.yul\":4035:4038   */\n      dup3\n        /* \"#utility.yul\":3946:4039   */\n      tag_411\n      jump\t// in\n    tag_410:\n        /* \"#utility.yul\":4064:4066   */\n      0x20\n        /* \"#utility.yul\":4059:4062   */\n      dup3\n        /* \"#utility.yul\":4055:4067   */\n      add\n        /* \"#utility.yul\":4048:4067   */\n      swap1\n      pop\n        /* \"#utility.yul\":3707:4073   */\n      swap2\n      swap1\n      pop\n      jump\t// out\n        /* \"#utility.yul\":4079:4445   */\n    tag_412:\n        /* \"#utility.yul\":4221:4224   */\n      0x00\n        /* \"#utility.yul\":4242:4309   */\n      tag_414\n        /* \"#utility.yul\":4306:4308   */\n      0x1a\n        /* \"#utility.yul\":4301:4304   */\n      dup4\n        /* \"#utility.yul\":4242:4309   */\n      tag_404\n      jump\t// in\n    tag_414:\n        /* \"#utility.yul\":4235:4309   */\n      swap2\n      pop\n        /* \"#utility.yul\":4318:4411   */\n      tag_415\n        /* \"#utility.yul\":4407:4410   */\n      dup3\n        /* \"#utility.yul\":4318:4411   */\n      tag_416\n      jump\t// in\n    tag_415:\n        /* \"#utility.yul\":4436:4438   */\n      0x20\n        /* \"#utility.yul\":4431:4434   */\n      dup3\n        /* \"#utility.yul\":4427:4439   */\n      add\n        /* \"#utility.yul\":4420:4439   */\n      swap1\n      pop\n        /* \"#utility.yul\":4079:4445   */\n      swap2\n      swap1\n      pop\n      jump\t// out\n        /* \"#utility.yul\":4451:4817   */\n    tag_417:\n        /* \"#utility.yul\":4593:4596   */\n      0x00\n        /* \"#utility.yul\":4614:4681   */\n      tag_419\n        /* \"#utility.yul\":4678:4680   */\n      0x21\n        /* \"#utility.yul\":4673:4676   */\n      dup4\n        /* \"#utility.yul\":4614:4681   */\n      tag_404\n      jump\t// in\n    tag_419:\n        /* \"#utility.yul\":4607:4681   */\n      swap2\n      pop\n        /* \"#utility.yul\":4690:4783   */\n      tag_420\n        /* \"#utility.yul\":4779:4782   */\n      dup3\n        /* \"#utility.yul\":4690:4783   */\n      tag_421\n      jump\t// in\n    tag_420:\n        /* \"#utility.yul\":4808:4810   */\n      0x40\n        /* \"#utility.yul\":4803:4806   */\n      dup3\n        /* \"#utility.yul\":4799:4811   */\n      add\n        /* \"#utility.yul\":4792:4811   */\n      swap1\n      pop\n        /* \"#utility.yul\":4451:4817   */\n      swap2\n      swap1\n      pop\n      jump\t// out\n        /* \"#utility.yul\":4823:4941   */\n    tag_422:\n        /* \"#utility.yul\":4910:4934   */\n      tag_424\n        /* \"#utility.yul\":4928:4933   */\n      dup2\n        /* \"#utility.yul\":4910:4934   */\n      tag_425\n      jump\t// in\n    tag_424:\n        /* \"#utility.yul\":4905:4908   */\n      dup3\n        /* \"#utility.yul\":4898:4935   */\n      mstore\n        /* \"#utility.yul\":4823:4941   */\n      pop\n      pop\n      jump\t// out\n        /* \"#utility.yul\":4947:5169   */\n    tag_51:\n        /* \"#utility.yul\":5040:5044   */\n      0x00\n        /* \"#utility.yul\":5078:5080   */\n      0x20\n        /* \"#utility.yul\":5067:5076   */\n      dup3\n        /* \"#utility.yul\":5063:5081   */\n      add\n        /* \"#utility.yul\":5055:5081   */\n      swap1\n      pop\n        /* \"#utility.yul\":5091:5162   */\n      tag_427\n        /* \"#utility.yul\":5159:5160   */\n      0x00\n        /* \"#utility.yul\":5148:5157   */\n      dup4\n        /* \"#utility.yul\":5144:5161   */\n      add\n        /* \"#utility.yul\":5135:5141   */\n      dup5\n        /* \"#utility.yul\":5091:5162   */\n      tag_389\n      jump\t// in\n    tag_427:\n        /* \"#utility.yul\":4947:5169   */\n      swap3\n      swap2\n      pop\n      pop\n      jump\t// out\n        /* \"#utility.yul\":5175:5617   */\n    tag_327:\n        /* \"#utility.yul\":5324:5328   */\n      0x00\n        /* \"#utility.yul\":5362:5364   */\n      0x60\n        /* \"#utility.yul\":5351:5360   */\n      dup3\n        /* \"#utility.yul\":5347:5365   */\n      add\n        /* \"#utility.yul\":5339:5365   */\n      swap1\n      pop\n        /* \"#utility.yul\":5375:5446   */\n      tag_429\n        /* \"#utility.yul\":5443:5444   */\n      0x00\n        /* \"#utility.yul\":5432:5441   */\n      dup4\n        /* \"#utility.yul\":5428:5445   */\n      add\n        /* \"#utility.yul\":5419:5425   */\n      dup7\n        /* \"#utility.yul\":5375:5446   */\n      tag_389\n      jump\t// in\n    tag_429:\n        /* \"#utility.yul\":5456:5528   */\n      tag_430\n        /* \"#utility.yul\":5524:5526   */\n      0x20\n        /* \"#utility.yul\":5513:5522   */\n      dup4\n        /* \"#utility.yul\":5509:5527   */\n      add\n        /* \"#utility.yul\":5500:5506   */\n      dup6\n        /* \"#utility.yul\":5456:5528   */\n      tag_389\n      jump\t// in\n    tag_430:\n        /* \"#utility.yul\":5538:5610   */\n      tag_431\n        /* \"#utility.yul\":5606:5608   */\n      0x40\n        /* \"#utility.yul\":5595:5604   */\n      dup4\n        /* \"#utility.yul\":5591:5609   */\n      add\n        /* \"#utility.yul\":5582:5588   */\n      dup5\n        /* \"#utility.yul\":5538:5610   */\n      tag_422\n      jump\t// in\n    tag_431:\n        /* \"#utility.yul\":5175:5617   */\n      swap5\n      swap4\n      pop\n      pop\n      pop\n      pop\n      jump\t// out\n        /* \"#utility.yul\":5623:5955   */\n    tag_261:\n        /* \"#utility.yul\":5744:5748   */\n      0x00\n        /* \"#utility.yul\":5782:5784   */\n      0x40\n        /* \"#utility.yul\":5771:5780   */\n      dup3\n        /* \"#utility.yul\":5767:5785   */\n      add\n        /* \"#utility.yul\":5759:5785   */\n      swap1\n      pop\n        /* \"#utility.yul\":5795:5866   */\n      tag_433\n        /* \"#utility.yul\":5863:5864   */\n      0x00\n        /* \"#utility.yul\":5852:5861   */\n      dup4\n        /* \"#utility.yul\":5848:5865   */\n      add\n        /* \"#utility.yul\":5839:5845   */\n      dup6\n        /* \"#utility.yul\":5795:5866   */\n      tag_389\n      jump\t// in\n    tag_433:\n        /* \"#utility.yul\":5876:5948   */\n      tag_434\n        /* \"#utility.yul\":5944:5946   */\n      0x20\n        /* \"#utility.yul\":5933:5942   */\n      dup4\n        /* \"#utility.yul\":5929:5947   */\n      add\n        /* \"#utility.yul\":5920:5926   */\n      dup5\n        /* \"#utility.yul\":5876:5948   */\n      tag_422\n      jump\t// in\n    tag_434:\n        /* \"#utility.yul\":5623:5955   */\n      swap4\n      swap3\n      pop\n      pop\n      pop\n      jump\t// out\n        /* \"#utility.yul\":5961:6209   */\n    tag_127:\n        /* \"#utility.yul\":6067:6071   */\n      0x00\n        /* \"#utility.yul\":6105:6107   */\n      0x20\n        /* \"#utility.yul\":6094:6103   */\n      dup3\n        /* \"#utility.yul\":6090:6108   */\n      add\n        /* \"#utility.yul\":6082:6108   */\n      swap1\n      pop\n        /* \"#utility.yul\":6118:6202   */\n      tag_436\n        /* \"#utility.yul\":6199:6200   */\n      0x00\n        /* \"#utility.yul\":6188:6197   */\n      dup4\n        /* \"#utility.yul\":6184:6201   */\n      add\n        /* \"#utility.yul\":6175:6181   */\n      dup5\n        /* \"#utility.yul\":6118:6202   */\n      tag_393\n      jump\t// in\n    tag_436:\n        /* \"#utility.yul\":5961:6209   */\n      swap3\n      swap2\n      pop\n      pop\n      jump\t// out\n        /* \"#utility.yul\":6215:6433   */\n    tag_132:\n        /* \"#utility.yul\":6306:6310   */\n      0x00\n        /* \"#utility.yul\":6344:6346   */\n      0x20\n        /* \"#utility.yul\":6333:6342   */\n      dup3\n        /* \"#utility.yul\":6329:6347   */\n      add\n        /* \"#utility.yul\":6321:6347   */\n      swap1\n      pop\n        /* \"#utility.yul\":6357:6426   */\n      tag_438\n        /* \"#utility.yul\":6423:6424   */\n      0x00\n        /* \"#utility.yul\":6412:6421   */\n      dup4\n        /* \"#utility.yul\":6408:6425   */\n      add\n        /* \"#utility.yul\":6399:6405   */\n      dup5\n        /* \"#utility.yul\":6357:6426   */\n      tag_397\n      jump\t// in\n    tag_438:\n        /* \"#utility.yul\":6215:6433   */\n      swap3\n      swap2\n      pop\n      pop\n      jump\t// out\n        /* \"#utility.yul\":6439:6858   */\n    tag_206:\n        /* \"#utility.yul\":6605:6609   */\n      0x00\n        /* \"#utility.yul\":6643:6645   */\n      0x20\n        /* \"#utility.yul\":6632:6641   */\n      dup3\n        /* \"#utility.yul\":6628:6646   */\n      add\n        /* \"#utility.yul\":6620:6646   */\n      swap1\n      pop\n        /* \"#utility.yul\":6692:6701   */\n      dup2\n        /* \"#utility.yul\":6686:6690   */\n      dup2\n        /* \"#utility.yul\":6682:6702   */\n      sub\n        /* \"#utility.yul\":6678:6679   */\n      0x00\n        /* \"#utility.yul\":6667:6676   */\n      dup4\n        /* \"#utility.yul\":6663:6680   */\n      add\n        /* \"#utility.yul\":6656:6703   */\n      mstore\n        /* \"#utility.yul\":6720:6851   */\n      tag_440\n        /* \"#utility.yul\":6846:6850   */\n      dup2\n        /* \"#utility.yul\":6720:6851   */\n      tag_401\n      jump\t// in\n    tag_440:\n        /* \"#utility.yul\":6712:6851   */\n      swap1\n      pop\n        /* \"#utility.yul\":6439:6858   */\n      swap2\n      swap1\n      pop\n      jump\t// out\n        /* \"#utility.yul\":6864:7283   */\n    tag_334:\n        /* \"#utility.yul\":7030:7034   */\n      0x00\n        /* \"#utility.yul\":7068:7070   */\n      0x20\n        /* \"#utility.yul\":7057:7066   */\n      dup3\n        /* \"#utility.yul\":7053:7071   */\n      add\n        /* \"#utility.yul\":7045:7071   */\n      swap1\n      pop\n        /* \"#utility.yul\":7117:7126   */\n      dup2\n        /* \"#utility.yul\":7111:7115   */\n      dup2\n        /* \"#utility.yul\":7107:7127   */\n      sub\n        /* \"#utility.yul\":7103:7104   */\n      0x00\n        /* \"#utility.yul\":7092:7101   */\n      dup4\n        /* \"#utility.yul\":7088:7105   */\n      add\n        /* \"#utility.yul\":7081:7128   */\n      mstore\n        /* \"#utility.yul\":7145:7276   */\n      tag_442\n        /* \"#utility.yul\":7271:7275   */\n      dup2\n        /* \"#utility.yul\":7145:7276   */\n      tag_407\n      jump\t// in\n    tag_442:\n        /* \"#utility.yul\":7137:7276   */\n      swap1\n      pop\n        /* \"#utility.yul\":6864:7283   */\n      swap2\n      swap1\n      pop\n      jump\t// out\n        /* \"#utility.yul\":7289:7708   */\n    tag_218:\n        /* \"#utility.yul\":7455:7459   */\n      0x00\n        /* \"#utility.yul\":7493:7495   */\n      0x20\n        /* \"#utility.yul\":7482:7491   */\n      dup3\n        /* \"#utility.yul\":7478:7496   */\n      add\n        /* \"#utility.yul\":7470:7496   */\n      swap1\n      pop\n        /* \"#utility.yul\":7542:7551   */\n      dup2\n        /* \"#utility.yul\":7536:7540   */\n      dup2\n        /* \"#utility.yul\":7532:7552   */\n      sub\n        /* \"#utility.yul\":7528:7529   */\n      0x00\n        /* \"#utility.yul\":7517:7526   */\n      dup4\n        /* \"#utility.yul\":7513:7530   */\n      add\n        /* \"#utility.yul\":7506:7553   */\n      mstore\n        /* \"#utility.yul\":7570:7701   */\n      tag_444\n        /* \"#utility.yul\":7696:7700   */\n      dup2\n        /* \"#utility.yul\":7570:7701   */\n      tag_412\n      jump\t// in\n    tag_444:\n        /* \"#utility.yul\":7562:7701   */\n      swap1\n      pop\n        /* \"#utility.yul\":7289:7708   */\n      swap2\n      swap1\n      pop\n      jump\t// out\n        /* \"#utility.yul\":7714:8133   */\n    tag_341:\n        /* \"#utility.yul\":7880:7884   */\n      0x00\n        /* \"#utility.yul\":7918:7920   */\n      0x20\n        /* \"#utility.yul\":7907:7916   */\n      dup3\n        /* \"#utility.yul\":7903:7921   */\n      add\n        /* \"#utility.yul\":7895:7921   */\n      swap1\n      pop\n        /* \"#utility.yul\":7967:7976   */\n      dup2\n        /* \"#utility.yul\":7961:7965   */\n      dup2\n        /* \"#utility.yul\":7957:7977   */\n      sub\n        /* \"#utility.yul\":7953:7954   */\n      0x00\n        /* \"#utility.yul\":7942:7951   */\n      dup4\n        /* \"#utility.yul\":7938:7955   */\n      add\n        /* \"#utility.yul\":7931:7978   */\n      mstore\n        /* \"#utility.yul\":7995:8126   */\n      tag_446\n        /* \"#utility.yul\":8121:8125   */\n      dup2\n        /* \"#utility.yul\":7995:8126   */\n      tag_417\n      jump\t// in\n    tag_446:\n        /* \"#utility.yul\":7987:8126   */\n      swap1\n      pop\n        /* \"#utility.yul\":7714:8133   */\n      swap2\n      swap1\n      pop\n      jump\t// out\n        /* \"#utility.yul\":8139:8361   */\n    tag_46:\n        /* \"#utility.yul\":8232:8236   */\n      0x00\n        /* \"#utility.yul\":8270:8272   */\n      0x20\n        /* \"#utility.yul\":8259:8268   */\n      dup3\n        /* \"#utility.yul\":8255:8273   */\n      add\n        /* \"#utility.yul\":8247:8273   */\n      swap1\n      pop\n        /* \"#utility.yul\":8283:8354   */\n      tag_448\n        /* \"#utility.yul\":8351:8352   */\n      0x00\n        /* \"#utility.yul\":8340:8349   */\n      dup4\n        /* \"#utility.yul\":8336:8353   */\n      add\n        /* \"#utility.yul\":8327:8333   */\n      dup5\n        /* \"#utility.yul\":8283:8354   */\n      tag_422\n      jump\t// in\n    tag_448:\n        /* \"#utility.yul\":8139:8361   */\n      swap3\n      swap2\n      pop\n      pop\n      jump\t// out\n        /* \"#utility.yul\":8367:8699   */\n    tag_62:\n        /* \"#utility.yul\":8488:8492   */\n      0x00\n        /* \"#utility.yul\":8526:8528   */\n      0x40\n        /* \"#utility.yul\":8515:8524   */\n      dup3\n        /* \"#utility.yul\":8511:8529   */\n      add\n        /* \"#utility.yul\":8503:8529   */\n      swap1\n      pop\n        /* \"#utility.yul\":8539:8610   */\n      tag_450\n        /* \"#utility.yul\":8607:8608   */\n      0x00\n        /* \"#utility.yul\":8596:8605   */\n      dup4\n        /* \"#utility.yul\":8592:8609   */\n      add\n        /* \"#utility.yul\":8583:8589   */\n      dup6\n        /* \"#utility.yul\":8539:8610   */\n      tag_422\n      jump\t// in\n    tag_450:\n        /* \"#utility.yul\":8620:8692   */\n      tag_451\n        /* \"#utility.yul\":8688:8690   */\n      0x20\n        /* \"#utility.yul\":8677:8686   */\n      dup4\n        /* \"#utility.yul\":8673:8691   */\n      add\n        /* \"#utility.yul\":8664:8670   */\n      dup5\n        /* \"#utility.yul\":8620:8692   */\n      tag_422\n      jump\t// in\n    tag_451:\n        /* \"#utility.yul\":8367:8699   */\n      swap4\n      swap3\n      pop\n      pop\n      pop\n      jump\t// out\n        /* \"#utility.yul\":8786:8955   */\n    tag_404:\n        /* \"#utility.yul\":8870:8881   */\n      0x00\n        /* \"#utility.yul\":8904:8910   */\n      dup3\n        /* \"#utility.yul\":8899:8902   */\n      dup3\n        /* \"#utility.yul\":8892:8911   */\n      mstore\n        /* \"#utility.yul\":8944:8948   */\n      0x20\n        /* \"#utility.yul\":8939:8942   */\n      dup3\n        /* \"#utility.yul\":8935:8949   */\n      add\n        /* \"#utility.yul\":8920:8949   */\n      swap1\n      pop\n        /* \"#utility.yul\":8786:8955   */\n      swap3\n      swap2\n      pop\n      pop\n      jump\t// out\n        /* \"#utility.yul\":8961:9266   */\n    tag_199:\n        /* \"#utility.yul\":9001:9004   */\n      0x00\n        /* \"#utility.yul\":9020:9040   */\n      tag_456\n        /* \"#utility.yul\":9038:9039   */\n      dup3\n        /* \"#utility.yul\":9020:9040   */\n      tag_425\n      jump\t// in\n    tag_456:\n        /* \"#utility.yul\":9015:9040   */\n      swap2\n      pop\n        /* \"#utility.yul\":9054:9074   */\n      tag_457\n        /* \"#utility.yul\":9072:9073   */\n      dup4\n        /* \"#utility.yul\":9054:9074   */\n      tag_425\n      jump\t// in\n    tag_457:\n        /* \"#utility.yul\":9049:9074   */\n      swap3\n      pop\n        /* \"#utility.yul\":9208:9209   */\n      dup3\n        /* \"#utility.yul\":9140:9206   */\n      0xffffffffffffffffffffffffffffffffffffffffffffffffffffffffffffffff\n        /* \"#utility.yul\":9136:9210   */\n      sub\n        /* \"#utility.yul\":9133:9134   */\n      dup3\n        /* \"#utility.yul\":9130:9211   */\n      gt\n        /* \"#utility.yul\":9127:9234   */\n      iszero\n      tag_458\n      jumpi\n        /* \"#utility.yul\":9214:9232   */\n      tag_459\n      tag_460\n      jump\t// in\n    tag_459:\n        /* \"#utility.yul\":9127:9234   */\n    tag_458:\n        /* \"#utility.yul\":9258:9259   */\n      dup3\n        /* \"#utility.yul\":9255:9256   */\n      dup3\n        /* \"#utility.yul\":9251:9260   */\n      add\n        /* \"#utility.yul\":9244:9260   */\n      swap1\n      pop\n        /* \"#utility.yul\":8961:9266   */\n      swap3\n      swap2\n      pop\n      pop\n      jump\t// out\n        /* \"#utility.yul\":9272:9457   */\n    tag_223:\n        /* \"#utility.yul\":9312:9313   */\n      0x00\n        /* \"#utility.yul\":9329:9349   */\n      tag_462\n        /* \"#utility.yul\":9347:9348   */\n      dup3\n        /* \"#utility.yul\":9329:9349   */\n      tag_425\n      jump\t// in\n    tag_462:\n        /* \"#utility.yul\":9324:9349   */\n      swap2\n      pop\n        /* \"#utility.yul\":9363:9383   */\n      tag_463\n        /* \"#utility.yul\":9381:9382   */\n      dup4\n        /* \"#utility.yul\":9363:9383   */\n      tag_425\n      jump\t// in\n    tag_463:\n        /* \"#utility.yul\":9358:9383   */\n      swap3\n      pop\n        /* \"#utility.yul\":9402:9403   */\n      dup3\n        /* \"#utility.yul\":9392:9427   */\n      tag_464\n      jumpi\n        /* \"#utility.yul\":9407:9425   */\n      tag_465\n      tag_466\n      jump\t// in\n    tag_465:\n        /* \"#utility.yul\":9392:9427   */\n    tag_464:\n        /* \"#utility.yul\":9449:9450   */\n      dup3\n        /* \"#utility.yul\":9446:9447   */\n      dup3\n        /* \"#utility.yul\":9442:9451   */\n      div\n        /* \"#utility.yul\":9437:9451   */\n      swap1\n      pop\n        /* \"#utility.yul\":9272:9457   */\n      swap3\n      swap2\n      pop\n      pop\n      jump\t// out\n        /* \"#utility.yul\":9463:9811   */\n    tag_305:\n        /* \"#utility.yul\":9503:9510   */\n      0x00\n        /* \"#utility.yul\":9526:9546   */\n      tag_468\n        /* \"#utility.yul\":9544:9545   */\n      dup3\n        /* \"#utility.yul\":9526:9546   */\n      tag_425\n      jump\t// in\n    tag_468:\n        /* \"#utility.yul\":9521:9546   */\n      swap2\n      pop\n        /* \"#utility.yul\":9560:9580   */\n      tag_469\n        /* \"#utility.yul\":9578:9579   */\n      dup4\n        /* \"#utility.yul\":9560:9580   */\n      tag_425\n      jump\t// in\n    tag_469:\n        /* \"#utility.yul\":9555:9580   */\n      swap3\n      pop\n        /* \"#utility.yul\":9748:9749   */\n      dup2\n        /* \"#utility.yul\":9680:9746   */\n      0xffffffffffffffffffffffffffffffffffffffffffffffffffffffffffffffff\n        /* \"#utility.yul\":9676:9750   */\n      div\n        /* \"#utility.yul\":9673:9674   */\n      dup4\n        /* \"#utility.yul\":9670:9751   */\n      gt\n        /* \"#utility.yul\":9665:9666   */\n      dup3\n        /* \"#utility.yul\":9658:9667   */\n      iszero\n        /* \"#utility.yul\":9651:9668   */\n      iszero\n        /* \"#utility.yul\":9647:9752   */\n      and\n        /* \"#utility.yul\":9644:9775   */\n      iszero\n      tag_470\n      jumpi\n        /* \"#utility.yul\":9755:9773   */\n      tag_471\n      tag_460\n      jump\t// in\n    tag_471:\n        /* \"#utility.yul\":9644:9775   */\n    tag_470:\n        /* \"#utility.yul\":9803:9804   */\n      dup3\n        /* \"#utility.yul\":9800:9801   */\n      dup3\n        /* \"#utility.yul\":9796:9805   */\n      mul\n        /* \"#utility.yul\":9785:9805   */\n      swap1\n      pop\n        /* \"#utility.yul\":9463:9811   */\n      swap3\n      swap2\n      pop\n      pop\n      jump\t// out\n        /* \"#utility.yul\":9817:10008   */\n    tag_208:\n        /* \"#utility.yul\":9857:9861   */\n      0x00\n        /* \"#utility.yul\":9877:9897   */\n      tag_473\n        /* \"#utility.yul\":9895:9896   */\n      dup3\n        /* \"#utility.yul\":9877:9897   */\n      tag_425\n      jump\t// in\n    tag_473:\n        /* \"#utility.yul\":9872:9897   */\n      swap2\n      pop\n        /* \"#utility.yul\":9911:9931   */\n      tag_474\n        /* \"#utility.yul\":9929:9930   */\n      dup4\n        /* \"#utility.yul\":9911:9931   */\n      tag_425\n      jump\t// in\n    tag_474:\n        /* \"#utility.yul\":9906:9931   */\n      swap3\n      pop\n        /* \"#utility.yul\":9950:9951   */\n      dup3\n        /* \"#utility.yul\":9947:9948   */\n      dup3\n        /* \"#utility.yul\":9944:9952   */\n      lt\n        /* \"#utility.yul\":9941:9975   */\n      iszero\n      tag_475\n      jumpi\n        /* \"#utility.yul\":9955:9973   */\n      tag_476\n      tag_460\n      jump\t// in\n    tag_476:\n        /* \"#utility.yul\":9941:9975   */\n    tag_475:\n        /* \"#utility.yul\":10000:10001   */\n      dup3\n        /* \"#utility.yul\":9997:9998   */\n      dup3\n        /* \"#utility.yul\":9993:10002   */\n      sub\n        /* \"#utility.yul\":9985:10002   */\n      swap1\n      pop\n        /* \"#utility.yul\":9817:10008   */\n      swap3\n      swap2\n      pop\n      pop\n      jump\t// out\n        /* \"#utility.yul\":10014:10110   */\n    tag_392:\n        /* \"#utility.yul\":10051:10058   */\n      0x00\n        /* \"#utility.yul\":10080:10104   */\n      tag_478\n        /* \"#utility.yul\":10098:10103   */\n      dup3\n        /* \"#utility.yul\":10080:10104   */\n      tag_479\n      jump\t// in\n    tag_478:\n        /* \"#utility.yul\":10069:10104   */\n      swap1\n      pop\n        /* \"#utility.yul\":10014:10110   */\n      swap2\n      swap1\n      pop\n      jump\t// out\n        /* \"#utility.yul\":10116:10206   */\n    tag_480:\n        /* \"#utility.yul\":10150:10157   */\n      0x00\n        /* \"#utility.yul\":10193:10198   */\n      dup2\n        /* \"#utility.yul\":10186:10199   */\n      iszero\n        /* \"#utility.yul\":10179:10200   */\n      iszero\n        /* \"#utility.yul\":10168:10200   */\n      swap1\n      pop\n        /* \"#utility.yul\":10116:10206   */\n      swap2\n      swap1\n      pop\n      jump\t// out\n        /* \"#utility.yul\":10212:10304   */\n    tag_400:\n        /* \"#utility.yul\":10248:10255   */\n      0x00\n        /* \"#utility.yul\":10292:10297   */\n      dup2\n        /* \"#utility.yul\":10288:10290   */\n      0x0f\n        /* \"#utility.yul\":10277:10298   */\n      signextend\n        /* \"#utility.yul\":10266:10298   */\n      swap1\n      pop\n        /* \"#utility.yul\":10212:10304   */\n      swap2\n      swap1\n      pop\n      jump\t// out\n        /* \"#utility.yul\":10310:10436   */\n    tag_479:\n        /* \"#utility.yul\":10347:10354   */\n      0x00\n        /* \"#utility.yul\":10387:10429   */\n      0xffffffffffffffffffffffffffffffffffffffff\n        /* \"#utility.yul\":10380:10385   */\n      dup3\n        /* \"#utility.yul\":10376:10430   */\n      and\n        /* \"#utility.yul\":10365:10430   */\n      swap1\n      pop\n        /* \"#utility.yul\":10310:10436   */\n      swap2\n      swap1\n      pop\n      jump\t// out\n        /* \"#utility.yul\":10442:10519   */\n    tag_425:\n        /* \"#utility.yul\":10479:10486   */\n      0x00\n        /* \"#utility.yul\":10508:10513   */\n      dup2\n        /* \"#utility.yul\":10497:10513   */\n      swap1\n      pop\n        /* \"#utility.yul\":10442:10519   */\n      swap2\n      swap1\n      pop\n      jump\t// out\n        /* \"#utility.yul\":10525:10664   */\n    tag_396:\n        /* \"#utility.yul\":10588:10597   */\n      0x00\n        /* \"#utility.yul\":10621:10658   */\n      tag_486\n        /* \"#utility.yul\":10652:10657   */\n      dup3\n        /* \"#utility.yul\":10621:10658   */\n      tag_487\n      jump\t// in\n    tag_486:\n        /* \"#utility.yul\":10608:10658   */\n      swap1\n      pop\n        /* \"#utility.yul\":10525:10664   */\n      swap2\n      swap1\n      pop\n      jump\t// out\n        /* \"#utility.yul\":10670:10796   */\n    tag_487:\n        /* \"#utility.yul\":10720:10729   */\n      0x00\n        /* \"#utility.yul\":10753:10790   */\n      tag_489\n        /* \"#utility.yul\":10784:10789   */\n      dup3\n        /* \"#utility.yul\":10753:10790   */\n      tag_490\n      jump\t// in\n    tag_489:\n        /* \"#utility.yul\":10740:10790   */\n      swap1\n      pop\n        /* \"#utility.yul\":10670:10796   */\n      swap2\n      swap1\n      pop\n      jump\t// out\n        /* \"#utility.yul\":10802:10915   */\n    tag_490:\n        /* \"#utility.yul\":10852:10861   */\n      0x00\n        /* \"#utility.yul\":10885:10909   */\n      tag_492\n        /* \"#utility.yul\":10903:10908   */\n      dup3\n        /* \"#utility.yul\":10885:10909   */\n      tag_479\n      jump\t// in\n    tag_492:\n        /* \"#utility.yul\":10872:10909   */\n      swap1\n      pop\n        /* \"#utility.yul\":10802:10915   */\n      swap2\n      swap1\n      pop\n      jump\t// out\n        /* \"#utility.yul\":10921:11154   */\n    tag_281:\n        /* \"#utility.yul\":10960:10963   */\n      0x00\n        /* \"#utility.yul\":10983:11007   */\n      tag_494\n        /* \"#utility.yul\":11001:11006   */\n      dup3\n        /* \"#utility.yul\":10983:11007   */\n      tag_425\n      jump\t// in\n    tag_494:\n        /* \"#utility.yul\":10974:11007   */\n      swap2\n      pop\n        /* \"#utility.yul\":11029:11095   */\n      0xffffffffffffffffffffffffffffffffffffffffffffffffffffffffffffffff\n        /* \"#utility.yul\":11022:11027   */\n      dup3\n        /* \"#utility.yul\":11019:11096   */\n      eq\n        /* \"#utility.yul\":11016:11119   */\n      iszero\n      tag_495\n      jumpi\n        /* \"#utility.yul\":11099:11117   */\n      tag_496\n      tag_460\n      jump\t// in\n    tag_496:\n        /* \"#utility.yul\":11016:11119   */\n    tag_495:\n        /* \"#utility.yul\":11146:11147   */\n      0x01\n        /* \"#utility.yul\":11139:11144   */\n      dup3\n        /* \"#utility.yul\":11135:11148   */\n      add\n        /* \"#utility.yul\":11128:11148   */\n      swap1\n      pop\n        /* \"#utility.yul\":10921:11154   */\n      swap2\n      swap1\n      pop\n      jump\t// out\n        /* \"#utility.yul\":11160:11340   */\n    tag_460:\n        /* \"#utility.yul\":11208:11285   */\n      0x4e487b7100000000000000000000000000000000000000000000000000000000\n        /* \"#utility.yul\":11205:11206   */\n      0x00\n        /* \"#utility.yul\":11198:11286   */\n      mstore\n        /* \"#utility.yul\":11305:11309   */\n      0x11\n        /* \"#utility.yul\":11302:11303   */\n      0x04\n        /* \"#utility.yul\":11295:11310   */\n      mstore\n        /* \"#utility.yul\":11329:11333   */\n      0x24\n        /* \"#utility.yul\":11326:11327   */\n      0x00\n        /* \"#utility.yul\":11319:11334   */\n      revert\n        /* \"#utility.yul\":11346:11526   */\n    tag_466:\n        /* \"#utility.yul\":11394:11471   */\n      0x4e487b7100000000000000000000000000000000000000000000000000000000\n        /* \"#utility.yul\":11391:11392   */\n      0x00\n        /* \"#utility.yul\":11384:11472   */\n      mstore\n        /* \"#utility.yul\":11491:11495   */\n      0x12\n        /* \"#utility.yul\":11488:11489   */\n      0x04\n        /* \"#utility.yul\":11481:11496   */\n      mstore\n        /* \"#utility.yul\":11515:11519   */\n      0x24\n        /* \"#utility.yul\":11512:11513   */\n      0x00\n        /* \"#utility.yul\":11505:11520   */\n      revert\n        /* \"#utility.yul\":11655:11772   */\n    tag_365:\n        /* \"#utility.yul\":11764:11765   */\n      0x00\n        /* \"#utility.yul\":11761:11762   */\n      dup1\n        /* \"#utility.yul\":11754:11766   */\n      revert\n        /* \"#utility.yul\":11778:12001   */\n    tag_406:\n        /* \"#utility.yul\":11918:11952   */\n      0x596f7520646f6e7420686176652074686174206d75636820746f207769746864\n        /* \"#utility.yul\":11914:11915   */\n      0x00\n        /* \"#utility.yul\":11906:11912   */\n      dup3\n        /* \"#utility.yul\":11902:11916   */\n      add\n        /* \"#utility.yul\":11895:11953   */\n      mstore\n        /* \"#utility.yul\":11987:11993   */\n      0x7261772100000000000000000000000000000000000000000000000000000000\n        /* \"#utility.yul\":11982:11984   */\n      0x20\n        /* \"#utility.yul\":11974:11980   */\n      dup3\n        /* \"#utility.yul\":11970:11985   */\n      add\n        /* \"#utility.yul\":11963:11994   */\n      mstore\n        /* \"#utility.yul\":11778:12001   */\n      pop\n      jump\t// out\n        /* \"#utility.yul\":12007:12178   */\n    tag_411:\n        /* \"#utility.yul\":12147:12170   */\n      0x546f6b656e207472616e73666572206661696c65640000000000000000000000\n        /* \"#utility.yul\":12143:12144   */\n      0x00\n        /* \"#utility.yul\":12135:12141   */\n      dup3\n        /* \"#utility.yul\":12131:12145   */\n      add\n        /* \"#utility.yul\":12124:12171   */\n      mstore\n        /* \"#utility.yul\":12007:12178   */\n      pop\n      jump\t// out\n        /* \"#utility.yul\":12184:12360   */\n    tag_416:\n        /* \"#utility.yul\":12324:12352   */\n      0x596f7520646f6e742068617665207468617420616d6f756e7421000000000000\n        /* \"#utility.yul\":12320:12321   */\n      0x00\n        /* \"#utility.yul\":12312:12318   */\n      dup3\n        /* \"#utility.yul\":12308:12322   */\n      add\n        /* \"#utility.yul\":12301:12353   */\n      mstore\n        /* \"#utility.yul\":12184:12360   */\n      pop\n      jump\t// out\n        /* \"#utility.yul\":12366:12586   */\n    tag_421:\n        /* \"#utility.yul\":12506:12540   */\n      0x75696e74206f766572666c6f772066726f6d206d756c7469706c69636174696f\n        /* \"#utility.yul\":12502:12503   */\n      0x00\n        /* \"#utility.yul\":12494:12500   */\n      dup3\n        /* \"#utility.yul\":12490:12504   */\n      add\n        /* \"#utility.yul\":12483:12541   */\n      mstore\n        /* \"#utility.yul\":12575:12578   */\n      0x6e00000000000000000000000000000000000000000000000000000000000000\n        /* \"#utility.yul\":12570:12572   */\n      0x20\n        /* \"#utility.yul\":12562:12568   */\n      dup3\n        /* \"#utility.yul\":12558:12573   */\n      add\n        /* \"#utility.yul\":12551:12579   */\n      mstore\n        /* \"#utility.yul\":12366:12586   */\n      pop\n      jump\t// out\n        /* \"#utility.yul\":12592:12714   */\n    tag_350:\n        /* \"#utility.yul\":12665:12689   */\n      tag_507\n        /* \"#utility.yul\":12683:12688   */\n      dup2\n        /* \"#utility.yul\":12665:12689   */\n      tag_392\n      jump\t// in\n    tag_507:\n        /* \"#utility.yul\":12658:12663   */\n      dup2\n        /* \"#utility.yul\":12655:12690   */\n      eq\n        /* \"#utility.yul\":12645:12708   */\n      tag_508\n      jumpi\n        /* \"#utility.yul\":12704:12705   */\n      0x00\n        /* \"#utility.yul\":12701:12702   */\n      dup1\n        /* \"#utility.yul\":12694:12706   */\n      revert\n        /* \"#utility.yul\":12645:12708   */\n    tag_508:\n        /* \"#utility.yul\":12592:12714   */\n      pop\n      jump\t// out\n        /* \"#utility.yul\":12720:12836   */\n    tag_354:\n        /* \"#utility.yul\":12790:12811   */\n      tag_510\n        /* \"#utility.yul\":12805:12810   */\n      dup2\n        /* \"#utility.yul\":12790:12811   */\n      tag_480\n      jump\t// in\n    tag_510:\n        /* \"#utility.yul\":12783:12788   */\n      dup2\n        /* \"#utility.yul\":12780:12812   */\n      eq\n        /* \"#utility.yul\":12770:12830   */\n      tag_511\n      jumpi\n        /* \"#utility.yul\":12826:12827   */\n      0x00\n        /* \"#utility.yul\":12823:12824   */\n      dup1\n        /* \"#utility.yul\":12816:12828   */\n      revert\n        /* \"#utility.yul\":12770:12830   */\n    tag_511:\n        /* \"#utility.yul\":12720:12836   */\n      pop\n      jump\t// out\n        /* \"#utility.yul\":12842:12964   */\n    tag_358:\n        /* \"#utility.yul\":12915:12939   */\n      tag_513\n        /* \"#utility.yul\":12933:12938   */\n      dup2\n        /* \"#utility.yul\":12915:12939   */\n      tag_425\n      jump\t// in\n    tag_513:\n        /* \"#utility.yul\":12908:12913   */\n      dup2\n        /* \"#utility.yul\":12905:12940   */\n      eq\n        /* \"#utility.yul\":12895:12958   */\n      tag_514\n      jumpi\n        /* \"#utility.yul\":12954:12955   */\n      0x00\n        /* \"#utility.yul\":12951:12952   */\n      dup1\n        /* \"#utility.yul\":12944:12956   */\n      revert\n        /* \"#utility.yul\":12895:12958   */\n    tag_514:\n        /* \"#utility.yul\":12842:12964   */\n      pop\n      jump\t// out\n\n    auxdata: 0xa264697066735822122093cb4e99635b163a3236a7336e001a4b978a56e2b73bb528672de56f922740de64736f6c63430008070033\n}\n",
				"bytecode": {
					"linkReferences": {},
					"object": "6080604052670de0b6b3a764000061c3506200001c9190620004c2565b600a55620186a0600d5562015f90600e55620927c0600f5573617f2e2fd72fd9d5503197092ac168c91465e7f2601160006101000a81548173ffffffffffffffffffffffffffffffffffffffff021916908373ffffffffffffffffffffffffffffffffffffffff1602179055503480156200009657600080fd5b5060405162002666380380620026668339818101604052810190620000bc91906200038c565b80601760006101000a81548173ffffffffffffffffffffffffffffffffffffffff021916908373ffffffffffffffffffffffffffffffffffffffff16021790555081601260006101000a81548173ffffffffffffffffffffffffffffffffffffffff021916908373ffffffffffffffffffffffffffffffffffffffff16021790555073d7acd2a9fd159e69bb102a1ca21c9a3e3a5f771b601360006101000a81548173ffffffffffffffffffffffffffffffffffffffff021916908373ffffffffffffffffffffffffffffffffffffffff16021790555073617f2e2fd72fd9d5503197092ac168c91465e7f2600660006101000a81548173ffffffffffffffffffffffffffffffffffffffff021916908373ffffffffffffffffffffffffffffffffffffffff160217905550620001fe600d54600f546200023960201b60201c565b6000819055506200021a600e54600f546200023960201b60201c565b60018190555042600b8190555062069780600c8190555050506200062d565b6000806200025684670de0b6b3a76400006200028e60201b60201c565b90508262000279826002866200026d91906200048a565b6200031260201b60201c565b6200028591906200048a565b91505092915050565b600080831415620002a357600090506200030c565b60008284620002b39190620004c2565b9050828482620002c491906200048a565b1462000307576040517f08c379a0000000000000000000000000000000000000000000000000000000008152600401620002fe90620003fa565b60405180910390fd5b809150505b92915050565b60008082846200032391906200042d565b9050838110156200036b576040517f08c379a00000000000000000000000000000000000000000000000000000000081526004016200036290620003fa565b60405180910390fd5b8091505092915050565b600081519050620003868162000613565b92915050565b60008060408385031215620003a657620003a5620005bf565b5b6000620003b68582860162000375565b9250506020620003c98582860162000375565b9150509250929050565b6000620003e26021836200041c565b9150620003ef82620005c4565b604082019050919050565b600060208201905081810360008301526200041581620003d3565b9050919050565b600082825260208201905092915050565b60006200043a8262000557565b9150620004478362000557565b9250827fffffffffffffffffffffffffffffffffffffffffffffffffffffffffffffffff038211156200047f576200047e62000561565b5b828201905092915050565b6000620004978262000557565b9150620004a48362000557565b925082620004b757620004b662000590565b5b828204905092915050565b6000620004cf8262000557565b9150620004dc8362000557565b9250817fffffffffffffffffffffffffffffffffffffffffffffffffffffffffffffffff048311821515161562000518576200051762000561565b5b828202905092915050565b6000620005308262000537565b9050919050565b600073ffffffffffffffffffffffffffffffffffffffff82169050919050565b6000819050919050565b7f4e487b7100000000000000000000000000000000000000000000000000000000600052601160045260246000fd5b7f4e487b7100000000000000000000000000000000000000000000000000000000600052601260045260246000fd5b600080fd5b7f75696e74206f766572666c6f772066726f6d206d756c7469706c69636174696f60008201527f6e00000000000000000000000000000000000000000000000000000000000000602082015250565b6200061e8162000523565b81146200062a57600080fd5b50565b612029806200063d6000396000f3fe6080604052600436106101ee5760003560e01c806367b48c911161010d578063d82eddf2116100a0578063eee05f5e1161006f578063eee05f5e146106f2578063f7523c521461071d578063fbbb45891461075a578063fc36144314610785578063ff357f5b146107ae576101ee565b8063d82eddf214610634578063ee4676781461065f578063ee546a511461068a578063ee620868146106c7576101ee565b806371cd58f9116100dc57806371cd58f91461058857806393f7b711146105b3578063c079d7f6146105de578063cbff461714610609576101ee565b806367b48c91146104de57806367e927a8146105095780636e05c1b9146105325780636f10e2851461055d576101ee565b806329982a321161018557806343d32e9c1161015457806343d32e9c1461041d57806346bfe6261461044857806364ce07d81461048557806365819f7e146104c2576101ee565b806329982a321461035f5780632a9f0fb11461038a57806335453307146103c75780633c6eb17a146103f2576101ee565b80631514c976116101c15780631514c976146102b2578063164c8501146102ef5780631bc9cc45146103185780631f564a0614610334576101ee565b8063018a25e8146101f3578063047729b01461021e5780630ccaf04f1461024957806312b2ed9414610274575b600080fd5b3480156101ff57600080fd5b506102086107ca565b6040516102159190611c1d565b60405180910390f35b34801561022a57600080fd5b506102336108e8565b6040516102409190611aec565b60405180910390f35b34801561025557600080fd5b5061025e61090e565b60405161026b9190611c1d565b60405180910390f35b34801561028057600080fd5b5061029b600480360381019061029691906118f0565b610944565b6040516102a9929190611c38565b60405180910390f35b3480156102be57600080fd5b506102d960048036038101906102d4919061198a565b610968565b6040516102e69190611c1d565b60405180910390f35b3480156102fb57600080fd5b506103166004803603810190610311919061198a565b610980565b005b610332600480360381019061032d919061198a565b610afe565b005b34801561034057600080fd5b50610349610c6c565b6040516103569190611c1d565b60405180910390f35b34801561036b57600080fd5b50610374610d1e565b6040516103819190611aec565b60405180910390f35b34801561039657600080fd5b506103b160048036038101906103ac919061198a565b610d44565b6040516103be9190611c1d565b60405180910390f35b3480156103d357600080fd5b506103dc610d5c565b6040516103e99190611c1d565b60405180910390f35b3480156103fe57600080fd5b50610407610d62565b6040516104149190611c1d565b60405180910390f35b34801561042957600080fd5b50610432610d68565b60405161043f9190611c1d565b60405180910390f35b34801561045457600080fd5b5061046f600480360381019061046a91906119e4565b610e86565b60405161047c9190611c1d565b60405180910390f35b34801561049157600080fd5b506104ac60048036038101906104a791906119e4565b610ec9565b6040516104b99190611c1d565b60405180910390f35b6104dc60048036038101906104d7919061198a565b610f0a565b005b3480156104ea57600080fd5b506104f3611128565b6040516105009190611c1d565b60405180910390f35b34801561051557600080fd5b50610530600480360381019061052b919061198a565b61112e565b005b34801561053e57600080fd5b506105476111df565b6040516105549190611b67565b60405180910390f35b34801561056957600080fd5b50610572611205565b60405161057f9190611b82565b60405180910390f35b34801561059457600080fd5b5061059d611218565b6040516105aa9190611c1d565b60405180910390f35b3480156105bf57600080fd5b506105c861127b565b6040516105d59190611c1d565b60405180910390f35b3480156105ea57600080fd5b506105f36112b1565b6040516106009190611aec565b60405180910390f35b34801561061557600080fd5b5061061e6112d7565b60405161062b9190611c1d565b60405180910390f35b34801561064057600080fd5b506106496112dd565b6040516106569190611c1d565b60405180910390f35b34801561066b57600080fd5b50610674611340565b6040516106819190611b67565b60405180910390f35b34801561069657600080fd5b506106b160048036038101906106ac919061191d565b611366565b6040516106be9190611c1d565b60405180910390f35b3480156106d357600080fd5b506106dc6113f9565b6040516106e99190611c1d565b60405180910390f35b3480156106fe57600080fd5b506107076113ff565b6040516107149190611aec565b60405180910390f35b34801561072957600080fd5b50610744600480360381019061073f91906119e4565b611425565b6040516107519190611c1d565b60405180910390f35b34801561076657600080fd5b5061076f61146e565b60405161077c9190611aec565b60405180910390f35b34801561079157600080fd5b506107ac60048036038101906107a7919061198a565b611494565b005b6107c860048036038101906107c3919061198a565b6114ac565b005b60006108e33073ffffffffffffffffffffffffffffffffffffffff16631f564a066040518163ffffffff1660e01b815260040160206040518083038186803b15801561081557600080fd5b505afa158015610829573d6000803e3d6000fd5b505050506040513d601f19601f8201168201806040525081019061084d91906119b7565b3073ffffffffffffffffffffffffffffffffffffffff166393f7b7116040518163ffffffff1660e01b815260040160206040518083038186803b15801561089357600080fd5b505afa1580156108a7573d6000803e3d6000fd5b505050506040513d601f19601f820116820180604052508101906108cb91906119b7565b6710a741a4627800006108de9190611c72565b611425565b905090565b600860009054906101000a900473ffffffffffffffffffffffffffffffffffffffff1681565b60008061091f600e54600f54610ec9565b9050670429d069189e000081111561093d57670429d069189e000090505b8091505090565b60166020528060005260406000206000915090508060000154908060010154905082565b60156020528060005260406000206000915090505481565b601660003373ffffffffffffffffffffffffffffffffffffffff1673ffffffffffffffffffffffffffffffffffffffff168152602001908152602001600020600101548110610a04576040517f08c379a00000000000000000000000000000000000000000000000000000000081526004016109fb90611b9d565b60405180910390fd5b80601660003373ffffffffffffffffffffffffffffffffffffffff1673ffffffffffffffffffffffffffffffffffffffff1681526020019081526020016000206001016000828254610a569190611d53565b925050819055506000601660003373ffffffffffffffffffffffffffffffffffffffff1673ffffffffffffffffffffffffffffffffffffffff168152602001908152602001600020600101541415610afb57601660003373ffffffffffffffffffffffffffffffffffffffff1673ffffffffffffffffffffffffffffffffffffffff168152602001908152602001600020600080820160009055600182016000905550505b50565b6000601260009054906101000a900473ffffffffffffffffffffffffffffffffffffffff1673ffffffffffffffffffffffffffffffffffffffff166370a08231336040518263ffffffff1660e01b8152600401610b5b9190611aec565b60206040518083038186803b158015610b7357600080fd5b505afa158015610b87573d6000803e3d6000fd5b505050506040513d601f19601f82011682018060405250810190610bab91906119b7565b9050818111610bef576040517f08c379a0000000000000000000000000000000000000000000000000000000008152600401610be690611bdd565b60405180910390fd5b610c1d601260009054906101000a900473ffffffffffffffffffffffffffffffffffffffff163330856116e9565b600062015180600b5442610c319190611d53565b610c3b9190611cc8565b905082601560008381526020019081526020016000206000828254610c609190611c72565b92505081905550505050565b6000610d19600a54601260009054906101000a900473ffffffffffffffffffffffffffffffffffffffff1673ffffffffffffffffffffffffffffffffffffffff166318160ddd6040518163ffffffff1660e01b815260040160206040518083038186803b158015610cdc57600080fd5b505afa158015610cf0573d6000803e3d6000fd5b505050506040513d601f19601f82011682018060405250810190610d1491906119b7565b610ec9565b905090565b600960009054906101000a900473ffffffffffffffffffffffffffffffffffffffff1681565b60146020528060005260406000206000915090505481565b600a5481565b600b5481565b6000610e813073ffffffffffffffffffffffffffffffffffffffff16631f564a066040518163ffffffff1660e01b815260040160206040518083038186803b158015610db357600080fd5b505afa158015610dc7573d6000803e3d6000fd5b505050506040513d601f19601f82011682018060405250810190610deb91906119b7565b3073ffffffffffffffffffffffffffffffffffffffff16630ccaf04f6040518163ffffffff1660e01b815260040160206040518083038186803b158015610e3157600080fd5b505afa158015610e45573d6000803e3d6000fd5b505050506040513d601f19601f82011682018060405250810190610e6991906119b7565b670c7d713b49da0000610e7c9190611d53565b611425565b905090565b60008062015180600b5485610e9b9190611d53565b610ea59190611cc8565b90508260146000838152602001908152602001600020819055508091505092915050565b600080610ede84670de0b6b3a76400006117c3565b905082610ef782600286610ef29190611cc8565b61183e565b610f019190611cc8565b91505092915050565b6000601360009054906101000a900473ffffffffffffffffffffffffffffffffffffffff1673ffffffffffffffffffffffffffffffffffffffff166370a08231336040518263ffffffff1660e01b8152600401610f679190611aec565b60206040518083038186803b158015610f7f57600080fd5b505afa158015610f93573d6000803e3d6000fd5b505050506040513d601f19601f82011682018060405250810190610fb791906119b7565b9050818111610ffb576040517f08c379a0000000000000000000000000000000000000000000000000000000008152600401610ff290611bdd565b60405180910390fd5b601260009054906101000a900473ffffffffffffffffffffffffffffffffffffffff1673ffffffffffffffffffffffffffffffffffffffff1663a9059cbb33846040518363ffffffff1660e01b8152600401611058929190611b3e565b602060405180830381600087803b15801561107257600080fd5b505af1158015611086573d6000803e3d6000fd5b505050506040513d601f19601f820116820180604052508101906110aa919061195d565b506110d9601360009054906101000a900473ffffffffffffffffffffffffffffffffffffffff163330856116e9565b600062015180600b54426110ed9190611d53565b6110f79190611cc8565b90508260146000838152602001908152602001600020600082825461111c9190611c72565b92505081905550505050565b600c5481565b620d2f004261113d9190611c72565b601660003373ffffffffffffffffffffffffffffffffffffffff1673ffffffffffffffffffffffffffffffffffffffff1681526020019081526020016000206000018190555080601660003373ffffffffffffffffffffffffffffffffffffffff1673ffffffffffffffffffffffffffffffffffffffff16815260200190815260200160002060010160008282546111d59190611c72565b9250508190555050565b601260009054906101000a900473ffffffffffffffffffffffffffffffffffffffff1681565b601060009054906101000a9004600f0b81565b60008060008062015180600c5461122f9190611cc8565b9050600091505b808210156112725760146000838152602001908152602001600020548361125d9190611c72565b9250818061126a90611e12565b925050611236565b82935050505090565b60008061128c600d54600f54610ec9565b90506710a741a4627800008111156112aa576710a741a46278000090505b8091505090565b600760009054906101000a900473ffffffffffffffffffffffffffffffffffffffff1681565b60015481565b60008060008062015180600c546112f49190611cc8565b9050600091505b80821015611337576015600083815260200190815260200160002054836113229190611c72565b9250818061132f90611e12565b9250506112fb565b82935050505090565b601360009054906101000a900473ffffffffffffffffffffffffffffffffffffffff1681565b60008273ffffffffffffffffffffffffffffffffffffffff166370a08231836040518263ffffffff1660e01b81526004016113a19190611aec565b60206040518083038186803b1580156113b957600080fd5b505afa1580156113cd573d6000803e3d6000fd5b505050506040513d601f19601f820116820180604052508101906113f191906119b7565b905092915050565b60005481565b601160009054906101000a900473ffffffffffffffffffffffffffffffffffffffff1681565b60008061143284846117c3565b9050670de0b6b3a764000061145b826002670de0b6b3a76400006114569190611cc8565b61183e565b6114659190611cc8565b91505092915050565b600660009054906101000a900473ffffffffffffffffffffffffffffffffffffffff1681565b62015180816114a39190611cf9565b600c8190555050565b6000601260009054906101000a900473ffffffffffffffffffffffffffffffffffffffff1673ffffffffffffffffffffffffffffffffffffffff166370a08231336040518263ffffffff1660e01b81526004016115099190611aec565b60206040518083038186803b15801561152157600080fd5b505afa158015611535573d6000803e3d6000fd5b505050506040513d601f19601f8201168201806040525081019061155991906119b7565b905081811161159d576040517f08c379a000000000000000000000000000000000000000000000000000000000815260040161159490611bdd565b60405180910390fd5b601360009054906101000a900473ffffffffffffffffffffffffffffffffffffffff1673ffffffffffffffffffffffffffffffffffffffff1663a9059cbb33670de0b6b3a764000060016115f19190611cf9565b856115fc9190611c72565b6040518363ffffffff1660e01b8152600401611619929190611b3e565b602060405180830381600087803b15801561163357600080fd5b505af1158015611647573d6000803e3d6000fd5b505050506040513d601f19601f8201168201806040525081019061166b919061195d565b5061169a601260009054906101000a900473ffffffffffffffffffffffffffffffffffffffff163330856116e9565b600062015180600b54426116ae9190611d53565b6116b89190611cc8565b9050826015600083815260200190815260200160002060008282546116dd9190611c72565b92505081905550505050565b60008473ffffffffffffffffffffffffffffffffffffffff166323b872dd8585856040518463ffffffff1660e01b815260040161172893929190611b07565b602060405180830381600087803b15801561174257600080fd5b505af1158015611756573d6000803e3d6000fd5b505050506040513d601f19601f8201168201806040525081019061177a919061195d565b9050806117bc576040517f08c379a00000000000000000000000000000000000000000000000000000000081526004016117b390611bbd565b60405180910390fd5b5050505050565b6000808314156117d65760009050611838565b600082846117e49190611cf9565b90508284826117f39190611cc8565b14611833576040517f08c379a000000000000000000000000000000000000000000000000000000000815260040161182a90611bfd565b60405180910390fd5b809150505b92915050565b600080828461184d9190611c72565b905083811015611892576040517f08c379a000000000000000000000000000000000000000000000000000000000815260040161188990611bfd565b60405180910390fd5b8091505092915050565b6000813590506118ab81611fae565b92915050565b6000815190506118c081611fc5565b92915050565b6000813590506118d581611fdc565b92915050565b6000815190506118ea81611fdc565b92915050565b60006020828403121561190657611905611eb9565b5b60006119148482850161189c565b91505092915050565b6000806040838503121561193457611933611eb9565b5b60006119428582860161189c565b92505060206119538582860161189c565b9150509250929050565b60006020828403121561197357611972611eb9565b5b6000611981848285016118b1565b91505092915050565b6000602082840312156119a05761199f611eb9565b5b60006119ae848285016118c6565b91505092915050565b6000602082840312156119cd576119cc611eb9565b5b60006119db848285016118db565b91505092915050565b600080604083850312156119fb576119fa611eb9565b5b6000611a09858286016118c6565b9250506020611a1a858286016118c6565b9150509250929050565b611a2d81611d87565b82525050565b611a3c81611ddc565b82525050565b611a4b81611da5565b82525050565b6000611a5e602483611c61565b9150611a6982611ebe565b604082019050919050565b6000611a81601583611c61565b9150611a8c82611f0d565b602082019050919050565b6000611aa4601a83611c61565b9150611aaf82611f36565b602082019050919050565b6000611ac7602183611c61565b9150611ad282611f5f565b604082019050919050565b611ae681611dd2565b82525050565b6000602082019050611b016000830184611a24565b92915050565b6000606082019050611b1c6000830186611a24565b611b296020830185611a24565b611b366040830184611add565b949350505050565b6000604082019050611b536000830185611a24565b611b606020830184611add565b9392505050565b6000602082019050611b7c6000830184611a33565b92915050565b6000602082019050611b976000830184611a42565b92915050565b60006020820190508181036000830152611bb681611a51565b9050919050565b60006020820190508181036000830152611bd681611a74565b9050919050565b60006020820190508181036000830152611bf681611a97565b9050919050565b60006020820190508181036000830152611c1681611aba565b9050919050565b6000602082019050611c326000830184611add565b92915050565b6000604082019050611c4d6000830185611add565b611c5a6020830184611add565b9392505050565b600082825260208201905092915050565b6000611c7d82611dd2565b9150611c8883611dd2565b9250827fffffffffffffffffffffffffffffffffffffffffffffffffffffffffffffffff03821115611cbd57611cbc611e5b565b5b828201905092915050565b6000611cd382611dd2565b9150611cde83611dd2565b925082611cee57611ced611e8a565b5b828204905092915050565b6000611d0482611dd2565b9150611d0f83611dd2565b9250817fffffffffffffffffffffffffffffffffffffffffffffffffffffffffffffffff0483118215151615611d4857611d47611e5b565b5b828202905092915050565b6000611d5e82611dd2565b9150611d6983611dd2565b925082821015611d7c57611d7b611e5b565b5b828203905092915050565b6000611d9282611db2565b9050919050565b60008115159050919050565b600081600f0b9050919050565b600073ffffffffffffffffffffffffffffffffffffffff82169050919050565b6000819050919050565b6000611de782611dee565b9050919050565b6000611df982611e00565b9050919050565b6000611e0b82611db2565b9050919050565b6000611e1d82611dd2565b91507fffffffffffffffffffffffffffffffffffffffffffffffffffffffffffffffff821415611e5057611e4f611e5b565b5b600182019050919050565b7f4e487b7100000000000000000000000000000000000000000000000000000000600052601160045260246000fd5b7f4e487b7100000000000000000000000000000000000000000000000000000000600052601260045260246000fd5b600080fd5b7f596f7520646f6e7420686176652074686174206d75636820746f20776974686460008201527f7261772100000000000000000000000000000000000000000000000000000000602082015250565b7f546f6b656e207472616e73666572206661696c65640000000000000000000000600082015250565b7f596f7520646f6e742068617665207468617420616d6f756e7421000000000000600082015250565b7f75696e74206f766572666c6f772066726f6d206d756c7469706c69636174696f60008201527f6e00000000000000000000000000000000000000000000000000000000000000602082015250565b611fb781611d87565b8114611fc257600080fd5b50565b611fce81611d99565b8114611fd957600080fd5b50565b611fe581611dd2565b8114611ff057600080fd5b5056fea264697066735822122093cb4e99635b163a3236a7336e001a4b978a56e2b73bb528672de56f922740de64736f6c63430008070033",
					"opcodes": "PUSH1 0x80 PUSH1 0x40 MSTORE PUSH8 0xDE0B6B3A7640000 PUSH2 0xC350 PUSH3 0x1C SWAP2 SWAP1 PUSH3 0x4C2 JUMP JUMPDEST PUSH1 0xA SSTORE PUSH3 0x186A0 PUSH1 0xD SSTORE PUSH3 0x15F90 PUSH1 0xE SSTORE PUSH3 0x927C0 PUSH1 0xF SSTORE PUSH20 0x617F2E2FD72FD9D5503197092AC168C91465E7F2 PUSH1 0x11 PUSH1 0x0 PUSH2 0x100 EXP DUP2 SLOAD DUP2 PUSH20 0xFFFFFFFFFFFFFFFFFFFFFFFFFFFFFFFFFFFFFFFF MUL NOT AND SWAP1 DUP4 PUSH20 0xFFFFFFFFFFFFFFFFFFFFFFFFFFFFFFFFFFFFFFFF AND MUL OR SWAP1 SSTORE POP CALLVALUE DUP1 ISZERO PUSH3 0x96 JUMPI PUSH1 0x0 DUP1 REVERT JUMPDEST POP PUSH1 0x40 MLOAD PUSH3 0x2666 CODESIZE SUB DUP1 PUSH3 0x2666 DUP4 CODECOPY DUP2 DUP2 ADD PUSH1 0x40 MSTORE DUP2 ADD SWAP1 PUSH3 0xBC SWAP2 SWAP1 PUSH3 0x38C JUMP JUMPDEST DUP1 PUSH1 0x17 PUSH1 0x0 PUSH2 0x100 EXP DUP2 SLOAD DUP2 PUSH20 0xFFFFFFFFFFFFFFFFFFFFFFFFFFFFFFFFFFFFFFFF MUL NOT AND SWAP1 DUP4 PUSH20 0xFFFFFFFFFFFFFFFFFFFFFFFFFFFFFFFFFFFFFFFF AND MUL OR SWAP1 SSTORE POP DUP2 PUSH1 0x12 PUSH1 0x0 PUSH2 0x100 EXP DUP2 SLOAD DUP2 PUSH20 0xFFFFFFFFFFFFFFFFFFFFFFFFFFFFFFFFFFFFFFFF MUL NOT AND SWAP1 DUP4 PUSH20 0xFFFFFFFFFFFFFFFFFFFFFFFFFFFFFFFFFFFFFFFF AND MUL OR SWAP1 SSTORE POP PUSH20 0xD7ACD2A9FD159E69BB102A1CA21C9A3E3A5F771B PUSH1 0x13 PUSH1 0x0 PUSH2 0x100 EXP DUP2 SLOAD DUP2 PUSH20 0xFFFFFFFFFFFFFFFFFFFFFFFFFFFFFFFFFFFFFFFF MUL NOT AND SWAP1 DUP4 PUSH20 0xFFFFFFFFFFFFFFFFFFFFFFFFFFFFFFFFFFFFFFFF AND MUL OR SWAP1 SSTORE POP PUSH20 0x617F2E2FD72FD9D5503197092AC168C91465E7F2 PUSH1 0x6 PUSH1 0x0 PUSH2 0x100 EXP DUP2 SLOAD DUP2 PUSH20 0xFFFFFFFFFFFFFFFFFFFFFFFFFFFFFFFFFFFFFFFF MUL NOT AND SWAP1 DUP4 PUSH20 0xFFFFFFFFFFFFFFFFFFFFFFFFFFFFFFFFFFFFFFFF AND MUL OR SWAP1 SSTORE POP PUSH3 0x1FE PUSH1 0xD SLOAD PUSH1 0xF SLOAD PUSH3 0x239 PUSH1 0x20 SHL PUSH1 0x20 SHR JUMP JUMPDEST PUSH1 0x0 DUP2 SWAP1 SSTORE POP PUSH3 0x21A PUSH1 0xE SLOAD PUSH1 0xF SLOAD PUSH3 0x239 PUSH1 0x20 SHL PUSH1 0x20 SHR JUMP JUMPDEST PUSH1 0x1 DUP2 SWAP1 SSTORE POP TIMESTAMP PUSH1 0xB DUP2 SWAP1 SSTORE POP PUSH3 0x69780 PUSH1 0xC DUP2 SWAP1 SSTORE POP POP POP PUSH3 0x62D JUMP JUMPDEST PUSH1 0x0 DUP1 PUSH3 0x256 DUP5 PUSH8 0xDE0B6B3A7640000 PUSH3 0x28E PUSH1 0x20 SHL PUSH1 0x20 SHR JUMP JUMPDEST SWAP1 POP DUP3 PUSH3 0x279 DUP3 PUSH1 0x2 DUP7 PUSH3 0x26D SWAP2 SWAP1 PUSH3 0x48A JUMP JUMPDEST PUSH3 0x312 PUSH1 0x20 SHL PUSH1 0x20 SHR JUMP JUMPDEST PUSH3 0x285 SWAP2 SWAP1 PUSH3 0x48A JUMP JUMPDEST SWAP2 POP POP SWAP3 SWAP2 POP POP JUMP JUMPDEST PUSH1 0x0 DUP1 DUP4 EQ ISZERO PUSH3 0x2A3 JUMPI PUSH1 0x0 SWAP1 POP PUSH3 0x30C JUMP JUMPDEST PUSH1 0x0 DUP3 DUP5 PUSH3 0x2B3 SWAP2 SWAP1 PUSH3 0x4C2 JUMP JUMPDEST SWAP1 POP DUP3 DUP5 DUP3 PUSH3 0x2C4 SWAP2 SWAP1 PUSH3 0x48A JUMP JUMPDEST EQ PUSH3 0x307 JUMPI PUSH1 0x40 MLOAD PUSH32 0x8C379A000000000000000000000000000000000000000000000000000000000 DUP2 MSTORE PUSH1 0x4 ADD PUSH3 0x2FE SWAP1 PUSH3 0x3FA JUMP JUMPDEST PUSH1 0x40 MLOAD DUP1 SWAP2 SUB SWAP1 REVERT JUMPDEST DUP1 SWAP2 POP POP JUMPDEST SWAP3 SWAP2 POP POP JUMP JUMPDEST PUSH1 0x0 DUP1 DUP3 DUP5 PUSH3 0x323 SWAP2 SWAP1 PUSH3 0x42D JUMP JUMPDEST SWAP1 POP DUP4 DUP2 LT ISZERO PUSH3 0x36B JUMPI PUSH1 0x40 MLOAD PUSH32 0x8C379A000000000000000000000000000000000000000000000000000000000 DUP2 MSTORE PUSH1 0x4 ADD PUSH3 0x362 SWAP1 PUSH3 0x3FA JUMP JUMPDEST PUSH1 0x40 MLOAD DUP1 SWAP2 SUB SWAP1 REVERT JUMPDEST DUP1 SWAP2 POP POP SWAP3 SWAP2 POP POP JUMP JUMPDEST PUSH1 0x0 DUP2 MLOAD SWAP1 POP PUSH3 0x386 DUP2 PUSH3 0x613 JUMP JUMPDEST SWAP3 SWAP2 POP POP JUMP JUMPDEST PUSH1 0x0 DUP1 PUSH1 0x40 DUP4 DUP6 SUB SLT ISZERO PUSH3 0x3A6 JUMPI PUSH3 0x3A5 PUSH3 0x5BF JUMP JUMPDEST JUMPDEST PUSH1 0x0 PUSH3 0x3B6 DUP6 DUP3 DUP7 ADD PUSH3 0x375 JUMP JUMPDEST SWAP3 POP POP PUSH1 0x20 PUSH3 0x3C9 DUP6 DUP3 DUP7 ADD PUSH3 0x375 JUMP JUMPDEST SWAP2 POP POP SWAP3 POP SWAP3 SWAP1 POP JUMP JUMPDEST PUSH1 0x0 PUSH3 0x3E2 PUSH1 0x21 DUP4 PUSH3 0x41C JUMP JUMPDEST SWAP2 POP PUSH3 0x3EF DUP3 PUSH3 0x5C4 JUMP JUMPDEST PUSH1 0x40 DUP3 ADD SWAP1 POP SWAP2 SWAP1 POP JUMP JUMPDEST PUSH1 0x0 PUSH1 0x20 DUP3 ADD SWAP1 POP DUP2 DUP2 SUB PUSH1 0x0 DUP4 ADD MSTORE PUSH3 0x415 DUP2 PUSH3 0x3D3 JUMP JUMPDEST SWAP1 POP SWAP2 SWAP1 POP JUMP JUMPDEST PUSH1 0x0 DUP3 DUP3 MSTORE PUSH1 0x20 DUP3 ADD SWAP1 POP SWAP3 SWAP2 POP POP JUMP JUMPDEST PUSH1 0x0 PUSH3 0x43A DUP3 PUSH3 0x557 JUMP JUMPDEST SWAP2 POP PUSH3 0x447 DUP4 PUSH3 0x557 JUMP JUMPDEST SWAP3 POP DUP3 PUSH32 0xFFFFFFFFFFFFFFFFFFFFFFFFFFFFFFFFFFFFFFFFFFFFFFFFFFFFFFFFFFFFFFFF SUB DUP3 GT ISZERO PUSH3 0x47F JUMPI PUSH3 0x47E PUSH3 0x561 JUMP JUMPDEST JUMPDEST DUP3 DUP3 ADD SWAP1 POP SWAP3 SWAP2 POP POP JUMP JUMPDEST PUSH1 0x0 PUSH3 0x497 DUP3 PUSH3 0x557 JUMP JUMPDEST SWAP2 POP PUSH3 0x4A4 DUP4 PUSH3 0x557 JUMP JUMPDEST SWAP3 POP DUP3 PUSH3 0x4B7 JUMPI PUSH3 0x4B6 PUSH3 0x590 JUMP JUMPDEST JUMPDEST DUP3 DUP3 DIV SWAP1 POP SWAP3 SWAP2 POP POP JUMP JUMPDEST PUSH1 0x0 PUSH3 0x4CF DUP3 PUSH3 0x557 JUMP JUMPDEST SWAP2 POP PUSH3 0x4DC DUP4 PUSH3 0x557 JUMP JUMPDEST SWAP3 POP DUP2 PUSH32 0xFFFFFFFFFFFFFFFFFFFFFFFFFFFFFFFFFFFFFFFFFFFFFFFFFFFFFFFFFFFFFFFF DIV DUP4 GT DUP3 ISZERO ISZERO AND ISZERO PUSH3 0x518 JUMPI PUSH3 0x517 PUSH3 0x561 JUMP JUMPDEST JUMPDEST DUP3 DUP3 MUL SWAP1 POP SWAP3 SWAP2 POP POP JUMP JUMPDEST PUSH1 0x0 PUSH3 0x530 DUP3 PUSH3 0x537 JUMP JUMPDEST SWAP1 POP SWAP2 SWAP1 POP JUMP JUMPDEST PUSH1 0x0 PUSH20 0xFFFFFFFFFFFFFFFFFFFFFFFFFFFFFFFFFFFFFFFF DUP3 AND SWAP1 POP SWAP2 SWAP1 POP JUMP JUMPDEST PUSH1 0x0 DUP2 SWAP1 POP SWAP2 SWAP1 POP JUMP JUMPDEST PUSH32 0x4E487B7100000000000000000000000000000000000000000000000000000000 PUSH1 0x0 MSTORE PUSH1 0x11 PUSH1 0x4 MSTORE PUSH1 0x24 PUSH1 0x0 REVERT JUMPDEST PUSH32 0x4E487B7100000000000000000000000000000000000000000000000000000000 PUSH1 0x0 MSTORE PUSH1 0x12 PUSH1 0x4 MSTORE PUSH1 0x24 PUSH1 0x0 REVERT JUMPDEST PUSH1 0x0 DUP1 REVERT JUMPDEST PUSH32 0x75696E74206F766572666C6F772066726F6D206D756C7469706C69636174696F PUSH1 0x0 DUP3 ADD MSTORE PUSH32 0x6E00000000000000000000000000000000000000000000000000000000000000 PUSH1 0x20 DUP3 ADD MSTORE POP JUMP JUMPDEST PUSH3 0x61E DUP2 PUSH3 0x523 JUMP JUMPDEST DUP2 EQ PUSH3 0x62A JUMPI PUSH1 0x0 DUP1 REVERT JUMPDEST POP JUMP JUMPDEST PUSH2 0x2029 DUP1 PUSH3 0x63D PUSH1 0x0 CODECOPY PUSH1 0x0 RETURN INVALID PUSH1 0x80 PUSH1 0x40 MSTORE PUSH1 0x4 CALLDATASIZE LT PUSH2 0x1EE JUMPI PUSH1 0x0 CALLDATALOAD PUSH1 0xE0 SHR DUP1 PUSH4 0x67B48C91 GT PUSH2 0x10D JUMPI DUP1 PUSH4 0xD82EDDF2 GT PUSH2 0xA0 JUMPI DUP1 PUSH4 0xEEE05F5E GT PUSH2 0x6F JUMPI DUP1 PUSH4 0xEEE05F5E EQ PUSH2 0x6F2 JUMPI DUP1 PUSH4 0xF7523C52 EQ PUSH2 0x71D JUMPI DUP1 PUSH4 0xFBBB4589 EQ PUSH2 0x75A JUMPI DUP1 PUSH4 0xFC361443 EQ PUSH2 0x785 JUMPI DUP1 PUSH4 0xFF357F5B EQ PUSH2 0x7AE JUMPI PUSH2 0x1EE JUMP JUMPDEST DUP1 PUSH4 0xD82EDDF2 EQ PUSH2 0x634 JUMPI DUP1 PUSH4 0xEE467678 EQ PUSH2 0x65F JUMPI DUP1 PUSH4 0xEE546A51 EQ PUSH2 0x68A JUMPI DUP1 PUSH4 0xEE620868 EQ PUSH2 0x6C7 JUMPI PUSH2 0x1EE JUMP JUMPDEST DUP1 PUSH4 0x71CD58F9 GT PUSH2 0xDC JUMPI DUP1 PUSH4 0x71CD58F9 EQ PUSH2 0x588 JUMPI DUP1 PUSH4 0x93F7B711 EQ PUSH2 0x5B3 JUMPI DUP1 PUSH4 0xC079D7F6 EQ PUSH2 0x5DE JUMPI DUP1 PUSH4 0xCBFF4617 EQ PUSH2 0x609 JUMPI PUSH2 0x1EE JUMP JUMPDEST DUP1 PUSH4 0x67B48C91 EQ PUSH2 0x4DE JUMPI DUP1 PUSH4 0x67E927A8 EQ PUSH2 0x509 JUMPI DUP1 PUSH4 0x6E05C1B9 EQ PUSH2 0x532 JUMPI DUP1 PUSH4 0x6F10E285 EQ PUSH2 0x55D JUMPI PUSH2 0x1EE JUMP JUMPDEST DUP1 PUSH4 0x29982A32 GT PUSH2 0x185 JUMPI DUP1 PUSH4 0x43D32E9C GT PUSH2 0x154 JUMPI DUP1 PUSH4 0x43D32E9C EQ PUSH2 0x41D JUMPI DUP1 PUSH4 0x46BFE626 EQ PUSH2 0x448 JUMPI DUP1 PUSH4 0x64CE07D8 EQ PUSH2 0x485 JUMPI DUP1 PUSH4 0x65819F7E EQ PUSH2 0x4C2 JUMPI PUSH2 0x1EE JUMP JUMPDEST DUP1 PUSH4 0x29982A32 EQ PUSH2 0x35F JUMPI DUP1 PUSH4 0x2A9F0FB1 EQ PUSH2 0x38A JUMPI DUP1 PUSH4 0x35453307 EQ PUSH2 0x3C7 JUMPI DUP1 PUSH4 0x3C6EB17A EQ PUSH2 0x3F2 JUMPI PUSH2 0x1EE JUMP JUMPDEST DUP1 PUSH4 0x1514C976 GT PUSH2 0x1C1 JUMPI DUP1 PUSH4 0x1514C976 EQ PUSH2 0x2B2 JUMPI DUP1 PUSH4 0x164C8501 EQ PUSH2 0x2EF JUMPI DUP1 PUSH4 0x1BC9CC45 EQ PUSH2 0x318 JUMPI DUP1 PUSH4 0x1F564A06 EQ PUSH2 0x334 JUMPI PUSH2 0x1EE JUMP JUMPDEST DUP1 PUSH4 0x18A25E8 EQ PUSH2 0x1F3 JUMPI DUP1 PUSH4 0x47729B0 EQ PUSH2 0x21E JUMPI DUP1 PUSH4 0xCCAF04F EQ PUSH2 0x249 JUMPI DUP1 PUSH4 0x12B2ED94 EQ PUSH2 0x274 JUMPI JUMPDEST PUSH1 0x0 DUP1 REVERT JUMPDEST CALLVALUE DUP1 ISZERO PUSH2 0x1FF JUMPI PUSH1 0x0 DUP1 REVERT JUMPDEST POP PUSH2 0x208 PUSH2 0x7CA JUMP JUMPDEST PUSH1 0x40 MLOAD PUSH2 0x215 SWAP2 SWAP1 PUSH2 0x1C1D JUMP JUMPDEST PUSH1 0x40 MLOAD DUP1 SWAP2 SUB SWAP1 RETURN JUMPDEST CALLVALUE DUP1 ISZERO PUSH2 0x22A JUMPI PUSH1 0x0 DUP1 REVERT JUMPDEST POP PUSH2 0x233 PUSH2 0x8E8 JUMP JUMPDEST PUSH1 0x40 MLOAD PUSH2 0x240 SWAP2 SWAP1 PUSH2 0x1AEC JUMP JUMPDEST PUSH1 0x40 MLOAD DUP1 SWAP2 SUB SWAP1 RETURN JUMPDEST CALLVALUE DUP1 ISZERO PUSH2 0x255 JUMPI PUSH1 0x0 DUP1 REVERT JUMPDEST POP PUSH2 0x25E PUSH2 0x90E JUMP JUMPDEST PUSH1 0x40 MLOAD PUSH2 0x26B SWAP2 SWAP1 PUSH2 0x1C1D JUMP JUMPDEST PUSH1 0x40 MLOAD DUP1 SWAP2 SUB SWAP1 RETURN JUMPDEST CALLVALUE DUP1 ISZERO PUSH2 0x280 JUMPI PUSH1 0x0 DUP1 REVERT JUMPDEST POP PUSH2 0x29B PUSH1 0x4 DUP1 CALLDATASIZE SUB DUP2 ADD SWAP1 PUSH2 0x296 SWAP2 SWAP1 PUSH2 0x18F0 JUMP JUMPDEST PUSH2 0x944 JUMP JUMPDEST PUSH1 0x40 MLOAD PUSH2 0x2A9 SWAP3 SWAP2 SWAP1 PUSH2 0x1C38 JUMP JUMPDEST PUSH1 0x40 MLOAD DUP1 SWAP2 SUB SWAP1 RETURN JUMPDEST CALLVALUE DUP1 ISZERO PUSH2 0x2BE JUMPI PUSH1 0x0 DUP1 REVERT JUMPDEST POP PUSH2 0x2D9 PUSH1 0x4 DUP1 CALLDATASIZE SUB DUP2 ADD SWAP1 PUSH2 0x2D4 SWAP2 SWAP1 PUSH2 0x198A JUMP JUMPDEST PUSH2 0x968 JUMP JUMPDEST PUSH1 0x40 MLOAD PUSH2 0x2E6 SWAP2 SWAP1 PUSH2 0x1C1D JUMP JUMPDEST PUSH1 0x40 MLOAD DUP1 SWAP2 SUB SWAP1 RETURN JUMPDEST CALLVALUE DUP1 ISZERO PUSH2 0x2FB JUMPI PUSH1 0x0 DUP1 REVERT JUMPDEST POP PUSH2 0x316 PUSH1 0x4 DUP1 CALLDATASIZE SUB DUP2 ADD SWAP1 PUSH2 0x311 SWAP2 SWAP1 PUSH2 0x198A JUMP JUMPDEST PUSH2 0x980 JUMP JUMPDEST STOP JUMPDEST PUSH2 0x332 PUSH1 0x4 DUP1 CALLDATASIZE SUB DUP2 ADD SWAP1 PUSH2 0x32D SWAP2 SWAP1 PUSH2 0x198A JUMP JUMPDEST PUSH2 0xAFE JUMP JUMPDEST STOP JUMPDEST CALLVALUE DUP1 ISZERO PUSH2 0x340 JUMPI PUSH1 0x0 DUP1 REVERT JUMPDEST POP PUSH2 0x349 PUSH2 0xC6C JUMP JUMPDEST PUSH1 0x40 MLOAD PUSH2 0x356 SWAP2 SWAP1 PUSH2 0x1C1D JUMP JUMPDEST PUSH1 0x40 MLOAD DUP1 SWAP2 SUB SWAP1 RETURN JUMPDEST CALLVALUE DUP1 ISZERO PUSH2 0x36B JUMPI PUSH1 0x0 DUP1 REVERT JUMPDEST POP PUSH2 0x374 PUSH2 0xD1E JUMP JUMPDEST PUSH1 0x40 MLOAD PUSH2 0x381 SWAP2 SWAP1 PUSH2 0x1AEC JUMP JUMPDEST PUSH1 0x40 MLOAD DUP1 SWAP2 SUB SWAP1 RETURN JUMPDEST CALLVALUE DUP1 ISZERO PUSH2 0x396 JUMPI PUSH1 0x0 DUP1 REVERT JUMPDEST POP PUSH2 0x3B1 PUSH1 0x4 DUP1 CALLDATASIZE SUB DUP2 ADD SWAP1 PUSH2 0x3AC SWAP2 SWAP1 PUSH2 0x198A JUMP JUMPDEST PUSH2 0xD44 JUMP JUMPDEST PUSH1 0x40 MLOAD PUSH2 0x3BE SWAP2 SWAP1 PUSH2 0x1C1D JUMP JUMPDEST PUSH1 0x40 MLOAD DUP1 SWAP2 SUB SWAP1 RETURN JUMPDEST CALLVALUE DUP1 ISZERO PUSH2 0x3D3 JUMPI PUSH1 0x0 DUP1 REVERT JUMPDEST POP PUSH2 0x3DC PUSH2 0xD5C JUMP JUMPDEST PUSH1 0x40 MLOAD PUSH2 0x3E9 SWAP2 SWAP1 PUSH2 0x1C1D JUMP JUMPDEST PUSH1 0x40 MLOAD DUP1 SWAP2 SUB SWAP1 RETURN JUMPDEST CALLVALUE DUP1 ISZERO PUSH2 0x3FE JUMPI PUSH1 0x0 DUP1 REVERT JUMPDEST POP PUSH2 0x407 PUSH2 0xD62 JUMP JUMPDEST PUSH1 0x40 MLOAD PUSH2 0x414 SWAP2 SWAP1 PUSH2 0x1C1D JUMP JUMPDEST PUSH1 0x40 MLOAD DUP1 SWAP2 SUB SWAP1 RETURN JUMPDEST CALLVALUE DUP1 ISZERO PUSH2 0x429 JUMPI PUSH1 0x0 DUP1 REVERT JUMPDEST POP PUSH2 0x432 PUSH2 0xD68 JUMP JUMPDEST PUSH1 0x40 MLOAD PUSH2 0x43F SWAP2 SWAP1 PUSH2 0x1C1D JUMP JUMPDEST PUSH1 0x40 MLOAD DUP1 SWAP2 SUB SWAP1 RETURN JUMPDEST CALLVALUE DUP1 ISZERO PUSH2 0x454 JUMPI PUSH1 0x0 DUP1 REVERT JUMPDEST POP PUSH2 0x46F PUSH1 0x4 DUP1 CALLDATASIZE SUB DUP2 ADD SWAP1 PUSH2 0x46A SWAP2 SWAP1 PUSH2 0x19E4 JUMP JUMPDEST PUSH2 0xE86 JUMP JUMPDEST PUSH1 0x40 MLOAD PUSH2 0x47C SWAP2 SWAP1 PUSH2 0x1C1D JUMP JUMPDEST PUSH1 0x40 MLOAD DUP1 SWAP2 SUB SWAP1 RETURN JUMPDEST CALLVALUE DUP1 ISZERO PUSH2 0x491 JUMPI PUSH1 0x0 DUP1 REVERT JUMPDEST POP PUSH2 0x4AC PUSH1 0x4 DUP1 CALLDATASIZE SUB DUP2 ADD SWAP1 PUSH2 0x4A7 SWAP2 SWAP1 PUSH2 0x19E4 JUMP JUMPDEST PUSH2 0xEC9 JUMP JUMPDEST PUSH1 0x40 MLOAD PUSH2 0x4B9 SWAP2 SWAP1 PUSH2 0x1C1D JUMP JUMPDEST PUSH1 0x40 MLOAD DUP1 SWAP2 SUB SWAP1 RETURN JUMPDEST PUSH2 0x4DC PUSH1 0x4 DUP1 CALLDATASIZE SUB DUP2 ADD SWAP1 PUSH2 0x4D7 SWAP2 SWAP1 PUSH2 0x198A JUMP JUMPDEST PUSH2 0xF0A JUMP JUMPDEST STOP JUMPDEST CALLVALUE DUP1 ISZERO PUSH2 0x4EA JUMPI PUSH1 0x0 DUP1 REVERT JUMPDEST POP PUSH2 0x4F3 PUSH2 0x1128 JUMP JUMPDEST PUSH1 0x40 MLOAD PUSH2 0x500 SWAP2 SWAP1 PUSH2 0x1C1D JUMP JUMPDEST PUSH1 0x40 MLOAD DUP1 SWAP2 SUB SWAP1 RETURN JUMPDEST CALLVALUE DUP1 ISZERO PUSH2 0x515 JUMPI PUSH1 0x0 DUP1 REVERT JUMPDEST POP PUSH2 0x530 PUSH1 0x4 DUP1 CALLDATASIZE SUB DUP2 ADD SWAP1 PUSH2 0x52B SWAP2 SWAP1 PUSH2 0x198A JUMP JUMPDEST PUSH2 0x112E JUMP JUMPDEST STOP JUMPDEST CALLVALUE DUP1 ISZERO PUSH2 0x53E JUMPI PUSH1 0x0 DUP1 REVERT JUMPDEST POP PUSH2 0x547 PUSH2 0x11DF JUMP JUMPDEST PUSH1 0x40 MLOAD PUSH2 0x554 SWAP2 SWAP1 PUSH2 0x1B67 JUMP JUMPDEST PUSH1 0x40 MLOAD DUP1 SWAP2 SUB SWAP1 RETURN JUMPDEST CALLVALUE DUP1 ISZERO PUSH2 0x569 JUMPI PUSH1 0x0 DUP1 REVERT JUMPDEST POP PUSH2 0x572 PUSH2 0x1205 JUMP JUMPDEST PUSH1 0x40 MLOAD PUSH2 0x57F SWAP2 SWAP1 PUSH2 0x1B82 JUMP JUMPDEST PUSH1 0x40 MLOAD DUP1 SWAP2 SUB SWAP1 RETURN JUMPDEST CALLVALUE DUP1 ISZERO PUSH2 0x594 JUMPI PUSH1 0x0 DUP1 REVERT JUMPDEST POP PUSH2 0x59D PUSH2 0x1218 JUMP JUMPDEST PUSH1 0x40 MLOAD PUSH2 0x5AA SWAP2 SWAP1 PUSH2 0x1C1D JUMP JUMPDEST PUSH1 0x40 MLOAD DUP1 SWAP2 SUB SWAP1 RETURN JUMPDEST CALLVALUE DUP1 ISZERO PUSH2 0x5BF JUMPI PUSH1 0x0 DUP1 REVERT JUMPDEST POP PUSH2 0x5C8 PUSH2 0x127B JUMP JUMPDEST PUSH1 0x40 MLOAD PUSH2 0x5D5 SWAP2 SWAP1 PUSH2 0x1C1D JUMP JUMPDEST PUSH1 0x40 MLOAD DUP1 SWAP2 SUB SWAP1 RETURN JUMPDEST CALLVALUE DUP1 ISZERO PUSH2 0x5EA JUMPI PUSH1 0x0 DUP1 REVERT JUMPDEST POP PUSH2 0x5F3 PUSH2 0x12B1 JUMP JUMPDEST PUSH1 0x40 MLOAD PUSH2 0x600 SWAP2 SWAP1 PUSH2 0x1AEC JUMP JUMPDEST PUSH1 0x40 MLOAD DUP1 SWAP2 SUB SWAP1 RETURN JUMPDEST CALLVALUE DUP1 ISZERO PUSH2 0x615 JUMPI PUSH1 0x0 DUP1 REVERT JUMPDEST POP PUSH2 0x61E PUSH2 0x12D7 JUMP JUMPDEST PUSH1 0x40 MLOAD PUSH2 0x62B SWAP2 SWAP1 PUSH2 0x1C1D JUMP JUMPDEST PUSH1 0x40 MLOAD DUP1 SWAP2 SUB SWAP1 RETURN JUMPDEST CALLVALUE DUP1 ISZERO PUSH2 0x640 JUMPI PUSH1 0x0 DUP1 REVERT JUMPDEST POP PUSH2 0x649 PUSH2 0x12DD JUMP JUMPDEST PUSH1 0x40 MLOAD PUSH2 0x656 SWAP2 SWAP1 PUSH2 0x1C1D JUMP JUMPDEST PUSH1 0x40 MLOAD DUP1 SWAP2 SUB SWAP1 RETURN JUMPDEST CALLVALUE DUP1 ISZERO PUSH2 0x66B JUMPI PUSH1 0x0 DUP1 REVERT JUMPDEST POP PUSH2 0x674 PUSH2 0x1340 JUMP JUMPDEST PUSH1 0x40 MLOAD PUSH2 0x681 SWAP2 SWAP1 PUSH2 0x1B67 JUMP JUMPDEST PUSH1 0x40 MLOAD DUP1 SWAP2 SUB SWAP1 RETURN JUMPDEST CALLVALUE DUP1 ISZERO PUSH2 0x696 JUMPI PUSH1 0x0 DUP1 REVERT JUMPDEST POP PUSH2 0x6B1 PUSH1 0x4 DUP1 CALLDATASIZE SUB DUP2 ADD SWAP1 PUSH2 0x6AC SWAP2 SWAP1 PUSH2 0x191D JUMP JUMPDEST PUSH2 0x1366 JUMP JUMPDEST PUSH1 0x40 MLOAD PUSH2 0x6BE SWAP2 SWAP1 PUSH2 0x1C1D JUMP JUMPDEST PUSH1 0x40 MLOAD DUP1 SWAP2 SUB SWAP1 RETURN JUMPDEST CALLVALUE DUP1 ISZERO PUSH2 0x6D3 JUMPI PUSH1 0x0 DUP1 REVERT JUMPDEST POP PUSH2 0x6DC PUSH2 0x13F9 JUMP JUMPDEST PUSH1 0x40 MLOAD PUSH2 0x6E9 SWAP2 SWAP1 PUSH2 0x1C1D JUMP JUMPDEST PUSH1 0x40 MLOAD DUP1 SWAP2 SUB SWAP1 RETURN JUMPDEST CALLVALUE DUP1 ISZERO PUSH2 0x6FE JUMPI PUSH1 0x0 DUP1 REVERT JUMPDEST POP PUSH2 0x707 PUSH2 0x13FF JUMP JUMPDEST PUSH1 0x40 MLOAD PUSH2 0x714 SWAP2 SWAP1 PUSH2 0x1AEC JUMP JUMPDEST PUSH1 0x40 MLOAD DUP1 SWAP2 SUB SWAP1 RETURN JUMPDEST CALLVALUE DUP1 ISZERO PUSH2 0x729 JUMPI PUSH1 0x0 DUP1 REVERT JUMPDEST POP PUSH2 0x744 PUSH1 0x4 DUP1 CALLDATASIZE SUB DUP2 ADD SWAP1 PUSH2 0x73F SWAP2 SWAP1 PUSH2 0x19E4 JUMP JUMPDEST PUSH2 0x1425 JUMP JUMPDEST PUSH1 0x40 MLOAD PUSH2 0x751 SWAP2 SWAP1 PUSH2 0x1C1D JUMP JUMPDEST PUSH1 0x40 MLOAD DUP1 SWAP2 SUB SWAP1 RETURN JUMPDEST CALLVALUE DUP1 ISZERO PUSH2 0x766 JUMPI PUSH1 0x0 DUP1 REVERT JUMPDEST POP PUSH2 0x76F PUSH2 0x146E JUMP JUMPDEST PUSH1 0x40 MLOAD PUSH2 0x77C SWAP2 SWAP1 PUSH2 0x1AEC JUMP JUMPDEST PUSH1 0x40 MLOAD DUP1 SWAP2 SUB SWAP1 RETURN JUMPDEST CALLVALUE DUP1 ISZERO PUSH2 0x791 JUMPI PUSH1 0x0 DUP1 REVERT JUMPDEST POP PUSH2 0x7AC PUSH1 0x4 DUP1 CALLDATASIZE SUB DUP2 ADD SWAP1 PUSH2 0x7A7 SWAP2 SWAP1 PUSH2 0x198A JUMP JUMPDEST PUSH2 0x1494 JUMP JUMPDEST STOP JUMPDEST PUSH2 0x7C8 PUSH1 0x4 DUP1 CALLDATASIZE SUB DUP2 ADD SWAP1 PUSH2 0x7C3 SWAP2 SWAP1 PUSH2 0x198A JUMP JUMPDEST PUSH2 0x14AC JUMP JUMPDEST STOP JUMPDEST PUSH1 0x0 PUSH2 0x8E3 ADDRESS PUSH20 0xFFFFFFFFFFFFFFFFFFFFFFFFFFFFFFFFFFFFFFFF AND PUSH4 0x1F564A06 PUSH1 0x40 MLOAD DUP2 PUSH4 0xFFFFFFFF AND PUSH1 0xE0 SHL DUP2 MSTORE PUSH1 0x4 ADD PUSH1 0x20 PUSH1 0x40 MLOAD DUP1 DUP4 SUB DUP2 DUP7 DUP1 EXTCODESIZE ISZERO DUP1 ISZERO PUSH2 0x815 JUMPI PUSH1 0x0 DUP1 REVERT JUMPDEST POP GAS STATICCALL ISZERO DUP1 ISZERO PUSH2 0x829 JUMPI RETURNDATASIZE PUSH1 0x0 DUP1 RETURNDATACOPY RETURNDATASIZE PUSH1 0x0 REVERT JUMPDEST POP POP POP POP PUSH1 0x40 MLOAD RETURNDATASIZE PUSH1 0x1F NOT PUSH1 0x1F DUP3 ADD AND DUP3 ADD DUP1 PUSH1 0x40 MSTORE POP DUP2 ADD SWAP1 PUSH2 0x84D SWAP2 SWAP1 PUSH2 0x19B7 JUMP JUMPDEST ADDRESS PUSH20 0xFFFFFFFFFFFFFFFFFFFFFFFFFFFFFFFFFFFFFFFF AND PUSH4 0x93F7B711 PUSH1 0x40 MLOAD DUP2 PUSH4 0xFFFFFFFF AND PUSH1 0xE0 SHL DUP2 MSTORE PUSH1 0x4 ADD PUSH1 0x20 PUSH1 0x40 MLOAD DUP1 DUP4 SUB DUP2 DUP7 DUP1 EXTCODESIZE ISZERO DUP1 ISZERO PUSH2 0x893 JUMPI PUSH1 0x0 DUP1 REVERT JUMPDEST POP GAS STATICCALL ISZERO DUP1 ISZERO PUSH2 0x8A7 JUMPI RETURNDATASIZE PUSH1 0x0 DUP1 RETURNDATACOPY RETURNDATASIZE PUSH1 0x0 REVERT JUMPDEST POP POP POP POP PUSH1 0x40 MLOAD RETURNDATASIZE PUSH1 0x1F NOT PUSH1 0x1F DUP3 ADD AND DUP3 ADD DUP1 PUSH1 0x40 MSTORE POP DUP2 ADD SWAP1 PUSH2 0x8CB SWAP2 SWAP1 PUSH2 0x19B7 JUMP JUMPDEST PUSH8 0x10A741A462780000 PUSH2 0x8DE SWAP2 SWAP1 PUSH2 0x1C72 JUMP JUMPDEST PUSH2 0x1425 JUMP JUMPDEST SWAP1 POP SWAP1 JUMP JUMPDEST PUSH1 0x8 PUSH1 0x0 SWAP1 SLOAD SWAP1 PUSH2 0x100 EXP SWAP1 DIV PUSH20 0xFFFFFFFFFFFFFFFFFFFFFFFFFFFFFFFFFFFFFFFF AND DUP2 JUMP JUMPDEST PUSH1 0x0 DUP1 PUSH2 0x91F PUSH1 0xE SLOAD PUSH1 0xF SLOAD PUSH2 0xEC9 JUMP JUMPDEST SWAP1 POP PUSH8 0x429D069189E0000 DUP2 GT ISZERO PUSH2 0x93D JUMPI PUSH8 0x429D069189E0000 SWAP1 POP JUMPDEST DUP1 SWAP2 POP POP SWAP1 JUMP JUMPDEST PUSH1 0x16 PUSH1 0x20 MSTORE DUP1 PUSH1 0x0 MSTORE PUSH1 0x40 PUSH1 0x0 KECCAK256 PUSH1 0x0 SWAP2 POP SWAP1 POP DUP1 PUSH1 0x0 ADD SLOAD SWAP1 DUP1 PUSH1 0x1 ADD SLOAD SWAP1 POP DUP3 JUMP JUMPDEST PUSH1 0x15 PUSH1 0x20 MSTORE DUP1 PUSH1 0x0 MSTORE PUSH1 0x40 PUSH1 0x0 KECCAK256 PUSH1 0x0 SWAP2 POP SWAP1 POP SLOAD DUP2 JUMP JUMPDEST PUSH1 0x16 PUSH1 0x0 CALLER PUSH20 0xFFFFFFFFFFFFFFFFFFFFFFFFFFFFFFFFFFFFFFFF AND PUSH20 0xFFFFFFFFFFFFFFFFFFFFFFFFFFFFFFFFFFFFFFFF AND DUP2 MSTORE PUSH1 0x20 ADD SWAP1 DUP2 MSTORE PUSH1 0x20 ADD PUSH1 0x0 KECCAK256 PUSH1 0x1 ADD SLOAD DUP2 LT PUSH2 0xA04 JUMPI PUSH1 0x40 MLOAD PUSH32 0x8C379A000000000000000000000000000000000000000000000000000000000 DUP2 MSTORE PUSH1 0x4 ADD PUSH2 0x9FB SWAP1 PUSH2 0x1B9D JUMP JUMPDEST PUSH1 0x40 MLOAD DUP1 SWAP2 SUB SWAP1 REVERT JUMPDEST DUP1 PUSH1 0x16 PUSH1 0x0 CALLER PUSH20 0xFFFFFFFFFFFFFFFFFFFFFFFFFFFFFFFFFFFFFFFF AND PUSH20 0xFFFFFFFFFFFFFFFFFFFFFFFFFFFFFFFFFFFFFFFF AND DUP2 MSTORE PUSH1 0x20 ADD SWAP1 DUP2 MSTORE PUSH1 0x20 ADD PUSH1 0x0 KECCAK256 PUSH1 0x1 ADD PUSH1 0x0 DUP3 DUP3 SLOAD PUSH2 0xA56 SWAP2 SWAP1 PUSH2 0x1D53 JUMP JUMPDEST SWAP3 POP POP DUP2 SWAP1 SSTORE POP PUSH1 0x0 PUSH1 0x16 PUSH1 0x0 CALLER PUSH20 0xFFFFFFFFFFFFFFFFFFFFFFFFFFFFFFFFFFFFFFFF AND PUSH20 0xFFFFFFFFFFFFFFFFFFFFFFFFFFFFFFFFFFFFFFFF AND DUP2 MSTORE PUSH1 0x20 ADD SWAP1 DUP2 MSTORE PUSH1 0x20 ADD PUSH1 0x0 KECCAK256 PUSH1 0x1 ADD SLOAD EQ ISZERO PUSH2 0xAFB JUMPI PUSH1 0x16 PUSH1 0x0 CALLER PUSH20 0xFFFFFFFFFFFFFFFFFFFFFFFFFFFFFFFFFFFFFFFF AND PUSH20 0xFFFFFFFFFFFFFFFFFFFFFFFFFFFFFFFFFFFFFFFF AND DUP2 MSTORE PUSH1 0x20 ADD SWAP1 DUP2 MSTORE PUSH1 0x20 ADD PUSH1 0x0 KECCAK256 PUSH1 0x0 DUP1 DUP3 ADD PUSH1 0x0 SWAP1 SSTORE PUSH1 0x1 DUP3 ADD PUSH1 0x0 SWAP1 SSTORE POP POP JUMPDEST POP JUMP JUMPDEST PUSH1 0x0 PUSH1 0x12 PUSH1 0x0 SWAP1 SLOAD SWAP1 PUSH2 0x100 EXP SWAP1 DIV PUSH20 0xFFFFFFFFFFFFFFFFFFFFFFFFFFFFFFFFFFFFFFFF AND PUSH20 0xFFFFFFFFFFFFFFFFFFFFFFFFFFFFFFFFFFFFFFFF AND PUSH4 0x70A08231 CALLER PUSH1 0x40 MLOAD DUP3 PUSH4 0xFFFFFFFF AND PUSH1 0xE0 SHL DUP2 MSTORE PUSH1 0x4 ADD PUSH2 0xB5B SWAP2 SWAP1 PUSH2 0x1AEC JUMP JUMPDEST PUSH1 0x20 PUSH1 0x40 MLOAD DUP1 DUP4 SUB DUP2 DUP7 DUP1 EXTCODESIZE ISZERO DUP1 ISZERO PUSH2 0xB73 JUMPI PUSH1 0x0 DUP1 REVERT JUMPDEST POP GAS STATICCALL ISZERO DUP1 ISZERO PUSH2 0xB87 JUMPI RETURNDATASIZE PUSH1 0x0 DUP1 RETURNDATACOPY RETURNDATASIZE PUSH1 0x0 REVERT JUMPDEST POP POP POP POP PUSH1 0x40 MLOAD RETURNDATASIZE PUSH1 0x1F NOT PUSH1 0x1F DUP3 ADD AND DUP3 ADD DUP1 PUSH1 0x40 MSTORE POP DUP2 ADD SWAP1 PUSH2 0xBAB SWAP2 SWAP1 PUSH2 0x19B7 JUMP JUMPDEST SWAP1 POP DUP2 DUP2 GT PUSH2 0xBEF JUMPI PUSH1 0x40 MLOAD PUSH32 0x8C379A000000000000000000000000000000000000000000000000000000000 DUP2 MSTORE PUSH1 0x4 ADD PUSH2 0xBE6 SWAP1 PUSH2 0x1BDD JUMP JUMPDEST PUSH1 0x40 MLOAD DUP1 SWAP2 SUB SWAP1 REVERT JUMPDEST PUSH2 0xC1D PUSH1 0x12 PUSH1 0x0 SWAP1 SLOAD SWAP1 PUSH2 0x100 EXP SWAP1 DIV PUSH20 0xFFFFFFFFFFFFFFFFFFFFFFFFFFFFFFFFFFFFFFFF AND CALLER ADDRESS DUP6 PUSH2 0x16E9 JUMP JUMPDEST PUSH1 0x0 PUSH3 0x15180 PUSH1 0xB SLOAD TIMESTAMP PUSH2 0xC31 SWAP2 SWAP1 PUSH2 0x1D53 JUMP JUMPDEST PUSH2 0xC3B SWAP2 SWAP1 PUSH2 0x1CC8 JUMP JUMPDEST SWAP1 POP DUP3 PUSH1 0x15 PUSH1 0x0 DUP4 DUP2 MSTORE PUSH1 0x20 ADD SWAP1 DUP2 MSTORE PUSH1 0x20 ADD PUSH1 0x0 KECCAK256 PUSH1 0x0 DUP3 DUP3 SLOAD PUSH2 0xC60 SWAP2 SWAP1 PUSH2 0x1C72 JUMP JUMPDEST SWAP3 POP POP DUP2 SWAP1 SSTORE POP POP POP POP JUMP JUMPDEST PUSH1 0x0 PUSH2 0xD19 PUSH1 0xA SLOAD PUSH1 0x12 PUSH1 0x0 SWAP1 SLOAD SWAP1 PUSH2 0x100 EXP SWAP1 DIV PUSH20 0xFFFFFFFFFFFFFFFFFFFFFFFFFFFFFFFFFFFFFFFF AND PUSH20 0xFFFFFFFFFFFFFFFFFFFFFFFFFFFFFFFFFFFFFFFF AND PUSH4 0x18160DDD PUSH1 0x40 MLOAD DUP2 PUSH4 0xFFFFFFFF AND PUSH1 0xE0 SHL DUP2 MSTORE PUSH1 0x4 ADD PUSH1 0x20 PUSH1 0x40 MLOAD DUP1 DUP4 SUB DUP2 DUP7 DUP1 EXTCODESIZE ISZERO DUP1 ISZERO PUSH2 0xCDC JUMPI PUSH1 0x0 DUP1 REVERT JUMPDEST POP GAS STATICCALL ISZERO DUP1 ISZERO PUSH2 0xCF0 JUMPI RETURNDATASIZE PUSH1 0x0 DUP1 RETURNDATACOPY RETURNDATASIZE PUSH1 0x0 REVERT JUMPDEST POP POP POP POP PUSH1 0x40 MLOAD RETURNDATASIZE PUSH1 0x1F NOT PUSH1 0x1F DUP3 ADD AND DUP3 ADD DUP1 PUSH1 0x40 MSTORE POP DUP2 ADD SWAP1 PUSH2 0xD14 SWAP2 SWAP1 PUSH2 0x19B7 JUMP JUMPDEST PUSH2 0xEC9 JUMP JUMPDEST SWAP1 POP SWAP1 JUMP JUMPDEST PUSH1 0x9 PUSH1 0x0 SWAP1 SLOAD SWAP1 PUSH2 0x100 EXP SWAP1 DIV PUSH20 0xFFFFFFFFFFFFFFFFFFFFFFFFFFFFFFFFFFFFFFFF AND DUP2 JUMP JUMPDEST PUSH1 0x14 PUSH1 0x20 MSTORE DUP1 PUSH1 0x0 MSTORE PUSH1 0x40 PUSH1 0x0 KECCAK256 PUSH1 0x0 SWAP2 POP SWAP1 POP SLOAD DUP2 JUMP JUMPDEST PUSH1 0xA SLOAD DUP2 JUMP JUMPDEST PUSH1 0xB SLOAD DUP2 JUMP JUMPDEST PUSH1 0x0 PUSH2 0xE81 ADDRESS PUSH20 0xFFFFFFFFFFFFFFFFFFFFFFFFFFFFFFFFFFFFFFFF AND PUSH4 0x1F564A06 PUSH1 0x40 MLOAD DUP2 PUSH4 0xFFFFFFFF AND PUSH1 0xE0 SHL DUP2 MSTORE PUSH1 0x4 ADD PUSH1 0x20 PUSH1 0x40 MLOAD DUP1 DUP4 SUB DUP2 DUP7 DUP1 EXTCODESIZE ISZERO DUP1 ISZERO PUSH2 0xDB3 JUMPI PUSH1 0x0 DUP1 REVERT JUMPDEST POP GAS STATICCALL ISZERO DUP1 ISZERO PUSH2 0xDC7 JUMPI RETURNDATASIZE PUSH1 0x0 DUP1 RETURNDATACOPY RETURNDATASIZE PUSH1 0x0 REVERT JUMPDEST POP POP POP POP PUSH1 0x40 MLOAD RETURNDATASIZE PUSH1 0x1F NOT PUSH1 0x1F DUP3 ADD AND DUP3 ADD DUP1 PUSH1 0x40 MSTORE POP DUP2 ADD SWAP1 PUSH2 0xDEB SWAP2 SWAP1 PUSH2 0x19B7 JUMP JUMPDEST ADDRESS PUSH20 0xFFFFFFFFFFFFFFFFFFFFFFFFFFFFFFFFFFFFFFFF AND PUSH4 0xCCAF04F PUSH1 0x40 MLOAD DUP2 PUSH4 0xFFFFFFFF AND PUSH1 0xE0 SHL DUP2 MSTORE PUSH1 0x4 ADD PUSH1 0x20 PUSH1 0x40 MLOAD DUP1 DUP4 SUB DUP2 DUP7 DUP1 EXTCODESIZE ISZERO DUP1 ISZERO PUSH2 0xE31 JUMPI PUSH1 0x0 DUP1 REVERT JUMPDEST POP GAS STATICCALL ISZERO DUP1 ISZERO PUSH2 0xE45 JUMPI RETURNDATASIZE PUSH1 0x0 DUP1 RETURNDATACOPY RETURNDATASIZE PUSH1 0x0 REVERT JUMPDEST POP POP POP POP PUSH1 0x40 MLOAD RETURNDATASIZE PUSH1 0x1F NOT PUSH1 0x1F DUP3 ADD AND DUP3 ADD DUP1 PUSH1 0x40 MSTORE POP DUP2 ADD SWAP1 PUSH2 0xE69 SWAP2 SWAP1 PUSH2 0x19B7 JUMP JUMPDEST PUSH8 0xC7D713B49DA0000 PUSH2 0xE7C SWAP2 SWAP1 PUSH2 0x1D53 JUMP JUMPDEST PUSH2 0x1425 JUMP JUMPDEST SWAP1 POP SWAP1 JUMP JUMPDEST PUSH1 0x0 DUP1 PUSH3 0x15180 PUSH1 0xB SLOAD DUP6 PUSH2 0xE9B SWAP2 SWAP1 PUSH2 0x1D53 JUMP JUMPDEST PUSH2 0xEA5 SWAP2 SWAP1 PUSH2 0x1CC8 JUMP JUMPDEST SWAP1 POP DUP3 PUSH1 0x14 PUSH1 0x0 DUP4 DUP2 MSTORE PUSH1 0x20 ADD SWAP1 DUP2 MSTORE PUSH1 0x20 ADD PUSH1 0x0 KECCAK256 DUP2 SWAP1 SSTORE POP DUP1 SWAP2 POP POP SWAP3 SWAP2 POP POP JUMP JUMPDEST PUSH1 0x0 DUP1 PUSH2 0xEDE DUP5 PUSH8 0xDE0B6B3A7640000 PUSH2 0x17C3 JUMP JUMPDEST SWAP1 POP DUP3 PUSH2 0xEF7 DUP3 PUSH1 0x2 DUP7 PUSH2 0xEF2 SWAP2 SWAP1 PUSH2 0x1CC8 JUMP JUMPDEST PUSH2 0x183E JUMP JUMPDEST PUSH2 0xF01 SWAP2 SWAP1 PUSH2 0x1CC8 JUMP JUMPDEST SWAP2 POP POP SWAP3 SWAP2 POP POP JUMP JUMPDEST PUSH1 0x0 PUSH1 0x13 PUSH1 0x0 SWAP1 SLOAD SWAP1 PUSH2 0x100 EXP SWAP1 DIV PUSH20 0xFFFFFFFFFFFFFFFFFFFFFFFFFFFFFFFFFFFFFFFF AND PUSH20 0xFFFFFFFFFFFFFFFFFFFFFFFFFFFFFFFFFFFFFFFF AND PUSH4 0x70A08231 CALLER PUSH1 0x40 MLOAD DUP3 PUSH4 0xFFFFFFFF AND PUSH1 0xE0 SHL DUP2 MSTORE PUSH1 0x4 ADD PUSH2 0xF67 SWAP2 SWAP1 PUSH2 0x1AEC JUMP JUMPDEST PUSH1 0x20 PUSH1 0x40 MLOAD DUP1 DUP4 SUB DUP2 DUP7 DUP1 EXTCODESIZE ISZERO DUP1 ISZERO PUSH2 0xF7F JUMPI PUSH1 0x0 DUP1 REVERT JUMPDEST POP GAS STATICCALL ISZERO DUP1 ISZERO PUSH2 0xF93 JUMPI RETURNDATASIZE PUSH1 0x0 DUP1 RETURNDATACOPY RETURNDATASIZE PUSH1 0x0 REVERT JUMPDEST POP POP POP POP PUSH1 0x40 MLOAD RETURNDATASIZE PUSH1 0x1F NOT PUSH1 0x1F DUP3 ADD AND DUP3 ADD DUP1 PUSH1 0x40 MSTORE POP DUP2 ADD SWAP1 PUSH2 0xFB7 SWAP2 SWAP1 PUSH2 0x19B7 JUMP JUMPDEST SWAP1 POP DUP2 DUP2 GT PUSH2 0xFFB JUMPI PUSH1 0x40 MLOAD PUSH32 0x8C379A000000000000000000000000000000000000000000000000000000000 DUP2 MSTORE PUSH1 0x4 ADD PUSH2 0xFF2 SWAP1 PUSH2 0x1BDD JUMP JUMPDEST PUSH1 0x40 MLOAD DUP1 SWAP2 SUB SWAP1 REVERT JUMPDEST PUSH1 0x12 PUSH1 0x0 SWAP1 SLOAD SWAP1 PUSH2 0x100 EXP SWAP1 DIV PUSH20 0xFFFFFFFFFFFFFFFFFFFFFFFFFFFFFFFFFFFFFFFF AND PUSH20 0xFFFFFFFFFFFFFFFFFFFFFFFFFFFFFFFFFFFFFFFF AND PUSH4 0xA9059CBB CALLER DUP5 PUSH1 0x40 MLOAD DUP4 PUSH4 0xFFFFFFFF AND PUSH1 0xE0 SHL DUP2 MSTORE PUSH1 0x4 ADD PUSH2 0x1058 SWAP3 SWAP2 SWAP1 PUSH2 0x1B3E JUMP JUMPDEST PUSH1 0x20 PUSH1 0x40 MLOAD DUP1 DUP4 SUB DUP2 PUSH1 0x0 DUP8 DUP1 EXTCODESIZE ISZERO DUP1 ISZERO PUSH2 0x1072 JUMPI PUSH1 0x0 DUP1 REVERT JUMPDEST POP GAS CALL ISZERO DUP1 ISZERO PUSH2 0x1086 JUMPI RETURNDATASIZE PUSH1 0x0 DUP1 RETURNDATACOPY RETURNDATASIZE PUSH1 0x0 REVERT JUMPDEST POP POP POP POP PUSH1 0x40 MLOAD RETURNDATASIZE PUSH1 0x1F NOT PUSH1 0x1F DUP3 ADD AND DUP3 ADD DUP1 PUSH1 0x40 MSTORE POP DUP2 ADD SWAP1 PUSH2 0x10AA SWAP2 SWAP1 PUSH2 0x195D JUMP JUMPDEST POP PUSH2 0x10D9 PUSH1 0x13 PUSH1 0x0 SWAP1 SLOAD SWAP1 PUSH2 0x100 EXP SWAP1 DIV PUSH20 0xFFFFFFFFFFFFFFFFFFFFFFFFFFFFFFFFFFFFFFFF AND CALLER ADDRESS DUP6 PUSH2 0x16E9 JUMP JUMPDEST PUSH1 0x0 PUSH3 0x15180 PUSH1 0xB SLOAD TIMESTAMP PUSH2 0x10ED SWAP2 SWAP1 PUSH2 0x1D53 JUMP JUMPDEST PUSH2 0x10F7 SWAP2 SWAP1 PUSH2 0x1CC8 JUMP JUMPDEST SWAP1 POP DUP3 PUSH1 0x14 PUSH1 0x0 DUP4 DUP2 MSTORE PUSH1 0x20 ADD SWAP1 DUP2 MSTORE PUSH1 0x20 ADD PUSH1 0x0 KECCAK256 PUSH1 0x0 DUP3 DUP3 SLOAD PUSH2 0x111C SWAP2 SWAP1 PUSH2 0x1C72 JUMP JUMPDEST SWAP3 POP POP DUP2 SWAP1 SSTORE POP POP POP POP JUMP JUMPDEST PUSH1 0xC SLOAD DUP2 JUMP JUMPDEST PUSH3 0xD2F00 TIMESTAMP PUSH2 0x113D SWAP2 SWAP1 PUSH2 0x1C72 JUMP JUMPDEST PUSH1 0x16 PUSH1 0x0 CALLER PUSH20 0xFFFFFFFFFFFFFFFFFFFFFFFFFFFFFFFFFFFFFFFF AND PUSH20 0xFFFFFFFFFFFFFFFFFFFFFFFFFFFFFFFFFFFFFFFF AND DUP2 MSTORE PUSH1 0x20 ADD SWAP1 DUP2 MSTORE PUSH1 0x20 ADD PUSH1 0x0 KECCAK256 PUSH1 0x0 ADD DUP2 SWAP1 SSTORE POP DUP1 PUSH1 0x16 PUSH1 0x0 CALLER PUSH20 0xFFFFFFFFFFFFFFFFFFFFFFFFFFFFFFFFFFFFFFFF AND PUSH20 0xFFFFFFFFFFFFFFFFFFFFFFFFFFFFFFFFFFFFFFFF AND DUP2 MSTORE PUSH1 0x20 ADD SWAP1 DUP2 MSTORE PUSH1 0x20 ADD PUSH1 0x0 KECCAK256 PUSH1 0x1 ADD PUSH1 0x0 DUP3 DUP3 SLOAD PUSH2 0x11D5 SWAP2 SWAP1 PUSH2 0x1C72 JUMP JUMPDEST SWAP3 POP POP DUP2 SWAP1 SSTORE POP POP JUMP JUMPDEST PUSH1 0x12 PUSH1 0x0 SWAP1 SLOAD SWAP1 PUSH2 0x100 EXP SWAP1 DIV PUSH20 0xFFFFFFFFFFFFFFFFFFFFFFFFFFFFFFFFFFFFFFFF AND DUP2 JUMP JUMPDEST PUSH1 0x10 PUSH1 0x0 SWAP1 SLOAD SWAP1 PUSH2 0x100 EXP SWAP1 DIV PUSH1 0xF SIGNEXTEND DUP2 JUMP JUMPDEST PUSH1 0x0 DUP1 PUSH1 0x0 DUP1 PUSH3 0x15180 PUSH1 0xC SLOAD PUSH2 0x122F SWAP2 SWAP1 PUSH2 0x1CC8 JUMP JUMPDEST SWAP1 POP PUSH1 0x0 SWAP2 POP JUMPDEST DUP1 DUP3 LT ISZERO PUSH2 0x1272 JUMPI PUSH1 0x14 PUSH1 0x0 DUP4 DUP2 MSTORE PUSH1 0x20 ADD SWAP1 DUP2 MSTORE PUSH1 0x20 ADD PUSH1 0x0 KECCAK256 SLOAD DUP4 PUSH2 0x125D SWAP2 SWAP1 PUSH2 0x1C72 JUMP JUMPDEST SWAP3 POP DUP2 DUP1 PUSH2 0x126A SWAP1 PUSH2 0x1E12 JUMP JUMPDEST SWAP3 POP POP PUSH2 0x1236 JUMP JUMPDEST DUP3 SWAP4 POP POP POP POP SWAP1 JUMP JUMPDEST PUSH1 0x0 DUP1 PUSH2 0x128C PUSH1 0xD SLOAD PUSH1 0xF SLOAD PUSH2 0xEC9 JUMP JUMPDEST SWAP1 POP PUSH8 0x10A741A462780000 DUP2 GT ISZERO PUSH2 0x12AA JUMPI PUSH8 0x10A741A462780000 SWAP1 POP JUMPDEST DUP1 SWAP2 POP POP SWAP1 JUMP JUMPDEST PUSH1 0x7 PUSH1 0x0 SWAP1 SLOAD SWAP1 PUSH2 0x100 EXP SWAP1 DIV PUSH20 0xFFFFFFFFFFFFFFFFFFFFFFFFFFFFFFFFFFFFFFFF AND DUP2 JUMP JUMPDEST PUSH1 0x1 SLOAD DUP2 JUMP JUMPDEST PUSH1 0x0 DUP1 PUSH1 0x0 DUP1 PUSH3 0x15180 PUSH1 0xC SLOAD PUSH2 0x12F4 SWAP2 SWAP1 PUSH2 0x1CC8 JUMP JUMPDEST SWAP1 POP PUSH1 0x0 SWAP2 POP JUMPDEST DUP1 DUP3 LT ISZERO PUSH2 0x1337 JUMPI PUSH1 0x15 PUSH1 0x0 DUP4 DUP2 MSTORE PUSH1 0x20 ADD SWAP1 DUP2 MSTORE PUSH1 0x20 ADD PUSH1 0x0 KECCAK256 SLOAD DUP4 PUSH2 0x1322 SWAP2 SWAP1 PUSH2 0x1C72 JUMP JUMPDEST SWAP3 POP DUP2 DUP1 PUSH2 0x132F SWAP1 PUSH2 0x1E12 JUMP JUMPDEST SWAP3 POP POP PUSH2 0x12FB JUMP JUMPDEST DUP3 SWAP4 POP POP POP POP SWAP1 JUMP JUMPDEST PUSH1 0x13 PUSH1 0x0 SWAP1 SLOAD SWAP1 PUSH2 0x100 EXP SWAP1 DIV PUSH20 0xFFFFFFFFFFFFFFFFFFFFFFFFFFFFFFFFFFFFFFFF AND DUP2 JUMP JUMPDEST PUSH1 0x0 DUP3 PUSH20 0xFFFFFFFFFFFFFFFFFFFFFFFFFFFFFFFFFFFFFFFF AND PUSH4 0x70A08231 DUP4 PUSH1 0x40 MLOAD DUP3 PUSH4 0xFFFFFFFF AND PUSH1 0xE0 SHL DUP2 MSTORE PUSH1 0x4 ADD PUSH2 0x13A1 SWAP2 SWAP1 PUSH2 0x1AEC JUMP JUMPDEST PUSH1 0x20 PUSH1 0x40 MLOAD DUP1 DUP4 SUB DUP2 DUP7 DUP1 EXTCODESIZE ISZERO DUP1 ISZERO PUSH2 0x13B9 JUMPI PUSH1 0x0 DUP1 REVERT JUMPDEST POP GAS STATICCALL ISZERO DUP1 ISZERO PUSH2 0x13CD JUMPI RETURNDATASIZE PUSH1 0x0 DUP1 RETURNDATACOPY RETURNDATASIZE PUSH1 0x0 REVERT JUMPDEST POP POP POP POP PUSH1 0x40 MLOAD RETURNDATASIZE PUSH1 0x1F NOT PUSH1 0x1F DUP3 ADD AND DUP3 ADD DUP1 PUSH1 0x40 MSTORE POP DUP2 ADD SWAP1 PUSH2 0x13F1 SWAP2 SWAP1 PUSH2 0x19B7 JUMP JUMPDEST SWAP1 POP SWAP3 SWAP2 POP POP JUMP JUMPDEST PUSH1 0x0 SLOAD DUP2 JUMP JUMPDEST PUSH1 0x11 PUSH1 0x0 SWAP1 SLOAD SWAP1 PUSH2 0x100 EXP SWAP1 DIV PUSH20 0xFFFFFFFFFFFFFFFFFFFFFFFFFFFFFFFFFFFFFFFF AND DUP2 JUMP JUMPDEST PUSH1 0x0 DUP1 PUSH2 0x1432 DUP5 DUP5 PUSH2 0x17C3 JUMP JUMPDEST SWAP1 POP PUSH8 0xDE0B6B3A7640000 PUSH2 0x145B DUP3 PUSH1 0x2 PUSH8 0xDE0B6B3A7640000 PUSH2 0x1456 SWAP2 SWAP1 PUSH2 0x1CC8 JUMP JUMPDEST PUSH2 0x183E JUMP JUMPDEST PUSH2 0x1465 SWAP2 SWAP1 PUSH2 0x1CC8 JUMP JUMPDEST SWAP2 POP POP SWAP3 SWAP2 POP POP JUMP JUMPDEST PUSH1 0x6 PUSH1 0x0 SWAP1 SLOAD SWAP1 PUSH2 0x100 EXP SWAP1 DIV PUSH20 0xFFFFFFFFFFFFFFFFFFFFFFFFFFFFFFFFFFFFFFFF AND DUP2 JUMP JUMPDEST PUSH3 0x15180 DUP2 PUSH2 0x14A3 SWAP2 SWAP1 PUSH2 0x1CF9 JUMP JUMPDEST PUSH1 0xC DUP2 SWAP1 SSTORE POP POP JUMP JUMPDEST PUSH1 0x0 PUSH1 0x12 PUSH1 0x0 SWAP1 SLOAD SWAP1 PUSH2 0x100 EXP SWAP1 DIV PUSH20 0xFFFFFFFFFFFFFFFFFFFFFFFFFFFFFFFFFFFFFFFF AND PUSH20 0xFFFFFFFFFFFFFFFFFFFFFFFFFFFFFFFFFFFFFFFF AND PUSH4 0x70A08231 CALLER PUSH1 0x40 MLOAD DUP3 PUSH4 0xFFFFFFFF AND PUSH1 0xE0 SHL DUP2 MSTORE PUSH1 0x4 ADD PUSH2 0x1509 SWAP2 SWAP1 PUSH2 0x1AEC JUMP JUMPDEST PUSH1 0x20 PUSH1 0x40 MLOAD DUP1 DUP4 SUB DUP2 DUP7 DUP1 EXTCODESIZE ISZERO DUP1 ISZERO PUSH2 0x1521 JUMPI PUSH1 0x0 DUP1 REVERT JUMPDEST POP GAS STATICCALL ISZERO DUP1 ISZERO PUSH2 0x1535 JUMPI RETURNDATASIZE PUSH1 0x0 DUP1 RETURNDATACOPY RETURNDATASIZE PUSH1 0x0 REVERT JUMPDEST POP POP POP POP PUSH1 0x40 MLOAD RETURNDATASIZE PUSH1 0x1F NOT PUSH1 0x1F DUP3 ADD AND DUP3 ADD DUP1 PUSH1 0x40 MSTORE POP DUP2 ADD SWAP1 PUSH2 0x1559 SWAP2 SWAP1 PUSH2 0x19B7 JUMP JUMPDEST SWAP1 POP DUP2 DUP2 GT PUSH2 0x159D JUMPI PUSH1 0x40 MLOAD PUSH32 0x8C379A000000000000000000000000000000000000000000000000000000000 DUP2 MSTORE PUSH1 0x4 ADD PUSH2 0x1594 SWAP1 PUSH2 0x1BDD JUMP JUMPDEST PUSH1 0x40 MLOAD DUP1 SWAP2 SUB SWAP1 REVERT JUMPDEST PUSH1 0x13 PUSH1 0x0 SWAP1 SLOAD SWAP1 PUSH2 0x100 EXP SWAP1 DIV PUSH20 0xFFFFFFFFFFFFFFFFFFFFFFFFFFFFFFFFFFFFFFFF AND PUSH20 0xFFFFFFFFFFFFFFFFFFFFFFFFFFFFFFFFFFFFFFFF AND PUSH4 0xA9059CBB CALLER PUSH8 0xDE0B6B3A7640000 PUSH1 0x1 PUSH2 0x15F1 SWAP2 SWAP1 PUSH2 0x1CF9 JUMP JUMPDEST DUP6 PUSH2 0x15FC SWAP2 SWAP1 PUSH2 0x1C72 JUMP JUMPDEST PUSH1 0x40 MLOAD DUP4 PUSH4 0xFFFFFFFF AND PUSH1 0xE0 SHL DUP2 MSTORE PUSH1 0x4 ADD PUSH2 0x1619 SWAP3 SWAP2 SWAP1 PUSH2 0x1B3E JUMP JUMPDEST PUSH1 0x20 PUSH1 0x40 MLOAD DUP1 DUP4 SUB DUP2 PUSH1 0x0 DUP8 DUP1 EXTCODESIZE ISZERO DUP1 ISZERO PUSH2 0x1633 JUMPI PUSH1 0x0 DUP1 REVERT JUMPDEST POP GAS CALL ISZERO DUP1 ISZERO PUSH2 0x1647 JUMPI RETURNDATASIZE PUSH1 0x0 DUP1 RETURNDATACOPY RETURNDATASIZE PUSH1 0x0 REVERT JUMPDEST POP POP POP POP PUSH1 0x40 MLOAD RETURNDATASIZE PUSH1 0x1F NOT PUSH1 0x1F DUP3 ADD AND DUP3 ADD DUP1 PUSH1 0x40 MSTORE POP DUP2 ADD SWAP1 PUSH2 0x166B SWAP2 SWAP1 PUSH2 0x195D JUMP JUMPDEST POP PUSH2 0x169A PUSH1 0x12 PUSH1 0x0 SWAP1 SLOAD SWAP1 PUSH2 0x100 EXP SWAP1 DIV PUSH20 0xFFFFFFFFFFFFFFFFFFFFFFFFFFFFFFFFFFFFFFFF AND CALLER ADDRESS DUP6 PUSH2 0x16E9 JUMP JUMPDEST PUSH1 0x0 PUSH3 0x15180 PUSH1 0xB SLOAD TIMESTAMP PUSH2 0x16AE SWAP2 SWAP1 PUSH2 0x1D53 JUMP JUMPDEST PUSH2 0x16B8 SWAP2 SWAP1 PUSH2 0x1CC8 JUMP JUMPDEST SWAP1 POP DUP3 PUSH1 0x15 PUSH1 0x0 DUP4 DUP2 MSTORE PUSH1 0x20 ADD SWAP1 DUP2 MSTORE PUSH1 0x20 ADD PUSH1 0x0 KECCAK256 PUSH1 0x0 DUP3 DUP3 SLOAD PUSH2 0x16DD SWAP2 SWAP1 PUSH2 0x1C72 JUMP JUMPDEST SWAP3 POP POP DUP2 SWAP1 SSTORE POP POP POP POP JUMP JUMPDEST PUSH1 0x0 DUP5 PUSH20 0xFFFFFFFFFFFFFFFFFFFFFFFFFFFFFFFFFFFFFFFF AND PUSH4 0x23B872DD DUP6 DUP6 DUP6 PUSH1 0x40 MLOAD DUP5 PUSH4 0xFFFFFFFF AND PUSH1 0xE0 SHL DUP2 MSTORE PUSH1 0x4 ADD PUSH2 0x1728 SWAP4 SWAP3 SWAP2 SWAP1 PUSH2 0x1B07 JUMP JUMPDEST PUSH1 0x20 PUSH1 0x40 MLOAD DUP1 DUP4 SUB DUP2 PUSH1 0x0 DUP8 DUP1 EXTCODESIZE ISZERO DUP1 ISZERO PUSH2 0x1742 JUMPI PUSH1 0x0 DUP1 REVERT JUMPDEST POP GAS CALL ISZERO DUP1 ISZERO PUSH2 0x1756 JUMPI RETURNDATASIZE PUSH1 0x0 DUP1 RETURNDATACOPY RETURNDATASIZE PUSH1 0x0 REVERT JUMPDEST POP POP POP POP PUSH1 0x40 MLOAD RETURNDATASIZE PUSH1 0x1F NOT PUSH1 0x1F DUP3 ADD AND DUP3 ADD DUP1 PUSH1 0x40 MSTORE POP DUP2 ADD SWAP1 PUSH2 0x177A SWAP2 SWAP1 PUSH2 0x195D JUMP JUMPDEST SWAP1 POP DUP1 PUSH2 0x17BC JUMPI PUSH1 0x40 MLOAD PUSH32 0x8C379A000000000000000000000000000000000000000000000000000000000 DUP2 MSTORE PUSH1 0x4 ADD PUSH2 0x17B3 SWAP1 PUSH2 0x1BBD JUMP JUMPDEST PUSH1 0x40 MLOAD DUP1 SWAP2 SUB SWAP1 REVERT JUMPDEST POP POP POP POP POP JUMP JUMPDEST PUSH1 0x0 DUP1 DUP4 EQ ISZERO PUSH2 0x17D6 JUMPI PUSH1 0x0 SWAP1 POP PUSH2 0x1838 JUMP JUMPDEST PUSH1 0x0 DUP3 DUP5 PUSH2 0x17E4 SWAP2 SWAP1 PUSH2 0x1CF9 JUMP JUMPDEST SWAP1 POP DUP3 DUP5 DUP3 PUSH2 0x17F3 SWAP2 SWAP1 PUSH2 0x1CC8 JUMP JUMPDEST EQ PUSH2 0x1833 JUMPI PUSH1 0x40 MLOAD PUSH32 0x8C379A000000000000000000000000000000000000000000000000000000000 DUP2 MSTORE PUSH1 0x4 ADD PUSH2 0x182A SWAP1 PUSH2 0x1BFD JUMP JUMPDEST PUSH1 0x40 MLOAD DUP1 SWAP2 SUB SWAP1 REVERT JUMPDEST DUP1 SWAP2 POP POP JUMPDEST SWAP3 SWAP2 POP POP JUMP JUMPDEST PUSH1 0x0 DUP1 DUP3 DUP5 PUSH2 0x184D SWAP2 SWAP1 PUSH2 0x1C72 JUMP JUMPDEST SWAP1 POP DUP4 DUP2 LT ISZERO PUSH2 0x1892 JUMPI PUSH1 0x40 MLOAD PUSH32 0x8C379A000000000000000000000000000000000000000000000000000000000 DUP2 MSTORE PUSH1 0x4 ADD PUSH2 0x1889 SWAP1 PUSH2 0x1BFD JUMP JUMPDEST PUSH1 0x40 MLOAD DUP1 SWAP2 SUB SWAP1 REVERT JUMPDEST DUP1 SWAP2 POP POP SWAP3 SWAP2 POP POP JUMP JUMPDEST PUSH1 0x0 DUP2 CALLDATALOAD SWAP1 POP PUSH2 0x18AB DUP2 PUSH2 0x1FAE JUMP JUMPDEST SWAP3 SWAP2 POP POP JUMP JUMPDEST PUSH1 0x0 DUP2 MLOAD SWAP1 POP PUSH2 0x18C0 DUP2 PUSH2 0x1FC5 JUMP JUMPDEST SWAP3 SWAP2 POP POP JUMP JUMPDEST PUSH1 0x0 DUP2 CALLDATALOAD SWAP1 POP PUSH2 0x18D5 DUP2 PUSH2 0x1FDC JUMP JUMPDEST SWAP3 SWAP2 POP POP JUMP JUMPDEST PUSH1 0x0 DUP2 MLOAD SWAP1 POP PUSH2 0x18EA DUP2 PUSH2 0x1FDC JUMP JUMPDEST SWAP3 SWAP2 POP POP JUMP JUMPDEST PUSH1 0x0 PUSH1 0x20 DUP3 DUP5 SUB SLT ISZERO PUSH2 0x1906 JUMPI PUSH2 0x1905 PUSH2 0x1EB9 JUMP JUMPDEST JUMPDEST PUSH1 0x0 PUSH2 0x1914 DUP5 DUP3 DUP6 ADD PUSH2 0x189C JUMP JUMPDEST SWAP2 POP POP SWAP3 SWAP2 POP POP JUMP JUMPDEST PUSH1 0x0 DUP1 PUSH1 0x40 DUP4 DUP6 SUB SLT ISZERO PUSH2 0x1934 JUMPI PUSH2 0x1933 PUSH2 0x1EB9 JUMP JUMPDEST JUMPDEST PUSH1 0x0 PUSH2 0x1942 DUP6 DUP3 DUP7 ADD PUSH2 0x189C JUMP JUMPDEST SWAP3 POP POP PUSH1 0x20 PUSH2 0x1953 DUP6 DUP3 DUP7 ADD PUSH2 0x189C JUMP JUMPDEST SWAP2 POP POP SWAP3 POP SWAP3 SWAP1 POP JUMP JUMPDEST PUSH1 0x0 PUSH1 0x20 DUP3 DUP5 SUB SLT ISZERO PUSH2 0x1973 JUMPI PUSH2 0x1972 PUSH2 0x1EB9 JUMP JUMPDEST JUMPDEST PUSH1 0x0 PUSH2 0x1981 DUP5 DUP3 DUP6 ADD PUSH2 0x18B1 JUMP JUMPDEST SWAP2 POP POP SWAP3 SWAP2 POP POP JUMP JUMPDEST PUSH1 0x0 PUSH1 0x20 DUP3 DUP5 SUB SLT ISZERO PUSH2 0x19A0 JUMPI PUSH2 0x199F PUSH2 0x1EB9 JUMP JUMPDEST JUMPDEST PUSH1 0x0 PUSH2 0x19AE DUP5 DUP3 DUP6 ADD PUSH2 0x18C6 JUMP JUMPDEST SWAP2 POP POP SWAP3 SWAP2 POP POP JUMP JUMPDEST PUSH1 0x0 PUSH1 0x20 DUP3 DUP5 SUB SLT ISZERO PUSH2 0x19CD JUMPI PUSH2 0x19CC PUSH2 0x1EB9 JUMP JUMPDEST JUMPDEST PUSH1 0x0 PUSH2 0x19DB DUP5 DUP3 DUP6 ADD PUSH2 0x18DB JUMP JUMPDEST SWAP2 POP POP SWAP3 SWAP2 POP POP JUMP JUMPDEST PUSH1 0x0 DUP1 PUSH1 0x40 DUP4 DUP6 SUB SLT ISZERO PUSH2 0x19FB JUMPI PUSH2 0x19FA PUSH2 0x1EB9 JUMP JUMPDEST JUMPDEST PUSH1 0x0 PUSH2 0x1A09 DUP6 DUP3 DUP7 ADD PUSH2 0x18C6 JUMP JUMPDEST SWAP3 POP POP PUSH1 0x20 PUSH2 0x1A1A DUP6 DUP3 DUP7 ADD PUSH2 0x18C6 JUMP JUMPDEST SWAP2 POP POP SWAP3 POP SWAP3 SWAP1 POP JUMP JUMPDEST PUSH2 0x1A2D DUP2 PUSH2 0x1D87 JUMP JUMPDEST DUP3 MSTORE POP POP JUMP JUMPDEST PUSH2 0x1A3C DUP2 PUSH2 0x1DDC JUMP JUMPDEST DUP3 MSTORE POP POP JUMP JUMPDEST PUSH2 0x1A4B DUP2 PUSH2 0x1DA5 JUMP JUMPDEST DUP3 MSTORE POP POP JUMP JUMPDEST PUSH1 0x0 PUSH2 0x1A5E PUSH1 0x24 DUP4 PUSH2 0x1C61 JUMP JUMPDEST SWAP2 POP PUSH2 0x1A69 DUP3 PUSH2 0x1EBE JUMP JUMPDEST PUSH1 0x40 DUP3 ADD SWAP1 POP SWAP2 SWAP1 POP JUMP JUMPDEST PUSH1 0x0 PUSH2 0x1A81 PUSH1 0x15 DUP4 PUSH2 0x1C61 JUMP JUMPDEST SWAP2 POP PUSH2 0x1A8C DUP3 PUSH2 0x1F0D JUMP JUMPDEST PUSH1 0x20 DUP3 ADD SWAP1 POP SWAP2 SWAP1 POP JUMP JUMPDEST PUSH1 0x0 PUSH2 0x1AA4 PUSH1 0x1A DUP4 PUSH2 0x1C61 JUMP JUMPDEST SWAP2 POP PUSH2 0x1AAF DUP3 PUSH2 0x1F36 JUMP JUMPDEST PUSH1 0x20 DUP3 ADD SWAP1 POP SWAP2 SWAP1 POP JUMP JUMPDEST PUSH1 0x0 PUSH2 0x1AC7 PUSH1 0x21 DUP4 PUSH2 0x1C61 JUMP JUMPDEST SWAP2 POP PUSH2 0x1AD2 DUP3 PUSH2 0x1F5F JUMP JUMPDEST PUSH1 0x40 DUP3 ADD SWAP1 POP SWAP2 SWAP1 POP JUMP JUMPDEST PUSH2 0x1AE6 DUP2 PUSH2 0x1DD2 JUMP JUMPDEST DUP3 MSTORE POP POP JUMP JUMPDEST PUSH1 0x0 PUSH1 0x20 DUP3 ADD SWAP1 POP PUSH2 0x1B01 PUSH1 0x0 DUP4 ADD DUP5 PUSH2 0x1A24 JUMP JUMPDEST SWAP3 SWAP2 POP POP JUMP JUMPDEST PUSH1 0x0 PUSH1 0x60 DUP3 ADD SWAP1 POP PUSH2 0x1B1C PUSH1 0x0 DUP4 ADD DUP7 PUSH2 0x1A24 JUMP JUMPDEST PUSH2 0x1B29 PUSH1 0x20 DUP4 ADD DUP6 PUSH2 0x1A24 JUMP JUMPDEST PUSH2 0x1B36 PUSH1 0x40 DUP4 ADD DUP5 PUSH2 0x1ADD JUMP JUMPDEST SWAP5 SWAP4 POP POP POP POP JUMP JUMPDEST PUSH1 0x0 PUSH1 0x40 DUP3 ADD SWAP1 POP PUSH2 0x1B53 PUSH1 0x0 DUP4 ADD DUP6 PUSH2 0x1A24 JUMP JUMPDEST PUSH2 0x1B60 PUSH1 0x20 DUP4 ADD DUP5 PUSH2 0x1ADD JUMP JUMPDEST SWAP4 SWAP3 POP POP POP JUMP JUMPDEST PUSH1 0x0 PUSH1 0x20 DUP3 ADD SWAP1 POP PUSH2 0x1B7C PUSH1 0x0 DUP4 ADD DUP5 PUSH2 0x1A33 JUMP JUMPDEST SWAP3 SWAP2 POP POP JUMP JUMPDEST PUSH1 0x0 PUSH1 0x20 DUP3 ADD SWAP1 POP PUSH2 0x1B97 PUSH1 0x0 DUP4 ADD DUP5 PUSH2 0x1A42 JUMP JUMPDEST SWAP3 SWAP2 POP POP JUMP JUMPDEST PUSH1 0x0 PUSH1 0x20 DUP3 ADD SWAP1 POP DUP2 DUP2 SUB PUSH1 0x0 DUP4 ADD MSTORE PUSH2 0x1BB6 DUP2 PUSH2 0x1A51 JUMP JUMPDEST SWAP1 POP SWAP2 SWAP1 POP JUMP JUMPDEST PUSH1 0x0 PUSH1 0x20 DUP3 ADD SWAP1 POP DUP2 DUP2 SUB PUSH1 0x0 DUP4 ADD MSTORE PUSH2 0x1BD6 DUP2 PUSH2 0x1A74 JUMP JUMPDEST SWAP1 POP SWAP2 SWAP1 POP JUMP JUMPDEST PUSH1 0x0 PUSH1 0x20 DUP3 ADD SWAP1 POP DUP2 DUP2 SUB PUSH1 0x0 DUP4 ADD MSTORE PUSH2 0x1BF6 DUP2 PUSH2 0x1A97 JUMP JUMPDEST SWAP1 POP SWAP2 SWAP1 POP JUMP JUMPDEST PUSH1 0x0 PUSH1 0x20 DUP3 ADD SWAP1 POP DUP2 DUP2 SUB PUSH1 0x0 DUP4 ADD MSTORE PUSH2 0x1C16 DUP2 PUSH2 0x1ABA JUMP JUMPDEST SWAP1 POP SWAP2 SWAP1 POP JUMP JUMPDEST PUSH1 0x0 PUSH1 0x20 DUP3 ADD SWAP1 POP PUSH2 0x1C32 PUSH1 0x0 DUP4 ADD DUP5 PUSH2 0x1ADD JUMP JUMPDEST SWAP3 SWAP2 POP POP JUMP JUMPDEST PUSH1 0x0 PUSH1 0x40 DUP3 ADD SWAP1 POP PUSH2 0x1C4D PUSH1 0x0 DUP4 ADD DUP6 PUSH2 0x1ADD JUMP JUMPDEST PUSH2 0x1C5A PUSH1 0x20 DUP4 ADD DUP5 PUSH2 0x1ADD JUMP JUMPDEST SWAP4 SWAP3 POP POP POP JUMP JUMPDEST PUSH1 0x0 DUP3 DUP3 MSTORE PUSH1 0x20 DUP3 ADD SWAP1 POP SWAP3 SWAP2 POP POP JUMP JUMPDEST PUSH1 0x0 PUSH2 0x1C7D DUP3 PUSH2 0x1DD2 JUMP JUMPDEST SWAP2 POP PUSH2 0x1C88 DUP4 PUSH2 0x1DD2 JUMP JUMPDEST SWAP3 POP DUP3 PUSH32 0xFFFFFFFFFFFFFFFFFFFFFFFFFFFFFFFFFFFFFFFFFFFFFFFFFFFFFFFFFFFFFFFF SUB DUP3 GT ISZERO PUSH2 0x1CBD JUMPI PUSH2 0x1CBC PUSH2 0x1E5B JUMP JUMPDEST JUMPDEST DUP3 DUP3 ADD SWAP1 POP SWAP3 SWAP2 POP POP JUMP JUMPDEST PUSH1 0x0 PUSH2 0x1CD3 DUP3 PUSH2 0x1DD2 JUMP JUMPDEST SWAP2 POP PUSH2 0x1CDE DUP4 PUSH2 0x1DD2 JUMP JUMPDEST SWAP3 POP DUP3 PUSH2 0x1CEE JUMPI PUSH2 0x1CED PUSH2 0x1E8A JUMP JUMPDEST JUMPDEST DUP3 DUP3 DIV SWAP1 POP SWAP3 SWAP2 POP POP JUMP JUMPDEST PUSH1 0x0 PUSH2 0x1D04 DUP3 PUSH2 0x1DD2 JUMP JUMPDEST SWAP2 POP PUSH2 0x1D0F DUP4 PUSH2 0x1DD2 JUMP JUMPDEST SWAP3 POP DUP2 PUSH32 0xFFFFFFFFFFFFFFFFFFFFFFFFFFFFFFFFFFFFFFFFFFFFFFFFFFFFFFFFFFFFFFFF DIV DUP4 GT DUP3 ISZERO ISZERO AND ISZERO PUSH2 0x1D48 JUMPI PUSH2 0x1D47 PUSH2 0x1E5B JUMP JUMPDEST JUMPDEST DUP3 DUP3 MUL SWAP1 POP SWAP3 SWAP2 POP POP JUMP JUMPDEST PUSH1 0x0 PUSH2 0x1D5E DUP3 PUSH2 0x1DD2 JUMP JUMPDEST SWAP2 POP PUSH2 0x1D69 DUP4 PUSH2 0x1DD2 JUMP JUMPDEST SWAP3 POP DUP3 DUP3 LT ISZERO PUSH2 0x1D7C JUMPI PUSH2 0x1D7B PUSH2 0x1E5B JUMP JUMPDEST JUMPDEST DUP3 DUP3 SUB SWAP1 POP SWAP3 SWAP2 POP POP JUMP JUMPDEST PUSH1 0x0 PUSH2 0x1D92 DUP3 PUSH2 0x1DB2 JUMP JUMPDEST SWAP1 POP SWAP2 SWAP1 POP JUMP JUMPDEST PUSH1 0x0 DUP2 ISZERO ISZERO SWAP1 POP SWAP2 SWAP1 POP JUMP JUMPDEST PUSH1 0x0 DUP2 PUSH1 0xF SIGNEXTEND SWAP1 POP SWAP2 SWAP1 POP JUMP JUMPDEST PUSH1 0x0 PUSH20 0xFFFFFFFFFFFFFFFFFFFFFFFFFFFFFFFFFFFFFFFF DUP3 AND SWAP1 POP SWAP2 SWAP1 POP JUMP JUMPDEST PUSH1 0x0 DUP2 SWAP1 POP SWAP2 SWAP1 POP JUMP JUMPDEST PUSH1 0x0 PUSH2 0x1DE7 DUP3 PUSH2 0x1DEE JUMP JUMPDEST SWAP1 POP SWAP2 SWAP1 POP JUMP JUMPDEST PUSH1 0x0 PUSH2 0x1DF9 DUP3 PUSH2 0x1E00 JUMP JUMPDEST SWAP1 POP SWAP2 SWAP1 POP JUMP JUMPDEST PUSH1 0x0 PUSH2 0x1E0B DUP3 PUSH2 0x1DB2 JUMP JUMPDEST SWAP1 POP SWAP2 SWAP1 POP JUMP JUMPDEST PUSH1 0x0 PUSH2 0x1E1D DUP3 PUSH2 0x1DD2 JUMP JUMPDEST SWAP2 POP PUSH32 0xFFFFFFFFFFFFFFFFFFFFFFFFFFFFFFFFFFFFFFFFFFFFFFFFFFFFFFFFFFFFFFFF DUP3 EQ ISZERO PUSH2 0x1E50 JUMPI PUSH2 0x1E4F PUSH2 0x1E5B JUMP JUMPDEST JUMPDEST PUSH1 0x1 DUP3 ADD SWAP1 POP SWAP2 SWAP1 POP JUMP JUMPDEST PUSH32 0x4E487B7100000000000000000000000000000000000000000000000000000000 PUSH1 0x0 MSTORE PUSH1 0x11 PUSH1 0x4 MSTORE PUSH1 0x24 PUSH1 0x0 REVERT JUMPDEST PUSH32 0x4E487B7100000000000000000000000000000000000000000000000000000000 PUSH1 0x0 MSTORE PUSH1 0x12 PUSH1 0x4 MSTORE PUSH1 0x24 PUSH1 0x0 REVERT JUMPDEST PUSH1 0x0 DUP1 REVERT JUMPDEST PUSH32 0x596F7520646F6E7420686176652074686174206D75636820746F207769746864 PUSH1 0x0 DUP3 ADD MSTORE PUSH32 0x7261772100000000000000000000000000000000000000000000000000000000 PUSH1 0x20 DUP3 ADD MSTORE POP JUMP JUMPDEST PUSH32 0x546F6B656E207472616E73666572206661696C65640000000000000000000000 PUSH1 0x0 DUP3 ADD MSTORE POP JUMP JUMPDEST PUSH32 0x596F7520646F6E742068617665207468617420616D6F756E7421000000000000 PUSH1 0x0 DUP3 ADD MSTORE POP JUMP JUMPDEST PUSH32 0x75696E74206F766572666C6F772066726F6D206D756C7469706C69636174696F PUSH1 0x0 DUP3 ADD MSTORE PUSH32 0x6E00000000000000000000000000000000000000000000000000000000000000 PUSH1 0x20 DUP3 ADD MSTORE POP JUMP JUMPDEST PUSH2 0x1FB7 DUP2 PUSH2 0x1D87 JUMP JUMPDEST DUP2 EQ PUSH2 0x1FC2 JUMPI PUSH1 0x0 DUP1 REVERT JUMPDEST POP JUMP JUMPDEST PUSH2 0x1FCE DUP2 PUSH2 0x1D99 JUMP JUMPDEST DUP2 EQ PUSH2 0x1FD9 JUMPI PUSH1 0x0 DUP1 REVERT JUMPDEST POP JUMP JUMPDEST PUSH2 0x1FE5 DUP2 PUSH2 0x1DD2 JUMP JUMPDEST DUP2 EQ PUSH2 0x1FF0 JUMPI PUSH1 0x0 DUP1 REVERT JUMPDEST POP JUMP INVALID LOG2 PUSH5 0x6970667358 0x22 SLT KECCAK256 SWAP4 0xCB 0x4E SWAP10 PUSH4 0x5B163A32 CALLDATASIZE 0xA7 CALLER PUSH15 0x1A4B978A56E2B73BB528672DE56F SWAP3 0x27 BLOCKHASH 0xDE PUSH5 0x736F6C6343 STOP ADDMOD SMOD STOP CALLER "
				},
				"gasEstimates": {
					"creation": {
						"codeDepositCost": "1646600",
						"executionCost": "infinite",
						"totalCost": "infinite"
					},
					"external": {
						"buyScepter(uint256)": "infinite",
						"cashOutScepter(uint256)": "infinite",
						"daysInCalculation()": "2475",
						"decDiv18(uint256,uint256)": "infinite",
						"decMul18(uint256,uint256)": "infinite",
						"devWalletAddr()": "2560",
						"getBackingPrice()": "infinite",
						"getBuyPrice()": "infinite",
						"getGrowthFactor()": "infinite",
						"getSellFactor()": "infinite",
						"getSellPrice()": "infinite",
						"getTokensBoughtXDays()": "infinite",
						"getTokensSoldXDays()": "infinite",
						"growthFactor()": "2540",
						"mockUSDC()": "2667",
						"queryERC20Balance(address,address)": "infinite",
						"res()": "2587",
						"riskTreasuryAddr()": "2583",
						"scepterTreasuryAddr()": "2603",
						"sellFactor()": "2540",
						"setDaysUsedInFactors(uint256)": "infinite",
						"tSC()": "2690",
						"testMappings(uint256,uint256)": "infinite",
						"testUpdatetimeLockedminus(uint256)": "infinite",
						"testUpdatetimeLockedplus(uint256)": "infinite",
						"testwallet()": "2558",
						"timeLaunched()": "2541",
						"tokensBoughtXDays(uint256)": "infinite",
						"tokensSoldXDays(uint256)": "infinite",
						"transformScepterToBaton(uint256)": "infinite",
						"treasury1Addr()": "2602",
						"treasury1bal()": "2519",
						"withheldWithdrawals(address)": "infinite"
					},
					"internal": {
						"_safeTransferFrom(contract IERC20,address,address,uint256)": "infinite",
						"add(uint256,uint256)": "infinite",
						"div(uint256,uint256)": "infinite",
						"mintBaton(uint256)": "infinite",
						"mul(uint256,uint256)": "infinite",
						"sub(uint256,uint256)": "infinite"
					}
				},
				"methodIdentifiers": {
					"buyScepter(uint256)": "65819f7e",
					"cashOutScepter(uint256)": "ff357f5b",
					"daysInCalculation()": "67b48c91",
					"decDiv18(uint256,uint256)": "64ce07d8",
					"decMul18(uint256,uint256)": "f7523c52",
					"devWalletAddr()": "29982a32",
					"getBackingPrice()": "1f564a06",
					"getBuyPrice()": "018a25e8",
					"getGrowthFactor()": "93f7b711",
					"getSellFactor()": "0ccaf04f",
					"getSellPrice()": "43d32e9c",
					"getTokensBoughtXDays()": "71cd58f9",
					"getTokensSoldXDays()": "d82eddf2",
					"growthFactor()": "ee620868",
					"mockUSDC()": "ee467678",
					"queryERC20Balance(address,address)": "ee546a51",
					"res()": "6f10e285",
					"riskTreasuryAddr()": "047729b0",
					"scepterTreasuryAddr()": "c079d7f6",
					"sellFactor()": "cbff4617",
					"setDaysUsedInFactors(uint256)": "fc361443",
					"tSC()": "6e05c1b9",
					"testMappings(uint256,uint256)": "46bfe626",
					"testUpdatetimeLockedminus(uint256)": "164c8501",
					"testUpdatetimeLockedplus(uint256)": "67e927a8",
					"testwallet()": "eee05f5e",
					"timeLaunched()": "3c6eb17a",
					"tokensBoughtXDays(uint256)": "2a9f0fb1",
					"tokensSoldXDays(uint256)": "1514c976",
					"transformScepterToBaton(uint256)": "1bc9cc45",
					"treasury1Addr()": "fbbb4589",
					"treasury1bal()": "35453307",
					"withheldWithdrawals(address)": "12b2ed94"
				}
			},
			"userdoc": {
				"kind": "user",
				"methods": {},
				"version": 1
			}
		}
	}
}