{
	"WandInstruments.sol": {
		"testSticks": {
			"abi": [
				{
					"inputs": [
						{
							"internalType": "address",
							"name": "scepterAddr",
							"type": "address"
						},
						{
							"internalType": "address",
							"name": "batonAddr",
							"type": "address"
						}
					],
					"stateMutability": "nonpayable",
					"type": "constructor"
				},
				{
					"inputs": [
						{
							"internalType": "uint256",
							"name": "amountSCPtoBuy",
							"type": "uint256"
						}
					],
					"name": "buyScepter",
					"outputs": [],
					"stateMutability": "payable",
					"type": "function"
				},
				{
					"inputs": [],
					"name": "daysInCalculation",
					"outputs": [
						{
							"internalType": "uint256",
							"name": "",
							"type": "uint256"
						}
					],
					"stateMutability": "view",
					"type": "function"
				},
				{
					"inputs": [
						{
							"internalType": "uint256",
							"name": "x",
							"type": "uint256"
						},
						{
							"internalType": "uint256",
							"name": "y",
							"type": "uint256"
						}
					],
					"name": "decDiv18",
					"outputs": [
						{
							"internalType": "uint256",
							"name": "decQuotient",
							"type": "uint256"
						}
					],
					"stateMutability": "pure",
					"type": "function"
				},
				{
					"inputs": [
						{
							"internalType": "uint256",
							"name": "x",
							"type": "uint256"
						},
						{
							"internalType": "uint256",
							"name": "y",
							"type": "uint256"
						}
					],
					"name": "decMul18",
					"outputs": [
						{
							"internalType": "uint256",
							"name": "decProd",
							"type": "uint256"
						}
					],
					"stateMutability": "pure",
					"type": "function"
				},
				{
					"inputs": [],
					"name": "getBackingPrice",
					"outputs": [
						{
							"internalType": "uint256",
							"name": "",
							"type": "uint256"
						}
					],
					"stateMutability": "view",
					"type": "function"
				},
				{
					"inputs": [],
					"name": "getBuyPrice",
					"outputs": [
						{
							"internalType": "uint256",
							"name": "",
							"type": "uint256"
						}
					],
					"stateMutability": "view",
					"type": "function"
				},
				{
					"inputs": [],
					"name": "getSellPrice",
					"outputs": [
						{
							"internalType": "uint256",
							"name": "",
							"type": "uint256"
						}
					],
					"stateMutability": "view",
					"type": "function"
				},
				{
					"inputs": [],
					"name": "growthFactor",
					"outputs": [
						{
							"internalType": "uint256",
							"name": "",
							"type": "uint256"
						}
					],
					"stateMutability": "view",
					"type": "function"
				},
				{
					"inputs": [
						{
							"internalType": "uint256",
							"name": "amount",
							"type": "uint256"
						}
					],
					"name": "mintBaton",
					"outputs": [],
					"stateMutability": "nonpayable",
					"type": "function"
				},
				{
					"inputs": [],
					"name": "mockUSDC",
					"outputs": [
						{
							"internalType": "contract IERC20",
							"name": "",
							"type": "address"
						}
					],
					"stateMutability": "view",
					"type": "function"
				},
				{
					"inputs": [
						{
							"internalType": "address",
							"name": "_tokenAddress",
							"type": "address"
						},
						{
							"internalType": "address",
							"name": "_addressToQuery",
							"type": "address"
						}
					],
					"name": "queryERC20Balance",
					"outputs": [
						{
							"internalType": "uint256",
							"name": "",
							"type": "uint256"
						}
					],
					"stateMutability": "view",
					"type": "function"
				},
				{
					"inputs": [],
					"name": "res",
					"outputs": [
						{
							"internalType": "int128",
							"name": "",
							"type": "int128"
						}
					],
					"stateMutability": "view",
					"type": "function"
				},
				{
					"inputs": [],
					"name": "riskTreasuryAddr",
					"outputs": [
						{
							"internalType": "address",
							"name": "",
							"type": "address"
						}
					],
					"stateMutability": "view",
					"type": "function"
				},
				{
					"inputs": [],
					"name": "scepterTreasuryAddr",
					"outputs": [
						{
							"internalType": "address",
							"name": "",
							"type": "address"
						}
					],
					"stateMutability": "view",
					"type": "function"
				},
				{
					"inputs": [],
					"name": "sellFactor",
					"outputs": [
						{
							"internalType": "uint256",
							"name": "",
							"type": "uint256"
						}
					],
					"stateMutability": "view",
					"type": "function"
				},
				{
					"inputs": [
						{
							"internalType": "uint256",
							"name": "amountSCPtoSell",
							"type": "uint256"
						}
					],
					"name": "sellScepter",
					"outputs": [],
					"stateMutability": "payable",
					"type": "function"
				},
				{
					"inputs": [
						{
							"internalType": "uint256",
							"name": "numDays",
							"type": "uint256"
						}
					],
					"name": "setDaysUsedInFactors",
					"outputs": [],
					"stateMutability": "nonpayable",
					"type": "function"
				},
				{
					"inputs": [],
					"name": "tSC",
					"outputs": [
						{
							"internalType": "contract IERC20",
							"name": "",
							"type": "address"
						}
					],
					"stateMutability": "view",
					"type": "function"
				},
				{
					"inputs": [],
					"name": "testwallet",
					"outputs": [
						{
							"internalType": "address",
							"name": "",
							"type": "address"
						}
					],
					"stateMutability": "view",
					"type": "function"
				},
				{
					"inputs": [],
					"name": "treasury1Addr",
					"outputs": [
						{
							"internalType": "address",
							"name": "",
							"type": "address"
						}
					],
					"stateMutability": "view",
					"type": "function"
				},
				{
					"inputs": [],
					"name": "treasury1bal",
					"outputs": [
						{
							"internalType": "uint256",
							"name": "",
							"type": "uint256"
						}
					],
					"stateMutability": "view",
					"type": "function"
				}
			],
			"devdoc": {
				"kind": "dev",
				"methods": {},
				"version": 1
			},
			"evm": {
				"assembly": "    /* \"WandInstruments.sol\":96:6314  contract testSticks {\r... */\n  mstore(0x40, 0x80)\n    /* \"WandInstruments.sol\":283:289  10**18 */\n  0x0de0b6b3a7640000\n    /* \"WandInstruments.sol\":726:732  500000 */\n  0x07a120\n    /* \"WandInstruments.sol\":726:743  500000*(DECIMALS) */\n  tag_1\n  swap2\n  swap1\n  tag_2\n  jump\t// in\ntag_1:\n    /* \"WandInstruments.sol\":696:743  uint256 public treasury1bal = 500000*(DECIMALS) */\n  0x09\n  sstore\n    /* \"WandInstruments.sol\":894:900  100000 */\n  0x0186a0\n    /* \"WandInstruments.sol\":863:900  uint256 private ft5daybought = 100000 */\n  0x0c\n  sstore\n    /* \"WandInstruments.sol\":936:941  90000 */\n  0x015f90\n    /* \"WandInstruments.sol\":907:941  uint256 private ft5daysold = 90000 */\n  0x0d\n  sstore\n    /* \"WandInstruments.sol\":983:989  600000 */\n  0x0927c0\n    /* \"WandInstruments.sol\":948:989  uint256 private double5daytokens = 600000 */\n  0x0e\n  sstore\n    /* \"WandInstruments.sol\":1110:1152  0x617F2E2fD72FD9D5503197092aC168c91465E7f2 */\n  0x617f2e2fd72fd9d5503197092ac168c91465e7f2\n    /* \"WandInstruments.sol\":1082:1152  address public testwallet = 0x617F2E2fD72FD9D5503197092aC168c91465E7f2 */\n  0x10\n  exp(0x0100, 0x00)\n  dup2\n  sload\n  dup2\n  0xffffffffffffffffffffffffffffffffffffffff\n  mul\n  not\n  and\n  swap1\n  dup4\n  0xffffffffffffffffffffffffffffffffffffffff\n  and\n  mul\n  or\n  swap1\n  sstore\n  pop\n    /* \"WandInstruments.sol\":1407:2026  constructor(address scepterAddr, address batonAddr) {   \r... */\n  callvalue\n  dup1\n  iszero\n  tag_3\n  jumpi\n  0x00\n  dup1\n  revert\ntag_3:\n  pop\n  mload(0x40)\n  sub(codesize, bytecodeSize)\n  dup1\n  bytecodeSize\n  dup4\n  codecopy\n  dup2\n  dup2\n  add\n  0x40\n  mstore\n  dup2\n  add\n  swap1\n  tag_4\n  swap2\n  swap1\n  tag_5\n  jump\t// in\ntag_4:\n    /* \"WandInstruments.sol\":1577:1586  batonAddr */\n  dup1\n    /* \"WandInstruments.sol\":1565:1568  btn */\n  0x13\n  0x00\n    /* \"WandInstruments.sol\":1565:1587  btn = Baton(batonAddr) */\n  0x0100\n  exp\n  dup2\n  sload\n  dup2\n  0xffffffffffffffffffffffffffffffffffffffff\n  mul\n  not\n  and\n  swap1\n  dup4\n  0xffffffffffffffffffffffffffffffffffffffff\n  and\n  mul\n  or\n  swap1\n  sstore\n  pop\n    /* \"WandInstruments.sol\":1611:1622  scepterAddr */\n  dup2\n    /* \"WandInstruments.sol\":1598:1601  tSC */\n  0x11\n  0x00\n    /* \"WandInstruments.sol\":1598:1623  tSC = IERC20(scepterAddr) */\n  0x0100\n  exp\n  dup2\n  sload\n  dup2\n  0xffffffffffffffffffffffffffffffffffffffff\n  mul\n  not\n  and\n  swap1\n  dup4\n  0xffffffffffffffffffffffffffffffffffffffff\n  and\n  mul\n  or\n  swap1\n  sstore\n  pop\n    /* \"WandInstruments.sol\":1654:1696  0xD7ACd2a9FD159E69Bb102A1ca21C9a3e3A5F771B */\n  0xd7acd2a9fd159e69bb102a1ca21c9a3e3a5f771b\n    /* \"WandInstruments.sol\":1636:1644  mockUSDC */\n  0x12\n  0x00\n    /* \"WandInstruments.sol\":1636:1697  mockUSDC = IERC20(0xD7ACd2a9FD159E69Bb102A1ca21C9a3e3A5F771B) */\n  0x0100\n  exp\n  dup2\n  sload\n  dup2\n  0xffffffffffffffffffffffffffffffffffffffff\n  mul\n  not\n  and\n  swap1\n  dup4\n  0xffffffffffffffffffffffffffffffffffffffff\n  and\n  mul\n  or\n  swap1\n  sstore\n  pop\n    /* \"WandInstruments.sol\":1724:1766  0x617F2E2fD72FD9D5503197092aC168c91465E7f2 */\n  0x617f2e2fd72fd9d5503197092ac168c91465e7f2\n    /* \"WandInstruments.sol\":1708:1721  treasury1Addr */\n  0x06\n  0x00\n    /* \"WandInstruments.sol\":1708:1766  treasury1Addr = 0x617F2E2fD72FD9D5503197092aC168c91465E7f2 */\n  0x0100\n  exp\n  dup2\n  sload\n  dup2\n  0xffffffffffffffffffffffffffffffffffffffff\n  mul\n  not\n  and\n  swap1\n  dup4\n  0xffffffffffffffffffffffffffffffffffffffff\n  and\n  mul\n  or\n  swap1\n  sstore\n  pop\n    /* \"WandInstruments.sol\":1837:1876  decDiv18(ft5daybought,double5daytokens) */\n  tag_8\n    /* \"WandInstruments.sol\":1846:1858  ft5daybought */\n  sload(0x0c)\n    /* \"WandInstruments.sol\":1859:1875  double5daytokens */\n  sload(0x0e)\n    /* \"WandInstruments.sol\":1837:1845  decDiv18 */\n  shl(0x20, tag_9)\n    /* \"WandInstruments.sol\":1837:1876  decDiv18(ft5daybought,double5daytokens) */\n  0x20\n  shr\n  jump\t// in\ntag_8:\n    /* \"WandInstruments.sol\":1824:1836  growthFactor */\n  0x00\n    /* \"WandInstruments.sol\":1824:1876  growthFactor=decDiv18(ft5daybought,double5daytokens) */\n  dup2\n  swap1\n  sstore\n  pop\n    /* \"WandInstruments.sol\":1898:1935  decDiv18(ft5daysold,double5daytokens) */\n  tag_10\n    /* \"WandInstruments.sol\":1907:1917  ft5daysold */\n  sload(0x0d)\n    /* \"WandInstruments.sol\":1918:1934  double5daytokens */\n  sload(0x0e)\n    /* \"WandInstruments.sol\":1898:1906  decDiv18 */\n  shl(0x20, tag_9)\n    /* \"WandInstruments.sol\":1898:1935  decDiv18(ft5daysold,double5daytokens) */\n  0x20\n  shr\n  jump\t// in\ntag_10:\n    /* \"WandInstruments.sol\":1887:1897  sellFactor */\n  0x01\n    /* \"WandInstruments.sol\":1887:1935  sellFactor=decDiv18(ft5daysold,double5daytokens) */\n  dup2\n  swap1\n  sstore\n  pop\n    /* \"WandInstruments.sol\":1960:1975  block.timestamp */\n  timestamp\n    /* \"WandInstruments.sol\":1946:1958  timeLaunched */\n  0x0a\n    /* \"WandInstruments.sol\":1946:1975  timeLaunched =block.timestamp */\n  dup2\n  swap1\n  sstore\n  pop\n    /* \"WandInstruments.sol\":2006:2012  5 days */\n  0x069780\n    /* \"WandInstruments.sol\":1986:2003  daysInCalculation */\n  0x0b\n    /* \"WandInstruments.sol\":1986:2012  daysInCalculation = 5 days */\n  dup2\n  swap1\n  sstore\n  pop\n    /* \"WandInstruments.sol\":1407:2026  constructor(address scepterAddr, address batonAddr) {   \r... */\n  pop\n  pop\n    /* \"WandInstruments.sol\":96:6314  contract testSticks {\r... */\n  jump(tag_11)\n    /* \"WandInstruments.sol\":2985:3164  function decDiv18(uint x, uint y) public pure returns (uint decQuotient) {\r... */\ntag_9:\n    /* \"WandInstruments.sol\":3040:3056  uint decQuotient */\n  0x00\n    /* \"WandInstruments.sol\":3069:3085  uint prod_xTEN18 */\n  dup1\n    /* \"WandInstruments.sol\":3088:3104  mul(x, DECIMALS) */\n  tag_13\n    /* \"WandInstruments.sol\":3092:3093  x */\n  dup5\n    /* \"WandInstruments.sol\":283:289  10**18 */\n  0x0de0b6b3a7640000\n    /* \"WandInstruments.sol\":3088:3091  mul */\n  shl(0x20, tag_14)\n    /* \"WandInstruments.sol\":3088:3104  mul(x, DECIMALS) */\n  0x20\n  shr\n  jump\t// in\ntag_13:\n    /* \"WandInstruments.sol\":3069:3104  uint prod_xTEN18 = mul(x, DECIMALS) */\n  swap1\n  pop\n    /* \"WandInstruments.sol\":3155:3156  y */\n  dup3\n    /* \"WandInstruments.sol\":3129:3152  add(prod_xTEN18, y / 2) */\n  tag_15\n    /* \"WandInstruments.sol\":3133:3144  prod_xTEN18 */\n  dup3\n    /* \"WandInstruments.sol\":3150:3151  2 */\n  0x02\n    /* \"WandInstruments.sol\":3146:3147  y */\n  dup7\n    /* \"WandInstruments.sol\":3146:3151  y / 2 */\n  tag_16\n  swap2\n  swap1\n  tag_17\n  jump\t// in\ntag_16:\n    /* \"WandInstruments.sol\":3129:3132  add */\n  shl(0x20, tag_18)\n    /* \"WandInstruments.sol\":3129:3152  add(prod_xTEN18, y / 2) */\n  0x20\n  shr\n  jump\t// in\ntag_15:\n    /* \"WandInstruments.sol\":3129:3156  add(prod_xTEN18, y / 2) / y */\n  tag_19\n  swap2\n  swap1\n  tag_17\n  jump\t// in\ntag_19:\n    /* \"WandInstruments.sol\":3115:3156  decQuotient = add(prod_xTEN18, y / 2) / y */\n  swap2\n  pop\n    /* \"WandInstruments.sol\":3058:3164  {\r... */\n  pop\n    /* \"WandInstruments.sol\":2985:3164  function decDiv18(uint x, uint y) public pure returns (uint decQuotient) {\r... */\n  swap3\n  swap2\n  pop\n  pop\n  jump\t// out\n    /* \"WandInstruments.sol\":2068:2288  function mul(uint256 a, uint256 b) internal pure returns (uint256) {\r... */\ntag_14:\n    /* \"WandInstruments.sol\":2126:2133  uint256 */\n  0x00\n    /* \"WandInstruments.sol\":2151:2152  0 */\n  dup1\n    /* \"WandInstruments.sol\":2146:2147  a */\n  dup4\n    /* \"WandInstruments.sol\":2146:2152  a == 0 */\n  eq\n    /* \"WandInstruments.sol\":2142:2181  if (a == 0) {\r... */\n  iszero\n  tag_21\n  jumpi\n    /* \"WandInstruments.sol\":2172:2173  0 */\n  0x00\n    /* \"WandInstruments.sol\":2165:2173  return 0 */\n  swap1\n  pop\n  jump(tag_20)\n    /* \"WandInstruments.sol\":2142:2181  if (a == 0) {\r... */\ntag_21:\n    /* \"WandInstruments.sol\":2187:2196  uint256 c */\n  0x00\n    /* \"WandInstruments.sol\":2203:2204  b */\n  dup3\n    /* \"WandInstruments.sol\":2199:2200  a */\n  dup5\n    /* \"WandInstruments.sol\":2199:2204  a * b */\n  tag_22\n  swap2\n  swap1\n  tag_2\n  jump\t// in\ntag_22:\n    /* \"WandInstruments.sol\":2187:2204  uint256 c = a * b */\n  swap1\n  pop\n    /* \"WandInstruments.sol\":2228:2229  b */\n  dup3\n    /* \"WandInstruments.sol\":2223:2224  a */\n  dup5\n    /* \"WandInstruments.sol\":2219:2220  c */\n  dup3\n    /* \"WandInstruments.sol\":2219:2224  c / a */\n  tag_23\n  swap2\n  swap1\n  tag_17\n  jump\t// in\ntag_23:\n    /* \"WandInstruments.sol\":2219:2229  c / a == b */\n  eq\n    /* \"WandInstruments.sol\":2211:2267  require(c / a == b, \"uint overflow from multiplication\") */\n  tag_24\n  jumpi\n  mload(0x40)\n  0x08c379a000000000000000000000000000000000000000000000000000000000\n  dup2\n  mstore\n  0x04\n  add\n  tag_25\n  swap1\n  tag_26\n  jump\t// in\ntag_25:\n  mload(0x40)\n  dup1\n  swap2\n  sub\n  swap1\n  revert\ntag_24:\n    /* \"WandInstruments.sol\":2281:2282  c */\n  dup1\n    /* \"WandInstruments.sol\":2274:2282  return c */\n  swap2\n  pop\n  pop\n    /* \"WandInstruments.sol\":2068:2288  function mul(uint256 a, uint256 b) internal pure returns (uint256) {\r... */\ntag_20:\n  swap3\n  swap2\n  pop\n  pop\n  jump\t// out\n    /* \"WandInstruments.sol\":2630:2801  function add(uint256 a, uint256 b) internal pure returns (uint256) {\r... */\ntag_18:\n    /* \"WandInstruments.sol\":2688:2695  uint256 */\n  0x00\n    /* \"WandInstruments.sol\":2704:2713  uint256 c */\n  dup1\n    /* \"WandInstruments.sol\":2720:2721  b */\n  dup3\n    /* \"WandInstruments.sol\":2716:2717  a */\n  dup5\n    /* \"WandInstruments.sol\":2716:2721  a + b */\n  tag_28\n  swap2\n  swap1\n  tag_29\n  jump\t// in\ntag_28:\n    /* \"WandInstruments.sol\":2704:2721  uint256 c = a + b */\n  swap1\n  pop\n    /* \"WandInstruments.sol\":2741:2742  a */\n  dup4\n    /* \"WandInstruments.sol\":2736:2737  c */\n  dup2\n    /* \"WandInstruments.sol\":2736:2742  c >= a */\n  lt\n  iszero\n    /* \"WandInstruments.sol\":2728:2780  require(c >= a, \"uint overflow from multiplication\") */\n  tag_30\n  jumpi\n  mload(0x40)\n  0x08c379a000000000000000000000000000000000000000000000000000000000\n  dup2\n  mstore\n  0x04\n  add\n  tag_31\n  swap1\n  tag_26\n  jump\t// in\ntag_31:\n  mload(0x40)\n  dup1\n  swap2\n  sub\n  swap1\n  revert\ntag_30:\n    /* \"WandInstruments.sol\":2794:2795  c */\n  dup1\n    /* \"WandInstruments.sol\":2787:2795  return c */\n  swap2\n  pop\n  pop\n    /* \"WandInstruments.sol\":2630:2801  function add(uint256 a, uint256 b) internal pure returns (uint256) {\r... */\n  swap3\n  swap2\n  pop\n  pop\n  jump\t// out\n    /* \"#utility.yul\":7:150   */\ntag_33:\n    /* \"#utility.yul\":64:69   */\n  0x00\n    /* \"#utility.yul\":95:101   */\n  dup2\n    /* \"#utility.yul\":89:102   */\n  mload\n    /* \"#utility.yul\":80:102   */\n  swap1\n  pop\n    /* \"#utility.yul\":111:144   */\n  tag_35\n    /* \"#utility.yul\":138:143   */\n  dup2\n    /* \"#utility.yul\":111:144   */\n  tag_36\n  jump\t// in\ntag_35:\n    /* \"#utility.yul\":7:150   */\n  swap3\n  swap2\n  pop\n  pop\n  jump\t// out\n    /* \"#utility.yul\":156:663   */\ntag_5:\n    /* \"#utility.yul\":235:241   */\n  0x00\n    /* \"#utility.yul\":243:249   */\n  dup1\n    /* \"#utility.yul\":292:294   */\n  0x40\n    /* \"#utility.yul\":280:289   */\n  dup4\n    /* \"#utility.yul\":271:278   */\n  dup6\n    /* \"#utility.yul\":267:290   */\n  sub\n    /* \"#utility.yul\":263:295   */\n  slt\n    /* \"#utility.yul\":260:379   */\n  iszero\n  tag_38\n  jumpi\n    /* \"#utility.yul\":298:377   */\n  tag_39\n  tag_40\n  jump\t// in\ntag_39:\n    /* \"#utility.yul\":260:379   */\ntag_38:\n    /* \"#utility.yul\":418:419   */\n  0x00\n    /* \"#utility.yul\":443:507   */\n  tag_41\n    /* \"#utility.yul\":499:506   */\n  dup6\n    /* \"#utility.yul\":490:496   */\n  dup3\n    /* \"#utility.yul\":479:488   */\n  dup7\n    /* \"#utility.yul\":475:497   */\n  add\n    /* \"#utility.yul\":443:507   */\n  tag_33\n  jump\t// in\ntag_41:\n    /* \"#utility.yul\":433:507   */\n  swap3\n  pop\n    /* \"#utility.yul\":389:517   */\n  pop\n    /* \"#utility.yul\":556:558   */\n  0x20\n    /* \"#utility.yul\":582:646   */\n  tag_42\n    /* \"#utility.yul\":638:645   */\n  dup6\n    /* \"#utility.yul\":629:635   */\n  dup3\n    /* \"#utility.yul\":618:627   */\n  dup7\n    /* \"#utility.yul\":614:636   */\n  add\n    /* \"#utility.yul\":582:646   */\n  tag_33\n  jump\t// in\ntag_42:\n    /* \"#utility.yul\":572:646   */\n  swap2\n  pop\n    /* \"#utility.yul\":527:656   */\n  pop\n    /* \"#utility.yul\":156:663   */\n  swap3\n  pop\n  swap3\n  swap1\n  pop\n  jump\t// out\n    /* \"#utility.yul\":669:1035   */\ntag_43:\n    /* \"#utility.yul\":811:814   */\n  0x00\n    /* \"#utility.yul\":832:899   */\n  tag_45\n    /* \"#utility.yul\":896:898   */\n  0x21\n    /* \"#utility.yul\":891:894   */\n  dup4\n    /* \"#utility.yul\":832:899   */\n  tag_46\n  jump\t// in\ntag_45:\n    /* \"#utility.yul\":825:899   */\n  swap2\n  pop\n    /* \"#utility.yul\":908:1001   */\n  tag_47\n    /* \"#utility.yul\":997:1000   */\n  dup3\n    /* \"#utility.yul\":908:1001   */\n  tag_48\n  jump\t// in\ntag_47:\n    /* \"#utility.yul\":1026:1028   */\n  0x40\n    /* \"#utility.yul\":1021:1024   */\n  dup3\n    /* \"#utility.yul\":1017:1029   */\n  add\n    /* \"#utility.yul\":1010:1029   */\n  swap1\n  pop\n    /* \"#utility.yul\":669:1035   */\n  swap2\n  swap1\n  pop\n  jump\t// out\n    /* \"#utility.yul\":1041:1460   */\ntag_26:\n    /* \"#utility.yul\":1207:1211   */\n  0x00\n    /* \"#utility.yul\":1245:1247   */\n  0x20\n    /* \"#utility.yul\":1234:1243   */\n  dup3\n    /* \"#utility.yul\":1230:1248   */\n  add\n    /* \"#utility.yul\":1222:1248   */\n  swap1\n  pop\n    /* \"#utility.yul\":1294:1303   */\n  dup2\n    /* \"#utility.yul\":1288:1292   */\n  dup2\n    /* \"#utility.yul\":1284:1304   */\n  sub\n    /* \"#utility.yul\":1280:1281   */\n  0x00\n    /* \"#utility.yul\":1269:1278   */\n  dup4\n    /* \"#utility.yul\":1265:1282   */\n  add\n    /* \"#utility.yul\":1258:1305   */\n  mstore\n    /* \"#utility.yul\":1322:1453   */\n  tag_50\n    /* \"#utility.yul\":1448:1452   */\n  dup2\n    /* \"#utility.yul\":1322:1453   */\n  tag_43\n  jump\t// in\ntag_50:\n    /* \"#utility.yul\":1314:1453   */\n  swap1\n  pop\n    /* \"#utility.yul\":1041:1460   */\n  swap2\n  swap1\n  pop\n  jump\t// out\n    /* \"#utility.yul\":1547:1716   */\ntag_46:\n    /* \"#utility.yul\":1631:1642   */\n  0x00\n    /* \"#utility.yul\":1665:1671   */\n  dup3\n    /* \"#utility.yul\":1660:1663   */\n  dup3\n    /* \"#utility.yul\":1653:1672   */\n  mstore\n    /* \"#utility.yul\":1705:1709   */\n  0x20\n    /* \"#utility.yul\":1700:1703   */\n  dup3\n    /* \"#utility.yul\":1696:1710   */\n  add\n    /* \"#utility.yul\":1681:1710   */\n  swap1\n  pop\n    /* \"#utility.yul\":1547:1716   */\n  swap3\n  swap2\n  pop\n  pop\n  jump\t// out\n    /* \"#utility.yul\":1722:2027   */\ntag_29:\n    /* \"#utility.yul\":1762:1765   */\n  0x00\n    /* \"#utility.yul\":1781:1801   */\n  tag_55\n    /* \"#utility.yul\":1799:1800   */\n  dup3\n    /* \"#utility.yul\":1781:1801   */\n  tag_56\n  jump\t// in\ntag_55:\n    /* \"#utility.yul\":1776:1801   */\n  swap2\n  pop\n    /* \"#utility.yul\":1815:1835   */\n  tag_57\n    /* \"#utility.yul\":1833:1834   */\n  dup4\n    /* \"#utility.yul\":1815:1835   */\n  tag_56\n  jump\t// in\ntag_57:\n    /* \"#utility.yul\":1810:1835   */\n  swap3\n  pop\n    /* \"#utility.yul\":1969:1970   */\n  dup3\n    /* \"#utility.yul\":1901:1967   */\n  0xffffffffffffffffffffffffffffffffffffffffffffffffffffffffffffffff\n    /* \"#utility.yul\":1897:1971   */\n  sub\n    /* \"#utility.yul\":1894:1895   */\n  dup3\n    /* \"#utility.yul\":1891:1972   */\n  gt\n    /* \"#utility.yul\":1888:1995   */\n  iszero\n  tag_58\n  jumpi\n    /* \"#utility.yul\":1975:1993   */\n  tag_59\n  tag_60\n  jump\t// in\ntag_59:\n    /* \"#utility.yul\":1888:1995   */\ntag_58:\n    /* \"#utility.yul\":2019:2020   */\n  dup3\n    /* \"#utility.yul\":2016:2017   */\n  dup3\n    /* \"#utility.yul\":2012:2021   */\n  add\n    /* \"#utility.yul\":2005:2021   */\n  swap1\n  pop\n    /* \"#utility.yul\":1722:2027   */\n  swap3\n  swap2\n  pop\n  pop\n  jump\t// out\n    /* \"#utility.yul\":2033:2218   */\ntag_17:\n    /* \"#utility.yul\":2073:2074   */\n  0x00\n    /* \"#utility.yul\":2090:2110   */\n  tag_62\n    /* \"#utility.yul\":2108:2109   */\n  dup3\n    /* \"#utility.yul\":2090:2110   */\n  tag_56\n  jump\t// in\ntag_62:\n    /* \"#utility.yul\":2085:2110   */\n  swap2\n  pop\n    /* \"#utility.yul\":2124:2144   */\n  tag_63\n    /* \"#utility.yul\":2142:2143   */\n  dup4\n    /* \"#utility.yul\":2124:2144   */\n  tag_56\n  jump\t// in\ntag_63:\n    /* \"#utility.yul\":2119:2144   */\n  swap3\n  pop\n    /* \"#utility.yul\":2163:2164   */\n  dup3\n    /* \"#utility.yul\":2153:2188   */\n  tag_64\n  jumpi\n    /* \"#utility.yul\":2168:2186   */\n  tag_65\n  tag_66\n  jump\t// in\ntag_65:\n    /* \"#utility.yul\":2153:2188   */\ntag_64:\n    /* \"#utility.yul\":2210:2211   */\n  dup3\n    /* \"#utility.yul\":2207:2208   */\n  dup3\n    /* \"#utility.yul\":2203:2212   */\n  div\n    /* \"#utility.yul\":2198:2212   */\n  swap1\n  pop\n    /* \"#utility.yul\":2033:2218   */\n  swap3\n  swap2\n  pop\n  pop\n  jump\t// out\n    /* \"#utility.yul\":2224:2572   */\ntag_2:\n    /* \"#utility.yul\":2264:2271   */\n  0x00\n    /* \"#utility.yul\":2287:2307   */\n  tag_68\n    /* \"#utility.yul\":2305:2306   */\n  dup3\n    /* \"#utility.yul\":2287:2307   */\n  tag_56\n  jump\t// in\ntag_68:\n    /* \"#utility.yul\":2282:2307   */\n  swap2\n  pop\n    /* \"#utility.yul\":2321:2341   */\n  tag_69\n    /* \"#utility.yul\":2339:2340   */\n  dup4\n    /* \"#utility.yul\":2321:2341   */\n  tag_56\n  jump\t// in\ntag_69:\n    /* \"#utility.yul\":2316:2341   */\n  swap3\n  pop\n    /* \"#utility.yul\":2509:2510   */\n  dup2\n    /* \"#utility.yul\":2441:2507   */\n  0xffffffffffffffffffffffffffffffffffffffffffffffffffffffffffffffff\n    /* \"#utility.yul\":2437:2511   */\n  div\n    /* \"#utility.yul\":2434:2435   */\n  dup4\n    /* \"#utility.yul\":2431:2512   */\n  gt\n    /* \"#utility.yul\":2426:2427   */\n  dup3\n    /* \"#utility.yul\":2419:2428   */\n  iszero\n    /* \"#utility.yul\":2412:2429   */\n  iszero\n    /* \"#utility.yul\":2408:2513   */\n  and\n    /* \"#utility.yul\":2405:2536   */\n  iszero\n  tag_70\n  jumpi\n    /* \"#utility.yul\":2516:2534   */\n  tag_71\n  tag_60\n  jump\t// in\ntag_71:\n    /* \"#utility.yul\":2405:2536   */\ntag_70:\n    /* \"#utility.yul\":2564:2565   */\n  dup3\n    /* \"#utility.yul\":2561:2562   */\n  dup3\n    /* \"#utility.yul\":2557:2566   */\n  mul\n    /* \"#utility.yul\":2546:2566   */\n  swap1\n  pop\n    /* \"#utility.yul\":2224:2572   */\n  swap3\n  swap2\n  pop\n  pop\n  jump\t// out\n    /* \"#utility.yul\":2578:2674   */\ntag_72:\n    /* \"#utility.yul\":2615:2622   */\n  0x00\n    /* \"#utility.yul\":2644:2668   */\n  tag_74\n    /* \"#utility.yul\":2662:2667   */\n  dup3\n    /* \"#utility.yul\":2644:2668   */\n  tag_75\n  jump\t// in\ntag_74:\n    /* \"#utility.yul\":2633:2668   */\n  swap1\n  pop\n    /* \"#utility.yul\":2578:2674   */\n  swap2\n  swap1\n  pop\n  jump\t// out\n    /* \"#utility.yul\":2680:2806   */\ntag_75:\n    /* \"#utility.yul\":2717:2724   */\n  0x00\n    /* \"#utility.yul\":2757:2799   */\n  0xffffffffffffffffffffffffffffffffffffffff\n    /* \"#utility.yul\":2750:2755   */\n  dup3\n    /* \"#utility.yul\":2746:2800   */\n  and\n    /* \"#utility.yul\":2735:2800   */\n  swap1\n  pop\n    /* \"#utility.yul\":2680:2806   */\n  swap2\n  swap1\n  pop\n  jump\t// out\n    /* \"#utility.yul\":2812:2889   */\ntag_56:\n    /* \"#utility.yul\":2849:2856   */\n  0x00\n    /* \"#utility.yul\":2878:2883   */\n  dup2\n    /* \"#utility.yul\":2867:2883   */\n  swap1\n  pop\n    /* \"#utility.yul\":2812:2889   */\n  swap2\n  swap1\n  pop\n  jump\t// out\n    /* \"#utility.yul\":2895:3075   */\ntag_60:\n    /* \"#utility.yul\":2943:3020   */\n  0x4e487b7100000000000000000000000000000000000000000000000000000000\n    /* \"#utility.yul\":2940:2941   */\n  0x00\n    /* \"#utility.yul\":2933:3021   */\n  mstore\n    /* \"#utility.yul\":3040:3044   */\n  0x11\n    /* \"#utility.yul\":3037:3038   */\n  0x04\n    /* \"#utility.yul\":3030:3045   */\n  mstore\n    /* \"#utility.yul\":3064:3068   */\n  0x24\n    /* \"#utility.yul\":3061:3062   */\n  0x00\n    /* \"#utility.yul\":3054:3069   */\n  revert\n    /* \"#utility.yul\":3081:3261   */\ntag_66:\n    /* \"#utility.yul\":3129:3206   */\n  0x4e487b7100000000000000000000000000000000000000000000000000000000\n    /* \"#utility.yul\":3126:3127   */\n  0x00\n    /* \"#utility.yul\":3119:3207   */\n  mstore\n    /* \"#utility.yul\":3226:3230   */\n  0x12\n    /* \"#utility.yul\":3223:3224   */\n  0x04\n    /* \"#utility.yul\":3216:3231   */\n  mstore\n    /* \"#utility.yul\":3250:3254   */\n  0x24\n    /* \"#utility.yul\":3247:3248   */\n  0x00\n    /* \"#utility.yul\":3240:3255   */\n  revert\n    /* \"#utility.yul\":3390:3507   */\ntag_40:\n    /* \"#utility.yul\":3499:3500   */\n  0x00\n    /* \"#utility.yul\":3496:3497   */\n  dup1\n    /* \"#utility.yul\":3489:3501   */\n  revert\n    /* \"#utility.yul\":3513:3733   */\ntag_48:\n    /* \"#utility.yul\":3653:3687   */\n  0x75696e74206f766572666c6f772066726f6d206d756c7469706c69636174696f\n    /* \"#utility.yul\":3649:3650   */\n  0x00\n    /* \"#utility.yul\":3641:3647   */\n  dup3\n    /* \"#utility.yul\":3637:3651   */\n  add\n    /* \"#utility.yul\":3630:3688   */\n  mstore\n    /* \"#utility.yul\":3722:3725   */\n  0x6e00000000000000000000000000000000000000000000000000000000000000\n    /* \"#utility.yul\":3717:3719   */\n  0x20\n    /* \"#utility.yul\":3709:3715   */\n  dup3\n    /* \"#utility.yul\":3705:3720   */\n  add\n    /* \"#utility.yul\":3698:3726   */\n  mstore\n    /* \"#utility.yul\":3513:3733   */\n  pop\n  jump\t// out\n    /* \"#utility.yul\":3739:3861   */\ntag_36:\n    /* \"#utility.yul\":3812:3836   */\n  tag_85\n    /* \"#utility.yul\":3830:3835   */\n  dup2\n    /* \"#utility.yul\":3812:3836   */\n  tag_72\n  jump\t// in\ntag_85:\n    /* \"#utility.yul\":3805:3810   */\n  dup2\n    /* \"#utility.yul\":3802:3837   */\n  eq\n    /* \"#utility.yul\":3792:3855   */\n  tag_86\n  jumpi\n    /* \"#utility.yul\":3851:3852   */\n  0x00\n    /* \"#utility.yul\":3848:3849   */\n  dup1\n    /* \"#utility.yul\":3841:3853   */\n  revert\n    /* \"#utility.yul\":3792:3855   */\ntag_86:\n    /* \"#utility.yul\":3739:3861   */\n  pop\n  jump\t// out\n    /* \"WandInstruments.sol\":96:6314  contract testSticks {\r... */\ntag_11:\n  dataSize(sub_0)\n  dup1\n  dataOffset(sub_0)\n  0x00\n  codecopy\n  0x00\n  return\nstop\n\nsub_0: assembly {\n        /* \"WandInstruments.sol\":96:6314  contract testSticks {\r... */\n      mstore(0x40, 0x80)\n      jumpi(tag_1, lt(calldatasize, 0x04))\n      shr(0xe0, calldataload(0x00))\n      dup1\n      0x6f10e285\n      gt\n      tag_23\n      jumpi\n      dup1\n      0xee546a51\n      gt\n      tag_24\n      jumpi\n      dup1\n      0xee546a51\n      eq\n      tag_17\n      jumpi\n      dup1\n      0xee620868\n      eq\n      tag_18\n      jumpi\n      dup1\n      0xeee05f5e\n      eq\n      tag_19\n      jumpi\n      dup1\n      0xf7523c52\n      eq\n      tag_20\n      jumpi\n      dup1\n      0xfbbb4589\n      eq\n      tag_21\n      jumpi\n      dup1\n      0xfc361443\n      eq\n      tag_22\n      jumpi\n      jump(tag_1)\n    tag_24:\n      dup1\n      0x6f10e285\n      eq\n      tag_12\n      jumpi\n      dup1\n      0xc079d7f6\n      eq\n      tag_13\n      jumpi\n      dup1\n      0xcbff4617\n      eq\n      tag_14\n      jumpi\n      dup1\n      0xdaa3a4a4\n      eq\n      tag_15\n      jumpi\n      dup1\n      0xee467678\n      eq\n      tag_16\n      jumpi\n      jump(tag_1)\n    tag_23:\n      dup1\n      0x43d32e9c\n      gt\n      tag_25\n      jumpi\n      dup1\n      0x43d32e9c\n      eq\n      tag_7\n      jumpi\n      dup1\n      0x64ce07d8\n      eq\n      tag_8\n      jumpi\n      dup1\n      0x65819f7e\n      eq\n      tag_9\n      jumpi\n      dup1\n      0x67b48c91\n      eq\n      tag_10\n      jumpi\n      dup1\n      0x6e05c1b9\n      eq\n      tag_11\n      jumpi\n      jump(tag_1)\n    tag_25:\n      dup1\n      0x018a25e8\n      eq\n      tag_2\n      jumpi\n      dup1\n      0x047729b0\n      eq\n      tag_3\n      jumpi\n      dup1\n      0x1f564a06\n      eq\n      tag_4\n      jumpi\n      dup1\n      0x2934b237\n      eq\n      tag_5\n      jumpi\n      dup1\n      0x35453307\n      eq\n      tag_6\n      jumpi\n    tag_1:\n      0x00\n      dup1\n      revert\n        /* \"WandInstruments.sol\":5644:5805  function getBuyPrice() external view returns (uint256){\r... */\n    tag_2:\n      callvalue\n      dup1\n      iszero\n      tag_26\n      jumpi\n      0x00\n      dup1\n      revert\n    tag_26:\n      pop\n      tag_27\n      tag_28\n      jump\t// in\n    tag_27:\n      mload(0x40)\n      tag_29\n      swap2\n      swap1\n      tag_30\n      jump\t// in\n    tag_29:\n      mload(0x40)\n      dup1\n      swap2\n      sub\n      swap1\n      return\n        /* \"WandInstruments.sol\":624:655  address public riskTreasuryAddr */\n    tag_3:\n      callvalue\n      dup1\n      iszero\n      tag_31\n      jumpi\n      0x00\n      dup1\n      revert\n    tag_31:\n      pop\n      tag_32\n      tag_33\n      jump\t// in\n    tag_32:\n      mload(0x40)\n      tag_34\n      swap2\n      swap1\n      tag_35\n      jump\t// in\n    tag_34:\n      mload(0x40)\n      dup1\n      swap2\n      sub\n      swap1\n      return\n        /* \"WandInstruments.sol\":5438:5638  function getBackingPrice() external view returns (uint256){\r... */\n    tag_4:\n      callvalue\n      dup1\n      iszero\n      tag_36\n      jumpi\n      0x00\n      dup1\n      revert\n    tag_36:\n      pop\n      tag_37\n      tag_38\n      jump\t// in\n    tag_37:\n      mload(0x40)\n      tag_39\n      swap2\n      swap1\n      tag_30\n      jump\t// in\n    tag_39:\n      mload(0x40)\n      dup1\n      swap2\n      sub\n      swap1\n      return\n        /* \"WandInstruments.sol\":5319:5428  function mintBaton(uint256 amount) public {\r... */\n    tag_5:\n      callvalue\n      dup1\n      iszero\n      tag_40\n      jumpi\n      0x00\n      dup1\n      revert\n    tag_40:\n      pop\n      tag_41\n      0x04\n      dup1\n      calldatasize\n      sub\n      dup2\n      add\n      swap1\n      tag_42\n      swap2\n      swap1\n      tag_43\n      jump\t// in\n    tag_42:\n      tag_44\n      jump\t// in\n    tag_41:\n      stop\n        /* \"WandInstruments.sol\":696:743  uint256 public treasury1bal = 500000*(DECIMALS) */\n    tag_6:\n      callvalue\n      dup1\n      iszero\n      tag_45\n      jumpi\n      0x00\n      dup1\n      revert\n    tag_45:\n      pop\n      tag_46\n      tag_47\n      jump\t// in\n    tag_46:\n      mload(0x40)\n      tag_48\n      swap2\n      swap1\n      tag_30\n      jump\t// in\n    tag_48:\n      mload(0x40)\n      dup1\n      swap2\n      sub\n      swap1\n      return\n        /* \"WandInstruments.sol\":5811:6035  function getSellPrice() external view returns (uint256){\r... */\n    tag_7:\n      callvalue\n      dup1\n      iszero\n      tag_49\n      jumpi\n      0x00\n      dup1\n      revert\n    tag_49:\n      pop\n      tag_50\n      tag_51\n      jump\t// in\n    tag_50:\n      mload(0x40)\n      tag_52\n      swap2\n      swap1\n      tag_30\n      jump\t// in\n    tag_52:\n      mload(0x40)\n      dup1\n      swap2\n      sub\n      swap1\n      return\n        /* \"WandInstruments.sol\":2985:3164  function decDiv18(uint x, uint y) public pure returns (uint decQuotient) {\r... */\n    tag_8:\n      callvalue\n      dup1\n      iszero\n      tag_53\n      jumpi\n      0x00\n      dup1\n      revert\n    tag_53:\n      pop\n      tag_54\n      0x04\n      dup1\n      calldatasize\n      sub\n      dup2\n      add\n      swap1\n      tag_55\n      swap2\n      swap1\n      tag_56\n      jump\t// in\n    tag_55:\n      tag_57\n      jump\t// in\n    tag_54:\n      mload(0x40)\n      tag_58\n      swap2\n      swap1\n      tag_30\n      jump\t// in\n    tag_58:\n      mload(0x40)\n      dup1\n      swap2\n      sub\n      swap1\n      return\n        /* \"WandInstruments.sol\":4516:5313  function buyScepter(uint256 amountSCPtoBuy) public payable{\r... */\n    tag_9:\n      tag_59\n      0x04\n      dup1\n      calldatasize\n      sub\n      dup2\n      add\n      swap1\n      tag_60\n      swap2\n      swap1\n      tag_43\n      jump\t// in\n    tag_60:\n      tag_61\n      jump\t// in\n    tag_59:\n      stop\n        /* \"WandInstruments.sol\":807:839  uint256 public daysInCalculation */\n    tag_10:\n      callvalue\n      dup1\n      iszero\n      tag_62\n      jumpi\n      0x00\n      dup1\n      revert\n    tag_62:\n      pop\n      tag_63\n      tag_64\n      jump\t// in\n    tag_63:\n      mload(0x40)\n      tag_65\n      swap2\n      swap1\n      tag_30\n      jump\t// in\n    tag_65:\n      mload(0x40)\n      dup1\n      swap2\n      sub\n      swap1\n      return\n        /* \"WandInstruments.sol\":1280:1297  IERC20 public tSC */\n    tag_11:\n      callvalue\n      dup1\n      iszero\n      tag_66\n      jumpi\n      0x00\n      dup1\n      revert\n    tag_66:\n      pop\n      tag_67\n      tag_68\n      jump\t// in\n    tag_67:\n      mload(0x40)\n      tag_69\n      swap2\n      swap1\n      tag_70\n      jump\t// in\n    tag_69:\n      mload(0x40)\n      dup1\n      swap2\n      sub\n      swap1\n      return\n        /* \"WandInstruments.sol\":1058:1075  int128 public res */\n    tag_12:\n      callvalue\n      dup1\n      iszero\n      tag_71\n      jumpi\n      0x00\n      dup1\n      revert\n    tag_71:\n      pop\n      tag_72\n      tag_73\n      jump\t// in\n    tag_72:\n      mload(0x40)\n      tag_74\n      swap2\n      swap1\n      tag_75\n      jump\t// in\n    tag_74:\n      mload(0x40)\n      dup1\n      swap2\n      sub\n      swap1\n      return\n        /* \"WandInstruments.sol\":583:617  address public scepterTreasuryAddr */\n    tag_13:\n      callvalue\n      dup1\n      iszero\n      tag_76\n      jumpi\n      0x00\n      dup1\n      revert\n    tag_76:\n      pop\n      tag_77\n      tag_78\n      jump\t// in\n    tag_77:\n      mload(0x40)\n      tag_79\n      swap2\n      swap1\n      tag_35\n      jump\t// in\n    tag_79:\n      mload(0x40)\n      dup1\n      swap2\n      sub\n      swap1\n      return\n        /* \"WandInstruments.sol\":332:357  uint256 public sellFactor */\n    tag_14:\n      callvalue\n      dup1\n      iszero\n      tag_80\n      jumpi\n      0x00\n      dup1\n      revert\n    tag_80:\n      pop\n      tag_81\n      tag_82\n      jump\t// in\n    tag_81:\n      mload(0x40)\n      tag_83\n      swap2\n      swap1\n      tag_30\n      jump\t// in\n    tag_83:\n      mload(0x40)\n      dup1\n      swap2\n      sub\n      swap1\n      return\n        /* \"WandInstruments.sol\":3627:4510  function sellScepter(uint256 amountSCPtoSell) public payable{\r... */\n    tag_15:\n      tag_84\n      0x04\n      dup1\n      calldatasize\n      sub\n      dup2\n      add\n      swap1\n      tag_85\n      swap2\n      swap1\n      tag_43\n      jump\t// in\n    tag_85:\n      tag_86\n      jump\t// in\n    tag_84:\n      stop\n        /* \"WandInstruments.sol\":1326:1348  IERC20 public mockUSDC */\n    tag_16:\n      callvalue\n      dup1\n      iszero\n      tag_87\n      jumpi\n      0x00\n      dup1\n      revert\n    tag_87:\n      pop\n      tag_88\n      tag_89\n      jump\t// in\n    tag_88:\n      mload(0x40)\n      tag_90\n      swap2\n      swap1\n      tag_70\n      jump\t// in\n    tag_90:\n      mload(0x40)\n      dup1\n      swap2\n      sub\n      swap1\n      return\n        /* \"WandInstruments.sol\":3172:3356  function queryERC20Balance(address _tokenAddress, address _addressToQuery) view public returns (uint) {\r... */\n    tag_17:\n      callvalue\n      dup1\n      iszero\n      tag_91\n      jumpi\n      0x00\n      dup1\n      revert\n    tag_91:\n      pop\n      tag_92\n      0x04\n      dup1\n      calldatasize\n      sub\n      dup2\n      add\n      swap1\n      tag_93\n      swap2\n      swap1\n      tag_94\n      jump\t// in\n    tag_93:\n      tag_95\n      jump\t// in\n    tag_92:\n      mload(0x40)\n      tag_96\n      swap2\n      swap1\n      tag_30\n      jump\t// in\n    tag_96:\n      mload(0x40)\n      dup1\n      swap2\n      sub\n      swap1\n      return\n        /* \"WandInstruments.sol\":298:325  uint256 public growthFactor */\n    tag_18:\n      callvalue\n      dup1\n      iszero\n      tag_97\n      jumpi\n      0x00\n      dup1\n      revert\n    tag_97:\n      pop\n      tag_98\n      tag_99\n      jump\t// in\n    tag_98:\n      mload(0x40)\n      tag_100\n      swap2\n      swap1\n      tag_30\n      jump\t// in\n    tag_100:\n      mload(0x40)\n      dup1\n      swap2\n      sub\n      swap1\n      return\n        /* \"WandInstruments.sol\":1082:1152  address public testwallet = 0x617F2E2fD72FD9D5503197092aC168c91465E7f2 */\n    tag_19:\n      callvalue\n      dup1\n      iszero\n      tag_101\n      jumpi\n      0x00\n      dup1\n      revert\n    tag_101:\n      pop\n      tag_102\n      tag_103\n      jump\t// in\n    tag_102:\n      mload(0x40)\n      tag_104\n      swap2\n      swap1\n      tag_35\n      jump\t// in\n    tag_104:\n      mload(0x40)\n      dup1\n      swap2\n      sub\n      swap1\n      return\n        /* \"WandInstruments.sol\":2807:2977  function decMul18(uint x, uint y) public pure returns (uint decProd) {\r... */\n    tag_20:\n      callvalue\n      dup1\n      iszero\n      tag_105\n      jumpi\n      0x00\n      dup1\n      revert\n    tag_105:\n      pop\n      tag_106\n      0x04\n      dup1\n      calldatasize\n      sub\n      dup2\n      add\n      swap1\n      tag_107\n      swap2\n      swap1\n      tag_56\n      jump\t// in\n    tag_107:\n      tag_108\n      jump\t// in\n    tag_106:\n      mload(0x40)\n      tag_109\n      swap2\n      swap1\n      tag_30\n      jump\t// in\n    tag_109:\n      mload(0x40)\n      dup1\n      swap2\n      sub\n      swap1\n      return\n        /* \"WandInstruments.sol\":548:576  address public treasury1Addr */\n    tag_21:\n      callvalue\n      dup1\n      iszero\n      tag_110\n      jumpi\n      0x00\n      dup1\n      revert\n    tag_110:\n      pop\n      tag_111\n      tag_112\n      jump\t// in\n    tag_111:\n      mload(0x40)\n      tag_113\n      swap2\n      swap1\n      tag_35\n      jump\t// in\n    tag_113:\n      mload(0x40)\n      dup1\n      swap2\n      sub\n      swap1\n      return\n        /* \"WandInstruments.sol\":3487:3619  function setDaysUsedInFactors(uint256 numDays) public {  \r... */\n    tag_22:\n      callvalue\n      dup1\n      iszero\n      tag_114\n      jumpi\n      0x00\n      dup1\n      revert\n    tag_114:\n      pop\n      tag_115\n      0x04\n      dup1\n      calldatasize\n      sub\n      dup2\n      add\n      swap1\n      tag_116\n      swap2\n      swap1\n      tag_43\n      jump\t// in\n    tag_116:\n      tag_117\n      jump\t// in\n    tag_115:\n      stop\n        /* \"WandInstruments.sol\":5644:5805  function getBuyPrice() external view returns (uint256){\r... */\n    tag_28:\n        /* \"WandInstruments.sol\":5690:5697  uint256 */\n      0x00\n        /* \"WandInstruments.sol\":5787:5793  10**18 */\n      0x0de0b6b3a7640000\n        /* \"WandInstruments.sol\":5772:5782  sellFactor */\n      sload(0x01)\n        /* \"WandInstruments.sol\":5753:5769  (9/10) *(10**18) */\n      0x0c7d713b49da0000\n        /* \"WandInstruments.sol\":5753:5782  (9/10) *(10**18) - sellFactor */\n      tag_119\n      swap2\n      swap1\n      tag_120\n      jump\t// in\n    tag_119:\n        /* \"WandInstruments.sol\":5727:5731  this */\n      address\n        /* \"WandInstruments.sol\":5727:5747  this.getBackingPrice */\n      0xffffffffffffffffffffffffffffffffffffffff\n      and\n      0x1f564a06\n        /* \"WandInstruments.sol\":5727:5749  this.getBackingPrice() */\n      mload(0x40)\n      dup2\n      0xffffffff\n      and\n      0xe0\n      shl\n      dup2\n      mstore\n      0x04\n      add\n      0x20\n      mload(0x40)\n      dup1\n      dup4\n      sub\n      dup2\n      dup7\n      dup1\n      extcodesize\n      iszero\n      dup1\n      iszero\n      tag_121\n      jumpi\n      0x00\n      dup1\n      revert\n    tag_121:\n      pop\n      gas\n      staticcall\n      iszero\n      dup1\n      iszero\n      tag_123\n      jumpi\n      returndatasize\n      0x00\n      dup1\n      returndatacopy\n      revert(0x00, returndatasize)\n    tag_123:\n      pop\n      pop\n      pop\n      pop\n      mload(0x40)\n      returndatasize\n      not(0x1f)\n      0x1f\n      dup3\n      add\n      and\n      dup3\n      add\n      dup1\n      0x40\n      mstore\n      pop\n      dup2\n      add\n      swap1\n      tag_124\n      swap2\n      swap1\n      tag_125\n      jump\t// in\n    tag_124:\n        /* \"WandInstruments.sol\":5727:5783  this.getBackingPrice() * ((9/10) *(10**18) - sellFactor) */\n      tag_126\n      swap2\n      swap1\n      tag_127\n      jump\t// in\n    tag_126:\n        /* \"WandInstruments.sol\":5727:5794  this.getBackingPrice() * ((9/10) *(10**18) - sellFactor) / (10**18) */\n      tag_128\n      swap2\n      swap1\n      tag_129\n      jump\t// in\n    tag_128:\n        /* \"WandInstruments.sol\":5719:5795  return (this.getBackingPrice() * ((9/10) *(10**18) - sellFactor) / (10**18)) */\n      swap1\n      pop\n        /* \"WandInstruments.sol\":5644:5805  function getBuyPrice() external view returns (uint256){\r... */\n      swap1\n      jump\t// out\n        /* \"WandInstruments.sol\":624:655  address public riskTreasuryAddr */\n    tag_33:\n      0x08\n      0x00\n      swap1\n      sload\n      swap1\n      0x0100\n      exp\n      swap1\n      div\n      0xffffffffffffffffffffffffffffffffffffffff\n      and\n      dup2\n      jump\t// out\n        /* \"WandInstruments.sol\":5438:5638  function getBackingPrice() external view returns (uint256){\r... */\n    tag_38:\n        /* \"WandInstruments.sol\":5488:5495  uint256 */\n      0x00\n        /* \"WandInstruments.sol\":5589:5592  tSC */\n      0x11\n      0x00\n      swap1\n      sload\n      swap1\n      0x0100\n      exp\n      swap1\n      div\n      0xffffffffffffffffffffffffffffffffffffffff\n      and\n        /* \"WandInstruments.sol\":5589:5604  tSC.totalSupply */\n      0xffffffffffffffffffffffffffffffffffffffff\n      and\n      0x18160ddd\n        /* \"WandInstruments.sol\":5589:5606  tSC.totalSupply() */\n      mload(0x40)\n      dup2\n      0xffffffff\n      and\n      0xe0\n      shl\n      dup2\n      mstore\n      0x04\n      add\n      0x20\n      mload(0x40)\n      dup1\n      dup4\n      sub\n      dup2\n      dup7\n      dup1\n      extcodesize\n      iszero\n      dup1\n      iszero\n      tag_131\n      jumpi\n      0x00\n      dup1\n      revert\n    tag_131:\n      pop\n      gas\n      staticcall\n      iszero\n      dup1\n      iszero\n      tag_133\n      jumpi\n      returndatasize\n      0x00\n      dup1\n      returndatacopy\n      revert(0x00, returndatasize)\n    tag_133:\n      pop\n      pop\n      pop\n      pop\n      mload(0x40)\n      returndatasize\n      not(0x1f)\n      0x1f\n      dup3\n      add\n      and\n      dup3\n      add\n      dup1\n      0x40\n      mstore\n      pop\n      dup2\n      add\n      swap1\n      tag_134\n      swap2\n      swap1\n      tag_125\n      jump\t// in\n    tag_134:\n        /* \"WandInstruments.sol\":5576:5588  treasury1bal */\n      sload(0x09)\n        /* \"WandInstruments.sol\":5576:5606  treasury1bal/tSC.totalSupply() */\n      tag_135\n      swap2\n      swap1\n      tag_129\n      jump\t// in\n    tag_135:\n        /* \"WandInstruments.sol\":5568:5607  return (treasury1bal/tSC.totalSupply()) */\n      swap1\n      pop\n        /* \"WandInstruments.sol\":5438:5638  function getBackingPrice() external view returns (uint256){\r... */\n      swap1\n      jump\t// out\n        /* \"WandInstruments.sol\":5319:5428  function mintBaton(uint256 amount) public {\r... */\n    tag_44:\n        /* \"WandInstruments.sol\":5382:5385  btn */\n      0x13\n      0x00\n      swap1\n      sload\n      swap1\n      0x0100\n      exp\n      swap1\n      div\n      0xffffffffffffffffffffffffffffffffffffffff\n      and\n        /* \"WandInstruments.sol\":5382:5390  btn.mint */\n      0xffffffffffffffffffffffffffffffffffffffff\n      and\n      0x40c10f19\n        /* \"WandInstruments.sol\":5391:5401  msg.sender */\n      caller\n        /* \"WandInstruments.sol\":5403:5409  amount */\n      dup4\n        /* \"WandInstruments.sol\":5382:5410  btn.mint(msg.sender, amount) */\n      mload(0x40)\n      dup4\n      0xffffffff\n      and\n      0xe0\n      shl\n      dup2\n      mstore\n      0x04\n      add\n      tag_137\n      swap3\n      swap2\n      swap1\n      tag_138\n      jump\t// in\n    tag_137:\n      0x00\n      mload(0x40)\n      dup1\n      dup4\n      sub\n      dup2\n      0x00\n      dup8\n      dup1\n      extcodesize\n      iszero\n      dup1\n      iszero\n      tag_139\n      jumpi\n      0x00\n      dup1\n      revert\n    tag_139:\n      pop\n      gas\n      call\n      iszero\n      dup1\n      iszero\n      tag_141\n      jumpi\n      returndatasize\n      0x00\n      dup1\n      returndatacopy\n      revert(0x00, returndatasize)\n    tag_141:\n      pop\n      pop\n      pop\n      pop\n        /* \"WandInstruments.sol\":5319:5428  function mintBaton(uint256 amount) public {\r... */\n      pop\n      jump\t// out\n        /* \"WandInstruments.sol\":696:743  uint256 public treasury1bal = 500000*(DECIMALS) */\n    tag_47:\n      sload(0x09)\n      dup2\n      jump\t// out\n        /* \"WandInstruments.sol\":5811:6035  function getSellPrice() external view returns (uint256){\r... */\n    tag_51:\n        /* \"WandInstruments.sol\":5858:5865  uint256 */\n      0x00\n        /* \"WandInstruments.sol\":283:289  10**18 */\n      0x0de0b6b3a7640000\n        /* \"WandInstruments.sol\":6011:6012  5 */\n      0x05\n        /* \"WandInstruments.sol\":283:289  10**18 */\n      0x0de0b6b3a7640000\n        /* \"WandInstruments.sol\":5998:5999  6 */\n      0x06\n        /* \"WandInstruments.sol\":5998:6010  6*(DECIMALS) */\n      tag_143\n      swap2\n      swap1\n      tag_127\n      jump\t// in\n    tag_143:\n        /* \"WandInstruments.sol\":5998:6012  6*(DECIMALS)/5 */\n      tag_144\n      swap2\n      swap1\n      tag_129\n      jump\t// in\n    tag_144:\n        /* \"WandInstruments.sol\":5982:5994  growthFactor */\n      sload(0x00)\n        /* \"WandInstruments.sol\":5982:6013  growthFactor + (6*(DECIMALS)/5) */\n      tag_145\n      swap2\n      swap1\n      tag_146\n      jump\t// in\n    tag_145:\n        /* \"WandInstruments.sol\":5956:5960  this */\n      address\n        /* \"WandInstruments.sol\":5956:5976  this.getBackingPrice */\n      0xffffffffffffffffffffffffffffffffffffffff\n      and\n      0x1f564a06\n        /* \"WandInstruments.sol\":5956:5978  this.getBackingPrice() */\n      mload(0x40)\n      dup2\n      0xffffffff\n      and\n      0xe0\n      shl\n      dup2\n      mstore\n      0x04\n      add\n      0x20\n      mload(0x40)\n      dup1\n      dup4\n      sub\n      dup2\n      dup7\n      dup1\n      extcodesize\n      iszero\n      dup1\n      iszero\n      tag_147\n      jumpi\n      0x00\n      dup1\n      revert\n    tag_147:\n      pop\n      gas\n      staticcall\n      iszero\n      dup1\n      iszero\n      tag_149\n      jumpi\n      returndatasize\n      0x00\n      dup1\n      returndatacopy\n      revert(0x00, returndatasize)\n    tag_149:\n      pop\n      pop\n      pop\n      pop\n      mload(0x40)\n      returndatasize\n      not(0x1f)\n      0x1f\n      dup3\n      add\n      and\n      dup3\n      add\n      dup1\n      0x40\n      mstore\n      pop\n      dup2\n      add\n      swap1\n      tag_150\n      swap2\n      swap1\n      tag_125\n      jump\t// in\n    tag_150:\n        /* \"WandInstruments.sol\":5956:6014  this.getBackingPrice() * (growthFactor + (6*(DECIMALS)/5)) */\n      tag_151\n      swap2\n      swap1\n      tag_127\n      jump\t// in\n    tag_151:\n        /* \"WandInstruments.sol\":5955:6027  (this.getBackingPrice() * (growthFactor + (6*(DECIMALS)/5)))/ (DECIMALS) */\n      tag_152\n      swap2\n      swap1\n      tag_129\n      jump\t// in\n    tag_152:\n        /* \"WandInstruments.sol\":5948:6027  return (this.getBackingPrice() * (growthFactor + (6*(DECIMALS)/5)))/ (DECIMALS) */\n      swap1\n      pop\n        /* \"WandInstruments.sol\":5811:6035  function getSellPrice() external view returns (uint256){\r... */\n      swap1\n      jump\t// out\n        /* \"WandInstruments.sol\":2985:3164  function decDiv18(uint x, uint y) public pure returns (uint decQuotient) {\r... */\n    tag_57:\n        /* \"WandInstruments.sol\":3040:3056  uint decQuotient */\n      0x00\n        /* \"WandInstruments.sol\":3069:3085  uint prod_xTEN18 */\n      dup1\n        /* \"WandInstruments.sol\":3088:3104  mul(x, DECIMALS) */\n      tag_154\n        /* \"WandInstruments.sol\":3092:3093  x */\n      dup5\n        /* \"WandInstruments.sol\":283:289  10**18 */\n      0x0de0b6b3a7640000\n        /* \"WandInstruments.sol\":3088:3091  mul */\n      tag_155\n        /* \"WandInstruments.sol\":3088:3104  mul(x, DECIMALS) */\n      jump\t// in\n    tag_154:\n        /* \"WandInstruments.sol\":3069:3104  uint prod_xTEN18 = mul(x, DECIMALS) */\n      swap1\n      pop\n        /* \"WandInstruments.sol\":3155:3156  y */\n      dup3\n        /* \"WandInstruments.sol\":3129:3152  add(prod_xTEN18, y / 2) */\n      tag_156\n        /* \"WandInstruments.sol\":3133:3144  prod_xTEN18 */\n      dup3\n        /* \"WandInstruments.sol\":3150:3151  2 */\n      0x02\n        /* \"WandInstruments.sol\":3146:3147  y */\n      dup7\n        /* \"WandInstruments.sol\":3146:3151  y / 2 */\n      tag_157\n      swap2\n      swap1\n      tag_129\n      jump\t// in\n    tag_157:\n        /* \"WandInstruments.sol\":3129:3132  add */\n      tag_158\n        /* \"WandInstruments.sol\":3129:3152  add(prod_xTEN18, y / 2) */\n      jump\t// in\n    tag_156:\n        /* \"WandInstruments.sol\":3129:3156  add(prod_xTEN18, y / 2) / y */\n      tag_159\n      swap2\n      swap1\n      tag_129\n      jump\t// in\n    tag_159:\n        /* \"WandInstruments.sol\":3115:3156  decQuotient = add(prod_xTEN18, y / 2) / y */\n      swap2\n      pop\n        /* \"WandInstruments.sol\":3058:3164  {\r... */\n      pop\n        /* \"WandInstruments.sol\":2985:3164  function decDiv18(uint x, uint y) public pure returns (uint decQuotient) {\r... */\n      swap3\n      swap2\n      pop\n      pop\n      jump\t// out\n        /* \"WandInstruments.sol\":4516:5313  function buyScepter(uint256 amountSCPtoBuy) public payable{\r... */\n    tag_61:\n        /* \"WandInstruments.sol\":4646:4673  uint256 trader_usdc_balance */\n      0x00\n        /* \"WandInstruments.sol\":4676:4684  mockUSDC */\n      0x12\n      0x00\n      swap1\n      sload\n      swap1\n      0x0100\n      exp\n      swap1\n      div\n      0xffffffffffffffffffffffffffffffffffffffff\n      and\n        /* \"WandInstruments.sol\":4676:4694  mockUSDC.balanceOf */\n      0xffffffffffffffffffffffffffffffffffffffff\n      and\n      0x70a08231\n        /* \"WandInstruments.sol\":4695:4705  msg.sender */\n      caller\n        /* \"WandInstruments.sol\":4676:4706  mockUSDC.balanceOf(msg.sender) */\n      mload(0x40)\n      dup3\n      0xffffffff\n      and\n      0xe0\n      shl\n      dup2\n      mstore\n      0x04\n      add\n      tag_161\n      swap2\n      swap1\n      tag_35\n      jump\t// in\n    tag_161:\n      0x20\n      mload(0x40)\n      dup1\n      dup4\n      sub\n      dup2\n      dup7\n      dup1\n      extcodesize\n      iszero\n      dup1\n      iszero\n      tag_162\n      jumpi\n      0x00\n      dup1\n      revert\n    tag_162:\n      pop\n      gas\n      staticcall\n      iszero\n      dup1\n      iszero\n      tag_164\n      jumpi\n      returndatasize\n      0x00\n      dup1\n      returndatacopy\n      revert(0x00, returndatasize)\n    tag_164:\n      pop\n      pop\n      pop\n      pop\n      mload(0x40)\n      returndatasize\n      not(0x1f)\n      0x1f\n      dup3\n      add\n      and\n      dup3\n      add\n      dup1\n      0x40\n      mstore\n      pop\n      dup2\n      add\n      swap1\n      tag_165\n      swap2\n      swap1\n      tag_125\n      jump\t// in\n    tag_165:\n        /* \"WandInstruments.sol\":4646:4706  uint256 trader_usdc_balance = mockUSDC.balanceOf(msg.sender) */\n      swap1\n      pop\n        /* \"WandInstruments.sol\":4747:4761  amountSCPtoBuy */\n      dup2\n        /* \"WandInstruments.sol\":4725:4744  trader_usdc_balance */\n      dup2\n        /* \"WandInstruments.sol\":4725:4761  trader_usdc_balance > amountSCPtoBuy */\n      gt\n        /* \"WandInstruments.sol\":4717:4792  require(trader_usdc_balance > amountSCPtoBuy, \"You dont have that amount!\") */\n      tag_166\n      jumpi\n      mload(0x40)\n      0x08c379a000000000000000000000000000000000000000000000000000000000\n      dup2\n      mstore\n      0x04\n      add\n      tag_167\n      swap1\n      tag_168\n      jump\t// in\n    tag_167:\n      mload(0x40)\n      dup1\n      swap2\n      sub\n      swap1\n      revert\n    tag_166:\n        /* \"WandInstruments.sol\":4843:4846  tSC */\n      0x11\n      0x00\n      swap1\n      sload\n      swap1\n      0x0100\n      exp\n      swap1\n      div\n      0xffffffffffffffffffffffffffffffffffffffff\n      and\n        /* \"WandInstruments.sol\":4843:4855  tSC.transfer */\n      0xffffffffffffffffffffffffffffffffffffffff\n      and\n      0xa9059cbb\n        /* \"WandInstruments.sol\":4856:4866  msg.sender */\n      caller\n        /* \"WandInstruments.sol\":4868:4882  amountSCPtoBuy */\n      dup5\n        /* \"WandInstruments.sol\":4843:4883  tSC.transfer(msg.sender, amountSCPtoBuy) */\n      mload(0x40)\n      dup4\n      0xffffffff\n      and\n      0xe0\n      shl\n      dup2\n      mstore\n      0x04\n      add\n      tag_169\n      swap3\n      swap2\n      swap1\n      tag_138\n      jump\t// in\n    tag_169:\n      0x20\n      mload(0x40)\n      dup1\n      dup4\n      sub\n      dup2\n      0x00\n      dup8\n      dup1\n      extcodesize\n      iszero\n      dup1\n      iszero\n      tag_170\n      jumpi\n      0x00\n      dup1\n      revert\n    tag_170:\n      pop\n      gas\n      call\n      iszero\n      dup1\n      iszero\n      tag_172\n      jumpi\n      returndatasize\n      0x00\n      dup1\n      returndatacopy\n      revert(0x00, returndatasize)\n    tag_172:\n      pop\n      pop\n      pop\n      pop\n      mload(0x40)\n      returndatasize\n      not(0x1f)\n      0x1f\n      dup3\n      add\n      and\n      dup3\n      add\n      dup1\n      0x40\n      mstore\n      pop\n      dup2\n      add\n      swap1\n      tag_173\n      swap2\n      swap1\n      tag_174\n      jump\t// in\n    tag_173:\n      pop\n        /* \"WandInstruments.sol\":5017:5087  _safeTransferFrom(mockUSDC, msg.sender, address(this), amountSCPtoBuy) */\n      tag_175\n        /* \"WandInstruments.sol\":5035:5043  mockUSDC */\n      0x12\n      0x00\n      swap1\n      sload\n      swap1\n      0x0100\n      exp\n      swap1\n      div\n      0xffffffffffffffffffffffffffffffffffffffff\n      and\n        /* \"WandInstruments.sol\":5045:5055  msg.sender */\n      caller\n        /* \"WandInstruments.sol\":5065:5069  this */\n      address\n        /* \"WandInstruments.sol\":5072:5086  amountSCPtoBuy */\n      dup6\n        /* \"WandInstruments.sol\":5017:5034  _safeTransferFrom */\n      tag_176\n        /* \"WandInstruments.sol\":5017:5087  _safeTransferFrom(mockUSDC, msg.sender, address(this), amountSCPtoBuy) */\n      jump\t// in\n    tag_175:\n        /* \"WandInstruments.sol\":4574:5313  {\r... */\n      pop\n        /* \"WandInstruments.sol\":4516:5313  function buyScepter(uint256 amountSCPtoBuy) public payable{\r... */\n      pop\n      jump\t// out\n        /* \"WandInstruments.sol\":807:839  uint256 public daysInCalculation */\n    tag_64:\n      sload(0x0b)\n      dup2\n      jump\t// out\n        /* \"WandInstruments.sol\":1280:1297  IERC20 public tSC */\n    tag_68:\n      0x11\n      0x00\n      swap1\n      sload\n      swap1\n      0x0100\n      exp\n      swap1\n      div\n      0xffffffffffffffffffffffffffffffffffffffff\n      and\n      dup2\n      jump\t// out\n        /* \"WandInstruments.sol\":1058:1075  int128 public res */\n    tag_73:\n      0x0f\n      0x00\n      swap1\n      sload\n      swap1\n      0x0100\n      exp\n      swap1\n      div\n      0x0f\n      signextend\n      dup2\n      jump\t// out\n        /* \"WandInstruments.sol\":583:617  address public scepterTreasuryAddr */\n    tag_78:\n      0x07\n      0x00\n      swap1\n      sload\n      swap1\n      0x0100\n      exp\n      swap1\n      div\n      0xffffffffffffffffffffffffffffffffffffffff\n      and\n      dup2\n      jump\t// out\n        /* \"WandInstruments.sol\":332:357  uint256 public sellFactor */\n    tag_82:\n      sload(0x01)\n      dup2\n      jump\t// out\n        /* \"WandInstruments.sol\":3627:4510  function sellScepter(uint256 amountSCPtoSell) public payable{\r... */\n    tag_86:\n        /* \"WandInstruments.sol\":3759:3785  uint256 trader_tsc_balance */\n      0x00\n        /* \"WandInstruments.sol\":3788:3791  tSC */\n      0x11\n      0x00\n      swap1\n      sload\n      swap1\n      0x0100\n      exp\n      swap1\n      div\n      0xffffffffffffffffffffffffffffffffffffffff\n      and\n        /* \"WandInstruments.sol\":3788:3801  tSC.balanceOf */\n      0xffffffffffffffffffffffffffffffffffffffff\n      and\n      0x70a08231\n        /* \"WandInstruments.sol\":3802:3812  msg.sender */\n      caller\n        /* \"WandInstruments.sol\":3788:3813  tSC.balanceOf(msg.sender) */\n      mload(0x40)\n      dup3\n      0xffffffff\n      and\n      0xe0\n      shl\n      dup2\n      mstore\n      0x04\n      add\n      tag_178\n      swap2\n      swap1\n      tag_35\n      jump\t// in\n    tag_178:\n      0x20\n      mload(0x40)\n      dup1\n      dup4\n      sub\n      dup2\n      dup7\n      dup1\n      extcodesize\n      iszero\n      dup1\n      iszero\n      tag_179\n      jumpi\n      0x00\n      dup1\n      revert\n    tag_179:\n      pop\n      gas\n      staticcall\n      iszero\n      dup1\n      iszero\n      tag_181\n      jumpi\n      returndatasize\n      0x00\n      dup1\n      returndatacopy\n      revert(0x00, returndatasize)\n    tag_181:\n      pop\n      pop\n      pop\n      pop\n      mload(0x40)\n      returndatasize\n      not(0x1f)\n      0x1f\n      dup3\n      add\n      and\n      dup3\n      add\n      dup1\n      0x40\n      mstore\n      pop\n      dup2\n      add\n      swap1\n      tag_182\n      swap2\n      swap1\n      tag_125\n      jump\t// in\n    tag_182:\n        /* \"WandInstruments.sol\":3759:3813  uint256 trader_tsc_balance = tSC.balanceOf(msg.sender) */\n      swap1\n      pop\n        /* \"WandInstruments.sol\":3853:3868  amountSCPtoSell */\n      dup2\n        /* \"WandInstruments.sol\":3832:3850  trader_tsc_balance */\n      dup2\n        /* \"WandInstruments.sol\":3832:3868  trader_tsc_balance > amountSCPtoSell */\n      gt\n        /* \"WandInstruments.sol\":3824:3899  require(trader_tsc_balance > amountSCPtoSell, \"You dont have that amount!\") */\n      tag_183\n      jumpi\n      mload(0x40)\n      0x08c379a000000000000000000000000000000000000000000000000000000000\n      dup2\n      mstore\n      0x04\n      add\n      tag_184\n      swap1\n      tag_168\n      jump\t// in\n    tag_184:\n      mload(0x40)\n      dup1\n      swap2\n      sub\n      swap1\n      revert\n    tag_183:\n        /* \"WandInstruments.sol\":4101:4109  mockUSDC */\n      0x12\n      0x00\n      swap1\n      sload\n      swap1\n      0x0100\n      exp\n      swap1\n      div\n      0xffffffffffffffffffffffffffffffffffffffff\n      and\n        /* \"WandInstruments.sol\":4101:4118  mockUSDC.transfer */\n      0xffffffffffffffffffffffffffffffffffffffff\n      and\n      0xa9059cbb\n        /* \"WandInstruments.sol\":4119:4129  msg.sender */\n      caller\n        /* \"WandInstruments.sol\":283:289  10**18 */\n      0x0de0b6b3a7640000\n        /* \"WandInstruments.sol\":4150:4151  1 */\n      0x01\n        /* \"WandInstruments.sol\":4150:4162  1*(DECIMALS) */\n      tag_185\n      swap2\n      swap1\n      tag_127\n      jump\t// in\n    tag_185:\n        /* \"WandInstruments.sol\":4131:4146  amountSCPtoSell */\n      dup6\n        /* \"WandInstruments.sol\":4131:4163  amountSCPtoSell + (1*(DECIMALS)) */\n      tag_186\n      swap2\n      swap1\n      tag_146\n      jump\t// in\n    tag_186:\n        /* \"WandInstruments.sol\":4101:4164  mockUSDC.transfer(msg.sender, amountSCPtoSell + (1*(DECIMALS))) */\n      mload(0x40)\n      dup4\n      0xffffffff\n      and\n      0xe0\n      shl\n      dup2\n      mstore\n      0x04\n      add\n      tag_187\n      swap3\n      swap2\n      swap1\n      tag_138\n      jump\t// in\n    tag_187:\n      0x20\n      mload(0x40)\n      dup1\n      dup4\n      sub\n      dup2\n      0x00\n      dup8\n      dup1\n      extcodesize\n      iszero\n      dup1\n      iszero\n      tag_188\n      jumpi\n      0x00\n      dup1\n      revert\n    tag_188:\n      pop\n      gas\n      call\n      iszero\n      dup1\n      iszero\n      tag_190\n      jumpi\n      returndatasize\n      0x00\n      dup1\n      returndatacopy\n      revert(0x00, returndatasize)\n    tag_190:\n      pop\n      pop\n      pop\n      pop\n      mload(0x40)\n      returndatasize\n      not(0x1f)\n      0x1f\n      dup3\n      add\n      and\n      dup3\n      add\n      dup1\n      0x40\n      mstore\n      pop\n      dup2\n      add\n      swap1\n      tag_191\n      swap2\n      swap1\n      tag_174\n      jump\t// in\n    tag_191:\n      pop\n        /* \"WandInstruments.sol\":4220:4286  _safeTransferFrom(tSC, msg.sender, address(this), amountSCPtoSell) */\n      tag_192\n        /* \"WandInstruments.sol\":4238:4241  tSC */\n      0x11\n      0x00\n      swap1\n      sload\n      swap1\n      0x0100\n      exp\n      swap1\n      div\n      0xffffffffffffffffffffffffffffffffffffffff\n      and\n        /* \"WandInstruments.sol\":4243:4253  msg.sender */\n      caller\n        /* \"WandInstruments.sol\":4263:4267  this */\n      address\n        /* \"WandInstruments.sol\":4270:4285  amountSCPtoSell */\n      dup6\n        /* \"WandInstruments.sol\":4220:4237  _safeTransferFrom */\n      tag_176\n        /* \"WandInstruments.sol\":4220:4286  _safeTransferFrom(tSC, msg.sender, address(this), amountSCPtoSell) */\n      jump\t// in\n    tag_192:\n        /* \"WandInstruments.sol\":3687:4510  {\r... */\n      pop\n        /* \"WandInstruments.sol\":3627:4510  function sellScepter(uint256 amountSCPtoSell) public payable{\r... */\n      pop\n      jump\t// out\n        /* \"WandInstruments.sol\":1326:1348  IERC20 public mockUSDC */\n    tag_89:\n      0x12\n      0x00\n      swap1\n      sload\n      swap1\n      0x0100\n      exp\n      swap1\n      div\n      0xffffffffffffffffffffffffffffffffffffffff\n      and\n      dup2\n      jump\t// out\n        /* \"WandInstruments.sol\":3172:3356  function queryERC20Balance(address _tokenAddress, address _addressToQuery) view public returns (uint) {\r... */\n    tag_95:\n        /* \"WandInstruments.sol\":3268:3272  uint */\n      0x00\n        /* \"WandInstruments.sol\":3307:3320  _tokenAddress */\n      dup3\n        /* \"WandInstruments.sol\":3292:3331  ERC20Interface(_tokenAddress).balanceOf */\n      0xffffffffffffffffffffffffffffffffffffffff\n      and\n      0x70a08231\n        /* \"WandInstruments.sol\":3332:3347  _addressToQuery */\n      dup4\n        /* \"WandInstruments.sol\":3292:3348  ERC20Interface(_tokenAddress).balanceOf(_addressToQuery) */\n      mload(0x40)\n      dup3\n      0xffffffff\n      and\n      0xe0\n      shl\n      dup2\n      mstore\n      0x04\n      add\n      tag_194\n      swap2\n      swap1\n      tag_35\n      jump\t// in\n    tag_194:\n      0x20\n      mload(0x40)\n      dup1\n      dup4\n      sub\n      dup2\n      dup7\n      dup1\n      extcodesize\n      iszero\n      dup1\n      iszero\n      tag_195\n      jumpi\n      0x00\n      dup1\n      revert\n    tag_195:\n      pop\n      gas\n      staticcall\n      iszero\n      dup1\n      iszero\n      tag_197\n      jumpi\n      returndatasize\n      0x00\n      dup1\n      returndatacopy\n      revert(0x00, returndatasize)\n    tag_197:\n      pop\n      pop\n      pop\n      pop\n      mload(0x40)\n      returndatasize\n      not(0x1f)\n      0x1f\n      dup3\n      add\n      and\n      dup3\n      add\n      dup1\n      0x40\n      mstore\n      pop\n      dup2\n      add\n      swap1\n      tag_198\n      swap2\n      swap1\n      tag_125\n      jump\t// in\n    tag_198:\n        /* \"WandInstruments.sol\":3285:3348  return ERC20Interface(_tokenAddress).balanceOf(_addressToQuery) */\n      swap1\n      pop\n        /* \"WandInstruments.sol\":3172:3356  function queryERC20Balance(address _tokenAddress, address _addressToQuery) view public returns (uint) {\r... */\n      swap3\n      swap2\n      pop\n      pop\n      jump\t// out\n        /* \"WandInstruments.sol\":298:325  uint256 public growthFactor */\n    tag_99:\n      sload(0x00)\n      dup2\n      jump\t// out\n        /* \"WandInstruments.sol\":1082:1152  address public testwallet = 0x617F2E2fD72FD9D5503197092aC168c91465E7f2 */\n    tag_103:\n      0x10\n      0x00\n      swap1\n      sload\n      swap1\n      0x0100\n      exp\n      swap1\n      div\n      0xffffffffffffffffffffffffffffffffffffffff\n      and\n      dup2\n      jump\t// out\n        /* \"WandInstruments.sol\":2807:2977  function decMul18(uint x, uint y) public pure returns (uint decProd) {\r... */\n    tag_108:\n        /* \"WandInstruments.sol\":2862:2874  uint decProd */\n      0x00\n        /* \"WandInstruments.sol\":2887:2899  uint prod_xy */\n      dup1\n        /* \"WandInstruments.sol\":2902:2911  mul(x, y) */\n      tag_200\n        /* \"WandInstruments.sol\":2906:2907  x */\n      dup5\n        /* \"WandInstruments.sol\":2909:2910  y */\n      dup5\n        /* \"WandInstruments.sol\":2902:2905  mul */\n      tag_155\n        /* \"WandInstruments.sol\":2902:2911  mul(x, y) */\n      jump\t// in\n    tag_200:\n        /* \"WandInstruments.sol\":2887:2911  uint prod_xy = mul(x, y) */\n      swap1\n      pop\n        /* \"WandInstruments.sol\":283:289  10**18 */\n      0x0de0b6b3a7640000\n        /* \"WandInstruments.sol\":2932:2958  add(prod_xy, DECIMALS / 2) */\n      tag_201\n        /* \"WandInstruments.sol\":2936:2943  prod_xy */\n      dup3\n        /* \"WandInstruments.sol\":2956:2957  2 */\n      0x02\n        /* \"WandInstruments.sol\":283:289  10**18 */\n      0x0de0b6b3a7640000\n        /* \"WandInstruments.sol\":2945:2957  DECIMALS / 2 */\n      tag_202\n      swap2\n      swap1\n      tag_129\n      jump\t// in\n    tag_202:\n        /* \"WandInstruments.sol\":2932:2935  add */\n      tag_158\n        /* \"WandInstruments.sol\":2932:2958  add(prod_xy, DECIMALS / 2) */\n      jump\t// in\n    tag_201:\n        /* \"WandInstruments.sol\":2932:2969  add(prod_xy, DECIMALS / 2) / DECIMALS */\n      tag_203\n      swap2\n      swap1\n      tag_129\n      jump\t// in\n    tag_203:\n        /* \"WandInstruments.sol\":2922:2969  decProd = add(prod_xy, DECIMALS / 2) / DECIMALS */\n      swap2\n      pop\n        /* \"WandInstruments.sol\":2876:2977  {\r... */\n      pop\n        /* \"WandInstruments.sol\":2807:2977  function decMul18(uint x, uint y) public pure returns (uint decProd) {\r... */\n      swap3\n      swap2\n      pop\n      pop\n      jump\t// out\n        /* \"WandInstruments.sol\":548:576  address public treasury1Addr */\n    tag_112:\n      0x06\n      0x00\n      swap1\n      sload\n      swap1\n      0x0100\n      exp\n      swap1\n      div\n      0xffffffffffffffffffffffffffffffffffffffff\n      and\n      dup2\n      jump\t// out\n        /* \"WandInstruments.sol\":3487:3619  function setDaysUsedInFactors(uint256 numDays) public {  \r... */\n    tag_117:\n        /* \"WandInstruments.sol\":3604:3611  numDays */\n      dup1\n        /* \"WandInstruments.sol\":3584:3601  daysInCalculation */\n      0x0b\n        /* \"WandInstruments.sol\":3584:3611  daysInCalculation = numDays */\n      dup2\n      swap1\n      sstore\n      pop\n        /* \"WandInstruments.sol\":3487:3619  function setDaysUsedInFactors(uint256 numDays) public {  \r... */\n      pop\n      jump\t// out\n        /* \"WandInstruments.sol\":2068:2288  function mul(uint256 a, uint256 b) internal pure returns (uint256) {\r... */\n    tag_155:\n        /* \"WandInstruments.sol\":2126:2133  uint256 */\n      0x00\n        /* \"WandInstruments.sol\":2151:2152  0 */\n      dup1\n        /* \"WandInstruments.sol\":2146:2147  a */\n      dup4\n        /* \"WandInstruments.sol\":2146:2152  a == 0 */\n      eq\n        /* \"WandInstruments.sol\":2142:2181  if (a == 0) {\r... */\n      iszero\n      tag_206\n      jumpi\n        /* \"WandInstruments.sol\":2172:2173  0 */\n      0x00\n        /* \"WandInstruments.sol\":2165:2173  return 0 */\n      swap1\n      pop\n      jump(tag_205)\n        /* \"WandInstruments.sol\":2142:2181  if (a == 0) {\r... */\n    tag_206:\n        /* \"WandInstruments.sol\":2187:2196  uint256 c */\n      0x00\n        /* \"WandInstruments.sol\":2203:2204  b */\n      dup3\n        /* \"WandInstruments.sol\":2199:2200  a */\n      dup5\n        /* \"WandInstruments.sol\":2199:2204  a * b */\n      tag_207\n      swap2\n      swap1\n      tag_127\n      jump\t// in\n    tag_207:\n        /* \"WandInstruments.sol\":2187:2204  uint256 c = a * b */\n      swap1\n      pop\n        /* \"WandInstruments.sol\":2228:2229  b */\n      dup3\n        /* \"WandInstruments.sol\":2223:2224  a */\n      dup5\n        /* \"WandInstruments.sol\":2219:2220  c */\n      dup3\n        /* \"WandInstruments.sol\":2219:2224  c / a */\n      tag_208\n      swap2\n      swap1\n      tag_129\n      jump\t// in\n    tag_208:\n        /* \"WandInstruments.sol\":2219:2229  c / a == b */\n      eq\n        /* \"WandInstruments.sol\":2211:2267  require(c / a == b, \"uint overflow from multiplication\") */\n      tag_209\n      jumpi\n      mload(0x40)\n      0x08c379a000000000000000000000000000000000000000000000000000000000\n      dup2\n      mstore\n      0x04\n      add\n      tag_210\n      swap1\n      tag_211\n      jump\t// in\n    tag_210:\n      mload(0x40)\n      dup1\n      swap2\n      sub\n      swap1\n      revert\n    tag_209:\n        /* \"WandInstruments.sol\":2281:2282  c */\n      dup1\n        /* \"WandInstruments.sol\":2274:2282  return c */\n      swap2\n      pop\n      pop\n        /* \"WandInstruments.sol\":2068:2288  function mul(uint256 a, uint256 b) internal pure returns (uint256) {\r... */\n    tag_205:\n      swap3\n      swap2\n      pop\n      pop\n      jump\t// out\n        /* \"WandInstruments.sol\":2630:2801  function add(uint256 a, uint256 b) internal pure returns (uint256) {\r... */\n    tag_158:\n        /* \"WandInstruments.sol\":2688:2695  uint256 */\n      0x00\n        /* \"WandInstruments.sol\":2704:2713  uint256 c */\n      dup1\n        /* \"WandInstruments.sol\":2720:2721  b */\n      dup3\n        /* \"WandInstruments.sol\":2716:2717  a */\n      dup5\n        /* \"WandInstruments.sol\":2716:2721  a + b */\n      tag_213\n      swap2\n      swap1\n      tag_146\n      jump\t// in\n    tag_213:\n        /* \"WandInstruments.sol\":2704:2721  uint256 c = a + b */\n      swap1\n      pop\n        /* \"WandInstruments.sol\":2741:2742  a */\n      dup4\n        /* \"WandInstruments.sol\":2736:2737  c */\n      dup2\n        /* \"WandInstruments.sol\":2736:2742  c >= a */\n      lt\n      iszero\n        /* \"WandInstruments.sol\":2728:2780  require(c >= a, \"uint overflow from multiplication\") */\n      tag_214\n      jumpi\n      mload(0x40)\n      0x08c379a000000000000000000000000000000000000000000000000000000000\n      dup2\n      mstore\n      0x04\n      add\n      tag_215\n      swap1\n      tag_211\n      jump\t// in\n    tag_215:\n      mload(0x40)\n      dup1\n      swap2\n      sub\n      swap1\n      revert\n    tag_214:\n        /* \"WandInstruments.sol\":2794:2795  c */\n      dup1\n        /* \"WandInstruments.sol\":2787:2795  return c */\n      swap2\n      pop\n      pop\n        /* \"WandInstruments.sol\":2630:2801  function add(uint256 a, uint256 b) internal pure returns (uint256) {\r... */\n      swap3\n      swap2\n      pop\n      pop\n      jump\t// out\n        /* \"WandInstruments.sol\":6041:6309  function _safeTransferFrom(\r... */\n    tag_176:\n        /* \"WandInstruments.sol\":6195:6204  bool sent */\n      0x00\n        /* \"WandInstruments.sol\":6207:6212  token */\n      dup5\n        /* \"WandInstruments.sol\":6207:6225  token.transferFrom */\n      0xffffffffffffffffffffffffffffffffffffffff\n      and\n      0x23b872dd\n        /* \"WandInstruments.sol\":6226:6232  sender */\n      dup6\n        /* \"WandInstruments.sol\":6234:6243  recipient */\n      dup6\n        /* \"WandInstruments.sol\":6245:6251  amount */\n      dup6\n        /* \"WandInstruments.sol\":6207:6252  token.transferFrom(sender, recipient, amount) */\n      mload(0x40)\n      dup5\n      0xffffffff\n      and\n      0xe0\n      shl\n      dup2\n      mstore\n      0x04\n      add\n      tag_217\n      swap4\n      swap3\n      swap2\n      swap1\n      tag_218\n      jump\t// in\n    tag_217:\n      0x20\n      mload(0x40)\n      dup1\n      dup4\n      sub\n      dup2\n      0x00\n      dup8\n      dup1\n      extcodesize\n      iszero\n      dup1\n      iszero\n      tag_219\n      jumpi\n      0x00\n      dup1\n      revert\n    tag_219:\n      pop\n      gas\n      call\n      iszero\n      dup1\n      iszero\n      tag_221\n      jumpi\n      returndatasize\n      0x00\n      dup1\n      returndatacopy\n      revert(0x00, returndatasize)\n    tag_221:\n      pop\n      pop\n      pop\n      pop\n      mload(0x40)\n      returndatasize\n      not(0x1f)\n      0x1f\n      dup3\n      add\n      and\n      dup3\n      add\n      dup1\n      0x40\n      mstore\n      pop\n      dup2\n      add\n      swap1\n      tag_222\n      swap2\n      swap1\n      tag_174\n      jump\t// in\n    tag_222:\n        /* \"WandInstruments.sol\":6195:6252  bool sent = token.transferFrom(sender, recipient, amount) */\n      swap1\n      pop\n        /* \"WandInstruments.sol\":6271:6275  sent */\n      dup1\n        /* \"WandInstruments.sol\":6263:6301  require(sent, \"Token transfer failed\") */\n      tag_223\n      jumpi\n      mload(0x40)\n      0x08c379a000000000000000000000000000000000000000000000000000000000\n      dup2\n      mstore\n      0x04\n      add\n      tag_224\n      swap1\n      tag_225\n      jump\t// in\n    tag_224:\n      mload(0x40)\n      dup1\n      swap2\n      sub\n      swap1\n      revert\n    tag_223:\n        /* \"WandInstruments.sol\":6184:6309  {\r... */\n      pop\n        /* \"WandInstruments.sol\":6041:6309  function _safeTransferFrom(\r... */\n      pop\n      pop\n      pop\n      pop\n      jump\t// out\n        /* \"#utility.yul\":7:146   */\n    tag_227:\n        /* \"#utility.yul\":53:58   */\n      0x00\n        /* \"#utility.yul\":91:97   */\n      dup2\n        /* \"#utility.yul\":78:98   */\n      calldataload\n        /* \"#utility.yul\":69:98   */\n      swap1\n      pop\n        /* \"#utility.yul\":107:140   */\n      tag_229\n        /* \"#utility.yul\":134:139   */\n      dup2\n        /* \"#utility.yul\":107:140   */\n      tag_230\n      jump\t// in\n    tag_229:\n        /* \"#utility.yul\":7:146   */\n      swap3\n      swap2\n      pop\n      pop\n      jump\t// out\n        /* \"#utility.yul\":152:289   */\n    tag_231:\n        /* \"#utility.yul\":206:211   */\n      0x00\n        /* \"#utility.yul\":237:243   */\n      dup2\n        /* \"#utility.yul\":231:244   */\n      mload\n        /* \"#utility.yul\":222:244   */\n      swap1\n      pop\n        /* \"#utility.yul\":253:283   */\n      tag_233\n        /* \"#utility.yul\":277:282   */\n      dup2\n        /* \"#utility.yul\":253:283   */\n      tag_234\n      jump\t// in\n    tag_233:\n        /* \"#utility.yul\":152:289   */\n      swap3\n      swap2\n      pop\n      pop\n      jump\t// out\n        /* \"#utility.yul\":295:434   */\n    tag_235:\n        /* \"#utility.yul\":341:346   */\n      0x00\n        /* \"#utility.yul\":379:385   */\n      dup2\n        /* \"#utility.yul\":366:386   */\n      calldataload\n        /* \"#utility.yul\":357:386   */\n      swap1\n      pop\n        /* \"#utility.yul\":395:428   */\n      tag_237\n        /* \"#utility.yul\":422:427   */\n      dup2\n        /* \"#utility.yul\":395:428   */\n      tag_238\n      jump\t// in\n    tag_237:\n        /* \"#utility.yul\":295:434   */\n      swap3\n      swap2\n      pop\n      pop\n      jump\t// out\n        /* \"#utility.yul\":440:583   */\n    tag_239:\n        /* \"#utility.yul\":497:502   */\n      0x00\n        /* \"#utility.yul\":528:534   */\n      dup2\n        /* \"#utility.yul\":522:535   */\n      mload\n        /* \"#utility.yul\":513:535   */\n      swap1\n      pop\n        /* \"#utility.yul\":544:577   */\n      tag_241\n        /* \"#utility.yul\":571:576   */\n      dup2\n        /* \"#utility.yul\":544:577   */\n      tag_238\n      jump\t// in\n    tag_241:\n        /* \"#utility.yul\":440:583   */\n      swap3\n      swap2\n      pop\n      pop\n      jump\t// out\n        /* \"#utility.yul\":589:1063   */\n    tag_94:\n        /* \"#utility.yul\":657:663   */\n      0x00\n        /* \"#utility.yul\":665:671   */\n      dup1\n        /* \"#utility.yul\":714:716   */\n      0x40\n        /* \"#utility.yul\":702:711   */\n      dup4\n        /* \"#utility.yul\":693:700   */\n      dup6\n        /* \"#utility.yul\":689:712   */\n      sub\n        /* \"#utility.yul\":685:717   */\n      slt\n        /* \"#utility.yul\":682:801   */\n      iszero\n      tag_243\n      jumpi\n        /* \"#utility.yul\":720:799   */\n      tag_244\n      tag_245\n      jump\t// in\n    tag_244:\n        /* \"#utility.yul\":682:801   */\n    tag_243:\n        /* \"#utility.yul\":840:841   */\n      0x00\n        /* \"#utility.yul\":865:918   */\n      tag_246\n        /* \"#utility.yul\":910:917   */\n      dup6\n        /* \"#utility.yul\":901:907   */\n      dup3\n        /* \"#utility.yul\":890:899   */\n      dup7\n        /* \"#utility.yul\":886:908   */\n      add\n        /* \"#utility.yul\":865:918   */\n      tag_227\n      jump\t// in\n    tag_246:\n        /* \"#utility.yul\":855:918   */\n      swap3\n      pop\n        /* \"#utility.yul\":811:928   */\n      pop\n        /* \"#utility.yul\":967:969   */\n      0x20\n        /* \"#utility.yul\":993:1046   */\n      tag_247\n        /* \"#utility.yul\":1038:1045   */\n      dup6\n        /* \"#utility.yul\":1029:1035   */\n      dup3\n        /* \"#utility.yul\":1018:1027   */\n      dup7\n        /* \"#utility.yul\":1014:1036   */\n      add\n        /* \"#utility.yul\":993:1046   */\n      tag_227\n      jump\t// in\n    tag_247:\n        /* \"#utility.yul\":983:1046   */\n      swap2\n      pop\n        /* \"#utility.yul\":938:1056   */\n      pop\n        /* \"#utility.yul\":589:1063   */\n      swap3\n      pop\n      swap3\n      swap1\n      pop\n      jump\t// out\n        /* \"#utility.yul\":1069:1414   */\n    tag_174:\n        /* \"#utility.yul\":1136:1142   */\n      0x00\n        /* \"#utility.yul\":1185:1187   */\n      0x20\n        /* \"#utility.yul\":1173:1182   */\n      dup3\n        /* \"#utility.yul\":1164:1171   */\n      dup5\n        /* \"#utility.yul\":1160:1183   */\n      sub\n        /* \"#utility.yul\":1156:1188   */\n      slt\n        /* \"#utility.yul\":1153:1272   */\n      iszero\n      tag_249\n      jumpi\n        /* \"#utility.yul\":1191:1270   */\n      tag_250\n      tag_245\n      jump\t// in\n    tag_250:\n        /* \"#utility.yul\":1153:1272   */\n    tag_249:\n        /* \"#utility.yul\":1311:1312   */\n      0x00\n        /* \"#utility.yul\":1336:1397   */\n      tag_251\n        /* \"#utility.yul\":1389:1396   */\n      dup5\n        /* \"#utility.yul\":1380:1386   */\n      dup3\n        /* \"#utility.yul\":1369:1378   */\n      dup6\n        /* \"#utility.yul\":1365:1387   */\n      add\n        /* \"#utility.yul\":1336:1397   */\n      tag_231\n      jump\t// in\n    tag_251:\n        /* \"#utility.yul\":1326:1397   */\n      swap2\n      pop\n        /* \"#utility.yul\":1282:1407   */\n      pop\n        /* \"#utility.yul\":1069:1414   */\n      swap3\n      swap2\n      pop\n      pop\n      jump\t// out\n        /* \"#utility.yul\":1420:1749   */\n    tag_43:\n        /* \"#utility.yul\":1479:1485   */\n      0x00\n        /* \"#utility.yul\":1528:1530   */\n      0x20\n        /* \"#utility.yul\":1516:1525   */\n      dup3\n        /* \"#utility.yul\":1507:1514   */\n      dup5\n        /* \"#utility.yul\":1503:1526   */\n      sub\n        /* \"#utility.yul\":1499:1531   */\n      slt\n        /* \"#utility.yul\":1496:1615   */\n      iszero\n      tag_253\n      jumpi\n        /* \"#utility.yul\":1534:1613   */\n      tag_254\n      tag_245\n      jump\t// in\n    tag_254:\n        /* \"#utility.yul\":1496:1615   */\n    tag_253:\n        /* \"#utility.yul\":1654:1655   */\n      0x00\n        /* \"#utility.yul\":1679:1732   */\n      tag_255\n        /* \"#utility.yul\":1724:1731   */\n      dup5\n        /* \"#utility.yul\":1715:1721   */\n      dup3\n        /* \"#utility.yul\":1704:1713   */\n      dup6\n        /* \"#utility.yul\":1700:1722   */\n      add\n        /* \"#utility.yul\":1679:1732   */\n      tag_235\n      jump\t// in\n    tag_255:\n        /* \"#utility.yul\":1669:1732   */\n      swap2\n      pop\n        /* \"#utility.yul\":1625:1742   */\n      pop\n        /* \"#utility.yul\":1420:1749   */\n      swap3\n      swap2\n      pop\n      pop\n      jump\t// out\n        /* \"#utility.yul\":1755:2106   */\n    tag_125:\n        /* \"#utility.yul\":1825:1831   */\n      0x00\n        /* \"#utility.yul\":1874:1876   */\n      0x20\n        /* \"#utility.yul\":1862:1871   */\n      dup3\n        /* \"#utility.yul\":1853:1860   */\n      dup5\n        /* \"#utility.yul\":1849:1872   */\n      sub\n        /* \"#utility.yul\":1845:1877   */\n      slt\n        /* \"#utility.yul\":1842:1961   */\n      iszero\n      tag_257\n      jumpi\n        /* \"#utility.yul\":1880:1959   */\n      tag_258\n      tag_245\n      jump\t// in\n    tag_258:\n        /* \"#utility.yul\":1842:1961   */\n    tag_257:\n        /* \"#utility.yul\":2000:2001   */\n      0x00\n        /* \"#utility.yul\":2025:2089   */\n      tag_259\n        /* \"#utility.yul\":2081:2088   */\n      dup5\n        /* \"#utility.yul\":2072:2078   */\n      dup3\n        /* \"#utility.yul\":2061:2070   */\n      dup6\n        /* \"#utility.yul\":2057:2079   */\n      add\n        /* \"#utility.yul\":2025:2089   */\n      tag_239\n      jump\t// in\n    tag_259:\n        /* \"#utility.yul\":2015:2089   */\n      swap2\n      pop\n        /* \"#utility.yul\":1971:2099   */\n      pop\n        /* \"#utility.yul\":1755:2106   */\n      swap3\n      swap2\n      pop\n      pop\n      jump\t// out\n        /* \"#utility.yul\":2112:2586   */\n    tag_56:\n        /* \"#utility.yul\":2180:2186   */\n      0x00\n        /* \"#utility.yul\":2188:2194   */\n      dup1\n        /* \"#utility.yul\":2237:2239   */\n      0x40\n        /* \"#utility.yul\":2225:2234   */\n      dup4\n        /* \"#utility.yul\":2216:2223   */\n      dup6\n        /* \"#utility.yul\":2212:2235   */\n      sub\n        /* \"#utility.yul\":2208:2240   */\n      slt\n        /* \"#utility.yul\":2205:2324   */\n      iszero\n      tag_261\n      jumpi\n        /* \"#utility.yul\":2243:2322   */\n      tag_262\n      tag_245\n      jump\t// in\n    tag_262:\n        /* \"#utility.yul\":2205:2324   */\n    tag_261:\n        /* \"#utility.yul\":2363:2364   */\n      0x00\n        /* \"#utility.yul\":2388:2441   */\n      tag_263\n        /* \"#utility.yul\":2433:2440   */\n      dup6\n        /* \"#utility.yul\":2424:2430   */\n      dup3\n        /* \"#utility.yul\":2413:2422   */\n      dup7\n        /* \"#utility.yul\":2409:2431   */\n      add\n        /* \"#utility.yul\":2388:2441   */\n      tag_235\n      jump\t// in\n    tag_263:\n        /* \"#utility.yul\":2378:2441   */\n      swap3\n      pop\n        /* \"#utility.yul\":2334:2451   */\n      pop\n        /* \"#utility.yul\":2490:2492   */\n      0x20\n        /* \"#utility.yul\":2516:2569   */\n      tag_264\n        /* \"#utility.yul\":2561:2568   */\n      dup6\n        /* \"#utility.yul\":2552:2558   */\n      dup3\n        /* \"#utility.yul\":2541:2550   */\n      dup7\n        /* \"#utility.yul\":2537:2559   */\n      add\n        /* \"#utility.yul\":2516:2569   */\n      tag_235\n      jump\t// in\n    tag_264:\n        /* \"#utility.yul\":2506:2569   */\n      swap2\n      pop\n        /* \"#utility.yul\":2461:2579   */\n      pop\n        /* \"#utility.yul\":2112:2586   */\n      swap3\n      pop\n      swap3\n      swap1\n      pop\n      jump\t// out\n        /* \"#utility.yul\":2592:2710   */\n    tag_265:\n        /* \"#utility.yul\":2679:2703   */\n      tag_267\n        /* \"#utility.yul\":2697:2702   */\n      dup2\n        /* \"#utility.yul\":2679:2703   */\n      tag_268\n      jump\t// in\n    tag_267:\n        /* \"#utility.yul\":2674:2677   */\n      dup3\n        /* \"#utility.yul\":2667:2704   */\n      mstore\n        /* \"#utility.yul\":2592:2710   */\n      pop\n      pop\n      jump\t// out\n        /* \"#utility.yul\":2716:2873   */\n    tag_269:\n        /* \"#utility.yul\":2816:2866   */\n      tag_271\n        /* \"#utility.yul\":2860:2865   */\n      dup2\n        /* \"#utility.yul\":2816:2866   */\n      tag_272\n      jump\t// in\n    tag_271:\n        /* \"#utility.yul\":2811:2814   */\n      dup3\n        /* \"#utility.yul\":2804:2867   */\n      mstore\n        /* \"#utility.yul\":2716:2873   */\n      pop\n      pop\n      jump\t// out\n        /* \"#utility.yul\":2879:2994   */\n    tag_273:\n        /* \"#utility.yul\":2964:2987   */\n      tag_275\n        /* \"#utility.yul\":2981:2986   */\n      dup2\n        /* \"#utility.yul\":2964:2987   */\n      tag_276\n      jump\t// in\n    tag_275:\n        /* \"#utility.yul\":2959:2962   */\n      dup3\n        /* \"#utility.yul\":2952:2988   */\n      mstore\n        /* \"#utility.yul\":2879:2994   */\n      pop\n      pop\n      jump\t// out\n        /* \"#utility.yul\":3000:3366   */\n    tag_277:\n        /* \"#utility.yul\":3142:3145   */\n      0x00\n        /* \"#utility.yul\":3163:3230   */\n      tag_279\n        /* \"#utility.yul\":3227:3229   */\n      0x15\n        /* \"#utility.yul\":3222:3225   */\n      dup4\n        /* \"#utility.yul\":3163:3230   */\n      tag_280\n      jump\t// in\n    tag_279:\n        /* \"#utility.yul\":3156:3230   */\n      swap2\n      pop\n        /* \"#utility.yul\":3239:3332   */\n      tag_281\n        /* \"#utility.yul\":3328:3331   */\n      dup3\n        /* \"#utility.yul\":3239:3332   */\n      tag_282\n      jump\t// in\n    tag_281:\n        /* \"#utility.yul\":3357:3359   */\n      0x20\n        /* \"#utility.yul\":3352:3355   */\n      dup3\n        /* \"#utility.yul\":3348:3360   */\n      add\n        /* \"#utility.yul\":3341:3360   */\n      swap1\n      pop\n        /* \"#utility.yul\":3000:3366   */\n      swap2\n      swap1\n      pop\n      jump\t// out\n        /* \"#utility.yul\":3372:3738   */\n    tag_283:\n        /* \"#utility.yul\":3514:3517   */\n      0x00\n        /* \"#utility.yul\":3535:3602   */\n      tag_285\n        /* \"#utility.yul\":3599:3601   */\n      0x1a\n        /* \"#utility.yul\":3594:3597   */\n      dup4\n        /* \"#utility.yul\":3535:3602   */\n      tag_280\n      jump\t// in\n    tag_285:\n        /* \"#utility.yul\":3528:3602   */\n      swap2\n      pop\n        /* \"#utility.yul\":3611:3704   */\n      tag_286\n        /* \"#utility.yul\":3700:3703   */\n      dup3\n        /* \"#utility.yul\":3611:3704   */\n      tag_287\n      jump\t// in\n    tag_286:\n        /* \"#utility.yul\":3729:3731   */\n      0x20\n        /* \"#utility.yul\":3724:3727   */\n      dup3\n        /* \"#utility.yul\":3720:3732   */\n      add\n        /* \"#utility.yul\":3713:3732   */\n      swap1\n      pop\n        /* \"#utility.yul\":3372:3738   */\n      swap2\n      swap1\n      pop\n      jump\t// out\n        /* \"#utility.yul\":3744:4110   */\n    tag_288:\n        /* \"#utility.yul\":3886:3889   */\n      0x00\n        /* \"#utility.yul\":3907:3974   */\n      tag_290\n        /* \"#utility.yul\":3971:3973   */\n      0x21\n        /* \"#utility.yul\":3966:3969   */\n      dup4\n        /* \"#utility.yul\":3907:3974   */\n      tag_280\n      jump\t// in\n    tag_290:\n        /* \"#utility.yul\":3900:3974   */\n      swap2\n      pop\n        /* \"#utility.yul\":3983:4076   */\n      tag_291\n        /* \"#utility.yul\":4072:4075   */\n      dup3\n        /* \"#utility.yul\":3983:4076   */\n      tag_292\n      jump\t// in\n    tag_291:\n        /* \"#utility.yul\":4101:4103   */\n      0x40\n        /* \"#utility.yul\":4096:4099   */\n      dup3\n        /* \"#utility.yul\":4092:4104   */\n      add\n        /* \"#utility.yul\":4085:4104   */\n      swap1\n      pop\n        /* \"#utility.yul\":3744:4110   */\n      swap2\n      swap1\n      pop\n      jump\t// out\n        /* \"#utility.yul\":4116:4234   */\n    tag_293:\n        /* \"#utility.yul\":4203:4227   */\n      tag_295\n        /* \"#utility.yul\":4221:4226   */\n      dup2\n        /* \"#utility.yul\":4203:4227   */\n      tag_296\n      jump\t// in\n    tag_295:\n        /* \"#utility.yul\":4198:4201   */\n      dup3\n        /* \"#utility.yul\":4191:4228   */\n      mstore\n        /* \"#utility.yul\":4116:4234   */\n      pop\n      pop\n      jump\t// out\n        /* \"#utility.yul\":4240:4462   */\n    tag_35:\n        /* \"#utility.yul\":4333:4337   */\n      0x00\n        /* \"#utility.yul\":4371:4373   */\n      0x20\n        /* \"#utility.yul\":4360:4369   */\n      dup3\n        /* \"#utility.yul\":4356:4374   */\n      add\n        /* \"#utility.yul\":4348:4374   */\n      swap1\n      pop\n        /* \"#utility.yul\":4384:4455   */\n      tag_298\n        /* \"#utility.yul\":4452:4453   */\n      0x00\n        /* \"#utility.yul\":4441:4450   */\n      dup4\n        /* \"#utility.yul\":4437:4454   */\n      add\n        /* \"#utility.yul\":4428:4434   */\n      dup5\n        /* \"#utility.yul\":4384:4455   */\n      tag_265\n      jump\t// in\n    tag_298:\n        /* \"#utility.yul\":4240:4462   */\n      swap3\n      swap2\n      pop\n      pop\n      jump\t// out\n        /* \"#utility.yul\":4468:4910   */\n    tag_218:\n        /* \"#utility.yul\":4617:4621   */\n      0x00\n        /* \"#utility.yul\":4655:4657   */\n      0x60\n        /* \"#utility.yul\":4644:4653   */\n      dup3\n        /* \"#utility.yul\":4640:4658   */\n      add\n        /* \"#utility.yul\":4632:4658   */\n      swap1\n      pop\n        /* \"#utility.yul\":4668:4739   */\n      tag_300\n        /* \"#utility.yul\":4736:4737   */\n      0x00\n        /* \"#utility.yul\":4725:4734   */\n      dup4\n        /* \"#utility.yul\":4721:4738   */\n      add\n        /* \"#utility.yul\":4712:4718   */\n      dup7\n        /* \"#utility.yul\":4668:4739   */\n      tag_265\n      jump\t// in\n    tag_300:\n        /* \"#utility.yul\":4749:4821   */\n      tag_301\n        /* \"#utility.yul\":4817:4819   */\n      0x20\n        /* \"#utility.yul\":4806:4815   */\n      dup4\n        /* \"#utility.yul\":4802:4820   */\n      add\n        /* \"#utility.yul\":4793:4799   */\n      dup6\n        /* \"#utility.yul\":4749:4821   */\n      tag_265\n      jump\t// in\n    tag_301:\n        /* \"#utility.yul\":4831:4903   */\n      tag_302\n        /* \"#utility.yul\":4899:4901   */\n      0x40\n        /* \"#utility.yul\":4888:4897   */\n      dup4\n        /* \"#utility.yul\":4884:4902   */\n      add\n        /* \"#utility.yul\":4875:4881   */\n      dup5\n        /* \"#utility.yul\":4831:4903   */\n      tag_293\n      jump\t// in\n    tag_302:\n        /* \"#utility.yul\":4468:4910   */\n      swap5\n      swap4\n      pop\n      pop\n      pop\n      pop\n      jump\t// out\n        /* \"#utility.yul\":4916:5248   */\n    tag_138:\n        /* \"#utility.yul\":5037:5041   */\n      0x00\n        /* \"#utility.yul\":5075:5077   */\n      0x40\n        /* \"#utility.yul\":5064:5073   */\n      dup3\n        /* \"#utility.yul\":5060:5078   */\n      add\n        /* \"#utility.yul\":5052:5078   */\n      swap1\n      pop\n        /* \"#utility.yul\":5088:5159   */\n      tag_304\n        /* \"#utility.yul\":5156:5157   */\n      0x00\n        /* \"#utility.yul\":5145:5154   */\n      dup4\n        /* \"#utility.yul\":5141:5158   */\n      add\n        /* \"#utility.yul\":5132:5138   */\n      dup6\n        /* \"#utility.yul\":5088:5159   */\n      tag_265\n      jump\t// in\n    tag_304:\n        /* \"#utility.yul\":5169:5241   */\n      tag_305\n        /* \"#utility.yul\":5237:5239   */\n      0x20\n        /* \"#utility.yul\":5226:5235   */\n      dup4\n        /* \"#utility.yul\":5222:5240   */\n      add\n        /* \"#utility.yul\":5213:5219   */\n      dup5\n        /* \"#utility.yul\":5169:5241   */\n      tag_293\n      jump\t// in\n    tag_305:\n        /* \"#utility.yul\":4916:5248   */\n      swap4\n      swap3\n      pop\n      pop\n      pop\n      jump\t// out\n        /* \"#utility.yul\":5254:5502   */\n    tag_70:\n        /* \"#utility.yul\":5360:5364   */\n      0x00\n        /* \"#utility.yul\":5398:5400   */\n      0x20\n        /* \"#utility.yul\":5387:5396   */\n      dup3\n        /* \"#utility.yul\":5383:5401   */\n      add\n        /* \"#utility.yul\":5375:5401   */\n      swap1\n      pop\n        /* \"#utility.yul\":5411:5495   */\n      tag_307\n        /* \"#utility.yul\":5492:5493   */\n      0x00\n        /* \"#utility.yul\":5481:5490   */\n      dup4\n        /* \"#utility.yul\":5477:5494   */\n      add\n        /* \"#utility.yul\":5468:5474   */\n      dup5\n        /* \"#utility.yul\":5411:5495   */\n      tag_269\n      jump\t// in\n    tag_307:\n        /* \"#utility.yul\":5254:5502   */\n      swap3\n      swap2\n      pop\n      pop\n      jump\t// out\n        /* \"#utility.yul\":5508:5726   */\n    tag_75:\n        /* \"#utility.yul\":5599:5603   */\n      0x00\n        /* \"#utility.yul\":5637:5639   */\n      0x20\n        /* \"#utility.yul\":5626:5635   */\n      dup3\n        /* \"#utility.yul\":5622:5640   */\n      add\n        /* \"#utility.yul\":5614:5640   */\n      swap1\n      pop\n        /* \"#utility.yul\":5650:5719   */\n      tag_309\n        /* \"#utility.yul\":5716:5717   */\n      0x00\n        /* \"#utility.yul\":5705:5714   */\n      dup4\n        /* \"#utility.yul\":5701:5718   */\n      add\n        /* \"#utility.yul\":5692:5698   */\n      dup5\n        /* \"#utility.yul\":5650:5719   */\n      tag_273\n      jump\t// in\n    tag_309:\n        /* \"#utility.yul\":5508:5726   */\n      swap3\n      swap2\n      pop\n      pop\n      jump\t// out\n        /* \"#utility.yul\":5732:6151   */\n    tag_225:\n        /* \"#utility.yul\":5898:5902   */\n      0x00\n        /* \"#utility.yul\":5936:5938   */\n      0x20\n        /* \"#utility.yul\":5925:5934   */\n      dup3\n        /* \"#utility.yul\":5921:5939   */\n      add\n        /* \"#utility.yul\":5913:5939   */\n      swap1\n      pop\n        /* \"#utility.yul\":5985:5994   */\n      dup2\n        /* \"#utility.yul\":5979:5983   */\n      dup2\n        /* \"#utility.yul\":5975:5995   */\n      sub\n        /* \"#utility.yul\":5971:5972   */\n      0x00\n        /* \"#utility.yul\":5960:5969   */\n      dup4\n        /* \"#utility.yul\":5956:5973   */\n      add\n        /* \"#utility.yul\":5949:5996   */\n      mstore\n        /* \"#utility.yul\":6013:6144   */\n      tag_311\n        /* \"#utility.yul\":6139:6143   */\n      dup2\n        /* \"#utility.yul\":6013:6144   */\n      tag_277\n      jump\t// in\n    tag_311:\n        /* \"#utility.yul\":6005:6144   */\n      swap1\n      pop\n        /* \"#utility.yul\":5732:6151   */\n      swap2\n      swap1\n      pop\n      jump\t// out\n        /* \"#utility.yul\":6157:6576   */\n    tag_168:\n        /* \"#utility.yul\":6323:6327   */\n      0x00\n        /* \"#utility.yul\":6361:6363   */\n      0x20\n        /* \"#utility.yul\":6350:6359   */\n      dup3\n        /* \"#utility.yul\":6346:6364   */\n      add\n        /* \"#utility.yul\":6338:6364   */\n      swap1\n      pop\n        /* \"#utility.yul\":6410:6419   */\n      dup2\n        /* \"#utility.yul\":6404:6408   */\n      dup2\n        /* \"#utility.yul\":6400:6420   */\n      sub\n        /* \"#utility.yul\":6396:6397   */\n      0x00\n        /* \"#utility.yul\":6385:6394   */\n      dup4\n        /* \"#utility.yul\":6381:6398   */\n      add\n        /* \"#utility.yul\":6374:6421   */\n      mstore\n        /* \"#utility.yul\":6438:6569   */\n      tag_313\n        /* \"#utility.yul\":6564:6568   */\n      dup2\n        /* \"#utility.yul\":6438:6569   */\n      tag_283\n      jump\t// in\n    tag_313:\n        /* \"#utility.yul\":6430:6569   */\n      swap1\n      pop\n        /* \"#utility.yul\":6157:6576   */\n      swap2\n      swap1\n      pop\n      jump\t// out\n        /* \"#utility.yul\":6582:7001   */\n    tag_211:\n        /* \"#utility.yul\":6748:6752   */\n      0x00\n        /* \"#utility.yul\":6786:6788   */\n      0x20\n        /* \"#utility.yul\":6775:6784   */\n      dup3\n        /* \"#utility.yul\":6771:6789   */\n      add\n        /* \"#utility.yul\":6763:6789   */\n      swap1\n      pop\n        /* \"#utility.yul\":6835:6844   */\n      dup2\n        /* \"#utility.yul\":6829:6833   */\n      dup2\n        /* \"#utility.yul\":6825:6845   */\n      sub\n        /* \"#utility.yul\":6821:6822   */\n      0x00\n        /* \"#utility.yul\":6810:6819   */\n      dup4\n        /* \"#utility.yul\":6806:6823   */\n      add\n        /* \"#utility.yul\":6799:6846   */\n      mstore\n        /* \"#utility.yul\":6863:6994   */\n      tag_315\n        /* \"#utility.yul\":6989:6993   */\n      dup2\n        /* \"#utility.yul\":6863:6994   */\n      tag_288\n      jump\t// in\n    tag_315:\n        /* \"#utility.yul\":6855:6994   */\n      swap1\n      pop\n        /* \"#utility.yul\":6582:7001   */\n      swap2\n      swap1\n      pop\n      jump\t// out\n        /* \"#utility.yul\":7007:7229   */\n    tag_30:\n        /* \"#utility.yul\":7100:7104   */\n      0x00\n        /* \"#utility.yul\":7138:7140   */\n      0x20\n        /* \"#utility.yul\":7127:7136   */\n      dup3\n        /* \"#utility.yul\":7123:7141   */\n      add\n        /* \"#utility.yul\":7115:7141   */\n      swap1\n      pop\n        /* \"#utility.yul\":7151:7222   */\n      tag_317\n        /* \"#utility.yul\":7219:7220   */\n      0x00\n        /* \"#utility.yul\":7208:7217   */\n      dup4\n        /* \"#utility.yul\":7204:7221   */\n      add\n        /* \"#utility.yul\":7195:7201   */\n      dup5\n        /* \"#utility.yul\":7151:7222   */\n      tag_293\n      jump\t// in\n    tag_317:\n        /* \"#utility.yul\":7007:7229   */\n      swap3\n      swap2\n      pop\n      pop\n      jump\t// out\n        /* \"#utility.yul\":7316:7485   */\n    tag_280:\n        /* \"#utility.yul\":7400:7411   */\n      0x00\n        /* \"#utility.yul\":7434:7440   */\n      dup3\n        /* \"#utility.yul\":7429:7432   */\n      dup3\n        /* \"#utility.yul\":7422:7441   */\n      mstore\n        /* \"#utility.yul\":7474:7478   */\n      0x20\n        /* \"#utility.yul\":7469:7472   */\n      dup3\n        /* \"#utility.yul\":7465:7479   */\n      add\n        /* \"#utility.yul\":7450:7479   */\n      swap1\n      pop\n        /* \"#utility.yul\":7316:7485   */\n      swap3\n      swap2\n      pop\n      pop\n      jump\t// out\n        /* \"#utility.yul\":7491:7796   */\n    tag_146:\n        /* \"#utility.yul\":7531:7534   */\n      0x00\n        /* \"#utility.yul\":7550:7570   */\n      tag_322\n        /* \"#utility.yul\":7568:7569   */\n      dup3\n        /* \"#utility.yul\":7550:7570   */\n      tag_296\n      jump\t// in\n    tag_322:\n        /* \"#utility.yul\":7545:7570   */\n      swap2\n      pop\n        /* \"#utility.yul\":7584:7604   */\n      tag_323\n        /* \"#utility.yul\":7602:7603   */\n      dup4\n        /* \"#utility.yul\":7584:7604   */\n      tag_296\n      jump\t// in\n    tag_323:\n        /* \"#utility.yul\":7579:7604   */\n      swap3\n      pop\n        /* \"#utility.yul\":7738:7739   */\n      dup3\n        /* \"#utility.yul\":7670:7736   */\n      0xffffffffffffffffffffffffffffffffffffffffffffffffffffffffffffffff\n        /* \"#utility.yul\":7666:7740   */\n      sub\n        /* \"#utility.yul\":7663:7664   */\n      dup3\n        /* \"#utility.yul\":7660:7741   */\n      gt\n        /* \"#utility.yul\":7657:7764   */\n      iszero\n      tag_324\n      jumpi\n        /* \"#utility.yul\":7744:7762   */\n      tag_325\n      tag_326\n      jump\t// in\n    tag_325:\n        /* \"#utility.yul\":7657:7764   */\n    tag_324:\n        /* \"#utility.yul\":7788:7789   */\n      dup3\n        /* \"#utility.yul\":7785:7786   */\n      dup3\n        /* \"#utility.yul\":7781:7790   */\n      add\n        /* \"#utility.yul\":7774:7790   */\n      swap1\n      pop\n        /* \"#utility.yul\":7491:7796   */\n      swap3\n      swap2\n      pop\n      pop\n      jump\t// out\n        /* \"#utility.yul\":7802:7987   */\n    tag_129:\n        /* \"#utility.yul\":7842:7843   */\n      0x00\n        /* \"#utility.yul\":7859:7879   */\n      tag_328\n        /* \"#utility.yul\":7877:7878   */\n      dup3\n        /* \"#utility.yul\":7859:7879   */\n      tag_296\n      jump\t// in\n    tag_328:\n        /* \"#utility.yul\":7854:7879   */\n      swap2\n      pop\n        /* \"#utility.yul\":7893:7913   */\n      tag_329\n        /* \"#utility.yul\":7911:7912   */\n      dup4\n        /* \"#utility.yul\":7893:7913   */\n      tag_296\n      jump\t// in\n    tag_329:\n        /* \"#utility.yul\":7888:7913   */\n      swap3\n      pop\n        /* \"#utility.yul\":7932:7933   */\n      dup3\n        /* \"#utility.yul\":7922:7957   */\n      tag_330\n      jumpi\n        /* \"#utility.yul\":7937:7955   */\n      tag_331\n      tag_332\n      jump\t// in\n    tag_331:\n        /* \"#utility.yul\":7922:7957   */\n    tag_330:\n        /* \"#utility.yul\":7979:7980   */\n      dup3\n        /* \"#utility.yul\":7976:7977   */\n      dup3\n        /* \"#utility.yul\":7972:7981   */\n      div\n        /* \"#utility.yul\":7967:7981   */\n      swap1\n      pop\n        /* \"#utility.yul\":7802:7987   */\n      swap3\n      swap2\n      pop\n      pop\n      jump\t// out\n        /* \"#utility.yul\":7993:8341   */\n    tag_127:\n        /* \"#utility.yul\":8033:8040   */\n      0x00\n        /* \"#utility.yul\":8056:8076   */\n      tag_334\n        /* \"#utility.yul\":8074:8075   */\n      dup3\n        /* \"#utility.yul\":8056:8076   */\n      tag_296\n      jump\t// in\n    tag_334:\n        /* \"#utility.yul\":8051:8076   */\n      swap2\n      pop\n        /* \"#utility.yul\":8090:8110   */\n      tag_335\n        /* \"#utility.yul\":8108:8109   */\n      dup4\n        /* \"#utility.yul\":8090:8110   */\n      tag_296\n      jump\t// in\n    tag_335:\n        /* \"#utility.yul\":8085:8110   */\n      swap3\n      pop\n        /* \"#utility.yul\":8278:8279   */\n      dup2\n        /* \"#utility.yul\":8210:8276   */\n      0xffffffffffffffffffffffffffffffffffffffffffffffffffffffffffffffff\n        /* \"#utility.yul\":8206:8280   */\n      div\n        /* \"#utility.yul\":8203:8204   */\n      dup4\n        /* \"#utility.yul\":8200:8281   */\n      gt\n        /* \"#utility.yul\":8195:8196   */\n      dup3\n        /* \"#utility.yul\":8188:8197   */\n      iszero\n        /* \"#utility.yul\":8181:8198   */\n      iszero\n        /* \"#utility.yul\":8177:8282   */\n      and\n        /* \"#utility.yul\":8174:8305   */\n      iszero\n      tag_336\n      jumpi\n        /* \"#utility.yul\":8285:8303   */\n      tag_337\n      tag_326\n      jump\t// in\n    tag_337:\n        /* \"#utility.yul\":8174:8305   */\n    tag_336:\n        /* \"#utility.yul\":8333:8334   */\n      dup3\n        /* \"#utility.yul\":8330:8331   */\n      dup3\n        /* \"#utility.yul\":8326:8335   */\n      mul\n        /* \"#utility.yul\":8315:8335   */\n      swap1\n      pop\n        /* \"#utility.yul\":7993:8341   */\n      swap3\n      swap2\n      pop\n      pop\n      jump\t// out\n        /* \"#utility.yul\":8347:8538   */\n    tag_120:\n        /* \"#utility.yul\":8387:8391   */\n      0x00\n        /* \"#utility.yul\":8407:8427   */\n      tag_339\n        /* \"#utility.yul\":8425:8426   */\n      dup3\n        /* \"#utility.yul\":8407:8427   */\n      tag_296\n      jump\t// in\n    tag_339:\n        /* \"#utility.yul\":8402:8427   */\n      swap2\n      pop\n        /* \"#utility.yul\":8441:8461   */\n      tag_340\n        /* \"#utility.yul\":8459:8460   */\n      dup4\n        /* \"#utility.yul\":8441:8461   */\n      tag_296\n      jump\t// in\n    tag_340:\n        /* \"#utility.yul\":8436:8461   */\n      swap3\n      pop\n        /* \"#utility.yul\":8480:8481   */\n      dup3\n        /* \"#utility.yul\":8477:8478   */\n      dup3\n        /* \"#utility.yul\":8474:8482   */\n      lt\n        /* \"#utility.yul\":8471:8505   */\n      iszero\n      tag_341\n      jumpi\n        /* \"#utility.yul\":8485:8503   */\n      tag_342\n      tag_326\n      jump\t// in\n    tag_342:\n        /* \"#utility.yul\":8471:8505   */\n    tag_341:\n        /* \"#utility.yul\":8530:8531   */\n      dup3\n        /* \"#utility.yul\":8527:8528   */\n      dup3\n        /* \"#utility.yul\":8523:8532   */\n      sub\n        /* \"#utility.yul\":8515:8532   */\n      swap1\n      pop\n        /* \"#utility.yul\":8347:8538   */\n      swap3\n      swap2\n      pop\n      pop\n      jump\t// out\n        /* \"#utility.yul\":8544:8640   */\n    tag_268:\n        /* \"#utility.yul\":8581:8588   */\n      0x00\n        /* \"#utility.yul\":8610:8634   */\n      tag_344\n        /* \"#utility.yul\":8628:8633   */\n      dup3\n        /* \"#utility.yul\":8610:8634   */\n      tag_345\n      jump\t// in\n    tag_344:\n        /* \"#utility.yul\":8599:8634   */\n      swap1\n      pop\n        /* \"#utility.yul\":8544:8640   */\n      swap2\n      swap1\n      pop\n      jump\t// out\n        /* \"#utility.yul\":8646:8736   */\n    tag_346:\n        /* \"#utility.yul\":8680:8687   */\n      0x00\n        /* \"#utility.yul\":8723:8728   */\n      dup2\n        /* \"#utility.yul\":8716:8729   */\n      iszero\n        /* \"#utility.yul\":8709:8730   */\n      iszero\n        /* \"#utility.yul\":8698:8730   */\n      swap1\n      pop\n        /* \"#utility.yul\":8646:8736   */\n      swap2\n      swap1\n      pop\n      jump\t// out\n        /* \"#utility.yul\":8742:8834   */\n    tag_276:\n        /* \"#utility.yul\":8778:8785   */\n      0x00\n        /* \"#utility.yul\":8822:8827   */\n      dup2\n        /* \"#utility.yul\":8818:8820   */\n      0x0f\n        /* \"#utility.yul\":8807:8828   */\n      signextend\n        /* \"#utility.yul\":8796:8828   */\n      swap1\n      pop\n        /* \"#utility.yul\":8742:8834   */\n      swap2\n      swap1\n      pop\n      jump\t// out\n        /* \"#utility.yul\":8840:8966   */\n    tag_345:\n        /* \"#utility.yul\":8877:8884   */\n      0x00\n        /* \"#utility.yul\":8917:8959   */\n      0xffffffffffffffffffffffffffffffffffffffff\n        /* \"#utility.yul\":8910:8915   */\n      dup3\n        /* \"#utility.yul\":8906:8960   */\n      and\n        /* \"#utility.yul\":8895:8960   */\n      swap1\n      pop\n        /* \"#utility.yul\":8840:8966   */\n      swap2\n      swap1\n      pop\n      jump\t// out\n        /* \"#utility.yul\":8972:9049   */\n    tag_296:\n        /* \"#utility.yul\":9009:9016   */\n      0x00\n        /* \"#utility.yul\":9038:9043   */\n      dup2\n        /* \"#utility.yul\":9027:9043   */\n      swap1\n      pop\n        /* \"#utility.yul\":8972:9049   */\n      swap2\n      swap1\n      pop\n      jump\t// out\n        /* \"#utility.yul\":9055:9194   */\n    tag_272:\n        /* \"#utility.yul\":9118:9127   */\n      0x00\n        /* \"#utility.yul\":9151:9188   */\n      tag_352\n        /* \"#utility.yul\":9182:9187   */\n      dup3\n        /* \"#utility.yul\":9151:9188   */\n      tag_353\n      jump\t// in\n    tag_352:\n        /* \"#utility.yul\":9138:9188   */\n      swap1\n      pop\n        /* \"#utility.yul\":9055:9194   */\n      swap2\n      swap1\n      pop\n      jump\t// out\n        /* \"#utility.yul\":9200:9326   */\n    tag_353:\n        /* \"#utility.yul\":9250:9259   */\n      0x00\n        /* \"#utility.yul\":9283:9320   */\n      tag_355\n        /* \"#utility.yul\":9314:9319   */\n      dup3\n        /* \"#utility.yul\":9283:9320   */\n      tag_356\n      jump\t// in\n    tag_355:\n        /* \"#utility.yul\":9270:9320   */\n      swap1\n      pop\n        /* \"#utility.yul\":9200:9326   */\n      swap2\n      swap1\n      pop\n      jump\t// out\n        /* \"#utility.yul\":9332:9445   */\n    tag_356:\n        /* \"#utility.yul\":9382:9391   */\n      0x00\n        /* \"#utility.yul\":9415:9439   */\n      tag_358\n        /* \"#utility.yul\":9433:9438   */\n      dup3\n        /* \"#utility.yul\":9415:9439   */\n      tag_345\n      jump\t// in\n    tag_358:\n        /* \"#utility.yul\":9402:9439   */\n      swap1\n      pop\n        /* \"#utility.yul\":9332:9445   */\n      swap2\n      swap1\n      pop\n      jump\t// out\n        /* \"#utility.yul\":9451:9631   */\n    tag_326:\n        /* \"#utility.yul\":9499:9576   */\n      0x4e487b7100000000000000000000000000000000000000000000000000000000\n        /* \"#utility.yul\":9496:9497   */\n      0x00\n        /* \"#utility.yul\":9489:9577   */\n      mstore\n        /* \"#utility.yul\":9596:9600   */\n      0x11\n        /* \"#utility.yul\":9593:9594   */\n      0x04\n        /* \"#utility.yul\":9586:9601   */\n      mstore\n        /* \"#utility.yul\":9620:9624   */\n      0x24\n        /* \"#utility.yul\":9617:9618   */\n      0x00\n        /* \"#utility.yul\":9610:9625   */\n      revert\n        /* \"#utility.yul\":9637:9817   */\n    tag_332:\n        /* \"#utility.yul\":9685:9762   */\n      0x4e487b7100000000000000000000000000000000000000000000000000000000\n        /* \"#utility.yul\":9682:9683   */\n      0x00\n        /* \"#utility.yul\":9675:9763   */\n      mstore\n        /* \"#utility.yul\":9782:9786   */\n      0x12\n        /* \"#utility.yul\":9779:9780   */\n      0x04\n        /* \"#utility.yul\":9772:9787   */\n      mstore\n        /* \"#utility.yul\":9806:9810   */\n      0x24\n        /* \"#utility.yul\":9803:9804   */\n      0x00\n        /* \"#utility.yul\":9796:9811   */\n      revert\n        /* \"#utility.yul\":9946:10063   */\n    tag_245:\n        /* \"#utility.yul\":10055:10056   */\n      0x00\n        /* \"#utility.yul\":10052:10053   */\n      dup1\n        /* \"#utility.yul\":10045:10057   */\n      revert\n        /* \"#utility.yul\":10069:10240   */\n    tag_282:\n        /* \"#utility.yul\":10209:10232   */\n      0x546f6b656e207472616e73666572206661696c65640000000000000000000000\n        /* \"#utility.yul\":10205:10206   */\n      0x00\n        /* \"#utility.yul\":10197:10203   */\n      dup3\n        /* \"#utility.yul\":10193:10207   */\n      add\n        /* \"#utility.yul\":10186:10233   */\n      mstore\n        /* \"#utility.yul\":10069:10240   */\n      pop\n      jump\t// out\n        /* \"#utility.yul\":10246:10422   */\n    tag_287:\n        /* \"#utility.yul\":10386:10414   */\n      0x596f7520646f6e742068617665207468617420616d6f756e7421000000000000\n        /* \"#utility.yul\":10382:10383   */\n      0x00\n        /* \"#utility.yul\":10374:10380   */\n      dup3\n        /* \"#utility.yul\":10370:10384   */\n      add\n        /* \"#utility.yul\":10363:10415   */\n      mstore\n        /* \"#utility.yul\":10246:10422   */\n      pop\n      jump\t// out\n        /* \"#utility.yul\":10428:10648   */\n    tag_292:\n        /* \"#utility.yul\":10568:10602   */\n      0x75696e74206f766572666c6f772066726f6d206d756c7469706c69636174696f\n        /* \"#utility.yul\":10564:10565   */\n      0x00\n        /* \"#utility.yul\":10556:10562   */\n      dup3\n        /* \"#utility.yul\":10552:10566   */\n      add\n        /* \"#utility.yul\":10545:10603   */\n      mstore\n        /* \"#utility.yul\":10637:10640   */\n      0x6e00000000000000000000000000000000000000000000000000000000000000\n        /* \"#utility.yul\":10632:10634   */\n      0x20\n        /* \"#utility.yul\":10624:10630   */\n      dup3\n        /* \"#utility.yul\":10620:10635   */\n      add\n        /* \"#utility.yul\":10613:10641   */\n      mstore\n        /* \"#utility.yul\":10428:10648   */\n      pop\n      jump\t// out\n        /* \"#utility.yul\":10654:10776   */\n    tag_230:\n        /* \"#utility.yul\":10727:10751   */\n      tag_368\n        /* \"#utility.yul\":10745:10750   */\n      dup2\n        /* \"#utility.yul\":10727:10751   */\n      tag_268\n      jump\t// in\n    tag_368:\n        /* \"#utility.yul\":10720:10725   */\n      dup2\n        /* \"#utility.yul\":10717:10752   */\n      eq\n        /* \"#utility.yul\":10707:10770   */\n      tag_369\n      jumpi\n        /* \"#utility.yul\":10766:10767   */\n      0x00\n        /* \"#utility.yul\":10763:10764   */\n      dup1\n        /* \"#utility.yul\":10756:10768   */\n      revert\n        /* \"#utility.yul\":10707:10770   */\n    tag_369:\n        /* \"#utility.yul\":10654:10776   */\n      pop\n      jump\t// out\n        /* \"#utility.yul\":10782:10898   */\n    tag_234:\n        /* \"#utility.yul\":10852:10873   */\n      tag_371\n        /* \"#utility.yul\":10867:10872   */\n      dup2\n        /* \"#utility.yul\":10852:10873   */\n      tag_346\n      jump\t// in\n    tag_371:\n        /* \"#utility.yul\":10845:10850   */\n      dup2\n        /* \"#utility.yul\":10842:10874   */\n      eq\n        /* \"#utility.yul\":10832:10892   */\n      tag_372\n      jumpi\n        /* \"#utility.yul\":10888:10889   */\n      0x00\n        /* \"#utility.yul\":10885:10886   */\n      dup1\n        /* \"#utility.yul\":10878:10890   */\n      revert\n        /* \"#utility.yul\":10832:10892   */\n    tag_372:\n        /* \"#utility.yul\":10782:10898   */\n      pop\n      jump\t// out\n        /* \"#utility.yul\":10904:11026   */\n    tag_238:\n        /* \"#utility.yul\":10977:11001   */\n      tag_374\n        /* \"#utility.yul\":10995:11000   */\n      dup2\n        /* \"#utility.yul\":10977:11001   */\n      tag_296\n      jump\t// in\n    tag_374:\n        /* \"#utility.yul\":10970:10975   */\n      dup2\n        /* \"#utility.yul\":10967:11002   */\n      eq\n        /* \"#utility.yul\":10957:11020   */\n      tag_375\n      jumpi\n        /* \"#utility.yul\":11016:11017   */\n      0x00\n        /* \"#utility.yul\":11013:11014   */\n      dup1\n        /* \"#utility.yul\":11006:11018   */\n      revert\n        /* \"#utility.yul\":10957:11020   */\n    tag_375:\n        /* \"#utility.yul\":10904:11026   */\n      pop\n      jump\t// out\n\n    auxdata: 0xa26469706673582212203bf004516b02fbcf66bd80901a8c809eaa1534e883476601da5bb39fc91abc1d64736f6c63430008070033\n}\n",
				"bytecode": {
					"linkReferences": {},
					"object": "6080604052670de0b6b3a76400006207a1206200001d9190620004c3565b600955620186a0600c5562015f90600d55620927c0600e5573617f2e2fd72fd9d5503197092ac168c91465e7f2601060006101000a81548173ffffffffffffffffffffffffffffffffffffffff021916908373ffffffffffffffffffffffffffffffffffffffff1602179055503480156200009757600080fd5b5060405162001be038038062001be08339818101604052810190620000bd91906200038d565b80601360006101000a81548173ffffffffffffffffffffffffffffffffffffffff021916908373ffffffffffffffffffffffffffffffffffffffff16021790555081601160006101000a81548173ffffffffffffffffffffffffffffffffffffffff021916908373ffffffffffffffffffffffffffffffffffffffff16021790555073d7acd2a9fd159e69bb102a1ca21c9a3e3a5f771b601260006101000a81548173ffffffffffffffffffffffffffffffffffffffff021916908373ffffffffffffffffffffffffffffffffffffffff16021790555073617f2e2fd72fd9d5503197092ac168c91465e7f2600660006101000a81548173ffffffffffffffffffffffffffffffffffffffff021916908373ffffffffffffffffffffffffffffffffffffffff160217905550620001ff600c54600e546200023a60201b60201c565b6000819055506200021b600d54600e546200023a60201b60201c565b60018190555042600a8190555062069780600b8190555050506200062e565b6000806200025784670de0b6b3a76400006200028f60201b60201c565b9050826200027a826002866200026e91906200048b565b6200031360201b60201c565b6200028691906200048b565b91505092915050565b600080831415620002a457600090506200030d565b60008284620002b49190620004c3565b9050828482620002c591906200048b565b1462000308576040517f08c379a0000000000000000000000000000000000000000000000000000000008152600401620002ff90620003fb565b60405180910390fd5b809150505b92915050565b60008082846200032491906200042e565b9050838110156200036c576040517f08c379a00000000000000000000000000000000000000000000000000000000081526004016200036390620003fb565b60405180910390fd5b8091505092915050565b600081519050620003878162000614565b92915050565b60008060408385031215620003a757620003a6620005c0565b5b6000620003b78582860162000376565b9250506020620003ca8582860162000376565b9150509250929050565b6000620003e36021836200041d565b9150620003f082620005c5565b604082019050919050565b600060208201905081810360008301526200041681620003d4565b9050919050565b600082825260208201905092915050565b60006200043b8262000558565b9150620004488362000558565b9250827fffffffffffffffffffffffffffffffffffffffffffffffffffffffffffffffff0382111562000480576200047f62000562565b5b828201905092915050565b6000620004988262000558565b9150620004a58362000558565b925082620004b857620004b762000591565b5b828204905092915050565b6000620004d08262000558565b9150620004dd8362000558565b9250817fffffffffffffffffffffffffffffffffffffffffffffffffffffffffffffffff048311821515161562000519576200051862000562565b5b828202905092915050565b6000620005318262000538565b9050919050565b600073ffffffffffffffffffffffffffffffffffffffff82169050919050565b6000819050919050565b7f4e487b7100000000000000000000000000000000000000000000000000000000600052601160045260246000fd5b7f4e487b7100000000000000000000000000000000000000000000000000000000600052601260045260246000fd5b600080fd5b7f75696e74206f766572666c6f772066726f6d206d756c7469706c69636174696f60008201527f6e00000000000000000000000000000000000000000000000000000000000000602082015250565b6200061f8162000524565b81146200062b57600080fd5b50565b6115a2806200063e6000396000f3fe60806040526004361061012a5760003560e01c80636f10e285116100ab578063ee546a511161006f578063ee546a51146103a6578063ee620868146103e3578063eee05f5e1461040e578063f7523c5214610439578063fbbb458914610476578063fc361443146104a15761012a565b80636f10e285146102de578063c079d7f614610309578063cbff461714610334578063daa3a4a41461035f578063ee4676781461037b5761012a565b806343d32e9c116100f257806343d32e9c1461020457806364ce07d81461022f57806365819f7e1461026c57806367b48c91146102885780636e05c1b9146102b35761012a565b8063018a25e81461012f578063047729b01461015a5780631f564a06146101855780632934b237146101b057806335453307146101d9575b600080fd5b34801561013b57600080fd5b506101446104ca565b6040516101519190611257565b60405180910390f35b34801561016657600080fd5b5061016f610582565b60405161017c9190611146565b60405180910390f35b34801561019157600080fd5b5061019a6105a8565b6040516101a79190611257565b60405180910390f35b3480156101bc57600080fd5b506101d760048036038101906101d29190611007565b61065c565b005b3480156101e557600080fd5b506101ee6106ee565b6040516101fb9190611257565b60405180910390f35b34801561021057600080fd5b506102196106f4565b6040516102269190611257565b60405180910390f35b34801561023b57600080fd5b5061025660048036038101906102519190611061565b6107c4565b6040516102639190611257565b60405180910390f35b61028660048036038101906102819190611007565b610805565b005b34801561029457600080fd5b5061029d6109d8565b6040516102aa9190611257565b60405180910390f35b3480156102bf57600080fd5b506102c86109de565b6040516102d591906111c1565b60405180910390f35b3480156102ea57600080fd5b506102f3610a04565b60405161030091906111dc565b60405180910390f35b34801561031557600080fd5b5061031e610a17565b60405161032b9190611146565b60405180910390f35b34801561034057600080fd5b50610349610a3d565b6040516103569190611257565b60405180910390f35b61037960048036038101906103749190611007565b610a43565b005b34801561038757600080fd5b50610390610c35565b60405161039d91906111c1565b60405180910390f35b3480156103b257600080fd5b506103cd60048036038101906103c89190610f9a565b610c5b565b6040516103da9190611257565b60405180910390f35b3480156103ef57600080fd5b506103f8610cee565b6040516104059190611257565b60405180910390f35b34801561041a57600080fd5b50610423610cf4565b6040516104309190611146565b60405180910390f35b34801561044557600080fd5b50610460600480360381019061045b9190611061565b610d1a565b60405161046d9190611257565b60405180910390f35b34801561048257600080fd5b5061048b610d63565b6040516104989190611146565b60405180910390f35b3480156104ad57600080fd5b506104c860048036038101906104c39190611007565b610d89565b005b6000670de0b6b3a7640000600154670c7d713b49da00006104eb9190611364565b3073ffffffffffffffffffffffffffffffffffffffff16631f564a066040518163ffffffff1660e01b815260040160206040518083038186803b15801561053157600080fd5b505afa158015610545573d6000803e3d6000fd5b505050506040513d601f19601f820116820180604052508101906105699190611034565b610573919061130a565b61057d91906112d9565b905090565b600860009054906101000a900473ffffffffffffffffffffffffffffffffffffffff1681565b6000601160009054906101000a900473ffffffffffffffffffffffffffffffffffffffff1673ffffffffffffffffffffffffffffffffffffffff166318160ddd6040518163ffffffff1660e01b815260040160206040518083038186803b15801561061257600080fd5b505afa158015610626573d6000803e3d6000fd5b505050506040513d601f19601f8201168201806040525081019061064a9190611034565b60095461065791906112d9565b905090565b601360009054906101000a900473ffffffffffffffffffffffffffffffffffffffff1673ffffffffffffffffffffffffffffffffffffffff166340c10f1933836040518363ffffffff1660e01b81526004016106b9929190611198565b600060405180830381600087803b1580156106d357600080fd5b505af11580156106e7573d6000803e3d6000fd5b5050505050565b60095481565b6000670de0b6b3a76400006005670de0b6b3a76400006006610716919061130a565b61072091906112d9565b60005461072d9190611283565b3073ffffffffffffffffffffffffffffffffffffffff16631f564a066040518163ffffffff1660e01b815260040160206040518083038186803b15801561077357600080fd5b505afa158015610787573d6000803e3d6000fd5b505050506040513d601f19601f820116820180604052508101906107ab9190611034565b6107b5919061130a565b6107bf91906112d9565b905090565b6000806107d984670de0b6b3a7640000610d93565b9050826107f2826002866107ed91906112d9565b610e0e565b6107fc91906112d9565b91505092915050565b6000601260009054906101000a900473ffffffffffffffffffffffffffffffffffffffff1673ffffffffffffffffffffffffffffffffffffffff166370a08231336040518263ffffffff1660e01b81526004016108629190611146565b60206040518083038186803b15801561087a57600080fd5b505afa15801561088e573d6000803e3d6000fd5b505050506040513d601f19601f820116820180604052508101906108b29190611034565b90508181116108f6576040517f08c379a00000000000000000000000000000000000000000000000000000000081526004016108ed90611217565b60405180910390fd5b601160009054906101000a900473ffffffffffffffffffffffffffffffffffffffff1673ffffffffffffffffffffffffffffffffffffffff1663a9059cbb33846040518363ffffffff1660e01b8152600401610953929190611198565b602060405180830381600087803b15801561096d57600080fd5b505af1158015610981573d6000803e3d6000fd5b505050506040513d601f19601f820116820180604052508101906109a59190610fda565b506109d4601260009054906101000a900473ffffffffffffffffffffffffffffffffffffffff16333085610e6c565b5050565b600b5481565b601160009054906101000a900473ffffffffffffffffffffffffffffffffffffffff1681565b600f60009054906101000a9004600f0b81565b600760009054906101000a900473ffffffffffffffffffffffffffffffffffffffff1681565b60015481565b6000601160009054906101000a900473ffffffffffffffffffffffffffffffffffffffff1673ffffffffffffffffffffffffffffffffffffffff166370a08231336040518263ffffffff1660e01b8152600401610aa09190611146565b60206040518083038186803b158015610ab857600080fd5b505afa158015610acc573d6000803e3d6000fd5b505050506040513d601f19601f82011682018060405250810190610af09190611034565b9050818111610b34576040517f08c379a0000000000000000000000000000000000000000000000000000000008152600401610b2b90611217565b60405180910390fd5b601260009054906101000a900473ffffffffffffffffffffffffffffffffffffffff1673ffffffffffffffffffffffffffffffffffffffff1663a9059cbb33670de0b6b3a76400006001610b88919061130a565b85610b939190611283565b6040518363ffffffff1660e01b8152600401610bb0929190611198565b602060405180830381600087803b158015610bca57600080fd5b505af1158015610bde573d6000803e3d6000fd5b505050506040513d601f19601f82011682018060405250810190610c029190610fda565b50610c31601160009054906101000a900473ffffffffffffffffffffffffffffffffffffffff16333085610e6c565b5050565b601260009054906101000a900473ffffffffffffffffffffffffffffffffffffffff1681565b60008273ffffffffffffffffffffffffffffffffffffffff166370a08231836040518263ffffffff1660e01b8152600401610c969190611146565b60206040518083038186803b158015610cae57600080fd5b505afa158015610cc2573d6000803e3d6000fd5b505050506040513d601f19601f82011682018060405250810190610ce69190611034565b905092915050565b60005481565b601060009054906101000a900473ffffffffffffffffffffffffffffffffffffffff1681565b600080610d278484610d93565b9050670de0b6b3a7640000610d50826002670de0b6b3a7640000610d4b91906112d9565b610e0e565b610d5a91906112d9565b91505092915050565b600660009054906101000a900473ffffffffffffffffffffffffffffffffffffffff1681565b80600b8190555050565b600080831415610da65760009050610e08565b60008284610db4919061130a565b9050828482610dc391906112d9565b14610e03576040517f08c379a0000000000000000000000000000000000000000000000000000000008152600401610dfa90611237565b60405180910390fd5b809150505b92915050565b6000808284610e1d9190611283565b905083811015610e62576040517f08c379a0000000000000000000000000000000000000000000000000000000008152600401610e5990611237565b60405180910390fd5b8091505092915050565b60008473ffffffffffffffffffffffffffffffffffffffff166323b872dd8585856040518463ffffffff1660e01b8152600401610eab93929190611161565b602060405180830381600087803b158015610ec557600080fd5b505af1158015610ed9573d6000803e3d6000fd5b505050506040513d601f19601f82011682018060405250810190610efd9190610fda565b905080610f3f576040517f08c379a0000000000000000000000000000000000000000000000000000000008152600401610f36906111f7565b60405180910390fd5b5050505050565b600081359050610f5581611527565b92915050565b600081519050610f6a8161153e565b92915050565b600081359050610f7f81611555565b92915050565b600081519050610f9481611555565b92915050565b60008060408385031215610fb157610fb0611481565b5b6000610fbf85828601610f46565b9250506020610fd085828601610f46565b9150509250929050565b600060208284031215610ff057610fef611481565b5b6000610ffe84828501610f5b565b91505092915050565b60006020828403121561101d5761101c611481565b5b600061102b84828501610f70565b91505092915050565b60006020828403121561104a57611049611481565b5b600061105884828501610f85565b91505092915050565b6000806040838503121561107857611077611481565b5b600061108685828601610f70565b925050602061109785828601610f70565b9150509250929050565b6110aa81611398565b82525050565b6110b9816113ed565b82525050565b6110c8816113b6565b82525050565b60006110db601583611272565b91506110e682611486565b602082019050919050565b60006110fe601a83611272565b9150611109826114af565b602082019050919050565b6000611121602183611272565b915061112c826114d8565b604082019050919050565b611140816113e3565b82525050565b600060208201905061115b60008301846110a1565b92915050565b600060608201905061117660008301866110a1565b61118360208301856110a1565b6111906040830184611137565b949350505050565b60006040820190506111ad60008301856110a1565b6111ba6020830184611137565b9392505050565b60006020820190506111d660008301846110b0565b92915050565b60006020820190506111f160008301846110bf565b92915050565b60006020820190508181036000830152611210816110ce565b9050919050565b60006020820190508181036000830152611230816110f1565b9050919050565b6000602082019050818103600083015261125081611114565b9050919050565b600060208201905061126c6000830184611137565b92915050565b600082825260208201905092915050565b600061128e826113e3565b9150611299836113e3565b9250827fffffffffffffffffffffffffffffffffffffffffffffffffffffffffffffffff038211156112ce576112cd611423565b5b828201905092915050565b60006112e4826113e3565b91506112ef836113e3565b9250826112ff576112fe611452565b5b828204905092915050565b6000611315826113e3565b9150611320836113e3565b9250817fffffffffffffffffffffffffffffffffffffffffffffffffffffffffffffffff048311821515161561135957611358611423565b5b828202905092915050565b600061136f826113e3565b915061137a836113e3565b92508282101561138d5761138c611423565b5b828203905092915050565b60006113a3826113c3565b9050919050565b60008115159050919050565b600081600f0b9050919050565b600073ffffffffffffffffffffffffffffffffffffffff82169050919050565b6000819050919050565b60006113f8826113ff565b9050919050565b600061140a82611411565b9050919050565b600061141c826113c3565b9050919050565b7f4e487b7100000000000000000000000000000000000000000000000000000000600052601160045260246000fd5b7f4e487b7100000000000000000000000000000000000000000000000000000000600052601260045260246000fd5b600080fd5b7f546f6b656e207472616e73666572206661696c65640000000000000000000000600082015250565b7f596f7520646f6e742068617665207468617420616d6f756e7421000000000000600082015250565b7f75696e74206f766572666c6f772066726f6d206d756c7469706c69636174696f60008201527f6e00000000000000000000000000000000000000000000000000000000000000602082015250565b61153081611398565b811461153b57600080fd5b50565b611547816113aa565b811461155257600080fd5b50565b61155e816113e3565b811461156957600080fd5b5056fea26469706673582212203bf004516b02fbcf66bd80901a8c809eaa1534e883476601da5bb39fc91abc1d64736f6c63430008070033",
					"opcodes": "PUSH1 0x80 PUSH1 0x40 MSTORE PUSH8 0xDE0B6B3A7640000 PUSH3 0x7A120 PUSH3 0x1D SWAP2 SWAP1 PUSH3 0x4C3 JUMP JUMPDEST PUSH1 0x9 SSTORE PUSH3 0x186A0 PUSH1 0xC SSTORE PUSH3 0x15F90 PUSH1 0xD SSTORE PUSH3 0x927C0 PUSH1 0xE SSTORE PUSH20 0x617F2E2FD72FD9D5503197092AC168C91465E7F2 PUSH1 0x10 PUSH1 0x0 PUSH2 0x100 EXP DUP2 SLOAD DUP2 PUSH20 0xFFFFFFFFFFFFFFFFFFFFFFFFFFFFFFFFFFFFFFFF MUL NOT AND SWAP1 DUP4 PUSH20 0xFFFFFFFFFFFFFFFFFFFFFFFFFFFFFFFFFFFFFFFF AND MUL OR SWAP1 SSTORE POP CALLVALUE DUP1 ISZERO PUSH3 0x97 JUMPI PUSH1 0x0 DUP1 REVERT JUMPDEST POP PUSH1 0x40 MLOAD PUSH3 0x1BE0 CODESIZE SUB DUP1 PUSH3 0x1BE0 DUP4 CODECOPY DUP2 DUP2 ADD PUSH1 0x40 MSTORE DUP2 ADD SWAP1 PUSH3 0xBD SWAP2 SWAP1 PUSH3 0x38D JUMP JUMPDEST DUP1 PUSH1 0x13 PUSH1 0x0 PUSH2 0x100 EXP DUP2 SLOAD DUP2 PUSH20 0xFFFFFFFFFFFFFFFFFFFFFFFFFFFFFFFFFFFFFFFF MUL NOT AND SWAP1 DUP4 PUSH20 0xFFFFFFFFFFFFFFFFFFFFFFFFFFFFFFFFFFFFFFFF AND MUL OR SWAP1 SSTORE POP DUP2 PUSH1 0x11 PUSH1 0x0 PUSH2 0x100 EXP DUP2 SLOAD DUP2 PUSH20 0xFFFFFFFFFFFFFFFFFFFFFFFFFFFFFFFFFFFFFFFF MUL NOT AND SWAP1 DUP4 PUSH20 0xFFFFFFFFFFFFFFFFFFFFFFFFFFFFFFFFFFFFFFFF AND MUL OR SWAP1 SSTORE POP PUSH20 0xD7ACD2A9FD159E69BB102A1CA21C9A3E3A5F771B PUSH1 0x12 PUSH1 0x0 PUSH2 0x100 EXP DUP2 SLOAD DUP2 PUSH20 0xFFFFFFFFFFFFFFFFFFFFFFFFFFFFFFFFFFFFFFFF MUL NOT AND SWAP1 DUP4 PUSH20 0xFFFFFFFFFFFFFFFFFFFFFFFFFFFFFFFFFFFFFFFF AND MUL OR SWAP1 SSTORE POP PUSH20 0x617F2E2FD72FD9D5503197092AC168C91465E7F2 PUSH1 0x6 PUSH1 0x0 PUSH2 0x100 EXP DUP2 SLOAD DUP2 PUSH20 0xFFFFFFFFFFFFFFFFFFFFFFFFFFFFFFFFFFFFFFFF MUL NOT AND SWAP1 DUP4 PUSH20 0xFFFFFFFFFFFFFFFFFFFFFFFFFFFFFFFFFFFFFFFF AND MUL OR SWAP1 SSTORE POP PUSH3 0x1FF PUSH1 0xC SLOAD PUSH1 0xE SLOAD PUSH3 0x23A PUSH1 0x20 SHL PUSH1 0x20 SHR JUMP JUMPDEST PUSH1 0x0 DUP2 SWAP1 SSTORE POP PUSH3 0x21B PUSH1 0xD SLOAD PUSH1 0xE SLOAD PUSH3 0x23A PUSH1 0x20 SHL PUSH1 0x20 SHR JUMP JUMPDEST PUSH1 0x1 DUP2 SWAP1 SSTORE POP TIMESTAMP PUSH1 0xA DUP2 SWAP1 SSTORE POP PUSH3 0x69780 PUSH1 0xB DUP2 SWAP1 SSTORE POP POP POP PUSH3 0x62E JUMP JUMPDEST PUSH1 0x0 DUP1 PUSH3 0x257 DUP5 PUSH8 0xDE0B6B3A7640000 PUSH3 0x28F PUSH1 0x20 SHL PUSH1 0x20 SHR JUMP JUMPDEST SWAP1 POP DUP3 PUSH3 0x27A DUP3 PUSH1 0x2 DUP7 PUSH3 0x26E SWAP2 SWAP1 PUSH3 0x48B JUMP JUMPDEST PUSH3 0x313 PUSH1 0x20 SHL PUSH1 0x20 SHR JUMP JUMPDEST PUSH3 0x286 SWAP2 SWAP1 PUSH3 0x48B JUMP JUMPDEST SWAP2 POP POP SWAP3 SWAP2 POP POP JUMP JUMPDEST PUSH1 0x0 DUP1 DUP4 EQ ISZERO PUSH3 0x2A4 JUMPI PUSH1 0x0 SWAP1 POP PUSH3 0x30D JUMP JUMPDEST PUSH1 0x0 DUP3 DUP5 PUSH3 0x2B4 SWAP2 SWAP1 PUSH3 0x4C3 JUMP JUMPDEST SWAP1 POP DUP3 DUP5 DUP3 PUSH3 0x2C5 SWAP2 SWAP1 PUSH3 0x48B JUMP JUMPDEST EQ PUSH3 0x308 JUMPI PUSH1 0x40 MLOAD PUSH32 0x8C379A000000000000000000000000000000000000000000000000000000000 DUP2 MSTORE PUSH1 0x4 ADD PUSH3 0x2FF SWAP1 PUSH3 0x3FB JUMP JUMPDEST PUSH1 0x40 MLOAD DUP1 SWAP2 SUB SWAP1 REVERT JUMPDEST DUP1 SWAP2 POP POP JUMPDEST SWAP3 SWAP2 POP POP JUMP JUMPDEST PUSH1 0x0 DUP1 DUP3 DUP5 PUSH3 0x324 SWAP2 SWAP1 PUSH3 0x42E JUMP JUMPDEST SWAP1 POP DUP4 DUP2 LT ISZERO PUSH3 0x36C JUMPI PUSH1 0x40 MLOAD PUSH32 0x8C379A000000000000000000000000000000000000000000000000000000000 DUP2 MSTORE PUSH1 0x4 ADD PUSH3 0x363 SWAP1 PUSH3 0x3FB JUMP JUMPDEST PUSH1 0x40 MLOAD DUP1 SWAP2 SUB SWAP1 REVERT JUMPDEST DUP1 SWAP2 POP POP SWAP3 SWAP2 POP POP JUMP JUMPDEST PUSH1 0x0 DUP2 MLOAD SWAP1 POP PUSH3 0x387 DUP2 PUSH3 0x614 JUMP JUMPDEST SWAP3 SWAP2 POP POP JUMP JUMPDEST PUSH1 0x0 DUP1 PUSH1 0x40 DUP4 DUP6 SUB SLT ISZERO PUSH3 0x3A7 JUMPI PUSH3 0x3A6 PUSH3 0x5C0 JUMP JUMPDEST JUMPDEST PUSH1 0x0 PUSH3 0x3B7 DUP6 DUP3 DUP7 ADD PUSH3 0x376 JUMP JUMPDEST SWAP3 POP POP PUSH1 0x20 PUSH3 0x3CA DUP6 DUP3 DUP7 ADD PUSH3 0x376 JUMP JUMPDEST SWAP2 POP POP SWAP3 POP SWAP3 SWAP1 POP JUMP JUMPDEST PUSH1 0x0 PUSH3 0x3E3 PUSH1 0x21 DUP4 PUSH3 0x41D JUMP JUMPDEST SWAP2 POP PUSH3 0x3F0 DUP3 PUSH3 0x5C5 JUMP JUMPDEST PUSH1 0x40 DUP3 ADD SWAP1 POP SWAP2 SWAP1 POP JUMP JUMPDEST PUSH1 0x0 PUSH1 0x20 DUP3 ADD SWAP1 POP DUP2 DUP2 SUB PUSH1 0x0 DUP4 ADD MSTORE PUSH3 0x416 DUP2 PUSH3 0x3D4 JUMP JUMPDEST SWAP1 POP SWAP2 SWAP1 POP JUMP JUMPDEST PUSH1 0x0 DUP3 DUP3 MSTORE PUSH1 0x20 DUP3 ADD SWAP1 POP SWAP3 SWAP2 POP POP JUMP JUMPDEST PUSH1 0x0 PUSH3 0x43B DUP3 PUSH3 0x558 JUMP JUMPDEST SWAP2 POP PUSH3 0x448 DUP4 PUSH3 0x558 JUMP JUMPDEST SWAP3 POP DUP3 PUSH32 0xFFFFFFFFFFFFFFFFFFFFFFFFFFFFFFFFFFFFFFFFFFFFFFFFFFFFFFFFFFFFFFFF SUB DUP3 GT ISZERO PUSH3 0x480 JUMPI PUSH3 0x47F PUSH3 0x562 JUMP JUMPDEST JUMPDEST DUP3 DUP3 ADD SWAP1 POP SWAP3 SWAP2 POP POP JUMP JUMPDEST PUSH1 0x0 PUSH3 0x498 DUP3 PUSH3 0x558 JUMP JUMPDEST SWAP2 POP PUSH3 0x4A5 DUP4 PUSH3 0x558 JUMP JUMPDEST SWAP3 POP DUP3 PUSH3 0x4B8 JUMPI PUSH3 0x4B7 PUSH3 0x591 JUMP JUMPDEST JUMPDEST DUP3 DUP3 DIV SWAP1 POP SWAP3 SWAP2 POP POP JUMP JUMPDEST PUSH1 0x0 PUSH3 0x4D0 DUP3 PUSH3 0x558 JUMP JUMPDEST SWAP2 POP PUSH3 0x4DD DUP4 PUSH3 0x558 JUMP JUMPDEST SWAP3 POP DUP2 PUSH32 0xFFFFFFFFFFFFFFFFFFFFFFFFFFFFFFFFFFFFFFFFFFFFFFFFFFFFFFFFFFFFFFFF DIV DUP4 GT DUP3 ISZERO ISZERO AND ISZERO PUSH3 0x519 JUMPI PUSH3 0x518 PUSH3 0x562 JUMP JUMPDEST JUMPDEST DUP3 DUP3 MUL SWAP1 POP SWAP3 SWAP2 POP POP JUMP JUMPDEST PUSH1 0x0 PUSH3 0x531 DUP3 PUSH3 0x538 JUMP JUMPDEST SWAP1 POP SWAP2 SWAP1 POP JUMP JUMPDEST PUSH1 0x0 PUSH20 0xFFFFFFFFFFFFFFFFFFFFFFFFFFFFFFFFFFFFFFFF DUP3 AND SWAP1 POP SWAP2 SWAP1 POP JUMP JUMPDEST PUSH1 0x0 DUP2 SWAP1 POP SWAP2 SWAP1 POP JUMP JUMPDEST PUSH32 0x4E487B7100000000000000000000000000000000000000000000000000000000 PUSH1 0x0 MSTORE PUSH1 0x11 PUSH1 0x4 MSTORE PUSH1 0x24 PUSH1 0x0 REVERT JUMPDEST PUSH32 0x4E487B7100000000000000000000000000000000000000000000000000000000 PUSH1 0x0 MSTORE PUSH1 0x12 PUSH1 0x4 MSTORE PUSH1 0x24 PUSH1 0x0 REVERT JUMPDEST PUSH1 0x0 DUP1 REVERT JUMPDEST PUSH32 0x75696E74206F766572666C6F772066726F6D206D756C7469706C69636174696F PUSH1 0x0 DUP3 ADD MSTORE PUSH32 0x6E00000000000000000000000000000000000000000000000000000000000000 PUSH1 0x20 DUP3 ADD MSTORE POP JUMP JUMPDEST PUSH3 0x61F DUP2 PUSH3 0x524 JUMP JUMPDEST DUP2 EQ PUSH3 0x62B JUMPI PUSH1 0x0 DUP1 REVERT JUMPDEST POP JUMP JUMPDEST PUSH2 0x15A2 DUP1 PUSH3 0x63E PUSH1 0x0 CODECOPY PUSH1 0x0 RETURN INVALID PUSH1 0x80 PUSH1 0x40 MSTORE PUSH1 0x4 CALLDATASIZE LT PUSH2 0x12A JUMPI PUSH1 0x0 CALLDATALOAD PUSH1 0xE0 SHR DUP1 PUSH4 0x6F10E285 GT PUSH2 0xAB JUMPI DUP1 PUSH4 0xEE546A51 GT PUSH2 0x6F JUMPI DUP1 PUSH4 0xEE546A51 EQ PUSH2 0x3A6 JUMPI DUP1 PUSH4 0xEE620868 EQ PUSH2 0x3E3 JUMPI DUP1 PUSH4 0xEEE05F5E EQ PUSH2 0x40E JUMPI DUP1 PUSH4 0xF7523C52 EQ PUSH2 0x439 JUMPI DUP1 PUSH4 0xFBBB4589 EQ PUSH2 0x476 JUMPI DUP1 PUSH4 0xFC361443 EQ PUSH2 0x4A1 JUMPI PUSH2 0x12A JUMP JUMPDEST DUP1 PUSH4 0x6F10E285 EQ PUSH2 0x2DE JUMPI DUP1 PUSH4 0xC079D7F6 EQ PUSH2 0x309 JUMPI DUP1 PUSH4 0xCBFF4617 EQ PUSH2 0x334 JUMPI DUP1 PUSH4 0xDAA3A4A4 EQ PUSH2 0x35F JUMPI DUP1 PUSH4 0xEE467678 EQ PUSH2 0x37B JUMPI PUSH2 0x12A JUMP JUMPDEST DUP1 PUSH4 0x43D32E9C GT PUSH2 0xF2 JUMPI DUP1 PUSH4 0x43D32E9C EQ PUSH2 0x204 JUMPI DUP1 PUSH4 0x64CE07D8 EQ PUSH2 0x22F JUMPI DUP1 PUSH4 0x65819F7E EQ PUSH2 0x26C JUMPI DUP1 PUSH4 0x67B48C91 EQ PUSH2 0x288 JUMPI DUP1 PUSH4 0x6E05C1B9 EQ PUSH2 0x2B3 JUMPI PUSH2 0x12A JUMP JUMPDEST DUP1 PUSH4 0x18A25E8 EQ PUSH2 0x12F JUMPI DUP1 PUSH4 0x47729B0 EQ PUSH2 0x15A JUMPI DUP1 PUSH4 0x1F564A06 EQ PUSH2 0x185 JUMPI DUP1 PUSH4 0x2934B237 EQ PUSH2 0x1B0 JUMPI DUP1 PUSH4 0x35453307 EQ PUSH2 0x1D9 JUMPI JUMPDEST PUSH1 0x0 DUP1 REVERT JUMPDEST CALLVALUE DUP1 ISZERO PUSH2 0x13B JUMPI PUSH1 0x0 DUP1 REVERT JUMPDEST POP PUSH2 0x144 PUSH2 0x4CA JUMP JUMPDEST PUSH1 0x40 MLOAD PUSH2 0x151 SWAP2 SWAP1 PUSH2 0x1257 JUMP JUMPDEST PUSH1 0x40 MLOAD DUP1 SWAP2 SUB SWAP1 RETURN JUMPDEST CALLVALUE DUP1 ISZERO PUSH2 0x166 JUMPI PUSH1 0x0 DUP1 REVERT JUMPDEST POP PUSH2 0x16F PUSH2 0x582 JUMP JUMPDEST PUSH1 0x40 MLOAD PUSH2 0x17C SWAP2 SWAP1 PUSH2 0x1146 JUMP JUMPDEST PUSH1 0x40 MLOAD DUP1 SWAP2 SUB SWAP1 RETURN JUMPDEST CALLVALUE DUP1 ISZERO PUSH2 0x191 JUMPI PUSH1 0x0 DUP1 REVERT JUMPDEST POP PUSH2 0x19A PUSH2 0x5A8 JUMP JUMPDEST PUSH1 0x40 MLOAD PUSH2 0x1A7 SWAP2 SWAP1 PUSH2 0x1257 JUMP JUMPDEST PUSH1 0x40 MLOAD DUP1 SWAP2 SUB SWAP1 RETURN JUMPDEST CALLVALUE DUP1 ISZERO PUSH2 0x1BC JUMPI PUSH1 0x0 DUP1 REVERT JUMPDEST POP PUSH2 0x1D7 PUSH1 0x4 DUP1 CALLDATASIZE SUB DUP2 ADD SWAP1 PUSH2 0x1D2 SWAP2 SWAP1 PUSH2 0x1007 JUMP JUMPDEST PUSH2 0x65C JUMP JUMPDEST STOP JUMPDEST CALLVALUE DUP1 ISZERO PUSH2 0x1E5 JUMPI PUSH1 0x0 DUP1 REVERT JUMPDEST POP PUSH2 0x1EE PUSH2 0x6EE JUMP JUMPDEST PUSH1 0x40 MLOAD PUSH2 0x1FB SWAP2 SWAP1 PUSH2 0x1257 JUMP JUMPDEST PUSH1 0x40 MLOAD DUP1 SWAP2 SUB SWAP1 RETURN JUMPDEST CALLVALUE DUP1 ISZERO PUSH2 0x210 JUMPI PUSH1 0x0 DUP1 REVERT JUMPDEST POP PUSH2 0x219 PUSH2 0x6F4 JUMP JUMPDEST PUSH1 0x40 MLOAD PUSH2 0x226 SWAP2 SWAP1 PUSH2 0x1257 JUMP JUMPDEST PUSH1 0x40 MLOAD DUP1 SWAP2 SUB SWAP1 RETURN JUMPDEST CALLVALUE DUP1 ISZERO PUSH2 0x23B JUMPI PUSH1 0x0 DUP1 REVERT JUMPDEST POP PUSH2 0x256 PUSH1 0x4 DUP1 CALLDATASIZE SUB DUP2 ADD SWAP1 PUSH2 0x251 SWAP2 SWAP1 PUSH2 0x1061 JUMP JUMPDEST PUSH2 0x7C4 JUMP JUMPDEST PUSH1 0x40 MLOAD PUSH2 0x263 SWAP2 SWAP1 PUSH2 0x1257 JUMP JUMPDEST PUSH1 0x40 MLOAD DUP1 SWAP2 SUB SWAP1 RETURN JUMPDEST PUSH2 0x286 PUSH1 0x4 DUP1 CALLDATASIZE SUB DUP2 ADD SWAP1 PUSH2 0x281 SWAP2 SWAP1 PUSH2 0x1007 JUMP JUMPDEST PUSH2 0x805 JUMP JUMPDEST STOP JUMPDEST CALLVALUE DUP1 ISZERO PUSH2 0x294 JUMPI PUSH1 0x0 DUP1 REVERT JUMPDEST POP PUSH2 0x29D PUSH2 0x9D8 JUMP JUMPDEST PUSH1 0x40 MLOAD PUSH2 0x2AA SWAP2 SWAP1 PUSH2 0x1257 JUMP JUMPDEST PUSH1 0x40 MLOAD DUP1 SWAP2 SUB SWAP1 RETURN JUMPDEST CALLVALUE DUP1 ISZERO PUSH2 0x2BF JUMPI PUSH1 0x0 DUP1 REVERT JUMPDEST POP PUSH2 0x2C8 PUSH2 0x9DE JUMP JUMPDEST PUSH1 0x40 MLOAD PUSH2 0x2D5 SWAP2 SWAP1 PUSH2 0x11C1 JUMP JUMPDEST PUSH1 0x40 MLOAD DUP1 SWAP2 SUB SWAP1 RETURN JUMPDEST CALLVALUE DUP1 ISZERO PUSH2 0x2EA JUMPI PUSH1 0x0 DUP1 REVERT JUMPDEST POP PUSH2 0x2F3 PUSH2 0xA04 JUMP JUMPDEST PUSH1 0x40 MLOAD PUSH2 0x300 SWAP2 SWAP1 PUSH2 0x11DC JUMP JUMPDEST PUSH1 0x40 MLOAD DUP1 SWAP2 SUB SWAP1 RETURN JUMPDEST CALLVALUE DUP1 ISZERO PUSH2 0x315 JUMPI PUSH1 0x0 DUP1 REVERT JUMPDEST POP PUSH2 0x31E PUSH2 0xA17 JUMP JUMPDEST PUSH1 0x40 MLOAD PUSH2 0x32B SWAP2 SWAP1 PUSH2 0x1146 JUMP JUMPDEST PUSH1 0x40 MLOAD DUP1 SWAP2 SUB SWAP1 RETURN JUMPDEST CALLVALUE DUP1 ISZERO PUSH2 0x340 JUMPI PUSH1 0x0 DUP1 REVERT JUMPDEST POP PUSH2 0x349 PUSH2 0xA3D JUMP JUMPDEST PUSH1 0x40 MLOAD PUSH2 0x356 SWAP2 SWAP1 PUSH2 0x1257 JUMP JUMPDEST PUSH1 0x40 MLOAD DUP1 SWAP2 SUB SWAP1 RETURN JUMPDEST PUSH2 0x379 PUSH1 0x4 DUP1 CALLDATASIZE SUB DUP2 ADD SWAP1 PUSH2 0x374 SWAP2 SWAP1 PUSH2 0x1007 JUMP JUMPDEST PUSH2 0xA43 JUMP JUMPDEST STOP JUMPDEST CALLVALUE DUP1 ISZERO PUSH2 0x387 JUMPI PUSH1 0x0 DUP1 REVERT JUMPDEST POP PUSH2 0x390 PUSH2 0xC35 JUMP JUMPDEST PUSH1 0x40 MLOAD PUSH2 0x39D SWAP2 SWAP1 PUSH2 0x11C1 JUMP JUMPDEST PUSH1 0x40 MLOAD DUP1 SWAP2 SUB SWAP1 RETURN JUMPDEST CALLVALUE DUP1 ISZERO PUSH2 0x3B2 JUMPI PUSH1 0x0 DUP1 REVERT JUMPDEST POP PUSH2 0x3CD PUSH1 0x4 DUP1 CALLDATASIZE SUB DUP2 ADD SWAP1 PUSH2 0x3C8 SWAP2 SWAP1 PUSH2 0xF9A JUMP JUMPDEST PUSH2 0xC5B JUMP JUMPDEST PUSH1 0x40 MLOAD PUSH2 0x3DA SWAP2 SWAP1 PUSH2 0x1257 JUMP JUMPDEST PUSH1 0x40 MLOAD DUP1 SWAP2 SUB SWAP1 RETURN JUMPDEST CALLVALUE DUP1 ISZERO PUSH2 0x3EF JUMPI PUSH1 0x0 DUP1 REVERT JUMPDEST POP PUSH2 0x3F8 PUSH2 0xCEE JUMP JUMPDEST PUSH1 0x40 MLOAD PUSH2 0x405 SWAP2 SWAP1 PUSH2 0x1257 JUMP JUMPDEST PUSH1 0x40 MLOAD DUP1 SWAP2 SUB SWAP1 RETURN JUMPDEST CALLVALUE DUP1 ISZERO PUSH2 0x41A JUMPI PUSH1 0x0 DUP1 REVERT JUMPDEST POP PUSH2 0x423 PUSH2 0xCF4 JUMP JUMPDEST PUSH1 0x40 MLOAD PUSH2 0x430 SWAP2 SWAP1 PUSH2 0x1146 JUMP JUMPDEST PUSH1 0x40 MLOAD DUP1 SWAP2 SUB SWAP1 RETURN JUMPDEST CALLVALUE DUP1 ISZERO PUSH2 0x445 JUMPI PUSH1 0x0 DUP1 REVERT JUMPDEST POP PUSH2 0x460 PUSH1 0x4 DUP1 CALLDATASIZE SUB DUP2 ADD SWAP1 PUSH2 0x45B SWAP2 SWAP1 PUSH2 0x1061 JUMP JUMPDEST PUSH2 0xD1A JUMP JUMPDEST PUSH1 0x40 MLOAD PUSH2 0x46D SWAP2 SWAP1 PUSH2 0x1257 JUMP JUMPDEST PUSH1 0x40 MLOAD DUP1 SWAP2 SUB SWAP1 RETURN JUMPDEST CALLVALUE DUP1 ISZERO PUSH2 0x482 JUMPI PUSH1 0x0 DUP1 REVERT JUMPDEST POP PUSH2 0x48B PUSH2 0xD63 JUMP JUMPDEST PUSH1 0x40 MLOAD PUSH2 0x498 SWAP2 SWAP1 PUSH2 0x1146 JUMP JUMPDEST PUSH1 0x40 MLOAD DUP1 SWAP2 SUB SWAP1 RETURN JUMPDEST CALLVALUE DUP1 ISZERO PUSH2 0x4AD JUMPI PUSH1 0x0 DUP1 REVERT JUMPDEST POP PUSH2 0x4C8 PUSH1 0x4 DUP1 CALLDATASIZE SUB DUP2 ADD SWAP1 PUSH2 0x4C3 SWAP2 SWAP1 PUSH2 0x1007 JUMP JUMPDEST PUSH2 0xD89 JUMP JUMPDEST STOP JUMPDEST PUSH1 0x0 PUSH8 0xDE0B6B3A7640000 PUSH1 0x1 SLOAD PUSH8 0xC7D713B49DA0000 PUSH2 0x4EB SWAP2 SWAP1 PUSH2 0x1364 JUMP JUMPDEST ADDRESS PUSH20 0xFFFFFFFFFFFFFFFFFFFFFFFFFFFFFFFFFFFFFFFF AND PUSH4 0x1F564A06 PUSH1 0x40 MLOAD DUP2 PUSH4 0xFFFFFFFF AND PUSH1 0xE0 SHL DUP2 MSTORE PUSH1 0x4 ADD PUSH1 0x20 PUSH1 0x40 MLOAD DUP1 DUP4 SUB DUP2 DUP7 DUP1 EXTCODESIZE ISZERO DUP1 ISZERO PUSH2 0x531 JUMPI PUSH1 0x0 DUP1 REVERT JUMPDEST POP GAS STATICCALL ISZERO DUP1 ISZERO PUSH2 0x545 JUMPI RETURNDATASIZE PUSH1 0x0 DUP1 RETURNDATACOPY RETURNDATASIZE PUSH1 0x0 REVERT JUMPDEST POP POP POP POP PUSH1 0x40 MLOAD RETURNDATASIZE PUSH1 0x1F NOT PUSH1 0x1F DUP3 ADD AND DUP3 ADD DUP1 PUSH1 0x40 MSTORE POP DUP2 ADD SWAP1 PUSH2 0x569 SWAP2 SWAP1 PUSH2 0x1034 JUMP JUMPDEST PUSH2 0x573 SWAP2 SWAP1 PUSH2 0x130A JUMP JUMPDEST PUSH2 0x57D SWAP2 SWAP1 PUSH2 0x12D9 JUMP JUMPDEST SWAP1 POP SWAP1 JUMP JUMPDEST PUSH1 0x8 PUSH1 0x0 SWAP1 SLOAD SWAP1 PUSH2 0x100 EXP SWAP1 DIV PUSH20 0xFFFFFFFFFFFFFFFFFFFFFFFFFFFFFFFFFFFFFFFF AND DUP2 JUMP JUMPDEST PUSH1 0x0 PUSH1 0x11 PUSH1 0x0 SWAP1 SLOAD SWAP1 PUSH2 0x100 EXP SWAP1 DIV PUSH20 0xFFFFFFFFFFFFFFFFFFFFFFFFFFFFFFFFFFFFFFFF AND PUSH20 0xFFFFFFFFFFFFFFFFFFFFFFFFFFFFFFFFFFFFFFFF AND PUSH4 0x18160DDD PUSH1 0x40 MLOAD DUP2 PUSH4 0xFFFFFFFF AND PUSH1 0xE0 SHL DUP2 MSTORE PUSH1 0x4 ADD PUSH1 0x20 PUSH1 0x40 MLOAD DUP1 DUP4 SUB DUP2 DUP7 DUP1 EXTCODESIZE ISZERO DUP1 ISZERO PUSH2 0x612 JUMPI PUSH1 0x0 DUP1 REVERT JUMPDEST POP GAS STATICCALL ISZERO DUP1 ISZERO PUSH2 0x626 JUMPI RETURNDATASIZE PUSH1 0x0 DUP1 RETURNDATACOPY RETURNDATASIZE PUSH1 0x0 REVERT JUMPDEST POP POP POP POP PUSH1 0x40 MLOAD RETURNDATASIZE PUSH1 0x1F NOT PUSH1 0x1F DUP3 ADD AND DUP3 ADD DUP1 PUSH1 0x40 MSTORE POP DUP2 ADD SWAP1 PUSH2 0x64A SWAP2 SWAP1 PUSH2 0x1034 JUMP JUMPDEST PUSH1 0x9 SLOAD PUSH2 0x657 SWAP2 SWAP1 PUSH2 0x12D9 JUMP JUMPDEST SWAP1 POP SWAP1 JUMP JUMPDEST PUSH1 0x13 PUSH1 0x0 SWAP1 SLOAD SWAP1 PUSH2 0x100 EXP SWAP1 DIV PUSH20 0xFFFFFFFFFFFFFFFFFFFFFFFFFFFFFFFFFFFFFFFF AND PUSH20 0xFFFFFFFFFFFFFFFFFFFFFFFFFFFFFFFFFFFFFFFF AND PUSH4 0x40C10F19 CALLER DUP4 PUSH1 0x40 MLOAD DUP4 PUSH4 0xFFFFFFFF AND PUSH1 0xE0 SHL DUP2 MSTORE PUSH1 0x4 ADD PUSH2 0x6B9 SWAP3 SWAP2 SWAP1 PUSH2 0x1198 JUMP JUMPDEST PUSH1 0x0 PUSH1 0x40 MLOAD DUP1 DUP4 SUB DUP2 PUSH1 0x0 DUP8 DUP1 EXTCODESIZE ISZERO DUP1 ISZERO PUSH2 0x6D3 JUMPI PUSH1 0x0 DUP1 REVERT JUMPDEST POP GAS CALL ISZERO DUP1 ISZERO PUSH2 0x6E7 JUMPI RETURNDATASIZE PUSH1 0x0 DUP1 RETURNDATACOPY RETURNDATASIZE PUSH1 0x0 REVERT JUMPDEST POP POP POP POP POP JUMP JUMPDEST PUSH1 0x9 SLOAD DUP2 JUMP JUMPDEST PUSH1 0x0 PUSH8 0xDE0B6B3A7640000 PUSH1 0x5 PUSH8 0xDE0B6B3A7640000 PUSH1 0x6 PUSH2 0x716 SWAP2 SWAP1 PUSH2 0x130A JUMP JUMPDEST PUSH2 0x720 SWAP2 SWAP1 PUSH2 0x12D9 JUMP JUMPDEST PUSH1 0x0 SLOAD PUSH2 0x72D SWAP2 SWAP1 PUSH2 0x1283 JUMP JUMPDEST ADDRESS PUSH20 0xFFFFFFFFFFFFFFFFFFFFFFFFFFFFFFFFFFFFFFFF AND PUSH4 0x1F564A06 PUSH1 0x40 MLOAD DUP2 PUSH4 0xFFFFFFFF AND PUSH1 0xE0 SHL DUP2 MSTORE PUSH1 0x4 ADD PUSH1 0x20 PUSH1 0x40 MLOAD DUP1 DUP4 SUB DUP2 DUP7 DUP1 EXTCODESIZE ISZERO DUP1 ISZERO PUSH2 0x773 JUMPI PUSH1 0x0 DUP1 REVERT JUMPDEST POP GAS STATICCALL ISZERO DUP1 ISZERO PUSH2 0x787 JUMPI RETURNDATASIZE PUSH1 0x0 DUP1 RETURNDATACOPY RETURNDATASIZE PUSH1 0x0 REVERT JUMPDEST POP POP POP POP PUSH1 0x40 MLOAD RETURNDATASIZE PUSH1 0x1F NOT PUSH1 0x1F DUP3 ADD AND DUP3 ADD DUP1 PUSH1 0x40 MSTORE POP DUP2 ADD SWAP1 PUSH2 0x7AB SWAP2 SWAP1 PUSH2 0x1034 JUMP JUMPDEST PUSH2 0x7B5 SWAP2 SWAP1 PUSH2 0x130A JUMP JUMPDEST PUSH2 0x7BF SWAP2 SWAP1 PUSH2 0x12D9 JUMP JUMPDEST SWAP1 POP SWAP1 JUMP JUMPDEST PUSH1 0x0 DUP1 PUSH2 0x7D9 DUP5 PUSH8 0xDE0B6B3A7640000 PUSH2 0xD93 JUMP JUMPDEST SWAP1 POP DUP3 PUSH2 0x7F2 DUP3 PUSH1 0x2 DUP7 PUSH2 0x7ED SWAP2 SWAP1 PUSH2 0x12D9 JUMP JUMPDEST PUSH2 0xE0E JUMP JUMPDEST PUSH2 0x7FC SWAP2 SWAP1 PUSH2 0x12D9 JUMP JUMPDEST SWAP2 POP POP SWAP3 SWAP2 POP POP JUMP JUMPDEST PUSH1 0x0 PUSH1 0x12 PUSH1 0x0 SWAP1 SLOAD SWAP1 PUSH2 0x100 EXP SWAP1 DIV PUSH20 0xFFFFFFFFFFFFFFFFFFFFFFFFFFFFFFFFFFFFFFFF AND PUSH20 0xFFFFFFFFFFFFFFFFFFFFFFFFFFFFFFFFFFFFFFFF AND PUSH4 0x70A08231 CALLER PUSH1 0x40 MLOAD DUP3 PUSH4 0xFFFFFFFF AND PUSH1 0xE0 SHL DUP2 MSTORE PUSH1 0x4 ADD PUSH2 0x862 SWAP2 SWAP1 PUSH2 0x1146 JUMP JUMPDEST PUSH1 0x20 PUSH1 0x40 MLOAD DUP1 DUP4 SUB DUP2 DUP7 DUP1 EXTCODESIZE ISZERO DUP1 ISZERO PUSH2 0x87A JUMPI PUSH1 0x0 DUP1 REVERT JUMPDEST POP GAS STATICCALL ISZERO DUP1 ISZERO PUSH2 0x88E JUMPI RETURNDATASIZE PUSH1 0x0 DUP1 RETURNDATACOPY RETURNDATASIZE PUSH1 0x0 REVERT JUMPDEST POP POP POP POP PUSH1 0x40 MLOAD RETURNDATASIZE PUSH1 0x1F NOT PUSH1 0x1F DUP3 ADD AND DUP3 ADD DUP1 PUSH1 0x40 MSTORE POP DUP2 ADD SWAP1 PUSH2 0x8B2 SWAP2 SWAP1 PUSH2 0x1034 JUMP JUMPDEST SWAP1 POP DUP2 DUP2 GT PUSH2 0x8F6 JUMPI PUSH1 0x40 MLOAD PUSH32 0x8C379A000000000000000000000000000000000000000000000000000000000 DUP2 MSTORE PUSH1 0x4 ADD PUSH2 0x8ED SWAP1 PUSH2 0x1217 JUMP JUMPDEST PUSH1 0x40 MLOAD DUP1 SWAP2 SUB SWAP1 REVERT JUMPDEST PUSH1 0x11 PUSH1 0x0 SWAP1 SLOAD SWAP1 PUSH2 0x100 EXP SWAP1 DIV PUSH20 0xFFFFFFFFFFFFFFFFFFFFFFFFFFFFFFFFFFFFFFFF AND PUSH20 0xFFFFFFFFFFFFFFFFFFFFFFFFFFFFFFFFFFFFFFFF AND PUSH4 0xA9059CBB CALLER DUP5 PUSH1 0x40 MLOAD DUP4 PUSH4 0xFFFFFFFF AND PUSH1 0xE0 SHL DUP2 MSTORE PUSH1 0x4 ADD PUSH2 0x953 SWAP3 SWAP2 SWAP1 PUSH2 0x1198 JUMP JUMPDEST PUSH1 0x20 PUSH1 0x40 MLOAD DUP1 DUP4 SUB DUP2 PUSH1 0x0 DUP8 DUP1 EXTCODESIZE ISZERO DUP1 ISZERO PUSH2 0x96D JUMPI PUSH1 0x0 DUP1 REVERT JUMPDEST POP GAS CALL ISZERO DUP1 ISZERO PUSH2 0x981 JUMPI RETURNDATASIZE PUSH1 0x0 DUP1 RETURNDATACOPY RETURNDATASIZE PUSH1 0x0 REVERT JUMPDEST POP POP POP POP PUSH1 0x40 MLOAD RETURNDATASIZE PUSH1 0x1F NOT PUSH1 0x1F DUP3 ADD AND DUP3 ADD DUP1 PUSH1 0x40 MSTORE POP DUP2 ADD SWAP1 PUSH2 0x9A5 SWAP2 SWAP1 PUSH2 0xFDA JUMP JUMPDEST POP PUSH2 0x9D4 PUSH1 0x12 PUSH1 0x0 SWAP1 SLOAD SWAP1 PUSH2 0x100 EXP SWAP1 DIV PUSH20 0xFFFFFFFFFFFFFFFFFFFFFFFFFFFFFFFFFFFFFFFF AND CALLER ADDRESS DUP6 PUSH2 0xE6C JUMP JUMPDEST POP POP JUMP JUMPDEST PUSH1 0xB SLOAD DUP2 JUMP JUMPDEST PUSH1 0x11 PUSH1 0x0 SWAP1 SLOAD SWAP1 PUSH2 0x100 EXP SWAP1 DIV PUSH20 0xFFFFFFFFFFFFFFFFFFFFFFFFFFFFFFFFFFFFFFFF AND DUP2 JUMP JUMPDEST PUSH1 0xF PUSH1 0x0 SWAP1 SLOAD SWAP1 PUSH2 0x100 EXP SWAP1 DIV PUSH1 0xF SIGNEXTEND DUP2 JUMP JUMPDEST PUSH1 0x7 PUSH1 0x0 SWAP1 SLOAD SWAP1 PUSH2 0x100 EXP SWAP1 DIV PUSH20 0xFFFFFFFFFFFFFFFFFFFFFFFFFFFFFFFFFFFFFFFF AND DUP2 JUMP JUMPDEST PUSH1 0x1 SLOAD DUP2 JUMP JUMPDEST PUSH1 0x0 PUSH1 0x11 PUSH1 0x0 SWAP1 SLOAD SWAP1 PUSH2 0x100 EXP SWAP1 DIV PUSH20 0xFFFFFFFFFFFFFFFFFFFFFFFFFFFFFFFFFFFFFFFF AND PUSH20 0xFFFFFFFFFFFFFFFFFFFFFFFFFFFFFFFFFFFFFFFF AND PUSH4 0x70A08231 CALLER PUSH1 0x40 MLOAD DUP3 PUSH4 0xFFFFFFFF AND PUSH1 0xE0 SHL DUP2 MSTORE PUSH1 0x4 ADD PUSH2 0xAA0 SWAP2 SWAP1 PUSH2 0x1146 JUMP JUMPDEST PUSH1 0x20 PUSH1 0x40 MLOAD DUP1 DUP4 SUB DUP2 DUP7 DUP1 EXTCODESIZE ISZERO DUP1 ISZERO PUSH2 0xAB8 JUMPI PUSH1 0x0 DUP1 REVERT JUMPDEST POP GAS STATICCALL ISZERO DUP1 ISZERO PUSH2 0xACC JUMPI RETURNDATASIZE PUSH1 0x0 DUP1 RETURNDATACOPY RETURNDATASIZE PUSH1 0x0 REVERT JUMPDEST POP POP POP POP PUSH1 0x40 MLOAD RETURNDATASIZE PUSH1 0x1F NOT PUSH1 0x1F DUP3 ADD AND DUP3 ADD DUP1 PUSH1 0x40 MSTORE POP DUP2 ADD SWAP1 PUSH2 0xAF0 SWAP2 SWAP1 PUSH2 0x1034 JUMP JUMPDEST SWAP1 POP DUP2 DUP2 GT PUSH2 0xB34 JUMPI PUSH1 0x40 MLOAD PUSH32 0x8C379A000000000000000000000000000000000000000000000000000000000 DUP2 MSTORE PUSH1 0x4 ADD PUSH2 0xB2B SWAP1 PUSH2 0x1217 JUMP JUMPDEST PUSH1 0x40 MLOAD DUP1 SWAP2 SUB SWAP1 REVERT JUMPDEST PUSH1 0x12 PUSH1 0x0 SWAP1 SLOAD SWAP1 PUSH2 0x100 EXP SWAP1 DIV PUSH20 0xFFFFFFFFFFFFFFFFFFFFFFFFFFFFFFFFFFFFFFFF AND PUSH20 0xFFFFFFFFFFFFFFFFFFFFFFFFFFFFFFFFFFFFFFFF AND PUSH4 0xA9059CBB CALLER PUSH8 0xDE0B6B3A7640000 PUSH1 0x1 PUSH2 0xB88 SWAP2 SWAP1 PUSH2 0x130A JUMP JUMPDEST DUP6 PUSH2 0xB93 SWAP2 SWAP1 PUSH2 0x1283 JUMP JUMPDEST PUSH1 0x40 MLOAD DUP4 PUSH4 0xFFFFFFFF AND PUSH1 0xE0 SHL DUP2 MSTORE PUSH1 0x4 ADD PUSH2 0xBB0 SWAP3 SWAP2 SWAP1 PUSH2 0x1198 JUMP JUMPDEST PUSH1 0x20 PUSH1 0x40 MLOAD DUP1 DUP4 SUB DUP2 PUSH1 0x0 DUP8 DUP1 EXTCODESIZE ISZERO DUP1 ISZERO PUSH2 0xBCA JUMPI PUSH1 0x0 DUP1 REVERT JUMPDEST POP GAS CALL ISZERO DUP1 ISZERO PUSH2 0xBDE JUMPI RETURNDATASIZE PUSH1 0x0 DUP1 RETURNDATACOPY RETURNDATASIZE PUSH1 0x0 REVERT JUMPDEST POP POP POP POP PUSH1 0x40 MLOAD RETURNDATASIZE PUSH1 0x1F NOT PUSH1 0x1F DUP3 ADD AND DUP3 ADD DUP1 PUSH1 0x40 MSTORE POP DUP2 ADD SWAP1 PUSH2 0xC02 SWAP2 SWAP1 PUSH2 0xFDA JUMP JUMPDEST POP PUSH2 0xC31 PUSH1 0x11 PUSH1 0x0 SWAP1 SLOAD SWAP1 PUSH2 0x100 EXP SWAP1 DIV PUSH20 0xFFFFFFFFFFFFFFFFFFFFFFFFFFFFFFFFFFFFFFFF AND CALLER ADDRESS DUP6 PUSH2 0xE6C JUMP JUMPDEST POP POP JUMP JUMPDEST PUSH1 0x12 PUSH1 0x0 SWAP1 SLOAD SWAP1 PUSH2 0x100 EXP SWAP1 DIV PUSH20 0xFFFFFFFFFFFFFFFFFFFFFFFFFFFFFFFFFFFFFFFF AND DUP2 JUMP JUMPDEST PUSH1 0x0 DUP3 PUSH20 0xFFFFFFFFFFFFFFFFFFFFFFFFFFFFFFFFFFFFFFFF AND PUSH4 0x70A08231 DUP4 PUSH1 0x40 MLOAD DUP3 PUSH4 0xFFFFFFFF AND PUSH1 0xE0 SHL DUP2 MSTORE PUSH1 0x4 ADD PUSH2 0xC96 SWAP2 SWAP1 PUSH2 0x1146 JUMP JUMPDEST PUSH1 0x20 PUSH1 0x40 MLOAD DUP1 DUP4 SUB DUP2 DUP7 DUP1 EXTCODESIZE ISZERO DUP1 ISZERO PUSH2 0xCAE JUMPI PUSH1 0x0 DUP1 REVERT JUMPDEST POP GAS STATICCALL ISZERO DUP1 ISZERO PUSH2 0xCC2 JUMPI RETURNDATASIZE PUSH1 0x0 DUP1 RETURNDATACOPY RETURNDATASIZE PUSH1 0x0 REVERT JUMPDEST POP POP POP POP PUSH1 0x40 MLOAD RETURNDATASIZE PUSH1 0x1F NOT PUSH1 0x1F DUP3 ADD AND DUP3 ADD DUP1 PUSH1 0x40 MSTORE POP DUP2 ADD SWAP1 PUSH2 0xCE6 SWAP2 SWAP1 PUSH2 0x1034 JUMP JUMPDEST SWAP1 POP SWAP3 SWAP2 POP POP JUMP JUMPDEST PUSH1 0x0 SLOAD DUP2 JUMP JUMPDEST PUSH1 0x10 PUSH1 0x0 SWAP1 SLOAD SWAP1 PUSH2 0x100 EXP SWAP1 DIV PUSH20 0xFFFFFFFFFFFFFFFFFFFFFFFFFFFFFFFFFFFFFFFF AND DUP2 JUMP JUMPDEST PUSH1 0x0 DUP1 PUSH2 0xD27 DUP5 DUP5 PUSH2 0xD93 JUMP JUMPDEST SWAP1 POP PUSH8 0xDE0B6B3A7640000 PUSH2 0xD50 DUP3 PUSH1 0x2 PUSH8 0xDE0B6B3A7640000 PUSH2 0xD4B SWAP2 SWAP1 PUSH2 0x12D9 JUMP JUMPDEST PUSH2 0xE0E JUMP JUMPDEST PUSH2 0xD5A SWAP2 SWAP1 PUSH2 0x12D9 JUMP JUMPDEST SWAP2 POP POP SWAP3 SWAP2 POP POP JUMP JUMPDEST PUSH1 0x6 PUSH1 0x0 SWAP1 SLOAD SWAP1 PUSH2 0x100 EXP SWAP1 DIV PUSH20 0xFFFFFFFFFFFFFFFFFFFFFFFFFFFFFFFFFFFFFFFF AND DUP2 JUMP JUMPDEST DUP1 PUSH1 0xB DUP2 SWAP1 SSTORE POP POP JUMP JUMPDEST PUSH1 0x0 DUP1 DUP4 EQ ISZERO PUSH2 0xDA6 JUMPI PUSH1 0x0 SWAP1 POP PUSH2 0xE08 JUMP JUMPDEST PUSH1 0x0 DUP3 DUP5 PUSH2 0xDB4 SWAP2 SWAP1 PUSH2 0x130A JUMP JUMPDEST SWAP1 POP DUP3 DUP5 DUP3 PUSH2 0xDC3 SWAP2 SWAP1 PUSH2 0x12D9 JUMP JUMPDEST EQ PUSH2 0xE03 JUMPI PUSH1 0x40 MLOAD PUSH32 0x8C379A000000000000000000000000000000000000000000000000000000000 DUP2 MSTORE PUSH1 0x4 ADD PUSH2 0xDFA SWAP1 PUSH2 0x1237 JUMP JUMPDEST PUSH1 0x40 MLOAD DUP1 SWAP2 SUB SWAP1 REVERT JUMPDEST DUP1 SWAP2 POP POP JUMPDEST SWAP3 SWAP2 POP POP JUMP JUMPDEST PUSH1 0x0 DUP1 DUP3 DUP5 PUSH2 0xE1D SWAP2 SWAP1 PUSH2 0x1283 JUMP JUMPDEST SWAP1 POP DUP4 DUP2 LT ISZERO PUSH2 0xE62 JUMPI PUSH1 0x40 MLOAD PUSH32 0x8C379A000000000000000000000000000000000000000000000000000000000 DUP2 MSTORE PUSH1 0x4 ADD PUSH2 0xE59 SWAP1 PUSH2 0x1237 JUMP JUMPDEST PUSH1 0x40 MLOAD DUP1 SWAP2 SUB SWAP1 REVERT JUMPDEST DUP1 SWAP2 POP POP SWAP3 SWAP2 POP POP JUMP JUMPDEST PUSH1 0x0 DUP5 PUSH20 0xFFFFFFFFFFFFFFFFFFFFFFFFFFFFFFFFFFFFFFFF AND PUSH4 0x23B872DD DUP6 DUP6 DUP6 PUSH1 0x40 MLOAD DUP5 PUSH4 0xFFFFFFFF AND PUSH1 0xE0 SHL DUP2 MSTORE PUSH1 0x4 ADD PUSH2 0xEAB SWAP4 SWAP3 SWAP2 SWAP1 PUSH2 0x1161 JUMP JUMPDEST PUSH1 0x20 PUSH1 0x40 MLOAD DUP1 DUP4 SUB DUP2 PUSH1 0x0 DUP8 DUP1 EXTCODESIZE ISZERO DUP1 ISZERO PUSH2 0xEC5 JUMPI PUSH1 0x0 DUP1 REVERT JUMPDEST POP GAS CALL ISZERO DUP1 ISZERO PUSH2 0xED9 JUMPI RETURNDATASIZE PUSH1 0x0 DUP1 RETURNDATACOPY RETURNDATASIZE PUSH1 0x0 REVERT JUMPDEST POP POP POP POP PUSH1 0x40 MLOAD RETURNDATASIZE PUSH1 0x1F NOT PUSH1 0x1F DUP3 ADD AND DUP3 ADD DUP1 PUSH1 0x40 MSTORE POP DUP2 ADD SWAP1 PUSH2 0xEFD SWAP2 SWAP1 PUSH2 0xFDA JUMP JUMPDEST SWAP1 POP DUP1 PUSH2 0xF3F JUMPI PUSH1 0x40 MLOAD PUSH32 0x8C379A000000000000000000000000000000000000000000000000000000000 DUP2 MSTORE PUSH1 0x4 ADD PUSH2 0xF36 SWAP1 PUSH2 0x11F7 JUMP JUMPDEST PUSH1 0x40 MLOAD DUP1 SWAP2 SUB SWAP1 REVERT JUMPDEST POP POP POP POP POP JUMP JUMPDEST PUSH1 0x0 DUP2 CALLDATALOAD SWAP1 POP PUSH2 0xF55 DUP2 PUSH2 0x1527 JUMP JUMPDEST SWAP3 SWAP2 POP POP JUMP JUMPDEST PUSH1 0x0 DUP2 MLOAD SWAP1 POP PUSH2 0xF6A DUP2 PUSH2 0x153E JUMP JUMPDEST SWAP3 SWAP2 POP POP JUMP JUMPDEST PUSH1 0x0 DUP2 CALLDATALOAD SWAP1 POP PUSH2 0xF7F DUP2 PUSH2 0x1555 JUMP JUMPDEST SWAP3 SWAP2 POP POP JUMP JUMPDEST PUSH1 0x0 DUP2 MLOAD SWAP1 POP PUSH2 0xF94 DUP2 PUSH2 0x1555 JUMP JUMPDEST SWAP3 SWAP2 POP POP JUMP JUMPDEST PUSH1 0x0 DUP1 PUSH1 0x40 DUP4 DUP6 SUB SLT ISZERO PUSH2 0xFB1 JUMPI PUSH2 0xFB0 PUSH2 0x1481 JUMP JUMPDEST JUMPDEST PUSH1 0x0 PUSH2 0xFBF DUP6 DUP3 DUP7 ADD PUSH2 0xF46 JUMP JUMPDEST SWAP3 POP POP PUSH1 0x20 PUSH2 0xFD0 DUP6 DUP3 DUP7 ADD PUSH2 0xF46 JUMP JUMPDEST SWAP2 POP POP SWAP3 POP SWAP3 SWAP1 POP JUMP JUMPDEST PUSH1 0x0 PUSH1 0x20 DUP3 DUP5 SUB SLT ISZERO PUSH2 0xFF0 JUMPI PUSH2 0xFEF PUSH2 0x1481 JUMP JUMPDEST JUMPDEST PUSH1 0x0 PUSH2 0xFFE DUP5 DUP3 DUP6 ADD PUSH2 0xF5B JUMP JUMPDEST SWAP2 POP POP SWAP3 SWAP2 POP POP JUMP JUMPDEST PUSH1 0x0 PUSH1 0x20 DUP3 DUP5 SUB SLT ISZERO PUSH2 0x101D JUMPI PUSH2 0x101C PUSH2 0x1481 JUMP JUMPDEST JUMPDEST PUSH1 0x0 PUSH2 0x102B DUP5 DUP3 DUP6 ADD PUSH2 0xF70 JUMP JUMPDEST SWAP2 POP POP SWAP3 SWAP2 POP POP JUMP JUMPDEST PUSH1 0x0 PUSH1 0x20 DUP3 DUP5 SUB SLT ISZERO PUSH2 0x104A JUMPI PUSH2 0x1049 PUSH2 0x1481 JUMP JUMPDEST JUMPDEST PUSH1 0x0 PUSH2 0x1058 DUP5 DUP3 DUP6 ADD PUSH2 0xF85 JUMP JUMPDEST SWAP2 POP POP SWAP3 SWAP2 POP POP JUMP JUMPDEST PUSH1 0x0 DUP1 PUSH1 0x40 DUP4 DUP6 SUB SLT ISZERO PUSH2 0x1078 JUMPI PUSH2 0x1077 PUSH2 0x1481 JUMP JUMPDEST JUMPDEST PUSH1 0x0 PUSH2 0x1086 DUP6 DUP3 DUP7 ADD PUSH2 0xF70 JUMP JUMPDEST SWAP3 POP POP PUSH1 0x20 PUSH2 0x1097 DUP6 DUP3 DUP7 ADD PUSH2 0xF70 JUMP JUMPDEST SWAP2 POP POP SWAP3 POP SWAP3 SWAP1 POP JUMP JUMPDEST PUSH2 0x10AA DUP2 PUSH2 0x1398 JUMP JUMPDEST DUP3 MSTORE POP POP JUMP JUMPDEST PUSH2 0x10B9 DUP2 PUSH2 0x13ED JUMP JUMPDEST DUP3 MSTORE POP POP JUMP JUMPDEST PUSH2 0x10C8 DUP2 PUSH2 0x13B6 JUMP JUMPDEST DUP3 MSTORE POP POP JUMP JUMPDEST PUSH1 0x0 PUSH2 0x10DB PUSH1 0x15 DUP4 PUSH2 0x1272 JUMP JUMPDEST SWAP2 POP PUSH2 0x10E6 DUP3 PUSH2 0x1486 JUMP JUMPDEST PUSH1 0x20 DUP3 ADD SWAP1 POP SWAP2 SWAP1 POP JUMP JUMPDEST PUSH1 0x0 PUSH2 0x10FE PUSH1 0x1A DUP4 PUSH2 0x1272 JUMP JUMPDEST SWAP2 POP PUSH2 0x1109 DUP3 PUSH2 0x14AF JUMP JUMPDEST PUSH1 0x20 DUP3 ADD SWAP1 POP SWAP2 SWAP1 POP JUMP JUMPDEST PUSH1 0x0 PUSH2 0x1121 PUSH1 0x21 DUP4 PUSH2 0x1272 JUMP JUMPDEST SWAP2 POP PUSH2 0x112C DUP3 PUSH2 0x14D8 JUMP JUMPDEST PUSH1 0x40 DUP3 ADD SWAP1 POP SWAP2 SWAP1 POP JUMP JUMPDEST PUSH2 0x1140 DUP2 PUSH2 0x13E3 JUMP JUMPDEST DUP3 MSTORE POP POP JUMP JUMPDEST PUSH1 0x0 PUSH1 0x20 DUP3 ADD SWAP1 POP PUSH2 0x115B PUSH1 0x0 DUP4 ADD DUP5 PUSH2 0x10A1 JUMP JUMPDEST SWAP3 SWAP2 POP POP JUMP JUMPDEST PUSH1 0x0 PUSH1 0x60 DUP3 ADD SWAP1 POP PUSH2 0x1176 PUSH1 0x0 DUP4 ADD DUP7 PUSH2 0x10A1 JUMP JUMPDEST PUSH2 0x1183 PUSH1 0x20 DUP4 ADD DUP6 PUSH2 0x10A1 JUMP JUMPDEST PUSH2 0x1190 PUSH1 0x40 DUP4 ADD DUP5 PUSH2 0x1137 JUMP JUMPDEST SWAP5 SWAP4 POP POP POP POP JUMP JUMPDEST PUSH1 0x0 PUSH1 0x40 DUP3 ADD SWAP1 POP PUSH2 0x11AD PUSH1 0x0 DUP4 ADD DUP6 PUSH2 0x10A1 JUMP JUMPDEST PUSH2 0x11BA PUSH1 0x20 DUP4 ADD DUP5 PUSH2 0x1137 JUMP JUMPDEST SWAP4 SWAP3 POP POP POP JUMP JUMPDEST PUSH1 0x0 PUSH1 0x20 DUP3 ADD SWAP1 POP PUSH2 0x11D6 PUSH1 0x0 DUP4 ADD DUP5 PUSH2 0x10B0 JUMP JUMPDEST SWAP3 SWAP2 POP POP JUMP JUMPDEST PUSH1 0x0 PUSH1 0x20 DUP3 ADD SWAP1 POP PUSH2 0x11F1 PUSH1 0x0 DUP4 ADD DUP5 PUSH2 0x10BF JUMP JUMPDEST SWAP3 SWAP2 POP POP JUMP JUMPDEST PUSH1 0x0 PUSH1 0x20 DUP3 ADD SWAP1 POP DUP2 DUP2 SUB PUSH1 0x0 DUP4 ADD MSTORE PUSH2 0x1210 DUP2 PUSH2 0x10CE JUMP JUMPDEST SWAP1 POP SWAP2 SWAP1 POP JUMP JUMPDEST PUSH1 0x0 PUSH1 0x20 DUP3 ADD SWAP1 POP DUP2 DUP2 SUB PUSH1 0x0 DUP4 ADD MSTORE PUSH2 0x1230 DUP2 PUSH2 0x10F1 JUMP JUMPDEST SWAP1 POP SWAP2 SWAP1 POP JUMP JUMPDEST PUSH1 0x0 PUSH1 0x20 DUP3 ADD SWAP1 POP DUP2 DUP2 SUB PUSH1 0x0 DUP4 ADD MSTORE PUSH2 0x1250 DUP2 PUSH2 0x1114 JUMP JUMPDEST SWAP1 POP SWAP2 SWAP1 POP JUMP JUMPDEST PUSH1 0x0 PUSH1 0x20 DUP3 ADD SWAP1 POP PUSH2 0x126C PUSH1 0x0 DUP4 ADD DUP5 PUSH2 0x1137 JUMP JUMPDEST SWAP3 SWAP2 POP POP JUMP JUMPDEST PUSH1 0x0 DUP3 DUP3 MSTORE PUSH1 0x20 DUP3 ADD SWAP1 POP SWAP3 SWAP2 POP POP JUMP JUMPDEST PUSH1 0x0 PUSH2 0x128E DUP3 PUSH2 0x13E3 JUMP JUMPDEST SWAP2 POP PUSH2 0x1299 DUP4 PUSH2 0x13E3 JUMP JUMPDEST SWAP3 POP DUP3 PUSH32 0xFFFFFFFFFFFFFFFFFFFFFFFFFFFFFFFFFFFFFFFFFFFFFFFFFFFFFFFFFFFFFFFF SUB DUP3 GT ISZERO PUSH2 0x12CE JUMPI PUSH2 0x12CD PUSH2 0x1423 JUMP JUMPDEST JUMPDEST DUP3 DUP3 ADD SWAP1 POP SWAP3 SWAP2 POP POP JUMP JUMPDEST PUSH1 0x0 PUSH2 0x12E4 DUP3 PUSH2 0x13E3 JUMP JUMPDEST SWAP2 POP PUSH2 0x12EF DUP4 PUSH2 0x13E3 JUMP JUMPDEST SWAP3 POP DUP3 PUSH2 0x12FF JUMPI PUSH2 0x12FE PUSH2 0x1452 JUMP JUMPDEST JUMPDEST DUP3 DUP3 DIV SWAP1 POP SWAP3 SWAP2 POP POP JUMP JUMPDEST PUSH1 0x0 PUSH2 0x1315 DUP3 PUSH2 0x13E3 JUMP JUMPDEST SWAP2 POP PUSH2 0x1320 DUP4 PUSH2 0x13E3 JUMP JUMPDEST SWAP3 POP DUP2 PUSH32 0xFFFFFFFFFFFFFFFFFFFFFFFFFFFFFFFFFFFFFFFFFFFFFFFFFFFFFFFFFFFFFFFF DIV DUP4 GT DUP3 ISZERO ISZERO AND ISZERO PUSH2 0x1359 JUMPI PUSH2 0x1358 PUSH2 0x1423 JUMP JUMPDEST JUMPDEST DUP3 DUP3 MUL SWAP1 POP SWAP3 SWAP2 POP POP JUMP JUMPDEST PUSH1 0x0 PUSH2 0x136F DUP3 PUSH2 0x13E3 JUMP JUMPDEST SWAP2 POP PUSH2 0x137A DUP4 PUSH2 0x13E3 JUMP JUMPDEST SWAP3 POP DUP3 DUP3 LT ISZERO PUSH2 0x138D JUMPI PUSH2 0x138C PUSH2 0x1423 JUMP JUMPDEST JUMPDEST DUP3 DUP3 SUB SWAP1 POP SWAP3 SWAP2 POP POP JUMP JUMPDEST PUSH1 0x0 PUSH2 0x13A3 DUP3 PUSH2 0x13C3 JUMP JUMPDEST SWAP1 POP SWAP2 SWAP1 POP JUMP JUMPDEST PUSH1 0x0 DUP2 ISZERO ISZERO SWAP1 POP SWAP2 SWAP1 POP JUMP JUMPDEST PUSH1 0x0 DUP2 PUSH1 0xF SIGNEXTEND SWAP1 POP SWAP2 SWAP1 POP JUMP JUMPDEST PUSH1 0x0 PUSH20 0xFFFFFFFFFFFFFFFFFFFFFFFFFFFFFFFFFFFFFFFF DUP3 AND SWAP1 POP SWAP2 SWAP1 POP JUMP JUMPDEST PUSH1 0x0 DUP2 SWAP1 POP SWAP2 SWAP1 POP JUMP JUMPDEST PUSH1 0x0 PUSH2 0x13F8 DUP3 PUSH2 0x13FF JUMP JUMPDEST SWAP1 POP SWAP2 SWAP1 POP JUMP JUMPDEST PUSH1 0x0 PUSH2 0x140A DUP3 PUSH2 0x1411 JUMP JUMPDEST SWAP1 POP SWAP2 SWAP1 POP JUMP JUMPDEST PUSH1 0x0 PUSH2 0x141C DUP3 PUSH2 0x13C3 JUMP JUMPDEST SWAP1 POP SWAP2 SWAP1 POP JUMP JUMPDEST PUSH32 0x4E487B7100000000000000000000000000000000000000000000000000000000 PUSH1 0x0 MSTORE PUSH1 0x11 PUSH1 0x4 MSTORE PUSH1 0x24 PUSH1 0x0 REVERT JUMPDEST PUSH32 0x4E487B7100000000000000000000000000000000000000000000000000000000 PUSH1 0x0 MSTORE PUSH1 0x12 PUSH1 0x4 MSTORE PUSH1 0x24 PUSH1 0x0 REVERT JUMPDEST PUSH1 0x0 DUP1 REVERT JUMPDEST PUSH32 0x546F6B656E207472616E73666572206661696C65640000000000000000000000 PUSH1 0x0 DUP3 ADD MSTORE POP JUMP JUMPDEST PUSH32 0x596F7520646F6E742068617665207468617420616D6F756E7421000000000000 PUSH1 0x0 DUP3 ADD MSTORE POP JUMP JUMPDEST PUSH32 0x75696E74206F766572666C6F772066726F6D206D756C7469706C69636174696F PUSH1 0x0 DUP3 ADD MSTORE PUSH32 0x6E00000000000000000000000000000000000000000000000000000000000000 PUSH1 0x20 DUP3 ADD MSTORE POP JUMP JUMPDEST PUSH2 0x1530 DUP2 PUSH2 0x1398 JUMP JUMPDEST DUP2 EQ PUSH2 0x153B JUMPI PUSH1 0x0 DUP1 REVERT JUMPDEST POP JUMP JUMPDEST PUSH2 0x1547 DUP2 PUSH2 0x13AA JUMP JUMPDEST DUP2 EQ PUSH2 0x1552 JUMPI PUSH1 0x0 DUP1 REVERT JUMPDEST POP JUMP JUMPDEST PUSH2 0x155E DUP2 PUSH2 0x13E3 JUMP JUMPDEST DUP2 EQ PUSH2 0x1569 JUMPI PUSH1 0x0 DUP1 REVERT JUMPDEST POP JUMP INVALID LOG2 PUSH5 0x6970667358 0x22 SLT KECCAK256 EXTCODESIZE CREATE DIV MLOAD PUSH12 0x2FBCF66BD80901A8C809EAA ISZERO CALLVALUE 0xE8 DUP4 SELFBALANCE PUSH7 0x1DA5BB39FC91A 0xBC SAR PUSH5 0x736F6C6343 STOP ADDMOD SMOD STOP CALLER "
				},
				"gasEstimates": {
					"creation": {
						"codeDepositCost": "1107600",
						"executionCost": "infinite",
						"totalCost": "infinite"
					},
					"external": {
						"buyScepter(uint256)": "infinite",
						"daysInCalculation()": "2518",
						"decDiv18(uint256,uint256)": "infinite",
						"decMul18(uint256,uint256)": "infinite",
						"getBackingPrice()": "infinite",
						"getBuyPrice()": "infinite",
						"getSellPrice()": "infinite",
						"growthFactor()": "2473",
						"mintBaton(uint256)": "infinite",
						"mockUSDC()": "2711",
						"queryERC20Balance(address,address)": "infinite",
						"res()": "2498",
						"riskTreasuryAddr()": "2560",
						"scepterTreasuryAddr()": "2559",
						"sellFactor()": "2496",
						"sellScepter(uint256)": "infinite",
						"setDaysUsedInFactors(uint256)": "22652",
						"tSC()": "2711",
						"testwallet()": "2580",
						"treasury1Addr()": "2624",
						"treasury1bal()": "2541"
					},
					"internal": {
						"_safeTransferFrom(contract IERC20,address,address,uint256)": "infinite",
						"add(uint256,uint256)": "infinite",
						"div(uint256,uint256)": "infinite",
						"mul(uint256,uint256)": "infinite",
						"sub(uint256,uint256)": "infinite"
					}
				},
				"methodIdentifiers": {
					"buyScepter(uint256)": "65819f7e",
					"daysInCalculation()": "67b48c91",
					"decDiv18(uint256,uint256)": "64ce07d8",
					"decMul18(uint256,uint256)": "f7523c52",
					"getBackingPrice()": "1f564a06",
					"getBuyPrice()": "018a25e8",
					"getSellPrice()": "43d32e9c",
					"growthFactor()": "ee620868",
					"mintBaton(uint256)": "2934b237",
					"mockUSDC()": "ee467678",
					"queryERC20Balance(address,address)": "ee546a51",
					"res()": "6f10e285",
					"riskTreasuryAddr()": "047729b0",
					"scepterTreasuryAddr()": "c079d7f6",
					"sellFactor()": "cbff4617",
					"sellScepter(uint256)": "daa3a4a4",
					"setDaysUsedInFactors(uint256)": "fc361443",
					"tSC()": "6e05c1b9",
					"testwallet()": "eee05f5e",
					"treasury1Addr()": "fbbb4589",
					"treasury1bal()": "35453307"
				}
			},
			"userdoc": {
				"kind": "user",
				"methods": {},
				"version": 1
			}
		}
	}
}