{
	"WandInstruments.sol": {
		"testSticks": {
			"abi": [
				{
					"inputs": [
						{
							"internalType": "address",
							"name": "scepterAddr",
							"type": "address"
						},
						{
							"internalType": "address",
							"name": "batonAddr",
							"type": "address"
						}
					],
					"stateMutability": "nonpayable",
					"type": "constructor"
				},
				{
					"anonymous": false,
					"inputs": [
						{
							"indexed": true,
							"internalType": "address",
							"name": "_from",
							"type": "address"
						},
						{
							"indexed": false,
							"internalType": "uint256",
							"name": "_amount",
							"type": "uint256"
						}
					],
					"name": "sceptersBought",
					"type": "event"
				},
				{
					"anonymous": false,
					"inputs": [
						{
							"indexed": true,
							"internalType": "address",
							"name": "_from",
							"type": "address"
						},
						{
							"indexed": false,
							"internalType": "uint256",
							"name": "_amount",
							"type": "uint256"
						}
					],
					"name": "sceptersSold",
					"type": "event"
				},
				{
					"inputs": [],
					"name": "BTON",
					"outputs": [
						{
							"internalType": "contract IERC20",
							"name": "",
							"type": "address"
						}
					],
					"stateMutability": "view",
					"type": "function"
				},
				{
					"inputs": [],
					"name": "SPTR",
					"outputs": [
						{
							"internalType": "contract IERC20",
							"name": "",
							"type": "address"
						}
					],
					"stateMutability": "view",
					"type": "function"
				},
				{
					"inputs": [],
					"name": "WAND",
					"outputs": [
						{
							"internalType": "contract IERC20",
							"name": "",
							"type": "address"
						}
					],
					"stateMutability": "view",
					"type": "function"
				},
				{
					"inputs": [
						{
							"internalType": "string",
							"name": "_ticker",
							"type": "string"
						},
						{
							"internalType": "address",
							"name": "_addr",
							"type": "address"
						},
						{
							"internalType": "uint256",
							"name": "_dec",
							"type": "uint256"
						}
					],
					"name": "addStable",
					"outputs": [],
					"stateMutability": "nonpayable",
					"type": "function"
				},
				{
					"inputs": [
						{
							"internalType": "uint256",
							"name": "amountSCPtoBuy",
							"type": "uint256"
						},
						{
							"internalType": "string",
							"name": "_stableChosen",
							"type": "string"
						}
					],
					"name": "buyScepter",
					"outputs": [],
					"stateMutability": "nonpayable",
					"type": "function"
				},
				{
					"inputs": [
						{
							"internalType": "uint256",
							"name": "amountSCPtoSell",
							"type": "uint256"
						},
						{
							"internalType": "uint256",
							"name": "timeChosenLocked",
							"type": "uint256"
						},
						{
							"internalType": "string",
							"name": "_stableChosen",
							"type": "string"
						}
					],
					"name": "cashOutScepter",
					"outputs": [],
					"stateMutability": "payable",
					"type": "function"
				},
				{
					"inputs": [
						{
							"internalType": "uint256",
							"name": "",
							"type": "uint256"
						}
					],
					"name": "circulatingSupplyXDays",
					"outputs": [
						{
							"internalType": "uint256",
							"name": "",
							"type": "uint256"
						}
					],
					"stateMutability": "view",
					"type": "function"
				},
				{
					"inputs": [
						{
							"internalType": "address",
							"name": "_claimant",
							"type": "address"
						},
						{
							"internalType": "string",
							"name": "_stableChosen",
							"type": "string"
						}
					],
					"name": "claimLockedUSDC",
					"outputs": [],
					"stateMutability": "nonpayable",
					"type": "function"
				},
				{
					"inputs": [],
					"name": "daysInCalculation",
					"outputs": [
						{
							"internalType": "uint256",
							"name": "",
							"type": "uint256"
						}
					],
					"stateMutability": "view",
					"type": "function"
				},
				{
					"inputs": [
						{
							"internalType": "uint256",
							"name": "x",
							"type": "uint256"
						},
						{
							"internalType": "uint256",
							"name": "y",
							"type": "uint256"
						}
					],
					"name": "decDiv18",
					"outputs": [
						{
							"internalType": "uint256",
							"name": "decQuotient",
							"type": "uint256"
						}
					],
					"stateMutability": "pure",
					"type": "function"
				},
				{
					"inputs": [
						{
							"internalType": "uint256",
							"name": "x",
							"type": "uint256"
						},
						{
							"internalType": "uint256",
							"name": "y",
							"type": "uint256"
						}
					],
					"name": "decMul18",
					"outputs": [
						{
							"internalType": "uint256",
							"name": "decProd",
							"type": "uint256"
						}
					],
					"stateMutability": "pure",
					"type": "function"
				},
				{
					"inputs": [],
					"name": "devWalletAddr",
					"outputs": [
						{
							"internalType": "address",
							"name": "",
							"type": "address"
						}
					],
					"stateMutability": "view",
					"type": "function"
				},
				{
					"inputs": [],
					"name": "getBackingPrice",
					"outputs": [
						{
							"internalType": "uint256",
							"name": "",
							"type": "uint256"
						}
					],
					"stateMutability": "view",
					"type": "function"
				},
				{
					"inputs": [],
					"name": "getBuyPrice",
					"outputs": [
						{
							"internalType": "uint256",
							"name": "",
							"type": "uint256"
						}
					],
					"stateMutability": "view",
					"type": "function"
				},
				{
					"inputs": [],
					"name": "getCircSupplyXDays",
					"outputs": [
						{
							"internalType": "uint256",
							"name": "",
							"type": "uint256"
						}
					],
					"stateMutability": "view",
					"type": "function"
				},
				{
					"inputs": [],
					"name": "getGrowthFactor",
					"outputs": [
						{
							"internalType": "uint256",
							"name": "",
							"type": "uint256"
						}
					],
					"stateMutability": "view",
					"type": "function"
				},
				{
					"inputs": [],
					"name": "getSellFactor",
					"outputs": [
						{
							"internalType": "uint256",
							"name": "",
							"type": "uint256"
						}
					],
					"stateMutability": "view",
					"type": "function"
				},
				{
					"inputs": [],
					"name": "getSellPrice",
					"outputs": [
						{
							"internalType": "uint256",
							"name": "",
							"type": "uint256"
						}
					],
					"stateMutability": "view",
					"type": "function"
				},
				{
					"inputs": [],
					"name": "getTokensBoughtXDays",
					"outputs": [
						{
							"internalType": "uint256",
							"name": "",
							"type": "uint256"
						}
					],
					"stateMutability": "view",
					"type": "function"
				},
				{
					"inputs": [],
					"name": "getTokensSoldXDays",
					"outputs": [
						{
							"internalType": "uint256",
							"name": "",
							"type": "uint256"
						}
					],
					"stateMutability": "view",
					"type": "function"
				},
				{
					"inputs": [],
					"name": "growthFactor",
					"outputs": [
						{
							"internalType": "uint256",
							"name": "",
							"type": "uint256"
						}
					],
					"stateMutability": "view",
					"type": "function"
				},
				{
					"inputs": [],
					"name": "res",
					"outputs": [
						{
							"internalType": "int128",
							"name": "",
							"type": "int128"
						}
					],
					"stateMutability": "view",
					"type": "function"
				},
				{
					"inputs": [],
					"name": "riskTreasuryAddr",
					"outputs": [
						{
							"internalType": "address",
							"name": "",
							"type": "address"
						}
					],
					"stateMutability": "view",
					"type": "function"
				},
				{
					"inputs": [],
					"name": "scepterTreasuryAddr",
					"outputs": [
						{
							"internalType": "address",
							"name": "",
							"type": "address"
						}
					],
					"stateMutability": "view",
					"type": "function"
				},
				{
					"inputs": [],
					"name": "sellFactor",
					"outputs": [
						{
							"internalType": "uint256",
							"name": "",
							"type": "uint256"
						}
					],
					"stateMutability": "view",
					"type": "function"
				},
				{
					"inputs": [
						{
							"internalType": "uint256",
							"name": "numDays",
							"type": "uint256"
						}
					],
					"name": "setDaysUsedInFactors",
					"outputs": [],
					"stateMutability": "nonpayable",
					"type": "function"
				},
				{
					"inputs": [
						{
							"internalType": "string",
							"name": "",
							"type": "string"
						}
					],
					"name": "stableERC20Info",
					"outputs": [
						{
							"internalType": "address",
							"name": "contractAddress",
							"type": "address"
						},
						{
							"internalType": "uint256",
							"name": "tokenDecimals",
							"type": "uint256"
						}
					],
					"stateMutability": "view",
					"type": "function"
				},
				{
					"inputs": [],
					"name": "tSC",
					"outputs": [
						{
							"internalType": "contract IERC20",
							"name": "",
							"type": "address"
						}
					],
					"stateMutability": "view",
					"type": "function"
				},
				{
					"inputs": [
						{
							"internalType": "uint256",
							"name": "amt",
							"type": "uint256"
						}
					],
					"name": "testUpdatetimeLockedminus",
					"outputs": [],
					"stateMutability": "nonpayable",
					"type": "function"
				},
				{
					"inputs": [
						{
							"internalType": "uint256",
							"name": "amt",
							"type": "uint256"
						}
					],
					"name": "testUpdatetimeLockedplus",
					"outputs": [],
					"stateMutability": "nonpayable",
					"type": "function"
				},
				{
					"inputs": [],
					"name": "testwallet",
					"outputs": [
						{
							"internalType": "address",
							"name": "",
							"type": "address"
						}
					],
					"stateMutability": "view",
					"type": "function"
				},
				{
					"inputs": [],
					"name": "timeLaunched",
					"outputs": [
						{
							"internalType": "uint256",
							"name": "",
							"type": "uint256"
						}
					],
					"stateMutability": "view",
					"type": "function"
				},
				{
					"inputs": [],
					"name": "tokenStable",
					"outputs": [
						{
							"internalType": "contract IERC20",
							"name": "",
							"type": "address"
						}
					],
					"stateMutability": "view",
					"type": "function"
				},
				{
					"inputs": [
						{
							"internalType": "uint256",
							"name": "",
							"type": "uint256"
						}
					],
					"name": "tokensBoughtXDays",
					"outputs": [
						{
							"internalType": "uint256",
							"name": "",
							"type": "uint256"
						}
					],
					"stateMutability": "view",
					"type": "function"
				},
				{
					"inputs": [
						{
							"internalType": "uint256",
							"name": "",
							"type": "uint256"
						}
					],
					"name": "tokensSoldXDays",
					"outputs": [
						{
							"internalType": "uint256",
							"name": "",
							"type": "uint256"
						}
					],
					"stateMutability": "view",
					"type": "function"
				},
				{
					"inputs": [
						{
							"internalType": "uint256",
							"name": "amountSCPtoSwap",
							"type": "uint256"
						}
					],
					"name": "transformScepterToBaton",
					"outputs": [],
					"stateMutability": "payable",
					"type": "function"
				},
				{
					"inputs": [],
					"name": "treasury1Addr",
					"outputs": [
						{
							"internalType": "address",
							"name": "",
							"type": "address"
						}
					],
					"stateMutability": "view",
					"type": "function"
				},
				{
					"inputs": [],
					"name": "treasury1bal",
					"outputs": [
						{
							"internalType": "uint256",
							"name": "",
							"type": "uint256"
						}
					],
					"stateMutability": "view",
					"type": "function"
				},
				{
					"inputs": [
						{
							"internalType": "address",
							"name": "_addr",
							"type": "address"
						}
					],
					"name": "whitelist",
					"outputs": [],
					"stateMutability": "nonpayable",
					"type": "function"
				},
				{
					"inputs": [
						{
							"internalType": "uint256",
							"name": "_amtToWithdraw",
							"type": "uint256"
						}
					],
					"name": "withdrawStables",
					"outputs": [],
					"stateMutability": "nonpayable",
					"type": "function"
				},
				{
					"inputs": [
						{
							"internalType": "address",
							"name": "",
							"type": "address"
						}
					],
					"name": "withheldWithdrawals",
					"outputs": [
						{
							"internalType": "uint256",
							"name": "timeUnlocked",
							"type": "uint256"
						},
						{
							"internalType": "uint256",
							"name": "amounts",
							"type": "uint256"
						}
					],
					"stateMutability": "view",
					"type": "function"
				}
			],
			"devdoc": {
				"kind": "dev",
				"methods": {},
				"version": 1
			},
			"evm": {
				"assembly": "    /* \"WandInstruments.sol\":129:15210  contract testSticks {\r... */\n  mstore(0x40, 0x80)\n    /* \"WandInstruments.sol\":316:322  10**18 */\n  0x0de0b6b3a7640000\n    /* \"WandInstruments.sol\":792:797  50000 */\n  0xc350\n    /* \"WandInstruments.sol\":792:808  50000*(DECIMALS) */\n  tag_1\n  swap2\n  swap1\n  tag_2\n  jump\t// in\ntag_1:\n    /* \"WandInstruments.sol\":762:808  uint256 public treasury1bal = 50000*(DECIMALS) */\n  0x0a\n  sstore\n    /* \"WandInstruments.sol\":958:964  100000 */\n  0x0186a0\n    /* \"WandInstruments.sol\":927:964  uint256 private ft5daybought = 100000 */\n  0x0d\n  sstore\n    /* \"WandInstruments.sol\":1000:1005  90000 */\n  0x015f90\n    /* \"WandInstruments.sol\":971:1005  uint256 private ft5daysold = 90000 */\n  0x0e\n  sstore\n    /* \"WandInstruments.sol\":1047:1053  600000 */\n  0x0927c0\n    /* \"WandInstruments.sol\":1012:1053  uint256 private double5daytokens = 600000 */\n  0x0f\n  sstore\n    /* \"WandInstruments.sol\":1174:1216  0x617F2E2fD72FD9D5503197092aC168c91465E7f2 */\n  0x617f2e2fd72fd9d5503197092ac168c91465e7f2\n    /* \"WandInstruments.sol\":1146:1216  address public testwallet = 0x617F2E2fD72FD9D5503197092aC168c91465E7f2 */\n  0x11\n  exp(0x0100, 0x00)\n  dup2\n  sload\n  dup2\n  0xffffffffffffffffffffffffffffffffffffffff\n  mul\n  not\n  and\n  swap1\n  dup4\n  0xffffffffffffffffffffffffffffffffffffffff\n  and\n  mul\n  or\n  swap1\n  sstore\n  pop\n    /* \"WandInstruments.sol\":2404:3560  constructor(address scepterAddr, address batonAddr) {   \r... */\n  callvalue\n  dup1\n  iszero\n  tag_3\n  jumpi\n  0x00\n  dup1\n  revert\ntag_3:\n  pop\n  mload(0x40)\n  sub(codesize, bytecodeSize)\n  dup1\n  bytecodeSize\n  dup4\n  codecopy\n  dup2\n  dup2\n  add\n  0x40\n  mstore\n  dup2\n  add\n  swap1\n  tag_4\n  swap2\n  swap1\n  tag_5\n  jump\t// in\ntag_4:\n    /* \"WandInstruments.sol\":2540:2551  scepterAddr */\n  dup2\n    /* \"WandInstruments.sol\":2525:2529  sptr */\n  0x1c\n  0x00\n    /* \"WandInstruments.sol\":2525:2552  sptr = Scepter(scepterAddr) */\n  0x0100\n  exp\n  dup2\n  sload\n  dup2\n  0xffffffffffffffffffffffffffffffffffffffff\n  mul\n  not\n  and\n  swap1\n  dup4\n  0xffffffffffffffffffffffffffffffffffffffff\n  and\n  mul\n  or\n  swap1\n  sstore\n  pop\n    /* \"WandInstruments.sol\":2575:2584  batonAddr */\n  dup1\n    /* \"WandInstruments.sol\":2563:2566  btn */\n  0x1d\n  0x00\n    /* \"WandInstruments.sol\":2563:2585  btn = Baton(batonAddr) */\n  0x0100\n  exp\n  dup2\n  sload\n  dup2\n  0xffffffffffffffffffffffffffffffffffffffff\n  mul\n  not\n  and\n  swap1\n  dup4\n  0xffffffffffffffffffffffffffffffffffffffff\n  and\n  mul\n  or\n  swap1\n  sstore\n  pop\n    /* \"WandInstruments.sol\":2609:2620  scepterAddr */\n  dup2\n    /* \"WandInstruments.sol\":2596:2599  tSC */\n  0x12\n  0x00\n    /* \"WandInstruments.sol\":2596:2621  tSC = IERC20(scepterAddr) */\n  0x0100\n  exp\n  dup2\n  sload\n  dup2\n  0xffffffffffffffffffffffffffffffffffffffff\n  mul\n  not\n  and\n  swap1\n  dup4\n  0xffffffffffffffffffffffffffffffffffffffff\n  and\n  mul\n  or\n  swap1\n  sstore\n  pop\n    /* \"WandInstruments.sol\":2695:2737  0x2F8895b08D8F226b19895d46154faB7096fB2593 */\n  0x2f8895b08d8f226b19895d46154fab7096fb2593\n    /* \"WandInstruments.sol\":2653:2668  stableERC20Info */\n  0x1a\n    /* \"WandInstruments.sol\":2653:2676  stableERC20Info[\"USDC\"] */\n  mload(0x40)\n  tag_8\n  swap1\n  tag_9\n  jump\t// in\ntag_8:\n  swap1\n  dup2\n  mstore\n  0x20\n  add\n  mload(0x40)\n  dup1\n  swap2\n  sub\n  swap1\n  keccak256\n    /* \"WandInstruments.sol\":2653:2692  stableERC20Info[\"USDC\"].contractAddress */\n  0x00\n  add\n  0x00\n    /* \"WandInstruments.sol\":2653:2737  stableERC20Info[\"USDC\"].contractAddress = 0x2F8895b08D8F226b19895d46154faB7096fB2593 */\n  0x0100\n  exp\n  dup2\n  sload\n  dup2\n  0xffffffffffffffffffffffffffffffffffffffff\n  mul\n  not\n  and\n  swap1\n  dup4\n  0xffffffffffffffffffffffffffffffffffffffff\n  and\n  mul\n  or\n  swap1\n  sstore\n  pop\n    /* \"WandInstruments.sol\":2788:2789  5 */\n  0x05\n    /* \"WandInstruments.sol\":2748:2763  stableERC20Info */\n  0x1a\n    /* \"WandInstruments.sol\":2748:2771  stableERC20Info[\"USDC\"] */\n  mload(0x40)\n  tag_10\n  swap1\n  tag_9\n  jump\t// in\ntag_10:\n  swap1\n  dup2\n  mstore\n  0x20\n  add\n  mload(0x40)\n  dup1\n  swap2\n  sub\n  swap1\n  keccak256\n    /* \"WandInstruments.sol\":2748:2785  stableERC20Info[\"USDC\"].tokenDecimals */\n  0x01\n  add\n    /* \"WandInstruments.sol\":2748:2789  stableERC20Info[\"USDC\"].tokenDecimals = 5 */\n  dup2\n  swap1\n  sstore\n  pop\n    /* \"WandInstruments.sol\":2861:2903  0x2A4a8Ab6A0Bc0d377098F8688F77003833BC1C9d */\n  0x2a4a8ab6a0bc0d377098f8688f77003833bc1c9d\n    /* \"WandInstruments.sol\":2820:2835  stableERC20Info */\n  0x1a\n    /* \"WandInstruments.sol\":2820:2842  stableERC20Info[\"DAI\"] */\n  mload(0x40)\n  tag_11\n  swap1\n  tag_12\n  jump\t// in\ntag_11:\n  swap1\n  dup2\n  mstore\n  0x20\n  add\n  mload(0x40)\n  dup1\n  swap2\n  sub\n  swap1\n  keccak256\n    /* \"WandInstruments.sol\":2820:2858  stableERC20Info[\"DAI\"].contractAddress */\n  0x00\n  add\n  0x00\n    /* \"WandInstruments.sol\":2820:2903  stableERC20Info[\"DAI\"].contractAddress = 0x2A4a8Ab6A0Bc0d377098F8688F77003833BC1C9d */\n  0x0100\n  exp\n  dup2\n  sload\n  dup2\n  0xffffffffffffffffffffffffffffffffffffffff\n  mul\n  not\n  and\n  swap1\n  dup4\n  0xffffffffffffffffffffffffffffffffffffffff\n  and\n  mul\n  or\n  swap1\n  sstore\n  pop\n    /* \"WandInstruments.sol\":2953:2955  18 */\n  0x12\n    /* \"WandInstruments.sol\":2914:2929  stableERC20Info */\n  0x1a\n    /* \"WandInstruments.sol\":2914:2936  stableERC20Info[\"DAI\"] */\n  mload(0x40)\n  tag_13\n  swap1\n  tag_12\n  jump\t// in\ntag_13:\n  swap1\n  dup2\n  mstore\n  0x20\n  add\n  mload(0x40)\n  dup1\n  swap2\n  sub\n  swap1\n  keccak256\n    /* \"WandInstruments.sol\":2914:2950  stableERC20Info[\"DAI\"].tokenDecimals */\n  0x01\n  add\n    /* \"WandInstruments.sol\":2914:2955  stableERC20Info[\"DAI\"].tokenDecimals = 18 */\n  dup2\n  swap1\n  sstore\n  pop\n    /* \"WandInstruments.sol\":3029:3071  0xdc301622e621166BD8E82f2cA0A26c13Ad0BE355 */\n  0xdc301622e621166bd8e82f2ca0a26c13ad0be355\n    /* \"WandInstruments.sol\":2987:3002  stableERC20Info */\n  0x1a\n    /* \"WandInstruments.sol\":2987:3010  stableERC20Info[\"FRAX\"] */\n  mload(0x40)\n  tag_14\n  swap1\n  tag_15\n  jump\t// in\ntag_14:\n  swap1\n  dup2\n  mstore\n  0x20\n  add\n  mload(0x40)\n  dup1\n  swap2\n  sub\n  swap1\n  keccak256\n    /* \"WandInstruments.sol\":2987:3026  stableERC20Info[\"FRAX\"].contractAddress */\n  0x00\n  add\n  0x00\n    /* \"WandInstruments.sol\":2987:3071  stableERC20Info[\"FRAX\"].contractAddress = 0xdc301622e621166BD8E82f2cA0A26c13Ad0BE355 */\n  0x0100\n  exp\n  dup2\n  sload\n  dup2\n  0xffffffffffffffffffffffffffffffffffffffff\n  mul\n  not\n  and\n  swap1\n  dup4\n  0xffffffffffffffffffffffffffffffffffffffff\n  and\n  mul\n  or\n  swap1\n  sstore\n  pop\n    /* \"WandInstruments.sol\":3122:3124  18 */\n  0x12\n    /* \"WandInstruments.sol\":3082:3097  stableERC20Info */\n  0x1a\n    /* \"WandInstruments.sol\":3082:3105  stableERC20Info[\"FRAX\"] */\n  mload(0x40)\n  tag_16\n  swap1\n  tag_15\n  jump\t// in\ntag_16:\n  swap1\n  dup2\n  mstore\n  0x20\n  add\n  mload(0x40)\n  dup1\n  swap2\n  sub\n  swap1\n  keccak256\n    /* \"WandInstruments.sol\":3082:3119  stableERC20Info[\"FRAX\"].tokenDecimals */\n  0x01\n  add\n    /* \"WandInstruments.sol\":3082:3124  stableERC20Info[\"FRAX\"].tokenDecimals = 18 */\n  dup2\n  swap1\n  sstore\n  pop\n    /* \"WandInstruments.sol\":3163:3205  0x617F2E2fD72FD9D5503197092aC168c91465E7f2 */\n  0x617f2e2fd72fd9d5503197092ac168c91465e7f2\n    /* \"WandInstruments.sol\":3147:3160  treasury1Addr */\n  0x06\n  0x00\n    /* \"WandInstruments.sol\":3147:3205  treasury1Addr = 0x617F2E2fD72FD9D5503197092aC168c91465E7f2 */\n  0x0100\n  exp\n  dup2\n  sload\n  dup2\n  0xffffffffffffffffffffffffffffffffffffffff\n  mul\n  not\n  and\n  swap1\n  dup4\n  0xffffffffffffffffffffffffffffffffffffffff\n  and\n  mul\n  or\n  swap1\n  sstore\n  pop\n    /* \"WandInstruments.sol\":3404:3419  block.timestamp */\n  timestamp\n    /* \"WandInstruments.sol\":3389:3401  timeLaunched */\n  0x0b\n    /* \"WandInstruments.sol\":3389:3419  timeLaunched = block.timestamp */\n  dup2\n  swap1\n  sstore\n  pop\n    /* \"WandInstruments.sol\":3450:3456  5 days */\n  0x069780\n    /* \"WandInstruments.sol\":3430:3447  daysInCalculation */\n  0x0c\n    /* \"WandInstruments.sol\":3430:3456  daysInCalculation = 5 days */\n  dup2\n  swap1\n  sstore\n  pop\n    /* \"WandInstruments.sol\":2404:3560  constructor(address scepterAddr, address batonAddr) {   \r... */\n  pop\n  pop\n    /* \"WandInstruments.sol\":129:15210  contract testSticks {\r... */\n  jump(tag_17)\n    /* \"#utility.yul\":7:150   */\ntag_19:\n    /* \"#utility.yul\":64:69   */\n  0x00\n    /* \"#utility.yul\":95:101   */\n  dup2\n    /* \"#utility.yul\":89:102   */\n  mload\n    /* \"#utility.yul\":80:102   */\n  swap1\n  pop\n    /* \"#utility.yul\":111:144   */\n  tag_21\n    /* \"#utility.yul\":138:143   */\n  dup2\n    /* \"#utility.yul\":111:144   */\n  tag_22\n  jump\t// in\ntag_21:\n    /* \"#utility.yul\":7:150   */\n  swap3\n  swap2\n  pop\n  pop\n  jump\t// out\n    /* \"#utility.yul\":156:663   */\ntag_5:\n    /* \"#utility.yul\":235:241   */\n  0x00\n    /* \"#utility.yul\":243:249   */\n  dup1\n    /* \"#utility.yul\":292:294   */\n  0x40\n    /* \"#utility.yul\":280:289   */\n  dup4\n    /* \"#utility.yul\":271:278   */\n  dup6\n    /* \"#utility.yul\":267:290   */\n  sub\n    /* \"#utility.yul\":263:295   */\n  slt\n    /* \"#utility.yul\":260:379   */\n  iszero\n  tag_24\n  jumpi\n    /* \"#utility.yul\":298:377   */\n  tag_25\n  tag_26\n  jump\t// in\ntag_25:\n    /* \"#utility.yul\":260:379   */\ntag_24:\n    /* \"#utility.yul\":418:419   */\n  0x00\n    /* \"#utility.yul\":443:507   */\n  tag_27\n    /* \"#utility.yul\":499:506   */\n  dup6\n    /* \"#utility.yul\":490:496   */\n  dup3\n    /* \"#utility.yul\":479:488   */\n  dup7\n    /* \"#utility.yul\":475:497   */\n  add\n    /* \"#utility.yul\":443:507   */\n  tag_19\n  jump\t// in\ntag_27:\n    /* \"#utility.yul\":433:507   */\n  swap3\n  pop\n    /* \"#utility.yul\":389:517   */\n  pop\n    /* \"#utility.yul\":556:558   */\n  0x20\n    /* \"#utility.yul\":582:646   */\n  tag_28\n    /* \"#utility.yul\":638:645   */\n  dup6\n    /* \"#utility.yul\":629:635   */\n  dup3\n    /* \"#utility.yul\":618:627   */\n  dup7\n    /* \"#utility.yul\":614:636   */\n  add\n    /* \"#utility.yul\":582:646   */\n  tag_19\n  jump\t// in\ntag_28:\n    /* \"#utility.yul\":572:646   */\n  swap2\n  pop\n    /* \"#utility.yul\":527:656   */\n  pop\n    /* \"#utility.yul\":156:663   */\n  swap3\n  pop\n  swap3\n  swap1\n  pop\n  jump\t// out\n    /* \"#utility.yul\":669:1069   */\ntag_29:\n    /* \"#utility.yul\":829:832   */\n  0x00\n    /* \"#utility.yul\":850:934   */\n  tag_31\n    /* \"#utility.yul\":932:933   */\n  0x04\n    /* \"#utility.yul\":927:930   */\n  dup4\n    /* \"#utility.yul\":850:934   */\n  tag_32\n  jump\t// in\ntag_31:\n    /* \"#utility.yul\":843:934   */\n  swap2\n  pop\n    /* \"#utility.yul\":943:1036   */\n  tag_33\n    /* \"#utility.yul\":1032:1035   */\n  dup3\n    /* \"#utility.yul\":943:1036   */\n  tag_34\n  jump\t// in\ntag_33:\n    /* \"#utility.yul\":1061:1062   */\n  0x04\n    /* \"#utility.yul\":1056:1059   */\n  dup3\n    /* \"#utility.yul\":1052:1063   */\n  add\n    /* \"#utility.yul\":1045:1063   */\n  swap1\n  pop\n    /* \"#utility.yul\":669:1069   */\n  swap2\n  swap1\n  pop\n  jump\t// out\n    /* \"#utility.yul\":1075:1475   */\ntag_35:\n    /* \"#utility.yul\":1235:1238   */\n  0x00\n    /* \"#utility.yul\":1256:1340   */\n  tag_37\n    /* \"#utility.yul\":1338:1339   */\n  0x03\n    /* \"#utility.yul\":1333:1336   */\n  dup4\n    /* \"#utility.yul\":1256:1340   */\n  tag_32\n  jump\t// in\ntag_37:\n    /* \"#utility.yul\":1249:1340   */\n  swap2\n  pop\n    /* \"#utility.yul\":1349:1442   */\n  tag_38\n    /* \"#utility.yul\":1438:1441   */\n  dup3\n    /* \"#utility.yul\":1349:1442   */\n  tag_39\n  jump\t// in\ntag_38:\n    /* \"#utility.yul\":1467:1468   */\n  0x03\n    /* \"#utility.yul\":1462:1465   */\n  dup3\n    /* \"#utility.yul\":1458:1469   */\n  add\n    /* \"#utility.yul\":1451:1469   */\n  swap1\n  pop\n    /* \"#utility.yul\":1075:1475   */\n  swap2\n  swap1\n  pop\n  jump\t// out\n    /* \"#utility.yul\":1481:1881   */\ntag_40:\n    /* \"#utility.yul\":1641:1644   */\n  0x00\n    /* \"#utility.yul\":1662:1746   */\n  tag_42\n    /* \"#utility.yul\":1744:1745   */\n  0x04\n    /* \"#utility.yul\":1739:1742   */\n  dup4\n    /* \"#utility.yul\":1662:1746   */\n  tag_32\n  jump\t// in\ntag_42:\n    /* \"#utility.yul\":1655:1746   */\n  swap2\n  pop\n    /* \"#utility.yul\":1755:1848   */\n  tag_43\n    /* \"#utility.yul\":1844:1847   */\n  dup3\n    /* \"#utility.yul\":1755:1848   */\n  tag_44\n  jump\t// in\ntag_43:\n    /* \"#utility.yul\":1873:1874   */\n  0x04\n    /* \"#utility.yul\":1868:1871   */\n  dup3\n    /* \"#utility.yul\":1864:1875   */\n  add\n    /* \"#utility.yul\":1857:1875   */\n  swap1\n  pop\n    /* \"#utility.yul\":1481:1881   */\n  swap2\n  swap1\n  pop\n  jump\t// out\n    /* \"#utility.yul\":1887:2268   */\ntag_15:\n    /* \"#utility.yul\":2072:2075   */\n  0x00\n    /* \"#utility.yul\":2094:2242   */\n  tag_46\n    /* \"#utility.yul\":2238:2241   */\n  dup3\n    /* \"#utility.yul\":2094:2242   */\n  tag_29\n  jump\t// in\ntag_46:\n    /* \"#utility.yul\":2087:2242   */\n  swap2\n  pop\n    /* \"#utility.yul\":2259:2262   */\n  dup2\n    /* \"#utility.yul\":2252:2262   */\n  swap1\n  pop\n    /* \"#utility.yul\":1887:2268   */\n  swap2\n  swap1\n  pop\n  jump\t// out\n    /* \"#utility.yul\":2274:2655   */\ntag_12:\n    /* \"#utility.yul\":2459:2462   */\n  0x00\n    /* \"#utility.yul\":2481:2629   */\n  tag_48\n    /* \"#utility.yul\":2625:2628   */\n  dup3\n    /* \"#utility.yul\":2481:2629   */\n  tag_35\n  jump\t// in\ntag_48:\n    /* \"#utility.yul\":2474:2629   */\n  swap2\n  pop\n    /* \"#utility.yul\":2646:2649   */\n  dup2\n    /* \"#utility.yul\":2639:2649   */\n  swap1\n  pop\n    /* \"#utility.yul\":2274:2655   */\n  swap2\n  swap1\n  pop\n  jump\t// out\n    /* \"#utility.yul\":2661:3042   */\ntag_9:\n    /* \"#utility.yul\":2846:2849   */\n  0x00\n    /* \"#utility.yul\":2868:3016   */\n  tag_50\n    /* \"#utility.yul\":3012:3015   */\n  dup3\n    /* \"#utility.yul\":2868:3016   */\n  tag_40\n  jump\t// in\ntag_50:\n    /* \"#utility.yul\":2861:3016   */\n  swap2\n  pop\n    /* \"#utility.yul\":3033:3036   */\n  dup2\n    /* \"#utility.yul\":3026:3036   */\n  swap1\n  pop\n    /* \"#utility.yul\":2661:3042   */\n  swap2\n  swap1\n  pop\n  jump\t// out\n    /* \"#utility.yul\":3129:3277   */\ntag_32:\n    /* \"#utility.yul\":3231:3242   */\n  0x00\n    /* \"#utility.yul\":3268:3271   */\n  dup2\n    /* \"#utility.yul\":3253:3271   */\n  swap1\n  pop\n    /* \"#utility.yul\":3129:3277   */\n  swap3\n  swap2\n  pop\n  pop\n  jump\t// out\n    /* \"#utility.yul\":3283:3631   */\ntag_2:\n    /* \"#utility.yul\":3323:3330   */\n  0x00\n    /* \"#utility.yul\":3346:3366   */\n  tag_55\n    /* \"#utility.yul\":3364:3365   */\n  dup3\n    /* \"#utility.yul\":3346:3366   */\n  tag_56\n  jump\t// in\ntag_55:\n    /* \"#utility.yul\":3341:3366   */\n  swap2\n  pop\n    /* \"#utility.yul\":3380:3400   */\n  tag_57\n    /* \"#utility.yul\":3398:3399   */\n  dup4\n    /* \"#utility.yul\":3380:3400   */\n  tag_56\n  jump\t// in\ntag_57:\n    /* \"#utility.yul\":3375:3400   */\n  swap3\n  pop\n    /* \"#utility.yul\":3568:3569   */\n  dup2\n    /* \"#utility.yul\":3500:3566   */\n  0xffffffffffffffffffffffffffffffffffffffffffffffffffffffffffffffff\n    /* \"#utility.yul\":3496:3570   */\n  div\n    /* \"#utility.yul\":3493:3494   */\n  dup4\n    /* \"#utility.yul\":3490:3571   */\n  gt\n    /* \"#utility.yul\":3485:3486   */\n  dup3\n    /* \"#utility.yul\":3478:3487   */\n  iszero\n    /* \"#utility.yul\":3471:3488   */\n  iszero\n    /* \"#utility.yul\":3467:3572   */\n  and\n    /* \"#utility.yul\":3464:3595   */\n  iszero\n  tag_58\n  jumpi\n    /* \"#utility.yul\":3575:3593   */\n  tag_59\n  tag_60\n  jump\t// in\ntag_59:\n    /* \"#utility.yul\":3464:3595   */\ntag_58:\n    /* \"#utility.yul\":3623:3624   */\n  dup3\n    /* \"#utility.yul\":3620:3621   */\n  dup3\n    /* \"#utility.yul\":3616:3625   */\n  mul\n    /* \"#utility.yul\":3605:3625   */\n  swap1\n  pop\n    /* \"#utility.yul\":3283:3631   */\n  swap3\n  swap2\n  pop\n  pop\n  jump\t// out\n    /* \"#utility.yul\":3637:3733   */\ntag_61:\n    /* \"#utility.yul\":3674:3681   */\n  0x00\n    /* \"#utility.yul\":3703:3727   */\n  tag_63\n    /* \"#utility.yul\":3721:3726   */\n  dup3\n    /* \"#utility.yul\":3703:3727   */\n  tag_64\n  jump\t// in\ntag_63:\n    /* \"#utility.yul\":3692:3727   */\n  swap1\n  pop\n    /* \"#utility.yul\":3637:3733   */\n  swap2\n  swap1\n  pop\n  jump\t// out\n    /* \"#utility.yul\":3739:3865   */\ntag_64:\n    /* \"#utility.yul\":3776:3783   */\n  0x00\n    /* \"#utility.yul\":3816:3858   */\n  0xffffffffffffffffffffffffffffffffffffffff\n    /* \"#utility.yul\":3809:3814   */\n  dup3\n    /* \"#utility.yul\":3805:3859   */\n  and\n    /* \"#utility.yul\":3794:3859   */\n  swap1\n  pop\n    /* \"#utility.yul\":3739:3865   */\n  swap2\n  swap1\n  pop\n  jump\t// out\n    /* \"#utility.yul\":3871:3948   */\ntag_56:\n    /* \"#utility.yul\":3908:3915   */\n  0x00\n    /* \"#utility.yul\":3937:3942   */\n  dup2\n    /* \"#utility.yul\":3926:3942   */\n  swap1\n  pop\n    /* \"#utility.yul\":3871:3948   */\n  swap2\n  swap1\n  pop\n  jump\t// out\n    /* \"#utility.yul\":3954:4134   */\ntag_60:\n    /* \"#utility.yul\":4002:4079   */\n  0x4e487b7100000000000000000000000000000000000000000000000000000000\n    /* \"#utility.yul\":3999:4000   */\n  0x00\n    /* \"#utility.yul\":3992:4080   */\n  mstore\n    /* \"#utility.yul\":4099:4103   */\n  0x11\n    /* \"#utility.yul\":4096:4097   */\n  0x04\n    /* \"#utility.yul\":4089:4104   */\n  mstore\n    /* \"#utility.yul\":4123:4127   */\n  0x24\n    /* \"#utility.yul\":4120:4121   */\n  0x00\n    /* \"#utility.yul\":4113:4128   */\n  revert\n    /* \"#utility.yul\":4263:4380   */\ntag_26:\n    /* \"#utility.yul\":4372:4373   */\n  0x00\n    /* \"#utility.yul\":4369:4370   */\n  dup1\n    /* \"#utility.yul\":4362:4374   */\n  revert\n    /* \"#utility.yul\":4386:4540   */\ntag_34:\n    /* \"#utility.yul\":4526:4532   */\n  0x4652415800000000000000000000000000000000000000000000000000000000\n    /* \"#utility.yul\":4522:4523   */\n  0x00\n    /* \"#utility.yul\":4514:4520   */\n  dup3\n    /* \"#utility.yul\":4510:4524   */\n  add\n    /* \"#utility.yul\":4503:4533   */\n  mstore\n    /* \"#utility.yul\":4386:4540   */\n  pop\n  jump\t// out\n    /* \"#utility.yul\":4546:4699   */\ntag_39:\n    /* \"#utility.yul\":4686:4691   */\n  0x4441490000000000000000000000000000000000000000000000000000000000\n    /* \"#utility.yul\":4682:4683   */\n  0x00\n    /* \"#utility.yul\":4674:4680   */\n  dup3\n    /* \"#utility.yul\":4670:4684   */\n  add\n    /* \"#utility.yul\":4663:4692   */\n  mstore\n    /* \"#utility.yul\":4546:4699   */\n  pop\n  jump\t// out\n    /* \"#utility.yul\":4705:4859   */\ntag_44:\n    /* \"#utility.yul\":4845:4851   */\n  0x5553444300000000000000000000000000000000000000000000000000000000\n    /* \"#utility.yul\":4841:4842   */\n  0x00\n    /* \"#utility.yul\":4833:4839   */\n  dup3\n    /* \"#utility.yul\":4829:4843   */\n  add\n    /* \"#utility.yul\":4822:4852   */\n  mstore\n    /* \"#utility.yul\":4705:4859   */\n  pop\n  jump\t// out\n    /* \"#utility.yul\":4865:4987   */\ntag_22:\n    /* \"#utility.yul\":4938:4962   */\n  tag_75\n    /* \"#utility.yul\":4956:4961   */\n  dup2\n    /* \"#utility.yul\":4938:4962   */\n  tag_61\n  jump\t// in\ntag_75:\n    /* \"#utility.yul\":4931:4936   */\n  dup2\n    /* \"#utility.yul\":4928:4963   */\n  eq\n    /* \"#utility.yul\":4918:4981   */\n  tag_76\n  jumpi\n    /* \"#utility.yul\":4977:4978   */\n  0x00\n    /* \"#utility.yul\":4974:4975   */\n  dup1\n    /* \"#utility.yul\":4967:4979   */\n  revert\n    /* \"#utility.yul\":4918:4981   */\ntag_76:\n    /* \"#utility.yul\":4865:4987   */\n  pop\n  jump\t// out\n    /* \"WandInstruments.sol\":129:15210  contract testSticks {\r... */\ntag_17:\n  dataSize(sub_0)\n  dup1\n  dataOffset(sub_0)\n  0x00\n  codecopy\n  0x00\n  return\nstop\n\nsub_0: assembly {\n        /* \"WandInstruments.sol\":129:15210  contract testSticks {\r... */\n      mstore(0x40, 0x80)\n      jumpi(tag_1, lt(calldatasize, 0x04))\n      shr(0xe0, calldataload(0x00))\n      dup1\n      0x6e05c1b9\n      gt\n      tag_43\n      jumpi\n      dup1\n      0xc0ca6fb4\n      gt\n      tag_44\n      jumpi\n      dup1\n      0xe5d98082\n      gt\n      tag_45\n      jumpi\n      dup1\n      0xe5d98082\n      eq\n      tag_37\n      jumpi\n      dup1\n      0xee620868\n      eq\n      tag_38\n      jumpi\n      dup1\n      0xeee05f5e\n      eq\n      tag_39\n      jumpi\n      dup1\n      0xf7523c52\n      eq\n      tag_40\n      jumpi\n      dup1\n      0xfbbb4589\n      eq\n      tag_41\n      jumpi\n      dup1\n      0xfc361443\n      eq\n      tag_42\n      jumpi\n      jump(tag_1)\n    tag_45:\n      dup1\n      0xc0ca6fb4\n      eq\n      tag_32\n      jumpi\n      dup1\n      0xc0ce5889\n      eq\n      tag_33\n      jumpi\n      dup1\n      0xcbff4617\n      eq\n      tag_34\n      jumpi\n      dup1\n      0xd04d7908\n      eq\n      tag_35\n      jumpi\n      dup1\n      0xd82eddf2\n      eq\n      tag_36\n      jumpi\n      jump(tag_1)\n    tag_44:\n      dup1\n      0x93f7b711\n      gt\n      tag_46\n      jumpi\n      dup1\n      0x93f7b711\n      eq\n      tag_27\n      jumpi\n      dup1\n      0x9b19251a\n      eq\n      tag_28\n      jumpi\n      dup1\n      0xa475bf48\n      eq\n      tag_29\n      jumpi\n      dup1\n      0xbdad7f02\n      eq\n      tag_30\n      jumpi\n      dup1\n      0xc079d7f6\n      eq\n      tag_31\n      jumpi\n      jump(tag_1)\n    tag_46:\n      dup1\n      0x6e05c1b9\n      eq\n      tag_22\n      jumpi\n      dup1\n      0x6f10e285\n      eq\n      tag_23\n      jumpi\n      dup1\n      0x7087a7a5\n      eq\n      tag_24\n      jumpi\n      dup1\n      0x71cd58f9\n      eq\n      tag_25\n      jumpi\n      dup1\n      0x862d1b35\n      eq\n      tag_26\n      jumpi\n      jump(tag_1)\n    tag_43:\n      dup1\n      0x26ae486e\n      gt\n      tag_47\n      jumpi\n      dup1\n      0x3c6eb17a\n      gt\n      tag_48\n      jumpi\n      dup1\n      0x3c6eb17a\n      eq\n      tag_17\n      jumpi\n      dup1\n      0x43d32e9c\n      eq\n      tag_18\n      jumpi\n      dup1\n      0x64ce07d8\n      eq\n      tag_19\n      jumpi\n      dup1\n      0x67b48c91\n      eq\n      tag_20\n      jumpi\n      dup1\n      0x67e927a8\n      eq\n      tag_21\n      jumpi\n      jump(tag_1)\n    tag_48:\n      dup1\n      0x26ae486e\n      eq\n      tag_12\n      jumpi\n      dup1\n      0x29982a32\n      eq\n      tag_13\n      jumpi\n      dup1\n      0x2a9f0fb1\n      eq\n      tag_14\n      jumpi\n      dup1\n      0x35453307\n      eq\n      tag_15\n      jumpi\n      dup1\n      0x39ad95d6\n      eq\n      tag_16\n      jumpi\n      jump(tag_1)\n    tag_47:\n      dup1\n      0x1514c976\n      gt\n      tag_49\n      jumpi\n      dup1\n      0x1514c976\n      eq\n      tag_7\n      jumpi\n      dup1\n      0x164c8501\n      eq\n      tag_8\n      jumpi\n      dup1\n      0x1a30e872\n      eq\n      tag_9\n      jumpi\n      dup1\n      0x1bc9cc45\n      eq\n      tag_10\n      jumpi\n      dup1\n      0x1f564a06\n      eq\n      tag_11\n      jumpi\n      jump(tag_1)\n    tag_49:\n      dup1\n      0x018a25e8\n      eq\n      tag_2\n      jumpi\n      dup1\n      0x047729b0\n      eq\n      tag_3\n      jumpi\n      dup1\n      0x0ccaf04f\n      eq\n      tag_4\n      jumpi\n      dup1\n      0x0f65de3e\n      eq\n      tag_5\n      jumpi\n      dup1\n      0x12b2ed94\n      eq\n      tag_6\n      jumpi\n    tag_1:\n      0x00\n      dup1\n      revert\n        /* \"WandInstruments.sol\":11413:11687  function getBuyPrice() external view returns (uint256){\r... */\n    tag_2:\n      callvalue\n      dup1\n      iszero\n      tag_50\n      jumpi\n      0x00\n      dup1\n      revert\n    tag_50:\n      pop\n      tag_51\n      tag_52\n      jump\t// in\n    tag_51:\n      mload(0x40)\n      tag_53\n      swap2\n      swap1\n      tag_54\n      jump\t// in\n    tag_53:\n      mload(0x40)\n      dup1\n      swap2\n      sub\n      swap1\n      return\n        /* \"WandInstruments.sol\":655:686  address public riskTreasuryAddr */\n    tag_3:\n      callvalue\n      dup1\n      iszero\n      tag_55\n      jumpi\n      0x00\n      dup1\n      revert\n    tag_55:\n      pop\n      tag_56\n      tag_57\n      jump\t// in\n    tag_56:\n      mload(0x40)\n      tag_58\n      swap2\n      swap1\n      tag_59\n      jump\t// in\n    tag_58:\n      mload(0x40)\n      dup1\n      swap2\n      sub\n      swap1\n      return\n        /* \"WandInstruments.sol\":10294:11189  function getSellFactor() external view returns (uint256){\r... */\n    tag_4:\n      callvalue\n      dup1\n      iszero\n      tag_60\n      jumpi\n      0x00\n      dup1\n      revert\n    tag_60:\n      pop\n      tag_61\n      tag_62\n      jump\t// in\n    tag_61:\n      mload(0x40)\n      tag_63\n      swap2\n      swap1\n      tag_54\n      jump\t// in\n    tag_63:\n      mload(0x40)\n      dup1\n      swap2\n      sub\n      swap1\n      return\n        /* \"WandInstruments.sol\":14172:14607  function getCircSupplyXDays() external view returns (uint256){\r... */\n    tag_5:\n      callvalue\n      dup1\n      iszero\n      tag_64\n      jumpi\n      0x00\n      dup1\n      revert\n    tag_64:\n      pop\n      tag_65\n      tag_66\n      jump\t// in\n    tag_65:\n      mload(0x40)\n      tag_67\n      swap2\n      swap1\n      tag_54\n      jump\t// in\n    tag_67:\n      mload(0x40)\n      dup1\n      swap2\n      sub\n      swap1\n      return\n        /* \"WandInstruments.sol\":2026:2086  mapping(address => lockedamounts) public withheldWithdrawals */\n    tag_6:\n      callvalue\n      dup1\n      iszero\n      tag_68\n      jumpi\n      0x00\n      dup1\n      revert\n    tag_68:\n      pop\n      tag_69\n      0x04\n      dup1\n      calldatasize\n      sub\n      dup2\n      add\n      swap1\n      tag_70\n      swap2\n      swap1\n      tag_71\n      jump\t// in\n    tag_70:\n      tag_72\n      jump\t// in\n    tag_69:\n      mload(0x40)\n      tag_73\n      swap3\n      swap2\n      swap1\n      tag_74\n      jump\t// in\n    tag_73:\n      mload(0x40)\n      dup1\n      swap2\n      sub\n      swap1\n      return\n        /* \"WandInstruments.sol\":1609:1659  mapping(uint256 => uint256) public tokensSoldXDays */\n    tag_7:\n      callvalue\n      dup1\n      iszero\n      tag_75\n      jumpi\n      0x00\n      dup1\n      revert\n    tag_75:\n      pop\n      tag_76\n      0x04\n      dup1\n      calldatasize\n      sub\n      dup2\n      add\n      swap1\n      tag_77\n      swap2\n      swap1\n      tag_78\n      jump\t// in\n    tag_77:\n      tag_79\n      jump\t// in\n    tag_76:\n      mload(0x40)\n      tag_80\n      swap2\n      swap1\n      tag_54\n      jump\t// in\n    tag_80:\n      mload(0x40)\n      dup1\n      swap2\n      sub\n      swap1\n      return\n        /* \"WandInstruments.sol\":12733:13235  function testUpdatetimeLockedminus(uint256 amt) public  {\r... */\n    tag_8:\n      callvalue\n      dup1\n      iszero\n      tag_81\n      jumpi\n      0x00\n      dup1\n      revert\n    tag_81:\n      pop\n      tag_82\n      0x04\n      dup1\n      calldatasize\n      sub\n      dup2\n      add\n      swap1\n      tag_83\n      swap2\n      swap1\n      tag_78\n      jump\t// in\n    tag_83:\n      tag_84\n      jump\t// in\n    tag_82:\n      stop\n        /* \"WandInstruments.sol\":1666:1723  mapping(uint256 => uint256) public circulatingSupplyXDays */\n    tag_9:\n      callvalue\n      dup1\n      iszero\n      tag_85\n      jumpi\n      0x00\n      dup1\n      revert\n    tag_85:\n      pop\n      tag_86\n      0x04\n      dup1\n      calldatasize\n      sub\n      dup2\n      add\n      swap1\n      tag_87\n      swap2\n      swap1\n      tag_78\n      jump\t// in\n    tag_87:\n      tag_88\n      jump\t// in\n    tag_86:\n      mload(0x40)\n      tag_89\n      swap2\n      swap1\n      tag_54\n      jump\t// in\n    tag_89:\n      mload(0x40)\n      dup1\n      swap2\n      sub\n      swap1\n      return\n        /* \"WandInstruments.sol\":6860:7605  function transformScepterToBaton(uint256 amountSCPtoSwap) public payable{\r... */\n    tag_10:\n      tag_90\n      0x04\n      dup1\n      calldatasize\n      sub\n      dup2\n      add\n      swap1\n      tag_91\n      swap2\n      swap1\n      tag_78\n      jump\t// in\n    tag_91:\n      tag_92\n      jump\t// in\n    tag_90:\n      stop\n        /* \"WandInstruments.sol\":11195:11407  function getBackingPrice() external view returns (uint256){\r... */\n    tag_11:\n      callvalue\n      dup1\n      iszero\n      tag_93\n      jumpi\n      0x00\n      dup1\n      revert\n    tag_93:\n      pop\n      tag_94\n      tag_95\n      jump\t// in\n    tag_94:\n      mload(0x40)\n      tag_96\n      swap2\n      swap1\n      tag_54\n      jump\t// in\n    tag_96:\n      mload(0x40)\n      dup1\n      swap2\n      sub\n      swap1\n      return\n        /* \"WandInstruments.sol\":1390:1408  IERC20 public SPTR */\n    tag_12:\n      callvalue\n      dup1\n      iszero\n      tag_97\n      jumpi\n      0x00\n      dup1\n      revert\n    tag_97:\n      pop\n      tag_98\n      tag_99\n      jump\t// in\n    tag_98:\n      mload(0x40)\n      tag_100\n      swap2\n      swap1\n      tag_101\n      jump\t// in\n    tag_100:\n      mload(0x40)\n      dup1\n      swap2\n      sub\n      swap1\n      return\n        /* \"WandInstruments.sol\":693:721  address public devWalletAddr */\n    tag_13:\n      callvalue\n      dup1\n      iszero\n      tag_102\n      jumpi\n      0x00\n      dup1\n      revert\n    tag_102:\n      pop\n      tag_103\n      tag_104\n      jump\t// in\n    tag_103:\n      mload(0x40)\n      tag_105\n      swap2\n      swap1\n      tag_59\n      jump\t// in\n    tag_105:\n      mload(0x40)\n      dup1\n      swap2\n      sub\n      swap1\n      return\n        /* \"WandInstruments.sol\":1550:1602  mapping(uint256 => uint256) public tokensBoughtXDays */\n    tag_14:\n      callvalue\n      dup1\n      iszero\n      tag_106\n      jumpi\n      0x00\n      dup1\n      revert\n    tag_106:\n      pop\n      tag_107\n      0x04\n      dup1\n      calldatasize\n      sub\n      dup2\n      add\n      swap1\n      tag_108\n      swap2\n      swap1\n      tag_78\n      jump\t// in\n    tag_108:\n      tag_109\n      jump\t// in\n    tag_107:\n      mload(0x40)\n      tag_110\n      swap2\n      swap1\n      tag_54\n      jump\t// in\n    tag_110:\n      mload(0x40)\n      dup1\n      swap2\n      sub\n      swap1\n      return\n        /* \"WandInstruments.sol\":762:808  uint256 public treasury1bal = 50000*(DECIMALS) */\n    tag_15:\n      callvalue\n      dup1\n      iszero\n      tag_111\n      jumpi\n      0x00\n      dup1\n      revert\n    tag_111:\n      pop\n      tag_112\n      tag_113\n      jump\t// in\n    tag_112:\n      mload(0x40)\n      tag_114\n      swap2\n      swap1\n      tag_54\n      jump\t// in\n    tag_114:\n      mload(0x40)\n      dup1\n      swap2\n      sub\n      swap1\n      return\n        /* \"WandInstruments.sol\":12165:12241  function withdrawStables(uint256 _amtToWithdraw) public onlyOwner {\r... */\n    tag_16:\n      callvalue\n      dup1\n      iszero\n      tag_115\n      jumpi\n      0x00\n      dup1\n      revert\n    tag_115:\n      pop\n      tag_116\n      0x04\n      dup1\n      calldatasize\n      sub\n      dup2\n      add\n      swap1\n      tag_117\n      swap2\n      swap1\n      tag_78\n      jump\t// in\n    tag_117:\n      tag_118\n      jump\t// in\n    tag_116:\n      stop\n        /* \"WandInstruments.sol\":837:864  uint256 public timeLaunched */\n    tag_17:\n      callvalue\n      dup1\n      iszero\n      tag_119\n      jumpi\n      0x00\n      dup1\n      revert\n    tag_119:\n      pop\n      tag_120\n      tag_121\n      jump\t// in\n    tag_120:\n      mload(0x40)\n      tag_122\n      swap2\n      swap1\n      tag_54\n      jump\t// in\n    tag_122:\n      mload(0x40)\n      dup1\n      swap2\n      sub\n      swap1\n      return\n        /* \"WandInstruments.sol\":11693:11966  function getSellPrice() external view returns (uint256){\r... */\n    tag_18:\n      callvalue\n      dup1\n      iszero\n      tag_123\n      jumpi\n      0x00\n      dup1\n      revert\n    tag_123:\n      pop\n      tag_124\n      tag_125\n      jump\t// in\n    tag_124:\n      mload(0x40)\n      tag_126\n      swap2\n      swap1\n      tag_54\n      jump\t// in\n    tag_126:\n      mload(0x40)\n      dup1\n      swap2\n      sub\n      swap1\n      return\n        /* \"WandInstruments.sol\":4592:4771  function decDiv18(uint x, uint y) public pure returns (uint decQuotient) {\r... */\n    tag_19:\n      callvalue\n      dup1\n      iszero\n      tag_127\n      jumpi\n      0x00\n      dup1\n      revert\n    tag_127:\n      pop\n      tag_128\n      0x04\n      dup1\n      calldatasize\n      sub\n      dup2\n      add\n      swap1\n      tag_129\n      swap2\n      swap1\n      tag_130\n      jump\t// in\n    tag_129:\n      tag_131\n      jump\t// in\n    tag_128:\n      mload(0x40)\n      tag_132\n      swap2\n      swap1\n      tag_54\n      jump\t// in\n    tag_132:\n      mload(0x40)\n      dup1\n      swap2\n      sub\n      swap1\n      return\n        /* \"WandInstruments.sol\":871:903  uint256 public daysInCalculation */\n    tag_20:\n      callvalue\n      dup1\n      iszero\n      tag_133\n      jumpi\n      0x00\n      dup1\n      revert\n    tag_133:\n      pop\n      tag_134\n      tag_135\n      jump\t// in\n    tag_134:\n      mload(0x40)\n      tag_136\n      swap2\n      swap1\n      tag_54\n      jump\t// in\n    tag_136:\n      mload(0x40)\n      dup1\n      swap2\n      sub\n      swap1\n      return\n        /* \"WandInstruments.sol\":12249:12721  function testUpdatetimeLockedplus(uint256 amt) public  {\r... */\n    tag_21:\n      callvalue\n      dup1\n      iszero\n      tag_137\n      jumpi\n      0x00\n      dup1\n      revert\n    tag_137:\n      pop\n      tag_138\n      0x04\n      dup1\n      calldatasize\n      sub\n      dup2\n      add\n      swap1\n      tag_139\n      swap2\n      swap1\n      tag_78\n      jump\t// in\n    tag_139:\n      tag_140\n      jump\t// in\n    tag_138:\n      stop\n        /* \"WandInstruments.sol\":1344:1361  IERC20 public tSC */\n    tag_22:\n      callvalue\n      dup1\n      iszero\n      tag_141\n      jumpi\n      0x00\n      dup1\n      revert\n    tag_141:\n      pop\n      tag_142\n      tag_143\n      jump\t// in\n    tag_142:\n      mload(0x40)\n      tag_144\n      swap2\n      swap1\n      tag_101\n      jump\t// in\n    tag_144:\n      mload(0x40)\n      dup1\n      swap2\n      sub\n      swap1\n      return\n        /* \"WandInstruments.sol\":1122:1139  int128 public res */\n    tag_23:\n      callvalue\n      dup1\n      iszero\n      tag_145\n      jumpi\n      0x00\n      dup1\n      revert\n    tag_145:\n      pop\n      tag_146\n      tag_147\n      jump\t// in\n    tag_146:\n      mload(0x40)\n      tag_148\n      swap2\n      swap1\n      tag_149\n      jump\t// in\n    tag_148:\n      mload(0x40)\n      dup1\n      swap2\n      sub\n      swap1\n      return\n        /* \"WandInstruments.sol\":1467:1492  IERC20 public tokenStable */\n    tag_24:\n      callvalue\n      dup1\n      iszero\n      tag_150\n      jumpi\n      0x00\n      dup1\n      revert\n    tag_150:\n      pop\n      tag_151\n      tag_152\n      jump\t// in\n    tag_151:\n      mload(0x40)\n      tag_153\n      swap2\n      swap1\n      tag_101\n      jump\t// in\n    tag_153:\n      mload(0x40)\n      dup1\n      swap2\n      sub\n      swap1\n      return\n        /* \"WandInstruments.sol\":13346:13874  function getTokensBoughtXDays() external view returns (uint256){\r... */\n    tag_25:\n      callvalue\n      dup1\n      iszero\n      tag_154\n      jumpi\n      0x00\n      dup1\n      revert\n    tag_154:\n      pop\n      tag_155\n      tag_156\n      jump\t// in\n    tag_155:\n      mload(0x40)\n      tag_157\n      swap2\n      swap1\n      tag_54\n      jump\t// in\n    tag_157:\n      mload(0x40)\n      dup1\n      swap2\n      sub\n      swap1\n      return\n        /* \"WandInstruments.sol\":7620:8837  function buyScepter(uint256 amountSCPtoBuy, string memory _stableChosen) public {\r... */\n    tag_26:\n      callvalue\n      dup1\n      iszero\n      tag_158\n      jumpi\n      0x00\n      dup1\n      revert\n    tag_158:\n      pop\n      tag_159\n      0x04\n      dup1\n      calldatasize\n      sub\n      dup2\n      add\n      swap1\n      tag_160\n      swap2\n      swap1\n      tag_161\n      jump\t// in\n    tag_160:\n      tag_162\n      jump\t// in\n    tag_159:\n      stop\n        /* \"WandInstruments.sol\":9385:10288  function getGrowthFactor() external view returns (uint256){\r... */\n    tag_27:\n      callvalue\n      dup1\n      iszero\n      tag_163\n      jumpi\n      0x00\n      dup1\n      revert\n    tag_163:\n      pop\n      tag_164\n      tag_165\n      jump\t// in\n    tag_164:\n      mload(0x40)\n      tag_166\n      swap2\n      swap1\n      tag_54\n      jump\t// in\n    tag_166:\n      mload(0x40)\n      dup1\n      swap2\n      sub\n      swap1\n      return\n        /* \"WandInstruments.sol\":14615:14704  function whitelist(address _addr) public onlyOwner {  \r... */\n    tag_28:\n      callvalue\n      dup1\n      iszero\n      tag_167\n      jumpi\n      0x00\n      dup1\n      revert\n    tag_167:\n      pop\n      tag_168\n      0x04\n      dup1\n      calldatasize\n      sub\n      dup2\n      add\n      swap1\n      tag_169\n      swap2\n      swap1\n      tag_71\n      jump\t// in\n    tag_169:\n      tag_170\n      jump\t// in\n    tag_168:\n      stop\n        /* \"WandInstruments.sol\":1854:1915  mapping (string => stableTokensParams) public stableERC20Info */\n    tag_29:\n      callvalue\n      dup1\n      iszero\n      tag_171\n      jumpi\n      0x00\n      dup1\n      revert\n    tag_171:\n      pop\n      tag_172\n      0x04\n      dup1\n      calldatasize\n      sub\n      dup2\n      add\n      swap1\n      tag_173\n      swap2\n      swap1\n      tag_174\n      jump\t// in\n    tag_173:\n      tag_175\n      jump\t// in\n    tag_172:\n      mload(0x40)\n      tag_176\n      swap3\n      swap2\n      swap1\n      tag_177\n      jump\t// in\n    tag_176:\n      mload(0x40)\n      dup1\n      swap2\n      sub\n      swap1\n      return\n        /* \"WandInstruments.sol\":8845:9352  function claimLockedUSDC(address _claimant, string memory _stableChosen) public {\r... */\n    tag_30:\n      callvalue\n      dup1\n      iszero\n      tag_178\n      jumpi\n      0x00\n      dup1\n      revert\n    tag_178:\n      pop\n      tag_179\n      0x04\n      dup1\n      calldatasize\n      sub\n      dup2\n      add\n      swap1\n      tag_180\n      swap2\n      swap1\n      tag_181\n      jump\t// in\n    tag_180:\n      tag_182\n      jump\t// in\n    tag_179:\n      stop\n        /* \"WandInstruments.sol\":614:648  address public scepterTreasuryAddr */\n    tag_31:\n      callvalue\n      dup1\n      iszero\n      tag_183\n      jumpi\n      0x00\n      dup1\n      revert\n    tag_183:\n      pop\n      tag_184\n      tag_185\n      jump\t// in\n    tag_184:\n      mload(0x40)\n      tag_186\n      swap2\n      swap1\n      tag_59\n      jump\t// in\n    tag_186:\n      mload(0x40)\n      dup1\n      swap2\n      sub\n      swap1\n      return\n        /* \"WandInstruments.sol\":1440:1458  IERC20 public BTON */\n    tag_32:\n      callvalue\n      dup1\n      iszero\n      tag_187\n      jumpi\n      0x00\n      dup1\n      revert\n    tag_187:\n      pop\n      tag_188\n      tag_189\n      jump\t// in\n    tag_188:\n      mload(0x40)\n      tag_190\n      swap2\n      swap1\n      tag_101\n      jump\t// in\n    tag_190:\n      mload(0x40)\n      dup1\n      swap2\n      sub\n      swap1\n      return\n        /* \"WandInstruments.sol\":5128:6852  function cashOutScepter(uint256 amountSCPtoSell, uint256 timeChosenLocked, string memory _stableChosen) public payable{\r... */\n    tag_33:\n      tag_191\n      0x04\n      dup1\n      calldatasize\n      sub\n      dup2\n      add\n      swap1\n      tag_192\n      swap2\n      swap1\n      tag_193\n      jump\t// in\n    tag_192:\n      tag_194\n      jump\t// in\n    tag_191:\n      stop\n        /* \"WandInstruments.sol\":365:390  uint256 public sellFactor */\n    tag_34:\n      callvalue\n      dup1\n      iszero\n      tag_195\n      jumpi\n      0x00\n      dup1\n      revert\n    tag_195:\n      pop\n      tag_196\n      tag_197\n      jump\t// in\n    tag_196:\n      mload(0x40)\n      tag_198\n      swap2\n      swap1\n      tag_54\n      jump\t// in\n    tag_198:\n      mload(0x40)\n      dup1\n      swap2\n      sub\n      swap1\n      return\n        /* \"WandInstruments.sol\":1415:1433  IERC20 public WAND */\n    tag_35:\n      callvalue\n      dup1\n      iszero\n      tag_199\n      jumpi\n      0x00\n      dup1\n      revert\n    tag_199:\n      pop\n      tag_200\n      tag_201\n      jump\t// in\n    tag_200:\n      mload(0x40)\n      tag_202\n      swap2\n      swap1\n      tag_101\n      jump\t// in\n    tag_202:\n      mload(0x40)\n      dup1\n      swap2\n      sub\n      swap1\n      return\n        /* \"WandInstruments.sol\":13880:14166  function getTokensSoldXDays() external view returns (uint256){\r... */\n    tag_36:\n      callvalue\n      dup1\n      iszero\n      tag_203\n      jumpi\n      0x00\n      dup1\n      revert\n    tag_203:\n      pop\n      tag_204\n      tag_205\n      jump\t// in\n    tag_204:\n      mload(0x40)\n      tag_206\n      swap2\n      swap1\n      tag_54\n      jump\t// in\n    tag_206:\n      mload(0x40)\n      dup1\n      swap2\n      sub\n      swap1\n      return\n        /* \"WandInstruments.sol\":14712:14931  function addStable(string memory _ticker, address _addr, uint256 _dec) public onlyOwner {\r... */\n    tag_37:\n      callvalue\n      dup1\n      iszero\n      tag_207\n      jumpi\n      0x00\n      dup1\n      revert\n    tag_207:\n      pop\n      tag_208\n      0x04\n      dup1\n      calldatasize\n      sub\n      dup2\n      add\n      swap1\n      tag_209\n      swap2\n      swap1\n      tag_210\n      jump\t// in\n    tag_209:\n      tag_211\n      jump\t// in\n    tag_208:\n      stop\n        /* \"WandInstruments.sol\":331:358  uint256 public growthFactor */\n    tag_38:\n      callvalue\n      dup1\n      iszero\n      tag_212\n      jumpi\n      0x00\n      dup1\n      revert\n    tag_212:\n      pop\n      tag_213\n      tag_214\n      jump\t// in\n    tag_213:\n      mload(0x40)\n      tag_215\n      swap2\n      swap1\n      tag_54\n      jump\t// in\n    tag_215:\n      mload(0x40)\n      dup1\n      swap2\n      sub\n      swap1\n      return\n        /* \"WandInstruments.sol\":1146:1216  address public testwallet = 0x617F2E2fD72FD9D5503197092aC168c91465E7f2 */\n    tag_39:\n      callvalue\n      dup1\n      iszero\n      tag_216\n      jumpi\n      0x00\n      dup1\n      revert\n    tag_216:\n      pop\n      tag_217\n      tag_218\n      jump\t// in\n    tag_217:\n      mload(0x40)\n      tag_219\n      swap2\n      swap1\n      tag_59\n      jump\t// in\n    tag_219:\n      mload(0x40)\n      dup1\n      swap2\n      sub\n      swap1\n      return\n        /* \"WandInstruments.sol\":4414:4584  function decMul18(uint x, uint y) public pure returns (uint decProd) {\r... */\n    tag_40:\n      callvalue\n      dup1\n      iszero\n      tag_220\n      jumpi\n      0x00\n      dup1\n      revert\n    tag_220:\n      pop\n      tag_221\n      0x04\n      dup1\n      calldatasize\n      sub\n      dup2\n      add\n      swap1\n      tag_222\n      swap2\n      swap1\n      tag_130\n      jump\t// in\n    tag_222:\n      tag_223\n      jump\t// in\n    tag_221:\n      mload(0x40)\n      tag_224\n      swap2\n      swap1\n      tag_54\n      jump\t// in\n    tag_224:\n      mload(0x40)\n      dup1\n      swap2\n      sub\n      swap1\n      return\n        /* \"WandInstruments.sol\":579:607  address public treasury1Addr */\n    tag_41:\n      callvalue\n      dup1\n      iszero\n      tag_225\n      jumpi\n      0x00\n      dup1\n      revert\n    tag_225:\n      pop\n      tag_226\n      tag_227\n      jump\t// in\n    tag_226:\n      mload(0x40)\n      tag_228\n      swap2\n      swap1\n      tag_59\n      jump\t// in\n    tag_228:\n      mload(0x40)\n      dup1\n      swap2\n      sub\n      swap1\n      return\n        /* \"WandInstruments.sol\":11997:12153  function setDaysUsedInFactors(uint256 numDays) public {  \r... */\n    tag_42:\n      callvalue\n      dup1\n      iszero\n      tag_229\n      jumpi\n      0x00\n      dup1\n      revert\n    tag_229:\n      pop\n      tag_230\n      0x04\n      dup1\n      calldatasize\n      sub\n      dup2\n      add\n      swap1\n      tag_231\n      swap2\n      swap1\n      tag_78\n      jump\t// in\n    tag_231:\n      tag_232\n      jump\t// in\n    tag_230:\n      stop\n        /* \"WandInstruments.sol\":11413:11687  function getBuyPrice() external view returns (uint256){\r... */\n    tag_52:\n        /* \"WandInstruments.sol\":11459:11466  uint256 */\n      0x00\n        /* \"WandInstruments.sol\":11596:11677  decMul18(this.getBackingPrice() , (1200000000000000000 + this.getGrowthFactor())) */\n      tag_234\n        /* \"WandInstruments.sol\":11605:11609  this */\n      address\n        /* \"WandInstruments.sol\":11605:11625  this.getBackingPrice */\n      0xffffffffffffffffffffffffffffffffffffffff\n      and\n      0x1f564a06\n        /* \"WandInstruments.sol\":11605:11627  this.getBackingPrice() */\n      mload(0x40)\n      dup2\n      0xffffffff\n      and\n      0xe0\n      shl\n      dup2\n      mstore\n      0x04\n      add\n      0x20\n      mload(0x40)\n      dup1\n      dup4\n      sub\n      dup2\n      dup7\n      dup1\n      extcodesize\n      iszero\n      dup1\n      iszero\n      tag_235\n      jumpi\n      0x00\n      dup1\n      revert\n    tag_235:\n      pop\n      gas\n      staticcall\n      iszero\n      dup1\n      iszero\n      tag_237\n      jumpi\n      returndatasize\n      0x00\n      dup1\n      returndatacopy\n      revert(0x00, returndatasize)\n    tag_237:\n      pop\n      pop\n      pop\n      pop\n      mload(0x40)\n      returndatasize\n      not(0x1f)\n      0x1f\n      dup3\n      add\n      and\n      dup3\n      add\n      dup1\n      0x40\n      mstore\n      pop\n      dup2\n      add\n      swap1\n      tag_238\n      swap2\n      swap1\n      tag_239\n      jump\t// in\n    tag_238:\n        /* \"WandInstruments.sol\":11653:11657  this */\n      address\n        /* \"WandInstruments.sol\":11653:11673  this.getGrowthFactor */\n      0xffffffffffffffffffffffffffffffffffffffff\n      and\n      0x93f7b711\n        /* \"WandInstruments.sol\":11653:11675  this.getGrowthFactor() */\n      mload(0x40)\n      dup2\n      0xffffffff\n      and\n      0xe0\n      shl\n      dup2\n      mstore\n      0x04\n      add\n      0x20\n      mload(0x40)\n      dup1\n      dup4\n      sub\n      dup2\n      dup7\n      dup1\n      extcodesize\n      iszero\n      dup1\n      iszero\n      tag_240\n      jumpi\n      0x00\n      dup1\n      revert\n    tag_240:\n      pop\n      gas\n      staticcall\n      iszero\n      dup1\n      iszero\n      tag_242\n      jumpi\n      returndatasize\n      0x00\n      dup1\n      returndatacopy\n      revert(0x00, returndatasize)\n    tag_242:\n      pop\n      pop\n      pop\n      pop\n      mload(0x40)\n      returndatasize\n      not(0x1f)\n      0x1f\n      dup3\n      add\n      and\n      dup3\n      add\n      dup1\n      0x40\n      mstore\n      pop\n      dup2\n      add\n      swap1\n      tag_243\n      swap2\n      swap1\n      tag_239\n      jump\t// in\n    tag_243:\n        /* \"WandInstruments.sol\":11631:11650  1200000000000000000 */\n      0x10a741a462780000\n        /* \"WandInstruments.sol\":11631:11675  1200000000000000000 + this.getGrowthFactor() */\n      tag_244\n      swap2\n      swap1\n      tag_245\n      jump\t// in\n    tag_244:\n        /* \"WandInstruments.sol\":11596:11604  decMul18 */\n      tag_223\n        /* \"WandInstruments.sol\":11596:11677  decMul18(this.getBackingPrice() , (1200000000000000000 + this.getGrowthFactor())) */\n      jump\t// in\n    tag_234:\n        /* \"WandInstruments.sol\":11589:11677  return decMul18(this.getBackingPrice() , (1200000000000000000 + this.getGrowthFactor())) */\n      swap1\n      pop\n        /* \"WandInstruments.sol\":11413:11687  function getBuyPrice() external view returns (uint256){\r... */\n      swap1\n      jump\t// out\n        /* \"WandInstruments.sol\":655:686  address public riskTreasuryAddr */\n    tag_57:\n      0x08\n      0x00\n      swap1\n      sload\n      swap1\n      0x0100\n      exp\n      swap1\n      div\n      0xffffffffffffffffffffffffffffffffffffffff\n      and\n      dup2\n      jump\t// out\n        /* \"WandInstruments.sol\":10294:11189  function getSellFactor() external view returns (uint256){\r... */\n    tag_62:\n        /* \"WandInstruments.sol\":10342:10349  uint256 */\n      0x00\n        /* \"WandInstruments.sol\":10495:10506  uint256 _sF */\n      dup1\n        /* \"WandInstruments.sol\":10518:10541  uint256 xDaysCircSupply */\n      0x00\n        /* \"WandInstruments.sol\":10552:10567  uint256 numdays */\n      dup1\n        /* \"WandInstruments.sol\":10588:10593  86400 */\n      0x015180\n        /* \"WandInstruments.sol\":10570:10587  daysInCalculation */\n      sload(0x0c)\n        /* \"WandInstruments.sol\":10570:10593  daysInCalculation/86400 */\n      tag_247\n      swap2\n      swap1\n      tag_248\n      jump\t// in\n    tag_247:\n        /* \"WandInstruments.sol\":10552:10593  uint256 numdays = daysInCalculation/86400 */\n      swap1\n      pop\n        /* \"WandInstruments.sol\":10604:10628  uint256 daySinceLaunched */\n      0x00\n        /* \"WandInstruments.sol\":10666:10671  86400 */\n      0x015180\n        /* \"WandInstruments.sol\":10650:10662  timeLaunched */\n      sload(0x0b)\n        /* \"WandInstruments.sol\":10632:10647  block.timestamp */\n      timestamp\n        /* \"WandInstruments.sol\":10632:10662  block.timestamp - timeLaunched */\n      tag_249\n      swap2\n      swap1\n      tag_250\n      jump\t// in\n    tag_249:\n        /* \"WandInstruments.sol\":10631:10671  (block.timestamp - timeLaunched) / 86400 */\n      tag_251\n      swap2\n      swap1\n      tag_248\n      jump\t// in\n    tag_251:\n        /* \"WandInstruments.sol\":10604:10671  uint256 daySinceLaunched = (block.timestamp - timeLaunched) / 86400 */\n      swap1\n      pop\n        /* \"WandInstruments.sol\":10682:10691  uint256 d */\n      0x00\n        /* \"WandInstruments.sol\":10728:10729  0 */\n      dup1\n        /* \"WandInstruments.sol\":10708:10724  daySinceLaunched */\n      dup3\n        /* \"WandInstruments.sol\":10708:10729  daySinceLaunched == 0 */\n      eq\n        /* \"WandInstruments.sol\":10704:10996  if (daySinceLaunched == 0) {\r... */\n      iszero\n      tag_252\n      jumpi\n        /* \"WandInstruments.sol\":10760:10782  circulatingSupplyXDays */\n      0x19\n        /* \"WandInstruments.sol\":10760:10785  circulatingSupplyXDays[0] */\n      0x00\n        /* \"WandInstruments.sol\":10783:10784  0 */\n      dup1\n        /* \"WandInstruments.sol\":10760:10785  circulatingSupplyXDays[0] */\n      dup2\n      mstore\n      0x20\n      add\n      swap1\n      dup2\n      mstore\n      0x20\n      add\n      0x00\n      keccak256\n      sload\n        /* \"WandInstruments.sol\":10742:10785  xDaysCircSupply = circulatingSupplyXDays[0] */\n      swap4\n      pop\n        /* \"WandInstruments.sol\":10704:10996  if (daySinceLaunched == 0) {\r... */\n      jump(tag_253)\n    tag_252:\n        /* \"WandInstruments.sol\":10854:10861  numdays */\n      dup3\n        /* \"WandInstruments.sol\":10835:10851  daySinceLaunched */\n      dup3\n        /* \"WandInstruments.sol\":10835:10861  daySinceLaunched - numdays */\n      tag_257\n      swap2\n      swap1\n      tag_250\n      jump\t// in\n    tag_257:\n        /* \"WandInstruments.sol\":10831:10861  d = daySinceLaunched - numdays */\n      swap1\n      pop\n        /* \"WandInstruments.sol\":10826:10985  for (d = daySinceLaunched - numdays; d < daySinceLaunched; d++) {  //for loop example\r... */\n    tag_254:\n        /* \"WandInstruments.sol\":10867:10883  daySinceLaunched */\n      dup2\n        /* \"WandInstruments.sol\":10863:10864  d */\n      dup2\n        /* \"WandInstruments.sol\":10863:10883  d < daySinceLaunched */\n      lt\n        /* \"WandInstruments.sol\":10826:10985  for (d = daySinceLaunched - numdays; d < daySinceLaunched; d++) {  //for loop example\r... */\n      iszero\n      tag_255\n      jumpi\n        /* \"WandInstruments.sol\":10944:10966  circulatingSupplyXDays */\n      0x19\n        /* \"WandInstruments.sol\":10944:10969  circulatingSupplyXDays[d] */\n      0x00\n        /* \"WandInstruments.sol\":10967:10968  d */\n      dup3\n        /* \"WandInstruments.sol\":10944:10969  circulatingSupplyXDays[d] */\n      dup2\n      mstore\n      0x20\n      add\n      swap1\n      dup2\n      mstore\n      0x20\n      add\n      0x00\n      keccak256\n      sload\n        /* \"WandInstruments.sol\":10925:10969  xDaysCircSupply += circulatingSupplyXDays[d] */\n      dup5\n      tag_258\n      swap2\n      swap1\n      tag_245\n      jump\t// in\n    tag_258:\n      swap4\n      pop\n        /* \"WandInstruments.sol\":10885:10888  d++ */\n      dup1\n      dup1\n      tag_259\n      swap1\n      tag_260\n      jump\t// in\n    tag_259:\n      swap2\n      pop\n      pop\n        /* \"WandInstruments.sol\":10826:10985  for (d = daySinceLaunched - numdays; d < daySinceLaunched; d++) {  //for loop example\r... */\n      jump(tag_254)\n    tag_255:\n        /* \"WandInstruments.sol\":10704:10996  if (daySinceLaunched == 0) {\r... */\n    tag_253:\n        /* \"WandInstruments.sol\":11013:11064  decDiv18(this.getTokensSoldXDays(),xDaysCircSupply) */\n      tag_261\n        /* \"WandInstruments.sol\":11022:11026  this */\n      address\n        /* \"WandInstruments.sol\":11022:11045  this.getTokensSoldXDays */\n      0xffffffffffffffffffffffffffffffffffffffff\n      and\n      0xd82eddf2\n        /* \"WandInstruments.sol\":11022:11047  this.getTokensSoldXDays() */\n      mload(0x40)\n      dup2\n      0xffffffff\n      and\n      0xe0\n      shl\n      dup2\n      mstore\n      0x04\n      add\n      0x20\n      mload(0x40)\n      dup1\n      dup4\n      sub\n      dup2\n      dup7\n      dup1\n      extcodesize\n      iszero\n      dup1\n      iszero\n      tag_262\n      jumpi\n      0x00\n      dup1\n      revert\n    tag_262:\n      pop\n      gas\n      staticcall\n      iszero\n      dup1\n      iszero\n      tag_264\n      jumpi\n      returndatasize\n      0x00\n      dup1\n      returndatacopy\n      revert(0x00, returndatasize)\n    tag_264:\n      pop\n      pop\n      pop\n      pop\n      mload(0x40)\n      returndatasize\n      not(0x1f)\n      0x1f\n      dup3\n      add\n      and\n      dup3\n      add\n      dup1\n      0x40\n      mstore\n      pop\n      dup2\n      add\n      swap1\n      tag_265\n      swap2\n      swap1\n      tag_239\n      jump\t// in\n    tag_265:\n        /* \"WandInstruments.sol\":11048:11063  xDaysCircSupply */\n      dup6\n        /* \"WandInstruments.sol\":11013:11021  decDiv18 */\n      tag_131\n        /* \"WandInstruments.sol\":11013:11064  decDiv18(this.getTokensSoldXDays(),xDaysCircSupply) */\n      jump\t// in\n    tag_261:\n        /* \"WandInstruments.sol\":11007:11064  _sF = decDiv18(this.getTokensSoldXDays(),xDaysCircSupply) */\n      swap5\n      pop\n        /* \"WandInstruments.sol\":11084:11102  300000000000000000 */\n      0x0429d069189e0000\n        /* \"WandInstruments.sol\":11078:11081  _sF */\n      dup6\n        /* \"WandInstruments.sol\":11078:11102  _sF > 300000000000000000 */\n      gt\n        /* \"WandInstruments.sol\":11074:11161  if (_sF > 300000000000000000)\r... */\n      iszero\n      tag_266\n      jumpi\n        /* \"WandInstruments.sol\":11132:11150  300000000000000000 */\n      0x0429d069189e0000\n        /* \"WandInstruments.sol\":11126:11150  _sF = 300000000000000000 */\n      swap5\n      pop\n        /* \"WandInstruments.sol\":11074:11161  if (_sF > 300000000000000000)\r... */\n    tag_266:\n        /* \"WandInstruments.sol\":11177:11180  _sF */\n      dup5\n        /* \"WandInstruments.sol\":11170:11180  return _sF */\n      swap6\n      pop\n      pop\n      pop\n      pop\n      pop\n      pop\n        /* \"WandInstruments.sol\":10294:11189  function getSellFactor() external view returns (uint256){\r... */\n      swap1\n      jump\t// out\n        /* \"WandInstruments.sol\":14172:14607  function getCircSupplyXDays() external view returns (uint256){\r... */\n    tag_66:\n        /* \"WandInstruments.sol\":14225:14232  uint256 */\n      0x00\n        /* \"WandInstruments.sol\":14238:14262  uint256 daySinceLaunched */\n      dup1\n        /* \"WandInstruments.sol\":14300:14305  86400 */\n      0x015180\n        /* \"WandInstruments.sol\":14284:14296  timeLaunched */\n      sload(0x0b)\n        /* \"WandInstruments.sol\":14266:14281  block.timestamp */\n      timestamp\n        /* \"WandInstruments.sol\":14266:14296  block.timestamp - timeLaunched */\n      tag_268\n      swap2\n      swap1\n      tag_250\n      jump\t// in\n    tag_268:\n        /* \"WandInstruments.sol\":14265:14305  (block.timestamp - timeLaunched) / 86400 */\n      tag_269\n      swap2\n      swap1\n      tag_248\n      jump\t// in\n    tag_269:\n        /* \"WandInstruments.sol\":14238:14305  uint256 daySinceLaunched = (block.timestamp - timeLaunched) / 86400 */\n      swap1\n      pop\n        /* \"WandInstruments.sol\":14316:14339  uint256 CircSupplyXDays */\n      0x00\n        /* \"WandInstruments.sol\":14354:14369  uint256 numdays */\n      dup1\n        /* \"WandInstruments.sol\":14390:14395  86400 */\n      0x015180\n        /* \"WandInstruments.sol\":14372:14389  daysInCalculation */\n      sload(0x0c)\n        /* \"WandInstruments.sol\":14372:14395  daysInCalculation/86400 */\n      tag_270\n      swap2\n      swap1\n      tag_248\n      jump\t// in\n    tag_270:\n        /* \"WandInstruments.sol\":14354:14395  uint256 numdays = daysInCalculation/86400 */\n      swap1\n      pop\n        /* \"WandInstruments.sol\":14406:14415  uint256 d */\n      0x00\n        /* \"WandInstruments.sol\":14464:14471  numdays */\n      dup2\n        /* \"WandInstruments.sol\":14445:14461  daySinceLaunched */\n      dup5\n        /* \"WandInstruments.sol\":14445:14471  daySinceLaunched - numdays */\n      tag_274\n      swap2\n      swap1\n      tag_250\n      jump\t// in\n    tag_274:\n        /* \"WandInstruments.sol\":14441:14471  d = daySinceLaunched - numdays */\n      swap1\n      pop\n        /* \"WandInstruments.sol\":14436:14567  for (d = daySinceLaunched - numdays; d < daySinceLaunched; d++) {\r... */\n    tag_271:\n        /* \"WandInstruments.sol\":14477:14493  daySinceLaunched */\n      dup4\n        /* \"WandInstruments.sol\":14473:14474  d */\n      dup2\n        /* \"WandInstruments.sol\":14473:14493  d < daySinceLaunched */\n      lt\n        /* \"WandInstruments.sol\":14436:14567  for (d = daySinceLaunched - numdays; d < daySinceLaunched; d++) {\r... */\n      iszero\n      tag_272\n      jumpi\n        /* \"WandInstruments.sol\":14530:14552  circulatingSupplyXDays */\n      0x19\n        /* \"WandInstruments.sol\":14530:14555  circulatingSupplyXDays[d] */\n      0x00\n        /* \"WandInstruments.sol\":14553:14554  d */\n      dup3\n        /* \"WandInstruments.sol\":14530:14555  circulatingSupplyXDays[d] */\n      dup2\n      mstore\n      0x20\n      add\n      swap1\n      dup2\n      mstore\n      0x20\n      add\n      0x00\n      keccak256\n      sload\n        /* \"WandInstruments.sol\":14511:14555  CircSupplyXDays += circulatingSupplyXDays[d] */\n      dup4\n      tag_275\n      swap2\n      swap1\n      tag_245\n      jump\t// in\n    tag_275:\n      swap3\n      pop\n        /* \"WandInstruments.sol\":14495:14498  d++ */\n      dup1\n      dup1\n      tag_276\n      swap1\n      tag_260\n      jump\t// in\n    tag_276:\n      swap2\n      pop\n      pop\n        /* \"WandInstruments.sol\":14436:14567  for (d = daySinceLaunched - numdays; d < daySinceLaunched; d++) {\r... */\n      jump(tag_271)\n    tag_272:\n        /* \"WandInstruments.sol\":14584:14599  CircSupplyXDays */\n      dup3\n        /* \"WandInstruments.sol\":14577:14599  return CircSupplyXDays */\n      swap5\n      pop\n      pop\n      pop\n      pop\n      pop\n        /* \"WandInstruments.sol\":14172:14607  function getCircSupplyXDays() external view returns (uint256){\r... */\n      swap1\n      jump\t// out\n        /* \"WandInstruments.sol\":2026:2086  mapping(address => lockedamounts) public withheldWithdrawals */\n    tag_72:\n      mstore(0x20, 0x1b)\n      dup1\n      0x00\n      mstore\n      keccak256(0x00, 0x40)\n      0x00\n      swap2\n      pop\n      swap1\n      pop\n      dup1\n      0x00\n      add\n      sload\n      swap1\n      dup1\n      0x01\n      add\n      sload\n      swap1\n      pop\n      dup3\n      jump\t// out\n        /* \"WandInstruments.sol\":1609:1659  mapping(uint256 => uint256) public tokensSoldXDays */\n    tag_79:\n      mstore(0x20, 0x18)\n      dup1\n      0x00\n      mstore\n      keccak256(0x00, 0x40)\n      0x00\n      swap2\n      pop\n      swap1\n      pop\n      sload\n      dup2\n      jump\t// out\n        /* \"WandInstruments.sol\":12733:13235  function testUpdatetimeLockedminus(uint256 amt) public  {\r... */\n    tag_84:\n        /* \"WandInstruments.sol\":12814:12833  withheldWithdrawals */\n      0x1b\n        /* \"WandInstruments.sol\":12814:12845  withheldWithdrawals[msg.sender] */\n      0x00\n        /* \"WandInstruments.sol\":12834:12844  msg.sender */\n      caller\n        /* \"WandInstruments.sol\":12814:12845  withheldWithdrawals[msg.sender] */\n      0xffffffffffffffffffffffffffffffffffffffff\n      and\n      0xffffffffffffffffffffffffffffffffffffffff\n      and\n      dup2\n      mstore\n      0x20\n      add\n      swap1\n      dup2\n      mstore\n      0x20\n      add\n      0x00\n      keccak256\n        /* \"WandInstruments.sol\":12814:12853  withheldWithdrawals[msg.sender].amounts */\n      0x01\n      add\n      sload\n        /* \"WandInstruments.sol\":12808:12811  amt */\n      dup2\n        /* \"WandInstruments.sol\":12808:12853  amt < withheldWithdrawals[msg.sender].amounts */\n      lt\n        /* \"WandInstruments.sol\":12800:12894  require(amt < withheldWithdrawals[msg.sender].amounts, \"You dont have that much to withdraw!\") */\n      tag_278\n      jumpi\n      mload(0x40)\n      0x08c379a000000000000000000000000000000000000000000000000000000000\n      dup2\n      mstore\n      0x04\n      add\n      tag_279\n      swap1\n      tag_280\n      jump\t// in\n    tag_279:\n      mload(0x40)\n      dup1\n      swap2\n      sub\n      swap1\n      revert\n    tag_278:\n        /* \"WandInstruments.sol\":13099:13102  amt */\n      dup1\n        /* \"WandInstruments.sol\":13056:13075  withheldWithdrawals */\n      0x1b\n        /* \"WandInstruments.sol\":13056:13087  withheldWithdrawals[msg.sender] */\n      0x00\n        /* \"WandInstruments.sol\":13076:13086  msg.sender */\n      caller\n        /* \"WandInstruments.sol\":13056:13087  withheldWithdrawals[msg.sender] */\n      0xffffffffffffffffffffffffffffffffffffffff\n      and\n      0xffffffffffffffffffffffffffffffffffffffff\n      and\n      dup2\n      mstore\n      0x20\n      add\n      swap1\n      dup2\n      mstore\n      0x20\n      add\n      0x00\n      keccak256\n        /* \"WandInstruments.sol\":13056:13095  withheldWithdrawals[msg.sender].amounts */\n      0x01\n      add\n      0x00\n        /* \"WandInstruments.sol\":13056:13102  withheldWithdrawals[msg.sender].amounts -= amt */\n      dup3\n      dup3\n      sload\n      tag_281\n      swap2\n      swap1\n      tag_250\n      jump\t// in\n    tag_281:\n      swap3\n      pop\n      pop\n      dup2\n      swap1\n      sstore\n      pop\n        /* \"WandInstruments.sol\":13159:13160  0 */\n      0x00\n        /* \"WandInstruments.sol\":13117:13136  withheldWithdrawals */\n      0x1b\n        /* \"WandInstruments.sol\":13117:13148  withheldWithdrawals[msg.sender] */\n      0x00\n        /* \"WandInstruments.sol\":13137:13147  msg.sender */\n      caller\n        /* \"WandInstruments.sol\":13117:13148  withheldWithdrawals[msg.sender] */\n      0xffffffffffffffffffffffffffffffffffffffff\n      and\n      0xffffffffffffffffffffffffffffffffffffffff\n      and\n      dup2\n      mstore\n      0x20\n      add\n      swap1\n      dup2\n      mstore\n      0x20\n      add\n      0x00\n      keccak256\n        /* \"WandInstruments.sol\":13117:13156  withheldWithdrawals[msg.sender].amounts */\n      0x01\n      add\n      sload\n        /* \"WandInstruments.sol\":13117:13160  withheldWithdrawals[msg.sender].amounts ==0 */\n      eq\n        /* \"WandInstruments.sol\":13113:13228  if (withheldWithdrawals[msg.sender].amounts ==0 ){\r... */\n      iszero\n      tag_282\n      jumpi\n        /* \"WandInstruments.sol\":13184:13203  withheldWithdrawals */\n      0x1b\n        /* \"WandInstruments.sol\":13184:13215  withheldWithdrawals[msg.sender] */\n      0x00\n        /* \"WandInstruments.sol\":13204:13214  msg.sender */\n      caller\n        /* \"WandInstruments.sol\":13184:13215  withheldWithdrawals[msg.sender] */\n      0xffffffffffffffffffffffffffffffffffffffff\n      and\n      0xffffffffffffffffffffffffffffffffffffffff\n      and\n      dup2\n      mstore\n      0x20\n      add\n      swap1\n      dup2\n      mstore\n      0x20\n      add\n      0x00\n      keccak256\n      0x00\n        /* \"WandInstruments.sol\":13177:13216  delete(withheldWithdrawals[msg.sender]) */\n      dup1\n      dup3\n      add\n      0x00\n      swap1\n      sstore\n      0x01\n      dup3\n      add\n      0x00\n      swap1\n      sstore\n      pop\n      pop\n        /* \"WandInstruments.sol\":13113:13228  if (withheldWithdrawals[msg.sender].amounts ==0 ){\r... */\n    tag_282:\n        /* \"WandInstruments.sol\":12733:13235  function testUpdatetimeLockedminus(uint256 amt) public  {\r... */\n      pop\n      jump\t// out\n        /* \"WandInstruments.sol\":1666:1723  mapping(uint256 => uint256) public circulatingSupplyXDays */\n    tag_88:\n      mstore(0x20, 0x19)\n      dup1\n      0x00\n      mstore\n      keccak256(0x00, 0x40)\n      0x00\n      swap2\n      pop\n      swap1\n      pop\n      sload\n      dup2\n      jump\t// out\n        /* \"WandInstruments.sol\":6860:7605  function transformScepterToBaton(uint256 amountSCPtoSwap) public payable{\r... */\n    tag_92:\n        /* \"WandInstruments.sol\":7004:7030  uint256 trader_tsc_balance */\n      0x00\n        /* \"WandInstruments.sol\":7033:7036  tSC */\n      0x12\n      0x00\n      swap1\n      sload\n      swap1\n      0x0100\n      exp\n      swap1\n      div\n      0xffffffffffffffffffffffffffffffffffffffff\n      and\n        /* \"WandInstruments.sol\":7033:7046  tSC.balanceOf */\n      0xffffffffffffffffffffffffffffffffffffffff\n      and\n      0x70a08231\n        /* \"WandInstruments.sol\":7047:7057  msg.sender */\n      caller\n        /* \"WandInstruments.sol\":7033:7058  tSC.balanceOf(msg.sender) */\n      mload(0x40)\n      dup3\n      0xffffffff\n      and\n      0xe0\n      shl\n      dup2\n      mstore\n      0x04\n      add\n      tag_284\n      swap2\n      swap1\n      tag_59\n      jump\t// in\n    tag_284:\n      0x20\n      mload(0x40)\n      dup1\n      dup4\n      sub\n      dup2\n      dup7\n      dup1\n      extcodesize\n      iszero\n      dup1\n      iszero\n      tag_285\n      jumpi\n      0x00\n      dup1\n      revert\n    tag_285:\n      pop\n      gas\n      staticcall\n      iszero\n      dup1\n      iszero\n      tag_287\n      jumpi\n      returndatasize\n      0x00\n      dup1\n      returndatacopy\n      revert(0x00, returndatasize)\n    tag_287:\n      pop\n      pop\n      pop\n      pop\n      mload(0x40)\n      returndatasize\n      not(0x1f)\n      0x1f\n      dup3\n      add\n      and\n      dup3\n      add\n      dup1\n      0x40\n      mstore\n      pop\n      dup2\n      add\n      swap1\n      tag_288\n      swap2\n      swap1\n      tag_239\n      jump\t// in\n    tag_288:\n        /* \"WandInstruments.sol\":7004:7058  uint256 trader_tsc_balance = tSC.balanceOf(msg.sender) */\n      swap1\n      pop\n        /* \"WandInstruments.sol\":7098:7113  amountSCPtoSwap */\n      dup2\n        /* \"WandInstruments.sol\":7077:7095  trader_tsc_balance */\n      dup2\n        /* \"WandInstruments.sol\":7077:7113  trader_tsc_balance > amountSCPtoSwap */\n      gt\n        /* \"WandInstruments.sol\":7069:7144  require(trader_tsc_balance > amountSCPtoSwap, \"You dont have that amount!\") */\n      tag_289\n      jumpi\n      mload(0x40)\n      0x08c379a000000000000000000000000000000000000000000000000000000000\n      dup2\n      mstore\n      0x04\n      add\n      tag_290\n      swap1\n      tag_291\n      jump\t// in\n    tag_290:\n      mload(0x40)\n      dup1\n      swap2\n      sub\n      swap1\n      revert\n    tag_289:\n        /* \"WandInstruments.sol\":7198:7264  _safeTransferFrom(tSC, msg.sender, address(this), amountSCPtoSwap) */\n      tag_292\n        /* \"WandInstruments.sol\":7216:7219  tSC */\n      0x12\n      0x00\n      swap1\n      sload\n      swap1\n      0x0100\n      exp\n      swap1\n      div\n      0xffffffffffffffffffffffffffffffffffffffff\n      and\n        /* \"WandInstruments.sol\":7221:7231  msg.sender */\n      caller\n        /* \"WandInstruments.sol\":7241:7245  this */\n      address\n        /* \"WandInstruments.sol\":7248:7263  amountSCPtoSwap */\n      dup6\n        /* \"WandInstruments.sol\":7198:7215  _safeTransferFrom */\n      tag_293\n        /* \"WandInstruments.sol\":7198:7264  _safeTransferFrom(tSC, msg.sender, address(this), amountSCPtoSwap) */\n      jump\t// in\n    tag_292:\n        /* \"WandInstruments.sol\":7325:7341  uint256 dInArray */\n      0x00\n        /* \"WandInstruments.sol\":7375:7380  86400 */\n      0x015180\n        /* \"WandInstruments.sol\":7361:7373  timeLaunched */\n      sload(0x0b)\n        /* \"WandInstruments.sol\":7344:7359  block.timestamp */\n      timestamp\n        /* \"WandInstruments.sol\":7344:7373  block.timestamp- timeLaunched */\n      tag_294\n      swap2\n      swap1\n      tag_250\n      jump\t// in\n    tag_294:\n        /* \"WandInstruments.sol\":7343:7380  (block.timestamp- timeLaunched)/86400 */\n      tag_295\n      swap2\n      swap1\n      tag_248\n      jump\t// in\n    tag_295:\n        /* \"WandInstruments.sol\":7325:7380  uint256 dInArray =(block.timestamp- timeLaunched)/86400 */\n      swap1\n      pop\n        /* \"WandInstruments.sol\":7421:7436  amountSCPtoSwap */\n      dup3\n        /* \"WandInstruments.sol\":7392:7407  tokensSoldXDays */\n      0x18\n        /* \"WandInstruments.sol\":7392:7417  tokensSoldXDays[dInArray] */\n      0x00\n        /* \"WandInstruments.sol\":7408:7416  dInArray */\n      dup4\n        /* \"WandInstruments.sol\":7392:7417  tokensSoldXDays[dInArray] */\n      dup2\n      mstore\n      0x20\n      add\n      swap1\n      dup2\n      mstore\n      0x20\n      add\n      0x00\n      keccak256\n      0x00\n        /* \"WandInstruments.sol\":7392:7436  tokensSoldXDays[dInArray] += amountSCPtoSwap */\n      dup3\n      dup3\n      sload\n      tag_296\n      swap2\n      swap1\n      tag_245\n      jump\t// in\n    tag_296:\n      swap3\n      pop\n      pop\n      dup2\n      swap1\n      sstore\n      pop\n        /* \"WandInstruments.sol\":7483:7498  amountSCPtoSwap */\n      dup3\n        /* \"WandInstruments.sol\":7447:7469  circulatingSupplyXDays */\n      0x19\n        /* \"WandInstruments.sol\":7447:7479  circulatingSupplyXDays[dInArray] */\n      0x00\n        /* \"WandInstruments.sol\":7470:7478  dInArray */\n      dup4\n        /* \"WandInstruments.sol\":7447:7479  circulatingSupplyXDays[dInArray] */\n      dup2\n      mstore\n      0x20\n      add\n      swap1\n      dup2\n      mstore\n      0x20\n      add\n      0x00\n      keccak256\n      0x00\n        /* \"WandInstruments.sol\":7447:7498  circulatingSupplyXDays[dInArray] -= amountSCPtoSwap */\n      dup3\n      dup3\n      sload\n      tag_297\n      swap2\n      swap1\n      tag_250\n      jump\t// in\n    tag_297:\n      swap3\n      pop\n      pop\n      dup2\n      swap1\n      sstore\n      pop\n        /* \"WandInstruments.sol\":6932:7605  {\r... */\n      pop\n      pop\n        /* \"WandInstruments.sol\":6860:7605  function transformScepterToBaton(uint256 amountSCPtoSwap) public payable{\r... */\n      pop\n      jump\t// out\n        /* \"WandInstruments.sol\":11195:11407  function getBackingPrice() external view returns (uint256){\r... */\n    tag_95:\n        /* \"WandInstruments.sol\":11245:11252  uint256 */\n      0x00\n        /* \"WandInstruments.sol\":11359:11399  decDiv18(treasury1bal,tSC.totalSupply()) */\n      tag_299\n        /* \"WandInstruments.sol\":11368:11380  treasury1bal */\n      sload(0x0a)\n        /* \"WandInstruments.sol\":11381:11384  tSC */\n      0x12\n      0x00\n      swap1\n      sload\n      swap1\n      0x0100\n      exp\n      swap1\n      div\n      0xffffffffffffffffffffffffffffffffffffffff\n      and\n        /* \"WandInstruments.sol\":11381:11396  tSC.totalSupply */\n      0xffffffffffffffffffffffffffffffffffffffff\n      and\n      0x18160ddd\n        /* \"WandInstruments.sol\":11381:11398  tSC.totalSupply() */\n      mload(0x40)\n      dup2\n      0xffffffff\n      and\n      0xe0\n      shl\n      dup2\n      mstore\n      0x04\n      add\n      0x20\n      mload(0x40)\n      dup1\n      dup4\n      sub\n      dup2\n      dup7\n      dup1\n      extcodesize\n      iszero\n      dup1\n      iszero\n      tag_300\n      jumpi\n      0x00\n      dup1\n      revert\n    tag_300:\n      pop\n      gas\n      staticcall\n      iszero\n      dup1\n      iszero\n      tag_302\n      jumpi\n      returndatasize\n      0x00\n      dup1\n      returndatacopy\n      revert(0x00, returndatasize)\n    tag_302:\n      pop\n      pop\n      pop\n      pop\n      mload(0x40)\n      returndatasize\n      not(0x1f)\n      0x1f\n      dup3\n      add\n      and\n      dup3\n      add\n      dup1\n      0x40\n      mstore\n      pop\n      dup2\n      add\n      swap1\n      tag_303\n      swap2\n      swap1\n      tag_239\n      jump\t// in\n    tag_303:\n        /* \"WandInstruments.sol\":11359:11367  decDiv18 */\n      tag_131\n        /* \"WandInstruments.sol\":11359:11399  decDiv18(treasury1bal,tSC.totalSupply()) */\n      jump\t// in\n    tag_299:\n        /* \"WandInstruments.sol\":11352:11399  return decDiv18(treasury1bal,tSC.totalSupply()) */\n      swap1\n      pop\n        /* \"WandInstruments.sol\":11195:11407  function getBackingPrice() external view returns (uint256){\r... */\n      swap1\n      jump\t// out\n        /* \"WandInstruments.sol\":1390:1408  IERC20 public SPTR */\n    tag_99:\n      0x13\n      0x00\n      swap1\n      sload\n      swap1\n      0x0100\n      exp\n      swap1\n      div\n      0xffffffffffffffffffffffffffffffffffffffff\n      and\n      dup2\n      jump\t// out\n        /* \"WandInstruments.sol\":693:721  address public devWalletAddr */\n    tag_104:\n      0x09\n      0x00\n      swap1\n      sload\n      swap1\n      0x0100\n      exp\n      swap1\n      div\n      0xffffffffffffffffffffffffffffffffffffffff\n      and\n      dup2\n      jump\t// out\n        /* \"WandInstruments.sol\":1550:1602  mapping(uint256 => uint256) public tokensBoughtXDays */\n    tag_109:\n      mstore(0x20, 0x17)\n      dup1\n      0x00\n      mstore\n      keccak256(0x00, 0x40)\n      0x00\n      swap2\n      pop\n      swap1\n      pop\n      sload\n      dup2\n      jump\t// out\n        /* \"WandInstruments.sol\":762:808  uint256 public treasury1bal = 50000*(DECIMALS) */\n    tag_113:\n      sload(0x0a)\n      dup2\n      jump\t// out\n        /* \"WandInstruments.sol\":12165:12241  function withdrawStables(uint256 _amtToWithdraw) public onlyOwner {\r... */\n    tag_118:\n      pop\n      jump\t// out\n        /* \"WandInstruments.sol\":837:864  uint256 public timeLaunched */\n    tag_121:\n      sload(0x0b)\n      dup2\n      jump\t// out\n        /* \"WandInstruments.sol\":11693:11966  function getSellPrice() external view returns (uint256){\r... */\n    tag_125:\n        /* \"WandInstruments.sol\":11740:11747  uint256 */\n      0x00\n        /* \"WandInstruments.sol\":11880:11958  decMul18(this.getBackingPrice() , (900000000000000000 - this.getSellFactor())) */\n      tag_307\n        /* \"WandInstruments.sol\":11889:11893  this */\n      address\n        /* \"WandInstruments.sol\":11889:11909  this.getBackingPrice */\n      0xffffffffffffffffffffffffffffffffffffffff\n      and\n      0x1f564a06\n        /* \"WandInstruments.sol\":11889:11911  this.getBackingPrice() */\n      mload(0x40)\n      dup2\n      0xffffffff\n      and\n      0xe0\n      shl\n      dup2\n      mstore\n      0x04\n      add\n      0x20\n      mload(0x40)\n      dup1\n      dup4\n      sub\n      dup2\n      dup7\n      dup1\n      extcodesize\n      iszero\n      dup1\n      iszero\n      tag_308\n      jumpi\n      0x00\n      dup1\n      revert\n    tag_308:\n      pop\n      gas\n      staticcall\n      iszero\n      dup1\n      iszero\n      tag_310\n      jumpi\n      returndatasize\n      0x00\n      dup1\n      returndatacopy\n      revert(0x00, returndatasize)\n    tag_310:\n      pop\n      pop\n      pop\n      pop\n      mload(0x40)\n      returndatasize\n      not(0x1f)\n      0x1f\n      dup3\n      add\n      and\n      dup3\n      add\n      dup1\n      0x40\n      mstore\n      pop\n      dup2\n      add\n      swap1\n      tag_311\n      swap2\n      swap1\n      tag_239\n      jump\t// in\n    tag_311:\n        /* \"WandInstruments.sol\":11936:11940  this */\n      address\n        /* \"WandInstruments.sol\":11936:11954  this.getSellFactor */\n      0xffffffffffffffffffffffffffffffffffffffff\n      and\n      0x0ccaf04f\n        /* \"WandInstruments.sol\":11936:11956  this.getSellFactor() */\n      mload(0x40)\n      dup2\n      0xffffffff\n      and\n      0xe0\n      shl\n      dup2\n      mstore\n      0x04\n      add\n      0x20\n      mload(0x40)\n      dup1\n      dup4\n      sub\n      dup2\n      dup7\n      dup1\n      extcodesize\n      iszero\n      dup1\n      iszero\n      tag_312\n      jumpi\n      0x00\n      dup1\n      revert\n    tag_312:\n      pop\n      gas\n      staticcall\n      iszero\n      dup1\n      iszero\n      tag_314\n      jumpi\n      returndatasize\n      0x00\n      dup1\n      returndatacopy\n      revert(0x00, returndatasize)\n    tag_314:\n      pop\n      pop\n      pop\n      pop\n      mload(0x40)\n      returndatasize\n      not(0x1f)\n      0x1f\n      dup3\n      add\n      and\n      dup3\n      add\n      dup1\n      0x40\n      mstore\n      pop\n      dup2\n      add\n      swap1\n      tag_315\n      swap2\n      swap1\n      tag_239\n      jump\t// in\n    tag_315:\n        /* \"WandInstruments.sol\":11915:11933  900000000000000000 */\n      0x0c7d713b49da0000\n        /* \"WandInstruments.sol\":11915:11956  900000000000000000 - this.getSellFactor() */\n      tag_316\n      swap2\n      swap1\n      tag_250\n      jump\t// in\n    tag_316:\n        /* \"WandInstruments.sol\":11880:11888  decMul18 */\n      tag_223\n        /* \"WandInstruments.sol\":11880:11958  decMul18(this.getBackingPrice() , (900000000000000000 - this.getSellFactor())) */\n      jump\t// in\n    tag_307:\n        /* \"WandInstruments.sol\":11873:11958  return decMul18(this.getBackingPrice() , (900000000000000000 - this.getSellFactor())) */\n      swap1\n      pop\n        /* \"WandInstruments.sol\":11693:11966  function getSellPrice() external view returns (uint256){\r... */\n      swap1\n      jump\t// out\n        /* \"WandInstruments.sol\":4592:4771  function decDiv18(uint x, uint y) public pure returns (uint decQuotient) {\r... */\n    tag_131:\n        /* \"WandInstruments.sol\":4647:4663  uint decQuotient */\n      0x00\n        /* \"WandInstruments.sol\":4676:4692  uint prod_xTEN18 */\n      dup1\n        /* \"WandInstruments.sol\":4695:4711  mul(x, DECIMALS) */\n      tag_318\n        /* \"WandInstruments.sol\":4699:4700  x */\n      dup5\n        /* \"WandInstruments.sol\":316:322  10**18 */\n      0x0de0b6b3a7640000\n        /* \"WandInstruments.sol\":4695:4698  mul */\n      tag_319\n        /* \"WandInstruments.sol\":4695:4711  mul(x, DECIMALS) */\n      jump\t// in\n    tag_318:\n        /* \"WandInstruments.sol\":4676:4711  uint prod_xTEN18 = mul(x, DECIMALS) */\n      swap1\n      pop\n        /* \"WandInstruments.sol\":4762:4763  y */\n      dup3\n        /* \"WandInstruments.sol\":4736:4759  add(prod_xTEN18, y / 2) */\n      tag_320\n        /* \"WandInstruments.sol\":4740:4751  prod_xTEN18 */\n      dup3\n        /* \"WandInstruments.sol\":4757:4758  2 */\n      0x02\n        /* \"WandInstruments.sol\":4753:4754  y */\n      dup7\n        /* \"WandInstruments.sol\":4753:4758  y / 2 */\n      tag_321\n      swap2\n      swap1\n      tag_248\n      jump\t// in\n    tag_321:\n        /* \"WandInstruments.sol\":4736:4739  add */\n      tag_322\n        /* \"WandInstruments.sol\":4736:4759  add(prod_xTEN18, y / 2) */\n      jump\t// in\n    tag_320:\n        /* \"WandInstruments.sol\":4736:4763  add(prod_xTEN18, y / 2) / y */\n      tag_323\n      swap2\n      swap1\n      tag_248\n      jump\t// in\n    tag_323:\n        /* \"WandInstruments.sol\":4722:4763  decQuotient = add(prod_xTEN18, y / 2) / y */\n      swap2\n      pop\n        /* \"WandInstruments.sol\":4665:4771  {\r... */\n      pop\n        /* \"WandInstruments.sol\":4592:4771  function decDiv18(uint x, uint y) public pure returns (uint decQuotient) {\r... */\n      swap3\n      swap2\n      pop\n      pop\n      jump\t// out\n        /* \"WandInstruments.sol\":871:903  uint256 public daysInCalculation */\n    tag_135:\n      sload(0x0c)\n      dup2\n      jump\t// out\n        /* \"WandInstruments.sol\":12249:12721  function testUpdatetimeLockedplus(uint256 amt) public  {\r... */\n    tag_140:\n        /* \"WandInstruments.sol\":12644:12650  864000 */\n      0x0d2f00\n        /* \"WandInstruments.sol\":12626:12641  block.timestamp */\n      timestamp\n        /* \"WandInstruments.sol\":12626:12650  block.timestamp + 864000 */\n      tag_325\n      swap2\n      swap1\n      tag_245\n      jump\t// in\n    tag_325:\n        /* \"WandInstruments.sol\":12579:12598  withheldWithdrawals */\n      0x1b\n        /* \"WandInstruments.sol\":12579:12610  withheldWithdrawals[msg.sender] */\n      0x00\n        /* \"WandInstruments.sol\":12599:12609  msg.sender */\n      caller\n        /* \"WandInstruments.sol\":12579:12610  withheldWithdrawals[msg.sender] */\n      0xffffffffffffffffffffffffffffffffffffffff\n      and\n      0xffffffffffffffffffffffffffffffffffffffff\n      and\n      dup2\n      mstore\n      0x20\n      add\n      swap1\n      dup2\n      mstore\n      0x20\n      add\n      0x00\n      keccak256\n        /* \"WandInstruments.sol\":12579:12623  withheldWithdrawals[msg.sender].timeUnlocked */\n      0x00\n      add\n        /* \"WandInstruments.sol\":12579:12650  withheldWithdrawals[msg.sender].timeUnlocked = block.timestamp + 864000 */\n      dup2\n      swap1\n      sstore\n      pop\n        /* \"WandInstruments.sol\":12704:12707  amt */\n      dup1\n        /* \"WandInstruments.sol\":12661:12680  withheldWithdrawals */\n      0x1b\n        /* \"WandInstruments.sol\":12661:12692  withheldWithdrawals[msg.sender] */\n      0x00\n        /* \"WandInstruments.sol\":12681:12691  msg.sender */\n      caller\n        /* \"WandInstruments.sol\":12661:12692  withheldWithdrawals[msg.sender] */\n      0xffffffffffffffffffffffffffffffffffffffff\n      and\n      0xffffffffffffffffffffffffffffffffffffffff\n      and\n      dup2\n      mstore\n      0x20\n      add\n      swap1\n      dup2\n      mstore\n      0x20\n      add\n      0x00\n      keccak256\n        /* \"WandInstruments.sol\":12661:12700  withheldWithdrawals[msg.sender].amounts */\n      0x01\n      add\n      0x00\n        /* \"WandInstruments.sol\":12661:12707  withheldWithdrawals[msg.sender].amounts += amt */\n      dup3\n      dup3\n      sload\n      tag_326\n      swap2\n      swap1\n      tag_245\n      jump\t// in\n    tag_326:\n      swap3\n      pop\n      pop\n      dup2\n      swap1\n      sstore\n      pop\n        /* \"WandInstruments.sol\":12249:12721  function testUpdatetimeLockedplus(uint256 amt) public  {\r... */\n      pop\n      jump\t// out\n        /* \"WandInstruments.sol\":1344:1361  IERC20 public tSC */\n    tag_143:\n      0x12\n      0x00\n      swap1\n      sload\n      swap1\n      0x0100\n      exp\n      swap1\n      div\n      0xffffffffffffffffffffffffffffffffffffffff\n      and\n      dup2\n      jump\t// out\n        /* \"WandInstruments.sol\":1122:1139  int128 public res */\n    tag_147:\n      0x10\n      0x00\n      swap1\n      sload\n      swap1\n      0x0100\n      exp\n      swap1\n      div\n      0x0f\n      signextend\n      dup2\n      jump\t// out\n        /* \"WandInstruments.sol\":1467:1492  IERC20 public tokenStable */\n    tag_152:\n      0x16\n      0x00\n      swap1\n      sload\n      swap1\n      0x0100\n      exp\n      swap1\n      div\n      0xffffffffffffffffffffffffffffffffffffffff\n      and\n      dup2\n      jump\t// out\n        /* \"WandInstruments.sol\":13346:13874  function getTokensBoughtXDays() external view returns (uint256){\r... */\n    tag_156:\n        /* \"WandInstruments.sol\":13401:13408  uint256 */\n      0x00\n        /* \"WandInstruments.sol\":13420:13437  uint256 boughtnum */\n      dup1\n        /* \"WandInstruments.sol\":13448:13457  uint256 d */\n      0x00\n        /* \"WandInstruments.sol\":13468:13483  uint256 numdays */\n      dup1\n        /* \"WandInstruments.sol\":13504:13509  86400 */\n      0x015180\n        /* \"WandInstruments.sol\":13486:13503  daysInCalculation */\n      sload(0x0c)\n        /* \"WandInstruments.sol\":13486:13509  daysInCalculation/86400 */\n      tag_328\n      swap2\n      swap1\n      tag_248\n      jump\t// in\n    tag_328:\n        /* \"WandInstruments.sol\":13468:13509  uint256 numdays = daysInCalculation/86400 */\n      swap1\n      pop\n        /* \"WandInstruments.sol\":13520:13544  uint256 daySinceLaunched */\n      0x00\n        /* \"WandInstruments.sol\":13582:13587  86400 */\n      0x015180\n        /* \"WandInstruments.sol\":13566:13578  timeLaunched */\n      sload(0x0b)\n        /* \"WandInstruments.sol\":13548:13563  block.timestamp */\n      timestamp\n        /* \"WandInstruments.sol\":13548:13578  block.timestamp - timeLaunched */\n      tag_329\n      swap2\n      swap1\n      tag_250\n      jump\t// in\n    tag_329:\n        /* \"WandInstruments.sol\":13547:13587  (block.timestamp - timeLaunched) / 86400 */\n      tag_330\n      swap2\n      swap1\n      tag_248\n      jump\t// in\n    tag_330:\n        /* \"WandInstruments.sol\":13520:13587  uint256 daySinceLaunched = (block.timestamp - timeLaunched) / 86400 */\n      swap1\n      pop\n        /* \"WandInstruments.sol\":13622:13623  0 */\n      0x00\n        /* \"WandInstruments.sol\":13602:13618  daySinceLaunched */\n      dup2\n        /* \"WandInstruments.sol\":13602:13623  daySinceLaunched == 0 */\n      eq\n        /* \"WandInstruments.sol\":13598:13675  if (daySinceLaunched == 0) {\r... */\n      iszero\n      tag_331\n      jumpi\n        /* \"WandInstruments.sol\":13643:13660  tokensBoughtXDays */\n      0x17\n        /* \"WandInstruments.sol\":13643:13663  tokensBoughtXDays[0] */\n      0x00\n        /* \"WandInstruments.sol\":13661:13662  0 */\n      dup1\n        /* \"WandInstruments.sol\":13643:13663  tokensBoughtXDays[0] */\n      dup2\n      mstore\n      0x20\n      add\n      swap1\n      dup2\n      mstore\n      0x20\n      add\n      0x00\n      keccak256\n      sload\n        /* \"WandInstruments.sol\":13636:13663  return tokensBoughtXDays[0] */\n      swap5\n      pop\n      pop\n      pop\n      pop\n      pop\n      jump(tag_327)\n        /* \"WandInstruments.sol\":13598:13675  if (daySinceLaunched == 0) {\r... */\n    tag_331:\n        /* \"WandInstruments.sol\":13713:13720  numdays */\n      dup2\n        /* \"WandInstruments.sol\":13694:13710  daySinceLaunched */\n      dup2\n        /* \"WandInstruments.sol\":13694:13720  daySinceLaunched - numdays */\n      tag_335\n      swap2\n      swap1\n      tag_250\n      jump\t// in\n    tag_335:\n        /* \"WandInstruments.sol\":13690:13720  d = daySinceLaunched - numdays */\n      swap3\n      pop\n        /* \"WandInstruments.sol\":13685:13831  for (d = daySinceLaunched - numdays; d < daySinceLaunched; d++) {  //for loop example\r... */\n    tag_332:\n        /* \"WandInstruments.sol\":13726:13742  daySinceLaunched */\n      dup1\n        /* \"WandInstruments.sol\":13722:13723  d */\n      dup4\n        /* \"WandInstruments.sol\":13722:13742  d < daySinceLaunched */\n      lt\n        /* \"WandInstruments.sol\":13685:13831  for (d = daySinceLaunched - numdays; d < daySinceLaunched; d++) {  //for loop example\r... */\n      iszero\n      tag_333\n      jumpi\n        /* \"WandInstruments.sol\":13795:13812  tokensBoughtXDays */\n      0x17\n        /* \"WandInstruments.sol\":13795:13815  tokensBoughtXDays[d] */\n      0x00\n        /* \"WandInstruments.sol\":13813:13814  d */\n      dup5\n        /* \"WandInstruments.sol\":13795:13815  tokensBoughtXDays[d] */\n      dup2\n      mstore\n      0x20\n      add\n      swap1\n      dup2\n      mstore\n      0x20\n      add\n      0x00\n      keccak256\n      sload\n        /* \"WandInstruments.sol\":13782:13815  boughtnum += tokensBoughtXDays[d] */\n      dup5\n      tag_336\n      swap2\n      swap1\n      tag_245\n      jump\t// in\n    tag_336:\n      swap4\n      pop\n        /* \"WandInstruments.sol\":13744:13747  d++ */\n      dup3\n      dup1\n      tag_337\n      swap1\n      tag_260\n      jump\t// in\n    tag_337:\n      swap4\n      pop\n      pop\n        /* \"WandInstruments.sol\":13685:13831  for (d = daySinceLaunched - numdays; d < daySinceLaunched; d++) {  //for loop example\r... */\n      jump(tag_332)\n    tag_333:\n        /* \"WandInstruments.sol\":13857:13866  boughtnum */\n      dup4\n        /* \"WandInstruments.sol\":13850:13866  return boughtnum */\n      swap5\n      pop\n      pop\n      pop\n      pop\n      pop\n        /* \"WandInstruments.sol\":13346:13874  function getTokensBoughtXDays() external view returns (uint256){\r... */\n    tag_327:\n      swap1\n      jump\t// out\n        /* \"WandInstruments.sol\":7620:8837  function buyScepter(uint256 amountSCPtoBuy, string memory _stableChosen) public {\r... */\n    tag_162:\n        /* \"WandInstruments.sol\":7793:7808  stableERC20Info */\n      0x1a\n        /* \"WandInstruments.sol\":7809:7822  _stableChosen */\n      dup2\n        /* \"WandInstruments.sol\":7793:7823  stableERC20Info[_stableChosen] */\n      mload(0x40)\n      tag_339\n      swap2\n      swap1\n      tag_340\n      jump\t// in\n    tag_339:\n      swap1\n      dup2\n      mstore\n      0x20\n      add\n      mload(0x40)\n      dup1\n      swap2\n      sub\n      swap1\n      keccak256\n        /* \"WandInstruments.sol\":7793:7839  stableERC20Info[_stableChosen].contractAddress */\n      0x00\n      add\n      0x00\n      swap1\n      sload\n      swap1\n      0x0100\n      exp\n      swap1\n      div\n      0xffffffffffffffffffffffffffffffffffffffff\n      and\n        /* \"WandInstruments.sol\":7772:7783  tokenStable */\n      0x16\n      0x00\n        /* \"WandInstruments.sol\":7772:7840  tokenStable = IERC20(stableERC20Info[_stableChosen].contractAddress) */\n      0x0100\n      exp\n      dup2\n      sload\n      dup2\n      0xffffffffffffffffffffffffffffffffffffffff\n      mul\n      not\n      and\n      swap1\n      dup4\n      0xffffffffffffffffffffffffffffffffffffffff\n      and\n      mul\n      or\n      swap1\n      sstore\n      pop\n        /* \"WandInstruments.sol\":7877:7883  250000 */\n      0x03d090\n        /* \"WandInstruments.sol\":7859:7873  amountSCPtoBuy */\n      dup3\n        /* \"WandInstruments.sol\":7859:7883  amountSCPtoBuy <= 250000 */\n      gt\n      iszero\n        /* \"WandInstruments.sol\":7851:7910  require(amountSCPtoBuy <= 250000 , \"Per transaction limit\") */\n      tag_341\n      jumpi\n      mload(0x40)\n      0x08c379a000000000000000000000000000000000000000000000000000000000\n      dup2\n      mstore\n      0x04\n      add\n      tag_342\n      swap1\n      tag_343\n      jump\t// in\n    tag_342:\n      mload(0x40)\n      dup1\n      swap2\n      sub\n      swap1\n      revert\n    tag_341:\n        /* \"WandInstruments.sol\":7921:7948  uint256 trader_usdc_balance */\n      0x00\n        /* \"WandInstruments.sol\":7951:7962  tokenStable */\n      0x16\n      0x00\n      swap1\n      sload\n      swap1\n      0x0100\n      exp\n      swap1\n      div\n      0xffffffffffffffffffffffffffffffffffffffff\n      and\n        /* \"WandInstruments.sol\":7951:7972  tokenStable.balanceOf */\n      0xffffffffffffffffffffffffffffffffffffffff\n      and\n      0x70a08231\n        /* \"WandInstruments.sol\":7973:7983  msg.sender */\n      caller\n        /* \"WandInstruments.sol\":7951:7984  tokenStable.balanceOf(msg.sender) */\n      mload(0x40)\n      dup3\n      0xffffffff\n      and\n      0xe0\n      shl\n      dup2\n      mstore\n      0x04\n      add\n      tag_344\n      swap2\n      swap1\n      tag_59\n      jump\t// in\n    tag_344:\n      0x20\n      mload(0x40)\n      dup1\n      dup4\n      sub\n      dup2\n      dup7\n      dup1\n      extcodesize\n      iszero\n      dup1\n      iszero\n      tag_345\n      jumpi\n      0x00\n      dup1\n      revert\n    tag_345:\n      pop\n      gas\n      staticcall\n      iszero\n      dup1\n      iszero\n      tag_347\n      jumpi\n      returndatasize\n      0x00\n      dup1\n      returndatacopy\n      revert(0x00, returndatasize)\n    tag_347:\n      pop\n      pop\n      pop\n      pop\n      mload(0x40)\n      returndatasize\n      not(0x1f)\n      0x1f\n      dup3\n      add\n      and\n      dup3\n      add\n      dup1\n      0x40\n      mstore\n      pop\n      dup2\n      add\n      swap1\n      tag_348\n      swap2\n      swap1\n      tag_239\n      jump\t// in\n    tag_348:\n        /* \"WandInstruments.sol\":7921:7984  uint256 trader_usdc_balance = tokenStable.balanceOf(msg.sender) */\n      swap1\n      pop\n        /* \"WandInstruments.sol\":8025:8039  amountSCPtoBuy */\n      dup3\n        /* \"WandInstruments.sol\":8003:8022  trader_usdc_balance */\n      dup2\n        /* \"WandInstruments.sol\":8003:8039  trader_usdc_balance > amountSCPtoBuy */\n      gt\n        /* \"WandInstruments.sol\":7995:8070  require(trader_usdc_balance > amountSCPtoBuy, \"You dont have that amount!\") */\n      tag_349\n      jumpi\n      mload(0x40)\n      0x08c379a000000000000000000000000000000000000000000000000000000000\n      dup2\n      mstore\n      0x04\n      add\n      tag_350\n      swap1\n      tag_291\n      jump\t// in\n    tag_350:\n      mload(0x40)\n      dup1\n      swap2\n      sub\n      swap1\n      revert\n    tag_349:\n        /* \"WandInstruments.sol\":8137:8156  uint256 usdAmtToPay */\n      0x00\n        /* \"WandInstruments.sol\":8219:8234  stableERC20Info */\n      0x1a\n        /* \"WandInstruments.sol\":8235:8248  _stableChosen */\n      dup4\n        /* \"WandInstruments.sol\":8219:8249  stableERC20Info[_stableChosen] */\n      mload(0x40)\n      tag_351\n      swap2\n      swap1\n      tag_340\n      jump\t// in\n    tag_351:\n      swap1\n      dup2\n      mstore\n      0x20\n      add\n      mload(0x40)\n      dup1\n      swap2\n      sub\n      swap1\n      keccak256\n        /* \"WandInstruments.sol\":8219:8263  stableERC20Info[_stableChosen].tokenDecimals */\n      0x01\n      add\n      sload\n        /* \"WandInstruments.sol\":8198:8202  this */\n      address\n        /* \"WandInstruments.sol\":8198:8214  this.getBuyPrice */\n      0xffffffffffffffffffffffffffffffffffffffff\n      and\n      0x018a25e8\n        /* \"WandInstruments.sol\":8198:8216  this.getBuyPrice() */\n      mload(0x40)\n      dup2\n      0xffffffff\n      and\n      0xe0\n      shl\n      dup2\n      mstore\n      0x04\n      add\n      0x20\n      mload(0x40)\n      dup1\n      dup4\n      sub\n      dup2\n      dup7\n      dup1\n      extcodesize\n      iszero\n      dup1\n      iszero\n      tag_352\n      jumpi\n      0x00\n      dup1\n      revert\n    tag_352:\n      pop\n      gas\n      staticcall\n      iszero\n      dup1\n      iszero\n      tag_354\n      jumpi\n      returndatasize\n      0x00\n      dup1\n      returndatacopy\n      revert(0x00, returndatasize)\n    tag_354:\n      pop\n      pop\n      pop\n      pop\n      mload(0x40)\n      returndatasize\n      not(0x1f)\n      0x1f\n      dup3\n      add\n      and\n      dup3\n      add\n      dup1\n      0x40\n      mstore\n      pop\n      dup2\n      add\n      swap1\n      tag_355\n      swap2\n      swap1\n      tag_239\n      jump\t// in\n    tag_355:\n        /* \"WandInstruments.sol\":8181:8195  amountSCPtoBuy */\n      dup6\n        /* \"WandInstruments.sol\":8181:8216  amountSCPtoBuy * this.getBuyPrice() */\n      tag_356\n      swap2\n      swap1\n      tag_357\n      jump\t// in\n    tag_356:\n        /* \"WandInstruments.sol\":8181:8263  amountSCPtoBuy * this.getBuyPrice() * stableERC20Info[_stableChosen].tokenDecimals */\n      tag_358\n      swap2\n      swap1\n      tag_357\n      jump\t// in\n    tag_358:\n        /* \"WandInstruments.sol\":8167:8263  usdAmtToPay = amountSCPtoBuy * this.getBuyPrice() * stableERC20Info[_stableChosen].tokenDecimals */\n      swap1\n      pop\n        /* \"WandInstruments.sol\":8319:8389  _safeTransferFrom(tokenStable, msg.sender, address(this), usdAmtToPay) */\n      tag_359\n        /* \"WandInstruments.sol\":8337:8348  tokenStable */\n      0x16\n      0x00\n      swap1\n      sload\n      swap1\n      0x0100\n      exp\n      swap1\n      div\n      0xffffffffffffffffffffffffffffffffffffffff\n      and\n        /* \"WandInstruments.sol\":8350:8360  msg.sender */\n      caller\n        /* \"WandInstruments.sol\":8370:8374  this */\n      address\n        /* \"WandInstruments.sol\":8377:8388  usdAmtToPay */\n      dup5\n        /* \"WandInstruments.sol\":8319:8336  _safeTransferFrom */\n      tag_293\n        /* \"WandInstruments.sol\":8319:8389  _safeTransferFrom(tokenStable, msg.sender, address(this), usdAmtToPay) */\n      jump\t// in\n    tag_359:\n        /* \"WandInstruments.sol\":8408:8412  sptr */\n      0x1c\n      0x00\n      swap1\n      sload\n      swap1\n      0x0100\n      exp\n      swap1\n      div\n      0xffffffffffffffffffffffffffffffffffffffff\n      and\n        /* \"WandInstruments.sol\":8408:8417  sptr.mint */\n      0xffffffffffffffffffffffffffffffffffffffff\n      and\n      0x40c10f19\n        /* \"WandInstruments.sol\":8418:8428  msg.sender */\n      caller\n        /* \"WandInstruments.sol\":316:322  10**18 */\n      0x0de0b6b3a7640000\n        /* \"WandInstruments.sol\":8429:8443  amountSCPtoBuy */\n      dup8\n        /* \"WandInstruments.sol\":8429:8454  amountSCPtoBuy * DECIMALS */\n      tag_360\n      swap2\n      swap1\n      tag_357\n      jump\t// in\n    tag_360:\n        /* \"WandInstruments.sol\":8408:8455  sptr.mint(msg.sender,amountSCPtoBuy * DECIMALS) */\n      mload(0x40)\n      dup4\n      0xffffffff\n      and\n      0xe0\n      shl\n      dup2\n      mstore\n      0x04\n      add\n      tag_361\n      swap3\n      swap2\n      swap1\n      tag_177\n      jump\t// in\n    tag_361:\n      0x00\n      mload(0x40)\n      dup1\n      dup4\n      sub\n      dup2\n      0x00\n      dup8\n      dup1\n      extcodesize\n      iszero\n      dup1\n      iszero\n      tag_362\n      jumpi\n      0x00\n      dup1\n      revert\n    tag_362:\n      pop\n      gas\n      call\n      iszero\n      dup1\n      iszero\n      tag_364\n      jumpi\n      returndatasize\n      0x00\n      dup1\n      returndatacopy\n      revert(0x00, returndatasize)\n    tag_364:\n      pop\n      pop\n      pop\n      pop\n        /* \"WandInstruments.sol\":8596:8612  uint256 dInArray */\n      0x00\n        /* \"WandInstruments.sol\":8646:8651  86400 */\n      0x015180\n        /* \"WandInstruments.sol\":8632:8644  timeLaunched */\n      sload(0x0b)\n        /* \"WandInstruments.sol\":8615:8630  block.timestamp */\n      timestamp\n        /* \"WandInstruments.sol\":8615:8644  block.timestamp- timeLaunched */\n      tag_365\n      swap2\n      swap1\n      tag_250\n      jump\t// in\n    tag_365:\n        /* \"WandInstruments.sol\":8614:8651  (block.timestamp- timeLaunched)/86400 */\n      tag_366\n      swap2\n      swap1\n      tag_248\n      jump\t// in\n    tag_366:\n        /* \"WandInstruments.sol\":8596:8651  uint256 dInArray =(block.timestamp- timeLaunched)/86400 */\n      swap1\n      pop\n        /* \"WandInstruments.sol\":8694:8708  amountSCPtoBuy */\n      dup5\n        /* \"WandInstruments.sol\":8663:8680  tokensBoughtXDays */\n      0x17\n        /* \"WandInstruments.sol\":8663:8690  tokensBoughtXDays[dInArray] */\n      0x00\n        /* \"WandInstruments.sol\":8681:8689  dInArray */\n      dup4\n        /* \"WandInstruments.sol\":8663:8690  tokensBoughtXDays[dInArray] */\n      dup2\n      mstore\n      0x20\n      add\n      swap1\n      dup2\n      mstore\n      0x20\n      add\n      0x00\n      keccak256\n      0x00\n        /* \"WandInstruments.sol\":8663:8708  tokensBoughtXDays[dInArray] += amountSCPtoBuy */\n      dup3\n      dup3\n      sload\n      tag_367\n      swap2\n      swap1\n      tag_245\n      jump\t// in\n    tag_367:\n      swap3\n      pop\n      pop\n      dup2\n      swap1\n      sstore\n      pop\n        /* \"WandInstruments.sol\":8755:8769  amountSCPtoBuy */\n      dup5\n        /* \"WandInstruments.sol\":8719:8741  circulatingSupplyXDays */\n      0x19\n        /* \"WandInstruments.sol\":8719:8751  circulatingSupplyXDays[dInArray] */\n      0x00\n        /* \"WandInstruments.sol\":8742:8750  dInArray */\n      dup4\n        /* \"WandInstruments.sol\":8719:8751  circulatingSupplyXDays[dInArray] */\n      dup2\n      mstore\n      0x20\n      add\n      swap1\n      dup2\n      mstore\n      0x20\n      add\n      0x00\n      keccak256\n      0x00\n        /* \"WandInstruments.sol\":8719:8769  circulatingSupplyXDays[dInArray] += amountSCPtoBuy */\n      dup3\n      dup3\n      sload\n      tag_368\n      swap2\n      swap1\n      tag_245\n      jump\t// in\n    tag_368:\n      swap3\n      pop\n      pop\n      dup2\n      swap1\n      sstore\n      pop\n        /* \"WandInstruments.sol\":8802:8812  msg.sender */\n      caller\n        /* \"WandInstruments.sol\":8787:8829  sceptersBought(msg.sender, amountSCPtoBuy) */\n      0xffffffffffffffffffffffffffffffffffffffff\n      and\n      0xf633443b01504d269657083d48bb6de98e089cfff672b47fefbed21608b5c779\n        /* \"WandInstruments.sol\":8814:8828  amountSCPtoBuy */\n      dup7\n        /* \"WandInstruments.sol\":8787:8829  sceptersBought(msg.sender, amountSCPtoBuy) */\n      mload(0x40)\n      tag_369\n      swap2\n      swap1\n      tag_54\n      jump\t// in\n    tag_369:\n      mload(0x40)\n      dup1\n      swap2\n      sub\n      swap1\n      log2\n        /* \"WandInstruments.sol\":7700:8837  {\r... */\n      pop\n      pop\n      pop\n        /* \"WandInstruments.sol\":7620:8837  function buyScepter(uint256 amountSCPtoBuy, string memory _stableChosen) public {\r... */\n      pop\n      pop\n      jump\t// out\n        /* \"WandInstruments.sol\":9385:10288  function getGrowthFactor() external view returns (uint256){\r... */\n    tag_165:\n        /* \"WandInstruments.sol\":9435:9442  uint256 */\n      0x00\n        /* \"WandInstruments.sol\":9587:9598  uint256 _gF */\n      dup1\n        /* \"WandInstruments.sol\":9609:9632  uint256 xDaysCircSupply */\n      0x00\n        /* \"WandInstruments.sol\":9643:9658  uint256 numdays */\n      dup1\n        /* \"WandInstruments.sol\":9679:9684  86400 */\n      0x015180\n        /* \"WandInstruments.sol\":9661:9678  daysInCalculation */\n      sload(0x0c)\n        /* \"WandInstruments.sol\":9661:9684  daysInCalculation/86400 */\n      tag_371\n      swap2\n      swap1\n      tag_248\n      jump\t// in\n    tag_371:\n        /* \"WandInstruments.sol\":9643:9684  uint256 numdays = daysInCalculation/86400 */\n      swap1\n      pop\n        /* \"WandInstruments.sol\":9695:9719  uint256 daySinceLaunched */\n      0x00\n        /* \"WandInstruments.sol\":9757:9762  86400 */\n      0x015180\n        /* \"WandInstruments.sol\":9741:9753  timeLaunched */\n      sload(0x0b)\n        /* \"WandInstruments.sol\":9723:9738  block.timestamp */\n      timestamp\n        /* \"WandInstruments.sol\":9723:9753  block.timestamp - timeLaunched */\n      tag_372\n      swap2\n      swap1\n      tag_250\n      jump\t// in\n    tag_372:\n        /* \"WandInstruments.sol\":9722:9762  (block.timestamp - timeLaunched) / 86400 */\n      tag_373\n      swap2\n      swap1\n      tag_248\n      jump\t// in\n    tag_373:\n        /* \"WandInstruments.sol\":9695:9762  uint256 daySinceLaunched = (block.timestamp - timeLaunched) / 86400 */\n      swap1\n      pop\n        /* \"WandInstruments.sol\":9773:9782  uint256 d */\n      0x00\n        /* \"WandInstruments.sol\":9827:9828  0 */\n      dup1\n        /* \"WandInstruments.sol\":9807:9823  daySinceLaunched */\n      dup3\n        /* \"WandInstruments.sol\":9807:9828  daySinceLaunched == 0 */\n      eq\n        /* \"WandInstruments.sol\":9803:10095  if (daySinceLaunched == 0) {\r... */\n      iszero\n      tag_374\n      jumpi\n        /* \"WandInstruments.sol\":9859:9881  circulatingSupplyXDays */\n      0x19\n        /* \"WandInstruments.sol\":9859:9884  circulatingSupplyXDays[0] */\n      0x00\n        /* \"WandInstruments.sol\":9882:9883  0 */\n      dup1\n        /* \"WandInstruments.sol\":9859:9884  circulatingSupplyXDays[0] */\n      dup2\n      mstore\n      0x20\n      add\n      swap1\n      dup2\n      mstore\n      0x20\n      add\n      0x00\n      keccak256\n      sload\n        /* \"WandInstruments.sol\":9841:9884  xDaysCircSupply = circulatingSupplyXDays[0] */\n      swap4\n      pop\n        /* \"WandInstruments.sol\":9803:10095  if (daySinceLaunched == 0) {\r... */\n      jump(tag_375)\n    tag_374:\n        /* \"WandInstruments.sol\":9953:9960  numdays */\n      dup3\n        /* \"WandInstruments.sol\":9934:9950  daySinceLaunched */\n      dup3\n        /* \"WandInstruments.sol\":9934:9960  daySinceLaunched - numdays */\n      tag_379\n      swap2\n      swap1\n      tag_250\n      jump\t// in\n    tag_379:\n        /* \"WandInstruments.sol\":9930:9960  d = daySinceLaunched - numdays */\n      swap1\n      pop\n        /* \"WandInstruments.sol\":9925:10084  for (d = daySinceLaunched - numdays; d < daySinceLaunched; d++) {  //for loop example\r... */\n    tag_376:\n        /* \"WandInstruments.sol\":9966:9982  daySinceLaunched */\n      dup2\n        /* \"WandInstruments.sol\":9962:9963  d */\n      dup2\n        /* \"WandInstruments.sol\":9962:9982  d < daySinceLaunched */\n      lt\n        /* \"WandInstruments.sol\":9925:10084  for (d = daySinceLaunched - numdays; d < daySinceLaunched; d++) {  //for loop example\r... */\n      iszero\n      tag_377\n      jumpi\n        /* \"WandInstruments.sol\":10043:10065  circulatingSupplyXDays */\n      0x19\n        /* \"WandInstruments.sol\":10043:10068  circulatingSupplyXDays[d] */\n      0x00\n        /* \"WandInstruments.sol\":10066:10067  d */\n      dup3\n        /* \"WandInstruments.sol\":10043:10068  circulatingSupplyXDays[d] */\n      dup2\n      mstore\n      0x20\n      add\n      swap1\n      dup2\n      mstore\n      0x20\n      add\n      0x00\n      keccak256\n      sload\n        /* \"WandInstruments.sol\":10024:10068  xDaysCircSupply += circulatingSupplyXDays[d] */\n      dup5\n      tag_380\n      swap2\n      swap1\n      tag_245\n      jump\t// in\n    tag_380:\n      swap4\n      pop\n        /* \"WandInstruments.sol\":9984:9987  d++ */\n      dup1\n      dup1\n      tag_381\n      swap1\n      tag_260\n      jump\t// in\n    tag_381:\n      swap2\n      pop\n      pop\n        /* \"WandInstruments.sol\":9925:10084  for (d = daySinceLaunched - numdays; d < daySinceLaunched; d++) {  //for loop example\r... */\n      jump(tag_376)\n    tag_377:\n        /* \"WandInstruments.sol\":9803:10095  if (daySinceLaunched == 0) {\r... */\n    tag_375:\n        /* \"WandInstruments.sol\":10110:10163  decDiv18(this.getTokensBoughtXDays(),xDaysCircSupply) */\n      tag_382\n        /* \"WandInstruments.sol\":10119:10123  this */\n      address\n        /* \"WandInstruments.sol\":10119:10144  this.getTokensBoughtXDays */\n      0xffffffffffffffffffffffffffffffffffffffff\n      and\n      0x71cd58f9\n        /* \"WandInstruments.sol\":10119:10146  this.getTokensBoughtXDays() */\n      mload(0x40)\n      dup2\n      0xffffffff\n      and\n      0xe0\n      shl\n      dup2\n      mstore\n      0x04\n      add\n      0x20\n      mload(0x40)\n      dup1\n      dup4\n      sub\n      dup2\n      dup7\n      dup1\n      extcodesize\n      iszero\n      dup1\n      iszero\n      tag_383\n      jumpi\n      0x00\n      dup1\n      revert\n    tag_383:\n      pop\n      gas\n      staticcall\n      iszero\n      dup1\n      iszero\n      tag_385\n      jumpi\n      returndatasize\n      0x00\n      dup1\n      returndatacopy\n      revert(0x00, returndatasize)\n    tag_385:\n      pop\n      pop\n      pop\n      pop\n      mload(0x40)\n      returndatasize\n      not(0x1f)\n      0x1f\n      dup3\n      add\n      and\n      dup3\n      add\n      dup1\n      0x40\n      mstore\n      pop\n      dup2\n      add\n      swap1\n      tag_386\n      swap2\n      swap1\n      tag_239\n      jump\t// in\n    tag_386:\n        /* \"WandInstruments.sol\":10147:10162  xDaysCircSupply */\n      dup6\n        /* \"WandInstruments.sol\":10110:10118  decDiv18 */\n      tag_131\n        /* \"WandInstruments.sol\":10110:10163  decDiv18(this.getTokensBoughtXDays(),xDaysCircSupply) */\n      jump\t// in\n    tag_382:\n        /* \"WandInstruments.sol\":10104:10163  _gF = decDiv18(this.getTokensBoughtXDays(),xDaysCircSupply) */\n      swap5\n      pop\n        /* \"WandInstruments.sol\":10183:10201  300000000000000000 */\n      0x0429d069189e0000\n        /* \"WandInstruments.sol\":10177:10180  _gF */\n      dup6\n        /* \"WandInstruments.sol\":10177:10201  _gF > 300000000000000000 */\n      gt\n        /* \"WandInstruments.sol\":10173:10260  if (_gF > 300000000000000000)\r... */\n      iszero\n      tag_387\n      jumpi\n        /* \"WandInstruments.sol\":10231:10249  300000000000000000 */\n      0x0429d069189e0000\n        /* \"WandInstruments.sol\":10225:10249  _gF = 300000000000000000 */\n      swap5\n      pop\n        /* \"WandInstruments.sol\":10173:10260  if (_gF > 300000000000000000)\r... */\n    tag_387:\n        /* \"WandInstruments.sol\":10276:10279  _gF */\n      dup5\n        /* \"WandInstruments.sol\":10269:10279  return _gF */\n      swap6\n      pop\n      pop\n      pop\n      pop\n      pop\n      pop\n        /* \"WandInstruments.sol\":9385:10288  function getGrowthFactor() external view returns (uint256){\r... */\n      swap1\n      jump\t// out\n        /* \"WandInstruments.sol\":14615:14704  function whitelist(address _addr) public onlyOwner {  \r... */\n    tag_170:\n      pop\n      jump\t// out\n        /* \"WandInstruments.sol\":1854:1915  mapping (string => stableTokensParams) public stableERC20Info */\n    tag_175:\n      0x1a\n      dup2\n      dup1\n      mload\n      0x20\n      dup2\n      add\n      dup3\n      add\n      dup1\n      mload\n      dup5\n      dup3\n      mstore\n      0x20\n      dup4\n      add\n      0x20\n      dup6\n      add\n      keccak256\n      dup2\n      dup4\n      mstore\n      dup1\n      swap6\n      pop\n      pop\n      pop\n      pop\n      pop\n      pop\n      0x00\n      swap2\n      pop\n      swap1\n      pop\n      dup1\n      0x00\n      add\n      0x00\n      swap1\n      sload\n      swap1\n      0x0100\n      exp\n      swap1\n      div\n      0xffffffffffffffffffffffffffffffffffffffff\n      and\n      swap1\n      dup1\n      0x01\n      add\n      sload\n      swap1\n      pop\n      dup3\n      jump\t// out\n        /* \"WandInstruments.sol\":8845:9352  function claimLockedUSDC(address _claimant, string memory _stableChosen) public {\r... */\n    tag_182:\n        /* \"WandInstruments.sol\":8964:8983  withheldWithdrawals */\n      0x1b\n        /* \"WandInstruments.sol\":8964:8994  withheldWithdrawals[_claimant] */\n      0x00\n        /* \"WandInstruments.sol\":8984:8993  _claimant */\n      dup4\n        /* \"WandInstruments.sol\":8964:8994  withheldWithdrawals[_claimant] */\n      0xffffffffffffffffffffffffffffffffffffffff\n      and\n      0xffffffffffffffffffffffffffffffffffffffff\n      and\n      dup2\n      mstore\n      0x20\n      add\n      swap1\n      dup2\n      mstore\n      0x20\n      add\n      0x00\n      keccak256\n        /* \"WandInstruments.sol\":8964:9007  withheldWithdrawals[_claimant].timeUnlocked */\n      0x00\n      add\n      sload\n        /* \"WandInstruments.sol\":8945:8960  block.timestamp */\n      timestamp\n        /* \"WandInstruments.sol\":8945:9007  block.timestamp >= withheldWithdrawals[_claimant].timeUnlocked */\n      lt\n      iszero\n        /* \"WandInstruments.sol\":8936:9024  require (block.timestamp >= withheldWithdrawals[_claimant].timeUnlocked, \"Not unlocked\") */\n      tag_391\n      jumpi\n      mload(0x40)\n      0x08c379a000000000000000000000000000000000000000000000000000000000\n      dup2\n      mstore\n      0x04\n      add\n      tag_392\n      swap1\n      tag_393\n      jump\t// in\n    tag_392:\n      mload(0x40)\n      dup1\n      swap2\n      sub\n      swap1\n      revert\n    tag_391:\n        /* \"WandInstruments.sol\":9056:9071  stableERC20Info */\n      0x1a\n        /* \"WandInstruments.sol\":9072:9085  _stableChosen */\n      dup2\n        /* \"WandInstruments.sol\":9056:9086  stableERC20Info[_stableChosen] */\n      mload(0x40)\n      tag_394\n      swap2\n      swap1\n      tag_340\n      jump\t// in\n    tag_394:\n      swap1\n      dup2\n      mstore\n      0x20\n      add\n      mload(0x40)\n      dup1\n      swap2\n      sub\n      swap1\n      keccak256\n        /* \"WandInstruments.sol\":9056:9102  stableERC20Info[_stableChosen].contractAddress */\n      0x00\n      add\n      0x00\n      swap1\n      sload\n      swap1\n      0x0100\n      exp\n      swap1\n      div\n      0xffffffffffffffffffffffffffffffffffffffff\n      and\n        /* \"WandInstruments.sol\":9035:9046  tokenStable */\n      0x16\n      0x00\n        /* \"WandInstruments.sol\":9035:9103  tokenStable = IERC20(stableERC20Info[_stableChosen].contractAddress) */\n      0x0100\n      exp\n      dup2\n      sload\n      dup2\n      0xffffffffffffffffffffffffffffffffffffffff\n      mul\n      not\n      and\n      swap1\n      dup4\n      0xffffffffffffffffffffffffffffffffffffffff\n      and\n      mul\n      or\n      swap1\n      sstore\n      pop\n        /* \"WandInstruments.sol\":9185:9202  uint256 claimAmts */\n      0x00\n        /* \"WandInstruments.sol\":9225:9244  withheldWithdrawals */\n      0x1b\n        /* \"WandInstruments.sol\":9225:9255  withheldWithdrawals[_claimant] */\n      0x00\n        /* \"WandInstruments.sol\":9245:9254  _claimant */\n      dup5\n        /* \"WandInstruments.sol\":9225:9255  withheldWithdrawals[_claimant] */\n      0xffffffffffffffffffffffffffffffffffffffff\n      and\n      0xffffffffffffffffffffffffffffffffffffffff\n      and\n      dup2\n      mstore\n      0x20\n      add\n      swap1\n      dup2\n      mstore\n      0x20\n      add\n      0x00\n      keccak256\n        /* \"WandInstruments.sol\":9225:9263  withheldWithdrawals[_claimant].amounts */\n      0x01\n      add\n      sload\n        /* \"WandInstruments.sol\":9213:9263  claimAmts = withheldWithdrawals[_claimant].amounts */\n      swap1\n      pop\n        /* \"WandInstruments.sol\":9274:9342  _safeTransferFrom(tokenStable, address(this), msg.sender, claimAmts) */\n      tag_395\n        /* \"WandInstruments.sol\":9292:9303  tokenStable */\n      0x16\n      0x00\n      swap1\n      sload\n      swap1\n      0x0100\n      exp\n      swap1\n      div\n      0xffffffffffffffffffffffffffffffffffffffff\n      and\n        /* \"WandInstruments.sol\":9313:9317  this */\n      address\n        /* \"WandInstruments.sol\":9320:9330  msg.sender */\n      caller\n        /* \"WandInstruments.sol\":9332:9341  claimAmts */\n      dup5\n        /* \"WandInstruments.sol\":9274:9291  _safeTransferFrom */\n      tag_293\n        /* \"WandInstruments.sol\":9274:9342  _safeTransferFrom(tokenStable, address(this), msg.sender, claimAmts) */\n      jump\t// in\n    tag_395:\n        /* \"WandInstruments.sol\":8925:9352  {\r... */\n      pop\n        /* \"WandInstruments.sol\":8845:9352  function claimLockedUSDC(address _claimant, string memory _stableChosen) public {\r... */\n      pop\n      pop\n      jump\t// out\n        /* \"WandInstruments.sol\":614:648  address public scepterTreasuryAddr */\n    tag_185:\n      0x07\n      0x00\n      swap1\n      sload\n      swap1\n      0x0100\n      exp\n      swap1\n      div\n      0xffffffffffffffffffffffffffffffffffffffff\n      and\n      dup2\n      jump\t// out\n        /* \"WandInstruments.sol\":1440:1458  IERC20 public BTON */\n    tag_189:\n      0x15\n      0x00\n      swap1\n      sload\n      swap1\n      0x0100\n      exp\n      swap1\n      div\n      0xffffffffffffffffffffffffffffffffffffffff\n      and\n      dup2\n      jump\t// out\n        /* \"WandInstruments.sol\":5128:6852  function cashOutScepter(uint256 amountSCPtoSell, uint256 timeChosenLocked, string memory _stableChosen) public payable{\r... */\n    tag_194:\n        /* \"WandInstruments.sol\":5339:5354  stableERC20Info */\n      0x1a\n        /* \"WandInstruments.sol\":5355:5368  _stableChosen */\n      dup2\n        /* \"WandInstruments.sol\":5339:5369  stableERC20Info[_stableChosen] */\n      mload(0x40)\n      tag_397\n      swap2\n      swap1\n      tag_340\n      jump\t// in\n    tag_397:\n      swap1\n      dup2\n      mstore\n      0x20\n      add\n      mload(0x40)\n      dup1\n      swap2\n      sub\n      swap1\n      keccak256\n        /* \"WandInstruments.sol\":5339:5385  stableERC20Info[_stableChosen].contractAddress */\n      0x00\n      add\n      0x00\n      swap1\n      sload\n      swap1\n      0x0100\n      exp\n      swap1\n      div\n      0xffffffffffffffffffffffffffffffffffffffff\n      and\n        /* \"WandInstruments.sol\":5318:5329  tokenStable */\n      0x16\n      0x00\n        /* \"WandInstruments.sol\":5318:5386  tokenStable = IERC20(stableERC20Info[_stableChosen].contractAddress) */\n      0x0100\n      exp\n      dup2\n      sload\n      dup2\n      0xffffffffffffffffffffffffffffffffffffffff\n      mul\n      not\n      and\n      swap1\n      dup4\n      0xffffffffffffffffffffffffffffffffffffffff\n      and\n      mul\n      or\n      swap1\n      sstore\n      pop\n        /* \"WandInstruments.sol\":5397:5423  uint256 trader_tsc_balance */\n      0x00\n        /* \"WandInstruments.sol\":5426:5429  tSC */\n      0x12\n      0x00\n      swap1\n      sload\n      swap1\n      0x0100\n      exp\n      swap1\n      div\n      0xffffffffffffffffffffffffffffffffffffffff\n      and\n        /* \"WandInstruments.sol\":5426:5439  tSC.balanceOf */\n      0xffffffffffffffffffffffffffffffffffffffff\n      and\n      0x70a08231\n        /* \"WandInstruments.sol\":5440:5450  msg.sender */\n      caller\n        /* \"WandInstruments.sol\":5426:5451  tSC.balanceOf(msg.sender) */\n      mload(0x40)\n      dup3\n      0xffffffff\n      and\n      0xe0\n      shl\n      dup2\n      mstore\n      0x04\n      add\n      tag_398\n      swap2\n      swap1\n      tag_59\n      jump\t// in\n    tag_398:\n      0x20\n      mload(0x40)\n      dup1\n      dup4\n      sub\n      dup2\n      dup7\n      dup1\n      extcodesize\n      iszero\n      dup1\n      iszero\n      tag_399\n      jumpi\n      0x00\n      dup1\n      revert\n    tag_399:\n      pop\n      gas\n      staticcall\n      iszero\n      dup1\n      iszero\n      tag_401\n      jumpi\n      returndatasize\n      0x00\n      dup1\n      returndatacopy\n      revert(0x00, returndatasize)\n    tag_401:\n      pop\n      pop\n      pop\n      pop\n      mload(0x40)\n      returndatasize\n      not(0x1f)\n      0x1f\n      dup3\n      add\n      and\n      dup3\n      add\n      dup1\n      0x40\n      mstore\n      pop\n      dup2\n      add\n      swap1\n      tag_402\n      swap2\n      swap1\n      tag_239\n      jump\t// in\n    tag_402:\n        /* \"WandInstruments.sol\":5397:5451  uint256 trader_tsc_balance = tSC.balanceOf(msg.sender) */\n      swap1\n      pop\n        /* \"WandInstruments.sol\":5491:5506  amountSCPtoSell */\n      dup4\n        /* \"WandInstruments.sol\":5470:5488  trader_tsc_balance */\n      dup2\n        /* \"WandInstruments.sol\":5470:5506  trader_tsc_balance > amountSCPtoSell */\n      gt\n        /* \"WandInstruments.sol\":5462:5537  require(trader_tsc_balance > amountSCPtoSell, \"You dont have that amount!\") */\n      tag_403\n      jumpi\n      mload(0x40)\n      0x08c379a000000000000000000000000000000000000000000000000000000000\n      dup2\n      mstore\n      0x04\n      add\n      tag_404\n      swap1\n      tag_291\n      jump\t// in\n    tag_404:\n      mload(0x40)\n      dup1\n      swap2\n      sub\n      swap1\n      revert\n    tag_403:\n        /* \"WandInstruments.sol\":5739:5750  tokenStable */\n      0x16\n      0x00\n      swap1\n      sload\n      swap1\n      0x0100\n      exp\n      swap1\n      div\n      0xffffffffffffffffffffffffffffffffffffffff\n      and\n        /* \"WandInstruments.sol\":5739:5759  tokenStable.transfer */\n      0xffffffffffffffffffffffffffffffffffffffff\n      and\n      0xa9059cbb\n        /* \"WandInstruments.sol\":5760:5770  msg.sender */\n      caller\n        /* \"WandInstruments.sol\":316:322  10**18 */\n      0x0de0b6b3a7640000\n        /* \"WandInstruments.sol\":5791:5792  1 */\n      0x01\n        /* \"WandInstruments.sol\":5791:5803  1*(DECIMALS) */\n      tag_405\n      swap2\n      swap1\n      tag_357\n      jump\t// in\n    tag_405:\n        /* \"WandInstruments.sol\":5772:5787  amountSCPtoSell */\n      dup8\n        /* \"WandInstruments.sol\":5772:5804  amountSCPtoSell + (1*(DECIMALS)) */\n      tag_406\n      swap2\n      swap1\n      tag_245\n      jump\t// in\n    tag_406:\n        /* \"WandInstruments.sol\":5739:5805  tokenStable.transfer(msg.sender, amountSCPtoSell + (1*(DECIMALS))) */\n      mload(0x40)\n      dup4\n      0xffffffff\n      and\n      0xe0\n      shl\n      dup2\n      mstore\n      0x04\n      add\n      tag_407\n      swap3\n      swap2\n      swap1\n      tag_177\n      jump\t// in\n    tag_407:\n      0x20\n      mload(0x40)\n      dup1\n      dup4\n      sub\n      dup2\n      0x00\n      dup8\n      dup1\n      extcodesize\n      iszero\n      dup1\n      iszero\n      tag_408\n      jumpi\n      0x00\n      dup1\n      revert\n    tag_408:\n      pop\n      gas\n      call\n      iszero\n      dup1\n      iszero\n      tag_410\n      jumpi\n      returndatasize\n      0x00\n      dup1\n      returndatacopy\n      revert(0x00, returndatasize)\n    tag_410:\n      pop\n      pop\n      pop\n      pop\n      mload(0x40)\n      returndatasize\n      not(0x1f)\n      0x1f\n      dup3\n      add\n      and\n      dup3\n      add\n      dup1\n      0x40\n      mstore\n      pop\n      dup2\n      add\n      swap1\n      tag_411\n      swap2\n      swap1\n      tag_412\n      jump\t// in\n    tag_411:\n      pop\n        /* \"WandInstruments.sol\":5908:5974  _safeTransferFrom(tSC, msg.sender, address(this), amountSCPtoSell) */\n      tag_413\n        /* \"WandInstruments.sol\":5926:5929  tSC */\n      0x12\n      0x00\n      swap1\n      sload\n      swap1\n      0x0100\n      exp\n      swap1\n      div\n      0xffffffffffffffffffffffffffffffffffffffff\n      and\n        /* \"WandInstruments.sol\":5931:5941  msg.sender */\n      caller\n        /* \"WandInstruments.sol\":5951:5955  this */\n      address\n        /* \"WandInstruments.sol\":5958:5973  amountSCPtoSell */\n      dup8\n        /* \"WandInstruments.sol\":5908:5925  _safeTransferFrom */\n      tag_293\n        /* \"WandInstruments.sol\":5908:5974  _safeTransferFrom(tSC, msg.sender, address(this), amountSCPtoSell) */\n      jump\t// in\n    tag_413:\n        /* \"WandInstruments.sol\":5988:6003  uint256 usdcAmt */\n      0x00\n        /* \"WandInstruments.sol\":6050:6065  amountSCPtoSell */\n      dup5\n        /* \"WandInstruments.sol\":6028:6032  this */\n      address\n        /* \"WandInstruments.sol\":6028:6045  this.getSellPrice */\n      0xffffffffffffffffffffffffffffffffffffffff\n      and\n      0x43d32e9c\n        /* \"WandInstruments.sol\":6028:6047  this.getSellPrice() */\n      mload(0x40)\n      dup2\n      0xffffffff\n      and\n      0xe0\n      shl\n      dup2\n      mstore\n      0x04\n      add\n      0x20\n      mload(0x40)\n      dup1\n      dup4\n      sub\n      dup2\n      dup7\n      dup1\n      extcodesize\n      iszero\n      dup1\n      iszero\n      tag_414\n      jumpi\n      0x00\n      dup1\n      revert\n    tag_414:\n      pop\n      gas\n      staticcall\n      iszero\n      dup1\n      iszero\n      tag_416\n      jumpi\n      returndatasize\n      0x00\n      dup1\n      returndatacopy\n      revert(0x00, returndatasize)\n    tag_416:\n      pop\n      pop\n      pop\n      pop\n      mload(0x40)\n      returndatasize\n      not(0x1f)\n      0x1f\n      dup3\n      add\n      and\n      dup3\n      add\n      dup1\n      0x40\n      mstore\n      pop\n      dup2\n      add\n      swap1\n      tag_417\n      swap2\n      swap1\n      tag_239\n      jump\t// in\n    tag_417:\n        /* \"WandInstruments.sol\":6028:6065  this.getSellPrice() * amountSCPtoSell */\n      tag_418\n      swap2\n      swap1\n      tag_357\n      jump\t// in\n    tag_418:\n        /* \"WandInstruments.sol\":6018:6065  usdcAmt = this.getSellPrice() * amountSCPtoSell */\n      swap1\n      pop\n        /* \"WandInstruments.sol\":6340:6356  uint256 dInArray */\n      0x00\n        /* \"WandInstruments.sol\":6390:6395  86400 */\n      0x015180\n        /* \"WandInstruments.sol\":6376:6388  timeLaunched */\n      sload(0x0b)\n        /* \"WandInstruments.sol\":6359:6374  block.timestamp */\n      timestamp\n        /* \"WandInstruments.sol\":6359:6388  block.timestamp- timeLaunched */\n      tag_419\n      swap2\n      swap1\n      tag_250\n      jump\t// in\n    tag_419:\n        /* \"WandInstruments.sol\":6358:6395  (block.timestamp- timeLaunched)/86400 */\n      tag_420\n      swap2\n      swap1\n      tag_248\n      jump\t// in\n    tag_420:\n        /* \"WandInstruments.sol\":6340:6395  uint256 dInArray =(block.timestamp- timeLaunched)/86400 */\n      swap1\n      pop\n        /* \"WandInstruments.sol\":6436:6451  amountSCPtoSell */\n      dup6\n        /* \"WandInstruments.sol\":6407:6422  tokensSoldXDays */\n      0x18\n        /* \"WandInstruments.sol\":6407:6432  tokensSoldXDays[dInArray] */\n      0x00\n        /* \"WandInstruments.sol\":6423:6431  dInArray */\n      dup4\n        /* \"WandInstruments.sol\":6407:6432  tokensSoldXDays[dInArray] */\n      dup2\n      mstore\n      0x20\n      add\n      swap1\n      dup2\n      mstore\n      0x20\n      add\n      0x00\n      keccak256\n      0x00\n        /* \"WandInstruments.sol\":6407:6451  tokensSoldXDays[dInArray] += amountSCPtoSell */\n      dup3\n      dup3\n      sload\n      tag_421\n      swap2\n      swap1\n      tag_245\n      jump\t// in\n    tag_421:\n      swap3\n      pop\n      pop\n      dup2\n      swap1\n      sstore\n      pop\n        /* \"WandInstruments.sol\":6498:6513  amountSCPtoSell */\n      dup6\n        /* \"WandInstruments.sol\":6462:6484  circulatingSupplyXDays */\n      0x19\n        /* \"WandInstruments.sol\":6462:6494  circulatingSupplyXDays[dInArray] */\n      0x00\n        /* \"WandInstruments.sol\":6485:6493  dInArray */\n      dup4\n        /* \"WandInstruments.sol\":6462:6494  circulatingSupplyXDays[dInArray] */\n      dup2\n      mstore\n      0x20\n      add\n      swap1\n      dup2\n      mstore\n      0x20\n      add\n      0x00\n      keccak256\n      0x00\n        /* \"WandInstruments.sol\":6462:6513  circulatingSupplyXDays[dInArray] -= amountSCPtoSell */\n      dup3\n      dup3\n      sload\n      tag_422\n      swap2\n      swap1\n      tag_250\n      jump\t// in\n    tag_422:\n      swap3\n      pop\n      pop\n      dup2\n      swap1\n      sstore\n      pop\n        /* \"WandInstruments.sol\":5246:6852  {\r... */\n      pop\n      pop\n      pop\n        /* \"WandInstruments.sol\":5128:6852  function cashOutScepter(uint256 amountSCPtoSell, uint256 timeChosenLocked, string memory _stableChosen) public payable{\r... */\n      pop\n      pop\n      pop\n      jump\t// out\n        /* \"WandInstruments.sol\":365:390  uint256 public sellFactor */\n    tag_197:\n      sload(0x01)\n      dup2\n      jump\t// out\n        /* \"WandInstruments.sol\":1415:1433  IERC20 public WAND */\n    tag_201:\n      0x14\n      0x00\n      swap1\n      sload\n      swap1\n      0x0100\n      exp\n      swap1\n      div\n      0xffffffffffffffffffffffffffffffffffffffff\n      and\n      dup2\n      jump\t// out\n        /* \"WandInstruments.sol\":13880:14166  function getTokensSoldXDays() external view returns (uint256){\r... */\n    tag_205:\n        /* \"WandInstruments.sol\":13933:13940  uint256 */\n      0x00\n        /* \"WandInstruments.sol\":13952:13967  uint256 soldNum */\n      dup1\n        /* \"WandInstruments.sol\":13978:13987  uint256 d */\n      0x00\n        /* \"WandInstruments.sol\":13998:14013  uint256 numdays */\n      dup1\n        /* \"WandInstruments.sol\":14034:14039  86400 */\n      0x015180\n        /* \"WandInstruments.sol\":14016:14033  daysInCalculation */\n      sload(0x0c)\n        /* \"WandInstruments.sol\":14016:14039  daysInCalculation/86400 */\n      tag_424\n      swap2\n      swap1\n      tag_248\n      jump\t// in\n    tag_424:\n        /* \"WandInstruments.sol\":13998:14039  uint256 numdays = daysInCalculation/86400 */\n      swap1\n      pop\n        /* \"WandInstruments.sol\":14061:14062  0 */\n      0x00\n        /* \"WandInstruments.sol\":14057:14062  d = 0 */\n      swap2\n      pop\n        /* \"WandInstruments.sol\":14052:14135  for (d = 0; d < numdays; d++) { \r... */\n    tag_425:\n        /* \"WandInstruments.sol\":14068:14075  numdays */\n      dup1\n        /* \"WandInstruments.sol\":14064:14065  d */\n      dup3\n        /* \"WandInstruments.sol\":14064:14075  d < numdays */\n      lt\n        /* \"WandInstruments.sol\":14052:14135  for (d = 0; d < numdays; d++) { \r... */\n      iszero\n      tag_426\n      jumpi\n        /* \"WandInstruments.sol\":14107:14122  tokensSoldXDays */\n      0x18\n        /* \"WandInstruments.sol\":14107:14125  tokensSoldXDays[d] */\n      0x00\n        /* \"WandInstruments.sol\":14123:14124  d */\n      dup4\n        /* \"WandInstruments.sol\":14107:14125  tokensSoldXDays[d] */\n      dup2\n      mstore\n      0x20\n      add\n      swap1\n      dup2\n      mstore\n      0x20\n      add\n      0x00\n      keccak256\n      sload\n        /* \"WandInstruments.sol\":14096:14125  soldNum += tokensSoldXDays[d] */\n      dup4\n      tag_428\n      swap2\n      swap1\n      tag_245\n      jump\t// in\n    tag_428:\n      swap3\n      pop\n        /* \"WandInstruments.sol\":14077:14080  d++ */\n      dup2\n      dup1\n      tag_429\n      swap1\n      tag_260\n      jump\t// in\n    tag_429:\n      swap3\n      pop\n      pop\n        /* \"WandInstruments.sol\":14052:14135  for (d = 0; d < numdays; d++) { \r... */\n      jump(tag_425)\n    tag_426:\n        /* \"WandInstruments.sol\":14151:14158  soldNum */\n      dup3\n        /* \"WandInstruments.sol\":14144:14158  return soldNum */\n      swap4\n      pop\n      pop\n      pop\n      pop\n        /* \"WandInstruments.sol\":13880:14166  function getTokensSoldXDays() external view returns (uint256){\r... */\n      swap1\n      jump\t// out\n        /* \"WandInstruments.sol\":14712:14931  function addStable(string memory _ticker, address _addr, uint256 _dec) public onlyOwner {\r... */\n    tag_211:\n        /* \"WandInstruments.sol\":14860:14865  _addr */\n      dup2\n        /* \"WandInstruments.sol\":14817:14832  stableERC20Info */\n      0x1a\n        /* \"WandInstruments.sol\":14833:14840  _ticker */\n      dup5\n        /* \"WandInstruments.sol\":14817:14841  stableERC20Info[_ticker] */\n      mload(0x40)\n      tag_432\n      swap2\n      swap1\n      tag_340\n      jump\t// in\n    tag_432:\n      swap1\n      dup2\n      mstore\n      0x20\n      add\n      mload(0x40)\n      dup1\n      swap2\n      sub\n      swap1\n      keccak256\n        /* \"WandInstruments.sol\":14817:14857  stableERC20Info[_ticker].contractAddress */\n      0x00\n      add\n      0x00\n        /* \"WandInstruments.sol\":14817:14865  stableERC20Info[_ticker].contractAddress = _addr */\n      0x0100\n      exp\n      dup2\n      sload\n      dup2\n      0xffffffffffffffffffffffffffffffffffffffff\n      mul\n      not\n      and\n      swap1\n      dup4\n      0xffffffffffffffffffffffffffffffffffffffff\n      and\n      mul\n      or\n      swap1\n      sstore\n      pop\n        /* \"WandInstruments.sol\":14917:14921  _dec */\n      dup1\n        /* \"WandInstruments.sol\":14876:14891  stableERC20Info */\n      0x1a\n        /* \"WandInstruments.sol\":14892:14899  _ticker */\n      dup5\n        /* \"WandInstruments.sol\":14876:14900  stableERC20Info[_ticker] */\n      mload(0x40)\n      tag_433\n      swap2\n      swap1\n      tag_340\n      jump\t// in\n    tag_433:\n      swap1\n      dup2\n      mstore\n      0x20\n      add\n      mload(0x40)\n      dup1\n      swap2\n      sub\n      swap1\n      keccak256\n        /* \"WandInstruments.sol\":14876:14914  stableERC20Info[_ticker].tokenDecimals */\n      0x01\n      add\n        /* \"WandInstruments.sol\":14876:14921  stableERC20Info[_ticker].tokenDecimals = _dec */\n      dup2\n      swap1\n      sstore\n      pop\n        /* \"WandInstruments.sol\":14712:14931  function addStable(string memory _ticker, address _addr, uint256 _dec) public onlyOwner {\r... */\n      pop\n      pop\n      pop\n      jump\t// out\n        /* \"WandInstruments.sol\":331:358  uint256 public growthFactor */\n    tag_214:\n      sload(0x00)\n      dup2\n      jump\t// out\n        /* \"WandInstruments.sol\":1146:1216  address public testwallet = 0x617F2E2fD72FD9D5503197092aC168c91465E7f2 */\n    tag_218:\n      0x11\n      0x00\n      swap1\n      sload\n      swap1\n      0x0100\n      exp\n      swap1\n      div\n      0xffffffffffffffffffffffffffffffffffffffff\n      and\n      dup2\n      jump\t// out\n        /* \"WandInstruments.sol\":4414:4584  function decMul18(uint x, uint y) public pure returns (uint decProd) {\r... */\n    tag_223:\n        /* \"WandInstruments.sol\":4469:4481  uint decProd */\n      0x00\n        /* \"WandInstruments.sol\":4494:4506  uint prod_xy */\n      dup1\n        /* \"WandInstruments.sol\":4509:4518  mul(x, y) */\n      tag_435\n        /* \"WandInstruments.sol\":4513:4514  x */\n      dup5\n        /* \"WandInstruments.sol\":4516:4517  y */\n      dup5\n        /* \"WandInstruments.sol\":4509:4512  mul */\n      tag_319\n        /* \"WandInstruments.sol\":4509:4518  mul(x, y) */\n      jump\t// in\n    tag_435:\n        /* \"WandInstruments.sol\":4494:4518  uint prod_xy = mul(x, y) */\n      swap1\n      pop\n        /* \"WandInstruments.sol\":316:322  10**18 */\n      0x0de0b6b3a7640000\n        /* \"WandInstruments.sol\":4539:4565  add(prod_xy, DECIMALS / 2) */\n      tag_436\n        /* \"WandInstruments.sol\":4543:4550  prod_xy */\n      dup3\n        /* \"WandInstruments.sol\":4563:4564  2 */\n      0x02\n        /* \"WandInstruments.sol\":316:322  10**18 */\n      0x0de0b6b3a7640000\n        /* \"WandInstruments.sol\":4552:4564  DECIMALS / 2 */\n      tag_437\n      swap2\n      swap1\n      tag_248\n      jump\t// in\n    tag_437:\n        /* \"WandInstruments.sol\":4539:4542  add */\n      tag_322\n        /* \"WandInstruments.sol\":4539:4565  add(prod_xy, DECIMALS / 2) */\n      jump\t// in\n    tag_436:\n        /* \"WandInstruments.sol\":4539:4576  add(prod_xy, DECIMALS / 2) / DECIMALS */\n      tag_438\n      swap2\n      swap1\n      tag_248\n      jump\t// in\n    tag_438:\n        /* \"WandInstruments.sol\":4529:4576  decProd = add(prod_xy, DECIMALS / 2) / DECIMALS */\n      swap2\n      pop\n        /* \"WandInstruments.sol\":4483:4584  {\r... */\n      pop\n        /* \"WandInstruments.sol\":4414:4584  function decMul18(uint x, uint y) public pure returns (uint decProd) {\r... */\n      swap3\n      swap2\n      pop\n      pop\n      jump\t// out\n        /* \"WandInstruments.sol\":579:607  address public treasury1Addr */\n    tag_227:\n      0x06\n      0x00\n      swap1\n      sload\n      swap1\n      0x0100\n      exp\n      swap1\n      div\n      0xffffffffffffffffffffffffffffffffffffffff\n      and\n      dup2\n      jump\t// out\n        /* \"WandInstruments.sol\":11997:12153  function setDaysUsedInFactors(uint256 numDays) public {  \r... */\n    tag_232:\n        /* \"WandInstruments.sol\":12130:12135  86400 */\n      0x015180\n        /* \"WandInstruments.sol\":12120:12127  numDays */\n      dup2\n        /* \"WandInstruments.sol\":12120:12135  numDays * 86400 */\n      tag_440\n      swap2\n      swap1\n      tag_357\n      jump\t// in\n    tag_440:\n        /* \"WandInstruments.sol\":12100:12117  daysInCalculation */\n      0x0c\n        /* \"WandInstruments.sol\":12100:12135  daysInCalculation = numDays * 86400 */\n      dup2\n      swap1\n      sstore\n      pop\n        /* \"WandInstruments.sol\":11997:12153  function setDaysUsedInFactors(uint256 numDays) public {  \r... */\n      pop\n      jump\t// out\n        /* \"WandInstruments.sol\":14943:15205  function _safeTransferFrom(\r... */\n    tag_293:\n        /* \"WandInstruments.sol\":15091:15100  bool sent */\n      0x00\n        /* \"WandInstruments.sol\":15103:15108  token */\n      dup5\n        /* \"WandInstruments.sol\":15103:15121  token.transferFrom */\n      0xffffffffffffffffffffffffffffffffffffffff\n      and\n      0x23b872dd\n        /* \"WandInstruments.sol\":15122:15128  sender */\n      dup6\n        /* \"WandInstruments.sol\":15130:15139  recipient */\n      dup6\n        /* \"WandInstruments.sol\":15141:15147  amount */\n      dup6\n        /* \"WandInstruments.sol\":15103:15148  token.transferFrom(sender, recipient, amount) */\n      mload(0x40)\n      dup5\n      0xffffffff\n      and\n      0xe0\n      shl\n      dup2\n      mstore\n      0x04\n      add\n      tag_442\n      swap4\n      swap3\n      swap2\n      swap1\n      tag_443\n      jump\t// in\n    tag_442:\n      0x20\n      mload(0x40)\n      dup1\n      dup4\n      sub\n      dup2\n      0x00\n      dup8\n      dup1\n      extcodesize\n      iszero\n      dup1\n      iszero\n      tag_444\n      jumpi\n      0x00\n      dup1\n      revert\n    tag_444:\n      pop\n      gas\n      call\n      iszero\n      dup1\n      iszero\n      tag_446\n      jumpi\n      returndatasize\n      0x00\n      dup1\n      returndatacopy\n      revert(0x00, returndatasize)\n    tag_446:\n      pop\n      pop\n      pop\n      pop\n      mload(0x40)\n      returndatasize\n      not(0x1f)\n      0x1f\n      dup3\n      add\n      and\n      dup3\n      add\n      dup1\n      0x40\n      mstore\n      pop\n      dup2\n      add\n      swap1\n      tag_447\n      swap2\n      swap1\n      tag_412\n      jump\t// in\n    tag_447:\n        /* \"WandInstruments.sol\":15091:15148  bool sent = token.transferFrom(sender, recipient, amount) */\n      swap1\n      pop\n        /* \"WandInstruments.sol\":15167:15171  sent */\n      dup1\n        /* \"WandInstruments.sol\":15159:15197  require(sent, \"Token transfer failed\") */\n      tag_448\n      jumpi\n      mload(0x40)\n      0x08c379a000000000000000000000000000000000000000000000000000000000\n      dup2\n      mstore\n      0x04\n      add\n      tag_449\n      swap1\n      tag_450\n      jump\t// in\n    tag_449:\n      mload(0x40)\n      dup1\n      swap2\n      sub\n      swap1\n      revert\n    tag_448:\n        /* \"WandInstruments.sol\":15080:15205  {\r... */\n      pop\n        /* \"WandInstruments.sol\":14943:15205  function _safeTransferFrom(\r... */\n      pop\n      pop\n      pop\n      pop\n      jump\t// out\n        /* \"WandInstruments.sol\":3599:3841  function mul(uint256 a, uint256 b) internal pure returns (uint256) {\r... */\n    tag_319:\n        /* \"WandInstruments.sol\":3657:3664  uint256 */\n      0x00\n        /* \"WandInstruments.sol\":3686:3687  0 */\n      dup1\n        /* \"WandInstruments.sol\":3681:3682  a */\n      dup4\n        /* \"WandInstruments.sol\":3681:3687  a == 0 */\n      eq\n        /* \"WandInstruments.sol\":3677:3720  if (a == 0) {\r... */\n      iszero\n      tag_452\n      jumpi\n        /* \"WandInstruments.sol\":3707:3708  0 */\n      0x00\n        /* \"WandInstruments.sol\":3700:3708  return 0 */\n      swap1\n      pop\n      jump(tag_451)\n        /* \"WandInstruments.sol\":3677:3720  if (a == 0) {\r... */\n    tag_452:\n        /* \"WandInstruments.sol\":3730:3739  uint256 c */\n      0x00\n        /* \"WandInstruments.sol\":3746:3747  b */\n      dup3\n        /* \"WandInstruments.sol\":3742:3743  a */\n      dup5\n        /* \"WandInstruments.sol\":3742:3747  a * b */\n      tag_453\n      swap2\n      swap1\n      tag_357\n      jump\t// in\n    tag_453:\n        /* \"WandInstruments.sol\":3730:3747  uint256 c = a * b */\n      swap1\n      pop\n        /* \"WandInstruments.sol\":3775:3776  b */\n      dup3\n        /* \"WandInstruments.sol\":3770:3771  a */\n      dup5\n        /* \"WandInstruments.sol\":3766:3767  c */\n      dup3\n        /* \"WandInstruments.sol\":3766:3771  c / a */\n      tag_454\n      swap2\n      swap1\n      tag_248\n      jump\t// in\n    tag_454:\n        /* \"WandInstruments.sol\":3766:3776  c / a == b */\n      eq\n        /* \"WandInstruments.sol\":3758:3814  require(c / a == b, \"uint overflow from multiplication\") */\n      tag_455\n      jumpi\n      mload(0x40)\n      0x08c379a000000000000000000000000000000000000000000000000000000000\n      dup2\n      mstore\n      0x04\n      add\n      tag_456\n      swap1\n      tag_457\n      jump\t// in\n    tag_456:\n      mload(0x40)\n      dup1\n      swap2\n      sub\n      swap1\n      revert\n    tag_455:\n        /* \"WandInstruments.sol\":3832:3833  c */\n      dup1\n        /* \"WandInstruments.sol\":3825:3833  return c */\n      swap2\n      pop\n      pop\n        /* \"WandInstruments.sol\":3599:3841  function mul(uint256 a, uint256 b) internal pure returns (uint256) {\r... */\n    tag_451:\n      swap3\n      swap2\n      pop\n      pop\n      jump\t// out\n        /* \"WandInstruments.sol\":4217:4402  function add(uint256 a, uint256 b) internal pure returns (uint256) {\r... */\n    tag_322:\n        /* \"WandInstruments.sol\":4275:4282  uint256 */\n      0x00\n        /* \"WandInstruments.sol\":4295:4304  uint256 c */\n      dup1\n        /* \"WandInstruments.sol\":4311:4312  b */\n      dup3\n        /* \"WandInstruments.sol\":4307:4308  a */\n      dup5\n        /* \"WandInstruments.sol\":4307:4312  a + b */\n      tag_459\n      swap2\n      swap1\n      tag_245\n      jump\t// in\n    tag_459:\n        /* \"WandInstruments.sol\":4295:4312  uint256 c = a + b */\n      swap1\n      pop\n        /* \"WandInstruments.sol\":4336:4337  a */\n      dup4\n        /* \"WandInstruments.sol\":4331:4332  c */\n      dup2\n        /* \"WandInstruments.sol\":4331:4337  c >= a */\n      lt\n      iszero\n        /* \"WandInstruments.sol\":4323:4375  require(c >= a, \"uint overflow from multiplication\") */\n      tag_460\n      jumpi\n      mload(0x40)\n      0x08c379a000000000000000000000000000000000000000000000000000000000\n      dup2\n      mstore\n      0x04\n      add\n      tag_461\n      swap1\n      tag_457\n      jump\t// in\n    tag_461:\n      mload(0x40)\n      dup1\n      swap2\n      sub\n      swap1\n      revert\n    tag_460:\n        /* \"WandInstruments.sol\":4393:4394  c */\n      dup1\n        /* \"WandInstruments.sol\":4386:4394  return c */\n      swap2\n      pop\n      pop\n        /* \"WandInstruments.sol\":4217:4402  function add(uint256 a, uint256 b) internal pure returns (uint256) {\r... */\n      swap3\n      swap2\n      pop\n      pop\n      jump\t// out\n        /* \"#utility.yul\":7:419   */\n    tag_463:\n        /* \"#utility.yul\":85:90   */\n      0x00\n        /* \"#utility.yul\":110:176   */\n      tag_465\n        /* \"#utility.yul\":126:175   */\n      tag_466\n        /* \"#utility.yul\":168:174   */\n      dup5\n        /* \"#utility.yul\":126:175   */\n      tag_467\n      jump\t// in\n    tag_466:\n        /* \"#utility.yul\":110:176   */\n      tag_468\n      jump\t// in\n    tag_465:\n        /* \"#utility.yul\":101:176   */\n      swap1\n      pop\n        /* \"#utility.yul\":199:205   */\n      dup3\n        /* \"#utility.yul\":192:197   */\n      dup2\n        /* \"#utility.yul\":185:206   */\n      mstore\n        /* \"#utility.yul\":237:241   */\n      0x20\n        /* \"#utility.yul\":230:235   */\n      dup2\n        /* \"#utility.yul\":226:242   */\n      add\n        /* \"#utility.yul\":275:278   */\n      dup5\n        /* \"#utility.yul\":266:272   */\n      dup5\n        /* \"#utility.yul\":261:264   */\n      dup5\n        /* \"#utility.yul\":257:273   */\n      add\n        /* \"#utility.yul\":254:279   */\n      gt\n        /* \"#utility.yul\":251:363   */\n      iszero\n      tag_469\n      jumpi\n        /* \"#utility.yul\":282:361   */\n      tag_470\n      tag_471\n      jump\t// in\n    tag_470:\n        /* \"#utility.yul\":251:363   */\n    tag_469:\n        /* \"#utility.yul\":372:413   */\n      tag_472\n        /* \"#utility.yul\":406:412   */\n      dup5\n        /* \"#utility.yul\":401:404   */\n      dup3\n        /* \"#utility.yul\":396:399   */\n      dup6\n        /* \"#utility.yul\":372:413   */\n      tag_473\n      jump\t// in\n    tag_472:\n        /* \"#utility.yul\":91:419   */\n      pop\n        /* \"#utility.yul\":7:419   */\n      swap4\n      swap3\n      pop\n      pop\n      pop\n      jump\t// out\n        /* \"#utility.yul\":425:564   */\n    tag_474:\n        /* \"#utility.yul\":471:476   */\n      0x00\n        /* \"#utility.yul\":509:515   */\n      dup2\n        /* \"#utility.yul\":496:516   */\n      calldataload\n        /* \"#utility.yul\":487:516   */\n      swap1\n      pop\n        /* \"#utility.yul\":525:558   */\n      tag_476\n        /* \"#utility.yul\":552:557   */\n      dup2\n        /* \"#utility.yul\":525:558   */\n      tag_477\n      jump\t// in\n    tag_476:\n        /* \"#utility.yul\":425:564   */\n      swap3\n      swap2\n      pop\n      pop\n      jump\t// out\n        /* \"#utility.yul\":570:707   */\n    tag_478:\n        /* \"#utility.yul\":624:629   */\n      0x00\n        /* \"#utility.yul\":655:661   */\n      dup2\n        /* \"#utility.yul\":649:662   */\n      mload\n        /* \"#utility.yul\":640:662   */\n      swap1\n      pop\n        /* \"#utility.yul\":671:701   */\n      tag_480\n        /* \"#utility.yul\":695:700   */\n      dup2\n        /* \"#utility.yul\":671:701   */\n      tag_481\n      jump\t// in\n    tag_480:\n        /* \"#utility.yul\":570:707   */\n      swap3\n      swap2\n      pop\n      pop\n      jump\t// out\n        /* \"#utility.yul\":727:1067   */\n    tag_482:\n        /* \"#utility.yul\":783:788   */\n      0x00\n        /* \"#utility.yul\":832:835   */\n      dup3\n        /* \"#utility.yul\":825:829   */\n      0x1f\n        /* \"#utility.yul\":817:823   */\n      dup4\n        /* \"#utility.yul\":813:830   */\n      add\n        /* \"#utility.yul\":809:836   */\n      slt\n        /* \"#utility.yul\":799:921   */\n      tag_484\n      jumpi\n        /* \"#utility.yul\":840:919   */\n      tag_485\n      tag_486\n      jump\t// in\n    tag_485:\n        /* \"#utility.yul\":799:921   */\n    tag_484:\n        /* \"#utility.yul\":957:963   */\n      dup2\n        /* \"#utility.yul\":944:964   */\n      calldataload\n        /* \"#utility.yul\":982:1061   */\n      tag_487\n        /* \"#utility.yul\":1057:1060   */\n      dup5\n        /* \"#utility.yul\":1049:1055   */\n      dup3\n        /* \"#utility.yul\":1042:1046   */\n      0x20\n        /* \"#utility.yul\":1034:1040   */\n      dup7\n        /* \"#utility.yul\":1030:1047   */\n      add\n        /* \"#utility.yul\":982:1061   */\n      tag_463\n      jump\t// in\n    tag_487:\n        /* \"#utility.yul\":973:1061   */\n      swap2\n      pop\n        /* \"#utility.yul\":789:1067   */\n      pop\n        /* \"#utility.yul\":727:1067   */\n      swap3\n      swap2\n      pop\n      pop\n      jump\t// out\n        /* \"#utility.yul\":1073:1212   */\n    tag_488:\n        /* \"#utility.yul\":1119:1124   */\n      0x00\n        /* \"#utility.yul\":1157:1163   */\n      dup2\n        /* \"#utility.yul\":1144:1164   */\n      calldataload\n        /* \"#utility.yul\":1135:1164   */\n      swap1\n      pop\n        /* \"#utility.yul\":1173:1206   */\n      tag_490\n        /* \"#utility.yul\":1200:1205   */\n      dup2\n        /* \"#utility.yul\":1173:1206   */\n      tag_491\n      jump\t// in\n    tag_490:\n        /* \"#utility.yul\":1073:1212   */\n      swap3\n      swap2\n      pop\n      pop\n      jump\t// out\n        /* \"#utility.yul\":1218:1361   */\n    tag_492:\n        /* \"#utility.yul\":1275:1280   */\n      0x00\n        /* \"#utility.yul\":1306:1312   */\n      dup2\n        /* \"#utility.yul\":1300:1313   */\n      mload\n        /* \"#utility.yul\":1291:1313   */\n      swap1\n      pop\n        /* \"#utility.yul\":1322:1355   */\n      tag_494\n        /* \"#utility.yul\":1349:1354   */\n      dup2\n        /* \"#utility.yul\":1322:1355   */\n      tag_491\n      jump\t// in\n    tag_494:\n        /* \"#utility.yul\":1218:1361   */\n      swap3\n      swap2\n      pop\n      pop\n      jump\t// out\n        /* \"#utility.yul\":1367:1696   */\n    tag_71:\n        /* \"#utility.yul\":1426:1432   */\n      0x00\n        /* \"#utility.yul\":1475:1477   */\n      0x20\n        /* \"#utility.yul\":1463:1472   */\n      dup3\n        /* \"#utility.yul\":1454:1461   */\n      dup5\n        /* \"#utility.yul\":1450:1473   */\n      sub\n        /* \"#utility.yul\":1446:1478   */\n      slt\n        /* \"#utility.yul\":1443:1562   */\n      iszero\n      tag_496\n      jumpi\n        /* \"#utility.yul\":1481:1560   */\n      tag_497\n      tag_498\n      jump\t// in\n    tag_497:\n        /* \"#utility.yul\":1443:1562   */\n    tag_496:\n        /* \"#utility.yul\":1601:1602   */\n      0x00\n        /* \"#utility.yul\":1626:1679   */\n      tag_499\n        /* \"#utility.yul\":1671:1678   */\n      dup5\n        /* \"#utility.yul\":1662:1668   */\n      dup3\n        /* \"#utility.yul\":1651:1660   */\n      dup6\n        /* \"#utility.yul\":1647:1669   */\n      add\n        /* \"#utility.yul\":1626:1679   */\n      tag_474\n      jump\t// in\n    tag_499:\n        /* \"#utility.yul\":1616:1679   */\n      swap2\n      pop\n        /* \"#utility.yul\":1572:1689   */\n      pop\n        /* \"#utility.yul\":1367:1696   */\n      swap3\n      swap2\n      pop\n      pop\n      jump\t// out\n        /* \"#utility.yul\":1702:2356   */\n    tag_181:\n        /* \"#utility.yul\":1780:1786   */\n      0x00\n        /* \"#utility.yul\":1788:1794   */\n      dup1\n        /* \"#utility.yul\":1837:1839   */\n      0x40\n        /* \"#utility.yul\":1825:1834   */\n      dup4\n        /* \"#utility.yul\":1816:1823   */\n      dup6\n        /* \"#utility.yul\":1812:1835   */\n      sub\n        /* \"#utility.yul\":1808:1840   */\n      slt\n        /* \"#utility.yul\":1805:1924   */\n      iszero\n      tag_501\n      jumpi\n        /* \"#utility.yul\":1843:1922   */\n      tag_502\n      tag_498\n      jump\t// in\n    tag_502:\n        /* \"#utility.yul\":1805:1924   */\n    tag_501:\n        /* \"#utility.yul\":1963:1964   */\n      0x00\n        /* \"#utility.yul\":1988:2041   */\n      tag_503\n        /* \"#utility.yul\":2033:2040   */\n      dup6\n        /* \"#utility.yul\":2024:2030   */\n      dup3\n        /* \"#utility.yul\":2013:2022   */\n      dup7\n        /* \"#utility.yul\":2009:2031   */\n      add\n        /* \"#utility.yul\":1988:2041   */\n      tag_474\n      jump\t// in\n    tag_503:\n        /* \"#utility.yul\":1978:2041   */\n      swap3\n      pop\n        /* \"#utility.yul\":1934:2051   */\n      pop\n        /* \"#utility.yul\":2118:2120   */\n      0x20\n        /* \"#utility.yul\":2107:2116   */\n      dup4\n        /* \"#utility.yul\":2103:2121   */\n      add\n        /* \"#utility.yul\":2090:2122   */\n      calldataload\n        /* \"#utility.yul\":2149:2167   */\n      0xffffffffffffffff\n        /* \"#utility.yul\":2141:2147   */\n      dup2\n        /* \"#utility.yul\":2138:2168   */\n      gt\n        /* \"#utility.yul\":2135:2252   */\n      iszero\n      tag_504\n      jumpi\n        /* \"#utility.yul\":2171:2250   */\n      tag_505\n      tag_506\n      jump\t// in\n    tag_505:\n        /* \"#utility.yul\":2135:2252   */\n    tag_504:\n        /* \"#utility.yul\":2276:2339   */\n      tag_507\n        /* \"#utility.yul\":2331:2338   */\n      dup6\n        /* \"#utility.yul\":2322:2328   */\n      dup3\n        /* \"#utility.yul\":2311:2320   */\n      dup7\n        /* \"#utility.yul\":2307:2329   */\n      add\n        /* \"#utility.yul\":2276:2339   */\n      tag_482\n      jump\t// in\n    tag_507:\n        /* \"#utility.yul\":2266:2339   */\n      swap2\n      pop\n        /* \"#utility.yul\":2061:2349   */\n      pop\n        /* \"#utility.yul\":1702:2356   */\n      swap3\n      pop\n      swap3\n      swap1\n      pop\n      jump\t// out\n        /* \"#utility.yul\":2362:2707   */\n    tag_412:\n        /* \"#utility.yul\":2429:2435   */\n      0x00\n        /* \"#utility.yul\":2478:2480   */\n      0x20\n        /* \"#utility.yul\":2466:2475   */\n      dup3\n        /* \"#utility.yul\":2457:2464   */\n      dup5\n        /* \"#utility.yul\":2453:2476   */\n      sub\n        /* \"#utility.yul\":2449:2481   */\n      slt\n        /* \"#utility.yul\":2446:2565   */\n      iszero\n      tag_509\n      jumpi\n        /* \"#utility.yul\":2484:2563   */\n      tag_510\n      tag_498\n      jump\t// in\n    tag_510:\n        /* \"#utility.yul\":2446:2565   */\n    tag_509:\n        /* \"#utility.yul\":2604:2605   */\n      0x00\n        /* \"#utility.yul\":2629:2690   */\n      tag_511\n        /* \"#utility.yul\":2682:2689   */\n      dup5\n        /* \"#utility.yul\":2673:2679   */\n      dup3\n        /* \"#utility.yul\":2662:2671   */\n      dup6\n        /* \"#utility.yul\":2658:2680   */\n      add\n        /* \"#utility.yul\":2629:2690   */\n      tag_478\n      jump\t// in\n    tag_511:\n        /* \"#utility.yul\":2619:2690   */\n      swap2\n      pop\n        /* \"#utility.yul\":2575:2700   */\n      pop\n        /* \"#utility.yul\":2362:2707   */\n      swap3\n      swap2\n      pop\n      pop\n      jump\t// out\n        /* \"#utility.yul\":2713:3222   */\n    tag_174:\n        /* \"#utility.yul\":2782:2788   */\n      0x00\n        /* \"#utility.yul\":2831:2833   */\n      0x20\n        /* \"#utility.yul\":2819:2828   */\n      dup3\n        /* \"#utility.yul\":2810:2817   */\n      dup5\n        /* \"#utility.yul\":2806:2829   */\n      sub\n        /* \"#utility.yul\":2802:2834   */\n      slt\n        /* \"#utility.yul\":2799:2918   */\n      iszero\n      tag_513\n      jumpi\n        /* \"#utility.yul\":2837:2916   */\n      tag_514\n      tag_498\n      jump\t// in\n    tag_514:\n        /* \"#utility.yul\":2799:2918   */\n    tag_513:\n        /* \"#utility.yul\":2985:2986   */\n      0x00\n        /* \"#utility.yul\":2974:2983   */\n      dup3\n        /* \"#utility.yul\":2970:2987   */\n      add\n        /* \"#utility.yul\":2957:2988   */\n      calldataload\n        /* \"#utility.yul\":3015:3033   */\n      0xffffffffffffffff\n        /* \"#utility.yul\":3007:3013   */\n      dup2\n        /* \"#utility.yul\":3004:3034   */\n      gt\n        /* \"#utility.yul\":3001:3118   */\n      iszero\n      tag_515\n      jumpi\n        /* \"#utility.yul\":3037:3116   */\n      tag_516\n      tag_506\n      jump\t// in\n    tag_516:\n        /* \"#utility.yul\":3001:3118   */\n    tag_515:\n        /* \"#utility.yul\":3142:3205   */\n      tag_517\n        /* \"#utility.yul\":3197:3204   */\n      dup5\n        /* \"#utility.yul\":3188:3194   */\n      dup3\n        /* \"#utility.yul\":3177:3186   */\n      dup6\n        /* \"#utility.yul\":3173:3195   */\n      add\n        /* \"#utility.yul\":3142:3205   */\n      tag_482\n      jump\t// in\n    tag_517:\n        /* \"#utility.yul\":3132:3205   */\n      swap2\n      pop\n        /* \"#utility.yul\":2928:3215   */\n      pop\n        /* \"#utility.yul\":2713:3222   */\n      swap3\n      swap2\n      pop\n      pop\n      jump\t// out\n        /* \"#utility.yul\":3228:4027   */\n    tag_210:\n        /* \"#utility.yul\":3315:3321   */\n      0x00\n        /* \"#utility.yul\":3323:3329   */\n      dup1\n        /* \"#utility.yul\":3331:3337   */\n      0x00\n        /* \"#utility.yul\":3380:3382   */\n      0x60\n        /* \"#utility.yul\":3368:3377   */\n      dup5\n        /* \"#utility.yul\":3359:3366   */\n      dup7\n        /* \"#utility.yul\":3355:3378   */\n      sub\n        /* \"#utility.yul\":3351:3383   */\n      slt\n        /* \"#utility.yul\":3348:3467   */\n      iszero\n      tag_519\n      jumpi\n        /* \"#utility.yul\":3386:3465   */\n      tag_520\n      tag_498\n      jump\t// in\n    tag_520:\n        /* \"#utility.yul\":3348:3467   */\n    tag_519:\n        /* \"#utility.yul\":3534:3535   */\n      0x00\n        /* \"#utility.yul\":3523:3532   */\n      dup5\n        /* \"#utility.yul\":3519:3536   */\n      add\n        /* \"#utility.yul\":3506:3537   */\n      calldataload\n        /* \"#utility.yul\":3564:3582   */\n      0xffffffffffffffff\n        /* \"#utility.yul\":3556:3562   */\n      dup2\n        /* \"#utility.yul\":3553:3583   */\n      gt\n        /* \"#utility.yul\":3550:3667   */\n      iszero\n      tag_521\n      jumpi\n        /* \"#utility.yul\":3586:3665   */\n      tag_522\n      tag_506\n      jump\t// in\n    tag_522:\n        /* \"#utility.yul\":3550:3667   */\n    tag_521:\n        /* \"#utility.yul\":3691:3754   */\n      tag_523\n        /* \"#utility.yul\":3746:3753   */\n      dup7\n        /* \"#utility.yul\":3737:3743   */\n      dup3\n        /* \"#utility.yul\":3726:3735   */\n      dup8\n        /* \"#utility.yul\":3722:3744   */\n      add\n        /* \"#utility.yul\":3691:3754   */\n      tag_482\n      jump\t// in\n    tag_523:\n        /* \"#utility.yul\":3681:3754   */\n      swap4\n      pop\n        /* \"#utility.yul\":3477:3764   */\n      pop\n        /* \"#utility.yul\":3803:3805   */\n      0x20\n        /* \"#utility.yul\":3829:3882   */\n      tag_524\n        /* \"#utility.yul\":3874:3881   */\n      dup7\n        /* \"#utility.yul\":3865:3871   */\n      dup3\n        /* \"#utility.yul\":3854:3863   */\n      dup8\n        /* \"#utility.yul\":3850:3872   */\n      add\n        /* \"#utility.yul\":3829:3882   */\n      tag_474\n      jump\t// in\n    tag_524:\n        /* \"#utility.yul\":3819:3882   */\n      swap3\n      pop\n        /* \"#utility.yul\":3774:3892   */\n      pop\n        /* \"#utility.yul\":3931:3933   */\n      0x40\n        /* \"#utility.yul\":3957:4010   */\n      tag_525\n        /* \"#utility.yul\":4002:4009   */\n      dup7\n        /* \"#utility.yul\":3993:3999   */\n      dup3\n        /* \"#utility.yul\":3982:3991   */\n      dup8\n        /* \"#utility.yul\":3978:4000   */\n      add\n        /* \"#utility.yul\":3957:4010   */\n      tag_488\n      jump\t// in\n    tag_525:\n        /* \"#utility.yul\":3947:4010   */\n      swap2\n      pop\n        /* \"#utility.yul\":3902:4020   */\n      pop\n        /* \"#utility.yul\":3228:4027   */\n      swap3\n      pop\n      swap3\n      pop\n      swap3\n      jump\t// out\n        /* \"#utility.yul\":4033:4362   */\n    tag_78:\n        /* \"#utility.yul\":4092:4098   */\n      0x00\n        /* \"#utility.yul\":4141:4143   */\n      0x20\n        /* \"#utility.yul\":4129:4138   */\n      dup3\n        /* \"#utility.yul\":4120:4127   */\n      dup5\n        /* \"#utility.yul\":4116:4139   */\n      sub\n        /* \"#utility.yul\":4112:4144   */\n      slt\n        /* \"#utility.yul\":4109:4228   */\n      iszero\n      tag_527\n      jumpi\n        /* \"#utility.yul\":4147:4226   */\n      tag_528\n      tag_498\n      jump\t// in\n    tag_528:\n        /* \"#utility.yul\":4109:4228   */\n    tag_527:\n        /* \"#utility.yul\":4267:4268   */\n      0x00\n        /* \"#utility.yul\":4292:4345   */\n      tag_529\n        /* \"#utility.yul\":4337:4344   */\n      dup5\n        /* \"#utility.yul\":4328:4334   */\n      dup3\n        /* \"#utility.yul\":4317:4326   */\n      dup6\n        /* \"#utility.yul\":4313:4335   */\n      add\n        /* \"#utility.yul\":4292:4345   */\n      tag_488\n      jump\t// in\n    tag_529:\n        /* \"#utility.yul\":4282:4345   */\n      swap2\n      pop\n        /* \"#utility.yul\":4238:4355   */\n      pop\n        /* \"#utility.yul\":4033:4362   */\n      swap3\n      swap2\n      pop\n      pop\n      jump\t// out\n        /* \"#utility.yul\":4368:4719   */\n    tag_239:\n        /* \"#utility.yul\":4438:4444   */\n      0x00\n        /* \"#utility.yul\":4487:4489   */\n      0x20\n        /* \"#utility.yul\":4475:4484   */\n      dup3\n        /* \"#utility.yul\":4466:4473   */\n      dup5\n        /* \"#utility.yul\":4462:4485   */\n      sub\n        /* \"#utility.yul\":4458:4490   */\n      slt\n        /* \"#utility.yul\":4455:4574   */\n      iszero\n      tag_531\n      jumpi\n        /* \"#utility.yul\":4493:4572   */\n      tag_532\n      tag_498\n      jump\t// in\n    tag_532:\n        /* \"#utility.yul\":4455:4574   */\n    tag_531:\n        /* \"#utility.yul\":4613:4614   */\n      0x00\n        /* \"#utility.yul\":4638:4702   */\n      tag_533\n        /* \"#utility.yul\":4694:4701   */\n      dup5\n        /* \"#utility.yul\":4685:4691   */\n      dup3\n        /* \"#utility.yul\":4674:4683   */\n      dup6\n        /* \"#utility.yul\":4670:4692   */\n      add\n        /* \"#utility.yul\":4638:4702   */\n      tag_492\n      jump\t// in\n    tag_533:\n        /* \"#utility.yul\":4628:4702   */\n      swap2\n      pop\n        /* \"#utility.yul\":4584:4712   */\n      pop\n        /* \"#utility.yul\":4368:4719   */\n      swap3\n      swap2\n      pop\n      pop\n      jump\t// out\n        /* \"#utility.yul\":4725:5379   */\n    tag_161:\n        /* \"#utility.yul\":4803:4809   */\n      0x00\n        /* \"#utility.yul\":4811:4817   */\n      dup1\n        /* \"#utility.yul\":4860:4862   */\n      0x40\n        /* \"#utility.yul\":4848:4857   */\n      dup4\n        /* \"#utility.yul\":4839:4846   */\n      dup6\n        /* \"#utility.yul\":4835:4858   */\n      sub\n        /* \"#utility.yul\":4831:4863   */\n      slt\n        /* \"#utility.yul\":4828:4947   */\n      iszero\n      tag_535\n      jumpi\n        /* \"#utility.yul\":4866:4945   */\n      tag_536\n      tag_498\n      jump\t// in\n    tag_536:\n        /* \"#utility.yul\":4828:4947   */\n    tag_535:\n        /* \"#utility.yul\":4986:4987   */\n      0x00\n        /* \"#utility.yul\":5011:5064   */\n      tag_537\n        /* \"#utility.yul\":5056:5063   */\n      dup6\n        /* \"#utility.yul\":5047:5053   */\n      dup3\n        /* \"#utility.yul\":5036:5045   */\n      dup7\n        /* \"#utility.yul\":5032:5054   */\n      add\n        /* \"#utility.yul\":5011:5064   */\n      tag_488\n      jump\t// in\n    tag_537:\n        /* \"#utility.yul\":5001:5064   */\n      swap3\n      pop\n        /* \"#utility.yul\":4957:5074   */\n      pop\n        /* \"#utility.yul\":5141:5143   */\n      0x20\n        /* \"#utility.yul\":5130:5139   */\n      dup4\n        /* \"#utility.yul\":5126:5144   */\n      add\n        /* \"#utility.yul\":5113:5145   */\n      calldataload\n        /* \"#utility.yul\":5172:5190   */\n      0xffffffffffffffff\n        /* \"#utility.yul\":5164:5170   */\n      dup2\n        /* \"#utility.yul\":5161:5191   */\n      gt\n        /* \"#utility.yul\":5158:5275   */\n      iszero\n      tag_538\n      jumpi\n        /* \"#utility.yul\":5194:5273   */\n      tag_539\n      tag_506\n      jump\t// in\n    tag_539:\n        /* \"#utility.yul\":5158:5275   */\n    tag_538:\n        /* \"#utility.yul\":5299:5362   */\n      tag_540\n        /* \"#utility.yul\":5354:5361   */\n      dup6\n        /* \"#utility.yul\":5345:5351   */\n      dup3\n        /* \"#utility.yul\":5334:5343   */\n      dup7\n        /* \"#utility.yul\":5330:5352   */\n      add\n        /* \"#utility.yul\":5299:5362   */\n      tag_482\n      jump\t// in\n    tag_540:\n        /* \"#utility.yul\":5289:5362   */\n      swap2\n      pop\n        /* \"#utility.yul\":5084:5372   */\n      pop\n        /* \"#utility.yul\":4725:5379   */\n      swap3\n      pop\n      swap3\n      swap1\n      pop\n      jump\t// out\n        /* \"#utility.yul\":5385:5859   */\n    tag_130:\n        /* \"#utility.yul\":5453:5459   */\n      0x00\n        /* \"#utility.yul\":5461:5467   */\n      dup1\n        /* \"#utility.yul\":5510:5512   */\n      0x40\n        /* \"#utility.yul\":5498:5507   */\n      dup4\n        /* \"#utility.yul\":5489:5496   */\n      dup6\n        /* \"#utility.yul\":5485:5508   */\n      sub\n        /* \"#utility.yul\":5481:5513   */\n      slt\n        /* \"#utility.yul\":5478:5597   */\n      iszero\n      tag_542\n      jumpi\n        /* \"#utility.yul\":5516:5595   */\n      tag_543\n      tag_498\n      jump\t// in\n    tag_543:\n        /* \"#utility.yul\":5478:5597   */\n    tag_542:\n        /* \"#utility.yul\":5636:5637   */\n      0x00\n        /* \"#utility.yul\":5661:5714   */\n      tag_544\n        /* \"#utility.yul\":5706:5713   */\n      dup6\n        /* \"#utility.yul\":5697:5703   */\n      dup3\n        /* \"#utility.yul\":5686:5695   */\n      dup7\n        /* \"#utility.yul\":5682:5704   */\n      add\n        /* \"#utility.yul\":5661:5714   */\n      tag_488\n      jump\t// in\n    tag_544:\n        /* \"#utility.yul\":5651:5714   */\n      swap3\n      pop\n        /* \"#utility.yul\":5607:5724   */\n      pop\n        /* \"#utility.yul\":5763:5765   */\n      0x20\n        /* \"#utility.yul\":5789:5842   */\n      tag_545\n        /* \"#utility.yul\":5834:5841   */\n      dup6\n        /* \"#utility.yul\":5825:5831   */\n      dup3\n        /* \"#utility.yul\":5814:5823   */\n      dup7\n        /* \"#utility.yul\":5810:5832   */\n      add\n        /* \"#utility.yul\":5789:5842   */\n      tag_488\n      jump\t// in\n    tag_545:\n        /* \"#utility.yul\":5779:5842   */\n      swap2\n      pop\n        /* \"#utility.yul\":5734:5852   */\n      pop\n        /* \"#utility.yul\":5385:5859   */\n      swap3\n      pop\n      swap3\n      swap1\n      pop\n      jump\t// out\n        /* \"#utility.yul\":5865:6664   */\n    tag_193:\n        /* \"#utility.yul\":5952:5958   */\n      0x00\n        /* \"#utility.yul\":5960:5966   */\n      dup1\n        /* \"#utility.yul\":5968:5974   */\n      0x00\n        /* \"#utility.yul\":6017:6019   */\n      0x60\n        /* \"#utility.yul\":6005:6014   */\n      dup5\n        /* \"#utility.yul\":5996:6003   */\n      dup7\n        /* \"#utility.yul\":5992:6015   */\n      sub\n        /* \"#utility.yul\":5988:6020   */\n      slt\n        /* \"#utility.yul\":5985:6104   */\n      iszero\n      tag_547\n      jumpi\n        /* \"#utility.yul\":6023:6102   */\n      tag_548\n      tag_498\n      jump\t// in\n    tag_548:\n        /* \"#utility.yul\":5985:6104   */\n    tag_547:\n        /* \"#utility.yul\":6143:6144   */\n      0x00\n        /* \"#utility.yul\":6168:6221   */\n      tag_549\n        /* \"#utility.yul\":6213:6220   */\n      dup7\n        /* \"#utility.yul\":6204:6210   */\n      dup3\n        /* \"#utility.yul\":6193:6202   */\n      dup8\n        /* \"#utility.yul\":6189:6211   */\n      add\n        /* \"#utility.yul\":6168:6221   */\n      tag_488\n      jump\t// in\n    tag_549:\n        /* \"#utility.yul\":6158:6221   */\n      swap4\n      pop\n        /* \"#utility.yul\":6114:6231   */\n      pop\n        /* \"#utility.yul\":6270:6272   */\n      0x20\n        /* \"#utility.yul\":6296:6349   */\n      tag_550\n        /* \"#utility.yul\":6341:6348   */\n      dup7\n        /* \"#utility.yul\":6332:6338   */\n      dup3\n        /* \"#utility.yul\":6321:6330   */\n      dup8\n        /* \"#utility.yul\":6317:6339   */\n      add\n        /* \"#utility.yul\":6296:6349   */\n      tag_488\n      jump\t// in\n    tag_550:\n        /* \"#utility.yul\":6286:6349   */\n      swap3\n      pop\n        /* \"#utility.yul\":6241:6359   */\n      pop\n        /* \"#utility.yul\":6426:6428   */\n      0x40\n        /* \"#utility.yul\":6415:6424   */\n      dup5\n        /* \"#utility.yul\":6411:6429   */\n      add\n        /* \"#utility.yul\":6398:6430   */\n      calldataload\n        /* \"#utility.yul\":6457:6475   */\n      0xffffffffffffffff\n        /* \"#utility.yul\":6449:6455   */\n      dup2\n        /* \"#utility.yul\":6446:6476   */\n      gt\n        /* \"#utility.yul\":6443:6560   */\n      iszero\n      tag_551\n      jumpi\n        /* \"#utility.yul\":6479:6558   */\n      tag_552\n      tag_506\n      jump\t// in\n    tag_552:\n        /* \"#utility.yul\":6443:6560   */\n    tag_551:\n        /* \"#utility.yul\":6584:6647   */\n      tag_553\n        /* \"#utility.yul\":6639:6646   */\n      dup7\n        /* \"#utility.yul\":6630:6636   */\n      dup3\n        /* \"#utility.yul\":6619:6628   */\n      dup8\n        /* \"#utility.yul\":6615:6637   */\n      add\n        /* \"#utility.yul\":6584:6647   */\n      tag_482\n      jump\t// in\n    tag_553:\n        /* \"#utility.yul\":6574:6647   */\n      swap2\n      pop\n        /* \"#utility.yul\":6369:6657   */\n      pop\n        /* \"#utility.yul\":5865:6664   */\n      swap3\n      pop\n      swap3\n      pop\n      swap3\n      jump\t// out\n        /* \"#utility.yul\":6670:6788   */\n    tag_554:\n        /* \"#utility.yul\":6757:6781   */\n      tag_556\n        /* \"#utility.yul\":6775:6780   */\n      dup2\n        /* \"#utility.yul\":6757:6781   */\n      tag_557\n      jump\t// in\n    tag_556:\n        /* \"#utility.yul\":6752:6755   */\n      dup3\n        /* \"#utility.yul\":6745:6782   */\n      mstore\n        /* \"#utility.yul\":6670:6788   */\n      pop\n      pop\n      jump\t// out\n        /* \"#utility.yul\":6794:6951   */\n    tag_558:\n        /* \"#utility.yul\":6894:6944   */\n      tag_560\n        /* \"#utility.yul\":6938:6943   */\n      dup2\n        /* \"#utility.yul\":6894:6944   */\n      tag_561\n      jump\t// in\n    tag_560:\n        /* \"#utility.yul\":6889:6892   */\n      dup3\n        /* \"#utility.yul\":6882:6945   */\n      mstore\n        /* \"#utility.yul\":6794:6951   */\n      pop\n      pop\n      jump\t// out\n        /* \"#utility.yul\":6957:7072   */\n    tag_562:\n        /* \"#utility.yul\":7042:7065   */\n      tag_564\n        /* \"#utility.yul\":7059:7064   */\n      dup2\n        /* \"#utility.yul\":7042:7065   */\n      tag_565\n      jump\t// in\n    tag_564:\n        /* \"#utility.yul\":7037:7040   */\n      dup3\n        /* \"#utility.yul\":7030:7066   */\n      mstore\n        /* \"#utility.yul\":6957:7072   */\n      pop\n      pop\n      jump\t// out\n        /* \"#utility.yul\":7078:7455   */\n    tag_566:\n        /* \"#utility.yul\":7184:7187   */\n      0x00\n        /* \"#utility.yul\":7212:7251   */\n      tag_568\n        /* \"#utility.yul\":7245:7250   */\n      dup3\n        /* \"#utility.yul\":7212:7251   */\n      tag_569\n      jump\t// in\n    tag_568:\n        /* \"#utility.yul\":7267:7356   */\n      tag_570\n        /* \"#utility.yul\":7349:7355   */\n      dup2\n        /* \"#utility.yul\":7344:7347   */\n      dup6\n        /* \"#utility.yul\":7267:7356   */\n      tag_571\n      jump\t// in\n    tag_570:\n        /* \"#utility.yul\":7260:7356   */\n      swap4\n      pop\n        /* \"#utility.yul\":7365:7417   */\n      tag_572\n        /* \"#utility.yul\":7410:7416   */\n      dup2\n        /* \"#utility.yul\":7405:7408   */\n      dup6\n        /* \"#utility.yul\":7398:7402   */\n      0x20\n        /* \"#utility.yul\":7391:7396   */\n      dup7\n        /* \"#utility.yul\":7387:7403   */\n      add\n        /* \"#utility.yul\":7365:7417   */\n      tag_573\n      jump\t// in\n    tag_572:\n        /* \"#utility.yul\":7442:7448   */\n      dup1\n        /* \"#utility.yul\":7437:7440   */\n      dup5\n        /* \"#utility.yul\":7433:7449   */\n      add\n        /* \"#utility.yul\":7426:7449   */\n      swap2\n      pop\n        /* \"#utility.yul\":7188:7455   */\n      pop\n        /* \"#utility.yul\":7078:7455   */\n      swap3\n      swap2\n      pop\n      pop\n      jump\t// out\n        /* \"#utility.yul\":7461:7827   */\n    tag_574:\n        /* \"#utility.yul\":7603:7606   */\n      0x00\n        /* \"#utility.yul\":7624:7691   */\n      tag_576\n        /* \"#utility.yul\":7688:7690   */\n      0x24\n        /* \"#utility.yul\":7683:7686   */\n      dup4\n        /* \"#utility.yul\":7624:7691   */\n      tag_577\n      jump\t// in\n    tag_576:\n        /* \"#utility.yul\":7617:7691   */\n      swap2\n      pop\n        /* \"#utility.yul\":7700:7793   */\n      tag_578\n        /* \"#utility.yul\":7789:7792   */\n      dup3\n        /* \"#utility.yul\":7700:7793   */\n      tag_579\n      jump\t// in\n    tag_578:\n        /* \"#utility.yul\":7818:7820   */\n      0x40\n        /* \"#utility.yul\":7813:7816   */\n      dup3\n        /* \"#utility.yul\":7809:7821   */\n      add\n        /* \"#utility.yul\":7802:7821   */\n      swap1\n      pop\n        /* \"#utility.yul\":7461:7827   */\n      swap2\n      swap1\n      pop\n      jump\t// out\n        /* \"#utility.yul\":7833:8199   */\n    tag_580:\n        /* \"#utility.yul\":7975:7978   */\n      0x00\n        /* \"#utility.yul\":7996:8063   */\n      tag_582\n        /* \"#utility.yul\":8060:8062   */\n      0x15\n        /* \"#utility.yul\":8055:8058   */\n      dup4\n        /* \"#utility.yul\":7996:8063   */\n      tag_577\n      jump\t// in\n    tag_582:\n        /* \"#utility.yul\":7989:8063   */\n      swap2\n      pop\n        /* \"#utility.yul\":8072:8165   */\n      tag_583\n        /* \"#utility.yul\":8161:8164   */\n      dup3\n        /* \"#utility.yul\":8072:8165   */\n      tag_584\n      jump\t// in\n    tag_583:\n        /* \"#utility.yul\":8190:8192   */\n      0x20\n        /* \"#utility.yul\":8185:8188   */\n      dup3\n        /* \"#utility.yul\":8181:8193   */\n      add\n        /* \"#utility.yul\":8174:8193   */\n      swap1\n      pop\n        /* \"#utility.yul\":7833:8199   */\n      swap2\n      swap1\n      pop\n      jump\t// out\n        /* \"#utility.yul\":8205:8571   */\n    tag_585:\n        /* \"#utility.yul\":8347:8350   */\n      0x00\n        /* \"#utility.yul\":8368:8435   */\n      tag_587\n        /* \"#utility.yul\":8432:8434   */\n      0x1a\n        /* \"#utility.yul\":8427:8430   */\n      dup4\n        /* \"#utility.yul\":8368:8435   */\n      tag_577\n      jump\t// in\n    tag_587:\n        /* \"#utility.yul\":8361:8435   */\n      swap2\n      pop\n        /* \"#utility.yul\":8444:8537   */\n      tag_588\n        /* \"#utility.yul\":8533:8536   */\n      dup3\n        /* \"#utility.yul\":8444:8537   */\n      tag_589\n      jump\t// in\n    tag_588:\n        /* \"#utility.yul\":8562:8564   */\n      0x20\n        /* \"#utility.yul\":8557:8560   */\n      dup3\n        /* \"#utility.yul\":8553:8565   */\n      add\n        /* \"#utility.yul\":8546:8565   */\n      swap1\n      pop\n        /* \"#utility.yul\":8205:8571   */\n      swap2\n      swap1\n      pop\n      jump\t// out\n        /* \"#utility.yul\":8577:8943   */\n    tag_590:\n        /* \"#utility.yul\":8719:8722   */\n      0x00\n        /* \"#utility.yul\":8740:8807   */\n      tag_592\n        /* \"#utility.yul\":8804:8806   */\n      0x15\n        /* \"#utility.yul\":8799:8802   */\n      dup4\n        /* \"#utility.yul\":8740:8807   */\n      tag_577\n      jump\t// in\n    tag_592:\n        /* \"#utility.yul\":8733:8807   */\n      swap2\n      pop\n        /* \"#utility.yul\":8816:8909   */\n      tag_593\n        /* \"#utility.yul\":8905:8908   */\n      dup3\n        /* \"#utility.yul\":8816:8909   */\n      tag_594\n      jump\t// in\n    tag_593:\n        /* \"#utility.yul\":8934:8936   */\n      0x20\n        /* \"#utility.yul\":8929:8932   */\n      dup3\n        /* \"#utility.yul\":8925:8937   */\n      add\n        /* \"#utility.yul\":8918:8937   */\n      swap1\n      pop\n        /* \"#utility.yul\":8577:8943   */\n      swap2\n      swap1\n      pop\n      jump\t// out\n        /* \"#utility.yul\":8949:9315   */\n    tag_595:\n        /* \"#utility.yul\":9091:9094   */\n      0x00\n        /* \"#utility.yul\":9112:9179   */\n      tag_597\n        /* \"#utility.yul\":9176:9178   */\n      0x0c\n        /* \"#utility.yul\":9171:9174   */\n      dup4\n        /* \"#utility.yul\":9112:9179   */\n      tag_577\n      jump\t// in\n    tag_597:\n        /* \"#utility.yul\":9105:9179   */\n      swap2\n      pop\n        /* \"#utility.yul\":9188:9281   */\n      tag_598\n        /* \"#utility.yul\":9277:9280   */\n      dup3\n        /* \"#utility.yul\":9188:9281   */\n      tag_599\n      jump\t// in\n    tag_598:\n        /* \"#utility.yul\":9306:9308   */\n      0x20\n        /* \"#utility.yul\":9301:9304   */\n      dup3\n        /* \"#utility.yul\":9297:9309   */\n      add\n        /* \"#utility.yul\":9290:9309   */\n      swap1\n      pop\n        /* \"#utility.yul\":8949:9315   */\n      swap2\n      swap1\n      pop\n      jump\t// out\n        /* \"#utility.yul\":9321:9687   */\n    tag_600:\n        /* \"#utility.yul\":9463:9466   */\n      0x00\n        /* \"#utility.yul\":9484:9551   */\n      tag_602\n        /* \"#utility.yul\":9548:9550   */\n      0x21\n        /* \"#utility.yul\":9543:9546   */\n      dup4\n        /* \"#utility.yul\":9484:9551   */\n      tag_577\n      jump\t// in\n    tag_602:\n        /* \"#utility.yul\":9477:9551   */\n      swap2\n      pop\n        /* \"#utility.yul\":9560:9653   */\n      tag_603\n        /* \"#utility.yul\":9649:9652   */\n      dup3\n        /* \"#utility.yul\":9560:9653   */\n      tag_604\n      jump\t// in\n    tag_603:\n        /* \"#utility.yul\":9678:9680   */\n      0x40\n        /* \"#utility.yul\":9673:9676   */\n      dup3\n        /* \"#utility.yul\":9669:9681   */\n      add\n        /* \"#utility.yul\":9662:9681   */\n      swap1\n      pop\n        /* \"#utility.yul\":9321:9687   */\n      swap2\n      swap1\n      pop\n      jump\t// out\n        /* \"#utility.yul\":9693:9811   */\n    tag_605:\n        /* \"#utility.yul\":9780:9804   */\n      tag_607\n        /* \"#utility.yul\":9798:9803   */\n      dup2\n        /* \"#utility.yul\":9780:9804   */\n      tag_608\n      jump\t// in\n    tag_607:\n        /* \"#utility.yul\":9775:9778   */\n      dup3\n        /* \"#utility.yul\":9768:9805   */\n      mstore\n        /* \"#utility.yul\":9693:9811   */\n      pop\n      pop\n      jump\t// out\n        /* \"#utility.yul\":9817:10092   */\n    tag_340:\n        /* \"#utility.yul\":9949:9952   */\n      0x00\n        /* \"#utility.yul\":9971:10066   */\n      tag_610\n        /* \"#utility.yul\":10062:10065   */\n      dup3\n        /* \"#utility.yul\":10053:10059   */\n      dup5\n        /* \"#utility.yul\":9971:10066   */\n      tag_566\n      jump\t// in\n    tag_610:\n        /* \"#utility.yul\":9964:10066   */\n      swap2\n      pop\n        /* \"#utility.yul\":10083:10086   */\n      dup2\n        /* \"#utility.yul\":10076:10086   */\n      swap1\n      pop\n        /* \"#utility.yul\":9817:10092   */\n      swap3\n      swap2\n      pop\n      pop\n      jump\t// out\n        /* \"#utility.yul\":10098:10320   */\n    tag_59:\n        /* \"#utility.yul\":10191:10195   */\n      0x00\n        /* \"#utility.yul\":10229:10231   */\n      0x20\n        /* \"#utility.yul\":10218:10227   */\n      dup3\n        /* \"#utility.yul\":10214:10232   */\n      add\n        /* \"#utility.yul\":10206:10232   */\n      swap1\n      pop\n        /* \"#utility.yul\":10242:10313   */\n      tag_612\n        /* \"#utility.yul\":10310:10311   */\n      0x00\n        /* \"#utility.yul\":10299:10308   */\n      dup4\n        /* \"#utility.yul\":10295:10312   */\n      add\n        /* \"#utility.yul\":10286:10292   */\n      dup5\n        /* \"#utility.yul\":10242:10313   */\n      tag_554\n      jump\t// in\n    tag_612:\n        /* \"#utility.yul\":10098:10320   */\n      swap3\n      swap2\n      pop\n      pop\n      jump\t// out\n        /* \"#utility.yul\":10326:10768   */\n    tag_443:\n        /* \"#utility.yul\":10475:10479   */\n      0x00\n        /* \"#utility.yul\":10513:10515   */\n      0x60\n        /* \"#utility.yul\":10502:10511   */\n      dup3\n        /* \"#utility.yul\":10498:10516   */\n      add\n        /* \"#utility.yul\":10490:10516   */\n      swap1\n      pop\n        /* \"#utility.yul\":10526:10597   */\n      tag_614\n        /* \"#utility.yul\":10594:10595   */\n      0x00\n        /* \"#utility.yul\":10583:10592   */\n      dup4\n        /* \"#utility.yul\":10579:10596   */\n      add\n        /* \"#utility.yul\":10570:10576   */\n      dup7\n        /* \"#utility.yul\":10526:10597   */\n      tag_554\n      jump\t// in\n    tag_614:\n        /* \"#utility.yul\":10607:10679   */\n      tag_615\n        /* \"#utility.yul\":10675:10677   */\n      0x20\n        /* \"#utility.yul\":10664:10673   */\n      dup4\n        /* \"#utility.yul\":10660:10678   */\n      add\n        /* \"#utility.yul\":10651:10657   */\n      dup6\n        /* \"#utility.yul\":10607:10679   */\n      tag_554\n      jump\t// in\n    tag_615:\n        /* \"#utility.yul\":10689:10761   */\n      tag_616\n        /* \"#utility.yul\":10757:10759   */\n      0x40\n        /* \"#utility.yul\":10746:10755   */\n      dup4\n        /* \"#utility.yul\":10742:10760   */\n      add\n        /* \"#utility.yul\":10733:10739   */\n      dup5\n        /* \"#utility.yul\":10689:10761   */\n      tag_605\n      jump\t// in\n    tag_616:\n        /* \"#utility.yul\":10326:10768   */\n      swap5\n      swap4\n      pop\n      pop\n      pop\n      pop\n      jump\t// out\n        /* \"#utility.yul\":10774:11106   */\n    tag_177:\n        /* \"#utility.yul\":10895:10899   */\n      0x00\n        /* \"#utility.yul\":10933:10935   */\n      0x40\n        /* \"#utility.yul\":10922:10931   */\n      dup3\n        /* \"#utility.yul\":10918:10936   */\n      add\n        /* \"#utility.yul\":10910:10936   */\n      swap1\n      pop\n        /* \"#utility.yul\":10946:11017   */\n      tag_618\n        /* \"#utility.yul\":11014:11015   */\n      0x00\n        /* \"#utility.yul\":11003:11012   */\n      dup4\n        /* \"#utility.yul\":10999:11016   */\n      add\n        /* \"#utility.yul\":10990:10996   */\n      dup6\n        /* \"#utility.yul\":10946:11017   */\n      tag_554\n      jump\t// in\n    tag_618:\n        /* \"#utility.yul\":11027:11099   */\n      tag_619\n        /* \"#utility.yul\":11095:11097   */\n      0x20\n        /* \"#utility.yul\":11084:11093   */\n      dup4\n        /* \"#utility.yul\":11080:11098   */\n      add\n        /* \"#utility.yul\":11071:11077   */\n      dup5\n        /* \"#utility.yul\":11027:11099   */\n      tag_605\n      jump\t// in\n    tag_619:\n        /* \"#utility.yul\":10774:11106   */\n      swap4\n      swap3\n      pop\n      pop\n      pop\n      jump\t// out\n        /* \"#utility.yul\":11112:11360   */\n    tag_101:\n        /* \"#utility.yul\":11218:11222   */\n      0x00\n        /* \"#utility.yul\":11256:11258   */\n      0x20\n        /* \"#utility.yul\":11245:11254   */\n      dup3\n        /* \"#utility.yul\":11241:11259   */\n      add\n        /* \"#utility.yul\":11233:11259   */\n      swap1\n      pop\n        /* \"#utility.yul\":11269:11353   */\n      tag_621\n        /* \"#utility.yul\":11350:11351   */\n      0x00\n        /* \"#utility.yul\":11339:11348   */\n      dup4\n        /* \"#utility.yul\":11335:11352   */\n      add\n        /* \"#utility.yul\":11326:11332   */\n      dup5\n        /* \"#utility.yul\":11269:11353   */\n      tag_558\n      jump\t// in\n    tag_621:\n        /* \"#utility.yul\":11112:11360   */\n      swap3\n      swap2\n      pop\n      pop\n      jump\t// out\n        /* \"#utility.yul\":11366:11584   */\n    tag_149:\n        /* \"#utility.yul\":11457:11461   */\n      0x00\n        /* \"#utility.yul\":11495:11497   */\n      0x20\n        /* \"#utility.yul\":11484:11493   */\n      dup3\n        /* \"#utility.yul\":11480:11498   */\n      add\n        /* \"#utility.yul\":11472:11498   */\n      swap1\n      pop\n        /* \"#utility.yul\":11508:11577   */\n      tag_623\n        /* \"#utility.yul\":11574:11575   */\n      0x00\n        /* \"#utility.yul\":11563:11572   */\n      dup4\n        /* \"#utility.yul\":11559:11576   */\n      add\n        /* \"#utility.yul\":11550:11556   */\n      dup5\n        /* \"#utility.yul\":11508:11577   */\n      tag_562\n      jump\t// in\n    tag_623:\n        /* \"#utility.yul\":11366:11584   */\n      swap3\n      swap2\n      pop\n      pop\n      jump\t// out\n        /* \"#utility.yul\":11590:12009   */\n    tag_280:\n        /* \"#utility.yul\":11756:11760   */\n      0x00\n        /* \"#utility.yul\":11794:11796   */\n      0x20\n        /* \"#utility.yul\":11783:11792   */\n      dup3\n        /* \"#utility.yul\":11779:11797   */\n      add\n        /* \"#utility.yul\":11771:11797   */\n      swap1\n      pop\n        /* \"#utility.yul\":11843:11852   */\n      dup2\n        /* \"#utility.yul\":11837:11841   */\n      dup2\n        /* \"#utility.yul\":11833:11853   */\n      sub\n        /* \"#utility.yul\":11829:11830   */\n      0x00\n        /* \"#utility.yul\":11818:11827   */\n      dup4\n        /* \"#utility.yul\":11814:11831   */\n      add\n        /* \"#utility.yul\":11807:11854   */\n      mstore\n        /* \"#utility.yul\":11871:12002   */\n      tag_625\n        /* \"#utility.yul\":11997:12001   */\n      dup2\n        /* \"#utility.yul\":11871:12002   */\n      tag_574\n      jump\t// in\n    tag_625:\n        /* \"#utility.yul\":11863:12002   */\n      swap1\n      pop\n        /* \"#utility.yul\":11590:12009   */\n      swap2\n      swap1\n      pop\n      jump\t// out\n        /* \"#utility.yul\":12015:12434   */\n    tag_450:\n        /* \"#utility.yul\":12181:12185   */\n      0x00\n        /* \"#utility.yul\":12219:12221   */\n      0x20\n        /* \"#utility.yul\":12208:12217   */\n      dup3\n        /* \"#utility.yul\":12204:12222   */\n      add\n        /* \"#utility.yul\":12196:12222   */\n      swap1\n      pop\n        /* \"#utility.yul\":12268:12277   */\n      dup2\n        /* \"#utility.yul\":12262:12266   */\n      dup2\n        /* \"#utility.yul\":12258:12278   */\n      sub\n        /* \"#utility.yul\":12254:12255   */\n      0x00\n        /* \"#utility.yul\":12243:12252   */\n      dup4\n        /* \"#utility.yul\":12239:12256   */\n      add\n        /* \"#utility.yul\":12232:12279   */\n      mstore\n        /* \"#utility.yul\":12296:12427   */\n      tag_627\n        /* \"#utility.yul\":12422:12426   */\n      dup2\n        /* \"#utility.yul\":12296:12427   */\n      tag_580\n      jump\t// in\n    tag_627:\n        /* \"#utility.yul\":12288:12427   */\n      swap1\n      pop\n        /* \"#utility.yul\":12015:12434   */\n      swap2\n      swap1\n      pop\n      jump\t// out\n        /* \"#utility.yul\":12440:12859   */\n    tag_291:\n        /* \"#utility.yul\":12606:12610   */\n      0x00\n        /* \"#utility.yul\":12644:12646   */\n      0x20\n        /* \"#utility.yul\":12633:12642   */\n      dup3\n        /* \"#utility.yul\":12629:12647   */\n      add\n        /* \"#utility.yul\":12621:12647   */\n      swap1\n      pop\n        /* \"#utility.yul\":12693:12702   */\n      dup2\n        /* \"#utility.yul\":12687:12691   */\n      dup2\n        /* \"#utility.yul\":12683:12703   */\n      sub\n        /* \"#utility.yul\":12679:12680   */\n      0x00\n        /* \"#utility.yul\":12668:12677   */\n      dup4\n        /* \"#utility.yul\":12664:12681   */\n      add\n        /* \"#utility.yul\":12657:12704   */\n      mstore\n        /* \"#utility.yul\":12721:12852   */\n      tag_629\n        /* \"#utility.yul\":12847:12851   */\n      dup2\n        /* \"#utility.yul\":12721:12852   */\n      tag_585\n      jump\t// in\n    tag_629:\n        /* \"#utility.yul\":12713:12852   */\n      swap1\n      pop\n        /* \"#utility.yul\":12440:12859   */\n      swap2\n      swap1\n      pop\n      jump\t// out\n        /* \"#utility.yul\":12865:13284   */\n    tag_343:\n        /* \"#utility.yul\":13031:13035   */\n      0x00\n        /* \"#utility.yul\":13069:13071   */\n      0x20\n        /* \"#utility.yul\":13058:13067   */\n      dup3\n        /* \"#utility.yul\":13054:13072   */\n      add\n        /* \"#utility.yul\":13046:13072   */\n      swap1\n      pop\n        /* \"#utility.yul\":13118:13127   */\n      dup2\n        /* \"#utility.yul\":13112:13116   */\n      dup2\n        /* \"#utility.yul\":13108:13128   */\n      sub\n        /* \"#utility.yul\":13104:13105   */\n      0x00\n        /* \"#utility.yul\":13093:13102   */\n      dup4\n        /* \"#utility.yul\":13089:13106   */\n      add\n        /* \"#utility.yul\":13082:13129   */\n      mstore\n        /* \"#utility.yul\":13146:13277   */\n      tag_631\n        /* \"#utility.yul\":13272:13276   */\n      dup2\n        /* \"#utility.yul\":13146:13277   */\n      tag_590\n      jump\t// in\n    tag_631:\n        /* \"#utility.yul\":13138:13277   */\n      swap1\n      pop\n        /* \"#utility.yul\":12865:13284   */\n      swap2\n      swap1\n      pop\n      jump\t// out\n        /* \"#utility.yul\":13290:13709   */\n    tag_393:\n        /* \"#utility.yul\":13456:13460   */\n      0x00\n        /* \"#utility.yul\":13494:13496   */\n      0x20\n        /* \"#utility.yul\":13483:13492   */\n      dup3\n        /* \"#utility.yul\":13479:13497   */\n      add\n        /* \"#utility.yul\":13471:13497   */\n      swap1\n      pop\n        /* \"#utility.yul\":13543:13552   */\n      dup2\n        /* \"#utility.yul\":13537:13541   */\n      dup2\n        /* \"#utility.yul\":13533:13553   */\n      sub\n        /* \"#utility.yul\":13529:13530   */\n      0x00\n        /* \"#utility.yul\":13518:13527   */\n      dup4\n        /* \"#utility.yul\":13514:13531   */\n      add\n        /* \"#utility.yul\":13507:13554   */\n      mstore\n        /* \"#utility.yul\":13571:13702   */\n      tag_633\n        /* \"#utility.yul\":13697:13701   */\n      dup2\n        /* \"#utility.yul\":13571:13702   */\n      tag_595\n      jump\t// in\n    tag_633:\n        /* \"#utility.yul\":13563:13702   */\n      swap1\n      pop\n        /* \"#utility.yul\":13290:13709   */\n      swap2\n      swap1\n      pop\n      jump\t// out\n        /* \"#utility.yul\":13715:14134   */\n    tag_457:\n        /* \"#utility.yul\":13881:13885   */\n      0x00\n        /* \"#utility.yul\":13919:13921   */\n      0x20\n        /* \"#utility.yul\":13908:13917   */\n      dup3\n        /* \"#utility.yul\":13904:13922   */\n      add\n        /* \"#utility.yul\":13896:13922   */\n      swap1\n      pop\n        /* \"#utility.yul\":13968:13977   */\n      dup2\n        /* \"#utility.yul\":13962:13966   */\n      dup2\n        /* \"#utility.yul\":13958:13978   */\n      sub\n        /* \"#utility.yul\":13954:13955   */\n      0x00\n        /* \"#utility.yul\":13943:13952   */\n      dup4\n        /* \"#utility.yul\":13939:13956   */\n      add\n        /* \"#utility.yul\":13932:13979   */\n      mstore\n        /* \"#utility.yul\":13996:14127   */\n      tag_635\n        /* \"#utility.yul\":14122:14126   */\n      dup2\n        /* \"#utility.yul\":13996:14127   */\n      tag_600\n      jump\t// in\n    tag_635:\n        /* \"#utility.yul\":13988:14127   */\n      swap1\n      pop\n        /* \"#utility.yul\":13715:14134   */\n      swap2\n      swap1\n      pop\n      jump\t// out\n        /* \"#utility.yul\":14140:14362   */\n    tag_54:\n        /* \"#utility.yul\":14233:14237   */\n      0x00\n        /* \"#utility.yul\":14271:14273   */\n      0x20\n        /* \"#utility.yul\":14260:14269   */\n      dup3\n        /* \"#utility.yul\":14256:14274   */\n      add\n        /* \"#utility.yul\":14248:14274   */\n      swap1\n      pop\n        /* \"#utility.yul\":14284:14355   */\n      tag_637\n        /* \"#utility.yul\":14352:14353   */\n      0x00\n        /* \"#utility.yul\":14341:14350   */\n      dup4\n        /* \"#utility.yul\":14337:14354   */\n      add\n        /* \"#utility.yul\":14328:14334   */\n      dup5\n        /* \"#utility.yul\":14284:14355   */\n      tag_605\n      jump\t// in\n    tag_637:\n        /* \"#utility.yul\":14140:14362   */\n      swap3\n      swap2\n      pop\n      pop\n      jump\t// out\n        /* \"#utility.yul\":14368:14700   */\n    tag_74:\n        /* \"#utility.yul\":14489:14493   */\n      0x00\n        /* \"#utility.yul\":14527:14529   */\n      0x40\n        /* \"#utility.yul\":14516:14525   */\n      dup3\n        /* \"#utility.yul\":14512:14530   */\n      add\n        /* \"#utility.yul\":14504:14530   */\n      swap1\n      pop\n        /* \"#utility.yul\":14540:14611   */\n      tag_639\n        /* \"#utility.yul\":14608:14609   */\n      0x00\n        /* \"#utility.yul\":14597:14606   */\n      dup4\n        /* \"#utility.yul\":14593:14610   */\n      add\n        /* \"#utility.yul\":14584:14590   */\n      dup6\n        /* \"#utility.yul\":14540:14611   */\n      tag_605\n      jump\t// in\n    tag_639:\n        /* \"#utility.yul\":14621:14693   */\n      tag_640\n        /* \"#utility.yul\":14689:14691   */\n      0x20\n        /* \"#utility.yul\":14678:14687   */\n      dup4\n        /* \"#utility.yul\":14674:14692   */\n      add\n        /* \"#utility.yul\":14665:14671   */\n      dup5\n        /* \"#utility.yul\":14621:14693   */\n      tag_605\n      jump\t// in\n    tag_640:\n        /* \"#utility.yul\":14368:14700   */\n      swap4\n      swap3\n      pop\n      pop\n      pop\n      jump\t// out\n        /* \"#utility.yul\":14706:14835   */\n    tag_468:\n        /* \"#utility.yul\":14740:14746   */\n      0x00\n        /* \"#utility.yul\":14767:14787   */\n      tag_642\n      tag_643\n      jump\t// in\n    tag_642:\n        /* \"#utility.yul\":14757:14787   */\n      swap1\n      pop\n        /* \"#utility.yul\":14796:14829   */\n      tag_644\n        /* \"#utility.yul\":14824:14828   */\n      dup3\n        /* \"#utility.yul\":14816:14822   */\n      dup3\n        /* \"#utility.yul\":14796:14829   */\n      tag_645\n      jump\t// in\n    tag_644:\n        /* \"#utility.yul\":14706:14835   */\n      swap2\n      swap1\n      pop\n      jump\t// out\n        /* \"#utility.yul\":14841:14916   */\n    tag_643:\n        /* \"#utility.yul\":14874:14880   */\n      0x00\n        /* \"#utility.yul\":14907:14909   */\n      0x40\n        /* \"#utility.yul\":14901:14910   */\n      mload\n        /* \"#utility.yul\":14891:14910   */\n      swap1\n      pop\n        /* \"#utility.yul\":14841:14916   */\n      swap1\n      jump\t// out\n        /* \"#utility.yul\":14922:15230   */\n    tag_467:\n        /* \"#utility.yul\":14984:14988   */\n      0x00\n        /* \"#utility.yul\":15074:15092   */\n      0xffffffffffffffff\n        /* \"#utility.yul\":15066:15072   */\n      dup3\n        /* \"#utility.yul\":15063:15093   */\n      gt\n        /* \"#utility.yul\":15060:15116   */\n      iszero\n      tag_648\n      jumpi\n        /* \"#utility.yul\":15096:15114   */\n      tag_649\n      tag_650\n      jump\t// in\n    tag_649:\n        /* \"#utility.yul\":15060:15116   */\n    tag_648:\n        /* \"#utility.yul\":15134:15163   */\n      tag_651\n        /* \"#utility.yul\":15156:15162   */\n      dup3\n        /* \"#utility.yul\":15134:15163   */\n      tag_652\n      jump\t// in\n    tag_651:\n        /* \"#utility.yul\":15126:15163   */\n      swap1\n      pop\n        /* \"#utility.yul\":15218:15222   */\n      0x20\n        /* \"#utility.yul\":15212:15216   */\n      dup2\n        /* \"#utility.yul\":15208:15223   */\n      add\n        /* \"#utility.yul\":15200:15223   */\n      swap1\n      pop\n        /* \"#utility.yul\":14922:15230   */\n      swap2\n      swap1\n      pop\n      jump\t// out\n        /* \"#utility.yul\":15236:15335   */\n    tag_569:\n        /* \"#utility.yul\":15288:15294   */\n      0x00\n        /* \"#utility.yul\":15322:15327   */\n      dup2\n        /* \"#utility.yul\":15316:15328   */\n      mload\n        /* \"#utility.yul\":15306:15328   */\n      swap1\n      pop\n        /* \"#utility.yul\":15236:15335   */\n      swap2\n      swap1\n      pop\n      jump\t// out\n        /* \"#utility.yul\":15341:15510   */\n    tag_577:\n        /* \"#utility.yul\":15425:15436   */\n      0x00\n        /* \"#utility.yul\":15459:15465   */\n      dup3\n        /* \"#utility.yul\":15454:15457   */\n      dup3\n        /* \"#utility.yul\":15447:15466   */\n      mstore\n        /* \"#utility.yul\":15499:15503   */\n      0x20\n        /* \"#utility.yul\":15494:15497   */\n      dup3\n        /* \"#utility.yul\":15490:15504   */\n      add\n        /* \"#utility.yul\":15475:15504   */\n      swap1\n      pop\n        /* \"#utility.yul\":15341:15510   */\n      swap3\n      swap2\n      pop\n      pop\n      jump\t// out\n        /* \"#utility.yul\":15516:15664   */\n    tag_571:\n        /* \"#utility.yul\":15618:15629   */\n      0x00\n        /* \"#utility.yul\":15655:15658   */\n      dup2\n        /* \"#utility.yul\":15640:15658   */\n      swap1\n      pop\n        /* \"#utility.yul\":15516:15664   */\n      swap3\n      swap2\n      pop\n      pop\n      jump\t// out\n        /* \"#utility.yul\":15670:15975   */\n    tag_245:\n        /* \"#utility.yul\":15710:15713   */\n      0x00\n        /* \"#utility.yul\":15729:15749   */\n      tag_657\n        /* \"#utility.yul\":15747:15748   */\n      dup3\n        /* \"#utility.yul\":15729:15749   */\n      tag_608\n      jump\t// in\n    tag_657:\n        /* \"#utility.yul\":15724:15749   */\n      swap2\n      pop\n        /* \"#utility.yul\":15763:15783   */\n      tag_658\n        /* \"#utility.yul\":15781:15782   */\n      dup4\n        /* \"#utility.yul\":15763:15783   */\n      tag_608\n      jump\t// in\n    tag_658:\n        /* \"#utility.yul\":15758:15783   */\n      swap3\n      pop\n        /* \"#utility.yul\":15917:15918   */\n      dup3\n        /* \"#utility.yul\":15849:15915   */\n      0xffffffffffffffffffffffffffffffffffffffffffffffffffffffffffffffff\n        /* \"#utility.yul\":15845:15919   */\n      sub\n        /* \"#utility.yul\":15842:15843   */\n      dup3\n        /* \"#utility.yul\":15839:15920   */\n      gt\n        /* \"#utility.yul\":15836:15943   */\n      iszero\n      tag_659\n      jumpi\n        /* \"#utility.yul\":15923:15941   */\n      tag_660\n      tag_661\n      jump\t// in\n    tag_660:\n        /* \"#utility.yul\":15836:15943   */\n    tag_659:\n        /* \"#utility.yul\":15967:15968   */\n      dup3\n        /* \"#utility.yul\":15964:15965   */\n      dup3\n        /* \"#utility.yul\":15960:15969   */\n      add\n        /* \"#utility.yul\":15953:15969   */\n      swap1\n      pop\n        /* \"#utility.yul\":15670:15975   */\n      swap3\n      swap2\n      pop\n      pop\n      jump\t// out\n        /* \"#utility.yul\":15981:16166   */\n    tag_248:\n        /* \"#utility.yul\":16021:16022   */\n      0x00\n        /* \"#utility.yul\":16038:16058   */\n      tag_663\n        /* \"#utility.yul\":16056:16057   */\n      dup3\n        /* \"#utility.yul\":16038:16058   */\n      tag_608\n      jump\t// in\n    tag_663:\n        /* \"#utility.yul\":16033:16058   */\n      swap2\n      pop\n        /* \"#utility.yul\":16072:16092   */\n      tag_664\n        /* \"#utility.yul\":16090:16091   */\n      dup4\n        /* \"#utility.yul\":16072:16092   */\n      tag_608\n      jump\t// in\n    tag_664:\n        /* \"#utility.yul\":16067:16092   */\n      swap3\n      pop\n        /* \"#utility.yul\":16111:16112   */\n      dup3\n        /* \"#utility.yul\":16101:16136   */\n      tag_665\n      jumpi\n        /* \"#utility.yul\":16116:16134   */\n      tag_666\n      tag_667\n      jump\t// in\n    tag_666:\n        /* \"#utility.yul\":16101:16136   */\n    tag_665:\n        /* \"#utility.yul\":16158:16159   */\n      dup3\n        /* \"#utility.yul\":16155:16156   */\n      dup3\n        /* \"#utility.yul\":16151:16160   */\n      div\n        /* \"#utility.yul\":16146:16160   */\n      swap1\n      pop\n        /* \"#utility.yul\":15981:16166   */\n      swap3\n      swap2\n      pop\n      pop\n      jump\t// out\n        /* \"#utility.yul\":16172:16520   */\n    tag_357:\n        /* \"#utility.yul\":16212:16219   */\n      0x00\n        /* \"#utility.yul\":16235:16255   */\n      tag_669\n        /* \"#utility.yul\":16253:16254   */\n      dup3\n        /* \"#utility.yul\":16235:16255   */\n      tag_608\n      jump\t// in\n    tag_669:\n        /* \"#utility.yul\":16230:16255   */\n      swap2\n      pop\n        /* \"#utility.yul\":16269:16289   */\n      tag_670\n        /* \"#utility.yul\":16287:16288   */\n      dup4\n        /* \"#utility.yul\":16269:16289   */\n      tag_608\n      jump\t// in\n    tag_670:\n        /* \"#utility.yul\":16264:16289   */\n      swap3\n      pop\n        /* \"#utility.yul\":16457:16458   */\n      dup2\n        /* \"#utility.yul\":16389:16455   */\n      0xffffffffffffffffffffffffffffffffffffffffffffffffffffffffffffffff\n        /* \"#utility.yul\":16385:16459   */\n      div\n        /* \"#utility.yul\":16382:16383   */\n      dup4\n        /* \"#utility.yul\":16379:16460   */\n      gt\n        /* \"#utility.yul\":16374:16375   */\n      dup3\n        /* \"#utility.yul\":16367:16376   */\n      iszero\n        /* \"#utility.yul\":16360:16377   */\n      iszero\n        /* \"#utility.yul\":16356:16461   */\n      and\n        /* \"#utility.yul\":16353:16484   */\n      iszero\n      tag_671\n      jumpi\n        /* \"#utility.yul\":16464:16482   */\n      tag_672\n      tag_661\n      jump\t// in\n    tag_672:\n        /* \"#utility.yul\":16353:16484   */\n    tag_671:\n        /* \"#utility.yul\":16512:16513   */\n      dup3\n        /* \"#utility.yul\":16509:16510   */\n      dup3\n        /* \"#utility.yul\":16505:16514   */\n      mul\n        /* \"#utility.yul\":16494:16514   */\n      swap1\n      pop\n        /* \"#utility.yul\":16172:16520   */\n      swap3\n      swap2\n      pop\n      pop\n      jump\t// out\n        /* \"#utility.yul\":16526:16717   */\n    tag_250:\n        /* \"#utility.yul\":16566:16570   */\n      0x00\n        /* \"#utility.yul\":16586:16606   */\n      tag_674\n        /* \"#utility.yul\":16604:16605   */\n      dup3\n        /* \"#utility.yul\":16586:16606   */\n      tag_608\n      jump\t// in\n    tag_674:\n        /* \"#utility.yul\":16581:16606   */\n      swap2\n      pop\n        /* \"#utility.yul\":16620:16640   */\n      tag_675\n        /* \"#utility.yul\":16638:16639   */\n      dup4\n        /* \"#utility.yul\":16620:16640   */\n      tag_608\n      jump\t// in\n    tag_675:\n        /* \"#utility.yul\":16615:16640   */\n      swap3\n      pop\n        /* \"#utility.yul\":16659:16660   */\n      dup3\n        /* \"#utility.yul\":16656:16657   */\n      dup3\n        /* \"#utility.yul\":16653:16661   */\n      lt\n        /* \"#utility.yul\":16650:16684   */\n      iszero\n      tag_676\n      jumpi\n        /* \"#utility.yul\":16664:16682   */\n      tag_677\n      tag_661\n      jump\t// in\n    tag_677:\n        /* \"#utility.yul\":16650:16684   */\n    tag_676:\n        /* \"#utility.yul\":16709:16710   */\n      dup3\n        /* \"#utility.yul\":16706:16707   */\n      dup3\n        /* \"#utility.yul\":16702:16711   */\n      sub\n        /* \"#utility.yul\":16694:16711   */\n      swap1\n      pop\n        /* \"#utility.yul\":16526:16717   */\n      swap3\n      swap2\n      pop\n      pop\n      jump\t// out\n        /* \"#utility.yul\":16723:16819   */\n    tag_557:\n        /* \"#utility.yul\":16760:16767   */\n      0x00\n        /* \"#utility.yul\":16789:16813   */\n      tag_679\n        /* \"#utility.yul\":16807:16812   */\n      dup3\n        /* \"#utility.yul\":16789:16813   */\n      tag_680\n      jump\t// in\n    tag_679:\n        /* \"#utility.yul\":16778:16813   */\n      swap1\n      pop\n        /* \"#utility.yul\":16723:16819   */\n      swap2\n      swap1\n      pop\n      jump\t// out\n        /* \"#utility.yul\":16825:16915   */\n    tag_681:\n        /* \"#utility.yul\":16859:16866   */\n      0x00\n        /* \"#utility.yul\":16902:16907   */\n      dup2\n        /* \"#utility.yul\":16895:16908   */\n      iszero\n        /* \"#utility.yul\":16888:16909   */\n      iszero\n        /* \"#utility.yul\":16877:16909   */\n      swap1\n      pop\n        /* \"#utility.yul\":16825:16915   */\n      swap2\n      swap1\n      pop\n      jump\t// out\n        /* \"#utility.yul\":16921:17013   */\n    tag_565:\n        /* \"#utility.yul\":16957:16964   */\n      0x00\n        /* \"#utility.yul\":17001:17006   */\n      dup2\n        /* \"#utility.yul\":16997:16999   */\n      0x0f\n        /* \"#utility.yul\":16986:17007   */\n      signextend\n        /* \"#utility.yul\":16975:17007   */\n      swap1\n      pop\n        /* \"#utility.yul\":16921:17013   */\n      swap2\n      swap1\n      pop\n      jump\t// out\n        /* \"#utility.yul\":17019:17145   */\n    tag_680:\n        /* \"#utility.yul\":17056:17063   */\n      0x00\n        /* \"#utility.yul\":17096:17138   */\n      0xffffffffffffffffffffffffffffffffffffffff\n        /* \"#utility.yul\":17089:17094   */\n      dup3\n        /* \"#utility.yul\":17085:17139   */\n      and\n        /* \"#utility.yul\":17074:17139   */\n      swap1\n      pop\n        /* \"#utility.yul\":17019:17145   */\n      swap2\n      swap1\n      pop\n      jump\t// out\n        /* \"#utility.yul\":17151:17228   */\n    tag_608:\n        /* \"#utility.yul\":17188:17195   */\n      0x00\n        /* \"#utility.yul\":17217:17222   */\n      dup2\n        /* \"#utility.yul\":17206:17222   */\n      swap1\n      pop\n        /* \"#utility.yul\":17151:17228   */\n      swap2\n      swap1\n      pop\n      jump\t// out\n        /* \"#utility.yul\":17234:17373   */\n    tag_561:\n        /* \"#utility.yul\":17297:17306   */\n      0x00\n        /* \"#utility.yul\":17330:17367   */\n      tag_687\n        /* \"#utility.yul\":17361:17366   */\n      dup3\n        /* \"#utility.yul\":17330:17367   */\n      tag_688\n      jump\t// in\n    tag_687:\n        /* \"#utility.yul\":17317:17367   */\n      swap1\n      pop\n        /* \"#utility.yul\":17234:17373   */\n      swap2\n      swap1\n      pop\n      jump\t// out\n        /* \"#utility.yul\":17379:17505   */\n    tag_688:\n        /* \"#utility.yul\":17429:17438   */\n      0x00\n        /* \"#utility.yul\":17462:17499   */\n      tag_690\n        /* \"#utility.yul\":17493:17498   */\n      dup3\n        /* \"#utility.yul\":17462:17499   */\n      tag_691\n      jump\t// in\n    tag_690:\n        /* \"#utility.yul\":17449:17499   */\n      swap1\n      pop\n        /* \"#utility.yul\":17379:17505   */\n      swap2\n      swap1\n      pop\n      jump\t// out\n        /* \"#utility.yul\":17511:17624   */\n    tag_691:\n        /* \"#utility.yul\":17561:17570   */\n      0x00\n        /* \"#utility.yul\":17594:17618   */\n      tag_693\n        /* \"#utility.yul\":17612:17617   */\n      dup3\n        /* \"#utility.yul\":17594:17618   */\n      tag_680\n      jump\t// in\n    tag_693:\n        /* \"#utility.yul\":17581:17618   */\n      swap1\n      pop\n        /* \"#utility.yul\":17511:17624   */\n      swap2\n      swap1\n      pop\n      jump\t// out\n        /* \"#utility.yul\":17630:17784   */\n    tag_473:\n        /* \"#utility.yul\":17714:17720   */\n      dup3\n        /* \"#utility.yul\":17709:17712   */\n      dup2\n        /* \"#utility.yul\":17704:17707   */\n      dup4\n        /* \"#utility.yul\":17691:17721   */\n      calldatacopy\n        /* \"#utility.yul\":17776:17777   */\n      0x00\n        /* \"#utility.yul\":17767:17773   */\n      dup4\n        /* \"#utility.yul\":17762:17765   */\n      dup4\n        /* \"#utility.yul\":17758:17774   */\n      add\n        /* \"#utility.yul\":17751:17778   */\n      mstore\n        /* \"#utility.yul\":17630:17784   */\n      pop\n      pop\n      pop\n      jump\t// out\n        /* \"#utility.yul\":17790:18097   */\n    tag_573:\n        /* \"#utility.yul\":17858:17859   */\n      0x00\n        /* \"#utility.yul\":17868:17981   */\n    tag_696:\n        /* \"#utility.yul\":17882:17888   */\n      dup4\n        /* \"#utility.yul\":17879:17880   */\n      dup2\n        /* \"#utility.yul\":17876:17889   */\n      lt\n        /* \"#utility.yul\":17868:17981   */\n      iszero\n      tag_698\n      jumpi\n        /* \"#utility.yul\":17967:17968   */\n      dup1\n        /* \"#utility.yul\":17962:17965   */\n      dup3\n        /* \"#utility.yul\":17958:17969   */\n      add\n        /* \"#utility.yul\":17952:17970   */\n      mload\n        /* \"#utility.yul\":17948:17949   */\n      dup2\n        /* \"#utility.yul\":17943:17946   */\n      dup5\n        /* \"#utility.yul\":17939:17950   */\n      add\n        /* \"#utility.yul\":17932:17971   */\n      mstore\n        /* \"#utility.yul\":17904:17906   */\n      0x20\n        /* \"#utility.yul\":17901:17902   */\n      dup2\n        /* \"#utility.yul\":17897:17907   */\n      add\n        /* \"#utility.yul\":17892:17907   */\n      swap1\n      pop\n        /* \"#utility.yul\":17868:17981   */\n      jump(tag_696)\n    tag_698:\n        /* \"#utility.yul\":17999:18005   */\n      dup4\n        /* \"#utility.yul\":17996:17997   */\n      dup2\n        /* \"#utility.yul\":17993:18006   */\n      gt\n        /* \"#utility.yul\":17990:18091   */\n      iszero\n      tag_699\n      jumpi\n        /* \"#utility.yul\":18079:18080   */\n      0x00\n        /* \"#utility.yul\":18070:18076   */\n      dup5\n        /* \"#utility.yul\":18065:18068   */\n      dup5\n        /* \"#utility.yul\":18061:18077   */\n      add\n        /* \"#utility.yul\":18054:18081   */\n      mstore\n        /* \"#utility.yul\":17990:18091   */\n    tag_699:\n        /* \"#utility.yul\":17839:18097   */\n      pop\n        /* \"#utility.yul\":17790:18097   */\n      pop\n      pop\n      pop\n      jump\t// out\n        /* \"#utility.yul\":18103:18384   */\n    tag_645:\n        /* \"#utility.yul\":18186:18213   */\n      tag_701\n        /* \"#utility.yul\":18208:18212   */\n      dup3\n        /* \"#utility.yul\":18186:18213   */\n      tag_652\n      jump\t// in\n    tag_701:\n        /* \"#utility.yul\":18178:18184   */\n      dup2\n        /* \"#utility.yul\":18174:18214   */\n      add\n        /* \"#utility.yul\":18316:18322   */\n      dup2\n        /* \"#utility.yul\":18304:18314   */\n      dup2\n        /* \"#utility.yul\":18301:18323   */\n      lt\n        /* \"#utility.yul\":18280:18298   */\n      0xffffffffffffffff\n        /* \"#utility.yul\":18268:18278   */\n      dup3\n        /* \"#utility.yul\":18265:18299   */\n      gt\n        /* \"#utility.yul\":18262:18324   */\n      or\n        /* \"#utility.yul\":18259:18347   */\n      iszero\n      tag_702\n      jumpi\n        /* \"#utility.yul\":18327:18345   */\n      tag_703\n      tag_650\n      jump\t// in\n    tag_703:\n        /* \"#utility.yul\":18259:18347   */\n    tag_702:\n        /* \"#utility.yul\":18367:18377   */\n      dup1\n        /* \"#utility.yul\":18363:18365   */\n      0x40\n        /* \"#utility.yul\":18356:18378   */\n      mstore\n        /* \"#utility.yul\":18146:18384   */\n      pop\n        /* \"#utility.yul\":18103:18384   */\n      pop\n      pop\n      jump\t// out\n        /* \"#utility.yul\":18390:18623   */\n    tag_260:\n        /* \"#utility.yul\":18429:18432   */\n      0x00\n        /* \"#utility.yul\":18452:18476   */\n      tag_705\n        /* \"#utility.yul\":18470:18475   */\n      dup3\n        /* \"#utility.yul\":18452:18476   */\n      tag_608\n      jump\t// in\n    tag_705:\n        /* \"#utility.yul\":18443:18476   */\n      swap2\n      pop\n        /* \"#utility.yul\":18498:18564   */\n      0xffffffffffffffffffffffffffffffffffffffffffffffffffffffffffffffff\n        /* \"#utility.yul\":18491:18496   */\n      dup3\n        /* \"#utility.yul\":18488:18565   */\n      eq\n        /* \"#utility.yul\":18485:18588   */\n      iszero\n      tag_706\n      jumpi\n        /* \"#utility.yul\":18568:18586   */\n      tag_707\n      tag_661\n      jump\t// in\n    tag_707:\n        /* \"#utility.yul\":18485:18588   */\n    tag_706:\n        /* \"#utility.yul\":18615:18616   */\n      0x01\n        /* \"#utility.yul\":18608:18613   */\n      dup3\n        /* \"#utility.yul\":18604:18617   */\n      add\n        /* \"#utility.yul\":18597:18617   */\n      swap1\n      pop\n        /* \"#utility.yul\":18390:18623   */\n      swap2\n      swap1\n      pop\n      jump\t// out\n        /* \"#utility.yul\":18629:18809   */\n    tag_661:\n        /* \"#utility.yul\":18677:18754   */\n      0x4e487b7100000000000000000000000000000000000000000000000000000000\n        /* \"#utility.yul\":18674:18675   */\n      0x00\n        /* \"#utility.yul\":18667:18755   */\n      mstore\n        /* \"#utility.yul\":18774:18778   */\n      0x11\n        /* \"#utility.yul\":18771:18772   */\n      0x04\n        /* \"#utility.yul\":18764:18779   */\n      mstore\n        /* \"#utility.yul\":18798:18802   */\n      0x24\n        /* \"#utility.yul\":18795:18796   */\n      0x00\n        /* \"#utility.yul\":18788:18803   */\n      revert\n        /* \"#utility.yul\":18815:18995   */\n    tag_667:\n        /* \"#utility.yul\":18863:18940   */\n      0x4e487b7100000000000000000000000000000000000000000000000000000000\n        /* \"#utility.yul\":18860:18861   */\n      0x00\n        /* \"#utility.yul\":18853:18941   */\n      mstore\n        /* \"#utility.yul\":18960:18964   */\n      0x12\n        /* \"#utility.yul\":18957:18958   */\n      0x04\n        /* \"#utility.yul\":18950:18965   */\n      mstore\n        /* \"#utility.yul\":18984:18988   */\n      0x24\n        /* \"#utility.yul\":18981:18982   */\n      0x00\n        /* \"#utility.yul\":18974:18989   */\n      revert\n        /* \"#utility.yul\":19001:19181   */\n    tag_650:\n        /* \"#utility.yul\":19049:19126   */\n      0x4e487b7100000000000000000000000000000000000000000000000000000000\n        /* \"#utility.yul\":19046:19047   */\n      0x00\n        /* \"#utility.yul\":19039:19127   */\n      mstore\n        /* \"#utility.yul\":19146:19150   */\n      0x41\n        /* \"#utility.yul\":19143:19144   */\n      0x04\n        /* \"#utility.yul\":19136:19151   */\n      mstore\n        /* \"#utility.yul\":19170:19174   */\n      0x24\n        /* \"#utility.yul\":19167:19168   */\n      0x00\n        /* \"#utility.yul\":19160:19175   */\n      revert\n        /* \"#utility.yul\":19187:19304   */\n    tag_486:\n        /* \"#utility.yul\":19296:19297   */\n      0x00\n        /* \"#utility.yul\":19293:19294   */\n      dup1\n        /* \"#utility.yul\":19286:19298   */\n      revert\n        /* \"#utility.yul\":19310:19427   */\n    tag_471:\n        /* \"#utility.yul\":19419:19420   */\n      0x00\n        /* \"#utility.yul\":19416:19417   */\n      dup1\n        /* \"#utility.yul\":19409:19421   */\n      revert\n        /* \"#utility.yul\":19433:19550   */\n    tag_506:\n        /* \"#utility.yul\":19542:19543   */\n      0x00\n        /* \"#utility.yul\":19539:19540   */\n      dup1\n        /* \"#utility.yul\":19532:19544   */\n      revert\n        /* \"#utility.yul\":19556:19673   */\n    tag_498:\n        /* \"#utility.yul\":19665:19666   */\n      0x00\n        /* \"#utility.yul\":19662:19663   */\n      dup1\n        /* \"#utility.yul\":19655:19667   */\n      revert\n        /* \"#utility.yul\":19679:19781   */\n    tag_652:\n        /* \"#utility.yul\":19720:19726   */\n      0x00\n        /* \"#utility.yul\":19771:19773   */\n      0x1f\n        /* \"#utility.yul\":19767:19774   */\n      not\n        /* \"#utility.yul\":19762:19764   */\n      0x1f\n        /* \"#utility.yul\":19755:19760   */\n      dup4\n        /* \"#utility.yul\":19751:19765   */\n      add\n        /* \"#utility.yul\":19747:19775   */\n      and\n        /* \"#utility.yul\":19737:19775   */\n      swap1\n      pop\n        /* \"#utility.yul\":19679:19781   */\n      swap2\n      swap1\n      pop\n      jump\t// out\n        /* \"#utility.yul\":19787:20010   */\n    tag_579:\n        /* \"#utility.yul\":19927:19961   */\n      0x596f7520646f6e7420686176652074686174206d75636820746f207769746864\n        /* \"#utility.yul\":19923:19924   */\n      0x00\n        /* \"#utility.yul\":19915:19921   */\n      dup3\n        /* \"#utility.yul\":19911:19925   */\n      add\n        /* \"#utility.yul\":19904:19962   */\n      mstore\n        /* \"#utility.yul\":19996:20002   */\n      0x7261772100000000000000000000000000000000000000000000000000000000\n        /* \"#utility.yul\":19991:19993   */\n      0x20\n        /* \"#utility.yul\":19983:19989   */\n      dup3\n        /* \"#utility.yul\":19979:19994   */\n      add\n        /* \"#utility.yul\":19972:20003   */\n      mstore\n        /* \"#utility.yul\":19787:20010   */\n      pop\n      jump\t// out\n        /* \"#utility.yul\":20016:20187   */\n    tag_584:\n        /* \"#utility.yul\":20156:20179   */\n      0x546f6b656e207472616e73666572206661696c65640000000000000000000000\n        /* \"#utility.yul\":20152:20153   */\n      0x00\n        /* \"#utility.yul\":20144:20150   */\n      dup3\n        /* \"#utility.yul\":20140:20154   */\n      add\n        /* \"#utility.yul\":20133:20180   */\n      mstore\n        /* \"#utility.yul\":20016:20187   */\n      pop\n      jump\t// out\n        /* \"#utility.yul\":20193:20369   */\n    tag_589:\n        /* \"#utility.yul\":20333:20361   */\n      0x596f7520646f6e742068617665207468617420616d6f756e7421000000000000\n        /* \"#utility.yul\":20329:20330   */\n      0x00\n        /* \"#utility.yul\":20321:20327   */\n      dup3\n        /* \"#utility.yul\":20317:20331   */\n      add\n        /* \"#utility.yul\":20310:20362   */\n      mstore\n        /* \"#utility.yul\":20193:20369   */\n      pop\n      jump\t// out\n        /* \"#utility.yul\":20375:20546   */\n    tag_594:\n        /* \"#utility.yul\":20515:20538   */\n      0x506572207472616e73616374696f6e206c696d69740000000000000000000000\n        /* \"#utility.yul\":20511:20512   */\n      0x00\n        /* \"#utility.yul\":20503:20509   */\n      dup3\n        /* \"#utility.yul\":20499:20513   */\n      add\n        /* \"#utility.yul\":20492:20539   */\n      mstore\n        /* \"#utility.yul\":20375:20546   */\n      pop\n      jump\t// out\n        /* \"#utility.yul\":20552:20714   */\n    tag_599:\n        /* \"#utility.yul\":20692:20706   */\n      0x4e6f7420756e6c6f636b65640000000000000000000000000000000000000000\n        /* \"#utility.yul\":20688:20689   */\n      0x00\n        /* \"#utility.yul\":20680:20686   */\n      dup3\n        /* \"#utility.yul\":20676:20690   */\n      add\n        /* \"#utility.yul\":20669:20707   */\n      mstore\n        /* \"#utility.yul\":20552:20714   */\n      pop\n      jump\t// out\n        /* \"#utility.yul\":20720:20940   */\n    tag_604:\n        /* \"#utility.yul\":20860:20894   */\n      0x75696e74206f766572666c6f772066726f6d206d756c7469706c69636174696f\n        /* \"#utility.yul\":20856:20857   */\n      0x00\n        /* \"#utility.yul\":20848:20854   */\n      dup3\n        /* \"#utility.yul\":20844:20858   */\n      add\n        /* \"#utility.yul\":20837:20895   */\n      mstore\n        /* \"#utility.yul\":20929:20932   */\n      0x6e00000000000000000000000000000000000000000000000000000000000000\n        /* \"#utility.yul\":20924:20926   */\n      0x20\n        /* \"#utility.yul\":20916:20922   */\n      dup3\n        /* \"#utility.yul\":20912:20927   */\n      add\n        /* \"#utility.yul\":20905:20933   */\n      mstore\n        /* \"#utility.yul\":20720:20940   */\n      pop\n      jump\t// out\n        /* \"#utility.yul\":20946:21068   */\n    tag_477:\n        /* \"#utility.yul\":21019:21043   */\n      tag_723\n        /* \"#utility.yul\":21037:21042   */\n      dup2\n        /* \"#utility.yul\":21019:21043   */\n      tag_557\n      jump\t// in\n    tag_723:\n        /* \"#utility.yul\":21012:21017   */\n      dup2\n        /* \"#utility.yul\":21009:21044   */\n      eq\n        /* \"#utility.yul\":20999:21062   */\n      tag_724\n      jumpi\n        /* \"#utility.yul\":21058:21059   */\n      0x00\n        /* \"#utility.yul\":21055:21056   */\n      dup1\n        /* \"#utility.yul\":21048:21060   */\n      revert\n        /* \"#utility.yul\":20999:21062   */\n    tag_724:\n        /* \"#utility.yul\":20946:21068   */\n      pop\n      jump\t// out\n        /* \"#utility.yul\":21074:21190   */\n    tag_481:\n        /* \"#utility.yul\":21144:21165   */\n      tag_726\n        /* \"#utility.yul\":21159:21164   */\n      dup2\n        /* \"#utility.yul\":21144:21165   */\n      tag_681\n      jump\t// in\n    tag_726:\n        /* \"#utility.yul\":21137:21142   */\n      dup2\n        /* \"#utility.yul\":21134:21166   */\n      eq\n        /* \"#utility.yul\":21124:21184   */\n      tag_727\n      jumpi\n        /* \"#utility.yul\":21180:21181   */\n      0x00\n        /* \"#utility.yul\":21177:21178   */\n      dup1\n        /* \"#utility.yul\":21170:21182   */\n      revert\n        /* \"#utility.yul\":21124:21184   */\n    tag_727:\n        /* \"#utility.yul\":21074:21190   */\n      pop\n      jump\t// out\n        /* \"#utility.yul\":21196:21318   */\n    tag_491:\n        /* \"#utility.yul\":21269:21293   */\n      tag_729\n        /* \"#utility.yul\":21287:21292   */\n      dup2\n        /* \"#utility.yul\":21269:21293   */\n      tag_608\n      jump\t// in\n    tag_729:\n        /* \"#utility.yul\":21262:21267   */\n      dup2\n        /* \"#utility.yul\":21259:21294   */\n      eq\n        /* \"#utility.yul\":21249:21312   */\n      tag_730\n      jumpi\n        /* \"#utility.yul\":21308:21309   */\n      0x00\n        /* \"#utility.yul\":21305:21306   */\n      dup1\n        /* \"#utility.yul\":21298:21310   */\n      revert\n        /* \"#utility.yul\":21249:21312   */\n    tag_730:\n        /* \"#utility.yul\":21196:21318   */\n      pop\n      jump\t// out\n\n    auxdata: 0xa2646970667358221220ae0f66cf4bb492adb945a6e113aed2e690bff29ea2aa27f2c54ca470e7a417a064736f6c63430008070033\n}\n",
				"bytecode": {
					"linkReferences": {},
					"object": "6080604052670de0b6b3a764000061c3506200001c9190620004e1565b600a55620186a0600d5562015f90600e55620927c0600f5573617f2e2fd72fd9d5503197092ac168c91465e7f2601160006101000a81548173ffffffffffffffffffffffffffffffffffffffff021916908373ffffffffffffffffffffffffffffffffffffffff1602179055503480156200009657600080fd5b5060405162003532380380620035328339818101604052810190620000bc9190620003d5565b81601c60006101000a81548173ffffffffffffffffffffffffffffffffffffffff021916908373ffffffffffffffffffffffffffffffffffffffff16021790555080601d60006101000a81548173ffffffffffffffffffffffffffffffffffffffff021916908373ffffffffffffffffffffffffffffffffffffffff16021790555081601260006101000a81548173ffffffffffffffffffffffffffffffffffffffff021916908373ffffffffffffffffffffffffffffffffffffffff160217905550732f8895b08d8f226b19895d46154fab7096fb2593601a604051620001a490620004bf565b908152602001604051809103902060000160006101000a81548173ffffffffffffffffffffffffffffffffffffffff021916908373ffffffffffffffffffffffffffffffffffffffff1602179055506005601a6040516200020590620004bf565b908152602001604051809103902060010181905550732a4a8ab6a0bc0d377098f8688f77003833bc1c9d601a6040516200023f90620004a8565b908152602001604051809103902060000160006101000a81548173ffffffffffffffffffffffffffffffffffffffff021916908373ffffffffffffffffffffffffffffffffffffffff1602179055506012601a604051620002a090620004a8565b90815260200160405180910390206001018190555073dc301622e621166bd8e82f2ca0a26c13ad0be355601a604051620002da9062000491565b908152602001604051809103902060000160006101000a81548173ffffffffffffffffffffffffffffffffffffffff021916908373ffffffffffffffffffffffffffffffffffffffff1602179055506012601a6040516200033b9062000491565b90815260200160405180910390206001018190555073617f2e2fd72fd9d5503197092ac168c91465e7f2600660006101000a81548173ffffffffffffffffffffffffffffffffffffffff021916908373ffffffffffffffffffffffffffffffffffffffff16021790555042600b8190555062069780600c81905550505062000649565b600081519050620003cf816200062f565b92915050565b60008060408385031215620003ef57620003ee620005af565b5b6000620003ff85828601620003be565b92505060206200041285828601620003be565b9150509250929050565b60006200042b600483620004d6565b91506200043882620005b4565b600482019050919050565b600062000452600383620004d6565b91506200045f82620005dd565b600382019050919050565b600062000479600483620004d6565b9150620004868262000606565b600482019050919050565b60006200049e826200041c565b9150819050919050565b6000620004b58262000443565b9150819050919050565b6000620004cc826200046a565b9150819050919050565b600081905092915050565b6000620004ee8262000576565b9150620004fb8362000576565b9250817fffffffffffffffffffffffffffffffffffffffffffffffffffffffffffffffff048311821515161562000537576200053662000580565b5b828202905092915050565b60006200054f8262000556565b9050919050565b600073ffffffffffffffffffffffffffffffffffffffff82169050919050565b6000819050919050565b7f4e487b7100000000000000000000000000000000000000000000000000000000600052601160045260246000fd5b600080fd5b7f4652415800000000000000000000000000000000000000000000000000000000600082015250565b7f4441490000000000000000000000000000000000000000000000000000000000600082015250565b7f5553444300000000000000000000000000000000000000000000000000000000600082015250565b6200063a8162000542565b81146200064657600080fd5b50565b612ed980620006596000396000f3fe6080604052600436106102465760003560e01c80636e05c1b911610139578063c0ca6fb4116100b6578063e5d980821161007a578063e5d9808214610870578063ee62086814610899578063eee05f5e146108c4578063f7523c52146108ef578063fbbb45891461092c578063fc3614431461095757610246565b8063c0ca6fb4146107a8578063c0ce5889146107d3578063cbff4617146107ef578063d04d79081461081a578063d82eddf21461084557610246565b806393f7b711116100fd57806393f7b711146106c25780639b19251a146106ed578063a475bf4814610716578063bdad7f0214610754578063c079d7f61461077d57610246565b80636e05c1b9146105ed5780636f10e285146106185780637087a7a51461064357806371cd58f91461066e578063862d1b351461069957610246565b806326ae486e116101c75780633c6eb17a1161018b5780633c6eb17a1461050657806343d32e9c1461053157806364ce07d81461055c57806367b48c911461059957806367e927a8146105c457610246565b806326ae486e1461041f57806329982a321461044a5780632a9f0fb11461047557806335453307146104b257806339ad95d6146104dd57610246565b80631514c9761161020e5780631514c97614610335578063164c8501146103725780631a30e8721461039b5780631bc9cc45146103d85780631f564a06146103f457610246565b8063018a25e81461024b578063047729b0146102765780630ccaf04f146102a15780630f65de3e146102cc57806312b2ed94146102f7575b600080fd5b34801561025757600080fd5b50610260610980565b60405161026d919061294d565b60405180910390f35b34801561028257600080fd5b5061028b610a9e565b60405161029891906127dc565b60405180910390f35b3480156102ad57600080fd5b506102b6610ac4565b6040516102c3919061294d565b60405180910390f35b3480156102d857600080fd5b506102e1610c1e565b6040516102ee919061294d565b60405180910390f35b34801561030357600080fd5b5061031e600480360381019061031991906123b3565b610cac565b60405161032c929190612968565b60405180910390f35b34801561034157600080fd5b5061035c60048036038101906103579190612521565b610cd0565b604051610369919061294d565b60405180910390f35b34801561037e57600080fd5b5061039960048036038101906103949190612521565b610ce8565b005b3480156103a757600080fd5b506103c260048036038101906103bd9190612521565b610e66565b6040516103cf919061294d565b60405180910390f35b6103f260048036038101906103ed9190612521565b610e7e565b005b34801561040057600080fd5b50610409611016565b604051610416919061294d565b60405180910390f35b34801561042b57600080fd5b506104346110c8565b6040516104419190612857565b60405180910390f35b34801561045657600080fd5b5061045f6110ee565b60405161046c91906127dc565b60405180910390f35b34801561048157600080fd5b5061049c60048036038101906104979190612521565b611114565b6040516104a9919061294d565b60405180910390f35b3480156104be57600080fd5b506104c761112c565b6040516104d4919061294d565b60405180910390f35b3480156104e957600080fd5b5061050460048036038101906104ff9190612521565b611132565b005b34801561051257600080fd5b5061051b611135565b604051610528919061294d565b60405180910390f35b34801561053d57600080fd5b5061054661113b565b604051610553919061294d565b60405180910390f35b34801561056857600080fd5b50610583600480360381019061057e91906125d7565b611259565b604051610590919061294d565b60405180910390f35b3480156105a557600080fd5b506105ae61129a565b6040516105bb919061294d565b60405180910390f35b3480156105d057600080fd5b506105eb60048036038101906105e69190612521565b6112a0565b005b3480156105f957600080fd5b50610602611351565b60405161060f9190612857565b60405180910390f35b34801561062457600080fd5b5061062d611377565b60405161063a9190612872565b60405180910390f35b34801561064f57600080fd5b5061065861138a565b6040516106659190612857565b60405180910390f35b34801561067a57600080fd5b506106836113b0565b604051610690919061294d565b60405180910390f35b3480156106a557600080fd5b506106c060048036038101906106bb919061257b565b611467565b005b3480156106ce57600080fd5b506106d7611872565b6040516106e4919061294d565b60405180910390f35b3480156106f957600080fd5b50610714600480360381019061070f91906123b3565b6119cc565b005b34801561072257600080fd5b5061073d60048036038101906107389190612469565b6119cf565b60405161074b92919061282e565b60405180910390f35b34801561076057600080fd5b5061077b600480360381019061077691906123e0565b611a29565b005b34801561078957600080fd5b50610792611baa565b60405161079f91906127dc565b60405180910390f35b3480156107b457600080fd5b506107bd611bd0565b6040516107ca9190612857565b60405180910390f35b6107ed60048036038101906107e89190612617565b611bf6565b005b3480156107fb57600080fd5b50610804611f6f565b604051610811919061294d565b60405180910390f35b34801561082657600080fd5b5061082f611f75565b60405161083c9190612857565b60405180910390f35b34801561085157600080fd5b5061085a611f9b565b604051610867919061294d565b60405180910390f35b34801561087c57600080fd5b50610897600480360381019061089291906124b2565b611ffe565b005b3480156108a557600080fd5b506108ae612089565b6040516108bb919061294d565b60405180910390f35b3480156108d057600080fd5b506108d961208f565b6040516108e691906127dc565b60405180910390f35b3480156108fb57600080fd5b50610916600480360381019061091191906125d7565b6120b5565b604051610923919061294d565b60405180910390f35b34801561093857600080fd5b506109416120fe565b60405161094e91906127dc565b60405180910390f35b34801561096357600080fd5b5061097e60048036038101906109799190612521565b612124565b005b6000610a993073ffffffffffffffffffffffffffffffffffffffff16631f564a066040518163ffffffff1660e01b815260040160206040518083038186803b1580156109cb57600080fd5b505afa1580156109df573d6000803e3d6000fd5b505050506040513d601f19601f82011682018060405250810190610a03919061254e565b3073ffffffffffffffffffffffffffffffffffffffff166393f7b7116040518163ffffffff1660e01b815260040160206040518083038186803b158015610a4957600080fd5b505afa158015610a5d573d6000803e3d6000fd5b505050506040513d601f19601f82011682018060405250810190610a81919061254e565b6710a741a462780000610a949190612a0e565b6120b5565b905090565b600860009054906101000a900473ffffffffffffffffffffffffffffffffffffffff1681565b60008060008062015180600c54610adb9190612a64565b9050600062015180600b5442610af19190612aef565b610afb9190612a64565b9050600080821415610b225760196000808152602001908152602001600020549350610b6e565b8282610b2e9190612aef565b90505b81811015610b6d57601960008281526020019081526020016000205484610b589190612a0e565b93508080610b6590612c21565b915050610b31565b5b610bf53073ffffffffffffffffffffffffffffffffffffffff1663d82eddf26040518163ffffffff1660e01b815260040160206040518083038186803b158015610bb757600080fd5b505afa158015610bcb573d6000803e3d6000fd5b505050506040513d601f19601f82011682018060405250810190610bef919061254e565b85611259565b9450670429d069189e0000851115610c1357670429d069189e000094505b849550505050505090565b60008062015180600b5442610c339190612aef565b610c3d9190612a64565b905060008062015180600c54610c539190612a64565b905060008184610c639190612aef565b90505b83811015610ca257601960008281526020019081526020016000205483610c8d9190612a0e565b92508080610c9a90612c21565b915050610c66565b8294505050505090565b601b6020528060005260406000206000915090508060000154908060010154905082565b60186020528060005260406000206000915090505481565b601b60003373ffffffffffffffffffffffffffffffffffffffff1673ffffffffffffffffffffffffffffffffffffffff168152602001908152602001600020600101548110610d6c576040517f08c379a0000000000000000000000000000000000000000000000000000000008152600401610d639061288d565b60405180910390fd5b80601b60003373ffffffffffffffffffffffffffffffffffffffff1673ffffffffffffffffffffffffffffffffffffffff1681526020019081526020016000206001016000828254610dbe9190612aef565b925050819055506000601b60003373ffffffffffffffffffffffffffffffffffffffff1673ffffffffffffffffffffffffffffffffffffffff168152602001908152602001600020600101541415610e6357601b60003373ffffffffffffffffffffffffffffffffffffffff1673ffffffffffffffffffffffffffffffffffffffff168152602001908152602001600020600080820160009055600182016000905550505b50565b60196020528060005260406000206000915090505481565b6000601260009054906101000a900473ffffffffffffffffffffffffffffffffffffffff1673ffffffffffffffffffffffffffffffffffffffff166370a08231336040518263ffffffff1660e01b8152600401610edb91906127dc565b60206040518083038186803b158015610ef357600080fd5b505afa158015610f07573d6000803e3d6000fd5b505050506040513d601f19601f82011682018060405250810190610f2b919061254e565b9050818111610f6f576040517f08c379a0000000000000000000000000000000000000000000000000000000008152600401610f66906128cd565b60405180910390fd5b610f9d601260009054906101000a900473ffffffffffffffffffffffffffffffffffffffff1633308561213c565b600062015180600b5442610fb19190612aef565b610fbb9190612a64565b905082601860008381526020019081526020016000206000828254610fe09190612a0e565b925050819055508260196000838152602001908152602001600020600082825461100a9190612aef565b92505081905550505050565b60006110c3600a54601260009054906101000a900473ffffffffffffffffffffffffffffffffffffffff1673ffffffffffffffffffffffffffffffffffffffff166318160ddd6040518163ffffffff1660e01b815260040160206040518083038186803b15801561108657600080fd5b505afa15801561109a573d6000803e3d6000fd5b505050506040513d601f19601f820116820180604052508101906110be919061254e565b611259565b905090565b601360009054906101000a900473ffffffffffffffffffffffffffffffffffffffff1681565b600960009054906101000a900473ffffffffffffffffffffffffffffffffffffffff1681565b60176020528060005260406000206000915090505481565b600a5481565b50565b600b5481565b60006112543073ffffffffffffffffffffffffffffffffffffffff16631f564a066040518163ffffffff1660e01b815260040160206040518083038186803b15801561118657600080fd5b505afa15801561119a573d6000803e3d6000fd5b505050506040513d601f19601f820116820180604052508101906111be919061254e565b3073ffffffffffffffffffffffffffffffffffffffff16630ccaf04f6040518163ffffffff1660e01b815260040160206040518083038186803b15801561120457600080fd5b505afa158015611218573d6000803e3d6000fd5b505050506040513d601f19601f8201168201806040525081019061123c919061254e565b670c7d713b49da000061124f9190612aef565b6120b5565b905090565b60008061126e84670de0b6b3a7640000612216565b905082611287826002866112829190612a64565b612291565b6112919190612a64565b91505092915050565b600c5481565b620d2f00426112af9190612a0e565b601b60003373ffffffffffffffffffffffffffffffffffffffff1673ffffffffffffffffffffffffffffffffffffffff1681526020019081526020016000206000018190555080601b60003373ffffffffffffffffffffffffffffffffffffffff1673ffffffffffffffffffffffffffffffffffffffff16815260200190815260200160002060010160008282546113479190612a0e565b9250508190555050565b601260009054906101000a900473ffffffffffffffffffffffffffffffffffffffff1681565b601060009054906101000a9004600f0b81565b601660009054906101000a900473ffffffffffffffffffffffffffffffffffffffff1681565b60008060008062015180600c546113c79190612a64565b9050600062015180600b54426113dd9190612aef565b6113e79190612a64565b90506000811415611411576017600080815260200190815260200160002054945050505050611464565b818161141d9190612aef565b92505b8083101561145c576017600084815260200190815260200160002054846114479190612a0e565b9350828061145490612c21565b935050611420565b839450505050505b90565b601a8160405161147791906127c5565b908152602001604051809103902060000160009054906101000a900473ffffffffffffffffffffffffffffffffffffffff16601660006101000a81548173ffffffffffffffffffffffffffffffffffffffff021916908373ffffffffffffffffffffffffffffffffffffffff1602179055506203d09082111561152f576040517f08c379a0000000000000000000000000000000000000000000000000000000008152600401611526906128ed565b60405180910390fd5b6000601660009054906101000a900473ffffffffffffffffffffffffffffffffffffffff1673ffffffffffffffffffffffffffffffffffffffff166370a08231336040518263ffffffff1660e01b815260040161158c91906127dc565b60206040518083038186803b1580156115a457600080fd5b505afa1580156115b8573d6000803e3d6000fd5b505050506040513d601f19601f820116820180604052508101906115dc919061254e565b9050828111611620576040517f08c379a0000000000000000000000000000000000000000000000000000000008152600401611617906128cd565b60405180910390fd5b6000601a8360405161163291906127c5565b9081526020016040518091039020600101543073ffffffffffffffffffffffffffffffffffffffff1663018a25e86040518163ffffffff1660e01b815260040160206040518083038186803b15801561168a57600080fd5b505afa15801561169e573d6000803e3d6000fd5b505050506040513d601f19601f820116820180604052508101906116c2919061254e565b856116cd9190612a95565b6116d79190612a95565b9050611707601660009054906101000a900473ffffffffffffffffffffffffffffffffffffffff1633308461213c565b601c60009054906101000a900473ffffffffffffffffffffffffffffffffffffffff1673ffffffffffffffffffffffffffffffffffffffff166340c10f1933670de0b6b3a76400008761175a9190612a95565b6040518363ffffffff1660e01b815260040161177792919061282e565b600060405180830381600087803b15801561179157600080fd5b505af11580156117a5573d6000803e3d6000fd5b50505050600062015180600b54426117bd9190612aef565b6117c79190612a64565b9050846017600083815260200190815260200160002060008282546117ec9190612a0e565b92505081905550846019600083815260200190815260200160002060008282546118169190612a0e565b925050819055503373ffffffffffffffffffffffffffffffffffffffff167ff633443b01504d269657083d48bb6de98e089cfff672b47fefbed21608b5c77986604051611863919061294d565b60405180910390a25050505050565b60008060008062015180600c546118899190612a64565b9050600062015180600b544261189f9190612aef565b6118a99190612a64565b90506000808214156118d0576019600080815260200190815260200160002054935061191c565b82826118dc9190612aef565b90505b8181101561191b576019600082815260200190815260200160002054846119069190612a0e565b9350808061191390612c21565b9150506118df565b5b6119a33073ffffffffffffffffffffffffffffffffffffffff166371cd58f96040518163ffffffff1660e01b815260040160206040518083038186803b15801561196557600080fd5b505afa158015611979573d6000803e3d6000fd5b505050506040513d601f19601f8201168201806040525081019061199d919061254e565b85611259565b9450670429d069189e00008511156119c157670429d069189e000094505b849550505050505090565b50565b601a818051602081018201805184825260208301602085012081835280955050505050506000915090508060000160009054906101000a900473ffffffffffffffffffffffffffffffffffffffff16908060010154905082565b601b60008373ffffffffffffffffffffffffffffffffffffffff1673ffffffffffffffffffffffffffffffffffffffff16815260200190815260200160002060000154421015611aae576040517f08c379a0000000000000000000000000000000000000000000000000000000008152600401611aa59061290d565b60405180910390fd5b601a81604051611abe91906127c5565b908152602001604051809103902060000160009054906101000a900473ffffffffffffffffffffffffffffffffffffffff16601660006101000a81548173ffffffffffffffffffffffffffffffffffffffff021916908373ffffffffffffffffffffffffffffffffffffffff1602179055506000601b60008473ffffffffffffffffffffffffffffffffffffffff1673ffffffffffffffffffffffffffffffffffffffff168152602001908152602001600020600101549050611ba5601660009054906101000a900473ffffffffffffffffffffffffffffffffffffffff1630338461213c565b505050565b600760009054906101000a900473ffffffffffffffffffffffffffffffffffffffff1681565b601560009054906101000a900473ffffffffffffffffffffffffffffffffffffffff1681565b601a81604051611c0691906127c5565b908152602001604051809103902060000160009054906101000a900473ffffffffffffffffffffffffffffffffffffffff16601660006101000a81548173ffffffffffffffffffffffffffffffffffffffff021916908373ffffffffffffffffffffffffffffffffffffffff1602179055506000601260009054906101000a900473ffffffffffffffffffffffffffffffffffffffff1673ffffffffffffffffffffffffffffffffffffffff166370a08231336040518263ffffffff1660e01b8152600401611cd591906127dc565b60206040518083038186803b158015611ced57600080fd5b505afa158015611d01573d6000803e3d6000fd5b505050506040513d601f19601f82011682018060405250810190611d25919061254e565b9050838111611d69576040517f08c379a0000000000000000000000000000000000000000000000000000000008152600401611d60906128cd565b60405180910390fd5b601660009054906101000a900473ffffffffffffffffffffffffffffffffffffffff1673ffffffffffffffffffffffffffffffffffffffff1663a9059cbb33670de0b6b3a76400006001611dbd9190612a95565b87611dc89190612a0e565b6040518363ffffffff1660e01b8152600401611de592919061282e565b602060405180830381600087803b158015611dff57600080fd5b505af1158015611e13573d6000803e3d6000fd5b505050506040513d601f19601f82011682018060405250810190611e37919061243c565b50611e66601260009054906101000a900473ffffffffffffffffffffffffffffffffffffffff1633308761213c565b6000843073ffffffffffffffffffffffffffffffffffffffff166343d32e9c6040518163ffffffff1660e01b815260040160206040518083038186803b158015611eaf57600080fd5b505afa158015611ec3573d6000803e3d6000fd5b505050506040513d601f19601f82011682018060405250810190611ee7919061254e565b611ef19190612a95565b9050600062015180600b5442611f079190612aef565b611f119190612a64565b905085601860008381526020019081526020016000206000828254611f369190612a0e565b9250508190555085601960008381526020019081526020016000206000828254611f609190612aef565b92505081905550505050505050565b60015481565b601460009054906101000a900473ffffffffffffffffffffffffffffffffffffffff1681565b60008060008062015180600c54611fb29190612a64565b9050600091505b80821015611ff557601860008381526020019081526020016000205483611fe09190612a0e565b92508180611fed90612c21565b925050611fb9565b82935050505090565b81601a8460405161200f91906127c5565b908152602001604051809103902060000160006101000a81548173ffffffffffffffffffffffffffffffffffffffff021916908373ffffffffffffffffffffffffffffffffffffffff16021790555080601a8460405161206f91906127c5565b908152602001604051809103902060010181905550505050565b60005481565b601160009054906101000a900473ffffffffffffffffffffffffffffffffffffffff1681565b6000806120c28484612216565b9050670de0b6b3a76400006120eb826002670de0b6b3a76400006120e69190612a64565b612291565b6120f59190612a64565b91505092915050565b600660009054906101000a900473ffffffffffffffffffffffffffffffffffffffff1681565b62015180816121339190612a95565b600c8190555050565b60008473ffffffffffffffffffffffffffffffffffffffff166323b872dd8585856040518463ffffffff1660e01b815260040161217b939291906127f7565b602060405180830381600087803b15801561219557600080fd5b505af11580156121a9573d6000803e3d6000fd5b505050506040513d601f19601f820116820180604052508101906121cd919061243c565b90508061220f576040517f08c379a0000000000000000000000000000000000000000000000000000000008152600401612206906128ad565b60405180910390fd5b5050505050565b600080831415612229576000905061228b565b600082846122379190612a95565b90508284826122469190612a64565b14612286576040517f08c379a000000000000000000000000000000000000000000000000000000000815260040161227d9061292d565b60405180910390fd5b809150505b92915050565b60008082846122a09190612a0e565b9050838110156122e5576040517f08c379a00000000000000000000000000000000000000000000000000000000081526004016122dc9061292d565b60405180910390fd5b8091505092915050565b60006123026122fd846129b6565b612991565b90508281526020810184848401111561231e5761231d612cfc565b5b612329848285612bae565b509392505050565b60008135905061234081612e5e565b92915050565b60008151905061235581612e75565b92915050565b600082601f8301126123705761236f612cf7565b5b81356123808482602086016122ef565b91505092915050565b60008135905061239881612e8c565b92915050565b6000815190506123ad81612e8c565b92915050565b6000602082840312156123c9576123c8612d06565b5b60006123d784828501612331565b91505092915050565b600080604083850312156123f7576123f6612d06565b5b600061240585828601612331565b925050602083013567ffffffffffffffff81111561242657612425612d01565b5b6124328582860161235b565b9150509250929050565b60006020828403121561245257612451612d06565b5b600061246084828501612346565b91505092915050565b60006020828403121561247f5761247e612d06565b5b600082013567ffffffffffffffff81111561249d5761249c612d01565b5b6124a98482850161235b565b91505092915050565b6000806000606084860312156124cb576124ca612d06565b5b600084013567ffffffffffffffff8111156124e9576124e8612d01565b5b6124f58682870161235b565b935050602061250686828701612331565b925050604061251786828701612389565b9150509250925092565b60006020828403121561253757612536612d06565b5b600061254584828501612389565b91505092915050565b60006020828403121561256457612563612d06565b5b60006125728482850161239e565b91505092915050565b6000806040838503121561259257612591612d06565b5b60006125a085828601612389565b925050602083013567ffffffffffffffff8111156125c1576125c0612d01565b5b6125cd8582860161235b565b9150509250929050565b600080604083850312156125ee576125ed612d06565b5b60006125fc85828601612389565b925050602061260d85828601612389565b9150509250929050565b6000806000606084860312156126305761262f612d06565b5b600061263e86828701612389565b935050602061264f86828701612389565b925050604084013567ffffffffffffffff8111156126705761266f612d01565b5b61267c8682870161235b565b9150509250925092565b61268f81612b23565b82525050565b61269e81612b78565b82525050565b6126ad81612b41565b82525050565b60006126be826129e7565b6126c88185612a03565b93506126d8818560208601612bbd565b80840191505092915050565b60006126f16024836129f2565b91506126fc82612d1c565b604082019050919050565b60006127146015836129f2565b915061271f82612d6b565b602082019050919050565b6000612737601a836129f2565b915061274282612d94565b602082019050919050565b600061275a6015836129f2565b915061276582612dbd565b602082019050919050565b600061277d600c836129f2565b915061278882612de6565b602082019050919050565b60006127a06021836129f2565b91506127ab82612e0f565b604082019050919050565b6127bf81612b6e565b82525050565b60006127d182846126b3565b915081905092915050565b60006020820190506127f16000830184612686565b92915050565b600060608201905061280c6000830186612686565b6128196020830185612686565b61282660408301846127b6565b949350505050565b60006040820190506128436000830185612686565b61285060208301846127b6565b9392505050565b600060208201905061286c6000830184612695565b92915050565b600060208201905061288760008301846126a4565b92915050565b600060208201905081810360008301526128a6816126e4565b9050919050565b600060208201905081810360008301526128c681612707565b9050919050565b600060208201905081810360008301526128e68161272a565b9050919050565b600060208201905081810360008301526129068161274d565b9050919050565b6000602082019050818103600083015261292681612770565b9050919050565b6000602082019050818103600083015261294681612793565b9050919050565b600060208201905061296260008301846127b6565b92915050565b600060408201905061297d60008301856127b6565b61298a60208301846127b6565b9392505050565b600061299b6129ac565b90506129a78282612bf0565b919050565b6000604051905090565b600067ffffffffffffffff8211156129d1576129d0612cc8565b5b6129da82612d0b565b9050602081019050919050565b600081519050919050565b600082825260208201905092915050565b600081905092915050565b6000612a1982612b6e565b9150612a2483612b6e565b9250827fffffffffffffffffffffffffffffffffffffffffffffffffffffffffffffffff03821115612a5957612a58612c6a565b5b828201905092915050565b6000612a6f82612b6e565b9150612a7a83612b6e565b925082612a8a57612a89612c99565b5b828204905092915050565b6000612aa082612b6e565b9150612aab83612b6e565b9250817fffffffffffffffffffffffffffffffffffffffffffffffffffffffffffffffff0483118215151615612ae457612ae3612c6a565b5b828202905092915050565b6000612afa82612b6e565b9150612b0583612b6e565b925082821015612b1857612b17612c6a565b5b828203905092915050565b6000612b2e82612b4e565b9050919050565b60008115159050919050565b600081600f0b9050919050565b600073ffffffffffffffffffffffffffffffffffffffff82169050919050565b6000819050919050565b6000612b8382612b8a565b9050919050565b6000612b9582612b9c565b9050919050565b6000612ba782612b4e565b9050919050565b82818337600083830152505050565b60005b83811015612bdb578082015181840152602081019050612bc0565b83811115612bea576000848401525b50505050565b612bf982612d0b565b810181811067ffffffffffffffff82111715612c1857612c17612cc8565b5b80604052505050565b6000612c2c82612b6e565b91507fffffffffffffffffffffffffffffffffffffffffffffffffffffffffffffffff821415612c5f57612c5e612c6a565b5b600182019050919050565b7f4e487b7100000000000000000000000000000000000000000000000000000000600052601160045260246000fd5b7f4e487b7100000000000000000000000000000000000000000000000000000000600052601260045260246000fd5b7f4e487b7100000000000000000000000000000000000000000000000000000000600052604160045260246000fd5b600080fd5b600080fd5b600080fd5b600080fd5b6000601f19601f8301169050919050565b7f596f7520646f6e7420686176652074686174206d75636820746f20776974686460008201527f7261772100000000000000000000000000000000000000000000000000000000602082015250565b7f546f6b656e207472616e73666572206661696c65640000000000000000000000600082015250565b7f596f7520646f6e742068617665207468617420616d6f756e7421000000000000600082015250565b7f506572207472616e73616374696f6e206c696d69740000000000000000000000600082015250565b7f4e6f7420756e6c6f636b65640000000000000000000000000000000000000000600082015250565b7f75696e74206f766572666c6f772066726f6d206d756c7469706c69636174696f60008201527f6e00000000000000000000000000000000000000000000000000000000000000602082015250565b612e6781612b23565b8114612e7257600080fd5b50565b612e7e81612b35565b8114612e8957600080fd5b50565b612e9581612b6e565b8114612ea057600080fd5b5056fea2646970667358221220ae0f66cf4bb492adb945a6e113aed2e690bff29ea2aa27f2c54ca470e7a417a064736f6c63430008070033",
					"opcodes": "PUSH1 0x80 PUSH1 0x40 MSTORE PUSH8 0xDE0B6B3A7640000 PUSH2 0xC350 PUSH3 0x1C SWAP2 SWAP1 PUSH3 0x4E1 JUMP JUMPDEST PUSH1 0xA SSTORE PUSH3 0x186A0 PUSH1 0xD SSTORE PUSH3 0x15F90 PUSH1 0xE SSTORE PUSH3 0x927C0 PUSH1 0xF SSTORE PUSH20 0x617F2E2FD72FD9D5503197092AC168C91465E7F2 PUSH1 0x11 PUSH1 0x0 PUSH2 0x100 EXP DUP2 SLOAD DUP2 PUSH20 0xFFFFFFFFFFFFFFFFFFFFFFFFFFFFFFFFFFFFFFFF MUL NOT AND SWAP1 DUP4 PUSH20 0xFFFFFFFFFFFFFFFFFFFFFFFFFFFFFFFFFFFFFFFF AND MUL OR SWAP1 SSTORE POP CALLVALUE DUP1 ISZERO PUSH3 0x96 JUMPI PUSH1 0x0 DUP1 REVERT JUMPDEST POP PUSH1 0x40 MLOAD PUSH3 0x3532 CODESIZE SUB DUP1 PUSH3 0x3532 DUP4 CODECOPY DUP2 DUP2 ADD PUSH1 0x40 MSTORE DUP2 ADD SWAP1 PUSH3 0xBC SWAP2 SWAP1 PUSH3 0x3D5 JUMP JUMPDEST DUP2 PUSH1 0x1C PUSH1 0x0 PUSH2 0x100 EXP DUP2 SLOAD DUP2 PUSH20 0xFFFFFFFFFFFFFFFFFFFFFFFFFFFFFFFFFFFFFFFF MUL NOT AND SWAP1 DUP4 PUSH20 0xFFFFFFFFFFFFFFFFFFFFFFFFFFFFFFFFFFFFFFFF AND MUL OR SWAP1 SSTORE POP DUP1 PUSH1 0x1D PUSH1 0x0 PUSH2 0x100 EXP DUP2 SLOAD DUP2 PUSH20 0xFFFFFFFFFFFFFFFFFFFFFFFFFFFFFFFFFFFFFFFF MUL NOT AND SWAP1 DUP4 PUSH20 0xFFFFFFFFFFFFFFFFFFFFFFFFFFFFFFFFFFFFFFFF AND MUL OR SWAP1 SSTORE POP DUP2 PUSH1 0x12 PUSH1 0x0 PUSH2 0x100 EXP DUP2 SLOAD DUP2 PUSH20 0xFFFFFFFFFFFFFFFFFFFFFFFFFFFFFFFFFFFFFFFF MUL NOT AND SWAP1 DUP4 PUSH20 0xFFFFFFFFFFFFFFFFFFFFFFFFFFFFFFFFFFFFFFFF AND MUL OR SWAP1 SSTORE POP PUSH20 0x2F8895B08D8F226B19895D46154FAB7096FB2593 PUSH1 0x1A PUSH1 0x40 MLOAD PUSH3 0x1A4 SWAP1 PUSH3 0x4BF JUMP JUMPDEST SWAP1 DUP2 MSTORE PUSH1 0x20 ADD PUSH1 0x40 MLOAD DUP1 SWAP2 SUB SWAP1 KECCAK256 PUSH1 0x0 ADD PUSH1 0x0 PUSH2 0x100 EXP DUP2 SLOAD DUP2 PUSH20 0xFFFFFFFFFFFFFFFFFFFFFFFFFFFFFFFFFFFFFFFF MUL NOT AND SWAP1 DUP4 PUSH20 0xFFFFFFFFFFFFFFFFFFFFFFFFFFFFFFFFFFFFFFFF AND MUL OR SWAP1 SSTORE POP PUSH1 0x5 PUSH1 0x1A PUSH1 0x40 MLOAD PUSH3 0x205 SWAP1 PUSH3 0x4BF JUMP JUMPDEST SWAP1 DUP2 MSTORE PUSH1 0x20 ADD PUSH1 0x40 MLOAD DUP1 SWAP2 SUB SWAP1 KECCAK256 PUSH1 0x1 ADD DUP2 SWAP1 SSTORE POP PUSH20 0x2A4A8AB6A0BC0D377098F8688F77003833BC1C9D PUSH1 0x1A PUSH1 0x40 MLOAD PUSH3 0x23F SWAP1 PUSH3 0x4A8 JUMP JUMPDEST SWAP1 DUP2 MSTORE PUSH1 0x20 ADD PUSH1 0x40 MLOAD DUP1 SWAP2 SUB SWAP1 KECCAK256 PUSH1 0x0 ADD PUSH1 0x0 PUSH2 0x100 EXP DUP2 SLOAD DUP2 PUSH20 0xFFFFFFFFFFFFFFFFFFFFFFFFFFFFFFFFFFFFFFFF MUL NOT AND SWAP1 DUP4 PUSH20 0xFFFFFFFFFFFFFFFFFFFFFFFFFFFFFFFFFFFFFFFF AND MUL OR SWAP1 SSTORE POP PUSH1 0x12 PUSH1 0x1A PUSH1 0x40 MLOAD PUSH3 0x2A0 SWAP1 PUSH3 0x4A8 JUMP JUMPDEST SWAP1 DUP2 MSTORE PUSH1 0x20 ADD PUSH1 0x40 MLOAD DUP1 SWAP2 SUB SWAP1 KECCAK256 PUSH1 0x1 ADD DUP2 SWAP1 SSTORE POP PUSH20 0xDC301622E621166BD8E82F2CA0A26C13AD0BE355 PUSH1 0x1A PUSH1 0x40 MLOAD PUSH3 0x2DA SWAP1 PUSH3 0x491 JUMP JUMPDEST SWAP1 DUP2 MSTORE PUSH1 0x20 ADD PUSH1 0x40 MLOAD DUP1 SWAP2 SUB SWAP1 KECCAK256 PUSH1 0x0 ADD PUSH1 0x0 PUSH2 0x100 EXP DUP2 SLOAD DUP2 PUSH20 0xFFFFFFFFFFFFFFFFFFFFFFFFFFFFFFFFFFFFFFFF MUL NOT AND SWAP1 DUP4 PUSH20 0xFFFFFFFFFFFFFFFFFFFFFFFFFFFFFFFFFFFFFFFF AND MUL OR SWAP1 SSTORE POP PUSH1 0x12 PUSH1 0x1A PUSH1 0x40 MLOAD PUSH3 0x33B SWAP1 PUSH3 0x491 JUMP JUMPDEST SWAP1 DUP2 MSTORE PUSH1 0x20 ADD PUSH1 0x40 MLOAD DUP1 SWAP2 SUB SWAP1 KECCAK256 PUSH1 0x1 ADD DUP2 SWAP1 SSTORE POP PUSH20 0x617F2E2FD72FD9D5503197092AC168C91465E7F2 PUSH1 0x6 PUSH1 0x0 PUSH2 0x100 EXP DUP2 SLOAD DUP2 PUSH20 0xFFFFFFFFFFFFFFFFFFFFFFFFFFFFFFFFFFFFFFFF MUL NOT AND SWAP1 DUP4 PUSH20 0xFFFFFFFFFFFFFFFFFFFFFFFFFFFFFFFFFFFFFFFF AND MUL OR SWAP1 SSTORE POP TIMESTAMP PUSH1 0xB DUP2 SWAP1 SSTORE POP PUSH3 0x69780 PUSH1 0xC DUP2 SWAP1 SSTORE POP POP POP PUSH3 0x649 JUMP JUMPDEST PUSH1 0x0 DUP2 MLOAD SWAP1 POP PUSH3 0x3CF DUP2 PUSH3 0x62F JUMP JUMPDEST SWAP3 SWAP2 POP POP JUMP JUMPDEST PUSH1 0x0 DUP1 PUSH1 0x40 DUP4 DUP6 SUB SLT ISZERO PUSH3 0x3EF JUMPI PUSH3 0x3EE PUSH3 0x5AF JUMP JUMPDEST JUMPDEST PUSH1 0x0 PUSH3 0x3FF DUP6 DUP3 DUP7 ADD PUSH3 0x3BE JUMP JUMPDEST SWAP3 POP POP PUSH1 0x20 PUSH3 0x412 DUP6 DUP3 DUP7 ADD PUSH3 0x3BE JUMP JUMPDEST SWAP2 POP POP SWAP3 POP SWAP3 SWAP1 POP JUMP JUMPDEST PUSH1 0x0 PUSH3 0x42B PUSH1 0x4 DUP4 PUSH3 0x4D6 JUMP JUMPDEST SWAP2 POP PUSH3 0x438 DUP3 PUSH3 0x5B4 JUMP JUMPDEST PUSH1 0x4 DUP3 ADD SWAP1 POP SWAP2 SWAP1 POP JUMP JUMPDEST PUSH1 0x0 PUSH3 0x452 PUSH1 0x3 DUP4 PUSH3 0x4D6 JUMP JUMPDEST SWAP2 POP PUSH3 0x45F DUP3 PUSH3 0x5DD JUMP JUMPDEST PUSH1 0x3 DUP3 ADD SWAP1 POP SWAP2 SWAP1 POP JUMP JUMPDEST PUSH1 0x0 PUSH3 0x479 PUSH1 0x4 DUP4 PUSH3 0x4D6 JUMP JUMPDEST SWAP2 POP PUSH3 0x486 DUP3 PUSH3 0x606 JUMP JUMPDEST PUSH1 0x4 DUP3 ADD SWAP1 POP SWAP2 SWAP1 POP JUMP JUMPDEST PUSH1 0x0 PUSH3 0x49E DUP3 PUSH3 0x41C JUMP JUMPDEST SWAP2 POP DUP2 SWAP1 POP SWAP2 SWAP1 POP JUMP JUMPDEST PUSH1 0x0 PUSH3 0x4B5 DUP3 PUSH3 0x443 JUMP JUMPDEST SWAP2 POP DUP2 SWAP1 POP SWAP2 SWAP1 POP JUMP JUMPDEST PUSH1 0x0 PUSH3 0x4CC DUP3 PUSH3 0x46A JUMP JUMPDEST SWAP2 POP DUP2 SWAP1 POP SWAP2 SWAP1 POP JUMP JUMPDEST PUSH1 0x0 DUP2 SWAP1 POP SWAP3 SWAP2 POP POP JUMP JUMPDEST PUSH1 0x0 PUSH3 0x4EE DUP3 PUSH3 0x576 JUMP JUMPDEST SWAP2 POP PUSH3 0x4FB DUP4 PUSH3 0x576 JUMP JUMPDEST SWAP3 POP DUP2 PUSH32 0xFFFFFFFFFFFFFFFFFFFFFFFFFFFFFFFFFFFFFFFFFFFFFFFFFFFFFFFFFFFFFFFF DIV DUP4 GT DUP3 ISZERO ISZERO AND ISZERO PUSH3 0x537 JUMPI PUSH3 0x536 PUSH3 0x580 JUMP JUMPDEST JUMPDEST DUP3 DUP3 MUL SWAP1 POP SWAP3 SWAP2 POP POP JUMP JUMPDEST PUSH1 0x0 PUSH3 0x54F DUP3 PUSH3 0x556 JUMP JUMPDEST SWAP1 POP SWAP2 SWAP1 POP JUMP JUMPDEST PUSH1 0x0 PUSH20 0xFFFFFFFFFFFFFFFFFFFFFFFFFFFFFFFFFFFFFFFF DUP3 AND SWAP1 POP SWAP2 SWAP1 POP JUMP JUMPDEST PUSH1 0x0 DUP2 SWAP1 POP SWAP2 SWAP1 POP JUMP JUMPDEST PUSH32 0x4E487B7100000000000000000000000000000000000000000000000000000000 PUSH1 0x0 MSTORE PUSH1 0x11 PUSH1 0x4 MSTORE PUSH1 0x24 PUSH1 0x0 REVERT JUMPDEST PUSH1 0x0 DUP1 REVERT JUMPDEST PUSH32 0x4652415800000000000000000000000000000000000000000000000000000000 PUSH1 0x0 DUP3 ADD MSTORE POP JUMP JUMPDEST PUSH32 0x4441490000000000000000000000000000000000000000000000000000000000 PUSH1 0x0 DUP3 ADD MSTORE POP JUMP JUMPDEST PUSH32 0x5553444300000000000000000000000000000000000000000000000000000000 PUSH1 0x0 DUP3 ADD MSTORE POP JUMP JUMPDEST PUSH3 0x63A DUP2 PUSH3 0x542 JUMP JUMPDEST DUP2 EQ PUSH3 0x646 JUMPI PUSH1 0x0 DUP1 REVERT JUMPDEST POP JUMP JUMPDEST PUSH2 0x2ED9 DUP1 PUSH3 0x659 PUSH1 0x0 CODECOPY PUSH1 0x0 RETURN INVALID PUSH1 0x80 PUSH1 0x40 MSTORE PUSH1 0x4 CALLDATASIZE LT PUSH2 0x246 JUMPI PUSH1 0x0 CALLDATALOAD PUSH1 0xE0 SHR DUP1 PUSH4 0x6E05C1B9 GT PUSH2 0x139 JUMPI DUP1 PUSH4 0xC0CA6FB4 GT PUSH2 0xB6 JUMPI DUP1 PUSH4 0xE5D98082 GT PUSH2 0x7A JUMPI DUP1 PUSH4 0xE5D98082 EQ PUSH2 0x870 JUMPI DUP1 PUSH4 0xEE620868 EQ PUSH2 0x899 JUMPI DUP1 PUSH4 0xEEE05F5E EQ PUSH2 0x8C4 JUMPI DUP1 PUSH4 0xF7523C52 EQ PUSH2 0x8EF JUMPI DUP1 PUSH4 0xFBBB4589 EQ PUSH2 0x92C JUMPI DUP1 PUSH4 0xFC361443 EQ PUSH2 0x957 JUMPI PUSH2 0x246 JUMP JUMPDEST DUP1 PUSH4 0xC0CA6FB4 EQ PUSH2 0x7A8 JUMPI DUP1 PUSH4 0xC0CE5889 EQ PUSH2 0x7D3 JUMPI DUP1 PUSH4 0xCBFF4617 EQ PUSH2 0x7EF JUMPI DUP1 PUSH4 0xD04D7908 EQ PUSH2 0x81A JUMPI DUP1 PUSH4 0xD82EDDF2 EQ PUSH2 0x845 JUMPI PUSH2 0x246 JUMP JUMPDEST DUP1 PUSH4 0x93F7B711 GT PUSH2 0xFD JUMPI DUP1 PUSH4 0x93F7B711 EQ PUSH2 0x6C2 JUMPI DUP1 PUSH4 0x9B19251A EQ PUSH2 0x6ED JUMPI DUP1 PUSH4 0xA475BF48 EQ PUSH2 0x716 JUMPI DUP1 PUSH4 0xBDAD7F02 EQ PUSH2 0x754 JUMPI DUP1 PUSH4 0xC079D7F6 EQ PUSH2 0x77D JUMPI PUSH2 0x246 JUMP JUMPDEST DUP1 PUSH4 0x6E05C1B9 EQ PUSH2 0x5ED JUMPI DUP1 PUSH4 0x6F10E285 EQ PUSH2 0x618 JUMPI DUP1 PUSH4 0x7087A7A5 EQ PUSH2 0x643 JUMPI DUP1 PUSH4 0x71CD58F9 EQ PUSH2 0x66E JUMPI DUP1 PUSH4 0x862D1B35 EQ PUSH2 0x699 JUMPI PUSH2 0x246 JUMP JUMPDEST DUP1 PUSH4 0x26AE486E GT PUSH2 0x1C7 JUMPI DUP1 PUSH4 0x3C6EB17A GT PUSH2 0x18B JUMPI DUP1 PUSH4 0x3C6EB17A EQ PUSH2 0x506 JUMPI DUP1 PUSH4 0x43D32E9C EQ PUSH2 0x531 JUMPI DUP1 PUSH4 0x64CE07D8 EQ PUSH2 0x55C JUMPI DUP1 PUSH4 0x67B48C91 EQ PUSH2 0x599 JUMPI DUP1 PUSH4 0x67E927A8 EQ PUSH2 0x5C4 JUMPI PUSH2 0x246 JUMP JUMPDEST DUP1 PUSH4 0x26AE486E EQ PUSH2 0x41F JUMPI DUP1 PUSH4 0x29982A32 EQ PUSH2 0x44A JUMPI DUP1 PUSH4 0x2A9F0FB1 EQ PUSH2 0x475 JUMPI DUP1 PUSH4 0x35453307 EQ PUSH2 0x4B2 JUMPI DUP1 PUSH4 0x39AD95D6 EQ PUSH2 0x4DD JUMPI PUSH2 0x246 JUMP JUMPDEST DUP1 PUSH4 0x1514C976 GT PUSH2 0x20E JUMPI DUP1 PUSH4 0x1514C976 EQ PUSH2 0x335 JUMPI DUP1 PUSH4 0x164C8501 EQ PUSH2 0x372 JUMPI DUP1 PUSH4 0x1A30E872 EQ PUSH2 0x39B JUMPI DUP1 PUSH4 0x1BC9CC45 EQ PUSH2 0x3D8 JUMPI DUP1 PUSH4 0x1F564A06 EQ PUSH2 0x3F4 JUMPI PUSH2 0x246 JUMP JUMPDEST DUP1 PUSH4 0x18A25E8 EQ PUSH2 0x24B JUMPI DUP1 PUSH4 0x47729B0 EQ PUSH2 0x276 JUMPI DUP1 PUSH4 0xCCAF04F EQ PUSH2 0x2A1 JUMPI DUP1 PUSH4 0xF65DE3E EQ PUSH2 0x2CC JUMPI DUP1 PUSH4 0x12B2ED94 EQ PUSH2 0x2F7 JUMPI JUMPDEST PUSH1 0x0 DUP1 REVERT JUMPDEST CALLVALUE DUP1 ISZERO PUSH2 0x257 JUMPI PUSH1 0x0 DUP1 REVERT JUMPDEST POP PUSH2 0x260 PUSH2 0x980 JUMP JUMPDEST PUSH1 0x40 MLOAD PUSH2 0x26D SWAP2 SWAP1 PUSH2 0x294D JUMP JUMPDEST PUSH1 0x40 MLOAD DUP1 SWAP2 SUB SWAP1 RETURN JUMPDEST CALLVALUE DUP1 ISZERO PUSH2 0x282 JUMPI PUSH1 0x0 DUP1 REVERT JUMPDEST POP PUSH2 0x28B PUSH2 0xA9E JUMP JUMPDEST PUSH1 0x40 MLOAD PUSH2 0x298 SWAP2 SWAP1 PUSH2 0x27DC JUMP JUMPDEST PUSH1 0x40 MLOAD DUP1 SWAP2 SUB SWAP1 RETURN JUMPDEST CALLVALUE DUP1 ISZERO PUSH2 0x2AD JUMPI PUSH1 0x0 DUP1 REVERT JUMPDEST POP PUSH2 0x2B6 PUSH2 0xAC4 JUMP JUMPDEST PUSH1 0x40 MLOAD PUSH2 0x2C3 SWAP2 SWAP1 PUSH2 0x294D JUMP JUMPDEST PUSH1 0x40 MLOAD DUP1 SWAP2 SUB SWAP1 RETURN JUMPDEST CALLVALUE DUP1 ISZERO PUSH2 0x2D8 JUMPI PUSH1 0x0 DUP1 REVERT JUMPDEST POP PUSH2 0x2E1 PUSH2 0xC1E JUMP JUMPDEST PUSH1 0x40 MLOAD PUSH2 0x2EE SWAP2 SWAP1 PUSH2 0x294D JUMP JUMPDEST PUSH1 0x40 MLOAD DUP1 SWAP2 SUB SWAP1 RETURN JUMPDEST CALLVALUE DUP1 ISZERO PUSH2 0x303 JUMPI PUSH1 0x0 DUP1 REVERT JUMPDEST POP PUSH2 0x31E PUSH1 0x4 DUP1 CALLDATASIZE SUB DUP2 ADD SWAP1 PUSH2 0x319 SWAP2 SWAP1 PUSH2 0x23B3 JUMP JUMPDEST PUSH2 0xCAC JUMP JUMPDEST PUSH1 0x40 MLOAD PUSH2 0x32C SWAP3 SWAP2 SWAP1 PUSH2 0x2968 JUMP JUMPDEST PUSH1 0x40 MLOAD DUP1 SWAP2 SUB SWAP1 RETURN JUMPDEST CALLVALUE DUP1 ISZERO PUSH2 0x341 JUMPI PUSH1 0x0 DUP1 REVERT JUMPDEST POP PUSH2 0x35C PUSH1 0x4 DUP1 CALLDATASIZE SUB DUP2 ADD SWAP1 PUSH2 0x357 SWAP2 SWAP1 PUSH2 0x2521 JUMP JUMPDEST PUSH2 0xCD0 JUMP JUMPDEST PUSH1 0x40 MLOAD PUSH2 0x369 SWAP2 SWAP1 PUSH2 0x294D JUMP JUMPDEST PUSH1 0x40 MLOAD DUP1 SWAP2 SUB SWAP1 RETURN JUMPDEST CALLVALUE DUP1 ISZERO PUSH2 0x37E JUMPI PUSH1 0x0 DUP1 REVERT JUMPDEST POP PUSH2 0x399 PUSH1 0x4 DUP1 CALLDATASIZE SUB DUP2 ADD SWAP1 PUSH2 0x394 SWAP2 SWAP1 PUSH2 0x2521 JUMP JUMPDEST PUSH2 0xCE8 JUMP JUMPDEST STOP JUMPDEST CALLVALUE DUP1 ISZERO PUSH2 0x3A7 JUMPI PUSH1 0x0 DUP1 REVERT JUMPDEST POP PUSH2 0x3C2 PUSH1 0x4 DUP1 CALLDATASIZE SUB DUP2 ADD SWAP1 PUSH2 0x3BD SWAP2 SWAP1 PUSH2 0x2521 JUMP JUMPDEST PUSH2 0xE66 JUMP JUMPDEST PUSH1 0x40 MLOAD PUSH2 0x3CF SWAP2 SWAP1 PUSH2 0x294D JUMP JUMPDEST PUSH1 0x40 MLOAD DUP1 SWAP2 SUB SWAP1 RETURN JUMPDEST PUSH2 0x3F2 PUSH1 0x4 DUP1 CALLDATASIZE SUB DUP2 ADD SWAP1 PUSH2 0x3ED SWAP2 SWAP1 PUSH2 0x2521 JUMP JUMPDEST PUSH2 0xE7E JUMP JUMPDEST STOP JUMPDEST CALLVALUE DUP1 ISZERO PUSH2 0x400 JUMPI PUSH1 0x0 DUP1 REVERT JUMPDEST POP PUSH2 0x409 PUSH2 0x1016 JUMP JUMPDEST PUSH1 0x40 MLOAD PUSH2 0x416 SWAP2 SWAP1 PUSH2 0x294D JUMP JUMPDEST PUSH1 0x40 MLOAD DUP1 SWAP2 SUB SWAP1 RETURN JUMPDEST CALLVALUE DUP1 ISZERO PUSH2 0x42B JUMPI PUSH1 0x0 DUP1 REVERT JUMPDEST POP PUSH2 0x434 PUSH2 0x10C8 JUMP JUMPDEST PUSH1 0x40 MLOAD PUSH2 0x441 SWAP2 SWAP1 PUSH2 0x2857 JUMP JUMPDEST PUSH1 0x40 MLOAD DUP1 SWAP2 SUB SWAP1 RETURN JUMPDEST CALLVALUE DUP1 ISZERO PUSH2 0x456 JUMPI PUSH1 0x0 DUP1 REVERT JUMPDEST POP PUSH2 0x45F PUSH2 0x10EE JUMP JUMPDEST PUSH1 0x40 MLOAD PUSH2 0x46C SWAP2 SWAP1 PUSH2 0x27DC JUMP JUMPDEST PUSH1 0x40 MLOAD DUP1 SWAP2 SUB SWAP1 RETURN JUMPDEST CALLVALUE DUP1 ISZERO PUSH2 0x481 JUMPI PUSH1 0x0 DUP1 REVERT JUMPDEST POP PUSH2 0x49C PUSH1 0x4 DUP1 CALLDATASIZE SUB DUP2 ADD SWAP1 PUSH2 0x497 SWAP2 SWAP1 PUSH2 0x2521 JUMP JUMPDEST PUSH2 0x1114 JUMP JUMPDEST PUSH1 0x40 MLOAD PUSH2 0x4A9 SWAP2 SWAP1 PUSH2 0x294D JUMP JUMPDEST PUSH1 0x40 MLOAD DUP1 SWAP2 SUB SWAP1 RETURN JUMPDEST CALLVALUE DUP1 ISZERO PUSH2 0x4BE JUMPI PUSH1 0x0 DUP1 REVERT JUMPDEST POP PUSH2 0x4C7 PUSH2 0x112C JUMP JUMPDEST PUSH1 0x40 MLOAD PUSH2 0x4D4 SWAP2 SWAP1 PUSH2 0x294D JUMP JUMPDEST PUSH1 0x40 MLOAD DUP1 SWAP2 SUB SWAP1 RETURN JUMPDEST CALLVALUE DUP1 ISZERO PUSH2 0x4E9 JUMPI PUSH1 0x0 DUP1 REVERT JUMPDEST POP PUSH2 0x504 PUSH1 0x4 DUP1 CALLDATASIZE SUB DUP2 ADD SWAP1 PUSH2 0x4FF SWAP2 SWAP1 PUSH2 0x2521 JUMP JUMPDEST PUSH2 0x1132 JUMP JUMPDEST STOP JUMPDEST CALLVALUE DUP1 ISZERO PUSH2 0x512 JUMPI PUSH1 0x0 DUP1 REVERT JUMPDEST POP PUSH2 0x51B PUSH2 0x1135 JUMP JUMPDEST PUSH1 0x40 MLOAD PUSH2 0x528 SWAP2 SWAP1 PUSH2 0x294D JUMP JUMPDEST PUSH1 0x40 MLOAD DUP1 SWAP2 SUB SWAP1 RETURN JUMPDEST CALLVALUE DUP1 ISZERO PUSH2 0x53D JUMPI PUSH1 0x0 DUP1 REVERT JUMPDEST POP PUSH2 0x546 PUSH2 0x113B JUMP JUMPDEST PUSH1 0x40 MLOAD PUSH2 0x553 SWAP2 SWAP1 PUSH2 0x294D JUMP JUMPDEST PUSH1 0x40 MLOAD DUP1 SWAP2 SUB SWAP1 RETURN JUMPDEST CALLVALUE DUP1 ISZERO PUSH2 0x568 JUMPI PUSH1 0x0 DUP1 REVERT JUMPDEST POP PUSH2 0x583 PUSH1 0x4 DUP1 CALLDATASIZE SUB DUP2 ADD SWAP1 PUSH2 0x57E SWAP2 SWAP1 PUSH2 0x25D7 JUMP JUMPDEST PUSH2 0x1259 JUMP JUMPDEST PUSH1 0x40 MLOAD PUSH2 0x590 SWAP2 SWAP1 PUSH2 0x294D JUMP JUMPDEST PUSH1 0x40 MLOAD DUP1 SWAP2 SUB SWAP1 RETURN JUMPDEST CALLVALUE DUP1 ISZERO PUSH2 0x5A5 JUMPI PUSH1 0x0 DUP1 REVERT JUMPDEST POP PUSH2 0x5AE PUSH2 0x129A JUMP JUMPDEST PUSH1 0x40 MLOAD PUSH2 0x5BB SWAP2 SWAP1 PUSH2 0x294D JUMP JUMPDEST PUSH1 0x40 MLOAD DUP1 SWAP2 SUB SWAP1 RETURN JUMPDEST CALLVALUE DUP1 ISZERO PUSH2 0x5D0 JUMPI PUSH1 0x0 DUP1 REVERT JUMPDEST POP PUSH2 0x5EB PUSH1 0x4 DUP1 CALLDATASIZE SUB DUP2 ADD SWAP1 PUSH2 0x5E6 SWAP2 SWAP1 PUSH2 0x2521 JUMP JUMPDEST PUSH2 0x12A0 JUMP JUMPDEST STOP JUMPDEST CALLVALUE DUP1 ISZERO PUSH2 0x5F9 JUMPI PUSH1 0x0 DUP1 REVERT JUMPDEST POP PUSH2 0x602 PUSH2 0x1351 JUMP JUMPDEST PUSH1 0x40 MLOAD PUSH2 0x60F SWAP2 SWAP1 PUSH2 0x2857 JUMP JUMPDEST PUSH1 0x40 MLOAD DUP1 SWAP2 SUB SWAP1 RETURN JUMPDEST CALLVALUE DUP1 ISZERO PUSH2 0x624 JUMPI PUSH1 0x0 DUP1 REVERT JUMPDEST POP PUSH2 0x62D PUSH2 0x1377 JUMP JUMPDEST PUSH1 0x40 MLOAD PUSH2 0x63A SWAP2 SWAP1 PUSH2 0x2872 JUMP JUMPDEST PUSH1 0x40 MLOAD DUP1 SWAP2 SUB SWAP1 RETURN JUMPDEST CALLVALUE DUP1 ISZERO PUSH2 0x64F JUMPI PUSH1 0x0 DUP1 REVERT JUMPDEST POP PUSH2 0x658 PUSH2 0x138A JUMP JUMPDEST PUSH1 0x40 MLOAD PUSH2 0x665 SWAP2 SWAP1 PUSH2 0x2857 JUMP JUMPDEST PUSH1 0x40 MLOAD DUP1 SWAP2 SUB SWAP1 RETURN JUMPDEST CALLVALUE DUP1 ISZERO PUSH2 0x67A JUMPI PUSH1 0x0 DUP1 REVERT JUMPDEST POP PUSH2 0x683 PUSH2 0x13B0 JUMP JUMPDEST PUSH1 0x40 MLOAD PUSH2 0x690 SWAP2 SWAP1 PUSH2 0x294D JUMP JUMPDEST PUSH1 0x40 MLOAD DUP1 SWAP2 SUB SWAP1 RETURN JUMPDEST CALLVALUE DUP1 ISZERO PUSH2 0x6A5 JUMPI PUSH1 0x0 DUP1 REVERT JUMPDEST POP PUSH2 0x6C0 PUSH1 0x4 DUP1 CALLDATASIZE SUB DUP2 ADD SWAP1 PUSH2 0x6BB SWAP2 SWAP1 PUSH2 0x257B JUMP JUMPDEST PUSH2 0x1467 JUMP JUMPDEST STOP JUMPDEST CALLVALUE DUP1 ISZERO PUSH2 0x6CE JUMPI PUSH1 0x0 DUP1 REVERT JUMPDEST POP PUSH2 0x6D7 PUSH2 0x1872 JUMP JUMPDEST PUSH1 0x40 MLOAD PUSH2 0x6E4 SWAP2 SWAP1 PUSH2 0x294D JUMP JUMPDEST PUSH1 0x40 MLOAD DUP1 SWAP2 SUB SWAP1 RETURN JUMPDEST CALLVALUE DUP1 ISZERO PUSH2 0x6F9 JUMPI PUSH1 0x0 DUP1 REVERT JUMPDEST POP PUSH2 0x714 PUSH1 0x4 DUP1 CALLDATASIZE SUB DUP2 ADD SWAP1 PUSH2 0x70F SWAP2 SWAP1 PUSH2 0x23B3 JUMP JUMPDEST PUSH2 0x19CC JUMP JUMPDEST STOP JUMPDEST CALLVALUE DUP1 ISZERO PUSH2 0x722 JUMPI PUSH1 0x0 DUP1 REVERT JUMPDEST POP PUSH2 0x73D PUSH1 0x4 DUP1 CALLDATASIZE SUB DUP2 ADD SWAP1 PUSH2 0x738 SWAP2 SWAP1 PUSH2 0x2469 JUMP JUMPDEST PUSH2 0x19CF JUMP JUMPDEST PUSH1 0x40 MLOAD PUSH2 0x74B SWAP3 SWAP2 SWAP1 PUSH2 0x282E JUMP JUMPDEST PUSH1 0x40 MLOAD DUP1 SWAP2 SUB SWAP1 RETURN JUMPDEST CALLVALUE DUP1 ISZERO PUSH2 0x760 JUMPI PUSH1 0x0 DUP1 REVERT JUMPDEST POP PUSH2 0x77B PUSH1 0x4 DUP1 CALLDATASIZE SUB DUP2 ADD SWAP1 PUSH2 0x776 SWAP2 SWAP1 PUSH2 0x23E0 JUMP JUMPDEST PUSH2 0x1A29 JUMP JUMPDEST STOP JUMPDEST CALLVALUE DUP1 ISZERO PUSH2 0x789 JUMPI PUSH1 0x0 DUP1 REVERT JUMPDEST POP PUSH2 0x792 PUSH2 0x1BAA JUMP JUMPDEST PUSH1 0x40 MLOAD PUSH2 0x79F SWAP2 SWAP1 PUSH2 0x27DC JUMP JUMPDEST PUSH1 0x40 MLOAD DUP1 SWAP2 SUB SWAP1 RETURN JUMPDEST CALLVALUE DUP1 ISZERO PUSH2 0x7B4 JUMPI PUSH1 0x0 DUP1 REVERT JUMPDEST POP PUSH2 0x7BD PUSH2 0x1BD0 JUMP JUMPDEST PUSH1 0x40 MLOAD PUSH2 0x7CA SWAP2 SWAP1 PUSH2 0x2857 JUMP JUMPDEST PUSH1 0x40 MLOAD DUP1 SWAP2 SUB SWAP1 RETURN JUMPDEST PUSH2 0x7ED PUSH1 0x4 DUP1 CALLDATASIZE SUB DUP2 ADD SWAP1 PUSH2 0x7E8 SWAP2 SWAP1 PUSH2 0x2617 JUMP JUMPDEST PUSH2 0x1BF6 JUMP JUMPDEST STOP JUMPDEST CALLVALUE DUP1 ISZERO PUSH2 0x7FB JUMPI PUSH1 0x0 DUP1 REVERT JUMPDEST POP PUSH2 0x804 PUSH2 0x1F6F JUMP JUMPDEST PUSH1 0x40 MLOAD PUSH2 0x811 SWAP2 SWAP1 PUSH2 0x294D JUMP JUMPDEST PUSH1 0x40 MLOAD DUP1 SWAP2 SUB SWAP1 RETURN JUMPDEST CALLVALUE DUP1 ISZERO PUSH2 0x826 JUMPI PUSH1 0x0 DUP1 REVERT JUMPDEST POP PUSH2 0x82F PUSH2 0x1F75 JUMP JUMPDEST PUSH1 0x40 MLOAD PUSH2 0x83C SWAP2 SWAP1 PUSH2 0x2857 JUMP JUMPDEST PUSH1 0x40 MLOAD DUP1 SWAP2 SUB SWAP1 RETURN JUMPDEST CALLVALUE DUP1 ISZERO PUSH2 0x851 JUMPI PUSH1 0x0 DUP1 REVERT JUMPDEST POP PUSH2 0x85A PUSH2 0x1F9B JUMP JUMPDEST PUSH1 0x40 MLOAD PUSH2 0x867 SWAP2 SWAP1 PUSH2 0x294D JUMP JUMPDEST PUSH1 0x40 MLOAD DUP1 SWAP2 SUB SWAP1 RETURN JUMPDEST CALLVALUE DUP1 ISZERO PUSH2 0x87C JUMPI PUSH1 0x0 DUP1 REVERT JUMPDEST POP PUSH2 0x897 PUSH1 0x4 DUP1 CALLDATASIZE SUB DUP2 ADD SWAP1 PUSH2 0x892 SWAP2 SWAP1 PUSH2 0x24B2 JUMP JUMPDEST PUSH2 0x1FFE JUMP JUMPDEST STOP JUMPDEST CALLVALUE DUP1 ISZERO PUSH2 0x8A5 JUMPI PUSH1 0x0 DUP1 REVERT JUMPDEST POP PUSH2 0x8AE PUSH2 0x2089 JUMP JUMPDEST PUSH1 0x40 MLOAD PUSH2 0x8BB SWAP2 SWAP1 PUSH2 0x294D JUMP JUMPDEST PUSH1 0x40 MLOAD DUP1 SWAP2 SUB SWAP1 RETURN JUMPDEST CALLVALUE DUP1 ISZERO PUSH2 0x8D0 JUMPI PUSH1 0x0 DUP1 REVERT JUMPDEST POP PUSH2 0x8D9 PUSH2 0x208F JUMP JUMPDEST PUSH1 0x40 MLOAD PUSH2 0x8E6 SWAP2 SWAP1 PUSH2 0x27DC JUMP JUMPDEST PUSH1 0x40 MLOAD DUP1 SWAP2 SUB SWAP1 RETURN JUMPDEST CALLVALUE DUP1 ISZERO PUSH2 0x8FB JUMPI PUSH1 0x0 DUP1 REVERT JUMPDEST POP PUSH2 0x916 PUSH1 0x4 DUP1 CALLDATASIZE SUB DUP2 ADD SWAP1 PUSH2 0x911 SWAP2 SWAP1 PUSH2 0x25D7 JUMP JUMPDEST PUSH2 0x20B5 JUMP JUMPDEST PUSH1 0x40 MLOAD PUSH2 0x923 SWAP2 SWAP1 PUSH2 0x294D JUMP JUMPDEST PUSH1 0x40 MLOAD DUP1 SWAP2 SUB SWAP1 RETURN JUMPDEST CALLVALUE DUP1 ISZERO PUSH2 0x938 JUMPI PUSH1 0x0 DUP1 REVERT JUMPDEST POP PUSH2 0x941 PUSH2 0x20FE JUMP JUMPDEST PUSH1 0x40 MLOAD PUSH2 0x94E SWAP2 SWAP1 PUSH2 0x27DC JUMP JUMPDEST PUSH1 0x40 MLOAD DUP1 SWAP2 SUB SWAP1 RETURN JUMPDEST CALLVALUE DUP1 ISZERO PUSH2 0x963 JUMPI PUSH1 0x0 DUP1 REVERT JUMPDEST POP PUSH2 0x97E PUSH1 0x4 DUP1 CALLDATASIZE SUB DUP2 ADD SWAP1 PUSH2 0x979 SWAP2 SWAP1 PUSH2 0x2521 JUMP JUMPDEST PUSH2 0x2124 JUMP JUMPDEST STOP JUMPDEST PUSH1 0x0 PUSH2 0xA99 ADDRESS PUSH20 0xFFFFFFFFFFFFFFFFFFFFFFFFFFFFFFFFFFFFFFFF AND PUSH4 0x1F564A06 PUSH1 0x40 MLOAD DUP2 PUSH4 0xFFFFFFFF AND PUSH1 0xE0 SHL DUP2 MSTORE PUSH1 0x4 ADD PUSH1 0x20 PUSH1 0x40 MLOAD DUP1 DUP4 SUB DUP2 DUP7 DUP1 EXTCODESIZE ISZERO DUP1 ISZERO PUSH2 0x9CB JUMPI PUSH1 0x0 DUP1 REVERT JUMPDEST POP GAS STATICCALL ISZERO DUP1 ISZERO PUSH2 0x9DF JUMPI RETURNDATASIZE PUSH1 0x0 DUP1 RETURNDATACOPY RETURNDATASIZE PUSH1 0x0 REVERT JUMPDEST POP POP POP POP PUSH1 0x40 MLOAD RETURNDATASIZE PUSH1 0x1F NOT PUSH1 0x1F DUP3 ADD AND DUP3 ADD DUP1 PUSH1 0x40 MSTORE POP DUP2 ADD SWAP1 PUSH2 0xA03 SWAP2 SWAP1 PUSH2 0x254E JUMP JUMPDEST ADDRESS PUSH20 0xFFFFFFFFFFFFFFFFFFFFFFFFFFFFFFFFFFFFFFFF AND PUSH4 0x93F7B711 PUSH1 0x40 MLOAD DUP2 PUSH4 0xFFFFFFFF AND PUSH1 0xE0 SHL DUP2 MSTORE PUSH1 0x4 ADD PUSH1 0x20 PUSH1 0x40 MLOAD DUP1 DUP4 SUB DUP2 DUP7 DUP1 EXTCODESIZE ISZERO DUP1 ISZERO PUSH2 0xA49 JUMPI PUSH1 0x0 DUP1 REVERT JUMPDEST POP GAS STATICCALL ISZERO DUP1 ISZERO PUSH2 0xA5D JUMPI RETURNDATASIZE PUSH1 0x0 DUP1 RETURNDATACOPY RETURNDATASIZE PUSH1 0x0 REVERT JUMPDEST POP POP POP POP PUSH1 0x40 MLOAD RETURNDATASIZE PUSH1 0x1F NOT PUSH1 0x1F DUP3 ADD AND DUP3 ADD DUP1 PUSH1 0x40 MSTORE POP DUP2 ADD SWAP1 PUSH2 0xA81 SWAP2 SWAP1 PUSH2 0x254E JUMP JUMPDEST PUSH8 0x10A741A462780000 PUSH2 0xA94 SWAP2 SWAP1 PUSH2 0x2A0E JUMP JUMPDEST PUSH2 0x20B5 JUMP JUMPDEST SWAP1 POP SWAP1 JUMP JUMPDEST PUSH1 0x8 PUSH1 0x0 SWAP1 SLOAD SWAP1 PUSH2 0x100 EXP SWAP1 DIV PUSH20 0xFFFFFFFFFFFFFFFFFFFFFFFFFFFFFFFFFFFFFFFF AND DUP2 JUMP JUMPDEST PUSH1 0x0 DUP1 PUSH1 0x0 DUP1 PUSH3 0x15180 PUSH1 0xC SLOAD PUSH2 0xADB SWAP2 SWAP1 PUSH2 0x2A64 JUMP JUMPDEST SWAP1 POP PUSH1 0x0 PUSH3 0x15180 PUSH1 0xB SLOAD TIMESTAMP PUSH2 0xAF1 SWAP2 SWAP1 PUSH2 0x2AEF JUMP JUMPDEST PUSH2 0xAFB SWAP2 SWAP1 PUSH2 0x2A64 JUMP JUMPDEST SWAP1 POP PUSH1 0x0 DUP1 DUP3 EQ ISZERO PUSH2 0xB22 JUMPI PUSH1 0x19 PUSH1 0x0 DUP1 DUP2 MSTORE PUSH1 0x20 ADD SWAP1 DUP2 MSTORE PUSH1 0x20 ADD PUSH1 0x0 KECCAK256 SLOAD SWAP4 POP PUSH2 0xB6E JUMP JUMPDEST DUP3 DUP3 PUSH2 0xB2E SWAP2 SWAP1 PUSH2 0x2AEF JUMP JUMPDEST SWAP1 POP JUMPDEST DUP2 DUP2 LT ISZERO PUSH2 0xB6D JUMPI PUSH1 0x19 PUSH1 0x0 DUP3 DUP2 MSTORE PUSH1 0x20 ADD SWAP1 DUP2 MSTORE PUSH1 0x20 ADD PUSH1 0x0 KECCAK256 SLOAD DUP5 PUSH2 0xB58 SWAP2 SWAP1 PUSH2 0x2A0E JUMP JUMPDEST SWAP4 POP DUP1 DUP1 PUSH2 0xB65 SWAP1 PUSH2 0x2C21 JUMP JUMPDEST SWAP2 POP POP PUSH2 0xB31 JUMP JUMPDEST JUMPDEST PUSH2 0xBF5 ADDRESS PUSH20 0xFFFFFFFFFFFFFFFFFFFFFFFFFFFFFFFFFFFFFFFF AND PUSH4 0xD82EDDF2 PUSH1 0x40 MLOAD DUP2 PUSH4 0xFFFFFFFF AND PUSH1 0xE0 SHL DUP2 MSTORE PUSH1 0x4 ADD PUSH1 0x20 PUSH1 0x40 MLOAD DUP1 DUP4 SUB DUP2 DUP7 DUP1 EXTCODESIZE ISZERO DUP1 ISZERO PUSH2 0xBB7 JUMPI PUSH1 0x0 DUP1 REVERT JUMPDEST POP GAS STATICCALL ISZERO DUP1 ISZERO PUSH2 0xBCB JUMPI RETURNDATASIZE PUSH1 0x0 DUP1 RETURNDATACOPY RETURNDATASIZE PUSH1 0x0 REVERT JUMPDEST POP POP POP POP PUSH1 0x40 MLOAD RETURNDATASIZE PUSH1 0x1F NOT PUSH1 0x1F DUP3 ADD AND DUP3 ADD DUP1 PUSH1 0x40 MSTORE POP DUP2 ADD SWAP1 PUSH2 0xBEF SWAP2 SWAP1 PUSH2 0x254E JUMP JUMPDEST DUP6 PUSH2 0x1259 JUMP JUMPDEST SWAP5 POP PUSH8 0x429D069189E0000 DUP6 GT ISZERO PUSH2 0xC13 JUMPI PUSH8 0x429D069189E0000 SWAP5 POP JUMPDEST DUP5 SWAP6 POP POP POP POP POP POP SWAP1 JUMP JUMPDEST PUSH1 0x0 DUP1 PUSH3 0x15180 PUSH1 0xB SLOAD TIMESTAMP PUSH2 0xC33 SWAP2 SWAP1 PUSH2 0x2AEF JUMP JUMPDEST PUSH2 0xC3D SWAP2 SWAP1 PUSH2 0x2A64 JUMP JUMPDEST SWAP1 POP PUSH1 0x0 DUP1 PUSH3 0x15180 PUSH1 0xC SLOAD PUSH2 0xC53 SWAP2 SWAP1 PUSH2 0x2A64 JUMP JUMPDEST SWAP1 POP PUSH1 0x0 DUP2 DUP5 PUSH2 0xC63 SWAP2 SWAP1 PUSH2 0x2AEF JUMP JUMPDEST SWAP1 POP JUMPDEST DUP4 DUP2 LT ISZERO PUSH2 0xCA2 JUMPI PUSH1 0x19 PUSH1 0x0 DUP3 DUP2 MSTORE PUSH1 0x20 ADD SWAP1 DUP2 MSTORE PUSH1 0x20 ADD PUSH1 0x0 KECCAK256 SLOAD DUP4 PUSH2 0xC8D SWAP2 SWAP1 PUSH2 0x2A0E JUMP JUMPDEST SWAP3 POP DUP1 DUP1 PUSH2 0xC9A SWAP1 PUSH2 0x2C21 JUMP JUMPDEST SWAP2 POP POP PUSH2 0xC66 JUMP JUMPDEST DUP3 SWAP5 POP POP POP POP POP SWAP1 JUMP JUMPDEST PUSH1 0x1B PUSH1 0x20 MSTORE DUP1 PUSH1 0x0 MSTORE PUSH1 0x40 PUSH1 0x0 KECCAK256 PUSH1 0x0 SWAP2 POP SWAP1 POP DUP1 PUSH1 0x0 ADD SLOAD SWAP1 DUP1 PUSH1 0x1 ADD SLOAD SWAP1 POP DUP3 JUMP JUMPDEST PUSH1 0x18 PUSH1 0x20 MSTORE DUP1 PUSH1 0x0 MSTORE PUSH1 0x40 PUSH1 0x0 KECCAK256 PUSH1 0x0 SWAP2 POP SWAP1 POP SLOAD DUP2 JUMP JUMPDEST PUSH1 0x1B PUSH1 0x0 CALLER PUSH20 0xFFFFFFFFFFFFFFFFFFFFFFFFFFFFFFFFFFFFFFFF AND PUSH20 0xFFFFFFFFFFFFFFFFFFFFFFFFFFFFFFFFFFFFFFFF AND DUP2 MSTORE PUSH1 0x20 ADD SWAP1 DUP2 MSTORE PUSH1 0x20 ADD PUSH1 0x0 KECCAK256 PUSH1 0x1 ADD SLOAD DUP2 LT PUSH2 0xD6C JUMPI PUSH1 0x40 MLOAD PUSH32 0x8C379A000000000000000000000000000000000000000000000000000000000 DUP2 MSTORE PUSH1 0x4 ADD PUSH2 0xD63 SWAP1 PUSH2 0x288D JUMP JUMPDEST PUSH1 0x40 MLOAD DUP1 SWAP2 SUB SWAP1 REVERT JUMPDEST DUP1 PUSH1 0x1B PUSH1 0x0 CALLER PUSH20 0xFFFFFFFFFFFFFFFFFFFFFFFFFFFFFFFFFFFFFFFF AND PUSH20 0xFFFFFFFFFFFFFFFFFFFFFFFFFFFFFFFFFFFFFFFF AND DUP2 MSTORE PUSH1 0x20 ADD SWAP1 DUP2 MSTORE PUSH1 0x20 ADD PUSH1 0x0 KECCAK256 PUSH1 0x1 ADD PUSH1 0x0 DUP3 DUP3 SLOAD PUSH2 0xDBE SWAP2 SWAP1 PUSH2 0x2AEF JUMP JUMPDEST SWAP3 POP POP DUP2 SWAP1 SSTORE POP PUSH1 0x0 PUSH1 0x1B PUSH1 0x0 CALLER PUSH20 0xFFFFFFFFFFFFFFFFFFFFFFFFFFFFFFFFFFFFFFFF AND PUSH20 0xFFFFFFFFFFFFFFFFFFFFFFFFFFFFFFFFFFFFFFFF AND DUP2 MSTORE PUSH1 0x20 ADD SWAP1 DUP2 MSTORE PUSH1 0x20 ADD PUSH1 0x0 KECCAK256 PUSH1 0x1 ADD SLOAD EQ ISZERO PUSH2 0xE63 JUMPI PUSH1 0x1B PUSH1 0x0 CALLER PUSH20 0xFFFFFFFFFFFFFFFFFFFFFFFFFFFFFFFFFFFFFFFF AND PUSH20 0xFFFFFFFFFFFFFFFFFFFFFFFFFFFFFFFFFFFFFFFF AND DUP2 MSTORE PUSH1 0x20 ADD SWAP1 DUP2 MSTORE PUSH1 0x20 ADD PUSH1 0x0 KECCAK256 PUSH1 0x0 DUP1 DUP3 ADD PUSH1 0x0 SWAP1 SSTORE PUSH1 0x1 DUP3 ADD PUSH1 0x0 SWAP1 SSTORE POP POP JUMPDEST POP JUMP JUMPDEST PUSH1 0x19 PUSH1 0x20 MSTORE DUP1 PUSH1 0x0 MSTORE PUSH1 0x40 PUSH1 0x0 KECCAK256 PUSH1 0x0 SWAP2 POP SWAP1 POP SLOAD DUP2 JUMP JUMPDEST PUSH1 0x0 PUSH1 0x12 PUSH1 0x0 SWAP1 SLOAD SWAP1 PUSH2 0x100 EXP SWAP1 DIV PUSH20 0xFFFFFFFFFFFFFFFFFFFFFFFFFFFFFFFFFFFFFFFF AND PUSH20 0xFFFFFFFFFFFFFFFFFFFFFFFFFFFFFFFFFFFFFFFF AND PUSH4 0x70A08231 CALLER PUSH1 0x40 MLOAD DUP3 PUSH4 0xFFFFFFFF AND PUSH1 0xE0 SHL DUP2 MSTORE PUSH1 0x4 ADD PUSH2 0xEDB SWAP2 SWAP1 PUSH2 0x27DC JUMP JUMPDEST PUSH1 0x20 PUSH1 0x40 MLOAD DUP1 DUP4 SUB DUP2 DUP7 DUP1 EXTCODESIZE ISZERO DUP1 ISZERO PUSH2 0xEF3 JUMPI PUSH1 0x0 DUP1 REVERT JUMPDEST POP GAS STATICCALL ISZERO DUP1 ISZERO PUSH2 0xF07 JUMPI RETURNDATASIZE PUSH1 0x0 DUP1 RETURNDATACOPY RETURNDATASIZE PUSH1 0x0 REVERT JUMPDEST POP POP POP POP PUSH1 0x40 MLOAD RETURNDATASIZE PUSH1 0x1F NOT PUSH1 0x1F DUP3 ADD AND DUP3 ADD DUP1 PUSH1 0x40 MSTORE POP DUP2 ADD SWAP1 PUSH2 0xF2B SWAP2 SWAP1 PUSH2 0x254E JUMP JUMPDEST SWAP1 POP DUP2 DUP2 GT PUSH2 0xF6F JUMPI PUSH1 0x40 MLOAD PUSH32 0x8C379A000000000000000000000000000000000000000000000000000000000 DUP2 MSTORE PUSH1 0x4 ADD PUSH2 0xF66 SWAP1 PUSH2 0x28CD JUMP JUMPDEST PUSH1 0x40 MLOAD DUP1 SWAP2 SUB SWAP1 REVERT JUMPDEST PUSH2 0xF9D PUSH1 0x12 PUSH1 0x0 SWAP1 SLOAD SWAP1 PUSH2 0x100 EXP SWAP1 DIV PUSH20 0xFFFFFFFFFFFFFFFFFFFFFFFFFFFFFFFFFFFFFFFF AND CALLER ADDRESS DUP6 PUSH2 0x213C JUMP JUMPDEST PUSH1 0x0 PUSH3 0x15180 PUSH1 0xB SLOAD TIMESTAMP PUSH2 0xFB1 SWAP2 SWAP1 PUSH2 0x2AEF JUMP JUMPDEST PUSH2 0xFBB SWAP2 SWAP1 PUSH2 0x2A64 JUMP JUMPDEST SWAP1 POP DUP3 PUSH1 0x18 PUSH1 0x0 DUP4 DUP2 MSTORE PUSH1 0x20 ADD SWAP1 DUP2 MSTORE PUSH1 0x20 ADD PUSH1 0x0 KECCAK256 PUSH1 0x0 DUP3 DUP3 SLOAD PUSH2 0xFE0 SWAP2 SWAP1 PUSH2 0x2A0E JUMP JUMPDEST SWAP3 POP POP DUP2 SWAP1 SSTORE POP DUP3 PUSH1 0x19 PUSH1 0x0 DUP4 DUP2 MSTORE PUSH1 0x20 ADD SWAP1 DUP2 MSTORE PUSH1 0x20 ADD PUSH1 0x0 KECCAK256 PUSH1 0x0 DUP3 DUP3 SLOAD PUSH2 0x100A SWAP2 SWAP1 PUSH2 0x2AEF JUMP JUMPDEST SWAP3 POP POP DUP2 SWAP1 SSTORE POP POP POP POP JUMP JUMPDEST PUSH1 0x0 PUSH2 0x10C3 PUSH1 0xA SLOAD PUSH1 0x12 PUSH1 0x0 SWAP1 SLOAD SWAP1 PUSH2 0x100 EXP SWAP1 DIV PUSH20 0xFFFFFFFFFFFFFFFFFFFFFFFFFFFFFFFFFFFFFFFF AND PUSH20 0xFFFFFFFFFFFFFFFFFFFFFFFFFFFFFFFFFFFFFFFF AND PUSH4 0x18160DDD PUSH1 0x40 MLOAD DUP2 PUSH4 0xFFFFFFFF AND PUSH1 0xE0 SHL DUP2 MSTORE PUSH1 0x4 ADD PUSH1 0x20 PUSH1 0x40 MLOAD DUP1 DUP4 SUB DUP2 DUP7 DUP1 EXTCODESIZE ISZERO DUP1 ISZERO PUSH2 0x1086 JUMPI PUSH1 0x0 DUP1 REVERT JUMPDEST POP GAS STATICCALL ISZERO DUP1 ISZERO PUSH2 0x109A JUMPI RETURNDATASIZE PUSH1 0x0 DUP1 RETURNDATACOPY RETURNDATASIZE PUSH1 0x0 REVERT JUMPDEST POP POP POP POP PUSH1 0x40 MLOAD RETURNDATASIZE PUSH1 0x1F NOT PUSH1 0x1F DUP3 ADD AND DUP3 ADD DUP1 PUSH1 0x40 MSTORE POP DUP2 ADD SWAP1 PUSH2 0x10BE SWAP2 SWAP1 PUSH2 0x254E JUMP JUMPDEST PUSH2 0x1259 JUMP JUMPDEST SWAP1 POP SWAP1 JUMP JUMPDEST PUSH1 0x13 PUSH1 0x0 SWAP1 SLOAD SWAP1 PUSH2 0x100 EXP SWAP1 DIV PUSH20 0xFFFFFFFFFFFFFFFFFFFFFFFFFFFFFFFFFFFFFFFF AND DUP2 JUMP JUMPDEST PUSH1 0x9 PUSH1 0x0 SWAP1 SLOAD SWAP1 PUSH2 0x100 EXP SWAP1 DIV PUSH20 0xFFFFFFFFFFFFFFFFFFFFFFFFFFFFFFFFFFFFFFFF AND DUP2 JUMP JUMPDEST PUSH1 0x17 PUSH1 0x20 MSTORE DUP1 PUSH1 0x0 MSTORE PUSH1 0x40 PUSH1 0x0 KECCAK256 PUSH1 0x0 SWAP2 POP SWAP1 POP SLOAD DUP2 JUMP JUMPDEST PUSH1 0xA SLOAD DUP2 JUMP JUMPDEST POP JUMP JUMPDEST PUSH1 0xB SLOAD DUP2 JUMP JUMPDEST PUSH1 0x0 PUSH2 0x1254 ADDRESS PUSH20 0xFFFFFFFFFFFFFFFFFFFFFFFFFFFFFFFFFFFFFFFF AND PUSH4 0x1F564A06 PUSH1 0x40 MLOAD DUP2 PUSH4 0xFFFFFFFF AND PUSH1 0xE0 SHL DUP2 MSTORE PUSH1 0x4 ADD PUSH1 0x20 PUSH1 0x40 MLOAD DUP1 DUP4 SUB DUP2 DUP7 DUP1 EXTCODESIZE ISZERO DUP1 ISZERO PUSH2 0x1186 JUMPI PUSH1 0x0 DUP1 REVERT JUMPDEST POP GAS STATICCALL ISZERO DUP1 ISZERO PUSH2 0x119A JUMPI RETURNDATASIZE PUSH1 0x0 DUP1 RETURNDATACOPY RETURNDATASIZE PUSH1 0x0 REVERT JUMPDEST POP POP POP POP PUSH1 0x40 MLOAD RETURNDATASIZE PUSH1 0x1F NOT PUSH1 0x1F DUP3 ADD AND DUP3 ADD DUP1 PUSH1 0x40 MSTORE POP DUP2 ADD SWAP1 PUSH2 0x11BE SWAP2 SWAP1 PUSH2 0x254E JUMP JUMPDEST ADDRESS PUSH20 0xFFFFFFFFFFFFFFFFFFFFFFFFFFFFFFFFFFFFFFFF AND PUSH4 0xCCAF04F PUSH1 0x40 MLOAD DUP2 PUSH4 0xFFFFFFFF AND PUSH1 0xE0 SHL DUP2 MSTORE PUSH1 0x4 ADD PUSH1 0x20 PUSH1 0x40 MLOAD DUP1 DUP4 SUB DUP2 DUP7 DUP1 EXTCODESIZE ISZERO DUP1 ISZERO PUSH2 0x1204 JUMPI PUSH1 0x0 DUP1 REVERT JUMPDEST POP GAS STATICCALL ISZERO DUP1 ISZERO PUSH2 0x1218 JUMPI RETURNDATASIZE PUSH1 0x0 DUP1 RETURNDATACOPY RETURNDATASIZE PUSH1 0x0 REVERT JUMPDEST POP POP POP POP PUSH1 0x40 MLOAD RETURNDATASIZE PUSH1 0x1F NOT PUSH1 0x1F DUP3 ADD AND DUP3 ADD DUP1 PUSH1 0x40 MSTORE POP DUP2 ADD SWAP1 PUSH2 0x123C SWAP2 SWAP1 PUSH2 0x254E JUMP JUMPDEST PUSH8 0xC7D713B49DA0000 PUSH2 0x124F SWAP2 SWAP1 PUSH2 0x2AEF JUMP JUMPDEST PUSH2 0x20B5 JUMP JUMPDEST SWAP1 POP SWAP1 JUMP JUMPDEST PUSH1 0x0 DUP1 PUSH2 0x126E DUP5 PUSH8 0xDE0B6B3A7640000 PUSH2 0x2216 JUMP JUMPDEST SWAP1 POP DUP3 PUSH2 0x1287 DUP3 PUSH1 0x2 DUP7 PUSH2 0x1282 SWAP2 SWAP1 PUSH2 0x2A64 JUMP JUMPDEST PUSH2 0x2291 JUMP JUMPDEST PUSH2 0x1291 SWAP2 SWAP1 PUSH2 0x2A64 JUMP JUMPDEST SWAP2 POP POP SWAP3 SWAP2 POP POP JUMP JUMPDEST PUSH1 0xC SLOAD DUP2 JUMP JUMPDEST PUSH3 0xD2F00 TIMESTAMP PUSH2 0x12AF SWAP2 SWAP1 PUSH2 0x2A0E JUMP JUMPDEST PUSH1 0x1B PUSH1 0x0 CALLER PUSH20 0xFFFFFFFFFFFFFFFFFFFFFFFFFFFFFFFFFFFFFFFF AND PUSH20 0xFFFFFFFFFFFFFFFFFFFFFFFFFFFFFFFFFFFFFFFF AND DUP2 MSTORE PUSH1 0x20 ADD SWAP1 DUP2 MSTORE PUSH1 0x20 ADD PUSH1 0x0 KECCAK256 PUSH1 0x0 ADD DUP2 SWAP1 SSTORE POP DUP1 PUSH1 0x1B PUSH1 0x0 CALLER PUSH20 0xFFFFFFFFFFFFFFFFFFFFFFFFFFFFFFFFFFFFFFFF AND PUSH20 0xFFFFFFFFFFFFFFFFFFFFFFFFFFFFFFFFFFFFFFFF AND DUP2 MSTORE PUSH1 0x20 ADD SWAP1 DUP2 MSTORE PUSH1 0x20 ADD PUSH1 0x0 KECCAK256 PUSH1 0x1 ADD PUSH1 0x0 DUP3 DUP3 SLOAD PUSH2 0x1347 SWAP2 SWAP1 PUSH2 0x2A0E JUMP JUMPDEST SWAP3 POP POP DUP2 SWAP1 SSTORE POP POP JUMP JUMPDEST PUSH1 0x12 PUSH1 0x0 SWAP1 SLOAD SWAP1 PUSH2 0x100 EXP SWAP1 DIV PUSH20 0xFFFFFFFFFFFFFFFFFFFFFFFFFFFFFFFFFFFFFFFF AND DUP2 JUMP JUMPDEST PUSH1 0x10 PUSH1 0x0 SWAP1 SLOAD SWAP1 PUSH2 0x100 EXP SWAP1 DIV PUSH1 0xF SIGNEXTEND DUP2 JUMP JUMPDEST PUSH1 0x16 PUSH1 0x0 SWAP1 SLOAD SWAP1 PUSH2 0x100 EXP SWAP1 DIV PUSH20 0xFFFFFFFFFFFFFFFFFFFFFFFFFFFFFFFFFFFFFFFF AND DUP2 JUMP JUMPDEST PUSH1 0x0 DUP1 PUSH1 0x0 DUP1 PUSH3 0x15180 PUSH1 0xC SLOAD PUSH2 0x13C7 SWAP2 SWAP1 PUSH2 0x2A64 JUMP JUMPDEST SWAP1 POP PUSH1 0x0 PUSH3 0x15180 PUSH1 0xB SLOAD TIMESTAMP PUSH2 0x13DD SWAP2 SWAP1 PUSH2 0x2AEF JUMP JUMPDEST PUSH2 0x13E7 SWAP2 SWAP1 PUSH2 0x2A64 JUMP JUMPDEST SWAP1 POP PUSH1 0x0 DUP2 EQ ISZERO PUSH2 0x1411 JUMPI PUSH1 0x17 PUSH1 0x0 DUP1 DUP2 MSTORE PUSH1 0x20 ADD SWAP1 DUP2 MSTORE PUSH1 0x20 ADD PUSH1 0x0 KECCAK256 SLOAD SWAP5 POP POP POP POP POP PUSH2 0x1464 JUMP JUMPDEST DUP2 DUP2 PUSH2 0x141D SWAP2 SWAP1 PUSH2 0x2AEF JUMP JUMPDEST SWAP3 POP JUMPDEST DUP1 DUP4 LT ISZERO PUSH2 0x145C JUMPI PUSH1 0x17 PUSH1 0x0 DUP5 DUP2 MSTORE PUSH1 0x20 ADD SWAP1 DUP2 MSTORE PUSH1 0x20 ADD PUSH1 0x0 KECCAK256 SLOAD DUP5 PUSH2 0x1447 SWAP2 SWAP1 PUSH2 0x2A0E JUMP JUMPDEST SWAP4 POP DUP3 DUP1 PUSH2 0x1454 SWAP1 PUSH2 0x2C21 JUMP JUMPDEST SWAP4 POP POP PUSH2 0x1420 JUMP JUMPDEST DUP4 SWAP5 POP POP POP POP POP JUMPDEST SWAP1 JUMP JUMPDEST PUSH1 0x1A DUP2 PUSH1 0x40 MLOAD PUSH2 0x1477 SWAP2 SWAP1 PUSH2 0x27C5 JUMP JUMPDEST SWAP1 DUP2 MSTORE PUSH1 0x20 ADD PUSH1 0x40 MLOAD DUP1 SWAP2 SUB SWAP1 KECCAK256 PUSH1 0x0 ADD PUSH1 0x0 SWAP1 SLOAD SWAP1 PUSH2 0x100 EXP SWAP1 DIV PUSH20 0xFFFFFFFFFFFFFFFFFFFFFFFFFFFFFFFFFFFFFFFF AND PUSH1 0x16 PUSH1 0x0 PUSH2 0x100 EXP DUP2 SLOAD DUP2 PUSH20 0xFFFFFFFFFFFFFFFFFFFFFFFFFFFFFFFFFFFFFFFF MUL NOT AND SWAP1 DUP4 PUSH20 0xFFFFFFFFFFFFFFFFFFFFFFFFFFFFFFFFFFFFFFFF AND MUL OR SWAP1 SSTORE POP PUSH3 0x3D090 DUP3 GT ISZERO PUSH2 0x152F JUMPI PUSH1 0x40 MLOAD PUSH32 0x8C379A000000000000000000000000000000000000000000000000000000000 DUP2 MSTORE PUSH1 0x4 ADD PUSH2 0x1526 SWAP1 PUSH2 0x28ED JUMP JUMPDEST PUSH1 0x40 MLOAD DUP1 SWAP2 SUB SWAP1 REVERT JUMPDEST PUSH1 0x0 PUSH1 0x16 PUSH1 0x0 SWAP1 SLOAD SWAP1 PUSH2 0x100 EXP SWAP1 DIV PUSH20 0xFFFFFFFFFFFFFFFFFFFFFFFFFFFFFFFFFFFFFFFF AND PUSH20 0xFFFFFFFFFFFFFFFFFFFFFFFFFFFFFFFFFFFFFFFF AND PUSH4 0x70A08231 CALLER PUSH1 0x40 MLOAD DUP3 PUSH4 0xFFFFFFFF AND PUSH1 0xE0 SHL DUP2 MSTORE PUSH1 0x4 ADD PUSH2 0x158C SWAP2 SWAP1 PUSH2 0x27DC JUMP JUMPDEST PUSH1 0x20 PUSH1 0x40 MLOAD DUP1 DUP4 SUB DUP2 DUP7 DUP1 EXTCODESIZE ISZERO DUP1 ISZERO PUSH2 0x15A4 JUMPI PUSH1 0x0 DUP1 REVERT JUMPDEST POP GAS STATICCALL ISZERO DUP1 ISZERO PUSH2 0x15B8 JUMPI RETURNDATASIZE PUSH1 0x0 DUP1 RETURNDATACOPY RETURNDATASIZE PUSH1 0x0 REVERT JUMPDEST POP POP POP POP PUSH1 0x40 MLOAD RETURNDATASIZE PUSH1 0x1F NOT PUSH1 0x1F DUP3 ADD AND DUP3 ADD DUP1 PUSH1 0x40 MSTORE POP DUP2 ADD SWAP1 PUSH2 0x15DC SWAP2 SWAP1 PUSH2 0x254E JUMP JUMPDEST SWAP1 POP DUP3 DUP2 GT PUSH2 0x1620 JUMPI PUSH1 0x40 MLOAD PUSH32 0x8C379A000000000000000000000000000000000000000000000000000000000 DUP2 MSTORE PUSH1 0x4 ADD PUSH2 0x1617 SWAP1 PUSH2 0x28CD JUMP JUMPDEST PUSH1 0x40 MLOAD DUP1 SWAP2 SUB SWAP1 REVERT JUMPDEST PUSH1 0x0 PUSH1 0x1A DUP4 PUSH1 0x40 MLOAD PUSH2 0x1632 SWAP2 SWAP1 PUSH2 0x27C5 JUMP JUMPDEST SWAP1 DUP2 MSTORE PUSH1 0x20 ADD PUSH1 0x40 MLOAD DUP1 SWAP2 SUB SWAP1 KECCAK256 PUSH1 0x1 ADD SLOAD ADDRESS PUSH20 0xFFFFFFFFFFFFFFFFFFFFFFFFFFFFFFFFFFFFFFFF AND PUSH4 0x18A25E8 PUSH1 0x40 MLOAD DUP2 PUSH4 0xFFFFFFFF AND PUSH1 0xE0 SHL DUP2 MSTORE PUSH1 0x4 ADD PUSH1 0x20 PUSH1 0x40 MLOAD DUP1 DUP4 SUB DUP2 DUP7 DUP1 EXTCODESIZE ISZERO DUP1 ISZERO PUSH2 0x168A JUMPI PUSH1 0x0 DUP1 REVERT JUMPDEST POP GAS STATICCALL ISZERO DUP1 ISZERO PUSH2 0x169E JUMPI RETURNDATASIZE PUSH1 0x0 DUP1 RETURNDATACOPY RETURNDATASIZE PUSH1 0x0 REVERT JUMPDEST POP POP POP POP PUSH1 0x40 MLOAD RETURNDATASIZE PUSH1 0x1F NOT PUSH1 0x1F DUP3 ADD AND DUP3 ADD DUP1 PUSH1 0x40 MSTORE POP DUP2 ADD SWAP1 PUSH2 0x16C2 SWAP2 SWAP1 PUSH2 0x254E JUMP JUMPDEST DUP6 PUSH2 0x16CD SWAP2 SWAP1 PUSH2 0x2A95 JUMP JUMPDEST PUSH2 0x16D7 SWAP2 SWAP1 PUSH2 0x2A95 JUMP JUMPDEST SWAP1 POP PUSH2 0x1707 PUSH1 0x16 PUSH1 0x0 SWAP1 SLOAD SWAP1 PUSH2 0x100 EXP SWAP1 DIV PUSH20 0xFFFFFFFFFFFFFFFFFFFFFFFFFFFFFFFFFFFFFFFF AND CALLER ADDRESS DUP5 PUSH2 0x213C JUMP JUMPDEST PUSH1 0x1C PUSH1 0x0 SWAP1 SLOAD SWAP1 PUSH2 0x100 EXP SWAP1 DIV PUSH20 0xFFFFFFFFFFFFFFFFFFFFFFFFFFFFFFFFFFFFFFFF AND PUSH20 0xFFFFFFFFFFFFFFFFFFFFFFFFFFFFFFFFFFFFFFFF AND PUSH4 0x40C10F19 CALLER PUSH8 0xDE0B6B3A7640000 DUP8 PUSH2 0x175A SWAP2 SWAP1 PUSH2 0x2A95 JUMP JUMPDEST PUSH1 0x40 MLOAD DUP4 PUSH4 0xFFFFFFFF AND PUSH1 0xE0 SHL DUP2 MSTORE PUSH1 0x4 ADD PUSH2 0x1777 SWAP3 SWAP2 SWAP1 PUSH2 0x282E JUMP JUMPDEST PUSH1 0x0 PUSH1 0x40 MLOAD DUP1 DUP4 SUB DUP2 PUSH1 0x0 DUP8 DUP1 EXTCODESIZE ISZERO DUP1 ISZERO PUSH2 0x1791 JUMPI PUSH1 0x0 DUP1 REVERT JUMPDEST POP GAS CALL ISZERO DUP1 ISZERO PUSH2 0x17A5 JUMPI RETURNDATASIZE PUSH1 0x0 DUP1 RETURNDATACOPY RETURNDATASIZE PUSH1 0x0 REVERT JUMPDEST POP POP POP POP PUSH1 0x0 PUSH3 0x15180 PUSH1 0xB SLOAD TIMESTAMP PUSH2 0x17BD SWAP2 SWAP1 PUSH2 0x2AEF JUMP JUMPDEST PUSH2 0x17C7 SWAP2 SWAP1 PUSH2 0x2A64 JUMP JUMPDEST SWAP1 POP DUP5 PUSH1 0x17 PUSH1 0x0 DUP4 DUP2 MSTORE PUSH1 0x20 ADD SWAP1 DUP2 MSTORE PUSH1 0x20 ADD PUSH1 0x0 KECCAK256 PUSH1 0x0 DUP3 DUP3 SLOAD PUSH2 0x17EC SWAP2 SWAP1 PUSH2 0x2A0E JUMP JUMPDEST SWAP3 POP POP DUP2 SWAP1 SSTORE POP DUP5 PUSH1 0x19 PUSH1 0x0 DUP4 DUP2 MSTORE PUSH1 0x20 ADD SWAP1 DUP2 MSTORE PUSH1 0x20 ADD PUSH1 0x0 KECCAK256 PUSH1 0x0 DUP3 DUP3 SLOAD PUSH2 0x1816 SWAP2 SWAP1 PUSH2 0x2A0E JUMP JUMPDEST SWAP3 POP POP DUP2 SWAP1 SSTORE POP CALLER PUSH20 0xFFFFFFFFFFFFFFFFFFFFFFFFFFFFFFFFFFFFFFFF AND PUSH32 0xF633443B01504D269657083D48BB6DE98E089CFFF672B47FEFBED21608B5C779 DUP7 PUSH1 0x40 MLOAD PUSH2 0x1863 SWAP2 SWAP1 PUSH2 0x294D JUMP JUMPDEST PUSH1 0x40 MLOAD DUP1 SWAP2 SUB SWAP1 LOG2 POP POP POP POP POP JUMP JUMPDEST PUSH1 0x0 DUP1 PUSH1 0x0 DUP1 PUSH3 0x15180 PUSH1 0xC SLOAD PUSH2 0x1889 SWAP2 SWAP1 PUSH2 0x2A64 JUMP JUMPDEST SWAP1 POP PUSH1 0x0 PUSH3 0x15180 PUSH1 0xB SLOAD TIMESTAMP PUSH2 0x189F SWAP2 SWAP1 PUSH2 0x2AEF JUMP JUMPDEST PUSH2 0x18A9 SWAP2 SWAP1 PUSH2 0x2A64 JUMP JUMPDEST SWAP1 POP PUSH1 0x0 DUP1 DUP3 EQ ISZERO PUSH2 0x18D0 JUMPI PUSH1 0x19 PUSH1 0x0 DUP1 DUP2 MSTORE PUSH1 0x20 ADD SWAP1 DUP2 MSTORE PUSH1 0x20 ADD PUSH1 0x0 KECCAK256 SLOAD SWAP4 POP PUSH2 0x191C JUMP JUMPDEST DUP3 DUP3 PUSH2 0x18DC SWAP2 SWAP1 PUSH2 0x2AEF JUMP JUMPDEST SWAP1 POP JUMPDEST DUP2 DUP2 LT ISZERO PUSH2 0x191B JUMPI PUSH1 0x19 PUSH1 0x0 DUP3 DUP2 MSTORE PUSH1 0x20 ADD SWAP1 DUP2 MSTORE PUSH1 0x20 ADD PUSH1 0x0 KECCAK256 SLOAD DUP5 PUSH2 0x1906 SWAP2 SWAP1 PUSH2 0x2A0E JUMP JUMPDEST SWAP4 POP DUP1 DUP1 PUSH2 0x1913 SWAP1 PUSH2 0x2C21 JUMP JUMPDEST SWAP2 POP POP PUSH2 0x18DF JUMP JUMPDEST JUMPDEST PUSH2 0x19A3 ADDRESS PUSH20 0xFFFFFFFFFFFFFFFFFFFFFFFFFFFFFFFFFFFFFFFF AND PUSH4 0x71CD58F9 PUSH1 0x40 MLOAD DUP2 PUSH4 0xFFFFFFFF AND PUSH1 0xE0 SHL DUP2 MSTORE PUSH1 0x4 ADD PUSH1 0x20 PUSH1 0x40 MLOAD DUP1 DUP4 SUB DUP2 DUP7 DUP1 EXTCODESIZE ISZERO DUP1 ISZERO PUSH2 0x1965 JUMPI PUSH1 0x0 DUP1 REVERT JUMPDEST POP GAS STATICCALL ISZERO DUP1 ISZERO PUSH2 0x1979 JUMPI RETURNDATASIZE PUSH1 0x0 DUP1 RETURNDATACOPY RETURNDATASIZE PUSH1 0x0 REVERT JUMPDEST POP POP POP POP PUSH1 0x40 MLOAD RETURNDATASIZE PUSH1 0x1F NOT PUSH1 0x1F DUP3 ADD AND DUP3 ADD DUP1 PUSH1 0x40 MSTORE POP DUP2 ADD SWAP1 PUSH2 0x199D SWAP2 SWAP1 PUSH2 0x254E JUMP JUMPDEST DUP6 PUSH2 0x1259 JUMP JUMPDEST SWAP5 POP PUSH8 0x429D069189E0000 DUP6 GT ISZERO PUSH2 0x19C1 JUMPI PUSH8 0x429D069189E0000 SWAP5 POP JUMPDEST DUP5 SWAP6 POP POP POP POP POP POP SWAP1 JUMP JUMPDEST POP JUMP JUMPDEST PUSH1 0x1A DUP2 DUP1 MLOAD PUSH1 0x20 DUP2 ADD DUP3 ADD DUP1 MLOAD DUP5 DUP3 MSTORE PUSH1 0x20 DUP4 ADD PUSH1 0x20 DUP6 ADD KECCAK256 DUP2 DUP4 MSTORE DUP1 SWAP6 POP POP POP POP POP POP PUSH1 0x0 SWAP2 POP SWAP1 POP DUP1 PUSH1 0x0 ADD PUSH1 0x0 SWAP1 SLOAD SWAP1 PUSH2 0x100 EXP SWAP1 DIV PUSH20 0xFFFFFFFFFFFFFFFFFFFFFFFFFFFFFFFFFFFFFFFF AND SWAP1 DUP1 PUSH1 0x1 ADD SLOAD SWAP1 POP DUP3 JUMP JUMPDEST PUSH1 0x1B PUSH1 0x0 DUP4 PUSH20 0xFFFFFFFFFFFFFFFFFFFFFFFFFFFFFFFFFFFFFFFF AND PUSH20 0xFFFFFFFFFFFFFFFFFFFFFFFFFFFFFFFFFFFFFFFF AND DUP2 MSTORE PUSH1 0x20 ADD SWAP1 DUP2 MSTORE PUSH1 0x20 ADD PUSH1 0x0 KECCAK256 PUSH1 0x0 ADD SLOAD TIMESTAMP LT ISZERO PUSH2 0x1AAE JUMPI PUSH1 0x40 MLOAD PUSH32 0x8C379A000000000000000000000000000000000000000000000000000000000 DUP2 MSTORE PUSH1 0x4 ADD PUSH2 0x1AA5 SWAP1 PUSH2 0x290D JUMP JUMPDEST PUSH1 0x40 MLOAD DUP1 SWAP2 SUB SWAP1 REVERT JUMPDEST PUSH1 0x1A DUP2 PUSH1 0x40 MLOAD PUSH2 0x1ABE SWAP2 SWAP1 PUSH2 0x27C5 JUMP JUMPDEST SWAP1 DUP2 MSTORE PUSH1 0x20 ADD PUSH1 0x40 MLOAD DUP1 SWAP2 SUB SWAP1 KECCAK256 PUSH1 0x0 ADD PUSH1 0x0 SWAP1 SLOAD SWAP1 PUSH2 0x100 EXP SWAP1 DIV PUSH20 0xFFFFFFFFFFFFFFFFFFFFFFFFFFFFFFFFFFFFFFFF AND PUSH1 0x16 PUSH1 0x0 PUSH2 0x100 EXP DUP2 SLOAD DUP2 PUSH20 0xFFFFFFFFFFFFFFFFFFFFFFFFFFFFFFFFFFFFFFFF MUL NOT AND SWAP1 DUP4 PUSH20 0xFFFFFFFFFFFFFFFFFFFFFFFFFFFFFFFFFFFFFFFF AND MUL OR SWAP1 SSTORE POP PUSH1 0x0 PUSH1 0x1B PUSH1 0x0 DUP5 PUSH20 0xFFFFFFFFFFFFFFFFFFFFFFFFFFFFFFFFFFFFFFFF AND PUSH20 0xFFFFFFFFFFFFFFFFFFFFFFFFFFFFFFFFFFFFFFFF AND DUP2 MSTORE PUSH1 0x20 ADD SWAP1 DUP2 MSTORE PUSH1 0x20 ADD PUSH1 0x0 KECCAK256 PUSH1 0x1 ADD SLOAD SWAP1 POP PUSH2 0x1BA5 PUSH1 0x16 PUSH1 0x0 SWAP1 SLOAD SWAP1 PUSH2 0x100 EXP SWAP1 DIV PUSH20 0xFFFFFFFFFFFFFFFFFFFFFFFFFFFFFFFFFFFFFFFF AND ADDRESS CALLER DUP5 PUSH2 0x213C JUMP JUMPDEST POP POP POP JUMP JUMPDEST PUSH1 0x7 PUSH1 0x0 SWAP1 SLOAD SWAP1 PUSH2 0x100 EXP SWAP1 DIV PUSH20 0xFFFFFFFFFFFFFFFFFFFFFFFFFFFFFFFFFFFFFFFF AND DUP2 JUMP JUMPDEST PUSH1 0x15 PUSH1 0x0 SWAP1 SLOAD SWAP1 PUSH2 0x100 EXP SWAP1 DIV PUSH20 0xFFFFFFFFFFFFFFFFFFFFFFFFFFFFFFFFFFFFFFFF AND DUP2 JUMP JUMPDEST PUSH1 0x1A DUP2 PUSH1 0x40 MLOAD PUSH2 0x1C06 SWAP2 SWAP1 PUSH2 0x27C5 JUMP JUMPDEST SWAP1 DUP2 MSTORE PUSH1 0x20 ADD PUSH1 0x40 MLOAD DUP1 SWAP2 SUB SWAP1 KECCAK256 PUSH1 0x0 ADD PUSH1 0x0 SWAP1 SLOAD SWAP1 PUSH2 0x100 EXP SWAP1 DIV PUSH20 0xFFFFFFFFFFFFFFFFFFFFFFFFFFFFFFFFFFFFFFFF AND PUSH1 0x16 PUSH1 0x0 PUSH2 0x100 EXP DUP2 SLOAD DUP2 PUSH20 0xFFFFFFFFFFFFFFFFFFFFFFFFFFFFFFFFFFFFFFFF MUL NOT AND SWAP1 DUP4 PUSH20 0xFFFFFFFFFFFFFFFFFFFFFFFFFFFFFFFFFFFFFFFF AND MUL OR SWAP1 SSTORE POP PUSH1 0x0 PUSH1 0x12 PUSH1 0x0 SWAP1 SLOAD SWAP1 PUSH2 0x100 EXP SWAP1 DIV PUSH20 0xFFFFFFFFFFFFFFFFFFFFFFFFFFFFFFFFFFFFFFFF AND PUSH20 0xFFFFFFFFFFFFFFFFFFFFFFFFFFFFFFFFFFFFFFFF AND PUSH4 0x70A08231 CALLER PUSH1 0x40 MLOAD DUP3 PUSH4 0xFFFFFFFF AND PUSH1 0xE0 SHL DUP2 MSTORE PUSH1 0x4 ADD PUSH2 0x1CD5 SWAP2 SWAP1 PUSH2 0x27DC JUMP JUMPDEST PUSH1 0x20 PUSH1 0x40 MLOAD DUP1 DUP4 SUB DUP2 DUP7 DUP1 EXTCODESIZE ISZERO DUP1 ISZERO PUSH2 0x1CED JUMPI PUSH1 0x0 DUP1 REVERT JUMPDEST POP GAS STATICCALL ISZERO DUP1 ISZERO PUSH2 0x1D01 JUMPI RETURNDATASIZE PUSH1 0x0 DUP1 RETURNDATACOPY RETURNDATASIZE PUSH1 0x0 REVERT JUMPDEST POP POP POP POP PUSH1 0x40 MLOAD RETURNDATASIZE PUSH1 0x1F NOT PUSH1 0x1F DUP3 ADD AND DUP3 ADD DUP1 PUSH1 0x40 MSTORE POP DUP2 ADD SWAP1 PUSH2 0x1D25 SWAP2 SWAP1 PUSH2 0x254E JUMP JUMPDEST SWAP1 POP DUP4 DUP2 GT PUSH2 0x1D69 JUMPI PUSH1 0x40 MLOAD PUSH32 0x8C379A000000000000000000000000000000000000000000000000000000000 DUP2 MSTORE PUSH1 0x4 ADD PUSH2 0x1D60 SWAP1 PUSH2 0x28CD JUMP JUMPDEST PUSH1 0x40 MLOAD DUP1 SWAP2 SUB SWAP1 REVERT JUMPDEST PUSH1 0x16 PUSH1 0x0 SWAP1 SLOAD SWAP1 PUSH2 0x100 EXP SWAP1 DIV PUSH20 0xFFFFFFFFFFFFFFFFFFFFFFFFFFFFFFFFFFFFFFFF AND PUSH20 0xFFFFFFFFFFFFFFFFFFFFFFFFFFFFFFFFFFFFFFFF AND PUSH4 0xA9059CBB CALLER PUSH8 0xDE0B6B3A7640000 PUSH1 0x1 PUSH2 0x1DBD SWAP2 SWAP1 PUSH2 0x2A95 JUMP JUMPDEST DUP8 PUSH2 0x1DC8 SWAP2 SWAP1 PUSH2 0x2A0E JUMP JUMPDEST PUSH1 0x40 MLOAD DUP4 PUSH4 0xFFFFFFFF AND PUSH1 0xE0 SHL DUP2 MSTORE PUSH1 0x4 ADD PUSH2 0x1DE5 SWAP3 SWAP2 SWAP1 PUSH2 0x282E JUMP JUMPDEST PUSH1 0x20 PUSH1 0x40 MLOAD DUP1 DUP4 SUB DUP2 PUSH1 0x0 DUP8 DUP1 EXTCODESIZE ISZERO DUP1 ISZERO PUSH2 0x1DFF JUMPI PUSH1 0x0 DUP1 REVERT JUMPDEST POP GAS CALL ISZERO DUP1 ISZERO PUSH2 0x1E13 JUMPI RETURNDATASIZE PUSH1 0x0 DUP1 RETURNDATACOPY RETURNDATASIZE PUSH1 0x0 REVERT JUMPDEST POP POP POP POP PUSH1 0x40 MLOAD RETURNDATASIZE PUSH1 0x1F NOT PUSH1 0x1F DUP3 ADD AND DUP3 ADD DUP1 PUSH1 0x40 MSTORE POP DUP2 ADD SWAP1 PUSH2 0x1E37 SWAP2 SWAP1 PUSH2 0x243C JUMP JUMPDEST POP PUSH2 0x1E66 PUSH1 0x12 PUSH1 0x0 SWAP1 SLOAD SWAP1 PUSH2 0x100 EXP SWAP1 DIV PUSH20 0xFFFFFFFFFFFFFFFFFFFFFFFFFFFFFFFFFFFFFFFF AND CALLER ADDRESS DUP8 PUSH2 0x213C JUMP JUMPDEST PUSH1 0x0 DUP5 ADDRESS PUSH20 0xFFFFFFFFFFFFFFFFFFFFFFFFFFFFFFFFFFFFFFFF AND PUSH4 0x43D32E9C PUSH1 0x40 MLOAD DUP2 PUSH4 0xFFFFFFFF AND PUSH1 0xE0 SHL DUP2 MSTORE PUSH1 0x4 ADD PUSH1 0x20 PUSH1 0x40 MLOAD DUP1 DUP4 SUB DUP2 DUP7 DUP1 EXTCODESIZE ISZERO DUP1 ISZERO PUSH2 0x1EAF JUMPI PUSH1 0x0 DUP1 REVERT JUMPDEST POP GAS STATICCALL ISZERO DUP1 ISZERO PUSH2 0x1EC3 JUMPI RETURNDATASIZE PUSH1 0x0 DUP1 RETURNDATACOPY RETURNDATASIZE PUSH1 0x0 REVERT JUMPDEST POP POP POP POP PUSH1 0x40 MLOAD RETURNDATASIZE PUSH1 0x1F NOT PUSH1 0x1F DUP3 ADD AND DUP3 ADD DUP1 PUSH1 0x40 MSTORE POP DUP2 ADD SWAP1 PUSH2 0x1EE7 SWAP2 SWAP1 PUSH2 0x254E JUMP JUMPDEST PUSH2 0x1EF1 SWAP2 SWAP1 PUSH2 0x2A95 JUMP JUMPDEST SWAP1 POP PUSH1 0x0 PUSH3 0x15180 PUSH1 0xB SLOAD TIMESTAMP PUSH2 0x1F07 SWAP2 SWAP1 PUSH2 0x2AEF JUMP JUMPDEST PUSH2 0x1F11 SWAP2 SWAP1 PUSH2 0x2A64 JUMP JUMPDEST SWAP1 POP DUP6 PUSH1 0x18 PUSH1 0x0 DUP4 DUP2 MSTORE PUSH1 0x20 ADD SWAP1 DUP2 MSTORE PUSH1 0x20 ADD PUSH1 0x0 KECCAK256 PUSH1 0x0 DUP3 DUP3 SLOAD PUSH2 0x1F36 SWAP2 SWAP1 PUSH2 0x2A0E JUMP JUMPDEST SWAP3 POP POP DUP2 SWAP1 SSTORE POP DUP6 PUSH1 0x19 PUSH1 0x0 DUP4 DUP2 MSTORE PUSH1 0x20 ADD SWAP1 DUP2 MSTORE PUSH1 0x20 ADD PUSH1 0x0 KECCAK256 PUSH1 0x0 DUP3 DUP3 SLOAD PUSH2 0x1F60 SWAP2 SWAP1 PUSH2 0x2AEF JUMP JUMPDEST SWAP3 POP POP DUP2 SWAP1 SSTORE POP POP POP POP POP POP POP JUMP JUMPDEST PUSH1 0x1 SLOAD DUP2 JUMP JUMPDEST PUSH1 0x14 PUSH1 0x0 SWAP1 SLOAD SWAP1 PUSH2 0x100 EXP SWAP1 DIV PUSH20 0xFFFFFFFFFFFFFFFFFFFFFFFFFFFFFFFFFFFFFFFF AND DUP2 JUMP JUMPDEST PUSH1 0x0 DUP1 PUSH1 0x0 DUP1 PUSH3 0x15180 PUSH1 0xC SLOAD PUSH2 0x1FB2 SWAP2 SWAP1 PUSH2 0x2A64 JUMP JUMPDEST SWAP1 POP PUSH1 0x0 SWAP2 POP JUMPDEST DUP1 DUP3 LT ISZERO PUSH2 0x1FF5 JUMPI PUSH1 0x18 PUSH1 0x0 DUP4 DUP2 MSTORE PUSH1 0x20 ADD SWAP1 DUP2 MSTORE PUSH1 0x20 ADD PUSH1 0x0 KECCAK256 SLOAD DUP4 PUSH2 0x1FE0 SWAP2 SWAP1 PUSH2 0x2A0E JUMP JUMPDEST SWAP3 POP DUP2 DUP1 PUSH2 0x1FED SWAP1 PUSH2 0x2C21 JUMP JUMPDEST SWAP3 POP POP PUSH2 0x1FB9 JUMP JUMPDEST DUP3 SWAP4 POP POP POP POP SWAP1 JUMP JUMPDEST DUP2 PUSH1 0x1A DUP5 PUSH1 0x40 MLOAD PUSH2 0x200F SWAP2 SWAP1 PUSH2 0x27C5 JUMP JUMPDEST SWAP1 DUP2 MSTORE PUSH1 0x20 ADD PUSH1 0x40 MLOAD DUP1 SWAP2 SUB SWAP1 KECCAK256 PUSH1 0x0 ADD PUSH1 0x0 PUSH2 0x100 EXP DUP2 SLOAD DUP2 PUSH20 0xFFFFFFFFFFFFFFFFFFFFFFFFFFFFFFFFFFFFFFFF MUL NOT AND SWAP1 DUP4 PUSH20 0xFFFFFFFFFFFFFFFFFFFFFFFFFFFFFFFFFFFFFFFF AND MUL OR SWAP1 SSTORE POP DUP1 PUSH1 0x1A DUP5 PUSH1 0x40 MLOAD PUSH2 0x206F SWAP2 SWAP1 PUSH2 0x27C5 JUMP JUMPDEST SWAP1 DUP2 MSTORE PUSH1 0x20 ADD PUSH1 0x40 MLOAD DUP1 SWAP2 SUB SWAP1 KECCAK256 PUSH1 0x1 ADD DUP2 SWAP1 SSTORE POP POP POP POP JUMP JUMPDEST PUSH1 0x0 SLOAD DUP2 JUMP JUMPDEST PUSH1 0x11 PUSH1 0x0 SWAP1 SLOAD SWAP1 PUSH2 0x100 EXP SWAP1 DIV PUSH20 0xFFFFFFFFFFFFFFFFFFFFFFFFFFFFFFFFFFFFFFFF AND DUP2 JUMP JUMPDEST PUSH1 0x0 DUP1 PUSH2 0x20C2 DUP5 DUP5 PUSH2 0x2216 JUMP JUMPDEST SWAP1 POP PUSH8 0xDE0B6B3A7640000 PUSH2 0x20EB DUP3 PUSH1 0x2 PUSH8 0xDE0B6B3A7640000 PUSH2 0x20E6 SWAP2 SWAP1 PUSH2 0x2A64 JUMP JUMPDEST PUSH2 0x2291 JUMP JUMPDEST PUSH2 0x20F5 SWAP2 SWAP1 PUSH2 0x2A64 JUMP JUMPDEST SWAP2 POP POP SWAP3 SWAP2 POP POP JUMP JUMPDEST PUSH1 0x6 PUSH1 0x0 SWAP1 SLOAD SWAP1 PUSH2 0x100 EXP SWAP1 DIV PUSH20 0xFFFFFFFFFFFFFFFFFFFFFFFFFFFFFFFFFFFFFFFF AND DUP2 JUMP JUMPDEST PUSH3 0x15180 DUP2 PUSH2 0x2133 SWAP2 SWAP1 PUSH2 0x2A95 JUMP JUMPDEST PUSH1 0xC DUP2 SWAP1 SSTORE POP POP JUMP JUMPDEST PUSH1 0x0 DUP5 PUSH20 0xFFFFFFFFFFFFFFFFFFFFFFFFFFFFFFFFFFFFFFFF AND PUSH4 0x23B872DD DUP6 DUP6 DUP6 PUSH1 0x40 MLOAD DUP5 PUSH4 0xFFFFFFFF AND PUSH1 0xE0 SHL DUP2 MSTORE PUSH1 0x4 ADD PUSH2 0x217B SWAP4 SWAP3 SWAP2 SWAP1 PUSH2 0x27F7 JUMP JUMPDEST PUSH1 0x20 PUSH1 0x40 MLOAD DUP1 DUP4 SUB DUP2 PUSH1 0x0 DUP8 DUP1 EXTCODESIZE ISZERO DUP1 ISZERO PUSH2 0x2195 JUMPI PUSH1 0x0 DUP1 REVERT JUMPDEST POP GAS CALL ISZERO DUP1 ISZERO PUSH2 0x21A9 JUMPI RETURNDATASIZE PUSH1 0x0 DUP1 RETURNDATACOPY RETURNDATASIZE PUSH1 0x0 REVERT JUMPDEST POP POP POP POP PUSH1 0x40 MLOAD RETURNDATASIZE PUSH1 0x1F NOT PUSH1 0x1F DUP3 ADD AND DUP3 ADD DUP1 PUSH1 0x40 MSTORE POP DUP2 ADD SWAP1 PUSH2 0x21CD SWAP2 SWAP1 PUSH2 0x243C JUMP JUMPDEST SWAP1 POP DUP1 PUSH2 0x220F JUMPI PUSH1 0x40 MLOAD PUSH32 0x8C379A000000000000000000000000000000000000000000000000000000000 DUP2 MSTORE PUSH1 0x4 ADD PUSH2 0x2206 SWAP1 PUSH2 0x28AD JUMP JUMPDEST PUSH1 0x40 MLOAD DUP1 SWAP2 SUB SWAP1 REVERT JUMPDEST POP POP POP POP POP JUMP JUMPDEST PUSH1 0x0 DUP1 DUP4 EQ ISZERO PUSH2 0x2229 JUMPI PUSH1 0x0 SWAP1 POP PUSH2 0x228B JUMP JUMPDEST PUSH1 0x0 DUP3 DUP5 PUSH2 0x2237 SWAP2 SWAP1 PUSH2 0x2A95 JUMP JUMPDEST SWAP1 POP DUP3 DUP5 DUP3 PUSH2 0x2246 SWAP2 SWAP1 PUSH2 0x2A64 JUMP JUMPDEST EQ PUSH2 0x2286 JUMPI PUSH1 0x40 MLOAD PUSH32 0x8C379A000000000000000000000000000000000000000000000000000000000 DUP2 MSTORE PUSH1 0x4 ADD PUSH2 0x227D SWAP1 PUSH2 0x292D JUMP JUMPDEST PUSH1 0x40 MLOAD DUP1 SWAP2 SUB SWAP1 REVERT JUMPDEST DUP1 SWAP2 POP POP JUMPDEST SWAP3 SWAP2 POP POP JUMP JUMPDEST PUSH1 0x0 DUP1 DUP3 DUP5 PUSH2 0x22A0 SWAP2 SWAP1 PUSH2 0x2A0E JUMP JUMPDEST SWAP1 POP DUP4 DUP2 LT ISZERO PUSH2 0x22E5 JUMPI PUSH1 0x40 MLOAD PUSH32 0x8C379A000000000000000000000000000000000000000000000000000000000 DUP2 MSTORE PUSH1 0x4 ADD PUSH2 0x22DC SWAP1 PUSH2 0x292D JUMP JUMPDEST PUSH1 0x40 MLOAD DUP1 SWAP2 SUB SWAP1 REVERT JUMPDEST DUP1 SWAP2 POP POP SWAP3 SWAP2 POP POP JUMP JUMPDEST PUSH1 0x0 PUSH2 0x2302 PUSH2 0x22FD DUP5 PUSH2 0x29B6 JUMP JUMPDEST PUSH2 0x2991 JUMP JUMPDEST SWAP1 POP DUP3 DUP2 MSTORE PUSH1 0x20 DUP2 ADD DUP5 DUP5 DUP5 ADD GT ISZERO PUSH2 0x231E JUMPI PUSH2 0x231D PUSH2 0x2CFC JUMP JUMPDEST JUMPDEST PUSH2 0x2329 DUP5 DUP3 DUP6 PUSH2 0x2BAE JUMP JUMPDEST POP SWAP4 SWAP3 POP POP POP JUMP JUMPDEST PUSH1 0x0 DUP2 CALLDATALOAD SWAP1 POP PUSH2 0x2340 DUP2 PUSH2 0x2E5E JUMP JUMPDEST SWAP3 SWAP2 POP POP JUMP JUMPDEST PUSH1 0x0 DUP2 MLOAD SWAP1 POP PUSH2 0x2355 DUP2 PUSH2 0x2E75 JUMP JUMPDEST SWAP3 SWAP2 POP POP JUMP JUMPDEST PUSH1 0x0 DUP3 PUSH1 0x1F DUP4 ADD SLT PUSH2 0x2370 JUMPI PUSH2 0x236F PUSH2 0x2CF7 JUMP JUMPDEST JUMPDEST DUP2 CALLDATALOAD PUSH2 0x2380 DUP5 DUP3 PUSH1 0x20 DUP7 ADD PUSH2 0x22EF JUMP JUMPDEST SWAP2 POP POP SWAP3 SWAP2 POP POP JUMP JUMPDEST PUSH1 0x0 DUP2 CALLDATALOAD SWAP1 POP PUSH2 0x2398 DUP2 PUSH2 0x2E8C JUMP JUMPDEST SWAP3 SWAP2 POP POP JUMP JUMPDEST PUSH1 0x0 DUP2 MLOAD SWAP1 POP PUSH2 0x23AD DUP2 PUSH2 0x2E8C JUMP JUMPDEST SWAP3 SWAP2 POP POP JUMP JUMPDEST PUSH1 0x0 PUSH1 0x20 DUP3 DUP5 SUB SLT ISZERO PUSH2 0x23C9 JUMPI PUSH2 0x23C8 PUSH2 0x2D06 JUMP JUMPDEST JUMPDEST PUSH1 0x0 PUSH2 0x23D7 DUP5 DUP3 DUP6 ADD PUSH2 0x2331 JUMP JUMPDEST SWAP2 POP POP SWAP3 SWAP2 POP POP JUMP JUMPDEST PUSH1 0x0 DUP1 PUSH1 0x40 DUP4 DUP6 SUB SLT ISZERO PUSH2 0x23F7 JUMPI PUSH2 0x23F6 PUSH2 0x2D06 JUMP JUMPDEST JUMPDEST PUSH1 0x0 PUSH2 0x2405 DUP6 DUP3 DUP7 ADD PUSH2 0x2331 JUMP JUMPDEST SWAP3 POP POP PUSH1 0x20 DUP4 ADD CALLDATALOAD PUSH8 0xFFFFFFFFFFFFFFFF DUP2 GT ISZERO PUSH2 0x2426 JUMPI PUSH2 0x2425 PUSH2 0x2D01 JUMP JUMPDEST JUMPDEST PUSH2 0x2432 DUP6 DUP3 DUP7 ADD PUSH2 0x235B JUMP JUMPDEST SWAP2 POP POP SWAP3 POP SWAP3 SWAP1 POP JUMP JUMPDEST PUSH1 0x0 PUSH1 0x20 DUP3 DUP5 SUB SLT ISZERO PUSH2 0x2452 JUMPI PUSH2 0x2451 PUSH2 0x2D06 JUMP JUMPDEST JUMPDEST PUSH1 0x0 PUSH2 0x2460 DUP5 DUP3 DUP6 ADD PUSH2 0x2346 JUMP JUMPDEST SWAP2 POP POP SWAP3 SWAP2 POP POP JUMP JUMPDEST PUSH1 0x0 PUSH1 0x20 DUP3 DUP5 SUB SLT ISZERO PUSH2 0x247F JUMPI PUSH2 0x247E PUSH2 0x2D06 JUMP JUMPDEST JUMPDEST PUSH1 0x0 DUP3 ADD CALLDATALOAD PUSH8 0xFFFFFFFFFFFFFFFF DUP2 GT ISZERO PUSH2 0x249D JUMPI PUSH2 0x249C PUSH2 0x2D01 JUMP JUMPDEST JUMPDEST PUSH2 0x24A9 DUP5 DUP3 DUP6 ADD PUSH2 0x235B JUMP JUMPDEST SWAP2 POP POP SWAP3 SWAP2 POP POP JUMP JUMPDEST PUSH1 0x0 DUP1 PUSH1 0x0 PUSH1 0x60 DUP5 DUP7 SUB SLT ISZERO PUSH2 0x24CB JUMPI PUSH2 0x24CA PUSH2 0x2D06 JUMP JUMPDEST JUMPDEST PUSH1 0x0 DUP5 ADD CALLDATALOAD PUSH8 0xFFFFFFFFFFFFFFFF DUP2 GT ISZERO PUSH2 0x24E9 JUMPI PUSH2 0x24E8 PUSH2 0x2D01 JUMP JUMPDEST JUMPDEST PUSH2 0x24F5 DUP7 DUP3 DUP8 ADD PUSH2 0x235B JUMP JUMPDEST SWAP4 POP POP PUSH1 0x20 PUSH2 0x2506 DUP7 DUP3 DUP8 ADD PUSH2 0x2331 JUMP JUMPDEST SWAP3 POP POP PUSH1 0x40 PUSH2 0x2517 DUP7 DUP3 DUP8 ADD PUSH2 0x2389 JUMP JUMPDEST SWAP2 POP POP SWAP3 POP SWAP3 POP SWAP3 JUMP JUMPDEST PUSH1 0x0 PUSH1 0x20 DUP3 DUP5 SUB SLT ISZERO PUSH2 0x2537 JUMPI PUSH2 0x2536 PUSH2 0x2D06 JUMP JUMPDEST JUMPDEST PUSH1 0x0 PUSH2 0x2545 DUP5 DUP3 DUP6 ADD PUSH2 0x2389 JUMP JUMPDEST SWAP2 POP POP SWAP3 SWAP2 POP POP JUMP JUMPDEST PUSH1 0x0 PUSH1 0x20 DUP3 DUP5 SUB SLT ISZERO PUSH2 0x2564 JUMPI PUSH2 0x2563 PUSH2 0x2D06 JUMP JUMPDEST JUMPDEST PUSH1 0x0 PUSH2 0x2572 DUP5 DUP3 DUP6 ADD PUSH2 0x239E JUMP JUMPDEST SWAP2 POP POP SWAP3 SWAP2 POP POP JUMP JUMPDEST PUSH1 0x0 DUP1 PUSH1 0x40 DUP4 DUP6 SUB SLT ISZERO PUSH2 0x2592 JUMPI PUSH2 0x2591 PUSH2 0x2D06 JUMP JUMPDEST JUMPDEST PUSH1 0x0 PUSH2 0x25A0 DUP6 DUP3 DUP7 ADD PUSH2 0x2389 JUMP JUMPDEST SWAP3 POP POP PUSH1 0x20 DUP4 ADD CALLDATALOAD PUSH8 0xFFFFFFFFFFFFFFFF DUP2 GT ISZERO PUSH2 0x25C1 JUMPI PUSH2 0x25C0 PUSH2 0x2D01 JUMP JUMPDEST JUMPDEST PUSH2 0x25CD DUP6 DUP3 DUP7 ADD PUSH2 0x235B JUMP JUMPDEST SWAP2 POP POP SWAP3 POP SWAP3 SWAP1 POP JUMP JUMPDEST PUSH1 0x0 DUP1 PUSH1 0x40 DUP4 DUP6 SUB SLT ISZERO PUSH2 0x25EE JUMPI PUSH2 0x25ED PUSH2 0x2D06 JUMP JUMPDEST JUMPDEST PUSH1 0x0 PUSH2 0x25FC DUP6 DUP3 DUP7 ADD PUSH2 0x2389 JUMP JUMPDEST SWAP3 POP POP PUSH1 0x20 PUSH2 0x260D DUP6 DUP3 DUP7 ADD PUSH2 0x2389 JUMP JUMPDEST SWAP2 POP POP SWAP3 POP SWAP3 SWAP1 POP JUMP JUMPDEST PUSH1 0x0 DUP1 PUSH1 0x0 PUSH1 0x60 DUP5 DUP7 SUB SLT ISZERO PUSH2 0x2630 JUMPI PUSH2 0x262F PUSH2 0x2D06 JUMP JUMPDEST JUMPDEST PUSH1 0x0 PUSH2 0x263E DUP7 DUP3 DUP8 ADD PUSH2 0x2389 JUMP JUMPDEST SWAP4 POP POP PUSH1 0x20 PUSH2 0x264F DUP7 DUP3 DUP8 ADD PUSH2 0x2389 JUMP JUMPDEST SWAP3 POP POP PUSH1 0x40 DUP5 ADD CALLDATALOAD PUSH8 0xFFFFFFFFFFFFFFFF DUP2 GT ISZERO PUSH2 0x2670 JUMPI PUSH2 0x266F PUSH2 0x2D01 JUMP JUMPDEST JUMPDEST PUSH2 0x267C DUP7 DUP3 DUP8 ADD PUSH2 0x235B JUMP JUMPDEST SWAP2 POP POP SWAP3 POP SWAP3 POP SWAP3 JUMP JUMPDEST PUSH2 0x268F DUP2 PUSH2 0x2B23 JUMP JUMPDEST DUP3 MSTORE POP POP JUMP JUMPDEST PUSH2 0x269E DUP2 PUSH2 0x2B78 JUMP JUMPDEST DUP3 MSTORE POP POP JUMP JUMPDEST PUSH2 0x26AD DUP2 PUSH2 0x2B41 JUMP JUMPDEST DUP3 MSTORE POP POP JUMP JUMPDEST PUSH1 0x0 PUSH2 0x26BE DUP3 PUSH2 0x29E7 JUMP JUMPDEST PUSH2 0x26C8 DUP2 DUP6 PUSH2 0x2A03 JUMP JUMPDEST SWAP4 POP PUSH2 0x26D8 DUP2 DUP6 PUSH1 0x20 DUP7 ADD PUSH2 0x2BBD JUMP JUMPDEST DUP1 DUP5 ADD SWAP2 POP POP SWAP3 SWAP2 POP POP JUMP JUMPDEST PUSH1 0x0 PUSH2 0x26F1 PUSH1 0x24 DUP4 PUSH2 0x29F2 JUMP JUMPDEST SWAP2 POP PUSH2 0x26FC DUP3 PUSH2 0x2D1C JUMP JUMPDEST PUSH1 0x40 DUP3 ADD SWAP1 POP SWAP2 SWAP1 POP JUMP JUMPDEST PUSH1 0x0 PUSH2 0x2714 PUSH1 0x15 DUP4 PUSH2 0x29F2 JUMP JUMPDEST SWAP2 POP PUSH2 0x271F DUP3 PUSH2 0x2D6B JUMP JUMPDEST PUSH1 0x20 DUP3 ADD SWAP1 POP SWAP2 SWAP1 POP JUMP JUMPDEST PUSH1 0x0 PUSH2 0x2737 PUSH1 0x1A DUP4 PUSH2 0x29F2 JUMP JUMPDEST SWAP2 POP PUSH2 0x2742 DUP3 PUSH2 0x2D94 JUMP JUMPDEST PUSH1 0x20 DUP3 ADD SWAP1 POP SWAP2 SWAP1 POP JUMP JUMPDEST PUSH1 0x0 PUSH2 0x275A PUSH1 0x15 DUP4 PUSH2 0x29F2 JUMP JUMPDEST SWAP2 POP PUSH2 0x2765 DUP3 PUSH2 0x2DBD JUMP JUMPDEST PUSH1 0x20 DUP3 ADD SWAP1 POP SWAP2 SWAP1 POP JUMP JUMPDEST PUSH1 0x0 PUSH2 0x277D PUSH1 0xC DUP4 PUSH2 0x29F2 JUMP JUMPDEST SWAP2 POP PUSH2 0x2788 DUP3 PUSH2 0x2DE6 JUMP JUMPDEST PUSH1 0x20 DUP3 ADD SWAP1 POP SWAP2 SWAP1 POP JUMP JUMPDEST PUSH1 0x0 PUSH2 0x27A0 PUSH1 0x21 DUP4 PUSH2 0x29F2 JUMP JUMPDEST SWAP2 POP PUSH2 0x27AB DUP3 PUSH2 0x2E0F JUMP JUMPDEST PUSH1 0x40 DUP3 ADD SWAP1 POP SWAP2 SWAP1 POP JUMP JUMPDEST PUSH2 0x27BF DUP2 PUSH2 0x2B6E JUMP JUMPDEST DUP3 MSTORE POP POP JUMP JUMPDEST PUSH1 0x0 PUSH2 0x27D1 DUP3 DUP5 PUSH2 0x26B3 JUMP JUMPDEST SWAP2 POP DUP2 SWAP1 POP SWAP3 SWAP2 POP POP JUMP JUMPDEST PUSH1 0x0 PUSH1 0x20 DUP3 ADD SWAP1 POP PUSH2 0x27F1 PUSH1 0x0 DUP4 ADD DUP5 PUSH2 0x2686 JUMP JUMPDEST SWAP3 SWAP2 POP POP JUMP JUMPDEST PUSH1 0x0 PUSH1 0x60 DUP3 ADD SWAP1 POP PUSH2 0x280C PUSH1 0x0 DUP4 ADD DUP7 PUSH2 0x2686 JUMP JUMPDEST PUSH2 0x2819 PUSH1 0x20 DUP4 ADD DUP6 PUSH2 0x2686 JUMP JUMPDEST PUSH2 0x2826 PUSH1 0x40 DUP4 ADD DUP5 PUSH2 0x27B6 JUMP JUMPDEST SWAP5 SWAP4 POP POP POP POP JUMP JUMPDEST PUSH1 0x0 PUSH1 0x40 DUP3 ADD SWAP1 POP PUSH2 0x2843 PUSH1 0x0 DUP4 ADD DUP6 PUSH2 0x2686 JUMP JUMPDEST PUSH2 0x2850 PUSH1 0x20 DUP4 ADD DUP5 PUSH2 0x27B6 JUMP JUMPDEST SWAP4 SWAP3 POP POP POP JUMP JUMPDEST PUSH1 0x0 PUSH1 0x20 DUP3 ADD SWAP1 POP PUSH2 0x286C PUSH1 0x0 DUP4 ADD DUP5 PUSH2 0x2695 JUMP JUMPDEST SWAP3 SWAP2 POP POP JUMP JUMPDEST PUSH1 0x0 PUSH1 0x20 DUP3 ADD SWAP1 POP PUSH2 0x2887 PUSH1 0x0 DUP4 ADD DUP5 PUSH2 0x26A4 JUMP JUMPDEST SWAP3 SWAP2 POP POP JUMP JUMPDEST PUSH1 0x0 PUSH1 0x20 DUP3 ADD SWAP1 POP DUP2 DUP2 SUB PUSH1 0x0 DUP4 ADD MSTORE PUSH2 0x28A6 DUP2 PUSH2 0x26E4 JUMP JUMPDEST SWAP1 POP SWAP2 SWAP1 POP JUMP JUMPDEST PUSH1 0x0 PUSH1 0x20 DUP3 ADD SWAP1 POP DUP2 DUP2 SUB PUSH1 0x0 DUP4 ADD MSTORE PUSH2 0x28C6 DUP2 PUSH2 0x2707 JUMP JUMPDEST SWAP1 POP SWAP2 SWAP1 POP JUMP JUMPDEST PUSH1 0x0 PUSH1 0x20 DUP3 ADD SWAP1 POP DUP2 DUP2 SUB PUSH1 0x0 DUP4 ADD MSTORE PUSH2 0x28E6 DUP2 PUSH2 0x272A JUMP JUMPDEST SWAP1 POP SWAP2 SWAP1 POP JUMP JUMPDEST PUSH1 0x0 PUSH1 0x20 DUP3 ADD SWAP1 POP DUP2 DUP2 SUB PUSH1 0x0 DUP4 ADD MSTORE PUSH2 0x2906 DUP2 PUSH2 0x274D JUMP JUMPDEST SWAP1 POP SWAP2 SWAP1 POP JUMP JUMPDEST PUSH1 0x0 PUSH1 0x20 DUP3 ADD SWAP1 POP DUP2 DUP2 SUB PUSH1 0x0 DUP4 ADD MSTORE PUSH2 0x2926 DUP2 PUSH2 0x2770 JUMP JUMPDEST SWAP1 POP SWAP2 SWAP1 POP JUMP JUMPDEST PUSH1 0x0 PUSH1 0x20 DUP3 ADD SWAP1 POP DUP2 DUP2 SUB PUSH1 0x0 DUP4 ADD MSTORE PUSH2 0x2946 DUP2 PUSH2 0x2793 JUMP JUMPDEST SWAP1 POP SWAP2 SWAP1 POP JUMP JUMPDEST PUSH1 0x0 PUSH1 0x20 DUP3 ADD SWAP1 POP PUSH2 0x2962 PUSH1 0x0 DUP4 ADD DUP5 PUSH2 0x27B6 JUMP JUMPDEST SWAP3 SWAP2 POP POP JUMP JUMPDEST PUSH1 0x0 PUSH1 0x40 DUP3 ADD SWAP1 POP PUSH2 0x297D PUSH1 0x0 DUP4 ADD DUP6 PUSH2 0x27B6 JUMP JUMPDEST PUSH2 0x298A PUSH1 0x20 DUP4 ADD DUP5 PUSH2 0x27B6 JUMP JUMPDEST SWAP4 SWAP3 POP POP POP JUMP JUMPDEST PUSH1 0x0 PUSH2 0x299B PUSH2 0x29AC JUMP JUMPDEST SWAP1 POP PUSH2 0x29A7 DUP3 DUP3 PUSH2 0x2BF0 JUMP JUMPDEST SWAP2 SWAP1 POP JUMP JUMPDEST PUSH1 0x0 PUSH1 0x40 MLOAD SWAP1 POP SWAP1 JUMP JUMPDEST PUSH1 0x0 PUSH8 0xFFFFFFFFFFFFFFFF DUP3 GT ISZERO PUSH2 0x29D1 JUMPI PUSH2 0x29D0 PUSH2 0x2CC8 JUMP JUMPDEST JUMPDEST PUSH2 0x29DA DUP3 PUSH2 0x2D0B JUMP JUMPDEST SWAP1 POP PUSH1 0x20 DUP2 ADD SWAP1 POP SWAP2 SWAP1 POP JUMP JUMPDEST PUSH1 0x0 DUP2 MLOAD SWAP1 POP SWAP2 SWAP1 POP JUMP JUMPDEST PUSH1 0x0 DUP3 DUP3 MSTORE PUSH1 0x20 DUP3 ADD SWAP1 POP SWAP3 SWAP2 POP POP JUMP JUMPDEST PUSH1 0x0 DUP2 SWAP1 POP SWAP3 SWAP2 POP POP JUMP JUMPDEST PUSH1 0x0 PUSH2 0x2A19 DUP3 PUSH2 0x2B6E JUMP JUMPDEST SWAP2 POP PUSH2 0x2A24 DUP4 PUSH2 0x2B6E JUMP JUMPDEST SWAP3 POP DUP3 PUSH32 0xFFFFFFFFFFFFFFFFFFFFFFFFFFFFFFFFFFFFFFFFFFFFFFFFFFFFFFFFFFFFFFFF SUB DUP3 GT ISZERO PUSH2 0x2A59 JUMPI PUSH2 0x2A58 PUSH2 0x2C6A JUMP JUMPDEST JUMPDEST DUP3 DUP3 ADD SWAP1 POP SWAP3 SWAP2 POP POP JUMP JUMPDEST PUSH1 0x0 PUSH2 0x2A6F DUP3 PUSH2 0x2B6E JUMP JUMPDEST SWAP2 POP PUSH2 0x2A7A DUP4 PUSH2 0x2B6E JUMP JUMPDEST SWAP3 POP DUP3 PUSH2 0x2A8A JUMPI PUSH2 0x2A89 PUSH2 0x2C99 JUMP JUMPDEST JUMPDEST DUP3 DUP3 DIV SWAP1 POP SWAP3 SWAP2 POP POP JUMP JUMPDEST PUSH1 0x0 PUSH2 0x2AA0 DUP3 PUSH2 0x2B6E JUMP JUMPDEST SWAP2 POP PUSH2 0x2AAB DUP4 PUSH2 0x2B6E JUMP JUMPDEST SWAP3 POP DUP2 PUSH32 0xFFFFFFFFFFFFFFFFFFFFFFFFFFFFFFFFFFFFFFFFFFFFFFFFFFFFFFFFFFFFFFFF DIV DUP4 GT DUP3 ISZERO ISZERO AND ISZERO PUSH2 0x2AE4 JUMPI PUSH2 0x2AE3 PUSH2 0x2C6A JUMP JUMPDEST JUMPDEST DUP3 DUP3 MUL SWAP1 POP SWAP3 SWAP2 POP POP JUMP JUMPDEST PUSH1 0x0 PUSH2 0x2AFA DUP3 PUSH2 0x2B6E JUMP JUMPDEST SWAP2 POP PUSH2 0x2B05 DUP4 PUSH2 0x2B6E JUMP JUMPDEST SWAP3 POP DUP3 DUP3 LT ISZERO PUSH2 0x2B18 JUMPI PUSH2 0x2B17 PUSH2 0x2C6A JUMP JUMPDEST JUMPDEST DUP3 DUP3 SUB SWAP1 POP SWAP3 SWAP2 POP POP JUMP JUMPDEST PUSH1 0x0 PUSH2 0x2B2E DUP3 PUSH2 0x2B4E JUMP JUMPDEST SWAP1 POP SWAP2 SWAP1 POP JUMP JUMPDEST PUSH1 0x0 DUP2 ISZERO ISZERO SWAP1 POP SWAP2 SWAP1 POP JUMP JUMPDEST PUSH1 0x0 DUP2 PUSH1 0xF SIGNEXTEND SWAP1 POP SWAP2 SWAP1 POP JUMP JUMPDEST PUSH1 0x0 PUSH20 0xFFFFFFFFFFFFFFFFFFFFFFFFFFFFFFFFFFFFFFFF DUP3 AND SWAP1 POP SWAP2 SWAP1 POP JUMP JUMPDEST PUSH1 0x0 DUP2 SWAP1 POP SWAP2 SWAP1 POP JUMP JUMPDEST PUSH1 0x0 PUSH2 0x2B83 DUP3 PUSH2 0x2B8A JUMP JUMPDEST SWAP1 POP SWAP2 SWAP1 POP JUMP JUMPDEST PUSH1 0x0 PUSH2 0x2B95 DUP3 PUSH2 0x2B9C JUMP JUMPDEST SWAP1 POP SWAP2 SWAP1 POP JUMP JUMPDEST PUSH1 0x0 PUSH2 0x2BA7 DUP3 PUSH2 0x2B4E JUMP JUMPDEST SWAP1 POP SWAP2 SWAP1 POP JUMP JUMPDEST DUP3 DUP2 DUP4 CALLDATACOPY PUSH1 0x0 DUP4 DUP4 ADD MSTORE POP POP POP JUMP JUMPDEST PUSH1 0x0 JUMPDEST DUP4 DUP2 LT ISZERO PUSH2 0x2BDB JUMPI DUP1 DUP3 ADD MLOAD DUP2 DUP5 ADD MSTORE PUSH1 0x20 DUP2 ADD SWAP1 POP PUSH2 0x2BC0 JUMP JUMPDEST DUP4 DUP2 GT ISZERO PUSH2 0x2BEA JUMPI PUSH1 0x0 DUP5 DUP5 ADD MSTORE JUMPDEST POP POP POP POP JUMP JUMPDEST PUSH2 0x2BF9 DUP3 PUSH2 0x2D0B JUMP JUMPDEST DUP2 ADD DUP2 DUP2 LT PUSH8 0xFFFFFFFFFFFFFFFF DUP3 GT OR ISZERO PUSH2 0x2C18 JUMPI PUSH2 0x2C17 PUSH2 0x2CC8 JUMP JUMPDEST JUMPDEST DUP1 PUSH1 0x40 MSTORE POP POP POP JUMP JUMPDEST PUSH1 0x0 PUSH2 0x2C2C DUP3 PUSH2 0x2B6E JUMP JUMPDEST SWAP2 POP PUSH32 0xFFFFFFFFFFFFFFFFFFFFFFFFFFFFFFFFFFFFFFFFFFFFFFFFFFFFFFFFFFFFFFFF DUP3 EQ ISZERO PUSH2 0x2C5F JUMPI PUSH2 0x2C5E PUSH2 0x2C6A JUMP JUMPDEST JUMPDEST PUSH1 0x1 DUP3 ADD SWAP1 POP SWAP2 SWAP1 POP JUMP JUMPDEST PUSH32 0x4E487B7100000000000000000000000000000000000000000000000000000000 PUSH1 0x0 MSTORE PUSH1 0x11 PUSH1 0x4 MSTORE PUSH1 0x24 PUSH1 0x0 REVERT JUMPDEST PUSH32 0x4E487B7100000000000000000000000000000000000000000000000000000000 PUSH1 0x0 MSTORE PUSH1 0x12 PUSH1 0x4 MSTORE PUSH1 0x24 PUSH1 0x0 REVERT JUMPDEST PUSH32 0x4E487B7100000000000000000000000000000000000000000000000000000000 PUSH1 0x0 MSTORE PUSH1 0x41 PUSH1 0x4 MSTORE PUSH1 0x24 PUSH1 0x0 REVERT JUMPDEST PUSH1 0x0 DUP1 REVERT JUMPDEST PUSH1 0x0 DUP1 REVERT JUMPDEST PUSH1 0x0 DUP1 REVERT JUMPDEST PUSH1 0x0 DUP1 REVERT JUMPDEST PUSH1 0x0 PUSH1 0x1F NOT PUSH1 0x1F DUP4 ADD AND SWAP1 POP SWAP2 SWAP1 POP JUMP JUMPDEST PUSH32 0x596F7520646F6E7420686176652074686174206D75636820746F207769746864 PUSH1 0x0 DUP3 ADD MSTORE PUSH32 0x7261772100000000000000000000000000000000000000000000000000000000 PUSH1 0x20 DUP3 ADD MSTORE POP JUMP JUMPDEST PUSH32 0x546F6B656E207472616E73666572206661696C65640000000000000000000000 PUSH1 0x0 DUP3 ADD MSTORE POP JUMP JUMPDEST PUSH32 0x596F7520646F6E742068617665207468617420616D6F756E7421000000000000 PUSH1 0x0 DUP3 ADD MSTORE POP JUMP JUMPDEST PUSH32 0x506572207472616E73616374696F6E206C696D69740000000000000000000000 PUSH1 0x0 DUP3 ADD MSTORE POP JUMP JUMPDEST PUSH32 0x4E6F7420756E6C6F636B65640000000000000000000000000000000000000000 PUSH1 0x0 DUP3 ADD MSTORE POP JUMP JUMPDEST PUSH32 0x75696E74206F766572666C6F772066726F6D206D756C7469706C69636174696F PUSH1 0x0 DUP3 ADD MSTORE PUSH32 0x6E00000000000000000000000000000000000000000000000000000000000000 PUSH1 0x20 DUP3 ADD MSTORE POP JUMP JUMPDEST PUSH2 0x2E67 DUP2 PUSH2 0x2B23 JUMP JUMPDEST DUP2 EQ PUSH2 0x2E72 JUMPI PUSH1 0x0 DUP1 REVERT JUMPDEST POP JUMP JUMPDEST PUSH2 0x2E7E DUP2 PUSH2 0x2B35 JUMP JUMPDEST DUP2 EQ PUSH2 0x2E89 JUMPI PUSH1 0x0 DUP1 REVERT JUMPDEST POP JUMP JUMPDEST PUSH2 0x2E95 DUP2 PUSH2 0x2B6E JUMP JUMPDEST DUP2 EQ PUSH2 0x2EA0 JUMPI PUSH1 0x0 DUP1 REVERT JUMPDEST POP JUMP INVALID LOG2 PUSH5 0x6970667358 0x22 SLT KECCAK256 0xAE 0xF PUSH7 0xCF4BB492ADB945 0xA6 0xE1 SGT 0xAE 0xD2 0xE6 SWAP1 0xBF CALLCODE SWAP15 LOG2 0xAA 0x27 CALLCODE 0xC5 0x4C LOG4 PUSH17 0xE7A417A064736F6C634300080700330000 "
				},
				"gasEstimates": {
					"creation": {
						"codeDepositCost": "2398600",
						"executionCost": "infinite",
						"totalCost": "infinite"
					},
					"external": {
						"BTON()": "2645",
						"SPTR()": "2646",
						"WAND()": "2711",
						"addStable(string,address,uint256)": "infinite",
						"buyScepter(uint256,string)": "infinite",
						"cashOutScepter(uint256,uint256,string)": "infinite",
						"circulatingSupplyXDays(uint256)": "infinite",
						"claimLockedUSDC(address,string)": "infinite",
						"daysInCalculation()": "2540",
						"decDiv18(uint256,uint256)": "infinite",
						"decMul18(uint256,uint256)": "infinite",
						"devWalletAddr()": "2582",
						"getBackingPrice()": "infinite",
						"getBuyPrice()": "infinite",
						"getCircSupplyXDays()": "infinite",
						"getGrowthFactor()": "infinite",
						"getSellFactor()": "infinite",
						"getSellPrice()": "infinite",
						"getTokensBoughtXDays()": "infinite",
						"getTokensSoldXDays()": "infinite",
						"growthFactor()": "2495",
						"res()": "2543",
						"riskTreasuryAddr()": "2583",
						"scepterTreasuryAddr()": "2647",
						"sellFactor()": "2518",
						"setDaysUsedInFactors(uint256)": "infinite",
						"stableERC20Info(string)": "infinite",
						"tSC()": "2646",
						"testUpdatetimeLockedminus(uint256)": "infinite",
						"testUpdatetimeLockedplus(uint256)": "infinite",
						"testwallet()": "2602",
						"timeLaunched()": "2474",
						"tokenStable()": "2690",
						"tokensBoughtXDays(uint256)": "infinite",
						"tokensSoldXDays(uint256)": "infinite",
						"transformScepterToBaton(uint256)": "infinite",
						"treasury1Addr()": "2646",
						"treasury1bal()": "2541",
						"whitelist(address)": "522",
						"withdrawStables(uint256)": "540",
						"withheldWithdrawals(address)": "infinite"
					},
					"internal": {
						"_safeTransferFrom(contract IERC20,address,address,uint256)": "infinite",
						"add(uint256,uint256)": "infinite",
						"div(uint256,uint256)": "infinite",
						"mintBaton(uint256)": "infinite",
						"mul(uint256,uint256)": "infinite",
						"sub(uint256,uint256)": "infinite"
					}
				},
				"methodIdentifiers": {
					"BTON()": "c0ca6fb4",
					"SPTR()": "26ae486e",
					"WAND()": "d04d7908",
					"addStable(string,address,uint256)": "e5d98082",
					"buyScepter(uint256,string)": "862d1b35",
					"cashOutScepter(uint256,uint256,string)": "c0ce5889",
					"circulatingSupplyXDays(uint256)": "1a30e872",
					"claimLockedUSDC(address,string)": "bdad7f02",
					"daysInCalculation()": "67b48c91",
					"decDiv18(uint256,uint256)": "64ce07d8",
					"decMul18(uint256,uint256)": "f7523c52",
					"devWalletAddr()": "29982a32",
					"getBackingPrice()": "1f564a06",
					"getBuyPrice()": "018a25e8",
					"getCircSupplyXDays()": "0f65de3e",
					"getGrowthFactor()": "93f7b711",
					"getSellFactor()": "0ccaf04f",
					"getSellPrice()": "43d32e9c",
					"getTokensBoughtXDays()": "71cd58f9",
					"getTokensSoldXDays()": "d82eddf2",
					"growthFactor()": "ee620868",
					"res()": "6f10e285",
					"riskTreasuryAddr()": "047729b0",
					"scepterTreasuryAddr()": "c079d7f6",
					"sellFactor()": "cbff4617",
					"setDaysUsedInFactors(uint256)": "fc361443",
					"stableERC20Info(string)": "a475bf48",
					"tSC()": "6e05c1b9",
					"testUpdatetimeLockedminus(uint256)": "164c8501",
					"testUpdatetimeLockedplus(uint256)": "67e927a8",
					"testwallet()": "eee05f5e",
					"timeLaunched()": "3c6eb17a",
					"tokenStable()": "7087a7a5",
					"tokensBoughtXDays(uint256)": "2a9f0fb1",
					"tokensSoldXDays(uint256)": "1514c976",
					"transformScepterToBaton(uint256)": "1bc9cc45",
					"treasury1Addr()": "fbbb4589",
					"treasury1bal()": "35453307",
					"whitelist(address)": "9b19251a",
					"withdrawStables(uint256)": "39ad95d6",
					"withheldWithdrawals(address)": "12b2ed94"
				}
			},
			"storageLayout": {
				"storage": [
					{
						"astId": 128,
						"contract": "WandInstruments.sol:testSticks",
						"label": "growthFactor",
						"offset": 0,
						"slot": "0",
						"type": "t_uint256"
					},
					{
						"astId": 130,
						"contract": "WandInstruments.sol:testSticks",
						"label": "sellFactor",
						"offset": 0,
						"slot": "1",
						"type": "t_uint256"
					},
					{
						"astId": 132,
						"contract": "WandInstruments.sol:testSticks",
						"label": "backingPrice",
						"offset": 0,
						"slot": "2",
						"type": "t_uint256"
					},
					{
						"astId": 134,
						"contract": "WandInstruments.sol:testSticks",
						"label": "scepterBuyPrice",
						"offset": 0,
						"slot": "3",
						"type": "t_uint256"
					},
					{
						"astId": 136,
						"contract": "WandInstruments.sol:testSticks",
						"label": "scepterSellPrice",
						"offset": 0,
						"slot": "4",
						"type": "t_uint256"
					},
					{
						"astId": 138,
						"contract": "WandInstruments.sol:testSticks",
						"label": "treasuryUSDC",
						"offset": 0,
						"slot": "5",
						"type": "t_uint256"
					},
					{
						"astId": 140,
						"contract": "WandInstruments.sol:testSticks",
						"label": "treasury1Addr",
						"offset": 0,
						"slot": "6",
						"type": "t_address"
					},
					{
						"astId": 142,
						"contract": "WandInstruments.sol:testSticks",
						"label": "scepterTreasuryAddr",
						"offset": 0,
						"slot": "7",
						"type": "t_address"
					},
					{
						"astId": 144,
						"contract": "WandInstruments.sol:testSticks",
						"label": "riskTreasuryAddr",
						"offset": 0,
						"slot": "8",
						"type": "t_address"
					},
					{
						"astId": 146,
						"contract": "WandInstruments.sol:testSticks",
						"label": "devWalletAddr",
						"offset": 0,
						"slot": "9",
						"type": "t_address"
					},
					{
						"astId": 152,
						"contract": "WandInstruments.sol:testSticks",
						"label": "treasury1bal",
						"offset": 0,
						"slot": "10",
						"type": "t_uint256"
					},
					{
						"astId": 154,
						"contract": "WandInstruments.sol:testSticks",
						"label": "timeLaunched",
						"offset": 0,
						"slot": "11",
						"type": "t_uint256"
					},
					{
						"astId": 156,
						"contract": "WandInstruments.sol:testSticks",
						"label": "daysInCalculation",
						"offset": 0,
						"slot": "12",
						"type": "t_uint256"
					},
					{
						"astId": 159,
						"contract": "WandInstruments.sol:testSticks",
						"label": "ft5daybought",
						"offset": 0,
						"slot": "13",
						"type": "t_uint256"
					},
					{
						"astId": 162,
						"contract": "WandInstruments.sol:testSticks",
						"label": "ft5daysold",
						"offset": 0,
						"slot": "14",
						"type": "t_uint256"
					},
					{
						"astId": 165,
						"contract": "WandInstruments.sol:testSticks",
						"label": "double5daytokens",
						"offset": 0,
						"slot": "15",
						"type": "t_uint256"
					},
					{
						"astId": 167,
						"contract": "WandInstruments.sol:testSticks",
						"label": "res",
						"offset": 0,
						"slot": "16",
						"type": "t_int128"
					},
					{
						"astId": 170,
						"contract": "WandInstruments.sol:testSticks",
						"label": "testwallet",
						"offset": 0,
						"slot": "17",
						"type": "t_address"
					},
					{
						"astId": 173,
						"contract": "WandInstruments.sol:testSticks",
						"label": "tSC",
						"offset": 0,
						"slot": "18",
						"type": "t_contract(IERC20)77"
					},
					{
						"astId": 176,
						"contract": "WandInstruments.sol:testSticks",
						"label": "SPTR",
						"offset": 0,
						"slot": "19",
						"type": "t_contract(IERC20)77"
					},
					{
						"astId": 179,
						"contract": "WandInstruments.sol:testSticks",
						"label": "WAND",
						"offset": 0,
						"slot": "20",
						"type": "t_contract(IERC20)77"
					},
					{
						"astId": 182,
						"contract": "WandInstruments.sol:testSticks",
						"label": "BTON",
						"offset": 0,
						"slot": "21",
						"type": "t_contract(IERC20)77"
					},
					{
						"astId": 185,
						"contract": "WandInstruments.sol:testSticks",
						"label": "tokenStable",
						"offset": 0,
						"slot": "22",
						"type": "t_contract(IERC20)77"
					},
					{
						"astId": 189,
						"contract": "WandInstruments.sol:testSticks",
						"label": "tokensBoughtXDays",
						"offset": 0,
						"slot": "23",
						"type": "t_mapping(t_uint256,t_uint256)"
					},
					{
						"astId": 193,
						"contract": "WandInstruments.sol:testSticks",
						"label": "tokensSoldXDays",
						"offset": 0,
						"slot": "24",
						"type": "t_mapping(t_uint256,t_uint256)"
					},
					{
						"astId": 197,
						"contract": "WandInstruments.sol:testSticks",
						"label": "circulatingSupplyXDays",
						"offset": 0,
						"slot": "25",
						"type": "t_mapping(t_uint256,t_uint256)"
					},
					{
						"astId": 207,
						"contract": "WandInstruments.sol:testSticks",
						"label": "stableERC20Info",
						"offset": 0,
						"slot": "26",
						"type": "t_mapping(t_string_memory_ptr,t_struct(stableTokensParams)202_storage)"
					},
					{
						"astId": 217,
						"contract": "WandInstruments.sol:testSticks",
						"label": "withheldWithdrawals",
						"offset": 0,
						"slot": "27",
						"type": "t_mapping(t_address,t_struct(lockedamounts)212_storage)"
					},
					{
						"astId": 220,
						"contract": "WandInstruments.sol:testSticks",
						"label": "sptr",
						"offset": 0,
						"slot": "28",
						"type": "t_contract(Scepter)1326"
					},
					{
						"astId": 223,
						"contract": "WandInstruments.sol:testSticks",
						"label": "btn",
						"offset": 0,
						"slot": "29",
						"type": "t_contract(Baton)1334"
					}
				],
				"types": {
					"t_address": {
						"encoding": "inplace",
						"label": "address",
						"numberOfBytes": "20"
					},
					"t_contract(Baton)1334": {
						"encoding": "inplace",
						"label": "contract Baton",
						"numberOfBytes": "20"
					},
					"t_contract(IERC20)77": {
						"encoding": "inplace",
						"label": "contract IERC20",
						"numberOfBytes": "20"
					},
					"t_contract(Scepter)1326": {
						"encoding": "inplace",
						"label": "contract Scepter",
						"numberOfBytes": "20"
					},
					"t_int128": {
						"encoding": "inplace",
						"label": "int128",
						"numberOfBytes": "16"
					},
					"t_mapping(t_address,t_struct(lockedamounts)212_storage)": {
						"encoding": "mapping",
						"key": "t_address",
						"label": "mapping(address => struct testSticks.lockedamounts)",
						"numberOfBytes": "32",
						"value": "t_struct(lockedamounts)212_storage"
					},
					"t_mapping(t_string_memory_ptr,t_struct(stableTokensParams)202_storage)": {
						"encoding": "mapping",
						"key": "t_string_memory_ptr",
						"label": "mapping(string => struct testSticks.stableTokensParams)",
						"numberOfBytes": "32",
						"value": "t_struct(stableTokensParams)202_storage"
					},
					"t_mapping(t_uint256,t_uint256)": {
						"encoding": "mapping",
						"key": "t_uint256",
						"label": "mapping(uint256 => uint256)",
						"numberOfBytes": "32",
						"value": "t_uint256"
					},
					"t_string_memory_ptr": {
						"encoding": "bytes",
						"label": "string",
						"numberOfBytes": "32"
					},
					"t_struct(lockedamounts)212_storage": {
						"encoding": "inplace",
						"label": "struct testSticks.lockedamounts",
						"members": [
							{
								"astId": 209,
								"contract": "WandInstruments.sol:testSticks",
								"label": "timeUnlocked",
								"offset": 0,
								"slot": "0",
								"type": "t_uint256"
							},
							{
								"astId": 211,
								"contract": "WandInstruments.sol:testSticks",
								"label": "amounts",
								"offset": 0,
								"slot": "1",
								"type": "t_uint256"
							}
						],
						"numberOfBytes": "64"
					},
					"t_struct(stableTokensParams)202_storage": {
						"encoding": "inplace",
						"label": "struct testSticks.stableTokensParams",
						"members": [
							{
								"astId": 199,
								"contract": "WandInstruments.sol:testSticks",
								"label": "contractAddress",
								"offset": 0,
								"slot": "0",
								"type": "t_address"
							},
							{
								"astId": 201,
								"contract": "WandInstruments.sol:testSticks",
								"label": "tokenDecimals",
								"offset": 0,
								"slot": "1",
								"type": "t_uint256"
							}
						],
						"numberOfBytes": "64"
					},
					"t_uint256": {
						"encoding": "inplace",
						"label": "uint256",
						"numberOfBytes": "32"
					}
				}
			},
			"userdoc": {
				"events": {
					"sceptersBought(address,uint256)": {
						"notice": "Events*"
					}
				},
				"kind": "user",
				"methods": {},
				"version": 1
			}
		}
	}
}