{
	"WandInstruments.sol": {
		"testSticks": {
			"abi": [
				{
					"inputs": [],
					"stateMutability": "nonpayable",
					"type": "constructor"
				},
				{
					"anonymous": false,
					"inputs": [
						{
							"indexed": true,
							"internalType": "address",
							"name": "_from",
							"type": "address"
						},
						{
							"indexed": false,
							"internalType": "uint256",
							"name": "_amount",
							"type": "uint256"
						}
					],
					"name": "sceptersBought",
					"type": "event"
				},
				{
					"anonymous": false,
					"inputs": [
						{
							"indexed": true,
							"internalType": "address",
							"name": "_from",
							"type": "address"
						},
						{
							"indexed": false,
							"internalType": "uint256",
							"name": "_amount",
							"type": "uint256"
						}
					],
					"name": "sceptersSold",
					"type": "event"
				},
				{
					"inputs": [],
					"name": "BTON",
					"outputs": [
						{
							"internalType": "contract IERC20",
							"name": "",
							"type": "address"
						}
					],
					"stateMutability": "view",
					"type": "function"
				},
				{
					"inputs": [],
					"name": "SPTR",
					"outputs": [
						{
							"internalType": "contract IERC20",
							"name": "",
							"type": "address"
						}
					],
					"stateMutability": "view",
					"type": "function"
				},
				{
					"inputs": [],
					"name": "WAND",
					"outputs": [
						{
							"internalType": "contract IERC20",
							"name": "",
							"type": "address"
						}
					],
					"stateMutability": "view",
					"type": "function"
				},
				{
					"inputs": [
						{
							"internalType": "string",
							"name": "_ticker",
							"type": "string"
						},
						{
							"internalType": "address",
							"name": "_addr",
							"type": "address"
						},
						{
							"internalType": "uint256",
							"name": "_dec",
							"type": "uint256"
						}
					],
					"name": "addStable",
					"outputs": [],
					"stateMutability": "nonpayable",
					"type": "function"
				},
				{
					"inputs": [
						{
							"internalType": "uint256",
							"name": "amountSCPtoBuy",
							"type": "uint256"
						},
						{
							"internalType": "string",
							"name": "_stableChosen",
							"type": "string"
						}
					],
					"name": "buyScepter",
					"outputs": [],
					"stateMutability": "nonpayable",
					"type": "function"
				},
				{
					"inputs": [
						{
							"internalType": "uint256",
							"name": "amountSCPtoSell",
							"type": "uint256"
						},
						{
							"internalType": "uint256",
							"name": "timeChosenLocked",
							"type": "uint256"
						},
						{
							"internalType": "string",
							"name": "_stableChosen",
							"type": "string"
						}
					],
					"name": "cashOutScepter",
					"outputs": [],
					"stateMutability": "payable",
					"type": "function"
				},
				{
					"inputs": [
						{
							"internalType": "uint256",
							"name": "",
							"type": "uint256"
						}
					],
					"name": "circulatingSupplyXDays",
					"outputs": [
						{
							"internalType": "uint256",
							"name": "",
							"type": "uint256"
						}
					],
					"stateMutability": "view",
					"type": "function"
				},
				{
					"inputs": [
						{
							"internalType": "address",
							"name": "_claimant",
							"type": "address"
						},
						{
							"internalType": "string",
							"name": "_stableChosen",
							"type": "string"
						}
					],
					"name": "claimLockedUSDC",
					"outputs": [],
					"stateMutability": "nonpayable",
					"type": "function"
				},
				{
					"inputs": [],
					"name": "daysInCalculation",
					"outputs": [
						{
							"internalType": "uint256",
							"name": "",
							"type": "uint256"
						}
					],
					"stateMutability": "view",
					"type": "function"
				},
				{
					"inputs": [],
					"name": "devWalletAddr",
					"outputs": [
						{
							"internalType": "address",
							"name": "",
							"type": "address"
						}
					],
					"stateMutability": "view",
					"type": "function"
				},
				{
					"inputs": [],
					"name": "getBackingPrice",
					"outputs": [
						{
							"internalType": "uint256",
							"name": "",
							"type": "uint256"
						}
					],
					"stateMutability": "view",
					"type": "function"
				},
				{
					"inputs": [],
					"name": "getBuyPrice",
					"outputs": [
						{
							"internalType": "uint256",
							"name": "",
							"type": "uint256"
						}
					],
					"stateMutability": "view",
					"type": "function"
				},
				{
					"inputs": [],
					"name": "getCircSupplyXDays",
					"outputs": [
						{
							"internalType": "uint256",
							"name": "",
							"type": "uint256"
						}
					],
					"stateMutability": "view",
					"type": "function"
				},
				{
					"inputs": [],
					"name": "getGrowthFactor",
					"outputs": [
						{
							"internalType": "uint256",
							"name": "",
							"type": "uint256"
						}
					],
					"stateMutability": "view",
					"type": "function"
				},
				{
					"inputs": [],
					"name": "getSellFactor",
					"outputs": [
						{
							"internalType": "uint256",
							"name": "",
							"type": "uint256"
						}
					],
					"stateMutability": "view",
					"type": "function"
				},
				{
					"inputs": [],
					"name": "getSellPrice",
					"outputs": [
						{
							"internalType": "uint256",
							"name": "",
							"type": "uint256"
						}
					],
					"stateMutability": "view",
					"type": "function"
				},
				{
					"inputs": [],
					"name": "getTokensBoughtXDays",
					"outputs": [
						{
							"internalType": "uint256",
							"name": "",
							"type": "uint256"
						}
					],
					"stateMutability": "view",
					"type": "function"
				},
				{
					"inputs": [],
					"name": "getTokensSoldXDays",
					"outputs": [
						{
							"internalType": "uint256",
							"name": "",
							"type": "uint256"
						}
					],
					"stateMutability": "view",
					"type": "function"
				},
				{
					"inputs": [],
					"name": "growthFactor",
					"outputs": [
						{
							"internalType": "uint256",
							"name": "",
							"type": "uint256"
						}
					],
					"stateMutability": "view",
					"type": "function"
				},
				{
					"inputs": [],
					"name": "res",
					"outputs": [
						{
							"internalType": "int128",
							"name": "",
							"type": "int128"
						}
					],
					"stateMutability": "view",
					"type": "function"
				},
				{
					"inputs": [],
					"name": "riskTreasuryAddr",
					"outputs": [
						{
							"internalType": "address",
							"name": "",
							"type": "address"
						}
					],
					"stateMutability": "view",
					"type": "function"
				},
				{
					"inputs": [],
					"name": "scepterTreasuryAddr",
					"outputs": [
						{
							"internalType": "address",
							"name": "",
							"type": "address"
						}
					],
					"stateMutability": "view",
					"type": "function"
				},
				{
					"inputs": [],
					"name": "sellFactor",
					"outputs": [
						{
							"internalType": "uint256",
							"name": "",
							"type": "uint256"
						}
					],
					"stateMutability": "view",
					"type": "function"
				},
				{
					"inputs": [
						{
							"internalType": "uint256",
							"name": "numDays",
							"type": "uint256"
						}
					],
					"name": "setDaysUsedInFactors",
					"outputs": [],
					"stateMutability": "nonpayable",
					"type": "function"
				},
				{
					"inputs": [
						{
							"internalType": "string",
							"name": "",
							"type": "string"
						}
					],
					"name": "stableERC20Info",
					"outputs": [
						{
							"internalType": "address",
							"name": "contractAddress",
							"type": "address"
						},
						{
							"internalType": "uint256",
							"name": "tokenDecimals",
							"type": "uint256"
						}
					],
					"stateMutability": "view",
					"type": "function"
				},
				{
					"inputs": [
						{
							"internalType": "uint256",
							"name": "amt",
							"type": "uint256"
						}
					],
					"name": "testUpdatetimeLockedminus",
					"outputs": [],
					"stateMutability": "nonpayable",
					"type": "function"
				},
				{
					"inputs": [
						{
							"internalType": "uint256",
							"name": "amt",
							"type": "uint256"
						}
					],
					"name": "testUpdatetimeLockedplus",
					"outputs": [],
					"stateMutability": "nonpayable",
					"type": "function"
				},
				{
					"inputs": [],
					"name": "testwallet",
					"outputs": [
						{
							"internalType": "address",
							"name": "",
							"type": "address"
						}
					],
					"stateMutability": "view",
					"type": "function"
				},
				{
					"inputs": [],
					"name": "timeLaunched",
					"outputs": [
						{
							"internalType": "uint256",
							"name": "",
							"type": "uint256"
						}
					],
					"stateMutability": "view",
					"type": "function"
				},
				{
					"inputs": [],
					"name": "tokenStable",
					"outputs": [
						{
							"internalType": "contract IERC20",
							"name": "",
							"type": "address"
						}
					],
					"stateMutability": "view",
					"type": "function"
				},
				{
					"inputs": [
						{
							"internalType": "uint256",
							"name": "",
							"type": "uint256"
						}
					],
					"name": "tokensBoughtXDays",
					"outputs": [
						{
							"internalType": "uint256",
							"name": "",
							"type": "uint256"
						}
					],
					"stateMutability": "view",
					"type": "function"
				},
				{
					"inputs": [
						{
							"internalType": "uint256",
							"name": "",
							"type": "uint256"
						}
					],
					"name": "tokensSoldXDays",
					"outputs": [
						{
							"internalType": "uint256",
							"name": "",
							"type": "uint256"
						}
					],
					"stateMutability": "view",
					"type": "function"
				},
				{
					"inputs": [
						{
							"internalType": "uint256",
							"name": "amountSCPtoSwap",
							"type": "uint256"
						}
					],
					"name": "transformScepterToBaton",
					"outputs": [],
					"stateMutability": "payable",
					"type": "function"
				},
				{
					"inputs": [],
					"name": "treasury1Addr",
					"outputs": [
						{
							"internalType": "address",
							"name": "",
							"type": "address"
						}
					],
					"stateMutability": "view",
					"type": "function"
				},
				{
					"inputs": [],
					"name": "treasury1bal",
					"outputs": [
						{
							"internalType": "uint256",
							"name": "",
							"type": "uint256"
						}
					],
					"stateMutability": "view",
					"type": "function"
				},
				{
					"inputs": [],
					"name": "updateSPTRTreasuryBal",
					"outputs": [],
					"stateMutability": "nonpayable",
					"type": "function"
				},
				{
					"inputs": [
						{
							"internalType": "address",
							"name": "_addr",
							"type": "address"
						}
					],
					"name": "whitelist",
					"outputs": [],
					"stateMutability": "nonpayable",
					"type": "function"
				},
				{
					"inputs": [
						{
							"internalType": "uint256",
							"name": "_amtToWithdraw",
							"type": "uint256"
						}
					],
					"name": "withdrawStables",
					"outputs": [],
					"stateMutability": "nonpayable",
					"type": "function"
				},
				{
					"inputs": [
						{
							"internalType": "address",
							"name": "",
							"type": "address"
						}
					],
					"name": "withheldWithdrawals",
					"outputs": [
						{
							"internalType": "uint256",
							"name": "timeUnlocked",
							"type": "uint256"
						},
						{
							"internalType": "uint256",
							"name": "amounts",
							"type": "uint256"
						}
					],
					"stateMutability": "view",
					"type": "function"
				}
			],
			"devdoc": {
				"kind": "dev",
				"methods": {},
				"version": 1
			},
			"evm": {
				"assembly": "    /* \"WandInstruments.sol\":157:15624  contract testSticks is ReentrancyGuard{\r... */\n  mstore(0x40, 0x80)\n    /* \"WandInstruments.sol\":985:991  100000 */\n  0x0186a0\n    /* \"WandInstruments.sol\":954:991  uint256 private ft5daybought = 100000 */\n  0x0e\n  sstore\n    /* \"WandInstruments.sol\":1027:1032  90000 */\n  0x015f90\n    /* \"WandInstruments.sol\":998:1032  uint256 private ft5daysold = 90000 */\n  0x0f\n  sstore\n    /* \"WandInstruments.sol\":1074:1080  600000 */\n  0x0927c0\n    /* \"WandInstruments.sol\":1039:1080  uint256 private double5daytokens = 600000 */\n  0x10\n  sstore\n    /* \"WandInstruments.sol\":1201:1243  0x617F2E2fD72FD9D5503197092aC168c91465E7f2 */\n  0x617f2e2fd72fd9d5503197092ac168c91465e7f2\n    /* \"WandInstruments.sol\":1173:1243  address public testwallet = 0x617F2E2fD72FD9D5503197092aC168c91465E7f2 */\n  0x12\n  exp(0x0100, 0x00)\n  dup2\n  sload\n  dup2\n  0xffffffffffffffffffffffffffffffffffffffff\n  mul\n  not\n  and\n  swap1\n  dup4\n  0xffffffffffffffffffffffffffffffffffffffff\n  and\n  mul\n  or\n  swap1\n  sstore\n  pop\n    /* \"WandInstruments.sol\":2462:3707  constructor() {   \r... */\n  callvalue\n  dup1\n  iszero\n  tag_1\n  jumpi\n  0x00\n  dup1\n  revert\ntag_1:\n  pop\n    /* \"ReentrancyGuard.sol\":1734:1735  1 */\n  0x01\n    /* \"ReentrancyGuard.sol\":1845:1852  _status */\n  0x00\n    /* \"ReentrancyGuard.sol\":1845:1867  _status = _NOT_ENTERED */\n  dup2\n  swap1\n  sstore\n  pop\n    /* \"WandInstruments.sol\":2559:2601  0xb27A31f1b0AF2946B7F582768f03239b1eC07c2c */\n  0xb27a31f1b0af2946b7f582768f03239b1ec07c2c\n    /* \"WandInstruments.sol\":2545:2549  SPTR */\n  0x13\n  0x00\n    /* \"WandInstruments.sol\":2545:2602  SPTR = IERC20(0xb27A31f1b0AF2946B7F582768f03239b1eC07c2c) */\n  0x0100\n  exp\n  dup2\n  sload\n  dup2\n  0xffffffffffffffffffffffffffffffffffffffff\n  mul\n  not\n  and\n  swap1\n  dup4\n  0xffffffffffffffffffffffffffffffffffffffff\n  and\n  mul\n  or\n  swap1\n  sstore\n  pop\n    /* \"WandInstruments.sol\":2627:2669  0x5FD6eB55D12E759a21C09eF703fe0CBa1DC9d88D */\n  0x5fd6eb55d12e759a21c09ef703fe0cba1dc9d88d\n    /* \"WandInstruments.sol\":2613:2617  WAND */\n  0x14\n  0x00\n    /* \"WandInstruments.sol\":2613:2670  WAND = IERC20(0x5FD6eB55D12E759a21C09eF703fe0CBa1DC9d88D) */\n  0x0100\n  exp\n  dup2\n  sload\n  dup2\n  0xffffffffffffffffffffffffffffffffffffffff\n  mul\n  not\n  and\n  swap1\n  dup4\n  0xffffffffffffffffffffffffffffffffffffffff\n  and\n  mul\n  or\n  swap1\n  sstore\n  pop\n    /* \"WandInstruments.sol\":2695:2737  0x7b96aF9Bd211cBf6BA5b0dd53aa61Dc5806b6AcE */\n  0x7b96af9bd211cbf6ba5b0dd53aa61dc5806b6ace\n    /* \"WandInstruments.sol\":2681:2685  BTON */\n  0x15\n  0x00\n    /* \"WandInstruments.sol\":2681:2738  BTON = IERC20(0x7b96aF9Bd211cBf6BA5b0dd53aa61Dc5806b6AcE) */\n  0x0100\n  exp\n  dup2\n  sload\n  dup2\n  0xffffffffffffffffffffffffffffffffffffffff\n  mul\n  not\n  and\n  swap1\n  dup4\n  0xffffffffffffffffffffffffffffffffffffffff\n  and\n  mul\n  or\n  swap1\n  sstore\n  pop\n    /* \"WandInstruments.sol\":2850:2892  0x5e17b14ADd6c386305A32928F985b29bbA34Eff5 */\n  0x5e17b14add6c386305a32928f985b29bba34eff5\n    /* \"WandInstruments.sol\":2808:2823  stableERC20Info */\n  0x1a\n    /* \"WandInstruments.sol\":2808:2831  stableERC20Info[\"USDC\"] */\n  mload(0x40)\n  tag_6\n  swap1\n  tag_7\n  jump\t// in\ntag_6:\n  swap1\n  dup2\n  mstore\n  0x20\n  add\n  mload(0x40)\n  dup1\n  swap2\n  sub\n  swap1\n  keccak256\n    /* \"WandInstruments.sol\":2808:2847  stableERC20Info[\"USDC\"].contractAddress */\n  0x00\n  add\n  0x00\n    /* \"WandInstruments.sol\":2808:2892  stableERC20Info[\"USDC\"].contractAddress = 0x5e17b14ADd6c386305A32928F985b29bbA34Eff5 */\n  0x0100\n  exp\n  dup2\n  sload\n  dup2\n  0xffffffffffffffffffffffffffffffffffffffff\n  mul\n  not\n  and\n  swap1\n  dup4\n  0xffffffffffffffffffffffffffffffffffffffff\n  and\n  mul\n  or\n  swap1\n  sstore\n  pop\n    /* \"WandInstruments.sol\":2943:2944  6 */\n  0x06\n    /* \"WandInstruments.sol\":2903:2918  stableERC20Info */\n  0x1a\n    /* \"WandInstruments.sol\":2903:2926  stableERC20Info[\"USDC\"] */\n  mload(0x40)\n  tag_8\n  swap1\n  tag_7\n  jump\t// in\ntag_8:\n  swap1\n  dup2\n  mstore\n  0x20\n  add\n  mload(0x40)\n  dup1\n  swap2\n  sub\n  swap1\n  keccak256\n    /* \"WandInstruments.sol\":2903:2940  stableERC20Info[\"USDC\"].tokenDecimals */\n  0x01\n  add\n    /* \"WandInstruments.sol\":2903:2944  stableERC20Info[\"USDC\"].tokenDecimals = 6 */\n  dup2\n  swap1\n  sstore\n  pop\n    /* \"WandInstruments.sol\":3016:3058  0x2A4a8Ab6A0Bc0d377098F8688F77003833BC1C9d */\n  0x2a4a8ab6a0bc0d377098f8688f77003833bc1c9d\n    /* \"WandInstruments.sol\":2975:2990  stableERC20Info */\n  0x1a\n    /* \"WandInstruments.sol\":2975:2997  stableERC20Info[\"DAI\"] */\n  mload(0x40)\n  tag_9\n  swap1\n  tag_10\n  jump\t// in\ntag_9:\n  swap1\n  dup2\n  mstore\n  0x20\n  add\n  mload(0x40)\n  dup1\n  swap2\n  sub\n  swap1\n  keccak256\n    /* \"WandInstruments.sol\":2975:3013  stableERC20Info[\"DAI\"].contractAddress */\n  0x00\n  add\n  0x00\n    /* \"WandInstruments.sol\":2975:3058  stableERC20Info[\"DAI\"].contractAddress = 0x2A4a8Ab6A0Bc0d377098F8688F77003833BC1C9d */\n  0x0100\n  exp\n  dup2\n  sload\n  dup2\n  0xffffffffffffffffffffffffffffffffffffffff\n  mul\n  not\n  and\n  swap1\n  dup4\n  0xffffffffffffffffffffffffffffffffffffffff\n  and\n  mul\n  or\n  swap1\n  sstore\n  pop\n    /* \"WandInstruments.sol\":3108:3110  18 */\n  0x12\n    /* \"WandInstruments.sol\":3069:3084  stableERC20Info */\n  0x1a\n    /* \"WandInstruments.sol\":3069:3091  stableERC20Info[\"DAI\"] */\n  mload(0x40)\n  tag_11\n  swap1\n  tag_10\n  jump\t// in\ntag_11:\n  swap1\n  dup2\n  mstore\n  0x20\n  add\n  mload(0x40)\n  dup1\n  swap2\n  sub\n  swap1\n  keccak256\n    /* \"WandInstruments.sol\":3069:3105  stableERC20Info[\"DAI\"].tokenDecimals */\n  0x01\n  add\n    /* \"WandInstruments.sol\":3069:3110  stableERC20Info[\"DAI\"].tokenDecimals = 18 */\n  dup2\n  swap1\n  sstore\n  pop\n    /* \"WandInstruments.sol\":3184:3226  0xdc301622e621166BD8E82f2cA0A26c13Ad0BE355 */\n  0xdc301622e621166bd8e82f2ca0a26c13ad0be355\n    /* \"WandInstruments.sol\":3142:3157  stableERC20Info */\n  0x1a\n    /* \"WandInstruments.sol\":3142:3165  stableERC20Info[\"FRAX\"] */\n  mload(0x40)\n  tag_12\n  swap1\n  tag_13\n  jump\t// in\ntag_12:\n  swap1\n  dup2\n  mstore\n  0x20\n  add\n  mload(0x40)\n  dup1\n  swap2\n  sub\n  swap1\n  keccak256\n    /* \"WandInstruments.sol\":3142:3181  stableERC20Info[\"FRAX\"].contractAddress */\n  0x00\n  add\n  0x00\n    /* \"WandInstruments.sol\":3142:3226  stableERC20Info[\"FRAX\"].contractAddress = 0xdc301622e621166BD8E82f2cA0A26c13Ad0BE355 */\n  0x0100\n  exp\n  dup2\n  sload\n  dup2\n  0xffffffffffffffffffffffffffffffffffffffff\n  mul\n  not\n  and\n  swap1\n  dup4\n  0xffffffffffffffffffffffffffffffffffffffff\n  and\n  mul\n  or\n  swap1\n  sstore\n  pop\n    /* \"WandInstruments.sol\":3277:3279  18 */\n  0x12\n    /* \"WandInstruments.sol\":3237:3252  stableERC20Info */\n  0x1a\n    /* \"WandInstruments.sol\":3237:3260  stableERC20Info[\"FRAX\"] */\n  mload(0x40)\n  tag_14\n  swap1\n  tag_13\n  jump\t// in\ntag_14:\n  swap1\n  dup2\n  mstore\n  0x20\n  add\n  mload(0x40)\n  dup1\n  swap2\n  sub\n  swap1\n  keccak256\n    /* \"WandInstruments.sol\":3237:3274  stableERC20Info[\"FRAX\"].tokenDecimals */\n  0x01\n  add\n    /* \"WandInstruments.sol\":3237:3279  stableERC20Info[\"FRAX\"].tokenDecimals = 18 */\n  dup2\n  swap1\n  sstore\n  pop\n    /* \"WandInstruments.sol\":3308:3350  0x617F2E2fD72FD9D5503197092aC168c91465E7f2 */\n  0x617f2e2fd72fd9d5503197092ac168c91465e7f2\n    /* \"WandInstruments.sol\":3292:3305  treasury1Addr */\n  0x07\n  0x00\n    /* \"WandInstruments.sol\":3292:3350  treasury1Addr = 0x617F2E2fD72FD9D5503197092aC168c91465E7f2 */\n  0x0100\n  exp\n  dup2\n  sload\n  dup2\n  0xffffffffffffffffffffffffffffffffffffffff\n  mul\n  not\n  and\n  swap1\n  dup4\n  0xffffffffffffffffffffffffffffffffffffffff\n  and\n  mul\n  or\n  swap1\n  sstore\n  pop\n    /* \"WandInstruments.sol\":3549:3564  block.timestamp */\n  timestamp\n    /* \"WandInstruments.sol\":3534:3546  timeLaunched */\n  0x0c\n    /* \"WandInstruments.sol\":3534:3564  timeLaunched = block.timestamp */\n  dup2\n  swap1\n  sstore\n  pop\n    /* \"WandInstruments.sol\":3595:3601  5 days */\n  0x069780\n    /* \"WandInstruments.sol\":3575:3592  daysInCalculation */\n  0x0d\n    /* \"WandInstruments.sol\":3575:3601  daysInCalculation = 5 days */\n  dup2\n  swap1\n  sstore\n  pop\n    /* \"WandInstruments.sol\":157:15624  contract testSticks is ReentrancyGuard{\r... */\n  jump(tag_15)\n    /* \"#utility.yul\":7:407   */\ntag_17:\n    /* \"#utility.yul\":167:170   */\n  0x00\n    /* \"#utility.yul\":188:272   */\n  tag_19\n    /* \"#utility.yul\":270:271   */\n  0x04\n    /* \"#utility.yul\":265:268   */\n  dup4\n    /* \"#utility.yul\":188:272   */\n  tag_20\n  jump\t// in\ntag_19:\n    /* \"#utility.yul\":181:272   */\n  swap2\n  pop\n    /* \"#utility.yul\":281:374   */\n  tag_21\n    /* \"#utility.yul\":370:373   */\n  dup3\n    /* \"#utility.yul\":281:374   */\n  tag_22\n  jump\t// in\ntag_21:\n    /* \"#utility.yul\":399:400   */\n  0x04\n    /* \"#utility.yul\":394:397   */\n  dup3\n    /* \"#utility.yul\":390:401   */\n  add\n    /* \"#utility.yul\":383:401   */\n  swap1\n  pop\n    /* \"#utility.yul\":7:407   */\n  swap2\n  swap1\n  pop\n  jump\t// out\n    /* \"#utility.yul\":413:813   */\ntag_23:\n    /* \"#utility.yul\":573:576   */\n  0x00\n    /* \"#utility.yul\":594:678   */\n  tag_25\n    /* \"#utility.yul\":676:677   */\n  0x03\n    /* \"#utility.yul\":671:674   */\n  dup4\n    /* \"#utility.yul\":594:678   */\n  tag_20\n  jump\t// in\ntag_25:\n    /* \"#utility.yul\":587:678   */\n  swap2\n  pop\n    /* \"#utility.yul\":687:780   */\n  tag_26\n    /* \"#utility.yul\":776:779   */\n  dup3\n    /* \"#utility.yul\":687:780   */\n  tag_27\n  jump\t// in\ntag_26:\n    /* \"#utility.yul\":805:806   */\n  0x03\n    /* \"#utility.yul\":800:803   */\n  dup3\n    /* \"#utility.yul\":796:807   */\n  add\n    /* \"#utility.yul\":789:807   */\n  swap1\n  pop\n    /* \"#utility.yul\":413:813   */\n  swap2\n  swap1\n  pop\n  jump\t// out\n    /* \"#utility.yul\":819:1219   */\ntag_28:\n    /* \"#utility.yul\":979:982   */\n  0x00\n    /* \"#utility.yul\":1000:1084   */\n  tag_30\n    /* \"#utility.yul\":1082:1083   */\n  0x04\n    /* \"#utility.yul\":1077:1080   */\n  dup4\n    /* \"#utility.yul\":1000:1084   */\n  tag_20\n  jump\t// in\ntag_30:\n    /* \"#utility.yul\":993:1084   */\n  swap2\n  pop\n    /* \"#utility.yul\":1093:1186   */\n  tag_31\n    /* \"#utility.yul\":1182:1185   */\n  dup3\n    /* \"#utility.yul\":1093:1186   */\n  tag_32\n  jump\t// in\ntag_31:\n    /* \"#utility.yul\":1211:1212   */\n  0x04\n    /* \"#utility.yul\":1206:1209   */\n  dup3\n    /* \"#utility.yul\":1202:1213   */\n  add\n    /* \"#utility.yul\":1195:1213   */\n  swap1\n  pop\n    /* \"#utility.yul\":819:1219   */\n  swap2\n  swap1\n  pop\n  jump\t// out\n    /* \"#utility.yul\":1225:1606   */\ntag_13:\n    /* \"#utility.yul\":1410:1413   */\n  0x00\n    /* \"#utility.yul\":1432:1580   */\n  tag_34\n    /* \"#utility.yul\":1576:1579   */\n  dup3\n    /* \"#utility.yul\":1432:1580   */\n  tag_17\n  jump\t// in\ntag_34:\n    /* \"#utility.yul\":1425:1580   */\n  swap2\n  pop\n    /* \"#utility.yul\":1597:1600   */\n  dup2\n    /* \"#utility.yul\":1590:1600   */\n  swap1\n  pop\n    /* \"#utility.yul\":1225:1606   */\n  swap2\n  swap1\n  pop\n  jump\t// out\n    /* \"#utility.yul\":1612:1993   */\ntag_10:\n    /* \"#utility.yul\":1797:1800   */\n  0x00\n    /* \"#utility.yul\":1819:1967   */\n  tag_36\n    /* \"#utility.yul\":1963:1966   */\n  dup3\n    /* \"#utility.yul\":1819:1967   */\n  tag_23\n  jump\t// in\ntag_36:\n    /* \"#utility.yul\":1812:1967   */\n  swap2\n  pop\n    /* \"#utility.yul\":1984:1987   */\n  dup2\n    /* \"#utility.yul\":1977:1987   */\n  swap1\n  pop\n    /* \"#utility.yul\":1612:1993   */\n  swap2\n  swap1\n  pop\n  jump\t// out\n    /* \"#utility.yul\":1999:2380   */\ntag_7:\n    /* \"#utility.yul\":2184:2187   */\n  0x00\n    /* \"#utility.yul\":2206:2354   */\n  tag_38\n    /* \"#utility.yul\":2350:2353   */\n  dup3\n    /* \"#utility.yul\":2206:2354   */\n  tag_28\n  jump\t// in\ntag_38:\n    /* \"#utility.yul\":2199:2354   */\n  swap2\n  pop\n    /* \"#utility.yul\":2371:2374   */\n  dup2\n    /* \"#utility.yul\":2364:2374   */\n  swap1\n  pop\n    /* \"#utility.yul\":1999:2380   */\n  swap2\n  swap1\n  pop\n  jump\t// out\n    /* \"#utility.yul\":2386:2534   */\ntag_20:\n    /* \"#utility.yul\":2488:2499   */\n  0x00\n    /* \"#utility.yul\":2525:2528   */\n  dup2\n    /* \"#utility.yul\":2510:2528   */\n  swap1\n  pop\n    /* \"#utility.yul\":2386:2534   */\n  swap3\n  swap2\n  pop\n  pop\n  jump\t// out\n    /* \"#utility.yul\":2540:2694   */\ntag_22:\n    /* \"#utility.yul\":2680:2686   */\n  0x4652415800000000000000000000000000000000000000000000000000000000\n    /* \"#utility.yul\":2676:2677   */\n  0x00\n    /* \"#utility.yul\":2668:2674   */\n  dup3\n    /* \"#utility.yul\":2664:2678   */\n  add\n    /* \"#utility.yul\":2657:2687   */\n  mstore\n    /* \"#utility.yul\":2540:2694   */\n  pop\n  jump\t// out\n    /* \"#utility.yul\":2700:2853   */\ntag_27:\n    /* \"#utility.yul\":2840:2845   */\n  0x4441490000000000000000000000000000000000000000000000000000000000\n    /* \"#utility.yul\":2836:2837   */\n  0x00\n    /* \"#utility.yul\":2828:2834   */\n  dup3\n    /* \"#utility.yul\":2824:2838   */\n  add\n    /* \"#utility.yul\":2817:2846   */\n  mstore\n    /* \"#utility.yul\":2700:2853   */\n  pop\n  jump\t// out\n    /* \"#utility.yul\":2859:3013   */\ntag_32:\n    /* \"#utility.yul\":2999:3005   */\n  0x5553444300000000000000000000000000000000000000000000000000000000\n    /* \"#utility.yul\":2995:2996   */\n  0x00\n    /* \"#utility.yul\":2987:2993   */\n  dup3\n    /* \"#utility.yul\":2983:2997   */\n  add\n    /* \"#utility.yul\":2976:3006   */\n  mstore\n    /* \"#utility.yul\":2859:3013   */\n  pop\n  jump\t// out\n    /* \"WandInstruments.sol\":157:15624  contract testSticks is ReentrancyGuard{\r... */\ntag_15:\n  dataSize(sub_0)\n  dup1\n  dataOffset(sub_0)\n  0x00\n  codecopy\n  0x00\n  return\nstop\n\nsub_0: assembly {\n        /* \"WandInstruments.sol\":157:15624  contract testSticks is ReentrancyGuard{\r... */\n      mstore(0x40, 0x80)\n      jumpi(tag_1, lt(calldatasize, 0x04))\n      shr(0xe0, calldataload(0x00))\n      dup1\n      0x6f10e285\n      gt\n      tag_41\n      jumpi\n      dup1\n      0xc0ca6fb4\n      gt\n      tag_42\n      jumpi\n      dup1\n      0xe5d98082\n      gt\n      tag_43\n      jumpi\n      dup1\n      0xe5d98082\n      eq\n      tag_36\n      jumpi\n      dup1\n      0xee620868\n      eq\n      tag_37\n      jumpi\n      dup1\n      0xeee05f5e\n      eq\n      tag_38\n      jumpi\n      dup1\n      0xfbbb4589\n      eq\n      tag_39\n      jumpi\n      dup1\n      0xfc361443\n      eq\n      tag_40\n      jumpi\n      jump(tag_1)\n    tag_43:\n      dup1\n      0xc0ca6fb4\n      eq\n      tag_31\n      jumpi\n      dup1\n      0xc0ce5889\n      eq\n      tag_32\n      jumpi\n      dup1\n      0xcbff4617\n      eq\n      tag_33\n      jumpi\n      dup1\n      0xd04d7908\n      eq\n      tag_34\n      jumpi\n      dup1\n      0xd82eddf2\n      eq\n      tag_35\n      jumpi\n      jump(tag_1)\n    tag_42:\n      dup1\n      0x9b19251a\n      gt\n      tag_44\n      jumpi\n      dup1\n      0x9b19251a\n      eq\n      tag_26\n      jumpi\n      dup1\n      0xa475bf48\n      eq\n      tag_27\n      jumpi\n      dup1\n      0xbcb3de54\n      eq\n      tag_28\n      jumpi\n      dup1\n      0xbdad7f02\n      eq\n      tag_29\n      jumpi\n      dup1\n      0xc079d7f6\n      eq\n      tag_30\n      jumpi\n      jump(tag_1)\n    tag_44:\n      dup1\n      0x6f10e285\n      eq\n      tag_21\n      jumpi\n      dup1\n      0x7087a7a5\n      eq\n      tag_22\n      jumpi\n      dup1\n      0x71cd58f9\n      eq\n      tag_23\n      jumpi\n      dup1\n      0x862d1b35\n      eq\n      tag_24\n      jumpi\n      dup1\n      0x93f7b711\n      eq\n      tag_25\n      jumpi\n      jump(tag_1)\n    tag_41:\n      dup1\n      0x1f564a06\n      gt\n      tag_45\n      jumpi\n      dup1\n      0x39ad95d6\n      gt\n      tag_46\n      jumpi\n      dup1\n      0x39ad95d6\n      eq\n      tag_16\n      jumpi\n      dup1\n      0x3c6eb17a\n      eq\n      tag_17\n      jumpi\n      dup1\n      0x43d32e9c\n      eq\n      tag_18\n      jumpi\n      dup1\n      0x67b48c91\n      eq\n      tag_19\n      jumpi\n      dup1\n      0x67e927a8\n      eq\n      tag_20\n      jumpi\n      jump(tag_1)\n    tag_46:\n      dup1\n      0x1f564a06\n      eq\n      tag_11\n      jumpi\n      dup1\n      0x26ae486e\n      eq\n      tag_12\n      jumpi\n      dup1\n      0x29982a32\n      eq\n      tag_13\n      jumpi\n      dup1\n      0x2a9f0fb1\n      eq\n      tag_14\n      jumpi\n      dup1\n      0x35453307\n      eq\n      tag_15\n      jumpi\n      jump(tag_1)\n    tag_45:\n      dup1\n      0x12b2ed94\n      gt\n      tag_47\n      jumpi\n      dup1\n      0x12b2ed94\n      eq\n      tag_6\n      jumpi\n      dup1\n      0x1514c976\n      eq\n      tag_7\n      jumpi\n      dup1\n      0x164c8501\n      eq\n      tag_8\n      jumpi\n      dup1\n      0x1a30e872\n      eq\n      tag_9\n      jumpi\n      dup1\n      0x1bc9cc45\n      eq\n      tag_10\n      jumpi\n      jump(tag_1)\n    tag_47:\n      dup1\n      0x018a25e8\n      eq\n      tag_2\n      jumpi\n      dup1\n      0x047729b0\n      eq\n      tag_3\n      jumpi\n      dup1\n      0x0ccaf04f\n      eq\n      tag_4\n      jumpi\n      dup1\n      0x0f65de3e\n      eq\n      tag_5\n      jumpi\n    tag_1:\n      0x00\n      dup1\n      revert\n        /* \"WandInstruments.sol\":11592:11866  function getBuyPrice() external view returns (uint256){\r... */\n    tag_2:\n      callvalue\n      dup1\n      iszero\n      tag_48\n      jumpi\n      0x00\n      dup1\n      revert\n    tag_48:\n      pop\n      tag_49\n      tag_50\n      jump\t// in\n    tag_49:\n      mload(0x40)\n      tag_51\n      swap2\n      swap1\n      tag_52\n      jump\t// in\n    tag_51:\n      mload(0x40)\n      dup1\n      swap2\n      sub\n      swap1\n      return\n        /* \"WandInstruments.sol\":701:732  address public riskTreasuryAddr */\n    tag_3:\n      callvalue\n      dup1\n      iszero\n      tag_53\n      jumpi\n      0x00\n      dup1\n      revert\n    tag_53:\n      pop\n      tag_54\n      tag_55\n      jump\t// in\n    tag_54:\n      mload(0x40)\n      tag_56\n      swap2\n      swap1\n      tag_57\n      jump\t// in\n    tag_56:\n      mload(0x40)\n      dup1\n      swap2\n      sub\n      swap1\n      return\n        /* \"WandInstruments.sol\":10479:11374  function getSellFactor() external view returns (uint256){\r... */\n    tag_4:\n      callvalue\n      dup1\n      iszero\n      tag_58\n      jumpi\n      0x00\n      dup1\n      revert\n    tag_58:\n      pop\n      tag_59\n      tag_60\n      jump\t// in\n    tag_59:\n      mload(0x40)\n      tag_61\n      swap2\n      swap1\n      tag_52\n      jump\t// in\n    tag_61:\n      mload(0x40)\n      dup1\n      swap2\n      sub\n      swap1\n      return\n        /* \"WandInstruments.sol\":14586:15021  function getCircSupplyXDays() external view returns (uint256){\r... */\n    tag_5:\n      callvalue\n      dup1\n      iszero\n      tag_62\n      jumpi\n      0x00\n      dup1\n      revert\n    tag_62:\n      pop\n      tag_63\n      tag_64\n      jump\t// in\n    tag_63:\n      mload(0x40)\n      tag_65\n      swap2\n      swap1\n      tag_52\n      jump\t// in\n    tag_65:\n      mload(0x40)\n      dup1\n      swap2\n      sub\n      swap1\n      return\n        /* \"WandInstruments.sol\":2055:2115  mapping(address => lockedamounts) public withheldWithdrawals */\n    tag_6:\n      callvalue\n      dup1\n      iszero\n      tag_66\n      jumpi\n      0x00\n      dup1\n      revert\n    tag_66:\n      pop\n      tag_67\n      0x04\n      dup1\n      calldatasize\n      sub\n      dup2\n      add\n      swap1\n      tag_68\n      swap2\n      swap1\n      tag_69\n      jump\t// in\n    tag_68:\n      tag_70\n      jump\t// in\n    tag_67:\n      mload(0x40)\n      tag_71\n      swap3\n      swap2\n      swap1\n      tag_72\n      jump\t// in\n    tag_71:\n      mload(0x40)\n      dup1\n      swap2\n      sub\n      swap1\n      return\n        /* \"WandInstruments.sol\":1638:1688  mapping(uint256 => uint256) public tokensSoldXDays */\n    tag_7:\n      callvalue\n      dup1\n      iszero\n      tag_73\n      jumpi\n      0x00\n      dup1\n      revert\n    tag_73:\n      pop\n      tag_74\n      0x04\n      dup1\n      calldatasize\n      sub\n      dup2\n      add\n      swap1\n      tag_75\n      swap2\n      swap1\n      tag_76\n      jump\t// in\n    tag_75:\n      tag_77\n      jump\t// in\n    tag_74:\n      mload(0x40)\n      tag_78\n      swap2\n      swap1\n      tag_52\n      jump\t// in\n    tag_78:\n      mload(0x40)\n      dup1\n      swap2\n      sub\n      swap1\n      return\n        /* \"WandInstruments.sol\":13144:13646  function testUpdatetimeLockedminus(uint256 amt) public  {\r... */\n    tag_8:\n      callvalue\n      dup1\n      iszero\n      tag_79\n      jumpi\n      0x00\n      dup1\n      revert\n    tag_79:\n      pop\n      tag_80\n      0x04\n      dup1\n      calldatasize\n      sub\n      dup2\n      add\n      swap1\n      tag_81\n      swap2\n      swap1\n      tag_76\n      jump\t// in\n    tag_81:\n      tag_82\n      jump\t// in\n    tag_80:\n      stop\n        /* \"WandInstruments.sol\":1695:1752  mapping(uint256 => uint256) public circulatingSupplyXDays */\n    tag_9:\n      callvalue\n      dup1\n      iszero\n      tag_83\n      jumpi\n      0x00\n      dup1\n      revert\n    tag_83:\n      pop\n      tag_84\n      0x04\n      dup1\n      calldatasize\n      sub\n      dup2\n      add\n      swap1\n      tag_85\n      swap2\n      swap1\n      tag_76\n      jump\t// in\n    tag_85:\n      tag_86\n      jump\t// in\n    tag_84:\n      mload(0x40)\n      tag_87\n      swap2\n      swap1\n      tag_52\n      jump\t// in\n    tag_87:\n      mload(0x40)\n      dup1\n      swap2\n      sub\n      swap1\n      return\n        /* \"WandInstruments.sol\":7013:7760  function transformScepterToBaton(uint256 amountSCPtoSwap) public payable{\r... */\n    tag_10:\n      tag_88\n      0x04\n      dup1\n      calldatasize\n      sub\n      dup2\n      add\n      swap1\n      tag_89\n      swap2\n      swap1\n      tag_76\n      jump\t// in\n    tag_89:\n      tag_90\n      jump\t// in\n    tag_88:\n      stop\n        /* \"WandInstruments.sol\":11380:11586  function getBackingPrice() external view returns (uint256){\r... */\n    tag_11:\n      callvalue\n      dup1\n      iszero\n      tag_91\n      jumpi\n      0x00\n      dup1\n      revert\n    tag_91:\n      pop\n      tag_92\n      tag_93\n      jump\t// in\n    tag_92:\n      mload(0x40)\n      tag_94\n      swap2\n      swap1\n      tag_52\n      jump\t// in\n    tag_94:\n      mload(0x40)\n      dup1\n      swap2\n      sub\n      swap1\n      return\n        /* \"WandInstruments.sol\":1419:1437  IERC20 public SPTR */\n    tag_12:\n      callvalue\n      dup1\n      iszero\n      tag_95\n      jumpi\n      0x00\n      dup1\n      revert\n    tag_95:\n      pop\n      tag_96\n      tag_97\n      jump\t// in\n    tag_96:\n      mload(0x40)\n      tag_98\n      swap2\n      swap1\n      tag_99\n      jump\t// in\n    tag_98:\n      mload(0x40)\n      dup1\n      swap2\n      sub\n      swap1\n      return\n        /* \"WandInstruments.sol\":739:767  address public devWalletAddr */\n    tag_13:\n      callvalue\n      dup1\n      iszero\n      tag_100\n      jumpi\n      0x00\n      dup1\n      revert\n    tag_100:\n      pop\n      tag_101\n      tag_102\n      jump\t// in\n    tag_101:\n      mload(0x40)\n      tag_103\n      swap2\n      swap1\n      tag_57\n      jump\t// in\n    tag_103:\n      mload(0x40)\n      dup1\n      swap2\n      sub\n      swap1\n      return\n        /* \"WandInstruments.sol\":1579:1631  mapping(uint256 => uint256) public tokensBoughtXDays */\n    tag_14:\n      callvalue\n      dup1\n      iszero\n      tag_104\n      jumpi\n      0x00\n      dup1\n      revert\n    tag_104:\n      pop\n      tag_105\n      0x04\n      dup1\n      calldatasize\n      sub\n      dup2\n      add\n      swap1\n      tag_106\n      swap2\n      swap1\n      tag_76\n      jump\t// in\n    tag_106:\n      tag_107\n      jump\t// in\n    tag_105:\n      mload(0x40)\n      tag_108\n      swap2\n      swap1\n      tag_52\n      jump\t// in\n    tag_108:\n      mload(0x40)\n      dup1\n      swap2\n      sub\n      swap1\n      return\n        /* \"WandInstruments.sol\":808:835  uint256 public treasury1bal */\n    tag_15:\n      callvalue\n      dup1\n      iszero\n      tag_109\n      jumpi\n      0x00\n      dup1\n      revert\n    tag_109:\n      pop\n      tag_110\n      tag_111\n      jump\t// in\n    tag_110:\n      mload(0x40)\n      tag_112\n      swap2\n      swap1\n      tag_52\n      jump\t// in\n    tag_112:\n      mload(0x40)\n      dup1\n      swap2\n      sub\n      swap1\n      return\n        /* \"WandInstruments.sol\":12576:12652  function withdrawStables(uint256 _amtToWithdraw) public onlyOwner {\r... */\n    tag_16:\n      callvalue\n      dup1\n      iszero\n      tag_113\n      jumpi\n      0x00\n      dup1\n      revert\n    tag_113:\n      pop\n      tag_114\n      0x04\n      dup1\n      calldatasize\n      sub\n      dup2\n      add\n      swap1\n      tag_115\n      swap2\n      swap1\n      tag_76\n      jump\t// in\n    tag_115:\n      tag_116\n      jump\t// in\n    tag_114:\n      stop\n        /* \"WandInstruments.sol\":864:891  uint256 public timeLaunched */\n    tag_17:\n      callvalue\n      dup1\n      iszero\n      tag_117\n      jumpi\n      0x00\n      dup1\n      revert\n    tag_117:\n      pop\n      tag_118\n      tag_119\n      jump\t// in\n    tag_118:\n      mload(0x40)\n      tag_120\n      swap2\n      swap1\n      tag_52\n      jump\t// in\n    tag_120:\n      mload(0x40)\n      dup1\n      swap2\n      sub\n      swap1\n      return\n        /* \"WandInstruments.sol\":11872:12145  function getSellPrice() external view returns (uint256){\r... */\n    tag_18:\n      callvalue\n      dup1\n      iszero\n      tag_121\n      jumpi\n      0x00\n      dup1\n      revert\n    tag_121:\n      pop\n      tag_122\n      tag_123\n      jump\t// in\n    tag_122:\n      mload(0x40)\n      tag_124\n      swap2\n      swap1\n      tag_52\n      jump\t// in\n    tag_124:\n      mload(0x40)\n      dup1\n      swap2\n      sub\n      swap1\n      return\n        /* \"WandInstruments.sol\":898:930  uint256 public daysInCalculation */\n    tag_19:\n      callvalue\n      dup1\n      iszero\n      tag_125\n      jumpi\n      0x00\n      dup1\n      revert\n    tag_125:\n      pop\n      tag_126\n      tag_127\n      jump\t// in\n    tag_126:\n      mload(0x40)\n      tag_128\n      swap2\n      swap1\n      tag_52\n      jump\t// in\n    tag_128:\n      mload(0x40)\n      dup1\n      swap2\n      sub\n      swap1\n      return\n        /* \"WandInstruments.sol\":12660:13132  function testUpdatetimeLockedplus(uint256 amt) public  {\r... */\n    tag_20:\n      callvalue\n      dup1\n      iszero\n      tag_129\n      jumpi\n      0x00\n      dup1\n      revert\n    tag_129:\n      pop\n      tag_130\n      0x04\n      dup1\n      calldatasize\n      sub\n      dup2\n      add\n      swap1\n      tag_131\n      swap2\n      swap1\n      tag_76\n      jump\t// in\n    tag_131:\n      tag_132\n      jump\t// in\n    tag_130:\n      stop\n        /* \"WandInstruments.sol\":1149:1166  int128 public res */\n    tag_21:\n      callvalue\n      dup1\n      iszero\n      tag_133\n      jumpi\n      0x00\n      dup1\n      revert\n    tag_133:\n      pop\n      tag_134\n      tag_135\n      jump\t// in\n    tag_134:\n      mload(0x40)\n      tag_136\n      swap2\n      swap1\n      tag_137\n      jump\t// in\n    tag_136:\n      mload(0x40)\n      dup1\n      swap2\n      sub\n      swap1\n      return\n        /* \"WandInstruments.sol\":1496:1521  IERC20 public tokenStable */\n    tag_22:\n      callvalue\n      dup1\n      iszero\n      tag_138\n      jumpi\n      0x00\n      dup1\n      revert\n    tag_138:\n      pop\n      tag_139\n      tag_140\n      jump\t// in\n    tag_139:\n      mload(0x40)\n      tag_141\n      swap2\n      swap1\n      tag_99\n      jump\t// in\n    tag_141:\n      mload(0x40)\n      dup1\n      swap2\n      sub\n      swap1\n      return\n        /* \"WandInstruments.sol\":13760:14288  function getTokensBoughtXDays() external view returns (uint256){\r... */\n    tag_23:\n      callvalue\n      dup1\n      iszero\n      tag_142\n      jumpi\n      0x00\n      dup1\n      revert\n    tag_142:\n      pop\n      tag_143\n      tag_144\n      jump\t// in\n    tag_143:\n      mload(0x40)\n      tag_145\n      swap2\n      swap1\n      tag_52\n      jump\t// in\n    tag_145:\n      mload(0x40)\n      dup1\n      swap2\n      sub\n      swap1\n      return\n        /* \"WandInstruments.sol\":7775:9022  function buyScepter(uint256 amountSCPtoBuy, string memory _stableChosen) public nonReentrant{\r... */\n    tag_24:\n      callvalue\n      dup1\n      iszero\n      tag_146\n      jumpi\n      0x00\n      dup1\n      revert\n    tag_146:\n      pop\n      tag_147\n      0x04\n      dup1\n      calldatasize\n      sub\n      dup2\n      add\n      swap1\n      tag_148\n      swap2\n      swap1\n      tag_149\n      jump\t// in\n    tag_148:\n      tag_150\n      jump\t// in\n    tag_147:\n      stop\n        /* \"WandInstruments.sol\":9570:10473  function getGrowthFactor() external view returns (uint256){\r... */\n    tag_25:\n      callvalue\n      dup1\n      iszero\n      tag_151\n      jumpi\n      0x00\n      dup1\n      revert\n    tag_151:\n      pop\n      tag_152\n      tag_153\n      jump\t// in\n    tag_152:\n      mload(0x40)\n      tag_154\n      swap2\n      swap1\n      tag_52\n      jump\t// in\n    tag_154:\n      mload(0x40)\n      dup1\n      swap2\n      sub\n      swap1\n      return\n        /* \"WandInstruments.sol\":15029:15118  function whitelist(address _addr) public onlyOwner {  \r... */\n    tag_26:\n      callvalue\n      dup1\n      iszero\n      tag_155\n      jumpi\n      0x00\n      dup1\n      revert\n    tag_155:\n      pop\n      tag_156\n      0x04\n      dup1\n      calldatasize\n      sub\n      dup2\n      add\n      swap1\n      tag_157\n      swap2\n      swap1\n      tag_69\n      jump\t// in\n    tag_157:\n      tag_158\n      jump\t// in\n    tag_156:\n      stop\n        /* \"WandInstruments.sol\":1883:1944  mapping (string => stableTokensParams) public stableERC20Info */\n    tag_27:\n      callvalue\n      dup1\n      iszero\n      tag_159\n      jumpi\n      0x00\n      dup1\n      revert\n    tag_159:\n      pop\n      tag_160\n      0x04\n      dup1\n      calldatasize\n      sub\n      dup2\n      add\n      swap1\n      tag_161\n      swap2\n      swap1\n      tag_162\n      jump\t// in\n    tag_161:\n      tag_163\n      jump\t// in\n    tag_160:\n      mload(0x40)\n      tag_164\n      swap3\n      swap2\n      swap1\n      tag_165\n      jump\t// in\n    tag_164:\n      mload(0x40)\n      dup1\n      swap2\n      sub\n      swap1\n      return\n        /* \"WandInstruments.sol\":12153:12368  function updateSPTRTreasuryBal() external {\r... */\n    tag_28:\n      callvalue\n      dup1\n      iszero\n      tag_166\n      jumpi\n      0x00\n      dup1\n      revert\n    tag_166:\n      pop\n      tag_167\n      tag_168\n      jump\t// in\n    tag_167:\n      stop\n        /* \"WandInstruments.sol\":9030:9537  function claimLockedUSDC(address _claimant, string memory _stableChosen) public {\r... */\n    tag_29:\n      callvalue\n      dup1\n      iszero\n      tag_169\n      jumpi\n      0x00\n      dup1\n      revert\n    tag_169:\n      pop\n      tag_170\n      0x04\n      dup1\n      calldatasize\n      sub\n      dup2\n      add\n      swap1\n      tag_171\n      swap2\n      swap1\n      tag_172\n      jump\t// in\n    tag_171:\n      tag_173\n      jump\t// in\n    tag_170:\n      stop\n        /* \"WandInstruments.sol\":660:694  address public scepterTreasuryAddr */\n    tag_30:\n      callvalue\n      dup1\n      iszero\n      tag_174\n      jumpi\n      0x00\n      dup1\n      revert\n    tag_174:\n      pop\n      tag_175\n      tag_176\n      jump\t// in\n    tag_175:\n      mload(0x40)\n      tag_177\n      swap2\n      swap1\n      tag_57\n      jump\t// in\n    tag_177:\n      mload(0x40)\n      dup1\n      swap2\n      sub\n      swap1\n      return\n        /* \"WandInstruments.sol\":1469:1487  IERC20 public BTON */\n    tag_31:\n      callvalue\n      dup1\n      iszero\n      tag_178\n      jumpi\n      0x00\n      dup1\n      revert\n    tag_178:\n      pop\n      tag_179\n      tag_180\n      jump\t// in\n    tag_179:\n      mload(0x40)\n      tag_181\n      swap2\n      swap1\n      tag_99\n      jump\t// in\n    tag_181:\n      mload(0x40)\n      dup1\n      swap2\n      sub\n      swap1\n      return\n        /* \"WandInstruments.sol\":5279:7005  function cashOutScepter(uint256 amountSCPtoSell, uint256 timeChosenLocked, string memory _stableChosen) public payable{\r... */\n    tag_32:\n      tag_182\n      0x04\n      dup1\n      calldatasize\n      sub\n      dup2\n      add\n      swap1\n      tag_183\n      swap2\n      swap1\n      tag_184\n      jump\t// in\n    tag_183:\n      tag_185\n      jump\t// in\n    tag_182:\n      stop\n        /* \"WandInstruments.sol\":411:436  uint256 public sellFactor */\n    tag_33:\n      callvalue\n      dup1\n      iszero\n      tag_186\n      jumpi\n      0x00\n      dup1\n      revert\n    tag_186:\n      pop\n      tag_187\n      tag_188\n      jump\t// in\n    tag_187:\n      mload(0x40)\n      tag_189\n      swap2\n      swap1\n      tag_52\n      jump\t// in\n    tag_189:\n      mload(0x40)\n      dup1\n      swap2\n      sub\n      swap1\n      return\n        /* \"WandInstruments.sol\":1444:1462  IERC20 public WAND */\n    tag_34:\n      callvalue\n      dup1\n      iszero\n      tag_190\n      jumpi\n      0x00\n      dup1\n      revert\n    tag_190:\n      pop\n      tag_191\n      tag_192\n      jump\t// in\n    tag_191:\n      mload(0x40)\n      tag_193\n      swap2\n      swap1\n      tag_99\n      jump\t// in\n    tag_193:\n      mload(0x40)\n      dup1\n      swap2\n      sub\n      swap1\n      return\n        /* \"WandInstruments.sol\":14294:14580  function getTokensSoldXDays() external view returns (uint256){\r... */\n    tag_35:\n      callvalue\n      dup1\n      iszero\n      tag_194\n      jumpi\n      0x00\n      dup1\n      revert\n    tag_194:\n      pop\n      tag_195\n      tag_196\n      jump\t// in\n    tag_195:\n      mload(0x40)\n      tag_197\n      swap2\n      swap1\n      tag_52\n      jump\t// in\n    tag_197:\n      mload(0x40)\n      dup1\n      swap2\n      sub\n      swap1\n      return\n        /* \"WandInstruments.sol\":15126:15345  function addStable(string memory _ticker, address _addr, uint256 _dec) public onlyOwner {\r... */\n    tag_36:\n      callvalue\n      dup1\n      iszero\n      tag_198\n      jumpi\n      0x00\n      dup1\n      revert\n    tag_198:\n      pop\n      tag_199\n      0x04\n      dup1\n      calldatasize\n      sub\n      dup2\n      add\n      swap1\n      tag_200\n      swap2\n      swap1\n      tag_201\n      jump\t// in\n    tag_200:\n      tag_202\n      jump\t// in\n    tag_199:\n      stop\n        /* \"WandInstruments.sol\":377:404  uint256 public growthFactor */\n    tag_37:\n      callvalue\n      dup1\n      iszero\n      tag_203\n      jumpi\n      0x00\n      dup1\n      revert\n    tag_203:\n      pop\n      tag_204\n      tag_205\n      jump\t// in\n    tag_204:\n      mload(0x40)\n      tag_206\n      swap2\n      swap1\n      tag_52\n      jump\t// in\n    tag_206:\n      mload(0x40)\n      dup1\n      swap2\n      sub\n      swap1\n      return\n        /* \"WandInstruments.sol\":1173:1243  address public testwallet = 0x617F2E2fD72FD9D5503197092aC168c91465E7f2 */\n    tag_38:\n      callvalue\n      dup1\n      iszero\n      tag_207\n      jumpi\n      0x00\n      dup1\n      revert\n    tag_207:\n      pop\n      tag_208\n      tag_209\n      jump\t// in\n    tag_208:\n      mload(0x40)\n      tag_210\n      swap2\n      swap1\n      tag_57\n      jump\t// in\n    tag_210:\n      mload(0x40)\n      dup1\n      swap2\n      sub\n      swap1\n      return\n        /* \"WandInstruments.sol\":625:653  address public treasury1Addr */\n    tag_39:\n      callvalue\n      dup1\n      iszero\n      tag_211\n      jumpi\n      0x00\n      dup1\n      revert\n    tag_211:\n      pop\n      tag_212\n      tag_213\n      jump\t// in\n    tag_212:\n      mload(0x40)\n      tag_214\n      swap2\n      swap1\n      tag_57\n      jump\t// in\n    tag_214:\n      mload(0x40)\n      dup1\n      swap2\n      sub\n      swap1\n      return\n        /* \"WandInstruments.sol\":12408:12564  function setDaysUsedInFactors(uint256 numDays) public {  \r... */\n    tag_40:\n      callvalue\n      dup1\n      iszero\n      tag_215\n      jumpi\n      0x00\n      dup1\n      revert\n    tag_215:\n      pop\n      tag_216\n      0x04\n      dup1\n      calldatasize\n      sub\n      dup2\n      add\n      swap1\n      tag_217\n      swap2\n      swap1\n      tag_76\n      jump\t// in\n    tag_217:\n      tag_218\n      jump\t// in\n    tag_216:\n      stop\n        /* \"WandInstruments.sol\":11592:11866  function getBuyPrice() external view returns (uint256){\r... */\n    tag_50:\n        /* \"WandInstruments.sol\":11638:11645  uint256 */\n      0x00\n        /* \"WandInstruments.sol\":11775:11856  decMul18(this.getBackingPrice() , (1200000000000000000 + this.getGrowthFactor())) */\n      tag_220\n        /* \"WandInstruments.sol\":11784:11788  this */\n      address\n        /* \"WandInstruments.sol\":11784:11804  this.getBackingPrice */\n      0xffffffffffffffffffffffffffffffffffffffff\n      and\n      0x1f564a06\n        /* \"WandInstruments.sol\":11784:11806  this.getBackingPrice() */\n      mload(0x40)\n      dup2\n      0xffffffff\n      and\n      0xe0\n      shl\n      dup2\n      mstore\n      0x04\n      add\n      0x20\n      mload(0x40)\n      dup1\n      dup4\n      sub\n      dup2\n      dup7\n      dup1\n      extcodesize\n      iszero\n      dup1\n      iszero\n      tag_221\n      jumpi\n      0x00\n      dup1\n      revert\n    tag_221:\n      pop\n      gas\n      staticcall\n      iszero\n      dup1\n      iszero\n      tag_223\n      jumpi\n      returndatasize\n      0x00\n      dup1\n      returndatacopy\n      revert(0x00, returndatasize)\n    tag_223:\n      pop\n      pop\n      pop\n      pop\n      mload(0x40)\n      returndatasize\n      not(0x1f)\n      0x1f\n      dup3\n      add\n      and\n      dup3\n      add\n      dup1\n      0x40\n      mstore\n      pop\n      dup2\n      add\n      swap1\n      tag_224\n      swap2\n      swap1\n      tag_225\n      jump\t// in\n    tag_224:\n        /* \"WandInstruments.sol\":11832:11836  this */\n      address\n        /* \"WandInstruments.sol\":11832:11852  this.getGrowthFactor */\n      0xffffffffffffffffffffffffffffffffffffffff\n      and\n      0x93f7b711\n        /* \"WandInstruments.sol\":11832:11854  this.getGrowthFactor() */\n      mload(0x40)\n      dup2\n      0xffffffff\n      and\n      0xe0\n      shl\n      dup2\n      mstore\n      0x04\n      add\n      0x20\n      mload(0x40)\n      dup1\n      dup4\n      sub\n      dup2\n      dup7\n      dup1\n      extcodesize\n      iszero\n      dup1\n      iszero\n      tag_226\n      jumpi\n      0x00\n      dup1\n      revert\n    tag_226:\n      pop\n      gas\n      staticcall\n      iszero\n      dup1\n      iszero\n      tag_228\n      jumpi\n      returndatasize\n      0x00\n      dup1\n      returndatacopy\n      revert(0x00, returndatasize)\n    tag_228:\n      pop\n      pop\n      pop\n      pop\n      mload(0x40)\n      returndatasize\n      not(0x1f)\n      0x1f\n      dup3\n      add\n      and\n      dup3\n      add\n      dup1\n      0x40\n      mstore\n      pop\n      dup2\n      add\n      swap1\n      tag_229\n      swap2\n      swap1\n      tag_225\n      jump\t// in\n    tag_229:\n        /* \"WandInstruments.sol\":11810:11829  1200000000000000000 */\n      0x10a741a462780000\n        /* \"WandInstruments.sol\":11810:11854  1200000000000000000 + this.getGrowthFactor() */\n      tag_230\n      swap2\n      swap1\n      tag_231\n      jump\t// in\n    tag_230:\n        /* \"WandInstruments.sol\":11775:11783  decMul18 */\n      tag_232\n        /* \"WandInstruments.sol\":11775:11856  decMul18(this.getBackingPrice() , (1200000000000000000 + this.getGrowthFactor())) */\n      jump\t// in\n    tag_220:\n        /* \"WandInstruments.sol\":11768:11856  return decMul18(this.getBackingPrice() , (1200000000000000000 + this.getGrowthFactor())) */\n      swap1\n      pop\n        /* \"WandInstruments.sol\":11592:11866  function getBuyPrice() external view returns (uint256){\r... */\n      swap1\n      jump\t// out\n        /* \"WandInstruments.sol\":701:732  address public riskTreasuryAddr */\n    tag_55:\n      0x09\n      0x00\n      swap1\n      sload\n      swap1\n      0x0100\n      exp\n      swap1\n      div\n      0xffffffffffffffffffffffffffffffffffffffff\n      and\n      dup2\n      jump\t// out\n        /* \"WandInstruments.sol\":10479:11374  function getSellFactor() external view returns (uint256){\r... */\n    tag_60:\n        /* \"WandInstruments.sol\":10527:10534  uint256 */\n      0x00\n        /* \"WandInstruments.sol\":10680:10691  uint256 _sF */\n      dup1\n        /* \"WandInstruments.sol\":10703:10726  uint256 xDaysCircSupply */\n      0x00\n        /* \"WandInstruments.sol\":10737:10752  uint256 numdays */\n      dup1\n        /* \"WandInstruments.sol\":10773:10778  86400 */\n      0x015180\n        /* \"WandInstruments.sol\":10755:10772  daysInCalculation */\n      sload(0x0d)\n        /* \"WandInstruments.sol\":10755:10778  daysInCalculation/86400 */\n      tag_234\n      swap2\n      swap1\n      tag_235\n      jump\t// in\n    tag_234:\n        /* \"WandInstruments.sol\":10737:10778  uint256 numdays = daysInCalculation/86400 */\n      swap1\n      pop\n        /* \"WandInstruments.sol\":10789:10813  uint256 daySinceLaunched */\n      0x00\n        /* \"WandInstruments.sol\":10851:10856  86400 */\n      0x015180\n        /* \"WandInstruments.sol\":10835:10847  timeLaunched */\n      sload(0x0c)\n        /* \"WandInstruments.sol\":10817:10832  block.timestamp */\n      timestamp\n        /* \"WandInstruments.sol\":10817:10847  block.timestamp - timeLaunched */\n      tag_236\n      swap2\n      swap1\n      tag_237\n      jump\t// in\n    tag_236:\n        /* \"WandInstruments.sol\":10816:10856  (block.timestamp - timeLaunched) / 86400 */\n      tag_238\n      swap2\n      swap1\n      tag_235\n      jump\t// in\n    tag_238:\n        /* \"WandInstruments.sol\":10789:10856  uint256 daySinceLaunched = (block.timestamp - timeLaunched) / 86400 */\n      swap1\n      pop\n        /* \"WandInstruments.sol\":10867:10876  uint256 d */\n      0x00\n        /* \"WandInstruments.sol\":10913:10914  0 */\n      dup1\n        /* \"WandInstruments.sol\":10893:10909  daySinceLaunched */\n      dup3\n        /* \"WandInstruments.sol\":10893:10914  daySinceLaunched == 0 */\n      eq\n        /* \"WandInstruments.sol\":10889:11181  if (daySinceLaunched == 0) {\r... */\n      iszero\n      tag_239\n      jumpi\n        /* \"WandInstruments.sol\":10945:10967  circulatingSupplyXDays */\n      0x19\n        /* \"WandInstruments.sol\":10945:10970  circulatingSupplyXDays[0] */\n      0x00\n        /* \"WandInstruments.sol\":10968:10969  0 */\n      dup1\n        /* \"WandInstruments.sol\":10945:10970  circulatingSupplyXDays[0] */\n      dup2\n      mstore\n      0x20\n      add\n      swap1\n      dup2\n      mstore\n      0x20\n      add\n      0x00\n      keccak256\n      sload\n        /* \"WandInstruments.sol\":10927:10970  xDaysCircSupply = circulatingSupplyXDays[0] */\n      swap4\n      pop\n        /* \"WandInstruments.sol\":10889:11181  if (daySinceLaunched == 0) {\r... */\n      jump(tag_240)\n    tag_239:\n        /* \"WandInstruments.sol\":11039:11046  numdays */\n      dup3\n        /* \"WandInstruments.sol\":11020:11036  daySinceLaunched */\n      dup3\n        /* \"WandInstruments.sol\":11020:11046  daySinceLaunched - numdays */\n      tag_244\n      swap2\n      swap1\n      tag_237\n      jump\t// in\n    tag_244:\n        /* \"WandInstruments.sol\":11016:11046  d = daySinceLaunched - numdays */\n      swap1\n      pop\n        /* \"WandInstruments.sol\":11011:11170  for (d = daySinceLaunched - numdays; d < daySinceLaunched; d++) {  //for loop example\r... */\n    tag_241:\n        /* \"WandInstruments.sol\":11052:11068  daySinceLaunched */\n      dup2\n        /* \"WandInstruments.sol\":11048:11049  d */\n      dup2\n        /* \"WandInstruments.sol\":11048:11068  d < daySinceLaunched */\n      lt\n        /* \"WandInstruments.sol\":11011:11170  for (d = daySinceLaunched - numdays; d < daySinceLaunched; d++) {  //for loop example\r... */\n      iszero\n      tag_242\n      jumpi\n        /* \"WandInstruments.sol\":11129:11151  circulatingSupplyXDays */\n      0x19\n        /* \"WandInstruments.sol\":11129:11154  circulatingSupplyXDays[d] */\n      0x00\n        /* \"WandInstruments.sol\":11152:11153  d */\n      dup3\n        /* \"WandInstruments.sol\":11129:11154  circulatingSupplyXDays[d] */\n      dup2\n      mstore\n      0x20\n      add\n      swap1\n      dup2\n      mstore\n      0x20\n      add\n      0x00\n      keccak256\n      sload\n        /* \"WandInstruments.sol\":11110:11154  xDaysCircSupply += circulatingSupplyXDays[d] */\n      dup5\n      tag_245\n      swap2\n      swap1\n      tag_231\n      jump\t// in\n    tag_245:\n      swap4\n      pop\n        /* \"WandInstruments.sol\":11070:11073  d++ */\n      dup1\n      dup1\n      tag_246\n      swap1\n      tag_247\n      jump\t// in\n    tag_246:\n      swap2\n      pop\n      pop\n        /* \"WandInstruments.sol\":11011:11170  for (d = daySinceLaunched - numdays; d < daySinceLaunched; d++) {  //for loop example\r... */\n      jump(tag_241)\n    tag_242:\n        /* \"WandInstruments.sol\":10889:11181  if (daySinceLaunched == 0) {\r... */\n    tag_240:\n        /* \"WandInstruments.sol\":11198:11249  decDiv18(this.getTokensSoldXDays(),xDaysCircSupply) */\n      tag_248\n        /* \"WandInstruments.sol\":11207:11211  this */\n      address\n        /* \"WandInstruments.sol\":11207:11230  this.getTokensSoldXDays */\n      0xffffffffffffffffffffffffffffffffffffffff\n      and\n      0xd82eddf2\n        /* \"WandInstruments.sol\":11207:11232  this.getTokensSoldXDays() */\n      mload(0x40)\n      dup2\n      0xffffffff\n      and\n      0xe0\n      shl\n      dup2\n      mstore\n      0x04\n      add\n      0x20\n      mload(0x40)\n      dup1\n      dup4\n      sub\n      dup2\n      dup7\n      dup1\n      extcodesize\n      iszero\n      dup1\n      iszero\n      tag_249\n      jumpi\n      0x00\n      dup1\n      revert\n    tag_249:\n      pop\n      gas\n      staticcall\n      iszero\n      dup1\n      iszero\n      tag_251\n      jumpi\n      returndatasize\n      0x00\n      dup1\n      returndatacopy\n      revert(0x00, returndatasize)\n    tag_251:\n      pop\n      pop\n      pop\n      pop\n      mload(0x40)\n      returndatasize\n      not(0x1f)\n      0x1f\n      dup3\n      add\n      and\n      dup3\n      add\n      dup1\n      0x40\n      mstore\n      pop\n      dup2\n      add\n      swap1\n      tag_252\n      swap2\n      swap1\n      tag_225\n      jump\t// in\n    tag_252:\n        /* \"WandInstruments.sol\":11233:11248  xDaysCircSupply */\n      dup6\n        /* \"WandInstruments.sol\":11198:11206  decDiv18 */\n      tag_253\n        /* \"WandInstruments.sol\":11198:11249  decDiv18(this.getTokensSoldXDays(),xDaysCircSupply) */\n      jump\t// in\n    tag_248:\n        /* \"WandInstruments.sol\":11192:11249  _sF = decDiv18(this.getTokensSoldXDays(),xDaysCircSupply) */\n      swap5\n      pop\n        /* \"WandInstruments.sol\":11269:11287  300000000000000000 */\n      0x0429d069189e0000\n        /* \"WandInstruments.sol\":11263:11266  _sF */\n      dup6\n        /* \"WandInstruments.sol\":11263:11287  _sF > 300000000000000000 */\n      gt\n        /* \"WandInstruments.sol\":11259:11346  if (_sF > 300000000000000000)\r... */\n      iszero\n      tag_254\n      jumpi\n        /* \"WandInstruments.sol\":11317:11335  300000000000000000 */\n      0x0429d069189e0000\n        /* \"WandInstruments.sol\":11311:11335  _sF = 300000000000000000 */\n      swap5\n      pop\n        /* \"WandInstruments.sol\":11259:11346  if (_sF > 300000000000000000)\r... */\n    tag_254:\n        /* \"WandInstruments.sol\":11362:11365  _sF */\n      dup5\n        /* \"WandInstruments.sol\":11355:11365  return _sF */\n      swap6\n      pop\n      pop\n      pop\n      pop\n      pop\n      pop\n        /* \"WandInstruments.sol\":10479:11374  function getSellFactor() external view returns (uint256){\r... */\n      swap1\n      jump\t// out\n        /* \"WandInstruments.sol\":14586:15021  function getCircSupplyXDays() external view returns (uint256){\r... */\n    tag_64:\n        /* \"WandInstruments.sol\":14639:14646  uint256 */\n      0x00\n        /* \"WandInstruments.sol\":14652:14676  uint256 daySinceLaunched */\n      dup1\n        /* \"WandInstruments.sol\":14714:14719  86400 */\n      0x015180\n        /* \"WandInstruments.sol\":14698:14710  timeLaunched */\n      sload(0x0c)\n        /* \"WandInstruments.sol\":14680:14695  block.timestamp */\n      timestamp\n        /* \"WandInstruments.sol\":14680:14710  block.timestamp - timeLaunched */\n      tag_256\n      swap2\n      swap1\n      tag_237\n      jump\t// in\n    tag_256:\n        /* \"WandInstruments.sol\":14679:14719  (block.timestamp - timeLaunched) / 86400 */\n      tag_257\n      swap2\n      swap1\n      tag_235\n      jump\t// in\n    tag_257:\n        /* \"WandInstruments.sol\":14652:14719  uint256 daySinceLaunched = (block.timestamp - timeLaunched) / 86400 */\n      swap1\n      pop\n        /* \"WandInstruments.sol\":14730:14753  uint256 CircSupplyXDays */\n      0x00\n        /* \"WandInstruments.sol\":14768:14783  uint256 numdays */\n      dup1\n        /* \"WandInstruments.sol\":14804:14809  86400 */\n      0x015180\n        /* \"WandInstruments.sol\":14786:14803  daysInCalculation */\n      sload(0x0d)\n        /* \"WandInstruments.sol\":14786:14809  daysInCalculation/86400 */\n      tag_258\n      swap2\n      swap1\n      tag_235\n      jump\t// in\n    tag_258:\n        /* \"WandInstruments.sol\":14768:14809  uint256 numdays = daysInCalculation/86400 */\n      swap1\n      pop\n        /* \"WandInstruments.sol\":14820:14829  uint256 d */\n      0x00\n        /* \"WandInstruments.sol\":14878:14885  numdays */\n      dup2\n        /* \"WandInstruments.sol\":14859:14875  daySinceLaunched */\n      dup5\n        /* \"WandInstruments.sol\":14859:14885  daySinceLaunched - numdays */\n      tag_262\n      swap2\n      swap1\n      tag_237\n      jump\t// in\n    tag_262:\n        /* \"WandInstruments.sol\":14855:14885  d = daySinceLaunched - numdays */\n      swap1\n      pop\n        /* \"WandInstruments.sol\":14850:14981  for (d = daySinceLaunched - numdays; d < daySinceLaunched; d++) {\r... */\n    tag_259:\n        /* \"WandInstruments.sol\":14891:14907  daySinceLaunched */\n      dup4\n        /* \"WandInstruments.sol\":14887:14888  d */\n      dup2\n        /* \"WandInstruments.sol\":14887:14907  d < daySinceLaunched */\n      lt\n        /* \"WandInstruments.sol\":14850:14981  for (d = daySinceLaunched - numdays; d < daySinceLaunched; d++) {\r... */\n      iszero\n      tag_260\n      jumpi\n        /* \"WandInstruments.sol\":14944:14966  circulatingSupplyXDays */\n      0x19\n        /* \"WandInstruments.sol\":14944:14969  circulatingSupplyXDays[d] */\n      0x00\n        /* \"WandInstruments.sol\":14967:14968  d */\n      dup3\n        /* \"WandInstruments.sol\":14944:14969  circulatingSupplyXDays[d] */\n      dup2\n      mstore\n      0x20\n      add\n      swap1\n      dup2\n      mstore\n      0x20\n      add\n      0x00\n      keccak256\n      sload\n        /* \"WandInstruments.sol\":14925:14969  CircSupplyXDays += circulatingSupplyXDays[d] */\n      dup4\n      tag_263\n      swap2\n      swap1\n      tag_231\n      jump\t// in\n    tag_263:\n      swap3\n      pop\n        /* \"WandInstruments.sol\":14909:14912  d++ */\n      dup1\n      dup1\n      tag_264\n      swap1\n      tag_247\n      jump\t// in\n    tag_264:\n      swap2\n      pop\n      pop\n        /* \"WandInstruments.sol\":14850:14981  for (d = daySinceLaunched - numdays; d < daySinceLaunched; d++) {\r... */\n      jump(tag_259)\n    tag_260:\n        /* \"WandInstruments.sol\":14998:15013  CircSupplyXDays */\n      dup3\n        /* \"WandInstruments.sol\":14991:15013  return CircSupplyXDays */\n      swap5\n      pop\n      pop\n      pop\n      pop\n      pop\n        /* \"WandInstruments.sol\":14586:15021  function getCircSupplyXDays() external view returns (uint256){\r... */\n      swap1\n      jump\t// out\n        /* \"WandInstruments.sol\":2055:2115  mapping(address => lockedamounts) public withheldWithdrawals */\n    tag_70:\n      mstore(0x20, 0x1b)\n      dup1\n      0x00\n      mstore\n      keccak256(0x00, 0x40)\n      0x00\n      swap2\n      pop\n      swap1\n      pop\n      dup1\n      0x00\n      add\n      sload\n      swap1\n      dup1\n      0x01\n      add\n      sload\n      swap1\n      pop\n      dup3\n      jump\t// out\n        /* \"WandInstruments.sol\":1638:1688  mapping(uint256 => uint256) public tokensSoldXDays */\n    tag_77:\n      mstore(0x20, 0x18)\n      dup1\n      0x00\n      mstore\n      keccak256(0x00, 0x40)\n      0x00\n      swap2\n      pop\n      swap1\n      pop\n      sload\n      dup2\n      jump\t// out\n        /* \"WandInstruments.sol\":13144:13646  function testUpdatetimeLockedminus(uint256 amt) public  {\r... */\n    tag_82:\n        /* \"WandInstruments.sol\":13225:13244  withheldWithdrawals */\n      0x1b\n        /* \"WandInstruments.sol\":13225:13256  withheldWithdrawals[msg.sender] */\n      0x00\n        /* \"WandInstruments.sol\":13245:13255  msg.sender */\n      caller\n        /* \"WandInstruments.sol\":13225:13256  withheldWithdrawals[msg.sender] */\n      0xffffffffffffffffffffffffffffffffffffffff\n      and\n      0xffffffffffffffffffffffffffffffffffffffff\n      and\n      dup2\n      mstore\n      0x20\n      add\n      swap1\n      dup2\n      mstore\n      0x20\n      add\n      0x00\n      keccak256\n        /* \"WandInstruments.sol\":13225:13264  withheldWithdrawals[msg.sender].amounts */\n      0x01\n      add\n      sload\n        /* \"WandInstruments.sol\":13219:13222  amt */\n      dup2\n        /* \"WandInstruments.sol\":13219:13264  amt < withheldWithdrawals[msg.sender].amounts */\n      lt\n        /* \"WandInstruments.sol\":13211:13305  require(amt < withheldWithdrawals[msg.sender].amounts, \"You dont have that much to withdraw!\") */\n      tag_266\n      jumpi\n      mload(0x40)\n      0x08c379a000000000000000000000000000000000000000000000000000000000\n      dup2\n      mstore\n      0x04\n      add\n      tag_267\n      swap1\n      tag_268\n      jump\t// in\n    tag_267:\n      mload(0x40)\n      dup1\n      swap2\n      sub\n      swap1\n      revert\n    tag_266:\n        /* \"WandInstruments.sol\":13510:13513  amt */\n      dup1\n        /* \"WandInstruments.sol\":13467:13486  withheldWithdrawals */\n      0x1b\n        /* \"WandInstruments.sol\":13467:13498  withheldWithdrawals[msg.sender] */\n      0x00\n        /* \"WandInstruments.sol\":13487:13497  msg.sender */\n      caller\n        /* \"WandInstruments.sol\":13467:13498  withheldWithdrawals[msg.sender] */\n      0xffffffffffffffffffffffffffffffffffffffff\n      and\n      0xffffffffffffffffffffffffffffffffffffffff\n      and\n      dup2\n      mstore\n      0x20\n      add\n      swap1\n      dup2\n      mstore\n      0x20\n      add\n      0x00\n      keccak256\n        /* \"WandInstruments.sol\":13467:13506  withheldWithdrawals[msg.sender].amounts */\n      0x01\n      add\n      0x00\n        /* \"WandInstruments.sol\":13467:13513  withheldWithdrawals[msg.sender].amounts -= amt */\n      dup3\n      dup3\n      sload\n      tag_269\n      swap2\n      swap1\n      tag_237\n      jump\t// in\n    tag_269:\n      swap3\n      pop\n      pop\n      dup2\n      swap1\n      sstore\n      pop\n        /* \"WandInstruments.sol\":13570:13571  0 */\n      0x00\n        /* \"WandInstruments.sol\":13528:13547  withheldWithdrawals */\n      0x1b\n        /* \"WandInstruments.sol\":13528:13559  withheldWithdrawals[msg.sender] */\n      0x00\n        /* \"WandInstruments.sol\":13548:13558  msg.sender */\n      caller\n        /* \"WandInstruments.sol\":13528:13559  withheldWithdrawals[msg.sender] */\n      0xffffffffffffffffffffffffffffffffffffffff\n      and\n      0xffffffffffffffffffffffffffffffffffffffff\n      and\n      dup2\n      mstore\n      0x20\n      add\n      swap1\n      dup2\n      mstore\n      0x20\n      add\n      0x00\n      keccak256\n        /* \"WandInstruments.sol\":13528:13567  withheldWithdrawals[msg.sender].amounts */\n      0x01\n      add\n      sload\n        /* \"WandInstruments.sol\":13528:13571  withheldWithdrawals[msg.sender].amounts ==0 */\n      eq\n        /* \"WandInstruments.sol\":13524:13639  if (withheldWithdrawals[msg.sender].amounts ==0 ){\r... */\n      iszero\n      tag_270\n      jumpi\n        /* \"WandInstruments.sol\":13595:13614  withheldWithdrawals */\n      0x1b\n        /* \"WandInstruments.sol\":13595:13626  withheldWithdrawals[msg.sender] */\n      0x00\n        /* \"WandInstruments.sol\":13615:13625  msg.sender */\n      caller\n        /* \"WandInstruments.sol\":13595:13626  withheldWithdrawals[msg.sender] */\n      0xffffffffffffffffffffffffffffffffffffffff\n      and\n      0xffffffffffffffffffffffffffffffffffffffff\n      and\n      dup2\n      mstore\n      0x20\n      add\n      swap1\n      dup2\n      mstore\n      0x20\n      add\n      0x00\n      keccak256\n      0x00\n        /* \"WandInstruments.sol\":13588:13627  delete(withheldWithdrawals[msg.sender]) */\n      dup1\n      dup3\n      add\n      0x00\n      swap1\n      sstore\n      0x01\n      dup3\n      add\n      0x00\n      swap1\n      sstore\n      pop\n      pop\n        /* \"WandInstruments.sol\":13524:13639  if (withheldWithdrawals[msg.sender].amounts ==0 ){\r... */\n    tag_270:\n        /* \"WandInstruments.sol\":13144:13646  function testUpdatetimeLockedminus(uint256 amt) public  {\r... */\n      pop\n      jump\t// out\n        /* \"WandInstruments.sol\":1695:1752  mapping(uint256 => uint256) public circulatingSupplyXDays */\n    tag_86:\n      mstore(0x20, 0x19)\n      dup1\n      0x00\n      mstore\n      keccak256(0x00, 0x40)\n      0x00\n      swap2\n      pop\n      swap1\n      pop\n      sload\n      dup2\n      jump\t// out\n        /* \"WandInstruments.sol\":7013:7760  function transformScepterToBaton(uint256 amountSCPtoSwap) public payable{\r... */\n    tag_90:\n        /* \"WandInstruments.sol\":7157:7183  uint256 trader_tsc_balance */\n      0x00\n        /* \"WandInstruments.sol\":7186:7190  SPTR */\n      0x13\n      0x00\n      swap1\n      sload\n      swap1\n      0x0100\n      exp\n      swap1\n      div\n      0xffffffffffffffffffffffffffffffffffffffff\n      and\n        /* \"WandInstruments.sol\":7186:7200  SPTR.balanceOf */\n      0xffffffffffffffffffffffffffffffffffffffff\n      and\n      0x70a08231\n        /* \"WandInstruments.sol\":7201:7211  msg.sender */\n      caller\n        /* \"WandInstruments.sol\":7186:7212  SPTR.balanceOf(msg.sender) */\n      mload(0x40)\n      dup3\n      0xffffffff\n      and\n      0xe0\n      shl\n      dup2\n      mstore\n      0x04\n      add\n      tag_272\n      swap2\n      swap1\n      tag_57\n      jump\t// in\n    tag_272:\n      0x20\n      mload(0x40)\n      dup1\n      dup4\n      sub\n      dup2\n      dup7\n      dup1\n      extcodesize\n      iszero\n      dup1\n      iszero\n      tag_273\n      jumpi\n      0x00\n      dup1\n      revert\n    tag_273:\n      pop\n      gas\n      staticcall\n      iszero\n      dup1\n      iszero\n      tag_275\n      jumpi\n      returndatasize\n      0x00\n      dup1\n      returndatacopy\n      revert(0x00, returndatasize)\n    tag_275:\n      pop\n      pop\n      pop\n      pop\n      mload(0x40)\n      returndatasize\n      not(0x1f)\n      0x1f\n      dup3\n      add\n      and\n      dup3\n      add\n      dup1\n      0x40\n      mstore\n      pop\n      dup2\n      add\n      swap1\n      tag_276\n      swap2\n      swap1\n      tag_225\n      jump\t// in\n    tag_276:\n        /* \"WandInstruments.sol\":7157:7212  uint256 trader_tsc_balance = SPTR.balanceOf(msg.sender) */\n      swap1\n      pop\n        /* \"WandInstruments.sol\":7252:7267  amountSCPtoSwap */\n      dup2\n        /* \"WandInstruments.sol\":7231:7249  trader_tsc_balance */\n      dup2\n        /* \"WandInstruments.sol\":7231:7267  trader_tsc_balance > amountSCPtoSwap */\n      gt\n        /* \"WandInstruments.sol\":7223:7298  require(trader_tsc_balance > amountSCPtoSwap, \"You dont have that amount!\") */\n      tag_277\n      jumpi\n      mload(0x40)\n      0x08c379a000000000000000000000000000000000000000000000000000000000\n      dup2\n      mstore\n      0x04\n      add\n      tag_278\n      swap1\n      tag_279\n      jump\t// in\n    tag_278:\n      mload(0x40)\n      dup1\n      swap2\n      sub\n      swap1\n      revert\n    tag_277:\n        /* \"WandInstruments.sol\":7352:7419  _safeTransferFrom(SPTR, msg.sender, address(this), amountSCPtoSwap) */\n      tag_280\n        /* \"WandInstruments.sol\":7370:7374  SPTR */\n      0x13\n      0x00\n      swap1\n      sload\n      swap1\n      0x0100\n      exp\n      swap1\n      div\n      0xffffffffffffffffffffffffffffffffffffffff\n      and\n        /* \"WandInstruments.sol\":7376:7386  msg.sender */\n      caller\n        /* \"WandInstruments.sol\":7396:7400  this */\n      address\n        /* \"WandInstruments.sol\":7403:7418  amountSCPtoSwap */\n      dup6\n        /* \"WandInstruments.sol\":7352:7369  _safeTransferFrom */\n      tag_281\n        /* \"WandInstruments.sol\":7352:7419  _safeTransferFrom(SPTR, msg.sender, address(this), amountSCPtoSwap) */\n      jump\t// in\n    tag_280:\n        /* \"WandInstruments.sol\":7480:7496  uint256 dInArray */\n      0x00\n        /* \"WandInstruments.sol\":7530:7535  86400 */\n      0x015180\n        /* \"WandInstruments.sol\":7516:7528  timeLaunched */\n      sload(0x0c)\n        /* \"WandInstruments.sol\":7499:7514  block.timestamp */\n      timestamp\n        /* \"WandInstruments.sol\":7499:7528  block.timestamp- timeLaunched */\n      tag_282\n      swap2\n      swap1\n      tag_237\n      jump\t// in\n    tag_282:\n        /* \"WandInstruments.sol\":7498:7535  (block.timestamp- timeLaunched)/86400 */\n      tag_283\n      swap2\n      swap1\n      tag_235\n      jump\t// in\n    tag_283:\n        /* \"WandInstruments.sol\":7480:7535  uint256 dInArray =(block.timestamp- timeLaunched)/86400 */\n      swap1\n      pop\n        /* \"WandInstruments.sol\":7576:7591  amountSCPtoSwap */\n      dup3\n        /* \"WandInstruments.sol\":7547:7562  tokensSoldXDays */\n      0x18\n        /* \"WandInstruments.sol\":7547:7572  tokensSoldXDays[dInArray] */\n      0x00\n        /* \"WandInstruments.sol\":7563:7571  dInArray */\n      dup4\n        /* \"WandInstruments.sol\":7547:7572  tokensSoldXDays[dInArray] */\n      dup2\n      mstore\n      0x20\n      add\n      swap1\n      dup2\n      mstore\n      0x20\n      add\n      0x00\n      keccak256\n      0x00\n        /* \"WandInstruments.sol\":7547:7591  tokensSoldXDays[dInArray] += amountSCPtoSwap */\n      dup3\n      dup3\n      sload\n      tag_284\n      swap2\n      swap1\n      tag_231\n      jump\t// in\n    tag_284:\n      swap3\n      pop\n      pop\n      dup2\n      swap1\n      sstore\n      pop\n        /* \"WandInstruments.sol\":7638:7653  amountSCPtoSwap */\n      dup3\n        /* \"WandInstruments.sol\":7602:7624  circulatingSupplyXDays */\n      0x19\n        /* \"WandInstruments.sol\":7602:7634  circulatingSupplyXDays[dInArray] */\n      0x00\n        /* \"WandInstruments.sol\":7625:7633  dInArray */\n      dup4\n        /* \"WandInstruments.sol\":7602:7634  circulatingSupplyXDays[dInArray] */\n      dup2\n      mstore\n      0x20\n      add\n      swap1\n      dup2\n      mstore\n      0x20\n      add\n      0x00\n      keccak256\n      0x00\n        /* \"WandInstruments.sol\":7602:7653  circulatingSupplyXDays[dInArray] -= amountSCPtoSwap */\n      dup3\n      dup3\n      sload\n      tag_285\n      swap2\n      swap1\n      tag_237\n      jump\t// in\n    tag_285:\n      swap3\n      pop\n      pop\n      dup2\n      swap1\n      sstore\n      pop\n        /* \"WandInstruments.sol\":7085:7760  {\r... */\n      pop\n      pop\n        /* \"WandInstruments.sol\":7013:7760  function transformScepterToBaton(uint256 amountSCPtoSwap) public payable{\r... */\n      pop\n      jump\t// out\n        /* \"WandInstruments.sol\":11380:11586  function getBackingPrice() external view returns (uint256){\r... */\n    tag_93:\n        /* \"WandInstruments.sol\":11430:11437  uint256 */\n      0x00\n        /* \"WandInstruments.sol\":11537:11578  decDiv18(treasury1bal,SPTR.totalSupply()) */\n      tag_287\n        /* \"WandInstruments.sol\":11546:11558  treasury1bal */\n      sload(0x0b)\n        /* \"WandInstruments.sol\":11559:11563  SPTR */\n      0x13\n      0x00\n      swap1\n      sload\n      swap1\n      0x0100\n      exp\n      swap1\n      div\n      0xffffffffffffffffffffffffffffffffffffffff\n      and\n        /* \"WandInstruments.sol\":11559:11575  SPTR.totalSupply */\n      0xffffffffffffffffffffffffffffffffffffffff\n      and\n      0x18160ddd\n        /* \"WandInstruments.sol\":11559:11577  SPTR.totalSupply() */\n      mload(0x40)\n      dup2\n      0xffffffff\n      and\n      0xe0\n      shl\n      dup2\n      mstore\n      0x04\n      add\n      0x20\n      mload(0x40)\n      dup1\n      dup4\n      sub\n      dup2\n      dup7\n      dup1\n      extcodesize\n      iszero\n      dup1\n      iszero\n      tag_288\n      jumpi\n      0x00\n      dup1\n      revert\n    tag_288:\n      pop\n      gas\n      staticcall\n      iszero\n      dup1\n      iszero\n      tag_290\n      jumpi\n      returndatasize\n      0x00\n      dup1\n      returndatacopy\n      revert(0x00, returndatasize)\n    tag_290:\n      pop\n      pop\n      pop\n      pop\n      mload(0x40)\n      returndatasize\n      not(0x1f)\n      0x1f\n      dup3\n      add\n      and\n      dup3\n      add\n      dup1\n      0x40\n      mstore\n      pop\n      dup2\n      add\n      swap1\n      tag_291\n      swap2\n      swap1\n      tag_225\n      jump\t// in\n    tag_291:\n        /* \"WandInstruments.sol\":11537:11545  decDiv18 */\n      tag_253\n        /* \"WandInstruments.sol\":11537:11578  decDiv18(treasury1bal,SPTR.totalSupply()) */\n      jump\t// in\n    tag_287:\n        /* \"WandInstruments.sol\":11530:11578  return decDiv18(treasury1bal,SPTR.totalSupply()) */\n      swap1\n      pop\n        /* \"WandInstruments.sol\":11380:11586  function getBackingPrice() external view returns (uint256){\r... */\n      swap1\n      jump\t// out\n        /* \"WandInstruments.sol\":1419:1437  IERC20 public SPTR */\n    tag_97:\n      0x13\n      0x00\n      swap1\n      sload\n      swap1\n      0x0100\n      exp\n      swap1\n      div\n      0xffffffffffffffffffffffffffffffffffffffff\n      and\n      dup2\n      jump\t// out\n        /* \"WandInstruments.sol\":739:767  address public devWalletAddr */\n    tag_102:\n      0x0a\n      0x00\n      swap1\n      sload\n      swap1\n      0x0100\n      exp\n      swap1\n      div\n      0xffffffffffffffffffffffffffffffffffffffff\n      and\n      dup2\n      jump\t// out\n        /* \"WandInstruments.sol\":1579:1631  mapping(uint256 => uint256) public tokensBoughtXDays */\n    tag_107:\n      mstore(0x20, 0x17)\n      dup1\n      0x00\n      mstore\n      keccak256(0x00, 0x40)\n      0x00\n      swap2\n      pop\n      swap1\n      pop\n      sload\n      dup2\n      jump\t// out\n        /* \"WandInstruments.sol\":808:835  uint256 public treasury1bal */\n    tag_111:\n      sload(0x0b)\n      dup2\n      jump\t// out\n        /* \"WandInstruments.sol\":12576:12652  function withdrawStables(uint256 _amtToWithdraw) public onlyOwner {\r... */\n    tag_116:\n      pop\n      jump\t// out\n        /* \"WandInstruments.sol\":864:891  uint256 public timeLaunched */\n    tag_119:\n      sload(0x0c)\n      dup2\n      jump\t// out\n        /* \"WandInstruments.sol\":11872:12145  function getSellPrice() external view returns (uint256){\r... */\n    tag_123:\n        /* \"WandInstruments.sol\":11919:11926  uint256 */\n      0x00\n        /* \"WandInstruments.sol\":12059:12137  decMul18(this.getBackingPrice() , (900000000000000000 - this.getSellFactor())) */\n      tag_295\n        /* \"WandInstruments.sol\":12068:12072  this */\n      address\n        /* \"WandInstruments.sol\":12068:12088  this.getBackingPrice */\n      0xffffffffffffffffffffffffffffffffffffffff\n      and\n      0x1f564a06\n        /* \"WandInstruments.sol\":12068:12090  this.getBackingPrice() */\n      mload(0x40)\n      dup2\n      0xffffffff\n      and\n      0xe0\n      shl\n      dup2\n      mstore\n      0x04\n      add\n      0x20\n      mload(0x40)\n      dup1\n      dup4\n      sub\n      dup2\n      dup7\n      dup1\n      extcodesize\n      iszero\n      dup1\n      iszero\n      tag_296\n      jumpi\n      0x00\n      dup1\n      revert\n    tag_296:\n      pop\n      gas\n      staticcall\n      iszero\n      dup1\n      iszero\n      tag_298\n      jumpi\n      returndatasize\n      0x00\n      dup1\n      returndatacopy\n      revert(0x00, returndatasize)\n    tag_298:\n      pop\n      pop\n      pop\n      pop\n      mload(0x40)\n      returndatasize\n      not(0x1f)\n      0x1f\n      dup3\n      add\n      and\n      dup3\n      add\n      dup1\n      0x40\n      mstore\n      pop\n      dup2\n      add\n      swap1\n      tag_299\n      swap2\n      swap1\n      tag_225\n      jump\t// in\n    tag_299:\n        /* \"WandInstruments.sol\":12115:12119  this */\n      address\n        /* \"WandInstruments.sol\":12115:12133  this.getSellFactor */\n      0xffffffffffffffffffffffffffffffffffffffff\n      and\n      0x0ccaf04f\n        /* \"WandInstruments.sol\":12115:12135  this.getSellFactor() */\n      mload(0x40)\n      dup2\n      0xffffffff\n      and\n      0xe0\n      shl\n      dup2\n      mstore\n      0x04\n      add\n      0x20\n      mload(0x40)\n      dup1\n      dup4\n      sub\n      dup2\n      dup7\n      dup1\n      extcodesize\n      iszero\n      dup1\n      iszero\n      tag_300\n      jumpi\n      0x00\n      dup1\n      revert\n    tag_300:\n      pop\n      gas\n      staticcall\n      iszero\n      dup1\n      iszero\n      tag_302\n      jumpi\n      returndatasize\n      0x00\n      dup1\n      returndatacopy\n      revert(0x00, returndatasize)\n    tag_302:\n      pop\n      pop\n      pop\n      pop\n      mload(0x40)\n      returndatasize\n      not(0x1f)\n      0x1f\n      dup3\n      add\n      and\n      dup3\n      add\n      dup1\n      0x40\n      mstore\n      pop\n      dup2\n      add\n      swap1\n      tag_303\n      swap2\n      swap1\n      tag_225\n      jump\t// in\n    tag_303:\n        /* \"WandInstruments.sol\":12094:12112  900000000000000000 */\n      0x0c7d713b49da0000\n        /* \"WandInstruments.sol\":12094:12135  900000000000000000 - this.getSellFactor() */\n      tag_304\n      swap2\n      swap1\n      tag_237\n      jump\t// in\n    tag_304:\n        /* \"WandInstruments.sol\":12059:12067  decMul18 */\n      tag_232\n        /* \"WandInstruments.sol\":12059:12137  decMul18(this.getBackingPrice() , (900000000000000000 - this.getSellFactor())) */\n      jump\t// in\n    tag_295:\n        /* \"WandInstruments.sol\":12052:12137  return decMul18(this.getBackingPrice() , (900000000000000000 - this.getSellFactor())) */\n      swap1\n      pop\n        /* \"WandInstruments.sol\":11872:12145  function getSellPrice() external view returns (uint256){\r... */\n      swap1\n      jump\t// out\n        /* \"WandInstruments.sol\":898:930  uint256 public daysInCalculation */\n    tag_127:\n      sload(0x0d)\n      dup2\n      jump\t// out\n        /* \"WandInstruments.sol\":12660:13132  function testUpdatetimeLockedplus(uint256 amt) public  {\r... */\n    tag_132:\n        /* \"WandInstruments.sol\":13055:13061  864000 */\n      0x0d2f00\n        /* \"WandInstruments.sol\":13037:13052  block.timestamp */\n      timestamp\n        /* \"WandInstruments.sol\":13037:13061  block.timestamp + 864000 */\n      tag_306\n      swap2\n      swap1\n      tag_231\n      jump\t// in\n    tag_306:\n        /* \"WandInstruments.sol\":12990:13009  withheldWithdrawals */\n      0x1b\n        /* \"WandInstruments.sol\":12990:13021  withheldWithdrawals[msg.sender] */\n      0x00\n        /* \"WandInstruments.sol\":13010:13020  msg.sender */\n      caller\n        /* \"WandInstruments.sol\":12990:13021  withheldWithdrawals[msg.sender] */\n      0xffffffffffffffffffffffffffffffffffffffff\n      and\n      0xffffffffffffffffffffffffffffffffffffffff\n      and\n      dup2\n      mstore\n      0x20\n      add\n      swap1\n      dup2\n      mstore\n      0x20\n      add\n      0x00\n      keccak256\n        /* \"WandInstruments.sol\":12990:13034  withheldWithdrawals[msg.sender].timeUnlocked */\n      0x00\n      add\n        /* \"WandInstruments.sol\":12990:13061  withheldWithdrawals[msg.sender].timeUnlocked = block.timestamp + 864000 */\n      dup2\n      swap1\n      sstore\n      pop\n        /* \"WandInstruments.sol\":13115:13118  amt */\n      dup1\n        /* \"WandInstruments.sol\":13072:13091  withheldWithdrawals */\n      0x1b\n        /* \"WandInstruments.sol\":13072:13103  withheldWithdrawals[msg.sender] */\n      0x00\n        /* \"WandInstruments.sol\":13092:13102  msg.sender */\n      caller\n        /* \"WandInstruments.sol\":13072:13103  withheldWithdrawals[msg.sender] */\n      0xffffffffffffffffffffffffffffffffffffffff\n      and\n      0xffffffffffffffffffffffffffffffffffffffff\n      and\n      dup2\n      mstore\n      0x20\n      add\n      swap1\n      dup2\n      mstore\n      0x20\n      add\n      0x00\n      keccak256\n        /* \"WandInstruments.sol\":13072:13111  withheldWithdrawals[msg.sender].amounts */\n      0x01\n      add\n      0x00\n        /* \"WandInstruments.sol\":13072:13118  withheldWithdrawals[msg.sender].amounts += amt */\n      dup3\n      dup3\n      sload\n      tag_307\n      swap2\n      swap1\n      tag_231\n      jump\t// in\n    tag_307:\n      swap3\n      pop\n      pop\n      dup2\n      swap1\n      sstore\n      pop\n        /* \"WandInstruments.sol\":12660:13132  function testUpdatetimeLockedplus(uint256 amt) public  {\r... */\n      pop\n      jump\t// out\n        /* \"WandInstruments.sol\":1149:1166  int128 public res */\n    tag_135:\n      0x11\n      0x00\n      swap1\n      sload\n      swap1\n      0x0100\n      exp\n      swap1\n      div\n      0x0f\n      signextend\n      dup2\n      jump\t// out\n        /* \"WandInstruments.sol\":1496:1521  IERC20 public tokenStable */\n    tag_140:\n      0x16\n      0x00\n      swap1\n      sload\n      swap1\n      0x0100\n      exp\n      swap1\n      div\n      0xffffffffffffffffffffffffffffffffffffffff\n      and\n      dup2\n      jump\t// out\n        /* \"WandInstruments.sol\":13760:14288  function getTokensBoughtXDays() external view returns (uint256){\r... */\n    tag_144:\n        /* \"WandInstruments.sol\":13815:13822  uint256 */\n      0x00\n        /* \"WandInstruments.sol\":13834:13851  uint256 boughtnum */\n      dup1\n        /* \"WandInstruments.sol\":13862:13871  uint256 d */\n      0x00\n        /* \"WandInstruments.sol\":13882:13897  uint256 numdays */\n      dup1\n        /* \"WandInstruments.sol\":13918:13923  86400 */\n      0x015180\n        /* \"WandInstruments.sol\":13900:13917  daysInCalculation */\n      sload(0x0d)\n        /* \"WandInstruments.sol\":13900:13923  daysInCalculation/86400 */\n      tag_309\n      swap2\n      swap1\n      tag_235\n      jump\t// in\n    tag_309:\n        /* \"WandInstruments.sol\":13882:13923  uint256 numdays = daysInCalculation/86400 */\n      swap1\n      pop\n        /* \"WandInstruments.sol\":13934:13958  uint256 daySinceLaunched */\n      0x00\n        /* \"WandInstruments.sol\":13996:14001  86400 */\n      0x015180\n        /* \"WandInstruments.sol\":13980:13992  timeLaunched */\n      sload(0x0c)\n        /* \"WandInstruments.sol\":13962:13977  block.timestamp */\n      timestamp\n        /* \"WandInstruments.sol\":13962:13992  block.timestamp - timeLaunched */\n      tag_310\n      swap2\n      swap1\n      tag_237\n      jump\t// in\n    tag_310:\n        /* \"WandInstruments.sol\":13961:14001  (block.timestamp - timeLaunched) / 86400 */\n      tag_311\n      swap2\n      swap1\n      tag_235\n      jump\t// in\n    tag_311:\n        /* \"WandInstruments.sol\":13934:14001  uint256 daySinceLaunched = (block.timestamp - timeLaunched) / 86400 */\n      swap1\n      pop\n        /* \"WandInstruments.sol\":14036:14037  0 */\n      0x00\n        /* \"WandInstruments.sol\":14016:14032  daySinceLaunched */\n      dup2\n        /* \"WandInstruments.sol\":14016:14037  daySinceLaunched == 0 */\n      eq\n        /* \"WandInstruments.sol\":14012:14089  if (daySinceLaunched == 0) {\r... */\n      iszero\n      tag_312\n      jumpi\n        /* \"WandInstruments.sol\":14057:14074  tokensBoughtXDays */\n      0x17\n        /* \"WandInstruments.sol\":14057:14077  tokensBoughtXDays[0] */\n      0x00\n        /* \"WandInstruments.sol\":14075:14076  0 */\n      dup1\n        /* \"WandInstruments.sol\":14057:14077  tokensBoughtXDays[0] */\n      dup2\n      mstore\n      0x20\n      add\n      swap1\n      dup2\n      mstore\n      0x20\n      add\n      0x00\n      keccak256\n      sload\n        /* \"WandInstruments.sol\":14050:14077  return tokensBoughtXDays[0] */\n      swap5\n      pop\n      pop\n      pop\n      pop\n      pop\n      jump(tag_308)\n        /* \"WandInstruments.sol\":14012:14089  if (daySinceLaunched == 0) {\r... */\n    tag_312:\n        /* \"WandInstruments.sol\":14127:14134  numdays */\n      dup2\n        /* \"WandInstruments.sol\":14108:14124  daySinceLaunched */\n      dup2\n        /* \"WandInstruments.sol\":14108:14134  daySinceLaunched - numdays */\n      tag_316\n      swap2\n      swap1\n      tag_237\n      jump\t// in\n    tag_316:\n        /* \"WandInstruments.sol\":14104:14134  d = daySinceLaunched - numdays */\n      swap3\n      pop\n        /* \"WandInstruments.sol\":14099:14245  for (d = daySinceLaunched - numdays; d < daySinceLaunched; d++) {  //for loop example\r... */\n    tag_313:\n        /* \"WandInstruments.sol\":14140:14156  daySinceLaunched */\n      dup1\n        /* \"WandInstruments.sol\":14136:14137  d */\n      dup4\n        /* \"WandInstruments.sol\":14136:14156  d < daySinceLaunched */\n      lt\n        /* \"WandInstruments.sol\":14099:14245  for (d = daySinceLaunched - numdays; d < daySinceLaunched; d++) {  //for loop example\r... */\n      iszero\n      tag_314\n      jumpi\n        /* \"WandInstruments.sol\":14209:14226  tokensBoughtXDays */\n      0x17\n        /* \"WandInstruments.sol\":14209:14229  tokensBoughtXDays[d] */\n      0x00\n        /* \"WandInstruments.sol\":14227:14228  d */\n      dup5\n        /* \"WandInstruments.sol\":14209:14229  tokensBoughtXDays[d] */\n      dup2\n      mstore\n      0x20\n      add\n      swap1\n      dup2\n      mstore\n      0x20\n      add\n      0x00\n      keccak256\n      sload\n        /* \"WandInstruments.sol\":14196:14229  boughtnum += tokensBoughtXDays[d] */\n      dup5\n      tag_317\n      swap2\n      swap1\n      tag_231\n      jump\t// in\n    tag_317:\n      swap4\n      pop\n        /* \"WandInstruments.sol\":14158:14161  d++ */\n      dup3\n      dup1\n      tag_318\n      swap1\n      tag_247\n      jump\t// in\n    tag_318:\n      swap4\n      pop\n      pop\n        /* \"WandInstruments.sol\":14099:14245  for (d = daySinceLaunched - numdays; d < daySinceLaunched; d++) {  //for loop example\r... */\n      jump(tag_313)\n    tag_314:\n        /* \"WandInstruments.sol\":14271:14280  boughtnum */\n      dup4\n        /* \"WandInstruments.sol\":14264:14280  return boughtnum */\n      swap5\n      pop\n      pop\n      pop\n      pop\n      pop\n        /* \"WandInstruments.sol\":13760:14288  function getTokensBoughtXDays() external view returns (uint256){\r... */\n    tag_308:\n      swap1\n      jump\t// out\n        /* \"WandInstruments.sol\":7775:9022  function buyScepter(uint256 amountSCPtoBuy, string memory _stableChosen) public nonReentrant{\r... */\n    tag_150:\n        /* \"ReentrancyGuard.sol\":1778:1779  2 */\n      0x02\n        /* \"ReentrancyGuard.sol\":2376:2383  _status */\n      sload(0x00)\n        /* \"ReentrancyGuard.sol\":2376:2395  _status != _ENTERED */\n      eq\n      iszero\n        /* \"ReentrancyGuard.sol\":2368:2431  require(_status != _ENTERED, \"ReentrancyGuard: reentrant call\") */\n      tag_320\n      jumpi\n      mload(0x40)\n      0x08c379a000000000000000000000000000000000000000000000000000000000\n      dup2\n      mstore\n      0x04\n      add\n      tag_321\n      swap1\n      tag_322\n      jump\t// in\n    tag_321:\n      mload(0x40)\n      dup1\n      swap2\n      sub\n      swap1\n      revert\n    tag_320:\n        /* \"ReentrancyGuard.sol\":1778:1779  2 */\n      0x02\n        /* \"ReentrancyGuard.sol\":2509:2516  _status */\n      0x00\n        /* \"ReentrancyGuard.sol\":2509:2527  _status = _ENTERED */\n      dup2\n      swap1\n      sstore\n      pop\n        /* \"WandInstruments.sol\":7960:7975  stableERC20Info */\n      0x1a\n        /* \"WandInstruments.sol\":7976:7989  _stableChosen */\n      dup2\n        /* \"WandInstruments.sol\":7960:7990  stableERC20Info[_stableChosen] */\n      mload(0x40)\n      tag_324\n      swap2\n      swap1\n      tag_325\n      jump\t// in\n    tag_324:\n      swap1\n      dup2\n      mstore\n      0x20\n      add\n      mload(0x40)\n      dup1\n      swap2\n      sub\n      swap1\n      keccak256\n        /* \"WandInstruments.sol\":7960:8006  stableERC20Info[_stableChosen].contractAddress */\n      0x00\n      add\n      0x00\n      swap1\n      sload\n      swap1\n      0x0100\n      exp\n      swap1\n      div\n      0xffffffffffffffffffffffffffffffffffffffff\n      and\n        /* \"WandInstruments.sol\":7939:7950  tokenStable */\n      0x16\n      0x00\n        /* \"WandInstruments.sol\":7939:8007  tokenStable = IERC20(stableERC20Info[_stableChosen].contractAddress) */\n      0x0100\n      exp\n      dup2\n      sload\n      dup2\n      0xffffffffffffffffffffffffffffffffffffffff\n      mul\n      not\n      and\n      swap1\n      dup4\n      0xffffffffffffffffffffffffffffffffffffffff\n      and\n      mul\n      or\n      swap1\n      sstore\n      pop\n        /* \"WandInstruments.sol\":8044:8050  250000 */\n      0x03d090\n        /* \"WandInstruments.sol\":8026:8040  amountSCPtoBuy */\n      dup3\n        /* \"WandInstruments.sol\":8026:8050  amountSCPtoBuy <= 250000 */\n      gt\n      iszero\n        /* \"WandInstruments.sol\":8018:8077  require(amountSCPtoBuy <= 250000 , \"Per transaction limit\") */\n      tag_326\n      jumpi\n      mload(0x40)\n      0x08c379a000000000000000000000000000000000000000000000000000000000\n      dup2\n      mstore\n      0x04\n      add\n      tag_327\n      swap1\n      tag_328\n      jump\t// in\n    tag_327:\n      mload(0x40)\n      dup1\n      swap2\n      sub\n      swap1\n      revert\n    tag_326:\n        /* \"WandInstruments.sol\":8088:8115  uint256 trader_usdc_balance */\n      0x00\n        /* \"WandInstruments.sol\":8118:8129  tokenStable */\n      0x16\n      0x00\n      swap1\n      sload\n      swap1\n      0x0100\n      exp\n      swap1\n      div\n      0xffffffffffffffffffffffffffffffffffffffff\n      and\n        /* \"WandInstruments.sol\":8118:8139  tokenStable.balanceOf */\n      0xffffffffffffffffffffffffffffffffffffffff\n      and\n      0x70a08231\n        /* \"WandInstruments.sol\":8140:8150  msg.sender */\n      caller\n        /* \"WandInstruments.sol\":8118:8151  tokenStable.balanceOf(msg.sender) */\n      mload(0x40)\n      dup3\n      0xffffffff\n      and\n      0xe0\n      shl\n      dup2\n      mstore\n      0x04\n      add\n      tag_329\n      swap2\n      swap1\n      tag_57\n      jump\t// in\n    tag_329:\n      0x20\n      mload(0x40)\n      dup1\n      dup4\n      sub\n      dup2\n      dup7\n      dup1\n      extcodesize\n      iszero\n      dup1\n      iszero\n      tag_330\n      jumpi\n      0x00\n      dup1\n      revert\n    tag_330:\n      pop\n      gas\n      staticcall\n      iszero\n      dup1\n      iszero\n      tag_332\n      jumpi\n      returndatasize\n      0x00\n      dup1\n      returndatacopy\n      revert(0x00, returndatasize)\n    tag_332:\n      pop\n      pop\n      pop\n      pop\n      mload(0x40)\n      returndatasize\n      not(0x1f)\n      0x1f\n      dup3\n      add\n      and\n      dup3\n      add\n      dup1\n      0x40\n      mstore\n      pop\n      dup2\n      add\n      swap1\n      tag_333\n      swap2\n      swap1\n      tag_225\n      jump\t// in\n    tag_333:\n        /* \"WandInstruments.sol\":8088:8151  uint256 trader_usdc_balance = tokenStable.balanceOf(msg.sender) */\n      swap1\n      pop\n        /* \"WandInstruments.sol\":8192:8206  amountSCPtoBuy */\n      dup3\n        /* \"WandInstruments.sol\":8170:8189  trader_usdc_balance */\n      dup2\n        /* \"WandInstruments.sol\":8170:8206  trader_usdc_balance > amountSCPtoBuy */\n      gt\n        /* \"WandInstruments.sol\":8162:8237  require(trader_usdc_balance > amountSCPtoBuy, \"You dont have that amount!\") */\n      tag_334\n      jumpi\n      mload(0x40)\n      0x08c379a000000000000000000000000000000000000000000000000000000000\n      dup2\n      mstore\n      0x04\n      add\n      tag_335\n      swap1\n      tag_279\n      jump\t// in\n    tag_335:\n      mload(0x40)\n      dup1\n      swap2\n      sub\n      swap1\n      revert\n    tag_334:\n        /* \"WandInstruments.sol\":8304:8323  uint256 usdAmtToPay */\n      0x00\n        /* \"WandInstruments.sol\":8395:8410  stableERC20Info */\n      0x1a\n        /* \"WandInstruments.sol\":8411:8424  _stableChosen */\n      dup4\n        /* \"WandInstruments.sol\":8395:8425  stableERC20Info[_stableChosen] */\n      mload(0x40)\n      tag_336\n      swap2\n      swap1\n      tag_325\n      jump\t// in\n    tag_336:\n      swap1\n      dup2\n      mstore\n      0x20\n      add\n      mload(0x40)\n      dup1\n      swap2\n      sub\n      swap1\n      keccak256\n        /* \"WandInstruments.sol\":8395:8439  stableERC20Info[_stableChosen].tokenDecimals */\n      0x01\n      add\n      sload\n        /* \"WandInstruments.sol\":8348:8392  decMul18(amountSCPtoBuy, this.getBuyPrice()) */\n      tag_337\n        /* \"WandInstruments.sol\":8357:8371  amountSCPtoBuy */\n      dup6\n        /* \"WandInstruments.sol\":8373:8377  this */\n      address\n        /* \"WandInstruments.sol\":8373:8389  this.getBuyPrice */\n      0xffffffffffffffffffffffffffffffffffffffff\n      and\n      0x018a25e8\n        /* \"WandInstruments.sol\":8373:8391  this.getBuyPrice() */\n      mload(0x40)\n      dup2\n      0xffffffff\n      and\n      0xe0\n      shl\n      dup2\n      mstore\n      0x04\n      add\n      0x20\n      mload(0x40)\n      dup1\n      dup4\n      sub\n      dup2\n      dup7\n      dup1\n      extcodesize\n      iszero\n      dup1\n      iszero\n      tag_338\n      jumpi\n      0x00\n      dup1\n      revert\n    tag_338:\n      pop\n      gas\n      staticcall\n      iszero\n      dup1\n      iszero\n      tag_340\n      jumpi\n      returndatasize\n      0x00\n      dup1\n      returndatacopy\n      revert(0x00, returndatasize)\n    tag_340:\n      pop\n      pop\n      pop\n      pop\n      mload(0x40)\n      returndatasize\n      not(0x1f)\n      0x1f\n      dup3\n      add\n      and\n      dup3\n      add\n      dup1\n      0x40\n      mstore\n      pop\n      dup2\n      add\n      swap1\n      tag_341\n      swap2\n      swap1\n      tag_225\n      jump\t// in\n    tag_341:\n        /* \"WandInstruments.sol\":8348:8356  decMul18 */\n      tag_232\n        /* \"WandInstruments.sol\":8348:8392  decMul18(amountSCPtoBuy, this.getBuyPrice()) */\n      jump\t// in\n    tag_337:\n        /* \"WandInstruments.sol\":8348:8439  decMul18(amountSCPtoBuy, this.getBuyPrice()) * stableERC20Info[_stableChosen].tokenDecimals */\n      tag_342\n      swap2\n      swap1\n      tag_343\n      jump\t// in\n    tag_342:\n        /* \"WandInstruments.sol\":8334:8439  usdAmtToPay = decMul18(amountSCPtoBuy, this.getBuyPrice()) * stableERC20Info[_stableChosen].tokenDecimals */\n      swap1\n      pop\n        /* \"WandInstruments.sol\":8495:8565  _safeTransferFrom(tokenStable, msg.sender, address(this), usdAmtToPay) */\n      tag_344\n        /* \"WandInstruments.sol\":8513:8524  tokenStable */\n      0x16\n      0x00\n      swap1\n      sload\n      swap1\n      0x0100\n      exp\n      swap1\n      div\n      0xffffffffffffffffffffffffffffffffffffffff\n      and\n        /* \"WandInstruments.sol\":8526:8536  msg.sender */\n      caller\n        /* \"WandInstruments.sol\":8546:8550  this */\n      address\n        /* \"WandInstruments.sol\":8553:8564  usdAmtToPay */\n      dup5\n        /* \"WandInstruments.sol\":8495:8512  _safeTransferFrom */\n      tag_281\n        /* \"WandInstruments.sol\":8495:8565  _safeTransferFrom(tokenStable, msg.sender, address(this), usdAmtToPay) */\n      jump\t// in\n    tag_344:\n        /* \"WandInstruments.sol\":8584:8588  SPTR */\n      0x13\n      0x00\n      swap1\n      sload\n      swap1\n      0x0100\n      exp\n      swap1\n      div\n      0xffffffffffffffffffffffffffffffffffffffff\n      and\n        /* \"WandInstruments.sol\":8584:8593  SPTR.mint */\n      0xffffffffffffffffffffffffffffffffffffffff\n      and\n      0x40c10f19\n        /* \"WandInstruments.sol\":8594:8604  msg.sender */\n      caller\n        /* \"WandInstruments.sol\":362:368  10**18 */\n      0x0de0b6b3a7640000\n        /* \"WandInstruments.sol\":8605:8619  amountSCPtoBuy */\n      dup8\n        /* \"WandInstruments.sol\":8605:8630  amountSCPtoBuy * DECIMALS */\n      tag_345\n      swap2\n      swap1\n      tag_343\n      jump\t// in\n    tag_345:\n        /* \"WandInstruments.sol\":8584:8631  SPTR.mint(msg.sender,amountSCPtoBuy * DECIMALS) */\n      mload(0x40)\n      dup4\n      0xffffffff\n      and\n      0xe0\n      shl\n      dup2\n      mstore\n      0x04\n      add\n      tag_346\n      swap3\n      swap2\n      swap1\n      tag_165\n      jump\t// in\n    tag_346:\n      0x00\n      mload(0x40)\n      dup1\n      dup4\n      sub\n      dup2\n      0x00\n      dup8\n      dup1\n      extcodesize\n      iszero\n      dup1\n      iszero\n      tag_347\n      jumpi\n      0x00\n      dup1\n      revert\n    tag_347:\n      pop\n      gas\n      call\n      iszero\n      dup1\n      iszero\n      tag_349\n      jumpi\n      returndatasize\n      0x00\n      dup1\n      returndatacopy\n      revert(0x00, returndatasize)\n    tag_349:\n      pop\n      pop\n      pop\n      pop\n        /* \"WandInstruments.sol\":8642:8646  WAND */\n      0x14\n      0x00\n      swap1\n      sload\n      swap1\n      0x0100\n      exp\n      swap1\n      div\n      0xffffffffffffffffffffffffffffffffffffffff\n      and\n        /* \"WandInstruments.sol\":8642:8651  WAND.mint */\n      0xffffffffffffffffffffffffffffffffffffffff\n      and\n      0x40c10f19\n        /* \"WandInstruments.sol\":8660:8664  this */\n      address\n        /* \"WandInstruments.sol\":362:368  10**18 */\n      0x0de0b6b3a7640000\n        /* \"WandInstruments.sol\":8666:8680  amountSCPtoBuy */\n      dup8\n        /* \"WandInstruments.sol\":8666:8691  amountSCPtoBuy * DECIMALS */\n      tag_350\n      swap2\n      swap1\n      tag_343\n      jump\t// in\n    tag_350:\n        /* \"WandInstruments.sol\":8642:8692  WAND.mint(address(this),amountSCPtoBuy * DECIMALS) */\n      mload(0x40)\n      dup4\n      0xffffffff\n      and\n      0xe0\n      shl\n      dup2\n      mstore\n      0x04\n      add\n      tag_351\n      swap3\n      swap2\n      swap1\n      tag_165\n      jump\t// in\n    tag_351:\n      0x00\n      mload(0x40)\n      dup1\n      dup4\n      sub\n      dup2\n      0x00\n      dup8\n      dup1\n      extcodesize\n      iszero\n      dup1\n      iszero\n      tag_352\n      jumpi\n      0x00\n      dup1\n      revert\n    tag_352:\n      pop\n      gas\n      call\n      iszero\n      dup1\n      iszero\n      tag_354\n      jumpi\n      returndatasize\n      0x00\n      dup1\n      returndatacopy\n      revert(0x00, returndatasize)\n    tag_354:\n      pop\n      pop\n      pop\n      pop\n        /* \"WandInstruments.sol\":8781:8797  uint256 dInArray */\n      0x00\n        /* \"WandInstruments.sol\":8831:8836  86400 */\n      0x015180\n        /* \"WandInstruments.sol\":8817:8829  timeLaunched */\n      sload(0x0c)\n        /* \"WandInstruments.sol\":8800:8815  block.timestamp */\n      timestamp\n        /* \"WandInstruments.sol\":8800:8829  block.timestamp- timeLaunched */\n      tag_355\n      swap2\n      swap1\n      tag_237\n      jump\t// in\n    tag_355:\n        /* \"WandInstruments.sol\":8799:8836  (block.timestamp- timeLaunched)/86400 */\n      tag_356\n      swap2\n      swap1\n      tag_235\n      jump\t// in\n    tag_356:\n        /* \"WandInstruments.sol\":8781:8836  uint256 dInArray =(block.timestamp- timeLaunched)/86400 */\n      swap1\n      pop\n        /* \"WandInstruments.sol\":8879:8893  amountSCPtoBuy */\n      dup5\n        /* \"WandInstruments.sol\":8848:8865  tokensBoughtXDays */\n      0x17\n        /* \"WandInstruments.sol\":8848:8875  tokensBoughtXDays[dInArray] */\n      0x00\n        /* \"WandInstruments.sol\":8866:8874  dInArray */\n      dup4\n        /* \"WandInstruments.sol\":8848:8875  tokensBoughtXDays[dInArray] */\n      dup2\n      mstore\n      0x20\n      add\n      swap1\n      dup2\n      mstore\n      0x20\n      add\n      0x00\n      keccak256\n      0x00\n        /* \"WandInstruments.sol\":8848:8893  tokensBoughtXDays[dInArray] += amountSCPtoBuy */\n      dup3\n      dup3\n      sload\n      tag_357\n      swap2\n      swap1\n      tag_231\n      jump\t// in\n    tag_357:\n      swap3\n      pop\n      pop\n      dup2\n      swap1\n      sstore\n      pop\n        /* \"WandInstruments.sol\":8940:8954  amountSCPtoBuy */\n      dup5\n        /* \"WandInstruments.sol\":8904:8926  circulatingSupplyXDays */\n      0x19\n        /* \"WandInstruments.sol\":8904:8936  circulatingSupplyXDays[dInArray] */\n      0x00\n        /* \"WandInstruments.sol\":8927:8935  dInArray */\n      dup4\n        /* \"WandInstruments.sol\":8904:8936  circulatingSupplyXDays[dInArray] */\n      dup2\n      mstore\n      0x20\n      add\n      swap1\n      dup2\n      mstore\n      0x20\n      add\n      0x00\n      keccak256\n      0x00\n        /* \"WandInstruments.sol\":8904:8954  circulatingSupplyXDays[dInArray] += amountSCPtoBuy */\n      dup3\n      dup3\n      sload\n      tag_358\n      swap2\n      swap1\n      tag_231\n      jump\t// in\n    tag_358:\n      swap3\n      pop\n      pop\n      dup2\n      swap1\n      sstore\n      pop\n        /* \"WandInstruments.sol\":8987:8997  msg.sender */\n      caller\n        /* \"WandInstruments.sol\":8972:9014  sceptersBought(msg.sender, amountSCPtoBuy) */\n      0xffffffffffffffffffffffffffffffffffffffff\n      and\n      0xf633443b01504d269657083d48bb6de98e089cfff672b47fefbed21608b5c779\n        /* \"WandInstruments.sol\":8999:9013  amountSCPtoBuy */\n      dup7\n        /* \"WandInstruments.sol\":8972:9014  sceptersBought(msg.sender, amountSCPtoBuy) */\n      mload(0x40)\n      tag_359\n      swap2\n      swap1\n      tag_52\n      jump\t// in\n    tag_359:\n      mload(0x40)\n      dup1\n      swap2\n      sub\n      swap1\n      log2\n        /* \"WandInstruments.sol\":7867:9022  {\r... */\n      pop\n      pop\n      pop\n        /* \"ReentrancyGuard.sol\":1734:1735  1 */\n      0x01\n        /* \"ReentrancyGuard.sol\":2688:2695  _status */\n      0x00\n        /* \"ReentrancyGuard.sol\":2688:2710  _status = _NOT_ENTERED */\n      dup2\n      swap1\n      sstore\n      pop\n        /* \"WandInstruments.sol\":7775:9022  function buyScepter(uint256 amountSCPtoBuy, string memory _stableChosen) public nonReentrant{\r... */\n      pop\n      pop\n      jump\t// out\n        /* \"WandInstruments.sol\":9570:10473  function getGrowthFactor() external view returns (uint256){\r... */\n    tag_153:\n        /* \"WandInstruments.sol\":9620:9627  uint256 */\n      0x00\n        /* \"WandInstruments.sol\":9772:9783  uint256 _gF */\n      dup1\n        /* \"WandInstruments.sol\":9794:9817  uint256 xDaysCircSupply */\n      0x00\n        /* \"WandInstruments.sol\":9828:9843  uint256 numdays */\n      dup1\n        /* \"WandInstruments.sol\":9864:9869  86400 */\n      0x015180\n        /* \"WandInstruments.sol\":9846:9863  daysInCalculation */\n      sload(0x0d)\n        /* \"WandInstruments.sol\":9846:9869  daysInCalculation/86400 */\n      tag_361\n      swap2\n      swap1\n      tag_235\n      jump\t// in\n    tag_361:\n        /* \"WandInstruments.sol\":9828:9869  uint256 numdays = daysInCalculation/86400 */\n      swap1\n      pop\n        /* \"WandInstruments.sol\":9880:9904  uint256 daySinceLaunched */\n      0x00\n        /* \"WandInstruments.sol\":9942:9947  86400 */\n      0x015180\n        /* \"WandInstruments.sol\":9926:9938  timeLaunched */\n      sload(0x0c)\n        /* \"WandInstruments.sol\":9908:9923  block.timestamp */\n      timestamp\n        /* \"WandInstruments.sol\":9908:9938  block.timestamp - timeLaunched */\n      tag_362\n      swap2\n      swap1\n      tag_237\n      jump\t// in\n    tag_362:\n        /* \"WandInstruments.sol\":9907:9947  (block.timestamp - timeLaunched) / 86400 */\n      tag_363\n      swap2\n      swap1\n      tag_235\n      jump\t// in\n    tag_363:\n        /* \"WandInstruments.sol\":9880:9947  uint256 daySinceLaunched = (block.timestamp - timeLaunched) / 86400 */\n      swap1\n      pop\n        /* \"WandInstruments.sol\":9958:9967  uint256 d */\n      0x00\n        /* \"WandInstruments.sol\":10012:10013  0 */\n      dup1\n        /* \"WandInstruments.sol\":9992:10008  daySinceLaunched */\n      dup3\n        /* \"WandInstruments.sol\":9992:10013  daySinceLaunched == 0 */\n      eq\n        /* \"WandInstruments.sol\":9988:10280  if (daySinceLaunched == 0) {\r... */\n      iszero\n      tag_364\n      jumpi\n        /* \"WandInstruments.sol\":10044:10066  circulatingSupplyXDays */\n      0x19\n        /* \"WandInstruments.sol\":10044:10069  circulatingSupplyXDays[0] */\n      0x00\n        /* \"WandInstruments.sol\":10067:10068  0 */\n      dup1\n        /* \"WandInstruments.sol\":10044:10069  circulatingSupplyXDays[0] */\n      dup2\n      mstore\n      0x20\n      add\n      swap1\n      dup2\n      mstore\n      0x20\n      add\n      0x00\n      keccak256\n      sload\n        /* \"WandInstruments.sol\":10026:10069  xDaysCircSupply = circulatingSupplyXDays[0] */\n      swap4\n      pop\n        /* \"WandInstruments.sol\":9988:10280  if (daySinceLaunched == 0) {\r... */\n      jump(tag_365)\n    tag_364:\n        /* \"WandInstruments.sol\":10138:10145  numdays */\n      dup3\n        /* \"WandInstruments.sol\":10119:10135  daySinceLaunched */\n      dup3\n        /* \"WandInstruments.sol\":10119:10145  daySinceLaunched - numdays */\n      tag_369\n      swap2\n      swap1\n      tag_237\n      jump\t// in\n    tag_369:\n        /* \"WandInstruments.sol\":10115:10145  d = daySinceLaunched - numdays */\n      swap1\n      pop\n        /* \"WandInstruments.sol\":10110:10269  for (d = daySinceLaunched - numdays; d < daySinceLaunched; d++) {  //for loop example\r... */\n    tag_366:\n        /* \"WandInstruments.sol\":10151:10167  daySinceLaunched */\n      dup2\n        /* \"WandInstruments.sol\":10147:10148  d */\n      dup2\n        /* \"WandInstruments.sol\":10147:10167  d < daySinceLaunched */\n      lt\n        /* \"WandInstruments.sol\":10110:10269  for (d = daySinceLaunched - numdays; d < daySinceLaunched; d++) {  //for loop example\r... */\n      iszero\n      tag_367\n      jumpi\n        /* \"WandInstruments.sol\":10228:10250  circulatingSupplyXDays */\n      0x19\n        /* \"WandInstruments.sol\":10228:10253  circulatingSupplyXDays[d] */\n      0x00\n        /* \"WandInstruments.sol\":10251:10252  d */\n      dup3\n        /* \"WandInstruments.sol\":10228:10253  circulatingSupplyXDays[d] */\n      dup2\n      mstore\n      0x20\n      add\n      swap1\n      dup2\n      mstore\n      0x20\n      add\n      0x00\n      keccak256\n      sload\n        /* \"WandInstruments.sol\":10209:10253  xDaysCircSupply += circulatingSupplyXDays[d] */\n      dup5\n      tag_370\n      swap2\n      swap1\n      tag_231\n      jump\t// in\n    tag_370:\n      swap4\n      pop\n        /* \"WandInstruments.sol\":10169:10172  d++ */\n      dup1\n      dup1\n      tag_371\n      swap1\n      tag_247\n      jump\t// in\n    tag_371:\n      swap2\n      pop\n      pop\n        /* \"WandInstruments.sol\":10110:10269  for (d = daySinceLaunched - numdays; d < daySinceLaunched; d++) {  //for loop example\r... */\n      jump(tag_366)\n    tag_367:\n        /* \"WandInstruments.sol\":9988:10280  if (daySinceLaunched == 0) {\r... */\n    tag_365:\n        /* \"WandInstruments.sol\":10295:10348  decDiv18(this.getTokensBoughtXDays(),xDaysCircSupply) */\n      tag_372\n        /* \"WandInstruments.sol\":10304:10308  this */\n      address\n        /* \"WandInstruments.sol\":10304:10329  this.getTokensBoughtXDays */\n      0xffffffffffffffffffffffffffffffffffffffff\n      and\n      0x71cd58f9\n        /* \"WandInstruments.sol\":10304:10331  this.getTokensBoughtXDays() */\n      mload(0x40)\n      dup2\n      0xffffffff\n      and\n      0xe0\n      shl\n      dup2\n      mstore\n      0x04\n      add\n      0x20\n      mload(0x40)\n      dup1\n      dup4\n      sub\n      dup2\n      dup7\n      dup1\n      extcodesize\n      iszero\n      dup1\n      iszero\n      tag_373\n      jumpi\n      0x00\n      dup1\n      revert\n    tag_373:\n      pop\n      gas\n      staticcall\n      iszero\n      dup1\n      iszero\n      tag_375\n      jumpi\n      returndatasize\n      0x00\n      dup1\n      returndatacopy\n      revert(0x00, returndatasize)\n    tag_375:\n      pop\n      pop\n      pop\n      pop\n      mload(0x40)\n      returndatasize\n      not(0x1f)\n      0x1f\n      dup3\n      add\n      and\n      dup3\n      add\n      dup1\n      0x40\n      mstore\n      pop\n      dup2\n      add\n      swap1\n      tag_376\n      swap2\n      swap1\n      tag_225\n      jump\t// in\n    tag_376:\n        /* \"WandInstruments.sol\":10332:10347  xDaysCircSupply */\n      dup6\n        /* \"WandInstruments.sol\":10295:10303  decDiv18 */\n      tag_253\n        /* \"WandInstruments.sol\":10295:10348  decDiv18(this.getTokensBoughtXDays(),xDaysCircSupply) */\n      jump\t// in\n    tag_372:\n        /* \"WandInstruments.sol\":10289:10348  _gF = decDiv18(this.getTokensBoughtXDays(),xDaysCircSupply) */\n      swap5\n      pop\n        /* \"WandInstruments.sol\":10368:10386  300000000000000000 */\n      0x0429d069189e0000\n        /* \"WandInstruments.sol\":10362:10365  _gF */\n      dup6\n        /* \"WandInstruments.sol\":10362:10386  _gF > 300000000000000000 */\n      gt\n        /* \"WandInstruments.sol\":10358:10445  if (_gF > 300000000000000000)\r... */\n      iszero\n      tag_377\n      jumpi\n        /* \"WandInstruments.sol\":10416:10434  300000000000000000 */\n      0x0429d069189e0000\n        /* \"WandInstruments.sol\":10410:10434  _gF = 300000000000000000 */\n      swap5\n      pop\n        /* \"WandInstruments.sol\":10358:10445  if (_gF > 300000000000000000)\r... */\n    tag_377:\n        /* \"WandInstruments.sol\":10461:10464  _gF */\n      dup5\n        /* \"WandInstruments.sol\":10454:10464  return _gF */\n      swap6\n      pop\n      pop\n      pop\n      pop\n      pop\n      pop\n        /* \"WandInstruments.sol\":9570:10473  function getGrowthFactor() external view returns (uint256){\r... */\n      swap1\n      jump\t// out\n        /* \"WandInstruments.sol\":15029:15118  function whitelist(address _addr) public onlyOwner {  \r... */\n    tag_158:\n      pop\n      jump\t// out\n        /* \"WandInstruments.sol\":1883:1944  mapping (string => stableTokensParams) public stableERC20Info */\n    tag_163:\n      0x1a\n      dup2\n      dup1\n      mload\n      0x20\n      dup2\n      add\n      dup3\n      add\n      dup1\n      mload\n      dup5\n      dup3\n      mstore\n      0x20\n      dup4\n      add\n      0x20\n      dup6\n      add\n      keccak256\n      dup2\n      dup4\n      mstore\n      dup1\n      swap6\n      pop\n      pop\n      pop\n      pop\n      pop\n      pop\n      0x00\n      swap2\n      pop\n      swap1\n      pop\n      dup1\n      0x00\n      add\n      0x00\n      swap1\n      sload\n      swap1\n      0x0100\n      exp\n      swap1\n      div\n      0xffffffffffffffffffffffffffffffffffffffff\n      and\n      swap1\n      dup1\n      0x01\n      add\n      sload\n      swap1\n      pop\n      dup3\n      jump\t// out\n        /* \"WandInstruments.sol\":12153:12368  function updateSPTRTreasuryBal() external {\r... */\n    tag_168:\n        /* \"WandInstruments.sol\":12227:12242  stableERC20Info */\n      0x1a\n        /* \"WandInstruments.sol\":12227:12250  stableERC20Info[\"USDC\"] */\n      mload(0x40)\n      tag_381\n      swap1\n      tag_382\n      jump\t// in\n    tag_381:\n      swap1\n      dup2\n      mstore\n      0x20\n      add\n      mload(0x40)\n      dup1\n      swap2\n      sub\n      swap1\n      keccak256\n        /* \"WandInstruments.sol\":12227:12266  stableERC20Info[\"USDC\"].contractAddress */\n      0x00\n      add\n      0x00\n      swap1\n      sload\n      swap1\n      0x0100\n      exp\n      swap1\n      div\n      0xffffffffffffffffffffffffffffffffffffffff\n      and\n        /* \"WandInstruments.sol\":12206:12217  tokenStable */\n      0x16\n      0x00\n        /* \"WandInstruments.sol\":12206:12267  tokenStable = IERC20(stableERC20Info[\"USDC\"].contractAddress) */\n      0x0100\n      exp\n      dup2\n      sload\n      dup2\n      0xffffffffffffffffffffffffffffffffffffffff\n      mul\n      not\n      and\n      swap1\n      dup4\n      0xffffffffffffffffffffffffffffffffffffffff\n      and\n      mul\n      or\n      swap1\n      sstore\n      pop\n        /* \"WandInstruments.sol\":12293:12304  tokenStable */\n      0x16\n      0x00\n      swap1\n      sload\n      swap1\n      0x0100\n      exp\n      swap1\n      div\n      0xffffffffffffffffffffffffffffffffffffffff\n      and\n        /* \"WandInstruments.sol\":12293:12314  tokenStable.balanceOf */\n      0xffffffffffffffffffffffffffffffffffffffff\n      and\n      0x70a08231\n        /* \"WandInstruments.sol\":12315:12357  0x4B20993Bc481177ec7E8f571ceCaE8A9e22C02db */\n      0x4b20993bc481177ec7e8f571cecae8a9e22c02db\n        /* \"WandInstruments.sol\":12293:12358  tokenStable.balanceOf(0x4B20993Bc481177ec7E8f571ceCaE8A9e22C02db) */\n      mload(0x40)\n      dup3\n      0xffffffff\n      and\n      0xe0\n      shl\n      dup2\n      mstore\n      0x04\n      add\n      tag_383\n      swap2\n      swap1\n      tag_57\n      jump\t// in\n    tag_383:\n      0x20\n      mload(0x40)\n      dup1\n      dup4\n      sub\n      dup2\n      dup7\n      dup1\n      extcodesize\n      iszero\n      dup1\n      iszero\n      tag_384\n      jumpi\n      0x00\n      dup1\n      revert\n    tag_384:\n      pop\n      gas\n      staticcall\n      iszero\n      dup1\n      iszero\n      tag_386\n      jumpi\n      returndatasize\n      0x00\n      dup1\n      returndatacopy\n      revert(0x00, returndatasize)\n    tag_386:\n      pop\n      pop\n      pop\n      pop\n      mload(0x40)\n      returndatasize\n      not(0x1f)\n      0x1f\n      dup3\n      add\n      and\n      dup3\n      add\n      dup1\n      0x40\n      mstore\n      pop\n      dup2\n      add\n      swap1\n      tag_387\n      swap2\n      swap1\n      tag_225\n      jump\t// in\n    tag_387:\n        /* \"WandInstruments.sol\":12278:12290  treasury1bal */\n      0x0b\n        /* \"WandInstruments.sol\":12278:12358  treasury1bal = tokenStable.balanceOf(0x4B20993Bc481177ec7E8f571ceCaE8A9e22C02db) */\n      dup2\n      swap1\n      sstore\n      pop\n        /* \"WandInstruments.sol\":12153:12368  function updateSPTRTreasuryBal() external {\r... */\n      jump\t// out\n        /* \"WandInstruments.sol\":9030:9537  function claimLockedUSDC(address _claimant, string memory _stableChosen) public {\r... */\n    tag_173:\n        /* \"WandInstruments.sol\":9149:9168  withheldWithdrawals */\n      0x1b\n        /* \"WandInstruments.sol\":9149:9179  withheldWithdrawals[_claimant] */\n      0x00\n        /* \"WandInstruments.sol\":9169:9178  _claimant */\n      dup4\n        /* \"WandInstruments.sol\":9149:9179  withheldWithdrawals[_claimant] */\n      0xffffffffffffffffffffffffffffffffffffffff\n      and\n      0xffffffffffffffffffffffffffffffffffffffff\n      and\n      dup2\n      mstore\n      0x20\n      add\n      swap1\n      dup2\n      mstore\n      0x20\n      add\n      0x00\n      keccak256\n        /* \"WandInstruments.sol\":9149:9192  withheldWithdrawals[_claimant].timeUnlocked */\n      0x00\n      add\n      sload\n        /* \"WandInstruments.sol\":9130:9145  block.timestamp */\n      timestamp\n        /* \"WandInstruments.sol\":9130:9192  block.timestamp >= withheldWithdrawals[_claimant].timeUnlocked */\n      lt\n      iszero\n        /* \"WandInstruments.sol\":9121:9209  require (block.timestamp >= withheldWithdrawals[_claimant].timeUnlocked, \"Not unlocked\") */\n      tag_389\n      jumpi\n      mload(0x40)\n      0x08c379a000000000000000000000000000000000000000000000000000000000\n      dup2\n      mstore\n      0x04\n      add\n      tag_390\n      swap1\n      tag_391\n      jump\t// in\n    tag_390:\n      mload(0x40)\n      dup1\n      swap2\n      sub\n      swap1\n      revert\n    tag_389:\n        /* \"WandInstruments.sol\":9241:9256  stableERC20Info */\n      0x1a\n        /* \"WandInstruments.sol\":9257:9270  _stableChosen */\n      dup2\n        /* \"WandInstruments.sol\":9241:9271  stableERC20Info[_stableChosen] */\n      mload(0x40)\n      tag_392\n      swap2\n      swap1\n      tag_325\n      jump\t// in\n    tag_392:\n      swap1\n      dup2\n      mstore\n      0x20\n      add\n      mload(0x40)\n      dup1\n      swap2\n      sub\n      swap1\n      keccak256\n        /* \"WandInstruments.sol\":9241:9287  stableERC20Info[_stableChosen].contractAddress */\n      0x00\n      add\n      0x00\n      swap1\n      sload\n      swap1\n      0x0100\n      exp\n      swap1\n      div\n      0xffffffffffffffffffffffffffffffffffffffff\n      and\n        /* \"WandInstruments.sol\":9220:9231  tokenStable */\n      0x16\n      0x00\n        /* \"WandInstruments.sol\":9220:9288  tokenStable = IERC20(stableERC20Info[_stableChosen].contractAddress) */\n      0x0100\n      exp\n      dup2\n      sload\n      dup2\n      0xffffffffffffffffffffffffffffffffffffffff\n      mul\n      not\n      and\n      swap1\n      dup4\n      0xffffffffffffffffffffffffffffffffffffffff\n      and\n      mul\n      or\n      swap1\n      sstore\n      pop\n        /* \"WandInstruments.sol\":9370:9387  uint256 claimAmts */\n      0x00\n        /* \"WandInstruments.sol\":9410:9429  withheldWithdrawals */\n      0x1b\n        /* \"WandInstruments.sol\":9410:9440  withheldWithdrawals[_claimant] */\n      0x00\n        /* \"WandInstruments.sol\":9430:9439  _claimant */\n      dup5\n        /* \"WandInstruments.sol\":9410:9440  withheldWithdrawals[_claimant] */\n      0xffffffffffffffffffffffffffffffffffffffff\n      and\n      0xffffffffffffffffffffffffffffffffffffffff\n      and\n      dup2\n      mstore\n      0x20\n      add\n      swap1\n      dup2\n      mstore\n      0x20\n      add\n      0x00\n      keccak256\n        /* \"WandInstruments.sol\":9410:9448  withheldWithdrawals[_claimant].amounts */\n      0x01\n      add\n      sload\n        /* \"WandInstruments.sol\":9398:9448  claimAmts = withheldWithdrawals[_claimant].amounts */\n      swap1\n      pop\n        /* \"WandInstruments.sol\":9459:9527  _safeTransferFrom(tokenStable, address(this), msg.sender, claimAmts) */\n      tag_393\n        /* \"WandInstruments.sol\":9477:9488  tokenStable */\n      0x16\n      0x00\n      swap1\n      sload\n      swap1\n      0x0100\n      exp\n      swap1\n      div\n      0xffffffffffffffffffffffffffffffffffffffff\n      and\n        /* \"WandInstruments.sol\":9498:9502  this */\n      address\n        /* \"WandInstruments.sol\":9505:9515  msg.sender */\n      caller\n        /* \"WandInstruments.sol\":9517:9526  claimAmts */\n      dup5\n        /* \"WandInstruments.sol\":9459:9476  _safeTransferFrom */\n      tag_281\n        /* \"WandInstruments.sol\":9459:9527  _safeTransferFrom(tokenStable, address(this), msg.sender, claimAmts) */\n      jump\t// in\n    tag_393:\n        /* \"WandInstruments.sol\":9110:9537  {\r... */\n      pop\n        /* \"WandInstruments.sol\":9030:9537  function claimLockedUSDC(address _claimant, string memory _stableChosen) public {\r... */\n      pop\n      pop\n      jump\t// out\n        /* \"WandInstruments.sol\":660:694  address public scepterTreasuryAddr */\n    tag_176:\n      0x08\n      0x00\n      swap1\n      sload\n      swap1\n      0x0100\n      exp\n      swap1\n      div\n      0xffffffffffffffffffffffffffffffffffffffff\n      and\n      dup2\n      jump\t// out\n        /* \"WandInstruments.sol\":1469:1487  IERC20 public BTON */\n    tag_180:\n      0x15\n      0x00\n      swap1\n      sload\n      swap1\n      0x0100\n      exp\n      swap1\n      div\n      0xffffffffffffffffffffffffffffffffffffffff\n      and\n      dup2\n      jump\t// out\n        /* \"WandInstruments.sol\":5279:7005  function cashOutScepter(uint256 amountSCPtoSell, uint256 timeChosenLocked, string memory _stableChosen) public payable{\r... */\n    tag_185:\n        /* \"WandInstruments.sol\":5490:5505  stableERC20Info */\n      0x1a\n        /* \"WandInstruments.sol\":5506:5519  _stableChosen */\n      dup2\n        /* \"WandInstruments.sol\":5490:5520  stableERC20Info[_stableChosen] */\n      mload(0x40)\n      tag_395\n      swap2\n      swap1\n      tag_325\n      jump\t// in\n    tag_395:\n      swap1\n      dup2\n      mstore\n      0x20\n      add\n      mload(0x40)\n      dup1\n      swap2\n      sub\n      swap1\n      keccak256\n        /* \"WandInstruments.sol\":5490:5536  stableERC20Info[_stableChosen].contractAddress */\n      0x00\n      add\n      0x00\n      swap1\n      sload\n      swap1\n      0x0100\n      exp\n      swap1\n      div\n      0xffffffffffffffffffffffffffffffffffffffff\n      and\n        /* \"WandInstruments.sol\":5469:5480  tokenStable */\n      0x16\n      0x00\n        /* \"WandInstruments.sol\":5469:5537  tokenStable = IERC20(stableERC20Info[_stableChosen].contractAddress) */\n      0x0100\n      exp\n      dup2\n      sload\n      dup2\n      0xffffffffffffffffffffffffffffffffffffffff\n      mul\n      not\n      and\n      swap1\n      dup4\n      0xffffffffffffffffffffffffffffffffffffffff\n      and\n      mul\n      or\n      swap1\n      sstore\n      pop\n        /* \"WandInstruments.sol\":5548:5574  uint256 trader_tsc_balance */\n      0x00\n        /* \"WandInstruments.sol\":5577:5581  SPTR */\n      0x13\n      0x00\n      swap1\n      sload\n      swap1\n      0x0100\n      exp\n      swap1\n      div\n      0xffffffffffffffffffffffffffffffffffffffff\n      and\n        /* \"WandInstruments.sol\":5577:5591  SPTR.balanceOf */\n      0xffffffffffffffffffffffffffffffffffffffff\n      and\n      0x70a08231\n        /* \"WandInstruments.sol\":5592:5602  msg.sender */\n      caller\n        /* \"WandInstruments.sol\":5577:5603  SPTR.balanceOf(msg.sender) */\n      mload(0x40)\n      dup3\n      0xffffffff\n      and\n      0xe0\n      shl\n      dup2\n      mstore\n      0x04\n      add\n      tag_396\n      swap2\n      swap1\n      tag_57\n      jump\t// in\n    tag_396:\n      0x20\n      mload(0x40)\n      dup1\n      dup4\n      sub\n      dup2\n      dup7\n      dup1\n      extcodesize\n      iszero\n      dup1\n      iszero\n      tag_397\n      jumpi\n      0x00\n      dup1\n      revert\n    tag_397:\n      pop\n      gas\n      staticcall\n      iszero\n      dup1\n      iszero\n      tag_399\n      jumpi\n      returndatasize\n      0x00\n      dup1\n      returndatacopy\n      revert(0x00, returndatasize)\n    tag_399:\n      pop\n      pop\n      pop\n      pop\n      mload(0x40)\n      returndatasize\n      not(0x1f)\n      0x1f\n      dup3\n      add\n      and\n      dup3\n      add\n      dup1\n      0x40\n      mstore\n      pop\n      dup2\n      add\n      swap1\n      tag_400\n      swap2\n      swap1\n      tag_225\n      jump\t// in\n    tag_400:\n        /* \"WandInstruments.sol\":5548:5603  uint256 trader_tsc_balance = SPTR.balanceOf(msg.sender) */\n      swap1\n      pop\n        /* \"WandInstruments.sol\":5643:5658  amountSCPtoSell */\n      dup4\n        /* \"WandInstruments.sol\":5622:5640  trader_tsc_balance */\n      dup2\n        /* \"WandInstruments.sol\":5622:5658  trader_tsc_balance > amountSCPtoSell */\n      gt\n        /* \"WandInstruments.sol\":5614:5689  require(trader_tsc_balance > amountSCPtoSell, \"You dont have that amount!\") */\n      tag_401\n      jumpi\n      mload(0x40)\n      0x08c379a000000000000000000000000000000000000000000000000000000000\n      dup2\n      mstore\n      0x04\n      add\n      tag_402\n      swap1\n      tag_279\n      jump\t// in\n    tag_402:\n      mload(0x40)\n      dup1\n      swap2\n      sub\n      swap1\n      revert\n    tag_401:\n        /* \"WandInstruments.sol\":5891:5902  tokenStable */\n      0x16\n      0x00\n      swap1\n      sload\n      swap1\n      0x0100\n      exp\n      swap1\n      div\n      0xffffffffffffffffffffffffffffffffffffffff\n      and\n        /* \"WandInstruments.sol\":5891:5911  tokenStable.transfer */\n      0xffffffffffffffffffffffffffffffffffffffff\n      and\n      0xa9059cbb\n        /* \"WandInstruments.sol\":5912:5922  msg.sender */\n      caller\n        /* \"WandInstruments.sol\":362:368  10**18 */\n      0x0de0b6b3a7640000\n        /* \"WandInstruments.sol\":5943:5944  1 */\n      0x01\n        /* \"WandInstruments.sol\":5943:5955  1*(DECIMALS) */\n      tag_403\n      swap2\n      swap1\n      tag_343\n      jump\t// in\n    tag_403:\n        /* \"WandInstruments.sol\":5924:5939  amountSCPtoSell */\n      dup8\n        /* \"WandInstruments.sol\":5924:5956  amountSCPtoSell + (1*(DECIMALS)) */\n      tag_404\n      swap2\n      swap1\n      tag_231\n      jump\t// in\n    tag_404:\n        /* \"WandInstruments.sol\":5891:5957  tokenStable.transfer(msg.sender, amountSCPtoSell + (1*(DECIMALS))) */\n      mload(0x40)\n      dup4\n      0xffffffff\n      and\n      0xe0\n      shl\n      dup2\n      mstore\n      0x04\n      add\n      tag_405\n      swap3\n      swap2\n      swap1\n      tag_165\n      jump\t// in\n    tag_405:\n      0x20\n      mload(0x40)\n      dup1\n      dup4\n      sub\n      dup2\n      0x00\n      dup8\n      dup1\n      extcodesize\n      iszero\n      dup1\n      iszero\n      tag_406\n      jumpi\n      0x00\n      dup1\n      revert\n    tag_406:\n      pop\n      gas\n      call\n      iszero\n      dup1\n      iszero\n      tag_408\n      jumpi\n      returndatasize\n      0x00\n      dup1\n      returndatacopy\n      revert(0x00, returndatasize)\n    tag_408:\n      pop\n      pop\n      pop\n      pop\n      mload(0x40)\n      returndatasize\n      not(0x1f)\n      0x1f\n      dup3\n      add\n      and\n      dup3\n      add\n      dup1\n      0x40\n      mstore\n      pop\n      dup2\n      add\n      swap1\n      tag_409\n      swap2\n      swap1\n      tag_410\n      jump\t// in\n    tag_409:\n      pop\n        /* \"WandInstruments.sol\":6060:6127  _safeTransferFrom(SPTR, msg.sender, address(this), amountSCPtoSell) */\n      tag_411\n        /* \"WandInstruments.sol\":6078:6082  SPTR */\n      0x13\n      0x00\n      swap1\n      sload\n      swap1\n      0x0100\n      exp\n      swap1\n      div\n      0xffffffffffffffffffffffffffffffffffffffff\n      and\n        /* \"WandInstruments.sol\":6084:6094  msg.sender */\n      caller\n        /* \"WandInstruments.sol\":6104:6108  this */\n      address\n        /* \"WandInstruments.sol\":6111:6126  amountSCPtoSell */\n      dup8\n        /* \"WandInstruments.sol\":6060:6077  _safeTransferFrom */\n      tag_281\n        /* \"WandInstruments.sol\":6060:6127  _safeTransferFrom(SPTR, msg.sender, address(this), amountSCPtoSell) */\n      jump\t// in\n    tag_411:\n        /* \"WandInstruments.sol\":6141:6156  uint256 usdcAmt */\n      0x00\n        /* \"WandInstruments.sol\":6203:6218  amountSCPtoSell */\n      dup5\n        /* \"WandInstruments.sol\":6181:6185  this */\n      address\n        /* \"WandInstruments.sol\":6181:6198  this.getSellPrice */\n      0xffffffffffffffffffffffffffffffffffffffff\n      and\n      0x43d32e9c\n        /* \"WandInstruments.sol\":6181:6200  this.getSellPrice() */\n      mload(0x40)\n      dup2\n      0xffffffff\n      and\n      0xe0\n      shl\n      dup2\n      mstore\n      0x04\n      add\n      0x20\n      mload(0x40)\n      dup1\n      dup4\n      sub\n      dup2\n      dup7\n      dup1\n      extcodesize\n      iszero\n      dup1\n      iszero\n      tag_412\n      jumpi\n      0x00\n      dup1\n      revert\n    tag_412:\n      pop\n      gas\n      staticcall\n      iszero\n      dup1\n      iszero\n      tag_414\n      jumpi\n      returndatasize\n      0x00\n      dup1\n      returndatacopy\n      revert(0x00, returndatasize)\n    tag_414:\n      pop\n      pop\n      pop\n      pop\n      mload(0x40)\n      returndatasize\n      not(0x1f)\n      0x1f\n      dup3\n      add\n      and\n      dup3\n      add\n      dup1\n      0x40\n      mstore\n      pop\n      dup2\n      add\n      swap1\n      tag_415\n      swap2\n      swap1\n      tag_225\n      jump\t// in\n    tag_415:\n        /* \"WandInstruments.sol\":6181:6218  this.getSellPrice() * amountSCPtoSell */\n      tag_416\n      swap2\n      swap1\n      tag_343\n      jump\t// in\n    tag_416:\n        /* \"WandInstruments.sol\":6171:6218  usdcAmt = this.getSellPrice() * amountSCPtoSell */\n      swap1\n      pop\n        /* \"WandInstruments.sol\":6493:6509  uint256 dInArray */\n      0x00\n        /* \"WandInstruments.sol\":6543:6548  86400 */\n      0x015180\n        /* \"WandInstruments.sol\":6529:6541  timeLaunched */\n      sload(0x0c)\n        /* \"WandInstruments.sol\":6512:6527  block.timestamp */\n      timestamp\n        /* \"WandInstruments.sol\":6512:6541  block.timestamp- timeLaunched */\n      tag_417\n      swap2\n      swap1\n      tag_237\n      jump\t// in\n    tag_417:\n        /* \"WandInstruments.sol\":6511:6548  (block.timestamp- timeLaunched)/86400 */\n      tag_418\n      swap2\n      swap1\n      tag_235\n      jump\t// in\n    tag_418:\n        /* \"WandInstruments.sol\":6493:6548  uint256 dInArray =(block.timestamp- timeLaunched)/86400 */\n      swap1\n      pop\n        /* \"WandInstruments.sol\":6589:6604  amountSCPtoSell */\n      dup6\n        /* \"WandInstruments.sol\":6560:6575  tokensSoldXDays */\n      0x18\n        /* \"WandInstruments.sol\":6560:6585  tokensSoldXDays[dInArray] */\n      0x00\n        /* \"WandInstruments.sol\":6576:6584  dInArray */\n      dup4\n        /* \"WandInstruments.sol\":6560:6585  tokensSoldXDays[dInArray] */\n      dup2\n      mstore\n      0x20\n      add\n      swap1\n      dup2\n      mstore\n      0x20\n      add\n      0x00\n      keccak256\n      0x00\n        /* \"WandInstruments.sol\":6560:6604  tokensSoldXDays[dInArray] += amountSCPtoSell */\n      dup3\n      dup3\n      sload\n      tag_419\n      swap2\n      swap1\n      tag_231\n      jump\t// in\n    tag_419:\n      swap3\n      pop\n      pop\n      dup2\n      swap1\n      sstore\n      pop\n        /* \"WandInstruments.sol\":6651:6666  amountSCPtoSell */\n      dup6\n        /* \"WandInstruments.sol\":6615:6637  circulatingSupplyXDays */\n      0x19\n        /* \"WandInstruments.sol\":6615:6647  circulatingSupplyXDays[dInArray] */\n      0x00\n        /* \"WandInstruments.sol\":6638:6646  dInArray */\n      dup4\n        /* \"WandInstruments.sol\":6615:6647  circulatingSupplyXDays[dInArray] */\n      dup2\n      mstore\n      0x20\n      add\n      swap1\n      dup2\n      mstore\n      0x20\n      add\n      0x00\n      keccak256\n      0x00\n        /* \"WandInstruments.sol\":6615:6666  circulatingSupplyXDays[dInArray] -= amountSCPtoSell */\n      dup3\n      dup3\n      sload\n      tag_420\n      swap2\n      swap1\n      tag_237\n      jump\t// in\n    tag_420:\n      swap3\n      pop\n      pop\n      dup2\n      swap1\n      sstore\n      pop\n        /* \"WandInstruments.sol\":5397:7005  {\r... */\n      pop\n      pop\n      pop\n        /* \"WandInstruments.sol\":5279:7005  function cashOutScepter(uint256 amountSCPtoSell, uint256 timeChosenLocked, string memory _stableChosen) public payable{\r... */\n      pop\n      pop\n      pop\n      jump\t// out\n        /* \"WandInstruments.sol\":411:436  uint256 public sellFactor */\n    tag_188:\n      sload(0x02)\n      dup2\n      jump\t// out\n        /* \"WandInstruments.sol\":1444:1462  IERC20 public WAND */\n    tag_192:\n      0x14\n      0x00\n      swap1\n      sload\n      swap1\n      0x0100\n      exp\n      swap1\n      div\n      0xffffffffffffffffffffffffffffffffffffffff\n      and\n      dup2\n      jump\t// out\n        /* \"WandInstruments.sol\":14294:14580  function getTokensSoldXDays() external view returns (uint256){\r... */\n    tag_196:\n        /* \"WandInstruments.sol\":14347:14354  uint256 */\n      0x00\n        /* \"WandInstruments.sol\":14366:14381  uint256 soldNum */\n      dup1\n        /* \"WandInstruments.sol\":14392:14401  uint256 d */\n      0x00\n        /* \"WandInstruments.sol\":14412:14427  uint256 numdays */\n      dup1\n        /* \"WandInstruments.sol\":14448:14453  86400 */\n      0x015180\n        /* \"WandInstruments.sol\":14430:14447  daysInCalculation */\n      sload(0x0d)\n        /* \"WandInstruments.sol\":14430:14453  daysInCalculation/86400 */\n      tag_422\n      swap2\n      swap1\n      tag_235\n      jump\t// in\n    tag_422:\n        /* \"WandInstruments.sol\":14412:14453  uint256 numdays = daysInCalculation/86400 */\n      swap1\n      pop\n        /* \"WandInstruments.sol\":14475:14476  0 */\n      0x00\n        /* \"WandInstruments.sol\":14471:14476  d = 0 */\n      swap2\n      pop\n        /* \"WandInstruments.sol\":14466:14549  for (d = 0; d < numdays; d++) { \r... */\n    tag_423:\n        /* \"WandInstruments.sol\":14482:14489  numdays */\n      dup1\n        /* \"WandInstruments.sol\":14478:14479  d */\n      dup3\n        /* \"WandInstruments.sol\":14478:14489  d < numdays */\n      lt\n        /* \"WandInstruments.sol\":14466:14549  for (d = 0; d < numdays; d++) { \r... */\n      iszero\n      tag_424\n      jumpi\n        /* \"WandInstruments.sol\":14521:14536  tokensSoldXDays */\n      0x18\n        /* \"WandInstruments.sol\":14521:14539  tokensSoldXDays[d] */\n      0x00\n        /* \"WandInstruments.sol\":14537:14538  d */\n      dup4\n        /* \"WandInstruments.sol\":14521:14539  tokensSoldXDays[d] */\n      dup2\n      mstore\n      0x20\n      add\n      swap1\n      dup2\n      mstore\n      0x20\n      add\n      0x00\n      keccak256\n      sload\n        /* \"WandInstruments.sol\":14510:14539  soldNum += tokensSoldXDays[d] */\n      dup4\n      tag_426\n      swap2\n      swap1\n      tag_231\n      jump\t// in\n    tag_426:\n      swap3\n      pop\n        /* \"WandInstruments.sol\":14491:14494  d++ */\n      dup2\n      dup1\n      tag_427\n      swap1\n      tag_247\n      jump\t// in\n    tag_427:\n      swap3\n      pop\n      pop\n        /* \"WandInstruments.sol\":14466:14549  for (d = 0; d < numdays; d++) { \r... */\n      jump(tag_423)\n    tag_424:\n        /* \"WandInstruments.sol\":14565:14572  soldNum */\n      dup3\n        /* \"WandInstruments.sol\":14558:14572  return soldNum */\n      swap4\n      pop\n      pop\n      pop\n      pop\n        /* \"WandInstruments.sol\":14294:14580  function getTokensSoldXDays() external view returns (uint256){\r... */\n      swap1\n      jump\t// out\n        /* \"WandInstruments.sol\":15126:15345  function addStable(string memory _ticker, address _addr, uint256 _dec) public onlyOwner {\r... */\n    tag_202:\n        /* \"WandInstruments.sol\":15274:15279  _addr */\n      dup2\n        /* \"WandInstruments.sol\":15231:15246  stableERC20Info */\n      0x1a\n        /* \"WandInstruments.sol\":15247:15254  _ticker */\n      dup5\n        /* \"WandInstruments.sol\":15231:15255  stableERC20Info[_ticker] */\n      mload(0x40)\n      tag_430\n      swap2\n      swap1\n      tag_325\n      jump\t// in\n    tag_430:\n      swap1\n      dup2\n      mstore\n      0x20\n      add\n      mload(0x40)\n      dup1\n      swap2\n      sub\n      swap1\n      keccak256\n        /* \"WandInstruments.sol\":15231:15271  stableERC20Info[_ticker].contractAddress */\n      0x00\n      add\n      0x00\n        /* \"WandInstruments.sol\":15231:15279  stableERC20Info[_ticker].contractAddress = _addr */\n      0x0100\n      exp\n      dup2\n      sload\n      dup2\n      0xffffffffffffffffffffffffffffffffffffffff\n      mul\n      not\n      and\n      swap1\n      dup4\n      0xffffffffffffffffffffffffffffffffffffffff\n      and\n      mul\n      or\n      swap1\n      sstore\n      pop\n        /* \"WandInstruments.sol\":15331:15335  _dec */\n      dup1\n        /* \"WandInstruments.sol\":15290:15305  stableERC20Info */\n      0x1a\n        /* \"WandInstruments.sol\":15306:15313  _ticker */\n      dup5\n        /* \"WandInstruments.sol\":15290:15314  stableERC20Info[_ticker] */\n      mload(0x40)\n      tag_431\n      swap2\n      swap1\n      tag_325\n      jump\t// in\n    tag_431:\n      swap1\n      dup2\n      mstore\n      0x20\n      add\n      mload(0x40)\n      dup1\n      swap2\n      sub\n      swap1\n      keccak256\n        /* \"WandInstruments.sol\":15290:15328  stableERC20Info[_ticker].tokenDecimals */\n      0x01\n      add\n        /* \"WandInstruments.sol\":15290:15335  stableERC20Info[_ticker].tokenDecimals = _dec */\n      dup2\n      swap1\n      sstore\n      pop\n        /* \"WandInstruments.sol\":15126:15345  function addStable(string memory _ticker, address _addr, uint256 _dec) public onlyOwner {\r... */\n      pop\n      pop\n      pop\n      jump\t// out\n        /* \"WandInstruments.sol\":377:404  uint256 public growthFactor */\n    tag_205:\n      sload(0x01)\n      dup2\n      jump\t// out\n        /* \"WandInstruments.sol\":1173:1243  address public testwallet = 0x617F2E2fD72FD9D5503197092aC168c91465E7f2 */\n    tag_209:\n      0x12\n      0x00\n      swap1\n      sload\n      swap1\n      0x0100\n      exp\n      swap1\n      div\n      0xffffffffffffffffffffffffffffffffffffffff\n      and\n      dup2\n      jump\t// out\n        /* \"WandInstruments.sol\":625:653  address public treasury1Addr */\n    tag_213:\n      0x07\n      0x00\n      swap1\n      sload\n      swap1\n      0x0100\n      exp\n      swap1\n      div\n      0xffffffffffffffffffffffffffffffffffffffff\n      and\n      dup2\n      jump\t// out\n        /* \"WandInstruments.sol\":12408:12564  function setDaysUsedInFactors(uint256 numDays) public {  \r... */\n    tag_218:\n        /* \"WandInstruments.sol\":12541:12546  86400 */\n      0x015180\n        /* \"WandInstruments.sol\":12531:12538  numDays */\n      dup2\n        /* \"WandInstruments.sol\":12531:12546  numDays * 86400 */\n      tag_433\n      swap2\n      swap1\n      tag_343\n      jump\t// in\n    tag_433:\n        /* \"WandInstruments.sol\":12511:12528  daysInCalculation */\n      0x0d\n        /* \"WandInstruments.sol\":12511:12546  daysInCalculation = numDays * 86400 */\n      dup2\n      swap1\n      sstore\n      pop\n        /* \"WandInstruments.sol\":12408:12564  function setDaysUsedInFactors(uint256 numDays) public {  \r... */\n      pop\n      jump\t// out\n        /* \"WandInstruments.sol\":4561:4733  function decMul18(uint x, uint y) internal pure returns (uint decProd) {\r... */\n    tag_232:\n        /* \"WandInstruments.sol\":4618:4630  uint decProd */\n      0x00\n        /* \"WandInstruments.sol\":4643:4655  uint prod_xy */\n      dup1\n        /* \"WandInstruments.sol\":4658:4667  mul(x, y) */\n      tag_435\n        /* \"WandInstruments.sol\":4662:4663  x */\n      dup5\n        /* \"WandInstruments.sol\":4665:4666  y */\n      dup5\n        /* \"WandInstruments.sol\":4658:4661  mul */\n      tag_436\n        /* \"WandInstruments.sol\":4658:4667  mul(x, y) */\n      jump\t// in\n    tag_435:\n        /* \"WandInstruments.sol\":4643:4667  uint prod_xy = mul(x, y) */\n      swap1\n      pop\n        /* \"WandInstruments.sol\":362:368  10**18 */\n      0x0de0b6b3a7640000\n        /* \"WandInstruments.sol\":4688:4714  add(prod_xy, DECIMALS / 2) */\n      tag_437\n        /* \"WandInstruments.sol\":4692:4699  prod_xy */\n      dup3\n        /* \"WandInstruments.sol\":4712:4713  2 */\n      0x02\n        /* \"WandInstruments.sol\":362:368  10**18 */\n      0x0de0b6b3a7640000\n        /* \"WandInstruments.sol\":4701:4713  DECIMALS / 2 */\n      tag_438\n      swap2\n      swap1\n      tag_235\n      jump\t// in\n    tag_438:\n        /* \"WandInstruments.sol\":4688:4691  add */\n      tag_439\n        /* \"WandInstruments.sol\":4688:4714  add(prod_xy, DECIMALS / 2) */\n      jump\t// in\n    tag_437:\n        /* \"WandInstruments.sol\":4688:4725  add(prod_xy, DECIMALS / 2) / DECIMALS */\n      tag_440\n      swap2\n      swap1\n      tag_235\n      jump\t// in\n    tag_440:\n        /* \"WandInstruments.sol\":4678:4725  decProd = add(prod_xy, DECIMALS / 2) / DECIMALS */\n      swap2\n      pop\n        /* \"WandInstruments.sol\":4632:4733  {\r... */\n      pop\n        /* \"WandInstruments.sol\":4561:4733  function decMul18(uint x, uint y) internal pure returns (uint decProd) {\r... */\n      swap3\n      swap2\n      pop\n      pop\n      jump\t// out\n        /* \"WandInstruments.sol\":4741:4922  function decDiv18(uint x, uint y) internal pure returns (uint decQuotient) {\r... */\n    tag_253:\n        /* \"WandInstruments.sol\":4798:4814  uint decQuotient */\n      0x00\n        /* \"WandInstruments.sol\":4827:4843  uint prod_xTEN18 */\n      dup1\n        /* \"WandInstruments.sol\":4846:4862  mul(x, DECIMALS) */\n      tag_442\n        /* \"WandInstruments.sol\":4850:4851  x */\n      dup5\n        /* \"WandInstruments.sol\":362:368  10**18 */\n      0x0de0b6b3a7640000\n        /* \"WandInstruments.sol\":4846:4849  mul */\n      tag_436\n        /* \"WandInstruments.sol\":4846:4862  mul(x, DECIMALS) */\n      jump\t// in\n    tag_442:\n        /* \"WandInstruments.sol\":4827:4862  uint prod_xTEN18 = mul(x, DECIMALS) */\n      swap1\n      pop\n        /* \"WandInstruments.sol\":4913:4914  y */\n      dup3\n        /* \"WandInstruments.sol\":4887:4910  add(prod_xTEN18, y / 2) */\n      tag_443\n        /* \"WandInstruments.sol\":4891:4902  prod_xTEN18 */\n      dup3\n        /* \"WandInstruments.sol\":4908:4909  2 */\n      0x02\n        /* \"WandInstruments.sol\":4904:4905  y */\n      dup7\n        /* \"WandInstruments.sol\":4904:4909  y / 2 */\n      tag_444\n      swap2\n      swap1\n      tag_235\n      jump\t// in\n    tag_444:\n        /* \"WandInstruments.sol\":4887:4890  add */\n      tag_439\n        /* \"WandInstruments.sol\":4887:4910  add(prod_xTEN18, y / 2) */\n      jump\t// in\n    tag_443:\n        /* \"WandInstruments.sol\":4887:4914  add(prod_xTEN18, y / 2) / y */\n      tag_445\n      swap2\n      swap1\n      tag_235\n      jump\t// in\n    tag_445:\n        /* \"WandInstruments.sol\":4873:4914  decQuotient = add(prod_xTEN18, y / 2) / y */\n      swap2\n      pop\n        /* \"WandInstruments.sol\":4816:4922  {\r... */\n      pop\n        /* \"WandInstruments.sol\":4741:4922  function decDiv18(uint x, uint y) internal pure returns (uint decQuotient) {\r... */\n      swap3\n      swap2\n      pop\n      pop\n      jump\t// out\n        /* \"WandInstruments.sol\":15357:15619  function _safeTransferFrom(\r... */\n    tag_281:\n        /* \"WandInstruments.sol\":15505:15514  bool sent */\n      0x00\n        /* \"WandInstruments.sol\":15517:15522  token */\n      dup5\n        /* \"WandInstruments.sol\":15517:15535  token.transferFrom */\n      0xffffffffffffffffffffffffffffffffffffffff\n      and\n      0x23b872dd\n        /* \"WandInstruments.sol\":15536:15542  sender */\n      dup6\n        /* \"WandInstruments.sol\":15544:15553  recipient */\n      dup6\n        /* \"WandInstruments.sol\":15555:15561  amount */\n      dup6\n        /* \"WandInstruments.sol\":15517:15562  token.transferFrom(sender, recipient, amount) */\n      mload(0x40)\n      dup5\n      0xffffffff\n      and\n      0xe0\n      shl\n      dup2\n      mstore\n      0x04\n      add\n      tag_447\n      swap4\n      swap3\n      swap2\n      swap1\n      tag_448\n      jump\t// in\n    tag_447:\n      0x20\n      mload(0x40)\n      dup1\n      dup4\n      sub\n      dup2\n      0x00\n      dup8\n      dup1\n      extcodesize\n      iszero\n      dup1\n      iszero\n      tag_449\n      jumpi\n      0x00\n      dup1\n      revert\n    tag_449:\n      pop\n      gas\n      call\n      iszero\n      dup1\n      iszero\n      tag_451\n      jumpi\n      returndatasize\n      0x00\n      dup1\n      returndatacopy\n      revert(0x00, returndatasize)\n    tag_451:\n      pop\n      pop\n      pop\n      pop\n      mload(0x40)\n      returndatasize\n      not(0x1f)\n      0x1f\n      dup3\n      add\n      and\n      dup3\n      add\n      dup1\n      0x40\n      mstore\n      pop\n      dup2\n      add\n      swap1\n      tag_452\n      swap2\n      swap1\n      tag_410\n      jump\t// in\n    tag_452:\n        /* \"WandInstruments.sol\":15505:15562  bool sent = token.transferFrom(sender, recipient, amount) */\n      swap1\n      pop\n        /* \"WandInstruments.sol\":15581:15585  sent */\n      dup1\n        /* \"WandInstruments.sol\":15573:15611  require(sent, \"Token transfer failed\") */\n      tag_453\n      jumpi\n      mload(0x40)\n      0x08c379a000000000000000000000000000000000000000000000000000000000\n      dup2\n      mstore\n      0x04\n      add\n      tag_454\n      swap1\n      tag_455\n      jump\t// in\n    tag_454:\n      mload(0x40)\n      dup1\n      swap2\n      sub\n      swap1\n      revert\n    tag_453:\n        /* \"WandInstruments.sol\":15494:15619  {\r... */\n      pop\n        /* \"WandInstruments.sol\":15357:15619  function _safeTransferFrom(\r... */\n      pop\n      pop\n      pop\n      pop\n      jump\t// out\n        /* \"WandInstruments.sol\":3746:3988  function mul(uint256 a, uint256 b) internal pure returns (uint256) {\r... */\n    tag_436:\n        /* \"WandInstruments.sol\":3804:3811  uint256 */\n      0x00\n        /* \"WandInstruments.sol\":3833:3834  0 */\n      dup1\n        /* \"WandInstruments.sol\":3828:3829  a */\n      dup4\n        /* \"WandInstruments.sol\":3828:3834  a == 0 */\n      eq\n        /* \"WandInstruments.sol\":3824:3867  if (a == 0) {\r... */\n      iszero\n      tag_457\n      jumpi\n        /* \"WandInstruments.sol\":3854:3855  0 */\n      0x00\n        /* \"WandInstruments.sol\":3847:3855  return 0 */\n      swap1\n      pop\n      jump(tag_456)\n        /* \"WandInstruments.sol\":3824:3867  if (a == 0) {\r... */\n    tag_457:\n        /* \"WandInstruments.sol\":3877:3886  uint256 c */\n      0x00\n        /* \"WandInstruments.sol\":3893:3894  b */\n      dup3\n        /* \"WandInstruments.sol\":3889:3890  a */\n      dup5\n        /* \"WandInstruments.sol\":3889:3894  a * b */\n      tag_458\n      swap2\n      swap1\n      tag_343\n      jump\t// in\n    tag_458:\n        /* \"WandInstruments.sol\":3877:3894  uint256 c = a * b */\n      swap1\n      pop\n        /* \"WandInstruments.sol\":3922:3923  b */\n      dup3\n        /* \"WandInstruments.sol\":3917:3918  a */\n      dup5\n        /* \"WandInstruments.sol\":3913:3914  c */\n      dup3\n        /* \"WandInstruments.sol\":3913:3918  c / a */\n      tag_459\n      swap2\n      swap1\n      tag_235\n      jump\t// in\n    tag_459:\n        /* \"WandInstruments.sol\":3913:3923  c / a == b */\n      eq\n        /* \"WandInstruments.sol\":3905:3961  require(c / a == b, \"uint overflow from multiplication\") */\n      tag_460\n      jumpi\n      mload(0x40)\n      0x08c379a000000000000000000000000000000000000000000000000000000000\n      dup2\n      mstore\n      0x04\n      add\n      tag_461\n      swap1\n      tag_462\n      jump\t// in\n    tag_461:\n      mload(0x40)\n      dup1\n      swap2\n      sub\n      swap1\n      revert\n    tag_460:\n        /* \"WandInstruments.sol\":3979:3980  c */\n      dup1\n        /* \"WandInstruments.sol\":3972:3980  return c */\n      swap2\n      pop\n      pop\n        /* \"WandInstruments.sol\":3746:3988  function mul(uint256 a, uint256 b) internal pure returns (uint256) {\r... */\n    tag_456:\n      swap3\n      swap2\n      pop\n      pop\n      jump\t// out\n        /* \"WandInstruments.sol\":4364:4549  function add(uint256 a, uint256 b) internal pure returns (uint256) {\r... */\n    tag_439:\n        /* \"WandInstruments.sol\":4422:4429  uint256 */\n      0x00\n        /* \"WandInstruments.sol\":4442:4451  uint256 c */\n      dup1\n        /* \"WandInstruments.sol\":4458:4459  b */\n      dup3\n        /* \"WandInstruments.sol\":4454:4455  a */\n      dup5\n        /* \"WandInstruments.sol\":4454:4459  a + b */\n      tag_464\n      swap2\n      swap1\n      tag_231\n      jump\t// in\n    tag_464:\n        /* \"WandInstruments.sol\":4442:4459  uint256 c = a + b */\n      swap1\n      pop\n        /* \"WandInstruments.sol\":4483:4484  a */\n      dup4\n        /* \"WandInstruments.sol\":4478:4479  c */\n      dup2\n        /* \"WandInstruments.sol\":4478:4484  c >= a */\n      lt\n      iszero\n        /* \"WandInstruments.sol\":4470:4522  require(c >= a, \"uint overflow from multiplication\") */\n      tag_465\n      jumpi\n      mload(0x40)\n      0x08c379a000000000000000000000000000000000000000000000000000000000\n      dup2\n      mstore\n      0x04\n      add\n      tag_466\n      swap1\n      tag_462\n      jump\t// in\n    tag_466:\n      mload(0x40)\n      dup1\n      swap2\n      sub\n      swap1\n      revert\n    tag_465:\n        /* \"WandInstruments.sol\":4540:4541  c */\n      dup1\n        /* \"WandInstruments.sol\":4533:4541  return c */\n      swap2\n      pop\n      pop\n        /* \"WandInstruments.sol\":4364:4549  function add(uint256 a, uint256 b) internal pure returns (uint256) {\r... */\n      swap3\n      swap2\n      pop\n      pop\n      jump\t// out\n        /* \"#utility.yul\":7:419   */\n    tag_468:\n        /* \"#utility.yul\":85:90   */\n      0x00\n        /* \"#utility.yul\":110:176   */\n      tag_470\n        /* \"#utility.yul\":126:175   */\n      tag_471\n        /* \"#utility.yul\":168:174   */\n      dup5\n        /* \"#utility.yul\":126:175   */\n      tag_472\n      jump\t// in\n    tag_471:\n        /* \"#utility.yul\":110:176   */\n      tag_473\n      jump\t// in\n    tag_470:\n        /* \"#utility.yul\":101:176   */\n      swap1\n      pop\n        /* \"#utility.yul\":199:205   */\n      dup3\n        /* \"#utility.yul\":192:197   */\n      dup2\n        /* \"#utility.yul\":185:206   */\n      mstore\n        /* \"#utility.yul\":237:241   */\n      0x20\n        /* \"#utility.yul\":230:235   */\n      dup2\n        /* \"#utility.yul\":226:242   */\n      add\n        /* \"#utility.yul\":275:278   */\n      dup5\n        /* \"#utility.yul\":266:272   */\n      dup5\n        /* \"#utility.yul\":261:264   */\n      dup5\n        /* \"#utility.yul\":257:273   */\n      add\n        /* \"#utility.yul\":254:279   */\n      gt\n        /* \"#utility.yul\":251:363   */\n      iszero\n      tag_474\n      jumpi\n        /* \"#utility.yul\":282:361   */\n      tag_475\n      tag_476\n      jump\t// in\n    tag_475:\n        /* \"#utility.yul\":251:363   */\n    tag_474:\n        /* \"#utility.yul\":372:413   */\n      tag_477\n        /* \"#utility.yul\":406:412   */\n      dup5\n        /* \"#utility.yul\":401:404   */\n      dup3\n        /* \"#utility.yul\":396:399   */\n      dup6\n        /* \"#utility.yul\":372:413   */\n      tag_478\n      jump\t// in\n    tag_477:\n        /* \"#utility.yul\":91:419   */\n      pop\n        /* \"#utility.yul\":7:419   */\n      swap4\n      swap3\n      pop\n      pop\n      pop\n      jump\t// out\n        /* \"#utility.yul\":425:564   */\n    tag_479:\n        /* \"#utility.yul\":471:476   */\n      0x00\n        /* \"#utility.yul\":509:515   */\n      dup2\n        /* \"#utility.yul\":496:516   */\n      calldataload\n        /* \"#utility.yul\":487:516   */\n      swap1\n      pop\n        /* \"#utility.yul\":525:558   */\n      tag_481\n        /* \"#utility.yul\":552:557   */\n      dup2\n        /* \"#utility.yul\":525:558   */\n      tag_482\n      jump\t// in\n    tag_481:\n        /* \"#utility.yul\":425:564   */\n      swap3\n      swap2\n      pop\n      pop\n      jump\t// out\n        /* \"#utility.yul\":570:707   */\n    tag_483:\n        /* \"#utility.yul\":624:629   */\n      0x00\n        /* \"#utility.yul\":655:661   */\n      dup2\n        /* \"#utility.yul\":649:662   */\n      mload\n        /* \"#utility.yul\":640:662   */\n      swap1\n      pop\n        /* \"#utility.yul\":671:701   */\n      tag_485\n        /* \"#utility.yul\":695:700   */\n      dup2\n        /* \"#utility.yul\":671:701   */\n      tag_486\n      jump\t// in\n    tag_485:\n        /* \"#utility.yul\":570:707   */\n      swap3\n      swap2\n      pop\n      pop\n      jump\t// out\n        /* \"#utility.yul\":727:1067   */\n    tag_487:\n        /* \"#utility.yul\":783:788   */\n      0x00\n        /* \"#utility.yul\":832:835   */\n      dup3\n        /* \"#utility.yul\":825:829   */\n      0x1f\n        /* \"#utility.yul\":817:823   */\n      dup4\n        /* \"#utility.yul\":813:830   */\n      add\n        /* \"#utility.yul\":809:836   */\n      slt\n        /* \"#utility.yul\":799:921   */\n      tag_489\n      jumpi\n        /* \"#utility.yul\":840:919   */\n      tag_490\n      tag_491\n      jump\t// in\n    tag_490:\n        /* \"#utility.yul\":799:921   */\n    tag_489:\n        /* \"#utility.yul\":957:963   */\n      dup2\n        /* \"#utility.yul\":944:964   */\n      calldataload\n        /* \"#utility.yul\":982:1061   */\n      tag_492\n        /* \"#utility.yul\":1057:1060   */\n      dup5\n        /* \"#utility.yul\":1049:1055   */\n      dup3\n        /* \"#utility.yul\":1042:1046   */\n      0x20\n        /* \"#utility.yul\":1034:1040   */\n      dup7\n        /* \"#utility.yul\":1030:1047   */\n      add\n        /* \"#utility.yul\":982:1061   */\n      tag_468\n      jump\t// in\n    tag_492:\n        /* \"#utility.yul\":973:1061   */\n      swap2\n      pop\n        /* \"#utility.yul\":789:1067   */\n      pop\n        /* \"#utility.yul\":727:1067   */\n      swap3\n      swap2\n      pop\n      pop\n      jump\t// out\n        /* \"#utility.yul\":1073:1212   */\n    tag_493:\n        /* \"#utility.yul\":1119:1124   */\n      0x00\n        /* \"#utility.yul\":1157:1163   */\n      dup2\n        /* \"#utility.yul\":1144:1164   */\n      calldataload\n        /* \"#utility.yul\":1135:1164   */\n      swap1\n      pop\n        /* \"#utility.yul\":1173:1206   */\n      tag_495\n        /* \"#utility.yul\":1200:1205   */\n      dup2\n        /* \"#utility.yul\":1173:1206   */\n      tag_496\n      jump\t// in\n    tag_495:\n        /* \"#utility.yul\":1073:1212   */\n      swap3\n      swap2\n      pop\n      pop\n      jump\t// out\n        /* \"#utility.yul\":1218:1361   */\n    tag_497:\n        /* \"#utility.yul\":1275:1280   */\n      0x00\n        /* \"#utility.yul\":1306:1312   */\n      dup2\n        /* \"#utility.yul\":1300:1313   */\n      mload\n        /* \"#utility.yul\":1291:1313   */\n      swap1\n      pop\n        /* \"#utility.yul\":1322:1355   */\n      tag_499\n        /* \"#utility.yul\":1349:1354   */\n      dup2\n        /* \"#utility.yul\":1322:1355   */\n      tag_496\n      jump\t// in\n    tag_499:\n        /* \"#utility.yul\":1218:1361   */\n      swap3\n      swap2\n      pop\n      pop\n      jump\t// out\n        /* \"#utility.yul\":1367:1696   */\n    tag_69:\n        /* \"#utility.yul\":1426:1432   */\n      0x00\n        /* \"#utility.yul\":1475:1477   */\n      0x20\n        /* \"#utility.yul\":1463:1472   */\n      dup3\n        /* \"#utility.yul\":1454:1461   */\n      dup5\n        /* \"#utility.yul\":1450:1473   */\n      sub\n        /* \"#utility.yul\":1446:1478   */\n      slt\n        /* \"#utility.yul\":1443:1562   */\n      iszero\n      tag_501\n      jumpi\n        /* \"#utility.yul\":1481:1560   */\n      tag_502\n      tag_503\n      jump\t// in\n    tag_502:\n        /* \"#utility.yul\":1443:1562   */\n    tag_501:\n        /* \"#utility.yul\":1601:1602   */\n      0x00\n        /* \"#utility.yul\":1626:1679   */\n      tag_504\n        /* \"#utility.yul\":1671:1678   */\n      dup5\n        /* \"#utility.yul\":1662:1668   */\n      dup3\n        /* \"#utility.yul\":1651:1660   */\n      dup6\n        /* \"#utility.yul\":1647:1669   */\n      add\n        /* \"#utility.yul\":1626:1679   */\n      tag_479\n      jump\t// in\n    tag_504:\n        /* \"#utility.yul\":1616:1679   */\n      swap2\n      pop\n        /* \"#utility.yul\":1572:1689   */\n      pop\n        /* \"#utility.yul\":1367:1696   */\n      swap3\n      swap2\n      pop\n      pop\n      jump\t// out\n        /* \"#utility.yul\":1702:2356   */\n    tag_172:\n        /* \"#utility.yul\":1780:1786   */\n      0x00\n        /* \"#utility.yul\":1788:1794   */\n      dup1\n        /* \"#utility.yul\":1837:1839   */\n      0x40\n        /* \"#utility.yul\":1825:1834   */\n      dup4\n        /* \"#utility.yul\":1816:1823   */\n      dup6\n        /* \"#utility.yul\":1812:1835   */\n      sub\n        /* \"#utility.yul\":1808:1840   */\n      slt\n        /* \"#utility.yul\":1805:1924   */\n      iszero\n      tag_506\n      jumpi\n        /* \"#utility.yul\":1843:1922   */\n      tag_507\n      tag_503\n      jump\t// in\n    tag_507:\n        /* \"#utility.yul\":1805:1924   */\n    tag_506:\n        /* \"#utility.yul\":1963:1964   */\n      0x00\n        /* \"#utility.yul\":1988:2041   */\n      tag_508\n        /* \"#utility.yul\":2033:2040   */\n      dup6\n        /* \"#utility.yul\":2024:2030   */\n      dup3\n        /* \"#utility.yul\":2013:2022   */\n      dup7\n        /* \"#utility.yul\":2009:2031   */\n      add\n        /* \"#utility.yul\":1988:2041   */\n      tag_479\n      jump\t// in\n    tag_508:\n        /* \"#utility.yul\":1978:2041   */\n      swap3\n      pop\n        /* \"#utility.yul\":1934:2051   */\n      pop\n        /* \"#utility.yul\":2118:2120   */\n      0x20\n        /* \"#utility.yul\":2107:2116   */\n      dup4\n        /* \"#utility.yul\":2103:2121   */\n      add\n        /* \"#utility.yul\":2090:2122   */\n      calldataload\n        /* \"#utility.yul\":2149:2167   */\n      0xffffffffffffffff\n        /* \"#utility.yul\":2141:2147   */\n      dup2\n        /* \"#utility.yul\":2138:2168   */\n      gt\n        /* \"#utility.yul\":2135:2252   */\n      iszero\n      tag_509\n      jumpi\n        /* \"#utility.yul\":2171:2250   */\n      tag_510\n      tag_511\n      jump\t// in\n    tag_510:\n        /* \"#utility.yul\":2135:2252   */\n    tag_509:\n        /* \"#utility.yul\":2276:2339   */\n      tag_512\n        /* \"#utility.yul\":2331:2338   */\n      dup6\n        /* \"#utility.yul\":2322:2328   */\n      dup3\n        /* \"#utility.yul\":2311:2320   */\n      dup7\n        /* \"#utility.yul\":2307:2329   */\n      add\n        /* \"#utility.yul\":2276:2339   */\n      tag_487\n      jump\t// in\n    tag_512:\n        /* \"#utility.yul\":2266:2339   */\n      swap2\n      pop\n        /* \"#utility.yul\":2061:2349   */\n      pop\n        /* \"#utility.yul\":1702:2356   */\n      swap3\n      pop\n      swap3\n      swap1\n      pop\n      jump\t// out\n        /* \"#utility.yul\":2362:2707   */\n    tag_410:\n        /* \"#utility.yul\":2429:2435   */\n      0x00\n        /* \"#utility.yul\":2478:2480   */\n      0x20\n        /* \"#utility.yul\":2466:2475   */\n      dup3\n        /* \"#utility.yul\":2457:2464   */\n      dup5\n        /* \"#utility.yul\":2453:2476   */\n      sub\n        /* \"#utility.yul\":2449:2481   */\n      slt\n        /* \"#utility.yul\":2446:2565   */\n      iszero\n      tag_514\n      jumpi\n        /* \"#utility.yul\":2484:2563   */\n      tag_515\n      tag_503\n      jump\t// in\n    tag_515:\n        /* \"#utility.yul\":2446:2565   */\n    tag_514:\n        /* \"#utility.yul\":2604:2605   */\n      0x00\n        /* \"#utility.yul\":2629:2690   */\n      tag_516\n        /* \"#utility.yul\":2682:2689   */\n      dup5\n        /* \"#utility.yul\":2673:2679   */\n      dup3\n        /* \"#utility.yul\":2662:2671   */\n      dup6\n        /* \"#utility.yul\":2658:2680   */\n      add\n        /* \"#utility.yul\":2629:2690   */\n      tag_483\n      jump\t// in\n    tag_516:\n        /* \"#utility.yul\":2619:2690   */\n      swap2\n      pop\n        /* \"#utility.yul\":2575:2700   */\n      pop\n        /* \"#utility.yul\":2362:2707   */\n      swap3\n      swap2\n      pop\n      pop\n      jump\t// out\n        /* \"#utility.yul\":2713:3222   */\n    tag_162:\n        /* \"#utility.yul\":2782:2788   */\n      0x00\n        /* \"#utility.yul\":2831:2833   */\n      0x20\n        /* \"#utility.yul\":2819:2828   */\n      dup3\n        /* \"#utility.yul\":2810:2817   */\n      dup5\n        /* \"#utility.yul\":2806:2829   */\n      sub\n        /* \"#utility.yul\":2802:2834   */\n      slt\n        /* \"#utility.yul\":2799:2918   */\n      iszero\n      tag_518\n      jumpi\n        /* \"#utility.yul\":2837:2916   */\n      tag_519\n      tag_503\n      jump\t// in\n    tag_519:\n        /* \"#utility.yul\":2799:2918   */\n    tag_518:\n        /* \"#utility.yul\":2985:2986   */\n      0x00\n        /* \"#utility.yul\":2974:2983   */\n      dup3\n        /* \"#utility.yul\":2970:2987   */\n      add\n        /* \"#utility.yul\":2957:2988   */\n      calldataload\n        /* \"#utility.yul\":3015:3033   */\n      0xffffffffffffffff\n        /* \"#utility.yul\":3007:3013   */\n      dup2\n        /* \"#utility.yul\":3004:3034   */\n      gt\n        /* \"#utility.yul\":3001:3118   */\n      iszero\n      tag_520\n      jumpi\n        /* \"#utility.yul\":3037:3116   */\n      tag_521\n      tag_511\n      jump\t// in\n    tag_521:\n        /* \"#utility.yul\":3001:3118   */\n    tag_520:\n        /* \"#utility.yul\":3142:3205   */\n      tag_522\n        /* \"#utility.yul\":3197:3204   */\n      dup5\n        /* \"#utility.yul\":3188:3194   */\n      dup3\n        /* \"#utility.yul\":3177:3186   */\n      dup6\n        /* \"#utility.yul\":3173:3195   */\n      add\n        /* \"#utility.yul\":3142:3205   */\n      tag_487\n      jump\t// in\n    tag_522:\n        /* \"#utility.yul\":3132:3205   */\n      swap2\n      pop\n        /* \"#utility.yul\":2928:3215   */\n      pop\n        /* \"#utility.yul\":2713:3222   */\n      swap3\n      swap2\n      pop\n      pop\n      jump\t// out\n        /* \"#utility.yul\":3228:4027   */\n    tag_201:\n        /* \"#utility.yul\":3315:3321   */\n      0x00\n        /* \"#utility.yul\":3323:3329   */\n      dup1\n        /* \"#utility.yul\":3331:3337   */\n      0x00\n        /* \"#utility.yul\":3380:3382   */\n      0x60\n        /* \"#utility.yul\":3368:3377   */\n      dup5\n        /* \"#utility.yul\":3359:3366   */\n      dup7\n        /* \"#utility.yul\":3355:3378   */\n      sub\n        /* \"#utility.yul\":3351:3383   */\n      slt\n        /* \"#utility.yul\":3348:3467   */\n      iszero\n      tag_524\n      jumpi\n        /* \"#utility.yul\":3386:3465   */\n      tag_525\n      tag_503\n      jump\t// in\n    tag_525:\n        /* \"#utility.yul\":3348:3467   */\n    tag_524:\n        /* \"#utility.yul\":3534:3535   */\n      0x00\n        /* \"#utility.yul\":3523:3532   */\n      dup5\n        /* \"#utility.yul\":3519:3536   */\n      add\n        /* \"#utility.yul\":3506:3537   */\n      calldataload\n        /* \"#utility.yul\":3564:3582   */\n      0xffffffffffffffff\n        /* \"#utility.yul\":3556:3562   */\n      dup2\n        /* \"#utility.yul\":3553:3583   */\n      gt\n        /* \"#utility.yul\":3550:3667   */\n      iszero\n      tag_526\n      jumpi\n        /* \"#utility.yul\":3586:3665   */\n      tag_527\n      tag_511\n      jump\t// in\n    tag_527:\n        /* \"#utility.yul\":3550:3667   */\n    tag_526:\n        /* \"#utility.yul\":3691:3754   */\n      tag_528\n        /* \"#utility.yul\":3746:3753   */\n      dup7\n        /* \"#utility.yul\":3737:3743   */\n      dup3\n        /* \"#utility.yul\":3726:3735   */\n      dup8\n        /* \"#utility.yul\":3722:3744   */\n      add\n        /* \"#utility.yul\":3691:3754   */\n      tag_487\n      jump\t// in\n    tag_528:\n        /* \"#utility.yul\":3681:3754   */\n      swap4\n      pop\n        /* \"#utility.yul\":3477:3764   */\n      pop\n        /* \"#utility.yul\":3803:3805   */\n      0x20\n        /* \"#utility.yul\":3829:3882   */\n      tag_529\n        /* \"#utility.yul\":3874:3881   */\n      dup7\n        /* \"#utility.yul\":3865:3871   */\n      dup3\n        /* \"#utility.yul\":3854:3863   */\n      dup8\n        /* \"#utility.yul\":3850:3872   */\n      add\n        /* \"#utility.yul\":3829:3882   */\n      tag_479\n      jump\t// in\n    tag_529:\n        /* \"#utility.yul\":3819:3882   */\n      swap3\n      pop\n        /* \"#utility.yul\":3774:3892   */\n      pop\n        /* \"#utility.yul\":3931:3933   */\n      0x40\n        /* \"#utility.yul\":3957:4010   */\n      tag_530\n        /* \"#utility.yul\":4002:4009   */\n      dup7\n        /* \"#utility.yul\":3993:3999   */\n      dup3\n        /* \"#utility.yul\":3982:3991   */\n      dup8\n        /* \"#utility.yul\":3978:4000   */\n      add\n        /* \"#utility.yul\":3957:4010   */\n      tag_493\n      jump\t// in\n    tag_530:\n        /* \"#utility.yul\":3947:4010   */\n      swap2\n      pop\n        /* \"#utility.yul\":3902:4020   */\n      pop\n        /* \"#utility.yul\":3228:4027   */\n      swap3\n      pop\n      swap3\n      pop\n      swap3\n      jump\t// out\n        /* \"#utility.yul\":4033:4362   */\n    tag_76:\n        /* \"#utility.yul\":4092:4098   */\n      0x00\n        /* \"#utility.yul\":4141:4143   */\n      0x20\n        /* \"#utility.yul\":4129:4138   */\n      dup3\n        /* \"#utility.yul\":4120:4127   */\n      dup5\n        /* \"#utility.yul\":4116:4139   */\n      sub\n        /* \"#utility.yul\":4112:4144   */\n      slt\n        /* \"#utility.yul\":4109:4228   */\n      iszero\n      tag_532\n      jumpi\n        /* \"#utility.yul\":4147:4226   */\n      tag_533\n      tag_503\n      jump\t// in\n    tag_533:\n        /* \"#utility.yul\":4109:4228   */\n    tag_532:\n        /* \"#utility.yul\":4267:4268   */\n      0x00\n        /* \"#utility.yul\":4292:4345   */\n      tag_534\n        /* \"#utility.yul\":4337:4344   */\n      dup5\n        /* \"#utility.yul\":4328:4334   */\n      dup3\n        /* \"#utility.yul\":4317:4326   */\n      dup6\n        /* \"#utility.yul\":4313:4335   */\n      add\n        /* \"#utility.yul\":4292:4345   */\n      tag_493\n      jump\t// in\n    tag_534:\n        /* \"#utility.yul\":4282:4345   */\n      swap2\n      pop\n        /* \"#utility.yul\":4238:4355   */\n      pop\n        /* \"#utility.yul\":4033:4362   */\n      swap3\n      swap2\n      pop\n      pop\n      jump\t// out\n        /* \"#utility.yul\":4368:4719   */\n    tag_225:\n        /* \"#utility.yul\":4438:4444   */\n      0x00\n        /* \"#utility.yul\":4487:4489   */\n      0x20\n        /* \"#utility.yul\":4475:4484   */\n      dup3\n        /* \"#utility.yul\":4466:4473   */\n      dup5\n        /* \"#utility.yul\":4462:4485   */\n      sub\n        /* \"#utility.yul\":4458:4490   */\n      slt\n        /* \"#utility.yul\":4455:4574   */\n      iszero\n      tag_536\n      jumpi\n        /* \"#utility.yul\":4493:4572   */\n      tag_537\n      tag_503\n      jump\t// in\n    tag_537:\n        /* \"#utility.yul\":4455:4574   */\n    tag_536:\n        /* \"#utility.yul\":4613:4614   */\n      0x00\n        /* \"#utility.yul\":4638:4702   */\n      tag_538\n        /* \"#utility.yul\":4694:4701   */\n      dup5\n        /* \"#utility.yul\":4685:4691   */\n      dup3\n        /* \"#utility.yul\":4674:4683   */\n      dup6\n        /* \"#utility.yul\":4670:4692   */\n      add\n        /* \"#utility.yul\":4638:4702   */\n      tag_497\n      jump\t// in\n    tag_538:\n        /* \"#utility.yul\":4628:4702   */\n      swap2\n      pop\n        /* \"#utility.yul\":4584:4712   */\n      pop\n        /* \"#utility.yul\":4368:4719   */\n      swap3\n      swap2\n      pop\n      pop\n      jump\t// out\n        /* \"#utility.yul\":4725:5379   */\n    tag_149:\n        /* \"#utility.yul\":4803:4809   */\n      0x00\n        /* \"#utility.yul\":4811:4817   */\n      dup1\n        /* \"#utility.yul\":4860:4862   */\n      0x40\n        /* \"#utility.yul\":4848:4857   */\n      dup4\n        /* \"#utility.yul\":4839:4846   */\n      dup6\n        /* \"#utility.yul\":4835:4858   */\n      sub\n        /* \"#utility.yul\":4831:4863   */\n      slt\n        /* \"#utility.yul\":4828:4947   */\n      iszero\n      tag_540\n      jumpi\n        /* \"#utility.yul\":4866:4945   */\n      tag_541\n      tag_503\n      jump\t// in\n    tag_541:\n        /* \"#utility.yul\":4828:4947   */\n    tag_540:\n        /* \"#utility.yul\":4986:4987   */\n      0x00\n        /* \"#utility.yul\":5011:5064   */\n      tag_542\n        /* \"#utility.yul\":5056:5063   */\n      dup6\n        /* \"#utility.yul\":5047:5053   */\n      dup3\n        /* \"#utility.yul\":5036:5045   */\n      dup7\n        /* \"#utility.yul\":5032:5054   */\n      add\n        /* \"#utility.yul\":5011:5064   */\n      tag_493\n      jump\t// in\n    tag_542:\n        /* \"#utility.yul\":5001:5064   */\n      swap3\n      pop\n        /* \"#utility.yul\":4957:5074   */\n      pop\n        /* \"#utility.yul\":5141:5143   */\n      0x20\n        /* \"#utility.yul\":5130:5139   */\n      dup4\n        /* \"#utility.yul\":5126:5144   */\n      add\n        /* \"#utility.yul\":5113:5145   */\n      calldataload\n        /* \"#utility.yul\":5172:5190   */\n      0xffffffffffffffff\n        /* \"#utility.yul\":5164:5170   */\n      dup2\n        /* \"#utility.yul\":5161:5191   */\n      gt\n        /* \"#utility.yul\":5158:5275   */\n      iszero\n      tag_543\n      jumpi\n        /* \"#utility.yul\":5194:5273   */\n      tag_544\n      tag_511\n      jump\t// in\n    tag_544:\n        /* \"#utility.yul\":5158:5275   */\n    tag_543:\n        /* \"#utility.yul\":5299:5362   */\n      tag_545\n        /* \"#utility.yul\":5354:5361   */\n      dup6\n        /* \"#utility.yul\":5345:5351   */\n      dup3\n        /* \"#utility.yul\":5334:5343   */\n      dup7\n        /* \"#utility.yul\":5330:5352   */\n      add\n        /* \"#utility.yul\":5299:5362   */\n      tag_487\n      jump\t// in\n    tag_545:\n        /* \"#utility.yul\":5289:5362   */\n      swap2\n      pop\n        /* \"#utility.yul\":5084:5372   */\n      pop\n        /* \"#utility.yul\":4725:5379   */\n      swap3\n      pop\n      swap3\n      swap1\n      pop\n      jump\t// out\n        /* \"#utility.yul\":5385:6184   */\n    tag_184:\n        /* \"#utility.yul\":5472:5478   */\n      0x00\n        /* \"#utility.yul\":5480:5486   */\n      dup1\n        /* \"#utility.yul\":5488:5494   */\n      0x00\n        /* \"#utility.yul\":5537:5539   */\n      0x60\n        /* \"#utility.yul\":5525:5534   */\n      dup5\n        /* \"#utility.yul\":5516:5523   */\n      dup7\n        /* \"#utility.yul\":5512:5535   */\n      sub\n        /* \"#utility.yul\":5508:5540   */\n      slt\n        /* \"#utility.yul\":5505:5624   */\n      iszero\n      tag_547\n      jumpi\n        /* \"#utility.yul\":5543:5622   */\n      tag_548\n      tag_503\n      jump\t// in\n    tag_548:\n        /* \"#utility.yul\":5505:5624   */\n    tag_547:\n        /* \"#utility.yul\":5663:5664   */\n      0x00\n        /* \"#utility.yul\":5688:5741   */\n      tag_549\n        /* \"#utility.yul\":5733:5740   */\n      dup7\n        /* \"#utility.yul\":5724:5730   */\n      dup3\n        /* \"#utility.yul\":5713:5722   */\n      dup8\n        /* \"#utility.yul\":5709:5731   */\n      add\n        /* \"#utility.yul\":5688:5741   */\n      tag_493\n      jump\t// in\n    tag_549:\n        /* \"#utility.yul\":5678:5741   */\n      swap4\n      pop\n        /* \"#utility.yul\":5634:5751   */\n      pop\n        /* \"#utility.yul\":5790:5792   */\n      0x20\n        /* \"#utility.yul\":5816:5869   */\n      tag_550\n        /* \"#utility.yul\":5861:5868   */\n      dup7\n        /* \"#utility.yul\":5852:5858   */\n      dup3\n        /* \"#utility.yul\":5841:5850   */\n      dup8\n        /* \"#utility.yul\":5837:5859   */\n      add\n        /* \"#utility.yul\":5816:5869   */\n      tag_493\n      jump\t// in\n    tag_550:\n        /* \"#utility.yul\":5806:5869   */\n      swap3\n      pop\n        /* \"#utility.yul\":5761:5879   */\n      pop\n        /* \"#utility.yul\":5946:5948   */\n      0x40\n        /* \"#utility.yul\":5935:5944   */\n      dup5\n        /* \"#utility.yul\":5931:5949   */\n      add\n        /* \"#utility.yul\":5918:5950   */\n      calldataload\n        /* \"#utility.yul\":5977:5995   */\n      0xffffffffffffffff\n        /* \"#utility.yul\":5969:5975   */\n      dup2\n        /* \"#utility.yul\":5966:5996   */\n      gt\n        /* \"#utility.yul\":5963:6080   */\n      iszero\n      tag_551\n      jumpi\n        /* \"#utility.yul\":5999:6078   */\n      tag_552\n      tag_511\n      jump\t// in\n    tag_552:\n        /* \"#utility.yul\":5963:6080   */\n    tag_551:\n        /* \"#utility.yul\":6104:6167   */\n      tag_553\n        /* \"#utility.yul\":6159:6166   */\n      dup7\n        /* \"#utility.yul\":6150:6156   */\n      dup3\n        /* \"#utility.yul\":6139:6148   */\n      dup8\n        /* \"#utility.yul\":6135:6157   */\n      add\n        /* \"#utility.yul\":6104:6167   */\n      tag_487\n      jump\t// in\n    tag_553:\n        /* \"#utility.yul\":6094:6167   */\n      swap2\n      pop\n        /* \"#utility.yul\":5889:6177   */\n      pop\n        /* \"#utility.yul\":5385:6184   */\n      swap3\n      pop\n      swap3\n      pop\n      swap3\n      jump\t// out\n        /* \"#utility.yul\":6190:6308   */\n    tag_554:\n        /* \"#utility.yul\":6277:6301   */\n      tag_556\n        /* \"#utility.yul\":6295:6300   */\n      dup2\n        /* \"#utility.yul\":6277:6301   */\n      tag_557\n      jump\t// in\n    tag_556:\n        /* \"#utility.yul\":6272:6275   */\n      dup3\n        /* \"#utility.yul\":6265:6302   */\n      mstore\n        /* \"#utility.yul\":6190:6308   */\n      pop\n      pop\n      jump\t// out\n        /* \"#utility.yul\":6314:6475   */\n    tag_558:\n        /* \"#utility.yul\":6416:6468   */\n      tag_560\n        /* \"#utility.yul\":6462:6467   */\n      dup2\n        /* \"#utility.yul\":6416:6468   */\n      tag_561\n      jump\t// in\n    tag_560:\n        /* \"#utility.yul\":6411:6414   */\n      dup3\n        /* \"#utility.yul\":6404:6469   */\n      mstore\n        /* \"#utility.yul\":6314:6475   */\n      pop\n      pop\n      jump\t// out\n        /* \"#utility.yul\":6481:6596   */\n    tag_562:\n        /* \"#utility.yul\":6566:6589   */\n      tag_564\n        /* \"#utility.yul\":6583:6588   */\n      dup2\n        /* \"#utility.yul\":6566:6589   */\n      tag_565\n      jump\t// in\n    tag_564:\n        /* \"#utility.yul\":6561:6564   */\n      dup3\n        /* \"#utility.yul\":6554:6590   */\n      mstore\n        /* \"#utility.yul\":6481:6596   */\n      pop\n      pop\n      jump\t// out\n        /* \"#utility.yul\":6602:6979   */\n    tag_566:\n        /* \"#utility.yul\":6708:6711   */\n      0x00\n        /* \"#utility.yul\":6736:6775   */\n      tag_568\n        /* \"#utility.yul\":6769:6774   */\n      dup3\n        /* \"#utility.yul\":6736:6775   */\n      tag_569\n      jump\t// in\n    tag_568:\n        /* \"#utility.yul\":6791:6880   */\n      tag_570\n        /* \"#utility.yul\":6873:6879   */\n      dup2\n        /* \"#utility.yul\":6868:6871   */\n      dup6\n        /* \"#utility.yul\":6791:6880   */\n      tag_571\n      jump\t// in\n    tag_570:\n        /* \"#utility.yul\":6784:6880   */\n      swap4\n      pop\n        /* \"#utility.yul\":6889:6941   */\n      tag_572\n        /* \"#utility.yul\":6934:6940   */\n      dup2\n        /* \"#utility.yul\":6929:6932   */\n      dup6\n        /* \"#utility.yul\":6922:6926   */\n      0x20\n        /* \"#utility.yul\":6915:6920   */\n      dup7\n        /* \"#utility.yul\":6911:6927   */\n      add\n        /* \"#utility.yul\":6889:6941   */\n      tag_573\n      jump\t// in\n    tag_572:\n        /* \"#utility.yul\":6966:6972   */\n      dup1\n        /* \"#utility.yul\":6961:6964   */\n      dup5\n        /* \"#utility.yul\":6957:6973   */\n      add\n        /* \"#utility.yul\":6950:6973   */\n      swap2\n      pop\n        /* \"#utility.yul\":6712:6979   */\n      pop\n        /* \"#utility.yul\":6602:6979   */\n      swap3\n      swap2\n      pop\n      pop\n      jump\t// out\n        /* \"#utility.yul\":6985:7351   */\n    tag_574:\n        /* \"#utility.yul\":7127:7130   */\n      0x00\n        /* \"#utility.yul\":7148:7215   */\n      tag_576\n        /* \"#utility.yul\":7212:7214   */\n      0x24\n        /* \"#utility.yul\":7207:7210   */\n      dup4\n        /* \"#utility.yul\":7148:7215   */\n      tag_577\n      jump\t// in\n    tag_576:\n        /* \"#utility.yul\":7141:7215   */\n      swap2\n      pop\n        /* \"#utility.yul\":7224:7317   */\n      tag_578\n        /* \"#utility.yul\":7313:7316   */\n      dup3\n        /* \"#utility.yul\":7224:7317   */\n      tag_579\n      jump\t// in\n    tag_578:\n        /* \"#utility.yul\":7342:7344   */\n      0x40\n        /* \"#utility.yul\":7337:7340   */\n      dup3\n        /* \"#utility.yul\":7333:7345   */\n      add\n        /* \"#utility.yul\":7326:7345   */\n      swap1\n      pop\n        /* \"#utility.yul\":6985:7351   */\n      swap2\n      swap1\n      pop\n      jump\t// out\n        /* \"#utility.yul\":7357:7723   */\n    tag_580:\n        /* \"#utility.yul\":7499:7502   */\n      0x00\n        /* \"#utility.yul\":7520:7587   */\n      tag_582\n        /* \"#utility.yul\":7584:7586   */\n      0x15\n        /* \"#utility.yul\":7579:7582   */\n      dup4\n        /* \"#utility.yul\":7520:7587   */\n      tag_577\n      jump\t// in\n    tag_582:\n        /* \"#utility.yul\":7513:7587   */\n      swap2\n      pop\n        /* \"#utility.yul\":7596:7689   */\n      tag_583\n        /* \"#utility.yul\":7685:7688   */\n      dup3\n        /* \"#utility.yul\":7596:7689   */\n      tag_584\n      jump\t// in\n    tag_583:\n        /* \"#utility.yul\":7714:7716   */\n      0x20\n        /* \"#utility.yul\":7709:7712   */\n      dup3\n        /* \"#utility.yul\":7705:7717   */\n      add\n        /* \"#utility.yul\":7698:7717   */\n      swap1\n      pop\n        /* \"#utility.yul\":7357:7723   */\n      swap2\n      swap1\n      pop\n      jump\t// out\n        /* \"#utility.yul\":7729:8095   */\n    tag_585:\n        /* \"#utility.yul\":7871:7874   */\n      0x00\n        /* \"#utility.yul\":7892:7959   */\n      tag_587\n        /* \"#utility.yul\":7956:7958   */\n      0x1a\n        /* \"#utility.yul\":7951:7954   */\n      dup4\n        /* \"#utility.yul\":7892:7959   */\n      tag_577\n      jump\t// in\n    tag_587:\n        /* \"#utility.yul\":7885:7959   */\n      swap2\n      pop\n        /* \"#utility.yul\":7968:8061   */\n      tag_588\n        /* \"#utility.yul\":8057:8060   */\n      dup3\n        /* \"#utility.yul\":7968:8061   */\n      tag_589\n      jump\t// in\n    tag_588:\n        /* \"#utility.yul\":8086:8088   */\n      0x20\n        /* \"#utility.yul\":8081:8084   */\n      dup3\n        /* \"#utility.yul\":8077:8089   */\n      add\n        /* \"#utility.yul\":8070:8089   */\n      swap1\n      pop\n        /* \"#utility.yul\":7729:8095   */\n      swap2\n      swap1\n      pop\n      jump\t// out\n        /* \"#utility.yul\":8101:8467   */\n    tag_590:\n        /* \"#utility.yul\":8243:8246   */\n      0x00\n        /* \"#utility.yul\":8264:8331   */\n      tag_592\n        /* \"#utility.yul\":8328:8330   */\n      0x15\n        /* \"#utility.yul\":8323:8326   */\n      dup4\n        /* \"#utility.yul\":8264:8331   */\n      tag_577\n      jump\t// in\n    tag_592:\n        /* \"#utility.yul\":8257:8331   */\n      swap2\n      pop\n        /* \"#utility.yul\":8340:8433   */\n      tag_593\n        /* \"#utility.yul\":8429:8432   */\n      dup3\n        /* \"#utility.yul\":8340:8433   */\n      tag_594\n      jump\t// in\n    tag_593:\n        /* \"#utility.yul\":8458:8460   */\n      0x20\n        /* \"#utility.yul\":8453:8456   */\n      dup3\n        /* \"#utility.yul\":8449:8461   */\n      add\n        /* \"#utility.yul\":8442:8461   */\n      swap1\n      pop\n        /* \"#utility.yul\":8101:8467   */\n      swap2\n      swap1\n      pop\n      jump\t// out\n        /* \"#utility.yul\":8473:8873   */\n    tag_595:\n        /* \"#utility.yul\":8633:8636   */\n      0x00\n        /* \"#utility.yul\":8654:8738   */\n      tag_597\n        /* \"#utility.yul\":8736:8737   */\n      0x04\n        /* \"#utility.yul\":8731:8734   */\n      dup4\n        /* \"#utility.yul\":8654:8738   */\n      tag_571\n      jump\t// in\n    tag_597:\n        /* \"#utility.yul\":8647:8738   */\n      swap2\n      pop\n        /* \"#utility.yul\":8747:8840   */\n      tag_598\n        /* \"#utility.yul\":8836:8839   */\n      dup3\n        /* \"#utility.yul\":8747:8840   */\n      tag_599\n      jump\t// in\n    tag_598:\n        /* \"#utility.yul\":8865:8866   */\n      0x04\n        /* \"#utility.yul\":8860:8863   */\n      dup3\n        /* \"#utility.yul\":8856:8867   */\n      add\n        /* \"#utility.yul\":8849:8867   */\n      swap1\n      pop\n        /* \"#utility.yul\":8473:8873   */\n      swap2\n      swap1\n      pop\n      jump\t// out\n        /* \"#utility.yul\":8879:9245   */\n    tag_600:\n        /* \"#utility.yul\":9021:9024   */\n      0x00\n        /* \"#utility.yul\":9042:9109   */\n      tag_602\n        /* \"#utility.yul\":9106:9108   */\n      0x0c\n        /* \"#utility.yul\":9101:9104   */\n      dup4\n        /* \"#utility.yul\":9042:9109   */\n      tag_577\n      jump\t// in\n    tag_602:\n        /* \"#utility.yul\":9035:9109   */\n      swap2\n      pop\n        /* \"#utility.yul\":9118:9211   */\n      tag_603\n        /* \"#utility.yul\":9207:9210   */\n      dup3\n        /* \"#utility.yul\":9118:9211   */\n      tag_604\n      jump\t// in\n    tag_603:\n        /* \"#utility.yul\":9236:9238   */\n      0x20\n        /* \"#utility.yul\":9231:9234   */\n      dup3\n        /* \"#utility.yul\":9227:9239   */\n      add\n        /* \"#utility.yul\":9220:9239   */\n      swap1\n      pop\n        /* \"#utility.yul\":8879:9245   */\n      swap2\n      swap1\n      pop\n      jump\t// out\n        /* \"#utility.yul\":9251:9617   */\n    tag_605:\n        /* \"#utility.yul\":9393:9396   */\n      0x00\n        /* \"#utility.yul\":9414:9481   */\n      tag_607\n        /* \"#utility.yul\":9478:9480   */\n      0x1f\n        /* \"#utility.yul\":9473:9476   */\n      dup4\n        /* \"#utility.yul\":9414:9481   */\n      tag_577\n      jump\t// in\n    tag_607:\n        /* \"#utility.yul\":9407:9481   */\n      swap2\n      pop\n        /* \"#utility.yul\":9490:9583   */\n      tag_608\n        /* \"#utility.yul\":9579:9582   */\n      dup3\n        /* \"#utility.yul\":9490:9583   */\n      tag_609\n      jump\t// in\n    tag_608:\n        /* \"#utility.yul\":9608:9610   */\n      0x20\n        /* \"#utility.yul\":9603:9606   */\n      dup3\n        /* \"#utility.yul\":9599:9611   */\n      add\n        /* \"#utility.yul\":9592:9611   */\n      swap1\n      pop\n        /* \"#utility.yul\":9251:9617   */\n      swap2\n      swap1\n      pop\n      jump\t// out\n        /* \"#utility.yul\":9623:9989   */\n    tag_610:\n        /* \"#utility.yul\":9765:9768   */\n      0x00\n        /* \"#utility.yul\":9786:9853   */\n      tag_612\n        /* \"#utility.yul\":9850:9852   */\n      0x21\n        /* \"#utility.yul\":9845:9848   */\n      dup4\n        /* \"#utility.yul\":9786:9853   */\n      tag_577\n      jump\t// in\n    tag_612:\n        /* \"#utility.yul\":9779:9853   */\n      swap2\n      pop\n        /* \"#utility.yul\":9862:9955   */\n      tag_613\n        /* \"#utility.yul\":9951:9954   */\n      dup3\n        /* \"#utility.yul\":9862:9955   */\n      tag_614\n      jump\t// in\n    tag_613:\n        /* \"#utility.yul\":9980:9982   */\n      0x40\n        /* \"#utility.yul\":9975:9978   */\n      dup3\n        /* \"#utility.yul\":9971:9983   */\n      add\n        /* \"#utility.yul\":9964:9983   */\n      swap1\n      pop\n        /* \"#utility.yul\":9623:9989   */\n      swap2\n      swap1\n      pop\n      jump\t// out\n        /* \"#utility.yul\":9995:10113   */\n    tag_615:\n        /* \"#utility.yul\":10082:10106   */\n      tag_617\n        /* \"#utility.yul\":10100:10105   */\n      dup2\n        /* \"#utility.yul\":10082:10106   */\n      tag_618\n      jump\t// in\n    tag_617:\n        /* \"#utility.yul\":10077:10080   */\n      dup3\n        /* \"#utility.yul\":10070:10107   */\n      mstore\n        /* \"#utility.yul\":9995:10113   */\n      pop\n      pop\n      jump\t// out\n        /* \"#utility.yul\":10119:10394   */\n    tag_325:\n        /* \"#utility.yul\":10251:10254   */\n      0x00\n        /* \"#utility.yul\":10273:10368   */\n      tag_620\n        /* \"#utility.yul\":10364:10367   */\n      dup3\n        /* \"#utility.yul\":10355:10361   */\n      dup5\n        /* \"#utility.yul\":10273:10368   */\n      tag_566\n      jump\t// in\n    tag_620:\n        /* \"#utility.yul\":10266:10368   */\n      swap2\n      pop\n        /* \"#utility.yul\":10385:10388   */\n      dup2\n        /* \"#utility.yul\":10378:10388   */\n      swap1\n      pop\n        /* \"#utility.yul\":10119:10394   */\n      swap3\n      swap2\n      pop\n      pop\n      jump\t// out\n        /* \"#utility.yul\":10400:10781   */\n    tag_382:\n        /* \"#utility.yul\":10585:10588   */\n      0x00\n        /* \"#utility.yul\":10607:10755   */\n      tag_622\n        /* \"#utility.yul\":10751:10754   */\n      dup3\n        /* \"#utility.yul\":10607:10755   */\n      tag_595\n      jump\t// in\n    tag_622:\n        /* \"#utility.yul\":10600:10755   */\n      swap2\n      pop\n        /* \"#utility.yul\":10772:10775   */\n      dup2\n        /* \"#utility.yul\":10765:10775   */\n      swap1\n      pop\n        /* \"#utility.yul\":10400:10781   */\n      swap2\n      swap1\n      pop\n      jump\t// out\n        /* \"#utility.yul\":10787:11009   */\n    tag_57:\n        /* \"#utility.yul\":10880:10884   */\n      0x00\n        /* \"#utility.yul\":10918:10920   */\n      0x20\n        /* \"#utility.yul\":10907:10916   */\n      dup3\n        /* \"#utility.yul\":10903:10921   */\n      add\n        /* \"#utility.yul\":10895:10921   */\n      swap1\n      pop\n        /* \"#utility.yul\":10931:11002   */\n      tag_624\n        /* \"#utility.yul\":10999:11000   */\n      0x00\n        /* \"#utility.yul\":10988:10997   */\n      dup4\n        /* \"#utility.yul\":10984:11001   */\n      add\n        /* \"#utility.yul\":10975:10981   */\n      dup5\n        /* \"#utility.yul\":10931:11002   */\n      tag_554\n      jump\t// in\n    tag_624:\n        /* \"#utility.yul\":10787:11009   */\n      swap3\n      swap2\n      pop\n      pop\n      jump\t// out\n        /* \"#utility.yul\":11015:11457   */\n    tag_448:\n        /* \"#utility.yul\":11164:11168   */\n      0x00\n        /* \"#utility.yul\":11202:11204   */\n      0x60\n        /* \"#utility.yul\":11191:11200   */\n      dup3\n        /* \"#utility.yul\":11187:11205   */\n      add\n        /* \"#utility.yul\":11179:11205   */\n      swap1\n      pop\n        /* \"#utility.yul\":11215:11286   */\n      tag_626\n        /* \"#utility.yul\":11283:11284   */\n      0x00\n        /* \"#utility.yul\":11272:11281   */\n      dup4\n        /* \"#utility.yul\":11268:11285   */\n      add\n        /* \"#utility.yul\":11259:11265   */\n      dup7\n        /* \"#utility.yul\":11215:11286   */\n      tag_554\n      jump\t// in\n    tag_626:\n        /* \"#utility.yul\":11296:11368   */\n      tag_627\n        /* \"#utility.yul\":11364:11366   */\n      0x20\n        /* \"#utility.yul\":11353:11362   */\n      dup4\n        /* \"#utility.yul\":11349:11367   */\n      add\n        /* \"#utility.yul\":11340:11346   */\n      dup6\n        /* \"#utility.yul\":11296:11368   */\n      tag_554\n      jump\t// in\n    tag_627:\n        /* \"#utility.yul\":11378:11450   */\n      tag_628\n        /* \"#utility.yul\":11446:11448   */\n      0x40\n        /* \"#utility.yul\":11435:11444   */\n      dup4\n        /* \"#utility.yul\":11431:11449   */\n      add\n        /* \"#utility.yul\":11422:11428   */\n      dup5\n        /* \"#utility.yul\":11378:11450   */\n      tag_615\n      jump\t// in\n    tag_628:\n        /* \"#utility.yul\":11015:11457   */\n      swap5\n      swap4\n      pop\n      pop\n      pop\n      pop\n      jump\t// out\n        /* \"#utility.yul\":11463:11795   */\n    tag_165:\n        /* \"#utility.yul\":11584:11588   */\n      0x00\n        /* \"#utility.yul\":11622:11624   */\n      0x40\n        /* \"#utility.yul\":11611:11620   */\n      dup3\n        /* \"#utility.yul\":11607:11625   */\n      add\n        /* \"#utility.yul\":11599:11625   */\n      swap1\n      pop\n        /* \"#utility.yul\":11635:11706   */\n      tag_630\n        /* \"#utility.yul\":11703:11704   */\n      0x00\n        /* \"#utility.yul\":11692:11701   */\n      dup4\n        /* \"#utility.yul\":11688:11705   */\n      add\n        /* \"#utility.yul\":11679:11685   */\n      dup6\n        /* \"#utility.yul\":11635:11706   */\n      tag_554\n      jump\t// in\n    tag_630:\n        /* \"#utility.yul\":11716:11788   */\n      tag_631\n        /* \"#utility.yul\":11784:11786   */\n      0x20\n        /* \"#utility.yul\":11773:11782   */\n      dup4\n        /* \"#utility.yul\":11769:11787   */\n      add\n        /* \"#utility.yul\":11760:11766   */\n      dup5\n        /* \"#utility.yul\":11716:11788   */\n      tag_615\n      jump\t// in\n    tag_631:\n        /* \"#utility.yul\":11463:11795   */\n      swap4\n      swap3\n      pop\n      pop\n      pop\n      jump\t// out\n        /* \"#utility.yul\":11801:12053   */\n    tag_99:\n        /* \"#utility.yul\":11909:11913   */\n      0x00\n        /* \"#utility.yul\":11947:11949   */\n      0x20\n        /* \"#utility.yul\":11936:11945   */\n      dup3\n        /* \"#utility.yul\":11932:11950   */\n      add\n        /* \"#utility.yul\":11924:11950   */\n      swap1\n      pop\n        /* \"#utility.yul\":11960:12046   */\n      tag_633\n        /* \"#utility.yul\":12043:12044   */\n      0x00\n        /* \"#utility.yul\":12032:12041   */\n      dup4\n        /* \"#utility.yul\":12028:12045   */\n      add\n        /* \"#utility.yul\":12019:12025   */\n      dup5\n        /* \"#utility.yul\":11960:12046   */\n      tag_558\n      jump\t// in\n    tag_633:\n        /* \"#utility.yul\":11801:12053   */\n      swap3\n      swap2\n      pop\n      pop\n      jump\t// out\n        /* \"#utility.yul\":12059:12277   */\n    tag_137:\n        /* \"#utility.yul\":12150:12154   */\n      0x00\n        /* \"#utility.yul\":12188:12190   */\n      0x20\n        /* \"#utility.yul\":12177:12186   */\n      dup3\n        /* \"#utility.yul\":12173:12191   */\n      add\n        /* \"#utility.yul\":12165:12191   */\n      swap1\n      pop\n        /* \"#utility.yul\":12201:12270   */\n      tag_635\n        /* \"#utility.yul\":12267:12268   */\n      0x00\n        /* \"#utility.yul\":12256:12265   */\n      dup4\n        /* \"#utility.yul\":12252:12269   */\n      add\n        /* \"#utility.yul\":12243:12249   */\n      dup5\n        /* \"#utility.yul\":12201:12270   */\n      tag_562\n      jump\t// in\n    tag_635:\n        /* \"#utility.yul\":12059:12277   */\n      swap3\n      swap2\n      pop\n      pop\n      jump\t// out\n        /* \"#utility.yul\":12283:12702   */\n    tag_268:\n        /* \"#utility.yul\":12449:12453   */\n      0x00\n        /* \"#utility.yul\":12487:12489   */\n      0x20\n        /* \"#utility.yul\":12476:12485   */\n      dup3\n        /* \"#utility.yul\":12472:12490   */\n      add\n        /* \"#utility.yul\":12464:12490   */\n      swap1\n      pop\n        /* \"#utility.yul\":12536:12545   */\n      dup2\n        /* \"#utility.yul\":12530:12534   */\n      dup2\n        /* \"#utility.yul\":12526:12546   */\n      sub\n        /* \"#utility.yul\":12522:12523   */\n      0x00\n        /* \"#utility.yul\":12511:12520   */\n      dup4\n        /* \"#utility.yul\":12507:12524   */\n      add\n        /* \"#utility.yul\":12500:12547   */\n      mstore\n        /* \"#utility.yul\":12564:12695   */\n      tag_637\n        /* \"#utility.yul\":12690:12694   */\n      dup2\n        /* \"#utility.yul\":12564:12695   */\n      tag_574\n      jump\t// in\n    tag_637:\n        /* \"#utility.yul\":12556:12695   */\n      swap1\n      pop\n        /* \"#utility.yul\":12283:12702   */\n      swap2\n      swap1\n      pop\n      jump\t// out\n        /* \"#utility.yul\":12708:13127   */\n    tag_455:\n        /* \"#utility.yul\":12874:12878   */\n      0x00\n        /* \"#utility.yul\":12912:12914   */\n      0x20\n        /* \"#utility.yul\":12901:12910   */\n      dup3\n        /* \"#utility.yul\":12897:12915   */\n      add\n        /* \"#utility.yul\":12889:12915   */\n      swap1\n      pop\n        /* \"#utility.yul\":12961:12970   */\n      dup2\n        /* \"#utility.yul\":12955:12959   */\n      dup2\n        /* \"#utility.yul\":12951:12971   */\n      sub\n        /* \"#utility.yul\":12947:12948   */\n      0x00\n        /* \"#utility.yul\":12936:12945   */\n      dup4\n        /* \"#utility.yul\":12932:12949   */\n      add\n        /* \"#utility.yul\":12925:12972   */\n      mstore\n        /* \"#utility.yul\":12989:13120   */\n      tag_639\n        /* \"#utility.yul\":13115:13119   */\n      dup2\n        /* \"#utility.yul\":12989:13120   */\n      tag_580\n      jump\t// in\n    tag_639:\n        /* \"#utility.yul\":12981:13120   */\n      swap1\n      pop\n        /* \"#utility.yul\":12708:13127   */\n      swap2\n      swap1\n      pop\n      jump\t// out\n        /* \"#utility.yul\":13133:13552   */\n    tag_279:\n        /* \"#utility.yul\":13299:13303   */\n      0x00\n        /* \"#utility.yul\":13337:13339   */\n      0x20\n        /* \"#utility.yul\":13326:13335   */\n      dup3\n        /* \"#utility.yul\":13322:13340   */\n      add\n        /* \"#utility.yul\":13314:13340   */\n      swap1\n      pop\n        /* \"#utility.yul\":13386:13395   */\n      dup2\n        /* \"#utility.yul\":13380:13384   */\n      dup2\n        /* \"#utility.yul\":13376:13396   */\n      sub\n        /* \"#utility.yul\":13372:13373   */\n      0x00\n        /* \"#utility.yul\":13361:13370   */\n      dup4\n        /* \"#utility.yul\":13357:13374   */\n      add\n        /* \"#utility.yul\":13350:13397   */\n      mstore\n        /* \"#utility.yul\":13414:13545   */\n      tag_641\n        /* \"#utility.yul\":13540:13544   */\n      dup2\n        /* \"#utility.yul\":13414:13545   */\n      tag_585\n      jump\t// in\n    tag_641:\n        /* \"#utility.yul\":13406:13545   */\n      swap1\n      pop\n        /* \"#utility.yul\":13133:13552   */\n      swap2\n      swap1\n      pop\n      jump\t// out\n        /* \"#utility.yul\":13558:13977   */\n    tag_328:\n        /* \"#utility.yul\":13724:13728   */\n      0x00\n        /* \"#utility.yul\":13762:13764   */\n      0x20\n        /* \"#utility.yul\":13751:13760   */\n      dup3\n        /* \"#utility.yul\":13747:13765   */\n      add\n        /* \"#utility.yul\":13739:13765   */\n      swap1\n      pop\n        /* \"#utility.yul\":13811:13820   */\n      dup2\n        /* \"#utility.yul\":13805:13809   */\n      dup2\n        /* \"#utility.yul\":13801:13821   */\n      sub\n        /* \"#utility.yul\":13797:13798   */\n      0x00\n        /* \"#utility.yul\":13786:13795   */\n      dup4\n        /* \"#utility.yul\":13782:13799   */\n      add\n        /* \"#utility.yul\":13775:13822   */\n      mstore\n        /* \"#utility.yul\":13839:13970   */\n      tag_643\n        /* \"#utility.yul\":13965:13969   */\n      dup2\n        /* \"#utility.yul\":13839:13970   */\n      tag_590\n      jump\t// in\n    tag_643:\n        /* \"#utility.yul\":13831:13970   */\n      swap1\n      pop\n        /* \"#utility.yul\":13558:13977   */\n      swap2\n      swap1\n      pop\n      jump\t// out\n        /* \"#utility.yul\":13983:14402   */\n    tag_391:\n        /* \"#utility.yul\":14149:14153   */\n      0x00\n        /* \"#utility.yul\":14187:14189   */\n      0x20\n        /* \"#utility.yul\":14176:14185   */\n      dup3\n        /* \"#utility.yul\":14172:14190   */\n      add\n        /* \"#utility.yul\":14164:14190   */\n      swap1\n      pop\n        /* \"#utility.yul\":14236:14245   */\n      dup2\n        /* \"#utility.yul\":14230:14234   */\n      dup2\n        /* \"#utility.yul\":14226:14246   */\n      sub\n        /* \"#utility.yul\":14222:14223   */\n      0x00\n        /* \"#utility.yul\":14211:14220   */\n      dup4\n        /* \"#utility.yul\":14207:14224   */\n      add\n        /* \"#utility.yul\":14200:14247   */\n      mstore\n        /* \"#utility.yul\":14264:14395   */\n      tag_645\n        /* \"#utility.yul\":14390:14394   */\n      dup2\n        /* \"#utility.yul\":14264:14395   */\n      tag_600\n      jump\t// in\n    tag_645:\n        /* \"#utility.yul\":14256:14395   */\n      swap1\n      pop\n        /* \"#utility.yul\":13983:14402   */\n      swap2\n      swap1\n      pop\n      jump\t// out\n        /* \"#utility.yul\":14408:14827   */\n    tag_322:\n        /* \"#utility.yul\":14574:14578   */\n      0x00\n        /* \"#utility.yul\":14612:14614   */\n      0x20\n        /* \"#utility.yul\":14601:14610   */\n      dup3\n        /* \"#utility.yul\":14597:14615   */\n      add\n        /* \"#utility.yul\":14589:14615   */\n      swap1\n      pop\n        /* \"#utility.yul\":14661:14670   */\n      dup2\n        /* \"#utility.yul\":14655:14659   */\n      dup2\n        /* \"#utility.yul\":14651:14671   */\n      sub\n        /* \"#utility.yul\":14647:14648   */\n      0x00\n        /* \"#utility.yul\":14636:14645   */\n      dup4\n        /* \"#utility.yul\":14632:14649   */\n      add\n        /* \"#utility.yul\":14625:14672   */\n      mstore\n        /* \"#utility.yul\":14689:14820   */\n      tag_647\n        /* \"#utility.yul\":14815:14819   */\n      dup2\n        /* \"#utility.yul\":14689:14820   */\n      tag_605\n      jump\t// in\n    tag_647:\n        /* \"#utility.yul\":14681:14820   */\n      swap1\n      pop\n        /* \"#utility.yul\":14408:14827   */\n      swap2\n      swap1\n      pop\n      jump\t// out\n        /* \"#utility.yul\":14833:15252   */\n    tag_462:\n        /* \"#utility.yul\":14999:15003   */\n      0x00\n        /* \"#utility.yul\":15037:15039   */\n      0x20\n        /* \"#utility.yul\":15026:15035   */\n      dup3\n        /* \"#utility.yul\":15022:15040   */\n      add\n        /* \"#utility.yul\":15014:15040   */\n      swap1\n      pop\n        /* \"#utility.yul\":15086:15095   */\n      dup2\n        /* \"#utility.yul\":15080:15084   */\n      dup2\n        /* \"#utility.yul\":15076:15096   */\n      sub\n        /* \"#utility.yul\":15072:15073   */\n      0x00\n        /* \"#utility.yul\":15061:15070   */\n      dup4\n        /* \"#utility.yul\":15057:15074   */\n      add\n        /* \"#utility.yul\":15050:15097   */\n      mstore\n        /* \"#utility.yul\":15114:15245   */\n      tag_649\n        /* \"#utility.yul\":15240:15244   */\n      dup2\n        /* \"#utility.yul\":15114:15245   */\n      tag_610\n      jump\t// in\n    tag_649:\n        /* \"#utility.yul\":15106:15245   */\n      swap1\n      pop\n        /* \"#utility.yul\":14833:15252   */\n      swap2\n      swap1\n      pop\n      jump\t// out\n        /* \"#utility.yul\":15258:15480   */\n    tag_52:\n        /* \"#utility.yul\":15351:15355   */\n      0x00\n        /* \"#utility.yul\":15389:15391   */\n      0x20\n        /* \"#utility.yul\":15378:15387   */\n      dup3\n        /* \"#utility.yul\":15374:15392   */\n      add\n        /* \"#utility.yul\":15366:15392   */\n      swap1\n      pop\n        /* \"#utility.yul\":15402:15473   */\n      tag_651\n        /* \"#utility.yul\":15470:15471   */\n      0x00\n        /* \"#utility.yul\":15459:15468   */\n      dup4\n        /* \"#utility.yul\":15455:15472   */\n      add\n        /* \"#utility.yul\":15446:15452   */\n      dup5\n        /* \"#utility.yul\":15402:15473   */\n      tag_615\n      jump\t// in\n    tag_651:\n        /* \"#utility.yul\":15258:15480   */\n      swap3\n      swap2\n      pop\n      pop\n      jump\t// out\n        /* \"#utility.yul\":15486:15818   */\n    tag_72:\n        /* \"#utility.yul\":15607:15611   */\n      0x00\n        /* \"#utility.yul\":15645:15647   */\n      0x40\n        /* \"#utility.yul\":15634:15643   */\n      dup3\n        /* \"#utility.yul\":15630:15648   */\n      add\n        /* \"#utility.yul\":15622:15648   */\n      swap1\n      pop\n        /* \"#utility.yul\":15658:15729   */\n      tag_653\n        /* \"#utility.yul\":15726:15727   */\n      0x00\n        /* \"#utility.yul\":15715:15724   */\n      dup4\n        /* \"#utility.yul\":15711:15728   */\n      add\n        /* \"#utility.yul\":15702:15708   */\n      dup6\n        /* \"#utility.yul\":15658:15729   */\n      tag_615\n      jump\t// in\n    tag_653:\n        /* \"#utility.yul\":15739:15811   */\n      tag_654\n        /* \"#utility.yul\":15807:15809   */\n      0x20\n        /* \"#utility.yul\":15796:15805   */\n      dup4\n        /* \"#utility.yul\":15792:15810   */\n      add\n        /* \"#utility.yul\":15783:15789   */\n      dup5\n        /* \"#utility.yul\":15739:15811   */\n      tag_615\n      jump\t// in\n    tag_654:\n        /* \"#utility.yul\":15486:15818   */\n      swap4\n      swap3\n      pop\n      pop\n      pop\n      jump\t// out\n        /* \"#utility.yul\":15824:15953   */\n    tag_473:\n        /* \"#utility.yul\":15858:15864   */\n      0x00\n        /* \"#utility.yul\":15885:15905   */\n      tag_656\n      tag_657\n      jump\t// in\n    tag_656:\n        /* \"#utility.yul\":15875:15905   */\n      swap1\n      pop\n        /* \"#utility.yul\":15914:15947   */\n      tag_658\n        /* \"#utility.yul\":15942:15946   */\n      dup3\n        /* \"#utility.yul\":15934:15940   */\n      dup3\n        /* \"#utility.yul\":15914:15947   */\n      tag_659\n      jump\t// in\n    tag_658:\n        /* \"#utility.yul\":15824:15953   */\n      swap2\n      swap1\n      pop\n      jump\t// out\n        /* \"#utility.yul\":15959:16034   */\n    tag_657:\n        /* \"#utility.yul\":15992:15998   */\n      0x00\n        /* \"#utility.yul\":16025:16027   */\n      0x40\n        /* \"#utility.yul\":16019:16028   */\n      mload\n        /* \"#utility.yul\":16009:16028   */\n      swap1\n      pop\n        /* \"#utility.yul\":15959:16034   */\n      swap1\n      jump\t// out\n        /* \"#utility.yul\":16040:16348   */\n    tag_472:\n        /* \"#utility.yul\":16102:16106   */\n      0x00\n        /* \"#utility.yul\":16192:16210   */\n      0xffffffffffffffff\n        /* \"#utility.yul\":16184:16190   */\n      dup3\n        /* \"#utility.yul\":16181:16211   */\n      gt\n        /* \"#utility.yul\":16178:16234   */\n      iszero\n      tag_662\n      jumpi\n        /* \"#utility.yul\":16214:16232   */\n      tag_663\n      tag_664\n      jump\t// in\n    tag_663:\n        /* \"#utility.yul\":16178:16234   */\n    tag_662:\n        /* \"#utility.yul\":16252:16281   */\n      tag_665\n        /* \"#utility.yul\":16274:16280   */\n      dup3\n        /* \"#utility.yul\":16252:16281   */\n      tag_666\n      jump\t// in\n    tag_665:\n        /* \"#utility.yul\":16244:16281   */\n      swap1\n      pop\n        /* \"#utility.yul\":16336:16340   */\n      0x20\n        /* \"#utility.yul\":16330:16334   */\n      dup2\n        /* \"#utility.yul\":16326:16341   */\n      add\n        /* \"#utility.yul\":16318:16341   */\n      swap1\n      pop\n        /* \"#utility.yul\":16040:16348   */\n      swap2\n      swap1\n      pop\n      jump\t// out\n        /* \"#utility.yul\":16354:16453   */\n    tag_569:\n        /* \"#utility.yul\":16406:16412   */\n      0x00\n        /* \"#utility.yul\":16440:16445   */\n      dup2\n        /* \"#utility.yul\":16434:16446   */\n      mload\n        /* \"#utility.yul\":16424:16446   */\n      swap1\n      pop\n        /* \"#utility.yul\":16354:16453   */\n      swap2\n      swap1\n      pop\n      jump\t// out\n        /* \"#utility.yul\":16459:16628   */\n    tag_577:\n        /* \"#utility.yul\":16543:16554   */\n      0x00\n        /* \"#utility.yul\":16577:16583   */\n      dup3\n        /* \"#utility.yul\":16572:16575   */\n      dup3\n        /* \"#utility.yul\":16565:16584   */\n      mstore\n        /* \"#utility.yul\":16617:16621   */\n      0x20\n        /* \"#utility.yul\":16612:16615   */\n      dup3\n        /* \"#utility.yul\":16608:16622   */\n      add\n        /* \"#utility.yul\":16593:16622   */\n      swap1\n      pop\n        /* \"#utility.yul\":16459:16628   */\n      swap3\n      swap2\n      pop\n      pop\n      jump\t// out\n        /* \"#utility.yul\":16634:16782   */\n    tag_571:\n        /* \"#utility.yul\":16736:16747   */\n      0x00\n        /* \"#utility.yul\":16773:16776   */\n      dup2\n        /* \"#utility.yul\":16758:16776   */\n      swap1\n      pop\n        /* \"#utility.yul\":16634:16782   */\n      swap3\n      swap2\n      pop\n      pop\n      jump\t// out\n        /* \"#utility.yul\":16788:17093   */\n    tag_231:\n        /* \"#utility.yul\":16828:16831   */\n      0x00\n        /* \"#utility.yul\":16847:16867   */\n      tag_671\n        /* \"#utility.yul\":16865:16866   */\n      dup3\n        /* \"#utility.yul\":16847:16867   */\n      tag_618\n      jump\t// in\n    tag_671:\n        /* \"#utility.yul\":16842:16867   */\n      swap2\n      pop\n        /* \"#utility.yul\":16881:16901   */\n      tag_672\n        /* \"#utility.yul\":16899:16900   */\n      dup4\n        /* \"#utility.yul\":16881:16901   */\n      tag_618\n      jump\t// in\n    tag_672:\n        /* \"#utility.yul\":16876:16901   */\n      swap3\n      pop\n        /* \"#utility.yul\":17035:17036   */\n      dup3\n        /* \"#utility.yul\":16967:17033   */\n      0xffffffffffffffffffffffffffffffffffffffffffffffffffffffffffffffff\n        /* \"#utility.yul\":16963:17037   */\n      sub\n        /* \"#utility.yul\":16960:16961   */\n      dup3\n        /* \"#utility.yul\":16957:17038   */\n      gt\n        /* \"#utility.yul\":16954:17061   */\n      iszero\n      tag_673\n      jumpi\n        /* \"#utility.yul\":17041:17059   */\n      tag_674\n      tag_675\n      jump\t// in\n    tag_674:\n        /* \"#utility.yul\":16954:17061   */\n    tag_673:\n        /* \"#utility.yul\":17085:17086   */\n      dup3\n        /* \"#utility.yul\":17082:17083   */\n      dup3\n        /* \"#utility.yul\":17078:17087   */\n      add\n        /* \"#utility.yul\":17071:17087   */\n      swap1\n      pop\n        /* \"#utility.yul\":16788:17093   */\n      swap3\n      swap2\n      pop\n      pop\n      jump\t// out\n        /* \"#utility.yul\":17099:17284   */\n    tag_235:\n        /* \"#utility.yul\":17139:17140   */\n      0x00\n        /* \"#utility.yul\":17156:17176   */\n      tag_677\n        /* \"#utility.yul\":17174:17175   */\n      dup3\n        /* \"#utility.yul\":17156:17176   */\n      tag_618\n      jump\t// in\n    tag_677:\n        /* \"#utility.yul\":17151:17176   */\n      swap2\n      pop\n        /* \"#utility.yul\":17190:17210   */\n      tag_678\n        /* \"#utility.yul\":17208:17209   */\n      dup4\n        /* \"#utility.yul\":17190:17210   */\n      tag_618\n      jump\t// in\n    tag_678:\n        /* \"#utility.yul\":17185:17210   */\n      swap3\n      pop\n        /* \"#utility.yul\":17229:17230   */\n      dup3\n        /* \"#utility.yul\":17219:17254   */\n      tag_679\n      jumpi\n        /* \"#utility.yul\":17234:17252   */\n      tag_680\n      tag_681\n      jump\t// in\n    tag_680:\n        /* \"#utility.yul\":17219:17254   */\n    tag_679:\n        /* \"#utility.yul\":17276:17277   */\n      dup3\n        /* \"#utility.yul\":17273:17274   */\n      dup3\n        /* \"#utility.yul\":17269:17278   */\n      div\n        /* \"#utility.yul\":17264:17278   */\n      swap1\n      pop\n        /* \"#utility.yul\":17099:17284   */\n      swap3\n      swap2\n      pop\n      pop\n      jump\t// out\n        /* \"#utility.yul\":17290:17638   */\n    tag_343:\n        /* \"#utility.yul\":17330:17337   */\n      0x00\n        /* \"#utility.yul\":17353:17373   */\n      tag_683\n        /* \"#utility.yul\":17371:17372   */\n      dup3\n        /* \"#utility.yul\":17353:17373   */\n      tag_618\n      jump\t// in\n    tag_683:\n        /* \"#utility.yul\":17348:17373   */\n      swap2\n      pop\n        /* \"#utility.yul\":17387:17407   */\n      tag_684\n        /* \"#utility.yul\":17405:17406   */\n      dup4\n        /* \"#utility.yul\":17387:17407   */\n      tag_618\n      jump\t// in\n    tag_684:\n        /* \"#utility.yul\":17382:17407   */\n      swap3\n      pop\n        /* \"#utility.yul\":17575:17576   */\n      dup2\n        /* \"#utility.yul\":17507:17573   */\n      0xffffffffffffffffffffffffffffffffffffffffffffffffffffffffffffffff\n        /* \"#utility.yul\":17503:17577   */\n      div\n        /* \"#utility.yul\":17500:17501   */\n      dup4\n        /* \"#utility.yul\":17497:17578   */\n      gt\n        /* \"#utility.yul\":17492:17493   */\n      dup3\n        /* \"#utility.yul\":17485:17494   */\n      iszero\n        /* \"#utility.yul\":17478:17495   */\n      iszero\n        /* \"#utility.yul\":17474:17579   */\n      and\n        /* \"#utility.yul\":17471:17602   */\n      iszero\n      tag_685\n      jumpi\n        /* \"#utility.yul\":17582:17600   */\n      tag_686\n      tag_675\n      jump\t// in\n    tag_686:\n        /* \"#utility.yul\":17471:17602   */\n    tag_685:\n        /* \"#utility.yul\":17630:17631   */\n      dup3\n        /* \"#utility.yul\":17627:17628   */\n      dup3\n        /* \"#utility.yul\":17623:17632   */\n      mul\n        /* \"#utility.yul\":17612:17632   */\n      swap1\n      pop\n        /* \"#utility.yul\":17290:17638   */\n      swap3\n      swap2\n      pop\n      pop\n      jump\t// out\n        /* \"#utility.yul\":17644:17835   */\n    tag_237:\n        /* \"#utility.yul\":17684:17688   */\n      0x00\n        /* \"#utility.yul\":17704:17724   */\n      tag_688\n        /* \"#utility.yul\":17722:17723   */\n      dup3\n        /* \"#utility.yul\":17704:17724   */\n      tag_618\n      jump\t// in\n    tag_688:\n        /* \"#utility.yul\":17699:17724   */\n      swap2\n      pop\n        /* \"#utility.yul\":17738:17758   */\n      tag_689\n        /* \"#utility.yul\":17756:17757   */\n      dup4\n        /* \"#utility.yul\":17738:17758   */\n      tag_618\n      jump\t// in\n    tag_689:\n        /* \"#utility.yul\":17733:17758   */\n      swap3\n      pop\n        /* \"#utility.yul\":17777:17778   */\n      dup3\n        /* \"#utility.yul\":17774:17775   */\n      dup3\n        /* \"#utility.yul\":17771:17779   */\n      lt\n        /* \"#utility.yul\":17768:17802   */\n      iszero\n      tag_690\n      jumpi\n        /* \"#utility.yul\":17782:17800   */\n      tag_691\n      tag_675\n      jump\t// in\n    tag_691:\n        /* \"#utility.yul\":17768:17802   */\n    tag_690:\n        /* \"#utility.yul\":17827:17828   */\n      dup3\n        /* \"#utility.yul\":17824:17825   */\n      dup3\n        /* \"#utility.yul\":17820:17829   */\n      sub\n        /* \"#utility.yul\":17812:17829   */\n      swap1\n      pop\n        /* \"#utility.yul\":17644:17835   */\n      swap3\n      swap2\n      pop\n      pop\n      jump\t// out\n        /* \"#utility.yul\":17841:17937   */\n    tag_557:\n        /* \"#utility.yul\":17878:17885   */\n      0x00\n        /* \"#utility.yul\":17907:17931   */\n      tag_693\n        /* \"#utility.yul\":17925:17930   */\n      dup3\n        /* \"#utility.yul\":17907:17931   */\n      tag_694\n      jump\t// in\n    tag_693:\n        /* \"#utility.yul\":17896:17931   */\n      swap1\n      pop\n        /* \"#utility.yul\":17841:17937   */\n      swap2\n      swap1\n      pop\n      jump\t// out\n        /* \"#utility.yul\":17943:18033   */\n    tag_695:\n        /* \"#utility.yul\":17977:17984   */\n      0x00\n        /* \"#utility.yul\":18020:18025   */\n      dup2\n        /* \"#utility.yul\":18013:18026   */\n      iszero\n        /* \"#utility.yul\":18006:18027   */\n      iszero\n        /* \"#utility.yul\":17995:18027   */\n      swap1\n      pop\n        /* \"#utility.yul\":17943:18033   */\n      swap2\n      swap1\n      pop\n      jump\t// out\n        /* \"#utility.yul\":18039:18131   */\n    tag_565:\n        /* \"#utility.yul\":18075:18082   */\n      0x00\n        /* \"#utility.yul\":18119:18124   */\n      dup2\n        /* \"#utility.yul\":18115:18117   */\n      0x0f\n        /* \"#utility.yul\":18104:18125   */\n      signextend\n        /* \"#utility.yul\":18093:18125   */\n      swap1\n      pop\n        /* \"#utility.yul\":18039:18131   */\n      swap2\n      swap1\n      pop\n      jump\t// out\n        /* \"#utility.yul\":18137:18263   */\n    tag_694:\n        /* \"#utility.yul\":18174:18181   */\n      0x00\n        /* \"#utility.yul\":18214:18256   */\n      0xffffffffffffffffffffffffffffffffffffffff\n        /* \"#utility.yul\":18207:18212   */\n      dup3\n        /* \"#utility.yul\":18203:18257   */\n      and\n        /* \"#utility.yul\":18192:18257   */\n      swap1\n      pop\n        /* \"#utility.yul\":18137:18263   */\n      swap2\n      swap1\n      pop\n      jump\t// out\n        /* \"#utility.yul\":18269:18346   */\n    tag_618:\n        /* \"#utility.yul\":18306:18313   */\n      0x00\n        /* \"#utility.yul\":18335:18340   */\n      dup2\n        /* \"#utility.yul\":18324:18340   */\n      swap1\n      pop\n        /* \"#utility.yul\":18269:18346   */\n      swap2\n      swap1\n      pop\n      jump\t// out\n        /* \"#utility.yul\":18352:18493   */\n    tag_561:\n        /* \"#utility.yul\":18417:18426   */\n      0x00\n        /* \"#utility.yul\":18450:18487   */\n      tag_701\n        /* \"#utility.yul\":18481:18486   */\n      dup3\n        /* \"#utility.yul\":18450:18487   */\n      tag_702\n      jump\t// in\n    tag_701:\n        /* \"#utility.yul\":18437:18487   */\n      swap1\n      pop\n        /* \"#utility.yul\":18352:18493   */\n      swap2\n      swap1\n      pop\n      jump\t// out\n        /* \"#utility.yul\":18499:18625   */\n    tag_702:\n        /* \"#utility.yul\":18549:18558   */\n      0x00\n        /* \"#utility.yul\":18582:18619   */\n      tag_704\n        /* \"#utility.yul\":18613:18618   */\n      dup3\n        /* \"#utility.yul\":18582:18619   */\n      tag_705\n      jump\t// in\n    tag_704:\n        /* \"#utility.yul\":18569:18619   */\n      swap1\n      pop\n        /* \"#utility.yul\":18499:18625   */\n      swap2\n      swap1\n      pop\n      jump\t// out\n        /* \"#utility.yul\":18631:18744   */\n    tag_705:\n        /* \"#utility.yul\":18681:18690   */\n      0x00\n        /* \"#utility.yul\":18714:18738   */\n      tag_707\n        /* \"#utility.yul\":18732:18737   */\n      dup3\n        /* \"#utility.yul\":18714:18738   */\n      tag_694\n      jump\t// in\n    tag_707:\n        /* \"#utility.yul\":18701:18738   */\n      swap1\n      pop\n        /* \"#utility.yul\":18631:18744   */\n      swap2\n      swap1\n      pop\n      jump\t// out\n        /* \"#utility.yul\":18750:18904   */\n    tag_478:\n        /* \"#utility.yul\":18834:18840   */\n      dup3\n        /* \"#utility.yul\":18829:18832   */\n      dup2\n        /* \"#utility.yul\":18824:18827   */\n      dup4\n        /* \"#utility.yul\":18811:18841   */\n      calldatacopy\n        /* \"#utility.yul\":18896:18897   */\n      0x00\n        /* \"#utility.yul\":18887:18893   */\n      dup4\n        /* \"#utility.yul\":18882:18885   */\n      dup4\n        /* \"#utility.yul\":18878:18894   */\n      add\n        /* \"#utility.yul\":18871:18898   */\n      mstore\n        /* \"#utility.yul\":18750:18904   */\n      pop\n      pop\n      pop\n      jump\t// out\n        /* \"#utility.yul\":18910:19217   */\n    tag_573:\n        /* \"#utility.yul\":18978:18979   */\n      0x00\n        /* \"#utility.yul\":18988:19101   */\n    tag_710:\n        /* \"#utility.yul\":19002:19008   */\n      dup4\n        /* \"#utility.yul\":18999:19000   */\n      dup2\n        /* \"#utility.yul\":18996:19009   */\n      lt\n        /* \"#utility.yul\":18988:19101   */\n      iszero\n      tag_712\n      jumpi\n        /* \"#utility.yul\":19087:19088   */\n      dup1\n        /* \"#utility.yul\":19082:19085   */\n      dup3\n        /* \"#utility.yul\":19078:19089   */\n      add\n        /* \"#utility.yul\":19072:19090   */\n      mload\n        /* \"#utility.yul\":19068:19069   */\n      dup2\n        /* \"#utility.yul\":19063:19066   */\n      dup5\n        /* \"#utility.yul\":19059:19070   */\n      add\n        /* \"#utility.yul\":19052:19091   */\n      mstore\n        /* \"#utility.yul\":19024:19026   */\n      0x20\n        /* \"#utility.yul\":19021:19022   */\n      dup2\n        /* \"#utility.yul\":19017:19027   */\n      add\n        /* \"#utility.yul\":19012:19027   */\n      swap1\n      pop\n        /* \"#utility.yul\":18988:19101   */\n      jump(tag_710)\n    tag_712:\n        /* \"#utility.yul\":19119:19125   */\n      dup4\n        /* \"#utility.yul\":19116:19117   */\n      dup2\n        /* \"#utility.yul\":19113:19126   */\n      gt\n        /* \"#utility.yul\":19110:19211   */\n      iszero\n      tag_713\n      jumpi\n        /* \"#utility.yul\":19199:19200   */\n      0x00\n        /* \"#utility.yul\":19190:19196   */\n      dup5\n        /* \"#utility.yul\":19185:19188   */\n      dup5\n        /* \"#utility.yul\":19181:19197   */\n      add\n        /* \"#utility.yul\":19174:19201   */\n      mstore\n        /* \"#utility.yul\":19110:19211   */\n    tag_713:\n        /* \"#utility.yul\":18959:19217   */\n      pop\n        /* \"#utility.yul\":18910:19217   */\n      pop\n      pop\n      pop\n      jump\t// out\n        /* \"#utility.yul\":19223:19504   */\n    tag_659:\n        /* \"#utility.yul\":19306:19333   */\n      tag_715\n        /* \"#utility.yul\":19328:19332   */\n      dup3\n        /* \"#utility.yul\":19306:19333   */\n      tag_666\n      jump\t// in\n    tag_715:\n        /* \"#utility.yul\":19298:19304   */\n      dup2\n        /* \"#utility.yul\":19294:19334   */\n      add\n        /* \"#utility.yul\":19436:19442   */\n      dup2\n        /* \"#utility.yul\":19424:19434   */\n      dup2\n        /* \"#utility.yul\":19421:19443   */\n      lt\n        /* \"#utility.yul\":19400:19418   */\n      0xffffffffffffffff\n        /* \"#utility.yul\":19388:19398   */\n      dup3\n        /* \"#utility.yul\":19385:19419   */\n      gt\n        /* \"#utility.yul\":19382:19444   */\n      or\n        /* \"#utility.yul\":19379:19467   */\n      iszero\n      tag_716\n      jumpi\n        /* \"#utility.yul\":19447:19465   */\n      tag_717\n      tag_664\n      jump\t// in\n    tag_717:\n        /* \"#utility.yul\":19379:19467   */\n    tag_716:\n        /* \"#utility.yul\":19487:19497   */\n      dup1\n        /* \"#utility.yul\":19483:19485   */\n      0x40\n        /* \"#utility.yul\":19476:19498   */\n      mstore\n        /* \"#utility.yul\":19266:19504   */\n      pop\n        /* \"#utility.yul\":19223:19504   */\n      pop\n      pop\n      jump\t// out\n        /* \"#utility.yul\":19510:19743   */\n    tag_247:\n        /* \"#utility.yul\":19549:19552   */\n      0x00\n        /* \"#utility.yul\":19572:19596   */\n      tag_719\n        /* \"#utility.yul\":19590:19595   */\n      dup3\n        /* \"#utility.yul\":19572:19596   */\n      tag_618\n      jump\t// in\n    tag_719:\n        /* \"#utility.yul\":19563:19596   */\n      swap2\n      pop\n        /* \"#utility.yul\":19618:19684   */\n      0xffffffffffffffffffffffffffffffffffffffffffffffffffffffffffffffff\n        /* \"#utility.yul\":19611:19616   */\n      dup3\n        /* \"#utility.yul\":19608:19685   */\n      eq\n        /* \"#utility.yul\":19605:19708   */\n      iszero\n      tag_720\n      jumpi\n        /* \"#utility.yul\":19688:19706   */\n      tag_721\n      tag_675\n      jump\t// in\n    tag_721:\n        /* \"#utility.yul\":19605:19708   */\n    tag_720:\n        /* \"#utility.yul\":19735:19736   */\n      0x01\n        /* \"#utility.yul\":19728:19733   */\n      dup3\n        /* \"#utility.yul\":19724:19737   */\n      add\n        /* \"#utility.yul\":19717:19737   */\n      swap1\n      pop\n        /* \"#utility.yul\":19510:19743   */\n      swap2\n      swap1\n      pop\n      jump\t// out\n        /* \"#utility.yul\":19749:19929   */\n    tag_675:\n        /* \"#utility.yul\":19797:19874   */\n      0x4e487b7100000000000000000000000000000000000000000000000000000000\n        /* \"#utility.yul\":19794:19795   */\n      0x00\n        /* \"#utility.yul\":19787:19875   */\n      mstore\n        /* \"#utility.yul\":19894:19898   */\n      0x11\n        /* \"#utility.yul\":19891:19892   */\n      0x04\n        /* \"#utility.yul\":19884:19899   */\n      mstore\n        /* \"#utility.yul\":19918:19922   */\n      0x24\n        /* \"#utility.yul\":19915:19916   */\n      0x00\n        /* \"#utility.yul\":19908:19923   */\n      revert\n        /* \"#utility.yul\":19935:20115   */\n    tag_681:\n        /* \"#utility.yul\":19983:20060   */\n      0x4e487b7100000000000000000000000000000000000000000000000000000000\n        /* \"#utility.yul\":19980:19981   */\n      0x00\n        /* \"#utility.yul\":19973:20061   */\n      mstore\n        /* \"#utility.yul\":20080:20084   */\n      0x12\n        /* \"#utility.yul\":20077:20078   */\n      0x04\n        /* \"#utility.yul\":20070:20085   */\n      mstore\n        /* \"#utility.yul\":20104:20108   */\n      0x24\n        /* \"#utility.yul\":20101:20102   */\n      0x00\n        /* \"#utility.yul\":20094:20109   */\n      revert\n        /* \"#utility.yul\":20121:20301   */\n    tag_664:\n        /* \"#utility.yul\":20169:20246   */\n      0x4e487b7100000000000000000000000000000000000000000000000000000000\n        /* \"#utility.yul\":20166:20167   */\n      0x00\n        /* \"#utility.yul\":20159:20247   */\n      mstore\n        /* \"#utility.yul\":20266:20270   */\n      0x41\n        /* \"#utility.yul\":20263:20264   */\n      0x04\n        /* \"#utility.yul\":20256:20271   */\n      mstore\n        /* \"#utility.yul\":20290:20294   */\n      0x24\n        /* \"#utility.yul\":20287:20288   */\n      0x00\n        /* \"#utility.yul\":20280:20295   */\n      revert\n        /* \"#utility.yul\":20307:20424   */\n    tag_491:\n        /* \"#utility.yul\":20416:20417   */\n      0x00\n        /* \"#utility.yul\":20413:20414   */\n      dup1\n        /* \"#utility.yul\":20406:20418   */\n      revert\n        /* \"#utility.yul\":20430:20547   */\n    tag_476:\n        /* \"#utility.yul\":20539:20540   */\n      0x00\n        /* \"#utility.yul\":20536:20537   */\n      dup1\n        /* \"#utility.yul\":20529:20541   */\n      revert\n        /* \"#utility.yul\":20553:20670   */\n    tag_511:\n        /* \"#utility.yul\":20662:20663   */\n      0x00\n        /* \"#utility.yul\":20659:20660   */\n      dup1\n        /* \"#utility.yul\":20652:20664   */\n      revert\n        /* \"#utility.yul\":20676:20793   */\n    tag_503:\n        /* \"#utility.yul\":20785:20786   */\n      0x00\n        /* \"#utility.yul\":20782:20783   */\n      dup1\n        /* \"#utility.yul\":20775:20787   */\n      revert\n        /* \"#utility.yul\":20799:20901   */\n    tag_666:\n        /* \"#utility.yul\":20840:20846   */\n      0x00\n        /* \"#utility.yul\":20891:20893   */\n      0x1f\n        /* \"#utility.yul\":20887:20894   */\n      not\n        /* \"#utility.yul\":20882:20884   */\n      0x1f\n        /* \"#utility.yul\":20875:20880   */\n      dup4\n        /* \"#utility.yul\":20871:20885   */\n      add\n        /* \"#utility.yul\":20867:20895   */\n      and\n        /* \"#utility.yul\":20857:20895   */\n      swap1\n      pop\n        /* \"#utility.yul\":20799:20901   */\n      swap2\n      swap1\n      pop\n      jump\t// out\n        /* \"#utility.yul\":20907:21130   */\n    tag_579:\n        /* \"#utility.yul\":21047:21081   */\n      0x596f7520646f6e7420686176652074686174206d75636820746f207769746864\n        /* \"#utility.yul\":21043:21044   */\n      0x00\n        /* \"#utility.yul\":21035:21041   */\n      dup3\n        /* \"#utility.yul\":21031:21045   */\n      add\n        /* \"#utility.yul\":21024:21082   */\n      mstore\n        /* \"#utility.yul\":21116:21122   */\n      0x7261772100000000000000000000000000000000000000000000000000000000\n        /* \"#utility.yul\":21111:21113   */\n      0x20\n        /* \"#utility.yul\":21103:21109   */\n      dup3\n        /* \"#utility.yul\":21099:21114   */\n      add\n        /* \"#utility.yul\":21092:21123   */\n      mstore\n        /* \"#utility.yul\":20907:21130   */\n      pop\n      jump\t// out\n        /* \"#utility.yul\":21136:21307   */\n    tag_584:\n        /* \"#utility.yul\":21276:21299   */\n      0x546f6b656e207472616e73666572206661696c65640000000000000000000000\n        /* \"#utility.yul\":21272:21273   */\n      0x00\n        /* \"#utility.yul\":21264:21270   */\n      dup3\n        /* \"#utility.yul\":21260:21274   */\n      add\n        /* \"#utility.yul\":21253:21300   */\n      mstore\n        /* \"#utility.yul\":21136:21307   */\n      pop\n      jump\t// out\n        /* \"#utility.yul\":21313:21489   */\n    tag_589:\n        /* \"#utility.yul\":21453:21481   */\n      0x596f7520646f6e742068617665207468617420616d6f756e7421000000000000\n        /* \"#utility.yul\":21449:21450   */\n      0x00\n        /* \"#utility.yul\":21441:21447   */\n      dup3\n        /* \"#utility.yul\":21437:21451   */\n      add\n        /* \"#utility.yul\":21430:21482   */\n      mstore\n        /* \"#utility.yul\":21313:21489   */\n      pop\n      jump\t// out\n        /* \"#utility.yul\":21495:21666   */\n    tag_594:\n        /* \"#utility.yul\":21635:21658   */\n      0x506572207472616e73616374696f6e206c696d69740000000000000000000000\n        /* \"#utility.yul\":21631:21632   */\n      0x00\n        /* \"#utility.yul\":21623:21629   */\n      dup3\n        /* \"#utility.yul\":21619:21633   */\n      add\n        /* \"#utility.yul\":21612:21659   */\n      mstore\n        /* \"#utility.yul\":21495:21666   */\n      pop\n      jump\t// out\n        /* \"#utility.yul\":21672:21826   */\n    tag_599:\n        /* \"#utility.yul\":21812:21818   */\n      0x5553444300000000000000000000000000000000000000000000000000000000\n        /* \"#utility.yul\":21808:21809   */\n      0x00\n        /* \"#utility.yul\":21800:21806   */\n      dup3\n        /* \"#utility.yul\":21796:21810   */\n      add\n        /* \"#utility.yul\":21789:21819   */\n      mstore\n        /* \"#utility.yul\":21672:21826   */\n      pop\n      jump\t// out\n        /* \"#utility.yul\":21832:21994   */\n    tag_604:\n        /* \"#utility.yul\":21972:21986   */\n      0x4e6f7420756e6c6f636b65640000000000000000000000000000000000000000\n        /* \"#utility.yul\":21968:21969   */\n      0x00\n        /* \"#utility.yul\":21960:21966   */\n      dup3\n        /* \"#utility.yul\":21956:21970   */\n      add\n        /* \"#utility.yul\":21949:21987   */\n      mstore\n        /* \"#utility.yul\":21832:21994   */\n      pop\n      jump\t// out\n        /* \"#utility.yul\":22000:22181   */\n    tag_609:\n        /* \"#utility.yul\":22140:22173   */\n      0x5265656e7472616e637947756172643a207265656e7472616e742063616c6c00\n        /* \"#utility.yul\":22136:22137   */\n      0x00\n        /* \"#utility.yul\":22128:22134   */\n      dup3\n        /* \"#utility.yul\":22124:22138   */\n      add\n        /* \"#utility.yul\":22117:22174   */\n      mstore\n        /* \"#utility.yul\":22000:22181   */\n      pop\n      jump\t// out\n        /* \"#utility.yul\":22187:22407   */\n    tag_614:\n        /* \"#utility.yul\":22327:22361   */\n      0x75696e74206f766572666c6f772066726f6d206d756c7469706c69636174696f\n        /* \"#utility.yul\":22323:22324   */\n      0x00\n        /* \"#utility.yul\":22315:22321   */\n      dup3\n        /* \"#utility.yul\":22311:22325   */\n      add\n        /* \"#utility.yul\":22304:22362   */\n      mstore\n        /* \"#utility.yul\":22396:22399   */\n      0x6e00000000000000000000000000000000000000000000000000000000000000\n        /* \"#utility.yul\":22391:22393   */\n      0x20\n        /* \"#utility.yul\":22383:22389   */\n      dup3\n        /* \"#utility.yul\":22379:22394   */\n      add\n        /* \"#utility.yul\":22372:22400   */\n      mstore\n        /* \"#utility.yul\":22187:22407   */\n      pop\n      jump\t// out\n        /* \"#utility.yul\":22413:22535   */\n    tag_482:\n        /* \"#utility.yul\":22486:22510   */\n      tag_739\n        /* \"#utility.yul\":22504:22509   */\n      dup2\n        /* \"#utility.yul\":22486:22510   */\n      tag_557\n      jump\t// in\n    tag_739:\n        /* \"#utility.yul\":22479:22484   */\n      dup2\n        /* \"#utility.yul\":22476:22511   */\n      eq\n        /* \"#utility.yul\":22466:22529   */\n      tag_740\n      jumpi\n        /* \"#utility.yul\":22525:22526   */\n      0x00\n        /* \"#utility.yul\":22522:22523   */\n      dup1\n        /* \"#utility.yul\":22515:22527   */\n      revert\n        /* \"#utility.yul\":22466:22529   */\n    tag_740:\n        /* \"#utility.yul\":22413:22535   */\n      pop\n      jump\t// out\n        /* \"#utility.yul\":22541:22657   */\n    tag_486:\n        /* \"#utility.yul\":22611:22632   */\n      tag_742\n        /* \"#utility.yul\":22626:22631   */\n      dup2\n        /* \"#utility.yul\":22611:22632   */\n      tag_695\n      jump\t// in\n    tag_742:\n        /* \"#utility.yul\":22604:22609   */\n      dup2\n        /* \"#utility.yul\":22601:22633   */\n      eq\n        /* \"#utility.yul\":22591:22651   */\n      tag_743\n      jumpi\n        /* \"#utility.yul\":22647:22648   */\n      0x00\n        /* \"#utility.yul\":22644:22645   */\n      dup1\n        /* \"#utility.yul\":22637:22649   */\n      revert\n        /* \"#utility.yul\":22591:22651   */\n    tag_743:\n        /* \"#utility.yul\":22541:22657   */\n      pop\n      jump\t// out\n        /* \"#utility.yul\":22663:22785   */\n    tag_496:\n        /* \"#utility.yul\":22736:22760   */\n      tag_745\n        /* \"#utility.yul\":22754:22759   */\n      dup2\n        /* \"#utility.yul\":22736:22760   */\n      tag_618\n      jump\t// in\n    tag_745:\n        /* \"#utility.yul\":22729:22734   */\n      dup2\n        /* \"#utility.yul\":22726:22761   */\n      eq\n        /* \"#utility.yul\":22716:22779   */\n      tag_746\n      jumpi\n        /* \"#utility.yul\":22775:22776   */\n      0x00\n        /* \"#utility.yul\":22772:22773   */\n      dup1\n        /* \"#utility.yul\":22765:22777   */\n      revert\n        /* \"#utility.yul\":22716:22779   */\n    tag_746:\n        /* \"#utility.yul\":22663:22785   */\n      pop\n      jump\t// out\n\n    auxdata: 0xa26469706673582212208d987d93e2c9d085f0acbaa8e0145e21e513755d7e6433d26fbbcb9bcf730e1664736f6c63430008070033\n}\n",
				"bytecode": {
					"linkReferences": {},
					"object": "6080604052620186a0600e5562015f90600f55620927c060105573617f2e2fd72fd9d5503197092ac168c91465e7f2601260006101000a81548173ffffffffffffffffffffffffffffffffffffffff021916908373ffffffffffffffffffffffffffffffffffffffff1602179055503480156200007b57600080fd5b50600160008190555073b27a31f1b0af2946b7f582768f03239b1ec07c2c601360006101000a81548173ffffffffffffffffffffffffffffffffffffffff021916908373ffffffffffffffffffffffffffffffffffffffff160217905550735fd6eb55d12e759a21c09ef703fe0cba1dc9d88d601460006101000a81548173ffffffffffffffffffffffffffffffffffffffff021916908373ffffffffffffffffffffffffffffffffffffffff160217905550737b96af9bd211cbf6ba5b0dd53aa61dc5806b6ace601560006101000a81548173ffffffffffffffffffffffffffffffffffffffff021916908373ffffffffffffffffffffffffffffffffffffffff160217905550735e17b14add6c386305a32928f985b29bba34eff5601a604051620001a89062000463565b908152602001604051809103902060000160006101000a81548173ffffffffffffffffffffffffffffffffffffffff021916908373ffffffffffffffffffffffffffffffffffffffff1602179055506006601a604051620002099062000463565b908152602001604051809103902060010181905550732a4a8ab6a0bc0d377098f8688f77003833bc1c9d601a60405162000243906200044c565b908152602001604051809103902060000160006101000a81548173ffffffffffffffffffffffffffffffffffffffff021916908373ffffffffffffffffffffffffffffffffffffffff1602179055506012601a604051620002a4906200044c565b90815260200160405180910390206001018190555073dc301622e621166bd8e82f2ca0a26c13ad0be355601a604051620002de9062000435565b908152602001604051809103902060000160006101000a81548173ffffffffffffffffffffffffffffffffffffffff021916908373ffffffffffffffffffffffffffffffffffffffff1602179055506012601a6040516200033f9062000435565b90815260200160405180910390206001018190555073617f2e2fd72fd9d5503197092ac168c91465e7f2600760006101000a81548173ffffffffffffffffffffffffffffffffffffffff021916908373ffffffffffffffffffffffffffffffffffffffff16021790555042600c8190555062069780600d8190555062000500565b6000620003cf6004836200047a565b9150620003dc8262000485565b600482019050919050565b6000620003f66003836200047a565b91506200040382620004ae565b600382019050919050565b60006200041d6004836200047a565b91506200042a82620004d7565b600482019050919050565b60006200044282620003c0565b9150819050919050565b60006200045982620003e7565b9150819050919050565b600062000470826200040e565b9150819050919050565b600081905092915050565b7f4652415800000000000000000000000000000000000000000000000000000000600082015250565b7f4441490000000000000000000000000000000000000000000000000000000000600082015250565b7f5553444300000000000000000000000000000000000000000000000000000000600082015250565b6130d980620005106000396000f3fe6080604052600436106102305760003560e01c80636f10e2851161012e578063c0ca6fb4116100ab578063e5d980821161006f578063e5d9808214610809578063ee62086814610832578063eee05f5e1461085d578063fbbb458914610888578063fc361443146108b357610230565b8063c0ca6fb414610741578063c0ce58891461076c578063cbff461714610788578063d04d7908146107b3578063d82eddf2146107de57610230565b80639b19251a116100f25780639b19251a1461066f578063a475bf4814610698578063bcb3de54146106d6578063bdad7f02146106ed578063c079d7f61461071657610230565b80636f10e2851461059a5780637087a7a5146105c557806371cd58f9146105f0578063862d1b351461061b57806393f7b7111461064457610230565b80631f564a06116101bc57806339ad95d61161018057806339ad95d6146104c75780633c6eb17a146104f057806343d32e9c1461051b57806367b48c911461054657806367e927a81461057157610230565b80631f564a06146103de57806326ae486e1461040957806329982a32146104345780632a9f0fb11461045f578063354533071461049c57610230565b806312b2ed941161020357806312b2ed94146102e15780631514c9761461031f578063164c85011461035c5780631a30e872146103855780631bc9cc45146103c257610230565b8063018a25e814610235578063047729b0146102605780630ccaf04f1461028b5780630f65de3e146102b6575b600080fd5b34801561024157600080fd5b5061024a6108dc565b6040516102579190612afb565b60405180910390f35b34801561026c57600080fd5b506102756109fa565b604051610282919061296a565b60405180910390f35b34801561029757600080fd5b506102a0610a20565b6040516102ad9190612afb565b60405180910390f35b3480156102c257600080fd5b506102cb610b7a565b6040516102d89190612afb565b60405180910390f35b3480156102ed57600080fd5b5061030860048036038101906103039190612526565b610c08565b604051610316929190612b16565b60405180910390f35b34801561032b57600080fd5b5061034660048036038101906103419190612694565b610c2c565b6040516103539190612afb565b60405180910390f35b34801561036857600080fd5b50610383600480360381019061037e9190612694565b610c44565b005b34801561039157600080fd5b506103ac60048036038101906103a79190612694565b610dc2565b6040516103b99190612afb565b60405180910390f35b6103dc60048036038101906103d79190612694565b610dda565b005b3480156103ea57600080fd5b506103f3610f72565b6040516104009190612afb565b60405180910390f35b34801561041557600080fd5b5061041e611024565b60405161042b91906129e5565b60405180910390f35b34801561044057600080fd5b5061044961104a565b604051610456919061296a565b60405180910390f35b34801561046b57600080fd5b5061048660048036038101906104819190612694565b611070565b6040516104939190612afb565b60405180910390f35b3480156104a857600080fd5b506104b1611088565b6040516104be9190612afb565b60405180910390f35b3480156104d357600080fd5b506104ee60048036038101906104e99190612694565b61108e565b005b3480156104fc57600080fd5b50610505611091565b6040516105129190612afb565b60405180910390f35b34801561052757600080fd5b50610530611097565b60405161053d9190612afb565b60405180910390f35b34801561055257600080fd5b5061055b6111b5565b6040516105689190612afb565b60405180910390f35b34801561057d57600080fd5b5061059860048036038101906105939190612694565b6111bb565b005b3480156105a657600080fd5b506105af61126c565b6040516105bc9190612a00565b60405180910390f35b3480156105d157600080fd5b506105da61127f565b6040516105e791906129e5565b60405180910390f35b3480156105fc57600080fd5b506106056112a5565b6040516106129190612afb565b60405180910390f35b34801561062757600080fd5b50610642600480360381019061063d91906126ee565b61135c565b005b34801561065057600080fd5b5061065961185d565b6040516106669190612afb565b60405180910390f35b34801561067b57600080fd5b5061069660048036038101906106919190612526565b6119b7565b005b3480156106a457600080fd5b506106bf60048036038101906106ba91906125dc565b6119ba565b6040516106cd9291906129bc565b60405180910390f35b3480156106e257600080fd5b506106eb611a14565b005b3480156106f957600080fd5b50610714600480360381019061070f9190612553565b611b5b565b005b34801561072257600080fd5b5061072b611cdc565b604051610738919061296a565b60405180910390f35b34801561074d57600080fd5b50610756611d02565b60405161076391906129e5565b60405180910390f35b6107866004803603810190610781919061274a565b611d28565b005b34801561079457600080fd5b5061079d6120a1565b6040516107aa9190612afb565b60405180910390f35b3480156107bf57600080fd5b506107c86120a7565b6040516107d591906129e5565b60405180910390f35b3480156107ea57600080fd5b506107f36120cd565b6040516108009190612afb565b60405180910390f35b34801561081557600080fd5b50610830600480360381019061082b9190612625565b612130565b005b34801561083e57600080fd5b506108476121bb565b6040516108549190612afb565b60405180910390f35b34801561086957600080fd5b506108726121c1565b60405161087f919061296a565b60405180910390f35b34801561089457600080fd5b5061089d6121e7565b6040516108aa919061296a565b60405180910390f35b3480156108bf57600080fd5b506108da60048036038101906108d59190612694565b61220d565b005b60006109f53073ffffffffffffffffffffffffffffffffffffffff16631f564a066040518163ffffffff1660e01b815260040160206040518083038186803b15801561092757600080fd5b505afa15801561093b573d6000803e3d6000fd5b505050506040513d601f19601f8201168201806040525081019061095f91906126c1565b3073ffffffffffffffffffffffffffffffffffffffff166393f7b7116040518163ffffffff1660e01b815260040160206040518083038186803b1580156109a557600080fd5b505afa1580156109b9573d6000803e3d6000fd5b505050506040513d601f19601f820116820180604052508101906109dd91906126c1565b6710a741a4627800006109f09190612bbc565b612225565b905090565b600960009054906101000a900473ffffffffffffffffffffffffffffffffffffffff1681565b60008060008062015180600d54610a379190612c12565b9050600062015180600c5442610a4d9190612c9d565b610a579190612c12565b9050600080821415610a7e5760196000808152602001908152602001600020549350610aca565b8282610a8a9190612c9d565b90505b81811015610ac957601960008281526020019081526020016000205484610ab49190612bbc565b93508080610ac190612dcf565b915050610a8d565b5b610b513073ffffffffffffffffffffffffffffffffffffffff1663d82eddf26040518163ffffffff1660e01b815260040160206040518083038186803b158015610b1357600080fd5b505afa158015610b27573d6000803e3d6000fd5b505050506040513d601f19601f82011682018060405250810190610b4b91906126c1565b8561226e565b9450670429d069189e0000851115610b6f57670429d069189e000094505b849550505050505090565b60008062015180600c5442610b8f9190612c9d565b610b999190612c12565b905060008062015180600d54610baf9190612c12565b905060008184610bbf9190612c9d565b90505b83811015610bfe57601960008281526020019081526020016000205483610be99190612bbc565b92508080610bf690612dcf565b915050610bc2565b8294505050505090565b601b6020528060005260406000206000915090508060000154908060010154905082565b60186020528060005260406000206000915090505481565b601b60003373ffffffffffffffffffffffffffffffffffffffff1673ffffffffffffffffffffffffffffffffffffffff168152602001908152602001600020600101548110610cc8576040517f08c379a0000000000000000000000000000000000000000000000000000000008152600401610cbf90612a1b565b60405180910390fd5b80601b60003373ffffffffffffffffffffffffffffffffffffffff1673ffffffffffffffffffffffffffffffffffffffff1681526020019081526020016000206001016000828254610d1a9190612c9d565b925050819055506000601b60003373ffffffffffffffffffffffffffffffffffffffff1673ffffffffffffffffffffffffffffffffffffffff168152602001908152602001600020600101541415610dbf57601b60003373ffffffffffffffffffffffffffffffffffffffff1673ffffffffffffffffffffffffffffffffffffffff168152602001908152602001600020600080820160009055600182016000905550505b50565b60196020528060005260406000206000915090505481565b6000601360009054906101000a900473ffffffffffffffffffffffffffffffffffffffff1673ffffffffffffffffffffffffffffffffffffffff166370a08231336040518263ffffffff1660e01b8152600401610e37919061296a565b60206040518083038186803b158015610e4f57600080fd5b505afa158015610e63573d6000803e3d6000fd5b505050506040513d601f19601f82011682018060405250810190610e8791906126c1565b9050818111610ecb576040517f08c379a0000000000000000000000000000000000000000000000000000000008152600401610ec290612a5b565b60405180910390fd5b610ef9601360009054906101000a900473ffffffffffffffffffffffffffffffffffffffff163330856122af565b600062015180600c5442610f0d9190612c9d565b610f179190612c12565b905082601860008381526020019081526020016000206000828254610f3c9190612bbc565b9250508190555082601960008381526020019081526020016000206000828254610f669190612c9d565b92505081905550505050565b600061101f600b54601360009054906101000a900473ffffffffffffffffffffffffffffffffffffffff1673ffffffffffffffffffffffffffffffffffffffff166318160ddd6040518163ffffffff1660e01b815260040160206040518083038186803b158015610fe257600080fd5b505afa158015610ff6573d6000803e3d6000fd5b505050506040513d601f19601f8201168201806040525081019061101a91906126c1565b61226e565b905090565b601360009054906101000a900473ffffffffffffffffffffffffffffffffffffffff1681565b600a60009054906101000a900473ffffffffffffffffffffffffffffffffffffffff1681565b60176020528060005260406000206000915090505481565b600b5481565b50565b600c5481565b60006111b03073ffffffffffffffffffffffffffffffffffffffff16631f564a066040518163ffffffff1660e01b815260040160206040518083038186803b1580156110e257600080fd5b505afa1580156110f6573d6000803e3d6000fd5b505050506040513d601f19601f8201168201806040525081019061111a91906126c1565b3073ffffffffffffffffffffffffffffffffffffffff16630ccaf04f6040518163ffffffff1660e01b815260040160206040518083038186803b15801561116057600080fd5b505afa158015611174573d6000803e3d6000fd5b505050506040513d601f19601f8201168201806040525081019061119891906126c1565b670c7d713b49da00006111ab9190612c9d565b612225565b905090565b600d5481565b620d2f00426111ca9190612bbc565b601b60003373ffffffffffffffffffffffffffffffffffffffff1673ffffffffffffffffffffffffffffffffffffffff1681526020019081526020016000206000018190555080601b60003373ffffffffffffffffffffffffffffffffffffffff1673ffffffffffffffffffffffffffffffffffffffff16815260200190815260200160002060010160008282546112629190612bbc565b9250508190555050565b601160009054906101000a9004600f0b81565b601660009054906101000a900473ffffffffffffffffffffffffffffffffffffffff1681565b60008060008062015180600d546112bc9190612c12565b9050600062015180600c54426112d29190612c9d565b6112dc9190612c12565b90506000811415611306576017600080815260200190815260200160002054945050505050611359565b81816113129190612c9d565b92505b808310156113515760176000848152602001908152602001600020548461133c9190612bbc565b9350828061134990612dcf565b935050611315565b839450505050505b90565b600260005414156113a2576040517f08c379a000000000000000000000000000000000000000000000000000000000815260040161139990612abb565b60405180910390fd5b6002600081905550601a816040516113ba919061293e565b908152602001604051809103902060000160009054906101000a900473ffffffffffffffffffffffffffffffffffffffff16601660006101000a81548173ffffffffffffffffffffffffffffffffffffffff021916908373ffffffffffffffffffffffffffffffffffffffff1602179055506203d090821115611472576040517f08c379a000000000000000000000000000000000000000000000000000000000815260040161146990612a7b565b60405180910390fd5b6000601660009054906101000a900473ffffffffffffffffffffffffffffffffffffffff1673ffffffffffffffffffffffffffffffffffffffff166370a08231336040518263ffffffff1660e01b81526004016114cf919061296a565b60206040518083038186803b1580156114e757600080fd5b505afa1580156114fb573d6000803e3d6000fd5b505050506040513d601f19601f8201168201806040525081019061151f91906126c1565b9050828111611563576040517f08c379a000000000000000000000000000000000000000000000000000000000815260040161155a90612a5b565b60405180910390fd5b6000601a83604051611575919061293e565b90815260200160405180910390206001015461160e853073ffffffffffffffffffffffffffffffffffffffff1663018a25e86040518163ffffffff1660e01b815260040160206040518083038186803b1580156115d157600080fd5b505afa1580156115e5573d6000803e3d6000fd5b505050506040513d601f19601f8201168201806040525081019061160991906126c1565b612225565b6116189190612c43565b9050611648601660009054906101000a900473ffffffffffffffffffffffffffffffffffffffff163330846122af565b601360009054906101000a900473ffffffffffffffffffffffffffffffffffffffff1673ffffffffffffffffffffffffffffffffffffffff166340c10f1933670de0b6b3a76400008761169b9190612c43565b6040518363ffffffff1660e01b81526004016116b89291906129bc565b600060405180830381600087803b1580156116d257600080fd5b505af11580156116e6573d6000803e3d6000fd5b50505050601460009054906101000a900473ffffffffffffffffffffffffffffffffffffffff1673ffffffffffffffffffffffffffffffffffffffff166340c10f1930670de0b6b3a76400008761173d9190612c43565b6040518363ffffffff1660e01b815260040161175a9291906129bc565b600060405180830381600087803b15801561177457600080fd5b505af1158015611788573d6000803e3d6000fd5b50505050600062015180600c54426117a09190612c9d565b6117aa9190612c12565b9050846017600083815260200190815260200160002060008282546117cf9190612bbc565b92505081905550846019600083815260200190815260200160002060008282546117f99190612bbc565b925050819055503373ffffffffffffffffffffffffffffffffffffffff167ff633443b01504d269657083d48bb6de98e089cfff672b47fefbed21608b5c779866040516118469190612afb565b60405180910390a250505060016000819055505050565b60008060008062015180600d546118749190612c12565b9050600062015180600c544261188a9190612c9d565b6118949190612c12565b90506000808214156118bb5760196000808152602001908152602001600020549350611907565b82826118c79190612c9d565b90505b81811015611906576019600082815260200190815260200160002054846118f19190612bbc565b935080806118fe90612dcf565b9150506118ca565b5b61198e3073ffffffffffffffffffffffffffffffffffffffff166371cd58f96040518163ffffffff1660e01b815260040160206040518083038186803b15801561195057600080fd5b505afa158015611964573d6000803e3d6000fd5b505050506040513d601f19601f8201168201806040525081019061198891906126c1565b8561226e565b9450670429d069189e00008511156119ac57670429d069189e000094505b849550505050505090565b50565b601a818051602081018201805184825260208301602085012081835280955050505050506000915090508060000160009054906101000a900473ffffffffffffffffffffffffffffffffffffffff16908060010154905082565b601a604051611a2290612955565b908152602001604051809103902060000160009054906101000a900473ffffffffffffffffffffffffffffffffffffffff16601660006101000a81548173ffffffffffffffffffffffffffffffffffffffff021916908373ffffffffffffffffffffffffffffffffffffffff160217905550601660009054906101000a900473ffffffffffffffffffffffffffffffffffffffff1673ffffffffffffffffffffffffffffffffffffffff166370a08231734b20993bc481177ec7e8f571cecae8a9e22c02db6040518263ffffffff1660e01b8152600401611b03919061296a565b60206040518083038186803b158015611b1b57600080fd5b505afa158015611b2f573d6000803e3d6000fd5b505050506040513d601f19601f82011682018060405250810190611b5391906126c1565b600b81905550565b601b60008373ffffffffffffffffffffffffffffffffffffffff1673ffffffffffffffffffffffffffffffffffffffff16815260200190815260200160002060000154421015611be0576040517f08c379a0000000000000000000000000000000000000000000000000000000008152600401611bd790612a9b565b60405180910390fd5b601a81604051611bf0919061293e565b908152602001604051809103902060000160009054906101000a900473ffffffffffffffffffffffffffffffffffffffff16601660006101000a81548173ffffffffffffffffffffffffffffffffffffffff021916908373ffffffffffffffffffffffffffffffffffffffff1602179055506000601b60008473ffffffffffffffffffffffffffffffffffffffff1673ffffffffffffffffffffffffffffffffffffffff168152602001908152602001600020600101549050611cd7601660009054906101000a900473ffffffffffffffffffffffffffffffffffffffff163033846122af565b505050565b600860009054906101000a900473ffffffffffffffffffffffffffffffffffffffff1681565b601560009054906101000a900473ffffffffffffffffffffffffffffffffffffffff1681565b601a81604051611d38919061293e565b908152602001604051809103902060000160009054906101000a900473ffffffffffffffffffffffffffffffffffffffff16601660006101000a81548173ffffffffffffffffffffffffffffffffffffffff021916908373ffffffffffffffffffffffffffffffffffffffff1602179055506000601360009054906101000a900473ffffffffffffffffffffffffffffffffffffffff1673ffffffffffffffffffffffffffffffffffffffff166370a08231336040518263ffffffff1660e01b8152600401611e07919061296a565b60206040518083038186803b158015611e1f57600080fd5b505afa158015611e33573d6000803e3d6000fd5b505050506040513d601f19601f82011682018060405250810190611e5791906126c1565b9050838111611e9b576040517f08c379a0000000000000000000000000000000000000000000000000000000008152600401611e9290612a5b565b60405180910390fd5b601660009054906101000a900473ffffffffffffffffffffffffffffffffffffffff1673ffffffffffffffffffffffffffffffffffffffff1663a9059cbb33670de0b6b3a76400006001611eef9190612c43565b87611efa9190612bbc565b6040518363ffffffff1660e01b8152600401611f179291906129bc565b602060405180830381600087803b158015611f3157600080fd5b505af1158015611f45573d6000803e3d6000fd5b505050506040513d601f19601f82011682018060405250810190611f6991906125af565b50611f98601360009054906101000a900473ffffffffffffffffffffffffffffffffffffffff163330876122af565b6000843073ffffffffffffffffffffffffffffffffffffffff166343d32e9c6040518163ffffffff1660e01b815260040160206040518083038186803b158015611fe157600080fd5b505afa158015611ff5573d6000803e3d6000fd5b505050506040513d601f19601f8201168201806040525081019061201991906126c1565b6120239190612c43565b9050600062015180600c54426120399190612c9d565b6120439190612c12565b9050856018600083815260200190815260200160002060008282546120689190612bbc565b92505081905550856019600083815260200190815260200160002060008282546120929190612c9d565b92505081905550505050505050565b60025481565b601460009054906101000a900473ffffffffffffffffffffffffffffffffffffffff1681565b60008060008062015180600d546120e49190612c12565b9050600091505b80821015612127576018600083815260200190815260200160002054836121129190612bbc565b9250818061211f90612dcf565b9250506120eb565b82935050505090565b81601a84604051612141919061293e565b908152602001604051809103902060000160006101000a81548173ffffffffffffffffffffffffffffffffffffffff021916908373ffffffffffffffffffffffffffffffffffffffff16021790555080601a846040516121a1919061293e565b908152602001604051809103902060010181905550505050565b60015481565b601260009054906101000a900473ffffffffffffffffffffffffffffffffffffffff1681565b600760009054906101000a900473ffffffffffffffffffffffffffffffffffffffff1681565b620151808161221c9190612c43565b600d8190555050565b6000806122328484612389565b9050670de0b6b3a764000061225b826002670de0b6b3a76400006122569190612c12565b612404565b6122659190612c12565b91505092915050565b60008061228384670de0b6b3a7640000612389565b90508261229c826002866122979190612c12565b612404565b6122a69190612c12565b91505092915050565b60008473ffffffffffffffffffffffffffffffffffffffff166323b872dd8585856040518463ffffffff1660e01b81526004016122ee93929190612985565b602060405180830381600087803b15801561230857600080fd5b505af115801561231c573d6000803e3d6000fd5b505050506040513d601f19601f8201168201806040525081019061234091906125af565b905080612382576040517f08c379a000000000000000000000000000000000000000000000000000000000815260040161237990612a3b565b60405180910390fd5b5050505050565b60008083141561239c57600090506123fe565b600082846123aa9190612c43565b90508284826123b99190612c12565b146123f9576040517f08c379a00000000000000000000000000000000000000000000000000000000081526004016123f090612adb565b60405180910390fd5b809150505b92915050565b60008082846124139190612bbc565b905083811015612458576040517f08c379a000000000000000000000000000000000000000000000000000000000815260040161244f90612adb565b60405180910390fd5b8091505092915050565b600061247561247084612b64565b612b3f565b90508281526020810184848401111561249157612490612eaa565b5b61249c848285612d5c565b509392505050565b6000813590506124b38161305e565b92915050565b6000815190506124c881613075565b92915050565b600082601f8301126124e3576124e2612ea5565b5b81356124f3848260208601612462565b91505092915050565b60008135905061250b8161308c565b92915050565b6000815190506125208161308c565b92915050565b60006020828403121561253c5761253b612eb4565b5b600061254a848285016124a4565b91505092915050565b6000806040838503121561256a57612569612eb4565b5b6000612578858286016124a4565b925050602083013567ffffffffffffffff81111561259957612598612eaf565b5b6125a5858286016124ce565b9150509250929050565b6000602082840312156125c5576125c4612eb4565b5b60006125d3848285016124b9565b91505092915050565b6000602082840312156125f2576125f1612eb4565b5b600082013567ffffffffffffffff8111156126105761260f612eaf565b5b61261c848285016124ce565b91505092915050565b60008060006060848603121561263e5761263d612eb4565b5b600084013567ffffffffffffffff81111561265c5761265b612eaf565b5b612668868287016124ce565b9350506020612679868287016124a4565b925050604061268a868287016124fc565b9150509250925092565b6000602082840312156126aa576126a9612eb4565b5b60006126b8848285016124fc565b91505092915050565b6000602082840312156126d7576126d6612eb4565b5b60006126e584828501612511565b91505092915050565b6000806040838503121561270557612704612eb4565b5b6000612713858286016124fc565b925050602083013567ffffffffffffffff81111561273457612733612eaf565b5b612740858286016124ce565b9150509250929050565b60008060006060848603121561276357612762612eb4565b5b6000612771868287016124fc565b9350506020612782868287016124fc565b925050604084013567ffffffffffffffff8111156127a3576127a2612eaf565b5b6127af868287016124ce565b9150509250925092565b6127c281612cd1565b82525050565b6127d181612d26565b82525050565b6127e081612cef565b82525050565b60006127f182612b95565b6127fb8185612bb1565b935061280b818560208601612d6b565b80840191505092915050565b6000612824602483612ba0565b915061282f82612eca565b604082019050919050565b6000612847601583612ba0565b915061285282612f19565b602082019050919050565b600061286a601a83612ba0565b915061287582612f42565b602082019050919050565b600061288d601583612ba0565b915061289882612f6b565b602082019050919050565b60006128b0600483612bb1565b91506128bb82612f94565b600482019050919050565b60006128d3600c83612ba0565b91506128de82612fbd565b602082019050919050565b60006128f6601f83612ba0565b915061290182612fe6565b602082019050919050565b6000612919602183612ba0565b91506129248261300f565b604082019050919050565b61293881612d1c565b82525050565b600061294a82846127e6565b915081905092915050565b6000612960826128a3565b9150819050919050565b600060208201905061297f60008301846127b9565b92915050565b600060608201905061299a60008301866127b9565b6129a760208301856127b9565b6129b4604083018461292f565b949350505050565b60006040820190506129d160008301856127b9565b6129de602083018461292f565b9392505050565b60006020820190506129fa60008301846127c8565b92915050565b6000602082019050612a1560008301846127d7565b92915050565b60006020820190508181036000830152612a3481612817565b9050919050565b60006020820190508181036000830152612a548161283a565b9050919050565b60006020820190508181036000830152612a748161285d565b9050919050565b60006020820190508181036000830152612a9481612880565b9050919050565b60006020820190508181036000830152612ab4816128c6565b9050919050565b60006020820190508181036000830152612ad4816128e9565b9050919050565b60006020820190508181036000830152612af48161290c565b9050919050565b6000602082019050612b10600083018461292f565b92915050565b6000604082019050612b2b600083018561292f565b612b38602083018461292f565b9392505050565b6000612b49612b5a565b9050612b558282612d9e565b919050565b6000604051905090565b600067ffffffffffffffff821115612b7f57612b7e612e76565b5b612b8882612eb9565b9050602081019050919050565b600081519050919050565b600082825260208201905092915050565b600081905092915050565b6000612bc782612d1c565b9150612bd283612d1c565b9250827fffffffffffffffffffffffffffffffffffffffffffffffffffffffffffffffff03821115612c0757612c06612e18565b5b828201905092915050565b6000612c1d82612d1c565b9150612c2883612d1c565b925082612c3857612c37612e47565b5b828204905092915050565b6000612c4e82612d1c565b9150612c5983612d1c565b9250817fffffffffffffffffffffffffffffffffffffffffffffffffffffffffffffffff0483118215151615612c9257612c91612e18565b5b828202905092915050565b6000612ca882612d1c565b9150612cb383612d1c565b925082821015612cc657612cc5612e18565b5b828203905092915050565b6000612cdc82612cfc565b9050919050565b60008115159050919050565b600081600f0b9050919050565b600073ffffffffffffffffffffffffffffffffffffffff82169050919050565b6000819050919050565b6000612d3182612d38565b9050919050565b6000612d4382612d4a565b9050919050565b6000612d5582612cfc565b9050919050565b82818337600083830152505050565b60005b83811015612d89578082015181840152602081019050612d6e565b83811115612d98576000848401525b50505050565b612da782612eb9565b810181811067ffffffffffffffff82111715612dc657612dc5612e76565b5b80604052505050565b6000612dda82612d1c565b91507fffffffffffffffffffffffffffffffffffffffffffffffffffffffffffffffff821415612e0d57612e0c612e18565b5b600182019050919050565b7f4e487b7100000000000000000000000000000000000000000000000000000000600052601160045260246000fd5b7f4e487b7100000000000000000000000000000000000000000000000000000000600052601260045260246000fd5b7f4e487b7100000000000000000000000000000000000000000000000000000000600052604160045260246000fd5b600080fd5b600080fd5b600080fd5b600080fd5b6000601f19601f8301169050919050565b7f596f7520646f6e7420686176652074686174206d75636820746f20776974686460008201527f7261772100000000000000000000000000000000000000000000000000000000602082015250565b7f546f6b656e207472616e73666572206661696c65640000000000000000000000600082015250565b7f596f7520646f6e742068617665207468617420616d6f756e7421000000000000600082015250565b7f506572207472616e73616374696f6e206c696d69740000000000000000000000600082015250565b7f5553444300000000000000000000000000000000000000000000000000000000600082015250565b7f4e6f7420756e6c6f636b65640000000000000000000000000000000000000000600082015250565b7f5265656e7472616e637947756172643a207265656e7472616e742063616c6c00600082015250565b7f75696e74206f766572666c6f772066726f6d206d756c7469706c69636174696f60008201527f6e00000000000000000000000000000000000000000000000000000000000000602082015250565b61306781612cd1565b811461307257600080fd5b50565b61307e81612ce3565b811461308957600080fd5b50565b61309581612d1c565b81146130a057600080fd5b5056fea26469706673582212208d987d93e2c9d085f0acbaa8e0145e21e513755d7e6433d26fbbcb9bcf730e1664736f6c63430008070033",
					"opcodes": "PUSH1 0x80 PUSH1 0x40 MSTORE PUSH3 0x186A0 PUSH1 0xE SSTORE PUSH3 0x15F90 PUSH1 0xF SSTORE PUSH3 0x927C0 PUSH1 0x10 SSTORE PUSH20 0x617F2E2FD72FD9D5503197092AC168C91465E7F2 PUSH1 0x12 PUSH1 0x0 PUSH2 0x100 EXP DUP2 SLOAD DUP2 PUSH20 0xFFFFFFFFFFFFFFFFFFFFFFFFFFFFFFFFFFFFFFFF MUL NOT AND SWAP1 DUP4 PUSH20 0xFFFFFFFFFFFFFFFFFFFFFFFFFFFFFFFFFFFFFFFF AND MUL OR SWAP1 SSTORE POP CALLVALUE DUP1 ISZERO PUSH3 0x7B JUMPI PUSH1 0x0 DUP1 REVERT JUMPDEST POP PUSH1 0x1 PUSH1 0x0 DUP2 SWAP1 SSTORE POP PUSH20 0xB27A31F1B0AF2946B7F582768F03239B1EC07C2C PUSH1 0x13 PUSH1 0x0 PUSH2 0x100 EXP DUP2 SLOAD DUP2 PUSH20 0xFFFFFFFFFFFFFFFFFFFFFFFFFFFFFFFFFFFFFFFF MUL NOT AND SWAP1 DUP4 PUSH20 0xFFFFFFFFFFFFFFFFFFFFFFFFFFFFFFFFFFFFFFFF AND MUL OR SWAP1 SSTORE POP PUSH20 0x5FD6EB55D12E759A21C09EF703FE0CBA1DC9D88D PUSH1 0x14 PUSH1 0x0 PUSH2 0x100 EXP DUP2 SLOAD DUP2 PUSH20 0xFFFFFFFFFFFFFFFFFFFFFFFFFFFFFFFFFFFFFFFF MUL NOT AND SWAP1 DUP4 PUSH20 0xFFFFFFFFFFFFFFFFFFFFFFFFFFFFFFFFFFFFFFFF AND MUL OR SWAP1 SSTORE POP PUSH20 0x7B96AF9BD211CBF6BA5B0DD53AA61DC5806B6ACE PUSH1 0x15 PUSH1 0x0 PUSH2 0x100 EXP DUP2 SLOAD DUP2 PUSH20 0xFFFFFFFFFFFFFFFFFFFFFFFFFFFFFFFFFFFFFFFF MUL NOT AND SWAP1 DUP4 PUSH20 0xFFFFFFFFFFFFFFFFFFFFFFFFFFFFFFFFFFFFFFFF AND MUL OR SWAP1 SSTORE POP PUSH20 0x5E17B14ADD6C386305A32928F985B29BBA34EFF5 PUSH1 0x1A PUSH1 0x40 MLOAD PUSH3 0x1A8 SWAP1 PUSH3 0x463 JUMP JUMPDEST SWAP1 DUP2 MSTORE PUSH1 0x20 ADD PUSH1 0x40 MLOAD DUP1 SWAP2 SUB SWAP1 KECCAK256 PUSH1 0x0 ADD PUSH1 0x0 PUSH2 0x100 EXP DUP2 SLOAD DUP2 PUSH20 0xFFFFFFFFFFFFFFFFFFFFFFFFFFFFFFFFFFFFFFFF MUL NOT AND SWAP1 DUP4 PUSH20 0xFFFFFFFFFFFFFFFFFFFFFFFFFFFFFFFFFFFFFFFF AND MUL OR SWAP1 SSTORE POP PUSH1 0x6 PUSH1 0x1A PUSH1 0x40 MLOAD PUSH3 0x209 SWAP1 PUSH3 0x463 JUMP JUMPDEST SWAP1 DUP2 MSTORE PUSH1 0x20 ADD PUSH1 0x40 MLOAD DUP1 SWAP2 SUB SWAP1 KECCAK256 PUSH1 0x1 ADD DUP2 SWAP1 SSTORE POP PUSH20 0x2A4A8AB6A0BC0D377098F8688F77003833BC1C9D PUSH1 0x1A PUSH1 0x40 MLOAD PUSH3 0x243 SWAP1 PUSH3 0x44C JUMP JUMPDEST SWAP1 DUP2 MSTORE PUSH1 0x20 ADD PUSH1 0x40 MLOAD DUP1 SWAP2 SUB SWAP1 KECCAK256 PUSH1 0x0 ADD PUSH1 0x0 PUSH2 0x100 EXP DUP2 SLOAD DUP2 PUSH20 0xFFFFFFFFFFFFFFFFFFFFFFFFFFFFFFFFFFFFFFFF MUL NOT AND SWAP1 DUP4 PUSH20 0xFFFFFFFFFFFFFFFFFFFFFFFFFFFFFFFFFFFFFFFF AND MUL OR SWAP1 SSTORE POP PUSH1 0x12 PUSH1 0x1A PUSH1 0x40 MLOAD PUSH3 0x2A4 SWAP1 PUSH3 0x44C JUMP JUMPDEST SWAP1 DUP2 MSTORE PUSH1 0x20 ADD PUSH1 0x40 MLOAD DUP1 SWAP2 SUB SWAP1 KECCAK256 PUSH1 0x1 ADD DUP2 SWAP1 SSTORE POP PUSH20 0xDC301622E621166BD8E82F2CA0A26C13AD0BE355 PUSH1 0x1A PUSH1 0x40 MLOAD PUSH3 0x2DE SWAP1 PUSH3 0x435 JUMP JUMPDEST SWAP1 DUP2 MSTORE PUSH1 0x20 ADD PUSH1 0x40 MLOAD DUP1 SWAP2 SUB SWAP1 KECCAK256 PUSH1 0x0 ADD PUSH1 0x0 PUSH2 0x100 EXP DUP2 SLOAD DUP2 PUSH20 0xFFFFFFFFFFFFFFFFFFFFFFFFFFFFFFFFFFFFFFFF MUL NOT AND SWAP1 DUP4 PUSH20 0xFFFFFFFFFFFFFFFFFFFFFFFFFFFFFFFFFFFFFFFF AND MUL OR SWAP1 SSTORE POP PUSH1 0x12 PUSH1 0x1A PUSH1 0x40 MLOAD PUSH3 0x33F SWAP1 PUSH3 0x435 JUMP JUMPDEST SWAP1 DUP2 MSTORE PUSH1 0x20 ADD PUSH1 0x40 MLOAD DUP1 SWAP2 SUB SWAP1 KECCAK256 PUSH1 0x1 ADD DUP2 SWAP1 SSTORE POP PUSH20 0x617F2E2FD72FD9D5503197092AC168C91465E7F2 PUSH1 0x7 PUSH1 0x0 PUSH2 0x100 EXP DUP2 SLOAD DUP2 PUSH20 0xFFFFFFFFFFFFFFFFFFFFFFFFFFFFFFFFFFFFFFFF MUL NOT AND SWAP1 DUP4 PUSH20 0xFFFFFFFFFFFFFFFFFFFFFFFFFFFFFFFFFFFFFFFF AND MUL OR SWAP1 SSTORE POP TIMESTAMP PUSH1 0xC DUP2 SWAP1 SSTORE POP PUSH3 0x69780 PUSH1 0xD DUP2 SWAP1 SSTORE POP PUSH3 0x500 JUMP JUMPDEST PUSH1 0x0 PUSH3 0x3CF PUSH1 0x4 DUP4 PUSH3 0x47A JUMP JUMPDEST SWAP2 POP PUSH3 0x3DC DUP3 PUSH3 0x485 JUMP JUMPDEST PUSH1 0x4 DUP3 ADD SWAP1 POP SWAP2 SWAP1 POP JUMP JUMPDEST PUSH1 0x0 PUSH3 0x3F6 PUSH1 0x3 DUP4 PUSH3 0x47A JUMP JUMPDEST SWAP2 POP PUSH3 0x403 DUP3 PUSH3 0x4AE JUMP JUMPDEST PUSH1 0x3 DUP3 ADD SWAP1 POP SWAP2 SWAP1 POP JUMP JUMPDEST PUSH1 0x0 PUSH3 0x41D PUSH1 0x4 DUP4 PUSH3 0x47A JUMP JUMPDEST SWAP2 POP PUSH3 0x42A DUP3 PUSH3 0x4D7 JUMP JUMPDEST PUSH1 0x4 DUP3 ADD SWAP1 POP SWAP2 SWAP1 POP JUMP JUMPDEST PUSH1 0x0 PUSH3 0x442 DUP3 PUSH3 0x3C0 JUMP JUMPDEST SWAP2 POP DUP2 SWAP1 POP SWAP2 SWAP1 POP JUMP JUMPDEST PUSH1 0x0 PUSH3 0x459 DUP3 PUSH3 0x3E7 JUMP JUMPDEST SWAP2 POP DUP2 SWAP1 POP SWAP2 SWAP1 POP JUMP JUMPDEST PUSH1 0x0 PUSH3 0x470 DUP3 PUSH3 0x40E JUMP JUMPDEST SWAP2 POP DUP2 SWAP1 POP SWAP2 SWAP1 POP JUMP JUMPDEST PUSH1 0x0 DUP2 SWAP1 POP SWAP3 SWAP2 POP POP JUMP JUMPDEST PUSH32 0x4652415800000000000000000000000000000000000000000000000000000000 PUSH1 0x0 DUP3 ADD MSTORE POP JUMP JUMPDEST PUSH32 0x4441490000000000000000000000000000000000000000000000000000000000 PUSH1 0x0 DUP3 ADD MSTORE POP JUMP JUMPDEST PUSH32 0x5553444300000000000000000000000000000000000000000000000000000000 PUSH1 0x0 DUP3 ADD MSTORE POP JUMP JUMPDEST PUSH2 0x30D9 DUP1 PUSH3 0x510 PUSH1 0x0 CODECOPY PUSH1 0x0 RETURN INVALID PUSH1 0x80 PUSH1 0x40 MSTORE PUSH1 0x4 CALLDATASIZE LT PUSH2 0x230 JUMPI PUSH1 0x0 CALLDATALOAD PUSH1 0xE0 SHR DUP1 PUSH4 0x6F10E285 GT PUSH2 0x12E JUMPI DUP1 PUSH4 0xC0CA6FB4 GT PUSH2 0xAB JUMPI DUP1 PUSH4 0xE5D98082 GT PUSH2 0x6F JUMPI DUP1 PUSH4 0xE5D98082 EQ PUSH2 0x809 JUMPI DUP1 PUSH4 0xEE620868 EQ PUSH2 0x832 JUMPI DUP1 PUSH4 0xEEE05F5E EQ PUSH2 0x85D JUMPI DUP1 PUSH4 0xFBBB4589 EQ PUSH2 0x888 JUMPI DUP1 PUSH4 0xFC361443 EQ PUSH2 0x8B3 JUMPI PUSH2 0x230 JUMP JUMPDEST DUP1 PUSH4 0xC0CA6FB4 EQ PUSH2 0x741 JUMPI DUP1 PUSH4 0xC0CE5889 EQ PUSH2 0x76C JUMPI DUP1 PUSH4 0xCBFF4617 EQ PUSH2 0x788 JUMPI DUP1 PUSH4 0xD04D7908 EQ PUSH2 0x7B3 JUMPI DUP1 PUSH4 0xD82EDDF2 EQ PUSH2 0x7DE JUMPI PUSH2 0x230 JUMP JUMPDEST DUP1 PUSH4 0x9B19251A GT PUSH2 0xF2 JUMPI DUP1 PUSH4 0x9B19251A EQ PUSH2 0x66F JUMPI DUP1 PUSH4 0xA475BF48 EQ PUSH2 0x698 JUMPI DUP1 PUSH4 0xBCB3DE54 EQ PUSH2 0x6D6 JUMPI DUP1 PUSH4 0xBDAD7F02 EQ PUSH2 0x6ED JUMPI DUP1 PUSH4 0xC079D7F6 EQ PUSH2 0x716 JUMPI PUSH2 0x230 JUMP JUMPDEST DUP1 PUSH4 0x6F10E285 EQ PUSH2 0x59A JUMPI DUP1 PUSH4 0x7087A7A5 EQ PUSH2 0x5C5 JUMPI DUP1 PUSH4 0x71CD58F9 EQ PUSH2 0x5F0 JUMPI DUP1 PUSH4 0x862D1B35 EQ PUSH2 0x61B JUMPI DUP1 PUSH4 0x93F7B711 EQ PUSH2 0x644 JUMPI PUSH2 0x230 JUMP JUMPDEST DUP1 PUSH4 0x1F564A06 GT PUSH2 0x1BC JUMPI DUP1 PUSH4 0x39AD95D6 GT PUSH2 0x180 JUMPI DUP1 PUSH4 0x39AD95D6 EQ PUSH2 0x4C7 JUMPI DUP1 PUSH4 0x3C6EB17A EQ PUSH2 0x4F0 JUMPI DUP1 PUSH4 0x43D32E9C EQ PUSH2 0x51B JUMPI DUP1 PUSH4 0x67B48C91 EQ PUSH2 0x546 JUMPI DUP1 PUSH4 0x67E927A8 EQ PUSH2 0x571 JUMPI PUSH2 0x230 JUMP JUMPDEST DUP1 PUSH4 0x1F564A06 EQ PUSH2 0x3DE JUMPI DUP1 PUSH4 0x26AE486E EQ PUSH2 0x409 JUMPI DUP1 PUSH4 0x29982A32 EQ PUSH2 0x434 JUMPI DUP1 PUSH4 0x2A9F0FB1 EQ PUSH2 0x45F JUMPI DUP1 PUSH4 0x35453307 EQ PUSH2 0x49C JUMPI PUSH2 0x230 JUMP JUMPDEST DUP1 PUSH4 0x12B2ED94 GT PUSH2 0x203 JUMPI DUP1 PUSH4 0x12B2ED94 EQ PUSH2 0x2E1 JUMPI DUP1 PUSH4 0x1514C976 EQ PUSH2 0x31F JUMPI DUP1 PUSH4 0x164C8501 EQ PUSH2 0x35C JUMPI DUP1 PUSH4 0x1A30E872 EQ PUSH2 0x385 JUMPI DUP1 PUSH4 0x1BC9CC45 EQ PUSH2 0x3C2 JUMPI PUSH2 0x230 JUMP JUMPDEST DUP1 PUSH4 0x18A25E8 EQ PUSH2 0x235 JUMPI DUP1 PUSH4 0x47729B0 EQ PUSH2 0x260 JUMPI DUP1 PUSH4 0xCCAF04F EQ PUSH2 0x28B JUMPI DUP1 PUSH4 0xF65DE3E EQ PUSH2 0x2B6 JUMPI JUMPDEST PUSH1 0x0 DUP1 REVERT JUMPDEST CALLVALUE DUP1 ISZERO PUSH2 0x241 JUMPI PUSH1 0x0 DUP1 REVERT JUMPDEST POP PUSH2 0x24A PUSH2 0x8DC JUMP JUMPDEST PUSH1 0x40 MLOAD PUSH2 0x257 SWAP2 SWAP1 PUSH2 0x2AFB JUMP JUMPDEST PUSH1 0x40 MLOAD DUP1 SWAP2 SUB SWAP1 RETURN JUMPDEST CALLVALUE DUP1 ISZERO PUSH2 0x26C JUMPI PUSH1 0x0 DUP1 REVERT JUMPDEST POP PUSH2 0x275 PUSH2 0x9FA JUMP JUMPDEST PUSH1 0x40 MLOAD PUSH2 0x282 SWAP2 SWAP1 PUSH2 0x296A JUMP JUMPDEST PUSH1 0x40 MLOAD DUP1 SWAP2 SUB SWAP1 RETURN JUMPDEST CALLVALUE DUP1 ISZERO PUSH2 0x297 JUMPI PUSH1 0x0 DUP1 REVERT JUMPDEST POP PUSH2 0x2A0 PUSH2 0xA20 JUMP JUMPDEST PUSH1 0x40 MLOAD PUSH2 0x2AD SWAP2 SWAP1 PUSH2 0x2AFB JUMP JUMPDEST PUSH1 0x40 MLOAD DUP1 SWAP2 SUB SWAP1 RETURN JUMPDEST CALLVALUE DUP1 ISZERO PUSH2 0x2C2 JUMPI PUSH1 0x0 DUP1 REVERT JUMPDEST POP PUSH2 0x2CB PUSH2 0xB7A JUMP JUMPDEST PUSH1 0x40 MLOAD PUSH2 0x2D8 SWAP2 SWAP1 PUSH2 0x2AFB JUMP JUMPDEST PUSH1 0x40 MLOAD DUP1 SWAP2 SUB SWAP1 RETURN JUMPDEST CALLVALUE DUP1 ISZERO PUSH2 0x2ED JUMPI PUSH1 0x0 DUP1 REVERT JUMPDEST POP PUSH2 0x308 PUSH1 0x4 DUP1 CALLDATASIZE SUB DUP2 ADD SWAP1 PUSH2 0x303 SWAP2 SWAP1 PUSH2 0x2526 JUMP JUMPDEST PUSH2 0xC08 JUMP JUMPDEST PUSH1 0x40 MLOAD PUSH2 0x316 SWAP3 SWAP2 SWAP1 PUSH2 0x2B16 JUMP JUMPDEST PUSH1 0x40 MLOAD DUP1 SWAP2 SUB SWAP1 RETURN JUMPDEST CALLVALUE DUP1 ISZERO PUSH2 0x32B JUMPI PUSH1 0x0 DUP1 REVERT JUMPDEST POP PUSH2 0x346 PUSH1 0x4 DUP1 CALLDATASIZE SUB DUP2 ADD SWAP1 PUSH2 0x341 SWAP2 SWAP1 PUSH2 0x2694 JUMP JUMPDEST PUSH2 0xC2C JUMP JUMPDEST PUSH1 0x40 MLOAD PUSH2 0x353 SWAP2 SWAP1 PUSH2 0x2AFB JUMP JUMPDEST PUSH1 0x40 MLOAD DUP1 SWAP2 SUB SWAP1 RETURN JUMPDEST CALLVALUE DUP1 ISZERO PUSH2 0x368 JUMPI PUSH1 0x0 DUP1 REVERT JUMPDEST POP PUSH2 0x383 PUSH1 0x4 DUP1 CALLDATASIZE SUB DUP2 ADD SWAP1 PUSH2 0x37E SWAP2 SWAP1 PUSH2 0x2694 JUMP JUMPDEST PUSH2 0xC44 JUMP JUMPDEST STOP JUMPDEST CALLVALUE DUP1 ISZERO PUSH2 0x391 JUMPI PUSH1 0x0 DUP1 REVERT JUMPDEST POP PUSH2 0x3AC PUSH1 0x4 DUP1 CALLDATASIZE SUB DUP2 ADD SWAP1 PUSH2 0x3A7 SWAP2 SWAP1 PUSH2 0x2694 JUMP JUMPDEST PUSH2 0xDC2 JUMP JUMPDEST PUSH1 0x40 MLOAD PUSH2 0x3B9 SWAP2 SWAP1 PUSH2 0x2AFB JUMP JUMPDEST PUSH1 0x40 MLOAD DUP1 SWAP2 SUB SWAP1 RETURN JUMPDEST PUSH2 0x3DC PUSH1 0x4 DUP1 CALLDATASIZE SUB DUP2 ADD SWAP1 PUSH2 0x3D7 SWAP2 SWAP1 PUSH2 0x2694 JUMP JUMPDEST PUSH2 0xDDA JUMP JUMPDEST STOP JUMPDEST CALLVALUE DUP1 ISZERO PUSH2 0x3EA JUMPI PUSH1 0x0 DUP1 REVERT JUMPDEST POP PUSH2 0x3F3 PUSH2 0xF72 JUMP JUMPDEST PUSH1 0x40 MLOAD PUSH2 0x400 SWAP2 SWAP1 PUSH2 0x2AFB JUMP JUMPDEST PUSH1 0x40 MLOAD DUP1 SWAP2 SUB SWAP1 RETURN JUMPDEST CALLVALUE DUP1 ISZERO PUSH2 0x415 JUMPI PUSH1 0x0 DUP1 REVERT JUMPDEST POP PUSH2 0x41E PUSH2 0x1024 JUMP JUMPDEST PUSH1 0x40 MLOAD PUSH2 0x42B SWAP2 SWAP1 PUSH2 0x29E5 JUMP JUMPDEST PUSH1 0x40 MLOAD DUP1 SWAP2 SUB SWAP1 RETURN JUMPDEST CALLVALUE DUP1 ISZERO PUSH2 0x440 JUMPI PUSH1 0x0 DUP1 REVERT JUMPDEST POP PUSH2 0x449 PUSH2 0x104A JUMP JUMPDEST PUSH1 0x40 MLOAD PUSH2 0x456 SWAP2 SWAP1 PUSH2 0x296A JUMP JUMPDEST PUSH1 0x40 MLOAD DUP1 SWAP2 SUB SWAP1 RETURN JUMPDEST CALLVALUE DUP1 ISZERO PUSH2 0x46B JUMPI PUSH1 0x0 DUP1 REVERT JUMPDEST POP PUSH2 0x486 PUSH1 0x4 DUP1 CALLDATASIZE SUB DUP2 ADD SWAP1 PUSH2 0x481 SWAP2 SWAP1 PUSH2 0x2694 JUMP JUMPDEST PUSH2 0x1070 JUMP JUMPDEST PUSH1 0x40 MLOAD PUSH2 0x493 SWAP2 SWAP1 PUSH2 0x2AFB JUMP JUMPDEST PUSH1 0x40 MLOAD DUP1 SWAP2 SUB SWAP1 RETURN JUMPDEST CALLVALUE DUP1 ISZERO PUSH2 0x4A8 JUMPI PUSH1 0x0 DUP1 REVERT JUMPDEST POP PUSH2 0x4B1 PUSH2 0x1088 JUMP JUMPDEST PUSH1 0x40 MLOAD PUSH2 0x4BE SWAP2 SWAP1 PUSH2 0x2AFB JUMP JUMPDEST PUSH1 0x40 MLOAD DUP1 SWAP2 SUB SWAP1 RETURN JUMPDEST CALLVALUE DUP1 ISZERO PUSH2 0x4D3 JUMPI PUSH1 0x0 DUP1 REVERT JUMPDEST POP PUSH2 0x4EE PUSH1 0x4 DUP1 CALLDATASIZE SUB DUP2 ADD SWAP1 PUSH2 0x4E9 SWAP2 SWAP1 PUSH2 0x2694 JUMP JUMPDEST PUSH2 0x108E JUMP JUMPDEST STOP JUMPDEST CALLVALUE DUP1 ISZERO PUSH2 0x4FC JUMPI PUSH1 0x0 DUP1 REVERT JUMPDEST POP PUSH2 0x505 PUSH2 0x1091 JUMP JUMPDEST PUSH1 0x40 MLOAD PUSH2 0x512 SWAP2 SWAP1 PUSH2 0x2AFB JUMP JUMPDEST PUSH1 0x40 MLOAD DUP1 SWAP2 SUB SWAP1 RETURN JUMPDEST CALLVALUE DUP1 ISZERO PUSH2 0x527 JUMPI PUSH1 0x0 DUP1 REVERT JUMPDEST POP PUSH2 0x530 PUSH2 0x1097 JUMP JUMPDEST PUSH1 0x40 MLOAD PUSH2 0x53D SWAP2 SWAP1 PUSH2 0x2AFB JUMP JUMPDEST PUSH1 0x40 MLOAD DUP1 SWAP2 SUB SWAP1 RETURN JUMPDEST CALLVALUE DUP1 ISZERO PUSH2 0x552 JUMPI PUSH1 0x0 DUP1 REVERT JUMPDEST POP PUSH2 0x55B PUSH2 0x11B5 JUMP JUMPDEST PUSH1 0x40 MLOAD PUSH2 0x568 SWAP2 SWAP1 PUSH2 0x2AFB JUMP JUMPDEST PUSH1 0x40 MLOAD DUP1 SWAP2 SUB SWAP1 RETURN JUMPDEST CALLVALUE DUP1 ISZERO PUSH2 0x57D JUMPI PUSH1 0x0 DUP1 REVERT JUMPDEST POP PUSH2 0x598 PUSH1 0x4 DUP1 CALLDATASIZE SUB DUP2 ADD SWAP1 PUSH2 0x593 SWAP2 SWAP1 PUSH2 0x2694 JUMP JUMPDEST PUSH2 0x11BB JUMP JUMPDEST STOP JUMPDEST CALLVALUE DUP1 ISZERO PUSH2 0x5A6 JUMPI PUSH1 0x0 DUP1 REVERT JUMPDEST POP PUSH2 0x5AF PUSH2 0x126C JUMP JUMPDEST PUSH1 0x40 MLOAD PUSH2 0x5BC SWAP2 SWAP1 PUSH2 0x2A00 JUMP JUMPDEST PUSH1 0x40 MLOAD DUP1 SWAP2 SUB SWAP1 RETURN JUMPDEST CALLVALUE DUP1 ISZERO PUSH2 0x5D1 JUMPI PUSH1 0x0 DUP1 REVERT JUMPDEST POP PUSH2 0x5DA PUSH2 0x127F JUMP JUMPDEST PUSH1 0x40 MLOAD PUSH2 0x5E7 SWAP2 SWAP1 PUSH2 0x29E5 JUMP JUMPDEST PUSH1 0x40 MLOAD DUP1 SWAP2 SUB SWAP1 RETURN JUMPDEST CALLVALUE DUP1 ISZERO PUSH2 0x5FC JUMPI PUSH1 0x0 DUP1 REVERT JUMPDEST POP PUSH2 0x605 PUSH2 0x12A5 JUMP JUMPDEST PUSH1 0x40 MLOAD PUSH2 0x612 SWAP2 SWAP1 PUSH2 0x2AFB JUMP JUMPDEST PUSH1 0x40 MLOAD DUP1 SWAP2 SUB SWAP1 RETURN JUMPDEST CALLVALUE DUP1 ISZERO PUSH2 0x627 JUMPI PUSH1 0x0 DUP1 REVERT JUMPDEST POP PUSH2 0x642 PUSH1 0x4 DUP1 CALLDATASIZE SUB DUP2 ADD SWAP1 PUSH2 0x63D SWAP2 SWAP1 PUSH2 0x26EE JUMP JUMPDEST PUSH2 0x135C JUMP JUMPDEST STOP JUMPDEST CALLVALUE DUP1 ISZERO PUSH2 0x650 JUMPI PUSH1 0x0 DUP1 REVERT JUMPDEST POP PUSH2 0x659 PUSH2 0x185D JUMP JUMPDEST PUSH1 0x40 MLOAD PUSH2 0x666 SWAP2 SWAP1 PUSH2 0x2AFB JUMP JUMPDEST PUSH1 0x40 MLOAD DUP1 SWAP2 SUB SWAP1 RETURN JUMPDEST CALLVALUE DUP1 ISZERO PUSH2 0x67B JUMPI PUSH1 0x0 DUP1 REVERT JUMPDEST POP PUSH2 0x696 PUSH1 0x4 DUP1 CALLDATASIZE SUB DUP2 ADD SWAP1 PUSH2 0x691 SWAP2 SWAP1 PUSH2 0x2526 JUMP JUMPDEST PUSH2 0x19B7 JUMP JUMPDEST STOP JUMPDEST CALLVALUE DUP1 ISZERO PUSH2 0x6A4 JUMPI PUSH1 0x0 DUP1 REVERT JUMPDEST POP PUSH2 0x6BF PUSH1 0x4 DUP1 CALLDATASIZE SUB DUP2 ADD SWAP1 PUSH2 0x6BA SWAP2 SWAP1 PUSH2 0x25DC JUMP JUMPDEST PUSH2 0x19BA JUMP JUMPDEST PUSH1 0x40 MLOAD PUSH2 0x6CD SWAP3 SWAP2 SWAP1 PUSH2 0x29BC JUMP JUMPDEST PUSH1 0x40 MLOAD DUP1 SWAP2 SUB SWAP1 RETURN JUMPDEST CALLVALUE DUP1 ISZERO PUSH2 0x6E2 JUMPI PUSH1 0x0 DUP1 REVERT JUMPDEST POP PUSH2 0x6EB PUSH2 0x1A14 JUMP JUMPDEST STOP JUMPDEST CALLVALUE DUP1 ISZERO PUSH2 0x6F9 JUMPI PUSH1 0x0 DUP1 REVERT JUMPDEST POP PUSH2 0x714 PUSH1 0x4 DUP1 CALLDATASIZE SUB DUP2 ADD SWAP1 PUSH2 0x70F SWAP2 SWAP1 PUSH2 0x2553 JUMP JUMPDEST PUSH2 0x1B5B JUMP JUMPDEST STOP JUMPDEST CALLVALUE DUP1 ISZERO PUSH2 0x722 JUMPI PUSH1 0x0 DUP1 REVERT JUMPDEST POP PUSH2 0x72B PUSH2 0x1CDC JUMP JUMPDEST PUSH1 0x40 MLOAD PUSH2 0x738 SWAP2 SWAP1 PUSH2 0x296A JUMP JUMPDEST PUSH1 0x40 MLOAD DUP1 SWAP2 SUB SWAP1 RETURN JUMPDEST CALLVALUE DUP1 ISZERO PUSH2 0x74D JUMPI PUSH1 0x0 DUP1 REVERT JUMPDEST POP PUSH2 0x756 PUSH2 0x1D02 JUMP JUMPDEST PUSH1 0x40 MLOAD PUSH2 0x763 SWAP2 SWAP1 PUSH2 0x29E5 JUMP JUMPDEST PUSH1 0x40 MLOAD DUP1 SWAP2 SUB SWAP1 RETURN JUMPDEST PUSH2 0x786 PUSH1 0x4 DUP1 CALLDATASIZE SUB DUP2 ADD SWAP1 PUSH2 0x781 SWAP2 SWAP1 PUSH2 0x274A JUMP JUMPDEST PUSH2 0x1D28 JUMP JUMPDEST STOP JUMPDEST CALLVALUE DUP1 ISZERO PUSH2 0x794 JUMPI PUSH1 0x0 DUP1 REVERT JUMPDEST POP PUSH2 0x79D PUSH2 0x20A1 JUMP JUMPDEST PUSH1 0x40 MLOAD PUSH2 0x7AA SWAP2 SWAP1 PUSH2 0x2AFB JUMP JUMPDEST PUSH1 0x40 MLOAD DUP1 SWAP2 SUB SWAP1 RETURN JUMPDEST CALLVALUE DUP1 ISZERO PUSH2 0x7BF JUMPI PUSH1 0x0 DUP1 REVERT JUMPDEST POP PUSH2 0x7C8 PUSH2 0x20A7 JUMP JUMPDEST PUSH1 0x40 MLOAD PUSH2 0x7D5 SWAP2 SWAP1 PUSH2 0x29E5 JUMP JUMPDEST PUSH1 0x40 MLOAD DUP1 SWAP2 SUB SWAP1 RETURN JUMPDEST CALLVALUE DUP1 ISZERO PUSH2 0x7EA JUMPI PUSH1 0x0 DUP1 REVERT JUMPDEST POP PUSH2 0x7F3 PUSH2 0x20CD JUMP JUMPDEST PUSH1 0x40 MLOAD PUSH2 0x800 SWAP2 SWAP1 PUSH2 0x2AFB JUMP JUMPDEST PUSH1 0x40 MLOAD DUP1 SWAP2 SUB SWAP1 RETURN JUMPDEST CALLVALUE DUP1 ISZERO PUSH2 0x815 JUMPI PUSH1 0x0 DUP1 REVERT JUMPDEST POP PUSH2 0x830 PUSH1 0x4 DUP1 CALLDATASIZE SUB DUP2 ADD SWAP1 PUSH2 0x82B SWAP2 SWAP1 PUSH2 0x2625 JUMP JUMPDEST PUSH2 0x2130 JUMP JUMPDEST STOP JUMPDEST CALLVALUE DUP1 ISZERO PUSH2 0x83E JUMPI PUSH1 0x0 DUP1 REVERT JUMPDEST POP PUSH2 0x847 PUSH2 0x21BB JUMP JUMPDEST PUSH1 0x40 MLOAD PUSH2 0x854 SWAP2 SWAP1 PUSH2 0x2AFB JUMP JUMPDEST PUSH1 0x40 MLOAD DUP1 SWAP2 SUB SWAP1 RETURN JUMPDEST CALLVALUE DUP1 ISZERO PUSH2 0x869 JUMPI PUSH1 0x0 DUP1 REVERT JUMPDEST POP PUSH2 0x872 PUSH2 0x21C1 JUMP JUMPDEST PUSH1 0x40 MLOAD PUSH2 0x87F SWAP2 SWAP1 PUSH2 0x296A JUMP JUMPDEST PUSH1 0x40 MLOAD DUP1 SWAP2 SUB SWAP1 RETURN JUMPDEST CALLVALUE DUP1 ISZERO PUSH2 0x894 JUMPI PUSH1 0x0 DUP1 REVERT JUMPDEST POP PUSH2 0x89D PUSH2 0x21E7 JUMP JUMPDEST PUSH1 0x40 MLOAD PUSH2 0x8AA SWAP2 SWAP1 PUSH2 0x296A JUMP JUMPDEST PUSH1 0x40 MLOAD DUP1 SWAP2 SUB SWAP1 RETURN JUMPDEST CALLVALUE DUP1 ISZERO PUSH2 0x8BF JUMPI PUSH1 0x0 DUP1 REVERT JUMPDEST POP PUSH2 0x8DA PUSH1 0x4 DUP1 CALLDATASIZE SUB DUP2 ADD SWAP1 PUSH2 0x8D5 SWAP2 SWAP1 PUSH2 0x2694 JUMP JUMPDEST PUSH2 0x220D JUMP JUMPDEST STOP JUMPDEST PUSH1 0x0 PUSH2 0x9F5 ADDRESS PUSH20 0xFFFFFFFFFFFFFFFFFFFFFFFFFFFFFFFFFFFFFFFF AND PUSH4 0x1F564A06 PUSH1 0x40 MLOAD DUP2 PUSH4 0xFFFFFFFF AND PUSH1 0xE0 SHL DUP2 MSTORE PUSH1 0x4 ADD PUSH1 0x20 PUSH1 0x40 MLOAD DUP1 DUP4 SUB DUP2 DUP7 DUP1 EXTCODESIZE ISZERO DUP1 ISZERO PUSH2 0x927 JUMPI PUSH1 0x0 DUP1 REVERT JUMPDEST POP GAS STATICCALL ISZERO DUP1 ISZERO PUSH2 0x93B JUMPI RETURNDATASIZE PUSH1 0x0 DUP1 RETURNDATACOPY RETURNDATASIZE PUSH1 0x0 REVERT JUMPDEST POP POP POP POP PUSH1 0x40 MLOAD RETURNDATASIZE PUSH1 0x1F NOT PUSH1 0x1F DUP3 ADD AND DUP3 ADD DUP1 PUSH1 0x40 MSTORE POP DUP2 ADD SWAP1 PUSH2 0x95F SWAP2 SWAP1 PUSH2 0x26C1 JUMP JUMPDEST ADDRESS PUSH20 0xFFFFFFFFFFFFFFFFFFFFFFFFFFFFFFFFFFFFFFFF AND PUSH4 0x93F7B711 PUSH1 0x40 MLOAD DUP2 PUSH4 0xFFFFFFFF AND PUSH1 0xE0 SHL DUP2 MSTORE PUSH1 0x4 ADD PUSH1 0x20 PUSH1 0x40 MLOAD DUP1 DUP4 SUB DUP2 DUP7 DUP1 EXTCODESIZE ISZERO DUP1 ISZERO PUSH2 0x9A5 JUMPI PUSH1 0x0 DUP1 REVERT JUMPDEST POP GAS STATICCALL ISZERO DUP1 ISZERO PUSH2 0x9B9 JUMPI RETURNDATASIZE PUSH1 0x0 DUP1 RETURNDATACOPY RETURNDATASIZE PUSH1 0x0 REVERT JUMPDEST POP POP POP POP PUSH1 0x40 MLOAD RETURNDATASIZE PUSH1 0x1F NOT PUSH1 0x1F DUP3 ADD AND DUP3 ADD DUP1 PUSH1 0x40 MSTORE POP DUP2 ADD SWAP1 PUSH2 0x9DD SWAP2 SWAP1 PUSH2 0x26C1 JUMP JUMPDEST PUSH8 0x10A741A462780000 PUSH2 0x9F0 SWAP2 SWAP1 PUSH2 0x2BBC JUMP JUMPDEST PUSH2 0x2225 JUMP JUMPDEST SWAP1 POP SWAP1 JUMP JUMPDEST PUSH1 0x9 PUSH1 0x0 SWAP1 SLOAD SWAP1 PUSH2 0x100 EXP SWAP1 DIV PUSH20 0xFFFFFFFFFFFFFFFFFFFFFFFFFFFFFFFFFFFFFFFF AND DUP2 JUMP JUMPDEST PUSH1 0x0 DUP1 PUSH1 0x0 DUP1 PUSH3 0x15180 PUSH1 0xD SLOAD PUSH2 0xA37 SWAP2 SWAP1 PUSH2 0x2C12 JUMP JUMPDEST SWAP1 POP PUSH1 0x0 PUSH3 0x15180 PUSH1 0xC SLOAD TIMESTAMP PUSH2 0xA4D SWAP2 SWAP1 PUSH2 0x2C9D JUMP JUMPDEST PUSH2 0xA57 SWAP2 SWAP1 PUSH2 0x2C12 JUMP JUMPDEST SWAP1 POP PUSH1 0x0 DUP1 DUP3 EQ ISZERO PUSH2 0xA7E JUMPI PUSH1 0x19 PUSH1 0x0 DUP1 DUP2 MSTORE PUSH1 0x20 ADD SWAP1 DUP2 MSTORE PUSH1 0x20 ADD PUSH1 0x0 KECCAK256 SLOAD SWAP4 POP PUSH2 0xACA JUMP JUMPDEST DUP3 DUP3 PUSH2 0xA8A SWAP2 SWAP1 PUSH2 0x2C9D JUMP JUMPDEST SWAP1 POP JUMPDEST DUP2 DUP2 LT ISZERO PUSH2 0xAC9 JUMPI PUSH1 0x19 PUSH1 0x0 DUP3 DUP2 MSTORE PUSH1 0x20 ADD SWAP1 DUP2 MSTORE PUSH1 0x20 ADD PUSH1 0x0 KECCAK256 SLOAD DUP5 PUSH2 0xAB4 SWAP2 SWAP1 PUSH2 0x2BBC JUMP JUMPDEST SWAP4 POP DUP1 DUP1 PUSH2 0xAC1 SWAP1 PUSH2 0x2DCF JUMP JUMPDEST SWAP2 POP POP PUSH2 0xA8D JUMP JUMPDEST JUMPDEST PUSH2 0xB51 ADDRESS PUSH20 0xFFFFFFFFFFFFFFFFFFFFFFFFFFFFFFFFFFFFFFFF AND PUSH4 0xD82EDDF2 PUSH1 0x40 MLOAD DUP2 PUSH4 0xFFFFFFFF AND PUSH1 0xE0 SHL DUP2 MSTORE PUSH1 0x4 ADD PUSH1 0x20 PUSH1 0x40 MLOAD DUP1 DUP4 SUB DUP2 DUP7 DUP1 EXTCODESIZE ISZERO DUP1 ISZERO PUSH2 0xB13 JUMPI PUSH1 0x0 DUP1 REVERT JUMPDEST POP GAS STATICCALL ISZERO DUP1 ISZERO PUSH2 0xB27 JUMPI RETURNDATASIZE PUSH1 0x0 DUP1 RETURNDATACOPY RETURNDATASIZE PUSH1 0x0 REVERT JUMPDEST POP POP POP POP PUSH1 0x40 MLOAD RETURNDATASIZE PUSH1 0x1F NOT PUSH1 0x1F DUP3 ADD AND DUP3 ADD DUP1 PUSH1 0x40 MSTORE POP DUP2 ADD SWAP1 PUSH2 0xB4B SWAP2 SWAP1 PUSH2 0x26C1 JUMP JUMPDEST DUP6 PUSH2 0x226E JUMP JUMPDEST SWAP5 POP PUSH8 0x429D069189E0000 DUP6 GT ISZERO PUSH2 0xB6F JUMPI PUSH8 0x429D069189E0000 SWAP5 POP JUMPDEST DUP5 SWAP6 POP POP POP POP POP POP SWAP1 JUMP JUMPDEST PUSH1 0x0 DUP1 PUSH3 0x15180 PUSH1 0xC SLOAD TIMESTAMP PUSH2 0xB8F SWAP2 SWAP1 PUSH2 0x2C9D JUMP JUMPDEST PUSH2 0xB99 SWAP2 SWAP1 PUSH2 0x2C12 JUMP JUMPDEST SWAP1 POP PUSH1 0x0 DUP1 PUSH3 0x15180 PUSH1 0xD SLOAD PUSH2 0xBAF SWAP2 SWAP1 PUSH2 0x2C12 JUMP JUMPDEST SWAP1 POP PUSH1 0x0 DUP2 DUP5 PUSH2 0xBBF SWAP2 SWAP1 PUSH2 0x2C9D JUMP JUMPDEST SWAP1 POP JUMPDEST DUP4 DUP2 LT ISZERO PUSH2 0xBFE JUMPI PUSH1 0x19 PUSH1 0x0 DUP3 DUP2 MSTORE PUSH1 0x20 ADD SWAP1 DUP2 MSTORE PUSH1 0x20 ADD PUSH1 0x0 KECCAK256 SLOAD DUP4 PUSH2 0xBE9 SWAP2 SWAP1 PUSH2 0x2BBC JUMP JUMPDEST SWAP3 POP DUP1 DUP1 PUSH2 0xBF6 SWAP1 PUSH2 0x2DCF JUMP JUMPDEST SWAP2 POP POP PUSH2 0xBC2 JUMP JUMPDEST DUP3 SWAP5 POP POP POP POP POP SWAP1 JUMP JUMPDEST PUSH1 0x1B PUSH1 0x20 MSTORE DUP1 PUSH1 0x0 MSTORE PUSH1 0x40 PUSH1 0x0 KECCAK256 PUSH1 0x0 SWAP2 POP SWAP1 POP DUP1 PUSH1 0x0 ADD SLOAD SWAP1 DUP1 PUSH1 0x1 ADD SLOAD SWAP1 POP DUP3 JUMP JUMPDEST PUSH1 0x18 PUSH1 0x20 MSTORE DUP1 PUSH1 0x0 MSTORE PUSH1 0x40 PUSH1 0x0 KECCAK256 PUSH1 0x0 SWAP2 POP SWAP1 POP SLOAD DUP2 JUMP JUMPDEST PUSH1 0x1B PUSH1 0x0 CALLER PUSH20 0xFFFFFFFFFFFFFFFFFFFFFFFFFFFFFFFFFFFFFFFF AND PUSH20 0xFFFFFFFFFFFFFFFFFFFFFFFFFFFFFFFFFFFFFFFF AND DUP2 MSTORE PUSH1 0x20 ADD SWAP1 DUP2 MSTORE PUSH1 0x20 ADD PUSH1 0x0 KECCAK256 PUSH1 0x1 ADD SLOAD DUP2 LT PUSH2 0xCC8 JUMPI PUSH1 0x40 MLOAD PUSH32 0x8C379A000000000000000000000000000000000000000000000000000000000 DUP2 MSTORE PUSH1 0x4 ADD PUSH2 0xCBF SWAP1 PUSH2 0x2A1B JUMP JUMPDEST PUSH1 0x40 MLOAD DUP1 SWAP2 SUB SWAP1 REVERT JUMPDEST DUP1 PUSH1 0x1B PUSH1 0x0 CALLER PUSH20 0xFFFFFFFFFFFFFFFFFFFFFFFFFFFFFFFFFFFFFFFF AND PUSH20 0xFFFFFFFFFFFFFFFFFFFFFFFFFFFFFFFFFFFFFFFF AND DUP2 MSTORE PUSH1 0x20 ADD SWAP1 DUP2 MSTORE PUSH1 0x20 ADD PUSH1 0x0 KECCAK256 PUSH1 0x1 ADD PUSH1 0x0 DUP3 DUP3 SLOAD PUSH2 0xD1A SWAP2 SWAP1 PUSH2 0x2C9D JUMP JUMPDEST SWAP3 POP POP DUP2 SWAP1 SSTORE POP PUSH1 0x0 PUSH1 0x1B PUSH1 0x0 CALLER PUSH20 0xFFFFFFFFFFFFFFFFFFFFFFFFFFFFFFFFFFFFFFFF AND PUSH20 0xFFFFFFFFFFFFFFFFFFFFFFFFFFFFFFFFFFFFFFFF AND DUP2 MSTORE PUSH1 0x20 ADD SWAP1 DUP2 MSTORE PUSH1 0x20 ADD PUSH1 0x0 KECCAK256 PUSH1 0x1 ADD SLOAD EQ ISZERO PUSH2 0xDBF JUMPI PUSH1 0x1B PUSH1 0x0 CALLER PUSH20 0xFFFFFFFFFFFFFFFFFFFFFFFFFFFFFFFFFFFFFFFF AND PUSH20 0xFFFFFFFFFFFFFFFFFFFFFFFFFFFFFFFFFFFFFFFF AND DUP2 MSTORE PUSH1 0x20 ADD SWAP1 DUP2 MSTORE PUSH1 0x20 ADD PUSH1 0x0 KECCAK256 PUSH1 0x0 DUP1 DUP3 ADD PUSH1 0x0 SWAP1 SSTORE PUSH1 0x1 DUP3 ADD PUSH1 0x0 SWAP1 SSTORE POP POP JUMPDEST POP JUMP JUMPDEST PUSH1 0x19 PUSH1 0x20 MSTORE DUP1 PUSH1 0x0 MSTORE PUSH1 0x40 PUSH1 0x0 KECCAK256 PUSH1 0x0 SWAP2 POP SWAP1 POP SLOAD DUP2 JUMP JUMPDEST PUSH1 0x0 PUSH1 0x13 PUSH1 0x0 SWAP1 SLOAD SWAP1 PUSH2 0x100 EXP SWAP1 DIV PUSH20 0xFFFFFFFFFFFFFFFFFFFFFFFFFFFFFFFFFFFFFFFF AND PUSH20 0xFFFFFFFFFFFFFFFFFFFFFFFFFFFFFFFFFFFFFFFF AND PUSH4 0x70A08231 CALLER PUSH1 0x40 MLOAD DUP3 PUSH4 0xFFFFFFFF AND PUSH1 0xE0 SHL DUP2 MSTORE PUSH1 0x4 ADD PUSH2 0xE37 SWAP2 SWAP1 PUSH2 0x296A JUMP JUMPDEST PUSH1 0x20 PUSH1 0x40 MLOAD DUP1 DUP4 SUB DUP2 DUP7 DUP1 EXTCODESIZE ISZERO DUP1 ISZERO PUSH2 0xE4F JUMPI PUSH1 0x0 DUP1 REVERT JUMPDEST POP GAS STATICCALL ISZERO DUP1 ISZERO PUSH2 0xE63 JUMPI RETURNDATASIZE PUSH1 0x0 DUP1 RETURNDATACOPY RETURNDATASIZE PUSH1 0x0 REVERT JUMPDEST POP POP POP POP PUSH1 0x40 MLOAD RETURNDATASIZE PUSH1 0x1F NOT PUSH1 0x1F DUP3 ADD AND DUP3 ADD DUP1 PUSH1 0x40 MSTORE POP DUP2 ADD SWAP1 PUSH2 0xE87 SWAP2 SWAP1 PUSH2 0x26C1 JUMP JUMPDEST SWAP1 POP DUP2 DUP2 GT PUSH2 0xECB JUMPI PUSH1 0x40 MLOAD PUSH32 0x8C379A000000000000000000000000000000000000000000000000000000000 DUP2 MSTORE PUSH1 0x4 ADD PUSH2 0xEC2 SWAP1 PUSH2 0x2A5B JUMP JUMPDEST PUSH1 0x40 MLOAD DUP1 SWAP2 SUB SWAP1 REVERT JUMPDEST PUSH2 0xEF9 PUSH1 0x13 PUSH1 0x0 SWAP1 SLOAD SWAP1 PUSH2 0x100 EXP SWAP1 DIV PUSH20 0xFFFFFFFFFFFFFFFFFFFFFFFFFFFFFFFFFFFFFFFF AND CALLER ADDRESS DUP6 PUSH2 0x22AF JUMP JUMPDEST PUSH1 0x0 PUSH3 0x15180 PUSH1 0xC SLOAD TIMESTAMP PUSH2 0xF0D SWAP2 SWAP1 PUSH2 0x2C9D JUMP JUMPDEST PUSH2 0xF17 SWAP2 SWAP1 PUSH2 0x2C12 JUMP JUMPDEST SWAP1 POP DUP3 PUSH1 0x18 PUSH1 0x0 DUP4 DUP2 MSTORE PUSH1 0x20 ADD SWAP1 DUP2 MSTORE PUSH1 0x20 ADD PUSH1 0x0 KECCAK256 PUSH1 0x0 DUP3 DUP3 SLOAD PUSH2 0xF3C SWAP2 SWAP1 PUSH2 0x2BBC JUMP JUMPDEST SWAP3 POP POP DUP2 SWAP1 SSTORE POP DUP3 PUSH1 0x19 PUSH1 0x0 DUP4 DUP2 MSTORE PUSH1 0x20 ADD SWAP1 DUP2 MSTORE PUSH1 0x20 ADD PUSH1 0x0 KECCAK256 PUSH1 0x0 DUP3 DUP3 SLOAD PUSH2 0xF66 SWAP2 SWAP1 PUSH2 0x2C9D JUMP JUMPDEST SWAP3 POP POP DUP2 SWAP1 SSTORE POP POP POP POP JUMP JUMPDEST PUSH1 0x0 PUSH2 0x101F PUSH1 0xB SLOAD PUSH1 0x13 PUSH1 0x0 SWAP1 SLOAD SWAP1 PUSH2 0x100 EXP SWAP1 DIV PUSH20 0xFFFFFFFFFFFFFFFFFFFFFFFFFFFFFFFFFFFFFFFF AND PUSH20 0xFFFFFFFFFFFFFFFFFFFFFFFFFFFFFFFFFFFFFFFF AND PUSH4 0x18160DDD PUSH1 0x40 MLOAD DUP2 PUSH4 0xFFFFFFFF AND PUSH1 0xE0 SHL DUP2 MSTORE PUSH1 0x4 ADD PUSH1 0x20 PUSH1 0x40 MLOAD DUP1 DUP4 SUB DUP2 DUP7 DUP1 EXTCODESIZE ISZERO DUP1 ISZERO PUSH2 0xFE2 JUMPI PUSH1 0x0 DUP1 REVERT JUMPDEST POP GAS STATICCALL ISZERO DUP1 ISZERO PUSH2 0xFF6 JUMPI RETURNDATASIZE PUSH1 0x0 DUP1 RETURNDATACOPY RETURNDATASIZE PUSH1 0x0 REVERT JUMPDEST POP POP POP POP PUSH1 0x40 MLOAD RETURNDATASIZE PUSH1 0x1F NOT PUSH1 0x1F DUP3 ADD AND DUP3 ADD DUP1 PUSH1 0x40 MSTORE POP DUP2 ADD SWAP1 PUSH2 0x101A SWAP2 SWAP1 PUSH2 0x26C1 JUMP JUMPDEST PUSH2 0x226E JUMP JUMPDEST SWAP1 POP SWAP1 JUMP JUMPDEST PUSH1 0x13 PUSH1 0x0 SWAP1 SLOAD SWAP1 PUSH2 0x100 EXP SWAP1 DIV PUSH20 0xFFFFFFFFFFFFFFFFFFFFFFFFFFFFFFFFFFFFFFFF AND DUP2 JUMP JUMPDEST PUSH1 0xA PUSH1 0x0 SWAP1 SLOAD SWAP1 PUSH2 0x100 EXP SWAP1 DIV PUSH20 0xFFFFFFFFFFFFFFFFFFFFFFFFFFFFFFFFFFFFFFFF AND DUP2 JUMP JUMPDEST PUSH1 0x17 PUSH1 0x20 MSTORE DUP1 PUSH1 0x0 MSTORE PUSH1 0x40 PUSH1 0x0 KECCAK256 PUSH1 0x0 SWAP2 POP SWAP1 POP SLOAD DUP2 JUMP JUMPDEST PUSH1 0xB SLOAD DUP2 JUMP JUMPDEST POP JUMP JUMPDEST PUSH1 0xC SLOAD DUP2 JUMP JUMPDEST PUSH1 0x0 PUSH2 0x11B0 ADDRESS PUSH20 0xFFFFFFFFFFFFFFFFFFFFFFFFFFFFFFFFFFFFFFFF AND PUSH4 0x1F564A06 PUSH1 0x40 MLOAD DUP2 PUSH4 0xFFFFFFFF AND PUSH1 0xE0 SHL DUP2 MSTORE PUSH1 0x4 ADD PUSH1 0x20 PUSH1 0x40 MLOAD DUP1 DUP4 SUB DUP2 DUP7 DUP1 EXTCODESIZE ISZERO DUP1 ISZERO PUSH2 0x10E2 JUMPI PUSH1 0x0 DUP1 REVERT JUMPDEST POP GAS STATICCALL ISZERO DUP1 ISZERO PUSH2 0x10F6 JUMPI RETURNDATASIZE PUSH1 0x0 DUP1 RETURNDATACOPY RETURNDATASIZE PUSH1 0x0 REVERT JUMPDEST POP POP POP POP PUSH1 0x40 MLOAD RETURNDATASIZE PUSH1 0x1F NOT PUSH1 0x1F DUP3 ADD AND DUP3 ADD DUP1 PUSH1 0x40 MSTORE POP DUP2 ADD SWAP1 PUSH2 0x111A SWAP2 SWAP1 PUSH2 0x26C1 JUMP JUMPDEST ADDRESS PUSH20 0xFFFFFFFFFFFFFFFFFFFFFFFFFFFFFFFFFFFFFFFF AND PUSH4 0xCCAF04F PUSH1 0x40 MLOAD DUP2 PUSH4 0xFFFFFFFF AND PUSH1 0xE0 SHL DUP2 MSTORE PUSH1 0x4 ADD PUSH1 0x20 PUSH1 0x40 MLOAD DUP1 DUP4 SUB DUP2 DUP7 DUP1 EXTCODESIZE ISZERO DUP1 ISZERO PUSH2 0x1160 JUMPI PUSH1 0x0 DUP1 REVERT JUMPDEST POP GAS STATICCALL ISZERO DUP1 ISZERO PUSH2 0x1174 JUMPI RETURNDATASIZE PUSH1 0x0 DUP1 RETURNDATACOPY RETURNDATASIZE PUSH1 0x0 REVERT JUMPDEST POP POP POP POP PUSH1 0x40 MLOAD RETURNDATASIZE PUSH1 0x1F NOT PUSH1 0x1F DUP3 ADD AND DUP3 ADD DUP1 PUSH1 0x40 MSTORE POP DUP2 ADD SWAP1 PUSH2 0x1198 SWAP2 SWAP1 PUSH2 0x26C1 JUMP JUMPDEST PUSH8 0xC7D713B49DA0000 PUSH2 0x11AB SWAP2 SWAP1 PUSH2 0x2C9D JUMP JUMPDEST PUSH2 0x2225 JUMP JUMPDEST SWAP1 POP SWAP1 JUMP JUMPDEST PUSH1 0xD SLOAD DUP2 JUMP JUMPDEST PUSH3 0xD2F00 TIMESTAMP PUSH2 0x11CA SWAP2 SWAP1 PUSH2 0x2BBC JUMP JUMPDEST PUSH1 0x1B PUSH1 0x0 CALLER PUSH20 0xFFFFFFFFFFFFFFFFFFFFFFFFFFFFFFFFFFFFFFFF AND PUSH20 0xFFFFFFFFFFFFFFFFFFFFFFFFFFFFFFFFFFFFFFFF AND DUP2 MSTORE PUSH1 0x20 ADD SWAP1 DUP2 MSTORE PUSH1 0x20 ADD PUSH1 0x0 KECCAK256 PUSH1 0x0 ADD DUP2 SWAP1 SSTORE POP DUP1 PUSH1 0x1B PUSH1 0x0 CALLER PUSH20 0xFFFFFFFFFFFFFFFFFFFFFFFFFFFFFFFFFFFFFFFF AND PUSH20 0xFFFFFFFFFFFFFFFFFFFFFFFFFFFFFFFFFFFFFFFF AND DUP2 MSTORE PUSH1 0x20 ADD SWAP1 DUP2 MSTORE PUSH1 0x20 ADD PUSH1 0x0 KECCAK256 PUSH1 0x1 ADD PUSH1 0x0 DUP3 DUP3 SLOAD PUSH2 0x1262 SWAP2 SWAP1 PUSH2 0x2BBC JUMP JUMPDEST SWAP3 POP POP DUP2 SWAP1 SSTORE POP POP JUMP JUMPDEST PUSH1 0x11 PUSH1 0x0 SWAP1 SLOAD SWAP1 PUSH2 0x100 EXP SWAP1 DIV PUSH1 0xF SIGNEXTEND DUP2 JUMP JUMPDEST PUSH1 0x16 PUSH1 0x0 SWAP1 SLOAD SWAP1 PUSH2 0x100 EXP SWAP1 DIV PUSH20 0xFFFFFFFFFFFFFFFFFFFFFFFFFFFFFFFFFFFFFFFF AND DUP2 JUMP JUMPDEST PUSH1 0x0 DUP1 PUSH1 0x0 DUP1 PUSH3 0x15180 PUSH1 0xD SLOAD PUSH2 0x12BC SWAP2 SWAP1 PUSH2 0x2C12 JUMP JUMPDEST SWAP1 POP PUSH1 0x0 PUSH3 0x15180 PUSH1 0xC SLOAD TIMESTAMP PUSH2 0x12D2 SWAP2 SWAP1 PUSH2 0x2C9D JUMP JUMPDEST PUSH2 0x12DC SWAP2 SWAP1 PUSH2 0x2C12 JUMP JUMPDEST SWAP1 POP PUSH1 0x0 DUP2 EQ ISZERO PUSH2 0x1306 JUMPI PUSH1 0x17 PUSH1 0x0 DUP1 DUP2 MSTORE PUSH1 0x20 ADD SWAP1 DUP2 MSTORE PUSH1 0x20 ADD PUSH1 0x0 KECCAK256 SLOAD SWAP5 POP POP POP POP POP PUSH2 0x1359 JUMP JUMPDEST DUP2 DUP2 PUSH2 0x1312 SWAP2 SWAP1 PUSH2 0x2C9D JUMP JUMPDEST SWAP3 POP JUMPDEST DUP1 DUP4 LT ISZERO PUSH2 0x1351 JUMPI PUSH1 0x17 PUSH1 0x0 DUP5 DUP2 MSTORE PUSH1 0x20 ADD SWAP1 DUP2 MSTORE PUSH1 0x20 ADD PUSH1 0x0 KECCAK256 SLOAD DUP5 PUSH2 0x133C SWAP2 SWAP1 PUSH2 0x2BBC JUMP JUMPDEST SWAP4 POP DUP3 DUP1 PUSH2 0x1349 SWAP1 PUSH2 0x2DCF JUMP JUMPDEST SWAP4 POP POP PUSH2 0x1315 JUMP JUMPDEST DUP4 SWAP5 POP POP POP POP POP JUMPDEST SWAP1 JUMP JUMPDEST PUSH1 0x2 PUSH1 0x0 SLOAD EQ ISZERO PUSH2 0x13A2 JUMPI PUSH1 0x40 MLOAD PUSH32 0x8C379A000000000000000000000000000000000000000000000000000000000 DUP2 MSTORE PUSH1 0x4 ADD PUSH2 0x1399 SWAP1 PUSH2 0x2ABB JUMP JUMPDEST PUSH1 0x40 MLOAD DUP1 SWAP2 SUB SWAP1 REVERT JUMPDEST PUSH1 0x2 PUSH1 0x0 DUP2 SWAP1 SSTORE POP PUSH1 0x1A DUP2 PUSH1 0x40 MLOAD PUSH2 0x13BA SWAP2 SWAP1 PUSH2 0x293E JUMP JUMPDEST SWAP1 DUP2 MSTORE PUSH1 0x20 ADD PUSH1 0x40 MLOAD DUP1 SWAP2 SUB SWAP1 KECCAK256 PUSH1 0x0 ADD PUSH1 0x0 SWAP1 SLOAD SWAP1 PUSH2 0x100 EXP SWAP1 DIV PUSH20 0xFFFFFFFFFFFFFFFFFFFFFFFFFFFFFFFFFFFFFFFF AND PUSH1 0x16 PUSH1 0x0 PUSH2 0x100 EXP DUP2 SLOAD DUP2 PUSH20 0xFFFFFFFFFFFFFFFFFFFFFFFFFFFFFFFFFFFFFFFF MUL NOT AND SWAP1 DUP4 PUSH20 0xFFFFFFFFFFFFFFFFFFFFFFFFFFFFFFFFFFFFFFFF AND MUL OR SWAP1 SSTORE POP PUSH3 0x3D090 DUP3 GT ISZERO PUSH2 0x1472 JUMPI PUSH1 0x40 MLOAD PUSH32 0x8C379A000000000000000000000000000000000000000000000000000000000 DUP2 MSTORE PUSH1 0x4 ADD PUSH2 0x1469 SWAP1 PUSH2 0x2A7B JUMP JUMPDEST PUSH1 0x40 MLOAD DUP1 SWAP2 SUB SWAP1 REVERT JUMPDEST PUSH1 0x0 PUSH1 0x16 PUSH1 0x0 SWAP1 SLOAD SWAP1 PUSH2 0x100 EXP SWAP1 DIV PUSH20 0xFFFFFFFFFFFFFFFFFFFFFFFFFFFFFFFFFFFFFFFF AND PUSH20 0xFFFFFFFFFFFFFFFFFFFFFFFFFFFFFFFFFFFFFFFF AND PUSH4 0x70A08231 CALLER PUSH1 0x40 MLOAD DUP3 PUSH4 0xFFFFFFFF AND PUSH1 0xE0 SHL DUP2 MSTORE PUSH1 0x4 ADD PUSH2 0x14CF SWAP2 SWAP1 PUSH2 0x296A JUMP JUMPDEST PUSH1 0x20 PUSH1 0x40 MLOAD DUP1 DUP4 SUB DUP2 DUP7 DUP1 EXTCODESIZE ISZERO DUP1 ISZERO PUSH2 0x14E7 JUMPI PUSH1 0x0 DUP1 REVERT JUMPDEST POP GAS STATICCALL ISZERO DUP1 ISZERO PUSH2 0x14FB JUMPI RETURNDATASIZE PUSH1 0x0 DUP1 RETURNDATACOPY RETURNDATASIZE PUSH1 0x0 REVERT JUMPDEST POP POP POP POP PUSH1 0x40 MLOAD RETURNDATASIZE PUSH1 0x1F NOT PUSH1 0x1F DUP3 ADD AND DUP3 ADD DUP1 PUSH1 0x40 MSTORE POP DUP2 ADD SWAP1 PUSH2 0x151F SWAP2 SWAP1 PUSH2 0x26C1 JUMP JUMPDEST SWAP1 POP DUP3 DUP2 GT PUSH2 0x1563 JUMPI PUSH1 0x40 MLOAD PUSH32 0x8C379A000000000000000000000000000000000000000000000000000000000 DUP2 MSTORE PUSH1 0x4 ADD PUSH2 0x155A SWAP1 PUSH2 0x2A5B JUMP JUMPDEST PUSH1 0x40 MLOAD DUP1 SWAP2 SUB SWAP1 REVERT JUMPDEST PUSH1 0x0 PUSH1 0x1A DUP4 PUSH1 0x40 MLOAD PUSH2 0x1575 SWAP2 SWAP1 PUSH2 0x293E JUMP JUMPDEST SWAP1 DUP2 MSTORE PUSH1 0x20 ADD PUSH1 0x40 MLOAD DUP1 SWAP2 SUB SWAP1 KECCAK256 PUSH1 0x1 ADD SLOAD PUSH2 0x160E DUP6 ADDRESS PUSH20 0xFFFFFFFFFFFFFFFFFFFFFFFFFFFFFFFFFFFFFFFF AND PUSH4 0x18A25E8 PUSH1 0x40 MLOAD DUP2 PUSH4 0xFFFFFFFF AND PUSH1 0xE0 SHL DUP2 MSTORE PUSH1 0x4 ADD PUSH1 0x20 PUSH1 0x40 MLOAD DUP1 DUP4 SUB DUP2 DUP7 DUP1 EXTCODESIZE ISZERO DUP1 ISZERO PUSH2 0x15D1 JUMPI PUSH1 0x0 DUP1 REVERT JUMPDEST POP GAS STATICCALL ISZERO DUP1 ISZERO PUSH2 0x15E5 JUMPI RETURNDATASIZE PUSH1 0x0 DUP1 RETURNDATACOPY RETURNDATASIZE PUSH1 0x0 REVERT JUMPDEST POP POP POP POP PUSH1 0x40 MLOAD RETURNDATASIZE PUSH1 0x1F NOT PUSH1 0x1F DUP3 ADD AND DUP3 ADD DUP1 PUSH1 0x40 MSTORE POP DUP2 ADD SWAP1 PUSH2 0x1609 SWAP2 SWAP1 PUSH2 0x26C1 JUMP JUMPDEST PUSH2 0x2225 JUMP JUMPDEST PUSH2 0x1618 SWAP2 SWAP1 PUSH2 0x2C43 JUMP JUMPDEST SWAP1 POP PUSH2 0x1648 PUSH1 0x16 PUSH1 0x0 SWAP1 SLOAD SWAP1 PUSH2 0x100 EXP SWAP1 DIV PUSH20 0xFFFFFFFFFFFFFFFFFFFFFFFFFFFFFFFFFFFFFFFF AND CALLER ADDRESS DUP5 PUSH2 0x22AF JUMP JUMPDEST PUSH1 0x13 PUSH1 0x0 SWAP1 SLOAD SWAP1 PUSH2 0x100 EXP SWAP1 DIV PUSH20 0xFFFFFFFFFFFFFFFFFFFFFFFFFFFFFFFFFFFFFFFF AND PUSH20 0xFFFFFFFFFFFFFFFFFFFFFFFFFFFFFFFFFFFFFFFF AND PUSH4 0x40C10F19 CALLER PUSH8 0xDE0B6B3A7640000 DUP8 PUSH2 0x169B SWAP2 SWAP1 PUSH2 0x2C43 JUMP JUMPDEST PUSH1 0x40 MLOAD DUP4 PUSH4 0xFFFFFFFF AND PUSH1 0xE0 SHL DUP2 MSTORE PUSH1 0x4 ADD PUSH2 0x16B8 SWAP3 SWAP2 SWAP1 PUSH2 0x29BC JUMP JUMPDEST PUSH1 0x0 PUSH1 0x40 MLOAD DUP1 DUP4 SUB DUP2 PUSH1 0x0 DUP8 DUP1 EXTCODESIZE ISZERO DUP1 ISZERO PUSH2 0x16D2 JUMPI PUSH1 0x0 DUP1 REVERT JUMPDEST POP GAS CALL ISZERO DUP1 ISZERO PUSH2 0x16E6 JUMPI RETURNDATASIZE PUSH1 0x0 DUP1 RETURNDATACOPY RETURNDATASIZE PUSH1 0x0 REVERT JUMPDEST POP POP POP POP PUSH1 0x14 PUSH1 0x0 SWAP1 SLOAD SWAP1 PUSH2 0x100 EXP SWAP1 DIV PUSH20 0xFFFFFFFFFFFFFFFFFFFFFFFFFFFFFFFFFFFFFFFF AND PUSH20 0xFFFFFFFFFFFFFFFFFFFFFFFFFFFFFFFFFFFFFFFF AND PUSH4 0x40C10F19 ADDRESS PUSH8 0xDE0B6B3A7640000 DUP8 PUSH2 0x173D SWAP2 SWAP1 PUSH2 0x2C43 JUMP JUMPDEST PUSH1 0x40 MLOAD DUP4 PUSH4 0xFFFFFFFF AND PUSH1 0xE0 SHL DUP2 MSTORE PUSH1 0x4 ADD PUSH2 0x175A SWAP3 SWAP2 SWAP1 PUSH2 0x29BC JUMP JUMPDEST PUSH1 0x0 PUSH1 0x40 MLOAD DUP1 DUP4 SUB DUP2 PUSH1 0x0 DUP8 DUP1 EXTCODESIZE ISZERO DUP1 ISZERO PUSH2 0x1774 JUMPI PUSH1 0x0 DUP1 REVERT JUMPDEST POP GAS CALL ISZERO DUP1 ISZERO PUSH2 0x1788 JUMPI RETURNDATASIZE PUSH1 0x0 DUP1 RETURNDATACOPY RETURNDATASIZE PUSH1 0x0 REVERT JUMPDEST POP POP POP POP PUSH1 0x0 PUSH3 0x15180 PUSH1 0xC SLOAD TIMESTAMP PUSH2 0x17A0 SWAP2 SWAP1 PUSH2 0x2C9D JUMP JUMPDEST PUSH2 0x17AA SWAP2 SWAP1 PUSH2 0x2C12 JUMP JUMPDEST SWAP1 POP DUP5 PUSH1 0x17 PUSH1 0x0 DUP4 DUP2 MSTORE PUSH1 0x20 ADD SWAP1 DUP2 MSTORE PUSH1 0x20 ADD PUSH1 0x0 KECCAK256 PUSH1 0x0 DUP3 DUP3 SLOAD PUSH2 0x17CF SWAP2 SWAP1 PUSH2 0x2BBC JUMP JUMPDEST SWAP3 POP POP DUP2 SWAP1 SSTORE POP DUP5 PUSH1 0x19 PUSH1 0x0 DUP4 DUP2 MSTORE PUSH1 0x20 ADD SWAP1 DUP2 MSTORE PUSH1 0x20 ADD PUSH1 0x0 KECCAK256 PUSH1 0x0 DUP3 DUP3 SLOAD PUSH2 0x17F9 SWAP2 SWAP1 PUSH2 0x2BBC JUMP JUMPDEST SWAP3 POP POP DUP2 SWAP1 SSTORE POP CALLER PUSH20 0xFFFFFFFFFFFFFFFFFFFFFFFFFFFFFFFFFFFFFFFF AND PUSH32 0xF633443B01504D269657083D48BB6DE98E089CFFF672B47FEFBED21608B5C779 DUP7 PUSH1 0x40 MLOAD PUSH2 0x1846 SWAP2 SWAP1 PUSH2 0x2AFB JUMP JUMPDEST PUSH1 0x40 MLOAD DUP1 SWAP2 SUB SWAP1 LOG2 POP POP POP PUSH1 0x1 PUSH1 0x0 DUP2 SWAP1 SSTORE POP POP POP JUMP JUMPDEST PUSH1 0x0 DUP1 PUSH1 0x0 DUP1 PUSH3 0x15180 PUSH1 0xD SLOAD PUSH2 0x1874 SWAP2 SWAP1 PUSH2 0x2C12 JUMP JUMPDEST SWAP1 POP PUSH1 0x0 PUSH3 0x15180 PUSH1 0xC SLOAD TIMESTAMP PUSH2 0x188A SWAP2 SWAP1 PUSH2 0x2C9D JUMP JUMPDEST PUSH2 0x1894 SWAP2 SWAP1 PUSH2 0x2C12 JUMP JUMPDEST SWAP1 POP PUSH1 0x0 DUP1 DUP3 EQ ISZERO PUSH2 0x18BB JUMPI PUSH1 0x19 PUSH1 0x0 DUP1 DUP2 MSTORE PUSH1 0x20 ADD SWAP1 DUP2 MSTORE PUSH1 0x20 ADD PUSH1 0x0 KECCAK256 SLOAD SWAP4 POP PUSH2 0x1907 JUMP JUMPDEST DUP3 DUP3 PUSH2 0x18C7 SWAP2 SWAP1 PUSH2 0x2C9D JUMP JUMPDEST SWAP1 POP JUMPDEST DUP2 DUP2 LT ISZERO PUSH2 0x1906 JUMPI PUSH1 0x19 PUSH1 0x0 DUP3 DUP2 MSTORE PUSH1 0x20 ADD SWAP1 DUP2 MSTORE PUSH1 0x20 ADD PUSH1 0x0 KECCAK256 SLOAD DUP5 PUSH2 0x18F1 SWAP2 SWAP1 PUSH2 0x2BBC JUMP JUMPDEST SWAP4 POP DUP1 DUP1 PUSH2 0x18FE SWAP1 PUSH2 0x2DCF JUMP JUMPDEST SWAP2 POP POP PUSH2 0x18CA JUMP JUMPDEST JUMPDEST PUSH2 0x198E ADDRESS PUSH20 0xFFFFFFFFFFFFFFFFFFFFFFFFFFFFFFFFFFFFFFFF AND PUSH4 0x71CD58F9 PUSH1 0x40 MLOAD DUP2 PUSH4 0xFFFFFFFF AND PUSH1 0xE0 SHL DUP2 MSTORE PUSH1 0x4 ADD PUSH1 0x20 PUSH1 0x40 MLOAD DUP1 DUP4 SUB DUP2 DUP7 DUP1 EXTCODESIZE ISZERO DUP1 ISZERO PUSH2 0x1950 JUMPI PUSH1 0x0 DUP1 REVERT JUMPDEST POP GAS STATICCALL ISZERO DUP1 ISZERO PUSH2 0x1964 JUMPI RETURNDATASIZE PUSH1 0x0 DUP1 RETURNDATACOPY RETURNDATASIZE PUSH1 0x0 REVERT JUMPDEST POP POP POP POP PUSH1 0x40 MLOAD RETURNDATASIZE PUSH1 0x1F NOT PUSH1 0x1F DUP3 ADD AND DUP3 ADD DUP1 PUSH1 0x40 MSTORE POP DUP2 ADD SWAP1 PUSH2 0x1988 SWAP2 SWAP1 PUSH2 0x26C1 JUMP JUMPDEST DUP6 PUSH2 0x226E JUMP JUMPDEST SWAP5 POP PUSH8 0x429D069189E0000 DUP6 GT ISZERO PUSH2 0x19AC JUMPI PUSH8 0x429D069189E0000 SWAP5 POP JUMPDEST DUP5 SWAP6 POP POP POP POP POP POP SWAP1 JUMP JUMPDEST POP JUMP JUMPDEST PUSH1 0x1A DUP2 DUP1 MLOAD PUSH1 0x20 DUP2 ADD DUP3 ADD DUP1 MLOAD DUP5 DUP3 MSTORE PUSH1 0x20 DUP4 ADD PUSH1 0x20 DUP6 ADD KECCAK256 DUP2 DUP4 MSTORE DUP1 SWAP6 POP POP POP POP POP POP PUSH1 0x0 SWAP2 POP SWAP1 POP DUP1 PUSH1 0x0 ADD PUSH1 0x0 SWAP1 SLOAD SWAP1 PUSH2 0x100 EXP SWAP1 DIV PUSH20 0xFFFFFFFFFFFFFFFFFFFFFFFFFFFFFFFFFFFFFFFF AND SWAP1 DUP1 PUSH1 0x1 ADD SLOAD SWAP1 POP DUP3 JUMP JUMPDEST PUSH1 0x1A PUSH1 0x40 MLOAD PUSH2 0x1A22 SWAP1 PUSH2 0x2955 JUMP JUMPDEST SWAP1 DUP2 MSTORE PUSH1 0x20 ADD PUSH1 0x40 MLOAD DUP1 SWAP2 SUB SWAP1 KECCAK256 PUSH1 0x0 ADD PUSH1 0x0 SWAP1 SLOAD SWAP1 PUSH2 0x100 EXP SWAP1 DIV PUSH20 0xFFFFFFFFFFFFFFFFFFFFFFFFFFFFFFFFFFFFFFFF AND PUSH1 0x16 PUSH1 0x0 PUSH2 0x100 EXP DUP2 SLOAD DUP2 PUSH20 0xFFFFFFFFFFFFFFFFFFFFFFFFFFFFFFFFFFFFFFFF MUL NOT AND SWAP1 DUP4 PUSH20 0xFFFFFFFFFFFFFFFFFFFFFFFFFFFFFFFFFFFFFFFF AND MUL OR SWAP1 SSTORE POP PUSH1 0x16 PUSH1 0x0 SWAP1 SLOAD SWAP1 PUSH2 0x100 EXP SWAP1 DIV PUSH20 0xFFFFFFFFFFFFFFFFFFFFFFFFFFFFFFFFFFFFFFFF AND PUSH20 0xFFFFFFFFFFFFFFFFFFFFFFFFFFFFFFFFFFFFFFFF AND PUSH4 0x70A08231 PUSH20 0x4B20993BC481177EC7E8F571CECAE8A9E22C02DB PUSH1 0x40 MLOAD DUP3 PUSH4 0xFFFFFFFF AND PUSH1 0xE0 SHL DUP2 MSTORE PUSH1 0x4 ADD PUSH2 0x1B03 SWAP2 SWAP1 PUSH2 0x296A JUMP JUMPDEST PUSH1 0x20 PUSH1 0x40 MLOAD DUP1 DUP4 SUB DUP2 DUP7 DUP1 EXTCODESIZE ISZERO DUP1 ISZERO PUSH2 0x1B1B JUMPI PUSH1 0x0 DUP1 REVERT JUMPDEST POP GAS STATICCALL ISZERO DUP1 ISZERO PUSH2 0x1B2F JUMPI RETURNDATASIZE PUSH1 0x0 DUP1 RETURNDATACOPY RETURNDATASIZE PUSH1 0x0 REVERT JUMPDEST POP POP POP POP PUSH1 0x40 MLOAD RETURNDATASIZE PUSH1 0x1F NOT PUSH1 0x1F DUP3 ADD AND DUP3 ADD DUP1 PUSH1 0x40 MSTORE POP DUP2 ADD SWAP1 PUSH2 0x1B53 SWAP2 SWAP1 PUSH2 0x26C1 JUMP JUMPDEST PUSH1 0xB DUP2 SWAP1 SSTORE POP JUMP JUMPDEST PUSH1 0x1B PUSH1 0x0 DUP4 PUSH20 0xFFFFFFFFFFFFFFFFFFFFFFFFFFFFFFFFFFFFFFFF AND PUSH20 0xFFFFFFFFFFFFFFFFFFFFFFFFFFFFFFFFFFFFFFFF AND DUP2 MSTORE PUSH1 0x20 ADD SWAP1 DUP2 MSTORE PUSH1 0x20 ADD PUSH1 0x0 KECCAK256 PUSH1 0x0 ADD SLOAD TIMESTAMP LT ISZERO PUSH2 0x1BE0 JUMPI PUSH1 0x40 MLOAD PUSH32 0x8C379A000000000000000000000000000000000000000000000000000000000 DUP2 MSTORE PUSH1 0x4 ADD PUSH2 0x1BD7 SWAP1 PUSH2 0x2A9B JUMP JUMPDEST PUSH1 0x40 MLOAD DUP1 SWAP2 SUB SWAP1 REVERT JUMPDEST PUSH1 0x1A DUP2 PUSH1 0x40 MLOAD PUSH2 0x1BF0 SWAP2 SWAP1 PUSH2 0x293E JUMP JUMPDEST SWAP1 DUP2 MSTORE PUSH1 0x20 ADD PUSH1 0x40 MLOAD DUP1 SWAP2 SUB SWAP1 KECCAK256 PUSH1 0x0 ADD PUSH1 0x0 SWAP1 SLOAD SWAP1 PUSH2 0x100 EXP SWAP1 DIV PUSH20 0xFFFFFFFFFFFFFFFFFFFFFFFFFFFFFFFFFFFFFFFF AND PUSH1 0x16 PUSH1 0x0 PUSH2 0x100 EXP DUP2 SLOAD DUP2 PUSH20 0xFFFFFFFFFFFFFFFFFFFFFFFFFFFFFFFFFFFFFFFF MUL NOT AND SWAP1 DUP4 PUSH20 0xFFFFFFFFFFFFFFFFFFFFFFFFFFFFFFFFFFFFFFFF AND MUL OR SWAP1 SSTORE POP PUSH1 0x0 PUSH1 0x1B PUSH1 0x0 DUP5 PUSH20 0xFFFFFFFFFFFFFFFFFFFFFFFFFFFFFFFFFFFFFFFF AND PUSH20 0xFFFFFFFFFFFFFFFFFFFFFFFFFFFFFFFFFFFFFFFF AND DUP2 MSTORE PUSH1 0x20 ADD SWAP1 DUP2 MSTORE PUSH1 0x20 ADD PUSH1 0x0 KECCAK256 PUSH1 0x1 ADD SLOAD SWAP1 POP PUSH2 0x1CD7 PUSH1 0x16 PUSH1 0x0 SWAP1 SLOAD SWAP1 PUSH2 0x100 EXP SWAP1 DIV PUSH20 0xFFFFFFFFFFFFFFFFFFFFFFFFFFFFFFFFFFFFFFFF AND ADDRESS CALLER DUP5 PUSH2 0x22AF JUMP JUMPDEST POP POP POP JUMP JUMPDEST PUSH1 0x8 PUSH1 0x0 SWAP1 SLOAD SWAP1 PUSH2 0x100 EXP SWAP1 DIV PUSH20 0xFFFFFFFFFFFFFFFFFFFFFFFFFFFFFFFFFFFFFFFF AND DUP2 JUMP JUMPDEST PUSH1 0x15 PUSH1 0x0 SWAP1 SLOAD SWAP1 PUSH2 0x100 EXP SWAP1 DIV PUSH20 0xFFFFFFFFFFFFFFFFFFFFFFFFFFFFFFFFFFFFFFFF AND DUP2 JUMP JUMPDEST PUSH1 0x1A DUP2 PUSH1 0x40 MLOAD PUSH2 0x1D38 SWAP2 SWAP1 PUSH2 0x293E JUMP JUMPDEST SWAP1 DUP2 MSTORE PUSH1 0x20 ADD PUSH1 0x40 MLOAD DUP1 SWAP2 SUB SWAP1 KECCAK256 PUSH1 0x0 ADD PUSH1 0x0 SWAP1 SLOAD SWAP1 PUSH2 0x100 EXP SWAP1 DIV PUSH20 0xFFFFFFFFFFFFFFFFFFFFFFFFFFFFFFFFFFFFFFFF AND PUSH1 0x16 PUSH1 0x0 PUSH2 0x100 EXP DUP2 SLOAD DUP2 PUSH20 0xFFFFFFFFFFFFFFFFFFFFFFFFFFFFFFFFFFFFFFFF MUL NOT AND SWAP1 DUP4 PUSH20 0xFFFFFFFFFFFFFFFFFFFFFFFFFFFFFFFFFFFFFFFF AND MUL OR SWAP1 SSTORE POP PUSH1 0x0 PUSH1 0x13 PUSH1 0x0 SWAP1 SLOAD SWAP1 PUSH2 0x100 EXP SWAP1 DIV PUSH20 0xFFFFFFFFFFFFFFFFFFFFFFFFFFFFFFFFFFFFFFFF AND PUSH20 0xFFFFFFFFFFFFFFFFFFFFFFFFFFFFFFFFFFFFFFFF AND PUSH4 0x70A08231 CALLER PUSH1 0x40 MLOAD DUP3 PUSH4 0xFFFFFFFF AND PUSH1 0xE0 SHL DUP2 MSTORE PUSH1 0x4 ADD PUSH2 0x1E07 SWAP2 SWAP1 PUSH2 0x296A JUMP JUMPDEST PUSH1 0x20 PUSH1 0x40 MLOAD DUP1 DUP4 SUB DUP2 DUP7 DUP1 EXTCODESIZE ISZERO DUP1 ISZERO PUSH2 0x1E1F JUMPI PUSH1 0x0 DUP1 REVERT JUMPDEST POP GAS STATICCALL ISZERO DUP1 ISZERO PUSH2 0x1E33 JUMPI RETURNDATASIZE PUSH1 0x0 DUP1 RETURNDATACOPY RETURNDATASIZE PUSH1 0x0 REVERT JUMPDEST POP POP POP POP PUSH1 0x40 MLOAD RETURNDATASIZE PUSH1 0x1F NOT PUSH1 0x1F DUP3 ADD AND DUP3 ADD DUP1 PUSH1 0x40 MSTORE POP DUP2 ADD SWAP1 PUSH2 0x1E57 SWAP2 SWAP1 PUSH2 0x26C1 JUMP JUMPDEST SWAP1 POP DUP4 DUP2 GT PUSH2 0x1E9B JUMPI PUSH1 0x40 MLOAD PUSH32 0x8C379A000000000000000000000000000000000000000000000000000000000 DUP2 MSTORE PUSH1 0x4 ADD PUSH2 0x1E92 SWAP1 PUSH2 0x2A5B JUMP JUMPDEST PUSH1 0x40 MLOAD DUP1 SWAP2 SUB SWAP1 REVERT JUMPDEST PUSH1 0x16 PUSH1 0x0 SWAP1 SLOAD SWAP1 PUSH2 0x100 EXP SWAP1 DIV PUSH20 0xFFFFFFFFFFFFFFFFFFFFFFFFFFFFFFFFFFFFFFFF AND PUSH20 0xFFFFFFFFFFFFFFFFFFFFFFFFFFFFFFFFFFFFFFFF AND PUSH4 0xA9059CBB CALLER PUSH8 0xDE0B6B3A7640000 PUSH1 0x1 PUSH2 0x1EEF SWAP2 SWAP1 PUSH2 0x2C43 JUMP JUMPDEST DUP8 PUSH2 0x1EFA SWAP2 SWAP1 PUSH2 0x2BBC JUMP JUMPDEST PUSH1 0x40 MLOAD DUP4 PUSH4 0xFFFFFFFF AND PUSH1 0xE0 SHL DUP2 MSTORE PUSH1 0x4 ADD PUSH2 0x1F17 SWAP3 SWAP2 SWAP1 PUSH2 0x29BC JUMP JUMPDEST PUSH1 0x20 PUSH1 0x40 MLOAD DUP1 DUP4 SUB DUP2 PUSH1 0x0 DUP8 DUP1 EXTCODESIZE ISZERO DUP1 ISZERO PUSH2 0x1F31 JUMPI PUSH1 0x0 DUP1 REVERT JUMPDEST POP GAS CALL ISZERO DUP1 ISZERO PUSH2 0x1F45 JUMPI RETURNDATASIZE PUSH1 0x0 DUP1 RETURNDATACOPY RETURNDATASIZE PUSH1 0x0 REVERT JUMPDEST POP POP POP POP PUSH1 0x40 MLOAD RETURNDATASIZE PUSH1 0x1F NOT PUSH1 0x1F DUP3 ADD AND DUP3 ADD DUP1 PUSH1 0x40 MSTORE POP DUP2 ADD SWAP1 PUSH2 0x1F69 SWAP2 SWAP1 PUSH2 0x25AF JUMP JUMPDEST POP PUSH2 0x1F98 PUSH1 0x13 PUSH1 0x0 SWAP1 SLOAD SWAP1 PUSH2 0x100 EXP SWAP1 DIV PUSH20 0xFFFFFFFFFFFFFFFFFFFFFFFFFFFFFFFFFFFFFFFF AND CALLER ADDRESS DUP8 PUSH2 0x22AF JUMP JUMPDEST PUSH1 0x0 DUP5 ADDRESS PUSH20 0xFFFFFFFFFFFFFFFFFFFFFFFFFFFFFFFFFFFFFFFF AND PUSH4 0x43D32E9C PUSH1 0x40 MLOAD DUP2 PUSH4 0xFFFFFFFF AND PUSH1 0xE0 SHL DUP2 MSTORE PUSH1 0x4 ADD PUSH1 0x20 PUSH1 0x40 MLOAD DUP1 DUP4 SUB DUP2 DUP7 DUP1 EXTCODESIZE ISZERO DUP1 ISZERO PUSH2 0x1FE1 JUMPI PUSH1 0x0 DUP1 REVERT JUMPDEST POP GAS STATICCALL ISZERO DUP1 ISZERO PUSH2 0x1FF5 JUMPI RETURNDATASIZE PUSH1 0x0 DUP1 RETURNDATACOPY RETURNDATASIZE PUSH1 0x0 REVERT JUMPDEST POP POP POP POP PUSH1 0x40 MLOAD RETURNDATASIZE PUSH1 0x1F NOT PUSH1 0x1F DUP3 ADD AND DUP3 ADD DUP1 PUSH1 0x40 MSTORE POP DUP2 ADD SWAP1 PUSH2 0x2019 SWAP2 SWAP1 PUSH2 0x26C1 JUMP JUMPDEST PUSH2 0x2023 SWAP2 SWAP1 PUSH2 0x2C43 JUMP JUMPDEST SWAP1 POP PUSH1 0x0 PUSH3 0x15180 PUSH1 0xC SLOAD TIMESTAMP PUSH2 0x2039 SWAP2 SWAP1 PUSH2 0x2C9D JUMP JUMPDEST PUSH2 0x2043 SWAP2 SWAP1 PUSH2 0x2C12 JUMP JUMPDEST SWAP1 POP DUP6 PUSH1 0x18 PUSH1 0x0 DUP4 DUP2 MSTORE PUSH1 0x20 ADD SWAP1 DUP2 MSTORE PUSH1 0x20 ADD PUSH1 0x0 KECCAK256 PUSH1 0x0 DUP3 DUP3 SLOAD PUSH2 0x2068 SWAP2 SWAP1 PUSH2 0x2BBC JUMP JUMPDEST SWAP3 POP POP DUP2 SWAP1 SSTORE POP DUP6 PUSH1 0x19 PUSH1 0x0 DUP4 DUP2 MSTORE PUSH1 0x20 ADD SWAP1 DUP2 MSTORE PUSH1 0x20 ADD PUSH1 0x0 KECCAK256 PUSH1 0x0 DUP3 DUP3 SLOAD PUSH2 0x2092 SWAP2 SWAP1 PUSH2 0x2C9D JUMP JUMPDEST SWAP3 POP POP DUP2 SWAP1 SSTORE POP POP POP POP POP POP POP JUMP JUMPDEST PUSH1 0x2 SLOAD DUP2 JUMP JUMPDEST PUSH1 0x14 PUSH1 0x0 SWAP1 SLOAD SWAP1 PUSH2 0x100 EXP SWAP1 DIV PUSH20 0xFFFFFFFFFFFFFFFFFFFFFFFFFFFFFFFFFFFFFFFF AND DUP2 JUMP JUMPDEST PUSH1 0x0 DUP1 PUSH1 0x0 DUP1 PUSH3 0x15180 PUSH1 0xD SLOAD PUSH2 0x20E4 SWAP2 SWAP1 PUSH2 0x2C12 JUMP JUMPDEST SWAP1 POP PUSH1 0x0 SWAP2 POP JUMPDEST DUP1 DUP3 LT ISZERO PUSH2 0x2127 JUMPI PUSH1 0x18 PUSH1 0x0 DUP4 DUP2 MSTORE PUSH1 0x20 ADD SWAP1 DUP2 MSTORE PUSH1 0x20 ADD PUSH1 0x0 KECCAK256 SLOAD DUP4 PUSH2 0x2112 SWAP2 SWAP1 PUSH2 0x2BBC JUMP JUMPDEST SWAP3 POP DUP2 DUP1 PUSH2 0x211F SWAP1 PUSH2 0x2DCF JUMP JUMPDEST SWAP3 POP POP PUSH2 0x20EB JUMP JUMPDEST DUP3 SWAP4 POP POP POP POP SWAP1 JUMP JUMPDEST DUP2 PUSH1 0x1A DUP5 PUSH1 0x40 MLOAD PUSH2 0x2141 SWAP2 SWAP1 PUSH2 0x293E JUMP JUMPDEST SWAP1 DUP2 MSTORE PUSH1 0x20 ADD PUSH1 0x40 MLOAD DUP1 SWAP2 SUB SWAP1 KECCAK256 PUSH1 0x0 ADD PUSH1 0x0 PUSH2 0x100 EXP DUP2 SLOAD DUP2 PUSH20 0xFFFFFFFFFFFFFFFFFFFFFFFFFFFFFFFFFFFFFFFF MUL NOT AND SWAP1 DUP4 PUSH20 0xFFFFFFFFFFFFFFFFFFFFFFFFFFFFFFFFFFFFFFFF AND MUL OR SWAP1 SSTORE POP DUP1 PUSH1 0x1A DUP5 PUSH1 0x40 MLOAD PUSH2 0x21A1 SWAP2 SWAP1 PUSH2 0x293E JUMP JUMPDEST SWAP1 DUP2 MSTORE PUSH1 0x20 ADD PUSH1 0x40 MLOAD DUP1 SWAP2 SUB SWAP1 KECCAK256 PUSH1 0x1 ADD DUP2 SWAP1 SSTORE POP POP POP POP JUMP JUMPDEST PUSH1 0x1 SLOAD DUP2 JUMP JUMPDEST PUSH1 0x12 PUSH1 0x0 SWAP1 SLOAD SWAP1 PUSH2 0x100 EXP SWAP1 DIV PUSH20 0xFFFFFFFFFFFFFFFFFFFFFFFFFFFFFFFFFFFFFFFF AND DUP2 JUMP JUMPDEST PUSH1 0x7 PUSH1 0x0 SWAP1 SLOAD SWAP1 PUSH2 0x100 EXP SWAP1 DIV PUSH20 0xFFFFFFFFFFFFFFFFFFFFFFFFFFFFFFFFFFFFFFFF AND DUP2 JUMP JUMPDEST PUSH3 0x15180 DUP2 PUSH2 0x221C SWAP2 SWAP1 PUSH2 0x2C43 JUMP JUMPDEST PUSH1 0xD DUP2 SWAP1 SSTORE POP POP JUMP JUMPDEST PUSH1 0x0 DUP1 PUSH2 0x2232 DUP5 DUP5 PUSH2 0x2389 JUMP JUMPDEST SWAP1 POP PUSH8 0xDE0B6B3A7640000 PUSH2 0x225B DUP3 PUSH1 0x2 PUSH8 0xDE0B6B3A7640000 PUSH2 0x2256 SWAP2 SWAP1 PUSH2 0x2C12 JUMP JUMPDEST PUSH2 0x2404 JUMP JUMPDEST PUSH2 0x2265 SWAP2 SWAP1 PUSH2 0x2C12 JUMP JUMPDEST SWAP2 POP POP SWAP3 SWAP2 POP POP JUMP JUMPDEST PUSH1 0x0 DUP1 PUSH2 0x2283 DUP5 PUSH8 0xDE0B6B3A7640000 PUSH2 0x2389 JUMP JUMPDEST SWAP1 POP DUP3 PUSH2 0x229C DUP3 PUSH1 0x2 DUP7 PUSH2 0x2297 SWAP2 SWAP1 PUSH2 0x2C12 JUMP JUMPDEST PUSH2 0x2404 JUMP JUMPDEST PUSH2 0x22A6 SWAP2 SWAP1 PUSH2 0x2C12 JUMP JUMPDEST SWAP2 POP POP SWAP3 SWAP2 POP POP JUMP JUMPDEST PUSH1 0x0 DUP5 PUSH20 0xFFFFFFFFFFFFFFFFFFFFFFFFFFFFFFFFFFFFFFFF AND PUSH4 0x23B872DD DUP6 DUP6 DUP6 PUSH1 0x40 MLOAD DUP5 PUSH4 0xFFFFFFFF AND PUSH1 0xE0 SHL DUP2 MSTORE PUSH1 0x4 ADD PUSH2 0x22EE SWAP4 SWAP3 SWAP2 SWAP1 PUSH2 0x2985 JUMP JUMPDEST PUSH1 0x20 PUSH1 0x40 MLOAD DUP1 DUP4 SUB DUP2 PUSH1 0x0 DUP8 DUP1 EXTCODESIZE ISZERO DUP1 ISZERO PUSH2 0x2308 JUMPI PUSH1 0x0 DUP1 REVERT JUMPDEST POP GAS CALL ISZERO DUP1 ISZERO PUSH2 0x231C JUMPI RETURNDATASIZE PUSH1 0x0 DUP1 RETURNDATACOPY RETURNDATASIZE PUSH1 0x0 REVERT JUMPDEST POP POP POP POP PUSH1 0x40 MLOAD RETURNDATASIZE PUSH1 0x1F NOT PUSH1 0x1F DUP3 ADD AND DUP3 ADD DUP1 PUSH1 0x40 MSTORE POP DUP2 ADD SWAP1 PUSH2 0x2340 SWAP2 SWAP1 PUSH2 0x25AF JUMP JUMPDEST SWAP1 POP DUP1 PUSH2 0x2382 JUMPI PUSH1 0x40 MLOAD PUSH32 0x8C379A000000000000000000000000000000000000000000000000000000000 DUP2 MSTORE PUSH1 0x4 ADD PUSH2 0x2379 SWAP1 PUSH2 0x2A3B JUMP JUMPDEST PUSH1 0x40 MLOAD DUP1 SWAP2 SUB SWAP1 REVERT JUMPDEST POP POP POP POP POP JUMP JUMPDEST PUSH1 0x0 DUP1 DUP4 EQ ISZERO PUSH2 0x239C JUMPI PUSH1 0x0 SWAP1 POP PUSH2 0x23FE JUMP JUMPDEST PUSH1 0x0 DUP3 DUP5 PUSH2 0x23AA SWAP2 SWAP1 PUSH2 0x2C43 JUMP JUMPDEST SWAP1 POP DUP3 DUP5 DUP3 PUSH2 0x23B9 SWAP2 SWAP1 PUSH2 0x2C12 JUMP JUMPDEST EQ PUSH2 0x23F9 JUMPI PUSH1 0x40 MLOAD PUSH32 0x8C379A000000000000000000000000000000000000000000000000000000000 DUP2 MSTORE PUSH1 0x4 ADD PUSH2 0x23F0 SWAP1 PUSH2 0x2ADB JUMP JUMPDEST PUSH1 0x40 MLOAD DUP1 SWAP2 SUB SWAP1 REVERT JUMPDEST DUP1 SWAP2 POP POP JUMPDEST SWAP3 SWAP2 POP POP JUMP JUMPDEST PUSH1 0x0 DUP1 DUP3 DUP5 PUSH2 0x2413 SWAP2 SWAP1 PUSH2 0x2BBC JUMP JUMPDEST SWAP1 POP DUP4 DUP2 LT ISZERO PUSH2 0x2458 JUMPI PUSH1 0x40 MLOAD PUSH32 0x8C379A000000000000000000000000000000000000000000000000000000000 DUP2 MSTORE PUSH1 0x4 ADD PUSH2 0x244F SWAP1 PUSH2 0x2ADB JUMP JUMPDEST PUSH1 0x40 MLOAD DUP1 SWAP2 SUB SWAP1 REVERT JUMPDEST DUP1 SWAP2 POP POP SWAP3 SWAP2 POP POP JUMP JUMPDEST PUSH1 0x0 PUSH2 0x2475 PUSH2 0x2470 DUP5 PUSH2 0x2B64 JUMP JUMPDEST PUSH2 0x2B3F JUMP JUMPDEST SWAP1 POP DUP3 DUP2 MSTORE PUSH1 0x20 DUP2 ADD DUP5 DUP5 DUP5 ADD GT ISZERO PUSH2 0x2491 JUMPI PUSH2 0x2490 PUSH2 0x2EAA JUMP JUMPDEST JUMPDEST PUSH2 0x249C DUP5 DUP3 DUP6 PUSH2 0x2D5C JUMP JUMPDEST POP SWAP4 SWAP3 POP POP POP JUMP JUMPDEST PUSH1 0x0 DUP2 CALLDATALOAD SWAP1 POP PUSH2 0x24B3 DUP2 PUSH2 0x305E JUMP JUMPDEST SWAP3 SWAP2 POP POP JUMP JUMPDEST PUSH1 0x0 DUP2 MLOAD SWAP1 POP PUSH2 0x24C8 DUP2 PUSH2 0x3075 JUMP JUMPDEST SWAP3 SWAP2 POP POP JUMP JUMPDEST PUSH1 0x0 DUP3 PUSH1 0x1F DUP4 ADD SLT PUSH2 0x24E3 JUMPI PUSH2 0x24E2 PUSH2 0x2EA5 JUMP JUMPDEST JUMPDEST DUP2 CALLDATALOAD PUSH2 0x24F3 DUP5 DUP3 PUSH1 0x20 DUP7 ADD PUSH2 0x2462 JUMP JUMPDEST SWAP2 POP POP SWAP3 SWAP2 POP POP JUMP JUMPDEST PUSH1 0x0 DUP2 CALLDATALOAD SWAP1 POP PUSH2 0x250B DUP2 PUSH2 0x308C JUMP JUMPDEST SWAP3 SWAP2 POP POP JUMP JUMPDEST PUSH1 0x0 DUP2 MLOAD SWAP1 POP PUSH2 0x2520 DUP2 PUSH2 0x308C JUMP JUMPDEST SWAP3 SWAP2 POP POP JUMP JUMPDEST PUSH1 0x0 PUSH1 0x20 DUP3 DUP5 SUB SLT ISZERO PUSH2 0x253C JUMPI PUSH2 0x253B PUSH2 0x2EB4 JUMP JUMPDEST JUMPDEST PUSH1 0x0 PUSH2 0x254A DUP5 DUP3 DUP6 ADD PUSH2 0x24A4 JUMP JUMPDEST SWAP2 POP POP SWAP3 SWAP2 POP POP JUMP JUMPDEST PUSH1 0x0 DUP1 PUSH1 0x40 DUP4 DUP6 SUB SLT ISZERO PUSH2 0x256A JUMPI PUSH2 0x2569 PUSH2 0x2EB4 JUMP JUMPDEST JUMPDEST PUSH1 0x0 PUSH2 0x2578 DUP6 DUP3 DUP7 ADD PUSH2 0x24A4 JUMP JUMPDEST SWAP3 POP POP PUSH1 0x20 DUP4 ADD CALLDATALOAD PUSH8 0xFFFFFFFFFFFFFFFF DUP2 GT ISZERO PUSH2 0x2599 JUMPI PUSH2 0x2598 PUSH2 0x2EAF JUMP JUMPDEST JUMPDEST PUSH2 0x25A5 DUP6 DUP3 DUP7 ADD PUSH2 0x24CE JUMP JUMPDEST SWAP2 POP POP SWAP3 POP SWAP3 SWAP1 POP JUMP JUMPDEST PUSH1 0x0 PUSH1 0x20 DUP3 DUP5 SUB SLT ISZERO PUSH2 0x25C5 JUMPI PUSH2 0x25C4 PUSH2 0x2EB4 JUMP JUMPDEST JUMPDEST PUSH1 0x0 PUSH2 0x25D3 DUP5 DUP3 DUP6 ADD PUSH2 0x24B9 JUMP JUMPDEST SWAP2 POP POP SWAP3 SWAP2 POP POP JUMP JUMPDEST PUSH1 0x0 PUSH1 0x20 DUP3 DUP5 SUB SLT ISZERO PUSH2 0x25F2 JUMPI PUSH2 0x25F1 PUSH2 0x2EB4 JUMP JUMPDEST JUMPDEST PUSH1 0x0 DUP3 ADD CALLDATALOAD PUSH8 0xFFFFFFFFFFFFFFFF DUP2 GT ISZERO PUSH2 0x2610 JUMPI PUSH2 0x260F PUSH2 0x2EAF JUMP JUMPDEST JUMPDEST PUSH2 0x261C DUP5 DUP3 DUP6 ADD PUSH2 0x24CE JUMP JUMPDEST SWAP2 POP POP SWAP3 SWAP2 POP POP JUMP JUMPDEST PUSH1 0x0 DUP1 PUSH1 0x0 PUSH1 0x60 DUP5 DUP7 SUB SLT ISZERO PUSH2 0x263E JUMPI PUSH2 0x263D PUSH2 0x2EB4 JUMP JUMPDEST JUMPDEST PUSH1 0x0 DUP5 ADD CALLDATALOAD PUSH8 0xFFFFFFFFFFFFFFFF DUP2 GT ISZERO PUSH2 0x265C JUMPI PUSH2 0x265B PUSH2 0x2EAF JUMP JUMPDEST JUMPDEST PUSH2 0x2668 DUP7 DUP3 DUP8 ADD PUSH2 0x24CE JUMP JUMPDEST SWAP4 POP POP PUSH1 0x20 PUSH2 0x2679 DUP7 DUP3 DUP8 ADD PUSH2 0x24A4 JUMP JUMPDEST SWAP3 POP POP PUSH1 0x40 PUSH2 0x268A DUP7 DUP3 DUP8 ADD PUSH2 0x24FC JUMP JUMPDEST SWAP2 POP POP SWAP3 POP SWAP3 POP SWAP3 JUMP JUMPDEST PUSH1 0x0 PUSH1 0x20 DUP3 DUP5 SUB SLT ISZERO PUSH2 0x26AA JUMPI PUSH2 0x26A9 PUSH2 0x2EB4 JUMP JUMPDEST JUMPDEST PUSH1 0x0 PUSH2 0x26B8 DUP5 DUP3 DUP6 ADD PUSH2 0x24FC JUMP JUMPDEST SWAP2 POP POP SWAP3 SWAP2 POP POP JUMP JUMPDEST PUSH1 0x0 PUSH1 0x20 DUP3 DUP5 SUB SLT ISZERO PUSH2 0x26D7 JUMPI PUSH2 0x26D6 PUSH2 0x2EB4 JUMP JUMPDEST JUMPDEST PUSH1 0x0 PUSH2 0x26E5 DUP5 DUP3 DUP6 ADD PUSH2 0x2511 JUMP JUMPDEST SWAP2 POP POP SWAP3 SWAP2 POP POP JUMP JUMPDEST PUSH1 0x0 DUP1 PUSH1 0x40 DUP4 DUP6 SUB SLT ISZERO PUSH2 0x2705 JUMPI PUSH2 0x2704 PUSH2 0x2EB4 JUMP JUMPDEST JUMPDEST PUSH1 0x0 PUSH2 0x2713 DUP6 DUP3 DUP7 ADD PUSH2 0x24FC JUMP JUMPDEST SWAP3 POP POP PUSH1 0x20 DUP4 ADD CALLDATALOAD PUSH8 0xFFFFFFFFFFFFFFFF DUP2 GT ISZERO PUSH2 0x2734 JUMPI PUSH2 0x2733 PUSH2 0x2EAF JUMP JUMPDEST JUMPDEST PUSH2 0x2740 DUP6 DUP3 DUP7 ADD PUSH2 0x24CE JUMP JUMPDEST SWAP2 POP POP SWAP3 POP SWAP3 SWAP1 POP JUMP JUMPDEST PUSH1 0x0 DUP1 PUSH1 0x0 PUSH1 0x60 DUP5 DUP7 SUB SLT ISZERO PUSH2 0x2763 JUMPI PUSH2 0x2762 PUSH2 0x2EB4 JUMP JUMPDEST JUMPDEST PUSH1 0x0 PUSH2 0x2771 DUP7 DUP3 DUP8 ADD PUSH2 0x24FC JUMP JUMPDEST SWAP4 POP POP PUSH1 0x20 PUSH2 0x2782 DUP7 DUP3 DUP8 ADD PUSH2 0x24FC JUMP JUMPDEST SWAP3 POP POP PUSH1 0x40 DUP5 ADD CALLDATALOAD PUSH8 0xFFFFFFFFFFFFFFFF DUP2 GT ISZERO PUSH2 0x27A3 JUMPI PUSH2 0x27A2 PUSH2 0x2EAF JUMP JUMPDEST JUMPDEST PUSH2 0x27AF DUP7 DUP3 DUP8 ADD PUSH2 0x24CE JUMP JUMPDEST SWAP2 POP POP SWAP3 POP SWAP3 POP SWAP3 JUMP JUMPDEST PUSH2 0x27C2 DUP2 PUSH2 0x2CD1 JUMP JUMPDEST DUP3 MSTORE POP POP JUMP JUMPDEST PUSH2 0x27D1 DUP2 PUSH2 0x2D26 JUMP JUMPDEST DUP3 MSTORE POP POP JUMP JUMPDEST PUSH2 0x27E0 DUP2 PUSH2 0x2CEF JUMP JUMPDEST DUP3 MSTORE POP POP JUMP JUMPDEST PUSH1 0x0 PUSH2 0x27F1 DUP3 PUSH2 0x2B95 JUMP JUMPDEST PUSH2 0x27FB DUP2 DUP6 PUSH2 0x2BB1 JUMP JUMPDEST SWAP4 POP PUSH2 0x280B DUP2 DUP6 PUSH1 0x20 DUP7 ADD PUSH2 0x2D6B JUMP JUMPDEST DUP1 DUP5 ADD SWAP2 POP POP SWAP3 SWAP2 POP POP JUMP JUMPDEST PUSH1 0x0 PUSH2 0x2824 PUSH1 0x24 DUP4 PUSH2 0x2BA0 JUMP JUMPDEST SWAP2 POP PUSH2 0x282F DUP3 PUSH2 0x2ECA JUMP JUMPDEST PUSH1 0x40 DUP3 ADD SWAP1 POP SWAP2 SWAP1 POP JUMP JUMPDEST PUSH1 0x0 PUSH2 0x2847 PUSH1 0x15 DUP4 PUSH2 0x2BA0 JUMP JUMPDEST SWAP2 POP PUSH2 0x2852 DUP3 PUSH2 0x2F19 JUMP JUMPDEST PUSH1 0x20 DUP3 ADD SWAP1 POP SWAP2 SWAP1 POP JUMP JUMPDEST PUSH1 0x0 PUSH2 0x286A PUSH1 0x1A DUP4 PUSH2 0x2BA0 JUMP JUMPDEST SWAP2 POP PUSH2 0x2875 DUP3 PUSH2 0x2F42 JUMP JUMPDEST PUSH1 0x20 DUP3 ADD SWAP1 POP SWAP2 SWAP1 POP JUMP JUMPDEST PUSH1 0x0 PUSH2 0x288D PUSH1 0x15 DUP4 PUSH2 0x2BA0 JUMP JUMPDEST SWAP2 POP PUSH2 0x2898 DUP3 PUSH2 0x2F6B JUMP JUMPDEST PUSH1 0x20 DUP3 ADD SWAP1 POP SWAP2 SWAP1 POP JUMP JUMPDEST PUSH1 0x0 PUSH2 0x28B0 PUSH1 0x4 DUP4 PUSH2 0x2BB1 JUMP JUMPDEST SWAP2 POP PUSH2 0x28BB DUP3 PUSH2 0x2F94 JUMP JUMPDEST PUSH1 0x4 DUP3 ADD SWAP1 POP SWAP2 SWAP1 POP JUMP JUMPDEST PUSH1 0x0 PUSH2 0x28D3 PUSH1 0xC DUP4 PUSH2 0x2BA0 JUMP JUMPDEST SWAP2 POP PUSH2 0x28DE DUP3 PUSH2 0x2FBD JUMP JUMPDEST PUSH1 0x20 DUP3 ADD SWAP1 POP SWAP2 SWAP1 POP JUMP JUMPDEST PUSH1 0x0 PUSH2 0x28F6 PUSH1 0x1F DUP4 PUSH2 0x2BA0 JUMP JUMPDEST SWAP2 POP PUSH2 0x2901 DUP3 PUSH2 0x2FE6 JUMP JUMPDEST PUSH1 0x20 DUP3 ADD SWAP1 POP SWAP2 SWAP1 POP JUMP JUMPDEST PUSH1 0x0 PUSH2 0x2919 PUSH1 0x21 DUP4 PUSH2 0x2BA0 JUMP JUMPDEST SWAP2 POP PUSH2 0x2924 DUP3 PUSH2 0x300F JUMP JUMPDEST PUSH1 0x40 DUP3 ADD SWAP1 POP SWAP2 SWAP1 POP JUMP JUMPDEST PUSH2 0x2938 DUP2 PUSH2 0x2D1C JUMP JUMPDEST DUP3 MSTORE POP POP JUMP JUMPDEST PUSH1 0x0 PUSH2 0x294A DUP3 DUP5 PUSH2 0x27E6 JUMP JUMPDEST SWAP2 POP DUP2 SWAP1 POP SWAP3 SWAP2 POP POP JUMP JUMPDEST PUSH1 0x0 PUSH2 0x2960 DUP3 PUSH2 0x28A3 JUMP JUMPDEST SWAP2 POP DUP2 SWAP1 POP SWAP2 SWAP1 POP JUMP JUMPDEST PUSH1 0x0 PUSH1 0x20 DUP3 ADD SWAP1 POP PUSH2 0x297F PUSH1 0x0 DUP4 ADD DUP5 PUSH2 0x27B9 JUMP JUMPDEST SWAP3 SWAP2 POP POP JUMP JUMPDEST PUSH1 0x0 PUSH1 0x60 DUP3 ADD SWAP1 POP PUSH2 0x299A PUSH1 0x0 DUP4 ADD DUP7 PUSH2 0x27B9 JUMP JUMPDEST PUSH2 0x29A7 PUSH1 0x20 DUP4 ADD DUP6 PUSH2 0x27B9 JUMP JUMPDEST PUSH2 0x29B4 PUSH1 0x40 DUP4 ADD DUP5 PUSH2 0x292F JUMP JUMPDEST SWAP5 SWAP4 POP POP POP POP JUMP JUMPDEST PUSH1 0x0 PUSH1 0x40 DUP3 ADD SWAP1 POP PUSH2 0x29D1 PUSH1 0x0 DUP4 ADD DUP6 PUSH2 0x27B9 JUMP JUMPDEST PUSH2 0x29DE PUSH1 0x20 DUP4 ADD DUP5 PUSH2 0x292F JUMP JUMPDEST SWAP4 SWAP3 POP POP POP JUMP JUMPDEST PUSH1 0x0 PUSH1 0x20 DUP3 ADD SWAP1 POP PUSH2 0x29FA PUSH1 0x0 DUP4 ADD DUP5 PUSH2 0x27C8 JUMP JUMPDEST SWAP3 SWAP2 POP POP JUMP JUMPDEST PUSH1 0x0 PUSH1 0x20 DUP3 ADD SWAP1 POP PUSH2 0x2A15 PUSH1 0x0 DUP4 ADD DUP5 PUSH2 0x27D7 JUMP JUMPDEST SWAP3 SWAP2 POP POP JUMP JUMPDEST PUSH1 0x0 PUSH1 0x20 DUP3 ADD SWAP1 POP DUP2 DUP2 SUB PUSH1 0x0 DUP4 ADD MSTORE PUSH2 0x2A34 DUP2 PUSH2 0x2817 JUMP JUMPDEST SWAP1 POP SWAP2 SWAP1 POP JUMP JUMPDEST PUSH1 0x0 PUSH1 0x20 DUP3 ADD SWAP1 POP DUP2 DUP2 SUB PUSH1 0x0 DUP4 ADD MSTORE PUSH2 0x2A54 DUP2 PUSH2 0x283A JUMP JUMPDEST SWAP1 POP SWAP2 SWAP1 POP JUMP JUMPDEST PUSH1 0x0 PUSH1 0x20 DUP3 ADD SWAP1 POP DUP2 DUP2 SUB PUSH1 0x0 DUP4 ADD MSTORE PUSH2 0x2A74 DUP2 PUSH2 0x285D JUMP JUMPDEST SWAP1 POP SWAP2 SWAP1 POP JUMP JUMPDEST PUSH1 0x0 PUSH1 0x20 DUP3 ADD SWAP1 POP DUP2 DUP2 SUB PUSH1 0x0 DUP4 ADD MSTORE PUSH2 0x2A94 DUP2 PUSH2 0x2880 JUMP JUMPDEST SWAP1 POP SWAP2 SWAP1 POP JUMP JUMPDEST PUSH1 0x0 PUSH1 0x20 DUP3 ADD SWAP1 POP DUP2 DUP2 SUB PUSH1 0x0 DUP4 ADD MSTORE PUSH2 0x2AB4 DUP2 PUSH2 0x28C6 JUMP JUMPDEST SWAP1 POP SWAP2 SWAP1 POP JUMP JUMPDEST PUSH1 0x0 PUSH1 0x20 DUP3 ADD SWAP1 POP DUP2 DUP2 SUB PUSH1 0x0 DUP4 ADD MSTORE PUSH2 0x2AD4 DUP2 PUSH2 0x28E9 JUMP JUMPDEST SWAP1 POP SWAP2 SWAP1 POP JUMP JUMPDEST PUSH1 0x0 PUSH1 0x20 DUP3 ADD SWAP1 POP DUP2 DUP2 SUB PUSH1 0x0 DUP4 ADD MSTORE PUSH2 0x2AF4 DUP2 PUSH2 0x290C JUMP JUMPDEST SWAP1 POP SWAP2 SWAP1 POP JUMP JUMPDEST PUSH1 0x0 PUSH1 0x20 DUP3 ADD SWAP1 POP PUSH2 0x2B10 PUSH1 0x0 DUP4 ADD DUP5 PUSH2 0x292F JUMP JUMPDEST SWAP3 SWAP2 POP POP JUMP JUMPDEST PUSH1 0x0 PUSH1 0x40 DUP3 ADD SWAP1 POP PUSH2 0x2B2B PUSH1 0x0 DUP4 ADD DUP6 PUSH2 0x292F JUMP JUMPDEST PUSH2 0x2B38 PUSH1 0x20 DUP4 ADD DUP5 PUSH2 0x292F JUMP JUMPDEST SWAP4 SWAP3 POP POP POP JUMP JUMPDEST PUSH1 0x0 PUSH2 0x2B49 PUSH2 0x2B5A JUMP JUMPDEST SWAP1 POP PUSH2 0x2B55 DUP3 DUP3 PUSH2 0x2D9E JUMP JUMPDEST SWAP2 SWAP1 POP JUMP JUMPDEST PUSH1 0x0 PUSH1 0x40 MLOAD SWAP1 POP SWAP1 JUMP JUMPDEST PUSH1 0x0 PUSH8 0xFFFFFFFFFFFFFFFF DUP3 GT ISZERO PUSH2 0x2B7F JUMPI PUSH2 0x2B7E PUSH2 0x2E76 JUMP JUMPDEST JUMPDEST PUSH2 0x2B88 DUP3 PUSH2 0x2EB9 JUMP JUMPDEST SWAP1 POP PUSH1 0x20 DUP2 ADD SWAP1 POP SWAP2 SWAP1 POP JUMP JUMPDEST PUSH1 0x0 DUP2 MLOAD SWAP1 POP SWAP2 SWAP1 POP JUMP JUMPDEST PUSH1 0x0 DUP3 DUP3 MSTORE PUSH1 0x20 DUP3 ADD SWAP1 POP SWAP3 SWAP2 POP POP JUMP JUMPDEST PUSH1 0x0 DUP2 SWAP1 POP SWAP3 SWAP2 POP POP JUMP JUMPDEST PUSH1 0x0 PUSH2 0x2BC7 DUP3 PUSH2 0x2D1C JUMP JUMPDEST SWAP2 POP PUSH2 0x2BD2 DUP4 PUSH2 0x2D1C JUMP JUMPDEST SWAP3 POP DUP3 PUSH32 0xFFFFFFFFFFFFFFFFFFFFFFFFFFFFFFFFFFFFFFFFFFFFFFFFFFFFFFFFFFFFFFFF SUB DUP3 GT ISZERO PUSH2 0x2C07 JUMPI PUSH2 0x2C06 PUSH2 0x2E18 JUMP JUMPDEST JUMPDEST DUP3 DUP3 ADD SWAP1 POP SWAP3 SWAP2 POP POP JUMP JUMPDEST PUSH1 0x0 PUSH2 0x2C1D DUP3 PUSH2 0x2D1C JUMP JUMPDEST SWAP2 POP PUSH2 0x2C28 DUP4 PUSH2 0x2D1C JUMP JUMPDEST SWAP3 POP DUP3 PUSH2 0x2C38 JUMPI PUSH2 0x2C37 PUSH2 0x2E47 JUMP JUMPDEST JUMPDEST DUP3 DUP3 DIV SWAP1 POP SWAP3 SWAP2 POP POP JUMP JUMPDEST PUSH1 0x0 PUSH2 0x2C4E DUP3 PUSH2 0x2D1C JUMP JUMPDEST SWAP2 POP PUSH2 0x2C59 DUP4 PUSH2 0x2D1C JUMP JUMPDEST SWAP3 POP DUP2 PUSH32 0xFFFFFFFFFFFFFFFFFFFFFFFFFFFFFFFFFFFFFFFFFFFFFFFFFFFFFFFFFFFFFFFF DIV DUP4 GT DUP3 ISZERO ISZERO AND ISZERO PUSH2 0x2C92 JUMPI PUSH2 0x2C91 PUSH2 0x2E18 JUMP JUMPDEST JUMPDEST DUP3 DUP3 MUL SWAP1 POP SWAP3 SWAP2 POP POP JUMP JUMPDEST PUSH1 0x0 PUSH2 0x2CA8 DUP3 PUSH2 0x2D1C JUMP JUMPDEST SWAP2 POP PUSH2 0x2CB3 DUP4 PUSH2 0x2D1C JUMP JUMPDEST SWAP3 POP DUP3 DUP3 LT ISZERO PUSH2 0x2CC6 JUMPI PUSH2 0x2CC5 PUSH2 0x2E18 JUMP JUMPDEST JUMPDEST DUP3 DUP3 SUB SWAP1 POP SWAP3 SWAP2 POP POP JUMP JUMPDEST PUSH1 0x0 PUSH2 0x2CDC DUP3 PUSH2 0x2CFC JUMP JUMPDEST SWAP1 POP SWAP2 SWAP1 POP JUMP JUMPDEST PUSH1 0x0 DUP2 ISZERO ISZERO SWAP1 POP SWAP2 SWAP1 POP JUMP JUMPDEST PUSH1 0x0 DUP2 PUSH1 0xF SIGNEXTEND SWAP1 POP SWAP2 SWAP1 POP JUMP JUMPDEST PUSH1 0x0 PUSH20 0xFFFFFFFFFFFFFFFFFFFFFFFFFFFFFFFFFFFFFFFF DUP3 AND SWAP1 POP SWAP2 SWAP1 POP JUMP JUMPDEST PUSH1 0x0 DUP2 SWAP1 POP SWAP2 SWAP1 POP JUMP JUMPDEST PUSH1 0x0 PUSH2 0x2D31 DUP3 PUSH2 0x2D38 JUMP JUMPDEST SWAP1 POP SWAP2 SWAP1 POP JUMP JUMPDEST PUSH1 0x0 PUSH2 0x2D43 DUP3 PUSH2 0x2D4A JUMP JUMPDEST SWAP1 POP SWAP2 SWAP1 POP JUMP JUMPDEST PUSH1 0x0 PUSH2 0x2D55 DUP3 PUSH2 0x2CFC JUMP JUMPDEST SWAP1 POP SWAP2 SWAP1 POP JUMP JUMPDEST DUP3 DUP2 DUP4 CALLDATACOPY PUSH1 0x0 DUP4 DUP4 ADD MSTORE POP POP POP JUMP JUMPDEST PUSH1 0x0 JUMPDEST DUP4 DUP2 LT ISZERO PUSH2 0x2D89 JUMPI DUP1 DUP3 ADD MLOAD DUP2 DUP5 ADD MSTORE PUSH1 0x20 DUP2 ADD SWAP1 POP PUSH2 0x2D6E JUMP JUMPDEST DUP4 DUP2 GT ISZERO PUSH2 0x2D98 JUMPI PUSH1 0x0 DUP5 DUP5 ADD MSTORE JUMPDEST POP POP POP POP JUMP JUMPDEST PUSH2 0x2DA7 DUP3 PUSH2 0x2EB9 JUMP JUMPDEST DUP2 ADD DUP2 DUP2 LT PUSH8 0xFFFFFFFFFFFFFFFF DUP3 GT OR ISZERO PUSH2 0x2DC6 JUMPI PUSH2 0x2DC5 PUSH2 0x2E76 JUMP JUMPDEST JUMPDEST DUP1 PUSH1 0x40 MSTORE POP POP POP JUMP JUMPDEST PUSH1 0x0 PUSH2 0x2DDA DUP3 PUSH2 0x2D1C JUMP JUMPDEST SWAP2 POP PUSH32 0xFFFFFFFFFFFFFFFFFFFFFFFFFFFFFFFFFFFFFFFFFFFFFFFFFFFFFFFFFFFFFFFF DUP3 EQ ISZERO PUSH2 0x2E0D JUMPI PUSH2 0x2E0C PUSH2 0x2E18 JUMP JUMPDEST JUMPDEST PUSH1 0x1 DUP3 ADD SWAP1 POP SWAP2 SWAP1 POP JUMP JUMPDEST PUSH32 0x4E487B7100000000000000000000000000000000000000000000000000000000 PUSH1 0x0 MSTORE PUSH1 0x11 PUSH1 0x4 MSTORE PUSH1 0x24 PUSH1 0x0 REVERT JUMPDEST PUSH32 0x4E487B7100000000000000000000000000000000000000000000000000000000 PUSH1 0x0 MSTORE PUSH1 0x12 PUSH1 0x4 MSTORE PUSH1 0x24 PUSH1 0x0 REVERT JUMPDEST PUSH32 0x4E487B7100000000000000000000000000000000000000000000000000000000 PUSH1 0x0 MSTORE PUSH1 0x41 PUSH1 0x4 MSTORE PUSH1 0x24 PUSH1 0x0 REVERT JUMPDEST PUSH1 0x0 DUP1 REVERT JUMPDEST PUSH1 0x0 DUP1 REVERT JUMPDEST PUSH1 0x0 DUP1 REVERT JUMPDEST PUSH1 0x0 DUP1 REVERT JUMPDEST PUSH1 0x0 PUSH1 0x1F NOT PUSH1 0x1F DUP4 ADD AND SWAP1 POP SWAP2 SWAP1 POP JUMP JUMPDEST PUSH32 0x596F7520646F6E7420686176652074686174206D75636820746F207769746864 PUSH1 0x0 DUP3 ADD MSTORE PUSH32 0x7261772100000000000000000000000000000000000000000000000000000000 PUSH1 0x20 DUP3 ADD MSTORE POP JUMP JUMPDEST PUSH32 0x546F6B656E207472616E73666572206661696C65640000000000000000000000 PUSH1 0x0 DUP3 ADD MSTORE POP JUMP JUMPDEST PUSH32 0x596F7520646F6E742068617665207468617420616D6F756E7421000000000000 PUSH1 0x0 DUP3 ADD MSTORE POP JUMP JUMPDEST PUSH32 0x506572207472616E73616374696F6E206C696D69740000000000000000000000 PUSH1 0x0 DUP3 ADD MSTORE POP JUMP JUMPDEST PUSH32 0x5553444300000000000000000000000000000000000000000000000000000000 PUSH1 0x0 DUP3 ADD MSTORE POP JUMP JUMPDEST PUSH32 0x4E6F7420756E6C6F636B65640000000000000000000000000000000000000000 PUSH1 0x0 DUP3 ADD MSTORE POP JUMP JUMPDEST PUSH32 0x5265656E7472616E637947756172643A207265656E7472616E742063616C6C00 PUSH1 0x0 DUP3 ADD MSTORE POP JUMP JUMPDEST PUSH32 0x75696E74206F766572666C6F772066726F6D206D756C7469706C69636174696F PUSH1 0x0 DUP3 ADD MSTORE PUSH32 0x6E00000000000000000000000000000000000000000000000000000000000000 PUSH1 0x20 DUP3 ADD MSTORE POP JUMP JUMPDEST PUSH2 0x3067 DUP2 PUSH2 0x2CD1 JUMP JUMPDEST DUP2 EQ PUSH2 0x3072 JUMPI PUSH1 0x0 DUP1 REVERT JUMPDEST POP JUMP JUMPDEST PUSH2 0x307E DUP2 PUSH2 0x2CE3 JUMP JUMPDEST DUP2 EQ PUSH2 0x3089 JUMPI PUSH1 0x0 DUP1 REVERT JUMPDEST POP JUMP JUMPDEST PUSH2 0x3095 DUP2 PUSH2 0x2D1C JUMP JUMPDEST DUP2 EQ PUSH2 0x30A0 JUMPI PUSH1 0x0 DUP1 REVERT JUMPDEST POP JUMP INVALID LOG2 PUSH5 0x6970667358 0x22 SLT KECCAK256 DUP14 SWAP9 PUSH30 0x93E2C9D085F0ACBAA8E0145E21E513755D7E6433D26FBBCB9BCF730E1664 PUSH20 0x6F6C634300080700330000000000000000000000 "
				},
				"gasEstimates": {
					"creation": {
						"codeDepositCost": "2501000",
						"executionCost": "infinite",
						"totalCost": "infinite"
					},
					"external": {
						"BTON()": "2645",
						"SPTR()": "2668",
						"WAND()": "2711",
						"addStable(string,address,uint256)": "infinite",
						"buyScepter(uint256,string)": "infinite",
						"cashOutScepter(uint256,uint256,string)": "infinite",
						"circulatingSupplyXDays(uint256)": "infinite",
						"claimLockedUSDC(address,string)": "infinite",
						"daysInCalculation()": "2540",
						"devWalletAddr()": "2604",
						"getBackingPrice()": "infinite",
						"getBuyPrice()": "infinite",
						"getCircSupplyXDays()": "infinite",
						"getGrowthFactor()": "infinite",
						"getSellFactor()": "infinite",
						"getSellPrice()": "infinite",
						"getTokensBoughtXDays()": "infinite",
						"getTokensSoldXDays()": "infinite",
						"growthFactor()": "2495",
						"res()": "2521",
						"riskTreasuryAddr()": "2583",
						"scepterTreasuryAddr()": "2647",
						"sellFactor()": "2518",
						"setDaysUsedInFactors(uint256)": "infinite",
						"stableERC20Info(string)": "infinite",
						"testUpdatetimeLockedminus(uint256)": "infinite",
						"testUpdatetimeLockedplus(uint256)": "infinite",
						"testwallet()": "2602",
						"timeLaunched()": "2496",
						"tokenStable()": "2668",
						"tokensBoughtXDays(uint256)": "infinite",
						"tokensSoldXDays(uint256)": "infinite",
						"transformScepterToBaton(uint256)": "infinite",
						"treasury1Addr()": "2624",
						"treasury1bal()": "2563",
						"updateSPTRTreasuryBal()": "infinite",
						"whitelist(address)": "500",
						"withdrawStables(uint256)": "451",
						"withheldWithdrawals(address)": "infinite"
					},
					"internal": {
						"_safeTransferFrom(contract IERC20,address,address,uint256)": "infinite",
						"add(uint256,uint256)": "infinite",
						"decDiv18(uint256,uint256)": "infinite",
						"decMul18(uint256,uint256)": "infinite",
						"div(uint256,uint256)": "infinite",
						"mintBaton(uint256)": "infinite",
						"mul(uint256,uint256)": "infinite",
						"sub(uint256,uint256)": "infinite"
					}
				},
				"methodIdentifiers": {
					"BTON()": "c0ca6fb4",
					"SPTR()": "26ae486e",
					"WAND()": "d04d7908",
					"addStable(string,address,uint256)": "e5d98082",
					"buyScepter(uint256,string)": "862d1b35",
					"cashOutScepter(uint256,uint256,string)": "c0ce5889",
					"circulatingSupplyXDays(uint256)": "1a30e872",
					"claimLockedUSDC(address,string)": "bdad7f02",
					"daysInCalculation()": "67b48c91",
					"devWalletAddr()": "29982a32",
					"getBackingPrice()": "1f564a06",
					"getBuyPrice()": "018a25e8",
					"getCircSupplyXDays()": "0f65de3e",
					"getGrowthFactor()": "93f7b711",
					"getSellFactor()": "0ccaf04f",
					"getSellPrice()": "43d32e9c",
					"getTokensBoughtXDays()": "71cd58f9",
					"getTokensSoldXDays()": "d82eddf2",
					"growthFactor()": "ee620868",
					"res()": "6f10e285",
					"riskTreasuryAddr()": "047729b0",
					"scepterTreasuryAddr()": "c079d7f6",
					"sellFactor()": "cbff4617",
					"setDaysUsedInFactors(uint256)": "fc361443",
					"stableERC20Info(string)": "a475bf48",
					"testUpdatetimeLockedminus(uint256)": "164c8501",
					"testUpdatetimeLockedplus(uint256)": "67e927a8",
					"testwallet()": "eee05f5e",
					"timeLaunched()": "3c6eb17a",
					"tokenStable()": "7087a7a5",
					"tokensBoughtXDays(uint256)": "2a9f0fb1",
					"tokensSoldXDays(uint256)": "1514c976",
					"transformScepterToBaton(uint256)": "1bc9cc45",
					"treasury1Addr()": "fbbb4589",
					"treasury1bal()": "35453307",
					"updateSPTRTreasuryBal()": "bcb3de54",
					"whitelist(address)": "9b19251a",
					"withdrawStables(uint256)": "39ad95d6",
					"withheldWithdrawals(address)": "12b2ed94"
				}
			},
			"storageLayout": {
				"storage": [
					{
						"astId": 10,
						"contract": "WandInstruments.sol:testSticks",
						"label": "_status",
						"offset": 0,
						"slot": "0",
						"type": "t_uint256"
					},
					{
						"astId": 52,
						"contract": "WandInstruments.sol:testSticks",
						"label": "growthFactor",
						"offset": 0,
						"slot": "1",
						"type": "t_uint256"
					},
					{
						"astId": 54,
						"contract": "WandInstruments.sol:testSticks",
						"label": "sellFactor",
						"offset": 0,
						"slot": "2",
						"type": "t_uint256"
					},
					{
						"astId": 56,
						"contract": "WandInstruments.sol:testSticks",
						"label": "backingPrice",
						"offset": 0,
						"slot": "3",
						"type": "t_uint256"
					},
					{
						"astId": 58,
						"contract": "WandInstruments.sol:testSticks",
						"label": "scepterBuyPrice",
						"offset": 0,
						"slot": "4",
						"type": "t_uint256"
					},
					{
						"astId": 60,
						"contract": "WandInstruments.sol:testSticks",
						"label": "scepterSellPrice",
						"offset": 0,
						"slot": "5",
						"type": "t_uint256"
					},
					{
						"astId": 62,
						"contract": "WandInstruments.sol:testSticks",
						"label": "treasuryUSDC",
						"offset": 0,
						"slot": "6",
						"type": "t_uint256"
					},
					{
						"astId": 64,
						"contract": "WandInstruments.sol:testSticks",
						"label": "treasury1Addr",
						"offset": 0,
						"slot": "7",
						"type": "t_address"
					},
					{
						"astId": 66,
						"contract": "WandInstruments.sol:testSticks",
						"label": "scepterTreasuryAddr",
						"offset": 0,
						"slot": "8",
						"type": "t_address"
					},
					{
						"astId": 68,
						"contract": "WandInstruments.sol:testSticks",
						"label": "riskTreasuryAddr",
						"offset": 0,
						"slot": "9",
						"type": "t_address"
					},
					{
						"astId": 70,
						"contract": "WandInstruments.sol:testSticks",
						"label": "devWalletAddr",
						"offset": 0,
						"slot": "10",
						"type": "t_address"
					},
					{
						"astId": 72,
						"contract": "WandInstruments.sol:testSticks",
						"label": "treasury1bal",
						"offset": 0,
						"slot": "11",
						"type": "t_uint256"
					},
					{
						"astId": 74,
						"contract": "WandInstruments.sol:testSticks",
						"label": "timeLaunched",
						"offset": 0,
						"slot": "12",
						"type": "t_uint256"
					},
					{
						"astId": 76,
						"contract": "WandInstruments.sol:testSticks",
						"label": "daysInCalculation",
						"offset": 0,
						"slot": "13",
						"type": "t_uint256"
					},
					{
						"astId": 79,
						"contract": "WandInstruments.sol:testSticks",
						"label": "ft5daybought",
						"offset": 0,
						"slot": "14",
						"type": "t_uint256"
					},
					{
						"astId": 82,
						"contract": "WandInstruments.sol:testSticks",
						"label": "ft5daysold",
						"offset": 0,
						"slot": "15",
						"type": "t_uint256"
					},
					{
						"astId": 85,
						"contract": "WandInstruments.sol:testSticks",
						"label": "double5daytokens",
						"offset": 0,
						"slot": "16",
						"type": "t_uint256"
					},
					{
						"astId": 87,
						"contract": "WandInstruments.sol:testSticks",
						"label": "res",
						"offset": 0,
						"slot": "17",
						"type": "t_int128"
					},
					{
						"astId": 90,
						"contract": "WandInstruments.sol:testSticks",
						"label": "testwallet",
						"offset": 0,
						"slot": "18",
						"type": "t_address"
					},
					{
						"astId": 93,
						"contract": "WandInstruments.sol:testSticks",
						"label": "SPTR",
						"offset": 0,
						"slot": "19",
						"type": "t_contract(IERC20)1336"
					},
					{
						"astId": 96,
						"contract": "WandInstruments.sol:testSticks",
						"label": "WAND",
						"offset": 0,
						"slot": "20",
						"type": "t_contract(IERC20)1336"
					},
					{
						"astId": 99,
						"contract": "WandInstruments.sol:testSticks",
						"label": "BTON",
						"offset": 0,
						"slot": "21",
						"type": "t_contract(IERC20)1336"
					},
					{
						"astId": 102,
						"contract": "WandInstruments.sol:testSticks",
						"label": "tokenStable",
						"offset": 0,
						"slot": "22",
						"type": "t_contract(IERC20)1336"
					},
					{
						"astId": 106,
						"contract": "WandInstruments.sol:testSticks",
						"label": "tokensBoughtXDays",
						"offset": 0,
						"slot": "23",
						"type": "t_mapping(t_uint256,t_uint256)"
					},
					{
						"astId": 110,
						"contract": "WandInstruments.sol:testSticks",
						"label": "tokensSoldXDays",
						"offset": 0,
						"slot": "24",
						"type": "t_mapping(t_uint256,t_uint256)"
					},
					{
						"astId": 114,
						"contract": "WandInstruments.sol:testSticks",
						"label": "circulatingSupplyXDays",
						"offset": 0,
						"slot": "25",
						"type": "t_mapping(t_uint256,t_uint256)"
					},
					{
						"astId": 124,
						"contract": "WandInstruments.sol:testSticks",
						"label": "stableERC20Info",
						"offset": 0,
						"slot": "26",
						"type": "t_mapping(t_string_memory_ptr,t_struct(stableTokensParams)119_storage)"
					},
					{
						"astId": 134,
						"contract": "WandInstruments.sol:testSticks",
						"label": "withheldWithdrawals",
						"offset": 0,
						"slot": "27",
						"type": "t_mapping(t_address,t_struct(lockedamounts)129_storage)"
					}
				],
				"types": {
					"t_address": {
						"encoding": "inplace",
						"label": "address",
						"numberOfBytes": "20"
					},
					"t_contract(IERC20)1336": {
						"encoding": "inplace",
						"label": "contract IERC20",
						"numberOfBytes": "20"
					},
					"t_int128": {
						"encoding": "inplace",
						"label": "int128",
						"numberOfBytes": "16"
					},
					"t_mapping(t_address,t_struct(lockedamounts)129_storage)": {
						"encoding": "mapping",
						"key": "t_address",
						"label": "mapping(address => struct testSticks.lockedamounts)",
						"numberOfBytes": "32",
						"value": "t_struct(lockedamounts)129_storage"
					},
					"t_mapping(t_string_memory_ptr,t_struct(stableTokensParams)119_storage)": {
						"encoding": "mapping",
						"key": "t_string_memory_ptr",
						"label": "mapping(string => struct testSticks.stableTokensParams)",
						"numberOfBytes": "32",
						"value": "t_struct(stableTokensParams)119_storage"
					},
					"t_mapping(t_uint256,t_uint256)": {
						"encoding": "mapping",
						"key": "t_uint256",
						"label": "mapping(uint256 => uint256)",
						"numberOfBytes": "32",
						"value": "t_uint256"
					},
					"t_string_memory_ptr": {
						"encoding": "bytes",
						"label": "string",
						"numberOfBytes": "32"
					},
					"t_struct(lockedamounts)129_storage": {
						"encoding": "inplace",
						"label": "struct testSticks.lockedamounts",
						"members": [
							{
								"astId": 126,
								"contract": "WandInstruments.sol:testSticks",
								"label": "timeUnlocked",
								"offset": 0,
								"slot": "0",
								"type": "t_uint256"
							},
							{
								"astId": 128,
								"contract": "WandInstruments.sol:testSticks",
								"label": "amounts",
								"offset": 0,
								"slot": "1",
								"type": "t_uint256"
							}
						],
						"numberOfBytes": "64"
					},
					"t_struct(stableTokensParams)119_storage": {
						"encoding": "inplace",
						"label": "struct testSticks.stableTokensParams",
						"members": [
							{
								"astId": 116,
								"contract": "WandInstruments.sol:testSticks",
								"label": "contractAddress",
								"offset": 0,
								"slot": "0",
								"type": "t_address"
							},
							{
								"astId": 118,
								"contract": "WandInstruments.sol:testSticks",
								"label": "tokenDecimals",
								"offset": 0,
								"slot": "1",
								"type": "t_uint256"
							}
						],
						"numberOfBytes": "64"
					},
					"t_uint256": {
						"encoding": "inplace",
						"label": "uint256",
						"numberOfBytes": "32"
					}
				}
			},
			"userdoc": {
				"events": {
					"sceptersBought(address,uint256)": {
						"notice": "Events*"
					}
				},
				"kind": "user",
				"methods": {},
				"version": 1
			}
		}
	}
}