{
	"WandInstruments.sol": {
		"testSticks": {
			"abi": [
				{
					"inputs": [],
					"stateMutability": "nonpayable",
					"type": "constructor"
				},
				{
					"anonymous": false,
					"inputs": [
						{
							"indexed": true,
							"internalType": "address",
							"name": "previousOwner",
							"type": "address"
						},
						{
							"indexed": true,
							"internalType": "address",
							"name": "newOwner",
							"type": "address"
						}
					],
					"name": "OwnershipTransferred",
					"type": "event"
				},
				{
					"anonymous": false,
					"inputs": [
						{
							"indexed": true,
							"internalType": "address",
							"name": "_from",
							"type": "address"
						},
						{
							"indexed": false,
							"internalType": "uint256",
							"name": "_amount",
							"type": "uint256"
						}
					],
					"name": "sceptersBought",
					"type": "event"
				},
				{
					"anonymous": false,
					"inputs": [
						{
							"indexed": true,
							"internalType": "address",
							"name": "_from",
							"type": "address"
						},
						{
							"indexed": false,
							"internalType": "uint256",
							"name": "_amount",
							"type": "uint256"
						}
					],
					"name": "sceptersSold",
					"type": "event"
				},
				{
					"inputs": [],
					"name": "BTON",
					"outputs": [
						{
							"internalType": "contract IERC20",
							"name": "",
							"type": "address"
						}
					],
					"stateMutability": "view",
					"type": "function"
				},
				{
					"inputs": [],
					"name": "Launch",
					"outputs": [],
					"stateMutability": "nonpayable",
					"type": "function"
				},
				{
					"inputs": [],
					"name": "SPTR",
					"outputs": [
						{
							"internalType": "contract IERC20",
							"name": "",
							"type": "address"
						}
					],
					"stateMutability": "view",
					"type": "function"
				},
				{
					"inputs": [],
					"name": "WAND",
					"outputs": [
						{
							"internalType": "contract IERC20",
							"name": "",
							"type": "address"
						}
					],
					"stateMutability": "view",
					"type": "function"
				},
				{
					"inputs": [
						{
							"internalType": "string",
							"name": "_ticker",
							"type": "string"
						},
						{
							"internalType": "address",
							"name": "_addr",
							"type": "address"
						},
						{
							"internalType": "uint256",
							"name": "_dec",
							"type": "uint256"
						}
					],
					"name": "addStable",
					"outputs": [],
					"stateMutability": "nonpayable",
					"type": "function"
				},
				{
					"inputs": [
						{
							"internalType": "uint256",
							"name": "amountSCPtoBuy",
							"type": "uint256"
						},
						{
							"internalType": "string",
							"name": "_stableChosen",
							"type": "string"
						}
					],
					"name": "buyScepter",
					"outputs": [],
					"stateMutability": "nonpayable",
					"type": "function"
				},
				{
					"inputs": [
						{
							"internalType": "uint256",
							"name": "amountSCPtoSell",
							"type": "uint256"
						},
						{
							"internalType": "uint256",
							"name": "timeChosenLocked",
							"type": "uint256"
						},
						{
							"internalType": "string",
							"name": "_stableChosen",
							"type": "string"
						}
					],
					"name": "cashOutScepter",
					"outputs": [],
					"stateMutability": "payable",
					"type": "function"
				},
				{
					"inputs": [
						{
							"internalType": "uint256",
							"name": "",
							"type": "uint256"
						}
					],
					"name": "circulatingSupplyXDays",
					"outputs": [
						{
							"internalType": "uint256",
							"name": "",
							"type": "uint256"
						}
					],
					"stateMutability": "view",
					"type": "function"
				},
				{
					"inputs": [
						{
							"internalType": "address",
							"name": "_claimant",
							"type": "address"
						},
						{
							"internalType": "string",
							"name": "_stableChosen",
							"type": "string"
						}
					],
					"name": "claimLockedUSDC",
					"outputs": [],
					"stateMutability": "nonpayable",
					"type": "function"
				},
				{
					"inputs": [],
					"name": "daysInCalculation",
					"outputs": [
						{
							"internalType": "uint256",
							"name": "",
							"type": "uint256"
						}
					],
					"stateMutability": "view",
					"type": "function"
				},
				{
					"inputs": [],
					"name": "devWalletAddr",
					"outputs": [
						{
							"internalType": "address",
							"name": "",
							"type": "address"
						}
					],
					"stateMutability": "view",
					"type": "function"
				},
				{
					"inputs": [],
					"name": "getBackingPrice",
					"outputs": [
						{
							"internalType": "uint256",
							"name": "",
							"type": "uint256"
						}
					],
					"stateMutability": "view",
					"type": "function"
				},
				{
					"inputs": [],
					"name": "getBuyPrice",
					"outputs": [
						{
							"internalType": "uint256",
							"name": "",
							"type": "uint256"
						}
					],
					"stateMutability": "view",
					"type": "function"
				},
				{
					"inputs": [],
					"name": "getCircSupplyXDays",
					"outputs": [
						{
							"internalType": "uint256",
							"name": "",
							"type": "uint256"
						}
					],
					"stateMutability": "view",
					"type": "function"
				},
				{
					"inputs": [],
					"name": "getGrowthFactor",
					"outputs": [
						{
							"internalType": "uint256",
							"name": "",
							"type": "uint256"
						}
					],
					"stateMutability": "view",
					"type": "function"
				},
				{
					"inputs": [],
					"name": "getSellFactor",
					"outputs": [
						{
							"internalType": "uint256",
							"name": "",
							"type": "uint256"
						}
					],
					"stateMutability": "view",
					"type": "function"
				},
				{
					"inputs": [],
					"name": "getSellPrice",
					"outputs": [
						{
							"internalType": "uint256",
							"name": "",
							"type": "uint256"
						}
					],
					"stateMutability": "view",
					"type": "function"
				},
				{
					"inputs": [],
					"name": "getTokensBoughtXDays",
					"outputs": [
						{
							"internalType": "uint256",
							"name": "",
							"type": "uint256"
						}
					],
					"stateMutability": "view",
					"type": "function"
				},
				{
					"inputs": [],
					"name": "getTokensSoldXDays",
					"outputs": [
						{
							"internalType": "uint256",
							"name": "",
							"type": "uint256"
						}
					],
					"stateMutability": "view",
					"type": "function"
				},
				{
					"inputs": [],
					"name": "owner",
					"outputs": [
						{
							"internalType": "address",
							"name": "",
							"type": "address"
						}
					],
					"stateMutability": "view",
					"type": "function"
				},
				{
					"inputs": [],
					"name": "renounceOwnership",
					"outputs": [],
					"stateMutability": "nonpayable",
					"type": "function"
				},
				{
					"inputs": [],
					"name": "riskTreasuryAddr",
					"outputs": [
						{
							"internalType": "address",
							"name": "",
							"type": "address"
						}
					],
					"stateMutability": "view",
					"type": "function"
				},
				{
					"inputs": [],
					"name": "scepterTreasuryAddr",
					"outputs": [
						{
							"internalType": "address",
							"name": "",
							"type": "address"
						}
					],
					"stateMutability": "view",
					"type": "function"
				},
				{
					"inputs": [
						{
							"internalType": "uint256",
							"name": "numDays",
							"type": "uint256"
						}
					],
					"name": "setDaysUsedInFactors",
					"outputs": [],
					"stateMutability": "nonpayable",
					"type": "function"
				},
				{
					"inputs": [],
					"name": "sptrTreasuryBal",
					"outputs": [
						{
							"internalType": "uint256",
							"name": "",
							"type": "uint256"
						}
					],
					"stateMutability": "view",
					"type": "function"
				},
				{
					"inputs": [
						{
							"internalType": "string",
							"name": "",
							"type": "string"
						}
					],
					"name": "stableERC20Info",
					"outputs": [
						{
							"internalType": "address",
							"name": "contractAddress",
							"type": "address"
						},
						{
							"internalType": "uint256",
							"name": "tokenDecimals",
							"type": "uint256"
						}
					],
					"stateMutability": "view",
					"type": "function"
				},
				{
					"inputs": [
						{
							"internalType": "uint256",
							"name": "amt",
							"type": "uint256"
						}
					],
					"name": "testUpdatetimeLockedminus",
					"outputs": [],
					"stateMutability": "nonpayable",
					"type": "function"
				},
				{
					"inputs": [
						{
							"internalType": "uint256",
							"name": "amt",
							"type": "uint256"
						}
					],
					"name": "testUpdatetimeLockedplus",
					"outputs": [],
					"stateMutability": "nonpayable",
					"type": "function"
				},
				{
					"inputs": [],
					"name": "testwallet",
					"outputs": [
						{
							"internalType": "address",
							"name": "",
							"type": "address"
						}
					],
					"stateMutability": "view",
					"type": "function"
				},
				{
					"inputs": [],
					"name": "timeLaunched",
					"outputs": [
						{
							"internalType": "uint256",
							"name": "",
							"type": "uint256"
						}
					],
					"stateMutability": "view",
					"type": "function"
				},
				{
					"inputs": [],
					"name": "tokenStable",
					"outputs": [
						{
							"internalType": "contract IERC20",
							"name": "",
							"type": "address"
						}
					],
					"stateMutability": "view",
					"type": "function"
				},
				{
					"inputs": [
						{
							"internalType": "uint256",
							"name": "",
							"type": "uint256"
						}
					],
					"name": "tokensBoughtXDays",
					"outputs": [
						{
							"internalType": "uint256",
							"name": "",
							"type": "uint256"
						}
					],
					"stateMutability": "view",
					"type": "function"
				},
				{
					"inputs": [
						{
							"internalType": "uint256",
							"name": "",
							"type": "uint256"
						}
					],
					"name": "tokensSoldXDays",
					"outputs": [
						{
							"internalType": "uint256",
							"name": "",
							"type": "uint256"
						}
					],
					"stateMutability": "view",
					"type": "function"
				},
				{
					"inputs": [
						{
							"internalType": "address",
							"name": "newOwner",
							"type": "address"
						}
					],
					"name": "transferOwnership",
					"outputs": [],
					"stateMutability": "nonpayable",
					"type": "function"
				},
				{
					"inputs": [
						{
							"internalType": "uint256",
							"name": "amountSCPtoSwap",
							"type": "uint256"
						}
					],
					"name": "transformScepterToBaton",
					"outputs": [],
					"stateMutability": "payable",
					"type": "function"
				},
				{
					"inputs": [],
					"name": "updateSPTRTreasuryBal",
					"outputs": [],
					"stateMutability": "nonpayable",
					"type": "function"
				},
				{
					"inputs": [
						{
							"internalType": "address",
							"name": "_addr",
							"type": "address"
						}
					],
					"name": "whitelist",
					"outputs": [],
					"stateMutability": "nonpayable",
					"type": "function"
				},
				{
					"inputs": [
						{
							"internalType": "address",
							"name": "",
							"type": "address"
						}
					],
					"name": "withheldWithdrawals",
					"outputs": [
						{
							"internalType": "uint256",
							"name": "timeUnlocked",
							"type": "uint256"
						},
						{
							"internalType": "uint256",
							"name": "amounts",
							"type": "uint256"
						}
					],
					"stateMutability": "view",
					"type": "function"
				}
			],
			"devdoc": {
				"kind": "dev",
				"methods": {
					"owner()": {
						"details": "Returns the address of the current owner."
					},
					"renounceOwnership()": {
						"details": "Leaves the contract without owner. It will not be possible to call `onlyOwner` functions anymore. Can only be called by the current owner. NOTE: Renouncing ownership will leave the contract without an owner, thereby removing any functionality that is only available to the owner."
					},
					"transferOwnership(address)": {
						"details": "Transfers ownership of the contract to a new account (`newOwner`). Can only be called by the current owner."
					}
				},
				"version": 1
			},
			"evm": {
				"assembly": "    /* \"WandInstruments.sol\":156:15150  contract testSticks is ReentrancyGuard, Ownable{\r... */\n  mstore(0x40, 0x80)\n    /* \"WandInstruments.sol\":881:923  0x617F2E2fD72FD9D5503197092aC168c91465E7f2 */\n  0x617f2e2fd72fd9d5503197092ac168c91465e7f2\n    /* \"WandInstruments.sol\":853:923  address public testwallet = 0x617F2E2fD72FD9D5503197092aC168c91465E7f2 */\n  0x0b\n  exp(0x0100, 0x00)\n  dup2\n  sload\n  dup2\n  0xffffffffffffffffffffffffffffffffffffffff\n  mul\n  not\n  and\n  swap1\n  dup4\n  0xffffffffffffffffffffffffffffffffffffffff\n  and\n  mul\n  or\n  swap1\n  sstore\n  pop\n    /* \"WandInstruments.sol\":2052:2977  constructor() {   \r... */\n  callvalue\n  dup1\n  iszero\n  tag_1\n  jumpi\n  0x00\n  dup1\n  revert\ntag_1:\n  pop\n    /* \"ReentrancyGuard.sol\":1734:1735  1 */\n  0x01\n    /* \"ReentrancyGuard.sol\":1845:1852  _status */\n  0x00\n    /* \"ReentrancyGuard.sol\":1845:1867  _status = _NOT_ENTERED */\n  dup2\n  swap1\n  sstore\n  pop\n    /* \"Ownable.sol\":914:946  _transferOwnership(_msgSender()) */\n  tag_7\n    /* \"Ownable.sol\":933:945  _msgSender() */\n  tag_8\n    /* \"Ownable.sol\":933:943  _msgSender */\n  shl(0x20, tag_9)\n    /* \"Ownable.sol\":933:945  _msgSender() */\n  0x20\n  shr\n  jump\t// in\ntag_8:\n    /* \"Ownable.sol\":914:932  _transferOwnership */\n  shl(0x20, tag_10)\n    /* \"Ownable.sol\":914:946  _transferOwnership(_msgSender()) */\n  0x20\n  shr\n  jump\t// in\ntag_7:\n    /* \"WandInstruments.sol\":2149:2191  0x060e26006476351141C5B77fCF42Dd534a7c279a */\n  0x060e26006476351141c5b77fcf42dd534a7c279a\n    /* \"WandInstruments.sol\":2135:2139  SPTR */\n  0x0c\n  0x00\n    /* \"WandInstruments.sol\":2135:2192  SPTR = IERC20(0x060e26006476351141C5B77fCF42Dd534a7c279a) */\n  0x0100\n  exp\n  dup2\n  sload\n  dup2\n  0xffffffffffffffffffffffffffffffffffffffff\n  mul\n  not\n  and\n  swap1\n  dup4\n  0xffffffffffffffffffffffffffffffffffffffff\n  and\n  mul\n  or\n  swap1\n  sstore\n  pop\n    /* \"WandInstruments.sol\":2217:2259  0x4506069A92686023320AE5F853555EFd6d6CcCeC */\n  0x4506069a92686023320ae5f853555efd6d6cccec\n    /* \"WandInstruments.sol\":2203:2207  WAND */\n  0x0d\n  0x00\n    /* \"WandInstruments.sol\":2203:2260  WAND = IERC20(0x4506069A92686023320AE5F853555EFd6d6CcCeC) */\n  0x0100\n  exp\n  dup2\n  sload\n  dup2\n  0xffffffffffffffffffffffffffffffffffffffff\n  mul\n  not\n  and\n  swap1\n  dup4\n  0xffffffffffffffffffffffffffffffffffffffff\n  and\n  mul\n  or\n  swap1\n  sstore\n  pop\n    /* \"WandInstruments.sol\":2285:2327  0xaE126F05feab84436c8f470c44270329a3a348E5 */\n  0xae126f05feab84436c8f470c44270329a3a348e5\n    /* \"WandInstruments.sol\":2271:2275  BTON */\n  0x0e\n  0x00\n    /* \"WandInstruments.sol\":2271:2328  BTON = IERC20(0xaE126F05feab84436c8f470c44270329a3a348E5) */\n  0x0100\n  exp\n  dup2\n  sload\n  dup2\n  0xffffffffffffffffffffffffffffffffffffffff\n  mul\n  not\n  and\n  swap1\n  dup4\n  0xffffffffffffffffffffffffffffffffffffffff\n  and\n  mul\n  or\n  swap1\n  sstore\n  pop\n    /* \"WandInstruments.sol\":2440:2482  0xe8015d99e16fe4918261C3A62582EB8AA72C590C */\n  0xe8015d99e16fe4918261c3a62582eb8aa72c590c\n    /* \"WandInstruments.sol\":2398:2413  stableERC20Info */\n  0x13\n    /* \"WandInstruments.sol\":2398:2421  stableERC20Info[\"USDC\"] */\n  mload(0x40)\n  tag_12\n  swap1\n  tag_13\n  jump\t// in\ntag_12:\n  swap1\n  dup2\n  mstore\n  0x20\n  add\n  mload(0x40)\n  dup1\n  swap2\n  sub\n  swap1\n  keccak256\n    /* \"WandInstruments.sol\":2398:2437  stableERC20Info[\"USDC\"].contractAddress */\n  0x00\n  add\n  0x00\n    /* \"WandInstruments.sol\":2398:2482  stableERC20Info[\"USDC\"].contractAddress = 0xe8015d99e16fe4918261C3A62582EB8AA72C590C */\n  0x0100\n  exp\n  dup2\n  sload\n  dup2\n  0xffffffffffffffffffffffffffffffffffffffff\n  mul\n  not\n  and\n  swap1\n  dup4\n  0xffffffffffffffffffffffffffffffffffffffff\n  and\n  mul\n  or\n  swap1\n  sstore\n  pop\n    /* \"WandInstruments.sol\":2533:2534  6 */\n  0x06\n    /* \"WandInstruments.sol\":2493:2508  stableERC20Info */\n  0x13\n    /* \"WandInstruments.sol\":2493:2516  stableERC20Info[\"USDC\"] */\n  mload(0x40)\n  tag_14\n  swap1\n  tag_13\n  jump\t// in\ntag_14:\n  swap1\n  dup2\n  mstore\n  0x20\n  add\n  mload(0x40)\n  dup1\n  swap2\n  sub\n  swap1\n  keccak256\n    /* \"WandInstruments.sol\":2493:2530  stableERC20Info[\"USDC\"].tokenDecimals */\n  0x01\n  add\n    /* \"WandInstruments.sol\":2493:2534  stableERC20Info[\"USDC\"].tokenDecimals = 6 */\n  dup2\n  swap1\n  sstore\n  pop\n    /* \"WandInstruments.sol\":2606:2648  0x2A4a8Ab6A0Bc0d377098F8688F77003833BC1C9d */\n  0x2a4a8ab6a0bc0d377098f8688f77003833bc1c9d\n    /* \"WandInstruments.sol\":2565:2580  stableERC20Info */\n  0x13\n    /* \"WandInstruments.sol\":2565:2587  stableERC20Info[\"DAI\"] */\n  mload(0x40)\n  tag_15\n  swap1\n  tag_16\n  jump\t// in\ntag_15:\n  swap1\n  dup2\n  mstore\n  0x20\n  add\n  mload(0x40)\n  dup1\n  swap2\n  sub\n  swap1\n  keccak256\n    /* \"WandInstruments.sol\":2565:2603  stableERC20Info[\"DAI\"].contractAddress */\n  0x00\n  add\n  0x00\n    /* \"WandInstruments.sol\":2565:2648  stableERC20Info[\"DAI\"].contractAddress = 0x2A4a8Ab6A0Bc0d377098F8688F77003833BC1C9d */\n  0x0100\n  exp\n  dup2\n  sload\n  dup2\n  0xffffffffffffffffffffffffffffffffffffffff\n  mul\n  not\n  and\n  swap1\n  dup4\n  0xffffffffffffffffffffffffffffffffffffffff\n  and\n  mul\n  or\n  swap1\n  sstore\n  pop\n    /* \"WandInstruments.sol\":2698:2700  18 */\n  0x12\n    /* \"WandInstruments.sol\":2659:2674  stableERC20Info */\n  0x13\n    /* \"WandInstruments.sol\":2659:2681  stableERC20Info[\"DAI\"] */\n  mload(0x40)\n  tag_17\n  swap1\n  tag_16\n  jump\t// in\ntag_17:\n  swap1\n  dup2\n  mstore\n  0x20\n  add\n  mload(0x40)\n  dup1\n  swap2\n  sub\n  swap1\n  keccak256\n    /* \"WandInstruments.sol\":2659:2695  stableERC20Info[\"DAI\"].tokenDecimals */\n  0x01\n  add\n    /* \"WandInstruments.sol\":2659:2700  stableERC20Info[\"DAI\"].tokenDecimals = 18 */\n  dup2\n  swap1\n  sstore\n  pop\n    /* \"WandInstruments.sol\":2774:2816  0xdc301622e621166BD8E82f2cA0A26c13Ad0BE355 */\n  0xdc301622e621166bd8e82f2ca0a26c13ad0be355\n    /* \"WandInstruments.sol\":2732:2747  stableERC20Info */\n  0x13\n    /* \"WandInstruments.sol\":2732:2755  stableERC20Info[\"FRAX\"] */\n  mload(0x40)\n  tag_18\n  swap1\n  tag_19\n  jump\t// in\ntag_18:\n  swap1\n  dup2\n  mstore\n  0x20\n  add\n  mload(0x40)\n  dup1\n  swap2\n  sub\n  swap1\n  keccak256\n    /* \"WandInstruments.sol\":2732:2771  stableERC20Info[\"FRAX\"].contractAddress */\n  0x00\n  add\n  0x00\n    /* \"WandInstruments.sol\":2732:2816  stableERC20Info[\"FRAX\"].contractAddress = 0xdc301622e621166BD8E82f2cA0A26c13Ad0BE355 */\n  0x0100\n  exp\n  dup2\n  sload\n  dup2\n  0xffffffffffffffffffffffffffffffffffffffff\n  mul\n  not\n  and\n  swap1\n  dup4\n  0xffffffffffffffffffffffffffffffffffffffff\n  and\n  mul\n  or\n  swap1\n  sstore\n  pop\n    /* \"WandInstruments.sol\":2867:2869  18 */\n  0x12\n    /* \"WandInstruments.sol\":2827:2842  stableERC20Info */\n  0x13\n    /* \"WandInstruments.sol\":2827:2850  stableERC20Info[\"FRAX\"] */\n  mload(0x40)\n  tag_20\n  swap1\n  tag_19\n  jump\t// in\ntag_20:\n  swap1\n  dup2\n  mstore\n  0x20\n  add\n  mload(0x40)\n  dup1\n  swap2\n  sub\n  swap1\n  keccak256\n    /* \"WandInstruments.sol\":2827:2864  stableERC20Info[\"FRAX\"].tokenDecimals */\n  0x01\n  add\n    /* \"WandInstruments.sol\":2827:2869  stableERC20Info[\"FRAX\"].tokenDecimals = 18 */\n  dup2\n  swap1\n  sstore\n  pop\n    /* \"WandInstruments.sol\":156:15150  contract testSticks is ReentrancyGuard, Ownable{\r... */\n  jump(tag_21)\n    /* \"Context.sol\":640:736  function _msgSender() internal view virtual returns (address) {... */\ntag_9:\n    /* \"Context.sol\":693:700  address */\n  0x00\n    /* \"Context.sol\":719:729  msg.sender */\n  caller\n    /* \"Context.sol\":712:729  return msg.sender */\n  swap1\n  pop\n    /* \"Context.sol\":640:736  function _msgSender() internal view virtual returns (address) {... */\n  swap1\n  jump\t// out\n    /* \"Ownable.sol\":2263:2450  function _transferOwnership(address newOwner) internal virtual {... */\ntag_10:\n    /* \"Ownable.sol\":2336:2352  address oldOwner */\n  0x00\n    /* \"Ownable.sol\":2355:2361  _owner */\n  0x01\n  0x00\n  swap1\n  sload\n  swap1\n  0x0100\n  exp\n  swap1\n  div\n  0xffffffffffffffffffffffffffffffffffffffff\n  and\n    /* \"Ownable.sol\":2336:2361  address oldOwner = _owner */\n  swap1\n  pop\n    /* \"Ownable.sol\":2380:2388  newOwner */\n  dup2\n    /* \"Ownable.sol\":2371:2377  _owner */\n  0x01\n  0x00\n    /* \"Ownable.sol\":2371:2388  _owner = newOwner */\n  0x0100\n  exp\n  dup2\n  sload\n  dup2\n  0xffffffffffffffffffffffffffffffffffffffff\n  mul\n  not\n  and\n  swap1\n  dup4\n  0xffffffffffffffffffffffffffffffffffffffff\n  and\n  mul\n  or\n  swap1\n  sstore\n  pop\n    /* \"Ownable.sol\":2434:2442  newOwner */\n  dup2\n    /* \"Ownable.sol\":2403:2443  OwnershipTransferred(oldOwner, newOwner) */\n  0xffffffffffffffffffffffffffffffffffffffff\n  and\n    /* \"Ownable.sol\":2424:2432  oldOwner */\n  dup2\n    /* \"Ownable.sol\":2403:2443  OwnershipTransferred(oldOwner, newOwner) */\n  0xffffffffffffffffffffffffffffffffffffffff\n  and\n  0x8be0079c531659141344cd1fd0a4f28419497f9722a3daafe3b4186f6b6457e0\n  mload(0x40)\n  mload(0x40)\n  dup1\n  swap2\n  sub\n  swap1\n  log3\n    /* \"Ownable.sol\":2326:2450  {... */\n  pop\n    /* \"Ownable.sol\":2263:2450  function _transferOwnership(address newOwner) internal virtual {... */\n  pop\n  jump\t// out\n    /* \"#utility.yul\":7:407   */\ntag_25:\n    /* \"#utility.yul\":167:170   */\n  0x00\n    /* \"#utility.yul\":188:272   */\n  tag_27\n    /* \"#utility.yul\":270:271   */\n  0x04\n    /* \"#utility.yul\":265:268   */\n  dup4\n    /* \"#utility.yul\":188:272   */\n  tag_28\n  jump\t// in\ntag_27:\n    /* \"#utility.yul\":181:272   */\n  swap2\n  pop\n    /* \"#utility.yul\":281:374   */\n  tag_29\n    /* \"#utility.yul\":370:373   */\n  dup3\n    /* \"#utility.yul\":281:374   */\n  tag_30\n  jump\t// in\ntag_29:\n    /* \"#utility.yul\":399:400   */\n  0x04\n    /* \"#utility.yul\":394:397   */\n  dup3\n    /* \"#utility.yul\":390:401   */\n  add\n    /* \"#utility.yul\":383:401   */\n  swap1\n  pop\n    /* \"#utility.yul\":7:407   */\n  swap2\n  swap1\n  pop\n  jump\t// out\n    /* \"#utility.yul\":413:813   */\ntag_31:\n    /* \"#utility.yul\":573:576   */\n  0x00\n    /* \"#utility.yul\":594:678   */\n  tag_33\n    /* \"#utility.yul\":676:677   */\n  0x03\n    /* \"#utility.yul\":671:674   */\n  dup4\n    /* \"#utility.yul\":594:678   */\n  tag_28\n  jump\t// in\ntag_33:\n    /* \"#utility.yul\":587:678   */\n  swap2\n  pop\n    /* \"#utility.yul\":687:780   */\n  tag_34\n    /* \"#utility.yul\":776:779   */\n  dup3\n    /* \"#utility.yul\":687:780   */\n  tag_35\n  jump\t// in\ntag_34:\n    /* \"#utility.yul\":805:806   */\n  0x03\n    /* \"#utility.yul\":800:803   */\n  dup3\n    /* \"#utility.yul\":796:807   */\n  add\n    /* \"#utility.yul\":789:807   */\n  swap1\n  pop\n    /* \"#utility.yul\":413:813   */\n  swap2\n  swap1\n  pop\n  jump\t// out\n    /* \"#utility.yul\":819:1219   */\ntag_36:\n    /* \"#utility.yul\":979:982   */\n  0x00\n    /* \"#utility.yul\":1000:1084   */\n  tag_38\n    /* \"#utility.yul\":1082:1083   */\n  0x04\n    /* \"#utility.yul\":1077:1080   */\n  dup4\n    /* \"#utility.yul\":1000:1084   */\n  tag_28\n  jump\t// in\ntag_38:\n    /* \"#utility.yul\":993:1084   */\n  swap2\n  pop\n    /* \"#utility.yul\":1093:1186   */\n  tag_39\n    /* \"#utility.yul\":1182:1185   */\n  dup3\n    /* \"#utility.yul\":1093:1186   */\n  tag_40\n  jump\t// in\ntag_39:\n    /* \"#utility.yul\":1211:1212   */\n  0x04\n    /* \"#utility.yul\":1206:1209   */\n  dup3\n    /* \"#utility.yul\":1202:1213   */\n  add\n    /* \"#utility.yul\":1195:1213   */\n  swap1\n  pop\n    /* \"#utility.yul\":819:1219   */\n  swap2\n  swap1\n  pop\n  jump\t// out\n    /* \"#utility.yul\":1225:1606   */\ntag_19:\n    /* \"#utility.yul\":1410:1413   */\n  0x00\n    /* \"#utility.yul\":1432:1580   */\n  tag_42\n    /* \"#utility.yul\":1576:1579   */\n  dup3\n    /* \"#utility.yul\":1432:1580   */\n  tag_25\n  jump\t// in\ntag_42:\n    /* \"#utility.yul\":1425:1580   */\n  swap2\n  pop\n    /* \"#utility.yul\":1597:1600   */\n  dup2\n    /* \"#utility.yul\":1590:1600   */\n  swap1\n  pop\n    /* \"#utility.yul\":1225:1606   */\n  swap2\n  swap1\n  pop\n  jump\t// out\n    /* \"#utility.yul\":1612:1993   */\ntag_16:\n    /* \"#utility.yul\":1797:1800   */\n  0x00\n    /* \"#utility.yul\":1819:1967   */\n  tag_44\n    /* \"#utility.yul\":1963:1966   */\n  dup3\n    /* \"#utility.yul\":1819:1967   */\n  tag_31\n  jump\t// in\ntag_44:\n    /* \"#utility.yul\":1812:1967   */\n  swap2\n  pop\n    /* \"#utility.yul\":1984:1987   */\n  dup2\n    /* \"#utility.yul\":1977:1987   */\n  swap1\n  pop\n    /* \"#utility.yul\":1612:1993   */\n  swap2\n  swap1\n  pop\n  jump\t// out\n    /* \"#utility.yul\":1999:2380   */\ntag_13:\n    /* \"#utility.yul\":2184:2187   */\n  0x00\n    /* \"#utility.yul\":2206:2354   */\n  tag_46\n    /* \"#utility.yul\":2350:2353   */\n  dup3\n    /* \"#utility.yul\":2206:2354   */\n  tag_36\n  jump\t// in\ntag_46:\n    /* \"#utility.yul\":2199:2354   */\n  swap2\n  pop\n    /* \"#utility.yul\":2371:2374   */\n  dup2\n    /* \"#utility.yul\":2364:2374   */\n  swap1\n  pop\n    /* \"#utility.yul\":1999:2380   */\n  swap2\n  swap1\n  pop\n  jump\t// out\n    /* \"#utility.yul\":2386:2534   */\ntag_28:\n    /* \"#utility.yul\":2488:2499   */\n  0x00\n    /* \"#utility.yul\":2525:2528   */\n  dup2\n    /* \"#utility.yul\":2510:2528   */\n  swap1\n  pop\n    /* \"#utility.yul\":2386:2534   */\n  swap3\n  swap2\n  pop\n  pop\n  jump\t// out\n    /* \"#utility.yul\":2540:2694   */\ntag_30:\n    /* \"#utility.yul\":2680:2686   */\n  0x4652415800000000000000000000000000000000000000000000000000000000\n    /* \"#utility.yul\":2676:2677   */\n  0x00\n    /* \"#utility.yul\":2668:2674   */\n  dup3\n    /* \"#utility.yul\":2664:2678   */\n  add\n    /* \"#utility.yul\":2657:2687   */\n  mstore\n    /* \"#utility.yul\":2540:2694   */\n  pop\n  jump\t// out\n    /* \"#utility.yul\":2700:2853   */\ntag_35:\n    /* \"#utility.yul\":2840:2845   */\n  0x4441490000000000000000000000000000000000000000000000000000000000\n    /* \"#utility.yul\":2836:2837   */\n  0x00\n    /* \"#utility.yul\":2828:2834   */\n  dup3\n    /* \"#utility.yul\":2824:2838   */\n  add\n    /* \"#utility.yul\":2817:2846   */\n  mstore\n    /* \"#utility.yul\":2700:2853   */\n  pop\n  jump\t// out\n    /* \"#utility.yul\":2859:3013   */\ntag_40:\n    /* \"#utility.yul\":2999:3005   */\n  0x5553444300000000000000000000000000000000000000000000000000000000\n    /* \"#utility.yul\":2995:2996   */\n  0x00\n    /* \"#utility.yul\":2987:2993   */\n  dup3\n    /* \"#utility.yul\":2983:2997   */\n  add\n    /* \"#utility.yul\":2976:3006   */\n  mstore\n    /* \"#utility.yul\":2859:3013   */\n  pop\n  jump\t// out\n    /* \"WandInstruments.sol\":156:15150  contract testSticks is ReentrancyGuard, Ownable{\r... */\ntag_21:\n  dataSize(sub_0)\n  dup1\n  dataOffset(sub_0)\n  0x00\n  codecopy\n  0x00\n  return\nstop\n\nsub_0: assembly {\n        /* \"WandInstruments.sol\":156:15150  contract testSticks is ReentrancyGuard, Ownable{\r... */\n      mstore(0x40, 0x80)\n      jumpi(tag_1, lt(calldatasize, 0x04))\n      shr(0xe0, calldataload(0x00))\n      dup1\n      0x7087a7a5\n      gt\n      tag_40\n      jumpi\n      dup1\n      0xbdad7f02\n      gt\n      tag_41\n      jumpi\n      dup1\n      0xd82eddf2\n      gt\n      tag_42\n      jumpi\n      dup1\n      0xd82eddf2\n      eq\n      tag_35\n      jumpi\n      dup1\n      0xe5d98082\n      eq\n      tag_36\n      jumpi\n      dup1\n      0xeee05f5e\n      eq\n      tag_37\n      jumpi\n      dup1\n      0xf2fde38b\n      eq\n      tag_38\n      jumpi\n      dup1\n      0xfc361443\n      eq\n      tag_39\n      jumpi\n      jump(tag_1)\n    tag_42:\n      dup1\n      0xbdad7f02\n      eq\n      tag_30\n      jumpi\n      dup1\n      0xc079d7f6\n      eq\n      tag_31\n      jumpi\n      dup1\n      0xc0ca6fb4\n      eq\n      tag_32\n      jumpi\n      dup1\n      0xc0ce5889\n      eq\n      tag_33\n      jumpi\n      dup1\n      0xd04d7908\n      eq\n      tag_34\n      jumpi\n      jump(tag_1)\n    tag_41:\n      dup1\n      0x8da5cb5b\n      gt\n      tag_43\n      jumpi\n      dup1\n      0x8da5cb5b\n      eq\n      tag_25\n      jumpi\n      dup1\n      0x93f7b711\n      eq\n      tag_26\n      jumpi\n      dup1\n      0x9b19251a\n      eq\n      tag_27\n      jumpi\n      dup1\n      0xa475bf48\n      eq\n      tag_28\n      jumpi\n      dup1\n      0xbcb3de54\n      eq\n      tag_29\n      jumpi\n      jump(tag_1)\n    tag_43:\n      dup1\n      0x7087a7a5\n      eq\n      tag_21\n      jumpi\n      dup1\n      0x715018a6\n      eq\n      tag_22\n      jumpi\n      dup1\n      0x71cd58f9\n      eq\n      tag_23\n      jumpi\n      dup1\n      0x862d1b35\n      eq\n      tag_24\n      jumpi\n      jump(tag_1)\n    tag_40:\n      dup1\n      0x1bc9cc45\n      gt\n      tag_44\n      jumpi\n      dup1\n      0x3c6eb17a\n      gt\n      tag_45\n      jumpi\n      dup1\n      0x3c6eb17a\n      eq\n      tag_16\n      jumpi\n      dup1\n      0x43d32e9c\n      eq\n      tag_17\n      jumpi\n      dup1\n      0x66763319\n      eq\n      tag_18\n      jumpi\n      dup1\n      0x67b48c91\n      eq\n      tag_19\n      jumpi\n      dup1\n      0x67e927a8\n      eq\n      tag_20\n      jumpi\n      jump(tag_1)\n    tag_45:\n      dup1\n      0x1bc9cc45\n      eq\n      tag_11\n      jumpi\n      dup1\n      0x1f564a06\n      eq\n      tag_12\n      jumpi\n      dup1\n      0x26ae486e\n      eq\n      tag_13\n      jumpi\n      dup1\n      0x29982a32\n      eq\n      tag_14\n      jumpi\n      dup1\n      0x2a9f0fb1\n      eq\n      tag_15\n      jumpi\n      jump(tag_1)\n    tag_44:\n      dup1\n      0x0f65de3e\n      gt\n      tag_46\n      jumpi\n      dup1\n      0x0f65de3e\n      eq\n      tag_6\n      jumpi\n      dup1\n      0x12b2ed94\n      eq\n      tag_7\n      jumpi\n      dup1\n      0x1514c976\n      eq\n      tag_8\n      jumpi\n      dup1\n      0x164c8501\n      eq\n      tag_9\n      jumpi\n      dup1\n      0x1a30e872\n      eq\n      tag_10\n      jumpi\n      jump(tag_1)\n    tag_46:\n      dup1\n      0x018a25e8\n      eq\n      tag_2\n      jumpi\n      dup1\n      0x02ac8168\n      eq\n      tag_3\n      jumpi\n      dup1\n      0x047729b0\n      eq\n      tag_4\n      jumpi\n      dup1\n      0x0ccaf04f\n      eq\n      tag_5\n      jumpi\n    tag_1:\n      0x00\n      dup1\n      revert\n        /* \"WandInstruments.sol\":10936:11210  function getBuyPrice() external view returns (uint256){\r... */\n    tag_2:\n      callvalue\n      dup1\n      iszero\n      tag_47\n      jumpi\n      0x00\n      dup1\n      revert\n    tag_47:\n      pop\n      tag_48\n      tag_49\n      jump\t// in\n    tag_48:\n      mload(0x40)\n      tag_50\n      swap2\n      swap1\n      tag_51\n      jump\t// in\n    tag_50:\n      mload(0x40)\n      dup1\n      swap2\n      sub\n      swap1\n      return\n        /* \"WandInstruments.sol\":11771:12587  function Launch() public onlyOwner{\r... */\n    tag_3:\n      callvalue\n      dup1\n      iszero\n      tag_52\n      jumpi\n      0x00\n      dup1\n      revert\n    tag_52:\n      pop\n      tag_53\n      tag_54\n      jump\t// in\n    tag_53:\n      stop\n        /* \"WandInstruments.sol\":456:487  address public riskTreasuryAddr */\n    tag_4:\n      callvalue\n      dup1\n      iszero\n      tag_55\n      jumpi\n      0x00\n      dup1\n      revert\n    tag_55:\n      pop\n      tag_56\n      tag_57\n      jump\t// in\n    tag_56:\n      mload(0x40)\n      tag_58\n      swap2\n      swap1\n      tag_59\n      jump\t// in\n    tag_58:\n      mload(0x40)\n      dup1\n      swap2\n      sub\n      swap1\n      return\n        /* \"WandInstruments.sol\":10042:10700  function getSellFactor() external view returns (uint256){\r... */\n    tag_5:\n      callvalue\n      dup1\n      iszero\n      tag_60\n      jumpi\n      0x00\n      dup1\n      revert\n    tag_60:\n      pop\n      tag_61\n      tag_62\n      jump\t// in\n    tag_61:\n      mload(0x40)\n      tag_63\n      swap2\n      swap1\n      tag_51\n      jump\t// in\n    tag_63:\n      mload(0x40)\n      dup1\n      swap2\n      sub\n      swap1\n      return\n        /* \"WandInstruments.sol\":8529:9369  function getCircSupplyXDays() public view returns (uint256){\r... */\n    tag_6:\n      callvalue\n      dup1\n      iszero\n      tag_64\n      jumpi\n      0x00\n      dup1\n      revert\n    tag_64:\n      pop\n      tag_65\n      tag_66\n      jump\t// in\n    tag_65:\n      mload(0x40)\n      tag_67\n      swap2\n      swap1\n      tag_51\n      jump\t// in\n    tag_67:\n      mload(0x40)\n      dup1\n      swap2\n      sub\n      swap1\n      return\n        /* \"WandInstruments.sol\":1735:1795  mapping(address => lockedamounts) public withheldWithdrawals */\n    tag_7:\n      callvalue\n      dup1\n      iszero\n      tag_68\n      jumpi\n      0x00\n      dup1\n      revert\n    tag_68:\n      pop\n      tag_69\n      0x04\n      dup1\n      calldatasize\n      sub\n      dup2\n      add\n      swap1\n      tag_70\n      swap2\n      swap1\n      tag_71\n      jump\t// in\n    tag_70:\n      tag_72\n      jump\t// in\n    tag_69:\n      mload(0x40)\n      tag_73\n      swap3\n      swap2\n      swap1\n      tag_74\n      jump\t// in\n    tag_73:\n      mload(0x40)\n      dup1\n      swap2\n      sub\n      swap1\n      return\n        /* \"WandInstruments.sol\":1318:1368  mapping(uint256 => uint256) public tokensSoldXDays */\n    tag_8:\n      callvalue\n      dup1\n      iszero\n      tag_75\n      jumpi\n      0x00\n      dup1\n      revert\n    tag_75:\n      pop\n      tag_76\n      0x04\n      dup1\n      calldatasize\n      sub\n      dup2\n      add\n      swap1\n      tag_77\n      swap2\n      swap1\n      tag_78\n      jump\t// in\n    tag_77:\n      tag_79\n      jump\t// in\n    tag_76:\n      mload(0x40)\n      tag_80\n      swap2\n      swap1\n      tag_51\n      jump\t// in\n    tag_80:\n      mload(0x40)\n      dup1\n      swap2\n      sub\n      swap1\n      return\n        /* \"WandInstruments.sol\":13213:13715  function testUpdatetimeLockedminus(uint256 amt) public  {\r... */\n    tag_9:\n      callvalue\n      dup1\n      iszero\n      tag_81\n      jumpi\n      0x00\n      dup1\n      revert\n    tag_81:\n      pop\n      tag_82\n      0x04\n      dup1\n      calldatasize\n      sub\n      dup2\n      add\n      swap1\n      tag_83\n      swap2\n      swap1\n      tag_78\n      jump\t// in\n    tag_83:\n      tag_84\n      jump\t// in\n    tag_82:\n      stop\n        /* \"WandInstruments.sol\":1375:1432  mapping(uint256 => uint256) public circulatingSupplyXDays */\n    tag_10:\n      callvalue\n      dup1\n      iszero\n      tag_85\n      jumpi\n      0x00\n      dup1\n      revert\n    tag_85:\n      pop\n      tag_86\n      0x04\n      dup1\n      calldatasize\n      sub\n      dup2\n      add\n      swap1\n      tag_87\n      swap2\n      swap1\n      tag_78\n      jump\t// in\n    tag_87:\n      tag_88\n      jump\t// in\n    tag_86:\n      mload(0x40)\n      tag_89\n      swap2\n      swap1\n      tag_51\n      jump\t// in\n    tag_89:\n      mload(0x40)\n      dup1\n      swap2\n      sub\n      swap1\n      return\n        /* \"WandInstruments.sol\":5970:6717  function transformScepterToBaton(uint256 amountSCPtoSwap) public payable{\r... */\n    tag_11:\n      tag_90\n      0x04\n      dup1\n      calldatasize\n      sub\n      dup2\n      add\n      swap1\n      tag_91\n      swap2\n      swap1\n      tag_78\n      jump\t// in\n    tag_91:\n      tag_92\n      jump\t// in\n    tag_90:\n      stop\n        /* \"WandInstruments.sol\":10708:10928  function getBackingPrice() external view returns (uint256){\r... */\n    tag_12:\n      callvalue\n      dup1\n      iszero\n      tag_93\n      jumpi\n      0x00\n      dup1\n      revert\n    tag_93:\n      pop\n      tag_94\n      tag_95\n      jump\t// in\n    tag_94:\n      mload(0x40)\n      tag_96\n      swap2\n      swap1\n      tag_51\n      jump\t// in\n    tag_96:\n      mload(0x40)\n      dup1\n      swap2\n      sub\n      swap1\n      return\n        /* \"WandInstruments.sol\":1099:1117  IERC20 public SPTR */\n    tag_13:\n      callvalue\n      dup1\n      iszero\n      tag_97\n      jumpi\n      0x00\n      dup1\n      revert\n    tag_97:\n      pop\n      tag_98\n      tag_99\n      jump\t// in\n    tag_98:\n      mload(0x40)\n      tag_100\n      swap2\n      swap1\n      tag_101\n      jump\t// in\n    tag_100:\n      mload(0x40)\n      dup1\n      swap2\n      sub\n      swap1\n      return\n        /* \"WandInstruments.sol\":494:522  address public devWalletAddr */\n    tag_14:\n      callvalue\n      dup1\n      iszero\n      tag_102\n      jumpi\n      0x00\n      dup1\n      revert\n    tag_102:\n      pop\n      tag_103\n      tag_104\n      jump\t// in\n    tag_103:\n      mload(0x40)\n      tag_105\n      swap2\n      swap1\n      tag_59\n      jump\t// in\n    tag_105:\n      mload(0x40)\n      dup1\n      swap2\n      sub\n      swap1\n      return\n        /* \"WandInstruments.sol\":1259:1311  mapping(uint256 => uint256) public tokensBoughtXDays */\n    tag_15:\n      callvalue\n      dup1\n      iszero\n      tag_106\n      jumpi\n      0x00\n      dup1\n      revert\n    tag_106:\n      pop\n      tag_107\n      0x04\n      dup1\n      calldatasize\n      sub\n      dup2\n      add\n      swap1\n      tag_108\n      swap2\n      swap1\n      tag_78\n      jump\t// in\n    tag_108:\n      tag_109\n      jump\t// in\n    tag_107:\n      mload(0x40)\n      tag_110\n      swap2\n      swap1\n      tag_51\n      jump\t// in\n    tag_110:\n      mload(0x40)\n      dup1\n      swap2\n      sub\n      swap1\n      return\n        /* \"WandInstruments.sol\":622:649  uint256 public timeLaunched */\n    tag_16:\n      callvalue\n      dup1\n      iszero\n      tag_111\n      jumpi\n      0x00\n      dup1\n      revert\n    tag_111:\n      pop\n      tag_112\n      tag_113\n      jump\t// in\n    tag_112:\n      mload(0x40)\n      tag_114\n      swap2\n      swap1\n      tag_51\n      jump\t// in\n    tag_114:\n      mload(0x40)\n      dup1\n      swap2\n      sub\n      swap1\n      return\n        /* \"WandInstruments.sol\":11218:11491  function getSellPrice() external view returns (uint256){\r... */\n    tag_17:\n      callvalue\n      dup1\n      iszero\n      tag_115\n      jumpi\n      0x00\n      dup1\n      revert\n    tag_115:\n      pop\n      tag_116\n      tag_117\n      jump\t// in\n    tag_116:\n      mload(0x40)\n      tag_118\n      swap2\n      swap1\n      tag_51\n      jump\t// in\n    tag_118:\n      mload(0x40)\n      dup1\n      swap2\n      sub\n      swap1\n      return\n        /* \"WandInstruments.sol\":563:593  uint256 public sptrTreasuryBal */\n    tag_18:\n      callvalue\n      dup1\n      iszero\n      tag_119\n      jumpi\n      0x00\n      dup1\n      revert\n    tag_119:\n      pop\n      tag_120\n      tag_121\n      jump\t// in\n    tag_120:\n      mload(0x40)\n      tag_122\n      swap2\n      swap1\n      tag_51\n      jump\t// in\n    tag_122:\n      mload(0x40)\n      dup1\n      swap2\n      sub\n      swap1\n      return\n        /* \"WandInstruments.sol\":656:688  uint256 public daysInCalculation */\n    tag_19:\n      callvalue\n      dup1\n      iszero\n      tag_123\n      jumpi\n      0x00\n      dup1\n      revert\n    tag_123:\n      pop\n      tag_124\n      tag_125\n      jump\t// in\n    tag_124:\n      mload(0x40)\n      tag_126\n      swap2\n      swap1\n      tag_51\n      jump\t// in\n    tag_126:\n      mload(0x40)\n      dup1\n      swap2\n      sub\n      swap1\n      return\n        /* \"WandInstruments.sol\":12729:13201  function testUpdatetimeLockedplus(uint256 amt) public  {\r... */\n    tag_20:\n      callvalue\n      dup1\n      iszero\n      tag_127\n      jumpi\n      0x00\n      dup1\n      revert\n    tag_127:\n      pop\n      tag_128\n      0x04\n      dup1\n      calldatasize\n      sub\n      dup2\n      add\n      swap1\n      tag_129\n      swap2\n      swap1\n      tag_78\n      jump\t// in\n    tag_129:\n      tag_130\n      jump\t// in\n    tag_128:\n      stop\n        /* \"WandInstruments.sol\":1176:1201  IERC20 public tokenStable */\n    tag_21:\n      callvalue\n      dup1\n      iszero\n      tag_131\n      jumpi\n      0x00\n      dup1\n      revert\n    tag_131:\n      pop\n      tag_132\n      tag_133\n      jump\t// in\n    tag_132:\n      mload(0x40)\n      tag_134\n      swap2\n      swap1\n      tag_101\n      jump\t// in\n    tag_134:\n      mload(0x40)\n      dup1\n      swap2\n      sub\n      swap1\n      return\n        /* \"Ownable.sol\":1661:1762  function renounceOwnership() public virtual onlyOwner {... */\n    tag_22:\n      callvalue\n      dup1\n      iszero\n      tag_135\n      jumpi\n      0x00\n      dup1\n      revert\n    tag_135:\n      pop\n      tag_136\n      tag_137\n      jump\t// in\n    tag_136:\n      stop\n        /* \"WandInstruments.sol\":13725:14253  function getTokensBoughtXDays() external view returns (uint256){\r... */\n    tag_23:\n      callvalue\n      dup1\n      iszero\n      tag_138\n      jumpi\n      0x00\n      dup1\n      revert\n    tag_138:\n      pop\n      tag_139\n      tag_140\n      jump\t// in\n    tag_139:\n      mload(0x40)\n      tag_141\n      swap2\n      swap1\n      tag_51\n      jump\t// in\n    tag_141:\n      mload(0x40)\n      dup1\n      swap2\n      sub\n      swap1\n      return\n        /* \"WandInstruments.sol\":6732:7979  function buyScepter(uint256 amountSCPtoBuy, string memory _stableChosen) public nonReentrant{\r... */\n    tag_24:\n      callvalue\n      dup1\n      iszero\n      tag_142\n      jumpi\n      0x00\n      dup1\n      revert\n    tag_142:\n      pop\n      tag_143\n      0x04\n      dup1\n      calldatasize\n      sub\n      dup2\n      add\n      swap1\n      tag_144\n      swap2\n      swap1\n      tag_145\n      jump\t// in\n    tag_144:\n      tag_146\n      jump\t// in\n    tag_143:\n      stop\n        /* \"Ownable.sol\":1029:1114  function owner() public view virtual returns (address) {... */\n    tag_25:\n      callvalue\n      dup1\n      iszero\n      tag_147\n      jumpi\n      0x00\n      dup1\n      revert\n    tag_147:\n      pop\n      tag_148\n      tag_149\n      jump\t// in\n    tag_148:\n      mload(0x40)\n      tag_150\n      swap2\n      swap1\n      tag_59\n      jump\t// in\n    tag_150:\n      mload(0x40)\n      dup1\n      swap2\n      sub\n      swap1\n      return\n        /* \"WandInstruments.sol\":9377:10034  function getGrowthFactor() external view returns (uint256){\r... */\n    tag_26:\n      callvalue\n      dup1\n      iszero\n      tag_151\n      jumpi\n      0x00\n      dup1\n      revert\n    tag_151:\n      pop\n      tag_152\n      tag_153\n      jump\t// in\n    tag_152:\n      mload(0x40)\n      tag_154\n      swap2\n      swap1\n      tag_51\n      jump\t// in\n    tag_154:\n      mload(0x40)\n      dup1\n      swap2\n      sub\n      swap1\n      return\n        /* \"WandInstruments.sol\":14555:14644  function whitelist(address _addr) public onlyOwner {  \r... */\n    tag_27:\n      callvalue\n      dup1\n      iszero\n      tag_155\n      jumpi\n      0x00\n      dup1\n      revert\n    tag_155:\n      pop\n      tag_156\n      0x04\n      dup1\n      calldatasize\n      sub\n      dup2\n      add\n      swap1\n      tag_157\n      swap2\n      swap1\n      tag_71\n      jump\t// in\n    tag_157:\n      tag_158\n      jump\t// in\n    tag_156:\n      stop\n        /* \"WandInstruments.sol\":1563:1624  mapping (string => stableTokensParams) public stableERC20Info */\n    tag_28:\n      callvalue\n      dup1\n      iszero\n      tag_159\n      jumpi\n      0x00\n      dup1\n      revert\n    tag_159:\n      pop\n      tag_160\n      0x04\n      dup1\n      calldatasize\n      sub\n      dup2\n      add\n      swap1\n      tag_161\n      swap2\n      swap1\n      tag_162\n      jump\t// in\n    tag_161:\n      tag_163\n      jump\t// in\n    tag_160:\n      mload(0x40)\n      tag_164\n      swap3\n      swap2\n      swap1\n      tag_165\n      jump\t// in\n    tag_164:\n      mload(0x40)\n      dup1\n      swap2\n      sub\n      swap1\n      return\n        /* \"WandInstruments.sol\":11499:11729  function updateSPTRTreasuryBal() external onlyOwner {\r... */\n    tag_29:\n      callvalue\n      dup1\n      iszero\n      tag_166\n      jumpi\n      0x00\n      dup1\n      revert\n    tag_166:\n      pop\n      tag_167\n      tag_168\n      jump\t// in\n    tag_167:\n      stop\n        /* \"WandInstruments.sol\":7987:8494  function claimLockedUSDC(address _claimant, string memory _stableChosen) public {\r... */\n    tag_30:\n      callvalue\n      dup1\n      iszero\n      tag_169\n      jumpi\n      0x00\n      dup1\n      revert\n    tag_169:\n      pop\n      tag_170\n      0x04\n      dup1\n      calldatasize\n      sub\n      dup2\n      add\n      swap1\n      tag_171\n      swap2\n      swap1\n      tag_172\n      jump\t// in\n    tag_171:\n      tag_173\n      jump\t// in\n    tag_170:\n      stop\n        /* \"WandInstruments.sol\":415:449  address public scepterTreasuryAddr */\n    tag_31:\n      callvalue\n      dup1\n      iszero\n      tag_174\n      jumpi\n      0x00\n      dup1\n      revert\n    tag_174:\n      pop\n      tag_175\n      tag_176\n      jump\t// in\n    tag_175:\n      mload(0x40)\n      tag_177\n      swap2\n      swap1\n      tag_59\n      jump\t// in\n    tag_177:\n      mload(0x40)\n      dup1\n      swap2\n      sub\n      swap1\n      return\n        /* \"WandInstruments.sol\":1149:1167  IERC20 public BTON */\n    tag_32:\n      callvalue\n      dup1\n      iszero\n      tag_178\n      jumpi\n      0x00\n      dup1\n      revert\n    tag_178:\n      pop\n      tag_179\n      tag_180\n      jump\t// in\n    tag_179:\n      mload(0x40)\n      tag_181\n      swap2\n      swap1\n      tag_101\n      jump\t// in\n    tag_181:\n      mload(0x40)\n      dup1\n      swap2\n      sub\n      swap1\n      return\n        /* \"WandInstruments.sol\":4272:5962  function cashOutScepter(uint256 amountSCPtoSell, uint256 timeChosenLocked, string memory _stableChosen) public payable{\r... */\n    tag_33:\n      tag_182\n      0x04\n      dup1\n      calldatasize\n      sub\n      dup2\n      add\n      swap1\n      tag_183\n      swap2\n      swap1\n      tag_184\n      jump\t// in\n    tag_183:\n      tag_185\n      jump\t// in\n    tag_182:\n      stop\n        /* \"WandInstruments.sol\":1124:1142  IERC20 public WAND */\n    tag_34:\n      callvalue\n      dup1\n      iszero\n      tag_186\n      jumpi\n      0x00\n      dup1\n      revert\n    tag_186:\n      pop\n      tag_187\n      tag_188\n      jump\t// in\n    tag_187:\n      mload(0x40)\n      tag_189\n      swap2\n      swap1\n      tag_101\n      jump\t// in\n    tag_189:\n      mload(0x40)\n      dup1\n      swap2\n      sub\n      swap1\n      return\n        /* \"WandInstruments.sol\":14259:14545  function getTokensSoldXDays() external view returns (uint256){\r... */\n    tag_35:\n      callvalue\n      dup1\n      iszero\n      tag_190\n      jumpi\n      0x00\n      dup1\n      revert\n    tag_190:\n      pop\n      tag_191\n      tag_192\n      jump\t// in\n    tag_191:\n      mload(0x40)\n      tag_193\n      swap2\n      swap1\n      tag_51\n      jump\t// in\n    tag_193:\n      mload(0x40)\n      dup1\n      swap2\n      sub\n      swap1\n      return\n        /* \"WandInstruments.sol\":14652:14871  function addStable(string memory _ticker, address _addr, uint256 _dec) public onlyOwner {\r... */\n    tag_36:\n      callvalue\n      dup1\n      iszero\n      tag_194\n      jumpi\n      0x00\n      dup1\n      revert\n    tag_194:\n      pop\n      tag_195\n      0x04\n      dup1\n      calldatasize\n      sub\n      dup2\n      add\n      swap1\n      tag_196\n      swap2\n      swap1\n      tag_197\n      jump\t// in\n    tag_196:\n      tag_198\n      jump\t// in\n    tag_195:\n      stop\n        /* \"WandInstruments.sol\":853:923  address public testwallet = 0x617F2E2fD72FD9D5503197092aC168c91465E7f2 */\n    tag_37:\n      callvalue\n      dup1\n      iszero\n      tag_199\n      jumpi\n      0x00\n      dup1\n      revert\n    tag_199:\n      pop\n      tag_200\n      tag_201\n      jump\t// in\n    tag_200:\n      mload(0x40)\n      tag_202\n      swap2\n      swap1\n      tag_59\n      jump\t// in\n    tag_202:\n      mload(0x40)\n      dup1\n      swap2\n      sub\n      swap1\n      return\n        /* \"Ownable.sol\":1911:2109  function transferOwnership(address newOwner) public virtual onlyOwner {... */\n    tag_38:\n      callvalue\n      dup1\n      iszero\n      tag_203\n      jumpi\n      0x00\n      dup1\n      revert\n    tag_203:\n      pop\n      tag_204\n      0x04\n      dup1\n      calldatasize\n      sub\n      dup2\n      add\n      swap1\n      tag_205\n      swap2\n      swap1\n      tag_71\n      jump\t// in\n    tag_205:\n      tag_206\n      jump\t// in\n    tag_204:\n      stop\n        /* \"WandInstruments.sol\":12595:12719  function setDaysUsedInFactors(uint256 numDays) public onlyOwner{  \r... */\n    tag_39:\n      callvalue\n      dup1\n      iszero\n      tag_207\n      jumpi\n      0x00\n      dup1\n      revert\n    tag_207:\n      pop\n      tag_208\n      0x04\n      dup1\n      calldatasize\n      sub\n      dup2\n      add\n      swap1\n      tag_209\n      swap2\n      swap1\n      tag_78\n      jump\t// in\n    tag_209:\n      tag_210\n      jump\t// in\n    tag_208:\n      stop\n        /* \"WandInstruments.sol\":10936:11210  function getBuyPrice() external view returns (uint256){\r... */\n    tag_49:\n        /* \"WandInstruments.sol\":10982:10989  uint256 */\n      0x00\n        /* \"WandInstruments.sol\":11119:11200  decMul18(this.getBackingPrice() , (1200000000000000000 + this.getGrowthFactor())) */\n      tag_212\n        /* \"WandInstruments.sol\":11128:11132  this */\n      address\n        /* \"WandInstruments.sol\":11128:11148  this.getBackingPrice */\n      0xffffffffffffffffffffffffffffffffffffffff\n      and\n      0x1f564a06\n        /* \"WandInstruments.sol\":11128:11150  this.getBackingPrice() */\n      mload(0x40)\n      dup2\n      0xffffffff\n      and\n      0xe0\n      shl\n      dup2\n      mstore\n      0x04\n      add\n      0x20\n      mload(0x40)\n      dup1\n      dup4\n      sub\n      dup2\n      dup7\n      dup1\n      extcodesize\n      iszero\n      dup1\n      iszero\n      tag_213\n      jumpi\n      0x00\n      dup1\n      revert\n    tag_213:\n      pop\n      gas\n      staticcall\n      iszero\n      dup1\n      iszero\n      tag_215\n      jumpi\n      returndatasize\n      0x00\n      dup1\n      returndatacopy\n      revert(0x00, returndatasize)\n    tag_215:\n      pop\n      pop\n      pop\n      pop\n      mload(0x40)\n      returndatasize\n      not(0x1f)\n      0x1f\n      dup3\n      add\n      and\n      dup3\n      add\n      dup1\n      0x40\n      mstore\n      pop\n      dup2\n      add\n      swap1\n      tag_216\n      swap2\n      swap1\n      tag_217\n      jump\t// in\n    tag_216:\n        /* \"WandInstruments.sol\":11176:11180  this */\n      address\n        /* \"WandInstruments.sol\":11176:11196  this.getGrowthFactor */\n      0xffffffffffffffffffffffffffffffffffffffff\n      and\n      0x93f7b711\n        /* \"WandInstruments.sol\":11176:11198  this.getGrowthFactor() */\n      mload(0x40)\n      dup2\n      0xffffffff\n      and\n      0xe0\n      shl\n      dup2\n      mstore\n      0x04\n      add\n      0x20\n      mload(0x40)\n      dup1\n      dup4\n      sub\n      dup2\n      dup7\n      dup1\n      extcodesize\n      iszero\n      dup1\n      iszero\n      tag_218\n      jumpi\n      0x00\n      dup1\n      revert\n    tag_218:\n      pop\n      gas\n      staticcall\n      iszero\n      dup1\n      iszero\n      tag_220\n      jumpi\n      returndatasize\n      0x00\n      dup1\n      returndatacopy\n      revert(0x00, returndatasize)\n    tag_220:\n      pop\n      pop\n      pop\n      pop\n      mload(0x40)\n      returndatasize\n      not(0x1f)\n      0x1f\n      dup3\n      add\n      and\n      dup3\n      add\n      dup1\n      0x40\n      mstore\n      pop\n      dup2\n      add\n      swap1\n      tag_221\n      swap2\n      swap1\n      tag_217\n      jump\t// in\n    tag_221:\n        /* \"WandInstruments.sol\":11154:11173  1200000000000000000 */\n      0x10a741a462780000\n        /* \"WandInstruments.sol\":11154:11198  1200000000000000000 + this.getGrowthFactor() */\n      tag_222\n      swap2\n      swap1\n      tag_223\n      jump\t// in\n    tag_222:\n        /* \"WandInstruments.sol\":11119:11127  decMul18 */\n      tag_224\n        /* \"WandInstruments.sol\":11119:11200  decMul18(this.getBackingPrice() , (1200000000000000000 + this.getGrowthFactor())) */\n      jump\t// in\n    tag_212:\n        /* \"WandInstruments.sol\":11112:11200  return decMul18(this.getBackingPrice() , (1200000000000000000 + this.getGrowthFactor())) */\n      swap1\n      pop\n        /* \"WandInstruments.sol\":10936:11210  function getBuyPrice() external view returns (uint256){\r... */\n      swap1\n      jump\t// out\n        /* \"WandInstruments.sol\":11771:12587  function Launch() public onlyOwner{\r... */\n    tag_54:\n        /* \"Ownable.sol\":1252:1264  _msgSender() */\n      tag_226\n        /* \"Ownable.sol\":1252:1262  _msgSender */\n      tag_227\n        /* \"Ownable.sol\":1252:1264  _msgSender() */\n      jump\t// in\n    tag_226:\n        /* \"Ownable.sol\":1241:1264  owner() == _msgSender() */\n      0xffffffffffffffffffffffffffffffffffffffff\n      and\n        /* \"Ownable.sol\":1241:1248  owner() */\n      tag_228\n        /* \"Ownable.sol\":1241:1246  owner */\n      tag_149\n        /* \"Ownable.sol\":1241:1248  owner() */\n      jump\t// in\n    tag_228:\n        /* \"Ownable.sol\":1241:1264  owner() == _msgSender() */\n      0xffffffffffffffffffffffffffffffffffffffff\n      and\n      eq\n        /* \"Ownable.sol\":1233:1301  require(owner() == _msgSender(), \"Ownable: caller is not the owner\") */\n      tag_229\n      jumpi\n      mload(0x40)\n      0x08c379a000000000000000000000000000000000000000000000000000000000\n      dup2\n      mstore\n      0x04\n      add\n      tag_230\n      swap1\n      tag_231\n      jump\t// in\n    tag_230:\n      mload(0x40)\n      dup1\n      swap2\n      sub\n      swap1\n      revert\n    tag_229:\n        /* \"WandInstruments.sol\":11831:11846  block.timestamp */\n      timestamp\n        /* \"WandInstruments.sol\":11816:11828  timeLaunched */\n      0x09\n        /* \"WandInstruments.sol\":11816:11846  timeLaunched = block.timestamp */\n      dup2\n      swap1\n      sstore\n      pop\n        /* \"WandInstruments.sol\":11877:11883  5 days */\n      0x069780\n        /* \"WandInstruments.sol\":11857:11874  daysInCalculation */\n      0x0a\n        /* \"WandInstruments.sol\":11857:11883  daysInCalculation = 5 days */\n      dup2\n      swap1\n      sstore\n      pop\n        /* \"WandInstruments.sol\":11930:11934  SPTR */\n      0x0c\n      0x00\n      swap1\n      sload\n      swap1\n      0x0100\n      exp\n      swap1\n      div\n      0xffffffffffffffffffffffffffffffffffffffff\n      and\n        /* \"WandInstruments.sol\":11930:11939  SPTR.mint */\n      0xffffffffffffffffffffffffffffffffffffffff\n      and\n      0x40c10f19\n        /* \"WandInstruments.sol\":11940:11982  0x617F2E2fD72FD9D5503197092aC168c91465E7f2 */\n      0x617f2e2fd72fd9d5503197092ac168c91465e7f2\n        /* \"WandInstruments.sol\":11984:12003  9411764706 * 10**12 */\n      0x01fe36793670c0c82000\n        /* \"WandInstruments.sol\":11930:12004  SPTR.mint(0x617F2E2fD72FD9D5503197092aC168c91465E7f2, 9411764706 * 10**12) */\n      mload(0x40)\n      dup4\n      0xffffffff\n      and\n      0xe0\n      shl\n      dup2\n      mstore\n      0x04\n      add\n      tag_233\n      swap3\n      swap2\n      swap1\n      tag_234\n      jump\t// in\n    tag_233:\n      0x00\n      mload(0x40)\n      dup1\n      dup4\n      sub\n      dup2\n      0x00\n      dup8\n      dup1\n      extcodesize\n      iszero\n      dup1\n      iszero\n      tag_235\n      jumpi\n      0x00\n      dup1\n      revert\n    tag_235:\n      pop\n      gas\n      call\n      iszero\n      dup1\n      iszero\n      tag_237\n      jumpi\n      returndatasize\n      0x00\n      dup1\n      returndatacopy\n      revert(0x00, returndatasize)\n    tag_237:\n      pop\n      pop\n      pop\n      pop\n        /* \"WandInstruments.sol\":12024:12028  SPTR */\n      0x0c\n      0x00\n      swap1\n      sload\n      swap1\n      0x0100\n      exp\n      swap1\n      div\n      0xffffffffffffffffffffffffffffffffffffffff\n      and\n        /* \"WandInstruments.sol\":12024:12033  SPTR.mint */\n      0xffffffffffffffffffffffffffffffffffffffff\n      and\n      0x40c10f19\n        /* \"WandInstruments.sol\":12034:12076  0x17F6AD8Ef982297579C203069C1DbfFE4348c372 */\n      0x17f6ad8ef982297579c203069c1dbffe4348c372\n        /* \"WandInstruments.sol\":12078:12097  4470588235 * 10**13 */\n      0x097782bfbf68ab74e000\n        /* \"WandInstruments.sol\":12024:12098  SPTR.mint(0x17F6AD8Ef982297579C203069C1DbfFE4348c372, 4470588235 * 10**13) */\n      mload(0x40)\n      dup4\n      0xffffffff\n      and\n      0xe0\n      shl\n      dup2\n      mstore\n      0x04\n      add\n      tag_238\n      swap3\n      swap2\n      swap1\n      tag_239\n      jump\t// in\n    tag_238:\n      0x00\n      mload(0x40)\n      dup1\n      dup4\n      sub\n      dup2\n      0x00\n      dup8\n      dup1\n      extcodesize\n      iszero\n      dup1\n      iszero\n      tag_240\n      jumpi\n      0x00\n      dup1\n      revert\n    tag_240:\n      pop\n      gas\n      call\n      iszero\n      dup1\n      iszero\n      tag_242\n      jumpi\n      returndatasize\n      0x00\n      dup1\n      returndatacopy\n      revert(0x00, returndatasize)\n    tag_242:\n      pop\n      pop\n      pop\n      pop\n        /* \"WandInstruments.sol\":12118:12122  SPTR */\n      0x0c\n      0x00\n      swap1\n      sload\n      swap1\n      0x0100\n      exp\n      swap1\n      div\n      0xffffffffffffffffffffffffffffffffffffffff\n      and\n        /* \"WandInstruments.sol\":12118:12127  SPTR.mint */\n      0xffffffffffffffffffffffffffffffffffffffff\n      and\n      0x40c10f19\n        /* \"WandInstruments.sol\":12128:12170  0x5c6B0f7Bf3E7ce046039Bd8FABdfD3f9F5021678 */\n      0x5c6b0f7bf3e7ce046039bd8fabdfd3f9f5021678\n        /* \"WandInstruments.sol\":12172:12191  4705882353 * 10**13 */\n      0x09f7105e1033c3e8a000\n        /* \"WandInstruments.sol\":12118:12192  SPTR.mint(0x5c6B0f7Bf3E7ce046039Bd8FABdfD3f9F5021678, 4705882353 * 10**13) */\n      mload(0x40)\n      dup4\n      0xffffffff\n      and\n      0xe0\n      shl\n      dup2\n      mstore\n      0x04\n      add\n      tag_243\n      swap3\n      swap2\n      swap1\n      tag_244\n      jump\t// in\n    tag_243:\n      0x00\n      mload(0x40)\n      dup1\n      dup4\n      sub\n      dup2\n      0x00\n      dup8\n      dup1\n      extcodesize\n      iszero\n      dup1\n      iszero\n      tag_245\n      jumpi\n      0x00\n      dup1\n      revert\n    tag_245:\n      pop\n      gas\n      call\n      iszero\n      dup1\n      iszero\n      tag_247\n      jumpi\n      returndatasize\n      0x00\n      dup1\n      returndatacopy\n      revert(0x00, returndatasize)\n    tag_247:\n      pop\n      pop\n      pop\n      pop\n        /* \"WandInstruments.sol\":12214:12218  WAND */\n      0x0d\n      0x00\n      swap1\n      sload\n      swap1\n      0x0100\n      exp\n      swap1\n      div\n      0xffffffffffffffffffffffffffffffffffffffff\n      and\n        /* \"WandInstruments.sol\":12214:12223  WAND.mint */\n      0xffffffffffffffffffffffffffffffffffffffff\n      and\n      0x40c10f19\n        /* \"WandInstruments.sol\":12232:12236  this */\n      address\n        /* \"WandInstruments.sol\":12239:12308  (9411764706 * 10**12) + (4470588235 * 10**13) + (4705882353 * 10**13) */\n      0x156cc997060d3025a000\n        /* \"WandInstruments.sol\":12214:12309  WAND.mint(address(this), (9411764706 * 10**12) + (4470588235 * 10**13) + (4705882353 * 10**13)) */\n      mload(0x40)\n      dup4\n      0xffffffff\n      and\n      0xe0\n      shl\n      dup2\n      mstore\n      0x04\n      add\n      tag_248\n      swap3\n      swap2\n      swap1\n      tag_249\n      jump\t// in\n    tag_248:\n      0x00\n      mload(0x40)\n      dup1\n      dup4\n      sub\n      dup2\n      0x00\n      dup8\n      dup1\n      extcodesize\n      iszero\n      dup1\n      iszero\n      tag_250\n      jumpi\n      0x00\n      dup1\n      revert\n    tag_250:\n      pop\n      gas\n      call\n      iszero\n      dup1\n      iszero\n      tag_252\n      jumpi\n      returndatasize\n      0x00\n      dup1\n      returndatacopy\n      revert(0x00, returndatasize)\n    tag_252:\n      pop\n      pop\n      pop\n      pop\n        /* \"WandInstruments.sol\":12353:12422  (9411764706 * 10**12) + (4470588235 * 10**13) + (4705882353 * 10**13) */\n      0x156cc997060d3025a000\n        /* \"WandInstruments.sol\":12330:12347  tokensBoughtXDays */\n      0x10\n        /* \"WandInstruments.sol\":12330:12350  tokensBoughtXDays[0] */\n      0x00\n        /* \"WandInstruments.sol\":12348:12349  0 */\n      dup1\n        /* \"WandInstruments.sol\":12330:12350  tokensBoughtXDays[0] */\n      dup2\n      mstore\n      0x20\n      add\n      swap1\n      dup2\n      mstore\n      0x20\n      add\n      0x00\n      keccak256\n        /* \"WandInstruments.sol\":12330:12422  tokensBoughtXDays[0] = (9411764706 * 10**12) + (4470588235 * 10**13) + (4705882353 * 10**13) */\n      dup2\n      swap1\n      sstore\n      pop\n        /* \"WandInstruments.sol\":12461:12530  (9411764706 * 10**12) + (4470588235 * 10**13) + (4705882353 * 10**13) */\n      0x156cc997060d3025a000\n        /* \"WandInstruments.sol\":12433:12455  circulatingSupplyXDays */\n      0x12\n        /* \"WandInstruments.sol\":12433:12458  circulatingSupplyXDays[0] */\n      0x00\n        /* \"WandInstruments.sol\":12456:12457  0 */\n      dup1\n        /* \"WandInstruments.sol\":12433:12458  circulatingSupplyXDays[0] */\n      dup2\n      mstore\n      0x20\n      add\n      swap1\n      dup2\n      mstore\n      0x20\n      add\n      0x00\n      keccak256\n        /* \"WandInstruments.sol\":12433:12530  circulatingSupplyXDays[0] = (9411764706 * 10**12) + (4470588235 * 10**13) + (4705882353 * 10**13) */\n      dup2\n      swap1\n      sstore\n      pop\n        /* \"WandInstruments.sol\":12561:12567  570000 */\n      0x08b290\n        /* \"WandInstruments.sol\":12543:12558  sptrTreasuryBal */\n      0x08\n        /* \"WandInstruments.sol\":12543:12567  sptrTreasuryBal = 570000 */\n      dup2\n      swap1\n      sstore\n      pop\n        /* \"WandInstruments.sol\":11771:12587  function Launch() public onlyOwner{\r... */\n      jump\t// out\n        /* \"WandInstruments.sol\":456:487  address public riskTreasuryAddr */\n    tag_57:\n      0x06\n      0x00\n      swap1\n      sload\n      swap1\n      0x0100\n      exp\n      swap1\n      div\n      0xffffffffffffffffffffffffffffffffffffffff\n      and\n      dup2\n      jump\t// out\n        /* \"WandInstruments.sol\":10042:10700  function getSellFactor() external view returns (uint256){\r... */\n    tag_62:\n        /* \"WandInstruments.sol\":10090:10097  uint256 */\n      0x00\n        /* \"WandInstruments.sol\":10243:10254  uint256 _sF */\n      dup1\n        /* \"WandInstruments.sol\":10519:10575  decDiv18(this.getTokensSoldXDays(),getCircSupplyXDays()) */\n      tag_254\n        /* \"WandInstruments.sol\":10528:10532  this */\n      address\n        /* \"WandInstruments.sol\":10528:10551  this.getTokensSoldXDays */\n      0xffffffffffffffffffffffffffffffffffffffff\n      and\n      0xd82eddf2\n        /* \"WandInstruments.sol\":10528:10553  this.getTokensSoldXDays() */\n      mload(0x40)\n      dup2\n      0xffffffff\n      and\n      0xe0\n      shl\n      dup2\n      mstore\n      0x04\n      add\n      0x20\n      mload(0x40)\n      dup1\n      dup4\n      sub\n      dup2\n      dup7\n      dup1\n      extcodesize\n      iszero\n      dup1\n      iszero\n      tag_255\n      jumpi\n      0x00\n      dup1\n      revert\n    tag_255:\n      pop\n      gas\n      staticcall\n      iszero\n      dup1\n      iszero\n      tag_257\n      jumpi\n      returndatasize\n      0x00\n      dup1\n      returndatacopy\n      revert(0x00, returndatasize)\n    tag_257:\n      pop\n      pop\n      pop\n      pop\n      mload(0x40)\n      returndatasize\n      not(0x1f)\n      0x1f\n      dup3\n      add\n      and\n      dup3\n      add\n      dup1\n      0x40\n      mstore\n      pop\n      dup2\n      add\n      swap1\n      tag_258\n      swap2\n      swap1\n      tag_217\n      jump\t// in\n    tag_258:\n        /* \"WandInstruments.sol\":10554:10574  getCircSupplyXDays() */\n      tag_259\n        /* \"WandInstruments.sol\":10554:10572  getCircSupplyXDays */\n      tag_66\n        /* \"WandInstruments.sol\":10554:10574  getCircSupplyXDays() */\n      jump\t// in\n    tag_259:\n        /* \"WandInstruments.sol\":10519:10527  decDiv18 */\n      tag_260\n        /* \"WandInstruments.sol\":10519:10575  decDiv18(this.getTokensSoldXDays(),getCircSupplyXDays()) */\n      jump\t// in\n    tag_254:\n        /* \"WandInstruments.sol\":10513:10575  _sF = decDiv18(this.getTokensSoldXDays(),getCircSupplyXDays()) */\n      swap1\n      pop\n        /* \"WandInstruments.sol\":10595:10613  300000000000000000 */\n      0x0429d069189e0000\n        /* \"WandInstruments.sol\":10589:10592  _sF */\n      dup2\n        /* \"WandInstruments.sol\":10589:10613  _sF > 300000000000000000 */\n      gt\n        /* \"WandInstruments.sol\":10585:10672  if (_sF > 300000000000000000)\r... */\n      iszero\n      tag_261\n      jumpi\n        /* \"WandInstruments.sol\":10643:10661  300000000000000000 */\n      0x0429d069189e0000\n        /* \"WandInstruments.sol\":10637:10661  _sF = 300000000000000000 */\n      swap1\n      pop\n        /* \"WandInstruments.sol\":10585:10672  if (_sF > 300000000000000000)\r... */\n    tag_261:\n        /* \"WandInstruments.sol\":10688:10691  _sF */\n      dup1\n        /* \"WandInstruments.sol\":10681:10691  return _sF */\n      swap2\n      pop\n      pop\n        /* \"WandInstruments.sol\":10042:10700  function getSellFactor() external view returns (uint256){\r... */\n      swap1\n      jump\t// out\n        /* \"WandInstruments.sol\":8529:9369  function getCircSupplyXDays() public view returns (uint256){\r... */\n    tag_66:\n        /* \"WandInstruments.sol\":8580:8587  uint256 */\n      0x00\n        /* \"WandInstruments.sol\":8593:8617  uint256 daySinceLaunched */\n      dup1\n        /* \"WandInstruments.sol\":8655:8660  86400 */\n      0x015180\n        /* \"WandInstruments.sol\":8639:8651  timeLaunched */\n      sload(0x09)\n        /* \"WandInstruments.sol\":8621:8636  block.timestamp */\n      timestamp\n        /* \"WandInstruments.sol\":8621:8651  block.timestamp - timeLaunched */\n      tag_263\n      swap2\n      swap1\n      tag_264\n      jump\t// in\n    tag_263:\n        /* \"WandInstruments.sol\":8620:8660  (block.timestamp - timeLaunched) / 86400 */\n      tag_265\n      swap2\n      swap1\n      tag_266\n      jump\t// in\n    tag_265:\n        /* \"WandInstruments.sol\":8593:8660  uint256 daySinceLaunched = (block.timestamp - timeLaunched) / 86400 */\n      swap1\n      pop\n        /* \"WandInstruments.sol\":8671:8694  uint256 CircSupplyXDays */\n      0x00\n        /* \"WandInstruments.sol\":8709:8724  uint256 numdays */\n      dup1\n        /* \"WandInstruments.sol\":8745:8750  86400 */\n      0x015180\n        /* \"WandInstruments.sol\":8727:8744  daysInCalculation */\n      sload(0x0a)\n        /* \"WandInstruments.sol\":8727:8750  daysInCalculation/86400 */\n      tag_267\n      swap2\n      swap1\n      tag_266\n      jump\t// in\n    tag_267:\n        /* \"WandInstruments.sol\":8709:8750  uint256 numdays = daysInCalculation/86400 */\n      swap1\n      pop\n        /* \"WandInstruments.sol\":8761:8770  uint256 d */\n      0x00\n        /* \"WandInstruments.sol\":8814:8815  0 */\n      dup1\n        /* \"WandInstruments.sol\":8795:8811  daySinceLaunched */\n      dup5\n        /* \"WandInstruments.sol\":8795:8815  daySinceLaunched ==0 */\n      eq\n        /* \"WandInstruments.sol\":8791:9325  if (daySinceLaunched ==0) {\r... */\n      iszero\n      tag_268\n      jumpi\n        /* \"WandInstruments.sol\":8839:8861  circulatingSupplyXDays */\n      0x12\n        /* \"WandInstruments.sol\":8839:8864  circulatingSupplyXDays[0] */\n      0x00\n        /* \"WandInstruments.sol\":8862:8863  0 */\n      dup1\n        /* \"WandInstruments.sol\":8839:8864  circulatingSupplyXDays[0] */\n      dup2\n      mstore\n      0x20\n      add\n      swap1\n      dup2\n      mstore\n      0x20\n      add\n      0x00\n      keccak256\n      sload\n        /* \"WandInstruments.sol\":8832:8864  return circulatingSupplyXDays[0] */\n      swap5\n      pop\n      pop\n      pop\n      pop\n      pop\n      jump(tag_262)\n        /* \"WandInstruments.sol\":8791:9325  if (daySinceLaunched ==0) {\r... */\n    tag_268:\n        /* \"WandInstruments.sol\":8914:8921  numdays */\n      dup2\n        /* \"WandInstruments.sol\":8895:8911  daySinceLaunched */\n      dup5\n        /* \"WandInstruments.sol\":8895:8921  daySinceLaunched < numdays */\n      lt\n        /* \"WandInstruments.sol\":8891:9325  if (daySinceLaunched < numdays)\r... */\n      iszero\n      tag_270\n      jumpi\n        /* \"WandInstruments.sol\":8956:8957  0 */\n      0x00\n        /* \"WandInstruments.sol\":8952:8957  d = 0 */\n      swap1\n      pop\n        /* \"WandInstruments.sol\":8947:9061  for (d = 0; d < daySinceLaunched; d++) {\r... */\n    tag_271:\n        /* \"WandInstruments.sol\":8963:8979  daySinceLaunched */\n      dup4\n        /* \"WandInstruments.sol\":8959:8960  d */\n      dup2\n        /* \"WandInstruments.sol\":8959:8979  d < daySinceLaunched */\n      lt\n        /* \"WandInstruments.sol\":8947:9061  for (d = 0; d < daySinceLaunched; d++) {\r... */\n      iszero\n      tag_272\n      jumpi\n        /* \"WandInstruments.sol\":9020:9042  circulatingSupplyXDays */\n      0x12\n        /* \"WandInstruments.sol\":9020:9045  circulatingSupplyXDays[d] */\n      0x00\n        /* \"WandInstruments.sol\":9043:9044  d */\n      dup3\n        /* \"WandInstruments.sol\":9020:9045  circulatingSupplyXDays[d] */\n      dup2\n      mstore\n      0x20\n      add\n      swap1\n      dup2\n      mstore\n      0x20\n      add\n      0x00\n      keccak256\n      sload\n        /* \"WandInstruments.sol\":9001:9045  CircSupplyXDays += circulatingSupplyXDays[d] */\n      dup4\n      tag_274\n      swap2\n      swap1\n      tag_223\n      jump\t// in\n    tag_274:\n      swap3\n      pop\n        /* \"WandInstruments.sol\":8981:8984  d++ */\n      dup1\n      dup1\n      tag_275\n      swap1\n      tag_276\n      jump\t// in\n    tag_275:\n      swap2\n      pop\n      pop\n        /* \"WandInstruments.sol\":8947:9061  for (d = 0; d < daySinceLaunched; d++) {\r... */\n      jump(tag_271)\n    tag_272:\n        /* \"WandInstruments.sol\":9082:9097  CircSupplyXDays */\n      dup3\n        /* \"WandInstruments.sol\":9075:9097  return CircSupplyXDays */\n      swap5\n      pop\n      pop\n      pop\n      pop\n      pop\n      jump(tag_262)\n        /* \"WandInstruments.sol\":8891:9325  if (daySinceLaunched < numdays)\r... */\n    tag_270:\n        /* \"WandInstruments.sol\":9166:9173  numdays */\n      dup2\n        /* \"WandInstruments.sol\":9147:9163  daySinceLaunched */\n      dup5\n        /* \"WandInstruments.sol\":9147:9173  daySinceLaunched - numdays */\n      tag_281\n      swap2\n      swap1\n      tag_264\n      jump\t// in\n    tag_281:\n        /* \"WandInstruments.sol\":9143:9173  d = daySinceLaunched - numdays */\n      swap1\n      pop\n        /* \"WandInstruments.sol\":9138:9277  for (d = daySinceLaunched - numdays; d < daySinceLaunched; d++) {\r... */\n    tag_278:\n        /* \"WandInstruments.sol\":9179:9195  daySinceLaunched */\n      dup4\n        /* \"WandInstruments.sol\":9175:9176  d */\n      dup2\n        /* \"WandInstruments.sol\":9175:9195  d < daySinceLaunched */\n      lt\n        /* \"WandInstruments.sol\":9138:9277  for (d = daySinceLaunched - numdays; d < daySinceLaunched; d++) {\r... */\n      iszero\n      tag_279\n      jumpi\n        /* \"WandInstruments.sol\":9236:9258  circulatingSupplyXDays */\n      0x12\n        /* \"WandInstruments.sol\":9236:9261  circulatingSupplyXDays[d] */\n      0x00\n        /* \"WandInstruments.sol\":9259:9260  d */\n      dup3\n        /* \"WandInstruments.sol\":9236:9261  circulatingSupplyXDays[d] */\n      dup2\n      mstore\n      0x20\n      add\n      swap1\n      dup2\n      mstore\n      0x20\n      add\n      0x00\n      keccak256\n      sload\n        /* \"WandInstruments.sol\":9217:9261  CircSupplyXDays += circulatingSupplyXDays[d] */\n      dup4\n      tag_282\n      swap2\n      swap1\n      tag_223\n      jump\t// in\n    tag_282:\n      swap3\n      pop\n        /* \"WandInstruments.sol\":9197:9200  d++ */\n      dup1\n      dup1\n      tag_283\n      swap1\n      tag_276\n      jump\t// in\n    tag_283:\n      swap2\n      pop\n      pop\n        /* \"WandInstruments.sol\":9138:9277  for (d = daySinceLaunched - numdays; d < daySinceLaunched; d++) {\r... */\n      jump(tag_278)\n    tag_279:\n        /* \"WandInstruments.sol\":9298:9313  CircSupplyXDays */\n      dup3\n        /* \"WandInstruments.sol\":9291:9313  return CircSupplyXDays */\n      swap5\n      pop\n      pop\n      pop\n      pop\n      pop\n        /* \"WandInstruments.sol\":8529:9369  function getCircSupplyXDays() public view returns (uint256){\r... */\n    tag_262:\n      swap1\n      jump\t// out\n        /* \"WandInstruments.sol\":1735:1795  mapping(address => lockedamounts) public withheldWithdrawals */\n    tag_72:\n      mstore(0x20, 0x14)\n      dup1\n      0x00\n      mstore\n      keccak256(0x00, 0x40)\n      0x00\n      swap2\n      pop\n      swap1\n      pop\n      dup1\n      0x00\n      add\n      sload\n      swap1\n      dup1\n      0x01\n      add\n      sload\n      swap1\n      pop\n      dup3\n      jump\t// out\n        /* \"WandInstruments.sol\":1318:1368  mapping(uint256 => uint256) public tokensSoldXDays */\n    tag_79:\n      mstore(0x20, 0x11)\n      dup1\n      0x00\n      mstore\n      keccak256(0x00, 0x40)\n      0x00\n      swap2\n      pop\n      swap1\n      pop\n      sload\n      dup2\n      jump\t// out\n        /* \"WandInstruments.sol\":13213:13715  function testUpdatetimeLockedminus(uint256 amt) public  {\r... */\n    tag_84:\n        /* \"WandInstruments.sol\":13294:13313  withheldWithdrawals */\n      0x14\n        /* \"WandInstruments.sol\":13294:13325  withheldWithdrawals[msg.sender] */\n      0x00\n        /* \"WandInstruments.sol\":13314:13324  msg.sender */\n      caller\n        /* \"WandInstruments.sol\":13294:13325  withheldWithdrawals[msg.sender] */\n      0xffffffffffffffffffffffffffffffffffffffff\n      and\n      0xffffffffffffffffffffffffffffffffffffffff\n      and\n      dup2\n      mstore\n      0x20\n      add\n      swap1\n      dup2\n      mstore\n      0x20\n      add\n      0x00\n      keccak256\n        /* \"WandInstruments.sol\":13294:13333  withheldWithdrawals[msg.sender].amounts */\n      0x01\n      add\n      sload\n        /* \"WandInstruments.sol\":13288:13291  amt */\n      dup2\n        /* \"WandInstruments.sol\":13288:13333  amt < withheldWithdrawals[msg.sender].amounts */\n      lt\n        /* \"WandInstruments.sol\":13280:13374  require(amt < withheldWithdrawals[msg.sender].amounts, \"You dont have that much to withdraw!\") */\n      tag_285\n      jumpi\n      mload(0x40)\n      0x08c379a000000000000000000000000000000000000000000000000000000000\n      dup2\n      mstore\n      0x04\n      add\n      tag_286\n      swap1\n      tag_287\n      jump\t// in\n    tag_286:\n      mload(0x40)\n      dup1\n      swap2\n      sub\n      swap1\n      revert\n    tag_285:\n        /* \"WandInstruments.sol\":13579:13582  amt */\n      dup1\n        /* \"WandInstruments.sol\":13536:13555  withheldWithdrawals */\n      0x14\n        /* \"WandInstruments.sol\":13536:13567  withheldWithdrawals[msg.sender] */\n      0x00\n        /* \"WandInstruments.sol\":13556:13566  msg.sender */\n      caller\n        /* \"WandInstruments.sol\":13536:13567  withheldWithdrawals[msg.sender] */\n      0xffffffffffffffffffffffffffffffffffffffff\n      and\n      0xffffffffffffffffffffffffffffffffffffffff\n      and\n      dup2\n      mstore\n      0x20\n      add\n      swap1\n      dup2\n      mstore\n      0x20\n      add\n      0x00\n      keccak256\n        /* \"WandInstruments.sol\":13536:13575  withheldWithdrawals[msg.sender].amounts */\n      0x01\n      add\n      0x00\n        /* \"WandInstruments.sol\":13536:13582  withheldWithdrawals[msg.sender].amounts -= amt */\n      dup3\n      dup3\n      sload\n      tag_288\n      swap2\n      swap1\n      tag_264\n      jump\t// in\n    tag_288:\n      swap3\n      pop\n      pop\n      dup2\n      swap1\n      sstore\n      pop\n        /* \"WandInstruments.sol\":13639:13640  0 */\n      0x00\n        /* \"WandInstruments.sol\":13597:13616  withheldWithdrawals */\n      0x14\n        /* \"WandInstruments.sol\":13597:13628  withheldWithdrawals[msg.sender] */\n      0x00\n        /* \"WandInstruments.sol\":13617:13627  msg.sender */\n      caller\n        /* \"WandInstruments.sol\":13597:13628  withheldWithdrawals[msg.sender] */\n      0xffffffffffffffffffffffffffffffffffffffff\n      and\n      0xffffffffffffffffffffffffffffffffffffffff\n      and\n      dup2\n      mstore\n      0x20\n      add\n      swap1\n      dup2\n      mstore\n      0x20\n      add\n      0x00\n      keccak256\n        /* \"WandInstruments.sol\":13597:13636  withheldWithdrawals[msg.sender].amounts */\n      0x01\n      add\n      sload\n        /* \"WandInstruments.sol\":13597:13640  withheldWithdrawals[msg.sender].amounts ==0 */\n      eq\n        /* \"WandInstruments.sol\":13593:13708  if (withheldWithdrawals[msg.sender].amounts ==0 ){\r... */\n      iszero\n      tag_289\n      jumpi\n        /* \"WandInstruments.sol\":13664:13683  withheldWithdrawals */\n      0x14\n        /* \"WandInstruments.sol\":13664:13695  withheldWithdrawals[msg.sender] */\n      0x00\n        /* \"WandInstruments.sol\":13684:13694  msg.sender */\n      caller\n        /* \"WandInstruments.sol\":13664:13695  withheldWithdrawals[msg.sender] */\n      0xffffffffffffffffffffffffffffffffffffffff\n      and\n      0xffffffffffffffffffffffffffffffffffffffff\n      and\n      dup2\n      mstore\n      0x20\n      add\n      swap1\n      dup2\n      mstore\n      0x20\n      add\n      0x00\n      keccak256\n      0x00\n        /* \"WandInstruments.sol\":13657:13696  delete(withheldWithdrawals[msg.sender]) */\n      dup1\n      dup3\n      add\n      0x00\n      swap1\n      sstore\n      0x01\n      dup3\n      add\n      0x00\n      swap1\n      sstore\n      pop\n      pop\n        /* \"WandInstruments.sol\":13593:13708  if (withheldWithdrawals[msg.sender].amounts ==0 ){\r... */\n    tag_289:\n        /* \"WandInstruments.sol\":13213:13715  function testUpdatetimeLockedminus(uint256 amt) public  {\r... */\n      pop\n      jump\t// out\n        /* \"WandInstruments.sol\":1375:1432  mapping(uint256 => uint256) public circulatingSupplyXDays */\n    tag_88:\n      mstore(0x20, 0x12)\n      dup1\n      0x00\n      mstore\n      keccak256(0x00, 0x40)\n      0x00\n      swap2\n      pop\n      swap1\n      pop\n      sload\n      dup2\n      jump\t// out\n        /* \"WandInstruments.sol\":5970:6717  function transformScepterToBaton(uint256 amountSCPtoSwap) public payable{\r... */\n    tag_92:\n        /* \"WandInstruments.sol\":6114:6140  uint256 trader_tsc_balance */\n      0x00\n        /* \"WandInstruments.sol\":6143:6147  SPTR */\n      0x0c\n      0x00\n      swap1\n      sload\n      swap1\n      0x0100\n      exp\n      swap1\n      div\n      0xffffffffffffffffffffffffffffffffffffffff\n      and\n        /* \"WandInstruments.sol\":6143:6157  SPTR.balanceOf */\n      0xffffffffffffffffffffffffffffffffffffffff\n      and\n      0x70a08231\n        /* \"WandInstruments.sol\":6158:6168  msg.sender */\n      caller\n        /* \"WandInstruments.sol\":6143:6169  SPTR.balanceOf(msg.sender) */\n      mload(0x40)\n      dup3\n      0xffffffff\n      and\n      0xe0\n      shl\n      dup2\n      mstore\n      0x04\n      add\n      tag_291\n      swap2\n      swap1\n      tag_59\n      jump\t// in\n    tag_291:\n      0x20\n      mload(0x40)\n      dup1\n      dup4\n      sub\n      dup2\n      dup7\n      dup1\n      extcodesize\n      iszero\n      dup1\n      iszero\n      tag_292\n      jumpi\n      0x00\n      dup1\n      revert\n    tag_292:\n      pop\n      gas\n      staticcall\n      iszero\n      dup1\n      iszero\n      tag_294\n      jumpi\n      returndatasize\n      0x00\n      dup1\n      returndatacopy\n      revert(0x00, returndatasize)\n    tag_294:\n      pop\n      pop\n      pop\n      pop\n      mload(0x40)\n      returndatasize\n      not(0x1f)\n      0x1f\n      dup3\n      add\n      and\n      dup3\n      add\n      dup1\n      0x40\n      mstore\n      pop\n      dup2\n      add\n      swap1\n      tag_295\n      swap2\n      swap1\n      tag_217\n      jump\t// in\n    tag_295:\n        /* \"WandInstruments.sol\":6114:6169  uint256 trader_tsc_balance = SPTR.balanceOf(msg.sender) */\n      swap1\n      pop\n        /* \"WandInstruments.sol\":6209:6224  amountSCPtoSwap */\n      dup2\n        /* \"WandInstruments.sol\":6188:6206  trader_tsc_balance */\n      dup2\n        /* \"WandInstruments.sol\":6188:6224  trader_tsc_balance > amountSCPtoSwap */\n      gt\n        /* \"WandInstruments.sol\":6180:6255  require(trader_tsc_balance > amountSCPtoSwap, \"You dont have that amount!\") */\n      tag_296\n      jumpi\n      mload(0x40)\n      0x08c379a000000000000000000000000000000000000000000000000000000000\n      dup2\n      mstore\n      0x04\n      add\n      tag_297\n      swap1\n      tag_298\n      jump\t// in\n    tag_297:\n      mload(0x40)\n      dup1\n      swap2\n      sub\n      swap1\n      revert\n    tag_296:\n        /* \"WandInstruments.sol\":6309:6376  _safeTransferFrom(SPTR, msg.sender, address(this), amountSCPtoSwap) */\n      tag_299\n        /* \"WandInstruments.sol\":6327:6331  SPTR */\n      0x0c\n      0x00\n      swap1\n      sload\n      swap1\n      0x0100\n      exp\n      swap1\n      div\n      0xffffffffffffffffffffffffffffffffffffffff\n      and\n        /* \"WandInstruments.sol\":6333:6343  msg.sender */\n      caller\n        /* \"WandInstruments.sol\":6353:6357  this */\n      address\n        /* \"WandInstruments.sol\":6360:6375  amountSCPtoSwap */\n      dup6\n        /* \"WandInstruments.sol\":6309:6326  _safeTransferFrom */\n      tag_300\n        /* \"WandInstruments.sol\":6309:6376  _safeTransferFrom(SPTR, msg.sender, address(this), amountSCPtoSwap) */\n      jump\t// in\n    tag_299:\n        /* \"WandInstruments.sol\":6437:6453  uint256 dInArray */\n      0x00\n        /* \"WandInstruments.sol\":6487:6492  86400 */\n      0x015180\n        /* \"WandInstruments.sol\":6473:6485  timeLaunched */\n      sload(0x09)\n        /* \"WandInstruments.sol\":6456:6471  block.timestamp */\n      timestamp\n        /* \"WandInstruments.sol\":6456:6485  block.timestamp- timeLaunched */\n      tag_301\n      swap2\n      swap1\n      tag_264\n      jump\t// in\n    tag_301:\n        /* \"WandInstruments.sol\":6455:6492  (block.timestamp- timeLaunched)/86400 */\n      tag_302\n      swap2\n      swap1\n      tag_266\n      jump\t// in\n    tag_302:\n        /* \"WandInstruments.sol\":6437:6492  uint256 dInArray =(block.timestamp- timeLaunched)/86400 */\n      swap1\n      pop\n        /* \"WandInstruments.sol\":6533:6548  amountSCPtoSwap */\n      dup3\n        /* \"WandInstruments.sol\":6504:6519  tokensSoldXDays */\n      0x11\n        /* \"WandInstruments.sol\":6504:6529  tokensSoldXDays[dInArray] */\n      0x00\n        /* \"WandInstruments.sol\":6520:6528  dInArray */\n      dup4\n        /* \"WandInstruments.sol\":6504:6529  tokensSoldXDays[dInArray] */\n      dup2\n      mstore\n      0x20\n      add\n      swap1\n      dup2\n      mstore\n      0x20\n      add\n      0x00\n      keccak256\n      0x00\n        /* \"WandInstruments.sol\":6504:6548  tokensSoldXDays[dInArray] += amountSCPtoSwap */\n      dup3\n      dup3\n      sload\n      tag_303\n      swap2\n      swap1\n      tag_223\n      jump\t// in\n    tag_303:\n      swap3\n      pop\n      pop\n      dup2\n      swap1\n      sstore\n      pop\n        /* \"WandInstruments.sol\":6595:6610  amountSCPtoSwap */\n      dup3\n        /* \"WandInstruments.sol\":6559:6581  circulatingSupplyXDays */\n      0x12\n        /* \"WandInstruments.sol\":6559:6591  circulatingSupplyXDays[dInArray] */\n      0x00\n        /* \"WandInstruments.sol\":6582:6590  dInArray */\n      dup4\n        /* \"WandInstruments.sol\":6559:6591  circulatingSupplyXDays[dInArray] */\n      dup2\n      mstore\n      0x20\n      add\n      swap1\n      dup2\n      mstore\n      0x20\n      add\n      0x00\n      keccak256\n      0x00\n        /* \"WandInstruments.sol\":6559:6610  circulatingSupplyXDays[dInArray] -= amountSCPtoSwap */\n      dup3\n      dup3\n      sload\n      tag_304\n      swap2\n      swap1\n      tag_264\n      jump\t// in\n    tag_304:\n      swap3\n      pop\n      pop\n      dup2\n      swap1\n      sstore\n      pop\n        /* \"WandInstruments.sol\":6042:6717  {\r... */\n      pop\n      pop\n        /* \"WandInstruments.sol\":5970:6717  function transformScepterToBaton(uint256 amountSCPtoSwap) public payable{\r... */\n      pop\n      jump\t// out\n        /* \"WandInstruments.sol\":10708:10928  function getBackingPrice() external view returns (uint256){\r... */\n    tag_95:\n        /* \"WandInstruments.sol\":10758:10765  uint256 */\n      0x00\n        /* \"WandInstruments.sol\":10865:10920  decDiv18(sptrTreasuryBal * DECIMALS,SPTR.totalSupply()) */\n      tag_306\n        /* \"WandInstruments.sol\":237:243  10**18 */\n      0x0de0b6b3a7640000\n        /* \"WandInstruments.sol\":10874:10889  sptrTreasuryBal */\n      sload(0x08)\n        /* \"WandInstruments.sol\":10874:10900  sptrTreasuryBal * DECIMALS */\n      tag_307\n      swap2\n      swap1\n      tag_308\n      jump\t// in\n    tag_307:\n        /* \"WandInstruments.sol\":10901:10905  SPTR */\n      0x0c\n      0x00\n      swap1\n      sload\n      swap1\n      0x0100\n      exp\n      swap1\n      div\n      0xffffffffffffffffffffffffffffffffffffffff\n      and\n        /* \"WandInstruments.sol\":10901:10917  SPTR.totalSupply */\n      0xffffffffffffffffffffffffffffffffffffffff\n      and\n      0x18160ddd\n        /* \"WandInstruments.sol\":10901:10919  SPTR.totalSupply() */\n      mload(0x40)\n      dup2\n      0xffffffff\n      and\n      0xe0\n      shl\n      dup2\n      mstore\n      0x04\n      add\n      0x20\n      mload(0x40)\n      dup1\n      dup4\n      sub\n      dup2\n      dup7\n      dup1\n      extcodesize\n      iszero\n      dup1\n      iszero\n      tag_309\n      jumpi\n      0x00\n      dup1\n      revert\n    tag_309:\n      pop\n      gas\n      staticcall\n      iszero\n      dup1\n      iszero\n      tag_311\n      jumpi\n      returndatasize\n      0x00\n      dup1\n      returndatacopy\n      revert(0x00, returndatasize)\n    tag_311:\n      pop\n      pop\n      pop\n      pop\n      mload(0x40)\n      returndatasize\n      not(0x1f)\n      0x1f\n      dup3\n      add\n      and\n      dup3\n      add\n      dup1\n      0x40\n      mstore\n      pop\n      dup2\n      add\n      swap1\n      tag_312\n      swap2\n      swap1\n      tag_217\n      jump\t// in\n    tag_312:\n        /* \"WandInstruments.sol\":10865:10873  decDiv18 */\n      tag_260\n        /* \"WandInstruments.sol\":10865:10920  decDiv18(sptrTreasuryBal * DECIMALS,SPTR.totalSupply()) */\n      jump\t// in\n    tag_306:\n        /* \"WandInstruments.sol\":10858:10920  return decDiv18(sptrTreasuryBal * DECIMALS,SPTR.totalSupply()) */\n      swap1\n      pop\n        /* \"WandInstruments.sol\":10708:10928  function getBackingPrice() external view returns (uint256){\r... */\n      swap1\n      jump\t// out\n        /* \"WandInstruments.sol\":1099:1117  IERC20 public SPTR */\n    tag_99:\n      0x0c\n      0x00\n      swap1\n      sload\n      swap1\n      0x0100\n      exp\n      swap1\n      div\n      0xffffffffffffffffffffffffffffffffffffffff\n      and\n      dup2\n      jump\t// out\n        /* \"WandInstruments.sol\":494:522  address public devWalletAddr */\n    tag_104:\n      0x07\n      0x00\n      swap1\n      sload\n      swap1\n      0x0100\n      exp\n      swap1\n      div\n      0xffffffffffffffffffffffffffffffffffffffff\n      and\n      dup2\n      jump\t// out\n        /* \"WandInstruments.sol\":1259:1311  mapping(uint256 => uint256) public tokensBoughtXDays */\n    tag_109:\n      mstore(0x20, 0x10)\n      dup1\n      0x00\n      mstore\n      keccak256(0x00, 0x40)\n      0x00\n      swap2\n      pop\n      swap1\n      pop\n      sload\n      dup2\n      jump\t// out\n        /* \"WandInstruments.sol\":622:649  uint256 public timeLaunched */\n    tag_113:\n      sload(0x09)\n      dup2\n      jump\t// out\n        /* \"WandInstruments.sol\":11218:11491  function getSellPrice() external view returns (uint256){\r... */\n    tag_117:\n        /* \"WandInstruments.sol\":11265:11272  uint256 */\n      0x00\n        /* \"WandInstruments.sol\":11405:11483  decMul18(this.getBackingPrice() , (900000000000000000 - this.getSellFactor())) */\n      tag_314\n        /* \"WandInstruments.sol\":11414:11418  this */\n      address\n        /* \"WandInstruments.sol\":11414:11434  this.getBackingPrice */\n      0xffffffffffffffffffffffffffffffffffffffff\n      and\n      0x1f564a06\n        /* \"WandInstruments.sol\":11414:11436  this.getBackingPrice() */\n      mload(0x40)\n      dup2\n      0xffffffff\n      and\n      0xe0\n      shl\n      dup2\n      mstore\n      0x04\n      add\n      0x20\n      mload(0x40)\n      dup1\n      dup4\n      sub\n      dup2\n      dup7\n      dup1\n      extcodesize\n      iszero\n      dup1\n      iszero\n      tag_315\n      jumpi\n      0x00\n      dup1\n      revert\n    tag_315:\n      pop\n      gas\n      staticcall\n      iszero\n      dup1\n      iszero\n      tag_317\n      jumpi\n      returndatasize\n      0x00\n      dup1\n      returndatacopy\n      revert(0x00, returndatasize)\n    tag_317:\n      pop\n      pop\n      pop\n      pop\n      mload(0x40)\n      returndatasize\n      not(0x1f)\n      0x1f\n      dup3\n      add\n      and\n      dup3\n      add\n      dup1\n      0x40\n      mstore\n      pop\n      dup2\n      add\n      swap1\n      tag_318\n      swap2\n      swap1\n      tag_217\n      jump\t// in\n    tag_318:\n        /* \"WandInstruments.sol\":11461:11465  this */\n      address\n        /* \"WandInstruments.sol\":11461:11479  this.getSellFactor */\n      0xffffffffffffffffffffffffffffffffffffffff\n      and\n      0x0ccaf04f\n        /* \"WandInstruments.sol\":11461:11481  this.getSellFactor() */\n      mload(0x40)\n      dup2\n      0xffffffff\n      and\n      0xe0\n      shl\n      dup2\n      mstore\n      0x04\n      add\n      0x20\n      mload(0x40)\n      dup1\n      dup4\n      sub\n      dup2\n      dup7\n      dup1\n      extcodesize\n      iszero\n      dup1\n      iszero\n      tag_319\n      jumpi\n      0x00\n      dup1\n      revert\n    tag_319:\n      pop\n      gas\n      staticcall\n      iszero\n      dup1\n      iszero\n      tag_321\n      jumpi\n      returndatasize\n      0x00\n      dup1\n      returndatacopy\n      revert(0x00, returndatasize)\n    tag_321:\n      pop\n      pop\n      pop\n      pop\n      mload(0x40)\n      returndatasize\n      not(0x1f)\n      0x1f\n      dup3\n      add\n      and\n      dup3\n      add\n      dup1\n      0x40\n      mstore\n      pop\n      dup2\n      add\n      swap1\n      tag_322\n      swap2\n      swap1\n      tag_217\n      jump\t// in\n    tag_322:\n        /* \"WandInstruments.sol\":11440:11458  900000000000000000 */\n      0x0c7d713b49da0000\n        /* \"WandInstruments.sol\":11440:11481  900000000000000000 - this.getSellFactor() */\n      tag_323\n      swap2\n      swap1\n      tag_264\n      jump\t// in\n    tag_323:\n        /* \"WandInstruments.sol\":11405:11413  decMul18 */\n      tag_224\n        /* \"WandInstruments.sol\":11405:11483  decMul18(this.getBackingPrice() , (900000000000000000 - this.getSellFactor())) */\n      jump\t// in\n    tag_314:\n        /* \"WandInstruments.sol\":11398:11483  return decMul18(this.getBackingPrice() , (900000000000000000 - this.getSellFactor())) */\n      swap1\n      pop\n        /* \"WandInstruments.sol\":11218:11491  function getSellPrice() external view returns (uint256){\r... */\n      swap1\n      jump\t// out\n        /* \"WandInstruments.sol\":563:593  uint256 public sptrTreasuryBal */\n    tag_121:\n      sload(0x08)\n      dup2\n      jump\t// out\n        /* \"WandInstruments.sol\":656:688  uint256 public daysInCalculation */\n    tag_125:\n      sload(0x0a)\n      dup2\n      jump\t// out\n        /* \"WandInstruments.sol\":12729:13201  function testUpdatetimeLockedplus(uint256 amt) public  {\r... */\n    tag_130:\n        /* \"WandInstruments.sol\":13124:13130  864000 */\n      0x0d2f00\n        /* \"WandInstruments.sol\":13106:13121  block.timestamp */\n      timestamp\n        /* \"WandInstruments.sol\":13106:13130  block.timestamp + 864000 */\n      tag_325\n      swap2\n      swap1\n      tag_223\n      jump\t// in\n    tag_325:\n        /* \"WandInstruments.sol\":13059:13078  withheldWithdrawals */\n      0x14\n        /* \"WandInstruments.sol\":13059:13090  withheldWithdrawals[msg.sender] */\n      0x00\n        /* \"WandInstruments.sol\":13079:13089  msg.sender */\n      caller\n        /* \"WandInstruments.sol\":13059:13090  withheldWithdrawals[msg.sender] */\n      0xffffffffffffffffffffffffffffffffffffffff\n      and\n      0xffffffffffffffffffffffffffffffffffffffff\n      and\n      dup2\n      mstore\n      0x20\n      add\n      swap1\n      dup2\n      mstore\n      0x20\n      add\n      0x00\n      keccak256\n        /* \"WandInstruments.sol\":13059:13103  withheldWithdrawals[msg.sender].timeUnlocked */\n      0x00\n      add\n        /* \"WandInstruments.sol\":13059:13130  withheldWithdrawals[msg.sender].timeUnlocked = block.timestamp + 864000 */\n      dup2\n      swap1\n      sstore\n      pop\n        /* \"WandInstruments.sol\":13184:13187  amt */\n      dup1\n        /* \"WandInstruments.sol\":13141:13160  withheldWithdrawals */\n      0x14\n        /* \"WandInstruments.sol\":13141:13172  withheldWithdrawals[msg.sender] */\n      0x00\n        /* \"WandInstruments.sol\":13161:13171  msg.sender */\n      caller\n        /* \"WandInstruments.sol\":13141:13172  withheldWithdrawals[msg.sender] */\n      0xffffffffffffffffffffffffffffffffffffffff\n      and\n      0xffffffffffffffffffffffffffffffffffffffff\n      and\n      dup2\n      mstore\n      0x20\n      add\n      swap1\n      dup2\n      mstore\n      0x20\n      add\n      0x00\n      keccak256\n        /* \"WandInstruments.sol\":13141:13180  withheldWithdrawals[msg.sender].amounts */\n      0x01\n      add\n      0x00\n        /* \"WandInstruments.sol\":13141:13187  withheldWithdrawals[msg.sender].amounts += amt */\n      dup3\n      dup3\n      sload\n      tag_326\n      swap2\n      swap1\n      tag_223\n      jump\t// in\n    tag_326:\n      swap3\n      pop\n      pop\n      dup2\n      swap1\n      sstore\n      pop\n        /* \"WandInstruments.sol\":12729:13201  function testUpdatetimeLockedplus(uint256 amt) public  {\r... */\n      pop\n      jump\t// out\n        /* \"WandInstruments.sol\":1176:1201  IERC20 public tokenStable */\n    tag_133:\n      0x0f\n      0x00\n      swap1\n      sload\n      swap1\n      0x0100\n      exp\n      swap1\n      div\n      0xffffffffffffffffffffffffffffffffffffffff\n      and\n      dup2\n      jump\t// out\n        /* \"Ownable.sol\":1661:1762  function renounceOwnership() public virtual onlyOwner {... */\n    tag_137:\n        /* \"Ownable.sol\":1252:1264  _msgSender() */\n      tag_328\n        /* \"Ownable.sol\":1252:1262  _msgSender */\n      tag_227\n        /* \"Ownable.sol\":1252:1264  _msgSender() */\n      jump\t// in\n    tag_328:\n        /* \"Ownable.sol\":1241:1264  owner() == _msgSender() */\n      0xffffffffffffffffffffffffffffffffffffffff\n      and\n        /* \"Ownable.sol\":1241:1248  owner() */\n      tag_329\n        /* \"Ownable.sol\":1241:1246  owner */\n      tag_149\n        /* \"Ownable.sol\":1241:1248  owner() */\n      jump\t// in\n    tag_329:\n        /* \"Ownable.sol\":1241:1264  owner() == _msgSender() */\n      0xffffffffffffffffffffffffffffffffffffffff\n      and\n      eq\n        /* \"Ownable.sol\":1233:1301  require(owner() == _msgSender(), \"Ownable: caller is not the owner\") */\n      tag_330\n      jumpi\n      mload(0x40)\n      0x08c379a000000000000000000000000000000000000000000000000000000000\n      dup2\n      mstore\n      0x04\n      add\n      tag_331\n      swap1\n      tag_231\n      jump\t// in\n    tag_331:\n      mload(0x40)\n      dup1\n      swap2\n      sub\n      swap1\n      revert\n    tag_330:\n        /* \"Ownable.sol\":1725:1755  _transferOwnership(address(0)) */\n      tag_333\n        /* \"Ownable.sol\":1752:1753  0 */\n      0x00\n        /* \"Ownable.sol\":1725:1743  _transferOwnership */\n      tag_334\n        /* \"Ownable.sol\":1725:1755  _transferOwnership(address(0)) */\n      jump\t// in\n    tag_333:\n        /* \"Ownable.sol\":1661:1762  function renounceOwnership() public virtual onlyOwner {... */\n      jump\t// out\n        /* \"WandInstruments.sol\":13725:14253  function getTokensBoughtXDays() external view returns (uint256){\r... */\n    tag_140:\n        /* \"WandInstruments.sol\":13780:13787  uint256 */\n      0x00\n        /* \"WandInstruments.sol\":13799:13816  uint256 boughtnum */\n      dup1\n        /* \"WandInstruments.sol\":13827:13836  uint256 d */\n      0x00\n        /* \"WandInstruments.sol\":13847:13862  uint256 numdays */\n      dup1\n        /* \"WandInstruments.sol\":13883:13888  86400 */\n      0x015180\n        /* \"WandInstruments.sol\":13865:13882  daysInCalculation */\n      sload(0x0a)\n        /* \"WandInstruments.sol\":13865:13888  daysInCalculation/86400 */\n      tag_336\n      swap2\n      swap1\n      tag_266\n      jump\t// in\n    tag_336:\n        /* \"WandInstruments.sol\":13847:13888  uint256 numdays = daysInCalculation/86400 */\n      swap1\n      pop\n        /* \"WandInstruments.sol\":13899:13923  uint256 daySinceLaunched */\n      0x00\n        /* \"WandInstruments.sol\":13961:13966  86400 */\n      0x015180\n        /* \"WandInstruments.sol\":13945:13957  timeLaunched */\n      sload(0x09)\n        /* \"WandInstruments.sol\":13927:13942  block.timestamp */\n      timestamp\n        /* \"WandInstruments.sol\":13927:13957  block.timestamp - timeLaunched */\n      tag_337\n      swap2\n      swap1\n      tag_264\n      jump\t// in\n    tag_337:\n        /* \"WandInstruments.sol\":13926:13966  (block.timestamp - timeLaunched) / 86400 */\n      tag_338\n      swap2\n      swap1\n      tag_266\n      jump\t// in\n    tag_338:\n        /* \"WandInstruments.sol\":13899:13966  uint256 daySinceLaunched = (block.timestamp - timeLaunched) / 86400 */\n      swap1\n      pop\n        /* \"WandInstruments.sol\":14001:14002  0 */\n      0x00\n        /* \"WandInstruments.sol\":13981:13997  daySinceLaunched */\n      dup2\n        /* \"WandInstruments.sol\":13981:14002  daySinceLaunched == 0 */\n      eq\n        /* \"WandInstruments.sol\":13977:14054  if (daySinceLaunched == 0) {\r... */\n      iszero\n      tag_339\n      jumpi\n        /* \"WandInstruments.sol\":14022:14039  tokensBoughtXDays */\n      0x10\n        /* \"WandInstruments.sol\":14022:14042  tokensBoughtXDays[0] */\n      0x00\n        /* \"WandInstruments.sol\":14040:14041  0 */\n      dup1\n        /* \"WandInstruments.sol\":14022:14042  tokensBoughtXDays[0] */\n      dup2\n      mstore\n      0x20\n      add\n      swap1\n      dup2\n      mstore\n      0x20\n      add\n      0x00\n      keccak256\n      sload\n        /* \"WandInstruments.sol\":14015:14042  return tokensBoughtXDays[0] */\n      swap5\n      pop\n      pop\n      pop\n      pop\n      pop\n      jump(tag_335)\n        /* \"WandInstruments.sol\":13977:14054  if (daySinceLaunched == 0) {\r... */\n    tag_339:\n        /* \"WandInstruments.sol\":14092:14099  numdays */\n      dup2\n        /* \"WandInstruments.sol\":14073:14089  daySinceLaunched */\n      dup2\n        /* \"WandInstruments.sol\":14073:14099  daySinceLaunched - numdays */\n      tag_343\n      swap2\n      swap1\n      tag_264\n      jump\t// in\n    tag_343:\n        /* \"WandInstruments.sol\":14069:14099  d = daySinceLaunched - numdays */\n      swap3\n      pop\n        /* \"WandInstruments.sol\":14064:14210  for (d = daySinceLaunched - numdays; d < daySinceLaunched; d++) {  //for loop example\r... */\n    tag_340:\n        /* \"WandInstruments.sol\":14105:14121  daySinceLaunched */\n      dup1\n        /* \"WandInstruments.sol\":14101:14102  d */\n      dup4\n        /* \"WandInstruments.sol\":14101:14121  d < daySinceLaunched */\n      lt\n        /* \"WandInstruments.sol\":14064:14210  for (d = daySinceLaunched - numdays; d < daySinceLaunched; d++) {  //for loop example\r... */\n      iszero\n      tag_341\n      jumpi\n        /* \"WandInstruments.sol\":14174:14191  tokensBoughtXDays */\n      0x10\n        /* \"WandInstruments.sol\":14174:14194  tokensBoughtXDays[d] */\n      0x00\n        /* \"WandInstruments.sol\":14192:14193  d */\n      dup5\n        /* \"WandInstruments.sol\":14174:14194  tokensBoughtXDays[d] */\n      dup2\n      mstore\n      0x20\n      add\n      swap1\n      dup2\n      mstore\n      0x20\n      add\n      0x00\n      keccak256\n      sload\n        /* \"WandInstruments.sol\":14161:14194  boughtnum += tokensBoughtXDays[d] */\n      dup5\n      tag_344\n      swap2\n      swap1\n      tag_223\n      jump\t// in\n    tag_344:\n      swap4\n      pop\n        /* \"WandInstruments.sol\":14123:14126  d++ */\n      dup3\n      dup1\n      tag_345\n      swap1\n      tag_276\n      jump\t// in\n    tag_345:\n      swap4\n      pop\n      pop\n        /* \"WandInstruments.sol\":14064:14210  for (d = daySinceLaunched - numdays; d < daySinceLaunched; d++) {  //for loop example\r... */\n      jump(tag_340)\n    tag_341:\n        /* \"WandInstruments.sol\":14236:14245  boughtnum */\n      dup4\n        /* \"WandInstruments.sol\":14229:14245  return boughtnum */\n      swap5\n      pop\n      pop\n      pop\n      pop\n      pop\n        /* \"WandInstruments.sol\":13725:14253  function getTokensBoughtXDays() external view returns (uint256){\r... */\n    tag_335:\n      swap1\n      jump\t// out\n        /* \"WandInstruments.sol\":6732:7979  function buyScepter(uint256 amountSCPtoBuy, string memory _stableChosen) public nonReentrant{\r... */\n    tag_146:\n        /* \"ReentrancyGuard.sol\":1778:1779  2 */\n      0x02\n        /* \"ReentrancyGuard.sol\":2376:2383  _status */\n      sload(0x00)\n        /* \"ReentrancyGuard.sol\":2376:2395  _status != _ENTERED */\n      eq\n      iszero\n        /* \"ReentrancyGuard.sol\":2368:2431  require(_status != _ENTERED, \"ReentrancyGuard: reentrant call\") */\n      tag_347\n      jumpi\n      mload(0x40)\n      0x08c379a000000000000000000000000000000000000000000000000000000000\n      dup2\n      mstore\n      0x04\n      add\n      tag_348\n      swap1\n      tag_349\n      jump\t// in\n    tag_348:\n      mload(0x40)\n      dup1\n      swap2\n      sub\n      swap1\n      revert\n    tag_347:\n        /* \"ReentrancyGuard.sol\":1778:1779  2 */\n      0x02\n        /* \"ReentrancyGuard.sol\":2509:2516  _status */\n      0x00\n        /* \"ReentrancyGuard.sol\":2509:2527  _status = _ENTERED */\n      dup2\n      swap1\n      sstore\n      pop\n        /* \"WandInstruments.sol\":6917:6932  stableERC20Info */\n      0x13\n        /* \"WandInstruments.sol\":6933:6946  _stableChosen */\n      dup2\n        /* \"WandInstruments.sol\":6917:6947  stableERC20Info[_stableChosen] */\n      mload(0x40)\n      tag_351\n      swap2\n      swap1\n      tag_352\n      jump\t// in\n    tag_351:\n      swap1\n      dup2\n      mstore\n      0x20\n      add\n      mload(0x40)\n      dup1\n      swap2\n      sub\n      swap1\n      keccak256\n        /* \"WandInstruments.sol\":6917:6963  stableERC20Info[_stableChosen].contractAddress */\n      0x00\n      add\n      0x00\n      swap1\n      sload\n      swap1\n      0x0100\n      exp\n      swap1\n      div\n      0xffffffffffffffffffffffffffffffffffffffff\n      and\n        /* \"WandInstruments.sol\":6896:6907  tokenStable */\n      0x0f\n      0x00\n        /* \"WandInstruments.sol\":6896:6964  tokenStable = IERC20(stableERC20Info[_stableChosen].contractAddress) */\n      0x0100\n      exp\n      dup2\n      sload\n      dup2\n      0xffffffffffffffffffffffffffffffffffffffff\n      mul\n      not\n      and\n      swap1\n      dup4\n      0xffffffffffffffffffffffffffffffffffffffff\n      and\n      mul\n      or\n      swap1\n      sstore\n      pop\n        /* \"WandInstruments.sol\":7001:7007  250000 */\n      0x03d090\n        /* \"WandInstruments.sol\":6983:6997  amountSCPtoBuy */\n      dup3\n        /* \"WandInstruments.sol\":6983:7007  amountSCPtoBuy <= 250000 */\n      gt\n      iszero\n        /* \"WandInstruments.sol\":6975:7034  require(amountSCPtoBuy <= 250000 , \"Per transaction limit\") */\n      tag_353\n      jumpi\n      mload(0x40)\n      0x08c379a000000000000000000000000000000000000000000000000000000000\n      dup2\n      mstore\n      0x04\n      add\n      tag_354\n      swap1\n      tag_355\n      jump\t// in\n    tag_354:\n      mload(0x40)\n      dup1\n      swap2\n      sub\n      swap1\n      revert\n    tag_353:\n        /* \"WandInstruments.sol\":7045:7072  uint256 trader_usdc_balance */\n      0x00\n        /* \"WandInstruments.sol\":7075:7086  tokenStable */\n      0x0f\n      0x00\n      swap1\n      sload\n      swap1\n      0x0100\n      exp\n      swap1\n      div\n      0xffffffffffffffffffffffffffffffffffffffff\n      and\n        /* \"WandInstruments.sol\":7075:7096  tokenStable.balanceOf */\n      0xffffffffffffffffffffffffffffffffffffffff\n      and\n      0x70a08231\n        /* \"WandInstruments.sol\":7097:7107  msg.sender */\n      caller\n        /* \"WandInstruments.sol\":7075:7108  tokenStable.balanceOf(msg.sender) */\n      mload(0x40)\n      dup3\n      0xffffffff\n      and\n      0xe0\n      shl\n      dup2\n      mstore\n      0x04\n      add\n      tag_356\n      swap2\n      swap1\n      tag_59\n      jump\t// in\n    tag_356:\n      0x20\n      mload(0x40)\n      dup1\n      dup4\n      sub\n      dup2\n      dup7\n      dup1\n      extcodesize\n      iszero\n      dup1\n      iszero\n      tag_357\n      jumpi\n      0x00\n      dup1\n      revert\n    tag_357:\n      pop\n      gas\n      staticcall\n      iszero\n      dup1\n      iszero\n      tag_359\n      jumpi\n      returndatasize\n      0x00\n      dup1\n      returndatacopy\n      revert(0x00, returndatasize)\n    tag_359:\n      pop\n      pop\n      pop\n      pop\n      mload(0x40)\n      returndatasize\n      not(0x1f)\n      0x1f\n      dup3\n      add\n      and\n      dup3\n      add\n      dup1\n      0x40\n      mstore\n      pop\n      dup2\n      add\n      swap1\n      tag_360\n      swap2\n      swap1\n      tag_217\n      jump\t// in\n    tag_360:\n        /* \"WandInstruments.sol\":7045:7108  uint256 trader_usdc_balance = tokenStable.balanceOf(msg.sender) */\n      swap1\n      pop\n        /* \"WandInstruments.sol\":7149:7163  amountSCPtoBuy */\n      dup3\n        /* \"WandInstruments.sol\":7127:7146  trader_usdc_balance */\n      dup2\n        /* \"WandInstruments.sol\":7127:7163  trader_usdc_balance > amountSCPtoBuy */\n      gt\n        /* \"WandInstruments.sol\":7119:7194  require(trader_usdc_balance > amountSCPtoBuy, \"You dont have that amount!\") */\n      tag_361\n      jumpi\n      mload(0x40)\n      0x08c379a000000000000000000000000000000000000000000000000000000000\n      dup2\n      mstore\n      0x04\n      add\n      tag_362\n      swap1\n      tag_298\n      jump\t// in\n    tag_362:\n      mload(0x40)\n      dup1\n      swap2\n      sub\n      swap1\n      revert\n    tag_361:\n        /* \"WandInstruments.sol\":7261:7280  uint256 usdAmtToPay */\n      0x00\n        /* \"WandInstruments.sol\":7352:7367  stableERC20Info */\n      0x13\n        /* \"WandInstruments.sol\":7368:7381  _stableChosen */\n      dup4\n        /* \"WandInstruments.sol\":7352:7382  stableERC20Info[_stableChosen] */\n      mload(0x40)\n      tag_363\n      swap2\n      swap1\n      tag_352\n      jump\t// in\n    tag_363:\n      swap1\n      dup2\n      mstore\n      0x20\n      add\n      mload(0x40)\n      dup1\n      swap2\n      sub\n      swap1\n      keccak256\n        /* \"WandInstruments.sol\":7352:7396  stableERC20Info[_stableChosen].tokenDecimals */\n      0x01\n      add\n      sload\n        /* \"WandInstruments.sol\":7305:7349  decMul18(amountSCPtoBuy, this.getBuyPrice()) */\n      tag_364\n        /* \"WandInstruments.sol\":7314:7328  amountSCPtoBuy */\n      dup6\n        /* \"WandInstruments.sol\":7330:7334  this */\n      address\n        /* \"WandInstruments.sol\":7330:7346  this.getBuyPrice */\n      0xffffffffffffffffffffffffffffffffffffffff\n      and\n      0x018a25e8\n        /* \"WandInstruments.sol\":7330:7348  this.getBuyPrice() */\n      mload(0x40)\n      dup2\n      0xffffffff\n      and\n      0xe0\n      shl\n      dup2\n      mstore\n      0x04\n      add\n      0x20\n      mload(0x40)\n      dup1\n      dup4\n      sub\n      dup2\n      dup7\n      dup1\n      extcodesize\n      iszero\n      dup1\n      iszero\n      tag_365\n      jumpi\n      0x00\n      dup1\n      revert\n    tag_365:\n      pop\n      gas\n      staticcall\n      iszero\n      dup1\n      iszero\n      tag_367\n      jumpi\n      returndatasize\n      0x00\n      dup1\n      returndatacopy\n      revert(0x00, returndatasize)\n    tag_367:\n      pop\n      pop\n      pop\n      pop\n      mload(0x40)\n      returndatasize\n      not(0x1f)\n      0x1f\n      dup3\n      add\n      and\n      dup3\n      add\n      dup1\n      0x40\n      mstore\n      pop\n      dup2\n      add\n      swap1\n      tag_368\n      swap2\n      swap1\n      tag_217\n      jump\t// in\n    tag_368:\n        /* \"WandInstruments.sol\":7305:7313  decMul18 */\n      tag_224\n        /* \"WandInstruments.sol\":7305:7349  decMul18(amountSCPtoBuy, this.getBuyPrice()) */\n      jump\t// in\n    tag_364:\n        /* \"WandInstruments.sol\":7305:7396  decMul18(amountSCPtoBuy, this.getBuyPrice()) * stableERC20Info[_stableChosen].tokenDecimals */\n      tag_369\n      swap2\n      swap1\n      tag_308\n      jump\t// in\n    tag_369:\n        /* \"WandInstruments.sol\":7291:7396  usdAmtToPay = decMul18(amountSCPtoBuy, this.getBuyPrice()) * stableERC20Info[_stableChosen].tokenDecimals */\n      swap1\n      pop\n        /* \"WandInstruments.sol\":7452:7522  _safeTransferFrom(tokenStable, msg.sender, address(this), usdAmtToPay) */\n      tag_370\n        /* \"WandInstruments.sol\":7470:7481  tokenStable */\n      0x0f\n      0x00\n      swap1\n      sload\n      swap1\n      0x0100\n      exp\n      swap1\n      div\n      0xffffffffffffffffffffffffffffffffffffffff\n      and\n        /* \"WandInstruments.sol\":7483:7493  msg.sender */\n      caller\n        /* \"WandInstruments.sol\":7503:7507  this */\n      address\n        /* \"WandInstruments.sol\":7510:7521  usdAmtToPay */\n      dup5\n        /* \"WandInstruments.sol\":7452:7469  _safeTransferFrom */\n      tag_300\n        /* \"WandInstruments.sol\":7452:7522  _safeTransferFrom(tokenStable, msg.sender, address(this), usdAmtToPay) */\n      jump\t// in\n    tag_370:\n        /* \"WandInstruments.sol\":7541:7545  SPTR */\n      0x0c\n      0x00\n      swap1\n      sload\n      swap1\n      0x0100\n      exp\n      swap1\n      div\n      0xffffffffffffffffffffffffffffffffffffffff\n      and\n        /* \"WandInstruments.sol\":7541:7550  SPTR.mint */\n      0xffffffffffffffffffffffffffffffffffffffff\n      and\n      0x40c10f19\n        /* \"WandInstruments.sol\":7551:7561  msg.sender */\n      caller\n        /* \"WandInstruments.sol\":237:243  10**18 */\n      0x0de0b6b3a7640000\n        /* \"WandInstruments.sol\":7562:7576  amountSCPtoBuy */\n      dup8\n        /* \"WandInstruments.sol\":7562:7587  amountSCPtoBuy * DECIMALS */\n      tag_371\n      swap2\n      swap1\n      tag_308\n      jump\t// in\n    tag_371:\n        /* \"WandInstruments.sol\":7541:7588  SPTR.mint(msg.sender,amountSCPtoBuy * DECIMALS) */\n      mload(0x40)\n      dup4\n      0xffffffff\n      and\n      0xe0\n      shl\n      dup2\n      mstore\n      0x04\n      add\n      tag_372\n      swap3\n      swap2\n      swap1\n      tag_165\n      jump\t// in\n    tag_372:\n      0x00\n      mload(0x40)\n      dup1\n      dup4\n      sub\n      dup2\n      0x00\n      dup8\n      dup1\n      extcodesize\n      iszero\n      dup1\n      iszero\n      tag_373\n      jumpi\n      0x00\n      dup1\n      revert\n    tag_373:\n      pop\n      gas\n      call\n      iszero\n      dup1\n      iszero\n      tag_375\n      jumpi\n      returndatasize\n      0x00\n      dup1\n      returndatacopy\n      revert(0x00, returndatasize)\n    tag_375:\n      pop\n      pop\n      pop\n      pop\n        /* \"WandInstruments.sol\":7599:7603  WAND */\n      0x0d\n      0x00\n      swap1\n      sload\n      swap1\n      0x0100\n      exp\n      swap1\n      div\n      0xffffffffffffffffffffffffffffffffffffffff\n      and\n        /* \"WandInstruments.sol\":7599:7608  WAND.mint */\n      0xffffffffffffffffffffffffffffffffffffffff\n      and\n      0x40c10f19\n        /* \"WandInstruments.sol\":7617:7621  this */\n      address\n        /* \"WandInstruments.sol\":237:243  10**18 */\n      0x0de0b6b3a7640000\n        /* \"WandInstruments.sol\":7623:7637  amountSCPtoBuy */\n      dup8\n        /* \"WandInstruments.sol\":7623:7648  amountSCPtoBuy * DECIMALS */\n      tag_376\n      swap2\n      swap1\n      tag_308\n      jump\t// in\n    tag_376:\n        /* \"WandInstruments.sol\":7599:7649  WAND.mint(address(this),amountSCPtoBuy * DECIMALS) */\n      mload(0x40)\n      dup4\n      0xffffffff\n      and\n      0xe0\n      shl\n      dup2\n      mstore\n      0x04\n      add\n      tag_377\n      swap3\n      swap2\n      swap1\n      tag_165\n      jump\t// in\n    tag_377:\n      0x00\n      mload(0x40)\n      dup1\n      dup4\n      sub\n      dup2\n      0x00\n      dup8\n      dup1\n      extcodesize\n      iszero\n      dup1\n      iszero\n      tag_378\n      jumpi\n      0x00\n      dup1\n      revert\n    tag_378:\n      pop\n      gas\n      call\n      iszero\n      dup1\n      iszero\n      tag_380\n      jumpi\n      returndatasize\n      0x00\n      dup1\n      returndatacopy\n      revert(0x00, returndatasize)\n    tag_380:\n      pop\n      pop\n      pop\n      pop\n        /* \"WandInstruments.sol\":7738:7754  uint256 dInArray */\n      0x00\n        /* \"WandInstruments.sol\":7788:7793  86400 */\n      0x015180\n        /* \"WandInstruments.sol\":7774:7786  timeLaunched */\n      sload(0x09)\n        /* \"WandInstruments.sol\":7757:7772  block.timestamp */\n      timestamp\n        /* \"WandInstruments.sol\":7757:7786  block.timestamp- timeLaunched */\n      tag_381\n      swap2\n      swap1\n      tag_264\n      jump\t// in\n    tag_381:\n        /* \"WandInstruments.sol\":7756:7793  (block.timestamp- timeLaunched)/86400 */\n      tag_382\n      swap2\n      swap1\n      tag_266\n      jump\t// in\n    tag_382:\n        /* \"WandInstruments.sol\":7738:7793  uint256 dInArray =(block.timestamp- timeLaunched)/86400 */\n      swap1\n      pop\n        /* \"WandInstruments.sol\":7836:7850  amountSCPtoBuy */\n      dup5\n        /* \"WandInstruments.sol\":7805:7822  tokensBoughtXDays */\n      0x10\n        /* \"WandInstruments.sol\":7805:7832  tokensBoughtXDays[dInArray] */\n      0x00\n        /* \"WandInstruments.sol\":7823:7831  dInArray */\n      dup4\n        /* \"WandInstruments.sol\":7805:7832  tokensBoughtXDays[dInArray] */\n      dup2\n      mstore\n      0x20\n      add\n      swap1\n      dup2\n      mstore\n      0x20\n      add\n      0x00\n      keccak256\n      0x00\n        /* \"WandInstruments.sol\":7805:7850  tokensBoughtXDays[dInArray] += amountSCPtoBuy */\n      dup3\n      dup3\n      sload\n      tag_383\n      swap2\n      swap1\n      tag_223\n      jump\t// in\n    tag_383:\n      swap3\n      pop\n      pop\n      dup2\n      swap1\n      sstore\n      pop\n        /* \"WandInstruments.sol\":7897:7911  amountSCPtoBuy */\n      dup5\n        /* \"WandInstruments.sol\":7861:7883  circulatingSupplyXDays */\n      0x12\n        /* \"WandInstruments.sol\":7861:7893  circulatingSupplyXDays[dInArray] */\n      0x00\n        /* \"WandInstruments.sol\":7884:7892  dInArray */\n      dup4\n        /* \"WandInstruments.sol\":7861:7893  circulatingSupplyXDays[dInArray] */\n      dup2\n      mstore\n      0x20\n      add\n      swap1\n      dup2\n      mstore\n      0x20\n      add\n      0x00\n      keccak256\n      0x00\n        /* \"WandInstruments.sol\":7861:7911  circulatingSupplyXDays[dInArray] += amountSCPtoBuy */\n      dup3\n      dup3\n      sload\n      tag_384\n      swap2\n      swap1\n      tag_223\n      jump\t// in\n    tag_384:\n      swap3\n      pop\n      pop\n      dup2\n      swap1\n      sstore\n      pop\n        /* \"WandInstruments.sol\":7944:7954  msg.sender */\n      caller\n        /* \"WandInstruments.sol\":7929:7971  sceptersBought(msg.sender, amountSCPtoBuy) */\n      0xffffffffffffffffffffffffffffffffffffffff\n      and\n      0xf633443b01504d269657083d48bb6de98e089cfff672b47fefbed21608b5c779\n        /* \"WandInstruments.sol\":7956:7970  amountSCPtoBuy */\n      dup7\n        /* \"WandInstruments.sol\":7929:7971  sceptersBought(msg.sender, amountSCPtoBuy) */\n      mload(0x40)\n      tag_385\n      swap2\n      swap1\n      tag_51\n      jump\t// in\n    tag_385:\n      mload(0x40)\n      dup1\n      swap2\n      sub\n      swap1\n      log2\n        /* \"WandInstruments.sol\":6824:7979  {\r... */\n      pop\n      pop\n      pop\n        /* \"ReentrancyGuard.sol\":1734:1735  1 */\n      0x01\n        /* \"ReentrancyGuard.sol\":2688:2695  _status */\n      0x00\n        /* \"ReentrancyGuard.sol\":2688:2710  _status = _NOT_ENTERED */\n      dup2\n      swap1\n      sstore\n      pop\n        /* \"WandInstruments.sol\":6732:7979  function buyScepter(uint256 amountSCPtoBuy, string memory _stableChosen) public nonReentrant{\r... */\n      pop\n      pop\n      jump\t// out\n        /* \"Ownable.sol\":1029:1114  function owner() public view virtual returns (address) {... */\n    tag_149:\n        /* \"Ownable.sol\":1075:1082  address */\n      0x00\n        /* \"Ownable.sol\":1101:1107  _owner */\n      0x01\n      0x00\n      swap1\n      sload\n      swap1\n      0x0100\n      exp\n      swap1\n      div\n      0xffffffffffffffffffffffffffffffffffffffff\n      and\n        /* \"Ownable.sol\":1094:1107  return _owner */\n      swap1\n      pop\n        /* \"Ownable.sol\":1029:1114  function owner() public view virtual returns (address) {... */\n      swap1\n      jump\t// out\n        /* \"WandInstruments.sol\":9377:10034  function getGrowthFactor() external view returns (uint256){\r... */\n    tag_153:\n        /* \"WandInstruments.sol\":9427:9434  uint256 */\n      0x00\n        /* \"WandInstruments.sol\":9579:9590  uint256 _gF */\n      dup1\n        /* \"WandInstruments.sol\":9851:9909  decDiv18(this.getTokensBoughtXDays(),getCircSupplyXDays()) */\n      tag_388\n        /* \"WandInstruments.sol\":9860:9864  this */\n      address\n        /* \"WandInstruments.sol\":9860:9885  this.getTokensBoughtXDays */\n      0xffffffffffffffffffffffffffffffffffffffff\n      and\n      0x71cd58f9\n        /* \"WandInstruments.sol\":9860:9887  this.getTokensBoughtXDays() */\n      mload(0x40)\n      dup2\n      0xffffffff\n      and\n      0xe0\n      shl\n      dup2\n      mstore\n      0x04\n      add\n      0x20\n      mload(0x40)\n      dup1\n      dup4\n      sub\n      dup2\n      dup7\n      dup1\n      extcodesize\n      iszero\n      dup1\n      iszero\n      tag_389\n      jumpi\n      0x00\n      dup1\n      revert\n    tag_389:\n      pop\n      gas\n      staticcall\n      iszero\n      dup1\n      iszero\n      tag_391\n      jumpi\n      returndatasize\n      0x00\n      dup1\n      returndatacopy\n      revert(0x00, returndatasize)\n    tag_391:\n      pop\n      pop\n      pop\n      pop\n      mload(0x40)\n      returndatasize\n      not(0x1f)\n      0x1f\n      dup3\n      add\n      and\n      dup3\n      add\n      dup1\n      0x40\n      mstore\n      pop\n      dup2\n      add\n      swap1\n      tag_392\n      swap2\n      swap1\n      tag_217\n      jump\t// in\n    tag_392:\n        /* \"WandInstruments.sol\":9888:9908  getCircSupplyXDays() */\n      tag_393\n        /* \"WandInstruments.sol\":9888:9906  getCircSupplyXDays */\n      tag_66\n        /* \"WandInstruments.sol\":9888:9908  getCircSupplyXDays() */\n      jump\t// in\n    tag_393:\n        /* \"WandInstruments.sol\":9851:9859  decDiv18 */\n      tag_260\n        /* \"WandInstruments.sol\":9851:9909  decDiv18(this.getTokensBoughtXDays(),getCircSupplyXDays()) */\n      jump\t// in\n    tag_388:\n        /* \"WandInstruments.sol\":9845:9909  _gF = decDiv18(this.getTokensBoughtXDays(),getCircSupplyXDays()) */\n      swap1\n      pop\n        /* \"WandInstruments.sol\":9929:9947  300000000000000000 */\n      0x0429d069189e0000\n        /* \"WandInstruments.sol\":9923:9926  _gF */\n      dup2\n        /* \"WandInstruments.sol\":9923:9947  _gF > 300000000000000000 */\n      gt\n        /* \"WandInstruments.sol\":9919:10006  if (_gF > 300000000000000000)\r... */\n      iszero\n      tag_394\n      jumpi\n        /* \"WandInstruments.sol\":9977:9995  300000000000000000 */\n      0x0429d069189e0000\n        /* \"WandInstruments.sol\":9971:9995  _gF = 300000000000000000 */\n      swap1\n      pop\n        /* \"WandInstruments.sol\":9919:10006  if (_gF > 300000000000000000)\r... */\n    tag_394:\n        /* \"WandInstruments.sol\":10022:10025  _gF */\n      dup1\n        /* \"WandInstruments.sol\":10015:10025  return _gF */\n      swap2\n      pop\n      pop\n        /* \"WandInstruments.sol\":9377:10034  function getGrowthFactor() external view returns (uint256){\r... */\n      swap1\n      jump\t// out\n        /* \"WandInstruments.sol\":14555:14644  function whitelist(address _addr) public onlyOwner {  \r... */\n    tag_158:\n        /* \"Ownable.sol\":1252:1264  _msgSender() */\n      tag_396\n        /* \"Ownable.sol\":1252:1262  _msgSender */\n      tag_227\n        /* \"Ownable.sol\":1252:1264  _msgSender() */\n      jump\t// in\n    tag_396:\n        /* \"Ownable.sol\":1241:1264  owner() == _msgSender() */\n      0xffffffffffffffffffffffffffffffffffffffff\n      and\n        /* \"Ownable.sol\":1241:1248  owner() */\n      tag_397\n        /* \"Ownable.sol\":1241:1246  owner */\n      tag_149\n        /* \"Ownable.sol\":1241:1248  owner() */\n      jump\t// in\n    tag_397:\n        /* \"Ownable.sol\":1241:1264  owner() == _msgSender() */\n      0xffffffffffffffffffffffffffffffffffffffff\n      and\n      eq\n        /* \"Ownable.sol\":1233:1301  require(owner() == _msgSender(), \"Ownable: caller is not the owner\") */\n      tag_398\n      jumpi\n      mload(0x40)\n      0x08c379a000000000000000000000000000000000000000000000000000000000\n      dup2\n      mstore\n      0x04\n      add\n      tag_399\n      swap1\n      tag_231\n      jump\t// in\n    tag_399:\n      mload(0x40)\n      dup1\n      swap2\n      sub\n      swap1\n      revert\n    tag_398:\n        /* \"WandInstruments.sol\":14555:14644  function whitelist(address _addr) public onlyOwner {  \r... */\n      pop\n      jump\t// out\n        /* \"WandInstruments.sol\":1563:1624  mapping (string => stableTokensParams) public stableERC20Info */\n    tag_163:\n      0x13\n      dup2\n      dup1\n      mload\n      0x20\n      dup2\n      add\n      dup3\n      add\n      dup1\n      mload\n      dup5\n      dup3\n      mstore\n      0x20\n      dup4\n      add\n      0x20\n      dup6\n      add\n      keccak256\n      dup2\n      dup4\n      mstore\n      dup1\n      swap6\n      pop\n      pop\n      pop\n      pop\n      pop\n      pop\n      0x00\n      swap2\n      pop\n      swap1\n      pop\n      dup1\n      0x00\n      add\n      0x00\n      swap1\n      sload\n      swap1\n      0x0100\n      exp\n      swap1\n      div\n      0xffffffffffffffffffffffffffffffffffffffff\n      and\n      swap1\n      dup1\n      0x01\n      add\n      sload\n      swap1\n      pop\n      dup3\n      jump\t// out\n        /* \"WandInstruments.sol\":11499:11729  function updateSPTRTreasuryBal() external onlyOwner {\r... */\n    tag_168:\n        /* \"Ownable.sol\":1252:1264  _msgSender() */\n      tag_402\n        /* \"Ownable.sol\":1252:1262  _msgSender */\n      tag_227\n        /* \"Ownable.sol\":1252:1264  _msgSender() */\n      jump\t// in\n    tag_402:\n        /* \"Ownable.sol\":1241:1264  owner() == _msgSender() */\n      0xffffffffffffffffffffffffffffffffffffffff\n      and\n        /* \"Ownable.sol\":1241:1248  owner() */\n      tag_403\n        /* \"Ownable.sol\":1241:1246  owner */\n      tag_149\n        /* \"Ownable.sol\":1241:1248  owner() */\n      jump\t// in\n    tag_403:\n        /* \"Ownable.sol\":1241:1264  owner() == _msgSender() */\n      0xffffffffffffffffffffffffffffffffffffffff\n      and\n      eq\n        /* \"Ownable.sol\":1233:1301  require(owner() == _msgSender(), \"Ownable: caller is not the owner\") */\n      tag_404\n      jumpi\n      mload(0x40)\n      0x08c379a000000000000000000000000000000000000000000000000000000000\n      dup2\n      mstore\n      0x04\n      add\n      tag_405\n      swap1\n      tag_231\n      jump\t// in\n    tag_405:\n      mload(0x40)\n      dup1\n      swap2\n      sub\n      swap1\n      revert\n    tag_404:\n        /* \"WandInstruments.sol\":11583:11598  stableERC20Info */\n      0x13\n        /* \"WandInstruments.sol\":11583:11606  stableERC20Info[\"USDC\"] */\n      mload(0x40)\n      tag_407\n      swap1\n      tag_408\n      jump\t// in\n    tag_407:\n      swap1\n      dup2\n      mstore\n      0x20\n      add\n      mload(0x40)\n      dup1\n      swap2\n      sub\n      swap1\n      keccak256\n        /* \"WandInstruments.sol\":11583:11622  stableERC20Info[\"USDC\"].contractAddress */\n      0x00\n      add\n      0x00\n      swap1\n      sload\n      swap1\n      0x0100\n      exp\n      swap1\n      div\n      0xffffffffffffffffffffffffffffffffffffffff\n      and\n        /* \"WandInstruments.sol\":11562:11573  tokenStable */\n      0x0f\n      0x00\n        /* \"WandInstruments.sol\":11562:11623  tokenStable = IERC20(stableERC20Info[\"USDC\"].contractAddress) */\n      0x0100\n      exp\n      dup2\n      sload\n      dup2\n      0xffffffffffffffffffffffffffffffffffffffff\n      mul\n      not\n      and\n      swap1\n      dup4\n      0xffffffffffffffffffffffffffffffffffffffff\n      and\n      mul\n      or\n      swap1\n      sstore\n      pop\n        /* \"WandInstruments.sol\":11499:11729  function updateSPTRTreasuryBal() external onlyOwner {\r... */\n      jump\t// out\n        /* \"WandInstruments.sol\":7987:8494  function claimLockedUSDC(address _claimant, string memory _stableChosen) public {\r... */\n    tag_173:\n        /* \"WandInstruments.sol\":8106:8125  withheldWithdrawals */\n      0x14\n        /* \"WandInstruments.sol\":8106:8136  withheldWithdrawals[_claimant] */\n      0x00\n        /* \"WandInstruments.sol\":8126:8135  _claimant */\n      dup4\n        /* \"WandInstruments.sol\":8106:8136  withheldWithdrawals[_claimant] */\n      0xffffffffffffffffffffffffffffffffffffffff\n      and\n      0xffffffffffffffffffffffffffffffffffffffff\n      and\n      dup2\n      mstore\n      0x20\n      add\n      swap1\n      dup2\n      mstore\n      0x20\n      add\n      0x00\n      keccak256\n        /* \"WandInstruments.sol\":8106:8149  withheldWithdrawals[_claimant].timeUnlocked */\n      0x00\n      add\n      sload\n        /* \"WandInstruments.sol\":8087:8102  block.timestamp */\n      timestamp\n        /* \"WandInstruments.sol\":8087:8149  block.timestamp >= withheldWithdrawals[_claimant].timeUnlocked */\n      lt\n      iszero\n        /* \"WandInstruments.sol\":8078:8166  require (block.timestamp >= withheldWithdrawals[_claimant].timeUnlocked, \"Not unlocked\") */\n      tag_410\n      jumpi\n      mload(0x40)\n      0x08c379a000000000000000000000000000000000000000000000000000000000\n      dup2\n      mstore\n      0x04\n      add\n      tag_411\n      swap1\n      tag_412\n      jump\t// in\n    tag_411:\n      mload(0x40)\n      dup1\n      swap2\n      sub\n      swap1\n      revert\n    tag_410:\n        /* \"WandInstruments.sol\":8198:8213  stableERC20Info */\n      0x13\n        /* \"WandInstruments.sol\":8214:8227  _stableChosen */\n      dup2\n        /* \"WandInstruments.sol\":8198:8228  stableERC20Info[_stableChosen] */\n      mload(0x40)\n      tag_413\n      swap2\n      swap1\n      tag_352\n      jump\t// in\n    tag_413:\n      swap1\n      dup2\n      mstore\n      0x20\n      add\n      mload(0x40)\n      dup1\n      swap2\n      sub\n      swap1\n      keccak256\n        /* \"WandInstruments.sol\":8198:8244  stableERC20Info[_stableChosen].contractAddress */\n      0x00\n      add\n      0x00\n      swap1\n      sload\n      swap1\n      0x0100\n      exp\n      swap1\n      div\n      0xffffffffffffffffffffffffffffffffffffffff\n      and\n        /* \"WandInstruments.sol\":8177:8188  tokenStable */\n      0x0f\n      0x00\n        /* \"WandInstruments.sol\":8177:8245  tokenStable = IERC20(stableERC20Info[_stableChosen].contractAddress) */\n      0x0100\n      exp\n      dup2\n      sload\n      dup2\n      0xffffffffffffffffffffffffffffffffffffffff\n      mul\n      not\n      and\n      swap1\n      dup4\n      0xffffffffffffffffffffffffffffffffffffffff\n      and\n      mul\n      or\n      swap1\n      sstore\n      pop\n        /* \"WandInstruments.sol\":8327:8344  uint256 claimAmts */\n      0x00\n        /* \"WandInstruments.sol\":8367:8386  withheldWithdrawals */\n      0x14\n        /* \"WandInstruments.sol\":8367:8397  withheldWithdrawals[_claimant] */\n      0x00\n        /* \"WandInstruments.sol\":8387:8396  _claimant */\n      dup5\n        /* \"WandInstruments.sol\":8367:8397  withheldWithdrawals[_claimant] */\n      0xffffffffffffffffffffffffffffffffffffffff\n      and\n      0xffffffffffffffffffffffffffffffffffffffff\n      and\n      dup2\n      mstore\n      0x20\n      add\n      swap1\n      dup2\n      mstore\n      0x20\n      add\n      0x00\n      keccak256\n        /* \"WandInstruments.sol\":8367:8405  withheldWithdrawals[_claimant].amounts */\n      0x01\n      add\n      sload\n        /* \"WandInstruments.sol\":8355:8405  claimAmts = withheldWithdrawals[_claimant].amounts */\n      swap1\n      pop\n        /* \"WandInstruments.sol\":8416:8484  _safeTransferFrom(tokenStable, address(this), msg.sender, claimAmts) */\n      tag_414\n        /* \"WandInstruments.sol\":8434:8445  tokenStable */\n      0x0f\n      0x00\n      swap1\n      sload\n      swap1\n      0x0100\n      exp\n      swap1\n      div\n      0xffffffffffffffffffffffffffffffffffffffff\n      and\n        /* \"WandInstruments.sol\":8455:8459  this */\n      address\n        /* \"WandInstruments.sol\":8462:8472  msg.sender */\n      caller\n        /* \"WandInstruments.sol\":8474:8483  claimAmts */\n      dup5\n        /* \"WandInstruments.sol\":8416:8433  _safeTransferFrom */\n      tag_300\n        /* \"WandInstruments.sol\":8416:8484  _safeTransferFrom(tokenStable, address(this), msg.sender, claimAmts) */\n      jump\t// in\n    tag_414:\n        /* \"WandInstruments.sol\":8067:8494  {\r... */\n      pop\n        /* \"WandInstruments.sol\":7987:8494  function claimLockedUSDC(address _claimant, string memory _stableChosen) public {\r... */\n      pop\n      pop\n      jump\t// out\n        /* \"WandInstruments.sol\":415:449  address public scepterTreasuryAddr */\n    tag_176:\n      0x05\n      0x00\n      swap1\n      sload\n      swap1\n      0x0100\n      exp\n      swap1\n      div\n      0xffffffffffffffffffffffffffffffffffffffff\n      and\n      dup2\n      jump\t// out\n        /* \"WandInstruments.sol\":1149:1167  IERC20 public BTON */\n    tag_180:\n      0x0e\n      0x00\n      swap1\n      sload\n      swap1\n      0x0100\n      exp\n      swap1\n      div\n      0xffffffffffffffffffffffffffffffffffffffff\n      and\n      dup2\n      jump\t// out\n        /* \"WandInstruments.sol\":4272:5962  function cashOutScepter(uint256 amountSCPtoSell, uint256 timeChosenLocked, string memory _stableChosen) public payable{\r... */\n    tag_185:\n        /* \"WandInstruments.sol\":4483:4498  stableERC20Info */\n      0x13\n        /* \"WandInstruments.sol\":4499:4512  _stableChosen */\n      dup2\n        /* \"WandInstruments.sol\":4483:4513  stableERC20Info[_stableChosen] */\n      mload(0x40)\n      tag_416\n      swap2\n      swap1\n      tag_352\n      jump\t// in\n    tag_416:\n      swap1\n      dup2\n      mstore\n      0x20\n      add\n      mload(0x40)\n      dup1\n      swap2\n      sub\n      swap1\n      keccak256\n        /* \"WandInstruments.sol\":4483:4529  stableERC20Info[_stableChosen].contractAddress */\n      0x00\n      add\n      0x00\n      swap1\n      sload\n      swap1\n      0x0100\n      exp\n      swap1\n      div\n      0xffffffffffffffffffffffffffffffffffffffff\n      and\n        /* \"WandInstruments.sol\":4462:4473  tokenStable */\n      0x0f\n      0x00\n        /* \"WandInstruments.sol\":4462:4530  tokenStable = IERC20(stableERC20Info[_stableChosen].contractAddress) */\n      0x0100\n      exp\n      dup2\n      sload\n      dup2\n      0xffffffffffffffffffffffffffffffffffffffff\n      mul\n      not\n      and\n      swap1\n      dup4\n      0xffffffffffffffffffffffffffffffffffffffff\n      and\n      mul\n      or\n      swap1\n      sstore\n      pop\n        /* \"WandInstruments.sol\":4579:4594  amountSCPtoSell */\n      dup3\n        /* \"WandInstruments.sol\":4549:4553  SPTR */\n      0x0c\n      0x00\n      swap1\n      sload\n      swap1\n      0x0100\n      exp\n      swap1\n      div\n      0xffffffffffffffffffffffffffffffffffffffff\n      and\n        /* \"WandInstruments.sol\":4549:4563  SPTR.balanceOf */\n      0xffffffffffffffffffffffffffffffffffffffff\n      and\n      0x70a08231\n        /* \"WandInstruments.sol\":4564:4574  msg.sender */\n      caller\n        /* \"WandInstruments.sol\":4549:4575  SPTR.balanceOf(msg.sender) */\n      mload(0x40)\n      dup3\n      0xffffffff\n      and\n      0xe0\n      shl\n      dup2\n      mstore\n      0x04\n      add\n      tag_417\n      swap2\n      swap1\n      tag_59\n      jump\t// in\n    tag_417:\n      0x20\n      mload(0x40)\n      dup1\n      dup4\n      sub\n      dup2\n      dup7\n      dup1\n      extcodesize\n      iszero\n      dup1\n      iszero\n      tag_418\n      jumpi\n      0x00\n      dup1\n      revert\n    tag_418:\n      pop\n      gas\n      staticcall\n      iszero\n      dup1\n      iszero\n      tag_420\n      jumpi\n      returndatasize\n      0x00\n      dup1\n      returndatacopy\n      revert(0x00, returndatasize)\n    tag_420:\n      pop\n      pop\n      pop\n      pop\n      mload(0x40)\n      returndatasize\n      not(0x1f)\n      0x1f\n      dup3\n      add\n      and\n      dup3\n      add\n      dup1\n      0x40\n      mstore\n      pop\n      dup2\n      add\n      swap1\n      tag_421\n      swap2\n      swap1\n      tag_217\n      jump\t// in\n    tag_421:\n        /* \"WandInstruments.sol\":4549:4594  SPTR.balanceOf(msg.sender) >= amountSCPtoSell */\n      lt\n      iszero\n        /* \"WandInstruments.sol\":4541:4625  require(SPTR.balanceOf(msg.sender) >= amountSCPtoSell, \"You dont have that amount!\") */\n      tag_422\n      jumpi\n      mload(0x40)\n      0x08c379a000000000000000000000000000000000000000000000000000000000\n      dup2\n      mstore\n      0x04\n      add\n      tag_423\n      swap1\n      tag_298\n      jump\t// in\n    tag_423:\n      mload(0x40)\n      dup1\n      swap2\n      sub\n      swap1\n      revert\n    tag_422:\n        /* \"WandInstruments.sol\":4827:4841  uint256 usdAmt */\n      0x00\n        /* \"WandInstruments.sol\":4884:4899  amountSCPtoSell */\n      dup4\n        /* \"WandInstruments.sol\":4862:4866  this */\n      address\n        /* \"WandInstruments.sol\":4862:4879  this.getSellPrice */\n      0xffffffffffffffffffffffffffffffffffffffff\n      and\n      0x43d32e9c\n        /* \"WandInstruments.sol\":4862:4881  this.getSellPrice() */\n      mload(0x40)\n      dup2\n      0xffffffff\n      and\n      0xe0\n      shl\n      dup2\n      mstore\n      0x04\n      add\n      0x20\n      mload(0x40)\n      dup1\n      dup4\n      sub\n      dup2\n      dup7\n      dup1\n      extcodesize\n      iszero\n      dup1\n      iszero\n      tag_424\n      jumpi\n      0x00\n      dup1\n      revert\n    tag_424:\n      pop\n      gas\n      staticcall\n      iszero\n      dup1\n      iszero\n      tag_426\n      jumpi\n      returndatasize\n      0x00\n      dup1\n      returndatacopy\n      revert(0x00, returndatasize)\n    tag_426:\n      pop\n      pop\n      pop\n      pop\n      mload(0x40)\n      returndatasize\n      not(0x1f)\n      0x1f\n      dup3\n      add\n      and\n      dup3\n      add\n      dup1\n      0x40\n      mstore\n      pop\n      dup2\n      add\n      swap1\n      tag_427\n      swap2\n      swap1\n      tag_217\n      jump\t// in\n    tag_427:\n        /* \"WandInstruments.sol\":4862:4899  this.getSellPrice() * amountSCPtoSell */\n      tag_428\n      swap2\n      swap1\n      tag_308\n      jump\t// in\n    tag_428:\n        /* \"WandInstruments.sol\":4853:4899  usdAmt = this.getSellPrice() * amountSCPtoSell */\n      swap1\n      pop\n        /* \"WandInstruments.sol\":4910:4921  tokenStable */\n      0x0f\n      0x00\n      swap1\n      sload\n      swap1\n      0x0100\n      exp\n      swap1\n      div\n      0xffffffffffffffffffffffffffffffffffffffff\n      and\n        /* \"WandInstruments.sol\":4910:4930  tokenStable.transfer */\n      0xffffffffffffffffffffffffffffffffffffffff\n      and\n      0xa9059cbb\n        /* \"WandInstruments.sol\":4931:4941  msg.sender */\n      caller\n        /* \"WandInstruments.sol\":237:243  10**18 */\n      0x0de0b6b3a7640000\n        /* \"WandInstruments.sol\":4965:4980  amountSCPtoSell */\n      dup8\n        /* \"WandInstruments.sol\":4943:4947  this */\n      address\n        /* \"WandInstruments.sol\":4943:4960  this.getSellPrice */\n      0xffffffffffffffffffffffffffffffffffffffff\n      and\n      0x43d32e9c\n        /* \"WandInstruments.sol\":4943:4962  this.getSellPrice() */\n      mload(0x40)\n      dup2\n      0xffffffff\n      and\n      0xe0\n      shl\n      dup2\n      mstore\n      0x04\n      add\n      0x20\n      mload(0x40)\n      dup1\n      dup4\n      sub\n      dup2\n      dup7\n      dup1\n      extcodesize\n      iszero\n      dup1\n      iszero\n      tag_429\n      jumpi\n      0x00\n      dup1\n      revert\n    tag_429:\n      pop\n      gas\n      staticcall\n      iszero\n      dup1\n      iszero\n      tag_431\n      jumpi\n      returndatasize\n      0x00\n      dup1\n      returndatacopy\n      revert(0x00, returndatasize)\n    tag_431:\n      pop\n      pop\n      pop\n      pop\n      mload(0x40)\n      returndatasize\n      not(0x1f)\n      0x1f\n      dup3\n      add\n      and\n      dup3\n      add\n      dup1\n      0x40\n      mstore\n      pop\n      dup2\n      add\n      swap1\n      tag_432\n      swap2\n      swap1\n      tag_217\n      jump\t// in\n    tag_432:\n        /* \"WandInstruments.sol\":4943:4980  this.getSellPrice() * amountSCPtoSell */\n      tag_433\n      swap2\n      swap1\n      tag_308\n      jump\t// in\n    tag_433:\n        /* \"WandInstruments.sol\":4943:4991  this.getSellPrice() * amountSCPtoSell * DECIMALS */\n      tag_434\n      swap2\n      swap1\n      tag_308\n      jump\t// in\n    tag_434:\n        /* \"WandInstruments.sol\":4910:4992  tokenStable.transfer(msg.sender, this.getSellPrice() * amountSCPtoSell * DECIMALS) */\n      mload(0x40)\n      dup4\n      0xffffffff\n      and\n      0xe0\n      shl\n      dup2\n      mstore\n      0x04\n      add\n      tag_435\n      swap3\n      swap2\n      swap1\n      tag_165\n      jump\t// in\n    tag_435:\n      0x20\n      mload(0x40)\n      dup1\n      dup4\n      sub\n      dup2\n      0x00\n      dup8\n      dup1\n      extcodesize\n      iszero\n      dup1\n      iszero\n      tag_436\n      jumpi\n      0x00\n      dup1\n      revert\n    tag_436:\n      pop\n      gas\n      call\n      iszero\n      dup1\n      iszero\n      tag_438\n      jumpi\n      returndatasize\n      0x00\n      dup1\n      returndatacopy\n      revert(0x00, returndatasize)\n    tag_438:\n      pop\n      pop\n      pop\n      pop\n      mload(0x40)\n      returndatasize\n      not(0x1f)\n      0x1f\n      dup3\n      add\n      and\n      dup3\n      add\n      dup1\n      0x40\n      mstore\n      pop\n      dup2\n      add\n      swap1\n      tag_439\n      swap2\n      swap1\n      tag_440\n      jump\t// in\n    tag_439:\n      pop\n        /* \"WandInstruments.sol\":5095:5173  _safeTransferFrom(SPTR, msg.sender, address(this), amountSCPtoSell * DECIMALS) */\n      tag_441\n        /* \"WandInstruments.sol\":5113:5117  SPTR */\n      0x0c\n      0x00\n      swap1\n      sload\n      swap1\n      0x0100\n      exp\n      swap1\n      div\n      0xffffffffffffffffffffffffffffffffffffffff\n      and\n        /* \"WandInstruments.sol\":5119:5129  msg.sender */\n      caller\n        /* \"WandInstruments.sol\":5139:5143  this */\n      address\n        /* \"WandInstruments.sol\":237:243  10**18 */\n      0x0de0b6b3a7640000\n        /* \"WandInstruments.sol\":5146:5161  amountSCPtoSell */\n      dup9\n        /* \"WandInstruments.sol\":5146:5172  amountSCPtoSell * DECIMALS */\n      tag_442\n      swap2\n      swap1\n      tag_308\n      jump\t// in\n    tag_442:\n        /* \"WandInstruments.sol\":5095:5112  _safeTransferFrom */\n      tag_300\n        /* \"WandInstruments.sol\":5095:5173  _safeTransferFrom(SPTR, msg.sender, address(this), amountSCPtoSell * DECIMALS) */\n      jump\t// in\n    tag_441:\n        /* \"WandInstruments.sol\":5450:5466  uint256 dInArray */\n      0x00\n        /* \"WandInstruments.sol\":5500:5505  86400 */\n      0x015180\n        /* \"WandInstruments.sol\":5486:5498  timeLaunched */\n      sload(0x09)\n        /* \"WandInstruments.sol\":5469:5484  block.timestamp */\n      timestamp\n        /* \"WandInstruments.sol\":5469:5498  block.timestamp- timeLaunched */\n      tag_443\n      swap2\n      swap1\n      tag_264\n      jump\t// in\n    tag_443:\n        /* \"WandInstruments.sol\":5468:5505  (block.timestamp- timeLaunched)/86400 */\n      tag_444\n      swap2\n      swap1\n      tag_266\n      jump\t// in\n    tag_444:\n        /* \"WandInstruments.sol\":5450:5505  uint256 dInArray =(block.timestamp- timeLaunched)/86400 */\n      swap1\n      pop\n        /* \"WandInstruments.sol\":5546:5561  amountSCPtoSell */\n      dup5\n        /* \"WandInstruments.sol\":5517:5532  tokensSoldXDays */\n      0x11\n        /* \"WandInstruments.sol\":5517:5542  tokensSoldXDays[dInArray] */\n      0x00\n        /* \"WandInstruments.sol\":5533:5541  dInArray */\n      dup4\n        /* \"WandInstruments.sol\":5517:5542  tokensSoldXDays[dInArray] */\n      dup2\n      mstore\n      0x20\n      add\n      swap1\n      dup2\n      mstore\n      0x20\n      add\n      0x00\n      keccak256\n      0x00\n        /* \"WandInstruments.sol\":5517:5561  tokensSoldXDays[dInArray] += amountSCPtoSell */\n      dup3\n      dup3\n      sload\n      tag_445\n      swap2\n      swap1\n      tag_223\n      jump\t// in\n    tag_445:\n      swap3\n      pop\n      pop\n      dup2\n      swap1\n      sstore\n      pop\n        /* \"WandInstruments.sol\":5608:5623  amountSCPtoSell */\n      dup5\n        /* \"WandInstruments.sol\":5572:5594  circulatingSupplyXDays */\n      0x12\n        /* \"WandInstruments.sol\":5572:5604  circulatingSupplyXDays[dInArray] */\n      0x00\n        /* \"WandInstruments.sol\":5595:5603  dInArray */\n      dup4\n        /* \"WandInstruments.sol\":5572:5604  circulatingSupplyXDays[dInArray] */\n      dup2\n      mstore\n      0x20\n      add\n      swap1\n      dup2\n      mstore\n      0x20\n      add\n      0x00\n      keccak256\n      0x00\n        /* \"WandInstruments.sol\":5572:5623  circulatingSupplyXDays[dInArray] -= amountSCPtoSell */\n      dup3\n      dup3\n      sload\n      tag_446\n      swap2\n      swap1\n      tag_264\n      jump\t// in\n    tag_446:\n      swap3\n      pop\n      pop\n      dup2\n      swap1\n      sstore\n      pop\n        /* \"WandInstruments.sol\":4390:5962  {\r... */\n      pop\n      pop\n        /* \"WandInstruments.sol\":4272:5962  function cashOutScepter(uint256 amountSCPtoSell, uint256 timeChosenLocked, string memory _stableChosen) public payable{\r... */\n      pop\n      pop\n      pop\n      jump\t// out\n        /* \"WandInstruments.sol\":1124:1142  IERC20 public WAND */\n    tag_188:\n      0x0d\n      0x00\n      swap1\n      sload\n      swap1\n      0x0100\n      exp\n      swap1\n      div\n      0xffffffffffffffffffffffffffffffffffffffff\n      and\n      dup2\n      jump\t// out\n        /* \"WandInstruments.sol\":14259:14545  function getTokensSoldXDays() external view returns (uint256){\r... */\n    tag_192:\n        /* \"WandInstruments.sol\":14312:14319  uint256 */\n      0x00\n        /* \"WandInstruments.sol\":14331:14346  uint256 soldNum */\n      dup1\n        /* \"WandInstruments.sol\":14357:14366  uint256 d */\n      0x00\n        /* \"WandInstruments.sol\":14377:14392  uint256 numdays */\n      dup1\n        /* \"WandInstruments.sol\":14413:14418  86400 */\n      0x015180\n        /* \"WandInstruments.sol\":14395:14412  daysInCalculation */\n      sload(0x0a)\n        /* \"WandInstruments.sol\":14395:14418  daysInCalculation/86400 */\n      tag_448\n      swap2\n      swap1\n      tag_266\n      jump\t// in\n    tag_448:\n        /* \"WandInstruments.sol\":14377:14418  uint256 numdays = daysInCalculation/86400 */\n      swap1\n      pop\n        /* \"WandInstruments.sol\":14440:14441  0 */\n      0x00\n        /* \"WandInstruments.sol\":14436:14441  d = 0 */\n      swap2\n      pop\n        /* \"WandInstruments.sol\":14431:14514  for (d = 0; d < numdays; d++) { \r... */\n    tag_449:\n        /* \"WandInstruments.sol\":14447:14454  numdays */\n      dup1\n        /* \"WandInstruments.sol\":14443:14444  d */\n      dup3\n        /* \"WandInstruments.sol\":14443:14454  d < numdays */\n      lt\n        /* \"WandInstruments.sol\":14431:14514  for (d = 0; d < numdays; d++) { \r... */\n      iszero\n      tag_450\n      jumpi\n        /* \"WandInstruments.sol\":14486:14501  tokensSoldXDays */\n      0x11\n        /* \"WandInstruments.sol\":14486:14504  tokensSoldXDays[d] */\n      0x00\n        /* \"WandInstruments.sol\":14502:14503  d */\n      dup4\n        /* \"WandInstruments.sol\":14486:14504  tokensSoldXDays[d] */\n      dup2\n      mstore\n      0x20\n      add\n      swap1\n      dup2\n      mstore\n      0x20\n      add\n      0x00\n      keccak256\n      sload\n        /* \"WandInstruments.sol\":14475:14504  soldNum += tokensSoldXDays[d] */\n      dup4\n      tag_452\n      swap2\n      swap1\n      tag_223\n      jump\t// in\n    tag_452:\n      swap3\n      pop\n        /* \"WandInstruments.sol\":14456:14459  d++ */\n      dup2\n      dup1\n      tag_453\n      swap1\n      tag_276\n      jump\t// in\n    tag_453:\n      swap3\n      pop\n      pop\n        /* \"WandInstruments.sol\":14431:14514  for (d = 0; d < numdays; d++) { \r... */\n      jump(tag_449)\n    tag_450:\n        /* \"WandInstruments.sol\":14530:14537  soldNum */\n      dup3\n        /* \"WandInstruments.sol\":14523:14537  return soldNum */\n      swap4\n      pop\n      pop\n      pop\n      pop\n        /* \"WandInstruments.sol\":14259:14545  function getTokensSoldXDays() external view returns (uint256){\r... */\n      swap1\n      jump\t// out\n        /* \"WandInstruments.sol\":14652:14871  function addStable(string memory _ticker, address _addr, uint256 _dec) public onlyOwner {\r... */\n    tag_198:\n        /* \"Ownable.sol\":1252:1264  _msgSender() */\n      tag_455\n        /* \"Ownable.sol\":1252:1262  _msgSender */\n      tag_227\n        /* \"Ownable.sol\":1252:1264  _msgSender() */\n      jump\t// in\n    tag_455:\n        /* \"Ownable.sol\":1241:1264  owner() == _msgSender() */\n      0xffffffffffffffffffffffffffffffffffffffff\n      and\n        /* \"Ownable.sol\":1241:1248  owner() */\n      tag_456\n        /* \"Ownable.sol\":1241:1246  owner */\n      tag_149\n        /* \"Ownable.sol\":1241:1248  owner() */\n      jump\t// in\n    tag_456:\n        /* \"Ownable.sol\":1241:1264  owner() == _msgSender() */\n      0xffffffffffffffffffffffffffffffffffffffff\n      and\n      eq\n        /* \"Ownable.sol\":1233:1301  require(owner() == _msgSender(), \"Ownable: caller is not the owner\") */\n      tag_457\n      jumpi\n      mload(0x40)\n      0x08c379a000000000000000000000000000000000000000000000000000000000\n      dup2\n      mstore\n      0x04\n      add\n      tag_458\n      swap1\n      tag_231\n      jump\t// in\n    tag_458:\n      mload(0x40)\n      dup1\n      swap2\n      sub\n      swap1\n      revert\n    tag_457:\n        /* \"WandInstruments.sol\":14800:14805  _addr */\n      dup2\n        /* \"WandInstruments.sol\":14757:14772  stableERC20Info */\n      0x13\n        /* \"WandInstruments.sol\":14773:14780  _ticker */\n      dup5\n        /* \"WandInstruments.sol\":14757:14781  stableERC20Info[_ticker] */\n      mload(0x40)\n      tag_460\n      swap2\n      swap1\n      tag_352\n      jump\t// in\n    tag_460:\n      swap1\n      dup2\n      mstore\n      0x20\n      add\n      mload(0x40)\n      dup1\n      swap2\n      sub\n      swap1\n      keccak256\n        /* \"WandInstruments.sol\":14757:14797  stableERC20Info[_ticker].contractAddress */\n      0x00\n      add\n      0x00\n        /* \"WandInstruments.sol\":14757:14805  stableERC20Info[_ticker].contractAddress = _addr */\n      0x0100\n      exp\n      dup2\n      sload\n      dup2\n      0xffffffffffffffffffffffffffffffffffffffff\n      mul\n      not\n      and\n      swap1\n      dup4\n      0xffffffffffffffffffffffffffffffffffffffff\n      and\n      mul\n      or\n      swap1\n      sstore\n      pop\n        /* \"WandInstruments.sol\":14857:14861  _dec */\n      dup1\n        /* \"WandInstruments.sol\":14816:14831  stableERC20Info */\n      0x13\n        /* \"WandInstruments.sol\":14832:14839  _ticker */\n      dup5\n        /* \"WandInstruments.sol\":14816:14840  stableERC20Info[_ticker] */\n      mload(0x40)\n      tag_461\n      swap2\n      swap1\n      tag_352\n      jump\t// in\n    tag_461:\n      swap1\n      dup2\n      mstore\n      0x20\n      add\n      mload(0x40)\n      dup1\n      swap2\n      sub\n      swap1\n      keccak256\n        /* \"WandInstruments.sol\":14816:14854  stableERC20Info[_ticker].tokenDecimals */\n      0x01\n      add\n        /* \"WandInstruments.sol\":14816:14861  stableERC20Info[_ticker].tokenDecimals = _dec */\n      dup2\n      swap1\n      sstore\n      pop\n        /* \"WandInstruments.sol\":14652:14871  function addStable(string memory _ticker, address _addr, uint256 _dec) public onlyOwner {\r... */\n      pop\n      pop\n      pop\n      jump\t// out\n        /* \"WandInstruments.sol\":853:923  address public testwallet = 0x617F2E2fD72FD9D5503197092aC168c91465E7f2 */\n    tag_201:\n      0x0b\n      0x00\n      swap1\n      sload\n      swap1\n      0x0100\n      exp\n      swap1\n      div\n      0xffffffffffffffffffffffffffffffffffffffff\n      and\n      dup2\n      jump\t// out\n        /* \"Ownable.sol\":1911:2109  function transferOwnership(address newOwner) public virtual onlyOwner {... */\n    tag_206:\n        /* \"Ownable.sol\":1252:1264  _msgSender() */\n      tag_463\n        /* \"Ownable.sol\":1252:1262  _msgSender */\n      tag_227\n        /* \"Ownable.sol\":1252:1264  _msgSender() */\n      jump\t// in\n    tag_463:\n        /* \"Ownable.sol\":1241:1264  owner() == _msgSender() */\n      0xffffffffffffffffffffffffffffffffffffffff\n      and\n        /* \"Ownable.sol\":1241:1248  owner() */\n      tag_464\n        /* \"Ownable.sol\":1241:1246  owner */\n      tag_149\n        /* \"Ownable.sol\":1241:1248  owner() */\n      jump\t// in\n    tag_464:\n        /* \"Ownable.sol\":1241:1264  owner() == _msgSender() */\n      0xffffffffffffffffffffffffffffffffffffffff\n      and\n      eq\n        /* \"Ownable.sol\":1233:1301  require(owner() == _msgSender(), \"Ownable: caller is not the owner\") */\n      tag_465\n      jumpi\n      mload(0x40)\n      0x08c379a000000000000000000000000000000000000000000000000000000000\n      dup2\n      mstore\n      0x04\n      add\n      tag_466\n      swap1\n      tag_231\n      jump\t// in\n    tag_466:\n      mload(0x40)\n      dup1\n      swap2\n      sub\n      swap1\n      revert\n    tag_465:\n        /* \"Ownable.sol\":2019:2020  0 */\n      0x00\n        /* \"Ownable.sol\":1999:2021  newOwner != address(0) */\n      0xffffffffffffffffffffffffffffffffffffffff\n      and\n        /* \"Ownable.sol\":1999:2007  newOwner */\n      dup2\n        /* \"Ownable.sol\":1999:2021  newOwner != address(0) */\n      0xffffffffffffffffffffffffffffffffffffffff\n      and\n      eq\n      iszero\n        /* \"Ownable.sol\":1991:2064  require(newOwner != address(0), \"Ownable: new owner is the zero address\") */\n      tag_468\n      jumpi\n      mload(0x40)\n      0x08c379a000000000000000000000000000000000000000000000000000000000\n      dup2\n      mstore\n      0x04\n      add\n      tag_469\n      swap1\n      tag_470\n      jump\t// in\n    tag_469:\n      mload(0x40)\n      dup1\n      swap2\n      sub\n      swap1\n      revert\n    tag_468:\n        /* \"Ownable.sol\":2074:2102  _transferOwnership(newOwner) */\n      tag_471\n        /* \"Ownable.sol\":2093:2101  newOwner */\n      dup2\n        /* \"Ownable.sol\":2074:2092  _transferOwnership */\n      tag_334\n        /* \"Ownable.sol\":2074:2102  _transferOwnership(newOwner) */\n      jump\t// in\n    tag_471:\n        /* \"Ownable.sol\":1911:2109  function transferOwnership(address newOwner) public virtual onlyOwner {... */\n      pop\n      jump\t// out\n        /* \"WandInstruments.sol\":12595:12719  function setDaysUsedInFactors(uint256 numDays) public onlyOwner{  \r... */\n    tag_210:\n        /* \"Ownable.sol\":1252:1264  _msgSender() */\n      tag_473\n        /* \"Ownable.sol\":1252:1262  _msgSender */\n      tag_227\n        /* \"Ownable.sol\":1252:1264  _msgSender() */\n      jump\t// in\n    tag_473:\n        /* \"Ownable.sol\":1241:1264  owner() == _msgSender() */\n      0xffffffffffffffffffffffffffffffffffffffff\n      and\n        /* \"Ownable.sol\":1241:1248  owner() */\n      tag_474\n        /* \"Ownable.sol\":1241:1246  owner */\n      tag_149\n        /* \"Ownable.sol\":1241:1248  owner() */\n      jump\t// in\n    tag_474:\n        /* \"Ownable.sol\":1241:1264  owner() == _msgSender() */\n      0xffffffffffffffffffffffffffffffffffffffff\n      and\n      eq\n        /* \"Ownable.sol\":1233:1301  require(owner() == _msgSender(), \"Ownable: caller is not the owner\") */\n      tag_475\n      jumpi\n      mload(0x40)\n      0x08c379a000000000000000000000000000000000000000000000000000000000\n      dup2\n      mstore\n      0x04\n      add\n      tag_476\n      swap1\n      tag_231\n      jump\t// in\n    tag_476:\n      mload(0x40)\n      dup1\n      swap2\n      sub\n      swap1\n      revert\n    tag_475:\n        /* \"WandInstruments.sol\":12701:12706  86400 */\n      0x015180\n        /* \"WandInstruments.sol\":12691:12698  numDays */\n      dup2\n        /* \"WandInstruments.sol\":12691:12706  numDays * 86400 */\n      tag_478\n      swap2\n      swap1\n      tag_308\n      jump\t// in\n    tag_478:\n        /* \"WandInstruments.sol\":12671:12688  daysInCalculation */\n      0x0a\n        /* \"WandInstruments.sol\":12671:12706  daysInCalculation = numDays * 86400 */\n      dup2\n      swap1\n      sstore\n      pop\n        /* \"WandInstruments.sol\":12595:12719  function setDaysUsedInFactors(uint256 numDays) public onlyOwner{  \r... */\n      pop\n      jump\t// out\n        /* \"WandInstruments.sol\":3841:4013  function decMul18(uint x, uint y) internal pure returns (uint decProd) {\r... */\n    tag_224:\n        /* \"WandInstruments.sol\":3898:3910  uint decProd */\n      0x00\n        /* \"WandInstruments.sol\":3923:3935  uint prod_xy */\n      dup1\n        /* \"WandInstruments.sol\":3938:3947  mul(x, y) */\n      tag_480\n        /* \"WandInstruments.sol\":3942:3943  x */\n      dup5\n        /* \"WandInstruments.sol\":3945:3946  y */\n      dup5\n        /* \"WandInstruments.sol\":3938:3941  mul */\n      tag_481\n        /* \"WandInstruments.sol\":3938:3947  mul(x, y) */\n      jump\t// in\n    tag_480:\n        /* \"WandInstruments.sol\":3923:3947  uint prod_xy = mul(x, y) */\n      swap1\n      pop\n        /* \"WandInstruments.sol\":237:243  10**18 */\n      0x0de0b6b3a7640000\n        /* \"WandInstruments.sol\":3968:3994  add(prod_xy, DECIMALS / 2) */\n      tag_482\n        /* \"WandInstruments.sol\":3972:3979  prod_xy */\n      dup3\n        /* \"WandInstruments.sol\":3992:3993  2 */\n      0x02\n        /* \"WandInstruments.sol\":237:243  10**18 */\n      0x0de0b6b3a7640000\n        /* \"WandInstruments.sol\":3981:3993  DECIMALS / 2 */\n      tag_483\n      swap2\n      swap1\n      tag_266\n      jump\t// in\n    tag_483:\n        /* \"WandInstruments.sol\":3968:3971  add */\n      tag_484\n        /* \"WandInstruments.sol\":3968:3994  add(prod_xy, DECIMALS / 2) */\n      jump\t// in\n    tag_482:\n        /* \"WandInstruments.sol\":3968:4005  add(prod_xy, DECIMALS / 2) / DECIMALS */\n      tag_485\n      swap2\n      swap1\n      tag_266\n      jump\t// in\n    tag_485:\n        /* \"WandInstruments.sol\":3958:4005  decProd = add(prod_xy, DECIMALS / 2) / DECIMALS */\n      swap2\n      pop\n        /* \"WandInstruments.sol\":3912:4013  {\r... */\n      pop\n        /* \"WandInstruments.sol\":3841:4013  function decMul18(uint x, uint y) internal pure returns (uint decProd) {\r... */\n      swap3\n      swap2\n      pop\n      pop\n      jump\t// out\n        /* \"Context.sol\":640:736  function _msgSender() internal view virtual returns (address) {... */\n    tag_227:\n        /* \"Context.sol\":693:700  address */\n      0x00\n        /* \"Context.sol\":719:729  msg.sender */\n      caller\n        /* \"Context.sol\":712:729  return msg.sender */\n      swap1\n      pop\n        /* \"Context.sol\":640:736  function _msgSender() internal view virtual returns (address) {... */\n      swap1\n      jump\t// out\n        /* \"WandInstruments.sol\":4021:4202  function decDiv18(uint x, uint y) internal pure returns (uint decQuotient) {\r... */\n    tag_260:\n        /* \"WandInstruments.sol\":4078:4094  uint decQuotient */\n      0x00\n        /* \"WandInstruments.sol\":4107:4123  uint prod_xTEN18 */\n      dup1\n        /* \"WandInstruments.sol\":4126:4142  mul(x, DECIMALS) */\n      tag_488\n        /* \"WandInstruments.sol\":4130:4131  x */\n      dup5\n        /* \"WandInstruments.sol\":237:243  10**18 */\n      0x0de0b6b3a7640000\n        /* \"WandInstruments.sol\":4126:4129  mul */\n      tag_481\n        /* \"WandInstruments.sol\":4126:4142  mul(x, DECIMALS) */\n      jump\t// in\n    tag_488:\n        /* \"WandInstruments.sol\":4107:4142  uint prod_xTEN18 = mul(x, DECIMALS) */\n      swap1\n      pop\n        /* \"WandInstruments.sol\":4193:4194  y */\n      dup3\n        /* \"WandInstruments.sol\":4167:4190  add(prod_xTEN18, y / 2) */\n      tag_489\n        /* \"WandInstruments.sol\":4171:4182  prod_xTEN18 */\n      dup3\n        /* \"WandInstruments.sol\":4188:4189  2 */\n      0x02\n        /* \"WandInstruments.sol\":4184:4185  y */\n      dup7\n        /* \"WandInstruments.sol\":4184:4189  y / 2 */\n      tag_490\n      swap2\n      swap1\n      tag_266\n      jump\t// in\n    tag_490:\n        /* \"WandInstruments.sol\":4167:4170  add */\n      tag_484\n        /* \"WandInstruments.sol\":4167:4190  add(prod_xTEN18, y / 2) */\n      jump\t// in\n    tag_489:\n        /* \"WandInstruments.sol\":4167:4194  add(prod_xTEN18, y / 2) / y */\n      tag_491\n      swap2\n      swap1\n      tag_266\n      jump\t// in\n    tag_491:\n        /* \"WandInstruments.sol\":4153:4194  decQuotient = add(prod_xTEN18, y / 2) / y */\n      swap2\n      pop\n        /* \"WandInstruments.sol\":4096:4202  {\r... */\n      pop\n        /* \"WandInstruments.sol\":4021:4202  function decDiv18(uint x, uint y) internal pure returns (uint decQuotient) {\r... */\n      swap3\n      swap2\n      pop\n      pop\n      jump\t// out\n        /* \"WandInstruments.sol\":14883:15145  function _safeTransferFrom(\r... */\n    tag_300:\n        /* \"WandInstruments.sol\":15031:15040  bool sent */\n      0x00\n        /* \"WandInstruments.sol\":15043:15048  token */\n      dup5\n        /* \"WandInstruments.sol\":15043:15061  token.transferFrom */\n      0xffffffffffffffffffffffffffffffffffffffff\n      and\n      0x23b872dd\n        /* \"WandInstruments.sol\":15062:15068  sender */\n      dup6\n        /* \"WandInstruments.sol\":15070:15079  recipient */\n      dup6\n        /* \"WandInstruments.sol\":15081:15087  amount */\n      dup6\n        /* \"WandInstruments.sol\":15043:15088  token.transferFrom(sender, recipient, amount) */\n      mload(0x40)\n      dup5\n      0xffffffff\n      and\n      0xe0\n      shl\n      dup2\n      mstore\n      0x04\n      add\n      tag_493\n      swap4\n      swap3\n      swap2\n      swap1\n      tag_494\n      jump\t// in\n    tag_493:\n      0x20\n      mload(0x40)\n      dup1\n      dup4\n      sub\n      dup2\n      0x00\n      dup8\n      dup1\n      extcodesize\n      iszero\n      dup1\n      iszero\n      tag_495\n      jumpi\n      0x00\n      dup1\n      revert\n    tag_495:\n      pop\n      gas\n      call\n      iszero\n      dup1\n      iszero\n      tag_497\n      jumpi\n      returndatasize\n      0x00\n      dup1\n      returndatacopy\n      revert(0x00, returndatasize)\n    tag_497:\n      pop\n      pop\n      pop\n      pop\n      mload(0x40)\n      returndatasize\n      not(0x1f)\n      0x1f\n      dup3\n      add\n      and\n      dup3\n      add\n      dup1\n      0x40\n      mstore\n      pop\n      dup2\n      add\n      swap1\n      tag_498\n      swap2\n      swap1\n      tag_440\n      jump\t// in\n    tag_498:\n        /* \"WandInstruments.sol\":15031:15088  bool sent = token.transferFrom(sender, recipient, amount) */\n      swap1\n      pop\n        /* \"WandInstruments.sol\":15107:15111  sent */\n      dup1\n        /* \"WandInstruments.sol\":15099:15137  require(sent, \"Token transfer failed\") */\n      tag_499\n      jumpi\n      mload(0x40)\n      0x08c379a000000000000000000000000000000000000000000000000000000000\n      dup2\n      mstore\n      0x04\n      add\n      tag_500\n      swap1\n      tag_501\n      jump\t// in\n    tag_500:\n      mload(0x40)\n      dup1\n      swap2\n      sub\n      swap1\n      revert\n    tag_499:\n        /* \"WandInstruments.sol\":15020:15145  {\r... */\n      pop\n        /* \"WandInstruments.sol\":14883:15145  function _safeTransferFrom(\r... */\n      pop\n      pop\n      pop\n      pop\n      jump\t// out\n        /* \"Ownable.sol\":2263:2450  function _transferOwnership(address newOwner) internal virtual {... */\n    tag_334:\n        /* \"Ownable.sol\":2336:2352  address oldOwner */\n      0x00\n        /* \"Ownable.sol\":2355:2361  _owner */\n      0x01\n      0x00\n      swap1\n      sload\n      swap1\n      0x0100\n      exp\n      swap1\n      div\n      0xffffffffffffffffffffffffffffffffffffffff\n      and\n        /* \"Ownable.sol\":2336:2361  address oldOwner = _owner */\n      swap1\n      pop\n        /* \"Ownable.sol\":2380:2388  newOwner */\n      dup2\n        /* \"Ownable.sol\":2371:2377  _owner */\n      0x01\n      0x00\n        /* \"Ownable.sol\":2371:2388  _owner = newOwner */\n      0x0100\n      exp\n      dup2\n      sload\n      dup2\n      0xffffffffffffffffffffffffffffffffffffffff\n      mul\n      not\n      and\n      swap1\n      dup4\n      0xffffffffffffffffffffffffffffffffffffffff\n      and\n      mul\n      or\n      swap1\n      sstore\n      pop\n        /* \"Ownable.sol\":2434:2442  newOwner */\n      dup2\n        /* \"Ownable.sol\":2403:2443  OwnershipTransferred(oldOwner, newOwner) */\n      0xffffffffffffffffffffffffffffffffffffffff\n      and\n        /* \"Ownable.sol\":2424:2432  oldOwner */\n      dup2\n        /* \"Ownable.sol\":2403:2443  OwnershipTransferred(oldOwner, newOwner) */\n      0xffffffffffffffffffffffffffffffffffffffff\n      and\n      0x8be0079c531659141344cd1fd0a4f28419497f9722a3daafe3b4186f6b6457e0\n      mload(0x40)\n      mload(0x40)\n      dup1\n      swap2\n      sub\n      swap1\n      log3\n        /* \"Ownable.sol\":2326:2450  {... */\n      pop\n        /* \"Ownable.sol\":2263:2450  function _transferOwnership(address newOwner) internal virtual {... */\n      pop\n      jump\t// out\n        /* \"WandInstruments.sol\":3026:3268  function mul(uint256 a, uint256 b) internal pure returns (uint256) {\r... */\n    tag_481:\n        /* \"WandInstruments.sol\":3084:3091  uint256 */\n      0x00\n        /* \"WandInstruments.sol\":3113:3114  0 */\n      dup1\n        /* \"WandInstruments.sol\":3108:3109  a */\n      dup4\n        /* \"WandInstruments.sol\":3108:3114  a == 0 */\n      eq\n        /* \"WandInstruments.sol\":3104:3147  if (a == 0) {\r... */\n      iszero\n      tag_504\n      jumpi\n        /* \"WandInstruments.sol\":3134:3135  0 */\n      0x00\n        /* \"WandInstruments.sol\":3127:3135  return 0 */\n      swap1\n      pop\n      jump(tag_503)\n        /* \"WandInstruments.sol\":3104:3147  if (a == 0) {\r... */\n    tag_504:\n        /* \"WandInstruments.sol\":3157:3166  uint256 c */\n      0x00\n        /* \"WandInstruments.sol\":3173:3174  b */\n      dup3\n        /* \"WandInstruments.sol\":3169:3170  a */\n      dup5\n        /* \"WandInstruments.sol\":3169:3174  a * b */\n      tag_505\n      swap2\n      swap1\n      tag_308\n      jump\t// in\n    tag_505:\n        /* \"WandInstruments.sol\":3157:3174  uint256 c = a * b */\n      swap1\n      pop\n        /* \"WandInstruments.sol\":3202:3203  b */\n      dup3\n        /* \"WandInstruments.sol\":3197:3198  a */\n      dup5\n        /* \"WandInstruments.sol\":3193:3194  c */\n      dup3\n        /* \"WandInstruments.sol\":3193:3198  c / a */\n      tag_506\n      swap2\n      swap1\n      tag_266\n      jump\t// in\n    tag_506:\n        /* \"WandInstruments.sol\":3193:3203  c / a == b */\n      eq\n        /* \"WandInstruments.sol\":3185:3241  require(c / a == b, \"uint overflow from multiplication\") */\n      tag_507\n      jumpi\n      mload(0x40)\n      0x08c379a000000000000000000000000000000000000000000000000000000000\n      dup2\n      mstore\n      0x04\n      add\n      tag_508\n      swap1\n      tag_509\n      jump\t// in\n    tag_508:\n      mload(0x40)\n      dup1\n      swap2\n      sub\n      swap1\n      revert\n    tag_507:\n        /* \"WandInstruments.sol\":3259:3260  c */\n      dup1\n        /* \"WandInstruments.sol\":3252:3260  return c */\n      swap2\n      pop\n      pop\n        /* \"WandInstruments.sol\":3026:3268  function mul(uint256 a, uint256 b) internal pure returns (uint256) {\r... */\n    tag_503:\n      swap3\n      swap2\n      pop\n      pop\n      jump\t// out\n        /* \"WandInstruments.sol\":3644:3829  function add(uint256 a, uint256 b) internal pure returns (uint256) {\r... */\n    tag_484:\n        /* \"WandInstruments.sol\":3702:3709  uint256 */\n      0x00\n        /* \"WandInstruments.sol\":3722:3731  uint256 c */\n      dup1\n        /* \"WandInstruments.sol\":3738:3739  b */\n      dup3\n        /* \"WandInstruments.sol\":3734:3735  a */\n      dup5\n        /* \"WandInstruments.sol\":3734:3739  a + b */\n      tag_511\n      swap2\n      swap1\n      tag_223\n      jump\t// in\n    tag_511:\n        /* \"WandInstruments.sol\":3722:3739  uint256 c = a + b */\n      swap1\n      pop\n        /* \"WandInstruments.sol\":3763:3764  a */\n      dup4\n        /* \"WandInstruments.sol\":3758:3759  c */\n      dup2\n        /* \"WandInstruments.sol\":3758:3764  c >= a */\n      lt\n      iszero\n        /* \"WandInstruments.sol\":3750:3802  require(c >= a, \"uint overflow from multiplication\") */\n      tag_512\n      jumpi\n      mload(0x40)\n      0x08c379a000000000000000000000000000000000000000000000000000000000\n      dup2\n      mstore\n      0x04\n      add\n      tag_513\n      swap1\n      tag_509\n      jump\t// in\n    tag_513:\n      mload(0x40)\n      dup1\n      swap2\n      sub\n      swap1\n      revert\n    tag_512:\n        /* \"WandInstruments.sol\":3820:3821  c */\n      dup1\n        /* \"WandInstruments.sol\":3813:3821  return c */\n      swap2\n      pop\n      pop\n        /* \"WandInstruments.sol\":3644:3829  function add(uint256 a, uint256 b) internal pure returns (uint256) {\r... */\n      swap3\n      swap2\n      pop\n      pop\n      jump\t// out\n        /* \"#utility.yul\":7:419   */\n    tag_515:\n        /* \"#utility.yul\":85:90   */\n      0x00\n        /* \"#utility.yul\":110:176   */\n      tag_517\n        /* \"#utility.yul\":126:175   */\n      tag_518\n        /* \"#utility.yul\":168:174   */\n      dup5\n        /* \"#utility.yul\":126:175   */\n      tag_519\n      jump\t// in\n    tag_518:\n        /* \"#utility.yul\":110:176   */\n      tag_520\n      jump\t// in\n    tag_517:\n        /* \"#utility.yul\":101:176   */\n      swap1\n      pop\n        /* \"#utility.yul\":199:205   */\n      dup3\n        /* \"#utility.yul\":192:197   */\n      dup2\n        /* \"#utility.yul\":185:206   */\n      mstore\n        /* \"#utility.yul\":237:241   */\n      0x20\n        /* \"#utility.yul\":230:235   */\n      dup2\n        /* \"#utility.yul\":226:242   */\n      add\n        /* \"#utility.yul\":275:278   */\n      dup5\n        /* \"#utility.yul\":266:272   */\n      dup5\n        /* \"#utility.yul\":261:264   */\n      dup5\n        /* \"#utility.yul\":257:273   */\n      add\n        /* \"#utility.yul\":254:279   */\n      gt\n        /* \"#utility.yul\":251:363   */\n      iszero\n      tag_521\n      jumpi\n        /* \"#utility.yul\":282:361   */\n      tag_522\n      tag_523\n      jump\t// in\n    tag_522:\n        /* \"#utility.yul\":251:363   */\n    tag_521:\n        /* \"#utility.yul\":372:413   */\n      tag_524\n        /* \"#utility.yul\":406:412   */\n      dup5\n        /* \"#utility.yul\":401:404   */\n      dup3\n        /* \"#utility.yul\":396:399   */\n      dup6\n        /* \"#utility.yul\":372:413   */\n      tag_525\n      jump\t// in\n    tag_524:\n        /* \"#utility.yul\":91:419   */\n      pop\n        /* \"#utility.yul\":7:419   */\n      swap4\n      swap3\n      pop\n      pop\n      pop\n      jump\t// out\n        /* \"#utility.yul\":425:564   */\n    tag_526:\n        /* \"#utility.yul\":471:476   */\n      0x00\n        /* \"#utility.yul\":509:515   */\n      dup2\n        /* \"#utility.yul\":496:516   */\n      calldataload\n        /* \"#utility.yul\":487:516   */\n      swap1\n      pop\n        /* \"#utility.yul\":525:558   */\n      tag_528\n        /* \"#utility.yul\":552:557   */\n      dup2\n        /* \"#utility.yul\":525:558   */\n      tag_529\n      jump\t// in\n    tag_528:\n        /* \"#utility.yul\":425:564   */\n      swap3\n      swap2\n      pop\n      pop\n      jump\t// out\n        /* \"#utility.yul\":570:707   */\n    tag_530:\n        /* \"#utility.yul\":624:629   */\n      0x00\n        /* \"#utility.yul\":655:661   */\n      dup2\n        /* \"#utility.yul\":649:662   */\n      mload\n        /* \"#utility.yul\":640:662   */\n      swap1\n      pop\n        /* \"#utility.yul\":671:701   */\n      tag_532\n        /* \"#utility.yul\":695:700   */\n      dup2\n        /* \"#utility.yul\":671:701   */\n      tag_533\n      jump\t// in\n    tag_532:\n        /* \"#utility.yul\":570:707   */\n      swap3\n      swap2\n      pop\n      pop\n      jump\t// out\n        /* \"#utility.yul\":727:1067   */\n    tag_534:\n        /* \"#utility.yul\":783:788   */\n      0x00\n        /* \"#utility.yul\":832:835   */\n      dup3\n        /* \"#utility.yul\":825:829   */\n      0x1f\n        /* \"#utility.yul\":817:823   */\n      dup4\n        /* \"#utility.yul\":813:830   */\n      add\n        /* \"#utility.yul\":809:836   */\n      slt\n        /* \"#utility.yul\":799:921   */\n      tag_536\n      jumpi\n        /* \"#utility.yul\":840:919   */\n      tag_537\n      tag_538\n      jump\t// in\n    tag_537:\n        /* \"#utility.yul\":799:921   */\n    tag_536:\n        /* \"#utility.yul\":957:963   */\n      dup2\n        /* \"#utility.yul\":944:964   */\n      calldataload\n        /* \"#utility.yul\":982:1061   */\n      tag_539\n        /* \"#utility.yul\":1057:1060   */\n      dup5\n        /* \"#utility.yul\":1049:1055   */\n      dup3\n        /* \"#utility.yul\":1042:1046   */\n      0x20\n        /* \"#utility.yul\":1034:1040   */\n      dup7\n        /* \"#utility.yul\":1030:1047   */\n      add\n        /* \"#utility.yul\":982:1061   */\n      tag_515\n      jump\t// in\n    tag_539:\n        /* \"#utility.yul\":973:1061   */\n      swap2\n      pop\n        /* \"#utility.yul\":789:1067   */\n      pop\n        /* \"#utility.yul\":727:1067   */\n      swap3\n      swap2\n      pop\n      pop\n      jump\t// out\n        /* \"#utility.yul\":1073:1212   */\n    tag_540:\n        /* \"#utility.yul\":1119:1124   */\n      0x00\n        /* \"#utility.yul\":1157:1163   */\n      dup2\n        /* \"#utility.yul\":1144:1164   */\n      calldataload\n        /* \"#utility.yul\":1135:1164   */\n      swap1\n      pop\n        /* \"#utility.yul\":1173:1206   */\n      tag_542\n        /* \"#utility.yul\":1200:1205   */\n      dup2\n        /* \"#utility.yul\":1173:1206   */\n      tag_543\n      jump\t// in\n    tag_542:\n        /* \"#utility.yul\":1073:1212   */\n      swap3\n      swap2\n      pop\n      pop\n      jump\t// out\n        /* \"#utility.yul\":1218:1361   */\n    tag_544:\n        /* \"#utility.yul\":1275:1280   */\n      0x00\n        /* \"#utility.yul\":1306:1312   */\n      dup2\n        /* \"#utility.yul\":1300:1313   */\n      mload\n        /* \"#utility.yul\":1291:1313   */\n      swap1\n      pop\n        /* \"#utility.yul\":1322:1355   */\n      tag_546\n        /* \"#utility.yul\":1349:1354   */\n      dup2\n        /* \"#utility.yul\":1322:1355   */\n      tag_543\n      jump\t// in\n    tag_546:\n        /* \"#utility.yul\":1218:1361   */\n      swap3\n      swap2\n      pop\n      pop\n      jump\t// out\n        /* \"#utility.yul\":1367:1696   */\n    tag_71:\n        /* \"#utility.yul\":1426:1432   */\n      0x00\n        /* \"#utility.yul\":1475:1477   */\n      0x20\n        /* \"#utility.yul\":1463:1472   */\n      dup3\n        /* \"#utility.yul\":1454:1461   */\n      dup5\n        /* \"#utility.yul\":1450:1473   */\n      sub\n        /* \"#utility.yul\":1446:1478   */\n      slt\n        /* \"#utility.yul\":1443:1562   */\n      iszero\n      tag_548\n      jumpi\n        /* \"#utility.yul\":1481:1560   */\n      tag_549\n      tag_550\n      jump\t// in\n    tag_549:\n        /* \"#utility.yul\":1443:1562   */\n    tag_548:\n        /* \"#utility.yul\":1601:1602   */\n      0x00\n        /* \"#utility.yul\":1626:1679   */\n      tag_551\n        /* \"#utility.yul\":1671:1678   */\n      dup5\n        /* \"#utility.yul\":1662:1668   */\n      dup3\n        /* \"#utility.yul\":1651:1660   */\n      dup6\n        /* \"#utility.yul\":1647:1669   */\n      add\n        /* \"#utility.yul\":1626:1679   */\n      tag_526\n      jump\t// in\n    tag_551:\n        /* \"#utility.yul\":1616:1679   */\n      swap2\n      pop\n        /* \"#utility.yul\":1572:1689   */\n      pop\n        /* \"#utility.yul\":1367:1696   */\n      swap3\n      swap2\n      pop\n      pop\n      jump\t// out\n        /* \"#utility.yul\":1702:2356   */\n    tag_172:\n        /* \"#utility.yul\":1780:1786   */\n      0x00\n        /* \"#utility.yul\":1788:1794   */\n      dup1\n        /* \"#utility.yul\":1837:1839   */\n      0x40\n        /* \"#utility.yul\":1825:1834   */\n      dup4\n        /* \"#utility.yul\":1816:1823   */\n      dup6\n        /* \"#utility.yul\":1812:1835   */\n      sub\n        /* \"#utility.yul\":1808:1840   */\n      slt\n        /* \"#utility.yul\":1805:1924   */\n      iszero\n      tag_553\n      jumpi\n        /* \"#utility.yul\":1843:1922   */\n      tag_554\n      tag_550\n      jump\t// in\n    tag_554:\n        /* \"#utility.yul\":1805:1924   */\n    tag_553:\n        /* \"#utility.yul\":1963:1964   */\n      0x00\n        /* \"#utility.yul\":1988:2041   */\n      tag_555\n        /* \"#utility.yul\":2033:2040   */\n      dup6\n        /* \"#utility.yul\":2024:2030   */\n      dup3\n        /* \"#utility.yul\":2013:2022   */\n      dup7\n        /* \"#utility.yul\":2009:2031   */\n      add\n        /* \"#utility.yul\":1988:2041   */\n      tag_526\n      jump\t// in\n    tag_555:\n        /* \"#utility.yul\":1978:2041   */\n      swap3\n      pop\n        /* \"#utility.yul\":1934:2051   */\n      pop\n        /* \"#utility.yul\":2118:2120   */\n      0x20\n        /* \"#utility.yul\":2107:2116   */\n      dup4\n        /* \"#utility.yul\":2103:2121   */\n      add\n        /* \"#utility.yul\":2090:2122   */\n      calldataload\n        /* \"#utility.yul\":2149:2167   */\n      0xffffffffffffffff\n        /* \"#utility.yul\":2141:2147   */\n      dup2\n        /* \"#utility.yul\":2138:2168   */\n      gt\n        /* \"#utility.yul\":2135:2252   */\n      iszero\n      tag_556\n      jumpi\n        /* \"#utility.yul\":2171:2250   */\n      tag_557\n      tag_558\n      jump\t// in\n    tag_557:\n        /* \"#utility.yul\":2135:2252   */\n    tag_556:\n        /* \"#utility.yul\":2276:2339   */\n      tag_559\n        /* \"#utility.yul\":2331:2338   */\n      dup6\n        /* \"#utility.yul\":2322:2328   */\n      dup3\n        /* \"#utility.yul\":2311:2320   */\n      dup7\n        /* \"#utility.yul\":2307:2329   */\n      add\n        /* \"#utility.yul\":2276:2339   */\n      tag_534\n      jump\t// in\n    tag_559:\n        /* \"#utility.yul\":2266:2339   */\n      swap2\n      pop\n        /* \"#utility.yul\":2061:2349   */\n      pop\n        /* \"#utility.yul\":1702:2356   */\n      swap3\n      pop\n      swap3\n      swap1\n      pop\n      jump\t// out\n        /* \"#utility.yul\":2362:2707   */\n    tag_440:\n        /* \"#utility.yul\":2429:2435   */\n      0x00\n        /* \"#utility.yul\":2478:2480   */\n      0x20\n        /* \"#utility.yul\":2466:2475   */\n      dup3\n        /* \"#utility.yul\":2457:2464   */\n      dup5\n        /* \"#utility.yul\":2453:2476   */\n      sub\n        /* \"#utility.yul\":2449:2481   */\n      slt\n        /* \"#utility.yul\":2446:2565   */\n      iszero\n      tag_561\n      jumpi\n        /* \"#utility.yul\":2484:2563   */\n      tag_562\n      tag_550\n      jump\t// in\n    tag_562:\n        /* \"#utility.yul\":2446:2565   */\n    tag_561:\n        /* \"#utility.yul\":2604:2605   */\n      0x00\n        /* \"#utility.yul\":2629:2690   */\n      tag_563\n        /* \"#utility.yul\":2682:2689   */\n      dup5\n        /* \"#utility.yul\":2673:2679   */\n      dup3\n        /* \"#utility.yul\":2662:2671   */\n      dup6\n        /* \"#utility.yul\":2658:2680   */\n      add\n        /* \"#utility.yul\":2629:2690   */\n      tag_530\n      jump\t// in\n    tag_563:\n        /* \"#utility.yul\":2619:2690   */\n      swap2\n      pop\n        /* \"#utility.yul\":2575:2700   */\n      pop\n        /* \"#utility.yul\":2362:2707   */\n      swap3\n      swap2\n      pop\n      pop\n      jump\t// out\n        /* \"#utility.yul\":2713:3222   */\n    tag_162:\n        /* \"#utility.yul\":2782:2788   */\n      0x00\n        /* \"#utility.yul\":2831:2833   */\n      0x20\n        /* \"#utility.yul\":2819:2828   */\n      dup3\n        /* \"#utility.yul\":2810:2817   */\n      dup5\n        /* \"#utility.yul\":2806:2829   */\n      sub\n        /* \"#utility.yul\":2802:2834   */\n      slt\n        /* \"#utility.yul\":2799:2918   */\n      iszero\n      tag_565\n      jumpi\n        /* \"#utility.yul\":2837:2916   */\n      tag_566\n      tag_550\n      jump\t// in\n    tag_566:\n        /* \"#utility.yul\":2799:2918   */\n    tag_565:\n        /* \"#utility.yul\":2985:2986   */\n      0x00\n        /* \"#utility.yul\":2974:2983   */\n      dup3\n        /* \"#utility.yul\":2970:2987   */\n      add\n        /* \"#utility.yul\":2957:2988   */\n      calldataload\n        /* \"#utility.yul\":3015:3033   */\n      0xffffffffffffffff\n        /* \"#utility.yul\":3007:3013   */\n      dup2\n        /* \"#utility.yul\":3004:3034   */\n      gt\n        /* \"#utility.yul\":3001:3118   */\n      iszero\n      tag_567\n      jumpi\n        /* \"#utility.yul\":3037:3116   */\n      tag_568\n      tag_558\n      jump\t// in\n    tag_568:\n        /* \"#utility.yul\":3001:3118   */\n    tag_567:\n        /* \"#utility.yul\":3142:3205   */\n      tag_569\n        /* \"#utility.yul\":3197:3204   */\n      dup5\n        /* \"#utility.yul\":3188:3194   */\n      dup3\n        /* \"#utility.yul\":3177:3186   */\n      dup6\n        /* \"#utility.yul\":3173:3195   */\n      add\n        /* \"#utility.yul\":3142:3205   */\n      tag_534\n      jump\t// in\n    tag_569:\n        /* \"#utility.yul\":3132:3205   */\n      swap2\n      pop\n        /* \"#utility.yul\":2928:3215   */\n      pop\n        /* \"#utility.yul\":2713:3222   */\n      swap3\n      swap2\n      pop\n      pop\n      jump\t// out\n        /* \"#utility.yul\":3228:4027   */\n    tag_197:\n        /* \"#utility.yul\":3315:3321   */\n      0x00\n        /* \"#utility.yul\":3323:3329   */\n      dup1\n        /* \"#utility.yul\":3331:3337   */\n      0x00\n        /* \"#utility.yul\":3380:3382   */\n      0x60\n        /* \"#utility.yul\":3368:3377   */\n      dup5\n        /* \"#utility.yul\":3359:3366   */\n      dup7\n        /* \"#utility.yul\":3355:3378   */\n      sub\n        /* \"#utility.yul\":3351:3383   */\n      slt\n        /* \"#utility.yul\":3348:3467   */\n      iszero\n      tag_571\n      jumpi\n        /* \"#utility.yul\":3386:3465   */\n      tag_572\n      tag_550\n      jump\t// in\n    tag_572:\n        /* \"#utility.yul\":3348:3467   */\n    tag_571:\n        /* \"#utility.yul\":3534:3535   */\n      0x00\n        /* \"#utility.yul\":3523:3532   */\n      dup5\n        /* \"#utility.yul\":3519:3536   */\n      add\n        /* \"#utility.yul\":3506:3537   */\n      calldataload\n        /* \"#utility.yul\":3564:3582   */\n      0xffffffffffffffff\n        /* \"#utility.yul\":3556:3562   */\n      dup2\n        /* \"#utility.yul\":3553:3583   */\n      gt\n        /* \"#utility.yul\":3550:3667   */\n      iszero\n      tag_573\n      jumpi\n        /* \"#utility.yul\":3586:3665   */\n      tag_574\n      tag_558\n      jump\t// in\n    tag_574:\n        /* \"#utility.yul\":3550:3667   */\n    tag_573:\n        /* \"#utility.yul\":3691:3754   */\n      tag_575\n        /* \"#utility.yul\":3746:3753   */\n      dup7\n        /* \"#utility.yul\":3737:3743   */\n      dup3\n        /* \"#utility.yul\":3726:3735   */\n      dup8\n        /* \"#utility.yul\":3722:3744   */\n      add\n        /* \"#utility.yul\":3691:3754   */\n      tag_534\n      jump\t// in\n    tag_575:\n        /* \"#utility.yul\":3681:3754   */\n      swap4\n      pop\n        /* \"#utility.yul\":3477:3764   */\n      pop\n        /* \"#utility.yul\":3803:3805   */\n      0x20\n        /* \"#utility.yul\":3829:3882   */\n      tag_576\n        /* \"#utility.yul\":3874:3881   */\n      dup7\n        /* \"#utility.yul\":3865:3871   */\n      dup3\n        /* \"#utility.yul\":3854:3863   */\n      dup8\n        /* \"#utility.yul\":3850:3872   */\n      add\n        /* \"#utility.yul\":3829:3882   */\n      tag_526\n      jump\t// in\n    tag_576:\n        /* \"#utility.yul\":3819:3882   */\n      swap3\n      pop\n        /* \"#utility.yul\":3774:3892   */\n      pop\n        /* \"#utility.yul\":3931:3933   */\n      0x40\n        /* \"#utility.yul\":3957:4010   */\n      tag_577\n        /* \"#utility.yul\":4002:4009   */\n      dup7\n        /* \"#utility.yul\":3993:3999   */\n      dup3\n        /* \"#utility.yul\":3982:3991   */\n      dup8\n        /* \"#utility.yul\":3978:4000   */\n      add\n        /* \"#utility.yul\":3957:4010   */\n      tag_540\n      jump\t// in\n    tag_577:\n        /* \"#utility.yul\":3947:4010   */\n      swap2\n      pop\n        /* \"#utility.yul\":3902:4020   */\n      pop\n        /* \"#utility.yul\":3228:4027   */\n      swap3\n      pop\n      swap3\n      pop\n      swap3\n      jump\t// out\n        /* \"#utility.yul\":4033:4362   */\n    tag_78:\n        /* \"#utility.yul\":4092:4098   */\n      0x00\n        /* \"#utility.yul\":4141:4143   */\n      0x20\n        /* \"#utility.yul\":4129:4138   */\n      dup3\n        /* \"#utility.yul\":4120:4127   */\n      dup5\n        /* \"#utility.yul\":4116:4139   */\n      sub\n        /* \"#utility.yul\":4112:4144   */\n      slt\n        /* \"#utility.yul\":4109:4228   */\n      iszero\n      tag_579\n      jumpi\n        /* \"#utility.yul\":4147:4226   */\n      tag_580\n      tag_550\n      jump\t// in\n    tag_580:\n        /* \"#utility.yul\":4109:4228   */\n    tag_579:\n        /* \"#utility.yul\":4267:4268   */\n      0x00\n        /* \"#utility.yul\":4292:4345   */\n      tag_581\n        /* \"#utility.yul\":4337:4344   */\n      dup5\n        /* \"#utility.yul\":4328:4334   */\n      dup3\n        /* \"#utility.yul\":4317:4326   */\n      dup6\n        /* \"#utility.yul\":4313:4335   */\n      add\n        /* \"#utility.yul\":4292:4345   */\n      tag_540\n      jump\t// in\n    tag_581:\n        /* \"#utility.yul\":4282:4345   */\n      swap2\n      pop\n        /* \"#utility.yul\":4238:4355   */\n      pop\n        /* \"#utility.yul\":4033:4362   */\n      swap3\n      swap2\n      pop\n      pop\n      jump\t// out\n        /* \"#utility.yul\":4368:4719   */\n    tag_217:\n        /* \"#utility.yul\":4438:4444   */\n      0x00\n        /* \"#utility.yul\":4487:4489   */\n      0x20\n        /* \"#utility.yul\":4475:4484   */\n      dup3\n        /* \"#utility.yul\":4466:4473   */\n      dup5\n        /* \"#utility.yul\":4462:4485   */\n      sub\n        /* \"#utility.yul\":4458:4490   */\n      slt\n        /* \"#utility.yul\":4455:4574   */\n      iszero\n      tag_583\n      jumpi\n        /* \"#utility.yul\":4493:4572   */\n      tag_584\n      tag_550\n      jump\t// in\n    tag_584:\n        /* \"#utility.yul\":4455:4574   */\n    tag_583:\n        /* \"#utility.yul\":4613:4614   */\n      0x00\n        /* \"#utility.yul\":4638:4702   */\n      tag_585\n        /* \"#utility.yul\":4694:4701   */\n      dup5\n        /* \"#utility.yul\":4685:4691   */\n      dup3\n        /* \"#utility.yul\":4674:4683   */\n      dup6\n        /* \"#utility.yul\":4670:4692   */\n      add\n        /* \"#utility.yul\":4638:4702   */\n      tag_544\n      jump\t// in\n    tag_585:\n        /* \"#utility.yul\":4628:4702   */\n      swap2\n      pop\n        /* \"#utility.yul\":4584:4712   */\n      pop\n        /* \"#utility.yul\":4368:4719   */\n      swap3\n      swap2\n      pop\n      pop\n      jump\t// out\n        /* \"#utility.yul\":4725:5379   */\n    tag_145:\n        /* \"#utility.yul\":4803:4809   */\n      0x00\n        /* \"#utility.yul\":4811:4817   */\n      dup1\n        /* \"#utility.yul\":4860:4862   */\n      0x40\n        /* \"#utility.yul\":4848:4857   */\n      dup4\n        /* \"#utility.yul\":4839:4846   */\n      dup6\n        /* \"#utility.yul\":4835:4858   */\n      sub\n        /* \"#utility.yul\":4831:4863   */\n      slt\n        /* \"#utility.yul\":4828:4947   */\n      iszero\n      tag_587\n      jumpi\n        /* \"#utility.yul\":4866:4945   */\n      tag_588\n      tag_550\n      jump\t// in\n    tag_588:\n        /* \"#utility.yul\":4828:4947   */\n    tag_587:\n        /* \"#utility.yul\":4986:4987   */\n      0x00\n        /* \"#utility.yul\":5011:5064   */\n      tag_589\n        /* \"#utility.yul\":5056:5063   */\n      dup6\n        /* \"#utility.yul\":5047:5053   */\n      dup3\n        /* \"#utility.yul\":5036:5045   */\n      dup7\n        /* \"#utility.yul\":5032:5054   */\n      add\n        /* \"#utility.yul\":5011:5064   */\n      tag_540\n      jump\t// in\n    tag_589:\n        /* \"#utility.yul\":5001:5064   */\n      swap3\n      pop\n        /* \"#utility.yul\":4957:5074   */\n      pop\n        /* \"#utility.yul\":5141:5143   */\n      0x20\n        /* \"#utility.yul\":5130:5139   */\n      dup4\n        /* \"#utility.yul\":5126:5144   */\n      add\n        /* \"#utility.yul\":5113:5145   */\n      calldataload\n        /* \"#utility.yul\":5172:5190   */\n      0xffffffffffffffff\n        /* \"#utility.yul\":5164:5170   */\n      dup2\n        /* \"#utility.yul\":5161:5191   */\n      gt\n        /* \"#utility.yul\":5158:5275   */\n      iszero\n      tag_590\n      jumpi\n        /* \"#utility.yul\":5194:5273   */\n      tag_591\n      tag_558\n      jump\t// in\n    tag_591:\n        /* \"#utility.yul\":5158:5275   */\n    tag_590:\n        /* \"#utility.yul\":5299:5362   */\n      tag_592\n        /* \"#utility.yul\":5354:5361   */\n      dup6\n        /* \"#utility.yul\":5345:5351   */\n      dup3\n        /* \"#utility.yul\":5334:5343   */\n      dup7\n        /* \"#utility.yul\":5330:5352   */\n      add\n        /* \"#utility.yul\":5299:5362   */\n      tag_534\n      jump\t// in\n    tag_592:\n        /* \"#utility.yul\":5289:5362   */\n      swap2\n      pop\n        /* \"#utility.yul\":5084:5372   */\n      pop\n        /* \"#utility.yul\":4725:5379   */\n      swap3\n      pop\n      swap3\n      swap1\n      pop\n      jump\t// out\n        /* \"#utility.yul\":5385:6184   */\n    tag_184:\n        /* \"#utility.yul\":5472:5478   */\n      0x00\n        /* \"#utility.yul\":5480:5486   */\n      dup1\n        /* \"#utility.yul\":5488:5494   */\n      0x00\n        /* \"#utility.yul\":5537:5539   */\n      0x60\n        /* \"#utility.yul\":5525:5534   */\n      dup5\n        /* \"#utility.yul\":5516:5523   */\n      dup7\n        /* \"#utility.yul\":5512:5535   */\n      sub\n        /* \"#utility.yul\":5508:5540   */\n      slt\n        /* \"#utility.yul\":5505:5624   */\n      iszero\n      tag_594\n      jumpi\n        /* \"#utility.yul\":5543:5622   */\n      tag_595\n      tag_550\n      jump\t// in\n    tag_595:\n        /* \"#utility.yul\":5505:5624   */\n    tag_594:\n        /* \"#utility.yul\":5663:5664   */\n      0x00\n        /* \"#utility.yul\":5688:5741   */\n      tag_596\n        /* \"#utility.yul\":5733:5740   */\n      dup7\n        /* \"#utility.yul\":5724:5730   */\n      dup3\n        /* \"#utility.yul\":5713:5722   */\n      dup8\n        /* \"#utility.yul\":5709:5731   */\n      add\n        /* \"#utility.yul\":5688:5741   */\n      tag_540\n      jump\t// in\n    tag_596:\n        /* \"#utility.yul\":5678:5741   */\n      swap4\n      pop\n        /* \"#utility.yul\":5634:5751   */\n      pop\n        /* \"#utility.yul\":5790:5792   */\n      0x20\n        /* \"#utility.yul\":5816:5869   */\n      tag_597\n        /* \"#utility.yul\":5861:5868   */\n      dup7\n        /* \"#utility.yul\":5852:5858   */\n      dup3\n        /* \"#utility.yul\":5841:5850   */\n      dup8\n        /* \"#utility.yul\":5837:5859   */\n      add\n        /* \"#utility.yul\":5816:5869   */\n      tag_540\n      jump\t// in\n    tag_597:\n        /* \"#utility.yul\":5806:5869   */\n      swap3\n      pop\n        /* \"#utility.yul\":5761:5879   */\n      pop\n        /* \"#utility.yul\":5946:5948   */\n      0x40\n        /* \"#utility.yul\":5935:5944   */\n      dup5\n        /* \"#utility.yul\":5931:5949   */\n      add\n        /* \"#utility.yul\":5918:5950   */\n      calldataload\n        /* \"#utility.yul\":5977:5995   */\n      0xffffffffffffffff\n        /* \"#utility.yul\":5969:5975   */\n      dup2\n        /* \"#utility.yul\":5966:5996   */\n      gt\n        /* \"#utility.yul\":5963:6080   */\n      iszero\n      tag_598\n      jumpi\n        /* \"#utility.yul\":5999:6078   */\n      tag_599\n      tag_558\n      jump\t// in\n    tag_599:\n        /* \"#utility.yul\":5963:6080   */\n    tag_598:\n        /* \"#utility.yul\":6104:6167   */\n      tag_600\n        /* \"#utility.yul\":6159:6166   */\n      dup7\n        /* \"#utility.yul\":6150:6156   */\n      dup3\n        /* \"#utility.yul\":6139:6148   */\n      dup8\n        /* \"#utility.yul\":6135:6157   */\n      add\n        /* \"#utility.yul\":6104:6167   */\n      tag_534\n      jump\t// in\n    tag_600:\n        /* \"#utility.yul\":6094:6167   */\n      swap2\n      pop\n        /* \"#utility.yul\":5889:6177   */\n      pop\n        /* \"#utility.yul\":5385:6184   */\n      swap3\n      pop\n      swap3\n      pop\n      swap3\n      jump\t// out\n        /* \"#utility.yul\":6190:6308   */\n    tag_601:\n        /* \"#utility.yul\":6277:6301   */\n      tag_603\n        /* \"#utility.yul\":6295:6300   */\n      dup2\n        /* \"#utility.yul\":6277:6301   */\n      tag_604\n      jump\t// in\n    tag_603:\n        /* \"#utility.yul\":6272:6275   */\n      dup3\n        /* \"#utility.yul\":6265:6302   */\n      mstore\n        /* \"#utility.yul\":6190:6308   */\n      pop\n      pop\n      jump\t// out\n        /* \"#utility.yul\":6314:6475   */\n    tag_605:\n        /* \"#utility.yul\":6416:6468   */\n      tag_607\n        /* \"#utility.yul\":6462:6467   */\n      dup2\n        /* \"#utility.yul\":6416:6468   */\n      tag_608\n      jump\t// in\n    tag_607:\n        /* \"#utility.yul\":6411:6414   */\n      dup3\n        /* \"#utility.yul\":6404:6469   */\n      mstore\n        /* \"#utility.yul\":6314:6475   */\n      pop\n      pop\n      jump\t// out\n        /* \"#utility.yul\":6481:6674   */\n    tag_609:\n        /* \"#utility.yul\":6599:6667   */\n      tag_611\n        /* \"#utility.yul\":6661:6666   */\n      dup2\n        /* \"#utility.yul\":6599:6667   */\n      tag_612\n      jump\t// in\n    tag_611:\n        /* \"#utility.yul\":6594:6597   */\n      dup3\n        /* \"#utility.yul\":6587:6668   */\n      mstore\n        /* \"#utility.yul\":6481:6674   */\n      pop\n      pop\n      jump\t// out\n        /* \"#utility.yul\":6680:6871   */\n    tag_613:\n        /* \"#utility.yul\":6797:6864   */\n      tag_615\n        /* \"#utility.yul\":6858:6863   */\n      dup2\n        /* \"#utility.yul\":6797:6864   */\n      tag_616\n      jump\t// in\n    tag_615:\n        /* \"#utility.yul\":6792:6795   */\n      dup3\n        /* \"#utility.yul\":6785:6865   */\n      mstore\n        /* \"#utility.yul\":6680:6871   */\n      pop\n      pop\n      jump\t// out\n        /* \"#utility.yul\":6877:7068   */\n    tag_617:\n        /* \"#utility.yul\":6994:7061   */\n      tag_619\n        /* \"#utility.yul\":7055:7060   */\n      dup2\n        /* \"#utility.yul\":6994:7061   */\n      tag_620\n      jump\t// in\n    tag_619:\n        /* \"#utility.yul\":6989:6992   */\n      dup3\n        /* \"#utility.yul\":6982:7062   */\n      mstore\n        /* \"#utility.yul\":6877:7068   */\n      pop\n      pop\n      jump\t// out\n        /* \"#utility.yul\":7074:7263   */\n    tag_621:\n        /* \"#utility.yul\":7190:7256   */\n      tag_623\n        /* \"#utility.yul\":7250:7255   */\n      dup2\n        /* \"#utility.yul\":7190:7256   */\n      tag_624\n      jump\t// in\n    tag_623:\n        /* \"#utility.yul\":7185:7188   */\n      dup3\n        /* \"#utility.yul\":7178:7257   */\n      mstore\n        /* \"#utility.yul\":7074:7263   */\n      pop\n      pop\n      jump\t// out\n        /* \"#utility.yul\":7269:7646   */\n    tag_625:\n        /* \"#utility.yul\":7375:7378   */\n      0x00\n        /* \"#utility.yul\":7403:7442   */\n      tag_627\n        /* \"#utility.yul\":7436:7441   */\n      dup3\n        /* \"#utility.yul\":7403:7442   */\n      tag_628\n      jump\t// in\n    tag_627:\n        /* \"#utility.yul\":7458:7547   */\n      tag_629\n        /* \"#utility.yul\":7540:7546   */\n      dup2\n        /* \"#utility.yul\":7535:7538   */\n      dup6\n        /* \"#utility.yul\":7458:7547   */\n      tag_630\n      jump\t// in\n    tag_629:\n        /* \"#utility.yul\":7451:7547   */\n      swap4\n      pop\n        /* \"#utility.yul\":7556:7608   */\n      tag_631\n        /* \"#utility.yul\":7601:7607   */\n      dup2\n        /* \"#utility.yul\":7596:7599   */\n      dup6\n        /* \"#utility.yul\":7589:7593   */\n      0x20\n        /* \"#utility.yul\":7582:7587   */\n      dup7\n        /* \"#utility.yul\":7578:7594   */\n      add\n        /* \"#utility.yul\":7556:7608   */\n      tag_632\n      jump\t// in\n    tag_631:\n        /* \"#utility.yul\":7633:7639   */\n      dup1\n        /* \"#utility.yul\":7628:7631   */\n      dup5\n        /* \"#utility.yul\":7624:7640   */\n      add\n        /* \"#utility.yul\":7617:7640   */\n      swap2\n      pop\n        /* \"#utility.yul\":7379:7646   */\n      pop\n        /* \"#utility.yul\":7269:7646   */\n      swap3\n      swap2\n      pop\n      pop\n      jump\t// out\n        /* \"#utility.yul\":7652:8018   */\n    tag_633:\n        /* \"#utility.yul\":7794:7797   */\n      0x00\n        /* \"#utility.yul\":7815:7882   */\n      tag_635\n        /* \"#utility.yul\":7879:7881   */\n      0x24\n        /* \"#utility.yul\":7874:7877   */\n      dup4\n        /* \"#utility.yul\":7815:7882   */\n      tag_636\n      jump\t// in\n    tag_635:\n        /* \"#utility.yul\":7808:7882   */\n      swap2\n      pop\n        /* \"#utility.yul\":7891:7984   */\n      tag_637\n        /* \"#utility.yul\":7980:7983   */\n      dup3\n        /* \"#utility.yul\":7891:7984   */\n      tag_638\n      jump\t// in\n    tag_637:\n        /* \"#utility.yul\":8009:8011   */\n      0x40\n        /* \"#utility.yul\":8004:8007   */\n      dup3\n        /* \"#utility.yul\":8000:8012   */\n      add\n        /* \"#utility.yul\":7993:8012   */\n      swap1\n      pop\n        /* \"#utility.yul\":7652:8018   */\n      swap2\n      swap1\n      pop\n      jump\t// out\n        /* \"#utility.yul\":8024:8390   */\n    tag_639:\n        /* \"#utility.yul\":8166:8169   */\n      0x00\n        /* \"#utility.yul\":8187:8254   */\n      tag_641\n        /* \"#utility.yul\":8251:8253   */\n      0x26\n        /* \"#utility.yul\":8246:8249   */\n      dup4\n        /* \"#utility.yul\":8187:8254   */\n      tag_636\n      jump\t// in\n    tag_641:\n        /* \"#utility.yul\":8180:8254   */\n      swap2\n      pop\n        /* \"#utility.yul\":8263:8356   */\n      tag_642\n        /* \"#utility.yul\":8352:8355   */\n      dup3\n        /* \"#utility.yul\":8263:8356   */\n      tag_643\n      jump\t// in\n    tag_642:\n        /* \"#utility.yul\":8381:8383   */\n      0x40\n        /* \"#utility.yul\":8376:8379   */\n      dup3\n        /* \"#utility.yul\":8372:8384   */\n      add\n        /* \"#utility.yul\":8365:8384   */\n      swap1\n      pop\n        /* \"#utility.yul\":8024:8390   */\n      swap2\n      swap1\n      pop\n      jump\t// out\n        /* \"#utility.yul\":8396:8762   */\n    tag_644:\n        /* \"#utility.yul\":8538:8541   */\n      0x00\n        /* \"#utility.yul\":8559:8626   */\n      tag_646\n        /* \"#utility.yul\":8623:8625   */\n      0x15\n        /* \"#utility.yul\":8618:8621   */\n      dup4\n        /* \"#utility.yul\":8559:8626   */\n      tag_636\n      jump\t// in\n    tag_646:\n        /* \"#utility.yul\":8552:8626   */\n      swap2\n      pop\n        /* \"#utility.yul\":8635:8728   */\n      tag_647\n        /* \"#utility.yul\":8724:8727   */\n      dup3\n        /* \"#utility.yul\":8635:8728   */\n      tag_648\n      jump\t// in\n    tag_647:\n        /* \"#utility.yul\":8753:8755   */\n      0x20\n        /* \"#utility.yul\":8748:8751   */\n      dup3\n        /* \"#utility.yul\":8744:8756   */\n      add\n        /* \"#utility.yul\":8737:8756   */\n      swap1\n      pop\n        /* \"#utility.yul\":8396:8762   */\n      swap2\n      swap1\n      pop\n      jump\t// out\n        /* \"#utility.yul\":8768:9134   */\n    tag_649:\n        /* \"#utility.yul\":8910:8913   */\n      0x00\n        /* \"#utility.yul\":8931:8998   */\n      tag_651\n        /* \"#utility.yul\":8995:8997   */\n      0x20\n        /* \"#utility.yul\":8990:8993   */\n      dup4\n        /* \"#utility.yul\":8931:8998   */\n      tag_636\n      jump\t// in\n    tag_651:\n        /* \"#utility.yul\":8924:8998   */\n      swap2\n      pop\n        /* \"#utility.yul\":9007:9100   */\n      tag_652\n        /* \"#utility.yul\":9096:9099   */\n      dup3\n        /* \"#utility.yul\":9007:9100   */\n      tag_653\n      jump\t// in\n    tag_652:\n        /* \"#utility.yul\":9125:9127   */\n      0x20\n        /* \"#utility.yul\":9120:9123   */\n      dup3\n        /* \"#utility.yul\":9116:9128   */\n      add\n        /* \"#utility.yul\":9109:9128   */\n      swap1\n      pop\n        /* \"#utility.yul\":8768:9134   */\n      swap2\n      swap1\n      pop\n      jump\t// out\n        /* \"#utility.yul\":9140:9506   */\n    tag_654:\n        /* \"#utility.yul\":9282:9285   */\n      0x00\n        /* \"#utility.yul\":9303:9370   */\n      tag_656\n        /* \"#utility.yul\":9367:9369   */\n      0x1a\n        /* \"#utility.yul\":9362:9365   */\n      dup4\n        /* \"#utility.yul\":9303:9370   */\n      tag_636\n      jump\t// in\n    tag_656:\n        /* \"#utility.yul\":9296:9370   */\n      swap2\n      pop\n        /* \"#utility.yul\":9379:9472   */\n      tag_657\n        /* \"#utility.yul\":9468:9471   */\n      dup3\n        /* \"#utility.yul\":9379:9472   */\n      tag_658\n      jump\t// in\n    tag_657:\n        /* \"#utility.yul\":9497:9499   */\n      0x20\n        /* \"#utility.yul\":9492:9495   */\n      dup3\n        /* \"#utility.yul\":9488:9500   */\n      add\n        /* \"#utility.yul\":9481:9500   */\n      swap1\n      pop\n        /* \"#utility.yul\":9140:9506   */\n      swap2\n      swap1\n      pop\n      jump\t// out\n        /* \"#utility.yul\":9512:9878   */\n    tag_659:\n        /* \"#utility.yul\":9654:9657   */\n      0x00\n        /* \"#utility.yul\":9675:9742   */\n      tag_661\n        /* \"#utility.yul\":9739:9741   */\n      0x15\n        /* \"#utility.yul\":9734:9737   */\n      dup4\n        /* \"#utility.yul\":9675:9742   */\n      tag_636\n      jump\t// in\n    tag_661:\n        /* \"#utility.yul\":9668:9742   */\n      swap2\n      pop\n        /* \"#utility.yul\":9751:9844   */\n      tag_662\n        /* \"#utility.yul\":9840:9843   */\n      dup3\n        /* \"#utility.yul\":9751:9844   */\n      tag_663\n      jump\t// in\n    tag_662:\n        /* \"#utility.yul\":9869:9871   */\n      0x20\n        /* \"#utility.yul\":9864:9867   */\n      dup3\n        /* \"#utility.yul\":9860:9872   */\n      add\n        /* \"#utility.yul\":9853:9872   */\n      swap1\n      pop\n        /* \"#utility.yul\":9512:9878   */\n      swap2\n      swap1\n      pop\n      jump\t// out\n        /* \"#utility.yul\":9884:10284   */\n    tag_664:\n        /* \"#utility.yul\":10044:10047   */\n      0x00\n        /* \"#utility.yul\":10065:10149   */\n      tag_666\n        /* \"#utility.yul\":10147:10148   */\n      0x04\n        /* \"#utility.yul\":10142:10145   */\n      dup4\n        /* \"#utility.yul\":10065:10149   */\n      tag_630\n      jump\t// in\n    tag_666:\n        /* \"#utility.yul\":10058:10149   */\n      swap2\n      pop\n        /* \"#utility.yul\":10158:10251   */\n      tag_667\n        /* \"#utility.yul\":10247:10250   */\n      dup3\n        /* \"#utility.yul\":10158:10251   */\n      tag_668\n      jump\t// in\n    tag_667:\n        /* \"#utility.yul\":10276:10277   */\n      0x04\n        /* \"#utility.yul\":10271:10274   */\n      dup3\n        /* \"#utility.yul\":10267:10278   */\n      add\n        /* \"#utility.yul\":10260:10278   */\n      swap1\n      pop\n        /* \"#utility.yul\":9884:10284   */\n      swap2\n      swap1\n      pop\n      jump\t// out\n        /* \"#utility.yul\":10290:10656   */\n    tag_669:\n        /* \"#utility.yul\":10432:10435   */\n      0x00\n        /* \"#utility.yul\":10453:10520   */\n      tag_671\n        /* \"#utility.yul\":10517:10519   */\n      0x0c\n        /* \"#utility.yul\":10512:10515   */\n      dup4\n        /* \"#utility.yul\":10453:10520   */\n      tag_636\n      jump\t// in\n    tag_671:\n        /* \"#utility.yul\":10446:10520   */\n      swap2\n      pop\n        /* \"#utility.yul\":10529:10622   */\n      tag_672\n        /* \"#utility.yul\":10618:10621   */\n      dup3\n        /* \"#utility.yul\":10529:10622   */\n      tag_673\n      jump\t// in\n    tag_672:\n        /* \"#utility.yul\":10647:10649   */\n      0x20\n        /* \"#utility.yul\":10642:10645   */\n      dup3\n        /* \"#utility.yul\":10638:10650   */\n      add\n        /* \"#utility.yul\":10631:10650   */\n      swap1\n      pop\n        /* \"#utility.yul\":10290:10656   */\n      swap2\n      swap1\n      pop\n      jump\t// out\n        /* \"#utility.yul\":10662:11028   */\n    tag_674:\n        /* \"#utility.yul\":10804:10807   */\n      0x00\n        /* \"#utility.yul\":10825:10892   */\n      tag_676\n        /* \"#utility.yul\":10889:10891   */\n      0x1f\n        /* \"#utility.yul\":10884:10887   */\n      dup4\n        /* \"#utility.yul\":10825:10892   */\n      tag_636\n      jump\t// in\n    tag_676:\n        /* \"#utility.yul\":10818:10892   */\n      swap2\n      pop\n        /* \"#utility.yul\":10901:10994   */\n      tag_677\n        /* \"#utility.yul\":10990:10993   */\n      dup3\n        /* \"#utility.yul\":10901:10994   */\n      tag_678\n      jump\t// in\n    tag_677:\n        /* \"#utility.yul\":11019:11021   */\n      0x20\n        /* \"#utility.yul\":11014:11017   */\n      dup3\n        /* \"#utility.yul\":11010:11022   */\n      add\n        /* \"#utility.yul\":11003:11022   */\n      swap1\n      pop\n        /* \"#utility.yul\":10662:11028   */\n      swap2\n      swap1\n      pop\n      jump\t// out\n        /* \"#utility.yul\":11034:11400   */\n    tag_679:\n        /* \"#utility.yul\":11176:11179   */\n      0x00\n        /* \"#utility.yul\":11197:11264   */\n      tag_681\n        /* \"#utility.yul\":11261:11263   */\n      0x21\n        /* \"#utility.yul\":11256:11259   */\n      dup4\n        /* \"#utility.yul\":11197:11264   */\n      tag_636\n      jump\t// in\n    tag_681:\n        /* \"#utility.yul\":11190:11264   */\n      swap2\n      pop\n        /* \"#utility.yul\":11273:11366   */\n      tag_682\n        /* \"#utility.yul\":11362:11365   */\n      dup3\n        /* \"#utility.yul\":11273:11366   */\n      tag_683\n      jump\t// in\n    tag_682:\n        /* \"#utility.yul\":11391:11393   */\n      0x40\n        /* \"#utility.yul\":11386:11389   */\n      dup3\n        /* \"#utility.yul\":11382:11394   */\n      add\n        /* \"#utility.yul\":11375:11394   */\n      swap1\n      pop\n        /* \"#utility.yul\":11034:11400   */\n      swap2\n      swap1\n      pop\n      jump\t// out\n        /* \"#utility.yul\":11406:11524   */\n    tag_684:\n        /* \"#utility.yul\":11493:11517   */\n      tag_686\n        /* \"#utility.yul\":11511:11516   */\n      dup2\n        /* \"#utility.yul\":11493:11517   */\n      tag_687\n      jump\t// in\n    tag_686:\n        /* \"#utility.yul\":11488:11491   */\n      dup3\n        /* \"#utility.yul\":11481:11518   */\n      mstore\n        /* \"#utility.yul\":11406:11524   */\n      pop\n      pop\n      jump\t// out\n        /* \"#utility.yul\":11530:11805   */\n    tag_352:\n        /* \"#utility.yul\":11662:11665   */\n      0x00\n        /* \"#utility.yul\":11684:11779   */\n      tag_689\n        /* \"#utility.yul\":11775:11778   */\n      dup3\n        /* \"#utility.yul\":11766:11772   */\n      dup5\n        /* \"#utility.yul\":11684:11779   */\n      tag_625\n      jump\t// in\n    tag_689:\n        /* \"#utility.yul\":11677:11779   */\n      swap2\n      pop\n        /* \"#utility.yul\":11796:11799   */\n      dup2\n        /* \"#utility.yul\":11789:11799   */\n      swap1\n      pop\n        /* \"#utility.yul\":11530:11805   */\n      swap3\n      swap2\n      pop\n      pop\n      jump\t// out\n        /* \"#utility.yul\":11811:12192   */\n    tag_408:\n        /* \"#utility.yul\":11996:11999   */\n      0x00\n        /* \"#utility.yul\":12018:12166   */\n      tag_691\n        /* \"#utility.yul\":12162:12165   */\n      dup3\n        /* \"#utility.yul\":12018:12166   */\n      tag_664\n      jump\t// in\n    tag_691:\n        /* \"#utility.yul\":12011:12166   */\n      swap2\n      pop\n        /* \"#utility.yul\":12183:12186   */\n      dup2\n        /* \"#utility.yul\":12176:12186   */\n      swap1\n      pop\n        /* \"#utility.yul\":11811:12192   */\n      swap2\n      swap1\n      pop\n      jump\t// out\n        /* \"#utility.yul\":12198:12420   */\n    tag_59:\n        /* \"#utility.yul\":12291:12295   */\n      0x00\n        /* \"#utility.yul\":12329:12331   */\n      0x20\n        /* \"#utility.yul\":12318:12327   */\n      dup3\n        /* \"#utility.yul\":12314:12332   */\n      add\n        /* \"#utility.yul\":12306:12332   */\n      swap1\n      pop\n        /* \"#utility.yul\":12342:12413   */\n      tag_693\n        /* \"#utility.yul\":12410:12411   */\n      0x00\n        /* \"#utility.yul\":12399:12408   */\n      dup4\n        /* \"#utility.yul\":12395:12412   */\n      add\n        /* \"#utility.yul\":12386:12392   */\n      dup5\n        /* \"#utility.yul\":12342:12413   */\n      tag_601\n      jump\t// in\n    tag_693:\n        /* \"#utility.yul\":12198:12420   */\n      swap3\n      swap2\n      pop\n      pop\n      jump\t// out\n        /* \"#utility.yul\":12426:12868   */\n    tag_494:\n        /* \"#utility.yul\":12575:12579   */\n      0x00\n        /* \"#utility.yul\":12613:12615   */\n      0x60\n        /* \"#utility.yul\":12602:12611   */\n      dup3\n        /* \"#utility.yul\":12598:12616   */\n      add\n        /* \"#utility.yul\":12590:12616   */\n      swap1\n      pop\n        /* \"#utility.yul\":12626:12697   */\n      tag_695\n        /* \"#utility.yul\":12694:12695   */\n      0x00\n        /* \"#utility.yul\":12683:12692   */\n      dup4\n        /* \"#utility.yul\":12679:12696   */\n      add\n        /* \"#utility.yul\":12670:12676   */\n      dup7\n        /* \"#utility.yul\":12626:12697   */\n      tag_601\n      jump\t// in\n    tag_695:\n        /* \"#utility.yul\":12707:12779   */\n      tag_696\n        /* \"#utility.yul\":12775:12777   */\n      0x20\n        /* \"#utility.yul\":12764:12773   */\n      dup4\n        /* \"#utility.yul\":12760:12778   */\n      add\n        /* \"#utility.yul\":12751:12757   */\n      dup6\n        /* \"#utility.yul\":12707:12779   */\n      tag_601\n      jump\t// in\n    tag_696:\n        /* \"#utility.yul\":12789:12861   */\n      tag_697\n        /* \"#utility.yul\":12857:12859   */\n      0x40\n        /* \"#utility.yul\":12846:12855   */\n      dup4\n        /* \"#utility.yul\":12842:12860   */\n      add\n        /* \"#utility.yul\":12833:12839   */\n      dup5\n        /* \"#utility.yul\":12789:12861   */\n      tag_684\n      jump\t// in\n    tag_697:\n        /* \"#utility.yul\":12426:12868   */\n      swap5\n      swap4\n      pop\n      pop\n      pop\n      pop\n      jump\t// out\n        /* \"#utility.yul\":12874:13268   */\n    tag_249:\n        /* \"#utility.yul\":13026:13030   */\n      0x00\n        /* \"#utility.yul\":13064:13066   */\n      0x40\n        /* \"#utility.yul\":13053:13062   */\n      dup3\n        /* \"#utility.yul\":13049:13067   */\n      add\n        /* \"#utility.yul\":13041:13067   */\n      swap1\n      pop\n        /* \"#utility.yul\":13077:13148   */\n      tag_699\n        /* \"#utility.yul\":13145:13146   */\n      0x00\n        /* \"#utility.yul\":13134:13143   */\n      dup4\n        /* \"#utility.yul\":13130:13147   */\n      add\n        /* \"#utility.yul\":13121:13127   */\n      dup6\n        /* \"#utility.yul\":13077:13148   */\n      tag_601\n      jump\t// in\n    tag_699:\n        /* \"#utility.yul\":13158:13261   */\n      tag_700\n        /* \"#utility.yul\":13257:13259   */\n      0x20\n        /* \"#utility.yul\":13246:13255   */\n      dup4\n        /* \"#utility.yul\":13242:13260   */\n      add\n        /* \"#utility.yul\":13233:13239   */\n      dup5\n        /* \"#utility.yul\":13158:13261   */\n      tag_609\n      jump\t// in\n    tag_700:\n        /* \"#utility.yul\":12874:13268   */\n      swap4\n      swap3\n      pop\n      pop\n      pop\n      jump\t// out\n        /* \"#utility.yul\":13274:13666   */\n    tag_239:\n        /* \"#utility.yul\":13425:13429   */\n      0x00\n        /* \"#utility.yul\":13463:13465   */\n      0x40\n        /* \"#utility.yul\":13452:13461   */\n      dup3\n        /* \"#utility.yul\":13448:13466   */\n      add\n        /* \"#utility.yul\":13440:13466   */\n      swap1\n      pop\n        /* \"#utility.yul\":13476:13547   */\n      tag_702\n        /* \"#utility.yul\":13544:13545   */\n      0x00\n        /* \"#utility.yul\":13533:13542   */\n      dup4\n        /* \"#utility.yul\":13529:13546   */\n      add\n        /* \"#utility.yul\":13520:13526   */\n      dup6\n        /* \"#utility.yul\":13476:13547   */\n      tag_601\n      jump\t// in\n    tag_702:\n        /* \"#utility.yul\":13557:13659   */\n      tag_703\n        /* \"#utility.yul\":13655:13657   */\n      0x20\n        /* \"#utility.yul\":13644:13653   */\n      dup4\n        /* \"#utility.yul\":13640:13658   */\n      add\n        /* \"#utility.yul\":13631:13637   */\n      dup5\n        /* \"#utility.yul\":13557:13659   */\n      tag_613\n      jump\t// in\n    tag_703:\n        /* \"#utility.yul\":13274:13666   */\n      swap4\n      swap3\n      pop\n      pop\n      pop\n      jump\t// out\n        /* \"#utility.yul\":13672:14064   */\n    tag_244:\n        /* \"#utility.yul\":13823:13827   */\n      0x00\n        /* \"#utility.yul\":13861:13863   */\n      0x40\n        /* \"#utility.yul\":13850:13859   */\n      dup3\n        /* \"#utility.yul\":13846:13864   */\n      add\n        /* \"#utility.yul\":13838:13864   */\n      swap1\n      pop\n        /* \"#utility.yul\":13874:13945   */\n      tag_705\n        /* \"#utility.yul\":13942:13943   */\n      0x00\n        /* \"#utility.yul\":13931:13940   */\n      dup4\n        /* \"#utility.yul\":13927:13944   */\n      add\n        /* \"#utility.yul\":13918:13924   */\n      dup6\n        /* \"#utility.yul\":13874:13945   */\n      tag_601\n      jump\t// in\n    tag_705:\n        /* \"#utility.yul\":13955:14057   */\n      tag_706\n        /* \"#utility.yul\":14053:14055   */\n      0x20\n        /* \"#utility.yul\":14042:14051   */\n      dup4\n        /* \"#utility.yul\":14038:14056   */\n      add\n        /* \"#utility.yul\":14029:14035   */\n      dup5\n        /* \"#utility.yul\":13955:14057   */\n      tag_617\n      jump\t// in\n    tag_706:\n        /* \"#utility.yul\":13672:14064   */\n      swap4\n      swap3\n      pop\n      pop\n      pop\n      jump\t// out\n        /* \"#utility.yul\":14070:14460   */\n    tag_234:\n        /* \"#utility.yul\":14220:14224   */\n      0x00\n        /* \"#utility.yul\":14258:14260   */\n      0x40\n        /* \"#utility.yul\":14247:14256   */\n      dup3\n        /* \"#utility.yul\":14243:14261   */\n      add\n        /* \"#utility.yul\":14235:14261   */\n      swap1\n      pop\n        /* \"#utility.yul\":14271:14342   */\n      tag_708\n        /* \"#utility.yul\":14339:14340   */\n      0x00\n        /* \"#utility.yul\":14328:14337   */\n      dup4\n        /* \"#utility.yul\":14324:14341   */\n      add\n        /* \"#utility.yul\":14315:14321   */\n      dup6\n        /* \"#utility.yul\":14271:14342   */\n      tag_601\n      jump\t// in\n    tag_708:\n        /* \"#utility.yul\":14352:14453   */\n      tag_709\n        /* \"#utility.yul\":14449:14451   */\n      0x20\n        /* \"#utility.yul\":14438:14447   */\n      dup4\n        /* \"#utility.yul\":14434:14452   */\n      add\n        /* \"#utility.yul\":14425:14431   */\n      dup5\n        /* \"#utility.yul\":14352:14453   */\n      tag_621\n      jump\t// in\n    tag_709:\n        /* \"#utility.yul\":14070:14460   */\n      swap4\n      swap3\n      pop\n      pop\n      pop\n      jump\t// out\n        /* \"#utility.yul\":14466:14798   */\n    tag_165:\n        /* \"#utility.yul\":14587:14591   */\n      0x00\n        /* \"#utility.yul\":14625:14627   */\n      0x40\n        /* \"#utility.yul\":14614:14623   */\n      dup3\n        /* \"#utility.yul\":14610:14628   */\n      add\n        /* \"#utility.yul\":14602:14628   */\n      swap1\n      pop\n        /* \"#utility.yul\":14638:14709   */\n      tag_711\n        /* \"#utility.yul\":14706:14707   */\n      0x00\n        /* \"#utility.yul\":14695:14704   */\n      dup4\n        /* \"#utility.yul\":14691:14708   */\n      add\n        /* \"#utility.yul\":14682:14688   */\n      dup6\n        /* \"#utility.yul\":14638:14709   */\n      tag_601\n      jump\t// in\n    tag_711:\n        /* \"#utility.yul\":14719:14791   */\n      tag_712\n        /* \"#utility.yul\":14787:14789   */\n      0x20\n        /* \"#utility.yul\":14776:14785   */\n      dup4\n        /* \"#utility.yul\":14772:14790   */\n      add\n        /* \"#utility.yul\":14763:14769   */\n      dup5\n        /* \"#utility.yul\":14719:14791   */\n      tag_684\n      jump\t// in\n    tag_712:\n        /* \"#utility.yul\":14466:14798   */\n      swap4\n      swap3\n      pop\n      pop\n      pop\n      jump\t// out\n        /* \"#utility.yul\":14804:15056   */\n    tag_101:\n        /* \"#utility.yul\":14912:14916   */\n      0x00\n        /* \"#utility.yul\":14950:14952   */\n      0x20\n        /* \"#utility.yul\":14939:14948   */\n      dup3\n        /* \"#utility.yul\":14935:14953   */\n      add\n        /* \"#utility.yul\":14927:14953   */\n      swap1\n      pop\n        /* \"#utility.yul\":14963:15049   */\n      tag_714\n        /* \"#utility.yul\":15046:15047   */\n      0x00\n        /* \"#utility.yul\":15035:15044   */\n      dup4\n        /* \"#utility.yul\":15031:15048   */\n      add\n        /* \"#utility.yul\":15022:15028   */\n      dup5\n        /* \"#utility.yul\":14963:15049   */\n      tag_605\n      jump\t// in\n    tag_714:\n        /* \"#utility.yul\":14804:15056   */\n      swap3\n      swap2\n      pop\n      pop\n      jump\t// out\n        /* \"#utility.yul\":15062:15481   */\n    tag_287:\n        /* \"#utility.yul\":15228:15232   */\n      0x00\n        /* \"#utility.yul\":15266:15268   */\n      0x20\n        /* \"#utility.yul\":15255:15264   */\n      dup3\n        /* \"#utility.yul\":15251:15269   */\n      add\n        /* \"#utility.yul\":15243:15269   */\n      swap1\n      pop\n        /* \"#utility.yul\":15315:15324   */\n      dup2\n        /* \"#utility.yul\":15309:15313   */\n      dup2\n        /* \"#utility.yul\":15305:15325   */\n      sub\n        /* \"#utility.yul\":15301:15302   */\n      0x00\n        /* \"#utility.yul\":15290:15299   */\n      dup4\n        /* \"#utility.yul\":15286:15303   */\n      add\n        /* \"#utility.yul\":15279:15326   */\n      mstore\n        /* \"#utility.yul\":15343:15474   */\n      tag_716\n        /* \"#utility.yul\":15469:15473   */\n      dup2\n        /* \"#utility.yul\":15343:15474   */\n      tag_633\n      jump\t// in\n    tag_716:\n        /* \"#utility.yul\":15335:15474   */\n      swap1\n      pop\n        /* \"#utility.yul\":15062:15481   */\n      swap2\n      swap1\n      pop\n      jump\t// out\n        /* \"#utility.yul\":15487:15906   */\n    tag_470:\n        /* \"#utility.yul\":15653:15657   */\n      0x00\n        /* \"#utility.yul\":15691:15693   */\n      0x20\n        /* \"#utility.yul\":15680:15689   */\n      dup3\n        /* \"#utility.yul\":15676:15694   */\n      add\n        /* \"#utility.yul\":15668:15694   */\n      swap1\n      pop\n        /* \"#utility.yul\":15740:15749   */\n      dup2\n        /* \"#utility.yul\":15734:15738   */\n      dup2\n        /* \"#utility.yul\":15730:15750   */\n      sub\n        /* \"#utility.yul\":15726:15727   */\n      0x00\n        /* \"#utility.yul\":15715:15724   */\n      dup4\n        /* \"#utility.yul\":15711:15728   */\n      add\n        /* \"#utility.yul\":15704:15751   */\n      mstore\n        /* \"#utility.yul\":15768:15899   */\n      tag_718\n        /* \"#utility.yul\":15894:15898   */\n      dup2\n        /* \"#utility.yul\":15768:15899   */\n      tag_639\n      jump\t// in\n    tag_718:\n        /* \"#utility.yul\":15760:15899   */\n      swap1\n      pop\n        /* \"#utility.yul\":15487:15906   */\n      swap2\n      swap1\n      pop\n      jump\t// out\n        /* \"#utility.yul\":15912:16331   */\n    tag_501:\n        /* \"#utility.yul\":16078:16082   */\n      0x00\n        /* \"#utility.yul\":16116:16118   */\n      0x20\n        /* \"#utility.yul\":16105:16114   */\n      dup3\n        /* \"#utility.yul\":16101:16119   */\n      add\n        /* \"#utility.yul\":16093:16119   */\n      swap1\n      pop\n        /* \"#utility.yul\":16165:16174   */\n      dup2\n        /* \"#utility.yul\":16159:16163   */\n      dup2\n        /* \"#utility.yul\":16155:16175   */\n      sub\n        /* \"#utility.yul\":16151:16152   */\n      0x00\n        /* \"#utility.yul\":16140:16149   */\n      dup4\n        /* \"#utility.yul\":16136:16153   */\n      add\n        /* \"#utility.yul\":16129:16176   */\n      mstore\n        /* \"#utility.yul\":16193:16324   */\n      tag_720\n        /* \"#utility.yul\":16319:16323   */\n      dup2\n        /* \"#utility.yul\":16193:16324   */\n      tag_644\n      jump\t// in\n    tag_720:\n        /* \"#utility.yul\":16185:16324   */\n      swap1\n      pop\n        /* \"#utility.yul\":15912:16331   */\n      swap2\n      swap1\n      pop\n      jump\t// out\n        /* \"#utility.yul\":16337:16756   */\n    tag_231:\n        /* \"#utility.yul\":16503:16507   */\n      0x00\n        /* \"#utility.yul\":16541:16543   */\n      0x20\n        /* \"#utility.yul\":16530:16539   */\n      dup3\n        /* \"#utility.yul\":16526:16544   */\n      add\n        /* \"#utility.yul\":16518:16544   */\n      swap1\n      pop\n        /* \"#utility.yul\":16590:16599   */\n      dup2\n        /* \"#utility.yul\":16584:16588   */\n      dup2\n        /* \"#utility.yul\":16580:16600   */\n      sub\n        /* \"#utility.yul\":16576:16577   */\n      0x00\n        /* \"#utility.yul\":16565:16574   */\n      dup4\n        /* \"#utility.yul\":16561:16578   */\n      add\n        /* \"#utility.yul\":16554:16601   */\n      mstore\n        /* \"#utility.yul\":16618:16749   */\n      tag_722\n        /* \"#utility.yul\":16744:16748   */\n      dup2\n        /* \"#utility.yul\":16618:16749   */\n      tag_649\n      jump\t// in\n    tag_722:\n        /* \"#utility.yul\":16610:16749   */\n      swap1\n      pop\n        /* \"#utility.yul\":16337:16756   */\n      swap2\n      swap1\n      pop\n      jump\t// out\n        /* \"#utility.yul\":16762:17181   */\n    tag_298:\n        /* \"#utility.yul\":16928:16932   */\n      0x00\n        /* \"#utility.yul\":16966:16968   */\n      0x20\n        /* \"#utility.yul\":16955:16964   */\n      dup3\n        /* \"#utility.yul\":16951:16969   */\n      add\n        /* \"#utility.yul\":16943:16969   */\n      swap1\n      pop\n        /* \"#utility.yul\":17015:17024   */\n      dup2\n        /* \"#utility.yul\":17009:17013   */\n      dup2\n        /* \"#utility.yul\":17005:17025   */\n      sub\n        /* \"#utility.yul\":17001:17002   */\n      0x00\n        /* \"#utility.yul\":16990:16999   */\n      dup4\n        /* \"#utility.yul\":16986:17003   */\n      add\n        /* \"#utility.yul\":16979:17026   */\n      mstore\n        /* \"#utility.yul\":17043:17174   */\n      tag_724\n        /* \"#utility.yul\":17169:17173   */\n      dup2\n        /* \"#utility.yul\":17043:17174   */\n      tag_654\n      jump\t// in\n    tag_724:\n        /* \"#utility.yul\":17035:17174   */\n      swap1\n      pop\n        /* \"#utility.yul\":16762:17181   */\n      swap2\n      swap1\n      pop\n      jump\t// out\n        /* \"#utility.yul\":17187:17606   */\n    tag_355:\n        /* \"#utility.yul\":17353:17357   */\n      0x00\n        /* \"#utility.yul\":17391:17393   */\n      0x20\n        /* \"#utility.yul\":17380:17389   */\n      dup3\n        /* \"#utility.yul\":17376:17394   */\n      add\n        /* \"#utility.yul\":17368:17394   */\n      swap1\n      pop\n        /* \"#utility.yul\":17440:17449   */\n      dup2\n        /* \"#utility.yul\":17434:17438   */\n      dup2\n        /* \"#utility.yul\":17430:17450   */\n      sub\n        /* \"#utility.yul\":17426:17427   */\n      0x00\n        /* \"#utility.yul\":17415:17424   */\n      dup4\n        /* \"#utility.yul\":17411:17428   */\n      add\n        /* \"#utility.yul\":17404:17451   */\n      mstore\n        /* \"#utility.yul\":17468:17599   */\n      tag_726\n        /* \"#utility.yul\":17594:17598   */\n      dup2\n        /* \"#utility.yul\":17468:17599   */\n      tag_659\n      jump\t// in\n    tag_726:\n        /* \"#utility.yul\":17460:17599   */\n      swap1\n      pop\n        /* \"#utility.yul\":17187:17606   */\n      swap2\n      swap1\n      pop\n      jump\t// out\n        /* \"#utility.yul\":17612:18031   */\n    tag_412:\n        /* \"#utility.yul\":17778:17782   */\n      0x00\n        /* \"#utility.yul\":17816:17818   */\n      0x20\n        /* \"#utility.yul\":17805:17814   */\n      dup3\n        /* \"#utility.yul\":17801:17819   */\n      add\n        /* \"#utility.yul\":17793:17819   */\n      swap1\n      pop\n        /* \"#utility.yul\":17865:17874   */\n      dup2\n        /* \"#utility.yul\":17859:17863   */\n      dup2\n        /* \"#utility.yul\":17855:17875   */\n      sub\n        /* \"#utility.yul\":17851:17852   */\n      0x00\n        /* \"#utility.yul\":17840:17849   */\n      dup4\n        /* \"#utility.yul\":17836:17853   */\n      add\n        /* \"#utility.yul\":17829:17876   */\n      mstore\n        /* \"#utility.yul\":17893:18024   */\n      tag_728\n        /* \"#utility.yul\":18019:18023   */\n      dup2\n        /* \"#utility.yul\":17893:18024   */\n      tag_669\n      jump\t// in\n    tag_728:\n        /* \"#utility.yul\":17885:18024   */\n      swap1\n      pop\n        /* \"#utility.yul\":17612:18031   */\n      swap2\n      swap1\n      pop\n      jump\t// out\n        /* \"#utility.yul\":18037:18456   */\n    tag_349:\n        /* \"#utility.yul\":18203:18207   */\n      0x00\n        /* \"#utility.yul\":18241:18243   */\n      0x20\n        /* \"#utility.yul\":18230:18239   */\n      dup3\n        /* \"#utility.yul\":18226:18244   */\n      add\n        /* \"#utility.yul\":18218:18244   */\n      swap1\n      pop\n        /* \"#utility.yul\":18290:18299   */\n      dup2\n        /* \"#utility.yul\":18284:18288   */\n      dup2\n        /* \"#utility.yul\":18280:18300   */\n      sub\n        /* \"#utility.yul\":18276:18277   */\n      0x00\n        /* \"#utility.yul\":18265:18274   */\n      dup4\n        /* \"#utility.yul\":18261:18278   */\n      add\n        /* \"#utility.yul\":18254:18301   */\n      mstore\n        /* \"#utility.yul\":18318:18449   */\n      tag_730\n        /* \"#utility.yul\":18444:18448   */\n      dup2\n        /* \"#utility.yul\":18318:18449   */\n      tag_674\n      jump\t// in\n    tag_730:\n        /* \"#utility.yul\":18310:18449   */\n      swap1\n      pop\n        /* \"#utility.yul\":18037:18456   */\n      swap2\n      swap1\n      pop\n      jump\t// out\n        /* \"#utility.yul\":18462:18881   */\n    tag_509:\n        /* \"#utility.yul\":18628:18632   */\n      0x00\n        /* \"#utility.yul\":18666:18668   */\n      0x20\n        /* \"#utility.yul\":18655:18664   */\n      dup3\n        /* \"#utility.yul\":18651:18669   */\n      add\n        /* \"#utility.yul\":18643:18669   */\n      swap1\n      pop\n        /* \"#utility.yul\":18715:18724   */\n      dup2\n        /* \"#utility.yul\":18709:18713   */\n      dup2\n        /* \"#utility.yul\":18705:18725   */\n      sub\n        /* \"#utility.yul\":18701:18702   */\n      0x00\n        /* \"#utility.yul\":18690:18699   */\n      dup4\n        /* \"#utility.yul\":18686:18703   */\n      add\n        /* \"#utility.yul\":18679:18726   */\n      mstore\n        /* \"#utility.yul\":18743:18874   */\n      tag_732\n        /* \"#utility.yul\":18869:18873   */\n      dup2\n        /* \"#utility.yul\":18743:18874   */\n      tag_679\n      jump\t// in\n    tag_732:\n        /* \"#utility.yul\":18735:18874   */\n      swap1\n      pop\n        /* \"#utility.yul\":18462:18881   */\n      swap2\n      swap1\n      pop\n      jump\t// out\n        /* \"#utility.yul\":18887:19109   */\n    tag_51:\n        /* \"#utility.yul\":18980:18984   */\n      0x00\n        /* \"#utility.yul\":19018:19020   */\n      0x20\n        /* \"#utility.yul\":19007:19016   */\n      dup3\n        /* \"#utility.yul\":19003:19021   */\n      add\n        /* \"#utility.yul\":18995:19021   */\n      swap1\n      pop\n        /* \"#utility.yul\":19031:19102   */\n      tag_734\n        /* \"#utility.yul\":19099:19100   */\n      0x00\n        /* \"#utility.yul\":19088:19097   */\n      dup4\n        /* \"#utility.yul\":19084:19101   */\n      add\n        /* \"#utility.yul\":19075:19081   */\n      dup5\n        /* \"#utility.yul\":19031:19102   */\n      tag_684\n      jump\t// in\n    tag_734:\n        /* \"#utility.yul\":18887:19109   */\n      swap3\n      swap2\n      pop\n      pop\n      jump\t// out\n        /* \"#utility.yul\":19115:19447   */\n    tag_74:\n        /* \"#utility.yul\":19236:19240   */\n      0x00\n        /* \"#utility.yul\":19274:19276   */\n      0x40\n        /* \"#utility.yul\":19263:19272   */\n      dup3\n        /* \"#utility.yul\":19259:19277   */\n      add\n        /* \"#utility.yul\":19251:19277   */\n      swap1\n      pop\n        /* \"#utility.yul\":19287:19358   */\n      tag_736\n        /* \"#utility.yul\":19355:19356   */\n      0x00\n        /* \"#utility.yul\":19344:19353   */\n      dup4\n        /* \"#utility.yul\":19340:19357   */\n      add\n        /* \"#utility.yul\":19331:19337   */\n      dup6\n        /* \"#utility.yul\":19287:19358   */\n      tag_684\n      jump\t// in\n    tag_736:\n        /* \"#utility.yul\":19368:19440   */\n      tag_737\n        /* \"#utility.yul\":19436:19438   */\n      0x20\n        /* \"#utility.yul\":19425:19434   */\n      dup4\n        /* \"#utility.yul\":19421:19439   */\n      add\n        /* \"#utility.yul\":19412:19418   */\n      dup5\n        /* \"#utility.yul\":19368:19440   */\n      tag_684\n      jump\t// in\n    tag_737:\n        /* \"#utility.yul\":19115:19447   */\n      swap4\n      swap3\n      pop\n      pop\n      pop\n      jump\t// out\n        /* \"#utility.yul\":19453:19582   */\n    tag_520:\n        /* \"#utility.yul\":19487:19493   */\n      0x00\n        /* \"#utility.yul\":19514:19534   */\n      tag_739\n      tag_740\n      jump\t// in\n    tag_739:\n        /* \"#utility.yul\":19504:19534   */\n      swap1\n      pop\n        /* \"#utility.yul\":19543:19576   */\n      tag_741\n        /* \"#utility.yul\":19571:19575   */\n      dup3\n        /* \"#utility.yul\":19563:19569   */\n      dup3\n        /* \"#utility.yul\":19543:19576   */\n      tag_742\n      jump\t// in\n    tag_741:\n        /* \"#utility.yul\":19453:19582   */\n      swap2\n      swap1\n      pop\n      jump\t// out\n        /* \"#utility.yul\":19588:19663   */\n    tag_740:\n        /* \"#utility.yul\":19621:19627   */\n      0x00\n        /* \"#utility.yul\":19654:19656   */\n      0x40\n        /* \"#utility.yul\":19648:19657   */\n      mload\n        /* \"#utility.yul\":19638:19657   */\n      swap1\n      pop\n        /* \"#utility.yul\":19588:19663   */\n      swap1\n      jump\t// out\n        /* \"#utility.yul\":19669:19977   */\n    tag_519:\n        /* \"#utility.yul\":19731:19735   */\n      0x00\n        /* \"#utility.yul\":19821:19839   */\n      0xffffffffffffffff\n        /* \"#utility.yul\":19813:19819   */\n      dup3\n        /* \"#utility.yul\":19810:19840   */\n      gt\n        /* \"#utility.yul\":19807:19863   */\n      iszero\n      tag_745\n      jumpi\n        /* \"#utility.yul\":19843:19861   */\n      tag_746\n      tag_747\n      jump\t// in\n    tag_746:\n        /* \"#utility.yul\":19807:19863   */\n    tag_745:\n        /* \"#utility.yul\":19881:19910   */\n      tag_748\n        /* \"#utility.yul\":19903:19909   */\n      dup3\n        /* \"#utility.yul\":19881:19910   */\n      tag_749\n      jump\t// in\n    tag_748:\n        /* \"#utility.yul\":19873:19910   */\n      swap1\n      pop\n        /* \"#utility.yul\":19965:19969   */\n      0x20\n        /* \"#utility.yul\":19959:19963   */\n      dup2\n        /* \"#utility.yul\":19955:19970   */\n      add\n        /* \"#utility.yul\":19947:19970   */\n      swap1\n      pop\n        /* \"#utility.yul\":19669:19977   */\n      swap2\n      swap1\n      pop\n      jump\t// out\n        /* \"#utility.yul\":19983:20082   */\n    tag_628:\n        /* \"#utility.yul\":20035:20041   */\n      0x00\n        /* \"#utility.yul\":20069:20074   */\n      dup2\n        /* \"#utility.yul\":20063:20075   */\n      mload\n        /* \"#utility.yul\":20053:20075   */\n      swap1\n      pop\n        /* \"#utility.yul\":19983:20082   */\n      swap2\n      swap1\n      pop\n      jump\t// out\n        /* \"#utility.yul\":20088:20257   */\n    tag_636:\n        /* \"#utility.yul\":20172:20183   */\n      0x00\n        /* \"#utility.yul\":20206:20212   */\n      dup3\n        /* \"#utility.yul\":20201:20204   */\n      dup3\n        /* \"#utility.yul\":20194:20213   */\n      mstore\n        /* \"#utility.yul\":20246:20250   */\n      0x20\n        /* \"#utility.yul\":20241:20244   */\n      dup3\n        /* \"#utility.yul\":20237:20251   */\n      add\n        /* \"#utility.yul\":20222:20251   */\n      swap1\n      pop\n        /* \"#utility.yul\":20088:20257   */\n      swap3\n      swap2\n      pop\n      pop\n      jump\t// out\n        /* \"#utility.yul\":20263:20411   */\n    tag_630:\n        /* \"#utility.yul\":20365:20376   */\n      0x00\n        /* \"#utility.yul\":20402:20405   */\n      dup2\n        /* \"#utility.yul\":20387:20405   */\n      swap1\n      pop\n        /* \"#utility.yul\":20263:20411   */\n      swap3\n      swap2\n      pop\n      pop\n      jump\t// out\n        /* \"#utility.yul\":20417:20722   */\n    tag_223:\n        /* \"#utility.yul\":20457:20460   */\n      0x00\n        /* \"#utility.yul\":20476:20496   */\n      tag_754\n        /* \"#utility.yul\":20494:20495   */\n      dup3\n        /* \"#utility.yul\":20476:20496   */\n      tag_687\n      jump\t// in\n    tag_754:\n        /* \"#utility.yul\":20471:20496   */\n      swap2\n      pop\n        /* \"#utility.yul\":20510:20530   */\n      tag_755\n        /* \"#utility.yul\":20528:20529   */\n      dup4\n        /* \"#utility.yul\":20510:20530   */\n      tag_687\n      jump\t// in\n    tag_755:\n        /* \"#utility.yul\":20505:20530   */\n      swap3\n      pop\n        /* \"#utility.yul\":20664:20665   */\n      dup3\n        /* \"#utility.yul\":20596:20662   */\n      0xffffffffffffffffffffffffffffffffffffffffffffffffffffffffffffffff\n        /* \"#utility.yul\":20592:20666   */\n      sub\n        /* \"#utility.yul\":20589:20590   */\n      dup3\n        /* \"#utility.yul\":20586:20667   */\n      gt\n        /* \"#utility.yul\":20583:20690   */\n      iszero\n      tag_756\n      jumpi\n        /* \"#utility.yul\":20670:20688   */\n      tag_757\n      tag_758\n      jump\t// in\n    tag_757:\n        /* \"#utility.yul\":20583:20690   */\n    tag_756:\n        /* \"#utility.yul\":20714:20715   */\n      dup3\n        /* \"#utility.yul\":20711:20712   */\n      dup3\n        /* \"#utility.yul\":20707:20716   */\n      add\n        /* \"#utility.yul\":20700:20716   */\n      swap1\n      pop\n        /* \"#utility.yul\":20417:20722   */\n      swap3\n      swap2\n      pop\n      pop\n      jump\t// out\n        /* \"#utility.yul\":20728:20913   */\n    tag_266:\n        /* \"#utility.yul\":20768:20769   */\n      0x00\n        /* \"#utility.yul\":20785:20805   */\n      tag_760\n        /* \"#utility.yul\":20803:20804   */\n      dup3\n        /* \"#utility.yul\":20785:20805   */\n      tag_687\n      jump\t// in\n    tag_760:\n        /* \"#utility.yul\":20780:20805   */\n      swap2\n      pop\n        /* \"#utility.yul\":20819:20839   */\n      tag_761\n        /* \"#utility.yul\":20837:20838   */\n      dup4\n        /* \"#utility.yul\":20819:20839   */\n      tag_687\n      jump\t// in\n    tag_761:\n        /* \"#utility.yul\":20814:20839   */\n      swap3\n      pop\n        /* \"#utility.yul\":20858:20859   */\n      dup3\n        /* \"#utility.yul\":20848:20883   */\n      tag_762\n      jumpi\n        /* \"#utility.yul\":20863:20881   */\n      tag_763\n      tag_764\n      jump\t// in\n    tag_763:\n        /* \"#utility.yul\":20848:20883   */\n    tag_762:\n        /* \"#utility.yul\":20905:20906   */\n      dup3\n        /* \"#utility.yul\":20902:20903   */\n      dup3\n        /* \"#utility.yul\":20898:20907   */\n      div\n        /* \"#utility.yul\":20893:20907   */\n      swap1\n      pop\n        /* \"#utility.yul\":20728:20913   */\n      swap3\n      swap2\n      pop\n      pop\n      jump\t// out\n        /* \"#utility.yul\":20919:21267   */\n    tag_308:\n        /* \"#utility.yul\":20959:20966   */\n      0x00\n        /* \"#utility.yul\":20982:21002   */\n      tag_766\n        /* \"#utility.yul\":21000:21001   */\n      dup3\n        /* \"#utility.yul\":20982:21002   */\n      tag_687\n      jump\t// in\n    tag_766:\n        /* \"#utility.yul\":20977:21002   */\n      swap2\n      pop\n        /* \"#utility.yul\":21016:21036   */\n      tag_767\n        /* \"#utility.yul\":21034:21035   */\n      dup4\n        /* \"#utility.yul\":21016:21036   */\n      tag_687\n      jump\t// in\n    tag_767:\n        /* \"#utility.yul\":21011:21036   */\n      swap3\n      pop\n        /* \"#utility.yul\":21204:21205   */\n      dup2\n        /* \"#utility.yul\":21136:21202   */\n      0xffffffffffffffffffffffffffffffffffffffffffffffffffffffffffffffff\n        /* \"#utility.yul\":21132:21206   */\n      div\n        /* \"#utility.yul\":21129:21130   */\n      dup4\n        /* \"#utility.yul\":21126:21207   */\n      gt\n        /* \"#utility.yul\":21121:21122   */\n      dup3\n        /* \"#utility.yul\":21114:21123   */\n      iszero\n        /* \"#utility.yul\":21107:21124   */\n      iszero\n        /* \"#utility.yul\":21103:21208   */\n      and\n        /* \"#utility.yul\":21100:21231   */\n      iszero\n      tag_768\n      jumpi\n        /* \"#utility.yul\":21211:21229   */\n      tag_769\n      tag_758\n      jump\t// in\n    tag_769:\n        /* \"#utility.yul\":21100:21231   */\n    tag_768:\n        /* \"#utility.yul\":21259:21260   */\n      dup3\n        /* \"#utility.yul\":21256:21257   */\n      dup3\n        /* \"#utility.yul\":21252:21261   */\n      mul\n        /* \"#utility.yul\":21241:21261   */\n      swap1\n      pop\n        /* \"#utility.yul\":20919:21267   */\n      swap3\n      swap2\n      pop\n      pop\n      jump\t// out\n        /* \"#utility.yul\":21273:21464   */\n    tag_264:\n        /* \"#utility.yul\":21313:21317   */\n      0x00\n        /* \"#utility.yul\":21333:21353   */\n      tag_771\n        /* \"#utility.yul\":21351:21352   */\n      dup3\n        /* \"#utility.yul\":21333:21353   */\n      tag_687\n      jump\t// in\n    tag_771:\n        /* \"#utility.yul\":21328:21353   */\n      swap2\n      pop\n        /* \"#utility.yul\":21367:21387   */\n      tag_772\n        /* \"#utility.yul\":21385:21386   */\n      dup4\n        /* \"#utility.yul\":21367:21387   */\n      tag_687\n      jump\t// in\n    tag_772:\n        /* \"#utility.yul\":21362:21387   */\n      swap3\n      pop\n        /* \"#utility.yul\":21406:21407   */\n      dup3\n        /* \"#utility.yul\":21403:21404   */\n      dup3\n        /* \"#utility.yul\":21400:21408   */\n      lt\n        /* \"#utility.yul\":21397:21431   */\n      iszero\n      tag_773\n      jumpi\n        /* \"#utility.yul\":21411:21429   */\n      tag_774\n      tag_758\n      jump\t// in\n    tag_774:\n        /* \"#utility.yul\":21397:21431   */\n    tag_773:\n        /* \"#utility.yul\":21456:21457   */\n      dup3\n        /* \"#utility.yul\":21453:21454   */\n      dup3\n        /* \"#utility.yul\":21449:21458   */\n      sub\n        /* \"#utility.yul\":21441:21458   */\n      swap1\n      pop\n        /* \"#utility.yul\":21273:21464   */\n      swap3\n      swap2\n      pop\n      pop\n      jump\t// out\n        /* \"#utility.yul\":21470:21566   */\n    tag_604:\n        /* \"#utility.yul\":21507:21514   */\n      0x00\n        /* \"#utility.yul\":21536:21560   */\n      tag_776\n        /* \"#utility.yul\":21554:21559   */\n      dup3\n        /* \"#utility.yul\":21536:21560   */\n      tag_777\n      jump\t// in\n    tag_776:\n        /* \"#utility.yul\":21525:21560   */\n      swap1\n      pop\n        /* \"#utility.yul\":21470:21566   */\n      swap2\n      swap1\n      pop\n      jump\t// out\n        /* \"#utility.yul\":21572:21662   */\n    tag_778:\n        /* \"#utility.yul\":21606:21613   */\n      0x00\n        /* \"#utility.yul\":21649:21654   */\n      dup2\n        /* \"#utility.yul\":21642:21655   */\n      iszero\n        /* \"#utility.yul\":21635:21656   */\n      iszero\n        /* \"#utility.yul\":21624:21656   */\n      swap1\n      pop\n        /* \"#utility.yul\":21572:21662   */\n      swap2\n      swap1\n      pop\n      jump\t// out\n        /* \"#utility.yul\":21668:21794   */\n    tag_777:\n        /* \"#utility.yul\":21705:21712   */\n      0x00\n        /* \"#utility.yul\":21745:21787   */\n      0xffffffffffffffffffffffffffffffffffffffff\n        /* \"#utility.yul\":21738:21743   */\n      dup3\n        /* \"#utility.yul\":21734:21788   */\n      and\n        /* \"#utility.yul\":21723:21788   */\n      swap1\n      pop\n        /* \"#utility.yul\":21668:21794   */\n      swap2\n      swap1\n      pop\n      jump\t// out\n        /* \"#utility.yul\":21800:21877   */\n    tag_687:\n        /* \"#utility.yul\":21837:21844   */\n      0x00\n        /* \"#utility.yul\":21866:21871   */\n      dup2\n        /* \"#utility.yul\":21855:21871   */\n      swap1\n      pop\n        /* \"#utility.yul\":21800:21877   */\n      swap2\n      swap1\n      pop\n      jump\t// out\n        /* \"#utility.yul\":21883:22024   */\n    tag_608:\n        /* \"#utility.yul\":21948:21957   */\n      0x00\n        /* \"#utility.yul\":21981:22018   */\n      tag_783\n        /* \"#utility.yul\":22012:22017   */\n      dup3\n        /* \"#utility.yul\":21981:22018   */\n      tag_784\n      jump\t// in\n    tag_783:\n        /* \"#utility.yul\":21968:22018   */\n      swap1\n      pop\n        /* \"#utility.yul\":21883:22024   */\n      swap2\n      swap1\n      pop\n      jump\t// out\n        /* \"#utility.yul\":22030:22174   */\n    tag_612:\n        /* \"#utility.yul\":22111:22120   */\n      0x00\n        /* \"#utility.yul\":22144:22168   */\n      tag_786\n        /* \"#utility.yul\":22162:22167   */\n      dup3\n        /* \"#utility.yul\":22144:22168   */\n      tag_687\n      jump\t// in\n    tag_786:\n        /* \"#utility.yul\":22131:22168   */\n      swap1\n      pop\n        /* \"#utility.yul\":22030:22174   */\n      swap2\n      swap1\n      pop\n      jump\t// out\n        /* \"#utility.yul\":22180:22323   */\n    tag_616:\n        /* \"#utility.yul\":22260:22269   */\n      0x00\n        /* \"#utility.yul\":22293:22317   */\n      tag_788\n        /* \"#utility.yul\":22311:22316   */\n      dup3\n        /* \"#utility.yul\":22293:22317   */\n      tag_687\n      jump\t// in\n    tag_788:\n        /* \"#utility.yul\":22280:22317   */\n      swap1\n      pop\n        /* \"#utility.yul\":22180:22323   */\n      swap2\n      swap1\n      pop\n      jump\t// out\n        /* \"#utility.yul\":22329:22472   */\n    tag_620:\n        /* \"#utility.yul\":22409:22418   */\n      0x00\n        /* \"#utility.yul\":22442:22466   */\n      tag_790\n        /* \"#utility.yul\":22460:22465   */\n      dup3\n        /* \"#utility.yul\":22442:22466   */\n      tag_687\n      jump\t// in\n    tag_790:\n        /* \"#utility.yul\":22429:22466   */\n      swap1\n      pop\n        /* \"#utility.yul\":22329:22472   */\n      swap2\n      swap1\n      pop\n      jump\t// out\n        /* \"#utility.yul\":22478:22620   */\n    tag_624:\n        /* \"#utility.yul\":22557:22566   */\n      0x00\n        /* \"#utility.yul\":22590:22614   */\n      tag_792\n        /* \"#utility.yul\":22608:22613   */\n      dup3\n        /* \"#utility.yul\":22590:22614   */\n      tag_687\n      jump\t// in\n    tag_792:\n        /* \"#utility.yul\":22577:22614   */\n      swap1\n      pop\n        /* \"#utility.yul\":22478:22620   */\n      swap2\n      swap1\n      pop\n      jump\t// out\n        /* \"#utility.yul\":22626:22752   */\n    tag_784:\n        /* \"#utility.yul\":22676:22685   */\n      0x00\n        /* \"#utility.yul\":22709:22746   */\n      tag_794\n        /* \"#utility.yul\":22740:22745   */\n      dup3\n        /* \"#utility.yul\":22709:22746   */\n      tag_795\n      jump\t// in\n    tag_794:\n        /* \"#utility.yul\":22696:22746   */\n      swap1\n      pop\n        /* \"#utility.yul\":22626:22752   */\n      swap2\n      swap1\n      pop\n      jump\t// out\n        /* \"#utility.yul\":22758:22871   */\n    tag_795:\n        /* \"#utility.yul\":22808:22817   */\n      0x00\n        /* \"#utility.yul\":22841:22865   */\n      tag_797\n        /* \"#utility.yul\":22859:22864   */\n      dup3\n        /* \"#utility.yul\":22841:22865   */\n      tag_777\n      jump\t// in\n    tag_797:\n        /* \"#utility.yul\":22828:22865   */\n      swap1\n      pop\n        /* \"#utility.yul\":22758:22871   */\n      swap2\n      swap1\n      pop\n      jump\t// out\n        /* \"#utility.yul\":22877:23031   */\n    tag_525:\n        /* \"#utility.yul\":22961:22967   */\n      dup3\n        /* \"#utility.yul\":22956:22959   */\n      dup2\n        /* \"#utility.yul\":22951:22954   */\n      dup4\n        /* \"#utility.yul\":22938:22968   */\n      calldatacopy\n        /* \"#utility.yul\":23023:23024   */\n      0x00\n        /* \"#utility.yul\":23014:23020   */\n      dup4\n        /* \"#utility.yul\":23009:23012   */\n      dup4\n        /* \"#utility.yul\":23005:23021   */\n      add\n        /* \"#utility.yul\":22998:23025   */\n      mstore\n        /* \"#utility.yul\":22877:23031   */\n      pop\n      pop\n      pop\n      jump\t// out\n        /* \"#utility.yul\":23037:23344   */\n    tag_632:\n        /* \"#utility.yul\":23105:23106   */\n      0x00\n        /* \"#utility.yul\":23115:23228   */\n    tag_800:\n        /* \"#utility.yul\":23129:23135   */\n      dup4\n        /* \"#utility.yul\":23126:23127   */\n      dup2\n        /* \"#utility.yul\":23123:23136   */\n      lt\n        /* \"#utility.yul\":23115:23228   */\n      iszero\n      tag_802\n      jumpi\n        /* \"#utility.yul\":23214:23215   */\n      dup1\n        /* \"#utility.yul\":23209:23212   */\n      dup3\n        /* \"#utility.yul\":23205:23216   */\n      add\n        /* \"#utility.yul\":23199:23217   */\n      mload\n        /* \"#utility.yul\":23195:23196   */\n      dup2\n        /* \"#utility.yul\":23190:23193   */\n      dup5\n        /* \"#utility.yul\":23186:23197   */\n      add\n        /* \"#utility.yul\":23179:23218   */\n      mstore\n        /* \"#utility.yul\":23151:23153   */\n      0x20\n        /* \"#utility.yul\":23148:23149   */\n      dup2\n        /* \"#utility.yul\":23144:23154   */\n      add\n        /* \"#utility.yul\":23139:23154   */\n      swap1\n      pop\n        /* \"#utility.yul\":23115:23228   */\n      jump(tag_800)\n    tag_802:\n        /* \"#utility.yul\":23246:23252   */\n      dup4\n        /* \"#utility.yul\":23243:23244   */\n      dup2\n        /* \"#utility.yul\":23240:23253   */\n      gt\n        /* \"#utility.yul\":23237:23338   */\n      iszero\n      tag_803\n      jumpi\n        /* \"#utility.yul\":23326:23327   */\n      0x00\n        /* \"#utility.yul\":23317:23323   */\n      dup5\n        /* \"#utility.yul\":23312:23315   */\n      dup5\n        /* \"#utility.yul\":23308:23324   */\n      add\n        /* \"#utility.yul\":23301:23328   */\n      mstore\n        /* \"#utility.yul\":23237:23338   */\n    tag_803:\n        /* \"#utility.yul\":23086:23344   */\n      pop\n        /* \"#utility.yul\":23037:23344   */\n      pop\n      pop\n      pop\n      jump\t// out\n        /* \"#utility.yul\":23350:23631   */\n    tag_742:\n        /* \"#utility.yul\":23433:23460   */\n      tag_805\n        /* \"#utility.yul\":23455:23459   */\n      dup3\n        /* \"#utility.yul\":23433:23460   */\n      tag_749\n      jump\t// in\n    tag_805:\n        /* \"#utility.yul\":23425:23431   */\n      dup2\n        /* \"#utility.yul\":23421:23461   */\n      add\n        /* \"#utility.yul\":23563:23569   */\n      dup2\n        /* \"#utility.yul\":23551:23561   */\n      dup2\n        /* \"#utility.yul\":23548:23570   */\n      lt\n        /* \"#utility.yul\":23527:23545   */\n      0xffffffffffffffff\n        /* \"#utility.yul\":23515:23525   */\n      dup3\n        /* \"#utility.yul\":23512:23546   */\n      gt\n        /* \"#utility.yul\":23509:23571   */\n      or\n        /* \"#utility.yul\":23506:23594   */\n      iszero\n      tag_806\n      jumpi\n        /* \"#utility.yul\":23574:23592   */\n      tag_807\n      tag_747\n      jump\t// in\n    tag_807:\n        /* \"#utility.yul\":23506:23594   */\n    tag_806:\n        /* \"#utility.yul\":23614:23624   */\n      dup1\n        /* \"#utility.yul\":23610:23612   */\n      0x40\n        /* \"#utility.yul\":23603:23625   */\n      mstore\n        /* \"#utility.yul\":23393:23631   */\n      pop\n        /* \"#utility.yul\":23350:23631   */\n      pop\n      pop\n      jump\t// out\n        /* \"#utility.yul\":23637:23870   */\n    tag_276:\n        /* \"#utility.yul\":23676:23679   */\n      0x00\n        /* \"#utility.yul\":23699:23723   */\n      tag_809\n        /* \"#utility.yul\":23717:23722   */\n      dup3\n        /* \"#utility.yul\":23699:23723   */\n      tag_687\n      jump\t// in\n    tag_809:\n        /* \"#utility.yul\":23690:23723   */\n      swap2\n      pop\n        /* \"#utility.yul\":23745:23811   */\n      0xffffffffffffffffffffffffffffffffffffffffffffffffffffffffffffffff\n        /* \"#utility.yul\":23738:23743   */\n      dup3\n        /* \"#utility.yul\":23735:23812   */\n      eq\n        /* \"#utility.yul\":23732:23835   */\n      iszero\n      tag_810\n      jumpi\n        /* \"#utility.yul\":23815:23833   */\n      tag_811\n      tag_758\n      jump\t// in\n    tag_811:\n        /* \"#utility.yul\":23732:23835   */\n    tag_810:\n        /* \"#utility.yul\":23862:23863   */\n      0x01\n        /* \"#utility.yul\":23855:23860   */\n      dup3\n        /* \"#utility.yul\":23851:23864   */\n      add\n        /* \"#utility.yul\":23844:23864   */\n      swap1\n      pop\n        /* \"#utility.yul\":23637:23870   */\n      swap2\n      swap1\n      pop\n      jump\t// out\n        /* \"#utility.yul\":23876:24056   */\n    tag_758:\n        /* \"#utility.yul\":23924:24001   */\n      0x4e487b7100000000000000000000000000000000000000000000000000000000\n        /* \"#utility.yul\":23921:23922   */\n      0x00\n        /* \"#utility.yul\":23914:24002   */\n      mstore\n        /* \"#utility.yul\":24021:24025   */\n      0x11\n        /* \"#utility.yul\":24018:24019   */\n      0x04\n        /* \"#utility.yul\":24011:24026   */\n      mstore\n        /* \"#utility.yul\":24045:24049   */\n      0x24\n        /* \"#utility.yul\":24042:24043   */\n      0x00\n        /* \"#utility.yul\":24035:24050   */\n      revert\n        /* \"#utility.yul\":24062:24242   */\n    tag_764:\n        /* \"#utility.yul\":24110:24187   */\n      0x4e487b7100000000000000000000000000000000000000000000000000000000\n        /* \"#utility.yul\":24107:24108   */\n      0x00\n        /* \"#utility.yul\":24100:24188   */\n      mstore\n        /* \"#utility.yul\":24207:24211   */\n      0x12\n        /* \"#utility.yul\":24204:24205   */\n      0x04\n        /* \"#utility.yul\":24197:24212   */\n      mstore\n        /* \"#utility.yul\":24231:24235   */\n      0x24\n        /* \"#utility.yul\":24228:24229   */\n      0x00\n        /* \"#utility.yul\":24221:24236   */\n      revert\n        /* \"#utility.yul\":24248:24428   */\n    tag_747:\n        /* \"#utility.yul\":24296:24373   */\n      0x4e487b7100000000000000000000000000000000000000000000000000000000\n        /* \"#utility.yul\":24293:24294   */\n      0x00\n        /* \"#utility.yul\":24286:24374   */\n      mstore\n        /* \"#utility.yul\":24393:24397   */\n      0x41\n        /* \"#utility.yul\":24390:24391   */\n      0x04\n        /* \"#utility.yul\":24383:24398   */\n      mstore\n        /* \"#utility.yul\":24417:24421   */\n      0x24\n        /* \"#utility.yul\":24414:24415   */\n      0x00\n        /* \"#utility.yul\":24407:24422   */\n      revert\n        /* \"#utility.yul\":24434:24551   */\n    tag_538:\n        /* \"#utility.yul\":24543:24544   */\n      0x00\n        /* \"#utility.yul\":24540:24541   */\n      dup1\n        /* \"#utility.yul\":24533:24545   */\n      revert\n        /* \"#utility.yul\":24557:24674   */\n    tag_523:\n        /* \"#utility.yul\":24666:24667   */\n      0x00\n        /* \"#utility.yul\":24663:24664   */\n      dup1\n        /* \"#utility.yul\":24656:24668   */\n      revert\n        /* \"#utility.yul\":24680:24797   */\n    tag_558:\n        /* \"#utility.yul\":24789:24790   */\n      0x00\n        /* \"#utility.yul\":24786:24787   */\n      dup1\n        /* \"#utility.yul\":24779:24791   */\n      revert\n        /* \"#utility.yul\":24803:24920   */\n    tag_550:\n        /* \"#utility.yul\":24912:24913   */\n      0x00\n        /* \"#utility.yul\":24909:24910   */\n      dup1\n        /* \"#utility.yul\":24902:24914   */\n      revert\n        /* \"#utility.yul\":24926:25028   */\n    tag_749:\n        /* \"#utility.yul\":24967:24973   */\n      0x00\n        /* \"#utility.yul\":25018:25020   */\n      0x1f\n        /* \"#utility.yul\":25014:25021   */\n      not\n        /* \"#utility.yul\":25009:25011   */\n      0x1f\n        /* \"#utility.yul\":25002:25007   */\n      dup4\n        /* \"#utility.yul\":24998:25012   */\n      add\n        /* \"#utility.yul\":24994:25022   */\n      and\n        /* \"#utility.yul\":24984:25022   */\n      swap1\n      pop\n        /* \"#utility.yul\":24926:25028   */\n      swap2\n      swap1\n      pop\n      jump\t// out\n        /* \"#utility.yul\":25034:25257   */\n    tag_638:\n        /* \"#utility.yul\":25174:25208   */\n      0x596f7520646f6e7420686176652074686174206d75636820746f207769746864\n        /* \"#utility.yul\":25170:25171   */\n      0x00\n        /* \"#utility.yul\":25162:25168   */\n      dup3\n        /* \"#utility.yul\":25158:25172   */\n      add\n        /* \"#utility.yul\":25151:25209   */\n      mstore\n        /* \"#utility.yul\":25243:25249   */\n      0x7261772100000000000000000000000000000000000000000000000000000000\n        /* \"#utility.yul\":25238:25240   */\n      0x20\n        /* \"#utility.yul\":25230:25236   */\n      dup3\n        /* \"#utility.yul\":25226:25241   */\n      add\n        /* \"#utility.yul\":25219:25250   */\n      mstore\n        /* \"#utility.yul\":25034:25257   */\n      pop\n      jump\t// out\n        /* \"#utility.yul\":25263:25488   */\n    tag_643:\n        /* \"#utility.yul\":25403:25437   */\n      0x4f776e61626c653a206e6577206f776e657220697320746865207a65726f2061\n        /* \"#utility.yul\":25399:25400   */\n      0x00\n        /* \"#utility.yul\":25391:25397   */\n      dup3\n        /* \"#utility.yul\":25387:25401   */\n      add\n        /* \"#utility.yul\":25380:25438   */\n      mstore\n        /* \"#utility.yul\":25472:25480   */\n      0x6464726573730000000000000000000000000000000000000000000000000000\n        /* \"#utility.yul\":25467:25469   */\n      0x20\n        /* \"#utility.yul\":25459:25465   */\n      dup3\n        /* \"#utility.yul\":25455:25470   */\n      add\n        /* \"#utility.yul\":25448:25481   */\n      mstore\n        /* \"#utility.yul\":25263:25488   */\n      pop\n      jump\t// out\n        /* \"#utility.yul\":25494:25665   */\n    tag_648:\n        /* \"#utility.yul\":25634:25657   */\n      0x546f6b656e207472616e73666572206661696c65640000000000000000000000\n        /* \"#utility.yul\":25630:25631   */\n      0x00\n        /* \"#utility.yul\":25622:25628   */\n      dup3\n        /* \"#utility.yul\":25618:25632   */\n      add\n        /* \"#utility.yul\":25611:25658   */\n      mstore\n        /* \"#utility.yul\":25494:25665   */\n      pop\n      jump\t// out\n        /* \"#utility.yul\":25671:25853   */\n    tag_653:\n        /* \"#utility.yul\":25811:25845   */\n      0x4f776e61626c653a2063616c6c6572206973206e6f7420746865206f776e6572\n        /* \"#utility.yul\":25807:25808   */\n      0x00\n        /* \"#utility.yul\":25799:25805   */\n      dup3\n        /* \"#utility.yul\":25795:25809   */\n      add\n        /* \"#utility.yul\":25788:25846   */\n      mstore\n        /* \"#utility.yul\":25671:25853   */\n      pop\n      jump\t// out\n        /* \"#utility.yul\":25859:26035   */\n    tag_658:\n        /* \"#utility.yul\":25999:26027   */\n      0x596f7520646f6e742068617665207468617420616d6f756e7421000000000000\n        /* \"#utility.yul\":25995:25996   */\n      0x00\n        /* \"#utility.yul\":25987:25993   */\n      dup3\n        /* \"#utility.yul\":25983:25997   */\n      add\n        /* \"#utility.yul\":25976:26028   */\n      mstore\n        /* \"#utility.yul\":25859:26035   */\n      pop\n      jump\t// out\n        /* \"#utility.yul\":26041:26212   */\n    tag_663:\n        /* \"#utility.yul\":26181:26204   */\n      0x506572207472616e73616374696f6e206c696d69740000000000000000000000\n        /* \"#utility.yul\":26177:26178   */\n      0x00\n        /* \"#utility.yul\":26169:26175   */\n      dup3\n        /* \"#utility.yul\":26165:26179   */\n      add\n        /* \"#utility.yul\":26158:26205   */\n      mstore\n        /* \"#utility.yul\":26041:26212   */\n      pop\n      jump\t// out\n        /* \"#utility.yul\":26218:26372   */\n    tag_668:\n        /* \"#utility.yul\":26358:26364   */\n      0x5553444300000000000000000000000000000000000000000000000000000000\n        /* \"#utility.yul\":26354:26355   */\n      0x00\n        /* \"#utility.yul\":26346:26352   */\n      dup3\n        /* \"#utility.yul\":26342:26356   */\n      add\n        /* \"#utility.yul\":26335:26365   */\n      mstore\n        /* \"#utility.yul\":26218:26372   */\n      pop\n      jump\t// out\n        /* \"#utility.yul\":26378:26540   */\n    tag_673:\n        /* \"#utility.yul\":26518:26532   */\n      0x4e6f7420756e6c6f636b65640000000000000000000000000000000000000000\n        /* \"#utility.yul\":26514:26515   */\n      0x00\n        /* \"#utility.yul\":26506:26512   */\n      dup3\n        /* \"#utility.yul\":26502:26516   */\n      add\n        /* \"#utility.yul\":26495:26533   */\n      mstore\n        /* \"#utility.yul\":26378:26540   */\n      pop\n      jump\t// out\n        /* \"#utility.yul\":26546:26727   */\n    tag_678:\n        /* \"#utility.yul\":26686:26719   */\n      0x5265656e7472616e637947756172643a207265656e7472616e742063616c6c00\n        /* \"#utility.yul\":26682:26683   */\n      0x00\n        /* \"#utility.yul\":26674:26680   */\n      dup3\n        /* \"#utility.yul\":26670:26684   */\n      add\n        /* \"#utility.yul\":26663:26720   */\n      mstore\n        /* \"#utility.yul\":26546:26727   */\n      pop\n      jump\t// out\n        /* \"#utility.yul\":26733:26953   */\n    tag_683:\n        /* \"#utility.yul\":26873:26907   */\n      0x75696e74206f766572666c6f772066726f6d206d756c7469706c69636174696f\n        /* \"#utility.yul\":26869:26870   */\n      0x00\n        /* \"#utility.yul\":26861:26867   */\n      dup3\n        /* \"#utility.yul\":26857:26871   */\n      add\n        /* \"#utility.yul\":26850:26908   */\n      mstore\n        /* \"#utility.yul\":26942:26945   */\n      0x6e00000000000000000000000000000000000000000000000000000000000000\n        /* \"#utility.yul\":26937:26939   */\n      0x20\n        /* \"#utility.yul\":26929:26935   */\n      dup3\n        /* \"#utility.yul\":26925:26940   */\n      add\n        /* \"#utility.yul\":26918:26946   */\n      mstore\n        /* \"#utility.yul\":26733:26953   */\n      pop\n      jump\t// out\n        /* \"#utility.yul\":26959:27081   */\n    tag_529:\n        /* \"#utility.yul\":27032:27056   */\n      tag_831\n        /* \"#utility.yul\":27050:27055   */\n      dup2\n        /* \"#utility.yul\":27032:27056   */\n      tag_604\n      jump\t// in\n    tag_831:\n        /* \"#utility.yul\":27025:27030   */\n      dup2\n        /* \"#utility.yul\":27022:27057   */\n      eq\n        /* \"#utility.yul\":27012:27075   */\n      tag_832\n      jumpi\n        /* \"#utility.yul\":27071:27072   */\n      0x00\n        /* \"#utility.yul\":27068:27069   */\n      dup1\n        /* \"#utility.yul\":27061:27073   */\n      revert\n        /* \"#utility.yul\":27012:27075   */\n    tag_832:\n        /* \"#utility.yul\":26959:27081   */\n      pop\n      jump\t// out\n        /* \"#utility.yul\":27087:27203   */\n    tag_533:\n        /* \"#utility.yul\":27157:27178   */\n      tag_834\n        /* \"#utility.yul\":27172:27177   */\n      dup2\n        /* \"#utility.yul\":27157:27178   */\n      tag_778\n      jump\t// in\n    tag_834:\n        /* \"#utility.yul\":27150:27155   */\n      dup2\n        /* \"#utility.yul\":27147:27179   */\n      eq\n        /* \"#utility.yul\":27137:27197   */\n      tag_835\n      jumpi\n        /* \"#utility.yul\":27193:27194   */\n      0x00\n        /* \"#utility.yul\":27190:27191   */\n      dup1\n        /* \"#utility.yul\":27183:27195   */\n      revert\n        /* \"#utility.yul\":27137:27197   */\n    tag_835:\n        /* \"#utility.yul\":27087:27203   */\n      pop\n      jump\t// out\n        /* \"#utility.yul\":27209:27331   */\n    tag_543:\n        /* \"#utility.yul\":27282:27306   */\n      tag_837\n        /* \"#utility.yul\":27300:27305   */\n      dup2\n        /* \"#utility.yul\":27282:27306   */\n      tag_687\n      jump\t// in\n    tag_837:\n        /* \"#utility.yul\":27275:27280   */\n      dup2\n        /* \"#utility.yul\":27272:27307   */\n      eq\n        /* \"#utility.yul\":27262:27325   */\n      tag_838\n      jumpi\n        /* \"#utility.yul\":27321:27322   */\n      0x00\n        /* \"#utility.yul\":27318:27319   */\n      dup1\n        /* \"#utility.yul\":27311:27323   */\n      revert\n        /* \"#utility.yul\":27262:27325   */\n    tag_838:\n        /* \"#utility.yul\":27209:27331   */\n      pop\n      jump\t// out\n\n    auxdata: 0xa2646970667358221220d3e6e064f8215f0de00d258d5a5059312fa32ff62897dea8d39e454f2d1906b064736f6c63430008070033\n}\n",
				"bytecode": {
					"linkReferences": {},
					"object": "608060405273617f2e2fd72fd9d5503197092ac168c91465e7f2600b60006101000a81548173ffffffffffffffffffffffffffffffffffffffff021916908373ffffffffffffffffffffffffffffffffffffffff1602179055503480156200006657600080fd5b5060016000819055506200008f620000836200036560201b60201c565b6200036d60201b60201c565b73060e26006476351141c5b77fcf42dd534a7c279a600c60006101000a81548173ffffffffffffffffffffffffffffffffffffffff021916908373ffffffffffffffffffffffffffffffffffffffff160217905550734506069a92686023320ae5f853555efd6d6cccec600d60006101000a81548173ffffffffffffffffffffffffffffffffffffffff021916908373ffffffffffffffffffffffffffffffffffffffff16021790555073ae126f05feab84436c8f470c44270329a3a348e5600e60006101000a81548173ffffffffffffffffffffffffffffffffffffffff021916908373ffffffffffffffffffffffffffffffffffffffff16021790555073e8015d99e16fe4918261c3a62582eb8aa72c590c6013604051620001b390620004d6565b908152602001604051809103902060000160006101000a81548173ffffffffffffffffffffffffffffffffffffffff021916908373ffffffffffffffffffffffffffffffffffffffff160217905550600660136040516200021490620004d6565b908152602001604051809103902060010181905550732a4a8ab6a0bc0d377098f8688f77003833bc1c9d60136040516200024e90620004bf565b908152602001604051809103902060000160006101000a81548173ffffffffffffffffffffffffffffffffffffffff021916908373ffffffffffffffffffffffffffffffffffffffff16021790555060126013604051620002af90620004bf565b90815260200160405180910390206001018190555073dc301622e621166bd8e82f2ca0a26c13ad0be3556013604051620002e990620004a8565b908152602001604051809103902060000160006101000a81548173ffffffffffffffffffffffffffffffffffffffff021916908373ffffffffffffffffffffffffffffffffffffffff160217905550601260136040516200034a90620004a8565b90815260200160405180910390206001018190555062000573565b600033905090565b6000600160009054906101000a900473ffffffffffffffffffffffffffffffffffffffff16905081600160006101000a81548173ffffffffffffffffffffffffffffffffffffffff021916908373ffffffffffffffffffffffffffffffffffffffff1602179055508173ffffffffffffffffffffffffffffffffffffffff168173ffffffffffffffffffffffffffffffffffffffff167f8be0079c531659141344cd1fd0a4f28419497f9722a3daafe3b4186f6b6457e060405160405180910390a35050565b600062000442600483620004ed565b91506200044f82620004f8565b600482019050919050565b600062000469600383620004ed565b9150620004768262000521565b600382019050919050565b600062000490600483620004ed565b91506200049d826200054a565b600482019050919050565b6000620004b58262000433565b9150819050919050565b6000620004cc826200045a565b9150819050919050565b6000620004e38262000481565b9150819050919050565b600081905092915050565b7f4652415800000000000000000000000000000000000000000000000000000000600082015250565b7f4441490000000000000000000000000000000000000000000000000000000000600082015250565b7f5553444300000000000000000000000000000000000000000000000000000000600082015250565b61391480620005836000396000f3fe6080604052600436106102255760003560e01c80637087a7a511610123578063bdad7f02116100ab578063d82eddf21161006f578063d82eddf2146107ad578063e5d98082146107d8578063eee05f5e14610801578063f2fde38b1461082c578063fc3614431461085557610225565b8063bdad7f02146106e7578063c079d7f614610710578063c0ca6fb41461073b578063c0ce588914610766578063d04d79081461078257610225565b80638da5cb5b116100f25780638da5cb5b1461061357806393f7b7111461063e5780639b19251a14610669578063a475bf4814610692578063bcb3de54146106d057610225565b80637087a7a51461057d578063715018a6146105a857806371cd58f9146105bf578063862d1b35146105ea57610225565b80631bc9cc45116101b15780633c6eb17a116101755780633c6eb17a146104a857806343d32e9c146104d357806366763319146104fe57806367b48c911461052957806367e927a81461055457610225565b80631bc9cc45146103ce5780631f564a06146103ea57806326ae486e1461041557806329982a32146104405780632a9f0fb11461046b57610225565b80630f65de3e116101f85780630f65de3e146102c257806312b2ed94146102ed5780631514c9761461032b578063164c8501146103685780631a30e8721461039157610225565b8063018a25e81461022a57806302ac816814610255578063047729b01461026c5780630ccaf04f14610297575b600080fd5b34801561023657600080fd5b5061023f61087e565b60405161024c9190613283565b60405180910390f35b34801561026157600080fd5b5061026a61099c565b005b34801561027857600080fd5b50610281610d19565b60405161028e9190613029565b60405180910390f35b3480156102a357600080fd5b506102ac610d3f565b6040516102b99190613283565b60405180910390f35b3480156102ce57600080fd5b506102d7610df5565b6040516102e49190613283565b60405180910390f35b3480156102f957600080fd5b50610314600480360381019061030f9190612b72565b610f00565b60405161032292919061329e565b60405180910390f35b34801561033757600080fd5b50610352600480360381019061034d9190612ce0565b610f24565b60405161035f9190613283565b60405180910390f35b34801561037457600080fd5b5061038f600480360381019061038a9190612ce0565b610f3c565b005b34801561039d57600080fd5b506103b860048036038101906103b39190612ce0565b6110ba565b6040516103c59190613283565b60405180910390f35b6103e860048036038101906103e39190612ce0565b6110d2565b005b3480156103f657600080fd5b506103ff61126a565b60405161040c9190613283565b60405180910390f35b34801561042157600080fd5b5061042a61132f565b6040516104379190613148565b60405180910390f35b34801561044c57600080fd5b50610455611355565b6040516104629190613029565b60405180910390f35b34801561047757600080fd5b50610492600480360381019061048d9190612ce0565b61137b565b60405161049f9190613283565b60405180910390f35b3480156104b457600080fd5b506104bd611393565b6040516104ca9190613283565b60405180910390f35b3480156104df57600080fd5b506104e8611399565b6040516104f59190613283565b60405180910390f35b34801561050a57600080fd5b506105136114b7565b6040516105209190613283565b60405180910390f35b34801561053557600080fd5b5061053e6114bd565b60405161054b9190613283565b60405180910390f35b34801561056057600080fd5b5061057b60048036038101906105769190612ce0565b6114c3565b005b34801561058957600080fd5b50610592611574565b60405161059f9190613148565b60405180910390f35b3480156105b457600080fd5b506105bd61159a565b005b3480156105cb57600080fd5b506105d4611622565b6040516105e19190613283565b60405180910390f35b3480156105f657600080fd5b50610611600480360381019061060c9190612d3a565b6116d9565b005b34801561061f57600080fd5b50610628611bda565b6040516106359190613029565b60405180910390f35b34801561064a57600080fd5b50610653611c04565b6040516106609190613283565b60405180910390f35b34801561067557600080fd5b50610690600480360381019061068b9190612b72565b611cba565b005b34801561069e57600080fd5b506106b960048036038101906106b49190612c28565b611d39565b6040516106c792919061311f565b60405180910390f35b3480156106dc57600080fd5b506106e5611d93565b005b3480156106f357600080fd5b5061070e60048036038101906107099190612b9f565b611e91565b005b34801561071c57600080fd5b50610725612012565b6040516107329190613029565b60405180910390f35b34801561074757600080fd5b50610750612038565b60405161075d9190613148565b60405180910390f35b610780600480360381019061077b9190612d96565b61205e565b005b34801561078e57600080fd5b50610797612461565b6040516107a49190613148565b60405180910390f35b3480156107b957600080fd5b506107c2612487565b6040516107cf9190613283565b60405180910390f35b3480156107e457600080fd5b506107ff60048036038101906107fa9190612c71565b6124ea565b005b34801561080d57600080fd5b506108166125f1565b6040516108239190613029565b60405180910390f35b34801561083857600080fd5b50610853600480360381019061084e9190612b72565b612617565b005b34801561086157600080fd5b5061087c60048036038101906108779190612ce0565b61270f565b005b60006109973073ffffffffffffffffffffffffffffffffffffffff16631f564a066040518163ffffffff1660e01b815260040160206040518083038186803b1580156108c957600080fd5b505afa1580156108dd573d6000803e3d6000fd5b505050506040513d601f19601f820116820180604052508101906109019190612d0d565b3073ffffffffffffffffffffffffffffffffffffffff166393f7b7116040518163ffffffff1660e01b815260040160206040518083038186803b15801561094757600080fd5b505afa15801561095b573d6000803e3d6000fd5b505050506040513d601f19601f8201168201806040525081019061097f9190612d0d565b6710a741a4627800006109929190613344565b6127a3565b905090565b6109a46127ec565b73ffffffffffffffffffffffffffffffffffffffff166109c2611bda565b73ffffffffffffffffffffffffffffffffffffffff1614610a18576040517f08c379a0000000000000000000000000000000000000000000000000000000008152600401610a0f906131c3565b60405180910390fd5b4260098190555062069780600a81905550600c60009054906101000a900473ffffffffffffffffffffffffffffffffffffffff1673ffffffffffffffffffffffffffffffffffffffff166340c10f1973617f2e2fd72fd9d5503197092ac168c91465e7f26901fe36793670c0c820006040518363ffffffff1660e01b8152600401610aa49291906130f6565b600060405180830381600087803b158015610abe57600080fd5b505af1158015610ad2573d6000803e3d6000fd5b50505050600c60009054906101000a900473ffffffffffffffffffffffffffffffffffffffff1673ffffffffffffffffffffffffffffffffffffffff166340c10f197317f6ad8ef982297579c203069c1dbffe4348c37269097782bfbf68ab74e0006040518363ffffffff1660e01b8152600401610b519291906130a4565b600060405180830381600087803b158015610b6b57600080fd5b505af1158015610b7f573d6000803e3d6000fd5b50505050600c60009054906101000a900473ffffffffffffffffffffffffffffffffffffffff1673ffffffffffffffffffffffffffffffffffffffff166340c10f19735c6b0f7bf3e7ce046039bd8fabdfd3f9f50216786909f7105e1033c3e8a0006040518363ffffffff1660e01b8152600401610bfe9291906130cd565b600060405180830381600087803b158015610c1857600080fd5b505af1158015610c2c573d6000803e3d6000fd5b50505050600d60009054906101000a900473ffffffffffffffffffffffffffffffffffffffff1673ffffffffffffffffffffffffffffffffffffffff166340c10f193069156cc997060d3025a0006040518363ffffffff1660e01b8152600401610c9792919061307b565b600060405180830381600087803b158015610cb157600080fd5b505af1158015610cc5573d6000803e3d6000fd5b5050505069156cc997060d3025a000601060008081526020019081526020016000208190555069156cc997060d3025a00060126000808152602001908152602001600020819055506208b290600881905550565b600660009054906101000a900473ffffffffffffffffffffffffffffffffffffffff1681565b600080610dd03073ffffffffffffffffffffffffffffffffffffffff1663d82eddf26040518163ffffffff1660e01b815260040160206040518083038186803b158015610d8b57600080fd5b505afa158015610d9f573d6000803e3d6000fd5b505050506040513d601f19601f82011682018060405250810190610dc39190612d0d565b610dcb610df5565b6127f4565b9050670429d069189e0000811115610dee57670429d069189e000090505b8091505090565b6000806201518060095442610e0a9190613425565b610e14919061339a565b905060008062015180600a54610e2a919061339a565b9050600080841415610e55576012600080815260200190815260200160002054945050505050610efd565b81841015610eaa57600090505b83811015610e9e57601260008281526020019081526020016000205483610e899190613344565b92508080610e9690613592565b915050610e62565b82945050505050610efd565b8184610eb69190613425565b90505b83811015610ef557601260008281526020019081526020016000205483610ee09190613344565b92508080610eed90613592565b915050610eb9565b829450505050505b90565b60146020528060005260406000206000915090508060000154908060010154905082565b60116020528060005260406000206000915090505481565b601460003373ffffffffffffffffffffffffffffffffffffffff1673ffffffffffffffffffffffffffffffffffffffff168152602001908152602001600020600101548110610fc0576040517f08c379a0000000000000000000000000000000000000000000000000000000008152600401610fb790613163565b60405180910390fd5b80601460003373ffffffffffffffffffffffffffffffffffffffff1673ffffffffffffffffffffffffffffffffffffffff16815260200190815260200160002060010160008282546110129190613425565b925050819055506000601460003373ffffffffffffffffffffffffffffffffffffffff1673ffffffffffffffffffffffffffffffffffffffff1681526020019081526020016000206001015414156110b757601460003373ffffffffffffffffffffffffffffffffffffffff1673ffffffffffffffffffffffffffffffffffffffff168152602001908152602001600020600080820160009055600182016000905550505b50565b60126020528060005260406000206000915090505481565b6000600c60009054906101000a900473ffffffffffffffffffffffffffffffffffffffff1673ffffffffffffffffffffffffffffffffffffffff166370a08231336040518263ffffffff1660e01b815260040161112f9190613029565b60206040518083038186803b15801561114757600080fd5b505afa15801561115b573d6000803e3d6000fd5b505050506040513d601f19601f8201168201806040525081019061117f9190612d0d565b90508181116111c3576040517f08c379a00000000000000000000000000000000000000000000000000000000081526004016111ba906131e3565b60405180910390fd5b6111f1600c60009054906101000a900473ffffffffffffffffffffffffffffffffffffffff16333085612835565b600062015180600954426112059190613425565b61120f919061339a565b9050826011600083815260200190815260200160002060008282546112349190613344565b925050819055508260126000838152602001908152602001600020600082825461125e9190613425565b92505081905550505050565b600061132a670de0b6b3a764000060085461128591906133cb565b600c60009054906101000a900473ffffffffffffffffffffffffffffffffffffffff1673ffffffffffffffffffffffffffffffffffffffff166318160ddd6040518163ffffffff1660e01b815260040160206040518083038186803b1580156112ed57600080fd5b505afa158015611301573d6000803e3d6000fd5b505050506040513d601f19601f820116820180604052508101906113259190612d0d565b6127f4565b905090565b600c60009054906101000a900473ffffffffffffffffffffffffffffffffffffffff1681565b600760009054906101000a900473ffffffffffffffffffffffffffffffffffffffff1681565b60106020528060005260406000206000915090505481565b60095481565b60006114b23073ffffffffffffffffffffffffffffffffffffffff16631f564a066040518163ffffffff1660e01b815260040160206040518083038186803b1580156113e457600080fd5b505afa1580156113f8573d6000803e3d6000fd5b505050506040513d601f19601f8201168201806040525081019061141c9190612d0d565b3073ffffffffffffffffffffffffffffffffffffffff16630ccaf04f6040518163ffffffff1660e01b815260040160206040518083038186803b15801561146257600080fd5b505afa158015611476573d6000803e3d6000fd5b505050506040513d601f19601f8201168201806040525081019061149a9190612d0d565b670c7d713b49da00006114ad9190613425565b6127a3565b905090565b60085481565b600a5481565b620d2f00426114d29190613344565b601460003373ffffffffffffffffffffffffffffffffffffffff1673ffffffffffffffffffffffffffffffffffffffff1681526020019081526020016000206000018190555080601460003373ffffffffffffffffffffffffffffffffffffffff1673ffffffffffffffffffffffffffffffffffffffff168152602001908152602001600020600101600082825461156a9190613344565b9250508190555050565b600f60009054906101000a900473ffffffffffffffffffffffffffffffffffffffff1681565b6115a26127ec565b73ffffffffffffffffffffffffffffffffffffffff166115c0611bda565b73ffffffffffffffffffffffffffffffffffffffff1614611616576040517f08c379a000000000000000000000000000000000000000000000000000000000815260040161160d906131c3565b60405180910390fd5b611620600061290f565b565b60008060008062015180600a54611639919061339a565b90506000620151806009544261164f9190613425565b611659919061339a565b905060008114156116835760106000808152602001908152602001600020549450505050506116d6565b818161168f9190613425565b92505b808310156116ce576010600084815260200190815260200160002054846116b99190613344565b935082806116c690613592565b935050611692565b839450505050505b90565b6002600054141561171f576040517f08c379a000000000000000000000000000000000000000000000000000000000815260040161171690613243565b60405180910390fd5b60026000819055506013816040516117379190612ffd565b908152602001604051809103902060000160009054906101000a900473ffffffffffffffffffffffffffffffffffffffff16600f60006101000a81548173ffffffffffffffffffffffffffffffffffffffff021916908373ffffffffffffffffffffffffffffffffffffffff1602179055506203d0908211156117ef576040517f08c379a00000000000000000000000000000000000000000000000000000000081526004016117e690613203565b60405180910390fd5b6000600f60009054906101000a900473ffffffffffffffffffffffffffffffffffffffff1673ffffffffffffffffffffffffffffffffffffffff166370a08231336040518263ffffffff1660e01b815260040161184c9190613029565b60206040518083038186803b15801561186457600080fd5b505afa158015611878573d6000803e3d6000fd5b505050506040513d601f19601f8201168201806040525081019061189c9190612d0d565b90508281116118e0576040517f08c379a00000000000000000000000000000000000000000000000000000000081526004016118d7906131e3565b60405180910390fd5b60006013836040516118f29190612ffd565b90815260200160405180910390206001015461198b853073ffffffffffffffffffffffffffffffffffffffff1663018a25e86040518163ffffffff1660e01b815260040160206040518083038186803b15801561194e57600080fd5b505afa158015611962573d6000803e3d6000fd5b505050506040513d601f19601f820116820180604052508101906119869190612d0d565b6127a3565b61199591906133cb565b90506119c5600f60009054906101000a900473ffffffffffffffffffffffffffffffffffffffff16333084612835565b600c60009054906101000a900473ffffffffffffffffffffffffffffffffffffffff1673ffffffffffffffffffffffffffffffffffffffff166340c10f1933670de0b6b3a764000087611a1891906133cb565b6040518363ffffffff1660e01b8152600401611a3592919061311f565b600060405180830381600087803b158015611a4f57600080fd5b505af1158015611a63573d6000803e3d6000fd5b50505050600d60009054906101000a900473ffffffffffffffffffffffffffffffffffffffff1673ffffffffffffffffffffffffffffffffffffffff166340c10f1930670de0b6b3a764000087611aba91906133cb565b6040518363ffffffff1660e01b8152600401611ad792919061311f565b600060405180830381600087803b158015611af157600080fd5b505af1158015611b05573d6000803e3d6000fd5b5050505060006201518060095442611b1d9190613425565b611b27919061339a565b905084601060008381526020019081526020016000206000828254611b4c9190613344565b9250508190555084601260008381526020019081526020016000206000828254611b769190613344565b925050819055503373ffffffffffffffffffffffffffffffffffffffff167ff633443b01504d269657083d48bb6de98e089cfff672b47fefbed21608b5c77986604051611bc39190613283565b60405180910390a250505060016000819055505050565b6000600160009054906101000a900473ffffffffffffffffffffffffffffffffffffffff16905090565b600080611c953073ffffffffffffffffffffffffffffffffffffffff166371cd58f96040518163ffffffff1660e01b815260040160206040518083038186803b158015611c5057600080fd5b505afa158015611c64573d6000803e3d6000fd5b505050506040513d601f19601f82011682018060405250810190611c889190612d0d565b611c90610df5565b6127f4565b9050670429d069189e0000811115611cb357670429d069189e000090505b8091505090565b611cc26127ec565b73ffffffffffffffffffffffffffffffffffffffff16611ce0611bda565b73ffffffffffffffffffffffffffffffffffffffff1614611d36576040517f08c379a0000000000000000000000000000000000000000000000000000000008152600401611d2d906131c3565b60405180910390fd5b50565b6013818051602081018201805184825260208301602085012081835280955050505050506000915090508060000160009054906101000a900473ffffffffffffffffffffffffffffffffffffffff16908060010154905082565b611d9b6127ec565b73ffffffffffffffffffffffffffffffffffffffff16611db9611bda565b73ffffffffffffffffffffffffffffffffffffffff1614611e0f576040517f08c379a0000000000000000000000000000000000000000000000000000000008152600401611e06906131c3565b60405180910390fd5b6013604051611e1d90613014565b908152602001604051809103902060000160009054906101000a900473ffffffffffffffffffffffffffffffffffffffff16600f60006101000a81548173ffffffffffffffffffffffffffffffffffffffff021916908373ffffffffffffffffffffffffffffffffffffffff160217905550565b601460008373ffffffffffffffffffffffffffffffffffffffff1673ffffffffffffffffffffffffffffffffffffffff16815260200190815260200160002060000154421015611f16576040517f08c379a0000000000000000000000000000000000000000000000000000000008152600401611f0d90613223565b60405180910390fd5b601381604051611f269190612ffd565b908152602001604051809103902060000160009054906101000a900473ffffffffffffffffffffffffffffffffffffffff16600f60006101000a81548173ffffffffffffffffffffffffffffffffffffffff021916908373ffffffffffffffffffffffffffffffffffffffff1602179055506000601460008473ffffffffffffffffffffffffffffffffffffffff1673ffffffffffffffffffffffffffffffffffffffff16815260200190815260200160002060010154905061200d600f60009054906101000a900473ffffffffffffffffffffffffffffffffffffffff16303384612835565b505050565b600560009054906101000a900473ffffffffffffffffffffffffffffffffffffffff1681565b600e60009054906101000a900473ffffffffffffffffffffffffffffffffffffffff1681565b60138160405161206e9190612ffd565b908152602001604051809103902060000160009054906101000a900473ffffffffffffffffffffffffffffffffffffffff16600f60006101000a81548173ffffffffffffffffffffffffffffffffffffffff021916908373ffffffffffffffffffffffffffffffffffffffff16021790555082600c60009054906101000a900473ffffffffffffffffffffffffffffffffffffffff1673ffffffffffffffffffffffffffffffffffffffff166370a08231336040518263ffffffff1660e01b815260040161213c9190613029565b60206040518083038186803b15801561215457600080fd5b505afa158015612168573d6000803e3d6000fd5b505050506040513d601f19601f8201168201806040525081019061218c9190612d0d565b10156121cd576040517f08c379a00000000000000000000000000000000000000000000000000000000081526004016121c4906131e3565b60405180910390fd5b6000833073ffffffffffffffffffffffffffffffffffffffff166343d32e9c6040518163ffffffff1660e01b815260040160206040518083038186803b15801561221657600080fd5b505afa15801561222a573d6000803e3d6000fd5b505050506040513d601f19601f8201168201806040525081019061224e9190612d0d565b61225891906133cb565b9050600f60009054906101000a900473ffffffffffffffffffffffffffffffffffffffff1673ffffffffffffffffffffffffffffffffffffffff1663a9059cbb33670de0b6b3a7640000873073ffffffffffffffffffffffffffffffffffffffff166343d32e9c6040518163ffffffff1660e01b815260040160206040518083038186803b1580156122e957600080fd5b505afa1580156122fd573d6000803e3d6000fd5b505050506040513d601f19601f820116820180604052508101906123219190612d0d565b61232b91906133cb565b61233591906133cb565b6040518363ffffffff1660e01b815260040161235292919061311f565b602060405180830381600087803b15801561236c57600080fd5b505af1158015612380573d6000803e3d6000fd5b505050506040513d601f19601f820116820180604052508101906123a49190612bfb565b506123e6600c60009054906101000a900473ffffffffffffffffffffffffffffffffffffffff163330670de0b6b3a7640000886123e191906133cb565b612835565b600062015180600954426123fa9190613425565b612404919061339a565b9050846011600083815260200190815260200160002060008282546124299190613344565b92505081905550846012600083815260200190815260200160002060008282546124539190613425565b925050819055505050505050565b600d60009054906101000a900473ffffffffffffffffffffffffffffffffffffffff1681565b60008060008062015180600a5461249e919061339a565b9050600091505b808210156124e1576011600083815260200190815260200160002054836124cc9190613344565b925081806124d990613592565b9250506124a5565b82935050505090565b6124f26127ec565b73ffffffffffffffffffffffffffffffffffffffff16612510611bda565b73ffffffffffffffffffffffffffffffffffffffff1614612566576040517f08c379a000000000000000000000000000000000000000000000000000000000815260040161255d906131c3565b60405180910390fd5b816013846040516125779190612ffd565b908152602001604051809103902060000160006101000a81548173ffffffffffffffffffffffffffffffffffffffff021916908373ffffffffffffffffffffffffffffffffffffffff160217905550806013846040516125d79190612ffd565b908152602001604051809103902060010181905550505050565b600b60009054906101000a900473ffffffffffffffffffffffffffffffffffffffff1681565b61261f6127ec565b73ffffffffffffffffffffffffffffffffffffffff1661263d611bda565b73ffffffffffffffffffffffffffffffffffffffff1614612693576040517f08c379a000000000000000000000000000000000000000000000000000000000815260040161268a906131c3565b60405180910390fd5b600073ffffffffffffffffffffffffffffffffffffffff168173ffffffffffffffffffffffffffffffffffffffff161415612703576040517f08c379a00000000000000000000000000000000000000000000000000000000081526004016126fa90613183565b60405180910390fd5b61270c8161290f565b50565b6127176127ec565b73ffffffffffffffffffffffffffffffffffffffff16612735611bda565b73ffffffffffffffffffffffffffffffffffffffff161461278b576040517f08c379a0000000000000000000000000000000000000000000000000000000008152600401612782906131c3565b60405180910390fd5b620151808161279a91906133cb565b600a8190555050565b6000806127b084846129d5565b9050670de0b6b3a76400006127d9826002670de0b6b3a76400006127d4919061339a565b612a50565b6127e3919061339a565b91505092915050565b600033905090565b60008061280984670de0b6b3a76400006129d5565b9050826128228260028661281d919061339a565b612a50565b61282c919061339a565b91505092915050565b60008473ffffffffffffffffffffffffffffffffffffffff166323b872dd8585856040518463ffffffff1660e01b815260040161287493929190613044565b602060405180830381600087803b15801561288e57600080fd5b505af11580156128a2573d6000803e3d6000fd5b505050506040513d601f19601f820116820180604052508101906128c69190612bfb565b905080612908576040517f08c379a00000000000000000000000000000000000000000000000000000000081526004016128ff906131a3565b60405180910390fd5b5050505050565b6000600160009054906101000a900473ffffffffffffffffffffffffffffffffffffffff16905081600160006101000a81548173ffffffffffffffffffffffffffffffffffffffff021916908373ffffffffffffffffffffffffffffffffffffffff1602179055508173ffffffffffffffffffffffffffffffffffffffff168173ffffffffffffffffffffffffffffffffffffffff167f8be0079c531659141344cd1fd0a4f28419497f9722a3daafe3b4186f6b6457e060405160405180910390a35050565b6000808314156129e85760009050612a4a565b600082846129f691906133cb565b9050828482612a05919061339a565b14612a45576040517f08c379a0000000000000000000000000000000000000000000000000000000008152600401612a3c90613263565b60405180910390fd5b809150505b92915050565b6000808284612a5f9190613344565b905083811015612aa4576040517f08c379a0000000000000000000000000000000000000000000000000000000008152600401612a9b90613263565b60405180910390fd5b8091505092915050565b6000612ac1612abc846132ec565b6132c7565b905082815260208101848484011115612add57612adc61366d565b5b612ae884828561351f565b509392505050565b600081359050612aff81613899565b92915050565b600081519050612b14816138b0565b92915050565b600082601f830112612b2f57612b2e613668565b5b8135612b3f848260208601612aae565b91505092915050565b600081359050612b57816138c7565b92915050565b600081519050612b6c816138c7565b92915050565b600060208284031215612b8857612b87613677565b5b6000612b9684828501612af0565b91505092915050565b60008060408385031215612bb657612bb5613677565b5b6000612bc485828601612af0565b925050602083013567ffffffffffffffff811115612be557612be4613672565b5b612bf185828601612b1a565b9150509250929050565b600060208284031215612c1157612c10613677565b5b6000612c1f84828501612b05565b91505092915050565b600060208284031215612c3e57612c3d613677565b5b600082013567ffffffffffffffff811115612c5c57612c5b613672565b5b612c6884828501612b1a565b91505092915050565b600080600060608486031215612c8a57612c89613677565b5b600084013567ffffffffffffffff811115612ca857612ca7613672565b5b612cb486828701612b1a565b9350506020612cc586828701612af0565b9250506040612cd686828701612b48565b9150509250925092565b600060208284031215612cf657612cf5613677565b5b6000612d0484828501612b48565b91505092915050565b600060208284031215612d2357612d22613677565b5b6000612d3184828501612b5d565b91505092915050565b60008060408385031215612d5157612d50613677565b5b6000612d5f85828601612b48565b925050602083013567ffffffffffffffff811115612d8057612d7f613672565b5b612d8c85828601612b1a565b9150509250929050565b600080600060608486031215612daf57612dae613677565b5b6000612dbd86828701612b48565b9350506020612dce86828701612b48565b925050604084013567ffffffffffffffff811115612def57612dee613672565b5b612dfb86828701612b1a565b9150509250925092565b612e0e81613459565b82525050565b612e1d816134a1565b82525050565b612e2c816134b3565b82525050565b612e3b816134c5565b82525050565b612e4a816134d7565b82525050565b612e59816134e9565b82525050565b6000612e6a8261331d565b612e748185613339565b9350612e8481856020860161352e565b80840191505092915050565b6000612e9d602483613328565b9150612ea88261368d565b604082019050919050565b6000612ec0602683613328565b9150612ecb826136dc565b604082019050919050565b6000612ee3601583613328565b9150612eee8261372b565b602082019050919050565b6000612f06602083613328565b9150612f1182613754565b602082019050919050565b6000612f29601a83613328565b9150612f348261377d565b602082019050919050565b6000612f4c601583613328565b9150612f57826137a6565b602082019050919050565b6000612f6f600483613339565b9150612f7a826137cf565b600482019050919050565b6000612f92600c83613328565b9150612f9d826137f8565b602082019050919050565b6000612fb5601f83613328565b9150612fc082613821565b602082019050919050565b6000612fd8602183613328565b9150612fe38261384a565b604082019050919050565b612ff781613497565b82525050565b60006130098284612e5f565b915081905092915050565b600061301f82612f62565b9150819050919050565b600060208201905061303e6000830184612e05565b92915050565b60006060820190506130596000830186612e05565b6130666020830185612e05565b6130736040830184612fee565b949350505050565b60006040820190506130906000830185612e05565b61309d6020830184612e23565b9392505050565b60006040820190506130b96000830185612e05565b6130c66020830184612e32565b9392505050565b60006040820190506130e26000830185612e05565b6130ef6020830184612e41565b9392505050565b600060408201905061310b6000830185612e05565b6131186020830184612e50565b9392505050565b60006040820190506131346000830185612e05565b6131416020830184612fee565b9392505050565b600060208201905061315d6000830184612e14565b92915050565b6000602082019050818103600083015261317c81612e90565b9050919050565b6000602082019050818103600083015261319c81612eb3565b9050919050565b600060208201905081810360008301526131bc81612ed6565b9050919050565b600060208201905081810360008301526131dc81612ef9565b9050919050565b600060208201905081810360008301526131fc81612f1c565b9050919050565b6000602082019050818103600083015261321c81612f3f565b9050919050565b6000602082019050818103600083015261323c81612f85565b9050919050565b6000602082019050818103600083015261325c81612fa8565b9050919050565b6000602082019050818103600083015261327c81612fcb565b9050919050565b60006020820190506132986000830184612fee565b92915050565b60006040820190506132b36000830185612fee565b6132c06020830184612fee565b9392505050565b60006132d16132e2565b90506132dd8282613561565b919050565b6000604051905090565b600067ffffffffffffffff82111561330757613306613639565b5b6133108261367c565b9050602081019050919050565b600081519050919050565b600082825260208201905092915050565b600081905092915050565b600061334f82613497565b915061335a83613497565b9250827fffffffffffffffffffffffffffffffffffffffffffffffffffffffffffffffff0382111561338f5761338e6135db565b5b828201905092915050565b60006133a582613497565b91506133b083613497565b9250826133c0576133bf61360a565b5b828204905092915050565b60006133d682613497565b91506133e183613497565b9250817fffffffffffffffffffffffffffffffffffffffffffffffffffffffffffffffff048311821515161561341a576134196135db565b5b828202905092915050565b600061343082613497565b915061343b83613497565b92508282101561344e5761344d6135db565b5b828203905092915050565b600061346482613477565b9050919050565b60008115159050919050565b600073ffffffffffffffffffffffffffffffffffffffff82169050919050565b6000819050919050565b60006134ac826134fb565b9050919050565b60006134be82613497565b9050919050565b60006134d082613497565b9050919050565b60006134e282613497565b9050919050565b60006134f482613497565b9050919050565b60006135068261350d565b9050919050565b600061351882613477565b9050919050565b82818337600083830152505050565b60005b8381101561354c578082015181840152602081019050613531565b8381111561355b576000848401525b50505050565b61356a8261367c565b810181811067ffffffffffffffff8211171561358957613588613639565b5b80604052505050565b600061359d82613497565b91507fffffffffffffffffffffffffffffffffffffffffffffffffffffffffffffffff8214156135d0576135cf6135db565b5b600182019050919050565b7f4e487b7100000000000000000000000000000000000000000000000000000000600052601160045260246000fd5b7f4e487b7100000000000000000000000000000000000000000000000000000000600052601260045260246000fd5b7f4e487b7100000000000000000000000000000000000000000000000000000000600052604160045260246000fd5b600080fd5b600080fd5b600080fd5b600080fd5b6000601f19601f8301169050919050565b7f596f7520646f6e7420686176652074686174206d75636820746f20776974686460008201527f7261772100000000000000000000000000000000000000000000000000000000602082015250565b7f4f776e61626c653a206e6577206f776e657220697320746865207a65726f206160008201527f6464726573730000000000000000000000000000000000000000000000000000602082015250565b7f546f6b656e207472616e73666572206661696c65640000000000000000000000600082015250565b7f4f776e61626c653a2063616c6c6572206973206e6f7420746865206f776e6572600082015250565b7f596f7520646f6e742068617665207468617420616d6f756e7421000000000000600082015250565b7f506572207472616e73616374696f6e206c696d69740000000000000000000000600082015250565b7f5553444300000000000000000000000000000000000000000000000000000000600082015250565b7f4e6f7420756e6c6f636b65640000000000000000000000000000000000000000600082015250565b7f5265656e7472616e637947756172643a207265656e7472616e742063616c6c00600082015250565b7f75696e74206f766572666c6f772066726f6d206d756c7469706c69636174696f60008201527f6e00000000000000000000000000000000000000000000000000000000000000602082015250565b6138a281613459565b81146138ad57600080fd5b50565b6138b98161346b565b81146138c457600080fd5b50565b6138d081613497565b81146138db57600080fd5b5056fea2646970667358221220d3e6e064f8215f0de00d258d5a5059312fa32ff62897dea8d39e454f2d1906b064736f6c63430008070033",
					"opcodes": "PUSH1 0x80 PUSH1 0x40 MSTORE PUSH20 0x617F2E2FD72FD9D5503197092AC168C91465E7F2 PUSH1 0xB PUSH1 0x0 PUSH2 0x100 EXP DUP2 SLOAD DUP2 PUSH20 0xFFFFFFFFFFFFFFFFFFFFFFFFFFFFFFFFFFFFFFFF MUL NOT AND SWAP1 DUP4 PUSH20 0xFFFFFFFFFFFFFFFFFFFFFFFFFFFFFFFFFFFFFFFF AND MUL OR SWAP1 SSTORE POP CALLVALUE DUP1 ISZERO PUSH3 0x66 JUMPI PUSH1 0x0 DUP1 REVERT JUMPDEST POP PUSH1 0x1 PUSH1 0x0 DUP2 SWAP1 SSTORE POP PUSH3 0x8F PUSH3 0x83 PUSH3 0x365 PUSH1 0x20 SHL PUSH1 0x20 SHR JUMP JUMPDEST PUSH3 0x36D PUSH1 0x20 SHL PUSH1 0x20 SHR JUMP JUMPDEST PUSH20 0x60E26006476351141C5B77FCF42DD534A7C279A PUSH1 0xC PUSH1 0x0 PUSH2 0x100 EXP DUP2 SLOAD DUP2 PUSH20 0xFFFFFFFFFFFFFFFFFFFFFFFFFFFFFFFFFFFFFFFF MUL NOT AND SWAP1 DUP4 PUSH20 0xFFFFFFFFFFFFFFFFFFFFFFFFFFFFFFFFFFFFFFFF AND MUL OR SWAP1 SSTORE POP PUSH20 0x4506069A92686023320AE5F853555EFD6D6CCCEC PUSH1 0xD PUSH1 0x0 PUSH2 0x100 EXP DUP2 SLOAD DUP2 PUSH20 0xFFFFFFFFFFFFFFFFFFFFFFFFFFFFFFFFFFFFFFFF MUL NOT AND SWAP1 DUP4 PUSH20 0xFFFFFFFFFFFFFFFFFFFFFFFFFFFFFFFFFFFFFFFF AND MUL OR SWAP1 SSTORE POP PUSH20 0xAE126F05FEAB84436C8F470C44270329A3A348E5 PUSH1 0xE PUSH1 0x0 PUSH2 0x100 EXP DUP2 SLOAD DUP2 PUSH20 0xFFFFFFFFFFFFFFFFFFFFFFFFFFFFFFFFFFFFFFFF MUL NOT AND SWAP1 DUP4 PUSH20 0xFFFFFFFFFFFFFFFFFFFFFFFFFFFFFFFFFFFFFFFF AND MUL OR SWAP1 SSTORE POP PUSH20 0xE8015D99E16FE4918261C3A62582EB8AA72C590C PUSH1 0x13 PUSH1 0x40 MLOAD PUSH3 0x1B3 SWAP1 PUSH3 0x4D6 JUMP JUMPDEST SWAP1 DUP2 MSTORE PUSH1 0x20 ADD PUSH1 0x40 MLOAD DUP1 SWAP2 SUB SWAP1 KECCAK256 PUSH1 0x0 ADD PUSH1 0x0 PUSH2 0x100 EXP DUP2 SLOAD DUP2 PUSH20 0xFFFFFFFFFFFFFFFFFFFFFFFFFFFFFFFFFFFFFFFF MUL NOT AND SWAP1 DUP4 PUSH20 0xFFFFFFFFFFFFFFFFFFFFFFFFFFFFFFFFFFFFFFFF AND MUL OR SWAP1 SSTORE POP PUSH1 0x6 PUSH1 0x13 PUSH1 0x40 MLOAD PUSH3 0x214 SWAP1 PUSH3 0x4D6 JUMP JUMPDEST SWAP1 DUP2 MSTORE PUSH1 0x20 ADD PUSH1 0x40 MLOAD DUP1 SWAP2 SUB SWAP1 KECCAK256 PUSH1 0x1 ADD DUP2 SWAP1 SSTORE POP PUSH20 0x2A4A8AB6A0BC0D377098F8688F77003833BC1C9D PUSH1 0x13 PUSH1 0x40 MLOAD PUSH3 0x24E SWAP1 PUSH3 0x4BF JUMP JUMPDEST SWAP1 DUP2 MSTORE PUSH1 0x20 ADD PUSH1 0x40 MLOAD DUP1 SWAP2 SUB SWAP1 KECCAK256 PUSH1 0x0 ADD PUSH1 0x0 PUSH2 0x100 EXP DUP2 SLOAD DUP2 PUSH20 0xFFFFFFFFFFFFFFFFFFFFFFFFFFFFFFFFFFFFFFFF MUL NOT AND SWAP1 DUP4 PUSH20 0xFFFFFFFFFFFFFFFFFFFFFFFFFFFFFFFFFFFFFFFF AND MUL OR SWAP1 SSTORE POP PUSH1 0x12 PUSH1 0x13 PUSH1 0x40 MLOAD PUSH3 0x2AF SWAP1 PUSH3 0x4BF JUMP JUMPDEST SWAP1 DUP2 MSTORE PUSH1 0x20 ADD PUSH1 0x40 MLOAD DUP1 SWAP2 SUB SWAP1 KECCAK256 PUSH1 0x1 ADD DUP2 SWAP1 SSTORE POP PUSH20 0xDC301622E621166BD8E82F2CA0A26C13AD0BE355 PUSH1 0x13 PUSH1 0x40 MLOAD PUSH3 0x2E9 SWAP1 PUSH3 0x4A8 JUMP JUMPDEST SWAP1 DUP2 MSTORE PUSH1 0x20 ADD PUSH1 0x40 MLOAD DUP1 SWAP2 SUB SWAP1 KECCAK256 PUSH1 0x0 ADD PUSH1 0x0 PUSH2 0x100 EXP DUP2 SLOAD DUP2 PUSH20 0xFFFFFFFFFFFFFFFFFFFFFFFFFFFFFFFFFFFFFFFF MUL NOT AND SWAP1 DUP4 PUSH20 0xFFFFFFFFFFFFFFFFFFFFFFFFFFFFFFFFFFFFFFFF AND MUL OR SWAP1 SSTORE POP PUSH1 0x12 PUSH1 0x13 PUSH1 0x40 MLOAD PUSH3 0x34A SWAP1 PUSH3 0x4A8 JUMP JUMPDEST SWAP1 DUP2 MSTORE PUSH1 0x20 ADD PUSH1 0x40 MLOAD DUP1 SWAP2 SUB SWAP1 KECCAK256 PUSH1 0x1 ADD DUP2 SWAP1 SSTORE POP PUSH3 0x573 JUMP JUMPDEST PUSH1 0x0 CALLER SWAP1 POP SWAP1 JUMP JUMPDEST PUSH1 0x0 PUSH1 0x1 PUSH1 0x0 SWAP1 SLOAD SWAP1 PUSH2 0x100 EXP SWAP1 DIV PUSH20 0xFFFFFFFFFFFFFFFFFFFFFFFFFFFFFFFFFFFFFFFF AND SWAP1 POP DUP2 PUSH1 0x1 PUSH1 0x0 PUSH2 0x100 EXP DUP2 SLOAD DUP2 PUSH20 0xFFFFFFFFFFFFFFFFFFFFFFFFFFFFFFFFFFFFFFFF MUL NOT AND SWAP1 DUP4 PUSH20 0xFFFFFFFFFFFFFFFFFFFFFFFFFFFFFFFFFFFFFFFF AND MUL OR SWAP1 SSTORE POP DUP2 PUSH20 0xFFFFFFFFFFFFFFFFFFFFFFFFFFFFFFFFFFFFFFFF AND DUP2 PUSH20 0xFFFFFFFFFFFFFFFFFFFFFFFFFFFFFFFFFFFFFFFF AND PUSH32 0x8BE0079C531659141344CD1FD0A4F28419497F9722A3DAAFE3B4186F6B6457E0 PUSH1 0x40 MLOAD PUSH1 0x40 MLOAD DUP1 SWAP2 SUB SWAP1 LOG3 POP POP JUMP JUMPDEST PUSH1 0x0 PUSH3 0x442 PUSH1 0x4 DUP4 PUSH3 0x4ED JUMP JUMPDEST SWAP2 POP PUSH3 0x44F DUP3 PUSH3 0x4F8 JUMP JUMPDEST PUSH1 0x4 DUP3 ADD SWAP1 POP SWAP2 SWAP1 POP JUMP JUMPDEST PUSH1 0x0 PUSH3 0x469 PUSH1 0x3 DUP4 PUSH3 0x4ED JUMP JUMPDEST SWAP2 POP PUSH3 0x476 DUP3 PUSH3 0x521 JUMP JUMPDEST PUSH1 0x3 DUP3 ADD SWAP1 POP SWAP2 SWAP1 POP JUMP JUMPDEST PUSH1 0x0 PUSH3 0x490 PUSH1 0x4 DUP4 PUSH3 0x4ED JUMP JUMPDEST SWAP2 POP PUSH3 0x49D DUP3 PUSH3 0x54A JUMP JUMPDEST PUSH1 0x4 DUP3 ADD SWAP1 POP SWAP2 SWAP1 POP JUMP JUMPDEST PUSH1 0x0 PUSH3 0x4B5 DUP3 PUSH3 0x433 JUMP JUMPDEST SWAP2 POP DUP2 SWAP1 POP SWAP2 SWAP1 POP JUMP JUMPDEST PUSH1 0x0 PUSH3 0x4CC DUP3 PUSH3 0x45A JUMP JUMPDEST SWAP2 POP DUP2 SWAP1 POP SWAP2 SWAP1 POP JUMP JUMPDEST PUSH1 0x0 PUSH3 0x4E3 DUP3 PUSH3 0x481 JUMP JUMPDEST SWAP2 POP DUP2 SWAP1 POP SWAP2 SWAP1 POP JUMP JUMPDEST PUSH1 0x0 DUP2 SWAP1 POP SWAP3 SWAP2 POP POP JUMP JUMPDEST PUSH32 0x4652415800000000000000000000000000000000000000000000000000000000 PUSH1 0x0 DUP3 ADD MSTORE POP JUMP JUMPDEST PUSH32 0x4441490000000000000000000000000000000000000000000000000000000000 PUSH1 0x0 DUP3 ADD MSTORE POP JUMP JUMPDEST PUSH32 0x5553444300000000000000000000000000000000000000000000000000000000 PUSH1 0x0 DUP3 ADD MSTORE POP JUMP JUMPDEST PUSH2 0x3914 DUP1 PUSH3 0x583 PUSH1 0x0 CODECOPY PUSH1 0x0 RETURN INVALID PUSH1 0x80 PUSH1 0x40 MSTORE PUSH1 0x4 CALLDATASIZE LT PUSH2 0x225 JUMPI PUSH1 0x0 CALLDATALOAD PUSH1 0xE0 SHR DUP1 PUSH4 0x7087A7A5 GT PUSH2 0x123 JUMPI DUP1 PUSH4 0xBDAD7F02 GT PUSH2 0xAB JUMPI DUP1 PUSH4 0xD82EDDF2 GT PUSH2 0x6F JUMPI DUP1 PUSH4 0xD82EDDF2 EQ PUSH2 0x7AD JUMPI DUP1 PUSH4 0xE5D98082 EQ PUSH2 0x7D8 JUMPI DUP1 PUSH4 0xEEE05F5E EQ PUSH2 0x801 JUMPI DUP1 PUSH4 0xF2FDE38B EQ PUSH2 0x82C JUMPI DUP1 PUSH4 0xFC361443 EQ PUSH2 0x855 JUMPI PUSH2 0x225 JUMP JUMPDEST DUP1 PUSH4 0xBDAD7F02 EQ PUSH2 0x6E7 JUMPI DUP1 PUSH4 0xC079D7F6 EQ PUSH2 0x710 JUMPI DUP1 PUSH4 0xC0CA6FB4 EQ PUSH2 0x73B JUMPI DUP1 PUSH4 0xC0CE5889 EQ PUSH2 0x766 JUMPI DUP1 PUSH4 0xD04D7908 EQ PUSH2 0x782 JUMPI PUSH2 0x225 JUMP JUMPDEST DUP1 PUSH4 0x8DA5CB5B GT PUSH2 0xF2 JUMPI DUP1 PUSH4 0x8DA5CB5B EQ PUSH2 0x613 JUMPI DUP1 PUSH4 0x93F7B711 EQ PUSH2 0x63E JUMPI DUP1 PUSH4 0x9B19251A EQ PUSH2 0x669 JUMPI DUP1 PUSH4 0xA475BF48 EQ PUSH2 0x692 JUMPI DUP1 PUSH4 0xBCB3DE54 EQ PUSH2 0x6D0 JUMPI PUSH2 0x225 JUMP JUMPDEST DUP1 PUSH4 0x7087A7A5 EQ PUSH2 0x57D JUMPI DUP1 PUSH4 0x715018A6 EQ PUSH2 0x5A8 JUMPI DUP1 PUSH4 0x71CD58F9 EQ PUSH2 0x5BF JUMPI DUP1 PUSH4 0x862D1B35 EQ PUSH2 0x5EA JUMPI PUSH2 0x225 JUMP JUMPDEST DUP1 PUSH4 0x1BC9CC45 GT PUSH2 0x1B1 JUMPI DUP1 PUSH4 0x3C6EB17A GT PUSH2 0x175 JUMPI DUP1 PUSH4 0x3C6EB17A EQ PUSH2 0x4A8 JUMPI DUP1 PUSH4 0x43D32E9C EQ PUSH2 0x4D3 JUMPI DUP1 PUSH4 0x66763319 EQ PUSH2 0x4FE JUMPI DUP1 PUSH4 0x67B48C91 EQ PUSH2 0x529 JUMPI DUP1 PUSH4 0x67E927A8 EQ PUSH2 0x554 JUMPI PUSH2 0x225 JUMP JUMPDEST DUP1 PUSH4 0x1BC9CC45 EQ PUSH2 0x3CE JUMPI DUP1 PUSH4 0x1F564A06 EQ PUSH2 0x3EA JUMPI DUP1 PUSH4 0x26AE486E EQ PUSH2 0x415 JUMPI DUP1 PUSH4 0x29982A32 EQ PUSH2 0x440 JUMPI DUP1 PUSH4 0x2A9F0FB1 EQ PUSH2 0x46B JUMPI PUSH2 0x225 JUMP JUMPDEST DUP1 PUSH4 0xF65DE3E GT PUSH2 0x1F8 JUMPI DUP1 PUSH4 0xF65DE3E EQ PUSH2 0x2C2 JUMPI DUP1 PUSH4 0x12B2ED94 EQ PUSH2 0x2ED JUMPI DUP1 PUSH4 0x1514C976 EQ PUSH2 0x32B JUMPI DUP1 PUSH4 0x164C8501 EQ PUSH2 0x368 JUMPI DUP1 PUSH4 0x1A30E872 EQ PUSH2 0x391 JUMPI PUSH2 0x225 JUMP JUMPDEST DUP1 PUSH4 0x18A25E8 EQ PUSH2 0x22A JUMPI DUP1 PUSH4 0x2AC8168 EQ PUSH2 0x255 JUMPI DUP1 PUSH4 0x47729B0 EQ PUSH2 0x26C JUMPI DUP1 PUSH4 0xCCAF04F EQ PUSH2 0x297 JUMPI JUMPDEST PUSH1 0x0 DUP1 REVERT JUMPDEST CALLVALUE DUP1 ISZERO PUSH2 0x236 JUMPI PUSH1 0x0 DUP1 REVERT JUMPDEST POP PUSH2 0x23F PUSH2 0x87E JUMP JUMPDEST PUSH1 0x40 MLOAD PUSH2 0x24C SWAP2 SWAP1 PUSH2 0x3283 JUMP JUMPDEST PUSH1 0x40 MLOAD DUP1 SWAP2 SUB SWAP1 RETURN JUMPDEST CALLVALUE DUP1 ISZERO PUSH2 0x261 JUMPI PUSH1 0x0 DUP1 REVERT JUMPDEST POP PUSH2 0x26A PUSH2 0x99C JUMP JUMPDEST STOP JUMPDEST CALLVALUE DUP1 ISZERO PUSH2 0x278 JUMPI PUSH1 0x0 DUP1 REVERT JUMPDEST POP PUSH2 0x281 PUSH2 0xD19 JUMP JUMPDEST PUSH1 0x40 MLOAD PUSH2 0x28E SWAP2 SWAP1 PUSH2 0x3029 JUMP JUMPDEST PUSH1 0x40 MLOAD DUP1 SWAP2 SUB SWAP1 RETURN JUMPDEST CALLVALUE DUP1 ISZERO PUSH2 0x2A3 JUMPI PUSH1 0x0 DUP1 REVERT JUMPDEST POP PUSH2 0x2AC PUSH2 0xD3F JUMP JUMPDEST PUSH1 0x40 MLOAD PUSH2 0x2B9 SWAP2 SWAP1 PUSH2 0x3283 JUMP JUMPDEST PUSH1 0x40 MLOAD DUP1 SWAP2 SUB SWAP1 RETURN JUMPDEST CALLVALUE DUP1 ISZERO PUSH2 0x2CE JUMPI PUSH1 0x0 DUP1 REVERT JUMPDEST POP PUSH2 0x2D7 PUSH2 0xDF5 JUMP JUMPDEST PUSH1 0x40 MLOAD PUSH2 0x2E4 SWAP2 SWAP1 PUSH2 0x3283 JUMP JUMPDEST PUSH1 0x40 MLOAD DUP1 SWAP2 SUB SWAP1 RETURN JUMPDEST CALLVALUE DUP1 ISZERO PUSH2 0x2F9 JUMPI PUSH1 0x0 DUP1 REVERT JUMPDEST POP PUSH2 0x314 PUSH1 0x4 DUP1 CALLDATASIZE SUB DUP2 ADD SWAP1 PUSH2 0x30F SWAP2 SWAP1 PUSH2 0x2B72 JUMP JUMPDEST PUSH2 0xF00 JUMP JUMPDEST PUSH1 0x40 MLOAD PUSH2 0x322 SWAP3 SWAP2 SWAP1 PUSH2 0x329E JUMP JUMPDEST PUSH1 0x40 MLOAD DUP1 SWAP2 SUB SWAP1 RETURN JUMPDEST CALLVALUE DUP1 ISZERO PUSH2 0x337 JUMPI PUSH1 0x0 DUP1 REVERT JUMPDEST POP PUSH2 0x352 PUSH1 0x4 DUP1 CALLDATASIZE SUB DUP2 ADD SWAP1 PUSH2 0x34D SWAP2 SWAP1 PUSH2 0x2CE0 JUMP JUMPDEST PUSH2 0xF24 JUMP JUMPDEST PUSH1 0x40 MLOAD PUSH2 0x35F SWAP2 SWAP1 PUSH2 0x3283 JUMP JUMPDEST PUSH1 0x40 MLOAD DUP1 SWAP2 SUB SWAP1 RETURN JUMPDEST CALLVALUE DUP1 ISZERO PUSH2 0x374 JUMPI PUSH1 0x0 DUP1 REVERT JUMPDEST POP PUSH2 0x38F PUSH1 0x4 DUP1 CALLDATASIZE SUB DUP2 ADD SWAP1 PUSH2 0x38A SWAP2 SWAP1 PUSH2 0x2CE0 JUMP JUMPDEST PUSH2 0xF3C JUMP JUMPDEST STOP JUMPDEST CALLVALUE DUP1 ISZERO PUSH2 0x39D JUMPI PUSH1 0x0 DUP1 REVERT JUMPDEST POP PUSH2 0x3B8 PUSH1 0x4 DUP1 CALLDATASIZE SUB DUP2 ADD SWAP1 PUSH2 0x3B3 SWAP2 SWAP1 PUSH2 0x2CE0 JUMP JUMPDEST PUSH2 0x10BA JUMP JUMPDEST PUSH1 0x40 MLOAD PUSH2 0x3C5 SWAP2 SWAP1 PUSH2 0x3283 JUMP JUMPDEST PUSH1 0x40 MLOAD DUP1 SWAP2 SUB SWAP1 RETURN JUMPDEST PUSH2 0x3E8 PUSH1 0x4 DUP1 CALLDATASIZE SUB DUP2 ADD SWAP1 PUSH2 0x3E3 SWAP2 SWAP1 PUSH2 0x2CE0 JUMP JUMPDEST PUSH2 0x10D2 JUMP JUMPDEST STOP JUMPDEST CALLVALUE DUP1 ISZERO PUSH2 0x3F6 JUMPI PUSH1 0x0 DUP1 REVERT JUMPDEST POP PUSH2 0x3FF PUSH2 0x126A JUMP JUMPDEST PUSH1 0x40 MLOAD PUSH2 0x40C SWAP2 SWAP1 PUSH2 0x3283 JUMP JUMPDEST PUSH1 0x40 MLOAD DUP1 SWAP2 SUB SWAP1 RETURN JUMPDEST CALLVALUE DUP1 ISZERO PUSH2 0x421 JUMPI PUSH1 0x0 DUP1 REVERT JUMPDEST POP PUSH2 0x42A PUSH2 0x132F JUMP JUMPDEST PUSH1 0x40 MLOAD PUSH2 0x437 SWAP2 SWAP1 PUSH2 0x3148 JUMP JUMPDEST PUSH1 0x40 MLOAD DUP1 SWAP2 SUB SWAP1 RETURN JUMPDEST CALLVALUE DUP1 ISZERO PUSH2 0x44C JUMPI PUSH1 0x0 DUP1 REVERT JUMPDEST POP PUSH2 0x455 PUSH2 0x1355 JUMP JUMPDEST PUSH1 0x40 MLOAD PUSH2 0x462 SWAP2 SWAP1 PUSH2 0x3029 JUMP JUMPDEST PUSH1 0x40 MLOAD DUP1 SWAP2 SUB SWAP1 RETURN JUMPDEST CALLVALUE DUP1 ISZERO PUSH2 0x477 JUMPI PUSH1 0x0 DUP1 REVERT JUMPDEST POP PUSH2 0x492 PUSH1 0x4 DUP1 CALLDATASIZE SUB DUP2 ADD SWAP1 PUSH2 0x48D SWAP2 SWAP1 PUSH2 0x2CE0 JUMP JUMPDEST PUSH2 0x137B JUMP JUMPDEST PUSH1 0x40 MLOAD PUSH2 0x49F SWAP2 SWAP1 PUSH2 0x3283 JUMP JUMPDEST PUSH1 0x40 MLOAD DUP1 SWAP2 SUB SWAP1 RETURN JUMPDEST CALLVALUE DUP1 ISZERO PUSH2 0x4B4 JUMPI PUSH1 0x0 DUP1 REVERT JUMPDEST POP PUSH2 0x4BD PUSH2 0x1393 JUMP JUMPDEST PUSH1 0x40 MLOAD PUSH2 0x4CA SWAP2 SWAP1 PUSH2 0x3283 JUMP JUMPDEST PUSH1 0x40 MLOAD DUP1 SWAP2 SUB SWAP1 RETURN JUMPDEST CALLVALUE DUP1 ISZERO PUSH2 0x4DF JUMPI PUSH1 0x0 DUP1 REVERT JUMPDEST POP PUSH2 0x4E8 PUSH2 0x1399 JUMP JUMPDEST PUSH1 0x40 MLOAD PUSH2 0x4F5 SWAP2 SWAP1 PUSH2 0x3283 JUMP JUMPDEST PUSH1 0x40 MLOAD DUP1 SWAP2 SUB SWAP1 RETURN JUMPDEST CALLVALUE DUP1 ISZERO PUSH2 0x50A JUMPI PUSH1 0x0 DUP1 REVERT JUMPDEST POP PUSH2 0x513 PUSH2 0x14B7 JUMP JUMPDEST PUSH1 0x40 MLOAD PUSH2 0x520 SWAP2 SWAP1 PUSH2 0x3283 JUMP JUMPDEST PUSH1 0x40 MLOAD DUP1 SWAP2 SUB SWAP1 RETURN JUMPDEST CALLVALUE DUP1 ISZERO PUSH2 0x535 JUMPI PUSH1 0x0 DUP1 REVERT JUMPDEST POP PUSH2 0x53E PUSH2 0x14BD JUMP JUMPDEST PUSH1 0x40 MLOAD PUSH2 0x54B SWAP2 SWAP1 PUSH2 0x3283 JUMP JUMPDEST PUSH1 0x40 MLOAD DUP1 SWAP2 SUB SWAP1 RETURN JUMPDEST CALLVALUE DUP1 ISZERO PUSH2 0x560 JUMPI PUSH1 0x0 DUP1 REVERT JUMPDEST POP PUSH2 0x57B PUSH1 0x4 DUP1 CALLDATASIZE SUB DUP2 ADD SWAP1 PUSH2 0x576 SWAP2 SWAP1 PUSH2 0x2CE0 JUMP JUMPDEST PUSH2 0x14C3 JUMP JUMPDEST STOP JUMPDEST CALLVALUE DUP1 ISZERO PUSH2 0x589 JUMPI PUSH1 0x0 DUP1 REVERT JUMPDEST POP PUSH2 0x592 PUSH2 0x1574 JUMP JUMPDEST PUSH1 0x40 MLOAD PUSH2 0x59F SWAP2 SWAP1 PUSH2 0x3148 JUMP JUMPDEST PUSH1 0x40 MLOAD DUP1 SWAP2 SUB SWAP1 RETURN JUMPDEST CALLVALUE DUP1 ISZERO PUSH2 0x5B4 JUMPI PUSH1 0x0 DUP1 REVERT JUMPDEST POP PUSH2 0x5BD PUSH2 0x159A JUMP JUMPDEST STOP JUMPDEST CALLVALUE DUP1 ISZERO PUSH2 0x5CB JUMPI PUSH1 0x0 DUP1 REVERT JUMPDEST POP PUSH2 0x5D4 PUSH2 0x1622 JUMP JUMPDEST PUSH1 0x40 MLOAD PUSH2 0x5E1 SWAP2 SWAP1 PUSH2 0x3283 JUMP JUMPDEST PUSH1 0x40 MLOAD DUP1 SWAP2 SUB SWAP1 RETURN JUMPDEST CALLVALUE DUP1 ISZERO PUSH2 0x5F6 JUMPI PUSH1 0x0 DUP1 REVERT JUMPDEST POP PUSH2 0x611 PUSH1 0x4 DUP1 CALLDATASIZE SUB DUP2 ADD SWAP1 PUSH2 0x60C SWAP2 SWAP1 PUSH2 0x2D3A JUMP JUMPDEST PUSH2 0x16D9 JUMP JUMPDEST STOP JUMPDEST CALLVALUE DUP1 ISZERO PUSH2 0x61F JUMPI PUSH1 0x0 DUP1 REVERT JUMPDEST POP PUSH2 0x628 PUSH2 0x1BDA JUMP JUMPDEST PUSH1 0x40 MLOAD PUSH2 0x635 SWAP2 SWAP1 PUSH2 0x3029 JUMP JUMPDEST PUSH1 0x40 MLOAD DUP1 SWAP2 SUB SWAP1 RETURN JUMPDEST CALLVALUE DUP1 ISZERO PUSH2 0x64A JUMPI PUSH1 0x0 DUP1 REVERT JUMPDEST POP PUSH2 0x653 PUSH2 0x1C04 JUMP JUMPDEST PUSH1 0x40 MLOAD PUSH2 0x660 SWAP2 SWAP1 PUSH2 0x3283 JUMP JUMPDEST PUSH1 0x40 MLOAD DUP1 SWAP2 SUB SWAP1 RETURN JUMPDEST CALLVALUE DUP1 ISZERO PUSH2 0x675 JUMPI PUSH1 0x0 DUP1 REVERT JUMPDEST POP PUSH2 0x690 PUSH1 0x4 DUP1 CALLDATASIZE SUB DUP2 ADD SWAP1 PUSH2 0x68B SWAP2 SWAP1 PUSH2 0x2B72 JUMP JUMPDEST PUSH2 0x1CBA JUMP JUMPDEST STOP JUMPDEST CALLVALUE DUP1 ISZERO PUSH2 0x69E JUMPI PUSH1 0x0 DUP1 REVERT JUMPDEST POP PUSH2 0x6B9 PUSH1 0x4 DUP1 CALLDATASIZE SUB DUP2 ADD SWAP1 PUSH2 0x6B4 SWAP2 SWAP1 PUSH2 0x2C28 JUMP JUMPDEST PUSH2 0x1D39 JUMP JUMPDEST PUSH1 0x40 MLOAD PUSH2 0x6C7 SWAP3 SWAP2 SWAP1 PUSH2 0x311F JUMP JUMPDEST PUSH1 0x40 MLOAD DUP1 SWAP2 SUB SWAP1 RETURN JUMPDEST CALLVALUE DUP1 ISZERO PUSH2 0x6DC JUMPI PUSH1 0x0 DUP1 REVERT JUMPDEST POP PUSH2 0x6E5 PUSH2 0x1D93 JUMP JUMPDEST STOP JUMPDEST CALLVALUE DUP1 ISZERO PUSH2 0x6F3 JUMPI PUSH1 0x0 DUP1 REVERT JUMPDEST POP PUSH2 0x70E PUSH1 0x4 DUP1 CALLDATASIZE SUB DUP2 ADD SWAP1 PUSH2 0x709 SWAP2 SWAP1 PUSH2 0x2B9F JUMP JUMPDEST PUSH2 0x1E91 JUMP JUMPDEST STOP JUMPDEST CALLVALUE DUP1 ISZERO PUSH2 0x71C JUMPI PUSH1 0x0 DUP1 REVERT JUMPDEST POP PUSH2 0x725 PUSH2 0x2012 JUMP JUMPDEST PUSH1 0x40 MLOAD PUSH2 0x732 SWAP2 SWAP1 PUSH2 0x3029 JUMP JUMPDEST PUSH1 0x40 MLOAD DUP1 SWAP2 SUB SWAP1 RETURN JUMPDEST CALLVALUE DUP1 ISZERO PUSH2 0x747 JUMPI PUSH1 0x0 DUP1 REVERT JUMPDEST POP PUSH2 0x750 PUSH2 0x2038 JUMP JUMPDEST PUSH1 0x40 MLOAD PUSH2 0x75D SWAP2 SWAP1 PUSH2 0x3148 JUMP JUMPDEST PUSH1 0x40 MLOAD DUP1 SWAP2 SUB SWAP1 RETURN JUMPDEST PUSH2 0x780 PUSH1 0x4 DUP1 CALLDATASIZE SUB DUP2 ADD SWAP1 PUSH2 0x77B SWAP2 SWAP1 PUSH2 0x2D96 JUMP JUMPDEST PUSH2 0x205E JUMP JUMPDEST STOP JUMPDEST CALLVALUE DUP1 ISZERO PUSH2 0x78E JUMPI PUSH1 0x0 DUP1 REVERT JUMPDEST POP PUSH2 0x797 PUSH2 0x2461 JUMP JUMPDEST PUSH1 0x40 MLOAD PUSH2 0x7A4 SWAP2 SWAP1 PUSH2 0x3148 JUMP JUMPDEST PUSH1 0x40 MLOAD DUP1 SWAP2 SUB SWAP1 RETURN JUMPDEST CALLVALUE DUP1 ISZERO PUSH2 0x7B9 JUMPI PUSH1 0x0 DUP1 REVERT JUMPDEST POP PUSH2 0x7C2 PUSH2 0x2487 JUMP JUMPDEST PUSH1 0x40 MLOAD PUSH2 0x7CF SWAP2 SWAP1 PUSH2 0x3283 JUMP JUMPDEST PUSH1 0x40 MLOAD DUP1 SWAP2 SUB SWAP1 RETURN JUMPDEST CALLVALUE DUP1 ISZERO PUSH2 0x7E4 JUMPI PUSH1 0x0 DUP1 REVERT JUMPDEST POP PUSH2 0x7FF PUSH1 0x4 DUP1 CALLDATASIZE SUB DUP2 ADD SWAP1 PUSH2 0x7FA SWAP2 SWAP1 PUSH2 0x2C71 JUMP JUMPDEST PUSH2 0x24EA JUMP JUMPDEST STOP JUMPDEST CALLVALUE DUP1 ISZERO PUSH2 0x80D JUMPI PUSH1 0x0 DUP1 REVERT JUMPDEST POP PUSH2 0x816 PUSH2 0x25F1 JUMP JUMPDEST PUSH1 0x40 MLOAD PUSH2 0x823 SWAP2 SWAP1 PUSH2 0x3029 JUMP JUMPDEST PUSH1 0x40 MLOAD DUP1 SWAP2 SUB SWAP1 RETURN JUMPDEST CALLVALUE DUP1 ISZERO PUSH2 0x838 JUMPI PUSH1 0x0 DUP1 REVERT JUMPDEST POP PUSH2 0x853 PUSH1 0x4 DUP1 CALLDATASIZE SUB DUP2 ADD SWAP1 PUSH2 0x84E SWAP2 SWAP1 PUSH2 0x2B72 JUMP JUMPDEST PUSH2 0x2617 JUMP JUMPDEST STOP JUMPDEST CALLVALUE DUP1 ISZERO PUSH2 0x861 JUMPI PUSH1 0x0 DUP1 REVERT JUMPDEST POP PUSH2 0x87C PUSH1 0x4 DUP1 CALLDATASIZE SUB DUP2 ADD SWAP1 PUSH2 0x877 SWAP2 SWAP1 PUSH2 0x2CE0 JUMP JUMPDEST PUSH2 0x270F JUMP JUMPDEST STOP JUMPDEST PUSH1 0x0 PUSH2 0x997 ADDRESS PUSH20 0xFFFFFFFFFFFFFFFFFFFFFFFFFFFFFFFFFFFFFFFF AND PUSH4 0x1F564A06 PUSH1 0x40 MLOAD DUP2 PUSH4 0xFFFFFFFF AND PUSH1 0xE0 SHL DUP2 MSTORE PUSH1 0x4 ADD PUSH1 0x20 PUSH1 0x40 MLOAD DUP1 DUP4 SUB DUP2 DUP7 DUP1 EXTCODESIZE ISZERO DUP1 ISZERO PUSH2 0x8C9 JUMPI PUSH1 0x0 DUP1 REVERT JUMPDEST POP GAS STATICCALL ISZERO DUP1 ISZERO PUSH2 0x8DD JUMPI RETURNDATASIZE PUSH1 0x0 DUP1 RETURNDATACOPY RETURNDATASIZE PUSH1 0x0 REVERT JUMPDEST POP POP POP POP PUSH1 0x40 MLOAD RETURNDATASIZE PUSH1 0x1F NOT PUSH1 0x1F DUP3 ADD AND DUP3 ADD DUP1 PUSH1 0x40 MSTORE POP DUP2 ADD SWAP1 PUSH2 0x901 SWAP2 SWAP1 PUSH2 0x2D0D JUMP JUMPDEST ADDRESS PUSH20 0xFFFFFFFFFFFFFFFFFFFFFFFFFFFFFFFFFFFFFFFF AND PUSH4 0x93F7B711 PUSH1 0x40 MLOAD DUP2 PUSH4 0xFFFFFFFF AND PUSH1 0xE0 SHL DUP2 MSTORE PUSH1 0x4 ADD PUSH1 0x20 PUSH1 0x40 MLOAD DUP1 DUP4 SUB DUP2 DUP7 DUP1 EXTCODESIZE ISZERO DUP1 ISZERO PUSH2 0x947 JUMPI PUSH1 0x0 DUP1 REVERT JUMPDEST POP GAS STATICCALL ISZERO DUP1 ISZERO PUSH2 0x95B JUMPI RETURNDATASIZE PUSH1 0x0 DUP1 RETURNDATACOPY RETURNDATASIZE PUSH1 0x0 REVERT JUMPDEST POP POP POP POP PUSH1 0x40 MLOAD RETURNDATASIZE PUSH1 0x1F NOT PUSH1 0x1F DUP3 ADD AND DUP3 ADD DUP1 PUSH1 0x40 MSTORE POP DUP2 ADD SWAP1 PUSH2 0x97F SWAP2 SWAP1 PUSH2 0x2D0D JUMP JUMPDEST PUSH8 0x10A741A462780000 PUSH2 0x992 SWAP2 SWAP1 PUSH2 0x3344 JUMP JUMPDEST PUSH2 0x27A3 JUMP JUMPDEST SWAP1 POP SWAP1 JUMP JUMPDEST PUSH2 0x9A4 PUSH2 0x27EC JUMP JUMPDEST PUSH20 0xFFFFFFFFFFFFFFFFFFFFFFFFFFFFFFFFFFFFFFFF AND PUSH2 0x9C2 PUSH2 0x1BDA JUMP JUMPDEST PUSH20 0xFFFFFFFFFFFFFFFFFFFFFFFFFFFFFFFFFFFFFFFF AND EQ PUSH2 0xA18 JUMPI PUSH1 0x40 MLOAD PUSH32 0x8C379A000000000000000000000000000000000000000000000000000000000 DUP2 MSTORE PUSH1 0x4 ADD PUSH2 0xA0F SWAP1 PUSH2 0x31C3 JUMP JUMPDEST PUSH1 0x40 MLOAD DUP1 SWAP2 SUB SWAP1 REVERT JUMPDEST TIMESTAMP PUSH1 0x9 DUP2 SWAP1 SSTORE POP PUSH3 0x69780 PUSH1 0xA DUP2 SWAP1 SSTORE POP PUSH1 0xC PUSH1 0x0 SWAP1 SLOAD SWAP1 PUSH2 0x100 EXP SWAP1 DIV PUSH20 0xFFFFFFFFFFFFFFFFFFFFFFFFFFFFFFFFFFFFFFFF AND PUSH20 0xFFFFFFFFFFFFFFFFFFFFFFFFFFFFFFFFFFFFFFFF AND PUSH4 0x40C10F19 PUSH20 0x617F2E2FD72FD9D5503197092AC168C91465E7F2 PUSH10 0x1FE36793670C0C82000 PUSH1 0x40 MLOAD DUP4 PUSH4 0xFFFFFFFF AND PUSH1 0xE0 SHL DUP2 MSTORE PUSH1 0x4 ADD PUSH2 0xAA4 SWAP3 SWAP2 SWAP1 PUSH2 0x30F6 JUMP JUMPDEST PUSH1 0x0 PUSH1 0x40 MLOAD DUP1 DUP4 SUB DUP2 PUSH1 0x0 DUP8 DUP1 EXTCODESIZE ISZERO DUP1 ISZERO PUSH2 0xABE JUMPI PUSH1 0x0 DUP1 REVERT JUMPDEST POP GAS CALL ISZERO DUP1 ISZERO PUSH2 0xAD2 JUMPI RETURNDATASIZE PUSH1 0x0 DUP1 RETURNDATACOPY RETURNDATASIZE PUSH1 0x0 REVERT JUMPDEST POP POP POP POP PUSH1 0xC PUSH1 0x0 SWAP1 SLOAD SWAP1 PUSH2 0x100 EXP SWAP1 DIV PUSH20 0xFFFFFFFFFFFFFFFFFFFFFFFFFFFFFFFFFFFFFFFF AND PUSH20 0xFFFFFFFFFFFFFFFFFFFFFFFFFFFFFFFFFFFFFFFF AND PUSH4 0x40C10F19 PUSH20 0x17F6AD8EF982297579C203069C1DBFFE4348C372 PUSH10 0x97782BFBF68AB74E000 PUSH1 0x40 MLOAD DUP4 PUSH4 0xFFFFFFFF AND PUSH1 0xE0 SHL DUP2 MSTORE PUSH1 0x4 ADD PUSH2 0xB51 SWAP3 SWAP2 SWAP1 PUSH2 0x30A4 JUMP JUMPDEST PUSH1 0x0 PUSH1 0x40 MLOAD DUP1 DUP4 SUB DUP2 PUSH1 0x0 DUP8 DUP1 EXTCODESIZE ISZERO DUP1 ISZERO PUSH2 0xB6B JUMPI PUSH1 0x0 DUP1 REVERT JUMPDEST POP GAS CALL ISZERO DUP1 ISZERO PUSH2 0xB7F JUMPI RETURNDATASIZE PUSH1 0x0 DUP1 RETURNDATACOPY RETURNDATASIZE PUSH1 0x0 REVERT JUMPDEST POP POP POP POP PUSH1 0xC PUSH1 0x0 SWAP1 SLOAD SWAP1 PUSH2 0x100 EXP SWAP1 DIV PUSH20 0xFFFFFFFFFFFFFFFFFFFFFFFFFFFFFFFFFFFFFFFF AND PUSH20 0xFFFFFFFFFFFFFFFFFFFFFFFFFFFFFFFFFFFFFFFF AND PUSH4 0x40C10F19 PUSH20 0x5C6B0F7BF3E7CE046039BD8FABDFD3F9F5021678 PUSH10 0x9F7105E1033C3E8A000 PUSH1 0x40 MLOAD DUP4 PUSH4 0xFFFFFFFF AND PUSH1 0xE0 SHL DUP2 MSTORE PUSH1 0x4 ADD PUSH2 0xBFE SWAP3 SWAP2 SWAP1 PUSH2 0x30CD JUMP JUMPDEST PUSH1 0x0 PUSH1 0x40 MLOAD DUP1 DUP4 SUB DUP2 PUSH1 0x0 DUP8 DUP1 EXTCODESIZE ISZERO DUP1 ISZERO PUSH2 0xC18 JUMPI PUSH1 0x0 DUP1 REVERT JUMPDEST POP GAS CALL ISZERO DUP1 ISZERO PUSH2 0xC2C JUMPI RETURNDATASIZE PUSH1 0x0 DUP1 RETURNDATACOPY RETURNDATASIZE PUSH1 0x0 REVERT JUMPDEST POP POP POP POP PUSH1 0xD PUSH1 0x0 SWAP1 SLOAD SWAP1 PUSH2 0x100 EXP SWAP1 DIV PUSH20 0xFFFFFFFFFFFFFFFFFFFFFFFFFFFFFFFFFFFFFFFF AND PUSH20 0xFFFFFFFFFFFFFFFFFFFFFFFFFFFFFFFFFFFFFFFF AND PUSH4 0x40C10F19 ADDRESS PUSH10 0x156CC997060D3025A000 PUSH1 0x40 MLOAD DUP4 PUSH4 0xFFFFFFFF AND PUSH1 0xE0 SHL DUP2 MSTORE PUSH1 0x4 ADD PUSH2 0xC97 SWAP3 SWAP2 SWAP1 PUSH2 0x307B JUMP JUMPDEST PUSH1 0x0 PUSH1 0x40 MLOAD DUP1 DUP4 SUB DUP2 PUSH1 0x0 DUP8 DUP1 EXTCODESIZE ISZERO DUP1 ISZERO PUSH2 0xCB1 JUMPI PUSH1 0x0 DUP1 REVERT JUMPDEST POP GAS CALL ISZERO DUP1 ISZERO PUSH2 0xCC5 JUMPI RETURNDATASIZE PUSH1 0x0 DUP1 RETURNDATACOPY RETURNDATASIZE PUSH1 0x0 REVERT JUMPDEST POP POP POP POP PUSH10 0x156CC997060D3025A000 PUSH1 0x10 PUSH1 0x0 DUP1 DUP2 MSTORE PUSH1 0x20 ADD SWAP1 DUP2 MSTORE PUSH1 0x20 ADD PUSH1 0x0 KECCAK256 DUP2 SWAP1 SSTORE POP PUSH10 0x156CC997060D3025A000 PUSH1 0x12 PUSH1 0x0 DUP1 DUP2 MSTORE PUSH1 0x20 ADD SWAP1 DUP2 MSTORE PUSH1 0x20 ADD PUSH1 0x0 KECCAK256 DUP2 SWAP1 SSTORE POP PUSH3 0x8B290 PUSH1 0x8 DUP2 SWAP1 SSTORE POP JUMP JUMPDEST PUSH1 0x6 PUSH1 0x0 SWAP1 SLOAD SWAP1 PUSH2 0x100 EXP SWAP1 DIV PUSH20 0xFFFFFFFFFFFFFFFFFFFFFFFFFFFFFFFFFFFFFFFF AND DUP2 JUMP JUMPDEST PUSH1 0x0 DUP1 PUSH2 0xDD0 ADDRESS PUSH20 0xFFFFFFFFFFFFFFFFFFFFFFFFFFFFFFFFFFFFFFFF AND PUSH4 0xD82EDDF2 PUSH1 0x40 MLOAD DUP2 PUSH4 0xFFFFFFFF AND PUSH1 0xE0 SHL DUP2 MSTORE PUSH1 0x4 ADD PUSH1 0x20 PUSH1 0x40 MLOAD DUP1 DUP4 SUB DUP2 DUP7 DUP1 EXTCODESIZE ISZERO DUP1 ISZERO PUSH2 0xD8B JUMPI PUSH1 0x0 DUP1 REVERT JUMPDEST POP GAS STATICCALL ISZERO DUP1 ISZERO PUSH2 0xD9F JUMPI RETURNDATASIZE PUSH1 0x0 DUP1 RETURNDATACOPY RETURNDATASIZE PUSH1 0x0 REVERT JUMPDEST POP POP POP POP PUSH1 0x40 MLOAD RETURNDATASIZE PUSH1 0x1F NOT PUSH1 0x1F DUP3 ADD AND DUP3 ADD DUP1 PUSH1 0x40 MSTORE POP DUP2 ADD SWAP1 PUSH2 0xDC3 SWAP2 SWAP1 PUSH2 0x2D0D JUMP JUMPDEST PUSH2 0xDCB PUSH2 0xDF5 JUMP JUMPDEST PUSH2 0x27F4 JUMP JUMPDEST SWAP1 POP PUSH8 0x429D069189E0000 DUP2 GT ISZERO PUSH2 0xDEE JUMPI PUSH8 0x429D069189E0000 SWAP1 POP JUMPDEST DUP1 SWAP2 POP POP SWAP1 JUMP JUMPDEST PUSH1 0x0 DUP1 PUSH3 0x15180 PUSH1 0x9 SLOAD TIMESTAMP PUSH2 0xE0A SWAP2 SWAP1 PUSH2 0x3425 JUMP JUMPDEST PUSH2 0xE14 SWAP2 SWAP1 PUSH2 0x339A JUMP JUMPDEST SWAP1 POP PUSH1 0x0 DUP1 PUSH3 0x15180 PUSH1 0xA SLOAD PUSH2 0xE2A SWAP2 SWAP1 PUSH2 0x339A JUMP JUMPDEST SWAP1 POP PUSH1 0x0 DUP1 DUP5 EQ ISZERO PUSH2 0xE55 JUMPI PUSH1 0x12 PUSH1 0x0 DUP1 DUP2 MSTORE PUSH1 0x20 ADD SWAP1 DUP2 MSTORE PUSH1 0x20 ADD PUSH1 0x0 KECCAK256 SLOAD SWAP5 POP POP POP POP POP PUSH2 0xEFD JUMP JUMPDEST DUP2 DUP5 LT ISZERO PUSH2 0xEAA JUMPI PUSH1 0x0 SWAP1 POP JUMPDEST DUP4 DUP2 LT ISZERO PUSH2 0xE9E JUMPI PUSH1 0x12 PUSH1 0x0 DUP3 DUP2 MSTORE PUSH1 0x20 ADD SWAP1 DUP2 MSTORE PUSH1 0x20 ADD PUSH1 0x0 KECCAK256 SLOAD DUP4 PUSH2 0xE89 SWAP2 SWAP1 PUSH2 0x3344 JUMP JUMPDEST SWAP3 POP DUP1 DUP1 PUSH2 0xE96 SWAP1 PUSH2 0x3592 JUMP JUMPDEST SWAP2 POP POP PUSH2 0xE62 JUMP JUMPDEST DUP3 SWAP5 POP POP POP POP POP PUSH2 0xEFD JUMP JUMPDEST DUP2 DUP5 PUSH2 0xEB6 SWAP2 SWAP1 PUSH2 0x3425 JUMP JUMPDEST SWAP1 POP JUMPDEST DUP4 DUP2 LT ISZERO PUSH2 0xEF5 JUMPI PUSH1 0x12 PUSH1 0x0 DUP3 DUP2 MSTORE PUSH1 0x20 ADD SWAP1 DUP2 MSTORE PUSH1 0x20 ADD PUSH1 0x0 KECCAK256 SLOAD DUP4 PUSH2 0xEE0 SWAP2 SWAP1 PUSH2 0x3344 JUMP JUMPDEST SWAP3 POP DUP1 DUP1 PUSH2 0xEED SWAP1 PUSH2 0x3592 JUMP JUMPDEST SWAP2 POP POP PUSH2 0xEB9 JUMP JUMPDEST DUP3 SWAP5 POP POP POP POP POP JUMPDEST SWAP1 JUMP JUMPDEST PUSH1 0x14 PUSH1 0x20 MSTORE DUP1 PUSH1 0x0 MSTORE PUSH1 0x40 PUSH1 0x0 KECCAK256 PUSH1 0x0 SWAP2 POP SWAP1 POP DUP1 PUSH1 0x0 ADD SLOAD SWAP1 DUP1 PUSH1 0x1 ADD SLOAD SWAP1 POP DUP3 JUMP JUMPDEST PUSH1 0x11 PUSH1 0x20 MSTORE DUP1 PUSH1 0x0 MSTORE PUSH1 0x40 PUSH1 0x0 KECCAK256 PUSH1 0x0 SWAP2 POP SWAP1 POP SLOAD DUP2 JUMP JUMPDEST PUSH1 0x14 PUSH1 0x0 CALLER PUSH20 0xFFFFFFFFFFFFFFFFFFFFFFFFFFFFFFFFFFFFFFFF AND PUSH20 0xFFFFFFFFFFFFFFFFFFFFFFFFFFFFFFFFFFFFFFFF AND DUP2 MSTORE PUSH1 0x20 ADD SWAP1 DUP2 MSTORE PUSH1 0x20 ADD PUSH1 0x0 KECCAK256 PUSH1 0x1 ADD SLOAD DUP2 LT PUSH2 0xFC0 JUMPI PUSH1 0x40 MLOAD PUSH32 0x8C379A000000000000000000000000000000000000000000000000000000000 DUP2 MSTORE PUSH1 0x4 ADD PUSH2 0xFB7 SWAP1 PUSH2 0x3163 JUMP JUMPDEST PUSH1 0x40 MLOAD DUP1 SWAP2 SUB SWAP1 REVERT JUMPDEST DUP1 PUSH1 0x14 PUSH1 0x0 CALLER PUSH20 0xFFFFFFFFFFFFFFFFFFFFFFFFFFFFFFFFFFFFFFFF AND PUSH20 0xFFFFFFFFFFFFFFFFFFFFFFFFFFFFFFFFFFFFFFFF AND DUP2 MSTORE PUSH1 0x20 ADD SWAP1 DUP2 MSTORE PUSH1 0x20 ADD PUSH1 0x0 KECCAK256 PUSH1 0x1 ADD PUSH1 0x0 DUP3 DUP3 SLOAD PUSH2 0x1012 SWAP2 SWAP1 PUSH2 0x3425 JUMP JUMPDEST SWAP3 POP POP DUP2 SWAP1 SSTORE POP PUSH1 0x0 PUSH1 0x14 PUSH1 0x0 CALLER PUSH20 0xFFFFFFFFFFFFFFFFFFFFFFFFFFFFFFFFFFFFFFFF AND PUSH20 0xFFFFFFFFFFFFFFFFFFFFFFFFFFFFFFFFFFFFFFFF AND DUP2 MSTORE PUSH1 0x20 ADD SWAP1 DUP2 MSTORE PUSH1 0x20 ADD PUSH1 0x0 KECCAK256 PUSH1 0x1 ADD SLOAD EQ ISZERO PUSH2 0x10B7 JUMPI PUSH1 0x14 PUSH1 0x0 CALLER PUSH20 0xFFFFFFFFFFFFFFFFFFFFFFFFFFFFFFFFFFFFFFFF AND PUSH20 0xFFFFFFFFFFFFFFFFFFFFFFFFFFFFFFFFFFFFFFFF AND DUP2 MSTORE PUSH1 0x20 ADD SWAP1 DUP2 MSTORE PUSH1 0x20 ADD PUSH1 0x0 KECCAK256 PUSH1 0x0 DUP1 DUP3 ADD PUSH1 0x0 SWAP1 SSTORE PUSH1 0x1 DUP3 ADD PUSH1 0x0 SWAP1 SSTORE POP POP JUMPDEST POP JUMP JUMPDEST PUSH1 0x12 PUSH1 0x20 MSTORE DUP1 PUSH1 0x0 MSTORE PUSH1 0x40 PUSH1 0x0 KECCAK256 PUSH1 0x0 SWAP2 POP SWAP1 POP SLOAD DUP2 JUMP JUMPDEST PUSH1 0x0 PUSH1 0xC PUSH1 0x0 SWAP1 SLOAD SWAP1 PUSH2 0x100 EXP SWAP1 DIV PUSH20 0xFFFFFFFFFFFFFFFFFFFFFFFFFFFFFFFFFFFFFFFF AND PUSH20 0xFFFFFFFFFFFFFFFFFFFFFFFFFFFFFFFFFFFFFFFF AND PUSH4 0x70A08231 CALLER PUSH1 0x40 MLOAD DUP3 PUSH4 0xFFFFFFFF AND PUSH1 0xE0 SHL DUP2 MSTORE PUSH1 0x4 ADD PUSH2 0x112F SWAP2 SWAP1 PUSH2 0x3029 JUMP JUMPDEST PUSH1 0x20 PUSH1 0x40 MLOAD DUP1 DUP4 SUB DUP2 DUP7 DUP1 EXTCODESIZE ISZERO DUP1 ISZERO PUSH2 0x1147 JUMPI PUSH1 0x0 DUP1 REVERT JUMPDEST POP GAS STATICCALL ISZERO DUP1 ISZERO PUSH2 0x115B JUMPI RETURNDATASIZE PUSH1 0x0 DUP1 RETURNDATACOPY RETURNDATASIZE PUSH1 0x0 REVERT JUMPDEST POP POP POP POP PUSH1 0x40 MLOAD RETURNDATASIZE PUSH1 0x1F NOT PUSH1 0x1F DUP3 ADD AND DUP3 ADD DUP1 PUSH1 0x40 MSTORE POP DUP2 ADD SWAP1 PUSH2 0x117F SWAP2 SWAP1 PUSH2 0x2D0D JUMP JUMPDEST SWAP1 POP DUP2 DUP2 GT PUSH2 0x11C3 JUMPI PUSH1 0x40 MLOAD PUSH32 0x8C379A000000000000000000000000000000000000000000000000000000000 DUP2 MSTORE PUSH1 0x4 ADD PUSH2 0x11BA SWAP1 PUSH2 0x31E3 JUMP JUMPDEST PUSH1 0x40 MLOAD DUP1 SWAP2 SUB SWAP1 REVERT JUMPDEST PUSH2 0x11F1 PUSH1 0xC PUSH1 0x0 SWAP1 SLOAD SWAP1 PUSH2 0x100 EXP SWAP1 DIV PUSH20 0xFFFFFFFFFFFFFFFFFFFFFFFFFFFFFFFFFFFFFFFF AND CALLER ADDRESS DUP6 PUSH2 0x2835 JUMP JUMPDEST PUSH1 0x0 PUSH3 0x15180 PUSH1 0x9 SLOAD TIMESTAMP PUSH2 0x1205 SWAP2 SWAP1 PUSH2 0x3425 JUMP JUMPDEST PUSH2 0x120F SWAP2 SWAP1 PUSH2 0x339A JUMP JUMPDEST SWAP1 POP DUP3 PUSH1 0x11 PUSH1 0x0 DUP4 DUP2 MSTORE PUSH1 0x20 ADD SWAP1 DUP2 MSTORE PUSH1 0x20 ADD PUSH1 0x0 KECCAK256 PUSH1 0x0 DUP3 DUP3 SLOAD PUSH2 0x1234 SWAP2 SWAP1 PUSH2 0x3344 JUMP JUMPDEST SWAP3 POP POP DUP2 SWAP1 SSTORE POP DUP3 PUSH1 0x12 PUSH1 0x0 DUP4 DUP2 MSTORE PUSH1 0x20 ADD SWAP1 DUP2 MSTORE PUSH1 0x20 ADD PUSH1 0x0 KECCAK256 PUSH1 0x0 DUP3 DUP3 SLOAD PUSH2 0x125E SWAP2 SWAP1 PUSH2 0x3425 JUMP JUMPDEST SWAP3 POP POP DUP2 SWAP1 SSTORE POP POP POP POP JUMP JUMPDEST PUSH1 0x0 PUSH2 0x132A PUSH8 0xDE0B6B3A7640000 PUSH1 0x8 SLOAD PUSH2 0x1285 SWAP2 SWAP1 PUSH2 0x33CB JUMP JUMPDEST PUSH1 0xC PUSH1 0x0 SWAP1 SLOAD SWAP1 PUSH2 0x100 EXP SWAP1 DIV PUSH20 0xFFFFFFFFFFFFFFFFFFFFFFFFFFFFFFFFFFFFFFFF AND PUSH20 0xFFFFFFFFFFFFFFFFFFFFFFFFFFFFFFFFFFFFFFFF AND PUSH4 0x18160DDD PUSH1 0x40 MLOAD DUP2 PUSH4 0xFFFFFFFF AND PUSH1 0xE0 SHL DUP2 MSTORE PUSH1 0x4 ADD PUSH1 0x20 PUSH1 0x40 MLOAD DUP1 DUP4 SUB DUP2 DUP7 DUP1 EXTCODESIZE ISZERO DUP1 ISZERO PUSH2 0x12ED JUMPI PUSH1 0x0 DUP1 REVERT JUMPDEST POP GAS STATICCALL ISZERO DUP1 ISZERO PUSH2 0x1301 JUMPI RETURNDATASIZE PUSH1 0x0 DUP1 RETURNDATACOPY RETURNDATASIZE PUSH1 0x0 REVERT JUMPDEST POP POP POP POP PUSH1 0x40 MLOAD RETURNDATASIZE PUSH1 0x1F NOT PUSH1 0x1F DUP3 ADD AND DUP3 ADD DUP1 PUSH1 0x40 MSTORE POP DUP2 ADD SWAP1 PUSH2 0x1325 SWAP2 SWAP1 PUSH2 0x2D0D JUMP JUMPDEST PUSH2 0x27F4 JUMP JUMPDEST SWAP1 POP SWAP1 JUMP JUMPDEST PUSH1 0xC PUSH1 0x0 SWAP1 SLOAD SWAP1 PUSH2 0x100 EXP SWAP1 DIV PUSH20 0xFFFFFFFFFFFFFFFFFFFFFFFFFFFFFFFFFFFFFFFF AND DUP2 JUMP JUMPDEST PUSH1 0x7 PUSH1 0x0 SWAP1 SLOAD SWAP1 PUSH2 0x100 EXP SWAP1 DIV PUSH20 0xFFFFFFFFFFFFFFFFFFFFFFFFFFFFFFFFFFFFFFFF AND DUP2 JUMP JUMPDEST PUSH1 0x10 PUSH1 0x20 MSTORE DUP1 PUSH1 0x0 MSTORE PUSH1 0x40 PUSH1 0x0 KECCAK256 PUSH1 0x0 SWAP2 POP SWAP1 POP SLOAD DUP2 JUMP JUMPDEST PUSH1 0x9 SLOAD DUP2 JUMP JUMPDEST PUSH1 0x0 PUSH2 0x14B2 ADDRESS PUSH20 0xFFFFFFFFFFFFFFFFFFFFFFFFFFFFFFFFFFFFFFFF AND PUSH4 0x1F564A06 PUSH1 0x40 MLOAD DUP2 PUSH4 0xFFFFFFFF AND PUSH1 0xE0 SHL DUP2 MSTORE PUSH1 0x4 ADD PUSH1 0x20 PUSH1 0x40 MLOAD DUP1 DUP4 SUB DUP2 DUP7 DUP1 EXTCODESIZE ISZERO DUP1 ISZERO PUSH2 0x13E4 JUMPI PUSH1 0x0 DUP1 REVERT JUMPDEST POP GAS STATICCALL ISZERO DUP1 ISZERO PUSH2 0x13F8 JUMPI RETURNDATASIZE PUSH1 0x0 DUP1 RETURNDATACOPY RETURNDATASIZE PUSH1 0x0 REVERT JUMPDEST POP POP POP POP PUSH1 0x40 MLOAD RETURNDATASIZE PUSH1 0x1F NOT PUSH1 0x1F DUP3 ADD AND DUP3 ADD DUP1 PUSH1 0x40 MSTORE POP DUP2 ADD SWAP1 PUSH2 0x141C SWAP2 SWAP1 PUSH2 0x2D0D JUMP JUMPDEST ADDRESS PUSH20 0xFFFFFFFFFFFFFFFFFFFFFFFFFFFFFFFFFFFFFFFF AND PUSH4 0xCCAF04F PUSH1 0x40 MLOAD DUP2 PUSH4 0xFFFFFFFF AND PUSH1 0xE0 SHL DUP2 MSTORE PUSH1 0x4 ADD PUSH1 0x20 PUSH1 0x40 MLOAD DUP1 DUP4 SUB DUP2 DUP7 DUP1 EXTCODESIZE ISZERO DUP1 ISZERO PUSH2 0x1462 JUMPI PUSH1 0x0 DUP1 REVERT JUMPDEST POP GAS STATICCALL ISZERO DUP1 ISZERO PUSH2 0x1476 JUMPI RETURNDATASIZE PUSH1 0x0 DUP1 RETURNDATACOPY RETURNDATASIZE PUSH1 0x0 REVERT JUMPDEST POP POP POP POP PUSH1 0x40 MLOAD RETURNDATASIZE PUSH1 0x1F NOT PUSH1 0x1F DUP3 ADD AND DUP3 ADD DUP1 PUSH1 0x40 MSTORE POP DUP2 ADD SWAP1 PUSH2 0x149A SWAP2 SWAP1 PUSH2 0x2D0D JUMP JUMPDEST PUSH8 0xC7D713B49DA0000 PUSH2 0x14AD SWAP2 SWAP1 PUSH2 0x3425 JUMP JUMPDEST PUSH2 0x27A3 JUMP JUMPDEST SWAP1 POP SWAP1 JUMP JUMPDEST PUSH1 0x8 SLOAD DUP2 JUMP JUMPDEST PUSH1 0xA SLOAD DUP2 JUMP JUMPDEST PUSH3 0xD2F00 TIMESTAMP PUSH2 0x14D2 SWAP2 SWAP1 PUSH2 0x3344 JUMP JUMPDEST PUSH1 0x14 PUSH1 0x0 CALLER PUSH20 0xFFFFFFFFFFFFFFFFFFFFFFFFFFFFFFFFFFFFFFFF AND PUSH20 0xFFFFFFFFFFFFFFFFFFFFFFFFFFFFFFFFFFFFFFFF AND DUP2 MSTORE PUSH1 0x20 ADD SWAP1 DUP2 MSTORE PUSH1 0x20 ADD PUSH1 0x0 KECCAK256 PUSH1 0x0 ADD DUP2 SWAP1 SSTORE POP DUP1 PUSH1 0x14 PUSH1 0x0 CALLER PUSH20 0xFFFFFFFFFFFFFFFFFFFFFFFFFFFFFFFFFFFFFFFF AND PUSH20 0xFFFFFFFFFFFFFFFFFFFFFFFFFFFFFFFFFFFFFFFF AND DUP2 MSTORE PUSH1 0x20 ADD SWAP1 DUP2 MSTORE PUSH1 0x20 ADD PUSH1 0x0 KECCAK256 PUSH1 0x1 ADD PUSH1 0x0 DUP3 DUP3 SLOAD PUSH2 0x156A SWAP2 SWAP1 PUSH2 0x3344 JUMP JUMPDEST SWAP3 POP POP DUP2 SWAP1 SSTORE POP POP JUMP JUMPDEST PUSH1 0xF PUSH1 0x0 SWAP1 SLOAD SWAP1 PUSH2 0x100 EXP SWAP1 DIV PUSH20 0xFFFFFFFFFFFFFFFFFFFFFFFFFFFFFFFFFFFFFFFF AND DUP2 JUMP JUMPDEST PUSH2 0x15A2 PUSH2 0x27EC JUMP JUMPDEST PUSH20 0xFFFFFFFFFFFFFFFFFFFFFFFFFFFFFFFFFFFFFFFF AND PUSH2 0x15C0 PUSH2 0x1BDA JUMP JUMPDEST PUSH20 0xFFFFFFFFFFFFFFFFFFFFFFFFFFFFFFFFFFFFFFFF AND EQ PUSH2 0x1616 JUMPI PUSH1 0x40 MLOAD PUSH32 0x8C379A000000000000000000000000000000000000000000000000000000000 DUP2 MSTORE PUSH1 0x4 ADD PUSH2 0x160D SWAP1 PUSH2 0x31C3 JUMP JUMPDEST PUSH1 0x40 MLOAD DUP1 SWAP2 SUB SWAP1 REVERT JUMPDEST PUSH2 0x1620 PUSH1 0x0 PUSH2 0x290F JUMP JUMPDEST JUMP JUMPDEST PUSH1 0x0 DUP1 PUSH1 0x0 DUP1 PUSH3 0x15180 PUSH1 0xA SLOAD PUSH2 0x1639 SWAP2 SWAP1 PUSH2 0x339A JUMP JUMPDEST SWAP1 POP PUSH1 0x0 PUSH3 0x15180 PUSH1 0x9 SLOAD TIMESTAMP PUSH2 0x164F SWAP2 SWAP1 PUSH2 0x3425 JUMP JUMPDEST PUSH2 0x1659 SWAP2 SWAP1 PUSH2 0x339A JUMP JUMPDEST SWAP1 POP PUSH1 0x0 DUP2 EQ ISZERO PUSH2 0x1683 JUMPI PUSH1 0x10 PUSH1 0x0 DUP1 DUP2 MSTORE PUSH1 0x20 ADD SWAP1 DUP2 MSTORE PUSH1 0x20 ADD PUSH1 0x0 KECCAK256 SLOAD SWAP5 POP POP POP POP POP PUSH2 0x16D6 JUMP JUMPDEST DUP2 DUP2 PUSH2 0x168F SWAP2 SWAP1 PUSH2 0x3425 JUMP JUMPDEST SWAP3 POP JUMPDEST DUP1 DUP4 LT ISZERO PUSH2 0x16CE JUMPI PUSH1 0x10 PUSH1 0x0 DUP5 DUP2 MSTORE PUSH1 0x20 ADD SWAP1 DUP2 MSTORE PUSH1 0x20 ADD PUSH1 0x0 KECCAK256 SLOAD DUP5 PUSH2 0x16B9 SWAP2 SWAP1 PUSH2 0x3344 JUMP JUMPDEST SWAP4 POP DUP3 DUP1 PUSH2 0x16C6 SWAP1 PUSH2 0x3592 JUMP JUMPDEST SWAP4 POP POP PUSH2 0x1692 JUMP JUMPDEST DUP4 SWAP5 POP POP POP POP POP JUMPDEST SWAP1 JUMP JUMPDEST PUSH1 0x2 PUSH1 0x0 SLOAD EQ ISZERO PUSH2 0x171F JUMPI PUSH1 0x40 MLOAD PUSH32 0x8C379A000000000000000000000000000000000000000000000000000000000 DUP2 MSTORE PUSH1 0x4 ADD PUSH2 0x1716 SWAP1 PUSH2 0x3243 JUMP JUMPDEST PUSH1 0x40 MLOAD DUP1 SWAP2 SUB SWAP1 REVERT JUMPDEST PUSH1 0x2 PUSH1 0x0 DUP2 SWAP1 SSTORE POP PUSH1 0x13 DUP2 PUSH1 0x40 MLOAD PUSH2 0x1737 SWAP2 SWAP1 PUSH2 0x2FFD JUMP JUMPDEST SWAP1 DUP2 MSTORE PUSH1 0x20 ADD PUSH1 0x40 MLOAD DUP1 SWAP2 SUB SWAP1 KECCAK256 PUSH1 0x0 ADD PUSH1 0x0 SWAP1 SLOAD SWAP1 PUSH2 0x100 EXP SWAP1 DIV PUSH20 0xFFFFFFFFFFFFFFFFFFFFFFFFFFFFFFFFFFFFFFFF AND PUSH1 0xF PUSH1 0x0 PUSH2 0x100 EXP DUP2 SLOAD DUP2 PUSH20 0xFFFFFFFFFFFFFFFFFFFFFFFFFFFFFFFFFFFFFFFF MUL NOT AND SWAP1 DUP4 PUSH20 0xFFFFFFFFFFFFFFFFFFFFFFFFFFFFFFFFFFFFFFFF AND MUL OR SWAP1 SSTORE POP PUSH3 0x3D090 DUP3 GT ISZERO PUSH2 0x17EF JUMPI PUSH1 0x40 MLOAD PUSH32 0x8C379A000000000000000000000000000000000000000000000000000000000 DUP2 MSTORE PUSH1 0x4 ADD PUSH2 0x17E6 SWAP1 PUSH2 0x3203 JUMP JUMPDEST PUSH1 0x40 MLOAD DUP1 SWAP2 SUB SWAP1 REVERT JUMPDEST PUSH1 0x0 PUSH1 0xF PUSH1 0x0 SWAP1 SLOAD SWAP1 PUSH2 0x100 EXP SWAP1 DIV PUSH20 0xFFFFFFFFFFFFFFFFFFFFFFFFFFFFFFFFFFFFFFFF AND PUSH20 0xFFFFFFFFFFFFFFFFFFFFFFFFFFFFFFFFFFFFFFFF AND PUSH4 0x70A08231 CALLER PUSH1 0x40 MLOAD DUP3 PUSH4 0xFFFFFFFF AND PUSH1 0xE0 SHL DUP2 MSTORE PUSH1 0x4 ADD PUSH2 0x184C SWAP2 SWAP1 PUSH2 0x3029 JUMP JUMPDEST PUSH1 0x20 PUSH1 0x40 MLOAD DUP1 DUP4 SUB DUP2 DUP7 DUP1 EXTCODESIZE ISZERO DUP1 ISZERO PUSH2 0x1864 JUMPI PUSH1 0x0 DUP1 REVERT JUMPDEST POP GAS STATICCALL ISZERO DUP1 ISZERO PUSH2 0x1878 JUMPI RETURNDATASIZE PUSH1 0x0 DUP1 RETURNDATACOPY RETURNDATASIZE PUSH1 0x0 REVERT JUMPDEST POP POP POP POP PUSH1 0x40 MLOAD RETURNDATASIZE PUSH1 0x1F NOT PUSH1 0x1F DUP3 ADD AND DUP3 ADD DUP1 PUSH1 0x40 MSTORE POP DUP2 ADD SWAP1 PUSH2 0x189C SWAP2 SWAP1 PUSH2 0x2D0D JUMP JUMPDEST SWAP1 POP DUP3 DUP2 GT PUSH2 0x18E0 JUMPI PUSH1 0x40 MLOAD PUSH32 0x8C379A000000000000000000000000000000000000000000000000000000000 DUP2 MSTORE PUSH1 0x4 ADD PUSH2 0x18D7 SWAP1 PUSH2 0x31E3 JUMP JUMPDEST PUSH1 0x40 MLOAD DUP1 SWAP2 SUB SWAP1 REVERT JUMPDEST PUSH1 0x0 PUSH1 0x13 DUP4 PUSH1 0x40 MLOAD PUSH2 0x18F2 SWAP2 SWAP1 PUSH2 0x2FFD JUMP JUMPDEST SWAP1 DUP2 MSTORE PUSH1 0x20 ADD PUSH1 0x40 MLOAD DUP1 SWAP2 SUB SWAP1 KECCAK256 PUSH1 0x1 ADD SLOAD PUSH2 0x198B DUP6 ADDRESS PUSH20 0xFFFFFFFFFFFFFFFFFFFFFFFFFFFFFFFFFFFFFFFF AND PUSH4 0x18A25E8 PUSH1 0x40 MLOAD DUP2 PUSH4 0xFFFFFFFF AND PUSH1 0xE0 SHL DUP2 MSTORE PUSH1 0x4 ADD PUSH1 0x20 PUSH1 0x40 MLOAD DUP1 DUP4 SUB DUP2 DUP7 DUP1 EXTCODESIZE ISZERO DUP1 ISZERO PUSH2 0x194E JUMPI PUSH1 0x0 DUP1 REVERT JUMPDEST POP GAS STATICCALL ISZERO DUP1 ISZERO PUSH2 0x1962 JUMPI RETURNDATASIZE PUSH1 0x0 DUP1 RETURNDATACOPY RETURNDATASIZE PUSH1 0x0 REVERT JUMPDEST POP POP POP POP PUSH1 0x40 MLOAD RETURNDATASIZE PUSH1 0x1F NOT PUSH1 0x1F DUP3 ADD AND DUP3 ADD DUP1 PUSH1 0x40 MSTORE POP DUP2 ADD SWAP1 PUSH2 0x1986 SWAP2 SWAP1 PUSH2 0x2D0D JUMP JUMPDEST PUSH2 0x27A3 JUMP JUMPDEST PUSH2 0x1995 SWAP2 SWAP1 PUSH2 0x33CB JUMP JUMPDEST SWAP1 POP PUSH2 0x19C5 PUSH1 0xF PUSH1 0x0 SWAP1 SLOAD SWAP1 PUSH2 0x100 EXP SWAP1 DIV PUSH20 0xFFFFFFFFFFFFFFFFFFFFFFFFFFFFFFFFFFFFFFFF AND CALLER ADDRESS DUP5 PUSH2 0x2835 JUMP JUMPDEST PUSH1 0xC PUSH1 0x0 SWAP1 SLOAD SWAP1 PUSH2 0x100 EXP SWAP1 DIV PUSH20 0xFFFFFFFFFFFFFFFFFFFFFFFFFFFFFFFFFFFFFFFF AND PUSH20 0xFFFFFFFFFFFFFFFFFFFFFFFFFFFFFFFFFFFFFFFF AND PUSH4 0x40C10F19 CALLER PUSH8 0xDE0B6B3A7640000 DUP8 PUSH2 0x1A18 SWAP2 SWAP1 PUSH2 0x33CB JUMP JUMPDEST PUSH1 0x40 MLOAD DUP4 PUSH4 0xFFFFFFFF AND PUSH1 0xE0 SHL DUP2 MSTORE PUSH1 0x4 ADD PUSH2 0x1A35 SWAP3 SWAP2 SWAP1 PUSH2 0x311F JUMP JUMPDEST PUSH1 0x0 PUSH1 0x40 MLOAD DUP1 DUP4 SUB DUP2 PUSH1 0x0 DUP8 DUP1 EXTCODESIZE ISZERO DUP1 ISZERO PUSH2 0x1A4F JUMPI PUSH1 0x0 DUP1 REVERT JUMPDEST POP GAS CALL ISZERO DUP1 ISZERO PUSH2 0x1A63 JUMPI RETURNDATASIZE PUSH1 0x0 DUP1 RETURNDATACOPY RETURNDATASIZE PUSH1 0x0 REVERT JUMPDEST POP POP POP POP PUSH1 0xD PUSH1 0x0 SWAP1 SLOAD SWAP1 PUSH2 0x100 EXP SWAP1 DIV PUSH20 0xFFFFFFFFFFFFFFFFFFFFFFFFFFFFFFFFFFFFFFFF AND PUSH20 0xFFFFFFFFFFFFFFFFFFFFFFFFFFFFFFFFFFFFFFFF AND PUSH4 0x40C10F19 ADDRESS PUSH8 0xDE0B6B3A7640000 DUP8 PUSH2 0x1ABA SWAP2 SWAP1 PUSH2 0x33CB JUMP JUMPDEST PUSH1 0x40 MLOAD DUP4 PUSH4 0xFFFFFFFF AND PUSH1 0xE0 SHL DUP2 MSTORE PUSH1 0x4 ADD PUSH2 0x1AD7 SWAP3 SWAP2 SWAP1 PUSH2 0x311F JUMP JUMPDEST PUSH1 0x0 PUSH1 0x40 MLOAD DUP1 DUP4 SUB DUP2 PUSH1 0x0 DUP8 DUP1 EXTCODESIZE ISZERO DUP1 ISZERO PUSH2 0x1AF1 JUMPI PUSH1 0x0 DUP1 REVERT JUMPDEST POP GAS CALL ISZERO DUP1 ISZERO PUSH2 0x1B05 JUMPI RETURNDATASIZE PUSH1 0x0 DUP1 RETURNDATACOPY RETURNDATASIZE PUSH1 0x0 REVERT JUMPDEST POP POP POP POP PUSH1 0x0 PUSH3 0x15180 PUSH1 0x9 SLOAD TIMESTAMP PUSH2 0x1B1D SWAP2 SWAP1 PUSH2 0x3425 JUMP JUMPDEST PUSH2 0x1B27 SWAP2 SWAP1 PUSH2 0x339A JUMP JUMPDEST SWAP1 POP DUP5 PUSH1 0x10 PUSH1 0x0 DUP4 DUP2 MSTORE PUSH1 0x20 ADD SWAP1 DUP2 MSTORE PUSH1 0x20 ADD PUSH1 0x0 KECCAK256 PUSH1 0x0 DUP3 DUP3 SLOAD PUSH2 0x1B4C SWAP2 SWAP1 PUSH2 0x3344 JUMP JUMPDEST SWAP3 POP POP DUP2 SWAP1 SSTORE POP DUP5 PUSH1 0x12 PUSH1 0x0 DUP4 DUP2 MSTORE PUSH1 0x20 ADD SWAP1 DUP2 MSTORE PUSH1 0x20 ADD PUSH1 0x0 KECCAK256 PUSH1 0x0 DUP3 DUP3 SLOAD PUSH2 0x1B76 SWAP2 SWAP1 PUSH2 0x3344 JUMP JUMPDEST SWAP3 POP POP DUP2 SWAP1 SSTORE POP CALLER PUSH20 0xFFFFFFFFFFFFFFFFFFFFFFFFFFFFFFFFFFFFFFFF AND PUSH32 0xF633443B01504D269657083D48BB6DE98E089CFFF672B47FEFBED21608B5C779 DUP7 PUSH1 0x40 MLOAD PUSH2 0x1BC3 SWAP2 SWAP1 PUSH2 0x3283 JUMP JUMPDEST PUSH1 0x40 MLOAD DUP1 SWAP2 SUB SWAP1 LOG2 POP POP POP PUSH1 0x1 PUSH1 0x0 DUP2 SWAP1 SSTORE POP POP POP JUMP JUMPDEST PUSH1 0x0 PUSH1 0x1 PUSH1 0x0 SWAP1 SLOAD SWAP1 PUSH2 0x100 EXP SWAP1 DIV PUSH20 0xFFFFFFFFFFFFFFFFFFFFFFFFFFFFFFFFFFFFFFFF AND SWAP1 POP SWAP1 JUMP JUMPDEST PUSH1 0x0 DUP1 PUSH2 0x1C95 ADDRESS PUSH20 0xFFFFFFFFFFFFFFFFFFFFFFFFFFFFFFFFFFFFFFFF AND PUSH4 0x71CD58F9 PUSH1 0x40 MLOAD DUP2 PUSH4 0xFFFFFFFF AND PUSH1 0xE0 SHL DUP2 MSTORE PUSH1 0x4 ADD PUSH1 0x20 PUSH1 0x40 MLOAD DUP1 DUP4 SUB DUP2 DUP7 DUP1 EXTCODESIZE ISZERO DUP1 ISZERO PUSH2 0x1C50 JUMPI PUSH1 0x0 DUP1 REVERT JUMPDEST POP GAS STATICCALL ISZERO DUP1 ISZERO PUSH2 0x1C64 JUMPI RETURNDATASIZE PUSH1 0x0 DUP1 RETURNDATACOPY RETURNDATASIZE PUSH1 0x0 REVERT JUMPDEST POP POP POP POP PUSH1 0x40 MLOAD RETURNDATASIZE PUSH1 0x1F NOT PUSH1 0x1F DUP3 ADD AND DUP3 ADD DUP1 PUSH1 0x40 MSTORE POP DUP2 ADD SWAP1 PUSH2 0x1C88 SWAP2 SWAP1 PUSH2 0x2D0D JUMP JUMPDEST PUSH2 0x1C90 PUSH2 0xDF5 JUMP JUMPDEST PUSH2 0x27F4 JUMP JUMPDEST SWAP1 POP PUSH8 0x429D069189E0000 DUP2 GT ISZERO PUSH2 0x1CB3 JUMPI PUSH8 0x429D069189E0000 SWAP1 POP JUMPDEST DUP1 SWAP2 POP POP SWAP1 JUMP JUMPDEST PUSH2 0x1CC2 PUSH2 0x27EC JUMP JUMPDEST PUSH20 0xFFFFFFFFFFFFFFFFFFFFFFFFFFFFFFFFFFFFFFFF AND PUSH2 0x1CE0 PUSH2 0x1BDA JUMP JUMPDEST PUSH20 0xFFFFFFFFFFFFFFFFFFFFFFFFFFFFFFFFFFFFFFFF AND EQ PUSH2 0x1D36 JUMPI PUSH1 0x40 MLOAD PUSH32 0x8C379A000000000000000000000000000000000000000000000000000000000 DUP2 MSTORE PUSH1 0x4 ADD PUSH2 0x1D2D SWAP1 PUSH2 0x31C3 JUMP JUMPDEST PUSH1 0x40 MLOAD DUP1 SWAP2 SUB SWAP1 REVERT JUMPDEST POP JUMP JUMPDEST PUSH1 0x13 DUP2 DUP1 MLOAD PUSH1 0x20 DUP2 ADD DUP3 ADD DUP1 MLOAD DUP5 DUP3 MSTORE PUSH1 0x20 DUP4 ADD PUSH1 0x20 DUP6 ADD KECCAK256 DUP2 DUP4 MSTORE DUP1 SWAP6 POP POP POP POP POP POP PUSH1 0x0 SWAP2 POP SWAP1 POP DUP1 PUSH1 0x0 ADD PUSH1 0x0 SWAP1 SLOAD SWAP1 PUSH2 0x100 EXP SWAP1 DIV PUSH20 0xFFFFFFFFFFFFFFFFFFFFFFFFFFFFFFFFFFFFFFFF AND SWAP1 DUP1 PUSH1 0x1 ADD SLOAD SWAP1 POP DUP3 JUMP JUMPDEST PUSH2 0x1D9B PUSH2 0x27EC JUMP JUMPDEST PUSH20 0xFFFFFFFFFFFFFFFFFFFFFFFFFFFFFFFFFFFFFFFF AND PUSH2 0x1DB9 PUSH2 0x1BDA JUMP JUMPDEST PUSH20 0xFFFFFFFFFFFFFFFFFFFFFFFFFFFFFFFFFFFFFFFF AND EQ PUSH2 0x1E0F JUMPI PUSH1 0x40 MLOAD PUSH32 0x8C379A000000000000000000000000000000000000000000000000000000000 DUP2 MSTORE PUSH1 0x4 ADD PUSH2 0x1E06 SWAP1 PUSH2 0x31C3 JUMP JUMPDEST PUSH1 0x40 MLOAD DUP1 SWAP2 SUB SWAP1 REVERT JUMPDEST PUSH1 0x13 PUSH1 0x40 MLOAD PUSH2 0x1E1D SWAP1 PUSH2 0x3014 JUMP JUMPDEST SWAP1 DUP2 MSTORE PUSH1 0x20 ADD PUSH1 0x40 MLOAD DUP1 SWAP2 SUB SWAP1 KECCAK256 PUSH1 0x0 ADD PUSH1 0x0 SWAP1 SLOAD SWAP1 PUSH2 0x100 EXP SWAP1 DIV PUSH20 0xFFFFFFFFFFFFFFFFFFFFFFFFFFFFFFFFFFFFFFFF AND PUSH1 0xF PUSH1 0x0 PUSH2 0x100 EXP DUP2 SLOAD DUP2 PUSH20 0xFFFFFFFFFFFFFFFFFFFFFFFFFFFFFFFFFFFFFFFF MUL NOT AND SWAP1 DUP4 PUSH20 0xFFFFFFFFFFFFFFFFFFFFFFFFFFFFFFFFFFFFFFFF AND MUL OR SWAP1 SSTORE POP JUMP JUMPDEST PUSH1 0x14 PUSH1 0x0 DUP4 PUSH20 0xFFFFFFFFFFFFFFFFFFFFFFFFFFFFFFFFFFFFFFFF AND PUSH20 0xFFFFFFFFFFFFFFFFFFFFFFFFFFFFFFFFFFFFFFFF AND DUP2 MSTORE PUSH1 0x20 ADD SWAP1 DUP2 MSTORE PUSH1 0x20 ADD PUSH1 0x0 KECCAK256 PUSH1 0x0 ADD SLOAD TIMESTAMP LT ISZERO PUSH2 0x1F16 JUMPI PUSH1 0x40 MLOAD PUSH32 0x8C379A000000000000000000000000000000000000000000000000000000000 DUP2 MSTORE PUSH1 0x4 ADD PUSH2 0x1F0D SWAP1 PUSH2 0x3223 JUMP JUMPDEST PUSH1 0x40 MLOAD DUP1 SWAP2 SUB SWAP1 REVERT JUMPDEST PUSH1 0x13 DUP2 PUSH1 0x40 MLOAD PUSH2 0x1F26 SWAP2 SWAP1 PUSH2 0x2FFD JUMP JUMPDEST SWAP1 DUP2 MSTORE PUSH1 0x20 ADD PUSH1 0x40 MLOAD DUP1 SWAP2 SUB SWAP1 KECCAK256 PUSH1 0x0 ADD PUSH1 0x0 SWAP1 SLOAD SWAP1 PUSH2 0x100 EXP SWAP1 DIV PUSH20 0xFFFFFFFFFFFFFFFFFFFFFFFFFFFFFFFFFFFFFFFF AND PUSH1 0xF PUSH1 0x0 PUSH2 0x100 EXP DUP2 SLOAD DUP2 PUSH20 0xFFFFFFFFFFFFFFFFFFFFFFFFFFFFFFFFFFFFFFFF MUL NOT AND SWAP1 DUP4 PUSH20 0xFFFFFFFFFFFFFFFFFFFFFFFFFFFFFFFFFFFFFFFF AND MUL OR SWAP1 SSTORE POP PUSH1 0x0 PUSH1 0x14 PUSH1 0x0 DUP5 PUSH20 0xFFFFFFFFFFFFFFFFFFFFFFFFFFFFFFFFFFFFFFFF AND PUSH20 0xFFFFFFFFFFFFFFFFFFFFFFFFFFFFFFFFFFFFFFFF AND DUP2 MSTORE PUSH1 0x20 ADD SWAP1 DUP2 MSTORE PUSH1 0x20 ADD PUSH1 0x0 KECCAK256 PUSH1 0x1 ADD SLOAD SWAP1 POP PUSH2 0x200D PUSH1 0xF PUSH1 0x0 SWAP1 SLOAD SWAP1 PUSH2 0x100 EXP SWAP1 DIV PUSH20 0xFFFFFFFFFFFFFFFFFFFFFFFFFFFFFFFFFFFFFFFF AND ADDRESS CALLER DUP5 PUSH2 0x2835 JUMP JUMPDEST POP POP POP JUMP JUMPDEST PUSH1 0x5 PUSH1 0x0 SWAP1 SLOAD SWAP1 PUSH2 0x100 EXP SWAP1 DIV PUSH20 0xFFFFFFFFFFFFFFFFFFFFFFFFFFFFFFFFFFFFFFFF AND DUP2 JUMP JUMPDEST PUSH1 0xE PUSH1 0x0 SWAP1 SLOAD SWAP1 PUSH2 0x100 EXP SWAP1 DIV PUSH20 0xFFFFFFFFFFFFFFFFFFFFFFFFFFFFFFFFFFFFFFFF AND DUP2 JUMP JUMPDEST PUSH1 0x13 DUP2 PUSH1 0x40 MLOAD PUSH2 0x206E SWAP2 SWAP1 PUSH2 0x2FFD JUMP JUMPDEST SWAP1 DUP2 MSTORE PUSH1 0x20 ADD PUSH1 0x40 MLOAD DUP1 SWAP2 SUB SWAP1 KECCAK256 PUSH1 0x0 ADD PUSH1 0x0 SWAP1 SLOAD SWAP1 PUSH2 0x100 EXP SWAP1 DIV PUSH20 0xFFFFFFFFFFFFFFFFFFFFFFFFFFFFFFFFFFFFFFFF AND PUSH1 0xF PUSH1 0x0 PUSH2 0x100 EXP DUP2 SLOAD DUP2 PUSH20 0xFFFFFFFFFFFFFFFFFFFFFFFFFFFFFFFFFFFFFFFF MUL NOT AND SWAP1 DUP4 PUSH20 0xFFFFFFFFFFFFFFFFFFFFFFFFFFFFFFFFFFFFFFFF AND MUL OR SWAP1 SSTORE POP DUP3 PUSH1 0xC PUSH1 0x0 SWAP1 SLOAD SWAP1 PUSH2 0x100 EXP SWAP1 DIV PUSH20 0xFFFFFFFFFFFFFFFFFFFFFFFFFFFFFFFFFFFFFFFF AND PUSH20 0xFFFFFFFFFFFFFFFFFFFFFFFFFFFFFFFFFFFFFFFF AND PUSH4 0x70A08231 CALLER PUSH1 0x40 MLOAD DUP3 PUSH4 0xFFFFFFFF AND PUSH1 0xE0 SHL DUP2 MSTORE PUSH1 0x4 ADD PUSH2 0x213C SWAP2 SWAP1 PUSH2 0x3029 JUMP JUMPDEST PUSH1 0x20 PUSH1 0x40 MLOAD DUP1 DUP4 SUB DUP2 DUP7 DUP1 EXTCODESIZE ISZERO DUP1 ISZERO PUSH2 0x2154 JUMPI PUSH1 0x0 DUP1 REVERT JUMPDEST POP GAS STATICCALL ISZERO DUP1 ISZERO PUSH2 0x2168 JUMPI RETURNDATASIZE PUSH1 0x0 DUP1 RETURNDATACOPY RETURNDATASIZE PUSH1 0x0 REVERT JUMPDEST POP POP POP POP PUSH1 0x40 MLOAD RETURNDATASIZE PUSH1 0x1F NOT PUSH1 0x1F DUP3 ADD AND DUP3 ADD DUP1 PUSH1 0x40 MSTORE POP DUP2 ADD SWAP1 PUSH2 0x218C SWAP2 SWAP1 PUSH2 0x2D0D JUMP JUMPDEST LT ISZERO PUSH2 0x21CD JUMPI PUSH1 0x40 MLOAD PUSH32 0x8C379A000000000000000000000000000000000000000000000000000000000 DUP2 MSTORE PUSH1 0x4 ADD PUSH2 0x21C4 SWAP1 PUSH2 0x31E3 JUMP JUMPDEST PUSH1 0x40 MLOAD DUP1 SWAP2 SUB SWAP1 REVERT JUMPDEST PUSH1 0x0 DUP4 ADDRESS PUSH20 0xFFFFFFFFFFFFFFFFFFFFFFFFFFFFFFFFFFFFFFFF AND PUSH4 0x43D32E9C PUSH1 0x40 MLOAD DUP2 PUSH4 0xFFFFFFFF AND PUSH1 0xE0 SHL DUP2 MSTORE PUSH1 0x4 ADD PUSH1 0x20 PUSH1 0x40 MLOAD DUP1 DUP4 SUB DUP2 DUP7 DUP1 EXTCODESIZE ISZERO DUP1 ISZERO PUSH2 0x2216 JUMPI PUSH1 0x0 DUP1 REVERT JUMPDEST POP GAS STATICCALL ISZERO DUP1 ISZERO PUSH2 0x222A JUMPI RETURNDATASIZE PUSH1 0x0 DUP1 RETURNDATACOPY RETURNDATASIZE PUSH1 0x0 REVERT JUMPDEST POP POP POP POP PUSH1 0x40 MLOAD RETURNDATASIZE PUSH1 0x1F NOT PUSH1 0x1F DUP3 ADD AND DUP3 ADD DUP1 PUSH1 0x40 MSTORE POP DUP2 ADD SWAP1 PUSH2 0x224E SWAP2 SWAP1 PUSH2 0x2D0D JUMP JUMPDEST PUSH2 0x2258 SWAP2 SWAP1 PUSH2 0x33CB JUMP JUMPDEST SWAP1 POP PUSH1 0xF PUSH1 0x0 SWAP1 SLOAD SWAP1 PUSH2 0x100 EXP SWAP1 DIV PUSH20 0xFFFFFFFFFFFFFFFFFFFFFFFFFFFFFFFFFFFFFFFF AND PUSH20 0xFFFFFFFFFFFFFFFFFFFFFFFFFFFFFFFFFFFFFFFF AND PUSH4 0xA9059CBB CALLER PUSH8 0xDE0B6B3A7640000 DUP8 ADDRESS PUSH20 0xFFFFFFFFFFFFFFFFFFFFFFFFFFFFFFFFFFFFFFFF AND PUSH4 0x43D32E9C PUSH1 0x40 MLOAD DUP2 PUSH4 0xFFFFFFFF AND PUSH1 0xE0 SHL DUP2 MSTORE PUSH1 0x4 ADD PUSH1 0x20 PUSH1 0x40 MLOAD DUP1 DUP4 SUB DUP2 DUP7 DUP1 EXTCODESIZE ISZERO DUP1 ISZERO PUSH2 0x22E9 JUMPI PUSH1 0x0 DUP1 REVERT JUMPDEST POP GAS STATICCALL ISZERO DUP1 ISZERO PUSH2 0x22FD JUMPI RETURNDATASIZE PUSH1 0x0 DUP1 RETURNDATACOPY RETURNDATASIZE PUSH1 0x0 REVERT JUMPDEST POP POP POP POP PUSH1 0x40 MLOAD RETURNDATASIZE PUSH1 0x1F NOT PUSH1 0x1F DUP3 ADD AND DUP3 ADD DUP1 PUSH1 0x40 MSTORE POP DUP2 ADD SWAP1 PUSH2 0x2321 SWAP2 SWAP1 PUSH2 0x2D0D JUMP JUMPDEST PUSH2 0x232B SWAP2 SWAP1 PUSH2 0x33CB JUMP JUMPDEST PUSH2 0x2335 SWAP2 SWAP1 PUSH2 0x33CB JUMP JUMPDEST PUSH1 0x40 MLOAD DUP4 PUSH4 0xFFFFFFFF AND PUSH1 0xE0 SHL DUP2 MSTORE PUSH1 0x4 ADD PUSH2 0x2352 SWAP3 SWAP2 SWAP1 PUSH2 0x311F JUMP JUMPDEST PUSH1 0x20 PUSH1 0x40 MLOAD DUP1 DUP4 SUB DUP2 PUSH1 0x0 DUP8 DUP1 EXTCODESIZE ISZERO DUP1 ISZERO PUSH2 0x236C JUMPI PUSH1 0x0 DUP1 REVERT JUMPDEST POP GAS CALL ISZERO DUP1 ISZERO PUSH2 0x2380 JUMPI RETURNDATASIZE PUSH1 0x0 DUP1 RETURNDATACOPY RETURNDATASIZE PUSH1 0x0 REVERT JUMPDEST POP POP POP POP PUSH1 0x40 MLOAD RETURNDATASIZE PUSH1 0x1F NOT PUSH1 0x1F DUP3 ADD AND DUP3 ADD DUP1 PUSH1 0x40 MSTORE POP DUP2 ADD SWAP1 PUSH2 0x23A4 SWAP2 SWAP1 PUSH2 0x2BFB JUMP JUMPDEST POP PUSH2 0x23E6 PUSH1 0xC PUSH1 0x0 SWAP1 SLOAD SWAP1 PUSH2 0x100 EXP SWAP1 DIV PUSH20 0xFFFFFFFFFFFFFFFFFFFFFFFFFFFFFFFFFFFFFFFF AND CALLER ADDRESS PUSH8 0xDE0B6B3A7640000 DUP9 PUSH2 0x23E1 SWAP2 SWAP1 PUSH2 0x33CB JUMP JUMPDEST PUSH2 0x2835 JUMP JUMPDEST PUSH1 0x0 PUSH3 0x15180 PUSH1 0x9 SLOAD TIMESTAMP PUSH2 0x23FA SWAP2 SWAP1 PUSH2 0x3425 JUMP JUMPDEST PUSH2 0x2404 SWAP2 SWAP1 PUSH2 0x339A JUMP JUMPDEST SWAP1 POP DUP5 PUSH1 0x11 PUSH1 0x0 DUP4 DUP2 MSTORE PUSH1 0x20 ADD SWAP1 DUP2 MSTORE PUSH1 0x20 ADD PUSH1 0x0 KECCAK256 PUSH1 0x0 DUP3 DUP3 SLOAD PUSH2 0x2429 SWAP2 SWAP1 PUSH2 0x3344 JUMP JUMPDEST SWAP3 POP POP DUP2 SWAP1 SSTORE POP DUP5 PUSH1 0x12 PUSH1 0x0 DUP4 DUP2 MSTORE PUSH1 0x20 ADD SWAP1 DUP2 MSTORE PUSH1 0x20 ADD PUSH1 0x0 KECCAK256 PUSH1 0x0 DUP3 DUP3 SLOAD PUSH2 0x2453 SWAP2 SWAP1 PUSH2 0x3425 JUMP JUMPDEST SWAP3 POP POP DUP2 SWAP1 SSTORE POP POP POP POP POP POP JUMP JUMPDEST PUSH1 0xD PUSH1 0x0 SWAP1 SLOAD SWAP1 PUSH2 0x100 EXP SWAP1 DIV PUSH20 0xFFFFFFFFFFFFFFFFFFFFFFFFFFFFFFFFFFFFFFFF AND DUP2 JUMP JUMPDEST PUSH1 0x0 DUP1 PUSH1 0x0 DUP1 PUSH3 0x15180 PUSH1 0xA SLOAD PUSH2 0x249E SWAP2 SWAP1 PUSH2 0x339A JUMP JUMPDEST SWAP1 POP PUSH1 0x0 SWAP2 POP JUMPDEST DUP1 DUP3 LT ISZERO PUSH2 0x24E1 JUMPI PUSH1 0x11 PUSH1 0x0 DUP4 DUP2 MSTORE PUSH1 0x20 ADD SWAP1 DUP2 MSTORE PUSH1 0x20 ADD PUSH1 0x0 KECCAK256 SLOAD DUP4 PUSH2 0x24CC SWAP2 SWAP1 PUSH2 0x3344 JUMP JUMPDEST SWAP3 POP DUP2 DUP1 PUSH2 0x24D9 SWAP1 PUSH2 0x3592 JUMP JUMPDEST SWAP3 POP POP PUSH2 0x24A5 JUMP JUMPDEST DUP3 SWAP4 POP POP POP POP SWAP1 JUMP JUMPDEST PUSH2 0x24F2 PUSH2 0x27EC JUMP JUMPDEST PUSH20 0xFFFFFFFFFFFFFFFFFFFFFFFFFFFFFFFFFFFFFFFF AND PUSH2 0x2510 PUSH2 0x1BDA JUMP JUMPDEST PUSH20 0xFFFFFFFFFFFFFFFFFFFFFFFFFFFFFFFFFFFFFFFF AND EQ PUSH2 0x2566 JUMPI PUSH1 0x40 MLOAD PUSH32 0x8C379A000000000000000000000000000000000000000000000000000000000 DUP2 MSTORE PUSH1 0x4 ADD PUSH2 0x255D SWAP1 PUSH2 0x31C3 JUMP JUMPDEST PUSH1 0x40 MLOAD DUP1 SWAP2 SUB SWAP1 REVERT JUMPDEST DUP2 PUSH1 0x13 DUP5 PUSH1 0x40 MLOAD PUSH2 0x2577 SWAP2 SWAP1 PUSH2 0x2FFD JUMP JUMPDEST SWAP1 DUP2 MSTORE PUSH1 0x20 ADD PUSH1 0x40 MLOAD DUP1 SWAP2 SUB SWAP1 KECCAK256 PUSH1 0x0 ADD PUSH1 0x0 PUSH2 0x100 EXP DUP2 SLOAD DUP2 PUSH20 0xFFFFFFFFFFFFFFFFFFFFFFFFFFFFFFFFFFFFFFFF MUL NOT AND SWAP1 DUP4 PUSH20 0xFFFFFFFFFFFFFFFFFFFFFFFFFFFFFFFFFFFFFFFF AND MUL OR SWAP1 SSTORE POP DUP1 PUSH1 0x13 DUP5 PUSH1 0x40 MLOAD PUSH2 0x25D7 SWAP2 SWAP1 PUSH2 0x2FFD JUMP JUMPDEST SWAP1 DUP2 MSTORE PUSH1 0x20 ADD PUSH1 0x40 MLOAD DUP1 SWAP2 SUB SWAP1 KECCAK256 PUSH1 0x1 ADD DUP2 SWAP1 SSTORE POP POP POP POP JUMP JUMPDEST PUSH1 0xB PUSH1 0x0 SWAP1 SLOAD SWAP1 PUSH2 0x100 EXP SWAP1 DIV PUSH20 0xFFFFFFFFFFFFFFFFFFFFFFFFFFFFFFFFFFFFFFFF AND DUP2 JUMP JUMPDEST PUSH2 0x261F PUSH2 0x27EC JUMP JUMPDEST PUSH20 0xFFFFFFFFFFFFFFFFFFFFFFFFFFFFFFFFFFFFFFFF AND PUSH2 0x263D PUSH2 0x1BDA JUMP JUMPDEST PUSH20 0xFFFFFFFFFFFFFFFFFFFFFFFFFFFFFFFFFFFFFFFF AND EQ PUSH2 0x2693 JUMPI PUSH1 0x40 MLOAD PUSH32 0x8C379A000000000000000000000000000000000000000000000000000000000 DUP2 MSTORE PUSH1 0x4 ADD PUSH2 0x268A SWAP1 PUSH2 0x31C3 JUMP JUMPDEST PUSH1 0x40 MLOAD DUP1 SWAP2 SUB SWAP1 REVERT JUMPDEST PUSH1 0x0 PUSH20 0xFFFFFFFFFFFFFFFFFFFFFFFFFFFFFFFFFFFFFFFF AND DUP2 PUSH20 0xFFFFFFFFFFFFFFFFFFFFFFFFFFFFFFFFFFFFFFFF AND EQ ISZERO PUSH2 0x2703 JUMPI PUSH1 0x40 MLOAD PUSH32 0x8C379A000000000000000000000000000000000000000000000000000000000 DUP2 MSTORE PUSH1 0x4 ADD PUSH2 0x26FA SWAP1 PUSH2 0x3183 JUMP JUMPDEST PUSH1 0x40 MLOAD DUP1 SWAP2 SUB SWAP1 REVERT JUMPDEST PUSH2 0x270C DUP2 PUSH2 0x290F JUMP JUMPDEST POP JUMP JUMPDEST PUSH2 0x2717 PUSH2 0x27EC JUMP JUMPDEST PUSH20 0xFFFFFFFFFFFFFFFFFFFFFFFFFFFFFFFFFFFFFFFF AND PUSH2 0x2735 PUSH2 0x1BDA JUMP JUMPDEST PUSH20 0xFFFFFFFFFFFFFFFFFFFFFFFFFFFFFFFFFFFFFFFF AND EQ PUSH2 0x278B JUMPI PUSH1 0x40 MLOAD PUSH32 0x8C379A000000000000000000000000000000000000000000000000000000000 DUP2 MSTORE PUSH1 0x4 ADD PUSH2 0x2782 SWAP1 PUSH2 0x31C3 JUMP JUMPDEST PUSH1 0x40 MLOAD DUP1 SWAP2 SUB SWAP1 REVERT JUMPDEST PUSH3 0x15180 DUP2 PUSH2 0x279A SWAP2 SWAP1 PUSH2 0x33CB JUMP JUMPDEST PUSH1 0xA DUP2 SWAP1 SSTORE POP POP JUMP JUMPDEST PUSH1 0x0 DUP1 PUSH2 0x27B0 DUP5 DUP5 PUSH2 0x29D5 JUMP JUMPDEST SWAP1 POP PUSH8 0xDE0B6B3A7640000 PUSH2 0x27D9 DUP3 PUSH1 0x2 PUSH8 0xDE0B6B3A7640000 PUSH2 0x27D4 SWAP2 SWAP1 PUSH2 0x339A JUMP JUMPDEST PUSH2 0x2A50 JUMP JUMPDEST PUSH2 0x27E3 SWAP2 SWAP1 PUSH2 0x339A JUMP JUMPDEST SWAP2 POP POP SWAP3 SWAP2 POP POP JUMP JUMPDEST PUSH1 0x0 CALLER SWAP1 POP SWAP1 JUMP JUMPDEST PUSH1 0x0 DUP1 PUSH2 0x2809 DUP5 PUSH8 0xDE0B6B3A7640000 PUSH2 0x29D5 JUMP JUMPDEST SWAP1 POP DUP3 PUSH2 0x2822 DUP3 PUSH1 0x2 DUP7 PUSH2 0x281D SWAP2 SWAP1 PUSH2 0x339A JUMP JUMPDEST PUSH2 0x2A50 JUMP JUMPDEST PUSH2 0x282C SWAP2 SWAP1 PUSH2 0x339A JUMP JUMPDEST SWAP2 POP POP SWAP3 SWAP2 POP POP JUMP JUMPDEST PUSH1 0x0 DUP5 PUSH20 0xFFFFFFFFFFFFFFFFFFFFFFFFFFFFFFFFFFFFFFFF AND PUSH4 0x23B872DD DUP6 DUP6 DUP6 PUSH1 0x40 MLOAD DUP5 PUSH4 0xFFFFFFFF AND PUSH1 0xE0 SHL DUP2 MSTORE PUSH1 0x4 ADD PUSH2 0x2874 SWAP4 SWAP3 SWAP2 SWAP1 PUSH2 0x3044 JUMP JUMPDEST PUSH1 0x20 PUSH1 0x40 MLOAD DUP1 DUP4 SUB DUP2 PUSH1 0x0 DUP8 DUP1 EXTCODESIZE ISZERO DUP1 ISZERO PUSH2 0x288E JUMPI PUSH1 0x0 DUP1 REVERT JUMPDEST POP GAS CALL ISZERO DUP1 ISZERO PUSH2 0x28A2 JUMPI RETURNDATASIZE PUSH1 0x0 DUP1 RETURNDATACOPY RETURNDATASIZE PUSH1 0x0 REVERT JUMPDEST POP POP POP POP PUSH1 0x40 MLOAD RETURNDATASIZE PUSH1 0x1F NOT PUSH1 0x1F DUP3 ADD AND DUP3 ADD DUP1 PUSH1 0x40 MSTORE POP DUP2 ADD SWAP1 PUSH2 0x28C6 SWAP2 SWAP1 PUSH2 0x2BFB JUMP JUMPDEST SWAP1 POP DUP1 PUSH2 0x2908 JUMPI PUSH1 0x40 MLOAD PUSH32 0x8C379A000000000000000000000000000000000000000000000000000000000 DUP2 MSTORE PUSH1 0x4 ADD PUSH2 0x28FF SWAP1 PUSH2 0x31A3 JUMP JUMPDEST PUSH1 0x40 MLOAD DUP1 SWAP2 SUB SWAP1 REVERT JUMPDEST POP POP POP POP POP JUMP JUMPDEST PUSH1 0x0 PUSH1 0x1 PUSH1 0x0 SWAP1 SLOAD SWAP1 PUSH2 0x100 EXP SWAP1 DIV PUSH20 0xFFFFFFFFFFFFFFFFFFFFFFFFFFFFFFFFFFFFFFFF AND SWAP1 POP DUP2 PUSH1 0x1 PUSH1 0x0 PUSH2 0x100 EXP DUP2 SLOAD DUP2 PUSH20 0xFFFFFFFFFFFFFFFFFFFFFFFFFFFFFFFFFFFFFFFF MUL NOT AND SWAP1 DUP4 PUSH20 0xFFFFFFFFFFFFFFFFFFFFFFFFFFFFFFFFFFFFFFFF AND MUL OR SWAP1 SSTORE POP DUP2 PUSH20 0xFFFFFFFFFFFFFFFFFFFFFFFFFFFFFFFFFFFFFFFF AND DUP2 PUSH20 0xFFFFFFFFFFFFFFFFFFFFFFFFFFFFFFFFFFFFFFFF AND PUSH32 0x8BE0079C531659141344CD1FD0A4F28419497F9722A3DAAFE3B4186F6B6457E0 PUSH1 0x40 MLOAD PUSH1 0x40 MLOAD DUP1 SWAP2 SUB SWAP1 LOG3 POP POP JUMP JUMPDEST PUSH1 0x0 DUP1 DUP4 EQ ISZERO PUSH2 0x29E8 JUMPI PUSH1 0x0 SWAP1 POP PUSH2 0x2A4A JUMP JUMPDEST PUSH1 0x0 DUP3 DUP5 PUSH2 0x29F6 SWAP2 SWAP1 PUSH2 0x33CB JUMP JUMPDEST SWAP1 POP DUP3 DUP5 DUP3 PUSH2 0x2A05 SWAP2 SWAP1 PUSH2 0x339A JUMP JUMPDEST EQ PUSH2 0x2A45 JUMPI PUSH1 0x40 MLOAD PUSH32 0x8C379A000000000000000000000000000000000000000000000000000000000 DUP2 MSTORE PUSH1 0x4 ADD PUSH2 0x2A3C SWAP1 PUSH2 0x3263 JUMP JUMPDEST PUSH1 0x40 MLOAD DUP1 SWAP2 SUB SWAP1 REVERT JUMPDEST DUP1 SWAP2 POP POP JUMPDEST SWAP3 SWAP2 POP POP JUMP JUMPDEST PUSH1 0x0 DUP1 DUP3 DUP5 PUSH2 0x2A5F SWAP2 SWAP1 PUSH2 0x3344 JUMP JUMPDEST SWAP1 POP DUP4 DUP2 LT ISZERO PUSH2 0x2AA4 JUMPI PUSH1 0x40 MLOAD PUSH32 0x8C379A000000000000000000000000000000000000000000000000000000000 DUP2 MSTORE PUSH1 0x4 ADD PUSH2 0x2A9B SWAP1 PUSH2 0x3263 JUMP JUMPDEST PUSH1 0x40 MLOAD DUP1 SWAP2 SUB SWAP1 REVERT JUMPDEST DUP1 SWAP2 POP POP SWAP3 SWAP2 POP POP JUMP JUMPDEST PUSH1 0x0 PUSH2 0x2AC1 PUSH2 0x2ABC DUP5 PUSH2 0x32EC JUMP JUMPDEST PUSH2 0x32C7 JUMP JUMPDEST SWAP1 POP DUP3 DUP2 MSTORE PUSH1 0x20 DUP2 ADD DUP5 DUP5 DUP5 ADD GT ISZERO PUSH2 0x2ADD JUMPI PUSH2 0x2ADC PUSH2 0x366D JUMP JUMPDEST JUMPDEST PUSH2 0x2AE8 DUP5 DUP3 DUP6 PUSH2 0x351F JUMP JUMPDEST POP SWAP4 SWAP3 POP POP POP JUMP JUMPDEST PUSH1 0x0 DUP2 CALLDATALOAD SWAP1 POP PUSH2 0x2AFF DUP2 PUSH2 0x3899 JUMP JUMPDEST SWAP3 SWAP2 POP POP JUMP JUMPDEST PUSH1 0x0 DUP2 MLOAD SWAP1 POP PUSH2 0x2B14 DUP2 PUSH2 0x38B0 JUMP JUMPDEST SWAP3 SWAP2 POP POP JUMP JUMPDEST PUSH1 0x0 DUP3 PUSH1 0x1F DUP4 ADD SLT PUSH2 0x2B2F JUMPI PUSH2 0x2B2E PUSH2 0x3668 JUMP JUMPDEST JUMPDEST DUP2 CALLDATALOAD PUSH2 0x2B3F DUP5 DUP3 PUSH1 0x20 DUP7 ADD PUSH2 0x2AAE JUMP JUMPDEST SWAP2 POP POP SWAP3 SWAP2 POP POP JUMP JUMPDEST PUSH1 0x0 DUP2 CALLDATALOAD SWAP1 POP PUSH2 0x2B57 DUP2 PUSH2 0x38C7 JUMP JUMPDEST SWAP3 SWAP2 POP POP JUMP JUMPDEST PUSH1 0x0 DUP2 MLOAD SWAP1 POP PUSH2 0x2B6C DUP2 PUSH2 0x38C7 JUMP JUMPDEST SWAP3 SWAP2 POP POP JUMP JUMPDEST PUSH1 0x0 PUSH1 0x20 DUP3 DUP5 SUB SLT ISZERO PUSH2 0x2B88 JUMPI PUSH2 0x2B87 PUSH2 0x3677 JUMP JUMPDEST JUMPDEST PUSH1 0x0 PUSH2 0x2B96 DUP5 DUP3 DUP6 ADD PUSH2 0x2AF0 JUMP JUMPDEST SWAP2 POP POP SWAP3 SWAP2 POP POP JUMP JUMPDEST PUSH1 0x0 DUP1 PUSH1 0x40 DUP4 DUP6 SUB SLT ISZERO PUSH2 0x2BB6 JUMPI PUSH2 0x2BB5 PUSH2 0x3677 JUMP JUMPDEST JUMPDEST PUSH1 0x0 PUSH2 0x2BC4 DUP6 DUP3 DUP7 ADD PUSH2 0x2AF0 JUMP JUMPDEST SWAP3 POP POP PUSH1 0x20 DUP4 ADD CALLDATALOAD PUSH8 0xFFFFFFFFFFFFFFFF DUP2 GT ISZERO PUSH2 0x2BE5 JUMPI PUSH2 0x2BE4 PUSH2 0x3672 JUMP JUMPDEST JUMPDEST PUSH2 0x2BF1 DUP6 DUP3 DUP7 ADD PUSH2 0x2B1A JUMP JUMPDEST SWAP2 POP POP SWAP3 POP SWAP3 SWAP1 POP JUMP JUMPDEST PUSH1 0x0 PUSH1 0x20 DUP3 DUP5 SUB SLT ISZERO PUSH2 0x2C11 JUMPI PUSH2 0x2C10 PUSH2 0x3677 JUMP JUMPDEST JUMPDEST PUSH1 0x0 PUSH2 0x2C1F DUP5 DUP3 DUP6 ADD PUSH2 0x2B05 JUMP JUMPDEST SWAP2 POP POP SWAP3 SWAP2 POP POP JUMP JUMPDEST PUSH1 0x0 PUSH1 0x20 DUP3 DUP5 SUB SLT ISZERO PUSH2 0x2C3E JUMPI PUSH2 0x2C3D PUSH2 0x3677 JUMP JUMPDEST JUMPDEST PUSH1 0x0 DUP3 ADD CALLDATALOAD PUSH8 0xFFFFFFFFFFFFFFFF DUP2 GT ISZERO PUSH2 0x2C5C JUMPI PUSH2 0x2C5B PUSH2 0x3672 JUMP JUMPDEST JUMPDEST PUSH2 0x2C68 DUP5 DUP3 DUP6 ADD PUSH2 0x2B1A JUMP JUMPDEST SWAP2 POP POP SWAP3 SWAP2 POP POP JUMP JUMPDEST PUSH1 0x0 DUP1 PUSH1 0x0 PUSH1 0x60 DUP5 DUP7 SUB SLT ISZERO PUSH2 0x2C8A JUMPI PUSH2 0x2C89 PUSH2 0x3677 JUMP JUMPDEST JUMPDEST PUSH1 0x0 DUP5 ADD CALLDATALOAD PUSH8 0xFFFFFFFFFFFFFFFF DUP2 GT ISZERO PUSH2 0x2CA8 JUMPI PUSH2 0x2CA7 PUSH2 0x3672 JUMP JUMPDEST JUMPDEST PUSH2 0x2CB4 DUP7 DUP3 DUP8 ADD PUSH2 0x2B1A JUMP JUMPDEST SWAP4 POP POP PUSH1 0x20 PUSH2 0x2CC5 DUP7 DUP3 DUP8 ADD PUSH2 0x2AF0 JUMP JUMPDEST SWAP3 POP POP PUSH1 0x40 PUSH2 0x2CD6 DUP7 DUP3 DUP8 ADD PUSH2 0x2B48 JUMP JUMPDEST SWAP2 POP POP SWAP3 POP SWAP3 POP SWAP3 JUMP JUMPDEST PUSH1 0x0 PUSH1 0x20 DUP3 DUP5 SUB SLT ISZERO PUSH2 0x2CF6 JUMPI PUSH2 0x2CF5 PUSH2 0x3677 JUMP JUMPDEST JUMPDEST PUSH1 0x0 PUSH2 0x2D04 DUP5 DUP3 DUP6 ADD PUSH2 0x2B48 JUMP JUMPDEST SWAP2 POP POP SWAP3 SWAP2 POP POP JUMP JUMPDEST PUSH1 0x0 PUSH1 0x20 DUP3 DUP5 SUB SLT ISZERO PUSH2 0x2D23 JUMPI PUSH2 0x2D22 PUSH2 0x3677 JUMP JUMPDEST JUMPDEST PUSH1 0x0 PUSH2 0x2D31 DUP5 DUP3 DUP6 ADD PUSH2 0x2B5D JUMP JUMPDEST SWAP2 POP POP SWAP3 SWAP2 POP POP JUMP JUMPDEST PUSH1 0x0 DUP1 PUSH1 0x40 DUP4 DUP6 SUB SLT ISZERO PUSH2 0x2D51 JUMPI PUSH2 0x2D50 PUSH2 0x3677 JUMP JUMPDEST JUMPDEST PUSH1 0x0 PUSH2 0x2D5F DUP6 DUP3 DUP7 ADD PUSH2 0x2B48 JUMP JUMPDEST SWAP3 POP POP PUSH1 0x20 DUP4 ADD CALLDATALOAD PUSH8 0xFFFFFFFFFFFFFFFF DUP2 GT ISZERO PUSH2 0x2D80 JUMPI PUSH2 0x2D7F PUSH2 0x3672 JUMP JUMPDEST JUMPDEST PUSH2 0x2D8C DUP6 DUP3 DUP7 ADD PUSH2 0x2B1A JUMP JUMPDEST SWAP2 POP POP SWAP3 POP SWAP3 SWAP1 POP JUMP JUMPDEST PUSH1 0x0 DUP1 PUSH1 0x0 PUSH1 0x60 DUP5 DUP7 SUB SLT ISZERO PUSH2 0x2DAF JUMPI PUSH2 0x2DAE PUSH2 0x3677 JUMP JUMPDEST JUMPDEST PUSH1 0x0 PUSH2 0x2DBD DUP7 DUP3 DUP8 ADD PUSH2 0x2B48 JUMP JUMPDEST SWAP4 POP POP PUSH1 0x20 PUSH2 0x2DCE DUP7 DUP3 DUP8 ADD PUSH2 0x2B48 JUMP JUMPDEST SWAP3 POP POP PUSH1 0x40 DUP5 ADD CALLDATALOAD PUSH8 0xFFFFFFFFFFFFFFFF DUP2 GT ISZERO PUSH2 0x2DEF JUMPI PUSH2 0x2DEE PUSH2 0x3672 JUMP JUMPDEST JUMPDEST PUSH2 0x2DFB DUP7 DUP3 DUP8 ADD PUSH2 0x2B1A JUMP JUMPDEST SWAP2 POP POP SWAP3 POP SWAP3 POP SWAP3 JUMP JUMPDEST PUSH2 0x2E0E DUP2 PUSH2 0x3459 JUMP JUMPDEST DUP3 MSTORE POP POP JUMP JUMPDEST PUSH2 0x2E1D DUP2 PUSH2 0x34A1 JUMP JUMPDEST DUP3 MSTORE POP POP JUMP JUMPDEST PUSH2 0x2E2C DUP2 PUSH2 0x34B3 JUMP JUMPDEST DUP3 MSTORE POP POP JUMP JUMPDEST PUSH2 0x2E3B DUP2 PUSH2 0x34C5 JUMP JUMPDEST DUP3 MSTORE POP POP JUMP JUMPDEST PUSH2 0x2E4A DUP2 PUSH2 0x34D7 JUMP JUMPDEST DUP3 MSTORE POP POP JUMP JUMPDEST PUSH2 0x2E59 DUP2 PUSH2 0x34E9 JUMP JUMPDEST DUP3 MSTORE POP POP JUMP JUMPDEST PUSH1 0x0 PUSH2 0x2E6A DUP3 PUSH2 0x331D JUMP JUMPDEST PUSH2 0x2E74 DUP2 DUP6 PUSH2 0x3339 JUMP JUMPDEST SWAP4 POP PUSH2 0x2E84 DUP2 DUP6 PUSH1 0x20 DUP7 ADD PUSH2 0x352E JUMP JUMPDEST DUP1 DUP5 ADD SWAP2 POP POP SWAP3 SWAP2 POP POP JUMP JUMPDEST PUSH1 0x0 PUSH2 0x2E9D PUSH1 0x24 DUP4 PUSH2 0x3328 JUMP JUMPDEST SWAP2 POP PUSH2 0x2EA8 DUP3 PUSH2 0x368D JUMP JUMPDEST PUSH1 0x40 DUP3 ADD SWAP1 POP SWAP2 SWAP1 POP JUMP JUMPDEST PUSH1 0x0 PUSH2 0x2EC0 PUSH1 0x26 DUP4 PUSH2 0x3328 JUMP JUMPDEST SWAP2 POP PUSH2 0x2ECB DUP3 PUSH2 0x36DC JUMP JUMPDEST PUSH1 0x40 DUP3 ADD SWAP1 POP SWAP2 SWAP1 POP JUMP JUMPDEST PUSH1 0x0 PUSH2 0x2EE3 PUSH1 0x15 DUP4 PUSH2 0x3328 JUMP JUMPDEST SWAP2 POP PUSH2 0x2EEE DUP3 PUSH2 0x372B JUMP JUMPDEST PUSH1 0x20 DUP3 ADD SWAP1 POP SWAP2 SWAP1 POP JUMP JUMPDEST PUSH1 0x0 PUSH2 0x2F06 PUSH1 0x20 DUP4 PUSH2 0x3328 JUMP JUMPDEST SWAP2 POP PUSH2 0x2F11 DUP3 PUSH2 0x3754 JUMP JUMPDEST PUSH1 0x20 DUP3 ADD SWAP1 POP SWAP2 SWAP1 POP JUMP JUMPDEST PUSH1 0x0 PUSH2 0x2F29 PUSH1 0x1A DUP4 PUSH2 0x3328 JUMP JUMPDEST SWAP2 POP PUSH2 0x2F34 DUP3 PUSH2 0x377D JUMP JUMPDEST PUSH1 0x20 DUP3 ADD SWAP1 POP SWAP2 SWAP1 POP JUMP JUMPDEST PUSH1 0x0 PUSH2 0x2F4C PUSH1 0x15 DUP4 PUSH2 0x3328 JUMP JUMPDEST SWAP2 POP PUSH2 0x2F57 DUP3 PUSH2 0x37A6 JUMP JUMPDEST PUSH1 0x20 DUP3 ADD SWAP1 POP SWAP2 SWAP1 POP JUMP JUMPDEST PUSH1 0x0 PUSH2 0x2F6F PUSH1 0x4 DUP4 PUSH2 0x3339 JUMP JUMPDEST SWAP2 POP PUSH2 0x2F7A DUP3 PUSH2 0x37CF JUMP JUMPDEST PUSH1 0x4 DUP3 ADD SWAP1 POP SWAP2 SWAP1 POP JUMP JUMPDEST PUSH1 0x0 PUSH2 0x2F92 PUSH1 0xC DUP4 PUSH2 0x3328 JUMP JUMPDEST SWAP2 POP PUSH2 0x2F9D DUP3 PUSH2 0x37F8 JUMP JUMPDEST PUSH1 0x20 DUP3 ADD SWAP1 POP SWAP2 SWAP1 POP JUMP JUMPDEST PUSH1 0x0 PUSH2 0x2FB5 PUSH1 0x1F DUP4 PUSH2 0x3328 JUMP JUMPDEST SWAP2 POP PUSH2 0x2FC0 DUP3 PUSH2 0x3821 JUMP JUMPDEST PUSH1 0x20 DUP3 ADD SWAP1 POP SWAP2 SWAP1 POP JUMP JUMPDEST PUSH1 0x0 PUSH2 0x2FD8 PUSH1 0x21 DUP4 PUSH2 0x3328 JUMP JUMPDEST SWAP2 POP PUSH2 0x2FE3 DUP3 PUSH2 0x384A JUMP JUMPDEST PUSH1 0x40 DUP3 ADD SWAP1 POP SWAP2 SWAP1 POP JUMP JUMPDEST PUSH2 0x2FF7 DUP2 PUSH2 0x3497 JUMP JUMPDEST DUP3 MSTORE POP POP JUMP JUMPDEST PUSH1 0x0 PUSH2 0x3009 DUP3 DUP5 PUSH2 0x2E5F JUMP JUMPDEST SWAP2 POP DUP2 SWAP1 POP SWAP3 SWAP2 POP POP JUMP JUMPDEST PUSH1 0x0 PUSH2 0x301F DUP3 PUSH2 0x2F62 JUMP JUMPDEST SWAP2 POP DUP2 SWAP1 POP SWAP2 SWAP1 POP JUMP JUMPDEST PUSH1 0x0 PUSH1 0x20 DUP3 ADD SWAP1 POP PUSH2 0x303E PUSH1 0x0 DUP4 ADD DUP5 PUSH2 0x2E05 JUMP JUMPDEST SWAP3 SWAP2 POP POP JUMP JUMPDEST PUSH1 0x0 PUSH1 0x60 DUP3 ADD SWAP1 POP PUSH2 0x3059 PUSH1 0x0 DUP4 ADD DUP7 PUSH2 0x2E05 JUMP JUMPDEST PUSH2 0x3066 PUSH1 0x20 DUP4 ADD DUP6 PUSH2 0x2E05 JUMP JUMPDEST PUSH2 0x3073 PUSH1 0x40 DUP4 ADD DUP5 PUSH2 0x2FEE JUMP JUMPDEST SWAP5 SWAP4 POP POP POP POP JUMP JUMPDEST PUSH1 0x0 PUSH1 0x40 DUP3 ADD SWAP1 POP PUSH2 0x3090 PUSH1 0x0 DUP4 ADD DUP6 PUSH2 0x2E05 JUMP JUMPDEST PUSH2 0x309D PUSH1 0x20 DUP4 ADD DUP5 PUSH2 0x2E23 JUMP JUMPDEST SWAP4 SWAP3 POP POP POP JUMP JUMPDEST PUSH1 0x0 PUSH1 0x40 DUP3 ADD SWAP1 POP PUSH2 0x30B9 PUSH1 0x0 DUP4 ADD DUP6 PUSH2 0x2E05 JUMP JUMPDEST PUSH2 0x30C6 PUSH1 0x20 DUP4 ADD DUP5 PUSH2 0x2E32 JUMP JUMPDEST SWAP4 SWAP3 POP POP POP JUMP JUMPDEST PUSH1 0x0 PUSH1 0x40 DUP3 ADD SWAP1 POP PUSH2 0x30E2 PUSH1 0x0 DUP4 ADD DUP6 PUSH2 0x2E05 JUMP JUMPDEST PUSH2 0x30EF PUSH1 0x20 DUP4 ADD DUP5 PUSH2 0x2E41 JUMP JUMPDEST SWAP4 SWAP3 POP POP POP JUMP JUMPDEST PUSH1 0x0 PUSH1 0x40 DUP3 ADD SWAP1 POP PUSH2 0x310B PUSH1 0x0 DUP4 ADD DUP6 PUSH2 0x2E05 JUMP JUMPDEST PUSH2 0x3118 PUSH1 0x20 DUP4 ADD DUP5 PUSH2 0x2E50 JUMP JUMPDEST SWAP4 SWAP3 POP POP POP JUMP JUMPDEST PUSH1 0x0 PUSH1 0x40 DUP3 ADD SWAP1 POP PUSH2 0x3134 PUSH1 0x0 DUP4 ADD DUP6 PUSH2 0x2E05 JUMP JUMPDEST PUSH2 0x3141 PUSH1 0x20 DUP4 ADD DUP5 PUSH2 0x2FEE JUMP JUMPDEST SWAP4 SWAP3 POP POP POP JUMP JUMPDEST PUSH1 0x0 PUSH1 0x20 DUP3 ADD SWAP1 POP PUSH2 0x315D PUSH1 0x0 DUP4 ADD DUP5 PUSH2 0x2E14 JUMP JUMPDEST SWAP3 SWAP2 POP POP JUMP JUMPDEST PUSH1 0x0 PUSH1 0x20 DUP3 ADD SWAP1 POP DUP2 DUP2 SUB PUSH1 0x0 DUP4 ADD MSTORE PUSH2 0x317C DUP2 PUSH2 0x2E90 JUMP JUMPDEST SWAP1 POP SWAP2 SWAP1 POP JUMP JUMPDEST PUSH1 0x0 PUSH1 0x20 DUP3 ADD SWAP1 POP DUP2 DUP2 SUB PUSH1 0x0 DUP4 ADD MSTORE PUSH2 0x319C DUP2 PUSH2 0x2EB3 JUMP JUMPDEST SWAP1 POP SWAP2 SWAP1 POP JUMP JUMPDEST PUSH1 0x0 PUSH1 0x20 DUP3 ADD SWAP1 POP DUP2 DUP2 SUB PUSH1 0x0 DUP4 ADD MSTORE PUSH2 0x31BC DUP2 PUSH2 0x2ED6 JUMP JUMPDEST SWAP1 POP SWAP2 SWAP1 POP JUMP JUMPDEST PUSH1 0x0 PUSH1 0x20 DUP3 ADD SWAP1 POP DUP2 DUP2 SUB PUSH1 0x0 DUP4 ADD MSTORE PUSH2 0x31DC DUP2 PUSH2 0x2EF9 JUMP JUMPDEST SWAP1 POP SWAP2 SWAP1 POP JUMP JUMPDEST PUSH1 0x0 PUSH1 0x20 DUP3 ADD SWAP1 POP DUP2 DUP2 SUB PUSH1 0x0 DUP4 ADD MSTORE PUSH2 0x31FC DUP2 PUSH2 0x2F1C JUMP JUMPDEST SWAP1 POP SWAP2 SWAP1 POP JUMP JUMPDEST PUSH1 0x0 PUSH1 0x20 DUP3 ADD SWAP1 POP DUP2 DUP2 SUB PUSH1 0x0 DUP4 ADD MSTORE PUSH2 0x321C DUP2 PUSH2 0x2F3F JUMP JUMPDEST SWAP1 POP SWAP2 SWAP1 POP JUMP JUMPDEST PUSH1 0x0 PUSH1 0x20 DUP3 ADD SWAP1 POP DUP2 DUP2 SUB PUSH1 0x0 DUP4 ADD MSTORE PUSH2 0x323C DUP2 PUSH2 0x2F85 JUMP JUMPDEST SWAP1 POP SWAP2 SWAP1 POP JUMP JUMPDEST PUSH1 0x0 PUSH1 0x20 DUP3 ADD SWAP1 POP DUP2 DUP2 SUB PUSH1 0x0 DUP4 ADD MSTORE PUSH2 0x325C DUP2 PUSH2 0x2FA8 JUMP JUMPDEST SWAP1 POP SWAP2 SWAP1 POP JUMP JUMPDEST PUSH1 0x0 PUSH1 0x20 DUP3 ADD SWAP1 POP DUP2 DUP2 SUB PUSH1 0x0 DUP4 ADD MSTORE PUSH2 0x327C DUP2 PUSH2 0x2FCB JUMP JUMPDEST SWAP1 POP SWAP2 SWAP1 POP JUMP JUMPDEST PUSH1 0x0 PUSH1 0x20 DUP3 ADD SWAP1 POP PUSH2 0x3298 PUSH1 0x0 DUP4 ADD DUP5 PUSH2 0x2FEE JUMP JUMPDEST SWAP3 SWAP2 POP POP JUMP JUMPDEST PUSH1 0x0 PUSH1 0x40 DUP3 ADD SWAP1 POP PUSH2 0x32B3 PUSH1 0x0 DUP4 ADD DUP6 PUSH2 0x2FEE JUMP JUMPDEST PUSH2 0x32C0 PUSH1 0x20 DUP4 ADD DUP5 PUSH2 0x2FEE JUMP JUMPDEST SWAP4 SWAP3 POP POP POP JUMP JUMPDEST PUSH1 0x0 PUSH2 0x32D1 PUSH2 0x32E2 JUMP JUMPDEST SWAP1 POP PUSH2 0x32DD DUP3 DUP3 PUSH2 0x3561 JUMP JUMPDEST SWAP2 SWAP1 POP JUMP JUMPDEST PUSH1 0x0 PUSH1 0x40 MLOAD SWAP1 POP SWAP1 JUMP JUMPDEST PUSH1 0x0 PUSH8 0xFFFFFFFFFFFFFFFF DUP3 GT ISZERO PUSH2 0x3307 JUMPI PUSH2 0x3306 PUSH2 0x3639 JUMP JUMPDEST JUMPDEST PUSH2 0x3310 DUP3 PUSH2 0x367C JUMP JUMPDEST SWAP1 POP PUSH1 0x20 DUP2 ADD SWAP1 POP SWAP2 SWAP1 POP JUMP JUMPDEST PUSH1 0x0 DUP2 MLOAD SWAP1 POP SWAP2 SWAP1 POP JUMP JUMPDEST PUSH1 0x0 DUP3 DUP3 MSTORE PUSH1 0x20 DUP3 ADD SWAP1 POP SWAP3 SWAP2 POP POP JUMP JUMPDEST PUSH1 0x0 DUP2 SWAP1 POP SWAP3 SWAP2 POP POP JUMP JUMPDEST PUSH1 0x0 PUSH2 0x334F DUP3 PUSH2 0x3497 JUMP JUMPDEST SWAP2 POP PUSH2 0x335A DUP4 PUSH2 0x3497 JUMP JUMPDEST SWAP3 POP DUP3 PUSH32 0xFFFFFFFFFFFFFFFFFFFFFFFFFFFFFFFFFFFFFFFFFFFFFFFFFFFFFFFFFFFFFFFF SUB DUP3 GT ISZERO PUSH2 0x338F JUMPI PUSH2 0x338E PUSH2 0x35DB JUMP JUMPDEST JUMPDEST DUP3 DUP3 ADD SWAP1 POP SWAP3 SWAP2 POP POP JUMP JUMPDEST PUSH1 0x0 PUSH2 0x33A5 DUP3 PUSH2 0x3497 JUMP JUMPDEST SWAP2 POP PUSH2 0x33B0 DUP4 PUSH2 0x3497 JUMP JUMPDEST SWAP3 POP DUP3 PUSH2 0x33C0 JUMPI PUSH2 0x33BF PUSH2 0x360A JUMP JUMPDEST JUMPDEST DUP3 DUP3 DIV SWAP1 POP SWAP3 SWAP2 POP POP JUMP JUMPDEST PUSH1 0x0 PUSH2 0x33D6 DUP3 PUSH2 0x3497 JUMP JUMPDEST SWAP2 POP PUSH2 0x33E1 DUP4 PUSH2 0x3497 JUMP JUMPDEST SWAP3 POP DUP2 PUSH32 0xFFFFFFFFFFFFFFFFFFFFFFFFFFFFFFFFFFFFFFFFFFFFFFFFFFFFFFFFFFFFFFFF DIV DUP4 GT DUP3 ISZERO ISZERO AND ISZERO PUSH2 0x341A JUMPI PUSH2 0x3419 PUSH2 0x35DB JUMP JUMPDEST JUMPDEST DUP3 DUP3 MUL SWAP1 POP SWAP3 SWAP2 POP POP JUMP JUMPDEST PUSH1 0x0 PUSH2 0x3430 DUP3 PUSH2 0x3497 JUMP JUMPDEST SWAP2 POP PUSH2 0x343B DUP4 PUSH2 0x3497 JUMP JUMPDEST SWAP3 POP DUP3 DUP3 LT ISZERO PUSH2 0x344E JUMPI PUSH2 0x344D PUSH2 0x35DB JUMP JUMPDEST JUMPDEST DUP3 DUP3 SUB SWAP1 POP SWAP3 SWAP2 POP POP JUMP JUMPDEST PUSH1 0x0 PUSH2 0x3464 DUP3 PUSH2 0x3477 JUMP JUMPDEST SWAP1 POP SWAP2 SWAP1 POP JUMP JUMPDEST PUSH1 0x0 DUP2 ISZERO ISZERO SWAP1 POP SWAP2 SWAP1 POP JUMP JUMPDEST PUSH1 0x0 PUSH20 0xFFFFFFFFFFFFFFFFFFFFFFFFFFFFFFFFFFFFFFFF DUP3 AND SWAP1 POP SWAP2 SWAP1 POP JUMP JUMPDEST PUSH1 0x0 DUP2 SWAP1 POP SWAP2 SWAP1 POP JUMP JUMPDEST PUSH1 0x0 PUSH2 0x34AC DUP3 PUSH2 0x34FB JUMP JUMPDEST SWAP1 POP SWAP2 SWAP1 POP JUMP JUMPDEST PUSH1 0x0 PUSH2 0x34BE DUP3 PUSH2 0x3497 JUMP JUMPDEST SWAP1 POP SWAP2 SWAP1 POP JUMP JUMPDEST PUSH1 0x0 PUSH2 0x34D0 DUP3 PUSH2 0x3497 JUMP JUMPDEST SWAP1 POP SWAP2 SWAP1 POP JUMP JUMPDEST PUSH1 0x0 PUSH2 0x34E2 DUP3 PUSH2 0x3497 JUMP JUMPDEST SWAP1 POP SWAP2 SWAP1 POP JUMP JUMPDEST PUSH1 0x0 PUSH2 0x34F4 DUP3 PUSH2 0x3497 JUMP JUMPDEST SWAP1 POP SWAP2 SWAP1 POP JUMP JUMPDEST PUSH1 0x0 PUSH2 0x3506 DUP3 PUSH2 0x350D JUMP JUMPDEST SWAP1 POP SWAP2 SWAP1 POP JUMP JUMPDEST PUSH1 0x0 PUSH2 0x3518 DUP3 PUSH2 0x3477 JUMP JUMPDEST SWAP1 POP SWAP2 SWAP1 POP JUMP JUMPDEST DUP3 DUP2 DUP4 CALLDATACOPY PUSH1 0x0 DUP4 DUP4 ADD MSTORE POP POP POP JUMP JUMPDEST PUSH1 0x0 JUMPDEST DUP4 DUP2 LT ISZERO PUSH2 0x354C JUMPI DUP1 DUP3 ADD MLOAD DUP2 DUP5 ADD MSTORE PUSH1 0x20 DUP2 ADD SWAP1 POP PUSH2 0x3531 JUMP JUMPDEST DUP4 DUP2 GT ISZERO PUSH2 0x355B JUMPI PUSH1 0x0 DUP5 DUP5 ADD MSTORE JUMPDEST POP POP POP POP JUMP JUMPDEST PUSH2 0x356A DUP3 PUSH2 0x367C JUMP JUMPDEST DUP2 ADD DUP2 DUP2 LT PUSH8 0xFFFFFFFFFFFFFFFF DUP3 GT OR ISZERO PUSH2 0x3589 JUMPI PUSH2 0x3588 PUSH2 0x3639 JUMP JUMPDEST JUMPDEST DUP1 PUSH1 0x40 MSTORE POP POP POP JUMP JUMPDEST PUSH1 0x0 PUSH2 0x359D DUP3 PUSH2 0x3497 JUMP JUMPDEST SWAP2 POP PUSH32 0xFFFFFFFFFFFFFFFFFFFFFFFFFFFFFFFFFFFFFFFFFFFFFFFFFFFFFFFFFFFFFFFF DUP3 EQ ISZERO PUSH2 0x35D0 JUMPI PUSH2 0x35CF PUSH2 0x35DB JUMP JUMPDEST JUMPDEST PUSH1 0x1 DUP3 ADD SWAP1 POP SWAP2 SWAP1 POP JUMP JUMPDEST PUSH32 0x4E487B7100000000000000000000000000000000000000000000000000000000 PUSH1 0x0 MSTORE PUSH1 0x11 PUSH1 0x4 MSTORE PUSH1 0x24 PUSH1 0x0 REVERT JUMPDEST PUSH32 0x4E487B7100000000000000000000000000000000000000000000000000000000 PUSH1 0x0 MSTORE PUSH1 0x12 PUSH1 0x4 MSTORE PUSH1 0x24 PUSH1 0x0 REVERT JUMPDEST PUSH32 0x4E487B7100000000000000000000000000000000000000000000000000000000 PUSH1 0x0 MSTORE PUSH1 0x41 PUSH1 0x4 MSTORE PUSH1 0x24 PUSH1 0x0 REVERT JUMPDEST PUSH1 0x0 DUP1 REVERT JUMPDEST PUSH1 0x0 DUP1 REVERT JUMPDEST PUSH1 0x0 DUP1 REVERT JUMPDEST PUSH1 0x0 DUP1 REVERT JUMPDEST PUSH1 0x0 PUSH1 0x1F NOT PUSH1 0x1F DUP4 ADD AND SWAP1 POP SWAP2 SWAP1 POP JUMP JUMPDEST PUSH32 0x596F7520646F6E7420686176652074686174206D75636820746F207769746864 PUSH1 0x0 DUP3 ADD MSTORE PUSH32 0x7261772100000000000000000000000000000000000000000000000000000000 PUSH1 0x20 DUP3 ADD MSTORE POP JUMP JUMPDEST PUSH32 0x4F776E61626C653A206E6577206F776E657220697320746865207A65726F2061 PUSH1 0x0 DUP3 ADD MSTORE PUSH32 0x6464726573730000000000000000000000000000000000000000000000000000 PUSH1 0x20 DUP3 ADD MSTORE POP JUMP JUMPDEST PUSH32 0x546F6B656E207472616E73666572206661696C65640000000000000000000000 PUSH1 0x0 DUP3 ADD MSTORE POP JUMP JUMPDEST PUSH32 0x4F776E61626C653A2063616C6C6572206973206E6F7420746865206F776E6572 PUSH1 0x0 DUP3 ADD MSTORE POP JUMP JUMPDEST PUSH32 0x596F7520646F6E742068617665207468617420616D6F756E7421000000000000 PUSH1 0x0 DUP3 ADD MSTORE POP JUMP JUMPDEST PUSH32 0x506572207472616E73616374696F6E206C696D69740000000000000000000000 PUSH1 0x0 DUP3 ADD MSTORE POP JUMP JUMPDEST PUSH32 0x5553444300000000000000000000000000000000000000000000000000000000 PUSH1 0x0 DUP3 ADD MSTORE POP JUMP JUMPDEST PUSH32 0x4E6F7420756E6C6F636B65640000000000000000000000000000000000000000 PUSH1 0x0 DUP3 ADD MSTORE POP JUMP JUMPDEST PUSH32 0x5265656E7472616E637947756172643A207265656E7472616E742063616C6C00 PUSH1 0x0 DUP3 ADD MSTORE POP JUMP JUMPDEST PUSH32 0x75696E74206F766572666C6F772066726F6D206D756C7469706C69636174696F PUSH1 0x0 DUP3 ADD MSTORE PUSH32 0x6E00000000000000000000000000000000000000000000000000000000000000 PUSH1 0x20 DUP3 ADD MSTORE POP JUMP JUMPDEST PUSH2 0x38A2 DUP2 PUSH2 0x3459 JUMP JUMPDEST DUP2 EQ PUSH2 0x38AD JUMPI PUSH1 0x0 DUP1 REVERT JUMPDEST POP JUMP JUMPDEST PUSH2 0x38B9 DUP2 PUSH2 0x346B JUMP JUMPDEST DUP2 EQ PUSH2 0x38C4 JUMPI PUSH1 0x0 DUP1 REVERT JUMPDEST POP JUMP JUMPDEST PUSH2 0x38D0 DUP2 PUSH2 0x3497 JUMP JUMPDEST DUP2 EQ PUSH2 0x38DB JUMPI PUSH1 0x0 DUP1 REVERT JUMPDEST POP JUMP INVALID LOG2 PUSH5 0x6970667358 0x22 SLT KECCAK256 0xD3 0xE6 0xE0 PUSH5 0xF8215F0DE0 0xD 0x25 DUP14 GAS POP MSIZE BALANCE 0x2F LOG3 0x2F 0xF6 0x28 SWAP8 0xDE 0xA8 0xD3 SWAP15 GASLIMIT 0x4F 0x2D NOT MOD 0xB0 PUSH5 0x736F6C6343 STOP ADDMOD SMOD STOP CALLER "
				},
				"gasEstimates": {
					"creation": {
						"codeDepositCost": "2922400",
						"executionCost": "infinite",
						"totalCost": "infinite"
					},
					"external": {
						"BTON()": "2689",
						"Launch()": "infinite",
						"SPTR()": "2690",
						"WAND()": "2733",
						"addStable(string,address,uint256)": "infinite",
						"buyScepter(uint256,string)": "infinite",
						"cashOutScepter(uint256,uint256,string)": "infinite",
						"circulatingSupplyXDays(uint256)": "infinite",
						"claimLockedUSDC(address,string)": "infinite",
						"daysInCalculation()": "2540",
						"devWalletAddr()": "2626",
						"getBackingPrice()": "infinite",
						"getBuyPrice()": "infinite",
						"getCircSupplyXDays()": "infinite",
						"getGrowthFactor()": "infinite",
						"getSellFactor()": "infinite",
						"getSellPrice()": "infinite",
						"getTokensBoughtXDays()": "infinite",
						"getTokensSoldXDays()": "infinite",
						"owner()": "2567",
						"renounceOwnership()": "30442",
						"riskTreasuryAddr()": "2605",
						"scepterTreasuryAddr()": "2581",
						"setDaysUsedInFactors(uint256)": "infinite",
						"sptrTreasuryBal()": "2518",
						"stableERC20Info(string)": "infinite",
						"testUpdatetimeLockedminus(uint256)": "infinite",
						"testUpdatetimeLockedplus(uint256)": "infinite",
						"testwallet()": "2602",
						"timeLaunched()": "2474",
						"tokenStable()": "2646",
						"tokensBoughtXDays(uint256)": "infinite",
						"tokensSoldXDays(uint256)": "infinite",
						"transferOwnership(address)": "30833",
						"transformScepterToBaton(uint256)": "infinite",
						"updateSPTRTreasuryBal()": "29219",
						"whitelist(address)": "3071",
						"withheldWithdrawals(address)": "infinite"
					},
					"internal": {
						"_safeTransferFrom(contract IERC20,address,address,uint256)": "infinite",
						"add(uint256,uint256)": "infinite",
						"decDiv18(uint256,uint256)": "infinite",
						"decMul18(uint256,uint256)": "infinite",
						"div(uint256,uint256)": "infinite",
						"mul(uint256,uint256)": "infinite",
						"sub(uint256,uint256)": "infinite"
					}
				},
				"methodIdentifiers": {
					"BTON()": "c0ca6fb4",
					"Launch()": "02ac8168",
					"SPTR()": "26ae486e",
					"WAND()": "d04d7908",
					"addStable(string,address,uint256)": "e5d98082",
					"buyScepter(uint256,string)": "862d1b35",
					"cashOutScepter(uint256,uint256,string)": "c0ce5889",
					"circulatingSupplyXDays(uint256)": "1a30e872",
					"claimLockedUSDC(address,string)": "bdad7f02",
					"daysInCalculation()": "67b48c91",
					"devWalletAddr()": "29982a32",
					"getBackingPrice()": "1f564a06",
					"getBuyPrice()": "018a25e8",
					"getCircSupplyXDays()": "0f65de3e",
					"getGrowthFactor()": "93f7b711",
					"getSellFactor()": "0ccaf04f",
					"getSellPrice()": "43d32e9c",
					"getTokensBoughtXDays()": "71cd58f9",
					"getTokensSoldXDays()": "d82eddf2",
					"owner()": "8da5cb5b",
					"renounceOwnership()": "715018a6",
					"riskTreasuryAddr()": "047729b0",
					"scepterTreasuryAddr()": "c079d7f6",
					"setDaysUsedInFactors(uint256)": "fc361443",
					"sptrTreasuryBal()": "66763319",
					"stableERC20Info(string)": "a475bf48",
					"testUpdatetimeLockedminus(uint256)": "164c8501",
					"testUpdatetimeLockedplus(uint256)": "67e927a8",
					"testwallet()": "eee05f5e",
					"timeLaunched()": "3c6eb17a",
					"tokenStable()": "7087a7a5",
					"tokensBoughtXDays(uint256)": "2a9f0fb1",
					"tokensSoldXDays(uint256)": "1514c976",
					"transferOwnership(address)": "f2fde38b",
					"transformScepterToBaton(uint256)": "1bc9cc45",
					"updateSPTRTreasuryBal()": "bcb3de54",
					"whitelist(address)": "9b19251a",
					"withheldWithdrawals(address)": "12b2ed94"
				}
			},
			"storageLayout": {
				"storage": [
					{
						"astId": 137,
						"contract": "WandInstruments.sol:testSticks",
						"label": "_status",
						"offset": 0,
						"slot": "0",
						"type": "t_uint256"
					},
					{
						"astId": 29,
						"contract": "WandInstruments.sol:testSticks",
						"label": "_owner",
						"offset": 0,
						"slot": "1",
						"type": "t_address"
					},
					{
						"astId": 182,
						"contract": "WandInstruments.sol:testSticks",
						"label": "backingPrice",
						"offset": 0,
						"slot": "2",
						"type": "t_uint256"
					},
					{
						"astId": 184,
						"contract": "WandInstruments.sol:testSticks",
						"label": "scepterBuyPrice",
						"offset": 0,
						"slot": "3",
						"type": "t_uint256"
					},
					{
						"astId": 186,
						"contract": "WandInstruments.sol:testSticks",
						"label": "scepterSellPrice",
						"offset": 0,
						"slot": "4",
						"type": "t_uint256"
					},
					{
						"astId": 188,
						"contract": "WandInstruments.sol:testSticks",
						"label": "scepterTreasuryAddr",
						"offset": 0,
						"slot": "5",
						"type": "t_address"
					},
					{
						"astId": 190,
						"contract": "WandInstruments.sol:testSticks",
						"label": "riskTreasuryAddr",
						"offset": 0,
						"slot": "6",
						"type": "t_address"
					},
					{
						"astId": 192,
						"contract": "WandInstruments.sol:testSticks",
						"label": "devWalletAddr",
						"offset": 0,
						"slot": "7",
						"type": "t_address"
					},
					{
						"astId": 194,
						"contract": "WandInstruments.sol:testSticks",
						"label": "sptrTreasuryBal",
						"offset": 0,
						"slot": "8",
						"type": "t_uint256"
					},
					{
						"astId": 196,
						"contract": "WandInstruments.sol:testSticks",
						"label": "timeLaunched",
						"offset": 0,
						"slot": "9",
						"type": "t_uint256"
					},
					{
						"astId": 198,
						"contract": "WandInstruments.sol:testSticks",
						"label": "daysInCalculation",
						"offset": 0,
						"slot": "10",
						"type": "t_uint256"
					},
					{
						"astId": 201,
						"contract": "WandInstruments.sol:testSticks",
						"label": "testwallet",
						"offset": 0,
						"slot": "11",
						"type": "t_address"
					},
					{
						"astId": 204,
						"contract": "WandInstruments.sol:testSticks",
						"label": "SPTR",
						"offset": 0,
						"slot": "12",
						"type": "t_contract(IERC20)1473"
					},
					{
						"astId": 207,
						"contract": "WandInstruments.sol:testSticks",
						"label": "WAND",
						"offset": 0,
						"slot": "13",
						"type": "t_contract(IERC20)1473"
					},
					{
						"astId": 210,
						"contract": "WandInstruments.sol:testSticks",
						"label": "BTON",
						"offset": 0,
						"slot": "14",
						"type": "t_contract(IERC20)1473"
					},
					{
						"astId": 213,
						"contract": "WandInstruments.sol:testSticks",
						"label": "tokenStable",
						"offset": 0,
						"slot": "15",
						"type": "t_contract(IERC20)1473"
					},
					{
						"astId": 217,
						"contract": "WandInstruments.sol:testSticks",
						"label": "tokensBoughtXDays",
						"offset": 0,
						"slot": "16",
						"type": "t_mapping(t_uint256,t_uint256)"
					},
					{
						"astId": 221,
						"contract": "WandInstruments.sol:testSticks",
						"label": "tokensSoldXDays",
						"offset": 0,
						"slot": "17",
						"type": "t_mapping(t_uint256,t_uint256)"
					},
					{
						"astId": 225,
						"contract": "WandInstruments.sol:testSticks",
						"label": "circulatingSupplyXDays",
						"offset": 0,
						"slot": "18",
						"type": "t_mapping(t_uint256,t_uint256)"
					},
					{
						"astId": 235,
						"contract": "WandInstruments.sol:testSticks",
						"label": "stableERC20Info",
						"offset": 0,
						"slot": "19",
						"type": "t_mapping(t_string_memory_ptr,t_struct(stableTokensParams)230_storage)"
					},
					{
						"astId": 245,
						"contract": "WandInstruments.sol:testSticks",
						"label": "withheldWithdrawals",
						"offset": 0,
						"slot": "20",
						"type": "t_mapping(t_address,t_struct(lockedamounts)240_storage)"
					}
				],
				"types": {
					"t_address": {
						"encoding": "inplace",
						"label": "address",
						"numberOfBytes": "20"
					},
					"t_contract(IERC20)1473": {
						"encoding": "inplace",
						"label": "contract IERC20",
						"numberOfBytes": "20"
					},
					"t_mapping(t_address,t_struct(lockedamounts)240_storage)": {
						"encoding": "mapping",
						"key": "t_address",
						"label": "mapping(address => struct testSticks.lockedamounts)",
						"numberOfBytes": "32",
						"value": "t_struct(lockedamounts)240_storage"
					},
					"t_mapping(t_string_memory_ptr,t_struct(stableTokensParams)230_storage)": {
						"encoding": "mapping",
						"key": "t_string_memory_ptr",
						"label": "mapping(string => struct testSticks.stableTokensParams)",
						"numberOfBytes": "32",
						"value": "t_struct(stableTokensParams)230_storage"
					},
					"t_mapping(t_uint256,t_uint256)": {
						"encoding": "mapping",
						"key": "t_uint256",
						"label": "mapping(uint256 => uint256)",
						"numberOfBytes": "32",
						"value": "t_uint256"
					},
					"t_string_memory_ptr": {
						"encoding": "bytes",
						"label": "string",
						"numberOfBytes": "32"
					},
					"t_struct(lockedamounts)240_storage": {
						"encoding": "inplace",
						"label": "struct testSticks.lockedamounts",
						"members": [
							{
								"astId": 237,
								"contract": "WandInstruments.sol:testSticks",
								"label": "timeUnlocked",
								"offset": 0,
								"slot": "0",
								"type": "t_uint256"
							},
							{
								"astId": 239,
								"contract": "WandInstruments.sol:testSticks",
								"label": "amounts",
								"offset": 0,
								"slot": "1",
								"type": "t_uint256"
							}
						],
						"numberOfBytes": "64"
					},
					"t_struct(stableTokensParams)230_storage": {
						"encoding": "inplace",
						"label": "struct testSticks.stableTokensParams",
						"members": [
							{
								"astId": 227,
								"contract": "WandInstruments.sol:testSticks",
								"label": "contractAddress",
								"offset": 0,
								"slot": "0",
								"type": "t_address"
							},
							{
								"astId": 229,
								"contract": "WandInstruments.sol:testSticks",
								"label": "tokenDecimals",
								"offset": 0,
								"slot": "1",
								"type": "t_uint256"
							}
						],
						"numberOfBytes": "64"
					},
					"t_uint256": {
						"encoding": "inplace",
						"label": "uint256",
						"numberOfBytes": "32"
					}
				}
			},
			"userdoc": {
				"events": {
					"sceptersBought(address,uint256)": {
						"notice": "Events*"
					}
				},
				"kind": "user",
				"methods": {},
				"version": 1
			}
		}
	}
}