{
	"WandAirdrop.sol": {
		"testAirDrop": {
			"abi": [
				{
					"inputs": [],
					"stateMutability": "nonpayable",
					"type": "constructor"
				},
				{
					"anonymous": false,
					"inputs": [
						{
							"indexed": true,
							"internalType": "address",
							"name": "previousOwner",
							"type": "address"
						},
						{
							"indexed": true,
							"internalType": "address",
							"name": "newOwner",
							"type": "address"
						}
					],
					"name": "OwnershipTransferred",
					"type": "event"
				},
				{
					"inputs": [],
					"name": "Bton",
					"outputs": [
						{
							"internalType": "contract IERC20",
							"name": "",
							"type": "address"
						}
					],
					"stateMutability": "view",
					"type": "function"
				},
				{
					"inputs": [],
					"name": "USDC",
					"outputs": [
						{
							"internalType": "contract IERC20",
							"name": "",
							"type": "address"
						}
					],
					"stateMutability": "view",
					"type": "function"
				},
				{
					"inputs": [
						{
							"internalType": "address",
							"name": "",
							"type": "address"
						}
					],
					"name": "airdroppedHistory",
					"outputs": [
						{
							"internalType": "uint256",
							"name": "",
							"type": "uint256"
						}
					],
					"stateMutability": "view",
					"type": "function"
				},
				{
					"inputs": [
						{
							"internalType": "address",
							"name": "",
							"type": "address"
						}
					],
					"name": "btonHoldings",
					"outputs": [
						{
							"internalType": "uint256",
							"name": "timeInit",
							"type": "uint256"
						},
						{
							"internalType": "uint256",
							"name": "amounts",
							"type": "uint256"
						}
					],
					"stateMutability": "view",
					"type": "function"
				},
				{
					"inputs": [
						{
							"internalType": "uint256",
							"name": "totalBtons",
							"type": "uint256"
						}
					],
					"name": "calcAirdropRate",
					"outputs": [],
					"stateMutability": "nonpayable",
					"type": "function"
				},
				{
					"inputs": [],
					"name": "owner",
					"outputs": [
						{
							"internalType": "address",
							"name": "",
							"type": "address"
						}
					],
					"stateMutability": "view",
					"type": "function"
				},
				{
					"inputs": [],
					"name": "renounceOwnership",
					"outputs": [],
					"stateMutability": "nonpayable",
					"type": "function"
				},
				{
					"inputs": [
						{
							"internalType": "uint256",
							"name": "",
							"type": "uint256"
						}
					],
					"name": "toDistribute",
					"outputs": [
						{
							"internalType": "address",
							"name": "investerWallet",
							"type": "address"
						},
						{
							"internalType": "uint256",
							"name": "entitledAmt",
							"type": "uint256"
						}
					],
					"stateMutability": "view",
					"type": "function"
				},
				{
					"inputs": [
						{
							"internalType": "address",
							"name": "newOwner",
							"type": "address"
						}
					],
					"name": "transferOwnership",
					"outputs": [],
					"stateMutability": "nonpayable",
					"type": "function"
				},
				{
					"inputs": [
						{
							"internalType": "uint256",
							"name": "_amt",
							"type": "uint256"
						}
					],
					"name": "updateBtonHoldings",
					"outputs": [],
					"stateMutability": "nonpayable",
					"type": "function"
				},
				{
					"inputs": [],
					"name": "withdrawAirDrop",
					"outputs": [],
					"stateMutability": "nonpayable",
					"type": "function"
				}
			],
			"devdoc": {
				"kind": "dev",
				"methods": {
					"owner()": {
						"details": "Returns the address of the current owner."
					},
					"renounceOwnership()": {
						"details": "Leaves the contract without owner. It will not be possible to call `onlyOwner` functions anymore. Can only be called by the current owner. NOTE: Renouncing ownership will leave the contract without an owner, thereby removing any functionality that is only available to the owner."
					},
					"transferOwnership(address)": {
						"details": "Transfers ownership of the contract to a new account (`newOwner`). Can only be called by the current owner."
					}
				},
				"version": 1
			},
			"evm": {
				"assembly": "    /* \"WandAirdrop.sol\":119:2288  contract testAirDrop is Ownable{ \r... */\n  mstore(0x40, 0x80)\n    /* \"WandAirdrop.sol\":719:850  constructor() {\r... */\n  callvalue\n  dup1\n  iszero\n  tag_1\n  jumpi\n  0x00\n  dup1\n  revert\ntag_1:\n  pop\n    /* \"Ownable.sol\":914:946  _transferOwnership(_msgSender()) */\n  tag_5\n    /* \"Ownable.sol\":933:945  _msgSender() */\n  tag_6\n    /* \"Ownable.sol\":933:943  _msgSender */\n  shl(0x20, tag_7)\n    /* \"Ownable.sol\":933:945  _msgSender() */\n  0x20\n  shr\n  jump\t// in\ntag_6:\n    /* \"Ownable.sol\":914:932  _transferOwnership */\n  shl(0x20, tag_8)\n    /* \"Ownable.sol\":914:946  _transferOwnership(_msgSender()) */\n  0x20\n  shr\n  jump\t// in\ntag_5:\n    /* \"WandAirdrop.sol\":758:800  0xD7ACd2a9FD159E69Bb102A1ca21C9a3e3A5F771B */\n  0xd7acd2a9fd159e69bb102a1ca21c9a3e3a5f771b\n    /* \"WandAirdrop.sol\":744:748  USDC */\n  0x04\n  0x00\n    /* \"WandAirdrop.sol\":744:801  USDC = IERC20(0xD7ACd2a9FD159E69Bb102A1ca21C9a3e3A5F771B) */\n  0x0100\n  exp\n  dup2\n  sload\n  dup2\n  0xffffffffffffffffffffffffffffffffffffffff\n  mul\n  not\n  and\n  swap1\n  dup4\n  0xffffffffffffffffffffffffffffffffffffffff\n  and\n  mul\n  or\n  swap1\n  sstore\n  pop\n    /* \"WandAirdrop.sol\":119:2288  contract testAirDrop is Ownable{ \r... */\n  jump(tag_10)\n    /* \"Context.sol\":640:736  function _msgSender() internal view virtual returns (address) {... */\ntag_7:\n    /* \"Context.sol\":693:700  address */\n  0x00\n    /* \"Context.sol\":719:729  msg.sender */\n  caller\n    /* \"Context.sol\":712:729  return msg.sender */\n  swap1\n  pop\n    /* \"Context.sol\":640:736  function _msgSender() internal view virtual returns (address) {... */\n  swap1\n  jump\t// out\n    /* \"Ownable.sol\":2263:2450  function _transferOwnership(address newOwner) internal virtual {... */\ntag_8:\n    /* \"Ownable.sol\":2336:2352  address oldOwner */\n  0x00\n    /* \"Ownable.sol\":2355:2361  _owner */\n  dup1\n  0x00\n  swap1\n  sload\n  swap1\n  0x0100\n  exp\n  swap1\n  div\n  0xffffffffffffffffffffffffffffffffffffffff\n  and\n    /* \"Ownable.sol\":2336:2361  address oldOwner = _owner */\n  swap1\n  pop\n    /* \"Ownable.sol\":2380:2388  newOwner */\n  dup2\n    /* \"Ownable.sol\":2371:2377  _owner */\n  0x00\n  dup1\n    /* \"Ownable.sol\":2371:2388  _owner = newOwner */\n  0x0100\n  exp\n  dup2\n  sload\n  dup2\n  0xffffffffffffffffffffffffffffffffffffffff\n  mul\n  not\n  and\n  swap1\n  dup4\n  0xffffffffffffffffffffffffffffffffffffffff\n  and\n  mul\n  or\n  swap1\n  sstore\n  pop\n    /* \"Ownable.sol\":2434:2442  newOwner */\n  dup2\n    /* \"Ownable.sol\":2403:2443  OwnershipTransferred(oldOwner, newOwner) */\n  0xffffffffffffffffffffffffffffffffffffffff\n  and\n    /* \"Ownable.sol\":2424:2432  oldOwner */\n  dup2\n    /* \"Ownable.sol\":2403:2443  OwnershipTransferred(oldOwner, newOwner) */\n  0xffffffffffffffffffffffffffffffffffffffff\n  and\n  0x8be0079c531659141344cd1fd0a4f28419497f9722a3daafe3b4186f6b6457e0\n  mload(0x40)\n  mload(0x40)\n  dup1\n  swap2\n  sub\n  swap1\n  log3\n    /* \"Ownable.sol\":2326:2450  {... */\n  pop\n    /* \"Ownable.sol\":2263:2450  function _transferOwnership(address newOwner) internal virtual {... */\n  pop\n  jump\t// out\n    /* \"WandAirdrop.sol\":119:2288  contract testAirDrop is Ownable{ \r... */\ntag_10:\n  dataSize(sub_0)\n  dup1\n  dataOffset(sub_0)\n  0x00\n  codecopy\n  0x00\n  return\nstop\n\nsub_0: assembly {\n        /* \"WandAirdrop.sol\":119:2288  contract testAirDrop is Ownable{ \r... */\n      mstore(0x40, 0x80)\n      callvalue\n      dup1\n      iszero\n      tag_1\n      jumpi\n      0x00\n      dup1\n      revert\n    tag_1:\n      pop\n      jumpi(tag_2, lt(calldatasize, 0x04))\n      shr(0xe0, calldataload(0x00))\n      dup1\n      0x77af3226\n      gt\n      tag_14\n      jumpi\n      dup1\n      0x77af3226\n      eq\n      tag_8\n      jumpi\n      dup1\n      0x89a30271\n      eq\n      tag_9\n      jumpi\n      dup1\n      0x8da5cb5b\n      eq\n      tag_10\n      jumpi\n      dup1\n      0xbeb400b1\n      eq\n      tag_11\n      jumpi\n      dup1\n      0xd80044f5\n      eq\n      tag_12\n      jumpi\n      dup1\n      0xf2fde38b\n      eq\n      tag_13\n      jumpi\n      jump(tag_2)\n    tag_14:\n      dup1\n      0x0eb96791\n      eq\n      tag_3\n      jumpi\n      dup1\n      0x2cbfe8d9\n      eq\n      tag_4\n      jumpi\n      dup1\n      0x4ca431ab\n      eq\n      tag_5\n      jumpi\n      dup1\n      0x715018a6\n      eq\n      tag_6\n      jumpi\n      dup1\n      0x754fe93e\n      eq\n      tag_7\n      jumpi\n    tag_2:\n      0x00\n      dup1\n      revert\n        /* \"WandAirdrop.sol\":601:658  mapping(uint256 => airdropForTheWeek) public toDistribute */\n    tag_3:\n      tag_15\n      0x04\n      dup1\n      calldatasize\n      sub\n      dup2\n      add\n      swap1\n      tag_16\n      swap2\n      swap1\n      tag_17\n      jump\t// in\n    tag_16:\n      tag_18\n      jump\t// in\n    tag_15:\n      mload(0x40)\n      tag_19\n      swap3\n      swap2\n      swap1\n      tag_20\n      jump\t// in\n    tag_19:\n      mload(0x40)\n      dup1\n      swap2\n      sub\n      swap1\n      return\n        /* \"WandAirdrop.sol\":1042:1708  function calcAirdropRate(uint256 totalBtons) public { //TODO: Make this internal and this has to be called in withdraw to update.\r... */\n    tag_4:\n      tag_21\n      0x04\n      dup1\n      calldatasize\n      sub\n      dup2\n      add\n      swap1\n      tag_22\n      swap2\n      swap1\n      tag_17\n      jump\t// in\n    tag_22:\n      tag_23\n      jump\t// in\n    tag_21:\n      stop\n        /* \"WandAirdrop.sol\":542:594  mapping(address => uint256) public airdroppedHistory */\n    tag_5:\n      tag_24\n      0x04\n      dup1\n      calldatasize\n      sub\n      dup2\n      add\n      swap1\n      tag_25\n      swap2\n      swap1\n      tag_26\n      jump\t// in\n    tag_25:\n      tag_27\n      jump\t// in\n    tag_24:\n      mload(0x40)\n      tag_28\n      swap2\n      swap1\n      tag_29\n      jump\t// in\n    tag_28:\n      mload(0x40)\n      dup1\n      swap2\n      sub\n      swap1\n      return\n        /* \"Ownable.sol\":1661:1762  function renounceOwnership() public virtual onlyOwner {... */\n    tag_6:\n      tag_30\n      tag_31\n      jump\t// in\n    tag_30:\n      stop\n        /* \"WandAirdrop.sol\":692:710  IERC20 public Bton */\n    tag_7:\n      tag_32\n      tag_33\n      jump\t// in\n    tag_32:\n      mload(0x40)\n      tag_34\n      swap2\n      swap1\n      tag_35\n      jump\t// in\n    tag_34:\n      mload(0x40)\n      dup1\n      swap2\n      sub\n      swap1\n      return\n        /* \"WandAirdrop.sol\":1714:2279  function withdrawAirDrop() public onlyOwner{ //withdraw everything\r... */\n    tag_8:\n      tag_36\n      tag_37\n      jump\t// in\n    tag_36:\n      stop\n        /* \"WandAirdrop.sol\":667:685  IERC20 public USDC */\n    tag_9:\n      tag_38\n      tag_39\n      jump\t// in\n    tag_38:\n      mload(0x40)\n      tag_40\n      swap2\n      swap1\n      tag_35\n      jump\t// in\n    tag_40:\n      mload(0x40)\n      dup1\n      swap2\n      sub\n      swap1\n      return\n        /* \"Ownable.sol\":1029:1114  function owner() public view virtual returns (address) {... */\n    tag_10:\n      tag_41\n      tag_42\n      jump\t// in\n    tag_41:\n      mload(0x40)\n      tag_43\n      swap2\n      swap1\n      tag_44\n      jump\t// in\n    tag_43:\n      mload(0x40)\n      dup1\n      swap2\n      sub\n      swap1\n      return\n        /* \"WandAirdrop.sol\":484:535  mapping(address => btonsLocked) public btonHoldings */\n    tag_11:\n      tag_45\n      0x04\n      dup1\n      calldatasize\n      sub\n      dup2\n      add\n      swap1\n      tag_46\n      swap2\n      swap1\n      tag_26\n      jump\t// in\n    tag_46:\n      tag_47\n      jump\t// in\n    tag_45:\n      mload(0x40)\n      tag_48\n      swap3\n      swap2\n      swap1\n      tag_49\n      jump\t// in\n    tag_48:\n      mload(0x40)\n      dup1\n      swap2\n      sub\n      swap1\n      return\n        /* \"WandAirdrop.sol\":863:1034  function updateBtonHoldings(uint256 _amt) external {\r... */\n    tag_12:\n      tag_50\n      0x04\n      dup1\n      calldatasize\n      sub\n      dup2\n      add\n      swap1\n      tag_51\n      swap2\n      swap1\n      tag_17\n      jump\t// in\n    tag_51:\n      tag_52\n      jump\t// in\n    tag_50:\n      stop\n        /* \"Ownable.sol\":1911:2109  function transferOwnership(address newOwner) public virtual onlyOwner {... */\n    tag_13:\n      tag_53\n      0x04\n      dup1\n      calldatasize\n      sub\n      dup2\n      add\n      swap1\n      tag_54\n      swap2\n      swap1\n      tag_26\n      jump\t// in\n    tag_54:\n      tag_55\n      jump\t// in\n    tag_53:\n      stop\n        /* \"WandAirdrop.sol\":601:658  mapping(uint256 => airdropForTheWeek) public toDistribute */\n    tag_18:\n      mstore(0x20, 0x03)\n      dup1\n      0x00\n      mstore\n      keccak256(0x00, 0x40)\n      0x00\n      swap2\n      pop\n      swap1\n      pop\n      dup1\n      0x00\n      add\n      0x00\n      swap1\n      sload\n      swap1\n      0x0100\n      exp\n      swap1\n      div\n      0xffffffffffffffffffffffffffffffffffffffff\n      and\n      swap1\n      dup1\n      0x01\n      add\n      sload\n      swap1\n      pop\n      dup3\n      jump\t// out\n        /* \"WandAirdrop.sol\":1042:1708  function calcAirdropRate(uint256 totalBtons) public { //TODO: Make this internal and this has to be called in withdraw to update.\r... */\n    tag_23:\n        /* \"WandAirdrop.sol\":1486:1503  uint256 totalUSDC */\n      0x00\n        /* \"WandAirdrop.sol\":1506:1510  1000 */\n      0x03e8\n        /* \"WandAirdrop.sol\":1486:1510  uint256 totalUSDC = 1000 */\n      swap1\n      pop\n        /* \"WandAirdrop.sol\":1517:1526  uint256 i */\n      0x00\n        /* \"WandAirdrop.sol\":1538:1656  for (i = 0; i < 10; i++) {  //store into distribute ledger\r... */\n    tag_57:\n        /* \"WandAirdrop.sol\":1554:1556  10 */\n      0x0a\n        /* \"WandAirdrop.sol\":1550:1551  i */\n      dup2\n        /* \"WandAirdrop.sol\":1550:1556  i < 10 */\n      lt\n        /* \"WandAirdrop.sol\":1538:1656  for (i = 0; i < 10; i++) {  //store into distribute ledger\r... */\n      iszero\n      tag_58\n      jumpi\n        /* \"WandAirdrop.sol\":1638:1640  50 */\n      0x32\n        /* \"WandAirdrop.sol\":1608:1620  toDistribute */\n      0x03\n        /* \"WandAirdrop.sol\":1608:1623  toDistribute[i] */\n      0x00\n        /* \"WandAirdrop.sol\":1621:1622  i */\n      dup4\n        /* \"WandAirdrop.sol\":1608:1623  toDistribute[i] */\n      dup2\n      mstore\n      0x20\n      add\n      swap1\n      dup2\n      mstore\n      0x20\n      add\n      0x00\n      keccak256\n        /* \"WandAirdrop.sol\":1608:1635  toDistribute[i].entitledAmt */\n      0x01\n      add\n        /* \"WandAirdrop.sol\":1608:1640  toDistribute[i].entitledAmt = 50 */\n      dup2\n      swap1\n      sstore\n      pop\n        /* \"WandAirdrop.sol\":1558:1561  i++ */\n      dup1\n      dup1\n      tag_60\n      swap1\n      tag_61\n      jump\t// in\n    tag_60:\n      swap2\n      pop\n      pop\n        /* \"WandAirdrop.sol\":1538:1656  for (i = 0; i < 10; i++) {  //store into distribute ledger\r... */\n      jump(tag_57)\n    tag_58:\n        /* \"WandAirdrop.sol\":1094:1708  { //TODO: Make this internal and this has to be called in withdraw to update.\r... */\n      pop\n      pop\n        /* \"WandAirdrop.sol\":1042:1708  function calcAirdropRate(uint256 totalBtons) public { //TODO: Make this internal and this has to be called in withdraw to update.\r... */\n      pop\n      jump\t// out\n        /* \"WandAirdrop.sol\":542:594  mapping(address => uint256) public airdroppedHistory */\n    tag_27:\n      mstore(0x20, 0x02)\n      dup1\n      0x00\n      mstore\n      keccak256(0x00, 0x40)\n      0x00\n      swap2\n      pop\n      swap1\n      pop\n      sload\n      dup2\n      jump\t// out\n        /* \"Ownable.sol\":1661:1762  function renounceOwnership() public virtual onlyOwner {... */\n    tag_31:\n        /* \"Ownable.sol\":1252:1264  _msgSender() */\n      tag_63\n        /* \"Ownable.sol\":1252:1262  _msgSender */\n      tag_64\n        /* \"Ownable.sol\":1252:1264  _msgSender() */\n      jump\t// in\n    tag_63:\n        /* \"Ownable.sol\":1241:1264  owner() == _msgSender() */\n      0xffffffffffffffffffffffffffffffffffffffff\n      and\n        /* \"Ownable.sol\":1241:1248  owner() */\n      tag_65\n        /* \"Ownable.sol\":1241:1246  owner */\n      tag_42\n        /* \"Ownable.sol\":1241:1248  owner() */\n      jump\t// in\n    tag_65:\n        /* \"Ownable.sol\":1241:1264  owner() == _msgSender() */\n      0xffffffffffffffffffffffffffffffffffffffff\n      and\n      eq\n        /* \"Ownable.sol\":1233:1301  require(owner() == _msgSender(), \"Ownable: caller is not the owner\") */\n      tag_66\n      jumpi\n      mload(0x40)\n      0x08c379a000000000000000000000000000000000000000000000000000000000\n      dup2\n      mstore\n      0x04\n      add\n      tag_67\n      swap1\n      tag_68\n      jump\t// in\n    tag_67:\n      mload(0x40)\n      dup1\n      swap2\n      sub\n      swap1\n      revert\n    tag_66:\n        /* \"Ownable.sol\":1725:1755  _transferOwnership(address(0)) */\n      tag_70\n        /* \"Ownable.sol\":1752:1753  0 */\n      0x00\n        /* \"Ownable.sol\":1725:1743  _transferOwnership */\n      tag_71\n        /* \"Ownable.sol\":1725:1755  _transferOwnership(address(0)) */\n      jump\t// in\n    tag_70:\n        /* \"Ownable.sol\":1661:1762  function renounceOwnership() public virtual onlyOwner {... */\n      jump\t// out\n        /* \"WandAirdrop.sol\":692:710  IERC20 public Bton */\n    tag_33:\n      0x05\n      0x00\n      swap1\n      sload\n      swap1\n      0x0100\n      exp\n      swap1\n      div\n      0xffffffffffffffffffffffffffffffffffffffff\n      and\n      dup2\n      jump\t// out\n        /* \"WandAirdrop.sol\":1714:2279  function withdrawAirDrop() public onlyOwner{ //withdraw everything\r... */\n    tag_37:\n        /* \"Ownable.sol\":1252:1264  _msgSender() */\n      tag_73\n        /* \"Ownable.sol\":1252:1262  _msgSender */\n      tag_64\n        /* \"Ownable.sol\":1252:1264  _msgSender() */\n      jump\t// in\n    tag_73:\n        /* \"Ownable.sol\":1241:1264  owner() == _msgSender() */\n      0xffffffffffffffffffffffffffffffffffffffff\n      and\n        /* \"Ownable.sol\":1241:1248  owner() */\n      tag_74\n        /* \"Ownable.sol\":1241:1246  owner */\n      tag_42\n        /* \"Ownable.sol\":1241:1248  owner() */\n      jump\t// in\n    tag_74:\n        /* \"Ownable.sol\":1241:1264  owner() == _msgSender() */\n      0xffffffffffffffffffffffffffffffffffffffff\n      and\n      eq\n        /* \"Ownable.sol\":1233:1301  require(owner() == _msgSender(), \"Ownable: caller is not the owner\") */\n      tag_75\n      jumpi\n      mload(0x40)\n      0x08c379a000000000000000000000000000000000000000000000000000000000\n      dup2\n      mstore\n      0x04\n      add\n      tag_76\n      swap1\n      tag_68\n      jump\t// in\n    tag_76:\n      mload(0x40)\n      dup1\n      swap2\n      sub\n      swap1\n      revert\n    tag_75:\n        /* \"WandAirdrop.sol\":1833:1834  0 */\n      0x00\n        /* \"WandAirdrop.sol\":1799:1811  btonHoldings */\n      0x01\n        /* \"WandAirdrop.sol\":1799:1823  btonHoldings[msg.sender] */\n      0x00\n        /* \"WandAirdrop.sol\":1812:1822  msg.sender */\n      caller\n        /* \"WandAirdrop.sol\":1799:1823  btonHoldings[msg.sender] */\n      0xffffffffffffffffffffffffffffffffffffffff\n      and\n      0xffffffffffffffffffffffffffffffffffffffff\n      and\n      dup2\n      mstore\n      0x20\n      add\n      swap1\n      dup2\n      mstore\n      0x20\n      add\n      0x00\n      keccak256\n        /* \"WandAirdrop.sol\":1799:1831  btonHoldings[msg.sender].amounts */\n      0x01\n      add\n      sload\n        /* \"WandAirdrop.sol\":1799:1834  btonHoldings[msg.sender].amounts >0 */\n      gt\n        /* \"WandAirdrop.sol\":1790:1861  require (btonHoldings[msg.sender].amounts >0, \"You dont have anything\") */\n      tag_78\n      jumpi\n      mload(0x40)\n      0x08c379a000000000000000000000000000000000000000000000000000000000\n      dup2\n      mstore\n      0x04\n      add\n      tag_79\n      swap1\n      tag_80\n      jump\t// in\n    tag_79:\n      mload(0x40)\n      dup1\n      swap2\n      sub\n      swap1\n      revert\n    tag_78:\n        /* \"WandAirdrop.sol\":1872:1881  uint256 i */\n      0x00\n        /* \"WandAirdrop.sol\":1892:2270  for (i = 0; i < 10; i++) { //TODO: Update forloop \r... */\n    tag_81:\n        /* \"WandAirdrop.sol\":1908:1910  10 */\n      0x0a\n        /* \"WandAirdrop.sol\":1904:1905  i */\n      dup2\n        /* \"WandAirdrop.sol\":1904:1910  i < 10 */\n      lt\n        /* \"WandAirdrop.sol\":1892:2270  for (i = 0; i < 10; i++) { //TODO: Update forloop \r... */\n      iszero\n      tag_82\n      jumpi\n        /* \"WandAirdrop.sol\":1912:1915  i++ */\n      dup1\n      dup1\n      tag_84\n      swap1\n      tag_61\n      jump\t// in\n    tag_84:\n      swap2\n      pop\n      pop\n        /* \"WandAirdrop.sol\":1892:2270  for (i = 0; i < 10; i++) { //TODO: Update forloop \r... */\n      jump(tag_81)\n    tag_82:\n        /* \"WandAirdrop.sol\":1757:2279  { //withdraw everything\r... */\n      pop\n        /* \"WandAirdrop.sol\":1714:2279  function withdrawAirDrop() public onlyOwner{ //withdraw everything\r... */\n      jump\t// out\n        /* \"WandAirdrop.sol\":667:685  IERC20 public USDC */\n    tag_39:\n      0x04\n      0x00\n      swap1\n      sload\n      swap1\n      0x0100\n      exp\n      swap1\n      div\n      0xffffffffffffffffffffffffffffffffffffffff\n      and\n      dup2\n      jump\t// out\n        /* \"Ownable.sol\":1029:1114  function owner() public view virtual returns (address) {... */\n    tag_42:\n        /* \"Ownable.sol\":1075:1082  address */\n      0x00\n        /* \"Ownable.sol\":1101:1107  _owner */\n      dup1\n      0x00\n      swap1\n      sload\n      swap1\n      0x0100\n      exp\n      swap1\n      div\n      0xffffffffffffffffffffffffffffffffffffffff\n      and\n        /* \"Ownable.sol\":1094:1107  return _owner */\n      swap1\n      pop\n        /* \"Ownable.sol\":1029:1114  function owner() public view virtual returns (address) {... */\n      swap1\n      jump\t// out\n        /* \"WandAirdrop.sol\":484:535  mapping(address => btonsLocked) public btonHoldings */\n    tag_47:\n      mstore(0x20, 0x01)\n      dup1\n      0x00\n      mstore\n      keccak256(0x00, 0x40)\n      0x00\n      swap2\n      pop\n      swap1\n      pop\n      dup1\n      0x00\n      add\n      sload\n      swap1\n      dup1\n      0x01\n      add\n      sload\n      swap1\n      pop\n      dup3\n      jump\t// out\n        /* \"WandAirdrop.sol\":863:1034  function updateBtonHoldings(uint256 _amt) external {\r... */\n    tag_52:\n        /* \"WandAirdrop.sol\":961:976  block.timestamp */\n      timestamp\n        /* \"WandAirdrop.sol\":925:937  btonHoldings */\n      0x01\n        /* \"WandAirdrop.sol\":925:949  btonHoldings[msg.sender] */\n      0x00\n        /* \"WandAirdrop.sol\":938:948  msg.sender */\n      caller\n        /* \"WandAirdrop.sol\":925:949  btonHoldings[msg.sender] */\n      0xffffffffffffffffffffffffffffffffffffffff\n      and\n      0xffffffffffffffffffffffffffffffffffffffff\n      and\n      dup2\n      mstore\n      0x20\n      add\n      swap1\n      dup2\n      mstore\n      0x20\n      add\n      0x00\n      keccak256\n        /* \"WandAirdrop.sol\":925:958  btonHoldings[msg.sender].timeInit */\n      0x00\n      add\n        /* \"WandAirdrop.sol\":925:976  btonHoldings[msg.sender].timeInit = block.timestamp */\n      dup2\n      swap1\n      sstore\n      pop\n        /* \"WandAirdrop.sol\":1022:1026  _amt */\n      dup1\n        /* \"WandAirdrop.sol\":987:999  btonHoldings */\n      0x01\n        /* \"WandAirdrop.sol\":987:1011  btonHoldings[msg.sender] */\n      0x00\n        /* \"WandAirdrop.sol\":1000:1010  msg.sender */\n      caller\n        /* \"WandAirdrop.sol\":987:1011  btonHoldings[msg.sender] */\n      0xffffffffffffffffffffffffffffffffffffffff\n      and\n      0xffffffffffffffffffffffffffffffffffffffff\n      and\n      dup2\n      mstore\n      0x20\n      add\n      swap1\n      dup2\n      mstore\n      0x20\n      add\n      0x00\n      keccak256\n        /* \"WandAirdrop.sol\":987:1019  btonHoldings[msg.sender].amounts */\n      0x01\n      add\n        /* \"WandAirdrop.sol\":987:1026  btonHoldings[msg.sender].amounts = _amt */\n      dup2\n      swap1\n      sstore\n      pop\n        /* \"WandAirdrop.sol\":863:1034  function updateBtonHoldings(uint256 _amt) external {\r... */\n      pop\n      jump\t// out\n        /* \"Ownable.sol\":1911:2109  function transferOwnership(address newOwner) public virtual onlyOwner {... */\n    tag_55:\n        /* \"Ownable.sol\":1252:1264  _msgSender() */\n      tag_88\n        /* \"Ownable.sol\":1252:1262  _msgSender */\n      tag_64\n        /* \"Ownable.sol\":1252:1264  _msgSender() */\n      jump\t// in\n    tag_88:\n        /* \"Ownable.sol\":1241:1264  owner() == _msgSender() */\n      0xffffffffffffffffffffffffffffffffffffffff\n      and\n        /* \"Ownable.sol\":1241:1248  owner() */\n      tag_89\n        /* \"Ownable.sol\":1241:1246  owner */\n      tag_42\n        /* \"Ownable.sol\":1241:1248  owner() */\n      jump\t// in\n    tag_89:\n        /* \"Ownable.sol\":1241:1264  owner() == _msgSender() */\n      0xffffffffffffffffffffffffffffffffffffffff\n      and\n      eq\n        /* \"Ownable.sol\":1233:1301  require(owner() == _msgSender(), \"Ownable: caller is not the owner\") */\n      tag_90\n      jumpi\n      mload(0x40)\n      0x08c379a000000000000000000000000000000000000000000000000000000000\n      dup2\n      mstore\n      0x04\n      add\n      tag_91\n      swap1\n      tag_68\n      jump\t// in\n    tag_91:\n      mload(0x40)\n      dup1\n      swap2\n      sub\n      swap1\n      revert\n    tag_90:\n        /* \"Ownable.sol\":2019:2020  0 */\n      0x00\n        /* \"Ownable.sol\":1999:2021  newOwner != address(0) */\n      0xffffffffffffffffffffffffffffffffffffffff\n      and\n        /* \"Ownable.sol\":1999:2007  newOwner */\n      dup2\n        /* \"Ownable.sol\":1999:2021  newOwner != address(0) */\n      0xffffffffffffffffffffffffffffffffffffffff\n      and\n      eq\n      iszero\n        /* \"Ownable.sol\":1991:2064  require(newOwner != address(0), \"Ownable: new owner is the zero address\") */\n      tag_93\n      jumpi\n      mload(0x40)\n      0x08c379a000000000000000000000000000000000000000000000000000000000\n      dup2\n      mstore\n      0x04\n      add\n      tag_94\n      swap1\n      tag_95\n      jump\t// in\n    tag_94:\n      mload(0x40)\n      dup1\n      swap2\n      sub\n      swap1\n      revert\n    tag_93:\n        /* \"Ownable.sol\":2074:2102  _transferOwnership(newOwner) */\n      tag_96\n        /* \"Ownable.sol\":2093:2101  newOwner */\n      dup2\n        /* \"Ownable.sol\":2074:2092  _transferOwnership */\n      tag_71\n        /* \"Ownable.sol\":2074:2102  _transferOwnership(newOwner) */\n      jump\t// in\n    tag_96:\n        /* \"Ownable.sol\":1911:2109  function transferOwnership(address newOwner) public virtual onlyOwner {... */\n      pop\n      jump\t// out\n        /* \"Context.sol\":640:736  function _msgSender() internal view virtual returns (address) {... */\n    tag_64:\n        /* \"Context.sol\":693:700  address */\n      0x00\n        /* \"Context.sol\":719:729  msg.sender */\n      caller\n        /* \"Context.sol\":712:729  return msg.sender */\n      swap1\n      pop\n        /* \"Context.sol\":640:736  function _msgSender() internal view virtual returns (address) {... */\n      swap1\n      jump\t// out\n        /* \"Ownable.sol\":2263:2450  function _transferOwnership(address newOwner) internal virtual {... */\n    tag_71:\n        /* \"Ownable.sol\":2336:2352  address oldOwner */\n      0x00\n        /* \"Ownable.sol\":2355:2361  _owner */\n      dup1\n      0x00\n      swap1\n      sload\n      swap1\n      0x0100\n      exp\n      swap1\n      div\n      0xffffffffffffffffffffffffffffffffffffffff\n      and\n        /* \"Ownable.sol\":2336:2361  address oldOwner = _owner */\n      swap1\n      pop\n        /* \"Ownable.sol\":2380:2388  newOwner */\n      dup2\n        /* \"Ownable.sol\":2371:2377  _owner */\n      0x00\n      dup1\n        /* \"Ownable.sol\":2371:2388  _owner = newOwner */\n      0x0100\n      exp\n      dup2\n      sload\n      dup2\n      0xffffffffffffffffffffffffffffffffffffffff\n      mul\n      not\n      and\n      swap1\n      dup4\n      0xffffffffffffffffffffffffffffffffffffffff\n      and\n      mul\n      or\n      swap1\n      sstore\n      pop\n        /* \"Ownable.sol\":2434:2442  newOwner */\n      dup2\n        /* \"Ownable.sol\":2403:2443  OwnershipTransferred(oldOwner, newOwner) */\n      0xffffffffffffffffffffffffffffffffffffffff\n      and\n        /* \"Ownable.sol\":2424:2432  oldOwner */\n      dup2\n        /* \"Ownable.sol\":2403:2443  OwnershipTransferred(oldOwner, newOwner) */\n      0xffffffffffffffffffffffffffffffffffffffff\n      and\n      0x8be0079c531659141344cd1fd0a4f28419497f9722a3daafe3b4186f6b6457e0\n      mload(0x40)\n      mload(0x40)\n      dup1\n      swap2\n      sub\n      swap1\n      log3\n        /* \"Ownable.sol\":2326:2450  {... */\n      pop\n        /* \"Ownable.sol\":2263:2450  function _transferOwnership(address newOwner) internal virtual {... */\n      pop\n      jump\t// out\n        /* \"#utility.yul\":7:146   */\n    tag_100:\n        /* \"#utility.yul\":53:58   */\n      0x00\n        /* \"#utility.yul\":91:97   */\n      dup2\n        /* \"#utility.yul\":78:98   */\n      calldataload\n        /* \"#utility.yul\":69:98   */\n      swap1\n      pop\n        /* \"#utility.yul\":107:140   */\n      tag_102\n        /* \"#utility.yul\":134:139   */\n      dup2\n        /* \"#utility.yul\":107:140   */\n      tag_103\n      jump\t// in\n    tag_102:\n        /* \"#utility.yul\":7:146   */\n      swap3\n      swap2\n      pop\n      pop\n      jump\t// out\n        /* \"#utility.yul\":152:291   */\n    tag_104:\n        /* \"#utility.yul\":198:203   */\n      0x00\n        /* \"#utility.yul\":236:242   */\n      dup2\n        /* \"#utility.yul\":223:243   */\n      calldataload\n        /* \"#utility.yul\":214:243   */\n      swap1\n      pop\n        /* \"#utility.yul\":252:285   */\n      tag_106\n        /* \"#utility.yul\":279:284   */\n      dup2\n        /* \"#utility.yul\":252:285   */\n      tag_107\n      jump\t// in\n    tag_106:\n        /* \"#utility.yul\":152:291   */\n      swap3\n      swap2\n      pop\n      pop\n      jump\t// out\n        /* \"#utility.yul\":297:626   */\n    tag_26:\n        /* \"#utility.yul\":356:362   */\n      0x00\n        /* \"#utility.yul\":405:407   */\n      0x20\n        /* \"#utility.yul\":393:402   */\n      dup3\n        /* \"#utility.yul\":384:391   */\n      dup5\n        /* \"#utility.yul\":380:403   */\n      sub\n        /* \"#utility.yul\":376:408   */\n      slt\n        /* \"#utility.yul\":373:492   */\n      iszero\n      tag_109\n      jumpi\n        /* \"#utility.yul\":411:490   */\n      tag_110\n      tag_111\n      jump\t// in\n    tag_110:\n        /* \"#utility.yul\":373:492   */\n    tag_109:\n        /* \"#utility.yul\":531:532   */\n      0x00\n        /* \"#utility.yul\":556:609   */\n      tag_112\n        /* \"#utility.yul\":601:608   */\n      dup5\n        /* \"#utility.yul\":592:598   */\n      dup3\n        /* \"#utility.yul\":581:590   */\n      dup6\n        /* \"#utility.yul\":577:599   */\n      add\n        /* \"#utility.yul\":556:609   */\n      tag_100\n      jump\t// in\n    tag_112:\n        /* \"#utility.yul\":546:609   */\n      swap2\n      pop\n        /* \"#utility.yul\":502:619   */\n      pop\n        /* \"#utility.yul\":297:626   */\n      swap3\n      swap2\n      pop\n      pop\n      jump\t// out\n        /* \"#utility.yul\":632:961   */\n    tag_17:\n        /* \"#utility.yul\":691:697   */\n      0x00\n        /* \"#utility.yul\":740:742   */\n      0x20\n        /* \"#utility.yul\":728:737   */\n      dup3\n        /* \"#utility.yul\":719:726   */\n      dup5\n        /* \"#utility.yul\":715:738   */\n      sub\n        /* \"#utility.yul\":711:743   */\n      slt\n        /* \"#utility.yul\":708:827   */\n      iszero\n      tag_114\n      jumpi\n        /* \"#utility.yul\":746:825   */\n      tag_115\n      tag_111\n      jump\t// in\n    tag_115:\n        /* \"#utility.yul\":708:827   */\n    tag_114:\n        /* \"#utility.yul\":866:867   */\n      0x00\n        /* \"#utility.yul\":891:944   */\n      tag_116\n        /* \"#utility.yul\":936:943   */\n      dup5\n        /* \"#utility.yul\":927:933   */\n      dup3\n        /* \"#utility.yul\":916:925   */\n      dup6\n        /* \"#utility.yul\":912:934   */\n      add\n        /* \"#utility.yul\":891:944   */\n      tag_104\n      jump\t// in\n    tag_116:\n        /* \"#utility.yul\":881:944   */\n      swap2\n      pop\n        /* \"#utility.yul\":837:954   */\n      pop\n        /* \"#utility.yul\":632:961   */\n      swap3\n      swap2\n      pop\n      pop\n      jump\t// out\n        /* \"#utility.yul\":967:1085   */\n    tag_117:\n        /* \"#utility.yul\":1054:1078   */\n      tag_119\n        /* \"#utility.yul\":1072:1077   */\n      dup2\n        /* \"#utility.yul\":1054:1078   */\n      tag_120\n      jump\t// in\n    tag_119:\n        /* \"#utility.yul\":1049:1052   */\n      dup3\n        /* \"#utility.yul\":1042:1079   */\n      mstore\n        /* \"#utility.yul\":967:1085   */\n      pop\n      pop\n      jump\t// out\n        /* \"#utility.yul\":1091:1248   */\n    tag_121:\n        /* \"#utility.yul\":1191:1241   */\n      tag_123\n        /* \"#utility.yul\":1235:1240   */\n      dup2\n        /* \"#utility.yul\":1191:1241   */\n      tag_124\n      jump\t// in\n    tag_123:\n        /* \"#utility.yul\":1186:1189   */\n      dup3\n        /* \"#utility.yul\":1179:1242   */\n      mstore\n        /* \"#utility.yul\":1091:1248   */\n      pop\n      pop\n      jump\t// out\n        /* \"#utility.yul\":1254:1620   */\n    tag_125:\n        /* \"#utility.yul\":1396:1399   */\n      0x00\n        /* \"#utility.yul\":1417:1484   */\n      tag_127\n        /* \"#utility.yul\":1481:1483   */\n      0x26\n        /* \"#utility.yul\":1476:1479   */\n      dup4\n        /* \"#utility.yul\":1417:1484   */\n      tag_128\n      jump\t// in\n    tag_127:\n        /* \"#utility.yul\":1410:1484   */\n      swap2\n      pop\n        /* \"#utility.yul\":1493:1586   */\n      tag_129\n        /* \"#utility.yul\":1582:1585   */\n      dup3\n        /* \"#utility.yul\":1493:1586   */\n      tag_130\n      jump\t// in\n    tag_129:\n        /* \"#utility.yul\":1611:1613   */\n      0x40\n        /* \"#utility.yul\":1606:1609   */\n      dup3\n        /* \"#utility.yul\":1602:1614   */\n      add\n        /* \"#utility.yul\":1595:1614   */\n      swap1\n      pop\n        /* \"#utility.yul\":1254:1620   */\n      swap2\n      swap1\n      pop\n      jump\t// out\n        /* \"#utility.yul\":1626:1992   */\n    tag_131:\n        /* \"#utility.yul\":1768:1771   */\n      0x00\n        /* \"#utility.yul\":1789:1856   */\n      tag_133\n        /* \"#utility.yul\":1853:1855   */\n      0x20\n        /* \"#utility.yul\":1848:1851   */\n      dup4\n        /* \"#utility.yul\":1789:1856   */\n      tag_128\n      jump\t// in\n    tag_133:\n        /* \"#utility.yul\":1782:1856   */\n      swap2\n      pop\n        /* \"#utility.yul\":1865:1958   */\n      tag_134\n        /* \"#utility.yul\":1954:1957   */\n      dup3\n        /* \"#utility.yul\":1865:1958   */\n      tag_135\n      jump\t// in\n    tag_134:\n        /* \"#utility.yul\":1983:1985   */\n      0x20\n        /* \"#utility.yul\":1978:1981   */\n      dup3\n        /* \"#utility.yul\":1974:1986   */\n      add\n        /* \"#utility.yul\":1967:1986   */\n      swap1\n      pop\n        /* \"#utility.yul\":1626:1992   */\n      swap2\n      swap1\n      pop\n      jump\t// out\n        /* \"#utility.yul\":1998:2364   */\n    tag_136:\n        /* \"#utility.yul\":2140:2143   */\n      0x00\n        /* \"#utility.yul\":2161:2228   */\n      tag_138\n        /* \"#utility.yul\":2225:2227   */\n      0x16\n        /* \"#utility.yul\":2220:2223   */\n      dup4\n        /* \"#utility.yul\":2161:2228   */\n      tag_128\n      jump\t// in\n    tag_138:\n        /* \"#utility.yul\":2154:2228   */\n      swap2\n      pop\n        /* \"#utility.yul\":2237:2330   */\n      tag_139\n        /* \"#utility.yul\":2326:2329   */\n      dup3\n        /* \"#utility.yul\":2237:2330   */\n      tag_140\n      jump\t// in\n    tag_139:\n        /* \"#utility.yul\":2355:2357   */\n      0x20\n        /* \"#utility.yul\":2350:2353   */\n      dup3\n        /* \"#utility.yul\":2346:2358   */\n      add\n        /* \"#utility.yul\":2339:2358   */\n      swap1\n      pop\n        /* \"#utility.yul\":1998:2364   */\n      swap2\n      swap1\n      pop\n      jump\t// out\n        /* \"#utility.yul\":2370:2488   */\n    tag_141:\n        /* \"#utility.yul\":2457:2481   */\n      tag_143\n        /* \"#utility.yul\":2475:2480   */\n      dup2\n        /* \"#utility.yul\":2457:2481   */\n      tag_144\n      jump\t// in\n    tag_143:\n        /* \"#utility.yul\":2452:2455   */\n      dup3\n        /* \"#utility.yul\":2445:2482   */\n      mstore\n        /* \"#utility.yul\":2370:2488   */\n      pop\n      pop\n      jump\t// out\n        /* \"#utility.yul\":2494:2716   */\n    tag_44:\n        /* \"#utility.yul\":2587:2591   */\n      0x00\n        /* \"#utility.yul\":2625:2627   */\n      0x20\n        /* \"#utility.yul\":2614:2623   */\n      dup3\n        /* \"#utility.yul\":2610:2628   */\n      add\n        /* \"#utility.yul\":2602:2628   */\n      swap1\n      pop\n        /* \"#utility.yul\":2638:2709   */\n      tag_146\n        /* \"#utility.yul\":2706:2707   */\n      0x00\n        /* \"#utility.yul\":2695:2704   */\n      dup4\n        /* \"#utility.yul\":2691:2708   */\n      add\n        /* \"#utility.yul\":2682:2688   */\n      dup5\n        /* \"#utility.yul\":2638:2709   */\n      tag_117\n      jump\t// in\n    tag_146:\n        /* \"#utility.yul\":2494:2716   */\n      swap3\n      swap2\n      pop\n      pop\n      jump\t// out\n        /* \"#utility.yul\":2722:3054   */\n    tag_20:\n        /* \"#utility.yul\":2843:2847   */\n      0x00\n        /* \"#utility.yul\":2881:2883   */\n      0x40\n        /* \"#utility.yul\":2870:2879   */\n      dup3\n        /* \"#utility.yul\":2866:2884   */\n      add\n        /* \"#utility.yul\":2858:2884   */\n      swap1\n      pop\n        /* \"#utility.yul\":2894:2965   */\n      tag_148\n        /* \"#utility.yul\":2962:2963   */\n      0x00\n        /* \"#utility.yul\":2951:2960   */\n      dup4\n        /* \"#utility.yul\":2947:2964   */\n      add\n        /* \"#utility.yul\":2938:2944   */\n      dup6\n        /* \"#utility.yul\":2894:2965   */\n      tag_117\n      jump\t// in\n    tag_148:\n        /* \"#utility.yul\":2975:3047   */\n      tag_149\n        /* \"#utility.yul\":3043:3045   */\n      0x20\n        /* \"#utility.yul\":3032:3041   */\n      dup4\n        /* \"#utility.yul\":3028:3046   */\n      add\n        /* \"#utility.yul\":3019:3025   */\n      dup5\n        /* \"#utility.yul\":2975:3047   */\n      tag_141\n      jump\t// in\n    tag_149:\n        /* \"#utility.yul\":2722:3054   */\n      swap4\n      swap3\n      pop\n      pop\n      pop\n      jump\t// out\n        /* \"#utility.yul\":3060:3308   */\n    tag_35:\n        /* \"#utility.yul\":3166:3170   */\n      0x00\n        /* \"#utility.yul\":3204:3206   */\n      0x20\n        /* \"#utility.yul\":3193:3202   */\n      dup3\n        /* \"#utility.yul\":3189:3207   */\n      add\n        /* \"#utility.yul\":3181:3207   */\n      swap1\n      pop\n        /* \"#utility.yul\":3217:3301   */\n      tag_151\n        /* \"#utility.yul\":3298:3299   */\n      0x00\n        /* \"#utility.yul\":3287:3296   */\n      dup4\n        /* \"#utility.yul\":3283:3300   */\n      add\n        /* \"#utility.yul\":3274:3280   */\n      dup5\n        /* \"#utility.yul\":3217:3301   */\n      tag_121\n      jump\t// in\n    tag_151:\n        /* \"#utility.yul\":3060:3308   */\n      swap3\n      swap2\n      pop\n      pop\n      jump\t// out\n        /* \"#utility.yul\":3314:3733   */\n    tag_95:\n        /* \"#utility.yul\":3480:3484   */\n      0x00\n        /* \"#utility.yul\":3518:3520   */\n      0x20\n        /* \"#utility.yul\":3507:3516   */\n      dup3\n        /* \"#utility.yul\":3503:3521   */\n      add\n        /* \"#utility.yul\":3495:3521   */\n      swap1\n      pop\n        /* \"#utility.yul\":3567:3576   */\n      dup2\n        /* \"#utility.yul\":3561:3565   */\n      dup2\n        /* \"#utility.yul\":3557:3577   */\n      sub\n        /* \"#utility.yul\":3553:3554   */\n      0x00\n        /* \"#utility.yul\":3542:3551   */\n      dup4\n        /* \"#utility.yul\":3538:3555   */\n      add\n        /* \"#utility.yul\":3531:3578   */\n      mstore\n        /* \"#utility.yul\":3595:3726   */\n      tag_153\n        /* \"#utility.yul\":3721:3725   */\n      dup2\n        /* \"#utility.yul\":3595:3726   */\n      tag_125\n      jump\t// in\n    tag_153:\n        /* \"#utility.yul\":3587:3726   */\n      swap1\n      pop\n        /* \"#utility.yul\":3314:3733   */\n      swap2\n      swap1\n      pop\n      jump\t// out\n        /* \"#utility.yul\":3739:4158   */\n    tag_68:\n        /* \"#utility.yul\":3905:3909   */\n      0x00\n        /* \"#utility.yul\":3943:3945   */\n      0x20\n        /* \"#utility.yul\":3932:3941   */\n      dup3\n        /* \"#utility.yul\":3928:3946   */\n      add\n        /* \"#utility.yul\":3920:3946   */\n      swap1\n      pop\n        /* \"#utility.yul\":3992:4001   */\n      dup2\n        /* \"#utility.yul\":3986:3990   */\n      dup2\n        /* \"#utility.yul\":3982:4002   */\n      sub\n        /* \"#utility.yul\":3978:3979   */\n      0x00\n        /* \"#utility.yul\":3967:3976   */\n      dup4\n        /* \"#utility.yul\":3963:3980   */\n      add\n        /* \"#utility.yul\":3956:4003   */\n      mstore\n        /* \"#utility.yul\":4020:4151   */\n      tag_155\n        /* \"#utility.yul\":4146:4150   */\n      dup2\n        /* \"#utility.yul\":4020:4151   */\n      tag_131\n      jump\t// in\n    tag_155:\n        /* \"#utility.yul\":4012:4151   */\n      swap1\n      pop\n        /* \"#utility.yul\":3739:4158   */\n      swap2\n      swap1\n      pop\n      jump\t// out\n        /* \"#utility.yul\":4164:4583   */\n    tag_80:\n        /* \"#utility.yul\":4330:4334   */\n      0x00\n        /* \"#utility.yul\":4368:4370   */\n      0x20\n        /* \"#utility.yul\":4357:4366   */\n      dup3\n        /* \"#utility.yul\":4353:4371   */\n      add\n        /* \"#utility.yul\":4345:4371   */\n      swap1\n      pop\n        /* \"#utility.yul\":4417:4426   */\n      dup2\n        /* \"#utility.yul\":4411:4415   */\n      dup2\n        /* \"#utility.yul\":4407:4427   */\n      sub\n        /* \"#utility.yul\":4403:4404   */\n      0x00\n        /* \"#utility.yul\":4392:4401   */\n      dup4\n        /* \"#utility.yul\":4388:4405   */\n      add\n        /* \"#utility.yul\":4381:4428   */\n      mstore\n        /* \"#utility.yul\":4445:4576   */\n      tag_157\n        /* \"#utility.yul\":4571:4575   */\n      dup2\n        /* \"#utility.yul\":4445:4576   */\n      tag_136\n      jump\t// in\n    tag_157:\n        /* \"#utility.yul\":4437:4576   */\n      swap1\n      pop\n        /* \"#utility.yul\":4164:4583   */\n      swap2\n      swap1\n      pop\n      jump\t// out\n        /* \"#utility.yul\":4589:4811   */\n    tag_29:\n        /* \"#utility.yul\":4682:4686   */\n      0x00\n        /* \"#utility.yul\":4720:4722   */\n      0x20\n        /* \"#utility.yul\":4709:4718   */\n      dup3\n        /* \"#utility.yul\":4705:4723   */\n      add\n        /* \"#utility.yul\":4697:4723   */\n      swap1\n      pop\n        /* \"#utility.yul\":4733:4804   */\n      tag_159\n        /* \"#utility.yul\":4801:4802   */\n      0x00\n        /* \"#utility.yul\":4790:4799   */\n      dup4\n        /* \"#utility.yul\":4786:4803   */\n      add\n        /* \"#utility.yul\":4777:4783   */\n      dup5\n        /* \"#utility.yul\":4733:4804   */\n      tag_141\n      jump\t// in\n    tag_159:\n        /* \"#utility.yul\":4589:4811   */\n      swap3\n      swap2\n      pop\n      pop\n      jump\t// out\n        /* \"#utility.yul\":4817:5149   */\n    tag_49:\n        /* \"#utility.yul\":4938:4942   */\n      0x00\n        /* \"#utility.yul\":4976:4978   */\n      0x40\n        /* \"#utility.yul\":4965:4974   */\n      dup3\n        /* \"#utility.yul\":4961:4979   */\n      add\n        /* \"#utility.yul\":4953:4979   */\n      swap1\n      pop\n        /* \"#utility.yul\":4989:5060   */\n      tag_161\n        /* \"#utility.yul\":5057:5058   */\n      0x00\n        /* \"#utility.yul\":5046:5055   */\n      dup4\n        /* \"#utility.yul\":5042:5059   */\n      add\n        /* \"#utility.yul\":5033:5039   */\n      dup6\n        /* \"#utility.yul\":4989:5060   */\n      tag_141\n      jump\t// in\n    tag_161:\n        /* \"#utility.yul\":5070:5142   */\n      tag_162\n        /* \"#utility.yul\":5138:5140   */\n      0x20\n        /* \"#utility.yul\":5127:5136   */\n      dup4\n        /* \"#utility.yul\":5123:5141   */\n      add\n        /* \"#utility.yul\":5114:5120   */\n      dup5\n        /* \"#utility.yul\":5070:5142   */\n      tag_141\n      jump\t// in\n    tag_162:\n        /* \"#utility.yul\":4817:5149   */\n      swap4\n      swap3\n      pop\n      pop\n      pop\n      jump\t// out\n        /* \"#utility.yul\":5236:5405   */\n    tag_128:\n        /* \"#utility.yul\":5320:5331   */\n      0x00\n        /* \"#utility.yul\":5354:5360   */\n      dup3\n        /* \"#utility.yul\":5349:5352   */\n      dup3\n        /* \"#utility.yul\":5342:5361   */\n      mstore\n        /* \"#utility.yul\":5394:5398   */\n      0x20\n        /* \"#utility.yul\":5389:5392   */\n      dup3\n        /* \"#utility.yul\":5385:5399   */\n      add\n        /* \"#utility.yul\":5370:5399   */\n      swap1\n      pop\n        /* \"#utility.yul\":5236:5405   */\n      swap3\n      swap2\n      pop\n      pop\n      jump\t// out\n        /* \"#utility.yul\":5411:5507   */\n    tag_120:\n        /* \"#utility.yul\":5448:5455   */\n      0x00\n        /* \"#utility.yul\":5477:5501   */\n      tag_167\n        /* \"#utility.yul\":5495:5500   */\n      dup3\n        /* \"#utility.yul\":5477:5501   */\n      tag_168\n      jump\t// in\n    tag_167:\n        /* \"#utility.yul\":5466:5501   */\n      swap1\n      pop\n        /* \"#utility.yul\":5411:5507   */\n      swap2\n      swap1\n      pop\n      jump\t// out\n        /* \"#utility.yul\":5513:5639   */\n    tag_168:\n        /* \"#utility.yul\":5550:5557   */\n      0x00\n        /* \"#utility.yul\":5590:5632   */\n      0xffffffffffffffffffffffffffffffffffffffff\n        /* \"#utility.yul\":5583:5588   */\n      dup3\n        /* \"#utility.yul\":5579:5633   */\n      and\n        /* \"#utility.yul\":5568:5633   */\n      swap1\n      pop\n        /* \"#utility.yul\":5513:5639   */\n      swap2\n      swap1\n      pop\n      jump\t// out\n        /* \"#utility.yul\":5645:5722   */\n    tag_144:\n        /* \"#utility.yul\":5682:5689   */\n      0x00\n        /* \"#utility.yul\":5711:5716   */\n      dup2\n        /* \"#utility.yul\":5700:5716   */\n      swap1\n      pop\n        /* \"#utility.yul\":5645:5722   */\n      swap2\n      swap1\n      pop\n      jump\t// out\n        /* \"#utility.yul\":5728:5867   */\n    tag_124:\n        /* \"#utility.yul\":5791:5800   */\n      0x00\n        /* \"#utility.yul\":5824:5861   */\n      tag_172\n        /* \"#utility.yul\":5855:5860   */\n      dup3\n        /* \"#utility.yul\":5824:5861   */\n      tag_173\n      jump\t// in\n    tag_172:\n        /* \"#utility.yul\":5811:5861   */\n      swap1\n      pop\n        /* \"#utility.yul\":5728:5867   */\n      swap2\n      swap1\n      pop\n      jump\t// out\n        /* \"#utility.yul\":5873:5999   */\n    tag_173:\n        /* \"#utility.yul\":5923:5932   */\n      0x00\n        /* \"#utility.yul\":5956:5993   */\n      tag_175\n        /* \"#utility.yul\":5987:5992   */\n      dup3\n        /* \"#utility.yul\":5956:5993   */\n      tag_176\n      jump\t// in\n    tag_175:\n        /* \"#utility.yul\":5943:5993   */\n      swap1\n      pop\n        /* \"#utility.yul\":5873:5999   */\n      swap2\n      swap1\n      pop\n      jump\t// out\n        /* \"#utility.yul\":6005:6118   */\n    tag_176:\n        /* \"#utility.yul\":6055:6064   */\n      0x00\n        /* \"#utility.yul\":6088:6112   */\n      tag_178\n        /* \"#utility.yul\":6106:6111   */\n      dup3\n        /* \"#utility.yul\":6088:6112   */\n      tag_168\n      jump\t// in\n    tag_178:\n        /* \"#utility.yul\":6075:6112   */\n      swap1\n      pop\n        /* \"#utility.yul\":6005:6118   */\n      swap2\n      swap1\n      pop\n      jump\t// out\n        /* \"#utility.yul\":6124:6357   */\n    tag_61:\n        /* \"#utility.yul\":6163:6166   */\n      0x00\n        /* \"#utility.yul\":6186:6210   */\n      tag_180\n        /* \"#utility.yul\":6204:6209   */\n      dup3\n        /* \"#utility.yul\":6186:6210   */\n      tag_144\n      jump\t// in\n    tag_180:\n        /* \"#utility.yul\":6177:6210   */\n      swap2\n      pop\n        /* \"#utility.yul\":6232:6298   */\n      0xffffffffffffffffffffffffffffffffffffffffffffffffffffffffffffffff\n        /* \"#utility.yul\":6225:6230   */\n      dup3\n        /* \"#utility.yul\":6222:6299   */\n      eq\n        /* \"#utility.yul\":6219:6322   */\n      iszero\n      tag_181\n      jumpi\n        /* \"#utility.yul\":6302:6320   */\n      tag_182\n      tag_183\n      jump\t// in\n    tag_182:\n        /* \"#utility.yul\":6219:6322   */\n    tag_181:\n        /* \"#utility.yul\":6349:6350   */\n      0x01\n        /* \"#utility.yul\":6342:6347   */\n      dup3\n        /* \"#utility.yul\":6338:6351   */\n      add\n        /* \"#utility.yul\":6331:6351   */\n      swap1\n      pop\n        /* \"#utility.yul\":6124:6357   */\n      swap2\n      swap1\n      pop\n      jump\t// out\n        /* \"#utility.yul\":6363:6543   */\n    tag_183:\n        /* \"#utility.yul\":6411:6488   */\n      0x4e487b7100000000000000000000000000000000000000000000000000000000\n        /* \"#utility.yul\":6408:6409   */\n      0x00\n        /* \"#utility.yul\":6401:6489   */\n      mstore\n        /* \"#utility.yul\":6508:6512   */\n      0x11\n        /* \"#utility.yul\":6505:6506   */\n      0x04\n        /* \"#utility.yul\":6498:6513   */\n      mstore\n        /* \"#utility.yul\":6532:6536   */\n      0x24\n        /* \"#utility.yul\":6529:6530   */\n      0x00\n        /* \"#utility.yul\":6522:6537   */\n      revert\n        /* \"#utility.yul\":6672:6789   */\n    tag_111:\n        /* \"#utility.yul\":6781:6782   */\n      0x00\n        /* \"#utility.yul\":6778:6779   */\n      dup1\n        /* \"#utility.yul\":6771:6783   */\n      revert\n        /* \"#utility.yul\":6795:7020   */\n    tag_130:\n        /* \"#utility.yul\":6935:6969   */\n      0x4f776e61626c653a206e6577206f776e657220697320746865207a65726f2061\n        /* \"#utility.yul\":6931:6932   */\n      0x00\n        /* \"#utility.yul\":6923:6929   */\n      dup3\n        /* \"#utility.yul\":6919:6933   */\n      add\n        /* \"#utility.yul\":6912:6970   */\n      mstore\n        /* \"#utility.yul\":7004:7012   */\n      0x6464726573730000000000000000000000000000000000000000000000000000\n        /* \"#utility.yul\":6999:7001   */\n      0x20\n        /* \"#utility.yul\":6991:6997   */\n      dup3\n        /* \"#utility.yul\":6987:7002   */\n      add\n        /* \"#utility.yul\":6980:7013   */\n      mstore\n        /* \"#utility.yul\":6795:7020   */\n      pop\n      jump\t// out\n        /* \"#utility.yul\":7026:7208   */\n    tag_135:\n        /* \"#utility.yul\":7166:7200   */\n      0x4f776e61626c653a2063616c6c6572206973206e6f7420746865206f776e6572\n        /* \"#utility.yul\":7162:7163   */\n      0x00\n        /* \"#utility.yul\":7154:7160   */\n      dup3\n        /* \"#utility.yul\":7150:7164   */\n      add\n        /* \"#utility.yul\":7143:7201   */\n      mstore\n        /* \"#utility.yul\":7026:7208   */\n      pop\n      jump\t// out\n        /* \"#utility.yul\":7214:7386   */\n    tag_140:\n        /* \"#utility.yul\":7354:7378   */\n      0x596f7520646f6e74206861766520616e797468696e6700000000000000000000\n        /* \"#utility.yul\":7350:7351   */\n      0x00\n        /* \"#utility.yul\":7342:7348   */\n      dup3\n        /* \"#utility.yul\":7338:7352   */\n      add\n        /* \"#utility.yul\":7331:7379   */\n      mstore\n        /* \"#utility.yul\":7214:7386   */\n      pop\n      jump\t// out\n        /* \"#utility.yul\":7392:7514   */\n    tag_103:\n        /* \"#utility.yul\":7465:7489   */\n      tag_192\n        /* \"#utility.yul\":7483:7488   */\n      dup2\n        /* \"#utility.yul\":7465:7489   */\n      tag_120\n      jump\t// in\n    tag_192:\n        /* \"#utility.yul\":7458:7463   */\n      dup2\n        /* \"#utility.yul\":7455:7490   */\n      eq\n        /* \"#utility.yul\":7445:7508   */\n      tag_193\n      jumpi\n        /* \"#utility.yul\":7504:7505   */\n      0x00\n        /* \"#utility.yul\":7501:7502   */\n      dup1\n        /* \"#utility.yul\":7494:7506   */\n      revert\n        /* \"#utility.yul\":7445:7508   */\n    tag_193:\n        /* \"#utility.yul\":7392:7514   */\n      pop\n      jump\t// out\n        /* \"#utility.yul\":7520:7642   */\n    tag_107:\n        /* \"#utility.yul\":7593:7617   */\n      tag_195\n        /* \"#utility.yul\":7611:7616   */\n      dup2\n        /* \"#utility.yul\":7593:7617   */\n      tag_144\n      jump\t// in\n    tag_195:\n        /* \"#utility.yul\":7586:7591   */\n      dup2\n        /* \"#utility.yul\":7583:7618   */\n      eq\n        /* \"#utility.yul\":7573:7636   */\n      tag_196\n      jumpi\n        /* \"#utility.yul\":7632:7633   */\n      0x00\n        /* \"#utility.yul\":7629:7630   */\n      dup1\n        /* \"#utility.yul\":7622:7634   */\n      revert\n        /* \"#utility.yul\":7573:7636   */\n    tag_196:\n        /* \"#utility.yul\":7520:7642   */\n      pop\n      jump\t// out\n\n    auxdata: 0xa2646970667358221220517042dd94e22deee02dcc7d6f81628c10c88d6e3e030253a7b27fdb6d770d2b64736f6c63430008070033\n}\n",
				"bytecode": {
					"linkReferences": {},
					"object": "608060405234801561001057600080fd5b5061002d61002261008760201b60201c565b61008f60201b60201c565b73d7acd2a9fd159e69bb102a1ca21c9a3e3a5f771b600460006101000a81548173ffffffffffffffffffffffffffffffffffffffff021916908373ffffffffffffffffffffffffffffffffffffffff160217905550610153565b600033905090565b60008060009054906101000a900473ffffffffffffffffffffffffffffffffffffffff169050816000806101000a81548173ffffffffffffffffffffffffffffffffffffffff021916908373ffffffffffffffffffffffffffffffffffffffff1602179055508173ffffffffffffffffffffffffffffffffffffffff168173ffffffffffffffffffffffffffffffffffffffff167f8be0079c531659141344cd1fd0a4f28419497f9722a3daafe3b4186f6b6457e060405160405180910390a35050565b610b60806101626000396000f3fe608060405234801561001057600080fd5b50600436106100a95760003560e01c806377af32261161007157806377af32261461015357806389a302711461015d5780638da5cb5b1461017b578063beb400b114610199578063d80044f5146101ca578063f2fde38b146101e6576100a9565b80630eb96791146100ae5780632cbfe8d9146100df5780634ca431ab146100fb578063715018a61461012b578063754fe93e14610135575b600080fd5b6100c860048036038101906100c39190610795565b610202565b6040516100d6929190610873565b60405180910390f35b6100f960048036038101906100f49190610795565b610246565b005b61011560048036038101906101109190610768565b61028d565b6040516101229190610917565b60405180910390f35b6101336102a5565b005b61013d61032d565b60405161014a919061089c565b60405180910390f35b61015b610353565b005b610165610476565b604051610172919061089c565b60405180910390f35b61018361049c565b6040516101909190610858565b60405180910390f35b6101b360048036038101906101ae9190610768565b6104c5565b6040516101c1929190610932565b60405180910390f35b6101e460048036038101906101df9190610795565b6104e9565b005b61020060048036038101906101fb9190610768565b61057a565b005b60036020528060005260406000206000915090508060000160009054906101000a900473ffffffffffffffffffffffffffffffffffffffff16908060010154905082565b60006103e8905060005b600a81101561028857603260036000838152602001908152602001600020600101819055508080610280906109de565b915050610250565b505050565b60026020528060005260406000206000915090505481565b6102ad610672565b73ffffffffffffffffffffffffffffffffffffffff166102cb61049c565b73ffffffffffffffffffffffffffffffffffffffff1614610321576040517f08c379a0000000000000000000000000000000000000000000000000000000008152600401610318906108d7565b60405180910390fd5b61032b600061067a565b565b600560009054906101000a900473ffffffffffffffffffffffffffffffffffffffff1681565b61035b610672565b73ffffffffffffffffffffffffffffffffffffffff1661037961049c565b73ffffffffffffffffffffffffffffffffffffffff16146103cf576040517f08c379a00000000000000000000000000000000000000000000000000000000081526004016103c6906108d7565b60405180910390fd5b6000600160003373ffffffffffffffffffffffffffffffffffffffff1673ffffffffffffffffffffffffffffffffffffffff1681526020019081526020016000206001015411610454576040517f08c379a000000000000000000000000000000000000000000000000000000000815260040161044b906108f7565b60405180910390fd5b60005b600a81101561047357808061046b906109de565b915050610457565b50565b600460009054906101000a900473ffffffffffffffffffffffffffffffffffffffff1681565b60008060009054906101000a900473ffffffffffffffffffffffffffffffffffffffff16905090565b60016020528060005260406000206000915090508060000154908060010154905082565b42600160003373ffffffffffffffffffffffffffffffffffffffff1673ffffffffffffffffffffffffffffffffffffffff1681526020019081526020016000206000018190555080600160003373ffffffffffffffffffffffffffffffffffffffff1673ffffffffffffffffffffffffffffffffffffffff1681526020019081526020016000206001018190555050565b610582610672565b73ffffffffffffffffffffffffffffffffffffffff166105a061049c565b73ffffffffffffffffffffffffffffffffffffffff16146105f6576040517f08c379a00000000000000000000000000000000000000000000000000000000081526004016105ed906108d7565b60405180910390fd5b600073ffffffffffffffffffffffffffffffffffffffff168173ffffffffffffffffffffffffffffffffffffffff161415610666576040517f08c379a000000000000000000000000000000000000000000000000000000000815260040161065d906108b7565b60405180910390fd5b61066f8161067a565b50565b600033905090565b60008060009054906101000a900473ffffffffffffffffffffffffffffffffffffffff169050816000806101000a81548173ffffffffffffffffffffffffffffffffffffffff021916908373ffffffffffffffffffffffffffffffffffffffff1602179055508173ffffffffffffffffffffffffffffffffffffffff168173ffffffffffffffffffffffffffffffffffffffff167f8be0079c531659141344cd1fd0a4f28419497f9722a3daafe3b4186f6b6457e060405160405180910390a35050565b60008135905061074d81610afc565b92915050565b60008135905061076281610b13565b92915050565b60006020828403121561077e5761077d610a56565b5b600061078c8482850161073e565b91505092915050565b6000602082840312156107ab576107aa610a56565b5b60006107b984828501610753565b91505092915050565b6107cb8161096c565b82525050565b6107da816109a8565b82525050565b60006107ed60268361095b565b91506107f882610a5b565b604082019050919050565b600061081060208361095b565b915061081b82610aaa565b602082019050919050565b600061083360168361095b565b915061083e82610ad3565b602082019050919050565b6108528161099e565b82525050565b600060208201905061086d60008301846107c2565b92915050565b600060408201905061088860008301856107c2565b6108956020830184610849565b9392505050565b60006020820190506108b160008301846107d1565b92915050565b600060208201905081810360008301526108d0816107e0565b9050919050565b600060208201905081810360008301526108f081610803565b9050919050565b6000602082019050818103600083015261091081610826565b9050919050565b600060208201905061092c6000830184610849565b92915050565b60006040820190506109476000830185610849565b6109546020830184610849565b9392505050565b600082825260208201905092915050565b60006109778261097e565b9050919050565b600073ffffffffffffffffffffffffffffffffffffffff82169050919050565b6000819050919050565b60006109b3826109ba565b9050919050565b60006109c5826109cc565b9050919050565b60006109d78261097e565b9050919050565b60006109e98261099e565b91507fffffffffffffffffffffffffffffffffffffffffffffffffffffffffffffffff821415610a1c57610a1b610a27565b5b600182019050919050565b7f4e487b7100000000000000000000000000000000000000000000000000000000600052601160045260246000fd5b600080fd5b7f4f776e61626c653a206e6577206f776e657220697320746865207a65726f206160008201527f6464726573730000000000000000000000000000000000000000000000000000602082015250565b7f4f776e61626c653a2063616c6c6572206973206e6f7420746865206f776e6572600082015250565b7f596f7520646f6e74206861766520616e797468696e6700000000000000000000600082015250565b610b058161096c565b8114610b1057600080fd5b50565b610b1c8161099e565b8114610b2757600080fd5b5056fea2646970667358221220517042dd94e22deee02dcc7d6f81628c10c88d6e3e030253a7b27fdb6d770d2b64736f6c63430008070033",
					"opcodes": "PUSH1 0x80 PUSH1 0x40 MSTORE CALLVALUE DUP1 ISZERO PUSH2 0x10 JUMPI PUSH1 0x0 DUP1 REVERT JUMPDEST POP PUSH2 0x2D PUSH2 0x22 PUSH2 0x87 PUSH1 0x20 SHL PUSH1 0x20 SHR JUMP JUMPDEST PUSH2 0x8F PUSH1 0x20 SHL PUSH1 0x20 SHR JUMP JUMPDEST PUSH20 0xD7ACD2A9FD159E69BB102A1CA21C9A3E3A5F771B PUSH1 0x4 PUSH1 0x0 PUSH2 0x100 EXP DUP2 SLOAD DUP2 PUSH20 0xFFFFFFFFFFFFFFFFFFFFFFFFFFFFFFFFFFFFFFFF MUL NOT AND SWAP1 DUP4 PUSH20 0xFFFFFFFFFFFFFFFFFFFFFFFFFFFFFFFFFFFFFFFF AND MUL OR SWAP1 SSTORE POP PUSH2 0x153 JUMP JUMPDEST PUSH1 0x0 CALLER SWAP1 POP SWAP1 JUMP JUMPDEST PUSH1 0x0 DUP1 PUSH1 0x0 SWAP1 SLOAD SWAP1 PUSH2 0x100 EXP SWAP1 DIV PUSH20 0xFFFFFFFFFFFFFFFFFFFFFFFFFFFFFFFFFFFFFFFF AND SWAP1 POP DUP2 PUSH1 0x0 DUP1 PUSH2 0x100 EXP DUP2 SLOAD DUP2 PUSH20 0xFFFFFFFFFFFFFFFFFFFFFFFFFFFFFFFFFFFFFFFF MUL NOT AND SWAP1 DUP4 PUSH20 0xFFFFFFFFFFFFFFFFFFFFFFFFFFFFFFFFFFFFFFFF AND MUL OR SWAP1 SSTORE POP DUP2 PUSH20 0xFFFFFFFFFFFFFFFFFFFFFFFFFFFFFFFFFFFFFFFF AND DUP2 PUSH20 0xFFFFFFFFFFFFFFFFFFFFFFFFFFFFFFFFFFFFFFFF AND PUSH32 0x8BE0079C531659141344CD1FD0A4F28419497F9722A3DAAFE3B4186F6B6457E0 PUSH1 0x40 MLOAD PUSH1 0x40 MLOAD DUP1 SWAP2 SUB SWAP1 LOG3 POP POP JUMP JUMPDEST PUSH2 0xB60 DUP1 PUSH2 0x162 PUSH1 0x0 CODECOPY PUSH1 0x0 RETURN INVALID PUSH1 0x80 PUSH1 0x40 MSTORE CALLVALUE DUP1 ISZERO PUSH2 0x10 JUMPI PUSH1 0x0 DUP1 REVERT JUMPDEST POP PUSH1 0x4 CALLDATASIZE LT PUSH2 0xA9 JUMPI PUSH1 0x0 CALLDATALOAD PUSH1 0xE0 SHR DUP1 PUSH4 0x77AF3226 GT PUSH2 0x71 JUMPI DUP1 PUSH4 0x77AF3226 EQ PUSH2 0x153 JUMPI DUP1 PUSH4 0x89A30271 EQ PUSH2 0x15D JUMPI DUP1 PUSH4 0x8DA5CB5B EQ PUSH2 0x17B JUMPI DUP1 PUSH4 0xBEB400B1 EQ PUSH2 0x199 JUMPI DUP1 PUSH4 0xD80044F5 EQ PUSH2 0x1CA JUMPI DUP1 PUSH4 0xF2FDE38B EQ PUSH2 0x1E6 JUMPI PUSH2 0xA9 JUMP JUMPDEST DUP1 PUSH4 0xEB96791 EQ PUSH2 0xAE JUMPI DUP1 PUSH4 0x2CBFE8D9 EQ PUSH2 0xDF JUMPI DUP1 PUSH4 0x4CA431AB EQ PUSH2 0xFB JUMPI DUP1 PUSH4 0x715018A6 EQ PUSH2 0x12B JUMPI DUP1 PUSH4 0x754FE93E EQ PUSH2 0x135 JUMPI JUMPDEST PUSH1 0x0 DUP1 REVERT JUMPDEST PUSH2 0xC8 PUSH1 0x4 DUP1 CALLDATASIZE SUB DUP2 ADD SWAP1 PUSH2 0xC3 SWAP2 SWAP1 PUSH2 0x795 JUMP JUMPDEST PUSH2 0x202 JUMP JUMPDEST PUSH1 0x40 MLOAD PUSH2 0xD6 SWAP3 SWAP2 SWAP1 PUSH2 0x873 JUMP JUMPDEST PUSH1 0x40 MLOAD DUP1 SWAP2 SUB SWAP1 RETURN JUMPDEST PUSH2 0xF9 PUSH1 0x4 DUP1 CALLDATASIZE SUB DUP2 ADD SWAP1 PUSH2 0xF4 SWAP2 SWAP1 PUSH2 0x795 JUMP JUMPDEST PUSH2 0x246 JUMP JUMPDEST STOP JUMPDEST PUSH2 0x115 PUSH1 0x4 DUP1 CALLDATASIZE SUB DUP2 ADD SWAP1 PUSH2 0x110 SWAP2 SWAP1 PUSH2 0x768 JUMP JUMPDEST PUSH2 0x28D JUMP JUMPDEST PUSH1 0x40 MLOAD PUSH2 0x122 SWAP2 SWAP1 PUSH2 0x917 JUMP JUMPDEST PUSH1 0x40 MLOAD DUP1 SWAP2 SUB SWAP1 RETURN JUMPDEST PUSH2 0x133 PUSH2 0x2A5 JUMP JUMPDEST STOP JUMPDEST PUSH2 0x13D PUSH2 0x32D JUMP JUMPDEST PUSH1 0x40 MLOAD PUSH2 0x14A SWAP2 SWAP1 PUSH2 0x89C JUMP JUMPDEST PUSH1 0x40 MLOAD DUP1 SWAP2 SUB SWAP1 RETURN JUMPDEST PUSH2 0x15B PUSH2 0x353 JUMP JUMPDEST STOP JUMPDEST PUSH2 0x165 PUSH2 0x476 JUMP JUMPDEST PUSH1 0x40 MLOAD PUSH2 0x172 SWAP2 SWAP1 PUSH2 0x89C JUMP JUMPDEST PUSH1 0x40 MLOAD DUP1 SWAP2 SUB SWAP1 RETURN JUMPDEST PUSH2 0x183 PUSH2 0x49C JUMP JUMPDEST PUSH1 0x40 MLOAD PUSH2 0x190 SWAP2 SWAP1 PUSH2 0x858 JUMP JUMPDEST PUSH1 0x40 MLOAD DUP1 SWAP2 SUB SWAP1 RETURN JUMPDEST PUSH2 0x1B3 PUSH1 0x4 DUP1 CALLDATASIZE SUB DUP2 ADD SWAP1 PUSH2 0x1AE SWAP2 SWAP1 PUSH2 0x768 JUMP JUMPDEST PUSH2 0x4C5 JUMP JUMPDEST PUSH1 0x40 MLOAD PUSH2 0x1C1 SWAP3 SWAP2 SWAP1 PUSH2 0x932 JUMP JUMPDEST PUSH1 0x40 MLOAD DUP1 SWAP2 SUB SWAP1 RETURN JUMPDEST PUSH2 0x1E4 PUSH1 0x4 DUP1 CALLDATASIZE SUB DUP2 ADD SWAP1 PUSH2 0x1DF SWAP2 SWAP1 PUSH2 0x795 JUMP JUMPDEST PUSH2 0x4E9 JUMP JUMPDEST STOP JUMPDEST PUSH2 0x200 PUSH1 0x4 DUP1 CALLDATASIZE SUB DUP2 ADD SWAP1 PUSH2 0x1FB SWAP2 SWAP1 PUSH2 0x768 JUMP JUMPDEST PUSH2 0x57A JUMP JUMPDEST STOP JUMPDEST PUSH1 0x3 PUSH1 0x20 MSTORE DUP1 PUSH1 0x0 MSTORE PUSH1 0x40 PUSH1 0x0 KECCAK256 PUSH1 0x0 SWAP2 POP SWAP1 POP DUP1 PUSH1 0x0 ADD PUSH1 0x0 SWAP1 SLOAD SWAP1 PUSH2 0x100 EXP SWAP1 DIV PUSH20 0xFFFFFFFFFFFFFFFFFFFFFFFFFFFFFFFFFFFFFFFF AND SWAP1 DUP1 PUSH1 0x1 ADD SLOAD SWAP1 POP DUP3 JUMP JUMPDEST PUSH1 0x0 PUSH2 0x3E8 SWAP1 POP PUSH1 0x0 JUMPDEST PUSH1 0xA DUP2 LT ISZERO PUSH2 0x288 JUMPI PUSH1 0x32 PUSH1 0x3 PUSH1 0x0 DUP4 DUP2 MSTORE PUSH1 0x20 ADD SWAP1 DUP2 MSTORE PUSH1 0x20 ADD PUSH1 0x0 KECCAK256 PUSH1 0x1 ADD DUP2 SWAP1 SSTORE POP DUP1 DUP1 PUSH2 0x280 SWAP1 PUSH2 0x9DE JUMP JUMPDEST SWAP2 POP POP PUSH2 0x250 JUMP JUMPDEST POP POP POP JUMP JUMPDEST PUSH1 0x2 PUSH1 0x20 MSTORE DUP1 PUSH1 0x0 MSTORE PUSH1 0x40 PUSH1 0x0 KECCAK256 PUSH1 0x0 SWAP2 POP SWAP1 POP SLOAD DUP2 JUMP JUMPDEST PUSH2 0x2AD PUSH2 0x672 JUMP JUMPDEST PUSH20 0xFFFFFFFFFFFFFFFFFFFFFFFFFFFFFFFFFFFFFFFF AND PUSH2 0x2CB PUSH2 0x49C JUMP JUMPDEST PUSH20 0xFFFFFFFFFFFFFFFFFFFFFFFFFFFFFFFFFFFFFFFF AND EQ PUSH2 0x321 JUMPI PUSH1 0x40 MLOAD PUSH32 0x8C379A000000000000000000000000000000000000000000000000000000000 DUP2 MSTORE PUSH1 0x4 ADD PUSH2 0x318 SWAP1 PUSH2 0x8D7 JUMP JUMPDEST PUSH1 0x40 MLOAD DUP1 SWAP2 SUB SWAP1 REVERT JUMPDEST PUSH2 0x32B PUSH1 0x0 PUSH2 0x67A JUMP JUMPDEST JUMP JUMPDEST PUSH1 0x5 PUSH1 0x0 SWAP1 SLOAD SWAP1 PUSH2 0x100 EXP SWAP1 DIV PUSH20 0xFFFFFFFFFFFFFFFFFFFFFFFFFFFFFFFFFFFFFFFF AND DUP2 JUMP JUMPDEST PUSH2 0x35B PUSH2 0x672 JUMP JUMPDEST PUSH20 0xFFFFFFFFFFFFFFFFFFFFFFFFFFFFFFFFFFFFFFFF AND PUSH2 0x379 PUSH2 0x49C JUMP JUMPDEST PUSH20 0xFFFFFFFFFFFFFFFFFFFFFFFFFFFFFFFFFFFFFFFF AND EQ PUSH2 0x3CF JUMPI PUSH1 0x40 MLOAD PUSH32 0x8C379A000000000000000000000000000000000000000000000000000000000 DUP2 MSTORE PUSH1 0x4 ADD PUSH2 0x3C6 SWAP1 PUSH2 0x8D7 JUMP JUMPDEST PUSH1 0x40 MLOAD DUP1 SWAP2 SUB SWAP1 REVERT JUMPDEST PUSH1 0x0 PUSH1 0x1 PUSH1 0x0 CALLER PUSH20 0xFFFFFFFFFFFFFFFFFFFFFFFFFFFFFFFFFFFFFFFF AND PUSH20 0xFFFFFFFFFFFFFFFFFFFFFFFFFFFFFFFFFFFFFFFF AND DUP2 MSTORE PUSH1 0x20 ADD SWAP1 DUP2 MSTORE PUSH1 0x20 ADD PUSH1 0x0 KECCAK256 PUSH1 0x1 ADD SLOAD GT PUSH2 0x454 JUMPI PUSH1 0x40 MLOAD PUSH32 0x8C379A000000000000000000000000000000000000000000000000000000000 DUP2 MSTORE PUSH1 0x4 ADD PUSH2 0x44B SWAP1 PUSH2 0x8F7 JUMP JUMPDEST PUSH1 0x40 MLOAD DUP1 SWAP2 SUB SWAP1 REVERT JUMPDEST PUSH1 0x0 JUMPDEST PUSH1 0xA DUP2 LT ISZERO PUSH2 0x473 JUMPI DUP1 DUP1 PUSH2 0x46B SWAP1 PUSH2 0x9DE JUMP JUMPDEST SWAP2 POP POP PUSH2 0x457 JUMP JUMPDEST POP JUMP JUMPDEST PUSH1 0x4 PUSH1 0x0 SWAP1 SLOAD SWAP1 PUSH2 0x100 EXP SWAP1 DIV PUSH20 0xFFFFFFFFFFFFFFFFFFFFFFFFFFFFFFFFFFFFFFFF AND DUP2 JUMP JUMPDEST PUSH1 0x0 DUP1 PUSH1 0x0 SWAP1 SLOAD SWAP1 PUSH2 0x100 EXP SWAP1 DIV PUSH20 0xFFFFFFFFFFFFFFFFFFFFFFFFFFFFFFFFFFFFFFFF AND SWAP1 POP SWAP1 JUMP JUMPDEST PUSH1 0x1 PUSH1 0x20 MSTORE DUP1 PUSH1 0x0 MSTORE PUSH1 0x40 PUSH1 0x0 KECCAK256 PUSH1 0x0 SWAP2 POP SWAP1 POP DUP1 PUSH1 0x0 ADD SLOAD SWAP1 DUP1 PUSH1 0x1 ADD SLOAD SWAP1 POP DUP3 JUMP JUMPDEST TIMESTAMP PUSH1 0x1 PUSH1 0x0 CALLER PUSH20 0xFFFFFFFFFFFFFFFFFFFFFFFFFFFFFFFFFFFFFFFF AND PUSH20 0xFFFFFFFFFFFFFFFFFFFFFFFFFFFFFFFFFFFFFFFF AND DUP2 MSTORE PUSH1 0x20 ADD SWAP1 DUP2 MSTORE PUSH1 0x20 ADD PUSH1 0x0 KECCAK256 PUSH1 0x0 ADD DUP2 SWAP1 SSTORE POP DUP1 PUSH1 0x1 PUSH1 0x0 CALLER PUSH20 0xFFFFFFFFFFFFFFFFFFFFFFFFFFFFFFFFFFFFFFFF AND PUSH20 0xFFFFFFFFFFFFFFFFFFFFFFFFFFFFFFFFFFFFFFFF AND DUP2 MSTORE PUSH1 0x20 ADD SWAP1 DUP2 MSTORE PUSH1 0x20 ADD PUSH1 0x0 KECCAK256 PUSH1 0x1 ADD DUP2 SWAP1 SSTORE POP POP JUMP JUMPDEST PUSH2 0x582 PUSH2 0x672 JUMP JUMPDEST PUSH20 0xFFFFFFFFFFFFFFFFFFFFFFFFFFFFFFFFFFFFFFFF AND PUSH2 0x5A0 PUSH2 0x49C JUMP JUMPDEST PUSH20 0xFFFFFFFFFFFFFFFFFFFFFFFFFFFFFFFFFFFFFFFF AND EQ PUSH2 0x5F6 JUMPI PUSH1 0x40 MLOAD PUSH32 0x8C379A000000000000000000000000000000000000000000000000000000000 DUP2 MSTORE PUSH1 0x4 ADD PUSH2 0x5ED SWAP1 PUSH2 0x8D7 JUMP JUMPDEST PUSH1 0x40 MLOAD DUP1 SWAP2 SUB SWAP1 REVERT JUMPDEST PUSH1 0x0 PUSH20 0xFFFFFFFFFFFFFFFFFFFFFFFFFFFFFFFFFFFFFFFF AND DUP2 PUSH20 0xFFFFFFFFFFFFFFFFFFFFFFFFFFFFFFFFFFFFFFFF AND EQ ISZERO PUSH2 0x666 JUMPI PUSH1 0x40 MLOAD PUSH32 0x8C379A000000000000000000000000000000000000000000000000000000000 DUP2 MSTORE PUSH1 0x4 ADD PUSH2 0x65D SWAP1 PUSH2 0x8B7 JUMP JUMPDEST PUSH1 0x40 MLOAD DUP1 SWAP2 SUB SWAP1 REVERT JUMPDEST PUSH2 0x66F DUP2 PUSH2 0x67A JUMP JUMPDEST POP JUMP JUMPDEST PUSH1 0x0 CALLER SWAP1 POP SWAP1 JUMP JUMPDEST PUSH1 0x0 DUP1 PUSH1 0x0 SWAP1 SLOAD SWAP1 PUSH2 0x100 EXP SWAP1 DIV PUSH20 0xFFFFFFFFFFFFFFFFFFFFFFFFFFFFFFFFFFFFFFFF AND SWAP1 POP DUP2 PUSH1 0x0 DUP1 PUSH2 0x100 EXP DUP2 SLOAD DUP2 PUSH20 0xFFFFFFFFFFFFFFFFFFFFFFFFFFFFFFFFFFFFFFFF MUL NOT AND SWAP1 DUP4 PUSH20 0xFFFFFFFFFFFFFFFFFFFFFFFFFFFFFFFFFFFFFFFF AND MUL OR SWAP1 SSTORE POP DUP2 PUSH20 0xFFFFFFFFFFFFFFFFFFFFFFFFFFFFFFFFFFFFFFFF AND DUP2 PUSH20 0xFFFFFFFFFFFFFFFFFFFFFFFFFFFFFFFFFFFFFFFF AND PUSH32 0x8BE0079C531659141344CD1FD0A4F28419497F9722A3DAAFE3B4186F6B6457E0 PUSH1 0x40 MLOAD PUSH1 0x40 MLOAD DUP1 SWAP2 SUB SWAP1 LOG3 POP POP JUMP JUMPDEST PUSH1 0x0 DUP2 CALLDATALOAD SWAP1 POP PUSH2 0x74D DUP2 PUSH2 0xAFC JUMP JUMPDEST SWAP3 SWAP2 POP POP JUMP JUMPDEST PUSH1 0x0 DUP2 CALLDATALOAD SWAP1 POP PUSH2 0x762 DUP2 PUSH2 0xB13 JUMP JUMPDEST SWAP3 SWAP2 POP POP JUMP JUMPDEST PUSH1 0x0 PUSH1 0x20 DUP3 DUP5 SUB SLT ISZERO PUSH2 0x77E JUMPI PUSH2 0x77D PUSH2 0xA56 JUMP JUMPDEST JUMPDEST PUSH1 0x0 PUSH2 0x78C DUP5 DUP3 DUP6 ADD PUSH2 0x73E JUMP JUMPDEST SWAP2 POP POP SWAP3 SWAP2 POP POP JUMP JUMPDEST PUSH1 0x0 PUSH1 0x20 DUP3 DUP5 SUB SLT ISZERO PUSH2 0x7AB JUMPI PUSH2 0x7AA PUSH2 0xA56 JUMP JUMPDEST JUMPDEST PUSH1 0x0 PUSH2 0x7B9 DUP5 DUP3 DUP6 ADD PUSH2 0x753 JUMP JUMPDEST SWAP2 POP POP SWAP3 SWAP2 POP POP JUMP JUMPDEST PUSH2 0x7CB DUP2 PUSH2 0x96C JUMP JUMPDEST DUP3 MSTORE POP POP JUMP JUMPDEST PUSH2 0x7DA DUP2 PUSH2 0x9A8 JUMP JUMPDEST DUP3 MSTORE POP POP JUMP JUMPDEST PUSH1 0x0 PUSH2 0x7ED PUSH1 0x26 DUP4 PUSH2 0x95B JUMP JUMPDEST SWAP2 POP PUSH2 0x7F8 DUP3 PUSH2 0xA5B JUMP JUMPDEST PUSH1 0x40 DUP3 ADD SWAP1 POP SWAP2 SWAP1 POP JUMP JUMPDEST PUSH1 0x0 PUSH2 0x810 PUSH1 0x20 DUP4 PUSH2 0x95B JUMP JUMPDEST SWAP2 POP PUSH2 0x81B DUP3 PUSH2 0xAAA JUMP JUMPDEST PUSH1 0x20 DUP3 ADD SWAP1 POP SWAP2 SWAP1 POP JUMP JUMPDEST PUSH1 0x0 PUSH2 0x833 PUSH1 0x16 DUP4 PUSH2 0x95B JUMP JUMPDEST SWAP2 POP PUSH2 0x83E DUP3 PUSH2 0xAD3 JUMP JUMPDEST PUSH1 0x20 DUP3 ADD SWAP1 POP SWAP2 SWAP1 POP JUMP JUMPDEST PUSH2 0x852 DUP2 PUSH2 0x99E JUMP JUMPDEST DUP3 MSTORE POP POP JUMP JUMPDEST PUSH1 0x0 PUSH1 0x20 DUP3 ADD SWAP1 POP PUSH2 0x86D PUSH1 0x0 DUP4 ADD DUP5 PUSH2 0x7C2 JUMP JUMPDEST SWAP3 SWAP2 POP POP JUMP JUMPDEST PUSH1 0x0 PUSH1 0x40 DUP3 ADD SWAP1 POP PUSH2 0x888 PUSH1 0x0 DUP4 ADD DUP6 PUSH2 0x7C2 JUMP JUMPDEST PUSH2 0x895 PUSH1 0x20 DUP4 ADD DUP5 PUSH2 0x849 JUMP JUMPDEST SWAP4 SWAP3 POP POP POP JUMP JUMPDEST PUSH1 0x0 PUSH1 0x20 DUP3 ADD SWAP1 POP PUSH2 0x8B1 PUSH1 0x0 DUP4 ADD DUP5 PUSH2 0x7D1 JUMP JUMPDEST SWAP3 SWAP2 POP POP JUMP JUMPDEST PUSH1 0x0 PUSH1 0x20 DUP3 ADD SWAP1 POP DUP2 DUP2 SUB PUSH1 0x0 DUP4 ADD MSTORE PUSH2 0x8D0 DUP2 PUSH2 0x7E0 JUMP JUMPDEST SWAP1 POP SWAP2 SWAP1 POP JUMP JUMPDEST PUSH1 0x0 PUSH1 0x20 DUP3 ADD SWAP1 POP DUP2 DUP2 SUB PUSH1 0x0 DUP4 ADD MSTORE PUSH2 0x8F0 DUP2 PUSH2 0x803 JUMP JUMPDEST SWAP1 POP SWAP2 SWAP1 POP JUMP JUMPDEST PUSH1 0x0 PUSH1 0x20 DUP3 ADD SWAP1 POP DUP2 DUP2 SUB PUSH1 0x0 DUP4 ADD MSTORE PUSH2 0x910 DUP2 PUSH2 0x826 JUMP JUMPDEST SWAP1 POP SWAP2 SWAP1 POP JUMP JUMPDEST PUSH1 0x0 PUSH1 0x20 DUP3 ADD SWAP1 POP PUSH2 0x92C PUSH1 0x0 DUP4 ADD DUP5 PUSH2 0x849 JUMP JUMPDEST SWAP3 SWAP2 POP POP JUMP JUMPDEST PUSH1 0x0 PUSH1 0x40 DUP3 ADD SWAP1 POP PUSH2 0x947 PUSH1 0x0 DUP4 ADD DUP6 PUSH2 0x849 JUMP JUMPDEST PUSH2 0x954 PUSH1 0x20 DUP4 ADD DUP5 PUSH2 0x849 JUMP JUMPDEST SWAP4 SWAP3 POP POP POP JUMP JUMPDEST PUSH1 0x0 DUP3 DUP3 MSTORE PUSH1 0x20 DUP3 ADD SWAP1 POP SWAP3 SWAP2 POP POP JUMP JUMPDEST PUSH1 0x0 PUSH2 0x977 DUP3 PUSH2 0x97E JUMP JUMPDEST SWAP1 POP SWAP2 SWAP1 POP JUMP JUMPDEST PUSH1 0x0 PUSH20 0xFFFFFFFFFFFFFFFFFFFFFFFFFFFFFFFFFFFFFFFF DUP3 AND SWAP1 POP SWAP2 SWAP1 POP JUMP JUMPDEST PUSH1 0x0 DUP2 SWAP1 POP SWAP2 SWAP1 POP JUMP JUMPDEST PUSH1 0x0 PUSH2 0x9B3 DUP3 PUSH2 0x9BA JUMP JUMPDEST SWAP1 POP SWAP2 SWAP1 POP JUMP JUMPDEST PUSH1 0x0 PUSH2 0x9C5 DUP3 PUSH2 0x9CC JUMP JUMPDEST SWAP1 POP SWAP2 SWAP1 POP JUMP JUMPDEST PUSH1 0x0 PUSH2 0x9D7 DUP3 PUSH2 0x97E JUMP JUMPDEST SWAP1 POP SWAP2 SWAP1 POP JUMP JUMPDEST PUSH1 0x0 PUSH2 0x9E9 DUP3 PUSH2 0x99E JUMP JUMPDEST SWAP2 POP PUSH32 0xFFFFFFFFFFFFFFFFFFFFFFFFFFFFFFFFFFFFFFFFFFFFFFFFFFFFFFFFFFFFFFFF DUP3 EQ ISZERO PUSH2 0xA1C JUMPI PUSH2 0xA1B PUSH2 0xA27 JUMP JUMPDEST JUMPDEST PUSH1 0x1 DUP3 ADD SWAP1 POP SWAP2 SWAP1 POP JUMP JUMPDEST PUSH32 0x4E487B7100000000000000000000000000000000000000000000000000000000 PUSH1 0x0 MSTORE PUSH1 0x11 PUSH1 0x4 MSTORE PUSH1 0x24 PUSH1 0x0 REVERT JUMPDEST PUSH1 0x0 DUP1 REVERT JUMPDEST PUSH32 0x4F776E61626C653A206E6577206F776E657220697320746865207A65726F2061 PUSH1 0x0 DUP3 ADD MSTORE PUSH32 0x6464726573730000000000000000000000000000000000000000000000000000 PUSH1 0x20 DUP3 ADD MSTORE POP JUMP JUMPDEST PUSH32 0x4F776E61626C653A2063616C6C6572206973206E6F7420746865206F776E6572 PUSH1 0x0 DUP3 ADD MSTORE POP JUMP JUMPDEST PUSH32 0x596F7520646F6E74206861766520616E797468696E6700000000000000000000 PUSH1 0x0 DUP3 ADD MSTORE POP JUMP JUMPDEST PUSH2 0xB05 DUP2 PUSH2 0x96C JUMP JUMPDEST DUP2 EQ PUSH2 0xB10 JUMPI PUSH1 0x0 DUP1 REVERT JUMPDEST POP JUMP JUMPDEST PUSH2 0xB1C DUP2 PUSH2 0x99E JUMP JUMPDEST DUP2 EQ PUSH2 0xB27 JUMPI PUSH1 0x0 DUP1 REVERT JUMPDEST POP JUMP INVALID LOG2 PUSH5 0x6970667358 0x22 SLT KECCAK256 MLOAD PUSH17 0x42DD94E22DEEE02DCC7D6F81628C10C88D PUSH15 0x3E030253A7B27FDB6D770D2B64736F PUSH13 0x63430008070033000000000000 "
				},
				"gasEstimates": {
					"creation": {
						"codeDepositCost": "582400",
						"executionCost": "infinite",
						"totalCost": "infinite"
					},
					"external": {
						"Bton()": "2689",
						"USDC()": "2622",
						"airdroppedHistory(address)": "2859",
						"btonHoldings(address)": "infinite",
						"calcAirdropRate(uint256)": "infinite",
						"owner()": "2566",
						"renounceOwnership()": "30441",
						"toDistribute(uint256)": "infinite",
						"transferOwnership(address)": "30833",
						"updateBtonHoldings(uint256)": "44911",
						"withdrawAirDrop()": "infinite"
					}
				},
				"methodIdentifiers": {
					"Bton()": "754fe93e",
					"USDC()": "89a30271",
					"airdroppedHistory(address)": "4ca431ab",
					"btonHoldings(address)": "beb400b1",
					"calcAirdropRate(uint256)": "2cbfe8d9",
					"owner()": "8da5cb5b",
					"renounceOwnership()": "715018a6",
					"toDistribute(uint256)": "0eb96791",
					"transferOwnership(address)": "f2fde38b",
					"updateBtonHoldings(uint256)": "d80044f5",
					"withdrawAirDrop()": "77af3226"
				}
			},
			"userdoc": {
				"kind": "user",
				"methods": {},
				"version": 1
			}
		}
	}
}