{
	"WandInstruments.sol": {
		"testSticks": {
			"abi": [
				{
					"inputs": [],
					"stateMutability": "nonpayable",
					"type": "constructor"
				},
				{
					"anonymous": false,
					"inputs": [
						{
							"indexed": true,
							"internalType": "address",
							"name": "_from",
							"type": "address"
						},
						{
							"indexed": false,
							"internalType": "uint256",
							"name": "_amount",
							"type": "uint256"
						}
					],
					"name": "sceptersBought",
					"type": "event"
				},
				{
					"anonymous": false,
					"inputs": [
						{
							"indexed": true,
							"internalType": "address",
							"name": "_from",
							"type": "address"
						},
						{
							"indexed": false,
							"internalType": "uint256",
							"name": "_amount",
							"type": "uint256"
						}
					],
					"name": "sceptersSold",
					"type": "event"
				},
				{
					"inputs": [],
					"name": "BTON",
					"outputs": [
						{
							"internalType": "contract IERC20",
							"name": "",
							"type": "address"
						}
					],
					"stateMutability": "view",
					"type": "function"
				},
				{
					"inputs": [],
					"name": "SPTR",
					"outputs": [
						{
							"internalType": "contract IERC20",
							"name": "",
							"type": "address"
						}
					],
					"stateMutability": "view",
					"type": "function"
				},
				{
					"inputs": [],
					"name": "WAND",
					"outputs": [
						{
							"internalType": "contract IERC20",
							"name": "",
							"type": "address"
						}
					],
					"stateMutability": "view",
					"type": "function"
				},
				{
					"inputs": [
						{
							"internalType": "string",
							"name": "_ticker",
							"type": "string"
						},
						{
							"internalType": "address",
							"name": "_addr",
							"type": "address"
						},
						{
							"internalType": "uint256",
							"name": "_dec",
							"type": "uint256"
						}
					],
					"name": "addStable",
					"outputs": [],
					"stateMutability": "nonpayable",
					"type": "function"
				},
				{
					"inputs": [
						{
							"internalType": "uint256",
							"name": "amountSCPtoBuy",
							"type": "uint256"
						},
						{
							"internalType": "string",
							"name": "_stableChosen",
							"type": "string"
						}
					],
					"name": "buyScepter",
					"outputs": [],
					"stateMutability": "nonpayable",
					"type": "function"
				},
				{
					"inputs": [
						{
							"internalType": "uint256",
							"name": "amountSCPtoSell",
							"type": "uint256"
						},
						{
							"internalType": "uint256",
							"name": "timeChosenLocked",
							"type": "uint256"
						},
						{
							"internalType": "string",
							"name": "_stableChosen",
							"type": "string"
						}
					],
					"name": "cashOutScepter",
					"outputs": [],
					"stateMutability": "payable",
					"type": "function"
				},
				{
					"inputs": [
						{
							"internalType": "uint256",
							"name": "",
							"type": "uint256"
						}
					],
					"name": "circulatingSupplyXDays",
					"outputs": [
						{
							"internalType": "uint256",
							"name": "",
							"type": "uint256"
						}
					],
					"stateMutability": "view",
					"type": "function"
				},
				{
					"inputs": [
						{
							"internalType": "address",
							"name": "_claimant",
							"type": "address"
						},
						{
							"internalType": "string",
							"name": "_stableChosen",
							"type": "string"
						}
					],
					"name": "claimLockedUSDC",
					"outputs": [],
					"stateMutability": "nonpayable",
					"type": "function"
				},
				{
					"inputs": [],
					"name": "daysInCalculation",
					"outputs": [
						{
							"internalType": "uint256",
							"name": "",
							"type": "uint256"
						}
					],
					"stateMutability": "view",
					"type": "function"
				},
				{
					"inputs": [],
					"name": "devWalletAddr",
					"outputs": [
						{
							"internalType": "address",
							"name": "",
							"type": "address"
						}
					],
					"stateMutability": "view",
					"type": "function"
				},
				{
					"inputs": [],
					"name": "getBackingPrice",
					"outputs": [
						{
							"internalType": "uint256",
							"name": "",
							"type": "uint256"
						}
					],
					"stateMutability": "nonpayable",
					"type": "function"
				},
				{
					"inputs": [],
					"name": "getBuyPrice",
					"outputs": [
						{
							"internalType": "uint256",
							"name": "",
							"type": "uint256"
						}
					],
					"stateMutability": "nonpayable",
					"type": "function"
				},
				{
					"inputs": [],
					"name": "getCircSupplyXDays",
					"outputs": [
						{
							"internalType": "uint256",
							"name": "",
							"type": "uint256"
						}
					],
					"stateMutability": "view",
					"type": "function"
				},
				{
					"inputs": [],
					"name": "getGrowthFactor",
					"outputs": [
						{
							"internalType": "uint256",
							"name": "",
							"type": "uint256"
						}
					],
					"stateMutability": "view",
					"type": "function"
				},
				{
					"inputs": [],
					"name": "getSellFactor",
					"outputs": [
						{
							"internalType": "uint256",
							"name": "",
							"type": "uint256"
						}
					],
					"stateMutability": "view",
					"type": "function"
				},
				{
					"inputs": [],
					"name": "getSellPrice",
					"outputs": [
						{
							"internalType": "uint256",
							"name": "",
							"type": "uint256"
						}
					],
					"stateMutability": "nonpayable",
					"type": "function"
				},
				{
					"inputs": [],
					"name": "getTokensBoughtXDays",
					"outputs": [
						{
							"internalType": "uint256",
							"name": "",
							"type": "uint256"
						}
					],
					"stateMutability": "view",
					"type": "function"
				},
				{
					"inputs": [],
					"name": "getTokensSoldXDays",
					"outputs": [
						{
							"internalType": "uint256",
							"name": "",
							"type": "uint256"
						}
					],
					"stateMutability": "view",
					"type": "function"
				},
				{
					"inputs": [],
					"name": "growthFactor",
					"outputs": [
						{
							"internalType": "uint256",
							"name": "",
							"type": "uint256"
						}
					],
					"stateMutability": "view",
					"type": "function"
				},
				{
					"inputs": [],
					"name": "res",
					"outputs": [
						{
							"internalType": "int128",
							"name": "",
							"type": "int128"
						}
					],
					"stateMutability": "view",
					"type": "function"
				},
				{
					"inputs": [],
					"name": "riskTreasuryAddr",
					"outputs": [
						{
							"internalType": "address",
							"name": "",
							"type": "address"
						}
					],
					"stateMutability": "view",
					"type": "function"
				},
				{
					"inputs": [],
					"name": "scepterTreasuryAddr",
					"outputs": [
						{
							"internalType": "address",
							"name": "",
							"type": "address"
						}
					],
					"stateMutability": "view",
					"type": "function"
				},
				{
					"inputs": [],
					"name": "sellFactor",
					"outputs": [
						{
							"internalType": "uint256",
							"name": "",
							"type": "uint256"
						}
					],
					"stateMutability": "view",
					"type": "function"
				},
				{
					"inputs": [
						{
							"internalType": "uint256",
							"name": "numDays",
							"type": "uint256"
						}
					],
					"name": "setDaysUsedInFactors",
					"outputs": [],
					"stateMutability": "nonpayable",
					"type": "function"
				},
				{
					"inputs": [
						{
							"internalType": "string",
							"name": "",
							"type": "string"
						}
					],
					"name": "stableERC20Info",
					"outputs": [
						{
							"internalType": "address",
							"name": "contractAddress",
							"type": "address"
						},
						{
							"internalType": "uint256",
							"name": "tokenDecimals",
							"type": "uint256"
						}
					],
					"stateMutability": "view",
					"type": "function"
				},
				{
					"inputs": [
						{
							"internalType": "uint256",
							"name": "amt",
							"type": "uint256"
						}
					],
					"name": "testUpdatetimeLockedminus",
					"outputs": [],
					"stateMutability": "nonpayable",
					"type": "function"
				},
				{
					"inputs": [
						{
							"internalType": "uint256",
							"name": "amt",
							"type": "uint256"
						}
					],
					"name": "testUpdatetimeLockedplus",
					"outputs": [],
					"stateMutability": "nonpayable",
					"type": "function"
				},
				{
					"inputs": [],
					"name": "testwallet",
					"outputs": [
						{
							"internalType": "address",
							"name": "",
							"type": "address"
						}
					],
					"stateMutability": "view",
					"type": "function"
				},
				{
					"inputs": [],
					"name": "timeLaunched",
					"outputs": [
						{
							"internalType": "uint256",
							"name": "",
							"type": "uint256"
						}
					],
					"stateMutability": "view",
					"type": "function"
				},
				{
					"inputs": [],
					"name": "tokenStable",
					"outputs": [
						{
							"internalType": "contract IERC20",
							"name": "",
							"type": "address"
						}
					],
					"stateMutability": "view",
					"type": "function"
				},
				{
					"inputs": [
						{
							"internalType": "uint256",
							"name": "",
							"type": "uint256"
						}
					],
					"name": "tokensBoughtXDays",
					"outputs": [
						{
							"internalType": "uint256",
							"name": "",
							"type": "uint256"
						}
					],
					"stateMutability": "view",
					"type": "function"
				},
				{
					"inputs": [
						{
							"internalType": "uint256",
							"name": "",
							"type": "uint256"
						}
					],
					"name": "tokensSoldXDays",
					"outputs": [
						{
							"internalType": "uint256",
							"name": "",
							"type": "uint256"
						}
					],
					"stateMutability": "view",
					"type": "function"
				},
				{
					"inputs": [
						{
							"internalType": "uint256",
							"name": "amountSCPtoSwap",
							"type": "uint256"
						}
					],
					"name": "transformScepterToBaton",
					"outputs": [],
					"stateMutability": "payable",
					"type": "function"
				},
				{
					"inputs": [],
					"name": "treasury1Addr",
					"outputs": [
						{
							"internalType": "address",
							"name": "",
							"type": "address"
						}
					],
					"stateMutability": "view",
					"type": "function"
				},
				{
					"inputs": [],
					"name": "treasury1bal",
					"outputs": [
						{
							"internalType": "uint256",
							"name": "",
							"type": "uint256"
						}
					],
					"stateMutability": "view",
					"type": "function"
				},
				{
					"inputs": [
						{
							"internalType": "address",
							"name": "_addr",
							"type": "address"
						}
					],
					"name": "whitelist",
					"outputs": [],
					"stateMutability": "nonpayable",
					"type": "function"
				},
				{
					"inputs": [
						{
							"internalType": "uint256",
							"name": "_amtToWithdraw",
							"type": "uint256"
						}
					],
					"name": "withdrawStables",
					"outputs": [],
					"stateMutability": "nonpayable",
					"type": "function"
				},
				{
					"inputs": [
						{
							"internalType": "address",
							"name": "",
							"type": "address"
						}
					],
					"name": "withheldWithdrawals",
					"outputs": [
						{
							"internalType": "uint256",
							"name": "timeUnlocked",
							"type": "uint256"
						},
						{
							"internalType": "uint256",
							"name": "amounts",
							"type": "uint256"
						}
					],
					"stateMutability": "view",
					"type": "function"
				}
			],
			"devdoc": {
				"kind": "dev",
				"methods": {},
				"version": 1
			},
			"evm": {
				"assembly": "    /* \"WandInstruments.sol\":157:15557  contract testSticks is ReentrancyGuard{\r... */\n  mstore(0x40, 0x80)\n    /* \"WandInstruments.sol\":985:991  100000 */\n  0x0186a0\n    /* \"WandInstruments.sol\":954:991  uint256 private ft5daybought = 100000 */\n  0x0e\n  sstore\n    /* \"WandInstruments.sol\":1027:1032  90000 */\n  0x015f90\n    /* \"WandInstruments.sol\":998:1032  uint256 private ft5daysold = 90000 */\n  0x0f\n  sstore\n    /* \"WandInstruments.sol\":1074:1080  600000 */\n  0x0927c0\n    /* \"WandInstruments.sol\":1039:1080  uint256 private double5daytokens = 600000 */\n  0x10\n  sstore\n    /* \"WandInstruments.sol\":1201:1243  0x617F2E2fD72FD9D5503197092aC168c91465E7f2 */\n  0x617f2e2fd72fd9d5503197092ac168c91465e7f2\n    /* \"WandInstruments.sol\":1173:1243  address public testwallet = 0x617F2E2fD72FD9D5503197092aC168c91465E7f2 */\n  0x12\n  exp(0x0100, 0x00)\n  dup2\n  sload\n  dup2\n  0xffffffffffffffffffffffffffffffffffffffff\n  mul\n  not\n  and\n  swap1\n  dup4\n  0xffffffffffffffffffffffffffffffffffffffff\n  and\n  mul\n  or\n  swap1\n  sstore\n  pop\n    /* \"WandInstruments.sol\":2462:3727  constructor() {   \r... */\n  callvalue\n  dup1\n  iszero\n  tag_1\n  jumpi\n  0x00\n  dup1\n  revert\ntag_1:\n  pop\n    /* \"ReentrancyGuard.sol\":1734:1735  1 */\n  0x01\n    /* \"ReentrancyGuard.sol\":1845:1852  _status */\n  0x00\n    /* \"ReentrancyGuard.sol\":1845:1867  _status = _NOT_ENTERED */\n  dup2\n  swap1\n  sstore\n  pop\n    /* \"WandInstruments.sol\":2559:2601  0xb27A31f1b0AF2946B7F582768f03239b1eC07c2c */\n  0xb27a31f1b0af2946b7f582768f03239b1ec07c2c\n    /* \"WandInstruments.sol\":2545:2549  SPTR */\n  0x13\n  0x00\n    /* \"WandInstruments.sol\":2545:2602  SPTR = IERC20(0xb27A31f1b0AF2946B7F582768f03239b1eC07c2c) */\n  0x0100\n  exp\n  dup2\n  sload\n  dup2\n  0xffffffffffffffffffffffffffffffffffffffff\n  mul\n  not\n  and\n  swap1\n  dup4\n  0xffffffffffffffffffffffffffffffffffffffff\n  and\n  mul\n  or\n  swap1\n  sstore\n  pop\n    /* \"WandInstruments.sol\":2627:2669  0x5FD6eB55D12E759a21C09eF703fe0CBa1DC9d88D */\n  0x5fd6eb55d12e759a21c09ef703fe0cba1dc9d88d\n    /* \"WandInstruments.sol\":2613:2617  WAND */\n  0x14\n  0x00\n    /* \"WandInstruments.sol\":2613:2670  WAND = IERC20(0x5FD6eB55D12E759a21C09eF703fe0CBa1DC9d88D) */\n  0x0100\n  exp\n  dup2\n  sload\n  dup2\n  0xffffffffffffffffffffffffffffffffffffffff\n  mul\n  not\n  and\n  swap1\n  dup4\n  0xffffffffffffffffffffffffffffffffffffffff\n  and\n  mul\n  or\n  swap1\n  sstore\n  pop\n    /* \"WandInstruments.sol\":2695:2737  0x7b96aF9Bd211cBf6BA5b0dd53aa61Dc5806b6AcE */\n  0x7b96af9bd211cbf6ba5b0dd53aa61dc5806b6ace\n    /* \"WandInstruments.sol\":2681:2685  BTON */\n  0x15\n  0x00\n    /* \"WandInstruments.sol\":2681:2738  BTON = IERC20(0x7b96aF9Bd211cBf6BA5b0dd53aa61Dc5806b6AcE) */\n  0x0100\n  exp\n  dup2\n  sload\n  dup2\n  0xffffffffffffffffffffffffffffffffffffffff\n  mul\n  not\n  and\n  swap1\n  dup4\n  0xffffffffffffffffffffffffffffffffffffffff\n  and\n  mul\n  or\n  swap1\n  sstore\n  pop\n    /* \"WandInstruments.sol\":2850:2892  0x5e17b14ADd6c386305A32928F985b29bbA34Eff5 */\n  0x5e17b14add6c386305a32928f985b29bba34eff5\n    /* \"WandInstruments.sol\":2808:2823  stableERC20Info */\n  0x1a\n    /* \"WandInstruments.sol\":2808:2831  stableERC20Info[\"USDC\"] */\n  mload(0x40)\n  tag_6\n  swap1\n  tag_7\n  jump\t// in\ntag_6:\n  swap1\n  dup2\n  mstore\n  0x20\n  add\n  mload(0x40)\n  dup1\n  swap2\n  sub\n  swap1\n  keccak256\n    /* \"WandInstruments.sol\":2808:2847  stableERC20Info[\"USDC\"].contractAddress */\n  0x00\n  add\n  0x00\n    /* \"WandInstruments.sol\":2808:2892  stableERC20Info[\"USDC\"].contractAddress = 0x5e17b14ADd6c386305A32928F985b29bbA34Eff5 */\n  0x0100\n  exp\n  dup2\n  sload\n  dup2\n  0xffffffffffffffffffffffffffffffffffffffff\n  mul\n  not\n  and\n  swap1\n  dup4\n  0xffffffffffffffffffffffffffffffffffffffff\n  and\n  mul\n  or\n  swap1\n  sstore\n  pop\n    /* \"WandInstruments.sol\":2943:2944  6 */\n  0x06\n    /* \"WandInstruments.sol\":2903:2918  stableERC20Info */\n  0x1a\n    /* \"WandInstruments.sol\":2903:2926  stableERC20Info[\"USDC\"] */\n  mload(0x40)\n  tag_8\n  swap1\n  tag_7\n  jump\t// in\ntag_8:\n  swap1\n  dup2\n  mstore\n  0x20\n  add\n  mload(0x40)\n  dup1\n  swap2\n  sub\n  swap1\n  keccak256\n    /* \"WandInstruments.sol\":2903:2940  stableERC20Info[\"USDC\"].tokenDecimals */\n  0x01\n  add\n    /* \"WandInstruments.sol\":2903:2944  stableERC20Info[\"USDC\"].tokenDecimals = 6 */\n  dup2\n  swap1\n  sstore\n  pop\n    /* \"WandInstruments.sol\":3016:3058  0x2A4a8Ab6A0Bc0d377098F8688F77003833BC1C9d */\n  0x2a4a8ab6a0bc0d377098f8688f77003833bc1c9d\n    /* \"WandInstruments.sol\":2975:2990  stableERC20Info */\n  0x1a\n    /* \"WandInstruments.sol\":2975:2997  stableERC20Info[\"DAI\"] */\n  mload(0x40)\n  tag_9\n  swap1\n  tag_10\n  jump\t// in\ntag_9:\n  swap1\n  dup2\n  mstore\n  0x20\n  add\n  mload(0x40)\n  dup1\n  swap2\n  sub\n  swap1\n  keccak256\n    /* \"WandInstruments.sol\":2975:3013  stableERC20Info[\"DAI\"].contractAddress */\n  0x00\n  add\n  0x00\n    /* \"WandInstruments.sol\":2975:3058  stableERC20Info[\"DAI\"].contractAddress = 0x2A4a8Ab6A0Bc0d377098F8688F77003833BC1C9d */\n  0x0100\n  exp\n  dup2\n  sload\n  dup2\n  0xffffffffffffffffffffffffffffffffffffffff\n  mul\n  not\n  and\n  swap1\n  dup4\n  0xffffffffffffffffffffffffffffffffffffffff\n  and\n  mul\n  or\n  swap1\n  sstore\n  pop\n    /* \"WandInstruments.sol\":3108:3110  18 */\n  0x12\n    /* \"WandInstruments.sol\":3069:3084  stableERC20Info */\n  0x1a\n    /* \"WandInstruments.sol\":3069:3091  stableERC20Info[\"DAI\"] */\n  mload(0x40)\n  tag_11\n  swap1\n  tag_10\n  jump\t// in\ntag_11:\n  swap1\n  dup2\n  mstore\n  0x20\n  add\n  mload(0x40)\n  dup1\n  swap2\n  sub\n  swap1\n  keccak256\n    /* \"WandInstruments.sol\":3069:3105  stableERC20Info[\"DAI\"].tokenDecimals */\n  0x01\n  add\n    /* \"WandInstruments.sol\":3069:3110  stableERC20Info[\"DAI\"].tokenDecimals = 18 */\n  dup2\n  swap1\n  sstore\n  pop\n    /* \"WandInstruments.sol\":3184:3226  0xdc301622e621166BD8E82f2cA0A26c13Ad0BE355 */\n  0xdc301622e621166bd8e82f2ca0a26c13ad0be355\n    /* \"WandInstruments.sol\":3142:3157  stableERC20Info */\n  0x1a\n    /* \"WandInstruments.sol\":3142:3165  stableERC20Info[\"FRAX\"] */\n  mload(0x40)\n  tag_12\n  swap1\n  tag_13\n  jump\t// in\ntag_12:\n  swap1\n  dup2\n  mstore\n  0x20\n  add\n  mload(0x40)\n  dup1\n  swap2\n  sub\n  swap1\n  keccak256\n    /* \"WandInstruments.sol\":3142:3181  stableERC20Info[\"FRAX\"].contractAddress */\n  0x00\n  add\n  0x00\n    /* \"WandInstruments.sol\":3142:3226  stableERC20Info[\"FRAX\"].contractAddress = 0xdc301622e621166BD8E82f2cA0A26c13Ad0BE355 */\n  0x0100\n  exp\n  dup2\n  sload\n  dup2\n  0xffffffffffffffffffffffffffffffffffffffff\n  mul\n  not\n  and\n  swap1\n  dup4\n  0xffffffffffffffffffffffffffffffffffffffff\n  and\n  mul\n  or\n  swap1\n  sstore\n  pop\n    /* \"WandInstruments.sol\":3277:3279  18 */\n  0x12\n    /* \"WandInstruments.sol\":3237:3252  stableERC20Info */\n  0x1a\n    /* \"WandInstruments.sol\":3237:3260  stableERC20Info[\"FRAX\"] */\n  mload(0x40)\n  tag_14\n  swap1\n  tag_13\n  jump\t// in\ntag_14:\n  swap1\n  dup2\n  mstore\n  0x20\n  add\n  mload(0x40)\n  dup1\n  swap2\n  sub\n  swap1\n  keccak256\n    /* \"WandInstruments.sol\":3237:3274  stableERC20Info[\"FRAX\"].tokenDecimals */\n  0x01\n  add\n    /* \"WandInstruments.sol\":3237:3279  stableERC20Info[\"FRAX\"].tokenDecimals = 18 */\n  dup2\n  swap1\n  sstore\n  pop\n    /* \"WandInstruments.sol\":3328:3370  0x617F2E2fD72FD9D5503197092aC168c91465E7f2 */\n  0x617f2e2fd72fd9d5503197092ac168c91465e7f2\n    /* \"WandInstruments.sol\":3312:3325  treasury1Addr */\n  0x07\n  0x00\n    /* \"WandInstruments.sol\":3312:3370  treasury1Addr = 0x617F2E2fD72FD9D5503197092aC168c91465E7f2 */\n  0x0100\n  exp\n  dup2\n  sload\n  dup2\n  0xffffffffffffffffffffffffffffffffffffffff\n  mul\n  not\n  and\n  swap1\n  dup4\n  0xffffffffffffffffffffffffffffffffffffffff\n  and\n  mul\n  or\n  swap1\n  sstore\n  pop\n    /* \"WandInstruments.sol\":3569:3584  block.timestamp */\n  timestamp\n    /* \"WandInstruments.sol\":3554:3566  timeLaunched */\n  0x0c\n    /* \"WandInstruments.sol\":3554:3584  timeLaunched = block.timestamp */\n  dup2\n  swap1\n  sstore\n  pop\n    /* \"WandInstruments.sol\":3615:3621  5 days */\n  0x069780\n    /* \"WandInstruments.sol\":3595:3612  daysInCalculation */\n  0x0d\n    /* \"WandInstruments.sol\":3595:3621  daysInCalculation = 5 days */\n  dup2\n  swap1\n  sstore\n  pop\n    /* \"WandInstruments.sol\":157:15557  contract testSticks is ReentrancyGuard{\r... */\n  jump(tag_15)\n    /* \"#utility.yul\":7:407   */\ntag_17:\n    /* \"#utility.yul\":167:170   */\n  0x00\n    /* \"#utility.yul\":188:272   */\n  tag_19\n    /* \"#utility.yul\":270:271   */\n  0x04\n    /* \"#utility.yul\":265:268   */\n  dup4\n    /* \"#utility.yul\":188:272   */\n  tag_20\n  jump\t// in\ntag_19:\n    /* \"#utility.yul\":181:272   */\n  swap2\n  pop\n    /* \"#utility.yul\":281:374   */\n  tag_21\n    /* \"#utility.yul\":370:373   */\n  dup3\n    /* \"#utility.yul\":281:374   */\n  tag_22\n  jump\t// in\ntag_21:\n    /* \"#utility.yul\":399:400   */\n  0x04\n    /* \"#utility.yul\":394:397   */\n  dup3\n    /* \"#utility.yul\":390:401   */\n  add\n    /* \"#utility.yul\":383:401   */\n  swap1\n  pop\n    /* \"#utility.yul\":7:407   */\n  swap2\n  swap1\n  pop\n  jump\t// out\n    /* \"#utility.yul\":413:813   */\ntag_23:\n    /* \"#utility.yul\":573:576   */\n  0x00\n    /* \"#utility.yul\":594:678   */\n  tag_25\n    /* \"#utility.yul\":676:677   */\n  0x03\n    /* \"#utility.yul\":671:674   */\n  dup4\n    /* \"#utility.yul\":594:678   */\n  tag_20\n  jump\t// in\ntag_25:\n    /* \"#utility.yul\":587:678   */\n  swap2\n  pop\n    /* \"#utility.yul\":687:780   */\n  tag_26\n    /* \"#utility.yul\":776:779   */\n  dup3\n    /* \"#utility.yul\":687:780   */\n  tag_27\n  jump\t// in\ntag_26:\n    /* \"#utility.yul\":805:806   */\n  0x03\n    /* \"#utility.yul\":800:803   */\n  dup3\n    /* \"#utility.yul\":796:807   */\n  add\n    /* \"#utility.yul\":789:807   */\n  swap1\n  pop\n    /* \"#utility.yul\":413:813   */\n  swap2\n  swap1\n  pop\n  jump\t// out\n    /* \"#utility.yul\":819:1219   */\ntag_28:\n    /* \"#utility.yul\":979:982   */\n  0x00\n    /* \"#utility.yul\":1000:1084   */\n  tag_30\n    /* \"#utility.yul\":1082:1083   */\n  0x04\n    /* \"#utility.yul\":1077:1080   */\n  dup4\n    /* \"#utility.yul\":1000:1084   */\n  tag_20\n  jump\t// in\ntag_30:\n    /* \"#utility.yul\":993:1084   */\n  swap2\n  pop\n    /* \"#utility.yul\":1093:1186   */\n  tag_31\n    /* \"#utility.yul\":1182:1185   */\n  dup3\n    /* \"#utility.yul\":1093:1186   */\n  tag_32\n  jump\t// in\ntag_31:\n    /* \"#utility.yul\":1211:1212   */\n  0x04\n    /* \"#utility.yul\":1206:1209   */\n  dup3\n    /* \"#utility.yul\":1202:1213   */\n  add\n    /* \"#utility.yul\":1195:1213   */\n  swap1\n  pop\n    /* \"#utility.yul\":819:1219   */\n  swap2\n  swap1\n  pop\n  jump\t// out\n    /* \"#utility.yul\":1225:1606   */\ntag_13:\n    /* \"#utility.yul\":1410:1413   */\n  0x00\n    /* \"#utility.yul\":1432:1580   */\n  tag_34\n    /* \"#utility.yul\":1576:1579   */\n  dup3\n    /* \"#utility.yul\":1432:1580   */\n  tag_17\n  jump\t// in\ntag_34:\n    /* \"#utility.yul\":1425:1580   */\n  swap2\n  pop\n    /* \"#utility.yul\":1597:1600   */\n  dup2\n    /* \"#utility.yul\":1590:1600   */\n  swap1\n  pop\n    /* \"#utility.yul\":1225:1606   */\n  swap2\n  swap1\n  pop\n  jump\t// out\n    /* \"#utility.yul\":1612:1993   */\ntag_10:\n    /* \"#utility.yul\":1797:1800   */\n  0x00\n    /* \"#utility.yul\":1819:1967   */\n  tag_36\n    /* \"#utility.yul\":1963:1966   */\n  dup3\n    /* \"#utility.yul\":1819:1967   */\n  tag_23\n  jump\t// in\ntag_36:\n    /* \"#utility.yul\":1812:1967   */\n  swap2\n  pop\n    /* \"#utility.yul\":1984:1987   */\n  dup2\n    /* \"#utility.yul\":1977:1987   */\n  swap1\n  pop\n    /* \"#utility.yul\":1612:1993   */\n  swap2\n  swap1\n  pop\n  jump\t// out\n    /* \"#utility.yul\":1999:2380   */\ntag_7:\n    /* \"#utility.yul\":2184:2187   */\n  0x00\n    /* \"#utility.yul\":2206:2354   */\n  tag_38\n    /* \"#utility.yul\":2350:2353   */\n  dup3\n    /* \"#utility.yul\":2206:2354   */\n  tag_28\n  jump\t// in\ntag_38:\n    /* \"#utility.yul\":2199:2354   */\n  swap2\n  pop\n    /* \"#utility.yul\":2371:2374   */\n  dup2\n    /* \"#utility.yul\":2364:2374   */\n  swap1\n  pop\n    /* \"#utility.yul\":1999:2380   */\n  swap2\n  swap1\n  pop\n  jump\t// out\n    /* \"#utility.yul\":2386:2534   */\ntag_20:\n    /* \"#utility.yul\":2488:2499   */\n  0x00\n    /* \"#utility.yul\":2525:2528   */\n  dup2\n    /* \"#utility.yul\":2510:2528   */\n  swap1\n  pop\n    /* \"#utility.yul\":2386:2534   */\n  swap3\n  swap2\n  pop\n  pop\n  jump\t// out\n    /* \"#utility.yul\":2540:2694   */\ntag_22:\n    /* \"#utility.yul\":2680:2686   */\n  0x4652415800000000000000000000000000000000000000000000000000000000\n    /* \"#utility.yul\":2676:2677   */\n  0x00\n    /* \"#utility.yul\":2668:2674   */\n  dup3\n    /* \"#utility.yul\":2664:2678   */\n  add\n    /* \"#utility.yul\":2657:2687   */\n  mstore\n    /* \"#utility.yul\":2540:2694   */\n  pop\n  jump\t// out\n    /* \"#utility.yul\":2700:2853   */\ntag_27:\n    /* \"#utility.yul\":2840:2845   */\n  0x4441490000000000000000000000000000000000000000000000000000000000\n    /* \"#utility.yul\":2836:2837   */\n  0x00\n    /* \"#utility.yul\":2828:2834   */\n  dup3\n    /* \"#utility.yul\":2824:2838   */\n  add\n    /* \"#utility.yul\":2817:2846   */\n  mstore\n    /* \"#utility.yul\":2700:2853   */\n  pop\n  jump\t// out\n    /* \"#utility.yul\":2859:3013   */\ntag_32:\n    /* \"#utility.yul\":2999:3005   */\n  0x5553444300000000000000000000000000000000000000000000000000000000\n    /* \"#utility.yul\":2995:2996   */\n  0x00\n    /* \"#utility.yul\":2987:2993   */\n  dup3\n    /* \"#utility.yul\":2983:2997   */\n  add\n    /* \"#utility.yul\":2976:3006   */\n  mstore\n    /* \"#utility.yul\":2859:3013   */\n  pop\n  jump\t// out\n    /* \"WandInstruments.sol\":157:15557  contract testSticks is ReentrancyGuard{\r... */\ntag_15:\n  dataSize(sub_0)\n  dup1\n  dataOffset(sub_0)\n  0x00\n  codecopy\n  0x00\n  return\nstop\n\nsub_0: assembly {\n        /* \"WandInstruments.sol\":157:15557  contract testSticks is ReentrancyGuard{\r... */\n      mstore(0x40, 0x80)\n      jumpi(tag_1, lt(calldatasize, 0x04))\n      shr(0xe0, calldataload(0x00))\n      dup1\n      0x6f10e285\n      gt\n      tag_40\n      jumpi\n      dup1\n      0xc0ca6fb4\n      gt\n      tag_41\n      jumpi\n      dup1\n      0xe5d98082\n      gt\n      tag_42\n      jumpi\n      dup1\n      0xe5d98082\n      eq\n      tag_35\n      jumpi\n      dup1\n      0xee620868\n      eq\n      tag_36\n      jumpi\n      dup1\n      0xeee05f5e\n      eq\n      tag_37\n      jumpi\n      dup1\n      0xfbbb4589\n      eq\n      tag_38\n      jumpi\n      dup1\n      0xfc361443\n      eq\n      tag_39\n      jumpi\n      jump(tag_1)\n    tag_42:\n      dup1\n      0xc0ca6fb4\n      eq\n      tag_30\n      jumpi\n      dup1\n      0xc0ce5889\n      eq\n      tag_31\n      jumpi\n      dup1\n      0xcbff4617\n      eq\n      tag_32\n      jumpi\n      dup1\n      0xd04d7908\n      eq\n      tag_33\n      jumpi\n      dup1\n      0xd82eddf2\n      eq\n      tag_34\n      jumpi\n      jump(tag_1)\n    tag_41:\n      dup1\n      0x93f7b711\n      gt\n      tag_43\n      jumpi\n      dup1\n      0x93f7b711\n      eq\n      tag_25\n      jumpi\n      dup1\n      0x9b19251a\n      eq\n      tag_26\n      jumpi\n      dup1\n      0xa475bf48\n      eq\n      tag_27\n      jumpi\n      dup1\n      0xbdad7f02\n      eq\n      tag_28\n      jumpi\n      dup1\n      0xc079d7f6\n      eq\n      tag_29\n      jumpi\n      jump(tag_1)\n    tag_43:\n      dup1\n      0x6f10e285\n      eq\n      tag_21\n      jumpi\n      dup1\n      0x7087a7a5\n      eq\n      tag_22\n      jumpi\n      dup1\n      0x71cd58f9\n      eq\n      tag_23\n      jumpi\n      dup1\n      0x862d1b35\n      eq\n      tag_24\n      jumpi\n      jump(tag_1)\n    tag_40:\n      dup1\n      0x1f564a06\n      gt\n      tag_44\n      jumpi\n      dup1\n      0x39ad95d6\n      gt\n      tag_45\n      jumpi\n      dup1\n      0x39ad95d6\n      eq\n      tag_16\n      jumpi\n      dup1\n      0x3c6eb17a\n      eq\n      tag_17\n      jumpi\n      dup1\n      0x43d32e9c\n      eq\n      tag_18\n      jumpi\n      dup1\n      0x67b48c91\n      eq\n      tag_19\n      jumpi\n      dup1\n      0x67e927a8\n      eq\n      tag_20\n      jumpi\n      jump(tag_1)\n    tag_45:\n      dup1\n      0x1f564a06\n      eq\n      tag_11\n      jumpi\n      dup1\n      0x26ae486e\n      eq\n      tag_12\n      jumpi\n      dup1\n      0x29982a32\n      eq\n      tag_13\n      jumpi\n      dup1\n      0x2a9f0fb1\n      eq\n      tag_14\n      jumpi\n      dup1\n      0x35453307\n      eq\n      tag_15\n      jumpi\n      jump(tag_1)\n    tag_44:\n      dup1\n      0x12b2ed94\n      gt\n      tag_46\n      jumpi\n      dup1\n      0x12b2ed94\n      eq\n      tag_6\n      jumpi\n      dup1\n      0x1514c976\n      eq\n      tag_7\n      jumpi\n      dup1\n      0x164c8501\n      eq\n      tag_8\n      jumpi\n      dup1\n      0x1a30e872\n      eq\n      tag_9\n      jumpi\n      dup1\n      0x1bc9cc45\n      eq\n      tag_10\n      jumpi\n      jump(tag_1)\n    tag_46:\n      dup1\n      0x018a25e8\n      eq\n      tag_2\n      jumpi\n      dup1\n      0x047729b0\n      eq\n      tag_3\n      jumpi\n      dup1\n      0x0ccaf04f\n      eq\n      tag_4\n      jumpi\n      dup1\n      0x0f65de3e\n      eq\n      tag_5\n      jumpi\n    tag_1:\n      0x00\n      dup1\n      revert\n        /* \"WandInstruments.sol\":11767:12036  function getBuyPrice() external returns (uint256){\r... */\n    tag_2:\n      callvalue\n      dup1\n      iszero\n      tag_47\n      jumpi\n      0x00\n      dup1\n      revert\n    tag_47:\n      pop\n      tag_48\n      tag_49\n      jump\t// in\n    tag_48:\n      mload(0x40)\n      tag_50\n      swap2\n      swap1\n      tag_51\n      jump\t// in\n    tag_50:\n      mload(0x40)\n      dup1\n      swap2\n      sub\n      swap1\n      return\n        /* \"WandInstruments.sol\":701:732  address public riskTreasuryAddr */\n    tag_3:\n      callvalue\n      dup1\n      iszero\n      tag_52\n      jumpi\n      0x00\n      dup1\n      revert\n    tag_52:\n      pop\n      tag_53\n      tag_54\n      jump\t// in\n    tag_53:\n      mload(0x40)\n      tag_55\n      swap2\n      swap1\n      tag_56\n      jump\t// in\n    tag_55:\n      mload(0x40)\n      dup1\n      swap2\n      sub\n      swap1\n      return\n        /* \"WandInstruments.sol\":10499:11394  function getSellFactor() external view returns (uint256){\r... */\n    tag_4:\n      callvalue\n      dup1\n      iszero\n      tag_57\n      jumpi\n      0x00\n      dup1\n      revert\n    tag_57:\n      pop\n      tag_58\n      tag_59\n      jump\t// in\n    tag_58:\n      mload(0x40)\n      tag_60\n      swap2\n      swap1\n      tag_51\n      jump\t// in\n    tag_60:\n      mload(0x40)\n      dup1\n      swap2\n      sub\n      swap1\n      return\n        /* \"WandInstruments.sol\":14519:14954  function getCircSupplyXDays() external view returns (uint256){\r... */\n    tag_5:\n      callvalue\n      dup1\n      iszero\n      tag_61\n      jumpi\n      0x00\n      dup1\n      revert\n    tag_61:\n      pop\n      tag_62\n      tag_63\n      jump\t// in\n    tag_62:\n      mload(0x40)\n      tag_64\n      swap2\n      swap1\n      tag_51\n      jump\t// in\n    tag_64:\n      mload(0x40)\n      dup1\n      swap2\n      sub\n      swap1\n      return\n        /* \"WandInstruments.sol\":2055:2115  mapping(address => lockedamounts) public withheldWithdrawals */\n    tag_6:\n      callvalue\n      dup1\n      iszero\n      tag_65\n      jumpi\n      0x00\n      dup1\n      revert\n    tag_65:\n      pop\n      tag_66\n      0x04\n      dup1\n      calldatasize\n      sub\n      dup2\n      add\n      swap1\n      tag_67\n      swap2\n      swap1\n      tag_68\n      jump\t// in\n    tag_67:\n      tag_69\n      jump\t// in\n    tag_66:\n      mload(0x40)\n      tag_70\n      swap3\n      swap2\n      swap1\n      tag_71\n      jump\t// in\n    tag_70:\n      mload(0x40)\n      dup1\n      swap2\n      sub\n      swap1\n      return\n        /* \"WandInstruments.sol\":1638:1688  mapping(uint256 => uint256) public tokensSoldXDays */\n    tag_7:\n      callvalue\n      dup1\n      iszero\n      tag_72\n      jumpi\n      0x00\n      dup1\n      revert\n    tag_72:\n      pop\n      tag_73\n      0x04\n      dup1\n      calldatasize\n      sub\n      dup2\n      add\n      swap1\n      tag_74\n      swap2\n      swap1\n      tag_75\n      jump\t// in\n    tag_74:\n      tag_76\n      jump\t// in\n    tag_73:\n      mload(0x40)\n      tag_77\n      swap2\n      swap1\n      tag_51\n      jump\t// in\n    tag_77:\n      mload(0x40)\n      dup1\n      swap2\n      sub\n      swap1\n      return\n        /* \"WandInstruments.sol\":13077:13579  function testUpdatetimeLockedminus(uint256 amt) public  {\r... */\n    tag_8:\n      callvalue\n      dup1\n      iszero\n      tag_78\n      jumpi\n      0x00\n      dup1\n      revert\n    tag_78:\n      pop\n      tag_79\n      0x04\n      dup1\n      calldatasize\n      sub\n      dup2\n      add\n      swap1\n      tag_80\n      swap2\n      swap1\n      tag_75\n      jump\t// in\n    tag_80:\n      tag_81\n      jump\t// in\n    tag_79:\n      stop\n        /* \"WandInstruments.sol\":1695:1752  mapping(uint256 => uint256) public circulatingSupplyXDays */\n    tag_9:\n      callvalue\n      dup1\n      iszero\n      tag_82\n      jumpi\n      0x00\n      dup1\n      revert\n    tag_82:\n      pop\n      tag_83\n      0x04\n      dup1\n      calldatasize\n      sub\n      dup2\n      add\n      swap1\n      tag_84\n      swap2\n      swap1\n      tag_75\n      jump\t// in\n    tag_84:\n      tag_85\n      jump\t// in\n    tag_83:\n      mload(0x40)\n      tag_86\n      swap2\n      swap1\n      tag_51\n      jump\t// in\n    tag_86:\n      mload(0x40)\n      dup1\n      swap2\n      sub\n      swap1\n      return\n        /* \"WandInstruments.sol\":7033:7780  function transformScepterToBaton(uint256 amountSCPtoSwap) public payable{\r... */\n    tag_10:\n      tag_87\n      0x04\n      dup1\n      calldatasize\n      sub\n      dup2\n      add\n      swap1\n      tag_88\n      swap2\n      swap1\n      tag_75\n      jump\t// in\n    tag_88:\n      tag_89\n      jump\t// in\n    tag_87:\n      stop\n        /* \"WandInstruments.sol\":11400:11761  function getBackingPrice() external returns (uint256){\r... */\n    tag_11:\n      callvalue\n      dup1\n      iszero\n      tag_90\n      jumpi\n      0x00\n      dup1\n      revert\n    tag_90:\n      pop\n      tag_91\n      tag_92\n      jump\t// in\n    tag_91:\n      mload(0x40)\n      tag_93\n      swap2\n      swap1\n      tag_51\n      jump\t// in\n    tag_93:\n      mload(0x40)\n      dup1\n      swap2\n      sub\n      swap1\n      return\n        /* \"WandInstruments.sol\":1419:1437  IERC20 public SPTR */\n    tag_12:\n      callvalue\n      dup1\n      iszero\n      tag_94\n      jumpi\n      0x00\n      dup1\n      revert\n    tag_94:\n      pop\n      tag_95\n      tag_96\n      jump\t// in\n    tag_95:\n      mload(0x40)\n      tag_97\n      swap2\n      swap1\n      tag_98\n      jump\t// in\n    tag_97:\n      mload(0x40)\n      dup1\n      swap2\n      sub\n      swap1\n      return\n        /* \"WandInstruments.sol\":739:767  address public devWalletAddr */\n    tag_13:\n      callvalue\n      dup1\n      iszero\n      tag_99\n      jumpi\n      0x00\n      dup1\n      revert\n    tag_99:\n      pop\n      tag_100\n      tag_101\n      jump\t// in\n    tag_100:\n      mload(0x40)\n      tag_102\n      swap2\n      swap1\n      tag_56\n      jump\t// in\n    tag_102:\n      mload(0x40)\n      dup1\n      swap2\n      sub\n      swap1\n      return\n        /* \"WandInstruments.sol\":1579:1631  mapping(uint256 => uint256) public tokensBoughtXDays */\n    tag_14:\n      callvalue\n      dup1\n      iszero\n      tag_103\n      jumpi\n      0x00\n      dup1\n      revert\n    tag_103:\n      pop\n      tag_104\n      0x04\n      dup1\n      calldatasize\n      sub\n      dup2\n      add\n      swap1\n      tag_105\n      swap2\n      swap1\n      tag_75\n      jump\t// in\n    tag_105:\n      tag_106\n      jump\t// in\n    tag_104:\n      mload(0x40)\n      tag_107\n      swap2\n      swap1\n      tag_51\n      jump\t// in\n    tag_107:\n      mload(0x40)\n      dup1\n      swap2\n      sub\n      swap1\n      return\n        /* \"WandInstruments.sol\":808:835  uint256 public treasury1bal */\n    tag_15:\n      callvalue\n      dup1\n      iszero\n      tag_108\n      jumpi\n      0x00\n      dup1\n      revert\n    tag_108:\n      pop\n      tag_109\n      tag_110\n      jump\t// in\n    tag_109:\n      mload(0x40)\n      tag_111\n      swap2\n      swap1\n      tag_51\n      jump\t// in\n    tag_111:\n      mload(0x40)\n      dup1\n      swap2\n      sub\n      swap1\n      return\n        /* \"WandInstruments.sol\":12509:12585  function withdrawStables(uint256 _amtToWithdraw) public onlyOwner {\r... */\n    tag_16:\n      callvalue\n      dup1\n      iszero\n      tag_112\n      jumpi\n      0x00\n      dup1\n      revert\n    tag_112:\n      pop\n      tag_113\n      0x04\n      dup1\n      calldatasize\n      sub\n      dup2\n      add\n      swap1\n      tag_114\n      swap2\n      swap1\n      tag_75\n      jump\t// in\n    tag_114:\n      tag_115\n      jump\t// in\n    tag_113:\n      stop\n        /* \"WandInstruments.sol\":864:891  uint256 public timeLaunched */\n    tag_17:\n      callvalue\n      dup1\n      iszero\n      tag_116\n      jumpi\n      0x00\n      dup1\n      revert\n    tag_116:\n      pop\n      tag_117\n      tag_118\n      jump\t// in\n    tag_117:\n      mload(0x40)\n      tag_119\n      swap2\n      swap1\n      tag_51\n      jump\t// in\n    tag_119:\n      mload(0x40)\n      dup1\n      swap2\n      sub\n      swap1\n      return\n        /* \"WandInstruments.sol\":12042:12310  function getSellPrice() external returns (uint256){\r... */\n    tag_18:\n      callvalue\n      dup1\n      iszero\n      tag_120\n      jumpi\n      0x00\n      dup1\n      revert\n    tag_120:\n      pop\n      tag_121\n      tag_122\n      jump\t// in\n    tag_121:\n      mload(0x40)\n      tag_123\n      swap2\n      swap1\n      tag_51\n      jump\t// in\n    tag_123:\n      mload(0x40)\n      dup1\n      swap2\n      sub\n      swap1\n      return\n        /* \"WandInstruments.sol\":898:930  uint256 public daysInCalculation */\n    tag_19:\n      callvalue\n      dup1\n      iszero\n      tag_124\n      jumpi\n      0x00\n      dup1\n      revert\n    tag_124:\n      pop\n      tag_125\n      tag_126\n      jump\t// in\n    tag_125:\n      mload(0x40)\n      tag_127\n      swap2\n      swap1\n      tag_51\n      jump\t// in\n    tag_127:\n      mload(0x40)\n      dup1\n      swap2\n      sub\n      swap1\n      return\n        /* \"WandInstruments.sol\":12593:13065  function testUpdatetimeLockedplus(uint256 amt) public  {\r... */\n    tag_20:\n      callvalue\n      dup1\n      iszero\n      tag_128\n      jumpi\n      0x00\n      dup1\n      revert\n    tag_128:\n      pop\n      tag_129\n      0x04\n      dup1\n      calldatasize\n      sub\n      dup2\n      add\n      swap1\n      tag_130\n      swap2\n      swap1\n      tag_75\n      jump\t// in\n    tag_130:\n      tag_131\n      jump\t// in\n    tag_129:\n      stop\n        /* \"WandInstruments.sol\":1149:1166  int128 public res */\n    tag_21:\n      callvalue\n      dup1\n      iszero\n      tag_132\n      jumpi\n      0x00\n      dup1\n      revert\n    tag_132:\n      pop\n      tag_133\n      tag_134\n      jump\t// in\n    tag_133:\n      mload(0x40)\n      tag_135\n      swap2\n      swap1\n      tag_136\n      jump\t// in\n    tag_135:\n      mload(0x40)\n      dup1\n      swap2\n      sub\n      swap1\n      return\n        /* \"WandInstruments.sol\":1496:1521  IERC20 public tokenStable */\n    tag_22:\n      callvalue\n      dup1\n      iszero\n      tag_137\n      jumpi\n      0x00\n      dup1\n      revert\n    tag_137:\n      pop\n      tag_138\n      tag_139\n      jump\t// in\n    tag_138:\n      mload(0x40)\n      tag_140\n      swap2\n      swap1\n      tag_98\n      jump\t// in\n    tag_140:\n      mload(0x40)\n      dup1\n      swap2\n      sub\n      swap1\n      return\n        /* \"WandInstruments.sol\":13693:14221  function getTokensBoughtXDays() external view returns (uint256){\r... */\n    tag_23:\n      callvalue\n      dup1\n      iszero\n      tag_141\n      jumpi\n      0x00\n      dup1\n      revert\n    tag_141:\n      pop\n      tag_142\n      tag_143\n      jump\t// in\n    tag_142:\n      mload(0x40)\n      tag_144\n      swap2\n      swap1\n      tag_51\n      jump\t// in\n    tag_144:\n      mload(0x40)\n      dup1\n      swap2\n      sub\n      swap1\n      return\n        /* \"WandInstruments.sol\":7795:9042  function buyScepter(uint256 amountSCPtoBuy, string memory _stableChosen) public nonReentrant{\r... */\n    tag_24:\n      callvalue\n      dup1\n      iszero\n      tag_145\n      jumpi\n      0x00\n      dup1\n      revert\n    tag_145:\n      pop\n      tag_146\n      0x04\n      dup1\n      calldatasize\n      sub\n      dup2\n      add\n      swap1\n      tag_147\n      swap2\n      swap1\n      tag_148\n      jump\t// in\n    tag_147:\n      tag_149\n      jump\t// in\n    tag_146:\n      stop\n        /* \"WandInstruments.sol\":9590:10493  function getGrowthFactor() external view returns (uint256){\r... */\n    tag_25:\n      callvalue\n      dup1\n      iszero\n      tag_150\n      jumpi\n      0x00\n      dup1\n      revert\n    tag_150:\n      pop\n      tag_151\n      tag_152\n      jump\t// in\n    tag_151:\n      mload(0x40)\n      tag_153\n      swap2\n      swap1\n      tag_51\n      jump\t// in\n    tag_153:\n      mload(0x40)\n      dup1\n      swap2\n      sub\n      swap1\n      return\n        /* \"WandInstruments.sol\":14962:15051  function whitelist(address _addr) public onlyOwner {  \r... */\n    tag_26:\n      callvalue\n      dup1\n      iszero\n      tag_154\n      jumpi\n      0x00\n      dup1\n      revert\n    tag_154:\n      pop\n      tag_155\n      0x04\n      dup1\n      calldatasize\n      sub\n      dup2\n      add\n      swap1\n      tag_156\n      swap2\n      swap1\n      tag_68\n      jump\t// in\n    tag_156:\n      tag_157\n      jump\t// in\n    tag_155:\n      stop\n        /* \"WandInstruments.sol\":1883:1944  mapping (string => stableTokensParams) public stableERC20Info */\n    tag_27:\n      callvalue\n      dup1\n      iszero\n      tag_158\n      jumpi\n      0x00\n      dup1\n      revert\n    tag_158:\n      pop\n      tag_159\n      0x04\n      dup1\n      calldatasize\n      sub\n      dup2\n      add\n      swap1\n      tag_160\n      swap2\n      swap1\n      tag_161\n      jump\t// in\n    tag_160:\n      tag_162\n      jump\t// in\n    tag_159:\n      mload(0x40)\n      tag_163\n      swap3\n      swap2\n      swap1\n      tag_164\n      jump\t// in\n    tag_163:\n      mload(0x40)\n      dup1\n      swap2\n      sub\n      swap1\n      return\n        /* \"WandInstruments.sol\":9050:9557  function claimLockedUSDC(address _claimant, string memory _stableChosen) public {\r... */\n    tag_28:\n      callvalue\n      dup1\n      iszero\n      tag_165\n      jumpi\n      0x00\n      dup1\n      revert\n    tag_165:\n      pop\n      tag_166\n      0x04\n      dup1\n      calldatasize\n      sub\n      dup2\n      add\n      swap1\n      tag_167\n      swap2\n      swap1\n      tag_168\n      jump\t// in\n    tag_167:\n      tag_169\n      jump\t// in\n    tag_166:\n      stop\n        /* \"WandInstruments.sol\":660:694  address public scepterTreasuryAddr */\n    tag_29:\n      callvalue\n      dup1\n      iszero\n      tag_170\n      jumpi\n      0x00\n      dup1\n      revert\n    tag_170:\n      pop\n      tag_171\n      tag_172\n      jump\t// in\n    tag_171:\n      mload(0x40)\n      tag_173\n      swap2\n      swap1\n      tag_56\n      jump\t// in\n    tag_173:\n      mload(0x40)\n      dup1\n      swap2\n      sub\n      swap1\n      return\n        /* \"WandInstruments.sol\":1469:1487  IERC20 public BTON */\n    tag_30:\n      callvalue\n      dup1\n      iszero\n      tag_174\n      jumpi\n      0x00\n      dup1\n      revert\n    tag_174:\n      pop\n      tag_175\n      tag_176\n      jump\t// in\n    tag_175:\n      mload(0x40)\n      tag_177\n      swap2\n      swap1\n      tag_98\n      jump\t// in\n    tag_177:\n      mload(0x40)\n      dup1\n      swap2\n      sub\n      swap1\n      return\n        /* \"WandInstruments.sol\":5299:7025  function cashOutScepter(uint256 amountSCPtoSell, uint256 timeChosenLocked, string memory _stableChosen) public payable{\r... */\n    tag_31:\n      tag_178\n      0x04\n      dup1\n      calldatasize\n      sub\n      dup2\n      add\n      swap1\n      tag_179\n      swap2\n      swap1\n      tag_180\n      jump\t// in\n    tag_179:\n      tag_181\n      jump\t// in\n    tag_178:\n      stop\n        /* \"WandInstruments.sol\":411:436  uint256 public sellFactor */\n    tag_32:\n      callvalue\n      dup1\n      iszero\n      tag_182\n      jumpi\n      0x00\n      dup1\n      revert\n    tag_182:\n      pop\n      tag_183\n      tag_184\n      jump\t// in\n    tag_183:\n      mload(0x40)\n      tag_185\n      swap2\n      swap1\n      tag_51\n      jump\t// in\n    tag_185:\n      mload(0x40)\n      dup1\n      swap2\n      sub\n      swap1\n      return\n        /* \"WandInstruments.sol\":1444:1462  IERC20 public WAND */\n    tag_33:\n      callvalue\n      dup1\n      iszero\n      tag_186\n      jumpi\n      0x00\n      dup1\n      revert\n    tag_186:\n      pop\n      tag_187\n      tag_188\n      jump\t// in\n    tag_187:\n      mload(0x40)\n      tag_189\n      swap2\n      swap1\n      tag_98\n      jump\t// in\n    tag_189:\n      mload(0x40)\n      dup1\n      swap2\n      sub\n      swap1\n      return\n        /* \"WandInstruments.sol\":14227:14513  function getTokensSoldXDays() external view returns (uint256){\r... */\n    tag_34:\n      callvalue\n      dup1\n      iszero\n      tag_190\n      jumpi\n      0x00\n      dup1\n      revert\n    tag_190:\n      pop\n      tag_191\n      tag_192\n      jump\t// in\n    tag_191:\n      mload(0x40)\n      tag_193\n      swap2\n      swap1\n      tag_51\n      jump\t// in\n    tag_193:\n      mload(0x40)\n      dup1\n      swap2\n      sub\n      swap1\n      return\n        /* \"WandInstruments.sol\":15059:15278  function addStable(string memory _ticker, address _addr, uint256 _dec) public onlyOwner {\r... */\n    tag_35:\n      callvalue\n      dup1\n      iszero\n      tag_194\n      jumpi\n      0x00\n      dup1\n      revert\n    tag_194:\n      pop\n      tag_195\n      0x04\n      dup1\n      calldatasize\n      sub\n      dup2\n      add\n      swap1\n      tag_196\n      swap2\n      swap1\n      tag_197\n      jump\t// in\n    tag_196:\n      tag_198\n      jump\t// in\n    tag_195:\n      stop\n        /* \"WandInstruments.sol\":377:404  uint256 public growthFactor */\n    tag_36:\n      callvalue\n      dup1\n      iszero\n      tag_199\n      jumpi\n      0x00\n      dup1\n      revert\n    tag_199:\n      pop\n      tag_200\n      tag_201\n      jump\t// in\n    tag_200:\n      mload(0x40)\n      tag_202\n      swap2\n      swap1\n      tag_51\n      jump\t// in\n    tag_202:\n      mload(0x40)\n      dup1\n      swap2\n      sub\n      swap1\n      return\n        /* \"WandInstruments.sol\":1173:1243  address public testwallet = 0x617F2E2fD72FD9D5503197092aC168c91465E7f2 */\n    tag_37:\n      callvalue\n      dup1\n      iszero\n      tag_203\n      jumpi\n      0x00\n      dup1\n      revert\n    tag_203:\n      pop\n      tag_204\n      tag_205\n      jump\t// in\n    tag_204:\n      mload(0x40)\n      tag_206\n      swap2\n      swap1\n      tag_56\n      jump\t// in\n    tag_206:\n      mload(0x40)\n      dup1\n      swap2\n      sub\n      swap1\n      return\n        /* \"WandInstruments.sol\":625:653  address public treasury1Addr */\n    tag_38:\n      callvalue\n      dup1\n      iszero\n      tag_207\n      jumpi\n      0x00\n      dup1\n      revert\n    tag_207:\n      pop\n      tag_208\n      tag_209\n      jump\t// in\n    tag_208:\n      mload(0x40)\n      tag_210\n      swap2\n      swap1\n      tag_56\n      jump\t// in\n    tag_210:\n      mload(0x40)\n      dup1\n      swap2\n      sub\n      swap1\n      return\n        /* \"WandInstruments.sol\":12341:12497  function setDaysUsedInFactors(uint256 numDays) public {  \r... */\n    tag_39:\n      callvalue\n      dup1\n      iszero\n      tag_211\n      jumpi\n      0x00\n      dup1\n      revert\n    tag_211:\n      pop\n      tag_212\n      0x04\n      dup1\n      calldatasize\n      sub\n      dup2\n      add\n      swap1\n      tag_213\n      swap2\n      swap1\n      tag_75\n      jump\t// in\n    tag_213:\n      tag_214\n      jump\t// in\n    tag_212:\n      stop\n        /* \"WandInstruments.sol\":11767:12036  function getBuyPrice() external returns (uint256){\r... */\n    tag_49:\n        /* \"WandInstruments.sol\":11808:11815  uint256 */\n      0x00\n        /* \"WandInstruments.sol\":11945:12026  decMul18(this.getBackingPrice() , (1200000000000000000 + this.getGrowthFactor())) */\n      tag_216\n        /* \"WandInstruments.sol\":11954:11958  this */\n      address\n        /* \"WandInstruments.sol\":11954:11974  this.getBackingPrice */\n      0xffffffffffffffffffffffffffffffffffffffff\n      and\n      0x1f564a06\n        /* \"WandInstruments.sol\":11954:11976  this.getBackingPrice() */\n      mload(0x40)\n      dup2\n      0xffffffff\n      and\n      0xe0\n      shl\n      dup2\n      mstore\n      0x04\n      add\n      0x20\n      mload(0x40)\n      dup1\n      dup4\n      sub\n      dup2\n      0x00\n      dup8\n      dup1\n      extcodesize\n      iszero\n      dup1\n      iszero\n      tag_217\n      jumpi\n      0x00\n      dup1\n      revert\n    tag_217:\n      pop\n      gas\n      call\n      iszero\n      dup1\n      iszero\n      tag_219\n      jumpi\n      returndatasize\n      0x00\n      dup1\n      returndatacopy\n      revert(0x00, returndatasize)\n    tag_219:\n      pop\n      pop\n      pop\n      pop\n      mload(0x40)\n      returndatasize\n      not(0x1f)\n      0x1f\n      dup3\n      add\n      and\n      dup3\n      add\n      dup1\n      0x40\n      mstore\n      pop\n      dup2\n      add\n      swap1\n      tag_220\n      swap2\n      swap1\n      tag_221\n      jump\t// in\n    tag_220:\n        /* \"WandInstruments.sol\":12002:12006  this */\n      address\n        /* \"WandInstruments.sol\":12002:12022  this.getGrowthFactor */\n      0xffffffffffffffffffffffffffffffffffffffff\n      and\n      0x93f7b711\n        /* \"WandInstruments.sol\":12002:12024  this.getGrowthFactor() */\n      mload(0x40)\n      dup2\n      0xffffffff\n      and\n      0xe0\n      shl\n      dup2\n      mstore\n      0x04\n      add\n      0x20\n      mload(0x40)\n      dup1\n      dup4\n      sub\n      dup2\n      dup7\n      dup1\n      extcodesize\n      iszero\n      dup1\n      iszero\n      tag_222\n      jumpi\n      0x00\n      dup1\n      revert\n    tag_222:\n      pop\n      gas\n      staticcall\n      iszero\n      dup1\n      iszero\n      tag_224\n      jumpi\n      returndatasize\n      0x00\n      dup1\n      returndatacopy\n      revert(0x00, returndatasize)\n    tag_224:\n      pop\n      pop\n      pop\n      pop\n      mload(0x40)\n      returndatasize\n      not(0x1f)\n      0x1f\n      dup3\n      add\n      and\n      dup3\n      add\n      dup1\n      0x40\n      mstore\n      pop\n      dup2\n      add\n      swap1\n      tag_225\n      swap2\n      swap1\n      tag_221\n      jump\t// in\n    tag_225:\n        /* \"WandInstruments.sol\":11980:11999  1200000000000000000 */\n      0x10a741a462780000\n        /* \"WandInstruments.sol\":11980:12024  1200000000000000000 + this.getGrowthFactor() */\n      tag_226\n      swap2\n      swap1\n      tag_227\n      jump\t// in\n    tag_226:\n        /* \"WandInstruments.sol\":11945:11953  decMul18 */\n      tag_228\n        /* \"WandInstruments.sol\":11945:12026  decMul18(this.getBackingPrice() , (1200000000000000000 + this.getGrowthFactor())) */\n      jump\t// in\n    tag_216:\n        /* \"WandInstruments.sol\":11938:12026  return decMul18(this.getBackingPrice() , (1200000000000000000 + this.getGrowthFactor())) */\n      swap1\n      pop\n        /* \"WandInstruments.sol\":11767:12036  function getBuyPrice() external returns (uint256){\r... */\n      swap1\n      jump\t// out\n        /* \"WandInstruments.sol\":701:732  address public riskTreasuryAddr */\n    tag_54:\n      0x09\n      0x00\n      swap1\n      sload\n      swap1\n      0x0100\n      exp\n      swap1\n      div\n      0xffffffffffffffffffffffffffffffffffffffff\n      and\n      dup2\n      jump\t// out\n        /* \"WandInstruments.sol\":10499:11394  function getSellFactor() external view returns (uint256){\r... */\n    tag_59:\n        /* \"WandInstruments.sol\":10547:10554  uint256 */\n      0x00\n        /* \"WandInstruments.sol\":10700:10711  uint256 _sF */\n      dup1\n        /* \"WandInstruments.sol\":10723:10746  uint256 xDaysCircSupply */\n      0x00\n        /* \"WandInstruments.sol\":10757:10772  uint256 numdays */\n      dup1\n        /* \"WandInstruments.sol\":10793:10798  86400 */\n      0x015180\n        /* \"WandInstruments.sol\":10775:10792  daysInCalculation */\n      sload(0x0d)\n        /* \"WandInstruments.sol\":10775:10798  daysInCalculation/86400 */\n      tag_230\n      swap2\n      swap1\n      tag_231\n      jump\t// in\n    tag_230:\n        /* \"WandInstruments.sol\":10757:10798  uint256 numdays = daysInCalculation/86400 */\n      swap1\n      pop\n        /* \"WandInstruments.sol\":10809:10833  uint256 daySinceLaunched */\n      0x00\n        /* \"WandInstruments.sol\":10871:10876  86400 */\n      0x015180\n        /* \"WandInstruments.sol\":10855:10867  timeLaunched */\n      sload(0x0c)\n        /* \"WandInstruments.sol\":10837:10852  block.timestamp */\n      timestamp\n        /* \"WandInstruments.sol\":10837:10867  block.timestamp - timeLaunched */\n      tag_232\n      swap2\n      swap1\n      tag_233\n      jump\t// in\n    tag_232:\n        /* \"WandInstruments.sol\":10836:10876  (block.timestamp - timeLaunched) / 86400 */\n      tag_234\n      swap2\n      swap1\n      tag_231\n      jump\t// in\n    tag_234:\n        /* \"WandInstruments.sol\":10809:10876  uint256 daySinceLaunched = (block.timestamp - timeLaunched) / 86400 */\n      swap1\n      pop\n        /* \"WandInstruments.sol\":10887:10896  uint256 d */\n      0x00\n        /* \"WandInstruments.sol\":10933:10934  0 */\n      dup1\n        /* \"WandInstruments.sol\":10913:10929  daySinceLaunched */\n      dup3\n        /* \"WandInstruments.sol\":10913:10934  daySinceLaunched == 0 */\n      eq\n        /* \"WandInstruments.sol\":10909:11201  if (daySinceLaunched == 0) {\r... */\n      iszero\n      tag_235\n      jumpi\n        /* \"WandInstruments.sol\":10965:10987  circulatingSupplyXDays */\n      0x19\n        /* \"WandInstruments.sol\":10965:10990  circulatingSupplyXDays[0] */\n      0x00\n        /* \"WandInstruments.sol\":10988:10989  0 */\n      dup1\n        /* \"WandInstruments.sol\":10965:10990  circulatingSupplyXDays[0] */\n      dup2\n      mstore\n      0x20\n      add\n      swap1\n      dup2\n      mstore\n      0x20\n      add\n      0x00\n      keccak256\n      sload\n        /* \"WandInstruments.sol\":10947:10990  xDaysCircSupply = circulatingSupplyXDays[0] */\n      swap4\n      pop\n        /* \"WandInstruments.sol\":10909:11201  if (daySinceLaunched == 0) {\r... */\n      jump(tag_236)\n    tag_235:\n        /* \"WandInstruments.sol\":11059:11066  numdays */\n      dup3\n        /* \"WandInstruments.sol\":11040:11056  daySinceLaunched */\n      dup3\n        /* \"WandInstruments.sol\":11040:11066  daySinceLaunched - numdays */\n      tag_240\n      swap2\n      swap1\n      tag_233\n      jump\t// in\n    tag_240:\n        /* \"WandInstruments.sol\":11036:11066  d = daySinceLaunched - numdays */\n      swap1\n      pop\n        /* \"WandInstruments.sol\":11031:11190  for (d = daySinceLaunched - numdays; d < daySinceLaunched; d++) {  //for loop example\r... */\n    tag_237:\n        /* \"WandInstruments.sol\":11072:11088  daySinceLaunched */\n      dup2\n        /* \"WandInstruments.sol\":11068:11069  d */\n      dup2\n        /* \"WandInstruments.sol\":11068:11088  d < daySinceLaunched */\n      lt\n        /* \"WandInstruments.sol\":11031:11190  for (d = daySinceLaunched - numdays; d < daySinceLaunched; d++) {  //for loop example\r... */\n      iszero\n      tag_238\n      jumpi\n        /* \"WandInstruments.sol\":11149:11171  circulatingSupplyXDays */\n      0x19\n        /* \"WandInstruments.sol\":11149:11174  circulatingSupplyXDays[d] */\n      0x00\n        /* \"WandInstruments.sol\":11172:11173  d */\n      dup3\n        /* \"WandInstruments.sol\":11149:11174  circulatingSupplyXDays[d] */\n      dup2\n      mstore\n      0x20\n      add\n      swap1\n      dup2\n      mstore\n      0x20\n      add\n      0x00\n      keccak256\n      sload\n        /* \"WandInstruments.sol\":11130:11174  xDaysCircSupply += circulatingSupplyXDays[d] */\n      dup5\n      tag_241\n      swap2\n      swap1\n      tag_227\n      jump\t// in\n    tag_241:\n      swap4\n      pop\n        /* \"WandInstruments.sol\":11090:11093  d++ */\n      dup1\n      dup1\n      tag_242\n      swap1\n      tag_243\n      jump\t// in\n    tag_242:\n      swap2\n      pop\n      pop\n        /* \"WandInstruments.sol\":11031:11190  for (d = daySinceLaunched - numdays; d < daySinceLaunched; d++) {  //for loop example\r... */\n      jump(tag_237)\n    tag_238:\n        /* \"WandInstruments.sol\":10909:11201  if (daySinceLaunched == 0) {\r... */\n    tag_236:\n        /* \"WandInstruments.sol\":11218:11269  decDiv18(this.getTokensSoldXDays(),xDaysCircSupply) */\n      tag_244\n        /* \"WandInstruments.sol\":11227:11231  this */\n      address\n        /* \"WandInstruments.sol\":11227:11250  this.getTokensSoldXDays */\n      0xffffffffffffffffffffffffffffffffffffffff\n      and\n      0xd82eddf2\n        /* \"WandInstruments.sol\":11227:11252  this.getTokensSoldXDays() */\n      mload(0x40)\n      dup2\n      0xffffffff\n      and\n      0xe0\n      shl\n      dup2\n      mstore\n      0x04\n      add\n      0x20\n      mload(0x40)\n      dup1\n      dup4\n      sub\n      dup2\n      dup7\n      dup1\n      extcodesize\n      iszero\n      dup1\n      iszero\n      tag_245\n      jumpi\n      0x00\n      dup1\n      revert\n    tag_245:\n      pop\n      gas\n      staticcall\n      iszero\n      dup1\n      iszero\n      tag_247\n      jumpi\n      returndatasize\n      0x00\n      dup1\n      returndatacopy\n      revert(0x00, returndatasize)\n    tag_247:\n      pop\n      pop\n      pop\n      pop\n      mload(0x40)\n      returndatasize\n      not(0x1f)\n      0x1f\n      dup3\n      add\n      and\n      dup3\n      add\n      dup1\n      0x40\n      mstore\n      pop\n      dup2\n      add\n      swap1\n      tag_248\n      swap2\n      swap1\n      tag_221\n      jump\t// in\n    tag_248:\n        /* \"WandInstruments.sol\":11253:11268  xDaysCircSupply */\n      dup6\n        /* \"WandInstruments.sol\":11218:11226  decDiv18 */\n      tag_249\n        /* \"WandInstruments.sol\":11218:11269  decDiv18(this.getTokensSoldXDays(),xDaysCircSupply) */\n      jump\t// in\n    tag_244:\n        /* \"WandInstruments.sol\":11212:11269  _sF = decDiv18(this.getTokensSoldXDays(),xDaysCircSupply) */\n      swap5\n      pop\n        /* \"WandInstruments.sol\":11289:11307  300000000000000000 */\n      0x0429d069189e0000\n        /* \"WandInstruments.sol\":11283:11286  _sF */\n      dup6\n        /* \"WandInstruments.sol\":11283:11307  _sF > 300000000000000000 */\n      gt\n        /* \"WandInstruments.sol\":11279:11366  if (_sF > 300000000000000000)\r... */\n      iszero\n      tag_250\n      jumpi\n        /* \"WandInstruments.sol\":11337:11355  300000000000000000 */\n      0x0429d069189e0000\n        /* \"WandInstruments.sol\":11331:11355  _sF = 300000000000000000 */\n      swap5\n      pop\n        /* \"WandInstruments.sol\":11279:11366  if (_sF > 300000000000000000)\r... */\n    tag_250:\n        /* \"WandInstruments.sol\":11382:11385  _sF */\n      dup5\n        /* \"WandInstruments.sol\":11375:11385  return _sF */\n      swap6\n      pop\n      pop\n      pop\n      pop\n      pop\n      pop\n        /* \"WandInstruments.sol\":10499:11394  function getSellFactor() external view returns (uint256){\r... */\n      swap1\n      jump\t// out\n        /* \"WandInstruments.sol\":14519:14954  function getCircSupplyXDays() external view returns (uint256){\r... */\n    tag_63:\n        /* \"WandInstruments.sol\":14572:14579  uint256 */\n      0x00\n        /* \"WandInstruments.sol\":14585:14609  uint256 daySinceLaunched */\n      dup1\n        /* \"WandInstruments.sol\":14647:14652  86400 */\n      0x015180\n        /* \"WandInstruments.sol\":14631:14643  timeLaunched */\n      sload(0x0c)\n        /* \"WandInstruments.sol\":14613:14628  block.timestamp */\n      timestamp\n        /* \"WandInstruments.sol\":14613:14643  block.timestamp - timeLaunched */\n      tag_252\n      swap2\n      swap1\n      tag_233\n      jump\t// in\n    tag_252:\n        /* \"WandInstruments.sol\":14612:14652  (block.timestamp - timeLaunched) / 86400 */\n      tag_253\n      swap2\n      swap1\n      tag_231\n      jump\t// in\n    tag_253:\n        /* \"WandInstruments.sol\":14585:14652  uint256 daySinceLaunched = (block.timestamp - timeLaunched) / 86400 */\n      swap1\n      pop\n        /* \"WandInstruments.sol\":14663:14686  uint256 CircSupplyXDays */\n      0x00\n        /* \"WandInstruments.sol\":14701:14716  uint256 numdays */\n      dup1\n        /* \"WandInstruments.sol\":14737:14742  86400 */\n      0x015180\n        /* \"WandInstruments.sol\":14719:14736  daysInCalculation */\n      sload(0x0d)\n        /* \"WandInstruments.sol\":14719:14742  daysInCalculation/86400 */\n      tag_254\n      swap2\n      swap1\n      tag_231\n      jump\t// in\n    tag_254:\n        /* \"WandInstruments.sol\":14701:14742  uint256 numdays = daysInCalculation/86400 */\n      swap1\n      pop\n        /* \"WandInstruments.sol\":14753:14762  uint256 d */\n      0x00\n        /* \"WandInstruments.sol\":14811:14818  numdays */\n      dup2\n        /* \"WandInstruments.sol\":14792:14808  daySinceLaunched */\n      dup5\n        /* \"WandInstruments.sol\":14792:14818  daySinceLaunched - numdays */\n      tag_258\n      swap2\n      swap1\n      tag_233\n      jump\t// in\n    tag_258:\n        /* \"WandInstruments.sol\":14788:14818  d = daySinceLaunched - numdays */\n      swap1\n      pop\n        /* \"WandInstruments.sol\":14783:14914  for (d = daySinceLaunched - numdays; d < daySinceLaunched; d++) {\r... */\n    tag_255:\n        /* \"WandInstruments.sol\":14824:14840  daySinceLaunched */\n      dup4\n        /* \"WandInstruments.sol\":14820:14821  d */\n      dup2\n        /* \"WandInstruments.sol\":14820:14840  d < daySinceLaunched */\n      lt\n        /* \"WandInstruments.sol\":14783:14914  for (d = daySinceLaunched - numdays; d < daySinceLaunched; d++) {\r... */\n      iszero\n      tag_256\n      jumpi\n        /* \"WandInstruments.sol\":14877:14899  circulatingSupplyXDays */\n      0x19\n        /* \"WandInstruments.sol\":14877:14902  circulatingSupplyXDays[d] */\n      0x00\n        /* \"WandInstruments.sol\":14900:14901  d */\n      dup3\n        /* \"WandInstruments.sol\":14877:14902  circulatingSupplyXDays[d] */\n      dup2\n      mstore\n      0x20\n      add\n      swap1\n      dup2\n      mstore\n      0x20\n      add\n      0x00\n      keccak256\n      sload\n        /* \"WandInstruments.sol\":14858:14902  CircSupplyXDays += circulatingSupplyXDays[d] */\n      dup4\n      tag_259\n      swap2\n      swap1\n      tag_227\n      jump\t// in\n    tag_259:\n      swap3\n      pop\n        /* \"WandInstruments.sol\":14842:14845  d++ */\n      dup1\n      dup1\n      tag_260\n      swap1\n      tag_243\n      jump\t// in\n    tag_260:\n      swap2\n      pop\n      pop\n        /* \"WandInstruments.sol\":14783:14914  for (d = daySinceLaunched - numdays; d < daySinceLaunched; d++) {\r... */\n      jump(tag_255)\n    tag_256:\n        /* \"WandInstruments.sol\":14931:14946  CircSupplyXDays */\n      dup3\n        /* \"WandInstruments.sol\":14924:14946  return CircSupplyXDays */\n      swap5\n      pop\n      pop\n      pop\n      pop\n      pop\n        /* \"WandInstruments.sol\":14519:14954  function getCircSupplyXDays() external view returns (uint256){\r... */\n      swap1\n      jump\t// out\n        /* \"WandInstruments.sol\":2055:2115  mapping(address => lockedamounts) public withheldWithdrawals */\n    tag_69:\n      mstore(0x20, 0x1b)\n      dup1\n      0x00\n      mstore\n      keccak256(0x00, 0x40)\n      0x00\n      swap2\n      pop\n      swap1\n      pop\n      dup1\n      0x00\n      add\n      sload\n      swap1\n      dup1\n      0x01\n      add\n      sload\n      swap1\n      pop\n      dup3\n      jump\t// out\n        /* \"WandInstruments.sol\":1638:1688  mapping(uint256 => uint256) public tokensSoldXDays */\n    tag_76:\n      mstore(0x20, 0x18)\n      dup1\n      0x00\n      mstore\n      keccak256(0x00, 0x40)\n      0x00\n      swap2\n      pop\n      swap1\n      pop\n      sload\n      dup2\n      jump\t// out\n        /* \"WandInstruments.sol\":13077:13579  function testUpdatetimeLockedminus(uint256 amt) public  {\r... */\n    tag_81:\n        /* \"WandInstruments.sol\":13158:13177  withheldWithdrawals */\n      0x1b\n        /* \"WandInstruments.sol\":13158:13189  withheldWithdrawals[msg.sender] */\n      0x00\n        /* \"WandInstruments.sol\":13178:13188  msg.sender */\n      caller\n        /* \"WandInstruments.sol\":13158:13189  withheldWithdrawals[msg.sender] */\n      0xffffffffffffffffffffffffffffffffffffffff\n      and\n      0xffffffffffffffffffffffffffffffffffffffff\n      and\n      dup2\n      mstore\n      0x20\n      add\n      swap1\n      dup2\n      mstore\n      0x20\n      add\n      0x00\n      keccak256\n        /* \"WandInstruments.sol\":13158:13197  withheldWithdrawals[msg.sender].amounts */\n      0x01\n      add\n      sload\n        /* \"WandInstruments.sol\":13152:13155  amt */\n      dup2\n        /* \"WandInstruments.sol\":13152:13197  amt < withheldWithdrawals[msg.sender].amounts */\n      lt\n        /* \"WandInstruments.sol\":13144:13238  require(amt < withheldWithdrawals[msg.sender].amounts, \"You dont have that much to withdraw!\") */\n      tag_262\n      jumpi\n      mload(0x40)\n      0x08c379a000000000000000000000000000000000000000000000000000000000\n      dup2\n      mstore\n      0x04\n      add\n      tag_263\n      swap1\n      tag_264\n      jump\t// in\n    tag_263:\n      mload(0x40)\n      dup1\n      swap2\n      sub\n      swap1\n      revert\n    tag_262:\n        /* \"WandInstruments.sol\":13443:13446  amt */\n      dup1\n        /* \"WandInstruments.sol\":13400:13419  withheldWithdrawals */\n      0x1b\n        /* \"WandInstruments.sol\":13400:13431  withheldWithdrawals[msg.sender] */\n      0x00\n        /* \"WandInstruments.sol\":13420:13430  msg.sender */\n      caller\n        /* \"WandInstruments.sol\":13400:13431  withheldWithdrawals[msg.sender] */\n      0xffffffffffffffffffffffffffffffffffffffff\n      and\n      0xffffffffffffffffffffffffffffffffffffffff\n      and\n      dup2\n      mstore\n      0x20\n      add\n      swap1\n      dup2\n      mstore\n      0x20\n      add\n      0x00\n      keccak256\n        /* \"WandInstruments.sol\":13400:13439  withheldWithdrawals[msg.sender].amounts */\n      0x01\n      add\n      0x00\n        /* \"WandInstruments.sol\":13400:13446  withheldWithdrawals[msg.sender].amounts -= amt */\n      dup3\n      dup3\n      sload\n      tag_265\n      swap2\n      swap1\n      tag_233\n      jump\t// in\n    tag_265:\n      swap3\n      pop\n      pop\n      dup2\n      swap1\n      sstore\n      pop\n        /* \"WandInstruments.sol\":13503:13504  0 */\n      0x00\n        /* \"WandInstruments.sol\":13461:13480  withheldWithdrawals */\n      0x1b\n        /* \"WandInstruments.sol\":13461:13492  withheldWithdrawals[msg.sender] */\n      0x00\n        /* \"WandInstruments.sol\":13481:13491  msg.sender */\n      caller\n        /* \"WandInstruments.sol\":13461:13492  withheldWithdrawals[msg.sender] */\n      0xffffffffffffffffffffffffffffffffffffffff\n      and\n      0xffffffffffffffffffffffffffffffffffffffff\n      and\n      dup2\n      mstore\n      0x20\n      add\n      swap1\n      dup2\n      mstore\n      0x20\n      add\n      0x00\n      keccak256\n        /* \"WandInstruments.sol\":13461:13500  withheldWithdrawals[msg.sender].amounts */\n      0x01\n      add\n      sload\n        /* \"WandInstruments.sol\":13461:13504  withheldWithdrawals[msg.sender].amounts ==0 */\n      eq\n        /* \"WandInstruments.sol\":13457:13572  if (withheldWithdrawals[msg.sender].amounts ==0 ){\r... */\n      iszero\n      tag_266\n      jumpi\n        /* \"WandInstruments.sol\":13528:13547  withheldWithdrawals */\n      0x1b\n        /* \"WandInstruments.sol\":13528:13559  withheldWithdrawals[msg.sender] */\n      0x00\n        /* \"WandInstruments.sol\":13548:13558  msg.sender */\n      caller\n        /* \"WandInstruments.sol\":13528:13559  withheldWithdrawals[msg.sender] */\n      0xffffffffffffffffffffffffffffffffffffffff\n      and\n      0xffffffffffffffffffffffffffffffffffffffff\n      and\n      dup2\n      mstore\n      0x20\n      add\n      swap1\n      dup2\n      mstore\n      0x20\n      add\n      0x00\n      keccak256\n      0x00\n        /* \"WandInstruments.sol\":13521:13560  delete(withheldWithdrawals[msg.sender]) */\n      dup1\n      dup3\n      add\n      0x00\n      swap1\n      sstore\n      0x01\n      dup3\n      add\n      0x00\n      swap1\n      sstore\n      pop\n      pop\n        /* \"WandInstruments.sol\":13457:13572  if (withheldWithdrawals[msg.sender].amounts ==0 ){\r... */\n    tag_266:\n        /* \"WandInstruments.sol\":13077:13579  function testUpdatetimeLockedminus(uint256 amt) public  {\r... */\n      pop\n      jump\t// out\n        /* \"WandInstruments.sol\":1695:1752  mapping(uint256 => uint256) public circulatingSupplyXDays */\n    tag_85:\n      mstore(0x20, 0x19)\n      dup1\n      0x00\n      mstore\n      keccak256(0x00, 0x40)\n      0x00\n      swap2\n      pop\n      swap1\n      pop\n      sload\n      dup2\n      jump\t// out\n        /* \"WandInstruments.sol\":7033:7780  function transformScepterToBaton(uint256 amountSCPtoSwap) public payable{\r... */\n    tag_89:\n        /* \"WandInstruments.sol\":7177:7203  uint256 trader_tsc_balance */\n      0x00\n        /* \"WandInstruments.sol\":7206:7210  SPTR */\n      0x13\n      0x00\n      swap1\n      sload\n      swap1\n      0x0100\n      exp\n      swap1\n      div\n      0xffffffffffffffffffffffffffffffffffffffff\n      and\n        /* \"WandInstruments.sol\":7206:7220  SPTR.balanceOf */\n      0xffffffffffffffffffffffffffffffffffffffff\n      and\n      0x70a08231\n        /* \"WandInstruments.sol\":7221:7231  msg.sender */\n      caller\n        /* \"WandInstruments.sol\":7206:7232  SPTR.balanceOf(msg.sender) */\n      mload(0x40)\n      dup3\n      0xffffffff\n      and\n      0xe0\n      shl\n      dup2\n      mstore\n      0x04\n      add\n      tag_268\n      swap2\n      swap1\n      tag_56\n      jump\t// in\n    tag_268:\n      0x20\n      mload(0x40)\n      dup1\n      dup4\n      sub\n      dup2\n      dup7\n      dup1\n      extcodesize\n      iszero\n      dup1\n      iszero\n      tag_269\n      jumpi\n      0x00\n      dup1\n      revert\n    tag_269:\n      pop\n      gas\n      staticcall\n      iszero\n      dup1\n      iszero\n      tag_271\n      jumpi\n      returndatasize\n      0x00\n      dup1\n      returndatacopy\n      revert(0x00, returndatasize)\n    tag_271:\n      pop\n      pop\n      pop\n      pop\n      mload(0x40)\n      returndatasize\n      not(0x1f)\n      0x1f\n      dup3\n      add\n      and\n      dup3\n      add\n      dup1\n      0x40\n      mstore\n      pop\n      dup2\n      add\n      swap1\n      tag_272\n      swap2\n      swap1\n      tag_221\n      jump\t// in\n    tag_272:\n        /* \"WandInstruments.sol\":7177:7232  uint256 trader_tsc_balance = SPTR.balanceOf(msg.sender) */\n      swap1\n      pop\n        /* \"WandInstruments.sol\":7272:7287  amountSCPtoSwap */\n      dup2\n        /* \"WandInstruments.sol\":7251:7269  trader_tsc_balance */\n      dup2\n        /* \"WandInstruments.sol\":7251:7287  trader_tsc_balance > amountSCPtoSwap */\n      gt\n        /* \"WandInstruments.sol\":7243:7318  require(trader_tsc_balance > amountSCPtoSwap, \"You dont have that amount!\") */\n      tag_273\n      jumpi\n      mload(0x40)\n      0x08c379a000000000000000000000000000000000000000000000000000000000\n      dup2\n      mstore\n      0x04\n      add\n      tag_274\n      swap1\n      tag_275\n      jump\t// in\n    tag_274:\n      mload(0x40)\n      dup1\n      swap2\n      sub\n      swap1\n      revert\n    tag_273:\n        /* \"WandInstruments.sol\":7372:7439  _safeTransferFrom(SPTR, msg.sender, address(this), amountSCPtoSwap) */\n      tag_276\n        /* \"WandInstruments.sol\":7390:7394  SPTR */\n      0x13\n      0x00\n      swap1\n      sload\n      swap1\n      0x0100\n      exp\n      swap1\n      div\n      0xffffffffffffffffffffffffffffffffffffffff\n      and\n        /* \"WandInstruments.sol\":7396:7406  msg.sender */\n      caller\n        /* \"WandInstruments.sol\":7416:7420  this */\n      address\n        /* \"WandInstruments.sol\":7423:7438  amountSCPtoSwap */\n      dup6\n        /* \"WandInstruments.sol\":7372:7389  _safeTransferFrom */\n      tag_277\n        /* \"WandInstruments.sol\":7372:7439  _safeTransferFrom(SPTR, msg.sender, address(this), amountSCPtoSwap) */\n      jump\t// in\n    tag_276:\n        /* \"WandInstruments.sol\":7500:7516  uint256 dInArray */\n      0x00\n        /* \"WandInstruments.sol\":7550:7555  86400 */\n      0x015180\n        /* \"WandInstruments.sol\":7536:7548  timeLaunched */\n      sload(0x0c)\n        /* \"WandInstruments.sol\":7519:7534  block.timestamp */\n      timestamp\n        /* \"WandInstruments.sol\":7519:7548  block.timestamp- timeLaunched */\n      tag_278\n      swap2\n      swap1\n      tag_233\n      jump\t// in\n    tag_278:\n        /* \"WandInstruments.sol\":7518:7555  (block.timestamp- timeLaunched)/86400 */\n      tag_279\n      swap2\n      swap1\n      tag_231\n      jump\t// in\n    tag_279:\n        /* \"WandInstruments.sol\":7500:7555  uint256 dInArray =(block.timestamp- timeLaunched)/86400 */\n      swap1\n      pop\n        /* \"WandInstruments.sol\":7596:7611  amountSCPtoSwap */\n      dup3\n        /* \"WandInstruments.sol\":7567:7582  tokensSoldXDays */\n      0x18\n        /* \"WandInstruments.sol\":7567:7592  tokensSoldXDays[dInArray] */\n      0x00\n        /* \"WandInstruments.sol\":7583:7591  dInArray */\n      dup4\n        /* \"WandInstruments.sol\":7567:7592  tokensSoldXDays[dInArray] */\n      dup2\n      mstore\n      0x20\n      add\n      swap1\n      dup2\n      mstore\n      0x20\n      add\n      0x00\n      keccak256\n      0x00\n        /* \"WandInstruments.sol\":7567:7611  tokensSoldXDays[dInArray] += amountSCPtoSwap */\n      dup3\n      dup3\n      sload\n      tag_280\n      swap2\n      swap1\n      tag_227\n      jump\t// in\n    tag_280:\n      swap3\n      pop\n      pop\n      dup2\n      swap1\n      sstore\n      pop\n        /* \"WandInstruments.sol\":7658:7673  amountSCPtoSwap */\n      dup3\n        /* \"WandInstruments.sol\":7622:7644  circulatingSupplyXDays */\n      0x19\n        /* \"WandInstruments.sol\":7622:7654  circulatingSupplyXDays[dInArray] */\n      0x00\n        /* \"WandInstruments.sol\":7645:7653  dInArray */\n      dup4\n        /* \"WandInstruments.sol\":7622:7654  circulatingSupplyXDays[dInArray] */\n      dup2\n      mstore\n      0x20\n      add\n      swap1\n      dup2\n      mstore\n      0x20\n      add\n      0x00\n      keccak256\n      0x00\n        /* \"WandInstruments.sol\":7622:7673  circulatingSupplyXDays[dInArray] -= amountSCPtoSwap */\n      dup3\n      dup3\n      sload\n      tag_281\n      swap2\n      swap1\n      tag_233\n      jump\t// in\n    tag_281:\n      swap3\n      pop\n      pop\n      dup2\n      swap1\n      sstore\n      pop\n        /* \"WandInstruments.sol\":7105:7780  {\r... */\n      pop\n      pop\n        /* \"WandInstruments.sol\":7033:7780  function transformScepterToBaton(uint256 amountSCPtoSwap) public payable{\r... */\n      pop\n      jump\t// out\n        /* \"WandInstruments.sol\":11400:11761  function getBackingPrice() external returns (uint256){\r... */\n    tag_92:\n        /* \"WandInstruments.sol\":11445:11452  uint256 */\n      0x00\n        /* \"WandInstruments.sol\":11564:11579  stableERC20Info */\n      0x1a\n        /* \"WandInstruments.sol\":11564:11587  stableERC20Info[\"USDC\"] */\n      mload(0x40)\n      tag_283\n      swap1\n      tag_284\n      jump\t// in\n    tag_283:\n      swap1\n      dup2\n      mstore\n      0x20\n      add\n      mload(0x40)\n      dup1\n      swap2\n      sub\n      swap1\n      keccak256\n        /* \"WandInstruments.sol\":11564:11603  stableERC20Info[\"USDC\"].contractAddress */\n      0x00\n      add\n      0x00\n      swap1\n      sload\n      swap1\n      0x0100\n      exp\n      swap1\n      div\n      0xffffffffffffffffffffffffffffffffffffffff\n      and\n        /* \"WandInstruments.sol\":11543:11554  tokenStable */\n      0x16\n      0x00\n        /* \"WandInstruments.sol\":11543:11604  tokenStable = IERC20(stableERC20Info[\"USDC\"].contractAddress) */\n      0x0100\n      exp\n      dup2\n      sload\n      dup2\n      0xffffffffffffffffffffffffffffffffffffffff\n      mul\n      not\n      and\n      swap1\n      dup4\n      0xffffffffffffffffffffffffffffffffffffffff\n      and\n      mul\n      or\n      swap1\n      sstore\n      pop\n        /* \"WandInstruments.sol\":11630:11641  tokenStable */\n      0x16\n      0x00\n      swap1\n      sload\n      swap1\n      0x0100\n      exp\n      swap1\n      div\n      0xffffffffffffffffffffffffffffffffffffffff\n      and\n        /* \"WandInstruments.sol\":11630:11651  tokenStable.balanceOf */\n      0xffffffffffffffffffffffffffffffffffffffff\n      and\n      0x70a08231\n        /* \"WandInstruments.sol\":11652:11694  0x4B20993Bc481177ec7E8f571ceCaE8A9e22C02db */\n      0x4b20993bc481177ec7e8f571cecae8a9e22c02db\n        /* \"WandInstruments.sol\":11630:11695  tokenStable.balanceOf(0x4B20993Bc481177ec7E8f571ceCaE8A9e22C02db) */\n      mload(0x40)\n      dup3\n      0xffffffff\n      and\n      0xe0\n      shl\n      dup2\n      mstore\n      0x04\n      add\n      tag_285\n      swap2\n      swap1\n      tag_56\n      jump\t// in\n    tag_285:\n      0x20\n      mload(0x40)\n      dup1\n      dup4\n      sub\n      dup2\n      dup7\n      dup1\n      extcodesize\n      iszero\n      dup1\n      iszero\n      tag_286\n      jumpi\n      0x00\n      dup1\n      revert\n    tag_286:\n      pop\n      gas\n      staticcall\n      iszero\n      dup1\n      iszero\n      tag_288\n      jumpi\n      returndatasize\n      0x00\n      dup1\n      returndatacopy\n      revert(0x00, returndatasize)\n    tag_288:\n      pop\n      pop\n      pop\n      pop\n      mload(0x40)\n      returndatasize\n      not(0x1f)\n      0x1f\n      dup3\n      add\n      and\n      dup3\n      add\n      dup1\n      0x40\n      mstore\n      pop\n      dup2\n      add\n      swap1\n      tag_289\n      swap2\n      swap1\n      tag_221\n      jump\t// in\n    tag_289:\n        /* \"WandInstruments.sol\":11615:11627  treasury1bal */\n      0x0b\n        /* \"WandInstruments.sol\":11615:11695  treasury1bal = tokenStable.balanceOf(0x4B20993Bc481177ec7E8f571ceCaE8A9e22C02db) */\n      dup2\n      swap1\n      sstore\n      pop\n        /* \"WandInstruments.sol\":11712:11753  decDiv18(treasury1bal,SPTR.totalSupply()) */\n      tag_290\n        /* \"WandInstruments.sol\":11721:11733  treasury1bal */\n      sload(0x0b)\n        /* \"WandInstruments.sol\":11734:11738  SPTR */\n      0x13\n      0x00\n      swap1\n      sload\n      swap1\n      0x0100\n      exp\n      swap1\n      div\n      0xffffffffffffffffffffffffffffffffffffffff\n      and\n        /* \"WandInstruments.sol\":11734:11750  SPTR.totalSupply */\n      0xffffffffffffffffffffffffffffffffffffffff\n      and\n      0x18160ddd\n        /* \"WandInstruments.sol\":11734:11752  SPTR.totalSupply() */\n      mload(0x40)\n      dup2\n      0xffffffff\n      and\n      0xe0\n      shl\n      dup2\n      mstore\n      0x04\n      add\n      0x20\n      mload(0x40)\n      dup1\n      dup4\n      sub\n      dup2\n      dup7\n      dup1\n      extcodesize\n      iszero\n      dup1\n      iszero\n      tag_291\n      jumpi\n      0x00\n      dup1\n      revert\n    tag_291:\n      pop\n      gas\n      staticcall\n      iszero\n      dup1\n      iszero\n      tag_293\n      jumpi\n      returndatasize\n      0x00\n      dup1\n      returndatacopy\n      revert(0x00, returndatasize)\n    tag_293:\n      pop\n      pop\n      pop\n      pop\n      mload(0x40)\n      returndatasize\n      not(0x1f)\n      0x1f\n      dup3\n      add\n      and\n      dup3\n      add\n      dup1\n      0x40\n      mstore\n      pop\n      dup2\n      add\n      swap1\n      tag_294\n      swap2\n      swap1\n      tag_221\n      jump\t// in\n    tag_294:\n        /* \"WandInstruments.sol\":11712:11720  decDiv18 */\n      tag_249\n        /* \"WandInstruments.sol\":11712:11753  decDiv18(treasury1bal,SPTR.totalSupply()) */\n      jump\t// in\n    tag_290:\n        /* \"WandInstruments.sol\":11705:11753  return decDiv18(treasury1bal,SPTR.totalSupply()) */\n      swap1\n      pop\n        /* \"WandInstruments.sol\":11400:11761  function getBackingPrice() external returns (uint256){\r... */\n      swap1\n      jump\t// out\n        /* \"WandInstruments.sol\":1419:1437  IERC20 public SPTR */\n    tag_96:\n      0x13\n      0x00\n      swap1\n      sload\n      swap1\n      0x0100\n      exp\n      swap1\n      div\n      0xffffffffffffffffffffffffffffffffffffffff\n      and\n      dup2\n      jump\t// out\n        /* \"WandInstruments.sol\":739:767  address public devWalletAddr */\n    tag_101:\n      0x0a\n      0x00\n      swap1\n      sload\n      swap1\n      0x0100\n      exp\n      swap1\n      div\n      0xffffffffffffffffffffffffffffffffffffffff\n      and\n      dup2\n      jump\t// out\n        /* \"WandInstruments.sol\":1579:1631  mapping(uint256 => uint256) public tokensBoughtXDays */\n    tag_106:\n      mstore(0x20, 0x17)\n      dup1\n      0x00\n      mstore\n      keccak256(0x00, 0x40)\n      0x00\n      swap2\n      pop\n      swap1\n      pop\n      sload\n      dup2\n      jump\t// out\n        /* \"WandInstruments.sol\":808:835  uint256 public treasury1bal */\n    tag_110:\n      sload(0x0b)\n      dup2\n      jump\t// out\n        /* \"WandInstruments.sol\":12509:12585  function withdrawStables(uint256 _amtToWithdraw) public onlyOwner {\r... */\n    tag_115:\n      pop\n      jump\t// out\n        /* \"WandInstruments.sol\":864:891  uint256 public timeLaunched */\n    tag_118:\n      sload(0x0c)\n      dup2\n      jump\t// out\n        /* \"WandInstruments.sol\":12042:12310  function getSellPrice() external returns (uint256){\r... */\n    tag_122:\n        /* \"WandInstruments.sol\":12084:12091  uint256 */\n      0x00\n        /* \"WandInstruments.sol\":12224:12302  decMul18(this.getBackingPrice() , (900000000000000000 - this.getSellFactor())) */\n      tag_298\n        /* \"WandInstruments.sol\":12233:12237  this */\n      address\n        /* \"WandInstruments.sol\":12233:12253  this.getBackingPrice */\n      0xffffffffffffffffffffffffffffffffffffffff\n      and\n      0x1f564a06\n        /* \"WandInstruments.sol\":12233:12255  this.getBackingPrice() */\n      mload(0x40)\n      dup2\n      0xffffffff\n      and\n      0xe0\n      shl\n      dup2\n      mstore\n      0x04\n      add\n      0x20\n      mload(0x40)\n      dup1\n      dup4\n      sub\n      dup2\n      0x00\n      dup8\n      dup1\n      extcodesize\n      iszero\n      dup1\n      iszero\n      tag_299\n      jumpi\n      0x00\n      dup1\n      revert\n    tag_299:\n      pop\n      gas\n      call\n      iszero\n      dup1\n      iszero\n      tag_301\n      jumpi\n      returndatasize\n      0x00\n      dup1\n      returndatacopy\n      revert(0x00, returndatasize)\n    tag_301:\n      pop\n      pop\n      pop\n      pop\n      mload(0x40)\n      returndatasize\n      not(0x1f)\n      0x1f\n      dup3\n      add\n      and\n      dup3\n      add\n      dup1\n      0x40\n      mstore\n      pop\n      dup2\n      add\n      swap1\n      tag_302\n      swap2\n      swap1\n      tag_221\n      jump\t// in\n    tag_302:\n        /* \"WandInstruments.sol\":12280:12284  this */\n      address\n        /* \"WandInstruments.sol\":12280:12298  this.getSellFactor */\n      0xffffffffffffffffffffffffffffffffffffffff\n      and\n      0x0ccaf04f\n        /* \"WandInstruments.sol\":12280:12300  this.getSellFactor() */\n      mload(0x40)\n      dup2\n      0xffffffff\n      and\n      0xe0\n      shl\n      dup2\n      mstore\n      0x04\n      add\n      0x20\n      mload(0x40)\n      dup1\n      dup4\n      sub\n      dup2\n      dup7\n      dup1\n      extcodesize\n      iszero\n      dup1\n      iszero\n      tag_303\n      jumpi\n      0x00\n      dup1\n      revert\n    tag_303:\n      pop\n      gas\n      staticcall\n      iszero\n      dup1\n      iszero\n      tag_305\n      jumpi\n      returndatasize\n      0x00\n      dup1\n      returndatacopy\n      revert(0x00, returndatasize)\n    tag_305:\n      pop\n      pop\n      pop\n      pop\n      mload(0x40)\n      returndatasize\n      not(0x1f)\n      0x1f\n      dup3\n      add\n      and\n      dup3\n      add\n      dup1\n      0x40\n      mstore\n      pop\n      dup2\n      add\n      swap1\n      tag_306\n      swap2\n      swap1\n      tag_221\n      jump\t// in\n    tag_306:\n        /* \"WandInstruments.sol\":12259:12277  900000000000000000 */\n      0x0c7d713b49da0000\n        /* \"WandInstruments.sol\":12259:12300  900000000000000000 - this.getSellFactor() */\n      tag_307\n      swap2\n      swap1\n      tag_233\n      jump\t// in\n    tag_307:\n        /* \"WandInstruments.sol\":12224:12232  decMul18 */\n      tag_228\n        /* \"WandInstruments.sol\":12224:12302  decMul18(this.getBackingPrice() , (900000000000000000 - this.getSellFactor())) */\n      jump\t// in\n    tag_298:\n        /* \"WandInstruments.sol\":12217:12302  return decMul18(this.getBackingPrice() , (900000000000000000 - this.getSellFactor())) */\n      swap1\n      pop\n        /* \"WandInstruments.sol\":12042:12310  function getSellPrice() external returns (uint256){\r... */\n      swap1\n      jump\t// out\n        /* \"WandInstruments.sol\":898:930  uint256 public daysInCalculation */\n    tag_126:\n      sload(0x0d)\n      dup2\n      jump\t// out\n        /* \"WandInstruments.sol\":12593:13065  function testUpdatetimeLockedplus(uint256 amt) public  {\r... */\n    tag_131:\n        /* \"WandInstruments.sol\":12988:12994  864000 */\n      0x0d2f00\n        /* \"WandInstruments.sol\":12970:12985  block.timestamp */\n      timestamp\n        /* \"WandInstruments.sol\":12970:12994  block.timestamp + 864000 */\n      tag_309\n      swap2\n      swap1\n      tag_227\n      jump\t// in\n    tag_309:\n        /* \"WandInstruments.sol\":12923:12942  withheldWithdrawals */\n      0x1b\n        /* \"WandInstruments.sol\":12923:12954  withheldWithdrawals[msg.sender] */\n      0x00\n        /* \"WandInstruments.sol\":12943:12953  msg.sender */\n      caller\n        /* \"WandInstruments.sol\":12923:12954  withheldWithdrawals[msg.sender] */\n      0xffffffffffffffffffffffffffffffffffffffff\n      and\n      0xffffffffffffffffffffffffffffffffffffffff\n      and\n      dup2\n      mstore\n      0x20\n      add\n      swap1\n      dup2\n      mstore\n      0x20\n      add\n      0x00\n      keccak256\n        /* \"WandInstruments.sol\":12923:12967  withheldWithdrawals[msg.sender].timeUnlocked */\n      0x00\n      add\n        /* \"WandInstruments.sol\":12923:12994  withheldWithdrawals[msg.sender].timeUnlocked = block.timestamp + 864000 */\n      dup2\n      swap1\n      sstore\n      pop\n        /* \"WandInstruments.sol\":13048:13051  amt */\n      dup1\n        /* \"WandInstruments.sol\":13005:13024  withheldWithdrawals */\n      0x1b\n        /* \"WandInstruments.sol\":13005:13036  withheldWithdrawals[msg.sender] */\n      0x00\n        /* \"WandInstruments.sol\":13025:13035  msg.sender */\n      caller\n        /* \"WandInstruments.sol\":13005:13036  withheldWithdrawals[msg.sender] */\n      0xffffffffffffffffffffffffffffffffffffffff\n      and\n      0xffffffffffffffffffffffffffffffffffffffff\n      and\n      dup2\n      mstore\n      0x20\n      add\n      swap1\n      dup2\n      mstore\n      0x20\n      add\n      0x00\n      keccak256\n        /* \"WandInstruments.sol\":13005:13044  withheldWithdrawals[msg.sender].amounts */\n      0x01\n      add\n      0x00\n        /* \"WandInstruments.sol\":13005:13051  withheldWithdrawals[msg.sender].amounts += amt */\n      dup3\n      dup3\n      sload\n      tag_310\n      swap2\n      swap1\n      tag_227\n      jump\t// in\n    tag_310:\n      swap3\n      pop\n      pop\n      dup2\n      swap1\n      sstore\n      pop\n        /* \"WandInstruments.sol\":12593:13065  function testUpdatetimeLockedplus(uint256 amt) public  {\r... */\n      pop\n      jump\t// out\n        /* \"WandInstruments.sol\":1149:1166  int128 public res */\n    tag_134:\n      0x11\n      0x00\n      swap1\n      sload\n      swap1\n      0x0100\n      exp\n      swap1\n      div\n      0x0f\n      signextend\n      dup2\n      jump\t// out\n        /* \"WandInstruments.sol\":1496:1521  IERC20 public tokenStable */\n    tag_139:\n      0x16\n      0x00\n      swap1\n      sload\n      swap1\n      0x0100\n      exp\n      swap1\n      div\n      0xffffffffffffffffffffffffffffffffffffffff\n      and\n      dup2\n      jump\t// out\n        /* \"WandInstruments.sol\":13693:14221  function getTokensBoughtXDays() external view returns (uint256){\r... */\n    tag_143:\n        /* \"WandInstruments.sol\":13748:13755  uint256 */\n      0x00\n        /* \"WandInstruments.sol\":13767:13784  uint256 boughtnum */\n      dup1\n        /* \"WandInstruments.sol\":13795:13804  uint256 d */\n      0x00\n        /* \"WandInstruments.sol\":13815:13830  uint256 numdays */\n      dup1\n        /* \"WandInstruments.sol\":13851:13856  86400 */\n      0x015180\n        /* \"WandInstruments.sol\":13833:13850  daysInCalculation */\n      sload(0x0d)\n        /* \"WandInstruments.sol\":13833:13856  daysInCalculation/86400 */\n      tag_312\n      swap2\n      swap1\n      tag_231\n      jump\t// in\n    tag_312:\n        /* \"WandInstruments.sol\":13815:13856  uint256 numdays = daysInCalculation/86400 */\n      swap1\n      pop\n        /* \"WandInstruments.sol\":13867:13891  uint256 daySinceLaunched */\n      0x00\n        /* \"WandInstruments.sol\":13929:13934  86400 */\n      0x015180\n        /* \"WandInstruments.sol\":13913:13925  timeLaunched */\n      sload(0x0c)\n        /* \"WandInstruments.sol\":13895:13910  block.timestamp */\n      timestamp\n        /* \"WandInstruments.sol\":13895:13925  block.timestamp - timeLaunched */\n      tag_313\n      swap2\n      swap1\n      tag_233\n      jump\t// in\n    tag_313:\n        /* \"WandInstruments.sol\":13894:13934  (block.timestamp - timeLaunched) / 86400 */\n      tag_314\n      swap2\n      swap1\n      tag_231\n      jump\t// in\n    tag_314:\n        /* \"WandInstruments.sol\":13867:13934  uint256 daySinceLaunched = (block.timestamp - timeLaunched) / 86400 */\n      swap1\n      pop\n        /* \"WandInstruments.sol\":13969:13970  0 */\n      0x00\n        /* \"WandInstruments.sol\":13949:13965  daySinceLaunched */\n      dup2\n        /* \"WandInstruments.sol\":13949:13970  daySinceLaunched == 0 */\n      eq\n        /* \"WandInstruments.sol\":13945:14022  if (daySinceLaunched == 0) {\r... */\n      iszero\n      tag_315\n      jumpi\n        /* \"WandInstruments.sol\":13990:14007  tokensBoughtXDays */\n      0x17\n        /* \"WandInstruments.sol\":13990:14010  tokensBoughtXDays[0] */\n      0x00\n        /* \"WandInstruments.sol\":14008:14009  0 */\n      dup1\n        /* \"WandInstruments.sol\":13990:14010  tokensBoughtXDays[0] */\n      dup2\n      mstore\n      0x20\n      add\n      swap1\n      dup2\n      mstore\n      0x20\n      add\n      0x00\n      keccak256\n      sload\n        /* \"WandInstruments.sol\":13983:14010  return tokensBoughtXDays[0] */\n      swap5\n      pop\n      pop\n      pop\n      pop\n      pop\n      jump(tag_311)\n        /* \"WandInstruments.sol\":13945:14022  if (daySinceLaunched == 0) {\r... */\n    tag_315:\n        /* \"WandInstruments.sol\":14060:14067  numdays */\n      dup2\n        /* \"WandInstruments.sol\":14041:14057  daySinceLaunched */\n      dup2\n        /* \"WandInstruments.sol\":14041:14067  daySinceLaunched - numdays */\n      tag_319\n      swap2\n      swap1\n      tag_233\n      jump\t// in\n    tag_319:\n        /* \"WandInstruments.sol\":14037:14067  d = daySinceLaunched - numdays */\n      swap3\n      pop\n        /* \"WandInstruments.sol\":14032:14178  for (d = daySinceLaunched - numdays; d < daySinceLaunched; d++) {  //for loop example\r... */\n    tag_316:\n        /* \"WandInstruments.sol\":14073:14089  daySinceLaunched */\n      dup1\n        /* \"WandInstruments.sol\":14069:14070  d */\n      dup4\n        /* \"WandInstruments.sol\":14069:14089  d < daySinceLaunched */\n      lt\n        /* \"WandInstruments.sol\":14032:14178  for (d = daySinceLaunched - numdays; d < daySinceLaunched; d++) {  //for loop example\r... */\n      iszero\n      tag_317\n      jumpi\n        /* \"WandInstruments.sol\":14142:14159  tokensBoughtXDays */\n      0x17\n        /* \"WandInstruments.sol\":14142:14162  tokensBoughtXDays[d] */\n      0x00\n        /* \"WandInstruments.sol\":14160:14161  d */\n      dup5\n        /* \"WandInstruments.sol\":14142:14162  tokensBoughtXDays[d] */\n      dup2\n      mstore\n      0x20\n      add\n      swap1\n      dup2\n      mstore\n      0x20\n      add\n      0x00\n      keccak256\n      sload\n        /* \"WandInstruments.sol\":14129:14162  boughtnum += tokensBoughtXDays[d] */\n      dup5\n      tag_320\n      swap2\n      swap1\n      tag_227\n      jump\t// in\n    tag_320:\n      swap4\n      pop\n        /* \"WandInstruments.sol\":14091:14094  d++ */\n      dup3\n      dup1\n      tag_321\n      swap1\n      tag_243\n      jump\t// in\n    tag_321:\n      swap4\n      pop\n      pop\n        /* \"WandInstruments.sol\":14032:14178  for (d = daySinceLaunched - numdays; d < daySinceLaunched; d++) {  //for loop example\r... */\n      jump(tag_316)\n    tag_317:\n        /* \"WandInstruments.sol\":14204:14213  boughtnum */\n      dup4\n        /* \"WandInstruments.sol\":14197:14213  return boughtnum */\n      swap5\n      pop\n      pop\n      pop\n      pop\n      pop\n        /* \"WandInstruments.sol\":13693:14221  function getTokensBoughtXDays() external view returns (uint256){\r... */\n    tag_311:\n      swap1\n      jump\t// out\n        /* \"WandInstruments.sol\":7795:9042  function buyScepter(uint256 amountSCPtoBuy, string memory _stableChosen) public nonReentrant{\r... */\n    tag_149:\n        /* \"ReentrancyGuard.sol\":1778:1779  2 */\n      0x02\n        /* \"ReentrancyGuard.sol\":2376:2383  _status */\n      sload(0x00)\n        /* \"ReentrancyGuard.sol\":2376:2395  _status != _ENTERED */\n      eq\n      iszero\n        /* \"ReentrancyGuard.sol\":2368:2431  require(_status != _ENTERED, \"ReentrancyGuard: reentrant call\") */\n      tag_323\n      jumpi\n      mload(0x40)\n      0x08c379a000000000000000000000000000000000000000000000000000000000\n      dup2\n      mstore\n      0x04\n      add\n      tag_324\n      swap1\n      tag_325\n      jump\t// in\n    tag_324:\n      mload(0x40)\n      dup1\n      swap2\n      sub\n      swap1\n      revert\n    tag_323:\n        /* \"ReentrancyGuard.sol\":1778:1779  2 */\n      0x02\n        /* \"ReentrancyGuard.sol\":2509:2516  _status */\n      0x00\n        /* \"ReentrancyGuard.sol\":2509:2527  _status = _ENTERED */\n      dup2\n      swap1\n      sstore\n      pop\n        /* \"WandInstruments.sol\":7980:7995  stableERC20Info */\n      0x1a\n        /* \"WandInstruments.sol\":7996:8009  _stableChosen */\n      dup2\n        /* \"WandInstruments.sol\":7980:8010  stableERC20Info[_stableChosen] */\n      mload(0x40)\n      tag_327\n      swap2\n      swap1\n      tag_328\n      jump\t// in\n    tag_327:\n      swap1\n      dup2\n      mstore\n      0x20\n      add\n      mload(0x40)\n      dup1\n      swap2\n      sub\n      swap1\n      keccak256\n        /* \"WandInstruments.sol\":7980:8026  stableERC20Info[_stableChosen].contractAddress */\n      0x00\n      add\n      0x00\n      swap1\n      sload\n      swap1\n      0x0100\n      exp\n      swap1\n      div\n      0xffffffffffffffffffffffffffffffffffffffff\n      and\n        /* \"WandInstruments.sol\":7959:7970  tokenStable */\n      0x16\n      0x00\n        /* \"WandInstruments.sol\":7959:8027  tokenStable = IERC20(stableERC20Info[_stableChosen].contractAddress) */\n      0x0100\n      exp\n      dup2\n      sload\n      dup2\n      0xffffffffffffffffffffffffffffffffffffffff\n      mul\n      not\n      and\n      swap1\n      dup4\n      0xffffffffffffffffffffffffffffffffffffffff\n      and\n      mul\n      or\n      swap1\n      sstore\n      pop\n        /* \"WandInstruments.sol\":8064:8070  250000 */\n      0x03d090\n        /* \"WandInstruments.sol\":8046:8060  amountSCPtoBuy */\n      dup3\n        /* \"WandInstruments.sol\":8046:8070  amountSCPtoBuy <= 250000 */\n      gt\n      iszero\n        /* \"WandInstruments.sol\":8038:8097  require(amountSCPtoBuy <= 250000 , \"Per transaction limit\") */\n      tag_329\n      jumpi\n      mload(0x40)\n      0x08c379a000000000000000000000000000000000000000000000000000000000\n      dup2\n      mstore\n      0x04\n      add\n      tag_330\n      swap1\n      tag_331\n      jump\t// in\n    tag_330:\n      mload(0x40)\n      dup1\n      swap2\n      sub\n      swap1\n      revert\n    tag_329:\n        /* \"WandInstruments.sol\":8108:8135  uint256 trader_usdc_balance */\n      0x00\n        /* \"WandInstruments.sol\":8138:8149  tokenStable */\n      0x16\n      0x00\n      swap1\n      sload\n      swap1\n      0x0100\n      exp\n      swap1\n      div\n      0xffffffffffffffffffffffffffffffffffffffff\n      and\n        /* \"WandInstruments.sol\":8138:8159  tokenStable.balanceOf */\n      0xffffffffffffffffffffffffffffffffffffffff\n      and\n      0x70a08231\n        /* \"WandInstruments.sol\":8160:8170  msg.sender */\n      caller\n        /* \"WandInstruments.sol\":8138:8171  tokenStable.balanceOf(msg.sender) */\n      mload(0x40)\n      dup3\n      0xffffffff\n      and\n      0xe0\n      shl\n      dup2\n      mstore\n      0x04\n      add\n      tag_332\n      swap2\n      swap1\n      tag_56\n      jump\t// in\n    tag_332:\n      0x20\n      mload(0x40)\n      dup1\n      dup4\n      sub\n      dup2\n      dup7\n      dup1\n      extcodesize\n      iszero\n      dup1\n      iszero\n      tag_333\n      jumpi\n      0x00\n      dup1\n      revert\n    tag_333:\n      pop\n      gas\n      staticcall\n      iszero\n      dup1\n      iszero\n      tag_335\n      jumpi\n      returndatasize\n      0x00\n      dup1\n      returndatacopy\n      revert(0x00, returndatasize)\n    tag_335:\n      pop\n      pop\n      pop\n      pop\n      mload(0x40)\n      returndatasize\n      not(0x1f)\n      0x1f\n      dup3\n      add\n      and\n      dup3\n      add\n      dup1\n      0x40\n      mstore\n      pop\n      dup2\n      add\n      swap1\n      tag_336\n      swap2\n      swap1\n      tag_221\n      jump\t// in\n    tag_336:\n        /* \"WandInstruments.sol\":8108:8171  uint256 trader_usdc_balance = tokenStable.balanceOf(msg.sender) */\n      swap1\n      pop\n        /* \"WandInstruments.sol\":8212:8226  amountSCPtoBuy */\n      dup3\n        /* \"WandInstruments.sol\":8190:8209  trader_usdc_balance */\n      dup2\n        /* \"WandInstruments.sol\":8190:8226  trader_usdc_balance > amountSCPtoBuy */\n      gt\n        /* \"WandInstruments.sol\":8182:8257  require(trader_usdc_balance > amountSCPtoBuy, \"You dont have that amount!\") */\n      tag_337\n      jumpi\n      mload(0x40)\n      0x08c379a000000000000000000000000000000000000000000000000000000000\n      dup2\n      mstore\n      0x04\n      add\n      tag_338\n      swap1\n      tag_275\n      jump\t// in\n    tag_338:\n      mload(0x40)\n      dup1\n      swap2\n      sub\n      swap1\n      revert\n    tag_337:\n        /* \"WandInstruments.sol\":8324:8343  uint256 usdAmtToPay */\n      0x00\n        /* \"WandInstruments.sol\":8415:8430  stableERC20Info */\n      0x1a\n        /* \"WandInstruments.sol\":8431:8444  _stableChosen */\n      dup4\n        /* \"WandInstruments.sol\":8415:8445  stableERC20Info[_stableChosen] */\n      mload(0x40)\n      tag_339\n      swap2\n      swap1\n      tag_328\n      jump\t// in\n    tag_339:\n      swap1\n      dup2\n      mstore\n      0x20\n      add\n      mload(0x40)\n      dup1\n      swap2\n      sub\n      swap1\n      keccak256\n        /* \"WandInstruments.sol\":8415:8459  stableERC20Info[_stableChosen].tokenDecimals */\n      0x01\n      add\n      sload\n        /* \"WandInstruments.sol\":8368:8412  decMul18(amountSCPtoBuy, this.getBuyPrice()) */\n      tag_340\n        /* \"WandInstruments.sol\":8377:8391  amountSCPtoBuy */\n      dup6\n        /* \"WandInstruments.sol\":8393:8397  this */\n      address\n        /* \"WandInstruments.sol\":8393:8409  this.getBuyPrice */\n      0xffffffffffffffffffffffffffffffffffffffff\n      and\n      0x018a25e8\n        /* \"WandInstruments.sol\":8393:8411  this.getBuyPrice() */\n      mload(0x40)\n      dup2\n      0xffffffff\n      and\n      0xe0\n      shl\n      dup2\n      mstore\n      0x04\n      add\n      0x20\n      mload(0x40)\n      dup1\n      dup4\n      sub\n      dup2\n      0x00\n      dup8\n      dup1\n      extcodesize\n      iszero\n      dup1\n      iszero\n      tag_341\n      jumpi\n      0x00\n      dup1\n      revert\n    tag_341:\n      pop\n      gas\n      call\n      iszero\n      dup1\n      iszero\n      tag_343\n      jumpi\n      returndatasize\n      0x00\n      dup1\n      returndatacopy\n      revert(0x00, returndatasize)\n    tag_343:\n      pop\n      pop\n      pop\n      pop\n      mload(0x40)\n      returndatasize\n      not(0x1f)\n      0x1f\n      dup3\n      add\n      and\n      dup3\n      add\n      dup1\n      0x40\n      mstore\n      pop\n      dup2\n      add\n      swap1\n      tag_344\n      swap2\n      swap1\n      tag_221\n      jump\t// in\n    tag_344:\n        /* \"WandInstruments.sol\":8368:8376  decMul18 */\n      tag_228\n        /* \"WandInstruments.sol\":8368:8412  decMul18(amountSCPtoBuy, this.getBuyPrice()) */\n      jump\t// in\n    tag_340:\n        /* \"WandInstruments.sol\":8368:8459  decMul18(amountSCPtoBuy, this.getBuyPrice()) * stableERC20Info[_stableChosen].tokenDecimals */\n      tag_345\n      swap2\n      swap1\n      tag_346\n      jump\t// in\n    tag_345:\n        /* \"WandInstruments.sol\":8354:8459  usdAmtToPay = decMul18(amountSCPtoBuy, this.getBuyPrice()) * stableERC20Info[_stableChosen].tokenDecimals */\n      swap1\n      pop\n        /* \"WandInstruments.sol\":8515:8585  _safeTransferFrom(tokenStable, msg.sender, address(this), usdAmtToPay) */\n      tag_347\n        /* \"WandInstruments.sol\":8533:8544  tokenStable */\n      0x16\n      0x00\n      swap1\n      sload\n      swap1\n      0x0100\n      exp\n      swap1\n      div\n      0xffffffffffffffffffffffffffffffffffffffff\n      and\n        /* \"WandInstruments.sol\":8546:8556  msg.sender */\n      caller\n        /* \"WandInstruments.sol\":8566:8570  this */\n      address\n        /* \"WandInstruments.sol\":8573:8584  usdAmtToPay */\n      dup5\n        /* \"WandInstruments.sol\":8515:8532  _safeTransferFrom */\n      tag_277\n        /* \"WandInstruments.sol\":8515:8585  _safeTransferFrom(tokenStable, msg.sender, address(this), usdAmtToPay) */\n      jump\t// in\n    tag_347:\n        /* \"WandInstruments.sol\":8604:8608  SPTR */\n      0x13\n      0x00\n      swap1\n      sload\n      swap1\n      0x0100\n      exp\n      swap1\n      div\n      0xffffffffffffffffffffffffffffffffffffffff\n      and\n        /* \"WandInstruments.sol\":8604:8613  SPTR.mint */\n      0xffffffffffffffffffffffffffffffffffffffff\n      and\n      0x40c10f19\n        /* \"WandInstruments.sol\":8614:8624  msg.sender */\n      caller\n        /* \"WandInstruments.sol\":362:368  10**18 */\n      0x0de0b6b3a7640000\n        /* \"WandInstruments.sol\":8625:8639  amountSCPtoBuy */\n      dup8\n        /* \"WandInstruments.sol\":8625:8650  amountSCPtoBuy * DECIMALS */\n      tag_348\n      swap2\n      swap1\n      tag_346\n      jump\t// in\n    tag_348:\n        /* \"WandInstruments.sol\":8604:8651  SPTR.mint(msg.sender,amountSCPtoBuy * DECIMALS) */\n      mload(0x40)\n      dup4\n      0xffffffff\n      and\n      0xe0\n      shl\n      dup2\n      mstore\n      0x04\n      add\n      tag_349\n      swap3\n      swap2\n      swap1\n      tag_164\n      jump\t// in\n    tag_349:\n      0x00\n      mload(0x40)\n      dup1\n      dup4\n      sub\n      dup2\n      0x00\n      dup8\n      dup1\n      extcodesize\n      iszero\n      dup1\n      iszero\n      tag_350\n      jumpi\n      0x00\n      dup1\n      revert\n    tag_350:\n      pop\n      gas\n      call\n      iszero\n      dup1\n      iszero\n      tag_352\n      jumpi\n      returndatasize\n      0x00\n      dup1\n      returndatacopy\n      revert(0x00, returndatasize)\n    tag_352:\n      pop\n      pop\n      pop\n      pop\n        /* \"WandInstruments.sol\":8662:8666  WAND */\n      0x14\n      0x00\n      swap1\n      sload\n      swap1\n      0x0100\n      exp\n      swap1\n      div\n      0xffffffffffffffffffffffffffffffffffffffff\n      and\n        /* \"WandInstruments.sol\":8662:8671  WAND.mint */\n      0xffffffffffffffffffffffffffffffffffffffff\n      and\n      0x40c10f19\n        /* \"WandInstruments.sol\":8680:8684  this */\n      address\n        /* \"WandInstruments.sol\":362:368  10**18 */\n      0x0de0b6b3a7640000\n        /* \"WandInstruments.sol\":8686:8700  amountSCPtoBuy */\n      dup8\n        /* \"WandInstruments.sol\":8686:8711  amountSCPtoBuy * DECIMALS */\n      tag_353\n      swap2\n      swap1\n      tag_346\n      jump\t// in\n    tag_353:\n        /* \"WandInstruments.sol\":8662:8712  WAND.mint(address(this),amountSCPtoBuy * DECIMALS) */\n      mload(0x40)\n      dup4\n      0xffffffff\n      and\n      0xe0\n      shl\n      dup2\n      mstore\n      0x04\n      add\n      tag_354\n      swap3\n      swap2\n      swap1\n      tag_164\n      jump\t// in\n    tag_354:\n      0x00\n      mload(0x40)\n      dup1\n      dup4\n      sub\n      dup2\n      0x00\n      dup8\n      dup1\n      extcodesize\n      iszero\n      dup1\n      iszero\n      tag_355\n      jumpi\n      0x00\n      dup1\n      revert\n    tag_355:\n      pop\n      gas\n      call\n      iszero\n      dup1\n      iszero\n      tag_357\n      jumpi\n      returndatasize\n      0x00\n      dup1\n      returndatacopy\n      revert(0x00, returndatasize)\n    tag_357:\n      pop\n      pop\n      pop\n      pop\n        /* \"WandInstruments.sol\":8801:8817  uint256 dInArray */\n      0x00\n        /* \"WandInstruments.sol\":8851:8856  86400 */\n      0x015180\n        /* \"WandInstruments.sol\":8837:8849  timeLaunched */\n      sload(0x0c)\n        /* \"WandInstruments.sol\":8820:8835  block.timestamp */\n      timestamp\n        /* \"WandInstruments.sol\":8820:8849  block.timestamp- timeLaunched */\n      tag_358\n      swap2\n      swap1\n      tag_233\n      jump\t// in\n    tag_358:\n        /* \"WandInstruments.sol\":8819:8856  (block.timestamp- timeLaunched)/86400 */\n      tag_359\n      swap2\n      swap1\n      tag_231\n      jump\t// in\n    tag_359:\n        /* \"WandInstruments.sol\":8801:8856  uint256 dInArray =(block.timestamp- timeLaunched)/86400 */\n      swap1\n      pop\n        /* \"WandInstruments.sol\":8899:8913  amountSCPtoBuy */\n      dup5\n        /* \"WandInstruments.sol\":8868:8885  tokensBoughtXDays */\n      0x17\n        /* \"WandInstruments.sol\":8868:8895  tokensBoughtXDays[dInArray] */\n      0x00\n        /* \"WandInstruments.sol\":8886:8894  dInArray */\n      dup4\n        /* \"WandInstruments.sol\":8868:8895  tokensBoughtXDays[dInArray] */\n      dup2\n      mstore\n      0x20\n      add\n      swap1\n      dup2\n      mstore\n      0x20\n      add\n      0x00\n      keccak256\n      0x00\n        /* \"WandInstruments.sol\":8868:8913  tokensBoughtXDays[dInArray] += amountSCPtoBuy */\n      dup3\n      dup3\n      sload\n      tag_360\n      swap2\n      swap1\n      tag_227\n      jump\t// in\n    tag_360:\n      swap3\n      pop\n      pop\n      dup2\n      swap1\n      sstore\n      pop\n        /* \"WandInstruments.sol\":8960:8974  amountSCPtoBuy */\n      dup5\n        /* \"WandInstruments.sol\":8924:8946  circulatingSupplyXDays */\n      0x19\n        /* \"WandInstruments.sol\":8924:8956  circulatingSupplyXDays[dInArray] */\n      0x00\n        /* \"WandInstruments.sol\":8947:8955  dInArray */\n      dup4\n        /* \"WandInstruments.sol\":8924:8956  circulatingSupplyXDays[dInArray] */\n      dup2\n      mstore\n      0x20\n      add\n      swap1\n      dup2\n      mstore\n      0x20\n      add\n      0x00\n      keccak256\n      0x00\n        /* \"WandInstruments.sol\":8924:8974  circulatingSupplyXDays[dInArray] += amountSCPtoBuy */\n      dup3\n      dup3\n      sload\n      tag_361\n      swap2\n      swap1\n      tag_227\n      jump\t// in\n    tag_361:\n      swap3\n      pop\n      pop\n      dup2\n      swap1\n      sstore\n      pop\n        /* \"WandInstruments.sol\":9007:9017  msg.sender */\n      caller\n        /* \"WandInstruments.sol\":8992:9034  sceptersBought(msg.sender, amountSCPtoBuy) */\n      0xffffffffffffffffffffffffffffffffffffffff\n      and\n      0xf633443b01504d269657083d48bb6de98e089cfff672b47fefbed21608b5c779\n        /* \"WandInstruments.sol\":9019:9033  amountSCPtoBuy */\n      dup7\n        /* \"WandInstruments.sol\":8992:9034  sceptersBought(msg.sender, amountSCPtoBuy) */\n      mload(0x40)\n      tag_362\n      swap2\n      swap1\n      tag_51\n      jump\t// in\n    tag_362:\n      mload(0x40)\n      dup1\n      swap2\n      sub\n      swap1\n      log2\n        /* \"WandInstruments.sol\":7887:9042  {\r... */\n      pop\n      pop\n      pop\n        /* \"ReentrancyGuard.sol\":1734:1735  1 */\n      0x01\n        /* \"ReentrancyGuard.sol\":2688:2695  _status */\n      0x00\n        /* \"ReentrancyGuard.sol\":2688:2710  _status = _NOT_ENTERED */\n      dup2\n      swap1\n      sstore\n      pop\n        /* \"WandInstruments.sol\":7795:9042  function buyScepter(uint256 amountSCPtoBuy, string memory _stableChosen) public nonReentrant{\r... */\n      pop\n      pop\n      jump\t// out\n        /* \"WandInstruments.sol\":9590:10493  function getGrowthFactor() external view returns (uint256){\r... */\n    tag_152:\n        /* \"WandInstruments.sol\":9640:9647  uint256 */\n      0x00\n        /* \"WandInstruments.sol\":9792:9803  uint256 _gF */\n      dup1\n        /* \"WandInstruments.sol\":9814:9837  uint256 xDaysCircSupply */\n      0x00\n        /* \"WandInstruments.sol\":9848:9863  uint256 numdays */\n      dup1\n        /* \"WandInstruments.sol\":9884:9889  86400 */\n      0x015180\n        /* \"WandInstruments.sol\":9866:9883  daysInCalculation */\n      sload(0x0d)\n        /* \"WandInstruments.sol\":9866:9889  daysInCalculation/86400 */\n      tag_364\n      swap2\n      swap1\n      tag_231\n      jump\t// in\n    tag_364:\n        /* \"WandInstruments.sol\":9848:9889  uint256 numdays = daysInCalculation/86400 */\n      swap1\n      pop\n        /* \"WandInstruments.sol\":9900:9924  uint256 daySinceLaunched */\n      0x00\n        /* \"WandInstruments.sol\":9962:9967  86400 */\n      0x015180\n        /* \"WandInstruments.sol\":9946:9958  timeLaunched */\n      sload(0x0c)\n        /* \"WandInstruments.sol\":9928:9943  block.timestamp */\n      timestamp\n        /* \"WandInstruments.sol\":9928:9958  block.timestamp - timeLaunched */\n      tag_365\n      swap2\n      swap1\n      tag_233\n      jump\t// in\n    tag_365:\n        /* \"WandInstruments.sol\":9927:9967  (block.timestamp - timeLaunched) / 86400 */\n      tag_366\n      swap2\n      swap1\n      tag_231\n      jump\t// in\n    tag_366:\n        /* \"WandInstruments.sol\":9900:9967  uint256 daySinceLaunched = (block.timestamp - timeLaunched) / 86400 */\n      swap1\n      pop\n        /* \"WandInstruments.sol\":9978:9987  uint256 d */\n      0x00\n        /* \"WandInstruments.sol\":10032:10033  0 */\n      dup1\n        /* \"WandInstruments.sol\":10012:10028  daySinceLaunched */\n      dup3\n        /* \"WandInstruments.sol\":10012:10033  daySinceLaunched == 0 */\n      eq\n        /* \"WandInstruments.sol\":10008:10300  if (daySinceLaunched == 0) {\r... */\n      iszero\n      tag_367\n      jumpi\n        /* \"WandInstruments.sol\":10064:10086  circulatingSupplyXDays */\n      0x19\n        /* \"WandInstruments.sol\":10064:10089  circulatingSupplyXDays[0] */\n      0x00\n        /* \"WandInstruments.sol\":10087:10088  0 */\n      dup1\n        /* \"WandInstruments.sol\":10064:10089  circulatingSupplyXDays[0] */\n      dup2\n      mstore\n      0x20\n      add\n      swap1\n      dup2\n      mstore\n      0x20\n      add\n      0x00\n      keccak256\n      sload\n        /* \"WandInstruments.sol\":10046:10089  xDaysCircSupply = circulatingSupplyXDays[0] */\n      swap4\n      pop\n        /* \"WandInstruments.sol\":10008:10300  if (daySinceLaunched == 0) {\r... */\n      jump(tag_368)\n    tag_367:\n        /* \"WandInstruments.sol\":10158:10165  numdays */\n      dup3\n        /* \"WandInstruments.sol\":10139:10155  daySinceLaunched */\n      dup3\n        /* \"WandInstruments.sol\":10139:10165  daySinceLaunched - numdays */\n      tag_372\n      swap2\n      swap1\n      tag_233\n      jump\t// in\n    tag_372:\n        /* \"WandInstruments.sol\":10135:10165  d = daySinceLaunched - numdays */\n      swap1\n      pop\n        /* \"WandInstruments.sol\":10130:10289  for (d = daySinceLaunched - numdays; d < daySinceLaunched; d++) {  //for loop example\r... */\n    tag_369:\n        /* \"WandInstruments.sol\":10171:10187  daySinceLaunched */\n      dup2\n        /* \"WandInstruments.sol\":10167:10168  d */\n      dup2\n        /* \"WandInstruments.sol\":10167:10187  d < daySinceLaunched */\n      lt\n        /* \"WandInstruments.sol\":10130:10289  for (d = daySinceLaunched - numdays; d < daySinceLaunched; d++) {  //for loop example\r... */\n      iszero\n      tag_370\n      jumpi\n        /* \"WandInstruments.sol\":10248:10270  circulatingSupplyXDays */\n      0x19\n        /* \"WandInstruments.sol\":10248:10273  circulatingSupplyXDays[d] */\n      0x00\n        /* \"WandInstruments.sol\":10271:10272  d */\n      dup3\n        /* \"WandInstruments.sol\":10248:10273  circulatingSupplyXDays[d] */\n      dup2\n      mstore\n      0x20\n      add\n      swap1\n      dup2\n      mstore\n      0x20\n      add\n      0x00\n      keccak256\n      sload\n        /* \"WandInstruments.sol\":10229:10273  xDaysCircSupply += circulatingSupplyXDays[d] */\n      dup5\n      tag_373\n      swap2\n      swap1\n      tag_227\n      jump\t// in\n    tag_373:\n      swap4\n      pop\n        /* \"WandInstruments.sol\":10189:10192  d++ */\n      dup1\n      dup1\n      tag_374\n      swap1\n      tag_243\n      jump\t// in\n    tag_374:\n      swap2\n      pop\n      pop\n        /* \"WandInstruments.sol\":10130:10289  for (d = daySinceLaunched - numdays; d < daySinceLaunched; d++) {  //for loop example\r... */\n      jump(tag_369)\n    tag_370:\n        /* \"WandInstruments.sol\":10008:10300  if (daySinceLaunched == 0) {\r... */\n    tag_368:\n        /* \"WandInstruments.sol\":10315:10368  decDiv18(this.getTokensBoughtXDays(),xDaysCircSupply) */\n      tag_375\n        /* \"WandInstruments.sol\":10324:10328  this */\n      address\n        /* \"WandInstruments.sol\":10324:10349  this.getTokensBoughtXDays */\n      0xffffffffffffffffffffffffffffffffffffffff\n      and\n      0x71cd58f9\n        /* \"WandInstruments.sol\":10324:10351  this.getTokensBoughtXDays() */\n      mload(0x40)\n      dup2\n      0xffffffff\n      and\n      0xe0\n      shl\n      dup2\n      mstore\n      0x04\n      add\n      0x20\n      mload(0x40)\n      dup1\n      dup4\n      sub\n      dup2\n      dup7\n      dup1\n      extcodesize\n      iszero\n      dup1\n      iszero\n      tag_376\n      jumpi\n      0x00\n      dup1\n      revert\n    tag_376:\n      pop\n      gas\n      staticcall\n      iszero\n      dup1\n      iszero\n      tag_378\n      jumpi\n      returndatasize\n      0x00\n      dup1\n      returndatacopy\n      revert(0x00, returndatasize)\n    tag_378:\n      pop\n      pop\n      pop\n      pop\n      mload(0x40)\n      returndatasize\n      not(0x1f)\n      0x1f\n      dup3\n      add\n      and\n      dup3\n      add\n      dup1\n      0x40\n      mstore\n      pop\n      dup2\n      add\n      swap1\n      tag_379\n      swap2\n      swap1\n      tag_221\n      jump\t// in\n    tag_379:\n        /* \"WandInstruments.sol\":10352:10367  xDaysCircSupply */\n      dup6\n        /* \"WandInstruments.sol\":10315:10323  decDiv18 */\n      tag_249\n        /* \"WandInstruments.sol\":10315:10368  decDiv18(this.getTokensBoughtXDays(),xDaysCircSupply) */\n      jump\t// in\n    tag_375:\n        /* \"WandInstruments.sol\":10309:10368  _gF = decDiv18(this.getTokensBoughtXDays(),xDaysCircSupply) */\n      swap5\n      pop\n        /* \"WandInstruments.sol\":10388:10406  300000000000000000 */\n      0x0429d069189e0000\n        /* \"WandInstruments.sol\":10382:10385  _gF */\n      dup6\n        /* \"WandInstruments.sol\":10382:10406  _gF > 300000000000000000 */\n      gt\n        /* \"WandInstruments.sol\":10378:10465  if (_gF > 300000000000000000)\r... */\n      iszero\n      tag_380\n      jumpi\n        /* \"WandInstruments.sol\":10436:10454  300000000000000000 */\n      0x0429d069189e0000\n        /* \"WandInstruments.sol\":10430:10454  _gF = 300000000000000000 */\n      swap5\n      pop\n        /* \"WandInstruments.sol\":10378:10465  if (_gF > 300000000000000000)\r... */\n    tag_380:\n        /* \"WandInstruments.sol\":10481:10484  _gF */\n      dup5\n        /* \"WandInstruments.sol\":10474:10484  return _gF */\n      swap6\n      pop\n      pop\n      pop\n      pop\n      pop\n      pop\n        /* \"WandInstruments.sol\":9590:10493  function getGrowthFactor() external view returns (uint256){\r... */\n      swap1\n      jump\t// out\n        /* \"WandInstruments.sol\":14962:15051  function whitelist(address _addr) public onlyOwner {  \r... */\n    tag_157:\n      pop\n      jump\t// out\n        /* \"WandInstruments.sol\":1883:1944  mapping (string => stableTokensParams) public stableERC20Info */\n    tag_162:\n      0x1a\n      dup2\n      dup1\n      mload\n      0x20\n      dup2\n      add\n      dup3\n      add\n      dup1\n      mload\n      dup5\n      dup3\n      mstore\n      0x20\n      dup4\n      add\n      0x20\n      dup6\n      add\n      keccak256\n      dup2\n      dup4\n      mstore\n      dup1\n      swap6\n      pop\n      pop\n      pop\n      pop\n      pop\n      pop\n      0x00\n      swap2\n      pop\n      swap1\n      pop\n      dup1\n      0x00\n      add\n      0x00\n      swap1\n      sload\n      swap1\n      0x0100\n      exp\n      swap1\n      div\n      0xffffffffffffffffffffffffffffffffffffffff\n      and\n      swap1\n      dup1\n      0x01\n      add\n      sload\n      swap1\n      pop\n      dup3\n      jump\t// out\n        /* \"WandInstruments.sol\":9050:9557  function claimLockedUSDC(address _claimant, string memory _stableChosen) public {\r... */\n    tag_169:\n        /* \"WandInstruments.sol\":9169:9188  withheldWithdrawals */\n      0x1b\n        /* \"WandInstruments.sol\":9169:9199  withheldWithdrawals[_claimant] */\n      0x00\n        /* \"WandInstruments.sol\":9189:9198  _claimant */\n      dup4\n        /* \"WandInstruments.sol\":9169:9199  withheldWithdrawals[_claimant] */\n      0xffffffffffffffffffffffffffffffffffffffff\n      and\n      0xffffffffffffffffffffffffffffffffffffffff\n      and\n      dup2\n      mstore\n      0x20\n      add\n      swap1\n      dup2\n      mstore\n      0x20\n      add\n      0x00\n      keccak256\n        /* \"WandInstruments.sol\":9169:9212  withheldWithdrawals[_claimant].timeUnlocked */\n      0x00\n      add\n      sload\n        /* \"WandInstruments.sol\":9150:9165  block.timestamp */\n      timestamp\n        /* \"WandInstruments.sol\":9150:9212  block.timestamp >= withheldWithdrawals[_claimant].timeUnlocked */\n      lt\n      iszero\n        /* \"WandInstruments.sol\":9141:9229  require (block.timestamp >= withheldWithdrawals[_claimant].timeUnlocked, \"Not unlocked\") */\n      tag_384\n      jumpi\n      mload(0x40)\n      0x08c379a000000000000000000000000000000000000000000000000000000000\n      dup2\n      mstore\n      0x04\n      add\n      tag_385\n      swap1\n      tag_386\n      jump\t// in\n    tag_385:\n      mload(0x40)\n      dup1\n      swap2\n      sub\n      swap1\n      revert\n    tag_384:\n        /* \"WandInstruments.sol\":9261:9276  stableERC20Info */\n      0x1a\n        /* \"WandInstruments.sol\":9277:9290  _stableChosen */\n      dup2\n        /* \"WandInstruments.sol\":9261:9291  stableERC20Info[_stableChosen] */\n      mload(0x40)\n      tag_387\n      swap2\n      swap1\n      tag_328\n      jump\t// in\n    tag_387:\n      swap1\n      dup2\n      mstore\n      0x20\n      add\n      mload(0x40)\n      dup1\n      swap2\n      sub\n      swap1\n      keccak256\n        /* \"WandInstruments.sol\":9261:9307  stableERC20Info[_stableChosen].contractAddress */\n      0x00\n      add\n      0x00\n      swap1\n      sload\n      swap1\n      0x0100\n      exp\n      swap1\n      div\n      0xffffffffffffffffffffffffffffffffffffffff\n      and\n        /* \"WandInstruments.sol\":9240:9251  tokenStable */\n      0x16\n      0x00\n        /* \"WandInstruments.sol\":9240:9308  tokenStable = IERC20(stableERC20Info[_stableChosen].contractAddress) */\n      0x0100\n      exp\n      dup2\n      sload\n      dup2\n      0xffffffffffffffffffffffffffffffffffffffff\n      mul\n      not\n      and\n      swap1\n      dup4\n      0xffffffffffffffffffffffffffffffffffffffff\n      and\n      mul\n      or\n      swap1\n      sstore\n      pop\n        /* \"WandInstruments.sol\":9390:9407  uint256 claimAmts */\n      0x00\n        /* \"WandInstruments.sol\":9430:9449  withheldWithdrawals */\n      0x1b\n        /* \"WandInstruments.sol\":9430:9460  withheldWithdrawals[_claimant] */\n      0x00\n        /* \"WandInstruments.sol\":9450:9459  _claimant */\n      dup5\n        /* \"WandInstruments.sol\":9430:9460  withheldWithdrawals[_claimant] */\n      0xffffffffffffffffffffffffffffffffffffffff\n      and\n      0xffffffffffffffffffffffffffffffffffffffff\n      and\n      dup2\n      mstore\n      0x20\n      add\n      swap1\n      dup2\n      mstore\n      0x20\n      add\n      0x00\n      keccak256\n        /* \"WandInstruments.sol\":9430:9468  withheldWithdrawals[_claimant].amounts */\n      0x01\n      add\n      sload\n        /* \"WandInstruments.sol\":9418:9468  claimAmts = withheldWithdrawals[_claimant].amounts */\n      swap1\n      pop\n        /* \"WandInstruments.sol\":9479:9547  _safeTransferFrom(tokenStable, address(this), msg.sender, claimAmts) */\n      tag_388\n        /* \"WandInstruments.sol\":9497:9508  tokenStable */\n      0x16\n      0x00\n      swap1\n      sload\n      swap1\n      0x0100\n      exp\n      swap1\n      div\n      0xffffffffffffffffffffffffffffffffffffffff\n      and\n        /* \"WandInstruments.sol\":9518:9522  this */\n      address\n        /* \"WandInstruments.sol\":9525:9535  msg.sender */\n      caller\n        /* \"WandInstruments.sol\":9537:9546  claimAmts */\n      dup5\n        /* \"WandInstruments.sol\":9479:9496  _safeTransferFrom */\n      tag_277\n        /* \"WandInstruments.sol\":9479:9547  _safeTransferFrom(tokenStable, address(this), msg.sender, claimAmts) */\n      jump\t// in\n    tag_388:\n        /* \"WandInstruments.sol\":9130:9557  {\r... */\n      pop\n        /* \"WandInstruments.sol\":9050:9557  function claimLockedUSDC(address _claimant, string memory _stableChosen) public {\r... */\n      pop\n      pop\n      jump\t// out\n        /* \"WandInstruments.sol\":660:694  address public scepterTreasuryAddr */\n    tag_172:\n      0x08\n      0x00\n      swap1\n      sload\n      swap1\n      0x0100\n      exp\n      swap1\n      div\n      0xffffffffffffffffffffffffffffffffffffffff\n      and\n      dup2\n      jump\t// out\n        /* \"WandInstruments.sol\":1469:1487  IERC20 public BTON */\n    tag_176:\n      0x15\n      0x00\n      swap1\n      sload\n      swap1\n      0x0100\n      exp\n      swap1\n      div\n      0xffffffffffffffffffffffffffffffffffffffff\n      and\n      dup2\n      jump\t// out\n        /* \"WandInstruments.sol\":5299:7025  function cashOutScepter(uint256 amountSCPtoSell, uint256 timeChosenLocked, string memory _stableChosen) public payable{\r... */\n    tag_181:\n        /* \"WandInstruments.sol\":5510:5525  stableERC20Info */\n      0x1a\n        /* \"WandInstruments.sol\":5526:5539  _stableChosen */\n      dup2\n        /* \"WandInstruments.sol\":5510:5540  stableERC20Info[_stableChosen] */\n      mload(0x40)\n      tag_390\n      swap2\n      swap1\n      tag_328\n      jump\t// in\n    tag_390:\n      swap1\n      dup2\n      mstore\n      0x20\n      add\n      mload(0x40)\n      dup1\n      swap2\n      sub\n      swap1\n      keccak256\n        /* \"WandInstruments.sol\":5510:5556  stableERC20Info[_stableChosen].contractAddress */\n      0x00\n      add\n      0x00\n      swap1\n      sload\n      swap1\n      0x0100\n      exp\n      swap1\n      div\n      0xffffffffffffffffffffffffffffffffffffffff\n      and\n        /* \"WandInstruments.sol\":5489:5500  tokenStable */\n      0x16\n      0x00\n        /* \"WandInstruments.sol\":5489:5557  tokenStable = IERC20(stableERC20Info[_stableChosen].contractAddress) */\n      0x0100\n      exp\n      dup2\n      sload\n      dup2\n      0xffffffffffffffffffffffffffffffffffffffff\n      mul\n      not\n      and\n      swap1\n      dup4\n      0xffffffffffffffffffffffffffffffffffffffff\n      and\n      mul\n      or\n      swap1\n      sstore\n      pop\n        /* \"WandInstruments.sol\":5568:5594  uint256 trader_tsc_balance */\n      0x00\n        /* \"WandInstruments.sol\":5597:5601  SPTR */\n      0x13\n      0x00\n      swap1\n      sload\n      swap1\n      0x0100\n      exp\n      swap1\n      div\n      0xffffffffffffffffffffffffffffffffffffffff\n      and\n        /* \"WandInstruments.sol\":5597:5611  SPTR.balanceOf */\n      0xffffffffffffffffffffffffffffffffffffffff\n      and\n      0x70a08231\n        /* \"WandInstruments.sol\":5612:5622  msg.sender */\n      caller\n        /* \"WandInstruments.sol\":5597:5623  SPTR.balanceOf(msg.sender) */\n      mload(0x40)\n      dup3\n      0xffffffff\n      and\n      0xe0\n      shl\n      dup2\n      mstore\n      0x04\n      add\n      tag_391\n      swap2\n      swap1\n      tag_56\n      jump\t// in\n    tag_391:\n      0x20\n      mload(0x40)\n      dup1\n      dup4\n      sub\n      dup2\n      dup7\n      dup1\n      extcodesize\n      iszero\n      dup1\n      iszero\n      tag_392\n      jumpi\n      0x00\n      dup1\n      revert\n    tag_392:\n      pop\n      gas\n      staticcall\n      iszero\n      dup1\n      iszero\n      tag_394\n      jumpi\n      returndatasize\n      0x00\n      dup1\n      returndatacopy\n      revert(0x00, returndatasize)\n    tag_394:\n      pop\n      pop\n      pop\n      pop\n      mload(0x40)\n      returndatasize\n      not(0x1f)\n      0x1f\n      dup3\n      add\n      and\n      dup3\n      add\n      dup1\n      0x40\n      mstore\n      pop\n      dup2\n      add\n      swap1\n      tag_395\n      swap2\n      swap1\n      tag_221\n      jump\t// in\n    tag_395:\n        /* \"WandInstruments.sol\":5568:5623  uint256 trader_tsc_balance = SPTR.balanceOf(msg.sender) */\n      swap1\n      pop\n        /* \"WandInstruments.sol\":5663:5678  amountSCPtoSell */\n      dup4\n        /* \"WandInstruments.sol\":5642:5660  trader_tsc_balance */\n      dup2\n        /* \"WandInstruments.sol\":5642:5678  trader_tsc_balance > amountSCPtoSell */\n      gt\n        /* \"WandInstruments.sol\":5634:5709  require(trader_tsc_balance > amountSCPtoSell, \"You dont have that amount!\") */\n      tag_396\n      jumpi\n      mload(0x40)\n      0x08c379a000000000000000000000000000000000000000000000000000000000\n      dup2\n      mstore\n      0x04\n      add\n      tag_397\n      swap1\n      tag_275\n      jump\t// in\n    tag_397:\n      mload(0x40)\n      dup1\n      swap2\n      sub\n      swap1\n      revert\n    tag_396:\n        /* \"WandInstruments.sol\":5911:5922  tokenStable */\n      0x16\n      0x00\n      swap1\n      sload\n      swap1\n      0x0100\n      exp\n      swap1\n      div\n      0xffffffffffffffffffffffffffffffffffffffff\n      and\n        /* \"WandInstruments.sol\":5911:5931  tokenStable.transfer */\n      0xffffffffffffffffffffffffffffffffffffffff\n      and\n      0xa9059cbb\n        /* \"WandInstruments.sol\":5932:5942  msg.sender */\n      caller\n        /* \"WandInstruments.sol\":362:368  10**18 */\n      0x0de0b6b3a7640000\n        /* \"WandInstruments.sol\":5963:5964  1 */\n      0x01\n        /* \"WandInstruments.sol\":5963:5975  1*(DECIMALS) */\n      tag_398\n      swap2\n      swap1\n      tag_346\n      jump\t// in\n    tag_398:\n        /* \"WandInstruments.sol\":5944:5959  amountSCPtoSell */\n      dup8\n        /* \"WandInstruments.sol\":5944:5976  amountSCPtoSell + (1*(DECIMALS)) */\n      tag_399\n      swap2\n      swap1\n      tag_227\n      jump\t// in\n    tag_399:\n        /* \"WandInstruments.sol\":5911:5977  tokenStable.transfer(msg.sender, amountSCPtoSell + (1*(DECIMALS))) */\n      mload(0x40)\n      dup4\n      0xffffffff\n      and\n      0xe0\n      shl\n      dup2\n      mstore\n      0x04\n      add\n      tag_400\n      swap3\n      swap2\n      swap1\n      tag_164\n      jump\t// in\n    tag_400:\n      0x20\n      mload(0x40)\n      dup1\n      dup4\n      sub\n      dup2\n      0x00\n      dup8\n      dup1\n      extcodesize\n      iszero\n      dup1\n      iszero\n      tag_401\n      jumpi\n      0x00\n      dup1\n      revert\n    tag_401:\n      pop\n      gas\n      call\n      iszero\n      dup1\n      iszero\n      tag_403\n      jumpi\n      returndatasize\n      0x00\n      dup1\n      returndatacopy\n      revert(0x00, returndatasize)\n    tag_403:\n      pop\n      pop\n      pop\n      pop\n      mload(0x40)\n      returndatasize\n      not(0x1f)\n      0x1f\n      dup3\n      add\n      and\n      dup3\n      add\n      dup1\n      0x40\n      mstore\n      pop\n      dup2\n      add\n      swap1\n      tag_404\n      swap2\n      swap1\n      tag_405\n      jump\t// in\n    tag_404:\n      pop\n        /* \"WandInstruments.sol\":6080:6147  _safeTransferFrom(SPTR, msg.sender, address(this), amountSCPtoSell) */\n      tag_406\n        /* \"WandInstruments.sol\":6098:6102  SPTR */\n      0x13\n      0x00\n      swap1\n      sload\n      swap1\n      0x0100\n      exp\n      swap1\n      div\n      0xffffffffffffffffffffffffffffffffffffffff\n      and\n        /* \"WandInstruments.sol\":6104:6114  msg.sender */\n      caller\n        /* \"WandInstruments.sol\":6124:6128  this */\n      address\n        /* \"WandInstruments.sol\":6131:6146  amountSCPtoSell */\n      dup8\n        /* \"WandInstruments.sol\":6080:6097  _safeTransferFrom */\n      tag_277\n        /* \"WandInstruments.sol\":6080:6147  _safeTransferFrom(SPTR, msg.sender, address(this), amountSCPtoSell) */\n      jump\t// in\n    tag_406:\n        /* \"WandInstruments.sol\":6161:6176  uint256 usdcAmt */\n      0x00\n        /* \"WandInstruments.sol\":6223:6238  amountSCPtoSell */\n      dup5\n        /* \"WandInstruments.sol\":6201:6205  this */\n      address\n        /* \"WandInstruments.sol\":6201:6218  this.getSellPrice */\n      0xffffffffffffffffffffffffffffffffffffffff\n      and\n      0x43d32e9c\n        /* \"WandInstruments.sol\":6201:6220  this.getSellPrice() */\n      mload(0x40)\n      dup2\n      0xffffffff\n      and\n      0xe0\n      shl\n      dup2\n      mstore\n      0x04\n      add\n      0x20\n      mload(0x40)\n      dup1\n      dup4\n      sub\n      dup2\n      0x00\n      dup8\n      dup1\n      extcodesize\n      iszero\n      dup1\n      iszero\n      tag_407\n      jumpi\n      0x00\n      dup1\n      revert\n    tag_407:\n      pop\n      gas\n      call\n      iszero\n      dup1\n      iszero\n      tag_409\n      jumpi\n      returndatasize\n      0x00\n      dup1\n      returndatacopy\n      revert(0x00, returndatasize)\n    tag_409:\n      pop\n      pop\n      pop\n      pop\n      mload(0x40)\n      returndatasize\n      not(0x1f)\n      0x1f\n      dup3\n      add\n      and\n      dup3\n      add\n      dup1\n      0x40\n      mstore\n      pop\n      dup2\n      add\n      swap1\n      tag_410\n      swap2\n      swap1\n      tag_221\n      jump\t// in\n    tag_410:\n        /* \"WandInstruments.sol\":6201:6238  this.getSellPrice() * amountSCPtoSell */\n      tag_411\n      swap2\n      swap1\n      tag_346\n      jump\t// in\n    tag_411:\n        /* \"WandInstruments.sol\":6191:6238  usdcAmt = this.getSellPrice() * amountSCPtoSell */\n      swap1\n      pop\n        /* \"WandInstruments.sol\":6513:6529  uint256 dInArray */\n      0x00\n        /* \"WandInstruments.sol\":6563:6568  86400 */\n      0x015180\n        /* \"WandInstruments.sol\":6549:6561  timeLaunched */\n      sload(0x0c)\n        /* \"WandInstruments.sol\":6532:6547  block.timestamp */\n      timestamp\n        /* \"WandInstruments.sol\":6532:6561  block.timestamp- timeLaunched */\n      tag_412\n      swap2\n      swap1\n      tag_233\n      jump\t// in\n    tag_412:\n        /* \"WandInstruments.sol\":6531:6568  (block.timestamp- timeLaunched)/86400 */\n      tag_413\n      swap2\n      swap1\n      tag_231\n      jump\t// in\n    tag_413:\n        /* \"WandInstruments.sol\":6513:6568  uint256 dInArray =(block.timestamp- timeLaunched)/86400 */\n      swap1\n      pop\n        /* \"WandInstruments.sol\":6609:6624  amountSCPtoSell */\n      dup6\n        /* \"WandInstruments.sol\":6580:6595  tokensSoldXDays */\n      0x18\n        /* \"WandInstruments.sol\":6580:6605  tokensSoldXDays[dInArray] */\n      0x00\n        /* \"WandInstruments.sol\":6596:6604  dInArray */\n      dup4\n        /* \"WandInstruments.sol\":6580:6605  tokensSoldXDays[dInArray] */\n      dup2\n      mstore\n      0x20\n      add\n      swap1\n      dup2\n      mstore\n      0x20\n      add\n      0x00\n      keccak256\n      0x00\n        /* \"WandInstruments.sol\":6580:6624  tokensSoldXDays[dInArray] += amountSCPtoSell */\n      dup3\n      dup3\n      sload\n      tag_414\n      swap2\n      swap1\n      tag_227\n      jump\t// in\n    tag_414:\n      swap3\n      pop\n      pop\n      dup2\n      swap1\n      sstore\n      pop\n        /* \"WandInstruments.sol\":6671:6686  amountSCPtoSell */\n      dup6\n        /* \"WandInstruments.sol\":6635:6657  circulatingSupplyXDays */\n      0x19\n        /* \"WandInstruments.sol\":6635:6667  circulatingSupplyXDays[dInArray] */\n      0x00\n        /* \"WandInstruments.sol\":6658:6666  dInArray */\n      dup4\n        /* \"WandInstruments.sol\":6635:6667  circulatingSupplyXDays[dInArray] */\n      dup2\n      mstore\n      0x20\n      add\n      swap1\n      dup2\n      mstore\n      0x20\n      add\n      0x00\n      keccak256\n      0x00\n        /* \"WandInstruments.sol\":6635:6686  circulatingSupplyXDays[dInArray] -= amountSCPtoSell */\n      dup3\n      dup3\n      sload\n      tag_415\n      swap2\n      swap1\n      tag_233\n      jump\t// in\n    tag_415:\n      swap3\n      pop\n      pop\n      dup2\n      swap1\n      sstore\n      pop\n        /* \"WandInstruments.sol\":5417:7025  {\r... */\n      pop\n      pop\n      pop\n        /* \"WandInstruments.sol\":5299:7025  function cashOutScepter(uint256 amountSCPtoSell, uint256 timeChosenLocked, string memory _stableChosen) public payable{\r... */\n      pop\n      pop\n      pop\n      jump\t// out\n        /* \"WandInstruments.sol\":411:436  uint256 public sellFactor */\n    tag_184:\n      sload(0x02)\n      dup2\n      jump\t// out\n        /* \"WandInstruments.sol\":1444:1462  IERC20 public WAND */\n    tag_188:\n      0x14\n      0x00\n      swap1\n      sload\n      swap1\n      0x0100\n      exp\n      swap1\n      div\n      0xffffffffffffffffffffffffffffffffffffffff\n      and\n      dup2\n      jump\t// out\n        /* \"WandInstruments.sol\":14227:14513  function getTokensSoldXDays() external view returns (uint256){\r... */\n    tag_192:\n        /* \"WandInstruments.sol\":14280:14287  uint256 */\n      0x00\n        /* \"WandInstruments.sol\":14299:14314  uint256 soldNum */\n      dup1\n        /* \"WandInstruments.sol\":14325:14334  uint256 d */\n      0x00\n        /* \"WandInstruments.sol\":14345:14360  uint256 numdays */\n      dup1\n        /* \"WandInstruments.sol\":14381:14386  86400 */\n      0x015180\n        /* \"WandInstruments.sol\":14363:14380  daysInCalculation */\n      sload(0x0d)\n        /* \"WandInstruments.sol\":14363:14386  daysInCalculation/86400 */\n      tag_417\n      swap2\n      swap1\n      tag_231\n      jump\t// in\n    tag_417:\n        /* \"WandInstruments.sol\":14345:14386  uint256 numdays = daysInCalculation/86400 */\n      swap1\n      pop\n        /* \"WandInstruments.sol\":14408:14409  0 */\n      0x00\n        /* \"WandInstruments.sol\":14404:14409  d = 0 */\n      swap2\n      pop\n        /* \"WandInstruments.sol\":14399:14482  for (d = 0; d < numdays; d++) { \r... */\n    tag_418:\n        /* \"WandInstruments.sol\":14415:14422  numdays */\n      dup1\n        /* \"WandInstruments.sol\":14411:14412  d */\n      dup3\n        /* \"WandInstruments.sol\":14411:14422  d < numdays */\n      lt\n        /* \"WandInstruments.sol\":14399:14482  for (d = 0; d < numdays; d++) { \r... */\n      iszero\n      tag_419\n      jumpi\n        /* \"WandInstruments.sol\":14454:14469  tokensSoldXDays */\n      0x18\n        /* \"WandInstruments.sol\":14454:14472  tokensSoldXDays[d] */\n      0x00\n        /* \"WandInstruments.sol\":14470:14471  d */\n      dup4\n        /* \"WandInstruments.sol\":14454:14472  tokensSoldXDays[d] */\n      dup2\n      mstore\n      0x20\n      add\n      swap1\n      dup2\n      mstore\n      0x20\n      add\n      0x00\n      keccak256\n      sload\n        /* \"WandInstruments.sol\":14443:14472  soldNum += tokensSoldXDays[d] */\n      dup4\n      tag_421\n      swap2\n      swap1\n      tag_227\n      jump\t// in\n    tag_421:\n      swap3\n      pop\n        /* \"WandInstruments.sol\":14424:14427  d++ */\n      dup2\n      dup1\n      tag_422\n      swap1\n      tag_243\n      jump\t// in\n    tag_422:\n      swap3\n      pop\n      pop\n        /* \"WandInstruments.sol\":14399:14482  for (d = 0; d < numdays; d++) { \r... */\n      jump(tag_418)\n    tag_419:\n        /* \"WandInstruments.sol\":14498:14505  soldNum */\n      dup3\n        /* \"WandInstruments.sol\":14491:14505  return soldNum */\n      swap4\n      pop\n      pop\n      pop\n      pop\n        /* \"WandInstruments.sol\":14227:14513  function getTokensSoldXDays() external view returns (uint256){\r... */\n      swap1\n      jump\t// out\n        /* \"WandInstruments.sol\":15059:15278  function addStable(string memory _ticker, address _addr, uint256 _dec) public onlyOwner {\r... */\n    tag_198:\n        /* \"WandInstruments.sol\":15207:15212  _addr */\n      dup2\n        /* \"WandInstruments.sol\":15164:15179  stableERC20Info */\n      0x1a\n        /* \"WandInstruments.sol\":15180:15187  _ticker */\n      dup5\n        /* \"WandInstruments.sol\":15164:15188  stableERC20Info[_ticker] */\n      mload(0x40)\n      tag_425\n      swap2\n      swap1\n      tag_328\n      jump\t// in\n    tag_425:\n      swap1\n      dup2\n      mstore\n      0x20\n      add\n      mload(0x40)\n      dup1\n      swap2\n      sub\n      swap1\n      keccak256\n        /* \"WandInstruments.sol\":15164:15204  stableERC20Info[_ticker].contractAddress */\n      0x00\n      add\n      0x00\n        /* \"WandInstruments.sol\":15164:15212  stableERC20Info[_ticker].contractAddress = _addr */\n      0x0100\n      exp\n      dup2\n      sload\n      dup2\n      0xffffffffffffffffffffffffffffffffffffffff\n      mul\n      not\n      and\n      swap1\n      dup4\n      0xffffffffffffffffffffffffffffffffffffffff\n      and\n      mul\n      or\n      swap1\n      sstore\n      pop\n        /* \"WandInstruments.sol\":15264:15268  _dec */\n      dup1\n        /* \"WandInstruments.sol\":15223:15238  stableERC20Info */\n      0x1a\n        /* \"WandInstruments.sol\":15239:15246  _ticker */\n      dup5\n        /* \"WandInstruments.sol\":15223:15247  stableERC20Info[_ticker] */\n      mload(0x40)\n      tag_426\n      swap2\n      swap1\n      tag_328\n      jump\t// in\n    tag_426:\n      swap1\n      dup2\n      mstore\n      0x20\n      add\n      mload(0x40)\n      dup1\n      swap2\n      sub\n      swap1\n      keccak256\n        /* \"WandInstruments.sol\":15223:15261  stableERC20Info[_ticker].tokenDecimals */\n      0x01\n      add\n        /* \"WandInstruments.sol\":15223:15268  stableERC20Info[_ticker].tokenDecimals = _dec */\n      dup2\n      swap1\n      sstore\n      pop\n        /* \"WandInstruments.sol\":15059:15278  function addStable(string memory _ticker, address _addr, uint256 _dec) public onlyOwner {\r... */\n      pop\n      pop\n      pop\n      jump\t// out\n        /* \"WandInstruments.sol\":377:404  uint256 public growthFactor */\n    tag_201:\n      sload(0x01)\n      dup2\n      jump\t// out\n        /* \"WandInstruments.sol\":1173:1243  address public testwallet = 0x617F2E2fD72FD9D5503197092aC168c91465E7f2 */\n    tag_205:\n      0x12\n      0x00\n      swap1\n      sload\n      swap1\n      0x0100\n      exp\n      swap1\n      div\n      0xffffffffffffffffffffffffffffffffffffffff\n      and\n      dup2\n      jump\t// out\n        /* \"WandInstruments.sol\":625:653  address public treasury1Addr */\n    tag_209:\n      0x07\n      0x00\n      swap1\n      sload\n      swap1\n      0x0100\n      exp\n      swap1\n      div\n      0xffffffffffffffffffffffffffffffffffffffff\n      and\n      dup2\n      jump\t// out\n        /* \"WandInstruments.sol\":12341:12497  function setDaysUsedInFactors(uint256 numDays) public {  \r... */\n    tag_214:\n        /* \"WandInstruments.sol\":12474:12479  86400 */\n      0x015180\n        /* \"WandInstruments.sol\":12464:12471  numDays */\n      dup2\n        /* \"WandInstruments.sol\":12464:12479  numDays * 86400 */\n      tag_428\n      swap2\n      swap1\n      tag_346\n      jump\t// in\n    tag_428:\n        /* \"WandInstruments.sol\":12444:12461  daysInCalculation */\n      0x0d\n        /* \"WandInstruments.sol\":12444:12479  daysInCalculation = numDays * 86400 */\n      dup2\n      swap1\n      sstore\n      pop\n        /* \"WandInstruments.sol\":12341:12497  function setDaysUsedInFactors(uint256 numDays) public {  \r... */\n      pop\n      jump\t// out\n        /* \"WandInstruments.sol\":4581:4753  function decMul18(uint x, uint y) internal pure returns (uint decProd) {\r... */\n    tag_228:\n        /* \"WandInstruments.sol\":4638:4650  uint decProd */\n      0x00\n        /* \"WandInstruments.sol\":4663:4675  uint prod_xy */\n      dup1\n        /* \"WandInstruments.sol\":4678:4687  mul(x, y) */\n      tag_430\n        /* \"WandInstruments.sol\":4682:4683  x */\n      dup5\n        /* \"WandInstruments.sol\":4685:4686  y */\n      dup5\n        /* \"WandInstruments.sol\":4678:4681  mul */\n      tag_431\n        /* \"WandInstruments.sol\":4678:4687  mul(x, y) */\n      jump\t// in\n    tag_430:\n        /* \"WandInstruments.sol\":4663:4687  uint prod_xy = mul(x, y) */\n      swap1\n      pop\n        /* \"WandInstruments.sol\":362:368  10**18 */\n      0x0de0b6b3a7640000\n        /* \"WandInstruments.sol\":4708:4734  add(prod_xy, DECIMALS / 2) */\n      tag_432\n        /* \"WandInstruments.sol\":4712:4719  prod_xy */\n      dup3\n        /* \"WandInstruments.sol\":4732:4733  2 */\n      0x02\n        /* \"WandInstruments.sol\":362:368  10**18 */\n      0x0de0b6b3a7640000\n        /* \"WandInstruments.sol\":4721:4733  DECIMALS / 2 */\n      tag_433\n      swap2\n      swap1\n      tag_231\n      jump\t// in\n    tag_433:\n        /* \"WandInstruments.sol\":4708:4711  add */\n      tag_434\n        /* \"WandInstruments.sol\":4708:4734  add(prod_xy, DECIMALS / 2) */\n      jump\t// in\n    tag_432:\n        /* \"WandInstruments.sol\":4708:4745  add(prod_xy, DECIMALS / 2) / DECIMALS */\n      tag_435\n      swap2\n      swap1\n      tag_231\n      jump\t// in\n    tag_435:\n        /* \"WandInstruments.sol\":4698:4745  decProd = add(prod_xy, DECIMALS / 2) / DECIMALS */\n      swap2\n      pop\n        /* \"WandInstruments.sol\":4652:4753  {\r... */\n      pop\n        /* \"WandInstruments.sol\":4581:4753  function decMul18(uint x, uint y) internal pure returns (uint decProd) {\r... */\n      swap3\n      swap2\n      pop\n      pop\n      jump\t// out\n        /* \"WandInstruments.sol\":4761:4942  function decDiv18(uint x, uint y) internal pure returns (uint decQuotient) {\r... */\n    tag_249:\n        /* \"WandInstruments.sol\":4818:4834  uint decQuotient */\n      0x00\n        /* \"WandInstruments.sol\":4847:4863  uint prod_xTEN18 */\n      dup1\n        /* \"WandInstruments.sol\":4866:4882  mul(x, DECIMALS) */\n      tag_437\n        /* \"WandInstruments.sol\":4870:4871  x */\n      dup5\n        /* \"WandInstruments.sol\":362:368  10**18 */\n      0x0de0b6b3a7640000\n        /* \"WandInstruments.sol\":4866:4869  mul */\n      tag_431\n        /* \"WandInstruments.sol\":4866:4882  mul(x, DECIMALS) */\n      jump\t// in\n    tag_437:\n        /* \"WandInstruments.sol\":4847:4882  uint prod_xTEN18 = mul(x, DECIMALS) */\n      swap1\n      pop\n        /* \"WandInstruments.sol\":4933:4934  y */\n      dup3\n        /* \"WandInstruments.sol\":4907:4930  add(prod_xTEN18, y / 2) */\n      tag_438\n        /* \"WandInstruments.sol\":4911:4922  prod_xTEN18 */\n      dup3\n        /* \"WandInstruments.sol\":4928:4929  2 */\n      0x02\n        /* \"WandInstruments.sol\":4924:4925  y */\n      dup7\n        /* \"WandInstruments.sol\":4924:4929  y / 2 */\n      tag_439\n      swap2\n      swap1\n      tag_231\n      jump\t// in\n    tag_439:\n        /* \"WandInstruments.sol\":4907:4910  add */\n      tag_434\n        /* \"WandInstruments.sol\":4907:4930  add(prod_xTEN18, y / 2) */\n      jump\t// in\n    tag_438:\n        /* \"WandInstruments.sol\":4907:4934  add(prod_xTEN18, y / 2) / y */\n      tag_440\n      swap2\n      swap1\n      tag_231\n      jump\t// in\n    tag_440:\n        /* \"WandInstruments.sol\":4893:4934  decQuotient = add(prod_xTEN18, y / 2) / y */\n      swap2\n      pop\n        /* \"WandInstruments.sol\":4836:4942  {\r... */\n      pop\n        /* \"WandInstruments.sol\":4761:4942  function decDiv18(uint x, uint y) internal pure returns (uint decQuotient) {\r... */\n      swap3\n      swap2\n      pop\n      pop\n      jump\t// out\n        /* \"WandInstruments.sol\":15290:15552  function _safeTransferFrom(\r... */\n    tag_277:\n        /* \"WandInstruments.sol\":15438:15447  bool sent */\n      0x00\n        /* \"WandInstruments.sol\":15450:15455  token */\n      dup5\n        /* \"WandInstruments.sol\":15450:15468  token.transferFrom */\n      0xffffffffffffffffffffffffffffffffffffffff\n      and\n      0x23b872dd\n        /* \"WandInstruments.sol\":15469:15475  sender */\n      dup6\n        /* \"WandInstruments.sol\":15477:15486  recipient */\n      dup6\n        /* \"WandInstruments.sol\":15488:15494  amount */\n      dup6\n        /* \"WandInstruments.sol\":15450:15495  token.transferFrom(sender, recipient, amount) */\n      mload(0x40)\n      dup5\n      0xffffffff\n      and\n      0xe0\n      shl\n      dup2\n      mstore\n      0x04\n      add\n      tag_442\n      swap4\n      swap3\n      swap2\n      swap1\n      tag_443\n      jump\t// in\n    tag_442:\n      0x20\n      mload(0x40)\n      dup1\n      dup4\n      sub\n      dup2\n      0x00\n      dup8\n      dup1\n      extcodesize\n      iszero\n      dup1\n      iszero\n      tag_444\n      jumpi\n      0x00\n      dup1\n      revert\n    tag_444:\n      pop\n      gas\n      call\n      iszero\n      dup1\n      iszero\n      tag_446\n      jumpi\n      returndatasize\n      0x00\n      dup1\n      returndatacopy\n      revert(0x00, returndatasize)\n    tag_446:\n      pop\n      pop\n      pop\n      pop\n      mload(0x40)\n      returndatasize\n      not(0x1f)\n      0x1f\n      dup3\n      add\n      and\n      dup3\n      add\n      dup1\n      0x40\n      mstore\n      pop\n      dup2\n      add\n      swap1\n      tag_447\n      swap2\n      swap1\n      tag_405\n      jump\t// in\n    tag_447:\n        /* \"WandInstruments.sol\":15438:15495  bool sent = token.transferFrom(sender, recipient, amount) */\n      swap1\n      pop\n        /* \"WandInstruments.sol\":15514:15518  sent */\n      dup1\n        /* \"WandInstruments.sol\":15506:15544  require(sent, \"Token transfer failed\") */\n      tag_448\n      jumpi\n      mload(0x40)\n      0x08c379a000000000000000000000000000000000000000000000000000000000\n      dup2\n      mstore\n      0x04\n      add\n      tag_449\n      swap1\n      tag_450\n      jump\t// in\n    tag_449:\n      mload(0x40)\n      dup1\n      swap2\n      sub\n      swap1\n      revert\n    tag_448:\n        /* \"WandInstruments.sol\":15427:15552  {\r... */\n      pop\n        /* \"WandInstruments.sol\":15290:15552  function _safeTransferFrom(\r... */\n      pop\n      pop\n      pop\n      pop\n      jump\t// out\n        /* \"WandInstruments.sol\":3766:4008  function mul(uint256 a, uint256 b) internal pure returns (uint256) {\r... */\n    tag_431:\n        /* \"WandInstruments.sol\":3824:3831  uint256 */\n      0x00\n        /* \"WandInstruments.sol\":3853:3854  0 */\n      dup1\n        /* \"WandInstruments.sol\":3848:3849  a */\n      dup4\n        /* \"WandInstruments.sol\":3848:3854  a == 0 */\n      eq\n        /* \"WandInstruments.sol\":3844:3887  if (a == 0) {\r... */\n      iszero\n      tag_452\n      jumpi\n        /* \"WandInstruments.sol\":3874:3875  0 */\n      0x00\n        /* \"WandInstruments.sol\":3867:3875  return 0 */\n      swap1\n      pop\n      jump(tag_451)\n        /* \"WandInstruments.sol\":3844:3887  if (a == 0) {\r... */\n    tag_452:\n        /* \"WandInstruments.sol\":3897:3906  uint256 c */\n      0x00\n        /* \"WandInstruments.sol\":3913:3914  b */\n      dup3\n        /* \"WandInstruments.sol\":3909:3910  a */\n      dup5\n        /* \"WandInstruments.sol\":3909:3914  a * b */\n      tag_453\n      swap2\n      swap1\n      tag_346\n      jump\t// in\n    tag_453:\n        /* \"WandInstruments.sol\":3897:3914  uint256 c = a * b */\n      swap1\n      pop\n        /* \"WandInstruments.sol\":3942:3943  b */\n      dup3\n        /* \"WandInstruments.sol\":3937:3938  a */\n      dup5\n        /* \"WandInstruments.sol\":3933:3934  c */\n      dup3\n        /* \"WandInstruments.sol\":3933:3938  c / a */\n      tag_454\n      swap2\n      swap1\n      tag_231\n      jump\t// in\n    tag_454:\n        /* \"WandInstruments.sol\":3933:3943  c / a == b */\n      eq\n        /* \"WandInstruments.sol\":3925:3981  require(c / a == b, \"uint overflow from multiplication\") */\n      tag_455\n      jumpi\n      mload(0x40)\n      0x08c379a000000000000000000000000000000000000000000000000000000000\n      dup2\n      mstore\n      0x04\n      add\n      tag_456\n      swap1\n      tag_457\n      jump\t// in\n    tag_456:\n      mload(0x40)\n      dup1\n      swap2\n      sub\n      swap1\n      revert\n    tag_455:\n        /* \"WandInstruments.sol\":3999:4000  c */\n      dup1\n        /* \"WandInstruments.sol\":3992:4000  return c */\n      swap2\n      pop\n      pop\n        /* \"WandInstruments.sol\":3766:4008  function mul(uint256 a, uint256 b) internal pure returns (uint256) {\r... */\n    tag_451:\n      swap3\n      swap2\n      pop\n      pop\n      jump\t// out\n        /* \"WandInstruments.sol\":4384:4569  function add(uint256 a, uint256 b) internal pure returns (uint256) {\r... */\n    tag_434:\n        /* \"WandInstruments.sol\":4442:4449  uint256 */\n      0x00\n        /* \"WandInstruments.sol\":4462:4471  uint256 c */\n      dup1\n        /* \"WandInstruments.sol\":4478:4479  b */\n      dup3\n        /* \"WandInstruments.sol\":4474:4475  a */\n      dup5\n        /* \"WandInstruments.sol\":4474:4479  a + b */\n      tag_459\n      swap2\n      swap1\n      tag_227\n      jump\t// in\n    tag_459:\n        /* \"WandInstruments.sol\":4462:4479  uint256 c = a + b */\n      swap1\n      pop\n        /* \"WandInstruments.sol\":4503:4504  a */\n      dup4\n        /* \"WandInstruments.sol\":4498:4499  c */\n      dup2\n        /* \"WandInstruments.sol\":4498:4504  c >= a */\n      lt\n      iszero\n        /* \"WandInstruments.sol\":4490:4542  require(c >= a, \"uint overflow from multiplication\") */\n      tag_460\n      jumpi\n      mload(0x40)\n      0x08c379a000000000000000000000000000000000000000000000000000000000\n      dup2\n      mstore\n      0x04\n      add\n      tag_461\n      swap1\n      tag_457\n      jump\t// in\n    tag_461:\n      mload(0x40)\n      dup1\n      swap2\n      sub\n      swap1\n      revert\n    tag_460:\n        /* \"WandInstruments.sol\":4560:4561  c */\n      dup1\n        /* \"WandInstruments.sol\":4553:4561  return c */\n      swap2\n      pop\n      pop\n        /* \"WandInstruments.sol\":4384:4569  function add(uint256 a, uint256 b) internal pure returns (uint256) {\r... */\n      swap3\n      swap2\n      pop\n      pop\n      jump\t// out\n        /* \"#utility.yul\":7:419   */\n    tag_463:\n        /* \"#utility.yul\":85:90   */\n      0x00\n        /* \"#utility.yul\":110:176   */\n      tag_465\n        /* \"#utility.yul\":126:175   */\n      tag_466\n        /* \"#utility.yul\":168:174   */\n      dup5\n        /* \"#utility.yul\":126:175   */\n      tag_467\n      jump\t// in\n    tag_466:\n        /* \"#utility.yul\":110:176   */\n      tag_468\n      jump\t// in\n    tag_465:\n        /* \"#utility.yul\":101:176   */\n      swap1\n      pop\n        /* \"#utility.yul\":199:205   */\n      dup3\n        /* \"#utility.yul\":192:197   */\n      dup2\n        /* \"#utility.yul\":185:206   */\n      mstore\n        /* \"#utility.yul\":237:241   */\n      0x20\n        /* \"#utility.yul\":230:235   */\n      dup2\n        /* \"#utility.yul\":226:242   */\n      add\n        /* \"#utility.yul\":275:278   */\n      dup5\n        /* \"#utility.yul\":266:272   */\n      dup5\n        /* \"#utility.yul\":261:264   */\n      dup5\n        /* \"#utility.yul\":257:273   */\n      add\n        /* \"#utility.yul\":254:279   */\n      gt\n        /* \"#utility.yul\":251:363   */\n      iszero\n      tag_469\n      jumpi\n        /* \"#utility.yul\":282:361   */\n      tag_470\n      tag_471\n      jump\t// in\n    tag_470:\n        /* \"#utility.yul\":251:363   */\n    tag_469:\n        /* \"#utility.yul\":372:413   */\n      tag_472\n        /* \"#utility.yul\":406:412   */\n      dup5\n        /* \"#utility.yul\":401:404   */\n      dup3\n        /* \"#utility.yul\":396:399   */\n      dup6\n        /* \"#utility.yul\":372:413   */\n      tag_473\n      jump\t// in\n    tag_472:\n        /* \"#utility.yul\":91:419   */\n      pop\n        /* \"#utility.yul\":7:419   */\n      swap4\n      swap3\n      pop\n      pop\n      pop\n      jump\t// out\n        /* \"#utility.yul\":425:564   */\n    tag_474:\n        /* \"#utility.yul\":471:476   */\n      0x00\n        /* \"#utility.yul\":509:515   */\n      dup2\n        /* \"#utility.yul\":496:516   */\n      calldataload\n        /* \"#utility.yul\":487:516   */\n      swap1\n      pop\n        /* \"#utility.yul\":525:558   */\n      tag_476\n        /* \"#utility.yul\":552:557   */\n      dup2\n        /* \"#utility.yul\":525:558   */\n      tag_477\n      jump\t// in\n    tag_476:\n        /* \"#utility.yul\":425:564   */\n      swap3\n      swap2\n      pop\n      pop\n      jump\t// out\n        /* \"#utility.yul\":570:707   */\n    tag_478:\n        /* \"#utility.yul\":624:629   */\n      0x00\n        /* \"#utility.yul\":655:661   */\n      dup2\n        /* \"#utility.yul\":649:662   */\n      mload\n        /* \"#utility.yul\":640:662   */\n      swap1\n      pop\n        /* \"#utility.yul\":671:701   */\n      tag_480\n        /* \"#utility.yul\":695:700   */\n      dup2\n        /* \"#utility.yul\":671:701   */\n      tag_481\n      jump\t// in\n    tag_480:\n        /* \"#utility.yul\":570:707   */\n      swap3\n      swap2\n      pop\n      pop\n      jump\t// out\n        /* \"#utility.yul\":727:1067   */\n    tag_482:\n        /* \"#utility.yul\":783:788   */\n      0x00\n        /* \"#utility.yul\":832:835   */\n      dup3\n        /* \"#utility.yul\":825:829   */\n      0x1f\n        /* \"#utility.yul\":817:823   */\n      dup4\n        /* \"#utility.yul\":813:830   */\n      add\n        /* \"#utility.yul\":809:836   */\n      slt\n        /* \"#utility.yul\":799:921   */\n      tag_484\n      jumpi\n        /* \"#utility.yul\":840:919   */\n      tag_485\n      tag_486\n      jump\t// in\n    tag_485:\n        /* \"#utility.yul\":799:921   */\n    tag_484:\n        /* \"#utility.yul\":957:963   */\n      dup2\n        /* \"#utility.yul\":944:964   */\n      calldataload\n        /* \"#utility.yul\":982:1061   */\n      tag_487\n        /* \"#utility.yul\":1057:1060   */\n      dup5\n        /* \"#utility.yul\":1049:1055   */\n      dup3\n        /* \"#utility.yul\":1042:1046   */\n      0x20\n        /* \"#utility.yul\":1034:1040   */\n      dup7\n        /* \"#utility.yul\":1030:1047   */\n      add\n        /* \"#utility.yul\":982:1061   */\n      tag_463\n      jump\t// in\n    tag_487:\n        /* \"#utility.yul\":973:1061   */\n      swap2\n      pop\n        /* \"#utility.yul\":789:1067   */\n      pop\n        /* \"#utility.yul\":727:1067   */\n      swap3\n      swap2\n      pop\n      pop\n      jump\t// out\n        /* \"#utility.yul\":1073:1212   */\n    tag_488:\n        /* \"#utility.yul\":1119:1124   */\n      0x00\n        /* \"#utility.yul\":1157:1163   */\n      dup2\n        /* \"#utility.yul\":1144:1164   */\n      calldataload\n        /* \"#utility.yul\":1135:1164   */\n      swap1\n      pop\n        /* \"#utility.yul\":1173:1206   */\n      tag_490\n        /* \"#utility.yul\":1200:1205   */\n      dup2\n        /* \"#utility.yul\":1173:1206   */\n      tag_491\n      jump\t// in\n    tag_490:\n        /* \"#utility.yul\":1073:1212   */\n      swap3\n      swap2\n      pop\n      pop\n      jump\t// out\n        /* \"#utility.yul\":1218:1361   */\n    tag_492:\n        /* \"#utility.yul\":1275:1280   */\n      0x00\n        /* \"#utility.yul\":1306:1312   */\n      dup2\n        /* \"#utility.yul\":1300:1313   */\n      mload\n        /* \"#utility.yul\":1291:1313   */\n      swap1\n      pop\n        /* \"#utility.yul\":1322:1355   */\n      tag_494\n        /* \"#utility.yul\":1349:1354   */\n      dup2\n        /* \"#utility.yul\":1322:1355   */\n      tag_491\n      jump\t// in\n    tag_494:\n        /* \"#utility.yul\":1218:1361   */\n      swap3\n      swap2\n      pop\n      pop\n      jump\t// out\n        /* \"#utility.yul\":1367:1696   */\n    tag_68:\n        /* \"#utility.yul\":1426:1432   */\n      0x00\n        /* \"#utility.yul\":1475:1477   */\n      0x20\n        /* \"#utility.yul\":1463:1472   */\n      dup3\n        /* \"#utility.yul\":1454:1461   */\n      dup5\n        /* \"#utility.yul\":1450:1473   */\n      sub\n        /* \"#utility.yul\":1446:1478   */\n      slt\n        /* \"#utility.yul\":1443:1562   */\n      iszero\n      tag_496\n      jumpi\n        /* \"#utility.yul\":1481:1560   */\n      tag_497\n      tag_498\n      jump\t// in\n    tag_497:\n        /* \"#utility.yul\":1443:1562   */\n    tag_496:\n        /* \"#utility.yul\":1601:1602   */\n      0x00\n        /* \"#utility.yul\":1626:1679   */\n      tag_499\n        /* \"#utility.yul\":1671:1678   */\n      dup5\n        /* \"#utility.yul\":1662:1668   */\n      dup3\n        /* \"#utility.yul\":1651:1660   */\n      dup6\n        /* \"#utility.yul\":1647:1669   */\n      add\n        /* \"#utility.yul\":1626:1679   */\n      tag_474\n      jump\t// in\n    tag_499:\n        /* \"#utility.yul\":1616:1679   */\n      swap2\n      pop\n        /* \"#utility.yul\":1572:1689   */\n      pop\n        /* \"#utility.yul\":1367:1696   */\n      swap3\n      swap2\n      pop\n      pop\n      jump\t// out\n        /* \"#utility.yul\":1702:2356   */\n    tag_168:\n        /* \"#utility.yul\":1780:1786   */\n      0x00\n        /* \"#utility.yul\":1788:1794   */\n      dup1\n        /* \"#utility.yul\":1837:1839   */\n      0x40\n        /* \"#utility.yul\":1825:1834   */\n      dup4\n        /* \"#utility.yul\":1816:1823   */\n      dup6\n        /* \"#utility.yul\":1812:1835   */\n      sub\n        /* \"#utility.yul\":1808:1840   */\n      slt\n        /* \"#utility.yul\":1805:1924   */\n      iszero\n      tag_501\n      jumpi\n        /* \"#utility.yul\":1843:1922   */\n      tag_502\n      tag_498\n      jump\t// in\n    tag_502:\n        /* \"#utility.yul\":1805:1924   */\n    tag_501:\n        /* \"#utility.yul\":1963:1964   */\n      0x00\n        /* \"#utility.yul\":1988:2041   */\n      tag_503\n        /* \"#utility.yul\":2033:2040   */\n      dup6\n        /* \"#utility.yul\":2024:2030   */\n      dup3\n        /* \"#utility.yul\":2013:2022   */\n      dup7\n        /* \"#utility.yul\":2009:2031   */\n      add\n        /* \"#utility.yul\":1988:2041   */\n      tag_474\n      jump\t// in\n    tag_503:\n        /* \"#utility.yul\":1978:2041   */\n      swap3\n      pop\n        /* \"#utility.yul\":1934:2051   */\n      pop\n        /* \"#utility.yul\":2118:2120   */\n      0x20\n        /* \"#utility.yul\":2107:2116   */\n      dup4\n        /* \"#utility.yul\":2103:2121   */\n      add\n        /* \"#utility.yul\":2090:2122   */\n      calldataload\n        /* \"#utility.yul\":2149:2167   */\n      0xffffffffffffffff\n        /* \"#utility.yul\":2141:2147   */\n      dup2\n        /* \"#utility.yul\":2138:2168   */\n      gt\n        /* \"#utility.yul\":2135:2252   */\n      iszero\n      tag_504\n      jumpi\n        /* \"#utility.yul\":2171:2250   */\n      tag_505\n      tag_506\n      jump\t// in\n    tag_505:\n        /* \"#utility.yul\":2135:2252   */\n    tag_504:\n        /* \"#utility.yul\":2276:2339   */\n      tag_507\n        /* \"#utility.yul\":2331:2338   */\n      dup6\n        /* \"#utility.yul\":2322:2328   */\n      dup3\n        /* \"#utility.yul\":2311:2320   */\n      dup7\n        /* \"#utility.yul\":2307:2329   */\n      add\n        /* \"#utility.yul\":2276:2339   */\n      tag_482\n      jump\t// in\n    tag_507:\n        /* \"#utility.yul\":2266:2339   */\n      swap2\n      pop\n        /* \"#utility.yul\":2061:2349   */\n      pop\n        /* \"#utility.yul\":1702:2356   */\n      swap3\n      pop\n      swap3\n      swap1\n      pop\n      jump\t// out\n        /* \"#utility.yul\":2362:2707   */\n    tag_405:\n        /* \"#utility.yul\":2429:2435   */\n      0x00\n        /* \"#utility.yul\":2478:2480   */\n      0x20\n        /* \"#utility.yul\":2466:2475   */\n      dup3\n        /* \"#utility.yul\":2457:2464   */\n      dup5\n        /* \"#utility.yul\":2453:2476   */\n      sub\n        /* \"#utility.yul\":2449:2481   */\n      slt\n        /* \"#utility.yul\":2446:2565   */\n      iszero\n      tag_509\n      jumpi\n        /* \"#utility.yul\":2484:2563   */\n      tag_510\n      tag_498\n      jump\t// in\n    tag_510:\n        /* \"#utility.yul\":2446:2565   */\n    tag_509:\n        /* \"#utility.yul\":2604:2605   */\n      0x00\n        /* \"#utility.yul\":2629:2690   */\n      tag_511\n        /* \"#utility.yul\":2682:2689   */\n      dup5\n        /* \"#utility.yul\":2673:2679   */\n      dup3\n        /* \"#utility.yul\":2662:2671   */\n      dup6\n        /* \"#utility.yul\":2658:2680   */\n      add\n        /* \"#utility.yul\":2629:2690   */\n      tag_478\n      jump\t// in\n    tag_511:\n        /* \"#utility.yul\":2619:2690   */\n      swap2\n      pop\n        /* \"#utility.yul\":2575:2700   */\n      pop\n        /* \"#utility.yul\":2362:2707   */\n      swap3\n      swap2\n      pop\n      pop\n      jump\t// out\n        /* \"#utility.yul\":2713:3222   */\n    tag_161:\n        /* \"#utility.yul\":2782:2788   */\n      0x00\n        /* \"#utility.yul\":2831:2833   */\n      0x20\n        /* \"#utility.yul\":2819:2828   */\n      dup3\n        /* \"#utility.yul\":2810:2817   */\n      dup5\n        /* \"#utility.yul\":2806:2829   */\n      sub\n        /* \"#utility.yul\":2802:2834   */\n      slt\n        /* \"#utility.yul\":2799:2918   */\n      iszero\n      tag_513\n      jumpi\n        /* \"#utility.yul\":2837:2916   */\n      tag_514\n      tag_498\n      jump\t// in\n    tag_514:\n        /* \"#utility.yul\":2799:2918   */\n    tag_513:\n        /* \"#utility.yul\":2985:2986   */\n      0x00\n        /* \"#utility.yul\":2974:2983   */\n      dup3\n        /* \"#utility.yul\":2970:2987   */\n      add\n        /* \"#utility.yul\":2957:2988   */\n      calldataload\n        /* \"#utility.yul\":3015:3033   */\n      0xffffffffffffffff\n        /* \"#utility.yul\":3007:3013   */\n      dup2\n        /* \"#utility.yul\":3004:3034   */\n      gt\n        /* \"#utility.yul\":3001:3118   */\n      iszero\n      tag_515\n      jumpi\n        /* \"#utility.yul\":3037:3116   */\n      tag_516\n      tag_506\n      jump\t// in\n    tag_516:\n        /* \"#utility.yul\":3001:3118   */\n    tag_515:\n        /* \"#utility.yul\":3142:3205   */\n      tag_517\n        /* \"#utility.yul\":3197:3204   */\n      dup5\n        /* \"#utility.yul\":3188:3194   */\n      dup3\n        /* \"#utility.yul\":3177:3186   */\n      dup6\n        /* \"#utility.yul\":3173:3195   */\n      add\n        /* \"#utility.yul\":3142:3205   */\n      tag_482\n      jump\t// in\n    tag_517:\n        /* \"#utility.yul\":3132:3205   */\n      swap2\n      pop\n        /* \"#utility.yul\":2928:3215   */\n      pop\n        /* \"#utility.yul\":2713:3222   */\n      swap3\n      swap2\n      pop\n      pop\n      jump\t// out\n        /* \"#utility.yul\":3228:4027   */\n    tag_197:\n        /* \"#utility.yul\":3315:3321   */\n      0x00\n        /* \"#utility.yul\":3323:3329   */\n      dup1\n        /* \"#utility.yul\":3331:3337   */\n      0x00\n        /* \"#utility.yul\":3380:3382   */\n      0x60\n        /* \"#utility.yul\":3368:3377   */\n      dup5\n        /* \"#utility.yul\":3359:3366   */\n      dup7\n        /* \"#utility.yul\":3355:3378   */\n      sub\n        /* \"#utility.yul\":3351:3383   */\n      slt\n        /* \"#utility.yul\":3348:3467   */\n      iszero\n      tag_519\n      jumpi\n        /* \"#utility.yul\":3386:3465   */\n      tag_520\n      tag_498\n      jump\t// in\n    tag_520:\n        /* \"#utility.yul\":3348:3467   */\n    tag_519:\n        /* \"#utility.yul\":3534:3535   */\n      0x00\n        /* \"#utility.yul\":3523:3532   */\n      dup5\n        /* \"#utility.yul\":3519:3536   */\n      add\n        /* \"#utility.yul\":3506:3537   */\n      calldataload\n        /* \"#utility.yul\":3564:3582   */\n      0xffffffffffffffff\n        /* \"#utility.yul\":3556:3562   */\n      dup2\n        /* \"#utility.yul\":3553:3583   */\n      gt\n        /* \"#utility.yul\":3550:3667   */\n      iszero\n      tag_521\n      jumpi\n        /* \"#utility.yul\":3586:3665   */\n      tag_522\n      tag_506\n      jump\t// in\n    tag_522:\n        /* \"#utility.yul\":3550:3667   */\n    tag_521:\n        /* \"#utility.yul\":3691:3754   */\n      tag_523\n        /* \"#utility.yul\":3746:3753   */\n      dup7\n        /* \"#utility.yul\":3737:3743   */\n      dup3\n        /* \"#utility.yul\":3726:3735   */\n      dup8\n        /* \"#utility.yul\":3722:3744   */\n      add\n        /* \"#utility.yul\":3691:3754   */\n      tag_482\n      jump\t// in\n    tag_523:\n        /* \"#utility.yul\":3681:3754   */\n      swap4\n      pop\n        /* \"#utility.yul\":3477:3764   */\n      pop\n        /* \"#utility.yul\":3803:3805   */\n      0x20\n        /* \"#utility.yul\":3829:3882   */\n      tag_524\n        /* \"#utility.yul\":3874:3881   */\n      dup7\n        /* \"#utility.yul\":3865:3871   */\n      dup3\n        /* \"#utility.yul\":3854:3863   */\n      dup8\n        /* \"#utility.yul\":3850:3872   */\n      add\n        /* \"#utility.yul\":3829:3882   */\n      tag_474\n      jump\t// in\n    tag_524:\n        /* \"#utility.yul\":3819:3882   */\n      swap3\n      pop\n        /* \"#utility.yul\":3774:3892   */\n      pop\n        /* \"#utility.yul\":3931:3933   */\n      0x40\n        /* \"#utility.yul\":3957:4010   */\n      tag_525\n        /* \"#utility.yul\":4002:4009   */\n      dup7\n        /* \"#utility.yul\":3993:3999   */\n      dup3\n        /* \"#utility.yul\":3982:3991   */\n      dup8\n        /* \"#utility.yul\":3978:4000   */\n      add\n        /* \"#utility.yul\":3957:4010   */\n      tag_488\n      jump\t// in\n    tag_525:\n        /* \"#utility.yul\":3947:4010   */\n      swap2\n      pop\n        /* \"#utility.yul\":3902:4020   */\n      pop\n        /* \"#utility.yul\":3228:4027   */\n      swap3\n      pop\n      swap3\n      pop\n      swap3\n      jump\t// out\n        /* \"#utility.yul\":4033:4362   */\n    tag_75:\n        /* \"#utility.yul\":4092:4098   */\n      0x00\n        /* \"#utility.yul\":4141:4143   */\n      0x20\n        /* \"#utility.yul\":4129:4138   */\n      dup3\n        /* \"#utility.yul\":4120:4127   */\n      dup5\n        /* \"#utility.yul\":4116:4139   */\n      sub\n        /* \"#utility.yul\":4112:4144   */\n      slt\n        /* \"#utility.yul\":4109:4228   */\n      iszero\n      tag_527\n      jumpi\n        /* \"#utility.yul\":4147:4226   */\n      tag_528\n      tag_498\n      jump\t// in\n    tag_528:\n        /* \"#utility.yul\":4109:4228   */\n    tag_527:\n        /* \"#utility.yul\":4267:4268   */\n      0x00\n        /* \"#utility.yul\":4292:4345   */\n      tag_529\n        /* \"#utility.yul\":4337:4344   */\n      dup5\n        /* \"#utility.yul\":4328:4334   */\n      dup3\n        /* \"#utility.yul\":4317:4326   */\n      dup6\n        /* \"#utility.yul\":4313:4335   */\n      add\n        /* \"#utility.yul\":4292:4345   */\n      tag_488\n      jump\t// in\n    tag_529:\n        /* \"#utility.yul\":4282:4345   */\n      swap2\n      pop\n        /* \"#utility.yul\":4238:4355   */\n      pop\n        /* \"#utility.yul\":4033:4362   */\n      swap3\n      swap2\n      pop\n      pop\n      jump\t// out\n        /* \"#utility.yul\":4368:4719   */\n    tag_221:\n        /* \"#utility.yul\":4438:4444   */\n      0x00\n        /* \"#utility.yul\":4487:4489   */\n      0x20\n        /* \"#utility.yul\":4475:4484   */\n      dup3\n        /* \"#utility.yul\":4466:4473   */\n      dup5\n        /* \"#utility.yul\":4462:4485   */\n      sub\n        /* \"#utility.yul\":4458:4490   */\n      slt\n        /* \"#utility.yul\":4455:4574   */\n      iszero\n      tag_531\n      jumpi\n        /* \"#utility.yul\":4493:4572   */\n      tag_532\n      tag_498\n      jump\t// in\n    tag_532:\n        /* \"#utility.yul\":4455:4574   */\n    tag_531:\n        /* \"#utility.yul\":4613:4614   */\n      0x00\n        /* \"#utility.yul\":4638:4702   */\n      tag_533\n        /* \"#utility.yul\":4694:4701   */\n      dup5\n        /* \"#utility.yul\":4685:4691   */\n      dup3\n        /* \"#utility.yul\":4674:4683   */\n      dup6\n        /* \"#utility.yul\":4670:4692   */\n      add\n        /* \"#utility.yul\":4638:4702   */\n      tag_492\n      jump\t// in\n    tag_533:\n        /* \"#utility.yul\":4628:4702   */\n      swap2\n      pop\n        /* \"#utility.yul\":4584:4712   */\n      pop\n        /* \"#utility.yul\":4368:4719   */\n      swap3\n      swap2\n      pop\n      pop\n      jump\t// out\n        /* \"#utility.yul\":4725:5379   */\n    tag_148:\n        /* \"#utility.yul\":4803:4809   */\n      0x00\n        /* \"#utility.yul\":4811:4817   */\n      dup1\n        /* \"#utility.yul\":4860:4862   */\n      0x40\n        /* \"#utility.yul\":4848:4857   */\n      dup4\n        /* \"#utility.yul\":4839:4846   */\n      dup6\n        /* \"#utility.yul\":4835:4858   */\n      sub\n        /* \"#utility.yul\":4831:4863   */\n      slt\n        /* \"#utility.yul\":4828:4947   */\n      iszero\n      tag_535\n      jumpi\n        /* \"#utility.yul\":4866:4945   */\n      tag_536\n      tag_498\n      jump\t// in\n    tag_536:\n        /* \"#utility.yul\":4828:4947   */\n    tag_535:\n        /* \"#utility.yul\":4986:4987   */\n      0x00\n        /* \"#utility.yul\":5011:5064   */\n      tag_537\n        /* \"#utility.yul\":5056:5063   */\n      dup6\n        /* \"#utility.yul\":5047:5053   */\n      dup3\n        /* \"#utility.yul\":5036:5045   */\n      dup7\n        /* \"#utility.yul\":5032:5054   */\n      add\n        /* \"#utility.yul\":5011:5064   */\n      tag_488\n      jump\t// in\n    tag_537:\n        /* \"#utility.yul\":5001:5064   */\n      swap3\n      pop\n        /* \"#utility.yul\":4957:5074   */\n      pop\n        /* \"#utility.yul\":5141:5143   */\n      0x20\n        /* \"#utility.yul\":5130:5139   */\n      dup4\n        /* \"#utility.yul\":5126:5144   */\n      add\n        /* \"#utility.yul\":5113:5145   */\n      calldataload\n        /* \"#utility.yul\":5172:5190   */\n      0xffffffffffffffff\n        /* \"#utility.yul\":5164:5170   */\n      dup2\n        /* \"#utility.yul\":5161:5191   */\n      gt\n        /* \"#utility.yul\":5158:5275   */\n      iszero\n      tag_538\n      jumpi\n        /* \"#utility.yul\":5194:5273   */\n      tag_539\n      tag_506\n      jump\t// in\n    tag_539:\n        /* \"#utility.yul\":5158:5275   */\n    tag_538:\n        /* \"#utility.yul\":5299:5362   */\n      tag_540\n        /* \"#utility.yul\":5354:5361   */\n      dup6\n        /* \"#utility.yul\":5345:5351   */\n      dup3\n        /* \"#utility.yul\":5334:5343   */\n      dup7\n        /* \"#utility.yul\":5330:5352   */\n      add\n        /* \"#utility.yul\":5299:5362   */\n      tag_482\n      jump\t// in\n    tag_540:\n        /* \"#utility.yul\":5289:5362   */\n      swap2\n      pop\n        /* \"#utility.yul\":5084:5372   */\n      pop\n        /* \"#utility.yul\":4725:5379   */\n      swap3\n      pop\n      swap3\n      swap1\n      pop\n      jump\t// out\n        /* \"#utility.yul\":5385:6184   */\n    tag_180:\n        /* \"#utility.yul\":5472:5478   */\n      0x00\n        /* \"#utility.yul\":5480:5486   */\n      dup1\n        /* \"#utility.yul\":5488:5494   */\n      0x00\n        /* \"#utility.yul\":5537:5539   */\n      0x60\n        /* \"#utility.yul\":5525:5534   */\n      dup5\n        /* \"#utility.yul\":5516:5523   */\n      dup7\n        /* \"#utility.yul\":5512:5535   */\n      sub\n        /* \"#utility.yul\":5508:5540   */\n      slt\n        /* \"#utility.yul\":5505:5624   */\n      iszero\n      tag_542\n      jumpi\n        /* \"#utility.yul\":5543:5622   */\n      tag_543\n      tag_498\n      jump\t// in\n    tag_543:\n        /* \"#utility.yul\":5505:5624   */\n    tag_542:\n        /* \"#utility.yul\":5663:5664   */\n      0x00\n        /* \"#utility.yul\":5688:5741   */\n      tag_544\n        /* \"#utility.yul\":5733:5740   */\n      dup7\n        /* \"#utility.yul\":5724:5730   */\n      dup3\n        /* \"#utility.yul\":5713:5722   */\n      dup8\n        /* \"#utility.yul\":5709:5731   */\n      add\n        /* \"#utility.yul\":5688:5741   */\n      tag_488\n      jump\t// in\n    tag_544:\n        /* \"#utility.yul\":5678:5741   */\n      swap4\n      pop\n        /* \"#utility.yul\":5634:5751   */\n      pop\n        /* \"#utility.yul\":5790:5792   */\n      0x20\n        /* \"#utility.yul\":5816:5869   */\n      tag_545\n        /* \"#utility.yul\":5861:5868   */\n      dup7\n        /* \"#utility.yul\":5852:5858   */\n      dup3\n        /* \"#utility.yul\":5841:5850   */\n      dup8\n        /* \"#utility.yul\":5837:5859   */\n      add\n        /* \"#utility.yul\":5816:5869   */\n      tag_488\n      jump\t// in\n    tag_545:\n        /* \"#utility.yul\":5806:5869   */\n      swap3\n      pop\n        /* \"#utility.yul\":5761:5879   */\n      pop\n        /* \"#utility.yul\":5946:5948   */\n      0x40\n        /* \"#utility.yul\":5935:5944   */\n      dup5\n        /* \"#utility.yul\":5931:5949   */\n      add\n        /* \"#utility.yul\":5918:5950   */\n      calldataload\n        /* \"#utility.yul\":5977:5995   */\n      0xffffffffffffffff\n        /* \"#utility.yul\":5969:5975   */\n      dup2\n        /* \"#utility.yul\":5966:5996   */\n      gt\n        /* \"#utility.yul\":5963:6080   */\n      iszero\n      tag_546\n      jumpi\n        /* \"#utility.yul\":5999:6078   */\n      tag_547\n      tag_506\n      jump\t// in\n    tag_547:\n        /* \"#utility.yul\":5963:6080   */\n    tag_546:\n        /* \"#utility.yul\":6104:6167   */\n      tag_548\n        /* \"#utility.yul\":6159:6166   */\n      dup7\n        /* \"#utility.yul\":6150:6156   */\n      dup3\n        /* \"#utility.yul\":6139:6148   */\n      dup8\n        /* \"#utility.yul\":6135:6157   */\n      add\n        /* \"#utility.yul\":6104:6167   */\n      tag_482\n      jump\t// in\n    tag_548:\n        /* \"#utility.yul\":6094:6167   */\n      swap2\n      pop\n        /* \"#utility.yul\":5889:6177   */\n      pop\n        /* \"#utility.yul\":5385:6184   */\n      swap3\n      pop\n      swap3\n      pop\n      swap3\n      jump\t// out\n        /* \"#utility.yul\":6190:6308   */\n    tag_549:\n        /* \"#utility.yul\":6277:6301   */\n      tag_551\n        /* \"#utility.yul\":6295:6300   */\n      dup2\n        /* \"#utility.yul\":6277:6301   */\n      tag_552\n      jump\t// in\n    tag_551:\n        /* \"#utility.yul\":6272:6275   */\n      dup3\n        /* \"#utility.yul\":6265:6302   */\n      mstore\n        /* \"#utility.yul\":6190:6308   */\n      pop\n      pop\n      jump\t// out\n        /* \"#utility.yul\":6314:6475   */\n    tag_553:\n        /* \"#utility.yul\":6416:6468   */\n      tag_555\n        /* \"#utility.yul\":6462:6467   */\n      dup2\n        /* \"#utility.yul\":6416:6468   */\n      tag_556\n      jump\t// in\n    tag_555:\n        /* \"#utility.yul\":6411:6414   */\n      dup3\n        /* \"#utility.yul\":6404:6469   */\n      mstore\n        /* \"#utility.yul\":6314:6475   */\n      pop\n      pop\n      jump\t// out\n        /* \"#utility.yul\":6481:6596   */\n    tag_557:\n        /* \"#utility.yul\":6566:6589   */\n      tag_559\n        /* \"#utility.yul\":6583:6588   */\n      dup2\n        /* \"#utility.yul\":6566:6589   */\n      tag_560\n      jump\t// in\n    tag_559:\n        /* \"#utility.yul\":6561:6564   */\n      dup3\n        /* \"#utility.yul\":6554:6590   */\n      mstore\n        /* \"#utility.yul\":6481:6596   */\n      pop\n      pop\n      jump\t// out\n        /* \"#utility.yul\":6602:6979   */\n    tag_561:\n        /* \"#utility.yul\":6708:6711   */\n      0x00\n        /* \"#utility.yul\":6736:6775   */\n      tag_563\n        /* \"#utility.yul\":6769:6774   */\n      dup3\n        /* \"#utility.yul\":6736:6775   */\n      tag_564\n      jump\t// in\n    tag_563:\n        /* \"#utility.yul\":6791:6880   */\n      tag_565\n        /* \"#utility.yul\":6873:6879   */\n      dup2\n        /* \"#utility.yul\":6868:6871   */\n      dup6\n        /* \"#utility.yul\":6791:6880   */\n      tag_566\n      jump\t// in\n    tag_565:\n        /* \"#utility.yul\":6784:6880   */\n      swap4\n      pop\n        /* \"#utility.yul\":6889:6941   */\n      tag_567\n        /* \"#utility.yul\":6934:6940   */\n      dup2\n        /* \"#utility.yul\":6929:6932   */\n      dup6\n        /* \"#utility.yul\":6922:6926   */\n      0x20\n        /* \"#utility.yul\":6915:6920   */\n      dup7\n        /* \"#utility.yul\":6911:6927   */\n      add\n        /* \"#utility.yul\":6889:6941   */\n      tag_568\n      jump\t// in\n    tag_567:\n        /* \"#utility.yul\":6966:6972   */\n      dup1\n        /* \"#utility.yul\":6961:6964   */\n      dup5\n        /* \"#utility.yul\":6957:6973   */\n      add\n        /* \"#utility.yul\":6950:6973   */\n      swap2\n      pop\n        /* \"#utility.yul\":6712:6979   */\n      pop\n        /* \"#utility.yul\":6602:6979   */\n      swap3\n      swap2\n      pop\n      pop\n      jump\t// out\n        /* \"#utility.yul\":6985:7351   */\n    tag_569:\n        /* \"#utility.yul\":7127:7130   */\n      0x00\n        /* \"#utility.yul\":7148:7215   */\n      tag_571\n        /* \"#utility.yul\":7212:7214   */\n      0x24\n        /* \"#utility.yul\":7207:7210   */\n      dup4\n        /* \"#utility.yul\":7148:7215   */\n      tag_572\n      jump\t// in\n    tag_571:\n        /* \"#utility.yul\":7141:7215   */\n      swap2\n      pop\n        /* \"#utility.yul\":7224:7317   */\n      tag_573\n        /* \"#utility.yul\":7313:7316   */\n      dup3\n        /* \"#utility.yul\":7224:7317   */\n      tag_574\n      jump\t// in\n    tag_573:\n        /* \"#utility.yul\":7342:7344   */\n      0x40\n        /* \"#utility.yul\":7337:7340   */\n      dup3\n        /* \"#utility.yul\":7333:7345   */\n      add\n        /* \"#utility.yul\":7326:7345   */\n      swap1\n      pop\n        /* \"#utility.yul\":6985:7351   */\n      swap2\n      swap1\n      pop\n      jump\t// out\n        /* \"#utility.yul\":7357:7723   */\n    tag_575:\n        /* \"#utility.yul\":7499:7502   */\n      0x00\n        /* \"#utility.yul\":7520:7587   */\n      tag_577\n        /* \"#utility.yul\":7584:7586   */\n      0x15\n        /* \"#utility.yul\":7579:7582   */\n      dup4\n        /* \"#utility.yul\":7520:7587   */\n      tag_572\n      jump\t// in\n    tag_577:\n        /* \"#utility.yul\":7513:7587   */\n      swap2\n      pop\n        /* \"#utility.yul\":7596:7689   */\n      tag_578\n        /* \"#utility.yul\":7685:7688   */\n      dup3\n        /* \"#utility.yul\":7596:7689   */\n      tag_579\n      jump\t// in\n    tag_578:\n        /* \"#utility.yul\":7714:7716   */\n      0x20\n        /* \"#utility.yul\":7709:7712   */\n      dup3\n        /* \"#utility.yul\":7705:7717   */\n      add\n        /* \"#utility.yul\":7698:7717   */\n      swap1\n      pop\n        /* \"#utility.yul\":7357:7723   */\n      swap2\n      swap1\n      pop\n      jump\t// out\n        /* \"#utility.yul\":7729:8095   */\n    tag_580:\n        /* \"#utility.yul\":7871:7874   */\n      0x00\n        /* \"#utility.yul\":7892:7959   */\n      tag_582\n        /* \"#utility.yul\":7956:7958   */\n      0x1a\n        /* \"#utility.yul\":7951:7954   */\n      dup4\n        /* \"#utility.yul\":7892:7959   */\n      tag_572\n      jump\t// in\n    tag_582:\n        /* \"#utility.yul\":7885:7959   */\n      swap2\n      pop\n        /* \"#utility.yul\":7968:8061   */\n      tag_583\n        /* \"#utility.yul\":8057:8060   */\n      dup3\n        /* \"#utility.yul\":7968:8061   */\n      tag_584\n      jump\t// in\n    tag_583:\n        /* \"#utility.yul\":8086:8088   */\n      0x20\n        /* \"#utility.yul\":8081:8084   */\n      dup3\n        /* \"#utility.yul\":8077:8089   */\n      add\n        /* \"#utility.yul\":8070:8089   */\n      swap1\n      pop\n        /* \"#utility.yul\":7729:8095   */\n      swap2\n      swap1\n      pop\n      jump\t// out\n        /* \"#utility.yul\":8101:8467   */\n    tag_585:\n        /* \"#utility.yul\":8243:8246   */\n      0x00\n        /* \"#utility.yul\":8264:8331   */\n      tag_587\n        /* \"#utility.yul\":8328:8330   */\n      0x15\n        /* \"#utility.yul\":8323:8326   */\n      dup4\n        /* \"#utility.yul\":8264:8331   */\n      tag_572\n      jump\t// in\n    tag_587:\n        /* \"#utility.yul\":8257:8331   */\n      swap2\n      pop\n        /* \"#utility.yul\":8340:8433   */\n      tag_588\n        /* \"#utility.yul\":8429:8432   */\n      dup3\n        /* \"#utility.yul\":8340:8433   */\n      tag_589\n      jump\t// in\n    tag_588:\n        /* \"#utility.yul\":8458:8460   */\n      0x20\n        /* \"#utility.yul\":8453:8456   */\n      dup3\n        /* \"#utility.yul\":8449:8461   */\n      add\n        /* \"#utility.yul\":8442:8461   */\n      swap1\n      pop\n        /* \"#utility.yul\":8101:8467   */\n      swap2\n      swap1\n      pop\n      jump\t// out\n        /* \"#utility.yul\":8473:8873   */\n    tag_590:\n        /* \"#utility.yul\":8633:8636   */\n      0x00\n        /* \"#utility.yul\":8654:8738   */\n      tag_592\n        /* \"#utility.yul\":8736:8737   */\n      0x04\n        /* \"#utility.yul\":8731:8734   */\n      dup4\n        /* \"#utility.yul\":8654:8738   */\n      tag_566\n      jump\t// in\n    tag_592:\n        /* \"#utility.yul\":8647:8738   */\n      swap2\n      pop\n        /* \"#utility.yul\":8747:8840   */\n      tag_593\n        /* \"#utility.yul\":8836:8839   */\n      dup3\n        /* \"#utility.yul\":8747:8840   */\n      tag_594\n      jump\t// in\n    tag_593:\n        /* \"#utility.yul\":8865:8866   */\n      0x04\n        /* \"#utility.yul\":8860:8863   */\n      dup3\n        /* \"#utility.yul\":8856:8867   */\n      add\n        /* \"#utility.yul\":8849:8867   */\n      swap1\n      pop\n        /* \"#utility.yul\":8473:8873   */\n      swap2\n      swap1\n      pop\n      jump\t// out\n        /* \"#utility.yul\":8879:9245   */\n    tag_595:\n        /* \"#utility.yul\":9021:9024   */\n      0x00\n        /* \"#utility.yul\":9042:9109   */\n      tag_597\n        /* \"#utility.yul\":9106:9108   */\n      0x0c\n        /* \"#utility.yul\":9101:9104   */\n      dup4\n        /* \"#utility.yul\":9042:9109   */\n      tag_572\n      jump\t// in\n    tag_597:\n        /* \"#utility.yul\":9035:9109   */\n      swap2\n      pop\n        /* \"#utility.yul\":9118:9211   */\n      tag_598\n        /* \"#utility.yul\":9207:9210   */\n      dup3\n        /* \"#utility.yul\":9118:9211   */\n      tag_599\n      jump\t// in\n    tag_598:\n        /* \"#utility.yul\":9236:9238   */\n      0x20\n        /* \"#utility.yul\":9231:9234   */\n      dup3\n        /* \"#utility.yul\":9227:9239   */\n      add\n        /* \"#utility.yul\":9220:9239   */\n      swap1\n      pop\n        /* \"#utility.yul\":8879:9245   */\n      swap2\n      swap1\n      pop\n      jump\t// out\n        /* \"#utility.yul\":9251:9617   */\n    tag_600:\n        /* \"#utility.yul\":9393:9396   */\n      0x00\n        /* \"#utility.yul\":9414:9481   */\n      tag_602\n        /* \"#utility.yul\":9478:9480   */\n      0x1f\n        /* \"#utility.yul\":9473:9476   */\n      dup4\n        /* \"#utility.yul\":9414:9481   */\n      tag_572\n      jump\t// in\n    tag_602:\n        /* \"#utility.yul\":9407:9481   */\n      swap2\n      pop\n        /* \"#utility.yul\":9490:9583   */\n      tag_603\n        /* \"#utility.yul\":9579:9582   */\n      dup3\n        /* \"#utility.yul\":9490:9583   */\n      tag_604\n      jump\t// in\n    tag_603:\n        /* \"#utility.yul\":9608:9610   */\n      0x20\n        /* \"#utility.yul\":9603:9606   */\n      dup3\n        /* \"#utility.yul\":9599:9611   */\n      add\n        /* \"#utility.yul\":9592:9611   */\n      swap1\n      pop\n        /* \"#utility.yul\":9251:9617   */\n      swap2\n      swap1\n      pop\n      jump\t// out\n        /* \"#utility.yul\":9623:9989   */\n    tag_605:\n        /* \"#utility.yul\":9765:9768   */\n      0x00\n        /* \"#utility.yul\":9786:9853   */\n      tag_607\n        /* \"#utility.yul\":9850:9852   */\n      0x21\n        /* \"#utility.yul\":9845:9848   */\n      dup4\n        /* \"#utility.yul\":9786:9853   */\n      tag_572\n      jump\t// in\n    tag_607:\n        /* \"#utility.yul\":9779:9853   */\n      swap2\n      pop\n        /* \"#utility.yul\":9862:9955   */\n      tag_608\n        /* \"#utility.yul\":9951:9954   */\n      dup3\n        /* \"#utility.yul\":9862:9955   */\n      tag_609\n      jump\t// in\n    tag_608:\n        /* \"#utility.yul\":9980:9982   */\n      0x40\n        /* \"#utility.yul\":9975:9978   */\n      dup3\n        /* \"#utility.yul\":9971:9983   */\n      add\n        /* \"#utility.yul\":9964:9983   */\n      swap1\n      pop\n        /* \"#utility.yul\":9623:9989   */\n      swap2\n      swap1\n      pop\n      jump\t// out\n        /* \"#utility.yul\":9995:10113   */\n    tag_610:\n        /* \"#utility.yul\":10082:10106   */\n      tag_612\n        /* \"#utility.yul\":10100:10105   */\n      dup2\n        /* \"#utility.yul\":10082:10106   */\n      tag_613\n      jump\t// in\n    tag_612:\n        /* \"#utility.yul\":10077:10080   */\n      dup3\n        /* \"#utility.yul\":10070:10107   */\n      mstore\n        /* \"#utility.yul\":9995:10113   */\n      pop\n      pop\n      jump\t// out\n        /* \"#utility.yul\":10119:10394   */\n    tag_328:\n        /* \"#utility.yul\":10251:10254   */\n      0x00\n        /* \"#utility.yul\":10273:10368   */\n      tag_615\n        /* \"#utility.yul\":10364:10367   */\n      dup3\n        /* \"#utility.yul\":10355:10361   */\n      dup5\n        /* \"#utility.yul\":10273:10368   */\n      tag_561\n      jump\t// in\n    tag_615:\n        /* \"#utility.yul\":10266:10368   */\n      swap2\n      pop\n        /* \"#utility.yul\":10385:10388   */\n      dup2\n        /* \"#utility.yul\":10378:10388   */\n      swap1\n      pop\n        /* \"#utility.yul\":10119:10394   */\n      swap3\n      swap2\n      pop\n      pop\n      jump\t// out\n        /* \"#utility.yul\":10400:10781   */\n    tag_284:\n        /* \"#utility.yul\":10585:10588   */\n      0x00\n        /* \"#utility.yul\":10607:10755   */\n      tag_617\n        /* \"#utility.yul\":10751:10754   */\n      dup3\n        /* \"#utility.yul\":10607:10755   */\n      tag_590\n      jump\t// in\n    tag_617:\n        /* \"#utility.yul\":10600:10755   */\n      swap2\n      pop\n        /* \"#utility.yul\":10772:10775   */\n      dup2\n        /* \"#utility.yul\":10765:10775   */\n      swap1\n      pop\n        /* \"#utility.yul\":10400:10781   */\n      swap2\n      swap1\n      pop\n      jump\t// out\n        /* \"#utility.yul\":10787:11009   */\n    tag_56:\n        /* \"#utility.yul\":10880:10884   */\n      0x00\n        /* \"#utility.yul\":10918:10920   */\n      0x20\n        /* \"#utility.yul\":10907:10916   */\n      dup3\n        /* \"#utility.yul\":10903:10921   */\n      add\n        /* \"#utility.yul\":10895:10921   */\n      swap1\n      pop\n        /* \"#utility.yul\":10931:11002   */\n      tag_619\n        /* \"#utility.yul\":10999:11000   */\n      0x00\n        /* \"#utility.yul\":10988:10997   */\n      dup4\n        /* \"#utility.yul\":10984:11001   */\n      add\n        /* \"#utility.yul\":10975:10981   */\n      dup5\n        /* \"#utility.yul\":10931:11002   */\n      tag_549\n      jump\t// in\n    tag_619:\n        /* \"#utility.yul\":10787:11009   */\n      swap3\n      swap2\n      pop\n      pop\n      jump\t// out\n        /* \"#utility.yul\":11015:11457   */\n    tag_443:\n        /* \"#utility.yul\":11164:11168   */\n      0x00\n        /* \"#utility.yul\":11202:11204   */\n      0x60\n        /* \"#utility.yul\":11191:11200   */\n      dup3\n        /* \"#utility.yul\":11187:11205   */\n      add\n        /* \"#utility.yul\":11179:11205   */\n      swap1\n      pop\n        /* \"#utility.yul\":11215:11286   */\n      tag_621\n        /* \"#utility.yul\":11283:11284   */\n      0x00\n        /* \"#utility.yul\":11272:11281   */\n      dup4\n        /* \"#utility.yul\":11268:11285   */\n      add\n        /* \"#utility.yul\":11259:11265   */\n      dup7\n        /* \"#utility.yul\":11215:11286   */\n      tag_549\n      jump\t// in\n    tag_621:\n        /* \"#utility.yul\":11296:11368   */\n      tag_622\n        /* \"#utility.yul\":11364:11366   */\n      0x20\n        /* \"#utility.yul\":11353:11362   */\n      dup4\n        /* \"#utility.yul\":11349:11367   */\n      add\n        /* \"#utility.yul\":11340:11346   */\n      dup6\n        /* \"#utility.yul\":11296:11368   */\n      tag_549\n      jump\t// in\n    tag_622:\n        /* \"#utility.yul\":11378:11450   */\n      tag_623\n        /* \"#utility.yul\":11446:11448   */\n      0x40\n        /* \"#utility.yul\":11435:11444   */\n      dup4\n        /* \"#utility.yul\":11431:11449   */\n      add\n        /* \"#utility.yul\":11422:11428   */\n      dup5\n        /* \"#utility.yul\":11378:11450   */\n      tag_610\n      jump\t// in\n    tag_623:\n        /* \"#utility.yul\":11015:11457   */\n      swap5\n      swap4\n      pop\n      pop\n      pop\n      pop\n      jump\t// out\n        /* \"#utility.yul\":11463:11795   */\n    tag_164:\n        /* \"#utility.yul\":11584:11588   */\n      0x00\n        /* \"#utility.yul\":11622:11624   */\n      0x40\n        /* \"#utility.yul\":11611:11620   */\n      dup3\n        /* \"#utility.yul\":11607:11625   */\n      add\n        /* \"#utility.yul\":11599:11625   */\n      swap1\n      pop\n        /* \"#utility.yul\":11635:11706   */\n      tag_625\n        /* \"#utility.yul\":11703:11704   */\n      0x00\n        /* \"#utility.yul\":11692:11701   */\n      dup4\n        /* \"#utility.yul\":11688:11705   */\n      add\n        /* \"#utility.yul\":11679:11685   */\n      dup6\n        /* \"#utility.yul\":11635:11706   */\n      tag_549\n      jump\t// in\n    tag_625:\n        /* \"#utility.yul\":11716:11788   */\n      tag_626\n        /* \"#utility.yul\":11784:11786   */\n      0x20\n        /* \"#utility.yul\":11773:11782   */\n      dup4\n        /* \"#utility.yul\":11769:11787   */\n      add\n        /* \"#utility.yul\":11760:11766   */\n      dup5\n        /* \"#utility.yul\":11716:11788   */\n      tag_610\n      jump\t// in\n    tag_626:\n        /* \"#utility.yul\":11463:11795   */\n      swap4\n      swap3\n      pop\n      pop\n      pop\n      jump\t// out\n        /* \"#utility.yul\":11801:12053   */\n    tag_98:\n        /* \"#utility.yul\":11909:11913   */\n      0x00\n        /* \"#utility.yul\":11947:11949   */\n      0x20\n        /* \"#utility.yul\":11936:11945   */\n      dup3\n        /* \"#utility.yul\":11932:11950   */\n      add\n        /* \"#utility.yul\":11924:11950   */\n      swap1\n      pop\n        /* \"#utility.yul\":11960:12046   */\n      tag_628\n        /* \"#utility.yul\":12043:12044   */\n      0x00\n        /* \"#utility.yul\":12032:12041   */\n      dup4\n        /* \"#utility.yul\":12028:12045   */\n      add\n        /* \"#utility.yul\":12019:12025   */\n      dup5\n        /* \"#utility.yul\":11960:12046   */\n      tag_553\n      jump\t// in\n    tag_628:\n        /* \"#utility.yul\":11801:12053   */\n      swap3\n      swap2\n      pop\n      pop\n      jump\t// out\n        /* \"#utility.yul\":12059:12277   */\n    tag_136:\n        /* \"#utility.yul\":12150:12154   */\n      0x00\n        /* \"#utility.yul\":12188:12190   */\n      0x20\n        /* \"#utility.yul\":12177:12186   */\n      dup3\n        /* \"#utility.yul\":12173:12191   */\n      add\n        /* \"#utility.yul\":12165:12191   */\n      swap1\n      pop\n        /* \"#utility.yul\":12201:12270   */\n      tag_630\n        /* \"#utility.yul\":12267:12268   */\n      0x00\n        /* \"#utility.yul\":12256:12265   */\n      dup4\n        /* \"#utility.yul\":12252:12269   */\n      add\n        /* \"#utility.yul\":12243:12249   */\n      dup5\n        /* \"#utility.yul\":12201:12270   */\n      tag_557\n      jump\t// in\n    tag_630:\n        /* \"#utility.yul\":12059:12277   */\n      swap3\n      swap2\n      pop\n      pop\n      jump\t// out\n        /* \"#utility.yul\":12283:12702   */\n    tag_264:\n        /* \"#utility.yul\":12449:12453   */\n      0x00\n        /* \"#utility.yul\":12487:12489   */\n      0x20\n        /* \"#utility.yul\":12476:12485   */\n      dup3\n        /* \"#utility.yul\":12472:12490   */\n      add\n        /* \"#utility.yul\":12464:12490   */\n      swap1\n      pop\n        /* \"#utility.yul\":12536:12545   */\n      dup2\n        /* \"#utility.yul\":12530:12534   */\n      dup2\n        /* \"#utility.yul\":12526:12546   */\n      sub\n        /* \"#utility.yul\":12522:12523   */\n      0x00\n        /* \"#utility.yul\":12511:12520   */\n      dup4\n        /* \"#utility.yul\":12507:12524   */\n      add\n        /* \"#utility.yul\":12500:12547   */\n      mstore\n        /* \"#utility.yul\":12564:12695   */\n      tag_632\n        /* \"#utility.yul\":12690:12694   */\n      dup2\n        /* \"#utility.yul\":12564:12695   */\n      tag_569\n      jump\t// in\n    tag_632:\n        /* \"#utility.yul\":12556:12695   */\n      swap1\n      pop\n        /* \"#utility.yul\":12283:12702   */\n      swap2\n      swap1\n      pop\n      jump\t// out\n        /* \"#utility.yul\":12708:13127   */\n    tag_450:\n        /* \"#utility.yul\":12874:12878   */\n      0x00\n        /* \"#utility.yul\":12912:12914   */\n      0x20\n        /* \"#utility.yul\":12901:12910   */\n      dup3\n        /* \"#utility.yul\":12897:12915   */\n      add\n        /* \"#utility.yul\":12889:12915   */\n      swap1\n      pop\n        /* \"#utility.yul\":12961:12970   */\n      dup2\n        /* \"#utility.yul\":12955:12959   */\n      dup2\n        /* \"#utility.yul\":12951:12971   */\n      sub\n        /* \"#utility.yul\":12947:12948   */\n      0x00\n        /* \"#utility.yul\":12936:12945   */\n      dup4\n        /* \"#utility.yul\":12932:12949   */\n      add\n        /* \"#utility.yul\":12925:12972   */\n      mstore\n        /* \"#utility.yul\":12989:13120   */\n      tag_634\n        /* \"#utility.yul\":13115:13119   */\n      dup2\n        /* \"#utility.yul\":12989:13120   */\n      tag_575\n      jump\t// in\n    tag_634:\n        /* \"#utility.yul\":12981:13120   */\n      swap1\n      pop\n        /* \"#utility.yul\":12708:13127   */\n      swap2\n      swap1\n      pop\n      jump\t// out\n        /* \"#utility.yul\":13133:13552   */\n    tag_275:\n        /* \"#utility.yul\":13299:13303   */\n      0x00\n        /* \"#utility.yul\":13337:13339   */\n      0x20\n        /* \"#utility.yul\":13326:13335   */\n      dup3\n        /* \"#utility.yul\":13322:13340   */\n      add\n        /* \"#utility.yul\":13314:13340   */\n      swap1\n      pop\n        /* \"#utility.yul\":13386:13395   */\n      dup2\n        /* \"#utility.yul\":13380:13384   */\n      dup2\n        /* \"#utility.yul\":13376:13396   */\n      sub\n        /* \"#utility.yul\":13372:13373   */\n      0x00\n        /* \"#utility.yul\":13361:13370   */\n      dup4\n        /* \"#utility.yul\":13357:13374   */\n      add\n        /* \"#utility.yul\":13350:13397   */\n      mstore\n        /* \"#utility.yul\":13414:13545   */\n      tag_636\n        /* \"#utility.yul\":13540:13544   */\n      dup2\n        /* \"#utility.yul\":13414:13545   */\n      tag_580\n      jump\t// in\n    tag_636:\n        /* \"#utility.yul\":13406:13545   */\n      swap1\n      pop\n        /* \"#utility.yul\":13133:13552   */\n      swap2\n      swap1\n      pop\n      jump\t// out\n        /* \"#utility.yul\":13558:13977   */\n    tag_331:\n        /* \"#utility.yul\":13724:13728   */\n      0x00\n        /* \"#utility.yul\":13762:13764   */\n      0x20\n        /* \"#utility.yul\":13751:13760   */\n      dup3\n        /* \"#utility.yul\":13747:13765   */\n      add\n        /* \"#utility.yul\":13739:13765   */\n      swap1\n      pop\n        /* \"#utility.yul\":13811:13820   */\n      dup2\n        /* \"#utility.yul\":13805:13809   */\n      dup2\n        /* \"#utility.yul\":13801:13821   */\n      sub\n        /* \"#utility.yul\":13797:13798   */\n      0x00\n        /* \"#utility.yul\":13786:13795   */\n      dup4\n        /* \"#utility.yul\":13782:13799   */\n      add\n        /* \"#utility.yul\":13775:13822   */\n      mstore\n        /* \"#utility.yul\":13839:13970   */\n      tag_638\n        /* \"#utility.yul\":13965:13969   */\n      dup2\n        /* \"#utility.yul\":13839:13970   */\n      tag_585\n      jump\t// in\n    tag_638:\n        /* \"#utility.yul\":13831:13970   */\n      swap1\n      pop\n        /* \"#utility.yul\":13558:13977   */\n      swap2\n      swap1\n      pop\n      jump\t// out\n        /* \"#utility.yul\":13983:14402   */\n    tag_386:\n        /* \"#utility.yul\":14149:14153   */\n      0x00\n        /* \"#utility.yul\":14187:14189   */\n      0x20\n        /* \"#utility.yul\":14176:14185   */\n      dup3\n        /* \"#utility.yul\":14172:14190   */\n      add\n        /* \"#utility.yul\":14164:14190   */\n      swap1\n      pop\n        /* \"#utility.yul\":14236:14245   */\n      dup2\n        /* \"#utility.yul\":14230:14234   */\n      dup2\n        /* \"#utility.yul\":14226:14246   */\n      sub\n        /* \"#utility.yul\":14222:14223   */\n      0x00\n        /* \"#utility.yul\":14211:14220   */\n      dup4\n        /* \"#utility.yul\":14207:14224   */\n      add\n        /* \"#utility.yul\":14200:14247   */\n      mstore\n        /* \"#utility.yul\":14264:14395   */\n      tag_640\n        /* \"#utility.yul\":14390:14394   */\n      dup2\n        /* \"#utility.yul\":14264:14395   */\n      tag_595\n      jump\t// in\n    tag_640:\n        /* \"#utility.yul\":14256:14395   */\n      swap1\n      pop\n        /* \"#utility.yul\":13983:14402   */\n      swap2\n      swap1\n      pop\n      jump\t// out\n        /* \"#utility.yul\":14408:14827   */\n    tag_325:\n        /* \"#utility.yul\":14574:14578   */\n      0x00\n        /* \"#utility.yul\":14612:14614   */\n      0x20\n        /* \"#utility.yul\":14601:14610   */\n      dup3\n        /* \"#utility.yul\":14597:14615   */\n      add\n        /* \"#utility.yul\":14589:14615   */\n      swap1\n      pop\n        /* \"#utility.yul\":14661:14670   */\n      dup2\n        /* \"#utility.yul\":14655:14659   */\n      dup2\n        /* \"#utility.yul\":14651:14671   */\n      sub\n        /* \"#utility.yul\":14647:14648   */\n      0x00\n        /* \"#utility.yul\":14636:14645   */\n      dup4\n        /* \"#utility.yul\":14632:14649   */\n      add\n        /* \"#utility.yul\":14625:14672   */\n      mstore\n        /* \"#utility.yul\":14689:14820   */\n      tag_642\n        /* \"#utility.yul\":14815:14819   */\n      dup2\n        /* \"#utility.yul\":14689:14820   */\n      tag_600\n      jump\t// in\n    tag_642:\n        /* \"#utility.yul\":14681:14820   */\n      swap1\n      pop\n        /* \"#utility.yul\":14408:14827   */\n      swap2\n      swap1\n      pop\n      jump\t// out\n        /* \"#utility.yul\":14833:15252   */\n    tag_457:\n        /* \"#utility.yul\":14999:15003   */\n      0x00\n        /* \"#utility.yul\":15037:15039   */\n      0x20\n        /* \"#utility.yul\":15026:15035   */\n      dup3\n        /* \"#utility.yul\":15022:15040   */\n      add\n        /* \"#utility.yul\":15014:15040   */\n      swap1\n      pop\n        /* \"#utility.yul\":15086:15095   */\n      dup2\n        /* \"#utility.yul\":15080:15084   */\n      dup2\n        /* \"#utility.yul\":15076:15096   */\n      sub\n        /* \"#utility.yul\":15072:15073   */\n      0x00\n        /* \"#utility.yul\":15061:15070   */\n      dup4\n        /* \"#utility.yul\":15057:15074   */\n      add\n        /* \"#utility.yul\":15050:15097   */\n      mstore\n        /* \"#utility.yul\":15114:15245   */\n      tag_644\n        /* \"#utility.yul\":15240:15244   */\n      dup2\n        /* \"#utility.yul\":15114:15245   */\n      tag_605\n      jump\t// in\n    tag_644:\n        /* \"#utility.yul\":15106:15245   */\n      swap1\n      pop\n        /* \"#utility.yul\":14833:15252   */\n      swap2\n      swap1\n      pop\n      jump\t// out\n        /* \"#utility.yul\":15258:15480   */\n    tag_51:\n        /* \"#utility.yul\":15351:15355   */\n      0x00\n        /* \"#utility.yul\":15389:15391   */\n      0x20\n        /* \"#utility.yul\":15378:15387   */\n      dup3\n        /* \"#utility.yul\":15374:15392   */\n      add\n        /* \"#utility.yul\":15366:15392   */\n      swap1\n      pop\n        /* \"#utility.yul\":15402:15473   */\n      tag_646\n        /* \"#utility.yul\":15470:15471   */\n      0x00\n        /* \"#utility.yul\":15459:15468   */\n      dup4\n        /* \"#utility.yul\":15455:15472   */\n      add\n        /* \"#utility.yul\":15446:15452   */\n      dup5\n        /* \"#utility.yul\":15402:15473   */\n      tag_610\n      jump\t// in\n    tag_646:\n        /* \"#utility.yul\":15258:15480   */\n      swap3\n      swap2\n      pop\n      pop\n      jump\t// out\n        /* \"#utility.yul\":15486:15818   */\n    tag_71:\n        /* \"#utility.yul\":15607:15611   */\n      0x00\n        /* \"#utility.yul\":15645:15647   */\n      0x40\n        /* \"#utility.yul\":15634:15643   */\n      dup3\n        /* \"#utility.yul\":15630:15648   */\n      add\n        /* \"#utility.yul\":15622:15648   */\n      swap1\n      pop\n        /* \"#utility.yul\":15658:15729   */\n      tag_648\n        /* \"#utility.yul\":15726:15727   */\n      0x00\n        /* \"#utility.yul\":15715:15724   */\n      dup4\n        /* \"#utility.yul\":15711:15728   */\n      add\n        /* \"#utility.yul\":15702:15708   */\n      dup6\n        /* \"#utility.yul\":15658:15729   */\n      tag_610\n      jump\t// in\n    tag_648:\n        /* \"#utility.yul\":15739:15811   */\n      tag_649\n        /* \"#utility.yul\":15807:15809   */\n      0x20\n        /* \"#utility.yul\":15796:15805   */\n      dup4\n        /* \"#utility.yul\":15792:15810   */\n      add\n        /* \"#utility.yul\":15783:15789   */\n      dup5\n        /* \"#utility.yul\":15739:15811   */\n      tag_610\n      jump\t// in\n    tag_649:\n        /* \"#utility.yul\":15486:15818   */\n      swap4\n      swap3\n      pop\n      pop\n      pop\n      jump\t// out\n        /* \"#utility.yul\":15824:15953   */\n    tag_468:\n        /* \"#utility.yul\":15858:15864   */\n      0x00\n        /* \"#utility.yul\":15885:15905   */\n      tag_651\n      tag_652\n      jump\t// in\n    tag_651:\n        /* \"#utility.yul\":15875:15905   */\n      swap1\n      pop\n        /* \"#utility.yul\":15914:15947   */\n      tag_653\n        /* \"#utility.yul\":15942:15946   */\n      dup3\n        /* \"#utility.yul\":15934:15940   */\n      dup3\n        /* \"#utility.yul\":15914:15947   */\n      tag_654\n      jump\t// in\n    tag_653:\n        /* \"#utility.yul\":15824:15953   */\n      swap2\n      swap1\n      pop\n      jump\t// out\n        /* \"#utility.yul\":15959:16034   */\n    tag_652:\n        /* \"#utility.yul\":15992:15998   */\n      0x00\n        /* \"#utility.yul\":16025:16027   */\n      0x40\n        /* \"#utility.yul\":16019:16028   */\n      mload\n        /* \"#utility.yul\":16009:16028   */\n      swap1\n      pop\n        /* \"#utility.yul\":15959:16034   */\n      swap1\n      jump\t// out\n        /* \"#utility.yul\":16040:16348   */\n    tag_467:\n        /* \"#utility.yul\":16102:16106   */\n      0x00\n        /* \"#utility.yul\":16192:16210   */\n      0xffffffffffffffff\n        /* \"#utility.yul\":16184:16190   */\n      dup3\n        /* \"#utility.yul\":16181:16211   */\n      gt\n        /* \"#utility.yul\":16178:16234   */\n      iszero\n      tag_657\n      jumpi\n        /* \"#utility.yul\":16214:16232   */\n      tag_658\n      tag_659\n      jump\t// in\n    tag_658:\n        /* \"#utility.yul\":16178:16234   */\n    tag_657:\n        /* \"#utility.yul\":16252:16281   */\n      tag_660\n        /* \"#utility.yul\":16274:16280   */\n      dup3\n        /* \"#utility.yul\":16252:16281   */\n      tag_661\n      jump\t// in\n    tag_660:\n        /* \"#utility.yul\":16244:16281   */\n      swap1\n      pop\n        /* \"#utility.yul\":16336:16340   */\n      0x20\n        /* \"#utility.yul\":16330:16334   */\n      dup2\n        /* \"#utility.yul\":16326:16341   */\n      add\n        /* \"#utility.yul\":16318:16341   */\n      swap1\n      pop\n        /* \"#utility.yul\":16040:16348   */\n      swap2\n      swap1\n      pop\n      jump\t// out\n        /* \"#utility.yul\":16354:16453   */\n    tag_564:\n        /* \"#utility.yul\":16406:16412   */\n      0x00\n        /* \"#utility.yul\":16440:16445   */\n      dup2\n        /* \"#utility.yul\":16434:16446   */\n      mload\n        /* \"#utility.yul\":16424:16446   */\n      swap1\n      pop\n        /* \"#utility.yul\":16354:16453   */\n      swap2\n      swap1\n      pop\n      jump\t// out\n        /* \"#utility.yul\":16459:16628   */\n    tag_572:\n        /* \"#utility.yul\":16543:16554   */\n      0x00\n        /* \"#utility.yul\":16577:16583   */\n      dup3\n        /* \"#utility.yul\":16572:16575   */\n      dup3\n        /* \"#utility.yul\":16565:16584   */\n      mstore\n        /* \"#utility.yul\":16617:16621   */\n      0x20\n        /* \"#utility.yul\":16612:16615   */\n      dup3\n        /* \"#utility.yul\":16608:16622   */\n      add\n        /* \"#utility.yul\":16593:16622   */\n      swap1\n      pop\n        /* \"#utility.yul\":16459:16628   */\n      swap3\n      swap2\n      pop\n      pop\n      jump\t// out\n        /* \"#utility.yul\":16634:16782   */\n    tag_566:\n        /* \"#utility.yul\":16736:16747   */\n      0x00\n        /* \"#utility.yul\":16773:16776   */\n      dup2\n        /* \"#utility.yul\":16758:16776   */\n      swap1\n      pop\n        /* \"#utility.yul\":16634:16782   */\n      swap3\n      swap2\n      pop\n      pop\n      jump\t// out\n        /* \"#utility.yul\":16788:17093   */\n    tag_227:\n        /* \"#utility.yul\":16828:16831   */\n      0x00\n        /* \"#utility.yul\":16847:16867   */\n      tag_666\n        /* \"#utility.yul\":16865:16866   */\n      dup3\n        /* \"#utility.yul\":16847:16867   */\n      tag_613\n      jump\t// in\n    tag_666:\n        /* \"#utility.yul\":16842:16867   */\n      swap2\n      pop\n        /* \"#utility.yul\":16881:16901   */\n      tag_667\n        /* \"#utility.yul\":16899:16900   */\n      dup4\n        /* \"#utility.yul\":16881:16901   */\n      tag_613\n      jump\t// in\n    tag_667:\n        /* \"#utility.yul\":16876:16901   */\n      swap3\n      pop\n        /* \"#utility.yul\":17035:17036   */\n      dup3\n        /* \"#utility.yul\":16967:17033   */\n      0xffffffffffffffffffffffffffffffffffffffffffffffffffffffffffffffff\n        /* \"#utility.yul\":16963:17037   */\n      sub\n        /* \"#utility.yul\":16960:16961   */\n      dup3\n        /* \"#utility.yul\":16957:17038   */\n      gt\n        /* \"#utility.yul\":16954:17061   */\n      iszero\n      tag_668\n      jumpi\n        /* \"#utility.yul\":17041:17059   */\n      tag_669\n      tag_670\n      jump\t// in\n    tag_669:\n        /* \"#utility.yul\":16954:17061   */\n    tag_668:\n        /* \"#utility.yul\":17085:17086   */\n      dup3\n        /* \"#utility.yul\":17082:17083   */\n      dup3\n        /* \"#utility.yul\":17078:17087   */\n      add\n        /* \"#utility.yul\":17071:17087   */\n      swap1\n      pop\n        /* \"#utility.yul\":16788:17093   */\n      swap3\n      swap2\n      pop\n      pop\n      jump\t// out\n        /* \"#utility.yul\":17099:17284   */\n    tag_231:\n        /* \"#utility.yul\":17139:17140   */\n      0x00\n        /* \"#utility.yul\":17156:17176   */\n      tag_672\n        /* \"#utility.yul\":17174:17175   */\n      dup3\n        /* \"#utility.yul\":17156:17176   */\n      tag_613\n      jump\t// in\n    tag_672:\n        /* \"#utility.yul\":17151:17176   */\n      swap2\n      pop\n        /* \"#utility.yul\":17190:17210   */\n      tag_673\n        /* \"#utility.yul\":17208:17209   */\n      dup4\n        /* \"#utility.yul\":17190:17210   */\n      tag_613\n      jump\t// in\n    tag_673:\n        /* \"#utility.yul\":17185:17210   */\n      swap3\n      pop\n        /* \"#utility.yul\":17229:17230   */\n      dup3\n        /* \"#utility.yul\":17219:17254   */\n      tag_674\n      jumpi\n        /* \"#utility.yul\":17234:17252   */\n      tag_675\n      tag_676\n      jump\t// in\n    tag_675:\n        /* \"#utility.yul\":17219:17254   */\n    tag_674:\n        /* \"#utility.yul\":17276:17277   */\n      dup3\n        /* \"#utility.yul\":17273:17274   */\n      dup3\n        /* \"#utility.yul\":17269:17278   */\n      div\n        /* \"#utility.yul\":17264:17278   */\n      swap1\n      pop\n        /* \"#utility.yul\":17099:17284   */\n      swap3\n      swap2\n      pop\n      pop\n      jump\t// out\n        /* \"#utility.yul\":17290:17638   */\n    tag_346:\n        /* \"#utility.yul\":17330:17337   */\n      0x00\n        /* \"#utility.yul\":17353:17373   */\n      tag_678\n        /* \"#utility.yul\":17371:17372   */\n      dup3\n        /* \"#utility.yul\":17353:17373   */\n      tag_613\n      jump\t// in\n    tag_678:\n        /* \"#utility.yul\":17348:17373   */\n      swap2\n      pop\n        /* \"#utility.yul\":17387:17407   */\n      tag_679\n        /* \"#utility.yul\":17405:17406   */\n      dup4\n        /* \"#utility.yul\":17387:17407   */\n      tag_613\n      jump\t// in\n    tag_679:\n        /* \"#utility.yul\":17382:17407   */\n      swap3\n      pop\n        /* \"#utility.yul\":17575:17576   */\n      dup2\n        /* \"#utility.yul\":17507:17573   */\n      0xffffffffffffffffffffffffffffffffffffffffffffffffffffffffffffffff\n        /* \"#utility.yul\":17503:17577   */\n      div\n        /* \"#utility.yul\":17500:17501   */\n      dup4\n        /* \"#utility.yul\":17497:17578   */\n      gt\n        /* \"#utility.yul\":17492:17493   */\n      dup3\n        /* \"#utility.yul\":17485:17494   */\n      iszero\n        /* \"#utility.yul\":17478:17495   */\n      iszero\n        /* \"#utility.yul\":17474:17579   */\n      and\n        /* \"#utility.yul\":17471:17602   */\n      iszero\n      tag_680\n      jumpi\n        /* \"#utility.yul\":17582:17600   */\n      tag_681\n      tag_670\n      jump\t// in\n    tag_681:\n        /* \"#utility.yul\":17471:17602   */\n    tag_680:\n        /* \"#utility.yul\":17630:17631   */\n      dup3\n        /* \"#utility.yul\":17627:17628   */\n      dup3\n        /* \"#utility.yul\":17623:17632   */\n      mul\n        /* \"#utility.yul\":17612:17632   */\n      swap1\n      pop\n        /* \"#utility.yul\":17290:17638   */\n      swap3\n      swap2\n      pop\n      pop\n      jump\t// out\n        /* \"#utility.yul\":17644:17835   */\n    tag_233:\n        /* \"#utility.yul\":17684:17688   */\n      0x00\n        /* \"#utility.yul\":17704:17724   */\n      tag_683\n        /* \"#utility.yul\":17722:17723   */\n      dup3\n        /* \"#utility.yul\":17704:17724   */\n      tag_613\n      jump\t// in\n    tag_683:\n        /* \"#utility.yul\":17699:17724   */\n      swap2\n      pop\n        /* \"#utility.yul\":17738:17758   */\n      tag_684\n        /* \"#utility.yul\":17756:17757   */\n      dup4\n        /* \"#utility.yul\":17738:17758   */\n      tag_613\n      jump\t// in\n    tag_684:\n        /* \"#utility.yul\":17733:17758   */\n      swap3\n      pop\n        /* \"#utility.yul\":17777:17778   */\n      dup3\n        /* \"#utility.yul\":17774:17775   */\n      dup3\n        /* \"#utility.yul\":17771:17779   */\n      lt\n        /* \"#utility.yul\":17768:17802   */\n      iszero\n      tag_685\n      jumpi\n        /* \"#utility.yul\":17782:17800   */\n      tag_686\n      tag_670\n      jump\t// in\n    tag_686:\n        /* \"#utility.yul\":17768:17802   */\n    tag_685:\n        /* \"#utility.yul\":17827:17828   */\n      dup3\n        /* \"#utility.yul\":17824:17825   */\n      dup3\n        /* \"#utility.yul\":17820:17829   */\n      sub\n        /* \"#utility.yul\":17812:17829   */\n      swap1\n      pop\n        /* \"#utility.yul\":17644:17835   */\n      swap3\n      swap2\n      pop\n      pop\n      jump\t// out\n        /* \"#utility.yul\":17841:17937   */\n    tag_552:\n        /* \"#utility.yul\":17878:17885   */\n      0x00\n        /* \"#utility.yul\":17907:17931   */\n      tag_688\n        /* \"#utility.yul\":17925:17930   */\n      dup3\n        /* \"#utility.yul\":17907:17931   */\n      tag_689\n      jump\t// in\n    tag_688:\n        /* \"#utility.yul\":17896:17931   */\n      swap1\n      pop\n        /* \"#utility.yul\":17841:17937   */\n      swap2\n      swap1\n      pop\n      jump\t// out\n        /* \"#utility.yul\":17943:18033   */\n    tag_690:\n        /* \"#utility.yul\":17977:17984   */\n      0x00\n        /* \"#utility.yul\":18020:18025   */\n      dup2\n        /* \"#utility.yul\":18013:18026   */\n      iszero\n        /* \"#utility.yul\":18006:18027   */\n      iszero\n        /* \"#utility.yul\":17995:18027   */\n      swap1\n      pop\n        /* \"#utility.yul\":17943:18033   */\n      swap2\n      swap1\n      pop\n      jump\t// out\n        /* \"#utility.yul\":18039:18131   */\n    tag_560:\n        /* \"#utility.yul\":18075:18082   */\n      0x00\n        /* \"#utility.yul\":18119:18124   */\n      dup2\n        /* \"#utility.yul\":18115:18117   */\n      0x0f\n        /* \"#utility.yul\":18104:18125   */\n      signextend\n        /* \"#utility.yul\":18093:18125   */\n      swap1\n      pop\n        /* \"#utility.yul\":18039:18131   */\n      swap2\n      swap1\n      pop\n      jump\t// out\n        /* \"#utility.yul\":18137:18263   */\n    tag_689:\n        /* \"#utility.yul\":18174:18181   */\n      0x00\n        /* \"#utility.yul\":18214:18256   */\n      0xffffffffffffffffffffffffffffffffffffffff\n        /* \"#utility.yul\":18207:18212   */\n      dup3\n        /* \"#utility.yul\":18203:18257   */\n      and\n        /* \"#utility.yul\":18192:18257   */\n      swap1\n      pop\n        /* \"#utility.yul\":18137:18263   */\n      swap2\n      swap1\n      pop\n      jump\t// out\n        /* \"#utility.yul\":18269:18346   */\n    tag_613:\n        /* \"#utility.yul\":18306:18313   */\n      0x00\n        /* \"#utility.yul\":18335:18340   */\n      dup2\n        /* \"#utility.yul\":18324:18340   */\n      swap1\n      pop\n        /* \"#utility.yul\":18269:18346   */\n      swap2\n      swap1\n      pop\n      jump\t// out\n        /* \"#utility.yul\":18352:18493   */\n    tag_556:\n        /* \"#utility.yul\":18417:18426   */\n      0x00\n        /* \"#utility.yul\":18450:18487   */\n      tag_696\n        /* \"#utility.yul\":18481:18486   */\n      dup3\n        /* \"#utility.yul\":18450:18487   */\n      tag_697\n      jump\t// in\n    tag_696:\n        /* \"#utility.yul\":18437:18487   */\n      swap1\n      pop\n        /* \"#utility.yul\":18352:18493   */\n      swap2\n      swap1\n      pop\n      jump\t// out\n        /* \"#utility.yul\":18499:18625   */\n    tag_697:\n        /* \"#utility.yul\":18549:18558   */\n      0x00\n        /* \"#utility.yul\":18582:18619   */\n      tag_699\n        /* \"#utility.yul\":18613:18618   */\n      dup3\n        /* \"#utility.yul\":18582:18619   */\n      tag_700\n      jump\t// in\n    tag_699:\n        /* \"#utility.yul\":18569:18619   */\n      swap1\n      pop\n        /* \"#utility.yul\":18499:18625   */\n      swap2\n      swap1\n      pop\n      jump\t// out\n        /* \"#utility.yul\":18631:18744   */\n    tag_700:\n        /* \"#utility.yul\":18681:18690   */\n      0x00\n        /* \"#utility.yul\":18714:18738   */\n      tag_702\n        /* \"#utility.yul\":18732:18737   */\n      dup3\n        /* \"#utility.yul\":18714:18738   */\n      tag_689\n      jump\t// in\n    tag_702:\n        /* \"#utility.yul\":18701:18738   */\n      swap1\n      pop\n        /* \"#utility.yul\":18631:18744   */\n      swap2\n      swap1\n      pop\n      jump\t// out\n        /* \"#utility.yul\":18750:18904   */\n    tag_473:\n        /* \"#utility.yul\":18834:18840   */\n      dup3\n        /* \"#utility.yul\":18829:18832   */\n      dup2\n        /* \"#utility.yul\":18824:18827   */\n      dup4\n        /* \"#utility.yul\":18811:18841   */\n      calldatacopy\n        /* \"#utility.yul\":18896:18897   */\n      0x00\n        /* \"#utility.yul\":18887:18893   */\n      dup4\n        /* \"#utility.yul\":18882:18885   */\n      dup4\n        /* \"#utility.yul\":18878:18894   */\n      add\n        /* \"#utility.yul\":18871:18898   */\n      mstore\n        /* \"#utility.yul\":18750:18904   */\n      pop\n      pop\n      pop\n      jump\t// out\n        /* \"#utility.yul\":18910:19217   */\n    tag_568:\n        /* \"#utility.yul\":18978:18979   */\n      0x00\n        /* \"#utility.yul\":18988:19101   */\n    tag_705:\n        /* \"#utility.yul\":19002:19008   */\n      dup4\n        /* \"#utility.yul\":18999:19000   */\n      dup2\n        /* \"#utility.yul\":18996:19009   */\n      lt\n        /* \"#utility.yul\":18988:19101   */\n      iszero\n      tag_707\n      jumpi\n        /* \"#utility.yul\":19087:19088   */\n      dup1\n        /* \"#utility.yul\":19082:19085   */\n      dup3\n        /* \"#utility.yul\":19078:19089   */\n      add\n        /* \"#utility.yul\":19072:19090   */\n      mload\n        /* \"#utility.yul\":19068:19069   */\n      dup2\n        /* \"#utility.yul\":19063:19066   */\n      dup5\n        /* \"#utility.yul\":19059:19070   */\n      add\n        /* \"#utility.yul\":19052:19091   */\n      mstore\n        /* \"#utility.yul\":19024:19026   */\n      0x20\n        /* \"#utility.yul\":19021:19022   */\n      dup2\n        /* \"#utility.yul\":19017:19027   */\n      add\n        /* \"#utility.yul\":19012:19027   */\n      swap1\n      pop\n        /* \"#utility.yul\":18988:19101   */\n      jump(tag_705)\n    tag_707:\n        /* \"#utility.yul\":19119:19125   */\n      dup4\n        /* \"#utility.yul\":19116:19117   */\n      dup2\n        /* \"#utility.yul\":19113:19126   */\n      gt\n        /* \"#utility.yul\":19110:19211   */\n      iszero\n      tag_708\n      jumpi\n        /* \"#utility.yul\":19199:19200   */\n      0x00\n        /* \"#utility.yul\":19190:19196   */\n      dup5\n        /* \"#utility.yul\":19185:19188   */\n      dup5\n        /* \"#utility.yul\":19181:19197   */\n      add\n        /* \"#utility.yul\":19174:19201   */\n      mstore\n        /* \"#utility.yul\":19110:19211   */\n    tag_708:\n        /* \"#utility.yul\":18959:19217   */\n      pop\n        /* \"#utility.yul\":18910:19217   */\n      pop\n      pop\n      pop\n      jump\t// out\n        /* \"#utility.yul\":19223:19504   */\n    tag_654:\n        /* \"#utility.yul\":19306:19333   */\n      tag_710\n        /* \"#utility.yul\":19328:19332   */\n      dup3\n        /* \"#utility.yul\":19306:19333   */\n      tag_661\n      jump\t// in\n    tag_710:\n        /* \"#utility.yul\":19298:19304   */\n      dup2\n        /* \"#utility.yul\":19294:19334   */\n      add\n        /* \"#utility.yul\":19436:19442   */\n      dup2\n        /* \"#utility.yul\":19424:19434   */\n      dup2\n        /* \"#utility.yul\":19421:19443   */\n      lt\n        /* \"#utility.yul\":19400:19418   */\n      0xffffffffffffffff\n        /* \"#utility.yul\":19388:19398   */\n      dup3\n        /* \"#utility.yul\":19385:19419   */\n      gt\n        /* \"#utility.yul\":19382:19444   */\n      or\n        /* \"#utility.yul\":19379:19467   */\n      iszero\n      tag_711\n      jumpi\n        /* \"#utility.yul\":19447:19465   */\n      tag_712\n      tag_659\n      jump\t// in\n    tag_712:\n        /* \"#utility.yul\":19379:19467   */\n    tag_711:\n        /* \"#utility.yul\":19487:19497   */\n      dup1\n        /* \"#utility.yul\":19483:19485   */\n      0x40\n        /* \"#utility.yul\":19476:19498   */\n      mstore\n        /* \"#utility.yul\":19266:19504   */\n      pop\n        /* \"#utility.yul\":19223:19504   */\n      pop\n      pop\n      jump\t// out\n        /* \"#utility.yul\":19510:19743   */\n    tag_243:\n        /* \"#utility.yul\":19549:19552   */\n      0x00\n        /* \"#utility.yul\":19572:19596   */\n      tag_714\n        /* \"#utility.yul\":19590:19595   */\n      dup3\n        /* \"#utility.yul\":19572:19596   */\n      tag_613\n      jump\t// in\n    tag_714:\n        /* \"#utility.yul\":19563:19596   */\n      swap2\n      pop\n        /* \"#utility.yul\":19618:19684   */\n      0xffffffffffffffffffffffffffffffffffffffffffffffffffffffffffffffff\n        /* \"#utility.yul\":19611:19616   */\n      dup3\n        /* \"#utility.yul\":19608:19685   */\n      eq\n        /* \"#utility.yul\":19605:19708   */\n      iszero\n      tag_715\n      jumpi\n        /* \"#utility.yul\":19688:19706   */\n      tag_716\n      tag_670\n      jump\t// in\n    tag_716:\n        /* \"#utility.yul\":19605:19708   */\n    tag_715:\n        /* \"#utility.yul\":19735:19736   */\n      0x01\n        /* \"#utility.yul\":19728:19733   */\n      dup3\n        /* \"#utility.yul\":19724:19737   */\n      add\n        /* \"#utility.yul\":19717:19737   */\n      swap1\n      pop\n        /* \"#utility.yul\":19510:19743   */\n      swap2\n      swap1\n      pop\n      jump\t// out\n        /* \"#utility.yul\":19749:19929   */\n    tag_670:\n        /* \"#utility.yul\":19797:19874   */\n      0x4e487b7100000000000000000000000000000000000000000000000000000000\n        /* \"#utility.yul\":19794:19795   */\n      0x00\n        /* \"#utility.yul\":19787:19875   */\n      mstore\n        /* \"#utility.yul\":19894:19898   */\n      0x11\n        /* \"#utility.yul\":19891:19892   */\n      0x04\n        /* \"#utility.yul\":19884:19899   */\n      mstore\n        /* \"#utility.yul\":19918:19922   */\n      0x24\n        /* \"#utility.yul\":19915:19916   */\n      0x00\n        /* \"#utility.yul\":19908:19923   */\n      revert\n        /* \"#utility.yul\":19935:20115   */\n    tag_676:\n        /* \"#utility.yul\":19983:20060   */\n      0x4e487b7100000000000000000000000000000000000000000000000000000000\n        /* \"#utility.yul\":19980:19981   */\n      0x00\n        /* \"#utility.yul\":19973:20061   */\n      mstore\n        /* \"#utility.yul\":20080:20084   */\n      0x12\n        /* \"#utility.yul\":20077:20078   */\n      0x04\n        /* \"#utility.yul\":20070:20085   */\n      mstore\n        /* \"#utility.yul\":20104:20108   */\n      0x24\n        /* \"#utility.yul\":20101:20102   */\n      0x00\n        /* \"#utility.yul\":20094:20109   */\n      revert\n        /* \"#utility.yul\":20121:20301   */\n    tag_659:\n        /* \"#utility.yul\":20169:20246   */\n      0x4e487b7100000000000000000000000000000000000000000000000000000000\n        /* \"#utility.yul\":20166:20167   */\n      0x00\n        /* \"#utility.yul\":20159:20247   */\n      mstore\n        /* \"#utility.yul\":20266:20270   */\n      0x41\n        /* \"#utility.yul\":20263:20264   */\n      0x04\n        /* \"#utility.yul\":20256:20271   */\n      mstore\n        /* \"#utility.yul\":20290:20294   */\n      0x24\n        /* \"#utility.yul\":20287:20288   */\n      0x00\n        /* \"#utility.yul\":20280:20295   */\n      revert\n        /* \"#utility.yul\":20307:20424   */\n    tag_486:\n        /* \"#utility.yul\":20416:20417   */\n      0x00\n        /* \"#utility.yul\":20413:20414   */\n      dup1\n        /* \"#utility.yul\":20406:20418   */\n      revert\n        /* \"#utility.yul\":20430:20547   */\n    tag_471:\n        /* \"#utility.yul\":20539:20540   */\n      0x00\n        /* \"#utility.yul\":20536:20537   */\n      dup1\n        /* \"#utility.yul\":20529:20541   */\n      revert\n        /* \"#utility.yul\":20553:20670   */\n    tag_506:\n        /* \"#utility.yul\":20662:20663   */\n      0x00\n        /* \"#utility.yul\":20659:20660   */\n      dup1\n        /* \"#utility.yul\":20652:20664   */\n      revert\n        /* \"#utility.yul\":20676:20793   */\n    tag_498:\n        /* \"#utility.yul\":20785:20786   */\n      0x00\n        /* \"#utility.yul\":20782:20783   */\n      dup1\n        /* \"#utility.yul\":20775:20787   */\n      revert\n        /* \"#utility.yul\":20799:20901   */\n    tag_661:\n        /* \"#utility.yul\":20840:20846   */\n      0x00\n        /* \"#utility.yul\":20891:20893   */\n      0x1f\n        /* \"#utility.yul\":20887:20894   */\n      not\n        /* \"#utility.yul\":20882:20884   */\n      0x1f\n        /* \"#utility.yul\":20875:20880   */\n      dup4\n        /* \"#utility.yul\":20871:20885   */\n      add\n        /* \"#utility.yul\":20867:20895   */\n      and\n        /* \"#utility.yul\":20857:20895   */\n      swap1\n      pop\n        /* \"#utility.yul\":20799:20901   */\n      swap2\n      swap1\n      pop\n      jump\t// out\n        /* \"#utility.yul\":20907:21130   */\n    tag_574:\n        /* \"#utility.yul\":21047:21081   */\n      0x596f7520646f6e7420686176652074686174206d75636820746f207769746864\n        /* \"#utility.yul\":21043:21044   */\n      0x00\n        /* \"#utility.yul\":21035:21041   */\n      dup3\n        /* \"#utility.yul\":21031:21045   */\n      add\n        /* \"#utility.yul\":21024:21082   */\n      mstore\n        /* \"#utility.yul\":21116:21122   */\n      0x7261772100000000000000000000000000000000000000000000000000000000\n        /* \"#utility.yul\":21111:21113   */\n      0x20\n        /* \"#utility.yul\":21103:21109   */\n      dup3\n        /* \"#utility.yul\":21099:21114   */\n      add\n        /* \"#utility.yul\":21092:21123   */\n      mstore\n        /* \"#utility.yul\":20907:21130   */\n      pop\n      jump\t// out\n        /* \"#utility.yul\":21136:21307   */\n    tag_579:\n        /* \"#utility.yul\":21276:21299   */\n      0x546f6b656e207472616e73666572206661696c65640000000000000000000000\n        /* \"#utility.yul\":21272:21273   */\n      0x00\n        /* \"#utility.yul\":21264:21270   */\n      dup3\n        /* \"#utility.yul\":21260:21274   */\n      add\n        /* \"#utility.yul\":21253:21300   */\n      mstore\n        /* \"#utility.yul\":21136:21307   */\n      pop\n      jump\t// out\n        /* \"#utility.yul\":21313:21489   */\n    tag_584:\n        /* \"#utility.yul\":21453:21481   */\n      0x596f7520646f6e742068617665207468617420616d6f756e7421000000000000\n        /* \"#utility.yul\":21449:21450   */\n      0x00\n        /* \"#utility.yul\":21441:21447   */\n      dup3\n        /* \"#utility.yul\":21437:21451   */\n      add\n        /* \"#utility.yul\":21430:21482   */\n      mstore\n        /* \"#utility.yul\":21313:21489   */\n      pop\n      jump\t// out\n        /* \"#utility.yul\":21495:21666   */\n    tag_589:\n        /* \"#utility.yul\":21635:21658   */\n      0x506572207472616e73616374696f6e206c696d69740000000000000000000000\n        /* \"#utility.yul\":21631:21632   */\n      0x00\n        /* \"#utility.yul\":21623:21629   */\n      dup3\n        /* \"#utility.yul\":21619:21633   */\n      add\n        /* \"#utility.yul\":21612:21659   */\n      mstore\n        /* \"#utility.yul\":21495:21666   */\n      pop\n      jump\t// out\n        /* \"#utility.yul\":21672:21826   */\n    tag_594:\n        /* \"#utility.yul\":21812:21818   */\n      0x5553444300000000000000000000000000000000000000000000000000000000\n        /* \"#utility.yul\":21808:21809   */\n      0x00\n        /* \"#utility.yul\":21800:21806   */\n      dup3\n        /* \"#utility.yul\":21796:21810   */\n      add\n        /* \"#utility.yul\":21789:21819   */\n      mstore\n        /* \"#utility.yul\":21672:21826   */\n      pop\n      jump\t// out\n        /* \"#utility.yul\":21832:21994   */\n    tag_599:\n        /* \"#utility.yul\":21972:21986   */\n      0x4e6f7420756e6c6f636b65640000000000000000000000000000000000000000\n        /* \"#utility.yul\":21968:21969   */\n      0x00\n        /* \"#utility.yul\":21960:21966   */\n      dup3\n        /* \"#utility.yul\":21956:21970   */\n      add\n        /* \"#utility.yul\":21949:21987   */\n      mstore\n        /* \"#utility.yul\":21832:21994   */\n      pop\n      jump\t// out\n        /* \"#utility.yul\":22000:22181   */\n    tag_604:\n        /* \"#utility.yul\":22140:22173   */\n      0x5265656e7472616e637947756172643a207265656e7472616e742063616c6c00\n        /* \"#utility.yul\":22136:22137   */\n      0x00\n        /* \"#utility.yul\":22128:22134   */\n      dup3\n        /* \"#utility.yul\":22124:22138   */\n      add\n        /* \"#utility.yul\":22117:22174   */\n      mstore\n        /* \"#utility.yul\":22000:22181   */\n      pop\n      jump\t// out\n        /* \"#utility.yul\":22187:22407   */\n    tag_609:\n        /* \"#utility.yul\":22327:22361   */\n      0x75696e74206f766572666c6f772066726f6d206d756c7469706c69636174696f\n        /* \"#utility.yul\":22323:22324   */\n      0x00\n        /* \"#utility.yul\":22315:22321   */\n      dup3\n        /* \"#utility.yul\":22311:22325   */\n      add\n        /* \"#utility.yul\":22304:22362   */\n      mstore\n        /* \"#utility.yul\":22396:22399   */\n      0x6e00000000000000000000000000000000000000000000000000000000000000\n        /* \"#utility.yul\":22391:22393   */\n      0x20\n        /* \"#utility.yul\":22383:22389   */\n      dup3\n        /* \"#utility.yul\":22379:22394   */\n      add\n        /* \"#utility.yul\":22372:22400   */\n      mstore\n        /* \"#utility.yul\":22187:22407   */\n      pop\n      jump\t// out\n        /* \"#utility.yul\":22413:22535   */\n    tag_477:\n        /* \"#utility.yul\":22486:22510   */\n      tag_734\n        /* \"#utility.yul\":22504:22509   */\n      dup2\n        /* \"#utility.yul\":22486:22510   */\n      tag_552\n      jump\t// in\n    tag_734:\n        /* \"#utility.yul\":22479:22484   */\n      dup2\n        /* \"#utility.yul\":22476:22511   */\n      eq\n        /* \"#utility.yul\":22466:22529   */\n      tag_735\n      jumpi\n        /* \"#utility.yul\":22525:22526   */\n      0x00\n        /* \"#utility.yul\":22522:22523   */\n      dup1\n        /* \"#utility.yul\":22515:22527   */\n      revert\n        /* \"#utility.yul\":22466:22529   */\n    tag_735:\n        /* \"#utility.yul\":22413:22535   */\n      pop\n      jump\t// out\n        /* \"#utility.yul\":22541:22657   */\n    tag_481:\n        /* \"#utility.yul\":22611:22632   */\n      tag_737\n        /* \"#utility.yul\":22626:22631   */\n      dup2\n        /* \"#utility.yul\":22611:22632   */\n      tag_690\n      jump\t// in\n    tag_737:\n        /* \"#utility.yul\":22604:22609   */\n      dup2\n        /* \"#utility.yul\":22601:22633   */\n      eq\n        /* \"#utility.yul\":22591:22651   */\n      tag_738\n      jumpi\n        /* \"#utility.yul\":22647:22648   */\n      0x00\n        /* \"#utility.yul\":22644:22645   */\n      dup1\n        /* \"#utility.yul\":22637:22649   */\n      revert\n        /* \"#utility.yul\":22591:22651   */\n    tag_738:\n        /* \"#utility.yul\":22541:22657   */\n      pop\n      jump\t// out\n        /* \"#utility.yul\":22663:22785   */\n    tag_491:\n        /* \"#utility.yul\":22736:22760   */\n      tag_740\n        /* \"#utility.yul\":22754:22759   */\n      dup2\n        /* \"#utility.yul\":22736:22760   */\n      tag_613\n      jump\t// in\n    tag_740:\n        /* \"#utility.yul\":22729:22734   */\n      dup2\n        /* \"#utility.yul\":22726:22761   */\n      eq\n        /* \"#utility.yul\":22716:22779   */\n      tag_741\n      jumpi\n        /* \"#utility.yul\":22775:22776   */\n      0x00\n        /* \"#utility.yul\":22772:22773   */\n      dup1\n        /* \"#utility.yul\":22765:22777   */\n      revert\n        /* \"#utility.yul\":22716:22779   */\n    tag_741:\n        /* \"#utility.yul\":22663:22785   */\n      pop\n      jump\t// out\n\n    auxdata: 0xa26469706673582212206e09aede98b1c2ce401fc921ac65562cbf17cdbfef722bfbd56e89620fcb478e64736f6c63430008070033\n}\n",
				"bytecode": {
					"linkReferences": {},
					"object": "6080604052620186a0600e5562015f90600f55620927c060105573617f2e2fd72fd9d5503197092ac168c91465e7f2601260006101000a81548173ffffffffffffffffffffffffffffffffffffffff021916908373ffffffffffffffffffffffffffffffffffffffff1602179055503480156200007b57600080fd5b50600160008190555073b27a31f1b0af2946b7f582768f03239b1ec07c2c601360006101000a81548173ffffffffffffffffffffffffffffffffffffffff021916908373ffffffffffffffffffffffffffffffffffffffff160217905550735fd6eb55d12e759a21c09ef703fe0cba1dc9d88d601460006101000a81548173ffffffffffffffffffffffffffffffffffffffff021916908373ffffffffffffffffffffffffffffffffffffffff160217905550737b96af9bd211cbf6ba5b0dd53aa61dc5806b6ace601560006101000a81548173ffffffffffffffffffffffffffffffffffffffff021916908373ffffffffffffffffffffffffffffffffffffffff160217905550735e17b14add6c386305a32928f985b29bba34eff5601a604051620001a89062000463565b908152602001604051809103902060000160006101000a81548173ffffffffffffffffffffffffffffffffffffffff021916908373ffffffffffffffffffffffffffffffffffffffff1602179055506006601a604051620002099062000463565b908152602001604051809103902060010181905550732a4a8ab6a0bc0d377098f8688f77003833bc1c9d601a60405162000243906200044c565b908152602001604051809103902060000160006101000a81548173ffffffffffffffffffffffffffffffffffffffff021916908373ffffffffffffffffffffffffffffffffffffffff1602179055506012601a604051620002a4906200044c565b90815260200160405180910390206001018190555073dc301622e621166bd8e82f2ca0a26c13ad0be355601a604051620002de9062000435565b908152602001604051809103902060000160006101000a81548173ffffffffffffffffffffffffffffffffffffffff021916908373ffffffffffffffffffffffffffffffffffffffff1602179055506012601a6040516200033f9062000435565b90815260200160405180910390206001018190555073617f2e2fd72fd9d5503197092ac168c91465e7f2600760006101000a81548173ffffffffffffffffffffffffffffffffffffffff021916908373ffffffffffffffffffffffffffffffffffffffff16021790555042600c8190555062069780600d8190555062000500565b6000620003cf6004836200047a565b9150620003dc8262000485565b600482019050919050565b6000620003f66003836200047a565b91506200040382620004ae565b600382019050919050565b60006200041d6004836200047a565b91506200042a82620004d7565b600482019050919050565b60006200044282620003c0565b9150819050919050565b60006200045982620003e7565b9150819050919050565b600062000470826200040e565b9150819050919050565b600081905092915050565b7f4652415800000000000000000000000000000000000000000000000000000000600082015250565b7f4441490000000000000000000000000000000000000000000000000000000000600082015250565b7f5553444300000000000000000000000000000000000000000000000000000000600082015250565b6130bd80620005106000396000f3fe6080604052600436106102255760003560e01c80636f10e28511610123578063c0ca6fb4116100ab578063e5d980821161006f578063e5d98082146107e7578063ee62086814610810578063eee05f5e1461083b578063fbbb458914610866578063fc3614431461089157610225565b8063c0ca6fb41461071f578063c0ce58891461074a578063cbff461714610766578063d04d790814610791578063d82eddf2146107bc57610225565b806393f7b711116100f257806393f7b711146106395780639b19251a14610664578063a475bf481461068d578063bdad7f02146106cb578063c079d7f6146106f457610225565b80636f10e2851461058f5780637087a7a5146105ba57806371cd58f9146105e5578063862d1b351461061057610225565b80631f564a06116101b157806339ad95d61161017557806339ad95d6146104bc5780633c6eb17a146104e557806343d32e9c1461051057806367b48c911461053b57806367e927a81461056657610225565b80631f564a06146103d357806326ae486e146103fe57806329982a32146104295780632a9f0fb114610454578063354533071461049157610225565b806312b2ed94116101f857806312b2ed94146102d65780631514c97614610314578063164c8501146103515780631a30e8721461037a5780631bc9cc45146103b757610225565b8063018a25e81461022a578063047729b0146102555780630ccaf04f146102805780630f65de3e146102ab575b600080fd5b34801561023657600080fd5b5061023f6108ba565b60405161024c9190612adf565b60405180910390f35b34801561026157600080fd5b5061026a6109da565b604051610277919061294e565b60405180910390f35b34801561028c57600080fd5b50610295610a00565b6040516102a29190612adf565b60405180910390f35b3480156102b757600080fd5b506102c0610b5a565b6040516102cd9190612adf565b60405180910390f35b3480156102e257600080fd5b506102fd60048036038101906102f8919061250a565b610be8565b60405161030b929190612afa565b60405180910390f35b34801561032057600080fd5b5061033b60048036038101906103369190612678565b610c0c565b6040516103489190612adf565b60405180910390f35b34801561035d57600080fd5b5061037860048036038101906103739190612678565b610c24565b005b34801561038657600080fd5b506103a1600480360381019061039c9190612678565b610da2565b6040516103ae9190612adf565b60405180910390f35b6103d160048036038101906103cc9190612678565b610dba565b005b3480156103df57600080fd5b506103e8610f52565b6040516103f59190612adf565b60405180910390f35b34801561040a57600080fd5b50610413611149565b60405161042091906129c9565b60405180910390f35b34801561043557600080fd5b5061043e61116f565b60405161044b919061294e565b60405180910390f35b34801561046057600080fd5b5061047b60048036038101906104769190612678565b611195565b6040516104889190612adf565b60405180910390f35b34801561049d57600080fd5b506104a66111ad565b6040516104b39190612adf565b60405180910390f35b3480156104c857600080fd5b506104e360048036038101906104de9190612678565b6111b3565b005b3480156104f157600080fd5b506104fa6111b6565b6040516105079190612adf565b60405180910390f35b34801561051c57600080fd5b506105256111bc565b6040516105329190612adf565b60405180910390f35b34801561054757600080fd5b506105506112dc565b60405161055d9190612adf565b60405180910390f35b34801561057257600080fd5b5061058d60048036038101906105889190612678565b6112e2565b005b34801561059b57600080fd5b506105a4611393565b6040516105b191906129e4565b60405180910390f35b3480156105c657600080fd5b506105cf6113a6565b6040516105dc91906129c9565b60405180910390f35b3480156105f157600080fd5b506105fa6113cc565b6040516106079190612adf565b60405180910390f35b34801561061c57600080fd5b50610637600480360381019061063291906126d2565b611483565b005b34801561064557600080fd5b5061064e611986565b60405161065b9190612adf565b60405180910390f35b34801561067057600080fd5b5061068b6004803603810190610686919061250a565b611ae0565b005b34801561069957600080fd5b506106b460048036038101906106af91906125c0565b611ae3565b6040516106c29291906129a0565b60405180910390f35b3480156106d757600080fd5b506106f260048036038101906106ed9190612537565b611b3d565b005b34801561070057600080fd5b50610709611cbe565b604051610716919061294e565b60405180910390f35b34801561072b57600080fd5b50610734611ce4565b60405161074191906129c9565b60405180910390f35b610764600480360381019061075f919061272e565b611d0a565b005b34801561077257600080fd5b5061077b612085565b6040516107889190612adf565b60405180910390f35b34801561079d57600080fd5b506107a661208b565b6040516107b391906129c9565b60405180910390f35b3480156107c857600080fd5b506107d16120b1565b6040516107de9190612adf565b60405180910390f35b3480156107f357600080fd5b5061080e60048036038101906108099190612609565b612114565b005b34801561081c57600080fd5b5061082561219f565b6040516108329190612adf565b60405180910390f35b34801561084757600080fd5b506108506121a5565b60405161085d919061294e565b60405180910390f35b34801561087257600080fd5b5061087b6121cb565b604051610888919061294e565b60405180910390f35b34801561089d57600080fd5b506108b860048036038101906108b39190612678565b6121f1565b005b60006109d53073ffffffffffffffffffffffffffffffffffffffff16631f564a066040518163ffffffff1660e01b8152600401602060405180830381600087803b15801561090757600080fd5b505af115801561091b573d6000803e3d6000fd5b505050506040513d601f19601f8201168201806040525081019061093f91906126a5565b3073ffffffffffffffffffffffffffffffffffffffff166393f7b7116040518163ffffffff1660e01b815260040160206040518083038186803b15801561098557600080fd5b505afa158015610999573d6000803e3d6000fd5b505050506040513d601f19601f820116820180604052508101906109bd91906126a5565b6710a741a4627800006109d09190612ba0565b612209565b905090565b600960009054906101000a900473ffffffffffffffffffffffffffffffffffffffff1681565b60008060008062015180600d54610a179190612bf6565b9050600062015180600c5442610a2d9190612c81565b610a379190612bf6565b9050600080821415610a5e5760196000808152602001908152602001600020549350610aaa565b8282610a6a9190612c81565b90505b81811015610aa957601960008281526020019081526020016000205484610a949190612ba0565b93508080610aa190612db3565b915050610a6d565b5b610b313073ffffffffffffffffffffffffffffffffffffffff1663d82eddf26040518163ffffffff1660e01b815260040160206040518083038186803b158015610af357600080fd5b505afa158015610b07573d6000803e3d6000fd5b505050506040513d601f19601f82011682018060405250810190610b2b91906126a5565b85612252565b9450670429d069189e0000851115610b4f57670429d069189e000094505b849550505050505090565b60008062015180600c5442610b6f9190612c81565b610b799190612bf6565b905060008062015180600d54610b8f9190612bf6565b905060008184610b9f9190612c81565b90505b83811015610bde57601960008281526020019081526020016000205483610bc99190612ba0565b92508080610bd690612db3565b915050610ba2565b8294505050505090565b601b6020528060005260406000206000915090508060000154908060010154905082565b60186020528060005260406000206000915090505481565b601b60003373ffffffffffffffffffffffffffffffffffffffff1673ffffffffffffffffffffffffffffffffffffffff168152602001908152602001600020600101548110610ca8576040517f08c379a0000000000000000000000000000000000000000000000000000000008152600401610c9f906129ff565b60405180910390fd5b80601b60003373ffffffffffffffffffffffffffffffffffffffff1673ffffffffffffffffffffffffffffffffffffffff1681526020019081526020016000206001016000828254610cfa9190612c81565b925050819055506000601b60003373ffffffffffffffffffffffffffffffffffffffff1673ffffffffffffffffffffffffffffffffffffffff168152602001908152602001600020600101541415610d9f57601b60003373ffffffffffffffffffffffffffffffffffffffff1673ffffffffffffffffffffffffffffffffffffffff168152602001908152602001600020600080820160009055600182016000905550505b50565b60196020528060005260406000206000915090505481565b6000601360009054906101000a900473ffffffffffffffffffffffffffffffffffffffff1673ffffffffffffffffffffffffffffffffffffffff166370a08231336040518263ffffffff1660e01b8152600401610e17919061294e565b60206040518083038186803b158015610e2f57600080fd5b505afa158015610e43573d6000803e3d6000fd5b505050506040513d601f19601f82011682018060405250810190610e6791906126a5565b9050818111610eab576040517f08c379a0000000000000000000000000000000000000000000000000000000008152600401610ea290612a3f565b60405180910390fd5b610ed9601360009054906101000a900473ffffffffffffffffffffffffffffffffffffffff16333085612293565b600062015180600c5442610eed9190612c81565b610ef79190612bf6565b905082601860008381526020019081526020016000206000828254610f1c9190612ba0565b9250508190555082601960008381526020019081526020016000206000828254610f469190612c81565b92505081905550505050565b6000601a604051610f6290612939565b908152602001604051809103902060000160009054906101000a900473ffffffffffffffffffffffffffffffffffffffff16601660006101000a81548173ffffffffffffffffffffffffffffffffffffffff021916908373ffffffffffffffffffffffffffffffffffffffff160217905550601660009054906101000a900473ffffffffffffffffffffffffffffffffffffffff1673ffffffffffffffffffffffffffffffffffffffff166370a08231734b20993bc481177ec7e8f571cecae8a9e22c02db6040518263ffffffff1660e01b8152600401611043919061294e565b60206040518083038186803b15801561105b57600080fd5b505afa15801561106f573d6000803e3d6000fd5b505050506040513d601f19601f8201168201806040525081019061109391906126a5565b600b81905550611144600b54601360009054906101000a900473ffffffffffffffffffffffffffffffffffffffff1673ffffffffffffffffffffffffffffffffffffffff166318160ddd6040518163ffffffff1660e01b815260040160206040518083038186803b15801561110757600080fd5b505afa15801561111b573d6000803e3d6000fd5b505050506040513d601f19601f8201168201806040525081019061113f91906126a5565b612252565b905090565b601360009054906101000a900473ffffffffffffffffffffffffffffffffffffffff1681565b600a60009054906101000a900473ffffffffffffffffffffffffffffffffffffffff1681565b60176020528060005260406000206000915090505481565b600b5481565b50565b600c5481565b60006112d73073ffffffffffffffffffffffffffffffffffffffff16631f564a066040518163ffffffff1660e01b8152600401602060405180830381600087803b15801561120957600080fd5b505af115801561121d573d6000803e3d6000fd5b505050506040513d601f19601f8201168201806040525081019061124191906126a5565b3073ffffffffffffffffffffffffffffffffffffffff16630ccaf04f6040518163ffffffff1660e01b815260040160206040518083038186803b15801561128757600080fd5b505afa15801561129b573d6000803e3d6000fd5b505050506040513d601f19601f820116820180604052508101906112bf91906126a5565b670c7d713b49da00006112d29190612c81565b612209565b905090565b600d5481565b620d2f00426112f19190612ba0565b601b60003373ffffffffffffffffffffffffffffffffffffffff1673ffffffffffffffffffffffffffffffffffffffff1681526020019081526020016000206000018190555080601b60003373ffffffffffffffffffffffffffffffffffffffff1673ffffffffffffffffffffffffffffffffffffffff16815260200190815260200160002060010160008282546113899190612ba0565b9250508190555050565b601160009054906101000a9004600f0b81565b601660009054906101000a900473ffffffffffffffffffffffffffffffffffffffff1681565b60008060008062015180600d546113e39190612bf6565b9050600062015180600c54426113f99190612c81565b6114039190612bf6565b9050600081141561142d576017600080815260200190815260200160002054945050505050611480565b81816114399190612c81565b92505b80831015611478576017600084815260200190815260200160002054846114639190612ba0565b9350828061147090612db3565b93505061143c565b839450505050505b90565b600260005414156114c9576040517f08c379a00000000000000000000000000000000000000000000000000000000081526004016114c090612a9f565b60405180910390fd5b6002600081905550601a816040516114e19190612922565b908152602001604051809103902060000160009054906101000a900473ffffffffffffffffffffffffffffffffffffffff16601660006101000a81548173ffffffffffffffffffffffffffffffffffffffff021916908373ffffffffffffffffffffffffffffffffffffffff1602179055506203d090821115611599576040517f08c379a000000000000000000000000000000000000000000000000000000000815260040161159090612a5f565b60405180910390fd5b6000601660009054906101000a900473ffffffffffffffffffffffffffffffffffffffff1673ffffffffffffffffffffffffffffffffffffffff166370a08231336040518263ffffffff1660e01b81526004016115f6919061294e565b60206040518083038186803b15801561160e57600080fd5b505afa158015611622573d6000803e3d6000fd5b505050506040513d601f19601f8201168201806040525081019061164691906126a5565b905082811161168a576040517f08c379a000000000000000000000000000000000000000000000000000000000815260040161168190612a3f565b60405180910390fd5b6000601a8360405161169c9190612922565b908152602001604051809103902060010154611737853073ffffffffffffffffffffffffffffffffffffffff1663018a25e86040518163ffffffff1660e01b8152600401602060405180830381600087803b1580156116fa57600080fd5b505af115801561170e573d6000803e3d6000fd5b505050506040513d601f19601f8201168201806040525081019061173291906126a5565b612209565b6117419190612c27565b9050611771601660009054906101000a900473ffffffffffffffffffffffffffffffffffffffff16333084612293565b601360009054906101000a900473ffffffffffffffffffffffffffffffffffffffff1673ffffffffffffffffffffffffffffffffffffffff166340c10f1933670de0b6b3a7640000876117c49190612c27565b6040518363ffffffff1660e01b81526004016117e19291906129a0565b600060405180830381600087803b1580156117fb57600080fd5b505af115801561180f573d6000803e3d6000fd5b50505050601460009054906101000a900473ffffffffffffffffffffffffffffffffffffffff1673ffffffffffffffffffffffffffffffffffffffff166340c10f1930670de0b6b3a7640000876118669190612c27565b6040518363ffffffff1660e01b81526004016118839291906129a0565b600060405180830381600087803b15801561189d57600080fd5b505af11580156118b1573d6000803e3d6000fd5b50505050600062015180600c54426118c99190612c81565b6118d39190612bf6565b9050846017600083815260200190815260200160002060008282546118f89190612ba0565b92505081905550846019600083815260200190815260200160002060008282546119229190612ba0565b925050819055503373ffffffffffffffffffffffffffffffffffffffff167ff633443b01504d269657083d48bb6de98e089cfff672b47fefbed21608b5c7798660405161196f9190612adf565b60405180910390a250505060016000819055505050565b60008060008062015180600d5461199d9190612bf6565b9050600062015180600c54426119b39190612c81565b6119bd9190612bf6565b90506000808214156119e45760196000808152602001908152602001600020549350611a30565b82826119f09190612c81565b90505b81811015611a2f57601960008281526020019081526020016000205484611a1a9190612ba0565b93508080611a2790612db3565b9150506119f3565b5b611ab73073ffffffffffffffffffffffffffffffffffffffff166371cd58f96040518163ffffffff1660e01b815260040160206040518083038186803b158015611a7957600080fd5b505afa158015611a8d573d6000803e3d6000fd5b505050506040513d601f19601f82011682018060405250810190611ab191906126a5565b85612252565b9450670429d069189e0000851115611ad557670429d069189e000094505b849550505050505090565b50565b601a818051602081018201805184825260208301602085012081835280955050505050506000915090508060000160009054906101000a900473ffffffffffffffffffffffffffffffffffffffff16908060010154905082565b601b60008373ffffffffffffffffffffffffffffffffffffffff1673ffffffffffffffffffffffffffffffffffffffff16815260200190815260200160002060000154421015611bc2576040517f08c379a0000000000000000000000000000000000000000000000000000000008152600401611bb990612a7f565b60405180910390fd5b601a81604051611bd29190612922565b908152602001604051809103902060000160009054906101000a900473ffffffffffffffffffffffffffffffffffffffff16601660006101000a81548173ffffffffffffffffffffffffffffffffffffffff021916908373ffffffffffffffffffffffffffffffffffffffff1602179055506000601b60008473ffffffffffffffffffffffffffffffffffffffff1673ffffffffffffffffffffffffffffffffffffffff168152602001908152602001600020600101549050611cb9601660009054906101000a900473ffffffffffffffffffffffffffffffffffffffff16303384612293565b505050565b600860009054906101000a900473ffffffffffffffffffffffffffffffffffffffff1681565b601560009054906101000a900473ffffffffffffffffffffffffffffffffffffffff1681565b601a81604051611d1a9190612922565b908152602001604051809103902060000160009054906101000a900473ffffffffffffffffffffffffffffffffffffffff16601660006101000a81548173ffffffffffffffffffffffffffffffffffffffff021916908373ffffffffffffffffffffffffffffffffffffffff1602179055506000601360009054906101000a900473ffffffffffffffffffffffffffffffffffffffff1673ffffffffffffffffffffffffffffffffffffffff166370a08231336040518263ffffffff1660e01b8152600401611de9919061294e565b60206040518083038186803b158015611e0157600080fd5b505afa158015611e15573d6000803e3d6000fd5b505050506040513d601f19601f82011682018060405250810190611e3991906126a5565b9050838111611e7d576040517f08c379a0000000000000000000000000000000000000000000000000000000008152600401611e7490612a3f565b60405180910390fd5b601660009054906101000a900473ffffffffffffffffffffffffffffffffffffffff1673ffffffffffffffffffffffffffffffffffffffff1663a9059cbb33670de0b6b3a76400006001611ed19190612c27565b87611edc9190612ba0565b6040518363ffffffff1660e01b8152600401611ef99291906129a0565b602060405180830381600087803b158015611f1357600080fd5b505af1158015611f27573d6000803e3d6000fd5b505050506040513d601f19601f82011682018060405250810190611f4b9190612593565b50611f7a601360009054906101000a900473ffffffffffffffffffffffffffffffffffffffff16333087612293565b6000843073ffffffffffffffffffffffffffffffffffffffff166343d32e9c6040518163ffffffff1660e01b8152600401602060405180830381600087803b158015611fc557600080fd5b505af1158015611fd9573d6000803e3d6000fd5b505050506040513d601f19601f82011682018060405250810190611ffd91906126a5565b6120079190612c27565b9050600062015180600c544261201d9190612c81565b6120279190612bf6565b90508560186000838152602001908152602001600020600082825461204c9190612ba0565b92505081905550856019600083815260200190815260200160002060008282546120769190612c81565b92505081905550505050505050565b60025481565b601460009054906101000a900473ffffffffffffffffffffffffffffffffffffffff1681565b60008060008062015180600d546120c89190612bf6565b9050600091505b8082101561210b576018600083815260200190815260200160002054836120f69190612ba0565b9250818061210390612db3565b9250506120cf565b82935050505090565b81601a846040516121259190612922565b908152602001604051809103902060000160006101000a81548173ffffffffffffffffffffffffffffffffffffffff021916908373ffffffffffffffffffffffffffffffffffffffff16021790555080601a846040516121859190612922565b908152602001604051809103902060010181905550505050565b60015481565b601260009054906101000a900473ffffffffffffffffffffffffffffffffffffffff1681565b600760009054906101000a900473ffffffffffffffffffffffffffffffffffffffff1681565b62015180816122009190612c27565b600d8190555050565b600080612216848461236d565b9050670de0b6b3a764000061223f826002670de0b6b3a764000061223a9190612bf6565b6123e8565b6122499190612bf6565b91505092915050565b60008061226784670de0b6b3a764000061236d565b9050826122808260028661227b9190612bf6565b6123e8565b61228a9190612bf6565b91505092915050565b60008473ffffffffffffffffffffffffffffffffffffffff166323b872dd8585856040518463ffffffff1660e01b81526004016122d293929190612969565b602060405180830381600087803b1580156122ec57600080fd5b505af1158015612300573d6000803e3d6000fd5b505050506040513d601f19601f820116820180604052508101906123249190612593565b905080612366576040517f08c379a000000000000000000000000000000000000000000000000000000000815260040161235d90612a1f565b60405180910390fd5b5050505050565b60008083141561238057600090506123e2565b6000828461238e9190612c27565b905082848261239d9190612bf6565b146123dd576040517f08c379a00000000000000000000000000000000000000000000000000000000081526004016123d490612abf565b60405180910390fd5b809150505b92915050565b60008082846123f79190612ba0565b90508381101561243c576040517f08c379a000000000000000000000000000000000000000000000000000000000815260040161243390612abf565b60405180910390fd5b8091505092915050565b600061245961245484612b48565b612b23565b90508281526020810184848401111561247557612474612e8e565b5b612480848285612d40565b509392505050565b60008135905061249781613042565b92915050565b6000815190506124ac81613059565b92915050565b600082601f8301126124c7576124c6612e89565b5b81356124d7848260208601612446565b91505092915050565b6000813590506124ef81613070565b92915050565b60008151905061250481613070565b92915050565b6000602082840312156125205761251f612e98565b5b600061252e84828501612488565b91505092915050565b6000806040838503121561254e5761254d612e98565b5b600061255c85828601612488565b925050602083013567ffffffffffffffff81111561257d5761257c612e93565b5b612589858286016124b2565b9150509250929050565b6000602082840312156125a9576125a8612e98565b5b60006125b78482850161249d565b91505092915050565b6000602082840312156125d6576125d5612e98565b5b600082013567ffffffffffffffff8111156125f4576125f3612e93565b5b612600848285016124b2565b91505092915050565b60008060006060848603121561262257612621612e98565b5b600084013567ffffffffffffffff8111156126405761263f612e93565b5b61264c868287016124b2565b935050602061265d86828701612488565b925050604061266e868287016124e0565b9150509250925092565b60006020828403121561268e5761268d612e98565b5b600061269c848285016124e0565b91505092915050565b6000602082840312156126bb576126ba612e98565b5b60006126c9848285016124f5565b91505092915050565b600080604083850312156126e9576126e8612e98565b5b60006126f7858286016124e0565b925050602083013567ffffffffffffffff81111561271857612717612e93565b5b612724858286016124b2565b9150509250929050565b60008060006060848603121561274757612746612e98565b5b6000612755868287016124e0565b9350506020612766868287016124e0565b925050604084013567ffffffffffffffff81111561278757612786612e93565b5b612793868287016124b2565b9150509250925092565b6127a681612cb5565b82525050565b6127b581612d0a565b82525050565b6127c481612cd3565b82525050565b60006127d582612b79565b6127df8185612b95565b93506127ef818560208601612d4f565b80840191505092915050565b6000612808602483612b84565b915061281382612eae565b604082019050919050565b600061282b601583612b84565b915061283682612efd565b602082019050919050565b600061284e601a83612b84565b915061285982612f26565b602082019050919050565b6000612871601583612b84565b915061287c82612f4f565b602082019050919050565b6000612894600483612b95565b915061289f82612f78565b600482019050919050565b60006128b7600c83612b84565b91506128c282612fa1565b602082019050919050565b60006128da601f83612b84565b91506128e582612fca565b602082019050919050565b60006128fd602183612b84565b915061290882612ff3565b604082019050919050565b61291c81612d00565b82525050565b600061292e82846127ca565b915081905092915050565b600061294482612887565b9150819050919050565b6000602082019050612963600083018461279d565b92915050565b600060608201905061297e600083018661279d565b61298b602083018561279d565b6129986040830184612913565b949350505050565b60006040820190506129b5600083018561279d565b6129c26020830184612913565b9392505050565b60006020820190506129de60008301846127ac565b92915050565b60006020820190506129f960008301846127bb565b92915050565b60006020820190508181036000830152612a18816127fb565b9050919050565b60006020820190508181036000830152612a388161281e565b9050919050565b60006020820190508181036000830152612a5881612841565b9050919050565b60006020820190508181036000830152612a7881612864565b9050919050565b60006020820190508181036000830152612a98816128aa565b9050919050565b60006020820190508181036000830152612ab8816128cd565b9050919050565b60006020820190508181036000830152612ad8816128f0565b9050919050565b6000602082019050612af46000830184612913565b92915050565b6000604082019050612b0f6000830185612913565b612b1c6020830184612913565b9392505050565b6000612b2d612b3e565b9050612b398282612d82565b919050565b6000604051905090565b600067ffffffffffffffff821115612b6357612b62612e5a565b5b612b6c82612e9d565b9050602081019050919050565b600081519050919050565b600082825260208201905092915050565b600081905092915050565b6000612bab82612d00565b9150612bb683612d00565b9250827fffffffffffffffffffffffffffffffffffffffffffffffffffffffffffffffff03821115612beb57612bea612dfc565b5b828201905092915050565b6000612c0182612d00565b9150612c0c83612d00565b925082612c1c57612c1b612e2b565b5b828204905092915050565b6000612c3282612d00565b9150612c3d83612d00565b9250817fffffffffffffffffffffffffffffffffffffffffffffffffffffffffffffffff0483118215151615612c7657612c75612dfc565b5b828202905092915050565b6000612c8c82612d00565b9150612c9783612d00565b925082821015612caa57612ca9612dfc565b5b828203905092915050565b6000612cc082612ce0565b9050919050565b60008115159050919050565b600081600f0b9050919050565b600073ffffffffffffffffffffffffffffffffffffffff82169050919050565b6000819050919050565b6000612d1582612d1c565b9050919050565b6000612d2782612d2e565b9050919050565b6000612d3982612ce0565b9050919050565b82818337600083830152505050565b60005b83811015612d6d578082015181840152602081019050612d52565b83811115612d7c576000848401525b50505050565b612d8b82612e9d565b810181811067ffffffffffffffff82111715612daa57612da9612e5a565b5b80604052505050565b6000612dbe82612d00565b91507fffffffffffffffffffffffffffffffffffffffffffffffffffffffffffffffff821415612df157612df0612dfc565b5b600182019050919050565b7f4e487b7100000000000000000000000000000000000000000000000000000000600052601160045260246000fd5b7f4e487b7100000000000000000000000000000000000000000000000000000000600052601260045260246000fd5b7f4e487b7100000000000000000000000000000000000000000000000000000000600052604160045260246000fd5b600080fd5b600080fd5b600080fd5b600080fd5b6000601f19601f8301169050919050565b7f596f7520646f6e7420686176652074686174206d75636820746f20776974686460008201527f7261772100000000000000000000000000000000000000000000000000000000602082015250565b7f546f6b656e207472616e73666572206661696c65640000000000000000000000600082015250565b7f596f7520646f6e742068617665207468617420616d6f756e7421000000000000600082015250565b7f506572207472616e73616374696f6e206c696d69740000000000000000000000600082015250565b7f5553444300000000000000000000000000000000000000000000000000000000600082015250565b7f4e6f7420756e6c6f636b65640000000000000000000000000000000000000000600082015250565b7f5265656e7472616e637947756172643a207265656e7472616e742063616c6c00600082015250565b7f75696e74206f766572666c6f772066726f6d206d756c7469706c69636174696f60008201527f6e00000000000000000000000000000000000000000000000000000000000000602082015250565b61304b81612cb5565b811461305657600080fd5b50565b61306281612cc7565b811461306d57600080fd5b50565b61307981612d00565b811461308457600080fd5b5056fea26469706673582212206e09aede98b1c2ce401fc921ac65562cbf17cdbfef722bfbd56e89620fcb478e64736f6c63430008070033",
					"opcodes": "PUSH1 0x80 PUSH1 0x40 MSTORE PUSH3 0x186A0 PUSH1 0xE SSTORE PUSH3 0x15F90 PUSH1 0xF SSTORE PUSH3 0x927C0 PUSH1 0x10 SSTORE PUSH20 0x617F2E2FD72FD9D5503197092AC168C91465E7F2 PUSH1 0x12 PUSH1 0x0 PUSH2 0x100 EXP DUP2 SLOAD DUP2 PUSH20 0xFFFFFFFFFFFFFFFFFFFFFFFFFFFFFFFFFFFFFFFF MUL NOT AND SWAP1 DUP4 PUSH20 0xFFFFFFFFFFFFFFFFFFFFFFFFFFFFFFFFFFFFFFFF AND MUL OR SWAP1 SSTORE POP CALLVALUE DUP1 ISZERO PUSH3 0x7B JUMPI PUSH1 0x0 DUP1 REVERT JUMPDEST POP PUSH1 0x1 PUSH1 0x0 DUP2 SWAP1 SSTORE POP PUSH20 0xB27A31F1B0AF2946B7F582768F03239B1EC07C2C PUSH1 0x13 PUSH1 0x0 PUSH2 0x100 EXP DUP2 SLOAD DUP2 PUSH20 0xFFFFFFFFFFFFFFFFFFFFFFFFFFFFFFFFFFFFFFFF MUL NOT AND SWAP1 DUP4 PUSH20 0xFFFFFFFFFFFFFFFFFFFFFFFFFFFFFFFFFFFFFFFF AND MUL OR SWAP1 SSTORE POP PUSH20 0x5FD6EB55D12E759A21C09EF703FE0CBA1DC9D88D PUSH1 0x14 PUSH1 0x0 PUSH2 0x100 EXP DUP2 SLOAD DUP2 PUSH20 0xFFFFFFFFFFFFFFFFFFFFFFFFFFFFFFFFFFFFFFFF MUL NOT AND SWAP1 DUP4 PUSH20 0xFFFFFFFFFFFFFFFFFFFFFFFFFFFFFFFFFFFFFFFF AND MUL OR SWAP1 SSTORE POP PUSH20 0x7B96AF9BD211CBF6BA5B0DD53AA61DC5806B6ACE PUSH1 0x15 PUSH1 0x0 PUSH2 0x100 EXP DUP2 SLOAD DUP2 PUSH20 0xFFFFFFFFFFFFFFFFFFFFFFFFFFFFFFFFFFFFFFFF MUL NOT AND SWAP1 DUP4 PUSH20 0xFFFFFFFFFFFFFFFFFFFFFFFFFFFFFFFFFFFFFFFF AND MUL OR SWAP1 SSTORE POP PUSH20 0x5E17B14ADD6C386305A32928F985B29BBA34EFF5 PUSH1 0x1A PUSH1 0x40 MLOAD PUSH3 0x1A8 SWAP1 PUSH3 0x463 JUMP JUMPDEST SWAP1 DUP2 MSTORE PUSH1 0x20 ADD PUSH1 0x40 MLOAD DUP1 SWAP2 SUB SWAP1 KECCAK256 PUSH1 0x0 ADD PUSH1 0x0 PUSH2 0x100 EXP DUP2 SLOAD DUP2 PUSH20 0xFFFFFFFFFFFFFFFFFFFFFFFFFFFFFFFFFFFFFFFF MUL NOT AND SWAP1 DUP4 PUSH20 0xFFFFFFFFFFFFFFFFFFFFFFFFFFFFFFFFFFFFFFFF AND MUL OR SWAP1 SSTORE POP PUSH1 0x6 PUSH1 0x1A PUSH1 0x40 MLOAD PUSH3 0x209 SWAP1 PUSH3 0x463 JUMP JUMPDEST SWAP1 DUP2 MSTORE PUSH1 0x20 ADD PUSH1 0x40 MLOAD DUP1 SWAP2 SUB SWAP1 KECCAK256 PUSH1 0x1 ADD DUP2 SWAP1 SSTORE POP PUSH20 0x2A4A8AB6A0BC0D377098F8688F77003833BC1C9D PUSH1 0x1A PUSH1 0x40 MLOAD PUSH3 0x243 SWAP1 PUSH3 0x44C JUMP JUMPDEST SWAP1 DUP2 MSTORE PUSH1 0x20 ADD PUSH1 0x40 MLOAD DUP1 SWAP2 SUB SWAP1 KECCAK256 PUSH1 0x0 ADD PUSH1 0x0 PUSH2 0x100 EXP DUP2 SLOAD DUP2 PUSH20 0xFFFFFFFFFFFFFFFFFFFFFFFFFFFFFFFFFFFFFFFF MUL NOT AND SWAP1 DUP4 PUSH20 0xFFFFFFFFFFFFFFFFFFFFFFFFFFFFFFFFFFFFFFFF AND MUL OR SWAP1 SSTORE POP PUSH1 0x12 PUSH1 0x1A PUSH1 0x40 MLOAD PUSH3 0x2A4 SWAP1 PUSH3 0x44C JUMP JUMPDEST SWAP1 DUP2 MSTORE PUSH1 0x20 ADD PUSH1 0x40 MLOAD DUP1 SWAP2 SUB SWAP1 KECCAK256 PUSH1 0x1 ADD DUP2 SWAP1 SSTORE POP PUSH20 0xDC301622E621166BD8E82F2CA0A26C13AD0BE355 PUSH1 0x1A PUSH1 0x40 MLOAD PUSH3 0x2DE SWAP1 PUSH3 0x435 JUMP JUMPDEST SWAP1 DUP2 MSTORE PUSH1 0x20 ADD PUSH1 0x40 MLOAD DUP1 SWAP2 SUB SWAP1 KECCAK256 PUSH1 0x0 ADD PUSH1 0x0 PUSH2 0x100 EXP DUP2 SLOAD DUP2 PUSH20 0xFFFFFFFFFFFFFFFFFFFFFFFFFFFFFFFFFFFFFFFF MUL NOT AND SWAP1 DUP4 PUSH20 0xFFFFFFFFFFFFFFFFFFFFFFFFFFFFFFFFFFFFFFFF AND MUL OR SWAP1 SSTORE POP PUSH1 0x12 PUSH1 0x1A PUSH1 0x40 MLOAD PUSH3 0x33F SWAP1 PUSH3 0x435 JUMP JUMPDEST SWAP1 DUP2 MSTORE PUSH1 0x20 ADD PUSH1 0x40 MLOAD DUP1 SWAP2 SUB SWAP1 KECCAK256 PUSH1 0x1 ADD DUP2 SWAP1 SSTORE POP PUSH20 0x617F2E2FD72FD9D5503197092AC168C91465E7F2 PUSH1 0x7 PUSH1 0x0 PUSH2 0x100 EXP DUP2 SLOAD DUP2 PUSH20 0xFFFFFFFFFFFFFFFFFFFFFFFFFFFFFFFFFFFFFFFF MUL NOT AND SWAP1 DUP4 PUSH20 0xFFFFFFFFFFFFFFFFFFFFFFFFFFFFFFFFFFFFFFFF AND MUL OR SWAP1 SSTORE POP TIMESTAMP PUSH1 0xC DUP2 SWAP1 SSTORE POP PUSH3 0x69780 PUSH1 0xD DUP2 SWAP1 SSTORE POP PUSH3 0x500 JUMP JUMPDEST PUSH1 0x0 PUSH3 0x3CF PUSH1 0x4 DUP4 PUSH3 0x47A JUMP JUMPDEST SWAP2 POP PUSH3 0x3DC DUP3 PUSH3 0x485 JUMP JUMPDEST PUSH1 0x4 DUP3 ADD SWAP1 POP SWAP2 SWAP1 POP JUMP JUMPDEST PUSH1 0x0 PUSH3 0x3F6 PUSH1 0x3 DUP4 PUSH3 0x47A JUMP JUMPDEST SWAP2 POP PUSH3 0x403 DUP3 PUSH3 0x4AE JUMP JUMPDEST PUSH1 0x3 DUP3 ADD SWAP1 POP SWAP2 SWAP1 POP JUMP JUMPDEST PUSH1 0x0 PUSH3 0x41D PUSH1 0x4 DUP4 PUSH3 0x47A JUMP JUMPDEST SWAP2 POP PUSH3 0x42A DUP3 PUSH3 0x4D7 JUMP JUMPDEST PUSH1 0x4 DUP3 ADD SWAP1 POP SWAP2 SWAP1 POP JUMP JUMPDEST PUSH1 0x0 PUSH3 0x442 DUP3 PUSH3 0x3C0 JUMP JUMPDEST SWAP2 POP DUP2 SWAP1 POP SWAP2 SWAP1 POP JUMP JUMPDEST PUSH1 0x0 PUSH3 0x459 DUP3 PUSH3 0x3E7 JUMP JUMPDEST SWAP2 POP DUP2 SWAP1 POP SWAP2 SWAP1 POP JUMP JUMPDEST PUSH1 0x0 PUSH3 0x470 DUP3 PUSH3 0x40E JUMP JUMPDEST SWAP2 POP DUP2 SWAP1 POP SWAP2 SWAP1 POP JUMP JUMPDEST PUSH1 0x0 DUP2 SWAP1 POP SWAP3 SWAP2 POP POP JUMP JUMPDEST PUSH32 0x4652415800000000000000000000000000000000000000000000000000000000 PUSH1 0x0 DUP3 ADD MSTORE POP JUMP JUMPDEST PUSH32 0x4441490000000000000000000000000000000000000000000000000000000000 PUSH1 0x0 DUP3 ADD MSTORE POP JUMP JUMPDEST PUSH32 0x5553444300000000000000000000000000000000000000000000000000000000 PUSH1 0x0 DUP3 ADD MSTORE POP JUMP JUMPDEST PUSH2 0x30BD DUP1 PUSH3 0x510 PUSH1 0x0 CODECOPY PUSH1 0x0 RETURN INVALID PUSH1 0x80 PUSH1 0x40 MSTORE PUSH1 0x4 CALLDATASIZE LT PUSH2 0x225 JUMPI PUSH1 0x0 CALLDATALOAD PUSH1 0xE0 SHR DUP1 PUSH4 0x6F10E285 GT PUSH2 0x123 JUMPI DUP1 PUSH4 0xC0CA6FB4 GT PUSH2 0xAB JUMPI DUP1 PUSH4 0xE5D98082 GT PUSH2 0x6F JUMPI DUP1 PUSH4 0xE5D98082 EQ PUSH2 0x7E7 JUMPI DUP1 PUSH4 0xEE620868 EQ PUSH2 0x810 JUMPI DUP1 PUSH4 0xEEE05F5E EQ PUSH2 0x83B JUMPI DUP1 PUSH4 0xFBBB4589 EQ PUSH2 0x866 JUMPI DUP1 PUSH4 0xFC361443 EQ PUSH2 0x891 JUMPI PUSH2 0x225 JUMP JUMPDEST DUP1 PUSH4 0xC0CA6FB4 EQ PUSH2 0x71F JUMPI DUP1 PUSH4 0xC0CE5889 EQ PUSH2 0x74A JUMPI DUP1 PUSH4 0xCBFF4617 EQ PUSH2 0x766 JUMPI DUP1 PUSH4 0xD04D7908 EQ PUSH2 0x791 JUMPI DUP1 PUSH4 0xD82EDDF2 EQ PUSH2 0x7BC JUMPI PUSH2 0x225 JUMP JUMPDEST DUP1 PUSH4 0x93F7B711 GT PUSH2 0xF2 JUMPI DUP1 PUSH4 0x93F7B711 EQ PUSH2 0x639 JUMPI DUP1 PUSH4 0x9B19251A EQ PUSH2 0x664 JUMPI DUP1 PUSH4 0xA475BF48 EQ PUSH2 0x68D JUMPI DUP1 PUSH4 0xBDAD7F02 EQ PUSH2 0x6CB JUMPI DUP1 PUSH4 0xC079D7F6 EQ PUSH2 0x6F4 JUMPI PUSH2 0x225 JUMP JUMPDEST DUP1 PUSH4 0x6F10E285 EQ PUSH2 0x58F JUMPI DUP1 PUSH4 0x7087A7A5 EQ PUSH2 0x5BA JUMPI DUP1 PUSH4 0x71CD58F9 EQ PUSH2 0x5E5 JUMPI DUP1 PUSH4 0x862D1B35 EQ PUSH2 0x610 JUMPI PUSH2 0x225 JUMP JUMPDEST DUP1 PUSH4 0x1F564A06 GT PUSH2 0x1B1 JUMPI DUP1 PUSH4 0x39AD95D6 GT PUSH2 0x175 JUMPI DUP1 PUSH4 0x39AD95D6 EQ PUSH2 0x4BC JUMPI DUP1 PUSH4 0x3C6EB17A EQ PUSH2 0x4E5 JUMPI DUP1 PUSH4 0x43D32E9C EQ PUSH2 0x510 JUMPI DUP1 PUSH4 0x67B48C91 EQ PUSH2 0x53B JUMPI DUP1 PUSH4 0x67E927A8 EQ PUSH2 0x566 JUMPI PUSH2 0x225 JUMP JUMPDEST DUP1 PUSH4 0x1F564A06 EQ PUSH2 0x3D3 JUMPI DUP1 PUSH4 0x26AE486E EQ PUSH2 0x3FE JUMPI DUP1 PUSH4 0x29982A32 EQ PUSH2 0x429 JUMPI DUP1 PUSH4 0x2A9F0FB1 EQ PUSH2 0x454 JUMPI DUP1 PUSH4 0x35453307 EQ PUSH2 0x491 JUMPI PUSH2 0x225 JUMP JUMPDEST DUP1 PUSH4 0x12B2ED94 GT PUSH2 0x1F8 JUMPI DUP1 PUSH4 0x12B2ED94 EQ PUSH2 0x2D6 JUMPI DUP1 PUSH4 0x1514C976 EQ PUSH2 0x314 JUMPI DUP1 PUSH4 0x164C8501 EQ PUSH2 0x351 JUMPI DUP1 PUSH4 0x1A30E872 EQ PUSH2 0x37A JUMPI DUP1 PUSH4 0x1BC9CC45 EQ PUSH2 0x3B7 JUMPI PUSH2 0x225 JUMP JUMPDEST DUP1 PUSH4 0x18A25E8 EQ PUSH2 0x22A JUMPI DUP1 PUSH4 0x47729B0 EQ PUSH2 0x255 JUMPI DUP1 PUSH4 0xCCAF04F EQ PUSH2 0x280 JUMPI DUP1 PUSH4 0xF65DE3E EQ PUSH2 0x2AB JUMPI JUMPDEST PUSH1 0x0 DUP1 REVERT JUMPDEST CALLVALUE DUP1 ISZERO PUSH2 0x236 JUMPI PUSH1 0x0 DUP1 REVERT JUMPDEST POP PUSH2 0x23F PUSH2 0x8BA JUMP JUMPDEST PUSH1 0x40 MLOAD PUSH2 0x24C SWAP2 SWAP1 PUSH2 0x2ADF JUMP JUMPDEST PUSH1 0x40 MLOAD DUP1 SWAP2 SUB SWAP1 RETURN JUMPDEST CALLVALUE DUP1 ISZERO PUSH2 0x261 JUMPI PUSH1 0x0 DUP1 REVERT JUMPDEST POP PUSH2 0x26A PUSH2 0x9DA JUMP JUMPDEST PUSH1 0x40 MLOAD PUSH2 0x277 SWAP2 SWAP1 PUSH2 0x294E JUMP JUMPDEST PUSH1 0x40 MLOAD DUP1 SWAP2 SUB SWAP1 RETURN JUMPDEST CALLVALUE DUP1 ISZERO PUSH2 0x28C JUMPI PUSH1 0x0 DUP1 REVERT JUMPDEST POP PUSH2 0x295 PUSH2 0xA00 JUMP JUMPDEST PUSH1 0x40 MLOAD PUSH2 0x2A2 SWAP2 SWAP1 PUSH2 0x2ADF JUMP JUMPDEST PUSH1 0x40 MLOAD DUP1 SWAP2 SUB SWAP1 RETURN JUMPDEST CALLVALUE DUP1 ISZERO PUSH2 0x2B7 JUMPI PUSH1 0x0 DUP1 REVERT JUMPDEST POP PUSH2 0x2C0 PUSH2 0xB5A JUMP JUMPDEST PUSH1 0x40 MLOAD PUSH2 0x2CD SWAP2 SWAP1 PUSH2 0x2ADF JUMP JUMPDEST PUSH1 0x40 MLOAD DUP1 SWAP2 SUB SWAP1 RETURN JUMPDEST CALLVALUE DUP1 ISZERO PUSH2 0x2E2 JUMPI PUSH1 0x0 DUP1 REVERT JUMPDEST POP PUSH2 0x2FD PUSH1 0x4 DUP1 CALLDATASIZE SUB DUP2 ADD SWAP1 PUSH2 0x2F8 SWAP2 SWAP1 PUSH2 0x250A JUMP JUMPDEST PUSH2 0xBE8 JUMP JUMPDEST PUSH1 0x40 MLOAD PUSH2 0x30B SWAP3 SWAP2 SWAP1 PUSH2 0x2AFA JUMP JUMPDEST PUSH1 0x40 MLOAD DUP1 SWAP2 SUB SWAP1 RETURN JUMPDEST CALLVALUE DUP1 ISZERO PUSH2 0x320 JUMPI PUSH1 0x0 DUP1 REVERT JUMPDEST POP PUSH2 0x33B PUSH1 0x4 DUP1 CALLDATASIZE SUB DUP2 ADD SWAP1 PUSH2 0x336 SWAP2 SWAP1 PUSH2 0x2678 JUMP JUMPDEST PUSH2 0xC0C JUMP JUMPDEST PUSH1 0x40 MLOAD PUSH2 0x348 SWAP2 SWAP1 PUSH2 0x2ADF JUMP JUMPDEST PUSH1 0x40 MLOAD DUP1 SWAP2 SUB SWAP1 RETURN JUMPDEST CALLVALUE DUP1 ISZERO PUSH2 0x35D JUMPI PUSH1 0x0 DUP1 REVERT JUMPDEST POP PUSH2 0x378 PUSH1 0x4 DUP1 CALLDATASIZE SUB DUP2 ADD SWAP1 PUSH2 0x373 SWAP2 SWAP1 PUSH2 0x2678 JUMP JUMPDEST PUSH2 0xC24 JUMP JUMPDEST STOP JUMPDEST CALLVALUE DUP1 ISZERO PUSH2 0x386 JUMPI PUSH1 0x0 DUP1 REVERT JUMPDEST POP PUSH2 0x3A1 PUSH1 0x4 DUP1 CALLDATASIZE SUB DUP2 ADD SWAP1 PUSH2 0x39C SWAP2 SWAP1 PUSH2 0x2678 JUMP JUMPDEST PUSH2 0xDA2 JUMP JUMPDEST PUSH1 0x40 MLOAD PUSH2 0x3AE SWAP2 SWAP1 PUSH2 0x2ADF JUMP JUMPDEST PUSH1 0x40 MLOAD DUP1 SWAP2 SUB SWAP1 RETURN JUMPDEST PUSH2 0x3D1 PUSH1 0x4 DUP1 CALLDATASIZE SUB DUP2 ADD SWAP1 PUSH2 0x3CC SWAP2 SWAP1 PUSH2 0x2678 JUMP JUMPDEST PUSH2 0xDBA JUMP JUMPDEST STOP JUMPDEST CALLVALUE DUP1 ISZERO PUSH2 0x3DF JUMPI PUSH1 0x0 DUP1 REVERT JUMPDEST POP PUSH2 0x3E8 PUSH2 0xF52 JUMP JUMPDEST PUSH1 0x40 MLOAD PUSH2 0x3F5 SWAP2 SWAP1 PUSH2 0x2ADF JUMP JUMPDEST PUSH1 0x40 MLOAD DUP1 SWAP2 SUB SWAP1 RETURN JUMPDEST CALLVALUE DUP1 ISZERO PUSH2 0x40A JUMPI PUSH1 0x0 DUP1 REVERT JUMPDEST POP PUSH2 0x413 PUSH2 0x1149 JUMP JUMPDEST PUSH1 0x40 MLOAD PUSH2 0x420 SWAP2 SWAP1 PUSH2 0x29C9 JUMP JUMPDEST PUSH1 0x40 MLOAD DUP1 SWAP2 SUB SWAP1 RETURN JUMPDEST CALLVALUE DUP1 ISZERO PUSH2 0x435 JUMPI PUSH1 0x0 DUP1 REVERT JUMPDEST POP PUSH2 0x43E PUSH2 0x116F JUMP JUMPDEST PUSH1 0x40 MLOAD PUSH2 0x44B SWAP2 SWAP1 PUSH2 0x294E JUMP JUMPDEST PUSH1 0x40 MLOAD DUP1 SWAP2 SUB SWAP1 RETURN JUMPDEST CALLVALUE DUP1 ISZERO PUSH2 0x460 JUMPI PUSH1 0x0 DUP1 REVERT JUMPDEST POP PUSH2 0x47B PUSH1 0x4 DUP1 CALLDATASIZE SUB DUP2 ADD SWAP1 PUSH2 0x476 SWAP2 SWAP1 PUSH2 0x2678 JUMP JUMPDEST PUSH2 0x1195 JUMP JUMPDEST PUSH1 0x40 MLOAD PUSH2 0x488 SWAP2 SWAP1 PUSH2 0x2ADF JUMP JUMPDEST PUSH1 0x40 MLOAD DUP1 SWAP2 SUB SWAP1 RETURN JUMPDEST CALLVALUE DUP1 ISZERO PUSH2 0x49D JUMPI PUSH1 0x0 DUP1 REVERT JUMPDEST POP PUSH2 0x4A6 PUSH2 0x11AD JUMP JUMPDEST PUSH1 0x40 MLOAD PUSH2 0x4B3 SWAP2 SWAP1 PUSH2 0x2ADF JUMP JUMPDEST PUSH1 0x40 MLOAD DUP1 SWAP2 SUB SWAP1 RETURN JUMPDEST CALLVALUE DUP1 ISZERO PUSH2 0x4C8 JUMPI PUSH1 0x0 DUP1 REVERT JUMPDEST POP PUSH2 0x4E3 PUSH1 0x4 DUP1 CALLDATASIZE SUB DUP2 ADD SWAP1 PUSH2 0x4DE SWAP2 SWAP1 PUSH2 0x2678 JUMP JUMPDEST PUSH2 0x11B3 JUMP JUMPDEST STOP JUMPDEST CALLVALUE DUP1 ISZERO PUSH2 0x4F1 JUMPI PUSH1 0x0 DUP1 REVERT JUMPDEST POP PUSH2 0x4FA PUSH2 0x11B6 JUMP JUMPDEST PUSH1 0x40 MLOAD PUSH2 0x507 SWAP2 SWAP1 PUSH2 0x2ADF JUMP JUMPDEST PUSH1 0x40 MLOAD DUP1 SWAP2 SUB SWAP1 RETURN JUMPDEST CALLVALUE DUP1 ISZERO PUSH2 0x51C JUMPI PUSH1 0x0 DUP1 REVERT JUMPDEST POP PUSH2 0x525 PUSH2 0x11BC JUMP JUMPDEST PUSH1 0x40 MLOAD PUSH2 0x532 SWAP2 SWAP1 PUSH2 0x2ADF JUMP JUMPDEST PUSH1 0x40 MLOAD DUP1 SWAP2 SUB SWAP1 RETURN JUMPDEST CALLVALUE DUP1 ISZERO PUSH2 0x547 JUMPI PUSH1 0x0 DUP1 REVERT JUMPDEST POP PUSH2 0x550 PUSH2 0x12DC JUMP JUMPDEST PUSH1 0x40 MLOAD PUSH2 0x55D SWAP2 SWAP1 PUSH2 0x2ADF JUMP JUMPDEST PUSH1 0x40 MLOAD DUP1 SWAP2 SUB SWAP1 RETURN JUMPDEST CALLVALUE DUP1 ISZERO PUSH2 0x572 JUMPI PUSH1 0x0 DUP1 REVERT JUMPDEST POP PUSH2 0x58D PUSH1 0x4 DUP1 CALLDATASIZE SUB DUP2 ADD SWAP1 PUSH2 0x588 SWAP2 SWAP1 PUSH2 0x2678 JUMP JUMPDEST PUSH2 0x12E2 JUMP JUMPDEST STOP JUMPDEST CALLVALUE DUP1 ISZERO PUSH2 0x59B JUMPI PUSH1 0x0 DUP1 REVERT JUMPDEST POP PUSH2 0x5A4 PUSH2 0x1393 JUMP JUMPDEST PUSH1 0x40 MLOAD PUSH2 0x5B1 SWAP2 SWAP1 PUSH2 0x29E4 JUMP JUMPDEST PUSH1 0x40 MLOAD DUP1 SWAP2 SUB SWAP1 RETURN JUMPDEST CALLVALUE DUP1 ISZERO PUSH2 0x5C6 JUMPI PUSH1 0x0 DUP1 REVERT JUMPDEST POP PUSH2 0x5CF PUSH2 0x13A6 JUMP JUMPDEST PUSH1 0x40 MLOAD PUSH2 0x5DC SWAP2 SWAP1 PUSH2 0x29C9 JUMP JUMPDEST PUSH1 0x40 MLOAD DUP1 SWAP2 SUB SWAP1 RETURN JUMPDEST CALLVALUE DUP1 ISZERO PUSH2 0x5F1 JUMPI PUSH1 0x0 DUP1 REVERT JUMPDEST POP PUSH2 0x5FA PUSH2 0x13CC JUMP JUMPDEST PUSH1 0x40 MLOAD PUSH2 0x607 SWAP2 SWAP1 PUSH2 0x2ADF JUMP JUMPDEST PUSH1 0x40 MLOAD DUP1 SWAP2 SUB SWAP1 RETURN JUMPDEST CALLVALUE DUP1 ISZERO PUSH2 0x61C JUMPI PUSH1 0x0 DUP1 REVERT JUMPDEST POP PUSH2 0x637 PUSH1 0x4 DUP1 CALLDATASIZE SUB DUP2 ADD SWAP1 PUSH2 0x632 SWAP2 SWAP1 PUSH2 0x26D2 JUMP JUMPDEST PUSH2 0x1483 JUMP JUMPDEST STOP JUMPDEST CALLVALUE DUP1 ISZERO PUSH2 0x645 JUMPI PUSH1 0x0 DUP1 REVERT JUMPDEST POP PUSH2 0x64E PUSH2 0x1986 JUMP JUMPDEST PUSH1 0x40 MLOAD PUSH2 0x65B SWAP2 SWAP1 PUSH2 0x2ADF JUMP JUMPDEST PUSH1 0x40 MLOAD DUP1 SWAP2 SUB SWAP1 RETURN JUMPDEST CALLVALUE DUP1 ISZERO PUSH2 0x670 JUMPI PUSH1 0x0 DUP1 REVERT JUMPDEST POP PUSH2 0x68B PUSH1 0x4 DUP1 CALLDATASIZE SUB DUP2 ADD SWAP1 PUSH2 0x686 SWAP2 SWAP1 PUSH2 0x250A JUMP JUMPDEST PUSH2 0x1AE0 JUMP JUMPDEST STOP JUMPDEST CALLVALUE DUP1 ISZERO PUSH2 0x699 JUMPI PUSH1 0x0 DUP1 REVERT JUMPDEST POP PUSH2 0x6B4 PUSH1 0x4 DUP1 CALLDATASIZE SUB DUP2 ADD SWAP1 PUSH2 0x6AF SWAP2 SWAP1 PUSH2 0x25C0 JUMP JUMPDEST PUSH2 0x1AE3 JUMP JUMPDEST PUSH1 0x40 MLOAD PUSH2 0x6C2 SWAP3 SWAP2 SWAP1 PUSH2 0x29A0 JUMP JUMPDEST PUSH1 0x40 MLOAD DUP1 SWAP2 SUB SWAP1 RETURN JUMPDEST CALLVALUE DUP1 ISZERO PUSH2 0x6D7 JUMPI PUSH1 0x0 DUP1 REVERT JUMPDEST POP PUSH2 0x6F2 PUSH1 0x4 DUP1 CALLDATASIZE SUB DUP2 ADD SWAP1 PUSH2 0x6ED SWAP2 SWAP1 PUSH2 0x2537 JUMP JUMPDEST PUSH2 0x1B3D JUMP JUMPDEST STOP JUMPDEST CALLVALUE DUP1 ISZERO PUSH2 0x700 JUMPI PUSH1 0x0 DUP1 REVERT JUMPDEST POP PUSH2 0x709 PUSH2 0x1CBE JUMP JUMPDEST PUSH1 0x40 MLOAD PUSH2 0x716 SWAP2 SWAP1 PUSH2 0x294E JUMP JUMPDEST PUSH1 0x40 MLOAD DUP1 SWAP2 SUB SWAP1 RETURN JUMPDEST CALLVALUE DUP1 ISZERO PUSH2 0x72B JUMPI PUSH1 0x0 DUP1 REVERT JUMPDEST POP PUSH2 0x734 PUSH2 0x1CE4 JUMP JUMPDEST PUSH1 0x40 MLOAD PUSH2 0x741 SWAP2 SWAP1 PUSH2 0x29C9 JUMP JUMPDEST PUSH1 0x40 MLOAD DUP1 SWAP2 SUB SWAP1 RETURN JUMPDEST PUSH2 0x764 PUSH1 0x4 DUP1 CALLDATASIZE SUB DUP2 ADD SWAP1 PUSH2 0x75F SWAP2 SWAP1 PUSH2 0x272E JUMP JUMPDEST PUSH2 0x1D0A JUMP JUMPDEST STOP JUMPDEST CALLVALUE DUP1 ISZERO PUSH2 0x772 JUMPI PUSH1 0x0 DUP1 REVERT JUMPDEST POP PUSH2 0x77B PUSH2 0x2085 JUMP JUMPDEST PUSH1 0x40 MLOAD PUSH2 0x788 SWAP2 SWAP1 PUSH2 0x2ADF JUMP JUMPDEST PUSH1 0x40 MLOAD DUP1 SWAP2 SUB SWAP1 RETURN JUMPDEST CALLVALUE DUP1 ISZERO PUSH2 0x79D JUMPI PUSH1 0x0 DUP1 REVERT JUMPDEST POP PUSH2 0x7A6 PUSH2 0x208B JUMP JUMPDEST PUSH1 0x40 MLOAD PUSH2 0x7B3 SWAP2 SWAP1 PUSH2 0x29C9 JUMP JUMPDEST PUSH1 0x40 MLOAD DUP1 SWAP2 SUB SWAP1 RETURN JUMPDEST CALLVALUE DUP1 ISZERO PUSH2 0x7C8 JUMPI PUSH1 0x0 DUP1 REVERT JUMPDEST POP PUSH2 0x7D1 PUSH2 0x20B1 JUMP JUMPDEST PUSH1 0x40 MLOAD PUSH2 0x7DE SWAP2 SWAP1 PUSH2 0x2ADF JUMP JUMPDEST PUSH1 0x40 MLOAD DUP1 SWAP2 SUB SWAP1 RETURN JUMPDEST CALLVALUE DUP1 ISZERO PUSH2 0x7F3 JUMPI PUSH1 0x0 DUP1 REVERT JUMPDEST POP PUSH2 0x80E PUSH1 0x4 DUP1 CALLDATASIZE SUB DUP2 ADD SWAP1 PUSH2 0x809 SWAP2 SWAP1 PUSH2 0x2609 JUMP JUMPDEST PUSH2 0x2114 JUMP JUMPDEST STOP JUMPDEST CALLVALUE DUP1 ISZERO PUSH2 0x81C JUMPI PUSH1 0x0 DUP1 REVERT JUMPDEST POP PUSH2 0x825 PUSH2 0x219F JUMP JUMPDEST PUSH1 0x40 MLOAD PUSH2 0x832 SWAP2 SWAP1 PUSH2 0x2ADF JUMP JUMPDEST PUSH1 0x40 MLOAD DUP1 SWAP2 SUB SWAP1 RETURN JUMPDEST CALLVALUE DUP1 ISZERO PUSH2 0x847 JUMPI PUSH1 0x0 DUP1 REVERT JUMPDEST POP PUSH2 0x850 PUSH2 0x21A5 JUMP JUMPDEST PUSH1 0x40 MLOAD PUSH2 0x85D SWAP2 SWAP1 PUSH2 0x294E JUMP JUMPDEST PUSH1 0x40 MLOAD DUP1 SWAP2 SUB SWAP1 RETURN JUMPDEST CALLVALUE DUP1 ISZERO PUSH2 0x872 JUMPI PUSH1 0x0 DUP1 REVERT JUMPDEST POP PUSH2 0x87B PUSH2 0x21CB JUMP JUMPDEST PUSH1 0x40 MLOAD PUSH2 0x888 SWAP2 SWAP1 PUSH2 0x294E JUMP JUMPDEST PUSH1 0x40 MLOAD DUP1 SWAP2 SUB SWAP1 RETURN JUMPDEST CALLVALUE DUP1 ISZERO PUSH2 0x89D JUMPI PUSH1 0x0 DUP1 REVERT JUMPDEST POP PUSH2 0x8B8 PUSH1 0x4 DUP1 CALLDATASIZE SUB DUP2 ADD SWAP1 PUSH2 0x8B3 SWAP2 SWAP1 PUSH2 0x2678 JUMP JUMPDEST PUSH2 0x21F1 JUMP JUMPDEST STOP JUMPDEST PUSH1 0x0 PUSH2 0x9D5 ADDRESS PUSH20 0xFFFFFFFFFFFFFFFFFFFFFFFFFFFFFFFFFFFFFFFF AND PUSH4 0x1F564A06 PUSH1 0x40 MLOAD DUP2 PUSH4 0xFFFFFFFF AND PUSH1 0xE0 SHL DUP2 MSTORE PUSH1 0x4 ADD PUSH1 0x20 PUSH1 0x40 MLOAD DUP1 DUP4 SUB DUP2 PUSH1 0x0 DUP8 DUP1 EXTCODESIZE ISZERO DUP1 ISZERO PUSH2 0x907 JUMPI PUSH1 0x0 DUP1 REVERT JUMPDEST POP GAS CALL ISZERO DUP1 ISZERO PUSH2 0x91B JUMPI RETURNDATASIZE PUSH1 0x0 DUP1 RETURNDATACOPY RETURNDATASIZE PUSH1 0x0 REVERT JUMPDEST POP POP POP POP PUSH1 0x40 MLOAD RETURNDATASIZE PUSH1 0x1F NOT PUSH1 0x1F DUP3 ADD AND DUP3 ADD DUP1 PUSH1 0x40 MSTORE POP DUP2 ADD SWAP1 PUSH2 0x93F SWAP2 SWAP1 PUSH2 0x26A5 JUMP JUMPDEST ADDRESS PUSH20 0xFFFFFFFFFFFFFFFFFFFFFFFFFFFFFFFFFFFFFFFF AND PUSH4 0x93F7B711 PUSH1 0x40 MLOAD DUP2 PUSH4 0xFFFFFFFF AND PUSH1 0xE0 SHL DUP2 MSTORE PUSH1 0x4 ADD PUSH1 0x20 PUSH1 0x40 MLOAD DUP1 DUP4 SUB DUP2 DUP7 DUP1 EXTCODESIZE ISZERO DUP1 ISZERO PUSH2 0x985 JUMPI PUSH1 0x0 DUP1 REVERT JUMPDEST POP GAS STATICCALL ISZERO DUP1 ISZERO PUSH2 0x999 JUMPI RETURNDATASIZE PUSH1 0x0 DUP1 RETURNDATACOPY RETURNDATASIZE PUSH1 0x0 REVERT JUMPDEST POP POP POP POP PUSH1 0x40 MLOAD RETURNDATASIZE PUSH1 0x1F NOT PUSH1 0x1F DUP3 ADD AND DUP3 ADD DUP1 PUSH1 0x40 MSTORE POP DUP2 ADD SWAP1 PUSH2 0x9BD SWAP2 SWAP1 PUSH2 0x26A5 JUMP JUMPDEST PUSH8 0x10A741A462780000 PUSH2 0x9D0 SWAP2 SWAP1 PUSH2 0x2BA0 JUMP JUMPDEST PUSH2 0x2209 JUMP JUMPDEST SWAP1 POP SWAP1 JUMP JUMPDEST PUSH1 0x9 PUSH1 0x0 SWAP1 SLOAD SWAP1 PUSH2 0x100 EXP SWAP1 DIV PUSH20 0xFFFFFFFFFFFFFFFFFFFFFFFFFFFFFFFFFFFFFFFF AND DUP2 JUMP JUMPDEST PUSH1 0x0 DUP1 PUSH1 0x0 DUP1 PUSH3 0x15180 PUSH1 0xD SLOAD PUSH2 0xA17 SWAP2 SWAP1 PUSH2 0x2BF6 JUMP JUMPDEST SWAP1 POP PUSH1 0x0 PUSH3 0x15180 PUSH1 0xC SLOAD TIMESTAMP PUSH2 0xA2D SWAP2 SWAP1 PUSH2 0x2C81 JUMP JUMPDEST PUSH2 0xA37 SWAP2 SWAP1 PUSH2 0x2BF6 JUMP JUMPDEST SWAP1 POP PUSH1 0x0 DUP1 DUP3 EQ ISZERO PUSH2 0xA5E JUMPI PUSH1 0x19 PUSH1 0x0 DUP1 DUP2 MSTORE PUSH1 0x20 ADD SWAP1 DUP2 MSTORE PUSH1 0x20 ADD PUSH1 0x0 KECCAK256 SLOAD SWAP4 POP PUSH2 0xAAA JUMP JUMPDEST DUP3 DUP3 PUSH2 0xA6A SWAP2 SWAP1 PUSH2 0x2C81 JUMP JUMPDEST SWAP1 POP JUMPDEST DUP2 DUP2 LT ISZERO PUSH2 0xAA9 JUMPI PUSH1 0x19 PUSH1 0x0 DUP3 DUP2 MSTORE PUSH1 0x20 ADD SWAP1 DUP2 MSTORE PUSH1 0x20 ADD PUSH1 0x0 KECCAK256 SLOAD DUP5 PUSH2 0xA94 SWAP2 SWAP1 PUSH2 0x2BA0 JUMP JUMPDEST SWAP4 POP DUP1 DUP1 PUSH2 0xAA1 SWAP1 PUSH2 0x2DB3 JUMP JUMPDEST SWAP2 POP POP PUSH2 0xA6D JUMP JUMPDEST JUMPDEST PUSH2 0xB31 ADDRESS PUSH20 0xFFFFFFFFFFFFFFFFFFFFFFFFFFFFFFFFFFFFFFFF AND PUSH4 0xD82EDDF2 PUSH1 0x40 MLOAD DUP2 PUSH4 0xFFFFFFFF AND PUSH1 0xE0 SHL DUP2 MSTORE PUSH1 0x4 ADD PUSH1 0x20 PUSH1 0x40 MLOAD DUP1 DUP4 SUB DUP2 DUP7 DUP1 EXTCODESIZE ISZERO DUP1 ISZERO PUSH2 0xAF3 JUMPI PUSH1 0x0 DUP1 REVERT JUMPDEST POP GAS STATICCALL ISZERO DUP1 ISZERO PUSH2 0xB07 JUMPI RETURNDATASIZE PUSH1 0x0 DUP1 RETURNDATACOPY RETURNDATASIZE PUSH1 0x0 REVERT JUMPDEST POP POP POP POP PUSH1 0x40 MLOAD RETURNDATASIZE PUSH1 0x1F NOT PUSH1 0x1F DUP3 ADD AND DUP3 ADD DUP1 PUSH1 0x40 MSTORE POP DUP2 ADD SWAP1 PUSH2 0xB2B SWAP2 SWAP1 PUSH2 0x26A5 JUMP JUMPDEST DUP6 PUSH2 0x2252 JUMP JUMPDEST SWAP5 POP PUSH8 0x429D069189E0000 DUP6 GT ISZERO PUSH2 0xB4F JUMPI PUSH8 0x429D069189E0000 SWAP5 POP JUMPDEST DUP5 SWAP6 POP POP POP POP POP POP SWAP1 JUMP JUMPDEST PUSH1 0x0 DUP1 PUSH3 0x15180 PUSH1 0xC SLOAD TIMESTAMP PUSH2 0xB6F SWAP2 SWAP1 PUSH2 0x2C81 JUMP JUMPDEST PUSH2 0xB79 SWAP2 SWAP1 PUSH2 0x2BF6 JUMP JUMPDEST SWAP1 POP PUSH1 0x0 DUP1 PUSH3 0x15180 PUSH1 0xD SLOAD PUSH2 0xB8F SWAP2 SWAP1 PUSH2 0x2BF6 JUMP JUMPDEST SWAP1 POP PUSH1 0x0 DUP2 DUP5 PUSH2 0xB9F SWAP2 SWAP1 PUSH2 0x2C81 JUMP JUMPDEST SWAP1 POP JUMPDEST DUP4 DUP2 LT ISZERO PUSH2 0xBDE JUMPI PUSH1 0x19 PUSH1 0x0 DUP3 DUP2 MSTORE PUSH1 0x20 ADD SWAP1 DUP2 MSTORE PUSH1 0x20 ADD PUSH1 0x0 KECCAK256 SLOAD DUP4 PUSH2 0xBC9 SWAP2 SWAP1 PUSH2 0x2BA0 JUMP JUMPDEST SWAP3 POP DUP1 DUP1 PUSH2 0xBD6 SWAP1 PUSH2 0x2DB3 JUMP JUMPDEST SWAP2 POP POP PUSH2 0xBA2 JUMP JUMPDEST DUP3 SWAP5 POP POP POP POP POP SWAP1 JUMP JUMPDEST PUSH1 0x1B PUSH1 0x20 MSTORE DUP1 PUSH1 0x0 MSTORE PUSH1 0x40 PUSH1 0x0 KECCAK256 PUSH1 0x0 SWAP2 POP SWAP1 POP DUP1 PUSH1 0x0 ADD SLOAD SWAP1 DUP1 PUSH1 0x1 ADD SLOAD SWAP1 POP DUP3 JUMP JUMPDEST PUSH1 0x18 PUSH1 0x20 MSTORE DUP1 PUSH1 0x0 MSTORE PUSH1 0x40 PUSH1 0x0 KECCAK256 PUSH1 0x0 SWAP2 POP SWAP1 POP SLOAD DUP2 JUMP JUMPDEST PUSH1 0x1B PUSH1 0x0 CALLER PUSH20 0xFFFFFFFFFFFFFFFFFFFFFFFFFFFFFFFFFFFFFFFF AND PUSH20 0xFFFFFFFFFFFFFFFFFFFFFFFFFFFFFFFFFFFFFFFF AND DUP2 MSTORE PUSH1 0x20 ADD SWAP1 DUP2 MSTORE PUSH1 0x20 ADD PUSH1 0x0 KECCAK256 PUSH1 0x1 ADD SLOAD DUP2 LT PUSH2 0xCA8 JUMPI PUSH1 0x40 MLOAD PUSH32 0x8C379A000000000000000000000000000000000000000000000000000000000 DUP2 MSTORE PUSH1 0x4 ADD PUSH2 0xC9F SWAP1 PUSH2 0x29FF JUMP JUMPDEST PUSH1 0x40 MLOAD DUP1 SWAP2 SUB SWAP1 REVERT JUMPDEST DUP1 PUSH1 0x1B PUSH1 0x0 CALLER PUSH20 0xFFFFFFFFFFFFFFFFFFFFFFFFFFFFFFFFFFFFFFFF AND PUSH20 0xFFFFFFFFFFFFFFFFFFFFFFFFFFFFFFFFFFFFFFFF AND DUP2 MSTORE PUSH1 0x20 ADD SWAP1 DUP2 MSTORE PUSH1 0x20 ADD PUSH1 0x0 KECCAK256 PUSH1 0x1 ADD PUSH1 0x0 DUP3 DUP3 SLOAD PUSH2 0xCFA SWAP2 SWAP1 PUSH2 0x2C81 JUMP JUMPDEST SWAP3 POP POP DUP2 SWAP1 SSTORE POP PUSH1 0x0 PUSH1 0x1B PUSH1 0x0 CALLER PUSH20 0xFFFFFFFFFFFFFFFFFFFFFFFFFFFFFFFFFFFFFFFF AND PUSH20 0xFFFFFFFFFFFFFFFFFFFFFFFFFFFFFFFFFFFFFFFF AND DUP2 MSTORE PUSH1 0x20 ADD SWAP1 DUP2 MSTORE PUSH1 0x20 ADD PUSH1 0x0 KECCAK256 PUSH1 0x1 ADD SLOAD EQ ISZERO PUSH2 0xD9F JUMPI PUSH1 0x1B PUSH1 0x0 CALLER PUSH20 0xFFFFFFFFFFFFFFFFFFFFFFFFFFFFFFFFFFFFFFFF AND PUSH20 0xFFFFFFFFFFFFFFFFFFFFFFFFFFFFFFFFFFFFFFFF AND DUP2 MSTORE PUSH1 0x20 ADD SWAP1 DUP2 MSTORE PUSH1 0x20 ADD PUSH1 0x0 KECCAK256 PUSH1 0x0 DUP1 DUP3 ADD PUSH1 0x0 SWAP1 SSTORE PUSH1 0x1 DUP3 ADD PUSH1 0x0 SWAP1 SSTORE POP POP JUMPDEST POP JUMP JUMPDEST PUSH1 0x19 PUSH1 0x20 MSTORE DUP1 PUSH1 0x0 MSTORE PUSH1 0x40 PUSH1 0x0 KECCAK256 PUSH1 0x0 SWAP2 POP SWAP1 POP SLOAD DUP2 JUMP JUMPDEST PUSH1 0x0 PUSH1 0x13 PUSH1 0x0 SWAP1 SLOAD SWAP1 PUSH2 0x100 EXP SWAP1 DIV PUSH20 0xFFFFFFFFFFFFFFFFFFFFFFFFFFFFFFFFFFFFFFFF AND PUSH20 0xFFFFFFFFFFFFFFFFFFFFFFFFFFFFFFFFFFFFFFFF AND PUSH4 0x70A08231 CALLER PUSH1 0x40 MLOAD DUP3 PUSH4 0xFFFFFFFF AND PUSH1 0xE0 SHL DUP2 MSTORE PUSH1 0x4 ADD PUSH2 0xE17 SWAP2 SWAP1 PUSH2 0x294E JUMP JUMPDEST PUSH1 0x20 PUSH1 0x40 MLOAD DUP1 DUP4 SUB DUP2 DUP7 DUP1 EXTCODESIZE ISZERO DUP1 ISZERO PUSH2 0xE2F JUMPI PUSH1 0x0 DUP1 REVERT JUMPDEST POP GAS STATICCALL ISZERO DUP1 ISZERO PUSH2 0xE43 JUMPI RETURNDATASIZE PUSH1 0x0 DUP1 RETURNDATACOPY RETURNDATASIZE PUSH1 0x0 REVERT JUMPDEST POP POP POP POP PUSH1 0x40 MLOAD RETURNDATASIZE PUSH1 0x1F NOT PUSH1 0x1F DUP3 ADD AND DUP3 ADD DUP1 PUSH1 0x40 MSTORE POP DUP2 ADD SWAP1 PUSH2 0xE67 SWAP2 SWAP1 PUSH2 0x26A5 JUMP JUMPDEST SWAP1 POP DUP2 DUP2 GT PUSH2 0xEAB JUMPI PUSH1 0x40 MLOAD PUSH32 0x8C379A000000000000000000000000000000000000000000000000000000000 DUP2 MSTORE PUSH1 0x4 ADD PUSH2 0xEA2 SWAP1 PUSH2 0x2A3F JUMP JUMPDEST PUSH1 0x40 MLOAD DUP1 SWAP2 SUB SWAP1 REVERT JUMPDEST PUSH2 0xED9 PUSH1 0x13 PUSH1 0x0 SWAP1 SLOAD SWAP1 PUSH2 0x100 EXP SWAP1 DIV PUSH20 0xFFFFFFFFFFFFFFFFFFFFFFFFFFFFFFFFFFFFFFFF AND CALLER ADDRESS DUP6 PUSH2 0x2293 JUMP JUMPDEST PUSH1 0x0 PUSH3 0x15180 PUSH1 0xC SLOAD TIMESTAMP PUSH2 0xEED SWAP2 SWAP1 PUSH2 0x2C81 JUMP JUMPDEST PUSH2 0xEF7 SWAP2 SWAP1 PUSH2 0x2BF6 JUMP JUMPDEST SWAP1 POP DUP3 PUSH1 0x18 PUSH1 0x0 DUP4 DUP2 MSTORE PUSH1 0x20 ADD SWAP1 DUP2 MSTORE PUSH1 0x20 ADD PUSH1 0x0 KECCAK256 PUSH1 0x0 DUP3 DUP3 SLOAD PUSH2 0xF1C SWAP2 SWAP1 PUSH2 0x2BA0 JUMP JUMPDEST SWAP3 POP POP DUP2 SWAP1 SSTORE POP DUP3 PUSH1 0x19 PUSH1 0x0 DUP4 DUP2 MSTORE PUSH1 0x20 ADD SWAP1 DUP2 MSTORE PUSH1 0x20 ADD PUSH1 0x0 KECCAK256 PUSH1 0x0 DUP3 DUP3 SLOAD PUSH2 0xF46 SWAP2 SWAP1 PUSH2 0x2C81 JUMP JUMPDEST SWAP3 POP POP DUP2 SWAP1 SSTORE POP POP POP POP JUMP JUMPDEST PUSH1 0x0 PUSH1 0x1A PUSH1 0x40 MLOAD PUSH2 0xF62 SWAP1 PUSH2 0x2939 JUMP JUMPDEST SWAP1 DUP2 MSTORE PUSH1 0x20 ADD PUSH1 0x40 MLOAD DUP1 SWAP2 SUB SWAP1 KECCAK256 PUSH1 0x0 ADD PUSH1 0x0 SWAP1 SLOAD SWAP1 PUSH2 0x100 EXP SWAP1 DIV PUSH20 0xFFFFFFFFFFFFFFFFFFFFFFFFFFFFFFFFFFFFFFFF AND PUSH1 0x16 PUSH1 0x0 PUSH2 0x100 EXP DUP2 SLOAD DUP2 PUSH20 0xFFFFFFFFFFFFFFFFFFFFFFFFFFFFFFFFFFFFFFFF MUL NOT AND SWAP1 DUP4 PUSH20 0xFFFFFFFFFFFFFFFFFFFFFFFFFFFFFFFFFFFFFFFF AND MUL OR SWAP1 SSTORE POP PUSH1 0x16 PUSH1 0x0 SWAP1 SLOAD SWAP1 PUSH2 0x100 EXP SWAP1 DIV PUSH20 0xFFFFFFFFFFFFFFFFFFFFFFFFFFFFFFFFFFFFFFFF AND PUSH20 0xFFFFFFFFFFFFFFFFFFFFFFFFFFFFFFFFFFFFFFFF AND PUSH4 0x70A08231 PUSH20 0x4B20993BC481177EC7E8F571CECAE8A9E22C02DB PUSH1 0x40 MLOAD DUP3 PUSH4 0xFFFFFFFF AND PUSH1 0xE0 SHL DUP2 MSTORE PUSH1 0x4 ADD PUSH2 0x1043 SWAP2 SWAP1 PUSH2 0x294E JUMP JUMPDEST PUSH1 0x20 PUSH1 0x40 MLOAD DUP1 DUP4 SUB DUP2 DUP7 DUP1 EXTCODESIZE ISZERO DUP1 ISZERO PUSH2 0x105B JUMPI PUSH1 0x0 DUP1 REVERT JUMPDEST POP GAS STATICCALL ISZERO DUP1 ISZERO PUSH2 0x106F JUMPI RETURNDATASIZE PUSH1 0x0 DUP1 RETURNDATACOPY RETURNDATASIZE PUSH1 0x0 REVERT JUMPDEST POP POP POP POP PUSH1 0x40 MLOAD RETURNDATASIZE PUSH1 0x1F NOT PUSH1 0x1F DUP3 ADD AND DUP3 ADD DUP1 PUSH1 0x40 MSTORE POP DUP2 ADD SWAP1 PUSH2 0x1093 SWAP2 SWAP1 PUSH2 0x26A5 JUMP JUMPDEST PUSH1 0xB DUP2 SWAP1 SSTORE POP PUSH2 0x1144 PUSH1 0xB SLOAD PUSH1 0x13 PUSH1 0x0 SWAP1 SLOAD SWAP1 PUSH2 0x100 EXP SWAP1 DIV PUSH20 0xFFFFFFFFFFFFFFFFFFFFFFFFFFFFFFFFFFFFFFFF AND PUSH20 0xFFFFFFFFFFFFFFFFFFFFFFFFFFFFFFFFFFFFFFFF AND PUSH4 0x18160DDD PUSH1 0x40 MLOAD DUP2 PUSH4 0xFFFFFFFF AND PUSH1 0xE0 SHL DUP2 MSTORE PUSH1 0x4 ADD PUSH1 0x20 PUSH1 0x40 MLOAD DUP1 DUP4 SUB DUP2 DUP7 DUP1 EXTCODESIZE ISZERO DUP1 ISZERO PUSH2 0x1107 JUMPI PUSH1 0x0 DUP1 REVERT JUMPDEST POP GAS STATICCALL ISZERO DUP1 ISZERO PUSH2 0x111B JUMPI RETURNDATASIZE PUSH1 0x0 DUP1 RETURNDATACOPY RETURNDATASIZE PUSH1 0x0 REVERT JUMPDEST POP POP POP POP PUSH1 0x40 MLOAD RETURNDATASIZE PUSH1 0x1F NOT PUSH1 0x1F DUP3 ADD AND DUP3 ADD DUP1 PUSH1 0x40 MSTORE POP DUP2 ADD SWAP1 PUSH2 0x113F SWAP2 SWAP1 PUSH2 0x26A5 JUMP JUMPDEST PUSH2 0x2252 JUMP JUMPDEST SWAP1 POP SWAP1 JUMP JUMPDEST PUSH1 0x13 PUSH1 0x0 SWAP1 SLOAD SWAP1 PUSH2 0x100 EXP SWAP1 DIV PUSH20 0xFFFFFFFFFFFFFFFFFFFFFFFFFFFFFFFFFFFFFFFF AND DUP2 JUMP JUMPDEST PUSH1 0xA PUSH1 0x0 SWAP1 SLOAD SWAP1 PUSH2 0x100 EXP SWAP1 DIV PUSH20 0xFFFFFFFFFFFFFFFFFFFFFFFFFFFFFFFFFFFFFFFF AND DUP2 JUMP JUMPDEST PUSH1 0x17 PUSH1 0x20 MSTORE DUP1 PUSH1 0x0 MSTORE PUSH1 0x40 PUSH1 0x0 KECCAK256 PUSH1 0x0 SWAP2 POP SWAP1 POP SLOAD DUP2 JUMP JUMPDEST PUSH1 0xB SLOAD DUP2 JUMP JUMPDEST POP JUMP JUMPDEST PUSH1 0xC SLOAD DUP2 JUMP JUMPDEST PUSH1 0x0 PUSH2 0x12D7 ADDRESS PUSH20 0xFFFFFFFFFFFFFFFFFFFFFFFFFFFFFFFFFFFFFFFF AND PUSH4 0x1F564A06 PUSH1 0x40 MLOAD DUP2 PUSH4 0xFFFFFFFF AND PUSH1 0xE0 SHL DUP2 MSTORE PUSH1 0x4 ADD PUSH1 0x20 PUSH1 0x40 MLOAD DUP1 DUP4 SUB DUP2 PUSH1 0x0 DUP8 DUP1 EXTCODESIZE ISZERO DUP1 ISZERO PUSH2 0x1209 JUMPI PUSH1 0x0 DUP1 REVERT JUMPDEST POP GAS CALL ISZERO DUP1 ISZERO PUSH2 0x121D JUMPI RETURNDATASIZE PUSH1 0x0 DUP1 RETURNDATACOPY RETURNDATASIZE PUSH1 0x0 REVERT JUMPDEST POP POP POP POP PUSH1 0x40 MLOAD RETURNDATASIZE PUSH1 0x1F NOT PUSH1 0x1F DUP3 ADD AND DUP3 ADD DUP1 PUSH1 0x40 MSTORE POP DUP2 ADD SWAP1 PUSH2 0x1241 SWAP2 SWAP1 PUSH2 0x26A5 JUMP JUMPDEST ADDRESS PUSH20 0xFFFFFFFFFFFFFFFFFFFFFFFFFFFFFFFFFFFFFFFF AND PUSH4 0xCCAF04F PUSH1 0x40 MLOAD DUP2 PUSH4 0xFFFFFFFF AND PUSH1 0xE0 SHL DUP2 MSTORE PUSH1 0x4 ADD PUSH1 0x20 PUSH1 0x40 MLOAD DUP1 DUP4 SUB DUP2 DUP7 DUP1 EXTCODESIZE ISZERO DUP1 ISZERO PUSH2 0x1287 JUMPI PUSH1 0x0 DUP1 REVERT JUMPDEST POP GAS STATICCALL ISZERO DUP1 ISZERO PUSH2 0x129B JUMPI RETURNDATASIZE PUSH1 0x0 DUP1 RETURNDATACOPY RETURNDATASIZE PUSH1 0x0 REVERT JUMPDEST POP POP POP POP PUSH1 0x40 MLOAD RETURNDATASIZE PUSH1 0x1F NOT PUSH1 0x1F DUP3 ADD AND DUP3 ADD DUP1 PUSH1 0x40 MSTORE POP DUP2 ADD SWAP1 PUSH2 0x12BF SWAP2 SWAP1 PUSH2 0x26A5 JUMP JUMPDEST PUSH8 0xC7D713B49DA0000 PUSH2 0x12D2 SWAP2 SWAP1 PUSH2 0x2C81 JUMP JUMPDEST PUSH2 0x2209 JUMP JUMPDEST SWAP1 POP SWAP1 JUMP JUMPDEST PUSH1 0xD SLOAD DUP2 JUMP JUMPDEST PUSH3 0xD2F00 TIMESTAMP PUSH2 0x12F1 SWAP2 SWAP1 PUSH2 0x2BA0 JUMP JUMPDEST PUSH1 0x1B PUSH1 0x0 CALLER PUSH20 0xFFFFFFFFFFFFFFFFFFFFFFFFFFFFFFFFFFFFFFFF AND PUSH20 0xFFFFFFFFFFFFFFFFFFFFFFFFFFFFFFFFFFFFFFFF AND DUP2 MSTORE PUSH1 0x20 ADD SWAP1 DUP2 MSTORE PUSH1 0x20 ADD PUSH1 0x0 KECCAK256 PUSH1 0x0 ADD DUP2 SWAP1 SSTORE POP DUP1 PUSH1 0x1B PUSH1 0x0 CALLER PUSH20 0xFFFFFFFFFFFFFFFFFFFFFFFFFFFFFFFFFFFFFFFF AND PUSH20 0xFFFFFFFFFFFFFFFFFFFFFFFFFFFFFFFFFFFFFFFF AND DUP2 MSTORE PUSH1 0x20 ADD SWAP1 DUP2 MSTORE PUSH1 0x20 ADD PUSH1 0x0 KECCAK256 PUSH1 0x1 ADD PUSH1 0x0 DUP3 DUP3 SLOAD PUSH2 0x1389 SWAP2 SWAP1 PUSH2 0x2BA0 JUMP JUMPDEST SWAP3 POP POP DUP2 SWAP1 SSTORE POP POP JUMP JUMPDEST PUSH1 0x11 PUSH1 0x0 SWAP1 SLOAD SWAP1 PUSH2 0x100 EXP SWAP1 DIV PUSH1 0xF SIGNEXTEND DUP2 JUMP JUMPDEST PUSH1 0x16 PUSH1 0x0 SWAP1 SLOAD SWAP1 PUSH2 0x100 EXP SWAP1 DIV PUSH20 0xFFFFFFFFFFFFFFFFFFFFFFFFFFFFFFFFFFFFFFFF AND DUP2 JUMP JUMPDEST PUSH1 0x0 DUP1 PUSH1 0x0 DUP1 PUSH3 0x15180 PUSH1 0xD SLOAD PUSH2 0x13E3 SWAP2 SWAP1 PUSH2 0x2BF6 JUMP JUMPDEST SWAP1 POP PUSH1 0x0 PUSH3 0x15180 PUSH1 0xC SLOAD TIMESTAMP PUSH2 0x13F9 SWAP2 SWAP1 PUSH2 0x2C81 JUMP JUMPDEST PUSH2 0x1403 SWAP2 SWAP1 PUSH2 0x2BF6 JUMP JUMPDEST SWAP1 POP PUSH1 0x0 DUP2 EQ ISZERO PUSH2 0x142D JUMPI PUSH1 0x17 PUSH1 0x0 DUP1 DUP2 MSTORE PUSH1 0x20 ADD SWAP1 DUP2 MSTORE PUSH1 0x20 ADD PUSH1 0x0 KECCAK256 SLOAD SWAP5 POP POP POP POP POP PUSH2 0x1480 JUMP JUMPDEST DUP2 DUP2 PUSH2 0x1439 SWAP2 SWAP1 PUSH2 0x2C81 JUMP JUMPDEST SWAP3 POP JUMPDEST DUP1 DUP4 LT ISZERO PUSH2 0x1478 JUMPI PUSH1 0x17 PUSH1 0x0 DUP5 DUP2 MSTORE PUSH1 0x20 ADD SWAP1 DUP2 MSTORE PUSH1 0x20 ADD PUSH1 0x0 KECCAK256 SLOAD DUP5 PUSH2 0x1463 SWAP2 SWAP1 PUSH2 0x2BA0 JUMP JUMPDEST SWAP4 POP DUP3 DUP1 PUSH2 0x1470 SWAP1 PUSH2 0x2DB3 JUMP JUMPDEST SWAP4 POP POP PUSH2 0x143C JUMP JUMPDEST DUP4 SWAP5 POP POP POP POP POP JUMPDEST SWAP1 JUMP JUMPDEST PUSH1 0x2 PUSH1 0x0 SLOAD EQ ISZERO PUSH2 0x14C9 JUMPI PUSH1 0x40 MLOAD PUSH32 0x8C379A000000000000000000000000000000000000000000000000000000000 DUP2 MSTORE PUSH1 0x4 ADD PUSH2 0x14C0 SWAP1 PUSH2 0x2A9F JUMP JUMPDEST PUSH1 0x40 MLOAD DUP1 SWAP2 SUB SWAP1 REVERT JUMPDEST PUSH1 0x2 PUSH1 0x0 DUP2 SWAP1 SSTORE POP PUSH1 0x1A DUP2 PUSH1 0x40 MLOAD PUSH2 0x14E1 SWAP2 SWAP1 PUSH2 0x2922 JUMP JUMPDEST SWAP1 DUP2 MSTORE PUSH1 0x20 ADD PUSH1 0x40 MLOAD DUP1 SWAP2 SUB SWAP1 KECCAK256 PUSH1 0x0 ADD PUSH1 0x0 SWAP1 SLOAD SWAP1 PUSH2 0x100 EXP SWAP1 DIV PUSH20 0xFFFFFFFFFFFFFFFFFFFFFFFFFFFFFFFFFFFFFFFF AND PUSH1 0x16 PUSH1 0x0 PUSH2 0x100 EXP DUP2 SLOAD DUP2 PUSH20 0xFFFFFFFFFFFFFFFFFFFFFFFFFFFFFFFFFFFFFFFF MUL NOT AND SWAP1 DUP4 PUSH20 0xFFFFFFFFFFFFFFFFFFFFFFFFFFFFFFFFFFFFFFFF AND MUL OR SWAP1 SSTORE POP PUSH3 0x3D090 DUP3 GT ISZERO PUSH2 0x1599 JUMPI PUSH1 0x40 MLOAD PUSH32 0x8C379A000000000000000000000000000000000000000000000000000000000 DUP2 MSTORE PUSH1 0x4 ADD PUSH2 0x1590 SWAP1 PUSH2 0x2A5F JUMP JUMPDEST PUSH1 0x40 MLOAD DUP1 SWAP2 SUB SWAP1 REVERT JUMPDEST PUSH1 0x0 PUSH1 0x16 PUSH1 0x0 SWAP1 SLOAD SWAP1 PUSH2 0x100 EXP SWAP1 DIV PUSH20 0xFFFFFFFFFFFFFFFFFFFFFFFFFFFFFFFFFFFFFFFF AND PUSH20 0xFFFFFFFFFFFFFFFFFFFFFFFFFFFFFFFFFFFFFFFF AND PUSH4 0x70A08231 CALLER PUSH1 0x40 MLOAD DUP3 PUSH4 0xFFFFFFFF AND PUSH1 0xE0 SHL DUP2 MSTORE PUSH1 0x4 ADD PUSH2 0x15F6 SWAP2 SWAP1 PUSH2 0x294E JUMP JUMPDEST PUSH1 0x20 PUSH1 0x40 MLOAD DUP1 DUP4 SUB DUP2 DUP7 DUP1 EXTCODESIZE ISZERO DUP1 ISZERO PUSH2 0x160E JUMPI PUSH1 0x0 DUP1 REVERT JUMPDEST POP GAS STATICCALL ISZERO DUP1 ISZERO PUSH2 0x1622 JUMPI RETURNDATASIZE PUSH1 0x0 DUP1 RETURNDATACOPY RETURNDATASIZE PUSH1 0x0 REVERT JUMPDEST POP POP POP POP PUSH1 0x40 MLOAD RETURNDATASIZE PUSH1 0x1F NOT PUSH1 0x1F DUP3 ADD AND DUP3 ADD DUP1 PUSH1 0x40 MSTORE POP DUP2 ADD SWAP1 PUSH2 0x1646 SWAP2 SWAP1 PUSH2 0x26A5 JUMP JUMPDEST SWAP1 POP DUP3 DUP2 GT PUSH2 0x168A JUMPI PUSH1 0x40 MLOAD PUSH32 0x8C379A000000000000000000000000000000000000000000000000000000000 DUP2 MSTORE PUSH1 0x4 ADD PUSH2 0x1681 SWAP1 PUSH2 0x2A3F JUMP JUMPDEST PUSH1 0x40 MLOAD DUP1 SWAP2 SUB SWAP1 REVERT JUMPDEST PUSH1 0x0 PUSH1 0x1A DUP4 PUSH1 0x40 MLOAD PUSH2 0x169C SWAP2 SWAP1 PUSH2 0x2922 JUMP JUMPDEST SWAP1 DUP2 MSTORE PUSH1 0x20 ADD PUSH1 0x40 MLOAD DUP1 SWAP2 SUB SWAP1 KECCAK256 PUSH1 0x1 ADD SLOAD PUSH2 0x1737 DUP6 ADDRESS PUSH20 0xFFFFFFFFFFFFFFFFFFFFFFFFFFFFFFFFFFFFFFFF AND PUSH4 0x18A25E8 PUSH1 0x40 MLOAD DUP2 PUSH4 0xFFFFFFFF AND PUSH1 0xE0 SHL DUP2 MSTORE PUSH1 0x4 ADD PUSH1 0x20 PUSH1 0x40 MLOAD DUP1 DUP4 SUB DUP2 PUSH1 0x0 DUP8 DUP1 EXTCODESIZE ISZERO DUP1 ISZERO PUSH2 0x16FA JUMPI PUSH1 0x0 DUP1 REVERT JUMPDEST POP GAS CALL ISZERO DUP1 ISZERO PUSH2 0x170E JUMPI RETURNDATASIZE PUSH1 0x0 DUP1 RETURNDATACOPY RETURNDATASIZE PUSH1 0x0 REVERT JUMPDEST POP POP POP POP PUSH1 0x40 MLOAD RETURNDATASIZE PUSH1 0x1F NOT PUSH1 0x1F DUP3 ADD AND DUP3 ADD DUP1 PUSH1 0x40 MSTORE POP DUP2 ADD SWAP1 PUSH2 0x1732 SWAP2 SWAP1 PUSH2 0x26A5 JUMP JUMPDEST PUSH2 0x2209 JUMP JUMPDEST PUSH2 0x1741 SWAP2 SWAP1 PUSH2 0x2C27 JUMP JUMPDEST SWAP1 POP PUSH2 0x1771 PUSH1 0x16 PUSH1 0x0 SWAP1 SLOAD SWAP1 PUSH2 0x100 EXP SWAP1 DIV PUSH20 0xFFFFFFFFFFFFFFFFFFFFFFFFFFFFFFFFFFFFFFFF AND CALLER ADDRESS DUP5 PUSH2 0x2293 JUMP JUMPDEST PUSH1 0x13 PUSH1 0x0 SWAP1 SLOAD SWAP1 PUSH2 0x100 EXP SWAP1 DIV PUSH20 0xFFFFFFFFFFFFFFFFFFFFFFFFFFFFFFFFFFFFFFFF AND PUSH20 0xFFFFFFFFFFFFFFFFFFFFFFFFFFFFFFFFFFFFFFFF AND PUSH4 0x40C10F19 CALLER PUSH8 0xDE0B6B3A7640000 DUP8 PUSH2 0x17C4 SWAP2 SWAP1 PUSH2 0x2C27 JUMP JUMPDEST PUSH1 0x40 MLOAD DUP4 PUSH4 0xFFFFFFFF AND PUSH1 0xE0 SHL DUP2 MSTORE PUSH1 0x4 ADD PUSH2 0x17E1 SWAP3 SWAP2 SWAP1 PUSH2 0x29A0 JUMP JUMPDEST PUSH1 0x0 PUSH1 0x40 MLOAD DUP1 DUP4 SUB DUP2 PUSH1 0x0 DUP8 DUP1 EXTCODESIZE ISZERO DUP1 ISZERO PUSH2 0x17FB JUMPI PUSH1 0x0 DUP1 REVERT JUMPDEST POP GAS CALL ISZERO DUP1 ISZERO PUSH2 0x180F JUMPI RETURNDATASIZE PUSH1 0x0 DUP1 RETURNDATACOPY RETURNDATASIZE PUSH1 0x0 REVERT JUMPDEST POP POP POP POP PUSH1 0x14 PUSH1 0x0 SWAP1 SLOAD SWAP1 PUSH2 0x100 EXP SWAP1 DIV PUSH20 0xFFFFFFFFFFFFFFFFFFFFFFFFFFFFFFFFFFFFFFFF AND PUSH20 0xFFFFFFFFFFFFFFFFFFFFFFFFFFFFFFFFFFFFFFFF AND PUSH4 0x40C10F19 ADDRESS PUSH8 0xDE0B6B3A7640000 DUP8 PUSH2 0x1866 SWAP2 SWAP1 PUSH2 0x2C27 JUMP JUMPDEST PUSH1 0x40 MLOAD DUP4 PUSH4 0xFFFFFFFF AND PUSH1 0xE0 SHL DUP2 MSTORE PUSH1 0x4 ADD PUSH2 0x1883 SWAP3 SWAP2 SWAP1 PUSH2 0x29A0 JUMP JUMPDEST PUSH1 0x0 PUSH1 0x40 MLOAD DUP1 DUP4 SUB DUP2 PUSH1 0x0 DUP8 DUP1 EXTCODESIZE ISZERO DUP1 ISZERO PUSH2 0x189D JUMPI PUSH1 0x0 DUP1 REVERT JUMPDEST POP GAS CALL ISZERO DUP1 ISZERO PUSH2 0x18B1 JUMPI RETURNDATASIZE PUSH1 0x0 DUP1 RETURNDATACOPY RETURNDATASIZE PUSH1 0x0 REVERT JUMPDEST POP POP POP POP PUSH1 0x0 PUSH3 0x15180 PUSH1 0xC SLOAD TIMESTAMP PUSH2 0x18C9 SWAP2 SWAP1 PUSH2 0x2C81 JUMP JUMPDEST PUSH2 0x18D3 SWAP2 SWAP1 PUSH2 0x2BF6 JUMP JUMPDEST SWAP1 POP DUP5 PUSH1 0x17 PUSH1 0x0 DUP4 DUP2 MSTORE PUSH1 0x20 ADD SWAP1 DUP2 MSTORE PUSH1 0x20 ADD PUSH1 0x0 KECCAK256 PUSH1 0x0 DUP3 DUP3 SLOAD PUSH2 0x18F8 SWAP2 SWAP1 PUSH2 0x2BA0 JUMP JUMPDEST SWAP3 POP POP DUP2 SWAP1 SSTORE POP DUP5 PUSH1 0x19 PUSH1 0x0 DUP4 DUP2 MSTORE PUSH1 0x20 ADD SWAP1 DUP2 MSTORE PUSH1 0x20 ADD PUSH1 0x0 KECCAK256 PUSH1 0x0 DUP3 DUP3 SLOAD PUSH2 0x1922 SWAP2 SWAP1 PUSH2 0x2BA0 JUMP JUMPDEST SWAP3 POP POP DUP2 SWAP1 SSTORE POP CALLER PUSH20 0xFFFFFFFFFFFFFFFFFFFFFFFFFFFFFFFFFFFFFFFF AND PUSH32 0xF633443B01504D269657083D48BB6DE98E089CFFF672B47FEFBED21608B5C779 DUP7 PUSH1 0x40 MLOAD PUSH2 0x196F SWAP2 SWAP1 PUSH2 0x2ADF JUMP JUMPDEST PUSH1 0x40 MLOAD DUP1 SWAP2 SUB SWAP1 LOG2 POP POP POP PUSH1 0x1 PUSH1 0x0 DUP2 SWAP1 SSTORE POP POP POP JUMP JUMPDEST PUSH1 0x0 DUP1 PUSH1 0x0 DUP1 PUSH3 0x15180 PUSH1 0xD SLOAD PUSH2 0x199D SWAP2 SWAP1 PUSH2 0x2BF6 JUMP JUMPDEST SWAP1 POP PUSH1 0x0 PUSH3 0x15180 PUSH1 0xC SLOAD TIMESTAMP PUSH2 0x19B3 SWAP2 SWAP1 PUSH2 0x2C81 JUMP JUMPDEST PUSH2 0x19BD SWAP2 SWAP1 PUSH2 0x2BF6 JUMP JUMPDEST SWAP1 POP PUSH1 0x0 DUP1 DUP3 EQ ISZERO PUSH2 0x19E4 JUMPI PUSH1 0x19 PUSH1 0x0 DUP1 DUP2 MSTORE PUSH1 0x20 ADD SWAP1 DUP2 MSTORE PUSH1 0x20 ADD PUSH1 0x0 KECCAK256 SLOAD SWAP4 POP PUSH2 0x1A30 JUMP JUMPDEST DUP3 DUP3 PUSH2 0x19F0 SWAP2 SWAP1 PUSH2 0x2C81 JUMP JUMPDEST SWAP1 POP JUMPDEST DUP2 DUP2 LT ISZERO PUSH2 0x1A2F JUMPI PUSH1 0x19 PUSH1 0x0 DUP3 DUP2 MSTORE PUSH1 0x20 ADD SWAP1 DUP2 MSTORE PUSH1 0x20 ADD PUSH1 0x0 KECCAK256 SLOAD DUP5 PUSH2 0x1A1A SWAP2 SWAP1 PUSH2 0x2BA0 JUMP JUMPDEST SWAP4 POP DUP1 DUP1 PUSH2 0x1A27 SWAP1 PUSH2 0x2DB3 JUMP JUMPDEST SWAP2 POP POP PUSH2 0x19F3 JUMP JUMPDEST JUMPDEST PUSH2 0x1AB7 ADDRESS PUSH20 0xFFFFFFFFFFFFFFFFFFFFFFFFFFFFFFFFFFFFFFFF AND PUSH4 0x71CD58F9 PUSH1 0x40 MLOAD DUP2 PUSH4 0xFFFFFFFF AND PUSH1 0xE0 SHL DUP2 MSTORE PUSH1 0x4 ADD PUSH1 0x20 PUSH1 0x40 MLOAD DUP1 DUP4 SUB DUP2 DUP7 DUP1 EXTCODESIZE ISZERO DUP1 ISZERO PUSH2 0x1A79 JUMPI PUSH1 0x0 DUP1 REVERT JUMPDEST POP GAS STATICCALL ISZERO DUP1 ISZERO PUSH2 0x1A8D JUMPI RETURNDATASIZE PUSH1 0x0 DUP1 RETURNDATACOPY RETURNDATASIZE PUSH1 0x0 REVERT JUMPDEST POP POP POP POP PUSH1 0x40 MLOAD RETURNDATASIZE PUSH1 0x1F NOT PUSH1 0x1F DUP3 ADD AND DUP3 ADD DUP1 PUSH1 0x40 MSTORE POP DUP2 ADD SWAP1 PUSH2 0x1AB1 SWAP2 SWAP1 PUSH2 0x26A5 JUMP JUMPDEST DUP6 PUSH2 0x2252 JUMP JUMPDEST SWAP5 POP PUSH8 0x429D069189E0000 DUP6 GT ISZERO PUSH2 0x1AD5 JUMPI PUSH8 0x429D069189E0000 SWAP5 POP JUMPDEST DUP5 SWAP6 POP POP POP POP POP POP SWAP1 JUMP JUMPDEST POP JUMP JUMPDEST PUSH1 0x1A DUP2 DUP1 MLOAD PUSH1 0x20 DUP2 ADD DUP3 ADD DUP1 MLOAD DUP5 DUP3 MSTORE PUSH1 0x20 DUP4 ADD PUSH1 0x20 DUP6 ADD KECCAK256 DUP2 DUP4 MSTORE DUP1 SWAP6 POP POP POP POP POP POP PUSH1 0x0 SWAP2 POP SWAP1 POP DUP1 PUSH1 0x0 ADD PUSH1 0x0 SWAP1 SLOAD SWAP1 PUSH2 0x100 EXP SWAP1 DIV PUSH20 0xFFFFFFFFFFFFFFFFFFFFFFFFFFFFFFFFFFFFFFFF AND SWAP1 DUP1 PUSH1 0x1 ADD SLOAD SWAP1 POP DUP3 JUMP JUMPDEST PUSH1 0x1B PUSH1 0x0 DUP4 PUSH20 0xFFFFFFFFFFFFFFFFFFFFFFFFFFFFFFFFFFFFFFFF AND PUSH20 0xFFFFFFFFFFFFFFFFFFFFFFFFFFFFFFFFFFFFFFFF AND DUP2 MSTORE PUSH1 0x20 ADD SWAP1 DUP2 MSTORE PUSH1 0x20 ADD PUSH1 0x0 KECCAK256 PUSH1 0x0 ADD SLOAD TIMESTAMP LT ISZERO PUSH2 0x1BC2 JUMPI PUSH1 0x40 MLOAD PUSH32 0x8C379A000000000000000000000000000000000000000000000000000000000 DUP2 MSTORE PUSH1 0x4 ADD PUSH2 0x1BB9 SWAP1 PUSH2 0x2A7F JUMP JUMPDEST PUSH1 0x40 MLOAD DUP1 SWAP2 SUB SWAP1 REVERT JUMPDEST PUSH1 0x1A DUP2 PUSH1 0x40 MLOAD PUSH2 0x1BD2 SWAP2 SWAP1 PUSH2 0x2922 JUMP JUMPDEST SWAP1 DUP2 MSTORE PUSH1 0x20 ADD PUSH1 0x40 MLOAD DUP1 SWAP2 SUB SWAP1 KECCAK256 PUSH1 0x0 ADD PUSH1 0x0 SWAP1 SLOAD SWAP1 PUSH2 0x100 EXP SWAP1 DIV PUSH20 0xFFFFFFFFFFFFFFFFFFFFFFFFFFFFFFFFFFFFFFFF AND PUSH1 0x16 PUSH1 0x0 PUSH2 0x100 EXP DUP2 SLOAD DUP2 PUSH20 0xFFFFFFFFFFFFFFFFFFFFFFFFFFFFFFFFFFFFFFFF MUL NOT AND SWAP1 DUP4 PUSH20 0xFFFFFFFFFFFFFFFFFFFFFFFFFFFFFFFFFFFFFFFF AND MUL OR SWAP1 SSTORE POP PUSH1 0x0 PUSH1 0x1B PUSH1 0x0 DUP5 PUSH20 0xFFFFFFFFFFFFFFFFFFFFFFFFFFFFFFFFFFFFFFFF AND PUSH20 0xFFFFFFFFFFFFFFFFFFFFFFFFFFFFFFFFFFFFFFFF AND DUP2 MSTORE PUSH1 0x20 ADD SWAP1 DUP2 MSTORE PUSH1 0x20 ADD PUSH1 0x0 KECCAK256 PUSH1 0x1 ADD SLOAD SWAP1 POP PUSH2 0x1CB9 PUSH1 0x16 PUSH1 0x0 SWAP1 SLOAD SWAP1 PUSH2 0x100 EXP SWAP1 DIV PUSH20 0xFFFFFFFFFFFFFFFFFFFFFFFFFFFFFFFFFFFFFFFF AND ADDRESS CALLER DUP5 PUSH2 0x2293 JUMP JUMPDEST POP POP POP JUMP JUMPDEST PUSH1 0x8 PUSH1 0x0 SWAP1 SLOAD SWAP1 PUSH2 0x100 EXP SWAP1 DIV PUSH20 0xFFFFFFFFFFFFFFFFFFFFFFFFFFFFFFFFFFFFFFFF AND DUP2 JUMP JUMPDEST PUSH1 0x15 PUSH1 0x0 SWAP1 SLOAD SWAP1 PUSH2 0x100 EXP SWAP1 DIV PUSH20 0xFFFFFFFFFFFFFFFFFFFFFFFFFFFFFFFFFFFFFFFF AND DUP2 JUMP JUMPDEST PUSH1 0x1A DUP2 PUSH1 0x40 MLOAD PUSH2 0x1D1A SWAP2 SWAP1 PUSH2 0x2922 JUMP JUMPDEST SWAP1 DUP2 MSTORE PUSH1 0x20 ADD PUSH1 0x40 MLOAD DUP1 SWAP2 SUB SWAP1 KECCAK256 PUSH1 0x0 ADD PUSH1 0x0 SWAP1 SLOAD SWAP1 PUSH2 0x100 EXP SWAP1 DIV PUSH20 0xFFFFFFFFFFFFFFFFFFFFFFFFFFFFFFFFFFFFFFFF AND PUSH1 0x16 PUSH1 0x0 PUSH2 0x100 EXP DUP2 SLOAD DUP2 PUSH20 0xFFFFFFFFFFFFFFFFFFFFFFFFFFFFFFFFFFFFFFFF MUL NOT AND SWAP1 DUP4 PUSH20 0xFFFFFFFFFFFFFFFFFFFFFFFFFFFFFFFFFFFFFFFF AND MUL OR SWAP1 SSTORE POP PUSH1 0x0 PUSH1 0x13 PUSH1 0x0 SWAP1 SLOAD SWAP1 PUSH2 0x100 EXP SWAP1 DIV PUSH20 0xFFFFFFFFFFFFFFFFFFFFFFFFFFFFFFFFFFFFFFFF AND PUSH20 0xFFFFFFFFFFFFFFFFFFFFFFFFFFFFFFFFFFFFFFFF AND PUSH4 0x70A08231 CALLER PUSH1 0x40 MLOAD DUP3 PUSH4 0xFFFFFFFF AND PUSH1 0xE0 SHL DUP2 MSTORE PUSH1 0x4 ADD PUSH2 0x1DE9 SWAP2 SWAP1 PUSH2 0x294E JUMP JUMPDEST PUSH1 0x20 PUSH1 0x40 MLOAD DUP1 DUP4 SUB DUP2 DUP7 DUP1 EXTCODESIZE ISZERO DUP1 ISZERO PUSH2 0x1E01 JUMPI PUSH1 0x0 DUP1 REVERT JUMPDEST POP GAS STATICCALL ISZERO DUP1 ISZERO PUSH2 0x1E15 JUMPI RETURNDATASIZE PUSH1 0x0 DUP1 RETURNDATACOPY RETURNDATASIZE PUSH1 0x0 REVERT JUMPDEST POP POP POP POP PUSH1 0x40 MLOAD RETURNDATASIZE PUSH1 0x1F NOT PUSH1 0x1F DUP3 ADD AND DUP3 ADD DUP1 PUSH1 0x40 MSTORE POP DUP2 ADD SWAP1 PUSH2 0x1E39 SWAP2 SWAP1 PUSH2 0x26A5 JUMP JUMPDEST SWAP1 POP DUP4 DUP2 GT PUSH2 0x1E7D JUMPI PUSH1 0x40 MLOAD PUSH32 0x8C379A000000000000000000000000000000000000000000000000000000000 DUP2 MSTORE PUSH1 0x4 ADD PUSH2 0x1E74 SWAP1 PUSH2 0x2A3F JUMP JUMPDEST PUSH1 0x40 MLOAD DUP1 SWAP2 SUB SWAP1 REVERT JUMPDEST PUSH1 0x16 PUSH1 0x0 SWAP1 SLOAD SWAP1 PUSH2 0x100 EXP SWAP1 DIV PUSH20 0xFFFFFFFFFFFFFFFFFFFFFFFFFFFFFFFFFFFFFFFF AND PUSH20 0xFFFFFFFFFFFFFFFFFFFFFFFFFFFFFFFFFFFFFFFF AND PUSH4 0xA9059CBB CALLER PUSH8 0xDE0B6B3A7640000 PUSH1 0x1 PUSH2 0x1ED1 SWAP2 SWAP1 PUSH2 0x2C27 JUMP JUMPDEST DUP8 PUSH2 0x1EDC SWAP2 SWAP1 PUSH2 0x2BA0 JUMP JUMPDEST PUSH1 0x40 MLOAD DUP4 PUSH4 0xFFFFFFFF AND PUSH1 0xE0 SHL DUP2 MSTORE PUSH1 0x4 ADD PUSH2 0x1EF9 SWAP3 SWAP2 SWAP1 PUSH2 0x29A0 JUMP JUMPDEST PUSH1 0x20 PUSH1 0x40 MLOAD DUP1 DUP4 SUB DUP2 PUSH1 0x0 DUP8 DUP1 EXTCODESIZE ISZERO DUP1 ISZERO PUSH2 0x1F13 JUMPI PUSH1 0x0 DUP1 REVERT JUMPDEST POP GAS CALL ISZERO DUP1 ISZERO PUSH2 0x1F27 JUMPI RETURNDATASIZE PUSH1 0x0 DUP1 RETURNDATACOPY RETURNDATASIZE PUSH1 0x0 REVERT JUMPDEST POP POP POP POP PUSH1 0x40 MLOAD RETURNDATASIZE PUSH1 0x1F NOT PUSH1 0x1F DUP3 ADD AND DUP3 ADD DUP1 PUSH1 0x40 MSTORE POP DUP2 ADD SWAP1 PUSH2 0x1F4B SWAP2 SWAP1 PUSH2 0x2593 JUMP JUMPDEST POP PUSH2 0x1F7A PUSH1 0x13 PUSH1 0x0 SWAP1 SLOAD SWAP1 PUSH2 0x100 EXP SWAP1 DIV PUSH20 0xFFFFFFFFFFFFFFFFFFFFFFFFFFFFFFFFFFFFFFFF AND CALLER ADDRESS DUP8 PUSH2 0x2293 JUMP JUMPDEST PUSH1 0x0 DUP5 ADDRESS PUSH20 0xFFFFFFFFFFFFFFFFFFFFFFFFFFFFFFFFFFFFFFFF AND PUSH4 0x43D32E9C PUSH1 0x40 MLOAD DUP2 PUSH4 0xFFFFFFFF AND PUSH1 0xE0 SHL DUP2 MSTORE PUSH1 0x4 ADD PUSH1 0x20 PUSH1 0x40 MLOAD DUP1 DUP4 SUB DUP2 PUSH1 0x0 DUP8 DUP1 EXTCODESIZE ISZERO DUP1 ISZERO PUSH2 0x1FC5 JUMPI PUSH1 0x0 DUP1 REVERT JUMPDEST POP GAS CALL ISZERO DUP1 ISZERO PUSH2 0x1FD9 JUMPI RETURNDATASIZE PUSH1 0x0 DUP1 RETURNDATACOPY RETURNDATASIZE PUSH1 0x0 REVERT JUMPDEST POP POP POP POP PUSH1 0x40 MLOAD RETURNDATASIZE PUSH1 0x1F NOT PUSH1 0x1F DUP3 ADD AND DUP3 ADD DUP1 PUSH1 0x40 MSTORE POP DUP2 ADD SWAP1 PUSH2 0x1FFD SWAP2 SWAP1 PUSH2 0x26A5 JUMP JUMPDEST PUSH2 0x2007 SWAP2 SWAP1 PUSH2 0x2C27 JUMP JUMPDEST SWAP1 POP PUSH1 0x0 PUSH3 0x15180 PUSH1 0xC SLOAD TIMESTAMP PUSH2 0x201D SWAP2 SWAP1 PUSH2 0x2C81 JUMP JUMPDEST PUSH2 0x2027 SWAP2 SWAP1 PUSH2 0x2BF6 JUMP JUMPDEST SWAP1 POP DUP6 PUSH1 0x18 PUSH1 0x0 DUP4 DUP2 MSTORE PUSH1 0x20 ADD SWAP1 DUP2 MSTORE PUSH1 0x20 ADD PUSH1 0x0 KECCAK256 PUSH1 0x0 DUP3 DUP3 SLOAD PUSH2 0x204C SWAP2 SWAP1 PUSH2 0x2BA0 JUMP JUMPDEST SWAP3 POP POP DUP2 SWAP1 SSTORE POP DUP6 PUSH1 0x19 PUSH1 0x0 DUP4 DUP2 MSTORE PUSH1 0x20 ADD SWAP1 DUP2 MSTORE PUSH1 0x20 ADD PUSH1 0x0 KECCAK256 PUSH1 0x0 DUP3 DUP3 SLOAD PUSH2 0x2076 SWAP2 SWAP1 PUSH2 0x2C81 JUMP JUMPDEST SWAP3 POP POP DUP2 SWAP1 SSTORE POP POP POP POP POP POP POP JUMP JUMPDEST PUSH1 0x2 SLOAD DUP2 JUMP JUMPDEST PUSH1 0x14 PUSH1 0x0 SWAP1 SLOAD SWAP1 PUSH2 0x100 EXP SWAP1 DIV PUSH20 0xFFFFFFFFFFFFFFFFFFFFFFFFFFFFFFFFFFFFFFFF AND DUP2 JUMP JUMPDEST PUSH1 0x0 DUP1 PUSH1 0x0 DUP1 PUSH3 0x15180 PUSH1 0xD SLOAD PUSH2 0x20C8 SWAP2 SWAP1 PUSH2 0x2BF6 JUMP JUMPDEST SWAP1 POP PUSH1 0x0 SWAP2 POP JUMPDEST DUP1 DUP3 LT ISZERO PUSH2 0x210B JUMPI PUSH1 0x18 PUSH1 0x0 DUP4 DUP2 MSTORE PUSH1 0x20 ADD SWAP1 DUP2 MSTORE PUSH1 0x20 ADD PUSH1 0x0 KECCAK256 SLOAD DUP4 PUSH2 0x20F6 SWAP2 SWAP1 PUSH2 0x2BA0 JUMP JUMPDEST SWAP3 POP DUP2 DUP1 PUSH2 0x2103 SWAP1 PUSH2 0x2DB3 JUMP JUMPDEST SWAP3 POP POP PUSH2 0x20CF JUMP JUMPDEST DUP3 SWAP4 POP POP POP POP SWAP1 JUMP JUMPDEST DUP2 PUSH1 0x1A DUP5 PUSH1 0x40 MLOAD PUSH2 0x2125 SWAP2 SWAP1 PUSH2 0x2922 JUMP JUMPDEST SWAP1 DUP2 MSTORE PUSH1 0x20 ADD PUSH1 0x40 MLOAD DUP1 SWAP2 SUB SWAP1 KECCAK256 PUSH1 0x0 ADD PUSH1 0x0 PUSH2 0x100 EXP DUP2 SLOAD DUP2 PUSH20 0xFFFFFFFFFFFFFFFFFFFFFFFFFFFFFFFFFFFFFFFF MUL NOT AND SWAP1 DUP4 PUSH20 0xFFFFFFFFFFFFFFFFFFFFFFFFFFFFFFFFFFFFFFFF AND MUL OR SWAP1 SSTORE POP DUP1 PUSH1 0x1A DUP5 PUSH1 0x40 MLOAD PUSH2 0x2185 SWAP2 SWAP1 PUSH2 0x2922 JUMP JUMPDEST SWAP1 DUP2 MSTORE PUSH1 0x20 ADD PUSH1 0x40 MLOAD DUP1 SWAP2 SUB SWAP1 KECCAK256 PUSH1 0x1 ADD DUP2 SWAP1 SSTORE POP POP POP POP JUMP JUMPDEST PUSH1 0x1 SLOAD DUP2 JUMP JUMPDEST PUSH1 0x12 PUSH1 0x0 SWAP1 SLOAD SWAP1 PUSH2 0x100 EXP SWAP1 DIV PUSH20 0xFFFFFFFFFFFFFFFFFFFFFFFFFFFFFFFFFFFFFFFF AND DUP2 JUMP JUMPDEST PUSH1 0x7 PUSH1 0x0 SWAP1 SLOAD SWAP1 PUSH2 0x100 EXP SWAP1 DIV PUSH20 0xFFFFFFFFFFFFFFFFFFFFFFFFFFFFFFFFFFFFFFFF AND DUP2 JUMP JUMPDEST PUSH3 0x15180 DUP2 PUSH2 0x2200 SWAP2 SWAP1 PUSH2 0x2C27 JUMP JUMPDEST PUSH1 0xD DUP2 SWAP1 SSTORE POP POP JUMP JUMPDEST PUSH1 0x0 DUP1 PUSH2 0x2216 DUP5 DUP5 PUSH2 0x236D JUMP JUMPDEST SWAP1 POP PUSH8 0xDE0B6B3A7640000 PUSH2 0x223F DUP3 PUSH1 0x2 PUSH8 0xDE0B6B3A7640000 PUSH2 0x223A SWAP2 SWAP1 PUSH2 0x2BF6 JUMP JUMPDEST PUSH2 0x23E8 JUMP JUMPDEST PUSH2 0x2249 SWAP2 SWAP1 PUSH2 0x2BF6 JUMP JUMPDEST SWAP2 POP POP SWAP3 SWAP2 POP POP JUMP JUMPDEST PUSH1 0x0 DUP1 PUSH2 0x2267 DUP5 PUSH8 0xDE0B6B3A7640000 PUSH2 0x236D JUMP JUMPDEST SWAP1 POP DUP3 PUSH2 0x2280 DUP3 PUSH1 0x2 DUP7 PUSH2 0x227B SWAP2 SWAP1 PUSH2 0x2BF6 JUMP JUMPDEST PUSH2 0x23E8 JUMP JUMPDEST PUSH2 0x228A SWAP2 SWAP1 PUSH2 0x2BF6 JUMP JUMPDEST SWAP2 POP POP SWAP3 SWAP2 POP POP JUMP JUMPDEST PUSH1 0x0 DUP5 PUSH20 0xFFFFFFFFFFFFFFFFFFFFFFFFFFFFFFFFFFFFFFFF AND PUSH4 0x23B872DD DUP6 DUP6 DUP6 PUSH1 0x40 MLOAD DUP5 PUSH4 0xFFFFFFFF AND PUSH1 0xE0 SHL DUP2 MSTORE PUSH1 0x4 ADD PUSH2 0x22D2 SWAP4 SWAP3 SWAP2 SWAP1 PUSH2 0x2969 JUMP JUMPDEST PUSH1 0x20 PUSH1 0x40 MLOAD DUP1 DUP4 SUB DUP2 PUSH1 0x0 DUP8 DUP1 EXTCODESIZE ISZERO DUP1 ISZERO PUSH2 0x22EC JUMPI PUSH1 0x0 DUP1 REVERT JUMPDEST POP GAS CALL ISZERO DUP1 ISZERO PUSH2 0x2300 JUMPI RETURNDATASIZE PUSH1 0x0 DUP1 RETURNDATACOPY RETURNDATASIZE PUSH1 0x0 REVERT JUMPDEST POP POP POP POP PUSH1 0x40 MLOAD RETURNDATASIZE PUSH1 0x1F NOT PUSH1 0x1F DUP3 ADD AND DUP3 ADD DUP1 PUSH1 0x40 MSTORE POP DUP2 ADD SWAP1 PUSH2 0x2324 SWAP2 SWAP1 PUSH2 0x2593 JUMP JUMPDEST SWAP1 POP DUP1 PUSH2 0x2366 JUMPI PUSH1 0x40 MLOAD PUSH32 0x8C379A000000000000000000000000000000000000000000000000000000000 DUP2 MSTORE PUSH1 0x4 ADD PUSH2 0x235D SWAP1 PUSH2 0x2A1F JUMP JUMPDEST PUSH1 0x40 MLOAD DUP1 SWAP2 SUB SWAP1 REVERT JUMPDEST POP POP POP POP POP JUMP JUMPDEST PUSH1 0x0 DUP1 DUP4 EQ ISZERO PUSH2 0x2380 JUMPI PUSH1 0x0 SWAP1 POP PUSH2 0x23E2 JUMP JUMPDEST PUSH1 0x0 DUP3 DUP5 PUSH2 0x238E SWAP2 SWAP1 PUSH2 0x2C27 JUMP JUMPDEST SWAP1 POP DUP3 DUP5 DUP3 PUSH2 0x239D SWAP2 SWAP1 PUSH2 0x2BF6 JUMP JUMPDEST EQ PUSH2 0x23DD JUMPI PUSH1 0x40 MLOAD PUSH32 0x8C379A000000000000000000000000000000000000000000000000000000000 DUP2 MSTORE PUSH1 0x4 ADD PUSH2 0x23D4 SWAP1 PUSH2 0x2ABF JUMP JUMPDEST PUSH1 0x40 MLOAD DUP1 SWAP2 SUB SWAP1 REVERT JUMPDEST DUP1 SWAP2 POP POP JUMPDEST SWAP3 SWAP2 POP POP JUMP JUMPDEST PUSH1 0x0 DUP1 DUP3 DUP5 PUSH2 0x23F7 SWAP2 SWAP1 PUSH2 0x2BA0 JUMP JUMPDEST SWAP1 POP DUP4 DUP2 LT ISZERO PUSH2 0x243C JUMPI PUSH1 0x40 MLOAD PUSH32 0x8C379A000000000000000000000000000000000000000000000000000000000 DUP2 MSTORE PUSH1 0x4 ADD PUSH2 0x2433 SWAP1 PUSH2 0x2ABF JUMP JUMPDEST PUSH1 0x40 MLOAD DUP1 SWAP2 SUB SWAP1 REVERT JUMPDEST DUP1 SWAP2 POP POP SWAP3 SWAP2 POP POP JUMP JUMPDEST PUSH1 0x0 PUSH2 0x2459 PUSH2 0x2454 DUP5 PUSH2 0x2B48 JUMP JUMPDEST PUSH2 0x2B23 JUMP JUMPDEST SWAP1 POP DUP3 DUP2 MSTORE PUSH1 0x20 DUP2 ADD DUP5 DUP5 DUP5 ADD GT ISZERO PUSH2 0x2475 JUMPI PUSH2 0x2474 PUSH2 0x2E8E JUMP JUMPDEST JUMPDEST PUSH2 0x2480 DUP5 DUP3 DUP6 PUSH2 0x2D40 JUMP JUMPDEST POP SWAP4 SWAP3 POP POP POP JUMP JUMPDEST PUSH1 0x0 DUP2 CALLDATALOAD SWAP1 POP PUSH2 0x2497 DUP2 PUSH2 0x3042 JUMP JUMPDEST SWAP3 SWAP2 POP POP JUMP JUMPDEST PUSH1 0x0 DUP2 MLOAD SWAP1 POP PUSH2 0x24AC DUP2 PUSH2 0x3059 JUMP JUMPDEST SWAP3 SWAP2 POP POP JUMP JUMPDEST PUSH1 0x0 DUP3 PUSH1 0x1F DUP4 ADD SLT PUSH2 0x24C7 JUMPI PUSH2 0x24C6 PUSH2 0x2E89 JUMP JUMPDEST JUMPDEST DUP2 CALLDATALOAD PUSH2 0x24D7 DUP5 DUP3 PUSH1 0x20 DUP7 ADD PUSH2 0x2446 JUMP JUMPDEST SWAP2 POP POP SWAP3 SWAP2 POP POP JUMP JUMPDEST PUSH1 0x0 DUP2 CALLDATALOAD SWAP1 POP PUSH2 0x24EF DUP2 PUSH2 0x3070 JUMP JUMPDEST SWAP3 SWAP2 POP POP JUMP JUMPDEST PUSH1 0x0 DUP2 MLOAD SWAP1 POP PUSH2 0x2504 DUP2 PUSH2 0x3070 JUMP JUMPDEST SWAP3 SWAP2 POP POP JUMP JUMPDEST PUSH1 0x0 PUSH1 0x20 DUP3 DUP5 SUB SLT ISZERO PUSH2 0x2520 JUMPI PUSH2 0x251F PUSH2 0x2E98 JUMP JUMPDEST JUMPDEST PUSH1 0x0 PUSH2 0x252E DUP5 DUP3 DUP6 ADD PUSH2 0x2488 JUMP JUMPDEST SWAP2 POP POP SWAP3 SWAP2 POP POP JUMP JUMPDEST PUSH1 0x0 DUP1 PUSH1 0x40 DUP4 DUP6 SUB SLT ISZERO PUSH2 0x254E JUMPI PUSH2 0x254D PUSH2 0x2E98 JUMP JUMPDEST JUMPDEST PUSH1 0x0 PUSH2 0x255C DUP6 DUP3 DUP7 ADD PUSH2 0x2488 JUMP JUMPDEST SWAP3 POP POP PUSH1 0x20 DUP4 ADD CALLDATALOAD PUSH8 0xFFFFFFFFFFFFFFFF DUP2 GT ISZERO PUSH2 0x257D JUMPI PUSH2 0x257C PUSH2 0x2E93 JUMP JUMPDEST JUMPDEST PUSH2 0x2589 DUP6 DUP3 DUP7 ADD PUSH2 0x24B2 JUMP JUMPDEST SWAP2 POP POP SWAP3 POP SWAP3 SWAP1 POP JUMP JUMPDEST PUSH1 0x0 PUSH1 0x20 DUP3 DUP5 SUB SLT ISZERO PUSH2 0x25A9 JUMPI PUSH2 0x25A8 PUSH2 0x2E98 JUMP JUMPDEST JUMPDEST PUSH1 0x0 PUSH2 0x25B7 DUP5 DUP3 DUP6 ADD PUSH2 0x249D JUMP JUMPDEST SWAP2 POP POP SWAP3 SWAP2 POP POP JUMP JUMPDEST PUSH1 0x0 PUSH1 0x20 DUP3 DUP5 SUB SLT ISZERO PUSH2 0x25D6 JUMPI PUSH2 0x25D5 PUSH2 0x2E98 JUMP JUMPDEST JUMPDEST PUSH1 0x0 DUP3 ADD CALLDATALOAD PUSH8 0xFFFFFFFFFFFFFFFF DUP2 GT ISZERO PUSH2 0x25F4 JUMPI PUSH2 0x25F3 PUSH2 0x2E93 JUMP JUMPDEST JUMPDEST PUSH2 0x2600 DUP5 DUP3 DUP6 ADD PUSH2 0x24B2 JUMP JUMPDEST SWAP2 POP POP SWAP3 SWAP2 POP POP JUMP JUMPDEST PUSH1 0x0 DUP1 PUSH1 0x0 PUSH1 0x60 DUP5 DUP7 SUB SLT ISZERO PUSH2 0x2622 JUMPI PUSH2 0x2621 PUSH2 0x2E98 JUMP JUMPDEST JUMPDEST PUSH1 0x0 DUP5 ADD CALLDATALOAD PUSH8 0xFFFFFFFFFFFFFFFF DUP2 GT ISZERO PUSH2 0x2640 JUMPI PUSH2 0x263F PUSH2 0x2E93 JUMP JUMPDEST JUMPDEST PUSH2 0x264C DUP7 DUP3 DUP8 ADD PUSH2 0x24B2 JUMP JUMPDEST SWAP4 POP POP PUSH1 0x20 PUSH2 0x265D DUP7 DUP3 DUP8 ADD PUSH2 0x2488 JUMP JUMPDEST SWAP3 POP POP PUSH1 0x40 PUSH2 0x266E DUP7 DUP3 DUP8 ADD PUSH2 0x24E0 JUMP JUMPDEST SWAP2 POP POP SWAP3 POP SWAP3 POP SWAP3 JUMP JUMPDEST PUSH1 0x0 PUSH1 0x20 DUP3 DUP5 SUB SLT ISZERO PUSH2 0x268E JUMPI PUSH2 0x268D PUSH2 0x2E98 JUMP JUMPDEST JUMPDEST PUSH1 0x0 PUSH2 0x269C DUP5 DUP3 DUP6 ADD PUSH2 0x24E0 JUMP JUMPDEST SWAP2 POP POP SWAP3 SWAP2 POP POP JUMP JUMPDEST PUSH1 0x0 PUSH1 0x20 DUP3 DUP5 SUB SLT ISZERO PUSH2 0x26BB JUMPI PUSH2 0x26BA PUSH2 0x2E98 JUMP JUMPDEST JUMPDEST PUSH1 0x0 PUSH2 0x26C9 DUP5 DUP3 DUP6 ADD PUSH2 0x24F5 JUMP JUMPDEST SWAP2 POP POP SWAP3 SWAP2 POP POP JUMP JUMPDEST PUSH1 0x0 DUP1 PUSH1 0x40 DUP4 DUP6 SUB SLT ISZERO PUSH2 0x26E9 JUMPI PUSH2 0x26E8 PUSH2 0x2E98 JUMP JUMPDEST JUMPDEST PUSH1 0x0 PUSH2 0x26F7 DUP6 DUP3 DUP7 ADD PUSH2 0x24E0 JUMP JUMPDEST SWAP3 POP POP PUSH1 0x20 DUP4 ADD CALLDATALOAD PUSH8 0xFFFFFFFFFFFFFFFF DUP2 GT ISZERO PUSH2 0x2718 JUMPI PUSH2 0x2717 PUSH2 0x2E93 JUMP JUMPDEST JUMPDEST PUSH2 0x2724 DUP6 DUP3 DUP7 ADD PUSH2 0x24B2 JUMP JUMPDEST SWAP2 POP POP SWAP3 POP SWAP3 SWAP1 POP JUMP JUMPDEST PUSH1 0x0 DUP1 PUSH1 0x0 PUSH1 0x60 DUP5 DUP7 SUB SLT ISZERO PUSH2 0x2747 JUMPI PUSH2 0x2746 PUSH2 0x2E98 JUMP JUMPDEST JUMPDEST PUSH1 0x0 PUSH2 0x2755 DUP7 DUP3 DUP8 ADD PUSH2 0x24E0 JUMP JUMPDEST SWAP4 POP POP PUSH1 0x20 PUSH2 0x2766 DUP7 DUP3 DUP8 ADD PUSH2 0x24E0 JUMP JUMPDEST SWAP3 POP POP PUSH1 0x40 DUP5 ADD CALLDATALOAD PUSH8 0xFFFFFFFFFFFFFFFF DUP2 GT ISZERO PUSH2 0x2787 JUMPI PUSH2 0x2786 PUSH2 0x2E93 JUMP JUMPDEST JUMPDEST PUSH2 0x2793 DUP7 DUP3 DUP8 ADD PUSH2 0x24B2 JUMP JUMPDEST SWAP2 POP POP SWAP3 POP SWAP3 POP SWAP3 JUMP JUMPDEST PUSH2 0x27A6 DUP2 PUSH2 0x2CB5 JUMP JUMPDEST DUP3 MSTORE POP POP JUMP JUMPDEST PUSH2 0x27B5 DUP2 PUSH2 0x2D0A JUMP JUMPDEST DUP3 MSTORE POP POP JUMP JUMPDEST PUSH2 0x27C4 DUP2 PUSH2 0x2CD3 JUMP JUMPDEST DUP3 MSTORE POP POP JUMP JUMPDEST PUSH1 0x0 PUSH2 0x27D5 DUP3 PUSH2 0x2B79 JUMP JUMPDEST PUSH2 0x27DF DUP2 DUP6 PUSH2 0x2B95 JUMP JUMPDEST SWAP4 POP PUSH2 0x27EF DUP2 DUP6 PUSH1 0x20 DUP7 ADD PUSH2 0x2D4F JUMP JUMPDEST DUP1 DUP5 ADD SWAP2 POP POP SWAP3 SWAP2 POP POP JUMP JUMPDEST PUSH1 0x0 PUSH2 0x2808 PUSH1 0x24 DUP4 PUSH2 0x2B84 JUMP JUMPDEST SWAP2 POP PUSH2 0x2813 DUP3 PUSH2 0x2EAE JUMP JUMPDEST PUSH1 0x40 DUP3 ADD SWAP1 POP SWAP2 SWAP1 POP JUMP JUMPDEST PUSH1 0x0 PUSH2 0x282B PUSH1 0x15 DUP4 PUSH2 0x2B84 JUMP JUMPDEST SWAP2 POP PUSH2 0x2836 DUP3 PUSH2 0x2EFD JUMP JUMPDEST PUSH1 0x20 DUP3 ADD SWAP1 POP SWAP2 SWAP1 POP JUMP JUMPDEST PUSH1 0x0 PUSH2 0x284E PUSH1 0x1A DUP4 PUSH2 0x2B84 JUMP JUMPDEST SWAP2 POP PUSH2 0x2859 DUP3 PUSH2 0x2F26 JUMP JUMPDEST PUSH1 0x20 DUP3 ADD SWAP1 POP SWAP2 SWAP1 POP JUMP JUMPDEST PUSH1 0x0 PUSH2 0x2871 PUSH1 0x15 DUP4 PUSH2 0x2B84 JUMP JUMPDEST SWAP2 POP PUSH2 0x287C DUP3 PUSH2 0x2F4F JUMP JUMPDEST PUSH1 0x20 DUP3 ADD SWAP1 POP SWAP2 SWAP1 POP JUMP JUMPDEST PUSH1 0x0 PUSH2 0x2894 PUSH1 0x4 DUP4 PUSH2 0x2B95 JUMP JUMPDEST SWAP2 POP PUSH2 0x289F DUP3 PUSH2 0x2F78 JUMP JUMPDEST PUSH1 0x4 DUP3 ADD SWAP1 POP SWAP2 SWAP1 POP JUMP JUMPDEST PUSH1 0x0 PUSH2 0x28B7 PUSH1 0xC DUP4 PUSH2 0x2B84 JUMP JUMPDEST SWAP2 POP PUSH2 0x28C2 DUP3 PUSH2 0x2FA1 JUMP JUMPDEST PUSH1 0x20 DUP3 ADD SWAP1 POP SWAP2 SWAP1 POP JUMP JUMPDEST PUSH1 0x0 PUSH2 0x28DA PUSH1 0x1F DUP4 PUSH2 0x2B84 JUMP JUMPDEST SWAP2 POP PUSH2 0x28E5 DUP3 PUSH2 0x2FCA JUMP JUMPDEST PUSH1 0x20 DUP3 ADD SWAP1 POP SWAP2 SWAP1 POP JUMP JUMPDEST PUSH1 0x0 PUSH2 0x28FD PUSH1 0x21 DUP4 PUSH2 0x2B84 JUMP JUMPDEST SWAP2 POP PUSH2 0x2908 DUP3 PUSH2 0x2FF3 JUMP JUMPDEST PUSH1 0x40 DUP3 ADD SWAP1 POP SWAP2 SWAP1 POP JUMP JUMPDEST PUSH2 0x291C DUP2 PUSH2 0x2D00 JUMP JUMPDEST DUP3 MSTORE POP POP JUMP JUMPDEST PUSH1 0x0 PUSH2 0x292E DUP3 DUP5 PUSH2 0x27CA JUMP JUMPDEST SWAP2 POP DUP2 SWAP1 POP SWAP3 SWAP2 POP POP JUMP JUMPDEST PUSH1 0x0 PUSH2 0x2944 DUP3 PUSH2 0x2887 JUMP JUMPDEST SWAP2 POP DUP2 SWAP1 POP SWAP2 SWAP1 POP JUMP JUMPDEST PUSH1 0x0 PUSH1 0x20 DUP3 ADD SWAP1 POP PUSH2 0x2963 PUSH1 0x0 DUP4 ADD DUP5 PUSH2 0x279D JUMP JUMPDEST SWAP3 SWAP2 POP POP JUMP JUMPDEST PUSH1 0x0 PUSH1 0x60 DUP3 ADD SWAP1 POP PUSH2 0x297E PUSH1 0x0 DUP4 ADD DUP7 PUSH2 0x279D JUMP JUMPDEST PUSH2 0x298B PUSH1 0x20 DUP4 ADD DUP6 PUSH2 0x279D JUMP JUMPDEST PUSH2 0x2998 PUSH1 0x40 DUP4 ADD DUP5 PUSH2 0x2913 JUMP JUMPDEST SWAP5 SWAP4 POP POP POP POP JUMP JUMPDEST PUSH1 0x0 PUSH1 0x40 DUP3 ADD SWAP1 POP PUSH2 0x29B5 PUSH1 0x0 DUP4 ADD DUP6 PUSH2 0x279D JUMP JUMPDEST PUSH2 0x29C2 PUSH1 0x20 DUP4 ADD DUP5 PUSH2 0x2913 JUMP JUMPDEST SWAP4 SWAP3 POP POP POP JUMP JUMPDEST PUSH1 0x0 PUSH1 0x20 DUP3 ADD SWAP1 POP PUSH2 0x29DE PUSH1 0x0 DUP4 ADD DUP5 PUSH2 0x27AC JUMP JUMPDEST SWAP3 SWAP2 POP POP JUMP JUMPDEST PUSH1 0x0 PUSH1 0x20 DUP3 ADD SWAP1 POP PUSH2 0x29F9 PUSH1 0x0 DUP4 ADD DUP5 PUSH2 0x27BB JUMP JUMPDEST SWAP3 SWAP2 POP POP JUMP JUMPDEST PUSH1 0x0 PUSH1 0x20 DUP3 ADD SWAP1 POP DUP2 DUP2 SUB PUSH1 0x0 DUP4 ADD MSTORE PUSH2 0x2A18 DUP2 PUSH2 0x27FB JUMP JUMPDEST SWAP1 POP SWAP2 SWAP1 POP JUMP JUMPDEST PUSH1 0x0 PUSH1 0x20 DUP3 ADD SWAP1 POP DUP2 DUP2 SUB PUSH1 0x0 DUP4 ADD MSTORE PUSH2 0x2A38 DUP2 PUSH2 0x281E JUMP JUMPDEST SWAP1 POP SWAP2 SWAP1 POP JUMP JUMPDEST PUSH1 0x0 PUSH1 0x20 DUP3 ADD SWAP1 POP DUP2 DUP2 SUB PUSH1 0x0 DUP4 ADD MSTORE PUSH2 0x2A58 DUP2 PUSH2 0x2841 JUMP JUMPDEST SWAP1 POP SWAP2 SWAP1 POP JUMP JUMPDEST PUSH1 0x0 PUSH1 0x20 DUP3 ADD SWAP1 POP DUP2 DUP2 SUB PUSH1 0x0 DUP4 ADD MSTORE PUSH2 0x2A78 DUP2 PUSH2 0x2864 JUMP JUMPDEST SWAP1 POP SWAP2 SWAP1 POP JUMP JUMPDEST PUSH1 0x0 PUSH1 0x20 DUP3 ADD SWAP1 POP DUP2 DUP2 SUB PUSH1 0x0 DUP4 ADD MSTORE PUSH2 0x2A98 DUP2 PUSH2 0x28AA JUMP JUMPDEST SWAP1 POP SWAP2 SWAP1 POP JUMP JUMPDEST PUSH1 0x0 PUSH1 0x20 DUP3 ADD SWAP1 POP DUP2 DUP2 SUB PUSH1 0x0 DUP4 ADD MSTORE PUSH2 0x2AB8 DUP2 PUSH2 0x28CD JUMP JUMPDEST SWAP1 POP SWAP2 SWAP1 POP JUMP JUMPDEST PUSH1 0x0 PUSH1 0x20 DUP3 ADD SWAP1 POP DUP2 DUP2 SUB PUSH1 0x0 DUP4 ADD MSTORE PUSH2 0x2AD8 DUP2 PUSH2 0x28F0 JUMP JUMPDEST SWAP1 POP SWAP2 SWAP1 POP JUMP JUMPDEST PUSH1 0x0 PUSH1 0x20 DUP3 ADD SWAP1 POP PUSH2 0x2AF4 PUSH1 0x0 DUP4 ADD DUP5 PUSH2 0x2913 JUMP JUMPDEST SWAP3 SWAP2 POP POP JUMP JUMPDEST PUSH1 0x0 PUSH1 0x40 DUP3 ADD SWAP1 POP PUSH2 0x2B0F PUSH1 0x0 DUP4 ADD DUP6 PUSH2 0x2913 JUMP JUMPDEST PUSH2 0x2B1C PUSH1 0x20 DUP4 ADD DUP5 PUSH2 0x2913 JUMP JUMPDEST SWAP4 SWAP3 POP POP POP JUMP JUMPDEST PUSH1 0x0 PUSH2 0x2B2D PUSH2 0x2B3E JUMP JUMPDEST SWAP1 POP PUSH2 0x2B39 DUP3 DUP3 PUSH2 0x2D82 JUMP JUMPDEST SWAP2 SWAP1 POP JUMP JUMPDEST PUSH1 0x0 PUSH1 0x40 MLOAD SWAP1 POP SWAP1 JUMP JUMPDEST PUSH1 0x0 PUSH8 0xFFFFFFFFFFFFFFFF DUP3 GT ISZERO PUSH2 0x2B63 JUMPI PUSH2 0x2B62 PUSH2 0x2E5A JUMP JUMPDEST JUMPDEST PUSH2 0x2B6C DUP3 PUSH2 0x2E9D JUMP JUMPDEST SWAP1 POP PUSH1 0x20 DUP2 ADD SWAP1 POP SWAP2 SWAP1 POP JUMP JUMPDEST PUSH1 0x0 DUP2 MLOAD SWAP1 POP SWAP2 SWAP1 POP JUMP JUMPDEST PUSH1 0x0 DUP3 DUP3 MSTORE PUSH1 0x20 DUP3 ADD SWAP1 POP SWAP3 SWAP2 POP POP JUMP JUMPDEST PUSH1 0x0 DUP2 SWAP1 POP SWAP3 SWAP2 POP POP JUMP JUMPDEST PUSH1 0x0 PUSH2 0x2BAB DUP3 PUSH2 0x2D00 JUMP JUMPDEST SWAP2 POP PUSH2 0x2BB6 DUP4 PUSH2 0x2D00 JUMP JUMPDEST SWAP3 POP DUP3 PUSH32 0xFFFFFFFFFFFFFFFFFFFFFFFFFFFFFFFFFFFFFFFFFFFFFFFFFFFFFFFFFFFFFFFF SUB DUP3 GT ISZERO PUSH2 0x2BEB JUMPI PUSH2 0x2BEA PUSH2 0x2DFC JUMP JUMPDEST JUMPDEST DUP3 DUP3 ADD SWAP1 POP SWAP3 SWAP2 POP POP JUMP JUMPDEST PUSH1 0x0 PUSH2 0x2C01 DUP3 PUSH2 0x2D00 JUMP JUMPDEST SWAP2 POP PUSH2 0x2C0C DUP4 PUSH2 0x2D00 JUMP JUMPDEST SWAP3 POP DUP3 PUSH2 0x2C1C JUMPI PUSH2 0x2C1B PUSH2 0x2E2B JUMP JUMPDEST JUMPDEST DUP3 DUP3 DIV SWAP1 POP SWAP3 SWAP2 POP POP JUMP JUMPDEST PUSH1 0x0 PUSH2 0x2C32 DUP3 PUSH2 0x2D00 JUMP JUMPDEST SWAP2 POP PUSH2 0x2C3D DUP4 PUSH2 0x2D00 JUMP JUMPDEST SWAP3 POP DUP2 PUSH32 0xFFFFFFFFFFFFFFFFFFFFFFFFFFFFFFFFFFFFFFFFFFFFFFFFFFFFFFFFFFFFFFFF DIV DUP4 GT DUP3 ISZERO ISZERO AND ISZERO PUSH2 0x2C76 JUMPI PUSH2 0x2C75 PUSH2 0x2DFC JUMP JUMPDEST JUMPDEST DUP3 DUP3 MUL SWAP1 POP SWAP3 SWAP2 POP POP JUMP JUMPDEST PUSH1 0x0 PUSH2 0x2C8C DUP3 PUSH2 0x2D00 JUMP JUMPDEST SWAP2 POP PUSH2 0x2C97 DUP4 PUSH2 0x2D00 JUMP JUMPDEST SWAP3 POP DUP3 DUP3 LT ISZERO PUSH2 0x2CAA JUMPI PUSH2 0x2CA9 PUSH2 0x2DFC JUMP JUMPDEST JUMPDEST DUP3 DUP3 SUB SWAP1 POP SWAP3 SWAP2 POP POP JUMP JUMPDEST PUSH1 0x0 PUSH2 0x2CC0 DUP3 PUSH2 0x2CE0 JUMP JUMPDEST SWAP1 POP SWAP2 SWAP1 POP JUMP JUMPDEST PUSH1 0x0 DUP2 ISZERO ISZERO SWAP1 POP SWAP2 SWAP1 POP JUMP JUMPDEST PUSH1 0x0 DUP2 PUSH1 0xF SIGNEXTEND SWAP1 POP SWAP2 SWAP1 POP JUMP JUMPDEST PUSH1 0x0 PUSH20 0xFFFFFFFFFFFFFFFFFFFFFFFFFFFFFFFFFFFFFFFF DUP3 AND SWAP1 POP SWAP2 SWAP1 POP JUMP JUMPDEST PUSH1 0x0 DUP2 SWAP1 POP SWAP2 SWAP1 POP JUMP JUMPDEST PUSH1 0x0 PUSH2 0x2D15 DUP3 PUSH2 0x2D1C JUMP JUMPDEST SWAP1 POP SWAP2 SWAP1 POP JUMP JUMPDEST PUSH1 0x0 PUSH2 0x2D27 DUP3 PUSH2 0x2D2E JUMP JUMPDEST SWAP1 POP SWAP2 SWAP1 POP JUMP JUMPDEST PUSH1 0x0 PUSH2 0x2D39 DUP3 PUSH2 0x2CE0 JUMP JUMPDEST SWAP1 POP SWAP2 SWAP1 POP JUMP JUMPDEST DUP3 DUP2 DUP4 CALLDATACOPY PUSH1 0x0 DUP4 DUP4 ADD MSTORE POP POP POP JUMP JUMPDEST PUSH1 0x0 JUMPDEST DUP4 DUP2 LT ISZERO PUSH2 0x2D6D JUMPI DUP1 DUP3 ADD MLOAD DUP2 DUP5 ADD MSTORE PUSH1 0x20 DUP2 ADD SWAP1 POP PUSH2 0x2D52 JUMP JUMPDEST DUP4 DUP2 GT ISZERO PUSH2 0x2D7C JUMPI PUSH1 0x0 DUP5 DUP5 ADD MSTORE JUMPDEST POP POP POP POP JUMP JUMPDEST PUSH2 0x2D8B DUP3 PUSH2 0x2E9D JUMP JUMPDEST DUP2 ADD DUP2 DUP2 LT PUSH8 0xFFFFFFFFFFFFFFFF DUP3 GT OR ISZERO PUSH2 0x2DAA JUMPI PUSH2 0x2DA9 PUSH2 0x2E5A JUMP JUMPDEST JUMPDEST DUP1 PUSH1 0x40 MSTORE POP POP POP JUMP JUMPDEST PUSH1 0x0 PUSH2 0x2DBE DUP3 PUSH2 0x2D00 JUMP JUMPDEST SWAP2 POP PUSH32 0xFFFFFFFFFFFFFFFFFFFFFFFFFFFFFFFFFFFFFFFFFFFFFFFFFFFFFFFFFFFFFFFF DUP3 EQ ISZERO PUSH2 0x2DF1 JUMPI PUSH2 0x2DF0 PUSH2 0x2DFC JUMP JUMPDEST JUMPDEST PUSH1 0x1 DUP3 ADD SWAP1 POP SWAP2 SWAP1 POP JUMP JUMPDEST PUSH32 0x4E487B7100000000000000000000000000000000000000000000000000000000 PUSH1 0x0 MSTORE PUSH1 0x11 PUSH1 0x4 MSTORE PUSH1 0x24 PUSH1 0x0 REVERT JUMPDEST PUSH32 0x4E487B7100000000000000000000000000000000000000000000000000000000 PUSH1 0x0 MSTORE PUSH1 0x12 PUSH1 0x4 MSTORE PUSH1 0x24 PUSH1 0x0 REVERT JUMPDEST PUSH32 0x4E487B7100000000000000000000000000000000000000000000000000000000 PUSH1 0x0 MSTORE PUSH1 0x41 PUSH1 0x4 MSTORE PUSH1 0x24 PUSH1 0x0 REVERT JUMPDEST PUSH1 0x0 DUP1 REVERT JUMPDEST PUSH1 0x0 DUP1 REVERT JUMPDEST PUSH1 0x0 DUP1 REVERT JUMPDEST PUSH1 0x0 DUP1 REVERT JUMPDEST PUSH1 0x0 PUSH1 0x1F NOT PUSH1 0x1F DUP4 ADD AND SWAP1 POP SWAP2 SWAP1 POP JUMP JUMPDEST PUSH32 0x596F7520646F6E7420686176652074686174206D75636820746F207769746864 PUSH1 0x0 DUP3 ADD MSTORE PUSH32 0x7261772100000000000000000000000000000000000000000000000000000000 PUSH1 0x20 DUP3 ADD MSTORE POP JUMP JUMPDEST PUSH32 0x546F6B656E207472616E73666572206661696C65640000000000000000000000 PUSH1 0x0 DUP3 ADD MSTORE POP JUMP JUMPDEST PUSH32 0x596F7520646F6E742068617665207468617420616D6F756E7421000000000000 PUSH1 0x0 DUP3 ADD MSTORE POP JUMP JUMPDEST PUSH32 0x506572207472616E73616374696F6E206C696D69740000000000000000000000 PUSH1 0x0 DUP3 ADD MSTORE POP JUMP JUMPDEST PUSH32 0x5553444300000000000000000000000000000000000000000000000000000000 PUSH1 0x0 DUP3 ADD MSTORE POP JUMP JUMPDEST PUSH32 0x4E6F7420756E6C6F636B65640000000000000000000000000000000000000000 PUSH1 0x0 DUP3 ADD MSTORE POP JUMP JUMPDEST PUSH32 0x5265656E7472616E637947756172643A207265656E7472616E742063616C6C00 PUSH1 0x0 DUP3 ADD MSTORE POP JUMP JUMPDEST PUSH32 0x75696E74206F766572666C6F772066726F6D206D756C7469706C69636174696F PUSH1 0x0 DUP3 ADD MSTORE PUSH32 0x6E00000000000000000000000000000000000000000000000000000000000000 PUSH1 0x20 DUP3 ADD MSTORE POP JUMP JUMPDEST PUSH2 0x304B DUP2 PUSH2 0x2CB5 JUMP JUMPDEST DUP2 EQ PUSH2 0x3056 JUMPI PUSH1 0x0 DUP1 REVERT JUMPDEST POP JUMP JUMPDEST PUSH2 0x3062 DUP2 PUSH2 0x2CC7 JUMP JUMPDEST DUP2 EQ PUSH2 0x306D JUMPI PUSH1 0x0 DUP1 REVERT JUMPDEST POP JUMP JUMPDEST PUSH2 0x3079 DUP2 PUSH2 0x2D00 JUMP JUMPDEST DUP2 EQ PUSH2 0x3084 JUMPI PUSH1 0x0 DUP1 REVERT JUMPDEST POP JUMP INVALID LOG2 PUSH5 0x6970667358 0x22 SLT KECCAK256 PUSH15 0x9AEDE98B1C2CE401FC921AC65562C 0xBF OR 0xCD 0xBF 0xEF PUSH19 0x2BFBD56E89620FCB478E64736F6C6343000807 STOP CALLER "
				},
				"gasEstimates": {
					"creation": {
						"codeDepositCost": "2495400",
						"executionCost": "infinite",
						"totalCost": "infinite"
					},
					"external": {
						"BTON()": "2645",
						"SPTR()": "2668",
						"WAND()": "2711",
						"addStable(string,address,uint256)": "infinite",
						"buyScepter(uint256,string)": "infinite",
						"cashOutScepter(uint256,uint256,string)": "infinite",
						"circulatingSupplyXDays(uint256)": "infinite",
						"claimLockedUSDC(address,string)": "infinite",
						"daysInCalculation()": "2540",
						"devWalletAddr()": "2604",
						"getBackingPrice()": "infinite",
						"getBuyPrice()": "infinite",
						"getCircSupplyXDays()": "infinite",
						"getGrowthFactor()": "infinite",
						"getSellFactor()": "infinite",
						"getSellPrice()": "infinite",
						"getTokensBoughtXDays()": "infinite",
						"getTokensSoldXDays()": "infinite",
						"growthFactor()": "2495",
						"res()": "2521",
						"riskTreasuryAddr()": "2583",
						"scepterTreasuryAddr()": "2647",
						"sellFactor()": "2518",
						"setDaysUsedInFactors(uint256)": "infinite",
						"stableERC20Info(string)": "infinite",
						"testUpdatetimeLockedminus(uint256)": "infinite",
						"testUpdatetimeLockedplus(uint256)": "infinite",
						"testwallet()": "2602",
						"timeLaunched()": "2496",
						"tokenStable()": "2668",
						"tokensBoughtXDays(uint256)": "infinite",
						"tokensSoldXDays(uint256)": "infinite",
						"transformScepterToBaton(uint256)": "infinite",
						"treasury1Addr()": "2624",
						"treasury1bal()": "2563",
						"whitelist(address)": "522",
						"withdrawStables(uint256)": "451",
						"withheldWithdrawals(address)": "infinite"
					},
					"internal": {
						"_safeTransferFrom(contract IERC20,address,address,uint256)": "infinite",
						"add(uint256,uint256)": "infinite",
						"decDiv18(uint256,uint256)": "infinite",
						"decMul18(uint256,uint256)": "infinite",
						"div(uint256,uint256)": "infinite",
						"mintBaton(uint256)": "infinite",
						"mul(uint256,uint256)": "infinite",
						"sub(uint256,uint256)": "infinite"
					}
				},
				"methodIdentifiers": {
					"BTON()": "c0ca6fb4",
					"SPTR()": "26ae486e",
					"WAND()": "d04d7908",
					"addStable(string,address,uint256)": "e5d98082",
					"buyScepter(uint256,string)": "862d1b35",
					"cashOutScepter(uint256,uint256,string)": "c0ce5889",
					"circulatingSupplyXDays(uint256)": "1a30e872",
					"claimLockedUSDC(address,string)": "bdad7f02",
					"daysInCalculation()": "67b48c91",
					"devWalletAddr()": "29982a32",
					"getBackingPrice()": "1f564a06",
					"getBuyPrice()": "018a25e8",
					"getCircSupplyXDays()": "0f65de3e",
					"getGrowthFactor()": "93f7b711",
					"getSellFactor()": "0ccaf04f",
					"getSellPrice()": "43d32e9c",
					"getTokensBoughtXDays()": "71cd58f9",
					"getTokensSoldXDays()": "d82eddf2",
					"growthFactor()": "ee620868",
					"res()": "6f10e285",
					"riskTreasuryAddr()": "047729b0",
					"scepterTreasuryAddr()": "c079d7f6",
					"sellFactor()": "cbff4617",
					"setDaysUsedInFactors(uint256)": "fc361443",
					"stableERC20Info(string)": "a475bf48",
					"testUpdatetimeLockedminus(uint256)": "164c8501",
					"testUpdatetimeLockedplus(uint256)": "67e927a8",
					"testwallet()": "eee05f5e",
					"timeLaunched()": "3c6eb17a",
					"tokenStable()": "7087a7a5",
					"tokensBoughtXDays(uint256)": "2a9f0fb1",
					"tokensSoldXDays(uint256)": "1514c976",
					"transformScepterToBaton(uint256)": "1bc9cc45",
					"treasury1Addr()": "fbbb4589",
					"treasury1bal()": "35453307",
					"whitelist(address)": "9b19251a",
					"withdrawStables(uint256)": "39ad95d6",
					"withheldWithdrawals(address)": "12b2ed94"
				}
			},
			"storageLayout": {
				"storage": [
					{
						"astId": 10,
						"contract": "WandInstruments.sol:testSticks",
						"label": "_status",
						"offset": 0,
						"slot": "0",
						"type": "t_uint256"
					},
					{
						"astId": 52,
						"contract": "WandInstruments.sol:testSticks",
						"label": "growthFactor",
						"offset": 0,
						"slot": "1",
						"type": "t_uint256"
					},
					{
						"astId": 54,
						"contract": "WandInstruments.sol:testSticks",
						"label": "sellFactor",
						"offset": 0,
						"slot": "2",
						"type": "t_uint256"
					},
					{
						"astId": 56,
						"contract": "WandInstruments.sol:testSticks",
						"label": "backingPrice",
						"offset": 0,
						"slot": "3",
						"type": "t_uint256"
					},
					{
						"astId": 58,
						"contract": "WandInstruments.sol:testSticks",
						"label": "scepterBuyPrice",
						"offset": 0,
						"slot": "4",
						"type": "t_uint256"
					},
					{
						"astId": 60,
						"contract": "WandInstruments.sol:testSticks",
						"label": "scepterSellPrice",
						"offset": 0,
						"slot": "5",
						"type": "t_uint256"
					},
					{
						"astId": 62,
						"contract": "WandInstruments.sol:testSticks",
						"label": "treasuryUSDC",
						"offset": 0,
						"slot": "6",
						"type": "t_uint256"
					},
					{
						"astId": 64,
						"contract": "WandInstruments.sol:testSticks",
						"label": "treasury1Addr",
						"offset": 0,
						"slot": "7",
						"type": "t_address"
					},
					{
						"astId": 66,
						"contract": "WandInstruments.sol:testSticks",
						"label": "scepterTreasuryAddr",
						"offset": 0,
						"slot": "8",
						"type": "t_address"
					},
					{
						"astId": 68,
						"contract": "WandInstruments.sol:testSticks",
						"label": "riskTreasuryAddr",
						"offset": 0,
						"slot": "9",
						"type": "t_address"
					},
					{
						"astId": 70,
						"contract": "WandInstruments.sol:testSticks",
						"label": "devWalletAddr",
						"offset": 0,
						"slot": "10",
						"type": "t_address"
					},
					{
						"astId": 72,
						"contract": "WandInstruments.sol:testSticks",
						"label": "treasury1bal",
						"offset": 0,
						"slot": "11",
						"type": "t_uint256"
					},
					{
						"astId": 74,
						"contract": "WandInstruments.sol:testSticks",
						"label": "timeLaunched",
						"offset": 0,
						"slot": "12",
						"type": "t_uint256"
					},
					{
						"astId": 76,
						"contract": "WandInstruments.sol:testSticks",
						"label": "daysInCalculation",
						"offset": 0,
						"slot": "13",
						"type": "t_uint256"
					},
					{
						"astId": 79,
						"contract": "WandInstruments.sol:testSticks",
						"label": "ft5daybought",
						"offset": 0,
						"slot": "14",
						"type": "t_uint256"
					},
					{
						"astId": 82,
						"contract": "WandInstruments.sol:testSticks",
						"label": "ft5daysold",
						"offset": 0,
						"slot": "15",
						"type": "t_uint256"
					},
					{
						"astId": 85,
						"contract": "WandInstruments.sol:testSticks",
						"label": "double5daytokens",
						"offset": 0,
						"slot": "16",
						"type": "t_uint256"
					},
					{
						"astId": 87,
						"contract": "WandInstruments.sol:testSticks",
						"label": "res",
						"offset": 0,
						"slot": "17",
						"type": "t_int128"
					},
					{
						"astId": 90,
						"contract": "WandInstruments.sol:testSticks",
						"label": "testwallet",
						"offset": 0,
						"slot": "18",
						"type": "t_address"
					},
					{
						"astId": 93,
						"contract": "WandInstruments.sol:testSticks",
						"label": "SPTR",
						"offset": 0,
						"slot": "19",
						"type": "t_contract(IERC20)1332"
					},
					{
						"astId": 96,
						"contract": "WandInstruments.sol:testSticks",
						"label": "WAND",
						"offset": 0,
						"slot": "20",
						"type": "t_contract(IERC20)1332"
					},
					{
						"astId": 99,
						"contract": "WandInstruments.sol:testSticks",
						"label": "BTON",
						"offset": 0,
						"slot": "21",
						"type": "t_contract(IERC20)1332"
					},
					{
						"astId": 102,
						"contract": "WandInstruments.sol:testSticks",
						"label": "tokenStable",
						"offset": 0,
						"slot": "22",
						"type": "t_contract(IERC20)1332"
					},
					{
						"astId": 106,
						"contract": "WandInstruments.sol:testSticks",
						"label": "tokensBoughtXDays",
						"offset": 0,
						"slot": "23",
						"type": "t_mapping(t_uint256,t_uint256)"
					},
					{
						"astId": 110,
						"contract": "WandInstruments.sol:testSticks",
						"label": "tokensSoldXDays",
						"offset": 0,
						"slot": "24",
						"type": "t_mapping(t_uint256,t_uint256)"
					},
					{
						"astId": 114,
						"contract": "WandInstruments.sol:testSticks",
						"label": "circulatingSupplyXDays",
						"offset": 0,
						"slot": "25",
						"type": "t_mapping(t_uint256,t_uint256)"
					},
					{
						"astId": 124,
						"contract": "WandInstruments.sol:testSticks",
						"label": "stableERC20Info",
						"offset": 0,
						"slot": "26",
						"type": "t_mapping(t_string_memory_ptr,t_struct(stableTokensParams)119_storage)"
					},
					{
						"astId": 134,
						"contract": "WandInstruments.sol:testSticks",
						"label": "withheldWithdrawals",
						"offset": 0,
						"slot": "27",
						"type": "t_mapping(t_address,t_struct(lockedamounts)129_storage)"
					}
				],
				"types": {
					"t_address": {
						"encoding": "inplace",
						"label": "address",
						"numberOfBytes": "20"
					},
					"t_contract(IERC20)1332": {
						"encoding": "inplace",
						"label": "contract IERC20",
						"numberOfBytes": "20"
					},
					"t_int128": {
						"encoding": "inplace",
						"label": "int128",
						"numberOfBytes": "16"
					},
					"t_mapping(t_address,t_struct(lockedamounts)129_storage)": {
						"encoding": "mapping",
						"key": "t_address",
						"label": "mapping(address => struct testSticks.lockedamounts)",
						"numberOfBytes": "32",
						"value": "t_struct(lockedamounts)129_storage"
					},
					"t_mapping(t_string_memory_ptr,t_struct(stableTokensParams)119_storage)": {
						"encoding": "mapping",
						"key": "t_string_memory_ptr",
						"label": "mapping(string => struct testSticks.stableTokensParams)",
						"numberOfBytes": "32",
						"value": "t_struct(stableTokensParams)119_storage"
					},
					"t_mapping(t_uint256,t_uint256)": {
						"encoding": "mapping",
						"key": "t_uint256",
						"label": "mapping(uint256 => uint256)",
						"numberOfBytes": "32",
						"value": "t_uint256"
					},
					"t_string_memory_ptr": {
						"encoding": "bytes",
						"label": "string",
						"numberOfBytes": "32"
					},
					"t_struct(lockedamounts)129_storage": {
						"encoding": "inplace",
						"label": "struct testSticks.lockedamounts",
						"members": [
							{
								"astId": 126,
								"contract": "WandInstruments.sol:testSticks",
								"label": "timeUnlocked",
								"offset": 0,
								"slot": "0",
								"type": "t_uint256"
							},
							{
								"astId": 128,
								"contract": "WandInstruments.sol:testSticks",
								"label": "amounts",
								"offset": 0,
								"slot": "1",
								"type": "t_uint256"
							}
						],
						"numberOfBytes": "64"
					},
					"t_struct(stableTokensParams)119_storage": {
						"encoding": "inplace",
						"label": "struct testSticks.stableTokensParams",
						"members": [
							{
								"astId": 116,
								"contract": "WandInstruments.sol:testSticks",
								"label": "contractAddress",
								"offset": 0,
								"slot": "0",
								"type": "t_address"
							},
							{
								"astId": 118,
								"contract": "WandInstruments.sol:testSticks",
								"label": "tokenDecimals",
								"offset": 0,
								"slot": "1",
								"type": "t_uint256"
							}
						],
						"numberOfBytes": "64"
					},
					"t_uint256": {
						"encoding": "inplace",
						"label": "uint256",
						"numberOfBytes": "32"
					}
				}
			},
			"userdoc": {
				"events": {
					"sceptersBought(address,uint256)": {
						"notice": "Events*"
					}
				},
				"kind": "user",
				"methods": {},
				"version": 1
			}
		}
	}
}