{
	"WandInstruments.sol": {
		"testSticks": {
			"abi": [
				{
					"inputs": [],
					"stateMutability": "nonpayable",
					"type": "constructor"
				},
				{
					"anonymous": false,
					"inputs": [
						{
							"indexed": true,
							"internalType": "address",
							"name": "_from",
							"type": "address"
						},
						{
							"indexed": false,
							"internalType": "uint256",
							"name": "_amount",
							"type": "uint256"
						}
					],
					"name": "sceptersBought",
					"type": "event"
				},
				{
					"anonymous": false,
					"inputs": [
						{
							"indexed": true,
							"internalType": "address",
							"name": "_from",
							"type": "address"
						},
						{
							"indexed": false,
							"internalType": "uint256",
							"name": "_amount",
							"type": "uint256"
						}
					],
					"name": "sceptersSold",
					"type": "event"
				},
				{
					"inputs": [],
					"name": "BTON",
					"outputs": [
						{
							"internalType": "contract IERC20",
							"name": "",
							"type": "address"
						}
					],
					"stateMutability": "view",
					"type": "function"
				},
				{
					"inputs": [],
					"name": "SPTR",
					"outputs": [
						{
							"internalType": "contract IERC20",
							"name": "",
							"type": "address"
						}
					],
					"stateMutability": "view",
					"type": "function"
				},
				{
					"inputs": [],
					"name": "WAND",
					"outputs": [
						{
							"internalType": "contract IERC20",
							"name": "",
							"type": "address"
						}
					],
					"stateMutability": "view",
					"type": "function"
				},
				{
					"inputs": [
						{
							"internalType": "string",
							"name": "_ticker",
							"type": "string"
						},
						{
							"internalType": "address",
							"name": "_addr",
							"type": "address"
						},
						{
							"internalType": "uint256",
							"name": "_dec",
							"type": "uint256"
						}
					],
					"name": "addStable",
					"outputs": [],
					"stateMutability": "nonpayable",
					"type": "function"
				},
				{
					"inputs": [
						{
							"internalType": "uint256",
							"name": "amountSCPtoBuy",
							"type": "uint256"
						},
						{
							"internalType": "string",
							"name": "_stableChosen",
							"type": "string"
						}
					],
					"name": "buyScepter",
					"outputs": [],
					"stateMutability": "nonpayable",
					"type": "function"
				},
				{
					"inputs": [
						{
							"internalType": "uint256",
							"name": "amountSCPtoSell",
							"type": "uint256"
						},
						{
							"internalType": "uint256",
							"name": "timeChosenLocked",
							"type": "uint256"
						},
						{
							"internalType": "string",
							"name": "_stableChosen",
							"type": "string"
						}
					],
					"name": "cashOutScepter",
					"outputs": [],
					"stateMutability": "payable",
					"type": "function"
				},
				{
					"inputs": [
						{
							"internalType": "uint256",
							"name": "",
							"type": "uint256"
						}
					],
					"name": "circulatingSupplyXDays",
					"outputs": [
						{
							"internalType": "uint256",
							"name": "",
							"type": "uint256"
						}
					],
					"stateMutability": "view",
					"type": "function"
				},
				{
					"inputs": [
						{
							"internalType": "address",
							"name": "_claimant",
							"type": "address"
						},
						{
							"internalType": "string",
							"name": "_stableChosen",
							"type": "string"
						}
					],
					"name": "claimLockedUSDC",
					"outputs": [],
					"stateMutability": "nonpayable",
					"type": "function"
				},
				{
					"inputs": [],
					"name": "daysInCalculation",
					"outputs": [
						{
							"internalType": "uint256",
							"name": "",
							"type": "uint256"
						}
					],
					"stateMutability": "view",
					"type": "function"
				},
				{
					"inputs": [],
					"name": "devWalletAddr",
					"outputs": [
						{
							"internalType": "address",
							"name": "",
							"type": "address"
						}
					],
					"stateMutability": "view",
					"type": "function"
				},
				{
					"inputs": [],
					"name": "getBackingPrice",
					"outputs": [
						{
							"internalType": "uint256",
							"name": "",
							"type": "uint256"
						}
					],
					"stateMutability": "view",
					"type": "function"
				},
				{
					"inputs": [],
					"name": "getBuyPrice",
					"outputs": [
						{
							"internalType": "uint256",
							"name": "",
							"type": "uint256"
						}
					],
					"stateMutability": "view",
					"type": "function"
				},
				{
					"inputs": [],
					"name": "getCircSupplyXDays",
					"outputs": [
						{
							"internalType": "uint256",
							"name": "",
							"type": "uint256"
						}
					],
					"stateMutability": "view",
					"type": "function"
				},
				{
					"inputs": [],
					"name": "getGrowthFactor",
					"outputs": [
						{
							"internalType": "uint256",
							"name": "",
							"type": "uint256"
						}
					],
					"stateMutability": "view",
					"type": "function"
				},
				{
					"inputs": [],
					"name": "getSellFactor",
					"outputs": [
						{
							"internalType": "uint256",
							"name": "",
							"type": "uint256"
						}
					],
					"stateMutability": "view",
					"type": "function"
				},
				{
					"inputs": [],
					"name": "getSellPrice",
					"outputs": [
						{
							"internalType": "uint256",
							"name": "",
							"type": "uint256"
						}
					],
					"stateMutability": "view",
					"type": "function"
				},
				{
					"inputs": [],
					"name": "getTokensBoughtXDays",
					"outputs": [
						{
							"internalType": "uint256",
							"name": "",
							"type": "uint256"
						}
					],
					"stateMutability": "view",
					"type": "function"
				},
				{
					"inputs": [],
					"name": "getTokensSoldXDays",
					"outputs": [
						{
							"internalType": "uint256",
							"name": "",
							"type": "uint256"
						}
					],
					"stateMutability": "view",
					"type": "function"
				},
				{
					"inputs": [],
					"name": "growthFactor",
					"outputs": [
						{
							"internalType": "uint256",
							"name": "",
							"type": "uint256"
						}
					],
					"stateMutability": "view",
					"type": "function"
				},
				{
					"inputs": [],
					"name": "res",
					"outputs": [
						{
							"internalType": "int128",
							"name": "",
							"type": "int128"
						}
					],
					"stateMutability": "view",
					"type": "function"
				},
				{
					"inputs": [],
					"name": "riskTreasuryAddr",
					"outputs": [
						{
							"internalType": "address",
							"name": "",
							"type": "address"
						}
					],
					"stateMutability": "view",
					"type": "function"
				},
				{
					"inputs": [],
					"name": "scepterTreasuryAddr",
					"outputs": [
						{
							"internalType": "address",
							"name": "",
							"type": "address"
						}
					],
					"stateMutability": "view",
					"type": "function"
				},
				{
					"inputs": [],
					"name": "sellFactor",
					"outputs": [
						{
							"internalType": "uint256",
							"name": "",
							"type": "uint256"
						}
					],
					"stateMutability": "view",
					"type": "function"
				},
				{
					"inputs": [
						{
							"internalType": "uint256",
							"name": "numDays",
							"type": "uint256"
						}
					],
					"name": "setDaysUsedInFactors",
					"outputs": [],
					"stateMutability": "nonpayable",
					"type": "function"
				},
				{
					"inputs": [
						{
							"internalType": "string",
							"name": "",
							"type": "string"
						}
					],
					"name": "stableERC20Info",
					"outputs": [
						{
							"internalType": "address",
							"name": "contractAddress",
							"type": "address"
						},
						{
							"internalType": "uint256",
							"name": "tokenDecimals",
							"type": "uint256"
						}
					],
					"stateMutability": "view",
					"type": "function"
				},
				{
					"inputs": [
						{
							"internalType": "uint256",
							"name": "amt",
							"type": "uint256"
						}
					],
					"name": "testUpdatetimeLockedminus",
					"outputs": [],
					"stateMutability": "nonpayable",
					"type": "function"
				},
				{
					"inputs": [
						{
							"internalType": "uint256",
							"name": "amt",
							"type": "uint256"
						}
					],
					"name": "testUpdatetimeLockedplus",
					"outputs": [],
					"stateMutability": "nonpayable",
					"type": "function"
				},
				{
					"inputs": [],
					"name": "testwallet",
					"outputs": [
						{
							"internalType": "address",
							"name": "",
							"type": "address"
						}
					],
					"stateMutability": "view",
					"type": "function"
				},
				{
					"inputs": [],
					"name": "timeLaunched",
					"outputs": [
						{
							"internalType": "uint256",
							"name": "",
							"type": "uint256"
						}
					],
					"stateMutability": "view",
					"type": "function"
				},
				{
					"inputs": [],
					"name": "tokenStable",
					"outputs": [
						{
							"internalType": "contract IERC20",
							"name": "",
							"type": "address"
						}
					],
					"stateMutability": "view",
					"type": "function"
				},
				{
					"inputs": [
						{
							"internalType": "uint256",
							"name": "",
							"type": "uint256"
						}
					],
					"name": "tokensBoughtXDays",
					"outputs": [
						{
							"internalType": "uint256",
							"name": "",
							"type": "uint256"
						}
					],
					"stateMutability": "view",
					"type": "function"
				},
				{
					"inputs": [
						{
							"internalType": "uint256",
							"name": "",
							"type": "uint256"
						}
					],
					"name": "tokensSoldXDays",
					"outputs": [
						{
							"internalType": "uint256",
							"name": "",
							"type": "uint256"
						}
					],
					"stateMutability": "view",
					"type": "function"
				},
				{
					"inputs": [
						{
							"internalType": "uint256",
							"name": "amountSCPtoSwap",
							"type": "uint256"
						}
					],
					"name": "transformScepterToBaton",
					"outputs": [],
					"stateMutability": "payable",
					"type": "function"
				},
				{
					"inputs": [],
					"name": "treasury1Addr",
					"outputs": [
						{
							"internalType": "address",
							"name": "",
							"type": "address"
						}
					],
					"stateMutability": "view",
					"type": "function"
				},
				{
					"inputs": [],
					"name": "treasury1bal",
					"outputs": [
						{
							"internalType": "uint256",
							"name": "",
							"type": "uint256"
						}
					],
					"stateMutability": "view",
					"type": "function"
				},
				{
					"inputs": [
						{
							"internalType": "address",
							"name": "_addr",
							"type": "address"
						}
					],
					"name": "whitelist",
					"outputs": [],
					"stateMutability": "nonpayable",
					"type": "function"
				},
				{
					"inputs": [
						{
							"internalType": "uint256",
							"name": "_amtToWithdraw",
							"type": "uint256"
						}
					],
					"name": "withdrawStables",
					"outputs": [],
					"stateMutability": "nonpayable",
					"type": "function"
				},
				{
					"inputs": [
						{
							"internalType": "address",
							"name": "",
							"type": "address"
						}
					],
					"name": "withheldWithdrawals",
					"outputs": [
						{
							"internalType": "uint256",
							"name": "timeUnlocked",
							"type": "uint256"
						},
						{
							"internalType": "uint256",
							"name": "amounts",
							"type": "uint256"
						}
					],
					"stateMutability": "view",
					"type": "function"
				}
			],
			"devdoc": {
				"kind": "dev",
				"methods": {},
				"version": 1
			},
			"evm": {
				"assembly": "    /* \"WandInstruments.sol\":152:15412  contract testSticks is ReentrancyGuard{\r... */\n  mstore(0x40, 0x80)\n    /* \"WandInstruments.sol\":357:363  10**18 */\n  0x0de0b6b3a7640000\n    /* \"WandInstruments.sol\":833:838  50000 */\n  0xc350\n    /* \"WandInstruments.sol\":833:849  50000*(DECIMALS) */\n  tag_1\n  swap2\n  swap1\n  tag_2\n  jump\t// in\ntag_1:\n    /* \"WandInstruments.sol\":803:849  uint256 public treasury1bal = 50000*(DECIMALS) */\n  0x0b\n  sstore\n    /* \"WandInstruments.sol\":999:1005  100000 */\n  0x0186a0\n    /* \"WandInstruments.sol\":968:1005  uint256 private ft5daybought = 100000 */\n  0x0e\n  sstore\n    /* \"WandInstruments.sol\":1041:1046  90000 */\n  0x015f90\n    /* \"WandInstruments.sol\":1012:1046  uint256 private ft5daysold = 90000 */\n  0x0f\n  sstore\n    /* \"WandInstruments.sol\":1088:1094  600000 */\n  0x0927c0\n    /* \"WandInstruments.sol\":1053:1094  uint256 private double5daytokens = 600000 */\n  0x10\n  sstore\n    /* \"WandInstruments.sol\":1215:1257  0x617F2E2fD72FD9D5503197092aC168c91465E7f2 */\n  0x617f2e2fd72fd9d5503197092ac168c91465e7f2\n    /* \"WandInstruments.sol\":1187:1257  address public testwallet = 0x617F2E2fD72FD9D5503197092aC168c91465E7f2 */\n  0x12\n  exp(0x0100, 0x00)\n  dup2\n  sload\n  dup2\n  0xffffffffffffffffffffffffffffffffffffffff\n  mul\n  not\n  and\n  swap1\n  dup4\n  0xffffffffffffffffffffffffffffffffffffffff\n  and\n  mul\n  or\n  swap1\n  sstore\n  pop\n    /* \"WandInstruments.sol\":2476:3729  constructor() {   \r... */\n  callvalue\n  dup1\n  iszero\n  tag_3\n  jumpi\n  0x00\n  dup1\n  revert\ntag_3:\n  pop\n    /* \"ReentrancyGuard.sol\":1734:1735  1 */\n  0x01\n    /* \"ReentrancyGuard.sol\":1845:1852  _status */\n  0x00\n    /* \"ReentrancyGuard.sol\":1845:1867  _status = _NOT_ENTERED */\n  dup2\n  swap1\n  sstore\n  pop\n    /* \"WandInstruments.sol\":2573:2615  0xd9145CCE52D386f254917e481eB44e9943F39138 */\n  0xd9145cce52d386f254917e481eb44e9943f39138\n    /* \"WandInstruments.sol\":2559:2563  SPTR */\n  0x13\n  0x00\n    /* \"WandInstruments.sol\":2559:2616  SPTR = IERC20(0xd9145CCE52D386f254917e481eB44e9943F39138) */\n  0x0100\n  exp\n  dup2\n  sload\n  dup2\n  0xffffffffffffffffffffffffffffffffffffffff\n  mul\n  not\n  and\n  swap1\n  dup4\n  0xffffffffffffffffffffffffffffffffffffffff\n  and\n  mul\n  or\n  swap1\n  sstore\n  pop\n    /* \"WandInstruments.sol\":2641:2683  0xf8e81D47203A594245E36C48e151709F0C19fBe8 */\n  0xf8e81d47203a594245e36c48e151709f0c19fbe8\n    /* \"WandInstruments.sol\":2627:2631  WAND */\n  0x14\n  0x00\n    /* \"WandInstruments.sol\":2627:2684  WAND = IERC20(0xf8e81D47203A594245E36C48e151709F0C19fBe8) */\n  0x0100\n  exp\n  dup2\n  sload\n  dup2\n  0xffffffffffffffffffffffffffffffffffffffff\n  mul\n  not\n  and\n  swap1\n  dup4\n  0xffffffffffffffffffffffffffffffffffffffff\n  and\n  mul\n  or\n  swap1\n  sstore\n  pop\n    /* \"WandInstruments.sol\":2709:2751  0xD7ACd2a9FD159E69Bb102A1ca21C9a3e3A5F771B */\n  0xd7acd2a9fd159e69bb102a1ca21c9a3e3a5f771b\n    /* \"WandInstruments.sol\":2695:2699  BTON */\n  0x15\n  0x00\n    /* \"WandInstruments.sol\":2695:2752  BTON = IERC20(0xD7ACd2a9FD159E69Bb102A1ca21C9a3e3A5F771B) */\n  0x0100\n  exp\n  dup2\n  sload\n  dup2\n  0xffffffffffffffffffffffffffffffffffffffff\n  mul\n  not\n  and\n  swap1\n  dup4\n  0xffffffffffffffffffffffffffffffffffffffff\n  and\n  mul\n  or\n  swap1\n  sstore\n  pop\n    /* \"WandInstruments.sol\":2864:2906  0x2F8895b08D8F226b19895d46154faB7096fB2593 */\n  0x2f8895b08d8f226b19895d46154fab7096fb2593\n    /* \"WandInstruments.sol\":2822:2837  stableERC20Info */\n  0x1a\n    /* \"WandInstruments.sol\":2822:2845  stableERC20Info[\"USDC\"] */\n  mload(0x40)\n  tag_8\n  swap1\n  tag_9\n  jump\t// in\ntag_8:\n  swap1\n  dup2\n  mstore\n  0x20\n  add\n  mload(0x40)\n  dup1\n  swap2\n  sub\n  swap1\n  keccak256\n    /* \"WandInstruments.sol\":2822:2861  stableERC20Info[\"USDC\"].contractAddress */\n  0x00\n  add\n  0x00\n    /* \"WandInstruments.sol\":2822:2906  stableERC20Info[\"USDC\"].contractAddress = 0x2F8895b08D8F226b19895d46154faB7096fB2593 */\n  0x0100\n  exp\n  dup2\n  sload\n  dup2\n  0xffffffffffffffffffffffffffffffffffffffff\n  mul\n  not\n  and\n  swap1\n  dup4\n  0xffffffffffffffffffffffffffffffffffffffff\n  and\n  mul\n  or\n  swap1\n  sstore\n  pop\n    /* \"WandInstruments.sol\":2957:2958  6 */\n  0x06\n    /* \"WandInstruments.sol\":2917:2932  stableERC20Info */\n  0x1a\n    /* \"WandInstruments.sol\":2917:2940  stableERC20Info[\"USDC\"] */\n  mload(0x40)\n  tag_10\n  swap1\n  tag_9\n  jump\t// in\ntag_10:\n  swap1\n  dup2\n  mstore\n  0x20\n  add\n  mload(0x40)\n  dup1\n  swap2\n  sub\n  swap1\n  keccak256\n    /* \"WandInstruments.sol\":2917:2954  stableERC20Info[\"USDC\"].tokenDecimals */\n  0x01\n  add\n    /* \"WandInstruments.sol\":2917:2958  stableERC20Info[\"USDC\"].tokenDecimals = 6 */\n  dup2\n  swap1\n  sstore\n  pop\n    /* \"WandInstruments.sol\":3030:3072  0x2A4a8Ab6A0Bc0d377098F8688F77003833BC1C9d */\n  0x2a4a8ab6a0bc0d377098f8688f77003833bc1c9d\n    /* \"WandInstruments.sol\":2989:3004  stableERC20Info */\n  0x1a\n    /* \"WandInstruments.sol\":2989:3011  stableERC20Info[\"DAI\"] */\n  mload(0x40)\n  tag_11\n  swap1\n  tag_12\n  jump\t// in\ntag_11:\n  swap1\n  dup2\n  mstore\n  0x20\n  add\n  mload(0x40)\n  dup1\n  swap2\n  sub\n  swap1\n  keccak256\n    /* \"WandInstruments.sol\":2989:3027  stableERC20Info[\"DAI\"].contractAddress */\n  0x00\n  add\n  0x00\n    /* \"WandInstruments.sol\":2989:3072  stableERC20Info[\"DAI\"].contractAddress = 0x2A4a8Ab6A0Bc0d377098F8688F77003833BC1C9d */\n  0x0100\n  exp\n  dup2\n  sload\n  dup2\n  0xffffffffffffffffffffffffffffffffffffffff\n  mul\n  not\n  and\n  swap1\n  dup4\n  0xffffffffffffffffffffffffffffffffffffffff\n  and\n  mul\n  or\n  swap1\n  sstore\n  pop\n    /* \"WandInstruments.sol\":3122:3124  18 */\n  0x12\n    /* \"WandInstruments.sol\":3083:3098  stableERC20Info */\n  0x1a\n    /* \"WandInstruments.sol\":3083:3105  stableERC20Info[\"DAI\"] */\n  mload(0x40)\n  tag_13\n  swap1\n  tag_12\n  jump\t// in\ntag_13:\n  swap1\n  dup2\n  mstore\n  0x20\n  add\n  mload(0x40)\n  dup1\n  swap2\n  sub\n  swap1\n  keccak256\n    /* \"WandInstruments.sol\":3083:3119  stableERC20Info[\"DAI\"].tokenDecimals */\n  0x01\n  add\n    /* \"WandInstruments.sol\":3083:3124  stableERC20Info[\"DAI\"].tokenDecimals = 18 */\n  dup2\n  swap1\n  sstore\n  pop\n    /* \"WandInstruments.sol\":3198:3240  0xdc301622e621166BD8E82f2cA0A26c13Ad0BE355 */\n  0xdc301622e621166bd8e82f2ca0a26c13ad0be355\n    /* \"WandInstruments.sol\":3156:3171  stableERC20Info */\n  0x1a\n    /* \"WandInstruments.sol\":3156:3179  stableERC20Info[\"FRAX\"] */\n  mload(0x40)\n  tag_14\n  swap1\n  tag_15\n  jump\t// in\ntag_14:\n  swap1\n  dup2\n  mstore\n  0x20\n  add\n  mload(0x40)\n  dup1\n  swap2\n  sub\n  swap1\n  keccak256\n    /* \"WandInstruments.sol\":3156:3195  stableERC20Info[\"FRAX\"].contractAddress */\n  0x00\n  add\n  0x00\n    /* \"WandInstruments.sol\":3156:3240  stableERC20Info[\"FRAX\"].contractAddress = 0xdc301622e621166BD8E82f2cA0A26c13Ad0BE355 */\n  0x0100\n  exp\n  dup2\n  sload\n  dup2\n  0xffffffffffffffffffffffffffffffffffffffff\n  mul\n  not\n  and\n  swap1\n  dup4\n  0xffffffffffffffffffffffffffffffffffffffff\n  and\n  mul\n  or\n  swap1\n  sstore\n  pop\n    /* \"WandInstruments.sol\":3291:3293  18 */\n  0x12\n    /* \"WandInstruments.sol\":3251:3266  stableERC20Info */\n  0x1a\n    /* \"WandInstruments.sol\":3251:3274  stableERC20Info[\"FRAX\"] */\n  mload(0x40)\n  tag_16\n  swap1\n  tag_15\n  jump\t// in\ntag_16:\n  swap1\n  dup2\n  mstore\n  0x20\n  add\n  mload(0x40)\n  dup1\n  swap2\n  sub\n  swap1\n  keccak256\n    /* \"WandInstruments.sol\":3251:3288  stableERC20Info[\"FRAX\"].tokenDecimals */\n  0x01\n  add\n    /* \"WandInstruments.sol\":3251:3293  stableERC20Info[\"FRAX\"].tokenDecimals = 18 */\n  dup2\n  swap1\n  sstore\n  pop\n    /* \"WandInstruments.sol\":3332:3374  0x617F2E2fD72FD9D5503197092aC168c91465E7f2 */\n  0x617f2e2fd72fd9d5503197092ac168c91465e7f2\n    /* \"WandInstruments.sol\":3316:3329  treasury1Addr */\n  0x07\n  0x00\n    /* \"WandInstruments.sol\":3316:3374  treasury1Addr = 0x617F2E2fD72FD9D5503197092aC168c91465E7f2 */\n  0x0100\n  exp\n  dup2\n  sload\n  dup2\n  0xffffffffffffffffffffffffffffffffffffffff\n  mul\n  not\n  and\n  swap1\n  dup4\n  0xffffffffffffffffffffffffffffffffffffffff\n  and\n  mul\n  or\n  swap1\n  sstore\n  pop\n    /* \"WandInstruments.sol\":3573:3588  block.timestamp */\n  timestamp\n    /* \"WandInstruments.sol\":3558:3570  timeLaunched */\n  0x0c\n    /* \"WandInstruments.sol\":3558:3588  timeLaunched = block.timestamp */\n  dup2\n  swap1\n  sstore\n  pop\n    /* \"WandInstruments.sol\":3619:3625  5 days */\n  0x069780\n    /* \"WandInstruments.sol\":3599:3616  daysInCalculation */\n  0x0d\n    /* \"WandInstruments.sol\":3599:3625  daysInCalculation = 5 days */\n  dup2\n  swap1\n  sstore\n  pop\n    /* \"WandInstruments.sol\":152:15412  contract testSticks is ReentrancyGuard{\r... */\n  jump(tag_17)\n    /* \"#utility.yul\":7:407   */\ntag_19:\n    /* \"#utility.yul\":167:170   */\n  0x00\n    /* \"#utility.yul\":188:272   */\n  tag_21\n    /* \"#utility.yul\":270:271   */\n  0x04\n    /* \"#utility.yul\":265:268   */\n  dup4\n    /* \"#utility.yul\":188:272   */\n  tag_22\n  jump\t// in\ntag_21:\n    /* \"#utility.yul\":181:272   */\n  swap2\n  pop\n    /* \"#utility.yul\":281:374   */\n  tag_23\n    /* \"#utility.yul\":370:373   */\n  dup3\n    /* \"#utility.yul\":281:374   */\n  tag_24\n  jump\t// in\ntag_23:\n    /* \"#utility.yul\":399:400   */\n  0x04\n    /* \"#utility.yul\":394:397   */\n  dup3\n    /* \"#utility.yul\":390:401   */\n  add\n    /* \"#utility.yul\":383:401   */\n  swap1\n  pop\n    /* \"#utility.yul\":7:407   */\n  swap2\n  swap1\n  pop\n  jump\t// out\n    /* \"#utility.yul\":413:813   */\ntag_25:\n    /* \"#utility.yul\":573:576   */\n  0x00\n    /* \"#utility.yul\":594:678   */\n  tag_27\n    /* \"#utility.yul\":676:677   */\n  0x03\n    /* \"#utility.yul\":671:674   */\n  dup4\n    /* \"#utility.yul\":594:678   */\n  tag_22\n  jump\t// in\ntag_27:\n    /* \"#utility.yul\":587:678   */\n  swap2\n  pop\n    /* \"#utility.yul\":687:780   */\n  tag_28\n    /* \"#utility.yul\":776:779   */\n  dup3\n    /* \"#utility.yul\":687:780   */\n  tag_29\n  jump\t// in\ntag_28:\n    /* \"#utility.yul\":805:806   */\n  0x03\n    /* \"#utility.yul\":800:803   */\n  dup3\n    /* \"#utility.yul\":796:807   */\n  add\n    /* \"#utility.yul\":789:807   */\n  swap1\n  pop\n    /* \"#utility.yul\":413:813   */\n  swap2\n  swap1\n  pop\n  jump\t// out\n    /* \"#utility.yul\":819:1219   */\ntag_30:\n    /* \"#utility.yul\":979:982   */\n  0x00\n    /* \"#utility.yul\":1000:1084   */\n  tag_32\n    /* \"#utility.yul\":1082:1083   */\n  0x04\n    /* \"#utility.yul\":1077:1080   */\n  dup4\n    /* \"#utility.yul\":1000:1084   */\n  tag_22\n  jump\t// in\ntag_32:\n    /* \"#utility.yul\":993:1084   */\n  swap2\n  pop\n    /* \"#utility.yul\":1093:1186   */\n  tag_33\n    /* \"#utility.yul\":1182:1185   */\n  dup3\n    /* \"#utility.yul\":1093:1186   */\n  tag_34\n  jump\t// in\ntag_33:\n    /* \"#utility.yul\":1211:1212   */\n  0x04\n    /* \"#utility.yul\":1206:1209   */\n  dup3\n    /* \"#utility.yul\":1202:1213   */\n  add\n    /* \"#utility.yul\":1195:1213   */\n  swap1\n  pop\n    /* \"#utility.yul\":819:1219   */\n  swap2\n  swap1\n  pop\n  jump\t// out\n    /* \"#utility.yul\":1225:1606   */\ntag_15:\n    /* \"#utility.yul\":1410:1413   */\n  0x00\n    /* \"#utility.yul\":1432:1580   */\n  tag_36\n    /* \"#utility.yul\":1576:1579   */\n  dup3\n    /* \"#utility.yul\":1432:1580   */\n  tag_19\n  jump\t// in\ntag_36:\n    /* \"#utility.yul\":1425:1580   */\n  swap2\n  pop\n    /* \"#utility.yul\":1597:1600   */\n  dup2\n    /* \"#utility.yul\":1590:1600   */\n  swap1\n  pop\n    /* \"#utility.yul\":1225:1606   */\n  swap2\n  swap1\n  pop\n  jump\t// out\n    /* \"#utility.yul\":1612:1993   */\ntag_12:\n    /* \"#utility.yul\":1797:1800   */\n  0x00\n    /* \"#utility.yul\":1819:1967   */\n  tag_38\n    /* \"#utility.yul\":1963:1966   */\n  dup3\n    /* \"#utility.yul\":1819:1967   */\n  tag_25\n  jump\t// in\ntag_38:\n    /* \"#utility.yul\":1812:1967   */\n  swap2\n  pop\n    /* \"#utility.yul\":1984:1987   */\n  dup2\n    /* \"#utility.yul\":1977:1987   */\n  swap1\n  pop\n    /* \"#utility.yul\":1612:1993   */\n  swap2\n  swap1\n  pop\n  jump\t// out\n    /* \"#utility.yul\":1999:2380   */\ntag_9:\n    /* \"#utility.yul\":2184:2187   */\n  0x00\n    /* \"#utility.yul\":2206:2354   */\n  tag_40\n    /* \"#utility.yul\":2350:2353   */\n  dup3\n    /* \"#utility.yul\":2206:2354   */\n  tag_30\n  jump\t// in\ntag_40:\n    /* \"#utility.yul\":2199:2354   */\n  swap2\n  pop\n    /* \"#utility.yul\":2371:2374   */\n  dup2\n    /* \"#utility.yul\":2364:2374   */\n  swap1\n  pop\n    /* \"#utility.yul\":1999:2380   */\n  swap2\n  swap1\n  pop\n  jump\t// out\n    /* \"#utility.yul\":2386:2534   */\ntag_22:\n    /* \"#utility.yul\":2488:2499   */\n  0x00\n    /* \"#utility.yul\":2525:2528   */\n  dup2\n    /* \"#utility.yul\":2510:2528   */\n  swap1\n  pop\n    /* \"#utility.yul\":2386:2534   */\n  swap3\n  swap2\n  pop\n  pop\n  jump\t// out\n    /* \"#utility.yul\":2540:2888   */\ntag_2:\n    /* \"#utility.yul\":2580:2587   */\n  0x00\n    /* \"#utility.yul\":2603:2623   */\n  tag_43\n    /* \"#utility.yul\":2621:2622   */\n  dup3\n    /* \"#utility.yul\":2603:2623   */\n  tag_44\n  jump\t// in\ntag_43:\n    /* \"#utility.yul\":2598:2623   */\n  swap2\n  pop\n    /* \"#utility.yul\":2637:2657   */\n  tag_45\n    /* \"#utility.yul\":2655:2656   */\n  dup4\n    /* \"#utility.yul\":2637:2657   */\n  tag_44\n  jump\t// in\ntag_45:\n    /* \"#utility.yul\":2632:2657   */\n  swap3\n  pop\n    /* \"#utility.yul\":2825:2826   */\n  dup2\n    /* \"#utility.yul\":2757:2823   */\n  0xffffffffffffffffffffffffffffffffffffffffffffffffffffffffffffffff\n    /* \"#utility.yul\":2753:2827   */\n  div\n    /* \"#utility.yul\":2750:2751   */\n  dup4\n    /* \"#utility.yul\":2747:2828   */\n  gt\n    /* \"#utility.yul\":2742:2743   */\n  dup3\n    /* \"#utility.yul\":2735:2744   */\n  iszero\n    /* \"#utility.yul\":2728:2745   */\n  iszero\n    /* \"#utility.yul\":2724:2829   */\n  and\n    /* \"#utility.yul\":2721:2852   */\n  iszero\n  tag_46\n  jumpi\n    /* \"#utility.yul\":2832:2850   */\n  tag_47\n  tag_48\n  jump\t// in\ntag_47:\n    /* \"#utility.yul\":2721:2852   */\ntag_46:\n    /* \"#utility.yul\":2880:2881   */\n  dup3\n    /* \"#utility.yul\":2877:2878   */\n  dup3\n    /* \"#utility.yul\":2873:2882   */\n  mul\n    /* \"#utility.yul\":2862:2882   */\n  swap1\n  pop\n    /* \"#utility.yul\":2540:2888   */\n  swap3\n  swap2\n  pop\n  pop\n  jump\t// out\n    /* \"#utility.yul\":2894:2971   */\ntag_44:\n    /* \"#utility.yul\":2931:2938   */\n  0x00\n    /* \"#utility.yul\":2960:2965   */\n  dup2\n    /* \"#utility.yul\":2949:2965   */\n  swap1\n  pop\n    /* \"#utility.yul\":2894:2971   */\n  swap2\n  swap1\n  pop\n  jump\t// out\n    /* \"#utility.yul\":2977:3157   */\ntag_48:\n    /* \"#utility.yul\":3025:3102   */\n  0x4e487b7100000000000000000000000000000000000000000000000000000000\n    /* \"#utility.yul\":3022:3023   */\n  0x00\n    /* \"#utility.yul\":3015:3103   */\n  mstore\n    /* \"#utility.yul\":3122:3126   */\n  0x11\n    /* \"#utility.yul\":3119:3120   */\n  0x04\n    /* \"#utility.yul\":3112:3127   */\n  mstore\n    /* \"#utility.yul\":3146:3150   */\n  0x24\n    /* \"#utility.yul\":3143:3144   */\n  0x00\n    /* \"#utility.yul\":3136:3151   */\n  revert\n    /* \"#utility.yul\":3163:3317   */\ntag_24:\n    /* \"#utility.yul\":3303:3309   */\n  0x4652415800000000000000000000000000000000000000000000000000000000\n    /* \"#utility.yul\":3299:3300   */\n  0x00\n    /* \"#utility.yul\":3291:3297   */\n  dup3\n    /* \"#utility.yul\":3287:3301   */\n  add\n    /* \"#utility.yul\":3280:3310   */\n  mstore\n    /* \"#utility.yul\":3163:3317   */\n  pop\n  jump\t// out\n    /* \"#utility.yul\":3323:3476   */\ntag_29:\n    /* \"#utility.yul\":3463:3468   */\n  0x4441490000000000000000000000000000000000000000000000000000000000\n    /* \"#utility.yul\":3459:3460   */\n  0x00\n    /* \"#utility.yul\":3451:3457   */\n  dup3\n    /* \"#utility.yul\":3447:3461   */\n  add\n    /* \"#utility.yul\":3440:3469   */\n  mstore\n    /* \"#utility.yul\":3323:3476   */\n  pop\n  jump\t// out\n    /* \"#utility.yul\":3482:3636   */\ntag_34:\n    /* \"#utility.yul\":3622:3628   */\n  0x5553444300000000000000000000000000000000000000000000000000000000\n    /* \"#utility.yul\":3618:3619   */\n  0x00\n    /* \"#utility.yul\":3610:3616   */\n  dup3\n    /* \"#utility.yul\":3606:3620   */\n  add\n    /* \"#utility.yul\":3599:3629   */\n  mstore\n    /* \"#utility.yul\":3482:3636   */\n  pop\n  jump\t// out\n    /* \"WandInstruments.sol\":152:15412  contract testSticks is ReentrancyGuard{\r... */\ntag_17:\n  dataSize(sub_0)\n  dup1\n  dataOffset(sub_0)\n  0x00\n  codecopy\n  0x00\n  return\nstop\n\nsub_0: assembly {\n        /* \"WandInstruments.sol\":152:15412  contract testSticks is ReentrancyGuard{\r... */\n      mstore(0x40, 0x80)\n      jumpi(tag_1, lt(calldatasize, 0x04))\n      shr(0xe0, calldataload(0x00))\n      dup1\n      0x6f10e285\n      gt\n      tag_40\n      jumpi\n      dup1\n      0xc0ca6fb4\n      gt\n      tag_41\n      jumpi\n      dup1\n      0xe5d98082\n      gt\n      tag_42\n      jumpi\n      dup1\n      0xe5d98082\n      eq\n      tag_35\n      jumpi\n      dup1\n      0xee620868\n      eq\n      tag_36\n      jumpi\n      dup1\n      0xeee05f5e\n      eq\n      tag_37\n      jumpi\n      dup1\n      0xfbbb4589\n      eq\n      tag_38\n      jumpi\n      dup1\n      0xfc361443\n      eq\n      tag_39\n      jumpi\n      jump(tag_1)\n    tag_42:\n      dup1\n      0xc0ca6fb4\n      eq\n      tag_30\n      jumpi\n      dup1\n      0xc0ce5889\n      eq\n      tag_31\n      jumpi\n      dup1\n      0xcbff4617\n      eq\n      tag_32\n      jumpi\n      dup1\n      0xd04d7908\n      eq\n      tag_33\n      jumpi\n      dup1\n      0xd82eddf2\n      eq\n      tag_34\n      jumpi\n      jump(tag_1)\n    tag_41:\n      dup1\n      0x93f7b711\n      gt\n      tag_43\n      jumpi\n      dup1\n      0x93f7b711\n      eq\n      tag_25\n      jumpi\n      dup1\n      0x9b19251a\n      eq\n      tag_26\n      jumpi\n      dup1\n      0xa475bf48\n      eq\n      tag_27\n      jumpi\n      dup1\n      0xbdad7f02\n      eq\n      tag_28\n      jumpi\n      dup1\n      0xc079d7f6\n      eq\n      tag_29\n      jumpi\n      jump(tag_1)\n    tag_43:\n      dup1\n      0x6f10e285\n      eq\n      tag_21\n      jumpi\n      dup1\n      0x7087a7a5\n      eq\n      tag_22\n      jumpi\n      dup1\n      0x71cd58f9\n      eq\n      tag_23\n      jumpi\n      dup1\n      0x862d1b35\n      eq\n      tag_24\n      jumpi\n      jump(tag_1)\n    tag_40:\n      dup1\n      0x1f564a06\n      gt\n      tag_44\n      jumpi\n      dup1\n      0x39ad95d6\n      gt\n      tag_45\n      jumpi\n      dup1\n      0x39ad95d6\n      eq\n      tag_16\n      jumpi\n      dup1\n      0x3c6eb17a\n      eq\n      tag_17\n      jumpi\n      dup1\n      0x43d32e9c\n      eq\n      tag_18\n      jumpi\n      dup1\n      0x67b48c91\n      eq\n      tag_19\n      jumpi\n      dup1\n      0x67e927a8\n      eq\n      tag_20\n      jumpi\n      jump(tag_1)\n    tag_45:\n      dup1\n      0x1f564a06\n      eq\n      tag_11\n      jumpi\n      dup1\n      0x26ae486e\n      eq\n      tag_12\n      jumpi\n      dup1\n      0x29982a32\n      eq\n      tag_13\n      jumpi\n      dup1\n      0x2a9f0fb1\n      eq\n      tag_14\n      jumpi\n      dup1\n      0x35453307\n      eq\n      tag_15\n      jumpi\n      jump(tag_1)\n    tag_44:\n      dup1\n      0x12b2ed94\n      gt\n      tag_46\n      jumpi\n      dup1\n      0x12b2ed94\n      eq\n      tag_6\n      jumpi\n      dup1\n      0x1514c976\n      eq\n      tag_7\n      jumpi\n      dup1\n      0x164c8501\n      eq\n      tag_8\n      jumpi\n      dup1\n      0x1a30e872\n      eq\n      tag_9\n      jumpi\n      dup1\n      0x1bc9cc45\n      eq\n      tag_10\n      jumpi\n      jump(tag_1)\n    tag_46:\n      dup1\n      0x018a25e8\n      eq\n      tag_2\n      jumpi\n      dup1\n      0x047729b0\n      eq\n      tag_3\n      jumpi\n      dup1\n      0x0ccaf04f\n      eq\n      tag_4\n      jumpi\n      dup1\n      0x0f65de3e\n      eq\n      tag_5\n      jumpi\n    tag_1:\n      0x00\n      dup1\n      revert\n        /* \"WandInstruments.sol\":11612:11886  function getBuyPrice() external view returns (uint256){\r... */\n    tag_2:\n      callvalue\n      dup1\n      iszero\n      tag_47\n      jumpi\n      0x00\n      dup1\n      revert\n    tag_47:\n      pop\n      tag_48\n      tag_49\n      jump\t// in\n    tag_48:\n      mload(0x40)\n      tag_50\n      swap2\n      swap1\n      tag_51\n      jump\t// in\n    tag_50:\n      mload(0x40)\n      dup1\n      swap2\n      sub\n      swap1\n      return\n        /* \"WandInstruments.sol\":696:727  address public riskTreasuryAddr */\n    tag_3:\n      callvalue\n      dup1\n      iszero\n      tag_52\n      jumpi\n      0x00\n      dup1\n      revert\n    tag_52:\n      pop\n      tag_53\n      tag_54\n      jump\t// in\n    tag_53:\n      mload(0x40)\n      tag_55\n      swap2\n      swap1\n      tag_56\n      jump\t// in\n    tag_55:\n      mload(0x40)\n      dup1\n      swap2\n      sub\n      swap1\n      return\n        /* \"WandInstruments.sol\":10492:11387  function getSellFactor() external view returns (uint256){\r... */\n    tag_4:\n      callvalue\n      dup1\n      iszero\n      tag_57\n      jumpi\n      0x00\n      dup1\n      revert\n    tag_57:\n      pop\n      tag_58\n      tag_59\n      jump\t// in\n    tag_58:\n      mload(0x40)\n      tag_60\n      swap2\n      swap1\n      tag_51\n      jump\t// in\n    tag_60:\n      mload(0x40)\n      dup1\n      swap2\n      sub\n      swap1\n      return\n        /* \"WandInstruments.sol\":14374:14809  function getCircSupplyXDays() external view returns (uint256){\r... */\n    tag_5:\n      callvalue\n      dup1\n      iszero\n      tag_61\n      jumpi\n      0x00\n      dup1\n      revert\n    tag_61:\n      pop\n      tag_62\n      tag_63\n      jump\t// in\n    tag_62:\n      mload(0x40)\n      tag_64\n      swap2\n      swap1\n      tag_51\n      jump\t// in\n    tag_64:\n      mload(0x40)\n      dup1\n      swap2\n      sub\n      swap1\n      return\n        /* \"WandInstruments.sol\":2069:2129  mapping(address => lockedamounts) public withheldWithdrawals */\n    tag_6:\n      callvalue\n      dup1\n      iszero\n      tag_65\n      jumpi\n      0x00\n      dup1\n      revert\n    tag_65:\n      pop\n      tag_66\n      0x04\n      dup1\n      calldatasize\n      sub\n      dup2\n      add\n      swap1\n      tag_67\n      swap2\n      swap1\n      tag_68\n      jump\t// in\n    tag_67:\n      tag_69\n      jump\t// in\n    tag_66:\n      mload(0x40)\n      tag_70\n      swap3\n      swap2\n      swap1\n      tag_71\n      jump\t// in\n    tag_70:\n      mload(0x40)\n      dup1\n      swap2\n      sub\n      swap1\n      return\n        /* \"WandInstruments.sol\":1652:1702  mapping(uint256 => uint256) public tokensSoldXDays */\n    tag_7:\n      callvalue\n      dup1\n      iszero\n      tag_72\n      jumpi\n      0x00\n      dup1\n      revert\n    tag_72:\n      pop\n      tag_73\n      0x04\n      dup1\n      calldatasize\n      sub\n      dup2\n      add\n      swap1\n      tag_74\n      swap2\n      swap1\n      tag_75\n      jump\t// in\n    tag_74:\n      tag_76\n      jump\t// in\n    tag_73:\n      mload(0x40)\n      tag_77\n      swap2\n      swap1\n      tag_51\n      jump\t// in\n    tag_77:\n      mload(0x40)\n      dup1\n      swap2\n      sub\n      swap1\n      return\n        /* \"WandInstruments.sol\":12932:13434  function testUpdatetimeLockedminus(uint256 amt) public  {\r... */\n    tag_8:\n      callvalue\n      dup1\n      iszero\n      tag_78\n      jumpi\n      0x00\n      dup1\n      revert\n    tag_78:\n      pop\n      tag_79\n      0x04\n      dup1\n      calldatasize\n      sub\n      dup2\n      add\n      swap1\n      tag_80\n      swap2\n      swap1\n      tag_75\n      jump\t// in\n    tag_80:\n      tag_81\n      jump\t// in\n    tag_79:\n      stop\n        /* \"WandInstruments.sol\":1709:1766  mapping(uint256 => uint256) public circulatingSupplyXDays */\n    tag_9:\n      callvalue\n      dup1\n      iszero\n      tag_82\n      jumpi\n      0x00\n      dup1\n      revert\n    tag_82:\n      pop\n      tag_83\n      0x04\n      dup1\n      calldatasize\n      sub\n      dup2\n      add\n      swap1\n      tag_84\n      swap2\n      swap1\n      tag_75\n      jump\t// in\n    tag_84:\n      tag_85\n      jump\t// in\n    tag_83:\n      mload(0x40)\n      tag_86\n      swap2\n      swap1\n      tag_51\n      jump\t// in\n    tag_86:\n      mload(0x40)\n      dup1\n      swap2\n      sub\n      swap1\n      return\n        /* \"WandInstruments.sol\":7035:7782  function transformScepterToBaton(uint256 amountSCPtoSwap) public payable{\r... */\n    tag_10:\n      tag_87\n      0x04\n      dup1\n      calldatasize\n      sub\n      dup2\n      add\n      swap1\n      tag_88\n      swap2\n      swap1\n      tag_75\n      jump\t// in\n    tag_88:\n      tag_89\n      jump\t// in\n    tag_87:\n      stop\n        /* \"WandInstruments.sol\":11393:11606  function getBackingPrice() external view returns (uint256){\r... */\n    tag_11:\n      callvalue\n      dup1\n      iszero\n      tag_90\n      jumpi\n      0x00\n      dup1\n      revert\n    tag_90:\n      pop\n      tag_91\n      tag_92\n      jump\t// in\n    tag_91:\n      mload(0x40)\n      tag_93\n      swap2\n      swap1\n      tag_51\n      jump\t// in\n    tag_93:\n      mload(0x40)\n      dup1\n      swap2\n      sub\n      swap1\n      return\n        /* \"WandInstruments.sol\":1433:1451  IERC20 public SPTR */\n    tag_12:\n      callvalue\n      dup1\n      iszero\n      tag_94\n      jumpi\n      0x00\n      dup1\n      revert\n    tag_94:\n      pop\n      tag_95\n      tag_96\n      jump\t// in\n    tag_95:\n      mload(0x40)\n      tag_97\n      swap2\n      swap1\n      tag_98\n      jump\t// in\n    tag_97:\n      mload(0x40)\n      dup1\n      swap2\n      sub\n      swap1\n      return\n        /* \"WandInstruments.sol\":734:762  address public devWalletAddr */\n    tag_13:\n      callvalue\n      dup1\n      iszero\n      tag_99\n      jumpi\n      0x00\n      dup1\n      revert\n    tag_99:\n      pop\n      tag_100\n      tag_101\n      jump\t// in\n    tag_100:\n      mload(0x40)\n      tag_102\n      swap2\n      swap1\n      tag_56\n      jump\t// in\n    tag_102:\n      mload(0x40)\n      dup1\n      swap2\n      sub\n      swap1\n      return\n        /* \"WandInstruments.sol\":1593:1645  mapping(uint256 => uint256) public tokensBoughtXDays */\n    tag_14:\n      callvalue\n      dup1\n      iszero\n      tag_103\n      jumpi\n      0x00\n      dup1\n      revert\n    tag_103:\n      pop\n      tag_104\n      0x04\n      dup1\n      calldatasize\n      sub\n      dup2\n      add\n      swap1\n      tag_105\n      swap2\n      swap1\n      tag_75\n      jump\t// in\n    tag_105:\n      tag_106\n      jump\t// in\n    tag_104:\n      mload(0x40)\n      tag_107\n      swap2\n      swap1\n      tag_51\n      jump\t// in\n    tag_107:\n      mload(0x40)\n      dup1\n      swap2\n      sub\n      swap1\n      return\n        /* \"WandInstruments.sol\":803:849  uint256 public treasury1bal = 50000*(DECIMALS) */\n    tag_15:\n      callvalue\n      dup1\n      iszero\n      tag_108\n      jumpi\n      0x00\n      dup1\n      revert\n    tag_108:\n      pop\n      tag_109\n      tag_110\n      jump\t// in\n    tag_109:\n      mload(0x40)\n      tag_111\n      swap2\n      swap1\n      tag_51\n      jump\t// in\n    tag_111:\n      mload(0x40)\n      dup1\n      swap2\n      sub\n      swap1\n      return\n        /* \"WandInstruments.sol\":12364:12440  function withdrawStables(uint256 _amtToWithdraw) public onlyOwner {\r... */\n    tag_16:\n      callvalue\n      dup1\n      iszero\n      tag_112\n      jumpi\n      0x00\n      dup1\n      revert\n    tag_112:\n      pop\n      tag_113\n      0x04\n      dup1\n      calldatasize\n      sub\n      dup2\n      add\n      swap1\n      tag_114\n      swap2\n      swap1\n      tag_75\n      jump\t// in\n    tag_114:\n      tag_115\n      jump\t// in\n    tag_113:\n      stop\n        /* \"WandInstruments.sol\":878:905  uint256 public timeLaunched */\n    tag_17:\n      callvalue\n      dup1\n      iszero\n      tag_116\n      jumpi\n      0x00\n      dup1\n      revert\n    tag_116:\n      pop\n      tag_117\n      tag_118\n      jump\t// in\n    tag_117:\n      mload(0x40)\n      tag_119\n      swap2\n      swap1\n      tag_51\n      jump\t// in\n    tag_119:\n      mload(0x40)\n      dup1\n      swap2\n      sub\n      swap1\n      return\n        /* \"WandInstruments.sol\":11892:12165  function getSellPrice() external view returns (uint256){\r... */\n    tag_18:\n      callvalue\n      dup1\n      iszero\n      tag_120\n      jumpi\n      0x00\n      dup1\n      revert\n    tag_120:\n      pop\n      tag_121\n      tag_122\n      jump\t// in\n    tag_121:\n      mload(0x40)\n      tag_123\n      swap2\n      swap1\n      tag_51\n      jump\t// in\n    tag_123:\n      mload(0x40)\n      dup1\n      swap2\n      sub\n      swap1\n      return\n        /* \"WandInstruments.sol\":912:944  uint256 public daysInCalculation */\n    tag_19:\n      callvalue\n      dup1\n      iszero\n      tag_124\n      jumpi\n      0x00\n      dup1\n      revert\n    tag_124:\n      pop\n      tag_125\n      tag_126\n      jump\t// in\n    tag_125:\n      mload(0x40)\n      tag_127\n      swap2\n      swap1\n      tag_51\n      jump\t// in\n    tag_127:\n      mload(0x40)\n      dup1\n      swap2\n      sub\n      swap1\n      return\n        /* \"WandInstruments.sol\":12448:12920  function testUpdatetimeLockedplus(uint256 amt) public  {\r... */\n    tag_20:\n      callvalue\n      dup1\n      iszero\n      tag_128\n      jumpi\n      0x00\n      dup1\n      revert\n    tag_128:\n      pop\n      tag_129\n      0x04\n      dup1\n      calldatasize\n      sub\n      dup2\n      add\n      swap1\n      tag_130\n      swap2\n      swap1\n      tag_75\n      jump\t// in\n    tag_130:\n      tag_131\n      jump\t// in\n    tag_129:\n      stop\n        /* \"WandInstruments.sol\":1163:1180  int128 public res */\n    tag_21:\n      callvalue\n      dup1\n      iszero\n      tag_132\n      jumpi\n      0x00\n      dup1\n      revert\n    tag_132:\n      pop\n      tag_133\n      tag_134\n      jump\t// in\n    tag_133:\n      mload(0x40)\n      tag_135\n      swap2\n      swap1\n      tag_136\n      jump\t// in\n    tag_135:\n      mload(0x40)\n      dup1\n      swap2\n      sub\n      swap1\n      return\n        /* \"WandInstruments.sol\":1510:1535  IERC20 public tokenStable */\n    tag_22:\n      callvalue\n      dup1\n      iszero\n      tag_137\n      jumpi\n      0x00\n      dup1\n      revert\n    tag_137:\n      pop\n      tag_138\n      tag_139\n      jump\t// in\n    tag_138:\n      mload(0x40)\n      tag_140\n      swap2\n      swap1\n      tag_98\n      jump\t// in\n    tag_140:\n      mload(0x40)\n      dup1\n      swap2\n      sub\n      swap1\n      return\n        /* \"WandInstruments.sol\":13548:14076  function getTokensBoughtXDays() external view returns (uint256){\r... */\n    tag_23:\n      callvalue\n      dup1\n      iszero\n      tag_141\n      jumpi\n      0x00\n      dup1\n      revert\n    tag_141:\n      pop\n      tag_142\n      tag_143\n      jump\t// in\n    tag_142:\n      mload(0x40)\n      tag_144\n      swap2\n      swap1\n      tag_51\n      jump\t// in\n    tag_144:\n      mload(0x40)\n      dup1\n      swap2\n      sub\n      swap1\n      return\n        /* \"WandInstruments.sol\":7797:9035  function buyScepter(uint256 amountSCPtoBuy, string memory _stableChosen) public nonReentrant{\r... */\n    tag_24:\n      callvalue\n      dup1\n      iszero\n      tag_145\n      jumpi\n      0x00\n      dup1\n      revert\n    tag_145:\n      pop\n      tag_146\n      0x04\n      dup1\n      calldatasize\n      sub\n      dup2\n      add\n      swap1\n      tag_147\n      swap2\n      swap1\n      tag_148\n      jump\t// in\n    tag_147:\n      tag_149\n      jump\t// in\n    tag_146:\n      stop\n        /* \"WandInstruments.sol\":9583:10486  function getGrowthFactor() external view returns (uint256){\r... */\n    tag_25:\n      callvalue\n      dup1\n      iszero\n      tag_150\n      jumpi\n      0x00\n      dup1\n      revert\n    tag_150:\n      pop\n      tag_151\n      tag_152\n      jump\t// in\n    tag_151:\n      mload(0x40)\n      tag_153\n      swap2\n      swap1\n      tag_51\n      jump\t// in\n    tag_153:\n      mload(0x40)\n      dup1\n      swap2\n      sub\n      swap1\n      return\n        /* \"WandInstruments.sol\":14817:14906  function whitelist(address _addr) public onlyOwner {  \r... */\n    tag_26:\n      callvalue\n      dup1\n      iszero\n      tag_154\n      jumpi\n      0x00\n      dup1\n      revert\n    tag_154:\n      pop\n      tag_155\n      0x04\n      dup1\n      calldatasize\n      sub\n      dup2\n      add\n      swap1\n      tag_156\n      swap2\n      swap1\n      tag_68\n      jump\t// in\n    tag_156:\n      tag_157\n      jump\t// in\n    tag_155:\n      stop\n        /* \"WandInstruments.sol\":1897:1958  mapping (string => stableTokensParams) public stableERC20Info */\n    tag_27:\n      callvalue\n      dup1\n      iszero\n      tag_158\n      jumpi\n      0x00\n      dup1\n      revert\n    tag_158:\n      pop\n      tag_159\n      0x04\n      dup1\n      calldatasize\n      sub\n      dup2\n      add\n      swap1\n      tag_160\n      swap2\n      swap1\n      tag_161\n      jump\t// in\n    tag_160:\n      tag_162\n      jump\t// in\n    tag_159:\n      mload(0x40)\n      tag_163\n      swap3\n      swap2\n      swap1\n      tag_164\n      jump\t// in\n    tag_163:\n      mload(0x40)\n      dup1\n      swap2\n      sub\n      swap1\n      return\n        /* \"WandInstruments.sol\":9043:9550  function claimLockedUSDC(address _claimant, string memory _stableChosen) public {\r... */\n    tag_28:\n      callvalue\n      dup1\n      iszero\n      tag_165\n      jumpi\n      0x00\n      dup1\n      revert\n    tag_165:\n      pop\n      tag_166\n      0x04\n      dup1\n      calldatasize\n      sub\n      dup2\n      add\n      swap1\n      tag_167\n      swap2\n      swap1\n      tag_168\n      jump\t// in\n    tag_167:\n      tag_169\n      jump\t// in\n    tag_166:\n      stop\n        /* \"WandInstruments.sol\":655:689  address public scepterTreasuryAddr */\n    tag_29:\n      callvalue\n      dup1\n      iszero\n      tag_170\n      jumpi\n      0x00\n      dup1\n      revert\n    tag_170:\n      pop\n      tag_171\n      tag_172\n      jump\t// in\n    tag_171:\n      mload(0x40)\n      tag_173\n      swap2\n      swap1\n      tag_56\n      jump\t// in\n    tag_173:\n      mload(0x40)\n      dup1\n      swap2\n      sub\n      swap1\n      return\n        /* \"WandInstruments.sol\":1483:1501  IERC20 public BTON */\n    tag_30:\n      callvalue\n      dup1\n      iszero\n      tag_174\n      jumpi\n      0x00\n      dup1\n      revert\n    tag_174:\n      pop\n      tag_175\n      tag_176\n      jump\t// in\n    tag_175:\n      mload(0x40)\n      tag_177\n      swap2\n      swap1\n      tag_98\n      jump\t// in\n    tag_177:\n      mload(0x40)\n      dup1\n      swap2\n      sub\n      swap1\n      return\n        /* \"WandInstruments.sol\":5301:7027  function cashOutScepter(uint256 amountSCPtoSell, uint256 timeChosenLocked, string memory _stableChosen) public payable{\r... */\n    tag_31:\n      tag_178\n      0x04\n      dup1\n      calldatasize\n      sub\n      dup2\n      add\n      swap1\n      tag_179\n      swap2\n      swap1\n      tag_180\n      jump\t// in\n    tag_179:\n      tag_181\n      jump\t// in\n    tag_178:\n      stop\n        /* \"WandInstruments.sol\":406:431  uint256 public sellFactor */\n    tag_32:\n      callvalue\n      dup1\n      iszero\n      tag_182\n      jumpi\n      0x00\n      dup1\n      revert\n    tag_182:\n      pop\n      tag_183\n      tag_184\n      jump\t// in\n    tag_183:\n      mload(0x40)\n      tag_185\n      swap2\n      swap1\n      tag_51\n      jump\t// in\n    tag_185:\n      mload(0x40)\n      dup1\n      swap2\n      sub\n      swap1\n      return\n        /* \"WandInstruments.sol\":1458:1476  IERC20 public WAND */\n    tag_33:\n      callvalue\n      dup1\n      iszero\n      tag_186\n      jumpi\n      0x00\n      dup1\n      revert\n    tag_186:\n      pop\n      tag_187\n      tag_188\n      jump\t// in\n    tag_187:\n      mload(0x40)\n      tag_189\n      swap2\n      swap1\n      tag_98\n      jump\t// in\n    tag_189:\n      mload(0x40)\n      dup1\n      swap2\n      sub\n      swap1\n      return\n        /* \"WandInstruments.sol\":14082:14368  function getTokensSoldXDays() external view returns (uint256){\r... */\n    tag_34:\n      callvalue\n      dup1\n      iszero\n      tag_190\n      jumpi\n      0x00\n      dup1\n      revert\n    tag_190:\n      pop\n      tag_191\n      tag_192\n      jump\t// in\n    tag_191:\n      mload(0x40)\n      tag_193\n      swap2\n      swap1\n      tag_51\n      jump\t// in\n    tag_193:\n      mload(0x40)\n      dup1\n      swap2\n      sub\n      swap1\n      return\n        /* \"WandInstruments.sol\":14914:15133  function addStable(string memory _ticker, address _addr, uint256 _dec) public onlyOwner {\r... */\n    tag_35:\n      callvalue\n      dup1\n      iszero\n      tag_194\n      jumpi\n      0x00\n      dup1\n      revert\n    tag_194:\n      pop\n      tag_195\n      0x04\n      dup1\n      calldatasize\n      sub\n      dup2\n      add\n      swap1\n      tag_196\n      swap2\n      swap1\n      tag_197\n      jump\t// in\n    tag_196:\n      tag_198\n      jump\t// in\n    tag_195:\n      stop\n        /* \"WandInstruments.sol\":372:399  uint256 public growthFactor */\n    tag_36:\n      callvalue\n      dup1\n      iszero\n      tag_199\n      jumpi\n      0x00\n      dup1\n      revert\n    tag_199:\n      pop\n      tag_200\n      tag_201\n      jump\t// in\n    tag_200:\n      mload(0x40)\n      tag_202\n      swap2\n      swap1\n      tag_51\n      jump\t// in\n    tag_202:\n      mload(0x40)\n      dup1\n      swap2\n      sub\n      swap1\n      return\n        /* \"WandInstruments.sol\":1187:1257  address public testwallet = 0x617F2E2fD72FD9D5503197092aC168c91465E7f2 */\n    tag_37:\n      callvalue\n      dup1\n      iszero\n      tag_203\n      jumpi\n      0x00\n      dup1\n      revert\n    tag_203:\n      pop\n      tag_204\n      tag_205\n      jump\t// in\n    tag_204:\n      mload(0x40)\n      tag_206\n      swap2\n      swap1\n      tag_56\n      jump\t// in\n    tag_206:\n      mload(0x40)\n      dup1\n      swap2\n      sub\n      swap1\n      return\n        /* \"WandInstruments.sol\":620:648  address public treasury1Addr */\n    tag_38:\n      callvalue\n      dup1\n      iszero\n      tag_207\n      jumpi\n      0x00\n      dup1\n      revert\n    tag_207:\n      pop\n      tag_208\n      tag_209\n      jump\t// in\n    tag_208:\n      mload(0x40)\n      tag_210\n      swap2\n      swap1\n      tag_56\n      jump\t// in\n    tag_210:\n      mload(0x40)\n      dup1\n      swap2\n      sub\n      swap1\n      return\n        /* \"WandInstruments.sol\":12196:12352  function setDaysUsedInFactors(uint256 numDays) public {  \r... */\n    tag_39:\n      callvalue\n      dup1\n      iszero\n      tag_211\n      jumpi\n      0x00\n      dup1\n      revert\n    tag_211:\n      pop\n      tag_212\n      0x04\n      dup1\n      calldatasize\n      sub\n      dup2\n      add\n      swap1\n      tag_213\n      swap2\n      swap1\n      tag_75\n      jump\t// in\n    tag_213:\n      tag_214\n      jump\t// in\n    tag_212:\n      stop\n        /* \"WandInstruments.sol\":11612:11886  function getBuyPrice() external view returns (uint256){\r... */\n    tag_49:\n        /* \"WandInstruments.sol\":11658:11665  uint256 */\n      0x00\n        /* \"WandInstruments.sol\":11795:11876  decMul18(this.getBackingPrice() , (1200000000000000000 + this.getGrowthFactor())) */\n      tag_216\n        /* \"WandInstruments.sol\":11804:11808  this */\n      address\n        /* \"WandInstruments.sol\":11804:11824  this.getBackingPrice */\n      0xffffffffffffffffffffffffffffffffffffffff\n      and\n      0x1f564a06\n        /* \"WandInstruments.sol\":11804:11826  this.getBackingPrice() */\n      mload(0x40)\n      dup2\n      0xffffffff\n      and\n      0xe0\n      shl\n      dup2\n      mstore\n      0x04\n      add\n      0x20\n      mload(0x40)\n      dup1\n      dup4\n      sub\n      dup2\n      dup7\n      dup1\n      extcodesize\n      iszero\n      dup1\n      iszero\n      tag_217\n      jumpi\n      0x00\n      dup1\n      revert\n    tag_217:\n      pop\n      gas\n      staticcall\n      iszero\n      dup1\n      iszero\n      tag_219\n      jumpi\n      returndatasize\n      0x00\n      dup1\n      returndatacopy\n      revert(0x00, returndatasize)\n    tag_219:\n      pop\n      pop\n      pop\n      pop\n      mload(0x40)\n      returndatasize\n      not(0x1f)\n      0x1f\n      dup3\n      add\n      and\n      dup3\n      add\n      dup1\n      0x40\n      mstore\n      pop\n      dup2\n      add\n      swap1\n      tag_220\n      swap2\n      swap1\n      tag_221\n      jump\t// in\n    tag_220:\n        /* \"WandInstruments.sol\":11852:11856  this */\n      address\n        /* \"WandInstruments.sol\":11852:11872  this.getGrowthFactor */\n      0xffffffffffffffffffffffffffffffffffffffff\n      and\n      0x93f7b711\n        /* \"WandInstruments.sol\":11852:11874  this.getGrowthFactor() */\n      mload(0x40)\n      dup2\n      0xffffffff\n      and\n      0xe0\n      shl\n      dup2\n      mstore\n      0x04\n      add\n      0x20\n      mload(0x40)\n      dup1\n      dup4\n      sub\n      dup2\n      dup7\n      dup1\n      extcodesize\n      iszero\n      dup1\n      iszero\n      tag_222\n      jumpi\n      0x00\n      dup1\n      revert\n    tag_222:\n      pop\n      gas\n      staticcall\n      iszero\n      dup1\n      iszero\n      tag_224\n      jumpi\n      returndatasize\n      0x00\n      dup1\n      returndatacopy\n      revert(0x00, returndatasize)\n    tag_224:\n      pop\n      pop\n      pop\n      pop\n      mload(0x40)\n      returndatasize\n      not(0x1f)\n      0x1f\n      dup3\n      add\n      and\n      dup3\n      add\n      dup1\n      0x40\n      mstore\n      pop\n      dup2\n      add\n      swap1\n      tag_225\n      swap2\n      swap1\n      tag_221\n      jump\t// in\n    tag_225:\n        /* \"WandInstruments.sol\":11830:11849  1200000000000000000 */\n      0x10a741a462780000\n        /* \"WandInstruments.sol\":11830:11874  1200000000000000000 + this.getGrowthFactor() */\n      tag_226\n      swap2\n      swap1\n      tag_227\n      jump\t// in\n    tag_226:\n        /* \"WandInstruments.sol\":11795:11803  decMul18 */\n      tag_228\n        /* \"WandInstruments.sol\":11795:11876  decMul18(this.getBackingPrice() , (1200000000000000000 + this.getGrowthFactor())) */\n      jump\t// in\n    tag_216:\n        /* \"WandInstruments.sol\":11788:11876  return decMul18(this.getBackingPrice() , (1200000000000000000 + this.getGrowthFactor())) */\n      swap1\n      pop\n        /* \"WandInstruments.sol\":11612:11886  function getBuyPrice() external view returns (uint256){\r... */\n      swap1\n      jump\t// out\n        /* \"WandInstruments.sol\":696:727  address public riskTreasuryAddr */\n    tag_54:\n      0x09\n      0x00\n      swap1\n      sload\n      swap1\n      0x0100\n      exp\n      swap1\n      div\n      0xffffffffffffffffffffffffffffffffffffffff\n      and\n      dup2\n      jump\t// out\n        /* \"WandInstruments.sol\":10492:11387  function getSellFactor() external view returns (uint256){\r... */\n    tag_59:\n        /* \"WandInstruments.sol\":10540:10547  uint256 */\n      0x00\n        /* \"WandInstruments.sol\":10693:10704  uint256 _sF */\n      dup1\n        /* \"WandInstruments.sol\":10716:10739  uint256 xDaysCircSupply */\n      0x00\n        /* \"WandInstruments.sol\":10750:10765  uint256 numdays */\n      dup1\n        /* \"WandInstruments.sol\":10786:10791  86400 */\n      0x015180\n        /* \"WandInstruments.sol\":10768:10785  daysInCalculation */\n      sload(0x0d)\n        /* \"WandInstruments.sol\":10768:10791  daysInCalculation/86400 */\n      tag_230\n      swap2\n      swap1\n      tag_231\n      jump\t// in\n    tag_230:\n        /* \"WandInstruments.sol\":10750:10791  uint256 numdays = daysInCalculation/86400 */\n      swap1\n      pop\n        /* \"WandInstruments.sol\":10802:10826  uint256 daySinceLaunched */\n      0x00\n        /* \"WandInstruments.sol\":10864:10869  86400 */\n      0x015180\n        /* \"WandInstruments.sol\":10848:10860  timeLaunched */\n      sload(0x0c)\n        /* \"WandInstruments.sol\":10830:10845  block.timestamp */\n      timestamp\n        /* \"WandInstruments.sol\":10830:10860  block.timestamp - timeLaunched */\n      tag_232\n      swap2\n      swap1\n      tag_233\n      jump\t// in\n    tag_232:\n        /* \"WandInstruments.sol\":10829:10869  (block.timestamp - timeLaunched) / 86400 */\n      tag_234\n      swap2\n      swap1\n      tag_231\n      jump\t// in\n    tag_234:\n        /* \"WandInstruments.sol\":10802:10869  uint256 daySinceLaunched = (block.timestamp - timeLaunched) / 86400 */\n      swap1\n      pop\n        /* \"WandInstruments.sol\":10880:10889  uint256 d */\n      0x00\n        /* \"WandInstruments.sol\":10926:10927  0 */\n      dup1\n        /* \"WandInstruments.sol\":10906:10922  daySinceLaunched */\n      dup3\n        /* \"WandInstruments.sol\":10906:10927  daySinceLaunched == 0 */\n      eq\n        /* \"WandInstruments.sol\":10902:11194  if (daySinceLaunched == 0) {\r... */\n      iszero\n      tag_235\n      jumpi\n        /* \"WandInstruments.sol\":10958:10980  circulatingSupplyXDays */\n      0x19\n        /* \"WandInstruments.sol\":10958:10983  circulatingSupplyXDays[0] */\n      0x00\n        /* \"WandInstruments.sol\":10981:10982  0 */\n      dup1\n        /* \"WandInstruments.sol\":10958:10983  circulatingSupplyXDays[0] */\n      dup2\n      mstore\n      0x20\n      add\n      swap1\n      dup2\n      mstore\n      0x20\n      add\n      0x00\n      keccak256\n      sload\n        /* \"WandInstruments.sol\":10940:10983  xDaysCircSupply = circulatingSupplyXDays[0] */\n      swap4\n      pop\n        /* \"WandInstruments.sol\":10902:11194  if (daySinceLaunched == 0) {\r... */\n      jump(tag_236)\n    tag_235:\n        /* \"WandInstruments.sol\":11052:11059  numdays */\n      dup3\n        /* \"WandInstruments.sol\":11033:11049  daySinceLaunched */\n      dup3\n        /* \"WandInstruments.sol\":11033:11059  daySinceLaunched - numdays */\n      tag_240\n      swap2\n      swap1\n      tag_233\n      jump\t// in\n    tag_240:\n        /* \"WandInstruments.sol\":11029:11059  d = daySinceLaunched - numdays */\n      swap1\n      pop\n        /* \"WandInstruments.sol\":11024:11183  for (d = daySinceLaunched - numdays; d < daySinceLaunched; d++) {  //for loop example\r... */\n    tag_237:\n        /* \"WandInstruments.sol\":11065:11081  daySinceLaunched */\n      dup2\n        /* \"WandInstruments.sol\":11061:11062  d */\n      dup2\n        /* \"WandInstruments.sol\":11061:11081  d < daySinceLaunched */\n      lt\n        /* \"WandInstruments.sol\":11024:11183  for (d = daySinceLaunched - numdays; d < daySinceLaunched; d++) {  //for loop example\r... */\n      iszero\n      tag_238\n      jumpi\n        /* \"WandInstruments.sol\":11142:11164  circulatingSupplyXDays */\n      0x19\n        /* \"WandInstruments.sol\":11142:11167  circulatingSupplyXDays[d] */\n      0x00\n        /* \"WandInstruments.sol\":11165:11166  d */\n      dup3\n        /* \"WandInstruments.sol\":11142:11167  circulatingSupplyXDays[d] */\n      dup2\n      mstore\n      0x20\n      add\n      swap1\n      dup2\n      mstore\n      0x20\n      add\n      0x00\n      keccak256\n      sload\n        /* \"WandInstruments.sol\":11123:11167  xDaysCircSupply += circulatingSupplyXDays[d] */\n      dup5\n      tag_241\n      swap2\n      swap1\n      tag_227\n      jump\t// in\n    tag_241:\n      swap4\n      pop\n        /* \"WandInstruments.sol\":11083:11086  d++ */\n      dup1\n      dup1\n      tag_242\n      swap1\n      tag_243\n      jump\t// in\n    tag_242:\n      swap2\n      pop\n      pop\n        /* \"WandInstruments.sol\":11024:11183  for (d = daySinceLaunched - numdays; d < daySinceLaunched; d++) {  //for loop example\r... */\n      jump(tag_237)\n    tag_238:\n        /* \"WandInstruments.sol\":10902:11194  if (daySinceLaunched == 0) {\r... */\n    tag_236:\n        /* \"WandInstruments.sol\":11211:11262  decDiv18(this.getTokensSoldXDays(),xDaysCircSupply) */\n      tag_244\n        /* \"WandInstruments.sol\":11220:11224  this */\n      address\n        /* \"WandInstruments.sol\":11220:11243  this.getTokensSoldXDays */\n      0xffffffffffffffffffffffffffffffffffffffff\n      and\n      0xd82eddf2\n        /* \"WandInstruments.sol\":11220:11245  this.getTokensSoldXDays() */\n      mload(0x40)\n      dup2\n      0xffffffff\n      and\n      0xe0\n      shl\n      dup2\n      mstore\n      0x04\n      add\n      0x20\n      mload(0x40)\n      dup1\n      dup4\n      sub\n      dup2\n      dup7\n      dup1\n      extcodesize\n      iszero\n      dup1\n      iszero\n      tag_245\n      jumpi\n      0x00\n      dup1\n      revert\n    tag_245:\n      pop\n      gas\n      staticcall\n      iszero\n      dup1\n      iszero\n      tag_247\n      jumpi\n      returndatasize\n      0x00\n      dup1\n      returndatacopy\n      revert(0x00, returndatasize)\n    tag_247:\n      pop\n      pop\n      pop\n      pop\n      mload(0x40)\n      returndatasize\n      not(0x1f)\n      0x1f\n      dup3\n      add\n      and\n      dup3\n      add\n      dup1\n      0x40\n      mstore\n      pop\n      dup2\n      add\n      swap1\n      tag_248\n      swap2\n      swap1\n      tag_221\n      jump\t// in\n    tag_248:\n        /* \"WandInstruments.sol\":11246:11261  xDaysCircSupply */\n      dup6\n        /* \"WandInstruments.sol\":11211:11219  decDiv18 */\n      tag_249\n        /* \"WandInstruments.sol\":11211:11262  decDiv18(this.getTokensSoldXDays(),xDaysCircSupply) */\n      jump\t// in\n    tag_244:\n        /* \"WandInstruments.sol\":11205:11262  _sF = decDiv18(this.getTokensSoldXDays(),xDaysCircSupply) */\n      swap5\n      pop\n        /* \"WandInstruments.sol\":11282:11300  300000000000000000 */\n      0x0429d069189e0000\n        /* \"WandInstruments.sol\":11276:11279  _sF */\n      dup6\n        /* \"WandInstruments.sol\":11276:11300  _sF > 300000000000000000 */\n      gt\n        /* \"WandInstruments.sol\":11272:11359  if (_sF > 300000000000000000)\r... */\n      iszero\n      tag_250\n      jumpi\n        /* \"WandInstruments.sol\":11330:11348  300000000000000000 */\n      0x0429d069189e0000\n        /* \"WandInstruments.sol\":11324:11348  _sF = 300000000000000000 */\n      swap5\n      pop\n        /* \"WandInstruments.sol\":11272:11359  if (_sF > 300000000000000000)\r... */\n    tag_250:\n        /* \"WandInstruments.sol\":11375:11378  _sF */\n      dup5\n        /* \"WandInstruments.sol\":11368:11378  return _sF */\n      swap6\n      pop\n      pop\n      pop\n      pop\n      pop\n      pop\n        /* \"WandInstruments.sol\":10492:11387  function getSellFactor() external view returns (uint256){\r... */\n      swap1\n      jump\t// out\n        /* \"WandInstruments.sol\":14374:14809  function getCircSupplyXDays() external view returns (uint256){\r... */\n    tag_63:\n        /* \"WandInstruments.sol\":14427:14434  uint256 */\n      0x00\n        /* \"WandInstruments.sol\":14440:14464  uint256 daySinceLaunched */\n      dup1\n        /* \"WandInstruments.sol\":14502:14507  86400 */\n      0x015180\n        /* \"WandInstruments.sol\":14486:14498  timeLaunched */\n      sload(0x0c)\n        /* \"WandInstruments.sol\":14468:14483  block.timestamp */\n      timestamp\n        /* \"WandInstruments.sol\":14468:14498  block.timestamp - timeLaunched */\n      tag_252\n      swap2\n      swap1\n      tag_233\n      jump\t// in\n    tag_252:\n        /* \"WandInstruments.sol\":14467:14507  (block.timestamp - timeLaunched) / 86400 */\n      tag_253\n      swap2\n      swap1\n      tag_231\n      jump\t// in\n    tag_253:\n        /* \"WandInstruments.sol\":14440:14507  uint256 daySinceLaunched = (block.timestamp - timeLaunched) / 86400 */\n      swap1\n      pop\n        /* \"WandInstruments.sol\":14518:14541  uint256 CircSupplyXDays */\n      0x00\n        /* \"WandInstruments.sol\":14556:14571  uint256 numdays */\n      dup1\n        /* \"WandInstruments.sol\":14592:14597  86400 */\n      0x015180\n        /* \"WandInstruments.sol\":14574:14591  daysInCalculation */\n      sload(0x0d)\n        /* \"WandInstruments.sol\":14574:14597  daysInCalculation/86400 */\n      tag_254\n      swap2\n      swap1\n      tag_231\n      jump\t// in\n    tag_254:\n        /* \"WandInstruments.sol\":14556:14597  uint256 numdays = daysInCalculation/86400 */\n      swap1\n      pop\n        /* \"WandInstruments.sol\":14608:14617  uint256 d */\n      0x00\n        /* \"WandInstruments.sol\":14666:14673  numdays */\n      dup2\n        /* \"WandInstruments.sol\":14647:14663  daySinceLaunched */\n      dup5\n        /* \"WandInstruments.sol\":14647:14673  daySinceLaunched - numdays */\n      tag_258\n      swap2\n      swap1\n      tag_233\n      jump\t// in\n    tag_258:\n        /* \"WandInstruments.sol\":14643:14673  d = daySinceLaunched - numdays */\n      swap1\n      pop\n        /* \"WandInstruments.sol\":14638:14769  for (d = daySinceLaunched - numdays; d < daySinceLaunched; d++) {\r... */\n    tag_255:\n        /* \"WandInstruments.sol\":14679:14695  daySinceLaunched */\n      dup4\n        /* \"WandInstruments.sol\":14675:14676  d */\n      dup2\n        /* \"WandInstruments.sol\":14675:14695  d < daySinceLaunched */\n      lt\n        /* \"WandInstruments.sol\":14638:14769  for (d = daySinceLaunched - numdays; d < daySinceLaunched; d++) {\r... */\n      iszero\n      tag_256\n      jumpi\n        /* \"WandInstruments.sol\":14732:14754  circulatingSupplyXDays */\n      0x19\n        /* \"WandInstruments.sol\":14732:14757  circulatingSupplyXDays[d] */\n      0x00\n        /* \"WandInstruments.sol\":14755:14756  d */\n      dup3\n        /* \"WandInstruments.sol\":14732:14757  circulatingSupplyXDays[d] */\n      dup2\n      mstore\n      0x20\n      add\n      swap1\n      dup2\n      mstore\n      0x20\n      add\n      0x00\n      keccak256\n      sload\n        /* \"WandInstruments.sol\":14713:14757  CircSupplyXDays += circulatingSupplyXDays[d] */\n      dup4\n      tag_259\n      swap2\n      swap1\n      tag_227\n      jump\t// in\n    tag_259:\n      swap3\n      pop\n        /* \"WandInstruments.sol\":14697:14700  d++ */\n      dup1\n      dup1\n      tag_260\n      swap1\n      tag_243\n      jump\t// in\n    tag_260:\n      swap2\n      pop\n      pop\n        /* \"WandInstruments.sol\":14638:14769  for (d = daySinceLaunched - numdays; d < daySinceLaunched; d++) {\r... */\n      jump(tag_255)\n    tag_256:\n        /* \"WandInstruments.sol\":14786:14801  CircSupplyXDays */\n      dup3\n        /* \"WandInstruments.sol\":14779:14801  return CircSupplyXDays */\n      swap5\n      pop\n      pop\n      pop\n      pop\n      pop\n        /* \"WandInstruments.sol\":14374:14809  function getCircSupplyXDays() external view returns (uint256){\r... */\n      swap1\n      jump\t// out\n        /* \"WandInstruments.sol\":2069:2129  mapping(address => lockedamounts) public withheldWithdrawals */\n    tag_69:\n      mstore(0x20, 0x1b)\n      dup1\n      0x00\n      mstore\n      keccak256(0x00, 0x40)\n      0x00\n      swap2\n      pop\n      swap1\n      pop\n      dup1\n      0x00\n      add\n      sload\n      swap1\n      dup1\n      0x01\n      add\n      sload\n      swap1\n      pop\n      dup3\n      jump\t// out\n        /* \"WandInstruments.sol\":1652:1702  mapping(uint256 => uint256) public tokensSoldXDays */\n    tag_76:\n      mstore(0x20, 0x18)\n      dup1\n      0x00\n      mstore\n      keccak256(0x00, 0x40)\n      0x00\n      swap2\n      pop\n      swap1\n      pop\n      sload\n      dup2\n      jump\t// out\n        /* \"WandInstruments.sol\":12932:13434  function testUpdatetimeLockedminus(uint256 amt) public  {\r... */\n    tag_81:\n        /* \"WandInstruments.sol\":13013:13032  withheldWithdrawals */\n      0x1b\n        /* \"WandInstruments.sol\":13013:13044  withheldWithdrawals[msg.sender] */\n      0x00\n        /* \"WandInstruments.sol\":13033:13043  msg.sender */\n      caller\n        /* \"WandInstruments.sol\":13013:13044  withheldWithdrawals[msg.sender] */\n      0xffffffffffffffffffffffffffffffffffffffff\n      and\n      0xffffffffffffffffffffffffffffffffffffffff\n      and\n      dup2\n      mstore\n      0x20\n      add\n      swap1\n      dup2\n      mstore\n      0x20\n      add\n      0x00\n      keccak256\n        /* \"WandInstruments.sol\":13013:13052  withheldWithdrawals[msg.sender].amounts */\n      0x01\n      add\n      sload\n        /* \"WandInstruments.sol\":13007:13010  amt */\n      dup2\n        /* \"WandInstruments.sol\":13007:13052  amt < withheldWithdrawals[msg.sender].amounts */\n      lt\n        /* \"WandInstruments.sol\":12999:13093  require(amt < withheldWithdrawals[msg.sender].amounts, \"You dont have that much to withdraw!\") */\n      tag_262\n      jumpi\n      mload(0x40)\n      0x08c379a000000000000000000000000000000000000000000000000000000000\n      dup2\n      mstore\n      0x04\n      add\n      tag_263\n      swap1\n      tag_264\n      jump\t// in\n    tag_263:\n      mload(0x40)\n      dup1\n      swap2\n      sub\n      swap1\n      revert\n    tag_262:\n        /* \"WandInstruments.sol\":13298:13301  amt */\n      dup1\n        /* \"WandInstruments.sol\":13255:13274  withheldWithdrawals */\n      0x1b\n        /* \"WandInstruments.sol\":13255:13286  withheldWithdrawals[msg.sender] */\n      0x00\n        /* \"WandInstruments.sol\":13275:13285  msg.sender */\n      caller\n        /* \"WandInstruments.sol\":13255:13286  withheldWithdrawals[msg.sender] */\n      0xffffffffffffffffffffffffffffffffffffffff\n      and\n      0xffffffffffffffffffffffffffffffffffffffff\n      and\n      dup2\n      mstore\n      0x20\n      add\n      swap1\n      dup2\n      mstore\n      0x20\n      add\n      0x00\n      keccak256\n        /* \"WandInstruments.sol\":13255:13294  withheldWithdrawals[msg.sender].amounts */\n      0x01\n      add\n      0x00\n        /* \"WandInstruments.sol\":13255:13301  withheldWithdrawals[msg.sender].amounts -= amt */\n      dup3\n      dup3\n      sload\n      tag_265\n      swap2\n      swap1\n      tag_233\n      jump\t// in\n    tag_265:\n      swap3\n      pop\n      pop\n      dup2\n      swap1\n      sstore\n      pop\n        /* \"WandInstruments.sol\":13358:13359  0 */\n      0x00\n        /* \"WandInstruments.sol\":13316:13335  withheldWithdrawals */\n      0x1b\n        /* \"WandInstruments.sol\":13316:13347  withheldWithdrawals[msg.sender] */\n      0x00\n        /* \"WandInstruments.sol\":13336:13346  msg.sender */\n      caller\n        /* \"WandInstruments.sol\":13316:13347  withheldWithdrawals[msg.sender] */\n      0xffffffffffffffffffffffffffffffffffffffff\n      and\n      0xffffffffffffffffffffffffffffffffffffffff\n      and\n      dup2\n      mstore\n      0x20\n      add\n      swap1\n      dup2\n      mstore\n      0x20\n      add\n      0x00\n      keccak256\n        /* \"WandInstruments.sol\":13316:13355  withheldWithdrawals[msg.sender].amounts */\n      0x01\n      add\n      sload\n        /* \"WandInstruments.sol\":13316:13359  withheldWithdrawals[msg.sender].amounts ==0 */\n      eq\n        /* \"WandInstruments.sol\":13312:13427  if (withheldWithdrawals[msg.sender].amounts ==0 ){\r... */\n      iszero\n      tag_266\n      jumpi\n        /* \"WandInstruments.sol\":13383:13402  withheldWithdrawals */\n      0x1b\n        /* \"WandInstruments.sol\":13383:13414  withheldWithdrawals[msg.sender] */\n      0x00\n        /* \"WandInstruments.sol\":13403:13413  msg.sender */\n      caller\n        /* \"WandInstruments.sol\":13383:13414  withheldWithdrawals[msg.sender] */\n      0xffffffffffffffffffffffffffffffffffffffff\n      and\n      0xffffffffffffffffffffffffffffffffffffffff\n      and\n      dup2\n      mstore\n      0x20\n      add\n      swap1\n      dup2\n      mstore\n      0x20\n      add\n      0x00\n      keccak256\n      0x00\n        /* \"WandInstruments.sol\":13376:13415  delete(withheldWithdrawals[msg.sender]) */\n      dup1\n      dup3\n      add\n      0x00\n      swap1\n      sstore\n      0x01\n      dup3\n      add\n      0x00\n      swap1\n      sstore\n      pop\n      pop\n        /* \"WandInstruments.sol\":13312:13427  if (withheldWithdrawals[msg.sender].amounts ==0 ){\r... */\n    tag_266:\n        /* \"WandInstruments.sol\":12932:13434  function testUpdatetimeLockedminus(uint256 amt) public  {\r... */\n      pop\n      jump\t// out\n        /* \"WandInstruments.sol\":1709:1766  mapping(uint256 => uint256) public circulatingSupplyXDays */\n    tag_85:\n      mstore(0x20, 0x19)\n      dup1\n      0x00\n      mstore\n      keccak256(0x00, 0x40)\n      0x00\n      swap2\n      pop\n      swap1\n      pop\n      sload\n      dup2\n      jump\t// out\n        /* \"WandInstruments.sol\":7035:7782  function transformScepterToBaton(uint256 amountSCPtoSwap) public payable{\r... */\n    tag_89:\n        /* \"WandInstruments.sol\":7179:7205  uint256 trader_tsc_balance */\n      0x00\n        /* \"WandInstruments.sol\":7208:7212  SPTR */\n      0x13\n      0x00\n      swap1\n      sload\n      swap1\n      0x0100\n      exp\n      swap1\n      div\n      0xffffffffffffffffffffffffffffffffffffffff\n      and\n        /* \"WandInstruments.sol\":7208:7222  SPTR.balanceOf */\n      0xffffffffffffffffffffffffffffffffffffffff\n      and\n      0x70a08231\n        /* \"WandInstruments.sol\":7223:7233  msg.sender */\n      caller\n        /* \"WandInstruments.sol\":7208:7234  SPTR.balanceOf(msg.sender) */\n      mload(0x40)\n      dup3\n      0xffffffff\n      and\n      0xe0\n      shl\n      dup2\n      mstore\n      0x04\n      add\n      tag_268\n      swap2\n      swap1\n      tag_56\n      jump\t// in\n    tag_268:\n      0x20\n      mload(0x40)\n      dup1\n      dup4\n      sub\n      dup2\n      dup7\n      dup1\n      extcodesize\n      iszero\n      dup1\n      iszero\n      tag_269\n      jumpi\n      0x00\n      dup1\n      revert\n    tag_269:\n      pop\n      gas\n      staticcall\n      iszero\n      dup1\n      iszero\n      tag_271\n      jumpi\n      returndatasize\n      0x00\n      dup1\n      returndatacopy\n      revert(0x00, returndatasize)\n    tag_271:\n      pop\n      pop\n      pop\n      pop\n      mload(0x40)\n      returndatasize\n      not(0x1f)\n      0x1f\n      dup3\n      add\n      and\n      dup3\n      add\n      dup1\n      0x40\n      mstore\n      pop\n      dup2\n      add\n      swap1\n      tag_272\n      swap2\n      swap1\n      tag_221\n      jump\t// in\n    tag_272:\n        /* \"WandInstruments.sol\":7179:7234  uint256 trader_tsc_balance = SPTR.balanceOf(msg.sender) */\n      swap1\n      pop\n        /* \"WandInstruments.sol\":7274:7289  amountSCPtoSwap */\n      dup2\n        /* \"WandInstruments.sol\":7253:7271  trader_tsc_balance */\n      dup2\n        /* \"WandInstruments.sol\":7253:7289  trader_tsc_balance > amountSCPtoSwap */\n      gt\n        /* \"WandInstruments.sol\":7245:7320  require(trader_tsc_balance > amountSCPtoSwap, \"You dont have that amount!\") */\n      tag_273\n      jumpi\n      mload(0x40)\n      0x08c379a000000000000000000000000000000000000000000000000000000000\n      dup2\n      mstore\n      0x04\n      add\n      tag_274\n      swap1\n      tag_275\n      jump\t// in\n    tag_274:\n      mload(0x40)\n      dup1\n      swap2\n      sub\n      swap1\n      revert\n    tag_273:\n        /* \"WandInstruments.sol\":7374:7441  _safeTransferFrom(SPTR, msg.sender, address(this), amountSCPtoSwap) */\n      tag_276\n        /* \"WandInstruments.sol\":7392:7396  SPTR */\n      0x13\n      0x00\n      swap1\n      sload\n      swap1\n      0x0100\n      exp\n      swap1\n      div\n      0xffffffffffffffffffffffffffffffffffffffff\n      and\n        /* \"WandInstruments.sol\":7398:7408  msg.sender */\n      caller\n        /* \"WandInstruments.sol\":7418:7422  this */\n      address\n        /* \"WandInstruments.sol\":7425:7440  amountSCPtoSwap */\n      dup6\n        /* \"WandInstruments.sol\":7374:7391  _safeTransferFrom */\n      tag_277\n        /* \"WandInstruments.sol\":7374:7441  _safeTransferFrom(SPTR, msg.sender, address(this), amountSCPtoSwap) */\n      jump\t// in\n    tag_276:\n        /* \"WandInstruments.sol\":7502:7518  uint256 dInArray */\n      0x00\n        /* \"WandInstruments.sol\":7552:7557  86400 */\n      0x015180\n        /* \"WandInstruments.sol\":7538:7550  timeLaunched */\n      sload(0x0c)\n        /* \"WandInstruments.sol\":7521:7536  block.timestamp */\n      timestamp\n        /* \"WandInstruments.sol\":7521:7550  block.timestamp- timeLaunched */\n      tag_278\n      swap2\n      swap1\n      tag_233\n      jump\t// in\n    tag_278:\n        /* \"WandInstruments.sol\":7520:7557  (block.timestamp- timeLaunched)/86400 */\n      tag_279\n      swap2\n      swap1\n      tag_231\n      jump\t// in\n    tag_279:\n        /* \"WandInstruments.sol\":7502:7557  uint256 dInArray =(block.timestamp- timeLaunched)/86400 */\n      swap1\n      pop\n        /* \"WandInstruments.sol\":7598:7613  amountSCPtoSwap */\n      dup3\n        /* \"WandInstruments.sol\":7569:7584  tokensSoldXDays */\n      0x18\n        /* \"WandInstruments.sol\":7569:7594  tokensSoldXDays[dInArray] */\n      0x00\n        /* \"WandInstruments.sol\":7585:7593  dInArray */\n      dup4\n        /* \"WandInstruments.sol\":7569:7594  tokensSoldXDays[dInArray] */\n      dup2\n      mstore\n      0x20\n      add\n      swap1\n      dup2\n      mstore\n      0x20\n      add\n      0x00\n      keccak256\n      0x00\n        /* \"WandInstruments.sol\":7569:7613  tokensSoldXDays[dInArray] += amountSCPtoSwap */\n      dup3\n      dup3\n      sload\n      tag_280\n      swap2\n      swap1\n      tag_227\n      jump\t// in\n    tag_280:\n      swap3\n      pop\n      pop\n      dup2\n      swap1\n      sstore\n      pop\n        /* \"WandInstruments.sol\":7660:7675  amountSCPtoSwap */\n      dup3\n        /* \"WandInstruments.sol\":7624:7646  circulatingSupplyXDays */\n      0x19\n        /* \"WandInstruments.sol\":7624:7656  circulatingSupplyXDays[dInArray] */\n      0x00\n        /* \"WandInstruments.sol\":7647:7655  dInArray */\n      dup4\n        /* \"WandInstruments.sol\":7624:7656  circulatingSupplyXDays[dInArray] */\n      dup2\n      mstore\n      0x20\n      add\n      swap1\n      dup2\n      mstore\n      0x20\n      add\n      0x00\n      keccak256\n      0x00\n        /* \"WandInstruments.sol\":7624:7675  circulatingSupplyXDays[dInArray] -= amountSCPtoSwap */\n      dup3\n      dup3\n      sload\n      tag_281\n      swap2\n      swap1\n      tag_233\n      jump\t// in\n    tag_281:\n      swap3\n      pop\n      pop\n      dup2\n      swap1\n      sstore\n      pop\n        /* \"WandInstruments.sol\":7107:7782  {\r... */\n      pop\n      pop\n        /* \"WandInstruments.sol\":7035:7782  function transformScepterToBaton(uint256 amountSCPtoSwap) public payable{\r... */\n      pop\n      jump\t// out\n        /* \"WandInstruments.sol\":11393:11606  function getBackingPrice() external view returns (uint256){\r... */\n    tag_92:\n        /* \"WandInstruments.sol\":11443:11450  uint256 */\n      0x00\n        /* \"WandInstruments.sol\":11557:11598  decDiv18(treasury1bal,SPTR.totalSupply()) */\n      tag_283\n        /* \"WandInstruments.sol\":11566:11578  treasury1bal */\n      sload(0x0b)\n        /* \"WandInstruments.sol\":11579:11583  SPTR */\n      0x13\n      0x00\n      swap1\n      sload\n      swap1\n      0x0100\n      exp\n      swap1\n      div\n      0xffffffffffffffffffffffffffffffffffffffff\n      and\n        /* \"WandInstruments.sol\":11579:11595  SPTR.totalSupply */\n      0xffffffffffffffffffffffffffffffffffffffff\n      and\n      0x18160ddd\n        /* \"WandInstruments.sol\":11579:11597  SPTR.totalSupply() */\n      mload(0x40)\n      dup2\n      0xffffffff\n      and\n      0xe0\n      shl\n      dup2\n      mstore\n      0x04\n      add\n      0x20\n      mload(0x40)\n      dup1\n      dup4\n      sub\n      dup2\n      dup7\n      dup1\n      extcodesize\n      iszero\n      dup1\n      iszero\n      tag_284\n      jumpi\n      0x00\n      dup1\n      revert\n    tag_284:\n      pop\n      gas\n      staticcall\n      iszero\n      dup1\n      iszero\n      tag_286\n      jumpi\n      returndatasize\n      0x00\n      dup1\n      returndatacopy\n      revert(0x00, returndatasize)\n    tag_286:\n      pop\n      pop\n      pop\n      pop\n      mload(0x40)\n      returndatasize\n      not(0x1f)\n      0x1f\n      dup3\n      add\n      and\n      dup3\n      add\n      dup1\n      0x40\n      mstore\n      pop\n      dup2\n      add\n      swap1\n      tag_287\n      swap2\n      swap1\n      tag_221\n      jump\t// in\n    tag_287:\n        /* \"WandInstruments.sol\":11557:11565  decDiv18 */\n      tag_249\n        /* \"WandInstruments.sol\":11557:11598  decDiv18(treasury1bal,SPTR.totalSupply()) */\n      jump\t// in\n    tag_283:\n        /* \"WandInstruments.sol\":11550:11598  return decDiv18(treasury1bal,SPTR.totalSupply()) */\n      swap1\n      pop\n        /* \"WandInstruments.sol\":11393:11606  function getBackingPrice() external view returns (uint256){\r... */\n      swap1\n      jump\t// out\n        /* \"WandInstruments.sol\":1433:1451  IERC20 public SPTR */\n    tag_96:\n      0x13\n      0x00\n      swap1\n      sload\n      swap1\n      0x0100\n      exp\n      swap1\n      div\n      0xffffffffffffffffffffffffffffffffffffffff\n      and\n      dup2\n      jump\t// out\n        /* \"WandInstruments.sol\":734:762  address public devWalletAddr */\n    tag_101:\n      0x0a\n      0x00\n      swap1\n      sload\n      swap1\n      0x0100\n      exp\n      swap1\n      div\n      0xffffffffffffffffffffffffffffffffffffffff\n      and\n      dup2\n      jump\t// out\n        /* \"WandInstruments.sol\":1593:1645  mapping(uint256 => uint256) public tokensBoughtXDays */\n    tag_106:\n      mstore(0x20, 0x17)\n      dup1\n      0x00\n      mstore\n      keccak256(0x00, 0x40)\n      0x00\n      swap2\n      pop\n      swap1\n      pop\n      sload\n      dup2\n      jump\t// out\n        /* \"WandInstruments.sol\":803:849  uint256 public treasury1bal = 50000*(DECIMALS) */\n    tag_110:\n      sload(0x0b)\n      dup2\n      jump\t// out\n        /* \"WandInstruments.sol\":12364:12440  function withdrawStables(uint256 _amtToWithdraw) public onlyOwner {\r... */\n    tag_115:\n      pop\n      jump\t// out\n        /* \"WandInstruments.sol\":878:905  uint256 public timeLaunched */\n    tag_118:\n      sload(0x0c)\n      dup2\n      jump\t// out\n        /* \"WandInstruments.sol\":11892:12165  function getSellPrice() external view returns (uint256){\r... */\n    tag_122:\n        /* \"WandInstruments.sol\":11939:11946  uint256 */\n      0x00\n        /* \"WandInstruments.sol\":12079:12157  decMul18(this.getBackingPrice() , (900000000000000000 - this.getSellFactor())) */\n      tag_291\n        /* \"WandInstruments.sol\":12088:12092  this */\n      address\n        /* \"WandInstruments.sol\":12088:12108  this.getBackingPrice */\n      0xffffffffffffffffffffffffffffffffffffffff\n      and\n      0x1f564a06\n        /* \"WandInstruments.sol\":12088:12110  this.getBackingPrice() */\n      mload(0x40)\n      dup2\n      0xffffffff\n      and\n      0xe0\n      shl\n      dup2\n      mstore\n      0x04\n      add\n      0x20\n      mload(0x40)\n      dup1\n      dup4\n      sub\n      dup2\n      dup7\n      dup1\n      extcodesize\n      iszero\n      dup1\n      iszero\n      tag_292\n      jumpi\n      0x00\n      dup1\n      revert\n    tag_292:\n      pop\n      gas\n      staticcall\n      iszero\n      dup1\n      iszero\n      tag_294\n      jumpi\n      returndatasize\n      0x00\n      dup1\n      returndatacopy\n      revert(0x00, returndatasize)\n    tag_294:\n      pop\n      pop\n      pop\n      pop\n      mload(0x40)\n      returndatasize\n      not(0x1f)\n      0x1f\n      dup3\n      add\n      and\n      dup3\n      add\n      dup1\n      0x40\n      mstore\n      pop\n      dup2\n      add\n      swap1\n      tag_295\n      swap2\n      swap1\n      tag_221\n      jump\t// in\n    tag_295:\n        /* \"WandInstruments.sol\":12135:12139  this */\n      address\n        /* \"WandInstruments.sol\":12135:12153  this.getSellFactor */\n      0xffffffffffffffffffffffffffffffffffffffff\n      and\n      0x0ccaf04f\n        /* \"WandInstruments.sol\":12135:12155  this.getSellFactor() */\n      mload(0x40)\n      dup2\n      0xffffffff\n      and\n      0xe0\n      shl\n      dup2\n      mstore\n      0x04\n      add\n      0x20\n      mload(0x40)\n      dup1\n      dup4\n      sub\n      dup2\n      dup7\n      dup1\n      extcodesize\n      iszero\n      dup1\n      iszero\n      tag_296\n      jumpi\n      0x00\n      dup1\n      revert\n    tag_296:\n      pop\n      gas\n      staticcall\n      iszero\n      dup1\n      iszero\n      tag_298\n      jumpi\n      returndatasize\n      0x00\n      dup1\n      returndatacopy\n      revert(0x00, returndatasize)\n    tag_298:\n      pop\n      pop\n      pop\n      pop\n      mload(0x40)\n      returndatasize\n      not(0x1f)\n      0x1f\n      dup3\n      add\n      and\n      dup3\n      add\n      dup1\n      0x40\n      mstore\n      pop\n      dup2\n      add\n      swap1\n      tag_299\n      swap2\n      swap1\n      tag_221\n      jump\t// in\n    tag_299:\n        /* \"WandInstruments.sol\":12114:12132  900000000000000000 */\n      0x0c7d713b49da0000\n        /* \"WandInstruments.sol\":12114:12155  900000000000000000 - this.getSellFactor() */\n      tag_300\n      swap2\n      swap1\n      tag_233\n      jump\t// in\n    tag_300:\n        /* \"WandInstruments.sol\":12079:12087  decMul18 */\n      tag_228\n        /* \"WandInstruments.sol\":12079:12157  decMul18(this.getBackingPrice() , (900000000000000000 - this.getSellFactor())) */\n      jump\t// in\n    tag_291:\n        /* \"WandInstruments.sol\":12072:12157  return decMul18(this.getBackingPrice() , (900000000000000000 - this.getSellFactor())) */\n      swap1\n      pop\n        /* \"WandInstruments.sol\":11892:12165  function getSellPrice() external view returns (uint256){\r... */\n      swap1\n      jump\t// out\n        /* \"WandInstruments.sol\":912:944  uint256 public daysInCalculation */\n    tag_126:\n      sload(0x0d)\n      dup2\n      jump\t// out\n        /* \"WandInstruments.sol\":12448:12920  function testUpdatetimeLockedplus(uint256 amt) public  {\r... */\n    tag_131:\n        /* \"WandInstruments.sol\":12843:12849  864000 */\n      0x0d2f00\n        /* \"WandInstruments.sol\":12825:12840  block.timestamp */\n      timestamp\n        /* \"WandInstruments.sol\":12825:12849  block.timestamp + 864000 */\n      tag_302\n      swap2\n      swap1\n      tag_227\n      jump\t// in\n    tag_302:\n        /* \"WandInstruments.sol\":12778:12797  withheldWithdrawals */\n      0x1b\n        /* \"WandInstruments.sol\":12778:12809  withheldWithdrawals[msg.sender] */\n      0x00\n        /* \"WandInstruments.sol\":12798:12808  msg.sender */\n      caller\n        /* \"WandInstruments.sol\":12778:12809  withheldWithdrawals[msg.sender] */\n      0xffffffffffffffffffffffffffffffffffffffff\n      and\n      0xffffffffffffffffffffffffffffffffffffffff\n      and\n      dup2\n      mstore\n      0x20\n      add\n      swap1\n      dup2\n      mstore\n      0x20\n      add\n      0x00\n      keccak256\n        /* \"WandInstruments.sol\":12778:12822  withheldWithdrawals[msg.sender].timeUnlocked */\n      0x00\n      add\n        /* \"WandInstruments.sol\":12778:12849  withheldWithdrawals[msg.sender].timeUnlocked = block.timestamp + 864000 */\n      dup2\n      swap1\n      sstore\n      pop\n        /* \"WandInstruments.sol\":12903:12906  amt */\n      dup1\n        /* \"WandInstruments.sol\":12860:12879  withheldWithdrawals */\n      0x1b\n        /* \"WandInstruments.sol\":12860:12891  withheldWithdrawals[msg.sender] */\n      0x00\n        /* \"WandInstruments.sol\":12880:12890  msg.sender */\n      caller\n        /* \"WandInstruments.sol\":12860:12891  withheldWithdrawals[msg.sender] */\n      0xffffffffffffffffffffffffffffffffffffffff\n      and\n      0xffffffffffffffffffffffffffffffffffffffff\n      and\n      dup2\n      mstore\n      0x20\n      add\n      swap1\n      dup2\n      mstore\n      0x20\n      add\n      0x00\n      keccak256\n        /* \"WandInstruments.sol\":12860:12899  withheldWithdrawals[msg.sender].amounts */\n      0x01\n      add\n      0x00\n        /* \"WandInstruments.sol\":12860:12906  withheldWithdrawals[msg.sender].amounts += amt */\n      dup3\n      dup3\n      sload\n      tag_303\n      swap2\n      swap1\n      tag_227\n      jump\t// in\n    tag_303:\n      swap3\n      pop\n      pop\n      dup2\n      swap1\n      sstore\n      pop\n        /* \"WandInstruments.sol\":12448:12920  function testUpdatetimeLockedplus(uint256 amt) public  {\r... */\n      pop\n      jump\t// out\n        /* \"WandInstruments.sol\":1163:1180  int128 public res */\n    tag_134:\n      0x11\n      0x00\n      swap1\n      sload\n      swap1\n      0x0100\n      exp\n      swap1\n      div\n      0x0f\n      signextend\n      dup2\n      jump\t// out\n        /* \"WandInstruments.sol\":1510:1535  IERC20 public tokenStable */\n    tag_139:\n      0x16\n      0x00\n      swap1\n      sload\n      swap1\n      0x0100\n      exp\n      swap1\n      div\n      0xffffffffffffffffffffffffffffffffffffffff\n      and\n      dup2\n      jump\t// out\n        /* \"WandInstruments.sol\":13548:14076  function getTokensBoughtXDays() external view returns (uint256){\r... */\n    tag_143:\n        /* \"WandInstruments.sol\":13603:13610  uint256 */\n      0x00\n        /* \"WandInstruments.sol\":13622:13639  uint256 boughtnum */\n      dup1\n        /* \"WandInstruments.sol\":13650:13659  uint256 d */\n      0x00\n        /* \"WandInstruments.sol\":13670:13685  uint256 numdays */\n      dup1\n        /* \"WandInstruments.sol\":13706:13711  86400 */\n      0x015180\n        /* \"WandInstruments.sol\":13688:13705  daysInCalculation */\n      sload(0x0d)\n        /* \"WandInstruments.sol\":13688:13711  daysInCalculation/86400 */\n      tag_305\n      swap2\n      swap1\n      tag_231\n      jump\t// in\n    tag_305:\n        /* \"WandInstruments.sol\":13670:13711  uint256 numdays = daysInCalculation/86400 */\n      swap1\n      pop\n        /* \"WandInstruments.sol\":13722:13746  uint256 daySinceLaunched */\n      0x00\n        /* \"WandInstruments.sol\":13784:13789  86400 */\n      0x015180\n        /* \"WandInstruments.sol\":13768:13780  timeLaunched */\n      sload(0x0c)\n        /* \"WandInstruments.sol\":13750:13765  block.timestamp */\n      timestamp\n        /* \"WandInstruments.sol\":13750:13780  block.timestamp - timeLaunched */\n      tag_306\n      swap2\n      swap1\n      tag_233\n      jump\t// in\n    tag_306:\n        /* \"WandInstruments.sol\":13749:13789  (block.timestamp - timeLaunched) / 86400 */\n      tag_307\n      swap2\n      swap1\n      tag_231\n      jump\t// in\n    tag_307:\n        /* \"WandInstruments.sol\":13722:13789  uint256 daySinceLaunched = (block.timestamp - timeLaunched) / 86400 */\n      swap1\n      pop\n        /* \"WandInstruments.sol\":13824:13825  0 */\n      0x00\n        /* \"WandInstruments.sol\":13804:13820  daySinceLaunched */\n      dup2\n        /* \"WandInstruments.sol\":13804:13825  daySinceLaunched == 0 */\n      eq\n        /* \"WandInstruments.sol\":13800:13877  if (daySinceLaunched == 0) {\r... */\n      iszero\n      tag_308\n      jumpi\n        /* \"WandInstruments.sol\":13845:13862  tokensBoughtXDays */\n      0x17\n        /* \"WandInstruments.sol\":13845:13865  tokensBoughtXDays[0] */\n      0x00\n        /* \"WandInstruments.sol\":13863:13864  0 */\n      dup1\n        /* \"WandInstruments.sol\":13845:13865  tokensBoughtXDays[0] */\n      dup2\n      mstore\n      0x20\n      add\n      swap1\n      dup2\n      mstore\n      0x20\n      add\n      0x00\n      keccak256\n      sload\n        /* \"WandInstruments.sol\":13838:13865  return tokensBoughtXDays[0] */\n      swap5\n      pop\n      pop\n      pop\n      pop\n      pop\n      jump(tag_304)\n        /* \"WandInstruments.sol\":13800:13877  if (daySinceLaunched == 0) {\r... */\n    tag_308:\n        /* \"WandInstruments.sol\":13915:13922  numdays */\n      dup2\n        /* \"WandInstruments.sol\":13896:13912  daySinceLaunched */\n      dup2\n        /* \"WandInstruments.sol\":13896:13922  daySinceLaunched - numdays */\n      tag_312\n      swap2\n      swap1\n      tag_233\n      jump\t// in\n    tag_312:\n        /* \"WandInstruments.sol\":13892:13922  d = daySinceLaunched - numdays */\n      swap3\n      pop\n        /* \"WandInstruments.sol\":13887:14033  for (d = daySinceLaunched - numdays; d < daySinceLaunched; d++) {  //for loop example\r... */\n    tag_309:\n        /* \"WandInstruments.sol\":13928:13944  daySinceLaunched */\n      dup1\n        /* \"WandInstruments.sol\":13924:13925  d */\n      dup4\n        /* \"WandInstruments.sol\":13924:13944  d < daySinceLaunched */\n      lt\n        /* \"WandInstruments.sol\":13887:14033  for (d = daySinceLaunched - numdays; d < daySinceLaunched; d++) {  //for loop example\r... */\n      iszero\n      tag_310\n      jumpi\n        /* \"WandInstruments.sol\":13997:14014  tokensBoughtXDays */\n      0x17\n        /* \"WandInstruments.sol\":13997:14017  tokensBoughtXDays[d] */\n      0x00\n        /* \"WandInstruments.sol\":14015:14016  d */\n      dup5\n        /* \"WandInstruments.sol\":13997:14017  tokensBoughtXDays[d] */\n      dup2\n      mstore\n      0x20\n      add\n      swap1\n      dup2\n      mstore\n      0x20\n      add\n      0x00\n      keccak256\n      sload\n        /* \"WandInstruments.sol\":13984:14017  boughtnum += tokensBoughtXDays[d] */\n      dup5\n      tag_313\n      swap2\n      swap1\n      tag_227\n      jump\t// in\n    tag_313:\n      swap4\n      pop\n        /* \"WandInstruments.sol\":13946:13949  d++ */\n      dup3\n      dup1\n      tag_314\n      swap1\n      tag_243\n      jump\t// in\n    tag_314:\n      swap4\n      pop\n      pop\n        /* \"WandInstruments.sol\":13887:14033  for (d = daySinceLaunched - numdays; d < daySinceLaunched; d++) {  //for loop example\r... */\n      jump(tag_309)\n    tag_310:\n        /* \"WandInstruments.sol\":14059:14068  boughtnum */\n      dup4\n        /* \"WandInstruments.sol\":14052:14068  return boughtnum */\n      swap5\n      pop\n      pop\n      pop\n      pop\n      pop\n        /* \"WandInstruments.sol\":13548:14076  function getTokensBoughtXDays() external view returns (uint256){\r... */\n    tag_304:\n      swap1\n      jump\t// out\n        /* \"WandInstruments.sol\":7797:9035  function buyScepter(uint256 amountSCPtoBuy, string memory _stableChosen) public nonReentrant{\r... */\n    tag_149:\n        /* \"ReentrancyGuard.sol\":1778:1779  2 */\n      0x02\n        /* \"ReentrancyGuard.sol\":2376:2383  _status */\n      sload(0x00)\n        /* \"ReentrancyGuard.sol\":2376:2395  _status != _ENTERED */\n      eq\n      iszero\n        /* \"ReentrancyGuard.sol\":2368:2431  require(_status != _ENTERED, \"ReentrancyGuard: reentrant call\") */\n      tag_316\n      jumpi\n      mload(0x40)\n      0x08c379a000000000000000000000000000000000000000000000000000000000\n      dup2\n      mstore\n      0x04\n      add\n      tag_317\n      swap1\n      tag_318\n      jump\t// in\n    tag_317:\n      mload(0x40)\n      dup1\n      swap2\n      sub\n      swap1\n      revert\n    tag_316:\n        /* \"ReentrancyGuard.sol\":1778:1779  2 */\n      0x02\n        /* \"ReentrancyGuard.sol\":2509:2516  _status */\n      0x00\n        /* \"ReentrancyGuard.sol\":2509:2527  _status = _ENTERED */\n      dup2\n      swap1\n      sstore\n      pop\n        /* \"WandInstruments.sol\":7982:7997  stableERC20Info */\n      0x1a\n        /* \"WandInstruments.sol\":7998:8011  _stableChosen */\n      dup2\n        /* \"WandInstruments.sol\":7982:8012  stableERC20Info[_stableChosen] */\n      mload(0x40)\n      tag_320\n      swap2\n      swap1\n      tag_321\n      jump\t// in\n    tag_320:\n      swap1\n      dup2\n      mstore\n      0x20\n      add\n      mload(0x40)\n      dup1\n      swap2\n      sub\n      swap1\n      keccak256\n        /* \"WandInstruments.sol\":7982:8028  stableERC20Info[_stableChosen].contractAddress */\n      0x00\n      add\n      0x00\n      swap1\n      sload\n      swap1\n      0x0100\n      exp\n      swap1\n      div\n      0xffffffffffffffffffffffffffffffffffffffff\n      and\n        /* \"WandInstruments.sol\":7961:7972  tokenStable */\n      0x16\n      0x00\n        /* \"WandInstruments.sol\":7961:8029  tokenStable = IERC20(stableERC20Info[_stableChosen].contractAddress) */\n      0x0100\n      exp\n      dup2\n      sload\n      dup2\n      0xffffffffffffffffffffffffffffffffffffffff\n      mul\n      not\n      and\n      swap1\n      dup4\n      0xffffffffffffffffffffffffffffffffffffffff\n      and\n      mul\n      or\n      swap1\n      sstore\n      pop\n        /* \"WandInstruments.sol\":8066:8072  250000 */\n      0x03d090\n        /* \"WandInstruments.sol\":8048:8062  amountSCPtoBuy */\n      dup3\n        /* \"WandInstruments.sol\":8048:8072  amountSCPtoBuy <= 250000 */\n      gt\n      iszero\n        /* \"WandInstruments.sol\":8040:8099  require(amountSCPtoBuy <= 250000 , \"Per transaction limit\") */\n      tag_322\n      jumpi\n      mload(0x40)\n      0x08c379a000000000000000000000000000000000000000000000000000000000\n      dup2\n      mstore\n      0x04\n      add\n      tag_323\n      swap1\n      tag_324\n      jump\t// in\n    tag_323:\n      mload(0x40)\n      dup1\n      swap2\n      sub\n      swap1\n      revert\n    tag_322:\n        /* \"WandInstruments.sol\":8110:8137  uint256 trader_usdc_balance */\n      0x00\n        /* \"WandInstruments.sol\":8140:8151  tokenStable */\n      0x16\n      0x00\n      swap1\n      sload\n      swap1\n      0x0100\n      exp\n      swap1\n      div\n      0xffffffffffffffffffffffffffffffffffffffff\n      and\n        /* \"WandInstruments.sol\":8140:8161  tokenStable.balanceOf */\n      0xffffffffffffffffffffffffffffffffffffffff\n      and\n      0x70a08231\n        /* \"WandInstruments.sol\":8162:8172  msg.sender */\n      caller\n        /* \"WandInstruments.sol\":8140:8173  tokenStable.balanceOf(msg.sender) */\n      mload(0x40)\n      dup3\n      0xffffffff\n      and\n      0xe0\n      shl\n      dup2\n      mstore\n      0x04\n      add\n      tag_325\n      swap2\n      swap1\n      tag_56\n      jump\t// in\n    tag_325:\n      0x20\n      mload(0x40)\n      dup1\n      dup4\n      sub\n      dup2\n      dup7\n      dup1\n      extcodesize\n      iszero\n      dup1\n      iszero\n      tag_326\n      jumpi\n      0x00\n      dup1\n      revert\n    tag_326:\n      pop\n      gas\n      staticcall\n      iszero\n      dup1\n      iszero\n      tag_328\n      jumpi\n      returndatasize\n      0x00\n      dup1\n      returndatacopy\n      revert(0x00, returndatasize)\n    tag_328:\n      pop\n      pop\n      pop\n      pop\n      mload(0x40)\n      returndatasize\n      not(0x1f)\n      0x1f\n      dup3\n      add\n      and\n      dup3\n      add\n      dup1\n      0x40\n      mstore\n      pop\n      dup2\n      add\n      swap1\n      tag_329\n      swap2\n      swap1\n      tag_221\n      jump\t// in\n    tag_329:\n        /* \"WandInstruments.sol\":8110:8173  uint256 trader_usdc_balance = tokenStable.balanceOf(msg.sender) */\n      swap1\n      pop\n        /* \"WandInstruments.sol\":8214:8228  amountSCPtoBuy */\n      dup3\n        /* \"WandInstruments.sol\":8192:8211  trader_usdc_balance */\n      dup2\n        /* \"WandInstruments.sol\":8192:8228  trader_usdc_balance > amountSCPtoBuy */\n      gt\n        /* \"WandInstruments.sol\":8184:8259  require(trader_usdc_balance > amountSCPtoBuy, \"You dont have that amount!\") */\n      tag_330\n      jumpi\n      mload(0x40)\n      0x08c379a000000000000000000000000000000000000000000000000000000000\n      dup2\n      mstore\n      0x04\n      add\n      tag_331\n      swap1\n      tag_275\n      jump\t// in\n    tag_331:\n      mload(0x40)\n      dup1\n      swap2\n      sub\n      swap1\n      revert\n    tag_330:\n        /* \"WandInstruments.sol\":8326:8345  uint256 usdAmtToPay */\n      0x00\n        /* \"WandInstruments.sol\":8417:8432  stableERC20Info */\n      0x1a\n        /* \"WandInstruments.sol\":8433:8446  _stableChosen */\n      dup4\n        /* \"WandInstruments.sol\":8417:8447  stableERC20Info[_stableChosen] */\n      mload(0x40)\n      tag_332\n      swap2\n      swap1\n      tag_321\n      jump\t// in\n    tag_332:\n      swap1\n      dup2\n      mstore\n      0x20\n      add\n      mload(0x40)\n      dup1\n      swap2\n      sub\n      swap1\n      keccak256\n        /* \"WandInstruments.sol\":8417:8461  stableERC20Info[_stableChosen].tokenDecimals */\n      0x01\n      add\n      sload\n        /* \"WandInstruments.sol\":8370:8414  decMul18(amountSCPtoBuy, this.getBuyPrice()) */\n      tag_333\n        /* \"WandInstruments.sol\":8379:8393  amountSCPtoBuy */\n      dup6\n        /* \"WandInstruments.sol\":8395:8399  this */\n      address\n        /* \"WandInstruments.sol\":8395:8411  this.getBuyPrice */\n      0xffffffffffffffffffffffffffffffffffffffff\n      and\n      0x018a25e8\n        /* \"WandInstruments.sol\":8395:8413  this.getBuyPrice() */\n      mload(0x40)\n      dup2\n      0xffffffff\n      and\n      0xe0\n      shl\n      dup2\n      mstore\n      0x04\n      add\n      0x20\n      mload(0x40)\n      dup1\n      dup4\n      sub\n      dup2\n      dup7\n      dup1\n      extcodesize\n      iszero\n      dup1\n      iszero\n      tag_334\n      jumpi\n      0x00\n      dup1\n      revert\n    tag_334:\n      pop\n      gas\n      staticcall\n      iszero\n      dup1\n      iszero\n      tag_336\n      jumpi\n      returndatasize\n      0x00\n      dup1\n      returndatacopy\n      revert(0x00, returndatasize)\n    tag_336:\n      pop\n      pop\n      pop\n      pop\n      mload(0x40)\n      returndatasize\n      not(0x1f)\n      0x1f\n      dup3\n      add\n      and\n      dup3\n      add\n      dup1\n      0x40\n      mstore\n      pop\n      dup2\n      add\n      swap1\n      tag_337\n      swap2\n      swap1\n      tag_221\n      jump\t// in\n    tag_337:\n        /* \"WandInstruments.sol\":8370:8378  decMul18 */\n      tag_228\n        /* \"WandInstruments.sol\":8370:8414  decMul18(amountSCPtoBuy, this.getBuyPrice()) */\n      jump\t// in\n    tag_333:\n        /* \"WandInstruments.sol\":8370:8461  decMul18(amountSCPtoBuy, this.getBuyPrice()) * stableERC20Info[_stableChosen].tokenDecimals */\n      tag_338\n      swap2\n      swap1\n      tag_339\n      jump\t// in\n    tag_338:\n        /* \"WandInstruments.sol\":8356:8461  usdAmtToPay = decMul18(amountSCPtoBuy, this.getBuyPrice()) * stableERC20Info[_stableChosen].tokenDecimals */\n      swap1\n      pop\n        /* \"WandInstruments.sol\":8517:8587  _safeTransferFrom(tokenStable, msg.sender, address(this), usdAmtToPay) */\n      tag_340\n        /* \"WandInstruments.sol\":8535:8546  tokenStable */\n      0x16\n      0x00\n      swap1\n      sload\n      swap1\n      0x0100\n      exp\n      swap1\n      div\n      0xffffffffffffffffffffffffffffffffffffffff\n      and\n        /* \"WandInstruments.sol\":8548:8558  msg.sender */\n      caller\n        /* \"WandInstruments.sol\":8568:8572  this */\n      address\n        /* \"WandInstruments.sol\":8575:8586  usdAmtToPay */\n      dup5\n        /* \"WandInstruments.sol\":8517:8534  _safeTransferFrom */\n      tag_277\n        /* \"WandInstruments.sol\":8517:8587  _safeTransferFrom(tokenStable, msg.sender, address(this), usdAmtToPay) */\n      jump\t// in\n    tag_340:\n        /* \"WandInstruments.sol\":8606:8610  SPTR */\n      0x13\n      0x00\n      swap1\n      sload\n      swap1\n      0x0100\n      exp\n      swap1\n      div\n      0xffffffffffffffffffffffffffffffffffffffff\n      and\n        /* \"WandInstruments.sol\":8606:8615  SPTR.mint */\n      0xffffffffffffffffffffffffffffffffffffffff\n      and\n      0x40c10f19\n        /* \"WandInstruments.sol\":8616:8626  msg.sender */\n      caller\n        /* \"WandInstruments.sol\":357:363  10**18 */\n      0x0de0b6b3a7640000\n        /* \"WandInstruments.sol\":8627:8641  amountSCPtoBuy */\n      dup8\n        /* \"WandInstruments.sol\":8627:8652  amountSCPtoBuy * DECIMALS */\n      tag_341\n      swap2\n      swap1\n      tag_339\n      jump\t// in\n    tag_341:\n        /* \"WandInstruments.sol\":8606:8653  SPTR.mint(msg.sender,amountSCPtoBuy * DECIMALS) */\n      mload(0x40)\n      dup4\n      0xffffffff\n      and\n      0xe0\n      shl\n      dup2\n      mstore\n      0x04\n      add\n      tag_342\n      swap3\n      swap2\n      swap1\n      tag_164\n      jump\t// in\n    tag_342:\n      0x00\n      mload(0x40)\n      dup1\n      dup4\n      sub\n      dup2\n      0x00\n      dup8\n      dup1\n      extcodesize\n      iszero\n      dup1\n      iszero\n      tag_343\n      jumpi\n      0x00\n      dup1\n      revert\n    tag_343:\n      pop\n      gas\n      call\n      iszero\n      dup1\n      iszero\n      tag_345\n      jumpi\n      returndatasize\n      0x00\n      dup1\n      returndatacopy\n      revert(0x00, returndatasize)\n    tag_345:\n      pop\n      pop\n      pop\n      pop\n        /* \"WandInstruments.sol\":8794:8810  uint256 dInArray */\n      0x00\n        /* \"WandInstruments.sol\":8844:8849  86400 */\n      0x015180\n        /* \"WandInstruments.sol\":8830:8842  timeLaunched */\n      sload(0x0c)\n        /* \"WandInstruments.sol\":8813:8828  block.timestamp */\n      timestamp\n        /* \"WandInstruments.sol\":8813:8842  block.timestamp- timeLaunched */\n      tag_346\n      swap2\n      swap1\n      tag_233\n      jump\t// in\n    tag_346:\n        /* \"WandInstruments.sol\":8812:8849  (block.timestamp- timeLaunched)/86400 */\n      tag_347\n      swap2\n      swap1\n      tag_231\n      jump\t// in\n    tag_347:\n        /* \"WandInstruments.sol\":8794:8849  uint256 dInArray =(block.timestamp- timeLaunched)/86400 */\n      swap1\n      pop\n        /* \"WandInstruments.sol\":8892:8906  amountSCPtoBuy */\n      dup5\n        /* \"WandInstruments.sol\":8861:8878  tokensBoughtXDays */\n      0x17\n        /* \"WandInstruments.sol\":8861:8888  tokensBoughtXDays[dInArray] */\n      0x00\n        /* \"WandInstruments.sol\":8879:8887  dInArray */\n      dup4\n        /* \"WandInstruments.sol\":8861:8888  tokensBoughtXDays[dInArray] */\n      dup2\n      mstore\n      0x20\n      add\n      swap1\n      dup2\n      mstore\n      0x20\n      add\n      0x00\n      keccak256\n      0x00\n        /* \"WandInstruments.sol\":8861:8906  tokensBoughtXDays[dInArray] += amountSCPtoBuy */\n      dup3\n      dup3\n      sload\n      tag_348\n      swap2\n      swap1\n      tag_227\n      jump\t// in\n    tag_348:\n      swap3\n      pop\n      pop\n      dup2\n      swap1\n      sstore\n      pop\n        /* \"WandInstruments.sol\":8953:8967  amountSCPtoBuy */\n      dup5\n        /* \"WandInstruments.sol\":8917:8939  circulatingSupplyXDays */\n      0x19\n        /* \"WandInstruments.sol\":8917:8949  circulatingSupplyXDays[dInArray] */\n      0x00\n        /* \"WandInstruments.sol\":8940:8948  dInArray */\n      dup4\n        /* \"WandInstruments.sol\":8917:8949  circulatingSupplyXDays[dInArray] */\n      dup2\n      mstore\n      0x20\n      add\n      swap1\n      dup2\n      mstore\n      0x20\n      add\n      0x00\n      keccak256\n      0x00\n        /* \"WandInstruments.sol\":8917:8967  circulatingSupplyXDays[dInArray] += amountSCPtoBuy */\n      dup3\n      dup3\n      sload\n      tag_349\n      swap2\n      swap1\n      tag_227\n      jump\t// in\n    tag_349:\n      swap3\n      pop\n      pop\n      dup2\n      swap1\n      sstore\n      pop\n        /* \"WandInstruments.sol\":9000:9010  msg.sender */\n      caller\n        /* \"WandInstruments.sol\":8985:9027  sceptersBought(msg.sender, amountSCPtoBuy) */\n      0xffffffffffffffffffffffffffffffffffffffff\n      and\n      0xf633443b01504d269657083d48bb6de98e089cfff672b47fefbed21608b5c779\n        /* \"WandInstruments.sol\":9012:9026  amountSCPtoBuy */\n      dup7\n        /* \"WandInstruments.sol\":8985:9027  sceptersBought(msg.sender, amountSCPtoBuy) */\n      mload(0x40)\n      tag_350\n      swap2\n      swap1\n      tag_51\n      jump\t// in\n    tag_350:\n      mload(0x40)\n      dup1\n      swap2\n      sub\n      swap1\n      log2\n        /* \"WandInstruments.sol\":7889:9035  {\r... */\n      pop\n      pop\n      pop\n        /* \"ReentrancyGuard.sol\":1734:1735  1 */\n      0x01\n        /* \"ReentrancyGuard.sol\":2688:2695  _status */\n      0x00\n        /* \"ReentrancyGuard.sol\":2688:2710  _status = _NOT_ENTERED */\n      dup2\n      swap1\n      sstore\n      pop\n        /* \"WandInstruments.sol\":7797:9035  function buyScepter(uint256 amountSCPtoBuy, string memory _stableChosen) public nonReentrant{\r... */\n      pop\n      pop\n      jump\t// out\n        /* \"WandInstruments.sol\":9583:10486  function getGrowthFactor() external view returns (uint256){\r... */\n    tag_152:\n        /* \"WandInstruments.sol\":9633:9640  uint256 */\n      0x00\n        /* \"WandInstruments.sol\":9785:9796  uint256 _gF */\n      dup1\n        /* \"WandInstruments.sol\":9807:9830  uint256 xDaysCircSupply */\n      0x00\n        /* \"WandInstruments.sol\":9841:9856  uint256 numdays */\n      dup1\n        /* \"WandInstruments.sol\":9877:9882  86400 */\n      0x015180\n        /* \"WandInstruments.sol\":9859:9876  daysInCalculation */\n      sload(0x0d)\n        /* \"WandInstruments.sol\":9859:9882  daysInCalculation/86400 */\n      tag_352\n      swap2\n      swap1\n      tag_231\n      jump\t// in\n    tag_352:\n        /* \"WandInstruments.sol\":9841:9882  uint256 numdays = daysInCalculation/86400 */\n      swap1\n      pop\n        /* \"WandInstruments.sol\":9893:9917  uint256 daySinceLaunched */\n      0x00\n        /* \"WandInstruments.sol\":9955:9960  86400 */\n      0x015180\n        /* \"WandInstruments.sol\":9939:9951  timeLaunched */\n      sload(0x0c)\n        /* \"WandInstruments.sol\":9921:9936  block.timestamp */\n      timestamp\n        /* \"WandInstruments.sol\":9921:9951  block.timestamp - timeLaunched */\n      tag_353\n      swap2\n      swap1\n      tag_233\n      jump\t// in\n    tag_353:\n        /* \"WandInstruments.sol\":9920:9960  (block.timestamp - timeLaunched) / 86400 */\n      tag_354\n      swap2\n      swap1\n      tag_231\n      jump\t// in\n    tag_354:\n        /* \"WandInstruments.sol\":9893:9960  uint256 daySinceLaunched = (block.timestamp - timeLaunched) / 86400 */\n      swap1\n      pop\n        /* \"WandInstruments.sol\":9971:9980  uint256 d */\n      0x00\n        /* \"WandInstruments.sol\":10025:10026  0 */\n      dup1\n        /* \"WandInstruments.sol\":10005:10021  daySinceLaunched */\n      dup3\n        /* \"WandInstruments.sol\":10005:10026  daySinceLaunched == 0 */\n      eq\n        /* \"WandInstruments.sol\":10001:10293  if (daySinceLaunched == 0) {\r... */\n      iszero\n      tag_355\n      jumpi\n        /* \"WandInstruments.sol\":10057:10079  circulatingSupplyXDays */\n      0x19\n        /* \"WandInstruments.sol\":10057:10082  circulatingSupplyXDays[0] */\n      0x00\n        /* \"WandInstruments.sol\":10080:10081  0 */\n      dup1\n        /* \"WandInstruments.sol\":10057:10082  circulatingSupplyXDays[0] */\n      dup2\n      mstore\n      0x20\n      add\n      swap1\n      dup2\n      mstore\n      0x20\n      add\n      0x00\n      keccak256\n      sload\n        /* \"WandInstruments.sol\":10039:10082  xDaysCircSupply = circulatingSupplyXDays[0] */\n      swap4\n      pop\n        /* \"WandInstruments.sol\":10001:10293  if (daySinceLaunched == 0) {\r... */\n      jump(tag_356)\n    tag_355:\n        /* \"WandInstruments.sol\":10151:10158  numdays */\n      dup3\n        /* \"WandInstruments.sol\":10132:10148  daySinceLaunched */\n      dup3\n        /* \"WandInstruments.sol\":10132:10158  daySinceLaunched - numdays */\n      tag_360\n      swap2\n      swap1\n      tag_233\n      jump\t// in\n    tag_360:\n        /* \"WandInstruments.sol\":10128:10158  d = daySinceLaunched - numdays */\n      swap1\n      pop\n        /* \"WandInstruments.sol\":10123:10282  for (d = daySinceLaunched - numdays; d < daySinceLaunched; d++) {  //for loop example\r... */\n    tag_357:\n        /* \"WandInstruments.sol\":10164:10180  daySinceLaunched */\n      dup2\n        /* \"WandInstruments.sol\":10160:10161  d */\n      dup2\n        /* \"WandInstruments.sol\":10160:10180  d < daySinceLaunched */\n      lt\n        /* \"WandInstruments.sol\":10123:10282  for (d = daySinceLaunched - numdays; d < daySinceLaunched; d++) {  //for loop example\r... */\n      iszero\n      tag_358\n      jumpi\n        /* \"WandInstruments.sol\":10241:10263  circulatingSupplyXDays */\n      0x19\n        /* \"WandInstruments.sol\":10241:10266  circulatingSupplyXDays[d] */\n      0x00\n        /* \"WandInstruments.sol\":10264:10265  d */\n      dup3\n        /* \"WandInstruments.sol\":10241:10266  circulatingSupplyXDays[d] */\n      dup2\n      mstore\n      0x20\n      add\n      swap1\n      dup2\n      mstore\n      0x20\n      add\n      0x00\n      keccak256\n      sload\n        /* \"WandInstruments.sol\":10222:10266  xDaysCircSupply += circulatingSupplyXDays[d] */\n      dup5\n      tag_361\n      swap2\n      swap1\n      tag_227\n      jump\t// in\n    tag_361:\n      swap4\n      pop\n        /* \"WandInstruments.sol\":10182:10185  d++ */\n      dup1\n      dup1\n      tag_362\n      swap1\n      tag_243\n      jump\t// in\n    tag_362:\n      swap2\n      pop\n      pop\n        /* \"WandInstruments.sol\":10123:10282  for (d = daySinceLaunched - numdays; d < daySinceLaunched; d++) {  //for loop example\r... */\n      jump(tag_357)\n    tag_358:\n        /* \"WandInstruments.sol\":10001:10293  if (daySinceLaunched == 0) {\r... */\n    tag_356:\n        /* \"WandInstruments.sol\":10308:10361  decDiv18(this.getTokensBoughtXDays(),xDaysCircSupply) */\n      tag_363\n        /* \"WandInstruments.sol\":10317:10321  this */\n      address\n        /* \"WandInstruments.sol\":10317:10342  this.getTokensBoughtXDays */\n      0xffffffffffffffffffffffffffffffffffffffff\n      and\n      0x71cd58f9\n        /* \"WandInstruments.sol\":10317:10344  this.getTokensBoughtXDays() */\n      mload(0x40)\n      dup2\n      0xffffffff\n      and\n      0xe0\n      shl\n      dup2\n      mstore\n      0x04\n      add\n      0x20\n      mload(0x40)\n      dup1\n      dup4\n      sub\n      dup2\n      dup7\n      dup1\n      extcodesize\n      iszero\n      dup1\n      iszero\n      tag_364\n      jumpi\n      0x00\n      dup1\n      revert\n    tag_364:\n      pop\n      gas\n      staticcall\n      iszero\n      dup1\n      iszero\n      tag_366\n      jumpi\n      returndatasize\n      0x00\n      dup1\n      returndatacopy\n      revert(0x00, returndatasize)\n    tag_366:\n      pop\n      pop\n      pop\n      pop\n      mload(0x40)\n      returndatasize\n      not(0x1f)\n      0x1f\n      dup3\n      add\n      and\n      dup3\n      add\n      dup1\n      0x40\n      mstore\n      pop\n      dup2\n      add\n      swap1\n      tag_367\n      swap2\n      swap1\n      tag_221\n      jump\t// in\n    tag_367:\n        /* \"WandInstruments.sol\":10345:10360  xDaysCircSupply */\n      dup6\n        /* \"WandInstruments.sol\":10308:10316  decDiv18 */\n      tag_249\n        /* \"WandInstruments.sol\":10308:10361  decDiv18(this.getTokensBoughtXDays(),xDaysCircSupply) */\n      jump\t// in\n    tag_363:\n        /* \"WandInstruments.sol\":10302:10361  _gF = decDiv18(this.getTokensBoughtXDays(),xDaysCircSupply) */\n      swap5\n      pop\n        /* \"WandInstruments.sol\":10381:10399  300000000000000000 */\n      0x0429d069189e0000\n        /* \"WandInstruments.sol\":10375:10378  _gF */\n      dup6\n        /* \"WandInstruments.sol\":10375:10399  _gF > 300000000000000000 */\n      gt\n        /* \"WandInstruments.sol\":10371:10458  if (_gF > 300000000000000000)\r... */\n      iszero\n      tag_368\n      jumpi\n        /* \"WandInstruments.sol\":10429:10447  300000000000000000 */\n      0x0429d069189e0000\n        /* \"WandInstruments.sol\":10423:10447  _gF = 300000000000000000 */\n      swap5\n      pop\n        /* \"WandInstruments.sol\":10371:10458  if (_gF > 300000000000000000)\r... */\n    tag_368:\n        /* \"WandInstruments.sol\":10474:10477  _gF */\n      dup5\n        /* \"WandInstruments.sol\":10467:10477  return _gF */\n      swap6\n      pop\n      pop\n      pop\n      pop\n      pop\n      pop\n        /* \"WandInstruments.sol\":9583:10486  function getGrowthFactor() external view returns (uint256){\r... */\n      swap1\n      jump\t// out\n        /* \"WandInstruments.sol\":14817:14906  function whitelist(address _addr) public onlyOwner {  \r... */\n    tag_157:\n      pop\n      jump\t// out\n        /* \"WandInstruments.sol\":1897:1958  mapping (string => stableTokensParams) public stableERC20Info */\n    tag_162:\n      0x1a\n      dup2\n      dup1\n      mload\n      0x20\n      dup2\n      add\n      dup3\n      add\n      dup1\n      mload\n      dup5\n      dup3\n      mstore\n      0x20\n      dup4\n      add\n      0x20\n      dup6\n      add\n      keccak256\n      dup2\n      dup4\n      mstore\n      dup1\n      swap6\n      pop\n      pop\n      pop\n      pop\n      pop\n      pop\n      0x00\n      swap2\n      pop\n      swap1\n      pop\n      dup1\n      0x00\n      add\n      0x00\n      swap1\n      sload\n      swap1\n      0x0100\n      exp\n      swap1\n      div\n      0xffffffffffffffffffffffffffffffffffffffff\n      and\n      swap1\n      dup1\n      0x01\n      add\n      sload\n      swap1\n      pop\n      dup3\n      jump\t// out\n        /* \"WandInstruments.sol\":9043:9550  function claimLockedUSDC(address _claimant, string memory _stableChosen) public {\r... */\n    tag_169:\n        /* \"WandInstruments.sol\":9162:9181  withheldWithdrawals */\n      0x1b\n        /* \"WandInstruments.sol\":9162:9192  withheldWithdrawals[_claimant] */\n      0x00\n        /* \"WandInstruments.sol\":9182:9191  _claimant */\n      dup4\n        /* \"WandInstruments.sol\":9162:9192  withheldWithdrawals[_claimant] */\n      0xffffffffffffffffffffffffffffffffffffffff\n      and\n      0xffffffffffffffffffffffffffffffffffffffff\n      and\n      dup2\n      mstore\n      0x20\n      add\n      swap1\n      dup2\n      mstore\n      0x20\n      add\n      0x00\n      keccak256\n        /* \"WandInstruments.sol\":9162:9205  withheldWithdrawals[_claimant].timeUnlocked */\n      0x00\n      add\n      sload\n        /* \"WandInstruments.sol\":9143:9158  block.timestamp */\n      timestamp\n        /* \"WandInstruments.sol\":9143:9205  block.timestamp >= withheldWithdrawals[_claimant].timeUnlocked */\n      lt\n      iszero\n        /* \"WandInstruments.sol\":9134:9222  require (block.timestamp >= withheldWithdrawals[_claimant].timeUnlocked, \"Not unlocked\") */\n      tag_372\n      jumpi\n      mload(0x40)\n      0x08c379a000000000000000000000000000000000000000000000000000000000\n      dup2\n      mstore\n      0x04\n      add\n      tag_373\n      swap1\n      tag_374\n      jump\t// in\n    tag_373:\n      mload(0x40)\n      dup1\n      swap2\n      sub\n      swap1\n      revert\n    tag_372:\n        /* \"WandInstruments.sol\":9254:9269  stableERC20Info */\n      0x1a\n        /* \"WandInstruments.sol\":9270:9283  _stableChosen */\n      dup2\n        /* \"WandInstruments.sol\":9254:9284  stableERC20Info[_stableChosen] */\n      mload(0x40)\n      tag_375\n      swap2\n      swap1\n      tag_321\n      jump\t// in\n    tag_375:\n      swap1\n      dup2\n      mstore\n      0x20\n      add\n      mload(0x40)\n      dup1\n      swap2\n      sub\n      swap1\n      keccak256\n        /* \"WandInstruments.sol\":9254:9300  stableERC20Info[_stableChosen].contractAddress */\n      0x00\n      add\n      0x00\n      swap1\n      sload\n      swap1\n      0x0100\n      exp\n      swap1\n      div\n      0xffffffffffffffffffffffffffffffffffffffff\n      and\n        /* \"WandInstruments.sol\":9233:9244  tokenStable */\n      0x16\n      0x00\n        /* \"WandInstruments.sol\":9233:9301  tokenStable = IERC20(stableERC20Info[_stableChosen].contractAddress) */\n      0x0100\n      exp\n      dup2\n      sload\n      dup2\n      0xffffffffffffffffffffffffffffffffffffffff\n      mul\n      not\n      and\n      swap1\n      dup4\n      0xffffffffffffffffffffffffffffffffffffffff\n      and\n      mul\n      or\n      swap1\n      sstore\n      pop\n        /* \"WandInstruments.sol\":9383:9400  uint256 claimAmts */\n      0x00\n        /* \"WandInstruments.sol\":9423:9442  withheldWithdrawals */\n      0x1b\n        /* \"WandInstruments.sol\":9423:9453  withheldWithdrawals[_claimant] */\n      0x00\n        /* \"WandInstruments.sol\":9443:9452  _claimant */\n      dup5\n        /* \"WandInstruments.sol\":9423:9453  withheldWithdrawals[_claimant] */\n      0xffffffffffffffffffffffffffffffffffffffff\n      and\n      0xffffffffffffffffffffffffffffffffffffffff\n      and\n      dup2\n      mstore\n      0x20\n      add\n      swap1\n      dup2\n      mstore\n      0x20\n      add\n      0x00\n      keccak256\n        /* \"WandInstruments.sol\":9423:9461  withheldWithdrawals[_claimant].amounts */\n      0x01\n      add\n      sload\n        /* \"WandInstruments.sol\":9411:9461  claimAmts = withheldWithdrawals[_claimant].amounts */\n      swap1\n      pop\n        /* \"WandInstruments.sol\":9472:9540  _safeTransferFrom(tokenStable, address(this), msg.sender, claimAmts) */\n      tag_376\n        /* \"WandInstruments.sol\":9490:9501  tokenStable */\n      0x16\n      0x00\n      swap1\n      sload\n      swap1\n      0x0100\n      exp\n      swap1\n      div\n      0xffffffffffffffffffffffffffffffffffffffff\n      and\n        /* \"WandInstruments.sol\":9511:9515  this */\n      address\n        /* \"WandInstruments.sol\":9518:9528  msg.sender */\n      caller\n        /* \"WandInstruments.sol\":9530:9539  claimAmts */\n      dup5\n        /* \"WandInstruments.sol\":9472:9489  _safeTransferFrom */\n      tag_277\n        /* \"WandInstruments.sol\":9472:9540  _safeTransferFrom(tokenStable, address(this), msg.sender, claimAmts) */\n      jump\t// in\n    tag_376:\n        /* \"WandInstruments.sol\":9123:9550  {\r... */\n      pop\n        /* \"WandInstruments.sol\":9043:9550  function claimLockedUSDC(address _claimant, string memory _stableChosen) public {\r... */\n      pop\n      pop\n      jump\t// out\n        /* \"WandInstruments.sol\":655:689  address public scepterTreasuryAddr */\n    tag_172:\n      0x08\n      0x00\n      swap1\n      sload\n      swap1\n      0x0100\n      exp\n      swap1\n      div\n      0xffffffffffffffffffffffffffffffffffffffff\n      and\n      dup2\n      jump\t// out\n        /* \"WandInstruments.sol\":1483:1501  IERC20 public BTON */\n    tag_176:\n      0x15\n      0x00\n      swap1\n      sload\n      swap1\n      0x0100\n      exp\n      swap1\n      div\n      0xffffffffffffffffffffffffffffffffffffffff\n      and\n      dup2\n      jump\t// out\n        /* \"WandInstruments.sol\":5301:7027  function cashOutScepter(uint256 amountSCPtoSell, uint256 timeChosenLocked, string memory _stableChosen) public payable{\r... */\n    tag_181:\n        /* \"WandInstruments.sol\":5512:5527  stableERC20Info */\n      0x1a\n        /* \"WandInstruments.sol\":5528:5541  _stableChosen */\n      dup2\n        /* \"WandInstruments.sol\":5512:5542  stableERC20Info[_stableChosen] */\n      mload(0x40)\n      tag_378\n      swap2\n      swap1\n      tag_321\n      jump\t// in\n    tag_378:\n      swap1\n      dup2\n      mstore\n      0x20\n      add\n      mload(0x40)\n      dup1\n      swap2\n      sub\n      swap1\n      keccak256\n        /* \"WandInstruments.sol\":5512:5558  stableERC20Info[_stableChosen].contractAddress */\n      0x00\n      add\n      0x00\n      swap1\n      sload\n      swap1\n      0x0100\n      exp\n      swap1\n      div\n      0xffffffffffffffffffffffffffffffffffffffff\n      and\n        /* \"WandInstruments.sol\":5491:5502  tokenStable */\n      0x16\n      0x00\n        /* \"WandInstruments.sol\":5491:5559  tokenStable = IERC20(stableERC20Info[_stableChosen].contractAddress) */\n      0x0100\n      exp\n      dup2\n      sload\n      dup2\n      0xffffffffffffffffffffffffffffffffffffffff\n      mul\n      not\n      and\n      swap1\n      dup4\n      0xffffffffffffffffffffffffffffffffffffffff\n      and\n      mul\n      or\n      swap1\n      sstore\n      pop\n        /* \"WandInstruments.sol\":5570:5596  uint256 trader_tsc_balance */\n      0x00\n        /* \"WandInstruments.sol\":5599:5603  SPTR */\n      0x13\n      0x00\n      swap1\n      sload\n      swap1\n      0x0100\n      exp\n      swap1\n      div\n      0xffffffffffffffffffffffffffffffffffffffff\n      and\n        /* \"WandInstruments.sol\":5599:5613  SPTR.balanceOf */\n      0xffffffffffffffffffffffffffffffffffffffff\n      and\n      0x70a08231\n        /* \"WandInstruments.sol\":5614:5624  msg.sender */\n      caller\n        /* \"WandInstruments.sol\":5599:5625  SPTR.balanceOf(msg.sender) */\n      mload(0x40)\n      dup3\n      0xffffffff\n      and\n      0xe0\n      shl\n      dup2\n      mstore\n      0x04\n      add\n      tag_379\n      swap2\n      swap1\n      tag_56\n      jump\t// in\n    tag_379:\n      0x20\n      mload(0x40)\n      dup1\n      dup4\n      sub\n      dup2\n      dup7\n      dup1\n      extcodesize\n      iszero\n      dup1\n      iszero\n      tag_380\n      jumpi\n      0x00\n      dup1\n      revert\n    tag_380:\n      pop\n      gas\n      staticcall\n      iszero\n      dup1\n      iszero\n      tag_382\n      jumpi\n      returndatasize\n      0x00\n      dup1\n      returndatacopy\n      revert(0x00, returndatasize)\n    tag_382:\n      pop\n      pop\n      pop\n      pop\n      mload(0x40)\n      returndatasize\n      not(0x1f)\n      0x1f\n      dup3\n      add\n      and\n      dup3\n      add\n      dup1\n      0x40\n      mstore\n      pop\n      dup2\n      add\n      swap1\n      tag_383\n      swap2\n      swap1\n      tag_221\n      jump\t// in\n    tag_383:\n        /* \"WandInstruments.sol\":5570:5625  uint256 trader_tsc_balance = SPTR.balanceOf(msg.sender) */\n      swap1\n      pop\n        /* \"WandInstruments.sol\":5665:5680  amountSCPtoSell */\n      dup4\n        /* \"WandInstruments.sol\":5644:5662  trader_tsc_balance */\n      dup2\n        /* \"WandInstruments.sol\":5644:5680  trader_tsc_balance > amountSCPtoSell */\n      gt\n        /* \"WandInstruments.sol\":5636:5711  require(trader_tsc_balance > amountSCPtoSell, \"You dont have that amount!\") */\n      tag_384\n      jumpi\n      mload(0x40)\n      0x08c379a000000000000000000000000000000000000000000000000000000000\n      dup2\n      mstore\n      0x04\n      add\n      tag_385\n      swap1\n      tag_275\n      jump\t// in\n    tag_385:\n      mload(0x40)\n      dup1\n      swap2\n      sub\n      swap1\n      revert\n    tag_384:\n        /* \"WandInstruments.sol\":5913:5924  tokenStable */\n      0x16\n      0x00\n      swap1\n      sload\n      swap1\n      0x0100\n      exp\n      swap1\n      div\n      0xffffffffffffffffffffffffffffffffffffffff\n      and\n        /* \"WandInstruments.sol\":5913:5933  tokenStable.transfer */\n      0xffffffffffffffffffffffffffffffffffffffff\n      and\n      0xa9059cbb\n        /* \"WandInstruments.sol\":5934:5944  msg.sender */\n      caller\n        /* \"WandInstruments.sol\":357:363  10**18 */\n      0x0de0b6b3a7640000\n        /* \"WandInstruments.sol\":5965:5966  1 */\n      0x01\n        /* \"WandInstruments.sol\":5965:5977  1*(DECIMALS) */\n      tag_386\n      swap2\n      swap1\n      tag_339\n      jump\t// in\n    tag_386:\n        /* \"WandInstruments.sol\":5946:5961  amountSCPtoSell */\n      dup8\n        /* \"WandInstruments.sol\":5946:5978  amountSCPtoSell + (1*(DECIMALS)) */\n      tag_387\n      swap2\n      swap1\n      tag_227\n      jump\t// in\n    tag_387:\n        /* \"WandInstruments.sol\":5913:5979  tokenStable.transfer(msg.sender, amountSCPtoSell + (1*(DECIMALS))) */\n      mload(0x40)\n      dup4\n      0xffffffff\n      and\n      0xe0\n      shl\n      dup2\n      mstore\n      0x04\n      add\n      tag_388\n      swap3\n      swap2\n      swap1\n      tag_164\n      jump\t// in\n    tag_388:\n      0x20\n      mload(0x40)\n      dup1\n      dup4\n      sub\n      dup2\n      0x00\n      dup8\n      dup1\n      extcodesize\n      iszero\n      dup1\n      iszero\n      tag_389\n      jumpi\n      0x00\n      dup1\n      revert\n    tag_389:\n      pop\n      gas\n      call\n      iszero\n      dup1\n      iszero\n      tag_391\n      jumpi\n      returndatasize\n      0x00\n      dup1\n      returndatacopy\n      revert(0x00, returndatasize)\n    tag_391:\n      pop\n      pop\n      pop\n      pop\n      mload(0x40)\n      returndatasize\n      not(0x1f)\n      0x1f\n      dup3\n      add\n      and\n      dup3\n      add\n      dup1\n      0x40\n      mstore\n      pop\n      dup2\n      add\n      swap1\n      tag_392\n      swap2\n      swap1\n      tag_393\n      jump\t// in\n    tag_392:\n      pop\n        /* \"WandInstruments.sol\":6082:6149  _safeTransferFrom(SPTR, msg.sender, address(this), amountSCPtoSell) */\n      tag_394\n        /* \"WandInstruments.sol\":6100:6104  SPTR */\n      0x13\n      0x00\n      swap1\n      sload\n      swap1\n      0x0100\n      exp\n      swap1\n      div\n      0xffffffffffffffffffffffffffffffffffffffff\n      and\n        /* \"WandInstruments.sol\":6106:6116  msg.sender */\n      caller\n        /* \"WandInstruments.sol\":6126:6130  this */\n      address\n        /* \"WandInstruments.sol\":6133:6148  amountSCPtoSell */\n      dup8\n        /* \"WandInstruments.sol\":6082:6099  _safeTransferFrom */\n      tag_277\n        /* \"WandInstruments.sol\":6082:6149  _safeTransferFrom(SPTR, msg.sender, address(this), amountSCPtoSell) */\n      jump\t// in\n    tag_394:\n        /* \"WandInstruments.sol\":6163:6178  uint256 usdcAmt */\n      0x00\n        /* \"WandInstruments.sol\":6225:6240  amountSCPtoSell */\n      dup5\n        /* \"WandInstruments.sol\":6203:6207  this */\n      address\n        /* \"WandInstruments.sol\":6203:6220  this.getSellPrice */\n      0xffffffffffffffffffffffffffffffffffffffff\n      and\n      0x43d32e9c\n        /* \"WandInstruments.sol\":6203:6222  this.getSellPrice() */\n      mload(0x40)\n      dup2\n      0xffffffff\n      and\n      0xe0\n      shl\n      dup2\n      mstore\n      0x04\n      add\n      0x20\n      mload(0x40)\n      dup1\n      dup4\n      sub\n      dup2\n      dup7\n      dup1\n      extcodesize\n      iszero\n      dup1\n      iszero\n      tag_395\n      jumpi\n      0x00\n      dup1\n      revert\n    tag_395:\n      pop\n      gas\n      staticcall\n      iszero\n      dup1\n      iszero\n      tag_397\n      jumpi\n      returndatasize\n      0x00\n      dup1\n      returndatacopy\n      revert(0x00, returndatasize)\n    tag_397:\n      pop\n      pop\n      pop\n      pop\n      mload(0x40)\n      returndatasize\n      not(0x1f)\n      0x1f\n      dup3\n      add\n      and\n      dup3\n      add\n      dup1\n      0x40\n      mstore\n      pop\n      dup2\n      add\n      swap1\n      tag_398\n      swap2\n      swap1\n      tag_221\n      jump\t// in\n    tag_398:\n        /* \"WandInstruments.sol\":6203:6240  this.getSellPrice() * amountSCPtoSell */\n      tag_399\n      swap2\n      swap1\n      tag_339\n      jump\t// in\n    tag_399:\n        /* \"WandInstruments.sol\":6193:6240  usdcAmt = this.getSellPrice() * amountSCPtoSell */\n      swap1\n      pop\n        /* \"WandInstruments.sol\":6515:6531  uint256 dInArray */\n      0x00\n        /* \"WandInstruments.sol\":6565:6570  86400 */\n      0x015180\n        /* \"WandInstruments.sol\":6551:6563  timeLaunched */\n      sload(0x0c)\n        /* \"WandInstruments.sol\":6534:6549  block.timestamp */\n      timestamp\n        /* \"WandInstruments.sol\":6534:6563  block.timestamp- timeLaunched */\n      tag_400\n      swap2\n      swap1\n      tag_233\n      jump\t// in\n    tag_400:\n        /* \"WandInstruments.sol\":6533:6570  (block.timestamp- timeLaunched)/86400 */\n      tag_401\n      swap2\n      swap1\n      tag_231\n      jump\t// in\n    tag_401:\n        /* \"WandInstruments.sol\":6515:6570  uint256 dInArray =(block.timestamp- timeLaunched)/86400 */\n      swap1\n      pop\n        /* \"WandInstruments.sol\":6611:6626  amountSCPtoSell */\n      dup6\n        /* \"WandInstruments.sol\":6582:6597  tokensSoldXDays */\n      0x18\n        /* \"WandInstruments.sol\":6582:6607  tokensSoldXDays[dInArray] */\n      0x00\n        /* \"WandInstruments.sol\":6598:6606  dInArray */\n      dup4\n        /* \"WandInstruments.sol\":6582:6607  tokensSoldXDays[dInArray] */\n      dup2\n      mstore\n      0x20\n      add\n      swap1\n      dup2\n      mstore\n      0x20\n      add\n      0x00\n      keccak256\n      0x00\n        /* \"WandInstruments.sol\":6582:6626  tokensSoldXDays[dInArray] += amountSCPtoSell */\n      dup3\n      dup3\n      sload\n      tag_402\n      swap2\n      swap1\n      tag_227\n      jump\t// in\n    tag_402:\n      swap3\n      pop\n      pop\n      dup2\n      swap1\n      sstore\n      pop\n        /* \"WandInstruments.sol\":6673:6688  amountSCPtoSell */\n      dup6\n        /* \"WandInstruments.sol\":6637:6659  circulatingSupplyXDays */\n      0x19\n        /* \"WandInstruments.sol\":6637:6669  circulatingSupplyXDays[dInArray] */\n      0x00\n        /* \"WandInstruments.sol\":6660:6668  dInArray */\n      dup4\n        /* \"WandInstruments.sol\":6637:6669  circulatingSupplyXDays[dInArray] */\n      dup2\n      mstore\n      0x20\n      add\n      swap1\n      dup2\n      mstore\n      0x20\n      add\n      0x00\n      keccak256\n      0x00\n        /* \"WandInstruments.sol\":6637:6688  circulatingSupplyXDays[dInArray] -= amountSCPtoSell */\n      dup3\n      dup3\n      sload\n      tag_403\n      swap2\n      swap1\n      tag_233\n      jump\t// in\n    tag_403:\n      swap3\n      pop\n      pop\n      dup2\n      swap1\n      sstore\n      pop\n        /* \"WandInstruments.sol\":5419:7027  {\r... */\n      pop\n      pop\n      pop\n        /* \"WandInstruments.sol\":5301:7027  function cashOutScepter(uint256 amountSCPtoSell, uint256 timeChosenLocked, string memory _stableChosen) public payable{\r... */\n      pop\n      pop\n      pop\n      jump\t// out\n        /* \"WandInstruments.sol\":406:431  uint256 public sellFactor */\n    tag_184:\n      sload(0x02)\n      dup2\n      jump\t// out\n        /* \"WandInstruments.sol\":1458:1476  IERC20 public WAND */\n    tag_188:\n      0x14\n      0x00\n      swap1\n      sload\n      swap1\n      0x0100\n      exp\n      swap1\n      div\n      0xffffffffffffffffffffffffffffffffffffffff\n      and\n      dup2\n      jump\t// out\n        /* \"WandInstruments.sol\":14082:14368  function getTokensSoldXDays() external view returns (uint256){\r... */\n    tag_192:\n        /* \"WandInstruments.sol\":14135:14142  uint256 */\n      0x00\n        /* \"WandInstruments.sol\":14154:14169  uint256 soldNum */\n      dup1\n        /* \"WandInstruments.sol\":14180:14189  uint256 d */\n      0x00\n        /* \"WandInstruments.sol\":14200:14215  uint256 numdays */\n      dup1\n        /* \"WandInstruments.sol\":14236:14241  86400 */\n      0x015180\n        /* \"WandInstruments.sol\":14218:14235  daysInCalculation */\n      sload(0x0d)\n        /* \"WandInstruments.sol\":14218:14241  daysInCalculation/86400 */\n      tag_405\n      swap2\n      swap1\n      tag_231\n      jump\t// in\n    tag_405:\n        /* \"WandInstruments.sol\":14200:14241  uint256 numdays = daysInCalculation/86400 */\n      swap1\n      pop\n        /* \"WandInstruments.sol\":14263:14264  0 */\n      0x00\n        /* \"WandInstruments.sol\":14259:14264  d = 0 */\n      swap2\n      pop\n        /* \"WandInstruments.sol\":14254:14337  for (d = 0; d < numdays; d++) { \r... */\n    tag_406:\n        /* \"WandInstruments.sol\":14270:14277  numdays */\n      dup1\n        /* \"WandInstruments.sol\":14266:14267  d */\n      dup3\n        /* \"WandInstruments.sol\":14266:14277  d < numdays */\n      lt\n        /* \"WandInstruments.sol\":14254:14337  for (d = 0; d < numdays; d++) { \r... */\n      iszero\n      tag_407\n      jumpi\n        /* \"WandInstruments.sol\":14309:14324  tokensSoldXDays */\n      0x18\n        /* \"WandInstruments.sol\":14309:14327  tokensSoldXDays[d] */\n      0x00\n        /* \"WandInstruments.sol\":14325:14326  d */\n      dup4\n        /* \"WandInstruments.sol\":14309:14327  tokensSoldXDays[d] */\n      dup2\n      mstore\n      0x20\n      add\n      swap1\n      dup2\n      mstore\n      0x20\n      add\n      0x00\n      keccak256\n      sload\n        /* \"WandInstruments.sol\":14298:14327  soldNum += tokensSoldXDays[d] */\n      dup4\n      tag_409\n      swap2\n      swap1\n      tag_227\n      jump\t// in\n    tag_409:\n      swap3\n      pop\n        /* \"WandInstruments.sol\":14279:14282  d++ */\n      dup2\n      dup1\n      tag_410\n      swap1\n      tag_243\n      jump\t// in\n    tag_410:\n      swap3\n      pop\n      pop\n        /* \"WandInstruments.sol\":14254:14337  for (d = 0; d < numdays; d++) { \r... */\n      jump(tag_406)\n    tag_407:\n        /* \"WandInstruments.sol\":14353:14360  soldNum */\n      dup3\n        /* \"WandInstruments.sol\":14346:14360  return soldNum */\n      swap4\n      pop\n      pop\n      pop\n      pop\n        /* \"WandInstruments.sol\":14082:14368  function getTokensSoldXDays() external view returns (uint256){\r... */\n      swap1\n      jump\t// out\n        /* \"WandInstruments.sol\":14914:15133  function addStable(string memory _ticker, address _addr, uint256 _dec) public onlyOwner {\r... */\n    tag_198:\n        /* \"WandInstruments.sol\":15062:15067  _addr */\n      dup2\n        /* \"WandInstruments.sol\":15019:15034  stableERC20Info */\n      0x1a\n        /* \"WandInstruments.sol\":15035:15042  _ticker */\n      dup5\n        /* \"WandInstruments.sol\":15019:15043  stableERC20Info[_ticker] */\n      mload(0x40)\n      tag_413\n      swap2\n      swap1\n      tag_321\n      jump\t// in\n    tag_413:\n      swap1\n      dup2\n      mstore\n      0x20\n      add\n      mload(0x40)\n      dup1\n      swap2\n      sub\n      swap1\n      keccak256\n        /* \"WandInstruments.sol\":15019:15059  stableERC20Info[_ticker].contractAddress */\n      0x00\n      add\n      0x00\n        /* \"WandInstruments.sol\":15019:15067  stableERC20Info[_ticker].contractAddress = _addr */\n      0x0100\n      exp\n      dup2\n      sload\n      dup2\n      0xffffffffffffffffffffffffffffffffffffffff\n      mul\n      not\n      and\n      swap1\n      dup4\n      0xffffffffffffffffffffffffffffffffffffffff\n      and\n      mul\n      or\n      swap1\n      sstore\n      pop\n        /* \"WandInstruments.sol\":15119:15123  _dec */\n      dup1\n        /* \"WandInstruments.sol\":15078:15093  stableERC20Info */\n      0x1a\n        /* \"WandInstruments.sol\":15094:15101  _ticker */\n      dup5\n        /* \"WandInstruments.sol\":15078:15102  stableERC20Info[_ticker] */\n      mload(0x40)\n      tag_414\n      swap2\n      swap1\n      tag_321\n      jump\t// in\n    tag_414:\n      swap1\n      dup2\n      mstore\n      0x20\n      add\n      mload(0x40)\n      dup1\n      swap2\n      sub\n      swap1\n      keccak256\n        /* \"WandInstruments.sol\":15078:15116  stableERC20Info[_ticker].tokenDecimals */\n      0x01\n      add\n        /* \"WandInstruments.sol\":15078:15123  stableERC20Info[_ticker].tokenDecimals = _dec */\n      dup2\n      swap1\n      sstore\n      pop\n        /* \"WandInstruments.sol\":14914:15133  function addStable(string memory _ticker, address _addr, uint256 _dec) public onlyOwner {\r... */\n      pop\n      pop\n      pop\n      jump\t// out\n        /* \"WandInstruments.sol\":372:399  uint256 public growthFactor */\n    tag_201:\n      sload(0x01)\n      dup2\n      jump\t// out\n        /* \"WandInstruments.sol\":1187:1257  address public testwallet = 0x617F2E2fD72FD9D5503197092aC168c91465E7f2 */\n    tag_205:\n      0x12\n      0x00\n      swap1\n      sload\n      swap1\n      0x0100\n      exp\n      swap1\n      div\n      0xffffffffffffffffffffffffffffffffffffffff\n      and\n      dup2\n      jump\t// out\n        /* \"WandInstruments.sol\":620:648  address public treasury1Addr */\n    tag_209:\n      0x07\n      0x00\n      swap1\n      sload\n      swap1\n      0x0100\n      exp\n      swap1\n      div\n      0xffffffffffffffffffffffffffffffffffffffff\n      and\n      dup2\n      jump\t// out\n        /* \"WandInstruments.sol\":12196:12352  function setDaysUsedInFactors(uint256 numDays) public {  \r... */\n    tag_214:\n        /* \"WandInstruments.sol\":12329:12334  86400 */\n      0x015180\n        /* \"WandInstruments.sol\":12319:12326  numDays */\n      dup2\n        /* \"WandInstruments.sol\":12319:12334  numDays * 86400 */\n      tag_416\n      swap2\n      swap1\n      tag_339\n      jump\t// in\n    tag_416:\n        /* \"WandInstruments.sol\":12299:12316  daysInCalculation */\n      0x0d\n        /* \"WandInstruments.sol\":12299:12334  daysInCalculation = numDays * 86400 */\n      dup2\n      swap1\n      sstore\n      pop\n        /* \"WandInstruments.sol\":12196:12352  function setDaysUsedInFactors(uint256 numDays) public {  \r... */\n      pop\n      jump\t// out\n        /* \"WandInstruments.sol\":4583:4755  function decMul18(uint x, uint y) internal pure returns (uint decProd) {\r... */\n    tag_228:\n        /* \"WandInstruments.sol\":4640:4652  uint decProd */\n      0x00\n        /* \"WandInstruments.sol\":4665:4677  uint prod_xy */\n      dup1\n        /* \"WandInstruments.sol\":4680:4689  mul(x, y) */\n      tag_418\n        /* \"WandInstruments.sol\":4684:4685  x */\n      dup5\n        /* \"WandInstruments.sol\":4687:4688  y */\n      dup5\n        /* \"WandInstruments.sol\":4680:4683  mul */\n      tag_419\n        /* \"WandInstruments.sol\":4680:4689  mul(x, y) */\n      jump\t// in\n    tag_418:\n        /* \"WandInstruments.sol\":4665:4689  uint prod_xy = mul(x, y) */\n      swap1\n      pop\n        /* \"WandInstruments.sol\":357:363  10**18 */\n      0x0de0b6b3a7640000\n        /* \"WandInstruments.sol\":4710:4736  add(prod_xy, DECIMALS / 2) */\n      tag_420\n        /* \"WandInstruments.sol\":4714:4721  prod_xy */\n      dup3\n        /* \"WandInstruments.sol\":4734:4735  2 */\n      0x02\n        /* \"WandInstruments.sol\":357:363  10**18 */\n      0x0de0b6b3a7640000\n        /* \"WandInstruments.sol\":4723:4735  DECIMALS / 2 */\n      tag_421\n      swap2\n      swap1\n      tag_231\n      jump\t// in\n    tag_421:\n        /* \"WandInstruments.sol\":4710:4713  add */\n      tag_422\n        /* \"WandInstruments.sol\":4710:4736  add(prod_xy, DECIMALS / 2) */\n      jump\t// in\n    tag_420:\n        /* \"WandInstruments.sol\":4710:4747  add(prod_xy, DECIMALS / 2) / DECIMALS */\n      tag_423\n      swap2\n      swap1\n      tag_231\n      jump\t// in\n    tag_423:\n        /* \"WandInstruments.sol\":4700:4747  decProd = add(prod_xy, DECIMALS / 2) / DECIMALS */\n      swap2\n      pop\n        /* \"WandInstruments.sol\":4654:4755  {\r... */\n      pop\n        /* \"WandInstruments.sol\":4583:4755  function decMul18(uint x, uint y) internal pure returns (uint decProd) {\r... */\n      swap3\n      swap2\n      pop\n      pop\n      jump\t// out\n        /* \"WandInstruments.sol\":4763:4944  function decDiv18(uint x, uint y) internal pure returns (uint decQuotient) {\r... */\n    tag_249:\n        /* \"WandInstruments.sol\":4820:4836  uint decQuotient */\n      0x00\n        /* \"WandInstruments.sol\":4849:4865  uint prod_xTEN18 */\n      dup1\n        /* \"WandInstruments.sol\":4868:4884  mul(x, DECIMALS) */\n      tag_425\n        /* \"WandInstruments.sol\":4872:4873  x */\n      dup5\n        /* \"WandInstruments.sol\":357:363  10**18 */\n      0x0de0b6b3a7640000\n        /* \"WandInstruments.sol\":4868:4871  mul */\n      tag_419\n        /* \"WandInstruments.sol\":4868:4884  mul(x, DECIMALS) */\n      jump\t// in\n    tag_425:\n        /* \"WandInstruments.sol\":4849:4884  uint prod_xTEN18 = mul(x, DECIMALS) */\n      swap1\n      pop\n        /* \"WandInstruments.sol\":4935:4936  y */\n      dup3\n        /* \"WandInstruments.sol\":4909:4932  add(prod_xTEN18, y / 2) */\n      tag_426\n        /* \"WandInstruments.sol\":4913:4924  prod_xTEN18 */\n      dup3\n        /* \"WandInstruments.sol\":4930:4931  2 */\n      0x02\n        /* \"WandInstruments.sol\":4926:4927  y */\n      dup7\n        /* \"WandInstruments.sol\":4926:4931  y / 2 */\n      tag_427\n      swap2\n      swap1\n      tag_231\n      jump\t// in\n    tag_427:\n        /* \"WandInstruments.sol\":4909:4912  add */\n      tag_422\n        /* \"WandInstruments.sol\":4909:4932  add(prod_xTEN18, y / 2) */\n      jump\t// in\n    tag_426:\n        /* \"WandInstruments.sol\":4909:4936  add(prod_xTEN18, y / 2) / y */\n      tag_428\n      swap2\n      swap1\n      tag_231\n      jump\t// in\n    tag_428:\n        /* \"WandInstruments.sol\":4895:4936  decQuotient = add(prod_xTEN18, y / 2) / y */\n      swap2\n      pop\n        /* \"WandInstruments.sol\":4838:4944  {\r... */\n      pop\n        /* \"WandInstruments.sol\":4763:4944  function decDiv18(uint x, uint y) internal pure returns (uint decQuotient) {\r... */\n      swap3\n      swap2\n      pop\n      pop\n      jump\t// out\n        /* \"WandInstruments.sol\":15145:15407  function _safeTransferFrom(\r... */\n    tag_277:\n        /* \"WandInstruments.sol\":15293:15302  bool sent */\n      0x00\n        /* \"WandInstruments.sol\":15305:15310  token */\n      dup5\n        /* \"WandInstruments.sol\":15305:15323  token.transferFrom */\n      0xffffffffffffffffffffffffffffffffffffffff\n      and\n      0x23b872dd\n        /* \"WandInstruments.sol\":15324:15330  sender */\n      dup6\n        /* \"WandInstruments.sol\":15332:15341  recipient */\n      dup6\n        /* \"WandInstruments.sol\":15343:15349  amount */\n      dup6\n        /* \"WandInstruments.sol\":15305:15350  token.transferFrom(sender, recipient, amount) */\n      mload(0x40)\n      dup5\n      0xffffffff\n      and\n      0xe0\n      shl\n      dup2\n      mstore\n      0x04\n      add\n      tag_430\n      swap4\n      swap3\n      swap2\n      swap1\n      tag_431\n      jump\t// in\n    tag_430:\n      0x20\n      mload(0x40)\n      dup1\n      dup4\n      sub\n      dup2\n      0x00\n      dup8\n      dup1\n      extcodesize\n      iszero\n      dup1\n      iszero\n      tag_432\n      jumpi\n      0x00\n      dup1\n      revert\n    tag_432:\n      pop\n      gas\n      call\n      iszero\n      dup1\n      iszero\n      tag_434\n      jumpi\n      returndatasize\n      0x00\n      dup1\n      returndatacopy\n      revert(0x00, returndatasize)\n    tag_434:\n      pop\n      pop\n      pop\n      pop\n      mload(0x40)\n      returndatasize\n      not(0x1f)\n      0x1f\n      dup3\n      add\n      and\n      dup3\n      add\n      dup1\n      0x40\n      mstore\n      pop\n      dup2\n      add\n      swap1\n      tag_435\n      swap2\n      swap1\n      tag_393\n      jump\t// in\n    tag_435:\n        /* \"WandInstruments.sol\":15293:15350  bool sent = token.transferFrom(sender, recipient, amount) */\n      swap1\n      pop\n        /* \"WandInstruments.sol\":15369:15373  sent */\n      dup1\n        /* \"WandInstruments.sol\":15361:15399  require(sent, \"Token transfer failed\") */\n      tag_436\n      jumpi\n      mload(0x40)\n      0x08c379a000000000000000000000000000000000000000000000000000000000\n      dup2\n      mstore\n      0x04\n      add\n      tag_437\n      swap1\n      tag_438\n      jump\t// in\n    tag_437:\n      mload(0x40)\n      dup1\n      swap2\n      sub\n      swap1\n      revert\n    tag_436:\n        /* \"WandInstruments.sol\":15282:15407  {\r... */\n      pop\n        /* \"WandInstruments.sol\":15145:15407  function _safeTransferFrom(\r... */\n      pop\n      pop\n      pop\n      pop\n      jump\t// out\n        /* \"WandInstruments.sol\":3768:4010  function mul(uint256 a, uint256 b) internal pure returns (uint256) {\r... */\n    tag_419:\n        /* \"WandInstruments.sol\":3826:3833  uint256 */\n      0x00\n        /* \"WandInstruments.sol\":3855:3856  0 */\n      dup1\n        /* \"WandInstruments.sol\":3850:3851  a */\n      dup4\n        /* \"WandInstruments.sol\":3850:3856  a == 0 */\n      eq\n        /* \"WandInstruments.sol\":3846:3889  if (a == 0) {\r... */\n      iszero\n      tag_440\n      jumpi\n        /* \"WandInstruments.sol\":3876:3877  0 */\n      0x00\n        /* \"WandInstruments.sol\":3869:3877  return 0 */\n      swap1\n      pop\n      jump(tag_439)\n        /* \"WandInstruments.sol\":3846:3889  if (a == 0) {\r... */\n    tag_440:\n        /* \"WandInstruments.sol\":3899:3908  uint256 c */\n      0x00\n        /* \"WandInstruments.sol\":3915:3916  b */\n      dup3\n        /* \"WandInstruments.sol\":3911:3912  a */\n      dup5\n        /* \"WandInstruments.sol\":3911:3916  a * b */\n      tag_441\n      swap2\n      swap1\n      tag_339\n      jump\t// in\n    tag_441:\n        /* \"WandInstruments.sol\":3899:3916  uint256 c = a * b */\n      swap1\n      pop\n        /* \"WandInstruments.sol\":3944:3945  b */\n      dup3\n        /* \"WandInstruments.sol\":3939:3940  a */\n      dup5\n        /* \"WandInstruments.sol\":3935:3936  c */\n      dup3\n        /* \"WandInstruments.sol\":3935:3940  c / a */\n      tag_442\n      swap2\n      swap1\n      tag_231\n      jump\t// in\n    tag_442:\n        /* \"WandInstruments.sol\":3935:3945  c / a == b */\n      eq\n        /* \"WandInstruments.sol\":3927:3983  require(c / a == b, \"uint overflow from multiplication\") */\n      tag_443\n      jumpi\n      mload(0x40)\n      0x08c379a000000000000000000000000000000000000000000000000000000000\n      dup2\n      mstore\n      0x04\n      add\n      tag_444\n      swap1\n      tag_445\n      jump\t// in\n    tag_444:\n      mload(0x40)\n      dup1\n      swap2\n      sub\n      swap1\n      revert\n    tag_443:\n        /* \"WandInstruments.sol\":4001:4002  c */\n      dup1\n        /* \"WandInstruments.sol\":3994:4002  return c */\n      swap2\n      pop\n      pop\n        /* \"WandInstruments.sol\":3768:4010  function mul(uint256 a, uint256 b) internal pure returns (uint256) {\r... */\n    tag_439:\n      swap3\n      swap2\n      pop\n      pop\n      jump\t// out\n        /* \"WandInstruments.sol\":4386:4571  function add(uint256 a, uint256 b) internal pure returns (uint256) {\r... */\n    tag_422:\n        /* \"WandInstruments.sol\":4444:4451  uint256 */\n      0x00\n        /* \"WandInstruments.sol\":4464:4473  uint256 c */\n      dup1\n        /* \"WandInstruments.sol\":4480:4481  b */\n      dup3\n        /* \"WandInstruments.sol\":4476:4477  a */\n      dup5\n        /* \"WandInstruments.sol\":4476:4481  a + b */\n      tag_447\n      swap2\n      swap1\n      tag_227\n      jump\t// in\n    tag_447:\n        /* \"WandInstruments.sol\":4464:4481  uint256 c = a + b */\n      swap1\n      pop\n        /* \"WandInstruments.sol\":4505:4506  a */\n      dup4\n        /* \"WandInstruments.sol\":4500:4501  c */\n      dup2\n        /* \"WandInstruments.sol\":4500:4506  c >= a */\n      lt\n      iszero\n        /* \"WandInstruments.sol\":4492:4544  require(c >= a, \"uint overflow from multiplication\") */\n      tag_448\n      jumpi\n      mload(0x40)\n      0x08c379a000000000000000000000000000000000000000000000000000000000\n      dup2\n      mstore\n      0x04\n      add\n      tag_449\n      swap1\n      tag_445\n      jump\t// in\n    tag_449:\n      mload(0x40)\n      dup1\n      swap2\n      sub\n      swap1\n      revert\n    tag_448:\n        /* \"WandInstruments.sol\":4562:4563  c */\n      dup1\n        /* \"WandInstruments.sol\":4555:4563  return c */\n      swap2\n      pop\n      pop\n        /* \"WandInstruments.sol\":4386:4571  function add(uint256 a, uint256 b) internal pure returns (uint256) {\r... */\n      swap3\n      swap2\n      pop\n      pop\n      jump\t// out\n        /* \"#utility.yul\":7:419   */\n    tag_451:\n        /* \"#utility.yul\":85:90   */\n      0x00\n        /* \"#utility.yul\":110:176   */\n      tag_453\n        /* \"#utility.yul\":126:175   */\n      tag_454\n        /* \"#utility.yul\":168:174   */\n      dup5\n        /* \"#utility.yul\":126:175   */\n      tag_455\n      jump\t// in\n    tag_454:\n        /* \"#utility.yul\":110:176   */\n      tag_456\n      jump\t// in\n    tag_453:\n        /* \"#utility.yul\":101:176   */\n      swap1\n      pop\n        /* \"#utility.yul\":199:205   */\n      dup3\n        /* \"#utility.yul\":192:197   */\n      dup2\n        /* \"#utility.yul\":185:206   */\n      mstore\n        /* \"#utility.yul\":237:241   */\n      0x20\n        /* \"#utility.yul\":230:235   */\n      dup2\n        /* \"#utility.yul\":226:242   */\n      add\n        /* \"#utility.yul\":275:278   */\n      dup5\n        /* \"#utility.yul\":266:272   */\n      dup5\n        /* \"#utility.yul\":261:264   */\n      dup5\n        /* \"#utility.yul\":257:273   */\n      add\n        /* \"#utility.yul\":254:279   */\n      gt\n        /* \"#utility.yul\":251:363   */\n      iszero\n      tag_457\n      jumpi\n        /* \"#utility.yul\":282:361   */\n      tag_458\n      tag_459\n      jump\t// in\n    tag_458:\n        /* \"#utility.yul\":251:363   */\n    tag_457:\n        /* \"#utility.yul\":372:413   */\n      tag_460\n        /* \"#utility.yul\":406:412   */\n      dup5\n        /* \"#utility.yul\":401:404   */\n      dup3\n        /* \"#utility.yul\":396:399   */\n      dup6\n        /* \"#utility.yul\":372:413   */\n      tag_461\n      jump\t// in\n    tag_460:\n        /* \"#utility.yul\":91:419   */\n      pop\n        /* \"#utility.yul\":7:419   */\n      swap4\n      swap3\n      pop\n      pop\n      pop\n      jump\t// out\n        /* \"#utility.yul\":425:564   */\n    tag_462:\n        /* \"#utility.yul\":471:476   */\n      0x00\n        /* \"#utility.yul\":509:515   */\n      dup2\n        /* \"#utility.yul\":496:516   */\n      calldataload\n        /* \"#utility.yul\":487:516   */\n      swap1\n      pop\n        /* \"#utility.yul\":525:558   */\n      tag_464\n        /* \"#utility.yul\":552:557   */\n      dup2\n        /* \"#utility.yul\":525:558   */\n      tag_465\n      jump\t// in\n    tag_464:\n        /* \"#utility.yul\":425:564   */\n      swap3\n      swap2\n      pop\n      pop\n      jump\t// out\n        /* \"#utility.yul\":570:707   */\n    tag_466:\n        /* \"#utility.yul\":624:629   */\n      0x00\n        /* \"#utility.yul\":655:661   */\n      dup2\n        /* \"#utility.yul\":649:662   */\n      mload\n        /* \"#utility.yul\":640:662   */\n      swap1\n      pop\n        /* \"#utility.yul\":671:701   */\n      tag_468\n        /* \"#utility.yul\":695:700   */\n      dup2\n        /* \"#utility.yul\":671:701   */\n      tag_469\n      jump\t// in\n    tag_468:\n        /* \"#utility.yul\":570:707   */\n      swap3\n      swap2\n      pop\n      pop\n      jump\t// out\n        /* \"#utility.yul\":727:1067   */\n    tag_470:\n        /* \"#utility.yul\":783:788   */\n      0x00\n        /* \"#utility.yul\":832:835   */\n      dup3\n        /* \"#utility.yul\":825:829   */\n      0x1f\n        /* \"#utility.yul\":817:823   */\n      dup4\n        /* \"#utility.yul\":813:830   */\n      add\n        /* \"#utility.yul\":809:836   */\n      slt\n        /* \"#utility.yul\":799:921   */\n      tag_472\n      jumpi\n        /* \"#utility.yul\":840:919   */\n      tag_473\n      tag_474\n      jump\t// in\n    tag_473:\n        /* \"#utility.yul\":799:921   */\n    tag_472:\n        /* \"#utility.yul\":957:963   */\n      dup2\n        /* \"#utility.yul\":944:964   */\n      calldataload\n        /* \"#utility.yul\":982:1061   */\n      tag_475\n        /* \"#utility.yul\":1057:1060   */\n      dup5\n        /* \"#utility.yul\":1049:1055   */\n      dup3\n        /* \"#utility.yul\":1042:1046   */\n      0x20\n        /* \"#utility.yul\":1034:1040   */\n      dup7\n        /* \"#utility.yul\":1030:1047   */\n      add\n        /* \"#utility.yul\":982:1061   */\n      tag_451\n      jump\t// in\n    tag_475:\n        /* \"#utility.yul\":973:1061   */\n      swap2\n      pop\n        /* \"#utility.yul\":789:1067   */\n      pop\n        /* \"#utility.yul\":727:1067   */\n      swap3\n      swap2\n      pop\n      pop\n      jump\t// out\n        /* \"#utility.yul\":1073:1212   */\n    tag_476:\n        /* \"#utility.yul\":1119:1124   */\n      0x00\n        /* \"#utility.yul\":1157:1163   */\n      dup2\n        /* \"#utility.yul\":1144:1164   */\n      calldataload\n        /* \"#utility.yul\":1135:1164   */\n      swap1\n      pop\n        /* \"#utility.yul\":1173:1206   */\n      tag_478\n        /* \"#utility.yul\":1200:1205   */\n      dup2\n        /* \"#utility.yul\":1173:1206   */\n      tag_479\n      jump\t// in\n    tag_478:\n        /* \"#utility.yul\":1073:1212   */\n      swap3\n      swap2\n      pop\n      pop\n      jump\t// out\n        /* \"#utility.yul\":1218:1361   */\n    tag_480:\n        /* \"#utility.yul\":1275:1280   */\n      0x00\n        /* \"#utility.yul\":1306:1312   */\n      dup2\n        /* \"#utility.yul\":1300:1313   */\n      mload\n        /* \"#utility.yul\":1291:1313   */\n      swap1\n      pop\n        /* \"#utility.yul\":1322:1355   */\n      tag_482\n        /* \"#utility.yul\":1349:1354   */\n      dup2\n        /* \"#utility.yul\":1322:1355   */\n      tag_479\n      jump\t// in\n    tag_482:\n        /* \"#utility.yul\":1218:1361   */\n      swap3\n      swap2\n      pop\n      pop\n      jump\t// out\n        /* \"#utility.yul\":1367:1696   */\n    tag_68:\n        /* \"#utility.yul\":1426:1432   */\n      0x00\n        /* \"#utility.yul\":1475:1477   */\n      0x20\n        /* \"#utility.yul\":1463:1472   */\n      dup3\n        /* \"#utility.yul\":1454:1461   */\n      dup5\n        /* \"#utility.yul\":1450:1473   */\n      sub\n        /* \"#utility.yul\":1446:1478   */\n      slt\n        /* \"#utility.yul\":1443:1562   */\n      iszero\n      tag_484\n      jumpi\n        /* \"#utility.yul\":1481:1560   */\n      tag_485\n      tag_486\n      jump\t// in\n    tag_485:\n        /* \"#utility.yul\":1443:1562   */\n    tag_484:\n        /* \"#utility.yul\":1601:1602   */\n      0x00\n        /* \"#utility.yul\":1626:1679   */\n      tag_487\n        /* \"#utility.yul\":1671:1678   */\n      dup5\n        /* \"#utility.yul\":1662:1668   */\n      dup3\n        /* \"#utility.yul\":1651:1660   */\n      dup6\n        /* \"#utility.yul\":1647:1669   */\n      add\n        /* \"#utility.yul\":1626:1679   */\n      tag_462\n      jump\t// in\n    tag_487:\n        /* \"#utility.yul\":1616:1679   */\n      swap2\n      pop\n        /* \"#utility.yul\":1572:1689   */\n      pop\n        /* \"#utility.yul\":1367:1696   */\n      swap3\n      swap2\n      pop\n      pop\n      jump\t// out\n        /* \"#utility.yul\":1702:2356   */\n    tag_168:\n        /* \"#utility.yul\":1780:1786   */\n      0x00\n        /* \"#utility.yul\":1788:1794   */\n      dup1\n        /* \"#utility.yul\":1837:1839   */\n      0x40\n        /* \"#utility.yul\":1825:1834   */\n      dup4\n        /* \"#utility.yul\":1816:1823   */\n      dup6\n        /* \"#utility.yul\":1812:1835   */\n      sub\n        /* \"#utility.yul\":1808:1840   */\n      slt\n        /* \"#utility.yul\":1805:1924   */\n      iszero\n      tag_489\n      jumpi\n        /* \"#utility.yul\":1843:1922   */\n      tag_490\n      tag_486\n      jump\t// in\n    tag_490:\n        /* \"#utility.yul\":1805:1924   */\n    tag_489:\n        /* \"#utility.yul\":1963:1964   */\n      0x00\n        /* \"#utility.yul\":1988:2041   */\n      tag_491\n        /* \"#utility.yul\":2033:2040   */\n      dup6\n        /* \"#utility.yul\":2024:2030   */\n      dup3\n        /* \"#utility.yul\":2013:2022   */\n      dup7\n        /* \"#utility.yul\":2009:2031   */\n      add\n        /* \"#utility.yul\":1988:2041   */\n      tag_462\n      jump\t// in\n    tag_491:\n        /* \"#utility.yul\":1978:2041   */\n      swap3\n      pop\n        /* \"#utility.yul\":1934:2051   */\n      pop\n        /* \"#utility.yul\":2118:2120   */\n      0x20\n        /* \"#utility.yul\":2107:2116   */\n      dup4\n        /* \"#utility.yul\":2103:2121   */\n      add\n        /* \"#utility.yul\":2090:2122   */\n      calldataload\n        /* \"#utility.yul\":2149:2167   */\n      0xffffffffffffffff\n        /* \"#utility.yul\":2141:2147   */\n      dup2\n        /* \"#utility.yul\":2138:2168   */\n      gt\n        /* \"#utility.yul\":2135:2252   */\n      iszero\n      tag_492\n      jumpi\n        /* \"#utility.yul\":2171:2250   */\n      tag_493\n      tag_494\n      jump\t// in\n    tag_493:\n        /* \"#utility.yul\":2135:2252   */\n    tag_492:\n        /* \"#utility.yul\":2276:2339   */\n      tag_495\n        /* \"#utility.yul\":2331:2338   */\n      dup6\n        /* \"#utility.yul\":2322:2328   */\n      dup3\n        /* \"#utility.yul\":2311:2320   */\n      dup7\n        /* \"#utility.yul\":2307:2329   */\n      add\n        /* \"#utility.yul\":2276:2339   */\n      tag_470\n      jump\t// in\n    tag_495:\n        /* \"#utility.yul\":2266:2339   */\n      swap2\n      pop\n        /* \"#utility.yul\":2061:2349   */\n      pop\n        /* \"#utility.yul\":1702:2356   */\n      swap3\n      pop\n      swap3\n      swap1\n      pop\n      jump\t// out\n        /* \"#utility.yul\":2362:2707   */\n    tag_393:\n        /* \"#utility.yul\":2429:2435   */\n      0x00\n        /* \"#utility.yul\":2478:2480   */\n      0x20\n        /* \"#utility.yul\":2466:2475   */\n      dup3\n        /* \"#utility.yul\":2457:2464   */\n      dup5\n        /* \"#utility.yul\":2453:2476   */\n      sub\n        /* \"#utility.yul\":2449:2481   */\n      slt\n        /* \"#utility.yul\":2446:2565   */\n      iszero\n      tag_497\n      jumpi\n        /* \"#utility.yul\":2484:2563   */\n      tag_498\n      tag_486\n      jump\t// in\n    tag_498:\n        /* \"#utility.yul\":2446:2565   */\n    tag_497:\n        /* \"#utility.yul\":2604:2605   */\n      0x00\n        /* \"#utility.yul\":2629:2690   */\n      tag_499\n        /* \"#utility.yul\":2682:2689   */\n      dup5\n        /* \"#utility.yul\":2673:2679   */\n      dup3\n        /* \"#utility.yul\":2662:2671   */\n      dup6\n        /* \"#utility.yul\":2658:2680   */\n      add\n        /* \"#utility.yul\":2629:2690   */\n      tag_466\n      jump\t// in\n    tag_499:\n        /* \"#utility.yul\":2619:2690   */\n      swap2\n      pop\n        /* \"#utility.yul\":2575:2700   */\n      pop\n        /* \"#utility.yul\":2362:2707   */\n      swap3\n      swap2\n      pop\n      pop\n      jump\t// out\n        /* \"#utility.yul\":2713:3222   */\n    tag_161:\n        /* \"#utility.yul\":2782:2788   */\n      0x00\n        /* \"#utility.yul\":2831:2833   */\n      0x20\n        /* \"#utility.yul\":2819:2828   */\n      dup3\n        /* \"#utility.yul\":2810:2817   */\n      dup5\n        /* \"#utility.yul\":2806:2829   */\n      sub\n        /* \"#utility.yul\":2802:2834   */\n      slt\n        /* \"#utility.yul\":2799:2918   */\n      iszero\n      tag_501\n      jumpi\n        /* \"#utility.yul\":2837:2916   */\n      tag_502\n      tag_486\n      jump\t// in\n    tag_502:\n        /* \"#utility.yul\":2799:2918   */\n    tag_501:\n        /* \"#utility.yul\":2985:2986   */\n      0x00\n        /* \"#utility.yul\":2974:2983   */\n      dup3\n        /* \"#utility.yul\":2970:2987   */\n      add\n        /* \"#utility.yul\":2957:2988   */\n      calldataload\n        /* \"#utility.yul\":3015:3033   */\n      0xffffffffffffffff\n        /* \"#utility.yul\":3007:3013   */\n      dup2\n        /* \"#utility.yul\":3004:3034   */\n      gt\n        /* \"#utility.yul\":3001:3118   */\n      iszero\n      tag_503\n      jumpi\n        /* \"#utility.yul\":3037:3116   */\n      tag_504\n      tag_494\n      jump\t// in\n    tag_504:\n        /* \"#utility.yul\":3001:3118   */\n    tag_503:\n        /* \"#utility.yul\":3142:3205   */\n      tag_505\n        /* \"#utility.yul\":3197:3204   */\n      dup5\n        /* \"#utility.yul\":3188:3194   */\n      dup3\n        /* \"#utility.yul\":3177:3186   */\n      dup6\n        /* \"#utility.yul\":3173:3195   */\n      add\n        /* \"#utility.yul\":3142:3205   */\n      tag_470\n      jump\t// in\n    tag_505:\n        /* \"#utility.yul\":3132:3205   */\n      swap2\n      pop\n        /* \"#utility.yul\":2928:3215   */\n      pop\n        /* \"#utility.yul\":2713:3222   */\n      swap3\n      swap2\n      pop\n      pop\n      jump\t// out\n        /* \"#utility.yul\":3228:4027   */\n    tag_197:\n        /* \"#utility.yul\":3315:3321   */\n      0x00\n        /* \"#utility.yul\":3323:3329   */\n      dup1\n        /* \"#utility.yul\":3331:3337   */\n      0x00\n        /* \"#utility.yul\":3380:3382   */\n      0x60\n        /* \"#utility.yul\":3368:3377   */\n      dup5\n        /* \"#utility.yul\":3359:3366   */\n      dup7\n        /* \"#utility.yul\":3355:3378   */\n      sub\n        /* \"#utility.yul\":3351:3383   */\n      slt\n        /* \"#utility.yul\":3348:3467   */\n      iszero\n      tag_507\n      jumpi\n        /* \"#utility.yul\":3386:3465   */\n      tag_508\n      tag_486\n      jump\t// in\n    tag_508:\n        /* \"#utility.yul\":3348:3467   */\n    tag_507:\n        /* \"#utility.yul\":3534:3535   */\n      0x00\n        /* \"#utility.yul\":3523:3532   */\n      dup5\n        /* \"#utility.yul\":3519:3536   */\n      add\n        /* \"#utility.yul\":3506:3537   */\n      calldataload\n        /* \"#utility.yul\":3564:3582   */\n      0xffffffffffffffff\n        /* \"#utility.yul\":3556:3562   */\n      dup2\n        /* \"#utility.yul\":3553:3583   */\n      gt\n        /* \"#utility.yul\":3550:3667   */\n      iszero\n      tag_509\n      jumpi\n        /* \"#utility.yul\":3586:3665   */\n      tag_510\n      tag_494\n      jump\t// in\n    tag_510:\n        /* \"#utility.yul\":3550:3667   */\n    tag_509:\n        /* \"#utility.yul\":3691:3754   */\n      tag_511\n        /* \"#utility.yul\":3746:3753   */\n      dup7\n        /* \"#utility.yul\":3737:3743   */\n      dup3\n        /* \"#utility.yul\":3726:3735   */\n      dup8\n        /* \"#utility.yul\":3722:3744   */\n      add\n        /* \"#utility.yul\":3691:3754   */\n      tag_470\n      jump\t// in\n    tag_511:\n        /* \"#utility.yul\":3681:3754   */\n      swap4\n      pop\n        /* \"#utility.yul\":3477:3764   */\n      pop\n        /* \"#utility.yul\":3803:3805   */\n      0x20\n        /* \"#utility.yul\":3829:3882   */\n      tag_512\n        /* \"#utility.yul\":3874:3881   */\n      dup7\n        /* \"#utility.yul\":3865:3871   */\n      dup3\n        /* \"#utility.yul\":3854:3863   */\n      dup8\n        /* \"#utility.yul\":3850:3872   */\n      add\n        /* \"#utility.yul\":3829:3882   */\n      tag_462\n      jump\t// in\n    tag_512:\n        /* \"#utility.yul\":3819:3882   */\n      swap3\n      pop\n        /* \"#utility.yul\":3774:3892   */\n      pop\n        /* \"#utility.yul\":3931:3933   */\n      0x40\n        /* \"#utility.yul\":3957:4010   */\n      tag_513\n        /* \"#utility.yul\":4002:4009   */\n      dup7\n        /* \"#utility.yul\":3993:3999   */\n      dup3\n        /* \"#utility.yul\":3982:3991   */\n      dup8\n        /* \"#utility.yul\":3978:4000   */\n      add\n        /* \"#utility.yul\":3957:4010   */\n      tag_476\n      jump\t// in\n    tag_513:\n        /* \"#utility.yul\":3947:4010   */\n      swap2\n      pop\n        /* \"#utility.yul\":3902:4020   */\n      pop\n        /* \"#utility.yul\":3228:4027   */\n      swap3\n      pop\n      swap3\n      pop\n      swap3\n      jump\t// out\n        /* \"#utility.yul\":4033:4362   */\n    tag_75:\n        /* \"#utility.yul\":4092:4098   */\n      0x00\n        /* \"#utility.yul\":4141:4143   */\n      0x20\n        /* \"#utility.yul\":4129:4138   */\n      dup3\n        /* \"#utility.yul\":4120:4127   */\n      dup5\n        /* \"#utility.yul\":4116:4139   */\n      sub\n        /* \"#utility.yul\":4112:4144   */\n      slt\n        /* \"#utility.yul\":4109:4228   */\n      iszero\n      tag_515\n      jumpi\n        /* \"#utility.yul\":4147:4226   */\n      tag_516\n      tag_486\n      jump\t// in\n    tag_516:\n        /* \"#utility.yul\":4109:4228   */\n    tag_515:\n        /* \"#utility.yul\":4267:4268   */\n      0x00\n        /* \"#utility.yul\":4292:4345   */\n      tag_517\n        /* \"#utility.yul\":4337:4344   */\n      dup5\n        /* \"#utility.yul\":4328:4334   */\n      dup3\n        /* \"#utility.yul\":4317:4326   */\n      dup6\n        /* \"#utility.yul\":4313:4335   */\n      add\n        /* \"#utility.yul\":4292:4345   */\n      tag_476\n      jump\t// in\n    tag_517:\n        /* \"#utility.yul\":4282:4345   */\n      swap2\n      pop\n        /* \"#utility.yul\":4238:4355   */\n      pop\n        /* \"#utility.yul\":4033:4362   */\n      swap3\n      swap2\n      pop\n      pop\n      jump\t// out\n        /* \"#utility.yul\":4368:4719   */\n    tag_221:\n        /* \"#utility.yul\":4438:4444   */\n      0x00\n        /* \"#utility.yul\":4487:4489   */\n      0x20\n        /* \"#utility.yul\":4475:4484   */\n      dup3\n        /* \"#utility.yul\":4466:4473   */\n      dup5\n        /* \"#utility.yul\":4462:4485   */\n      sub\n        /* \"#utility.yul\":4458:4490   */\n      slt\n        /* \"#utility.yul\":4455:4574   */\n      iszero\n      tag_519\n      jumpi\n        /* \"#utility.yul\":4493:4572   */\n      tag_520\n      tag_486\n      jump\t// in\n    tag_520:\n        /* \"#utility.yul\":4455:4574   */\n    tag_519:\n        /* \"#utility.yul\":4613:4614   */\n      0x00\n        /* \"#utility.yul\":4638:4702   */\n      tag_521\n        /* \"#utility.yul\":4694:4701   */\n      dup5\n        /* \"#utility.yul\":4685:4691   */\n      dup3\n        /* \"#utility.yul\":4674:4683   */\n      dup6\n        /* \"#utility.yul\":4670:4692   */\n      add\n        /* \"#utility.yul\":4638:4702   */\n      tag_480\n      jump\t// in\n    tag_521:\n        /* \"#utility.yul\":4628:4702   */\n      swap2\n      pop\n        /* \"#utility.yul\":4584:4712   */\n      pop\n        /* \"#utility.yul\":4368:4719   */\n      swap3\n      swap2\n      pop\n      pop\n      jump\t// out\n        /* \"#utility.yul\":4725:5379   */\n    tag_148:\n        /* \"#utility.yul\":4803:4809   */\n      0x00\n        /* \"#utility.yul\":4811:4817   */\n      dup1\n        /* \"#utility.yul\":4860:4862   */\n      0x40\n        /* \"#utility.yul\":4848:4857   */\n      dup4\n        /* \"#utility.yul\":4839:4846   */\n      dup6\n        /* \"#utility.yul\":4835:4858   */\n      sub\n        /* \"#utility.yul\":4831:4863   */\n      slt\n        /* \"#utility.yul\":4828:4947   */\n      iszero\n      tag_523\n      jumpi\n        /* \"#utility.yul\":4866:4945   */\n      tag_524\n      tag_486\n      jump\t// in\n    tag_524:\n        /* \"#utility.yul\":4828:4947   */\n    tag_523:\n        /* \"#utility.yul\":4986:4987   */\n      0x00\n        /* \"#utility.yul\":5011:5064   */\n      tag_525\n        /* \"#utility.yul\":5056:5063   */\n      dup6\n        /* \"#utility.yul\":5047:5053   */\n      dup3\n        /* \"#utility.yul\":5036:5045   */\n      dup7\n        /* \"#utility.yul\":5032:5054   */\n      add\n        /* \"#utility.yul\":5011:5064   */\n      tag_476\n      jump\t// in\n    tag_525:\n        /* \"#utility.yul\":5001:5064   */\n      swap3\n      pop\n        /* \"#utility.yul\":4957:5074   */\n      pop\n        /* \"#utility.yul\":5141:5143   */\n      0x20\n        /* \"#utility.yul\":5130:5139   */\n      dup4\n        /* \"#utility.yul\":5126:5144   */\n      add\n        /* \"#utility.yul\":5113:5145   */\n      calldataload\n        /* \"#utility.yul\":5172:5190   */\n      0xffffffffffffffff\n        /* \"#utility.yul\":5164:5170   */\n      dup2\n        /* \"#utility.yul\":5161:5191   */\n      gt\n        /* \"#utility.yul\":5158:5275   */\n      iszero\n      tag_526\n      jumpi\n        /* \"#utility.yul\":5194:5273   */\n      tag_527\n      tag_494\n      jump\t// in\n    tag_527:\n        /* \"#utility.yul\":5158:5275   */\n    tag_526:\n        /* \"#utility.yul\":5299:5362   */\n      tag_528\n        /* \"#utility.yul\":5354:5361   */\n      dup6\n        /* \"#utility.yul\":5345:5351   */\n      dup3\n        /* \"#utility.yul\":5334:5343   */\n      dup7\n        /* \"#utility.yul\":5330:5352   */\n      add\n        /* \"#utility.yul\":5299:5362   */\n      tag_470\n      jump\t// in\n    tag_528:\n        /* \"#utility.yul\":5289:5362   */\n      swap2\n      pop\n        /* \"#utility.yul\":5084:5372   */\n      pop\n        /* \"#utility.yul\":4725:5379   */\n      swap3\n      pop\n      swap3\n      swap1\n      pop\n      jump\t// out\n        /* \"#utility.yul\":5385:6184   */\n    tag_180:\n        /* \"#utility.yul\":5472:5478   */\n      0x00\n        /* \"#utility.yul\":5480:5486   */\n      dup1\n        /* \"#utility.yul\":5488:5494   */\n      0x00\n        /* \"#utility.yul\":5537:5539   */\n      0x60\n        /* \"#utility.yul\":5525:5534   */\n      dup5\n        /* \"#utility.yul\":5516:5523   */\n      dup7\n        /* \"#utility.yul\":5512:5535   */\n      sub\n        /* \"#utility.yul\":5508:5540   */\n      slt\n        /* \"#utility.yul\":5505:5624   */\n      iszero\n      tag_530\n      jumpi\n        /* \"#utility.yul\":5543:5622   */\n      tag_531\n      tag_486\n      jump\t// in\n    tag_531:\n        /* \"#utility.yul\":5505:5624   */\n    tag_530:\n        /* \"#utility.yul\":5663:5664   */\n      0x00\n        /* \"#utility.yul\":5688:5741   */\n      tag_532\n        /* \"#utility.yul\":5733:5740   */\n      dup7\n        /* \"#utility.yul\":5724:5730   */\n      dup3\n        /* \"#utility.yul\":5713:5722   */\n      dup8\n        /* \"#utility.yul\":5709:5731   */\n      add\n        /* \"#utility.yul\":5688:5741   */\n      tag_476\n      jump\t// in\n    tag_532:\n        /* \"#utility.yul\":5678:5741   */\n      swap4\n      pop\n        /* \"#utility.yul\":5634:5751   */\n      pop\n        /* \"#utility.yul\":5790:5792   */\n      0x20\n        /* \"#utility.yul\":5816:5869   */\n      tag_533\n        /* \"#utility.yul\":5861:5868   */\n      dup7\n        /* \"#utility.yul\":5852:5858   */\n      dup3\n        /* \"#utility.yul\":5841:5850   */\n      dup8\n        /* \"#utility.yul\":5837:5859   */\n      add\n        /* \"#utility.yul\":5816:5869   */\n      tag_476\n      jump\t// in\n    tag_533:\n        /* \"#utility.yul\":5806:5869   */\n      swap3\n      pop\n        /* \"#utility.yul\":5761:5879   */\n      pop\n        /* \"#utility.yul\":5946:5948   */\n      0x40\n        /* \"#utility.yul\":5935:5944   */\n      dup5\n        /* \"#utility.yul\":5931:5949   */\n      add\n        /* \"#utility.yul\":5918:5950   */\n      calldataload\n        /* \"#utility.yul\":5977:5995   */\n      0xffffffffffffffff\n        /* \"#utility.yul\":5969:5975   */\n      dup2\n        /* \"#utility.yul\":5966:5996   */\n      gt\n        /* \"#utility.yul\":5963:6080   */\n      iszero\n      tag_534\n      jumpi\n        /* \"#utility.yul\":5999:6078   */\n      tag_535\n      tag_494\n      jump\t// in\n    tag_535:\n        /* \"#utility.yul\":5963:6080   */\n    tag_534:\n        /* \"#utility.yul\":6104:6167   */\n      tag_536\n        /* \"#utility.yul\":6159:6166   */\n      dup7\n        /* \"#utility.yul\":6150:6156   */\n      dup3\n        /* \"#utility.yul\":6139:6148   */\n      dup8\n        /* \"#utility.yul\":6135:6157   */\n      add\n        /* \"#utility.yul\":6104:6167   */\n      tag_470\n      jump\t// in\n    tag_536:\n        /* \"#utility.yul\":6094:6167   */\n      swap2\n      pop\n        /* \"#utility.yul\":5889:6177   */\n      pop\n        /* \"#utility.yul\":5385:6184   */\n      swap3\n      pop\n      swap3\n      pop\n      swap3\n      jump\t// out\n        /* \"#utility.yul\":6190:6308   */\n    tag_537:\n        /* \"#utility.yul\":6277:6301   */\n      tag_539\n        /* \"#utility.yul\":6295:6300   */\n      dup2\n        /* \"#utility.yul\":6277:6301   */\n      tag_540\n      jump\t// in\n    tag_539:\n        /* \"#utility.yul\":6272:6275   */\n      dup3\n        /* \"#utility.yul\":6265:6302   */\n      mstore\n        /* \"#utility.yul\":6190:6308   */\n      pop\n      pop\n      jump\t// out\n        /* \"#utility.yul\":6314:6473   */\n    tag_541:\n        /* \"#utility.yul\":6415:6466   */\n      tag_543\n        /* \"#utility.yul\":6460:6465   */\n      dup2\n        /* \"#utility.yul\":6415:6466   */\n      tag_544\n      jump\t// in\n    tag_543:\n        /* \"#utility.yul\":6410:6413   */\n      dup3\n        /* \"#utility.yul\":6403:6467   */\n      mstore\n        /* \"#utility.yul\":6314:6473   */\n      pop\n      pop\n      jump\t// out\n        /* \"#utility.yul\":6479:6594   */\n    tag_545:\n        /* \"#utility.yul\":6564:6587   */\n      tag_547\n        /* \"#utility.yul\":6581:6586   */\n      dup2\n        /* \"#utility.yul\":6564:6587   */\n      tag_548\n      jump\t// in\n    tag_547:\n        /* \"#utility.yul\":6559:6562   */\n      dup3\n        /* \"#utility.yul\":6552:6588   */\n      mstore\n        /* \"#utility.yul\":6479:6594   */\n      pop\n      pop\n      jump\t// out\n        /* \"#utility.yul\":6600:6977   */\n    tag_549:\n        /* \"#utility.yul\":6706:6709   */\n      0x00\n        /* \"#utility.yul\":6734:6773   */\n      tag_551\n        /* \"#utility.yul\":6767:6772   */\n      dup3\n        /* \"#utility.yul\":6734:6773   */\n      tag_552\n      jump\t// in\n    tag_551:\n        /* \"#utility.yul\":6789:6878   */\n      tag_553\n        /* \"#utility.yul\":6871:6877   */\n      dup2\n        /* \"#utility.yul\":6866:6869   */\n      dup6\n        /* \"#utility.yul\":6789:6878   */\n      tag_554\n      jump\t// in\n    tag_553:\n        /* \"#utility.yul\":6782:6878   */\n      swap4\n      pop\n        /* \"#utility.yul\":6887:6939   */\n      tag_555\n        /* \"#utility.yul\":6932:6938   */\n      dup2\n        /* \"#utility.yul\":6927:6930   */\n      dup6\n        /* \"#utility.yul\":6920:6924   */\n      0x20\n        /* \"#utility.yul\":6913:6918   */\n      dup7\n        /* \"#utility.yul\":6909:6925   */\n      add\n        /* \"#utility.yul\":6887:6939   */\n      tag_556\n      jump\t// in\n    tag_555:\n        /* \"#utility.yul\":6964:6970   */\n      dup1\n        /* \"#utility.yul\":6959:6962   */\n      dup5\n        /* \"#utility.yul\":6955:6971   */\n      add\n        /* \"#utility.yul\":6948:6971   */\n      swap2\n      pop\n        /* \"#utility.yul\":6710:6977   */\n      pop\n        /* \"#utility.yul\":6600:6977   */\n      swap3\n      swap2\n      pop\n      pop\n      jump\t// out\n        /* \"#utility.yul\":6983:7349   */\n    tag_557:\n        /* \"#utility.yul\":7125:7128   */\n      0x00\n        /* \"#utility.yul\":7146:7213   */\n      tag_559\n        /* \"#utility.yul\":7210:7212   */\n      0x24\n        /* \"#utility.yul\":7205:7208   */\n      dup4\n        /* \"#utility.yul\":7146:7213   */\n      tag_560\n      jump\t// in\n    tag_559:\n        /* \"#utility.yul\":7139:7213   */\n      swap2\n      pop\n        /* \"#utility.yul\":7222:7315   */\n      tag_561\n        /* \"#utility.yul\":7311:7314   */\n      dup3\n        /* \"#utility.yul\":7222:7315   */\n      tag_562\n      jump\t// in\n    tag_561:\n        /* \"#utility.yul\":7340:7342   */\n      0x40\n        /* \"#utility.yul\":7335:7338   */\n      dup3\n        /* \"#utility.yul\":7331:7343   */\n      add\n        /* \"#utility.yul\":7324:7343   */\n      swap1\n      pop\n        /* \"#utility.yul\":6983:7349   */\n      swap2\n      swap1\n      pop\n      jump\t// out\n        /* \"#utility.yul\":7355:7721   */\n    tag_563:\n        /* \"#utility.yul\":7497:7500   */\n      0x00\n        /* \"#utility.yul\":7518:7585   */\n      tag_565\n        /* \"#utility.yul\":7582:7584   */\n      0x15\n        /* \"#utility.yul\":7577:7580   */\n      dup4\n        /* \"#utility.yul\":7518:7585   */\n      tag_560\n      jump\t// in\n    tag_565:\n        /* \"#utility.yul\":7511:7585   */\n      swap2\n      pop\n        /* \"#utility.yul\":7594:7687   */\n      tag_566\n        /* \"#utility.yul\":7683:7686   */\n      dup3\n        /* \"#utility.yul\":7594:7687   */\n      tag_567\n      jump\t// in\n    tag_566:\n        /* \"#utility.yul\":7712:7714   */\n      0x20\n        /* \"#utility.yul\":7707:7710   */\n      dup3\n        /* \"#utility.yul\":7703:7715   */\n      add\n        /* \"#utility.yul\":7696:7715   */\n      swap1\n      pop\n        /* \"#utility.yul\":7355:7721   */\n      swap2\n      swap1\n      pop\n      jump\t// out\n        /* \"#utility.yul\":7727:8093   */\n    tag_568:\n        /* \"#utility.yul\":7869:7872   */\n      0x00\n        /* \"#utility.yul\":7890:7957   */\n      tag_570\n        /* \"#utility.yul\":7954:7956   */\n      0x1a\n        /* \"#utility.yul\":7949:7952   */\n      dup4\n        /* \"#utility.yul\":7890:7957   */\n      tag_560\n      jump\t// in\n    tag_570:\n        /* \"#utility.yul\":7883:7957   */\n      swap2\n      pop\n        /* \"#utility.yul\":7966:8059   */\n      tag_571\n        /* \"#utility.yul\":8055:8058   */\n      dup3\n        /* \"#utility.yul\":7966:8059   */\n      tag_572\n      jump\t// in\n    tag_571:\n        /* \"#utility.yul\":8084:8086   */\n      0x20\n        /* \"#utility.yul\":8079:8082   */\n      dup3\n        /* \"#utility.yul\":8075:8087   */\n      add\n        /* \"#utility.yul\":8068:8087   */\n      swap1\n      pop\n        /* \"#utility.yul\":7727:8093   */\n      swap2\n      swap1\n      pop\n      jump\t// out\n        /* \"#utility.yul\":8099:8465   */\n    tag_573:\n        /* \"#utility.yul\":8241:8244   */\n      0x00\n        /* \"#utility.yul\":8262:8329   */\n      tag_575\n        /* \"#utility.yul\":8326:8328   */\n      0x15\n        /* \"#utility.yul\":8321:8324   */\n      dup4\n        /* \"#utility.yul\":8262:8329   */\n      tag_560\n      jump\t// in\n    tag_575:\n        /* \"#utility.yul\":8255:8329   */\n      swap2\n      pop\n        /* \"#utility.yul\":8338:8431   */\n      tag_576\n        /* \"#utility.yul\":8427:8430   */\n      dup3\n        /* \"#utility.yul\":8338:8431   */\n      tag_577\n      jump\t// in\n    tag_576:\n        /* \"#utility.yul\":8456:8458   */\n      0x20\n        /* \"#utility.yul\":8451:8454   */\n      dup3\n        /* \"#utility.yul\":8447:8459   */\n      add\n        /* \"#utility.yul\":8440:8459   */\n      swap1\n      pop\n        /* \"#utility.yul\":8099:8465   */\n      swap2\n      swap1\n      pop\n      jump\t// out\n        /* \"#utility.yul\":8471:8837   */\n    tag_578:\n        /* \"#utility.yul\":8613:8616   */\n      0x00\n        /* \"#utility.yul\":8634:8701   */\n      tag_580\n        /* \"#utility.yul\":8698:8700   */\n      0x0c\n        /* \"#utility.yul\":8693:8696   */\n      dup4\n        /* \"#utility.yul\":8634:8701   */\n      tag_560\n      jump\t// in\n    tag_580:\n        /* \"#utility.yul\":8627:8701   */\n      swap2\n      pop\n        /* \"#utility.yul\":8710:8803   */\n      tag_581\n        /* \"#utility.yul\":8799:8802   */\n      dup3\n        /* \"#utility.yul\":8710:8803   */\n      tag_582\n      jump\t// in\n    tag_581:\n        /* \"#utility.yul\":8828:8830   */\n      0x20\n        /* \"#utility.yul\":8823:8826   */\n      dup3\n        /* \"#utility.yul\":8819:8831   */\n      add\n        /* \"#utility.yul\":8812:8831   */\n      swap1\n      pop\n        /* \"#utility.yul\":8471:8837   */\n      swap2\n      swap1\n      pop\n      jump\t// out\n        /* \"#utility.yul\":8843:9209   */\n    tag_583:\n        /* \"#utility.yul\":8985:8988   */\n      0x00\n        /* \"#utility.yul\":9006:9073   */\n      tag_585\n        /* \"#utility.yul\":9070:9072   */\n      0x1f\n        /* \"#utility.yul\":9065:9068   */\n      dup4\n        /* \"#utility.yul\":9006:9073   */\n      tag_560\n      jump\t// in\n    tag_585:\n        /* \"#utility.yul\":8999:9073   */\n      swap2\n      pop\n        /* \"#utility.yul\":9082:9175   */\n      tag_586\n        /* \"#utility.yul\":9171:9174   */\n      dup3\n        /* \"#utility.yul\":9082:9175   */\n      tag_587\n      jump\t// in\n    tag_586:\n        /* \"#utility.yul\":9200:9202   */\n      0x20\n        /* \"#utility.yul\":9195:9198   */\n      dup3\n        /* \"#utility.yul\":9191:9203   */\n      add\n        /* \"#utility.yul\":9184:9203   */\n      swap1\n      pop\n        /* \"#utility.yul\":8843:9209   */\n      swap2\n      swap1\n      pop\n      jump\t// out\n        /* \"#utility.yul\":9215:9581   */\n    tag_588:\n        /* \"#utility.yul\":9357:9360   */\n      0x00\n        /* \"#utility.yul\":9378:9445   */\n      tag_590\n        /* \"#utility.yul\":9442:9444   */\n      0x21\n        /* \"#utility.yul\":9437:9440   */\n      dup4\n        /* \"#utility.yul\":9378:9445   */\n      tag_560\n      jump\t// in\n    tag_590:\n        /* \"#utility.yul\":9371:9445   */\n      swap2\n      pop\n        /* \"#utility.yul\":9454:9547   */\n      tag_591\n        /* \"#utility.yul\":9543:9546   */\n      dup3\n        /* \"#utility.yul\":9454:9547   */\n      tag_592\n      jump\t// in\n    tag_591:\n        /* \"#utility.yul\":9572:9574   */\n      0x40\n        /* \"#utility.yul\":9567:9570   */\n      dup3\n        /* \"#utility.yul\":9563:9575   */\n      add\n        /* \"#utility.yul\":9556:9575   */\n      swap1\n      pop\n        /* \"#utility.yul\":9215:9581   */\n      swap2\n      swap1\n      pop\n      jump\t// out\n        /* \"#utility.yul\":9587:9705   */\n    tag_593:\n        /* \"#utility.yul\":9674:9698   */\n      tag_595\n        /* \"#utility.yul\":9692:9697   */\n      dup2\n        /* \"#utility.yul\":9674:9698   */\n      tag_596\n      jump\t// in\n    tag_595:\n        /* \"#utility.yul\":9669:9672   */\n      dup3\n        /* \"#utility.yul\":9662:9699   */\n      mstore\n        /* \"#utility.yul\":9587:9705   */\n      pop\n      pop\n      jump\t// out\n        /* \"#utility.yul\":9711:9986   */\n    tag_321:\n        /* \"#utility.yul\":9843:9846   */\n      0x00\n        /* \"#utility.yul\":9865:9960   */\n      tag_598\n        /* \"#utility.yul\":9956:9959   */\n      dup3\n        /* \"#utility.yul\":9947:9953   */\n      dup5\n        /* \"#utility.yul\":9865:9960   */\n      tag_549\n      jump\t// in\n    tag_598:\n        /* \"#utility.yul\":9858:9960   */\n      swap2\n      pop\n        /* \"#utility.yul\":9977:9980   */\n      dup2\n        /* \"#utility.yul\":9970:9980   */\n      swap1\n      pop\n        /* \"#utility.yul\":9711:9986   */\n      swap3\n      swap2\n      pop\n      pop\n      jump\t// out\n        /* \"#utility.yul\":9992:10214   */\n    tag_56:\n        /* \"#utility.yul\":10085:10089   */\n      0x00\n        /* \"#utility.yul\":10123:10125   */\n      0x20\n        /* \"#utility.yul\":10112:10121   */\n      dup3\n        /* \"#utility.yul\":10108:10126   */\n      add\n        /* \"#utility.yul\":10100:10126   */\n      swap1\n      pop\n        /* \"#utility.yul\":10136:10207   */\n      tag_600\n        /* \"#utility.yul\":10204:10205   */\n      0x00\n        /* \"#utility.yul\":10193:10202   */\n      dup4\n        /* \"#utility.yul\":10189:10206   */\n      add\n        /* \"#utility.yul\":10180:10186   */\n      dup5\n        /* \"#utility.yul\":10136:10207   */\n      tag_537\n      jump\t// in\n    tag_600:\n        /* \"#utility.yul\":9992:10214   */\n      swap3\n      swap2\n      pop\n      pop\n      jump\t// out\n        /* \"#utility.yul\":10220:10662   */\n    tag_431:\n        /* \"#utility.yul\":10369:10373   */\n      0x00\n        /* \"#utility.yul\":10407:10409   */\n      0x60\n        /* \"#utility.yul\":10396:10405   */\n      dup3\n        /* \"#utility.yul\":10392:10410   */\n      add\n        /* \"#utility.yul\":10384:10410   */\n      swap1\n      pop\n        /* \"#utility.yul\":10420:10491   */\n      tag_602\n        /* \"#utility.yul\":10488:10489   */\n      0x00\n        /* \"#utility.yul\":10477:10486   */\n      dup4\n        /* \"#utility.yul\":10473:10490   */\n      add\n        /* \"#utility.yul\":10464:10470   */\n      dup7\n        /* \"#utility.yul\":10420:10491   */\n      tag_537\n      jump\t// in\n    tag_602:\n        /* \"#utility.yul\":10501:10573   */\n      tag_603\n        /* \"#utility.yul\":10569:10571   */\n      0x20\n        /* \"#utility.yul\":10558:10567   */\n      dup4\n        /* \"#utility.yul\":10554:10572   */\n      add\n        /* \"#utility.yul\":10545:10551   */\n      dup6\n        /* \"#utility.yul\":10501:10573   */\n      tag_537\n      jump\t// in\n    tag_603:\n        /* \"#utility.yul\":10583:10655   */\n      tag_604\n        /* \"#utility.yul\":10651:10653   */\n      0x40\n        /* \"#utility.yul\":10640:10649   */\n      dup4\n        /* \"#utility.yul\":10636:10654   */\n      add\n        /* \"#utility.yul\":10627:10633   */\n      dup5\n        /* \"#utility.yul\":10583:10655   */\n      tag_593\n      jump\t// in\n    tag_604:\n        /* \"#utility.yul\":10220:10662   */\n      swap5\n      swap4\n      pop\n      pop\n      pop\n      pop\n      jump\t// out\n        /* \"#utility.yul\":10668:11000   */\n    tag_164:\n        /* \"#utility.yul\":10789:10793   */\n      0x00\n        /* \"#utility.yul\":10827:10829   */\n      0x40\n        /* \"#utility.yul\":10816:10825   */\n      dup3\n        /* \"#utility.yul\":10812:10830   */\n      add\n        /* \"#utility.yul\":10804:10830   */\n      swap1\n      pop\n        /* \"#utility.yul\":10840:10911   */\n      tag_606\n        /* \"#utility.yul\":10908:10909   */\n      0x00\n        /* \"#utility.yul\":10897:10906   */\n      dup4\n        /* \"#utility.yul\":10893:10910   */\n      add\n        /* \"#utility.yul\":10884:10890   */\n      dup6\n        /* \"#utility.yul\":10840:10911   */\n      tag_537\n      jump\t// in\n    tag_606:\n        /* \"#utility.yul\":10921:10993   */\n      tag_607\n        /* \"#utility.yul\":10989:10991   */\n      0x20\n        /* \"#utility.yul\":10978:10987   */\n      dup4\n        /* \"#utility.yul\":10974:10992   */\n      add\n        /* \"#utility.yul\":10965:10971   */\n      dup5\n        /* \"#utility.yul\":10921:10993   */\n      tag_593\n      jump\t// in\n    tag_607:\n        /* \"#utility.yul\":10668:11000   */\n      swap4\n      swap3\n      pop\n      pop\n      pop\n      jump\t// out\n        /* \"#utility.yul\":11006:11256   */\n    tag_98:\n        /* \"#utility.yul\":11113:11117   */\n      0x00\n        /* \"#utility.yul\":11151:11153   */\n      0x20\n        /* \"#utility.yul\":11140:11149   */\n      dup3\n        /* \"#utility.yul\":11136:11154   */\n      add\n        /* \"#utility.yul\":11128:11154   */\n      swap1\n      pop\n        /* \"#utility.yul\":11164:11249   */\n      tag_609\n        /* \"#utility.yul\":11246:11247   */\n      0x00\n        /* \"#utility.yul\":11235:11244   */\n      dup4\n        /* \"#utility.yul\":11231:11248   */\n      add\n        /* \"#utility.yul\":11222:11228   */\n      dup5\n        /* \"#utility.yul\":11164:11249   */\n      tag_541\n      jump\t// in\n    tag_609:\n        /* \"#utility.yul\":11006:11256   */\n      swap3\n      swap2\n      pop\n      pop\n      jump\t// out\n        /* \"#utility.yul\":11262:11480   */\n    tag_136:\n        /* \"#utility.yul\":11353:11357   */\n      0x00\n        /* \"#utility.yul\":11391:11393   */\n      0x20\n        /* \"#utility.yul\":11380:11389   */\n      dup3\n        /* \"#utility.yul\":11376:11394   */\n      add\n        /* \"#utility.yul\":11368:11394   */\n      swap1\n      pop\n        /* \"#utility.yul\":11404:11473   */\n      tag_611\n        /* \"#utility.yul\":11470:11471   */\n      0x00\n        /* \"#utility.yul\":11459:11468   */\n      dup4\n        /* \"#utility.yul\":11455:11472   */\n      add\n        /* \"#utility.yul\":11446:11452   */\n      dup5\n        /* \"#utility.yul\":11404:11473   */\n      tag_545\n      jump\t// in\n    tag_611:\n        /* \"#utility.yul\":11262:11480   */\n      swap3\n      swap2\n      pop\n      pop\n      jump\t// out\n        /* \"#utility.yul\":11486:11905   */\n    tag_264:\n        /* \"#utility.yul\":11652:11656   */\n      0x00\n        /* \"#utility.yul\":11690:11692   */\n      0x20\n        /* \"#utility.yul\":11679:11688   */\n      dup3\n        /* \"#utility.yul\":11675:11693   */\n      add\n        /* \"#utility.yul\":11667:11693   */\n      swap1\n      pop\n        /* \"#utility.yul\":11739:11748   */\n      dup2\n        /* \"#utility.yul\":11733:11737   */\n      dup2\n        /* \"#utility.yul\":11729:11749   */\n      sub\n        /* \"#utility.yul\":11725:11726   */\n      0x00\n        /* \"#utility.yul\":11714:11723   */\n      dup4\n        /* \"#utility.yul\":11710:11727   */\n      add\n        /* \"#utility.yul\":11703:11750   */\n      mstore\n        /* \"#utility.yul\":11767:11898   */\n      tag_613\n        /* \"#utility.yul\":11893:11897   */\n      dup2\n        /* \"#utility.yul\":11767:11898   */\n      tag_557\n      jump\t// in\n    tag_613:\n        /* \"#utility.yul\":11759:11898   */\n      swap1\n      pop\n        /* \"#utility.yul\":11486:11905   */\n      swap2\n      swap1\n      pop\n      jump\t// out\n        /* \"#utility.yul\":11911:12330   */\n    tag_438:\n        /* \"#utility.yul\":12077:12081   */\n      0x00\n        /* \"#utility.yul\":12115:12117   */\n      0x20\n        /* \"#utility.yul\":12104:12113   */\n      dup3\n        /* \"#utility.yul\":12100:12118   */\n      add\n        /* \"#utility.yul\":12092:12118   */\n      swap1\n      pop\n        /* \"#utility.yul\":12164:12173   */\n      dup2\n        /* \"#utility.yul\":12158:12162   */\n      dup2\n        /* \"#utility.yul\":12154:12174   */\n      sub\n        /* \"#utility.yul\":12150:12151   */\n      0x00\n        /* \"#utility.yul\":12139:12148   */\n      dup4\n        /* \"#utility.yul\":12135:12152   */\n      add\n        /* \"#utility.yul\":12128:12175   */\n      mstore\n        /* \"#utility.yul\":12192:12323   */\n      tag_615\n        /* \"#utility.yul\":12318:12322   */\n      dup2\n        /* \"#utility.yul\":12192:12323   */\n      tag_563\n      jump\t// in\n    tag_615:\n        /* \"#utility.yul\":12184:12323   */\n      swap1\n      pop\n        /* \"#utility.yul\":11911:12330   */\n      swap2\n      swap1\n      pop\n      jump\t// out\n        /* \"#utility.yul\":12336:12755   */\n    tag_275:\n        /* \"#utility.yul\":12502:12506   */\n      0x00\n        /* \"#utility.yul\":12540:12542   */\n      0x20\n        /* \"#utility.yul\":12529:12538   */\n      dup3\n        /* \"#utility.yul\":12525:12543   */\n      add\n        /* \"#utility.yul\":12517:12543   */\n      swap1\n      pop\n        /* \"#utility.yul\":12589:12598   */\n      dup2\n        /* \"#utility.yul\":12583:12587   */\n      dup2\n        /* \"#utility.yul\":12579:12599   */\n      sub\n        /* \"#utility.yul\":12575:12576   */\n      0x00\n        /* \"#utility.yul\":12564:12573   */\n      dup4\n        /* \"#utility.yul\":12560:12577   */\n      add\n        /* \"#utility.yul\":12553:12600   */\n      mstore\n        /* \"#utility.yul\":12617:12748   */\n      tag_617\n        /* \"#utility.yul\":12743:12747   */\n      dup2\n        /* \"#utility.yul\":12617:12748   */\n      tag_568\n      jump\t// in\n    tag_617:\n        /* \"#utility.yul\":12609:12748   */\n      swap1\n      pop\n        /* \"#utility.yul\":12336:12755   */\n      swap2\n      swap1\n      pop\n      jump\t// out\n        /* \"#utility.yul\":12761:13180   */\n    tag_324:\n        /* \"#utility.yul\":12927:12931   */\n      0x00\n        /* \"#utility.yul\":12965:12967   */\n      0x20\n        /* \"#utility.yul\":12954:12963   */\n      dup3\n        /* \"#utility.yul\":12950:12968   */\n      add\n        /* \"#utility.yul\":12942:12968   */\n      swap1\n      pop\n        /* \"#utility.yul\":13014:13023   */\n      dup2\n        /* \"#utility.yul\":13008:13012   */\n      dup2\n        /* \"#utility.yul\":13004:13024   */\n      sub\n        /* \"#utility.yul\":13000:13001   */\n      0x00\n        /* \"#utility.yul\":12989:12998   */\n      dup4\n        /* \"#utility.yul\":12985:13002   */\n      add\n        /* \"#utility.yul\":12978:13025   */\n      mstore\n        /* \"#utility.yul\":13042:13173   */\n      tag_619\n        /* \"#utility.yul\":13168:13172   */\n      dup2\n        /* \"#utility.yul\":13042:13173   */\n      tag_573\n      jump\t// in\n    tag_619:\n        /* \"#utility.yul\":13034:13173   */\n      swap1\n      pop\n        /* \"#utility.yul\":12761:13180   */\n      swap2\n      swap1\n      pop\n      jump\t// out\n        /* \"#utility.yul\":13186:13605   */\n    tag_374:\n        /* \"#utility.yul\":13352:13356   */\n      0x00\n        /* \"#utility.yul\":13390:13392   */\n      0x20\n        /* \"#utility.yul\":13379:13388   */\n      dup3\n        /* \"#utility.yul\":13375:13393   */\n      add\n        /* \"#utility.yul\":13367:13393   */\n      swap1\n      pop\n        /* \"#utility.yul\":13439:13448   */\n      dup2\n        /* \"#utility.yul\":13433:13437   */\n      dup2\n        /* \"#utility.yul\":13429:13449   */\n      sub\n        /* \"#utility.yul\":13425:13426   */\n      0x00\n        /* \"#utility.yul\":13414:13423   */\n      dup4\n        /* \"#utility.yul\":13410:13427   */\n      add\n        /* \"#utility.yul\":13403:13450   */\n      mstore\n        /* \"#utility.yul\":13467:13598   */\n      tag_621\n        /* \"#utility.yul\":13593:13597   */\n      dup2\n        /* \"#utility.yul\":13467:13598   */\n      tag_578\n      jump\t// in\n    tag_621:\n        /* \"#utility.yul\":13459:13598   */\n      swap1\n      pop\n        /* \"#utility.yul\":13186:13605   */\n      swap2\n      swap1\n      pop\n      jump\t// out\n        /* \"#utility.yul\":13611:14030   */\n    tag_318:\n        /* \"#utility.yul\":13777:13781   */\n      0x00\n        /* \"#utility.yul\":13815:13817   */\n      0x20\n        /* \"#utility.yul\":13804:13813   */\n      dup3\n        /* \"#utility.yul\":13800:13818   */\n      add\n        /* \"#utility.yul\":13792:13818   */\n      swap1\n      pop\n        /* \"#utility.yul\":13864:13873   */\n      dup2\n        /* \"#utility.yul\":13858:13862   */\n      dup2\n        /* \"#utility.yul\":13854:13874   */\n      sub\n        /* \"#utility.yul\":13850:13851   */\n      0x00\n        /* \"#utility.yul\":13839:13848   */\n      dup4\n        /* \"#utility.yul\":13835:13852   */\n      add\n        /* \"#utility.yul\":13828:13875   */\n      mstore\n        /* \"#utility.yul\":13892:14023   */\n      tag_623\n        /* \"#utility.yul\":14018:14022   */\n      dup2\n        /* \"#utility.yul\":13892:14023   */\n      tag_583\n      jump\t// in\n    tag_623:\n        /* \"#utility.yul\":13884:14023   */\n      swap1\n      pop\n        /* \"#utility.yul\":13611:14030   */\n      swap2\n      swap1\n      pop\n      jump\t// out\n        /* \"#utility.yul\":14036:14455   */\n    tag_445:\n        /* \"#utility.yul\":14202:14206   */\n      0x00\n        /* \"#utility.yul\":14240:14242   */\n      0x20\n        /* \"#utility.yul\":14229:14238   */\n      dup3\n        /* \"#utility.yul\":14225:14243   */\n      add\n        /* \"#utility.yul\":14217:14243   */\n      swap1\n      pop\n        /* \"#utility.yul\":14289:14298   */\n      dup2\n        /* \"#utility.yul\":14283:14287   */\n      dup2\n        /* \"#utility.yul\":14279:14299   */\n      sub\n        /* \"#utility.yul\":14275:14276   */\n      0x00\n        /* \"#utility.yul\":14264:14273   */\n      dup4\n        /* \"#utility.yul\":14260:14277   */\n      add\n        /* \"#utility.yul\":14253:14300   */\n      mstore\n        /* \"#utility.yul\":14317:14448   */\n      tag_625\n        /* \"#utility.yul\":14443:14447   */\n      dup2\n        /* \"#utility.yul\":14317:14448   */\n      tag_588\n      jump\t// in\n    tag_625:\n        /* \"#utility.yul\":14309:14448   */\n      swap1\n      pop\n        /* \"#utility.yul\":14036:14455   */\n      swap2\n      swap1\n      pop\n      jump\t// out\n        /* \"#utility.yul\":14461:14683   */\n    tag_51:\n        /* \"#utility.yul\":14554:14558   */\n      0x00\n        /* \"#utility.yul\":14592:14594   */\n      0x20\n        /* \"#utility.yul\":14581:14590   */\n      dup3\n        /* \"#utility.yul\":14577:14595   */\n      add\n        /* \"#utility.yul\":14569:14595   */\n      swap1\n      pop\n        /* \"#utility.yul\":14605:14676   */\n      tag_627\n        /* \"#utility.yul\":14673:14674   */\n      0x00\n        /* \"#utility.yul\":14662:14671   */\n      dup4\n        /* \"#utility.yul\":14658:14675   */\n      add\n        /* \"#utility.yul\":14649:14655   */\n      dup5\n        /* \"#utility.yul\":14605:14676   */\n      tag_593\n      jump\t// in\n    tag_627:\n        /* \"#utility.yul\":14461:14683   */\n      swap3\n      swap2\n      pop\n      pop\n      jump\t// out\n        /* \"#utility.yul\":14689:15021   */\n    tag_71:\n        /* \"#utility.yul\":14810:14814   */\n      0x00\n        /* \"#utility.yul\":14848:14850   */\n      0x40\n        /* \"#utility.yul\":14837:14846   */\n      dup3\n        /* \"#utility.yul\":14833:14851   */\n      add\n        /* \"#utility.yul\":14825:14851   */\n      swap1\n      pop\n        /* \"#utility.yul\":14861:14932   */\n      tag_629\n        /* \"#utility.yul\":14929:14930   */\n      0x00\n        /* \"#utility.yul\":14918:14927   */\n      dup4\n        /* \"#utility.yul\":14914:14931   */\n      add\n        /* \"#utility.yul\":14905:14911   */\n      dup6\n        /* \"#utility.yul\":14861:14932   */\n      tag_593\n      jump\t// in\n    tag_629:\n        /* \"#utility.yul\":14942:15014   */\n      tag_630\n        /* \"#utility.yul\":15010:15012   */\n      0x20\n        /* \"#utility.yul\":14999:15008   */\n      dup4\n        /* \"#utility.yul\":14995:15013   */\n      add\n        /* \"#utility.yul\":14986:14992   */\n      dup5\n        /* \"#utility.yul\":14942:15014   */\n      tag_593\n      jump\t// in\n    tag_630:\n        /* \"#utility.yul\":14689:15021   */\n      swap4\n      swap3\n      pop\n      pop\n      pop\n      jump\t// out\n        /* \"#utility.yul\":15027:15156   */\n    tag_456:\n        /* \"#utility.yul\":15061:15067   */\n      0x00\n        /* \"#utility.yul\":15088:15108   */\n      tag_632\n      tag_633\n      jump\t// in\n    tag_632:\n        /* \"#utility.yul\":15078:15108   */\n      swap1\n      pop\n        /* \"#utility.yul\":15117:15150   */\n      tag_634\n        /* \"#utility.yul\":15145:15149   */\n      dup3\n        /* \"#utility.yul\":15137:15143   */\n      dup3\n        /* \"#utility.yul\":15117:15150   */\n      tag_635\n      jump\t// in\n    tag_634:\n        /* \"#utility.yul\":15027:15156   */\n      swap2\n      swap1\n      pop\n      jump\t// out\n        /* \"#utility.yul\":15162:15237   */\n    tag_633:\n        /* \"#utility.yul\":15195:15201   */\n      0x00\n        /* \"#utility.yul\":15228:15230   */\n      0x40\n        /* \"#utility.yul\":15222:15231   */\n      mload\n        /* \"#utility.yul\":15212:15231   */\n      swap1\n      pop\n        /* \"#utility.yul\":15162:15237   */\n      swap1\n      jump\t// out\n        /* \"#utility.yul\":15243:15551   */\n    tag_455:\n        /* \"#utility.yul\":15305:15309   */\n      0x00\n        /* \"#utility.yul\":15395:15413   */\n      0xffffffffffffffff\n        /* \"#utility.yul\":15387:15393   */\n      dup3\n        /* \"#utility.yul\":15384:15414   */\n      gt\n        /* \"#utility.yul\":15381:15437   */\n      iszero\n      tag_638\n      jumpi\n        /* \"#utility.yul\":15417:15435   */\n      tag_639\n      tag_640\n      jump\t// in\n    tag_639:\n        /* \"#utility.yul\":15381:15437   */\n    tag_638:\n        /* \"#utility.yul\":15455:15484   */\n      tag_641\n        /* \"#utility.yul\":15477:15483   */\n      dup3\n        /* \"#utility.yul\":15455:15484   */\n      tag_642\n      jump\t// in\n    tag_641:\n        /* \"#utility.yul\":15447:15484   */\n      swap1\n      pop\n        /* \"#utility.yul\":15539:15543   */\n      0x20\n        /* \"#utility.yul\":15533:15537   */\n      dup2\n        /* \"#utility.yul\":15529:15544   */\n      add\n        /* \"#utility.yul\":15521:15544   */\n      swap1\n      pop\n        /* \"#utility.yul\":15243:15551   */\n      swap2\n      swap1\n      pop\n      jump\t// out\n        /* \"#utility.yul\":15557:15656   */\n    tag_552:\n        /* \"#utility.yul\":15609:15615   */\n      0x00\n        /* \"#utility.yul\":15643:15648   */\n      dup2\n        /* \"#utility.yul\":15637:15649   */\n      mload\n        /* \"#utility.yul\":15627:15649   */\n      swap1\n      pop\n        /* \"#utility.yul\":15557:15656   */\n      swap2\n      swap1\n      pop\n      jump\t// out\n        /* \"#utility.yul\":15662:15831   */\n    tag_560:\n        /* \"#utility.yul\":15746:15757   */\n      0x00\n        /* \"#utility.yul\":15780:15786   */\n      dup3\n        /* \"#utility.yul\":15775:15778   */\n      dup3\n        /* \"#utility.yul\":15768:15787   */\n      mstore\n        /* \"#utility.yul\":15820:15824   */\n      0x20\n        /* \"#utility.yul\":15815:15818   */\n      dup3\n        /* \"#utility.yul\":15811:15825   */\n      add\n        /* \"#utility.yul\":15796:15825   */\n      swap1\n      pop\n        /* \"#utility.yul\":15662:15831   */\n      swap3\n      swap2\n      pop\n      pop\n      jump\t// out\n        /* \"#utility.yul\":15837:15985   */\n    tag_554:\n        /* \"#utility.yul\":15939:15950   */\n      0x00\n        /* \"#utility.yul\":15976:15979   */\n      dup2\n        /* \"#utility.yul\":15961:15979   */\n      swap1\n      pop\n        /* \"#utility.yul\":15837:15985   */\n      swap3\n      swap2\n      pop\n      pop\n      jump\t// out\n        /* \"#utility.yul\":15991:16296   */\n    tag_227:\n        /* \"#utility.yul\":16031:16034   */\n      0x00\n        /* \"#utility.yul\":16050:16070   */\n      tag_647\n        /* \"#utility.yul\":16068:16069   */\n      dup3\n        /* \"#utility.yul\":16050:16070   */\n      tag_596\n      jump\t// in\n    tag_647:\n        /* \"#utility.yul\":16045:16070   */\n      swap2\n      pop\n        /* \"#utility.yul\":16084:16104   */\n      tag_648\n        /* \"#utility.yul\":16102:16103   */\n      dup4\n        /* \"#utility.yul\":16084:16104   */\n      tag_596\n      jump\t// in\n    tag_648:\n        /* \"#utility.yul\":16079:16104   */\n      swap3\n      pop\n        /* \"#utility.yul\":16238:16239   */\n      dup3\n        /* \"#utility.yul\":16170:16236   */\n      0xffffffffffffffffffffffffffffffffffffffffffffffffffffffffffffffff\n        /* \"#utility.yul\":16166:16240   */\n      sub\n        /* \"#utility.yul\":16163:16164   */\n      dup3\n        /* \"#utility.yul\":16160:16241   */\n      gt\n        /* \"#utility.yul\":16157:16264   */\n      iszero\n      tag_649\n      jumpi\n        /* \"#utility.yul\":16244:16262   */\n      tag_650\n      tag_651\n      jump\t// in\n    tag_650:\n        /* \"#utility.yul\":16157:16264   */\n    tag_649:\n        /* \"#utility.yul\":16288:16289   */\n      dup3\n        /* \"#utility.yul\":16285:16286   */\n      dup3\n        /* \"#utility.yul\":16281:16290   */\n      add\n        /* \"#utility.yul\":16274:16290   */\n      swap1\n      pop\n        /* \"#utility.yul\":15991:16296   */\n      swap3\n      swap2\n      pop\n      pop\n      jump\t// out\n        /* \"#utility.yul\":16302:16487   */\n    tag_231:\n        /* \"#utility.yul\":16342:16343   */\n      0x00\n        /* \"#utility.yul\":16359:16379   */\n      tag_653\n        /* \"#utility.yul\":16377:16378   */\n      dup3\n        /* \"#utility.yul\":16359:16379   */\n      tag_596\n      jump\t// in\n    tag_653:\n        /* \"#utility.yul\":16354:16379   */\n      swap2\n      pop\n        /* \"#utility.yul\":16393:16413   */\n      tag_654\n        /* \"#utility.yul\":16411:16412   */\n      dup4\n        /* \"#utility.yul\":16393:16413   */\n      tag_596\n      jump\t// in\n    tag_654:\n        /* \"#utility.yul\":16388:16413   */\n      swap3\n      pop\n        /* \"#utility.yul\":16432:16433   */\n      dup3\n        /* \"#utility.yul\":16422:16457   */\n      tag_655\n      jumpi\n        /* \"#utility.yul\":16437:16455   */\n      tag_656\n      tag_657\n      jump\t// in\n    tag_656:\n        /* \"#utility.yul\":16422:16457   */\n    tag_655:\n        /* \"#utility.yul\":16479:16480   */\n      dup3\n        /* \"#utility.yul\":16476:16477   */\n      dup3\n        /* \"#utility.yul\":16472:16481   */\n      div\n        /* \"#utility.yul\":16467:16481   */\n      swap1\n      pop\n        /* \"#utility.yul\":16302:16487   */\n      swap3\n      swap2\n      pop\n      pop\n      jump\t// out\n        /* \"#utility.yul\":16493:16841   */\n    tag_339:\n        /* \"#utility.yul\":16533:16540   */\n      0x00\n        /* \"#utility.yul\":16556:16576   */\n      tag_659\n        /* \"#utility.yul\":16574:16575   */\n      dup3\n        /* \"#utility.yul\":16556:16576   */\n      tag_596\n      jump\t// in\n    tag_659:\n        /* \"#utility.yul\":16551:16576   */\n      swap2\n      pop\n        /* \"#utility.yul\":16590:16610   */\n      tag_660\n        /* \"#utility.yul\":16608:16609   */\n      dup4\n        /* \"#utility.yul\":16590:16610   */\n      tag_596\n      jump\t// in\n    tag_660:\n        /* \"#utility.yul\":16585:16610   */\n      swap3\n      pop\n        /* \"#utility.yul\":16778:16779   */\n      dup2\n        /* \"#utility.yul\":16710:16776   */\n      0xffffffffffffffffffffffffffffffffffffffffffffffffffffffffffffffff\n        /* \"#utility.yul\":16706:16780   */\n      div\n        /* \"#utility.yul\":16703:16704   */\n      dup4\n        /* \"#utility.yul\":16700:16781   */\n      gt\n        /* \"#utility.yul\":16695:16696   */\n      dup3\n        /* \"#utility.yul\":16688:16697   */\n      iszero\n        /* \"#utility.yul\":16681:16698   */\n      iszero\n        /* \"#utility.yul\":16677:16782   */\n      and\n        /* \"#utility.yul\":16674:16805   */\n      iszero\n      tag_661\n      jumpi\n        /* \"#utility.yul\":16785:16803   */\n      tag_662\n      tag_651\n      jump\t// in\n    tag_662:\n        /* \"#utility.yul\":16674:16805   */\n    tag_661:\n        /* \"#utility.yul\":16833:16834   */\n      dup3\n        /* \"#utility.yul\":16830:16831   */\n      dup3\n        /* \"#utility.yul\":16826:16835   */\n      mul\n        /* \"#utility.yul\":16815:16835   */\n      swap1\n      pop\n        /* \"#utility.yul\":16493:16841   */\n      swap3\n      swap2\n      pop\n      pop\n      jump\t// out\n        /* \"#utility.yul\":16847:17038   */\n    tag_233:\n        /* \"#utility.yul\":16887:16891   */\n      0x00\n        /* \"#utility.yul\":16907:16927   */\n      tag_664\n        /* \"#utility.yul\":16925:16926   */\n      dup3\n        /* \"#utility.yul\":16907:16927   */\n      tag_596\n      jump\t// in\n    tag_664:\n        /* \"#utility.yul\":16902:16927   */\n      swap2\n      pop\n        /* \"#utility.yul\":16941:16961   */\n      tag_665\n        /* \"#utility.yul\":16959:16960   */\n      dup4\n        /* \"#utility.yul\":16941:16961   */\n      tag_596\n      jump\t// in\n    tag_665:\n        /* \"#utility.yul\":16936:16961   */\n      swap3\n      pop\n        /* \"#utility.yul\":16980:16981   */\n      dup3\n        /* \"#utility.yul\":16977:16978   */\n      dup3\n        /* \"#utility.yul\":16974:16982   */\n      lt\n        /* \"#utility.yul\":16971:17005   */\n      iszero\n      tag_666\n      jumpi\n        /* \"#utility.yul\":16985:17003   */\n      tag_667\n      tag_651\n      jump\t// in\n    tag_667:\n        /* \"#utility.yul\":16971:17005   */\n    tag_666:\n        /* \"#utility.yul\":17030:17031   */\n      dup3\n        /* \"#utility.yul\":17027:17028   */\n      dup3\n        /* \"#utility.yul\":17023:17032   */\n      sub\n        /* \"#utility.yul\":17015:17032   */\n      swap1\n      pop\n        /* \"#utility.yul\":16847:17038   */\n      swap3\n      swap2\n      pop\n      pop\n      jump\t// out\n        /* \"#utility.yul\":17044:17140   */\n    tag_540:\n        /* \"#utility.yul\":17081:17088   */\n      0x00\n        /* \"#utility.yul\":17110:17134   */\n      tag_669\n        /* \"#utility.yul\":17128:17133   */\n      dup3\n        /* \"#utility.yul\":17110:17134   */\n      tag_670\n      jump\t// in\n    tag_669:\n        /* \"#utility.yul\":17099:17134   */\n      swap1\n      pop\n        /* \"#utility.yul\":17044:17140   */\n      swap2\n      swap1\n      pop\n      jump\t// out\n        /* \"#utility.yul\":17146:17236   */\n    tag_671:\n        /* \"#utility.yul\":17180:17187   */\n      0x00\n        /* \"#utility.yul\":17223:17228   */\n      dup2\n        /* \"#utility.yul\":17216:17229   */\n      iszero\n        /* \"#utility.yul\":17209:17230   */\n      iszero\n        /* \"#utility.yul\":17198:17230   */\n      swap1\n      pop\n        /* \"#utility.yul\":17146:17236   */\n      swap2\n      swap1\n      pop\n      jump\t// out\n        /* \"#utility.yul\":17242:17334   */\n    tag_548:\n        /* \"#utility.yul\":17278:17285   */\n      0x00\n        /* \"#utility.yul\":17322:17327   */\n      dup2\n        /* \"#utility.yul\":17318:17320   */\n      0x0f\n        /* \"#utility.yul\":17307:17328   */\n      signextend\n        /* \"#utility.yul\":17296:17328   */\n      swap1\n      pop\n        /* \"#utility.yul\":17242:17334   */\n      swap2\n      swap1\n      pop\n      jump\t// out\n        /* \"#utility.yul\":17340:17466   */\n    tag_670:\n        /* \"#utility.yul\":17377:17384   */\n      0x00\n        /* \"#utility.yul\":17417:17459   */\n      0xffffffffffffffffffffffffffffffffffffffff\n        /* \"#utility.yul\":17410:17415   */\n      dup3\n        /* \"#utility.yul\":17406:17460   */\n      and\n        /* \"#utility.yul\":17395:17460   */\n      swap1\n      pop\n        /* \"#utility.yul\":17340:17466   */\n      swap2\n      swap1\n      pop\n      jump\t// out\n        /* \"#utility.yul\":17472:17549   */\n    tag_596:\n        /* \"#utility.yul\":17509:17516   */\n      0x00\n        /* \"#utility.yul\":17538:17543   */\n      dup2\n        /* \"#utility.yul\":17527:17543   */\n      swap1\n      pop\n        /* \"#utility.yul\":17472:17549   */\n      swap2\n      swap1\n      pop\n      jump\t// out\n        /* \"#utility.yul\":17555:17695   */\n    tag_544:\n        /* \"#utility.yul\":17619:17628   */\n      0x00\n        /* \"#utility.yul\":17652:17689   */\n      tag_677\n        /* \"#utility.yul\":17683:17688   */\n      dup3\n        /* \"#utility.yul\":17652:17689   */\n      tag_678\n      jump\t// in\n    tag_677:\n        /* \"#utility.yul\":17639:17689   */\n      swap1\n      pop\n        /* \"#utility.yul\":17555:17695   */\n      swap2\n      swap1\n      pop\n      jump\t// out\n        /* \"#utility.yul\":17701:17827   */\n    tag_678:\n        /* \"#utility.yul\":17751:17760   */\n      0x00\n        /* \"#utility.yul\":17784:17821   */\n      tag_680\n        /* \"#utility.yul\":17815:17820   */\n      dup3\n        /* \"#utility.yul\":17784:17821   */\n      tag_681\n      jump\t// in\n    tag_680:\n        /* \"#utility.yul\":17771:17821   */\n      swap1\n      pop\n        /* \"#utility.yul\":17701:17827   */\n      swap2\n      swap1\n      pop\n      jump\t// out\n        /* \"#utility.yul\":17833:17946   */\n    tag_681:\n        /* \"#utility.yul\":17883:17892   */\n      0x00\n        /* \"#utility.yul\":17916:17940   */\n      tag_683\n        /* \"#utility.yul\":17934:17939   */\n      dup3\n        /* \"#utility.yul\":17916:17940   */\n      tag_670\n      jump\t// in\n    tag_683:\n        /* \"#utility.yul\":17903:17940   */\n      swap1\n      pop\n        /* \"#utility.yul\":17833:17946   */\n      swap2\n      swap1\n      pop\n      jump\t// out\n        /* \"#utility.yul\":17952:18106   */\n    tag_461:\n        /* \"#utility.yul\":18036:18042   */\n      dup3\n        /* \"#utility.yul\":18031:18034   */\n      dup2\n        /* \"#utility.yul\":18026:18029   */\n      dup4\n        /* \"#utility.yul\":18013:18043   */\n      calldatacopy\n        /* \"#utility.yul\":18098:18099   */\n      0x00\n        /* \"#utility.yul\":18089:18095   */\n      dup4\n        /* \"#utility.yul\":18084:18087   */\n      dup4\n        /* \"#utility.yul\":18080:18096   */\n      add\n        /* \"#utility.yul\":18073:18100   */\n      mstore\n        /* \"#utility.yul\":17952:18106   */\n      pop\n      pop\n      pop\n      jump\t// out\n        /* \"#utility.yul\":18112:18419   */\n    tag_556:\n        /* \"#utility.yul\":18180:18181   */\n      0x00\n        /* \"#utility.yul\":18190:18303   */\n    tag_686:\n        /* \"#utility.yul\":18204:18210   */\n      dup4\n        /* \"#utility.yul\":18201:18202   */\n      dup2\n        /* \"#utility.yul\":18198:18211   */\n      lt\n        /* \"#utility.yul\":18190:18303   */\n      iszero\n      tag_688\n      jumpi\n        /* \"#utility.yul\":18289:18290   */\n      dup1\n        /* \"#utility.yul\":18284:18287   */\n      dup3\n        /* \"#utility.yul\":18280:18291   */\n      add\n        /* \"#utility.yul\":18274:18292   */\n      mload\n        /* \"#utility.yul\":18270:18271   */\n      dup2\n        /* \"#utility.yul\":18265:18268   */\n      dup5\n        /* \"#utility.yul\":18261:18272   */\n      add\n        /* \"#utility.yul\":18254:18293   */\n      mstore\n        /* \"#utility.yul\":18226:18228   */\n      0x20\n        /* \"#utility.yul\":18223:18224   */\n      dup2\n        /* \"#utility.yul\":18219:18229   */\n      add\n        /* \"#utility.yul\":18214:18229   */\n      swap1\n      pop\n        /* \"#utility.yul\":18190:18303   */\n      jump(tag_686)\n    tag_688:\n        /* \"#utility.yul\":18321:18327   */\n      dup4\n        /* \"#utility.yul\":18318:18319   */\n      dup2\n        /* \"#utility.yul\":18315:18328   */\n      gt\n        /* \"#utility.yul\":18312:18413   */\n      iszero\n      tag_689\n      jumpi\n        /* \"#utility.yul\":18401:18402   */\n      0x00\n        /* \"#utility.yul\":18392:18398   */\n      dup5\n        /* \"#utility.yul\":18387:18390   */\n      dup5\n        /* \"#utility.yul\":18383:18399   */\n      add\n        /* \"#utility.yul\":18376:18403   */\n      mstore\n        /* \"#utility.yul\":18312:18413   */\n    tag_689:\n        /* \"#utility.yul\":18161:18419   */\n      pop\n        /* \"#utility.yul\":18112:18419   */\n      pop\n      pop\n      pop\n      jump\t// out\n        /* \"#utility.yul\":18425:18706   */\n    tag_635:\n        /* \"#utility.yul\":18508:18535   */\n      tag_691\n        /* \"#utility.yul\":18530:18534   */\n      dup3\n        /* \"#utility.yul\":18508:18535   */\n      tag_642\n      jump\t// in\n    tag_691:\n        /* \"#utility.yul\":18500:18506   */\n      dup2\n        /* \"#utility.yul\":18496:18536   */\n      add\n        /* \"#utility.yul\":18638:18644   */\n      dup2\n        /* \"#utility.yul\":18626:18636   */\n      dup2\n        /* \"#utility.yul\":18623:18645   */\n      lt\n        /* \"#utility.yul\":18602:18620   */\n      0xffffffffffffffff\n        /* \"#utility.yul\":18590:18600   */\n      dup3\n        /* \"#utility.yul\":18587:18621   */\n      gt\n        /* \"#utility.yul\":18584:18646   */\n      or\n        /* \"#utility.yul\":18581:18669   */\n      iszero\n      tag_692\n      jumpi\n        /* \"#utility.yul\":18649:18667   */\n      tag_693\n      tag_640\n      jump\t// in\n    tag_693:\n        /* \"#utility.yul\":18581:18669   */\n    tag_692:\n        /* \"#utility.yul\":18689:18699   */\n      dup1\n        /* \"#utility.yul\":18685:18687   */\n      0x40\n        /* \"#utility.yul\":18678:18700   */\n      mstore\n        /* \"#utility.yul\":18468:18706   */\n      pop\n        /* \"#utility.yul\":18425:18706   */\n      pop\n      pop\n      jump\t// out\n        /* \"#utility.yul\":18712:18945   */\n    tag_243:\n        /* \"#utility.yul\":18751:18754   */\n      0x00\n        /* \"#utility.yul\":18774:18798   */\n      tag_695\n        /* \"#utility.yul\":18792:18797   */\n      dup3\n        /* \"#utility.yul\":18774:18798   */\n      tag_596\n      jump\t// in\n    tag_695:\n        /* \"#utility.yul\":18765:18798   */\n      swap2\n      pop\n        /* \"#utility.yul\":18820:18886   */\n      0xffffffffffffffffffffffffffffffffffffffffffffffffffffffffffffffff\n        /* \"#utility.yul\":18813:18818   */\n      dup3\n        /* \"#utility.yul\":18810:18887   */\n      eq\n        /* \"#utility.yul\":18807:18910   */\n      iszero\n      tag_696\n      jumpi\n        /* \"#utility.yul\":18890:18908   */\n      tag_697\n      tag_651\n      jump\t// in\n    tag_697:\n        /* \"#utility.yul\":18807:18910   */\n    tag_696:\n        /* \"#utility.yul\":18937:18938   */\n      0x01\n        /* \"#utility.yul\":18930:18935   */\n      dup3\n        /* \"#utility.yul\":18926:18939   */\n      add\n        /* \"#utility.yul\":18919:18939   */\n      swap1\n      pop\n        /* \"#utility.yul\":18712:18945   */\n      swap2\n      swap1\n      pop\n      jump\t// out\n        /* \"#utility.yul\":18951:19131   */\n    tag_651:\n        /* \"#utility.yul\":18999:19076   */\n      0x4e487b7100000000000000000000000000000000000000000000000000000000\n        /* \"#utility.yul\":18996:18997   */\n      0x00\n        /* \"#utility.yul\":18989:19077   */\n      mstore\n        /* \"#utility.yul\":19096:19100   */\n      0x11\n        /* \"#utility.yul\":19093:19094   */\n      0x04\n        /* \"#utility.yul\":19086:19101   */\n      mstore\n        /* \"#utility.yul\":19120:19124   */\n      0x24\n        /* \"#utility.yul\":19117:19118   */\n      0x00\n        /* \"#utility.yul\":19110:19125   */\n      revert\n        /* \"#utility.yul\":19137:19317   */\n    tag_657:\n        /* \"#utility.yul\":19185:19262   */\n      0x4e487b7100000000000000000000000000000000000000000000000000000000\n        /* \"#utility.yul\":19182:19183   */\n      0x00\n        /* \"#utility.yul\":19175:19263   */\n      mstore\n        /* \"#utility.yul\":19282:19286   */\n      0x12\n        /* \"#utility.yul\":19279:19280   */\n      0x04\n        /* \"#utility.yul\":19272:19287   */\n      mstore\n        /* \"#utility.yul\":19306:19310   */\n      0x24\n        /* \"#utility.yul\":19303:19304   */\n      0x00\n        /* \"#utility.yul\":19296:19311   */\n      revert\n        /* \"#utility.yul\":19323:19503   */\n    tag_640:\n        /* \"#utility.yul\":19371:19448   */\n      0x4e487b7100000000000000000000000000000000000000000000000000000000\n        /* \"#utility.yul\":19368:19369   */\n      0x00\n        /* \"#utility.yul\":19361:19449   */\n      mstore\n        /* \"#utility.yul\":19468:19472   */\n      0x41\n        /* \"#utility.yul\":19465:19466   */\n      0x04\n        /* \"#utility.yul\":19458:19473   */\n      mstore\n        /* \"#utility.yul\":19492:19496   */\n      0x24\n        /* \"#utility.yul\":19489:19490   */\n      0x00\n        /* \"#utility.yul\":19482:19497   */\n      revert\n        /* \"#utility.yul\":19509:19626   */\n    tag_474:\n        /* \"#utility.yul\":19618:19619   */\n      0x00\n        /* \"#utility.yul\":19615:19616   */\n      dup1\n        /* \"#utility.yul\":19608:19620   */\n      revert\n        /* \"#utility.yul\":19632:19749   */\n    tag_459:\n        /* \"#utility.yul\":19741:19742   */\n      0x00\n        /* \"#utility.yul\":19738:19739   */\n      dup1\n        /* \"#utility.yul\":19731:19743   */\n      revert\n        /* \"#utility.yul\":19755:19872   */\n    tag_494:\n        /* \"#utility.yul\":19864:19865   */\n      0x00\n        /* \"#utility.yul\":19861:19862   */\n      dup1\n        /* \"#utility.yul\":19854:19866   */\n      revert\n        /* \"#utility.yul\":19878:19995   */\n    tag_486:\n        /* \"#utility.yul\":19987:19988   */\n      0x00\n        /* \"#utility.yul\":19984:19985   */\n      dup1\n        /* \"#utility.yul\":19977:19989   */\n      revert\n        /* \"#utility.yul\":20001:20103   */\n    tag_642:\n        /* \"#utility.yul\":20042:20048   */\n      0x00\n        /* \"#utility.yul\":20093:20095   */\n      0x1f\n        /* \"#utility.yul\":20089:20096   */\n      not\n        /* \"#utility.yul\":20084:20086   */\n      0x1f\n        /* \"#utility.yul\":20077:20082   */\n      dup4\n        /* \"#utility.yul\":20073:20087   */\n      add\n        /* \"#utility.yul\":20069:20097   */\n      and\n        /* \"#utility.yul\":20059:20097   */\n      swap1\n      pop\n        /* \"#utility.yul\":20001:20103   */\n      swap2\n      swap1\n      pop\n      jump\t// out\n        /* \"#utility.yul\":20109:20332   */\n    tag_562:\n        /* \"#utility.yul\":20249:20283   */\n      0x596f7520646f6e7420686176652074686174206d75636820746f207769746864\n        /* \"#utility.yul\":20245:20246   */\n      0x00\n        /* \"#utility.yul\":20237:20243   */\n      dup3\n        /* \"#utility.yul\":20233:20247   */\n      add\n        /* \"#utility.yul\":20226:20284   */\n      mstore\n        /* \"#utility.yul\":20318:20324   */\n      0x7261772100000000000000000000000000000000000000000000000000000000\n        /* \"#utility.yul\":20313:20315   */\n      0x20\n        /* \"#utility.yul\":20305:20311   */\n      dup3\n        /* \"#utility.yul\":20301:20316   */\n      add\n        /* \"#utility.yul\":20294:20325   */\n      mstore\n        /* \"#utility.yul\":20109:20332   */\n      pop\n      jump\t// out\n        /* \"#utility.yul\":20338:20509   */\n    tag_567:\n        /* \"#utility.yul\":20478:20501   */\n      0x546f6b656e207472616e73666572206661696c65640000000000000000000000\n        /* \"#utility.yul\":20474:20475   */\n      0x00\n        /* \"#utility.yul\":20466:20472   */\n      dup3\n        /* \"#utility.yul\":20462:20476   */\n      add\n        /* \"#utility.yul\":20455:20502   */\n      mstore\n        /* \"#utility.yul\":20338:20509   */\n      pop\n      jump\t// out\n        /* \"#utility.yul\":20515:20691   */\n    tag_572:\n        /* \"#utility.yul\":20655:20683   */\n      0x596f7520646f6e742068617665207468617420616d6f756e7421000000000000\n        /* \"#utility.yul\":20651:20652   */\n      0x00\n        /* \"#utility.yul\":20643:20649   */\n      dup3\n        /* \"#utility.yul\":20639:20653   */\n      add\n        /* \"#utility.yul\":20632:20684   */\n      mstore\n        /* \"#utility.yul\":20515:20691   */\n      pop\n      jump\t// out\n        /* \"#utility.yul\":20697:20868   */\n    tag_577:\n        /* \"#utility.yul\":20837:20860   */\n      0x506572207472616e73616374696f6e206c696d69740000000000000000000000\n        /* \"#utility.yul\":20833:20834   */\n      0x00\n        /* \"#utility.yul\":20825:20831   */\n      dup3\n        /* \"#utility.yul\":20821:20835   */\n      add\n        /* \"#utility.yul\":20814:20861   */\n      mstore\n        /* \"#utility.yul\":20697:20868   */\n      pop\n      jump\t// out\n        /* \"#utility.yul\":20874:21036   */\n    tag_582:\n        /* \"#utility.yul\":21014:21028   */\n      0x4e6f7420756e6c6f636b65640000000000000000000000000000000000000000\n        /* \"#utility.yul\":21010:21011   */\n      0x00\n        /* \"#utility.yul\":21002:21008   */\n      dup3\n        /* \"#utility.yul\":20998:21012   */\n      add\n        /* \"#utility.yul\":20991:21029   */\n      mstore\n        /* \"#utility.yul\":20874:21036   */\n      pop\n      jump\t// out\n        /* \"#utility.yul\":21042:21223   */\n    tag_587:\n        /* \"#utility.yul\":21182:21215   */\n      0x5265656e7472616e637947756172643a207265656e7472616e742063616c6c00\n        /* \"#utility.yul\":21178:21179   */\n      0x00\n        /* \"#utility.yul\":21170:21176   */\n      dup3\n        /* \"#utility.yul\":21166:21180   */\n      add\n        /* \"#utility.yul\":21159:21216   */\n      mstore\n        /* \"#utility.yul\":21042:21223   */\n      pop\n      jump\t// out\n        /* \"#utility.yul\":21229:21449   */\n    tag_592:\n        /* \"#utility.yul\":21369:21403   */\n      0x75696e74206f766572666c6f772066726f6d206d756c7469706c69636174696f\n        /* \"#utility.yul\":21365:21366   */\n      0x00\n        /* \"#utility.yul\":21357:21363   */\n      dup3\n        /* \"#utility.yul\":21353:21367   */\n      add\n        /* \"#utility.yul\":21346:21404   */\n      mstore\n        /* \"#utility.yul\":21438:21441   */\n      0x6e00000000000000000000000000000000000000000000000000000000000000\n        /* \"#utility.yul\":21433:21435   */\n      0x20\n        /* \"#utility.yul\":21425:21431   */\n      dup3\n        /* \"#utility.yul\":21421:21436   */\n      add\n        /* \"#utility.yul\":21414:21442   */\n      mstore\n        /* \"#utility.yul\":21229:21449   */\n      pop\n      jump\t// out\n        /* \"#utility.yul\":21455:21577   */\n    tag_465:\n        /* \"#utility.yul\":21528:21552   */\n      tag_714\n        /* \"#utility.yul\":21546:21551   */\n      dup2\n        /* \"#utility.yul\":21528:21552   */\n      tag_540\n      jump\t// in\n    tag_714:\n        /* \"#utility.yul\":21521:21526   */\n      dup2\n        /* \"#utility.yul\":21518:21553   */\n      eq\n        /* \"#utility.yul\":21508:21571   */\n      tag_715\n      jumpi\n        /* \"#utility.yul\":21567:21568   */\n      0x00\n        /* \"#utility.yul\":21564:21565   */\n      dup1\n        /* \"#utility.yul\":21557:21569   */\n      revert\n        /* \"#utility.yul\":21508:21571   */\n    tag_715:\n        /* \"#utility.yul\":21455:21577   */\n      pop\n      jump\t// out\n        /* \"#utility.yul\":21583:21699   */\n    tag_469:\n        /* \"#utility.yul\":21653:21674   */\n      tag_717\n        /* \"#utility.yul\":21668:21673   */\n      dup2\n        /* \"#utility.yul\":21653:21674   */\n      tag_671\n      jump\t// in\n    tag_717:\n        /* \"#utility.yul\":21646:21651   */\n      dup2\n        /* \"#utility.yul\":21643:21675   */\n      eq\n        /* \"#utility.yul\":21633:21693   */\n      tag_718\n      jumpi\n        /* \"#utility.yul\":21689:21690   */\n      0x00\n        /* \"#utility.yul\":21686:21687   */\n      dup1\n        /* \"#utility.yul\":21679:21691   */\n      revert\n        /* \"#utility.yul\":21633:21693   */\n    tag_718:\n        /* \"#utility.yul\":21583:21699   */\n      pop\n      jump\t// out\n        /* \"#utility.yul\":21705:21827   */\n    tag_479:\n        /* \"#utility.yul\":21778:21802   */\n      tag_720\n        /* \"#utility.yul\":21796:21801   */\n      dup2\n        /* \"#utility.yul\":21778:21802   */\n      tag_596\n      jump\t// in\n    tag_720:\n        /* \"#utility.yul\":21771:21776   */\n      dup2\n        /* \"#utility.yul\":21768:21803   */\n      eq\n        /* \"#utility.yul\":21758:21821   */\n      tag_721\n      jumpi\n        /* \"#utility.yul\":21817:21818   */\n      0x00\n        /* \"#utility.yul\":21814:21815   */\n      dup1\n        /* \"#utility.yul\":21807:21819   */\n      revert\n        /* \"#utility.yul\":21758:21821   */\n    tag_721:\n        /* \"#utility.yul\":21705:21827   */\n      pop\n      jump\t// out\n\n    auxdata: 0xa26469706673582212206d189cd4bae77847e15c0d308f2f4b3487d0155ee2c7e1ef05bb8380ac42ec2764736f6c63430008070033\n}\n",
				"bytecode": {
					"linkReferences": {},
					"object": "6080604052670de0b6b3a764000061c3506200001c9190620004a0565b600b55620186a0600e5562015f90600f55620927c060105573617f2e2fd72fd9d5503197092ac168c91465e7f2601260006101000a81548173ffffffffffffffffffffffffffffffffffffffff021916908373ffffffffffffffffffffffffffffffffffffffff1602179055503480156200009657600080fd5b50600160008190555073d9145cce52d386f254917e481eb44e9943f39138601360006101000a81548173ffffffffffffffffffffffffffffffffffffffff021916908373ffffffffffffffffffffffffffffffffffffffff16021790555073f8e81d47203a594245e36c48e151709f0c19fbe8601460006101000a81548173ffffffffffffffffffffffffffffffffffffffff021916908373ffffffffffffffffffffffffffffffffffffffff16021790555073d7acd2a9fd159e69bb102a1ca21c9a3e3a5f771b601560006101000a81548173ffffffffffffffffffffffffffffffffffffffff021916908373ffffffffffffffffffffffffffffffffffffffff160217905550732f8895b08d8f226b19895d46154fab7096fb2593601a604051620001c3906200047e565b908152602001604051809103902060000160006101000a81548173ffffffffffffffffffffffffffffffffffffffff021916908373ffffffffffffffffffffffffffffffffffffffff1602179055506006601a60405162000224906200047e565b908152602001604051809103902060010181905550732a4a8ab6a0bc0d377098f8688f77003833bc1c9d601a6040516200025e9062000467565b908152602001604051809103902060000160006101000a81548173ffffffffffffffffffffffffffffffffffffffff021916908373ffffffffffffffffffffffffffffffffffffffff1602179055506012601a604051620002bf9062000467565b90815260200160405180910390206001018190555073dc301622e621166bd8e82f2ca0a26c13ad0be355601a604051620002f99062000450565b908152602001604051809103902060000160006101000a81548173ffffffffffffffffffffffffffffffffffffffff021916908373ffffffffffffffffffffffffffffffffffffffff1602179055506012601a6040516200035a9062000450565b90815260200160405180910390206001018190555073617f2e2fd72fd9d5503197092ac168c91465e7f2600760006101000a81548173ffffffffffffffffffffffffffffffffffffffff021916908373ffffffffffffffffffffffffffffffffffffffff16021790555042600c8190555062069780600d81905550620005b5565b6000620003ea60048362000495565b9150620003f7826200053a565b600482019050919050565b60006200041160038362000495565b91506200041e8262000563565b600382019050919050565b60006200043860048362000495565b915062000445826200058c565b600482019050919050565b60006200045d82620003db565b9150819050919050565b6000620004748262000402565b9150819050919050565b60006200048b8262000429565b9150819050919050565b600081905092915050565b6000620004ad8262000501565b9150620004ba8362000501565b9250817fffffffffffffffffffffffffffffffffffffffffffffffffffffffffffffffff0483118215151615620004f657620004f56200050b565b5b828202905092915050565b6000819050919050565b7f4e487b7100000000000000000000000000000000000000000000000000000000600052601160045260246000fd5b7f4652415800000000000000000000000000000000000000000000000000000000600082015250565b7f4441490000000000000000000000000000000000000000000000000000000000600082015250565b7f5553444300000000000000000000000000000000000000000000000000000000600082015250565b612e6d80620005c56000396000f3fe6080604052600436106102255760003560e01c80636f10e28511610123578063c0ca6fb4116100ab578063e5d980821161006f578063e5d98082146107e7578063ee62086814610810578063eee05f5e1461083b578063fbbb458914610866578063fc3614431461089157610225565b8063c0ca6fb41461071f578063c0ce58891461074a578063cbff461714610766578063d04d790814610791578063d82eddf2146107bc57610225565b806393f7b711116100f257806393f7b711146106395780639b19251a14610664578063a475bf481461068d578063bdad7f02146106cb578063c079d7f6146106f457610225565b80636f10e2851461058f5780637087a7a5146105ba57806371cd58f9146105e5578063862d1b351461061057610225565b80631f564a06116101b157806339ad95d61161017557806339ad95d6146104bc5780633c6eb17a146104e557806343d32e9c1461051057806367b48c911461053b57806367e927a81461056657610225565b80631f564a06146103d357806326ae486e146103fe57806329982a32146104295780632a9f0fb114610454578063354533071461049157610225565b806312b2ed94116101f857806312b2ed94146102d65780631514c97614610314578063164c8501146103515780631a30e8721461037a5780631bc9cc45146103b757610225565b8063018a25e81461022a578063047729b0146102555780630ccaf04f146102805780630f65de3e146102ab575b600080fd5b34801561023657600080fd5b5061023f6108ba565b60405161024c91906128b8565b60405180910390f35b34801561026157600080fd5b5061026a6109d8565b6040516102779190612727565b60405180910390f35b34801561028c57600080fd5b506102956109fe565b6040516102a291906128b8565b60405180910390f35b3480156102b757600080fd5b506102c0610b58565b6040516102cd91906128b8565b60405180910390f35b3480156102e257600080fd5b506102fd60048036038101906102f8919061231b565b610be6565b60405161030b9291906128d3565b60405180910390f35b34801561032057600080fd5b5061033b60048036038101906103369190612489565b610c0a565b60405161034891906128b8565b60405180910390f35b34801561035d57600080fd5b5061037860048036038101906103739190612489565b610c22565b005b34801561038657600080fd5b506103a1600480360381019061039c9190612489565b610da0565b6040516103ae91906128b8565b60405180910390f35b6103d160048036038101906103cc9190612489565b610db8565b005b3480156103df57600080fd5b506103e8610f50565b6040516103f591906128b8565b60405180910390f35b34801561040a57600080fd5b50610413611002565b60405161042091906127a2565b60405180910390f35b34801561043557600080fd5b5061043e611028565b60405161044b9190612727565b60405180910390f35b34801561046057600080fd5b5061047b60048036038101906104769190612489565b61104e565b60405161048891906128b8565b60405180910390f35b34801561049d57600080fd5b506104a6611066565b6040516104b391906128b8565b60405180910390f35b3480156104c857600080fd5b506104e360048036038101906104de9190612489565b61106c565b005b3480156104f157600080fd5b506104fa61106f565b60405161050791906128b8565b60405180910390f35b34801561051c57600080fd5b50610525611075565b60405161053291906128b8565b60405180910390f35b34801561054757600080fd5b50610550611193565b60405161055d91906128b8565b60405180910390f35b34801561057257600080fd5b5061058d60048036038101906105889190612489565b611199565b005b34801561059b57600080fd5b506105a461124a565b6040516105b191906127bd565b60405180910390f35b3480156105c657600080fd5b506105cf61125d565b6040516105dc91906127a2565b60405180910390f35b3480156105f157600080fd5b506105fa611283565b60405161060791906128b8565b60405180910390f35b34801561061c57600080fd5b50610637600480360381019061063291906124e3565b61133a565b005b34801561064557600080fd5b5061064e611799565b60405161065b91906128b8565b60405180910390f35b34801561067057600080fd5b5061068b6004803603810190610686919061231b565b6118f3565b005b34801561069957600080fd5b506106b460048036038101906106af91906123d1565b6118f6565b6040516106c2929190612779565b60405180910390f35b3480156106d757600080fd5b506106f260048036038101906106ed9190612348565b611950565b005b34801561070057600080fd5b50610709611ad1565b6040516107169190612727565b60405180910390f35b34801561072b57600080fd5b50610734611af7565b60405161074191906127a2565b60405180910390f35b610764600480360381019061075f919061253f565b611b1d565b005b34801561077257600080fd5b5061077b611e96565b60405161078891906128b8565b60405180910390f35b34801561079d57600080fd5b506107a6611e9c565b6040516107b391906127a2565b60405180910390f35b3480156107c857600080fd5b506107d1611ec2565b6040516107de91906128b8565b60405180910390f35b3480156107f357600080fd5b5061080e6004803603810190610809919061241a565b611f25565b005b34801561081c57600080fd5b50610825611fb0565b60405161083291906128b8565b60405180910390f35b34801561084757600080fd5b50610850611fb6565b60405161085d9190612727565b60405180910390f35b34801561087257600080fd5b5061087b611fdc565b6040516108889190612727565b60405180910390f35b34801561089d57600080fd5b506108b860048036038101906108b39190612489565b612002565b005b60006109d33073ffffffffffffffffffffffffffffffffffffffff16631f564a066040518163ffffffff1660e01b815260040160206040518083038186803b15801561090557600080fd5b505afa158015610919573d6000803e3d6000fd5b505050506040513d601f19601f8201168201806040525081019061093d91906124b6565b3073ffffffffffffffffffffffffffffffffffffffff166393f7b7116040518163ffffffff1660e01b815260040160206040518083038186803b15801561098357600080fd5b505afa158015610997573d6000803e3d6000fd5b505050506040513d601f19601f820116820180604052508101906109bb91906124b6565b6710a741a4627800006109ce9190612979565b61201a565b905090565b600960009054906101000a900473ffffffffffffffffffffffffffffffffffffffff1681565b60008060008062015180600d54610a1591906129cf565b9050600062015180600c5442610a2b9190612a5a565b610a3591906129cf565b9050600080821415610a5c5760196000808152602001908152602001600020549350610aa8565b8282610a689190612a5a565b90505b81811015610aa757601960008281526020019081526020016000205484610a929190612979565b93508080610a9f90612b8c565b915050610a6b565b5b610b2f3073ffffffffffffffffffffffffffffffffffffffff1663d82eddf26040518163ffffffff1660e01b815260040160206040518083038186803b158015610af157600080fd5b505afa158015610b05573d6000803e3d6000fd5b505050506040513d601f19601f82011682018060405250810190610b2991906124b6565b85612063565b9450670429d069189e0000851115610b4d57670429d069189e000094505b849550505050505090565b60008062015180600c5442610b6d9190612a5a565b610b7791906129cf565b905060008062015180600d54610b8d91906129cf565b905060008184610b9d9190612a5a565b90505b83811015610bdc57601960008281526020019081526020016000205483610bc79190612979565b92508080610bd490612b8c565b915050610ba0565b8294505050505090565b601b6020528060005260406000206000915090508060000154908060010154905082565b60186020528060005260406000206000915090505481565b601b60003373ffffffffffffffffffffffffffffffffffffffff1673ffffffffffffffffffffffffffffffffffffffff168152602001908152602001600020600101548110610ca6576040517f08c379a0000000000000000000000000000000000000000000000000000000008152600401610c9d906127d8565b60405180910390fd5b80601b60003373ffffffffffffffffffffffffffffffffffffffff1673ffffffffffffffffffffffffffffffffffffffff1681526020019081526020016000206001016000828254610cf89190612a5a565b925050819055506000601b60003373ffffffffffffffffffffffffffffffffffffffff1673ffffffffffffffffffffffffffffffffffffffff168152602001908152602001600020600101541415610d9d57601b60003373ffffffffffffffffffffffffffffffffffffffff1673ffffffffffffffffffffffffffffffffffffffff168152602001908152602001600020600080820160009055600182016000905550505b50565b60196020528060005260406000206000915090505481565b6000601360009054906101000a900473ffffffffffffffffffffffffffffffffffffffff1673ffffffffffffffffffffffffffffffffffffffff166370a08231336040518263ffffffff1660e01b8152600401610e159190612727565b60206040518083038186803b158015610e2d57600080fd5b505afa158015610e41573d6000803e3d6000fd5b505050506040513d601f19601f82011682018060405250810190610e6591906124b6565b9050818111610ea9576040517f08c379a0000000000000000000000000000000000000000000000000000000008152600401610ea090612818565b60405180910390fd5b610ed7601360009054906101000a900473ffffffffffffffffffffffffffffffffffffffff163330856120a4565b600062015180600c5442610eeb9190612a5a565b610ef591906129cf565b905082601860008381526020019081526020016000206000828254610f1a9190612979565b9250508190555082601960008381526020019081526020016000206000828254610f449190612a5a565b92505081905550505050565b6000610ffd600b54601360009054906101000a900473ffffffffffffffffffffffffffffffffffffffff1673ffffffffffffffffffffffffffffffffffffffff166318160ddd6040518163ffffffff1660e01b815260040160206040518083038186803b158015610fc057600080fd5b505afa158015610fd4573d6000803e3d6000fd5b505050506040513d601f19601f82011682018060405250810190610ff891906124b6565b612063565b905090565b601360009054906101000a900473ffffffffffffffffffffffffffffffffffffffff1681565b600a60009054906101000a900473ffffffffffffffffffffffffffffffffffffffff1681565b60176020528060005260406000206000915090505481565b600b5481565b50565b600c5481565b600061118e3073ffffffffffffffffffffffffffffffffffffffff16631f564a066040518163ffffffff1660e01b815260040160206040518083038186803b1580156110c057600080fd5b505afa1580156110d4573d6000803e3d6000fd5b505050506040513d601f19601f820116820180604052508101906110f891906124b6565b3073ffffffffffffffffffffffffffffffffffffffff16630ccaf04f6040518163ffffffff1660e01b815260040160206040518083038186803b15801561113e57600080fd5b505afa158015611152573d6000803e3d6000fd5b505050506040513d601f19601f8201168201806040525081019061117691906124b6565b670c7d713b49da00006111899190612a5a565b61201a565b905090565b600d5481565b620d2f00426111a89190612979565b601b60003373ffffffffffffffffffffffffffffffffffffffff1673ffffffffffffffffffffffffffffffffffffffff1681526020019081526020016000206000018190555080601b60003373ffffffffffffffffffffffffffffffffffffffff1673ffffffffffffffffffffffffffffffffffffffff16815260200190815260200160002060010160008282546112409190612979565b9250508190555050565b601160009054906101000a9004600f0b81565b601660009054906101000a900473ffffffffffffffffffffffffffffffffffffffff1681565b60008060008062015180600d5461129a91906129cf565b9050600062015180600c54426112b09190612a5a565b6112ba91906129cf565b905060008114156112e4576017600080815260200190815260200160002054945050505050611337565b81816112f09190612a5a565b92505b8083101561132f5760176000848152602001908152602001600020548461131a9190612979565b9350828061132790612b8c565b9350506112f3565b839450505050505b90565b60026000541415611380576040517f08c379a000000000000000000000000000000000000000000000000000000000815260040161137790612878565b60405180910390fd5b6002600081905550601a816040516113989190612710565b908152602001604051809103902060000160009054906101000a900473ffffffffffffffffffffffffffffffffffffffff16601660006101000a81548173ffffffffffffffffffffffffffffffffffffffff021916908373ffffffffffffffffffffffffffffffffffffffff1602179055506203d090821115611450576040517f08c379a000000000000000000000000000000000000000000000000000000000815260040161144790612838565b60405180910390fd5b6000601660009054906101000a900473ffffffffffffffffffffffffffffffffffffffff1673ffffffffffffffffffffffffffffffffffffffff166370a08231336040518263ffffffff1660e01b81526004016114ad9190612727565b60206040518083038186803b1580156114c557600080fd5b505afa1580156114d9573d6000803e3d6000fd5b505050506040513d601f19601f820116820180604052508101906114fd91906124b6565b9050828111611541576040517f08c379a000000000000000000000000000000000000000000000000000000000815260040161153890612818565b60405180910390fd5b6000601a836040516115539190612710565b9081526020016040518091039020600101546115ec853073ffffffffffffffffffffffffffffffffffffffff1663018a25e86040518163ffffffff1660e01b815260040160206040518083038186803b1580156115af57600080fd5b505afa1580156115c3573d6000803e3d6000fd5b505050506040513d601f19601f820116820180604052508101906115e791906124b6565b61201a565b6115f69190612a00565b9050611626601660009054906101000a900473ffffffffffffffffffffffffffffffffffffffff163330846120a4565b601360009054906101000a900473ffffffffffffffffffffffffffffffffffffffff1673ffffffffffffffffffffffffffffffffffffffff166340c10f1933670de0b6b3a7640000876116799190612a00565b6040518363ffffffff1660e01b8152600401611696929190612779565b600060405180830381600087803b1580156116b057600080fd5b505af11580156116c4573d6000803e3d6000fd5b50505050600062015180600c54426116dc9190612a5a565b6116e691906129cf565b90508460176000838152602001908152602001600020600082825461170b9190612979565b92505081905550846019600083815260200190815260200160002060008282546117359190612979565b925050819055503373ffffffffffffffffffffffffffffffffffffffff167ff633443b01504d269657083d48bb6de98e089cfff672b47fefbed21608b5c7798660405161178291906128b8565b60405180910390a250505060016000819055505050565b60008060008062015180600d546117b091906129cf565b9050600062015180600c54426117c69190612a5a565b6117d091906129cf565b90506000808214156117f75760196000808152602001908152602001600020549350611843565b82826118039190612a5a565b90505b818110156118425760196000828152602001908152602001600020548461182d9190612979565b9350808061183a90612b8c565b915050611806565b5b6118ca3073ffffffffffffffffffffffffffffffffffffffff166371cd58f96040518163ffffffff1660e01b815260040160206040518083038186803b15801561188c57600080fd5b505afa1580156118a0573d6000803e3d6000fd5b505050506040513d601f19601f820116820180604052508101906118c491906124b6565b85612063565b9450670429d069189e00008511156118e857670429d069189e000094505b849550505050505090565b50565b601a818051602081018201805184825260208301602085012081835280955050505050506000915090508060000160009054906101000a900473ffffffffffffffffffffffffffffffffffffffff16908060010154905082565b601b60008373ffffffffffffffffffffffffffffffffffffffff1673ffffffffffffffffffffffffffffffffffffffff168152602001908152602001600020600001544210156119d5576040517f08c379a00000000000000000000000000000000000000000000000000000000081526004016119cc90612858565b60405180910390fd5b601a816040516119e59190612710565b908152602001604051809103902060000160009054906101000a900473ffffffffffffffffffffffffffffffffffffffff16601660006101000a81548173ffffffffffffffffffffffffffffffffffffffff021916908373ffffffffffffffffffffffffffffffffffffffff1602179055506000601b60008473ffffffffffffffffffffffffffffffffffffffff1673ffffffffffffffffffffffffffffffffffffffff168152602001908152602001600020600101549050611acc601660009054906101000a900473ffffffffffffffffffffffffffffffffffffffff163033846120a4565b505050565b600860009054906101000a900473ffffffffffffffffffffffffffffffffffffffff1681565b601560009054906101000a900473ffffffffffffffffffffffffffffffffffffffff1681565b601a81604051611b2d9190612710565b908152602001604051809103902060000160009054906101000a900473ffffffffffffffffffffffffffffffffffffffff16601660006101000a81548173ffffffffffffffffffffffffffffffffffffffff021916908373ffffffffffffffffffffffffffffffffffffffff1602179055506000601360009054906101000a900473ffffffffffffffffffffffffffffffffffffffff1673ffffffffffffffffffffffffffffffffffffffff166370a08231336040518263ffffffff1660e01b8152600401611bfc9190612727565b60206040518083038186803b158015611c1457600080fd5b505afa158015611c28573d6000803e3d6000fd5b505050506040513d601f19601f82011682018060405250810190611c4c91906124b6565b9050838111611c90576040517f08c379a0000000000000000000000000000000000000000000000000000000008152600401611c8790612818565b60405180910390fd5b601660009054906101000a900473ffffffffffffffffffffffffffffffffffffffff1673ffffffffffffffffffffffffffffffffffffffff1663a9059cbb33670de0b6b3a76400006001611ce49190612a00565b87611cef9190612979565b6040518363ffffffff1660e01b8152600401611d0c929190612779565b602060405180830381600087803b158015611d2657600080fd5b505af1158015611d3a573d6000803e3d6000fd5b505050506040513d601f19601f82011682018060405250810190611d5e91906123a4565b50611d8d601360009054906101000a900473ffffffffffffffffffffffffffffffffffffffff163330876120a4565b6000843073ffffffffffffffffffffffffffffffffffffffff166343d32e9c6040518163ffffffff1660e01b815260040160206040518083038186803b158015611dd657600080fd5b505afa158015611dea573d6000803e3d6000fd5b505050506040513d601f19601f82011682018060405250810190611e0e91906124b6565b611e189190612a00565b9050600062015180600c5442611e2e9190612a5a565b611e3891906129cf565b905085601860008381526020019081526020016000206000828254611e5d9190612979565b9250508190555085601960008381526020019081526020016000206000828254611e879190612a5a565b92505081905550505050505050565b60025481565b601460009054906101000a900473ffffffffffffffffffffffffffffffffffffffff1681565b60008060008062015180600d54611ed991906129cf565b9050600091505b80821015611f1c57601860008381526020019081526020016000205483611f079190612979565b92508180611f1490612b8c565b925050611ee0565b82935050505090565b81601a84604051611f369190612710565b908152602001604051809103902060000160006101000a81548173ffffffffffffffffffffffffffffffffffffffff021916908373ffffffffffffffffffffffffffffffffffffffff16021790555080601a84604051611f969190612710565b908152602001604051809103902060010181905550505050565b60015481565b601260009054906101000a900473ffffffffffffffffffffffffffffffffffffffff1681565b600760009054906101000a900473ffffffffffffffffffffffffffffffffffffffff1681565b62015180816120119190612a00565b600d8190555050565b600080612027848461217e565b9050670de0b6b3a7640000612050826002670de0b6b3a764000061204b91906129cf565b6121f9565b61205a91906129cf565b91505092915050565b60008061207884670de0b6b3a764000061217e565b9050826120918260028661208c91906129cf565b6121f9565b61209b91906129cf565b91505092915050565b60008473ffffffffffffffffffffffffffffffffffffffff166323b872dd8585856040518463ffffffff1660e01b81526004016120e393929190612742565b602060405180830381600087803b1580156120fd57600080fd5b505af1158015612111573d6000803e3d6000fd5b505050506040513d601f19601f8201168201806040525081019061213591906123a4565b905080612177576040517f08c379a000000000000000000000000000000000000000000000000000000000815260040161216e906127f8565b60405180910390fd5b5050505050565b60008083141561219157600090506121f3565b6000828461219f9190612a00565b90508284826121ae91906129cf565b146121ee576040517f08c379a00000000000000000000000000000000000000000000000000000000081526004016121e590612898565b60405180910390fd5b809150505b92915050565b60008082846122089190612979565b90508381101561224d576040517f08c379a000000000000000000000000000000000000000000000000000000000815260040161224490612898565b60405180910390fd5b8091505092915050565b600061226a61226584612921565b6128fc565b90508281526020810184848401111561228657612285612c67565b5b612291848285612b19565b509392505050565b6000813590506122a881612df2565b92915050565b6000815190506122bd81612e09565b92915050565b600082601f8301126122d8576122d7612c62565b5b81356122e8848260208601612257565b91505092915050565b60008135905061230081612e20565b92915050565b60008151905061231581612e20565b92915050565b60006020828403121561233157612330612c71565b5b600061233f84828501612299565b91505092915050565b6000806040838503121561235f5761235e612c71565b5b600061236d85828601612299565b925050602083013567ffffffffffffffff81111561238e5761238d612c6c565b5b61239a858286016122c3565b9150509250929050565b6000602082840312156123ba576123b9612c71565b5b60006123c8848285016122ae565b91505092915050565b6000602082840312156123e7576123e6612c71565b5b600082013567ffffffffffffffff81111561240557612404612c6c565b5b612411848285016122c3565b91505092915050565b60008060006060848603121561243357612432612c71565b5b600084013567ffffffffffffffff81111561245157612450612c6c565b5b61245d868287016122c3565b935050602061246e86828701612299565b925050604061247f868287016122f1565b9150509250925092565b60006020828403121561249f5761249e612c71565b5b60006124ad848285016122f1565b91505092915050565b6000602082840312156124cc576124cb612c71565b5b60006124da84828501612306565b91505092915050565b600080604083850312156124fa576124f9612c71565b5b6000612508858286016122f1565b925050602083013567ffffffffffffffff81111561252957612528612c6c565b5b612535858286016122c3565b9150509250929050565b60008060006060848603121561255857612557612c71565b5b6000612566868287016122f1565b9350506020612577868287016122f1565b925050604084013567ffffffffffffffff81111561259857612597612c6c565b5b6125a4868287016122c3565b9150509250925092565b6125b781612a8e565b82525050565b6125c681612ae3565b82525050565b6125d581612aac565b82525050565b60006125e682612952565b6125f0818561296e565b9350612600818560208601612b28565b80840191505092915050565b600061261960248361295d565b915061262482612c87565b604082019050919050565b600061263c60158361295d565b915061264782612cd6565b602082019050919050565b600061265f601a8361295d565b915061266a82612cff565b602082019050919050565b600061268260158361295d565b915061268d82612d28565b602082019050919050565b60006126a5600c8361295d565b91506126b082612d51565b602082019050919050565b60006126c8601f8361295d565b91506126d382612d7a565b602082019050919050565b60006126eb60218361295d565b91506126f682612da3565b604082019050919050565b61270a81612ad9565b82525050565b600061271c82846125db565b915081905092915050565b600060208201905061273c60008301846125ae565b92915050565b600060608201905061275760008301866125ae565b61276460208301856125ae565b6127716040830184612701565b949350505050565b600060408201905061278e60008301856125ae565b61279b6020830184612701565b9392505050565b60006020820190506127b760008301846125bd565b92915050565b60006020820190506127d260008301846125cc565b92915050565b600060208201905081810360008301526127f18161260c565b9050919050565b600060208201905081810360008301526128118161262f565b9050919050565b6000602082019050818103600083015261283181612652565b9050919050565b6000602082019050818103600083015261285181612675565b9050919050565b6000602082019050818103600083015261287181612698565b9050919050565b60006020820190508181036000830152612891816126bb565b9050919050565b600060208201905081810360008301526128b1816126de565b9050919050565b60006020820190506128cd6000830184612701565b92915050565b60006040820190506128e86000830185612701565b6128f56020830184612701565b9392505050565b6000612906612917565b90506129128282612b5b565b919050565b6000604051905090565b600067ffffffffffffffff82111561293c5761293b612c33565b5b61294582612c76565b9050602081019050919050565b600081519050919050565b600082825260208201905092915050565b600081905092915050565b600061298482612ad9565b915061298f83612ad9565b9250827fffffffffffffffffffffffffffffffffffffffffffffffffffffffffffffffff038211156129c4576129c3612bd5565b5b828201905092915050565b60006129da82612ad9565b91506129e583612ad9565b9250826129f5576129f4612c04565b5b828204905092915050565b6000612a0b82612ad9565b9150612a1683612ad9565b9250817fffffffffffffffffffffffffffffffffffffffffffffffffffffffffffffffff0483118215151615612a4f57612a4e612bd5565b5b828202905092915050565b6000612a6582612ad9565b9150612a7083612ad9565b925082821015612a8357612a82612bd5565b5b828203905092915050565b6000612a9982612ab9565b9050919050565b60008115159050919050565b600081600f0b9050919050565b600073ffffffffffffffffffffffffffffffffffffffff82169050919050565b6000819050919050565b6000612aee82612af5565b9050919050565b6000612b0082612b07565b9050919050565b6000612b1282612ab9565b9050919050565b82818337600083830152505050565b60005b83811015612b46578082015181840152602081019050612b2b565b83811115612b55576000848401525b50505050565b612b6482612c76565b810181811067ffffffffffffffff82111715612b8357612b82612c33565b5b80604052505050565b6000612b9782612ad9565b91507fffffffffffffffffffffffffffffffffffffffffffffffffffffffffffffffff821415612bca57612bc9612bd5565b5b600182019050919050565b7f4e487b7100000000000000000000000000000000000000000000000000000000600052601160045260246000fd5b7f4e487b7100000000000000000000000000000000000000000000000000000000600052601260045260246000fd5b7f4e487b7100000000000000000000000000000000000000000000000000000000600052604160045260246000fd5b600080fd5b600080fd5b600080fd5b600080fd5b6000601f19601f8301169050919050565b7f596f7520646f6e7420686176652074686174206d75636820746f20776974686460008201527f7261772100000000000000000000000000000000000000000000000000000000602082015250565b7f546f6b656e207472616e73666572206661696c65640000000000000000000000600082015250565b7f596f7520646f6e742068617665207468617420616d6f756e7421000000000000600082015250565b7f506572207472616e73616374696f6e206c696d69740000000000000000000000600082015250565b7f4e6f7420756e6c6f636b65640000000000000000000000000000000000000000600082015250565b7f5265656e7472616e637947756172643a207265656e7472616e742063616c6c00600082015250565b7f75696e74206f766572666c6f772066726f6d206d756c7469706c69636174696f60008201527f6e00000000000000000000000000000000000000000000000000000000000000602082015250565b612dfb81612a8e565b8114612e0657600080fd5b50565b612e1281612aa0565b8114612e1d57600080fd5b50565b612e2981612ad9565b8114612e3457600080fd5b5056fea26469706673582212206d189cd4bae77847e15c0d308f2f4b3487d0155ee2c7e1ef05bb8380ac42ec2764736f6c63430008070033",
					"opcodes": "PUSH1 0x80 PUSH1 0x40 MSTORE PUSH8 0xDE0B6B3A7640000 PUSH2 0xC350 PUSH3 0x1C SWAP2 SWAP1 PUSH3 0x4A0 JUMP JUMPDEST PUSH1 0xB SSTORE PUSH3 0x186A0 PUSH1 0xE SSTORE PUSH3 0x15F90 PUSH1 0xF SSTORE PUSH3 0x927C0 PUSH1 0x10 SSTORE PUSH20 0x617F2E2FD72FD9D5503197092AC168C91465E7F2 PUSH1 0x12 PUSH1 0x0 PUSH2 0x100 EXP DUP2 SLOAD DUP2 PUSH20 0xFFFFFFFFFFFFFFFFFFFFFFFFFFFFFFFFFFFFFFFF MUL NOT AND SWAP1 DUP4 PUSH20 0xFFFFFFFFFFFFFFFFFFFFFFFFFFFFFFFFFFFFFFFF AND MUL OR SWAP1 SSTORE POP CALLVALUE DUP1 ISZERO PUSH3 0x96 JUMPI PUSH1 0x0 DUP1 REVERT JUMPDEST POP PUSH1 0x1 PUSH1 0x0 DUP2 SWAP1 SSTORE POP PUSH20 0xD9145CCE52D386F254917E481EB44E9943F39138 PUSH1 0x13 PUSH1 0x0 PUSH2 0x100 EXP DUP2 SLOAD DUP2 PUSH20 0xFFFFFFFFFFFFFFFFFFFFFFFFFFFFFFFFFFFFFFFF MUL NOT AND SWAP1 DUP4 PUSH20 0xFFFFFFFFFFFFFFFFFFFFFFFFFFFFFFFFFFFFFFFF AND MUL OR SWAP1 SSTORE POP PUSH20 0xF8E81D47203A594245E36C48E151709F0C19FBE8 PUSH1 0x14 PUSH1 0x0 PUSH2 0x100 EXP DUP2 SLOAD DUP2 PUSH20 0xFFFFFFFFFFFFFFFFFFFFFFFFFFFFFFFFFFFFFFFF MUL NOT AND SWAP1 DUP4 PUSH20 0xFFFFFFFFFFFFFFFFFFFFFFFFFFFFFFFFFFFFFFFF AND MUL OR SWAP1 SSTORE POP PUSH20 0xD7ACD2A9FD159E69BB102A1CA21C9A3E3A5F771B PUSH1 0x15 PUSH1 0x0 PUSH2 0x100 EXP DUP2 SLOAD DUP2 PUSH20 0xFFFFFFFFFFFFFFFFFFFFFFFFFFFFFFFFFFFFFFFF MUL NOT AND SWAP1 DUP4 PUSH20 0xFFFFFFFFFFFFFFFFFFFFFFFFFFFFFFFFFFFFFFFF AND MUL OR SWAP1 SSTORE POP PUSH20 0x2F8895B08D8F226B19895D46154FAB7096FB2593 PUSH1 0x1A PUSH1 0x40 MLOAD PUSH3 0x1C3 SWAP1 PUSH3 0x47E JUMP JUMPDEST SWAP1 DUP2 MSTORE PUSH1 0x20 ADD PUSH1 0x40 MLOAD DUP1 SWAP2 SUB SWAP1 KECCAK256 PUSH1 0x0 ADD PUSH1 0x0 PUSH2 0x100 EXP DUP2 SLOAD DUP2 PUSH20 0xFFFFFFFFFFFFFFFFFFFFFFFFFFFFFFFFFFFFFFFF MUL NOT AND SWAP1 DUP4 PUSH20 0xFFFFFFFFFFFFFFFFFFFFFFFFFFFFFFFFFFFFFFFF AND MUL OR SWAP1 SSTORE POP PUSH1 0x6 PUSH1 0x1A PUSH1 0x40 MLOAD PUSH3 0x224 SWAP1 PUSH3 0x47E JUMP JUMPDEST SWAP1 DUP2 MSTORE PUSH1 0x20 ADD PUSH1 0x40 MLOAD DUP1 SWAP2 SUB SWAP1 KECCAK256 PUSH1 0x1 ADD DUP2 SWAP1 SSTORE POP PUSH20 0x2A4A8AB6A0BC0D377098F8688F77003833BC1C9D PUSH1 0x1A PUSH1 0x40 MLOAD PUSH3 0x25E SWAP1 PUSH3 0x467 JUMP JUMPDEST SWAP1 DUP2 MSTORE PUSH1 0x20 ADD PUSH1 0x40 MLOAD DUP1 SWAP2 SUB SWAP1 KECCAK256 PUSH1 0x0 ADD PUSH1 0x0 PUSH2 0x100 EXP DUP2 SLOAD DUP2 PUSH20 0xFFFFFFFFFFFFFFFFFFFFFFFFFFFFFFFFFFFFFFFF MUL NOT AND SWAP1 DUP4 PUSH20 0xFFFFFFFFFFFFFFFFFFFFFFFFFFFFFFFFFFFFFFFF AND MUL OR SWAP1 SSTORE POP PUSH1 0x12 PUSH1 0x1A PUSH1 0x40 MLOAD PUSH3 0x2BF SWAP1 PUSH3 0x467 JUMP JUMPDEST SWAP1 DUP2 MSTORE PUSH1 0x20 ADD PUSH1 0x40 MLOAD DUP1 SWAP2 SUB SWAP1 KECCAK256 PUSH1 0x1 ADD DUP2 SWAP1 SSTORE POP PUSH20 0xDC301622E621166BD8E82F2CA0A26C13AD0BE355 PUSH1 0x1A PUSH1 0x40 MLOAD PUSH3 0x2F9 SWAP1 PUSH3 0x450 JUMP JUMPDEST SWAP1 DUP2 MSTORE PUSH1 0x20 ADD PUSH1 0x40 MLOAD DUP1 SWAP2 SUB SWAP1 KECCAK256 PUSH1 0x0 ADD PUSH1 0x0 PUSH2 0x100 EXP DUP2 SLOAD DUP2 PUSH20 0xFFFFFFFFFFFFFFFFFFFFFFFFFFFFFFFFFFFFFFFF MUL NOT AND SWAP1 DUP4 PUSH20 0xFFFFFFFFFFFFFFFFFFFFFFFFFFFFFFFFFFFFFFFF AND MUL OR SWAP1 SSTORE POP PUSH1 0x12 PUSH1 0x1A PUSH1 0x40 MLOAD PUSH3 0x35A SWAP1 PUSH3 0x450 JUMP JUMPDEST SWAP1 DUP2 MSTORE PUSH1 0x20 ADD PUSH1 0x40 MLOAD DUP1 SWAP2 SUB SWAP1 KECCAK256 PUSH1 0x1 ADD DUP2 SWAP1 SSTORE POP PUSH20 0x617F2E2FD72FD9D5503197092AC168C91465E7F2 PUSH1 0x7 PUSH1 0x0 PUSH2 0x100 EXP DUP2 SLOAD DUP2 PUSH20 0xFFFFFFFFFFFFFFFFFFFFFFFFFFFFFFFFFFFFFFFF MUL NOT AND SWAP1 DUP4 PUSH20 0xFFFFFFFFFFFFFFFFFFFFFFFFFFFFFFFFFFFFFFFF AND MUL OR SWAP1 SSTORE POP TIMESTAMP PUSH1 0xC DUP2 SWAP1 SSTORE POP PUSH3 0x69780 PUSH1 0xD DUP2 SWAP1 SSTORE POP PUSH3 0x5B5 JUMP JUMPDEST PUSH1 0x0 PUSH3 0x3EA PUSH1 0x4 DUP4 PUSH3 0x495 JUMP JUMPDEST SWAP2 POP PUSH3 0x3F7 DUP3 PUSH3 0x53A JUMP JUMPDEST PUSH1 0x4 DUP3 ADD SWAP1 POP SWAP2 SWAP1 POP JUMP JUMPDEST PUSH1 0x0 PUSH3 0x411 PUSH1 0x3 DUP4 PUSH3 0x495 JUMP JUMPDEST SWAP2 POP PUSH3 0x41E DUP3 PUSH3 0x563 JUMP JUMPDEST PUSH1 0x3 DUP3 ADD SWAP1 POP SWAP2 SWAP1 POP JUMP JUMPDEST PUSH1 0x0 PUSH3 0x438 PUSH1 0x4 DUP4 PUSH3 0x495 JUMP JUMPDEST SWAP2 POP PUSH3 0x445 DUP3 PUSH3 0x58C JUMP JUMPDEST PUSH1 0x4 DUP3 ADD SWAP1 POP SWAP2 SWAP1 POP JUMP JUMPDEST PUSH1 0x0 PUSH3 0x45D DUP3 PUSH3 0x3DB JUMP JUMPDEST SWAP2 POP DUP2 SWAP1 POP SWAP2 SWAP1 POP JUMP JUMPDEST PUSH1 0x0 PUSH3 0x474 DUP3 PUSH3 0x402 JUMP JUMPDEST SWAP2 POP DUP2 SWAP1 POP SWAP2 SWAP1 POP JUMP JUMPDEST PUSH1 0x0 PUSH3 0x48B DUP3 PUSH3 0x429 JUMP JUMPDEST SWAP2 POP DUP2 SWAP1 POP SWAP2 SWAP1 POP JUMP JUMPDEST PUSH1 0x0 DUP2 SWAP1 POP SWAP3 SWAP2 POP POP JUMP JUMPDEST PUSH1 0x0 PUSH3 0x4AD DUP3 PUSH3 0x501 JUMP JUMPDEST SWAP2 POP PUSH3 0x4BA DUP4 PUSH3 0x501 JUMP JUMPDEST SWAP3 POP DUP2 PUSH32 0xFFFFFFFFFFFFFFFFFFFFFFFFFFFFFFFFFFFFFFFFFFFFFFFFFFFFFFFFFFFFFFFF DIV DUP4 GT DUP3 ISZERO ISZERO AND ISZERO PUSH3 0x4F6 JUMPI PUSH3 0x4F5 PUSH3 0x50B JUMP JUMPDEST JUMPDEST DUP3 DUP3 MUL SWAP1 POP SWAP3 SWAP2 POP POP JUMP JUMPDEST PUSH1 0x0 DUP2 SWAP1 POP SWAP2 SWAP1 POP JUMP JUMPDEST PUSH32 0x4E487B7100000000000000000000000000000000000000000000000000000000 PUSH1 0x0 MSTORE PUSH1 0x11 PUSH1 0x4 MSTORE PUSH1 0x24 PUSH1 0x0 REVERT JUMPDEST PUSH32 0x4652415800000000000000000000000000000000000000000000000000000000 PUSH1 0x0 DUP3 ADD MSTORE POP JUMP JUMPDEST PUSH32 0x4441490000000000000000000000000000000000000000000000000000000000 PUSH1 0x0 DUP3 ADD MSTORE POP JUMP JUMPDEST PUSH32 0x5553444300000000000000000000000000000000000000000000000000000000 PUSH1 0x0 DUP3 ADD MSTORE POP JUMP JUMPDEST PUSH2 0x2E6D DUP1 PUSH3 0x5C5 PUSH1 0x0 CODECOPY PUSH1 0x0 RETURN INVALID PUSH1 0x80 PUSH1 0x40 MSTORE PUSH1 0x4 CALLDATASIZE LT PUSH2 0x225 JUMPI PUSH1 0x0 CALLDATALOAD PUSH1 0xE0 SHR DUP1 PUSH4 0x6F10E285 GT PUSH2 0x123 JUMPI DUP1 PUSH4 0xC0CA6FB4 GT PUSH2 0xAB JUMPI DUP1 PUSH4 0xE5D98082 GT PUSH2 0x6F JUMPI DUP1 PUSH4 0xE5D98082 EQ PUSH2 0x7E7 JUMPI DUP1 PUSH4 0xEE620868 EQ PUSH2 0x810 JUMPI DUP1 PUSH4 0xEEE05F5E EQ PUSH2 0x83B JUMPI DUP1 PUSH4 0xFBBB4589 EQ PUSH2 0x866 JUMPI DUP1 PUSH4 0xFC361443 EQ PUSH2 0x891 JUMPI PUSH2 0x225 JUMP JUMPDEST DUP1 PUSH4 0xC0CA6FB4 EQ PUSH2 0x71F JUMPI DUP1 PUSH4 0xC0CE5889 EQ PUSH2 0x74A JUMPI DUP1 PUSH4 0xCBFF4617 EQ PUSH2 0x766 JUMPI DUP1 PUSH4 0xD04D7908 EQ PUSH2 0x791 JUMPI DUP1 PUSH4 0xD82EDDF2 EQ PUSH2 0x7BC JUMPI PUSH2 0x225 JUMP JUMPDEST DUP1 PUSH4 0x93F7B711 GT PUSH2 0xF2 JUMPI DUP1 PUSH4 0x93F7B711 EQ PUSH2 0x639 JUMPI DUP1 PUSH4 0x9B19251A EQ PUSH2 0x664 JUMPI DUP1 PUSH4 0xA475BF48 EQ PUSH2 0x68D JUMPI DUP1 PUSH4 0xBDAD7F02 EQ PUSH2 0x6CB JUMPI DUP1 PUSH4 0xC079D7F6 EQ PUSH2 0x6F4 JUMPI PUSH2 0x225 JUMP JUMPDEST DUP1 PUSH4 0x6F10E285 EQ PUSH2 0x58F JUMPI DUP1 PUSH4 0x7087A7A5 EQ PUSH2 0x5BA JUMPI DUP1 PUSH4 0x71CD58F9 EQ PUSH2 0x5E5 JUMPI DUP1 PUSH4 0x862D1B35 EQ PUSH2 0x610 JUMPI PUSH2 0x225 JUMP JUMPDEST DUP1 PUSH4 0x1F564A06 GT PUSH2 0x1B1 JUMPI DUP1 PUSH4 0x39AD95D6 GT PUSH2 0x175 JUMPI DUP1 PUSH4 0x39AD95D6 EQ PUSH2 0x4BC JUMPI DUP1 PUSH4 0x3C6EB17A EQ PUSH2 0x4E5 JUMPI DUP1 PUSH4 0x43D32E9C EQ PUSH2 0x510 JUMPI DUP1 PUSH4 0x67B48C91 EQ PUSH2 0x53B JUMPI DUP1 PUSH4 0x67E927A8 EQ PUSH2 0x566 JUMPI PUSH2 0x225 JUMP JUMPDEST DUP1 PUSH4 0x1F564A06 EQ PUSH2 0x3D3 JUMPI DUP1 PUSH4 0x26AE486E EQ PUSH2 0x3FE JUMPI DUP1 PUSH4 0x29982A32 EQ PUSH2 0x429 JUMPI DUP1 PUSH4 0x2A9F0FB1 EQ PUSH2 0x454 JUMPI DUP1 PUSH4 0x35453307 EQ PUSH2 0x491 JUMPI PUSH2 0x225 JUMP JUMPDEST DUP1 PUSH4 0x12B2ED94 GT PUSH2 0x1F8 JUMPI DUP1 PUSH4 0x12B2ED94 EQ PUSH2 0x2D6 JUMPI DUP1 PUSH4 0x1514C976 EQ PUSH2 0x314 JUMPI DUP1 PUSH4 0x164C8501 EQ PUSH2 0x351 JUMPI DUP1 PUSH4 0x1A30E872 EQ PUSH2 0x37A JUMPI DUP1 PUSH4 0x1BC9CC45 EQ PUSH2 0x3B7 JUMPI PUSH2 0x225 JUMP JUMPDEST DUP1 PUSH4 0x18A25E8 EQ PUSH2 0x22A JUMPI DUP1 PUSH4 0x47729B0 EQ PUSH2 0x255 JUMPI DUP1 PUSH4 0xCCAF04F EQ PUSH2 0x280 JUMPI DUP1 PUSH4 0xF65DE3E EQ PUSH2 0x2AB JUMPI JUMPDEST PUSH1 0x0 DUP1 REVERT JUMPDEST CALLVALUE DUP1 ISZERO PUSH2 0x236 JUMPI PUSH1 0x0 DUP1 REVERT JUMPDEST POP PUSH2 0x23F PUSH2 0x8BA JUMP JUMPDEST PUSH1 0x40 MLOAD PUSH2 0x24C SWAP2 SWAP1 PUSH2 0x28B8 JUMP JUMPDEST PUSH1 0x40 MLOAD DUP1 SWAP2 SUB SWAP1 RETURN JUMPDEST CALLVALUE DUP1 ISZERO PUSH2 0x261 JUMPI PUSH1 0x0 DUP1 REVERT JUMPDEST POP PUSH2 0x26A PUSH2 0x9D8 JUMP JUMPDEST PUSH1 0x40 MLOAD PUSH2 0x277 SWAP2 SWAP1 PUSH2 0x2727 JUMP JUMPDEST PUSH1 0x40 MLOAD DUP1 SWAP2 SUB SWAP1 RETURN JUMPDEST CALLVALUE DUP1 ISZERO PUSH2 0x28C JUMPI PUSH1 0x0 DUP1 REVERT JUMPDEST POP PUSH2 0x295 PUSH2 0x9FE JUMP JUMPDEST PUSH1 0x40 MLOAD PUSH2 0x2A2 SWAP2 SWAP1 PUSH2 0x28B8 JUMP JUMPDEST PUSH1 0x40 MLOAD DUP1 SWAP2 SUB SWAP1 RETURN JUMPDEST CALLVALUE DUP1 ISZERO PUSH2 0x2B7 JUMPI PUSH1 0x0 DUP1 REVERT JUMPDEST POP PUSH2 0x2C0 PUSH2 0xB58 JUMP JUMPDEST PUSH1 0x40 MLOAD PUSH2 0x2CD SWAP2 SWAP1 PUSH2 0x28B8 JUMP JUMPDEST PUSH1 0x40 MLOAD DUP1 SWAP2 SUB SWAP1 RETURN JUMPDEST CALLVALUE DUP1 ISZERO PUSH2 0x2E2 JUMPI PUSH1 0x0 DUP1 REVERT JUMPDEST POP PUSH2 0x2FD PUSH1 0x4 DUP1 CALLDATASIZE SUB DUP2 ADD SWAP1 PUSH2 0x2F8 SWAP2 SWAP1 PUSH2 0x231B JUMP JUMPDEST PUSH2 0xBE6 JUMP JUMPDEST PUSH1 0x40 MLOAD PUSH2 0x30B SWAP3 SWAP2 SWAP1 PUSH2 0x28D3 JUMP JUMPDEST PUSH1 0x40 MLOAD DUP1 SWAP2 SUB SWAP1 RETURN JUMPDEST CALLVALUE DUP1 ISZERO PUSH2 0x320 JUMPI PUSH1 0x0 DUP1 REVERT JUMPDEST POP PUSH2 0x33B PUSH1 0x4 DUP1 CALLDATASIZE SUB DUP2 ADD SWAP1 PUSH2 0x336 SWAP2 SWAP1 PUSH2 0x2489 JUMP JUMPDEST PUSH2 0xC0A JUMP JUMPDEST PUSH1 0x40 MLOAD PUSH2 0x348 SWAP2 SWAP1 PUSH2 0x28B8 JUMP JUMPDEST PUSH1 0x40 MLOAD DUP1 SWAP2 SUB SWAP1 RETURN JUMPDEST CALLVALUE DUP1 ISZERO PUSH2 0x35D JUMPI PUSH1 0x0 DUP1 REVERT JUMPDEST POP PUSH2 0x378 PUSH1 0x4 DUP1 CALLDATASIZE SUB DUP2 ADD SWAP1 PUSH2 0x373 SWAP2 SWAP1 PUSH2 0x2489 JUMP JUMPDEST PUSH2 0xC22 JUMP JUMPDEST STOP JUMPDEST CALLVALUE DUP1 ISZERO PUSH2 0x386 JUMPI PUSH1 0x0 DUP1 REVERT JUMPDEST POP PUSH2 0x3A1 PUSH1 0x4 DUP1 CALLDATASIZE SUB DUP2 ADD SWAP1 PUSH2 0x39C SWAP2 SWAP1 PUSH2 0x2489 JUMP JUMPDEST PUSH2 0xDA0 JUMP JUMPDEST PUSH1 0x40 MLOAD PUSH2 0x3AE SWAP2 SWAP1 PUSH2 0x28B8 JUMP JUMPDEST PUSH1 0x40 MLOAD DUP1 SWAP2 SUB SWAP1 RETURN JUMPDEST PUSH2 0x3D1 PUSH1 0x4 DUP1 CALLDATASIZE SUB DUP2 ADD SWAP1 PUSH2 0x3CC SWAP2 SWAP1 PUSH2 0x2489 JUMP JUMPDEST PUSH2 0xDB8 JUMP JUMPDEST STOP JUMPDEST CALLVALUE DUP1 ISZERO PUSH2 0x3DF JUMPI PUSH1 0x0 DUP1 REVERT JUMPDEST POP PUSH2 0x3E8 PUSH2 0xF50 JUMP JUMPDEST PUSH1 0x40 MLOAD PUSH2 0x3F5 SWAP2 SWAP1 PUSH2 0x28B8 JUMP JUMPDEST PUSH1 0x40 MLOAD DUP1 SWAP2 SUB SWAP1 RETURN JUMPDEST CALLVALUE DUP1 ISZERO PUSH2 0x40A JUMPI PUSH1 0x0 DUP1 REVERT JUMPDEST POP PUSH2 0x413 PUSH2 0x1002 JUMP JUMPDEST PUSH1 0x40 MLOAD PUSH2 0x420 SWAP2 SWAP1 PUSH2 0x27A2 JUMP JUMPDEST PUSH1 0x40 MLOAD DUP1 SWAP2 SUB SWAP1 RETURN JUMPDEST CALLVALUE DUP1 ISZERO PUSH2 0x435 JUMPI PUSH1 0x0 DUP1 REVERT JUMPDEST POP PUSH2 0x43E PUSH2 0x1028 JUMP JUMPDEST PUSH1 0x40 MLOAD PUSH2 0x44B SWAP2 SWAP1 PUSH2 0x2727 JUMP JUMPDEST PUSH1 0x40 MLOAD DUP1 SWAP2 SUB SWAP1 RETURN JUMPDEST CALLVALUE DUP1 ISZERO PUSH2 0x460 JUMPI PUSH1 0x0 DUP1 REVERT JUMPDEST POP PUSH2 0x47B PUSH1 0x4 DUP1 CALLDATASIZE SUB DUP2 ADD SWAP1 PUSH2 0x476 SWAP2 SWAP1 PUSH2 0x2489 JUMP JUMPDEST PUSH2 0x104E JUMP JUMPDEST PUSH1 0x40 MLOAD PUSH2 0x488 SWAP2 SWAP1 PUSH2 0x28B8 JUMP JUMPDEST PUSH1 0x40 MLOAD DUP1 SWAP2 SUB SWAP1 RETURN JUMPDEST CALLVALUE DUP1 ISZERO PUSH2 0x49D JUMPI PUSH1 0x0 DUP1 REVERT JUMPDEST POP PUSH2 0x4A6 PUSH2 0x1066 JUMP JUMPDEST PUSH1 0x40 MLOAD PUSH2 0x4B3 SWAP2 SWAP1 PUSH2 0x28B8 JUMP JUMPDEST PUSH1 0x40 MLOAD DUP1 SWAP2 SUB SWAP1 RETURN JUMPDEST CALLVALUE DUP1 ISZERO PUSH2 0x4C8 JUMPI PUSH1 0x0 DUP1 REVERT JUMPDEST POP PUSH2 0x4E3 PUSH1 0x4 DUP1 CALLDATASIZE SUB DUP2 ADD SWAP1 PUSH2 0x4DE SWAP2 SWAP1 PUSH2 0x2489 JUMP JUMPDEST PUSH2 0x106C JUMP JUMPDEST STOP JUMPDEST CALLVALUE DUP1 ISZERO PUSH2 0x4F1 JUMPI PUSH1 0x0 DUP1 REVERT JUMPDEST POP PUSH2 0x4FA PUSH2 0x106F JUMP JUMPDEST PUSH1 0x40 MLOAD PUSH2 0x507 SWAP2 SWAP1 PUSH2 0x28B8 JUMP JUMPDEST PUSH1 0x40 MLOAD DUP1 SWAP2 SUB SWAP1 RETURN JUMPDEST CALLVALUE DUP1 ISZERO PUSH2 0x51C JUMPI PUSH1 0x0 DUP1 REVERT JUMPDEST POP PUSH2 0x525 PUSH2 0x1075 JUMP JUMPDEST PUSH1 0x40 MLOAD PUSH2 0x532 SWAP2 SWAP1 PUSH2 0x28B8 JUMP JUMPDEST PUSH1 0x40 MLOAD DUP1 SWAP2 SUB SWAP1 RETURN JUMPDEST CALLVALUE DUP1 ISZERO PUSH2 0x547 JUMPI PUSH1 0x0 DUP1 REVERT JUMPDEST POP PUSH2 0x550 PUSH2 0x1193 JUMP JUMPDEST PUSH1 0x40 MLOAD PUSH2 0x55D SWAP2 SWAP1 PUSH2 0x28B8 JUMP JUMPDEST PUSH1 0x40 MLOAD DUP1 SWAP2 SUB SWAP1 RETURN JUMPDEST CALLVALUE DUP1 ISZERO PUSH2 0x572 JUMPI PUSH1 0x0 DUP1 REVERT JUMPDEST POP PUSH2 0x58D PUSH1 0x4 DUP1 CALLDATASIZE SUB DUP2 ADD SWAP1 PUSH2 0x588 SWAP2 SWAP1 PUSH2 0x2489 JUMP JUMPDEST PUSH2 0x1199 JUMP JUMPDEST STOP JUMPDEST CALLVALUE DUP1 ISZERO PUSH2 0x59B JUMPI PUSH1 0x0 DUP1 REVERT JUMPDEST POP PUSH2 0x5A4 PUSH2 0x124A JUMP JUMPDEST PUSH1 0x40 MLOAD PUSH2 0x5B1 SWAP2 SWAP1 PUSH2 0x27BD JUMP JUMPDEST PUSH1 0x40 MLOAD DUP1 SWAP2 SUB SWAP1 RETURN JUMPDEST CALLVALUE DUP1 ISZERO PUSH2 0x5C6 JUMPI PUSH1 0x0 DUP1 REVERT JUMPDEST POP PUSH2 0x5CF PUSH2 0x125D JUMP JUMPDEST PUSH1 0x40 MLOAD PUSH2 0x5DC SWAP2 SWAP1 PUSH2 0x27A2 JUMP JUMPDEST PUSH1 0x40 MLOAD DUP1 SWAP2 SUB SWAP1 RETURN JUMPDEST CALLVALUE DUP1 ISZERO PUSH2 0x5F1 JUMPI PUSH1 0x0 DUP1 REVERT JUMPDEST POP PUSH2 0x5FA PUSH2 0x1283 JUMP JUMPDEST PUSH1 0x40 MLOAD PUSH2 0x607 SWAP2 SWAP1 PUSH2 0x28B8 JUMP JUMPDEST PUSH1 0x40 MLOAD DUP1 SWAP2 SUB SWAP1 RETURN JUMPDEST CALLVALUE DUP1 ISZERO PUSH2 0x61C JUMPI PUSH1 0x0 DUP1 REVERT JUMPDEST POP PUSH2 0x637 PUSH1 0x4 DUP1 CALLDATASIZE SUB DUP2 ADD SWAP1 PUSH2 0x632 SWAP2 SWAP1 PUSH2 0x24E3 JUMP JUMPDEST PUSH2 0x133A JUMP JUMPDEST STOP JUMPDEST CALLVALUE DUP1 ISZERO PUSH2 0x645 JUMPI PUSH1 0x0 DUP1 REVERT JUMPDEST POP PUSH2 0x64E PUSH2 0x1799 JUMP JUMPDEST PUSH1 0x40 MLOAD PUSH2 0x65B SWAP2 SWAP1 PUSH2 0x28B8 JUMP JUMPDEST PUSH1 0x40 MLOAD DUP1 SWAP2 SUB SWAP1 RETURN JUMPDEST CALLVALUE DUP1 ISZERO PUSH2 0x670 JUMPI PUSH1 0x0 DUP1 REVERT JUMPDEST POP PUSH2 0x68B PUSH1 0x4 DUP1 CALLDATASIZE SUB DUP2 ADD SWAP1 PUSH2 0x686 SWAP2 SWAP1 PUSH2 0x231B JUMP JUMPDEST PUSH2 0x18F3 JUMP JUMPDEST STOP JUMPDEST CALLVALUE DUP1 ISZERO PUSH2 0x699 JUMPI PUSH1 0x0 DUP1 REVERT JUMPDEST POP PUSH2 0x6B4 PUSH1 0x4 DUP1 CALLDATASIZE SUB DUP2 ADD SWAP1 PUSH2 0x6AF SWAP2 SWAP1 PUSH2 0x23D1 JUMP JUMPDEST PUSH2 0x18F6 JUMP JUMPDEST PUSH1 0x40 MLOAD PUSH2 0x6C2 SWAP3 SWAP2 SWAP1 PUSH2 0x2779 JUMP JUMPDEST PUSH1 0x40 MLOAD DUP1 SWAP2 SUB SWAP1 RETURN JUMPDEST CALLVALUE DUP1 ISZERO PUSH2 0x6D7 JUMPI PUSH1 0x0 DUP1 REVERT JUMPDEST POP PUSH2 0x6F2 PUSH1 0x4 DUP1 CALLDATASIZE SUB DUP2 ADD SWAP1 PUSH2 0x6ED SWAP2 SWAP1 PUSH2 0x2348 JUMP JUMPDEST PUSH2 0x1950 JUMP JUMPDEST STOP JUMPDEST CALLVALUE DUP1 ISZERO PUSH2 0x700 JUMPI PUSH1 0x0 DUP1 REVERT JUMPDEST POP PUSH2 0x709 PUSH2 0x1AD1 JUMP JUMPDEST PUSH1 0x40 MLOAD PUSH2 0x716 SWAP2 SWAP1 PUSH2 0x2727 JUMP JUMPDEST PUSH1 0x40 MLOAD DUP1 SWAP2 SUB SWAP1 RETURN JUMPDEST CALLVALUE DUP1 ISZERO PUSH2 0x72B JUMPI PUSH1 0x0 DUP1 REVERT JUMPDEST POP PUSH2 0x734 PUSH2 0x1AF7 JUMP JUMPDEST PUSH1 0x40 MLOAD PUSH2 0x741 SWAP2 SWAP1 PUSH2 0x27A2 JUMP JUMPDEST PUSH1 0x40 MLOAD DUP1 SWAP2 SUB SWAP1 RETURN JUMPDEST PUSH2 0x764 PUSH1 0x4 DUP1 CALLDATASIZE SUB DUP2 ADD SWAP1 PUSH2 0x75F SWAP2 SWAP1 PUSH2 0x253F JUMP JUMPDEST PUSH2 0x1B1D JUMP JUMPDEST STOP JUMPDEST CALLVALUE DUP1 ISZERO PUSH2 0x772 JUMPI PUSH1 0x0 DUP1 REVERT JUMPDEST POP PUSH2 0x77B PUSH2 0x1E96 JUMP JUMPDEST PUSH1 0x40 MLOAD PUSH2 0x788 SWAP2 SWAP1 PUSH2 0x28B8 JUMP JUMPDEST PUSH1 0x40 MLOAD DUP1 SWAP2 SUB SWAP1 RETURN JUMPDEST CALLVALUE DUP1 ISZERO PUSH2 0x79D JUMPI PUSH1 0x0 DUP1 REVERT JUMPDEST POP PUSH2 0x7A6 PUSH2 0x1E9C JUMP JUMPDEST PUSH1 0x40 MLOAD PUSH2 0x7B3 SWAP2 SWAP1 PUSH2 0x27A2 JUMP JUMPDEST PUSH1 0x40 MLOAD DUP1 SWAP2 SUB SWAP1 RETURN JUMPDEST CALLVALUE DUP1 ISZERO PUSH2 0x7C8 JUMPI PUSH1 0x0 DUP1 REVERT JUMPDEST POP PUSH2 0x7D1 PUSH2 0x1EC2 JUMP JUMPDEST PUSH1 0x40 MLOAD PUSH2 0x7DE SWAP2 SWAP1 PUSH2 0x28B8 JUMP JUMPDEST PUSH1 0x40 MLOAD DUP1 SWAP2 SUB SWAP1 RETURN JUMPDEST CALLVALUE DUP1 ISZERO PUSH2 0x7F3 JUMPI PUSH1 0x0 DUP1 REVERT JUMPDEST POP PUSH2 0x80E PUSH1 0x4 DUP1 CALLDATASIZE SUB DUP2 ADD SWAP1 PUSH2 0x809 SWAP2 SWAP1 PUSH2 0x241A JUMP JUMPDEST PUSH2 0x1F25 JUMP JUMPDEST STOP JUMPDEST CALLVALUE DUP1 ISZERO PUSH2 0x81C JUMPI PUSH1 0x0 DUP1 REVERT JUMPDEST POP PUSH2 0x825 PUSH2 0x1FB0 JUMP JUMPDEST PUSH1 0x40 MLOAD PUSH2 0x832 SWAP2 SWAP1 PUSH2 0x28B8 JUMP JUMPDEST PUSH1 0x40 MLOAD DUP1 SWAP2 SUB SWAP1 RETURN JUMPDEST CALLVALUE DUP1 ISZERO PUSH2 0x847 JUMPI PUSH1 0x0 DUP1 REVERT JUMPDEST POP PUSH2 0x850 PUSH2 0x1FB6 JUMP JUMPDEST PUSH1 0x40 MLOAD PUSH2 0x85D SWAP2 SWAP1 PUSH2 0x2727 JUMP JUMPDEST PUSH1 0x40 MLOAD DUP1 SWAP2 SUB SWAP1 RETURN JUMPDEST CALLVALUE DUP1 ISZERO PUSH2 0x872 JUMPI PUSH1 0x0 DUP1 REVERT JUMPDEST POP PUSH2 0x87B PUSH2 0x1FDC JUMP JUMPDEST PUSH1 0x40 MLOAD PUSH2 0x888 SWAP2 SWAP1 PUSH2 0x2727 JUMP JUMPDEST PUSH1 0x40 MLOAD DUP1 SWAP2 SUB SWAP1 RETURN JUMPDEST CALLVALUE DUP1 ISZERO PUSH2 0x89D JUMPI PUSH1 0x0 DUP1 REVERT JUMPDEST POP PUSH2 0x8B8 PUSH1 0x4 DUP1 CALLDATASIZE SUB DUP2 ADD SWAP1 PUSH2 0x8B3 SWAP2 SWAP1 PUSH2 0x2489 JUMP JUMPDEST PUSH2 0x2002 JUMP JUMPDEST STOP JUMPDEST PUSH1 0x0 PUSH2 0x9D3 ADDRESS PUSH20 0xFFFFFFFFFFFFFFFFFFFFFFFFFFFFFFFFFFFFFFFF AND PUSH4 0x1F564A06 PUSH1 0x40 MLOAD DUP2 PUSH4 0xFFFFFFFF AND PUSH1 0xE0 SHL DUP2 MSTORE PUSH1 0x4 ADD PUSH1 0x20 PUSH1 0x40 MLOAD DUP1 DUP4 SUB DUP2 DUP7 DUP1 EXTCODESIZE ISZERO DUP1 ISZERO PUSH2 0x905 JUMPI PUSH1 0x0 DUP1 REVERT JUMPDEST POP GAS STATICCALL ISZERO DUP1 ISZERO PUSH2 0x919 JUMPI RETURNDATASIZE PUSH1 0x0 DUP1 RETURNDATACOPY RETURNDATASIZE PUSH1 0x0 REVERT JUMPDEST POP POP POP POP PUSH1 0x40 MLOAD RETURNDATASIZE PUSH1 0x1F NOT PUSH1 0x1F DUP3 ADD AND DUP3 ADD DUP1 PUSH1 0x40 MSTORE POP DUP2 ADD SWAP1 PUSH2 0x93D SWAP2 SWAP1 PUSH2 0x24B6 JUMP JUMPDEST ADDRESS PUSH20 0xFFFFFFFFFFFFFFFFFFFFFFFFFFFFFFFFFFFFFFFF AND PUSH4 0x93F7B711 PUSH1 0x40 MLOAD DUP2 PUSH4 0xFFFFFFFF AND PUSH1 0xE0 SHL DUP2 MSTORE PUSH1 0x4 ADD PUSH1 0x20 PUSH1 0x40 MLOAD DUP1 DUP4 SUB DUP2 DUP7 DUP1 EXTCODESIZE ISZERO DUP1 ISZERO PUSH2 0x983 JUMPI PUSH1 0x0 DUP1 REVERT JUMPDEST POP GAS STATICCALL ISZERO DUP1 ISZERO PUSH2 0x997 JUMPI RETURNDATASIZE PUSH1 0x0 DUP1 RETURNDATACOPY RETURNDATASIZE PUSH1 0x0 REVERT JUMPDEST POP POP POP POP PUSH1 0x40 MLOAD RETURNDATASIZE PUSH1 0x1F NOT PUSH1 0x1F DUP3 ADD AND DUP3 ADD DUP1 PUSH1 0x40 MSTORE POP DUP2 ADD SWAP1 PUSH2 0x9BB SWAP2 SWAP1 PUSH2 0x24B6 JUMP JUMPDEST PUSH8 0x10A741A462780000 PUSH2 0x9CE SWAP2 SWAP1 PUSH2 0x2979 JUMP JUMPDEST PUSH2 0x201A JUMP JUMPDEST SWAP1 POP SWAP1 JUMP JUMPDEST PUSH1 0x9 PUSH1 0x0 SWAP1 SLOAD SWAP1 PUSH2 0x100 EXP SWAP1 DIV PUSH20 0xFFFFFFFFFFFFFFFFFFFFFFFFFFFFFFFFFFFFFFFF AND DUP2 JUMP JUMPDEST PUSH1 0x0 DUP1 PUSH1 0x0 DUP1 PUSH3 0x15180 PUSH1 0xD SLOAD PUSH2 0xA15 SWAP2 SWAP1 PUSH2 0x29CF JUMP JUMPDEST SWAP1 POP PUSH1 0x0 PUSH3 0x15180 PUSH1 0xC SLOAD TIMESTAMP PUSH2 0xA2B SWAP2 SWAP1 PUSH2 0x2A5A JUMP JUMPDEST PUSH2 0xA35 SWAP2 SWAP1 PUSH2 0x29CF JUMP JUMPDEST SWAP1 POP PUSH1 0x0 DUP1 DUP3 EQ ISZERO PUSH2 0xA5C JUMPI PUSH1 0x19 PUSH1 0x0 DUP1 DUP2 MSTORE PUSH1 0x20 ADD SWAP1 DUP2 MSTORE PUSH1 0x20 ADD PUSH1 0x0 KECCAK256 SLOAD SWAP4 POP PUSH2 0xAA8 JUMP JUMPDEST DUP3 DUP3 PUSH2 0xA68 SWAP2 SWAP1 PUSH2 0x2A5A JUMP JUMPDEST SWAP1 POP JUMPDEST DUP2 DUP2 LT ISZERO PUSH2 0xAA7 JUMPI PUSH1 0x19 PUSH1 0x0 DUP3 DUP2 MSTORE PUSH1 0x20 ADD SWAP1 DUP2 MSTORE PUSH1 0x20 ADD PUSH1 0x0 KECCAK256 SLOAD DUP5 PUSH2 0xA92 SWAP2 SWAP1 PUSH2 0x2979 JUMP JUMPDEST SWAP4 POP DUP1 DUP1 PUSH2 0xA9F SWAP1 PUSH2 0x2B8C JUMP JUMPDEST SWAP2 POP POP PUSH2 0xA6B JUMP JUMPDEST JUMPDEST PUSH2 0xB2F ADDRESS PUSH20 0xFFFFFFFFFFFFFFFFFFFFFFFFFFFFFFFFFFFFFFFF AND PUSH4 0xD82EDDF2 PUSH1 0x40 MLOAD DUP2 PUSH4 0xFFFFFFFF AND PUSH1 0xE0 SHL DUP2 MSTORE PUSH1 0x4 ADD PUSH1 0x20 PUSH1 0x40 MLOAD DUP1 DUP4 SUB DUP2 DUP7 DUP1 EXTCODESIZE ISZERO DUP1 ISZERO PUSH2 0xAF1 JUMPI PUSH1 0x0 DUP1 REVERT JUMPDEST POP GAS STATICCALL ISZERO DUP1 ISZERO PUSH2 0xB05 JUMPI RETURNDATASIZE PUSH1 0x0 DUP1 RETURNDATACOPY RETURNDATASIZE PUSH1 0x0 REVERT JUMPDEST POP POP POP POP PUSH1 0x40 MLOAD RETURNDATASIZE PUSH1 0x1F NOT PUSH1 0x1F DUP3 ADD AND DUP3 ADD DUP1 PUSH1 0x40 MSTORE POP DUP2 ADD SWAP1 PUSH2 0xB29 SWAP2 SWAP1 PUSH2 0x24B6 JUMP JUMPDEST DUP6 PUSH2 0x2063 JUMP JUMPDEST SWAP5 POP PUSH8 0x429D069189E0000 DUP6 GT ISZERO PUSH2 0xB4D JUMPI PUSH8 0x429D069189E0000 SWAP5 POP JUMPDEST DUP5 SWAP6 POP POP POP POP POP POP SWAP1 JUMP JUMPDEST PUSH1 0x0 DUP1 PUSH3 0x15180 PUSH1 0xC SLOAD TIMESTAMP PUSH2 0xB6D SWAP2 SWAP1 PUSH2 0x2A5A JUMP JUMPDEST PUSH2 0xB77 SWAP2 SWAP1 PUSH2 0x29CF JUMP JUMPDEST SWAP1 POP PUSH1 0x0 DUP1 PUSH3 0x15180 PUSH1 0xD SLOAD PUSH2 0xB8D SWAP2 SWAP1 PUSH2 0x29CF JUMP JUMPDEST SWAP1 POP PUSH1 0x0 DUP2 DUP5 PUSH2 0xB9D SWAP2 SWAP1 PUSH2 0x2A5A JUMP JUMPDEST SWAP1 POP JUMPDEST DUP4 DUP2 LT ISZERO PUSH2 0xBDC JUMPI PUSH1 0x19 PUSH1 0x0 DUP3 DUP2 MSTORE PUSH1 0x20 ADD SWAP1 DUP2 MSTORE PUSH1 0x20 ADD PUSH1 0x0 KECCAK256 SLOAD DUP4 PUSH2 0xBC7 SWAP2 SWAP1 PUSH2 0x2979 JUMP JUMPDEST SWAP3 POP DUP1 DUP1 PUSH2 0xBD4 SWAP1 PUSH2 0x2B8C JUMP JUMPDEST SWAP2 POP POP PUSH2 0xBA0 JUMP JUMPDEST DUP3 SWAP5 POP POP POP POP POP SWAP1 JUMP JUMPDEST PUSH1 0x1B PUSH1 0x20 MSTORE DUP1 PUSH1 0x0 MSTORE PUSH1 0x40 PUSH1 0x0 KECCAK256 PUSH1 0x0 SWAP2 POP SWAP1 POP DUP1 PUSH1 0x0 ADD SLOAD SWAP1 DUP1 PUSH1 0x1 ADD SLOAD SWAP1 POP DUP3 JUMP JUMPDEST PUSH1 0x18 PUSH1 0x20 MSTORE DUP1 PUSH1 0x0 MSTORE PUSH1 0x40 PUSH1 0x0 KECCAK256 PUSH1 0x0 SWAP2 POP SWAP1 POP SLOAD DUP2 JUMP JUMPDEST PUSH1 0x1B PUSH1 0x0 CALLER PUSH20 0xFFFFFFFFFFFFFFFFFFFFFFFFFFFFFFFFFFFFFFFF AND PUSH20 0xFFFFFFFFFFFFFFFFFFFFFFFFFFFFFFFFFFFFFFFF AND DUP2 MSTORE PUSH1 0x20 ADD SWAP1 DUP2 MSTORE PUSH1 0x20 ADD PUSH1 0x0 KECCAK256 PUSH1 0x1 ADD SLOAD DUP2 LT PUSH2 0xCA6 JUMPI PUSH1 0x40 MLOAD PUSH32 0x8C379A000000000000000000000000000000000000000000000000000000000 DUP2 MSTORE PUSH1 0x4 ADD PUSH2 0xC9D SWAP1 PUSH2 0x27D8 JUMP JUMPDEST PUSH1 0x40 MLOAD DUP1 SWAP2 SUB SWAP1 REVERT JUMPDEST DUP1 PUSH1 0x1B PUSH1 0x0 CALLER PUSH20 0xFFFFFFFFFFFFFFFFFFFFFFFFFFFFFFFFFFFFFFFF AND PUSH20 0xFFFFFFFFFFFFFFFFFFFFFFFFFFFFFFFFFFFFFFFF AND DUP2 MSTORE PUSH1 0x20 ADD SWAP1 DUP2 MSTORE PUSH1 0x20 ADD PUSH1 0x0 KECCAK256 PUSH1 0x1 ADD PUSH1 0x0 DUP3 DUP3 SLOAD PUSH2 0xCF8 SWAP2 SWAP1 PUSH2 0x2A5A JUMP JUMPDEST SWAP3 POP POP DUP2 SWAP1 SSTORE POP PUSH1 0x0 PUSH1 0x1B PUSH1 0x0 CALLER PUSH20 0xFFFFFFFFFFFFFFFFFFFFFFFFFFFFFFFFFFFFFFFF AND PUSH20 0xFFFFFFFFFFFFFFFFFFFFFFFFFFFFFFFFFFFFFFFF AND DUP2 MSTORE PUSH1 0x20 ADD SWAP1 DUP2 MSTORE PUSH1 0x20 ADD PUSH1 0x0 KECCAK256 PUSH1 0x1 ADD SLOAD EQ ISZERO PUSH2 0xD9D JUMPI PUSH1 0x1B PUSH1 0x0 CALLER PUSH20 0xFFFFFFFFFFFFFFFFFFFFFFFFFFFFFFFFFFFFFFFF AND PUSH20 0xFFFFFFFFFFFFFFFFFFFFFFFFFFFFFFFFFFFFFFFF AND DUP2 MSTORE PUSH1 0x20 ADD SWAP1 DUP2 MSTORE PUSH1 0x20 ADD PUSH1 0x0 KECCAK256 PUSH1 0x0 DUP1 DUP3 ADD PUSH1 0x0 SWAP1 SSTORE PUSH1 0x1 DUP3 ADD PUSH1 0x0 SWAP1 SSTORE POP POP JUMPDEST POP JUMP JUMPDEST PUSH1 0x19 PUSH1 0x20 MSTORE DUP1 PUSH1 0x0 MSTORE PUSH1 0x40 PUSH1 0x0 KECCAK256 PUSH1 0x0 SWAP2 POP SWAP1 POP SLOAD DUP2 JUMP JUMPDEST PUSH1 0x0 PUSH1 0x13 PUSH1 0x0 SWAP1 SLOAD SWAP1 PUSH2 0x100 EXP SWAP1 DIV PUSH20 0xFFFFFFFFFFFFFFFFFFFFFFFFFFFFFFFFFFFFFFFF AND PUSH20 0xFFFFFFFFFFFFFFFFFFFFFFFFFFFFFFFFFFFFFFFF AND PUSH4 0x70A08231 CALLER PUSH1 0x40 MLOAD DUP3 PUSH4 0xFFFFFFFF AND PUSH1 0xE0 SHL DUP2 MSTORE PUSH1 0x4 ADD PUSH2 0xE15 SWAP2 SWAP1 PUSH2 0x2727 JUMP JUMPDEST PUSH1 0x20 PUSH1 0x40 MLOAD DUP1 DUP4 SUB DUP2 DUP7 DUP1 EXTCODESIZE ISZERO DUP1 ISZERO PUSH2 0xE2D JUMPI PUSH1 0x0 DUP1 REVERT JUMPDEST POP GAS STATICCALL ISZERO DUP1 ISZERO PUSH2 0xE41 JUMPI RETURNDATASIZE PUSH1 0x0 DUP1 RETURNDATACOPY RETURNDATASIZE PUSH1 0x0 REVERT JUMPDEST POP POP POP POP PUSH1 0x40 MLOAD RETURNDATASIZE PUSH1 0x1F NOT PUSH1 0x1F DUP3 ADD AND DUP3 ADD DUP1 PUSH1 0x40 MSTORE POP DUP2 ADD SWAP1 PUSH2 0xE65 SWAP2 SWAP1 PUSH2 0x24B6 JUMP JUMPDEST SWAP1 POP DUP2 DUP2 GT PUSH2 0xEA9 JUMPI PUSH1 0x40 MLOAD PUSH32 0x8C379A000000000000000000000000000000000000000000000000000000000 DUP2 MSTORE PUSH1 0x4 ADD PUSH2 0xEA0 SWAP1 PUSH2 0x2818 JUMP JUMPDEST PUSH1 0x40 MLOAD DUP1 SWAP2 SUB SWAP1 REVERT JUMPDEST PUSH2 0xED7 PUSH1 0x13 PUSH1 0x0 SWAP1 SLOAD SWAP1 PUSH2 0x100 EXP SWAP1 DIV PUSH20 0xFFFFFFFFFFFFFFFFFFFFFFFFFFFFFFFFFFFFFFFF AND CALLER ADDRESS DUP6 PUSH2 0x20A4 JUMP JUMPDEST PUSH1 0x0 PUSH3 0x15180 PUSH1 0xC SLOAD TIMESTAMP PUSH2 0xEEB SWAP2 SWAP1 PUSH2 0x2A5A JUMP JUMPDEST PUSH2 0xEF5 SWAP2 SWAP1 PUSH2 0x29CF JUMP JUMPDEST SWAP1 POP DUP3 PUSH1 0x18 PUSH1 0x0 DUP4 DUP2 MSTORE PUSH1 0x20 ADD SWAP1 DUP2 MSTORE PUSH1 0x20 ADD PUSH1 0x0 KECCAK256 PUSH1 0x0 DUP3 DUP3 SLOAD PUSH2 0xF1A SWAP2 SWAP1 PUSH2 0x2979 JUMP JUMPDEST SWAP3 POP POP DUP2 SWAP1 SSTORE POP DUP3 PUSH1 0x19 PUSH1 0x0 DUP4 DUP2 MSTORE PUSH1 0x20 ADD SWAP1 DUP2 MSTORE PUSH1 0x20 ADD PUSH1 0x0 KECCAK256 PUSH1 0x0 DUP3 DUP3 SLOAD PUSH2 0xF44 SWAP2 SWAP1 PUSH2 0x2A5A JUMP JUMPDEST SWAP3 POP POP DUP2 SWAP1 SSTORE POP POP POP POP JUMP JUMPDEST PUSH1 0x0 PUSH2 0xFFD PUSH1 0xB SLOAD PUSH1 0x13 PUSH1 0x0 SWAP1 SLOAD SWAP1 PUSH2 0x100 EXP SWAP1 DIV PUSH20 0xFFFFFFFFFFFFFFFFFFFFFFFFFFFFFFFFFFFFFFFF AND PUSH20 0xFFFFFFFFFFFFFFFFFFFFFFFFFFFFFFFFFFFFFFFF AND PUSH4 0x18160DDD PUSH1 0x40 MLOAD DUP2 PUSH4 0xFFFFFFFF AND PUSH1 0xE0 SHL DUP2 MSTORE PUSH1 0x4 ADD PUSH1 0x20 PUSH1 0x40 MLOAD DUP1 DUP4 SUB DUP2 DUP7 DUP1 EXTCODESIZE ISZERO DUP1 ISZERO PUSH2 0xFC0 JUMPI PUSH1 0x0 DUP1 REVERT JUMPDEST POP GAS STATICCALL ISZERO DUP1 ISZERO PUSH2 0xFD4 JUMPI RETURNDATASIZE PUSH1 0x0 DUP1 RETURNDATACOPY RETURNDATASIZE PUSH1 0x0 REVERT JUMPDEST POP POP POP POP PUSH1 0x40 MLOAD RETURNDATASIZE PUSH1 0x1F NOT PUSH1 0x1F DUP3 ADD AND DUP3 ADD DUP1 PUSH1 0x40 MSTORE POP DUP2 ADD SWAP1 PUSH2 0xFF8 SWAP2 SWAP1 PUSH2 0x24B6 JUMP JUMPDEST PUSH2 0x2063 JUMP JUMPDEST SWAP1 POP SWAP1 JUMP JUMPDEST PUSH1 0x13 PUSH1 0x0 SWAP1 SLOAD SWAP1 PUSH2 0x100 EXP SWAP1 DIV PUSH20 0xFFFFFFFFFFFFFFFFFFFFFFFFFFFFFFFFFFFFFFFF AND DUP2 JUMP JUMPDEST PUSH1 0xA PUSH1 0x0 SWAP1 SLOAD SWAP1 PUSH2 0x100 EXP SWAP1 DIV PUSH20 0xFFFFFFFFFFFFFFFFFFFFFFFFFFFFFFFFFFFFFFFF AND DUP2 JUMP JUMPDEST PUSH1 0x17 PUSH1 0x20 MSTORE DUP1 PUSH1 0x0 MSTORE PUSH1 0x40 PUSH1 0x0 KECCAK256 PUSH1 0x0 SWAP2 POP SWAP1 POP SLOAD DUP2 JUMP JUMPDEST PUSH1 0xB SLOAD DUP2 JUMP JUMPDEST POP JUMP JUMPDEST PUSH1 0xC SLOAD DUP2 JUMP JUMPDEST PUSH1 0x0 PUSH2 0x118E ADDRESS PUSH20 0xFFFFFFFFFFFFFFFFFFFFFFFFFFFFFFFFFFFFFFFF AND PUSH4 0x1F564A06 PUSH1 0x40 MLOAD DUP2 PUSH4 0xFFFFFFFF AND PUSH1 0xE0 SHL DUP2 MSTORE PUSH1 0x4 ADD PUSH1 0x20 PUSH1 0x40 MLOAD DUP1 DUP4 SUB DUP2 DUP7 DUP1 EXTCODESIZE ISZERO DUP1 ISZERO PUSH2 0x10C0 JUMPI PUSH1 0x0 DUP1 REVERT JUMPDEST POP GAS STATICCALL ISZERO DUP1 ISZERO PUSH2 0x10D4 JUMPI RETURNDATASIZE PUSH1 0x0 DUP1 RETURNDATACOPY RETURNDATASIZE PUSH1 0x0 REVERT JUMPDEST POP POP POP POP PUSH1 0x40 MLOAD RETURNDATASIZE PUSH1 0x1F NOT PUSH1 0x1F DUP3 ADD AND DUP3 ADD DUP1 PUSH1 0x40 MSTORE POP DUP2 ADD SWAP1 PUSH2 0x10F8 SWAP2 SWAP1 PUSH2 0x24B6 JUMP JUMPDEST ADDRESS PUSH20 0xFFFFFFFFFFFFFFFFFFFFFFFFFFFFFFFFFFFFFFFF AND PUSH4 0xCCAF04F PUSH1 0x40 MLOAD DUP2 PUSH4 0xFFFFFFFF AND PUSH1 0xE0 SHL DUP2 MSTORE PUSH1 0x4 ADD PUSH1 0x20 PUSH1 0x40 MLOAD DUP1 DUP4 SUB DUP2 DUP7 DUP1 EXTCODESIZE ISZERO DUP1 ISZERO PUSH2 0x113E JUMPI PUSH1 0x0 DUP1 REVERT JUMPDEST POP GAS STATICCALL ISZERO DUP1 ISZERO PUSH2 0x1152 JUMPI RETURNDATASIZE PUSH1 0x0 DUP1 RETURNDATACOPY RETURNDATASIZE PUSH1 0x0 REVERT JUMPDEST POP POP POP POP PUSH1 0x40 MLOAD RETURNDATASIZE PUSH1 0x1F NOT PUSH1 0x1F DUP3 ADD AND DUP3 ADD DUP1 PUSH1 0x40 MSTORE POP DUP2 ADD SWAP1 PUSH2 0x1176 SWAP2 SWAP1 PUSH2 0x24B6 JUMP JUMPDEST PUSH8 0xC7D713B49DA0000 PUSH2 0x1189 SWAP2 SWAP1 PUSH2 0x2A5A JUMP JUMPDEST PUSH2 0x201A JUMP JUMPDEST SWAP1 POP SWAP1 JUMP JUMPDEST PUSH1 0xD SLOAD DUP2 JUMP JUMPDEST PUSH3 0xD2F00 TIMESTAMP PUSH2 0x11A8 SWAP2 SWAP1 PUSH2 0x2979 JUMP JUMPDEST PUSH1 0x1B PUSH1 0x0 CALLER PUSH20 0xFFFFFFFFFFFFFFFFFFFFFFFFFFFFFFFFFFFFFFFF AND PUSH20 0xFFFFFFFFFFFFFFFFFFFFFFFFFFFFFFFFFFFFFFFF AND DUP2 MSTORE PUSH1 0x20 ADD SWAP1 DUP2 MSTORE PUSH1 0x20 ADD PUSH1 0x0 KECCAK256 PUSH1 0x0 ADD DUP2 SWAP1 SSTORE POP DUP1 PUSH1 0x1B PUSH1 0x0 CALLER PUSH20 0xFFFFFFFFFFFFFFFFFFFFFFFFFFFFFFFFFFFFFFFF AND PUSH20 0xFFFFFFFFFFFFFFFFFFFFFFFFFFFFFFFFFFFFFFFF AND DUP2 MSTORE PUSH1 0x20 ADD SWAP1 DUP2 MSTORE PUSH1 0x20 ADD PUSH1 0x0 KECCAK256 PUSH1 0x1 ADD PUSH1 0x0 DUP3 DUP3 SLOAD PUSH2 0x1240 SWAP2 SWAP1 PUSH2 0x2979 JUMP JUMPDEST SWAP3 POP POP DUP2 SWAP1 SSTORE POP POP JUMP JUMPDEST PUSH1 0x11 PUSH1 0x0 SWAP1 SLOAD SWAP1 PUSH2 0x100 EXP SWAP1 DIV PUSH1 0xF SIGNEXTEND DUP2 JUMP JUMPDEST PUSH1 0x16 PUSH1 0x0 SWAP1 SLOAD SWAP1 PUSH2 0x100 EXP SWAP1 DIV PUSH20 0xFFFFFFFFFFFFFFFFFFFFFFFFFFFFFFFFFFFFFFFF AND DUP2 JUMP JUMPDEST PUSH1 0x0 DUP1 PUSH1 0x0 DUP1 PUSH3 0x15180 PUSH1 0xD SLOAD PUSH2 0x129A SWAP2 SWAP1 PUSH2 0x29CF JUMP JUMPDEST SWAP1 POP PUSH1 0x0 PUSH3 0x15180 PUSH1 0xC SLOAD TIMESTAMP PUSH2 0x12B0 SWAP2 SWAP1 PUSH2 0x2A5A JUMP JUMPDEST PUSH2 0x12BA SWAP2 SWAP1 PUSH2 0x29CF JUMP JUMPDEST SWAP1 POP PUSH1 0x0 DUP2 EQ ISZERO PUSH2 0x12E4 JUMPI PUSH1 0x17 PUSH1 0x0 DUP1 DUP2 MSTORE PUSH1 0x20 ADD SWAP1 DUP2 MSTORE PUSH1 0x20 ADD PUSH1 0x0 KECCAK256 SLOAD SWAP5 POP POP POP POP POP PUSH2 0x1337 JUMP JUMPDEST DUP2 DUP2 PUSH2 0x12F0 SWAP2 SWAP1 PUSH2 0x2A5A JUMP JUMPDEST SWAP3 POP JUMPDEST DUP1 DUP4 LT ISZERO PUSH2 0x132F JUMPI PUSH1 0x17 PUSH1 0x0 DUP5 DUP2 MSTORE PUSH1 0x20 ADD SWAP1 DUP2 MSTORE PUSH1 0x20 ADD PUSH1 0x0 KECCAK256 SLOAD DUP5 PUSH2 0x131A SWAP2 SWAP1 PUSH2 0x2979 JUMP JUMPDEST SWAP4 POP DUP3 DUP1 PUSH2 0x1327 SWAP1 PUSH2 0x2B8C JUMP JUMPDEST SWAP4 POP POP PUSH2 0x12F3 JUMP JUMPDEST DUP4 SWAP5 POP POP POP POP POP JUMPDEST SWAP1 JUMP JUMPDEST PUSH1 0x2 PUSH1 0x0 SLOAD EQ ISZERO PUSH2 0x1380 JUMPI PUSH1 0x40 MLOAD PUSH32 0x8C379A000000000000000000000000000000000000000000000000000000000 DUP2 MSTORE PUSH1 0x4 ADD PUSH2 0x1377 SWAP1 PUSH2 0x2878 JUMP JUMPDEST PUSH1 0x40 MLOAD DUP1 SWAP2 SUB SWAP1 REVERT JUMPDEST PUSH1 0x2 PUSH1 0x0 DUP2 SWAP1 SSTORE POP PUSH1 0x1A DUP2 PUSH1 0x40 MLOAD PUSH2 0x1398 SWAP2 SWAP1 PUSH2 0x2710 JUMP JUMPDEST SWAP1 DUP2 MSTORE PUSH1 0x20 ADD PUSH1 0x40 MLOAD DUP1 SWAP2 SUB SWAP1 KECCAK256 PUSH1 0x0 ADD PUSH1 0x0 SWAP1 SLOAD SWAP1 PUSH2 0x100 EXP SWAP1 DIV PUSH20 0xFFFFFFFFFFFFFFFFFFFFFFFFFFFFFFFFFFFFFFFF AND PUSH1 0x16 PUSH1 0x0 PUSH2 0x100 EXP DUP2 SLOAD DUP2 PUSH20 0xFFFFFFFFFFFFFFFFFFFFFFFFFFFFFFFFFFFFFFFF MUL NOT AND SWAP1 DUP4 PUSH20 0xFFFFFFFFFFFFFFFFFFFFFFFFFFFFFFFFFFFFFFFF AND MUL OR SWAP1 SSTORE POP PUSH3 0x3D090 DUP3 GT ISZERO PUSH2 0x1450 JUMPI PUSH1 0x40 MLOAD PUSH32 0x8C379A000000000000000000000000000000000000000000000000000000000 DUP2 MSTORE PUSH1 0x4 ADD PUSH2 0x1447 SWAP1 PUSH2 0x2838 JUMP JUMPDEST PUSH1 0x40 MLOAD DUP1 SWAP2 SUB SWAP1 REVERT JUMPDEST PUSH1 0x0 PUSH1 0x16 PUSH1 0x0 SWAP1 SLOAD SWAP1 PUSH2 0x100 EXP SWAP1 DIV PUSH20 0xFFFFFFFFFFFFFFFFFFFFFFFFFFFFFFFFFFFFFFFF AND PUSH20 0xFFFFFFFFFFFFFFFFFFFFFFFFFFFFFFFFFFFFFFFF AND PUSH4 0x70A08231 CALLER PUSH1 0x40 MLOAD DUP3 PUSH4 0xFFFFFFFF AND PUSH1 0xE0 SHL DUP2 MSTORE PUSH1 0x4 ADD PUSH2 0x14AD SWAP2 SWAP1 PUSH2 0x2727 JUMP JUMPDEST PUSH1 0x20 PUSH1 0x40 MLOAD DUP1 DUP4 SUB DUP2 DUP7 DUP1 EXTCODESIZE ISZERO DUP1 ISZERO PUSH2 0x14C5 JUMPI PUSH1 0x0 DUP1 REVERT JUMPDEST POP GAS STATICCALL ISZERO DUP1 ISZERO PUSH2 0x14D9 JUMPI RETURNDATASIZE PUSH1 0x0 DUP1 RETURNDATACOPY RETURNDATASIZE PUSH1 0x0 REVERT JUMPDEST POP POP POP POP PUSH1 0x40 MLOAD RETURNDATASIZE PUSH1 0x1F NOT PUSH1 0x1F DUP3 ADD AND DUP3 ADD DUP1 PUSH1 0x40 MSTORE POP DUP2 ADD SWAP1 PUSH2 0x14FD SWAP2 SWAP1 PUSH2 0x24B6 JUMP JUMPDEST SWAP1 POP DUP3 DUP2 GT PUSH2 0x1541 JUMPI PUSH1 0x40 MLOAD PUSH32 0x8C379A000000000000000000000000000000000000000000000000000000000 DUP2 MSTORE PUSH1 0x4 ADD PUSH2 0x1538 SWAP1 PUSH2 0x2818 JUMP JUMPDEST PUSH1 0x40 MLOAD DUP1 SWAP2 SUB SWAP1 REVERT JUMPDEST PUSH1 0x0 PUSH1 0x1A DUP4 PUSH1 0x40 MLOAD PUSH2 0x1553 SWAP2 SWAP1 PUSH2 0x2710 JUMP JUMPDEST SWAP1 DUP2 MSTORE PUSH1 0x20 ADD PUSH1 0x40 MLOAD DUP1 SWAP2 SUB SWAP1 KECCAK256 PUSH1 0x1 ADD SLOAD PUSH2 0x15EC DUP6 ADDRESS PUSH20 0xFFFFFFFFFFFFFFFFFFFFFFFFFFFFFFFFFFFFFFFF AND PUSH4 0x18A25E8 PUSH1 0x40 MLOAD DUP2 PUSH4 0xFFFFFFFF AND PUSH1 0xE0 SHL DUP2 MSTORE PUSH1 0x4 ADD PUSH1 0x20 PUSH1 0x40 MLOAD DUP1 DUP4 SUB DUP2 DUP7 DUP1 EXTCODESIZE ISZERO DUP1 ISZERO PUSH2 0x15AF JUMPI PUSH1 0x0 DUP1 REVERT JUMPDEST POP GAS STATICCALL ISZERO DUP1 ISZERO PUSH2 0x15C3 JUMPI RETURNDATASIZE PUSH1 0x0 DUP1 RETURNDATACOPY RETURNDATASIZE PUSH1 0x0 REVERT JUMPDEST POP POP POP POP PUSH1 0x40 MLOAD RETURNDATASIZE PUSH1 0x1F NOT PUSH1 0x1F DUP3 ADD AND DUP3 ADD DUP1 PUSH1 0x40 MSTORE POP DUP2 ADD SWAP1 PUSH2 0x15E7 SWAP2 SWAP1 PUSH2 0x24B6 JUMP JUMPDEST PUSH2 0x201A JUMP JUMPDEST PUSH2 0x15F6 SWAP2 SWAP1 PUSH2 0x2A00 JUMP JUMPDEST SWAP1 POP PUSH2 0x1626 PUSH1 0x16 PUSH1 0x0 SWAP1 SLOAD SWAP1 PUSH2 0x100 EXP SWAP1 DIV PUSH20 0xFFFFFFFFFFFFFFFFFFFFFFFFFFFFFFFFFFFFFFFF AND CALLER ADDRESS DUP5 PUSH2 0x20A4 JUMP JUMPDEST PUSH1 0x13 PUSH1 0x0 SWAP1 SLOAD SWAP1 PUSH2 0x100 EXP SWAP1 DIV PUSH20 0xFFFFFFFFFFFFFFFFFFFFFFFFFFFFFFFFFFFFFFFF AND PUSH20 0xFFFFFFFFFFFFFFFFFFFFFFFFFFFFFFFFFFFFFFFF AND PUSH4 0x40C10F19 CALLER PUSH8 0xDE0B6B3A7640000 DUP8 PUSH2 0x1679 SWAP2 SWAP1 PUSH2 0x2A00 JUMP JUMPDEST PUSH1 0x40 MLOAD DUP4 PUSH4 0xFFFFFFFF AND PUSH1 0xE0 SHL DUP2 MSTORE PUSH1 0x4 ADD PUSH2 0x1696 SWAP3 SWAP2 SWAP1 PUSH2 0x2779 JUMP JUMPDEST PUSH1 0x0 PUSH1 0x40 MLOAD DUP1 DUP4 SUB DUP2 PUSH1 0x0 DUP8 DUP1 EXTCODESIZE ISZERO DUP1 ISZERO PUSH2 0x16B0 JUMPI PUSH1 0x0 DUP1 REVERT JUMPDEST POP GAS CALL ISZERO DUP1 ISZERO PUSH2 0x16C4 JUMPI RETURNDATASIZE PUSH1 0x0 DUP1 RETURNDATACOPY RETURNDATASIZE PUSH1 0x0 REVERT JUMPDEST POP POP POP POP PUSH1 0x0 PUSH3 0x15180 PUSH1 0xC SLOAD TIMESTAMP PUSH2 0x16DC SWAP2 SWAP1 PUSH2 0x2A5A JUMP JUMPDEST PUSH2 0x16E6 SWAP2 SWAP1 PUSH2 0x29CF JUMP JUMPDEST SWAP1 POP DUP5 PUSH1 0x17 PUSH1 0x0 DUP4 DUP2 MSTORE PUSH1 0x20 ADD SWAP1 DUP2 MSTORE PUSH1 0x20 ADD PUSH1 0x0 KECCAK256 PUSH1 0x0 DUP3 DUP3 SLOAD PUSH2 0x170B SWAP2 SWAP1 PUSH2 0x2979 JUMP JUMPDEST SWAP3 POP POP DUP2 SWAP1 SSTORE POP DUP5 PUSH1 0x19 PUSH1 0x0 DUP4 DUP2 MSTORE PUSH1 0x20 ADD SWAP1 DUP2 MSTORE PUSH1 0x20 ADD PUSH1 0x0 KECCAK256 PUSH1 0x0 DUP3 DUP3 SLOAD PUSH2 0x1735 SWAP2 SWAP1 PUSH2 0x2979 JUMP JUMPDEST SWAP3 POP POP DUP2 SWAP1 SSTORE POP CALLER PUSH20 0xFFFFFFFFFFFFFFFFFFFFFFFFFFFFFFFFFFFFFFFF AND PUSH32 0xF633443B01504D269657083D48BB6DE98E089CFFF672B47FEFBED21608B5C779 DUP7 PUSH1 0x40 MLOAD PUSH2 0x1782 SWAP2 SWAP1 PUSH2 0x28B8 JUMP JUMPDEST PUSH1 0x40 MLOAD DUP1 SWAP2 SUB SWAP1 LOG2 POP POP POP PUSH1 0x1 PUSH1 0x0 DUP2 SWAP1 SSTORE POP POP POP JUMP JUMPDEST PUSH1 0x0 DUP1 PUSH1 0x0 DUP1 PUSH3 0x15180 PUSH1 0xD SLOAD PUSH2 0x17B0 SWAP2 SWAP1 PUSH2 0x29CF JUMP JUMPDEST SWAP1 POP PUSH1 0x0 PUSH3 0x15180 PUSH1 0xC SLOAD TIMESTAMP PUSH2 0x17C6 SWAP2 SWAP1 PUSH2 0x2A5A JUMP JUMPDEST PUSH2 0x17D0 SWAP2 SWAP1 PUSH2 0x29CF JUMP JUMPDEST SWAP1 POP PUSH1 0x0 DUP1 DUP3 EQ ISZERO PUSH2 0x17F7 JUMPI PUSH1 0x19 PUSH1 0x0 DUP1 DUP2 MSTORE PUSH1 0x20 ADD SWAP1 DUP2 MSTORE PUSH1 0x20 ADD PUSH1 0x0 KECCAK256 SLOAD SWAP4 POP PUSH2 0x1843 JUMP JUMPDEST DUP3 DUP3 PUSH2 0x1803 SWAP2 SWAP1 PUSH2 0x2A5A JUMP JUMPDEST SWAP1 POP JUMPDEST DUP2 DUP2 LT ISZERO PUSH2 0x1842 JUMPI PUSH1 0x19 PUSH1 0x0 DUP3 DUP2 MSTORE PUSH1 0x20 ADD SWAP1 DUP2 MSTORE PUSH1 0x20 ADD PUSH1 0x0 KECCAK256 SLOAD DUP5 PUSH2 0x182D SWAP2 SWAP1 PUSH2 0x2979 JUMP JUMPDEST SWAP4 POP DUP1 DUP1 PUSH2 0x183A SWAP1 PUSH2 0x2B8C JUMP JUMPDEST SWAP2 POP POP PUSH2 0x1806 JUMP JUMPDEST JUMPDEST PUSH2 0x18CA ADDRESS PUSH20 0xFFFFFFFFFFFFFFFFFFFFFFFFFFFFFFFFFFFFFFFF AND PUSH4 0x71CD58F9 PUSH1 0x40 MLOAD DUP2 PUSH4 0xFFFFFFFF AND PUSH1 0xE0 SHL DUP2 MSTORE PUSH1 0x4 ADD PUSH1 0x20 PUSH1 0x40 MLOAD DUP1 DUP4 SUB DUP2 DUP7 DUP1 EXTCODESIZE ISZERO DUP1 ISZERO PUSH2 0x188C JUMPI PUSH1 0x0 DUP1 REVERT JUMPDEST POP GAS STATICCALL ISZERO DUP1 ISZERO PUSH2 0x18A0 JUMPI RETURNDATASIZE PUSH1 0x0 DUP1 RETURNDATACOPY RETURNDATASIZE PUSH1 0x0 REVERT JUMPDEST POP POP POP POP PUSH1 0x40 MLOAD RETURNDATASIZE PUSH1 0x1F NOT PUSH1 0x1F DUP3 ADD AND DUP3 ADD DUP1 PUSH1 0x40 MSTORE POP DUP2 ADD SWAP1 PUSH2 0x18C4 SWAP2 SWAP1 PUSH2 0x24B6 JUMP JUMPDEST DUP6 PUSH2 0x2063 JUMP JUMPDEST SWAP5 POP PUSH8 0x429D069189E0000 DUP6 GT ISZERO PUSH2 0x18E8 JUMPI PUSH8 0x429D069189E0000 SWAP5 POP JUMPDEST DUP5 SWAP6 POP POP POP POP POP POP SWAP1 JUMP JUMPDEST POP JUMP JUMPDEST PUSH1 0x1A DUP2 DUP1 MLOAD PUSH1 0x20 DUP2 ADD DUP3 ADD DUP1 MLOAD DUP5 DUP3 MSTORE PUSH1 0x20 DUP4 ADD PUSH1 0x20 DUP6 ADD KECCAK256 DUP2 DUP4 MSTORE DUP1 SWAP6 POP POP POP POP POP POP PUSH1 0x0 SWAP2 POP SWAP1 POP DUP1 PUSH1 0x0 ADD PUSH1 0x0 SWAP1 SLOAD SWAP1 PUSH2 0x100 EXP SWAP1 DIV PUSH20 0xFFFFFFFFFFFFFFFFFFFFFFFFFFFFFFFFFFFFFFFF AND SWAP1 DUP1 PUSH1 0x1 ADD SLOAD SWAP1 POP DUP3 JUMP JUMPDEST PUSH1 0x1B PUSH1 0x0 DUP4 PUSH20 0xFFFFFFFFFFFFFFFFFFFFFFFFFFFFFFFFFFFFFFFF AND PUSH20 0xFFFFFFFFFFFFFFFFFFFFFFFFFFFFFFFFFFFFFFFF AND DUP2 MSTORE PUSH1 0x20 ADD SWAP1 DUP2 MSTORE PUSH1 0x20 ADD PUSH1 0x0 KECCAK256 PUSH1 0x0 ADD SLOAD TIMESTAMP LT ISZERO PUSH2 0x19D5 JUMPI PUSH1 0x40 MLOAD PUSH32 0x8C379A000000000000000000000000000000000000000000000000000000000 DUP2 MSTORE PUSH1 0x4 ADD PUSH2 0x19CC SWAP1 PUSH2 0x2858 JUMP JUMPDEST PUSH1 0x40 MLOAD DUP1 SWAP2 SUB SWAP1 REVERT JUMPDEST PUSH1 0x1A DUP2 PUSH1 0x40 MLOAD PUSH2 0x19E5 SWAP2 SWAP1 PUSH2 0x2710 JUMP JUMPDEST SWAP1 DUP2 MSTORE PUSH1 0x20 ADD PUSH1 0x40 MLOAD DUP1 SWAP2 SUB SWAP1 KECCAK256 PUSH1 0x0 ADD PUSH1 0x0 SWAP1 SLOAD SWAP1 PUSH2 0x100 EXP SWAP1 DIV PUSH20 0xFFFFFFFFFFFFFFFFFFFFFFFFFFFFFFFFFFFFFFFF AND PUSH1 0x16 PUSH1 0x0 PUSH2 0x100 EXP DUP2 SLOAD DUP2 PUSH20 0xFFFFFFFFFFFFFFFFFFFFFFFFFFFFFFFFFFFFFFFF MUL NOT AND SWAP1 DUP4 PUSH20 0xFFFFFFFFFFFFFFFFFFFFFFFFFFFFFFFFFFFFFFFF AND MUL OR SWAP1 SSTORE POP PUSH1 0x0 PUSH1 0x1B PUSH1 0x0 DUP5 PUSH20 0xFFFFFFFFFFFFFFFFFFFFFFFFFFFFFFFFFFFFFFFF AND PUSH20 0xFFFFFFFFFFFFFFFFFFFFFFFFFFFFFFFFFFFFFFFF AND DUP2 MSTORE PUSH1 0x20 ADD SWAP1 DUP2 MSTORE PUSH1 0x20 ADD PUSH1 0x0 KECCAK256 PUSH1 0x1 ADD SLOAD SWAP1 POP PUSH2 0x1ACC PUSH1 0x16 PUSH1 0x0 SWAP1 SLOAD SWAP1 PUSH2 0x100 EXP SWAP1 DIV PUSH20 0xFFFFFFFFFFFFFFFFFFFFFFFFFFFFFFFFFFFFFFFF AND ADDRESS CALLER DUP5 PUSH2 0x20A4 JUMP JUMPDEST POP POP POP JUMP JUMPDEST PUSH1 0x8 PUSH1 0x0 SWAP1 SLOAD SWAP1 PUSH2 0x100 EXP SWAP1 DIV PUSH20 0xFFFFFFFFFFFFFFFFFFFFFFFFFFFFFFFFFFFFFFFF AND DUP2 JUMP JUMPDEST PUSH1 0x15 PUSH1 0x0 SWAP1 SLOAD SWAP1 PUSH2 0x100 EXP SWAP1 DIV PUSH20 0xFFFFFFFFFFFFFFFFFFFFFFFFFFFFFFFFFFFFFFFF AND DUP2 JUMP JUMPDEST PUSH1 0x1A DUP2 PUSH1 0x40 MLOAD PUSH2 0x1B2D SWAP2 SWAP1 PUSH2 0x2710 JUMP JUMPDEST SWAP1 DUP2 MSTORE PUSH1 0x20 ADD PUSH1 0x40 MLOAD DUP1 SWAP2 SUB SWAP1 KECCAK256 PUSH1 0x0 ADD PUSH1 0x0 SWAP1 SLOAD SWAP1 PUSH2 0x100 EXP SWAP1 DIV PUSH20 0xFFFFFFFFFFFFFFFFFFFFFFFFFFFFFFFFFFFFFFFF AND PUSH1 0x16 PUSH1 0x0 PUSH2 0x100 EXP DUP2 SLOAD DUP2 PUSH20 0xFFFFFFFFFFFFFFFFFFFFFFFFFFFFFFFFFFFFFFFF MUL NOT AND SWAP1 DUP4 PUSH20 0xFFFFFFFFFFFFFFFFFFFFFFFFFFFFFFFFFFFFFFFF AND MUL OR SWAP1 SSTORE POP PUSH1 0x0 PUSH1 0x13 PUSH1 0x0 SWAP1 SLOAD SWAP1 PUSH2 0x100 EXP SWAP1 DIV PUSH20 0xFFFFFFFFFFFFFFFFFFFFFFFFFFFFFFFFFFFFFFFF AND PUSH20 0xFFFFFFFFFFFFFFFFFFFFFFFFFFFFFFFFFFFFFFFF AND PUSH4 0x70A08231 CALLER PUSH1 0x40 MLOAD DUP3 PUSH4 0xFFFFFFFF AND PUSH1 0xE0 SHL DUP2 MSTORE PUSH1 0x4 ADD PUSH2 0x1BFC SWAP2 SWAP1 PUSH2 0x2727 JUMP JUMPDEST PUSH1 0x20 PUSH1 0x40 MLOAD DUP1 DUP4 SUB DUP2 DUP7 DUP1 EXTCODESIZE ISZERO DUP1 ISZERO PUSH2 0x1C14 JUMPI PUSH1 0x0 DUP1 REVERT JUMPDEST POP GAS STATICCALL ISZERO DUP1 ISZERO PUSH2 0x1C28 JUMPI RETURNDATASIZE PUSH1 0x0 DUP1 RETURNDATACOPY RETURNDATASIZE PUSH1 0x0 REVERT JUMPDEST POP POP POP POP PUSH1 0x40 MLOAD RETURNDATASIZE PUSH1 0x1F NOT PUSH1 0x1F DUP3 ADD AND DUP3 ADD DUP1 PUSH1 0x40 MSTORE POP DUP2 ADD SWAP1 PUSH2 0x1C4C SWAP2 SWAP1 PUSH2 0x24B6 JUMP JUMPDEST SWAP1 POP DUP4 DUP2 GT PUSH2 0x1C90 JUMPI PUSH1 0x40 MLOAD PUSH32 0x8C379A000000000000000000000000000000000000000000000000000000000 DUP2 MSTORE PUSH1 0x4 ADD PUSH2 0x1C87 SWAP1 PUSH2 0x2818 JUMP JUMPDEST PUSH1 0x40 MLOAD DUP1 SWAP2 SUB SWAP1 REVERT JUMPDEST PUSH1 0x16 PUSH1 0x0 SWAP1 SLOAD SWAP1 PUSH2 0x100 EXP SWAP1 DIV PUSH20 0xFFFFFFFFFFFFFFFFFFFFFFFFFFFFFFFFFFFFFFFF AND PUSH20 0xFFFFFFFFFFFFFFFFFFFFFFFFFFFFFFFFFFFFFFFF AND PUSH4 0xA9059CBB CALLER PUSH8 0xDE0B6B3A7640000 PUSH1 0x1 PUSH2 0x1CE4 SWAP2 SWAP1 PUSH2 0x2A00 JUMP JUMPDEST DUP8 PUSH2 0x1CEF SWAP2 SWAP1 PUSH2 0x2979 JUMP JUMPDEST PUSH1 0x40 MLOAD DUP4 PUSH4 0xFFFFFFFF AND PUSH1 0xE0 SHL DUP2 MSTORE PUSH1 0x4 ADD PUSH2 0x1D0C SWAP3 SWAP2 SWAP1 PUSH2 0x2779 JUMP JUMPDEST PUSH1 0x20 PUSH1 0x40 MLOAD DUP1 DUP4 SUB DUP2 PUSH1 0x0 DUP8 DUP1 EXTCODESIZE ISZERO DUP1 ISZERO PUSH2 0x1D26 JUMPI PUSH1 0x0 DUP1 REVERT JUMPDEST POP GAS CALL ISZERO DUP1 ISZERO PUSH2 0x1D3A JUMPI RETURNDATASIZE PUSH1 0x0 DUP1 RETURNDATACOPY RETURNDATASIZE PUSH1 0x0 REVERT JUMPDEST POP POP POP POP PUSH1 0x40 MLOAD RETURNDATASIZE PUSH1 0x1F NOT PUSH1 0x1F DUP3 ADD AND DUP3 ADD DUP1 PUSH1 0x40 MSTORE POP DUP2 ADD SWAP1 PUSH2 0x1D5E SWAP2 SWAP1 PUSH2 0x23A4 JUMP JUMPDEST POP PUSH2 0x1D8D PUSH1 0x13 PUSH1 0x0 SWAP1 SLOAD SWAP1 PUSH2 0x100 EXP SWAP1 DIV PUSH20 0xFFFFFFFFFFFFFFFFFFFFFFFFFFFFFFFFFFFFFFFF AND CALLER ADDRESS DUP8 PUSH2 0x20A4 JUMP JUMPDEST PUSH1 0x0 DUP5 ADDRESS PUSH20 0xFFFFFFFFFFFFFFFFFFFFFFFFFFFFFFFFFFFFFFFF AND PUSH4 0x43D32E9C PUSH1 0x40 MLOAD DUP2 PUSH4 0xFFFFFFFF AND PUSH1 0xE0 SHL DUP2 MSTORE PUSH1 0x4 ADD PUSH1 0x20 PUSH1 0x40 MLOAD DUP1 DUP4 SUB DUP2 DUP7 DUP1 EXTCODESIZE ISZERO DUP1 ISZERO PUSH2 0x1DD6 JUMPI PUSH1 0x0 DUP1 REVERT JUMPDEST POP GAS STATICCALL ISZERO DUP1 ISZERO PUSH2 0x1DEA JUMPI RETURNDATASIZE PUSH1 0x0 DUP1 RETURNDATACOPY RETURNDATASIZE PUSH1 0x0 REVERT JUMPDEST POP POP POP POP PUSH1 0x40 MLOAD RETURNDATASIZE PUSH1 0x1F NOT PUSH1 0x1F DUP3 ADD AND DUP3 ADD DUP1 PUSH1 0x40 MSTORE POP DUP2 ADD SWAP1 PUSH2 0x1E0E SWAP2 SWAP1 PUSH2 0x24B6 JUMP JUMPDEST PUSH2 0x1E18 SWAP2 SWAP1 PUSH2 0x2A00 JUMP JUMPDEST SWAP1 POP PUSH1 0x0 PUSH3 0x15180 PUSH1 0xC SLOAD TIMESTAMP PUSH2 0x1E2E SWAP2 SWAP1 PUSH2 0x2A5A JUMP JUMPDEST PUSH2 0x1E38 SWAP2 SWAP1 PUSH2 0x29CF JUMP JUMPDEST SWAP1 POP DUP6 PUSH1 0x18 PUSH1 0x0 DUP4 DUP2 MSTORE PUSH1 0x20 ADD SWAP1 DUP2 MSTORE PUSH1 0x20 ADD PUSH1 0x0 KECCAK256 PUSH1 0x0 DUP3 DUP3 SLOAD PUSH2 0x1E5D SWAP2 SWAP1 PUSH2 0x2979 JUMP JUMPDEST SWAP3 POP POP DUP2 SWAP1 SSTORE POP DUP6 PUSH1 0x19 PUSH1 0x0 DUP4 DUP2 MSTORE PUSH1 0x20 ADD SWAP1 DUP2 MSTORE PUSH1 0x20 ADD PUSH1 0x0 KECCAK256 PUSH1 0x0 DUP3 DUP3 SLOAD PUSH2 0x1E87 SWAP2 SWAP1 PUSH2 0x2A5A JUMP JUMPDEST SWAP3 POP POP DUP2 SWAP1 SSTORE POP POP POP POP POP POP POP JUMP JUMPDEST PUSH1 0x2 SLOAD DUP2 JUMP JUMPDEST PUSH1 0x14 PUSH1 0x0 SWAP1 SLOAD SWAP1 PUSH2 0x100 EXP SWAP1 DIV PUSH20 0xFFFFFFFFFFFFFFFFFFFFFFFFFFFFFFFFFFFFFFFF AND DUP2 JUMP JUMPDEST PUSH1 0x0 DUP1 PUSH1 0x0 DUP1 PUSH3 0x15180 PUSH1 0xD SLOAD PUSH2 0x1ED9 SWAP2 SWAP1 PUSH2 0x29CF JUMP JUMPDEST SWAP1 POP PUSH1 0x0 SWAP2 POP JUMPDEST DUP1 DUP3 LT ISZERO PUSH2 0x1F1C JUMPI PUSH1 0x18 PUSH1 0x0 DUP4 DUP2 MSTORE PUSH1 0x20 ADD SWAP1 DUP2 MSTORE PUSH1 0x20 ADD PUSH1 0x0 KECCAK256 SLOAD DUP4 PUSH2 0x1F07 SWAP2 SWAP1 PUSH2 0x2979 JUMP JUMPDEST SWAP3 POP DUP2 DUP1 PUSH2 0x1F14 SWAP1 PUSH2 0x2B8C JUMP JUMPDEST SWAP3 POP POP PUSH2 0x1EE0 JUMP JUMPDEST DUP3 SWAP4 POP POP POP POP SWAP1 JUMP JUMPDEST DUP2 PUSH1 0x1A DUP5 PUSH1 0x40 MLOAD PUSH2 0x1F36 SWAP2 SWAP1 PUSH2 0x2710 JUMP JUMPDEST SWAP1 DUP2 MSTORE PUSH1 0x20 ADD PUSH1 0x40 MLOAD DUP1 SWAP2 SUB SWAP1 KECCAK256 PUSH1 0x0 ADD PUSH1 0x0 PUSH2 0x100 EXP DUP2 SLOAD DUP2 PUSH20 0xFFFFFFFFFFFFFFFFFFFFFFFFFFFFFFFFFFFFFFFF MUL NOT AND SWAP1 DUP4 PUSH20 0xFFFFFFFFFFFFFFFFFFFFFFFFFFFFFFFFFFFFFFFF AND MUL OR SWAP1 SSTORE POP DUP1 PUSH1 0x1A DUP5 PUSH1 0x40 MLOAD PUSH2 0x1F96 SWAP2 SWAP1 PUSH2 0x2710 JUMP JUMPDEST SWAP1 DUP2 MSTORE PUSH1 0x20 ADD PUSH1 0x40 MLOAD DUP1 SWAP2 SUB SWAP1 KECCAK256 PUSH1 0x1 ADD DUP2 SWAP1 SSTORE POP POP POP POP JUMP JUMPDEST PUSH1 0x1 SLOAD DUP2 JUMP JUMPDEST PUSH1 0x12 PUSH1 0x0 SWAP1 SLOAD SWAP1 PUSH2 0x100 EXP SWAP1 DIV PUSH20 0xFFFFFFFFFFFFFFFFFFFFFFFFFFFFFFFFFFFFFFFF AND DUP2 JUMP JUMPDEST PUSH1 0x7 PUSH1 0x0 SWAP1 SLOAD SWAP1 PUSH2 0x100 EXP SWAP1 DIV PUSH20 0xFFFFFFFFFFFFFFFFFFFFFFFFFFFFFFFFFFFFFFFF AND DUP2 JUMP JUMPDEST PUSH3 0x15180 DUP2 PUSH2 0x2011 SWAP2 SWAP1 PUSH2 0x2A00 JUMP JUMPDEST PUSH1 0xD DUP2 SWAP1 SSTORE POP POP JUMP JUMPDEST PUSH1 0x0 DUP1 PUSH2 0x2027 DUP5 DUP5 PUSH2 0x217E JUMP JUMPDEST SWAP1 POP PUSH8 0xDE0B6B3A7640000 PUSH2 0x2050 DUP3 PUSH1 0x2 PUSH8 0xDE0B6B3A7640000 PUSH2 0x204B SWAP2 SWAP1 PUSH2 0x29CF JUMP JUMPDEST PUSH2 0x21F9 JUMP JUMPDEST PUSH2 0x205A SWAP2 SWAP1 PUSH2 0x29CF JUMP JUMPDEST SWAP2 POP POP SWAP3 SWAP2 POP POP JUMP JUMPDEST PUSH1 0x0 DUP1 PUSH2 0x2078 DUP5 PUSH8 0xDE0B6B3A7640000 PUSH2 0x217E JUMP JUMPDEST SWAP1 POP DUP3 PUSH2 0x2091 DUP3 PUSH1 0x2 DUP7 PUSH2 0x208C SWAP2 SWAP1 PUSH2 0x29CF JUMP JUMPDEST PUSH2 0x21F9 JUMP JUMPDEST PUSH2 0x209B SWAP2 SWAP1 PUSH2 0x29CF JUMP JUMPDEST SWAP2 POP POP SWAP3 SWAP2 POP POP JUMP JUMPDEST PUSH1 0x0 DUP5 PUSH20 0xFFFFFFFFFFFFFFFFFFFFFFFFFFFFFFFFFFFFFFFF AND PUSH4 0x23B872DD DUP6 DUP6 DUP6 PUSH1 0x40 MLOAD DUP5 PUSH4 0xFFFFFFFF AND PUSH1 0xE0 SHL DUP2 MSTORE PUSH1 0x4 ADD PUSH2 0x20E3 SWAP4 SWAP3 SWAP2 SWAP1 PUSH2 0x2742 JUMP JUMPDEST PUSH1 0x20 PUSH1 0x40 MLOAD DUP1 DUP4 SUB DUP2 PUSH1 0x0 DUP8 DUP1 EXTCODESIZE ISZERO DUP1 ISZERO PUSH2 0x20FD JUMPI PUSH1 0x0 DUP1 REVERT JUMPDEST POP GAS CALL ISZERO DUP1 ISZERO PUSH2 0x2111 JUMPI RETURNDATASIZE PUSH1 0x0 DUP1 RETURNDATACOPY RETURNDATASIZE PUSH1 0x0 REVERT JUMPDEST POP POP POP POP PUSH1 0x40 MLOAD RETURNDATASIZE PUSH1 0x1F NOT PUSH1 0x1F DUP3 ADD AND DUP3 ADD DUP1 PUSH1 0x40 MSTORE POP DUP2 ADD SWAP1 PUSH2 0x2135 SWAP2 SWAP1 PUSH2 0x23A4 JUMP JUMPDEST SWAP1 POP DUP1 PUSH2 0x2177 JUMPI PUSH1 0x40 MLOAD PUSH32 0x8C379A000000000000000000000000000000000000000000000000000000000 DUP2 MSTORE PUSH1 0x4 ADD PUSH2 0x216E SWAP1 PUSH2 0x27F8 JUMP JUMPDEST PUSH1 0x40 MLOAD DUP1 SWAP2 SUB SWAP1 REVERT JUMPDEST POP POP POP POP POP JUMP JUMPDEST PUSH1 0x0 DUP1 DUP4 EQ ISZERO PUSH2 0x2191 JUMPI PUSH1 0x0 SWAP1 POP PUSH2 0x21F3 JUMP JUMPDEST PUSH1 0x0 DUP3 DUP5 PUSH2 0x219F SWAP2 SWAP1 PUSH2 0x2A00 JUMP JUMPDEST SWAP1 POP DUP3 DUP5 DUP3 PUSH2 0x21AE SWAP2 SWAP1 PUSH2 0x29CF JUMP JUMPDEST EQ PUSH2 0x21EE JUMPI PUSH1 0x40 MLOAD PUSH32 0x8C379A000000000000000000000000000000000000000000000000000000000 DUP2 MSTORE PUSH1 0x4 ADD PUSH2 0x21E5 SWAP1 PUSH2 0x2898 JUMP JUMPDEST PUSH1 0x40 MLOAD DUP1 SWAP2 SUB SWAP1 REVERT JUMPDEST DUP1 SWAP2 POP POP JUMPDEST SWAP3 SWAP2 POP POP JUMP JUMPDEST PUSH1 0x0 DUP1 DUP3 DUP5 PUSH2 0x2208 SWAP2 SWAP1 PUSH2 0x2979 JUMP JUMPDEST SWAP1 POP DUP4 DUP2 LT ISZERO PUSH2 0x224D JUMPI PUSH1 0x40 MLOAD PUSH32 0x8C379A000000000000000000000000000000000000000000000000000000000 DUP2 MSTORE PUSH1 0x4 ADD PUSH2 0x2244 SWAP1 PUSH2 0x2898 JUMP JUMPDEST PUSH1 0x40 MLOAD DUP1 SWAP2 SUB SWAP1 REVERT JUMPDEST DUP1 SWAP2 POP POP SWAP3 SWAP2 POP POP JUMP JUMPDEST PUSH1 0x0 PUSH2 0x226A PUSH2 0x2265 DUP5 PUSH2 0x2921 JUMP JUMPDEST PUSH2 0x28FC JUMP JUMPDEST SWAP1 POP DUP3 DUP2 MSTORE PUSH1 0x20 DUP2 ADD DUP5 DUP5 DUP5 ADD GT ISZERO PUSH2 0x2286 JUMPI PUSH2 0x2285 PUSH2 0x2C67 JUMP JUMPDEST JUMPDEST PUSH2 0x2291 DUP5 DUP3 DUP6 PUSH2 0x2B19 JUMP JUMPDEST POP SWAP4 SWAP3 POP POP POP JUMP JUMPDEST PUSH1 0x0 DUP2 CALLDATALOAD SWAP1 POP PUSH2 0x22A8 DUP2 PUSH2 0x2DF2 JUMP JUMPDEST SWAP3 SWAP2 POP POP JUMP JUMPDEST PUSH1 0x0 DUP2 MLOAD SWAP1 POP PUSH2 0x22BD DUP2 PUSH2 0x2E09 JUMP JUMPDEST SWAP3 SWAP2 POP POP JUMP JUMPDEST PUSH1 0x0 DUP3 PUSH1 0x1F DUP4 ADD SLT PUSH2 0x22D8 JUMPI PUSH2 0x22D7 PUSH2 0x2C62 JUMP JUMPDEST JUMPDEST DUP2 CALLDATALOAD PUSH2 0x22E8 DUP5 DUP3 PUSH1 0x20 DUP7 ADD PUSH2 0x2257 JUMP JUMPDEST SWAP2 POP POP SWAP3 SWAP2 POP POP JUMP JUMPDEST PUSH1 0x0 DUP2 CALLDATALOAD SWAP1 POP PUSH2 0x2300 DUP2 PUSH2 0x2E20 JUMP JUMPDEST SWAP3 SWAP2 POP POP JUMP JUMPDEST PUSH1 0x0 DUP2 MLOAD SWAP1 POP PUSH2 0x2315 DUP2 PUSH2 0x2E20 JUMP JUMPDEST SWAP3 SWAP2 POP POP JUMP JUMPDEST PUSH1 0x0 PUSH1 0x20 DUP3 DUP5 SUB SLT ISZERO PUSH2 0x2331 JUMPI PUSH2 0x2330 PUSH2 0x2C71 JUMP JUMPDEST JUMPDEST PUSH1 0x0 PUSH2 0x233F DUP5 DUP3 DUP6 ADD PUSH2 0x2299 JUMP JUMPDEST SWAP2 POP POP SWAP3 SWAP2 POP POP JUMP JUMPDEST PUSH1 0x0 DUP1 PUSH1 0x40 DUP4 DUP6 SUB SLT ISZERO PUSH2 0x235F JUMPI PUSH2 0x235E PUSH2 0x2C71 JUMP JUMPDEST JUMPDEST PUSH1 0x0 PUSH2 0x236D DUP6 DUP3 DUP7 ADD PUSH2 0x2299 JUMP JUMPDEST SWAP3 POP POP PUSH1 0x20 DUP4 ADD CALLDATALOAD PUSH8 0xFFFFFFFFFFFFFFFF DUP2 GT ISZERO PUSH2 0x238E JUMPI PUSH2 0x238D PUSH2 0x2C6C JUMP JUMPDEST JUMPDEST PUSH2 0x239A DUP6 DUP3 DUP7 ADD PUSH2 0x22C3 JUMP JUMPDEST SWAP2 POP POP SWAP3 POP SWAP3 SWAP1 POP JUMP JUMPDEST PUSH1 0x0 PUSH1 0x20 DUP3 DUP5 SUB SLT ISZERO PUSH2 0x23BA JUMPI PUSH2 0x23B9 PUSH2 0x2C71 JUMP JUMPDEST JUMPDEST PUSH1 0x0 PUSH2 0x23C8 DUP5 DUP3 DUP6 ADD PUSH2 0x22AE JUMP JUMPDEST SWAP2 POP POP SWAP3 SWAP2 POP POP JUMP JUMPDEST PUSH1 0x0 PUSH1 0x20 DUP3 DUP5 SUB SLT ISZERO PUSH2 0x23E7 JUMPI PUSH2 0x23E6 PUSH2 0x2C71 JUMP JUMPDEST JUMPDEST PUSH1 0x0 DUP3 ADD CALLDATALOAD PUSH8 0xFFFFFFFFFFFFFFFF DUP2 GT ISZERO PUSH2 0x2405 JUMPI PUSH2 0x2404 PUSH2 0x2C6C JUMP JUMPDEST JUMPDEST PUSH2 0x2411 DUP5 DUP3 DUP6 ADD PUSH2 0x22C3 JUMP JUMPDEST SWAP2 POP POP SWAP3 SWAP2 POP POP JUMP JUMPDEST PUSH1 0x0 DUP1 PUSH1 0x0 PUSH1 0x60 DUP5 DUP7 SUB SLT ISZERO PUSH2 0x2433 JUMPI PUSH2 0x2432 PUSH2 0x2C71 JUMP JUMPDEST JUMPDEST PUSH1 0x0 DUP5 ADD CALLDATALOAD PUSH8 0xFFFFFFFFFFFFFFFF DUP2 GT ISZERO PUSH2 0x2451 JUMPI PUSH2 0x2450 PUSH2 0x2C6C JUMP JUMPDEST JUMPDEST PUSH2 0x245D DUP7 DUP3 DUP8 ADD PUSH2 0x22C3 JUMP JUMPDEST SWAP4 POP POP PUSH1 0x20 PUSH2 0x246E DUP7 DUP3 DUP8 ADD PUSH2 0x2299 JUMP JUMPDEST SWAP3 POP POP PUSH1 0x40 PUSH2 0x247F DUP7 DUP3 DUP8 ADD PUSH2 0x22F1 JUMP JUMPDEST SWAP2 POP POP SWAP3 POP SWAP3 POP SWAP3 JUMP JUMPDEST PUSH1 0x0 PUSH1 0x20 DUP3 DUP5 SUB SLT ISZERO PUSH2 0x249F JUMPI PUSH2 0x249E PUSH2 0x2C71 JUMP JUMPDEST JUMPDEST PUSH1 0x0 PUSH2 0x24AD DUP5 DUP3 DUP6 ADD PUSH2 0x22F1 JUMP JUMPDEST SWAP2 POP POP SWAP3 SWAP2 POP POP JUMP JUMPDEST PUSH1 0x0 PUSH1 0x20 DUP3 DUP5 SUB SLT ISZERO PUSH2 0x24CC JUMPI PUSH2 0x24CB PUSH2 0x2C71 JUMP JUMPDEST JUMPDEST PUSH1 0x0 PUSH2 0x24DA DUP5 DUP3 DUP6 ADD PUSH2 0x2306 JUMP JUMPDEST SWAP2 POP POP SWAP3 SWAP2 POP POP JUMP JUMPDEST PUSH1 0x0 DUP1 PUSH1 0x40 DUP4 DUP6 SUB SLT ISZERO PUSH2 0x24FA JUMPI PUSH2 0x24F9 PUSH2 0x2C71 JUMP JUMPDEST JUMPDEST PUSH1 0x0 PUSH2 0x2508 DUP6 DUP3 DUP7 ADD PUSH2 0x22F1 JUMP JUMPDEST SWAP3 POP POP PUSH1 0x20 DUP4 ADD CALLDATALOAD PUSH8 0xFFFFFFFFFFFFFFFF DUP2 GT ISZERO PUSH2 0x2529 JUMPI PUSH2 0x2528 PUSH2 0x2C6C JUMP JUMPDEST JUMPDEST PUSH2 0x2535 DUP6 DUP3 DUP7 ADD PUSH2 0x22C3 JUMP JUMPDEST SWAP2 POP POP SWAP3 POP SWAP3 SWAP1 POP JUMP JUMPDEST PUSH1 0x0 DUP1 PUSH1 0x0 PUSH1 0x60 DUP5 DUP7 SUB SLT ISZERO PUSH2 0x2558 JUMPI PUSH2 0x2557 PUSH2 0x2C71 JUMP JUMPDEST JUMPDEST PUSH1 0x0 PUSH2 0x2566 DUP7 DUP3 DUP8 ADD PUSH2 0x22F1 JUMP JUMPDEST SWAP4 POP POP PUSH1 0x20 PUSH2 0x2577 DUP7 DUP3 DUP8 ADD PUSH2 0x22F1 JUMP JUMPDEST SWAP3 POP POP PUSH1 0x40 DUP5 ADD CALLDATALOAD PUSH8 0xFFFFFFFFFFFFFFFF DUP2 GT ISZERO PUSH2 0x2598 JUMPI PUSH2 0x2597 PUSH2 0x2C6C JUMP JUMPDEST JUMPDEST PUSH2 0x25A4 DUP7 DUP3 DUP8 ADD PUSH2 0x22C3 JUMP JUMPDEST SWAP2 POP POP SWAP3 POP SWAP3 POP SWAP3 JUMP JUMPDEST PUSH2 0x25B7 DUP2 PUSH2 0x2A8E JUMP JUMPDEST DUP3 MSTORE POP POP JUMP JUMPDEST PUSH2 0x25C6 DUP2 PUSH2 0x2AE3 JUMP JUMPDEST DUP3 MSTORE POP POP JUMP JUMPDEST PUSH2 0x25D5 DUP2 PUSH2 0x2AAC JUMP JUMPDEST DUP3 MSTORE POP POP JUMP JUMPDEST PUSH1 0x0 PUSH2 0x25E6 DUP3 PUSH2 0x2952 JUMP JUMPDEST PUSH2 0x25F0 DUP2 DUP6 PUSH2 0x296E JUMP JUMPDEST SWAP4 POP PUSH2 0x2600 DUP2 DUP6 PUSH1 0x20 DUP7 ADD PUSH2 0x2B28 JUMP JUMPDEST DUP1 DUP5 ADD SWAP2 POP POP SWAP3 SWAP2 POP POP JUMP JUMPDEST PUSH1 0x0 PUSH2 0x2619 PUSH1 0x24 DUP4 PUSH2 0x295D JUMP JUMPDEST SWAP2 POP PUSH2 0x2624 DUP3 PUSH2 0x2C87 JUMP JUMPDEST PUSH1 0x40 DUP3 ADD SWAP1 POP SWAP2 SWAP1 POP JUMP JUMPDEST PUSH1 0x0 PUSH2 0x263C PUSH1 0x15 DUP4 PUSH2 0x295D JUMP JUMPDEST SWAP2 POP PUSH2 0x2647 DUP3 PUSH2 0x2CD6 JUMP JUMPDEST PUSH1 0x20 DUP3 ADD SWAP1 POP SWAP2 SWAP1 POP JUMP JUMPDEST PUSH1 0x0 PUSH2 0x265F PUSH1 0x1A DUP4 PUSH2 0x295D JUMP JUMPDEST SWAP2 POP PUSH2 0x266A DUP3 PUSH2 0x2CFF JUMP JUMPDEST PUSH1 0x20 DUP3 ADD SWAP1 POP SWAP2 SWAP1 POP JUMP JUMPDEST PUSH1 0x0 PUSH2 0x2682 PUSH1 0x15 DUP4 PUSH2 0x295D JUMP JUMPDEST SWAP2 POP PUSH2 0x268D DUP3 PUSH2 0x2D28 JUMP JUMPDEST PUSH1 0x20 DUP3 ADD SWAP1 POP SWAP2 SWAP1 POP JUMP JUMPDEST PUSH1 0x0 PUSH2 0x26A5 PUSH1 0xC DUP4 PUSH2 0x295D JUMP JUMPDEST SWAP2 POP PUSH2 0x26B0 DUP3 PUSH2 0x2D51 JUMP JUMPDEST PUSH1 0x20 DUP3 ADD SWAP1 POP SWAP2 SWAP1 POP JUMP JUMPDEST PUSH1 0x0 PUSH2 0x26C8 PUSH1 0x1F DUP4 PUSH2 0x295D JUMP JUMPDEST SWAP2 POP PUSH2 0x26D3 DUP3 PUSH2 0x2D7A JUMP JUMPDEST PUSH1 0x20 DUP3 ADD SWAP1 POP SWAP2 SWAP1 POP JUMP JUMPDEST PUSH1 0x0 PUSH2 0x26EB PUSH1 0x21 DUP4 PUSH2 0x295D JUMP JUMPDEST SWAP2 POP PUSH2 0x26F6 DUP3 PUSH2 0x2DA3 JUMP JUMPDEST PUSH1 0x40 DUP3 ADD SWAP1 POP SWAP2 SWAP1 POP JUMP JUMPDEST PUSH2 0x270A DUP2 PUSH2 0x2AD9 JUMP JUMPDEST DUP3 MSTORE POP POP JUMP JUMPDEST PUSH1 0x0 PUSH2 0x271C DUP3 DUP5 PUSH2 0x25DB JUMP JUMPDEST SWAP2 POP DUP2 SWAP1 POP SWAP3 SWAP2 POP POP JUMP JUMPDEST PUSH1 0x0 PUSH1 0x20 DUP3 ADD SWAP1 POP PUSH2 0x273C PUSH1 0x0 DUP4 ADD DUP5 PUSH2 0x25AE JUMP JUMPDEST SWAP3 SWAP2 POP POP JUMP JUMPDEST PUSH1 0x0 PUSH1 0x60 DUP3 ADD SWAP1 POP PUSH2 0x2757 PUSH1 0x0 DUP4 ADD DUP7 PUSH2 0x25AE JUMP JUMPDEST PUSH2 0x2764 PUSH1 0x20 DUP4 ADD DUP6 PUSH2 0x25AE JUMP JUMPDEST PUSH2 0x2771 PUSH1 0x40 DUP4 ADD DUP5 PUSH2 0x2701 JUMP JUMPDEST SWAP5 SWAP4 POP POP POP POP JUMP JUMPDEST PUSH1 0x0 PUSH1 0x40 DUP3 ADD SWAP1 POP PUSH2 0x278E PUSH1 0x0 DUP4 ADD DUP6 PUSH2 0x25AE JUMP JUMPDEST PUSH2 0x279B PUSH1 0x20 DUP4 ADD DUP5 PUSH2 0x2701 JUMP JUMPDEST SWAP4 SWAP3 POP POP POP JUMP JUMPDEST PUSH1 0x0 PUSH1 0x20 DUP3 ADD SWAP1 POP PUSH2 0x27B7 PUSH1 0x0 DUP4 ADD DUP5 PUSH2 0x25BD JUMP JUMPDEST SWAP3 SWAP2 POP POP JUMP JUMPDEST PUSH1 0x0 PUSH1 0x20 DUP3 ADD SWAP1 POP PUSH2 0x27D2 PUSH1 0x0 DUP4 ADD DUP5 PUSH2 0x25CC JUMP JUMPDEST SWAP3 SWAP2 POP POP JUMP JUMPDEST PUSH1 0x0 PUSH1 0x20 DUP3 ADD SWAP1 POP DUP2 DUP2 SUB PUSH1 0x0 DUP4 ADD MSTORE PUSH2 0x27F1 DUP2 PUSH2 0x260C JUMP JUMPDEST SWAP1 POP SWAP2 SWAP1 POP JUMP JUMPDEST PUSH1 0x0 PUSH1 0x20 DUP3 ADD SWAP1 POP DUP2 DUP2 SUB PUSH1 0x0 DUP4 ADD MSTORE PUSH2 0x2811 DUP2 PUSH2 0x262F JUMP JUMPDEST SWAP1 POP SWAP2 SWAP1 POP JUMP JUMPDEST PUSH1 0x0 PUSH1 0x20 DUP3 ADD SWAP1 POP DUP2 DUP2 SUB PUSH1 0x0 DUP4 ADD MSTORE PUSH2 0x2831 DUP2 PUSH2 0x2652 JUMP JUMPDEST SWAP1 POP SWAP2 SWAP1 POP JUMP JUMPDEST PUSH1 0x0 PUSH1 0x20 DUP3 ADD SWAP1 POP DUP2 DUP2 SUB PUSH1 0x0 DUP4 ADD MSTORE PUSH2 0x2851 DUP2 PUSH2 0x2675 JUMP JUMPDEST SWAP1 POP SWAP2 SWAP1 POP JUMP JUMPDEST PUSH1 0x0 PUSH1 0x20 DUP3 ADD SWAP1 POP DUP2 DUP2 SUB PUSH1 0x0 DUP4 ADD MSTORE PUSH2 0x2871 DUP2 PUSH2 0x2698 JUMP JUMPDEST SWAP1 POP SWAP2 SWAP1 POP JUMP JUMPDEST PUSH1 0x0 PUSH1 0x20 DUP3 ADD SWAP1 POP DUP2 DUP2 SUB PUSH1 0x0 DUP4 ADD MSTORE PUSH2 0x2891 DUP2 PUSH2 0x26BB JUMP JUMPDEST SWAP1 POP SWAP2 SWAP1 POP JUMP JUMPDEST PUSH1 0x0 PUSH1 0x20 DUP3 ADD SWAP1 POP DUP2 DUP2 SUB PUSH1 0x0 DUP4 ADD MSTORE PUSH2 0x28B1 DUP2 PUSH2 0x26DE JUMP JUMPDEST SWAP1 POP SWAP2 SWAP1 POP JUMP JUMPDEST PUSH1 0x0 PUSH1 0x20 DUP3 ADD SWAP1 POP PUSH2 0x28CD PUSH1 0x0 DUP4 ADD DUP5 PUSH2 0x2701 JUMP JUMPDEST SWAP3 SWAP2 POP POP JUMP JUMPDEST PUSH1 0x0 PUSH1 0x40 DUP3 ADD SWAP1 POP PUSH2 0x28E8 PUSH1 0x0 DUP4 ADD DUP6 PUSH2 0x2701 JUMP JUMPDEST PUSH2 0x28F5 PUSH1 0x20 DUP4 ADD DUP5 PUSH2 0x2701 JUMP JUMPDEST SWAP4 SWAP3 POP POP POP JUMP JUMPDEST PUSH1 0x0 PUSH2 0x2906 PUSH2 0x2917 JUMP JUMPDEST SWAP1 POP PUSH2 0x2912 DUP3 DUP3 PUSH2 0x2B5B JUMP JUMPDEST SWAP2 SWAP1 POP JUMP JUMPDEST PUSH1 0x0 PUSH1 0x40 MLOAD SWAP1 POP SWAP1 JUMP JUMPDEST PUSH1 0x0 PUSH8 0xFFFFFFFFFFFFFFFF DUP3 GT ISZERO PUSH2 0x293C JUMPI PUSH2 0x293B PUSH2 0x2C33 JUMP JUMPDEST JUMPDEST PUSH2 0x2945 DUP3 PUSH2 0x2C76 JUMP JUMPDEST SWAP1 POP PUSH1 0x20 DUP2 ADD SWAP1 POP SWAP2 SWAP1 POP JUMP JUMPDEST PUSH1 0x0 DUP2 MLOAD SWAP1 POP SWAP2 SWAP1 POP JUMP JUMPDEST PUSH1 0x0 DUP3 DUP3 MSTORE PUSH1 0x20 DUP3 ADD SWAP1 POP SWAP3 SWAP2 POP POP JUMP JUMPDEST PUSH1 0x0 DUP2 SWAP1 POP SWAP3 SWAP2 POP POP JUMP JUMPDEST PUSH1 0x0 PUSH2 0x2984 DUP3 PUSH2 0x2AD9 JUMP JUMPDEST SWAP2 POP PUSH2 0x298F DUP4 PUSH2 0x2AD9 JUMP JUMPDEST SWAP3 POP DUP3 PUSH32 0xFFFFFFFFFFFFFFFFFFFFFFFFFFFFFFFFFFFFFFFFFFFFFFFFFFFFFFFFFFFFFFFF SUB DUP3 GT ISZERO PUSH2 0x29C4 JUMPI PUSH2 0x29C3 PUSH2 0x2BD5 JUMP JUMPDEST JUMPDEST DUP3 DUP3 ADD SWAP1 POP SWAP3 SWAP2 POP POP JUMP JUMPDEST PUSH1 0x0 PUSH2 0x29DA DUP3 PUSH2 0x2AD9 JUMP JUMPDEST SWAP2 POP PUSH2 0x29E5 DUP4 PUSH2 0x2AD9 JUMP JUMPDEST SWAP3 POP DUP3 PUSH2 0x29F5 JUMPI PUSH2 0x29F4 PUSH2 0x2C04 JUMP JUMPDEST JUMPDEST DUP3 DUP3 DIV SWAP1 POP SWAP3 SWAP2 POP POP JUMP JUMPDEST PUSH1 0x0 PUSH2 0x2A0B DUP3 PUSH2 0x2AD9 JUMP JUMPDEST SWAP2 POP PUSH2 0x2A16 DUP4 PUSH2 0x2AD9 JUMP JUMPDEST SWAP3 POP DUP2 PUSH32 0xFFFFFFFFFFFFFFFFFFFFFFFFFFFFFFFFFFFFFFFFFFFFFFFFFFFFFFFFFFFFFFFF DIV DUP4 GT DUP3 ISZERO ISZERO AND ISZERO PUSH2 0x2A4F JUMPI PUSH2 0x2A4E PUSH2 0x2BD5 JUMP JUMPDEST JUMPDEST DUP3 DUP3 MUL SWAP1 POP SWAP3 SWAP2 POP POP JUMP JUMPDEST PUSH1 0x0 PUSH2 0x2A65 DUP3 PUSH2 0x2AD9 JUMP JUMPDEST SWAP2 POP PUSH2 0x2A70 DUP4 PUSH2 0x2AD9 JUMP JUMPDEST SWAP3 POP DUP3 DUP3 LT ISZERO PUSH2 0x2A83 JUMPI PUSH2 0x2A82 PUSH2 0x2BD5 JUMP JUMPDEST JUMPDEST DUP3 DUP3 SUB SWAP1 POP SWAP3 SWAP2 POP POP JUMP JUMPDEST PUSH1 0x0 PUSH2 0x2A99 DUP3 PUSH2 0x2AB9 JUMP JUMPDEST SWAP1 POP SWAP2 SWAP1 POP JUMP JUMPDEST PUSH1 0x0 DUP2 ISZERO ISZERO SWAP1 POP SWAP2 SWAP1 POP JUMP JUMPDEST PUSH1 0x0 DUP2 PUSH1 0xF SIGNEXTEND SWAP1 POP SWAP2 SWAP1 POP JUMP JUMPDEST PUSH1 0x0 PUSH20 0xFFFFFFFFFFFFFFFFFFFFFFFFFFFFFFFFFFFFFFFF DUP3 AND SWAP1 POP SWAP2 SWAP1 POP JUMP JUMPDEST PUSH1 0x0 DUP2 SWAP1 POP SWAP2 SWAP1 POP JUMP JUMPDEST PUSH1 0x0 PUSH2 0x2AEE DUP3 PUSH2 0x2AF5 JUMP JUMPDEST SWAP1 POP SWAP2 SWAP1 POP JUMP JUMPDEST PUSH1 0x0 PUSH2 0x2B00 DUP3 PUSH2 0x2B07 JUMP JUMPDEST SWAP1 POP SWAP2 SWAP1 POP JUMP JUMPDEST PUSH1 0x0 PUSH2 0x2B12 DUP3 PUSH2 0x2AB9 JUMP JUMPDEST SWAP1 POP SWAP2 SWAP1 POP JUMP JUMPDEST DUP3 DUP2 DUP4 CALLDATACOPY PUSH1 0x0 DUP4 DUP4 ADD MSTORE POP POP POP JUMP JUMPDEST PUSH1 0x0 JUMPDEST DUP4 DUP2 LT ISZERO PUSH2 0x2B46 JUMPI DUP1 DUP3 ADD MLOAD DUP2 DUP5 ADD MSTORE PUSH1 0x20 DUP2 ADD SWAP1 POP PUSH2 0x2B2B JUMP JUMPDEST DUP4 DUP2 GT ISZERO PUSH2 0x2B55 JUMPI PUSH1 0x0 DUP5 DUP5 ADD MSTORE JUMPDEST POP POP POP POP JUMP JUMPDEST PUSH2 0x2B64 DUP3 PUSH2 0x2C76 JUMP JUMPDEST DUP2 ADD DUP2 DUP2 LT PUSH8 0xFFFFFFFFFFFFFFFF DUP3 GT OR ISZERO PUSH2 0x2B83 JUMPI PUSH2 0x2B82 PUSH2 0x2C33 JUMP JUMPDEST JUMPDEST DUP1 PUSH1 0x40 MSTORE POP POP POP JUMP JUMPDEST PUSH1 0x0 PUSH2 0x2B97 DUP3 PUSH2 0x2AD9 JUMP JUMPDEST SWAP2 POP PUSH32 0xFFFFFFFFFFFFFFFFFFFFFFFFFFFFFFFFFFFFFFFFFFFFFFFFFFFFFFFFFFFFFFFF DUP3 EQ ISZERO PUSH2 0x2BCA JUMPI PUSH2 0x2BC9 PUSH2 0x2BD5 JUMP JUMPDEST JUMPDEST PUSH1 0x1 DUP3 ADD SWAP1 POP SWAP2 SWAP1 POP JUMP JUMPDEST PUSH32 0x4E487B7100000000000000000000000000000000000000000000000000000000 PUSH1 0x0 MSTORE PUSH1 0x11 PUSH1 0x4 MSTORE PUSH1 0x24 PUSH1 0x0 REVERT JUMPDEST PUSH32 0x4E487B7100000000000000000000000000000000000000000000000000000000 PUSH1 0x0 MSTORE PUSH1 0x12 PUSH1 0x4 MSTORE PUSH1 0x24 PUSH1 0x0 REVERT JUMPDEST PUSH32 0x4E487B7100000000000000000000000000000000000000000000000000000000 PUSH1 0x0 MSTORE PUSH1 0x41 PUSH1 0x4 MSTORE PUSH1 0x24 PUSH1 0x0 REVERT JUMPDEST PUSH1 0x0 DUP1 REVERT JUMPDEST PUSH1 0x0 DUP1 REVERT JUMPDEST PUSH1 0x0 DUP1 REVERT JUMPDEST PUSH1 0x0 DUP1 REVERT JUMPDEST PUSH1 0x0 PUSH1 0x1F NOT PUSH1 0x1F DUP4 ADD AND SWAP1 POP SWAP2 SWAP1 POP JUMP JUMPDEST PUSH32 0x596F7520646F6E7420686176652074686174206D75636820746F207769746864 PUSH1 0x0 DUP3 ADD MSTORE PUSH32 0x7261772100000000000000000000000000000000000000000000000000000000 PUSH1 0x20 DUP3 ADD MSTORE POP JUMP JUMPDEST PUSH32 0x546F6B656E207472616E73666572206661696C65640000000000000000000000 PUSH1 0x0 DUP3 ADD MSTORE POP JUMP JUMPDEST PUSH32 0x596F7520646F6E742068617665207468617420616D6F756E7421000000000000 PUSH1 0x0 DUP3 ADD MSTORE POP JUMP JUMPDEST PUSH32 0x506572207472616E73616374696F6E206C696D69740000000000000000000000 PUSH1 0x0 DUP3 ADD MSTORE POP JUMP JUMPDEST PUSH32 0x4E6F7420756E6C6F636B65640000000000000000000000000000000000000000 PUSH1 0x0 DUP3 ADD MSTORE POP JUMP JUMPDEST PUSH32 0x5265656E7472616E637947756172643A207265656E7472616E742063616C6C00 PUSH1 0x0 DUP3 ADD MSTORE POP JUMP JUMPDEST PUSH32 0x75696E74206F766572666C6F772066726F6D206D756C7469706C69636174696F PUSH1 0x0 DUP3 ADD MSTORE PUSH32 0x6E00000000000000000000000000000000000000000000000000000000000000 PUSH1 0x20 DUP3 ADD MSTORE POP JUMP JUMPDEST PUSH2 0x2DFB DUP2 PUSH2 0x2A8E JUMP JUMPDEST DUP2 EQ PUSH2 0x2E06 JUMPI PUSH1 0x0 DUP1 REVERT JUMPDEST POP JUMP JUMPDEST PUSH2 0x2E12 DUP2 PUSH2 0x2AA0 JUMP JUMPDEST DUP2 EQ PUSH2 0x2E1D JUMPI PUSH1 0x0 DUP1 REVERT JUMPDEST POP JUMP JUMPDEST PUSH2 0x2E29 DUP2 PUSH2 0x2AD9 JUMP JUMPDEST DUP2 EQ PUSH2 0x2E34 JUMPI PUSH1 0x0 DUP1 REVERT JUMPDEST POP JUMP INVALID LOG2 PUSH5 0x6970667358 0x22 SLT KECCAK256 PUSH14 0x189CD4BAE77847E15C0D308F2F4B CALLVALUE DUP8 0xD0 ISZERO 0x5E 0xE2 0xC7 0xE1 0xEF SDIV 0xBB DUP4 DUP1 0xAC TIMESTAMP 0xEC 0x27 PUSH5 0x736F6C6343 STOP ADDMOD SMOD STOP CALLER "
				},
				"gasEstimates": {
					"creation": {
						"codeDepositCost": "2377000",
						"executionCost": "infinite",
						"totalCost": "infinite"
					},
					"external": {
						"BTON()": "2645",
						"SPTR()": "2668",
						"WAND()": "2711",
						"addStable(string,address,uint256)": "infinite",
						"buyScepter(uint256,string)": "infinite",
						"cashOutScepter(uint256,uint256,string)": "infinite",
						"circulatingSupplyXDays(uint256)": "infinite",
						"claimLockedUSDC(address,string)": "infinite",
						"daysInCalculation()": "2540",
						"devWalletAddr()": "2604",
						"getBackingPrice()": "infinite",
						"getBuyPrice()": "infinite",
						"getCircSupplyXDays()": "infinite",
						"getGrowthFactor()": "infinite",
						"getSellFactor()": "infinite",
						"getSellPrice()": "infinite",
						"getTokensBoughtXDays()": "infinite",
						"getTokensSoldXDays()": "infinite",
						"growthFactor()": "2495",
						"res()": "2521",
						"riskTreasuryAddr()": "2583",
						"scepterTreasuryAddr()": "2647",
						"sellFactor()": "2518",
						"setDaysUsedInFactors(uint256)": "infinite",
						"stableERC20Info(string)": "infinite",
						"testUpdatetimeLockedminus(uint256)": "infinite",
						"testUpdatetimeLockedplus(uint256)": "infinite",
						"testwallet()": "2602",
						"timeLaunched()": "2496",
						"tokenStable()": "2668",
						"tokensBoughtXDays(uint256)": "infinite",
						"tokensSoldXDays(uint256)": "infinite",
						"transformScepterToBaton(uint256)": "infinite",
						"treasury1Addr()": "2624",
						"treasury1bal()": "2563",
						"whitelist(address)": "522",
						"withdrawStables(uint256)": "451",
						"withheldWithdrawals(address)": "infinite"
					},
					"internal": {
						"_safeTransferFrom(contract IERC20,address,address,uint256)": "infinite",
						"add(uint256,uint256)": "infinite",
						"decDiv18(uint256,uint256)": "infinite",
						"decMul18(uint256,uint256)": "infinite",
						"div(uint256,uint256)": "infinite",
						"mintBaton(uint256)": "infinite",
						"mul(uint256,uint256)": "infinite",
						"sub(uint256,uint256)": "infinite"
					}
				},
				"methodIdentifiers": {
					"BTON()": "c0ca6fb4",
					"SPTR()": "26ae486e",
					"WAND()": "d04d7908",
					"addStable(string,address,uint256)": "e5d98082",
					"buyScepter(uint256,string)": "862d1b35",
					"cashOutScepter(uint256,uint256,string)": "c0ce5889",
					"circulatingSupplyXDays(uint256)": "1a30e872",
					"claimLockedUSDC(address,string)": "bdad7f02",
					"daysInCalculation()": "67b48c91",
					"devWalletAddr()": "29982a32",
					"getBackingPrice()": "1f564a06",
					"getBuyPrice()": "018a25e8",
					"getCircSupplyXDays()": "0f65de3e",
					"getGrowthFactor()": "93f7b711",
					"getSellFactor()": "0ccaf04f",
					"getSellPrice()": "43d32e9c",
					"getTokensBoughtXDays()": "71cd58f9",
					"getTokensSoldXDays()": "d82eddf2",
					"growthFactor()": "ee620868",
					"res()": "6f10e285",
					"riskTreasuryAddr()": "047729b0",
					"scepterTreasuryAddr()": "c079d7f6",
					"sellFactor()": "cbff4617",
					"setDaysUsedInFactors(uint256)": "fc361443",
					"stableERC20Info(string)": "a475bf48",
					"testUpdatetimeLockedminus(uint256)": "164c8501",
					"testUpdatetimeLockedplus(uint256)": "67e927a8",
					"testwallet()": "eee05f5e",
					"timeLaunched()": "3c6eb17a",
					"tokenStable()": "7087a7a5",
					"tokensBoughtXDays(uint256)": "2a9f0fb1",
					"tokensSoldXDays(uint256)": "1514c976",
					"transformScepterToBaton(uint256)": "1bc9cc45",
					"treasury1Addr()": "fbbb4589",
					"treasury1bal()": "35453307",
					"whitelist(address)": "9b19251a",
					"withdrawStables(uint256)": "39ad95d6",
					"withheldWithdrawals(address)": "12b2ed94"
				}
			},
			"storageLayout": {
				"storage": [
					{
						"astId": 757,
						"contract": "WandInstruments.sol:testSticks",
						"label": "_status",
						"offset": 0,
						"slot": "0",
						"type": "t_uint256"
					},
					{
						"astId": 800,
						"contract": "WandInstruments.sol:testSticks",
						"label": "growthFactor",
						"offset": 0,
						"slot": "1",
						"type": "t_uint256"
					},
					{
						"astId": 802,
						"contract": "WandInstruments.sol:testSticks",
						"label": "sellFactor",
						"offset": 0,
						"slot": "2",
						"type": "t_uint256"
					},
					{
						"astId": 804,
						"contract": "WandInstruments.sol:testSticks",
						"label": "backingPrice",
						"offset": 0,
						"slot": "3",
						"type": "t_uint256"
					},
					{
						"astId": 806,
						"contract": "WandInstruments.sol:testSticks",
						"label": "scepterBuyPrice",
						"offset": 0,
						"slot": "4",
						"type": "t_uint256"
					},
					{
						"astId": 808,
						"contract": "WandInstruments.sol:testSticks",
						"label": "scepterSellPrice",
						"offset": 0,
						"slot": "5",
						"type": "t_uint256"
					},
					{
						"astId": 810,
						"contract": "WandInstruments.sol:testSticks",
						"label": "treasuryUSDC",
						"offset": 0,
						"slot": "6",
						"type": "t_uint256"
					},
					{
						"astId": 812,
						"contract": "WandInstruments.sol:testSticks",
						"label": "treasury1Addr",
						"offset": 0,
						"slot": "7",
						"type": "t_address"
					},
					{
						"astId": 814,
						"contract": "WandInstruments.sol:testSticks",
						"label": "scepterTreasuryAddr",
						"offset": 0,
						"slot": "8",
						"type": "t_address"
					},
					{
						"astId": 816,
						"contract": "WandInstruments.sol:testSticks",
						"label": "riskTreasuryAddr",
						"offset": 0,
						"slot": "9",
						"type": "t_address"
					},
					{
						"astId": 818,
						"contract": "WandInstruments.sol:testSticks",
						"label": "devWalletAddr",
						"offset": 0,
						"slot": "10",
						"type": "t_address"
					},
					{
						"astId": 824,
						"contract": "WandInstruments.sol:testSticks",
						"label": "treasury1bal",
						"offset": 0,
						"slot": "11",
						"type": "t_uint256"
					},
					{
						"astId": 826,
						"contract": "WandInstruments.sol:testSticks",
						"label": "timeLaunched",
						"offset": 0,
						"slot": "12",
						"type": "t_uint256"
					},
					{
						"astId": 828,
						"contract": "WandInstruments.sol:testSticks",
						"label": "daysInCalculation",
						"offset": 0,
						"slot": "13",
						"type": "t_uint256"
					},
					{
						"astId": 831,
						"contract": "WandInstruments.sol:testSticks",
						"label": "ft5daybought",
						"offset": 0,
						"slot": "14",
						"type": "t_uint256"
					},
					{
						"astId": 834,
						"contract": "WandInstruments.sol:testSticks",
						"label": "ft5daysold",
						"offset": 0,
						"slot": "15",
						"type": "t_uint256"
					},
					{
						"astId": 837,
						"contract": "WandInstruments.sol:testSticks",
						"label": "double5daytokens",
						"offset": 0,
						"slot": "16",
						"type": "t_uint256"
					},
					{
						"astId": 839,
						"contract": "WandInstruments.sol:testSticks",
						"label": "res",
						"offset": 0,
						"slot": "17",
						"type": "t_int128"
					},
					{
						"astId": 842,
						"contract": "WandInstruments.sol:testSticks",
						"label": "testwallet",
						"offset": 0,
						"slot": "18",
						"type": "t_address"
					},
					{
						"astId": 845,
						"contract": "WandInstruments.sol:testSticks",
						"label": "SPTR",
						"offset": 0,
						"slot": "19",
						"type": "t_contract(IERC20)721"
					},
					{
						"astId": 848,
						"contract": "WandInstruments.sol:testSticks",
						"label": "WAND",
						"offset": 0,
						"slot": "20",
						"type": "t_contract(IERC20)721"
					},
					{
						"astId": 851,
						"contract": "WandInstruments.sol:testSticks",
						"label": "BTON",
						"offset": 0,
						"slot": "21",
						"type": "t_contract(IERC20)721"
					},
					{
						"astId": 854,
						"contract": "WandInstruments.sol:testSticks",
						"label": "tokenStable",
						"offset": 0,
						"slot": "22",
						"type": "t_contract(IERC20)721"
					},
					{
						"astId": 858,
						"contract": "WandInstruments.sol:testSticks",
						"label": "tokensBoughtXDays",
						"offset": 0,
						"slot": "23",
						"type": "t_mapping(t_uint256,t_uint256)"
					},
					{
						"astId": 862,
						"contract": "WandInstruments.sol:testSticks",
						"label": "tokensSoldXDays",
						"offset": 0,
						"slot": "24",
						"type": "t_mapping(t_uint256,t_uint256)"
					},
					{
						"astId": 866,
						"contract": "WandInstruments.sol:testSticks",
						"label": "circulatingSupplyXDays",
						"offset": 0,
						"slot": "25",
						"type": "t_mapping(t_uint256,t_uint256)"
					},
					{
						"astId": 876,
						"contract": "WandInstruments.sol:testSticks",
						"label": "stableERC20Info",
						"offset": 0,
						"slot": "26",
						"type": "t_mapping(t_string_memory_ptr,t_struct(stableTokensParams)871_storage)"
					},
					{
						"astId": 886,
						"contract": "WandInstruments.sol:testSticks",
						"label": "withheldWithdrawals",
						"offset": 0,
						"slot": "27",
						"type": "t_mapping(t_address,t_struct(lockedamounts)881_storage)"
					}
				],
				"types": {
					"t_address": {
						"encoding": "inplace",
						"label": "address",
						"numberOfBytes": "20"
					},
					"t_contract(IERC20)721": {
						"encoding": "inplace",
						"label": "contract IERC20",
						"numberOfBytes": "20"
					},
					"t_int128": {
						"encoding": "inplace",
						"label": "int128",
						"numberOfBytes": "16"
					},
					"t_mapping(t_address,t_struct(lockedamounts)881_storage)": {
						"encoding": "mapping",
						"key": "t_address",
						"label": "mapping(address => struct testSticks.lockedamounts)",
						"numberOfBytes": "32",
						"value": "t_struct(lockedamounts)881_storage"
					},
					"t_mapping(t_string_memory_ptr,t_struct(stableTokensParams)871_storage)": {
						"encoding": "mapping",
						"key": "t_string_memory_ptr",
						"label": "mapping(string => struct testSticks.stableTokensParams)",
						"numberOfBytes": "32",
						"value": "t_struct(stableTokensParams)871_storage"
					},
					"t_mapping(t_uint256,t_uint256)": {
						"encoding": "mapping",
						"key": "t_uint256",
						"label": "mapping(uint256 => uint256)",
						"numberOfBytes": "32",
						"value": "t_uint256"
					},
					"t_string_memory_ptr": {
						"encoding": "bytes",
						"label": "string",
						"numberOfBytes": "32"
					},
					"t_struct(lockedamounts)881_storage": {
						"encoding": "inplace",
						"label": "struct testSticks.lockedamounts",
						"members": [
							{
								"astId": 878,
								"contract": "WandInstruments.sol:testSticks",
								"label": "timeUnlocked",
								"offset": 0,
								"slot": "0",
								"type": "t_uint256"
							},
							{
								"astId": 880,
								"contract": "WandInstruments.sol:testSticks",
								"label": "amounts",
								"offset": 0,
								"slot": "1",
								"type": "t_uint256"
							}
						],
						"numberOfBytes": "64"
					},
					"t_struct(stableTokensParams)871_storage": {
						"encoding": "inplace",
						"label": "struct testSticks.stableTokensParams",
						"members": [
							{
								"astId": 868,
								"contract": "WandInstruments.sol:testSticks",
								"label": "contractAddress",
								"offset": 0,
								"slot": "0",
								"type": "t_address"
							},
							{
								"astId": 870,
								"contract": "WandInstruments.sol:testSticks",
								"label": "tokenDecimals",
								"offset": 0,
								"slot": "1",
								"type": "t_uint256"
							}
						],
						"numberOfBytes": "64"
					},
					"t_uint256": {
						"encoding": "inplace",
						"label": "uint256",
						"numberOfBytes": "32"
					}
				}
			},
			"userdoc": {
				"events": {
					"sceptersBought(address,uint256)": {
						"notice": "Events*"
					}
				},
				"kind": "user",
				"methods": {},
				"version": 1
			}
		}
	}
}