{
	"sis.sol": {
		"personalSafuuTrader": {
			"abi": [
				{
					"inputs": [],
					"stateMutability": "nonpayable",
					"type": "constructor"
				},
				{
					"inputs": [],
					"name": "BnbToSafuu",
					"outputs": [
						{
							"internalType": "uint256",
							"name": "",
							"type": "uint256"
						}
					],
					"stateMutability": "view",
					"type": "function"
				},
				{
					"inputs": [
						{
							"internalType": "uint256",
							"name": "amttobuy",
							"type": "uint256"
						}
					],
					"name": "buySafuu",
					"outputs": [],
					"stateMutability": "payable",
					"type": "function"
				},
				{
					"inputs": [],
					"name": "safuu",
					"outputs": [
						{
							"internalType": "contract IERC20",
							"name": "",
							"type": "address"
						}
					],
					"stateMutability": "view",
					"type": "function"
				},
				{
					"inputs": [
						{
							"internalType": "uint256",
							"name": "amttosell",
							"type": "uint256"
						}
					],
					"name": "sellSafuu",
					"outputs": [],
					"stateMutability": "nonpayable",
					"type": "function"
				},
				{
					"inputs": [
						{
							"internalType": "uint256",
							"name": "_newfactor",
							"type": "uint256"
						}
					],
					"name": "setFactor",
					"outputs": [],
					"stateMutability": "nonpayable",
					"type": "function"
				},
				{
					"inputs": [],
					"name": "withdrawToOwner",
					"outputs": [],
					"stateMutability": "nonpayable",
					"type": "function"
				}
			],
			"devdoc": {
				"kind": "dev",
				"methods": {},
				"version": 1
			},
			"evm": {
				"assembly": "    /* \"sis.sol\":84:2262  contract personalSafuuTrader\r... */\n  mstore(0x40, 0x80)\n    /* \"sis.sol\":279:495  constructor () {\r... */\n  callvalue\n  dup1\n  iszero\n  tag_1\n  jumpi\n  0x00\n  dup1\n  revert\ntag_1:\n  pop\n    /* \"sis.sol\":315:325  msg.sender */\n  caller\n    /* \"sis.sol\":299:304  owner */\n  0x00\n  dup1\n    /* \"sis.sol\":299:326  owner = payable(msg.sender) */\n  0x0100\n  exp\n  dup2\n  sload\n  dup2\n  0xffffffffffffffffffffffffffffffffffffffff\n  mul\n  not\n  and\n  swap1\n  dup4\n  0xffffffffffffffffffffffffffffffffffffffff\n  and\n  mul\n  or\n  swap1\n  sstore\n  pop\n    /* \"sis.sol\":344:350  200000 */\n  0x030d40\n    /* \"sis.sol\":331:341  BnbToSafuu */\n  0x01\n    /* \"sis.sol\":331:350  BnbToSafuu = 200000 */\n  dup2\n  swap1\n  sstore\n  pop\n    /* \"sis.sol\":435:477  0x358AA13c52544ECCEF6B0ADD0f801012ADAD5eE3 */\n  0x358aa13c52544eccef6b0add0f801012adad5ee3\n    /* \"sis.sol\":420:425  safuu */\n  0x02\n  0x00\n    /* \"sis.sol\":420:478  safuu = IERC20(0x358AA13c52544ECCEF6B0ADD0f801012ADAD5eE3) */\n  0x0100\n  exp\n  dup2\n  sload\n  dup2\n  0xffffffffffffffffffffffffffffffffffffffff\n  mul\n  not\n  and\n  swap1\n  dup4\n  0xffffffffffffffffffffffffffffffffffffffff\n  and\n  mul\n  or\n  swap1\n  sstore\n  pop\n    /* \"sis.sol\":84:2262  contract personalSafuuTrader\r... */\n  dataSize(sub_0)\n  dup1\n  dataOffset(sub_0)\n  0x00\n  codecopy\n  0x00\n  return\nstop\n\nsub_0: assembly {\n        /* \"sis.sol\":84:2262  contract personalSafuuTrader\r... */\n      mstore(0x40, 0x80)\n      jumpi(tag_1, lt(calldatasize, 0x04))\n      shr(0xe0, calldataload(0x00))\n      dup1\n      0x23b160ac\n      eq\n      tag_2\n      jumpi\n      dup1\n      0x3cb40e16\n      eq\n      tag_3\n      jumpi\n      dup1\n      0x80c31426\n      eq\n      tag_4\n      jumpi\n      dup1\n      0x817e9d31\n      eq\n      tag_5\n      jumpi\n      dup1\n      0xade87ecc\n      eq\n      tag_6\n      jumpi\n      dup1\n      0xebc4197c\n      eq\n      tag_7\n      jumpi\n    tag_1:\n      0x00\n      dup1\n      revert\n        /* \"sis.sol\":191:210  IERC20 public safuu */\n    tag_2:\n      callvalue\n      dup1\n      iszero\n      tag_8\n      jumpi\n      0x00\n      dup1\n      revert\n    tag_8:\n      pop\n      tag_9\n      tag_10\n      jump\t// in\n    tag_9:\n      mload(0x40)\n      tag_11\n      swap2\n      swap1\n      tag_12\n      jump\t// in\n    tag_11:\n      mload(0x40)\n      dup1\n      swap2\n      sub\n      swap1\n      return\n        /* \"sis.sol\":1626:1985  function withdrawToOwner()\r... */\n    tag_3:\n      callvalue\n      dup1\n      iszero\n      tag_13\n      jumpi\n      0x00\n      dup1\n      revert\n    tag_13:\n      pop\n      tag_14\n      tag_15\n      jump\t// in\n    tag_14:\n      stop\n        /* \"sis.sol\":501:1002  function buySafuu(uint256 amttobuy) public payable \r... */\n    tag_4:\n      tag_16\n      0x04\n      dup1\n      calldatasize\n      sub\n      dup2\n      add\n      swap1\n      tag_17\n      swap2\n      swap1\n      tag_18\n      jump\t// in\n    tag_17:\n      tag_19\n      jump\t// in\n    tag_16:\n      stop\n        /* \"sis.sol\":1478:1620  function setFactor(uint256 _newfactor) public {\r... */\n    tag_5:\n      callvalue\n      dup1\n      iszero\n      tag_20\n      jumpi\n      0x00\n      dup1\n      revert\n    tag_20:\n      pop\n      tag_21\n      0x04\n      dup1\n      calldatasize\n      sub\n      dup2\n      add\n      swap1\n      tag_22\n      swap2\n      swap1\n      tag_18\n      jump\t// in\n    tag_22:\n      tag_23\n      jump\t// in\n    tag_21:\n      stop\n        /* \"sis.sol\":1012:1472  function sellSafuu(uint256 amttosell) public \r... */\n    tag_6:\n      callvalue\n      dup1\n      iszero\n      tag_24\n      jumpi\n      0x00\n      dup1\n      revert\n    tag_24:\n      pop\n      tag_25\n      0x04\n      dup1\n      calldatasize\n      sub\n      dup2\n      add\n      swap1\n      tag_26\n      swap2\n      swap1\n      tag_18\n      jump\t// in\n    tag_26:\n      tag_27\n      jump\t// in\n    tag_25:\n      stop\n        /* \"sis.sol\":157:183  uint256  public BnbToSafuu */\n    tag_7:\n      callvalue\n      dup1\n      iszero\n      tag_28\n      jumpi\n      0x00\n      dup1\n      revert\n    tag_28:\n      pop\n      tag_29\n      tag_30\n      jump\t// in\n    tag_29:\n      mload(0x40)\n      tag_31\n      swap2\n      swap1\n      tag_32\n      jump\t// in\n    tag_31:\n      mload(0x40)\n      dup1\n      swap2\n      sub\n      swap1\n      return\n        /* \"sis.sol\":191:210  IERC20 public safuu */\n    tag_10:\n      0x02\n      0x00\n      swap1\n      sload\n      swap1\n      0x0100\n      exp\n      swap1\n      div\n      0xffffffffffffffffffffffffffffffffffffffff\n      and\n      dup2\n      jump\t// out\n        /* \"sis.sol\":1626:1985  function withdrawToOwner()\r... */\n    tag_15:\n        /* \"sis.sol\":1864:1876  bool success */\n      0x00\n        /* \"sis.sol\":1882:1887  owner */\n      dup1\n      0x00\n      swap1\n      sload\n      swap1\n      0x0100\n      exp\n      swap1\n      div\n      0xffffffffffffffffffffffffffffffffffffffff\n      and\n        /* \"sis.sol\":1882:1892  owner.call */\n      0xffffffffffffffffffffffffffffffffffffffff\n      and\n        /* \"sis.sol\":1900:1921  address(this).balance */\n      selfbalance\n        /* \"sis.sol\":1882:1926  owner.call{value: address(this).balance}(\"\") */\n      mload(0x40)\n      tag_34\n      swap1\n      tag_35\n      jump\t// in\n    tag_34:\n      0x00\n      mload(0x40)\n      dup1\n      dup4\n      sub\n      dup2\n      dup6\n      dup8\n      gas\n      call\n      swap3\n      pop\n      pop\n      pop\n      returndatasize\n      dup1\n      0x00\n      dup2\n      eq\n      tag_38\n      jumpi\n      mload(0x40)\n      swap2\n      pop\n      and(add(returndatasize, 0x3f), not(0x1f))\n      dup3\n      add\n      0x40\n      mstore\n      returndatasize\n      dup3\n      mstore\n      returndatasize\n      0x00\n      0x20\n      dup5\n      add\n      returndatacopy\n      jump(tag_37)\n    tag_38:\n      0x60\n      swap2\n      pop\n    tag_37:\n      pop\n        /* \"sis.sol\":1863:1926  (bool success, ) = owner.call{value: address(this).balance}(\"\") */\n      pop\n      swap1\n      pop\n        /* \"sis.sol\":1945:1952  success */\n      dup1\n        /* \"sis.sol\":1937:1977  require(success, \"Failed to send Ether\") */\n      tag_39\n      jumpi\n      mload(0x40)\n      0x08c379a000000000000000000000000000000000000000000000000000000000\n      dup2\n      mstore\n      0x04\n      add\n      tag_40\n      swap1\n      tag_41\n      jump\t// in\n    tag_40:\n      mload(0x40)\n      dup1\n      swap2\n      sub\n      swap1\n      revert\n    tag_39:\n        /* \"sis.sol\":1626:1985  function withdrawToOwner()\r... */\n      pop\n      jump\t// out\n        /* \"sis.sol\":501:1002  function buySafuu(uint256 amttobuy) public payable \r... */\n    tag_19:\n        /* \"sis.sol\":589:594  10000 */\n      0x2710\n        /* \"sis.sol\":577:585  amttobuy */\n      dup2\n        /* \"sis.sol\":577:594  amttobuy >= 10000 */\n      lt\n      iszero\n        /* \"sis.sol\":569:612  require(amttobuy >= 10000, \"Minimum buy 1\") */\n      tag_43\n      jumpi\n      mload(0x40)\n      0x08c379a000000000000000000000000000000000000000000000000000000000\n      dup2\n      mstore\n      0x04\n      add\n      tag_44\n      swap1\n      tag_45\n      jump\t// in\n    tag_44:\n      mload(0x40)\n      dup1\n      swap2\n      sub\n      swap1\n      revert\n    tag_43:\n        /* \"sis.sol\":623:641  uint256 payableAmt */\n      0x00\n        /* \"sis.sol\":702:708  10**18 */\n      0x0de0b6b3a7640000\n        /* \"sis.sol\":688:698  BnbToSafuu */\n      sload(0x01)\n        /* \"sis.sol\":679:687  amttobuy */\n      dup4\n        /* \"sis.sol\":679:698  amttobuy/BnbToSafuu */\n      tag_46\n      swap2\n      swap1\n      tag_47\n      jump\t// in\n    tag_46:\n        /* \"sis.sol\":678:709  (amttobuy/BnbToSafuu) *(10**18) */\n      tag_48\n      swap2\n      swap1\n      tag_49\n      jump\t// in\n    tag_48:\n        /* \"sis.sol\":665:709  payableAmt = (amttobuy/BnbToSafuu) *(10**18) */\n      swap1\n      pop\n        /* \"sis.sol\":741:751  payableAmt */\n      dup1\n        /* \"sis.sol\":728:737  msg.value */\n      callvalue\n        /* \"sis.sol\":728:751  msg.value >= payableAmt */\n      lt\n      iszero\n        /* \"sis.sol\":720:766  require(msg.value >= payableAmt,\"Not enough\" ) */\n      tag_50\n      jumpi\n      mload(0x40)\n      0x08c379a000000000000000000000000000000000000000000000000000000000\n      dup2\n      mstore\n      0x04\n      add\n      tag_51\n      swap1\n      tag_52\n      jump\t// in\n    tag_51:\n      mload(0x40)\n      dup1\n      swap2\n      sub\n      swap1\n      revert\n    tag_50:\n        /* \"sis.sol\":933:994  _safeTransferFrom(safuu, address(this), msg.sender, amttobuy) */\n      tag_53\n        /* \"sis.sol\":951:956  safuu */\n      0x02\n      0x00\n      swap1\n      sload\n      swap1\n      0x0100\n      exp\n      swap1\n      div\n      0xffffffffffffffffffffffffffffffffffffffff\n      and\n        /* \"sis.sol\":966:970  this */\n      address\n        /* \"sis.sol\":973:983  msg.sender */\n      caller\n        /* \"sis.sol\":985:993  amttobuy */\n      dup6\n        /* \"sis.sol\":933:950  _safeTransferFrom */\n      tag_54\n        /* \"sis.sol\":933:994  _safeTransferFrom(safuu, address(this), msg.sender, amttobuy) */\n      jump\t// in\n    tag_53:\n        /* \"sis.sol\":501:1002  function buySafuu(uint256 amttobuy) public payable \r... */\n      pop\n      pop\n      jump\t// out\n        /* \"sis.sol\":1478:1620  function setFactor(uint256 _newfactor) public {\r... */\n    tag_23:\n        /* \"sis.sol\":1557:1562  owner */\n      0x00\n      dup1\n      sload\n      swap1\n      0x0100\n      exp\n      swap1\n      div\n      0xffffffffffffffffffffffffffffffffffffffff\n      and\n        /* \"sis.sol\":1543:1562  msg.sender == owner */\n      0xffffffffffffffffffffffffffffffffffffffff\n      and\n        /* \"sis.sol\":1543:1553  msg.sender */\n      caller\n        /* \"sis.sol\":1543:1562  msg.sender == owner */\n      0xffffffffffffffffffffffffffffffffffffffff\n      and\n      eq\n        /* \"sis.sol\":1535:1576  require(msg.sender == owner , \"notowner\") */\n      tag_56\n      jumpi\n      mload(0x40)\n      0x08c379a000000000000000000000000000000000000000000000000000000000\n      dup2\n      mstore\n      0x04\n      add\n      tag_57\n      swap1\n      tag_58\n      jump\t// in\n    tag_57:\n      mload(0x40)\n      dup1\n      swap2\n      sub\n      swap1\n      revert\n    tag_56:\n        /* \"sis.sol\":1600:1610  _newfactor */\n      dup1\n        /* \"sis.sol\":1587:1597  BnbToSafuu */\n      0x01\n        /* \"sis.sol\":1587:1610  BnbToSafuu = _newfactor */\n      dup2\n      swap1\n      sstore\n      pop\n        /* \"sis.sol\":1478:1620  function setFactor(uint256 _newfactor) public {\r... */\n      pop\n      jump\t// out\n        /* \"sis.sol\":1012:1472  function sellSafuu(uint256 amttosell) public \r... */\n    tag_27:\n        /* \"sis.sol\":1095:1100  10000 */\n      0x2710\n        /* \"sis.sol\":1082:1091  amttosell */\n      dup2\n        /* \"sis.sol\":1082:1100  amttosell >= 10000 */\n      lt\n      iszero\n        /* \"sis.sol\":1074:1119  require(amttosell >= 10000, \"Minimum sell 1\") */\n      tag_60\n      jumpi\n      mload(0x40)\n      0x08c379a000000000000000000000000000000000000000000000000000000000\n      dup2\n      mstore\n      0x04\n      add\n      tag_61\n      swap1\n      tag_62\n      jump\t// in\n    tag_61:\n      mload(0x40)\n      dup1\n      swap2\n      sub\n      swap1\n      revert\n    tag_60:\n        /* \"sis.sol\":1126:1188  _safeTransferFrom(safuu, msg.sender, address(this), amttosell) */\n      tag_63\n        /* \"sis.sol\":1144:1149  safuu */\n      0x02\n      0x00\n      swap1\n      sload\n      swap1\n      0x0100\n      exp\n      swap1\n      div\n      0xffffffffffffffffffffffffffffffffffffffff\n      and\n        /* \"sis.sol\":1151:1161  msg.sender */\n      caller\n        /* \"sis.sol\":1171:1175  this */\n      address\n        /* \"sis.sol\":1178:1187  amttosell */\n      dup5\n        /* \"sis.sol\":1126:1143  _safeTransferFrom */\n      tag_54\n        /* \"sis.sol\":1126:1188  _safeTransferFrom(safuu, msg.sender, address(this), amttosell) */\n      jump\t// in\n    tag_63:\n        /* \"sis.sol\":1223:1241  uint256 payableBNB */\n      0x00\n        /* \"sis.sol\":1299:1305  10**18 */\n      0x0de0b6b3a7640000\n        /* \"sis.sol\":1285:1295  BnbToSafuu */\n      sload(0x01)\n        /* \"sis.sol\":1275:1284  amttosell */\n      dup4\n        /* \"sis.sol\":1275:1295  amttosell/BnbToSafuu */\n      tag_64\n      swap2\n      swap1\n      tag_47\n      jump\t// in\n    tag_64:\n        /* \"sis.sol\":1274:1306  (amttosell/BnbToSafuu) *(10**18) */\n      tag_65\n      swap2\n      swap1\n      tag_49\n      jump\t// in\n    tag_65:\n        /* \"sis.sol\":1261:1306  payableBNB = (amttosell/BnbToSafuu) *(10**18) */\n      swap1\n      pop\n        /* \"sis.sol\":1321:1331  msg.sender */\n      caller\n        /* \"sis.sol\":1313:1341  payable(msg.sender).transfer */\n      0xffffffffffffffffffffffffffffffffffffffff\n      and\n        /* \"sis.sol\":1313:1353  payable(msg.sender).transfer(payableBNB) */\n      0x08fc\n        /* \"sis.sol\":1342:1352  payableBNB */\n      dup3\n        /* \"sis.sol\":1313:1353  payable(msg.sender).transfer(payableBNB) */\n      swap1\n      dup2\n      iszero\n      mul\n      swap1\n      mload(0x40)\n      0x00\n      mload(0x40)\n      dup1\n      dup4\n      sub\n      dup2\n      dup6\n      dup9\n      dup9\n      call\n      swap4\n      pop\n      pop\n      pop\n      pop\n      iszero\n      dup1\n      iszero\n      tag_67\n      jumpi\n      returndatasize\n      0x00\n      dup1\n      returndatacopy\n      revert(0x00, returndatasize)\n    tag_67:\n      pop\n        /* \"sis.sol\":1361:1373  bool success */\n      0x00\n        /* \"sis.sol\":1379:1389  msg.sender */\n      caller\n        /* \"sis.sol\":1379:1394  msg.sender.call */\n      0xffffffffffffffffffffffffffffffffffffffff\n      and\n        /* \"sis.sol\":1402:1412  payableBNB */\n      dup3\n        /* \"sis.sol\":1379:1417  msg.sender.call{value: payableBNB}(\"\") */\n      mload(0x40)\n      tag_68\n      swap1\n      tag_35\n      jump\t// in\n    tag_68:\n      0x00\n      mload(0x40)\n      dup1\n      dup4\n      sub\n      dup2\n      dup6\n      dup8\n      gas\n      call\n      swap3\n      pop\n      pop\n      pop\n      returndatasize\n      dup1\n      0x00\n      dup2\n      eq\n      tag_71\n      jumpi\n      mload(0x40)\n      swap2\n      pop\n      and(add(returndatasize, 0x3f), not(0x1f))\n      dup3\n      add\n      0x40\n      mstore\n      returndatasize\n      dup3\n      mstore\n      returndatasize\n      0x00\n      0x20\n      dup5\n      add\n      returndatacopy\n      jump(tag_70)\n    tag_71:\n      0x60\n      swap2\n      pop\n    tag_70:\n      pop\n        /* \"sis.sol\":1360:1417  (bool success, ) = msg.sender.call{value: payableBNB}(\"\") */\n      pop\n      swap1\n      pop\n        /* \"sis.sol\":1436:1443  success */\n      dup1\n        /* \"sis.sol\":1428:1464  require(success, \"Transfer failed!\") */\n      tag_72\n      jumpi\n      mload(0x40)\n      0x08c379a000000000000000000000000000000000000000000000000000000000\n      dup2\n      mstore\n      0x04\n      add\n      tag_73\n      swap1\n      tag_74\n      jump\t// in\n    tag_73:\n      mload(0x40)\n      dup1\n      swap2\n      sub\n      swap1\n      revert\n    tag_72:\n        /* \"sis.sol\":1012:1472  function sellSafuu(uint256 amttosell) public \r... */\n      pop\n      pop\n      pop\n      jump\t// out\n        /* \"sis.sol\":157:183  uint256  public BnbToSafuu */\n    tag_30:\n      sload(0x01)\n      dup2\n      jump\t// out\n        /* \"sis.sol\":1991:2259  function _safeTransferFrom(\r... */\n    tag_54:\n        /* \"sis.sol\":2145:2154  bool sent */\n      0x00\n        /* \"sis.sol\":2157:2162  token */\n      dup5\n        /* \"sis.sol\":2157:2175  token.transferFrom */\n      0xffffffffffffffffffffffffffffffffffffffff\n      and\n      0x23b872dd\n        /* \"sis.sol\":2176:2182  sender */\n      dup6\n        /* \"sis.sol\":2184:2193  recipient */\n      dup6\n        /* \"sis.sol\":2195:2201  amount */\n      dup6\n        /* \"sis.sol\":2157:2202  token.transferFrom(sender, recipient, amount) */\n      mload(0x40)\n      dup5\n      0xffffffff\n      and\n      0xe0\n      shl\n      dup2\n      mstore\n      0x04\n      add\n      tag_76\n      swap4\n      swap3\n      swap2\n      swap1\n      tag_77\n      jump\t// in\n    tag_76:\n      0x20\n      mload(0x40)\n      dup1\n      dup4\n      sub\n      dup2\n      0x00\n      dup8\n      dup1\n      extcodesize\n      iszero\n      dup1\n      iszero\n      tag_78\n      jumpi\n      0x00\n      dup1\n      revert\n    tag_78:\n      pop\n      gas\n      call\n      iszero\n      dup1\n      iszero\n      tag_80\n      jumpi\n      returndatasize\n      0x00\n      dup1\n      returndatacopy\n      revert(0x00, returndatasize)\n    tag_80:\n      pop\n      pop\n      pop\n      pop\n      mload(0x40)\n      returndatasize\n      not(0x1f)\n      0x1f\n      dup3\n      add\n      and\n      dup3\n      add\n      dup1\n      0x40\n      mstore\n      pop\n      dup2\n      add\n      swap1\n      tag_81\n      swap2\n      swap1\n      tag_82\n      jump\t// in\n    tag_81:\n        /* \"sis.sol\":2145:2202  bool sent = token.transferFrom(sender, recipient, amount) */\n      swap1\n      pop\n        /* \"sis.sol\":2221:2225  sent */\n      dup1\n        /* \"sis.sol\":2213:2251  require(sent, \"Token transfer failed\") */\n      tag_83\n      jumpi\n      mload(0x40)\n      0x08c379a000000000000000000000000000000000000000000000000000000000\n      dup2\n      mstore\n      0x04\n      add\n      tag_84\n      swap1\n      tag_85\n      jump\t// in\n    tag_84:\n      mload(0x40)\n      dup1\n      swap2\n      sub\n      swap1\n      revert\n    tag_83:\n        /* \"sis.sol\":1991:2259  function _safeTransferFrom(\r... */\n      pop\n      pop\n      pop\n      pop\n      pop\n      jump\t// out\n        /* \"#utility.yul\":7:144   */\n    tag_87:\n        /* \"#utility.yul\":61:66   */\n      0x00\n        /* \"#utility.yul\":92:98   */\n      dup2\n        /* \"#utility.yul\":86:99   */\n      mload\n        /* \"#utility.yul\":77:99   */\n      swap1\n      pop\n        /* \"#utility.yul\":108:138   */\n      tag_89\n        /* \"#utility.yul\":132:137   */\n      dup2\n        /* \"#utility.yul\":108:138   */\n      tag_90\n      jump\t// in\n    tag_89:\n        /* \"#utility.yul\":67:144   */\n      swap3\n      swap2\n      pop\n      pop\n      jump\t// out\n        /* \"#utility.yul\":150:289   */\n    tag_91:\n        /* \"#utility.yul\":196:201   */\n      0x00\n        /* \"#utility.yul\":234:240   */\n      dup2\n        /* \"#utility.yul\":221:241   */\n      calldataload\n        /* \"#utility.yul\":212:241   */\n      swap1\n      pop\n        /* \"#utility.yul\":250:283   */\n      tag_93\n        /* \"#utility.yul\":277:282   */\n      dup2\n        /* \"#utility.yul\":250:283   */\n      tag_94\n      jump\t// in\n    tag_93:\n        /* \"#utility.yul\":202:289   */\n      swap3\n      swap2\n      pop\n      pop\n      jump\t// out\n        /* \"#utility.yul\":295:573   */\n    tag_82:\n        /* \"#utility.yul\":362:368   */\n      0x00\n        /* \"#utility.yul\":411:413   */\n      0x20\n        /* \"#utility.yul\":399:408   */\n      dup3\n        /* \"#utility.yul\":390:397   */\n      dup5\n        /* \"#utility.yul\":386:409   */\n      sub\n        /* \"#utility.yul\":382:414   */\n      slt\n        /* \"#utility.yul\":379:381   */\n      iszero\n      tag_96\n      jumpi\n        /* \"#utility.yul\":427:428   */\n      0x00\n        /* \"#utility.yul\":424:425   */\n      dup1\n        /* \"#utility.yul\":417:429   */\n      revert\n        /* \"#utility.yul\":379:381   */\n    tag_96:\n        /* \"#utility.yul\":470:471   */\n      0x00\n        /* \"#utility.yul\":495:556   */\n      tag_97\n        /* \"#utility.yul\":548:555   */\n      dup5\n        /* \"#utility.yul\":539:545   */\n      dup3\n        /* \"#utility.yul\":528:537   */\n      dup6\n        /* \"#utility.yul\":524:546   */\n      add\n        /* \"#utility.yul\":495:556   */\n      tag_87\n      jump\t// in\n    tag_97:\n        /* \"#utility.yul\":485:556   */\n      swap2\n      pop\n        /* \"#utility.yul\":441:566   */\n      pop\n        /* \"#utility.yul\":369:573   */\n      swap3\n      swap2\n      pop\n      pop\n      jump\t// out\n        /* \"#utility.yul\":579:841   */\n    tag_18:\n        /* \"#utility.yul\":638:644   */\n      0x00\n        /* \"#utility.yul\":687:689   */\n      0x20\n        /* \"#utility.yul\":675:684   */\n      dup3\n        /* \"#utility.yul\":666:673   */\n      dup5\n        /* \"#utility.yul\":662:685   */\n      sub\n        /* \"#utility.yul\":658:690   */\n      slt\n        /* \"#utility.yul\":655:657   */\n      iszero\n      tag_99\n      jumpi\n        /* \"#utility.yul\":703:704   */\n      0x00\n        /* \"#utility.yul\":700:701   */\n      dup1\n        /* \"#utility.yul\":693:705   */\n      revert\n        /* \"#utility.yul\":655:657   */\n    tag_99:\n        /* \"#utility.yul\":746:747   */\n      0x00\n        /* \"#utility.yul\":771:824   */\n      tag_100\n        /* \"#utility.yul\":816:823   */\n      dup5\n        /* \"#utility.yul\":807:813   */\n      dup3\n        /* \"#utility.yul\":796:805   */\n      dup6\n        /* \"#utility.yul\":792:814   */\n      add\n        /* \"#utility.yul\":771:824   */\n      tag_91\n      jump\t// in\n    tag_100:\n        /* \"#utility.yul\":761:824   */\n      swap2\n      pop\n        /* \"#utility.yul\":717:834   */\n      pop\n        /* \"#utility.yul\":645:841   */\n      swap3\n      swap2\n      pop\n      pop\n      jump\t// out\n        /* \"#utility.yul\":847:965   */\n    tag_101:\n        /* \"#utility.yul\":934:958   */\n      tag_103\n        /* \"#utility.yul\":952:957   */\n      dup2\n        /* \"#utility.yul\":934:958   */\n      tag_104\n      jump\t// in\n    tag_103:\n        /* \"#utility.yul\":929:932   */\n      dup3\n        /* \"#utility.yul\":922:959   */\n      mstore\n        /* \"#utility.yul\":912:965   */\n      pop\n      pop\n      jump\t// out\n        /* \"#utility.yul\":971:1128   */\n    tag_105:\n        /* \"#utility.yul\":1071:1121   */\n      tag_107\n        /* \"#utility.yul\":1115:1120   */\n      dup2\n        /* \"#utility.yul\":1071:1121   */\n      tag_108\n      jump\t// in\n    tag_107:\n        /* \"#utility.yul\":1066:1069   */\n      dup3\n        /* \"#utility.yul\":1059:1122   */\n      mstore\n        /* \"#utility.yul\":1049:1128   */\n      pop\n      pop\n      jump\t// out\n        /* \"#utility.yul\":1134:1500   */\n    tag_109:\n        /* \"#utility.yul\":1276:1279   */\n      0x00\n        /* \"#utility.yul\":1297:1364   */\n      tag_111\n        /* \"#utility.yul\":1361:1363   */\n      0x14\n        /* \"#utility.yul\":1356:1359   */\n      dup4\n        /* \"#utility.yul\":1297:1364   */\n      tag_112\n      jump\t// in\n    tag_111:\n        /* \"#utility.yul\":1290:1364   */\n      swap2\n      pop\n        /* \"#utility.yul\":1373:1466   */\n      tag_113\n        /* \"#utility.yul\":1462:1465   */\n      dup3\n        /* \"#utility.yul\":1373:1466   */\n      tag_114\n      jump\t// in\n    tag_113:\n        /* \"#utility.yul\":1491:1493   */\n      0x20\n        /* \"#utility.yul\":1486:1489   */\n      dup3\n        /* \"#utility.yul\":1482:1494   */\n      add\n        /* \"#utility.yul\":1475:1494   */\n      swap1\n      pop\n        /* \"#utility.yul\":1280:1500   */\n      swap2\n      swap1\n      pop\n      jump\t// out\n        /* \"#utility.yul\":1506:1872   */\n    tag_115:\n        /* \"#utility.yul\":1648:1651   */\n      0x00\n        /* \"#utility.yul\":1669:1736   */\n      tag_117\n        /* \"#utility.yul\":1733:1735   */\n      0x0a\n        /* \"#utility.yul\":1728:1731   */\n      dup4\n        /* \"#utility.yul\":1669:1736   */\n      tag_112\n      jump\t// in\n    tag_117:\n        /* \"#utility.yul\":1662:1736   */\n      swap2\n      pop\n        /* \"#utility.yul\":1745:1838   */\n      tag_118\n        /* \"#utility.yul\":1834:1837   */\n      dup3\n        /* \"#utility.yul\":1745:1838   */\n      tag_119\n      jump\t// in\n    tag_118:\n        /* \"#utility.yul\":1863:1865   */\n      0x20\n        /* \"#utility.yul\":1858:1861   */\n      dup3\n        /* \"#utility.yul\":1854:1866   */\n      add\n        /* \"#utility.yul\":1847:1866   */\n      swap1\n      pop\n        /* \"#utility.yul\":1652:1872   */\n      swap2\n      swap1\n      pop\n      jump\t// out\n        /* \"#utility.yul\":1878:2243   */\n    tag_120:\n        /* \"#utility.yul\":2020:2023   */\n      0x00\n        /* \"#utility.yul\":2041:2107   */\n      tag_122\n        /* \"#utility.yul\":2105:2106   */\n      0x08\n        /* \"#utility.yul\":2100:2103   */\n      dup4\n        /* \"#utility.yul\":2041:2107   */\n      tag_112\n      jump\t// in\n    tag_122:\n        /* \"#utility.yul\":2034:2107   */\n      swap2\n      pop\n        /* \"#utility.yul\":2116:2209   */\n      tag_123\n        /* \"#utility.yul\":2205:2208   */\n      dup3\n        /* \"#utility.yul\":2116:2209   */\n      tag_124\n      jump\t// in\n    tag_123:\n        /* \"#utility.yul\":2234:2236   */\n      0x20\n        /* \"#utility.yul\":2229:2232   */\n      dup3\n        /* \"#utility.yul\":2225:2237   */\n      add\n        /* \"#utility.yul\":2218:2237   */\n      swap1\n      pop\n        /* \"#utility.yul\":2024:2243   */\n      swap2\n      swap1\n      pop\n      jump\t// out\n        /* \"#utility.yul\":2249:2615   */\n    tag_125:\n        /* \"#utility.yul\":2391:2394   */\n      0x00\n        /* \"#utility.yul\":2412:2479   */\n      tag_127\n        /* \"#utility.yul\":2476:2478   */\n      0x15\n        /* \"#utility.yul\":2471:2474   */\n      dup4\n        /* \"#utility.yul\":2412:2479   */\n      tag_112\n      jump\t// in\n    tag_127:\n        /* \"#utility.yul\":2405:2479   */\n      swap2\n      pop\n        /* \"#utility.yul\":2488:2581   */\n      tag_128\n        /* \"#utility.yul\":2577:2580   */\n      dup3\n        /* \"#utility.yul\":2488:2581   */\n      tag_129\n      jump\t// in\n    tag_128:\n        /* \"#utility.yul\":2606:2608   */\n      0x20\n        /* \"#utility.yul\":2601:2604   */\n      dup3\n        /* \"#utility.yul\":2597:2609   */\n      add\n        /* \"#utility.yul\":2590:2609   */\n      swap1\n      pop\n        /* \"#utility.yul\":2395:2615   */\n      swap2\n      swap1\n      pop\n      jump\t// out\n        /* \"#utility.yul\":2621:2987   */\n    tag_130:\n        /* \"#utility.yul\":2763:2766   */\n      0x00\n        /* \"#utility.yul\":2784:2851   */\n      tag_132\n        /* \"#utility.yul\":2848:2850   */\n      0x0e\n        /* \"#utility.yul\":2843:2846   */\n      dup4\n        /* \"#utility.yul\":2784:2851   */\n      tag_112\n      jump\t// in\n    tag_132:\n        /* \"#utility.yul\":2777:2851   */\n      swap2\n      pop\n        /* \"#utility.yul\":2860:2953   */\n      tag_133\n        /* \"#utility.yul\":2949:2952   */\n      dup3\n        /* \"#utility.yul\":2860:2953   */\n      tag_134\n      jump\t// in\n    tag_133:\n        /* \"#utility.yul\":2978:2980   */\n      0x20\n        /* \"#utility.yul\":2973:2976   */\n      dup3\n        /* \"#utility.yul\":2969:2981   */\n      add\n        /* \"#utility.yul\":2962:2981   */\n      swap1\n      pop\n        /* \"#utility.yul\":2767:2987   */\n      swap2\n      swap1\n      pop\n      jump\t// out\n        /* \"#utility.yul\":2993:3359   */\n    tag_135:\n        /* \"#utility.yul\":3135:3138   */\n      0x00\n        /* \"#utility.yul\":3156:3223   */\n      tag_137\n        /* \"#utility.yul\":3220:3222   */\n      0x0d\n        /* \"#utility.yul\":3215:3218   */\n      dup4\n        /* \"#utility.yul\":3156:3223   */\n      tag_112\n      jump\t// in\n    tag_137:\n        /* \"#utility.yul\":3149:3223   */\n      swap2\n      pop\n        /* \"#utility.yul\":3232:3325   */\n      tag_138\n        /* \"#utility.yul\":3321:3324   */\n      dup3\n        /* \"#utility.yul\":3232:3325   */\n      tag_139\n      jump\t// in\n    tag_138:\n        /* \"#utility.yul\":3350:3352   */\n      0x20\n        /* \"#utility.yul\":3345:3348   */\n      dup3\n        /* \"#utility.yul\":3341:3353   */\n      add\n        /* \"#utility.yul\":3334:3353   */\n      swap1\n      pop\n        /* \"#utility.yul\":3139:3359   */\n      swap2\n      swap1\n      pop\n      jump\t// out\n        /* \"#utility.yul\":3365:3731   */\n    tag_140:\n        /* \"#utility.yul\":3507:3510   */\n      0x00\n        /* \"#utility.yul\":3528:3595   */\n      tag_142\n        /* \"#utility.yul\":3592:3594   */\n      0x10\n        /* \"#utility.yul\":3587:3590   */\n      dup4\n        /* \"#utility.yul\":3528:3595   */\n      tag_112\n      jump\t// in\n    tag_142:\n        /* \"#utility.yul\":3521:3595   */\n      swap2\n      pop\n        /* \"#utility.yul\":3604:3697   */\n      tag_143\n        /* \"#utility.yul\":3693:3696   */\n      dup3\n        /* \"#utility.yul\":3604:3697   */\n      tag_144\n      jump\t// in\n    tag_143:\n        /* \"#utility.yul\":3722:3724   */\n      0x20\n        /* \"#utility.yul\":3717:3720   */\n      dup3\n        /* \"#utility.yul\":3713:3725   */\n      add\n        /* \"#utility.yul\":3706:3725   */\n      swap1\n      pop\n        /* \"#utility.yul\":3511:3731   */\n      swap2\n      swap1\n      pop\n      jump\t// out\n        /* \"#utility.yul\":3737:4135   */\n    tag_145:\n        /* \"#utility.yul\":3896:3899   */\n      0x00\n        /* \"#utility.yul\":3917:4000   */\n      tag_147\n        /* \"#utility.yul\":3998:3999   */\n      0x00\n        /* \"#utility.yul\":3993:3996   */\n      dup4\n        /* \"#utility.yul\":3917:4000   */\n      tag_148\n      jump\t// in\n    tag_147:\n        /* \"#utility.yul\":3910:4000   */\n      swap2\n      pop\n        /* \"#utility.yul\":4009:4102   */\n      tag_149\n        /* \"#utility.yul\":4098:4101   */\n      dup3\n        /* \"#utility.yul\":4009:4102   */\n      tag_150\n      jump\t// in\n    tag_149:\n        /* \"#utility.yul\":4127:4128   */\n      0x00\n        /* \"#utility.yul\":4122:4125   */\n      dup3\n        /* \"#utility.yul\":4118:4129   */\n      add\n        /* \"#utility.yul\":4111:4129   */\n      swap1\n      pop\n        /* \"#utility.yul\":3900:4135   */\n      swap2\n      swap1\n      pop\n      jump\t// out\n        /* \"#utility.yul\":4141:4259   */\n    tag_151:\n        /* \"#utility.yul\":4228:4252   */\n      tag_153\n        /* \"#utility.yul\":4246:4251   */\n      dup2\n        /* \"#utility.yul\":4228:4252   */\n      tag_154\n      jump\t// in\n    tag_153:\n        /* \"#utility.yul\":4223:4226   */\n      dup3\n        /* \"#utility.yul\":4216:4253   */\n      mstore\n        /* \"#utility.yul\":4206:4259   */\n      pop\n      pop\n      jump\t// out\n        /* \"#utility.yul\":4265:4644   */\n    tag_35:\n        /* \"#utility.yul\":4449:4452   */\n      0x00\n        /* \"#utility.yul\":4471:4618   */\n      tag_156\n        /* \"#utility.yul\":4614:4617   */\n      dup3\n        /* \"#utility.yul\":4471:4618   */\n      tag_145\n      jump\t// in\n    tag_156:\n        /* \"#utility.yul\":4464:4618   */\n      swap2\n      pop\n        /* \"#utility.yul\":4635:4638   */\n      dup2\n        /* \"#utility.yul\":4628:4638   */\n      swap1\n      pop\n        /* \"#utility.yul\":4453:4644   */\n      swap2\n      swap1\n      pop\n      jump\t// out\n        /* \"#utility.yul\":4650:5092   */\n    tag_77:\n        /* \"#utility.yul\":4799:4803   */\n      0x00\n        /* \"#utility.yul\":4837:4839   */\n      0x60\n        /* \"#utility.yul\":4826:4835   */\n      dup3\n        /* \"#utility.yul\":4822:4840   */\n      add\n        /* \"#utility.yul\":4814:4840   */\n      swap1\n      pop\n        /* \"#utility.yul\":4850:4921   */\n      tag_158\n        /* \"#utility.yul\":4918:4919   */\n      0x00\n        /* \"#utility.yul\":4907:4916   */\n      dup4\n        /* \"#utility.yul\":4903:4920   */\n      add\n        /* \"#utility.yul\":4894:4900   */\n      dup7\n        /* \"#utility.yul\":4850:4921   */\n      tag_101\n      jump\t// in\n    tag_158:\n        /* \"#utility.yul\":4931:5003   */\n      tag_159\n        /* \"#utility.yul\":4999:5001   */\n      0x20\n        /* \"#utility.yul\":4988:4997   */\n      dup4\n        /* \"#utility.yul\":4984:5002   */\n      add\n        /* \"#utility.yul\":4975:4981   */\n      dup6\n        /* \"#utility.yul\":4931:5003   */\n      tag_101\n      jump\t// in\n    tag_159:\n        /* \"#utility.yul\":5013:5085   */\n      tag_160\n        /* \"#utility.yul\":5081:5083   */\n      0x40\n        /* \"#utility.yul\":5070:5079   */\n      dup4\n        /* \"#utility.yul\":5066:5084   */\n      add\n        /* \"#utility.yul\":5057:5063   */\n      dup5\n        /* \"#utility.yul\":5013:5085   */\n      tag_151\n      jump\t// in\n    tag_160:\n        /* \"#utility.yul\":4804:5092   */\n      swap5\n      swap4\n      pop\n      pop\n      pop\n      pop\n      jump\t// out\n        /* \"#utility.yul\":5098:5346   */\n    tag_12:\n        /* \"#utility.yul\":5204:5208   */\n      0x00\n        /* \"#utility.yul\":5242:5244   */\n      0x20\n        /* \"#utility.yul\":5231:5240   */\n      dup3\n        /* \"#utility.yul\":5227:5245   */\n      add\n        /* \"#utility.yul\":5219:5245   */\n      swap1\n      pop\n        /* \"#utility.yul\":5255:5339   */\n      tag_162\n        /* \"#utility.yul\":5336:5337   */\n      0x00\n        /* \"#utility.yul\":5325:5334   */\n      dup4\n        /* \"#utility.yul\":5321:5338   */\n      add\n        /* \"#utility.yul\":5312:5318   */\n      dup5\n        /* \"#utility.yul\":5255:5339   */\n      tag_105\n      jump\t// in\n    tag_162:\n        /* \"#utility.yul\":5209:5346   */\n      swap3\n      swap2\n      pop\n      pop\n      jump\t// out\n        /* \"#utility.yul\":5352:5771   */\n    tag_41:\n        /* \"#utility.yul\":5518:5522   */\n      0x00\n        /* \"#utility.yul\":5556:5558   */\n      0x20\n        /* \"#utility.yul\":5545:5554   */\n      dup3\n        /* \"#utility.yul\":5541:5559   */\n      add\n        /* \"#utility.yul\":5533:5559   */\n      swap1\n      pop\n        /* \"#utility.yul\":5605:5614   */\n      dup2\n        /* \"#utility.yul\":5599:5603   */\n      dup2\n        /* \"#utility.yul\":5595:5615   */\n      sub\n        /* \"#utility.yul\":5591:5592   */\n      0x00\n        /* \"#utility.yul\":5580:5589   */\n      dup4\n        /* \"#utility.yul\":5576:5593   */\n      add\n        /* \"#utility.yul\":5569:5616   */\n      mstore\n        /* \"#utility.yul\":5633:5764   */\n      tag_164\n        /* \"#utility.yul\":5759:5763   */\n      dup2\n        /* \"#utility.yul\":5633:5764   */\n      tag_109\n      jump\t// in\n    tag_164:\n        /* \"#utility.yul\":5625:5764   */\n      swap1\n      pop\n        /* \"#utility.yul\":5523:5771   */\n      swap2\n      swap1\n      pop\n      jump\t// out\n        /* \"#utility.yul\":5777:6196   */\n    tag_52:\n        /* \"#utility.yul\":5943:5947   */\n      0x00\n        /* \"#utility.yul\":5981:5983   */\n      0x20\n        /* \"#utility.yul\":5970:5979   */\n      dup3\n        /* \"#utility.yul\":5966:5984   */\n      add\n        /* \"#utility.yul\":5958:5984   */\n      swap1\n      pop\n        /* \"#utility.yul\":6030:6039   */\n      dup2\n        /* \"#utility.yul\":6024:6028   */\n      dup2\n        /* \"#utility.yul\":6020:6040   */\n      sub\n        /* \"#utility.yul\":6016:6017   */\n      0x00\n        /* \"#utility.yul\":6005:6014   */\n      dup4\n        /* \"#utility.yul\":6001:6018   */\n      add\n        /* \"#utility.yul\":5994:6041   */\n      mstore\n        /* \"#utility.yul\":6058:6189   */\n      tag_166\n        /* \"#utility.yul\":6184:6188   */\n      dup2\n        /* \"#utility.yul\":6058:6189   */\n      tag_115\n      jump\t// in\n    tag_166:\n        /* \"#utility.yul\":6050:6189   */\n      swap1\n      pop\n        /* \"#utility.yul\":5948:6196   */\n      swap2\n      swap1\n      pop\n      jump\t// out\n        /* \"#utility.yul\":6202:6621   */\n    tag_58:\n        /* \"#utility.yul\":6368:6372   */\n      0x00\n        /* \"#utility.yul\":6406:6408   */\n      0x20\n        /* \"#utility.yul\":6395:6404   */\n      dup3\n        /* \"#utility.yul\":6391:6409   */\n      add\n        /* \"#utility.yul\":6383:6409   */\n      swap1\n      pop\n        /* \"#utility.yul\":6455:6464   */\n      dup2\n        /* \"#utility.yul\":6449:6453   */\n      dup2\n        /* \"#utility.yul\":6445:6465   */\n      sub\n        /* \"#utility.yul\":6441:6442   */\n      0x00\n        /* \"#utility.yul\":6430:6439   */\n      dup4\n        /* \"#utility.yul\":6426:6443   */\n      add\n        /* \"#utility.yul\":6419:6466   */\n      mstore\n        /* \"#utility.yul\":6483:6614   */\n      tag_168\n        /* \"#utility.yul\":6609:6613   */\n      dup2\n        /* \"#utility.yul\":6483:6614   */\n      tag_120\n      jump\t// in\n    tag_168:\n        /* \"#utility.yul\":6475:6614   */\n      swap1\n      pop\n        /* \"#utility.yul\":6373:6621   */\n      swap2\n      swap1\n      pop\n      jump\t// out\n        /* \"#utility.yul\":6627:7046   */\n    tag_85:\n        /* \"#utility.yul\":6793:6797   */\n      0x00\n        /* \"#utility.yul\":6831:6833   */\n      0x20\n        /* \"#utility.yul\":6820:6829   */\n      dup3\n        /* \"#utility.yul\":6816:6834   */\n      add\n        /* \"#utility.yul\":6808:6834   */\n      swap1\n      pop\n        /* \"#utility.yul\":6880:6889   */\n      dup2\n        /* \"#utility.yul\":6874:6878   */\n      dup2\n        /* \"#utility.yul\":6870:6890   */\n      sub\n        /* \"#utility.yul\":6866:6867   */\n      0x00\n        /* \"#utility.yul\":6855:6864   */\n      dup4\n        /* \"#utility.yul\":6851:6868   */\n      add\n        /* \"#utility.yul\":6844:6891   */\n      mstore\n        /* \"#utility.yul\":6908:7039   */\n      tag_170\n        /* \"#utility.yul\":7034:7038   */\n      dup2\n        /* \"#utility.yul\":6908:7039   */\n      tag_125\n      jump\t// in\n    tag_170:\n        /* \"#utility.yul\":6900:7039   */\n      swap1\n      pop\n        /* \"#utility.yul\":6798:7046   */\n      swap2\n      swap1\n      pop\n      jump\t// out\n        /* \"#utility.yul\":7052:7471   */\n    tag_62:\n        /* \"#utility.yul\":7218:7222   */\n      0x00\n        /* \"#utility.yul\":7256:7258   */\n      0x20\n        /* \"#utility.yul\":7245:7254   */\n      dup3\n        /* \"#utility.yul\":7241:7259   */\n      add\n        /* \"#utility.yul\":7233:7259   */\n      swap1\n      pop\n        /* \"#utility.yul\":7305:7314   */\n      dup2\n        /* \"#utility.yul\":7299:7303   */\n      dup2\n        /* \"#utility.yul\":7295:7315   */\n      sub\n        /* \"#utility.yul\":7291:7292   */\n      0x00\n        /* \"#utility.yul\":7280:7289   */\n      dup4\n        /* \"#utility.yul\":7276:7293   */\n      add\n        /* \"#utility.yul\":7269:7316   */\n      mstore\n        /* \"#utility.yul\":7333:7464   */\n      tag_172\n        /* \"#utility.yul\":7459:7463   */\n      dup2\n        /* \"#utility.yul\":7333:7464   */\n      tag_130\n      jump\t// in\n    tag_172:\n        /* \"#utility.yul\":7325:7464   */\n      swap1\n      pop\n        /* \"#utility.yul\":7223:7471   */\n      swap2\n      swap1\n      pop\n      jump\t// out\n        /* \"#utility.yul\":7477:7896   */\n    tag_45:\n        /* \"#utility.yul\":7643:7647   */\n      0x00\n        /* \"#utility.yul\":7681:7683   */\n      0x20\n        /* \"#utility.yul\":7670:7679   */\n      dup3\n        /* \"#utility.yul\":7666:7684   */\n      add\n        /* \"#utility.yul\":7658:7684   */\n      swap1\n      pop\n        /* \"#utility.yul\":7730:7739   */\n      dup2\n        /* \"#utility.yul\":7724:7728   */\n      dup2\n        /* \"#utility.yul\":7720:7740   */\n      sub\n        /* \"#utility.yul\":7716:7717   */\n      0x00\n        /* \"#utility.yul\":7705:7714   */\n      dup4\n        /* \"#utility.yul\":7701:7718   */\n      add\n        /* \"#utility.yul\":7694:7741   */\n      mstore\n        /* \"#utility.yul\":7758:7889   */\n      tag_174\n        /* \"#utility.yul\":7884:7888   */\n      dup2\n        /* \"#utility.yul\":7758:7889   */\n      tag_135\n      jump\t// in\n    tag_174:\n        /* \"#utility.yul\":7750:7889   */\n      swap1\n      pop\n        /* \"#utility.yul\":7648:7896   */\n      swap2\n      swap1\n      pop\n      jump\t// out\n        /* \"#utility.yul\":7902:8321   */\n    tag_74:\n        /* \"#utility.yul\":8068:8072   */\n      0x00\n        /* \"#utility.yul\":8106:8108   */\n      0x20\n        /* \"#utility.yul\":8095:8104   */\n      dup3\n        /* \"#utility.yul\":8091:8109   */\n      add\n        /* \"#utility.yul\":8083:8109   */\n      swap1\n      pop\n        /* \"#utility.yul\":8155:8164   */\n      dup2\n        /* \"#utility.yul\":8149:8153   */\n      dup2\n        /* \"#utility.yul\":8145:8165   */\n      sub\n        /* \"#utility.yul\":8141:8142   */\n      0x00\n        /* \"#utility.yul\":8130:8139   */\n      dup4\n        /* \"#utility.yul\":8126:8143   */\n      add\n        /* \"#utility.yul\":8119:8166   */\n      mstore\n        /* \"#utility.yul\":8183:8314   */\n      tag_176\n        /* \"#utility.yul\":8309:8313   */\n      dup2\n        /* \"#utility.yul\":8183:8314   */\n      tag_140\n      jump\t// in\n    tag_176:\n        /* \"#utility.yul\":8175:8314   */\n      swap1\n      pop\n        /* \"#utility.yul\":8073:8321   */\n      swap2\n      swap1\n      pop\n      jump\t// out\n        /* \"#utility.yul\":8327:8549   */\n    tag_32:\n        /* \"#utility.yul\":8420:8424   */\n      0x00\n        /* \"#utility.yul\":8458:8460   */\n      0x20\n        /* \"#utility.yul\":8447:8456   */\n      dup3\n        /* \"#utility.yul\":8443:8461   */\n      add\n        /* \"#utility.yul\":8435:8461   */\n      swap1\n      pop\n        /* \"#utility.yul\":8471:8542   */\n      tag_178\n        /* \"#utility.yul\":8539:8540   */\n      0x00\n        /* \"#utility.yul\":8528:8537   */\n      dup4\n        /* \"#utility.yul\":8524:8541   */\n      add\n        /* \"#utility.yul\":8515:8521   */\n      dup5\n        /* \"#utility.yul\":8471:8542   */\n      tag_151\n      jump\t// in\n    tag_178:\n        /* \"#utility.yul\":8425:8549   */\n      swap3\n      swap2\n      pop\n      pop\n      jump\t// out\n        /* \"#utility.yul\":8555:8702   */\n    tag_148:\n        /* \"#utility.yul\":8656:8667   */\n      0x00\n        /* \"#utility.yul\":8693:8696   */\n      dup2\n        /* \"#utility.yul\":8678:8696   */\n      swap1\n      pop\n        /* \"#utility.yul\":8668:8702   */\n      swap3\n      swap2\n      pop\n      pop\n      jump\t// out\n        /* \"#utility.yul\":8708:8877   */\n    tag_112:\n        /* \"#utility.yul\":8792:8803   */\n      0x00\n        /* \"#utility.yul\":8826:8832   */\n      dup3\n        /* \"#utility.yul\":8821:8824   */\n      dup3\n        /* \"#utility.yul\":8814:8833   */\n      mstore\n        /* \"#utility.yul\":8866:8870   */\n      0x20\n        /* \"#utility.yul\":8861:8864   */\n      dup3\n        /* \"#utility.yul\":8857:8871   */\n      add\n        /* \"#utility.yul\":8842:8871   */\n      swap1\n      pop\n        /* \"#utility.yul\":8804:8877   */\n      swap3\n      swap2\n      pop\n      pop\n      jump\t// out\n        /* \"#utility.yul\":8883:9068   */\n    tag_47:\n        /* \"#utility.yul\":8923:8924   */\n      0x00\n        /* \"#utility.yul\":8940:8960   */\n      tag_182\n        /* \"#utility.yul\":8958:8959   */\n      dup3\n        /* \"#utility.yul\":8940:8960   */\n      tag_154\n      jump\t// in\n    tag_182:\n        /* \"#utility.yul\":8935:8960   */\n      swap2\n      pop\n        /* \"#utility.yul\":8974:8994   */\n      tag_183\n        /* \"#utility.yul\":8992:8993   */\n      dup4\n        /* \"#utility.yul\":8974:8994   */\n      tag_154\n      jump\t// in\n    tag_183:\n        /* \"#utility.yul\":8969:8994   */\n      swap3\n      pop\n        /* \"#utility.yul\":9013:9014   */\n      dup3\n        /* \"#utility.yul\":9003:9005   */\n      tag_184\n      jumpi\n        /* \"#utility.yul\":9018:9036   */\n      tag_185\n      tag_186\n      jump\t// in\n    tag_185:\n        /* \"#utility.yul\":9003:9005   */\n    tag_184:\n        /* \"#utility.yul\":9060:9061   */\n      dup3\n        /* \"#utility.yul\":9057:9058   */\n      dup3\n        /* \"#utility.yul\":9053:9062   */\n      div\n        /* \"#utility.yul\":9048:9062   */\n      swap1\n      pop\n        /* \"#utility.yul\":8925:9068   */\n      swap3\n      swap2\n      pop\n      pop\n      jump\t// out\n        /* \"#utility.yul\":9074:9422   */\n    tag_49:\n        /* \"#utility.yul\":9114:9121   */\n      0x00\n        /* \"#utility.yul\":9137:9157   */\n      tag_188\n        /* \"#utility.yul\":9155:9156   */\n      dup3\n        /* \"#utility.yul\":9137:9157   */\n      tag_154\n      jump\t// in\n    tag_188:\n        /* \"#utility.yul\":9132:9157   */\n      swap2\n      pop\n        /* \"#utility.yul\":9171:9191   */\n      tag_189\n        /* \"#utility.yul\":9189:9190   */\n      dup4\n        /* \"#utility.yul\":9171:9191   */\n      tag_154\n      jump\t// in\n    tag_189:\n        /* \"#utility.yul\":9166:9191   */\n      swap3\n      pop\n        /* \"#utility.yul\":9359:9360   */\n      dup2\n        /* \"#utility.yul\":9291:9357   */\n      0xffffffffffffffffffffffffffffffffffffffffffffffffffffffffffffffff\n        /* \"#utility.yul\":9287:9361   */\n      div\n        /* \"#utility.yul\":9284:9285   */\n      dup4\n        /* \"#utility.yul\":9281:9362   */\n      gt\n        /* \"#utility.yul\":9276:9277   */\n      dup3\n        /* \"#utility.yul\":9269:9278   */\n      iszero\n        /* \"#utility.yul\":9262:9279   */\n      iszero\n        /* \"#utility.yul\":9258:9363   */\n      and\n        /* \"#utility.yul\":9255:9257   */\n      iszero\n      tag_190\n      jumpi\n        /* \"#utility.yul\":9366:9384   */\n      tag_191\n      tag_192\n      jump\t// in\n    tag_191:\n        /* \"#utility.yul\":9255:9257   */\n    tag_190:\n        /* \"#utility.yul\":9414:9415   */\n      dup3\n        /* \"#utility.yul\":9411:9412   */\n      dup3\n        /* \"#utility.yul\":9407:9416   */\n      mul\n        /* \"#utility.yul\":9396:9416   */\n      swap1\n      pop\n        /* \"#utility.yul\":9122:9422   */\n      swap3\n      swap2\n      pop\n      pop\n      jump\t// out\n        /* \"#utility.yul\":9428:9524   */\n    tag_104:\n        /* \"#utility.yul\":9465:9472   */\n      0x00\n        /* \"#utility.yul\":9494:9518   */\n      tag_194\n        /* \"#utility.yul\":9512:9517   */\n      dup3\n        /* \"#utility.yul\":9494:9518   */\n      tag_195\n      jump\t// in\n    tag_194:\n        /* \"#utility.yul\":9483:9518   */\n      swap1\n      pop\n        /* \"#utility.yul\":9473:9524   */\n      swap2\n      swap1\n      pop\n      jump\t// out\n        /* \"#utility.yul\":9530:9620   */\n    tag_196:\n        /* \"#utility.yul\":9564:9571   */\n      0x00\n        /* \"#utility.yul\":9607:9612   */\n      dup2\n        /* \"#utility.yul\":9600:9613   */\n      iszero\n        /* \"#utility.yul\":9593:9614   */\n      iszero\n        /* \"#utility.yul\":9582:9614   */\n      swap1\n      pop\n        /* \"#utility.yul\":9572:9620   */\n      swap2\n      swap1\n      pop\n      jump\t// out\n        /* \"#utility.yul\":9626:9752   */\n    tag_195:\n        /* \"#utility.yul\":9663:9670   */\n      0x00\n        /* \"#utility.yul\":9703:9745   */\n      0xffffffffffffffffffffffffffffffffffffffff\n        /* \"#utility.yul\":9696:9701   */\n      dup3\n        /* \"#utility.yul\":9692:9746   */\n      and\n        /* \"#utility.yul\":9681:9746   */\n      swap1\n      pop\n        /* \"#utility.yul\":9671:9752   */\n      swap2\n      swap1\n      pop\n      jump\t// out\n        /* \"#utility.yul\":9758:9835   */\n    tag_154:\n        /* \"#utility.yul\":9795:9802   */\n      0x00\n        /* \"#utility.yul\":9824:9829   */\n      dup2\n        /* \"#utility.yul\":9813:9829   */\n      swap1\n      pop\n        /* \"#utility.yul\":9803:9835   */\n      swap2\n      swap1\n      pop\n      jump\t// out\n        /* \"#utility.yul\":9841:9993   */\n    tag_108:\n        /* \"#utility.yul\":9904:9913   */\n      0x00\n        /* \"#utility.yul\":9937:9987   */\n      tag_201\n        /* \"#utility.yul\":9981:9986   */\n      dup3\n        /* \"#utility.yul\":9937:9987   */\n      tag_202\n      jump\t// in\n    tag_201:\n        /* \"#utility.yul\":9924:9987   */\n      swap1\n      pop\n        /* \"#utility.yul\":9914:9993   */\n      swap2\n      swap1\n      pop\n      jump\t// out\n        /* \"#utility.yul\":9999:10125   */\n    tag_202:\n        /* \"#utility.yul\":10062:10071   */\n      0x00\n        /* \"#utility.yul\":10095:10119   */\n      tag_204\n        /* \"#utility.yul\":10113:10118   */\n      dup3\n        /* \"#utility.yul\":10095:10119   */\n      tag_195\n      jump\t// in\n    tag_204:\n        /* \"#utility.yul\":10082:10119   */\n      swap1\n      pop\n        /* \"#utility.yul\":10072:10125   */\n      swap2\n      swap1\n      pop\n      jump\t// out\n        /* \"#utility.yul\":10131:10311   */\n    tag_192:\n        /* \"#utility.yul\":10179:10256   */\n      0x4e487b7100000000000000000000000000000000000000000000000000000000\n        /* \"#utility.yul\":10176:10177   */\n      0x00\n        /* \"#utility.yul\":10169:10257   */\n      mstore\n        /* \"#utility.yul\":10276:10280   */\n      0x11\n        /* \"#utility.yul\":10273:10274   */\n      0x04\n        /* \"#utility.yul\":10266:10281   */\n      mstore\n        /* \"#utility.yul\":10300:10304   */\n      0x24\n        /* \"#utility.yul\":10297:10298   */\n      0x00\n        /* \"#utility.yul\":10290:10305   */\n      revert\n        /* \"#utility.yul\":10317:10497   */\n    tag_186:\n        /* \"#utility.yul\":10365:10442   */\n      0x4e487b7100000000000000000000000000000000000000000000000000000000\n        /* \"#utility.yul\":10362:10363   */\n      0x00\n        /* \"#utility.yul\":10355:10443   */\n      mstore\n        /* \"#utility.yul\":10462:10466   */\n      0x12\n        /* \"#utility.yul\":10459:10460   */\n      0x04\n        /* \"#utility.yul\":10452:10467   */\n      mstore\n        /* \"#utility.yul\":10486:10490   */\n      0x24\n        /* \"#utility.yul\":10483:10484   */\n      0x00\n        /* \"#utility.yul\":10476:10491   */\n      revert\n        /* \"#utility.yul\":10503:10673   */\n    tag_114:\n        /* \"#utility.yul\":10643:10665   */\n      0x4661696c656420746f2073656e64204574686572000000000000000000000000\n        /* \"#utility.yul\":10639:10640   */\n      0x00\n        /* \"#utility.yul\":10631:10637   */\n      dup3\n        /* \"#utility.yul\":10627:10641   */\n      add\n        /* \"#utility.yul\":10620:10666   */\n      mstore\n        /* \"#utility.yul\":10609:10673   */\n      pop\n      jump\t// out\n        /* \"#utility.yul\":10679:10839   */\n    tag_119:\n        /* \"#utility.yul\":10819:10831   */\n      0x4e6f7420656e6f75676800000000000000000000000000000000000000000000\n        /* \"#utility.yul\":10815:10816   */\n      0x00\n        /* \"#utility.yul\":10807:10813   */\n      dup3\n        /* \"#utility.yul\":10803:10817   */\n      add\n        /* \"#utility.yul\":10796:10832   */\n      mstore\n        /* \"#utility.yul\":10785:10839   */\n      pop\n      jump\t// out\n        /* \"#utility.yul\":10845:11003   */\n    tag_124:\n        /* \"#utility.yul\":10985:10995   */\n      0x6e6f746f776e6572000000000000000000000000000000000000000000000000\n        /* \"#utility.yul\":10981:10982   */\n      0x00\n        /* \"#utility.yul\":10973:10979   */\n      dup3\n        /* \"#utility.yul\":10969:10983   */\n      add\n        /* \"#utility.yul\":10962:10996   */\n      mstore\n        /* \"#utility.yul\":10951:11003   */\n      pop\n      jump\t// out\n        /* \"#utility.yul\":11009:11180   */\n    tag_129:\n        /* \"#utility.yul\":11149:11172   */\n      0x546f6b656e207472616e73666572206661696c65640000000000000000000000\n        /* \"#utility.yul\":11145:11146   */\n      0x00\n        /* \"#utility.yul\":11137:11143   */\n      dup3\n        /* \"#utility.yul\":11133:11147   */\n      add\n        /* \"#utility.yul\":11126:11173   */\n      mstore\n        /* \"#utility.yul\":11115:11180   */\n      pop\n      jump\t// out\n        /* \"#utility.yul\":11186:11350   */\n    tag_134:\n        /* \"#utility.yul\":11326:11342   */\n      0x4d696e696d756d2073656c6c2031000000000000000000000000000000000000\n        /* \"#utility.yul\":11322:11323   */\n      0x00\n        /* \"#utility.yul\":11314:11320   */\n      dup3\n        /* \"#utility.yul\":11310:11324   */\n      add\n        /* \"#utility.yul\":11303:11343   */\n      mstore\n        /* \"#utility.yul\":11292:11350   */\n      pop\n      jump\t// out\n        /* \"#utility.yul\":11356:11519   */\n    tag_139:\n        /* \"#utility.yul\":11496:11511   */\n      0x4d696e696d756d20627579203100000000000000000000000000000000000000\n        /* \"#utility.yul\":11492:11493   */\n      0x00\n        /* \"#utility.yul\":11484:11490   */\n      dup3\n        /* \"#utility.yul\":11480:11494   */\n      add\n        /* \"#utility.yul\":11473:11512   */\n      mstore\n        /* \"#utility.yul\":11462:11519   */\n      pop\n      jump\t// out\n        /* \"#utility.yul\":11525:11691   */\n    tag_144:\n        /* \"#utility.yul\":11665:11683   */\n      0x5472616e73666572206661696c65642100000000000000000000000000000000\n        /* \"#utility.yul\":11661:11662   */\n      0x00\n        /* \"#utility.yul\":11653:11659   */\n      dup3\n        /* \"#utility.yul\":11649:11663   */\n      add\n        /* \"#utility.yul\":11642:11684   */\n      mstore\n        /* \"#utility.yul\":11631:11691   */\n      pop\n      jump\t// out\n        /* \"#utility.yul\":11697:11811   */\n    tag_150:\n        /* \"#utility.yul\":11803:11811   */\n      pop\n      jump\t// out\n        /* \"#utility.yul\":11817:11933   */\n    tag_90:\n        /* \"#utility.yul\":11887:11908   */\n      tag_216\n        /* \"#utility.yul\":11902:11907   */\n      dup2\n        /* \"#utility.yul\":11887:11908   */\n      tag_196\n      jump\t// in\n    tag_216:\n        /* \"#utility.yul\":11880:11885   */\n      dup2\n        /* \"#utility.yul\":11877:11909   */\n      eq\n        /* \"#utility.yul\":11867:11869   */\n      tag_217\n      jumpi\n        /* \"#utility.yul\":11923:11924   */\n      0x00\n        /* \"#utility.yul\":11920:11921   */\n      dup1\n        /* \"#utility.yul\":11913:11925   */\n      revert\n        /* \"#utility.yul\":11867:11869   */\n    tag_217:\n        /* \"#utility.yul\":11857:11933   */\n      pop\n      jump\t// out\n        /* \"#utility.yul\":11939:12061   */\n    tag_94:\n        /* \"#utility.yul\":12012:12036   */\n      tag_219\n        /* \"#utility.yul\":12030:12035   */\n      dup2\n        /* \"#utility.yul\":12012:12036   */\n      tag_154\n      jump\t// in\n    tag_219:\n        /* \"#utility.yul\":12005:12010   */\n      dup2\n        /* \"#utility.yul\":12002:12037   */\n      eq\n        /* \"#utility.yul\":11992:11994   */\n      tag_220\n      jumpi\n        /* \"#utility.yul\":12051:12052   */\n      0x00\n        /* \"#utility.yul\":12048:12049   */\n      dup1\n        /* \"#utility.yul\":12041:12053   */\n      revert\n        /* \"#utility.yul\":11992:11994   */\n    tag_220:\n        /* \"#utility.yul\":11982:12061   */\n      pop\n      jump\t// out\n\n    auxdata: 0xa264697066735822122070550248becd792ed9e4ff8ec788599bc4dd9c4990c830ccbd563222e6b2f98664736f6c63430008040033\n}\n",
				"bytecode": {
					"linkReferences": {},
					"object": "608060405234801561001057600080fd5b50336000806101000a81548173ffffffffffffffffffffffffffffffffffffffff021916908373ffffffffffffffffffffffffffffffffffffffff16021790555062030d4060018190555073358aa13c52544eccef6b0add0f801012adad5ee3600260006101000a81548173ffffffffffffffffffffffffffffffffffffffff021916908373ffffffffffffffffffffffffffffffffffffffff160217905550610c2c806100bf6000396000f3fe6080604052600436106100555760003560e01c806323b160ac1461005a5780633cb40e161461008557806380c314261461009c578063817e9d31146100b8578063ade87ecc146100e1578063ebc4197c1461010a575b600080fd5b34801561006657600080fd5b5061006f610135565b60405161007c919061081f565b60405180910390f35b34801561009157600080fd5b5061009a61015b565b005b6100b660048036038101906100b19190610665565b61022b565b005b3480156100c457600080fd5b506100df60048036038101906100da9190610665565b61030a565b005b3480156100ed57600080fd5b5061010860048036038101906101039190610665565b6103a2565b005b34801561011657600080fd5b5061011f610532565b60405161012c919061091a565b60405180910390f35b600260009054906101000a900473ffffffffffffffffffffffffffffffffffffffff1681565b60008060009054906101000a900473ffffffffffffffffffffffffffffffffffffffff1673ffffffffffffffffffffffffffffffffffffffff16476040516101a2906107d3565b60006040518083038185875af1925050503d80600081146101df576040519150601f19603f3d011682016040523d82523d6000602084013e6101e4565b606091505b5050905080610228576040517f08c379a000000000000000000000000000000000000000000000000000000000815260040161021f9061083a565b60405180910390fd5b50565b612710811015610270576040517f08c379a0000000000000000000000000000000000000000000000000000000008152600401610267906108da565b60405180910390fd5b6000670de0b6b3a7640000600154836102899190610951565b6102939190610982565b9050803410156102d8576040517f08c379a00000000000000000000000000000000000000000000000000000000081526004016102cf9061085a565b60405180910390fd5b610306600260009054906101000a900473ffffffffffffffffffffffffffffffffffffffff16303385610538565b5050565b60008054906101000a900473ffffffffffffffffffffffffffffffffffffffff1673ffffffffffffffffffffffffffffffffffffffff163373ffffffffffffffffffffffffffffffffffffffff1614610398576040517f08c379a000000000000000000000000000000000000000000000000000000000815260040161038f9061087a565b60405180910390fd5b8060018190555050565b6127108110156103e7576040517f08c379a00000000000000000000000000000000000000000000000000000000081526004016103de906108ba565b60405180910390fd5b610415600260009054906101000a900473ffffffffffffffffffffffffffffffffffffffff16333084610538565b6000670de0b6b3a76400006001548361042e9190610951565b6104389190610982565b90503373ffffffffffffffffffffffffffffffffffffffff166108fc829081150290604051600060405180830381858888f19350505050158015610480573d6000803e3d6000fd5b5060003373ffffffffffffffffffffffffffffffffffffffff16826040516104a7906107d3565b60006040518083038185875af1925050503d80600081146104e4576040519150601f19603f3d011682016040523d82523d6000602084013e6104e9565b606091505b505090508061052d576040517f08c379a0000000000000000000000000000000000000000000000000000000008152600401610524906108fa565b60405180910390fd5b505050565b60015481565b60008473ffffffffffffffffffffffffffffffffffffffff166323b872dd8585856040518463ffffffff1660e01b8152600401610577939291906107e8565b602060405180830381600087803b15801561059157600080fd5b505af11580156105a5573d6000803e3d6000fd5b505050506040513d601f19601f820116820180604052508101906105c9919061063c565b90508061060b576040517f08c379a00000000000000000000000000000000000000000000000000000000081526004016106029061089a565b60405180910390fd5b5050505050565b60008151905061062181610bc8565b92915050565b60008135905061063681610bdf565b92915050565b60006020828403121561064e57600080fd5b600061065c84828501610612565b91505092915050565b60006020828403121561067757600080fd5b600061068584828501610627565b91505092915050565b610697816109dc565b82525050565b6106a681610a24565b82525050565b60006106b9601483610940565b91506106c482610aa6565b602082019050919050565b60006106dc600a83610940565b91506106e782610acf565b602082019050919050565b60006106ff600883610940565b915061070a82610af8565b602082019050919050565b6000610722601583610940565b915061072d82610b21565b602082019050919050565b6000610745600e83610940565b915061075082610b4a565b602082019050919050565b6000610768600d83610940565b915061077382610b73565b602082019050919050565b600061078b601083610940565b915061079682610b9c565b602082019050919050565b60006107ae600083610935565b91506107b982610bc5565b600082019050919050565b6107cd81610a1a565b82525050565b60006107de826107a1565b9150819050919050565b60006060820190506107fd600083018661068e565b61080a602083018561068e565b61081760408301846107c4565b949350505050565b6000602082019050610834600083018461069d565b92915050565b60006020820190508181036000830152610853816106ac565b9050919050565b60006020820190508181036000830152610873816106cf565b9050919050565b60006020820190508181036000830152610893816106f2565b9050919050565b600060208201905081810360008301526108b381610715565b9050919050565b600060208201905081810360008301526108d381610738565b9050919050565b600060208201905081810360008301526108f38161075b565b9050919050565b600060208201905081810360008301526109138161077e565b9050919050565b600060208201905061092f60008301846107c4565b92915050565b600081905092915050565b600082825260208201905092915050565b600061095c82610a1a565b915061096783610a1a565b92508261097757610976610a77565b5b828204905092915050565b600061098d82610a1a565b915061099883610a1a565b9250817fffffffffffffffffffffffffffffffffffffffffffffffffffffffffffffffff04831182151516156109d1576109d0610a48565b5b828202905092915050565b60006109e7826109fa565b9050919050565b60008115159050919050565b600073ffffffffffffffffffffffffffffffffffffffff82169050919050565b6000819050919050565b6000610a2f82610a36565b9050919050565b6000610a41826109fa565b9050919050565b7f4e487b7100000000000000000000000000000000000000000000000000000000600052601160045260246000fd5b7f4e487b7100000000000000000000000000000000000000000000000000000000600052601260045260246000fd5b7f4661696c656420746f2073656e64204574686572000000000000000000000000600082015250565b7f4e6f7420656e6f75676800000000000000000000000000000000000000000000600082015250565b7f6e6f746f776e6572000000000000000000000000000000000000000000000000600082015250565b7f546f6b656e207472616e73666572206661696c65640000000000000000000000600082015250565b7f4d696e696d756d2073656c6c2031000000000000000000000000000000000000600082015250565b7f4d696e696d756d20627579203100000000000000000000000000000000000000600082015250565b7f5472616e73666572206661696c65642100000000000000000000000000000000600082015250565b50565b610bd1816109ee565b8114610bdc57600080fd5b50565b610be881610a1a565b8114610bf357600080fd5b5056fea264697066735822122070550248becd792ed9e4ff8ec788599bc4dd9c4990c830ccbd563222e6b2f98664736f6c63430008040033",
					"opcodes": "PUSH1 0x80 PUSH1 0x40 MSTORE CALLVALUE DUP1 ISZERO PUSH2 0x10 JUMPI PUSH1 0x0 DUP1 REVERT JUMPDEST POP CALLER PUSH1 0x0 DUP1 PUSH2 0x100 EXP DUP2 SLOAD DUP2 PUSH20 0xFFFFFFFFFFFFFFFFFFFFFFFFFFFFFFFFFFFFFFFF MUL NOT AND SWAP1 DUP4 PUSH20 0xFFFFFFFFFFFFFFFFFFFFFFFFFFFFFFFFFFFFFFFF AND MUL OR SWAP1 SSTORE POP PUSH3 0x30D40 PUSH1 0x1 DUP2 SWAP1 SSTORE POP PUSH20 0x358AA13C52544ECCEF6B0ADD0F801012ADAD5EE3 PUSH1 0x2 PUSH1 0x0 PUSH2 0x100 EXP DUP2 SLOAD DUP2 PUSH20 0xFFFFFFFFFFFFFFFFFFFFFFFFFFFFFFFFFFFFFFFF MUL NOT AND SWAP1 DUP4 PUSH20 0xFFFFFFFFFFFFFFFFFFFFFFFFFFFFFFFFFFFFFFFF AND MUL OR SWAP1 SSTORE POP PUSH2 0xC2C DUP1 PUSH2 0xBF PUSH1 0x0 CODECOPY PUSH1 0x0 RETURN INVALID PUSH1 0x80 PUSH1 0x40 MSTORE PUSH1 0x4 CALLDATASIZE LT PUSH2 0x55 JUMPI PUSH1 0x0 CALLDATALOAD PUSH1 0xE0 SHR DUP1 PUSH4 0x23B160AC EQ PUSH2 0x5A JUMPI DUP1 PUSH4 0x3CB40E16 EQ PUSH2 0x85 JUMPI DUP1 PUSH4 0x80C31426 EQ PUSH2 0x9C JUMPI DUP1 PUSH4 0x817E9D31 EQ PUSH2 0xB8 JUMPI DUP1 PUSH4 0xADE87ECC EQ PUSH2 0xE1 JUMPI DUP1 PUSH4 0xEBC4197C EQ PUSH2 0x10A JUMPI JUMPDEST PUSH1 0x0 DUP1 REVERT JUMPDEST CALLVALUE DUP1 ISZERO PUSH2 0x66 JUMPI PUSH1 0x0 DUP1 REVERT JUMPDEST POP PUSH2 0x6F PUSH2 0x135 JUMP JUMPDEST PUSH1 0x40 MLOAD PUSH2 0x7C SWAP2 SWAP1 PUSH2 0x81F JUMP JUMPDEST PUSH1 0x40 MLOAD DUP1 SWAP2 SUB SWAP1 RETURN JUMPDEST CALLVALUE DUP1 ISZERO PUSH2 0x91 JUMPI PUSH1 0x0 DUP1 REVERT JUMPDEST POP PUSH2 0x9A PUSH2 0x15B JUMP JUMPDEST STOP JUMPDEST PUSH2 0xB6 PUSH1 0x4 DUP1 CALLDATASIZE SUB DUP2 ADD SWAP1 PUSH2 0xB1 SWAP2 SWAP1 PUSH2 0x665 JUMP JUMPDEST PUSH2 0x22B JUMP JUMPDEST STOP JUMPDEST CALLVALUE DUP1 ISZERO PUSH2 0xC4 JUMPI PUSH1 0x0 DUP1 REVERT JUMPDEST POP PUSH2 0xDF PUSH1 0x4 DUP1 CALLDATASIZE SUB DUP2 ADD SWAP1 PUSH2 0xDA SWAP2 SWAP1 PUSH2 0x665 JUMP JUMPDEST PUSH2 0x30A JUMP JUMPDEST STOP JUMPDEST CALLVALUE DUP1 ISZERO PUSH2 0xED JUMPI PUSH1 0x0 DUP1 REVERT JUMPDEST POP PUSH2 0x108 PUSH1 0x4 DUP1 CALLDATASIZE SUB DUP2 ADD SWAP1 PUSH2 0x103 SWAP2 SWAP1 PUSH2 0x665 JUMP JUMPDEST PUSH2 0x3A2 JUMP JUMPDEST STOP JUMPDEST CALLVALUE DUP1 ISZERO PUSH2 0x116 JUMPI PUSH1 0x0 DUP1 REVERT JUMPDEST POP PUSH2 0x11F PUSH2 0x532 JUMP JUMPDEST PUSH1 0x40 MLOAD PUSH2 0x12C SWAP2 SWAP1 PUSH2 0x91A JUMP JUMPDEST PUSH1 0x40 MLOAD DUP1 SWAP2 SUB SWAP1 RETURN JUMPDEST PUSH1 0x2 PUSH1 0x0 SWAP1 SLOAD SWAP1 PUSH2 0x100 EXP SWAP1 DIV PUSH20 0xFFFFFFFFFFFFFFFFFFFFFFFFFFFFFFFFFFFFFFFF AND DUP2 JUMP JUMPDEST PUSH1 0x0 DUP1 PUSH1 0x0 SWAP1 SLOAD SWAP1 PUSH2 0x100 EXP SWAP1 DIV PUSH20 0xFFFFFFFFFFFFFFFFFFFFFFFFFFFFFFFFFFFFFFFF AND PUSH20 0xFFFFFFFFFFFFFFFFFFFFFFFFFFFFFFFFFFFFFFFF AND SELFBALANCE PUSH1 0x40 MLOAD PUSH2 0x1A2 SWAP1 PUSH2 0x7D3 JUMP JUMPDEST PUSH1 0x0 PUSH1 0x40 MLOAD DUP1 DUP4 SUB DUP2 DUP6 DUP8 GAS CALL SWAP3 POP POP POP RETURNDATASIZE DUP1 PUSH1 0x0 DUP2 EQ PUSH2 0x1DF JUMPI PUSH1 0x40 MLOAD SWAP2 POP PUSH1 0x1F NOT PUSH1 0x3F RETURNDATASIZE ADD AND DUP3 ADD PUSH1 0x40 MSTORE RETURNDATASIZE DUP3 MSTORE RETURNDATASIZE PUSH1 0x0 PUSH1 0x20 DUP5 ADD RETURNDATACOPY PUSH2 0x1E4 JUMP JUMPDEST PUSH1 0x60 SWAP2 POP JUMPDEST POP POP SWAP1 POP DUP1 PUSH2 0x228 JUMPI PUSH1 0x40 MLOAD PUSH32 0x8C379A000000000000000000000000000000000000000000000000000000000 DUP2 MSTORE PUSH1 0x4 ADD PUSH2 0x21F SWAP1 PUSH2 0x83A JUMP JUMPDEST PUSH1 0x40 MLOAD DUP1 SWAP2 SUB SWAP1 REVERT JUMPDEST POP JUMP JUMPDEST PUSH2 0x2710 DUP2 LT ISZERO PUSH2 0x270 JUMPI PUSH1 0x40 MLOAD PUSH32 0x8C379A000000000000000000000000000000000000000000000000000000000 DUP2 MSTORE PUSH1 0x4 ADD PUSH2 0x267 SWAP1 PUSH2 0x8DA JUMP JUMPDEST PUSH1 0x40 MLOAD DUP1 SWAP2 SUB SWAP1 REVERT JUMPDEST PUSH1 0x0 PUSH8 0xDE0B6B3A7640000 PUSH1 0x1 SLOAD DUP4 PUSH2 0x289 SWAP2 SWAP1 PUSH2 0x951 JUMP JUMPDEST PUSH2 0x293 SWAP2 SWAP1 PUSH2 0x982 JUMP JUMPDEST SWAP1 POP DUP1 CALLVALUE LT ISZERO PUSH2 0x2D8 JUMPI PUSH1 0x40 MLOAD PUSH32 0x8C379A000000000000000000000000000000000000000000000000000000000 DUP2 MSTORE PUSH1 0x4 ADD PUSH2 0x2CF SWAP1 PUSH2 0x85A JUMP JUMPDEST PUSH1 0x40 MLOAD DUP1 SWAP2 SUB SWAP1 REVERT JUMPDEST PUSH2 0x306 PUSH1 0x2 PUSH1 0x0 SWAP1 SLOAD SWAP1 PUSH2 0x100 EXP SWAP1 DIV PUSH20 0xFFFFFFFFFFFFFFFFFFFFFFFFFFFFFFFFFFFFFFFF AND ADDRESS CALLER DUP6 PUSH2 0x538 JUMP JUMPDEST POP POP JUMP JUMPDEST PUSH1 0x0 DUP1 SLOAD SWAP1 PUSH2 0x100 EXP SWAP1 DIV PUSH20 0xFFFFFFFFFFFFFFFFFFFFFFFFFFFFFFFFFFFFFFFF AND PUSH20 0xFFFFFFFFFFFFFFFFFFFFFFFFFFFFFFFFFFFFFFFF AND CALLER PUSH20 0xFFFFFFFFFFFFFFFFFFFFFFFFFFFFFFFFFFFFFFFF AND EQ PUSH2 0x398 JUMPI PUSH1 0x40 MLOAD PUSH32 0x8C379A000000000000000000000000000000000000000000000000000000000 DUP2 MSTORE PUSH1 0x4 ADD PUSH2 0x38F SWAP1 PUSH2 0x87A JUMP JUMPDEST PUSH1 0x40 MLOAD DUP1 SWAP2 SUB SWAP1 REVERT JUMPDEST DUP1 PUSH1 0x1 DUP2 SWAP1 SSTORE POP POP JUMP JUMPDEST PUSH2 0x2710 DUP2 LT ISZERO PUSH2 0x3E7 JUMPI PUSH1 0x40 MLOAD PUSH32 0x8C379A000000000000000000000000000000000000000000000000000000000 DUP2 MSTORE PUSH1 0x4 ADD PUSH2 0x3DE SWAP1 PUSH2 0x8BA JUMP JUMPDEST PUSH1 0x40 MLOAD DUP1 SWAP2 SUB SWAP1 REVERT JUMPDEST PUSH2 0x415 PUSH1 0x2 PUSH1 0x0 SWAP1 SLOAD SWAP1 PUSH2 0x100 EXP SWAP1 DIV PUSH20 0xFFFFFFFFFFFFFFFFFFFFFFFFFFFFFFFFFFFFFFFF AND CALLER ADDRESS DUP5 PUSH2 0x538 JUMP JUMPDEST PUSH1 0x0 PUSH8 0xDE0B6B3A7640000 PUSH1 0x1 SLOAD DUP4 PUSH2 0x42E SWAP2 SWAP1 PUSH2 0x951 JUMP JUMPDEST PUSH2 0x438 SWAP2 SWAP1 PUSH2 0x982 JUMP JUMPDEST SWAP1 POP CALLER PUSH20 0xFFFFFFFFFFFFFFFFFFFFFFFFFFFFFFFFFFFFFFFF AND PUSH2 0x8FC DUP3 SWAP1 DUP2 ISZERO MUL SWAP1 PUSH1 0x40 MLOAD PUSH1 0x0 PUSH1 0x40 MLOAD DUP1 DUP4 SUB DUP2 DUP6 DUP9 DUP9 CALL SWAP4 POP POP POP POP ISZERO DUP1 ISZERO PUSH2 0x480 JUMPI RETURNDATASIZE PUSH1 0x0 DUP1 RETURNDATACOPY RETURNDATASIZE PUSH1 0x0 REVERT JUMPDEST POP PUSH1 0x0 CALLER PUSH20 0xFFFFFFFFFFFFFFFFFFFFFFFFFFFFFFFFFFFFFFFF AND DUP3 PUSH1 0x40 MLOAD PUSH2 0x4A7 SWAP1 PUSH2 0x7D3 JUMP JUMPDEST PUSH1 0x0 PUSH1 0x40 MLOAD DUP1 DUP4 SUB DUP2 DUP6 DUP8 GAS CALL SWAP3 POP POP POP RETURNDATASIZE DUP1 PUSH1 0x0 DUP2 EQ PUSH2 0x4E4 JUMPI PUSH1 0x40 MLOAD SWAP2 POP PUSH1 0x1F NOT PUSH1 0x3F RETURNDATASIZE ADD AND DUP3 ADD PUSH1 0x40 MSTORE RETURNDATASIZE DUP3 MSTORE RETURNDATASIZE PUSH1 0x0 PUSH1 0x20 DUP5 ADD RETURNDATACOPY PUSH2 0x4E9 JUMP JUMPDEST PUSH1 0x60 SWAP2 POP JUMPDEST POP POP SWAP1 POP DUP1 PUSH2 0x52D JUMPI PUSH1 0x40 MLOAD PUSH32 0x8C379A000000000000000000000000000000000000000000000000000000000 DUP2 MSTORE PUSH1 0x4 ADD PUSH2 0x524 SWAP1 PUSH2 0x8FA JUMP JUMPDEST PUSH1 0x40 MLOAD DUP1 SWAP2 SUB SWAP1 REVERT JUMPDEST POP POP POP JUMP JUMPDEST PUSH1 0x1 SLOAD DUP2 JUMP JUMPDEST PUSH1 0x0 DUP5 PUSH20 0xFFFFFFFFFFFFFFFFFFFFFFFFFFFFFFFFFFFFFFFF AND PUSH4 0x23B872DD DUP6 DUP6 DUP6 PUSH1 0x40 MLOAD DUP5 PUSH4 0xFFFFFFFF AND PUSH1 0xE0 SHL DUP2 MSTORE PUSH1 0x4 ADD PUSH2 0x577 SWAP4 SWAP3 SWAP2 SWAP1 PUSH2 0x7E8 JUMP JUMPDEST PUSH1 0x20 PUSH1 0x40 MLOAD DUP1 DUP4 SUB DUP2 PUSH1 0x0 DUP8 DUP1 EXTCODESIZE ISZERO DUP1 ISZERO PUSH2 0x591 JUMPI PUSH1 0x0 DUP1 REVERT JUMPDEST POP GAS CALL ISZERO DUP1 ISZERO PUSH2 0x5A5 JUMPI RETURNDATASIZE PUSH1 0x0 DUP1 RETURNDATACOPY RETURNDATASIZE PUSH1 0x0 REVERT JUMPDEST POP POP POP POP PUSH1 0x40 MLOAD RETURNDATASIZE PUSH1 0x1F NOT PUSH1 0x1F DUP3 ADD AND DUP3 ADD DUP1 PUSH1 0x40 MSTORE POP DUP2 ADD SWAP1 PUSH2 0x5C9 SWAP2 SWAP1 PUSH2 0x63C JUMP JUMPDEST SWAP1 POP DUP1 PUSH2 0x60B JUMPI PUSH1 0x40 MLOAD PUSH32 0x8C379A000000000000000000000000000000000000000000000000000000000 DUP2 MSTORE PUSH1 0x4 ADD PUSH2 0x602 SWAP1 PUSH2 0x89A JUMP JUMPDEST PUSH1 0x40 MLOAD DUP1 SWAP2 SUB SWAP1 REVERT JUMPDEST POP POP POP POP POP JUMP JUMPDEST PUSH1 0x0 DUP2 MLOAD SWAP1 POP PUSH2 0x621 DUP2 PUSH2 0xBC8 JUMP JUMPDEST SWAP3 SWAP2 POP POP JUMP JUMPDEST PUSH1 0x0 DUP2 CALLDATALOAD SWAP1 POP PUSH2 0x636 DUP2 PUSH2 0xBDF JUMP JUMPDEST SWAP3 SWAP2 POP POP JUMP JUMPDEST PUSH1 0x0 PUSH1 0x20 DUP3 DUP5 SUB SLT ISZERO PUSH2 0x64E JUMPI PUSH1 0x0 DUP1 REVERT JUMPDEST PUSH1 0x0 PUSH2 0x65C DUP5 DUP3 DUP6 ADD PUSH2 0x612 JUMP JUMPDEST SWAP2 POP POP SWAP3 SWAP2 POP POP JUMP JUMPDEST PUSH1 0x0 PUSH1 0x20 DUP3 DUP5 SUB SLT ISZERO PUSH2 0x677 JUMPI PUSH1 0x0 DUP1 REVERT JUMPDEST PUSH1 0x0 PUSH2 0x685 DUP5 DUP3 DUP6 ADD PUSH2 0x627 JUMP JUMPDEST SWAP2 POP POP SWAP3 SWAP2 POP POP JUMP JUMPDEST PUSH2 0x697 DUP2 PUSH2 0x9DC JUMP JUMPDEST DUP3 MSTORE POP POP JUMP JUMPDEST PUSH2 0x6A6 DUP2 PUSH2 0xA24 JUMP JUMPDEST DUP3 MSTORE POP POP JUMP JUMPDEST PUSH1 0x0 PUSH2 0x6B9 PUSH1 0x14 DUP4 PUSH2 0x940 JUMP JUMPDEST SWAP2 POP PUSH2 0x6C4 DUP3 PUSH2 0xAA6 JUMP JUMPDEST PUSH1 0x20 DUP3 ADD SWAP1 POP SWAP2 SWAP1 POP JUMP JUMPDEST PUSH1 0x0 PUSH2 0x6DC PUSH1 0xA DUP4 PUSH2 0x940 JUMP JUMPDEST SWAP2 POP PUSH2 0x6E7 DUP3 PUSH2 0xACF JUMP JUMPDEST PUSH1 0x20 DUP3 ADD SWAP1 POP SWAP2 SWAP1 POP JUMP JUMPDEST PUSH1 0x0 PUSH2 0x6FF PUSH1 0x8 DUP4 PUSH2 0x940 JUMP JUMPDEST SWAP2 POP PUSH2 0x70A DUP3 PUSH2 0xAF8 JUMP JUMPDEST PUSH1 0x20 DUP3 ADD SWAP1 POP SWAP2 SWAP1 POP JUMP JUMPDEST PUSH1 0x0 PUSH2 0x722 PUSH1 0x15 DUP4 PUSH2 0x940 JUMP JUMPDEST SWAP2 POP PUSH2 0x72D DUP3 PUSH2 0xB21 JUMP JUMPDEST PUSH1 0x20 DUP3 ADD SWAP1 POP SWAP2 SWAP1 POP JUMP JUMPDEST PUSH1 0x0 PUSH2 0x745 PUSH1 0xE DUP4 PUSH2 0x940 JUMP JUMPDEST SWAP2 POP PUSH2 0x750 DUP3 PUSH2 0xB4A JUMP JUMPDEST PUSH1 0x20 DUP3 ADD SWAP1 POP SWAP2 SWAP1 POP JUMP JUMPDEST PUSH1 0x0 PUSH2 0x768 PUSH1 0xD DUP4 PUSH2 0x940 JUMP JUMPDEST SWAP2 POP PUSH2 0x773 DUP3 PUSH2 0xB73 JUMP JUMPDEST PUSH1 0x20 DUP3 ADD SWAP1 POP SWAP2 SWAP1 POP JUMP JUMPDEST PUSH1 0x0 PUSH2 0x78B PUSH1 0x10 DUP4 PUSH2 0x940 JUMP JUMPDEST SWAP2 POP PUSH2 0x796 DUP3 PUSH2 0xB9C JUMP JUMPDEST PUSH1 0x20 DUP3 ADD SWAP1 POP SWAP2 SWAP1 POP JUMP JUMPDEST PUSH1 0x0 PUSH2 0x7AE PUSH1 0x0 DUP4 PUSH2 0x935 JUMP JUMPDEST SWAP2 POP PUSH2 0x7B9 DUP3 PUSH2 0xBC5 JUMP JUMPDEST PUSH1 0x0 DUP3 ADD SWAP1 POP SWAP2 SWAP1 POP JUMP JUMPDEST PUSH2 0x7CD DUP2 PUSH2 0xA1A JUMP JUMPDEST DUP3 MSTORE POP POP JUMP JUMPDEST PUSH1 0x0 PUSH2 0x7DE DUP3 PUSH2 0x7A1 JUMP JUMPDEST SWAP2 POP DUP2 SWAP1 POP SWAP2 SWAP1 POP JUMP JUMPDEST PUSH1 0x0 PUSH1 0x60 DUP3 ADD SWAP1 POP PUSH2 0x7FD PUSH1 0x0 DUP4 ADD DUP7 PUSH2 0x68E JUMP JUMPDEST PUSH2 0x80A PUSH1 0x20 DUP4 ADD DUP6 PUSH2 0x68E JUMP JUMPDEST PUSH2 0x817 PUSH1 0x40 DUP4 ADD DUP5 PUSH2 0x7C4 JUMP JUMPDEST SWAP5 SWAP4 POP POP POP POP JUMP JUMPDEST PUSH1 0x0 PUSH1 0x20 DUP3 ADD SWAP1 POP PUSH2 0x834 PUSH1 0x0 DUP4 ADD DUP5 PUSH2 0x69D JUMP JUMPDEST SWAP3 SWAP2 POP POP JUMP JUMPDEST PUSH1 0x0 PUSH1 0x20 DUP3 ADD SWAP1 POP DUP2 DUP2 SUB PUSH1 0x0 DUP4 ADD MSTORE PUSH2 0x853 DUP2 PUSH2 0x6AC JUMP JUMPDEST SWAP1 POP SWAP2 SWAP1 POP JUMP JUMPDEST PUSH1 0x0 PUSH1 0x20 DUP3 ADD SWAP1 POP DUP2 DUP2 SUB PUSH1 0x0 DUP4 ADD MSTORE PUSH2 0x873 DUP2 PUSH2 0x6CF JUMP JUMPDEST SWAP1 POP SWAP2 SWAP1 POP JUMP JUMPDEST PUSH1 0x0 PUSH1 0x20 DUP3 ADD SWAP1 POP DUP2 DUP2 SUB PUSH1 0x0 DUP4 ADD MSTORE PUSH2 0x893 DUP2 PUSH2 0x6F2 JUMP JUMPDEST SWAP1 POP SWAP2 SWAP1 POP JUMP JUMPDEST PUSH1 0x0 PUSH1 0x20 DUP3 ADD SWAP1 POP DUP2 DUP2 SUB PUSH1 0x0 DUP4 ADD MSTORE PUSH2 0x8B3 DUP2 PUSH2 0x715 JUMP JUMPDEST SWAP1 POP SWAP2 SWAP1 POP JUMP JUMPDEST PUSH1 0x0 PUSH1 0x20 DUP3 ADD SWAP1 POP DUP2 DUP2 SUB PUSH1 0x0 DUP4 ADD MSTORE PUSH2 0x8D3 DUP2 PUSH2 0x738 JUMP JUMPDEST SWAP1 POP SWAP2 SWAP1 POP JUMP JUMPDEST PUSH1 0x0 PUSH1 0x20 DUP3 ADD SWAP1 POP DUP2 DUP2 SUB PUSH1 0x0 DUP4 ADD MSTORE PUSH2 0x8F3 DUP2 PUSH2 0x75B JUMP JUMPDEST SWAP1 POP SWAP2 SWAP1 POP JUMP JUMPDEST PUSH1 0x0 PUSH1 0x20 DUP3 ADD SWAP1 POP DUP2 DUP2 SUB PUSH1 0x0 DUP4 ADD MSTORE PUSH2 0x913 DUP2 PUSH2 0x77E JUMP JUMPDEST SWAP1 POP SWAP2 SWAP1 POP JUMP JUMPDEST PUSH1 0x0 PUSH1 0x20 DUP3 ADD SWAP1 POP PUSH2 0x92F PUSH1 0x0 DUP4 ADD DUP5 PUSH2 0x7C4 JUMP JUMPDEST SWAP3 SWAP2 POP POP JUMP JUMPDEST PUSH1 0x0 DUP2 SWAP1 POP SWAP3 SWAP2 POP POP JUMP JUMPDEST PUSH1 0x0 DUP3 DUP3 MSTORE PUSH1 0x20 DUP3 ADD SWAP1 POP SWAP3 SWAP2 POP POP JUMP JUMPDEST PUSH1 0x0 PUSH2 0x95C DUP3 PUSH2 0xA1A JUMP JUMPDEST SWAP2 POP PUSH2 0x967 DUP4 PUSH2 0xA1A JUMP JUMPDEST SWAP3 POP DUP3 PUSH2 0x977 JUMPI PUSH2 0x976 PUSH2 0xA77 JUMP JUMPDEST JUMPDEST DUP3 DUP3 DIV SWAP1 POP SWAP3 SWAP2 POP POP JUMP JUMPDEST PUSH1 0x0 PUSH2 0x98D DUP3 PUSH2 0xA1A JUMP JUMPDEST SWAP2 POP PUSH2 0x998 DUP4 PUSH2 0xA1A JUMP JUMPDEST SWAP3 POP DUP2 PUSH32 0xFFFFFFFFFFFFFFFFFFFFFFFFFFFFFFFFFFFFFFFFFFFFFFFFFFFFFFFFFFFFFFFF DIV DUP4 GT DUP3 ISZERO ISZERO AND ISZERO PUSH2 0x9D1 JUMPI PUSH2 0x9D0 PUSH2 0xA48 JUMP JUMPDEST JUMPDEST DUP3 DUP3 MUL SWAP1 POP SWAP3 SWAP2 POP POP JUMP JUMPDEST PUSH1 0x0 PUSH2 0x9E7 DUP3 PUSH2 0x9FA JUMP JUMPDEST SWAP1 POP SWAP2 SWAP1 POP JUMP JUMPDEST PUSH1 0x0 DUP2 ISZERO ISZERO SWAP1 POP SWAP2 SWAP1 POP JUMP JUMPDEST PUSH1 0x0 PUSH20 0xFFFFFFFFFFFFFFFFFFFFFFFFFFFFFFFFFFFFFFFF DUP3 AND SWAP1 POP SWAP2 SWAP1 POP JUMP JUMPDEST PUSH1 0x0 DUP2 SWAP1 POP SWAP2 SWAP1 POP JUMP JUMPDEST PUSH1 0x0 PUSH2 0xA2F DUP3 PUSH2 0xA36 JUMP JUMPDEST SWAP1 POP SWAP2 SWAP1 POP JUMP JUMPDEST PUSH1 0x0 PUSH2 0xA41 DUP3 PUSH2 0x9FA JUMP JUMPDEST SWAP1 POP SWAP2 SWAP1 POP JUMP JUMPDEST PUSH32 0x4E487B7100000000000000000000000000000000000000000000000000000000 PUSH1 0x0 MSTORE PUSH1 0x11 PUSH1 0x4 MSTORE PUSH1 0x24 PUSH1 0x0 REVERT JUMPDEST PUSH32 0x4E487B7100000000000000000000000000000000000000000000000000000000 PUSH1 0x0 MSTORE PUSH1 0x12 PUSH1 0x4 MSTORE PUSH1 0x24 PUSH1 0x0 REVERT JUMPDEST PUSH32 0x4661696C656420746F2073656E64204574686572000000000000000000000000 PUSH1 0x0 DUP3 ADD MSTORE POP JUMP JUMPDEST PUSH32 0x4E6F7420656E6F75676800000000000000000000000000000000000000000000 PUSH1 0x0 DUP3 ADD MSTORE POP JUMP JUMPDEST PUSH32 0x6E6F746F776E6572000000000000000000000000000000000000000000000000 PUSH1 0x0 DUP3 ADD MSTORE POP JUMP JUMPDEST PUSH32 0x546F6B656E207472616E73666572206661696C65640000000000000000000000 PUSH1 0x0 DUP3 ADD MSTORE POP JUMP JUMPDEST PUSH32 0x4D696E696D756D2073656C6C2031000000000000000000000000000000000000 PUSH1 0x0 DUP3 ADD MSTORE POP JUMP JUMPDEST PUSH32 0x4D696E696D756D20627579203100000000000000000000000000000000000000 PUSH1 0x0 DUP3 ADD MSTORE POP JUMP JUMPDEST PUSH32 0x5472616E73666572206661696C65642100000000000000000000000000000000 PUSH1 0x0 DUP3 ADD MSTORE POP JUMP JUMPDEST POP JUMP JUMPDEST PUSH2 0xBD1 DUP2 PUSH2 0x9EE JUMP JUMPDEST DUP2 EQ PUSH2 0xBDC JUMPI PUSH1 0x0 DUP1 REVERT JUMPDEST POP JUMP JUMPDEST PUSH2 0xBE8 DUP2 PUSH2 0xA1A JUMP JUMPDEST DUP2 EQ PUSH2 0xBF3 JUMPI PUSH1 0x0 DUP1 REVERT JUMPDEST POP JUMP INVALID LOG2 PUSH5 0x6970667358 0x22 SLT KECCAK256 PUSH17 0x550248BECD792ED9E4FF8EC788599BC4DD SWAP13 0x49 SWAP1 0xC8 ADDRESS 0xCC 0xBD JUMP ORIGIN 0x22 0xE6 0xB2 0xF9 DUP7 PUSH5 0x736F6C6343 STOP ADDMOD DIV STOP CALLER "
				},
				"gasEstimates": {
					"creation": {
						"codeDepositCost": "623200",
						"executionCost": "62404",
						"totalCost": "685604"
					},
					"external": {
						"BnbToSafuu()": "1217",
						"buySafuu(uint256)": "infinite",
						"safuu()": "1235",
						"sellSafuu(uint256)": "infinite",
						"setFactor(uint256)": "21331",
						"withdrawToOwner()": "infinite"
					},
					"internal": {
						"_safeTransferFrom(contract IERC20,address,address,uint256)": "infinite"
					}
				},
				"methodIdentifiers": {
					"BnbToSafuu()": "ebc4197c",
					"buySafuu(uint256)": "80c31426",
					"safuu()": "23b160ac",
					"sellSafuu(uint256)": "ade87ecc",
					"setFactor(uint256)": "817e9d31",
					"withdrawToOwner()": "3cb40e16"
				}
			},
			"userdoc": {
				"kind": "user",
				"methods": {},
				"version": 1
			}
		}
	}
}