{
	"sis.sol": {
		"personalSafuuTrader": {
			"abi": [
				{
					"inputs": [],
					"stateMutability": "nonpayable",
					"type": "constructor"
				},
				{
					"inputs": [],
					"name": "BnbToSafuu",
					"outputs": [
						{
							"internalType": "uint256",
							"name": "",
							"type": "uint256"
						}
					],
					"stateMutability": "view",
					"type": "function"
				},
				{
					"inputs": [
						{
							"internalType": "uint256",
							"name": "amttobuy",
							"type": "uint256"
						}
					],
					"name": "buySafuu",
					"outputs": [],
					"stateMutability": "payable",
					"type": "function"
				},
				{
					"inputs": [],
					"name": "owner",
					"outputs": [
						{
							"internalType": "address payable",
							"name": "",
							"type": "address"
						}
					],
					"stateMutability": "view",
					"type": "function"
				},
				{
					"inputs": [],
					"name": "safuu",
					"outputs": [
						{
							"internalType": "contract IERC20",
							"name": "",
							"type": "address"
						}
					],
					"stateMutability": "view",
					"type": "function"
				},
				{
					"inputs": [
						{
							"internalType": "uint256",
							"name": "amttosell",
							"type": "uint256"
						}
					],
					"name": "sellSafuu",
					"outputs": [],
					"stateMutability": "nonpayable",
					"type": "function"
				},
				{
					"inputs": [],
					"name": "taxFactor",
					"outputs": [
						{
							"internalType": "uint256",
							"name": "",
							"type": "uint256"
						}
					],
					"stateMutability": "view",
					"type": "function"
				},
				{
					"inputs": [],
					"name": "withdrawToOwner",
					"outputs": [],
					"stateMutability": "nonpayable",
					"type": "function"
				}
			],
			"devdoc": {
				"kind": "dev",
				"methods": {},
				"version": 1
			},
			"evm": {
				"assembly": "    /* \"sis.sol\":84:2033  contract personalSafuuTrader\r... */\n  mstore(0x40, 0x80)\n    /* \"sis.sol\":247:463  constructor () {\r... */\n  callvalue\n  dup1\n  iszero\n  tag_1\n  jumpi\n  0x00\n  dup1\n  revert\ntag_1:\n  pop\n    /* \"sis.sol\":283:293  msg.sender */\n  caller\n    /* \"sis.sol\":267:272  owner */\n  0x00\n  dup1\n    /* \"sis.sol\":267:294  owner = payable(msg.sender) */\n  0x0100\n  exp\n  dup2\n  sload\n  dup2\n  0xffffffffffffffffffffffffffffffffffffffff\n  mul\n  not\n  and\n  swap1\n  dup4\n  0xffffffffffffffffffffffffffffffffffffffff\n  and\n  mul\n  or\n  swap1\n  sstore\n  pop\n    /* \"sis.sol\":312:318  200000 */\n  0x030d40\n    /* \"sis.sol\":299:309  BnbToSafuu */\n  0x01\n    /* \"sis.sol\":299:318  BnbToSafuu = 200000 */\n  dup2\n  swap1\n  sstore\n  pop\n    /* \"sis.sol\":403:445  0x358AA13c52544ECCEF6B0ADD0f801012ADAD5eE3 */\n  0x358aa13c52544eccef6b0add0f801012adad5ee3\n    /* \"sis.sol\":388:393  safuu */\n  0x03\n  0x00\n    /* \"sis.sol\":388:446  safuu = IERC20(0x358AA13c52544ECCEF6B0ADD0f801012ADAD5eE3) */\n  0x0100\n  exp\n  dup2\n  sload\n  dup2\n  0xffffffffffffffffffffffffffffffffffffffff\n  mul\n  not\n  and\n  swap1\n  dup4\n  0xffffffffffffffffffffffffffffffffffffffff\n  and\n  mul\n  or\n  swap1\n  sstore\n  pop\n    /* \"sis.sol\":84:2033  contract personalSafuuTrader\r... */\n  dataSize(sub_0)\n  dup1\n  dataOffset(sub_0)\n  0x00\n  codecopy\n  0x00\n  return\nstop\n\nsub_0: assembly {\n        /* \"sis.sol\":84:2033  contract personalSafuuTrader\r... */\n      mstore(0x40, 0x80)\n      jumpi(tag_1, lt(calldatasize, 0x04))\n      shr(0xe0, calldataload(0x00))\n      dup1\n      0x8da5cb5b\n      gt\n      tag_9\n      jumpi\n      dup1\n      0x8da5cb5b\n      eq\n      tag_5\n      jumpi\n      dup1\n      0xade87ecc\n      eq\n      tag_6\n      jumpi\n      dup1\n      0xd63cf1da\n      eq\n      tag_7\n      jumpi\n      dup1\n      0xebc4197c\n      eq\n      tag_8\n      jumpi\n      jump(tag_1)\n    tag_9:\n      dup1\n      0x23b160ac\n      eq\n      tag_2\n      jumpi\n      dup1\n      0x3cb40e16\n      eq\n      tag_3\n      jumpi\n      dup1\n      0x80c31426\n      eq\n      tag_4\n      jumpi\n    tag_1:\n      0x00\n      dup1\n      revert\n        /* \"sis.sol\":223:242  IERC20 public safuu */\n    tag_2:\n      callvalue\n      dup1\n      iszero\n      tag_10\n      jumpi\n      0x00\n      dup1\n      revert\n    tag_10:\n      pop\n      tag_11\n      tag_12\n      jump\t// in\n    tag_11:\n      mload(0x40)\n      tag_13\n      swap2\n      swap1\n      tag_14\n      jump\t// in\n    tag_13:\n      mload(0x40)\n      dup1\n      swap2\n      sub\n      swap1\n      return\n        /* \"sis.sol\":1376:1756  function withdrawToOwner()\r... */\n    tag_3:\n      callvalue\n      dup1\n      iszero\n      tag_15\n      jumpi\n      0x00\n      dup1\n      revert\n    tag_15:\n      pop\n      tag_16\n      tag_17\n      jump\t// in\n    tag_16:\n      stop\n        /* \"sis.sol\":469:964  function buySafuu(uint256 amttobuy) public payable \r... */\n    tag_4:\n      tag_18\n      0x04\n      dup1\n      calldatasize\n      sub\n      dup2\n      add\n      swap1\n      tag_19\n      swap2\n      swap1\n      tag_20\n      jump\t// in\n    tag_19:\n      tag_21\n      jump\t// in\n    tag_18:\n      stop\n        /* \"sis.sol\":121:149  address payable public owner */\n    tag_5:\n      callvalue\n      dup1\n      iszero\n      tag_22\n      jumpi\n      0x00\n      dup1\n      revert\n    tag_22:\n      pop\n      tag_23\n      tag_24\n      jump\t// in\n    tag_23:\n      mload(0x40)\n      tag_25\n      swap2\n      swap1\n      tag_26\n      jump\t// in\n    tag_25:\n      mload(0x40)\n      dup1\n      swap2\n      sub\n      swap1\n      return\n        /* \"sis.sol\":974:1368  function sellSafuu(uint256 amttosell) public \r... */\n    tag_6:\n      callvalue\n      dup1\n      iszero\n      tag_27\n      jumpi\n      0x00\n      dup1\n      revert\n    tag_27:\n      pop\n      tag_28\n      0x04\n      dup1\n      calldatasize\n      sub\n      dup2\n      add\n      swap1\n      tag_29\n      swap2\n      swap1\n      tag_20\n      jump\t// in\n    tag_29:\n      tag_30\n      jump\t// in\n    tag_28:\n      stop\n        /* \"sis.sol\":192:216  uint256 public taxFactor */\n    tag_7:\n      callvalue\n      dup1\n      iszero\n      tag_31\n      jumpi\n      0x00\n      dup1\n      revert\n    tag_31:\n      pop\n      tag_32\n      tag_33\n      jump\t// in\n    tag_32:\n      mload(0x40)\n      tag_34\n      swap2\n      swap1\n      tag_35\n      jump\t// in\n    tag_34:\n      mload(0x40)\n      dup1\n      swap2\n      sub\n      swap1\n      return\n        /* \"sis.sol\":156:182  uint256  public BnbToSafuu */\n    tag_8:\n      callvalue\n      dup1\n      iszero\n      tag_36\n      jumpi\n      0x00\n      dup1\n      revert\n    tag_36:\n      pop\n      tag_37\n      tag_38\n      jump\t// in\n    tag_37:\n      mload(0x40)\n      tag_39\n      swap2\n      swap1\n      tag_35\n      jump\t// in\n    tag_39:\n      mload(0x40)\n      dup1\n      swap2\n      sub\n      swap1\n      return\n        /* \"sis.sol\":223:242  IERC20 public safuu */\n    tag_12:\n      0x03\n      0x00\n      swap1\n      sload\n      swap1\n      0x0100\n      exp\n      swap1\n      div\n      0xffffffffffffffffffffffffffffffffffffffff\n      and\n      dup2\n      jump\t// out\n        /* \"sis.sol\":1376:1756  function withdrawToOwner()\r... */\n    tag_17:\n        /* \"sis.sol\":1491:1502  uint amount */\n      0x00\n        /* \"sis.sol\":1505:1526  address(this).balance */\n      selfbalance\n        /* \"sis.sol\":1491:1526  uint amount = address(this).balance */\n      swap1\n      pop\n        /* \"sis.sol\":1650:1662  bool success */\n      0x00\n        /* \"sis.sol\":1668:1673  owner */\n      dup1\n      0x00\n      swap1\n      sload\n      swap1\n      0x0100\n      exp\n      swap1\n      div\n      0xffffffffffffffffffffffffffffffffffffffff\n      and\n        /* \"sis.sol\":1668:1678  owner.call */\n      0xffffffffffffffffffffffffffffffffffffffff\n      and\n        /* \"sis.sol\":1686:1692  amount */\n      dup3\n        /* \"sis.sol\":1668:1697  owner.call{value: amount}(\"\") */\n      mload(0x40)\n      tag_41\n      swap1\n      tag_42\n      jump\t// in\n    tag_41:\n      0x00\n      mload(0x40)\n      dup1\n      dup4\n      sub\n      dup2\n      dup6\n      dup8\n      gas\n      call\n      swap3\n      pop\n      pop\n      pop\n      returndatasize\n      dup1\n      0x00\n      dup2\n      eq\n      tag_45\n      jumpi\n      mload(0x40)\n      swap2\n      pop\n      and(add(returndatasize, 0x3f), not(0x1f))\n      dup3\n      add\n      0x40\n      mstore\n      returndatasize\n      dup3\n      mstore\n      returndatasize\n      0x00\n      0x20\n      dup5\n      add\n      returndatacopy\n      jump(tag_44)\n    tag_45:\n      0x60\n      swap2\n      pop\n    tag_44:\n      pop\n        /* \"sis.sol\":1649:1697  (bool success, ) = owner.call{value: amount}(\"\") */\n      pop\n      swap1\n      pop\n        /* \"sis.sol\":1716:1723  success */\n      dup1\n        /* \"sis.sol\":1708:1748  require(success, \"Failed to send Ether\") */\n      tag_46\n      jumpi\n      mload(0x40)\n      0x08c379a000000000000000000000000000000000000000000000000000000000\n      dup2\n      mstore\n      0x04\n      add\n      tag_47\n      swap1\n      tag_48\n      jump\t// in\n    tag_47:\n      mload(0x40)\n      dup1\n      swap2\n      sub\n      swap1\n      revert\n    tag_46:\n        /* \"sis.sol\":1376:1756  function withdrawToOwner()\r... */\n      pop\n      pop\n      jump\t// out\n        /* \"sis.sol\":469:964  function buySafuu(uint256 amttobuy) public payable \r... */\n    tag_21:\n        /* \"sis.sol\":557:562  10000 */\n      0x2710\n        /* \"sis.sol\":545:553  amttobuy */\n      dup2\n        /* \"sis.sol\":545:562  amttobuy >= 10000 */\n      lt\n      iszero\n        /* \"sis.sol\":537:584  require(amttobuy >= 10000, \"Not enough to buy\") */\n      tag_50\n      jumpi\n      mload(0x40)\n      0x08c379a000000000000000000000000000000000000000000000000000000000\n      dup2\n      mstore\n      0x04\n      add\n      tag_51\n      swap1\n      tag_52\n      jump\t// in\n    tag_51:\n      mload(0x40)\n      dup1\n      swap2\n      sub\n      swap1\n      revert\n    tag_50:\n        /* \"sis.sol\":595:613  uint256 payableAmt */\n      0x00\n        /* \"sis.sol\":660:670  BnbToSafuu */\n      sload(0x01)\n        /* \"sis.sol\":651:659  amttobuy */\n      dup3\n        /* \"sis.sol\":651:670  amttobuy/BnbToSafuu */\n      tag_53\n      swap2\n      swap1\n      tag_54\n      jump\t// in\n    tag_53:\n        /* \"sis.sol\":637:671  payableAmt = (amttobuy/BnbToSafuu) */\n      swap1\n      pop\n        /* \"sis.sol\":703:713  payableAmt */\n      dup1\n        /* \"sis.sol\":690:699  msg.value */\n      callvalue\n        /* \"sis.sol\":690:713  msg.value >= payableAmt */\n      lt\n      iszero\n        /* \"sis.sol\":682:728  require(msg.value >= payableAmt,\"Not enough\" ) */\n      tag_55\n      jumpi\n      mload(0x40)\n      0x08c379a000000000000000000000000000000000000000000000000000000000\n      dup2\n      mstore\n      0x04\n      add\n      tag_56\n      swap1\n      tag_57\n      jump\t// in\n    tag_56:\n      mload(0x40)\n      dup1\n      swap2\n      sub\n      swap1\n      revert\n    tag_55:\n        /* \"sis.sol\":895:956  _safeTransferFrom(safuu, address(this), msg.sender, amttobuy) */\n      tag_58\n        /* \"sis.sol\":913:918  safuu */\n      0x03\n      0x00\n      swap1\n      sload\n      swap1\n      0x0100\n      exp\n      swap1\n      div\n      0xffffffffffffffffffffffffffffffffffffffff\n      and\n        /* \"sis.sol\":928:932  this */\n      address\n        /* \"sis.sol\":935:945  msg.sender */\n      caller\n        /* \"sis.sol\":947:955  amttobuy */\n      dup6\n        /* \"sis.sol\":895:912  _safeTransferFrom */\n      tag_59\n        /* \"sis.sol\":895:956  _safeTransferFrom(safuu, address(this), msg.sender, amttobuy) */\n      jump\t// in\n    tag_58:\n        /* \"sis.sol\":469:964  function buySafuu(uint256 amttobuy) public payable \r... */\n      pop\n      pop\n      jump\t// out\n        /* \"sis.sol\":121:149  address payable public owner */\n    tag_24:\n      0x00\n      dup1\n      sload\n      swap1\n      0x0100\n      exp\n      swap1\n      div\n      0xffffffffffffffffffffffffffffffffffffffff\n      and\n      dup2\n      jump\t// out\n        /* \"sis.sol\":974:1368  function sellSafuu(uint256 amttosell) public \r... */\n    tag_30:\n        /* \"sis.sol\":1032:1094  _safeTransferFrom(safuu, msg.sender, address(this), amttosell) */\n      tag_61\n        /* \"sis.sol\":1050:1055  safuu */\n      0x03\n      0x00\n      swap1\n      sload\n      swap1\n      0x0100\n      exp\n      swap1\n      div\n      0xffffffffffffffffffffffffffffffffffffffff\n      and\n        /* \"sis.sol\":1057:1067  msg.sender */\n      caller\n        /* \"sis.sol\":1077:1081  this */\n      address\n        /* \"sis.sol\":1084:1093  amttosell */\n      dup5\n        /* \"sis.sol\":1032:1049  _safeTransferFrom */\n      tag_59\n        /* \"sis.sol\":1032:1094  _safeTransferFrom(safuu, msg.sender, address(this), amttosell) */\n      jump\t// in\n    tag_61:\n        /* \"sis.sol\":1129:1147  uint256 payableBNB */\n      0x00\n        /* \"sis.sol\":1191:1201  BnbToSafuu */\n      sload(0x01)\n        /* \"sis.sol\":1181:1190  amttosell */\n      dup3\n        /* \"sis.sol\":1181:1201  amttosell/BnbToSafuu */\n      tag_62\n      swap2\n      swap1\n      tag_54\n      jump\t// in\n    tag_62:\n        /* \"sis.sol\":1167:1202  payableBNB = (amttosell/BnbToSafuu) */\n      swap1\n      pop\n        /* \"sis.sol\":1217:1227  msg.sender */\n      caller\n        /* \"sis.sol\":1209:1237  payable(msg.sender).transfer */\n      0xffffffffffffffffffffffffffffffffffffffff\n      and\n        /* \"sis.sol\":1209:1249  payable(msg.sender).transfer(payableBNB) */\n      0x08fc\n        /* \"sis.sol\":1238:1248  payableBNB */\n      dup3\n        /* \"sis.sol\":1209:1249  payable(msg.sender).transfer(payableBNB) */\n      swap1\n      dup2\n      iszero\n      mul\n      swap1\n      mload(0x40)\n      0x00\n      mload(0x40)\n      dup1\n      dup4\n      sub\n      dup2\n      dup6\n      dup9\n      dup9\n      call\n      swap4\n      pop\n      pop\n      pop\n      pop\n      iszero\n      dup1\n      iszero\n      tag_64\n      jumpi\n      returndatasize\n      0x00\n      dup1\n      returndatacopy\n      revert(0x00, returndatasize)\n    tag_64:\n      pop\n        /* \"sis.sol\":1257:1269  bool success */\n      0x00\n        /* \"sis.sol\":1275:1285  msg.sender */\n      caller\n        /* \"sis.sol\":1275:1290  msg.sender.call */\n      0xffffffffffffffffffffffffffffffffffffffff\n      and\n        /* \"sis.sol\":1298:1308  payableBNB */\n      dup3\n        /* \"sis.sol\":1275:1313  msg.sender.call{value: payableBNB}(\"\") */\n      mload(0x40)\n      tag_65\n      swap1\n      tag_42\n      jump\t// in\n    tag_65:\n      0x00\n      mload(0x40)\n      dup1\n      dup4\n      sub\n      dup2\n      dup6\n      dup8\n      gas\n      call\n      swap3\n      pop\n      pop\n      pop\n      returndatasize\n      dup1\n      0x00\n      dup2\n      eq\n      tag_68\n      jumpi\n      mload(0x40)\n      swap2\n      pop\n      and(add(returndatasize, 0x3f), not(0x1f))\n      dup3\n      add\n      0x40\n      mstore\n      returndatasize\n      dup3\n      mstore\n      returndatasize\n      0x00\n      0x20\n      dup5\n      add\n      returndatacopy\n      jump(tag_67)\n    tag_68:\n      0x60\n      swap2\n      pop\n    tag_67:\n      pop\n        /* \"sis.sol\":1256:1313  (bool success, ) = msg.sender.call{value: payableBNB}(\"\") */\n      pop\n      swap1\n      pop\n        /* \"sis.sol\":1332:1339  success */\n      dup1\n        /* \"sis.sol\":1324:1360  require(success, \"Transfer failed!\") */\n      tag_69\n      jumpi\n      mload(0x40)\n      0x08c379a000000000000000000000000000000000000000000000000000000000\n      dup2\n      mstore\n      0x04\n      add\n      tag_70\n      swap1\n      tag_71\n      jump\t// in\n    tag_70:\n      mload(0x40)\n      dup1\n      swap2\n      sub\n      swap1\n      revert\n    tag_69:\n        /* \"sis.sol\":974:1368  function sellSafuu(uint256 amttosell) public \r... */\n      pop\n      pop\n      pop\n      jump\t// out\n        /* \"sis.sol\":192:216  uint256 public taxFactor */\n    tag_33:\n      sload(0x02)\n      dup2\n      jump\t// out\n        /* \"sis.sol\":156:182  uint256  public BnbToSafuu */\n    tag_38:\n      sload(0x01)\n      dup2\n      jump\t// out\n        /* \"sis.sol\":1762:2030  function _safeTransferFrom(\r... */\n    tag_59:\n        /* \"sis.sol\":1916:1925  bool sent */\n      0x00\n        /* \"sis.sol\":1928:1933  token */\n      dup5\n        /* \"sis.sol\":1928:1946  token.transferFrom */\n      0xffffffffffffffffffffffffffffffffffffffff\n      and\n      0x23b872dd\n        /* \"sis.sol\":1947:1953  sender */\n      dup6\n        /* \"sis.sol\":1955:1964  recipient */\n      dup6\n        /* \"sis.sol\":1966:1972  amount */\n      dup6\n        /* \"sis.sol\":1928:1973  token.transferFrom(sender, recipient, amount) */\n      mload(0x40)\n      dup5\n      0xffffffff\n      and\n      0xe0\n      shl\n      dup2\n      mstore\n      0x04\n      add\n      tag_73\n      swap4\n      swap3\n      swap2\n      swap1\n      tag_74\n      jump\t// in\n    tag_73:\n      0x20\n      mload(0x40)\n      dup1\n      dup4\n      sub\n      dup2\n      0x00\n      dup8\n      dup1\n      extcodesize\n      iszero\n      dup1\n      iszero\n      tag_75\n      jumpi\n      0x00\n      dup1\n      revert\n    tag_75:\n      pop\n      gas\n      call\n      iszero\n      dup1\n      iszero\n      tag_77\n      jumpi\n      returndatasize\n      0x00\n      dup1\n      returndatacopy\n      revert(0x00, returndatasize)\n    tag_77:\n      pop\n      pop\n      pop\n      pop\n      mload(0x40)\n      returndatasize\n      not(0x1f)\n      0x1f\n      dup3\n      add\n      and\n      dup3\n      add\n      dup1\n      0x40\n      mstore\n      pop\n      dup2\n      add\n      swap1\n      tag_78\n      swap2\n      swap1\n      tag_79\n      jump\t// in\n    tag_78:\n        /* \"sis.sol\":1916:1973  bool sent = token.transferFrom(sender, recipient, amount) */\n      swap1\n      pop\n        /* \"sis.sol\":1992:1996  sent */\n      dup1\n        /* \"sis.sol\":1984:2022  require(sent, \"Token transfer failed\") */\n      tag_80\n      jumpi\n      mload(0x40)\n      0x08c379a000000000000000000000000000000000000000000000000000000000\n      dup2\n      mstore\n      0x04\n      add\n      tag_81\n      swap1\n      tag_82\n      jump\t// in\n    tag_81:\n      mload(0x40)\n      dup1\n      swap2\n      sub\n      swap1\n      revert\n    tag_80:\n        /* \"sis.sol\":1762:2030  function _safeTransferFrom(\r... */\n      pop\n      pop\n      pop\n      pop\n      pop\n      jump\t// out\n        /* \"#utility.yul\":7:144   */\n    tag_84:\n        /* \"#utility.yul\":61:66   */\n      0x00\n        /* \"#utility.yul\":92:98   */\n      dup2\n        /* \"#utility.yul\":86:99   */\n      mload\n        /* \"#utility.yul\":77:99   */\n      swap1\n      pop\n        /* \"#utility.yul\":108:138   */\n      tag_86\n        /* \"#utility.yul\":132:137   */\n      dup2\n        /* \"#utility.yul\":108:138   */\n      tag_87\n      jump\t// in\n    tag_86:\n        /* \"#utility.yul\":67:144   */\n      swap3\n      swap2\n      pop\n      pop\n      jump\t// out\n        /* \"#utility.yul\":150:289   */\n    tag_88:\n        /* \"#utility.yul\":196:201   */\n      0x00\n        /* \"#utility.yul\":234:240   */\n      dup2\n        /* \"#utility.yul\":221:241   */\n      calldataload\n        /* \"#utility.yul\":212:241   */\n      swap1\n      pop\n        /* \"#utility.yul\":250:283   */\n      tag_90\n        /* \"#utility.yul\":277:282   */\n      dup2\n        /* \"#utility.yul\":250:283   */\n      tag_91\n      jump\t// in\n    tag_90:\n        /* \"#utility.yul\":202:289   */\n      swap3\n      swap2\n      pop\n      pop\n      jump\t// out\n        /* \"#utility.yul\":295:573   */\n    tag_79:\n        /* \"#utility.yul\":362:368   */\n      0x00\n        /* \"#utility.yul\":411:413   */\n      0x20\n        /* \"#utility.yul\":399:408   */\n      dup3\n        /* \"#utility.yul\":390:397   */\n      dup5\n        /* \"#utility.yul\":386:409   */\n      sub\n        /* \"#utility.yul\":382:414   */\n      slt\n        /* \"#utility.yul\":379:381   */\n      iszero\n      tag_93\n      jumpi\n        /* \"#utility.yul\":427:428   */\n      0x00\n        /* \"#utility.yul\":424:425   */\n      dup1\n        /* \"#utility.yul\":417:429   */\n      revert\n        /* \"#utility.yul\":379:381   */\n    tag_93:\n        /* \"#utility.yul\":470:471   */\n      0x00\n        /* \"#utility.yul\":495:556   */\n      tag_94\n        /* \"#utility.yul\":548:555   */\n      dup5\n        /* \"#utility.yul\":539:545   */\n      dup3\n        /* \"#utility.yul\":528:537   */\n      dup6\n        /* \"#utility.yul\":524:546   */\n      add\n        /* \"#utility.yul\":495:556   */\n      tag_84\n      jump\t// in\n    tag_94:\n        /* \"#utility.yul\":485:556   */\n      swap2\n      pop\n        /* \"#utility.yul\":441:566   */\n      pop\n        /* \"#utility.yul\":369:573   */\n      swap3\n      swap2\n      pop\n      pop\n      jump\t// out\n        /* \"#utility.yul\":579:841   */\n    tag_20:\n        /* \"#utility.yul\":638:644   */\n      0x00\n        /* \"#utility.yul\":687:689   */\n      0x20\n        /* \"#utility.yul\":675:684   */\n      dup3\n        /* \"#utility.yul\":666:673   */\n      dup5\n        /* \"#utility.yul\":662:685   */\n      sub\n        /* \"#utility.yul\":658:690   */\n      slt\n        /* \"#utility.yul\":655:657   */\n      iszero\n      tag_96\n      jumpi\n        /* \"#utility.yul\":703:704   */\n      0x00\n        /* \"#utility.yul\":700:701   */\n      dup1\n        /* \"#utility.yul\":693:705   */\n      revert\n        /* \"#utility.yul\":655:657   */\n    tag_96:\n        /* \"#utility.yul\":746:747   */\n      0x00\n        /* \"#utility.yul\":771:824   */\n      tag_97\n        /* \"#utility.yul\":816:823   */\n      dup5\n        /* \"#utility.yul\":807:813   */\n      dup3\n        /* \"#utility.yul\":796:805   */\n      dup6\n        /* \"#utility.yul\":792:814   */\n      add\n        /* \"#utility.yul\":771:824   */\n      tag_88\n      jump\t// in\n    tag_97:\n        /* \"#utility.yul\":761:824   */\n      swap2\n      pop\n        /* \"#utility.yul\":717:834   */\n      pop\n        /* \"#utility.yul\":645:841   */\n      swap3\n      swap2\n      pop\n      pop\n      jump\t// out\n        /* \"#utility.yul\":847:989   */\n    tag_98:\n        /* \"#utility.yul\":950:982   */\n      tag_100\n        /* \"#utility.yul\":976:981   */\n      dup2\n        /* \"#utility.yul\":950:982   */\n      tag_101\n      jump\t// in\n    tag_100:\n        /* \"#utility.yul\":945:948   */\n      dup3\n        /* \"#utility.yul\":938:983   */\n      mstore\n        /* \"#utility.yul\":928:989   */\n      pop\n      pop\n      jump\t// out\n        /* \"#utility.yul\":995:1113   */\n    tag_102:\n        /* \"#utility.yul\":1082:1106   */\n      tag_104\n        /* \"#utility.yul\":1100:1105   */\n      dup2\n        /* \"#utility.yul\":1082:1106   */\n      tag_105\n      jump\t// in\n    tag_104:\n        /* \"#utility.yul\":1077:1080   */\n      dup3\n        /* \"#utility.yul\":1070:1107   */\n      mstore\n        /* \"#utility.yul\":1060:1113   */\n      pop\n      pop\n      jump\t// out\n        /* \"#utility.yul\":1119:1276   */\n    tag_106:\n        /* \"#utility.yul\":1219:1269   */\n      tag_108\n        /* \"#utility.yul\":1263:1268   */\n      dup2\n        /* \"#utility.yul\":1219:1269   */\n      tag_109\n      jump\t// in\n    tag_108:\n        /* \"#utility.yul\":1214:1217   */\n      dup3\n        /* \"#utility.yul\":1207:1270   */\n      mstore\n        /* \"#utility.yul\":1197:1276   */\n      pop\n      pop\n      jump\t// out\n        /* \"#utility.yul\":1282:1648   */\n    tag_110:\n        /* \"#utility.yul\":1424:1427   */\n      0x00\n        /* \"#utility.yul\":1445:1512   */\n      tag_112\n        /* \"#utility.yul\":1509:1511   */\n      0x14\n        /* \"#utility.yul\":1504:1507   */\n      dup4\n        /* \"#utility.yul\":1445:1512   */\n      tag_113\n      jump\t// in\n    tag_112:\n        /* \"#utility.yul\":1438:1512   */\n      swap2\n      pop\n        /* \"#utility.yul\":1521:1614   */\n      tag_114\n        /* \"#utility.yul\":1610:1613   */\n      dup3\n        /* \"#utility.yul\":1521:1614   */\n      tag_115\n      jump\t// in\n    tag_114:\n        /* \"#utility.yul\":1639:1641   */\n      0x20\n        /* \"#utility.yul\":1634:1637   */\n      dup3\n        /* \"#utility.yul\":1630:1642   */\n      add\n        /* \"#utility.yul\":1623:1642   */\n      swap1\n      pop\n        /* \"#utility.yul\":1428:1648   */\n      swap2\n      swap1\n      pop\n      jump\t// out\n        /* \"#utility.yul\":1654:2020   */\n    tag_116:\n        /* \"#utility.yul\":1796:1799   */\n      0x00\n        /* \"#utility.yul\":1817:1884   */\n      tag_118\n        /* \"#utility.yul\":1881:1883   */\n      0x11\n        /* \"#utility.yul\":1876:1879   */\n      dup4\n        /* \"#utility.yul\":1817:1884   */\n      tag_113\n      jump\t// in\n    tag_118:\n        /* \"#utility.yul\":1810:1884   */\n      swap2\n      pop\n        /* \"#utility.yul\":1893:1986   */\n      tag_119\n        /* \"#utility.yul\":1982:1985   */\n      dup3\n        /* \"#utility.yul\":1893:1986   */\n      tag_120\n      jump\t// in\n    tag_119:\n        /* \"#utility.yul\":2011:2013   */\n      0x20\n        /* \"#utility.yul\":2006:2009   */\n      dup3\n        /* \"#utility.yul\":2002:2014   */\n      add\n        /* \"#utility.yul\":1995:2014   */\n      swap1\n      pop\n        /* \"#utility.yul\":1800:2020   */\n      swap2\n      swap1\n      pop\n      jump\t// out\n        /* \"#utility.yul\":2026:2392   */\n    tag_121:\n        /* \"#utility.yul\":2168:2171   */\n      0x00\n        /* \"#utility.yul\":2189:2256   */\n      tag_123\n        /* \"#utility.yul\":2253:2255   */\n      0x0a\n        /* \"#utility.yul\":2248:2251   */\n      dup4\n        /* \"#utility.yul\":2189:2256   */\n      tag_113\n      jump\t// in\n    tag_123:\n        /* \"#utility.yul\":2182:2256   */\n      swap2\n      pop\n        /* \"#utility.yul\":2265:2358   */\n      tag_124\n        /* \"#utility.yul\":2354:2357   */\n      dup3\n        /* \"#utility.yul\":2265:2358   */\n      tag_125\n      jump\t// in\n    tag_124:\n        /* \"#utility.yul\":2383:2385   */\n      0x20\n        /* \"#utility.yul\":2378:2381   */\n      dup3\n        /* \"#utility.yul\":2374:2386   */\n      add\n        /* \"#utility.yul\":2367:2386   */\n      swap1\n      pop\n        /* \"#utility.yul\":2172:2392   */\n      swap2\n      swap1\n      pop\n      jump\t// out\n        /* \"#utility.yul\":2398:2764   */\n    tag_126:\n        /* \"#utility.yul\":2540:2543   */\n      0x00\n        /* \"#utility.yul\":2561:2628   */\n      tag_128\n        /* \"#utility.yul\":2625:2627   */\n      0x15\n        /* \"#utility.yul\":2620:2623   */\n      dup4\n        /* \"#utility.yul\":2561:2628   */\n      tag_113\n      jump\t// in\n    tag_128:\n        /* \"#utility.yul\":2554:2628   */\n      swap2\n      pop\n        /* \"#utility.yul\":2637:2730   */\n      tag_129\n        /* \"#utility.yul\":2726:2729   */\n      dup3\n        /* \"#utility.yul\":2637:2730   */\n      tag_130\n      jump\t// in\n    tag_129:\n        /* \"#utility.yul\":2755:2757   */\n      0x20\n        /* \"#utility.yul\":2750:2753   */\n      dup3\n        /* \"#utility.yul\":2746:2758   */\n      add\n        /* \"#utility.yul\":2739:2758   */\n      swap1\n      pop\n        /* \"#utility.yul\":2544:2764   */\n      swap2\n      swap1\n      pop\n      jump\t// out\n        /* \"#utility.yul\":2770:3136   */\n    tag_131:\n        /* \"#utility.yul\":2912:2915   */\n      0x00\n        /* \"#utility.yul\":2933:3000   */\n      tag_133\n        /* \"#utility.yul\":2997:2999   */\n      0x10\n        /* \"#utility.yul\":2992:2995   */\n      dup4\n        /* \"#utility.yul\":2933:3000   */\n      tag_113\n      jump\t// in\n    tag_133:\n        /* \"#utility.yul\":2926:3000   */\n      swap2\n      pop\n        /* \"#utility.yul\":3009:3102   */\n      tag_134\n        /* \"#utility.yul\":3098:3101   */\n      dup3\n        /* \"#utility.yul\":3009:3102   */\n      tag_135\n      jump\t// in\n    tag_134:\n        /* \"#utility.yul\":3127:3129   */\n      0x20\n        /* \"#utility.yul\":3122:3125   */\n      dup3\n        /* \"#utility.yul\":3118:3130   */\n      add\n        /* \"#utility.yul\":3111:3130   */\n      swap1\n      pop\n        /* \"#utility.yul\":2916:3136   */\n      swap2\n      swap1\n      pop\n      jump\t// out\n        /* \"#utility.yul\":3142:3540   */\n    tag_136:\n        /* \"#utility.yul\":3301:3304   */\n      0x00\n        /* \"#utility.yul\":3322:3405   */\n      tag_138\n        /* \"#utility.yul\":3403:3404   */\n      0x00\n        /* \"#utility.yul\":3398:3401   */\n      dup4\n        /* \"#utility.yul\":3322:3405   */\n      tag_139\n      jump\t// in\n    tag_138:\n        /* \"#utility.yul\":3315:3405   */\n      swap2\n      pop\n        /* \"#utility.yul\":3414:3507   */\n      tag_140\n        /* \"#utility.yul\":3503:3506   */\n      dup3\n        /* \"#utility.yul\":3414:3507   */\n      tag_141\n      jump\t// in\n    tag_140:\n        /* \"#utility.yul\":3532:3533   */\n      0x00\n        /* \"#utility.yul\":3527:3530   */\n      dup3\n        /* \"#utility.yul\":3523:3534   */\n      add\n        /* \"#utility.yul\":3516:3534   */\n      swap1\n      pop\n        /* \"#utility.yul\":3305:3540   */\n      swap2\n      swap1\n      pop\n      jump\t// out\n        /* \"#utility.yul\":3546:3664   */\n    tag_142:\n        /* \"#utility.yul\":3633:3657   */\n      tag_144\n        /* \"#utility.yul\":3651:3656   */\n      dup2\n        /* \"#utility.yul\":3633:3657   */\n      tag_145\n      jump\t// in\n    tag_144:\n        /* \"#utility.yul\":3628:3631   */\n      dup3\n        /* \"#utility.yul\":3621:3658   */\n      mstore\n        /* \"#utility.yul\":3611:3664   */\n      pop\n      pop\n      jump\t// out\n        /* \"#utility.yul\":3670:4049   */\n    tag_42:\n        /* \"#utility.yul\":3854:3857   */\n      0x00\n        /* \"#utility.yul\":3876:4023   */\n      tag_147\n        /* \"#utility.yul\":4019:4022   */\n      dup3\n        /* \"#utility.yul\":3876:4023   */\n      tag_136\n      jump\t// in\n    tag_147:\n        /* \"#utility.yul\":3869:4023   */\n      swap2\n      pop\n        /* \"#utility.yul\":4040:4043   */\n      dup2\n        /* \"#utility.yul\":4033:4043   */\n      swap1\n      pop\n        /* \"#utility.yul\":3858:4049   */\n      swap2\n      swap1\n      pop\n      jump\t// out\n        /* \"#utility.yul\":4055:4309   */\n    tag_26:\n        /* \"#utility.yul\":4164:4168   */\n      0x00\n        /* \"#utility.yul\":4202:4204   */\n      0x20\n        /* \"#utility.yul\":4191:4200   */\n      dup3\n        /* \"#utility.yul\":4187:4205   */\n      add\n        /* \"#utility.yul\":4179:4205   */\n      swap1\n      pop\n        /* \"#utility.yul\":4215:4302   */\n      tag_149\n        /* \"#utility.yul\":4299:4300   */\n      0x00\n        /* \"#utility.yul\":4288:4297   */\n      dup4\n        /* \"#utility.yul\":4284:4301   */\n      add\n        /* \"#utility.yul\":4275:4281   */\n      dup5\n        /* \"#utility.yul\":4215:4302   */\n      tag_98\n      jump\t// in\n    tag_149:\n        /* \"#utility.yul\":4169:4309   */\n      swap3\n      swap2\n      pop\n      pop\n      jump\t// out\n        /* \"#utility.yul\":4315:4757   */\n    tag_74:\n        /* \"#utility.yul\":4464:4468   */\n      0x00\n        /* \"#utility.yul\":4502:4504   */\n      0x60\n        /* \"#utility.yul\":4491:4500   */\n      dup3\n        /* \"#utility.yul\":4487:4505   */\n      add\n        /* \"#utility.yul\":4479:4505   */\n      swap1\n      pop\n        /* \"#utility.yul\":4515:4586   */\n      tag_151\n        /* \"#utility.yul\":4583:4584   */\n      0x00\n        /* \"#utility.yul\":4572:4581   */\n      dup4\n        /* \"#utility.yul\":4568:4585   */\n      add\n        /* \"#utility.yul\":4559:4565   */\n      dup7\n        /* \"#utility.yul\":4515:4586   */\n      tag_102\n      jump\t// in\n    tag_151:\n        /* \"#utility.yul\":4596:4668   */\n      tag_152\n        /* \"#utility.yul\":4664:4666   */\n      0x20\n        /* \"#utility.yul\":4653:4662   */\n      dup4\n        /* \"#utility.yul\":4649:4667   */\n      add\n        /* \"#utility.yul\":4640:4646   */\n      dup6\n        /* \"#utility.yul\":4596:4668   */\n      tag_102\n      jump\t// in\n    tag_152:\n        /* \"#utility.yul\":4678:4750   */\n      tag_153\n        /* \"#utility.yul\":4746:4748   */\n      0x40\n        /* \"#utility.yul\":4735:4744   */\n      dup4\n        /* \"#utility.yul\":4731:4749   */\n      add\n        /* \"#utility.yul\":4722:4728   */\n      dup5\n        /* \"#utility.yul\":4678:4750   */\n      tag_142\n      jump\t// in\n    tag_153:\n        /* \"#utility.yul\":4469:4757   */\n      swap5\n      swap4\n      pop\n      pop\n      pop\n      pop\n      jump\t// out\n        /* \"#utility.yul\":4763:5011   */\n    tag_14:\n        /* \"#utility.yul\":4869:4873   */\n      0x00\n        /* \"#utility.yul\":4907:4909   */\n      0x20\n        /* \"#utility.yul\":4896:4905   */\n      dup3\n        /* \"#utility.yul\":4892:4910   */\n      add\n        /* \"#utility.yul\":4884:4910   */\n      swap1\n      pop\n        /* \"#utility.yul\":4920:5004   */\n      tag_155\n        /* \"#utility.yul\":5001:5002   */\n      0x00\n        /* \"#utility.yul\":4990:4999   */\n      dup4\n        /* \"#utility.yul\":4986:5003   */\n      add\n        /* \"#utility.yul\":4977:4983   */\n      dup5\n        /* \"#utility.yul\":4920:5004   */\n      tag_106\n      jump\t// in\n    tag_155:\n        /* \"#utility.yul\":4874:5011   */\n      swap3\n      swap2\n      pop\n      pop\n      jump\t// out\n        /* \"#utility.yul\":5017:5436   */\n    tag_48:\n        /* \"#utility.yul\":5183:5187   */\n      0x00\n        /* \"#utility.yul\":5221:5223   */\n      0x20\n        /* \"#utility.yul\":5210:5219   */\n      dup3\n        /* \"#utility.yul\":5206:5224   */\n      add\n        /* \"#utility.yul\":5198:5224   */\n      swap1\n      pop\n        /* \"#utility.yul\":5270:5279   */\n      dup2\n        /* \"#utility.yul\":5264:5268   */\n      dup2\n        /* \"#utility.yul\":5260:5280   */\n      sub\n        /* \"#utility.yul\":5256:5257   */\n      0x00\n        /* \"#utility.yul\":5245:5254   */\n      dup4\n        /* \"#utility.yul\":5241:5258   */\n      add\n        /* \"#utility.yul\":5234:5281   */\n      mstore\n        /* \"#utility.yul\":5298:5429   */\n      tag_157\n        /* \"#utility.yul\":5424:5428   */\n      dup2\n        /* \"#utility.yul\":5298:5429   */\n      tag_110\n      jump\t// in\n    tag_157:\n        /* \"#utility.yul\":5290:5429   */\n      swap1\n      pop\n        /* \"#utility.yul\":5188:5436   */\n      swap2\n      swap1\n      pop\n      jump\t// out\n        /* \"#utility.yul\":5442:5861   */\n    tag_52:\n        /* \"#utility.yul\":5608:5612   */\n      0x00\n        /* \"#utility.yul\":5646:5648   */\n      0x20\n        /* \"#utility.yul\":5635:5644   */\n      dup3\n        /* \"#utility.yul\":5631:5649   */\n      add\n        /* \"#utility.yul\":5623:5649   */\n      swap1\n      pop\n        /* \"#utility.yul\":5695:5704   */\n      dup2\n        /* \"#utility.yul\":5689:5693   */\n      dup2\n        /* \"#utility.yul\":5685:5705   */\n      sub\n        /* \"#utility.yul\":5681:5682   */\n      0x00\n        /* \"#utility.yul\":5670:5679   */\n      dup4\n        /* \"#utility.yul\":5666:5683   */\n      add\n        /* \"#utility.yul\":5659:5706   */\n      mstore\n        /* \"#utility.yul\":5723:5854   */\n      tag_159\n        /* \"#utility.yul\":5849:5853   */\n      dup2\n        /* \"#utility.yul\":5723:5854   */\n      tag_116\n      jump\t// in\n    tag_159:\n        /* \"#utility.yul\":5715:5854   */\n      swap1\n      pop\n        /* \"#utility.yul\":5613:5861   */\n      swap2\n      swap1\n      pop\n      jump\t// out\n        /* \"#utility.yul\":5867:6286   */\n    tag_57:\n        /* \"#utility.yul\":6033:6037   */\n      0x00\n        /* \"#utility.yul\":6071:6073   */\n      0x20\n        /* \"#utility.yul\":6060:6069   */\n      dup3\n        /* \"#utility.yul\":6056:6074   */\n      add\n        /* \"#utility.yul\":6048:6074   */\n      swap1\n      pop\n        /* \"#utility.yul\":6120:6129   */\n      dup2\n        /* \"#utility.yul\":6114:6118   */\n      dup2\n        /* \"#utility.yul\":6110:6130   */\n      sub\n        /* \"#utility.yul\":6106:6107   */\n      0x00\n        /* \"#utility.yul\":6095:6104   */\n      dup4\n        /* \"#utility.yul\":6091:6108   */\n      add\n        /* \"#utility.yul\":6084:6131   */\n      mstore\n        /* \"#utility.yul\":6148:6279   */\n      tag_161\n        /* \"#utility.yul\":6274:6278   */\n      dup2\n        /* \"#utility.yul\":6148:6279   */\n      tag_121\n      jump\t// in\n    tag_161:\n        /* \"#utility.yul\":6140:6279   */\n      swap1\n      pop\n        /* \"#utility.yul\":6038:6286   */\n      swap2\n      swap1\n      pop\n      jump\t// out\n        /* \"#utility.yul\":6292:6711   */\n    tag_82:\n        /* \"#utility.yul\":6458:6462   */\n      0x00\n        /* \"#utility.yul\":6496:6498   */\n      0x20\n        /* \"#utility.yul\":6485:6494   */\n      dup3\n        /* \"#utility.yul\":6481:6499   */\n      add\n        /* \"#utility.yul\":6473:6499   */\n      swap1\n      pop\n        /* \"#utility.yul\":6545:6554   */\n      dup2\n        /* \"#utility.yul\":6539:6543   */\n      dup2\n        /* \"#utility.yul\":6535:6555   */\n      sub\n        /* \"#utility.yul\":6531:6532   */\n      0x00\n        /* \"#utility.yul\":6520:6529   */\n      dup4\n        /* \"#utility.yul\":6516:6533   */\n      add\n        /* \"#utility.yul\":6509:6556   */\n      mstore\n        /* \"#utility.yul\":6573:6704   */\n      tag_163\n        /* \"#utility.yul\":6699:6703   */\n      dup2\n        /* \"#utility.yul\":6573:6704   */\n      tag_126\n      jump\t// in\n    tag_163:\n        /* \"#utility.yul\":6565:6704   */\n      swap1\n      pop\n        /* \"#utility.yul\":6463:6711   */\n      swap2\n      swap1\n      pop\n      jump\t// out\n        /* \"#utility.yul\":6717:7136   */\n    tag_71:\n        /* \"#utility.yul\":6883:6887   */\n      0x00\n        /* \"#utility.yul\":6921:6923   */\n      0x20\n        /* \"#utility.yul\":6910:6919   */\n      dup3\n        /* \"#utility.yul\":6906:6924   */\n      add\n        /* \"#utility.yul\":6898:6924   */\n      swap1\n      pop\n        /* \"#utility.yul\":6970:6979   */\n      dup2\n        /* \"#utility.yul\":6964:6968   */\n      dup2\n        /* \"#utility.yul\":6960:6980   */\n      sub\n        /* \"#utility.yul\":6956:6957   */\n      0x00\n        /* \"#utility.yul\":6945:6954   */\n      dup4\n        /* \"#utility.yul\":6941:6958   */\n      add\n        /* \"#utility.yul\":6934:6981   */\n      mstore\n        /* \"#utility.yul\":6998:7129   */\n      tag_165\n        /* \"#utility.yul\":7124:7128   */\n      dup2\n        /* \"#utility.yul\":6998:7129   */\n      tag_131\n      jump\t// in\n    tag_165:\n        /* \"#utility.yul\":6990:7129   */\n      swap1\n      pop\n        /* \"#utility.yul\":6888:7136   */\n      swap2\n      swap1\n      pop\n      jump\t// out\n        /* \"#utility.yul\":7142:7364   */\n    tag_35:\n        /* \"#utility.yul\":7235:7239   */\n      0x00\n        /* \"#utility.yul\":7273:7275   */\n      0x20\n        /* \"#utility.yul\":7262:7271   */\n      dup3\n        /* \"#utility.yul\":7258:7276   */\n      add\n        /* \"#utility.yul\":7250:7276   */\n      swap1\n      pop\n        /* \"#utility.yul\":7286:7357   */\n      tag_167\n        /* \"#utility.yul\":7354:7355   */\n      0x00\n        /* \"#utility.yul\":7343:7352   */\n      dup4\n        /* \"#utility.yul\":7339:7356   */\n      add\n        /* \"#utility.yul\":7330:7336   */\n      dup5\n        /* \"#utility.yul\":7286:7357   */\n      tag_142\n      jump\t// in\n    tag_167:\n        /* \"#utility.yul\":7240:7364   */\n      swap3\n      swap2\n      pop\n      pop\n      jump\t// out\n        /* \"#utility.yul\":7370:7517   */\n    tag_139:\n        /* \"#utility.yul\":7471:7482   */\n      0x00\n        /* \"#utility.yul\":7508:7511   */\n      dup2\n        /* \"#utility.yul\":7493:7511   */\n      swap1\n      pop\n        /* \"#utility.yul\":7483:7517   */\n      swap3\n      swap2\n      pop\n      pop\n      jump\t// out\n        /* \"#utility.yul\":7523:7692   */\n    tag_113:\n        /* \"#utility.yul\":7607:7618   */\n      0x00\n        /* \"#utility.yul\":7641:7647   */\n      dup3\n        /* \"#utility.yul\":7636:7639   */\n      dup3\n        /* \"#utility.yul\":7629:7648   */\n      mstore\n        /* \"#utility.yul\":7681:7685   */\n      0x20\n        /* \"#utility.yul\":7676:7679   */\n      dup3\n        /* \"#utility.yul\":7672:7686   */\n      add\n        /* \"#utility.yul\":7657:7686   */\n      swap1\n      pop\n        /* \"#utility.yul\":7619:7692   */\n      swap3\n      swap2\n      pop\n      pop\n      jump\t// out\n        /* \"#utility.yul\":7698:7883   */\n    tag_54:\n        /* \"#utility.yul\":7738:7739   */\n      0x00\n        /* \"#utility.yul\":7755:7775   */\n      tag_171\n        /* \"#utility.yul\":7773:7774   */\n      dup3\n        /* \"#utility.yul\":7755:7775   */\n      tag_145\n      jump\t// in\n    tag_171:\n        /* \"#utility.yul\":7750:7775   */\n      swap2\n      pop\n        /* \"#utility.yul\":7789:7809   */\n      tag_172\n        /* \"#utility.yul\":7807:7808   */\n      dup4\n        /* \"#utility.yul\":7789:7809   */\n      tag_145\n      jump\t// in\n    tag_172:\n        /* \"#utility.yul\":7784:7809   */\n      swap3\n      pop\n        /* \"#utility.yul\":7828:7829   */\n      dup3\n        /* \"#utility.yul\":7818:7820   */\n      tag_173\n      jumpi\n        /* \"#utility.yul\":7833:7851   */\n      tag_174\n      tag_175\n      jump\t// in\n    tag_174:\n        /* \"#utility.yul\":7818:7820   */\n    tag_173:\n        /* \"#utility.yul\":7875:7876   */\n      dup3\n        /* \"#utility.yul\":7872:7873   */\n      dup3\n        /* \"#utility.yul\":7868:7877   */\n      div\n        /* \"#utility.yul\":7863:7877   */\n      swap1\n      pop\n        /* \"#utility.yul\":7740:7883   */\n      swap3\n      swap2\n      pop\n      pop\n      jump\t// out\n        /* \"#utility.yul\":7889:7985   */\n    tag_105:\n        /* \"#utility.yul\":7926:7933   */\n      0x00\n        /* \"#utility.yul\":7955:7979   */\n      tag_177\n        /* \"#utility.yul\":7973:7978   */\n      dup3\n        /* \"#utility.yul\":7955:7979   */\n      tag_178\n      jump\t// in\n    tag_177:\n        /* \"#utility.yul\":7944:7979   */\n      swap1\n      pop\n        /* \"#utility.yul\":7934:7985   */\n      swap2\n      swap1\n      pop\n      jump\t// out\n        /* \"#utility.yul\":7991:8095   */\n    tag_101:\n        /* \"#utility.yul\":8036:8043   */\n      0x00\n        /* \"#utility.yul\":8065:8089   */\n      tag_180\n        /* \"#utility.yul\":8083:8088   */\n      dup3\n        /* \"#utility.yul\":8065:8089   */\n      tag_178\n      jump\t// in\n    tag_180:\n        /* \"#utility.yul\":8054:8089   */\n      swap1\n      pop\n        /* \"#utility.yul\":8044:8095   */\n      swap2\n      swap1\n      pop\n      jump\t// out\n        /* \"#utility.yul\":8101:8191   */\n    tag_181:\n        /* \"#utility.yul\":8135:8142   */\n      0x00\n        /* \"#utility.yul\":8178:8183   */\n      dup2\n        /* \"#utility.yul\":8171:8184   */\n      iszero\n        /* \"#utility.yul\":8164:8185   */\n      iszero\n        /* \"#utility.yul\":8153:8185   */\n      swap1\n      pop\n        /* \"#utility.yul\":8143:8191   */\n      swap2\n      swap1\n      pop\n      jump\t// out\n        /* \"#utility.yul\":8197:8323   */\n    tag_178:\n        /* \"#utility.yul\":8234:8241   */\n      0x00\n        /* \"#utility.yul\":8274:8316   */\n      0xffffffffffffffffffffffffffffffffffffffff\n        /* \"#utility.yul\":8267:8272   */\n      dup3\n        /* \"#utility.yul\":8263:8317   */\n      and\n        /* \"#utility.yul\":8252:8317   */\n      swap1\n      pop\n        /* \"#utility.yul\":8242:8323   */\n      swap2\n      swap1\n      pop\n      jump\t// out\n        /* \"#utility.yul\":8329:8406   */\n    tag_145:\n        /* \"#utility.yul\":8366:8373   */\n      0x00\n        /* \"#utility.yul\":8395:8400   */\n      dup2\n        /* \"#utility.yul\":8384:8400   */\n      swap1\n      pop\n        /* \"#utility.yul\":8374:8406   */\n      swap2\n      swap1\n      pop\n      jump\t// out\n        /* \"#utility.yul\":8412:8564   */\n    tag_109:\n        /* \"#utility.yul\":8475:8484   */\n      0x00\n        /* \"#utility.yul\":8508:8558   */\n      tag_186\n        /* \"#utility.yul\":8552:8557   */\n      dup3\n        /* \"#utility.yul\":8508:8558   */\n      tag_187\n      jump\t// in\n    tag_186:\n        /* \"#utility.yul\":8495:8558   */\n      swap1\n      pop\n        /* \"#utility.yul\":8485:8564   */\n      swap2\n      swap1\n      pop\n      jump\t// out\n        /* \"#utility.yul\":8570:8696   */\n    tag_187:\n        /* \"#utility.yul\":8633:8642   */\n      0x00\n        /* \"#utility.yul\":8666:8690   */\n      tag_189\n        /* \"#utility.yul\":8684:8689   */\n      dup3\n        /* \"#utility.yul\":8666:8690   */\n      tag_178\n      jump\t// in\n    tag_189:\n        /* \"#utility.yul\":8653:8690   */\n      swap1\n      pop\n        /* \"#utility.yul\":8643:8696   */\n      swap2\n      swap1\n      pop\n      jump\t// out\n        /* \"#utility.yul\":8888:9068   */\n    tag_175:\n        /* \"#utility.yul\":8936:9013   */\n      0x4e487b7100000000000000000000000000000000000000000000000000000000\n        /* \"#utility.yul\":8933:8934   */\n      0x00\n        /* \"#utility.yul\":8926:9014   */\n      mstore\n        /* \"#utility.yul\":9033:9037   */\n      0x12\n        /* \"#utility.yul\":9030:9031   */\n      0x04\n        /* \"#utility.yul\":9023:9038   */\n      mstore\n        /* \"#utility.yul\":9057:9061   */\n      0x24\n        /* \"#utility.yul\":9054:9055   */\n      0x00\n        /* \"#utility.yul\":9047:9062   */\n      revert\n        /* \"#utility.yul\":9074:9244   */\n    tag_115:\n        /* \"#utility.yul\":9214:9236   */\n      0x4661696c656420746f2073656e64204574686572000000000000000000000000\n        /* \"#utility.yul\":9210:9211   */\n      0x00\n        /* \"#utility.yul\":9202:9208   */\n      dup3\n        /* \"#utility.yul\":9198:9212   */\n      add\n        /* \"#utility.yul\":9191:9237   */\n      mstore\n        /* \"#utility.yul\":9180:9244   */\n      pop\n      jump\t// out\n        /* \"#utility.yul\":9250:9417   */\n    tag_120:\n        /* \"#utility.yul\":9390:9409   */\n      0x4e6f7420656e6f75676820746f20627579000000000000000000000000000000\n        /* \"#utility.yul\":9386:9387   */\n      0x00\n        /* \"#utility.yul\":9378:9384   */\n      dup3\n        /* \"#utility.yul\":9374:9388   */\n      add\n        /* \"#utility.yul\":9367:9410   */\n      mstore\n        /* \"#utility.yul\":9356:9417   */\n      pop\n      jump\t// out\n        /* \"#utility.yul\":9423:9583   */\n    tag_125:\n        /* \"#utility.yul\":9563:9575   */\n      0x4e6f7420656e6f75676800000000000000000000000000000000000000000000\n        /* \"#utility.yul\":9559:9560   */\n      0x00\n        /* \"#utility.yul\":9551:9557   */\n      dup3\n        /* \"#utility.yul\":9547:9561   */\n      add\n        /* \"#utility.yul\":9540:9576   */\n      mstore\n        /* \"#utility.yul\":9529:9583   */\n      pop\n      jump\t// out\n        /* \"#utility.yul\":9589:9760   */\n    tag_130:\n        /* \"#utility.yul\":9729:9752   */\n      0x546f6b656e207472616e73666572206661696c65640000000000000000000000\n        /* \"#utility.yul\":9725:9726   */\n      0x00\n        /* \"#utility.yul\":9717:9723   */\n      dup3\n        /* \"#utility.yul\":9713:9727   */\n      add\n        /* \"#utility.yul\":9706:9753   */\n      mstore\n        /* \"#utility.yul\":9695:9760   */\n      pop\n      jump\t// out\n        /* \"#utility.yul\":9766:9932   */\n    tag_135:\n        /* \"#utility.yul\":9906:9924   */\n      0x5472616e73666572206661696c65642100000000000000000000000000000000\n        /* \"#utility.yul\":9902:9903   */\n      0x00\n        /* \"#utility.yul\":9894:9900   */\n      dup3\n        /* \"#utility.yul\":9890:9904   */\n      add\n        /* \"#utility.yul\":9883:9925   */\n      mstore\n        /* \"#utility.yul\":9872:9932   */\n      pop\n      jump\t// out\n        /* \"#utility.yul\":9938:10052   */\n    tag_141:\n        /* \"#utility.yul\":10044:10052   */\n      pop\n      jump\t// out\n        /* \"#utility.yul\":10058:10174   */\n    tag_87:\n        /* \"#utility.yul\":10128:10149   */\n      tag_200\n        /* \"#utility.yul\":10143:10148   */\n      dup2\n        /* \"#utility.yul\":10128:10149   */\n      tag_181\n      jump\t// in\n    tag_200:\n        /* \"#utility.yul\":10121:10126   */\n      dup2\n        /* \"#utility.yul\":10118:10150   */\n      eq\n        /* \"#utility.yul\":10108:10110   */\n      tag_201\n      jumpi\n        /* \"#utility.yul\":10164:10165   */\n      0x00\n        /* \"#utility.yul\":10161:10162   */\n      dup1\n        /* \"#utility.yul\":10154:10166   */\n      revert\n        /* \"#utility.yul\":10108:10110   */\n    tag_201:\n        /* \"#utility.yul\":10098:10174   */\n      pop\n      jump\t// out\n        /* \"#utility.yul\":10180:10302   */\n    tag_91:\n        /* \"#utility.yul\":10253:10277   */\n      tag_203\n        /* \"#utility.yul\":10271:10276   */\n      dup2\n        /* \"#utility.yul\":10253:10277   */\n      tag_145\n      jump\t// in\n    tag_203:\n        /* \"#utility.yul\":10246:10251   */\n      dup2\n        /* \"#utility.yul\":10243:10278   */\n      eq\n        /* \"#utility.yul\":10233:10235   */\n      tag_204\n      jumpi\n        /* \"#utility.yul\":10292:10293   */\n      0x00\n        /* \"#utility.yul\":10289:10290   */\n      dup1\n        /* \"#utility.yul\":10282:10294   */\n      revert\n        /* \"#utility.yul\":10233:10235   */\n    tag_204:\n        /* \"#utility.yul\":10223:10302   */\n      pop\n      jump\t// out\n\n    auxdata: 0xa2646970667358221220cda7718e3fd1824b5ae531ad1defa38fdffc4a92eaa3370d64fab8ec0d5aab2f64736f6c63430008040033\n}\n",
				"bytecode": {
					"linkReferences": {},
					"object": "608060405234801561001057600080fd5b50336000806101000a81548173ffffffffffffffffffffffffffffffffffffffff021916908373ffffffffffffffffffffffffffffffffffffffff16021790555062030d4060018190555073358aa13c52544eccef6b0add0f801012adad5ee3600360006101000a81548173ffffffffffffffffffffffffffffffffffffffff021916908373ffffffffffffffffffffffffffffffffffffffff160217905550610a7c806100bf6000396000f3fe6080604052600436106100705760003560e01c80638da5cb5b1161004e5780638da5cb5b146100d3578063ade87ecc146100fe578063d63cf1da14610127578063ebc4197c1461015257610070565b806323b160ac146100755780633cb40e16146100a057806380c31426146100b7575b600080fd5b34801561008157600080fd5b5061008a61017d565b6040516100979190610778565b60405180910390f35b3480156100ac57600080fd5b506100b56101a3565b005b6100d160048036038101906100cc91906105da565b610279565b005b3480156100df57600080fd5b506100e8610345565b6040516100f59190610726565b60405180910390f35b34801561010a57600080fd5b50610125600480360381019061012091906105da565b610369565b005b34801561013357600080fd5b5061013c6104a1565b6040516101499190610833565b60405180910390f35b34801561015e57600080fd5b506101676104a7565b6040516101749190610833565b60405180910390f35b600360009054906101000a900473ffffffffffffffffffffffffffffffffffffffff1681565b600047905060008060009054906101000a900473ffffffffffffffffffffffffffffffffffffffff1673ffffffffffffffffffffffffffffffffffffffff16826040516101ef90610711565b60006040518083038185875af1925050503d806000811461022c576040519150601f19603f3d011682016040523d82523d6000602084013e610231565b606091505b5050905080610275576040517f08c379a000000000000000000000000000000000000000000000000000000000815260040161026c90610793565b60405180910390fd5b5050565b6127108110156102be576040517f08c379a00000000000000000000000000000000000000000000000000000000081526004016102b5906107b3565b60405180910390fd5b6000600154826102ce919061086a565b905080341015610313576040517f08c379a000000000000000000000000000000000000000000000000000000000815260040161030a906107d3565b60405180910390fd5b610341600360009054906101000a900473ffffffffffffffffffffffffffffffffffffffff163033856104ad565b5050565b60008054906101000a900473ffffffffffffffffffffffffffffffffffffffff1681565b610397600360009054906101000a900473ffffffffffffffffffffffffffffffffffffffff163330846104ad565b6000600154826103a7919061086a565b90503373ffffffffffffffffffffffffffffffffffffffff166108fc829081150290604051600060405180830381858888f193505050501580156103ef573d6000803e3d6000fd5b5060003373ffffffffffffffffffffffffffffffffffffffff168260405161041690610711565b60006040518083038185875af1925050503d8060008114610453576040519150601f19603f3d011682016040523d82523d6000602084013e610458565b606091505b505090508061049c576040517f08c379a000000000000000000000000000000000000000000000000000000000815260040161049390610813565b60405180910390fd5b505050565b60025481565b60015481565b60008473ffffffffffffffffffffffffffffffffffffffff166323b872dd8585856040518463ffffffff1660e01b81526004016104ec93929190610741565b602060405180830381600087803b15801561050657600080fd5b505af115801561051a573d6000803e3d6000fd5b505050506040513d601f19601f8201168201806040525081019061053e91906105b1565b905080610580576040517f08c379a0000000000000000000000000000000000000000000000000000000008152600401610577906107f3565b60405180910390fd5b5050505050565b60008151905061059681610a18565b92915050565b6000813590506105ab81610a2f565b92915050565b6000602082840312156105c357600080fd5b60006105d184828501610587565b91505092915050565b6000602082840312156105ec57600080fd5b60006105fa8482850161059c565b91505092915050565b61060c816108ad565b82525050565b61061b8161089b565b82525050565b61062a816108f5565b82525050565b600061063d601483610859565b915061064882610948565b602082019050919050565b6000610660601183610859565b915061066b82610971565b602082019050919050565b6000610683600a83610859565b915061068e8261099a565b602082019050919050565b60006106a6601583610859565b91506106b1826109c3565b602082019050919050565b60006106c9601083610859565b91506106d4826109ec565b602082019050919050565b60006106ec60008361084e565b91506106f782610a15565b600082019050919050565b61070b816108eb565b82525050565b600061071c826106df565b9150819050919050565b600060208201905061073b6000830184610603565b92915050565b60006060820190506107566000830186610612565b6107636020830185610612565b6107706040830184610702565b949350505050565b600060208201905061078d6000830184610621565b92915050565b600060208201905081810360008301526107ac81610630565b9050919050565b600060208201905081810360008301526107cc81610653565b9050919050565b600060208201905081810360008301526107ec81610676565b9050919050565b6000602082019050818103600083015261080c81610699565b9050919050565b6000602082019050818103600083015261082c816106bc565b9050919050565b60006020820190506108486000830184610702565b92915050565b600081905092915050565b600082825260208201905092915050565b6000610875826108eb565b9150610880836108eb565b9250826108905761088f610919565b5b828204905092915050565b60006108a6826108cb565b9050919050565b60006108b8826108cb565b9050919050565b60008115159050919050565b600073ffffffffffffffffffffffffffffffffffffffff82169050919050565b6000819050919050565b600061090082610907565b9050919050565b6000610912826108cb565b9050919050565b7f4e487b7100000000000000000000000000000000000000000000000000000000600052601260045260246000fd5b7f4661696c656420746f2073656e64204574686572000000000000000000000000600082015250565b7f4e6f7420656e6f75676820746f20627579000000000000000000000000000000600082015250565b7f4e6f7420656e6f75676800000000000000000000000000000000000000000000600082015250565b7f546f6b656e207472616e73666572206661696c65640000000000000000000000600082015250565b7f5472616e73666572206661696c65642100000000000000000000000000000000600082015250565b50565b610a21816108bf565b8114610a2c57600080fd5b50565b610a38816108eb565b8114610a4357600080fd5b5056fea2646970667358221220cda7718e3fd1824b5ae531ad1defa38fdffc4a92eaa3370d64fab8ec0d5aab2f64736f6c63430008040033",
					"opcodes": "PUSH1 0x80 PUSH1 0x40 MSTORE CALLVALUE DUP1 ISZERO PUSH2 0x10 JUMPI PUSH1 0x0 DUP1 REVERT JUMPDEST POP CALLER PUSH1 0x0 DUP1 PUSH2 0x100 EXP DUP2 SLOAD DUP2 PUSH20 0xFFFFFFFFFFFFFFFFFFFFFFFFFFFFFFFFFFFFFFFF MUL NOT AND SWAP1 DUP4 PUSH20 0xFFFFFFFFFFFFFFFFFFFFFFFFFFFFFFFFFFFFFFFF AND MUL OR SWAP1 SSTORE POP PUSH3 0x30D40 PUSH1 0x1 DUP2 SWAP1 SSTORE POP PUSH20 0x358AA13C52544ECCEF6B0ADD0F801012ADAD5EE3 PUSH1 0x3 PUSH1 0x0 PUSH2 0x100 EXP DUP2 SLOAD DUP2 PUSH20 0xFFFFFFFFFFFFFFFFFFFFFFFFFFFFFFFFFFFFFFFF MUL NOT AND SWAP1 DUP4 PUSH20 0xFFFFFFFFFFFFFFFFFFFFFFFFFFFFFFFFFFFFFFFF AND MUL OR SWAP1 SSTORE POP PUSH2 0xA7C DUP1 PUSH2 0xBF PUSH1 0x0 CODECOPY PUSH1 0x0 RETURN INVALID PUSH1 0x80 PUSH1 0x40 MSTORE PUSH1 0x4 CALLDATASIZE LT PUSH2 0x70 JUMPI PUSH1 0x0 CALLDATALOAD PUSH1 0xE0 SHR DUP1 PUSH4 0x8DA5CB5B GT PUSH2 0x4E JUMPI DUP1 PUSH4 0x8DA5CB5B EQ PUSH2 0xD3 JUMPI DUP1 PUSH4 0xADE87ECC EQ PUSH2 0xFE JUMPI DUP1 PUSH4 0xD63CF1DA EQ PUSH2 0x127 JUMPI DUP1 PUSH4 0xEBC4197C EQ PUSH2 0x152 JUMPI PUSH2 0x70 JUMP JUMPDEST DUP1 PUSH4 0x23B160AC EQ PUSH2 0x75 JUMPI DUP1 PUSH4 0x3CB40E16 EQ PUSH2 0xA0 JUMPI DUP1 PUSH4 0x80C31426 EQ PUSH2 0xB7 JUMPI JUMPDEST PUSH1 0x0 DUP1 REVERT JUMPDEST CALLVALUE DUP1 ISZERO PUSH2 0x81 JUMPI PUSH1 0x0 DUP1 REVERT JUMPDEST POP PUSH2 0x8A PUSH2 0x17D JUMP JUMPDEST PUSH1 0x40 MLOAD PUSH2 0x97 SWAP2 SWAP1 PUSH2 0x778 JUMP JUMPDEST PUSH1 0x40 MLOAD DUP1 SWAP2 SUB SWAP1 RETURN JUMPDEST CALLVALUE DUP1 ISZERO PUSH2 0xAC JUMPI PUSH1 0x0 DUP1 REVERT JUMPDEST POP PUSH2 0xB5 PUSH2 0x1A3 JUMP JUMPDEST STOP JUMPDEST PUSH2 0xD1 PUSH1 0x4 DUP1 CALLDATASIZE SUB DUP2 ADD SWAP1 PUSH2 0xCC SWAP2 SWAP1 PUSH2 0x5DA JUMP JUMPDEST PUSH2 0x279 JUMP JUMPDEST STOP JUMPDEST CALLVALUE DUP1 ISZERO PUSH2 0xDF JUMPI PUSH1 0x0 DUP1 REVERT JUMPDEST POP PUSH2 0xE8 PUSH2 0x345 JUMP JUMPDEST PUSH1 0x40 MLOAD PUSH2 0xF5 SWAP2 SWAP1 PUSH2 0x726 JUMP JUMPDEST PUSH1 0x40 MLOAD DUP1 SWAP2 SUB SWAP1 RETURN JUMPDEST CALLVALUE DUP1 ISZERO PUSH2 0x10A JUMPI PUSH1 0x0 DUP1 REVERT JUMPDEST POP PUSH2 0x125 PUSH1 0x4 DUP1 CALLDATASIZE SUB DUP2 ADD SWAP1 PUSH2 0x120 SWAP2 SWAP1 PUSH2 0x5DA JUMP JUMPDEST PUSH2 0x369 JUMP JUMPDEST STOP JUMPDEST CALLVALUE DUP1 ISZERO PUSH2 0x133 JUMPI PUSH1 0x0 DUP1 REVERT JUMPDEST POP PUSH2 0x13C PUSH2 0x4A1 JUMP JUMPDEST PUSH1 0x40 MLOAD PUSH2 0x149 SWAP2 SWAP1 PUSH2 0x833 JUMP JUMPDEST PUSH1 0x40 MLOAD DUP1 SWAP2 SUB SWAP1 RETURN JUMPDEST CALLVALUE DUP1 ISZERO PUSH2 0x15E JUMPI PUSH1 0x0 DUP1 REVERT JUMPDEST POP PUSH2 0x167 PUSH2 0x4A7 JUMP JUMPDEST PUSH1 0x40 MLOAD PUSH2 0x174 SWAP2 SWAP1 PUSH2 0x833 JUMP JUMPDEST PUSH1 0x40 MLOAD DUP1 SWAP2 SUB SWAP1 RETURN JUMPDEST PUSH1 0x3 PUSH1 0x0 SWAP1 SLOAD SWAP1 PUSH2 0x100 EXP SWAP1 DIV PUSH20 0xFFFFFFFFFFFFFFFFFFFFFFFFFFFFFFFFFFFFFFFF AND DUP2 JUMP JUMPDEST PUSH1 0x0 SELFBALANCE SWAP1 POP PUSH1 0x0 DUP1 PUSH1 0x0 SWAP1 SLOAD SWAP1 PUSH2 0x100 EXP SWAP1 DIV PUSH20 0xFFFFFFFFFFFFFFFFFFFFFFFFFFFFFFFFFFFFFFFF AND PUSH20 0xFFFFFFFFFFFFFFFFFFFFFFFFFFFFFFFFFFFFFFFF AND DUP3 PUSH1 0x40 MLOAD PUSH2 0x1EF SWAP1 PUSH2 0x711 JUMP JUMPDEST PUSH1 0x0 PUSH1 0x40 MLOAD DUP1 DUP4 SUB DUP2 DUP6 DUP8 GAS CALL SWAP3 POP POP POP RETURNDATASIZE DUP1 PUSH1 0x0 DUP2 EQ PUSH2 0x22C JUMPI PUSH1 0x40 MLOAD SWAP2 POP PUSH1 0x1F NOT PUSH1 0x3F RETURNDATASIZE ADD AND DUP3 ADD PUSH1 0x40 MSTORE RETURNDATASIZE DUP3 MSTORE RETURNDATASIZE PUSH1 0x0 PUSH1 0x20 DUP5 ADD RETURNDATACOPY PUSH2 0x231 JUMP JUMPDEST PUSH1 0x60 SWAP2 POP JUMPDEST POP POP SWAP1 POP DUP1 PUSH2 0x275 JUMPI PUSH1 0x40 MLOAD PUSH32 0x8C379A000000000000000000000000000000000000000000000000000000000 DUP2 MSTORE PUSH1 0x4 ADD PUSH2 0x26C SWAP1 PUSH2 0x793 JUMP JUMPDEST PUSH1 0x40 MLOAD DUP1 SWAP2 SUB SWAP1 REVERT JUMPDEST POP POP JUMP JUMPDEST PUSH2 0x2710 DUP2 LT ISZERO PUSH2 0x2BE JUMPI PUSH1 0x40 MLOAD PUSH32 0x8C379A000000000000000000000000000000000000000000000000000000000 DUP2 MSTORE PUSH1 0x4 ADD PUSH2 0x2B5 SWAP1 PUSH2 0x7B3 JUMP JUMPDEST PUSH1 0x40 MLOAD DUP1 SWAP2 SUB SWAP1 REVERT JUMPDEST PUSH1 0x0 PUSH1 0x1 SLOAD DUP3 PUSH2 0x2CE SWAP2 SWAP1 PUSH2 0x86A JUMP JUMPDEST SWAP1 POP DUP1 CALLVALUE LT ISZERO PUSH2 0x313 JUMPI PUSH1 0x40 MLOAD PUSH32 0x8C379A000000000000000000000000000000000000000000000000000000000 DUP2 MSTORE PUSH1 0x4 ADD PUSH2 0x30A SWAP1 PUSH2 0x7D3 JUMP JUMPDEST PUSH1 0x40 MLOAD DUP1 SWAP2 SUB SWAP1 REVERT JUMPDEST PUSH2 0x341 PUSH1 0x3 PUSH1 0x0 SWAP1 SLOAD SWAP1 PUSH2 0x100 EXP SWAP1 DIV PUSH20 0xFFFFFFFFFFFFFFFFFFFFFFFFFFFFFFFFFFFFFFFF AND ADDRESS CALLER DUP6 PUSH2 0x4AD JUMP JUMPDEST POP POP JUMP JUMPDEST PUSH1 0x0 DUP1 SLOAD SWAP1 PUSH2 0x100 EXP SWAP1 DIV PUSH20 0xFFFFFFFFFFFFFFFFFFFFFFFFFFFFFFFFFFFFFFFF AND DUP2 JUMP JUMPDEST PUSH2 0x397 PUSH1 0x3 PUSH1 0x0 SWAP1 SLOAD SWAP1 PUSH2 0x100 EXP SWAP1 DIV PUSH20 0xFFFFFFFFFFFFFFFFFFFFFFFFFFFFFFFFFFFFFFFF AND CALLER ADDRESS DUP5 PUSH2 0x4AD JUMP JUMPDEST PUSH1 0x0 PUSH1 0x1 SLOAD DUP3 PUSH2 0x3A7 SWAP2 SWAP1 PUSH2 0x86A JUMP JUMPDEST SWAP1 POP CALLER PUSH20 0xFFFFFFFFFFFFFFFFFFFFFFFFFFFFFFFFFFFFFFFF AND PUSH2 0x8FC DUP3 SWAP1 DUP2 ISZERO MUL SWAP1 PUSH1 0x40 MLOAD PUSH1 0x0 PUSH1 0x40 MLOAD DUP1 DUP4 SUB DUP2 DUP6 DUP9 DUP9 CALL SWAP4 POP POP POP POP ISZERO DUP1 ISZERO PUSH2 0x3EF JUMPI RETURNDATASIZE PUSH1 0x0 DUP1 RETURNDATACOPY RETURNDATASIZE PUSH1 0x0 REVERT JUMPDEST POP PUSH1 0x0 CALLER PUSH20 0xFFFFFFFFFFFFFFFFFFFFFFFFFFFFFFFFFFFFFFFF AND DUP3 PUSH1 0x40 MLOAD PUSH2 0x416 SWAP1 PUSH2 0x711 JUMP JUMPDEST PUSH1 0x0 PUSH1 0x40 MLOAD DUP1 DUP4 SUB DUP2 DUP6 DUP8 GAS CALL SWAP3 POP POP POP RETURNDATASIZE DUP1 PUSH1 0x0 DUP2 EQ PUSH2 0x453 JUMPI PUSH1 0x40 MLOAD SWAP2 POP PUSH1 0x1F NOT PUSH1 0x3F RETURNDATASIZE ADD AND DUP3 ADD PUSH1 0x40 MSTORE RETURNDATASIZE DUP3 MSTORE RETURNDATASIZE PUSH1 0x0 PUSH1 0x20 DUP5 ADD RETURNDATACOPY PUSH2 0x458 JUMP JUMPDEST PUSH1 0x60 SWAP2 POP JUMPDEST POP POP SWAP1 POP DUP1 PUSH2 0x49C JUMPI PUSH1 0x40 MLOAD PUSH32 0x8C379A000000000000000000000000000000000000000000000000000000000 DUP2 MSTORE PUSH1 0x4 ADD PUSH2 0x493 SWAP1 PUSH2 0x813 JUMP JUMPDEST PUSH1 0x40 MLOAD DUP1 SWAP2 SUB SWAP1 REVERT JUMPDEST POP POP POP JUMP JUMPDEST PUSH1 0x2 SLOAD DUP2 JUMP JUMPDEST PUSH1 0x1 SLOAD DUP2 JUMP JUMPDEST PUSH1 0x0 DUP5 PUSH20 0xFFFFFFFFFFFFFFFFFFFFFFFFFFFFFFFFFFFFFFFF AND PUSH4 0x23B872DD DUP6 DUP6 DUP6 PUSH1 0x40 MLOAD DUP5 PUSH4 0xFFFFFFFF AND PUSH1 0xE0 SHL DUP2 MSTORE PUSH1 0x4 ADD PUSH2 0x4EC SWAP4 SWAP3 SWAP2 SWAP1 PUSH2 0x741 JUMP JUMPDEST PUSH1 0x20 PUSH1 0x40 MLOAD DUP1 DUP4 SUB DUP2 PUSH1 0x0 DUP8 DUP1 EXTCODESIZE ISZERO DUP1 ISZERO PUSH2 0x506 JUMPI PUSH1 0x0 DUP1 REVERT JUMPDEST POP GAS CALL ISZERO DUP1 ISZERO PUSH2 0x51A JUMPI RETURNDATASIZE PUSH1 0x0 DUP1 RETURNDATACOPY RETURNDATASIZE PUSH1 0x0 REVERT JUMPDEST POP POP POP POP PUSH1 0x40 MLOAD RETURNDATASIZE PUSH1 0x1F NOT PUSH1 0x1F DUP3 ADD AND DUP3 ADD DUP1 PUSH1 0x40 MSTORE POP DUP2 ADD SWAP1 PUSH2 0x53E SWAP2 SWAP1 PUSH2 0x5B1 JUMP JUMPDEST SWAP1 POP DUP1 PUSH2 0x580 JUMPI PUSH1 0x40 MLOAD PUSH32 0x8C379A000000000000000000000000000000000000000000000000000000000 DUP2 MSTORE PUSH1 0x4 ADD PUSH2 0x577 SWAP1 PUSH2 0x7F3 JUMP JUMPDEST PUSH1 0x40 MLOAD DUP1 SWAP2 SUB SWAP1 REVERT JUMPDEST POP POP POP POP POP JUMP JUMPDEST PUSH1 0x0 DUP2 MLOAD SWAP1 POP PUSH2 0x596 DUP2 PUSH2 0xA18 JUMP JUMPDEST SWAP3 SWAP2 POP POP JUMP JUMPDEST PUSH1 0x0 DUP2 CALLDATALOAD SWAP1 POP PUSH2 0x5AB DUP2 PUSH2 0xA2F JUMP JUMPDEST SWAP3 SWAP2 POP POP JUMP JUMPDEST PUSH1 0x0 PUSH1 0x20 DUP3 DUP5 SUB SLT ISZERO PUSH2 0x5C3 JUMPI PUSH1 0x0 DUP1 REVERT JUMPDEST PUSH1 0x0 PUSH2 0x5D1 DUP5 DUP3 DUP6 ADD PUSH2 0x587 JUMP JUMPDEST SWAP2 POP POP SWAP3 SWAP2 POP POP JUMP JUMPDEST PUSH1 0x0 PUSH1 0x20 DUP3 DUP5 SUB SLT ISZERO PUSH2 0x5EC JUMPI PUSH1 0x0 DUP1 REVERT JUMPDEST PUSH1 0x0 PUSH2 0x5FA DUP5 DUP3 DUP6 ADD PUSH2 0x59C JUMP JUMPDEST SWAP2 POP POP SWAP3 SWAP2 POP POP JUMP JUMPDEST PUSH2 0x60C DUP2 PUSH2 0x8AD JUMP JUMPDEST DUP3 MSTORE POP POP JUMP JUMPDEST PUSH2 0x61B DUP2 PUSH2 0x89B JUMP JUMPDEST DUP3 MSTORE POP POP JUMP JUMPDEST PUSH2 0x62A DUP2 PUSH2 0x8F5 JUMP JUMPDEST DUP3 MSTORE POP POP JUMP JUMPDEST PUSH1 0x0 PUSH2 0x63D PUSH1 0x14 DUP4 PUSH2 0x859 JUMP JUMPDEST SWAP2 POP PUSH2 0x648 DUP3 PUSH2 0x948 JUMP JUMPDEST PUSH1 0x20 DUP3 ADD SWAP1 POP SWAP2 SWAP1 POP JUMP JUMPDEST PUSH1 0x0 PUSH2 0x660 PUSH1 0x11 DUP4 PUSH2 0x859 JUMP JUMPDEST SWAP2 POP PUSH2 0x66B DUP3 PUSH2 0x971 JUMP JUMPDEST PUSH1 0x20 DUP3 ADD SWAP1 POP SWAP2 SWAP1 POP JUMP JUMPDEST PUSH1 0x0 PUSH2 0x683 PUSH1 0xA DUP4 PUSH2 0x859 JUMP JUMPDEST SWAP2 POP PUSH2 0x68E DUP3 PUSH2 0x99A JUMP JUMPDEST PUSH1 0x20 DUP3 ADD SWAP1 POP SWAP2 SWAP1 POP JUMP JUMPDEST PUSH1 0x0 PUSH2 0x6A6 PUSH1 0x15 DUP4 PUSH2 0x859 JUMP JUMPDEST SWAP2 POP PUSH2 0x6B1 DUP3 PUSH2 0x9C3 JUMP JUMPDEST PUSH1 0x20 DUP3 ADD SWAP1 POP SWAP2 SWAP1 POP JUMP JUMPDEST PUSH1 0x0 PUSH2 0x6C9 PUSH1 0x10 DUP4 PUSH2 0x859 JUMP JUMPDEST SWAP2 POP PUSH2 0x6D4 DUP3 PUSH2 0x9EC JUMP JUMPDEST PUSH1 0x20 DUP3 ADD SWAP1 POP SWAP2 SWAP1 POP JUMP JUMPDEST PUSH1 0x0 PUSH2 0x6EC PUSH1 0x0 DUP4 PUSH2 0x84E JUMP JUMPDEST SWAP2 POP PUSH2 0x6F7 DUP3 PUSH2 0xA15 JUMP JUMPDEST PUSH1 0x0 DUP3 ADD SWAP1 POP SWAP2 SWAP1 POP JUMP JUMPDEST PUSH2 0x70B DUP2 PUSH2 0x8EB JUMP JUMPDEST DUP3 MSTORE POP POP JUMP JUMPDEST PUSH1 0x0 PUSH2 0x71C DUP3 PUSH2 0x6DF JUMP JUMPDEST SWAP2 POP DUP2 SWAP1 POP SWAP2 SWAP1 POP JUMP JUMPDEST PUSH1 0x0 PUSH1 0x20 DUP3 ADD SWAP1 POP PUSH2 0x73B PUSH1 0x0 DUP4 ADD DUP5 PUSH2 0x603 JUMP JUMPDEST SWAP3 SWAP2 POP POP JUMP JUMPDEST PUSH1 0x0 PUSH1 0x60 DUP3 ADD SWAP1 POP PUSH2 0x756 PUSH1 0x0 DUP4 ADD DUP7 PUSH2 0x612 JUMP JUMPDEST PUSH2 0x763 PUSH1 0x20 DUP4 ADD DUP6 PUSH2 0x612 JUMP JUMPDEST PUSH2 0x770 PUSH1 0x40 DUP4 ADD DUP5 PUSH2 0x702 JUMP JUMPDEST SWAP5 SWAP4 POP POP POP POP JUMP JUMPDEST PUSH1 0x0 PUSH1 0x20 DUP3 ADD SWAP1 POP PUSH2 0x78D PUSH1 0x0 DUP4 ADD DUP5 PUSH2 0x621 JUMP JUMPDEST SWAP3 SWAP2 POP POP JUMP JUMPDEST PUSH1 0x0 PUSH1 0x20 DUP3 ADD SWAP1 POP DUP2 DUP2 SUB PUSH1 0x0 DUP4 ADD MSTORE PUSH2 0x7AC DUP2 PUSH2 0x630 JUMP JUMPDEST SWAP1 POP SWAP2 SWAP1 POP JUMP JUMPDEST PUSH1 0x0 PUSH1 0x20 DUP3 ADD SWAP1 POP DUP2 DUP2 SUB PUSH1 0x0 DUP4 ADD MSTORE PUSH2 0x7CC DUP2 PUSH2 0x653 JUMP JUMPDEST SWAP1 POP SWAP2 SWAP1 POP JUMP JUMPDEST PUSH1 0x0 PUSH1 0x20 DUP3 ADD SWAP1 POP DUP2 DUP2 SUB PUSH1 0x0 DUP4 ADD MSTORE PUSH2 0x7EC DUP2 PUSH2 0x676 JUMP JUMPDEST SWAP1 POP SWAP2 SWAP1 POP JUMP JUMPDEST PUSH1 0x0 PUSH1 0x20 DUP3 ADD SWAP1 POP DUP2 DUP2 SUB PUSH1 0x0 DUP4 ADD MSTORE PUSH2 0x80C DUP2 PUSH2 0x699 JUMP JUMPDEST SWAP1 POP SWAP2 SWAP1 POP JUMP JUMPDEST PUSH1 0x0 PUSH1 0x20 DUP3 ADD SWAP1 POP DUP2 DUP2 SUB PUSH1 0x0 DUP4 ADD MSTORE PUSH2 0x82C DUP2 PUSH2 0x6BC JUMP JUMPDEST SWAP1 POP SWAP2 SWAP1 POP JUMP JUMPDEST PUSH1 0x0 PUSH1 0x20 DUP3 ADD SWAP1 POP PUSH2 0x848 PUSH1 0x0 DUP4 ADD DUP5 PUSH2 0x702 JUMP JUMPDEST SWAP3 SWAP2 POP POP JUMP JUMPDEST PUSH1 0x0 DUP2 SWAP1 POP SWAP3 SWAP2 POP POP JUMP JUMPDEST PUSH1 0x0 DUP3 DUP3 MSTORE PUSH1 0x20 DUP3 ADD SWAP1 POP SWAP3 SWAP2 POP POP JUMP JUMPDEST PUSH1 0x0 PUSH2 0x875 DUP3 PUSH2 0x8EB JUMP JUMPDEST SWAP2 POP PUSH2 0x880 DUP4 PUSH2 0x8EB JUMP JUMPDEST SWAP3 POP DUP3 PUSH2 0x890 JUMPI PUSH2 0x88F PUSH2 0x919 JUMP JUMPDEST JUMPDEST DUP3 DUP3 DIV SWAP1 POP SWAP3 SWAP2 POP POP JUMP JUMPDEST PUSH1 0x0 PUSH2 0x8A6 DUP3 PUSH2 0x8CB JUMP JUMPDEST SWAP1 POP SWAP2 SWAP1 POP JUMP JUMPDEST PUSH1 0x0 PUSH2 0x8B8 DUP3 PUSH2 0x8CB JUMP JUMPDEST SWAP1 POP SWAP2 SWAP1 POP JUMP JUMPDEST PUSH1 0x0 DUP2 ISZERO ISZERO SWAP1 POP SWAP2 SWAP1 POP JUMP JUMPDEST PUSH1 0x0 PUSH20 0xFFFFFFFFFFFFFFFFFFFFFFFFFFFFFFFFFFFFFFFF DUP3 AND SWAP1 POP SWAP2 SWAP1 POP JUMP JUMPDEST PUSH1 0x0 DUP2 SWAP1 POP SWAP2 SWAP1 POP JUMP JUMPDEST PUSH1 0x0 PUSH2 0x900 DUP3 PUSH2 0x907 JUMP JUMPDEST SWAP1 POP SWAP2 SWAP1 POP JUMP JUMPDEST PUSH1 0x0 PUSH2 0x912 DUP3 PUSH2 0x8CB JUMP JUMPDEST SWAP1 POP SWAP2 SWAP1 POP JUMP JUMPDEST PUSH32 0x4E487B7100000000000000000000000000000000000000000000000000000000 PUSH1 0x0 MSTORE PUSH1 0x12 PUSH1 0x4 MSTORE PUSH1 0x24 PUSH1 0x0 REVERT JUMPDEST PUSH32 0x4661696C656420746F2073656E64204574686572000000000000000000000000 PUSH1 0x0 DUP3 ADD MSTORE POP JUMP JUMPDEST PUSH32 0x4E6F7420656E6F75676820746F20627579000000000000000000000000000000 PUSH1 0x0 DUP3 ADD MSTORE POP JUMP JUMPDEST PUSH32 0x4E6F7420656E6F75676800000000000000000000000000000000000000000000 PUSH1 0x0 DUP3 ADD MSTORE POP JUMP JUMPDEST PUSH32 0x546F6B656E207472616E73666572206661696C65640000000000000000000000 PUSH1 0x0 DUP3 ADD MSTORE POP JUMP JUMPDEST PUSH32 0x5472616E73666572206661696C65642100000000000000000000000000000000 PUSH1 0x0 DUP3 ADD MSTORE POP JUMP JUMPDEST POP JUMP JUMPDEST PUSH2 0xA21 DUP2 PUSH2 0x8BF JUMP JUMPDEST DUP2 EQ PUSH2 0xA2C JUMPI PUSH1 0x0 DUP1 REVERT JUMPDEST POP JUMP JUMPDEST PUSH2 0xA38 DUP2 PUSH2 0x8EB JUMP JUMPDEST DUP2 EQ PUSH2 0xA43 JUMPI PUSH1 0x0 DUP1 REVERT JUMPDEST POP JUMP INVALID LOG2 PUSH5 0x6970667358 0x22 SLT KECCAK256 0xCD 0xA7 PUSH18 0x8E3FD1824B5AE531AD1DEFA38FDFFC4A92EA LOG3 CALLDATACOPY 0xD PUSH5 0xFAB8EC0D5A 0xAB 0x2F PUSH5 0x736F6C6343 STOP ADDMOD DIV STOP CALLER "
				},
				"gasEstimates": {
					"creation": {
						"codeDepositCost": "536800",
						"executionCost": "62315",
						"totalCost": "599115"
					},
					"external": {
						"BnbToSafuu()": "1195",
						"buySafuu(uint256)": "infinite",
						"owner()": "1211",
						"safuu()": "1258",
						"sellSafuu(uint256)": "infinite",
						"taxFactor()": "1173",
						"withdrawToOwner()": "infinite"
					},
					"internal": {
						"_safeTransferFrom(contract IERC20,address,address,uint256)": "infinite"
					}
				},
				"methodIdentifiers": {
					"BnbToSafuu()": "ebc4197c",
					"buySafuu(uint256)": "80c31426",
					"owner()": "8da5cb5b",
					"safuu()": "23b160ac",
					"sellSafuu(uint256)": "ade87ecc",
					"taxFactor()": "d63cf1da",
					"withdrawToOwner()": "3cb40e16"
				}
			},
			"userdoc": {
				"kind": "user",
				"methods": {},
				"version": 1
			}
		}
	}
}