{
	"w-ERC20.sol": {
		"ERC20": {
			"abi": [
				{
					"inputs": [
						{
							"internalType": "string",
							"name": "name_",
							"type": "string"
						},
						{
							"internalType": "string",
							"name": "symbol_",
							"type": "string"
						}
					],
					"stateMutability": "nonpayable",
					"type": "constructor"
				},
				{
					"anonymous": false,
					"inputs": [
						{
							"indexed": true,
							"internalType": "address",
							"name": "owner",
							"type": "address"
						},
						{
							"indexed": true,
							"internalType": "address",
							"name": "spender",
							"type": "address"
						},
						{
							"indexed": false,
							"internalType": "uint256",
							"name": "value",
							"type": "uint256"
						}
					],
					"name": "Approval",
					"type": "event"
				},
				{
					"anonymous": false,
					"inputs": [
						{
							"indexed": true,
							"internalType": "address",
							"name": "from",
							"type": "address"
						},
						{
							"indexed": true,
							"internalType": "address",
							"name": "to",
							"type": "address"
						},
						{
							"indexed": false,
							"internalType": "uint256",
							"name": "value",
							"type": "uint256"
						}
					],
					"name": "Transfer",
					"type": "event"
				},
				{
					"inputs": [
						{
							"internalType": "address",
							"name": "owner",
							"type": "address"
						},
						{
							"internalType": "address",
							"name": "spender",
							"type": "address"
						}
					],
					"name": "allowance",
					"outputs": [
						{
							"internalType": "uint256",
							"name": "",
							"type": "uint256"
						}
					],
					"stateMutability": "view",
					"type": "function"
				},
				{
					"inputs": [
						{
							"internalType": "address",
							"name": "spender",
							"type": "address"
						},
						{
							"internalType": "uint256",
							"name": "amount",
							"type": "uint256"
						}
					],
					"name": "approve",
					"outputs": [
						{
							"internalType": "bool",
							"name": "",
							"type": "bool"
						}
					],
					"stateMutability": "nonpayable",
					"type": "function"
				},
				{
					"inputs": [
						{
							"internalType": "address",
							"name": "account",
							"type": "address"
						}
					],
					"name": "balanceOf",
					"outputs": [
						{
							"internalType": "uint256",
							"name": "",
							"type": "uint256"
						}
					],
					"stateMutability": "view",
					"type": "function"
				},
				{
					"inputs": [
						{
							"internalType": "address",
							"name": "from",
							"type": "address"
						},
						{
							"internalType": "uint256",
							"name": "amount",
							"type": "uint256"
						}
					],
					"name": "burn",
					"outputs": [],
					"stateMutability": "nonpayable",
					"type": "function"
				},
				{
					"inputs": [],
					"name": "decimals",
					"outputs": [
						{
							"internalType": "uint8",
							"name": "",
							"type": "uint8"
						}
					],
					"stateMutability": "view",
					"type": "function"
				},
				{
					"inputs": [
						{
							"internalType": "address",
							"name": "spender",
							"type": "address"
						},
						{
							"internalType": "uint256",
							"name": "subtractedValue",
							"type": "uint256"
						}
					],
					"name": "decreaseAllowance",
					"outputs": [
						{
							"internalType": "bool",
							"name": "",
							"type": "bool"
						}
					],
					"stateMutability": "nonpayable",
					"type": "function"
				},
				{
					"inputs": [
						{
							"internalType": "address",
							"name": "spender",
							"type": "address"
						},
						{
							"internalType": "uint256",
							"name": "addedValue",
							"type": "uint256"
						}
					],
					"name": "increaseAllowance",
					"outputs": [
						{
							"internalType": "bool",
							"name": "",
							"type": "bool"
						}
					],
					"stateMutability": "nonpayable",
					"type": "function"
				},
				{
					"inputs": [
						{
							"internalType": "address",
							"name": "to",
							"type": "address"
						},
						{
							"internalType": "uint256",
							"name": "amount",
							"type": "uint256"
						}
					],
					"name": "mint",
					"outputs": [],
					"stateMutability": "nonpayable",
					"type": "function"
				},
				{
					"inputs": [],
					"name": "name",
					"outputs": [
						{
							"internalType": "string",
							"name": "",
							"type": "string"
						}
					],
					"stateMutability": "view",
					"type": "function"
				},
				{
					"inputs": [],
					"name": "symbol",
					"outputs": [
						{
							"internalType": "string",
							"name": "",
							"type": "string"
						}
					],
					"stateMutability": "view",
					"type": "function"
				},
				{
					"inputs": [],
					"name": "totalSupply",
					"outputs": [
						{
							"internalType": "uint256",
							"name": "",
							"type": "uint256"
						}
					],
					"stateMutability": "view",
					"type": "function"
				},
				{
					"inputs": [
						{
							"internalType": "address",
							"name": "recipient",
							"type": "address"
						},
						{
							"internalType": "uint256",
							"name": "amount",
							"type": "uint256"
						}
					],
					"name": "transfer",
					"outputs": [
						{
							"internalType": "bool",
							"name": "",
							"type": "bool"
						}
					],
					"stateMutability": "nonpayable",
					"type": "function"
				},
				{
					"inputs": [
						{
							"internalType": "address",
							"name": "sender",
							"type": "address"
						},
						{
							"internalType": "address",
							"name": "recipient",
							"type": "address"
						},
						{
							"internalType": "uint256",
							"name": "amount",
							"type": "uint256"
						}
					],
					"name": "transferFrom",
					"outputs": [
						{
							"internalType": "bool",
							"name": "",
							"type": "bool"
						}
					],
					"stateMutability": "nonpayable",
					"type": "function"
				}
			],
			"devdoc": {
				"details": "Implementation of the {IERC20} interface. This implementation is agnostic to the way tokens are created. This means that a supply mechanism has to be added in a derived contract using {_mint}. For a generic mechanism see {ERC20PresetMinterPauser}. TIP: For a detailed writeup see our guide https://forum.zeppelin.solutions/t/how-to-implement-erc20-supply-mechanisms/226[How to implement supply mechanisms]. We have followed general OpenZeppelin Contracts guidelines: functions revert instead returning `false` on failure. This behavior is nonetheless conventional and does not conflict with the expectations of ERC20 applications. Additionally, an {Approval} event is emitted on calls to {transferFrom}. This allows applications to reconstruct the allowance for all accounts just by listening to said events. Other implementations of the EIP may not emit these events, as it isn't required by the specification. Finally, the non-standard {decreaseAllowance} and {increaseAllowance} functions have been added to mitigate the well-known issues around setting allowances. See {IERC20-approve}.",
				"kind": "dev",
				"methods": {
					"allowance(address,address)": {
						"details": "See {IERC20-allowance}."
					},
					"approve(address,uint256)": {
						"details": "See {IERC20-approve}. Requirements: - `spender` cannot be the zero address."
					},
					"balanceOf(address)": {
						"details": "See {IERC20-balanceOf}."
					},
					"burn(address,uint256)": {
						"details": "See {IERC20-burn}."
					},
					"constructor": {
						"details": "Sets the values for {name} and {symbol}. The default value of {decimals} is 18. To select a different value for {decimals} you should overload it. All two of these values are immutable: they can only be set once during construction."
					},
					"decimals()": {
						"details": "Returns the number of decimals used to get its user representation. For example, if `decimals` equals `2`, a balance of `505` tokens should be displayed to a user as `5.05` (`505 / 10 ** 2`). Tokens usually opt for a value of 18, imitating the relationship between Ether and Wei. This is the value {ERC20} uses, unless this function is overridden; NOTE: This information is only used for _display_ purposes: it in no way affects any of the arithmetic of the contract, including {IERC20-balanceOf} and {IERC20-transfer}."
					},
					"decreaseAllowance(address,uint256)": {
						"details": "Atomically decreases the allowance granted to `spender` by the caller. This is an alternative to {approve} that can be used as a mitigation for problems described in {IERC20-approve}. Emits an {Approval} event indicating the updated allowance. Requirements: - `spender` cannot be the zero address. - `spender` must have allowance for the caller of at least `subtractedValue`."
					},
					"increaseAllowance(address,uint256)": {
						"details": "Atomically increases the allowance granted to `spender` by the caller. This is an alternative to {approve} that can be used as a mitigation for problems described in {IERC20-approve}. Emits an {Approval} event indicating the updated allowance. Requirements: - `spender` cannot be the zero address."
					},
					"mint(address,uint256)": {
						"details": "See {IERC20-mint}."
					},
					"name()": {
						"details": "Returns the name of the token."
					},
					"symbol()": {
						"details": "Returns the symbol of the token, usually a shorter version of the name."
					},
					"totalSupply()": {
						"details": "See {IERC20-totalSupply}."
					},
					"transfer(address,uint256)": {
						"details": "See {IERC20-transfer}. Requirements: - `recipient` cannot be the zero address. - the caller must have a balance of at least `amount`."
					},
					"transferFrom(address,address,uint256)": {
						"details": "See {IERC20-transferFrom}. Emits an {Approval} event indicating the updated allowance. This is not required by the EIP. See the note at the beginning of {ERC20}. Requirements: - `sender` and `recipient` cannot be the zero address. - `sender` must have a balance of at least `amount`. - the caller must have allowance for ``sender``'s tokens of at least `amount`."
					}
				},
				"version": 1
			},
			"evm": {
				"assembly": "    /* \"w-ERC20.sol\":1371:12504  contract ERC20 is Context, IERC20, IERC20Metadata {... */\n  mstore(0x40, 0x80)\n    /* \"w-ERC20.sol\":1988:2110  constructor(string memory name_, string memory symbol_) {... */\n  callvalue\n  dup1\n  iszero\n  tag_1\n  jumpi\n  0x00\n  dup1\n  revert\ntag_1:\n  pop\n  mload(0x40)\n  sub(codesize, bytecodeSize)\n  dup1\n  bytecodeSize\n  dup4\n  codecopy\n  dup2\n  dup2\n  add\n  0x40\n  mstore\n  dup2\n  add\n  swap1\n  tag_2\n  swap2\n  swap1\n  tag_3\n  jump\t// in\ntag_2:\n    /* \"w-ERC20.sol\":2062:2067  name_ */\n  dup2\n    /* \"w-ERC20.sol\":2054:2059  _name */\n  0x03\n    /* \"w-ERC20.sol\":2054:2067  _name = name_ */\n  swap1\n  dup1\n  mload\n  swap1\n  0x20\n  add\n  swap1\n  tag_6\n  swap3\n  swap2\n  swap1\n  tag_7\n  jump\t// in\ntag_6:\n  pop\n    /* \"w-ERC20.sol\":2087:2094  symbol_ */\n  dup1\n    /* \"w-ERC20.sol\":2077:2084  _symbol */\n  0x04\n    /* \"w-ERC20.sol\":2077:2094  _symbol = symbol_ */\n  swap1\n  dup1\n  mload\n  swap1\n  0x20\n  add\n  swap1\n  tag_8\n  swap3\n  swap2\n  swap1\n  tag_7\n  jump\t// in\ntag_8:\n  pop\n    /* \"w-ERC20.sol\":1988:2110  constructor(string memory name_, string memory symbol_) {... */\n  pop\n  pop\n    /* \"w-ERC20.sol\":1371:12504  contract ERC20 is Context, IERC20, IERC20Metadata {... */\n  jump(tag_9)\ntag_7:\n  dup3\n  dup1\n  sload\n  tag_10\n  swap1\n  tag_11\n  jump\t// in\ntag_10:\n  swap1\n  0x00\n  mstore\n  keccak256(0x00, 0x20)\n  swap1\n  0x1f\n  add\n  0x20\n  swap1\n  div\n  dup2\n  add\n  swap3\n  dup3\n  tag_13\n  jumpi\n  0x00\n  dup6\n  sstore\n  jump(tag_12)\ntag_13:\n  dup3\n  0x1f\n  lt\n  tag_14\n  jumpi\n  dup1\n  mload\n  not(0xff)\n  and\n  dup4\n  dup1\n  add\n  or\n  dup6\n  sstore\n  jump(tag_12)\ntag_14:\n  dup3\n  dup1\n  add\n  0x01\n  add\n  dup6\n  sstore\n  dup3\n  iszero\n  tag_12\n  jumpi\n  swap2\n  dup3\n  add\ntag_15:\n  dup3\n  dup2\n  gt\n  iszero\n  tag_16\n  jumpi\n  dup3\n  mload\n  dup3\n  sstore\n  swap2\n  0x20\n  add\n  swap2\n  swap1\n  0x01\n  add\n  swap1\n  jump(tag_15)\ntag_16:\ntag_12:\n  pop\n  swap1\n  pop\n  tag_17\n  swap2\n  swap1\n  tag_18\n  jump\t// in\ntag_17:\n  pop\n  swap1\n  jump\t// out\ntag_18:\ntag_19:\n  dup1\n  dup3\n  gt\n  iszero\n  tag_20\n  jumpi\n  0x00\n  dup2\n  0x00\n  swap1\n  sstore\n  pop\n  0x01\n  add\n  jump(tag_19)\ntag_20:\n  pop\n  swap1\n  jump\t// out\n    /* \"#utility.yul\":7:428   */\ntag_22:\n    /* \"#utility.yul\":96:101   */\n  0x00\n    /* \"#utility.yul\":121:187   */\n  tag_24\n    /* \"#utility.yul\":137:186   */\n  tag_25\n    /* \"#utility.yul\":179:185   */\n  dup5\n    /* \"#utility.yul\":137:186   */\n  tag_26\n  jump\t// in\ntag_25:\n    /* \"#utility.yul\":121:187   */\n  tag_27\n  jump\t// in\ntag_24:\n    /* \"#utility.yul\":112:187   */\n  swap1\n  pop\n    /* \"#utility.yul\":210:216   */\n  dup3\n    /* \"#utility.yul\":203:208   */\n  dup2\n    /* \"#utility.yul\":196:217   */\n  mstore\n    /* \"#utility.yul\":248:252   */\n  0x20\n    /* \"#utility.yul\":241:246   */\n  dup2\n    /* \"#utility.yul\":237:253   */\n  add\n    /* \"#utility.yul\":286:289   */\n  dup5\n    /* \"#utility.yul\":277:283   */\n  dup5\n    /* \"#utility.yul\":272:275   */\n  dup5\n    /* \"#utility.yul\":268:284   */\n  add\n    /* \"#utility.yul\":265:290   */\n  gt\n    /* \"#utility.yul\":262:374   */\n  iszero\n  tag_28\n  jumpi\n    /* \"#utility.yul\":293:372   */\n  tag_29\n  tag_30\n  jump\t// in\ntag_29:\n    /* \"#utility.yul\":262:374   */\ntag_28:\n    /* \"#utility.yul\":383:422   */\n  tag_31\n    /* \"#utility.yul\":415:421   */\n  dup5\n    /* \"#utility.yul\":410:413   */\n  dup3\n    /* \"#utility.yul\":405:408   */\n  dup6\n    /* \"#utility.yul\":383:422   */\n  tag_32\n  jump\t// in\ntag_31:\n    /* \"#utility.yul\":102:428   */\n  pop\n    /* \"#utility.yul\":7:428   */\n  swap4\n  swap3\n  pop\n  pop\n  pop\n  jump\t// out\n    /* \"#utility.yul\":448:803   */\ntag_33:\n    /* \"#utility.yul\":515:520   */\n  0x00\n    /* \"#utility.yul\":564:567   */\n  dup3\n    /* \"#utility.yul\":557:561   */\n  0x1f\n    /* \"#utility.yul\":549:555   */\n  dup4\n    /* \"#utility.yul\":545:562   */\n  add\n    /* \"#utility.yul\":541:568   */\n  slt\n    /* \"#utility.yul\":531:653   */\n  tag_35\n  jumpi\n    /* \"#utility.yul\":572:651   */\n  tag_36\n  tag_37\n  jump\t// in\ntag_36:\n    /* \"#utility.yul\":531:653   */\ntag_35:\n    /* \"#utility.yul\":682:688   */\n  dup2\n    /* \"#utility.yul\":676:689   */\n  mload\n    /* \"#utility.yul\":707:797   */\n  tag_38\n    /* \"#utility.yul\":793:796   */\n  dup5\n    /* \"#utility.yul\":785:791   */\n  dup3\n    /* \"#utility.yul\":778:782   */\n  0x20\n    /* \"#utility.yul\":770:776   */\n  dup7\n    /* \"#utility.yul\":766:783   */\n  add\n    /* \"#utility.yul\":707:797   */\n  tag_22\n  jump\t// in\ntag_38:\n    /* \"#utility.yul\":698:797   */\n  swap2\n  pop\n    /* \"#utility.yul\":521:803   */\n  pop\n    /* \"#utility.yul\":448:803   */\n  swap3\n  swap2\n  pop\n  pop\n  jump\t// out\n    /* \"#utility.yul\":809:1662   */\ntag_3:\n    /* \"#utility.yul\":908:914   */\n  0x00\n    /* \"#utility.yul\":916:922   */\n  dup1\n    /* \"#utility.yul\":965:967   */\n  0x40\n    /* \"#utility.yul\":953:962   */\n  dup4\n    /* \"#utility.yul\":944:951   */\n  dup6\n    /* \"#utility.yul\":940:963   */\n  sub\n    /* \"#utility.yul\":936:968   */\n  slt\n    /* \"#utility.yul\":933:1052   */\n  iszero\n  tag_40\n  jumpi\n    /* \"#utility.yul\":971:1050   */\n  tag_41\n  tag_42\n  jump\t// in\ntag_41:\n    /* \"#utility.yul\":933:1052   */\ntag_40:\n    /* \"#utility.yul\":1112:1113   */\n  0x00\n    /* \"#utility.yul\":1101:1110   */\n  dup4\n    /* \"#utility.yul\":1097:1114   */\n  add\n    /* \"#utility.yul\":1091:1115   */\n  mload\n    /* \"#utility.yul\":1142:1160   */\n  0xffffffffffffffff\n    /* \"#utility.yul\":1134:1140   */\n  dup2\n    /* \"#utility.yul\":1131:1161   */\n  gt\n    /* \"#utility.yul\":1128:1245   */\n  iszero\n  tag_43\n  jumpi\n    /* \"#utility.yul\":1164:1243   */\n  tag_44\n  tag_45\n  jump\t// in\ntag_44:\n    /* \"#utility.yul\":1128:1245   */\ntag_43:\n    /* \"#utility.yul\":1269:1343   */\n  tag_46\n    /* \"#utility.yul\":1335:1342   */\n  dup6\n    /* \"#utility.yul\":1326:1332   */\n  dup3\n    /* \"#utility.yul\":1315:1324   */\n  dup7\n    /* \"#utility.yul\":1311:1333   */\n  add\n    /* \"#utility.yul\":1269:1343   */\n  tag_33\n  jump\t// in\ntag_46:\n    /* \"#utility.yul\":1259:1343   */\n  swap3\n  pop\n    /* \"#utility.yul\":1062:1353   */\n  pop\n    /* \"#utility.yul\":1413:1415   */\n  0x20\n    /* \"#utility.yul\":1402:1411   */\n  dup4\n    /* \"#utility.yul\":1398:1416   */\n  add\n    /* \"#utility.yul\":1392:1417   */\n  mload\n    /* \"#utility.yul\":1444:1462   */\n  0xffffffffffffffff\n    /* \"#utility.yul\":1436:1442   */\n  dup2\n    /* \"#utility.yul\":1433:1463   */\n  gt\n    /* \"#utility.yul\":1430:1547   */\n  iszero\n  tag_47\n  jumpi\n    /* \"#utility.yul\":1466:1545   */\n  tag_48\n  tag_45\n  jump\t// in\ntag_48:\n    /* \"#utility.yul\":1430:1547   */\ntag_47:\n    /* \"#utility.yul\":1571:1645   */\n  tag_49\n    /* \"#utility.yul\":1637:1644   */\n  dup6\n    /* \"#utility.yul\":1628:1634   */\n  dup3\n    /* \"#utility.yul\":1617:1626   */\n  dup7\n    /* \"#utility.yul\":1613:1635   */\n  add\n    /* \"#utility.yul\":1571:1645   */\n  tag_33\n  jump\t// in\ntag_49:\n    /* \"#utility.yul\":1561:1645   */\n  swap2\n  pop\n    /* \"#utility.yul\":1363:1655   */\n  pop\n    /* \"#utility.yul\":809:1662   */\n  swap3\n  pop\n  swap3\n  swap1\n  pop\n  jump\t// out\n    /* \"#utility.yul\":1668:1797   */\ntag_27:\n    /* \"#utility.yul\":1702:1708   */\n  0x00\n    /* \"#utility.yul\":1729:1749   */\n  tag_51\n  tag_52\n  jump\t// in\ntag_51:\n    /* \"#utility.yul\":1719:1749   */\n  swap1\n  pop\n    /* \"#utility.yul\":1758:1791   */\n  tag_53\n    /* \"#utility.yul\":1786:1790   */\n  dup3\n    /* \"#utility.yul\":1778:1784   */\n  dup3\n    /* \"#utility.yul\":1758:1791   */\n  tag_54\n  jump\t// in\ntag_53:\n    /* \"#utility.yul\":1668:1797   */\n  swap2\n  swap1\n  pop\n  jump\t// out\n    /* \"#utility.yul\":1803:1878   */\ntag_52:\n    /* \"#utility.yul\":1836:1842   */\n  0x00\n    /* \"#utility.yul\":1869:1871   */\n  0x40\n    /* \"#utility.yul\":1863:1872   */\n  mload\n    /* \"#utility.yul\":1853:1872   */\n  swap1\n  pop\n    /* \"#utility.yul\":1803:1878   */\n  swap1\n  jump\t// out\n    /* \"#utility.yul\":1884:2192   */\ntag_26:\n    /* \"#utility.yul\":1946:1950   */\n  0x00\n    /* \"#utility.yul\":2036:2054   */\n  0xffffffffffffffff\n    /* \"#utility.yul\":2028:2034   */\n  dup3\n    /* \"#utility.yul\":2025:2055   */\n  gt\n    /* \"#utility.yul\":2022:2078   */\n  iszero\n  tag_57\n  jumpi\n    /* \"#utility.yul\":2058:2076   */\n  tag_58\n  tag_59\n  jump\t// in\ntag_58:\n    /* \"#utility.yul\":2022:2078   */\ntag_57:\n    /* \"#utility.yul\":2096:2125   */\n  tag_60\n    /* \"#utility.yul\":2118:2124   */\n  dup3\n    /* \"#utility.yul\":2096:2125   */\n  tag_61\n  jump\t// in\ntag_60:\n    /* \"#utility.yul\":2088:2125   */\n  swap1\n  pop\n    /* \"#utility.yul\":2180:2184   */\n  0x20\n    /* \"#utility.yul\":2174:2178   */\n  dup2\n    /* \"#utility.yul\":2170:2185   */\n  add\n    /* \"#utility.yul\":2162:2185   */\n  swap1\n  pop\n    /* \"#utility.yul\":1884:2192   */\n  swap2\n  swap1\n  pop\n  jump\t// out\n    /* \"#utility.yul\":2198:2505   */\ntag_32:\n    /* \"#utility.yul\":2266:2267   */\n  0x00\n    /* \"#utility.yul\":2276:2389   */\ntag_63:\n    /* \"#utility.yul\":2290:2296   */\n  dup4\n    /* \"#utility.yul\":2287:2288   */\n  dup2\n    /* \"#utility.yul\":2284:2297   */\n  lt\n    /* \"#utility.yul\":2276:2389   */\n  iszero\n  tag_65\n  jumpi\n    /* \"#utility.yul\":2375:2376   */\n  dup1\n    /* \"#utility.yul\":2370:2373   */\n  dup3\n    /* \"#utility.yul\":2366:2377   */\n  add\n    /* \"#utility.yul\":2360:2378   */\n  mload\n    /* \"#utility.yul\":2356:2357   */\n  dup2\n    /* \"#utility.yul\":2351:2354   */\n  dup5\n    /* \"#utility.yul\":2347:2358   */\n  add\n    /* \"#utility.yul\":2340:2379   */\n  mstore\n    /* \"#utility.yul\":2312:2314   */\n  0x20\n    /* \"#utility.yul\":2309:2310   */\n  dup2\n    /* \"#utility.yul\":2305:2315   */\n  add\n    /* \"#utility.yul\":2300:2315   */\n  swap1\n  pop\n    /* \"#utility.yul\":2276:2389   */\n  jump(tag_63)\ntag_65:\n    /* \"#utility.yul\":2407:2413   */\n  dup4\n    /* \"#utility.yul\":2404:2405   */\n  dup2\n    /* \"#utility.yul\":2401:2414   */\n  gt\n    /* \"#utility.yul\":2398:2499   */\n  iszero\n  tag_66\n  jumpi\n    /* \"#utility.yul\":2487:2488   */\n  0x00\n    /* \"#utility.yul\":2478:2484   */\n  dup5\n    /* \"#utility.yul\":2473:2476   */\n  dup5\n    /* \"#utility.yul\":2469:2485   */\n  add\n    /* \"#utility.yul\":2462:2489   */\n  mstore\n    /* \"#utility.yul\":2398:2499   */\ntag_66:\n    /* \"#utility.yul\":2247:2505   */\n  pop\n    /* \"#utility.yul\":2198:2505   */\n  pop\n  pop\n  pop\n  jump\t// out\n    /* \"#utility.yul\":2511:2831   */\ntag_11:\n    /* \"#utility.yul\":2555:2561   */\n  0x00\n    /* \"#utility.yul\":2592:2593   */\n  0x02\n    /* \"#utility.yul\":2586:2590   */\n  dup3\n    /* \"#utility.yul\":2582:2594   */\n  div\n    /* \"#utility.yul\":2572:2594   */\n  swap1\n  pop\n    /* \"#utility.yul\":2639:2640   */\n  0x01\n    /* \"#utility.yul\":2633:2637   */\n  dup3\n    /* \"#utility.yul\":2629:2641   */\n  and\n    /* \"#utility.yul\":2660:2678   */\n  dup1\n    /* \"#utility.yul\":2650:2731   */\n  tag_68\n  jumpi\n    /* \"#utility.yul\":2716:2720   */\n  0x7f\n    /* \"#utility.yul\":2708:2714   */\n  dup3\n    /* \"#utility.yul\":2704:2721   */\n  and\n    /* \"#utility.yul\":2694:2721   */\n  swap2\n  pop\n    /* \"#utility.yul\":2650:2731   */\ntag_68:\n    /* \"#utility.yul\":2778:2780   */\n  0x20\n    /* \"#utility.yul\":2770:2776   */\n  dup3\n    /* \"#utility.yul\":2767:2781   */\n  lt\n    /* \"#utility.yul\":2747:2765   */\n  dup2\n    /* \"#utility.yul\":2744:2782   */\n  eq\n    /* \"#utility.yul\":2741:2825   */\n  iszero\n  tag_69\n  jumpi\n    /* \"#utility.yul\":2797:2815   */\n  tag_70\n  tag_71\n  jump\t// in\ntag_70:\n    /* \"#utility.yul\":2741:2825   */\ntag_69:\n    /* \"#utility.yul\":2562:2831   */\n  pop\n    /* \"#utility.yul\":2511:2831   */\n  swap2\n  swap1\n  pop\n  jump\t// out\n    /* \"#utility.yul\":2837:3118   */\ntag_54:\n    /* \"#utility.yul\":2920:2947   */\n  tag_73\n    /* \"#utility.yul\":2942:2946   */\n  dup3\n    /* \"#utility.yul\":2920:2947   */\n  tag_61\n  jump\t// in\ntag_73:\n    /* \"#utility.yul\":2912:2918   */\n  dup2\n    /* \"#utility.yul\":2908:2948   */\n  add\n    /* \"#utility.yul\":3050:3056   */\n  dup2\n    /* \"#utility.yul\":3038:3048   */\n  dup2\n    /* \"#utility.yul\":3035:3057   */\n  lt\n    /* \"#utility.yul\":3014:3032   */\n  0xffffffffffffffff\n    /* \"#utility.yul\":3002:3012   */\n  dup3\n    /* \"#utility.yul\":2999:3033   */\n  gt\n    /* \"#utility.yul\":2996:3058   */\n  or\n    /* \"#utility.yul\":2993:3081   */\n  iszero\n  tag_74\n  jumpi\n    /* \"#utility.yul\":3061:3079   */\n  tag_75\n  tag_59\n  jump\t// in\ntag_75:\n    /* \"#utility.yul\":2993:3081   */\ntag_74:\n    /* \"#utility.yul\":3101:3111   */\n  dup1\n    /* \"#utility.yul\":3097:3099   */\n  0x40\n    /* \"#utility.yul\":3090:3112   */\n  mstore\n    /* \"#utility.yul\":2880:3118   */\n  pop\n    /* \"#utility.yul\":2837:3118   */\n  pop\n  pop\n  jump\t// out\n    /* \"#utility.yul\":3124:3304   */\ntag_71:\n    /* \"#utility.yul\":3172:3249   */\n  0x4e487b7100000000000000000000000000000000000000000000000000000000\n    /* \"#utility.yul\":3169:3170   */\n  0x00\n    /* \"#utility.yul\":3162:3250   */\n  mstore\n    /* \"#utility.yul\":3269:3273   */\n  0x22\n    /* \"#utility.yul\":3266:3267   */\n  0x04\n    /* \"#utility.yul\":3259:3274   */\n  mstore\n    /* \"#utility.yul\":3293:3297   */\n  0x24\n    /* \"#utility.yul\":3290:3291   */\n  0x00\n    /* \"#utility.yul\":3283:3298   */\n  revert\n    /* \"#utility.yul\":3310:3490   */\ntag_59:\n    /* \"#utility.yul\":3358:3435   */\n  0x4e487b7100000000000000000000000000000000000000000000000000000000\n    /* \"#utility.yul\":3355:3356   */\n  0x00\n    /* \"#utility.yul\":3348:3436   */\n  mstore\n    /* \"#utility.yul\":3455:3459   */\n  0x41\n    /* \"#utility.yul\":3452:3453   */\n  0x04\n    /* \"#utility.yul\":3445:3460   */\n  mstore\n    /* \"#utility.yul\":3479:3483   */\n  0x24\n    /* \"#utility.yul\":3476:3477   */\n  0x00\n    /* \"#utility.yul\":3469:3484   */\n  revert\n    /* \"#utility.yul\":3496:3613   */\ntag_37:\n    /* \"#utility.yul\":3605:3606   */\n  0x00\n    /* \"#utility.yul\":3602:3603   */\n  dup1\n    /* \"#utility.yul\":3595:3607   */\n  revert\n    /* \"#utility.yul\":3619:3736   */\ntag_30:\n    /* \"#utility.yul\":3728:3729   */\n  0x00\n    /* \"#utility.yul\":3725:3726   */\n  dup1\n    /* \"#utility.yul\":3718:3730   */\n  revert\n    /* \"#utility.yul\":3742:3859   */\ntag_45:\n    /* \"#utility.yul\":3851:3852   */\n  0x00\n    /* \"#utility.yul\":3848:3849   */\n  dup1\n    /* \"#utility.yul\":3841:3853   */\n  revert\n    /* \"#utility.yul\":3865:3982   */\ntag_42:\n    /* \"#utility.yul\":3974:3975   */\n  0x00\n    /* \"#utility.yul\":3971:3972   */\n  dup1\n    /* \"#utility.yul\":3964:3976   */\n  revert\n    /* \"#utility.yul\":3988:4090   */\ntag_61:\n    /* \"#utility.yul\":4029:4035   */\n  0x00\n    /* \"#utility.yul\":4080:4082   */\n  0x1f\n    /* \"#utility.yul\":4076:4083   */\n  not\n    /* \"#utility.yul\":4071:4073   */\n  0x1f\n    /* \"#utility.yul\":4064:4069   */\n  dup4\n    /* \"#utility.yul\":4060:4074   */\n  add\n    /* \"#utility.yul\":4056:4084   */\n  and\n    /* \"#utility.yul\":4046:4084   */\n  swap1\n  pop\n    /* \"#utility.yul\":3988:4090   */\n  swap2\n  swap1\n  pop\n  jump\t// out\n    /* \"w-ERC20.sol\":1371:12504  contract ERC20 is Context, IERC20, IERC20Metadata {... */\ntag_9:\n  dataSize(sub_0)\n  dup1\n  dataOffset(sub_0)\n  0x00\n  codecopy\n  0x00\n  return\nstop\n\nsub_0: assembly {\n        /* \"w-ERC20.sol\":1371:12504  contract ERC20 is Context, IERC20, IERC20Metadata {... */\n      mstore(0x40, 0x80)\n      callvalue\n      dup1\n      iszero\n      tag_1\n      jumpi\n      0x00\n      dup1\n      revert\n    tag_1:\n      pop\n      jumpi(tag_2, lt(calldatasize, 0x04))\n      shr(0xe0, calldataload(0x00))\n      dup1\n      0x40c10f19\n      gt\n      tag_16\n      jumpi\n      dup1\n      0x9dc29fac\n      gt\n      tag_17\n      jumpi\n      dup1\n      0x9dc29fac\n      eq\n      tag_12\n      jumpi\n      dup1\n      0xa457c2d7\n      eq\n      tag_13\n      jumpi\n      dup1\n      0xa9059cbb\n      eq\n      tag_14\n      jumpi\n      dup1\n      0xdd62ed3e\n      eq\n      tag_15\n      jumpi\n      jump(tag_2)\n    tag_17:\n      dup1\n      0x40c10f19\n      eq\n      tag_9\n      jumpi\n      dup1\n      0x70a08231\n      eq\n      tag_10\n      jumpi\n      dup1\n      0x95d89b41\n      eq\n      tag_11\n      jumpi\n      jump(tag_2)\n    tag_16:\n      dup1\n      0x06fdde03\n      eq\n      tag_3\n      jumpi\n      dup1\n      0x095ea7b3\n      eq\n      tag_4\n      jumpi\n      dup1\n      0x18160ddd\n      eq\n      tag_5\n      jumpi\n      dup1\n      0x23b872dd\n      eq\n      tag_6\n      jumpi\n      dup1\n      0x313ce567\n      eq\n      tag_7\n      jumpi\n      dup1\n      0x39509351\n      eq\n      tag_8\n      jumpi\n    tag_2:\n      0x00\n      dup1\n      revert\n        /* \"w-ERC20.sol\":2292:2390  function name() public view virtual override returns (string memory) {... */\n    tag_3:\n      tag_18\n      tag_19\n      jump\t// in\n    tag_18:\n      mload(0x40)\n      tag_20\n      swap2\n      swap1\n      tag_21\n      jump\t// in\n    tag_20:\n      mload(0x40)\n      dup1\n      swap2\n      sub\n      swap1\n      return\n        /* \"w-ERC20.sol\":4730:4896  function approve(address spender, uint256 amount) public virtual override returns (bool) {... */\n    tag_4:\n      tag_22\n      0x04\n      dup1\n      calldatasize\n      sub\n      dup2\n      add\n      swap1\n      tag_23\n      swap2\n      swap1\n      tag_24\n      jump\t// in\n    tag_23:\n      tag_25\n      jump\t// in\n    tag_22:\n      mload(0x40)\n      tag_26\n      swap2\n      swap1\n      tag_27\n      jump\t// in\n    tag_26:\n      mload(0x40)\n      dup1\n      swap2\n      sub\n      swap1\n      return\n        /* \"w-ERC20.sol\":3380:3486  function totalSupply() public view virtual override returns (uint256) {... */\n    tag_5:\n      tag_28\n      tag_29\n      jump\t// in\n    tag_28:\n      mload(0x40)\n      tag_30\n      swap2\n      swap1\n      tag_31\n      jump\t// in\n    tag_30:\n      mload(0x40)\n      dup1\n      swap2\n      sub\n      swap1\n      return\n        /* \"w-ERC20.sol\":5363:5854  function transferFrom(... */\n    tag_6:\n      tag_32\n      0x04\n      dup1\n      calldatasize\n      sub\n      dup2\n      add\n      swap1\n      tag_33\n      swap2\n      swap1\n      tag_34\n      jump\t// in\n    tag_33:\n      tag_35\n      jump\t// in\n    tag_32:\n      mload(0x40)\n      tag_36\n      swap2\n      swap1\n      tag_27\n      jump\t// in\n    tag_36:\n      mload(0x40)\n      dup1\n      swap2\n      sub\n      swap1\n      return\n        /* \"w-ERC20.sol\":3229:3320  function decimals() public view virtual override returns (uint8) {... */\n    tag_7:\n      tag_37\n      tag_38\n      jump\t// in\n    tag_37:\n      mload(0x40)\n      tag_39\n      swap2\n      swap1\n      tag_40\n      jump\t// in\n    tag_39:\n      mload(0x40)\n      dup1\n      swap2\n      sub\n      swap1\n      return\n        /* \"w-ERC20.sol\":6249:6461  function increaseAllowance(address spender, uint256 addedValue) public virtual returns (bool) {... */\n    tag_8:\n      tag_41\n      0x04\n      dup1\n      calldatasize\n      sub\n      dup2\n      add\n      swap1\n      tag_42\n      swap2\n      swap1\n      tag_24\n      jump\t// in\n    tag_42:\n      tag_43\n      jump\t// in\n    tag_41:\n      mload(0x40)\n      tag_44\n      swap2\n      swap1\n      tag_27\n      jump\t// in\n    tag_44:\n      mload(0x40)\n      dup1\n      swap2\n      sub\n      swap1\n      return\n        /* \"w-ERC20.sol\":3538:3648  function mint(address to, uint256 amount) public virtual override  {... */\n    tag_9:\n      tag_45\n      0x04\n      dup1\n      calldatasize\n      sub\n      dup2\n      add\n      swap1\n      tag_46\n      swap2\n      swap1\n      tag_24\n      jump\t// in\n    tag_46:\n      tag_47\n      jump\t// in\n    tag_45:\n      stop\n        /* \"w-ERC20.sol\":3872:3997  function balanceOf(address account) public view virtual override returns (uint256) {... */\n    tag_10:\n      tag_48\n      0x04\n      dup1\n      calldatasize\n      sub\n      dup2\n      add\n      swap1\n      tag_49\n      swap2\n      swap1\n      tag_50\n      jump\t// in\n    tag_49:\n      tag_51\n      jump\t// in\n    tag_48:\n      mload(0x40)\n      tag_52\n      swap2\n      swap1\n      tag_31\n      jump\t// in\n    tag_52:\n      mload(0x40)\n      dup1\n      swap2\n      sub\n      swap1\n      return\n        /* \"w-ERC20.sol\":2503:2605  function symbol() public view virtual override returns (string memory) {... */\n    tag_11:\n      tag_53\n      tag_54\n      jump\t// in\n    tag_53:\n      mload(0x40)\n      tag_55\n      swap2\n      swap1\n      tag_21\n      jump\t// in\n    tag_55:\n      mload(0x40)\n      dup1\n      swap2\n      sub\n      swap1\n      return\n        /* \"w-ERC20.sol\":3700:3814  function burn(address from, uint256 amount) public virtual override  {... */\n    tag_12:\n      tag_56\n      0x04\n      dup1\n      calldatasize\n      sub\n      dup2\n      add\n      swap1\n      tag_57\n      swap2\n      swap1\n      tag_24\n      jump\t// in\n    tag_57:\n      tag_58\n      jump\t// in\n    tag_56:\n      stop\n        /* \"w-ERC20.sol\":6948:7353  function decreaseAllowance(address spender, uint256 subtractedValue) public virtual returns (bool) {... */\n    tag_13:\n      tag_59\n      0x04\n      dup1\n      calldatasize\n      sub\n      dup2\n      add\n      swap1\n      tag_60\n      swap2\n      swap1\n      tag_24\n      jump\t// in\n    tag_60:\n      tag_61\n      jump\t// in\n    tag_59:\n      mload(0x40)\n      tag_62\n      swap2\n      swap1\n      tag_27\n      jump\t// in\n    tag_62:\n      mload(0x40)\n      dup1\n      swap2\n      sub\n      swap1\n      return\n        /* \"w-ERC20.sol\":4200:4385  function transfer(address recipient, uint256 amount) public virtual override onlyApproved returns (bool) {... */\n    tag_14:\n      tag_63\n      0x04\n      dup1\n      calldatasize\n      sub\n      dup2\n      add\n      swap1\n      tag_64\n      swap2\n      swap1\n      tag_24\n      jump\t// in\n    tag_64:\n      tag_65\n      jump\t// in\n    tag_63:\n      mload(0x40)\n      tag_66\n      swap2\n      swap1\n      tag_27\n      jump\t// in\n    tag_66:\n      mload(0x40)\n      dup1\n      swap2\n      sub\n      swap1\n      return\n        /* \"w-ERC20.sol\":4443:4592  function allowance(address owner, address spender) public view virtual override returns (uint256) {... */\n    tag_15:\n      tag_67\n      0x04\n      dup1\n      calldatasize\n      sub\n      dup2\n      add\n      swap1\n      tag_68\n      swap2\n      swap1\n      tag_69\n      jump\t// in\n    tag_68:\n      tag_70\n      jump\t// in\n    tag_67:\n      mload(0x40)\n      tag_71\n      swap2\n      swap1\n      tag_31\n      jump\t// in\n    tag_71:\n      mload(0x40)\n      dup1\n      swap2\n      sub\n      swap1\n      return\n        /* \"w-ERC20.sol\":2292:2390  function name() public view virtual override returns (string memory) {... */\n    tag_19:\n        /* \"w-ERC20.sol\":2346:2359  string memory */\n      0x60\n        /* \"w-ERC20.sol\":2378:2383  _name */\n      0x03\n        /* \"w-ERC20.sol\":2371:2383  return _name */\n      dup1\n      sload\n      tag_73\n      swap1\n      tag_74\n      jump\t// in\n    tag_73:\n      dup1\n      0x1f\n      add\n      0x20\n      dup1\n      swap2\n      div\n      mul\n      0x20\n      add\n      mload(0x40)\n      swap1\n      dup2\n      add\n      0x40\n      mstore\n      dup1\n      swap3\n      swap2\n      swap1\n      dup2\n      dup2\n      mstore\n      0x20\n      add\n      dup3\n      dup1\n      sload\n      tag_75\n      swap1\n      tag_74\n      jump\t// in\n    tag_75:\n      dup1\n      iszero\n      tag_76\n      jumpi\n      dup1\n      0x1f\n      lt\n      tag_77\n      jumpi\n      0x0100\n      dup1\n      dup4\n      sload\n      div\n      mul\n      dup4\n      mstore\n      swap2\n      0x20\n      add\n      swap2\n      jump(tag_76)\n    tag_77:\n      dup3\n      add\n      swap2\n      swap1\n      0x00\n      mstore\n      keccak256(0x00, 0x20)\n      swap1\n    tag_78:\n      dup2\n      sload\n      dup2\n      mstore\n      swap1\n      0x01\n      add\n      swap1\n      0x20\n      add\n      dup1\n      dup4\n      gt\n      tag_78\n      jumpi\n      dup3\n      swap1\n      sub\n      0x1f\n      and\n      dup3\n      add\n      swap2\n    tag_76:\n      pop\n      pop\n      pop\n      pop\n      pop\n      swap1\n      pop\n        /* \"w-ERC20.sol\":2292:2390  function name() public view virtual override returns (string memory) {... */\n      swap1\n      jump\t// out\n        /* \"w-ERC20.sol\":4730:4896  function approve(address spender, uint256 amount) public virtual override returns (bool) {... */\n    tag_25:\n        /* \"w-ERC20.sol\":4813:4817  bool */\n      0x00\n        /* \"w-ERC20.sol\":4829:4868  _approve(_msgSender(), spender, amount) */\n      tag_80\n        /* \"w-ERC20.sol\":4838:4850  _msgSender() */\n      tag_81\n        /* \"w-ERC20.sol\":4838:4848  _msgSender */\n      tag_82\n        /* \"w-ERC20.sol\":4838:4850  _msgSender() */\n      jump\t// in\n    tag_81:\n        /* \"w-ERC20.sol\":4852:4859  spender */\n      dup5\n        /* \"w-ERC20.sol\":4861:4867  amount */\n      dup5\n        /* \"w-ERC20.sol\":4829:4837  _approve */\n      tag_83\n        /* \"w-ERC20.sol\":4829:4868  _approve(_msgSender(), spender, amount) */\n      jump\t// in\n    tag_80:\n        /* \"w-ERC20.sol\":4885:4889  true */\n      0x01\n        /* \"w-ERC20.sol\":4878:4889  return true */\n      swap1\n      pop\n        /* \"w-ERC20.sol\":4730:4896  function approve(address spender, uint256 amount) public virtual override returns (bool) {... */\n      swap3\n      swap2\n      pop\n      pop\n      jump\t// out\n        /* \"w-ERC20.sol\":3380:3486  function totalSupply() public view virtual override returns (uint256) {... */\n    tag_29:\n        /* \"w-ERC20.sol\":3441:3448  uint256 */\n      0x00\n        /* \"w-ERC20.sol\":3467:3479  _totalSupply */\n      sload(0x02)\n        /* \"w-ERC20.sol\":3460:3479  return _totalSupply */\n      swap1\n      pop\n        /* \"w-ERC20.sol\":3380:3486  function totalSupply() public view virtual override returns (uint256) {... */\n      swap1\n      jump\t// out\n        /* \"w-ERC20.sol\":5363:5854  function transferFrom(... */\n    tag_35:\n        /* \"w-ERC20.sol\":5512:5516  bool */\n      0x00\n        /* \"w-ERC20.sol\":2168:2186  approvedTransferor */\n      0x05\n      0x00\n      swap1\n      sload\n      swap1\n      0x0100\n      exp\n      swap1\n      div\n      0xffffffffffffffffffffffffffffffffffffffff\n      and\n        /* \"w-ERC20.sol\":2154:2186  msg.sender == approvedTransferor */\n      0xffffffffffffffffffffffffffffffffffffffff\n      and\n        /* \"w-ERC20.sol\":2154:2164  msg.sender */\n      caller\n        /* \"w-ERC20.sol\":2154:2186  msg.sender == approvedTransferor */\n      0xffffffffffffffffffffffffffffffffffffffff\n      and\n      eq\n        /* \"w-ERC20.sol\":2146:2212  require(msg.sender == approvedTransferor, \"Not Approved to do so\") */\n      tag_86\n      jumpi\n      mload(0x40)\n      0x08c379a000000000000000000000000000000000000000000000000000000000\n      dup2\n      mstore\n      0x04\n      add\n      tag_87\n      swap1\n      tag_88\n      jump\t// in\n    tag_87:\n      mload(0x40)\n      dup1\n      swap2\n      sub\n      swap1\n      revert\n    tag_86:\n        /* \"w-ERC20.sol\":5528:5564  _transfer(sender, recipient, amount) */\n      tag_90\n        /* \"w-ERC20.sol\":5538:5544  sender */\n      dup5\n        /* \"w-ERC20.sol\":5546:5555  recipient */\n      dup5\n        /* \"w-ERC20.sol\":5557:5563  amount */\n      dup5\n        /* \"w-ERC20.sol\":5528:5537  _transfer */\n      tag_91\n        /* \"w-ERC20.sol\":5528:5564  _transfer(sender, recipient, amount) */\n      jump\t// in\n    tag_90:\n        /* \"w-ERC20.sol\":5575:5599  uint256 currentAllowance */\n      0x00\n        /* \"w-ERC20.sol\":5602:5613  _allowances */\n      0x01\n        /* \"w-ERC20.sol\":5602:5621  _allowances[sender] */\n      0x00\n        /* \"w-ERC20.sol\":5614:5620  sender */\n      dup7\n        /* \"w-ERC20.sol\":5602:5621  _allowances[sender] */\n      0xffffffffffffffffffffffffffffffffffffffff\n      and\n      0xffffffffffffffffffffffffffffffffffffffff\n      and\n      dup2\n      mstore\n      0x20\n      add\n      swap1\n      dup2\n      mstore\n      0x20\n      add\n      0x00\n      keccak256\n        /* \"w-ERC20.sol\":5602:5635  _allowances[sender][_msgSender()] */\n      0x00\n        /* \"w-ERC20.sol\":5622:5634  _msgSender() */\n      tag_92\n        /* \"w-ERC20.sol\":5622:5632  _msgSender */\n      tag_82\n        /* \"w-ERC20.sol\":5622:5634  _msgSender() */\n      jump\t// in\n    tag_92:\n        /* \"w-ERC20.sol\":5602:5635  _allowances[sender][_msgSender()] */\n      0xffffffffffffffffffffffffffffffffffffffff\n      and\n      0xffffffffffffffffffffffffffffffffffffffff\n      and\n      dup2\n      mstore\n      0x20\n      add\n      swap1\n      dup2\n      mstore\n      0x20\n      add\n      0x00\n      keccak256\n      sload\n        /* \"w-ERC20.sol\":5575:5635  uint256 currentAllowance = _allowances[sender][_msgSender()] */\n      swap1\n      pop\n        /* \"w-ERC20.sol\":5673:5679  amount */\n      dup3\n        /* \"w-ERC20.sol\":5653:5669  currentAllowance */\n      dup2\n        /* \"w-ERC20.sol\":5653:5679  currentAllowance >= amount */\n      lt\n      iszero\n        /* \"w-ERC20.sol\":5645:5724  require(currentAllowance >= amount, \"ERC20: transfer amount exceeds allowance\") */\n      tag_93\n      jumpi\n      mload(0x40)\n      0x08c379a000000000000000000000000000000000000000000000000000000000\n      dup2\n      mstore\n      0x04\n      add\n      tag_94\n      swap1\n      tag_95\n      jump\t// in\n    tag_94:\n      mload(0x40)\n      dup1\n      swap2\n      sub\n      swap1\n      revert\n    tag_93:\n        /* \"w-ERC20.sol\":5758:5815  _approve(sender, _msgSender(), currentAllowance - amount) */\n      tag_96\n        /* \"w-ERC20.sol\":5767:5773  sender */\n      dup6\n        /* \"w-ERC20.sol\":5775:5787  _msgSender() */\n      tag_97\n        /* \"w-ERC20.sol\":5775:5785  _msgSender */\n      tag_82\n        /* \"w-ERC20.sol\":5775:5787  _msgSender() */\n      jump\t// in\n    tag_97:\n        /* \"w-ERC20.sol\":5808:5814  amount */\n      dup6\n        /* \"w-ERC20.sol\":5789:5805  currentAllowance */\n      dup5\n        /* \"w-ERC20.sol\":5789:5814  currentAllowance - amount */\n      sub\n        /* \"w-ERC20.sol\":5758:5766  _approve */\n      tag_83\n        /* \"w-ERC20.sol\":5758:5815  _approve(sender, _msgSender(), currentAllowance - amount) */\n      jump\t// in\n    tag_96:\n        /* \"w-ERC20.sol\":5843:5847  true */\n      0x01\n        /* \"w-ERC20.sol\":5836:5847  return true */\n      swap2\n      pop\n      pop\n        /* \"w-ERC20.sol\":5363:5854  function transferFrom(... */\n      swap4\n      swap3\n      pop\n      pop\n      pop\n      jump\t// out\n        /* \"w-ERC20.sol\":3229:3320  function decimals() public view virtual override returns (uint8) {... */\n    tag_38:\n        /* \"w-ERC20.sol\":3287:3292  uint8 */\n      0x00\n        /* \"w-ERC20.sol\":3311:3313  18 */\n      0x12\n        /* \"w-ERC20.sol\":3304:3313  return 18 */\n      swap1\n      pop\n        /* \"w-ERC20.sol\":3229:3320  function decimals() public view virtual override returns (uint8) {... */\n      swap1\n      jump\t// out\n        /* \"w-ERC20.sol\":6249:6461  function increaseAllowance(address spender, uint256 addedValue) public virtual returns (bool) {... */\n    tag_43:\n        /* \"w-ERC20.sol\":6337:6341  bool */\n      0x00\n        /* \"w-ERC20.sol\":6353:6433  _approve(_msgSender(), spender, _allowances[_msgSender()][spender] + addedValue) */\n      tag_100\n        /* \"w-ERC20.sol\":6362:6374  _msgSender() */\n      tag_101\n        /* \"w-ERC20.sol\":6362:6372  _msgSender */\n      tag_82\n        /* \"w-ERC20.sol\":6362:6374  _msgSender() */\n      jump\t// in\n    tag_101:\n        /* \"w-ERC20.sol\":6376:6383  spender */\n      dup5\n        /* \"w-ERC20.sol\":6422:6432  addedValue */\n      dup5\n        /* \"w-ERC20.sol\":6385:6396  _allowances */\n      0x01\n        /* \"w-ERC20.sol\":6385:6410  _allowances[_msgSender()] */\n      0x00\n        /* \"w-ERC20.sol\":6397:6409  _msgSender() */\n      tag_102\n        /* \"w-ERC20.sol\":6397:6407  _msgSender */\n      tag_82\n        /* \"w-ERC20.sol\":6397:6409  _msgSender() */\n      jump\t// in\n    tag_102:\n        /* \"w-ERC20.sol\":6385:6410  _allowances[_msgSender()] */\n      0xffffffffffffffffffffffffffffffffffffffff\n      and\n      0xffffffffffffffffffffffffffffffffffffffff\n      and\n      dup2\n      mstore\n      0x20\n      add\n      swap1\n      dup2\n      mstore\n      0x20\n      add\n      0x00\n      keccak256\n        /* \"w-ERC20.sol\":6385:6419  _allowances[_msgSender()][spender] */\n      0x00\n        /* \"w-ERC20.sol\":6411:6418  spender */\n      dup9\n        /* \"w-ERC20.sol\":6385:6419  _allowances[_msgSender()][spender] */\n      0xffffffffffffffffffffffffffffffffffffffff\n      and\n      0xffffffffffffffffffffffffffffffffffffffff\n      and\n      dup2\n      mstore\n      0x20\n      add\n      swap1\n      dup2\n      mstore\n      0x20\n      add\n      0x00\n      keccak256\n      sload\n        /* \"w-ERC20.sol\":6385:6432  _allowances[_msgSender()][spender] + addedValue */\n      tag_103\n      swap2\n      swap1\n      tag_104\n      jump\t// in\n    tag_103:\n        /* \"w-ERC20.sol\":6353:6361  _approve */\n      tag_83\n        /* \"w-ERC20.sol\":6353:6433  _approve(_msgSender(), spender, _allowances[_msgSender()][spender] + addedValue) */\n      jump\t// in\n    tag_100:\n        /* \"w-ERC20.sol\":6450:6454  true */\n      0x01\n        /* \"w-ERC20.sol\":6443:6454  return true */\n      swap1\n      pop\n        /* \"w-ERC20.sol\":6249:6461  function increaseAllowance(address spender, uint256 addedValue) public virtual returns (bool) {... */\n      swap3\n      swap2\n      pop\n      pop\n      jump\t// out\n        /* \"w-ERC20.sol\":3538:3648  function mint(address to, uint256 amount) public virtual override  {... */\n    tag_47:\n        /* \"w-ERC20.sol\":3624:3641  _mint(to, amount) */\n      tag_106\n        /* \"w-ERC20.sol\":3630:3632  to */\n      dup3\n        /* \"w-ERC20.sol\":3634:3640  amount */\n      dup3\n        /* \"w-ERC20.sol\":3624:3629  _mint */\n      tag_107\n        /* \"w-ERC20.sol\":3624:3641  _mint(to, amount) */\n      jump\t// in\n    tag_106:\n        /* \"w-ERC20.sol\":3538:3648  function mint(address to, uint256 amount) public virtual override  {... */\n      pop\n      pop\n      jump\t// out\n        /* \"w-ERC20.sol\":3872:3997  function balanceOf(address account) public view virtual override returns (uint256) {... */\n    tag_51:\n        /* \"w-ERC20.sol\":3946:3953  uint256 */\n      0x00\n        /* \"w-ERC20.sol\":3972:3981  _balances */\n      dup1\n        /* \"w-ERC20.sol\":3972:3990  _balances[account] */\n      0x00\n        /* \"w-ERC20.sol\":3982:3989  account */\n      dup4\n        /* \"w-ERC20.sol\":3972:3990  _balances[account] */\n      0xffffffffffffffffffffffffffffffffffffffff\n      and\n      0xffffffffffffffffffffffffffffffffffffffff\n      and\n      dup2\n      mstore\n      0x20\n      add\n      swap1\n      dup2\n      mstore\n      0x20\n      add\n      0x00\n      keccak256\n      sload\n        /* \"w-ERC20.sol\":3965:3990  return _balances[account] */\n      swap1\n      pop\n        /* \"w-ERC20.sol\":3872:3997  function balanceOf(address account) public view virtual override returns (uint256) {... */\n      swap2\n      swap1\n      pop\n      jump\t// out\n        /* \"w-ERC20.sol\":2503:2605  function symbol() public view virtual override returns (string memory) {... */\n    tag_54:\n        /* \"w-ERC20.sol\":2559:2572  string memory */\n      0x60\n        /* \"w-ERC20.sol\":2591:2598  _symbol */\n      0x04\n        /* \"w-ERC20.sol\":2584:2598  return _symbol */\n      dup1\n      sload\n      tag_110\n      swap1\n      tag_74\n      jump\t// in\n    tag_110:\n      dup1\n      0x1f\n      add\n      0x20\n      dup1\n      swap2\n      div\n      mul\n      0x20\n      add\n      mload(0x40)\n      swap1\n      dup2\n      add\n      0x40\n      mstore\n      dup1\n      swap3\n      swap2\n      swap1\n      dup2\n      dup2\n      mstore\n      0x20\n      add\n      dup3\n      dup1\n      sload\n      tag_111\n      swap1\n      tag_74\n      jump\t// in\n    tag_111:\n      dup1\n      iszero\n      tag_112\n      jumpi\n      dup1\n      0x1f\n      lt\n      tag_113\n      jumpi\n      0x0100\n      dup1\n      dup4\n      sload\n      div\n      mul\n      dup4\n      mstore\n      swap2\n      0x20\n      add\n      swap2\n      jump(tag_112)\n    tag_113:\n      dup3\n      add\n      swap2\n      swap1\n      0x00\n      mstore\n      keccak256(0x00, 0x20)\n      swap1\n    tag_114:\n      dup2\n      sload\n      dup2\n      mstore\n      swap1\n      0x01\n      add\n      swap1\n      0x20\n      add\n      dup1\n      dup4\n      gt\n      tag_114\n      jumpi\n      dup3\n      swap1\n      sub\n      0x1f\n      and\n      dup3\n      add\n      swap2\n    tag_112:\n      pop\n      pop\n      pop\n      pop\n      pop\n      swap1\n      pop\n        /* \"w-ERC20.sol\":2503:2605  function symbol() public view virtual override returns (string memory) {... */\n      swap1\n      jump\t// out\n        /* \"w-ERC20.sol\":3700:3814  function burn(address from, uint256 amount) public virtual override  {... */\n    tag_58:\n        /* \"w-ERC20.sol\":3788:3807  _burn(from, amount) */\n      tag_116\n        /* \"w-ERC20.sol\":3794:3798  from */\n      dup3\n        /* \"w-ERC20.sol\":3800:3806  amount */\n      dup3\n        /* \"w-ERC20.sol\":3788:3793  _burn */\n      tag_117\n        /* \"w-ERC20.sol\":3788:3807  _burn(from, amount) */\n      jump\t// in\n    tag_116:\n        /* \"w-ERC20.sol\":3700:3814  function burn(address from, uint256 amount) public virtual override  {... */\n      pop\n      pop\n      jump\t// out\n        /* \"w-ERC20.sol\":6948:7353  function decreaseAllowance(address spender, uint256 subtractedValue) public virtual returns (bool) {... */\n    tag_61:\n        /* \"w-ERC20.sol\":7041:7045  bool */\n      0x00\n        /* \"w-ERC20.sol\":7057:7081  uint256 currentAllowance */\n      dup1\n        /* \"w-ERC20.sol\":7084:7095  _allowances */\n      0x01\n        /* \"w-ERC20.sol\":7084:7109  _allowances[_msgSender()] */\n      0x00\n        /* \"w-ERC20.sol\":7096:7108  _msgSender() */\n      tag_119\n        /* \"w-ERC20.sol\":7096:7106  _msgSender */\n      tag_82\n        /* \"w-ERC20.sol\":7096:7108  _msgSender() */\n      jump\t// in\n    tag_119:\n        /* \"w-ERC20.sol\":7084:7109  _allowances[_msgSender()] */\n      0xffffffffffffffffffffffffffffffffffffffff\n      and\n      0xffffffffffffffffffffffffffffffffffffffff\n      and\n      dup2\n      mstore\n      0x20\n      add\n      swap1\n      dup2\n      mstore\n      0x20\n      add\n      0x00\n      keccak256\n        /* \"w-ERC20.sol\":7084:7118  _allowances[_msgSender()][spender] */\n      0x00\n        /* \"w-ERC20.sol\":7110:7117  spender */\n      dup6\n        /* \"w-ERC20.sol\":7084:7118  _allowances[_msgSender()][spender] */\n      0xffffffffffffffffffffffffffffffffffffffff\n      and\n      0xffffffffffffffffffffffffffffffffffffffff\n      and\n      dup2\n      mstore\n      0x20\n      add\n      swap1\n      dup2\n      mstore\n      0x20\n      add\n      0x00\n      keccak256\n      sload\n        /* \"w-ERC20.sol\":7057:7118  uint256 currentAllowance = _allowances[_msgSender()][spender] */\n      swap1\n      pop\n        /* \"w-ERC20.sol\":7156:7171  subtractedValue */\n      dup3\n        /* \"w-ERC20.sol\":7136:7152  currentAllowance */\n      dup2\n        /* \"w-ERC20.sol\":7136:7171  currentAllowance >= subtractedValue */\n      lt\n      iszero\n        /* \"w-ERC20.sol\":7128:7213  require(currentAllowance >= subtractedValue, \"ERC20: decreased allowance below zero\") */\n      tag_120\n      jumpi\n      mload(0x40)\n      0x08c379a000000000000000000000000000000000000000000000000000000000\n      dup2\n      mstore\n      0x04\n      add\n      tag_121\n      swap1\n      tag_122\n      jump\t// in\n    tag_121:\n      mload(0x40)\n      dup1\n      swap2\n      sub\n      swap1\n      revert\n    tag_120:\n        /* \"w-ERC20.sol\":7247:7314  _approve(_msgSender(), spender, currentAllowance - subtractedValue) */\n      tag_123\n        /* \"w-ERC20.sol\":7256:7268  _msgSender() */\n      tag_124\n        /* \"w-ERC20.sol\":7256:7266  _msgSender */\n      tag_82\n        /* \"w-ERC20.sol\":7256:7268  _msgSender() */\n      jump\t// in\n    tag_124:\n        /* \"w-ERC20.sol\":7270:7277  spender */\n      dup6\n        /* \"w-ERC20.sol\":7298:7313  subtractedValue */\n      dup6\n        /* \"w-ERC20.sol\":7279:7295  currentAllowance */\n      dup5\n        /* \"w-ERC20.sol\":7279:7313  currentAllowance - subtractedValue */\n      sub\n        /* \"w-ERC20.sol\":7247:7255  _approve */\n      tag_83\n        /* \"w-ERC20.sol\":7247:7314  _approve(_msgSender(), spender, currentAllowance - subtractedValue) */\n      jump\t// in\n    tag_123:\n        /* \"w-ERC20.sol\":7342:7346  true */\n      0x01\n        /* \"w-ERC20.sol\":7335:7346  return true */\n      swap2\n      pop\n      pop\n        /* \"w-ERC20.sol\":6948:7353  function decreaseAllowance(address spender, uint256 subtractedValue) public virtual returns (bool) {... */\n      swap3\n      swap2\n      pop\n      pop\n      jump\t// out\n        /* \"w-ERC20.sol\":4200:4385  function transfer(address recipient, uint256 amount) public virtual override onlyApproved returns (bool) {... */\n    tag_65:\n        /* \"w-ERC20.sol\":4299:4303  bool */\n      0x00\n        /* \"w-ERC20.sol\":2168:2186  approvedTransferor */\n      0x05\n      0x00\n      swap1\n      sload\n      swap1\n      0x0100\n      exp\n      swap1\n      div\n      0xffffffffffffffffffffffffffffffffffffffff\n      and\n        /* \"w-ERC20.sol\":2154:2186  msg.sender == approvedTransferor */\n      0xffffffffffffffffffffffffffffffffffffffff\n      and\n        /* \"w-ERC20.sol\":2154:2164  msg.sender */\n      caller\n        /* \"w-ERC20.sol\":2154:2186  msg.sender == approvedTransferor */\n      0xffffffffffffffffffffffffffffffffffffffff\n      and\n      eq\n        /* \"w-ERC20.sol\":2146:2212  require(msg.sender == approvedTransferor, \"Not Approved to do so\") */\n      tag_126\n      jumpi\n      mload(0x40)\n      0x08c379a000000000000000000000000000000000000000000000000000000000\n      dup2\n      mstore\n      0x04\n      add\n      tag_127\n      swap1\n      tag_88\n      jump\t// in\n    tag_127:\n      mload(0x40)\n      dup1\n      swap2\n      sub\n      swap1\n      revert\n    tag_126:\n        /* \"w-ERC20.sol\":4315:4357  _transfer(_msgSender(), recipient, amount) */\n      tag_129\n        /* \"w-ERC20.sol\":4325:4337  _msgSender() */\n      tag_130\n        /* \"w-ERC20.sol\":4325:4335  _msgSender */\n      tag_82\n        /* \"w-ERC20.sol\":4325:4337  _msgSender() */\n      jump\t// in\n    tag_130:\n        /* \"w-ERC20.sol\":4339:4348  recipient */\n      dup5\n        /* \"w-ERC20.sol\":4350:4356  amount */\n      dup5\n        /* \"w-ERC20.sol\":4315:4324  _transfer */\n      tag_91\n        /* \"w-ERC20.sol\":4315:4357  _transfer(_msgSender(), recipient, amount) */\n      jump\t// in\n    tag_129:\n        /* \"w-ERC20.sol\":4374:4378  true */\n      0x01\n        /* \"w-ERC20.sol\":4367:4378  return true */\n      swap1\n      pop\n        /* \"w-ERC20.sol\":4200:4385  function transfer(address recipient, uint256 amount) public virtual override onlyApproved returns (bool) {... */\n      swap3\n      swap2\n      pop\n      pop\n      jump\t// out\n        /* \"w-ERC20.sol\":4443:4592  function allowance(address owner, address spender) public view virtual override returns (uint256) {... */\n    tag_70:\n        /* \"w-ERC20.sol\":4532:4539  uint256 */\n      0x00\n        /* \"w-ERC20.sol\":4558:4569  _allowances */\n      0x01\n        /* \"w-ERC20.sol\":4558:4576  _allowances[owner] */\n      0x00\n        /* \"w-ERC20.sol\":4570:4575  owner */\n      dup5\n        /* \"w-ERC20.sol\":4558:4576  _allowances[owner] */\n      0xffffffffffffffffffffffffffffffffffffffff\n      and\n      0xffffffffffffffffffffffffffffffffffffffff\n      and\n      dup2\n      mstore\n      0x20\n      add\n      swap1\n      dup2\n      mstore\n      0x20\n      add\n      0x00\n      keccak256\n        /* \"w-ERC20.sol\":4558:4585  _allowances[owner][spender] */\n      0x00\n        /* \"w-ERC20.sol\":4577:4584  spender */\n      dup4\n        /* \"w-ERC20.sol\":4558:4585  _allowances[owner][spender] */\n      0xffffffffffffffffffffffffffffffffffffffff\n      and\n      0xffffffffffffffffffffffffffffffffffffffff\n      and\n      dup2\n      mstore\n      0x20\n      add\n      swap1\n      dup2\n      mstore\n      0x20\n      add\n      0x00\n      keccak256\n      sload\n        /* \"w-ERC20.sol\":4551:4585  return _allowances[owner][spender] */\n      swap1\n      pop\n        /* \"w-ERC20.sol\":4443:4592  function allowance(address owner, address spender) public view virtual override returns (uint256) {... */\n      swap3\n      swap2\n      pop\n      pop\n      jump\t// out\n        /* \"Context.sol\":640:736  function _msgSender() internal view virtual returns (address) {... */\n    tag_82:\n        /* \"Context.sol\":693:700  address */\n      0x00\n        /* \"Context.sol\":719:729  msg.sender */\n      caller\n        /* \"Context.sol\":712:729  return msg.sender */\n      swap1\n      pop\n        /* \"Context.sol\":640:736  function _msgSender() internal view virtual returns (address) {... */\n      swap1\n      jump\t// out\n        /* \"w-ERC20.sol\":10524:10894  function _approve(... */\n    tag_83:\n        /* \"w-ERC20.sol\":10672:10673  0 */\n      0x00\n        /* \"w-ERC20.sol\":10655:10674  owner != address(0) */\n      0xffffffffffffffffffffffffffffffffffffffff\n      and\n        /* \"w-ERC20.sol\":10655:10660  owner */\n      dup4\n        /* \"w-ERC20.sol\":10655:10674  owner != address(0) */\n      0xffffffffffffffffffffffffffffffffffffffff\n      and\n      eq\n      iszero\n        /* \"w-ERC20.sol\":10647:10715  require(owner != address(0), \"ERC20: approve from the zero address\") */\n      tag_134\n      jumpi\n      mload(0x40)\n      0x08c379a000000000000000000000000000000000000000000000000000000000\n      dup2\n      mstore\n      0x04\n      add\n      tag_135\n      swap1\n      tag_136\n      jump\t// in\n    tag_135:\n      mload(0x40)\n      dup1\n      swap2\n      sub\n      swap1\n      revert\n    tag_134:\n        /* \"w-ERC20.sol\":10752:10753  0 */\n      0x00\n        /* \"w-ERC20.sol\":10733:10754  spender != address(0) */\n      0xffffffffffffffffffffffffffffffffffffffff\n      and\n        /* \"w-ERC20.sol\":10733:10740  spender */\n      dup3\n        /* \"w-ERC20.sol\":10733:10754  spender != address(0) */\n      0xffffffffffffffffffffffffffffffffffffffff\n      and\n      eq\n      iszero\n        /* \"w-ERC20.sol\":10725:10793  require(spender != address(0), \"ERC20: approve to the zero address\") */\n      tag_137\n      jumpi\n      mload(0x40)\n      0x08c379a000000000000000000000000000000000000000000000000000000000\n      dup2\n      mstore\n      0x04\n      add\n      tag_138\n      swap1\n      tag_139\n      jump\t// in\n    tag_138:\n      mload(0x40)\n      dup1\n      swap2\n      sub\n      swap1\n      revert\n    tag_137:\n        /* \"w-ERC20.sol\":10834:10840  amount */\n      dup1\n        /* \"w-ERC20.sol\":10804:10815  _allowances */\n      0x01\n        /* \"w-ERC20.sol\":10804:10822  _allowances[owner] */\n      0x00\n        /* \"w-ERC20.sol\":10816:10821  owner */\n      dup6\n        /* \"w-ERC20.sol\":10804:10822  _allowances[owner] */\n      0xffffffffffffffffffffffffffffffffffffffff\n      and\n      0xffffffffffffffffffffffffffffffffffffffff\n      and\n      dup2\n      mstore\n      0x20\n      add\n      swap1\n      dup2\n      mstore\n      0x20\n      add\n      0x00\n      keccak256\n        /* \"w-ERC20.sol\":10804:10831  _allowances[owner][spender] */\n      0x00\n        /* \"w-ERC20.sol\":10823:10830  spender */\n      dup5\n        /* \"w-ERC20.sol\":10804:10831  _allowances[owner][spender] */\n      0xffffffffffffffffffffffffffffffffffffffff\n      and\n      0xffffffffffffffffffffffffffffffffffffffff\n      and\n      dup2\n      mstore\n      0x20\n      add\n      swap1\n      dup2\n      mstore\n      0x20\n      add\n      0x00\n      keccak256\n        /* \"w-ERC20.sol\":10804:10840  _allowances[owner][spender] = amount */\n      dup2\n      swap1\n      sstore\n      pop\n        /* \"w-ERC20.sol\":10871:10878  spender */\n      dup2\n        /* \"w-ERC20.sol\":10855:10887  Approval(owner, spender, amount) */\n      0xffffffffffffffffffffffffffffffffffffffff\n      and\n        /* \"w-ERC20.sol\":10864:10869  owner */\n      dup4\n        /* \"w-ERC20.sol\":10855:10887  Approval(owner, spender, amount) */\n      0xffffffffffffffffffffffffffffffffffffffff\n      and\n      0x8c5be1e5ebec7d5bd14f71427d1e84f3dd0314c0f7b2291e5b200ac8c7c3b925\n        /* \"w-ERC20.sol\":10880:10886  amount */\n      dup4\n        /* \"w-ERC20.sol\":10855:10887  Approval(owner, spender, amount) */\n      mload(0x40)\n      tag_140\n      swap2\n      swap1\n      tag_31\n      jump\t// in\n    tag_140:\n      mload(0x40)\n      dup1\n      swap2\n      sub\n      swap1\n      log3\n        /* \"w-ERC20.sol\":10524:10894  function _approve(... */\n      pop\n      pop\n      pop\n      jump\t// out\n        /* \"w-ERC20.sol\":7827:8540  function _transfer(... */\n    tag_91:\n        /* \"w-ERC20.sol\":7980:7981  0 */\n      0x00\n        /* \"w-ERC20.sol\":7962:7982  sender != address(0) */\n      0xffffffffffffffffffffffffffffffffffffffff\n      and\n        /* \"w-ERC20.sol\":7962:7968  sender */\n      dup4\n        /* \"w-ERC20.sol\":7962:7982  sender != address(0) */\n      0xffffffffffffffffffffffffffffffffffffffff\n      and\n      eq\n      iszero\n        /* \"w-ERC20.sol\":7954:8024  require(sender != address(0), \"ERC20: transfer from the zero address\") */\n      tag_142\n      jumpi\n      mload(0x40)\n      0x08c379a000000000000000000000000000000000000000000000000000000000\n      dup2\n      mstore\n      0x04\n      add\n      tag_143\n      swap1\n      tag_144\n      jump\t// in\n    tag_143:\n      mload(0x40)\n      dup1\n      swap2\n      sub\n      swap1\n      revert\n    tag_142:\n        /* \"w-ERC20.sol\":8063:8064  0 */\n      0x00\n        /* \"w-ERC20.sol\":8042:8065  recipient != address(0) */\n      0xffffffffffffffffffffffffffffffffffffffff\n      and\n        /* \"w-ERC20.sol\":8042:8051  recipient */\n      dup3\n        /* \"w-ERC20.sol\":8042:8065  recipient != address(0) */\n      0xffffffffffffffffffffffffffffffffffffffff\n      and\n      eq\n      iszero\n        /* \"w-ERC20.sol\":8034:8105  require(recipient != address(0), \"ERC20: transfer to the zero address\") */\n      tag_145\n      jumpi\n      mload(0x40)\n      0x08c379a000000000000000000000000000000000000000000000000000000000\n      dup2\n      mstore\n      0x04\n      add\n      tag_146\n      swap1\n      tag_147\n      jump\t// in\n    tag_146:\n      mload(0x40)\n      dup1\n      swap2\n      sub\n      swap1\n      revert\n    tag_145:\n        /* \"w-ERC20.sol\":8116:8163  _beforeTokenTransfer(sender, recipient, amount) */\n      tag_148\n        /* \"w-ERC20.sol\":8137:8143  sender */\n      dup4\n        /* \"w-ERC20.sol\":8145:8154  recipient */\n      dup4\n        /* \"w-ERC20.sol\":8156:8162  amount */\n      dup4\n        /* \"w-ERC20.sol\":8116:8136  _beforeTokenTransfer */\n      tag_149\n        /* \"w-ERC20.sol\":8116:8163  _beforeTokenTransfer(sender, recipient, amount) */\n      jump\t// in\n    tag_148:\n        /* \"w-ERC20.sol\":8174:8195  uint256 senderBalance */\n      0x00\n        /* \"w-ERC20.sol\":8198:8207  _balances */\n      dup1\n        /* \"w-ERC20.sol\":8198:8215  _balances[sender] */\n      0x00\n        /* \"w-ERC20.sol\":8208:8214  sender */\n      dup6\n        /* \"w-ERC20.sol\":8198:8215  _balances[sender] */\n      0xffffffffffffffffffffffffffffffffffffffff\n      and\n      0xffffffffffffffffffffffffffffffffffffffff\n      and\n      dup2\n      mstore\n      0x20\n      add\n      swap1\n      dup2\n      mstore\n      0x20\n      add\n      0x00\n      keccak256\n      sload\n        /* \"w-ERC20.sol\":8174:8215  uint256 senderBalance = _balances[sender] */\n      swap1\n      pop\n        /* \"w-ERC20.sol\":8250:8256  amount */\n      dup2\n        /* \"w-ERC20.sol\":8233:8246  senderBalance */\n      dup2\n        /* \"w-ERC20.sol\":8233:8256  senderBalance >= amount */\n      lt\n      iszero\n        /* \"w-ERC20.sol\":8225:8299  require(senderBalance >= amount, \"ERC20: transfer amount exceeds balance\") */\n      tag_150\n      jumpi\n      mload(0x40)\n      0x08c379a000000000000000000000000000000000000000000000000000000000\n      dup2\n      mstore\n      0x04\n      add\n      tag_151\n      swap1\n      tag_152\n      jump\t// in\n    tag_151:\n      mload(0x40)\n      dup1\n      swap2\n      sub\n      swap1\n      revert\n    tag_150:\n        /* \"w-ERC20.sol\":8369:8375  amount */\n      dup2\n        /* \"w-ERC20.sol\":8353:8366  senderBalance */\n      dup2\n        /* \"w-ERC20.sol\":8353:8375  senderBalance - amount */\n      sub\n        /* \"w-ERC20.sol\":8333:8342  _balances */\n      0x00\n        /* \"w-ERC20.sol\":8333:8350  _balances[sender] */\n      dup1\n        /* \"w-ERC20.sol\":8343:8349  sender */\n      dup7\n        /* \"w-ERC20.sol\":8333:8350  _balances[sender] */\n      0xffffffffffffffffffffffffffffffffffffffff\n      and\n      0xffffffffffffffffffffffffffffffffffffffff\n      and\n      dup2\n      mstore\n      0x20\n      add\n      swap1\n      dup2\n      mstore\n      0x20\n      add\n      0x00\n      keccak256\n        /* \"w-ERC20.sol\":8333:8375  _balances[sender] = senderBalance - amount */\n      dup2\n      swap1\n      sstore\n      pop\n        /* \"w-ERC20.sol\":8419:8425  amount */\n      dup2\n        /* \"w-ERC20.sol\":8395:8404  _balances */\n      0x00\n        /* \"w-ERC20.sol\":8395:8415  _balances[recipient] */\n      dup1\n        /* \"w-ERC20.sol\":8405:8414  recipient */\n      dup6\n        /* \"w-ERC20.sol\":8395:8415  _balances[recipient] */\n      0xffffffffffffffffffffffffffffffffffffffff\n      and\n      0xffffffffffffffffffffffffffffffffffffffff\n      and\n      dup2\n      mstore\n      0x20\n      add\n      swap1\n      dup2\n      mstore\n      0x20\n      add\n      0x00\n      keccak256\n      0x00\n        /* \"w-ERC20.sol\":8395:8425  _balances[recipient] += amount */\n      dup3\n      dup3\n      sload\n      tag_153\n      swap2\n      swap1\n      tag_104\n      jump\t// in\n    tag_153:\n      swap3\n      pop\n      pop\n      dup2\n      swap1\n      sstore\n      pop\n        /* \"w-ERC20.sol\":8458:8467  recipient */\n      dup3\n        /* \"w-ERC20.sol\":8441:8476  Transfer(sender, recipient, amount) */\n      0xffffffffffffffffffffffffffffffffffffffff\n      and\n        /* \"w-ERC20.sol\":8450:8456  sender */\n      dup5\n        /* \"w-ERC20.sol\":8441:8476  Transfer(sender, recipient, amount) */\n      0xffffffffffffffffffffffffffffffffffffffff\n      and\n      0xddf252ad1be2c89b69c2b068fc378daa952ba7f163c4a11628f55a4df523b3ef\n        /* \"w-ERC20.sol\":8469:8475  amount */\n      dup5\n        /* \"w-ERC20.sol\":8441:8476  Transfer(sender, recipient, amount) */\n      mload(0x40)\n      tag_154\n      swap2\n      swap1\n      tag_31\n      jump\t// in\n    tag_154:\n      mload(0x40)\n      dup1\n      swap2\n      sub\n      swap1\n      log3\n        /* \"w-ERC20.sol\":8487:8533  _afterTokenTransfer(sender, recipient, amount) */\n      tag_155\n        /* \"w-ERC20.sol\":8507:8513  sender */\n      dup5\n        /* \"w-ERC20.sol\":8515:8524  recipient */\n      dup5\n        /* \"w-ERC20.sol\":8526:8532  amount */\n      dup5\n        /* \"w-ERC20.sol\":8487:8506  _afterTokenTransfer */\n      tag_156\n        /* \"w-ERC20.sol\":8487:8533  _afterTokenTransfer(sender, recipient, amount) */\n      jump\t// in\n    tag_155:\n        /* \"w-ERC20.sol\":7944:8540  {... */\n      pop\n        /* \"w-ERC20.sol\":7827:8540  function _transfer(... */\n      pop\n      pop\n      pop\n      jump\t// out\n        /* \"w-ERC20.sol\":8816:9205  function _mint(address account, uint256 amount) internal virtual {... */\n    tag_107:\n        /* \"w-ERC20.sol\":8918:8919  0 */\n      0x00\n        /* \"w-ERC20.sol\":8899:8920  account != address(0) */\n      0xffffffffffffffffffffffffffffffffffffffff\n      and\n        /* \"w-ERC20.sol\":8899:8906  account */\n      dup3\n        /* \"w-ERC20.sol\":8899:8920  account != address(0) */\n      0xffffffffffffffffffffffffffffffffffffffff\n      and\n      eq\n      iszero\n        /* \"w-ERC20.sol\":8891:8956  require(account != address(0), \"ERC20: mint to the zero address\") */\n      tag_158\n      jumpi\n      mload(0x40)\n      0x08c379a000000000000000000000000000000000000000000000000000000000\n      dup2\n      mstore\n      0x04\n      add\n      tag_159\n      swap1\n      tag_160\n      jump\t// in\n    tag_159:\n      mload(0x40)\n      dup1\n      swap2\n      sub\n      swap1\n      revert\n    tag_158:\n        /* \"w-ERC20.sol\":8967:9016  _beforeTokenTransfer(address(0), account, amount) */\n      tag_161\n        /* \"w-ERC20.sol\":8996:8997  0 */\n      0x00\n        /* \"w-ERC20.sol\":9000:9007  account */\n      dup4\n        /* \"w-ERC20.sol\":9009:9015  amount */\n      dup4\n        /* \"w-ERC20.sol\":8967:8987  _beforeTokenTransfer */\n      tag_149\n        /* \"w-ERC20.sol\":8967:9016  _beforeTokenTransfer(address(0), account, amount) */\n      jump\t// in\n    tag_161:\n        /* \"w-ERC20.sol\":9043:9049  amount */\n      dup1\n        /* \"w-ERC20.sol\":9027:9039  _totalSupply */\n      0x02\n      0x00\n        /* \"w-ERC20.sol\":9027:9049  _totalSupply += amount */\n      dup3\n      dup3\n      sload\n      tag_162\n      swap2\n      swap1\n      tag_104\n      jump\t// in\n    tag_162:\n      swap3\n      pop\n      pop\n      dup2\n      swap1\n      sstore\n      pop\n        /* \"w-ERC20.sol\":9081:9087  amount */\n      dup1\n        /* \"w-ERC20.sol\":9059:9068  _balances */\n      0x00\n        /* \"w-ERC20.sol\":9059:9077  _balances[account] */\n      dup1\n        /* \"w-ERC20.sol\":9069:9076  account */\n      dup5\n        /* \"w-ERC20.sol\":9059:9077  _balances[account] */\n      0xffffffffffffffffffffffffffffffffffffffff\n      and\n      0xffffffffffffffffffffffffffffffffffffffff\n      and\n      dup2\n      mstore\n      0x20\n      add\n      swap1\n      dup2\n      mstore\n      0x20\n      add\n      0x00\n      keccak256\n      0x00\n        /* \"w-ERC20.sol\":9059:9087  _balances[account] += amount */\n      dup3\n      dup3\n      sload\n      tag_163\n      swap2\n      swap1\n      tag_104\n      jump\t// in\n    tag_163:\n      swap3\n      pop\n      pop\n      dup2\n      swap1\n      sstore\n      pop\n        /* \"w-ERC20.sol\":9123:9130  account */\n      dup2\n        /* \"w-ERC20.sol\":9102:9139  Transfer(address(0), account, amount) */\n      0xffffffffffffffffffffffffffffffffffffffff\n      and\n        /* \"w-ERC20.sol\":9119:9120  0 */\n      0x00\n        /* \"w-ERC20.sol\":9102:9139  Transfer(address(0), account, amount) */\n      0xffffffffffffffffffffffffffffffffffffffff\n      and\n      0xddf252ad1be2c89b69c2b068fc378daa952ba7f163c4a11628f55a4df523b3ef\n        /* \"w-ERC20.sol\":9132:9138  amount */\n      dup4\n        /* \"w-ERC20.sol\":9102:9139  Transfer(address(0), account, amount) */\n      mload(0x40)\n      tag_164\n      swap2\n      swap1\n      tag_31\n      jump\t// in\n    tag_164:\n      mload(0x40)\n      dup1\n      swap2\n      sub\n      swap1\n      log3\n        /* \"w-ERC20.sol\":9150:9198  _afterTokenTransfer(address(0), account, amount) */\n      tag_165\n        /* \"w-ERC20.sol\":9178:9179  0 */\n      0x00\n        /* \"w-ERC20.sol\":9182:9189  account */\n      dup4\n        /* \"w-ERC20.sol\":9191:9197  amount */\n      dup4\n        /* \"w-ERC20.sol\":9150:9169  _afterTokenTransfer */\n      tag_156\n        /* \"w-ERC20.sol\":9150:9198  _afterTokenTransfer(address(0), account, amount) */\n      jump\t// in\n    tag_165:\n        /* \"w-ERC20.sol\":8816:9205  function _mint(address account, uint256 amount) internal virtual {... */\n      pop\n      pop\n      jump\t// out\n        /* \"w-ERC20.sol\":9525:10101  function _burn(address account, uint256 amount) internal virtual {... */\n    tag_117:\n        /* \"w-ERC20.sol\":9627:9628  0 */\n      0x00\n        /* \"w-ERC20.sol\":9608:9629  account != address(0) */\n      0xffffffffffffffffffffffffffffffffffffffff\n      and\n        /* \"w-ERC20.sol\":9608:9615  account */\n      dup3\n        /* \"w-ERC20.sol\":9608:9629  account != address(0) */\n      0xffffffffffffffffffffffffffffffffffffffff\n      and\n      eq\n      iszero\n        /* \"w-ERC20.sol\":9600:9667  require(account != address(0), \"ERC20: burn from the zero address\") */\n      tag_167\n      jumpi\n      mload(0x40)\n      0x08c379a000000000000000000000000000000000000000000000000000000000\n      dup2\n      mstore\n      0x04\n      add\n      tag_168\n      swap1\n      tag_169\n      jump\t// in\n    tag_168:\n      mload(0x40)\n      dup1\n      swap2\n      sub\n      swap1\n      revert\n    tag_167:\n        /* \"w-ERC20.sol\":9678:9727  _beforeTokenTransfer(account, address(0), amount) */\n      tag_170\n        /* \"w-ERC20.sol\":9699:9706  account */\n      dup3\n        /* \"w-ERC20.sol\":9716:9717  0 */\n      0x00\n        /* \"w-ERC20.sol\":9720:9726  amount */\n      dup4\n        /* \"w-ERC20.sol\":9678:9698  _beforeTokenTransfer */\n      tag_149\n        /* \"w-ERC20.sol\":9678:9727  _beforeTokenTransfer(account, address(0), amount) */\n      jump\t// in\n    tag_170:\n        /* \"w-ERC20.sol\":9738:9760  uint256 accountBalance */\n      0x00\n        /* \"w-ERC20.sol\":9763:9772  _balances */\n      dup1\n        /* \"w-ERC20.sol\":9763:9781  _balances[account] */\n      0x00\n        /* \"w-ERC20.sol\":9773:9780  account */\n      dup5\n        /* \"w-ERC20.sol\":9763:9781  _balances[account] */\n      0xffffffffffffffffffffffffffffffffffffffff\n      and\n      0xffffffffffffffffffffffffffffffffffffffff\n      and\n      dup2\n      mstore\n      0x20\n      add\n      swap1\n      dup2\n      mstore\n      0x20\n      add\n      0x00\n      keccak256\n      sload\n        /* \"w-ERC20.sol\":9738:9781  uint256 accountBalance = _balances[account] */\n      swap1\n      pop\n        /* \"w-ERC20.sol\":9817:9823  amount */\n      dup2\n        /* \"w-ERC20.sol\":9799:9813  accountBalance */\n      dup2\n        /* \"w-ERC20.sol\":9799:9823  accountBalance >= amount */\n      lt\n      iszero\n        /* \"w-ERC20.sol\":9791:9862  require(accountBalance >= amount, \"ERC20: burn amount exceeds balance\") */\n      tag_171\n      jumpi\n      mload(0x40)\n      0x08c379a000000000000000000000000000000000000000000000000000000000\n      dup2\n      mstore\n      0x04\n      add\n      tag_172\n      swap1\n      tag_173\n      jump\t// in\n    tag_172:\n      mload(0x40)\n      dup1\n      swap2\n      sub\n      swap1\n      revert\n    tag_171:\n        /* \"w-ERC20.sol\":9934:9940  amount */\n      dup2\n        /* \"w-ERC20.sol\":9917:9931  accountBalance */\n      dup2\n        /* \"w-ERC20.sol\":9917:9940  accountBalance - amount */\n      sub\n        /* \"w-ERC20.sol\":9896:9905  _balances */\n      0x00\n        /* \"w-ERC20.sol\":9896:9914  _balances[account] */\n      dup1\n        /* \"w-ERC20.sol\":9906:9913  account */\n      dup6\n        /* \"w-ERC20.sol\":9896:9914  _balances[account] */\n      0xffffffffffffffffffffffffffffffffffffffff\n      and\n      0xffffffffffffffffffffffffffffffffffffffff\n      and\n      dup2\n      mstore\n      0x20\n      add\n      swap1\n      dup2\n      mstore\n      0x20\n      add\n      0x00\n      keccak256\n        /* \"w-ERC20.sol\":9896:9940  _balances[account] = accountBalance - amount */\n      dup2\n      swap1\n      sstore\n      pop\n        /* \"w-ERC20.sol\":9976:9982  amount */\n      dup2\n        /* \"w-ERC20.sol\":9960:9972  _totalSupply */\n      0x02\n      0x00\n        /* \"w-ERC20.sol\":9960:9982  _totalSupply -= amount */\n      dup3\n      dup3\n      sload\n      tag_174\n      swap2\n      swap1\n      tag_175\n      jump\t// in\n    tag_174:\n      swap3\n      pop\n      pop\n      dup2\n      swap1\n      sstore\n      pop\n        /* \"w-ERC20.sol\":10024:10025  0 */\n      0x00\n        /* \"w-ERC20.sol\":9998:10035  Transfer(account, address(0), amount) */\n      0xffffffffffffffffffffffffffffffffffffffff\n      and\n        /* \"w-ERC20.sol\":10007:10014  account */\n      dup4\n        /* \"w-ERC20.sol\":9998:10035  Transfer(account, address(0), amount) */\n      0xffffffffffffffffffffffffffffffffffffffff\n      and\n      0xddf252ad1be2c89b69c2b068fc378daa952ba7f163c4a11628f55a4df523b3ef\n        /* \"w-ERC20.sol\":10028:10034  amount */\n      dup5\n        /* \"w-ERC20.sol\":9998:10035  Transfer(account, address(0), amount) */\n      mload(0x40)\n      tag_176\n      swap2\n      swap1\n      tag_31\n      jump\t// in\n    tag_176:\n      mload(0x40)\n      dup1\n      swap2\n      sub\n      swap1\n      log3\n        /* \"w-ERC20.sol\":10046:10094  _afterTokenTransfer(account, address(0), amount) */\n      tag_177\n        /* \"w-ERC20.sol\":10066:10073  account */\n      dup4\n        /* \"w-ERC20.sol\":10083:10084  0 */\n      0x00\n        /* \"w-ERC20.sol\":10087:10093  amount */\n      dup5\n        /* \"w-ERC20.sol\":10046:10065  _afterTokenTransfer */\n      tag_156\n        /* \"w-ERC20.sol\":10046:10094  _afterTokenTransfer(account, address(0), amount) */\n      jump\t// in\n    tag_177:\n        /* \"w-ERC20.sol\":9590:10101  {... */\n      pop\n        /* \"w-ERC20.sol\":9525:10101  function _burn(address account, uint256 amount) internal virtual {... */\n      pop\n      pop\n      jump\t// out\n        /* \"w-ERC20.sol\":11478:11599  function _beforeTokenTransfer(... */\n    tag_149:\n      pop\n      pop\n      pop\n      jump\t// out\n        /* \"w-ERC20.sol\":12187:12307  function _afterTokenTransfer(... */\n    tag_156:\n      pop\n      pop\n      pop\n      jump\t// out\n        /* \"#utility.yul\":7:146   */\n    tag_181:\n        /* \"#utility.yul\":53:58   */\n      0x00\n        /* \"#utility.yul\":91:97   */\n      dup2\n        /* \"#utility.yul\":78:98   */\n      calldataload\n        /* \"#utility.yul\":69:98   */\n      swap1\n      pop\n        /* \"#utility.yul\":107:140   */\n      tag_183\n        /* \"#utility.yul\":134:139   */\n      dup2\n        /* \"#utility.yul\":107:140   */\n      tag_184\n      jump\t// in\n    tag_183:\n        /* \"#utility.yul\":7:146   */\n      swap3\n      swap2\n      pop\n      pop\n      jump\t// out\n        /* \"#utility.yul\":152:291   */\n    tag_185:\n        /* \"#utility.yul\":198:203   */\n      0x00\n        /* \"#utility.yul\":236:242   */\n      dup2\n        /* \"#utility.yul\":223:243   */\n      calldataload\n        /* \"#utility.yul\":214:243   */\n      swap1\n      pop\n        /* \"#utility.yul\":252:285   */\n      tag_187\n        /* \"#utility.yul\":279:284   */\n      dup2\n        /* \"#utility.yul\":252:285   */\n      tag_188\n      jump\t// in\n    tag_187:\n        /* \"#utility.yul\":152:291   */\n      swap3\n      swap2\n      pop\n      pop\n      jump\t// out\n        /* \"#utility.yul\":297:626   */\n    tag_50:\n        /* \"#utility.yul\":356:362   */\n      0x00\n        /* \"#utility.yul\":405:407   */\n      0x20\n        /* \"#utility.yul\":393:402   */\n      dup3\n        /* \"#utility.yul\":384:391   */\n      dup5\n        /* \"#utility.yul\":380:403   */\n      sub\n        /* \"#utility.yul\":376:408   */\n      slt\n        /* \"#utility.yul\":373:492   */\n      iszero\n      tag_190\n      jumpi\n        /* \"#utility.yul\":411:490   */\n      tag_191\n      tag_192\n      jump\t// in\n    tag_191:\n        /* \"#utility.yul\":373:492   */\n    tag_190:\n        /* \"#utility.yul\":531:532   */\n      0x00\n        /* \"#utility.yul\":556:609   */\n      tag_193\n        /* \"#utility.yul\":601:608   */\n      dup5\n        /* \"#utility.yul\":592:598   */\n      dup3\n        /* \"#utility.yul\":581:590   */\n      dup6\n        /* \"#utility.yul\":577:599   */\n      add\n        /* \"#utility.yul\":556:609   */\n      tag_181\n      jump\t// in\n    tag_193:\n        /* \"#utility.yul\":546:609   */\n      swap2\n      pop\n        /* \"#utility.yul\":502:619   */\n      pop\n        /* \"#utility.yul\":297:626   */\n      swap3\n      swap2\n      pop\n      pop\n      jump\t// out\n        /* \"#utility.yul\":632:1106   */\n    tag_69:\n        /* \"#utility.yul\":700:706   */\n      0x00\n        /* \"#utility.yul\":708:714   */\n      dup1\n        /* \"#utility.yul\":757:759   */\n      0x40\n        /* \"#utility.yul\":745:754   */\n      dup4\n        /* \"#utility.yul\":736:743   */\n      dup6\n        /* \"#utility.yul\":732:755   */\n      sub\n        /* \"#utility.yul\":728:760   */\n      slt\n        /* \"#utility.yul\":725:844   */\n      iszero\n      tag_195\n      jumpi\n        /* \"#utility.yul\":763:842   */\n      tag_196\n      tag_192\n      jump\t// in\n    tag_196:\n        /* \"#utility.yul\":725:844   */\n    tag_195:\n        /* \"#utility.yul\":883:884   */\n      0x00\n        /* \"#utility.yul\":908:961   */\n      tag_197\n        /* \"#utility.yul\":953:960   */\n      dup6\n        /* \"#utility.yul\":944:950   */\n      dup3\n        /* \"#utility.yul\":933:942   */\n      dup7\n        /* \"#utility.yul\":929:951   */\n      add\n        /* \"#utility.yul\":908:961   */\n      tag_181\n      jump\t// in\n    tag_197:\n        /* \"#utility.yul\":898:961   */\n      swap3\n      pop\n        /* \"#utility.yul\":854:971   */\n      pop\n        /* \"#utility.yul\":1010:1012   */\n      0x20\n        /* \"#utility.yul\":1036:1089   */\n      tag_198\n        /* \"#utility.yul\":1081:1088   */\n      dup6\n        /* \"#utility.yul\":1072:1078   */\n      dup3\n        /* \"#utility.yul\":1061:1070   */\n      dup7\n        /* \"#utility.yul\":1057:1079   */\n      add\n        /* \"#utility.yul\":1036:1089   */\n      tag_181\n      jump\t// in\n    tag_198:\n        /* \"#utility.yul\":1026:1089   */\n      swap2\n      pop\n        /* \"#utility.yul\":981:1099   */\n      pop\n        /* \"#utility.yul\":632:1106   */\n      swap3\n      pop\n      swap3\n      swap1\n      pop\n      jump\t// out\n        /* \"#utility.yul\":1112:1731   */\n    tag_34:\n        /* \"#utility.yul\":1189:1195   */\n      0x00\n        /* \"#utility.yul\":1197:1203   */\n      dup1\n        /* \"#utility.yul\":1205:1211   */\n      0x00\n        /* \"#utility.yul\":1254:1256   */\n      0x60\n        /* \"#utility.yul\":1242:1251   */\n      dup5\n        /* \"#utility.yul\":1233:1240   */\n      dup7\n        /* \"#utility.yul\":1229:1252   */\n      sub\n        /* \"#utility.yul\":1225:1257   */\n      slt\n        /* \"#utility.yul\":1222:1341   */\n      iszero\n      tag_200\n      jumpi\n        /* \"#utility.yul\":1260:1339   */\n      tag_201\n      tag_192\n      jump\t// in\n    tag_201:\n        /* \"#utility.yul\":1222:1341   */\n    tag_200:\n        /* \"#utility.yul\":1380:1381   */\n      0x00\n        /* \"#utility.yul\":1405:1458   */\n      tag_202\n        /* \"#utility.yul\":1450:1457   */\n      dup7\n        /* \"#utility.yul\":1441:1447   */\n      dup3\n        /* \"#utility.yul\":1430:1439   */\n      dup8\n        /* \"#utility.yul\":1426:1448   */\n      add\n        /* \"#utility.yul\":1405:1458   */\n      tag_181\n      jump\t// in\n    tag_202:\n        /* \"#utility.yul\":1395:1458   */\n      swap4\n      pop\n        /* \"#utility.yul\":1351:1468   */\n      pop\n        /* \"#utility.yul\":1507:1509   */\n      0x20\n        /* \"#utility.yul\":1533:1586   */\n      tag_203\n        /* \"#utility.yul\":1578:1585   */\n      dup7\n        /* \"#utility.yul\":1569:1575   */\n      dup3\n        /* \"#utility.yul\":1558:1567   */\n      dup8\n        /* \"#utility.yul\":1554:1576   */\n      add\n        /* \"#utility.yul\":1533:1586   */\n      tag_181\n      jump\t// in\n    tag_203:\n        /* \"#utility.yul\":1523:1586   */\n      swap3\n      pop\n        /* \"#utility.yul\":1478:1596   */\n      pop\n        /* \"#utility.yul\":1635:1637   */\n      0x40\n        /* \"#utility.yul\":1661:1714   */\n      tag_204\n        /* \"#utility.yul\":1706:1713   */\n      dup7\n        /* \"#utility.yul\":1697:1703   */\n      dup3\n        /* \"#utility.yul\":1686:1695   */\n      dup8\n        /* \"#utility.yul\":1682:1704   */\n      add\n        /* \"#utility.yul\":1661:1714   */\n      tag_185\n      jump\t// in\n    tag_204:\n        /* \"#utility.yul\":1651:1714   */\n      swap2\n      pop\n        /* \"#utility.yul\":1606:1724   */\n      pop\n        /* \"#utility.yul\":1112:1731   */\n      swap3\n      pop\n      swap3\n      pop\n      swap3\n      jump\t// out\n        /* \"#utility.yul\":1737:2211   */\n    tag_24:\n        /* \"#utility.yul\":1805:1811   */\n      0x00\n        /* \"#utility.yul\":1813:1819   */\n      dup1\n        /* \"#utility.yul\":1862:1864   */\n      0x40\n        /* \"#utility.yul\":1850:1859   */\n      dup4\n        /* \"#utility.yul\":1841:1848   */\n      dup6\n        /* \"#utility.yul\":1837:1860   */\n      sub\n        /* \"#utility.yul\":1833:1865   */\n      slt\n        /* \"#utility.yul\":1830:1949   */\n      iszero\n      tag_206\n      jumpi\n        /* \"#utility.yul\":1868:1947   */\n      tag_207\n      tag_192\n      jump\t// in\n    tag_207:\n        /* \"#utility.yul\":1830:1949   */\n    tag_206:\n        /* \"#utility.yul\":1988:1989   */\n      0x00\n        /* \"#utility.yul\":2013:2066   */\n      tag_208\n        /* \"#utility.yul\":2058:2065   */\n      dup6\n        /* \"#utility.yul\":2049:2055   */\n      dup3\n        /* \"#utility.yul\":2038:2047   */\n      dup7\n        /* \"#utility.yul\":2034:2056   */\n      add\n        /* \"#utility.yul\":2013:2066   */\n      tag_181\n      jump\t// in\n    tag_208:\n        /* \"#utility.yul\":2003:2066   */\n      swap3\n      pop\n        /* \"#utility.yul\":1959:2076   */\n      pop\n        /* \"#utility.yul\":2115:2117   */\n      0x20\n        /* \"#utility.yul\":2141:2194   */\n      tag_209\n        /* \"#utility.yul\":2186:2193   */\n      dup6\n        /* \"#utility.yul\":2177:2183   */\n      dup3\n        /* \"#utility.yul\":2166:2175   */\n      dup7\n        /* \"#utility.yul\":2162:2184   */\n      add\n        /* \"#utility.yul\":2141:2194   */\n      tag_185\n      jump\t// in\n    tag_209:\n        /* \"#utility.yul\":2131:2194   */\n      swap2\n      pop\n        /* \"#utility.yul\":2086:2204   */\n      pop\n        /* \"#utility.yul\":1737:2211   */\n      swap3\n      pop\n      swap3\n      swap1\n      pop\n      jump\t// out\n        /* \"#utility.yul\":2217:2326   */\n    tag_210:\n        /* \"#utility.yul\":2298:2319   */\n      tag_212\n        /* \"#utility.yul\":2313:2318   */\n      dup2\n        /* \"#utility.yul\":2298:2319   */\n      tag_213\n      jump\t// in\n    tag_212:\n        /* \"#utility.yul\":2293:2296   */\n      dup3\n        /* \"#utility.yul\":2286:2320   */\n      mstore\n        /* \"#utility.yul\":2217:2326   */\n      pop\n      pop\n      jump\t// out\n        /* \"#utility.yul\":2332:2696   */\n    tag_214:\n        /* \"#utility.yul\":2420:2423   */\n      0x00\n        /* \"#utility.yul\":2448:2487   */\n      tag_216\n        /* \"#utility.yul\":2481:2486   */\n      dup3\n        /* \"#utility.yul\":2448:2487   */\n      tag_217\n      jump\t// in\n    tag_216:\n        /* \"#utility.yul\":2503:2574   */\n      tag_218\n        /* \"#utility.yul\":2567:2573   */\n      dup2\n        /* \"#utility.yul\":2562:2565   */\n      dup6\n        /* \"#utility.yul\":2503:2574   */\n      tag_219\n      jump\t// in\n    tag_218:\n        /* \"#utility.yul\":2496:2574   */\n      swap4\n      pop\n        /* \"#utility.yul\":2583:2635   */\n      tag_220\n        /* \"#utility.yul\":2628:2634   */\n      dup2\n        /* \"#utility.yul\":2623:2626   */\n      dup6\n        /* \"#utility.yul\":2616:2620   */\n      0x20\n        /* \"#utility.yul\":2609:2614   */\n      dup7\n        /* \"#utility.yul\":2605:2621   */\n      add\n        /* \"#utility.yul\":2583:2635   */\n      tag_221\n      jump\t// in\n    tag_220:\n        /* \"#utility.yul\":2660:2689   */\n      tag_222\n        /* \"#utility.yul\":2682:2688   */\n      dup2\n        /* \"#utility.yul\":2660:2689   */\n      tag_223\n      jump\t// in\n    tag_222:\n        /* \"#utility.yul\":2655:2658   */\n      dup5\n        /* \"#utility.yul\":2651:2690   */\n      add\n        /* \"#utility.yul\":2644:2690   */\n      swap2\n      pop\n        /* \"#utility.yul\":2424:2696   */\n      pop\n        /* \"#utility.yul\":2332:2696   */\n      swap3\n      swap2\n      pop\n      pop\n      jump\t// out\n        /* \"#utility.yul\":2702:3068   */\n    tag_224:\n        /* \"#utility.yul\":2844:2847   */\n      0x00\n        /* \"#utility.yul\":2865:2932   */\n      tag_226\n        /* \"#utility.yul\":2929:2931   */\n      0x23\n        /* \"#utility.yul\":2924:2927   */\n      dup4\n        /* \"#utility.yul\":2865:2932   */\n      tag_219\n      jump\t// in\n    tag_226:\n        /* \"#utility.yul\":2858:2932   */\n      swap2\n      pop\n        /* \"#utility.yul\":2941:3034   */\n      tag_227\n        /* \"#utility.yul\":3030:3033   */\n      dup3\n        /* \"#utility.yul\":2941:3034   */\n      tag_228\n      jump\t// in\n    tag_227:\n        /* \"#utility.yul\":3059:3061   */\n      0x40\n        /* \"#utility.yul\":3054:3057   */\n      dup3\n        /* \"#utility.yul\":3050:3062   */\n      add\n        /* \"#utility.yul\":3043:3062   */\n      swap1\n      pop\n        /* \"#utility.yul\":2702:3068   */\n      swap2\n      swap1\n      pop\n      jump\t// out\n        /* \"#utility.yul\":3074:3440   */\n    tag_229:\n        /* \"#utility.yul\":3216:3219   */\n      0x00\n        /* \"#utility.yul\":3237:3304   */\n      tag_231\n        /* \"#utility.yul\":3301:3303   */\n      0x22\n        /* \"#utility.yul\":3296:3299   */\n      dup4\n        /* \"#utility.yul\":3237:3304   */\n      tag_219\n      jump\t// in\n    tag_231:\n        /* \"#utility.yul\":3230:3304   */\n      swap2\n      pop\n        /* \"#utility.yul\":3313:3406   */\n      tag_232\n        /* \"#utility.yul\":3402:3405   */\n      dup3\n        /* \"#utility.yul\":3313:3406   */\n      tag_233\n      jump\t// in\n    tag_232:\n        /* \"#utility.yul\":3431:3433   */\n      0x40\n        /* \"#utility.yul\":3426:3429   */\n      dup3\n        /* \"#utility.yul\":3422:3434   */\n      add\n        /* \"#utility.yul\":3415:3434   */\n      swap1\n      pop\n        /* \"#utility.yul\":3074:3440   */\n      swap2\n      swap1\n      pop\n      jump\t// out\n        /* \"#utility.yul\":3446:3812   */\n    tag_234:\n        /* \"#utility.yul\":3588:3591   */\n      0x00\n        /* \"#utility.yul\":3609:3676   */\n      tag_236\n        /* \"#utility.yul\":3673:3675   */\n      0x22\n        /* \"#utility.yul\":3668:3671   */\n      dup4\n        /* \"#utility.yul\":3609:3676   */\n      tag_219\n      jump\t// in\n    tag_236:\n        /* \"#utility.yul\":3602:3676   */\n      swap2\n      pop\n        /* \"#utility.yul\":3685:3778   */\n      tag_237\n        /* \"#utility.yul\":3774:3777   */\n      dup3\n        /* \"#utility.yul\":3685:3778   */\n      tag_238\n      jump\t// in\n    tag_237:\n        /* \"#utility.yul\":3803:3805   */\n      0x40\n        /* \"#utility.yul\":3798:3801   */\n      dup3\n        /* \"#utility.yul\":3794:3806   */\n      add\n        /* \"#utility.yul\":3787:3806   */\n      swap1\n      pop\n        /* \"#utility.yul\":3446:3812   */\n      swap2\n      swap1\n      pop\n      jump\t// out\n        /* \"#utility.yul\":3818:4184   */\n    tag_239:\n        /* \"#utility.yul\":3960:3963   */\n      0x00\n        /* \"#utility.yul\":3981:4048   */\n      tag_241\n        /* \"#utility.yul\":4045:4047   */\n      0x15\n        /* \"#utility.yul\":4040:4043   */\n      dup4\n        /* \"#utility.yul\":3981:4048   */\n      tag_219\n      jump\t// in\n    tag_241:\n        /* \"#utility.yul\":3974:4048   */\n      swap2\n      pop\n        /* \"#utility.yul\":4057:4150   */\n      tag_242\n        /* \"#utility.yul\":4146:4149   */\n      dup3\n        /* \"#utility.yul\":4057:4150   */\n      tag_243\n      jump\t// in\n    tag_242:\n        /* \"#utility.yul\":4175:4177   */\n      0x20\n        /* \"#utility.yul\":4170:4173   */\n      dup3\n        /* \"#utility.yul\":4166:4178   */\n      add\n        /* \"#utility.yul\":4159:4178   */\n      swap1\n      pop\n        /* \"#utility.yul\":3818:4184   */\n      swap2\n      swap1\n      pop\n      jump\t// out\n        /* \"#utility.yul\":4190:4556   */\n    tag_244:\n        /* \"#utility.yul\":4332:4335   */\n      0x00\n        /* \"#utility.yul\":4353:4420   */\n      tag_246\n        /* \"#utility.yul\":4417:4419   */\n      0x26\n        /* \"#utility.yul\":4412:4415   */\n      dup4\n        /* \"#utility.yul\":4353:4420   */\n      tag_219\n      jump\t// in\n    tag_246:\n        /* \"#utility.yul\":4346:4420   */\n      swap2\n      pop\n        /* \"#utility.yul\":4429:4522   */\n      tag_247\n        /* \"#utility.yul\":4518:4521   */\n      dup3\n        /* \"#utility.yul\":4429:4522   */\n      tag_248\n      jump\t// in\n    tag_247:\n        /* \"#utility.yul\":4547:4549   */\n      0x40\n        /* \"#utility.yul\":4542:4545   */\n      dup3\n        /* \"#utility.yul\":4538:4550   */\n      add\n        /* \"#utility.yul\":4531:4550   */\n      swap1\n      pop\n        /* \"#utility.yul\":4190:4556   */\n      swap2\n      swap1\n      pop\n      jump\t// out\n        /* \"#utility.yul\":4562:4928   */\n    tag_249:\n        /* \"#utility.yul\":4704:4707   */\n      0x00\n        /* \"#utility.yul\":4725:4792   */\n      tag_251\n        /* \"#utility.yul\":4789:4791   */\n      0x28\n        /* \"#utility.yul\":4784:4787   */\n      dup4\n        /* \"#utility.yul\":4725:4792   */\n      tag_219\n      jump\t// in\n    tag_251:\n        /* \"#utility.yul\":4718:4792   */\n      swap2\n      pop\n        /* \"#utility.yul\":4801:4894   */\n      tag_252\n        /* \"#utility.yul\":4890:4893   */\n      dup3\n        /* \"#utility.yul\":4801:4894   */\n      tag_253\n      jump\t// in\n    tag_252:\n        /* \"#utility.yul\":4919:4921   */\n      0x40\n        /* \"#utility.yul\":4914:4917   */\n      dup3\n        /* \"#utility.yul\":4910:4922   */\n      add\n        /* \"#utility.yul\":4903:4922   */\n      swap1\n      pop\n        /* \"#utility.yul\":4562:4928   */\n      swap2\n      swap1\n      pop\n      jump\t// out\n        /* \"#utility.yul\":4934:5300   */\n    tag_254:\n        /* \"#utility.yul\":5076:5079   */\n      0x00\n        /* \"#utility.yul\":5097:5164   */\n      tag_256\n        /* \"#utility.yul\":5161:5163   */\n      0x21\n        /* \"#utility.yul\":5156:5159   */\n      dup4\n        /* \"#utility.yul\":5097:5164   */\n      tag_219\n      jump\t// in\n    tag_256:\n        /* \"#utility.yul\":5090:5164   */\n      swap2\n      pop\n        /* \"#utility.yul\":5173:5266   */\n      tag_257\n        /* \"#utility.yul\":5262:5265   */\n      dup3\n        /* \"#utility.yul\":5173:5266   */\n      tag_258\n      jump\t// in\n    tag_257:\n        /* \"#utility.yul\":5291:5293   */\n      0x40\n        /* \"#utility.yul\":5286:5289   */\n      dup3\n        /* \"#utility.yul\":5282:5294   */\n      add\n        /* \"#utility.yul\":5275:5294   */\n      swap1\n      pop\n        /* \"#utility.yul\":4934:5300   */\n      swap2\n      swap1\n      pop\n      jump\t// out\n        /* \"#utility.yul\":5306:5672   */\n    tag_259:\n        /* \"#utility.yul\":5448:5451   */\n      0x00\n        /* \"#utility.yul\":5469:5536   */\n      tag_261\n        /* \"#utility.yul\":5533:5535   */\n      0x25\n        /* \"#utility.yul\":5528:5531   */\n      dup4\n        /* \"#utility.yul\":5469:5536   */\n      tag_219\n      jump\t// in\n    tag_261:\n        /* \"#utility.yul\":5462:5536   */\n      swap2\n      pop\n        /* \"#utility.yul\":5545:5638   */\n      tag_262\n        /* \"#utility.yul\":5634:5637   */\n      dup3\n        /* \"#utility.yul\":5545:5638   */\n      tag_263\n      jump\t// in\n    tag_262:\n        /* \"#utility.yul\":5663:5665   */\n      0x40\n        /* \"#utility.yul\":5658:5661   */\n      dup3\n        /* \"#utility.yul\":5654:5666   */\n      add\n        /* \"#utility.yul\":5647:5666   */\n      swap1\n      pop\n        /* \"#utility.yul\":5306:5672   */\n      swap2\n      swap1\n      pop\n      jump\t// out\n        /* \"#utility.yul\":5678:6044   */\n    tag_264:\n        /* \"#utility.yul\":5820:5823   */\n      0x00\n        /* \"#utility.yul\":5841:5908   */\n      tag_266\n        /* \"#utility.yul\":5905:5907   */\n      0x24\n        /* \"#utility.yul\":5900:5903   */\n      dup4\n        /* \"#utility.yul\":5841:5908   */\n      tag_219\n      jump\t// in\n    tag_266:\n        /* \"#utility.yul\":5834:5908   */\n      swap2\n      pop\n        /* \"#utility.yul\":5917:6010   */\n      tag_267\n        /* \"#utility.yul\":6006:6009   */\n      dup3\n        /* \"#utility.yul\":5917:6010   */\n      tag_268\n      jump\t// in\n    tag_267:\n        /* \"#utility.yul\":6035:6037   */\n      0x40\n        /* \"#utility.yul\":6030:6033   */\n      dup3\n        /* \"#utility.yul\":6026:6038   */\n      add\n        /* \"#utility.yul\":6019:6038   */\n      swap1\n      pop\n        /* \"#utility.yul\":5678:6044   */\n      swap2\n      swap1\n      pop\n      jump\t// out\n        /* \"#utility.yul\":6050:6416   */\n    tag_269:\n        /* \"#utility.yul\":6192:6195   */\n      0x00\n        /* \"#utility.yul\":6213:6280   */\n      tag_271\n        /* \"#utility.yul\":6277:6279   */\n      0x25\n        /* \"#utility.yul\":6272:6275   */\n      dup4\n        /* \"#utility.yul\":6213:6280   */\n      tag_219\n      jump\t// in\n    tag_271:\n        /* \"#utility.yul\":6206:6280   */\n      swap2\n      pop\n        /* \"#utility.yul\":6289:6382   */\n      tag_272\n        /* \"#utility.yul\":6378:6381   */\n      dup3\n        /* \"#utility.yul\":6289:6382   */\n      tag_273\n      jump\t// in\n    tag_272:\n        /* \"#utility.yul\":6407:6409   */\n      0x40\n        /* \"#utility.yul\":6402:6405   */\n      dup3\n        /* \"#utility.yul\":6398:6410   */\n      add\n        /* \"#utility.yul\":6391:6410   */\n      swap1\n      pop\n        /* \"#utility.yul\":6050:6416   */\n      swap2\n      swap1\n      pop\n      jump\t// out\n        /* \"#utility.yul\":6422:6788   */\n    tag_274:\n        /* \"#utility.yul\":6564:6567   */\n      0x00\n        /* \"#utility.yul\":6585:6652   */\n      tag_276\n        /* \"#utility.yul\":6649:6651   */\n      0x1f\n        /* \"#utility.yul\":6644:6647   */\n      dup4\n        /* \"#utility.yul\":6585:6652   */\n      tag_219\n      jump\t// in\n    tag_276:\n        /* \"#utility.yul\":6578:6652   */\n      swap2\n      pop\n        /* \"#utility.yul\":6661:6754   */\n      tag_277\n        /* \"#utility.yul\":6750:6753   */\n      dup3\n        /* \"#utility.yul\":6661:6754   */\n      tag_278\n      jump\t// in\n    tag_277:\n        /* \"#utility.yul\":6779:6781   */\n      0x20\n        /* \"#utility.yul\":6774:6777   */\n      dup3\n        /* \"#utility.yul\":6770:6782   */\n      add\n        /* \"#utility.yul\":6763:6782   */\n      swap1\n      pop\n        /* \"#utility.yul\":6422:6788   */\n      swap2\n      swap1\n      pop\n      jump\t// out\n        /* \"#utility.yul\":6794:6912   */\n    tag_279:\n        /* \"#utility.yul\":6881:6905   */\n      tag_281\n        /* \"#utility.yul\":6899:6904   */\n      dup2\n        /* \"#utility.yul\":6881:6905   */\n      tag_282\n      jump\t// in\n    tag_281:\n        /* \"#utility.yul\":6876:6879   */\n      dup3\n        /* \"#utility.yul\":6869:6906   */\n      mstore\n        /* \"#utility.yul\":6794:6912   */\n      pop\n      pop\n      jump\t// out\n        /* \"#utility.yul\":6918:7030   */\n    tag_283:\n        /* \"#utility.yul\":7001:7023   */\n      tag_285\n        /* \"#utility.yul\":7017:7022   */\n      dup2\n        /* \"#utility.yul\":7001:7023   */\n      tag_286\n      jump\t// in\n    tag_285:\n        /* \"#utility.yul\":6996:6999   */\n      dup3\n        /* \"#utility.yul\":6989:7024   */\n      mstore\n        /* \"#utility.yul\":6918:7030   */\n      pop\n      pop\n      jump\t// out\n        /* \"#utility.yul\":7036:7246   */\n    tag_27:\n        /* \"#utility.yul\":7123:7127   */\n      0x00\n        /* \"#utility.yul\":7161:7163   */\n      0x20\n        /* \"#utility.yul\":7150:7159   */\n      dup3\n        /* \"#utility.yul\":7146:7164   */\n      add\n        /* \"#utility.yul\":7138:7164   */\n      swap1\n      pop\n        /* \"#utility.yul\":7174:7239   */\n      tag_288\n        /* \"#utility.yul\":7236:7237   */\n      0x00\n        /* \"#utility.yul\":7225:7234   */\n      dup4\n        /* \"#utility.yul\":7221:7238   */\n      add\n        /* \"#utility.yul\":7212:7218   */\n      dup5\n        /* \"#utility.yul\":7174:7239   */\n      tag_210\n      jump\t// in\n    tag_288:\n        /* \"#utility.yul\":7036:7246   */\n      swap3\n      swap2\n      pop\n      pop\n      jump\t// out\n        /* \"#utility.yul\":7252:7565   */\n    tag_21:\n        /* \"#utility.yul\":7365:7369   */\n      0x00\n        /* \"#utility.yul\":7403:7405   */\n      0x20\n        /* \"#utility.yul\":7392:7401   */\n      dup3\n        /* \"#utility.yul\":7388:7406   */\n      add\n        /* \"#utility.yul\":7380:7406   */\n      swap1\n      pop\n        /* \"#utility.yul\":7452:7461   */\n      dup2\n        /* \"#utility.yul\":7446:7450   */\n      dup2\n        /* \"#utility.yul\":7442:7462   */\n      sub\n        /* \"#utility.yul\":7438:7439   */\n      0x00\n        /* \"#utility.yul\":7427:7436   */\n      dup4\n        /* \"#utility.yul\":7423:7440   */\n      add\n        /* \"#utility.yul\":7416:7463   */\n      mstore\n        /* \"#utility.yul\":7480:7558   */\n      tag_290\n        /* \"#utility.yul\":7553:7557   */\n      dup2\n        /* \"#utility.yul\":7544:7550   */\n      dup5\n        /* \"#utility.yul\":7480:7558   */\n      tag_214\n      jump\t// in\n    tag_290:\n        /* \"#utility.yul\":7472:7558   */\n      swap1\n      pop\n        /* \"#utility.yul\":7252:7565   */\n      swap3\n      swap2\n      pop\n      pop\n      jump\t// out\n        /* \"#utility.yul\":7571:7990   */\n    tag_147:\n        /* \"#utility.yul\":7737:7741   */\n      0x00\n        /* \"#utility.yul\":7775:7777   */\n      0x20\n        /* \"#utility.yul\":7764:7773   */\n      dup3\n        /* \"#utility.yul\":7760:7778   */\n      add\n        /* \"#utility.yul\":7752:7778   */\n      swap1\n      pop\n        /* \"#utility.yul\":7824:7833   */\n      dup2\n        /* \"#utility.yul\":7818:7822   */\n      dup2\n        /* \"#utility.yul\":7814:7834   */\n      sub\n        /* \"#utility.yul\":7810:7811   */\n      0x00\n        /* \"#utility.yul\":7799:7808   */\n      dup4\n        /* \"#utility.yul\":7795:7812   */\n      add\n        /* \"#utility.yul\":7788:7835   */\n      mstore\n        /* \"#utility.yul\":7852:7983   */\n      tag_292\n        /* \"#utility.yul\":7978:7982   */\n      dup2\n        /* \"#utility.yul\":7852:7983   */\n      tag_224\n      jump\t// in\n    tag_292:\n        /* \"#utility.yul\":7844:7983   */\n      swap1\n      pop\n        /* \"#utility.yul\":7571:7990   */\n      swap2\n      swap1\n      pop\n      jump\t// out\n        /* \"#utility.yul\":7996:8415   */\n    tag_173:\n        /* \"#utility.yul\":8162:8166   */\n      0x00\n        /* \"#utility.yul\":8200:8202   */\n      0x20\n        /* \"#utility.yul\":8189:8198   */\n      dup3\n        /* \"#utility.yul\":8185:8203   */\n      add\n        /* \"#utility.yul\":8177:8203   */\n      swap1\n      pop\n        /* \"#utility.yul\":8249:8258   */\n      dup2\n        /* \"#utility.yul\":8243:8247   */\n      dup2\n        /* \"#utility.yul\":8239:8259   */\n      sub\n        /* \"#utility.yul\":8235:8236   */\n      0x00\n        /* \"#utility.yul\":8224:8233   */\n      dup4\n        /* \"#utility.yul\":8220:8237   */\n      add\n        /* \"#utility.yul\":8213:8260   */\n      mstore\n        /* \"#utility.yul\":8277:8408   */\n      tag_294\n        /* \"#utility.yul\":8403:8407   */\n      dup2\n        /* \"#utility.yul\":8277:8408   */\n      tag_229\n      jump\t// in\n    tag_294:\n        /* \"#utility.yul\":8269:8408   */\n      swap1\n      pop\n        /* \"#utility.yul\":7996:8415   */\n      swap2\n      swap1\n      pop\n      jump\t// out\n        /* \"#utility.yul\":8421:8840   */\n    tag_139:\n        /* \"#utility.yul\":8587:8591   */\n      0x00\n        /* \"#utility.yul\":8625:8627   */\n      0x20\n        /* \"#utility.yul\":8614:8623   */\n      dup3\n        /* \"#utility.yul\":8610:8628   */\n      add\n        /* \"#utility.yul\":8602:8628   */\n      swap1\n      pop\n        /* \"#utility.yul\":8674:8683   */\n      dup2\n        /* \"#utility.yul\":8668:8672   */\n      dup2\n        /* \"#utility.yul\":8664:8684   */\n      sub\n        /* \"#utility.yul\":8660:8661   */\n      0x00\n        /* \"#utility.yul\":8649:8658   */\n      dup4\n        /* \"#utility.yul\":8645:8662   */\n      add\n        /* \"#utility.yul\":8638:8685   */\n      mstore\n        /* \"#utility.yul\":8702:8833   */\n      tag_296\n        /* \"#utility.yul\":8828:8832   */\n      dup2\n        /* \"#utility.yul\":8702:8833   */\n      tag_234\n      jump\t// in\n    tag_296:\n        /* \"#utility.yul\":8694:8833   */\n      swap1\n      pop\n        /* \"#utility.yul\":8421:8840   */\n      swap2\n      swap1\n      pop\n      jump\t// out\n        /* \"#utility.yul\":8846:9265   */\n    tag_88:\n        /* \"#utility.yul\":9012:9016   */\n      0x00\n        /* \"#utility.yul\":9050:9052   */\n      0x20\n        /* \"#utility.yul\":9039:9048   */\n      dup3\n        /* \"#utility.yul\":9035:9053   */\n      add\n        /* \"#utility.yul\":9027:9053   */\n      swap1\n      pop\n        /* \"#utility.yul\":9099:9108   */\n      dup2\n        /* \"#utility.yul\":9093:9097   */\n      dup2\n        /* \"#utility.yul\":9089:9109   */\n      sub\n        /* \"#utility.yul\":9085:9086   */\n      0x00\n        /* \"#utility.yul\":9074:9083   */\n      dup4\n        /* \"#utility.yul\":9070:9087   */\n      add\n        /* \"#utility.yul\":9063:9110   */\n      mstore\n        /* \"#utility.yul\":9127:9258   */\n      tag_298\n        /* \"#utility.yul\":9253:9257   */\n      dup2\n        /* \"#utility.yul\":9127:9258   */\n      tag_239\n      jump\t// in\n    tag_298:\n        /* \"#utility.yul\":9119:9258   */\n      swap1\n      pop\n        /* \"#utility.yul\":8846:9265   */\n      swap2\n      swap1\n      pop\n      jump\t// out\n        /* \"#utility.yul\":9271:9690   */\n    tag_152:\n        /* \"#utility.yul\":9437:9441   */\n      0x00\n        /* \"#utility.yul\":9475:9477   */\n      0x20\n        /* \"#utility.yul\":9464:9473   */\n      dup3\n        /* \"#utility.yul\":9460:9478   */\n      add\n        /* \"#utility.yul\":9452:9478   */\n      swap1\n      pop\n        /* \"#utility.yul\":9524:9533   */\n      dup2\n        /* \"#utility.yul\":9518:9522   */\n      dup2\n        /* \"#utility.yul\":9514:9534   */\n      sub\n        /* \"#utility.yul\":9510:9511   */\n      0x00\n        /* \"#utility.yul\":9499:9508   */\n      dup4\n        /* \"#utility.yul\":9495:9512   */\n      add\n        /* \"#utility.yul\":9488:9535   */\n      mstore\n        /* \"#utility.yul\":9552:9683   */\n      tag_300\n        /* \"#utility.yul\":9678:9682   */\n      dup2\n        /* \"#utility.yul\":9552:9683   */\n      tag_244\n      jump\t// in\n    tag_300:\n        /* \"#utility.yul\":9544:9683   */\n      swap1\n      pop\n        /* \"#utility.yul\":9271:9690   */\n      swap2\n      swap1\n      pop\n      jump\t// out\n        /* \"#utility.yul\":9696:10115   */\n    tag_95:\n        /* \"#utility.yul\":9862:9866   */\n      0x00\n        /* \"#utility.yul\":9900:9902   */\n      0x20\n        /* \"#utility.yul\":9889:9898   */\n      dup3\n        /* \"#utility.yul\":9885:9903   */\n      add\n        /* \"#utility.yul\":9877:9903   */\n      swap1\n      pop\n        /* \"#utility.yul\":9949:9958   */\n      dup2\n        /* \"#utility.yul\":9943:9947   */\n      dup2\n        /* \"#utility.yul\":9939:9959   */\n      sub\n        /* \"#utility.yul\":9935:9936   */\n      0x00\n        /* \"#utility.yul\":9924:9933   */\n      dup4\n        /* \"#utility.yul\":9920:9937   */\n      add\n        /* \"#utility.yul\":9913:9960   */\n      mstore\n        /* \"#utility.yul\":9977:10108   */\n      tag_302\n        /* \"#utility.yul\":10103:10107   */\n      dup2\n        /* \"#utility.yul\":9977:10108   */\n      tag_249\n      jump\t// in\n    tag_302:\n        /* \"#utility.yul\":9969:10108   */\n      swap1\n      pop\n        /* \"#utility.yul\":9696:10115   */\n      swap2\n      swap1\n      pop\n      jump\t// out\n        /* \"#utility.yul\":10121:10540   */\n    tag_169:\n        /* \"#utility.yul\":10287:10291   */\n      0x00\n        /* \"#utility.yul\":10325:10327   */\n      0x20\n        /* \"#utility.yul\":10314:10323   */\n      dup3\n        /* \"#utility.yul\":10310:10328   */\n      add\n        /* \"#utility.yul\":10302:10328   */\n      swap1\n      pop\n        /* \"#utility.yul\":10374:10383   */\n      dup2\n        /* \"#utility.yul\":10368:10372   */\n      dup2\n        /* \"#utility.yul\":10364:10384   */\n      sub\n        /* \"#utility.yul\":10360:10361   */\n      0x00\n        /* \"#utility.yul\":10349:10358   */\n      dup4\n        /* \"#utility.yul\":10345:10362   */\n      add\n        /* \"#utility.yul\":10338:10385   */\n      mstore\n        /* \"#utility.yul\":10402:10533   */\n      tag_304\n        /* \"#utility.yul\":10528:10532   */\n      dup2\n        /* \"#utility.yul\":10402:10533   */\n      tag_254\n      jump\t// in\n    tag_304:\n        /* \"#utility.yul\":10394:10533   */\n      swap1\n      pop\n        /* \"#utility.yul\":10121:10540   */\n      swap2\n      swap1\n      pop\n      jump\t// out\n        /* \"#utility.yul\":10546:10965   */\n    tag_144:\n        /* \"#utility.yul\":10712:10716   */\n      0x00\n        /* \"#utility.yul\":10750:10752   */\n      0x20\n        /* \"#utility.yul\":10739:10748   */\n      dup3\n        /* \"#utility.yul\":10735:10753   */\n      add\n        /* \"#utility.yul\":10727:10753   */\n      swap1\n      pop\n        /* \"#utility.yul\":10799:10808   */\n      dup2\n        /* \"#utility.yul\":10793:10797   */\n      dup2\n        /* \"#utility.yul\":10789:10809   */\n      sub\n        /* \"#utility.yul\":10785:10786   */\n      0x00\n        /* \"#utility.yul\":10774:10783   */\n      dup4\n        /* \"#utility.yul\":10770:10787   */\n      add\n        /* \"#utility.yul\":10763:10810   */\n      mstore\n        /* \"#utility.yul\":10827:10958   */\n      tag_306\n        /* \"#utility.yul\":10953:10957   */\n      dup2\n        /* \"#utility.yul\":10827:10958   */\n      tag_259\n      jump\t// in\n    tag_306:\n        /* \"#utility.yul\":10819:10958   */\n      swap1\n      pop\n        /* \"#utility.yul\":10546:10965   */\n      swap2\n      swap1\n      pop\n      jump\t// out\n        /* \"#utility.yul\":10971:11390   */\n    tag_136:\n        /* \"#utility.yul\":11137:11141   */\n      0x00\n        /* \"#utility.yul\":11175:11177   */\n      0x20\n        /* \"#utility.yul\":11164:11173   */\n      dup3\n        /* \"#utility.yul\":11160:11178   */\n      add\n        /* \"#utility.yul\":11152:11178   */\n      swap1\n      pop\n        /* \"#utility.yul\":11224:11233   */\n      dup2\n        /* \"#utility.yul\":11218:11222   */\n      dup2\n        /* \"#utility.yul\":11214:11234   */\n      sub\n        /* \"#utility.yul\":11210:11211   */\n      0x00\n        /* \"#utility.yul\":11199:11208   */\n      dup4\n        /* \"#utility.yul\":11195:11212   */\n      add\n        /* \"#utility.yul\":11188:11235   */\n      mstore\n        /* \"#utility.yul\":11252:11383   */\n      tag_308\n        /* \"#utility.yul\":11378:11382   */\n      dup2\n        /* \"#utility.yul\":11252:11383   */\n      tag_264\n      jump\t// in\n    tag_308:\n        /* \"#utility.yul\":11244:11383   */\n      swap1\n      pop\n        /* \"#utility.yul\":10971:11390   */\n      swap2\n      swap1\n      pop\n      jump\t// out\n        /* \"#utility.yul\":11396:11815   */\n    tag_122:\n        /* \"#utility.yul\":11562:11566   */\n      0x00\n        /* \"#utility.yul\":11600:11602   */\n      0x20\n        /* \"#utility.yul\":11589:11598   */\n      dup3\n        /* \"#utility.yul\":11585:11603   */\n      add\n        /* \"#utility.yul\":11577:11603   */\n      swap1\n      pop\n        /* \"#utility.yul\":11649:11658   */\n      dup2\n        /* \"#utility.yul\":11643:11647   */\n      dup2\n        /* \"#utility.yul\":11639:11659   */\n      sub\n        /* \"#utility.yul\":11635:11636   */\n      0x00\n        /* \"#utility.yul\":11624:11633   */\n      dup4\n        /* \"#utility.yul\":11620:11637   */\n      add\n        /* \"#utility.yul\":11613:11660   */\n      mstore\n        /* \"#utility.yul\":11677:11808   */\n      tag_310\n        /* \"#utility.yul\":11803:11807   */\n      dup2\n        /* \"#utility.yul\":11677:11808   */\n      tag_269\n      jump\t// in\n    tag_310:\n        /* \"#utility.yul\":11669:11808   */\n      swap1\n      pop\n        /* \"#utility.yul\":11396:11815   */\n      swap2\n      swap1\n      pop\n      jump\t// out\n        /* \"#utility.yul\":11821:12240   */\n    tag_160:\n        /* \"#utility.yul\":11987:11991   */\n      0x00\n        /* \"#utility.yul\":12025:12027   */\n      0x20\n        /* \"#utility.yul\":12014:12023   */\n      dup3\n        /* \"#utility.yul\":12010:12028   */\n      add\n        /* \"#utility.yul\":12002:12028   */\n      swap1\n      pop\n        /* \"#utility.yul\":12074:12083   */\n      dup2\n        /* \"#utility.yul\":12068:12072   */\n      dup2\n        /* \"#utility.yul\":12064:12084   */\n      sub\n        /* \"#utility.yul\":12060:12061   */\n      0x00\n        /* \"#utility.yul\":12049:12058   */\n      dup4\n        /* \"#utility.yul\":12045:12062   */\n      add\n        /* \"#utility.yul\":12038:12085   */\n      mstore\n        /* \"#utility.yul\":12102:12233   */\n      tag_312\n        /* \"#utility.yul\":12228:12232   */\n      dup2\n        /* \"#utility.yul\":12102:12233   */\n      tag_274\n      jump\t// in\n    tag_312:\n        /* \"#utility.yul\":12094:12233   */\n      swap1\n      pop\n        /* \"#utility.yul\":11821:12240   */\n      swap2\n      swap1\n      pop\n      jump\t// out\n        /* \"#utility.yul\":12246:12468   */\n    tag_31:\n        /* \"#utility.yul\":12339:12343   */\n      0x00\n        /* \"#utility.yul\":12377:12379   */\n      0x20\n        /* \"#utility.yul\":12366:12375   */\n      dup3\n        /* \"#utility.yul\":12362:12380   */\n      add\n        /* \"#utility.yul\":12354:12380   */\n      swap1\n      pop\n        /* \"#utility.yul\":12390:12461   */\n      tag_314\n        /* \"#utility.yul\":12458:12459   */\n      0x00\n        /* \"#utility.yul\":12447:12456   */\n      dup4\n        /* \"#utility.yul\":12443:12460   */\n      add\n        /* \"#utility.yul\":12434:12440   */\n      dup5\n        /* \"#utility.yul\":12390:12461   */\n      tag_279\n      jump\t// in\n    tag_314:\n        /* \"#utility.yul\":12246:12468   */\n      swap3\n      swap2\n      pop\n      pop\n      jump\t// out\n        /* \"#utility.yul\":12474:12688   */\n    tag_40:\n        /* \"#utility.yul\":12563:12567   */\n      0x00\n        /* \"#utility.yul\":12601:12603   */\n      0x20\n        /* \"#utility.yul\":12590:12599   */\n      dup3\n        /* \"#utility.yul\":12586:12604   */\n      add\n        /* \"#utility.yul\":12578:12604   */\n      swap1\n      pop\n        /* \"#utility.yul\":12614:12681   */\n      tag_316\n        /* \"#utility.yul\":12678:12679   */\n      0x00\n        /* \"#utility.yul\":12667:12676   */\n      dup4\n        /* \"#utility.yul\":12663:12680   */\n      add\n        /* \"#utility.yul\":12654:12660   */\n      dup5\n        /* \"#utility.yul\":12614:12681   */\n      tag_283\n      jump\t// in\n    tag_316:\n        /* \"#utility.yul\":12474:12688   */\n      swap3\n      swap2\n      pop\n      pop\n      jump\t// out\n        /* \"#utility.yul\":12775:12874   */\n    tag_217:\n        /* \"#utility.yul\":12827:12833   */\n      0x00\n        /* \"#utility.yul\":12861:12866   */\n      dup2\n        /* \"#utility.yul\":12855:12867   */\n      mload\n        /* \"#utility.yul\":12845:12867   */\n      swap1\n      pop\n        /* \"#utility.yul\":12775:12874   */\n      swap2\n      swap1\n      pop\n      jump\t// out\n        /* \"#utility.yul\":12880:13049   */\n    tag_219:\n        /* \"#utility.yul\":12964:12975   */\n      0x00\n        /* \"#utility.yul\":12998:13004   */\n      dup3\n        /* \"#utility.yul\":12993:12996   */\n      dup3\n        /* \"#utility.yul\":12986:13005   */\n      mstore\n        /* \"#utility.yul\":13038:13042   */\n      0x20\n        /* \"#utility.yul\":13033:13036   */\n      dup3\n        /* \"#utility.yul\":13029:13043   */\n      add\n        /* \"#utility.yul\":13014:13043   */\n      swap1\n      pop\n        /* \"#utility.yul\":12880:13049   */\n      swap3\n      swap2\n      pop\n      pop\n      jump\t// out\n        /* \"#utility.yul\":13055:13360   */\n    tag_104:\n        /* \"#utility.yul\":13095:13098   */\n      0x00\n        /* \"#utility.yul\":13114:13134   */\n      tag_322\n        /* \"#utility.yul\":13132:13133   */\n      dup3\n        /* \"#utility.yul\":13114:13134   */\n      tag_282\n      jump\t// in\n    tag_322:\n        /* \"#utility.yul\":13109:13134   */\n      swap2\n      pop\n        /* \"#utility.yul\":13148:13168   */\n      tag_323\n        /* \"#utility.yul\":13166:13167   */\n      dup4\n        /* \"#utility.yul\":13148:13168   */\n      tag_282\n      jump\t// in\n    tag_323:\n        /* \"#utility.yul\":13143:13168   */\n      swap3\n      pop\n        /* \"#utility.yul\":13302:13303   */\n      dup3\n        /* \"#utility.yul\":13234:13300   */\n      0xffffffffffffffffffffffffffffffffffffffffffffffffffffffffffffffff\n        /* \"#utility.yul\":13230:13304   */\n      sub\n        /* \"#utility.yul\":13227:13228   */\n      dup3\n        /* \"#utility.yul\":13224:13305   */\n      gt\n        /* \"#utility.yul\":13221:13328   */\n      iszero\n      tag_324\n      jumpi\n        /* \"#utility.yul\":13308:13326   */\n      tag_325\n      tag_326\n      jump\t// in\n    tag_325:\n        /* \"#utility.yul\":13221:13328   */\n    tag_324:\n        /* \"#utility.yul\":13352:13353   */\n      dup3\n        /* \"#utility.yul\":13349:13350   */\n      dup3\n        /* \"#utility.yul\":13345:13354   */\n      add\n        /* \"#utility.yul\":13338:13354   */\n      swap1\n      pop\n        /* \"#utility.yul\":13055:13360   */\n      swap3\n      swap2\n      pop\n      pop\n      jump\t// out\n        /* \"#utility.yul\":13366:13557   */\n    tag_175:\n        /* \"#utility.yul\":13406:13410   */\n      0x00\n        /* \"#utility.yul\":13426:13446   */\n      tag_328\n        /* \"#utility.yul\":13444:13445   */\n      dup3\n        /* \"#utility.yul\":13426:13446   */\n      tag_282\n      jump\t// in\n    tag_328:\n        /* \"#utility.yul\":13421:13446   */\n      swap2\n      pop\n        /* \"#utility.yul\":13460:13480   */\n      tag_329\n        /* \"#utility.yul\":13478:13479   */\n      dup4\n        /* \"#utility.yul\":13460:13480   */\n      tag_282\n      jump\t// in\n    tag_329:\n        /* \"#utility.yul\":13455:13480   */\n      swap3\n      pop\n        /* \"#utility.yul\":13499:13500   */\n      dup3\n        /* \"#utility.yul\":13496:13497   */\n      dup3\n        /* \"#utility.yul\":13493:13501   */\n      lt\n        /* \"#utility.yul\":13490:13524   */\n      iszero\n      tag_330\n      jumpi\n        /* \"#utility.yul\":13504:13522   */\n      tag_331\n      tag_326\n      jump\t// in\n    tag_331:\n        /* \"#utility.yul\":13490:13524   */\n    tag_330:\n        /* \"#utility.yul\":13549:13550   */\n      dup3\n        /* \"#utility.yul\":13546:13547   */\n      dup3\n        /* \"#utility.yul\":13542:13551   */\n      sub\n        /* \"#utility.yul\":13534:13551   */\n      swap1\n      pop\n        /* \"#utility.yul\":13366:13557   */\n      swap3\n      swap2\n      pop\n      pop\n      jump\t// out\n        /* \"#utility.yul\":13563:13659   */\n    tag_332:\n        /* \"#utility.yul\":13600:13607   */\n      0x00\n        /* \"#utility.yul\":13629:13653   */\n      tag_334\n        /* \"#utility.yul\":13647:13652   */\n      dup3\n        /* \"#utility.yul\":13629:13653   */\n      tag_335\n      jump\t// in\n    tag_334:\n        /* \"#utility.yul\":13618:13653   */\n      swap1\n      pop\n        /* \"#utility.yul\":13563:13659   */\n      swap2\n      swap1\n      pop\n      jump\t// out\n        /* \"#utility.yul\":13665:13755   */\n    tag_213:\n        /* \"#utility.yul\":13699:13706   */\n      0x00\n        /* \"#utility.yul\":13742:13747   */\n      dup2\n        /* \"#utility.yul\":13735:13748   */\n      iszero\n        /* \"#utility.yul\":13728:13749   */\n      iszero\n        /* \"#utility.yul\":13717:13749   */\n      swap1\n      pop\n        /* \"#utility.yul\":13665:13755   */\n      swap2\n      swap1\n      pop\n      jump\t// out\n        /* \"#utility.yul\":13761:13887   */\n    tag_335:\n        /* \"#utility.yul\":13798:13805   */\n      0x00\n        /* \"#utility.yul\":13838:13880   */\n      0xffffffffffffffffffffffffffffffffffffffff\n        /* \"#utility.yul\":13831:13836   */\n      dup3\n        /* \"#utility.yul\":13827:13881   */\n      and\n        /* \"#utility.yul\":13816:13881   */\n      swap1\n      pop\n        /* \"#utility.yul\":13761:13887   */\n      swap2\n      swap1\n      pop\n      jump\t// out\n        /* \"#utility.yul\":13893:13970   */\n    tag_282:\n        /* \"#utility.yul\":13930:13937   */\n      0x00\n        /* \"#utility.yul\":13959:13964   */\n      dup2\n        /* \"#utility.yul\":13948:13964   */\n      swap1\n      pop\n        /* \"#utility.yul\":13893:13970   */\n      swap2\n      swap1\n      pop\n      jump\t// out\n        /* \"#utility.yul\":13976:14062   */\n    tag_286:\n        /* \"#utility.yul\":14011:14018   */\n      0x00\n        /* \"#utility.yul\":14051:14055   */\n      0xff\n        /* \"#utility.yul\":14044:14049   */\n      dup3\n        /* \"#utility.yul\":14040:14056   */\n      and\n        /* \"#utility.yul\":14029:14056   */\n      swap1\n      pop\n        /* \"#utility.yul\":13976:14062   */\n      swap2\n      swap1\n      pop\n      jump\t// out\n        /* \"#utility.yul\":14068:14375   */\n    tag_221:\n        /* \"#utility.yul\":14136:14137   */\n      0x00\n        /* \"#utility.yul\":14146:14259   */\n    tag_341:\n        /* \"#utility.yul\":14160:14166   */\n      dup4\n        /* \"#utility.yul\":14157:14158   */\n      dup2\n        /* \"#utility.yul\":14154:14167   */\n      lt\n        /* \"#utility.yul\":14146:14259   */\n      iszero\n      tag_343\n      jumpi\n        /* \"#utility.yul\":14245:14246   */\n      dup1\n        /* \"#utility.yul\":14240:14243   */\n      dup3\n        /* \"#utility.yul\":14236:14247   */\n      add\n        /* \"#utility.yul\":14230:14248   */\n      mload\n        /* \"#utility.yul\":14226:14227   */\n      dup2\n        /* \"#utility.yul\":14221:14224   */\n      dup5\n        /* \"#utility.yul\":14217:14228   */\n      add\n        /* \"#utility.yul\":14210:14249   */\n      mstore\n        /* \"#utility.yul\":14182:14184   */\n      0x20\n        /* \"#utility.yul\":14179:14180   */\n      dup2\n        /* \"#utility.yul\":14175:14185   */\n      add\n        /* \"#utility.yul\":14170:14185   */\n      swap1\n      pop\n        /* \"#utility.yul\":14146:14259   */\n      jump(tag_341)\n    tag_343:\n        /* \"#utility.yul\":14277:14283   */\n      dup4\n        /* \"#utility.yul\":14274:14275   */\n      dup2\n        /* \"#utility.yul\":14271:14284   */\n      gt\n        /* \"#utility.yul\":14268:14369   */\n      iszero\n      tag_344\n      jumpi\n        /* \"#utility.yul\":14357:14358   */\n      0x00\n        /* \"#utility.yul\":14348:14354   */\n      dup5\n        /* \"#utility.yul\":14343:14346   */\n      dup5\n        /* \"#utility.yul\":14339:14355   */\n      add\n        /* \"#utility.yul\":14332:14359   */\n      mstore\n        /* \"#utility.yul\":14268:14369   */\n    tag_344:\n        /* \"#utility.yul\":14117:14375   */\n      pop\n        /* \"#utility.yul\":14068:14375   */\n      pop\n      pop\n      pop\n      jump\t// out\n        /* \"#utility.yul\":14381:14701   */\n    tag_74:\n        /* \"#utility.yul\":14425:14431   */\n      0x00\n        /* \"#utility.yul\":14462:14463   */\n      0x02\n        /* \"#utility.yul\":14456:14460   */\n      dup3\n        /* \"#utility.yul\":14452:14464   */\n      div\n        /* \"#utility.yul\":14442:14464   */\n      swap1\n      pop\n        /* \"#utility.yul\":14509:14510   */\n      0x01\n        /* \"#utility.yul\":14503:14507   */\n      dup3\n        /* \"#utility.yul\":14499:14511   */\n      and\n        /* \"#utility.yul\":14530:14548   */\n      dup1\n        /* \"#utility.yul\":14520:14601   */\n      tag_346\n      jumpi\n        /* \"#utility.yul\":14586:14590   */\n      0x7f\n        /* \"#utility.yul\":14578:14584   */\n      dup3\n        /* \"#utility.yul\":14574:14591   */\n      and\n        /* \"#utility.yul\":14564:14591   */\n      swap2\n      pop\n        /* \"#utility.yul\":14520:14601   */\n    tag_346:\n        /* \"#utility.yul\":14648:14650   */\n      0x20\n        /* \"#utility.yul\":14640:14646   */\n      dup3\n        /* \"#utility.yul\":14637:14651   */\n      lt\n        /* \"#utility.yul\":14617:14635   */\n      dup2\n        /* \"#utility.yul\":14614:14652   */\n      eq\n        /* \"#utility.yul\":14611:14695   */\n      iszero\n      tag_347\n      jumpi\n        /* \"#utility.yul\":14667:14685   */\n      tag_348\n      tag_349\n      jump\t// in\n    tag_348:\n        /* \"#utility.yul\":14611:14695   */\n    tag_347:\n        /* \"#utility.yul\":14432:14701   */\n      pop\n        /* \"#utility.yul\":14381:14701   */\n      swap2\n      swap1\n      pop\n      jump\t// out\n        /* \"#utility.yul\":14707:14887   */\n    tag_326:\n        /* \"#utility.yul\":14755:14832   */\n      0x4e487b7100000000000000000000000000000000000000000000000000000000\n        /* \"#utility.yul\":14752:14753   */\n      0x00\n        /* \"#utility.yul\":14745:14833   */\n      mstore\n        /* \"#utility.yul\":14852:14856   */\n      0x11\n        /* \"#utility.yul\":14849:14850   */\n      0x04\n        /* \"#utility.yul\":14842:14857   */\n      mstore\n        /* \"#utility.yul\":14876:14880   */\n      0x24\n        /* \"#utility.yul\":14873:14874   */\n      0x00\n        /* \"#utility.yul\":14866:14881   */\n      revert\n        /* \"#utility.yul\":14893:15073   */\n    tag_349:\n        /* \"#utility.yul\":14941:15018   */\n      0x4e487b7100000000000000000000000000000000000000000000000000000000\n        /* \"#utility.yul\":14938:14939   */\n      0x00\n        /* \"#utility.yul\":14931:15019   */\n      mstore\n        /* \"#utility.yul\":15038:15042   */\n      0x22\n        /* \"#utility.yul\":15035:15036   */\n      0x04\n        /* \"#utility.yul\":15028:15043   */\n      mstore\n        /* \"#utility.yul\":15062:15066   */\n      0x24\n        /* \"#utility.yul\":15059:15060   */\n      0x00\n        /* \"#utility.yul\":15052:15067   */\n      revert\n        /* \"#utility.yul\":15202:15319   */\n    tag_192:\n        /* \"#utility.yul\":15311:15312   */\n      0x00\n        /* \"#utility.yul\":15308:15309   */\n      dup1\n        /* \"#utility.yul\":15301:15313   */\n      revert\n        /* \"#utility.yul\":15325:15427   */\n    tag_223:\n        /* \"#utility.yul\":15366:15372   */\n      0x00\n        /* \"#utility.yul\":15417:15419   */\n      0x1f\n        /* \"#utility.yul\":15413:15420   */\n      not\n        /* \"#utility.yul\":15408:15410   */\n      0x1f\n        /* \"#utility.yul\":15401:15406   */\n      dup4\n        /* \"#utility.yul\":15397:15411   */\n      add\n        /* \"#utility.yul\":15393:15421   */\n      and\n        /* \"#utility.yul\":15383:15421   */\n      swap1\n      pop\n        /* \"#utility.yul\":15325:15427   */\n      swap2\n      swap1\n      pop\n      jump\t// out\n        /* \"#utility.yul\":15433:15655   */\n    tag_228:\n        /* \"#utility.yul\":15573:15607   */\n      0x45524332303a207472616e7366657220746f20746865207a65726f2061646472\n        /* \"#utility.yul\":15569:15570   */\n      0x00\n        /* \"#utility.yul\":15561:15567   */\n      dup3\n        /* \"#utility.yul\":15557:15571   */\n      add\n        /* \"#utility.yul\":15550:15608   */\n      mstore\n        /* \"#utility.yul\":15642:15647   */\n      0x6573730000000000000000000000000000000000000000000000000000000000\n        /* \"#utility.yul\":15637:15639   */\n      0x20\n        /* \"#utility.yul\":15629:15635   */\n      dup3\n        /* \"#utility.yul\":15625:15640   */\n      add\n        /* \"#utility.yul\":15618:15648   */\n      mstore\n        /* \"#utility.yul\":15433:15655   */\n      pop\n      jump\t// out\n        /* \"#utility.yul\":15661:15882   */\n    tag_233:\n        /* \"#utility.yul\":15801:15835   */\n      0x45524332303a206275726e20616d6f756e7420657863656564732062616c616e\n        /* \"#utility.yul\":15797:15798   */\n      0x00\n        /* \"#utility.yul\":15789:15795   */\n      dup3\n        /* \"#utility.yul\":15785:15799   */\n      add\n        /* \"#utility.yul\":15778:15836   */\n      mstore\n        /* \"#utility.yul\":15870:15874   */\n      0x6365000000000000000000000000000000000000000000000000000000000000\n        /* \"#utility.yul\":15865:15867   */\n      0x20\n        /* \"#utility.yul\":15857:15863   */\n      dup3\n        /* \"#utility.yul\":15853:15868   */\n      add\n        /* \"#utility.yul\":15846:15875   */\n      mstore\n        /* \"#utility.yul\":15661:15882   */\n      pop\n      jump\t// out\n        /* \"#utility.yul\":15888:16109   */\n    tag_238:\n        /* \"#utility.yul\":16028:16062   */\n      0x45524332303a20617070726f766520746f20746865207a65726f206164647265\n        /* \"#utility.yul\":16024:16025   */\n      0x00\n        /* \"#utility.yul\":16016:16022   */\n      dup3\n        /* \"#utility.yul\":16012:16026   */\n      add\n        /* \"#utility.yul\":16005:16063   */\n      mstore\n        /* \"#utility.yul\":16097:16101   */\n      0x7373000000000000000000000000000000000000000000000000000000000000\n        /* \"#utility.yul\":16092:16094   */\n      0x20\n        /* \"#utility.yul\":16084:16090   */\n      dup3\n        /* \"#utility.yul\":16080:16095   */\n      add\n        /* \"#utility.yul\":16073:16102   */\n      mstore\n        /* \"#utility.yul\":15888:16109   */\n      pop\n      jump\t// out\n        /* \"#utility.yul\":16115:16286   */\n    tag_243:\n        /* \"#utility.yul\":16255:16278   */\n      0x4e6f7420417070726f76656420746f20646f20736f0000000000000000000000\n        /* \"#utility.yul\":16251:16252   */\n      0x00\n        /* \"#utility.yul\":16243:16249   */\n      dup3\n        /* \"#utility.yul\":16239:16253   */\n      add\n        /* \"#utility.yul\":16232:16279   */\n      mstore\n        /* \"#utility.yul\":16115:16286   */\n      pop\n      jump\t// out\n        /* \"#utility.yul\":16292:16517   */\n    tag_248:\n        /* \"#utility.yul\":16432:16466   */\n      0x45524332303a207472616e7366657220616d6f756e7420657863656564732062\n        /* \"#utility.yul\":16428:16429   */\n      0x00\n        /* \"#utility.yul\":16420:16426   */\n      dup3\n        /* \"#utility.yul\":16416:16430   */\n      add\n        /* \"#utility.yul\":16409:16467   */\n      mstore\n        /* \"#utility.yul\":16501:16509   */\n      0x616c616e63650000000000000000000000000000000000000000000000000000\n        /* \"#utility.yul\":16496:16498   */\n      0x20\n        /* \"#utility.yul\":16488:16494   */\n      dup3\n        /* \"#utility.yul\":16484:16499   */\n      add\n        /* \"#utility.yul\":16477:16510   */\n      mstore\n        /* \"#utility.yul\":16292:16517   */\n      pop\n      jump\t// out\n        /* \"#utility.yul\":16523:16750   */\n    tag_253:\n        /* \"#utility.yul\":16663:16697   */\n      0x45524332303a207472616e7366657220616d6f756e7420657863656564732061\n        /* \"#utility.yul\":16659:16660   */\n      0x00\n        /* \"#utility.yul\":16651:16657   */\n      dup3\n        /* \"#utility.yul\":16647:16661   */\n      add\n        /* \"#utility.yul\":16640:16698   */\n      mstore\n        /* \"#utility.yul\":16732:16742   */\n      0x6c6c6f77616e6365000000000000000000000000000000000000000000000000\n        /* \"#utility.yul\":16727:16729   */\n      0x20\n        /* \"#utility.yul\":16719:16725   */\n      dup3\n        /* \"#utility.yul\":16715:16730   */\n      add\n        /* \"#utility.yul\":16708:16743   */\n      mstore\n        /* \"#utility.yul\":16523:16750   */\n      pop\n      jump\t// out\n        /* \"#utility.yul\":16756:16976   */\n    tag_258:\n        /* \"#utility.yul\":16896:16930   */\n      0x45524332303a206275726e2066726f6d20746865207a65726f20616464726573\n        /* \"#utility.yul\":16892:16893   */\n      0x00\n        /* \"#utility.yul\":16884:16890   */\n      dup3\n        /* \"#utility.yul\":16880:16894   */\n      add\n        /* \"#utility.yul\":16873:16931   */\n      mstore\n        /* \"#utility.yul\":16965:16968   */\n      0x7300000000000000000000000000000000000000000000000000000000000000\n        /* \"#utility.yul\":16960:16962   */\n      0x20\n        /* \"#utility.yul\":16952:16958   */\n      dup3\n        /* \"#utility.yul\":16948:16963   */\n      add\n        /* \"#utility.yul\":16941:16969   */\n      mstore\n        /* \"#utility.yul\":16756:16976   */\n      pop\n      jump\t// out\n        /* \"#utility.yul\":16982:17206   */\n    tag_263:\n        /* \"#utility.yul\":17122:17156   */\n      0x45524332303a207472616e736665722066726f6d20746865207a65726f206164\n        /* \"#utility.yul\":17118:17119   */\n      0x00\n        /* \"#utility.yul\":17110:17116   */\n      dup3\n        /* \"#utility.yul\":17106:17120   */\n      add\n        /* \"#utility.yul\":17099:17157   */\n      mstore\n        /* \"#utility.yul\":17191:17198   */\n      0x6472657373000000000000000000000000000000000000000000000000000000\n        /* \"#utility.yul\":17186:17188   */\n      0x20\n        /* \"#utility.yul\":17178:17184   */\n      dup3\n        /* \"#utility.yul\":17174:17189   */\n      add\n        /* \"#utility.yul\":17167:17199   */\n      mstore\n        /* \"#utility.yul\":16982:17206   */\n      pop\n      jump\t// out\n        /* \"#utility.yul\":17212:17435   */\n    tag_268:\n        /* \"#utility.yul\":17352:17386   */\n      0x45524332303a20617070726f76652066726f6d20746865207a65726f20616464\n        /* \"#utility.yul\":17348:17349   */\n      0x00\n        /* \"#utility.yul\":17340:17346   */\n      dup3\n        /* \"#utility.yul\":17336:17350   */\n      add\n        /* \"#utility.yul\":17329:17387   */\n      mstore\n        /* \"#utility.yul\":17421:17427   */\n      0x7265737300000000000000000000000000000000000000000000000000000000\n        /* \"#utility.yul\":17416:17418   */\n      0x20\n        /* \"#utility.yul\":17408:17414   */\n      dup3\n        /* \"#utility.yul\":17404:17419   */\n      add\n        /* \"#utility.yul\":17397:17428   */\n      mstore\n        /* \"#utility.yul\":17212:17435   */\n      pop\n      jump\t// out\n        /* \"#utility.yul\":17441:17665   */\n    tag_273:\n        /* \"#utility.yul\":17581:17615   */\n      0x45524332303a2064656372656173656420616c6c6f77616e63652062656c6f77\n        /* \"#utility.yul\":17577:17578   */\n      0x00\n        /* \"#utility.yul\":17569:17575   */\n      dup3\n        /* \"#utility.yul\":17565:17579   */\n      add\n        /* \"#utility.yul\":17558:17616   */\n      mstore\n        /* \"#utility.yul\":17650:17657   */\n      0x207a65726f000000000000000000000000000000000000000000000000000000\n        /* \"#utility.yul\":17645:17647   */\n      0x20\n        /* \"#utility.yul\":17637:17643   */\n      dup3\n        /* \"#utility.yul\":17633:17648   */\n      add\n        /* \"#utility.yul\":17626:17658   */\n      mstore\n        /* \"#utility.yul\":17441:17665   */\n      pop\n      jump\t// out\n        /* \"#utility.yul\":17671:17852   */\n    tag_278:\n        /* \"#utility.yul\":17811:17844   */\n      0x45524332303a206d696e7420746f20746865207a65726f206164647265737300\n        /* \"#utility.yul\":17807:17808   */\n      0x00\n        /* \"#utility.yul\":17799:17805   */\n      dup3\n        /* \"#utility.yul\":17795:17809   */\n      add\n        /* \"#utility.yul\":17788:17845   */\n      mstore\n        /* \"#utility.yul\":17671:17852   */\n      pop\n      jump\t// out\n        /* \"#utility.yul\":17858:17980   */\n    tag_184:\n        /* \"#utility.yul\":17931:17955   */\n      tag_368\n        /* \"#utility.yul\":17949:17954   */\n      dup2\n        /* \"#utility.yul\":17931:17955   */\n      tag_332\n      jump\t// in\n    tag_368:\n        /* \"#utility.yul\":17924:17929   */\n      dup2\n        /* \"#utility.yul\":17921:17956   */\n      eq\n        /* \"#utility.yul\":17911:17974   */\n      tag_369\n      jumpi\n        /* \"#utility.yul\":17970:17971   */\n      0x00\n        /* \"#utility.yul\":17967:17968   */\n      dup1\n        /* \"#utility.yul\":17960:17972   */\n      revert\n        /* \"#utility.yul\":17911:17974   */\n    tag_369:\n        /* \"#utility.yul\":17858:17980   */\n      pop\n      jump\t// out\n        /* \"#utility.yul\":17986:18108   */\n    tag_188:\n        /* \"#utility.yul\":18059:18083   */\n      tag_371\n        /* \"#utility.yul\":18077:18082   */\n      dup2\n        /* \"#utility.yul\":18059:18083   */\n      tag_282\n      jump\t// in\n    tag_371:\n        /* \"#utility.yul\":18052:18057   */\n      dup2\n        /* \"#utility.yul\":18049:18084   */\n      eq\n        /* \"#utility.yul\":18039:18102   */\n      tag_372\n      jumpi\n        /* \"#utility.yul\":18098:18099   */\n      0x00\n        /* \"#utility.yul\":18095:18096   */\n      dup1\n        /* \"#utility.yul\":18088:18100   */\n      revert\n        /* \"#utility.yul\":18039:18102   */\n    tag_372:\n        /* \"#utility.yul\":17986:18108   */\n      pop\n      jump\t// out\n\n    auxdata: 0xa264697066735822122061a54db74e050c076e47c159e467025bc808aca8fbb46f73ab267ada63ed290e64736f6c63430008070033\n}\n",
				"bytecode": {
					"linkReferences": {},
					"object": "60806040523480156200001157600080fd5b5060405162001e6338038062001e6383398181016040528101906200003791906200019f565b81600390805190602001906200004f92919062000071565b5080600490805190602001906200006892919062000071565b505050620003a8565b8280546200007f90620002b9565b90600052602060002090601f016020900481019282620000a35760008555620000ef565b82601f10620000be57805160ff1916838001178555620000ef565b82800160010185558215620000ef579182015b82811115620000ee578251825591602001919060010190620000d1565b5b509050620000fe919062000102565b5090565b5b808211156200011d57600081600090555060010162000103565b5090565b60006200013862000132846200024d565b62000224565b90508281526020810184848401111562000157576200015662000388565b5b6200016484828562000283565b509392505050565b600082601f83011262000184576200018362000383565b5b81516200019684826020860162000121565b91505092915050565b60008060408385031215620001b957620001b862000392565b5b600083015167ffffffffffffffff811115620001da57620001d96200038d565b5b620001e8858286016200016c565b925050602083015167ffffffffffffffff8111156200020c576200020b6200038d565b5b6200021a858286016200016c565b9150509250929050565b60006200023062000243565b90506200023e8282620002ef565b919050565b6000604051905090565b600067ffffffffffffffff8211156200026b576200026a62000354565b5b620002768262000397565b9050602081019050919050565b60005b83811015620002a357808201518184015260208101905062000286565b83811115620002b3576000848401525b50505050565b60006002820490506001821680620002d257607f821691505b60208210811415620002e957620002e862000325565b5b50919050565b620002fa8262000397565b810181811067ffffffffffffffff821117156200031c576200031b62000354565b5b80604052505050565b7f4e487b7100000000000000000000000000000000000000000000000000000000600052602260045260246000fd5b7f4e487b7100000000000000000000000000000000000000000000000000000000600052604160045260246000fd5b600080fd5b600080fd5b600080fd5b600080fd5b6000601f19601f8301169050919050565b611aab80620003b86000396000f3fe608060405234801561001057600080fd5b50600436106100cf5760003560e01c806340c10f191161008c5780639dc29fac116100665780639dc29fac14610228578063a457c2d714610244578063a9059cbb14610274578063dd62ed3e146102a4576100cf565b806340c10f19146101be57806370a08231146101da57806395d89b411461020a576100cf565b806306fdde03146100d4578063095ea7b3146100f257806318160ddd1461012257806323b872dd14610140578063313ce56714610170578063395093511461018e575b600080fd5b6100dc6102d4565b6040516100e991906113a2565b60405180910390f35b61010c60048036038101906101079190611160565b610366565b6040516101199190611387565b60405180910390f35b61012a610384565b6040516101379190611524565b60405180910390f35b61015a6004803603810190610155919061110d565b61038e565b6040516101679190611387565b60405180910390f35b610178610516565b604051610185919061153f565b60405180910390f35b6101a860048036038101906101a39190611160565b61051f565b6040516101b59190611387565b60405180910390f35b6101d860048036038101906101d39190611160565b6105cb565b005b6101f460048036038101906101ef91906110a0565b6105d9565b6040516102019190611524565b60405180910390f35b610212610621565b60405161021f91906113a2565b60405180910390f35b610242600480360381019061023d9190611160565b6106b3565b005b61025e60048036038101906102599190611160565b6106c1565b60405161026b9190611387565b60405180910390f35b61028e60048036038101906102899190611160565b6107ac565b60405161029b9190611387565b60405180910390f35b6102be60048036038101906102b991906110cd565b61085a565b6040516102cb9190611524565b60405180910390f35b6060600380546102e390611688565b80601f016020809104026020016040519081016040528092919081815260200182805461030f90611688565b801561035c5780601f106103315761010080835404028352916020019161035c565b820191906000526020600020905b81548152906001019060200180831161033f57829003601f168201915b5050505050905090565b600061037a6103736108e1565b84846108e9565b6001905092915050565b6000600254905090565b6000600560009054906101000a900473ffffffffffffffffffffffffffffffffffffffff1673ffffffffffffffffffffffffffffffffffffffff163373ffffffffffffffffffffffffffffffffffffffff1614610420576040517f08c379a000000000000000000000000000000000000000000000000000000000815260040161041790611424565b60405180910390fd5b61042b848484610ab4565b6000600160008673ffffffffffffffffffffffffffffffffffffffff1673ffffffffffffffffffffffffffffffffffffffff16815260200190815260200160002060006104766108e1565b73ffffffffffffffffffffffffffffffffffffffff1673ffffffffffffffffffffffffffffffffffffffff168152602001908152602001600020549050828110156104f6576040517f08c379a00000000000000000000000000000000000000000000000000000000081526004016104ed90611464565b60405180910390fd5b61050a856105026108e1565b8584036108e9565b60019150509392505050565b60006012905090565b60006105c161052c6108e1565b84846001600061053a6108e1565b73ffffffffffffffffffffffffffffffffffffffff1673ffffffffffffffffffffffffffffffffffffffff16815260200190815260200160002060008873ffffffffffffffffffffffffffffffffffffffff1673ffffffffffffffffffffffffffffffffffffffff168152602001908152602001600020546105bc9190611576565b6108e9565b6001905092915050565b6105d58282610d35565b5050565b60008060008373ffffffffffffffffffffffffffffffffffffffff1673ffffffffffffffffffffffffffffffffffffffff168152602001908152602001600020549050919050565b60606004805461063090611688565b80601f016020809104026020016040519081016040528092919081815260200182805461065c90611688565b80156106a95780601f1061067e576101008083540402835291602001916106a9565b820191906000526020600020905b81548152906001019060200180831161068c57829003601f168201915b5050505050905090565b6106bd8282610e95565b5050565b600080600160006106d06108e1565b73ffffffffffffffffffffffffffffffffffffffff1673ffffffffffffffffffffffffffffffffffffffff16815260200190815260200160002060008573ffffffffffffffffffffffffffffffffffffffff1673ffffffffffffffffffffffffffffffffffffffff1681526020019081526020016000205490508281101561078d576040517f08c379a0000000000000000000000000000000000000000000000000000000008152600401610784906114e4565b60405180910390fd5b6107a16107986108e1565b858584036108e9565b600191505092915050565b6000600560009054906101000a900473ffffffffffffffffffffffffffffffffffffffff1673ffffffffffffffffffffffffffffffffffffffff163373ffffffffffffffffffffffffffffffffffffffff161461083e576040517f08c379a000000000000000000000000000000000000000000000000000000000815260040161083590611424565b60405180910390fd5b6108506108496108e1565b8484610ab4565b6001905092915050565b6000600160008473ffffffffffffffffffffffffffffffffffffffff1673ffffffffffffffffffffffffffffffffffffffff16815260200190815260200160002060008373ffffffffffffffffffffffffffffffffffffffff1673ffffffffffffffffffffffffffffffffffffffff16815260200190815260200160002054905092915050565b600033905090565b600073ffffffffffffffffffffffffffffffffffffffff168373ffffffffffffffffffffffffffffffffffffffff161415610959576040517f08c379a0000000000000000000000000000000000000000000000000000000008152600401610950906114c4565b60405180910390fd5b600073ffffffffffffffffffffffffffffffffffffffff168273ffffffffffffffffffffffffffffffffffffffff1614156109c9576040517f08c379a00000000000000000000000000000000000000000000000000000000081526004016109c090611404565b60405180910390fd5b80600160008573ffffffffffffffffffffffffffffffffffffffff1673ffffffffffffffffffffffffffffffffffffffff16815260200190815260200160002060008473ffffffffffffffffffffffffffffffffffffffff1673ffffffffffffffffffffffffffffffffffffffff168152602001908152602001600020819055508173ffffffffffffffffffffffffffffffffffffffff168373ffffffffffffffffffffffffffffffffffffffff167f8c5be1e5ebec7d5bd14f71427d1e84f3dd0314c0f7b2291e5b200ac8c7c3b92583604051610aa79190611524565b60405180910390a3505050565b600073ffffffffffffffffffffffffffffffffffffffff168373ffffffffffffffffffffffffffffffffffffffff161415610b24576040517f08c379a0000000000000000000000000000000000000000000000000000000008152600401610b1b906114a4565b60405180910390fd5b600073ffffffffffffffffffffffffffffffffffffffff168273ffffffffffffffffffffffffffffffffffffffff161415610b94576040517f08c379a0000000000000000000000000000000000000000000000000000000008152600401610b8b906113c4565b60405180910390fd5b610b9f83838361106c565b60008060008573ffffffffffffffffffffffffffffffffffffffff1673ffffffffffffffffffffffffffffffffffffffff16815260200190815260200160002054905081811015610c25576040517f08c379a0000000000000000000000000000000000000000000000000000000008152600401610c1c90611444565b60405180910390fd5b8181036000808673ffffffffffffffffffffffffffffffffffffffff1673ffffffffffffffffffffffffffffffffffffffff16815260200190815260200160002081905550816000808573ffffffffffffffffffffffffffffffffffffffff1673ffffffffffffffffffffffffffffffffffffffff1681526020019081526020016000206000828254610cb89190611576565b925050819055508273ffffffffffffffffffffffffffffffffffffffff168473ffffffffffffffffffffffffffffffffffffffff167fddf252ad1be2c89b69c2b068fc378daa952ba7f163c4a11628f55a4df523b3ef84604051610d1c9190611524565b60405180910390a3610d2f848484611071565b50505050565b600073ffffffffffffffffffffffffffffffffffffffff168273ffffffffffffffffffffffffffffffffffffffff161415610da5576040517f08c379a0000000000000000000000000000000000000000000000000000000008152600401610d9c90611504565b60405180910390fd5b610db16000838361106c565b8060026000828254610dc39190611576565b92505081905550806000808473ffffffffffffffffffffffffffffffffffffffff1673ffffffffffffffffffffffffffffffffffffffff1681526020019081526020016000206000828254610e189190611576565b925050819055508173ffffffffffffffffffffffffffffffffffffffff16600073ffffffffffffffffffffffffffffffffffffffff167fddf252ad1be2c89b69c2b068fc378daa952ba7f163c4a11628f55a4df523b3ef83604051610e7d9190611524565b60405180910390a3610e9160008383611071565b5050565b600073ffffffffffffffffffffffffffffffffffffffff168273ffffffffffffffffffffffffffffffffffffffff161415610f05576040517f08c379a0000000000000000000000000000000000000000000000000000000008152600401610efc90611484565b60405180910390fd5b610f118260008361106c565b60008060008473ffffffffffffffffffffffffffffffffffffffff1673ffffffffffffffffffffffffffffffffffffffff16815260200190815260200160002054905081811015610f97576040517f08c379a0000000000000000000000000000000000000000000000000000000008152600401610f8e906113e4565b60405180910390fd5b8181036000808573ffffffffffffffffffffffffffffffffffffffff1673ffffffffffffffffffffffffffffffffffffffff168152602001908152602001600020819055508160026000828254610fee91906115cc565b92505081905550600073ffffffffffffffffffffffffffffffffffffffff168373ffffffffffffffffffffffffffffffffffffffff167fddf252ad1be2c89b69c2b068fc378daa952ba7f163c4a11628f55a4df523b3ef846040516110539190611524565b60405180910390a361106783600084611071565b505050565b505050565b505050565b60008135905061108581611a47565b92915050565b60008135905061109a81611a5e565b92915050565b6000602082840312156110b6576110b5611718565b5b60006110c484828501611076565b91505092915050565b600080604083850312156110e4576110e3611718565b5b60006110f285828601611076565b925050602061110385828601611076565b9150509250929050565b60008060006060848603121561112657611125611718565b5b600061113486828701611076565b935050602061114586828701611076565b92505060406111568682870161108b565b9150509250925092565b6000806040838503121561117757611176611718565b5b600061118585828601611076565b92505060206111968582860161108b565b9150509250929050565b6111a981611612565b82525050565b60006111ba8261155a565b6111c48185611565565b93506111d4818560208601611655565b6111dd8161171d565b840191505092915050565b60006111f5602383611565565b91506112008261172e565b604082019050919050565b6000611218602283611565565b91506112238261177d565b604082019050919050565b600061123b602283611565565b9150611246826117cc565b604082019050919050565b600061125e601583611565565b91506112698261181b565b602082019050919050565b6000611281602683611565565b915061128c82611844565b604082019050919050565b60006112a4602883611565565b91506112af82611893565b604082019050919050565b60006112c7602183611565565b91506112d2826118e2565b604082019050919050565b60006112ea602583611565565b91506112f582611931565b604082019050919050565b600061130d602483611565565b915061131882611980565b604082019050919050565b6000611330602583611565565b915061133b826119cf565b604082019050919050565b6000611353601f83611565565b915061135e82611a1e565b602082019050919050565b6113728161163e565b82525050565b61138181611648565b82525050565b600060208201905061139c60008301846111a0565b92915050565b600060208201905081810360008301526113bc81846111af565b905092915050565b600060208201905081810360008301526113dd816111e8565b9050919050565b600060208201905081810360008301526113fd8161120b565b9050919050565b6000602082019050818103600083015261141d8161122e565b9050919050565b6000602082019050818103600083015261143d81611251565b9050919050565b6000602082019050818103600083015261145d81611274565b9050919050565b6000602082019050818103600083015261147d81611297565b9050919050565b6000602082019050818103600083015261149d816112ba565b9050919050565b600060208201905081810360008301526114bd816112dd565b9050919050565b600060208201905081810360008301526114dd81611300565b9050919050565b600060208201905081810360008301526114fd81611323565b9050919050565b6000602082019050818103600083015261151d81611346565b9050919050565b60006020820190506115396000830184611369565b92915050565b60006020820190506115546000830184611378565b92915050565b600081519050919050565b600082825260208201905092915050565b60006115818261163e565b915061158c8361163e565b9250827fffffffffffffffffffffffffffffffffffffffffffffffffffffffffffffffff038211156115c1576115c06116ba565b5b828201905092915050565b60006115d78261163e565b91506115e28361163e565b9250828210156115f5576115f46116ba565b5b828203905092915050565b600061160b8261161e565b9050919050565b60008115159050919050565b600073ffffffffffffffffffffffffffffffffffffffff82169050919050565b6000819050919050565b600060ff82169050919050565b60005b83811015611673578082015181840152602081019050611658565b83811115611682576000848401525b50505050565b600060028204905060018216806116a057607f821691505b602082108114156116b4576116b36116e9565b5b50919050565b7f4e487b7100000000000000000000000000000000000000000000000000000000600052601160045260246000fd5b7f4e487b7100000000000000000000000000000000000000000000000000000000600052602260045260246000fd5b600080fd5b6000601f19601f8301169050919050565b7f45524332303a207472616e7366657220746f20746865207a65726f206164647260008201527f6573730000000000000000000000000000000000000000000000000000000000602082015250565b7f45524332303a206275726e20616d6f756e7420657863656564732062616c616e60008201527f6365000000000000000000000000000000000000000000000000000000000000602082015250565b7f45524332303a20617070726f766520746f20746865207a65726f20616464726560008201527f7373000000000000000000000000000000000000000000000000000000000000602082015250565b7f4e6f7420417070726f76656420746f20646f20736f0000000000000000000000600082015250565b7f45524332303a207472616e7366657220616d6f756e742065786365656473206260008201527f616c616e63650000000000000000000000000000000000000000000000000000602082015250565b7f45524332303a207472616e7366657220616d6f756e742065786365656473206160008201527f6c6c6f77616e6365000000000000000000000000000000000000000000000000602082015250565b7f45524332303a206275726e2066726f6d20746865207a65726f2061646472657360008201527f7300000000000000000000000000000000000000000000000000000000000000602082015250565b7f45524332303a207472616e736665722066726f6d20746865207a65726f20616460008201527f6472657373000000000000000000000000000000000000000000000000000000602082015250565b7f45524332303a20617070726f76652066726f6d20746865207a65726f2061646460008201527f7265737300000000000000000000000000000000000000000000000000000000602082015250565b7f45524332303a2064656372656173656420616c6c6f77616e63652062656c6f7760008201527f207a65726f000000000000000000000000000000000000000000000000000000602082015250565b7f45524332303a206d696e7420746f20746865207a65726f206164647265737300600082015250565b611a5081611600565b8114611a5b57600080fd5b50565b611a678161163e565b8114611a7257600080fd5b5056fea264697066735822122061a54db74e050c076e47c159e467025bc808aca8fbb46f73ab267ada63ed290e64736f6c63430008070033",
					"opcodes": "PUSH1 0x80 PUSH1 0x40 MSTORE CALLVALUE DUP1 ISZERO PUSH3 0x11 JUMPI PUSH1 0x0 DUP1 REVERT JUMPDEST POP PUSH1 0x40 MLOAD PUSH3 0x1E63 CODESIZE SUB DUP1 PUSH3 0x1E63 DUP4 CODECOPY DUP2 DUP2 ADD PUSH1 0x40 MSTORE DUP2 ADD SWAP1 PUSH3 0x37 SWAP2 SWAP1 PUSH3 0x19F JUMP JUMPDEST DUP2 PUSH1 0x3 SWAP1 DUP1 MLOAD SWAP1 PUSH1 0x20 ADD SWAP1 PUSH3 0x4F SWAP3 SWAP2 SWAP1 PUSH3 0x71 JUMP JUMPDEST POP DUP1 PUSH1 0x4 SWAP1 DUP1 MLOAD SWAP1 PUSH1 0x20 ADD SWAP1 PUSH3 0x68 SWAP3 SWAP2 SWAP1 PUSH3 0x71 JUMP JUMPDEST POP POP POP PUSH3 0x3A8 JUMP JUMPDEST DUP3 DUP1 SLOAD PUSH3 0x7F SWAP1 PUSH3 0x2B9 JUMP JUMPDEST SWAP1 PUSH1 0x0 MSTORE PUSH1 0x20 PUSH1 0x0 KECCAK256 SWAP1 PUSH1 0x1F ADD PUSH1 0x20 SWAP1 DIV DUP2 ADD SWAP3 DUP3 PUSH3 0xA3 JUMPI PUSH1 0x0 DUP6 SSTORE PUSH3 0xEF JUMP JUMPDEST DUP3 PUSH1 0x1F LT PUSH3 0xBE JUMPI DUP1 MLOAD PUSH1 0xFF NOT AND DUP4 DUP1 ADD OR DUP6 SSTORE PUSH3 0xEF JUMP JUMPDEST DUP3 DUP1 ADD PUSH1 0x1 ADD DUP6 SSTORE DUP3 ISZERO PUSH3 0xEF JUMPI SWAP2 DUP3 ADD JUMPDEST DUP3 DUP2 GT ISZERO PUSH3 0xEE JUMPI DUP3 MLOAD DUP3 SSTORE SWAP2 PUSH1 0x20 ADD SWAP2 SWAP1 PUSH1 0x1 ADD SWAP1 PUSH3 0xD1 JUMP JUMPDEST JUMPDEST POP SWAP1 POP PUSH3 0xFE SWAP2 SWAP1 PUSH3 0x102 JUMP JUMPDEST POP SWAP1 JUMP JUMPDEST JUMPDEST DUP1 DUP3 GT ISZERO PUSH3 0x11D JUMPI PUSH1 0x0 DUP2 PUSH1 0x0 SWAP1 SSTORE POP PUSH1 0x1 ADD PUSH3 0x103 JUMP JUMPDEST POP SWAP1 JUMP JUMPDEST PUSH1 0x0 PUSH3 0x138 PUSH3 0x132 DUP5 PUSH3 0x24D JUMP JUMPDEST PUSH3 0x224 JUMP JUMPDEST SWAP1 POP DUP3 DUP2 MSTORE PUSH1 0x20 DUP2 ADD DUP5 DUP5 DUP5 ADD GT ISZERO PUSH3 0x157 JUMPI PUSH3 0x156 PUSH3 0x388 JUMP JUMPDEST JUMPDEST PUSH3 0x164 DUP5 DUP3 DUP6 PUSH3 0x283 JUMP JUMPDEST POP SWAP4 SWAP3 POP POP POP JUMP JUMPDEST PUSH1 0x0 DUP3 PUSH1 0x1F DUP4 ADD SLT PUSH3 0x184 JUMPI PUSH3 0x183 PUSH3 0x383 JUMP JUMPDEST JUMPDEST DUP2 MLOAD PUSH3 0x196 DUP5 DUP3 PUSH1 0x20 DUP7 ADD PUSH3 0x121 JUMP JUMPDEST SWAP2 POP POP SWAP3 SWAP2 POP POP JUMP JUMPDEST PUSH1 0x0 DUP1 PUSH1 0x40 DUP4 DUP6 SUB SLT ISZERO PUSH3 0x1B9 JUMPI PUSH3 0x1B8 PUSH3 0x392 JUMP JUMPDEST JUMPDEST PUSH1 0x0 DUP4 ADD MLOAD PUSH8 0xFFFFFFFFFFFFFFFF DUP2 GT ISZERO PUSH3 0x1DA JUMPI PUSH3 0x1D9 PUSH3 0x38D JUMP JUMPDEST JUMPDEST PUSH3 0x1E8 DUP6 DUP3 DUP7 ADD PUSH3 0x16C JUMP JUMPDEST SWAP3 POP POP PUSH1 0x20 DUP4 ADD MLOAD PUSH8 0xFFFFFFFFFFFFFFFF DUP2 GT ISZERO PUSH3 0x20C JUMPI PUSH3 0x20B PUSH3 0x38D JUMP JUMPDEST JUMPDEST PUSH3 0x21A DUP6 DUP3 DUP7 ADD PUSH3 0x16C JUMP JUMPDEST SWAP2 POP POP SWAP3 POP SWAP3 SWAP1 POP JUMP JUMPDEST PUSH1 0x0 PUSH3 0x230 PUSH3 0x243 JUMP JUMPDEST SWAP1 POP PUSH3 0x23E DUP3 DUP3 PUSH3 0x2EF JUMP JUMPDEST SWAP2 SWAP1 POP JUMP JUMPDEST PUSH1 0x0 PUSH1 0x40 MLOAD SWAP1 POP SWAP1 JUMP JUMPDEST PUSH1 0x0 PUSH8 0xFFFFFFFFFFFFFFFF DUP3 GT ISZERO PUSH3 0x26B JUMPI PUSH3 0x26A PUSH3 0x354 JUMP JUMPDEST JUMPDEST PUSH3 0x276 DUP3 PUSH3 0x397 JUMP JUMPDEST SWAP1 POP PUSH1 0x20 DUP2 ADD SWAP1 POP SWAP2 SWAP1 POP JUMP JUMPDEST PUSH1 0x0 JUMPDEST DUP4 DUP2 LT ISZERO PUSH3 0x2A3 JUMPI DUP1 DUP3 ADD MLOAD DUP2 DUP5 ADD MSTORE PUSH1 0x20 DUP2 ADD SWAP1 POP PUSH3 0x286 JUMP JUMPDEST DUP4 DUP2 GT ISZERO PUSH3 0x2B3 JUMPI PUSH1 0x0 DUP5 DUP5 ADD MSTORE JUMPDEST POP POP POP POP JUMP JUMPDEST PUSH1 0x0 PUSH1 0x2 DUP3 DIV SWAP1 POP PUSH1 0x1 DUP3 AND DUP1 PUSH3 0x2D2 JUMPI PUSH1 0x7F DUP3 AND SWAP2 POP JUMPDEST PUSH1 0x20 DUP3 LT DUP2 EQ ISZERO PUSH3 0x2E9 JUMPI PUSH3 0x2E8 PUSH3 0x325 JUMP JUMPDEST JUMPDEST POP SWAP2 SWAP1 POP JUMP JUMPDEST PUSH3 0x2FA DUP3 PUSH3 0x397 JUMP JUMPDEST DUP2 ADD DUP2 DUP2 LT PUSH8 0xFFFFFFFFFFFFFFFF DUP3 GT OR ISZERO PUSH3 0x31C JUMPI PUSH3 0x31B PUSH3 0x354 JUMP JUMPDEST JUMPDEST DUP1 PUSH1 0x40 MSTORE POP POP POP JUMP JUMPDEST PUSH32 0x4E487B7100000000000000000000000000000000000000000000000000000000 PUSH1 0x0 MSTORE PUSH1 0x22 PUSH1 0x4 MSTORE PUSH1 0x24 PUSH1 0x0 REVERT JUMPDEST PUSH32 0x4E487B7100000000000000000000000000000000000000000000000000000000 PUSH1 0x0 MSTORE PUSH1 0x41 PUSH1 0x4 MSTORE PUSH1 0x24 PUSH1 0x0 REVERT JUMPDEST PUSH1 0x0 DUP1 REVERT JUMPDEST PUSH1 0x0 DUP1 REVERT JUMPDEST PUSH1 0x0 DUP1 REVERT JUMPDEST PUSH1 0x0 DUP1 REVERT JUMPDEST PUSH1 0x0 PUSH1 0x1F NOT PUSH1 0x1F DUP4 ADD AND SWAP1 POP SWAP2 SWAP1 POP JUMP JUMPDEST PUSH2 0x1AAB DUP1 PUSH3 0x3B8 PUSH1 0x0 CODECOPY PUSH1 0x0 RETURN INVALID PUSH1 0x80 PUSH1 0x40 MSTORE CALLVALUE DUP1 ISZERO PUSH2 0x10 JUMPI PUSH1 0x0 DUP1 REVERT JUMPDEST POP PUSH1 0x4 CALLDATASIZE LT PUSH2 0xCF JUMPI PUSH1 0x0 CALLDATALOAD PUSH1 0xE0 SHR DUP1 PUSH4 0x40C10F19 GT PUSH2 0x8C JUMPI DUP1 PUSH4 0x9DC29FAC GT PUSH2 0x66 JUMPI DUP1 PUSH4 0x9DC29FAC EQ PUSH2 0x228 JUMPI DUP1 PUSH4 0xA457C2D7 EQ PUSH2 0x244 JUMPI DUP1 PUSH4 0xA9059CBB EQ PUSH2 0x274 JUMPI DUP1 PUSH4 0xDD62ED3E EQ PUSH2 0x2A4 JUMPI PUSH2 0xCF JUMP JUMPDEST DUP1 PUSH4 0x40C10F19 EQ PUSH2 0x1BE JUMPI DUP1 PUSH4 0x70A08231 EQ PUSH2 0x1DA JUMPI DUP1 PUSH4 0x95D89B41 EQ PUSH2 0x20A JUMPI PUSH2 0xCF JUMP JUMPDEST DUP1 PUSH4 0x6FDDE03 EQ PUSH2 0xD4 JUMPI DUP1 PUSH4 0x95EA7B3 EQ PUSH2 0xF2 JUMPI DUP1 PUSH4 0x18160DDD EQ PUSH2 0x122 JUMPI DUP1 PUSH4 0x23B872DD EQ PUSH2 0x140 JUMPI DUP1 PUSH4 0x313CE567 EQ PUSH2 0x170 JUMPI DUP1 PUSH4 0x39509351 EQ PUSH2 0x18E JUMPI JUMPDEST PUSH1 0x0 DUP1 REVERT JUMPDEST PUSH2 0xDC PUSH2 0x2D4 JUMP JUMPDEST PUSH1 0x40 MLOAD PUSH2 0xE9 SWAP2 SWAP1 PUSH2 0x13A2 JUMP JUMPDEST PUSH1 0x40 MLOAD DUP1 SWAP2 SUB SWAP1 RETURN JUMPDEST PUSH2 0x10C PUSH1 0x4 DUP1 CALLDATASIZE SUB DUP2 ADD SWAP1 PUSH2 0x107 SWAP2 SWAP1 PUSH2 0x1160 JUMP JUMPDEST PUSH2 0x366 JUMP JUMPDEST PUSH1 0x40 MLOAD PUSH2 0x119 SWAP2 SWAP1 PUSH2 0x1387 JUMP JUMPDEST PUSH1 0x40 MLOAD DUP1 SWAP2 SUB SWAP1 RETURN JUMPDEST PUSH2 0x12A PUSH2 0x384 JUMP JUMPDEST PUSH1 0x40 MLOAD PUSH2 0x137 SWAP2 SWAP1 PUSH2 0x1524 JUMP JUMPDEST PUSH1 0x40 MLOAD DUP1 SWAP2 SUB SWAP1 RETURN JUMPDEST PUSH2 0x15A PUSH1 0x4 DUP1 CALLDATASIZE SUB DUP2 ADD SWAP1 PUSH2 0x155 SWAP2 SWAP1 PUSH2 0x110D JUMP JUMPDEST PUSH2 0x38E JUMP JUMPDEST PUSH1 0x40 MLOAD PUSH2 0x167 SWAP2 SWAP1 PUSH2 0x1387 JUMP JUMPDEST PUSH1 0x40 MLOAD DUP1 SWAP2 SUB SWAP1 RETURN JUMPDEST PUSH2 0x178 PUSH2 0x516 JUMP JUMPDEST PUSH1 0x40 MLOAD PUSH2 0x185 SWAP2 SWAP1 PUSH2 0x153F JUMP JUMPDEST PUSH1 0x40 MLOAD DUP1 SWAP2 SUB SWAP1 RETURN JUMPDEST PUSH2 0x1A8 PUSH1 0x4 DUP1 CALLDATASIZE SUB DUP2 ADD SWAP1 PUSH2 0x1A3 SWAP2 SWAP1 PUSH2 0x1160 JUMP JUMPDEST PUSH2 0x51F JUMP JUMPDEST PUSH1 0x40 MLOAD PUSH2 0x1B5 SWAP2 SWAP1 PUSH2 0x1387 JUMP JUMPDEST PUSH1 0x40 MLOAD DUP1 SWAP2 SUB SWAP1 RETURN JUMPDEST PUSH2 0x1D8 PUSH1 0x4 DUP1 CALLDATASIZE SUB DUP2 ADD SWAP1 PUSH2 0x1D3 SWAP2 SWAP1 PUSH2 0x1160 JUMP JUMPDEST PUSH2 0x5CB JUMP JUMPDEST STOP JUMPDEST PUSH2 0x1F4 PUSH1 0x4 DUP1 CALLDATASIZE SUB DUP2 ADD SWAP1 PUSH2 0x1EF SWAP2 SWAP1 PUSH2 0x10A0 JUMP JUMPDEST PUSH2 0x5D9 JUMP JUMPDEST PUSH1 0x40 MLOAD PUSH2 0x201 SWAP2 SWAP1 PUSH2 0x1524 JUMP JUMPDEST PUSH1 0x40 MLOAD DUP1 SWAP2 SUB SWAP1 RETURN JUMPDEST PUSH2 0x212 PUSH2 0x621 JUMP JUMPDEST PUSH1 0x40 MLOAD PUSH2 0x21F SWAP2 SWAP1 PUSH2 0x13A2 JUMP JUMPDEST PUSH1 0x40 MLOAD DUP1 SWAP2 SUB SWAP1 RETURN JUMPDEST PUSH2 0x242 PUSH1 0x4 DUP1 CALLDATASIZE SUB DUP2 ADD SWAP1 PUSH2 0x23D SWAP2 SWAP1 PUSH2 0x1160 JUMP JUMPDEST PUSH2 0x6B3 JUMP JUMPDEST STOP JUMPDEST PUSH2 0x25E PUSH1 0x4 DUP1 CALLDATASIZE SUB DUP2 ADD SWAP1 PUSH2 0x259 SWAP2 SWAP1 PUSH2 0x1160 JUMP JUMPDEST PUSH2 0x6C1 JUMP JUMPDEST PUSH1 0x40 MLOAD PUSH2 0x26B SWAP2 SWAP1 PUSH2 0x1387 JUMP JUMPDEST PUSH1 0x40 MLOAD DUP1 SWAP2 SUB SWAP1 RETURN JUMPDEST PUSH2 0x28E PUSH1 0x4 DUP1 CALLDATASIZE SUB DUP2 ADD SWAP1 PUSH2 0x289 SWAP2 SWAP1 PUSH2 0x1160 JUMP JUMPDEST PUSH2 0x7AC JUMP JUMPDEST PUSH1 0x40 MLOAD PUSH2 0x29B SWAP2 SWAP1 PUSH2 0x1387 JUMP JUMPDEST PUSH1 0x40 MLOAD DUP1 SWAP2 SUB SWAP1 RETURN JUMPDEST PUSH2 0x2BE PUSH1 0x4 DUP1 CALLDATASIZE SUB DUP2 ADD SWAP1 PUSH2 0x2B9 SWAP2 SWAP1 PUSH2 0x10CD JUMP JUMPDEST PUSH2 0x85A JUMP JUMPDEST PUSH1 0x40 MLOAD PUSH2 0x2CB SWAP2 SWAP1 PUSH2 0x1524 JUMP JUMPDEST PUSH1 0x40 MLOAD DUP1 SWAP2 SUB SWAP1 RETURN JUMPDEST PUSH1 0x60 PUSH1 0x3 DUP1 SLOAD PUSH2 0x2E3 SWAP1 PUSH2 0x1688 JUMP JUMPDEST DUP1 PUSH1 0x1F ADD PUSH1 0x20 DUP1 SWAP2 DIV MUL PUSH1 0x20 ADD PUSH1 0x40 MLOAD SWAP1 DUP2 ADD PUSH1 0x40 MSTORE DUP1 SWAP3 SWAP2 SWAP1 DUP2 DUP2 MSTORE PUSH1 0x20 ADD DUP3 DUP1 SLOAD PUSH2 0x30F SWAP1 PUSH2 0x1688 JUMP JUMPDEST DUP1 ISZERO PUSH2 0x35C JUMPI DUP1 PUSH1 0x1F LT PUSH2 0x331 JUMPI PUSH2 0x100 DUP1 DUP4 SLOAD DIV MUL DUP4 MSTORE SWAP2 PUSH1 0x20 ADD SWAP2 PUSH2 0x35C JUMP JUMPDEST DUP3 ADD SWAP2 SWAP1 PUSH1 0x0 MSTORE PUSH1 0x20 PUSH1 0x0 KECCAK256 SWAP1 JUMPDEST DUP2 SLOAD DUP2 MSTORE SWAP1 PUSH1 0x1 ADD SWAP1 PUSH1 0x20 ADD DUP1 DUP4 GT PUSH2 0x33F JUMPI DUP3 SWAP1 SUB PUSH1 0x1F AND DUP3 ADD SWAP2 JUMPDEST POP POP POP POP POP SWAP1 POP SWAP1 JUMP JUMPDEST PUSH1 0x0 PUSH2 0x37A PUSH2 0x373 PUSH2 0x8E1 JUMP JUMPDEST DUP5 DUP5 PUSH2 0x8E9 JUMP JUMPDEST PUSH1 0x1 SWAP1 POP SWAP3 SWAP2 POP POP JUMP JUMPDEST PUSH1 0x0 PUSH1 0x2 SLOAD SWAP1 POP SWAP1 JUMP JUMPDEST PUSH1 0x0 PUSH1 0x5 PUSH1 0x0 SWAP1 SLOAD SWAP1 PUSH2 0x100 EXP SWAP1 DIV PUSH20 0xFFFFFFFFFFFFFFFFFFFFFFFFFFFFFFFFFFFFFFFF AND PUSH20 0xFFFFFFFFFFFFFFFFFFFFFFFFFFFFFFFFFFFFFFFF AND CALLER PUSH20 0xFFFFFFFFFFFFFFFFFFFFFFFFFFFFFFFFFFFFFFFF AND EQ PUSH2 0x420 JUMPI PUSH1 0x40 MLOAD PUSH32 0x8C379A000000000000000000000000000000000000000000000000000000000 DUP2 MSTORE PUSH1 0x4 ADD PUSH2 0x417 SWAP1 PUSH2 0x1424 JUMP JUMPDEST PUSH1 0x40 MLOAD DUP1 SWAP2 SUB SWAP1 REVERT JUMPDEST PUSH2 0x42B DUP5 DUP5 DUP5 PUSH2 0xAB4 JUMP JUMPDEST PUSH1 0x0 PUSH1 0x1 PUSH1 0x0 DUP7 PUSH20 0xFFFFFFFFFFFFFFFFFFFFFFFFFFFFFFFFFFFFFFFF AND PUSH20 0xFFFFFFFFFFFFFFFFFFFFFFFFFFFFFFFFFFFFFFFF AND DUP2 MSTORE PUSH1 0x20 ADD SWAP1 DUP2 MSTORE PUSH1 0x20 ADD PUSH1 0x0 KECCAK256 PUSH1 0x0 PUSH2 0x476 PUSH2 0x8E1 JUMP JUMPDEST PUSH20 0xFFFFFFFFFFFFFFFFFFFFFFFFFFFFFFFFFFFFFFFF AND PUSH20 0xFFFFFFFFFFFFFFFFFFFFFFFFFFFFFFFFFFFFFFFF AND DUP2 MSTORE PUSH1 0x20 ADD SWAP1 DUP2 MSTORE PUSH1 0x20 ADD PUSH1 0x0 KECCAK256 SLOAD SWAP1 POP DUP3 DUP2 LT ISZERO PUSH2 0x4F6 JUMPI PUSH1 0x40 MLOAD PUSH32 0x8C379A000000000000000000000000000000000000000000000000000000000 DUP2 MSTORE PUSH1 0x4 ADD PUSH2 0x4ED SWAP1 PUSH2 0x1464 JUMP JUMPDEST PUSH1 0x40 MLOAD DUP1 SWAP2 SUB SWAP1 REVERT JUMPDEST PUSH2 0x50A DUP6 PUSH2 0x502 PUSH2 0x8E1 JUMP JUMPDEST DUP6 DUP5 SUB PUSH2 0x8E9 JUMP JUMPDEST PUSH1 0x1 SWAP2 POP POP SWAP4 SWAP3 POP POP POP JUMP JUMPDEST PUSH1 0x0 PUSH1 0x12 SWAP1 POP SWAP1 JUMP JUMPDEST PUSH1 0x0 PUSH2 0x5C1 PUSH2 0x52C PUSH2 0x8E1 JUMP JUMPDEST DUP5 DUP5 PUSH1 0x1 PUSH1 0x0 PUSH2 0x53A PUSH2 0x8E1 JUMP JUMPDEST PUSH20 0xFFFFFFFFFFFFFFFFFFFFFFFFFFFFFFFFFFFFFFFF AND PUSH20 0xFFFFFFFFFFFFFFFFFFFFFFFFFFFFFFFFFFFFFFFF AND DUP2 MSTORE PUSH1 0x20 ADD SWAP1 DUP2 MSTORE PUSH1 0x20 ADD PUSH1 0x0 KECCAK256 PUSH1 0x0 DUP9 PUSH20 0xFFFFFFFFFFFFFFFFFFFFFFFFFFFFFFFFFFFFFFFF AND PUSH20 0xFFFFFFFFFFFFFFFFFFFFFFFFFFFFFFFFFFFFFFFF AND DUP2 MSTORE PUSH1 0x20 ADD SWAP1 DUP2 MSTORE PUSH1 0x20 ADD PUSH1 0x0 KECCAK256 SLOAD PUSH2 0x5BC SWAP2 SWAP1 PUSH2 0x1576 JUMP JUMPDEST PUSH2 0x8E9 JUMP JUMPDEST PUSH1 0x1 SWAP1 POP SWAP3 SWAP2 POP POP JUMP JUMPDEST PUSH2 0x5D5 DUP3 DUP3 PUSH2 0xD35 JUMP JUMPDEST POP POP JUMP JUMPDEST PUSH1 0x0 DUP1 PUSH1 0x0 DUP4 PUSH20 0xFFFFFFFFFFFFFFFFFFFFFFFFFFFFFFFFFFFFFFFF AND PUSH20 0xFFFFFFFFFFFFFFFFFFFFFFFFFFFFFFFFFFFFFFFF AND DUP2 MSTORE PUSH1 0x20 ADD SWAP1 DUP2 MSTORE PUSH1 0x20 ADD PUSH1 0x0 KECCAK256 SLOAD SWAP1 POP SWAP2 SWAP1 POP JUMP JUMPDEST PUSH1 0x60 PUSH1 0x4 DUP1 SLOAD PUSH2 0x630 SWAP1 PUSH2 0x1688 JUMP JUMPDEST DUP1 PUSH1 0x1F ADD PUSH1 0x20 DUP1 SWAP2 DIV MUL PUSH1 0x20 ADD PUSH1 0x40 MLOAD SWAP1 DUP2 ADD PUSH1 0x40 MSTORE DUP1 SWAP3 SWAP2 SWAP1 DUP2 DUP2 MSTORE PUSH1 0x20 ADD DUP3 DUP1 SLOAD PUSH2 0x65C SWAP1 PUSH2 0x1688 JUMP JUMPDEST DUP1 ISZERO PUSH2 0x6A9 JUMPI DUP1 PUSH1 0x1F LT PUSH2 0x67E JUMPI PUSH2 0x100 DUP1 DUP4 SLOAD DIV MUL DUP4 MSTORE SWAP2 PUSH1 0x20 ADD SWAP2 PUSH2 0x6A9 JUMP JUMPDEST DUP3 ADD SWAP2 SWAP1 PUSH1 0x0 MSTORE PUSH1 0x20 PUSH1 0x0 KECCAK256 SWAP1 JUMPDEST DUP2 SLOAD DUP2 MSTORE SWAP1 PUSH1 0x1 ADD SWAP1 PUSH1 0x20 ADD DUP1 DUP4 GT PUSH2 0x68C JUMPI DUP3 SWAP1 SUB PUSH1 0x1F AND DUP3 ADD SWAP2 JUMPDEST POP POP POP POP POP SWAP1 POP SWAP1 JUMP JUMPDEST PUSH2 0x6BD DUP3 DUP3 PUSH2 0xE95 JUMP JUMPDEST POP POP JUMP JUMPDEST PUSH1 0x0 DUP1 PUSH1 0x1 PUSH1 0x0 PUSH2 0x6D0 PUSH2 0x8E1 JUMP JUMPDEST PUSH20 0xFFFFFFFFFFFFFFFFFFFFFFFFFFFFFFFFFFFFFFFF AND PUSH20 0xFFFFFFFFFFFFFFFFFFFFFFFFFFFFFFFFFFFFFFFF AND DUP2 MSTORE PUSH1 0x20 ADD SWAP1 DUP2 MSTORE PUSH1 0x20 ADD PUSH1 0x0 KECCAK256 PUSH1 0x0 DUP6 PUSH20 0xFFFFFFFFFFFFFFFFFFFFFFFFFFFFFFFFFFFFFFFF AND PUSH20 0xFFFFFFFFFFFFFFFFFFFFFFFFFFFFFFFFFFFFFFFF AND DUP2 MSTORE PUSH1 0x20 ADD SWAP1 DUP2 MSTORE PUSH1 0x20 ADD PUSH1 0x0 KECCAK256 SLOAD SWAP1 POP DUP3 DUP2 LT ISZERO PUSH2 0x78D JUMPI PUSH1 0x40 MLOAD PUSH32 0x8C379A000000000000000000000000000000000000000000000000000000000 DUP2 MSTORE PUSH1 0x4 ADD PUSH2 0x784 SWAP1 PUSH2 0x14E4 JUMP JUMPDEST PUSH1 0x40 MLOAD DUP1 SWAP2 SUB SWAP1 REVERT JUMPDEST PUSH2 0x7A1 PUSH2 0x798 PUSH2 0x8E1 JUMP JUMPDEST DUP6 DUP6 DUP5 SUB PUSH2 0x8E9 JUMP JUMPDEST PUSH1 0x1 SWAP2 POP POP SWAP3 SWAP2 POP POP JUMP JUMPDEST PUSH1 0x0 PUSH1 0x5 PUSH1 0x0 SWAP1 SLOAD SWAP1 PUSH2 0x100 EXP SWAP1 DIV PUSH20 0xFFFFFFFFFFFFFFFFFFFFFFFFFFFFFFFFFFFFFFFF AND PUSH20 0xFFFFFFFFFFFFFFFFFFFFFFFFFFFFFFFFFFFFFFFF AND CALLER PUSH20 0xFFFFFFFFFFFFFFFFFFFFFFFFFFFFFFFFFFFFFFFF AND EQ PUSH2 0x83E JUMPI PUSH1 0x40 MLOAD PUSH32 0x8C379A000000000000000000000000000000000000000000000000000000000 DUP2 MSTORE PUSH1 0x4 ADD PUSH2 0x835 SWAP1 PUSH2 0x1424 JUMP JUMPDEST PUSH1 0x40 MLOAD DUP1 SWAP2 SUB SWAP1 REVERT JUMPDEST PUSH2 0x850 PUSH2 0x849 PUSH2 0x8E1 JUMP JUMPDEST DUP5 DUP5 PUSH2 0xAB4 JUMP JUMPDEST PUSH1 0x1 SWAP1 POP SWAP3 SWAP2 POP POP JUMP JUMPDEST PUSH1 0x0 PUSH1 0x1 PUSH1 0x0 DUP5 PUSH20 0xFFFFFFFFFFFFFFFFFFFFFFFFFFFFFFFFFFFFFFFF AND PUSH20 0xFFFFFFFFFFFFFFFFFFFFFFFFFFFFFFFFFFFFFFFF AND DUP2 MSTORE PUSH1 0x20 ADD SWAP1 DUP2 MSTORE PUSH1 0x20 ADD PUSH1 0x0 KECCAK256 PUSH1 0x0 DUP4 PUSH20 0xFFFFFFFFFFFFFFFFFFFFFFFFFFFFFFFFFFFFFFFF AND PUSH20 0xFFFFFFFFFFFFFFFFFFFFFFFFFFFFFFFFFFFFFFFF AND DUP2 MSTORE PUSH1 0x20 ADD SWAP1 DUP2 MSTORE PUSH1 0x20 ADD PUSH1 0x0 KECCAK256 SLOAD SWAP1 POP SWAP3 SWAP2 POP POP JUMP JUMPDEST PUSH1 0x0 CALLER SWAP1 POP SWAP1 JUMP JUMPDEST PUSH1 0x0 PUSH20 0xFFFFFFFFFFFFFFFFFFFFFFFFFFFFFFFFFFFFFFFF AND DUP4 PUSH20 0xFFFFFFFFFFFFFFFFFFFFFFFFFFFFFFFFFFFFFFFF AND EQ ISZERO PUSH2 0x959 JUMPI PUSH1 0x40 MLOAD PUSH32 0x8C379A000000000000000000000000000000000000000000000000000000000 DUP2 MSTORE PUSH1 0x4 ADD PUSH2 0x950 SWAP1 PUSH2 0x14C4 JUMP JUMPDEST PUSH1 0x40 MLOAD DUP1 SWAP2 SUB SWAP1 REVERT JUMPDEST PUSH1 0x0 PUSH20 0xFFFFFFFFFFFFFFFFFFFFFFFFFFFFFFFFFFFFFFFF AND DUP3 PUSH20 0xFFFFFFFFFFFFFFFFFFFFFFFFFFFFFFFFFFFFFFFF AND EQ ISZERO PUSH2 0x9C9 JUMPI PUSH1 0x40 MLOAD PUSH32 0x8C379A000000000000000000000000000000000000000000000000000000000 DUP2 MSTORE PUSH1 0x4 ADD PUSH2 0x9C0 SWAP1 PUSH2 0x1404 JUMP JUMPDEST PUSH1 0x40 MLOAD DUP1 SWAP2 SUB SWAP1 REVERT JUMPDEST DUP1 PUSH1 0x1 PUSH1 0x0 DUP6 PUSH20 0xFFFFFFFFFFFFFFFFFFFFFFFFFFFFFFFFFFFFFFFF AND PUSH20 0xFFFFFFFFFFFFFFFFFFFFFFFFFFFFFFFFFFFFFFFF AND DUP2 MSTORE PUSH1 0x20 ADD SWAP1 DUP2 MSTORE PUSH1 0x20 ADD PUSH1 0x0 KECCAK256 PUSH1 0x0 DUP5 PUSH20 0xFFFFFFFFFFFFFFFFFFFFFFFFFFFFFFFFFFFFFFFF AND PUSH20 0xFFFFFFFFFFFFFFFFFFFFFFFFFFFFFFFFFFFFFFFF AND DUP2 MSTORE PUSH1 0x20 ADD SWAP1 DUP2 MSTORE PUSH1 0x20 ADD PUSH1 0x0 KECCAK256 DUP2 SWAP1 SSTORE POP DUP2 PUSH20 0xFFFFFFFFFFFFFFFFFFFFFFFFFFFFFFFFFFFFFFFF AND DUP4 PUSH20 0xFFFFFFFFFFFFFFFFFFFFFFFFFFFFFFFFFFFFFFFF AND PUSH32 0x8C5BE1E5EBEC7D5BD14F71427D1E84F3DD0314C0F7B2291E5B200AC8C7C3B925 DUP4 PUSH1 0x40 MLOAD PUSH2 0xAA7 SWAP2 SWAP1 PUSH2 0x1524 JUMP JUMPDEST PUSH1 0x40 MLOAD DUP1 SWAP2 SUB SWAP1 LOG3 POP POP POP JUMP JUMPDEST PUSH1 0x0 PUSH20 0xFFFFFFFFFFFFFFFFFFFFFFFFFFFFFFFFFFFFFFFF AND DUP4 PUSH20 0xFFFFFFFFFFFFFFFFFFFFFFFFFFFFFFFFFFFFFFFF AND EQ ISZERO PUSH2 0xB24 JUMPI PUSH1 0x40 MLOAD PUSH32 0x8C379A000000000000000000000000000000000000000000000000000000000 DUP2 MSTORE PUSH1 0x4 ADD PUSH2 0xB1B SWAP1 PUSH2 0x14A4 JUMP JUMPDEST PUSH1 0x40 MLOAD DUP1 SWAP2 SUB SWAP1 REVERT JUMPDEST PUSH1 0x0 PUSH20 0xFFFFFFFFFFFFFFFFFFFFFFFFFFFFFFFFFFFFFFFF AND DUP3 PUSH20 0xFFFFFFFFFFFFFFFFFFFFFFFFFFFFFFFFFFFFFFFF AND EQ ISZERO PUSH2 0xB94 JUMPI PUSH1 0x40 MLOAD PUSH32 0x8C379A000000000000000000000000000000000000000000000000000000000 DUP2 MSTORE PUSH1 0x4 ADD PUSH2 0xB8B SWAP1 PUSH2 0x13C4 JUMP JUMPDEST PUSH1 0x40 MLOAD DUP1 SWAP2 SUB SWAP1 REVERT JUMPDEST PUSH2 0xB9F DUP4 DUP4 DUP4 PUSH2 0x106C JUMP JUMPDEST PUSH1 0x0 DUP1 PUSH1 0x0 DUP6 PUSH20 0xFFFFFFFFFFFFFFFFFFFFFFFFFFFFFFFFFFFFFFFF AND PUSH20 0xFFFFFFFFFFFFFFFFFFFFFFFFFFFFFFFFFFFFFFFF AND DUP2 MSTORE PUSH1 0x20 ADD SWAP1 DUP2 MSTORE PUSH1 0x20 ADD PUSH1 0x0 KECCAK256 SLOAD SWAP1 POP DUP2 DUP2 LT ISZERO PUSH2 0xC25 JUMPI PUSH1 0x40 MLOAD PUSH32 0x8C379A000000000000000000000000000000000000000000000000000000000 DUP2 MSTORE PUSH1 0x4 ADD PUSH2 0xC1C SWAP1 PUSH2 0x1444 JUMP JUMPDEST PUSH1 0x40 MLOAD DUP1 SWAP2 SUB SWAP1 REVERT JUMPDEST DUP2 DUP2 SUB PUSH1 0x0 DUP1 DUP7 PUSH20 0xFFFFFFFFFFFFFFFFFFFFFFFFFFFFFFFFFFFFFFFF AND PUSH20 0xFFFFFFFFFFFFFFFFFFFFFFFFFFFFFFFFFFFFFFFF AND DUP2 MSTORE PUSH1 0x20 ADD SWAP1 DUP2 MSTORE PUSH1 0x20 ADD PUSH1 0x0 KECCAK256 DUP2 SWAP1 SSTORE POP DUP2 PUSH1 0x0 DUP1 DUP6 PUSH20 0xFFFFFFFFFFFFFFFFFFFFFFFFFFFFFFFFFFFFFFFF AND PUSH20 0xFFFFFFFFFFFFFFFFFFFFFFFFFFFFFFFFFFFFFFFF AND DUP2 MSTORE PUSH1 0x20 ADD SWAP1 DUP2 MSTORE PUSH1 0x20 ADD PUSH1 0x0 KECCAK256 PUSH1 0x0 DUP3 DUP3 SLOAD PUSH2 0xCB8 SWAP2 SWAP1 PUSH2 0x1576 JUMP JUMPDEST SWAP3 POP POP DUP2 SWAP1 SSTORE POP DUP3 PUSH20 0xFFFFFFFFFFFFFFFFFFFFFFFFFFFFFFFFFFFFFFFF AND DUP5 PUSH20 0xFFFFFFFFFFFFFFFFFFFFFFFFFFFFFFFFFFFFFFFF AND PUSH32 0xDDF252AD1BE2C89B69C2B068FC378DAA952BA7F163C4A11628F55A4DF523B3EF DUP5 PUSH1 0x40 MLOAD PUSH2 0xD1C SWAP2 SWAP1 PUSH2 0x1524 JUMP JUMPDEST PUSH1 0x40 MLOAD DUP1 SWAP2 SUB SWAP1 LOG3 PUSH2 0xD2F DUP5 DUP5 DUP5 PUSH2 0x1071 JUMP JUMPDEST POP POP POP POP JUMP JUMPDEST PUSH1 0x0 PUSH20 0xFFFFFFFFFFFFFFFFFFFFFFFFFFFFFFFFFFFFFFFF AND DUP3 PUSH20 0xFFFFFFFFFFFFFFFFFFFFFFFFFFFFFFFFFFFFFFFF AND EQ ISZERO PUSH2 0xDA5 JUMPI PUSH1 0x40 MLOAD PUSH32 0x8C379A000000000000000000000000000000000000000000000000000000000 DUP2 MSTORE PUSH1 0x4 ADD PUSH2 0xD9C SWAP1 PUSH2 0x1504 JUMP JUMPDEST PUSH1 0x40 MLOAD DUP1 SWAP2 SUB SWAP1 REVERT JUMPDEST PUSH2 0xDB1 PUSH1 0x0 DUP4 DUP4 PUSH2 0x106C JUMP JUMPDEST DUP1 PUSH1 0x2 PUSH1 0x0 DUP3 DUP3 SLOAD PUSH2 0xDC3 SWAP2 SWAP1 PUSH2 0x1576 JUMP JUMPDEST SWAP3 POP POP DUP2 SWAP1 SSTORE POP DUP1 PUSH1 0x0 DUP1 DUP5 PUSH20 0xFFFFFFFFFFFFFFFFFFFFFFFFFFFFFFFFFFFFFFFF AND PUSH20 0xFFFFFFFFFFFFFFFFFFFFFFFFFFFFFFFFFFFFFFFF AND DUP2 MSTORE PUSH1 0x20 ADD SWAP1 DUP2 MSTORE PUSH1 0x20 ADD PUSH1 0x0 KECCAK256 PUSH1 0x0 DUP3 DUP3 SLOAD PUSH2 0xE18 SWAP2 SWAP1 PUSH2 0x1576 JUMP JUMPDEST SWAP3 POP POP DUP2 SWAP1 SSTORE POP DUP2 PUSH20 0xFFFFFFFFFFFFFFFFFFFFFFFFFFFFFFFFFFFFFFFF AND PUSH1 0x0 PUSH20 0xFFFFFFFFFFFFFFFFFFFFFFFFFFFFFFFFFFFFFFFF AND PUSH32 0xDDF252AD1BE2C89B69C2B068FC378DAA952BA7F163C4A11628F55A4DF523B3EF DUP4 PUSH1 0x40 MLOAD PUSH2 0xE7D SWAP2 SWAP1 PUSH2 0x1524 JUMP JUMPDEST PUSH1 0x40 MLOAD DUP1 SWAP2 SUB SWAP1 LOG3 PUSH2 0xE91 PUSH1 0x0 DUP4 DUP4 PUSH2 0x1071 JUMP JUMPDEST POP POP JUMP JUMPDEST PUSH1 0x0 PUSH20 0xFFFFFFFFFFFFFFFFFFFFFFFFFFFFFFFFFFFFFFFF AND DUP3 PUSH20 0xFFFFFFFFFFFFFFFFFFFFFFFFFFFFFFFFFFFFFFFF AND EQ ISZERO PUSH2 0xF05 JUMPI PUSH1 0x40 MLOAD PUSH32 0x8C379A000000000000000000000000000000000000000000000000000000000 DUP2 MSTORE PUSH1 0x4 ADD PUSH2 0xEFC SWAP1 PUSH2 0x1484 JUMP JUMPDEST PUSH1 0x40 MLOAD DUP1 SWAP2 SUB SWAP1 REVERT JUMPDEST PUSH2 0xF11 DUP3 PUSH1 0x0 DUP4 PUSH2 0x106C JUMP JUMPDEST PUSH1 0x0 DUP1 PUSH1 0x0 DUP5 PUSH20 0xFFFFFFFFFFFFFFFFFFFFFFFFFFFFFFFFFFFFFFFF AND PUSH20 0xFFFFFFFFFFFFFFFFFFFFFFFFFFFFFFFFFFFFFFFF AND DUP2 MSTORE PUSH1 0x20 ADD SWAP1 DUP2 MSTORE PUSH1 0x20 ADD PUSH1 0x0 KECCAK256 SLOAD SWAP1 POP DUP2 DUP2 LT ISZERO PUSH2 0xF97 JUMPI PUSH1 0x40 MLOAD PUSH32 0x8C379A000000000000000000000000000000000000000000000000000000000 DUP2 MSTORE PUSH1 0x4 ADD PUSH2 0xF8E SWAP1 PUSH2 0x13E4 JUMP JUMPDEST PUSH1 0x40 MLOAD DUP1 SWAP2 SUB SWAP1 REVERT JUMPDEST DUP2 DUP2 SUB PUSH1 0x0 DUP1 DUP6 PUSH20 0xFFFFFFFFFFFFFFFFFFFFFFFFFFFFFFFFFFFFFFFF AND PUSH20 0xFFFFFFFFFFFFFFFFFFFFFFFFFFFFFFFFFFFFFFFF AND DUP2 MSTORE PUSH1 0x20 ADD SWAP1 DUP2 MSTORE PUSH1 0x20 ADD PUSH1 0x0 KECCAK256 DUP2 SWAP1 SSTORE POP DUP2 PUSH1 0x2 PUSH1 0x0 DUP3 DUP3 SLOAD PUSH2 0xFEE SWAP2 SWAP1 PUSH2 0x15CC JUMP JUMPDEST SWAP3 POP POP DUP2 SWAP1 SSTORE POP PUSH1 0x0 PUSH20 0xFFFFFFFFFFFFFFFFFFFFFFFFFFFFFFFFFFFFFFFF AND DUP4 PUSH20 0xFFFFFFFFFFFFFFFFFFFFFFFFFFFFFFFFFFFFFFFF AND PUSH32 0xDDF252AD1BE2C89B69C2B068FC378DAA952BA7F163C4A11628F55A4DF523B3EF DUP5 PUSH1 0x40 MLOAD PUSH2 0x1053 SWAP2 SWAP1 PUSH2 0x1524 JUMP JUMPDEST PUSH1 0x40 MLOAD DUP1 SWAP2 SUB SWAP1 LOG3 PUSH2 0x1067 DUP4 PUSH1 0x0 DUP5 PUSH2 0x1071 JUMP JUMPDEST POP POP POP JUMP JUMPDEST POP POP POP JUMP JUMPDEST POP POP POP JUMP JUMPDEST PUSH1 0x0 DUP2 CALLDATALOAD SWAP1 POP PUSH2 0x1085 DUP2 PUSH2 0x1A47 JUMP JUMPDEST SWAP3 SWAP2 POP POP JUMP JUMPDEST PUSH1 0x0 DUP2 CALLDATALOAD SWAP1 POP PUSH2 0x109A DUP2 PUSH2 0x1A5E JUMP JUMPDEST SWAP3 SWAP2 POP POP JUMP JUMPDEST PUSH1 0x0 PUSH1 0x20 DUP3 DUP5 SUB SLT ISZERO PUSH2 0x10B6 JUMPI PUSH2 0x10B5 PUSH2 0x1718 JUMP JUMPDEST JUMPDEST PUSH1 0x0 PUSH2 0x10C4 DUP5 DUP3 DUP6 ADD PUSH2 0x1076 JUMP JUMPDEST SWAP2 POP POP SWAP3 SWAP2 POP POP JUMP JUMPDEST PUSH1 0x0 DUP1 PUSH1 0x40 DUP4 DUP6 SUB SLT ISZERO PUSH2 0x10E4 JUMPI PUSH2 0x10E3 PUSH2 0x1718 JUMP JUMPDEST JUMPDEST PUSH1 0x0 PUSH2 0x10F2 DUP6 DUP3 DUP7 ADD PUSH2 0x1076 JUMP JUMPDEST SWAP3 POP POP PUSH1 0x20 PUSH2 0x1103 DUP6 DUP3 DUP7 ADD PUSH2 0x1076 JUMP JUMPDEST SWAP2 POP POP SWAP3 POP SWAP3 SWAP1 POP JUMP JUMPDEST PUSH1 0x0 DUP1 PUSH1 0x0 PUSH1 0x60 DUP5 DUP7 SUB SLT ISZERO PUSH2 0x1126 JUMPI PUSH2 0x1125 PUSH2 0x1718 JUMP JUMPDEST JUMPDEST PUSH1 0x0 PUSH2 0x1134 DUP7 DUP3 DUP8 ADD PUSH2 0x1076 JUMP JUMPDEST SWAP4 POP POP PUSH1 0x20 PUSH2 0x1145 DUP7 DUP3 DUP8 ADD PUSH2 0x1076 JUMP JUMPDEST SWAP3 POP POP PUSH1 0x40 PUSH2 0x1156 DUP7 DUP3 DUP8 ADD PUSH2 0x108B JUMP JUMPDEST SWAP2 POP POP SWAP3 POP SWAP3 POP SWAP3 JUMP JUMPDEST PUSH1 0x0 DUP1 PUSH1 0x40 DUP4 DUP6 SUB SLT ISZERO PUSH2 0x1177 JUMPI PUSH2 0x1176 PUSH2 0x1718 JUMP JUMPDEST JUMPDEST PUSH1 0x0 PUSH2 0x1185 DUP6 DUP3 DUP7 ADD PUSH2 0x1076 JUMP JUMPDEST SWAP3 POP POP PUSH1 0x20 PUSH2 0x1196 DUP6 DUP3 DUP7 ADD PUSH2 0x108B JUMP JUMPDEST SWAP2 POP POP SWAP3 POP SWAP3 SWAP1 POP JUMP JUMPDEST PUSH2 0x11A9 DUP2 PUSH2 0x1612 JUMP JUMPDEST DUP3 MSTORE POP POP JUMP JUMPDEST PUSH1 0x0 PUSH2 0x11BA DUP3 PUSH2 0x155A JUMP JUMPDEST PUSH2 0x11C4 DUP2 DUP6 PUSH2 0x1565 JUMP JUMPDEST SWAP4 POP PUSH2 0x11D4 DUP2 DUP6 PUSH1 0x20 DUP7 ADD PUSH2 0x1655 JUMP JUMPDEST PUSH2 0x11DD DUP2 PUSH2 0x171D JUMP JUMPDEST DUP5 ADD SWAP2 POP POP SWAP3 SWAP2 POP POP JUMP JUMPDEST PUSH1 0x0 PUSH2 0x11F5 PUSH1 0x23 DUP4 PUSH2 0x1565 JUMP JUMPDEST SWAP2 POP PUSH2 0x1200 DUP3 PUSH2 0x172E JUMP JUMPDEST PUSH1 0x40 DUP3 ADD SWAP1 POP SWAP2 SWAP1 POP JUMP JUMPDEST PUSH1 0x0 PUSH2 0x1218 PUSH1 0x22 DUP4 PUSH2 0x1565 JUMP JUMPDEST SWAP2 POP PUSH2 0x1223 DUP3 PUSH2 0x177D JUMP JUMPDEST PUSH1 0x40 DUP3 ADD SWAP1 POP SWAP2 SWAP1 POP JUMP JUMPDEST PUSH1 0x0 PUSH2 0x123B PUSH1 0x22 DUP4 PUSH2 0x1565 JUMP JUMPDEST SWAP2 POP PUSH2 0x1246 DUP3 PUSH2 0x17CC JUMP JUMPDEST PUSH1 0x40 DUP3 ADD SWAP1 POP SWAP2 SWAP1 POP JUMP JUMPDEST PUSH1 0x0 PUSH2 0x125E PUSH1 0x15 DUP4 PUSH2 0x1565 JUMP JUMPDEST SWAP2 POP PUSH2 0x1269 DUP3 PUSH2 0x181B JUMP JUMPDEST PUSH1 0x20 DUP3 ADD SWAP1 POP SWAP2 SWAP1 POP JUMP JUMPDEST PUSH1 0x0 PUSH2 0x1281 PUSH1 0x26 DUP4 PUSH2 0x1565 JUMP JUMPDEST SWAP2 POP PUSH2 0x128C DUP3 PUSH2 0x1844 JUMP JUMPDEST PUSH1 0x40 DUP3 ADD SWAP1 POP SWAP2 SWAP1 POP JUMP JUMPDEST PUSH1 0x0 PUSH2 0x12A4 PUSH1 0x28 DUP4 PUSH2 0x1565 JUMP JUMPDEST SWAP2 POP PUSH2 0x12AF DUP3 PUSH2 0x1893 JUMP JUMPDEST PUSH1 0x40 DUP3 ADD SWAP1 POP SWAP2 SWAP1 POP JUMP JUMPDEST PUSH1 0x0 PUSH2 0x12C7 PUSH1 0x21 DUP4 PUSH2 0x1565 JUMP JUMPDEST SWAP2 POP PUSH2 0x12D2 DUP3 PUSH2 0x18E2 JUMP JUMPDEST PUSH1 0x40 DUP3 ADD SWAP1 POP SWAP2 SWAP1 POP JUMP JUMPDEST PUSH1 0x0 PUSH2 0x12EA PUSH1 0x25 DUP4 PUSH2 0x1565 JUMP JUMPDEST SWAP2 POP PUSH2 0x12F5 DUP3 PUSH2 0x1931 JUMP JUMPDEST PUSH1 0x40 DUP3 ADD SWAP1 POP SWAP2 SWAP1 POP JUMP JUMPDEST PUSH1 0x0 PUSH2 0x130D PUSH1 0x24 DUP4 PUSH2 0x1565 JUMP JUMPDEST SWAP2 POP PUSH2 0x1318 DUP3 PUSH2 0x1980 JUMP JUMPDEST PUSH1 0x40 DUP3 ADD SWAP1 POP SWAP2 SWAP1 POP JUMP JUMPDEST PUSH1 0x0 PUSH2 0x1330 PUSH1 0x25 DUP4 PUSH2 0x1565 JUMP JUMPDEST SWAP2 POP PUSH2 0x133B DUP3 PUSH2 0x19CF JUMP JUMPDEST PUSH1 0x40 DUP3 ADD SWAP1 POP SWAP2 SWAP1 POP JUMP JUMPDEST PUSH1 0x0 PUSH2 0x1353 PUSH1 0x1F DUP4 PUSH2 0x1565 JUMP JUMPDEST SWAP2 POP PUSH2 0x135E DUP3 PUSH2 0x1A1E JUMP JUMPDEST PUSH1 0x20 DUP3 ADD SWAP1 POP SWAP2 SWAP1 POP JUMP JUMPDEST PUSH2 0x1372 DUP2 PUSH2 0x163E JUMP JUMPDEST DUP3 MSTORE POP POP JUMP JUMPDEST PUSH2 0x1381 DUP2 PUSH2 0x1648 JUMP JUMPDEST DUP3 MSTORE POP POP JUMP JUMPDEST PUSH1 0x0 PUSH1 0x20 DUP3 ADD SWAP1 POP PUSH2 0x139C PUSH1 0x0 DUP4 ADD DUP5 PUSH2 0x11A0 JUMP JUMPDEST SWAP3 SWAP2 POP POP JUMP JUMPDEST PUSH1 0x0 PUSH1 0x20 DUP3 ADD SWAP1 POP DUP2 DUP2 SUB PUSH1 0x0 DUP4 ADD MSTORE PUSH2 0x13BC DUP2 DUP5 PUSH2 0x11AF JUMP JUMPDEST SWAP1 POP SWAP3 SWAP2 POP POP JUMP JUMPDEST PUSH1 0x0 PUSH1 0x20 DUP3 ADD SWAP1 POP DUP2 DUP2 SUB PUSH1 0x0 DUP4 ADD MSTORE PUSH2 0x13DD DUP2 PUSH2 0x11E8 JUMP JUMPDEST SWAP1 POP SWAP2 SWAP1 POP JUMP JUMPDEST PUSH1 0x0 PUSH1 0x20 DUP3 ADD SWAP1 POP DUP2 DUP2 SUB PUSH1 0x0 DUP4 ADD MSTORE PUSH2 0x13FD DUP2 PUSH2 0x120B JUMP JUMPDEST SWAP1 POP SWAP2 SWAP1 POP JUMP JUMPDEST PUSH1 0x0 PUSH1 0x20 DUP3 ADD SWAP1 POP DUP2 DUP2 SUB PUSH1 0x0 DUP4 ADD MSTORE PUSH2 0x141D DUP2 PUSH2 0x122E JUMP JUMPDEST SWAP1 POP SWAP2 SWAP1 POP JUMP JUMPDEST PUSH1 0x0 PUSH1 0x20 DUP3 ADD SWAP1 POP DUP2 DUP2 SUB PUSH1 0x0 DUP4 ADD MSTORE PUSH2 0x143D DUP2 PUSH2 0x1251 JUMP JUMPDEST SWAP1 POP SWAP2 SWAP1 POP JUMP JUMPDEST PUSH1 0x0 PUSH1 0x20 DUP3 ADD SWAP1 POP DUP2 DUP2 SUB PUSH1 0x0 DUP4 ADD MSTORE PUSH2 0x145D DUP2 PUSH2 0x1274 JUMP JUMPDEST SWAP1 POP SWAP2 SWAP1 POP JUMP JUMPDEST PUSH1 0x0 PUSH1 0x20 DUP3 ADD SWAP1 POP DUP2 DUP2 SUB PUSH1 0x0 DUP4 ADD MSTORE PUSH2 0x147D DUP2 PUSH2 0x1297 JUMP JUMPDEST SWAP1 POP SWAP2 SWAP1 POP JUMP JUMPDEST PUSH1 0x0 PUSH1 0x20 DUP3 ADD SWAP1 POP DUP2 DUP2 SUB PUSH1 0x0 DUP4 ADD MSTORE PUSH2 0x149D DUP2 PUSH2 0x12BA JUMP JUMPDEST SWAP1 POP SWAP2 SWAP1 POP JUMP JUMPDEST PUSH1 0x0 PUSH1 0x20 DUP3 ADD SWAP1 POP DUP2 DUP2 SUB PUSH1 0x0 DUP4 ADD MSTORE PUSH2 0x14BD DUP2 PUSH2 0x12DD JUMP JUMPDEST SWAP1 POP SWAP2 SWAP1 POP JUMP JUMPDEST PUSH1 0x0 PUSH1 0x20 DUP3 ADD SWAP1 POP DUP2 DUP2 SUB PUSH1 0x0 DUP4 ADD MSTORE PUSH2 0x14DD DUP2 PUSH2 0x1300 JUMP JUMPDEST SWAP1 POP SWAP2 SWAP1 POP JUMP JUMPDEST PUSH1 0x0 PUSH1 0x20 DUP3 ADD SWAP1 POP DUP2 DUP2 SUB PUSH1 0x0 DUP4 ADD MSTORE PUSH2 0x14FD DUP2 PUSH2 0x1323 JUMP JUMPDEST SWAP1 POP SWAP2 SWAP1 POP JUMP JUMPDEST PUSH1 0x0 PUSH1 0x20 DUP3 ADD SWAP1 POP DUP2 DUP2 SUB PUSH1 0x0 DUP4 ADD MSTORE PUSH2 0x151D DUP2 PUSH2 0x1346 JUMP JUMPDEST SWAP1 POP SWAP2 SWAP1 POP JUMP JUMPDEST PUSH1 0x0 PUSH1 0x20 DUP3 ADD SWAP1 POP PUSH2 0x1539 PUSH1 0x0 DUP4 ADD DUP5 PUSH2 0x1369 JUMP JUMPDEST SWAP3 SWAP2 POP POP JUMP JUMPDEST PUSH1 0x0 PUSH1 0x20 DUP3 ADD SWAP1 POP PUSH2 0x1554 PUSH1 0x0 DUP4 ADD DUP5 PUSH2 0x1378 JUMP JUMPDEST SWAP3 SWAP2 POP POP JUMP JUMPDEST PUSH1 0x0 DUP2 MLOAD SWAP1 POP SWAP2 SWAP1 POP JUMP JUMPDEST PUSH1 0x0 DUP3 DUP3 MSTORE PUSH1 0x20 DUP3 ADD SWAP1 POP SWAP3 SWAP2 POP POP JUMP JUMPDEST PUSH1 0x0 PUSH2 0x1581 DUP3 PUSH2 0x163E JUMP JUMPDEST SWAP2 POP PUSH2 0x158C DUP4 PUSH2 0x163E JUMP JUMPDEST SWAP3 POP DUP3 PUSH32 0xFFFFFFFFFFFFFFFFFFFFFFFFFFFFFFFFFFFFFFFFFFFFFFFFFFFFFFFFFFFFFFFF SUB DUP3 GT ISZERO PUSH2 0x15C1 JUMPI PUSH2 0x15C0 PUSH2 0x16BA JUMP JUMPDEST JUMPDEST DUP3 DUP3 ADD SWAP1 POP SWAP3 SWAP2 POP POP JUMP JUMPDEST PUSH1 0x0 PUSH2 0x15D7 DUP3 PUSH2 0x163E JUMP JUMPDEST SWAP2 POP PUSH2 0x15E2 DUP4 PUSH2 0x163E JUMP JUMPDEST SWAP3 POP DUP3 DUP3 LT ISZERO PUSH2 0x15F5 JUMPI PUSH2 0x15F4 PUSH2 0x16BA JUMP JUMPDEST JUMPDEST DUP3 DUP3 SUB SWAP1 POP SWAP3 SWAP2 POP POP JUMP JUMPDEST PUSH1 0x0 PUSH2 0x160B DUP3 PUSH2 0x161E JUMP JUMPDEST SWAP1 POP SWAP2 SWAP1 POP JUMP JUMPDEST PUSH1 0x0 DUP2 ISZERO ISZERO SWAP1 POP SWAP2 SWAP1 POP JUMP JUMPDEST PUSH1 0x0 PUSH20 0xFFFFFFFFFFFFFFFFFFFFFFFFFFFFFFFFFFFFFFFF DUP3 AND SWAP1 POP SWAP2 SWAP1 POP JUMP JUMPDEST PUSH1 0x0 DUP2 SWAP1 POP SWAP2 SWAP1 POP JUMP JUMPDEST PUSH1 0x0 PUSH1 0xFF DUP3 AND SWAP1 POP SWAP2 SWAP1 POP JUMP JUMPDEST PUSH1 0x0 JUMPDEST DUP4 DUP2 LT ISZERO PUSH2 0x1673 JUMPI DUP1 DUP3 ADD MLOAD DUP2 DUP5 ADD MSTORE PUSH1 0x20 DUP2 ADD SWAP1 POP PUSH2 0x1658 JUMP JUMPDEST DUP4 DUP2 GT ISZERO PUSH2 0x1682 JUMPI PUSH1 0x0 DUP5 DUP5 ADD MSTORE JUMPDEST POP POP POP POP JUMP JUMPDEST PUSH1 0x0 PUSH1 0x2 DUP3 DIV SWAP1 POP PUSH1 0x1 DUP3 AND DUP1 PUSH2 0x16A0 JUMPI PUSH1 0x7F DUP3 AND SWAP2 POP JUMPDEST PUSH1 0x20 DUP3 LT DUP2 EQ ISZERO PUSH2 0x16B4 JUMPI PUSH2 0x16B3 PUSH2 0x16E9 JUMP JUMPDEST JUMPDEST POP SWAP2 SWAP1 POP JUMP JUMPDEST PUSH32 0x4E487B7100000000000000000000000000000000000000000000000000000000 PUSH1 0x0 MSTORE PUSH1 0x11 PUSH1 0x4 MSTORE PUSH1 0x24 PUSH1 0x0 REVERT JUMPDEST PUSH32 0x4E487B7100000000000000000000000000000000000000000000000000000000 PUSH1 0x0 MSTORE PUSH1 0x22 PUSH1 0x4 MSTORE PUSH1 0x24 PUSH1 0x0 REVERT JUMPDEST PUSH1 0x0 DUP1 REVERT JUMPDEST PUSH1 0x0 PUSH1 0x1F NOT PUSH1 0x1F DUP4 ADD AND SWAP1 POP SWAP2 SWAP1 POP JUMP JUMPDEST PUSH32 0x45524332303A207472616E7366657220746F20746865207A65726F2061646472 PUSH1 0x0 DUP3 ADD MSTORE PUSH32 0x6573730000000000000000000000000000000000000000000000000000000000 PUSH1 0x20 DUP3 ADD MSTORE POP JUMP JUMPDEST PUSH32 0x45524332303A206275726E20616D6F756E7420657863656564732062616C616E PUSH1 0x0 DUP3 ADD MSTORE PUSH32 0x6365000000000000000000000000000000000000000000000000000000000000 PUSH1 0x20 DUP3 ADD MSTORE POP JUMP JUMPDEST PUSH32 0x45524332303A20617070726F766520746F20746865207A65726F206164647265 PUSH1 0x0 DUP3 ADD MSTORE PUSH32 0x7373000000000000000000000000000000000000000000000000000000000000 PUSH1 0x20 DUP3 ADD MSTORE POP JUMP JUMPDEST PUSH32 0x4E6F7420417070726F76656420746F20646F20736F0000000000000000000000 PUSH1 0x0 DUP3 ADD MSTORE POP JUMP JUMPDEST PUSH32 0x45524332303A207472616E7366657220616D6F756E7420657863656564732062 PUSH1 0x0 DUP3 ADD MSTORE PUSH32 0x616C616E63650000000000000000000000000000000000000000000000000000 PUSH1 0x20 DUP3 ADD MSTORE POP JUMP JUMPDEST PUSH32 0x45524332303A207472616E7366657220616D6F756E7420657863656564732061 PUSH1 0x0 DUP3 ADD MSTORE PUSH32 0x6C6C6F77616E6365000000000000000000000000000000000000000000000000 PUSH1 0x20 DUP3 ADD MSTORE POP JUMP JUMPDEST PUSH32 0x45524332303A206275726E2066726F6D20746865207A65726F20616464726573 PUSH1 0x0 DUP3 ADD MSTORE PUSH32 0x7300000000000000000000000000000000000000000000000000000000000000 PUSH1 0x20 DUP3 ADD MSTORE POP JUMP JUMPDEST PUSH32 0x45524332303A207472616E736665722066726F6D20746865207A65726F206164 PUSH1 0x0 DUP3 ADD MSTORE PUSH32 0x6472657373000000000000000000000000000000000000000000000000000000 PUSH1 0x20 DUP3 ADD MSTORE POP JUMP JUMPDEST PUSH32 0x45524332303A20617070726F76652066726F6D20746865207A65726F20616464 PUSH1 0x0 DUP3 ADD MSTORE PUSH32 0x7265737300000000000000000000000000000000000000000000000000000000 PUSH1 0x20 DUP3 ADD MSTORE POP JUMP JUMPDEST PUSH32 0x45524332303A2064656372656173656420616C6C6F77616E63652062656C6F77 PUSH1 0x0 DUP3 ADD MSTORE PUSH32 0x207A65726F000000000000000000000000000000000000000000000000000000 PUSH1 0x20 DUP3 ADD MSTORE POP JUMP JUMPDEST PUSH32 0x45524332303A206D696E7420746F20746865207A65726F206164647265737300 PUSH1 0x0 DUP3 ADD MSTORE POP JUMP JUMPDEST PUSH2 0x1A50 DUP2 PUSH2 0x1600 JUMP JUMPDEST DUP2 EQ PUSH2 0x1A5B JUMPI PUSH1 0x0 DUP1 REVERT JUMPDEST POP JUMP JUMPDEST PUSH2 0x1A67 DUP2 PUSH2 0x163E JUMP JUMPDEST DUP2 EQ PUSH2 0x1A72 JUMPI PUSH1 0x0 DUP1 REVERT JUMPDEST POP JUMP INVALID LOG2 PUSH5 0x6970667358 0x22 SLT KECCAK256 PUSH2 0xA54D 0xB7 0x4E SDIV 0xC SMOD PUSH15 0x47C159E467025BC808ACA8FBB46F73 0xAB 0x26 PUSH27 0xDA63ED290E64736F6C634300080700330000000000000000000000 "
				},
				"gasEstimates": {
					"creation": {
						"codeDepositCost": "1365400",
						"executionCost": "infinite",
						"totalCost": "infinite"
					},
					"external": {
						"allowance(address,address)": "infinite",
						"approve(address,uint256)": "infinite",
						"balanceOf(address)": "2886",
						"burn(address,uint256)": "infinite",
						"decimals()": "432",
						"decreaseAllowance(address,uint256)": "infinite",
						"increaseAllowance(address,uint256)": "infinite",
						"mint(address,uint256)": "infinite",
						"name()": "infinite",
						"symbol()": "infinite",
						"totalSupply()": "2482",
						"transfer(address,uint256)": "infinite",
						"transferFrom(address,address,uint256)": "infinite"
					},
					"internal": {
						"_afterTokenTransfer(address,address,uint256)": "15",
						"_approve(address,address,uint256)": "infinite",
						"_beforeTokenTransfer(address,address,uint256)": "15",
						"_burn(address,uint256)": "infinite",
						"_mint(address,uint256)": "infinite",
						"_setApprovedTokenTransferor(address)": "infinite",
						"_transfer(address,address,uint256)": "infinite"
					}
				},
				"methodIdentifiers": {
					"allowance(address,address)": "dd62ed3e",
					"approve(address,uint256)": "095ea7b3",
					"balanceOf(address)": "70a08231",
					"burn(address,uint256)": "9dc29fac",
					"decimals()": "313ce567",
					"decreaseAllowance(address,uint256)": "a457c2d7",
					"increaseAllowance(address,uint256)": "39509351",
					"mint(address,uint256)": "40c10f19",
					"name()": "06fdde03",
					"symbol()": "95d89b41",
					"totalSupply()": "18160ddd",
					"transfer(address,uint256)": "a9059cbb",
					"transferFrom(address,address,uint256)": "23b872dd"
				}
			},
			"storageLayout": {
				"storage": [
					{
						"astId": 197,
						"contract": "w-ERC20.sol:ERC20",
						"label": "_balances",
						"offset": 0,
						"slot": "0",
						"type": "t_mapping(t_address,t_uint256)"
					},
					{
						"astId": 203,
						"contract": "w-ERC20.sol:ERC20",
						"label": "_allowances",
						"offset": 0,
						"slot": "1",
						"type": "t_mapping(t_address,t_mapping(t_address,t_uint256))"
					},
					{
						"astId": 205,
						"contract": "w-ERC20.sol:ERC20",
						"label": "_totalSupply",
						"offset": 0,
						"slot": "2",
						"type": "t_uint256"
					},
					{
						"astId": 207,
						"contract": "w-ERC20.sol:ERC20",
						"label": "_name",
						"offset": 0,
						"slot": "3",
						"type": "t_string_storage"
					},
					{
						"astId": 209,
						"contract": "w-ERC20.sol:ERC20",
						"label": "_symbol",
						"offset": 0,
						"slot": "4",
						"type": "t_string_storage"
					},
					{
						"astId": 211,
						"contract": "w-ERC20.sol:ERC20",
						"label": "approvedTransferor",
						"offset": 0,
						"slot": "5",
						"type": "t_address"
					}
				],
				"types": {
					"t_address": {
						"encoding": "inplace",
						"label": "address",
						"numberOfBytes": "20"
					},
					"t_mapping(t_address,t_mapping(t_address,t_uint256))": {
						"encoding": "mapping",
						"key": "t_address",
						"label": "mapping(address => mapping(address => uint256))",
						"numberOfBytes": "32",
						"value": "t_mapping(t_address,t_uint256)"
					},
					"t_mapping(t_address,t_uint256)": {
						"encoding": "mapping",
						"key": "t_address",
						"label": "mapping(address => uint256)",
						"numberOfBytes": "32",
						"value": "t_uint256"
					},
					"t_string_storage": {
						"encoding": "bytes",
						"label": "string",
						"numberOfBytes": "32"
					},
					"t_uint256": {
						"encoding": "inplace",
						"label": "uint256",
						"numberOfBytes": "32"
					}
				}
			},
			"userdoc": {
				"kind": "user",
				"methods": {},
				"version": 1
			}
		}
	}
}