{
	"Scepter.sol": {
		"Scepter": {
			"abi": [
				{
					"inputs": [],
					"stateMutability": "nonpayable",
					"type": "constructor"
				},
				{
					"anonymous": false,
					"inputs": [
						{
							"indexed": true,
							"internalType": "address",
							"name": "owner",
							"type": "address"
						},
						{
							"indexed": true,
							"internalType": "address",
							"name": "spender",
							"type": "address"
						},
						{
							"indexed": false,
							"internalType": "uint256",
							"name": "value",
							"type": "uint256"
						}
					],
					"name": "Approval",
					"type": "event"
				},
				{
					"anonymous": false,
					"inputs": [
						{
							"indexed": true,
							"internalType": "address",
							"name": "previousOwner",
							"type": "address"
						},
						{
							"indexed": true,
							"internalType": "address",
							"name": "newOwner",
							"type": "address"
						}
					],
					"name": "OwnershipTransferred",
					"type": "event"
				},
				{
					"anonymous": false,
					"inputs": [
						{
							"indexed": true,
							"internalType": "address",
							"name": "from",
							"type": "address"
						},
						{
							"indexed": true,
							"internalType": "address",
							"name": "to",
							"type": "address"
						},
						{
							"indexed": false,
							"internalType": "uint256",
							"name": "value",
							"type": "uint256"
						}
					],
					"name": "Transfer",
					"type": "event"
				},
				{
					"inputs": [
						{
							"internalType": "address",
							"name": "controller",
							"type": "address"
						}
					],
					"name": "addController",
					"outputs": [],
					"stateMutability": "nonpayable",
					"type": "function"
				},
				{
					"inputs": [
						{
							"internalType": "address",
							"name": "owner",
							"type": "address"
						},
						{
							"internalType": "address",
							"name": "spender",
							"type": "address"
						}
					],
					"name": "allowance",
					"outputs": [
						{
							"internalType": "uint256",
							"name": "",
							"type": "uint256"
						}
					],
					"stateMutability": "view",
					"type": "function"
				},
				{
					"inputs": [
						{
							"internalType": "address",
							"name": "spender",
							"type": "address"
						},
						{
							"internalType": "uint256",
							"name": "amount",
							"type": "uint256"
						}
					],
					"name": "approve",
					"outputs": [
						{
							"internalType": "bool",
							"name": "",
							"type": "bool"
						}
					],
					"stateMutability": "nonpayable",
					"type": "function"
				},
				{
					"inputs": [
						{
							"internalType": "address",
							"name": "account",
							"type": "address"
						}
					],
					"name": "balanceOf",
					"outputs": [
						{
							"internalType": "uint256",
							"name": "",
							"type": "uint256"
						}
					],
					"stateMutability": "view",
					"type": "function"
				},
				{
					"inputs": [
						{
							"internalType": "address",
							"name": "from",
							"type": "address"
						},
						{
							"internalType": "uint256",
							"name": "amount",
							"type": "uint256"
						}
					],
					"name": "burn",
					"outputs": [],
					"stateMutability": "nonpayable",
					"type": "function"
				},
				{
					"inputs": [],
					"name": "decimals",
					"outputs": [
						{
							"internalType": "uint8",
							"name": "",
							"type": "uint8"
						}
					],
					"stateMutability": "view",
					"type": "function"
				},
				{
					"inputs": [
						{
							"internalType": "address",
							"name": "spender",
							"type": "address"
						},
						{
							"internalType": "uint256",
							"name": "subtractedValue",
							"type": "uint256"
						}
					],
					"name": "decreaseAllowance",
					"outputs": [
						{
							"internalType": "bool",
							"name": "",
							"type": "bool"
						}
					],
					"stateMutability": "nonpayable",
					"type": "function"
				},
				{
					"inputs": [
						{
							"internalType": "address",
							"name": "spender",
							"type": "address"
						},
						{
							"internalType": "uint256",
							"name": "addedValue",
							"type": "uint256"
						}
					],
					"name": "increaseAllowance",
					"outputs": [
						{
							"internalType": "bool",
							"name": "",
							"type": "bool"
						}
					],
					"stateMutability": "nonpayable",
					"type": "function"
				},
				{
					"inputs": [
						{
							"internalType": "address",
							"name": "to",
							"type": "address"
						},
						{
							"internalType": "uint256",
							"name": "amount",
							"type": "uint256"
						}
					],
					"name": "mint",
					"outputs": [],
					"stateMutability": "nonpayable",
					"type": "function"
				},
				{
					"inputs": [],
					"name": "name",
					"outputs": [
						{
							"internalType": "string",
							"name": "",
							"type": "string"
						}
					],
					"stateMutability": "view",
					"type": "function"
				},
				{
					"inputs": [],
					"name": "owner",
					"outputs": [
						{
							"internalType": "address",
							"name": "",
							"type": "address"
						}
					],
					"stateMutability": "view",
					"type": "function"
				},
				{
					"inputs": [
						{
							"internalType": "address",
							"name": "controller",
							"type": "address"
						}
					],
					"name": "removeController",
					"outputs": [],
					"stateMutability": "nonpayable",
					"type": "function"
				},
				{
					"inputs": [],
					"name": "renounceOwnership",
					"outputs": [],
					"stateMutability": "nonpayable",
					"type": "function"
				},
				{
					"inputs": [],
					"name": "symbol",
					"outputs": [
						{
							"internalType": "string",
							"name": "",
							"type": "string"
						}
					],
					"stateMutability": "view",
					"type": "function"
				},
				{
					"inputs": [],
					"name": "totalSupply",
					"outputs": [
						{
							"internalType": "uint256",
							"name": "",
							"type": "uint256"
						}
					],
					"stateMutability": "view",
					"type": "function"
				},
				{
					"inputs": [
						{
							"internalType": "address",
							"name": "recipient",
							"type": "address"
						},
						{
							"internalType": "uint256",
							"name": "amount",
							"type": "uint256"
						}
					],
					"name": "transfer",
					"outputs": [
						{
							"internalType": "bool",
							"name": "",
							"type": "bool"
						}
					],
					"stateMutability": "nonpayable",
					"type": "function"
				},
				{
					"inputs": [
						{
							"internalType": "address",
							"name": "sender",
							"type": "address"
						},
						{
							"internalType": "address",
							"name": "recipient",
							"type": "address"
						},
						{
							"internalType": "uint256",
							"name": "amount",
							"type": "uint256"
						}
					],
					"name": "transferFrom",
					"outputs": [
						{
							"internalType": "bool",
							"name": "",
							"type": "bool"
						}
					],
					"stateMutability": "nonpayable",
					"type": "function"
				},
				{
					"inputs": [
						{
							"internalType": "address",
							"name": "newOwner",
							"type": "address"
						}
					],
					"name": "transferOwnership",
					"outputs": [],
					"stateMutability": "nonpayable",
					"type": "function"
				}
			],
			"devdoc": {
				"kind": "dev",
				"methods": {
					"addController(address)": {
						"params": {
							"controller": "the address to enable"
						}
					},
					"allowance(address,address)": {
						"details": "See {IERC20-allowance}."
					},
					"approve(address,uint256)": {
						"details": "See {IERC20-approve}. Requirements: - `spender` cannot be the zero address."
					},
					"balanceOf(address)": {
						"details": "See {IERC20-balanceOf}."
					},
					"burn(address,uint256)": {
						"details": "See {IERC20-burn}."
					},
					"decimals()": {
						"details": "Returns the number of decimals used to get its user representation. For example, if `decimals` equals `2`, a balance of `505` tokens should be displayed to a user as `5.05` (`505 / 10 ** 2`). Tokens usually opt for a value of 18, imitating the relationship between Ether and Wei. This is the value {ERC20} uses, unless this function is overridden; NOTE: This information is only used for _display_ purposes: it in no way affects any of the arithmetic of the contract, including {IERC20-balanceOf} and {IERC20-transfer}."
					},
					"decreaseAllowance(address,uint256)": {
						"details": "Atomically decreases the allowance granted to `spender` by the caller. This is an alternative to {approve} that can be used as a mitigation for problems described in {IERC20-approve}. Emits an {Approval} event indicating the updated allowance. Requirements: - `spender` cannot be the zero address. - `spender` must have allowance for the caller of at least `subtractedValue`."
					},
					"increaseAllowance(address,uint256)": {
						"details": "Atomically increases the allowance granted to `spender` by the caller. This is an alternative to {approve} that can be used as a mitigation for problems described in {IERC20-approve}. Emits an {Approval} event indicating the updated allowance. Requirements: - `spender` cannot be the zero address."
					},
					"mint(address,uint256)": {
						"details": "See {IERC20-mint}."
					},
					"name()": {
						"details": "Returns the name of the token."
					},
					"owner()": {
						"details": "Returns the address of the current owner."
					},
					"removeController(address)": {
						"params": {
							"controller": "the address to disbale"
						}
					},
					"renounceOwnership()": {
						"details": "Leaves the contract without owner. It will not be possible to call `onlyOwner` functions anymore. Can only be called by the current owner. NOTE: Renouncing ownership will leave the contract without an owner, thereby removing any functionality that is only available to the owner."
					},
					"symbol()": {
						"details": "Returns the symbol of the token, usually a shorter version of the name."
					},
					"totalSupply()": {
						"details": "See {IERC20-totalSupply}."
					},
					"transfer(address,uint256)": {
						"details": "See {IERC20-transfer}. Requirements: - `recipient` cannot be the zero address. - the caller must have a balance of at least `amount`."
					},
					"transferFrom(address,address,uint256)": {
						"details": "See {IERC20-transferFrom}. Emits an {Approval} event indicating the updated allowance. This is not required by the EIP. See the note at the beginning of {ERC20}. Requirements: - `sender` and `recipient` cannot be the zero address. - `sender` must have a balance of at least `amount`. - the caller must have allowance for ``sender``'s tokens of at least `amount`."
					},
					"transferOwnership(address)": {
						"details": "Transfers ownership of the contract to a new account (`newOwner`). Can only be called by the current owner."
					}
				},
				"version": 1
			},
			"evm": {
				"assembly": "    /* \"Scepter.sol\":120:1586  contract Scepter is ERC20, Ownable {\r... */\n  mstore(0x40, 0x80)\n    /* \"Scepter.sol\":282:344  constructor() ERC20(\"Wand-Scepter\", \"SPTR\") {\r... */\n  callvalue\n  dup1\n  iszero\n  tag_1\n  jumpi\n  0x00\n  dup1\n  revert\ntag_1:\n  pop\n    /* \"w-ERC20.sol\":1988:2110  constructor(string memory name_, string memory symbol_) {... */\n  mload(0x40)\n  dup1\n  0x40\n  add\n  0x40\n  mstore\n  dup1\n  0x0c\n  dup2\n  mstore\n  0x20\n  add\n  0x57616e642d536365707465720000000000000000000000000000000000000000\n  dup2\n  mstore\n  pop\n  mload(0x40)\n  dup1\n  0x40\n  add\n  0x40\n  mstore\n  dup1\n  0x04\n  dup2\n  mstore\n  0x20\n  add\n  0x5350545200000000000000000000000000000000000000000000000000000000\n  dup2\n  mstore\n  pop\n    /* \"w-ERC20.sol\":2062:2067  name_ */\n  dup2\n    /* \"w-ERC20.sol\":2054:2059  _name */\n  0x03\n    /* \"w-ERC20.sol\":2054:2067  _name = name_ */\n  swap1\n  dup1\n  mload\n  swap1\n  0x20\n  add\n  swap1\n  tag_6\n  swap3\n  swap2\n  swap1\n  tag_7\n  jump\t// in\ntag_6:\n  pop\n    /* \"w-ERC20.sol\":2087:2094  symbol_ */\n  dup1\n    /* \"w-ERC20.sol\":2077:2084  _symbol */\n  0x04\n    /* \"w-ERC20.sol\":2077:2094  _symbol = symbol_ */\n  swap1\n  dup1\n  mload\n  swap1\n  0x20\n  add\n  swap1\n  tag_8\n  swap3\n  swap2\n  swap1\n  tag_7\n  jump\t// in\ntag_8:\n  pop\n    /* \"w-ERC20.sol\":1988:2110  constructor(string memory name_, string memory symbol_) {... */\n  pop\n  pop\n    /* \"Ownable.sol\":914:946  _transferOwnership(_msgSender()) */\n  tag_10\n    /* \"Ownable.sol\":933:945  _msgSender() */\n  tag_11\n    /* \"Ownable.sol\":933:943  _msgSender */\n  shl(0x20, tag_12)\n    /* \"Ownable.sol\":933:945  _msgSender() */\n  0x20\n  shr\n  jump\t// in\ntag_11:\n    /* \"Ownable.sol\":914:932  _transferOwnership */\n  shl(0x20, tag_13)\n    /* \"Ownable.sol\":914:946  _transferOwnership(_msgSender()) */\n  0x20\n  shr\n  jump\t// in\ntag_10:\n    /* \"Scepter.sol\":120:1586  contract Scepter is ERC20, Ownable {\r... */\n  jump(tag_15)\n    /* \"Context.sol\":640:736  function _msgSender() internal view virtual returns (address) {... */\ntag_12:\n    /* \"Context.sol\":693:700  address */\n  0x00\n    /* \"Context.sol\":719:729  msg.sender */\n  caller\n    /* \"Context.sol\":712:729  return msg.sender */\n  swap1\n  pop\n    /* \"Context.sol\":640:736  function _msgSender() internal view virtual returns (address) {... */\n  swap1\n  jump\t// out\n    /* \"Ownable.sol\":2263:2450  function _transferOwnership(address newOwner) internal virtual {... */\ntag_13:\n    /* \"Ownable.sol\":2336:2352  address oldOwner */\n  0x00\n    /* \"Ownable.sol\":2355:2361  _owner */\n  0x06\n  0x00\n  swap1\n  sload\n  swap1\n  0x0100\n  exp\n  swap1\n  div\n  0xffffffffffffffffffffffffffffffffffffffff\n  and\n    /* \"Ownable.sol\":2336:2361  address oldOwner = _owner */\n  swap1\n  pop\n    /* \"Ownable.sol\":2380:2388  newOwner */\n  dup2\n    /* \"Ownable.sol\":2371:2377  _owner */\n  0x06\n  0x00\n    /* \"Ownable.sol\":2371:2388  _owner = newOwner */\n  0x0100\n  exp\n  dup2\n  sload\n  dup2\n  0xffffffffffffffffffffffffffffffffffffffff\n  mul\n  not\n  and\n  swap1\n  dup4\n  0xffffffffffffffffffffffffffffffffffffffff\n  and\n  mul\n  or\n  swap1\n  sstore\n  pop\n    /* \"Ownable.sol\":2434:2442  newOwner */\n  dup2\n    /* \"Ownable.sol\":2403:2443  OwnershipTransferred(oldOwner, newOwner) */\n  0xffffffffffffffffffffffffffffffffffffffff\n  and\n    /* \"Ownable.sol\":2424:2432  oldOwner */\n  dup2\n    /* \"Ownable.sol\":2403:2443  OwnershipTransferred(oldOwner, newOwner) */\n  0xffffffffffffffffffffffffffffffffffffffff\n  and\n  0x8be0079c531659141344cd1fd0a4f28419497f9722a3daafe3b4186f6b6457e0\n  mload(0x40)\n  mload(0x40)\n  dup1\n  swap2\n  sub\n  swap1\n  log3\n    /* \"Ownable.sol\":2326:2450  {... */\n  pop\n    /* \"Ownable.sol\":2263:2450  function _transferOwnership(address newOwner) internal virtual {... */\n  pop\n  jump\t// out\n    /* \"Scepter.sol\":120:1586  contract Scepter is ERC20, Ownable {\r... */\ntag_7:\n  dup3\n  dup1\n  sload\n  tag_18\n  swap1\n  tag_19\n  jump\t// in\ntag_18:\n  swap1\n  0x00\n  mstore\n  keccak256(0x00, 0x20)\n  swap1\n  0x1f\n  add\n  0x20\n  swap1\n  div\n  dup2\n  add\n  swap3\n  dup3\n  tag_21\n  jumpi\n  0x00\n  dup6\n  sstore\n  jump(tag_20)\ntag_21:\n  dup3\n  0x1f\n  lt\n  tag_22\n  jumpi\n  dup1\n  mload\n  not(0xff)\n  and\n  dup4\n  dup1\n  add\n  or\n  dup6\n  sstore\n  jump(tag_20)\ntag_22:\n  dup3\n  dup1\n  add\n  0x01\n  add\n  dup6\n  sstore\n  dup3\n  iszero\n  tag_20\n  jumpi\n  swap2\n  dup3\n  add\ntag_23:\n  dup3\n  dup2\n  gt\n  iszero\n  tag_24\n  jumpi\n  dup3\n  mload\n  dup3\n  sstore\n  swap2\n  0x20\n  add\n  swap2\n  swap1\n  0x01\n  add\n  swap1\n  jump(tag_23)\ntag_24:\ntag_20:\n  pop\n  swap1\n  pop\n  tag_25\n  swap2\n  swap1\n  tag_26\n  jump\t// in\ntag_25:\n  pop\n  swap1\n  jump\t// out\ntag_26:\ntag_27:\n  dup1\n  dup3\n  gt\n  iszero\n  tag_28\n  jumpi\n  0x00\n  dup2\n  0x00\n  swap1\n  sstore\n  pop\n  0x01\n  add\n  jump(tag_27)\ntag_28:\n  pop\n  swap1\n  jump\t// out\n    /* \"#utility.yul\":7:327   */\ntag_19:\n    /* \"#utility.yul\":51:57   */\n  0x00\n    /* \"#utility.yul\":88:89   */\n  0x02\n    /* \"#utility.yul\":82:86   */\n  dup3\n    /* \"#utility.yul\":78:90   */\n  div\n    /* \"#utility.yul\":68:90   */\n  swap1\n  pop\n    /* \"#utility.yul\":135:136   */\n  0x01\n    /* \"#utility.yul\":129:133   */\n  dup3\n    /* \"#utility.yul\":125:137   */\n  and\n    /* \"#utility.yul\":156:174   */\n  dup1\n    /* \"#utility.yul\":146:227   */\n  tag_31\n  jumpi\n    /* \"#utility.yul\":212:216   */\n  0x7f\n    /* \"#utility.yul\":204:210   */\n  dup3\n    /* \"#utility.yul\":200:217   */\n  and\n    /* \"#utility.yul\":190:217   */\n  swap2\n  pop\n    /* \"#utility.yul\":146:227   */\ntag_31:\n    /* \"#utility.yul\":274:276   */\n  0x20\n    /* \"#utility.yul\":266:272   */\n  dup3\n    /* \"#utility.yul\":263:277   */\n  lt\n    /* \"#utility.yul\":243:261   */\n  dup2\n    /* \"#utility.yul\":240:278   */\n  eq\n    /* \"#utility.yul\":237:321   */\n  iszero\n  tag_32\n  jumpi\n    /* \"#utility.yul\":293:311   */\n  tag_33\n  tag_34\n  jump\t// in\ntag_33:\n    /* \"#utility.yul\":237:321   */\ntag_32:\n    /* \"#utility.yul\":58:327   */\n  pop\n    /* \"#utility.yul\":7:327   */\n  swap2\n  swap1\n  pop\n  jump\t// out\n    /* \"#utility.yul\":333:513   */\ntag_34:\n    /* \"#utility.yul\":381:458   */\n  0x4e487b7100000000000000000000000000000000000000000000000000000000\n    /* \"#utility.yul\":378:379   */\n  0x00\n    /* \"#utility.yul\":371:459   */\n  mstore\n    /* \"#utility.yul\":478:482   */\n  0x22\n    /* \"#utility.yul\":475:476   */\n  0x04\n    /* \"#utility.yul\":468:483   */\n  mstore\n    /* \"#utility.yul\":502:506   */\n  0x24\n    /* \"#utility.yul\":499:500   */\n  0x00\n    /* \"#utility.yul\":492:507   */\n  revert\n    /* \"Scepter.sol\":120:1586  contract Scepter is ERC20, Ownable {\r... */\ntag_15:\n  dataSize(sub_0)\n  dup1\n  dataOffset(sub_0)\n  0x00\n  codecopy\n  0x00\n  return\nstop\n\nsub_0: assembly {\n        /* \"Scepter.sol\":120:1586  contract Scepter is ERC20, Ownable {\r... */\n      mstore(0x40, 0x80)\n      callvalue\n      dup1\n      iszero\n      tag_1\n      jumpi\n      0x00\n      dup1\n      revert\n    tag_1:\n      pop\n      jumpi(tag_2, lt(calldatasize, 0x04))\n      shr(0xe0, calldataload(0x00))\n      dup1\n      0x8da5cb5b\n      gt\n      tag_21\n      jumpi\n      dup1\n      0xa7fc7a07\n      gt\n      tag_22\n      jumpi\n      dup1\n      0xa7fc7a07\n      eq\n      tag_16\n      jumpi\n      dup1\n      0xa9059cbb\n      eq\n      tag_17\n      jumpi\n      dup1\n      0xdd62ed3e\n      eq\n      tag_18\n      jumpi\n      dup1\n      0xf2fde38b\n      eq\n      tag_19\n      jumpi\n      dup1\n      0xf6a74ed7\n      eq\n      tag_20\n      jumpi\n      jump(tag_2)\n    tag_22:\n      dup1\n      0x8da5cb5b\n      eq\n      tag_12\n      jumpi\n      dup1\n      0x95d89b41\n      eq\n      tag_13\n      jumpi\n      dup1\n      0x9dc29fac\n      eq\n      tag_14\n      jumpi\n      dup1\n      0xa457c2d7\n      eq\n      tag_15\n      jumpi\n      jump(tag_2)\n    tag_21:\n      dup1\n      0x313ce567\n      gt\n      tag_23\n      jumpi\n      dup1\n      0x313ce567\n      eq\n      tag_7\n      jumpi\n      dup1\n      0x39509351\n      eq\n      tag_8\n      jumpi\n      dup1\n      0x40c10f19\n      eq\n      tag_9\n      jumpi\n      dup1\n      0x70a08231\n      eq\n      tag_10\n      jumpi\n      dup1\n      0x715018a6\n      eq\n      tag_11\n      jumpi\n      jump(tag_2)\n    tag_23:\n      dup1\n      0x06fdde03\n      eq\n      tag_3\n      jumpi\n      dup1\n      0x095ea7b3\n      eq\n      tag_4\n      jumpi\n      dup1\n      0x18160ddd\n      eq\n      tag_5\n      jumpi\n      dup1\n      0x23b872dd\n      eq\n      tag_6\n      jumpi\n    tag_2:\n      0x00\n      dup1\n      revert\n        /* \"w-ERC20.sol\":2292:2390  function name() public view virtual override returns (string memory) {... */\n    tag_3:\n      tag_24\n      tag_25\n      jump\t// in\n    tag_24:\n      mload(0x40)\n      tag_26\n      swap2\n      swap1\n      tag_27\n      jump\t// in\n    tag_26:\n      mload(0x40)\n      dup1\n      swap2\n      sub\n      swap1\n      return\n        /* \"w-ERC20.sol\":4730:4896  function approve(address spender, uint256 amount) public virtual override returns (bool) {... */\n    tag_4:\n      tag_28\n      0x04\n      dup1\n      calldatasize\n      sub\n      dup2\n      add\n      swap1\n      tag_29\n      swap2\n      swap1\n      tag_30\n      jump\t// in\n    tag_29:\n      tag_31\n      jump\t// in\n    tag_28:\n      mload(0x40)\n      tag_32\n      swap2\n      swap1\n      tag_33\n      jump\t// in\n    tag_32:\n      mload(0x40)\n      dup1\n      swap2\n      sub\n      swap1\n      return\n        /* \"w-ERC20.sol\":3380:3486  function totalSupply() public view virtual override returns (uint256) {... */\n    tag_5:\n      tag_34\n      tag_35\n      jump\t// in\n    tag_34:\n      mload(0x40)\n      tag_36\n      swap2\n      swap1\n      tag_37\n      jump\t// in\n    tag_36:\n      mload(0x40)\n      dup1\n      swap2\n      sub\n      swap1\n      return\n        /* \"w-ERC20.sol\":5363:5854  function transferFrom(... */\n    tag_6:\n      tag_38\n      0x04\n      dup1\n      calldatasize\n      sub\n      dup2\n      add\n      swap1\n      tag_39\n      swap2\n      swap1\n      tag_40\n      jump\t// in\n    tag_39:\n      tag_41\n      jump\t// in\n    tag_38:\n      mload(0x40)\n      tag_42\n      swap2\n      swap1\n      tag_33\n      jump\t// in\n    tag_42:\n      mload(0x40)\n      dup1\n      swap2\n      sub\n      swap1\n      return\n        /* \"w-ERC20.sol\":3229:3320  function decimals() public view virtual override returns (uint8) {... */\n    tag_7:\n      tag_43\n      tag_44\n      jump\t// in\n    tag_43:\n      mload(0x40)\n      tag_45\n      swap2\n      swap1\n      tag_46\n      jump\t// in\n    tag_45:\n      mload(0x40)\n      dup1\n      swap2\n      sub\n      swap1\n      return\n        /* \"w-ERC20.sol\":6249:6461  function increaseAllowance(address spender, uint256 addedValue) public virtual returns (bool) {... */\n    tag_8:\n      tag_47\n      0x04\n      dup1\n      calldatasize\n      sub\n      dup2\n      add\n      swap1\n      tag_48\n      swap2\n      swap1\n      tag_30\n      jump\t// in\n    tag_48:\n      tag_49\n      jump\t// in\n    tag_47:\n      mload(0x40)\n      tag_50\n      swap2\n      swap1\n      tag_33\n      jump\t// in\n    tag_50:\n      mload(0x40)\n      dup1\n      swap2\n      sub\n      swap1\n      return\n        /* \"w-ERC20.sol\":3538:3648  function mint(address to, uint256 amount) public virtual override  {... */\n    tag_9:\n      tag_51\n      0x04\n      dup1\n      calldatasize\n      sub\n      dup2\n      add\n      swap1\n      tag_52\n      swap2\n      swap1\n      tag_30\n      jump\t// in\n    tag_52:\n      tag_53\n      jump\t// in\n    tag_51:\n      stop\n        /* \"w-ERC20.sol\":3872:3997  function balanceOf(address account) public view virtual override returns (uint256) {... */\n    tag_10:\n      tag_54\n      0x04\n      dup1\n      calldatasize\n      sub\n      dup2\n      add\n      swap1\n      tag_55\n      swap2\n      swap1\n      tag_56\n      jump\t// in\n    tag_55:\n      tag_57\n      jump\t// in\n    tag_54:\n      mload(0x40)\n      tag_58\n      swap2\n      swap1\n      tag_37\n      jump\t// in\n    tag_58:\n      mload(0x40)\n      dup1\n      swap2\n      sub\n      swap1\n      return\n        /* \"Ownable.sol\":1661:1762  function renounceOwnership() public virtual onlyOwner {... */\n    tag_11:\n      tag_59\n      tag_60\n      jump\t// in\n    tag_59:\n      stop\n        /* \"Ownable.sol\":1029:1114  function owner() public view virtual returns (address) {... */\n    tag_12:\n      tag_61\n      tag_62\n      jump\t// in\n    tag_61:\n      mload(0x40)\n      tag_63\n      swap2\n      swap1\n      tag_64\n      jump\t// in\n    tag_63:\n      mload(0x40)\n      dup1\n      swap2\n      sub\n      swap1\n      return\n        /* \"w-ERC20.sol\":2503:2605  function symbol() public view virtual override returns (string memory) {... */\n    tag_13:\n      tag_65\n      tag_66\n      jump\t// in\n    tag_65:\n      mload(0x40)\n      tag_67\n      swap2\n      swap1\n      tag_27\n      jump\t// in\n    tag_67:\n      mload(0x40)\n      dup1\n      swap2\n      sub\n      swap1\n      return\n        /* \"w-ERC20.sol\":3700:3814  function burn(address from, uint256 amount) public virtual override  {... */\n    tag_14:\n      tag_68\n      0x04\n      dup1\n      calldatasize\n      sub\n      dup2\n      add\n      swap1\n      tag_69\n      swap2\n      swap1\n      tag_30\n      jump\t// in\n    tag_69:\n      tag_70\n      jump\t// in\n    tag_68:\n      stop\n        /* \"w-ERC20.sol\":6948:7353  function decreaseAllowance(address spender, uint256 subtractedValue) public virtual returns (bool) {... */\n    tag_15:\n      tag_71\n      0x04\n      dup1\n      calldatasize\n      sub\n      dup2\n      add\n      swap1\n      tag_72\n      swap2\n      swap1\n      tag_30\n      jump\t// in\n    tag_72:\n      tag_73\n      jump\t// in\n    tag_71:\n      mload(0x40)\n      tag_74\n      swap2\n      swap1\n      tag_33\n      jump\t// in\n    tag_74:\n      mload(0x40)\n      dup1\n      swap2\n      sub\n      swap1\n      return\n        /* \"Scepter.sol\":1160:1321  function addController(address controller) external onlyOwner {\r... */\n    tag_16:\n      tag_75\n      0x04\n      dup1\n      calldatasize\n      sub\n      dup2\n      add\n      swap1\n      tag_76\n      swap2\n      swap1\n      tag_56\n      jump\t// in\n    tag_76:\n      tag_77\n      jump\t// in\n    tag_75:\n      stop\n        /* \"w-ERC20.sol\":4200:4385  function transfer(address recipient, uint256 amount) public virtual override onlyApproved returns (bool) {... */\n    tag_17:\n      tag_78\n      0x04\n      dup1\n      calldatasize\n      sub\n      dup2\n      add\n      swap1\n      tag_79\n      swap2\n      swap1\n      tag_30\n      jump\t// in\n    tag_79:\n      tag_80\n      jump\t// in\n    tag_78:\n      mload(0x40)\n      tag_81\n      swap2\n      swap1\n      tag_33\n      jump\t// in\n    tag_81:\n      mload(0x40)\n      dup1\n      swap2\n      sub\n      swap1\n      return\n        /* \"w-ERC20.sol\":4443:4592  function allowance(address owner, address spender) public view virtual override returns (uint256) {... */\n    tag_18:\n      tag_82\n      0x04\n      dup1\n      calldatasize\n      sub\n      dup2\n      add\n      swap1\n      tag_83\n      swap2\n      swap1\n      tag_84\n      jump\t// in\n    tag_83:\n      tag_85\n      jump\t// in\n    tag_82:\n      mload(0x40)\n      tag_86\n      swap2\n      swap1\n      tag_37\n      jump\t// in\n    tag_86:\n      mload(0x40)\n      dup1\n      swap2\n      sub\n      swap1\n      return\n        /* \"Ownable.sol\":1911:2109  function transferOwnership(address newOwner) public virtual onlyOwner {... */\n    tag_19:\n      tag_87\n      0x04\n      dup1\n      calldatasize\n      sub\n      dup2\n      add\n      swap1\n      tag_88\n      swap2\n      swap1\n      tag_56\n      jump\t// in\n    tag_88:\n      tag_89\n      jump\t// in\n    tag_87:\n      stop\n        /* \"Scepter.sol\":1445:1560  function removeController(address controller) external onlyOwner {\r... */\n    tag_20:\n      tag_90\n      0x04\n      dup1\n      calldatasize\n      sub\n      dup2\n      add\n      swap1\n      tag_91\n      swap2\n      swap1\n      tag_56\n      jump\t// in\n    tag_91:\n      tag_92\n      jump\t// in\n    tag_90:\n      stop\n        /* \"w-ERC20.sol\":2292:2390  function name() public view virtual override returns (string memory) {... */\n    tag_25:\n        /* \"w-ERC20.sol\":2346:2359  string memory */\n      0x60\n        /* \"w-ERC20.sol\":2378:2383  _name */\n      0x03\n        /* \"w-ERC20.sol\":2371:2383  return _name */\n      dup1\n      sload\n      tag_94\n      swap1\n      tag_95\n      jump\t// in\n    tag_94:\n      dup1\n      0x1f\n      add\n      0x20\n      dup1\n      swap2\n      div\n      mul\n      0x20\n      add\n      mload(0x40)\n      swap1\n      dup2\n      add\n      0x40\n      mstore\n      dup1\n      swap3\n      swap2\n      swap1\n      dup2\n      dup2\n      mstore\n      0x20\n      add\n      dup3\n      dup1\n      sload\n      tag_96\n      swap1\n      tag_95\n      jump\t// in\n    tag_96:\n      dup1\n      iszero\n      tag_97\n      jumpi\n      dup1\n      0x1f\n      lt\n      tag_98\n      jumpi\n      0x0100\n      dup1\n      dup4\n      sload\n      div\n      mul\n      dup4\n      mstore\n      swap2\n      0x20\n      add\n      swap2\n      jump(tag_97)\n    tag_98:\n      dup3\n      add\n      swap2\n      swap1\n      0x00\n      mstore\n      keccak256(0x00, 0x20)\n      swap1\n    tag_99:\n      dup2\n      sload\n      dup2\n      mstore\n      swap1\n      0x01\n      add\n      swap1\n      0x20\n      add\n      dup1\n      dup4\n      gt\n      tag_99\n      jumpi\n      dup3\n      swap1\n      sub\n      0x1f\n      and\n      dup3\n      add\n      swap2\n    tag_97:\n      pop\n      pop\n      pop\n      pop\n      pop\n      swap1\n      pop\n        /* \"w-ERC20.sol\":2292:2390  function name() public view virtual override returns (string memory) {... */\n      swap1\n      jump\t// out\n        /* \"w-ERC20.sol\":4730:4896  function approve(address spender, uint256 amount) public virtual override returns (bool) {... */\n    tag_31:\n        /* \"w-ERC20.sol\":4813:4817  bool */\n      0x00\n        /* \"w-ERC20.sol\":4829:4868  _approve(_msgSender(), spender, amount) */\n      tag_101\n        /* \"w-ERC20.sol\":4838:4850  _msgSender() */\n      tag_102\n        /* \"w-ERC20.sol\":4838:4848  _msgSender */\n      tag_103\n        /* \"w-ERC20.sol\":4838:4850  _msgSender() */\n      jump\t// in\n    tag_102:\n        /* \"w-ERC20.sol\":4852:4859  spender */\n      dup5\n        /* \"w-ERC20.sol\":4861:4867  amount */\n      dup5\n        /* \"w-ERC20.sol\":4829:4837  _approve */\n      tag_104\n        /* \"w-ERC20.sol\":4829:4868  _approve(_msgSender(), spender, amount) */\n      jump\t// in\n    tag_101:\n        /* \"w-ERC20.sol\":4885:4889  true */\n      0x01\n        /* \"w-ERC20.sol\":4878:4889  return true */\n      swap1\n      pop\n        /* \"w-ERC20.sol\":4730:4896  function approve(address spender, uint256 amount) public virtual override returns (bool) {... */\n      swap3\n      swap2\n      pop\n      pop\n      jump\t// out\n        /* \"w-ERC20.sol\":3380:3486  function totalSupply() public view virtual override returns (uint256) {... */\n    tag_35:\n        /* \"w-ERC20.sol\":3441:3448  uint256 */\n      0x00\n        /* \"w-ERC20.sol\":3467:3479  _totalSupply */\n      sload(0x02)\n        /* \"w-ERC20.sol\":3460:3479  return _totalSupply */\n      swap1\n      pop\n        /* \"w-ERC20.sol\":3380:3486  function totalSupply() public view virtual override returns (uint256) {... */\n      swap1\n      jump\t// out\n        /* \"w-ERC20.sol\":5363:5854  function transferFrom(... */\n    tag_41:\n        /* \"w-ERC20.sol\":5512:5516  bool */\n      0x00\n        /* \"w-ERC20.sol\":2168:2186  approvedTransferor */\n      0x05\n      0x00\n      swap1\n      sload\n      swap1\n      0x0100\n      exp\n      swap1\n      div\n      0xffffffffffffffffffffffffffffffffffffffff\n      and\n        /* \"w-ERC20.sol\":2154:2186  msg.sender == approvedTransferor */\n      0xffffffffffffffffffffffffffffffffffffffff\n      and\n        /* \"w-ERC20.sol\":2154:2164  msg.sender */\n      caller\n        /* \"w-ERC20.sol\":2154:2186  msg.sender == approvedTransferor */\n      0xffffffffffffffffffffffffffffffffffffffff\n      and\n      eq\n        /* \"w-ERC20.sol\":2146:2212  require(msg.sender == approvedTransferor, \"Not Approved to do so\") */\n      tag_107\n      jumpi\n      mload(0x40)\n      0x08c379a000000000000000000000000000000000000000000000000000000000\n      dup2\n      mstore\n      0x04\n      add\n      tag_108\n      swap1\n      tag_109\n      jump\t// in\n    tag_108:\n      mload(0x40)\n      dup1\n      swap2\n      sub\n      swap1\n      revert\n    tag_107:\n        /* \"w-ERC20.sol\":5528:5564  _transfer(sender, recipient, amount) */\n      tag_111\n        /* \"w-ERC20.sol\":5538:5544  sender */\n      dup5\n        /* \"w-ERC20.sol\":5546:5555  recipient */\n      dup5\n        /* \"w-ERC20.sol\":5557:5563  amount */\n      dup5\n        /* \"w-ERC20.sol\":5528:5537  _transfer */\n      tag_112\n        /* \"w-ERC20.sol\":5528:5564  _transfer(sender, recipient, amount) */\n      jump\t// in\n    tag_111:\n        /* \"w-ERC20.sol\":5575:5599  uint256 currentAllowance */\n      0x00\n        /* \"w-ERC20.sol\":5602:5613  _allowances */\n      0x01\n        /* \"w-ERC20.sol\":5602:5621  _allowances[sender] */\n      0x00\n        /* \"w-ERC20.sol\":5614:5620  sender */\n      dup7\n        /* \"w-ERC20.sol\":5602:5621  _allowances[sender] */\n      0xffffffffffffffffffffffffffffffffffffffff\n      and\n      0xffffffffffffffffffffffffffffffffffffffff\n      and\n      dup2\n      mstore\n      0x20\n      add\n      swap1\n      dup2\n      mstore\n      0x20\n      add\n      0x00\n      keccak256\n        /* \"w-ERC20.sol\":5602:5635  _allowances[sender][_msgSender()] */\n      0x00\n        /* \"w-ERC20.sol\":5622:5634  _msgSender() */\n      tag_113\n        /* \"w-ERC20.sol\":5622:5632  _msgSender */\n      tag_103\n        /* \"w-ERC20.sol\":5622:5634  _msgSender() */\n      jump\t// in\n    tag_113:\n        /* \"w-ERC20.sol\":5602:5635  _allowances[sender][_msgSender()] */\n      0xffffffffffffffffffffffffffffffffffffffff\n      and\n      0xffffffffffffffffffffffffffffffffffffffff\n      and\n      dup2\n      mstore\n      0x20\n      add\n      swap1\n      dup2\n      mstore\n      0x20\n      add\n      0x00\n      keccak256\n      sload\n        /* \"w-ERC20.sol\":5575:5635  uint256 currentAllowance = _allowances[sender][_msgSender()] */\n      swap1\n      pop\n        /* \"w-ERC20.sol\":5673:5679  amount */\n      dup3\n        /* \"w-ERC20.sol\":5653:5669  currentAllowance */\n      dup2\n        /* \"w-ERC20.sol\":5653:5679  currentAllowance >= amount */\n      lt\n      iszero\n        /* \"w-ERC20.sol\":5645:5724  require(currentAllowance >= amount, \"ERC20: transfer amount exceeds allowance\") */\n      tag_114\n      jumpi\n      mload(0x40)\n      0x08c379a000000000000000000000000000000000000000000000000000000000\n      dup2\n      mstore\n      0x04\n      add\n      tag_115\n      swap1\n      tag_116\n      jump\t// in\n    tag_115:\n      mload(0x40)\n      dup1\n      swap2\n      sub\n      swap1\n      revert\n    tag_114:\n        /* \"w-ERC20.sol\":5758:5815  _approve(sender, _msgSender(), currentAllowance - amount) */\n      tag_117\n        /* \"w-ERC20.sol\":5767:5773  sender */\n      dup6\n        /* \"w-ERC20.sol\":5775:5787  _msgSender() */\n      tag_118\n        /* \"w-ERC20.sol\":5775:5785  _msgSender */\n      tag_103\n        /* \"w-ERC20.sol\":5775:5787  _msgSender() */\n      jump\t// in\n    tag_118:\n        /* \"w-ERC20.sol\":5808:5814  amount */\n      dup6\n        /* \"w-ERC20.sol\":5789:5805  currentAllowance */\n      dup5\n        /* \"w-ERC20.sol\":5789:5814  currentAllowance - amount */\n      sub\n        /* \"w-ERC20.sol\":5758:5766  _approve */\n      tag_104\n        /* \"w-ERC20.sol\":5758:5815  _approve(sender, _msgSender(), currentAllowance - amount) */\n      jump\t// in\n    tag_117:\n        /* \"w-ERC20.sol\":5843:5847  true */\n      0x01\n        /* \"w-ERC20.sol\":5836:5847  return true */\n      swap2\n      pop\n      pop\n        /* \"w-ERC20.sol\":5363:5854  function transferFrom(... */\n      swap4\n      swap3\n      pop\n      pop\n      pop\n      jump\t// out\n        /* \"w-ERC20.sol\":3229:3320  function decimals() public view virtual override returns (uint8) {... */\n    tag_44:\n        /* \"w-ERC20.sol\":3287:3292  uint8 */\n      0x00\n        /* \"w-ERC20.sol\":3311:3313  18 */\n      0x12\n        /* \"w-ERC20.sol\":3304:3313  return 18 */\n      swap1\n      pop\n        /* \"w-ERC20.sol\":3229:3320  function decimals() public view virtual override returns (uint8) {... */\n      swap1\n      jump\t// out\n        /* \"w-ERC20.sol\":6249:6461  function increaseAllowance(address spender, uint256 addedValue) public virtual returns (bool) {... */\n    tag_49:\n        /* \"w-ERC20.sol\":6337:6341  bool */\n      0x00\n        /* \"w-ERC20.sol\":6353:6433  _approve(_msgSender(), spender, _allowances[_msgSender()][spender] + addedValue) */\n      tag_121\n        /* \"w-ERC20.sol\":6362:6374  _msgSender() */\n      tag_122\n        /* \"w-ERC20.sol\":6362:6372  _msgSender */\n      tag_103\n        /* \"w-ERC20.sol\":6362:6374  _msgSender() */\n      jump\t// in\n    tag_122:\n        /* \"w-ERC20.sol\":6376:6383  spender */\n      dup5\n        /* \"w-ERC20.sol\":6422:6432  addedValue */\n      dup5\n        /* \"w-ERC20.sol\":6385:6396  _allowances */\n      0x01\n        /* \"w-ERC20.sol\":6385:6410  _allowances[_msgSender()] */\n      0x00\n        /* \"w-ERC20.sol\":6397:6409  _msgSender() */\n      tag_123\n        /* \"w-ERC20.sol\":6397:6407  _msgSender */\n      tag_103\n        /* \"w-ERC20.sol\":6397:6409  _msgSender() */\n      jump\t// in\n    tag_123:\n        /* \"w-ERC20.sol\":6385:6410  _allowances[_msgSender()] */\n      0xffffffffffffffffffffffffffffffffffffffff\n      and\n      0xffffffffffffffffffffffffffffffffffffffff\n      and\n      dup2\n      mstore\n      0x20\n      add\n      swap1\n      dup2\n      mstore\n      0x20\n      add\n      0x00\n      keccak256\n        /* \"w-ERC20.sol\":6385:6419  _allowances[_msgSender()][spender] */\n      0x00\n        /* \"w-ERC20.sol\":6411:6418  spender */\n      dup9\n        /* \"w-ERC20.sol\":6385:6419  _allowances[_msgSender()][spender] */\n      0xffffffffffffffffffffffffffffffffffffffff\n      and\n      0xffffffffffffffffffffffffffffffffffffffff\n      and\n      dup2\n      mstore\n      0x20\n      add\n      swap1\n      dup2\n      mstore\n      0x20\n      add\n      0x00\n      keccak256\n      sload\n        /* \"w-ERC20.sol\":6385:6432  _allowances[_msgSender()][spender] + addedValue */\n      tag_124\n      swap2\n      swap1\n      tag_125\n      jump\t// in\n    tag_124:\n        /* \"w-ERC20.sol\":6353:6361  _approve */\n      tag_104\n        /* \"w-ERC20.sol\":6353:6433  _approve(_msgSender(), spender, _allowances[_msgSender()][spender] + addedValue) */\n      jump\t// in\n    tag_121:\n        /* \"w-ERC20.sol\":6450:6454  true */\n      0x01\n        /* \"w-ERC20.sol\":6443:6454  return true */\n      swap1\n      pop\n        /* \"w-ERC20.sol\":6249:6461  function increaseAllowance(address spender, uint256 addedValue) public virtual returns (bool) {... */\n      swap3\n      swap2\n      pop\n      pop\n      jump\t// out\n        /* \"w-ERC20.sol\":3538:3648  function mint(address to, uint256 amount) public virtual override  {... */\n    tag_53:\n        /* \"w-ERC20.sol\":3624:3641  _mint(to, amount) */\n      tag_127\n        /* \"w-ERC20.sol\":3630:3632  to */\n      dup3\n        /* \"w-ERC20.sol\":3634:3640  amount */\n      dup3\n        /* \"w-ERC20.sol\":3624:3629  _mint */\n      tag_128\n        /* \"w-ERC20.sol\":3624:3641  _mint(to, amount) */\n      jump\t// in\n    tag_127:\n        /* \"w-ERC20.sol\":3538:3648  function mint(address to, uint256 amount) public virtual override  {... */\n      pop\n      pop\n      jump\t// out\n        /* \"w-ERC20.sol\":3872:3997  function balanceOf(address account) public view virtual override returns (uint256) {... */\n    tag_57:\n        /* \"w-ERC20.sol\":3946:3953  uint256 */\n      0x00\n        /* \"w-ERC20.sol\":3972:3981  _balances */\n      dup1\n        /* \"w-ERC20.sol\":3972:3990  _balances[account] */\n      0x00\n        /* \"w-ERC20.sol\":3982:3989  account */\n      dup4\n        /* \"w-ERC20.sol\":3972:3990  _balances[account] */\n      0xffffffffffffffffffffffffffffffffffffffff\n      and\n      0xffffffffffffffffffffffffffffffffffffffff\n      and\n      dup2\n      mstore\n      0x20\n      add\n      swap1\n      dup2\n      mstore\n      0x20\n      add\n      0x00\n      keccak256\n      sload\n        /* \"w-ERC20.sol\":3965:3990  return _balances[account] */\n      swap1\n      pop\n        /* \"w-ERC20.sol\":3872:3997  function balanceOf(address account) public view virtual override returns (uint256) {... */\n      swap2\n      swap1\n      pop\n      jump\t// out\n        /* \"Ownable.sol\":1661:1762  function renounceOwnership() public virtual onlyOwner {... */\n    tag_60:\n        /* \"Ownable.sol\":1252:1264  _msgSender() */\n      tag_131\n        /* \"Ownable.sol\":1252:1262  _msgSender */\n      tag_103\n        /* \"Ownable.sol\":1252:1264  _msgSender() */\n      jump\t// in\n    tag_131:\n        /* \"Ownable.sol\":1241:1264  owner() == _msgSender() */\n      0xffffffffffffffffffffffffffffffffffffffff\n      and\n        /* \"Ownable.sol\":1241:1248  owner() */\n      tag_132\n        /* \"Ownable.sol\":1241:1246  owner */\n      tag_62\n        /* \"Ownable.sol\":1241:1248  owner() */\n      jump\t// in\n    tag_132:\n        /* \"Ownable.sol\":1241:1264  owner() == _msgSender() */\n      0xffffffffffffffffffffffffffffffffffffffff\n      and\n      eq\n        /* \"Ownable.sol\":1233:1301  require(owner() == _msgSender(), \"Ownable: caller is not the owner\") */\n      tag_133\n      jumpi\n      mload(0x40)\n      0x08c379a000000000000000000000000000000000000000000000000000000000\n      dup2\n      mstore\n      0x04\n      add\n      tag_134\n      swap1\n      tag_135\n      jump\t// in\n    tag_134:\n      mload(0x40)\n      dup1\n      swap2\n      sub\n      swap1\n      revert\n    tag_133:\n        /* \"Ownable.sol\":1725:1755  _transferOwnership(address(0)) */\n      tag_137\n        /* \"Ownable.sol\":1752:1753  0 */\n      0x00\n        /* \"Ownable.sol\":1725:1743  _transferOwnership */\n      tag_138\n        /* \"Ownable.sol\":1725:1755  _transferOwnership(address(0)) */\n      jump\t// in\n    tag_137:\n        /* \"Ownable.sol\":1661:1762  function renounceOwnership() public virtual onlyOwner {... */\n      jump\t// out\n        /* \"Ownable.sol\":1029:1114  function owner() public view virtual returns (address) {... */\n    tag_62:\n        /* \"Ownable.sol\":1075:1082  address */\n      0x00\n        /* \"Ownable.sol\":1101:1107  _owner */\n      0x06\n      0x00\n      swap1\n      sload\n      swap1\n      0x0100\n      exp\n      swap1\n      div\n      0xffffffffffffffffffffffffffffffffffffffff\n      and\n        /* \"Ownable.sol\":1094:1107  return _owner */\n      swap1\n      pop\n        /* \"Ownable.sol\":1029:1114  function owner() public view virtual returns (address) {... */\n      swap1\n      jump\t// out\n        /* \"w-ERC20.sol\":2503:2605  function symbol() public view virtual override returns (string memory) {... */\n    tag_66:\n        /* \"w-ERC20.sol\":2559:2572  string memory */\n      0x60\n        /* \"w-ERC20.sol\":2591:2598  _symbol */\n      0x04\n        /* \"w-ERC20.sol\":2584:2598  return _symbol */\n      dup1\n      sload\n      tag_141\n      swap1\n      tag_95\n      jump\t// in\n    tag_141:\n      dup1\n      0x1f\n      add\n      0x20\n      dup1\n      swap2\n      div\n      mul\n      0x20\n      add\n      mload(0x40)\n      swap1\n      dup2\n      add\n      0x40\n      mstore\n      dup1\n      swap3\n      swap2\n      swap1\n      dup2\n      dup2\n      mstore\n      0x20\n      add\n      dup3\n      dup1\n      sload\n      tag_142\n      swap1\n      tag_95\n      jump\t// in\n    tag_142:\n      dup1\n      iszero\n      tag_143\n      jumpi\n      dup1\n      0x1f\n      lt\n      tag_144\n      jumpi\n      0x0100\n      dup1\n      dup4\n      sload\n      div\n      mul\n      dup4\n      mstore\n      swap2\n      0x20\n      add\n      swap2\n      jump(tag_143)\n    tag_144:\n      dup3\n      add\n      swap2\n      swap1\n      0x00\n      mstore\n      keccak256(0x00, 0x20)\n      swap1\n    tag_145:\n      dup2\n      sload\n      dup2\n      mstore\n      swap1\n      0x01\n      add\n      swap1\n      0x20\n      add\n      dup1\n      dup4\n      gt\n      tag_145\n      jumpi\n      dup3\n      swap1\n      sub\n      0x1f\n      and\n      dup3\n      add\n      swap2\n    tag_143:\n      pop\n      pop\n      pop\n      pop\n      pop\n      swap1\n      pop\n        /* \"w-ERC20.sol\":2503:2605  function symbol() public view virtual override returns (string memory) {... */\n      swap1\n      jump\t// out\n        /* \"w-ERC20.sol\":3700:3814  function burn(address from, uint256 amount) public virtual override  {... */\n    tag_70:\n        /* \"w-ERC20.sol\":3788:3807  _burn(from, amount) */\n      tag_147\n        /* \"w-ERC20.sol\":3794:3798  from */\n      dup3\n        /* \"w-ERC20.sol\":3800:3806  amount */\n      dup3\n        /* \"w-ERC20.sol\":3788:3793  _burn */\n      tag_148\n        /* \"w-ERC20.sol\":3788:3807  _burn(from, amount) */\n      jump\t// in\n    tag_147:\n        /* \"w-ERC20.sol\":3700:3814  function burn(address from, uint256 amount) public virtual override  {... */\n      pop\n      pop\n      jump\t// out\n        /* \"w-ERC20.sol\":6948:7353  function decreaseAllowance(address spender, uint256 subtractedValue) public virtual returns (bool) {... */\n    tag_73:\n        /* \"w-ERC20.sol\":7041:7045  bool */\n      0x00\n        /* \"w-ERC20.sol\":7057:7081  uint256 currentAllowance */\n      dup1\n        /* \"w-ERC20.sol\":7084:7095  _allowances */\n      0x01\n        /* \"w-ERC20.sol\":7084:7109  _allowances[_msgSender()] */\n      0x00\n        /* \"w-ERC20.sol\":7096:7108  _msgSender() */\n      tag_150\n        /* \"w-ERC20.sol\":7096:7106  _msgSender */\n      tag_103\n        /* \"w-ERC20.sol\":7096:7108  _msgSender() */\n      jump\t// in\n    tag_150:\n        /* \"w-ERC20.sol\":7084:7109  _allowances[_msgSender()] */\n      0xffffffffffffffffffffffffffffffffffffffff\n      and\n      0xffffffffffffffffffffffffffffffffffffffff\n      and\n      dup2\n      mstore\n      0x20\n      add\n      swap1\n      dup2\n      mstore\n      0x20\n      add\n      0x00\n      keccak256\n        /* \"w-ERC20.sol\":7084:7118  _allowances[_msgSender()][spender] */\n      0x00\n        /* \"w-ERC20.sol\":7110:7117  spender */\n      dup6\n        /* \"w-ERC20.sol\":7084:7118  _allowances[_msgSender()][spender] */\n      0xffffffffffffffffffffffffffffffffffffffff\n      and\n      0xffffffffffffffffffffffffffffffffffffffff\n      and\n      dup2\n      mstore\n      0x20\n      add\n      swap1\n      dup2\n      mstore\n      0x20\n      add\n      0x00\n      keccak256\n      sload\n        /* \"w-ERC20.sol\":7057:7118  uint256 currentAllowance = _allowances[_msgSender()][spender] */\n      swap1\n      pop\n        /* \"w-ERC20.sol\":7156:7171  subtractedValue */\n      dup3\n        /* \"w-ERC20.sol\":7136:7152  currentAllowance */\n      dup2\n        /* \"w-ERC20.sol\":7136:7171  currentAllowance >= subtractedValue */\n      lt\n      iszero\n        /* \"w-ERC20.sol\":7128:7213  require(currentAllowance >= subtractedValue, \"ERC20: decreased allowance below zero\") */\n      tag_151\n      jumpi\n      mload(0x40)\n      0x08c379a000000000000000000000000000000000000000000000000000000000\n      dup2\n      mstore\n      0x04\n      add\n      tag_152\n      swap1\n      tag_153\n      jump\t// in\n    tag_152:\n      mload(0x40)\n      dup1\n      swap2\n      sub\n      swap1\n      revert\n    tag_151:\n        /* \"w-ERC20.sol\":7247:7314  _approve(_msgSender(), spender, currentAllowance - subtractedValue) */\n      tag_154\n        /* \"w-ERC20.sol\":7256:7268  _msgSender() */\n      tag_155\n        /* \"w-ERC20.sol\":7256:7266  _msgSender */\n      tag_103\n        /* \"w-ERC20.sol\":7256:7268  _msgSender() */\n      jump\t// in\n    tag_155:\n        /* \"w-ERC20.sol\":7270:7277  spender */\n      dup6\n        /* \"w-ERC20.sol\":7298:7313  subtractedValue */\n      dup6\n        /* \"w-ERC20.sol\":7279:7295  currentAllowance */\n      dup5\n        /* \"w-ERC20.sol\":7279:7313  currentAllowance - subtractedValue */\n      sub\n        /* \"w-ERC20.sol\":7247:7255  _approve */\n      tag_104\n        /* \"w-ERC20.sol\":7247:7314  _approve(_msgSender(), spender, currentAllowance - subtractedValue) */\n      jump\t// in\n    tag_154:\n        /* \"w-ERC20.sol\":7342:7346  true */\n      0x01\n        /* \"w-ERC20.sol\":7335:7346  return true */\n      swap2\n      pop\n      pop\n        /* \"w-ERC20.sol\":6948:7353  function decreaseAllowance(address spender, uint256 subtractedValue) public virtual returns (bool) {... */\n      swap3\n      swap2\n      pop\n      pop\n      jump\t// out\n        /* \"Scepter.sol\":1160:1321  function addController(address controller) external onlyOwner {\r... */\n    tag_77:\n        /* \"Ownable.sol\":1252:1264  _msgSender() */\n      tag_157\n        /* \"Ownable.sol\":1252:1262  _msgSender */\n      tag_103\n        /* \"Ownable.sol\":1252:1264  _msgSender() */\n      jump\t// in\n    tag_157:\n        /* \"Ownable.sol\":1241:1264  owner() == _msgSender() */\n      0xffffffffffffffffffffffffffffffffffffffff\n      and\n        /* \"Ownable.sol\":1241:1248  owner() */\n      tag_158\n        /* \"Ownable.sol\":1241:1246  owner */\n      tag_62\n        /* \"Ownable.sol\":1241:1248  owner() */\n      jump\t// in\n    tag_158:\n        /* \"Ownable.sol\":1241:1264  owner() == _msgSender() */\n      0xffffffffffffffffffffffffffffffffffffffff\n      and\n      eq\n        /* \"Ownable.sol\":1233:1301  require(owner() == _msgSender(), \"Ownable: caller is not the owner\") */\n      tag_159\n      jumpi\n      mload(0x40)\n      0x08c379a000000000000000000000000000000000000000000000000000000000\n      dup2\n      mstore\n      0x04\n      add\n      tag_160\n      swap1\n      tag_135\n      jump\t// in\n    tag_160:\n      mload(0x40)\n      dup1\n      swap2\n      sub\n      swap1\n      revert\n    tag_159:\n        /* \"Scepter.sol\":1259:1263  true */\n      0x01\n        /* \"Scepter.sol\":1233:1244  controllers */\n      0x07\n        /* \"Scepter.sol\":1233:1256  controllers[controller] */\n      0x00\n        /* \"Scepter.sol\":1245:1255  controller */\n      dup4\n        /* \"Scepter.sol\":1233:1256  controllers[controller] */\n      0xffffffffffffffffffffffffffffffffffffffff\n      and\n      0xffffffffffffffffffffffffffffffffffffffff\n      and\n      dup2\n      mstore\n      0x20\n      add\n      swap1\n      dup2\n      mstore\n      0x20\n      add\n      0x00\n      keccak256\n      0x00\n        /* \"Scepter.sol\":1233:1263  controllers[controller] = true */\n      0x0100\n      exp\n      dup2\n      sload\n      dup2\n      0xff\n      mul\n      not\n      and\n      swap1\n      dup4\n      iszero\n      iszero\n      mul\n      or\n      swap1\n      sstore\n      pop\n        /* \"Scepter.sol\":1274:1313  _setApprovedTokenTransferor(controller) */\n      tag_162\n        /* \"Scepter.sol\":1302:1312  controller */\n      dup2\n        /* \"Scepter.sol\":1274:1301  _setApprovedTokenTransferor */\n      tag_163\n        /* \"Scepter.sol\":1274:1313  _setApprovedTokenTransferor(controller) */\n      jump\t// in\n    tag_162:\n        /* \"Scepter.sol\":1160:1321  function addController(address controller) external onlyOwner {\r... */\n      pop\n      jump\t// out\n        /* \"w-ERC20.sol\":4200:4385  function transfer(address recipient, uint256 amount) public virtual override onlyApproved returns (bool) {... */\n    tag_80:\n        /* \"w-ERC20.sol\":4299:4303  bool */\n      0x00\n        /* \"w-ERC20.sol\":2168:2186  approvedTransferor */\n      0x05\n      0x00\n      swap1\n      sload\n      swap1\n      0x0100\n      exp\n      swap1\n      div\n      0xffffffffffffffffffffffffffffffffffffffff\n      and\n        /* \"w-ERC20.sol\":2154:2186  msg.sender == approvedTransferor */\n      0xffffffffffffffffffffffffffffffffffffffff\n      and\n        /* \"w-ERC20.sol\":2154:2164  msg.sender */\n      caller\n        /* \"w-ERC20.sol\":2154:2186  msg.sender == approvedTransferor */\n      0xffffffffffffffffffffffffffffffffffffffff\n      and\n      eq\n        /* \"w-ERC20.sol\":2146:2212  require(msg.sender == approvedTransferor, \"Not Approved to do so\") */\n      tag_165\n      jumpi\n      mload(0x40)\n      0x08c379a000000000000000000000000000000000000000000000000000000000\n      dup2\n      mstore\n      0x04\n      add\n      tag_166\n      swap1\n      tag_109\n      jump\t// in\n    tag_166:\n      mload(0x40)\n      dup1\n      swap2\n      sub\n      swap1\n      revert\n    tag_165:\n        /* \"w-ERC20.sol\":4315:4357  _transfer(_msgSender(), recipient, amount) */\n      tag_168\n        /* \"w-ERC20.sol\":4325:4337  _msgSender() */\n      tag_169\n        /* \"w-ERC20.sol\":4325:4335  _msgSender */\n      tag_103\n        /* \"w-ERC20.sol\":4325:4337  _msgSender() */\n      jump\t// in\n    tag_169:\n        /* \"w-ERC20.sol\":4339:4348  recipient */\n      dup5\n        /* \"w-ERC20.sol\":4350:4356  amount */\n      dup5\n        /* \"w-ERC20.sol\":4315:4324  _transfer */\n      tag_112\n        /* \"w-ERC20.sol\":4315:4357  _transfer(_msgSender(), recipient, amount) */\n      jump\t// in\n    tag_168:\n        /* \"w-ERC20.sol\":4374:4378  true */\n      0x01\n        /* \"w-ERC20.sol\":4367:4378  return true */\n      swap1\n      pop\n        /* \"w-ERC20.sol\":4200:4385  function transfer(address recipient, uint256 amount) public virtual override onlyApproved returns (bool) {... */\n      swap3\n      swap2\n      pop\n      pop\n      jump\t// out\n        /* \"w-ERC20.sol\":4443:4592  function allowance(address owner, address spender) public view virtual override returns (uint256) {... */\n    tag_85:\n        /* \"w-ERC20.sol\":4532:4539  uint256 */\n      0x00\n        /* \"w-ERC20.sol\":4558:4569  _allowances */\n      0x01\n        /* \"w-ERC20.sol\":4558:4576  _allowances[owner] */\n      0x00\n        /* \"w-ERC20.sol\":4570:4575  owner */\n      dup5\n        /* \"w-ERC20.sol\":4558:4576  _allowances[owner] */\n      0xffffffffffffffffffffffffffffffffffffffff\n      and\n      0xffffffffffffffffffffffffffffffffffffffff\n      and\n      dup2\n      mstore\n      0x20\n      add\n      swap1\n      dup2\n      mstore\n      0x20\n      add\n      0x00\n      keccak256\n        /* \"w-ERC20.sol\":4558:4585  _allowances[owner][spender] */\n      0x00\n        /* \"w-ERC20.sol\":4577:4584  spender */\n      dup4\n        /* \"w-ERC20.sol\":4558:4585  _allowances[owner][spender] */\n      0xffffffffffffffffffffffffffffffffffffffff\n      and\n      0xffffffffffffffffffffffffffffffffffffffff\n      and\n      dup2\n      mstore\n      0x20\n      add\n      swap1\n      dup2\n      mstore\n      0x20\n      add\n      0x00\n      keccak256\n      sload\n        /* \"w-ERC20.sol\":4551:4585  return _allowances[owner][spender] */\n      swap1\n      pop\n        /* \"w-ERC20.sol\":4443:4592  function allowance(address owner, address spender) public view virtual override returns (uint256) {... */\n      swap3\n      swap2\n      pop\n      pop\n      jump\t// out\n        /* \"Ownable.sol\":1911:2109  function transferOwnership(address newOwner) public virtual onlyOwner {... */\n    tag_89:\n        /* \"Ownable.sol\":1252:1264  _msgSender() */\n      tag_172\n        /* \"Ownable.sol\":1252:1262  _msgSender */\n      tag_103\n        /* \"Ownable.sol\":1252:1264  _msgSender() */\n      jump\t// in\n    tag_172:\n        /* \"Ownable.sol\":1241:1264  owner() == _msgSender() */\n      0xffffffffffffffffffffffffffffffffffffffff\n      and\n        /* \"Ownable.sol\":1241:1248  owner() */\n      tag_173\n        /* \"Ownable.sol\":1241:1246  owner */\n      tag_62\n        /* \"Ownable.sol\":1241:1248  owner() */\n      jump\t// in\n    tag_173:\n        /* \"Ownable.sol\":1241:1264  owner() == _msgSender() */\n      0xffffffffffffffffffffffffffffffffffffffff\n      and\n      eq\n        /* \"Ownable.sol\":1233:1301  require(owner() == _msgSender(), \"Ownable: caller is not the owner\") */\n      tag_174\n      jumpi\n      mload(0x40)\n      0x08c379a000000000000000000000000000000000000000000000000000000000\n      dup2\n      mstore\n      0x04\n      add\n      tag_175\n      swap1\n      tag_135\n      jump\t// in\n    tag_175:\n      mload(0x40)\n      dup1\n      swap2\n      sub\n      swap1\n      revert\n    tag_174:\n        /* \"Ownable.sol\":2019:2020  0 */\n      0x00\n        /* \"Ownable.sol\":1999:2021  newOwner != address(0) */\n      0xffffffffffffffffffffffffffffffffffffffff\n      and\n        /* \"Ownable.sol\":1999:2007  newOwner */\n      dup2\n        /* \"Ownable.sol\":1999:2021  newOwner != address(0) */\n      0xffffffffffffffffffffffffffffffffffffffff\n      and\n      eq\n      iszero\n        /* \"Ownable.sol\":1991:2064  require(newOwner != address(0), \"Ownable: new owner is the zero address\") */\n      tag_177\n      jumpi\n      mload(0x40)\n      0x08c379a000000000000000000000000000000000000000000000000000000000\n      dup2\n      mstore\n      0x04\n      add\n      tag_178\n      swap1\n      tag_179\n      jump\t// in\n    tag_178:\n      mload(0x40)\n      dup1\n      swap2\n      sub\n      swap1\n      revert\n    tag_177:\n        /* \"Ownable.sol\":2074:2102  _transferOwnership(newOwner) */\n      tag_180\n        /* \"Ownable.sol\":2093:2101  newOwner */\n      dup2\n        /* \"Ownable.sol\":2074:2092  _transferOwnership */\n      tag_138\n        /* \"Ownable.sol\":2074:2102  _transferOwnership(newOwner) */\n      jump\t// in\n    tag_180:\n        /* \"Ownable.sol\":1911:2109  function transferOwnership(address newOwner) public virtual onlyOwner {... */\n      pop\n      jump\t// out\n        /* \"Scepter.sol\":1445:1560  function removeController(address controller) external onlyOwner {\r... */\n    tag_92:\n        /* \"Ownable.sol\":1252:1264  _msgSender() */\n      tag_182\n        /* \"Ownable.sol\":1252:1262  _msgSender */\n      tag_103\n        /* \"Ownable.sol\":1252:1264  _msgSender() */\n      jump\t// in\n    tag_182:\n        /* \"Ownable.sol\":1241:1264  owner() == _msgSender() */\n      0xffffffffffffffffffffffffffffffffffffffff\n      and\n        /* \"Ownable.sol\":1241:1248  owner() */\n      tag_183\n        /* \"Ownable.sol\":1241:1246  owner */\n      tag_62\n        /* \"Ownable.sol\":1241:1248  owner() */\n      jump\t// in\n    tag_183:\n        /* \"Ownable.sol\":1241:1264  owner() == _msgSender() */\n      0xffffffffffffffffffffffffffffffffffffffff\n      and\n      eq\n        /* \"Ownable.sol\":1233:1301  require(owner() == _msgSender(), \"Ownable: caller is not the owner\") */\n      tag_184\n      jumpi\n      mload(0x40)\n      0x08c379a000000000000000000000000000000000000000000000000000000000\n      dup2\n      mstore\n      0x04\n      add\n      tag_185\n      swap1\n      tag_135\n      jump\t// in\n    tag_185:\n      mload(0x40)\n      dup1\n      swap2\n      sub\n      swap1\n      revert\n    tag_184:\n        /* \"Scepter.sol\":1547:1552  false */\n      0x00\n        /* \"Scepter.sol\":1521:1532  controllers */\n      0x07\n        /* \"Scepter.sol\":1521:1544  controllers[controller] */\n      0x00\n        /* \"Scepter.sol\":1533:1543  controller */\n      dup4\n        /* \"Scepter.sol\":1521:1544  controllers[controller] */\n      0xffffffffffffffffffffffffffffffffffffffff\n      and\n      0xffffffffffffffffffffffffffffffffffffffff\n      and\n      dup2\n      mstore\n      0x20\n      add\n      swap1\n      dup2\n      mstore\n      0x20\n      add\n      0x00\n      keccak256\n      0x00\n        /* \"Scepter.sol\":1521:1552  controllers[controller] = false */\n      0x0100\n      exp\n      dup2\n      sload\n      dup2\n      0xff\n      mul\n      not\n      and\n      swap1\n      dup4\n      iszero\n      iszero\n      mul\n      or\n      swap1\n      sstore\n      pop\n        /* \"Scepter.sol\":1445:1560  function removeController(address controller) external onlyOwner {\r... */\n      pop\n      jump\t// out\n        /* \"Context.sol\":640:736  function _msgSender() internal view virtual returns (address) {... */\n    tag_103:\n        /* \"Context.sol\":693:700  address */\n      0x00\n        /* \"Context.sol\":719:729  msg.sender */\n      caller\n        /* \"Context.sol\":712:729  return msg.sender */\n      swap1\n      pop\n        /* \"Context.sol\":640:736  function _msgSender() internal view virtual returns (address) {... */\n      swap1\n      jump\t// out\n        /* \"w-ERC20.sol\":10524:10894  function _approve(... */\n    tag_104:\n        /* \"w-ERC20.sol\":10672:10673  0 */\n      0x00\n        /* \"w-ERC20.sol\":10655:10674  owner != address(0) */\n      0xffffffffffffffffffffffffffffffffffffffff\n      and\n        /* \"w-ERC20.sol\":10655:10660  owner */\n      dup4\n        /* \"w-ERC20.sol\":10655:10674  owner != address(0) */\n      0xffffffffffffffffffffffffffffffffffffffff\n      and\n      eq\n      iszero\n        /* \"w-ERC20.sol\":10647:10715  require(owner != address(0), \"ERC20: approve from the zero address\") */\n      tag_189\n      jumpi\n      mload(0x40)\n      0x08c379a000000000000000000000000000000000000000000000000000000000\n      dup2\n      mstore\n      0x04\n      add\n      tag_190\n      swap1\n      tag_191\n      jump\t// in\n    tag_190:\n      mload(0x40)\n      dup1\n      swap2\n      sub\n      swap1\n      revert\n    tag_189:\n        /* \"w-ERC20.sol\":10752:10753  0 */\n      0x00\n        /* \"w-ERC20.sol\":10733:10754  spender != address(0) */\n      0xffffffffffffffffffffffffffffffffffffffff\n      and\n        /* \"w-ERC20.sol\":10733:10740  spender */\n      dup3\n        /* \"w-ERC20.sol\":10733:10754  spender != address(0) */\n      0xffffffffffffffffffffffffffffffffffffffff\n      and\n      eq\n      iszero\n        /* \"w-ERC20.sol\":10725:10793  require(spender != address(0), \"ERC20: approve to the zero address\") */\n      tag_192\n      jumpi\n      mload(0x40)\n      0x08c379a000000000000000000000000000000000000000000000000000000000\n      dup2\n      mstore\n      0x04\n      add\n      tag_193\n      swap1\n      tag_194\n      jump\t// in\n    tag_193:\n      mload(0x40)\n      dup1\n      swap2\n      sub\n      swap1\n      revert\n    tag_192:\n        /* \"w-ERC20.sol\":10834:10840  amount */\n      dup1\n        /* \"w-ERC20.sol\":10804:10815  _allowances */\n      0x01\n        /* \"w-ERC20.sol\":10804:10822  _allowances[owner] */\n      0x00\n        /* \"w-ERC20.sol\":10816:10821  owner */\n      dup6\n        /* \"w-ERC20.sol\":10804:10822  _allowances[owner] */\n      0xffffffffffffffffffffffffffffffffffffffff\n      and\n      0xffffffffffffffffffffffffffffffffffffffff\n      and\n      dup2\n      mstore\n      0x20\n      add\n      swap1\n      dup2\n      mstore\n      0x20\n      add\n      0x00\n      keccak256\n        /* \"w-ERC20.sol\":10804:10831  _allowances[owner][spender] */\n      0x00\n        /* \"w-ERC20.sol\":10823:10830  spender */\n      dup5\n        /* \"w-ERC20.sol\":10804:10831  _allowances[owner][spender] */\n      0xffffffffffffffffffffffffffffffffffffffff\n      and\n      0xffffffffffffffffffffffffffffffffffffffff\n      and\n      dup2\n      mstore\n      0x20\n      add\n      swap1\n      dup2\n      mstore\n      0x20\n      add\n      0x00\n      keccak256\n        /* \"w-ERC20.sol\":10804:10840  _allowances[owner][spender] = amount */\n      dup2\n      swap1\n      sstore\n      pop\n        /* \"w-ERC20.sol\":10871:10878  spender */\n      dup2\n        /* \"w-ERC20.sol\":10855:10887  Approval(owner, spender, amount) */\n      0xffffffffffffffffffffffffffffffffffffffff\n      and\n        /* \"w-ERC20.sol\":10864:10869  owner */\n      dup4\n        /* \"w-ERC20.sol\":10855:10887  Approval(owner, spender, amount) */\n      0xffffffffffffffffffffffffffffffffffffffff\n      and\n      0x8c5be1e5ebec7d5bd14f71427d1e84f3dd0314c0f7b2291e5b200ac8c7c3b925\n        /* \"w-ERC20.sol\":10880:10886  amount */\n      dup4\n        /* \"w-ERC20.sol\":10855:10887  Approval(owner, spender, amount) */\n      mload(0x40)\n      tag_195\n      swap2\n      swap1\n      tag_37\n      jump\t// in\n    tag_195:\n      mload(0x40)\n      dup1\n      swap2\n      sub\n      swap1\n      log3\n        /* \"w-ERC20.sol\":10524:10894  function _approve(... */\n      pop\n      pop\n      pop\n      jump\t// out\n        /* \"w-ERC20.sol\":7827:8540  function _transfer(... */\n    tag_112:\n        /* \"w-ERC20.sol\":7980:7981  0 */\n      0x00\n        /* \"w-ERC20.sol\":7962:7982  sender != address(0) */\n      0xffffffffffffffffffffffffffffffffffffffff\n      and\n        /* \"w-ERC20.sol\":7962:7968  sender */\n      dup4\n        /* \"w-ERC20.sol\":7962:7982  sender != address(0) */\n      0xffffffffffffffffffffffffffffffffffffffff\n      and\n      eq\n      iszero\n        /* \"w-ERC20.sol\":7954:8024  require(sender != address(0), \"ERC20: transfer from the zero address\") */\n      tag_197\n      jumpi\n      mload(0x40)\n      0x08c379a000000000000000000000000000000000000000000000000000000000\n      dup2\n      mstore\n      0x04\n      add\n      tag_198\n      swap1\n      tag_199\n      jump\t// in\n    tag_198:\n      mload(0x40)\n      dup1\n      swap2\n      sub\n      swap1\n      revert\n    tag_197:\n        /* \"w-ERC20.sol\":8063:8064  0 */\n      0x00\n        /* \"w-ERC20.sol\":8042:8065  recipient != address(0) */\n      0xffffffffffffffffffffffffffffffffffffffff\n      and\n        /* \"w-ERC20.sol\":8042:8051  recipient */\n      dup3\n        /* \"w-ERC20.sol\":8042:8065  recipient != address(0) */\n      0xffffffffffffffffffffffffffffffffffffffff\n      and\n      eq\n      iszero\n        /* \"w-ERC20.sol\":8034:8105  require(recipient != address(0), \"ERC20: transfer to the zero address\") */\n      tag_200\n      jumpi\n      mload(0x40)\n      0x08c379a000000000000000000000000000000000000000000000000000000000\n      dup2\n      mstore\n      0x04\n      add\n      tag_201\n      swap1\n      tag_202\n      jump\t// in\n    tag_201:\n      mload(0x40)\n      dup1\n      swap2\n      sub\n      swap1\n      revert\n    tag_200:\n        /* \"w-ERC20.sol\":8116:8163  _beforeTokenTransfer(sender, recipient, amount) */\n      tag_203\n        /* \"w-ERC20.sol\":8137:8143  sender */\n      dup4\n        /* \"w-ERC20.sol\":8145:8154  recipient */\n      dup4\n        /* \"w-ERC20.sol\":8156:8162  amount */\n      dup4\n        /* \"w-ERC20.sol\":8116:8136  _beforeTokenTransfer */\n      tag_204\n        /* \"w-ERC20.sol\":8116:8163  _beforeTokenTransfer(sender, recipient, amount) */\n      jump\t// in\n    tag_203:\n        /* \"w-ERC20.sol\":8174:8195  uint256 senderBalance */\n      0x00\n        /* \"w-ERC20.sol\":8198:8207  _balances */\n      dup1\n        /* \"w-ERC20.sol\":8198:8215  _balances[sender] */\n      0x00\n        /* \"w-ERC20.sol\":8208:8214  sender */\n      dup6\n        /* \"w-ERC20.sol\":8198:8215  _balances[sender] */\n      0xffffffffffffffffffffffffffffffffffffffff\n      and\n      0xffffffffffffffffffffffffffffffffffffffff\n      and\n      dup2\n      mstore\n      0x20\n      add\n      swap1\n      dup2\n      mstore\n      0x20\n      add\n      0x00\n      keccak256\n      sload\n        /* \"w-ERC20.sol\":8174:8215  uint256 senderBalance = _balances[sender] */\n      swap1\n      pop\n        /* \"w-ERC20.sol\":8250:8256  amount */\n      dup2\n        /* \"w-ERC20.sol\":8233:8246  senderBalance */\n      dup2\n        /* \"w-ERC20.sol\":8233:8256  senderBalance >= amount */\n      lt\n      iszero\n        /* \"w-ERC20.sol\":8225:8299  require(senderBalance >= amount, \"ERC20: transfer amount exceeds balance\") */\n      tag_205\n      jumpi\n      mload(0x40)\n      0x08c379a000000000000000000000000000000000000000000000000000000000\n      dup2\n      mstore\n      0x04\n      add\n      tag_206\n      swap1\n      tag_207\n      jump\t// in\n    tag_206:\n      mload(0x40)\n      dup1\n      swap2\n      sub\n      swap1\n      revert\n    tag_205:\n        /* \"w-ERC20.sol\":8369:8375  amount */\n      dup2\n        /* \"w-ERC20.sol\":8353:8366  senderBalance */\n      dup2\n        /* \"w-ERC20.sol\":8353:8375  senderBalance - amount */\n      sub\n        /* \"w-ERC20.sol\":8333:8342  _balances */\n      0x00\n        /* \"w-ERC20.sol\":8333:8350  _balances[sender] */\n      dup1\n        /* \"w-ERC20.sol\":8343:8349  sender */\n      dup7\n        /* \"w-ERC20.sol\":8333:8350  _balances[sender] */\n      0xffffffffffffffffffffffffffffffffffffffff\n      and\n      0xffffffffffffffffffffffffffffffffffffffff\n      and\n      dup2\n      mstore\n      0x20\n      add\n      swap1\n      dup2\n      mstore\n      0x20\n      add\n      0x00\n      keccak256\n        /* \"w-ERC20.sol\":8333:8375  _balances[sender] = senderBalance - amount */\n      dup2\n      swap1\n      sstore\n      pop\n        /* \"w-ERC20.sol\":8419:8425  amount */\n      dup2\n        /* \"w-ERC20.sol\":8395:8404  _balances */\n      0x00\n        /* \"w-ERC20.sol\":8395:8415  _balances[recipient] */\n      dup1\n        /* \"w-ERC20.sol\":8405:8414  recipient */\n      dup6\n        /* \"w-ERC20.sol\":8395:8415  _balances[recipient] */\n      0xffffffffffffffffffffffffffffffffffffffff\n      and\n      0xffffffffffffffffffffffffffffffffffffffff\n      and\n      dup2\n      mstore\n      0x20\n      add\n      swap1\n      dup2\n      mstore\n      0x20\n      add\n      0x00\n      keccak256\n      0x00\n        /* \"w-ERC20.sol\":8395:8425  _balances[recipient] += amount */\n      dup3\n      dup3\n      sload\n      tag_208\n      swap2\n      swap1\n      tag_125\n      jump\t// in\n    tag_208:\n      swap3\n      pop\n      pop\n      dup2\n      swap1\n      sstore\n      pop\n        /* \"w-ERC20.sol\":8458:8467  recipient */\n      dup3\n        /* \"w-ERC20.sol\":8441:8476  Transfer(sender, recipient, amount) */\n      0xffffffffffffffffffffffffffffffffffffffff\n      and\n        /* \"w-ERC20.sol\":8450:8456  sender */\n      dup5\n        /* \"w-ERC20.sol\":8441:8476  Transfer(sender, recipient, amount) */\n      0xffffffffffffffffffffffffffffffffffffffff\n      and\n      0xddf252ad1be2c89b69c2b068fc378daa952ba7f163c4a11628f55a4df523b3ef\n        /* \"w-ERC20.sol\":8469:8475  amount */\n      dup5\n        /* \"w-ERC20.sol\":8441:8476  Transfer(sender, recipient, amount) */\n      mload(0x40)\n      tag_209\n      swap2\n      swap1\n      tag_37\n      jump\t// in\n    tag_209:\n      mload(0x40)\n      dup1\n      swap2\n      sub\n      swap1\n      log3\n        /* \"w-ERC20.sol\":8487:8533  _afterTokenTransfer(sender, recipient, amount) */\n      tag_210\n        /* \"w-ERC20.sol\":8507:8513  sender */\n      dup5\n        /* \"w-ERC20.sol\":8515:8524  recipient */\n      dup5\n        /* \"w-ERC20.sol\":8526:8532  amount */\n      dup5\n        /* \"w-ERC20.sol\":8487:8506  _afterTokenTransfer */\n      tag_211\n        /* \"w-ERC20.sol\":8487:8533  _afterTokenTransfer(sender, recipient, amount) */\n      jump\t// in\n    tag_210:\n        /* \"w-ERC20.sol\":7944:8540  {... */\n      pop\n        /* \"w-ERC20.sol\":7827:8540  function _transfer(... */\n      pop\n      pop\n      pop\n      jump\t// out\n        /* \"w-ERC20.sol\":8816:9205  function _mint(address account, uint256 amount) internal virtual {... */\n    tag_128:\n        /* \"w-ERC20.sol\":8918:8919  0 */\n      0x00\n        /* \"w-ERC20.sol\":8899:8920  account != address(0) */\n      0xffffffffffffffffffffffffffffffffffffffff\n      and\n        /* \"w-ERC20.sol\":8899:8906  account */\n      dup3\n        /* \"w-ERC20.sol\":8899:8920  account != address(0) */\n      0xffffffffffffffffffffffffffffffffffffffff\n      and\n      eq\n      iszero\n        /* \"w-ERC20.sol\":8891:8956  require(account != address(0), \"ERC20: mint to the zero address\") */\n      tag_213\n      jumpi\n      mload(0x40)\n      0x08c379a000000000000000000000000000000000000000000000000000000000\n      dup2\n      mstore\n      0x04\n      add\n      tag_214\n      swap1\n      tag_215\n      jump\t// in\n    tag_214:\n      mload(0x40)\n      dup1\n      swap2\n      sub\n      swap1\n      revert\n    tag_213:\n        /* \"w-ERC20.sol\":8967:9016  _beforeTokenTransfer(address(0), account, amount) */\n      tag_216\n        /* \"w-ERC20.sol\":8996:8997  0 */\n      0x00\n        /* \"w-ERC20.sol\":9000:9007  account */\n      dup4\n        /* \"w-ERC20.sol\":9009:9015  amount */\n      dup4\n        /* \"w-ERC20.sol\":8967:8987  _beforeTokenTransfer */\n      tag_204\n        /* \"w-ERC20.sol\":8967:9016  _beforeTokenTransfer(address(0), account, amount) */\n      jump\t// in\n    tag_216:\n        /* \"w-ERC20.sol\":9043:9049  amount */\n      dup1\n        /* \"w-ERC20.sol\":9027:9039  _totalSupply */\n      0x02\n      0x00\n        /* \"w-ERC20.sol\":9027:9049  _totalSupply += amount */\n      dup3\n      dup3\n      sload\n      tag_217\n      swap2\n      swap1\n      tag_125\n      jump\t// in\n    tag_217:\n      swap3\n      pop\n      pop\n      dup2\n      swap1\n      sstore\n      pop\n        /* \"w-ERC20.sol\":9081:9087  amount */\n      dup1\n        /* \"w-ERC20.sol\":9059:9068  _balances */\n      0x00\n        /* \"w-ERC20.sol\":9059:9077  _balances[account] */\n      dup1\n        /* \"w-ERC20.sol\":9069:9076  account */\n      dup5\n        /* \"w-ERC20.sol\":9059:9077  _balances[account] */\n      0xffffffffffffffffffffffffffffffffffffffff\n      and\n      0xffffffffffffffffffffffffffffffffffffffff\n      and\n      dup2\n      mstore\n      0x20\n      add\n      swap1\n      dup2\n      mstore\n      0x20\n      add\n      0x00\n      keccak256\n      0x00\n        /* \"w-ERC20.sol\":9059:9087  _balances[account] += amount */\n      dup3\n      dup3\n      sload\n      tag_218\n      swap2\n      swap1\n      tag_125\n      jump\t// in\n    tag_218:\n      swap3\n      pop\n      pop\n      dup2\n      swap1\n      sstore\n      pop\n        /* \"w-ERC20.sol\":9123:9130  account */\n      dup2\n        /* \"w-ERC20.sol\":9102:9139  Transfer(address(0), account, amount) */\n      0xffffffffffffffffffffffffffffffffffffffff\n      and\n        /* \"w-ERC20.sol\":9119:9120  0 */\n      0x00\n        /* \"w-ERC20.sol\":9102:9139  Transfer(address(0), account, amount) */\n      0xffffffffffffffffffffffffffffffffffffffff\n      and\n      0xddf252ad1be2c89b69c2b068fc378daa952ba7f163c4a11628f55a4df523b3ef\n        /* \"w-ERC20.sol\":9132:9138  amount */\n      dup4\n        /* \"w-ERC20.sol\":9102:9139  Transfer(address(0), account, amount) */\n      mload(0x40)\n      tag_219\n      swap2\n      swap1\n      tag_37\n      jump\t// in\n    tag_219:\n      mload(0x40)\n      dup1\n      swap2\n      sub\n      swap1\n      log3\n        /* \"w-ERC20.sol\":9150:9198  _afterTokenTransfer(address(0), account, amount) */\n      tag_220\n        /* \"w-ERC20.sol\":9178:9179  0 */\n      0x00\n        /* \"w-ERC20.sol\":9182:9189  account */\n      dup4\n        /* \"w-ERC20.sol\":9191:9197  amount */\n      dup4\n        /* \"w-ERC20.sol\":9150:9169  _afterTokenTransfer */\n      tag_211\n        /* \"w-ERC20.sol\":9150:9198  _afterTokenTransfer(address(0), account, amount) */\n      jump\t// in\n    tag_220:\n        /* \"w-ERC20.sol\":8816:9205  function _mint(address account, uint256 amount) internal virtual {... */\n      pop\n      pop\n      jump\t// out\n        /* \"Ownable.sol\":2263:2450  function _transferOwnership(address newOwner) internal virtual {... */\n    tag_138:\n        /* \"Ownable.sol\":2336:2352  address oldOwner */\n      0x00\n        /* \"Ownable.sol\":2355:2361  _owner */\n      0x06\n      0x00\n      swap1\n      sload\n      swap1\n      0x0100\n      exp\n      swap1\n      div\n      0xffffffffffffffffffffffffffffffffffffffff\n      and\n        /* \"Ownable.sol\":2336:2361  address oldOwner = _owner */\n      swap1\n      pop\n        /* \"Ownable.sol\":2380:2388  newOwner */\n      dup2\n        /* \"Ownable.sol\":2371:2377  _owner */\n      0x06\n      0x00\n        /* \"Ownable.sol\":2371:2388  _owner = newOwner */\n      0x0100\n      exp\n      dup2\n      sload\n      dup2\n      0xffffffffffffffffffffffffffffffffffffffff\n      mul\n      not\n      and\n      swap1\n      dup4\n      0xffffffffffffffffffffffffffffffffffffffff\n      and\n      mul\n      or\n      swap1\n      sstore\n      pop\n        /* \"Ownable.sol\":2434:2442  newOwner */\n      dup2\n        /* \"Ownable.sol\":2403:2443  OwnershipTransferred(oldOwner, newOwner) */\n      0xffffffffffffffffffffffffffffffffffffffff\n      and\n        /* \"Ownable.sol\":2424:2432  oldOwner */\n      dup2\n        /* \"Ownable.sol\":2403:2443  OwnershipTransferred(oldOwner, newOwner) */\n      0xffffffffffffffffffffffffffffffffffffffff\n      and\n      0x8be0079c531659141344cd1fd0a4f28419497f9722a3daafe3b4186f6b6457e0\n      mload(0x40)\n      mload(0x40)\n      dup1\n      swap2\n      sub\n      swap1\n      log3\n        /* \"Ownable.sol\":2326:2450  {... */\n      pop\n        /* \"Ownable.sol\":2263:2450  function _transferOwnership(address newOwner) internal virtual {... */\n      pop\n      jump\t// out\n        /* \"w-ERC20.sol\":9525:10101  function _burn(address account, uint256 amount) internal virtual {... */\n    tag_148:\n        /* \"w-ERC20.sol\":9627:9628  0 */\n      0x00\n        /* \"w-ERC20.sol\":9608:9629  account != address(0) */\n      0xffffffffffffffffffffffffffffffffffffffff\n      and\n        /* \"w-ERC20.sol\":9608:9615  account */\n      dup3\n        /* \"w-ERC20.sol\":9608:9629  account != address(0) */\n      0xffffffffffffffffffffffffffffffffffffffff\n      and\n      eq\n      iszero\n        /* \"w-ERC20.sol\":9600:9667  require(account != address(0), \"ERC20: burn from the zero address\") */\n      tag_223\n      jumpi\n      mload(0x40)\n      0x08c379a000000000000000000000000000000000000000000000000000000000\n      dup2\n      mstore\n      0x04\n      add\n      tag_224\n      swap1\n      tag_225\n      jump\t// in\n    tag_224:\n      mload(0x40)\n      dup1\n      swap2\n      sub\n      swap1\n      revert\n    tag_223:\n        /* \"w-ERC20.sol\":9678:9727  _beforeTokenTransfer(account, address(0), amount) */\n      tag_226\n        /* \"w-ERC20.sol\":9699:9706  account */\n      dup3\n        /* \"w-ERC20.sol\":9716:9717  0 */\n      0x00\n        /* \"w-ERC20.sol\":9720:9726  amount */\n      dup4\n        /* \"w-ERC20.sol\":9678:9698  _beforeTokenTransfer */\n      tag_204\n        /* \"w-ERC20.sol\":9678:9727  _beforeTokenTransfer(account, address(0), amount) */\n      jump\t// in\n    tag_226:\n        /* \"w-ERC20.sol\":9738:9760  uint256 accountBalance */\n      0x00\n        /* \"w-ERC20.sol\":9763:9772  _balances */\n      dup1\n        /* \"w-ERC20.sol\":9763:9781  _balances[account] */\n      0x00\n        /* \"w-ERC20.sol\":9773:9780  account */\n      dup5\n        /* \"w-ERC20.sol\":9763:9781  _balances[account] */\n      0xffffffffffffffffffffffffffffffffffffffff\n      and\n      0xffffffffffffffffffffffffffffffffffffffff\n      and\n      dup2\n      mstore\n      0x20\n      add\n      swap1\n      dup2\n      mstore\n      0x20\n      add\n      0x00\n      keccak256\n      sload\n        /* \"w-ERC20.sol\":9738:9781  uint256 accountBalance = _balances[account] */\n      swap1\n      pop\n        /* \"w-ERC20.sol\":9817:9823  amount */\n      dup2\n        /* \"w-ERC20.sol\":9799:9813  accountBalance */\n      dup2\n        /* \"w-ERC20.sol\":9799:9823  accountBalance >= amount */\n      lt\n      iszero\n        /* \"w-ERC20.sol\":9791:9862  require(accountBalance >= amount, \"ERC20: burn amount exceeds balance\") */\n      tag_227\n      jumpi\n      mload(0x40)\n      0x08c379a000000000000000000000000000000000000000000000000000000000\n      dup2\n      mstore\n      0x04\n      add\n      tag_228\n      swap1\n      tag_229\n      jump\t// in\n    tag_228:\n      mload(0x40)\n      dup1\n      swap2\n      sub\n      swap1\n      revert\n    tag_227:\n        /* \"w-ERC20.sol\":9934:9940  amount */\n      dup2\n        /* \"w-ERC20.sol\":9917:9931  accountBalance */\n      dup2\n        /* \"w-ERC20.sol\":9917:9940  accountBalance - amount */\n      sub\n        /* \"w-ERC20.sol\":9896:9905  _balances */\n      0x00\n        /* \"w-ERC20.sol\":9896:9914  _balances[account] */\n      dup1\n        /* \"w-ERC20.sol\":9906:9913  account */\n      dup6\n        /* \"w-ERC20.sol\":9896:9914  _balances[account] */\n      0xffffffffffffffffffffffffffffffffffffffff\n      and\n      0xffffffffffffffffffffffffffffffffffffffff\n      and\n      dup2\n      mstore\n      0x20\n      add\n      swap1\n      dup2\n      mstore\n      0x20\n      add\n      0x00\n      keccak256\n        /* \"w-ERC20.sol\":9896:9940  _balances[account] = accountBalance - amount */\n      dup2\n      swap1\n      sstore\n      pop\n        /* \"w-ERC20.sol\":9976:9982  amount */\n      dup2\n        /* \"w-ERC20.sol\":9960:9972  _totalSupply */\n      0x02\n      0x00\n        /* \"w-ERC20.sol\":9960:9982  _totalSupply -= amount */\n      dup3\n      dup3\n      sload\n      tag_230\n      swap2\n      swap1\n      tag_231\n      jump\t// in\n    tag_230:\n      swap3\n      pop\n      pop\n      dup2\n      swap1\n      sstore\n      pop\n        /* \"w-ERC20.sol\":10024:10025  0 */\n      0x00\n        /* \"w-ERC20.sol\":9998:10035  Transfer(account, address(0), amount) */\n      0xffffffffffffffffffffffffffffffffffffffff\n      and\n        /* \"w-ERC20.sol\":10007:10014  account */\n      dup4\n        /* \"w-ERC20.sol\":9998:10035  Transfer(account, address(0), amount) */\n      0xffffffffffffffffffffffffffffffffffffffff\n      and\n      0xddf252ad1be2c89b69c2b068fc378daa952ba7f163c4a11628f55a4df523b3ef\n        /* \"w-ERC20.sol\":10028:10034  amount */\n      dup5\n        /* \"w-ERC20.sol\":9998:10035  Transfer(account, address(0), amount) */\n      mload(0x40)\n      tag_232\n      swap2\n      swap1\n      tag_37\n      jump\t// in\n    tag_232:\n      mload(0x40)\n      dup1\n      swap2\n      sub\n      swap1\n      log3\n        /* \"w-ERC20.sol\":10046:10094  _afterTokenTransfer(account, address(0), amount) */\n      tag_233\n        /* \"w-ERC20.sol\":10066:10073  account */\n      dup4\n        /* \"w-ERC20.sol\":10083:10084  0 */\n      0x00\n        /* \"w-ERC20.sol\":10087:10093  amount */\n      dup5\n        /* \"w-ERC20.sol\":10046:10065  _afterTokenTransfer */\n      tag_211\n        /* \"w-ERC20.sol\":10046:10094  _afterTokenTransfer(account, address(0), amount) */\n      jump\t// in\n    tag_233:\n        /* \"w-ERC20.sol\":9590:10101  {... */\n      pop\n        /* \"w-ERC20.sol\":9525:10101  function _burn(address account, uint256 amount) internal virtual {... */\n      pop\n      pop\n      jump\t// out\n        /* \"w-ERC20.sol\":12314:12501  function _setApprovedTokenTransferor(address account) internal  {... */\n    tag_163:\n        /* \"w-ERC20.sol\":12487:12494  account */\n      dup1\n        /* \"w-ERC20.sol\":12466:12484  approvedTransferor */\n      0x05\n      0x00\n        /* \"w-ERC20.sol\":12466:12494  approvedTransferor = account */\n      0x0100\n      exp\n      dup2\n      sload\n      dup2\n      0xffffffffffffffffffffffffffffffffffffffff\n      mul\n      not\n      and\n      swap1\n      dup4\n      0xffffffffffffffffffffffffffffffffffffffff\n      and\n      mul\n      or\n      swap1\n      sstore\n      pop\n        /* \"w-ERC20.sol\":12314:12501  function _setApprovedTokenTransferor(address account) internal  {... */\n      pop\n      jump\t// out\n        /* \"w-ERC20.sol\":11478:11599  function _beforeTokenTransfer(... */\n    tag_204:\n      pop\n      pop\n      pop\n      jump\t// out\n        /* \"w-ERC20.sol\":12187:12307  function _afterTokenTransfer(... */\n    tag_211:\n      pop\n      pop\n      pop\n      jump\t// out\n        /* \"#utility.yul\":7:146   */\n    tag_238:\n        /* \"#utility.yul\":53:58   */\n      0x00\n        /* \"#utility.yul\":91:97   */\n      dup2\n        /* \"#utility.yul\":78:98   */\n      calldataload\n        /* \"#utility.yul\":69:98   */\n      swap1\n      pop\n        /* \"#utility.yul\":107:140   */\n      tag_240\n        /* \"#utility.yul\":134:139   */\n      dup2\n        /* \"#utility.yul\":107:140   */\n      tag_241\n      jump\t// in\n    tag_240:\n        /* \"#utility.yul\":7:146   */\n      swap3\n      swap2\n      pop\n      pop\n      jump\t// out\n        /* \"#utility.yul\":152:291   */\n    tag_242:\n        /* \"#utility.yul\":198:203   */\n      0x00\n        /* \"#utility.yul\":236:242   */\n      dup2\n        /* \"#utility.yul\":223:243   */\n      calldataload\n        /* \"#utility.yul\":214:243   */\n      swap1\n      pop\n        /* \"#utility.yul\":252:285   */\n      tag_244\n        /* \"#utility.yul\":279:284   */\n      dup2\n        /* \"#utility.yul\":252:285   */\n      tag_245\n      jump\t// in\n    tag_244:\n        /* \"#utility.yul\":152:291   */\n      swap3\n      swap2\n      pop\n      pop\n      jump\t// out\n        /* \"#utility.yul\":297:626   */\n    tag_56:\n        /* \"#utility.yul\":356:362   */\n      0x00\n        /* \"#utility.yul\":405:407   */\n      0x20\n        /* \"#utility.yul\":393:402   */\n      dup3\n        /* \"#utility.yul\":384:391   */\n      dup5\n        /* \"#utility.yul\":380:403   */\n      sub\n        /* \"#utility.yul\":376:408   */\n      slt\n        /* \"#utility.yul\":373:492   */\n      iszero\n      tag_247\n      jumpi\n        /* \"#utility.yul\":411:490   */\n      tag_248\n      tag_249\n      jump\t// in\n    tag_248:\n        /* \"#utility.yul\":373:492   */\n    tag_247:\n        /* \"#utility.yul\":531:532   */\n      0x00\n        /* \"#utility.yul\":556:609   */\n      tag_250\n        /* \"#utility.yul\":601:608   */\n      dup5\n        /* \"#utility.yul\":592:598   */\n      dup3\n        /* \"#utility.yul\":581:590   */\n      dup6\n        /* \"#utility.yul\":577:599   */\n      add\n        /* \"#utility.yul\":556:609   */\n      tag_238\n      jump\t// in\n    tag_250:\n        /* \"#utility.yul\":546:609   */\n      swap2\n      pop\n        /* \"#utility.yul\":502:619   */\n      pop\n        /* \"#utility.yul\":297:626   */\n      swap3\n      swap2\n      pop\n      pop\n      jump\t// out\n        /* \"#utility.yul\":632:1106   */\n    tag_84:\n        /* \"#utility.yul\":700:706   */\n      0x00\n        /* \"#utility.yul\":708:714   */\n      dup1\n        /* \"#utility.yul\":757:759   */\n      0x40\n        /* \"#utility.yul\":745:754   */\n      dup4\n        /* \"#utility.yul\":736:743   */\n      dup6\n        /* \"#utility.yul\":732:755   */\n      sub\n        /* \"#utility.yul\":728:760   */\n      slt\n        /* \"#utility.yul\":725:844   */\n      iszero\n      tag_252\n      jumpi\n        /* \"#utility.yul\":763:842   */\n      tag_253\n      tag_249\n      jump\t// in\n    tag_253:\n        /* \"#utility.yul\":725:844   */\n    tag_252:\n        /* \"#utility.yul\":883:884   */\n      0x00\n        /* \"#utility.yul\":908:961   */\n      tag_254\n        /* \"#utility.yul\":953:960   */\n      dup6\n        /* \"#utility.yul\":944:950   */\n      dup3\n        /* \"#utility.yul\":933:942   */\n      dup7\n        /* \"#utility.yul\":929:951   */\n      add\n        /* \"#utility.yul\":908:961   */\n      tag_238\n      jump\t// in\n    tag_254:\n        /* \"#utility.yul\":898:961   */\n      swap3\n      pop\n        /* \"#utility.yul\":854:971   */\n      pop\n        /* \"#utility.yul\":1010:1012   */\n      0x20\n        /* \"#utility.yul\":1036:1089   */\n      tag_255\n        /* \"#utility.yul\":1081:1088   */\n      dup6\n        /* \"#utility.yul\":1072:1078   */\n      dup3\n        /* \"#utility.yul\":1061:1070   */\n      dup7\n        /* \"#utility.yul\":1057:1079   */\n      add\n        /* \"#utility.yul\":1036:1089   */\n      tag_238\n      jump\t// in\n    tag_255:\n        /* \"#utility.yul\":1026:1089   */\n      swap2\n      pop\n        /* \"#utility.yul\":981:1099   */\n      pop\n        /* \"#utility.yul\":632:1106   */\n      swap3\n      pop\n      swap3\n      swap1\n      pop\n      jump\t// out\n        /* \"#utility.yul\":1112:1731   */\n    tag_40:\n        /* \"#utility.yul\":1189:1195   */\n      0x00\n        /* \"#utility.yul\":1197:1203   */\n      dup1\n        /* \"#utility.yul\":1205:1211   */\n      0x00\n        /* \"#utility.yul\":1254:1256   */\n      0x60\n        /* \"#utility.yul\":1242:1251   */\n      dup5\n        /* \"#utility.yul\":1233:1240   */\n      dup7\n        /* \"#utility.yul\":1229:1252   */\n      sub\n        /* \"#utility.yul\":1225:1257   */\n      slt\n        /* \"#utility.yul\":1222:1341   */\n      iszero\n      tag_257\n      jumpi\n        /* \"#utility.yul\":1260:1339   */\n      tag_258\n      tag_249\n      jump\t// in\n    tag_258:\n        /* \"#utility.yul\":1222:1341   */\n    tag_257:\n        /* \"#utility.yul\":1380:1381   */\n      0x00\n        /* \"#utility.yul\":1405:1458   */\n      tag_259\n        /* \"#utility.yul\":1450:1457   */\n      dup7\n        /* \"#utility.yul\":1441:1447   */\n      dup3\n        /* \"#utility.yul\":1430:1439   */\n      dup8\n        /* \"#utility.yul\":1426:1448   */\n      add\n        /* \"#utility.yul\":1405:1458   */\n      tag_238\n      jump\t// in\n    tag_259:\n        /* \"#utility.yul\":1395:1458   */\n      swap4\n      pop\n        /* \"#utility.yul\":1351:1468   */\n      pop\n        /* \"#utility.yul\":1507:1509   */\n      0x20\n        /* \"#utility.yul\":1533:1586   */\n      tag_260\n        /* \"#utility.yul\":1578:1585   */\n      dup7\n        /* \"#utility.yul\":1569:1575   */\n      dup3\n        /* \"#utility.yul\":1558:1567   */\n      dup8\n        /* \"#utility.yul\":1554:1576   */\n      add\n        /* \"#utility.yul\":1533:1586   */\n      tag_238\n      jump\t// in\n    tag_260:\n        /* \"#utility.yul\":1523:1586   */\n      swap3\n      pop\n        /* \"#utility.yul\":1478:1596   */\n      pop\n        /* \"#utility.yul\":1635:1637   */\n      0x40\n        /* \"#utility.yul\":1661:1714   */\n      tag_261\n        /* \"#utility.yul\":1706:1713   */\n      dup7\n        /* \"#utility.yul\":1697:1703   */\n      dup3\n        /* \"#utility.yul\":1686:1695   */\n      dup8\n        /* \"#utility.yul\":1682:1704   */\n      add\n        /* \"#utility.yul\":1661:1714   */\n      tag_242\n      jump\t// in\n    tag_261:\n        /* \"#utility.yul\":1651:1714   */\n      swap2\n      pop\n        /* \"#utility.yul\":1606:1724   */\n      pop\n        /* \"#utility.yul\":1112:1731   */\n      swap3\n      pop\n      swap3\n      pop\n      swap3\n      jump\t// out\n        /* \"#utility.yul\":1737:2211   */\n    tag_30:\n        /* \"#utility.yul\":1805:1811   */\n      0x00\n        /* \"#utility.yul\":1813:1819   */\n      dup1\n        /* \"#utility.yul\":1862:1864   */\n      0x40\n        /* \"#utility.yul\":1850:1859   */\n      dup4\n        /* \"#utility.yul\":1841:1848   */\n      dup6\n        /* \"#utility.yul\":1837:1860   */\n      sub\n        /* \"#utility.yul\":1833:1865   */\n      slt\n        /* \"#utility.yul\":1830:1949   */\n      iszero\n      tag_263\n      jumpi\n        /* \"#utility.yul\":1868:1947   */\n      tag_264\n      tag_249\n      jump\t// in\n    tag_264:\n        /* \"#utility.yul\":1830:1949   */\n    tag_263:\n        /* \"#utility.yul\":1988:1989   */\n      0x00\n        /* \"#utility.yul\":2013:2066   */\n      tag_265\n        /* \"#utility.yul\":2058:2065   */\n      dup6\n        /* \"#utility.yul\":2049:2055   */\n      dup3\n        /* \"#utility.yul\":2038:2047   */\n      dup7\n        /* \"#utility.yul\":2034:2056   */\n      add\n        /* \"#utility.yul\":2013:2066   */\n      tag_238\n      jump\t// in\n    tag_265:\n        /* \"#utility.yul\":2003:2066   */\n      swap3\n      pop\n        /* \"#utility.yul\":1959:2076   */\n      pop\n        /* \"#utility.yul\":2115:2117   */\n      0x20\n        /* \"#utility.yul\":2141:2194   */\n      tag_266\n        /* \"#utility.yul\":2186:2193   */\n      dup6\n        /* \"#utility.yul\":2177:2183   */\n      dup3\n        /* \"#utility.yul\":2166:2175   */\n      dup7\n        /* \"#utility.yul\":2162:2184   */\n      add\n        /* \"#utility.yul\":2141:2194   */\n      tag_242\n      jump\t// in\n    tag_266:\n        /* \"#utility.yul\":2131:2194   */\n      swap2\n      pop\n        /* \"#utility.yul\":2086:2204   */\n      pop\n        /* \"#utility.yul\":1737:2211   */\n      swap3\n      pop\n      swap3\n      swap1\n      pop\n      jump\t// out\n        /* \"#utility.yul\":2217:2335   */\n    tag_267:\n        /* \"#utility.yul\":2304:2328   */\n      tag_269\n        /* \"#utility.yul\":2322:2327   */\n      dup2\n        /* \"#utility.yul\":2304:2328   */\n      tag_270\n      jump\t// in\n    tag_269:\n        /* \"#utility.yul\":2299:2302   */\n      dup3\n        /* \"#utility.yul\":2292:2329   */\n      mstore\n        /* \"#utility.yul\":2217:2335   */\n      pop\n      pop\n      jump\t// out\n        /* \"#utility.yul\":2341:2450   */\n    tag_271:\n        /* \"#utility.yul\":2422:2443   */\n      tag_273\n        /* \"#utility.yul\":2437:2442   */\n      dup2\n        /* \"#utility.yul\":2422:2443   */\n      tag_274\n      jump\t// in\n    tag_273:\n        /* \"#utility.yul\":2417:2420   */\n      dup3\n        /* \"#utility.yul\":2410:2444   */\n      mstore\n        /* \"#utility.yul\":2341:2450   */\n      pop\n      pop\n      jump\t// out\n        /* \"#utility.yul\":2456:2820   */\n    tag_275:\n        /* \"#utility.yul\":2544:2547   */\n      0x00\n        /* \"#utility.yul\":2572:2611   */\n      tag_277\n        /* \"#utility.yul\":2605:2610   */\n      dup3\n        /* \"#utility.yul\":2572:2611   */\n      tag_278\n      jump\t// in\n    tag_277:\n        /* \"#utility.yul\":2627:2698   */\n      tag_279\n        /* \"#utility.yul\":2691:2697   */\n      dup2\n        /* \"#utility.yul\":2686:2689   */\n      dup6\n        /* \"#utility.yul\":2627:2698   */\n      tag_280\n      jump\t// in\n    tag_279:\n        /* \"#utility.yul\":2620:2698   */\n      swap4\n      pop\n        /* \"#utility.yul\":2707:2759   */\n      tag_281\n        /* \"#utility.yul\":2752:2758   */\n      dup2\n        /* \"#utility.yul\":2747:2750   */\n      dup6\n        /* \"#utility.yul\":2740:2744   */\n      0x20\n        /* \"#utility.yul\":2733:2738   */\n      dup7\n        /* \"#utility.yul\":2729:2745   */\n      add\n        /* \"#utility.yul\":2707:2759   */\n      tag_282\n      jump\t// in\n    tag_281:\n        /* \"#utility.yul\":2784:2813   */\n      tag_283\n        /* \"#utility.yul\":2806:2812   */\n      dup2\n        /* \"#utility.yul\":2784:2813   */\n      tag_284\n      jump\t// in\n    tag_283:\n        /* \"#utility.yul\":2779:2782   */\n      dup5\n        /* \"#utility.yul\":2775:2814   */\n      add\n        /* \"#utility.yul\":2768:2814   */\n      swap2\n      pop\n        /* \"#utility.yul\":2548:2820   */\n      pop\n        /* \"#utility.yul\":2456:2820   */\n      swap3\n      swap2\n      pop\n      pop\n      jump\t// out\n        /* \"#utility.yul\":2826:3192   */\n    tag_285:\n        /* \"#utility.yul\":2968:2971   */\n      0x00\n        /* \"#utility.yul\":2989:3056   */\n      tag_287\n        /* \"#utility.yul\":3053:3055   */\n      0x23\n        /* \"#utility.yul\":3048:3051   */\n      dup4\n        /* \"#utility.yul\":2989:3056   */\n      tag_280\n      jump\t// in\n    tag_287:\n        /* \"#utility.yul\":2982:3056   */\n      swap2\n      pop\n        /* \"#utility.yul\":3065:3158   */\n      tag_288\n        /* \"#utility.yul\":3154:3157   */\n      dup3\n        /* \"#utility.yul\":3065:3158   */\n      tag_289\n      jump\t// in\n    tag_288:\n        /* \"#utility.yul\":3183:3185   */\n      0x40\n        /* \"#utility.yul\":3178:3181   */\n      dup3\n        /* \"#utility.yul\":3174:3186   */\n      add\n        /* \"#utility.yul\":3167:3186   */\n      swap1\n      pop\n        /* \"#utility.yul\":2826:3192   */\n      swap2\n      swap1\n      pop\n      jump\t// out\n        /* \"#utility.yul\":3198:3564   */\n    tag_290:\n        /* \"#utility.yul\":3340:3343   */\n      0x00\n        /* \"#utility.yul\":3361:3428   */\n      tag_292\n        /* \"#utility.yul\":3425:3427   */\n      0x22\n        /* \"#utility.yul\":3420:3423   */\n      dup4\n        /* \"#utility.yul\":3361:3428   */\n      tag_280\n      jump\t// in\n    tag_292:\n        /* \"#utility.yul\":3354:3428   */\n      swap2\n      pop\n        /* \"#utility.yul\":3437:3530   */\n      tag_293\n        /* \"#utility.yul\":3526:3529   */\n      dup3\n        /* \"#utility.yul\":3437:3530   */\n      tag_294\n      jump\t// in\n    tag_293:\n        /* \"#utility.yul\":3555:3557   */\n      0x40\n        /* \"#utility.yul\":3550:3553   */\n      dup3\n        /* \"#utility.yul\":3546:3558   */\n      add\n        /* \"#utility.yul\":3539:3558   */\n      swap1\n      pop\n        /* \"#utility.yul\":3198:3564   */\n      swap2\n      swap1\n      pop\n      jump\t// out\n        /* \"#utility.yul\":3570:3936   */\n    tag_295:\n        /* \"#utility.yul\":3712:3715   */\n      0x00\n        /* \"#utility.yul\":3733:3800   */\n      tag_297\n        /* \"#utility.yul\":3797:3799   */\n      0x26\n        /* \"#utility.yul\":3792:3795   */\n      dup4\n        /* \"#utility.yul\":3733:3800   */\n      tag_280\n      jump\t// in\n    tag_297:\n        /* \"#utility.yul\":3726:3800   */\n      swap2\n      pop\n        /* \"#utility.yul\":3809:3902   */\n      tag_298\n        /* \"#utility.yul\":3898:3901   */\n      dup3\n        /* \"#utility.yul\":3809:3902   */\n      tag_299\n      jump\t// in\n    tag_298:\n        /* \"#utility.yul\":3927:3929   */\n      0x40\n        /* \"#utility.yul\":3922:3925   */\n      dup3\n        /* \"#utility.yul\":3918:3930   */\n      add\n        /* \"#utility.yul\":3911:3930   */\n      swap1\n      pop\n        /* \"#utility.yul\":3570:3936   */\n      swap2\n      swap1\n      pop\n      jump\t// out\n        /* \"#utility.yul\":3942:4308   */\n    tag_300:\n        /* \"#utility.yul\":4084:4087   */\n      0x00\n        /* \"#utility.yul\":4105:4172   */\n      tag_302\n        /* \"#utility.yul\":4169:4171   */\n      0x22\n        /* \"#utility.yul\":4164:4167   */\n      dup4\n        /* \"#utility.yul\":4105:4172   */\n      tag_280\n      jump\t// in\n    tag_302:\n        /* \"#utility.yul\":4098:4172   */\n      swap2\n      pop\n        /* \"#utility.yul\":4181:4274   */\n      tag_303\n        /* \"#utility.yul\":4270:4273   */\n      dup3\n        /* \"#utility.yul\":4181:4274   */\n      tag_304\n      jump\t// in\n    tag_303:\n        /* \"#utility.yul\":4299:4301   */\n      0x40\n        /* \"#utility.yul\":4294:4297   */\n      dup3\n        /* \"#utility.yul\":4290:4302   */\n      add\n        /* \"#utility.yul\":4283:4302   */\n      swap1\n      pop\n        /* \"#utility.yul\":3942:4308   */\n      swap2\n      swap1\n      pop\n      jump\t// out\n        /* \"#utility.yul\":4314:4680   */\n    tag_305:\n        /* \"#utility.yul\":4456:4459   */\n      0x00\n        /* \"#utility.yul\":4477:4544   */\n      tag_307\n        /* \"#utility.yul\":4541:4543   */\n      0x15\n        /* \"#utility.yul\":4536:4539   */\n      dup4\n        /* \"#utility.yul\":4477:4544   */\n      tag_280\n      jump\t// in\n    tag_307:\n        /* \"#utility.yul\":4470:4544   */\n      swap2\n      pop\n        /* \"#utility.yul\":4553:4646   */\n      tag_308\n        /* \"#utility.yul\":4642:4645   */\n      dup3\n        /* \"#utility.yul\":4553:4646   */\n      tag_309\n      jump\t// in\n    tag_308:\n        /* \"#utility.yul\":4671:4673   */\n      0x20\n        /* \"#utility.yul\":4666:4669   */\n      dup3\n        /* \"#utility.yul\":4662:4674   */\n      add\n        /* \"#utility.yul\":4655:4674   */\n      swap1\n      pop\n        /* \"#utility.yul\":4314:4680   */\n      swap2\n      swap1\n      pop\n      jump\t// out\n        /* \"#utility.yul\":4686:5052   */\n    tag_310:\n        /* \"#utility.yul\":4828:4831   */\n      0x00\n        /* \"#utility.yul\":4849:4916   */\n      tag_312\n        /* \"#utility.yul\":4913:4915   */\n      0x26\n        /* \"#utility.yul\":4908:4911   */\n      dup4\n        /* \"#utility.yul\":4849:4916   */\n      tag_280\n      jump\t// in\n    tag_312:\n        /* \"#utility.yul\":4842:4916   */\n      swap2\n      pop\n        /* \"#utility.yul\":4925:5018   */\n      tag_313\n        /* \"#utility.yul\":5014:5017   */\n      dup3\n        /* \"#utility.yul\":4925:5018   */\n      tag_314\n      jump\t// in\n    tag_313:\n        /* \"#utility.yul\":5043:5045   */\n      0x40\n        /* \"#utility.yul\":5038:5041   */\n      dup3\n        /* \"#utility.yul\":5034:5046   */\n      add\n        /* \"#utility.yul\":5027:5046   */\n      swap1\n      pop\n        /* \"#utility.yul\":4686:5052   */\n      swap2\n      swap1\n      pop\n      jump\t// out\n        /* \"#utility.yul\":5058:5424   */\n    tag_315:\n        /* \"#utility.yul\":5200:5203   */\n      0x00\n        /* \"#utility.yul\":5221:5288   */\n      tag_317\n        /* \"#utility.yul\":5285:5287   */\n      0x28\n        /* \"#utility.yul\":5280:5283   */\n      dup4\n        /* \"#utility.yul\":5221:5288   */\n      tag_280\n      jump\t// in\n    tag_317:\n        /* \"#utility.yul\":5214:5288   */\n      swap2\n      pop\n        /* \"#utility.yul\":5297:5390   */\n      tag_318\n        /* \"#utility.yul\":5386:5389   */\n      dup3\n        /* \"#utility.yul\":5297:5390   */\n      tag_319\n      jump\t// in\n    tag_318:\n        /* \"#utility.yul\":5415:5417   */\n      0x40\n        /* \"#utility.yul\":5410:5413   */\n      dup3\n        /* \"#utility.yul\":5406:5418   */\n      add\n        /* \"#utility.yul\":5399:5418   */\n      swap1\n      pop\n        /* \"#utility.yul\":5058:5424   */\n      swap2\n      swap1\n      pop\n      jump\t// out\n        /* \"#utility.yul\":5430:5796   */\n    tag_320:\n        /* \"#utility.yul\":5572:5575   */\n      0x00\n        /* \"#utility.yul\":5593:5660   */\n      tag_322\n        /* \"#utility.yul\":5657:5659   */\n      0x20\n        /* \"#utility.yul\":5652:5655   */\n      dup4\n        /* \"#utility.yul\":5593:5660   */\n      tag_280\n      jump\t// in\n    tag_322:\n        /* \"#utility.yul\":5586:5660   */\n      swap2\n      pop\n        /* \"#utility.yul\":5669:5762   */\n      tag_323\n        /* \"#utility.yul\":5758:5761   */\n      dup3\n        /* \"#utility.yul\":5669:5762   */\n      tag_324\n      jump\t// in\n    tag_323:\n        /* \"#utility.yul\":5787:5789   */\n      0x20\n        /* \"#utility.yul\":5782:5785   */\n      dup3\n        /* \"#utility.yul\":5778:5790   */\n      add\n        /* \"#utility.yul\":5771:5790   */\n      swap1\n      pop\n        /* \"#utility.yul\":5430:5796   */\n      swap2\n      swap1\n      pop\n      jump\t// out\n        /* \"#utility.yul\":5802:6168   */\n    tag_325:\n        /* \"#utility.yul\":5944:5947   */\n      0x00\n        /* \"#utility.yul\":5965:6032   */\n      tag_327\n        /* \"#utility.yul\":6029:6031   */\n      0x21\n        /* \"#utility.yul\":6024:6027   */\n      dup4\n        /* \"#utility.yul\":5965:6032   */\n      tag_280\n      jump\t// in\n    tag_327:\n        /* \"#utility.yul\":5958:6032   */\n      swap2\n      pop\n        /* \"#utility.yul\":6041:6134   */\n      tag_328\n        /* \"#utility.yul\":6130:6133   */\n      dup3\n        /* \"#utility.yul\":6041:6134   */\n      tag_329\n      jump\t// in\n    tag_328:\n        /* \"#utility.yul\":6159:6161   */\n      0x40\n        /* \"#utility.yul\":6154:6157   */\n      dup3\n        /* \"#utility.yul\":6150:6162   */\n      add\n        /* \"#utility.yul\":6143:6162   */\n      swap1\n      pop\n        /* \"#utility.yul\":5802:6168   */\n      swap2\n      swap1\n      pop\n      jump\t// out\n        /* \"#utility.yul\":6174:6540   */\n    tag_330:\n        /* \"#utility.yul\":6316:6319   */\n      0x00\n        /* \"#utility.yul\":6337:6404   */\n      tag_332\n        /* \"#utility.yul\":6401:6403   */\n      0x25\n        /* \"#utility.yul\":6396:6399   */\n      dup4\n        /* \"#utility.yul\":6337:6404   */\n      tag_280\n      jump\t// in\n    tag_332:\n        /* \"#utility.yul\":6330:6404   */\n      swap2\n      pop\n        /* \"#utility.yul\":6413:6506   */\n      tag_333\n        /* \"#utility.yul\":6502:6505   */\n      dup3\n        /* \"#utility.yul\":6413:6506   */\n      tag_334\n      jump\t// in\n    tag_333:\n        /* \"#utility.yul\":6531:6533   */\n      0x40\n        /* \"#utility.yul\":6526:6529   */\n      dup3\n        /* \"#utility.yul\":6522:6534   */\n      add\n        /* \"#utility.yul\":6515:6534   */\n      swap1\n      pop\n        /* \"#utility.yul\":6174:6540   */\n      swap2\n      swap1\n      pop\n      jump\t// out\n        /* \"#utility.yul\":6546:6912   */\n    tag_335:\n        /* \"#utility.yul\":6688:6691   */\n      0x00\n        /* \"#utility.yul\":6709:6776   */\n      tag_337\n        /* \"#utility.yul\":6773:6775   */\n      0x24\n        /* \"#utility.yul\":6768:6771   */\n      dup4\n        /* \"#utility.yul\":6709:6776   */\n      tag_280\n      jump\t// in\n    tag_337:\n        /* \"#utility.yul\":6702:6776   */\n      swap2\n      pop\n        /* \"#utility.yul\":6785:6878   */\n      tag_338\n        /* \"#utility.yul\":6874:6877   */\n      dup3\n        /* \"#utility.yul\":6785:6878   */\n      tag_339\n      jump\t// in\n    tag_338:\n        /* \"#utility.yul\":6903:6905   */\n      0x40\n        /* \"#utility.yul\":6898:6901   */\n      dup3\n        /* \"#utility.yul\":6894:6906   */\n      add\n        /* \"#utility.yul\":6887:6906   */\n      swap1\n      pop\n        /* \"#utility.yul\":6546:6912   */\n      swap2\n      swap1\n      pop\n      jump\t// out\n        /* \"#utility.yul\":6918:7284   */\n    tag_340:\n        /* \"#utility.yul\":7060:7063   */\n      0x00\n        /* \"#utility.yul\":7081:7148   */\n      tag_342\n        /* \"#utility.yul\":7145:7147   */\n      0x25\n        /* \"#utility.yul\":7140:7143   */\n      dup4\n        /* \"#utility.yul\":7081:7148   */\n      tag_280\n      jump\t// in\n    tag_342:\n        /* \"#utility.yul\":7074:7148   */\n      swap2\n      pop\n        /* \"#utility.yul\":7157:7250   */\n      tag_343\n        /* \"#utility.yul\":7246:7249   */\n      dup3\n        /* \"#utility.yul\":7157:7250   */\n      tag_344\n      jump\t// in\n    tag_343:\n        /* \"#utility.yul\":7275:7277   */\n      0x40\n        /* \"#utility.yul\":7270:7273   */\n      dup3\n        /* \"#utility.yul\":7266:7278   */\n      add\n        /* \"#utility.yul\":7259:7278   */\n      swap1\n      pop\n        /* \"#utility.yul\":6918:7284   */\n      swap2\n      swap1\n      pop\n      jump\t// out\n        /* \"#utility.yul\":7290:7656   */\n    tag_345:\n        /* \"#utility.yul\":7432:7435   */\n      0x00\n        /* \"#utility.yul\":7453:7520   */\n      tag_347\n        /* \"#utility.yul\":7517:7519   */\n      0x1f\n        /* \"#utility.yul\":7512:7515   */\n      dup4\n        /* \"#utility.yul\":7453:7520   */\n      tag_280\n      jump\t// in\n    tag_347:\n        /* \"#utility.yul\":7446:7520   */\n      swap2\n      pop\n        /* \"#utility.yul\":7529:7622   */\n      tag_348\n        /* \"#utility.yul\":7618:7621   */\n      dup3\n        /* \"#utility.yul\":7529:7622   */\n      tag_349\n      jump\t// in\n    tag_348:\n        /* \"#utility.yul\":7647:7649   */\n      0x20\n        /* \"#utility.yul\":7642:7645   */\n      dup3\n        /* \"#utility.yul\":7638:7650   */\n      add\n        /* \"#utility.yul\":7631:7650   */\n      swap1\n      pop\n        /* \"#utility.yul\":7290:7656   */\n      swap2\n      swap1\n      pop\n      jump\t// out\n        /* \"#utility.yul\":7662:7780   */\n    tag_350:\n        /* \"#utility.yul\":7749:7773   */\n      tag_352\n        /* \"#utility.yul\":7767:7772   */\n      dup2\n        /* \"#utility.yul\":7749:7773   */\n      tag_353\n      jump\t// in\n    tag_352:\n        /* \"#utility.yul\":7744:7747   */\n      dup3\n        /* \"#utility.yul\":7737:7774   */\n      mstore\n        /* \"#utility.yul\":7662:7780   */\n      pop\n      pop\n      jump\t// out\n        /* \"#utility.yul\":7786:7898   */\n    tag_354:\n        /* \"#utility.yul\":7869:7891   */\n      tag_356\n        /* \"#utility.yul\":7885:7890   */\n      dup2\n        /* \"#utility.yul\":7869:7891   */\n      tag_357\n      jump\t// in\n    tag_356:\n        /* \"#utility.yul\":7864:7867   */\n      dup3\n        /* \"#utility.yul\":7857:7892   */\n      mstore\n        /* \"#utility.yul\":7786:7898   */\n      pop\n      pop\n      jump\t// out\n        /* \"#utility.yul\":7904:8126   */\n    tag_64:\n        /* \"#utility.yul\":7997:8001   */\n      0x00\n        /* \"#utility.yul\":8035:8037   */\n      0x20\n        /* \"#utility.yul\":8024:8033   */\n      dup3\n        /* \"#utility.yul\":8020:8038   */\n      add\n        /* \"#utility.yul\":8012:8038   */\n      swap1\n      pop\n        /* \"#utility.yul\":8048:8119   */\n      tag_359\n        /* \"#utility.yul\":8116:8117   */\n      0x00\n        /* \"#utility.yul\":8105:8114   */\n      dup4\n        /* \"#utility.yul\":8101:8118   */\n      add\n        /* \"#utility.yul\":8092:8098   */\n      dup5\n        /* \"#utility.yul\":8048:8119   */\n      tag_267\n      jump\t// in\n    tag_359:\n        /* \"#utility.yul\":7904:8126   */\n      swap3\n      swap2\n      pop\n      pop\n      jump\t// out\n        /* \"#utility.yul\":8132:8342   */\n    tag_33:\n        /* \"#utility.yul\":8219:8223   */\n      0x00\n        /* \"#utility.yul\":8257:8259   */\n      0x20\n        /* \"#utility.yul\":8246:8255   */\n      dup3\n        /* \"#utility.yul\":8242:8260   */\n      add\n        /* \"#utility.yul\":8234:8260   */\n      swap1\n      pop\n        /* \"#utility.yul\":8270:8335   */\n      tag_361\n        /* \"#utility.yul\":8332:8333   */\n      0x00\n        /* \"#utility.yul\":8321:8330   */\n      dup4\n        /* \"#utility.yul\":8317:8334   */\n      add\n        /* \"#utility.yul\":8308:8314   */\n      dup5\n        /* \"#utility.yul\":8270:8335   */\n      tag_271\n      jump\t// in\n    tag_361:\n        /* \"#utility.yul\":8132:8342   */\n      swap3\n      swap2\n      pop\n      pop\n      jump\t// out\n        /* \"#utility.yul\":8348:8661   */\n    tag_27:\n        /* \"#utility.yul\":8461:8465   */\n      0x00\n        /* \"#utility.yul\":8499:8501   */\n      0x20\n        /* \"#utility.yul\":8488:8497   */\n      dup3\n        /* \"#utility.yul\":8484:8502   */\n      add\n        /* \"#utility.yul\":8476:8502   */\n      swap1\n      pop\n        /* \"#utility.yul\":8548:8557   */\n      dup2\n        /* \"#utility.yul\":8542:8546   */\n      dup2\n        /* \"#utility.yul\":8538:8558   */\n      sub\n        /* \"#utility.yul\":8534:8535   */\n      0x00\n        /* \"#utility.yul\":8523:8532   */\n      dup4\n        /* \"#utility.yul\":8519:8536   */\n      add\n        /* \"#utility.yul\":8512:8559   */\n      mstore\n        /* \"#utility.yul\":8576:8654   */\n      tag_363\n        /* \"#utility.yul\":8649:8653   */\n      dup2\n        /* \"#utility.yul\":8640:8646   */\n      dup5\n        /* \"#utility.yul\":8576:8654   */\n      tag_275\n      jump\t// in\n    tag_363:\n        /* \"#utility.yul\":8568:8654   */\n      swap1\n      pop\n        /* \"#utility.yul\":8348:8661   */\n      swap3\n      swap2\n      pop\n      pop\n      jump\t// out\n        /* \"#utility.yul\":8667:9086   */\n    tag_202:\n        /* \"#utility.yul\":8833:8837   */\n      0x00\n        /* \"#utility.yul\":8871:8873   */\n      0x20\n        /* \"#utility.yul\":8860:8869   */\n      dup3\n        /* \"#utility.yul\":8856:8874   */\n      add\n        /* \"#utility.yul\":8848:8874   */\n      swap1\n      pop\n        /* \"#utility.yul\":8920:8929   */\n      dup2\n        /* \"#utility.yul\":8914:8918   */\n      dup2\n        /* \"#utility.yul\":8910:8930   */\n      sub\n        /* \"#utility.yul\":8906:8907   */\n      0x00\n        /* \"#utility.yul\":8895:8904   */\n      dup4\n        /* \"#utility.yul\":8891:8908   */\n      add\n        /* \"#utility.yul\":8884:8931   */\n      mstore\n        /* \"#utility.yul\":8948:9079   */\n      tag_365\n        /* \"#utility.yul\":9074:9078   */\n      dup2\n        /* \"#utility.yul\":8948:9079   */\n      tag_285\n      jump\t// in\n    tag_365:\n        /* \"#utility.yul\":8940:9079   */\n      swap1\n      pop\n        /* \"#utility.yul\":8667:9086   */\n      swap2\n      swap1\n      pop\n      jump\t// out\n        /* \"#utility.yul\":9092:9511   */\n    tag_229:\n        /* \"#utility.yul\":9258:9262   */\n      0x00\n        /* \"#utility.yul\":9296:9298   */\n      0x20\n        /* \"#utility.yul\":9285:9294   */\n      dup3\n        /* \"#utility.yul\":9281:9299   */\n      add\n        /* \"#utility.yul\":9273:9299   */\n      swap1\n      pop\n        /* \"#utility.yul\":9345:9354   */\n      dup2\n        /* \"#utility.yul\":9339:9343   */\n      dup2\n        /* \"#utility.yul\":9335:9355   */\n      sub\n        /* \"#utility.yul\":9331:9332   */\n      0x00\n        /* \"#utility.yul\":9320:9329   */\n      dup4\n        /* \"#utility.yul\":9316:9333   */\n      add\n        /* \"#utility.yul\":9309:9356   */\n      mstore\n        /* \"#utility.yul\":9373:9504   */\n      tag_367\n        /* \"#utility.yul\":9499:9503   */\n      dup2\n        /* \"#utility.yul\":9373:9504   */\n      tag_290\n      jump\t// in\n    tag_367:\n        /* \"#utility.yul\":9365:9504   */\n      swap1\n      pop\n        /* \"#utility.yul\":9092:9511   */\n      swap2\n      swap1\n      pop\n      jump\t// out\n        /* \"#utility.yul\":9517:9936   */\n    tag_179:\n        /* \"#utility.yul\":9683:9687   */\n      0x00\n        /* \"#utility.yul\":9721:9723   */\n      0x20\n        /* \"#utility.yul\":9710:9719   */\n      dup3\n        /* \"#utility.yul\":9706:9724   */\n      add\n        /* \"#utility.yul\":9698:9724   */\n      swap1\n      pop\n        /* \"#utility.yul\":9770:9779   */\n      dup2\n        /* \"#utility.yul\":9764:9768   */\n      dup2\n        /* \"#utility.yul\":9760:9780   */\n      sub\n        /* \"#utility.yul\":9756:9757   */\n      0x00\n        /* \"#utility.yul\":9745:9754   */\n      dup4\n        /* \"#utility.yul\":9741:9758   */\n      add\n        /* \"#utility.yul\":9734:9781   */\n      mstore\n        /* \"#utility.yul\":9798:9929   */\n      tag_369\n        /* \"#utility.yul\":9924:9928   */\n      dup2\n        /* \"#utility.yul\":9798:9929   */\n      tag_295\n      jump\t// in\n    tag_369:\n        /* \"#utility.yul\":9790:9929   */\n      swap1\n      pop\n        /* \"#utility.yul\":9517:9936   */\n      swap2\n      swap1\n      pop\n      jump\t// out\n        /* \"#utility.yul\":9942:10361   */\n    tag_194:\n        /* \"#utility.yul\":10108:10112   */\n      0x00\n        /* \"#utility.yul\":10146:10148   */\n      0x20\n        /* \"#utility.yul\":10135:10144   */\n      dup3\n        /* \"#utility.yul\":10131:10149   */\n      add\n        /* \"#utility.yul\":10123:10149   */\n      swap1\n      pop\n        /* \"#utility.yul\":10195:10204   */\n      dup2\n        /* \"#utility.yul\":10189:10193   */\n      dup2\n        /* \"#utility.yul\":10185:10205   */\n      sub\n        /* \"#utility.yul\":10181:10182   */\n      0x00\n        /* \"#utility.yul\":10170:10179   */\n      dup4\n        /* \"#utility.yul\":10166:10183   */\n      add\n        /* \"#utility.yul\":10159:10206   */\n      mstore\n        /* \"#utility.yul\":10223:10354   */\n      tag_371\n        /* \"#utility.yul\":10349:10353   */\n      dup2\n        /* \"#utility.yul\":10223:10354   */\n      tag_300\n      jump\t// in\n    tag_371:\n        /* \"#utility.yul\":10215:10354   */\n      swap1\n      pop\n        /* \"#utility.yul\":9942:10361   */\n      swap2\n      swap1\n      pop\n      jump\t// out\n        /* \"#utility.yul\":10367:10786   */\n    tag_109:\n        /* \"#utility.yul\":10533:10537   */\n      0x00\n        /* \"#utility.yul\":10571:10573   */\n      0x20\n        /* \"#utility.yul\":10560:10569   */\n      dup3\n        /* \"#utility.yul\":10556:10574   */\n      add\n        /* \"#utility.yul\":10548:10574   */\n      swap1\n      pop\n        /* \"#utility.yul\":10620:10629   */\n      dup2\n        /* \"#utility.yul\":10614:10618   */\n      dup2\n        /* \"#utility.yul\":10610:10630   */\n      sub\n        /* \"#utility.yul\":10606:10607   */\n      0x00\n        /* \"#utility.yul\":10595:10604   */\n      dup4\n        /* \"#utility.yul\":10591:10608   */\n      add\n        /* \"#utility.yul\":10584:10631   */\n      mstore\n        /* \"#utility.yul\":10648:10779   */\n      tag_373\n        /* \"#utility.yul\":10774:10778   */\n      dup2\n        /* \"#utility.yul\":10648:10779   */\n      tag_305\n      jump\t// in\n    tag_373:\n        /* \"#utility.yul\":10640:10779   */\n      swap1\n      pop\n        /* \"#utility.yul\":10367:10786   */\n      swap2\n      swap1\n      pop\n      jump\t// out\n        /* \"#utility.yul\":10792:11211   */\n    tag_207:\n        /* \"#utility.yul\":10958:10962   */\n      0x00\n        /* \"#utility.yul\":10996:10998   */\n      0x20\n        /* \"#utility.yul\":10985:10994   */\n      dup3\n        /* \"#utility.yul\":10981:10999   */\n      add\n        /* \"#utility.yul\":10973:10999   */\n      swap1\n      pop\n        /* \"#utility.yul\":11045:11054   */\n      dup2\n        /* \"#utility.yul\":11039:11043   */\n      dup2\n        /* \"#utility.yul\":11035:11055   */\n      sub\n        /* \"#utility.yul\":11031:11032   */\n      0x00\n        /* \"#utility.yul\":11020:11029   */\n      dup4\n        /* \"#utility.yul\":11016:11033   */\n      add\n        /* \"#utility.yul\":11009:11056   */\n      mstore\n        /* \"#utility.yul\":11073:11204   */\n      tag_375\n        /* \"#utility.yul\":11199:11203   */\n      dup2\n        /* \"#utility.yul\":11073:11204   */\n      tag_310\n      jump\t// in\n    tag_375:\n        /* \"#utility.yul\":11065:11204   */\n      swap1\n      pop\n        /* \"#utility.yul\":10792:11211   */\n      swap2\n      swap1\n      pop\n      jump\t// out\n        /* \"#utility.yul\":11217:11636   */\n    tag_116:\n        /* \"#utility.yul\":11383:11387   */\n      0x00\n        /* \"#utility.yul\":11421:11423   */\n      0x20\n        /* \"#utility.yul\":11410:11419   */\n      dup3\n        /* \"#utility.yul\":11406:11424   */\n      add\n        /* \"#utility.yul\":11398:11424   */\n      swap1\n      pop\n        /* \"#utility.yul\":11470:11479   */\n      dup2\n        /* \"#utility.yul\":11464:11468   */\n      dup2\n        /* \"#utility.yul\":11460:11480   */\n      sub\n        /* \"#utility.yul\":11456:11457   */\n      0x00\n        /* \"#utility.yul\":11445:11454   */\n      dup4\n        /* \"#utility.yul\":11441:11458   */\n      add\n        /* \"#utility.yul\":11434:11481   */\n      mstore\n        /* \"#utility.yul\":11498:11629   */\n      tag_377\n        /* \"#utility.yul\":11624:11628   */\n      dup2\n        /* \"#utility.yul\":11498:11629   */\n      tag_315\n      jump\t// in\n    tag_377:\n        /* \"#utility.yul\":11490:11629   */\n      swap1\n      pop\n        /* \"#utility.yul\":11217:11636   */\n      swap2\n      swap1\n      pop\n      jump\t// out\n        /* \"#utility.yul\":11642:12061   */\n    tag_135:\n        /* \"#utility.yul\":11808:11812   */\n      0x00\n        /* \"#utility.yul\":11846:11848   */\n      0x20\n        /* \"#utility.yul\":11835:11844   */\n      dup3\n        /* \"#utility.yul\":11831:11849   */\n      add\n        /* \"#utility.yul\":11823:11849   */\n      swap1\n      pop\n        /* \"#utility.yul\":11895:11904   */\n      dup2\n        /* \"#utility.yul\":11889:11893   */\n      dup2\n        /* \"#utility.yul\":11885:11905   */\n      sub\n        /* \"#utility.yul\":11881:11882   */\n      0x00\n        /* \"#utility.yul\":11870:11879   */\n      dup4\n        /* \"#utility.yul\":11866:11883   */\n      add\n        /* \"#utility.yul\":11859:11906   */\n      mstore\n        /* \"#utility.yul\":11923:12054   */\n      tag_379\n        /* \"#utility.yul\":12049:12053   */\n      dup2\n        /* \"#utility.yul\":11923:12054   */\n      tag_320\n      jump\t// in\n    tag_379:\n        /* \"#utility.yul\":11915:12054   */\n      swap1\n      pop\n        /* \"#utility.yul\":11642:12061   */\n      swap2\n      swap1\n      pop\n      jump\t// out\n        /* \"#utility.yul\":12067:12486   */\n    tag_225:\n        /* \"#utility.yul\":12233:12237   */\n      0x00\n        /* \"#utility.yul\":12271:12273   */\n      0x20\n        /* \"#utility.yul\":12260:12269   */\n      dup3\n        /* \"#utility.yul\":12256:12274   */\n      add\n        /* \"#utility.yul\":12248:12274   */\n      swap1\n      pop\n        /* \"#utility.yul\":12320:12329   */\n      dup2\n        /* \"#utility.yul\":12314:12318   */\n      dup2\n        /* \"#utility.yul\":12310:12330   */\n      sub\n        /* \"#utility.yul\":12306:12307   */\n      0x00\n        /* \"#utility.yul\":12295:12304   */\n      dup4\n        /* \"#utility.yul\":12291:12308   */\n      add\n        /* \"#utility.yul\":12284:12331   */\n      mstore\n        /* \"#utility.yul\":12348:12479   */\n      tag_381\n        /* \"#utility.yul\":12474:12478   */\n      dup2\n        /* \"#utility.yul\":12348:12479   */\n      tag_325\n      jump\t// in\n    tag_381:\n        /* \"#utility.yul\":12340:12479   */\n      swap1\n      pop\n        /* \"#utility.yul\":12067:12486   */\n      swap2\n      swap1\n      pop\n      jump\t// out\n        /* \"#utility.yul\":12492:12911   */\n    tag_199:\n        /* \"#utility.yul\":12658:12662   */\n      0x00\n        /* \"#utility.yul\":12696:12698   */\n      0x20\n        /* \"#utility.yul\":12685:12694   */\n      dup3\n        /* \"#utility.yul\":12681:12699   */\n      add\n        /* \"#utility.yul\":12673:12699   */\n      swap1\n      pop\n        /* \"#utility.yul\":12745:12754   */\n      dup2\n        /* \"#utility.yul\":12739:12743   */\n      dup2\n        /* \"#utility.yul\":12735:12755   */\n      sub\n        /* \"#utility.yul\":12731:12732   */\n      0x00\n        /* \"#utility.yul\":12720:12729   */\n      dup4\n        /* \"#utility.yul\":12716:12733   */\n      add\n        /* \"#utility.yul\":12709:12756   */\n      mstore\n        /* \"#utility.yul\":12773:12904   */\n      tag_383\n        /* \"#utility.yul\":12899:12903   */\n      dup2\n        /* \"#utility.yul\":12773:12904   */\n      tag_330\n      jump\t// in\n    tag_383:\n        /* \"#utility.yul\":12765:12904   */\n      swap1\n      pop\n        /* \"#utility.yul\":12492:12911   */\n      swap2\n      swap1\n      pop\n      jump\t// out\n        /* \"#utility.yul\":12917:13336   */\n    tag_191:\n        /* \"#utility.yul\":13083:13087   */\n      0x00\n        /* \"#utility.yul\":13121:13123   */\n      0x20\n        /* \"#utility.yul\":13110:13119   */\n      dup3\n        /* \"#utility.yul\":13106:13124   */\n      add\n        /* \"#utility.yul\":13098:13124   */\n      swap1\n      pop\n        /* \"#utility.yul\":13170:13179   */\n      dup2\n        /* \"#utility.yul\":13164:13168   */\n      dup2\n        /* \"#utility.yul\":13160:13180   */\n      sub\n        /* \"#utility.yul\":13156:13157   */\n      0x00\n        /* \"#utility.yul\":13145:13154   */\n      dup4\n        /* \"#utility.yul\":13141:13158   */\n      add\n        /* \"#utility.yul\":13134:13181   */\n      mstore\n        /* \"#utility.yul\":13198:13329   */\n      tag_385\n        /* \"#utility.yul\":13324:13328   */\n      dup2\n        /* \"#utility.yul\":13198:13329   */\n      tag_335\n      jump\t// in\n    tag_385:\n        /* \"#utility.yul\":13190:13329   */\n      swap1\n      pop\n        /* \"#utility.yul\":12917:13336   */\n      swap2\n      swap1\n      pop\n      jump\t// out\n        /* \"#utility.yul\":13342:13761   */\n    tag_153:\n        /* \"#utility.yul\":13508:13512   */\n      0x00\n        /* \"#utility.yul\":13546:13548   */\n      0x20\n        /* \"#utility.yul\":13535:13544   */\n      dup3\n        /* \"#utility.yul\":13531:13549   */\n      add\n        /* \"#utility.yul\":13523:13549   */\n      swap1\n      pop\n        /* \"#utility.yul\":13595:13604   */\n      dup2\n        /* \"#utility.yul\":13589:13593   */\n      dup2\n        /* \"#utility.yul\":13585:13605   */\n      sub\n        /* \"#utility.yul\":13581:13582   */\n      0x00\n        /* \"#utility.yul\":13570:13579   */\n      dup4\n        /* \"#utility.yul\":13566:13583   */\n      add\n        /* \"#utility.yul\":13559:13606   */\n      mstore\n        /* \"#utility.yul\":13623:13754   */\n      tag_387\n        /* \"#utility.yul\":13749:13753   */\n      dup2\n        /* \"#utility.yul\":13623:13754   */\n      tag_340\n      jump\t// in\n    tag_387:\n        /* \"#utility.yul\":13615:13754   */\n      swap1\n      pop\n        /* \"#utility.yul\":13342:13761   */\n      swap2\n      swap1\n      pop\n      jump\t// out\n        /* \"#utility.yul\":13767:14186   */\n    tag_215:\n        /* \"#utility.yul\":13933:13937   */\n      0x00\n        /* \"#utility.yul\":13971:13973   */\n      0x20\n        /* \"#utility.yul\":13960:13969   */\n      dup3\n        /* \"#utility.yul\":13956:13974   */\n      add\n        /* \"#utility.yul\":13948:13974   */\n      swap1\n      pop\n        /* \"#utility.yul\":14020:14029   */\n      dup2\n        /* \"#utility.yul\":14014:14018   */\n      dup2\n        /* \"#utility.yul\":14010:14030   */\n      sub\n        /* \"#utility.yul\":14006:14007   */\n      0x00\n        /* \"#utility.yul\":13995:14004   */\n      dup4\n        /* \"#utility.yul\":13991:14008   */\n      add\n        /* \"#utility.yul\":13984:14031   */\n      mstore\n        /* \"#utility.yul\":14048:14179   */\n      tag_389\n        /* \"#utility.yul\":14174:14178   */\n      dup2\n        /* \"#utility.yul\":14048:14179   */\n      tag_345\n      jump\t// in\n    tag_389:\n        /* \"#utility.yul\":14040:14179   */\n      swap1\n      pop\n        /* \"#utility.yul\":13767:14186   */\n      swap2\n      swap1\n      pop\n      jump\t// out\n        /* \"#utility.yul\":14192:14414   */\n    tag_37:\n        /* \"#utility.yul\":14285:14289   */\n      0x00\n        /* \"#utility.yul\":14323:14325   */\n      0x20\n        /* \"#utility.yul\":14312:14321   */\n      dup3\n        /* \"#utility.yul\":14308:14326   */\n      add\n        /* \"#utility.yul\":14300:14326   */\n      swap1\n      pop\n        /* \"#utility.yul\":14336:14407   */\n      tag_391\n        /* \"#utility.yul\":14404:14405   */\n      0x00\n        /* \"#utility.yul\":14393:14402   */\n      dup4\n        /* \"#utility.yul\":14389:14406   */\n      add\n        /* \"#utility.yul\":14380:14386   */\n      dup5\n        /* \"#utility.yul\":14336:14407   */\n      tag_350\n      jump\t// in\n    tag_391:\n        /* \"#utility.yul\":14192:14414   */\n      swap3\n      swap2\n      pop\n      pop\n      jump\t// out\n        /* \"#utility.yul\":14420:14634   */\n    tag_46:\n        /* \"#utility.yul\":14509:14513   */\n      0x00\n        /* \"#utility.yul\":14547:14549   */\n      0x20\n        /* \"#utility.yul\":14536:14545   */\n      dup3\n        /* \"#utility.yul\":14532:14550   */\n      add\n        /* \"#utility.yul\":14524:14550   */\n      swap1\n      pop\n        /* \"#utility.yul\":14560:14627   */\n      tag_393\n        /* \"#utility.yul\":14624:14625   */\n      0x00\n        /* \"#utility.yul\":14613:14622   */\n      dup4\n        /* \"#utility.yul\":14609:14626   */\n      add\n        /* \"#utility.yul\":14600:14606   */\n      dup5\n        /* \"#utility.yul\":14560:14627   */\n      tag_354\n      jump\t// in\n    tag_393:\n        /* \"#utility.yul\":14420:14634   */\n      swap3\n      swap2\n      pop\n      pop\n      jump\t// out\n        /* \"#utility.yul\":14721:14820   */\n    tag_278:\n        /* \"#utility.yul\":14773:14779   */\n      0x00\n        /* \"#utility.yul\":14807:14812   */\n      dup2\n        /* \"#utility.yul\":14801:14813   */\n      mload\n        /* \"#utility.yul\":14791:14813   */\n      swap1\n      pop\n        /* \"#utility.yul\":14721:14820   */\n      swap2\n      swap1\n      pop\n      jump\t// out\n        /* \"#utility.yul\":14826:14995   */\n    tag_280:\n        /* \"#utility.yul\":14910:14921   */\n      0x00\n        /* \"#utility.yul\":14944:14950   */\n      dup3\n        /* \"#utility.yul\":14939:14942   */\n      dup3\n        /* \"#utility.yul\":14932:14951   */\n      mstore\n        /* \"#utility.yul\":14984:14988   */\n      0x20\n        /* \"#utility.yul\":14979:14982   */\n      dup3\n        /* \"#utility.yul\":14975:14989   */\n      add\n        /* \"#utility.yul\":14960:14989   */\n      swap1\n      pop\n        /* \"#utility.yul\":14826:14995   */\n      swap3\n      swap2\n      pop\n      pop\n      jump\t// out\n        /* \"#utility.yul\":15001:15306   */\n    tag_125:\n        /* \"#utility.yul\":15041:15044   */\n      0x00\n        /* \"#utility.yul\":15060:15080   */\n      tag_399\n        /* \"#utility.yul\":15078:15079   */\n      dup3\n        /* \"#utility.yul\":15060:15080   */\n      tag_353\n      jump\t// in\n    tag_399:\n        /* \"#utility.yul\":15055:15080   */\n      swap2\n      pop\n        /* \"#utility.yul\":15094:15114   */\n      tag_400\n        /* \"#utility.yul\":15112:15113   */\n      dup4\n        /* \"#utility.yul\":15094:15114   */\n      tag_353\n      jump\t// in\n    tag_400:\n        /* \"#utility.yul\":15089:15114   */\n      swap3\n      pop\n        /* \"#utility.yul\":15248:15249   */\n      dup3\n        /* \"#utility.yul\":15180:15246   */\n      0xffffffffffffffffffffffffffffffffffffffffffffffffffffffffffffffff\n        /* \"#utility.yul\":15176:15250   */\n      sub\n        /* \"#utility.yul\":15173:15174   */\n      dup3\n        /* \"#utility.yul\":15170:15251   */\n      gt\n        /* \"#utility.yul\":15167:15274   */\n      iszero\n      tag_401\n      jumpi\n        /* \"#utility.yul\":15254:15272   */\n      tag_402\n      tag_403\n      jump\t// in\n    tag_402:\n        /* \"#utility.yul\":15167:15274   */\n    tag_401:\n        /* \"#utility.yul\":15298:15299   */\n      dup3\n        /* \"#utility.yul\":15295:15296   */\n      dup3\n        /* \"#utility.yul\":15291:15300   */\n      add\n        /* \"#utility.yul\":15284:15300   */\n      swap1\n      pop\n        /* \"#utility.yul\":15001:15306   */\n      swap3\n      swap2\n      pop\n      pop\n      jump\t// out\n        /* \"#utility.yul\":15312:15503   */\n    tag_231:\n        /* \"#utility.yul\":15352:15356   */\n      0x00\n        /* \"#utility.yul\":15372:15392   */\n      tag_405\n        /* \"#utility.yul\":15390:15391   */\n      dup3\n        /* \"#utility.yul\":15372:15392   */\n      tag_353\n      jump\t// in\n    tag_405:\n        /* \"#utility.yul\":15367:15392   */\n      swap2\n      pop\n        /* \"#utility.yul\":15406:15426   */\n      tag_406\n        /* \"#utility.yul\":15424:15425   */\n      dup4\n        /* \"#utility.yul\":15406:15426   */\n      tag_353\n      jump\t// in\n    tag_406:\n        /* \"#utility.yul\":15401:15426   */\n      swap3\n      pop\n        /* \"#utility.yul\":15445:15446   */\n      dup3\n        /* \"#utility.yul\":15442:15443   */\n      dup3\n        /* \"#utility.yul\":15439:15447   */\n      lt\n        /* \"#utility.yul\":15436:15470   */\n      iszero\n      tag_407\n      jumpi\n        /* \"#utility.yul\":15450:15468   */\n      tag_408\n      tag_403\n      jump\t// in\n    tag_408:\n        /* \"#utility.yul\":15436:15470   */\n    tag_407:\n        /* \"#utility.yul\":15495:15496   */\n      dup3\n        /* \"#utility.yul\":15492:15493   */\n      dup3\n        /* \"#utility.yul\":15488:15497   */\n      sub\n        /* \"#utility.yul\":15480:15497   */\n      swap1\n      pop\n        /* \"#utility.yul\":15312:15503   */\n      swap3\n      swap2\n      pop\n      pop\n      jump\t// out\n        /* \"#utility.yul\":15509:15605   */\n    tag_270:\n        /* \"#utility.yul\":15546:15553   */\n      0x00\n        /* \"#utility.yul\":15575:15599   */\n      tag_410\n        /* \"#utility.yul\":15593:15598   */\n      dup3\n        /* \"#utility.yul\":15575:15599   */\n      tag_411\n      jump\t// in\n    tag_410:\n        /* \"#utility.yul\":15564:15599   */\n      swap1\n      pop\n        /* \"#utility.yul\":15509:15605   */\n      swap2\n      swap1\n      pop\n      jump\t// out\n        /* \"#utility.yul\":15611:15701   */\n    tag_274:\n        /* \"#utility.yul\":15645:15652   */\n      0x00\n        /* \"#utility.yul\":15688:15693   */\n      dup2\n        /* \"#utility.yul\":15681:15694   */\n      iszero\n        /* \"#utility.yul\":15674:15695   */\n      iszero\n        /* \"#utility.yul\":15663:15695   */\n      swap1\n      pop\n        /* \"#utility.yul\":15611:15701   */\n      swap2\n      swap1\n      pop\n      jump\t// out\n        /* \"#utility.yul\":15707:15833   */\n    tag_411:\n        /* \"#utility.yul\":15744:15751   */\n      0x00\n        /* \"#utility.yul\":15784:15826   */\n      0xffffffffffffffffffffffffffffffffffffffff\n        /* \"#utility.yul\":15777:15782   */\n      dup3\n        /* \"#utility.yul\":15773:15827   */\n      and\n        /* \"#utility.yul\":15762:15827   */\n      swap1\n      pop\n        /* \"#utility.yul\":15707:15833   */\n      swap2\n      swap1\n      pop\n      jump\t// out\n        /* \"#utility.yul\":15839:15916   */\n    tag_353:\n        /* \"#utility.yul\":15876:15883   */\n      0x00\n        /* \"#utility.yul\":15905:15910   */\n      dup2\n        /* \"#utility.yul\":15894:15910   */\n      swap1\n      pop\n        /* \"#utility.yul\":15839:15916   */\n      swap2\n      swap1\n      pop\n      jump\t// out\n        /* \"#utility.yul\":15922:16008   */\n    tag_357:\n        /* \"#utility.yul\":15957:15964   */\n      0x00\n        /* \"#utility.yul\":15997:16001   */\n      0xff\n        /* \"#utility.yul\":15990:15995   */\n      dup3\n        /* \"#utility.yul\":15986:16002   */\n      and\n        /* \"#utility.yul\":15975:16002   */\n      swap1\n      pop\n        /* \"#utility.yul\":15922:16008   */\n      swap2\n      swap1\n      pop\n      jump\t// out\n        /* \"#utility.yul\":16014:16321   */\n    tag_282:\n        /* \"#utility.yul\":16082:16083   */\n      0x00\n        /* \"#utility.yul\":16092:16205   */\n    tag_417:\n        /* \"#utility.yul\":16106:16112   */\n      dup4\n        /* \"#utility.yul\":16103:16104   */\n      dup2\n        /* \"#utility.yul\":16100:16113   */\n      lt\n        /* \"#utility.yul\":16092:16205   */\n      iszero\n      tag_419\n      jumpi\n        /* \"#utility.yul\":16191:16192   */\n      dup1\n        /* \"#utility.yul\":16186:16189   */\n      dup3\n        /* \"#utility.yul\":16182:16193   */\n      add\n        /* \"#utility.yul\":16176:16194   */\n      mload\n        /* \"#utility.yul\":16172:16173   */\n      dup2\n        /* \"#utility.yul\":16167:16170   */\n      dup5\n        /* \"#utility.yul\":16163:16174   */\n      add\n        /* \"#utility.yul\":16156:16195   */\n      mstore\n        /* \"#utility.yul\":16128:16130   */\n      0x20\n        /* \"#utility.yul\":16125:16126   */\n      dup2\n        /* \"#utility.yul\":16121:16131   */\n      add\n        /* \"#utility.yul\":16116:16131   */\n      swap1\n      pop\n        /* \"#utility.yul\":16092:16205   */\n      jump(tag_417)\n    tag_419:\n        /* \"#utility.yul\":16223:16229   */\n      dup4\n        /* \"#utility.yul\":16220:16221   */\n      dup2\n        /* \"#utility.yul\":16217:16230   */\n      gt\n        /* \"#utility.yul\":16214:16315   */\n      iszero\n      tag_420\n      jumpi\n        /* \"#utility.yul\":16303:16304   */\n      0x00\n        /* \"#utility.yul\":16294:16300   */\n      dup5\n        /* \"#utility.yul\":16289:16292   */\n      dup5\n        /* \"#utility.yul\":16285:16301   */\n      add\n        /* \"#utility.yul\":16278:16305   */\n      mstore\n        /* \"#utility.yul\":16214:16315   */\n    tag_420:\n        /* \"#utility.yul\":16063:16321   */\n      pop\n        /* \"#utility.yul\":16014:16321   */\n      pop\n      pop\n      pop\n      jump\t// out\n        /* \"#utility.yul\":16327:16647   */\n    tag_95:\n        /* \"#utility.yul\":16371:16377   */\n      0x00\n        /* \"#utility.yul\":16408:16409   */\n      0x02\n        /* \"#utility.yul\":16402:16406   */\n      dup3\n        /* \"#utility.yul\":16398:16410   */\n      div\n        /* \"#utility.yul\":16388:16410   */\n      swap1\n      pop\n        /* \"#utility.yul\":16455:16456   */\n      0x01\n        /* \"#utility.yul\":16449:16453   */\n      dup3\n        /* \"#utility.yul\":16445:16457   */\n      and\n        /* \"#utility.yul\":16476:16494   */\n      dup1\n        /* \"#utility.yul\":16466:16547   */\n      tag_422\n      jumpi\n        /* \"#utility.yul\":16532:16536   */\n      0x7f\n        /* \"#utility.yul\":16524:16530   */\n      dup3\n        /* \"#utility.yul\":16520:16537   */\n      and\n        /* \"#utility.yul\":16510:16537   */\n      swap2\n      pop\n        /* \"#utility.yul\":16466:16547   */\n    tag_422:\n        /* \"#utility.yul\":16594:16596   */\n      0x20\n        /* \"#utility.yul\":16586:16592   */\n      dup3\n        /* \"#utility.yul\":16583:16597   */\n      lt\n        /* \"#utility.yul\":16563:16581   */\n      dup2\n        /* \"#utility.yul\":16560:16598   */\n      eq\n        /* \"#utility.yul\":16557:16641   */\n      iszero\n      tag_423\n      jumpi\n        /* \"#utility.yul\":16613:16631   */\n      tag_424\n      tag_425\n      jump\t// in\n    tag_424:\n        /* \"#utility.yul\":16557:16641   */\n    tag_423:\n        /* \"#utility.yul\":16378:16647   */\n      pop\n        /* \"#utility.yul\":16327:16647   */\n      swap2\n      swap1\n      pop\n      jump\t// out\n        /* \"#utility.yul\":16653:16833   */\n    tag_403:\n        /* \"#utility.yul\":16701:16778   */\n      0x4e487b7100000000000000000000000000000000000000000000000000000000\n        /* \"#utility.yul\":16698:16699   */\n      0x00\n        /* \"#utility.yul\":16691:16779   */\n      mstore\n        /* \"#utility.yul\":16798:16802   */\n      0x11\n        /* \"#utility.yul\":16795:16796   */\n      0x04\n        /* \"#utility.yul\":16788:16803   */\n      mstore\n        /* \"#utility.yul\":16822:16826   */\n      0x24\n        /* \"#utility.yul\":16819:16820   */\n      0x00\n        /* \"#utility.yul\":16812:16827   */\n      revert\n        /* \"#utility.yul\":16839:17019   */\n    tag_425:\n        /* \"#utility.yul\":16887:16964   */\n      0x4e487b7100000000000000000000000000000000000000000000000000000000\n        /* \"#utility.yul\":16884:16885   */\n      0x00\n        /* \"#utility.yul\":16877:16965   */\n      mstore\n        /* \"#utility.yul\":16984:16988   */\n      0x22\n        /* \"#utility.yul\":16981:16982   */\n      0x04\n        /* \"#utility.yul\":16974:16989   */\n      mstore\n        /* \"#utility.yul\":17008:17012   */\n      0x24\n        /* \"#utility.yul\":17005:17006   */\n      0x00\n        /* \"#utility.yul\":16998:17013   */\n      revert\n        /* \"#utility.yul\":17148:17265   */\n    tag_249:\n        /* \"#utility.yul\":17257:17258   */\n      0x00\n        /* \"#utility.yul\":17254:17255   */\n      dup1\n        /* \"#utility.yul\":17247:17259   */\n      revert\n        /* \"#utility.yul\":17271:17373   */\n    tag_284:\n        /* \"#utility.yul\":17312:17318   */\n      0x00\n        /* \"#utility.yul\":17363:17365   */\n      0x1f\n        /* \"#utility.yul\":17359:17366   */\n      not\n        /* \"#utility.yul\":17354:17356   */\n      0x1f\n        /* \"#utility.yul\":17347:17352   */\n      dup4\n        /* \"#utility.yul\":17343:17357   */\n      add\n        /* \"#utility.yul\":17339:17367   */\n      and\n        /* \"#utility.yul\":17329:17367   */\n      swap1\n      pop\n        /* \"#utility.yul\":17271:17373   */\n      swap2\n      swap1\n      pop\n      jump\t// out\n        /* \"#utility.yul\":17379:17601   */\n    tag_289:\n        /* \"#utility.yul\":17519:17553   */\n      0x45524332303a207472616e7366657220746f20746865207a65726f2061646472\n        /* \"#utility.yul\":17515:17516   */\n      0x00\n        /* \"#utility.yul\":17507:17513   */\n      dup3\n        /* \"#utility.yul\":17503:17517   */\n      add\n        /* \"#utility.yul\":17496:17554   */\n      mstore\n        /* \"#utility.yul\":17588:17593   */\n      0x6573730000000000000000000000000000000000000000000000000000000000\n        /* \"#utility.yul\":17583:17585   */\n      0x20\n        /* \"#utility.yul\":17575:17581   */\n      dup3\n        /* \"#utility.yul\":17571:17586   */\n      add\n        /* \"#utility.yul\":17564:17594   */\n      mstore\n        /* \"#utility.yul\":17379:17601   */\n      pop\n      jump\t// out\n        /* \"#utility.yul\":17607:17828   */\n    tag_294:\n        /* \"#utility.yul\":17747:17781   */\n      0x45524332303a206275726e20616d6f756e7420657863656564732062616c616e\n        /* \"#utility.yul\":17743:17744   */\n      0x00\n        /* \"#utility.yul\":17735:17741   */\n      dup3\n        /* \"#utility.yul\":17731:17745   */\n      add\n        /* \"#utility.yul\":17724:17782   */\n      mstore\n        /* \"#utility.yul\":17816:17820   */\n      0x6365000000000000000000000000000000000000000000000000000000000000\n        /* \"#utility.yul\":17811:17813   */\n      0x20\n        /* \"#utility.yul\":17803:17809   */\n      dup3\n        /* \"#utility.yul\":17799:17814   */\n      add\n        /* \"#utility.yul\":17792:17821   */\n      mstore\n        /* \"#utility.yul\":17607:17828   */\n      pop\n      jump\t// out\n        /* \"#utility.yul\":17834:18059   */\n    tag_299:\n        /* \"#utility.yul\":17974:18008   */\n      0x4f776e61626c653a206e6577206f776e657220697320746865207a65726f2061\n        /* \"#utility.yul\":17970:17971   */\n      0x00\n        /* \"#utility.yul\":17962:17968   */\n      dup3\n        /* \"#utility.yul\":17958:17972   */\n      add\n        /* \"#utility.yul\":17951:18009   */\n      mstore\n        /* \"#utility.yul\":18043:18051   */\n      0x6464726573730000000000000000000000000000000000000000000000000000\n        /* \"#utility.yul\":18038:18040   */\n      0x20\n        /* \"#utility.yul\":18030:18036   */\n      dup3\n        /* \"#utility.yul\":18026:18041   */\n      add\n        /* \"#utility.yul\":18019:18052   */\n      mstore\n        /* \"#utility.yul\":17834:18059   */\n      pop\n      jump\t// out\n        /* \"#utility.yul\":18065:18286   */\n    tag_304:\n        /* \"#utility.yul\":18205:18239   */\n      0x45524332303a20617070726f766520746f20746865207a65726f206164647265\n        /* \"#utility.yul\":18201:18202   */\n      0x00\n        /* \"#utility.yul\":18193:18199   */\n      dup3\n        /* \"#utility.yul\":18189:18203   */\n      add\n        /* \"#utility.yul\":18182:18240   */\n      mstore\n        /* \"#utility.yul\":18274:18278   */\n      0x7373000000000000000000000000000000000000000000000000000000000000\n        /* \"#utility.yul\":18269:18271   */\n      0x20\n        /* \"#utility.yul\":18261:18267   */\n      dup3\n        /* \"#utility.yul\":18257:18272   */\n      add\n        /* \"#utility.yul\":18250:18279   */\n      mstore\n        /* \"#utility.yul\":18065:18286   */\n      pop\n      jump\t// out\n        /* \"#utility.yul\":18292:18463   */\n    tag_309:\n        /* \"#utility.yul\":18432:18455   */\n      0x4e6f7420417070726f76656420746f20646f20736f0000000000000000000000\n        /* \"#utility.yul\":18428:18429   */\n      0x00\n        /* \"#utility.yul\":18420:18426   */\n      dup3\n        /* \"#utility.yul\":18416:18430   */\n      add\n        /* \"#utility.yul\":18409:18456   */\n      mstore\n        /* \"#utility.yul\":18292:18463   */\n      pop\n      jump\t// out\n        /* \"#utility.yul\":18469:18694   */\n    tag_314:\n        /* \"#utility.yul\":18609:18643   */\n      0x45524332303a207472616e7366657220616d6f756e7420657863656564732062\n        /* \"#utility.yul\":18605:18606   */\n      0x00\n        /* \"#utility.yul\":18597:18603   */\n      dup3\n        /* \"#utility.yul\":18593:18607   */\n      add\n        /* \"#utility.yul\":18586:18644   */\n      mstore\n        /* \"#utility.yul\":18678:18686   */\n      0x616c616e63650000000000000000000000000000000000000000000000000000\n        /* \"#utility.yul\":18673:18675   */\n      0x20\n        /* \"#utility.yul\":18665:18671   */\n      dup3\n        /* \"#utility.yul\":18661:18676   */\n      add\n        /* \"#utility.yul\":18654:18687   */\n      mstore\n        /* \"#utility.yul\":18469:18694   */\n      pop\n      jump\t// out\n        /* \"#utility.yul\":18700:18927   */\n    tag_319:\n        /* \"#utility.yul\":18840:18874   */\n      0x45524332303a207472616e7366657220616d6f756e7420657863656564732061\n        /* \"#utility.yul\":18836:18837   */\n      0x00\n        /* \"#utility.yul\":18828:18834   */\n      dup3\n        /* \"#utility.yul\":18824:18838   */\n      add\n        /* \"#utility.yul\":18817:18875   */\n      mstore\n        /* \"#utility.yul\":18909:18919   */\n      0x6c6c6f77616e6365000000000000000000000000000000000000000000000000\n        /* \"#utility.yul\":18904:18906   */\n      0x20\n        /* \"#utility.yul\":18896:18902   */\n      dup3\n        /* \"#utility.yul\":18892:18907   */\n      add\n        /* \"#utility.yul\":18885:18920   */\n      mstore\n        /* \"#utility.yul\":18700:18927   */\n      pop\n      jump\t// out\n        /* \"#utility.yul\":18933:19115   */\n    tag_324:\n        /* \"#utility.yul\":19073:19107   */\n      0x4f776e61626c653a2063616c6c6572206973206e6f7420746865206f776e6572\n        /* \"#utility.yul\":19069:19070   */\n      0x00\n        /* \"#utility.yul\":19061:19067   */\n      dup3\n        /* \"#utility.yul\":19057:19071   */\n      add\n        /* \"#utility.yul\":19050:19108   */\n      mstore\n        /* \"#utility.yul\":18933:19115   */\n      pop\n      jump\t// out\n        /* \"#utility.yul\":19121:19341   */\n    tag_329:\n        /* \"#utility.yul\":19261:19295   */\n      0x45524332303a206275726e2066726f6d20746865207a65726f20616464726573\n        /* \"#utility.yul\":19257:19258   */\n      0x00\n        /* \"#utility.yul\":19249:19255   */\n      dup3\n        /* \"#utility.yul\":19245:19259   */\n      add\n        /* \"#utility.yul\":19238:19296   */\n      mstore\n        /* \"#utility.yul\":19330:19333   */\n      0x7300000000000000000000000000000000000000000000000000000000000000\n        /* \"#utility.yul\":19325:19327   */\n      0x20\n        /* \"#utility.yul\":19317:19323   */\n      dup3\n        /* \"#utility.yul\":19313:19328   */\n      add\n        /* \"#utility.yul\":19306:19334   */\n      mstore\n        /* \"#utility.yul\":19121:19341   */\n      pop\n      jump\t// out\n        /* \"#utility.yul\":19347:19571   */\n    tag_334:\n        /* \"#utility.yul\":19487:19521   */\n      0x45524332303a207472616e736665722066726f6d20746865207a65726f206164\n        /* \"#utility.yul\":19483:19484   */\n      0x00\n        /* \"#utility.yul\":19475:19481   */\n      dup3\n        /* \"#utility.yul\":19471:19485   */\n      add\n        /* \"#utility.yul\":19464:19522   */\n      mstore\n        /* \"#utility.yul\":19556:19563   */\n      0x6472657373000000000000000000000000000000000000000000000000000000\n        /* \"#utility.yul\":19551:19553   */\n      0x20\n        /* \"#utility.yul\":19543:19549   */\n      dup3\n        /* \"#utility.yul\":19539:19554   */\n      add\n        /* \"#utility.yul\":19532:19564   */\n      mstore\n        /* \"#utility.yul\":19347:19571   */\n      pop\n      jump\t// out\n        /* \"#utility.yul\":19577:19800   */\n    tag_339:\n        /* \"#utility.yul\":19717:19751   */\n      0x45524332303a20617070726f76652066726f6d20746865207a65726f20616464\n        /* \"#utility.yul\":19713:19714   */\n      0x00\n        /* \"#utility.yul\":19705:19711   */\n      dup3\n        /* \"#utility.yul\":19701:19715   */\n      add\n        /* \"#utility.yul\":19694:19752   */\n      mstore\n        /* \"#utility.yul\":19786:19792   */\n      0x7265737300000000000000000000000000000000000000000000000000000000\n        /* \"#utility.yul\":19781:19783   */\n      0x20\n        /* \"#utility.yul\":19773:19779   */\n      dup3\n        /* \"#utility.yul\":19769:19784   */\n      add\n        /* \"#utility.yul\":19762:19793   */\n      mstore\n        /* \"#utility.yul\":19577:19800   */\n      pop\n      jump\t// out\n        /* \"#utility.yul\":19806:20030   */\n    tag_344:\n        /* \"#utility.yul\":19946:19980   */\n      0x45524332303a2064656372656173656420616c6c6f77616e63652062656c6f77\n        /* \"#utility.yul\":19942:19943   */\n      0x00\n        /* \"#utility.yul\":19934:19940   */\n      dup3\n        /* \"#utility.yul\":19930:19944   */\n      add\n        /* \"#utility.yul\":19923:19981   */\n      mstore\n        /* \"#utility.yul\":20015:20022   */\n      0x207a65726f000000000000000000000000000000000000000000000000000000\n        /* \"#utility.yul\":20010:20012   */\n      0x20\n        /* \"#utility.yul\":20002:20008   */\n      dup3\n        /* \"#utility.yul\":19998:20013   */\n      add\n        /* \"#utility.yul\":19991:20023   */\n      mstore\n        /* \"#utility.yul\":19806:20030   */\n      pop\n      jump\t// out\n        /* \"#utility.yul\":20036:20217   */\n    tag_349:\n        /* \"#utility.yul\":20176:20209   */\n      0x45524332303a206d696e7420746f20746865207a65726f206164647265737300\n        /* \"#utility.yul\":20172:20173   */\n      0x00\n        /* \"#utility.yul\":20164:20170   */\n      dup3\n        /* \"#utility.yul\":20160:20174   */\n      add\n        /* \"#utility.yul\":20153:20210   */\n      mstore\n        /* \"#utility.yul\":20036:20217   */\n      pop\n      jump\t// out\n        /* \"#utility.yul\":20223:20345   */\n    tag_241:\n        /* \"#utility.yul\":20296:20320   */\n      tag_446\n        /* \"#utility.yul\":20314:20319   */\n      dup2\n        /* \"#utility.yul\":20296:20320   */\n      tag_270\n      jump\t// in\n    tag_446:\n        /* \"#utility.yul\":20289:20294   */\n      dup2\n        /* \"#utility.yul\":20286:20321   */\n      eq\n        /* \"#utility.yul\":20276:20339   */\n      tag_447\n      jumpi\n        /* \"#utility.yul\":20335:20336   */\n      0x00\n        /* \"#utility.yul\":20332:20333   */\n      dup1\n        /* \"#utility.yul\":20325:20337   */\n      revert\n        /* \"#utility.yul\":20276:20339   */\n    tag_447:\n        /* \"#utility.yul\":20223:20345   */\n      pop\n      jump\t// out\n        /* \"#utility.yul\":20351:20473   */\n    tag_245:\n        /* \"#utility.yul\":20424:20448   */\n      tag_449\n        /* \"#utility.yul\":20442:20447   */\n      dup2\n        /* \"#utility.yul\":20424:20448   */\n      tag_353\n      jump\t// in\n    tag_449:\n        /* \"#utility.yul\":20417:20422   */\n      dup2\n        /* \"#utility.yul\":20414:20449   */\n      eq\n        /* \"#utility.yul\":20404:20467   */\n      tag_450\n      jumpi\n        /* \"#utility.yul\":20463:20464   */\n      0x00\n        /* \"#utility.yul\":20460:20461   */\n      dup1\n        /* \"#utility.yul\":20453:20465   */\n      revert\n        /* \"#utility.yul\":20404:20467   */\n    tag_450:\n        /* \"#utility.yul\":20351:20473   */\n      pop\n      jump\t// out\n\n    auxdata: 0xa2646970667358221220eadda388664515aab6bb32e6c24646e07017fef5c9c69661ab89706ecc643f6264736f6c63430008070033\n}\n",
				"bytecode": {
					"linkReferences": {},
					"object": "60806040523480156200001157600080fd5b506040518060400160405280600c81526020017f57616e642d5363657074657200000000000000000000000000000000000000008152506040518060400160405280600481526020017f5350545200000000000000000000000000000000000000000000000000000000815250816003908051906020019062000096929190620001a6565b508060049080519060200190620000af929190620001a6565b505050620000d2620000c6620000d860201b60201c565b620000e060201b60201c565b620002bb565b600033905090565b6000600660009054906101000a900473ffffffffffffffffffffffffffffffffffffffff16905081600660006101000a81548173ffffffffffffffffffffffffffffffffffffffff021916908373ffffffffffffffffffffffffffffffffffffffff1602179055508173ffffffffffffffffffffffffffffffffffffffff168173ffffffffffffffffffffffffffffffffffffffff167f8be0079c531659141344cd1fd0a4f28419497f9722a3daafe3b4186f6b6457e060405160405180910390a35050565b828054620001b49062000256565b90600052602060002090601f016020900481019282620001d8576000855562000224565b82601f10620001f357805160ff191683800117855562000224565b8280016001018555821562000224579182015b828111156200022357825182559160200191906001019062000206565b5b50905062000233919062000237565b5090565b5b808211156200025257600081600090555060010162000238565b5090565b600060028204905060018216806200026f57607f821691505b602082108114156200028657620002856200028c565b5b50919050565b7f4e487b7100000000000000000000000000000000000000000000000000000000600052602260045260246000fd5b61210180620002cb6000396000f3fe608060405234801561001057600080fd5b50600436106101165760003560e01c80638da5cb5b116100a2578063a7fc7a0711610071578063a7fc7a07146102e3578063a9059cbb146102ff578063dd62ed3e1461032f578063f2fde38b1461035f578063f6a74ed71461037b57610116565b80638da5cb5b1461025b57806395d89b41146102795780639dc29fac14610297578063a457c2d7146102b357610116565b8063313ce567116100e9578063313ce567146101b757806339509351146101d557806340c10f191461020557806370a0823114610221578063715018a61461025157610116565b806306fdde031461011b578063095ea7b31461013957806318160ddd1461016957806323b872dd14610187575b600080fd5b610123610397565b6040516101309190611940565b60405180910390f35b610153600480360381019061014e919061168e565b610429565b6040516101609190611925565b60405180910390f35b610171610447565b60405161017e9190611b02565b60405180910390f35b6101a1600480360381019061019c919061163b565b610451565b6040516101ae9190611925565b60405180910390f35b6101bf6105d9565b6040516101cc9190611b1d565b60405180910390f35b6101ef60048036038101906101ea919061168e565b6105e2565b6040516101fc9190611925565b60405180910390f35b61021f600480360381019061021a919061168e565b61068e565b005b61023b600480360381019061023691906115ce565b61069c565b6040516102489190611b02565b60405180910390f35b6102596106e4565b005b61026361076c565b604051610270919061190a565b60405180910390f35b610281610796565b60405161028e9190611940565b60405180910390f35b6102b160048036038101906102ac919061168e565b610828565b005b6102cd60048036038101906102c8919061168e565b610836565b6040516102da9190611925565b60405180910390f35b6102fd60048036038101906102f891906115ce565b610921565b005b6103196004803603810190610314919061168e565b610a01565b6040516103269190611925565b60405180910390f35b610349600480360381019061034491906115fb565b610aaf565b6040516103569190611b02565b60405180910390f35b610379600480360381019061037491906115ce565b610b36565b005b610395600480360381019061039091906115ce565b610c2e565b005b6060600380546103a690611c66565b80601f01602080910402602001604051908101604052809291908181526020018280546103d290611c66565b801561041f5780601f106103f45761010080835404028352916020019161041f565b820191906000526020600020905b81548152906001019060200180831161040257829003601f168201915b5050505050905090565b600061043d610436610d05565b8484610d0d565b6001905092915050565b6000600254905090565b6000600560009054906101000a900473ffffffffffffffffffffffffffffffffffffffff1673ffffffffffffffffffffffffffffffffffffffff163373ffffffffffffffffffffffffffffffffffffffff16146104e3576040517f08c379a00000000000000000000000000000000000000000000000000000000081526004016104da906119e2565b60405180910390fd5b6104ee848484610ed8565b6000600160008673ffffffffffffffffffffffffffffffffffffffff1673ffffffffffffffffffffffffffffffffffffffff1681526020019081526020016000206000610539610d05565b73ffffffffffffffffffffffffffffffffffffffff1673ffffffffffffffffffffffffffffffffffffffff168152602001908152602001600020549050828110156105b9576040517f08c379a00000000000000000000000000000000000000000000000000000000081526004016105b090611a22565b60405180910390fd5b6105cd856105c5610d05565b858403610d0d565b60019150509392505050565b60006012905090565b60006106846105ef610d05565b8484600160006105fd610d05565b73ffffffffffffffffffffffffffffffffffffffff1673ffffffffffffffffffffffffffffffffffffffff16815260200190815260200160002060008873ffffffffffffffffffffffffffffffffffffffff1673ffffffffffffffffffffffffffffffffffffffff1681526020019081526020016000205461067f9190611b54565b610d0d565b6001905092915050565b6106988282611159565b5050565b60008060008373ffffffffffffffffffffffffffffffffffffffff1673ffffffffffffffffffffffffffffffffffffffff168152602001908152602001600020549050919050565b6106ec610d05565b73ffffffffffffffffffffffffffffffffffffffff1661070a61076c565b73ffffffffffffffffffffffffffffffffffffffff1614610760576040517f08c379a000000000000000000000000000000000000000000000000000000000815260040161075790611a42565b60405180910390fd5b61076a60006112b9565b565b6000600660009054906101000a900473ffffffffffffffffffffffffffffffffffffffff16905090565b6060600480546107a590611c66565b80601f01602080910402602001604051908101604052809291908181526020018280546107d190611c66565b801561081e5780601f106107f35761010080835404028352916020019161081e565b820191906000526020600020905b81548152906001019060200180831161080157829003601f168201915b5050505050905090565b610832828261137f565b5050565b60008060016000610845610d05565b73ffffffffffffffffffffffffffffffffffffffff1673ffffffffffffffffffffffffffffffffffffffff16815260200190815260200160002060008573ffffffffffffffffffffffffffffffffffffffff1673ffffffffffffffffffffffffffffffffffffffff16815260200190815260200160002054905082811015610902576040517f08c379a00000000000000000000000000000000000000000000000000000000081526004016108f990611ac2565b60405180910390fd5b61091661090d610d05565b85858403610d0d565b600191505092915050565b610929610d05565b73ffffffffffffffffffffffffffffffffffffffff1661094761076c565b73ffffffffffffffffffffffffffffffffffffffff161461099d576040517f08c379a000000000000000000000000000000000000000000000000000000000815260040161099490611a42565b60405180910390fd5b6001600760008373ffffffffffffffffffffffffffffffffffffffff1673ffffffffffffffffffffffffffffffffffffffff16815260200190815260200160002060006101000a81548160ff0219169083151502179055506109fe81611556565b50565b6000600560009054906101000a900473ffffffffffffffffffffffffffffffffffffffff1673ffffffffffffffffffffffffffffffffffffffff163373ffffffffffffffffffffffffffffffffffffffff1614610a93576040517f08c379a0000000000000000000000000000000000000000000000000000000008152600401610a8a906119e2565b60405180910390fd5b610aa5610a9e610d05565b8484610ed8565b6001905092915050565b6000600160008473ffffffffffffffffffffffffffffffffffffffff1673ffffffffffffffffffffffffffffffffffffffff16815260200190815260200160002060008373ffffffffffffffffffffffffffffffffffffffff1673ffffffffffffffffffffffffffffffffffffffff16815260200190815260200160002054905092915050565b610b3e610d05565b73ffffffffffffffffffffffffffffffffffffffff16610b5c61076c565b73ffffffffffffffffffffffffffffffffffffffff1614610bb2576040517f08c379a0000000000000000000000000000000000000000000000000000000008152600401610ba990611a42565b60405180910390fd5b600073ffffffffffffffffffffffffffffffffffffffff168173ffffffffffffffffffffffffffffffffffffffff161415610c22576040517f08c379a0000000000000000000000000000000000000000000000000000000008152600401610c19906119a2565b60405180910390fd5b610c2b816112b9565b50565b610c36610d05565b73ffffffffffffffffffffffffffffffffffffffff16610c5461076c565b73ffffffffffffffffffffffffffffffffffffffff1614610caa576040517f08c379a0000000000000000000000000000000000000000000000000000000008152600401610ca190611a42565b60405180910390fd5b6000600760008373ffffffffffffffffffffffffffffffffffffffff1673ffffffffffffffffffffffffffffffffffffffff16815260200190815260200160002060006101000a81548160ff02191690831515021790555050565b600033905090565b600073ffffffffffffffffffffffffffffffffffffffff168373ffffffffffffffffffffffffffffffffffffffff161415610d7d576040517f08c379a0000000000000000000000000000000000000000000000000000000008152600401610d7490611aa2565b60405180910390fd5b600073ffffffffffffffffffffffffffffffffffffffff168273ffffffffffffffffffffffffffffffffffffffff161415610ded576040517f08c379a0000000000000000000000000000000000000000000000000000000008152600401610de4906119c2565b60405180910390fd5b80600160008573ffffffffffffffffffffffffffffffffffffffff1673ffffffffffffffffffffffffffffffffffffffff16815260200190815260200160002060008473ffffffffffffffffffffffffffffffffffffffff1673ffffffffffffffffffffffffffffffffffffffff168152602001908152602001600020819055508173ffffffffffffffffffffffffffffffffffffffff168373ffffffffffffffffffffffffffffffffffffffff167f8c5be1e5ebec7d5bd14f71427d1e84f3dd0314c0f7b2291e5b200ac8c7c3b92583604051610ecb9190611b02565b60405180910390a3505050565b600073ffffffffffffffffffffffffffffffffffffffff168373ffffffffffffffffffffffffffffffffffffffff161415610f48576040517f08c379a0000000000000000000000000000000000000000000000000000000008152600401610f3f90611a82565b60405180910390fd5b600073ffffffffffffffffffffffffffffffffffffffff168273ffffffffffffffffffffffffffffffffffffffff161415610fb8576040517f08c379a0000000000000000000000000000000000000000000000000000000008152600401610faf90611962565b60405180910390fd5b610fc383838361159a565b60008060008573ffffffffffffffffffffffffffffffffffffffff1673ffffffffffffffffffffffffffffffffffffffff16815260200190815260200160002054905081811015611049576040517f08c379a000000000000000000000000000000000000000000000000000000000815260040161104090611a02565b60405180910390fd5b8181036000808673ffffffffffffffffffffffffffffffffffffffff1673ffffffffffffffffffffffffffffffffffffffff16815260200190815260200160002081905550816000808573ffffffffffffffffffffffffffffffffffffffff1673ffffffffffffffffffffffffffffffffffffffff16815260200190815260200160002060008282546110dc9190611b54565b925050819055508273ffffffffffffffffffffffffffffffffffffffff168473ffffffffffffffffffffffffffffffffffffffff167fddf252ad1be2c89b69c2b068fc378daa952ba7f163c4a11628f55a4df523b3ef846040516111409190611b02565b60405180910390a361115384848461159f565b50505050565b600073ffffffffffffffffffffffffffffffffffffffff168273ffffffffffffffffffffffffffffffffffffffff1614156111c9576040517f08c379a00000000000000000000000000000000000000000000000000000000081526004016111c090611ae2565b60405180910390fd5b6111d56000838361159a565b80600260008282546111e79190611b54565b92505081905550806000808473ffffffffffffffffffffffffffffffffffffffff1673ffffffffffffffffffffffffffffffffffffffff168152602001908152602001600020600082825461123c9190611b54565b925050819055508173ffffffffffffffffffffffffffffffffffffffff16600073ffffffffffffffffffffffffffffffffffffffff167fddf252ad1be2c89b69c2b068fc378daa952ba7f163c4a11628f55a4df523b3ef836040516112a19190611b02565b60405180910390a36112b56000838361159f565b5050565b6000600660009054906101000a900473ffffffffffffffffffffffffffffffffffffffff16905081600660006101000a81548173ffffffffffffffffffffffffffffffffffffffff021916908373ffffffffffffffffffffffffffffffffffffffff1602179055508173ffffffffffffffffffffffffffffffffffffffff168173ffffffffffffffffffffffffffffffffffffffff167f8be0079c531659141344cd1fd0a4f28419497f9722a3daafe3b4186f6b6457e060405160405180910390a35050565b600073ffffffffffffffffffffffffffffffffffffffff168273ffffffffffffffffffffffffffffffffffffffff1614156113ef576040517f08c379a00000000000000000000000000000000000000000000000000000000081526004016113e690611a62565b60405180910390fd5b6113fb8260008361159a565b60008060008473ffffffffffffffffffffffffffffffffffffffff1673ffffffffffffffffffffffffffffffffffffffff16815260200190815260200160002054905081811015611481576040517f08c379a000000000000000000000000000000000000000000000000000000000815260040161147890611982565b60405180910390fd5b8181036000808573ffffffffffffffffffffffffffffffffffffffff1673ffffffffffffffffffffffffffffffffffffffff1681526020019081526020016000208190555081600260008282546114d89190611baa565b92505081905550600073ffffffffffffffffffffffffffffffffffffffff168373ffffffffffffffffffffffffffffffffffffffff167fddf252ad1be2c89b69c2b068fc378daa952ba7f163c4a11628f55a4df523b3ef8460405161153d9190611b02565b60405180910390a36115518360008461159f565b505050565b80600560006101000a81548173ffffffffffffffffffffffffffffffffffffffff021916908373ffffffffffffffffffffffffffffffffffffffff16021790555050565b505050565b505050565b6000813590506115b38161209d565b92915050565b6000813590506115c8816120b4565b92915050565b6000602082840312156115e4576115e3611cf6565b5b60006115f2848285016115a4565b91505092915050565b6000806040838503121561161257611611611cf6565b5b6000611620858286016115a4565b9250506020611631858286016115a4565b9150509250929050565b60008060006060848603121561165457611653611cf6565b5b6000611662868287016115a4565b9350506020611673868287016115a4565b9250506040611684868287016115b9565b9150509250925092565b600080604083850312156116a5576116a4611cf6565b5b60006116b3858286016115a4565b92505060206116c4858286016115b9565b9150509250929050565b6116d781611bde565b82525050565b6116e681611bf0565b82525050565b60006116f782611b38565b6117018185611b43565b9350611711818560208601611c33565b61171a81611cfb565b840191505092915050565b6000611732602383611b43565b915061173d82611d0c565b604082019050919050565b6000611755602283611b43565b915061176082611d5b565b604082019050919050565b6000611778602683611b43565b915061178382611daa565b604082019050919050565b600061179b602283611b43565b91506117a682611df9565b604082019050919050565b60006117be601583611b43565b91506117c982611e48565b602082019050919050565b60006117e1602683611b43565b91506117ec82611e71565b604082019050919050565b6000611804602883611b43565b915061180f82611ec0565b604082019050919050565b6000611827602083611b43565b915061183282611f0f565b602082019050919050565b600061184a602183611b43565b915061185582611f38565b604082019050919050565b600061186d602583611b43565b915061187882611f87565b604082019050919050565b6000611890602483611b43565b915061189b82611fd6565b604082019050919050565b60006118b3602583611b43565b91506118be82612025565b604082019050919050565b60006118d6601f83611b43565b91506118e182612074565b602082019050919050565b6118f581611c1c565b82525050565b61190481611c26565b82525050565b600060208201905061191f60008301846116ce565b92915050565b600060208201905061193a60008301846116dd565b92915050565b6000602082019050818103600083015261195a81846116ec565b905092915050565b6000602082019050818103600083015261197b81611725565b9050919050565b6000602082019050818103600083015261199b81611748565b9050919050565b600060208201905081810360008301526119bb8161176b565b9050919050565b600060208201905081810360008301526119db8161178e565b9050919050565b600060208201905081810360008301526119fb816117b1565b9050919050565b60006020820190508181036000830152611a1b816117d4565b9050919050565b60006020820190508181036000830152611a3b816117f7565b9050919050565b60006020820190508181036000830152611a5b8161181a565b9050919050565b60006020820190508181036000830152611a7b8161183d565b9050919050565b60006020820190508181036000830152611a9b81611860565b9050919050565b60006020820190508181036000830152611abb81611883565b9050919050565b60006020820190508181036000830152611adb816118a6565b9050919050565b60006020820190508181036000830152611afb816118c9565b9050919050565b6000602082019050611b1760008301846118ec565b92915050565b6000602082019050611b3260008301846118fb565b92915050565b600081519050919050565b600082825260208201905092915050565b6000611b5f82611c1c565b9150611b6a83611c1c565b9250827fffffffffffffffffffffffffffffffffffffffffffffffffffffffffffffffff03821115611b9f57611b9e611c98565b5b828201905092915050565b6000611bb582611c1c565b9150611bc083611c1c565b925082821015611bd357611bd2611c98565b5b828203905092915050565b6000611be982611bfc565b9050919050565b60008115159050919050565b600073ffffffffffffffffffffffffffffffffffffffff82169050919050565b6000819050919050565b600060ff82169050919050565b60005b83811015611c51578082015181840152602081019050611c36565b83811115611c60576000848401525b50505050565b60006002820490506001821680611c7e57607f821691505b60208210811415611c9257611c91611cc7565b5b50919050565b7f4e487b7100000000000000000000000000000000000000000000000000000000600052601160045260246000fd5b7f4e487b7100000000000000000000000000000000000000000000000000000000600052602260045260246000fd5b600080fd5b6000601f19601f8301169050919050565b7f45524332303a207472616e7366657220746f20746865207a65726f206164647260008201527f6573730000000000000000000000000000000000000000000000000000000000602082015250565b7f45524332303a206275726e20616d6f756e7420657863656564732062616c616e60008201527f6365000000000000000000000000000000000000000000000000000000000000602082015250565b7f4f776e61626c653a206e6577206f776e657220697320746865207a65726f206160008201527f6464726573730000000000000000000000000000000000000000000000000000602082015250565b7f45524332303a20617070726f766520746f20746865207a65726f20616464726560008201527f7373000000000000000000000000000000000000000000000000000000000000602082015250565b7f4e6f7420417070726f76656420746f20646f20736f0000000000000000000000600082015250565b7f45524332303a207472616e7366657220616d6f756e742065786365656473206260008201527f616c616e63650000000000000000000000000000000000000000000000000000602082015250565b7f45524332303a207472616e7366657220616d6f756e742065786365656473206160008201527f6c6c6f77616e6365000000000000000000000000000000000000000000000000602082015250565b7f4f776e61626c653a2063616c6c6572206973206e6f7420746865206f776e6572600082015250565b7f45524332303a206275726e2066726f6d20746865207a65726f2061646472657360008201527f7300000000000000000000000000000000000000000000000000000000000000602082015250565b7f45524332303a207472616e736665722066726f6d20746865207a65726f20616460008201527f6472657373000000000000000000000000000000000000000000000000000000602082015250565b7f45524332303a20617070726f76652066726f6d20746865207a65726f2061646460008201527f7265737300000000000000000000000000000000000000000000000000000000602082015250565b7f45524332303a2064656372656173656420616c6c6f77616e63652062656c6f7760008201527f207a65726f000000000000000000000000000000000000000000000000000000602082015250565b7f45524332303a206d696e7420746f20746865207a65726f206164647265737300600082015250565b6120a681611bde565b81146120b157600080fd5b50565b6120bd81611c1c565b81146120c857600080fd5b5056fea2646970667358221220eadda388664515aab6bb32e6c24646e07017fef5c9c69661ab89706ecc643f6264736f6c63430008070033",
					"opcodes": "PUSH1 0x80 PUSH1 0x40 MSTORE CALLVALUE DUP1 ISZERO PUSH3 0x11 JUMPI PUSH1 0x0 DUP1 REVERT JUMPDEST POP PUSH1 0x40 MLOAD DUP1 PUSH1 0x40 ADD PUSH1 0x40 MSTORE DUP1 PUSH1 0xC DUP2 MSTORE PUSH1 0x20 ADD PUSH32 0x57616E642D536365707465720000000000000000000000000000000000000000 DUP2 MSTORE POP PUSH1 0x40 MLOAD DUP1 PUSH1 0x40 ADD PUSH1 0x40 MSTORE DUP1 PUSH1 0x4 DUP2 MSTORE PUSH1 0x20 ADD PUSH32 0x5350545200000000000000000000000000000000000000000000000000000000 DUP2 MSTORE POP DUP2 PUSH1 0x3 SWAP1 DUP1 MLOAD SWAP1 PUSH1 0x20 ADD SWAP1 PUSH3 0x96 SWAP3 SWAP2 SWAP1 PUSH3 0x1A6 JUMP JUMPDEST POP DUP1 PUSH1 0x4 SWAP1 DUP1 MLOAD SWAP1 PUSH1 0x20 ADD SWAP1 PUSH3 0xAF SWAP3 SWAP2 SWAP1 PUSH3 0x1A6 JUMP JUMPDEST POP POP POP PUSH3 0xD2 PUSH3 0xC6 PUSH3 0xD8 PUSH1 0x20 SHL PUSH1 0x20 SHR JUMP JUMPDEST PUSH3 0xE0 PUSH1 0x20 SHL PUSH1 0x20 SHR JUMP JUMPDEST PUSH3 0x2BB JUMP JUMPDEST PUSH1 0x0 CALLER SWAP1 POP SWAP1 JUMP JUMPDEST PUSH1 0x0 PUSH1 0x6 PUSH1 0x0 SWAP1 SLOAD SWAP1 PUSH2 0x100 EXP SWAP1 DIV PUSH20 0xFFFFFFFFFFFFFFFFFFFFFFFFFFFFFFFFFFFFFFFF AND SWAP1 POP DUP2 PUSH1 0x6 PUSH1 0x0 PUSH2 0x100 EXP DUP2 SLOAD DUP2 PUSH20 0xFFFFFFFFFFFFFFFFFFFFFFFFFFFFFFFFFFFFFFFF MUL NOT AND SWAP1 DUP4 PUSH20 0xFFFFFFFFFFFFFFFFFFFFFFFFFFFFFFFFFFFFFFFF AND MUL OR SWAP1 SSTORE POP DUP2 PUSH20 0xFFFFFFFFFFFFFFFFFFFFFFFFFFFFFFFFFFFFFFFF AND DUP2 PUSH20 0xFFFFFFFFFFFFFFFFFFFFFFFFFFFFFFFFFFFFFFFF AND PUSH32 0x8BE0079C531659141344CD1FD0A4F28419497F9722A3DAAFE3B4186F6B6457E0 PUSH1 0x40 MLOAD PUSH1 0x40 MLOAD DUP1 SWAP2 SUB SWAP1 LOG3 POP POP JUMP JUMPDEST DUP3 DUP1 SLOAD PUSH3 0x1B4 SWAP1 PUSH3 0x256 JUMP JUMPDEST SWAP1 PUSH1 0x0 MSTORE PUSH1 0x20 PUSH1 0x0 KECCAK256 SWAP1 PUSH1 0x1F ADD PUSH1 0x20 SWAP1 DIV DUP2 ADD SWAP3 DUP3 PUSH3 0x1D8 JUMPI PUSH1 0x0 DUP6 SSTORE PUSH3 0x224 JUMP JUMPDEST DUP3 PUSH1 0x1F LT PUSH3 0x1F3 JUMPI DUP1 MLOAD PUSH1 0xFF NOT AND DUP4 DUP1 ADD OR DUP6 SSTORE PUSH3 0x224 JUMP JUMPDEST DUP3 DUP1 ADD PUSH1 0x1 ADD DUP6 SSTORE DUP3 ISZERO PUSH3 0x224 JUMPI SWAP2 DUP3 ADD JUMPDEST DUP3 DUP2 GT ISZERO PUSH3 0x223 JUMPI DUP3 MLOAD DUP3 SSTORE SWAP2 PUSH1 0x20 ADD SWAP2 SWAP1 PUSH1 0x1 ADD SWAP1 PUSH3 0x206 JUMP JUMPDEST JUMPDEST POP SWAP1 POP PUSH3 0x233 SWAP2 SWAP1 PUSH3 0x237 JUMP JUMPDEST POP SWAP1 JUMP JUMPDEST JUMPDEST DUP1 DUP3 GT ISZERO PUSH3 0x252 JUMPI PUSH1 0x0 DUP2 PUSH1 0x0 SWAP1 SSTORE POP PUSH1 0x1 ADD PUSH3 0x238 JUMP JUMPDEST POP SWAP1 JUMP JUMPDEST PUSH1 0x0 PUSH1 0x2 DUP3 DIV SWAP1 POP PUSH1 0x1 DUP3 AND DUP1 PUSH3 0x26F JUMPI PUSH1 0x7F DUP3 AND SWAP2 POP JUMPDEST PUSH1 0x20 DUP3 LT DUP2 EQ ISZERO PUSH3 0x286 JUMPI PUSH3 0x285 PUSH3 0x28C JUMP JUMPDEST JUMPDEST POP SWAP2 SWAP1 POP JUMP JUMPDEST PUSH32 0x4E487B7100000000000000000000000000000000000000000000000000000000 PUSH1 0x0 MSTORE PUSH1 0x22 PUSH1 0x4 MSTORE PUSH1 0x24 PUSH1 0x0 REVERT JUMPDEST PUSH2 0x2101 DUP1 PUSH3 0x2CB PUSH1 0x0 CODECOPY PUSH1 0x0 RETURN INVALID PUSH1 0x80 PUSH1 0x40 MSTORE CALLVALUE DUP1 ISZERO PUSH2 0x10 JUMPI PUSH1 0x0 DUP1 REVERT JUMPDEST POP PUSH1 0x4 CALLDATASIZE LT PUSH2 0x116 JUMPI PUSH1 0x0 CALLDATALOAD PUSH1 0xE0 SHR DUP1 PUSH4 0x8DA5CB5B GT PUSH2 0xA2 JUMPI DUP1 PUSH4 0xA7FC7A07 GT PUSH2 0x71 JUMPI DUP1 PUSH4 0xA7FC7A07 EQ PUSH2 0x2E3 JUMPI DUP1 PUSH4 0xA9059CBB EQ PUSH2 0x2FF JUMPI DUP1 PUSH4 0xDD62ED3E EQ PUSH2 0x32F JUMPI DUP1 PUSH4 0xF2FDE38B EQ PUSH2 0x35F JUMPI DUP1 PUSH4 0xF6A74ED7 EQ PUSH2 0x37B JUMPI PUSH2 0x116 JUMP JUMPDEST DUP1 PUSH4 0x8DA5CB5B EQ PUSH2 0x25B JUMPI DUP1 PUSH4 0x95D89B41 EQ PUSH2 0x279 JUMPI DUP1 PUSH4 0x9DC29FAC EQ PUSH2 0x297 JUMPI DUP1 PUSH4 0xA457C2D7 EQ PUSH2 0x2B3 JUMPI PUSH2 0x116 JUMP JUMPDEST DUP1 PUSH4 0x313CE567 GT PUSH2 0xE9 JUMPI DUP1 PUSH4 0x313CE567 EQ PUSH2 0x1B7 JUMPI DUP1 PUSH4 0x39509351 EQ PUSH2 0x1D5 JUMPI DUP1 PUSH4 0x40C10F19 EQ PUSH2 0x205 JUMPI DUP1 PUSH4 0x70A08231 EQ PUSH2 0x221 JUMPI DUP1 PUSH4 0x715018A6 EQ PUSH2 0x251 JUMPI PUSH2 0x116 JUMP JUMPDEST DUP1 PUSH4 0x6FDDE03 EQ PUSH2 0x11B JUMPI DUP1 PUSH4 0x95EA7B3 EQ PUSH2 0x139 JUMPI DUP1 PUSH4 0x18160DDD EQ PUSH2 0x169 JUMPI DUP1 PUSH4 0x23B872DD EQ PUSH2 0x187 JUMPI JUMPDEST PUSH1 0x0 DUP1 REVERT JUMPDEST PUSH2 0x123 PUSH2 0x397 JUMP JUMPDEST PUSH1 0x40 MLOAD PUSH2 0x130 SWAP2 SWAP1 PUSH2 0x1940 JUMP JUMPDEST PUSH1 0x40 MLOAD DUP1 SWAP2 SUB SWAP1 RETURN JUMPDEST PUSH2 0x153 PUSH1 0x4 DUP1 CALLDATASIZE SUB DUP2 ADD SWAP1 PUSH2 0x14E SWAP2 SWAP1 PUSH2 0x168E JUMP JUMPDEST PUSH2 0x429 JUMP JUMPDEST PUSH1 0x40 MLOAD PUSH2 0x160 SWAP2 SWAP1 PUSH2 0x1925 JUMP JUMPDEST PUSH1 0x40 MLOAD DUP1 SWAP2 SUB SWAP1 RETURN JUMPDEST PUSH2 0x171 PUSH2 0x447 JUMP JUMPDEST PUSH1 0x40 MLOAD PUSH2 0x17E SWAP2 SWAP1 PUSH2 0x1B02 JUMP JUMPDEST PUSH1 0x40 MLOAD DUP1 SWAP2 SUB SWAP1 RETURN JUMPDEST PUSH2 0x1A1 PUSH1 0x4 DUP1 CALLDATASIZE SUB DUP2 ADD SWAP1 PUSH2 0x19C SWAP2 SWAP1 PUSH2 0x163B JUMP JUMPDEST PUSH2 0x451 JUMP JUMPDEST PUSH1 0x40 MLOAD PUSH2 0x1AE SWAP2 SWAP1 PUSH2 0x1925 JUMP JUMPDEST PUSH1 0x40 MLOAD DUP1 SWAP2 SUB SWAP1 RETURN JUMPDEST PUSH2 0x1BF PUSH2 0x5D9 JUMP JUMPDEST PUSH1 0x40 MLOAD PUSH2 0x1CC SWAP2 SWAP1 PUSH2 0x1B1D JUMP JUMPDEST PUSH1 0x40 MLOAD DUP1 SWAP2 SUB SWAP1 RETURN JUMPDEST PUSH2 0x1EF PUSH1 0x4 DUP1 CALLDATASIZE SUB DUP2 ADD SWAP1 PUSH2 0x1EA SWAP2 SWAP1 PUSH2 0x168E JUMP JUMPDEST PUSH2 0x5E2 JUMP JUMPDEST PUSH1 0x40 MLOAD PUSH2 0x1FC SWAP2 SWAP1 PUSH2 0x1925 JUMP JUMPDEST PUSH1 0x40 MLOAD DUP1 SWAP2 SUB SWAP1 RETURN JUMPDEST PUSH2 0x21F PUSH1 0x4 DUP1 CALLDATASIZE SUB DUP2 ADD SWAP1 PUSH2 0x21A SWAP2 SWAP1 PUSH2 0x168E JUMP JUMPDEST PUSH2 0x68E JUMP JUMPDEST STOP JUMPDEST PUSH2 0x23B PUSH1 0x4 DUP1 CALLDATASIZE SUB DUP2 ADD SWAP1 PUSH2 0x236 SWAP2 SWAP1 PUSH2 0x15CE JUMP JUMPDEST PUSH2 0x69C JUMP JUMPDEST PUSH1 0x40 MLOAD PUSH2 0x248 SWAP2 SWAP1 PUSH2 0x1B02 JUMP JUMPDEST PUSH1 0x40 MLOAD DUP1 SWAP2 SUB SWAP1 RETURN JUMPDEST PUSH2 0x259 PUSH2 0x6E4 JUMP JUMPDEST STOP JUMPDEST PUSH2 0x263 PUSH2 0x76C JUMP JUMPDEST PUSH1 0x40 MLOAD PUSH2 0x270 SWAP2 SWAP1 PUSH2 0x190A JUMP JUMPDEST PUSH1 0x40 MLOAD DUP1 SWAP2 SUB SWAP1 RETURN JUMPDEST PUSH2 0x281 PUSH2 0x796 JUMP JUMPDEST PUSH1 0x40 MLOAD PUSH2 0x28E SWAP2 SWAP1 PUSH2 0x1940 JUMP JUMPDEST PUSH1 0x40 MLOAD DUP1 SWAP2 SUB SWAP1 RETURN JUMPDEST PUSH2 0x2B1 PUSH1 0x4 DUP1 CALLDATASIZE SUB DUP2 ADD SWAP1 PUSH2 0x2AC SWAP2 SWAP1 PUSH2 0x168E JUMP JUMPDEST PUSH2 0x828 JUMP JUMPDEST STOP JUMPDEST PUSH2 0x2CD PUSH1 0x4 DUP1 CALLDATASIZE SUB DUP2 ADD SWAP1 PUSH2 0x2C8 SWAP2 SWAP1 PUSH2 0x168E JUMP JUMPDEST PUSH2 0x836 JUMP JUMPDEST PUSH1 0x40 MLOAD PUSH2 0x2DA SWAP2 SWAP1 PUSH2 0x1925 JUMP JUMPDEST PUSH1 0x40 MLOAD DUP1 SWAP2 SUB SWAP1 RETURN JUMPDEST PUSH2 0x2FD PUSH1 0x4 DUP1 CALLDATASIZE SUB DUP2 ADD SWAP1 PUSH2 0x2F8 SWAP2 SWAP1 PUSH2 0x15CE JUMP JUMPDEST PUSH2 0x921 JUMP JUMPDEST STOP JUMPDEST PUSH2 0x319 PUSH1 0x4 DUP1 CALLDATASIZE SUB DUP2 ADD SWAP1 PUSH2 0x314 SWAP2 SWAP1 PUSH2 0x168E JUMP JUMPDEST PUSH2 0xA01 JUMP JUMPDEST PUSH1 0x40 MLOAD PUSH2 0x326 SWAP2 SWAP1 PUSH2 0x1925 JUMP JUMPDEST PUSH1 0x40 MLOAD DUP1 SWAP2 SUB SWAP1 RETURN JUMPDEST PUSH2 0x349 PUSH1 0x4 DUP1 CALLDATASIZE SUB DUP2 ADD SWAP1 PUSH2 0x344 SWAP2 SWAP1 PUSH2 0x15FB JUMP JUMPDEST PUSH2 0xAAF JUMP JUMPDEST PUSH1 0x40 MLOAD PUSH2 0x356 SWAP2 SWAP1 PUSH2 0x1B02 JUMP JUMPDEST PUSH1 0x40 MLOAD DUP1 SWAP2 SUB SWAP1 RETURN JUMPDEST PUSH2 0x379 PUSH1 0x4 DUP1 CALLDATASIZE SUB DUP2 ADD SWAP1 PUSH2 0x374 SWAP2 SWAP1 PUSH2 0x15CE JUMP JUMPDEST PUSH2 0xB36 JUMP JUMPDEST STOP JUMPDEST PUSH2 0x395 PUSH1 0x4 DUP1 CALLDATASIZE SUB DUP2 ADD SWAP1 PUSH2 0x390 SWAP2 SWAP1 PUSH2 0x15CE JUMP JUMPDEST PUSH2 0xC2E JUMP JUMPDEST STOP JUMPDEST PUSH1 0x60 PUSH1 0x3 DUP1 SLOAD PUSH2 0x3A6 SWAP1 PUSH2 0x1C66 JUMP JUMPDEST DUP1 PUSH1 0x1F ADD PUSH1 0x20 DUP1 SWAP2 DIV MUL PUSH1 0x20 ADD PUSH1 0x40 MLOAD SWAP1 DUP2 ADD PUSH1 0x40 MSTORE DUP1 SWAP3 SWAP2 SWAP1 DUP2 DUP2 MSTORE PUSH1 0x20 ADD DUP3 DUP1 SLOAD PUSH2 0x3D2 SWAP1 PUSH2 0x1C66 JUMP JUMPDEST DUP1 ISZERO PUSH2 0x41F JUMPI DUP1 PUSH1 0x1F LT PUSH2 0x3F4 JUMPI PUSH2 0x100 DUP1 DUP4 SLOAD DIV MUL DUP4 MSTORE SWAP2 PUSH1 0x20 ADD SWAP2 PUSH2 0x41F JUMP JUMPDEST DUP3 ADD SWAP2 SWAP1 PUSH1 0x0 MSTORE PUSH1 0x20 PUSH1 0x0 KECCAK256 SWAP1 JUMPDEST DUP2 SLOAD DUP2 MSTORE SWAP1 PUSH1 0x1 ADD SWAP1 PUSH1 0x20 ADD DUP1 DUP4 GT PUSH2 0x402 JUMPI DUP3 SWAP1 SUB PUSH1 0x1F AND DUP3 ADD SWAP2 JUMPDEST POP POP POP POP POP SWAP1 POP SWAP1 JUMP JUMPDEST PUSH1 0x0 PUSH2 0x43D PUSH2 0x436 PUSH2 0xD05 JUMP JUMPDEST DUP5 DUP5 PUSH2 0xD0D JUMP JUMPDEST PUSH1 0x1 SWAP1 POP SWAP3 SWAP2 POP POP JUMP JUMPDEST PUSH1 0x0 PUSH1 0x2 SLOAD SWAP1 POP SWAP1 JUMP JUMPDEST PUSH1 0x0 PUSH1 0x5 PUSH1 0x0 SWAP1 SLOAD SWAP1 PUSH2 0x100 EXP SWAP1 DIV PUSH20 0xFFFFFFFFFFFFFFFFFFFFFFFFFFFFFFFFFFFFFFFF AND PUSH20 0xFFFFFFFFFFFFFFFFFFFFFFFFFFFFFFFFFFFFFFFF AND CALLER PUSH20 0xFFFFFFFFFFFFFFFFFFFFFFFFFFFFFFFFFFFFFFFF AND EQ PUSH2 0x4E3 JUMPI PUSH1 0x40 MLOAD PUSH32 0x8C379A000000000000000000000000000000000000000000000000000000000 DUP2 MSTORE PUSH1 0x4 ADD PUSH2 0x4DA SWAP1 PUSH2 0x19E2 JUMP JUMPDEST PUSH1 0x40 MLOAD DUP1 SWAP2 SUB SWAP1 REVERT JUMPDEST PUSH2 0x4EE DUP5 DUP5 DUP5 PUSH2 0xED8 JUMP JUMPDEST PUSH1 0x0 PUSH1 0x1 PUSH1 0x0 DUP7 PUSH20 0xFFFFFFFFFFFFFFFFFFFFFFFFFFFFFFFFFFFFFFFF AND PUSH20 0xFFFFFFFFFFFFFFFFFFFFFFFFFFFFFFFFFFFFFFFF AND DUP2 MSTORE PUSH1 0x20 ADD SWAP1 DUP2 MSTORE PUSH1 0x20 ADD PUSH1 0x0 KECCAK256 PUSH1 0x0 PUSH2 0x539 PUSH2 0xD05 JUMP JUMPDEST PUSH20 0xFFFFFFFFFFFFFFFFFFFFFFFFFFFFFFFFFFFFFFFF AND PUSH20 0xFFFFFFFFFFFFFFFFFFFFFFFFFFFFFFFFFFFFFFFF AND DUP2 MSTORE PUSH1 0x20 ADD SWAP1 DUP2 MSTORE PUSH1 0x20 ADD PUSH1 0x0 KECCAK256 SLOAD SWAP1 POP DUP3 DUP2 LT ISZERO PUSH2 0x5B9 JUMPI PUSH1 0x40 MLOAD PUSH32 0x8C379A000000000000000000000000000000000000000000000000000000000 DUP2 MSTORE PUSH1 0x4 ADD PUSH2 0x5B0 SWAP1 PUSH2 0x1A22 JUMP JUMPDEST PUSH1 0x40 MLOAD DUP1 SWAP2 SUB SWAP1 REVERT JUMPDEST PUSH2 0x5CD DUP6 PUSH2 0x5C5 PUSH2 0xD05 JUMP JUMPDEST DUP6 DUP5 SUB PUSH2 0xD0D JUMP JUMPDEST PUSH1 0x1 SWAP2 POP POP SWAP4 SWAP3 POP POP POP JUMP JUMPDEST PUSH1 0x0 PUSH1 0x12 SWAP1 POP SWAP1 JUMP JUMPDEST PUSH1 0x0 PUSH2 0x684 PUSH2 0x5EF PUSH2 0xD05 JUMP JUMPDEST DUP5 DUP5 PUSH1 0x1 PUSH1 0x0 PUSH2 0x5FD PUSH2 0xD05 JUMP JUMPDEST PUSH20 0xFFFFFFFFFFFFFFFFFFFFFFFFFFFFFFFFFFFFFFFF AND PUSH20 0xFFFFFFFFFFFFFFFFFFFFFFFFFFFFFFFFFFFFFFFF AND DUP2 MSTORE PUSH1 0x20 ADD SWAP1 DUP2 MSTORE PUSH1 0x20 ADD PUSH1 0x0 KECCAK256 PUSH1 0x0 DUP9 PUSH20 0xFFFFFFFFFFFFFFFFFFFFFFFFFFFFFFFFFFFFFFFF AND PUSH20 0xFFFFFFFFFFFFFFFFFFFFFFFFFFFFFFFFFFFFFFFF AND DUP2 MSTORE PUSH1 0x20 ADD SWAP1 DUP2 MSTORE PUSH1 0x20 ADD PUSH1 0x0 KECCAK256 SLOAD PUSH2 0x67F SWAP2 SWAP1 PUSH2 0x1B54 JUMP JUMPDEST PUSH2 0xD0D JUMP JUMPDEST PUSH1 0x1 SWAP1 POP SWAP3 SWAP2 POP POP JUMP JUMPDEST PUSH2 0x698 DUP3 DUP3 PUSH2 0x1159 JUMP JUMPDEST POP POP JUMP JUMPDEST PUSH1 0x0 DUP1 PUSH1 0x0 DUP4 PUSH20 0xFFFFFFFFFFFFFFFFFFFFFFFFFFFFFFFFFFFFFFFF AND PUSH20 0xFFFFFFFFFFFFFFFFFFFFFFFFFFFFFFFFFFFFFFFF AND DUP2 MSTORE PUSH1 0x20 ADD SWAP1 DUP2 MSTORE PUSH1 0x20 ADD PUSH1 0x0 KECCAK256 SLOAD SWAP1 POP SWAP2 SWAP1 POP JUMP JUMPDEST PUSH2 0x6EC PUSH2 0xD05 JUMP JUMPDEST PUSH20 0xFFFFFFFFFFFFFFFFFFFFFFFFFFFFFFFFFFFFFFFF AND PUSH2 0x70A PUSH2 0x76C JUMP JUMPDEST PUSH20 0xFFFFFFFFFFFFFFFFFFFFFFFFFFFFFFFFFFFFFFFF AND EQ PUSH2 0x760 JUMPI PUSH1 0x40 MLOAD PUSH32 0x8C379A000000000000000000000000000000000000000000000000000000000 DUP2 MSTORE PUSH1 0x4 ADD PUSH2 0x757 SWAP1 PUSH2 0x1A42 JUMP JUMPDEST PUSH1 0x40 MLOAD DUP1 SWAP2 SUB SWAP1 REVERT JUMPDEST PUSH2 0x76A PUSH1 0x0 PUSH2 0x12B9 JUMP JUMPDEST JUMP JUMPDEST PUSH1 0x0 PUSH1 0x6 PUSH1 0x0 SWAP1 SLOAD SWAP1 PUSH2 0x100 EXP SWAP1 DIV PUSH20 0xFFFFFFFFFFFFFFFFFFFFFFFFFFFFFFFFFFFFFFFF AND SWAP1 POP SWAP1 JUMP JUMPDEST PUSH1 0x60 PUSH1 0x4 DUP1 SLOAD PUSH2 0x7A5 SWAP1 PUSH2 0x1C66 JUMP JUMPDEST DUP1 PUSH1 0x1F ADD PUSH1 0x20 DUP1 SWAP2 DIV MUL PUSH1 0x20 ADD PUSH1 0x40 MLOAD SWAP1 DUP2 ADD PUSH1 0x40 MSTORE DUP1 SWAP3 SWAP2 SWAP1 DUP2 DUP2 MSTORE PUSH1 0x20 ADD DUP3 DUP1 SLOAD PUSH2 0x7D1 SWAP1 PUSH2 0x1C66 JUMP JUMPDEST DUP1 ISZERO PUSH2 0x81E JUMPI DUP1 PUSH1 0x1F LT PUSH2 0x7F3 JUMPI PUSH2 0x100 DUP1 DUP4 SLOAD DIV MUL DUP4 MSTORE SWAP2 PUSH1 0x20 ADD SWAP2 PUSH2 0x81E JUMP JUMPDEST DUP3 ADD SWAP2 SWAP1 PUSH1 0x0 MSTORE PUSH1 0x20 PUSH1 0x0 KECCAK256 SWAP1 JUMPDEST DUP2 SLOAD DUP2 MSTORE SWAP1 PUSH1 0x1 ADD SWAP1 PUSH1 0x20 ADD DUP1 DUP4 GT PUSH2 0x801 JUMPI DUP3 SWAP1 SUB PUSH1 0x1F AND DUP3 ADD SWAP2 JUMPDEST POP POP POP POP POP SWAP1 POP SWAP1 JUMP JUMPDEST PUSH2 0x832 DUP3 DUP3 PUSH2 0x137F JUMP JUMPDEST POP POP JUMP JUMPDEST PUSH1 0x0 DUP1 PUSH1 0x1 PUSH1 0x0 PUSH2 0x845 PUSH2 0xD05 JUMP JUMPDEST PUSH20 0xFFFFFFFFFFFFFFFFFFFFFFFFFFFFFFFFFFFFFFFF AND PUSH20 0xFFFFFFFFFFFFFFFFFFFFFFFFFFFFFFFFFFFFFFFF AND DUP2 MSTORE PUSH1 0x20 ADD SWAP1 DUP2 MSTORE PUSH1 0x20 ADD PUSH1 0x0 KECCAK256 PUSH1 0x0 DUP6 PUSH20 0xFFFFFFFFFFFFFFFFFFFFFFFFFFFFFFFFFFFFFFFF AND PUSH20 0xFFFFFFFFFFFFFFFFFFFFFFFFFFFFFFFFFFFFFFFF AND DUP2 MSTORE PUSH1 0x20 ADD SWAP1 DUP2 MSTORE PUSH1 0x20 ADD PUSH1 0x0 KECCAK256 SLOAD SWAP1 POP DUP3 DUP2 LT ISZERO PUSH2 0x902 JUMPI PUSH1 0x40 MLOAD PUSH32 0x8C379A000000000000000000000000000000000000000000000000000000000 DUP2 MSTORE PUSH1 0x4 ADD PUSH2 0x8F9 SWAP1 PUSH2 0x1AC2 JUMP JUMPDEST PUSH1 0x40 MLOAD DUP1 SWAP2 SUB SWAP1 REVERT JUMPDEST PUSH2 0x916 PUSH2 0x90D PUSH2 0xD05 JUMP JUMPDEST DUP6 DUP6 DUP5 SUB PUSH2 0xD0D JUMP JUMPDEST PUSH1 0x1 SWAP2 POP POP SWAP3 SWAP2 POP POP JUMP JUMPDEST PUSH2 0x929 PUSH2 0xD05 JUMP JUMPDEST PUSH20 0xFFFFFFFFFFFFFFFFFFFFFFFFFFFFFFFFFFFFFFFF AND PUSH2 0x947 PUSH2 0x76C JUMP JUMPDEST PUSH20 0xFFFFFFFFFFFFFFFFFFFFFFFFFFFFFFFFFFFFFFFF AND EQ PUSH2 0x99D JUMPI PUSH1 0x40 MLOAD PUSH32 0x8C379A000000000000000000000000000000000000000000000000000000000 DUP2 MSTORE PUSH1 0x4 ADD PUSH2 0x994 SWAP1 PUSH2 0x1A42 JUMP JUMPDEST PUSH1 0x40 MLOAD DUP1 SWAP2 SUB SWAP1 REVERT JUMPDEST PUSH1 0x1 PUSH1 0x7 PUSH1 0x0 DUP4 PUSH20 0xFFFFFFFFFFFFFFFFFFFFFFFFFFFFFFFFFFFFFFFF AND PUSH20 0xFFFFFFFFFFFFFFFFFFFFFFFFFFFFFFFFFFFFFFFF AND DUP2 MSTORE PUSH1 0x20 ADD SWAP1 DUP2 MSTORE PUSH1 0x20 ADD PUSH1 0x0 KECCAK256 PUSH1 0x0 PUSH2 0x100 EXP DUP2 SLOAD DUP2 PUSH1 0xFF MUL NOT AND SWAP1 DUP4 ISZERO ISZERO MUL OR SWAP1 SSTORE POP PUSH2 0x9FE DUP2 PUSH2 0x1556 JUMP JUMPDEST POP JUMP JUMPDEST PUSH1 0x0 PUSH1 0x5 PUSH1 0x0 SWAP1 SLOAD SWAP1 PUSH2 0x100 EXP SWAP1 DIV PUSH20 0xFFFFFFFFFFFFFFFFFFFFFFFFFFFFFFFFFFFFFFFF AND PUSH20 0xFFFFFFFFFFFFFFFFFFFFFFFFFFFFFFFFFFFFFFFF AND CALLER PUSH20 0xFFFFFFFFFFFFFFFFFFFFFFFFFFFFFFFFFFFFFFFF AND EQ PUSH2 0xA93 JUMPI PUSH1 0x40 MLOAD PUSH32 0x8C379A000000000000000000000000000000000000000000000000000000000 DUP2 MSTORE PUSH1 0x4 ADD PUSH2 0xA8A SWAP1 PUSH2 0x19E2 JUMP JUMPDEST PUSH1 0x40 MLOAD DUP1 SWAP2 SUB SWAP1 REVERT JUMPDEST PUSH2 0xAA5 PUSH2 0xA9E PUSH2 0xD05 JUMP JUMPDEST DUP5 DUP5 PUSH2 0xED8 JUMP JUMPDEST PUSH1 0x1 SWAP1 POP SWAP3 SWAP2 POP POP JUMP JUMPDEST PUSH1 0x0 PUSH1 0x1 PUSH1 0x0 DUP5 PUSH20 0xFFFFFFFFFFFFFFFFFFFFFFFFFFFFFFFFFFFFFFFF AND PUSH20 0xFFFFFFFFFFFFFFFFFFFFFFFFFFFFFFFFFFFFFFFF AND DUP2 MSTORE PUSH1 0x20 ADD SWAP1 DUP2 MSTORE PUSH1 0x20 ADD PUSH1 0x0 KECCAK256 PUSH1 0x0 DUP4 PUSH20 0xFFFFFFFFFFFFFFFFFFFFFFFFFFFFFFFFFFFFFFFF AND PUSH20 0xFFFFFFFFFFFFFFFFFFFFFFFFFFFFFFFFFFFFFFFF AND DUP2 MSTORE PUSH1 0x20 ADD SWAP1 DUP2 MSTORE PUSH1 0x20 ADD PUSH1 0x0 KECCAK256 SLOAD SWAP1 POP SWAP3 SWAP2 POP POP JUMP JUMPDEST PUSH2 0xB3E PUSH2 0xD05 JUMP JUMPDEST PUSH20 0xFFFFFFFFFFFFFFFFFFFFFFFFFFFFFFFFFFFFFFFF AND PUSH2 0xB5C PUSH2 0x76C JUMP JUMPDEST PUSH20 0xFFFFFFFFFFFFFFFFFFFFFFFFFFFFFFFFFFFFFFFF AND EQ PUSH2 0xBB2 JUMPI PUSH1 0x40 MLOAD PUSH32 0x8C379A000000000000000000000000000000000000000000000000000000000 DUP2 MSTORE PUSH1 0x4 ADD PUSH2 0xBA9 SWAP1 PUSH2 0x1A42 JUMP JUMPDEST PUSH1 0x40 MLOAD DUP1 SWAP2 SUB SWAP1 REVERT JUMPDEST PUSH1 0x0 PUSH20 0xFFFFFFFFFFFFFFFFFFFFFFFFFFFFFFFFFFFFFFFF AND DUP2 PUSH20 0xFFFFFFFFFFFFFFFFFFFFFFFFFFFFFFFFFFFFFFFF AND EQ ISZERO PUSH2 0xC22 JUMPI PUSH1 0x40 MLOAD PUSH32 0x8C379A000000000000000000000000000000000000000000000000000000000 DUP2 MSTORE PUSH1 0x4 ADD PUSH2 0xC19 SWAP1 PUSH2 0x19A2 JUMP JUMPDEST PUSH1 0x40 MLOAD DUP1 SWAP2 SUB SWAP1 REVERT JUMPDEST PUSH2 0xC2B DUP2 PUSH2 0x12B9 JUMP JUMPDEST POP JUMP JUMPDEST PUSH2 0xC36 PUSH2 0xD05 JUMP JUMPDEST PUSH20 0xFFFFFFFFFFFFFFFFFFFFFFFFFFFFFFFFFFFFFFFF AND PUSH2 0xC54 PUSH2 0x76C JUMP JUMPDEST PUSH20 0xFFFFFFFFFFFFFFFFFFFFFFFFFFFFFFFFFFFFFFFF AND EQ PUSH2 0xCAA JUMPI PUSH1 0x40 MLOAD PUSH32 0x8C379A000000000000000000000000000000000000000000000000000000000 DUP2 MSTORE PUSH1 0x4 ADD PUSH2 0xCA1 SWAP1 PUSH2 0x1A42 JUMP JUMPDEST PUSH1 0x40 MLOAD DUP1 SWAP2 SUB SWAP1 REVERT JUMPDEST PUSH1 0x0 PUSH1 0x7 PUSH1 0x0 DUP4 PUSH20 0xFFFFFFFFFFFFFFFFFFFFFFFFFFFFFFFFFFFFFFFF AND PUSH20 0xFFFFFFFFFFFFFFFFFFFFFFFFFFFFFFFFFFFFFFFF AND DUP2 MSTORE PUSH1 0x20 ADD SWAP1 DUP2 MSTORE PUSH1 0x20 ADD PUSH1 0x0 KECCAK256 PUSH1 0x0 PUSH2 0x100 EXP DUP2 SLOAD DUP2 PUSH1 0xFF MUL NOT AND SWAP1 DUP4 ISZERO ISZERO MUL OR SWAP1 SSTORE POP POP JUMP JUMPDEST PUSH1 0x0 CALLER SWAP1 POP SWAP1 JUMP JUMPDEST PUSH1 0x0 PUSH20 0xFFFFFFFFFFFFFFFFFFFFFFFFFFFFFFFFFFFFFFFF AND DUP4 PUSH20 0xFFFFFFFFFFFFFFFFFFFFFFFFFFFFFFFFFFFFFFFF AND EQ ISZERO PUSH2 0xD7D JUMPI PUSH1 0x40 MLOAD PUSH32 0x8C379A000000000000000000000000000000000000000000000000000000000 DUP2 MSTORE PUSH1 0x4 ADD PUSH2 0xD74 SWAP1 PUSH2 0x1AA2 JUMP JUMPDEST PUSH1 0x40 MLOAD DUP1 SWAP2 SUB SWAP1 REVERT JUMPDEST PUSH1 0x0 PUSH20 0xFFFFFFFFFFFFFFFFFFFFFFFFFFFFFFFFFFFFFFFF AND DUP3 PUSH20 0xFFFFFFFFFFFFFFFFFFFFFFFFFFFFFFFFFFFFFFFF AND EQ ISZERO PUSH2 0xDED JUMPI PUSH1 0x40 MLOAD PUSH32 0x8C379A000000000000000000000000000000000000000000000000000000000 DUP2 MSTORE PUSH1 0x4 ADD PUSH2 0xDE4 SWAP1 PUSH2 0x19C2 JUMP JUMPDEST PUSH1 0x40 MLOAD DUP1 SWAP2 SUB SWAP1 REVERT JUMPDEST DUP1 PUSH1 0x1 PUSH1 0x0 DUP6 PUSH20 0xFFFFFFFFFFFFFFFFFFFFFFFFFFFFFFFFFFFFFFFF AND PUSH20 0xFFFFFFFFFFFFFFFFFFFFFFFFFFFFFFFFFFFFFFFF AND DUP2 MSTORE PUSH1 0x20 ADD SWAP1 DUP2 MSTORE PUSH1 0x20 ADD PUSH1 0x0 KECCAK256 PUSH1 0x0 DUP5 PUSH20 0xFFFFFFFFFFFFFFFFFFFFFFFFFFFFFFFFFFFFFFFF AND PUSH20 0xFFFFFFFFFFFFFFFFFFFFFFFFFFFFFFFFFFFFFFFF AND DUP2 MSTORE PUSH1 0x20 ADD SWAP1 DUP2 MSTORE PUSH1 0x20 ADD PUSH1 0x0 KECCAK256 DUP2 SWAP1 SSTORE POP DUP2 PUSH20 0xFFFFFFFFFFFFFFFFFFFFFFFFFFFFFFFFFFFFFFFF AND DUP4 PUSH20 0xFFFFFFFFFFFFFFFFFFFFFFFFFFFFFFFFFFFFFFFF AND PUSH32 0x8C5BE1E5EBEC7D5BD14F71427D1E84F3DD0314C0F7B2291E5B200AC8C7C3B925 DUP4 PUSH1 0x40 MLOAD PUSH2 0xECB SWAP2 SWAP1 PUSH2 0x1B02 JUMP JUMPDEST PUSH1 0x40 MLOAD DUP1 SWAP2 SUB SWAP1 LOG3 POP POP POP JUMP JUMPDEST PUSH1 0x0 PUSH20 0xFFFFFFFFFFFFFFFFFFFFFFFFFFFFFFFFFFFFFFFF AND DUP4 PUSH20 0xFFFFFFFFFFFFFFFFFFFFFFFFFFFFFFFFFFFFFFFF AND EQ ISZERO PUSH2 0xF48 JUMPI PUSH1 0x40 MLOAD PUSH32 0x8C379A000000000000000000000000000000000000000000000000000000000 DUP2 MSTORE PUSH1 0x4 ADD PUSH2 0xF3F SWAP1 PUSH2 0x1A82 JUMP JUMPDEST PUSH1 0x40 MLOAD DUP1 SWAP2 SUB SWAP1 REVERT JUMPDEST PUSH1 0x0 PUSH20 0xFFFFFFFFFFFFFFFFFFFFFFFFFFFFFFFFFFFFFFFF AND DUP3 PUSH20 0xFFFFFFFFFFFFFFFFFFFFFFFFFFFFFFFFFFFFFFFF AND EQ ISZERO PUSH2 0xFB8 JUMPI PUSH1 0x40 MLOAD PUSH32 0x8C379A000000000000000000000000000000000000000000000000000000000 DUP2 MSTORE PUSH1 0x4 ADD PUSH2 0xFAF SWAP1 PUSH2 0x1962 JUMP JUMPDEST PUSH1 0x40 MLOAD DUP1 SWAP2 SUB SWAP1 REVERT JUMPDEST PUSH2 0xFC3 DUP4 DUP4 DUP4 PUSH2 0x159A JUMP JUMPDEST PUSH1 0x0 DUP1 PUSH1 0x0 DUP6 PUSH20 0xFFFFFFFFFFFFFFFFFFFFFFFFFFFFFFFFFFFFFFFF AND PUSH20 0xFFFFFFFFFFFFFFFFFFFFFFFFFFFFFFFFFFFFFFFF AND DUP2 MSTORE PUSH1 0x20 ADD SWAP1 DUP2 MSTORE PUSH1 0x20 ADD PUSH1 0x0 KECCAK256 SLOAD SWAP1 POP DUP2 DUP2 LT ISZERO PUSH2 0x1049 JUMPI PUSH1 0x40 MLOAD PUSH32 0x8C379A000000000000000000000000000000000000000000000000000000000 DUP2 MSTORE PUSH1 0x4 ADD PUSH2 0x1040 SWAP1 PUSH2 0x1A02 JUMP JUMPDEST PUSH1 0x40 MLOAD DUP1 SWAP2 SUB SWAP1 REVERT JUMPDEST DUP2 DUP2 SUB PUSH1 0x0 DUP1 DUP7 PUSH20 0xFFFFFFFFFFFFFFFFFFFFFFFFFFFFFFFFFFFFFFFF AND PUSH20 0xFFFFFFFFFFFFFFFFFFFFFFFFFFFFFFFFFFFFFFFF AND DUP2 MSTORE PUSH1 0x20 ADD SWAP1 DUP2 MSTORE PUSH1 0x20 ADD PUSH1 0x0 KECCAK256 DUP2 SWAP1 SSTORE POP DUP2 PUSH1 0x0 DUP1 DUP6 PUSH20 0xFFFFFFFFFFFFFFFFFFFFFFFFFFFFFFFFFFFFFFFF AND PUSH20 0xFFFFFFFFFFFFFFFFFFFFFFFFFFFFFFFFFFFFFFFF AND DUP2 MSTORE PUSH1 0x20 ADD SWAP1 DUP2 MSTORE PUSH1 0x20 ADD PUSH1 0x0 KECCAK256 PUSH1 0x0 DUP3 DUP3 SLOAD PUSH2 0x10DC SWAP2 SWAP1 PUSH2 0x1B54 JUMP JUMPDEST SWAP3 POP POP DUP2 SWAP1 SSTORE POP DUP3 PUSH20 0xFFFFFFFFFFFFFFFFFFFFFFFFFFFFFFFFFFFFFFFF AND DUP5 PUSH20 0xFFFFFFFFFFFFFFFFFFFFFFFFFFFFFFFFFFFFFFFF AND PUSH32 0xDDF252AD1BE2C89B69C2B068FC378DAA952BA7F163C4A11628F55A4DF523B3EF DUP5 PUSH1 0x40 MLOAD PUSH2 0x1140 SWAP2 SWAP1 PUSH2 0x1B02 JUMP JUMPDEST PUSH1 0x40 MLOAD DUP1 SWAP2 SUB SWAP1 LOG3 PUSH2 0x1153 DUP5 DUP5 DUP5 PUSH2 0x159F JUMP JUMPDEST POP POP POP POP JUMP JUMPDEST PUSH1 0x0 PUSH20 0xFFFFFFFFFFFFFFFFFFFFFFFFFFFFFFFFFFFFFFFF AND DUP3 PUSH20 0xFFFFFFFFFFFFFFFFFFFFFFFFFFFFFFFFFFFFFFFF AND EQ ISZERO PUSH2 0x11C9 JUMPI PUSH1 0x40 MLOAD PUSH32 0x8C379A000000000000000000000000000000000000000000000000000000000 DUP2 MSTORE PUSH1 0x4 ADD PUSH2 0x11C0 SWAP1 PUSH2 0x1AE2 JUMP JUMPDEST PUSH1 0x40 MLOAD DUP1 SWAP2 SUB SWAP1 REVERT JUMPDEST PUSH2 0x11D5 PUSH1 0x0 DUP4 DUP4 PUSH2 0x159A JUMP JUMPDEST DUP1 PUSH1 0x2 PUSH1 0x0 DUP3 DUP3 SLOAD PUSH2 0x11E7 SWAP2 SWAP1 PUSH2 0x1B54 JUMP JUMPDEST SWAP3 POP POP DUP2 SWAP1 SSTORE POP DUP1 PUSH1 0x0 DUP1 DUP5 PUSH20 0xFFFFFFFFFFFFFFFFFFFFFFFFFFFFFFFFFFFFFFFF AND PUSH20 0xFFFFFFFFFFFFFFFFFFFFFFFFFFFFFFFFFFFFFFFF AND DUP2 MSTORE PUSH1 0x20 ADD SWAP1 DUP2 MSTORE PUSH1 0x20 ADD PUSH1 0x0 KECCAK256 PUSH1 0x0 DUP3 DUP3 SLOAD PUSH2 0x123C SWAP2 SWAP1 PUSH2 0x1B54 JUMP JUMPDEST SWAP3 POP POP DUP2 SWAP1 SSTORE POP DUP2 PUSH20 0xFFFFFFFFFFFFFFFFFFFFFFFFFFFFFFFFFFFFFFFF AND PUSH1 0x0 PUSH20 0xFFFFFFFFFFFFFFFFFFFFFFFFFFFFFFFFFFFFFFFF AND PUSH32 0xDDF252AD1BE2C89B69C2B068FC378DAA952BA7F163C4A11628F55A4DF523B3EF DUP4 PUSH1 0x40 MLOAD PUSH2 0x12A1 SWAP2 SWAP1 PUSH2 0x1B02 JUMP JUMPDEST PUSH1 0x40 MLOAD DUP1 SWAP2 SUB SWAP1 LOG3 PUSH2 0x12B5 PUSH1 0x0 DUP4 DUP4 PUSH2 0x159F JUMP JUMPDEST POP POP JUMP JUMPDEST PUSH1 0x0 PUSH1 0x6 PUSH1 0x0 SWAP1 SLOAD SWAP1 PUSH2 0x100 EXP SWAP1 DIV PUSH20 0xFFFFFFFFFFFFFFFFFFFFFFFFFFFFFFFFFFFFFFFF AND SWAP1 POP DUP2 PUSH1 0x6 PUSH1 0x0 PUSH2 0x100 EXP DUP2 SLOAD DUP2 PUSH20 0xFFFFFFFFFFFFFFFFFFFFFFFFFFFFFFFFFFFFFFFF MUL NOT AND SWAP1 DUP4 PUSH20 0xFFFFFFFFFFFFFFFFFFFFFFFFFFFFFFFFFFFFFFFF AND MUL OR SWAP1 SSTORE POP DUP2 PUSH20 0xFFFFFFFFFFFFFFFFFFFFFFFFFFFFFFFFFFFFFFFF AND DUP2 PUSH20 0xFFFFFFFFFFFFFFFFFFFFFFFFFFFFFFFFFFFFFFFF AND PUSH32 0x8BE0079C531659141344CD1FD0A4F28419497F9722A3DAAFE3B4186F6B6457E0 PUSH1 0x40 MLOAD PUSH1 0x40 MLOAD DUP1 SWAP2 SUB SWAP1 LOG3 POP POP JUMP JUMPDEST PUSH1 0x0 PUSH20 0xFFFFFFFFFFFFFFFFFFFFFFFFFFFFFFFFFFFFFFFF AND DUP3 PUSH20 0xFFFFFFFFFFFFFFFFFFFFFFFFFFFFFFFFFFFFFFFF AND EQ ISZERO PUSH2 0x13EF JUMPI PUSH1 0x40 MLOAD PUSH32 0x8C379A000000000000000000000000000000000000000000000000000000000 DUP2 MSTORE PUSH1 0x4 ADD PUSH2 0x13E6 SWAP1 PUSH2 0x1A62 JUMP JUMPDEST PUSH1 0x40 MLOAD DUP1 SWAP2 SUB SWAP1 REVERT JUMPDEST PUSH2 0x13FB DUP3 PUSH1 0x0 DUP4 PUSH2 0x159A JUMP JUMPDEST PUSH1 0x0 DUP1 PUSH1 0x0 DUP5 PUSH20 0xFFFFFFFFFFFFFFFFFFFFFFFFFFFFFFFFFFFFFFFF AND PUSH20 0xFFFFFFFFFFFFFFFFFFFFFFFFFFFFFFFFFFFFFFFF AND DUP2 MSTORE PUSH1 0x20 ADD SWAP1 DUP2 MSTORE PUSH1 0x20 ADD PUSH1 0x0 KECCAK256 SLOAD SWAP1 POP DUP2 DUP2 LT ISZERO PUSH2 0x1481 JUMPI PUSH1 0x40 MLOAD PUSH32 0x8C379A000000000000000000000000000000000000000000000000000000000 DUP2 MSTORE PUSH1 0x4 ADD PUSH2 0x1478 SWAP1 PUSH2 0x1982 JUMP JUMPDEST PUSH1 0x40 MLOAD DUP1 SWAP2 SUB SWAP1 REVERT JUMPDEST DUP2 DUP2 SUB PUSH1 0x0 DUP1 DUP6 PUSH20 0xFFFFFFFFFFFFFFFFFFFFFFFFFFFFFFFFFFFFFFFF AND PUSH20 0xFFFFFFFFFFFFFFFFFFFFFFFFFFFFFFFFFFFFFFFF AND DUP2 MSTORE PUSH1 0x20 ADD SWAP1 DUP2 MSTORE PUSH1 0x20 ADD PUSH1 0x0 KECCAK256 DUP2 SWAP1 SSTORE POP DUP2 PUSH1 0x2 PUSH1 0x0 DUP3 DUP3 SLOAD PUSH2 0x14D8 SWAP2 SWAP1 PUSH2 0x1BAA JUMP JUMPDEST SWAP3 POP POP DUP2 SWAP1 SSTORE POP PUSH1 0x0 PUSH20 0xFFFFFFFFFFFFFFFFFFFFFFFFFFFFFFFFFFFFFFFF AND DUP4 PUSH20 0xFFFFFFFFFFFFFFFFFFFFFFFFFFFFFFFFFFFFFFFF AND PUSH32 0xDDF252AD1BE2C89B69C2B068FC378DAA952BA7F163C4A11628F55A4DF523B3EF DUP5 PUSH1 0x40 MLOAD PUSH2 0x153D SWAP2 SWAP1 PUSH2 0x1B02 JUMP JUMPDEST PUSH1 0x40 MLOAD DUP1 SWAP2 SUB SWAP1 LOG3 PUSH2 0x1551 DUP4 PUSH1 0x0 DUP5 PUSH2 0x159F JUMP JUMPDEST POP POP POP JUMP JUMPDEST DUP1 PUSH1 0x5 PUSH1 0x0 PUSH2 0x100 EXP DUP2 SLOAD DUP2 PUSH20 0xFFFFFFFFFFFFFFFFFFFFFFFFFFFFFFFFFFFFFFFF MUL NOT AND SWAP1 DUP4 PUSH20 0xFFFFFFFFFFFFFFFFFFFFFFFFFFFFFFFFFFFFFFFF AND MUL OR SWAP1 SSTORE POP POP JUMP JUMPDEST POP POP POP JUMP JUMPDEST POP POP POP JUMP JUMPDEST PUSH1 0x0 DUP2 CALLDATALOAD SWAP1 POP PUSH2 0x15B3 DUP2 PUSH2 0x209D JUMP JUMPDEST SWAP3 SWAP2 POP POP JUMP JUMPDEST PUSH1 0x0 DUP2 CALLDATALOAD SWAP1 POP PUSH2 0x15C8 DUP2 PUSH2 0x20B4 JUMP JUMPDEST SWAP3 SWAP2 POP POP JUMP JUMPDEST PUSH1 0x0 PUSH1 0x20 DUP3 DUP5 SUB SLT ISZERO PUSH2 0x15E4 JUMPI PUSH2 0x15E3 PUSH2 0x1CF6 JUMP JUMPDEST JUMPDEST PUSH1 0x0 PUSH2 0x15F2 DUP5 DUP3 DUP6 ADD PUSH2 0x15A4 JUMP JUMPDEST SWAP2 POP POP SWAP3 SWAP2 POP POP JUMP JUMPDEST PUSH1 0x0 DUP1 PUSH1 0x40 DUP4 DUP6 SUB SLT ISZERO PUSH2 0x1612 JUMPI PUSH2 0x1611 PUSH2 0x1CF6 JUMP JUMPDEST JUMPDEST PUSH1 0x0 PUSH2 0x1620 DUP6 DUP3 DUP7 ADD PUSH2 0x15A4 JUMP JUMPDEST SWAP3 POP POP PUSH1 0x20 PUSH2 0x1631 DUP6 DUP3 DUP7 ADD PUSH2 0x15A4 JUMP JUMPDEST SWAP2 POP POP SWAP3 POP SWAP3 SWAP1 POP JUMP JUMPDEST PUSH1 0x0 DUP1 PUSH1 0x0 PUSH1 0x60 DUP5 DUP7 SUB SLT ISZERO PUSH2 0x1654 JUMPI PUSH2 0x1653 PUSH2 0x1CF6 JUMP JUMPDEST JUMPDEST PUSH1 0x0 PUSH2 0x1662 DUP7 DUP3 DUP8 ADD PUSH2 0x15A4 JUMP JUMPDEST SWAP4 POP POP PUSH1 0x20 PUSH2 0x1673 DUP7 DUP3 DUP8 ADD PUSH2 0x15A4 JUMP JUMPDEST SWAP3 POP POP PUSH1 0x40 PUSH2 0x1684 DUP7 DUP3 DUP8 ADD PUSH2 0x15B9 JUMP JUMPDEST SWAP2 POP POP SWAP3 POP SWAP3 POP SWAP3 JUMP JUMPDEST PUSH1 0x0 DUP1 PUSH1 0x40 DUP4 DUP6 SUB SLT ISZERO PUSH2 0x16A5 JUMPI PUSH2 0x16A4 PUSH2 0x1CF6 JUMP JUMPDEST JUMPDEST PUSH1 0x0 PUSH2 0x16B3 DUP6 DUP3 DUP7 ADD PUSH2 0x15A4 JUMP JUMPDEST SWAP3 POP POP PUSH1 0x20 PUSH2 0x16C4 DUP6 DUP3 DUP7 ADD PUSH2 0x15B9 JUMP JUMPDEST SWAP2 POP POP SWAP3 POP SWAP3 SWAP1 POP JUMP JUMPDEST PUSH2 0x16D7 DUP2 PUSH2 0x1BDE JUMP JUMPDEST DUP3 MSTORE POP POP JUMP JUMPDEST PUSH2 0x16E6 DUP2 PUSH2 0x1BF0 JUMP JUMPDEST DUP3 MSTORE POP POP JUMP JUMPDEST PUSH1 0x0 PUSH2 0x16F7 DUP3 PUSH2 0x1B38 JUMP JUMPDEST PUSH2 0x1701 DUP2 DUP6 PUSH2 0x1B43 JUMP JUMPDEST SWAP4 POP PUSH2 0x1711 DUP2 DUP6 PUSH1 0x20 DUP7 ADD PUSH2 0x1C33 JUMP JUMPDEST PUSH2 0x171A DUP2 PUSH2 0x1CFB JUMP JUMPDEST DUP5 ADD SWAP2 POP POP SWAP3 SWAP2 POP POP JUMP JUMPDEST PUSH1 0x0 PUSH2 0x1732 PUSH1 0x23 DUP4 PUSH2 0x1B43 JUMP JUMPDEST SWAP2 POP PUSH2 0x173D DUP3 PUSH2 0x1D0C JUMP JUMPDEST PUSH1 0x40 DUP3 ADD SWAP1 POP SWAP2 SWAP1 POP JUMP JUMPDEST PUSH1 0x0 PUSH2 0x1755 PUSH1 0x22 DUP4 PUSH2 0x1B43 JUMP JUMPDEST SWAP2 POP PUSH2 0x1760 DUP3 PUSH2 0x1D5B JUMP JUMPDEST PUSH1 0x40 DUP3 ADD SWAP1 POP SWAP2 SWAP1 POP JUMP JUMPDEST PUSH1 0x0 PUSH2 0x1778 PUSH1 0x26 DUP4 PUSH2 0x1B43 JUMP JUMPDEST SWAP2 POP PUSH2 0x1783 DUP3 PUSH2 0x1DAA JUMP JUMPDEST PUSH1 0x40 DUP3 ADD SWAP1 POP SWAP2 SWAP1 POP JUMP JUMPDEST PUSH1 0x0 PUSH2 0x179B PUSH1 0x22 DUP4 PUSH2 0x1B43 JUMP JUMPDEST SWAP2 POP PUSH2 0x17A6 DUP3 PUSH2 0x1DF9 JUMP JUMPDEST PUSH1 0x40 DUP3 ADD SWAP1 POP SWAP2 SWAP1 POP JUMP JUMPDEST PUSH1 0x0 PUSH2 0x17BE PUSH1 0x15 DUP4 PUSH2 0x1B43 JUMP JUMPDEST SWAP2 POP PUSH2 0x17C9 DUP3 PUSH2 0x1E48 JUMP JUMPDEST PUSH1 0x20 DUP3 ADD SWAP1 POP SWAP2 SWAP1 POP JUMP JUMPDEST PUSH1 0x0 PUSH2 0x17E1 PUSH1 0x26 DUP4 PUSH2 0x1B43 JUMP JUMPDEST SWAP2 POP PUSH2 0x17EC DUP3 PUSH2 0x1E71 JUMP JUMPDEST PUSH1 0x40 DUP3 ADD SWAP1 POP SWAP2 SWAP1 POP JUMP JUMPDEST PUSH1 0x0 PUSH2 0x1804 PUSH1 0x28 DUP4 PUSH2 0x1B43 JUMP JUMPDEST SWAP2 POP PUSH2 0x180F DUP3 PUSH2 0x1EC0 JUMP JUMPDEST PUSH1 0x40 DUP3 ADD SWAP1 POP SWAP2 SWAP1 POP JUMP JUMPDEST PUSH1 0x0 PUSH2 0x1827 PUSH1 0x20 DUP4 PUSH2 0x1B43 JUMP JUMPDEST SWAP2 POP PUSH2 0x1832 DUP3 PUSH2 0x1F0F JUMP JUMPDEST PUSH1 0x20 DUP3 ADD SWAP1 POP SWAP2 SWAP1 POP JUMP JUMPDEST PUSH1 0x0 PUSH2 0x184A PUSH1 0x21 DUP4 PUSH2 0x1B43 JUMP JUMPDEST SWAP2 POP PUSH2 0x1855 DUP3 PUSH2 0x1F38 JUMP JUMPDEST PUSH1 0x40 DUP3 ADD SWAP1 POP SWAP2 SWAP1 POP JUMP JUMPDEST PUSH1 0x0 PUSH2 0x186D PUSH1 0x25 DUP4 PUSH2 0x1B43 JUMP JUMPDEST SWAP2 POP PUSH2 0x1878 DUP3 PUSH2 0x1F87 JUMP JUMPDEST PUSH1 0x40 DUP3 ADD SWAP1 POP SWAP2 SWAP1 POP JUMP JUMPDEST PUSH1 0x0 PUSH2 0x1890 PUSH1 0x24 DUP4 PUSH2 0x1B43 JUMP JUMPDEST SWAP2 POP PUSH2 0x189B DUP3 PUSH2 0x1FD6 JUMP JUMPDEST PUSH1 0x40 DUP3 ADD SWAP1 POP SWAP2 SWAP1 POP JUMP JUMPDEST PUSH1 0x0 PUSH2 0x18B3 PUSH1 0x25 DUP4 PUSH2 0x1B43 JUMP JUMPDEST SWAP2 POP PUSH2 0x18BE DUP3 PUSH2 0x2025 JUMP JUMPDEST PUSH1 0x40 DUP3 ADD SWAP1 POP SWAP2 SWAP1 POP JUMP JUMPDEST PUSH1 0x0 PUSH2 0x18D6 PUSH1 0x1F DUP4 PUSH2 0x1B43 JUMP JUMPDEST SWAP2 POP PUSH2 0x18E1 DUP3 PUSH2 0x2074 JUMP JUMPDEST PUSH1 0x20 DUP3 ADD SWAP1 POP SWAP2 SWAP1 POP JUMP JUMPDEST PUSH2 0x18F5 DUP2 PUSH2 0x1C1C JUMP JUMPDEST DUP3 MSTORE POP POP JUMP JUMPDEST PUSH2 0x1904 DUP2 PUSH2 0x1C26 JUMP JUMPDEST DUP3 MSTORE POP POP JUMP JUMPDEST PUSH1 0x0 PUSH1 0x20 DUP3 ADD SWAP1 POP PUSH2 0x191F PUSH1 0x0 DUP4 ADD DUP5 PUSH2 0x16CE JUMP JUMPDEST SWAP3 SWAP2 POP POP JUMP JUMPDEST PUSH1 0x0 PUSH1 0x20 DUP3 ADD SWAP1 POP PUSH2 0x193A PUSH1 0x0 DUP4 ADD DUP5 PUSH2 0x16DD JUMP JUMPDEST SWAP3 SWAP2 POP POP JUMP JUMPDEST PUSH1 0x0 PUSH1 0x20 DUP3 ADD SWAP1 POP DUP2 DUP2 SUB PUSH1 0x0 DUP4 ADD MSTORE PUSH2 0x195A DUP2 DUP5 PUSH2 0x16EC JUMP JUMPDEST SWAP1 POP SWAP3 SWAP2 POP POP JUMP JUMPDEST PUSH1 0x0 PUSH1 0x20 DUP3 ADD SWAP1 POP DUP2 DUP2 SUB PUSH1 0x0 DUP4 ADD MSTORE PUSH2 0x197B DUP2 PUSH2 0x1725 JUMP JUMPDEST SWAP1 POP SWAP2 SWAP1 POP JUMP JUMPDEST PUSH1 0x0 PUSH1 0x20 DUP3 ADD SWAP1 POP DUP2 DUP2 SUB PUSH1 0x0 DUP4 ADD MSTORE PUSH2 0x199B DUP2 PUSH2 0x1748 JUMP JUMPDEST SWAP1 POP SWAP2 SWAP1 POP JUMP JUMPDEST PUSH1 0x0 PUSH1 0x20 DUP3 ADD SWAP1 POP DUP2 DUP2 SUB PUSH1 0x0 DUP4 ADD MSTORE PUSH2 0x19BB DUP2 PUSH2 0x176B JUMP JUMPDEST SWAP1 POP SWAP2 SWAP1 POP JUMP JUMPDEST PUSH1 0x0 PUSH1 0x20 DUP3 ADD SWAP1 POP DUP2 DUP2 SUB PUSH1 0x0 DUP4 ADD MSTORE PUSH2 0x19DB DUP2 PUSH2 0x178E JUMP JUMPDEST SWAP1 POP SWAP2 SWAP1 POP JUMP JUMPDEST PUSH1 0x0 PUSH1 0x20 DUP3 ADD SWAP1 POP DUP2 DUP2 SUB PUSH1 0x0 DUP4 ADD MSTORE PUSH2 0x19FB DUP2 PUSH2 0x17B1 JUMP JUMPDEST SWAP1 POP SWAP2 SWAP1 POP JUMP JUMPDEST PUSH1 0x0 PUSH1 0x20 DUP3 ADD SWAP1 POP DUP2 DUP2 SUB PUSH1 0x0 DUP4 ADD MSTORE PUSH2 0x1A1B DUP2 PUSH2 0x17D4 JUMP JUMPDEST SWAP1 POP SWAP2 SWAP1 POP JUMP JUMPDEST PUSH1 0x0 PUSH1 0x20 DUP3 ADD SWAP1 POP DUP2 DUP2 SUB PUSH1 0x0 DUP4 ADD MSTORE PUSH2 0x1A3B DUP2 PUSH2 0x17F7 JUMP JUMPDEST SWAP1 POP SWAP2 SWAP1 POP JUMP JUMPDEST PUSH1 0x0 PUSH1 0x20 DUP3 ADD SWAP1 POP DUP2 DUP2 SUB PUSH1 0x0 DUP4 ADD MSTORE PUSH2 0x1A5B DUP2 PUSH2 0x181A JUMP JUMPDEST SWAP1 POP SWAP2 SWAP1 POP JUMP JUMPDEST PUSH1 0x0 PUSH1 0x20 DUP3 ADD SWAP1 POP DUP2 DUP2 SUB PUSH1 0x0 DUP4 ADD MSTORE PUSH2 0x1A7B DUP2 PUSH2 0x183D JUMP JUMPDEST SWAP1 POP SWAP2 SWAP1 POP JUMP JUMPDEST PUSH1 0x0 PUSH1 0x20 DUP3 ADD SWAP1 POP DUP2 DUP2 SUB PUSH1 0x0 DUP4 ADD MSTORE PUSH2 0x1A9B DUP2 PUSH2 0x1860 JUMP JUMPDEST SWAP1 POP SWAP2 SWAP1 POP JUMP JUMPDEST PUSH1 0x0 PUSH1 0x20 DUP3 ADD SWAP1 POP DUP2 DUP2 SUB PUSH1 0x0 DUP4 ADD MSTORE PUSH2 0x1ABB DUP2 PUSH2 0x1883 JUMP JUMPDEST SWAP1 POP SWAP2 SWAP1 POP JUMP JUMPDEST PUSH1 0x0 PUSH1 0x20 DUP3 ADD SWAP1 POP DUP2 DUP2 SUB PUSH1 0x0 DUP4 ADD MSTORE PUSH2 0x1ADB DUP2 PUSH2 0x18A6 JUMP JUMPDEST SWAP1 POP SWAP2 SWAP1 POP JUMP JUMPDEST PUSH1 0x0 PUSH1 0x20 DUP3 ADD SWAP1 POP DUP2 DUP2 SUB PUSH1 0x0 DUP4 ADD MSTORE PUSH2 0x1AFB DUP2 PUSH2 0x18C9 JUMP JUMPDEST SWAP1 POP SWAP2 SWAP1 POP JUMP JUMPDEST PUSH1 0x0 PUSH1 0x20 DUP3 ADD SWAP1 POP PUSH2 0x1B17 PUSH1 0x0 DUP4 ADD DUP5 PUSH2 0x18EC JUMP JUMPDEST SWAP3 SWAP2 POP POP JUMP JUMPDEST PUSH1 0x0 PUSH1 0x20 DUP3 ADD SWAP1 POP PUSH2 0x1B32 PUSH1 0x0 DUP4 ADD DUP5 PUSH2 0x18FB JUMP JUMPDEST SWAP3 SWAP2 POP POP JUMP JUMPDEST PUSH1 0x0 DUP2 MLOAD SWAP1 POP SWAP2 SWAP1 POP JUMP JUMPDEST PUSH1 0x0 DUP3 DUP3 MSTORE PUSH1 0x20 DUP3 ADD SWAP1 POP SWAP3 SWAP2 POP POP JUMP JUMPDEST PUSH1 0x0 PUSH2 0x1B5F DUP3 PUSH2 0x1C1C JUMP JUMPDEST SWAP2 POP PUSH2 0x1B6A DUP4 PUSH2 0x1C1C JUMP JUMPDEST SWAP3 POP DUP3 PUSH32 0xFFFFFFFFFFFFFFFFFFFFFFFFFFFFFFFFFFFFFFFFFFFFFFFFFFFFFFFFFFFFFFFF SUB DUP3 GT ISZERO PUSH2 0x1B9F JUMPI PUSH2 0x1B9E PUSH2 0x1C98 JUMP JUMPDEST JUMPDEST DUP3 DUP3 ADD SWAP1 POP SWAP3 SWAP2 POP POP JUMP JUMPDEST PUSH1 0x0 PUSH2 0x1BB5 DUP3 PUSH2 0x1C1C JUMP JUMPDEST SWAP2 POP PUSH2 0x1BC0 DUP4 PUSH2 0x1C1C JUMP JUMPDEST SWAP3 POP DUP3 DUP3 LT ISZERO PUSH2 0x1BD3 JUMPI PUSH2 0x1BD2 PUSH2 0x1C98 JUMP JUMPDEST JUMPDEST DUP3 DUP3 SUB SWAP1 POP SWAP3 SWAP2 POP POP JUMP JUMPDEST PUSH1 0x0 PUSH2 0x1BE9 DUP3 PUSH2 0x1BFC JUMP JUMPDEST SWAP1 POP SWAP2 SWAP1 POP JUMP JUMPDEST PUSH1 0x0 DUP2 ISZERO ISZERO SWAP1 POP SWAP2 SWAP1 POP JUMP JUMPDEST PUSH1 0x0 PUSH20 0xFFFFFFFFFFFFFFFFFFFFFFFFFFFFFFFFFFFFFFFF DUP3 AND SWAP1 POP SWAP2 SWAP1 POP JUMP JUMPDEST PUSH1 0x0 DUP2 SWAP1 POP SWAP2 SWAP1 POP JUMP JUMPDEST PUSH1 0x0 PUSH1 0xFF DUP3 AND SWAP1 POP SWAP2 SWAP1 POP JUMP JUMPDEST PUSH1 0x0 JUMPDEST DUP4 DUP2 LT ISZERO PUSH2 0x1C51 JUMPI DUP1 DUP3 ADD MLOAD DUP2 DUP5 ADD MSTORE PUSH1 0x20 DUP2 ADD SWAP1 POP PUSH2 0x1C36 JUMP JUMPDEST DUP4 DUP2 GT ISZERO PUSH2 0x1C60 JUMPI PUSH1 0x0 DUP5 DUP5 ADD MSTORE JUMPDEST POP POP POP POP JUMP JUMPDEST PUSH1 0x0 PUSH1 0x2 DUP3 DIV SWAP1 POP PUSH1 0x1 DUP3 AND DUP1 PUSH2 0x1C7E JUMPI PUSH1 0x7F DUP3 AND SWAP2 POP JUMPDEST PUSH1 0x20 DUP3 LT DUP2 EQ ISZERO PUSH2 0x1C92 JUMPI PUSH2 0x1C91 PUSH2 0x1CC7 JUMP JUMPDEST JUMPDEST POP SWAP2 SWAP1 POP JUMP JUMPDEST PUSH32 0x4E487B7100000000000000000000000000000000000000000000000000000000 PUSH1 0x0 MSTORE PUSH1 0x11 PUSH1 0x4 MSTORE PUSH1 0x24 PUSH1 0x0 REVERT JUMPDEST PUSH32 0x4E487B7100000000000000000000000000000000000000000000000000000000 PUSH1 0x0 MSTORE PUSH1 0x22 PUSH1 0x4 MSTORE PUSH1 0x24 PUSH1 0x0 REVERT JUMPDEST PUSH1 0x0 DUP1 REVERT JUMPDEST PUSH1 0x0 PUSH1 0x1F NOT PUSH1 0x1F DUP4 ADD AND SWAP1 POP SWAP2 SWAP1 POP JUMP JUMPDEST PUSH32 0x45524332303A207472616E7366657220746F20746865207A65726F2061646472 PUSH1 0x0 DUP3 ADD MSTORE PUSH32 0x6573730000000000000000000000000000000000000000000000000000000000 PUSH1 0x20 DUP3 ADD MSTORE POP JUMP JUMPDEST PUSH32 0x45524332303A206275726E20616D6F756E7420657863656564732062616C616E PUSH1 0x0 DUP3 ADD MSTORE PUSH32 0x6365000000000000000000000000000000000000000000000000000000000000 PUSH1 0x20 DUP3 ADD MSTORE POP JUMP JUMPDEST PUSH32 0x4F776E61626C653A206E6577206F776E657220697320746865207A65726F2061 PUSH1 0x0 DUP3 ADD MSTORE PUSH32 0x6464726573730000000000000000000000000000000000000000000000000000 PUSH1 0x20 DUP3 ADD MSTORE POP JUMP JUMPDEST PUSH32 0x45524332303A20617070726F766520746F20746865207A65726F206164647265 PUSH1 0x0 DUP3 ADD MSTORE PUSH32 0x7373000000000000000000000000000000000000000000000000000000000000 PUSH1 0x20 DUP3 ADD MSTORE POP JUMP JUMPDEST PUSH32 0x4E6F7420417070726F76656420746F20646F20736F0000000000000000000000 PUSH1 0x0 DUP3 ADD MSTORE POP JUMP JUMPDEST PUSH32 0x45524332303A207472616E7366657220616D6F756E7420657863656564732062 PUSH1 0x0 DUP3 ADD MSTORE PUSH32 0x616C616E63650000000000000000000000000000000000000000000000000000 PUSH1 0x20 DUP3 ADD MSTORE POP JUMP JUMPDEST PUSH32 0x45524332303A207472616E7366657220616D6F756E7420657863656564732061 PUSH1 0x0 DUP3 ADD MSTORE PUSH32 0x6C6C6F77616E6365000000000000000000000000000000000000000000000000 PUSH1 0x20 DUP3 ADD MSTORE POP JUMP JUMPDEST PUSH32 0x4F776E61626C653A2063616C6C6572206973206E6F7420746865206F776E6572 PUSH1 0x0 DUP3 ADD MSTORE POP JUMP JUMPDEST PUSH32 0x45524332303A206275726E2066726F6D20746865207A65726F20616464726573 PUSH1 0x0 DUP3 ADD MSTORE PUSH32 0x7300000000000000000000000000000000000000000000000000000000000000 PUSH1 0x20 DUP3 ADD MSTORE POP JUMP JUMPDEST PUSH32 0x45524332303A207472616E736665722066726F6D20746865207A65726F206164 PUSH1 0x0 DUP3 ADD MSTORE PUSH32 0x6472657373000000000000000000000000000000000000000000000000000000 PUSH1 0x20 DUP3 ADD MSTORE POP JUMP JUMPDEST PUSH32 0x45524332303A20617070726F76652066726F6D20746865207A65726F20616464 PUSH1 0x0 DUP3 ADD MSTORE PUSH32 0x7265737300000000000000000000000000000000000000000000000000000000 PUSH1 0x20 DUP3 ADD MSTORE POP JUMP JUMPDEST PUSH32 0x45524332303A2064656372656173656420616C6C6F77616E63652062656C6F77 PUSH1 0x0 DUP3 ADD MSTORE PUSH32 0x207A65726F000000000000000000000000000000000000000000000000000000 PUSH1 0x20 DUP3 ADD MSTORE POP JUMP JUMPDEST PUSH32 0x45524332303A206D696E7420746F20746865207A65726F206164647265737300 PUSH1 0x0 DUP3 ADD MSTORE POP JUMP JUMPDEST PUSH2 0x20A6 DUP2 PUSH2 0x1BDE JUMP JUMPDEST DUP2 EQ PUSH2 0x20B1 JUMPI PUSH1 0x0 DUP1 REVERT JUMPDEST POP JUMP JUMPDEST PUSH2 0x20BD DUP2 PUSH2 0x1C1C JUMP JUMPDEST DUP2 EQ PUSH2 0x20C8 JUMPI PUSH1 0x0 DUP1 REVERT JUMPDEST POP JUMP INVALID LOG2 PUSH5 0x6970667358 0x22 SLT KECCAK256 0xEA 0xDD LOG3 DUP9 PUSH7 0x4515AAB6BB32E6 0xC2 CHAINID CHAINID 0xE0 PUSH17 0x17FEF5C9C69661AB89706ECC643F626473 PUSH16 0x6C634300080700330000000000000000 "
				},
				"gasEstimates": {
					"creation": {
						"codeDepositCost": "1689800",
						"executionCost": "infinite",
						"totalCost": "infinite"
					},
					"external": {
						"addController(address)": "51370",
						"allowance(address,address)": "infinite",
						"approve(address,uint256)": "infinite",
						"balanceOf(address)": "2930",
						"burn(address,uint256)": "infinite",
						"decimals()": "366",
						"decreaseAllowance(address,uint256)": "infinite",
						"increaseAllowance(address,uint256)": "infinite",
						"mint(address,uint256)": "infinite",
						"name()": "infinite",
						"owner()": "2545",
						"removeController(address)": "27162",
						"renounceOwnership()": "30485",
						"symbol()": "infinite",
						"totalSupply()": "2505",
						"transfer(address,uint256)": "infinite",
						"transferFrom(address,address,uint256)": "infinite",
						"transferOwnership(address)": "30811"
					}
				},
				"methodIdentifiers": {
					"addController(address)": "a7fc7a07",
					"allowance(address,address)": "dd62ed3e",
					"approve(address,uint256)": "095ea7b3",
					"balanceOf(address)": "70a08231",
					"burn(address,uint256)": "9dc29fac",
					"decimals()": "313ce567",
					"decreaseAllowance(address,uint256)": "a457c2d7",
					"increaseAllowance(address,uint256)": "39509351",
					"mint(address,uint256)": "40c10f19",
					"name()": "06fdde03",
					"owner()": "8da5cb5b",
					"removeController(address)": "f6a74ed7",
					"renounceOwnership()": "715018a6",
					"symbol()": "95d89b41",
					"totalSupply()": "18160ddd",
					"transfer(address,uint256)": "a9059cbb",
					"transferFrom(address,address,uint256)": "23b872dd",
					"transferOwnership(address)": "f2fde38b"
				}
			},
			"storageLayout": {
				"storage": [
					{
						"astId": 197,
						"contract": "Scepter.sol:Scepter",
						"label": "_balances",
						"offset": 0,
						"slot": "0",
						"type": "t_mapping(t_address,t_uint256)"
					},
					{
						"astId": 203,
						"contract": "Scepter.sol:Scepter",
						"label": "_allowances",
						"offset": 0,
						"slot": "1",
						"type": "t_mapping(t_address,t_mapping(t_address,t_uint256))"
					},
					{
						"astId": 205,
						"contract": "Scepter.sol:Scepter",
						"label": "_totalSupply",
						"offset": 0,
						"slot": "2",
						"type": "t_uint256"
					},
					{
						"astId": 207,
						"contract": "Scepter.sol:Scepter",
						"label": "_name",
						"offset": 0,
						"slot": "3",
						"type": "t_string_storage"
					},
					{
						"astId": 209,
						"contract": "Scepter.sol:Scepter",
						"label": "_symbol",
						"offset": 0,
						"slot": "4",
						"type": "t_string_storage"
					},
					{
						"astId": 211,
						"contract": "Scepter.sol:Scepter",
						"label": "approvedTransferor",
						"offset": 0,
						"slot": "5",
						"type": "t_address"
					},
					{
						"astId": 29,
						"contract": "Scepter.sol:Scepter",
						"label": "_owner",
						"offset": 0,
						"slot": "6",
						"type": "t_address"
					},
					{
						"astId": 138,
						"contract": "Scepter.sol:Scepter",
						"label": "controllers",
						"offset": 0,
						"slot": "7",
						"type": "t_mapping(t_address,t_bool)"
					}
				],
				"types": {
					"t_address": {
						"encoding": "inplace",
						"label": "address",
						"numberOfBytes": "20"
					},
					"t_bool": {
						"encoding": "inplace",
						"label": "bool",
						"numberOfBytes": "1"
					},
					"t_mapping(t_address,t_bool)": {
						"encoding": "mapping",
						"key": "t_address",
						"label": "mapping(address => bool)",
						"numberOfBytes": "32",
						"value": "t_bool"
					},
					"t_mapping(t_address,t_mapping(t_address,t_uint256))": {
						"encoding": "mapping",
						"key": "t_address",
						"label": "mapping(address => mapping(address => uint256))",
						"numberOfBytes": "32",
						"value": "t_mapping(t_address,t_uint256)"
					},
					"t_mapping(t_address,t_uint256)": {
						"encoding": "mapping",
						"key": "t_address",
						"label": "mapping(address => uint256)",
						"numberOfBytes": "32",
						"value": "t_uint256"
					},
					"t_string_storage": {
						"encoding": "bytes",
						"label": "string",
						"numberOfBytes": "32"
					},
					"t_uint256": {
						"encoding": "inplace",
						"label": "uint256",
						"numberOfBytes": "32"
					}
				}
			},
			"userdoc": {
				"kind": "user",
				"methods": {
					"addController(address)": {
						"notice": "enables an address to mint / burn"
					},
					"removeController(address)": {
						"notice": "disables an address from minting / burning"
					}
				},
				"version": 1
			}
		}
	}
}