{
	"RebaseAirdrop.sol": {
		"testRebase": {
			"abi": [
				{
					"inputs": [
						{
							"internalType": "address",
							"name": "_btonAddr",
							"type": "address"
						}
					],
					"stateMutability": "nonpayable",
					"type": "constructor"
				},
				{
					"inputs": [],
					"name": "Bton",
					"outputs": [
						{
							"internalType": "contract IERC20",
							"name": "",
							"type": "address"
						}
					],
					"stateMutability": "view",
					"type": "function"
				},
				{
					"inputs": [],
					"name": "USDC",
					"outputs": [
						{
							"internalType": "contract IERC20",
							"name": "",
							"type": "address"
						}
					],
					"stateMutability": "view",
					"type": "function"
				},
				{
					"inputs": [
						{
							"internalType": "address",
							"name": "",
							"type": "address"
						}
					],
					"name": "airdroppedBal",
					"outputs": [
						{
							"internalType": "uint256",
							"name": "timeInit",
							"type": "uint256"
						},
						{
							"internalType": "uint256",
							"name": "amounts",
							"type": "uint256"
						}
					],
					"stateMutability": "view",
					"type": "function"
				},
				{
					"inputs": [],
					"name": "calcAirdrop",
					"outputs": [],
					"stateMutability": "nonpayable",
					"type": "function"
				},
				{
					"inputs": [],
					"name": "startAirDrop",
					"outputs": [],
					"stateMutability": "nonpayable",
					"type": "function"
				},
				{
					"inputs": [
						{
							"internalType": "uint256",
							"name": "_amtWithdraw",
							"type": "uint256"
						}
					],
					"name": "withdrawAirDrop",
					"outputs": [],
					"stateMutability": "nonpayable",
					"type": "function"
				}
			],
			"devdoc": {
				"kind": "dev",
				"methods": {},
				"version": 1
			},
			"evm": {
				"assembly": "    /* \"RebaseAirdrop.sol\":55:1353  contract testRebase { \r... */\n  mstore(0x40, 0x80)\n    /* \"RebaseAirdrop.sol\":466:612  constructor(address _btonAddr) {\r... */\n  callvalue\n  dup1\n  iszero\n  tag_1\n  jumpi\n  0x00\n  dup1\n  revert\ntag_1:\n  pop\n  mload(0x40)\n  sub(codesize, bytecodeSize)\n  dup1\n  bytecodeSize\n  dup4\n  codecopy\n  dup2\n  dup2\n  add\n  0x40\n  mstore\n  dup2\n  add\n  swap1\n  tag_2\n  swap2\n  swap1\n  tag_3\n  jump\t// in\ntag_2:\n    /* \"RebaseAirdrop.sol\":522:564  0xD7ACd2a9FD159E69Bb102A1ca21C9a3e3A5F771B */\n  0xd7acd2a9fd159e69bb102a1ca21c9a3e3a5f771b\n    /* \"RebaseAirdrop.sol\":508:512  USDC */\n  0x01\n  0x00\n    /* \"RebaseAirdrop.sol\":508:565  USDC = IERC20(0xD7ACd2a9FD159E69Bb102A1ca21C9a3e3A5F771B) */\n  0x0100\n  exp\n  dup2\n  sload\n  dup2\n  0xffffffffffffffffffffffffffffffffffffffff\n  mul\n  not\n  and\n  swap1\n  dup4\n  0xffffffffffffffffffffffffffffffffffffffff\n  and\n  mul\n  or\n  swap1\n  sstore\n  pop\n    /* \"RebaseAirdrop.sol\":590:599  _btonAddr */\n  dup1\n    /* \"RebaseAirdrop.sol\":576:580  Bton */\n  0x02\n  0x00\n    /* \"RebaseAirdrop.sol\":576:600  Bton = IERC20(_btonAddr) */\n  0x0100\n  exp\n  dup2\n  sload\n  dup2\n  0xffffffffffffffffffffffffffffffffffffffff\n  mul\n  not\n  and\n  swap1\n  dup4\n  0xffffffffffffffffffffffffffffffffffffffff\n  and\n  mul\n  or\n  swap1\n  sstore\n  pop\n    /* \"RebaseAirdrop.sol\":466:612  constructor(address _btonAddr) {\r... */\n  pop\n    /* \"RebaseAirdrop.sol\":55:1353  contract testRebase { \r... */\n  jump(tag_6)\n    /* \"#utility.yul\":7:150   */\ntag_8:\n    /* \"#utility.yul\":64:69   */\n  0x00\n    /* \"#utility.yul\":95:101   */\n  dup2\n    /* \"#utility.yul\":89:102   */\n  mload\n    /* \"#utility.yul\":80:102   */\n  swap1\n  pop\n    /* \"#utility.yul\":111:144   */\n  tag_10\n    /* \"#utility.yul\":138:143   */\n  dup2\n    /* \"#utility.yul\":111:144   */\n  tag_11\n  jump\t// in\ntag_10:\n    /* \"#utility.yul\":7:150   */\n  swap3\n  swap2\n  pop\n  pop\n  jump\t// out\n    /* \"#utility.yul\":156:507   */\ntag_3:\n    /* \"#utility.yul\":226:232   */\n  0x00\n    /* \"#utility.yul\":275:277   */\n  0x20\n    /* \"#utility.yul\":263:272   */\n  dup3\n    /* \"#utility.yul\":254:261   */\n  dup5\n    /* \"#utility.yul\":250:273   */\n  sub\n    /* \"#utility.yul\":246:278   */\n  slt\n    /* \"#utility.yul\":243:362   */\n  iszero\n  tag_13\n  jumpi\n    /* \"#utility.yul\":281:360   */\n  tag_14\n  tag_15\n  jump\t// in\ntag_14:\n    /* \"#utility.yul\":243:362   */\ntag_13:\n    /* \"#utility.yul\":401:402   */\n  0x00\n    /* \"#utility.yul\":426:490   */\n  tag_16\n    /* \"#utility.yul\":482:489   */\n  dup5\n    /* \"#utility.yul\":473:479   */\n  dup3\n    /* \"#utility.yul\":462:471   */\n  dup6\n    /* \"#utility.yul\":458:480   */\n  add\n    /* \"#utility.yul\":426:490   */\n  tag_8\n  jump\t// in\ntag_16:\n    /* \"#utility.yul\":416:490   */\n  swap2\n  pop\n    /* \"#utility.yul\":372:500   */\n  pop\n    /* \"#utility.yul\":156:507   */\n  swap3\n  swap2\n  pop\n  pop\n  jump\t// out\n    /* \"#utility.yul\":594:690   */\ntag_19:\n    /* \"#utility.yul\":631:638   */\n  0x00\n    /* \"#utility.yul\":660:684   */\n  tag_21\n    /* \"#utility.yul\":678:683   */\n  dup3\n    /* \"#utility.yul\":660:684   */\n  tag_22\n  jump\t// in\ntag_21:\n    /* \"#utility.yul\":649:684   */\n  swap1\n  pop\n    /* \"#utility.yul\":594:690   */\n  swap2\n  swap1\n  pop\n  jump\t// out\n    /* \"#utility.yul\":696:822   */\ntag_22:\n    /* \"#utility.yul\":733:740   */\n  0x00\n    /* \"#utility.yul\":773:815   */\n  0xffffffffffffffffffffffffffffffffffffffff\n    /* \"#utility.yul\":766:771   */\n  dup3\n    /* \"#utility.yul\":762:816   */\n  and\n    /* \"#utility.yul\":751:816   */\n  swap1\n  pop\n    /* \"#utility.yul\":696:822   */\n  swap2\n  swap1\n  pop\n  jump\t// out\n    /* \"#utility.yul\":951:1068   */\ntag_15:\n    /* \"#utility.yul\":1060:1061   */\n  0x00\n    /* \"#utility.yul\":1057:1058   */\n  dup1\n    /* \"#utility.yul\":1050:1062   */\n  revert\n    /* \"#utility.yul\":1074:1196   */\ntag_11:\n    /* \"#utility.yul\":1147:1171   */\n  tag_28\n    /* \"#utility.yul\":1165:1170   */\n  dup2\n    /* \"#utility.yul\":1147:1171   */\n  tag_19\n  jump\t// in\ntag_28:\n    /* \"#utility.yul\":1140:1145   */\n  dup2\n    /* \"#utility.yul\":1137:1172   */\n  eq\n    /* \"#utility.yul\":1127:1190   */\n  tag_29\n  jumpi\n    /* \"#utility.yul\":1186:1187   */\n  0x00\n    /* \"#utility.yul\":1183:1184   */\n  dup1\n    /* \"#utility.yul\":1176:1188   */\n  revert\n    /* \"#utility.yul\":1127:1190   */\ntag_29:\n    /* \"#utility.yul\":1074:1196   */\n  pop\n  jump\t// out\n    /* \"RebaseAirdrop.sol\":55:1353  contract testRebase { \r... */\ntag_6:\n  dataSize(sub_0)\n  dup1\n  dataOffset(sub_0)\n  0x00\n  codecopy\n  0x00\n  return\nstop\n\nsub_0: assembly {\n        /* \"RebaseAirdrop.sol\":55:1353  contract testRebase { \r... */\n      mstore(0x40, 0x80)\n      callvalue\n      dup1\n      iszero\n      tag_1\n      jumpi\n      0x00\n      dup1\n      revert\n    tag_1:\n      pop\n      jumpi(tag_2, lt(calldatasize, 0x04))\n      shr(0xe0, calldataload(0x00))\n      dup1\n      0x02699df8\n      eq\n      tag_3\n      jumpi\n      dup1\n      0x283a1e16\n      eq\n      tag_4\n      jumpi\n      dup1\n      0x754fe93e\n      eq\n      tag_5\n      jumpi\n      dup1\n      0x89a30271\n      eq\n      tag_6\n      jumpi\n      dup1\n      0x8fb2a566\n      eq\n      tag_7\n      jumpi\n      dup1\n      0xa87c70fa\n      eq\n      tag_8\n      jumpi\n    tag_2:\n      0x00\n      dup1\n      revert\n        /* \"RebaseAirdrop.sol\":784:1121  function calcAirdrop() public {\r... */\n    tag_3:\n      tag_9\n      tag_10\n      jump\t// in\n    tag_9:\n      stop\n        /* \"RebaseAirdrop.sol\":625:776  function startAirDrop() external\r... */\n    tag_4:\n      tag_11\n      tag_12\n      jump\t// in\n    tag_11:\n      stop\n        /* \"RebaseAirdrop.sol\":441:459  IERC20 public Bton */\n    tag_5:\n      tag_13\n      tag_14\n      jump\t// in\n    tag_13:\n      mload(0x40)\n      tag_15\n      swap2\n      swap1\n      tag_16\n      jump\t// in\n    tag_15:\n      mload(0x40)\n      dup1\n      swap2\n      sub\n      swap1\n      return\n        /* \"RebaseAirdrop.sol\":416:434  IERC20 public USDC */\n    tag_6:\n      tag_17\n      tag_18\n      jump\t// in\n    tag_17:\n      mload(0x40)\n      tag_19\n      swap2\n      swap1\n      tag_16\n      jump\t// in\n    tag_19:\n      mload(0x40)\n      dup1\n      swap2\n      sub\n      swap1\n      return\n        /* \"RebaseAirdrop.sol\":1127:1346  function withdrawAirDrop(uint256 _amtWithdraw) public {\r... */\n    tag_7:\n      tag_20\n      0x04\n      dup1\n      calldatasize\n      sub\n      dup2\n      add\n      swap1\n      tag_21\n      swap2\n      swap1\n      tag_22\n      jump\t// in\n    tag_21:\n      tag_23\n      jump\t// in\n    tag_20:\n      stop\n        /* \"RebaseAirdrop.sol\":357:409  mapping(address => btonsLocked) public airdroppedBal */\n    tag_8:\n      tag_24\n      0x04\n      dup1\n      calldatasize\n      sub\n      dup2\n      add\n      swap1\n      tag_25\n      swap2\n      swap1\n      tag_26\n      jump\t// in\n    tag_25:\n      tag_27\n      jump\t// in\n    tag_24:\n      mload(0x40)\n      tag_28\n      swap3\n      swap2\n      swap1\n      tag_29\n      jump\t// in\n    tag_28:\n      mload(0x40)\n      dup1\n      swap2\n      sub\n      swap1\n      return\n        /* \"RebaseAirdrop.sol\":784:1121  function calcAirdrop() public {\r... */\n    tag_10:\n        /* \"RebaseAirdrop.sol\":825:850  uint256 deltaTimeFromInit */\n      0x00\n        /* \"RebaseAirdrop.sol\":861:875  uint256 epochs */\n      dup1\n        /* \"RebaseAirdrop.sol\":886:904  uint256 airdropAmt */\n      0x00\n        /* \"RebaseAirdrop.sol\":949:962  airdroppedBal */\n      dup1\n        /* \"RebaseAirdrop.sol\":949:974  airdroppedBal[msg.sender] */\n      0x00\n        /* \"RebaseAirdrop.sol\":963:973  msg.sender */\n      caller\n        /* \"RebaseAirdrop.sol\":949:974  airdroppedBal[msg.sender] */\n      0xffffffffffffffffffffffffffffffffffffffff\n      and\n      0xffffffffffffffffffffffffffffffffffffffff\n      and\n      dup2\n      mstore\n      0x20\n      add\n      swap1\n      dup2\n      mstore\n      0x20\n      add\n      0x00\n      keccak256\n        /* \"RebaseAirdrop.sol\":949:983  airdroppedBal[msg.sender].timeInit */\n      0x00\n      add\n      sload\n        /* \"RebaseAirdrop.sol\":931:946  block.timestamp */\n      timestamp\n        /* \"RebaseAirdrop.sol\":931:983  block.timestamp - airdroppedBal[msg.sender].timeInit */\n      tag_31\n      swap2\n      swap1\n      tag_32\n      jump\t// in\n    tag_31:\n        /* \"RebaseAirdrop.sol\":911:983  deltaTimeFromInit = block.timestamp - airdroppedBal[msg.sender].timeInit */\n      swap3\n      pop\n        /* \"RebaseAirdrop.sol\":1019:1022  180 */\n      0xb4\n        /* \"RebaseAirdrop.sol\":999:1016  deltaTimeFromInit */\n      dup4\n        /* \"RebaseAirdrop.sol\":999:1022  deltaTimeFromInit / 180 */\n      tag_33\n      swap2\n      swap1\n      tag_34\n      jump\t// in\n    tag_33:\n        /* \"RebaseAirdrop.sol\":990:1022  epochs = deltaTimeFromInit / 180 */\n      swap2\n      pop\n        /* \"RebaseAirdrop.sol\":1057:1058  1 */\n      0x01\n        /* \"RebaseAirdrop.sol\":1049:1055  epochs */\n      dup3\n        /* \"RebaseAirdrop.sol\":1049:1058  epochs *1 */\n      tag_35\n      swap2\n      swap1\n      tag_36\n      jump\t// in\n    tag_35:\n        /* \"RebaseAirdrop.sol\":1036:1058  airdropAmt = epochs *1 */\n      swap1\n      pop\n        /* \"RebaseAirdrop.sol\":1101:1111  airdropAmt */\n      dup1\n        /* \"RebaseAirdrop.sol\":1065:1078  airdroppedBal */\n      0x00\n        /* \"RebaseAirdrop.sol\":1065:1090  airdroppedBal[msg.sender] */\n      dup1\n        /* \"RebaseAirdrop.sol\":1079:1089  msg.sender */\n      caller\n        /* \"RebaseAirdrop.sol\":1065:1090  airdroppedBal[msg.sender] */\n      0xffffffffffffffffffffffffffffffffffffffff\n      and\n      0xffffffffffffffffffffffffffffffffffffffff\n      and\n      dup2\n      mstore\n      0x20\n      add\n      swap1\n      dup2\n      mstore\n      0x20\n      add\n      0x00\n      keccak256\n        /* \"RebaseAirdrop.sol\":1065:1098  airdroppedBal[msg.sender].amounts */\n      0x01\n      add\n        /* \"RebaseAirdrop.sol\":1065:1111  airdroppedBal[msg.sender].amounts = airdropAmt */\n      dup2\n      swap1\n      sstore\n      pop\n        /* \"RebaseAirdrop.sol\":814:1121  {\r... */\n      pop\n      pop\n      pop\n        /* \"RebaseAirdrop.sol\":784:1121  function calcAirdrop() public {\r... */\n      jump\t// out\n        /* \"RebaseAirdrop.sol\":625:776  function startAirDrop() external\r... */\n    tag_12:\n        /* \"RebaseAirdrop.sol\":711:726  block.timestamp */\n      timestamp\n        /* \"RebaseAirdrop.sol\":674:687  airdroppedBal */\n      0x00\n        /* \"RebaseAirdrop.sol\":674:699  airdroppedBal[msg.sender] */\n      dup1\n        /* \"RebaseAirdrop.sol\":688:698  msg.sender */\n      caller\n        /* \"RebaseAirdrop.sol\":674:699  airdroppedBal[msg.sender] */\n      0xffffffffffffffffffffffffffffffffffffffff\n      and\n      0xffffffffffffffffffffffffffffffffffffffff\n      and\n      dup2\n      mstore\n      0x20\n      add\n      swap1\n      dup2\n      mstore\n      0x20\n      add\n      0x00\n      keccak256\n        /* \"RebaseAirdrop.sol\":674:708  airdroppedBal[msg.sender].timeInit */\n      0x00\n      add\n        /* \"RebaseAirdrop.sol\":674:726  airdroppedBal[msg.sender].timeInit = block.timestamp */\n      dup2\n      swap1\n      sstore\n      pop\n        /* \"RebaseAirdrop.sol\":625:776  function startAirDrop() external\r... */\n      jump\t// out\n        /* \"RebaseAirdrop.sol\":441:459  IERC20 public Bton */\n    tag_14:\n      0x02\n      0x00\n      swap1\n      sload\n      swap1\n      0x0100\n      exp\n      swap1\n      div\n      0xffffffffffffffffffffffffffffffffffffffff\n      and\n      dup2\n      jump\t// out\n        /* \"RebaseAirdrop.sol\":416:434  IERC20 public USDC */\n    tag_18:\n      0x01\n      0x00\n      swap1\n      sload\n      swap1\n      0x0100\n      exp\n      swap1\n      div\n      0xffffffffffffffffffffffffffffffffffffffff\n      and\n      dup2\n      jump\t// out\n        /* \"RebaseAirdrop.sol\":1127:1346  function withdrawAirDrop(uint256 _amtWithdraw) public {\r... */\n    tag_23:\n        /* \"RebaseAirdrop.sol\":1231:1243  _amtWithdraw */\n      dup1\n        /* \"RebaseAirdrop.sol\":1194:1207  airdroppedBal */\n      0x00\n        /* \"RebaseAirdrop.sol\":1194:1219  airdroppedBal[msg.sender] */\n      dup1\n        /* \"RebaseAirdrop.sol\":1208:1218  msg.sender */\n      caller\n        /* \"RebaseAirdrop.sol\":1194:1219  airdroppedBal[msg.sender] */\n      0xffffffffffffffffffffffffffffffffffffffff\n      and\n      0xffffffffffffffffffffffffffffffffffffffff\n      and\n      dup2\n      mstore\n      0x20\n      add\n      swap1\n      dup2\n      mstore\n      0x20\n      add\n      0x00\n      keccak256\n        /* \"RebaseAirdrop.sol\":1194:1227  airdroppedBal[msg.sender].amounts */\n      0x01\n      add\n      0x00\n        /* \"RebaseAirdrop.sol\":1194:1243  airdroppedBal[msg.sender].amounts -= _amtWithdraw */\n      dup3\n      dup3\n      sload\n      tag_39\n      swap2\n      swap1\n      tag_32\n      jump\t// in\n    tag_39:\n      swap3\n      pop\n      pop\n      dup2\n      swap1\n      sstore\n      pop\n        /* \"RebaseAirdrop.sol\":1250:1254  Bton */\n      0x02\n      0x00\n      swap1\n      sload\n      swap1\n      0x0100\n      exp\n      swap1\n      div\n      0xffffffffffffffffffffffffffffffffffffffff\n      and\n        /* \"RebaseAirdrop.sol\":1250:1267  Bton.transferFrom */\n      0xffffffffffffffffffffffffffffffffffffffff\n      and\n      0x23b872dd\n        /* \"RebaseAirdrop.sol\":1268:1278  msg.sender */\n      caller\n        /* \"RebaseAirdrop.sol\":1279:1321  0x000000000000000000000000000000000000dEaD */\n      0xdead\n        /* \"RebaseAirdrop.sol\":1323:1335  _amtWithdraw */\n      dup5\n        /* \"RebaseAirdrop.sol\":1250:1336  Bton.transferFrom(msg.sender,0x000000000000000000000000000000000000dEaD, _amtWithdraw) */\n      mload(0x40)\n      dup5\n      0xffffffff\n      and\n      0xe0\n      shl\n      dup2\n      mstore\n      0x04\n      add\n      tag_40\n      swap4\n      swap3\n      swap2\n      swap1\n      tag_41\n      jump\t// in\n    tag_40:\n      0x20\n      mload(0x40)\n      dup1\n      dup4\n      sub\n      dup2\n      0x00\n      dup8\n      dup1\n      extcodesize\n      iszero\n      dup1\n      iszero\n      tag_42\n      jumpi\n      0x00\n      dup1\n      revert\n    tag_42:\n      pop\n      gas\n      call\n      iszero\n      dup1\n      iszero\n      tag_44\n      jumpi\n      returndatasize\n      0x00\n      dup1\n      returndatacopy\n      revert(0x00, returndatasize)\n    tag_44:\n      pop\n      pop\n      pop\n      pop\n      mload(0x40)\n      returndatasize\n      not(0x1f)\n      0x1f\n      dup3\n      add\n      and\n      dup3\n      add\n      dup1\n      0x40\n      mstore\n      pop\n      dup2\n      add\n      swap1\n      tag_45\n      swap2\n      swap1\n      tag_46\n      jump\t// in\n    tag_45:\n      pop\n        /* \"RebaseAirdrop.sol\":1127:1346  function withdrawAirDrop(uint256 _amtWithdraw) public {\r... */\n      pop\n      jump\t// out\n        /* \"RebaseAirdrop.sol\":357:409  mapping(address => btonsLocked) public airdroppedBal */\n    tag_27:\n      mstore(0x20, 0x00)\n      dup1\n      0x00\n      mstore\n      keccak256(0x00, 0x40)\n      0x00\n      swap2\n      pop\n      swap1\n      pop\n      dup1\n      0x00\n      add\n      sload\n      swap1\n      dup1\n      0x01\n      add\n      sload\n      swap1\n      pop\n      dup3\n      jump\t// out\n        /* \"#utility.yul\":7:146   */\n    tag_48:\n        /* \"#utility.yul\":53:58   */\n      0x00\n        /* \"#utility.yul\":91:97   */\n      dup2\n        /* \"#utility.yul\":78:98   */\n      calldataload\n        /* \"#utility.yul\":69:98   */\n      swap1\n      pop\n        /* \"#utility.yul\":107:140   */\n      tag_50\n        /* \"#utility.yul\":134:139   */\n      dup2\n        /* \"#utility.yul\":107:140   */\n      tag_51\n      jump\t// in\n    tag_50:\n        /* \"#utility.yul\":7:146   */\n      swap3\n      swap2\n      pop\n      pop\n      jump\t// out\n        /* \"#utility.yul\":152:289   */\n    tag_52:\n        /* \"#utility.yul\":206:211   */\n      0x00\n        /* \"#utility.yul\":237:243   */\n      dup2\n        /* \"#utility.yul\":231:244   */\n      mload\n        /* \"#utility.yul\":222:244   */\n      swap1\n      pop\n        /* \"#utility.yul\":253:283   */\n      tag_54\n        /* \"#utility.yul\":277:282   */\n      dup2\n        /* \"#utility.yul\":253:283   */\n      tag_55\n      jump\t// in\n    tag_54:\n        /* \"#utility.yul\":152:289   */\n      swap3\n      swap2\n      pop\n      pop\n      jump\t// out\n        /* \"#utility.yul\":295:434   */\n    tag_56:\n        /* \"#utility.yul\":341:346   */\n      0x00\n        /* \"#utility.yul\":379:385   */\n      dup2\n        /* \"#utility.yul\":366:386   */\n      calldataload\n        /* \"#utility.yul\":357:386   */\n      swap1\n      pop\n        /* \"#utility.yul\":395:428   */\n      tag_58\n        /* \"#utility.yul\":422:427   */\n      dup2\n        /* \"#utility.yul\":395:428   */\n      tag_59\n      jump\t// in\n    tag_58:\n        /* \"#utility.yul\":295:434   */\n      swap3\n      swap2\n      pop\n      pop\n      jump\t// out\n        /* \"#utility.yul\":440:769   */\n    tag_26:\n        /* \"#utility.yul\":499:505   */\n      0x00\n        /* \"#utility.yul\":548:550   */\n      0x20\n        /* \"#utility.yul\":536:545   */\n      dup3\n        /* \"#utility.yul\":527:534   */\n      dup5\n        /* \"#utility.yul\":523:546   */\n      sub\n        /* \"#utility.yul\":519:551   */\n      slt\n        /* \"#utility.yul\":516:635   */\n      iszero\n      tag_61\n      jumpi\n        /* \"#utility.yul\":554:633   */\n      tag_62\n      tag_63\n      jump\t// in\n    tag_62:\n        /* \"#utility.yul\":516:635   */\n    tag_61:\n        /* \"#utility.yul\":674:675   */\n      0x00\n        /* \"#utility.yul\":699:752   */\n      tag_64\n        /* \"#utility.yul\":744:751   */\n      dup5\n        /* \"#utility.yul\":735:741   */\n      dup3\n        /* \"#utility.yul\":724:733   */\n      dup6\n        /* \"#utility.yul\":720:742   */\n      add\n        /* \"#utility.yul\":699:752   */\n      tag_48\n      jump\t// in\n    tag_64:\n        /* \"#utility.yul\":689:752   */\n      swap2\n      pop\n        /* \"#utility.yul\":645:762   */\n      pop\n        /* \"#utility.yul\":440:769   */\n      swap3\n      swap2\n      pop\n      pop\n      jump\t// out\n        /* \"#utility.yul\":775:1120   */\n    tag_46:\n        /* \"#utility.yul\":842:848   */\n      0x00\n        /* \"#utility.yul\":891:893   */\n      0x20\n        /* \"#utility.yul\":879:888   */\n      dup3\n        /* \"#utility.yul\":870:877   */\n      dup5\n        /* \"#utility.yul\":866:889   */\n      sub\n        /* \"#utility.yul\":862:894   */\n      slt\n        /* \"#utility.yul\":859:978   */\n      iszero\n      tag_66\n      jumpi\n        /* \"#utility.yul\":897:976   */\n      tag_67\n      tag_63\n      jump\t// in\n    tag_67:\n        /* \"#utility.yul\":859:978   */\n    tag_66:\n        /* \"#utility.yul\":1017:1018   */\n      0x00\n        /* \"#utility.yul\":1042:1103   */\n      tag_68\n        /* \"#utility.yul\":1095:1102   */\n      dup5\n        /* \"#utility.yul\":1086:1092   */\n      dup3\n        /* \"#utility.yul\":1075:1084   */\n      dup6\n        /* \"#utility.yul\":1071:1093   */\n      add\n        /* \"#utility.yul\":1042:1103   */\n      tag_52\n      jump\t// in\n    tag_68:\n        /* \"#utility.yul\":1032:1103   */\n      swap2\n      pop\n        /* \"#utility.yul\":988:1113   */\n      pop\n        /* \"#utility.yul\":775:1120   */\n      swap3\n      swap2\n      pop\n      pop\n      jump\t// out\n        /* \"#utility.yul\":1126:1455   */\n    tag_22:\n        /* \"#utility.yul\":1185:1191   */\n      0x00\n        /* \"#utility.yul\":1234:1236   */\n      0x20\n        /* \"#utility.yul\":1222:1231   */\n      dup3\n        /* \"#utility.yul\":1213:1220   */\n      dup5\n        /* \"#utility.yul\":1209:1232   */\n      sub\n        /* \"#utility.yul\":1205:1237   */\n      slt\n        /* \"#utility.yul\":1202:1321   */\n      iszero\n      tag_70\n      jumpi\n        /* \"#utility.yul\":1240:1319   */\n      tag_71\n      tag_63\n      jump\t// in\n    tag_71:\n        /* \"#utility.yul\":1202:1321   */\n    tag_70:\n        /* \"#utility.yul\":1360:1361   */\n      0x00\n        /* \"#utility.yul\":1385:1438   */\n      tag_72\n        /* \"#utility.yul\":1430:1437   */\n      dup5\n        /* \"#utility.yul\":1421:1427   */\n      dup3\n        /* \"#utility.yul\":1410:1419   */\n      dup6\n        /* \"#utility.yul\":1406:1428   */\n      add\n        /* \"#utility.yul\":1385:1438   */\n      tag_56\n      jump\t// in\n    tag_72:\n        /* \"#utility.yul\":1375:1438   */\n      swap2\n      pop\n        /* \"#utility.yul\":1331:1448   */\n      pop\n        /* \"#utility.yul\":1126:1455   */\n      swap3\n      swap2\n      pop\n      pop\n      jump\t// out\n        /* \"#utility.yul\":1461:1579   */\n    tag_73:\n        /* \"#utility.yul\":1548:1572   */\n      tag_75\n        /* \"#utility.yul\":1566:1571   */\n      dup2\n        /* \"#utility.yul\":1548:1572   */\n      tag_76\n      jump\t// in\n    tag_75:\n        /* \"#utility.yul\":1543:1546   */\n      dup3\n        /* \"#utility.yul\":1536:1573   */\n      mstore\n        /* \"#utility.yul\":1461:1579   */\n      pop\n      pop\n      jump\t// out\n        /* \"#utility.yul\":1585:1742   */\n    tag_77:\n        /* \"#utility.yul\":1685:1735   */\n      tag_79\n        /* \"#utility.yul\":1729:1734   */\n      dup2\n        /* \"#utility.yul\":1685:1735   */\n      tag_80\n      jump\t// in\n    tag_79:\n        /* \"#utility.yul\":1680:1683   */\n      dup3\n        /* \"#utility.yul\":1673:1736   */\n      mstore\n        /* \"#utility.yul\":1585:1742   */\n      pop\n      pop\n      jump\t// out\n        /* \"#utility.yul\":1748:1866   */\n    tag_81:\n        /* \"#utility.yul\":1835:1859   */\n      tag_83\n        /* \"#utility.yul\":1853:1858   */\n      dup2\n        /* \"#utility.yul\":1835:1859   */\n      tag_84\n      jump\t// in\n    tag_83:\n        /* \"#utility.yul\":1830:1833   */\n      dup3\n        /* \"#utility.yul\":1823:1860   */\n      mstore\n        /* \"#utility.yul\":1748:1866   */\n      pop\n      pop\n      jump\t// out\n        /* \"#utility.yul\":1872:2314   */\n    tag_41:\n        /* \"#utility.yul\":2021:2025   */\n      0x00\n        /* \"#utility.yul\":2059:2061   */\n      0x60\n        /* \"#utility.yul\":2048:2057   */\n      dup3\n        /* \"#utility.yul\":2044:2062   */\n      add\n        /* \"#utility.yul\":2036:2062   */\n      swap1\n      pop\n        /* \"#utility.yul\":2072:2143   */\n      tag_86\n        /* \"#utility.yul\":2140:2141   */\n      0x00\n        /* \"#utility.yul\":2129:2138   */\n      dup4\n        /* \"#utility.yul\":2125:2142   */\n      add\n        /* \"#utility.yul\":2116:2122   */\n      dup7\n        /* \"#utility.yul\":2072:2143   */\n      tag_73\n      jump\t// in\n    tag_86:\n        /* \"#utility.yul\":2153:2225   */\n      tag_87\n        /* \"#utility.yul\":2221:2223   */\n      0x20\n        /* \"#utility.yul\":2210:2219   */\n      dup4\n        /* \"#utility.yul\":2206:2224   */\n      add\n        /* \"#utility.yul\":2197:2203   */\n      dup6\n        /* \"#utility.yul\":2153:2225   */\n      tag_73\n      jump\t// in\n    tag_87:\n        /* \"#utility.yul\":2235:2307   */\n      tag_88\n        /* \"#utility.yul\":2303:2305   */\n      0x40\n        /* \"#utility.yul\":2292:2301   */\n      dup4\n        /* \"#utility.yul\":2288:2306   */\n      add\n        /* \"#utility.yul\":2279:2285   */\n      dup5\n        /* \"#utility.yul\":2235:2307   */\n      tag_81\n      jump\t// in\n    tag_88:\n        /* \"#utility.yul\":1872:2314   */\n      swap5\n      swap4\n      pop\n      pop\n      pop\n      pop\n      jump\t// out\n        /* \"#utility.yul\":2320:2568   */\n    tag_16:\n        /* \"#utility.yul\":2426:2430   */\n      0x00\n        /* \"#utility.yul\":2464:2466   */\n      0x20\n        /* \"#utility.yul\":2453:2462   */\n      dup3\n        /* \"#utility.yul\":2449:2467   */\n      add\n        /* \"#utility.yul\":2441:2467   */\n      swap1\n      pop\n        /* \"#utility.yul\":2477:2561   */\n      tag_90\n        /* \"#utility.yul\":2558:2559   */\n      0x00\n        /* \"#utility.yul\":2547:2556   */\n      dup4\n        /* \"#utility.yul\":2543:2560   */\n      add\n        /* \"#utility.yul\":2534:2540   */\n      dup5\n        /* \"#utility.yul\":2477:2561   */\n      tag_77\n      jump\t// in\n    tag_90:\n        /* \"#utility.yul\":2320:2568   */\n      swap3\n      swap2\n      pop\n      pop\n      jump\t// out\n        /* \"#utility.yul\":2574:2906   */\n    tag_29:\n        /* \"#utility.yul\":2695:2699   */\n      0x00\n        /* \"#utility.yul\":2733:2735   */\n      0x40\n        /* \"#utility.yul\":2722:2731   */\n      dup3\n        /* \"#utility.yul\":2718:2736   */\n      add\n        /* \"#utility.yul\":2710:2736   */\n      swap1\n      pop\n        /* \"#utility.yul\":2746:2817   */\n      tag_92\n        /* \"#utility.yul\":2814:2815   */\n      0x00\n        /* \"#utility.yul\":2803:2812   */\n      dup4\n        /* \"#utility.yul\":2799:2816   */\n      add\n        /* \"#utility.yul\":2790:2796   */\n      dup6\n        /* \"#utility.yul\":2746:2817   */\n      tag_81\n      jump\t// in\n    tag_92:\n        /* \"#utility.yul\":2827:2899   */\n      tag_93\n        /* \"#utility.yul\":2895:2897   */\n      0x20\n        /* \"#utility.yul\":2884:2893   */\n      dup4\n        /* \"#utility.yul\":2880:2898   */\n      add\n        /* \"#utility.yul\":2871:2877   */\n      dup5\n        /* \"#utility.yul\":2827:2899   */\n      tag_81\n      jump\t// in\n    tag_93:\n        /* \"#utility.yul\":2574:2906   */\n      swap4\n      swap3\n      pop\n      pop\n      pop\n      jump\t// out\n        /* \"#utility.yul\":2993:3178   */\n    tag_34:\n        /* \"#utility.yul\":3033:3034   */\n      0x00\n        /* \"#utility.yul\":3050:3070   */\n      tag_97\n        /* \"#utility.yul\":3068:3069   */\n      dup3\n        /* \"#utility.yul\":3050:3070   */\n      tag_84\n      jump\t// in\n    tag_97:\n        /* \"#utility.yul\":3045:3070   */\n      swap2\n      pop\n        /* \"#utility.yul\":3084:3104   */\n      tag_98\n        /* \"#utility.yul\":3102:3103   */\n      dup4\n        /* \"#utility.yul\":3084:3104   */\n      tag_84\n      jump\t// in\n    tag_98:\n        /* \"#utility.yul\":3079:3104   */\n      swap3\n      pop\n        /* \"#utility.yul\":3123:3124   */\n      dup3\n        /* \"#utility.yul\":3113:3148   */\n      tag_99\n      jumpi\n        /* \"#utility.yul\":3128:3146   */\n      tag_100\n      tag_101\n      jump\t// in\n    tag_100:\n        /* \"#utility.yul\":3113:3148   */\n    tag_99:\n        /* \"#utility.yul\":3170:3171   */\n      dup3\n        /* \"#utility.yul\":3167:3168   */\n      dup3\n        /* \"#utility.yul\":3163:3172   */\n      div\n        /* \"#utility.yul\":3158:3172   */\n      swap1\n      pop\n        /* \"#utility.yul\":2993:3178   */\n      swap3\n      swap2\n      pop\n      pop\n      jump\t// out\n        /* \"#utility.yul\":3184:3532   */\n    tag_36:\n        /* \"#utility.yul\":3224:3231   */\n      0x00\n        /* \"#utility.yul\":3247:3267   */\n      tag_103\n        /* \"#utility.yul\":3265:3266   */\n      dup3\n        /* \"#utility.yul\":3247:3267   */\n      tag_84\n      jump\t// in\n    tag_103:\n        /* \"#utility.yul\":3242:3267   */\n      swap2\n      pop\n        /* \"#utility.yul\":3281:3301   */\n      tag_104\n        /* \"#utility.yul\":3299:3300   */\n      dup4\n        /* \"#utility.yul\":3281:3301   */\n      tag_84\n      jump\t// in\n    tag_104:\n        /* \"#utility.yul\":3276:3301   */\n      swap3\n      pop\n        /* \"#utility.yul\":3469:3470   */\n      dup2\n        /* \"#utility.yul\":3401:3467   */\n      0xffffffffffffffffffffffffffffffffffffffffffffffffffffffffffffffff\n        /* \"#utility.yul\":3397:3471   */\n      div\n        /* \"#utility.yul\":3394:3395   */\n      dup4\n        /* \"#utility.yul\":3391:3472   */\n      gt\n        /* \"#utility.yul\":3386:3387   */\n      dup3\n        /* \"#utility.yul\":3379:3388   */\n      iszero\n        /* \"#utility.yul\":3372:3389   */\n      iszero\n        /* \"#utility.yul\":3368:3473   */\n      and\n        /* \"#utility.yul\":3365:3496   */\n      iszero\n      tag_105\n      jumpi\n        /* \"#utility.yul\":3476:3494   */\n      tag_106\n      tag_107\n      jump\t// in\n    tag_106:\n        /* \"#utility.yul\":3365:3496   */\n    tag_105:\n        /* \"#utility.yul\":3524:3525   */\n      dup3\n        /* \"#utility.yul\":3521:3522   */\n      dup3\n        /* \"#utility.yul\":3517:3526   */\n      mul\n        /* \"#utility.yul\":3506:3526   */\n      swap1\n      pop\n        /* \"#utility.yul\":3184:3532   */\n      swap3\n      swap2\n      pop\n      pop\n      jump\t// out\n        /* \"#utility.yul\":3538:3729   */\n    tag_32:\n        /* \"#utility.yul\":3578:3582   */\n      0x00\n        /* \"#utility.yul\":3598:3618   */\n      tag_109\n        /* \"#utility.yul\":3616:3617   */\n      dup3\n        /* \"#utility.yul\":3598:3618   */\n      tag_84\n      jump\t// in\n    tag_109:\n        /* \"#utility.yul\":3593:3618   */\n      swap2\n      pop\n        /* \"#utility.yul\":3632:3652   */\n      tag_110\n        /* \"#utility.yul\":3650:3651   */\n      dup4\n        /* \"#utility.yul\":3632:3652   */\n      tag_84\n      jump\t// in\n    tag_110:\n        /* \"#utility.yul\":3627:3652   */\n      swap3\n      pop\n        /* \"#utility.yul\":3671:3672   */\n      dup3\n        /* \"#utility.yul\":3668:3669   */\n      dup3\n        /* \"#utility.yul\":3665:3673   */\n      lt\n        /* \"#utility.yul\":3662:3696   */\n      iszero\n      tag_111\n      jumpi\n        /* \"#utility.yul\":3676:3694   */\n      tag_112\n      tag_107\n      jump\t// in\n    tag_112:\n        /* \"#utility.yul\":3662:3696   */\n    tag_111:\n        /* \"#utility.yul\":3721:3722   */\n      dup3\n        /* \"#utility.yul\":3718:3719   */\n      dup3\n        /* \"#utility.yul\":3714:3723   */\n      sub\n        /* \"#utility.yul\":3706:3723   */\n      swap1\n      pop\n        /* \"#utility.yul\":3538:3729   */\n      swap3\n      swap2\n      pop\n      pop\n      jump\t// out\n        /* \"#utility.yul\":3735:3831   */\n    tag_76:\n        /* \"#utility.yul\":3772:3779   */\n      0x00\n        /* \"#utility.yul\":3801:3825   */\n      tag_114\n        /* \"#utility.yul\":3819:3824   */\n      dup3\n        /* \"#utility.yul\":3801:3825   */\n      tag_115\n      jump\t// in\n    tag_114:\n        /* \"#utility.yul\":3790:3825   */\n      swap1\n      pop\n        /* \"#utility.yul\":3735:3831   */\n      swap2\n      swap1\n      pop\n      jump\t// out\n        /* \"#utility.yul\":3837:3927   */\n    tag_116:\n        /* \"#utility.yul\":3871:3878   */\n      0x00\n        /* \"#utility.yul\":3914:3919   */\n      dup2\n        /* \"#utility.yul\":3907:3920   */\n      iszero\n        /* \"#utility.yul\":3900:3921   */\n      iszero\n        /* \"#utility.yul\":3889:3921   */\n      swap1\n      pop\n        /* \"#utility.yul\":3837:3927   */\n      swap2\n      swap1\n      pop\n      jump\t// out\n        /* \"#utility.yul\":3933:4059   */\n    tag_115:\n        /* \"#utility.yul\":3970:3977   */\n      0x00\n        /* \"#utility.yul\":4010:4052   */\n      0xffffffffffffffffffffffffffffffffffffffff\n        /* \"#utility.yul\":4003:4008   */\n      dup3\n        /* \"#utility.yul\":3999:4053   */\n      and\n        /* \"#utility.yul\":3988:4053   */\n      swap1\n      pop\n        /* \"#utility.yul\":3933:4059   */\n      swap2\n      swap1\n      pop\n      jump\t// out\n        /* \"#utility.yul\":4065:4142   */\n    tag_84:\n        /* \"#utility.yul\":4102:4109   */\n      0x00\n        /* \"#utility.yul\":4131:4136   */\n      dup2\n        /* \"#utility.yul\":4120:4136   */\n      swap1\n      pop\n        /* \"#utility.yul\":4065:4142   */\n      swap2\n      swap1\n      pop\n      jump\t// out\n        /* \"#utility.yul\":4148:4287   */\n    tag_80:\n        /* \"#utility.yul\":4211:4220   */\n      0x00\n        /* \"#utility.yul\":4244:4281   */\n      tag_121\n        /* \"#utility.yul\":4275:4280   */\n      dup3\n        /* \"#utility.yul\":4244:4281   */\n      tag_122\n      jump\t// in\n    tag_121:\n        /* \"#utility.yul\":4231:4281   */\n      swap1\n      pop\n        /* \"#utility.yul\":4148:4287   */\n      swap2\n      swap1\n      pop\n      jump\t// out\n        /* \"#utility.yul\":4293:4419   */\n    tag_122:\n        /* \"#utility.yul\":4343:4352   */\n      0x00\n        /* \"#utility.yul\":4376:4413   */\n      tag_124\n        /* \"#utility.yul\":4407:4412   */\n      dup3\n        /* \"#utility.yul\":4376:4413   */\n      tag_125\n      jump\t// in\n    tag_124:\n        /* \"#utility.yul\":4363:4413   */\n      swap1\n      pop\n        /* \"#utility.yul\":4293:4419   */\n      swap2\n      swap1\n      pop\n      jump\t// out\n        /* \"#utility.yul\":4425:4538   */\n    tag_125:\n        /* \"#utility.yul\":4475:4484   */\n      0x00\n        /* \"#utility.yul\":4508:4532   */\n      tag_127\n        /* \"#utility.yul\":4526:4531   */\n      dup3\n        /* \"#utility.yul\":4508:4532   */\n      tag_115\n      jump\t// in\n    tag_127:\n        /* \"#utility.yul\":4495:4532   */\n      swap1\n      pop\n        /* \"#utility.yul\":4425:4538   */\n      swap2\n      swap1\n      pop\n      jump\t// out\n        /* \"#utility.yul\":4544:4724   */\n    tag_107:\n        /* \"#utility.yul\":4592:4669   */\n      0x4e487b7100000000000000000000000000000000000000000000000000000000\n        /* \"#utility.yul\":4589:4590   */\n      0x00\n        /* \"#utility.yul\":4582:4670   */\n      mstore\n        /* \"#utility.yul\":4689:4693   */\n      0x11\n        /* \"#utility.yul\":4686:4687   */\n      0x04\n        /* \"#utility.yul\":4679:4694   */\n      mstore\n        /* \"#utility.yul\":4713:4717   */\n      0x24\n        /* \"#utility.yul\":4710:4711   */\n      0x00\n        /* \"#utility.yul\":4703:4718   */\n      revert\n        /* \"#utility.yul\":4730:4910   */\n    tag_101:\n        /* \"#utility.yul\":4778:4855   */\n      0x4e487b7100000000000000000000000000000000000000000000000000000000\n        /* \"#utility.yul\":4775:4776   */\n      0x00\n        /* \"#utility.yul\":4768:4856   */\n      mstore\n        /* \"#utility.yul\":4875:4879   */\n      0x12\n        /* \"#utility.yul\":4872:4873   */\n      0x04\n        /* \"#utility.yul\":4865:4880   */\n      mstore\n        /* \"#utility.yul\":4899:4903   */\n      0x24\n        /* \"#utility.yul\":4896:4897   */\n      0x00\n        /* \"#utility.yul\":4889:4904   */\n      revert\n        /* \"#utility.yul\":5039:5156   */\n    tag_63:\n        /* \"#utility.yul\":5148:5149   */\n      0x00\n        /* \"#utility.yul\":5145:5146   */\n      dup1\n        /* \"#utility.yul\":5138:5150   */\n      revert\n        /* \"#utility.yul\":5162:5284   */\n    tag_51:\n        /* \"#utility.yul\":5235:5259   */\n      tag_134\n        /* \"#utility.yul\":5253:5258   */\n      dup2\n        /* \"#utility.yul\":5235:5259   */\n      tag_76\n      jump\t// in\n    tag_134:\n        /* \"#utility.yul\":5228:5233   */\n      dup2\n        /* \"#utility.yul\":5225:5260   */\n      eq\n        /* \"#utility.yul\":5215:5278   */\n      tag_135\n      jumpi\n        /* \"#utility.yul\":5274:5275   */\n      0x00\n        /* \"#utility.yul\":5271:5272   */\n      dup1\n        /* \"#utility.yul\":5264:5276   */\n      revert\n        /* \"#utility.yul\":5215:5278   */\n    tag_135:\n        /* \"#utility.yul\":5162:5284   */\n      pop\n      jump\t// out\n        /* \"#utility.yul\":5290:5406   */\n    tag_55:\n        /* \"#utility.yul\":5360:5381   */\n      tag_137\n        /* \"#utility.yul\":5375:5380   */\n      dup2\n        /* \"#utility.yul\":5360:5381   */\n      tag_116\n      jump\t// in\n    tag_137:\n        /* \"#utility.yul\":5353:5358   */\n      dup2\n        /* \"#utility.yul\":5350:5382   */\n      eq\n        /* \"#utility.yul\":5340:5400   */\n      tag_138\n      jumpi\n        /* \"#utility.yul\":5396:5397   */\n      0x00\n        /* \"#utility.yul\":5393:5394   */\n      dup1\n        /* \"#utility.yul\":5386:5398   */\n      revert\n        /* \"#utility.yul\":5340:5400   */\n    tag_138:\n        /* \"#utility.yul\":5290:5406   */\n      pop\n      jump\t// out\n        /* \"#utility.yul\":5412:5534   */\n    tag_59:\n        /* \"#utility.yul\":5485:5509   */\n      tag_140\n        /* \"#utility.yul\":5503:5508   */\n      dup2\n        /* \"#utility.yul\":5485:5509   */\n      tag_84\n      jump\t// in\n    tag_140:\n        /* \"#utility.yul\":5478:5483   */\n      dup2\n        /* \"#utility.yul\":5475:5510   */\n      eq\n        /* \"#utility.yul\":5465:5528   */\n      tag_141\n      jumpi\n        /* \"#utility.yul\":5524:5525   */\n      0x00\n        /* \"#utility.yul\":5521:5522   */\n      dup1\n        /* \"#utility.yul\":5514:5526   */\n      revert\n        /* \"#utility.yul\":5465:5528   */\n    tag_141:\n        /* \"#utility.yul\":5412:5534   */\n      pop\n      jump\t// out\n\n    auxdata: 0xa26469706673582212200646ceb631390fb01f76c1911b094369e1ef6238866818f3fe1306276464163964736f6c63430008070033\n}\n",
				"bytecode": {
					"linkReferences": {},
					"object": "608060405234801561001057600080fd5b5060405161087e38038061087e833981810160405281019061003291906100e3565b73d7acd2a9fd159e69bb102a1ca21c9a3e3a5f771b600160006101000a81548173ffffffffffffffffffffffffffffffffffffffff021916908373ffffffffffffffffffffffffffffffffffffffff16021790555080600260006101000a81548173ffffffffffffffffffffffffffffffffffffffff021916908373ffffffffffffffffffffffffffffffffffffffff1602179055505061015e565b6000815190506100dd81610147565b92915050565b6000602082840312156100f9576100f8610142565b5b6000610107848285016100ce565b91505092915050565b600061011b82610122565b9050919050565b600073ffffffffffffffffffffffffffffffffffffffff82169050919050565b600080fd5b61015081610110565b811461015b57600080fd5b50565b6107118061016d6000396000f3fe608060405234801561001057600080fd5b50600436106100625760003560e01c806302699df814610067578063283a1e1614610071578063754fe93e1461007b57806389a30271146100995780638fb2a566146100b7578063a87c70fa146100d3575b600080fd5b61006f610104565b005b6100796101c1565b005b610083610209565b60405161009091906104b2565b60405180910390f35b6100a161022f565b6040516100ae91906104b2565b60405180910390f35b6100d160048036038101906100cc9190610421565b610255565b005b6100ed60048036038101906100e891906103c7565b610364565b6040516100fb9291906104cd565b60405180910390f35b60008060008060003373ffffffffffffffffffffffffffffffffffffffff1673ffffffffffffffffffffffffffffffffffffffff16815260200190815260200160002060000154426101569190610581565b925060b48361016591906104f6565b91506001826101749190610527565b9050806000803373ffffffffffffffffffffffffffffffffffffffff1673ffffffffffffffffffffffffffffffffffffffff16815260200190815260200160002060010181905550505050565b426000803373ffffffffffffffffffffffffffffffffffffffff1673ffffffffffffffffffffffffffffffffffffffff16815260200190815260200160002060000181905550565b600260009054906101000a900473ffffffffffffffffffffffffffffffffffffffff1681565b600160009054906101000a900473ffffffffffffffffffffffffffffffffffffffff1681565b806000803373ffffffffffffffffffffffffffffffffffffffff1673ffffffffffffffffffffffffffffffffffffffff16815260200190815260200160002060010160008282546102a69190610581565b92505081905550600260009054906101000a900473ffffffffffffffffffffffffffffffffffffffff1673ffffffffffffffffffffffffffffffffffffffff166323b872dd3361dead846040518463ffffffff1660e01b815260040161030e9392919061047b565b602060405180830381600087803b15801561032857600080fd5b505af115801561033c573d6000803e3d6000fd5b505050506040513d601f19601f8201168201806040525081019061036091906103f4565b5050565b60006020528060005260406000206000915090508060000154908060010154905082565b60008135905061039781610696565b92915050565b6000815190506103ac816106ad565b92915050565b6000813590506103c1816106c4565b92915050565b6000602082840312156103dd576103dc610691565b5b60006103eb84828501610388565b91505092915050565b60006020828403121561040a57610409610691565b5b60006104188482850161039d565b91505092915050565b60006020828403121561043757610436610691565b5b6000610445848285016103b2565b91505092915050565b610457816105b5565b82525050565b610466816105fd565b82525050565b610475816105f3565b82525050565b6000606082019050610490600083018661044e565b61049d602083018561044e565b6104aa604083018461046c565b949350505050565b60006020820190506104c7600083018461045d565b92915050565b60006040820190506104e2600083018561046c565b6104ef602083018461046c565b9392505050565b6000610501826105f3565b915061050c836105f3565b92508261051c5761051b610662565b5b828204905092915050565b6000610532826105f3565b915061053d836105f3565b9250817fffffffffffffffffffffffffffffffffffffffffffffffffffffffffffffffff048311821515161561057657610575610633565b5b828202905092915050565b600061058c826105f3565b9150610597836105f3565b9250828210156105aa576105a9610633565b5b828203905092915050565b60006105c0826105d3565b9050919050565b60008115159050919050565b600073ffffffffffffffffffffffffffffffffffffffff82169050919050565b6000819050919050565b60006106088261060f565b9050919050565b600061061a82610621565b9050919050565b600061062c826105d3565b9050919050565b7f4e487b7100000000000000000000000000000000000000000000000000000000600052601160045260246000fd5b7f4e487b7100000000000000000000000000000000000000000000000000000000600052601260045260246000fd5b600080fd5b61069f816105b5565b81146106aa57600080fd5b50565b6106b6816105c7565b81146106c157600080fd5b50565b6106cd816105f3565b81146106d857600080fd5b5056fea26469706673582212200646ceb631390fb01f76c1911b094369e1ef6238866818f3fe1306276464163964736f6c63430008070033",
					"opcodes": "PUSH1 0x80 PUSH1 0x40 MSTORE CALLVALUE DUP1 ISZERO PUSH2 0x10 JUMPI PUSH1 0x0 DUP1 REVERT JUMPDEST POP PUSH1 0x40 MLOAD PUSH2 0x87E CODESIZE SUB DUP1 PUSH2 0x87E DUP4 CODECOPY DUP2 DUP2 ADD PUSH1 0x40 MSTORE DUP2 ADD SWAP1 PUSH2 0x32 SWAP2 SWAP1 PUSH2 0xE3 JUMP JUMPDEST PUSH20 0xD7ACD2A9FD159E69BB102A1CA21C9A3E3A5F771B PUSH1 0x1 PUSH1 0x0 PUSH2 0x100 EXP DUP2 SLOAD DUP2 PUSH20 0xFFFFFFFFFFFFFFFFFFFFFFFFFFFFFFFFFFFFFFFF MUL NOT AND SWAP1 DUP4 PUSH20 0xFFFFFFFFFFFFFFFFFFFFFFFFFFFFFFFFFFFFFFFF AND MUL OR SWAP1 SSTORE POP DUP1 PUSH1 0x2 PUSH1 0x0 PUSH2 0x100 EXP DUP2 SLOAD DUP2 PUSH20 0xFFFFFFFFFFFFFFFFFFFFFFFFFFFFFFFFFFFFFFFF MUL NOT AND SWAP1 DUP4 PUSH20 0xFFFFFFFFFFFFFFFFFFFFFFFFFFFFFFFFFFFFFFFF AND MUL OR SWAP1 SSTORE POP POP PUSH2 0x15E JUMP JUMPDEST PUSH1 0x0 DUP2 MLOAD SWAP1 POP PUSH2 0xDD DUP2 PUSH2 0x147 JUMP JUMPDEST SWAP3 SWAP2 POP POP JUMP JUMPDEST PUSH1 0x0 PUSH1 0x20 DUP3 DUP5 SUB SLT ISZERO PUSH2 0xF9 JUMPI PUSH2 0xF8 PUSH2 0x142 JUMP JUMPDEST JUMPDEST PUSH1 0x0 PUSH2 0x107 DUP5 DUP3 DUP6 ADD PUSH2 0xCE JUMP JUMPDEST SWAP2 POP POP SWAP3 SWAP2 POP POP JUMP JUMPDEST PUSH1 0x0 PUSH2 0x11B DUP3 PUSH2 0x122 JUMP JUMPDEST SWAP1 POP SWAP2 SWAP1 POP JUMP JUMPDEST PUSH1 0x0 PUSH20 0xFFFFFFFFFFFFFFFFFFFFFFFFFFFFFFFFFFFFFFFF DUP3 AND SWAP1 POP SWAP2 SWAP1 POP JUMP JUMPDEST PUSH1 0x0 DUP1 REVERT JUMPDEST PUSH2 0x150 DUP2 PUSH2 0x110 JUMP JUMPDEST DUP2 EQ PUSH2 0x15B JUMPI PUSH1 0x0 DUP1 REVERT JUMPDEST POP JUMP JUMPDEST PUSH2 0x711 DUP1 PUSH2 0x16D PUSH1 0x0 CODECOPY PUSH1 0x0 RETURN INVALID PUSH1 0x80 PUSH1 0x40 MSTORE CALLVALUE DUP1 ISZERO PUSH2 0x10 JUMPI PUSH1 0x0 DUP1 REVERT JUMPDEST POP PUSH1 0x4 CALLDATASIZE LT PUSH2 0x62 JUMPI PUSH1 0x0 CALLDATALOAD PUSH1 0xE0 SHR DUP1 PUSH4 0x2699DF8 EQ PUSH2 0x67 JUMPI DUP1 PUSH4 0x283A1E16 EQ PUSH2 0x71 JUMPI DUP1 PUSH4 0x754FE93E EQ PUSH2 0x7B JUMPI DUP1 PUSH4 0x89A30271 EQ PUSH2 0x99 JUMPI DUP1 PUSH4 0x8FB2A566 EQ PUSH2 0xB7 JUMPI DUP1 PUSH4 0xA87C70FA EQ PUSH2 0xD3 JUMPI JUMPDEST PUSH1 0x0 DUP1 REVERT JUMPDEST PUSH2 0x6F PUSH2 0x104 JUMP JUMPDEST STOP JUMPDEST PUSH2 0x79 PUSH2 0x1C1 JUMP JUMPDEST STOP JUMPDEST PUSH2 0x83 PUSH2 0x209 JUMP JUMPDEST PUSH1 0x40 MLOAD PUSH2 0x90 SWAP2 SWAP1 PUSH2 0x4B2 JUMP JUMPDEST PUSH1 0x40 MLOAD DUP1 SWAP2 SUB SWAP1 RETURN JUMPDEST PUSH2 0xA1 PUSH2 0x22F JUMP JUMPDEST PUSH1 0x40 MLOAD PUSH2 0xAE SWAP2 SWAP1 PUSH2 0x4B2 JUMP JUMPDEST PUSH1 0x40 MLOAD DUP1 SWAP2 SUB SWAP1 RETURN JUMPDEST PUSH2 0xD1 PUSH1 0x4 DUP1 CALLDATASIZE SUB DUP2 ADD SWAP1 PUSH2 0xCC SWAP2 SWAP1 PUSH2 0x421 JUMP JUMPDEST PUSH2 0x255 JUMP JUMPDEST STOP JUMPDEST PUSH2 0xED PUSH1 0x4 DUP1 CALLDATASIZE SUB DUP2 ADD SWAP1 PUSH2 0xE8 SWAP2 SWAP1 PUSH2 0x3C7 JUMP JUMPDEST PUSH2 0x364 JUMP JUMPDEST PUSH1 0x40 MLOAD PUSH2 0xFB SWAP3 SWAP2 SWAP1 PUSH2 0x4CD JUMP JUMPDEST PUSH1 0x40 MLOAD DUP1 SWAP2 SUB SWAP1 RETURN JUMPDEST PUSH1 0x0 DUP1 PUSH1 0x0 DUP1 PUSH1 0x0 CALLER PUSH20 0xFFFFFFFFFFFFFFFFFFFFFFFFFFFFFFFFFFFFFFFF AND PUSH20 0xFFFFFFFFFFFFFFFFFFFFFFFFFFFFFFFFFFFFFFFF AND DUP2 MSTORE PUSH1 0x20 ADD SWAP1 DUP2 MSTORE PUSH1 0x20 ADD PUSH1 0x0 KECCAK256 PUSH1 0x0 ADD SLOAD TIMESTAMP PUSH2 0x156 SWAP2 SWAP1 PUSH2 0x581 JUMP JUMPDEST SWAP3 POP PUSH1 0xB4 DUP4 PUSH2 0x165 SWAP2 SWAP1 PUSH2 0x4F6 JUMP JUMPDEST SWAP2 POP PUSH1 0x1 DUP3 PUSH2 0x174 SWAP2 SWAP1 PUSH2 0x527 JUMP JUMPDEST SWAP1 POP DUP1 PUSH1 0x0 DUP1 CALLER PUSH20 0xFFFFFFFFFFFFFFFFFFFFFFFFFFFFFFFFFFFFFFFF AND PUSH20 0xFFFFFFFFFFFFFFFFFFFFFFFFFFFFFFFFFFFFFFFF AND DUP2 MSTORE PUSH1 0x20 ADD SWAP1 DUP2 MSTORE PUSH1 0x20 ADD PUSH1 0x0 KECCAK256 PUSH1 0x1 ADD DUP2 SWAP1 SSTORE POP POP POP POP JUMP JUMPDEST TIMESTAMP PUSH1 0x0 DUP1 CALLER PUSH20 0xFFFFFFFFFFFFFFFFFFFFFFFFFFFFFFFFFFFFFFFF AND PUSH20 0xFFFFFFFFFFFFFFFFFFFFFFFFFFFFFFFFFFFFFFFF AND DUP2 MSTORE PUSH1 0x20 ADD SWAP1 DUP2 MSTORE PUSH1 0x20 ADD PUSH1 0x0 KECCAK256 PUSH1 0x0 ADD DUP2 SWAP1 SSTORE POP JUMP JUMPDEST PUSH1 0x2 PUSH1 0x0 SWAP1 SLOAD SWAP1 PUSH2 0x100 EXP SWAP1 DIV PUSH20 0xFFFFFFFFFFFFFFFFFFFFFFFFFFFFFFFFFFFFFFFF AND DUP2 JUMP JUMPDEST PUSH1 0x1 PUSH1 0x0 SWAP1 SLOAD SWAP1 PUSH2 0x100 EXP SWAP1 DIV PUSH20 0xFFFFFFFFFFFFFFFFFFFFFFFFFFFFFFFFFFFFFFFF AND DUP2 JUMP JUMPDEST DUP1 PUSH1 0x0 DUP1 CALLER PUSH20 0xFFFFFFFFFFFFFFFFFFFFFFFFFFFFFFFFFFFFFFFF AND PUSH20 0xFFFFFFFFFFFFFFFFFFFFFFFFFFFFFFFFFFFFFFFF AND DUP2 MSTORE PUSH1 0x20 ADD SWAP1 DUP2 MSTORE PUSH1 0x20 ADD PUSH1 0x0 KECCAK256 PUSH1 0x1 ADD PUSH1 0x0 DUP3 DUP3 SLOAD PUSH2 0x2A6 SWAP2 SWAP1 PUSH2 0x581 JUMP JUMPDEST SWAP3 POP POP DUP2 SWAP1 SSTORE POP PUSH1 0x2 PUSH1 0x0 SWAP1 SLOAD SWAP1 PUSH2 0x100 EXP SWAP1 DIV PUSH20 0xFFFFFFFFFFFFFFFFFFFFFFFFFFFFFFFFFFFFFFFF AND PUSH20 0xFFFFFFFFFFFFFFFFFFFFFFFFFFFFFFFFFFFFFFFF AND PUSH4 0x23B872DD CALLER PUSH2 0xDEAD DUP5 PUSH1 0x40 MLOAD DUP5 PUSH4 0xFFFFFFFF AND PUSH1 0xE0 SHL DUP2 MSTORE PUSH1 0x4 ADD PUSH2 0x30E SWAP4 SWAP3 SWAP2 SWAP1 PUSH2 0x47B JUMP JUMPDEST PUSH1 0x20 PUSH1 0x40 MLOAD DUP1 DUP4 SUB DUP2 PUSH1 0x0 DUP8 DUP1 EXTCODESIZE ISZERO DUP1 ISZERO PUSH2 0x328 JUMPI PUSH1 0x0 DUP1 REVERT JUMPDEST POP GAS CALL ISZERO DUP1 ISZERO PUSH2 0x33C JUMPI RETURNDATASIZE PUSH1 0x0 DUP1 RETURNDATACOPY RETURNDATASIZE PUSH1 0x0 REVERT JUMPDEST POP POP POP POP PUSH1 0x40 MLOAD RETURNDATASIZE PUSH1 0x1F NOT PUSH1 0x1F DUP3 ADD AND DUP3 ADD DUP1 PUSH1 0x40 MSTORE POP DUP2 ADD SWAP1 PUSH2 0x360 SWAP2 SWAP1 PUSH2 0x3F4 JUMP JUMPDEST POP POP JUMP JUMPDEST PUSH1 0x0 PUSH1 0x20 MSTORE DUP1 PUSH1 0x0 MSTORE PUSH1 0x40 PUSH1 0x0 KECCAK256 PUSH1 0x0 SWAP2 POP SWAP1 POP DUP1 PUSH1 0x0 ADD SLOAD SWAP1 DUP1 PUSH1 0x1 ADD SLOAD SWAP1 POP DUP3 JUMP JUMPDEST PUSH1 0x0 DUP2 CALLDATALOAD SWAP1 POP PUSH2 0x397 DUP2 PUSH2 0x696 JUMP JUMPDEST SWAP3 SWAP2 POP POP JUMP JUMPDEST PUSH1 0x0 DUP2 MLOAD SWAP1 POP PUSH2 0x3AC DUP2 PUSH2 0x6AD JUMP JUMPDEST SWAP3 SWAP2 POP POP JUMP JUMPDEST PUSH1 0x0 DUP2 CALLDATALOAD SWAP1 POP PUSH2 0x3C1 DUP2 PUSH2 0x6C4 JUMP JUMPDEST SWAP3 SWAP2 POP POP JUMP JUMPDEST PUSH1 0x0 PUSH1 0x20 DUP3 DUP5 SUB SLT ISZERO PUSH2 0x3DD JUMPI PUSH2 0x3DC PUSH2 0x691 JUMP JUMPDEST JUMPDEST PUSH1 0x0 PUSH2 0x3EB DUP5 DUP3 DUP6 ADD PUSH2 0x388 JUMP JUMPDEST SWAP2 POP POP SWAP3 SWAP2 POP POP JUMP JUMPDEST PUSH1 0x0 PUSH1 0x20 DUP3 DUP5 SUB SLT ISZERO PUSH2 0x40A JUMPI PUSH2 0x409 PUSH2 0x691 JUMP JUMPDEST JUMPDEST PUSH1 0x0 PUSH2 0x418 DUP5 DUP3 DUP6 ADD PUSH2 0x39D JUMP JUMPDEST SWAP2 POP POP SWAP3 SWAP2 POP POP JUMP JUMPDEST PUSH1 0x0 PUSH1 0x20 DUP3 DUP5 SUB SLT ISZERO PUSH2 0x437 JUMPI PUSH2 0x436 PUSH2 0x691 JUMP JUMPDEST JUMPDEST PUSH1 0x0 PUSH2 0x445 DUP5 DUP3 DUP6 ADD PUSH2 0x3B2 JUMP JUMPDEST SWAP2 POP POP SWAP3 SWAP2 POP POP JUMP JUMPDEST PUSH2 0x457 DUP2 PUSH2 0x5B5 JUMP JUMPDEST DUP3 MSTORE POP POP JUMP JUMPDEST PUSH2 0x466 DUP2 PUSH2 0x5FD JUMP JUMPDEST DUP3 MSTORE POP POP JUMP JUMPDEST PUSH2 0x475 DUP2 PUSH2 0x5F3 JUMP JUMPDEST DUP3 MSTORE POP POP JUMP JUMPDEST PUSH1 0x0 PUSH1 0x60 DUP3 ADD SWAP1 POP PUSH2 0x490 PUSH1 0x0 DUP4 ADD DUP7 PUSH2 0x44E JUMP JUMPDEST PUSH2 0x49D PUSH1 0x20 DUP4 ADD DUP6 PUSH2 0x44E JUMP JUMPDEST PUSH2 0x4AA PUSH1 0x40 DUP4 ADD DUP5 PUSH2 0x46C JUMP JUMPDEST SWAP5 SWAP4 POP POP POP POP JUMP JUMPDEST PUSH1 0x0 PUSH1 0x20 DUP3 ADD SWAP1 POP PUSH2 0x4C7 PUSH1 0x0 DUP4 ADD DUP5 PUSH2 0x45D JUMP JUMPDEST SWAP3 SWAP2 POP POP JUMP JUMPDEST PUSH1 0x0 PUSH1 0x40 DUP3 ADD SWAP1 POP PUSH2 0x4E2 PUSH1 0x0 DUP4 ADD DUP6 PUSH2 0x46C JUMP JUMPDEST PUSH2 0x4EF PUSH1 0x20 DUP4 ADD DUP5 PUSH2 0x46C JUMP JUMPDEST SWAP4 SWAP3 POP POP POP JUMP JUMPDEST PUSH1 0x0 PUSH2 0x501 DUP3 PUSH2 0x5F3 JUMP JUMPDEST SWAP2 POP PUSH2 0x50C DUP4 PUSH2 0x5F3 JUMP JUMPDEST SWAP3 POP DUP3 PUSH2 0x51C JUMPI PUSH2 0x51B PUSH2 0x662 JUMP JUMPDEST JUMPDEST DUP3 DUP3 DIV SWAP1 POP SWAP3 SWAP2 POP POP JUMP JUMPDEST PUSH1 0x0 PUSH2 0x532 DUP3 PUSH2 0x5F3 JUMP JUMPDEST SWAP2 POP PUSH2 0x53D DUP4 PUSH2 0x5F3 JUMP JUMPDEST SWAP3 POP DUP2 PUSH32 0xFFFFFFFFFFFFFFFFFFFFFFFFFFFFFFFFFFFFFFFFFFFFFFFFFFFFFFFFFFFFFFFF DIV DUP4 GT DUP3 ISZERO ISZERO AND ISZERO PUSH2 0x576 JUMPI PUSH2 0x575 PUSH2 0x633 JUMP JUMPDEST JUMPDEST DUP3 DUP3 MUL SWAP1 POP SWAP3 SWAP2 POP POP JUMP JUMPDEST PUSH1 0x0 PUSH2 0x58C DUP3 PUSH2 0x5F3 JUMP JUMPDEST SWAP2 POP PUSH2 0x597 DUP4 PUSH2 0x5F3 JUMP JUMPDEST SWAP3 POP DUP3 DUP3 LT ISZERO PUSH2 0x5AA JUMPI PUSH2 0x5A9 PUSH2 0x633 JUMP JUMPDEST JUMPDEST DUP3 DUP3 SUB SWAP1 POP SWAP3 SWAP2 POP POP JUMP JUMPDEST PUSH1 0x0 PUSH2 0x5C0 DUP3 PUSH2 0x5D3 JUMP JUMPDEST SWAP1 POP SWAP2 SWAP1 POP JUMP JUMPDEST PUSH1 0x0 DUP2 ISZERO ISZERO SWAP1 POP SWAP2 SWAP1 POP JUMP JUMPDEST PUSH1 0x0 PUSH20 0xFFFFFFFFFFFFFFFFFFFFFFFFFFFFFFFFFFFFFFFF DUP3 AND SWAP1 POP SWAP2 SWAP1 POP JUMP JUMPDEST PUSH1 0x0 DUP2 SWAP1 POP SWAP2 SWAP1 POP JUMP JUMPDEST PUSH1 0x0 PUSH2 0x608 DUP3 PUSH2 0x60F JUMP JUMPDEST SWAP1 POP SWAP2 SWAP1 POP JUMP JUMPDEST PUSH1 0x0 PUSH2 0x61A DUP3 PUSH2 0x621 JUMP JUMPDEST SWAP1 POP SWAP2 SWAP1 POP JUMP JUMPDEST PUSH1 0x0 PUSH2 0x62C DUP3 PUSH2 0x5D3 JUMP JUMPDEST SWAP1 POP SWAP2 SWAP1 POP JUMP JUMPDEST PUSH32 0x4E487B7100000000000000000000000000000000000000000000000000000000 PUSH1 0x0 MSTORE PUSH1 0x11 PUSH1 0x4 MSTORE PUSH1 0x24 PUSH1 0x0 REVERT JUMPDEST PUSH32 0x4E487B7100000000000000000000000000000000000000000000000000000000 PUSH1 0x0 MSTORE PUSH1 0x12 PUSH1 0x4 MSTORE PUSH1 0x24 PUSH1 0x0 REVERT JUMPDEST PUSH1 0x0 DUP1 REVERT JUMPDEST PUSH2 0x69F DUP2 PUSH2 0x5B5 JUMP JUMPDEST DUP2 EQ PUSH2 0x6AA JUMPI PUSH1 0x0 DUP1 REVERT JUMPDEST POP JUMP JUMPDEST PUSH2 0x6B6 DUP2 PUSH2 0x5C7 JUMP JUMPDEST DUP2 EQ PUSH2 0x6C1 JUMPI PUSH1 0x0 DUP1 REVERT JUMPDEST POP JUMP JUMPDEST PUSH2 0x6CD DUP2 PUSH2 0x5F3 JUMP JUMPDEST DUP2 EQ PUSH2 0x6D8 JUMPI PUSH1 0x0 DUP1 REVERT JUMPDEST POP JUMP INVALID LOG2 PUSH5 0x6970667358 0x22 SLT KECCAK256 MOD CHAINID 0xCE 0xB6 BALANCE CODECOPY 0xF 0xB0 0x1F PUSH23 0xC1911B094369E1EF6238866818F3FE1306276464163964 PUSH20 0x6F6C634300080700330000000000000000000000 "
				},
				"gasEstimates": {
					"creation": {
						"codeDepositCost": "361800",
						"executionCost": "infinite",
						"totalCost": "infinite"
					},
					"external": {
						"Bton()": "2622",
						"USDC()": "2644",
						"airdroppedBal(address)": "infinite",
						"calcAirdrop()": "infinite",
						"startAirDrop()": "22352",
						"withdrawAirDrop(uint256)": "infinite"
					}
				},
				"methodIdentifiers": {
					"Bton()": "754fe93e",
					"USDC()": "89a30271",
					"airdroppedBal(address)": "a87c70fa",
					"calcAirdrop()": "02699df8",
					"startAirDrop()": "283a1e16",
					"withdrawAirDrop(uint256)": "8fb2a566"
				}
			},
			"userdoc": {
				"kind": "user",
				"methods": {},
				"version": 1
			}
		}
	}
}