{
	"sis.sol": {
		"personalSafuuTrader": {
			"abi": [
				{
					"inputs": [],
					"stateMutability": "nonpayable",
					"type": "constructor"
				},
				{
					"inputs": [],
					"name": "BnbToSafuu",
					"outputs": [
						{
							"internalType": "uint256",
							"name": "",
							"type": "uint256"
						}
					],
					"stateMutability": "view",
					"type": "function"
				},
				{
					"inputs": [
						{
							"internalType": "uint256",
							"name": "amttobuy",
							"type": "uint256"
						}
					],
					"name": "buySafuu",
					"outputs": [],
					"stateMutability": "payable",
					"type": "function"
				},
				{
					"inputs": [],
					"name": "owner",
					"outputs": [
						{
							"internalType": "address payable",
							"name": "",
							"type": "address"
						}
					],
					"stateMutability": "view",
					"type": "function"
				},
				{
					"inputs": [],
					"name": "safuu",
					"outputs": [
						{
							"internalType": "contract IERC20",
							"name": "",
							"type": "address"
						}
					],
					"stateMutability": "view",
					"type": "function"
				},
				{
					"inputs": [
						{
							"internalType": "uint256",
							"name": "amttosell",
							"type": "uint256"
						}
					],
					"name": "sellSafuu",
					"outputs": [],
					"stateMutability": "nonpayable",
					"type": "function"
				},
				{
					"inputs": [],
					"name": "taxFactor",
					"outputs": [
						{
							"internalType": "uint256",
							"name": "",
							"type": "uint256"
						}
					],
					"stateMutability": "view",
					"type": "function"
				},
				{
					"inputs": [],
					"name": "withdrawToOwner",
					"outputs": [],
					"stateMutability": "nonpayable",
					"type": "function"
				}
			],
			"devdoc": {
				"kind": "dev",
				"methods": {},
				"version": 1
			},
			"evm": {
				"assembly": "    /* \"sis.sol\":84:1804  contract personalSafuuTrader\r... */\n  mstore(0x40, 0x80)\n    /* \"sis.sol\":247:463  constructor () {\r... */\n  callvalue\n  dup1\n  iszero\n  tag_1\n  jumpi\n  0x00\n  dup1\n  revert\ntag_1:\n  pop\n    /* \"sis.sol\":283:293  msg.sender */\n  caller\n    /* \"sis.sol\":267:272  owner */\n  0x00\n  dup1\n    /* \"sis.sol\":267:294  owner = payable(msg.sender) */\n  0x0100\n  exp\n  dup2\n  sload\n  dup2\n  0xffffffffffffffffffffffffffffffffffffffff\n  mul\n  not\n  and\n  swap1\n  dup4\n  0xffffffffffffffffffffffffffffffffffffffff\n  and\n  mul\n  or\n  swap1\n  sstore\n  pop\n    /* \"sis.sol\":312:318  200000 */\n  0x030d40\n    /* \"sis.sol\":299:309  BnbToSafuu */\n  0x01\n    /* \"sis.sol\":299:318  BnbToSafuu = 200000 */\n  dup2\n  swap1\n  sstore\n  pop\n    /* \"sis.sol\":403:445  0xd9145CCE52D386f254917e481eB44e9943F39138 */\n  0xd9145cce52d386f254917e481eb44e9943f39138\n    /* \"sis.sol\":388:393  safuu */\n  0x03\n  0x00\n    /* \"sis.sol\":388:446  safuu = IERC20(0xd9145CCE52D386f254917e481eB44e9943F39138) */\n  0x0100\n  exp\n  dup2\n  sload\n  dup2\n  0xffffffffffffffffffffffffffffffffffffffff\n  mul\n  not\n  and\n  swap1\n  dup4\n  0xffffffffffffffffffffffffffffffffffffffff\n  and\n  mul\n  or\n  swap1\n  sstore\n  pop\n    /* \"sis.sol\":84:1804  contract personalSafuuTrader\r... */\n  dataSize(sub_0)\n  dup1\n  dataOffset(sub_0)\n  0x00\n  codecopy\n  0x00\n  return\nstop\n\nsub_0: assembly {\n        /* \"sis.sol\":84:1804  contract personalSafuuTrader\r... */\n      mstore(0x40, 0x80)\n      jumpi(tag_1, lt(calldatasize, 0x04))\n      shr(0xe0, calldataload(0x00))\n      dup1\n      0x8da5cb5b\n      gt\n      tag_9\n      jumpi\n      dup1\n      0x8da5cb5b\n      eq\n      tag_5\n      jumpi\n      dup1\n      0xade87ecc\n      eq\n      tag_6\n      jumpi\n      dup1\n      0xd63cf1da\n      eq\n      tag_7\n      jumpi\n      dup1\n      0xebc4197c\n      eq\n      tag_8\n      jumpi\n      jump(tag_1)\n    tag_9:\n      dup1\n      0x23b160ac\n      eq\n      tag_2\n      jumpi\n      dup1\n      0x3cb40e16\n      eq\n      tag_3\n      jumpi\n      dup1\n      0x80c31426\n      eq\n      tag_4\n      jumpi\n    tag_1:\n      0x00\n      dup1\n      revert\n        /* \"sis.sol\":223:242  IERC20 public safuu */\n    tag_2:\n      callvalue\n      dup1\n      iszero\n      tag_10\n      jumpi\n      0x00\n      dup1\n      revert\n    tag_10:\n      pop\n      tag_11\n      tag_12\n      jump\t// in\n    tag_11:\n      mload(0x40)\n      tag_13\n      swap2\n      swap1\n      tag_14\n      jump\t// in\n    tag_13:\n      mload(0x40)\n      dup1\n      swap2\n      sub\n      swap1\n      return\n        /* \"sis.sol\":1147:1527  function withdrawToOwner()\r... */\n    tag_3:\n      callvalue\n      dup1\n      iszero\n      tag_15\n      jumpi\n      0x00\n      dup1\n      revert\n    tag_15:\n      pop\n      tag_16\n      tag_17\n      jump\t// in\n    tag_16:\n      stop\n        /* \"sis.sol\":469:847  function buySafuu(uint256 amttobuy) public payable \r... */\n    tag_4:\n      tag_18\n      0x04\n      dup1\n      calldatasize\n      sub\n      dup2\n      add\n      swap1\n      tag_19\n      swap2\n      swap1\n      tag_20\n      jump\t// in\n    tag_19:\n      tag_21\n      jump\t// in\n    tag_18:\n      stop\n        /* \"sis.sol\":121:149  address payable public owner */\n    tag_5:\n      callvalue\n      dup1\n      iszero\n      tag_22\n      jumpi\n      0x00\n      dup1\n      revert\n    tag_22:\n      pop\n      tag_23\n      tag_24\n      jump\t// in\n    tag_23:\n      mload(0x40)\n      tag_25\n      swap2\n      swap1\n      tag_26\n      jump\t// in\n    tag_25:\n      mload(0x40)\n      dup1\n      swap2\n      sub\n      swap1\n      return\n        /* \"sis.sol\":857:1139  function sellSafuu(uint256 amttosell) public\r... */\n    tag_6:\n      callvalue\n      dup1\n      iszero\n      tag_27\n      jumpi\n      0x00\n      dup1\n      revert\n    tag_27:\n      pop\n      tag_28\n      0x04\n      dup1\n      calldatasize\n      sub\n      dup2\n      add\n      swap1\n      tag_29\n      swap2\n      swap1\n      tag_20\n      jump\t// in\n    tag_29:\n      tag_30\n      jump\t// in\n    tag_28:\n      stop\n        /* \"sis.sol\":192:216  uint256 public taxFactor */\n    tag_7:\n      callvalue\n      dup1\n      iszero\n      tag_31\n      jumpi\n      0x00\n      dup1\n      revert\n    tag_31:\n      pop\n      tag_32\n      tag_33\n      jump\t// in\n    tag_32:\n      mload(0x40)\n      tag_34\n      swap2\n      swap1\n      tag_35\n      jump\t// in\n    tag_34:\n      mload(0x40)\n      dup1\n      swap2\n      sub\n      swap1\n      return\n        /* \"sis.sol\":156:182  uint256  public BnbToSafuu */\n    tag_8:\n      callvalue\n      dup1\n      iszero\n      tag_36\n      jumpi\n      0x00\n      dup1\n      revert\n    tag_36:\n      pop\n      tag_37\n      tag_38\n      jump\t// in\n    tag_37:\n      mload(0x40)\n      tag_39\n      swap2\n      swap1\n      tag_35\n      jump\t// in\n    tag_39:\n      mload(0x40)\n      dup1\n      swap2\n      sub\n      swap1\n      return\n        /* \"sis.sol\":223:242  IERC20 public safuu */\n    tag_12:\n      0x03\n      0x00\n      swap1\n      sload\n      swap1\n      0x0100\n      exp\n      swap1\n      div\n      0xffffffffffffffffffffffffffffffffffffffff\n      and\n      dup2\n      jump\t// out\n        /* \"sis.sol\":1147:1527  function withdrawToOwner()\r... */\n    tag_17:\n        /* \"sis.sol\":1262:1273  uint amount */\n      0x00\n        /* \"sis.sol\":1276:1297  address(this).balance */\n      selfbalance\n        /* \"sis.sol\":1262:1297  uint amount = address(this).balance */\n      swap1\n      pop\n        /* \"sis.sol\":1421:1433  bool success */\n      0x00\n        /* \"sis.sol\":1439:1444  owner */\n      dup1\n      0x00\n      swap1\n      sload\n      swap1\n      0x0100\n      exp\n      swap1\n      div\n      0xffffffffffffffffffffffffffffffffffffffff\n      and\n        /* \"sis.sol\":1439:1449  owner.call */\n      0xffffffffffffffffffffffffffffffffffffffff\n      and\n        /* \"sis.sol\":1457:1463  amount */\n      dup3\n        /* \"sis.sol\":1439:1468  owner.call{value: amount}(\"\") */\n      mload(0x40)\n      tag_41\n      swap1\n      tag_42\n      jump\t// in\n    tag_41:\n      0x00\n      mload(0x40)\n      dup1\n      dup4\n      sub\n      dup2\n      dup6\n      dup8\n      gas\n      call\n      swap3\n      pop\n      pop\n      pop\n      returndatasize\n      dup1\n      0x00\n      dup2\n      eq\n      tag_45\n      jumpi\n      mload(0x40)\n      swap2\n      pop\n      and(add(returndatasize, 0x3f), not(0x1f))\n      dup3\n      add\n      0x40\n      mstore\n      returndatasize\n      dup3\n      mstore\n      returndatasize\n      0x00\n      0x20\n      dup5\n      add\n      returndatacopy\n      jump(tag_44)\n    tag_45:\n      0x60\n      swap2\n      pop\n    tag_44:\n      pop\n        /* \"sis.sol\":1420:1468  (bool success, ) = owner.call{value: amount}(\"\") */\n      pop\n      swap1\n      pop\n        /* \"sis.sol\":1487:1494  success */\n      dup1\n        /* \"sis.sol\":1479:1519  require(success, \"Failed to send Ether\") */\n      tag_46\n      jumpi\n      mload(0x40)\n      0x08c379a000000000000000000000000000000000000000000000000000000000\n      dup2\n      mstore\n      0x04\n      add\n      tag_47\n      swap1\n      tag_48\n      jump\t// in\n    tag_47:\n      mload(0x40)\n      dup1\n      swap2\n      sub\n      swap1\n      revert\n    tag_46:\n        /* \"sis.sol\":1192:1527  {\r... */\n      pop\n      pop\n        /* \"sis.sol\":1147:1527  function withdrawToOwner()\r... */\n      jump\t// out\n        /* \"sis.sol\":469:847  function buySafuu(uint256 amttobuy) public payable \r... */\n    tag_21:\n        /* \"sis.sol\":537:555  uint256 payableAmt */\n      0x00\n        /* \"sis.sol\":602:612  BnbToSafuu */\n      sload(0x01)\n        /* \"sis.sol\":593:601  amttobuy */\n      dup3\n        /* \"sis.sol\":593:612  amttobuy/BnbToSafuu */\n      tag_50\n      swap2\n      swap1\n      tag_51\n      jump\t// in\n    tag_50:\n        /* \"sis.sol\":579:613  payableAmt = (amttobuy/BnbToSafuu) */\n      swap1\n      pop\n        /* \"sis.sol\":625:637  bool success */\n      0x00\n        /* \"sis.sol\":643:648  owner */\n      dup1\n      0x00\n      swap1\n      sload\n      swap1\n      0x0100\n      exp\n      swap1\n      div\n      0xffffffffffffffffffffffffffffffffffffffff\n      and\n        /* \"sis.sol\":643:653  owner.call */\n      0xffffffffffffffffffffffffffffffffffffffff\n      and\n        /* \"sis.sol\":661:671  payableAmt */\n      dup3\n        /* \"sis.sol\":643:676  owner.call{value: payableAmt}(\"\") */\n      mload(0x40)\n      tag_52\n      swap1\n      tag_42\n      jump\t// in\n    tag_52:\n      0x00\n      mload(0x40)\n      dup1\n      dup4\n      sub\n      dup2\n      dup6\n      dup8\n      gas\n      call\n      swap3\n      pop\n      pop\n      pop\n      returndatasize\n      dup1\n      0x00\n      dup2\n      eq\n      tag_55\n      jumpi\n      mload(0x40)\n      swap2\n      pop\n      and(add(returndatasize, 0x3f), not(0x1f))\n      dup3\n      add\n      0x40\n      mstore\n      returndatasize\n      dup3\n      mstore\n      returndatasize\n      0x00\n      0x20\n      dup5\n      add\n      returndatacopy\n      jump(tag_54)\n    tag_55:\n      0x60\n      swap2\n      pop\n    tag_54:\n      pop\n        /* \"sis.sol\":624:676  (bool success, ) = owner.call{value: payableAmt}(\"\") */\n      pop\n      swap1\n      pop\n        /* \"sis.sol\":695:702  success */\n      dup1\n        /* \"sis.sol\":687:727  require(success, \"Failed to send money\") */\n      tag_56\n      jumpi\n      mload(0x40)\n      0x08c379a000000000000000000000000000000000000000000000000000000000\n      dup2\n      mstore\n      0x04\n      add\n      tag_57\n      swap1\n      tag_58\n      jump\t// in\n    tag_57:\n      mload(0x40)\n      dup1\n      swap2\n      sub\n      swap1\n      revert\n    tag_56:\n        /* \"sis.sol\":526:847  {\r... */\n      pop\n      pop\n        /* \"sis.sol\":469:847  function buySafuu(uint256 amttobuy) public payable \r... */\n      pop\n      jump\t// out\n        /* \"sis.sol\":121:149  address payable public owner */\n    tag_24:\n      0x00\n      dup1\n      sload\n      swap1\n      0x0100\n      exp\n      swap1\n      div\n      0xffffffffffffffffffffffffffffffffffffffff\n      and\n      dup2\n      jump\t// out\n        /* \"sis.sol\":857:1139  function sellSafuu(uint256 amttosell) public\r... */\n    tag_30:\n        /* \"sis.sol\":914:976  _safeTransferFrom(safuu, msg.sender, address(this), amttosell) */\n      tag_60\n        /* \"sis.sol\":932:937  safuu */\n      0x03\n      0x00\n      swap1\n      sload\n      swap1\n      0x0100\n      exp\n      swap1\n      div\n      0xffffffffffffffffffffffffffffffffffffffff\n      and\n        /* \"sis.sol\":939:949  msg.sender */\n      caller\n        /* \"sis.sol\":959:963  this */\n      address\n        /* \"sis.sol\":966:975  amttosell */\n      dup5\n        /* \"sis.sol\":914:931  _safeTransferFrom */\n      tag_61\n        /* \"sis.sol\":914:976  _safeTransferFrom(safuu, msg.sender, address(this), amttosell) */\n      jump\t// in\n    tag_60:\n        /* \"sis.sol\":1011:1029  uint256 payableBNB */\n      0x00\n        /* \"sis.sol\":1073:1083  BnbToSafuu */\n      sload(0x01)\n        /* \"sis.sol\":1063:1072  amttosell */\n      dup3\n        /* \"sis.sol\":1063:1083  amttosell/BnbToSafuu */\n      tag_62\n      swap2\n      swap1\n      tag_51\n      jump\t// in\n    tag_62:\n        /* \"sis.sol\":1049:1084  payableBNB = (amttosell/BnbToSafuu) */\n      swap1\n      pop\n        /* \"sis.sol\":1099:1109  msg.sender */\n      caller\n        /* \"sis.sol\":1091:1119  payable(msg.sender).transfer */\n      0xffffffffffffffffffffffffffffffffffffffff\n      and\n        /* \"sis.sol\":1091:1131  payable(msg.sender).transfer(payableBNB) */\n      0x08fc\n        /* \"sis.sol\":1120:1130  payableBNB */\n      dup3\n        /* \"sis.sol\":1091:1131  payable(msg.sender).transfer(payableBNB) */\n      swap1\n      dup2\n      iszero\n      mul\n      swap1\n      mload(0x40)\n      0x00\n      mload(0x40)\n      dup1\n      dup4\n      sub\n      dup2\n      dup6\n      dup9\n      dup9\n      call\n      swap4\n      pop\n      pop\n      pop\n      pop\n      iszero\n      dup1\n      iszero\n      tag_64\n      jumpi\n      returndatasize\n      0x00\n      dup1\n      returndatacopy\n      revert(0x00, returndatasize)\n    tag_64:\n      pop\n        /* \"sis.sol\":907:1139  {\r... */\n      pop\n        /* \"sis.sol\":857:1139  function sellSafuu(uint256 amttosell) public\r... */\n      pop\n      jump\t// out\n        /* \"sis.sol\":192:216  uint256 public taxFactor */\n    tag_33:\n      sload(0x02)\n      dup2\n      jump\t// out\n        /* \"sis.sol\":156:182  uint256  public BnbToSafuu */\n    tag_38:\n      sload(0x01)\n      dup2\n      jump\t// out\n        /* \"sis.sol\":1533:1801  function _safeTransferFrom(\r... */\n    tag_61:\n        /* \"sis.sol\":1687:1696  bool sent */\n      0x00\n        /* \"sis.sol\":1699:1704  token */\n      dup5\n        /* \"sis.sol\":1699:1717  token.transferFrom */\n      0xffffffffffffffffffffffffffffffffffffffff\n      and\n      0x23b872dd\n        /* \"sis.sol\":1718:1724  sender */\n      dup6\n        /* \"sis.sol\":1726:1735  recipient */\n      dup6\n        /* \"sis.sol\":1737:1743  amount */\n      dup6\n        /* \"sis.sol\":1699:1744  token.transferFrom(sender, recipient, amount) */\n      mload(0x40)\n      dup5\n      0xffffffff\n      and\n      0xe0\n      shl\n      dup2\n      mstore\n      0x04\n      add\n      tag_66\n      swap4\n      swap3\n      swap2\n      swap1\n      tag_67\n      jump\t// in\n    tag_66:\n      0x20\n      mload(0x40)\n      dup1\n      dup4\n      sub\n      dup2\n      0x00\n      dup8\n      dup1\n      extcodesize\n      iszero\n      dup1\n      iszero\n      tag_68\n      jumpi\n      0x00\n      dup1\n      revert\n    tag_68:\n      pop\n      gas\n      call\n      iszero\n      dup1\n      iszero\n      tag_70\n      jumpi\n      returndatasize\n      0x00\n      dup1\n      returndatacopy\n      revert(0x00, returndatasize)\n    tag_70:\n      pop\n      pop\n      pop\n      pop\n      mload(0x40)\n      returndatasize\n      not(0x1f)\n      0x1f\n      dup3\n      add\n      and\n      dup3\n      add\n      dup1\n      0x40\n      mstore\n      pop\n      dup2\n      add\n      swap1\n      tag_71\n      swap2\n      swap1\n      tag_72\n      jump\t// in\n    tag_71:\n        /* \"sis.sol\":1687:1744  bool sent = token.transferFrom(sender, recipient, amount) */\n      swap1\n      pop\n        /* \"sis.sol\":1763:1767  sent */\n      dup1\n        /* \"sis.sol\":1755:1793  require(sent, \"Token transfer failed\") */\n      tag_73\n      jumpi\n      mload(0x40)\n      0x08c379a000000000000000000000000000000000000000000000000000000000\n      dup2\n      mstore\n      0x04\n      add\n      tag_74\n      swap1\n      tag_75\n      jump\t// in\n    tag_74:\n      mload(0x40)\n      dup1\n      swap2\n      sub\n      swap1\n      revert\n    tag_73:\n        /* \"sis.sol\":1676:1801  {\r... */\n      pop\n        /* \"sis.sol\":1533:1801  function _safeTransferFrom(\r... */\n      pop\n      pop\n      pop\n      pop\n      jump\t// out\n        /* \"#utility.yul\":7:144   */\n    tag_77:\n        /* \"#utility.yul\":61:66   */\n      0x00\n        /* \"#utility.yul\":92:98   */\n      dup2\n        /* \"#utility.yul\":86:99   */\n      mload\n        /* \"#utility.yul\":77:99   */\n      swap1\n      pop\n        /* \"#utility.yul\":108:138   */\n      tag_79\n        /* \"#utility.yul\":132:137   */\n      dup2\n        /* \"#utility.yul\":108:138   */\n      tag_80\n      jump\t// in\n    tag_79:\n        /* \"#utility.yul\":7:144   */\n      swap3\n      swap2\n      pop\n      pop\n      jump\t// out\n        /* \"#utility.yul\":150:289   */\n    tag_81:\n        /* \"#utility.yul\":196:201   */\n      0x00\n        /* \"#utility.yul\":234:240   */\n      dup2\n        /* \"#utility.yul\":221:241   */\n      calldataload\n        /* \"#utility.yul\":212:241   */\n      swap1\n      pop\n        /* \"#utility.yul\":250:283   */\n      tag_83\n        /* \"#utility.yul\":277:282   */\n      dup2\n        /* \"#utility.yul\":250:283   */\n      tag_84\n      jump\t// in\n    tag_83:\n        /* \"#utility.yul\":150:289   */\n      swap3\n      swap2\n      pop\n      pop\n      jump\t// out\n        /* \"#utility.yul\":295:640   */\n    tag_72:\n        /* \"#utility.yul\":362:368   */\n      0x00\n        /* \"#utility.yul\":411:413   */\n      0x20\n        /* \"#utility.yul\":399:408   */\n      dup3\n        /* \"#utility.yul\":390:397   */\n      dup5\n        /* \"#utility.yul\":386:409   */\n      sub\n        /* \"#utility.yul\":382:414   */\n      slt\n        /* \"#utility.yul\":379:498   */\n      iszero\n      tag_86\n      jumpi\n        /* \"#utility.yul\":417:496   */\n      tag_87\n      tag_88\n      jump\t// in\n    tag_87:\n        /* \"#utility.yul\":379:498   */\n    tag_86:\n        /* \"#utility.yul\":537:538   */\n      0x00\n        /* \"#utility.yul\":562:623   */\n      tag_89\n        /* \"#utility.yul\":615:622   */\n      dup5\n        /* \"#utility.yul\":606:612   */\n      dup3\n        /* \"#utility.yul\":595:604   */\n      dup6\n        /* \"#utility.yul\":591:613   */\n      add\n        /* \"#utility.yul\":562:623   */\n      tag_77\n      jump\t// in\n    tag_89:\n        /* \"#utility.yul\":552:623   */\n      swap2\n      pop\n        /* \"#utility.yul\":508:633   */\n      pop\n        /* \"#utility.yul\":295:640   */\n      swap3\n      swap2\n      pop\n      pop\n      jump\t// out\n        /* \"#utility.yul\":646:975   */\n    tag_20:\n        /* \"#utility.yul\":705:711   */\n      0x00\n        /* \"#utility.yul\":754:756   */\n      0x20\n        /* \"#utility.yul\":742:751   */\n      dup3\n        /* \"#utility.yul\":733:740   */\n      dup5\n        /* \"#utility.yul\":729:752   */\n      sub\n        /* \"#utility.yul\":725:757   */\n      slt\n        /* \"#utility.yul\":722:841   */\n      iszero\n      tag_91\n      jumpi\n        /* \"#utility.yul\":760:839   */\n      tag_92\n      tag_88\n      jump\t// in\n    tag_92:\n        /* \"#utility.yul\":722:841   */\n    tag_91:\n        /* \"#utility.yul\":880:881   */\n      0x00\n        /* \"#utility.yul\":905:958   */\n      tag_93\n        /* \"#utility.yul\":950:957   */\n      dup5\n        /* \"#utility.yul\":941:947   */\n      dup3\n        /* \"#utility.yul\":930:939   */\n      dup6\n        /* \"#utility.yul\":926:948   */\n      add\n        /* \"#utility.yul\":905:958   */\n      tag_81\n      jump\t// in\n    tag_93:\n        /* \"#utility.yul\":895:958   */\n      swap2\n      pop\n        /* \"#utility.yul\":851:968   */\n      pop\n        /* \"#utility.yul\":646:975   */\n      swap3\n      swap2\n      pop\n      pop\n      jump\t// out\n        /* \"#utility.yul\":981:1123   */\n    tag_94:\n        /* \"#utility.yul\":1084:1116   */\n      tag_96\n        /* \"#utility.yul\":1110:1115   */\n      dup2\n        /* \"#utility.yul\":1084:1116   */\n      tag_97\n      jump\t// in\n    tag_96:\n        /* \"#utility.yul\":1079:1082   */\n      dup3\n        /* \"#utility.yul\":1072:1117   */\n      mstore\n        /* \"#utility.yul\":981:1123   */\n      pop\n      pop\n      jump\t// out\n        /* \"#utility.yul\":1129:1247   */\n    tag_98:\n        /* \"#utility.yul\":1216:1240   */\n      tag_100\n        /* \"#utility.yul\":1234:1239   */\n      dup2\n        /* \"#utility.yul\":1216:1240   */\n      tag_101\n      jump\t// in\n    tag_100:\n        /* \"#utility.yul\":1211:1214   */\n      dup3\n        /* \"#utility.yul\":1204:1241   */\n      mstore\n        /* \"#utility.yul\":1129:1247   */\n      pop\n      pop\n      jump\t// out\n        /* \"#utility.yul\":1253:1410   */\n    tag_102:\n        /* \"#utility.yul\":1353:1403   */\n      tag_104\n        /* \"#utility.yul\":1397:1402   */\n      dup2\n        /* \"#utility.yul\":1353:1403   */\n      tag_105\n      jump\t// in\n    tag_104:\n        /* \"#utility.yul\":1348:1351   */\n      dup3\n        /* \"#utility.yul\":1341:1404   */\n      mstore\n        /* \"#utility.yul\":1253:1410   */\n      pop\n      pop\n      jump\t// out\n        /* \"#utility.yul\":1416:1782   */\n    tag_106:\n        /* \"#utility.yul\":1558:1561   */\n      0x00\n        /* \"#utility.yul\":1579:1646   */\n      tag_108\n        /* \"#utility.yul\":1643:1645   */\n      0x14\n        /* \"#utility.yul\":1638:1641   */\n      dup4\n        /* \"#utility.yul\":1579:1646   */\n      tag_109\n      jump\t// in\n    tag_108:\n        /* \"#utility.yul\":1572:1646   */\n      swap2\n      pop\n        /* \"#utility.yul\":1655:1748   */\n      tag_110\n        /* \"#utility.yul\":1744:1747   */\n      dup3\n        /* \"#utility.yul\":1655:1748   */\n      tag_111\n      jump\t// in\n    tag_110:\n        /* \"#utility.yul\":1773:1775   */\n      0x20\n        /* \"#utility.yul\":1768:1771   */\n      dup3\n        /* \"#utility.yul\":1764:1776   */\n      add\n        /* \"#utility.yul\":1757:1776   */\n      swap1\n      pop\n        /* \"#utility.yul\":1416:1782   */\n      swap2\n      swap1\n      pop\n      jump\t// out\n        /* \"#utility.yul\":1788:2154   */\n    tag_112:\n        /* \"#utility.yul\":1930:1933   */\n      0x00\n        /* \"#utility.yul\":1951:2018   */\n      tag_114\n        /* \"#utility.yul\":2015:2017   */\n      0x14\n        /* \"#utility.yul\":2010:2013   */\n      dup4\n        /* \"#utility.yul\":1951:2018   */\n      tag_109\n      jump\t// in\n    tag_114:\n        /* \"#utility.yul\":1944:2018   */\n      swap2\n      pop\n        /* \"#utility.yul\":2027:2120   */\n      tag_115\n        /* \"#utility.yul\":2116:2119   */\n      dup3\n        /* \"#utility.yul\":2027:2120   */\n      tag_116\n      jump\t// in\n    tag_115:\n        /* \"#utility.yul\":2145:2147   */\n      0x20\n        /* \"#utility.yul\":2140:2143   */\n      dup3\n        /* \"#utility.yul\":2136:2148   */\n      add\n        /* \"#utility.yul\":2129:2148   */\n      swap1\n      pop\n        /* \"#utility.yul\":1788:2154   */\n      swap2\n      swap1\n      pop\n      jump\t// out\n        /* \"#utility.yul\":2160:2526   */\n    tag_117:\n        /* \"#utility.yul\":2302:2305   */\n      0x00\n        /* \"#utility.yul\":2323:2390   */\n      tag_119\n        /* \"#utility.yul\":2387:2389   */\n      0x15\n        /* \"#utility.yul\":2382:2385   */\n      dup4\n        /* \"#utility.yul\":2323:2390   */\n      tag_109\n      jump\t// in\n    tag_119:\n        /* \"#utility.yul\":2316:2390   */\n      swap2\n      pop\n        /* \"#utility.yul\":2399:2492   */\n      tag_120\n        /* \"#utility.yul\":2488:2491   */\n      dup3\n        /* \"#utility.yul\":2399:2492   */\n      tag_121\n      jump\t// in\n    tag_120:\n        /* \"#utility.yul\":2517:2519   */\n      0x20\n        /* \"#utility.yul\":2512:2515   */\n      dup3\n        /* \"#utility.yul\":2508:2520   */\n      add\n        /* \"#utility.yul\":2501:2520   */\n      swap1\n      pop\n        /* \"#utility.yul\":2160:2526   */\n      swap2\n      swap1\n      pop\n      jump\t// out\n        /* \"#utility.yul\":2532:2930   */\n    tag_122:\n        /* \"#utility.yul\":2691:2694   */\n      0x00\n        /* \"#utility.yul\":2712:2795   */\n      tag_124\n        /* \"#utility.yul\":2793:2794   */\n      0x00\n        /* \"#utility.yul\":2788:2791   */\n      dup4\n        /* \"#utility.yul\":2712:2795   */\n      tag_125\n      jump\t// in\n    tag_124:\n        /* \"#utility.yul\":2705:2795   */\n      swap2\n      pop\n        /* \"#utility.yul\":2804:2897   */\n      tag_126\n        /* \"#utility.yul\":2893:2896   */\n      dup3\n        /* \"#utility.yul\":2804:2897   */\n      tag_127\n      jump\t// in\n    tag_126:\n        /* \"#utility.yul\":2922:2923   */\n      0x00\n        /* \"#utility.yul\":2917:2920   */\n      dup3\n        /* \"#utility.yul\":2913:2924   */\n      add\n        /* \"#utility.yul\":2906:2924   */\n      swap1\n      pop\n        /* \"#utility.yul\":2532:2930   */\n      swap2\n      swap1\n      pop\n      jump\t// out\n        /* \"#utility.yul\":2936:3054   */\n    tag_128:\n        /* \"#utility.yul\":3023:3047   */\n      tag_130\n        /* \"#utility.yul\":3041:3046   */\n      dup2\n        /* \"#utility.yul\":3023:3047   */\n      tag_131\n      jump\t// in\n    tag_130:\n        /* \"#utility.yul\":3018:3021   */\n      dup3\n        /* \"#utility.yul\":3011:3048   */\n      mstore\n        /* \"#utility.yul\":2936:3054   */\n      pop\n      pop\n      jump\t// out\n        /* \"#utility.yul\":3060:3439   */\n    tag_42:\n        /* \"#utility.yul\":3244:3247   */\n      0x00\n        /* \"#utility.yul\":3266:3413   */\n      tag_133\n        /* \"#utility.yul\":3409:3412   */\n      dup3\n        /* \"#utility.yul\":3266:3413   */\n      tag_122\n      jump\t// in\n    tag_133:\n        /* \"#utility.yul\":3259:3413   */\n      swap2\n      pop\n        /* \"#utility.yul\":3430:3433   */\n      dup2\n        /* \"#utility.yul\":3423:3433   */\n      swap1\n      pop\n        /* \"#utility.yul\":3060:3439   */\n      swap2\n      swap1\n      pop\n      jump\t// out\n        /* \"#utility.yul\":3445:3699   */\n    tag_26:\n        /* \"#utility.yul\":3554:3558   */\n      0x00\n        /* \"#utility.yul\":3592:3594   */\n      0x20\n        /* \"#utility.yul\":3581:3590   */\n      dup3\n        /* \"#utility.yul\":3577:3595   */\n      add\n        /* \"#utility.yul\":3569:3595   */\n      swap1\n      pop\n        /* \"#utility.yul\":3605:3692   */\n      tag_135\n        /* \"#utility.yul\":3689:3690   */\n      0x00\n        /* \"#utility.yul\":3678:3687   */\n      dup4\n        /* \"#utility.yul\":3674:3691   */\n      add\n        /* \"#utility.yul\":3665:3671   */\n      dup5\n        /* \"#utility.yul\":3605:3692   */\n      tag_94\n      jump\t// in\n    tag_135:\n        /* \"#utility.yul\":3445:3699   */\n      swap3\n      swap2\n      pop\n      pop\n      jump\t// out\n        /* \"#utility.yul\":3705:4147   */\n    tag_67:\n        /* \"#utility.yul\":3854:3858   */\n      0x00\n        /* \"#utility.yul\":3892:3894   */\n      0x60\n        /* \"#utility.yul\":3881:3890   */\n      dup3\n        /* \"#utility.yul\":3877:3895   */\n      add\n        /* \"#utility.yul\":3869:3895   */\n      swap1\n      pop\n        /* \"#utility.yul\":3905:3976   */\n      tag_137\n        /* \"#utility.yul\":3973:3974   */\n      0x00\n        /* \"#utility.yul\":3962:3971   */\n      dup4\n        /* \"#utility.yul\":3958:3975   */\n      add\n        /* \"#utility.yul\":3949:3955   */\n      dup7\n        /* \"#utility.yul\":3905:3976   */\n      tag_98\n      jump\t// in\n    tag_137:\n        /* \"#utility.yul\":3986:4058   */\n      tag_138\n        /* \"#utility.yul\":4054:4056   */\n      0x20\n        /* \"#utility.yul\":4043:4052   */\n      dup4\n        /* \"#utility.yul\":4039:4057   */\n      add\n        /* \"#utility.yul\":4030:4036   */\n      dup6\n        /* \"#utility.yul\":3986:4058   */\n      tag_98\n      jump\t// in\n    tag_138:\n        /* \"#utility.yul\":4068:4140   */\n      tag_139\n        /* \"#utility.yul\":4136:4138   */\n      0x40\n        /* \"#utility.yul\":4125:4134   */\n      dup4\n        /* \"#utility.yul\":4121:4139   */\n      add\n        /* \"#utility.yul\":4112:4118   */\n      dup5\n        /* \"#utility.yul\":4068:4140   */\n      tag_128\n      jump\t// in\n    tag_139:\n        /* \"#utility.yul\":3705:4147   */\n      swap5\n      swap4\n      pop\n      pop\n      pop\n      pop\n      jump\t// out\n        /* \"#utility.yul\":4153:4401   */\n    tag_14:\n        /* \"#utility.yul\":4259:4263   */\n      0x00\n        /* \"#utility.yul\":4297:4299   */\n      0x20\n        /* \"#utility.yul\":4286:4295   */\n      dup3\n        /* \"#utility.yul\":4282:4300   */\n      add\n        /* \"#utility.yul\":4274:4300   */\n      swap1\n      pop\n        /* \"#utility.yul\":4310:4394   */\n      tag_141\n        /* \"#utility.yul\":4391:4392   */\n      0x00\n        /* \"#utility.yul\":4380:4389   */\n      dup4\n        /* \"#utility.yul\":4376:4393   */\n      add\n        /* \"#utility.yul\":4367:4373   */\n      dup5\n        /* \"#utility.yul\":4310:4394   */\n      tag_102\n      jump\t// in\n    tag_141:\n        /* \"#utility.yul\":4153:4401   */\n      swap3\n      swap2\n      pop\n      pop\n      jump\t// out\n        /* \"#utility.yul\":4407:4826   */\n    tag_58:\n        /* \"#utility.yul\":4573:4577   */\n      0x00\n        /* \"#utility.yul\":4611:4613   */\n      0x20\n        /* \"#utility.yul\":4600:4609   */\n      dup3\n        /* \"#utility.yul\":4596:4614   */\n      add\n        /* \"#utility.yul\":4588:4614   */\n      swap1\n      pop\n        /* \"#utility.yul\":4660:4669   */\n      dup2\n        /* \"#utility.yul\":4654:4658   */\n      dup2\n        /* \"#utility.yul\":4650:4670   */\n      sub\n        /* \"#utility.yul\":4646:4647   */\n      0x00\n        /* \"#utility.yul\":4635:4644   */\n      dup4\n        /* \"#utility.yul\":4631:4648   */\n      add\n        /* \"#utility.yul\":4624:4671   */\n      mstore\n        /* \"#utility.yul\":4688:4819   */\n      tag_143\n        /* \"#utility.yul\":4814:4818   */\n      dup2\n        /* \"#utility.yul\":4688:4819   */\n      tag_106\n      jump\t// in\n    tag_143:\n        /* \"#utility.yul\":4680:4819   */\n      swap1\n      pop\n        /* \"#utility.yul\":4407:4826   */\n      swap2\n      swap1\n      pop\n      jump\t// out\n        /* \"#utility.yul\":4832:5251   */\n    tag_48:\n        /* \"#utility.yul\":4998:5002   */\n      0x00\n        /* \"#utility.yul\":5036:5038   */\n      0x20\n        /* \"#utility.yul\":5025:5034   */\n      dup3\n        /* \"#utility.yul\":5021:5039   */\n      add\n        /* \"#utility.yul\":5013:5039   */\n      swap1\n      pop\n        /* \"#utility.yul\":5085:5094   */\n      dup2\n        /* \"#utility.yul\":5079:5083   */\n      dup2\n        /* \"#utility.yul\":5075:5095   */\n      sub\n        /* \"#utility.yul\":5071:5072   */\n      0x00\n        /* \"#utility.yul\":5060:5069   */\n      dup4\n        /* \"#utility.yul\":5056:5073   */\n      add\n        /* \"#utility.yul\":5049:5096   */\n      mstore\n        /* \"#utility.yul\":5113:5244   */\n      tag_145\n        /* \"#utility.yul\":5239:5243   */\n      dup2\n        /* \"#utility.yul\":5113:5244   */\n      tag_112\n      jump\t// in\n    tag_145:\n        /* \"#utility.yul\":5105:5244   */\n      swap1\n      pop\n        /* \"#utility.yul\":4832:5251   */\n      swap2\n      swap1\n      pop\n      jump\t// out\n        /* \"#utility.yul\":5257:5676   */\n    tag_75:\n        /* \"#utility.yul\":5423:5427   */\n      0x00\n        /* \"#utility.yul\":5461:5463   */\n      0x20\n        /* \"#utility.yul\":5450:5459   */\n      dup3\n        /* \"#utility.yul\":5446:5464   */\n      add\n        /* \"#utility.yul\":5438:5464   */\n      swap1\n      pop\n        /* \"#utility.yul\":5510:5519   */\n      dup2\n        /* \"#utility.yul\":5504:5508   */\n      dup2\n        /* \"#utility.yul\":5500:5520   */\n      sub\n        /* \"#utility.yul\":5496:5497   */\n      0x00\n        /* \"#utility.yul\":5485:5494   */\n      dup4\n        /* \"#utility.yul\":5481:5498   */\n      add\n        /* \"#utility.yul\":5474:5521   */\n      mstore\n        /* \"#utility.yul\":5538:5669   */\n      tag_147\n        /* \"#utility.yul\":5664:5668   */\n      dup2\n        /* \"#utility.yul\":5538:5669   */\n      tag_117\n      jump\t// in\n    tag_147:\n        /* \"#utility.yul\":5530:5669   */\n      swap1\n      pop\n        /* \"#utility.yul\":5257:5676   */\n      swap2\n      swap1\n      pop\n      jump\t// out\n        /* \"#utility.yul\":5682:5904   */\n    tag_35:\n        /* \"#utility.yul\":5775:5779   */\n      0x00\n        /* \"#utility.yul\":5813:5815   */\n      0x20\n        /* \"#utility.yul\":5802:5811   */\n      dup3\n        /* \"#utility.yul\":5798:5816   */\n      add\n        /* \"#utility.yul\":5790:5816   */\n      swap1\n      pop\n        /* \"#utility.yul\":5826:5897   */\n      tag_149\n        /* \"#utility.yul\":5894:5895   */\n      0x00\n        /* \"#utility.yul\":5883:5892   */\n      dup4\n        /* \"#utility.yul\":5879:5896   */\n      add\n        /* \"#utility.yul\":5870:5876   */\n      dup5\n        /* \"#utility.yul\":5826:5897   */\n      tag_128\n      jump\t// in\n    tag_149:\n        /* \"#utility.yul\":5682:5904   */\n      swap3\n      swap2\n      pop\n      pop\n      jump\t// out\n        /* \"#utility.yul\":5991:6138   */\n    tag_125:\n        /* \"#utility.yul\":6092:6103   */\n      0x00\n        /* \"#utility.yul\":6129:6132   */\n      dup2\n        /* \"#utility.yul\":6114:6132   */\n      swap1\n      pop\n        /* \"#utility.yul\":5991:6138   */\n      swap3\n      swap2\n      pop\n      pop\n      jump\t// out\n        /* \"#utility.yul\":6144:6313   */\n    tag_109:\n        /* \"#utility.yul\":6228:6239   */\n      0x00\n        /* \"#utility.yul\":6262:6268   */\n      dup3\n        /* \"#utility.yul\":6257:6260   */\n      dup3\n        /* \"#utility.yul\":6250:6269   */\n      mstore\n        /* \"#utility.yul\":6302:6306   */\n      0x20\n        /* \"#utility.yul\":6297:6300   */\n      dup3\n        /* \"#utility.yul\":6293:6307   */\n      add\n        /* \"#utility.yul\":6278:6307   */\n      swap1\n      pop\n        /* \"#utility.yul\":6144:6313   */\n      swap3\n      swap2\n      pop\n      pop\n      jump\t// out\n        /* \"#utility.yul\":6319:6504   */\n    tag_51:\n        /* \"#utility.yul\":6359:6360   */\n      0x00\n        /* \"#utility.yul\":6376:6396   */\n      tag_155\n        /* \"#utility.yul\":6394:6395   */\n      dup3\n        /* \"#utility.yul\":6376:6396   */\n      tag_131\n      jump\t// in\n    tag_155:\n        /* \"#utility.yul\":6371:6396   */\n      swap2\n      pop\n        /* \"#utility.yul\":6410:6430   */\n      tag_156\n        /* \"#utility.yul\":6428:6429   */\n      dup4\n        /* \"#utility.yul\":6410:6430   */\n      tag_131\n      jump\t// in\n    tag_156:\n        /* \"#utility.yul\":6405:6430   */\n      swap3\n      pop\n        /* \"#utility.yul\":6449:6450   */\n      dup3\n        /* \"#utility.yul\":6439:6474   */\n      tag_157\n      jumpi\n        /* \"#utility.yul\":6454:6472   */\n      tag_158\n      tag_159\n      jump\t// in\n    tag_158:\n        /* \"#utility.yul\":6439:6474   */\n    tag_157:\n        /* \"#utility.yul\":6496:6497   */\n      dup3\n        /* \"#utility.yul\":6493:6494   */\n      dup3\n        /* \"#utility.yul\":6489:6498   */\n      div\n        /* \"#utility.yul\":6484:6498   */\n      swap1\n      pop\n        /* \"#utility.yul\":6319:6504   */\n      swap3\n      swap2\n      pop\n      pop\n      jump\t// out\n        /* \"#utility.yul\":6510:6606   */\n    tag_101:\n        /* \"#utility.yul\":6547:6554   */\n      0x00\n        /* \"#utility.yul\":6576:6600   */\n      tag_161\n        /* \"#utility.yul\":6594:6599   */\n      dup3\n        /* \"#utility.yul\":6576:6600   */\n      tag_162\n      jump\t// in\n    tag_161:\n        /* \"#utility.yul\":6565:6600   */\n      swap1\n      pop\n        /* \"#utility.yul\":6510:6606   */\n      swap2\n      swap1\n      pop\n      jump\t// out\n        /* \"#utility.yul\":6612:6716   */\n    tag_97:\n        /* \"#utility.yul\":6657:6664   */\n      0x00\n        /* \"#utility.yul\":6686:6710   */\n      tag_164\n        /* \"#utility.yul\":6704:6709   */\n      dup3\n        /* \"#utility.yul\":6686:6710   */\n      tag_162\n      jump\t// in\n    tag_164:\n        /* \"#utility.yul\":6675:6710   */\n      swap1\n      pop\n        /* \"#utility.yul\":6612:6716   */\n      swap2\n      swap1\n      pop\n      jump\t// out\n        /* \"#utility.yul\":6722:6812   */\n    tag_165:\n        /* \"#utility.yul\":6756:6763   */\n      0x00\n        /* \"#utility.yul\":6799:6804   */\n      dup2\n        /* \"#utility.yul\":6792:6805   */\n      iszero\n        /* \"#utility.yul\":6785:6806   */\n      iszero\n        /* \"#utility.yul\":6774:6806   */\n      swap1\n      pop\n        /* \"#utility.yul\":6722:6812   */\n      swap2\n      swap1\n      pop\n      jump\t// out\n        /* \"#utility.yul\":6818:6944   */\n    tag_162:\n        /* \"#utility.yul\":6855:6862   */\n      0x00\n        /* \"#utility.yul\":6895:6937   */\n      0xffffffffffffffffffffffffffffffffffffffff\n        /* \"#utility.yul\":6888:6893   */\n      dup3\n        /* \"#utility.yul\":6884:6938   */\n      and\n        /* \"#utility.yul\":6873:6938   */\n      swap1\n      pop\n        /* \"#utility.yul\":6818:6944   */\n      swap2\n      swap1\n      pop\n      jump\t// out\n        /* \"#utility.yul\":6950:7027   */\n    tag_131:\n        /* \"#utility.yul\":6987:6994   */\n      0x00\n        /* \"#utility.yul\":7016:7021   */\n      dup2\n        /* \"#utility.yul\":7005:7021   */\n      swap1\n      pop\n        /* \"#utility.yul\":6950:7027   */\n      swap2\n      swap1\n      pop\n      jump\t// out\n        /* \"#utility.yul\":7033:7172   */\n    tag_105:\n        /* \"#utility.yul\":7096:7105   */\n      0x00\n        /* \"#utility.yul\":7129:7166   */\n      tag_170\n        /* \"#utility.yul\":7160:7165   */\n      dup3\n        /* \"#utility.yul\":7129:7166   */\n      tag_171\n      jump\t// in\n    tag_170:\n        /* \"#utility.yul\":7116:7166   */\n      swap1\n      pop\n        /* \"#utility.yul\":7033:7172   */\n      swap2\n      swap1\n      pop\n      jump\t// out\n        /* \"#utility.yul\":7178:7304   */\n    tag_171:\n        /* \"#utility.yul\":7228:7237   */\n      0x00\n        /* \"#utility.yul\":7261:7298   */\n      tag_173\n        /* \"#utility.yul\":7292:7297   */\n      dup3\n        /* \"#utility.yul\":7261:7298   */\n      tag_174\n      jump\t// in\n    tag_173:\n        /* \"#utility.yul\":7248:7298   */\n      swap1\n      pop\n        /* \"#utility.yul\":7178:7304   */\n      swap2\n      swap1\n      pop\n      jump\t// out\n        /* \"#utility.yul\":7310:7423   */\n    tag_174:\n        /* \"#utility.yul\":7360:7369   */\n      0x00\n        /* \"#utility.yul\":7393:7417   */\n      tag_176\n        /* \"#utility.yul\":7411:7416   */\n      dup3\n        /* \"#utility.yul\":7393:7417   */\n      tag_162\n      jump\t// in\n    tag_176:\n        /* \"#utility.yul\":7380:7417   */\n      swap1\n      pop\n        /* \"#utility.yul\":7310:7423   */\n      swap2\n      swap1\n      pop\n      jump\t// out\n        /* \"#utility.yul\":7615:7795   */\n    tag_159:\n        /* \"#utility.yul\":7663:7740   */\n      0x4e487b7100000000000000000000000000000000000000000000000000000000\n        /* \"#utility.yul\":7660:7661   */\n      0x00\n        /* \"#utility.yul\":7653:7741   */\n      mstore\n        /* \"#utility.yul\":7760:7764   */\n      0x12\n        /* \"#utility.yul\":7757:7758   */\n      0x04\n        /* \"#utility.yul\":7750:7765   */\n      mstore\n        /* \"#utility.yul\":7784:7788   */\n      0x24\n        /* \"#utility.yul\":7781:7782   */\n      0x00\n        /* \"#utility.yul\":7774:7789   */\n      revert\n        /* \"#utility.yul\":7924:8041   */\n    tag_88:\n        /* \"#utility.yul\":8033:8034   */\n      0x00\n        /* \"#utility.yul\":8030:8031   */\n      dup1\n        /* \"#utility.yul\":8023:8035   */\n      revert\n        /* \"#utility.yul\":8047:8217   */\n    tag_111:\n        /* \"#utility.yul\":8187:8209   */\n      0x4661696c656420746f2073656e64206d6f6e6579000000000000000000000000\n        /* \"#utility.yul\":8183:8184   */\n      0x00\n        /* \"#utility.yul\":8175:8181   */\n      dup3\n        /* \"#utility.yul\":8171:8185   */\n      add\n        /* \"#utility.yul\":8164:8210   */\n      mstore\n        /* \"#utility.yul\":8047:8217   */\n      pop\n      jump\t// out\n        /* \"#utility.yul\":8223:8393   */\n    tag_116:\n        /* \"#utility.yul\":8363:8385   */\n      0x4661696c656420746f2073656e64204574686572000000000000000000000000\n        /* \"#utility.yul\":8359:8360   */\n      0x00\n        /* \"#utility.yul\":8351:8357   */\n      dup3\n        /* \"#utility.yul\":8347:8361   */\n      add\n        /* \"#utility.yul\":8340:8386   */\n      mstore\n        /* \"#utility.yul\":8223:8393   */\n      pop\n      jump\t// out\n        /* \"#utility.yul\":8399:8570   */\n    tag_121:\n        /* \"#utility.yul\":8539:8562   */\n      0x546f6b656e207472616e73666572206661696c65640000000000000000000000\n        /* \"#utility.yul\":8535:8536   */\n      0x00\n        /* \"#utility.yul\":8527:8533   */\n      dup3\n        /* \"#utility.yul\":8523:8537   */\n      add\n        /* \"#utility.yul\":8516:8563   */\n      mstore\n        /* \"#utility.yul\":8399:8570   */\n      pop\n      jump\t// out\n        /* \"#utility.yul\":8576:8690   */\n    tag_127:\n      pop\n      jump\t// out\n        /* \"#utility.yul\":8696:8812   */\n    tag_80:\n        /* \"#utility.yul\":8766:8787   */\n      tag_188\n        /* \"#utility.yul\":8781:8786   */\n      dup2\n        /* \"#utility.yul\":8766:8787   */\n      tag_165\n      jump\t// in\n    tag_188:\n        /* \"#utility.yul\":8759:8764   */\n      dup2\n        /* \"#utility.yul\":8756:8788   */\n      eq\n        /* \"#utility.yul\":8746:8806   */\n      tag_189\n      jumpi\n        /* \"#utility.yul\":8802:8803   */\n      0x00\n        /* \"#utility.yul\":8799:8800   */\n      dup1\n        /* \"#utility.yul\":8792:8804   */\n      revert\n        /* \"#utility.yul\":8746:8806   */\n    tag_189:\n        /* \"#utility.yul\":8696:8812   */\n      pop\n      jump\t// out\n        /* \"#utility.yul\":8818:8940   */\n    tag_84:\n        /* \"#utility.yul\":8891:8915   */\n      tag_191\n        /* \"#utility.yul\":8909:8914   */\n      dup2\n        /* \"#utility.yul\":8891:8915   */\n      tag_131\n      jump\t// in\n    tag_191:\n        /* \"#utility.yul\":8884:8889   */\n      dup2\n        /* \"#utility.yul\":8881:8916   */\n      eq\n        /* \"#utility.yul\":8871:8934   */\n      tag_192\n      jumpi\n        /* \"#utility.yul\":8930:8931   */\n      0x00\n        /* \"#utility.yul\":8927:8928   */\n      dup1\n        /* \"#utility.yul\":8920:8932   */\n      revert\n        /* \"#utility.yul\":8871:8934   */\n    tag_192:\n        /* \"#utility.yul\":8818:8940   */\n      pop\n      jump\t// out\n\n    auxdata: 0xa264697066735822122074eb32b0f16a6a53a7854f034cc09a61079e70cd4a50a426d0ccedaa20fa793a64736f6c63430008070033\n}\n",
				"bytecode": {
					"linkReferences": {},
					"object": "608060405234801561001057600080fd5b50336000806101000a81548173ffffffffffffffffffffffffffffffffffffffff021916908373ffffffffffffffffffffffffffffffffffffffff16021790555062030d4060018190555073d9145cce52d386f254917e481eb44e9943f39138600360006101000a81548173ffffffffffffffffffffffffffffffffffffffff021916908373ffffffffffffffffffffffffffffffffffffffff16021790555061092e806100bf6000396000f3fe6080604052600436106100705760003560e01c80638da5cb5b1161004e5780638da5cb5b146100d3578063ade87ecc146100fe578063d63cf1da14610127578063ebc4197c1461015257610070565b806323b160ac146100755780633cb40e16146100a057806380c31426146100b7575b600080fd5b34801561008157600080fd5b5061008a61017d565b60405161009791906106a5565b60405180910390f35b3480156100ac57600080fd5b506100b56101a3565b005b6100d160048036038101906100cc9190610549565b610279565b005b3480156100df57600080fd5b506100e861035d565b6040516100f59190610653565b60405180910390f35b34801561010a57600080fd5b5061012560048036038101906101209190610549565b610381565b005b34801561013357600080fd5b5061013c61040c565b6040516101499190610720565b60405180910390f35b34801561015e57600080fd5b50610167610412565b6040516101749190610720565b60405180910390f35b600360009054906101000a900473ffffffffffffffffffffffffffffffffffffffff1681565b600047905060008060009054906101000a900473ffffffffffffffffffffffffffffffffffffffff1673ffffffffffffffffffffffffffffffffffffffff16826040516101ef9061063e565b60006040518083038185875af1925050503d806000811461022c576040519150601f19603f3d011682016040523d82523d6000602084013e610231565b606091505b5050905080610275576040517f08c379a000000000000000000000000000000000000000000000000000000000815260040161026c906106e0565b60405180910390fd5b5050565b6000600154826102899190610757565b905060008060009054906101000a900473ffffffffffffffffffffffffffffffffffffffff1673ffffffffffffffffffffffffffffffffffffffff16826040516102d29061063e565b60006040518083038185875af1925050503d806000811461030f576040519150601f19603f3d011682016040523d82523d6000602084013e610314565b606091505b5050905080610358576040517f08c379a000000000000000000000000000000000000000000000000000000000815260040161034f906106c0565b60405180910390fd5b505050565b60008054906101000a900473ffffffffffffffffffffffffffffffffffffffff1681565b6103af600360009054906101000a900473ffffffffffffffffffffffffffffffffffffffff16333084610418565b6000600154826103bf9190610757565b90503373ffffffffffffffffffffffffffffffffffffffff166108fc829081150290604051600060405180830381858888f19350505050158015610407573d6000803e3d6000fd5b505050565b60025481565b60015481565b60008473ffffffffffffffffffffffffffffffffffffffff166323b872dd8585856040518463ffffffff1660e01b81526004016104579392919061066e565b602060405180830381600087803b15801561047157600080fd5b505af1158015610485573d6000803e3d6000fd5b505050506040513d601f19601f820116820180604052508101906104a9919061051c565b9050806104eb576040517f08c379a00000000000000000000000000000000000000000000000000000000081526004016104e290610700565b60405180910390fd5b5050505050565b600081519050610501816108ca565b92915050565b600081359050610516816108e1565b92915050565b60006020828403121561053257610531610847565b5b6000610540848285016104f2565b91505092915050565b60006020828403121561055f5761055e610847565b5b600061056d84828501610507565b91505092915050565b61057f8161079a565b82525050565b61058e81610788565b82525050565b61059d816107e2565b82525050565b60006105b0601483610746565b91506105bb8261084c565b602082019050919050565b60006105d3601483610746565b91506105de82610875565b602082019050919050565b60006105f6601583610746565b91506106018261089e565b602082019050919050565b600061061960008361073b565b9150610624826108c7565b600082019050919050565b610638816107d8565b82525050565b60006106498261060c565b9150819050919050565b60006020820190506106686000830184610576565b92915050565b60006060820190506106836000830186610585565b6106906020830185610585565b61069d604083018461062f565b949350505050565b60006020820190506106ba6000830184610594565b92915050565b600060208201905081810360008301526106d9816105a3565b9050919050565b600060208201905081810360008301526106f9816105c6565b9050919050565b60006020820190508181036000830152610719816105e9565b9050919050565b6000602082019050610735600083018461062f565b92915050565b600081905092915050565b600082825260208201905092915050565b6000610762826107d8565b915061076d836107d8565b92508261077d5761077c610818565b5b828204905092915050565b6000610793826107b8565b9050919050565b60006107a5826107b8565b9050919050565b60008115159050919050565b600073ffffffffffffffffffffffffffffffffffffffff82169050919050565b6000819050919050565b60006107ed826107f4565b9050919050565b60006107ff82610806565b9050919050565b6000610811826107b8565b9050919050565b7f4e487b7100000000000000000000000000000000000000000000000000000000600052601260045260246000fd5b600080fd5b7f4661696c656420746f2073656e64206d6f6e6579000000000000000000000000600082015250565b7f4661696c656420746f2073656e64204574686572000000000000000000000000600082015250565b7f546f6b656e207472616e73666572206661696c65640000000000000000000000600082015250565b50565b6108d3816107ac565b81146108de57600080fd5b50565b6108ea816107d8565b81146108f557600080fd5b5056fea264697066735822122074eb32b0f16a6a53a7854f034cc09a61079e70cd4a50a426d0ccedaa20fa793a64736f6c63430008070033",
					"opcodes": "PUSH1 0x80 PUSH1 0x40 MSTORE CALLVALUE DUP1 ISZERO PUSH2 0x10 JUMPI PUSH1 0x0 DUP1 REVERT JUMPDEST POP CALLER PUSH1 0x0 DUP1 PUSH2 0x100 EXP DUP2 SLOAD DUP2 PUSH20 0xFFFFFFFFFFFFFFFFFFFFFFFFFFFFFFFFFFFFFFFF MUL NOT AND SWAP1 DUP4 PUSH20 0xFFFFFFFFFFFFFFFFFFFFFFFFFFFFFFFFFFFFFFFF AND MUL OR SWAP1 SSTORE POP PUSH3 0x30D40 PUSH1 0x1 DUP2 SWAP1 SSTORE POP PUSH20 0xD9145CCE52D386F254917E481EB44E9943F39138 PUSH1 0x3 PUSH1 0x0 PUSH2 0x100 EXP DUP2 SLOAD DUP2 PUSH20 0xFFFFFFFFFFFFFFFFFFFFFFFFFFFFFFFFFFFFFFFF MUL NOT AND SWAP1 DUP4 PUSH20 0xFFFFFFFFFFFFFFFFFFFFFFFFFFFFFFFFFFFFFFFF AND MUL OR SWAP1 SSTORE POP PUSH2 0x92E DUP1 PUSH2 0xBF PUSH1 0x0 CODECOPY PUSH1 0x0 RETURN INVALID PUSH1 0x80 PUSH1 0x40 MSTORE PUSH1 0x4 CALLDATASIZE LT PUSH2 0x70 JUMPI PUSH1 0x0 CALLDATALOAD PUSH1 0xE0 SHR DUP1 PUSH4 0x8DA5CB5B GT PUSH2 0x4E JUMPI DUP1 PUSH4 0x8DA5CB5B EQ PUSH2 0xD3 JUMPI DUP1 PUSH4 0xADE87ECC EQ PUSH2 0xFE JUMPI DUP1 PUSH4 0xD63CF1DA EQ PUSH2 0x127 JUMPI DUP1 PUSH4 0xEBC4197C EQ PUSH2 0x152 JUMPI PUSH2 0x70 JUMP JUMPDEST DUP1 PUSH4 0x23B160AC EQ PUSH2 0x75 JUMPI DUP1 PUSH4 0x3CB40E16 EQ PUSH2 0xA0 JUMPI DUP1 PUSH4 0x80C31426 EQ PUSH2 0xB7 JUMPI JUMPDEST PUSH1 0x0 DUP1 REVERT JUMPDEST CALLVALUE DUP1 ISZERO PUSH2 0x81 JUMPI PUSH1 0x0 DUP1 REVERT JUMPDEST POP PUSH2 0x8A PUSH2 0x17D JUMP JUMPDEST PUSH1 0x40 MLOAD PUSH2 0x97 SWAP2 SWAP1 PUSH2 0x6A5 JUMP JUMPDEST PUSH1 0x40 MLOAD DUP1 SWAP2 SUB SWAP1 RETURN JUMPDEST CALLVALUE DUP1 ISZERO PUSH2 0xAC JUMPI PUSH1 0x0 DUP1 REVERT JUMPDEST POP PUSH2 0xB5 PUSH2 0x1A3 JUMP JUMPDEST STOP JUMPDEST PUSH2 0xD1 PUSH1 0x4 DUP1 CALLDATASIZE SUB DUP2 ADD SWAP1 PUSH2 0xCC SWAP2 SWAP1 PUSH2 0x549 JUMP JUMPDEST PUSH2 0x279 JUMP JUMPDEST STOP JUMPDEST CALLVALUE DUP1 ISZERO PUSH2 0xDF JUMPI PUSH1 0x0 DUP1 REVERT JUMPDEST POP PUSH2 0xE8 PUSH2 0x35D JUMP JUMPDEST PUSH1 0x40 MLOAD PUSH2 0xF5 SWAP2 SWAP1 PUSH2 0x653 JUMP JUMPDEST PUSH1 0x40 MLOAD DUP1 SWAP2 SUB SWAP1 RETURN JUMPDEST CALLVALUE DUP1 ISZERO PUSH2 0x10A JUMPI PUSH1 0x0 DUP1 REVERT JUMPDEST POP PUSH2 0x125 PUSH1 0x4 DUP1 CALLDATASIZE SUB DUP2 ADD SWAP1 PUSH2 0x120 SWAP2 SWAP1 PUSH2 0x549 JUMP JUMPDEST PUSH2 0x381 JUMP JUMPDEST STOP JUMPDEST CALLVALUE DUP1 ISZERO PUSH2 0x133 JUMPI PUSH1 0x0 DUP1 REVERT JUMPDEST POP PUSH2 0x13C PUSH2 0x40C JUMP JUMPDEST PUSH1 0x40 MLOAD PUSH2 0x149 SWAP2 SWAP1 PUSH2 0x720 JUMP JUMPDEST PUSH1 0x40 MLOAD DUP1 SWAP2 SUB SWAP1 RETURN JUMPDEST CALLVALUE DUP1 ISZERO PUSH2 0x15E JUMPI PUSH1 0x0 DUP1 REVERT JUMPDEST POP PUSH2 0x167 PUSH2 0x412 JUMP JUMPDEST PUSH1 0x40 MLOAD PUSH2 0x174 SWAP2 SWAP1 PUSH2 0x720 JUMP JUMPDEST PUSH1 0x40 MLOAD DUP1 SWAP2 SUB SWAP1 RETURN JUMPDEST PUSH1 0x3 PUSH1 0x0 SWAP1 SLOAD SWAP1 PUSH2 0x100 EXP SWAP1 DIV PUSH20 0xFFFFFFFFFFFFFFFFFFFFFFFFFFFFFFFFFFFFFFFF AND DUP2 JUMP JUMPDEST PUSH1 0x0 SELFBALANCE SWAP1 POP PUSH1 0x0 DUP1 PUSH1 0x0 SWAP1 SLOAD SWAP1 PUSH2 0x100 EXP SWAP1 DIV PUSH20 0xFFFFFFFFFFFFFFFFFFFFFFFFFFFFFFFFFFFFFFFF AND PUSH20 0xFFFFFFFFFFFFFFFFFFFFFFFFFFFFFFFFFFFFFFFF AND DUP3 PUSH1 0x40 MLOAD PUSH2 0x1EF SWAP1 PUSH2 0x63E JUMP JUMPDEST PUSH1 0x0 PUSH1 0x40 MLOAD DUP1 DUP4 SUB DUP2 DUP6 DUP8 GAS CALL SWAP3 POP POP POP RETURNDATASIZE DUP1 PUSH1 0x0 DUP2 EQ PUSH2 0x22C JUMPI PUSH1 0x40 MLOAD SWAP2 POP PUSH1 0x1F NOT PUSH1 0x3F RETURNDATASIZE ADD AND DUP3 ADD PUSH1 0x40 MSTORE RETURNDATASIZE DUP3 MSTORE RETURNDATASIZE PUSH1 0x0 PUSH1 0x20 DUP5 ADD RETURNDATACOPY PUSH2 0x231 JUMP JUMPDEST PUSH1 0x60 SWAP2 POP JUMPDEST POP POP SWAP1 POP DUP1 PUSH2 0x275 JUMPI PUSH1 0x40 MLOAD PUSH32 0x8C379A000000000000000000000000000000000000000000000000000000000 DUP2 MSTORE PUSH1 0x4 ADD PUSH2 0x26C SWAP1 PUSH2 0x6E0 JUMP JUMPDEST PUSH1 0x40 MLOAD DUP1 SWAP2 SUB SWAP1 REVERT JUMPDEST POP POP JUMP JUMPDEST PUSH1 0x0 PUSH1 0x1 SLOAD DUP3 PUSH2 0x289 SWAP2 SWAP1 PUSH2 0x757 JUMP JUMPDEST SWAP1 POP PUSH1 0x0 DUP1 PUSH1 0x0 SWAP1 SLOAD SWAP1 PUSH2 0x100 EXP SWAP1 DIV PUSH20 0xFFFFFFFFFFFFFFFFFFFFFFFFFFFFFFFFFFFFFFFF AND PUSH20 0xFFFFFFFFFFFFFFFFFFFFFFFFFFFFFFFFFFFFFFFF AND DUP3 PUSH1 0x40 MLOAD PUSH2 0x2D2 SWAP1 PUSH2 0x63E JUMP JUMPDEST PUSH1 0x0 PUSH1 0x40 MLOAD DUP1 DUP4 SUB DUP2 DUP6 DUP8 GAS CALL SWAP3 POP POP POP RETURNDATASIZE DUP1 PUSH1 0x0 DUP2 EQ PUSH2 0x30F JUMPI PUSH1 0x40 MLOAD SWAP2 POP PUSH1 0x1F NOT PUSH1 0x3F RETURNDATASIZE ADD AND DUP3 ADD PUSH1 0x40 MSTORE RETURNDATASIZE DUP3 MSTORE RETURNDATASIZE PUSH1 0x0 PUSH1 0x20 DUP5 ADD RETURNDATACOPY PUSH2 0x314 JUMP JUMPDEST PUSH1 0x60 SWAP2 POP JUMPDEST POP POP SWAP1 POP DUP1 PUSH2 0x358 JUMPI PUSH1 0x40 MLOAD PUSH32 0x8C379A000000000000000000000000000000000000000000000000000000000 DUP2 MSTORE PUSH1 0x4 ADD PUSH2 0x34F SWAP1 PUSH2 0x6C0 JUMP JUMPDEST PUSH1 0x40 MLOAD DUP1 SWAP2 SUB SWAP1 REVERT JUMPDEST POP POP POP JUMP JUMPDEST PUSH1 0x0 DUP1 SLOAD SWAP1 PUSH2 0x100 EXP SWAP1 DIV PUSH20 0xFFFFFFFFFFFFFFFFFFFFFFFFFFFFFFFFFFFFFFFF AND DUP2 JUMP JUMPDEST PUSH2 0x3AF PUSH1 0x3 PUSH1 0x0 SWAP1 SLOAD SWAP1 PUSH2 0x100 EXP SWAP1 DIV PUSH20 0xFFFFFFFFFFFFFFFFFFFFFFFFFFFFFFFFFFFFFFFF AND CALLER ADDRESS DUP5 PUSH2 0x418 JUMP JUMPDEST PUSH1 0x0 PUSH1 0x1 SLOAD DUP3 PUSH2 0x3BF SWAP2 SWAP1 PUSH2 0x757 JUMP JUMPDEST SWAP1 POP CALLER PUSH20 0xFFFFFFFFFFFFFFFFFFFFFFFFFFFFFFFFFFFFFFFF AND PUSH2 0x8FC DUP3 SWAP1 DUP2 ISZERO MUL SWAP1 PUSH1 0x40 MLOAD PUSH1 0x0 PUSH1 0x40 MLOAD DUP1 DUP4 SUB DUP2 DUP6 DUP9 DUP9 CALL SWAP4 POP POP POP POP ISZERO DUP1 ISZERO PUSH2 0x407 JUMPI RETURNDATASIZE PUSH1 0x0 DUP1 RETURNDATACOPY RETURNDATASIZE PUSH1 0x0 REVERT JUMPDEST POP POP POP JUMP JUMPDEST PUSH1 0x2 SLOAD DUP2 JUMP JUMPDEST PUSH1 0x1 SLOAD DUP2 JUMP JUMPDEST PUSH1 0x0 DUP5 PUSH20 0xFFFFFFFFFFFFFFFFFFFFFFFFFFFFFFFFFFFFFFFF AND PUSH4 0x23B872DD DUP6 DUP6 DUP6 PUSH1 0x40 MLOAD DUP5 PUSH4 0xFFFFFFFF AND PUSH1 0xE0 SHL DUP2 MSTORE PUSH1 0x4 ADD PUSH2 0x457 SWAP4 SWAP3 SWAP2 SWAP1 PUSH2 0x66E JUMP JUMPDEST PUSH1 0x20 PUSH1 0x40 MLOAD DUP1 DUP4 SUB DUP2 PUSH1 0x0 DUP8 DUP1 EXTCODESIZE ISZERO DUP1 ISZERO PUSH2 0x471 JUMPI PUSH1 0x0 DUP1 REVERT JUMPDEST POP GAS CALL ISZERO DUP1 ISZERO PUSH2 0x485 JUMPI RETURNDATASIZE PUSH1 0x0 DUP1 RETURNDATACOPY RETURNDATASIZE PUSH1 0x0 REVERT JUMPDEST POP POP POP POP PUSH1 0x40 MLOAD RETURNDATASIZE PUSH1 0x1F NOT PUSH1 0x1F DUP3 ADD AND DUP3 ADD DUP1 PUSH1 0x40 MSTORE POP DUP2 ADD SWAP1 PUSH2 0x4A9 SWAP2 SWAP1 PUSH2 0x51C JUMP JUMPDEST SWAP1 POP DUP1 PUSH2 0x4EB JUMPI PUSH1 0x40 MLOAD PUSH32 0x8C379A000000000000000000000000000000000000000000000000000000000 DUP2 MSTORE PUSH1 0x4 ADD PUSH2 0x4E2 SWAP1 PUSH2 0x700 JUMP JUMPDEST PUSH1 0x40 MLOAD DUP1 SWAP2 SUB SWAP1 REVERT JUMPDEST POP POP POP POP POP JUMP JUMPDEST PUSH1 0x0 DUP2 MLOAD SWAP1 POP PUSH2 0x501 DUP2 PUSH2 0x8CA JUMP JUMPDEST SWAP3 SWAP2 POP POP JUMP JUMPDEST PUSH1 0x0 DUP2 CALLDATALOAD SWAP1 POP PUSH2 0x516 DUP2 PUSH2 0x8E1 JUMP JUMPDEST SWAP3 SWAP2 POP POP JUMP JUMPDEST PUSH1 0x0 PUSH1 0x20 DUP3 DUP5 SUB SLT ISZERO PUSH2 0x532 JUMPI PUSH2 0x531 PUSH2 0x847 JUMP JUMPDEST JUMPDEST PUSH1 0x0 PUSH2 0x540 DUP5 DUP3 DUP6 ADD PUSH2 0x4F2 JUMP JUMPDEST SWAP2 POP POP SWAP3 SWAP2 POP POP JUMP JUMPDEST PUSH1 0x0 PUSH1 0x20 DUP3 DUP5 SUB SLT ISZERO PUSH2 0x55F JUMPI PUSH2 0x55E PUSH2 0x847 JUMP JUMPDEST JUMPDEST PUSH1 0x0 PUSH2 0x56D DUP5 DUP3 DUP6 ADD PUSH2 0x507 JUMP JUMPDEST SWAP2 POP POP SWAP3 SWAP2 POP POP JUMP JUMPDEST PUSH2 0x57F DUP2 PUSH2 0x79A JUMP JUMPDEST DUP3 MSTORE POP POP JUMP JUMPDEST PUSH2 0x58E DUP2 PUSH2 0x788 JUMP JUMPDEST DUP3 MSTORE POP POP JUMP JUMPDEST PUSH2 0x59D DUP2 PUSH2 0x7E2 JUMP JUMPDEST DUP3 MSTORE POP POP JUMP JUMPDEST PUSH1 0x0 PUSH2 0x5B0 PUSH1 0x14 DUP4 PUSH2 0x746 JUMP JUMPDEST SWAP2 POP PUSH2 0x5BB DUP3 PUSH2 0x84C JUMP JUMPDEST PUSH1 0x20 DUP3 ADD SWAP1 POP SWAP2 SWAP1 POP JUMP JUMPDEST PUSH1 0x0 PUSH2 0x5D3 PUSH1 0x14 DUP4 PUSH2 0x746 JUMP JUMPDEST SWAP2 POP PUSH2 0x5DE DUP3 PUSH2 0x875 JUMP JUMPDEST PUSH1 0x20 DUP3 ADD SWAP1 POP SWAP2 SWAP1 POP JUMP JUMPDEST PUSH1 0x0 PUSH2 0x5F6 PUSH1 0x15 DUP4 PUSH2 0x746 JUMP JUMPDEST SWAP2 POP PUSH2 0x601 DUP3 PUSH2 0x89E JUMP JUMPDEST PUSH1 0x20 DUP3 ADD SWAP1 POP SWAP2 SWAP1 POP JUMP JUMPDEST PUSH1 0x0 PUSH2 0x619 PUSH1 0x0 DUP4 PUSH2 0x73B JUMP JUMPDEST SWAP2 POP PUSH2 0x624 DUP3 PUSH2 0x8C7 JUMP JUMPDEST PUSH1 0x0 DUP3 ADD SWAP1 POP SWAP2 SWAP1 POP JUMP JUMPDEST PUSH2 0x638 DUP2 PUSH2 0x7D8 JUMP JUMPDEST DUP3 MSTORE POP POP JUMP JUMPDEST PUSH1 0x0 PUSH2 0x649 DUP3 PUSH2 0x60C JUMP JUMPDEST SWAP2 POP DUP2 SWAP1 POP SWAP2 SWAP1 POP JUMP JUMPDEST PUSH1 0x0 PUSH1 0x20 DUP3 ADD SWAP1 POP PUSH2 0x668 PUSH1 0x0 DUP4 ADD DUP5 PUSH2 0x576 JUMP JUMPDEST SWAP3 SWAP2 POP POP JUMP JUMPDEST PUSH1 0x0 PUSH1 0x60 DUP3 ADD SWAP1 POP PUSH2 0x683 PUSH1 0x0 DUP4 ADD DUP7 PUSH2 0x585 JUMP JUMPDEST PUSH2 0x690 PUSH1 0x20 DUP4 ADD DUP6 PUSH2 0x585 JUMP JUMPDEST PUSH2 0x69D PUSH1 0x40 DUP4 ADD DUP5 PUSH2 0x62F JUMP JUMPDEST SWAP5 SWAP4 POP POP POP POP JUMP JUMPDEST PUSH1 0x0 PUSH1 0x20 DUP3 ADD SWAP1 POP PUSH2 0x6BA PUSH1 0x0 DUP4 ADD DUP5 PUSH2 0x594 JUMP JUMPDEST SWAP3 SWAP2 POP POP JUMP JUMPDEST PUSH1 0x0 PUSH1 0x20 DUP3 ADD SWAP1 POP DUP2 DUP2 SUB PUSH1 0x0 DUP4 ADD MSTORE PUSH2 0x6D9 DUP2 PUSH2 0x5A3 JUMP JUMPDEST SWAP1 POP SWAP2 SWAP1 POP JUMP JUMPDEST PUSH1 0x0 PUSH1 0x20 DUP3 ADD SWAP1 POP DUP2 DUP2 SUB PUSH1 0x0 DUP4 ADD MSTORE PUSH2 0x6F9 DUP2 PUSH2 0x5C6 JUMP JUMPDEST SWAP1 POP SWAP2 SWAP1 POP JUMP JUMPDEST PUSH1 0x0 PUSH1 0x20 DUP3 ADD SWAP1 POP DUP2 DUP2 SUB PUSH1 0x0 DUP4 ADD MSTORE PUSH2 0x719 DUP2 PUSH2 0x5E9 JUMP JUMPDEST SWAP1 POP SWAP2 SWAP1 POP JUMP JUMPDEST PUSH1 0x0 PUSH1 0x20 DUP3 ADD SWAP1 POP PUSH2 0x735 PUSH1 0x0 DUP4 ADD DUP5 PUSH2 0x62F JUMP JUMPDEST SWAP3 SWAP2 POP POP JUMP JUMPDEST PUSH1 0x0 DUP2 SWAP1 POP SWAP3 SWAP2 POP POP JUMP JUMPDEST PUSH1 0x0 DUP3 DUP3 MSTORE PUSH1 0x20 DUP3 ADD SWAP1 POP SWAP3 SWAP2 POP POP JUMP JUMPDEST PUSH1 0x0 PUSH2 0x762 DUP3 PUSH2 0x7D8 JUMP JUMPDEST SWAP2 POP PUSH2 0x76D DUP4 PUSH2 0x7D8 JUMP JUMPDEST SWAP3 POP DUP3 PUSH2 0x77D JUMPI PUSH2 0x77C PUSH2 0x818 JUMP JUMPDEST JUMPDEST DUP3 DUP3 DIV SWAP1 POP SWAP3 SWAP2 POP POP JUMP JUMPDEST PUSH1 0x0 PUSH2 0x793 DUP3 PUSH2 0x7B8 JUMP JUMPDEST SWAP1 POP SWAP2 SWAP1 POP JUMP JUMPDEST PUSH1 0x0 PUSH2 0x7A5 DUP3 PUSH2 0x7B8 JUMP JUMPDEST SWAP1 POP SWAP2 SWAP1 POP JUMP JUMPDEST PUSH1 0x0 DUP2 ISZERO ISZERO SWAP1 POP SWAP2 SWAP1 POP JUMP JUMPDEST PUSH1 0x0 PUSH20 0xFFFFFFFFFFFFFFFFFFFFFFFFFFFFFFFFFFFFFFFF DUP3 AND SWAP1 POP SWAP2 SWAP1 POP JUMP JUMPDEST PUSH1 0x0 DUP2 SWAP1 POP SWAP2 SWAP1 POP JUMP JUMPDEST PUSH1 0x0 PUSH2 0x7ED DUP3 PUSH2 0x7F4 JUMP JUMPDEST SWAP1 POP SWAP2 SWAP1 POP JUMP JUMPDEST PUSH1 0x0 PUSH2 0x7FF DUP3 PUSH2 0x806 JUMP JUMPDEST SWAP1 POP SWAP2 SWAP1 POP JUMP JUMPDEST PUSH1 0x0 PUSH2 0x811 DUP3 PUSH2 0x7B8 JUMP JUMPDEST SWAP1 POP SWAP2 SWAP1 POP JUMP JUMPDEST PUSH32 0x4E487B7100000000000000000000000000000000000000000000000000000000 PUSH1 0x0 MSTORE PUSH1 0x12 PUSH1 0x4 MSTORE PUSH1 0x24 PUSH1 0x0 REVERT JUMPDEST PUSH1 0x0 DUP1 REVERT JUMPDEST PUSH32 0x4661696C656420746F2073656E64206D6F6E6579000000000000000000000000 PUSH1 0x0 DUP3 ADD MSTORE POP JUMP JUMPDEST PUSH32 0x4661696C656420746F2073656E64204574686572000000000000000000000000 PUSH1 0x0 DUP3 ADD MSTORE POP JUMP JUMPDEST PUSH32 0x546F6B656E207472616E73666572206661696C65640000000000000000000000 PUSH1 0x0 DUP3 ADD MSTORE POP JUMP JUMPDEST POP JUMP JUMPDEST PUSH2 0x8D3 DUP2 PUSH2 0x7AC JUMP JUMPDEST DUP2 EQ PUSH2 0x8DE JUMPI PUSH1 0x0 DUP1 REVERT JUMPDEST POP JUMP JUMPDEST PUSH2 0x8EA DUP2 PUSH2 0x7D8 JUMP JUMPDEST DUP2 EQ PUSH2 0x8F5 JUMPI PUSH1 0x0 DUP1 REVERT JUMPDEST POP JUMP INVALID LOG2 PUSH5 0x6970667358 0x22 SLT KECCAK256 PUSH21 0xEB32B0F16A6A53A7854F034CC09A61079E70CD4A50 LOG4 0x26 0xD0 0xCC 0xED 0xAA KECCAK256 STATICCALL PUSH26 0x3A64736F6C634300080700330000000000000000000000000000 "
				},
				"gasEstimates": {
					"creation": {
						"codeDepositCost": "470000",
						"executionCost": "71152",
						"totalCost": "541152"
					},
					"external": {
						"BnbToSafuu()": "2495",
						"buySafuu(uint256)": "infinite",
						"owner()": "2511",
						"safuu()": "2601",
						"sellSafuu(uint256)": "infinite",
						"taxFactor()": "2473",
						"withdrawToOwner()": "infinite"
					},
					"internal": {
						"_safeTransferFrom(contract IERC20,address,address,uint256)": "infinite"
					}
				},
				"methodIdentifiers": {
					"BnbToSafuu()": "ebc4197c",
					"buySafuu(uint256)": "80c31426",
					"owner()": "8da5cb5b",
					"safuu()": "23b160ac",
					"sellSafuu(uint256)": "ade87ecc",
					"taxFactor()": "d63cf1da",
					"withdrawToOwner()": "3cb40e16"
				}
			},
			"userdoc": {
				"kind": "user",
				"methods": {},
				"version": 1
			}
		}
	}
}