{
	"WandInstruments.sol": {
		"testSticks": {
			"abi": [
				{
					"inputs": [
						{
							"internalType": "address",
							"name": "scepterAddr",
							"type": "address"
						},
						{
							"internalType": "address",
							"name": "batonAddr",
							"type": "address"
						}
					],
					"stateMutability": "nonpayable",
					"type": "constructor"
				},
				{
					"inputs": [
						{
							"internalType": "uint256",
							"name": "amountSCPtoBuy",
							"type": "uint256"
						}
					],
					"name": "buyScepter",
					"outputs": [],
					"stateMutability": "payable",
					"type": "function"
				},
				{
					"inputs": [],
					"name": "daysInCalculation",
					"outputs": [
						{
							"internalType": "uint256",
							"name": "",
							"type": "uint256"
						}
					],
					"stateMutability": "view",
					"type": "function"
				},
				{
					"inputs": [
						{
							"internalType": "uint256",
							"name": "x",
							"type": "uint256"
						},
						{
							"internalType": "uint256",
							"name": "y",
							"type": "uint256"
						}
					],
					"name": "decDiv18",
					"outputs": [
						{
							"internalType": "uint256",
							"name": "decQuotient",
							"type": "uint256"
						}
					],
					"stateMutability": "pure",
					"type": "function"
				},
				{
					"inputs": [
						{
							"internalType": "uint256",
							"name": "x",
							"type": "uint256"
						},
						{
							"internalType": "uint256",
							"name": "y",
							"type": "uint256"
						}
					],
					"name": "decMul18",
					"outputs": [
						{
							"internalType": "uint256",
							"name": "decProd",
							"type": "uint256"
						}
					],
					"stateMutability": "pure",
					"type": "function"
				},
				{
					"inputs": [],
					"name": "getBackingPrice",
					"outputs": [
						{
							"internalType": "uint256",
							"name": "",
							"type": "uint256"
						}
					],
					"stateMutability": "view",
					"type": "function"
				},
				{
					"inputs": [],
					"name": "getBuyPrice",
					"outputs": [
						{
							"internalType": "uint256",
							"name": "",
							"type": "uint256"
						}
					],
					"stateMutability": "view",
					"type": "function"
				},
				{
					"inputs": [],
					"name": "getSellPrice",
					"outputs": [
						{
							"internalType": "uint256",
							"name": "",
							"type": "uint256"
						}
					],
					"stateMutability": "view",
					"type": "function"
				},
				{
					"inputs": [],
					"name": "getTokensBoughtXDays",
					"outputs": [
						{
							"internalType": "uint256",
							"name": "",
							"type": "uint256"
						}
					],
					"stateMutability": "view",
					"type": "function"
				},
				{
					"inputs": [],
					"name": "getTokensSoldXDays",
					"outputs": [
						{
							"internalType": "uint256",
							"name": "",
							"type": "uint256"
						}
					],
					"stateMutability": "view",
					"type": "function"
				},
				{
					"inputs": [],
					"name": "growthFactor",
					"outputs": [
						{
							"internalType": "uint256",
							"name": "",
							"type": "uint256"
						}
					],
					"stateMutability": "view",
					"type": "function"
				},
				{
					"inputs": [],
					"name": "mockUSDC",
					"outputs": [
						{
							"internalType": "contract IERC20",
							"name": "",
							"type": "address"
						}
					],
					"stateMutability": "view",
					"type": "function"
				},
				{
					"inputs": [
						{
							"internalType": "address",
							"name": "_tokenAddress",
							"type": "address"
						},
						{
							"internalType": "address",
							"name": "_addressToQuery",
							"type": "address"
						}
					],
					"name": "queryERC20Balance",
					"outputs": [
						{
							"internalType": "uint256",
							"name": "",
							"type": "uint256"
						}
					],
					"stateMutability": "view",
					"type": "function"
				},
				{
					"inputs": [],
					"name": "res",
					"outputs": [
						{
							"internalType": "int128",
							"name": "",
							"type": "int128"
						}
					],
					"stateMutability": "view",
					"type": "function"
				},
				{
					"inputs": [],
					"name": "riskTreasuryAddr",
					"outputs": [
						{
							"internalType": "address",
							"name": "",
							"type": "address"
						}
					],
					"stateMutability": "view",
					"type": "function"
				},
				{
					"inputs": [],
					"name": "scepterTreasuryAddr",
					"outputs": [
						{
							"internalType": "address",
							"name": "",
							"type": "address"
						}
					],
					"stateMutability": "view",
					"type": "function"
				},
				{
					"inputs": [],
					"name": "sellFactor",
					"outputs": [
						{
							"internalType": "uint256",
							"name": "",
							"type": "uint256"
						}
					],
					"stateMutability": "view",
					"type": "function"
				},
				{
					"inputs": [
						{
							"internalType": "uint256",
							"name": "amountSCPtoSell",
							"type": "uint256"
						}
					],
					"name": "sellScepter",
					"outputs": [],
					"stateMutability": "payable",
					"type": "function"
				},
				{
					"inputs": [
						{
							"internalType": "uint256",
							"name": "numDays",
							"type": "uint256"
						}
					],
					"name": "setDaysUsedInFactors",
					"outputs": [],
					"stateMutability": "nonpayable",
					"type": "function"
				},
				{
					"inputs": [],
					"name": "tSC",
					"outputs": [
						{
							"internalType": "contract IERC20",
							"name": "",
							"type": "address"
						}
					],
					"stateMutability": "view",
					"type": "function"
				},
				{
					"inputs": [
						{
							"internalType": "uint256",
							"name": "t",
							"type": "uint256"
						},
						{
							"internalType": "uint256",
							"name": "_amt",
							"type": "uint256"
						}
					],
					"name": "testMappings",
					"outputs": [
						{
							"internalType": "uint256",
							"name": "",
							"type": "uint256"
						}
					],
					"stateMutability": "nonpayable",
					"type": "function"
				},
				{
					"inputs": [],
					"name": "testwallet",
					"outputs": [
						{
							"internalType": "address",
							"name": "",
							"type": "address"
						}
					],
					"stateMutability": "view",
					"type": "function"
				},
				{
					"inputs": [],
					"name": "timeLaunched",
					"outputs": [
						{
							"internalType": "uint256",
							"name": "",
							"type": "uint256"
						}
					],
					"stateMutability": "view",
					"type": "function"
				},
				{
					"inputs": [
						{
							"internalType": "uint256",
							"name": "",
							"type": "uint256"
						}
					],
					"name": "tokensBoughtXDays",
					"outputs": [
						{
							"internalType": "uint256",
							"name": "",
							"type": "uint256"
						}
					],
					"stateMutability": "view",
					"type": "function"
				},
				{
					"inputs": [
						{
							"internalType": "uint256",
							"name": "",
							"type": "uint256"
						}
					],
					"name": "tokensSoldXDays",
					"outputs": [
						{
							"internalType": "uint256",
							"name": "",
							"type": "uint256"
						}
					],
					"stateMutability": "view",
					"type": "function"
				},
				{
					"inputs": [],
					"name": "treasury1Addr",
					"outputs": [
						{
							"internalType": "address",
							"name": "",
							"type": "address"
						}
					],
					"stateMutability": "view",
					"type": "function"
				},
				{
					"inputs": [],
					"name": "treasury1bal",
					"outputs": [
						{
							"internalType": "uint256",
							"name": "",
							"type": "uint256"
						}
					],
					"stateMutability": "view",
					"type": "function"
				}
			],
			"devdoc": {
				"kind": "dev",
				"methods": {},
				"version": 1
			},
			"evm": {
				"assembly": "    /* \"WandInstruments.sol\":96:7507  contract testSticks {\r... */\n  mstore(0x40, 0x80)\n    /* \"WandInstruments.sol\":283:289  10**18 */\n  0x0de0b6b3a7640000\n    /* \"WandInstruments.sol\":724:729  50000 */\n  0xc350\n    /* \"WandInstruments.sol\":724:740  50000*(DECIMALS) */\n  tag_1\n  swap2\n  swap1\n  tag_2\n  jump\t// in\ntag_1:\n    /* \"WandInstruments.sol\":694:740  uint256 public treasury1bal = 50000*(DECIMALS) */\n  0x09\n  sstore\n    /* \"WandInstruments.sol\":890:896  100000 */\n  0x0186a0\n    /* \"WandInstruments.sol\":859:896  uint256 private ft5daybought = 100000 */\n  0x0c\n  sstore\n    /* \"WandInstruments.sol\":932:937  90000 */\n  0x015f90\n    /* \"WandInstruments.sol\":903:937  uint256 private ft5daysold = 90000 */\n  0x0d\n  sstore\n    /* \"WandInstruments.sol\":979:985  600000 */\n  0x0927c0\n    /* \"WandInstruments.sol\":944:985  uint256 private double5daytokens = 600000 */\n  0x0e\n  sstore\n    /* \"WandInstruments.sol\":1106:1148  0x617F2E2fD72FD9D5503197092aC168c91465E7f2 */\n  0x617f2e2fd72fd9d5503197092ac168c91465e7f2\n    /* \"WandInstruments.sol\":1078:1148  address public testwallet = 0x617F2E2fD72FD9D5503197092aC168c91465E7f2 */\n  0x10\n  exp(0x0100, 0x00)\n  dup2\n  sload\n  dup2\n  0xffffffffffffffffffffffffffffffffffffffff\n  mul\n  not\n  and\n  swap1\n  dup4\n  0xffffffffffffffffffffffffffffffffffffffff\n  and\n  mul\n  or\n  swap1\n  sstore\n  pop\n    /* \"WandInstruments.sol\":1575:2195  constructor(address scepterAddr, address batonAddr) {   \r... */\n  callvalue\n  dup1\n  iszero\n  tag_3\n  jumpi\n  0x00\n  dup1\n  revert\ntag_3:\n  pop\n  mload(0x40)\n  sub(codesize, bytecodeSize)\n  dup1\n  bytecodeSize\n  dup4\n  codecopy\n  dup2\n  dup2\n  add\n  0x40\n  mstore\n  dup2\n  add\n  swap1\n  tag_4\n  swap2\n  swap1\n  tag_5\n  jump\t// in\ntag_4:\n    /* \"WandInstruments.sol\":1745:1754  batonAddr */\n  dup1\n    /* \"WandInstruments.sol\":1733:1736  btn */\n  0x15\n  0x00\n    /* \"WandInstruments.sol\":1733:1755  btn = Baton(batonAddr) */\n  0x0100\n  exp\n  dup2\n  sload\n  dup2\n  0xffffffffffffffffffffffffffffffffffffffff\n  mul\n  not\n  and\n  swap1\n  dup4\n  0xffffffffffffffffffffffffffffffffffffffff\n  and\n  mul\n  or\n  swap1\n  sstore\n  pop\n    /* \"WandInstruments.sol\":1779:1790  scepterAddr */\n  dup2\n    /* \"WandInstruments.sol\":1766:1769  tSC */\n  0x11\n  0x00\n    /* \"WandInstruments.sol\":1766:1791  tSC = IERC20(scepterAddr) */\n  0x0100\n  exp\n  dup2\n  sload\n  dup2\n  0xffffffffffffffffffffffffffffffffffffffff\n  mul\n  not\n  and\n  swap1\n  dup4\n  0xffffffffffffffffffffffffffffffffffffffff\n  and\n  mul\n  or\n  swap1\n  sstore\n  pop\n    /* \"WandInstruments.sol\":1822:1864  0xD7ACd2a9FD159E69Bb102A1ca21C9a3e3A5F771B */\n  0xd7acd2a9fd159e69bb102a1ca21c9a3e3a5f771b\n    /* \"WandInstruments.sol\":1804:1812  mockUSDC */\n  0x12\n  0x00\n    /* \"WandInstruments.sol\":1804:1865  mockUSDC = IERC20(0xD7ACd2a9FD159E69Bb102A1ca21C9a3e3A5F771B) */\n  0x0100\n  exp\n  dup2\n  sload\n  dup2\n  0xffffffffffffffffffffffffffffffffffffffff\n  mul\n  not\n  and\n  swap1\n  dup4\n  0xffffffffffffffffffffffffffffffffffffffff\n  and\n  mul\n  or\n  swap1\n  sstore\n  pop\n    /* \"WandInstruments.sol\":1892:1934  0x617F2E2fD72FD9D5503197092aC168c91465E7f2 */\n  0x617f2e2fd72fd9d5503197092ac168c91465e7f2\n    /* \"WandInstruments.sol\":1876:1889  treasury1Addr */\n  0x06\n  0x00\n    /* \"WandInstruments.sol\":1876:1934  treasury1Addr = 0x617F2E2fD72FD9D5503197092aC168c91465E7f2 */\n  0x0100\n  exp\n  dup2\n  sload\n  dup2\n  0xffffffffffffffffffffffffffffffffffffffff\n  mul\n  not\n  and\n  swap1\n  dup4\n  0xffffffffffffffffffffffffffffffffffffffff\n  and\n  mul\n  or\n  swap1\n  sstore\n  pop\n    /* \"WandInstruments.sol\":2005:2044  decDiv18(ft5daybought,double5daytokens) */\n  tag_8\n    /* \"WandInstruments.sol\":2014:2026  ft5daybought */\n  sload(0x0c)\n    /* \"WandInstruments.sol\":2027:2043  double5daytokens */\n  sload(0x0e)\n    /* \"WandInstruments.sol\":2005:2013  decDiv18 */\n  shl(0x20, tag_9)\n    /* \"WandInstruments.sol\":2005:2044  decDiv18(ft5daybought,double5daytokens) */\n  0x20\n  shr\n  jump\t// in\ntag_8:\n    /* \"WandInstruments.sol\":1992:2004  growthFactor */\n  0x00\n    /* \"WandInstruments.sol\":1992:2044  growthFactor=decDiv18(ft5daybought,double5daytokens) */\n  dup2\n  swap1\n  sstore\n  pop\n    /* \"WandInstruments.sol\":2066:2103  decDiv18(ft5daysold,double5daytokens) */\n  tag_10\n    /* \"WandInstruments.sol\":2075:2085  ft5daysold */\n  sload(0x0d)\n    /* \"WandInstruments.sol\":2086:2102  double5daytokens */\n  sload(0x0e)\n    /* \"WandInstruments.sol\":2066:2074  decDiv18 */\n  shl(0x20, tag_9)\n    /* \"WandInstruments.sol\":2066:2103  decDiv18(ft5daysold,double5daytokens) */\n  0x20\n  shr\n  jump\t// in\ntag_10:\n    /* \"WandInstruments.sol\":2055:2065  sellFactor */\n  0x01\n    /* \"WandInstruments.sol\":2055:2103  sellFactor=decDiv18(ft5daysold,double5daytokens) */\n  dup2\n  swap1\n  sstore\n  pop\n    /* \"WandInstruments.sol\":2129:2144  block.timestamp */\n  timestamp\n    /* \"WandInstruments.sol\":2114:2126  timeLaunched */\n  0x0a\n    /* \"WandInstruments.sol\":2114:2144  timeLaunched = block.timestamp */\n  dup2\n  swap1\n  sstore\n  pop\n    /* \"WandInstruments.sol\":2175:2181  5 days */\n  0x069780\n    /* \"WandInstruments.sol\":2155:2172  daysInCalculation */\n  0x0b\n    /* \"WandInstruments.sol\":2155:2181  daysInCalculation = 5 days */\n  dup2\n  swap1\n  sstore\n  pop\n    /* \"WandInstruments.sol\":1575:2195  constructor(address scepterAddr, address batonAddr) {   \r... */\n  pop\n  pop\n    /* \"WandInstruments.sol\":96:7507  contract testSticks {\r... */\n  jump(tag_11)\n    /* \"WandInstruments.sol\":3154:3333  function decDiv18(uint x, uint y) public pure returns (uint decQuotient) {\r... */\ntag_9:\n    /* \"WandInstruments.sol\":3209:3225  uint decQuotient */\n  0x00\n    /* \"WandInstruments.sol\":3238:3254  uint prod_xTEN18 */\n  dup1\n    /* \"WandInstruments.sol\":3257:3273  mul(x, DECIMALS) */\n  tag_13\n    /* \"WandInstruments.sol\":3261:3262  x */\n  dup5\n    /* \"WandInstruments.sol\":283:289  10**18 */\n  0x0de0b6b3a7640000\n    /* \"WandInstruments.sol\":3257:3260  mul */\n  shl(0x20, tag_14)\n    /* \"WandInstruments.sol\":3257:3273  mul(x, DECIMALS) */\n  0x20\n  shr\n  jump\t// in\ntag_13:\n    /* \"WandInstruments.sol\":3238:3273  uint prod_xTEN18 = mul(x, DECIMALS) */\n  swap1\n  pop\n    /* \"WandInstruments.sol\":3324:3325  y */\n  dup3\n    /* \"WandInstruments.sol\":3298:3321  add(prod_xTEN18, y / 2) */\n  tag_15\n    /* \"WandInstruments.sol\":3302:3313  prod_xTEN18 */\n  dup3\n    /* \"WandInstruments.sol\":3319:3320  2 */\n  0x02\n    /* \"WandInstruments.sol\":3315:3316  y */\n  dup7\n    /* \"WandInstruments.sol\":3315:3320  y / 2 */\n  tag_16\n  swap2\n  swap1\n  tag_17\n  jump\t// in\ntag_16:\n    /* \"WandInstruments.sol\":3298:3301  add */\n  shl(0x20, tag_18)\n    /* \"WandInstruments.sol\":3298:3321  add(prod_xTEN18, y / 2) */\n  0x20\n  shr\n  jump\t// in\ntag_15:\n    /* \"WandInstruments.sol\":3298:3325  add(prod_xTEN18, y / 2) / y */\n  tag_19\n  swap2\n  swap1\n  tag_17\n  jump\t// in\ntag_19:\n    /* \"WandInstruments.sol\":3284:3325  decQuotient = add(prod_xTEN18, y / 2) / y */\n  swap2\n  pop\n    /* \"WandInstruments.sol\":3227:3333  {\r... */\n  pop\n    /* \"WandInstruments.sol\":3154:3333  function decDiv18(uint x, uint y) public pure returns (uint decQuotient) {\r... */\n  swap3\n  swap2\n  pop\n  pop\n  jump\t// out\n    /* \"WandInstruments.sol\":2237:2457  function mul(uint256 a, uint256 b) internal pure returns (uint256) {\r... */\ntag_14:\n    /* \"WandInstruments.sol\":2295:2302  uint256 */\n  0x00\n    /* \"WandInstruments.sol\":2320:2321  0 */\n  dup1\n    /* \"WandInstruments.sol\":2315:2316  a */\n  dup4\n    /* \"WandInstruments.sol\":2315:2321  a == 0 */\n  eq\n    /* \"WandInstruments.sol\":2311:2350  if (a == 0) {\r... */\n  iszero\n  tag_21\n  jumpi\n    /* \"WandInstruments.sol\":2341:2342  0 */\n  0x00\n    /* \"WandInstruments.sol\":2334:2342  return 0 */\n  swap1\n  pop\n  jump(tag_20)\n    /* \"WandInstruments.sol\":2311:2350  if (a == 0) {\r... */\ntag_21:\n    /* \"WandInstruments.sol\":2356:2365  uint256 c */\n  0x00\n    /* \"WandInstruments.sol\":2372:2373  b */\n  dup3\n    /* \"WandInstruments.sol\":2368:2369  a */\n  dup5\n    /* \"WandInstruments.sol\":2368:2373  a * b */\n  tag_22\n  swap2\n  swap1\n  tag_2\n  jump\t// in\ntag_22:\n    /* \"WandInstruments.sol\":2356:2373  uint256 c = a * b */\n  swap1\n  pop\n    /* \"WandInstruments.sol\":2397:2398  b */\n  dup3\n    /* \"WandInstruments.sol\":2392:2393  a */\n  dup5\n    /* \"WandInstruments.sol\":2388:2389  c */\n  dup3\n    /* \"WandInstruments.sol\":2388:2393  c / a */\n  tag_23\n  swap2\n  swap1\n  tag_17\n  jump\t// in\ntag_23:\n    /* \"WandInstruments.sol\":2388:2398  c / a == b */\n  eq\n    /* \"WandInstruments.sol\":2380:2436  require(c / a == b, \"uint overflow from multiplication\") */\n  tag_24\n  jumpi\n  mload(0x40)\n  0x08c379a000000000000000000000000000000000000000000000000000000000\n  dup2\n  mstore\n  0x04\n  add\n  tag_25\n  swap1\n  tag_26\n  jump\t// in\ntag_25:\n  mload(0x40)\n  dup1\n  swap2\n  sub\n  swap1\n  revert\ntag_24:\n    /* \"WandInstruments.sol\":2450:2451  c */\n  dup1\n    /* \"WandInstruments.sol\":2443:2451  return c */\n  swap2\n  pop\n  pop\n    /* \"WandInstruments.sol\":2237:2457  function mul(uint256 a, uint256 b) internal pure returns (uint256) {\r... */\ntag_20:\n  swap3\n  swap2\n  pop\n  pop\n  jump\t// out\n    /* \"WandInstruments.sol\":2799:2970  function add(uint256 a, uint256 b) internal pure returns (uint256) {\r... */\ntag_18:\n    /* \"WandInstruments.sol\":2857:2864  uint256 */\n  0x00\n    /* \"WandInstruments.sol\":2873:2882  uint256 c */\n  dup1\n    /* \"WandInstruments.sol\":2889:2890  b */\n  dup3\n    /* \"WandInstruments.sol\":2885:2886  a */\n  dup5\n    /* \"WandInstruments.sol\":2885:2890  a + b */\n  tag_28\n  swap2\n  swap1\n  tag_29\n  jump\t// in\ntag_28:\n    /* \"WandInstruments.sol\":2873:2890  uint256 c = a + b */\n  swap1\n  pop\n    /* \"WandInstruments.sol\":2910:2911  a */\n  dup4\n    /* \"WandInstruments.sol\":2905:2906  c */\n  dup2\n    /* \"WandInstruments.sol\":2905:2911  c >= a */\n  lt\n  iszero\n    /* \"WandInstruments.sol\":2897:2949  require(c >= a, \"uint overflow from multiplication\") */\n  tag_30\n  jumpi\n  mload(0x40)\n  0x08c379a000000000000000000000000000000000000000000000000000000000\n  dup2\n  mstore\n  0x04\n  add\n  tag_31\n  swap1\n  tag_26\n  jump\t// in\ntag_31:\n  mload(0x40)\n  dup1\n  swap2\n  sub\n  swap1\n  revert\ntag_30:\n    /* \"WandInstruments.sol\":2963:2964  c */\n  dup1\n    /* \"WandInstruments.sol\":2956:2964  return c */\n  swap2\n  pop\n  pop\n    /* \"WandInstruments.sol\":2799:2970  function add(uint256 a, uint256 b) internal pure returns (uint256) {\r... */\n  swap3\n  swap2\n  pop\n  pop\n  jump\t// out\n    /* \"#utility.yul\":7:150   */\ntag_33:\n    /* \"#utility.yul\":64:69   */\n  0x00\n    /* \"#utility.yul\":95:101   */\n  dup2\n    /* \"#utility.yul\":89:102   */\n  mload\n    /* \"#utility.yul\":80:102   */\n  swap1\n  pop\n    /* \"#utility.yul\":111:144   */\n  tag_35\n    /* \"#utility.yul\":138:143   */\n  dup2\n    /* \"#utility.yul\":111:144   */\n  tag_36\n  jump\t// in\ntag_35:\n    /* \"#utility.yul\":7:150   */\n  swap3\n  swap2\n  pop\n  pop\n  jump\t// out\n    /* \"#utility.yul\":156:663   */\ntag_5:\n    /* \"#utility.yul\":235:241   */\n  0x00\n    /* \"#utility.yul\":243:249   */\n  dup1\n    /* \"#utility.yul\":292:294   */\n  0x40\n    /* \"#utility.yul\":280:289   */\n  dup4\n    /* \"#utility.yul\":271:278   */\n  dup6\n    /* \"#utility.yul\":267:290   */\n  sub\n    /* \"#utility.yul\":263:295   */\n  slt\n    /* \"#utility.yul\":260:379   */\n  iszero\n  tag_38\n  jumpi\n    /* \"#utility.yul\":298:377   */\n  tag_39\n  tag_40\n  jump\t// in\ntag_39:\n    /* \"#utility.yul\":260:379   */\ntag_38:\n    /* \"#utility.yul\":418:419   */\n  0x00\n    /* \"#utility.yul\":443:507   */\n  tag_41\n    /* \"#utility.yul\":499:506   */\n  dup6\n    /* \"#utility.yul\":490:496   */\n  dup3\n    /* \"#utility.yul\":479:488   */\n  dup7\n    /* \"#utility.yul\":475:497   */\n  add\n    /* \"#utility.yul\":443:507   */\n  tag_33\n  jump\t// in\ntag_41:\n    /* \"#utility.yul\":433:507   */\n  swap3\n  pop\n    /* \"#utility.yul\":389:517   */\n  pop\n    /* \"#utility.yul\":556:558   */\n  0x20\n    /* \"#utility.yul\":582:646   */\n  tag_42\n    /* \"#utility.yul\":638:645   */\n  dup6\n    /* \"#utility.yul\":629:635   */\n  dup3\n    /* \"#utility.yul\":618:627   */\n  dup7\n    /* \"#utility.yul\":614:636   */\n  add\n    /* \"#utility.yul\":582:646   */\n  tag_33\n  jump\t// in\ntag_42:\n    /* \"#utility.yul\":572:646   */\n  swap2\n  pop\n    /* \"#utility.yul\":527:656   */\n  pop\n    /* \"#utility.yul\":156:663   */\n  swap3\n  pop\n  swap3\n  swap1\n  pop\n  jump\t// out\n    /* \"#utility.yul\":669:1035   */\ntag_43:\n    /* \"#utility.yul\":811:814   */\n  0x00\n    /* \"#utility.yul\":832:899   */\n  tag_45\n    /* \"#utility.yul\":896:898   */\n  0x21\n    /* \"#utility.yul\":891:894   */\n  dup4\n    /* \"#utility.yul\":832:899   */\n  tag_46\n  jump\t// in\ntag_45:\n    /* \"#utility.yul\":825:899   */\n  swap2\n  pop\n    /* \"#utility.yul\":908:1001   */\n  tag_47\n    /* \"#utility.yul\":997:1000   */\n  dup3\n    /* \"#utility.yul\":908:1001   */\n  tag_48\n  jump\t// in\ntag_47:\n    /* \"#utility.yul\":1026:1028   */\n  0x40\n    /* \"#utility.yul\":1021:1024   */\n  dup3\n    /* \"#utility.yul\":1017:1029   */\n  add\n    /* \"#utility.yul\":1010:1029   */\n  swap1\n  pop\n    /* \"#utility.yul\":669:1035   */\n  swap2\n  swap1\n  pop\n  jump\t// out\n    /* \"#utility.yul\":1041:1460   */\ntag_26:\n    /* \"#utility.yul\":1207:1211   */\n  0x00\n    /* \"#utility.yul\":1245:1247   */\n  0x20\n    /* \"#utility.yul\":1234:1243   */\n  dup3\n    /* \"#utility.yul\":1230:1248   */\n  add\n    /* \"#utility.yul\":1222:1248   */\n  swap1\n  pop\n    /* \"#utility.yul\":1294:1303   */\n  dup2\n    /* \"#utility.yul\":1288:1292   */\n  dup2\n    /* \"#utility.yul\":1284:1304   */\n  sub\n    /* \"#utility.yul\":1280:1281   */\n  0x00\n    /* \"#utility.yul\":1269:1278   */\n  dup4\n    /* \"#utility.yul\":1265:1282   */\n  add\n    /* \"#utility.yul\":1258:1305   */\n  mstore\n    /* \"#utility.yul\":1322:1453   */\n  tag_50\n    /* \"#utility.yul\":1448:1452   */\n  dup2\n    /* \"#utility.yul\":1322:1453   */\n  tag_43\n  jump\t// in\ntag_50:\n    /* \"#utility.yul\":1314:1453   */\n  swap1\n  pop\n    /* \"#utility.yul\":1041:1460   */\n  swap2\n  swap1\n  pop\n  jump\t// out\n    /* \"#utility.yul\":1547:1716   */\ntag_46:\n    /* \"#utility.yul\":1631:1642   */\n  0x00\n    /* \"#utility.yul\":1665:1671   */\n  dup3\n    /* \"#utility.yul\":1660:1663   */\n  dup3\n    /* \"#utility.yul\":1653:1672   */\n  mstore\n    /* \"#utility.yul\":1705:1709   */\n  0x20\n    /* \"#utility.yul\":1700:1703   */\n  dup3\n    /* \"#utility.yul\":1696:1710   */\n  add\n    /* \"#utility.yul\":1681:1710   */\n  swap1\n  pop\n    /* \"#utility.yul\":1547:1716   */\n  swap3\n  swap2\n  pop\n  pop\n  jump\t// out\n    /* \"#utility.yul\":1722:2027   */\ntag_29:\n    /* \"#utility.yul\":1762:1765   */\n  0x00\n    /* \"#utility.yul\":1781:1801   */\n  tag_55\n    /* \"#utility.yul\":1799:1800   */\n  dup3\n    /* \"#utility.yul\":1781:1801   */\n  tag_56\n  jump\t// in\ntag_55:\n    /* \"#utility.yul\":1776:1801   */\n  swap2\n  pop\n    /* \"#utility.yul\":1815:1835   */\n  tag_57\n    /* \"#utility.yul\":1833:1834   */\n  dup4\n    /* \"#utility.yul\":1815:1835   */\n  tag_56\n  jump\t// in\ntag_57:\n    /* \"#utility.yul\":1810:1835   */\n  swap3\n  pop\n    /* \"#utility.yul\":1969:1970   */\n  dup3\n    /* \"#utility.yul\":1901:1967   */\n  0xffffffffffffffffffffffffffffffffffffffffffffffffffffffffffffffff\n    /* \"#utility.yul\":1897:1971   */\n  sub\n    /* \"#utility.yul\":1894:1895   */\n  dup3\n    /* \"#utility.yul\":1891:1972   */\n  gt\n    /* \"#utility.yul\":1888:1995   */\n  iszero\n  tag_58\n  jumpi\n    /* \"#utility.yul\":1975:1993   */\n  tag_59\n  tag_60\n  jump\t// in\ntag_59:\n    /* \"#utility.yul\":1888:1995   */\ntag_58:\n    /* \"#utility.yul\":2019:2020   */\n  dup3\n    /* \"#utility.yul\":2016:2017   */\n  dup3\n    /* \"#utility.yul\":2012:2021   */\n  add\n    /* \"#utility.yul\":2005:2021   */\n  swap1\n  pop\n    /* \"#utility.yul\":1722:2027   */\n  swap3\n  swap2\n  pop\n  pop\n  jump\t// out\n    /* \"#utility.yul\":2033:2218   */\ntag_17:\n    /* \"#utility.yul\":2073:2074   */\n  0x00\n    /* \"#utility.yul\":2090:2110   */\n  tag_62\n    /* \"#utility.yul\":2108:2109   */\n  dup3\n    /* \"#utility.yul\":2090:2110   */\n  tag_56\n  jump\t// in\ntag_62:\n    /* \"#utility.yul\":2085:2110   */\n  swap2\n  pop\n    /* \"#utility.yul\":2124:2144   */\n  tag_63\n    /* \"#utility.yul\":2142:2143   */\n  dup4\n    /* \"#utility.yul\":2124:2144   */\n  tag_56\n  jump\t// in\ntag_63:\n    /* \"#utility.yul\":2119:2144   */\n  swap3\n  pop\n    /* \"#utility.yul\":2163:2164   */\n  dup3\n    /* \"#utility.yul\":2153:2188   */\n  tag_64\n  jumpi\n    /* \"#utility.yul\":2168:2186   */\n  tag_65\n  tag_66\n  jump\t// in\ntag_65:\n    /* \"#utility.yul\":2153:2188   */\ntag_64:\n    /* \"#utility.yul\":2210:2211   */\n  dup3\n    /* \"#utility.yul\":2207:2208   */\n  dup3\n    /* \"#utility.yul\":2203:2212   */\n  div\n    /* \"#utility.yul\":2198:2212   */\n  swap1\n  pop\n    /* \"#utility.yul\":2033:2218   */\n  swap3\n  swap2\n  pop\n  pop\n  jump\t// out\n    /* \"#utility.yul\":2224:2572   */\ntag_2:\n    /* \"#utility.yul\":2264:2271   */\n  0x00\n    /* \"#utility.yul\":2287:2307   */\n  tag_68\n    /* \"#utility.yul\":2305:2306   */\n  dup3\n    /* \"#utility.yul\":2287:2307   */\n  tag_56\n  jump\t// in\ntag_68:\n    /* \"#utility.yul\":2282:2307   */\n  swap2\n  pop\n    /* \"#utility.yul\":2321:2341   */\n  tag_69\n    /* \"#utility.yul\":2339:2340   */\n  dup4\n    /* \"#utility.yul\":2321:2341   */\n  tag_56\n  jump\t// in\ntag_69:\n    /* \"#utility.yul\":2316:2341   */\n  swap3\n  pop\n    /* \"#utility.yul\":2509:2510   */\n  dup2\n    /* \"#utility.yul\":2441:2507   */\n  0xffffffffffffffffffffffffffffffffffffffffffffffffffffffffffffffff\n    /* \"#utility.yul\":2437:2511   */\n  div\n    /* \"#utility.yul\":2434:2435   */\n  dup4\n    /* \"#utility.yul\":2431:2512   */\n  gt\n    /* \"#utility.yul\":2426:2427   */\n  dup3\n    /* \"#utility.yul\":2419:2428   */\n  iszero\n    /* \"#utility.yul\":2412:2429   */\n  iszero\n    /* \"#utility.yul\":2408:2513   */\n  and\n    /* \"#utility.yul\":2405:2536   */\n  iszero\n  tag_70\n  jumpi\n    /* \"#utility.yul\":2516:2534   */\n  tag_71\n  tag_60\n  jump\t// in\ntag_71:\n    /* \"#utility.yul\":2405:2536   */\ntag_70:\n    /* \"#utility.yul\":2564:2565   */\n  dup3\n    /* \"#utility.yul\":2561:2562   */\n  dup3\n    /* \"#utility.yul\":2557:2566   */\n  mul\n    /* \"#utility.yul\":2546:2566   */\n  swap1\n  pop\n    /* \"#utility.yul\":2224:2572   */\n  swap3\n  swap2\n  pop\n  pop\n  jump\t// out\n    /* \"#utility.yul\":2578:2674   */\ntag_72:\n    /* \"#utility.yul\":2615:2622   */\n  0x00\n    /* \"#utility.yul\":2644:2668   */\n  tag_74\n    /* \"#utility.yul\":2662:2667   */\n  dup3\n    /* \"#utility.yul\":2644:2668   */\n  tag_75\n  jump\t// in\ntag_74:\n    /* \"#utility.yul\":2633:2668   */\n  swap1\n  pop\n    /* \"#utility.yul\":2578:2674   */\n  swap2\n  swap1\n  pop\n  jump\t// out\n    /* \"#utility.yul\":2680:2806   */\ntag_75:\n    /* \"#utility.yul\":2717:2724   */\n  0x00\n    /* \"#utility.yul\":2757:2799   */\n  0xffffffffffffffffffffffffffffffffffffffff\n    /* \"#utility.yul\":2750:2755   */\n  dup3\n    /* \"#utility.yul\":2746:2800   */\n  and\n    /* \"#utility.yul\":2735:2800   */\n  swap1\n  pop\n    /* \"#utility.yul\":2680:2806   */\n  swap2\n  swap1\n  pop\n  jump\t// out\n    /* \"#utility.yul\":2812:2889   */\ntag_56:\n    /* \"#utility.yul\":2849:2856   */\n  0x00\n    /* \"#utility.yul\":2878:2883   */\n  dup2\n    /* \"#utility.yul\":2867:2883   */\n  swap1\n  pop\n    /* \"#utility.yul\":2812:2889   */\n  swap2\n  swap1\n  pop\n  jump\t// out\n    /* \"#utility.yul\":2895:3075   */\ntag_60:\n    /* \"#utility.yul\":2943:3020   */\n  0x4e487b7100000000000000000000000000000000000000000000000000000000\n    /* \"#utility.yul\":2940:2941   */\n  0x00\n    /* \"#utility.yul\":2933:3021   */\n  mstore\n    /* \"#utility.yul\":3040:3044   */\n  0x11\n    /* \"#utility.yul\":3037:3038   */\n  0x04\n    /* \"#utility.yul\":3030:3045   */\n  mstore\n    /* \"#utility.yul\":3064:3068   */\n  0x24\n    /* \"#utility.yul\":3061:3062   */\n  0x00\n    /* \"#utility.yul\":3054:3069   */\n  revert\n    /* \"#utility.yul\":3081:3261   */\ntag_66:\n    /* \"#utility.yul\":3129:3206   */\n  0x4e487b7100000000000000000000000000000000000000000000000000000000\n    /* \"#utility.yul\":3126:3127   */\n  0x00\n    /* \"#utility.yul\":3119:3207   */\n  mstore\n    /* \"#utility.yul\":3226:3230   */\n  0x12\n    /* \"#utility.yul\":3223:3224   */\n  0x04\n    /* \"#utility.yul\":3216:3231   */\n  mstore\n    /* \"#utility.yul\":3250:3254   */\n  0x24\n    /* \"#utility.yul\":3247:3248   */\n  0x00\n    /* \"#utility.yul\":3240:3255   */\n  revert\n    /* \"#utility.yul\":3390:3507   */\ntag_40:\n    /* \"#utility.yul\":3499:3500   */\n  0x00\n    /* \"#utility.yul\":3496:3497   */\n  dup1\n    /* \"#utility.yul\":3489:3501   */\n  revert\n    /* \"#utility.yul\":3513:3733   */\ntag_48:\n    /* \"#utility.yul\":3653:3687   */\n  0x75696e74206f766572666c6f772066726f6d206d756c7469706c69636174696f\n    /* \"#utility.yul\":3649:3650   */\n  0x00\n    /* \"#utility.yul\":3641:3647   */\n  dup3\n    /* \"#utility.yul\":3637:3651   */\n  add\n    /* \"#utility.yul\":3630:3688   */\n  mstore\n    /* \"#utility.yul\":3722:3725   */\n  0x6e00000000000000000000000000000000000000000000000000000000000000\n    /* \"#utility.yul\":3717:3719   */\n  0x20\n    /* \"#utility.yul\":3709:3715   */\n  dup3\n    /* \"#utility.yul\":3705:3720   */\n  add\n    /* \"#utility.yul\":3698:3726   */\n  mstore\n    /* \"#utility.yul\":3513:3733   */\n  pop\n  jump\t// out\n    /* \"#utility.yul\":3739:3861   */\ntag_36:\n    /* \"#utility.yul\":3812:3836   */\n  tag_85\n    /* \"#utility.yul\":3830:3835   */\n  dup2\n    /* \"#utility.yul\":3812:3836   */\n  tag_72\n  jump\t// in\ntag_85:\n    /* \"#utility.yul\":3805:3810   */\n  dup2\n    /* \"#utility.yul\":3802:3837   */\n  eq\n    /* \"#utility.yul\":3792:3855   */\n  tag_86\n  jumpi\n    /* \"#utility.yul\":3851:3852   */\n  0x00\n    /* \"#utility.yul\":3848:3849   */\n  dup1\n    /* \"#utility.yul\":3841:3853   */\n  revert\n    /* \"#utility.yul\":3792:3855   */\ntag_86:\n    /* \"#utility.yul\":3739:3861   */\n  pop\n  jump\t// out\n    /* \"WandInstruments.sol\":96:7507  contract testSticks {\r... */\ntag_11:\n  dataSize(sub_0)\n  dup1\n  dataOffset(sub_0)\n  0x00\n  codecopy\n  0x00\n  return\nstop\n\nsub_0: assembly {\n        /* \"WandInstruments.sol\":96:7507  contract testSticks {\r... */\n      mstore(0x40, 0x80)\n      jumpi(tag_1, lt(calldatasize, 0x04))\n      shr(0xe0, calldataload(0x00))\n      dup1\n      0x6f10e285\n      gt\n      tag_28\n      jumpi\n      dup1\n      0xee467678\n      gt\n      tag_29\n      jumpi\n      dup1\n      0xeee05f5e\n      gt\n      tag_30\n      jumpi\n      dup1\n      0xeee05f5e\n      eq\n      tag_24\n      jumpi\n      dup1\n      0xf7523c52\n      eq\n      tag_25\n      jumpi\n      dup1\n      0xfbbb4589\n      eq\n      tag_26\n      jumpi\n      dup1\n      0xfc361443\n      eq\n      tag_27\n      jumpi\n      jump(tag_1)\n    tag_30:\n      dup1\n      0xee467678\n      eq\n      tag_21\n      jumpi\n      dup1\n      0xee546a51\n      eq\n      tag_22\n      jumpi\n      dup1\n      0xee620868\n      eq\n      tag_23\n      jumpi\n      jump(tag_1)\n    tag_29:\n      dup1\n      0x6f10e285\n      eq\n      tag_15\n      jumpi\n      dup1\n      0x71cd58f9\n      eq\n      tag_16\n      jumpi\n      dup1\n      0xc079d7f6\n      eq\n      tag_17\n      jumpi\n      dup1\n      0xcbff4617\n      eq\n      tag_18\n      jumpi\n      dup1\n      0xd82eddf2\n      eq\n      tag_19\n      jumpi\n      dup1\n      0xdaa3a4a4\n      eq\n      tag_20\n      jumpi\n      jump(tag_1)\n    tag_28:\n      dup1\n      0x3c6eb17a\n      gt\n      tag_31\n      jumpi\n      dup1\n      0x64ce07d8\n      gt\n      tag_32\n      jumpi\n      dup1\n      0x64ce07d8\n      eq\n      tag_11\n      jumpi\n      dup1\n      0x65819f7e\n      eq\n      tag_12\n      jumpi\n      dup1\n      0x67b48c91\n      eq\n      tag_13\n      jumpi\n      dup1\n      0x6e05c1b9\n      eq\n      tag_14\n      jumpi\n      jump(tag_1)\n    tag_32:\n      dup1\n      0x3c6eb17a\n      eq\n      tag_8\n      jumpi\n      dup1\n      0x43d32e9c\n      eq\n      tag_9\n      jumpi\n      dup1\n      0x46bfe626\n      eq\n      tag_10\n      jumpi\n      jump(tag_1)\n    tag_31:\n      dup1\n      0x018a25e8\n      eq\n      tag_2\n      jumpi\n      dup1\n      0x047729b0\n      eq\n      tag_3\n      jumpi\n      dup1\n      0x1514c976\n      eq\n      tag_4\n      jumpi\n      dup1\n      0x1f564a06\n      eq\n      tag_5\n      jumpi\n      dup1\n      0x2a9f0fb1\n      eq\n      tag_6\n      jumpi\n      dup1\n      0x35453307\n      eq\n      tag_7\n      jumpi\n    tag_1:\n      0x00\n      dup1\n      revert\n        /* \"WandInstruments.sol\":6831:6992  function getBuyPrice() external view returns (uint256){\r... */\n    tag_2:\n      callvalue\n      dup1\n      iszero\n      tag_33\n      jumpi\n      0x00\n      dup1\n      revert\n    tag_33:\n      pop\n      tag_34\n      tag_35\n      jump\t// in\n    tag_34:\n      mload(0x40)\n      tag_36\n      swap2\n      swap1\n      tag_37\n      jump\t// in\n    tag_36:\n      mload(0x40)\n      dup1\n      swap2\n      sub\n      swap1\n      return\n        /* \"WandInstruments.sol\":622:653  address public riskTreasuryAddr */\n    tag_3:\n      callvalue\n      dup1\n      iszero\n      tag_38\n      jumpi\n      0x00\n      dup1\n      revert\n    tag_38:\n      pop\n      tag_39\n      tag_40\n      jump\t// in\n    tag_39:\n      mload(0x40)\n      tag_41\n      swap2\n      swap1\n      tag_42\n      jump\t// in\n    tag_41:\n      mload(0x40)\n      dup1\n      swap2\n      sub\n      swap1\n      return\n        /* \"WandInstruments.sol\":1461:1511  mapping(uint256 => uint256) public tokensSoldXDays */\n    tag_4:\n      callvalue\n      dup1\n      iszero\n      tag_43\n      jumpi\n      0x00\n      dup1\n      revert\n    tag_43:\n      pop\n      tag_44\n      0x04\n      dup1\n      calldatasize\n      sub\n      dup2\n      add\n      swap1\n      tag_45\n      swap2\n      swap1\n      tag_46\n      jump\t// in\n    tag_45:\n      tag_47\n      jump\t// in\n    tag_44:\n      mload(0x40)\n      tag_48\n      swap2\n      swap1\n      tag_37\n      jump\t// in\n    tag_48:\n      mload(0x40)\n      dup1\n      swap2\n      sub\n      swap1\n      return\n        /* \"WandInstruments.sol\":6617:6825  function getBackingPrice() external view returns (uint256){\r... */\n    tag_5:\n      callvalue\n      dup1\n      iszero\n      tag_49\n      jumpi\n      0x00\n      dup1\n      revert\n    tag_49:\n      pop\n      tag_50\n      tag_51\n      jump\t// in\n    tag_50:\n      mload(0x40)\n      tag_52\n      swap2\n      swap1\n      tag_37\n      jump\t// in\n    tag_52:\n      mload(0x40)\n      dup1\n      swap2\n      sub\n      swap1\n      return\n        /* \"WandInstruments.sol\":1402:1454  mapping(uint256 => uint256) public tokensBoughtXDays */\n    tag_6:\n      callvalue\n      dup1\n      iszero\n      tag_53\n      jumpi\n      0x00\n      dup1\n      revert\n    tag_53:\n      pop\n      tag_54\n      0x04\n      dup1\n      calldatasize\n      sub\n      dup2\n      add\n      swap1\n      tag_55\n      swap2\n      swap1\n      tag_46\n      jump\t// in\n    tag_55:\n      tag_56\n      jump\t// in\n    tag_54:\n      mload(0x40)\n      tag_57\n      swap2\n      swap1\n      tag_37\n      jump\t// in\n    tag_57:\n      mload(0x40)\n      dup1\n      swap2\n      sub\n      swap1\n      return\n        /* \"WandInstruments.sol\":694:740  uint256 public treasury1bal = 50000*(DECIMALS) */\n    tag_7:\n      callvalue\n      dup1\n      iszero\n      tag_58\n      jumpi\n      0x00\n      dup1\n      revert\n    tag_58:\n      pop\n      tag_59\n      tag_60\n      jump\t// in\n    tag_59:\n      mload(0x40)\n      tag_61\n      swap2\n      swap1\n      tag_37\n      jump\t// in\n    tag_61:\n      mload(0x40)\n      dup1\n      swap2\n      sub\n      swap1\n      return\n        /* \"WandInstruments.sol\":769:796  uint256 public timeLaunched */\n    tag_8:\n      callvalue\n      dup1\n      iszero\n      tag_62\n      jumpi\n      0x00\n      dup1\n      revert\n    tag_62:\n      pop\n      tag_63\n      tag_64\n      jump\t// in\n    tag_63:\n      mload(0x40)\n      tag_65\n      swap2\n      swap1\n      tag_37\n      jump\t// in\n    tag_65:\n      mload(0x40)\n      dup1\n      swap2\n      sub\n      swap1\n      return\n        /* \"WandInstruments.sol\":6998:7222  function getSellPrice() external view returns (uint256){\r... */\n    tag_9:\n      callvalue\n      dup1\n      iszero\n      tag_66\n      jumpi\n      0x00\n      dup1\n      revert\n    tag_66:\n      pop\n      tag_67\n      tag_68\n      jump\t// in\n    tag_67:\n      mload(0x40)\n      tag_69\n      swap2\n      swap1\n      tag_37\n      jump\t// in\n    tag_69:\n      mload(0x40)\n      dup1\n      swap2\n      sub\n      swap1\n      return\n        /* \"WandInstruments.sol\":3812:4002  function testMappings(uint256 t, uint256 _amt) public returns (uint256)\r... */\n    tag_10:\n      callvalue\n      dup1\n      iszero\n      tag_70\n      jumpi\n      0x00\n      dup1\n      revert\n    tag_70:\n      pop\n      tag_71\n      0x04\n      dup1\n      calldatasize\n      sub\n      dup2\n      add\n      swap1\n      tag_72\n      swap2\n      swap1\n      tag_73\n      jump\t// in\n    tag_72:\n      tag_74\n      jump\t// in\n    tag_71:\n      mload(0x40)\n      tag_75\n      swap2\n      swap1\n      tag_37\n      jump\t// in\n    tag_75:\n      mload(0x40)\n      dup1\n      swap2\n      sub\n      swap1\n      return\n        /* \"WandInstruments.sol\":3154:3333  function decDiv18(uint x, uint y) public pure returns (uint decQuotient) {\r... */\n    tag_11:\n      callvalue\n      dup1\n      iszero\n      tag_76\n      jumpi\n      0x00\n      dup1\n      revert\n    tag_76:\n      pop\n      tag_77\n      0x04\n      dup1\n      calldatasize\n      sub\n      dup2\n      add\n      swap1\n      tag_78\n      swap2\n      swap1\n      tag_73\n      jump\t// in\n    tag_78:\n      tag_79\n      jump\t// in\n    tag_77:\n      mload(0x40)\n      tag_80\n      swap2\n      swap1\n      tag_37\n      jump\t// in\n    tag_80:\n      mload(0x40)\n      dup1\n      swap2\n      sub\n      swap1\n      return\n        /* \"WandInstruments.sol\":4938:5860  function buyScepter(uint256 amountSCPtoBuy) public payable{\r... */\n    tag_12:\n      tag_81\n      0x04\n      dup1\n      calldatasize\n      sub\n      dup2\n      add\n      swap1\n      tag_82\n      swap2\n      swap1\n      tag_46\n      jump\t// in\n    tag_82:\n      tag_83\n      jump\t// in\n    tag_81:\n      stop\n        /* \"WandInstruments.sol\":803:835  uint256 public daysInCalculation */\n    tag_13:\n      callvalue\n      dup1\n      iszero\n      tag_84\n      jumpi\n      0x00\n      dup1\n      revert\n    tag_84:\n      pop\n      tag_85\n      tag_86\n      jump\t// in\n    tag_85:\n      mload(0x40)\n      tag_87\n      swap2\n      swap1\n      tag_37\n      jump\t// in\n    tag_87:\n      mload(0x40)\n      dup1\n      swap2\n      sub\n      swap1\n      return\n        /* \"WandInstruments.sol\":1276:1293  IERC20 public tSC */\n    tag_14:\n      callvalue\n      dup1\n      iszero\n      tag_88\n      jumpi\n      0x00\n      dup1\n      revert\n    tag_88:\n      pop\n      tag_89\n      tag_90\n      jump\t// in\n    tag_89:\n      mload(0x40)\n      tag_91\n      swap2\n      swap1\n      tag_92\n      jump\t// in\n    tag_91:\n      mload(0x40)\n      dup1\n      swap2\n      sub\n      swap1\n      return\n        /* \"WandInstruments.sol\":1054:1071  int128 public res */\n    tag_15:\n      callvalue\n      dup1\n      iszero\n      tag_93\n      jumpi\n      0x00\n      dup1\n      revert\n    tag_93:\n      pop\n      tag_94\n      tag_95\n      jump\t// in\n    tag_94:\n      mload(0x40)\n      tag_96\n      swap2\n      swap1\n      tag_97\n      jump\t// in\n    tag_96:\n      mload(0x40)\n      dup1\n      swap2\n      sub\n      swap1\n      return\n        /* \"WandInstruments.sol\":5983:6296  function getTokensBoughtXDays() external view returns (uint256){\r... */\n    tag_16:\n      callvalue\n      dup1\n      iszero\n      tag_98\n      jumpi\n      0x00\n      dup1\n      revert\n    tag_98:\n      pop\n      tag_99\n      tag_100\n      jump\t// in\n    tag_99:\n      mload(0x40)\n      tag_101\n      swap2\n      swap1\n      tag_37\n      jump\t// in\n    tag_101:\n      mload(0x40)\n      dup1\n      swap2\n      sub\n      swap1\n      return\n        /* \"WandInstruments.sol\":581:615  address public scepterTreasuryAddr */\n    tag_17:\n      callvalue\n      dup1\n      iszero\n      tag_102\n      jumpi\n      0x00\n      dup1\n      revert\n    tag_102:\n      pop\n      tag_103\n      tag_104\n      jump\t// in\n    tag_103:\n      mload(0x40)\n      tag_105\n      swap2\n      swap1\n      tag_42\n      jump\t// in\n    tag_105:\n      mload(0x40)\n      dup1\n      swap2\n      sub\n      swap1\n      return\n        /* \"WandInstruments.sol\":332:357  uint256 public sellFactor */\n    tag_18:\n      callvalue\n      dup1\n      iszero\n      tag_106\n      jumpi\n      0x00\n      dup1\n      revert\n    tag_106:\n      pop\n      tag_107\n      tag_108\n      jump\t// in\n    tag_107:\n      mload(0x40)\n      tag_109\n      swap2\n      swap1\n      tag_37\n      jump\t// in\n    tag_109:\n      mload(0x40)\n      dup1\n      swap2\n      sub\n      swap1\n      return\n        /* \"WandInstruments.sol\":6306:6609  function getTokensSoldXDays() external view returns (uint256){\r... */\n    tag_19:\n      callvalue\n      dup1\n      iszero\n      tag_110\n      jumpi\n      0x00\n      dup1\n      revert\n    tag_110:\n      pop\n      tag_111\n      tag_112\n      jump\t// in\n    tag_111:\n      mload(0x40)\n      tag_113\n      swap2\n      swap1\n      tag_37\n      jump\t// in\n    tag_113:\n      mload(0x40)\n      dup1\n      swap2\n      sub\n      swap1\n      return\n        /* \"WandInstruments.sol\":4008:4932  function sellScepter(uint256 amountSCPtoSell) public payable{\r... */\n    tag_20:\n      tag_114\n      0x04\n      dup1\n      calldatasize\n      sub\n      dup2\n      add\n      swap1\n      tag_115\n      swap2\n      swap1\n      tag_46\n      jump\t// in\n    tag_115:\n      tag_116\n      jump\t// in\n    tag_114:\n      stop\n        /* \"WandInstruments.sol\":1322:1344  IERC20 public mockUSDC */\n    tag_21:\n      callvalue\n      dup1\n      iszero\n      tag_117\n      jumpi\n      0x00\n      dup1\n      revert\n    tag_117:\n      pop\n      tag_118\n      tag_119\n      jump\t// in\n    tag_118:\n      mload(0x40)\n      tag_120\n      swap2\n      swap1\n      tag_92\n      jump\t// in\n    tag_120:\n      mload(0x40)\n      dup1\n      swap2\n      sub\n      swap1\n      return\n        /* \"WandInstruments.sol\":3341:3525  function queryERC20Balance(address _tokenAddress, address _addressToQuery) view public returns (uint) {\r... */\n    tag_22:\n      callvalue\n      dup1\n      iszero\n      tag_121\n      jumpi\n      0x00\n      dup1\n      revert\n    tag_121:\n      pop\n      tag_122\n      0x04\n      dup1\n      calldatasize\n      sub\n      dup2\n      add\n      swap1\n      tag_123\n      swap2\n      swap1\n      tag_124\n      jump\t// in\n    tag_123:\n      tag_125\n      jump\t// in\n    tag_122:\n      mload(0x40)\n      tag_126\n      swap2\n      swap1\n      tag_37\n      jump\t// in\n    tag_126:\n      mload(0x40)\n      dup1\n      swap2\n      sub\n      swap1\n      return\n        /* \"WandInstruments.sol\":298:325  uint256 public growthFactor */\n    tag_23:\n      callvalue\n      dup1\n      iszero\n      tag_127\n      jumpi\n      0x00\n      dup1\n      revert\n    tag_127:\n      pop\n      tag_128\n      tag_129\n      jump\t// in\n    tag_128:\n      mload(0x40)\n      tag_130\n      swap2\n      swap1\n      tag_37\n      jump\t// in\n    tag_130:\n      mload(0x40)\n      dup1\n      swap2\n      sub\n      swap1\n      return\n        /* \"WandInstruments.sol\":1078:1148  address public testwallet = 0x617F2E2fD72FD9D5503197092aC168c91465E7f2 */\n    tag_24:\n      callvalue\n      dup1\n      iszero\n      tag_131\n      jumpi\n      0x00\n      dup1\n      revert\n    tag_131:\n      pop\n      tag_132\n      tag_133\n      jump\t// in\n    tag_132:\n      mload(0x40)\n      tag_134\n      swap2\n      swap1\n      tag_42\n      jump\t// in\n    tag_134:\n      mload(0x40)\n      dup1\n      swap2\n      sub\n      swap1\n      return\n        /* \"WandInstruments.sol\":2976:3146  function decMul18(uint x, uint y) public pure returns (uint decProd) {\r... */\n    tag_25:\n      callvalue\n      dup1\n      iszero\n      tag_135\n      jumpi\n      0x00\n      dup1\n      revert\n    tag_135:\n      pop\n      tag_136\n      0x04\n      dup1\n      calldatasize\n      sub\n      dup2\n      add\n      swap1\n      tag_137\n      swap2\n      swap1\n      tag_73\n      jump\t// in\n    tag_137:\n      tag_138\n      jump\t// in\n    tag_136:\n      mload(0x40)\n      tag_139\n      swap2\n      swap1\n      tag_37\n      jump\t// in\n    tag_139:\n      mload(0x40)\n      dup1\n      swap2\n      sub\n      swap1\n      return\n        /* \"WandInstruments.sol\":546:574  address public treasury1Addr */\n    tag_26:\n      callvalue\n      dup1\n      iszero\n      tag_140\n      jumpi\n      0x00\n      dup1\n      revert\n    tag_140:\n      pop\n      tag_141\n      tag_142\n      jump\t// in\n    tag_141:\n      mload(0x40)\n      tag_143\n      swap2\n      swap1\n      tag_42\n      jump\t// in\n    tag_143:\n      mload(0x40)\n      dup1\n      swap2\n      sub\n      swap1\n      return\n        /* \"WandInstruments.sol\":3656:3806  function setDaysUsedInFactors(uint256 numDays) public {  \r... */\n    tag_27:\n      callvalue\n      dup1\n      iszero\n      tag_144\n      jumpi\n      0x00\n      dup1\n      revert\n    tag_144:\n      pop\n      tag_145\n      0x04\n      dup1\n      calldatasize\n      sub\n      dup2\n      add\n      swap1\n      tag_146\n      swap2\n      swap1\n      tag_46\n      jump\t// in\n    tag_146:\n      tag_147\n      jump\t// in\n    tag_145:\n      stop\n        /* \"WandInstruments.sol\":6831:6992  function getBuyPrice() external view returns (uint256){\r... */\n    tag_35:\n        /* \"WandInstruments.sol\":6877:6884  uint256 */\n      0x00\n        /* \"WandInstruments.sol\":6974:6980  10**18 */\n      0x0de0b6b3a7640000\n        /* \"WandInstruments.sol\":6959:6969  sellFactor */\n      sload(0x01)\n        /* \"WandInstruments.sol\":6940:6956  (9/10) *(10**18) */\n      0x0c7d713b49da0000\n        /* \"WandInstruments.sol\":6940:6969  (9/10) *(10**18) - sellFactor */\n      tag_149\n      swap2\n      swap1\n      tag_150\n      jump\t// in\n    tag_149:\n        /* \"WandInstruments.sol\":6914:6918  this */\n      address\n        /* \"WandInstruments.sol\":6914:6934  this.getBackingPrice */\n      0xffffffffffffffffffffffffffffffffffffffff\n      and\n      0x1f564a06\n        /* \"WandInstruments.sol\":6914:6936  this.getBackingPrice() */\n      mload(0x40)\n      dup2\n      0xffffffff\n      and\n      0xe0\n      shl\n      dup2\n      mstore\n      0x04\n      add\n      0x20\n      mload(0x40)\n      dup1\n      dup4\n      sub\n      dup2\n      dup7\n      dup1\n      extcodesize\n      iszero\n      dup1\n      iszero\n      tag_151\n      jumpi\n      0x00\n      dup1\n      revert\n    tag_151:\n      pop\n      gas\n      staticcall\n      iszero\n      dup1\n      iszero\n      tag_153\n      jumpi\n      returndatasize\n      0x00\n      dup1\n      returndatacopy\n      revert(0x00, returndatasize)\n    tag_153:\n      pop\n      pop\n      pop\n      pop\n      mload(0x40)\n      returndatasize\n      not(0x1f)\n      0x1f\n      dup3\n      add\n      and\n      dup3\n      add\n      dup1\n      0x40\n      mstore\n      pop\n      dup2\n      add\n      swap1\n      tag_154\n      swap2\n      swap1\n      tag_155\n      jump\t// in\n    tag_154:\n        /* \"WandInstruments.sol\":6914:6970  this.getBackingPrice() * ((9/10) *(10**18) - sellFactor) */\n      tag_156\n      swap2\n      swap1\n      tag_157\n      jump\t// in\n    tag_156:\n        /* \"WandInstruments.sol\":6914:6981  this.getBackingPrice() * ((9/10) *(10**18) - sellFactor) / (10**18) */\n      tag_158\n      swap2\n      swap1\n      tag_159\n      jump\t// in\n    tag_158:\n        /* \"WandInstruments.sol\":6906:6982  return (this.getBackingPrice() * ((9/10) *(10**18) - sellFactor) / (10**18)) */\n      swap1\n      pop\n        /* \"WandInstruments.sol\":6831:6992  function getBuyPrice() external view returns (uint256){\r... */\n      swap1\n      jump\t// out\n        /* \"WandInstruments.sol\":622:653  address public riskTreasuryAddr */\n    tag_40:\n      0x08\n      0x00\n      swap1\n      sload\n      swap1\n      0x0100\n      exp\n      swap1\n      div\n      0xffffffffffffffffffffffffffffffffffffffff\n      and\n      dup2\n      jump\t// out\n        /* \"WandInstruments.sol\":1461:1511  mapping(uint256 => uint256) public tokensSoldXDays */\n    tag_47:\n      mstore(0x20, 0x14)\n      dup1\n      0x00\n      mstore\n      keccak256(0x00, 0x40)\n      0x00\n      swap2\n      pop\n      swap1\n      pop\n      sload\n      dup2\n      jump\t// out\n        /* \"WandInstruments.sol\":6617:6825  function getBackingPrice() external view returns (uint256){\r... */\n    tag_51:\n        /* \"WandInstruments.sol\":6667:6674  uint256 */\n      0x00\n        /* \"WandInstruments.sol\":6754:6794  decDiv18(treasury1bal,tSC.totalSupply()) */\n      tag_161\n        /* \"WandInstruments.sol\":6763:6775  treasury1bal */\n      sload(0x09)\n        /* \"WandInstruments.sol\":6776:6779  tSC */\n      0x11\n      0x00\n      swap1\n      sload\n      swap1\n      0x0100\n      exp\n      swap1\n      div\n      0xffffffffffffffffffffffffffffffffffffffff\n      and\n        /* \"WandInstruments.sol\":6776:6791  tSC.totalSupply */\n      0xffffffffffffffffffffffffffffffffffffffff\n      and\n      0x18160ddd\n        /* \"WandInstruments.sol\":6776:6793  tSC.totalSupply() */\n      mload(0x40)\n      dup2\n      0xffffffff\n      and\n      0xe0\n      shl\n      dup2\n      mstore\n      0x04\n      add\n      0x20\n      mload(0x40)\n      dup1\n      dup4\n      sub\n      dup2\n      dup7\n      dup1\n      extcodesize\n      iszero\n      dup1\n      iszero\n      tag_162\n      jumpi\n      0x00\n      dup1\n      revert\n    tag_162:\n      pop\n      gas\n      staticcall\n      iszero\n      dup1\n      iszero\n      tag_164\n      jumpi\n      returndatasize\n      0x00\n      dup1\n      returndatacopy\n      revert(0x00, returndatasize)\n    tag_164:\n      pop\n      pop\n      pop\n      pop\n      mload(0x40)\n      returndatasize\n      not(0x1f)\n      0x1f\n      dup3\n      add\n      and\n      dup3\n      add\n      dup1\n      0x40\n      mstore\n      pop\n      dup2\n      add\n      swap1\n      tag_165\n      swap2\n      swap1\n      tag_155\n      jump\t// in\n    tag_165:\n        /* \"WandInstruments.sol\":6754:6762  decDiv18 */\n      tag_79\n        /* \"WandInstruments.sol\":6754:6794  decDiv18(treasury1bal,tSC.totalSupply()) */\n      jump\t// in\n    tag_161:\n        /* \"WandInstruments.sol\":6747:6794  return decDiv18(treasury1bal,tSC.totalSupply()) */\n      swap1\n      pop\n        /* \"WandInstruments.sol\":6617:6825  function getBackingPrice() external view returns (uint256){\r... */\n      swap1\n      jump\t// out\n        /* \"WandInstruments.sol\":1402:1454  mapping(uint256 => uint256) public tokensBoughtXDays */\n    tag_56:\n      mstore(0x20, 0x13)\n      dup1\n      0x00\n      mstore\n      keccak256(0x00, 0x40)\n      0x00\n      swap2\n      pop\n      swap1\n      pop\n      sload\n      dup2\n      jump\t// out\n        /* \"WandInstruments.sol\":694:740  uint256 public treasury1bal = 50000*(DECIMALS) */\n    tag_60:\n      sload(0x09)\n      dup2\n      jump\t// out\n        /* \"WandInstruments.sol\":769:796  uint256 public timeLaunched */\n    tag_64:\n      sload(0x0a)\n      dup2\n      jump\t// out\n        /* \"WandInstruments.sol\":6998:7222  function getSellPrice() external view returns (uint256){\r... */\n    tag_68:\n        /* \"WandInstruments.sol\":7045:7052  uint256 */\n      0x00\n        /* \"WandInstruments.sol\":283:289  10**18 */\n      0x0de0b6b3a7640000\n        /* \"WandInstruments.sol\":7198:7199  5 */\n      0x05\n        /* \"WandInstruments.sol\":283:289  10**18 */\n      0x0de0b6b3a7640000\n        /* \"WandInstruments.sol\":7185:7186  6 */\n      0x06\n        /* \"WandInstruments.sol\":7185:7197  6*(DECIMALS) */\n      tag_167\n      swap2\n      swap1\n      tag_157\n      jump\t// in\n    tag_167:\n        /* \"WandInstruments.sol\":7185:7199  6*(DECIMALS)/5 */\n      tag_168\n      swap2\n      swap1\n      tag_159\n      jump\t// in\n    tag_168:\n        /* \"WandInstruments.sol\":7169:7181  growthFactor */\n      sload(0x00)\n        /* \"WandInstruments.sol\":7169:7200  growthFactor + (6*(DECIMALS)/5) */\n      tag_169\n      swap2\n      swap1\n      tag_170\n      jump\t// in\n    tag_169:\n        /* \"WandInstruments.sol\":7143:7147  this */\n      address\n        /* \"WandInstruments.sol\":7143:7163  this.getBackingPrice */\n      0xffffffffffffffffffffffffffffffffffffffff\n      and\n      0x1f564a06\n        /* \"WandInstruments.sol\":7143:7165  this.getBackingPrice() */\n      mload(0x40)\n      dup2\n      0xffffffff\n      and\n      0xe0\n      shl\n      dup2\n      mstore\n      0x04\n      add\n      0x20\n      mload(0x40)\n      dup1\n      dup4\n      sub\n      dup2\n      dup7\n      dup1\n      extcodesize\n      iszero\n      dup1\n      iszero\n      tag_171\n      jumpi\n      0x00\n      dup1\n      revert\n    tag_171:\n      pop\n      gas\n      staticcall\n      iszero\n      dup1\n      iszero\n      tag_173\n      jumpi\n      returndatasize\n      0x00\n      dup1\n      returndatacopy\n      revert(0x00, returndatasize)\n    tag_173:\n      pop\n      pop\n      pop\n      pop\n      mload(0x40)\n      returndatasize\n      not(0x1f)\n      0x1f\n      dup3\n      add\n      and\n      dup3\n      add\n      dup1\n      0x40\n      mstore\n      pop\n      dup2\n      add\n      swap1\n      tag_174\n      swap2\n      swap1\n      tag_155\n      jump\t// in\n    tag_174:\n        /* \"WandInstruments.sol\":7143:7201  this.getBackingPrice() * (growthFactor + (6*(DECIMALS)/5)) */\n      tag_175\n      swap2\n      swap1\n      tag_157\n      jump\t// in\n    tag_175:\n        /* \"WandInstruments.sol\":7142:7214  (this.getBackingPrice() * (growthFactor + (6*(DECIMALS)/5)))/ (DECIMALS) */\n      tag_176\n      swap2\n      swap1\n      tag_159\n      jump\t// in\n    tag_176:\n        /* \"WandInstruments.sol\":7135:7214  return (this.getBackingPrice() * (growthFactor + (6*(DECIMALS)/5)))/ (DECIMALS) */\n      swap1\n      pop\n        /* \"WandInstruments.sol\":6998:7222  function getSellPrice() external view returns (uint256){\r... */\n      swap1\n      jump\t// out\n        /* \"WandInstruments.sol\":3812:4002  function testMappings(uint256 t, uint256 _amt) public returns (uint256)\r... */\n    tag_74:\n        /* \"WandInstruments.sol\":3875:3882  uint256 */\n      0x00\n        /* \"WandInstruments.sol\":3899:3908  uint256 i */\n      dup1\n        /* \"WandInstruments.sol\":3932:3937  86400 */\n      0x015180\n        /* \"WandInstruments.sol\":3916:3928  timeLaunched */\n      sload(0x0a)\n        /* \"WandInstruments.sol\":3912:3913  t */\n      dup6\n        /* \"WandInstruments.sol\":3912:3928  t - timeLaunched */\n      tag_178\n      swap2\n      swap1\n      tag_150\n      jump\t// in\n    tag_178:\n        /* \"WandInstruments.sol\":3911:3937  (t - timeLaunched) / 86400 */\n      tag_179\n      swap2\n      swap1\n      tag_159\n      jump\t// in\n    tag_179:\n        /* \"WandInstruments.sol\":3899:3937  uint256 i = (t - timeLaunched) / 86400 */\n      swap1\n      pop\n        /* \"WandInstruments.sol\":3971:3975  _amt */\n      dup3\n        /* \"WandInstruments.sol\":3948:3965  tokensBoughtXDays */\n      0x13\n        /* \"WandInstruments.sol\":3948:3968  tokensBoughtXDays[i] */\n      0x00\n        /* \"WandInstruments.sol\":3966:3967  i */\n      dup4\n        /* \"WandInstruments.sol\":3948:3968  tokensBoughtXDays[i] */\n      dup2\n      mstore\n      0x20\n      add\n      swap1\n      dup2\n      mstore\n      0x20\n      add\n      0x00\n      keccak256\n        /* \"WandInstruments.sol\":3948:3975  tokensBoughtXDays[i] = _amt */\n      dup2\n      swap1\n      sstore\n      pop\n        /* \"WandInstruments.sol\":3993:3994  i */\n      dup1\n        /* \"WandInstruments.sol\":3986:3994  return i */\n      swap2\n      pop\n      pop\n        /* \"WandInstruments.sol\":3812:4002  function testMappings(uint256 t, uint256 _amt) public returns (uint256)\r... */\n      swap3\n      swap2\n      pop\n      pop\n      jump\t// out\n        /* \"WandInstruments.sol\":3154:3333  function decDiv18(uint x, uint y) public pure returns (uint decQuotient) {\r... */\n    tag_79:\n        /* \"WandInstruments.sol\":3209:3225  uint decQuotient */\n      0x00\n        /* \"WandInstruments.sol\":3238:3254  uint prod_xTEN18 */\n      dup1\n        /* \"WandInstruments.sol\":3257:3273  mul(x, DECIMALS) */\n      tag_181\n        /* \"WandInstruments.sol\":3261:3262  x */\n      dup5\n        /* \"WandInstruments.sol\":283:289  10**18 */\n      0x0de0b6b3a7640000\n        /* \"WandInstruments.sol\":3257:3260  mul */\n      tag_182\n        /* \"WandInstruments.sol\":3257:3273  mul(x, DECIMALS) */\n      jump\t// in\n    tag_181:\n        /* \"WandInstruments.sol\":3238:3273  uint prod_xTEN18 = mul(x, DECIMALS) */\n      swap1\n      pop\n        /* \"WandInstruments.sol\":3324:3325  y */\n      dup3\n        /* \"WandInstruments.sol\":3298:3321  add(prod_xTEN18, y / 2) */\n      tag_183\n        /* \"WandInstruments.sol\":3302:3313  prod_xTEN18 */\n      dup3\n        /* \"WandInstruments.sol\":3319:3320  2 */\n      0x02\n        /* \"WandInstruments.sol\":3315:3316  y */\n      dup7\n        /* \"WandInstruments.sol\":3315:3320  y / 2 */\n      tag_184\n      swap2\n      swap1\n      tag_159\n      jump\t// in\n    tag_184:\n        /* \"WandInstruments.sol\":3298:3301  add */\n      tag_185\n        /* \"WandInstruments.sol\":3298:3321  add(prod_xTEN18, y / 2) */\n      jump\t// in\n    tag_183:\n        /* \"WandInstruments.sol\":3298:3325  add(prod_xTEN18, y / 2) / y */\n      tag_186\n      swap2\n      swap1\n      tag_159\n      jump\t// in\n    tag_186:\n        /* \"WandInstruments.sol\":3284:3325  decQuotient = add(prod_xTEN18, y / 2) / y */\n      swap2\n      pop\n        /* \"WandInstruments.sol\":3227:3333  {\r... */\n      pop\n        /* \"WandInstruments.sol\":3154:3333  function decDiv18(uint x, uint y) public pure returns (uint decQuotient) {\r... */\n      swap3\n      swap2\n      pop\n      pop\n      jump\t// out\n        /* \"WandInstruments.sol\":4938:5860  function buyScepter(uint256 amountSCPtoBuy) public payable{\r... */\n    tag_83:\n        /* \"WandInstruments.sol\":5068:5095  uint256 trader_usdc_balance */\n      0x00\n        /* \"WandInstruments.sol\":5098:5106  mockUSDC */\n      0x12\n      0x00\n      swap1\n      sload\n      swap1\n      0x0100\n      exp\n      swap1\n      div\n      0xffffffffffffffffffffffffffffffffffffffff\n      and\n        /* \"WandInstruments.sol\":5098:5116  mockUSDC.balanceOf */\n      0xffffffffffffffffffffffffffffffffffffffff\n      and\n      0x70a08231\n        /* \"WandInstruments.sol\":5117:5127  msg.sender */\n      caller\n        /* \"WandInstruments.sol\":5098:5128  mockUSDC.balanceOf(msg.sender) */\n      mload(0x40)\n      dup3\n      0xffffffff\n      and\n      0xe0\n      shl\n      dup2\n      mstore\n      0x04\n      add\n      tag_188\n      swap2\n      swap1\n      tag_42\n      jump\t// in\n    tag_188:\n      0x20\n      mload(0x40)\n      dup1\n      dup4\n      sub\n      dup2\n      dup7\n      dup1\n      extcodesize\n      iszero\n      dup1\n      iszero\n      tag_189\n      jumpi\n      0x00\n      dup1\n      revert\n    tag_189:\n      pop\n      gas\n      staticcall\n      iszero\n      dup1\n      iszero\n      tag_191\n      jumpi\n      returndatasize\n      0x00\n      dup1\n      returndatacopy\n      revert(0x00, returndatasize)\n    tag_191:\n      pop\n      pop\n      pop\n      pop\n      mload(0x40)\n      returndatasize\n      not(0x1f)\n      0x1f\n      dup3\n      add\n      and\n      dup3\n      add\n      dup1\n      0x40\n      mstore\n      pop\n      dup2\n      add\n      swap1\n      tag_192\n      swap2\n      swap1\n      tag_155\n      jump\t// in\n    tag_192:\n        /* \"WandInstruments.sol\":5068:5128  uint256 trader_usdc_balance = mockUSDC.balanceOf(msg.sender) */\n      swap1\n      pop\n        /* \"WandInstruments.sol\":5169:5183  amountSCPtoBuy */\n      dup2\n        /* \"WandInstruments.sol\":5147:5166  trader_usdc_balance */\n      dup2\n        /* \"WandInstruments.sol\":5147:5183  trader_usdc_balance > amountSCPtoBuy */\n      gt\n        /* \"WandInstruments.sol\":5139:5214  require(trader_usdc_balance > amountSCPtoBuy, \"You dont have that amount!\") */\n      tag_193\n      jumpi\n      mload(0x40)\n      0x08c379a000000000000000000000000000000000000000000000000000000000\n      dup2\n      mstore\n      0x04\n      add\n      tag_194\n      swap1\n      tag_195\n      jump\t// in\n    tag_194:\n      mload(0x40)\n      dup1\n      swap2\n      sub\n      swap1\n      revert\n    tag_193:\n        /* \"WandInstruments.sol\":5265:5268  tSC */\n      0x11\n      0x00\n      swap1\n      sload\n      swap1\n      0x0100\n      exp\n      swap1\n      div\n      0xffffffffffffffffffffffffffffffffffffffff\n      and\n        /* \"WandInstruments.sol\":5265:5277  tSC.transfer */\n      0xffffffffffffffffffffffffffffffffffffffff\n      and\n      0xa9059cbb\n        /* \"WandInstruments.sol\":5278:5288  msg.sender */\n      caller\n        /* \"WandInstruments.sol\":5290:5304  amountSCPtoBuy */\n      dup5\n        /* \"WandInstruments.sol\":5265:5305  tSC.transfer(msg.sender, amountSCPtoBuy) */\n      mload(0x40)\n      dup4\n      0xffffffff\n      and\n      0xe0\n      shl\n      dup2\n      mstore\n      0x04\n      add\n      tag_196\n      swap3\n      swap2\n      swap1\n      tag_197\n      jump\t// in\n    tag_196:\n      0x20\n      mload(0x40)\n      dup1\n      dup4\n      sub\n      dup2\n      0x00\n      dup8\n      dup1\n      extcodesize\n      iszero\n      dup1\n      iszero\n      tag_198\n      jumpi\n      0x00\n      dup1\n      revert\n    tag_198:\n      pop\n      gas\n      call\n      iszero\n      dup1\n      iszero\n      tag_200\n      jumpi\n      returndatasize\n      0x00\n      dup1\n      returndatacopy\n      revert(0x00, returndatasize)\n    tag_200:\n      pop\n      pop\n      pop\n      pop\n      mload(0x40)\n      returndatasize\n      not(0x1f)\n      0x1f\n      dup3\n      add\n      and\n      dup3\n      add\n      dup1\n      0x40\n      mstore\n      pop\n      dup2\n      add\n      swap1\n      tag_201\n      swap2\n      swap1\n      tag_202\n      jump\t// in\n    tag_201:\n      pop\n        /* \"WandInstruments.sol\":5439:5509  _safeTransferFrom(mockUSDC, msg.sender, address(this), amountSCPtoBuy) */\n      tag_203\n        /* \"WandInstruments.sol\":5457:5465  mockUSDC */\n      0x12\n      0x00\n      swap1\n      sload\n      swap1\n      0x0100\n      exp\n      swap1\n      div\n      0xffffffffffffffffffffffffffffffffffffffff\n      and\n        /* \"WandInstruments.sol\":5467:5477  msg.sender */\n      caller\n        /* \"WandInstruments.sol\":5487:5491  this */\n      address\n        /* \"WandInstruments.sol\":5494:5508  amountSCPtoBuy */\n      dup6\n        /* \"WandInstruments.sol\":5439:5456  _safeTransferFrom */\n      tag_204\n        /* \"WandInstruments.sol\":5439:5509  _safeTransferFrom(mockUSDC, msg.sender, address(this), amountSCPtoBuy) */\n      jump\t// in\n    tag_203:\n        /* \"WandInstruments.sol\":5738:5754  uint256 dInArray */\n      0x00\n        /* \"WandInstruments.sol\":5788:5793  86400 */\n      0x015180\n        /* \"WandInstruments.sol\":5774:5786  timeLaunched */\n      sload(0x0a)\n        /* \"WandInstruments.sol\":5757:5772  block.timestamp */\n      timestamp\n        /* \"WandInstruments.sol\":5757:5786  block.timestamp- timeLaunched */\n      tag_205\n      swap2\n      swap1\n      tag_150\n      jump\t// in\n    tag_205:\n        /* \"WandInstruments.sol\":5756:5793  (block.timestamp- timeLaunched)/86400 */\n      tag_206\n      swap2\n      swap1\n      tag_159\n      jump\t// in\n    tag_206:\n        /* \"WandInstruments.sol\":5738:5793  uint256 dInArray =(block.timestamp- timeLaunched)/86400 */\n      swap1\n      pop\n        /* \"WandInstruments.sol\":5836:5850  amountSCPtoBuy */\n      dup3\n        /* \"WandInstruments.sol\":5805:5822  tokensBoughtXDays */\n      0x13\n        /* \"WandInstruments.sol\":5805:5832  tokensBoughtXDays[dInArray] */\n      0x00\n        /* \"WandInstruments.sol\":5823:5831  dInArray */\n      dup4\n        /* \"WandInstruments.sol\":5805:5832  tokensBoughtXDays[dInArray] */\n      dup2\n      mstore\n      0x20\n      add\n      swap1\n      dup2\n      mstore\n      0x20\n      add\n      0x00\n      keccak256\n      0x00\n        /* \"WandInstruments.sol\":5805:5850  tokensBoughtXDays[dInArray] += amountSCPtoBuy */\n      dup3\n      dup3\n      sload\n      tag_207\n      swap2\n      swap1\n      tag_170\n      jump\t// in\n    tag_207:\n      swap3\n      pop\n      pop\n      dup2\n      swap1\n      sstore\n      pop\n        /* \"WandInstruments.sol\":4996:5860  {\r... */\n      pop\n      pop\n        /* \"WandInstruments.sol\":4938:5860  function buyScepter(uint256 amountSCPtoBuy) public payable{\r... */\n      pop\n      jump\t// out\n        /* \"WandInstruments.sol\":803:835  uint256 public daysInCalculation */\n    tag_86:\n      sload(0x0b)\n      dup2\n      jump\t// out\n        /* \"WandInstruments.sol\":1276:1293  IERC20 public tSC */\n    tag_90:\n      0x11\n      0x00\n      swap1\n      sload\n      swap1\n      0x0100\n      exp\n      swap1\n      div\n      0xffffffffffffffffffffffffffffffffffffffff\n      and\n      dup2\n      jump\t// out\n        /* \"WandInstruments.sol\":1054:1071  int128 public res */\n    tag_95:\n      0x0f\n      0x00\n      swap1\n      sload\n      swap1\n      0x0100\n      exp\n      swap1\n      div\n      0x0f\n      signextend\n      dup2\n      jump\t// out\n        /* \"WandInstruments.sol\":5983:6296  function getTokensBoughtXDays() external view returns (uint256){\r... */\n    tag_100:\n        /* \"WandInstruments.sol\":6038:6045  uint256 */\n      0x00\n        /* \"WandInstruments.sol\":6057:6074  uint256 boughtnum */\n      dup1\n        /* \"WandInstruments.sol\":6085:6094  uint256 d */\n      0x00\n        /* \"WandInstruments.sol\":6105:6120  uint256 numdays */\n      dup1\n        /* \"WandInstruments.sol\":6141:6146  86400 */\n      0x015180\n        /* \"WandInstruments.sol\":6123:6140  daysInCalculation */\n      sload(0x0b)\n        /* \"WandInstruments.sol\":6123:6146  daysInCalculation/86400 */\n      tag_209\n      swap2\n      swap1\n      tag_159\n      jump\t// in\n    tag_209:\n        /* \"WandInstruments.sol\":6105:6146  uint256 numdays = daysInCalculation/86400 */\n      swap1\n      pop\n        /* \"WandInstruments.sol\":6166:6167  0 */\n      0x00\n        /* \"WandInstruments.sol\":6162:6167  d = 0 */\n      swap2\n      pop\n        /* \"WandInstruments.sol\":6157:6263  for (d = 0; d < numdays; d++) {  //for loop example\r... */\n    tag_210:\n        /* \"WandInstruments.sol\":6173:6180  numdays */\n      dup1\n        /* \"WandInstruments.sol\":6169:6170  d */\n      dup3\n        /* \"WandInstruments.sol\":6169:6180  d < numdays */\n      lt\n        /* \"WandInstruments.sol\":6157:6263  for (d = 0; d < numdays; d++) {  //for loop example\r... */\n      iszero\n      tag_211\n      jumpi\n        /* \"WandInstruments.sol\":6233:6250  tokensBoughtXDays */\n      0x13\n        /* \"WandInstruments.sol\":6233:6253  tokensBoughtXDays[d] */\n      0x00\n        /* \"WandInstruments.sol\":6251:6252  d */\n      dup4\n        /* \"WandInstruments.sol\":6233:6253  tokensBoughtXDays[d] */\n      dup2\n      mstore\n      0x20\n      add\n      swap1\n      dup2\n      mstore\n      0x20\n      add\n      0x00\n      keccak256\n      sload\n        /* \"WandInstruments.sol\":6220:6253  boughtnum += tokensBoughtXDays[d] */\n      dup4\n      tag_213\n      swap2\n      swap1\n      tag_170\n      jump\t// in\n    tag_213:\n      swap3\n      pop\n        /* \"WandInstruments.sol\":6182:6185  d++ */\n      dup2\n      dup1\n      tag_214\n      swap1\n      tag_215\n      jump\t// in\n    tag_214:\n      swap3\n      pop\n      pop\n        /* \"WandInstruments.sol\":6157:6263  for (d = 0; d < numdays; d++) {  //for loop example\r... */\n      jump(tag_210)\n    tag_211:\n        /* \"WandInstruments.sol\":6279:6288  boughtnum */\n      dup3\n        /* \"WandInstruments.sol\":6272:6288  return boughtnum */\n      swap4\n      pop\n      pop\n      pop\n      pop\n        /* \"WandInstruments.sol\":5983:6296  function getTokensBoughtXDays() external view returns (uint256){\r... */\n      swap1\n      jump\t// out\n        /* \"WandInstruments.sol\":581:615  address public scepterTreasuryAddr */\n    tag_104:\n      0x07\n      0x00\n      swap1\n      sload\n      swap1\n      0x0100\n      exp\n      swap1\n      div\n      0xffffffffffffffffffffffffffffffffffffffff\n      and\n      dup2\n      jump\t// out\n        /* \"WandInstruments.sol\":332:357  uint256 public sellFactor */\n    tag_108:\n      sload(0x01)\n      dup2\n      jump\t// out\n        /* \"WandInstruments.sol\":6306:6609  function getTokensSoldXDays() external view returns (uint256){\r... */\n    tag_112:\n        /* \"WandInstruments.sol\":6359:6366  uint256 */\n      0x00\n        /* \"WandInstruments.sol\":6378:6393  uint256 soldNum */\n      dup1\n        /* \"WandInstruments.sol\":6404:6413  uint256 d */\n      0x00\n        /* \"WandInstruments.sol\":6424:6439  uint256 numdays */\n      dup1\n        /* \"WandInstruments.sol\":6460:6465  86400 */\n      0x015180\n        /* \"WandInstruments.sol\":6442:6459  daysInCalculation */\n      sload(0x0b)\n        /* \"WandInstruments.sol\":6442:6465  daysInCalculation/86400 */\n      tag_217\n      swap2\n      swap1\n      tag_159\n      jump\t// in\n    tag_217:\n        /* \"WandInstruments.sol\":6424:6465  uint256 numdays = daysInCalculation/86400 */\n      swap1\n      pop\n        /* \"WandInstruments.sol\":6485:6486  0 */\n      0x00\n        /* \"WandInstruments.sol\":6481:6486  d = 0 */\n      swap2\n      pop\n        /* \"WandInstruments.sol\":6476:6578  for (d = 0; d < numdays; d++) {  //for loop example\r... */\n    tag_218:\n        /* \"WandInstruments.sol\":6492:6499  numdays */\n      dup1\n        /* \"WandInstruments.sol\":6488:6489  d */\n      dup3\n        /* \"WandInstruments.sol\":6488:6499  d < numdays */\n      lt\n        /* \"WandInstruments.sol\":6476:6578  for (d = 0; d < numdays; d++) {  //for loop example\r... */\n      iszero\n      tag_219\n      jumpi\n        /* \"WandInstruments.sol\":6550:6565  tokensSoldXDays */\n      0x14\n        /* \"WandInstruments.sol\":6550:6568  tokensSoldXDays[d] */\n      0x00\n        /* \"WandInstruments.sol\":6566:6567  d */\n      dup4\n        /* \"WandInstruments.sol\":6550:6568  tokensSoldXDays[d] */\n      dup2\n      mstore\n      0x20\n      add\n      swap1\n      dup2\n      mstore\n      0x20\n      add\n      0x00\n      keccak256\n      sload\n        /* \"WandInstruments.sol\":6539:6568  soldNum += tokensSoldXDays[d] */\n      dup4\n      tag_221\n      swap2\n      swap1\n      tag_170\n      jump\t// in\n    tag_221:\n      swap3\n      pop\n        /* \"WandInstruments.sol\":6501:6504  d++ */\n      dup2\n      dup1\n      tag_222\n      swap1\n      tag_215\n      jump\t// in\n    tag_222:\n      swap3\n      pop\n      pop\n        /* \"WandInstruments.sol\":6476:6578  for (d = 0; d < numdays; d++) {  //for loop example\r... */\n      jump(tag_218)\n    tag_219:\n        /* \"WandInstruments.sol\":6594:6601  soldNum */\n      dup3\n        /* \"WandInstruments.sol\":6587:6601  return soldNum */\n      swap4\n      pop\n      pop\n      pop\n      pop\n        /* \"WandInstruments.sol\":6306:6609  function getTokensSoldXDays() external view returns (uint256){\r... */\n      swap1\n      jump\t// out\n        /* \"WandInstruments.sol\":4008:4932  function sellScepter(uint256 amountSCPtoSell) public payable{\r... */\n    tag_116:\n        /* \"WandInstruments.sol\":4140:4166  uint256 trader_tsc_balance */\n      0x00\n        /* \"WandInstruments.sol\":4169:4172  tSC */\n      0x11\n      0x00\n      swap1\n      sload\n      swap1\n      0x0100\n      exp\n      swap1\n      div\n      0xffffffffffffffffffffffffffffffffffffffff\n      and\n        /* \"WandInstruments.sol\":4169:4182  tSC.balanceOf */\n      0xffffffffffffffffffffffffffffffffffffffff\n      and\n      0x70a08231\n        /* \"WandInstruments.sol\":4183:4193  msg.sender */\n      caller\n        /* \"WandInstruments.sol\":4169:4194  tSC.balanceOf(msg.sender) */\n      mload(0x40)\n      dup3\n      0xffffffff\n      and\n      0xe0\n      shl\n      dup2\n      mstore\n      0x04\n      add\n      tag_224\n      swap2\n      swap1\n      tag_42\n      jump\t// in\n    tag_224:\n      0x20\n      mload(0x40)\n      dup1\n      dup4\n      sub\n      dup2\n      dup7\n      dup1\n      extcodesize\n      iszero\n      dup1\n      iszero\n      tag_225\n      jumpi\n      0x00\n      dup1\n      revert\n    tag_225:\n      pop\n      gas\n      staticcall\n      iszero\n      dup1\n      iszero\n      tag_227\n      jumpi\n      returndatasize\n      0x00\n      dup1\n      returndatacopy\n      revert(0x00, returndatasize)\n    tag_227:\n      pop\n      pop\n      pop\n      pop\n      mload(0x40)\n      returndatasize\n      not(0x1f)\n      0x1f\n      dup3\n      add\n      and\n      dup3\n      add\n      dup1\n      0x40\n      mstore\n      pop\n      dup2\n      add\n      swap1\n      tag_228\n      swap2\n      swap1\n      tag_155\n      jump\t// in\n    tag_228:\n        /* \"WandInstruments.sol\":4140:4194  uint256 trader_tsc_balance = tSC.balanceOf(msg.sender) */\n      swap1\n      pop\n        /* \"WandInstruments.sol\":4234:4249  amountSCPtoSell */\n      dup2\n        /* \"WandInstruments.sol\":4213:4231  trader_tsc_balance */\n      dup2\n        /* \"WandInstruments.sol\":4213:4249  trader_tsc_balance > amountSCPtoSell */\n      gt\n        /* \"WandInstruments.sol\":4205:4280  require(trader_tsc_balance > amountSCPtoSell, \"You dont have that amount!\") */\n      tag_229\n      jumpi\n      mload(0x40)\n      0x08c379a000000000000000000000000000000000000000000000000000000000\n      dup2\n      mstore\n      0x04\n      add\n      tag_230\n      swap1\n      tag_195\n      jump\t// in\n    tag_230:\n      mload(0x40)\n      dup1\n      swap2\n      sub\n      swap1\n      revert\n    tag_229:\n        /* \"WandInstruments.sol\":4482:4490  mockUSDC */\n      0x12\n      0x00\n      swap1\n      sload\n      swap1\n      0x0100\n      exp\n      swap1\n      div\n      0xffffffffffffffffffffffffffffffffffffffff\n      and\n        /* \"WandInstruments.sol\":4482:4499  mockUSDC.transfer */\n      0xffffffffffffffffffffffffffffffffffffffff\n      and\n      0xa9059cbb\n        /* \"WandInstruments.sol\":4500:4510  msg.sender */\n      caller\n        /* \"WandInstruments.sol\":283:289  10**18 */\n      0x0de0b6b3a7640000\n        /* \"WandInstruments.sol\":4531:4532  1 */\n      0x01\n        /* \"WandInstruments.sol\":4531:4543  1*(DECIMALS) */\n      tag_231\n      swap2\n      swap1\n      tag_157\n      jump\t// in\n    tag_231:\n        /* \"WandInstruments.sol\":4512:4527  amountSCPtoSell */\n      dup6\n        /* \"WandInstruments.sol\":4512:4544  amountSCPtoSell + (1*(DECIMALS)) */\n      tag_232\n      swap2\n      swap1\n      tag_170\n      jump\t// in\n    tag_232:\n        /* \"WandInstruments.sol\":4482:4545  mockUSDC.transfer(msg.sender, amountSCPtoSell + (1*(DECIMALS))) */\n      mload(0x40)\n      dup4\n      0xffffffff\n      and\n      0xe0\n      shl\n      dup2\n      mstore\n      0x04\n      add\n      tag_233\n      swap3\n      swap2\n      swap1\n      tag_197\n      jump\t// in\n    tag_233:\n      0x20\n      mload(0x40)\n      dup1\n      dup4\n      sub\n      dup2\n      0x00\n      dup8\n      dup1\n      extcodesize\n      iszero\n      dup1\n      iszero\n      tag_234\n      jumpi\n      0x00\n      dup1\n      revert\n    tag_234:\n      pop\n      gas\n      call\n      iszero\n      dup1\n      iszero\n      tag_236\n      jumpi\n      returndatasize\n      0x00\n      dup1\n      returndatacopy\n      revert(0x00, returndatasize)\n    tag_236:\n      pop\n      pop\n      pop\n      pop\n      mload(0x40)\n      returndatasize\n      not(0x1f)\n      0x1f\n      dup3\n      add\n      and\n      dup3\n      add\n      dup1\n      0x40\n      mstore\n      pop\n      dup2\n      add\n      swap1\n      tag_237\n      swap2\n      swap1\n      tag_202\n      jump\t// in\n    tag_237:\n      pop\n        /* \"WandInstruments.sol\":4601:4667  _safeTransferFrom(tSC, msg.sender, address(this), amountSCPtoSell) */\n      tag_238\n        /* \"WandInstruments.sol\":4619:4622  tSC */\n      0x11\n      0x00\n      swap1\n      sload\n      swap1\n      0x0100\n      exp\n      swap1\n      div\n      0xffffffffffffffffffffffffffffffffffffffff\n      and\n        /* \"WandInstruments.sol\":4624:4634  msg.sender */\n      caller\n        /* \"WandInstruments.sol\":4644:4648  this */\n      address\n        /* \"WandInstruments.sol\":4651:4666  amountSCPtoSell */\n      dup6\n        /* \"WandInstruments.sol\":4601:4618  _safeTransferFrom */\n      tag_204\n        /* \"WandInstruments.sol\":4601:4667  _safeTransferFrom(tSC, msg.sender, address(this), amountSCPtoSell) */\n      jump\t// in\n    tag_238:\n        /* \"WandInstruments.sol\":4068:4932  {\r... */\n      pop\n        /* \"WandInstruments.sol\":4008:4932  function sellScepter(uint256 amountSCPtoSell) public payable{\r... */\n      pop\n      jump\t// out\n        /* \"WandInstruments.sol\":1322:1344  IERC20 public mockUSDC */\n    tag_119:\n      0x12\n      0x00\n      swap1\n      sload\n      swap1\n      0x0100\n      exp\n      swap1\n      div\n      0xffffffffffffffffffffffffffffffffffffffff\n      and\n      dup2\n      jump\t// out\n        /* \"WandInstruments.sol\":3341:3525  function queryERC20Balance(address _tokenAddress, address _addressToQuery) view public returns (uint) {\r... */\n    tag_125:\n        /* \"WandInstruments.sol\":3437:3441  uint */\n      0x00\n        /* \"WandInstruments.sol\":3476:3489  _tokenAddress */\n      dup3\n        /* \"WandInstruments.sol\":3461:3500  ERC20Interface(_tokenAddress).balanceOf */\n      0xffffffffffffffffffffffffffffffffffffffff\n      and\n      0x70a08231\n        /* \"WandInstruments.sol\":3501:3516  _addressToQuery */\n      dup4\n        /* \"WandInstruments.sol\":3461:3517  ERC20Interface(_tokenAddress).balanceOf(_addressToQuery) */\n      mload(0x40)\n      dup3\n      0xffffffff\n      and\n      0xe0\n      shl\n      dup2\n      mstore\n      0x04\n      add\n      tag_240\n      swap2\n      swap1\n      tag_42\n      jump\t// in\n    tag_240:\n      0x20\n      mload(0x40)\n      dup1\n      dup4\n      sub\n      dup2\n      dup7\n      dup1\n      extcodesize\n      iszero\n      dup1\n      iszero\n      tag_241\n      jumpi\n      0x00\n      dup1\n      revert\n    tag_241:\n      pop\n      gas\n      staticcall\n      iszero\n      dup1\n      iszero\n      tag_243\n      jumpi\n      returndatasize\n      0x00\n      dup1\n      returndatacopy\n      revert(0x00, returndatasize)\n    tag_243:\n      pop\n      pop\n      pop\n      pop\n      mload(0x40)\n      returndatasize\n      not(0x1f)\n      0x1f\n      dup3\n      add\n      and\n      dup3\n      add\n      dup1\n      0x40\n      mstore\n      pop\n      dup2\n      add\n      swap1\n      tag_244\n      swap2\n      swap1\n      tag_155\n      jump\t// in\n    tag_244:\n        /* \"WandInstruments.sol\":3454:3517  return ERC20Interface(_tokenAddress).balanceOf(_addressToQuery) */\n      swap1\n      pop\n        /* \"WandInstruments.sol\":3341:3525  function queryERC20Balance(address _tokenAddress, address _addressToQuery) view public returns (uint) {\r... */\n      swap3\n      swap2\n      pop\n      pop\n      jump\t// out\n        /* \"WandInstruments.sol\":298:325  uint256 public growthFactor */\n    tag_129:\n      sload(0x00)\n      dup2\n      jump\t// out\n        /* \"WandInstruments.sol\":1078:1148  address public testwallet = 0x617F2E2fD72FD9D5503197092aC168c91465E7f2 */\n    tag_133:\n      0x10\n      0x00\n      swap1\n      sload\n      swap1\n      0x0100\n      exp\n      swap1\n      div\n      0xffffffffffffffffffffffffffffffffffffffff\n      and\n      dup2\n      jump\t// out\n        /* \"WandInstruments.sol\":2976:3146  function decMul18(uint x, uint y) public pure returns (uint decProd) {\r... */\n    tag_138:\n        /* \"WandInstruments.sol\":3031:3043  uint decProd */\n      0x00\n        /* \"WandInstruments.sol\":3056:3068  uint prod_xy */\n      dup1\n        /* \"WandInstruments.sol\":3071:3080  mul(x, y) */\n      tag_246\n        /* \"WandInstruments.sol\":3075:3076  x */\n      dup5\n        /* \"WandInstruments.sol\":3078:3079  y */\n      dup5\n        /* \"WandInstruments.sol\":3071:3074  mul */\n      tag_182\n        /* \"WandInstruments.sol\":3071:3080  mul(x, y) */\n      jump\t// in\n    tag_246:\n        /* \"WandInstruments.sol\":3056:3080  uint prod_xy = mul(x, y) */\n      swap1\n      pop\n        /* \"WandInstruments.sol\":283:289  10**18 */\n      0x0de0b6b3a7640000\n        /* \"WandInstruments.sol\":3101:3127  add(prod_xy, DECIMALS / 2) */\n      tag_247\n        /* \"WandInstruments.sol\":3105:3112  prod_xy */\n      dup3\n        /* \"WandInstruments.sol\":3125:3126  2 */\n      0x02\n        /* \"WandInstruments.sol\":283:289  10**18 */\n      0x0de0b6b3a7640000\n        /* \"WandInstruments.sol\":3114:3126  DECIMALS / 2 */\n      tag_248\n      swap2\n      swap1\n      tag_159\n      jump\t// in\n    tag_248:\n        /* \"WandInstruments.sol\":3101:3104  add */\n      tag_185\n        /* \"WandInstruments.sol\":3101:3127  add(prod_xy, DECIMALS / 2) */\n      jump\t// in\n    tag_247:\n        /* \"WandInstruments.sol\":3101:3138  add(prod_xy, DECIMALS / 2) / DECIMALS */\n      tag_249\n      swap2\n      swap1\n      tag_159\n      jump\t// in\n    tag_249:\n        /* \"WandInstruments.sol\":3091:3138  decProd = add(prod_xy, DECIMALS / 2) / DECIMALS */\n      swap2\n      pop\n        /* \"WandInstruments.sol\":3045:3146  {\r... */\n      pop\n        /* \"WandInstruments.sol\":2976:3146  function decMul18(uint x, uint y) public pure returns (uint decProd) {\r... */\n      swap3\n      swap2\n      pop\n      pop\n      jump\t// out\n        /* \"WandInstruments.sol\":546:574  address public treasury1Addr */\n    tag_142:\n      0x06\n      0x00\n      swap1\n      sload\n      swap1\n      0x0100\n      exp\n      swap1\n      div\n      0xffffffffffffffffffffffffffffffffffffffff\n      and\n      dup2\n      jump\t// out\n        /* \"WandInstruments.sol\":3656:3806  function setDaysUsedInFactors(uint256 numDays) public {  \r... */\n    tag_147:\n        /* \"WandInstruments.sol\":3783:3788  86400 */\n      0x015180\n        /* \"WandInstruments.sol\":3773:3780  numDays */\n      dup2\n        /* \"WandInstruments.sol\":3773:3788  numDays * 86400 */\n      tag_251\n      swap2\n      swap1\n      tag_157\n      jump\t// in\n    tag_251:\n        /* \"WandInstruments.sol\":3753:3770  daysInCalculation */\n      0x0b\n        /* \"WandInstruments.sol\":3753:3788  daysInCalculation = numDays * 86400 */\n      dup2\n      swap1\n      sstore\n      pop\n        /* \"WandInstruments.sol\":3656:3806  function setDaysUsedInFactors(uint256 numDays) public {  \r... */\n      pop\n      jump\t// out\n        /* \"WandInstruments.sol\":2237:2457  function mul(uint256 a, uint256 b) internal pure returns (uint256) {\r... */\n    tag_182:\n        /* \"WandInstruments.sol\":2295:2302  uint256 */\n      0x00\n        /* \"WandInstruments.sol\":2320:2321  0 */\n      dup1\n        /* \"WandInstruments.sol\":2315:2316  a */\n      dup4\n        /* \"WandInstruments.sol\":2315:2321  a == 0 */\n      eq\n        /* \"WandInstruments.sol\":2311:2350  if (a == 0) {\r... */\n      iszero\n      tag_253\n      jumpi\n        /* \"WandInstruments.sol\":2341:2342  0 */\n      0x00\n        /* \"WandInstruments.sol\":2334:2342  return 0 */\n      swap1\n      pop\n      jump(tag_252)\n        /* \"WandInstruments.sol\":2311:2350  if (a == 0) {\r... */\n    tag_253:\n        /* \"WandInstruments.sol\":2356:2365  uint256 c */\n      0x00\n        /* \"WandInstruments.sol\":2372:2373  b */\n      dup3\n        /* \"WandInstruments.sol\":2368:2369  a */\n      dup5\n        /* \"WandInstruments.sol\":2368:2373  a * b */\n      tag_254\n      swap2\n      swap1\n      tag_157\n      jump\t// in\n    tag_254:\n        /* \"WandInstruments.sol\":2356:2373  uint256 c = a * b */\n      swap1\n      pop\n        /* \"WandInstruments.sol\":2397:2398  b */\n      dup3\n        /* \"WandInstruments.sol\":2392:2393  a */\n      dup5\n        /* \"WandInstruments.sol\":2388:2389  c */\n      dup3\n        /* \"WandInstruments.sol\":2388:2393  c / a */\n      tag_255\n      swap2\n      swap1\n      tag_159\n      jump\t// in\n    tag_255:\n        /* \"WandInstruments.sol\":2388:2398  c / a == b */\n      eq\n        /* \"WandInstruments.sol\":2380:2436  require(c / a == b, \"uint overflow from multiplication\") */\n      tag_256\n      jumpi\n      mload(0x40)\n      0x08c379a000000000000000000000000000000000000000000000000000000000\n      dup2\n      mstore\n      0x04\n      add\n      tag_257\n      swap1\n      tag_258\n      jump\t// in\n    tag_257:\n      mload(0x40)\n      dup1\n      swap2\n      sub\n      swap1\n      revert\n    tag_256:\n        /* \"WandInstruments.sol\":2450:2451  c */\n      dup1\n        /* \"WandInstruments.sol\":2443:2451  return c */\n      swap2\n      pop\n      pop\n        /* \"WandInstruments.sol\":2237:2457  function mul(uint256 a, uint256 b) internal pure returns (uint256) {\r... */\n    tag_252:\n      swap3\n      swap2\n      pop\n      pop\n      jump\t// out\n        /* \"WandInstruments.sol\":2799:2970  function add(uint256 a, uint256 b) internal pure returns (uint256) {\r... */\n    tag_185:\n        /* \"WandInstruments.sol\":2857:2864  uint256 */\n      0x00\n        /* \"WandInstruments.sol\":2873:2882  uint256 c */\n      dup1\n        /* \"WandInstruments.sol\":2889:2890  b */\n      dup3\n        /* \"WandInstruments.sol\":2885:2886  a */\n      dup5\n        /* \"WandInstruments.sol\":2885:2890  a + b */\n      tag_260\n      swap2\n      swap1\n      tag_170\n      jump\t// in\n    tag_260:\n        /* \"WandInstruments.sol\":2873:2890  uint256 c = a + b */\n      swap1\n      pop\n        /* \"WandInstruments.sol\":2910:2911  a */\n      dup4\n        /* \"WandInstruments.sol\":2905:2906  c */\n      dup2\n        /* \"WandInstruments.sol\":2905:2911  c >= a */\n      lt\n      iszero\n        /* \"WandInstruments.sol\":2897:2949  require(c >= a, \"uint overflow from multiplication\") */\n      tag_261\n      jumpi\n      mload(0x40)\n      0x08c379a000000000000000000000000000000000000000000000000000000000\n      dup2\n      mstore\n      0x04\n      add\n      tag_262\n      swap1\n      tag_258\n      jump\t// in\n    tag_262:\n      mload(0x40)\n      dup1\n      swap2\n      sub\n      swap1\n      revert\n    tag_261:\n        /* \"WandInstruments.sol\":2963:2964  c */\n      dup1\n        /* \"WandInstruments.sol\":2956:2964  return c */\n      swap2\n      pop\n      pop\n        /* \"WandInstruments.sol\":2799:2970  function add(uint256 a, uint256 b) internal pure returns (uint256) {\r... */\n      swap3\n      swap2\n      pop\n      pop\n      jump\t// out\n        /* \"WandInstruments.sol\":7234:7502  function _safeTransferFrom(\r... */\n    tag_204:\n        /* \"WandInstruments.sol\":7388:7397  bool sent */\n      0x00\n        /* \"WandInstruments.sol\":7400:7405  token */\n      dup5\n        /* \"WandInstruments.sol\":7400:7418  token.transferFrom */\n      0xffffffffffffffffffffffffffffffffffffffff\n      and\n      0x23b872dd\n        /* \"WandInstruments.sol\":7419:7425  sender */\n      dup6\n        /* \"WandInstruments.sol\":7427:7436  recipient */\n      dup6\n        /* \"WandInstruments.sol\":7438:7444  amount */\n      dup6\n        /* \"WandInstruments.sol\":7400:7445  token.transferFrom(sender, recipient, amount) */\n      mload(0x40)\n      dup5\n      0xffffffff\n      and\n      0xe0\n      shl\n      dup2\n      mstore\n      0x04\n      add\n      tag_264\n      swap4\n      swap3\n      swap2\n      swap1\n      tag_265\n      jump\t// in\n    tag_264:\n      0x20\n      mload(0x40)\n      dup1\n      dup4\n      sub\n      dup2\n      0x00\n      dup8\n      dup1\n      extcodesize\n      iszero\n      dup1\n      iszero\n      tag_266\n      jumpi\n      0x00\n      dup1\n      revert\n    tag_266:\n      pop\n      gas\n      call\n      iszero\n      dup1\n      iszero\n      tag_268\n      jumpi\n      returndatasize\n      0x00\n      dup1\n      returndatacopy\n      revert(0x00, returndatasize)\n    tag_268:\n      pop\n      pop\n      pop\n      pop\n      mload(0x40)\n      returndatasize\n      not(0x1f)\n      0x1f\n      dup3\n      add\n      and\n      dup3\n      add\n      dup1\n      0x40\n      mstore\n      pop\n      dup2\n      add\n      swap1\n      tag_269\n      swap2\n      swap1\n      tag_202\n      jump\t// in\n    tag_269:\n        /* \"WandInstruments.sol\":7388:7445  bool sent = token.transferFrom(sender, recipient, amount) */\n      swap1\n      pop\n        /* \"WandInstruments.sol\":7464:7468  sent */\n      dup1\n        /* \"WandInstruments.sol\":7456:7494  require(sent, \"Token transfer failed\") */\n      tag_270\n      jumpi\n      mload(0x40)\n      0x08c379a000000000000000000000000000000000000000000000000000000000\n      dup2\n      mstore\n      0x04\n      add\n      tag_271\n      swap1\n      tag_272\n      jump\t// in\n    tag_271:\n      mload(0x40)\n      dup1\n      swap2\n      sub\n      swap1\n      revert\n    tag_270:\n        /* \"WandInstruments.sol\":7377:7502  {\r... */\n      pop\n        /* \"WandInstruments.sol\":7234:7502  function _safeTransferFrom(\r... */\n      pop\n      pop\n      pop\n      pop\n      jump\t// out\n        /* \"#utility.yul\":7:146   */\n    tag_274:\n        /* \"#utility.yul\":53:58   */\n      0x00\n        /* \"#utility.yul\":91:97   */\n      dup2\n        /* \"#utility.yul\":78:98   */\n      calldataload\n        /* \"#utility.yul\":69:98   */\n      swap1\n      pop\n        /* \"#utility.yul\":107:140   */\n      tag_276\n        /* \"#utility.yul\":134:139   */\n      dup2\n        /* \"#utility.yul\":107:140   */\n      tag_277\n      jump\t// in\n    tag_276:\n        /* \"#utility.yul\":7:146   */\n      swap3\n      swap2\n      pop\n      pop\n      jump\t// out\n        /* \"#utility.yul\":152:289   */\n    tag_278:\n        /* \"#utility.yul\":206:211   */\n      0x00\n        /* \"#utility.yul\":237:243   */\n      dup2\n        /* \"#utility.yul\":231:244   */\n      mload\n        /* \"#utility.yul\":222:244   */\n      swap1\n      pop\n        /* \"#utility.yul\":253:283   */\n      tag_280\n        /* \"#utility.yul\":277:282   */\n      dup2\n        /* \"#utility.yul\":253:283   */\n      tag_281\n      jump\t// in\n    tag_280:\n        /* \"#utility.yul\":152:289   */\n      swap3\n      swap2\n      pop\n      pop\n      jump\t// out\n        /* \"#utility.yul\":295:434   */\n    tag_282:\n        /* \"#utility.yul\":341:346   */\n      0x00\n        /* \"#utility.yul\":379:385   */\n      dup2\n        /* \"#utility.yul\":366:386   */\n      calldataload\n        /* \"#utility.yul\":357:386   */\n      swap1\n      pop\n        /* \"#utility.yul\":395:428   */\n      tag_284\n        /* \"#utility.yul\":422:427   */\n      dup2\n        /* \"#utility.yul\":395:428   */\n      tag_285\n      jump\t// in\n    tag_284:\n        /* \"#utility.yul\":295:434   */\n      swap3\n      swap2\n      pop\n      pop\n      jump\t// out\n        /* \"#utility.yul\":440:583   */\n    tag_286:\n        /* \"#utility.yul\":497:502   */\n      0x00\n        /* \"#utility.yul\":528:534   */\n      dup2\n        /* \"#utility.yul\":522:535   */\n      mload\n        /* \"#utility.yul\":513:535   */\n      swap1\n      pop\n        /* \"#utility.yul\":544:577   */\n      tag_288\n        /* \"#utility.yul\":571:576   */\n      dup2\n        /* \"#utility.yul\":544:577   */\n      tag_285\n      jump\t// in\n    tag_288:\n        /* \"#utility.yul\":440:583   */\n      swap3\n      swap2\n      pop\n      pop\n      jump\t// out\n        /* \"#utility.yul\":589:1063   */\n    tag_124:\n        /* \"#utility.yul\":657:663   */\n      0x00\n        /* \"#utility.yul\":665:671   */\n      dup1\n        /* \"#utility.yul\":714:716   */\n      0x40\n        /* \"#utility.yul\":702:711   */\n      dup4\n        /* \"#utility.yul\":693:700   */\n      dup6\n        /* \"#utility.yul\":689:712   */\n      sub\n        /* \"#utility.yul\":685:717   */\n      slt\n        /* \"#utility.yul\":682:801   */\n      iszero\n      tag_290\n      jumpi\n        /* \"#utility.yul\":720:799   */\n      tag_291\n      tag_292\n      jump\t// in\n    tag_291:\n        /* \"#utility.yul\":682:801   */\n    tag_290:\n        /* \"#utility.yul\":840:841   */\n      0x00\n        /* \"#utility.yul\":865:918   */\n      tag_293\n        /* \"#utility.yul\":910:917   */\n      dup6\n        /* \"#utility.yul\":901:907   */\n      dup3\n        /* \"#utility.yul\":890:899   */\n      dup7\n        /* \"#utility.yul\":886:908   */\n      add\n        /* \"#utility.yul\":865:918   */\n      tag_274\n      jump\t// in\n    tag_293:\n        /* \"#utility.yul\":855:918   */\n      swap3\n      pop\n        /* \"#utility.yul\":811:928   */\n      pop\n        /* \"#utility.yul\":967:969   */\n      0x20\n        /* \"#utility.yul\":993:1046   */\n      tag_294\n        /* \"#utility.yul\":1038:1045   */\n      dup6\n        /* \"#utility.yul\":1029:1035   */\n      dup3\n        /* \"#utility.yul\":1018:1027   */\n      dup7\n        /* \"#utility.yul\":1014:1036   */\n      add\n        /* \"#utility.yul\":993:1046   */\n      tag_274\n      jump\t// in\n    tag_294:\n        /* \"#utility.yul\":983:1046   */\n      swap2\n      pop\n        /* \"#utility.yul\":938:1056   */\n      pop\n        /* \"#utility.yul\":589:1063   */\n      swap3\n      pop\n      swap3\n      swap1\n      pop\n      jump\t// out\n        /* \"#utility.yul\":1069:1414   */\n    tag_202:\n        /* \"#utility.yul\":1136:1142   */\n      0x00\n        /* \"#utility.yul\":1185:1187   */\n      0x20\n        /* \"#utility.yul\":1173:1182   */\n      dup3\n        /* \"#utility.yul\":1164:1171   */\n      dup5\n        /* \"#utility.yul\":1160:1183   */\n      sub\n        /* \"#utility.yul\":1156:1188   */\n      slt\n        /* \"#utility.yul\":1153:1272   */\n      iszero\n      tag_296\n      jumpi\n        /* \"#utility.yul\":1191:1270   */\n      tag_297\n      tag_292\n      jump\t// in\n    tag_297:\n        /* \"#utility.yul\":1153:1272   */\n    tag_296:\n        /* \"#utility.yul\":1311:1312   */\n      0x00\n        /* \"#utility.yul\":1336:1397   */\n      tag_298\n        /* \"#utility.yul\":1389:1396   */\n      dup5\n        /* \"#utility.yul\":1380:1386   */\n      dup3\n        /* \"#utility.yul\":1369:1378   */\n      dup6\n        /* \"#utility.yul\":1365:1387   */\n      add\n        /* \"#utility.yul\":1336:1397   */\n      tag_278\n      jump\t// in\n    tag_298:\n        /* \"#utility.yul\":1326:1397   */\n      swap2\n      pop\n        /* \"#utility.yul\":1282:1407   */\n      pop\n        /* \"#utility.yul\":1069:1414   */\n      swap3\n      swap2\n      pop\n      pop\n      jump\t// out\n        /* \"#utility.yul\":1420:1749   */\n    tag_46:\n        /* \"#utility.yul\":1479:1485   */\n      0x00\n        /* \"#utility.yul\":1528:1530   */\n      0x20\n        /* \"#utility.yul\":1516:1525   */\n      dup3\n        /* \"#utility.yul\":1507:1514   */\n      dup5\n        /* \"#utility.yul\":1503:1526   */\n      sub\n        /* \"#utility.yul\":1499:1531   */\n      slt\n        /* \"#utility.yul\":1496:1615   */\n      iszero\n      tag_300\n      jumpi\n        /* \"#utility.yul\":1534:1613   */\n      tag_301\n      tag_292\n      jump\t// in\n    tag_301:\n        /* \"#utility.yul\":1496:1615   */\n    tag_300:\n        /* \"#utility.yul\":1654:1655   */\n      0x00\n        /* \"#utility.yul\":1679:1732   */\n      tag_302\n        /* \"#utility.yul\":1724:1731   */\n      dup5\n        /* \"#utility.yul\":1715:1721   */\n      dup3\n        /* \"#utility.yul\":1704:1713   */\n      dup6\n        /* \"#utility.yul\":1700:1722   */\n      add\n        /* \"#utility.yul\":1679:1732   */\n      tag_282\n      jump\t// in\n    tag_302:\n        /* \"#utility.yul\":1669:1732   */\n      swap2\n      pop\n        /* \"#utility.yul\":1625:1742   */\n      pop\n        /* \"#utility.yul\":1420:1749   */\n      swap3\n      swap2\n      pop\n      pop\n      jump\t// out\n        /* \"#utility.yul\":1755:2106   */\n    tag_155:\n        /* \"#utility.yul\":1825:1831   */\n      0x00\n        /* \"#utility.yul\":1874:1876   */\n      0x20\n        /* \"#utility.yul\":1862:1871   */\n      dup3\n        /* \"#utility.yul\":1853:1860   */\n      dup5\n        /* \"#utility.yul\":1849:1872   */\n      sub\n        /* \"#utility.yul\":1845:1877   */\n      slt\n        /* \"#utility.yul\":1842:1961   */\n      iszero\n      tag_304\n      jumpi\n        /* \"#utility.yul\":1880:1959   */\n      tag_305\n      tag_292\n      jump\t// in\n    tag_305:\n        /* \"#utility.yul\":1842:1961   */\n    tag_304:\n        /* \"#utility.yul\":2000:2001   */\n      0x00\n        /* \"#utility.yul\":2025:2089   */\n      tag_306\n        /* \"#utility.yul\":2081:2088   */\n      dup5\n        /* \"#utility.yul\":2072:2078   */\n      dup3\n        /* \"#utility.yul\":2061:2070   */\n      dup6\n        /* \"#utility.yul\":2057:2079   */\n      add\n        /* \"#utility.yul\":2025:2089   */\n      tag_286\n      jump\t// in\n    tag_306:\n        /* \"#utility.yul\":2015:2089   */\n      swap2\n      pop\n        /* \"#utility.yul\":1971:2099   */\n      pop\n        /* \"#utility.yul\":1755:2106   */\n      swap3\n      swap2\n      pop\n      pop\n      jump\t// out\n        /* \"#utility.yul\":2112:2586   */\n    tag_73:\n        /* \"#utility.yul\":2180:2186   */\n      0x00\n        /* \"#utility.yul\":2188:2194   */\n      dup1\n        /* \"#utility.yul\":2237:2239   */\n      0x40\n        /* \"#utility.yul\":2225:2234   */\n      dup4\n        /* \"#utility.yul\":2216:2223   */\n      dup6\n        /* \"#utility.yul\":2212:2235   */\n      sub\n        /* \"#utility.yul\":2208:2240   */\n      slt\n        /* \"#utility.yul\":2205:2324   */\n      iszero\n      tag_308\n      jumpi\n        /* \"#utility.yul\":2243:2322   */\n      tag_309\n      tag_292\n      jump\t// in\n    tag_309:\n        /* \"#utility.yul\":2205:2324   */\n    tag_308:\n        /* \"#utility.yul\":2363:2364   */\n      0x00\n        /* \"#utility.yul\":2388:2441   */\n      tag_310\n        /* \"#utility.yul\":2433:2440   */\n      dup6\n        /* \"#utility.yul\":2424:2430   */\n      dup3\n        /* \"#utility.yul\":2413:2422   */\n      dup7\n        /* \"#utility.yul\":2409:2431   */\n      add\n        /* \"#utility.yul\":2388:2441   */\n      tag_282\n      jump\t// in\n    tag_310:\n        /* \"#utility.yul\":2378:2441   */\n      swap3\n      pop\n        /* \"#utility.yul\":2334:2451   */\n      pop\n        /* \"#utility.yul\":2490:2492   */\n      0x20\n        /* \"#utility.yul\":2516:2569   */\n      tag_311\n        /* \"#utility.yul\":2561:2568   */\n      dup6\n        /* \"#utility.yul\":2552:2558   */\n      dup3\n        /* \"#utility.yul\":2541:2550   */\n      dup7\n        /* \"#utility.yul\":2537:2559   */\n      add\n        /* \"#utility.yul\":2516:2569   */\n      tag_282\n      jump\t// in\n    tag_311:\n        /* \"#utility.yul\":2506:2569   */\n      swap2\n      pop\n        /* \"#utility.yul\":2461:2579   */\n      pop\n        /* \"#utility.yul\":2112:2586   */\n      swap3\n      pop\n      swap3\n      swap1\n      pop\n      jump\t// out\n        /* \"#utility.yul\":2592:2710   */\n    tag_312:\n        /* \"#utility.yul\":2679:2703   */\n      tag_314\n        /* \"#utility.yul\":2697:2702   */\n      dup2\n        /* \"#utility.yul\":2679:2703   */\n      tag_315\n      jump\t// in\n    tag_314:\n        /* \"#utility.yul\":2674:2677   */\n      dup3\n        /* \"#utility.yul\":2667:2704   */\n      mstore\n        /* \"#utility.yul\":2592:2710   */\n      pop\n      pop\n      jump\t// out\n        /* \"#utility.yul\":2716:2873   */\n    tag_316:\n        /* \"#utility.yul\":2816:2866   */\n      tag_318\n        /* \"#utility.yul\":2860:2865   */\n      dup2\n        /* \"#utility.yul\":2816:2866   */\n      tag_319\n      jump\t// in\n    tag_318:\n        /* \"#utility.yul\":2811:2814   */\n      dup3\n        /* \"#utility.yul\":2804:2867   */\n      mstore\n        /* \"#utility.yul\":2716:2873   */\n      pop\n      pop\n      jump\t// out\n        /* \"#utility.yul\":2879:2994   */\n    tag_320:\n        /* \"#utility.yul\":2964:2987   */\n      tag_322\n        /* \"#utility.yul\":2981:2986   */\n      dup2\n        /* \"#utility.yul\":2964:2987   */\n      tag_323\n      jump\t// in\n    tag_322:\n        /* \"#utility.yul\":2959:2962   */\n      dup3\n        /* \"#utility.yul\":2952:2988   */\n      mstore\n        /* \"#utility.yul\":2879:2994   */\n      pop\n      pop\n      jump\t// out\n        /* \"#utility.yul\":3000:3366   */\n    tag_324:\n        /* \"#utility.yul\":3142:3145   */\n      0x00\n        /* \"#utility.yul\":3163:3230   */\n      tag_326\n        /* \"#utility.yul\":3227:3229   */\n      0x15\n        /* \"#utility.yul\":3222:3225   */\n      dup4\n        /* \"#utility.yul\":3163:3230   */\n      tag_327\n      jump\t// in\n    tag_326:\n        /* \"#utility.yul\":3156:3230   */\n      swap2\n      pop\n        /* \"#utility.yul\":3239:3332   */\n      tag_328\n        /* \"#utility.yul\":3328:3331   */\n      dup3\n        /* \"#utility.yul\":3239:3332   */\n      tag_329\n      jump\t// in\n    tag_328:\n        /* \"#utility.yul\":3357:3359   */\n      0x20\n        /* \"#utility.yul\":3352:3355   */\n      dup3\n        /* \"#utility.yul\":3348:3360   */\n      add\n        /* \"#utility.yul\":3341:3360   */\n      swap1\n      pop\n        /* \"#utility.yul\":3000:3366   */\n      swap2\n      swap1\n      pop\n      jump\t// out\n        /* \"#utility.yul\":3372:3738   */\n    tag_330:\n        /* \"#utility.yul\":3514:3517   */\n      0x00\n        /* \"#utility.yul\":3535:3602   */\n      tag_332\n        /* \"#utility.yul\":3599:3601   */\n      0x1a\n        /* \"#utility.yul\":3594:3597   */\n      dup4\n        /* \"#utility.yul\":3535:3602   */\n      tag_327\n      jump\t// in\n    tag_332:\n        /* \"#utility.yul\":3528:3602   */\n      swap2\n      pop\n        /* \"#utility.yul\":3611:3704   */\n      tag_333\n        /* \"#utility.yul\":3700:3703   */\n      dup3\n        /* \"#utility.yul\":3611:3704   */\n      tag_334\n      jump\t// in\n    tag_333:\n        /* \"#utility.yul\":3729:3731   */\n      0x20\n        /* \"#utility.yul\":3724:3727   */\n      dup3\n        /* \"#utility.yul\":3720:3732   */\n      add\n        /* \"#utility.yul\":3713:3732   */\n      swap1\n      pop\n        /* \"#utility.yul\":3372:3738   */\n      swap2\n      swap1\n      pop\n      jump\t// out\n        /* \"#utility.yul\":3744:4110   */\n    tag_335:\n        /* \"#utility.yul\":3886:3889   */\n      0x00\n        /* \"#utility.yul\":3907:3974   */\n      tag_337\n        /* \"#utility.yul\":3971:3973   */\n      0x21\n        /* \"#utility.yul\":3966:3969   */\n      dup4\n        /* \"#utility.yul\":3907:3974   */\n      tag_327\n      jump\t// in\n    tag_337:\n        /* \"#utility.yul\":3900:3974   */\n      swap2\n      pop\n        /* \"#utility.yul\":3983:4076   */\n      tag_338\n        /* \"#utility.yul\":4072:4075   */\n      dup3\n        /* \"#utility.yul\":3983:4076   */\n      tag_339\n      jump\t// in\n    tag_338:\n        /* \"#utility.yul\":4101:4103   */\n      0x40\n        /* \"#utility.yul\":4096:4099   */\n      dup3\n        /* \"#utility.yul\":4092:4104   */\n      add\n        /* \"#utility.yul\":4085:4104   */\n      swap1\n      pop\n        /* \"#utility.yul\":3744:4110   */\n      swap2\n      swap1\n      pop\n      jump\t// out\n        /* \"#utility.yul\":4116:4234   */\n    tag_340:\n        /* \"#utility.yul\":4203:4227   */\n      tag_342\n        /* \"#utility.yul\":4221:4226   */\n      dup2\n        /* \"#utility.yul\":4203:4227   */\n      tag_343\n      jump\t// in\n    tag_342:\n        /* \"#utility.yul\":4198:4201   */\n      dup3\n        /* \"#utility.yul\":4191:4228   */\n      mstore\n        /* \"#utility.yul\":4116:4234   */\n      pop\n      pop\n      jump\t// out\n        /* \"#utility.yul\":4240:4462   */\n    tag_42:\n        /* \"#utility.yul\":4333:4337   */\n      0x00\n        /* \"#utility.yul\":4371:4373   */\n      0x20\n        /* \"#utility.yul\":4360:4369   */\n      dup3\n        /* \"#utility.yul\":4356:4374   */\n      add\n        /* \"#utility.yul\":4348:4374   */\n      swap1\n      pop\n        /* \"#utility.yul\":4384:4455   */\n      tag_345\n        /* \"#utility.yul\":4452:4453   */\n      0x00\n        /* \"#utility.yul\":4441:4450   */\n      dup4\n        /* \"#utility.yul\":4437:4454   */\n      add\n        /* \"#utility.yul\":4428:4434   */\n      dup5\n        /* \"#utility.yul\":4384:4455   */\n      tag_312\n      jump\t// in\n    tag_345:\n        /* \"#utility.yul\":4240:4462   */\n      swap3\n      swap2\n      pop\n      pop\n      jump\t// out\n        /* \"#utility.yul\":4468:4910   */\n    tag_265:\n        /* \"#utility.yul\":4617:4621   */\n      0x00\n        /* \"#utility.yul\":4655:4657   */\n      0x60\n        /* \"#utility.yul\":4644:4653   */\n      dup3\n        /* \"#utility.yul\":4640:4658   */\n      add\n        /* \"#utility.yul\":4632:4658   */\n      swap1\n      pop\n        /* \"#utility.yul\":4668:4739   */\n      tag_347\n        /* \"#utility.yul\":4736:4737   */\n      0x00\n        /* \"#utility.yul\":4725:4734   */\n      dup4\n        /* \"#utility.yul\":4721:4738   */\n      add\n        /* \"#utility.yul\":4712:4718   */\n      dup7\n        /* \"#utility.yul\":4668:4739   */\n      tag_312\n      jump\t// in\n    tag_347:\n        /* \"#utility.yul\":4749:4821   */\n      tag_348\n        /* \"#utility.yul\":4817:4819   */\n      0x20\n        /* \"#utility.yul\":4806:4815   */\n      dup4\n        /* \"#utility.yul\":4802:4820   */\n      add\n        /* \"#utility.yul\":4793:4799   */\n      dup6\n        /* \"#utility.yul\":4749:4821   */\n      tag_312\n      jump\t// in\n    tag_348:\n        /* \"#utility.yul\":4831:4903   */\n      tag_349\n        /* \"#utility.yul\":4899:4901   */\n      0x40\n        /* \"#utility.yul\":4888:4897   */\n      dup4\n        /* \"#utility.yul\":4884:4902   */\n      add\n        /* \"#utility.yul\":4875:4881   */\n      dup5\n        /* \"#utility.yul\":4831:4903   */\n      tag_340\n      jump\t// in\n    tag_349:\n        /* \"#utility.yul\":4468:4910   */\n      swap5\n      swap4\n      pop\n      pop\n      pop\n      pop\n      jump\t// out\n        /* \"#utility.yul\":4916:5248   */\n    tag_197:\n        /* \"#utility.yul\":5037:5041   */\n      0x00\n        /* \"#utility.yul\":5075:5077   */\n      0x40\n        /* \"#utility.yul\":5064:5073   */\n      dup3\n        /* \"#utility.yul\":5060:5078   */\n      add\n        /* \"#utility.yul\":5052:5078   */\n      swap1\n      pop\n        /* \"#utility.yul\":5088:5159   */\n      tag_351\n        /* \"#utility.yul\":5156:5157   */\n      0x00\n        /* \"#utility.yul\":5145:5154   */\n      dup4\n        /* \"#utility.yul\":5141:5158   */\n      add\n        /* \"#utility.yul\":5132:5138   */\n      dup6\n        /* \"#utility.yul\":5088:5159   */\n      tag_312\n      jump\t// in\n    tag_351:\n        /* \"#utility.yul\":5169:5241   */\n      tag_352\n        /* \"#utility.yul\":5237:5239   */\n      0x20\n        /* \"#utility.yul\":5226:5235   */\n      dup4\n        /* \"#utility.yul\":5222:5240   */\n      add\n        /* \"#utility.yul\":5213:5219   */\n      dup5\n        /* \"#utility.yul\":5169:5241   */\n      tag_340\n      jump\t// in\n    tag_352:\n        /* \"#utility.yul\":4916:5248   */\n      swap4\n      swap3\n      pop\n      pop\n      pop\n      jump\t// out\n        /* \"#utility.yul\":5254:5502   */\n    tag_92:\n        /* \"#utility.yul\":5360:5364   */\n      0x00\n        /* \"#utility.yul\":5398:5400   */\n      0x20\n        /* \"#utility.yul\":5387:5396   */\n      dup3\n        /* \"#utility.yul\":5383:5401   */\n      add\n        /* \"#utility.yul\":5375:5401   */\n      swap1\n      pop\n        /* \"#utility.yul\":5411:5495   */\n      tag_354\n        /* \"#utility.yul\":5492:5493   */\n      0x00\n        /* \"#utility.yul\":5481:5490   */\n      dup4\n        /* \"#utility.yul\":5477:5494   */\n      add\n        /* \"#utility.yul\":5468:5474   */\n      dup5\n        /* \"#utility.yul\":5411:5495   */\n      tag_316\n      jump\t// in\n    tag_354:\n        /* \"#utility.yul\":5254:5502   */\n      swap3\n      swap2\n      pop\n      pop\n      jump\t// out\n        /* \"#utility.yul\":5508:5726   */\n    tag_97:\n        /* \"#utility.yul\":5599:5603   */\n      0x00\n        /* \"#utility.yul\":5637:5639   */\n      0x20\n        /* \"#utility.yul\":5626:5635   */\n      dup3\n        /* \"#utility.yul\":5622:5640   */\n      add\n        /* \"#utility.yul\":5614:5640   */\n      swap1\n      pop\n        /* \"#utility.yul\":5650:5719   */\n      tag_356\n        /* \"#utility.yul\":5716:5717   */\n      0x00\n        /* \"#utility.yul\":5705:5714   */\n      dup4\n        /* \"#utility.yul\":5701:5718   */\n      add\n        /* \"#utility.yul\":5692:5698   */\n      dup5\n        /* \"#utility.yul\":5650:5719   */\n      tag_320\n      jump\t// in\n    tag_356:\n        /* \"#utility.yul\":5508:5726   */\n      swap3\n      swap2\n      pop\n      pop\n      jump\t// out\n        /* \"#utility.yul\":5732:6151   */\n    tag_272:\n        /* \"#utility.yul\":5898:5902   */\n      0x00\n        /* \"#utility.yul\":5936:5938   */\n      0x20\n        /* \"#utility.yul\":5925:5934   */\n      dup3\n        /* \"#utility.yul\":5921:5939   */\n      add\n        /* \"#utility.yul\":5913:5939   */\n      swap1\n      pop\n        /* \"#utility.yul\":5985:5994   */\n      dup2\n        /* \"#utility.yul\":5979:5983   */\n      dup2\n        /* \"#utility.yul\":5975:5995   */\n      sub\n        /* \"#utility.yul\":5971:5972   */\n      0x00\n        /* \"#utility.yul\":5960:5969   */\n      dup4\n        /* \"#utility.yul\":5956:5973   */\n      add\n        /* \"#utility.yul\":5949:5996   */\n      mstore\n        /* \"#utility.yul\":6013:6144   */\n      tag_358\n        /* \"#utility.yul\":6139:6143   */\n      dup2\n        /* \"#utility.yul\":6013:6144   */\n      tag_324\n      jump\t// in\n    tag_358:\n        /* \"#utility.yul\":6005:6144   */\n      swap1\n      pop\n        /* \"#utility.yul\":5732:6151   */\n      swap2\n      swap1\n      pop\n      jump\t// out\n        /* \"#utility.yul\":6157:6576   */\n    tag_195:\n        /* \"#utility.yul\":6323:6327   */\n      0x00\n        /* \"#utility.yul\":6361:6363   */\n      0x20\n        /* \"#utility.yul\":6350:6359   */\n      dup3\n        /* \"#utility.yul\":6346:6364   */\n      add\n        /* \"#utility.yul\":6338:6364   */\n      swap1\n      pop\n        /* \"#utility.yul\":6410:6419   */\n      dup2\n        /* \"#utility.yul\":6404:6408   */\n      dup2\n        /* \"#utility.yul\":6400:6420   */\n      sub\n        /* \"#utility.yul\":6396:6397   */\n      0x00\n        /* \"#utility.yul\":6385:6394   */\n      dup4\n        /* \"#utility.yul\":6381:6398   */\n      add\n        /* \"#utility.yul\":6374:6421   */\n      mstore\n        /* \"#utility.yul\":6438:6569   */\n      tag_360\n        /* \"#utility.yul\":6564:6568   */\n      dup2\n        /* \"#utility.yul\":6438:6569   */\n      tag_330\n      jump\t// in\n    tag_360:\n        /* \"#utility.yul\":6430:6569   */\n      swap1\n      pop\n        /* \"#utility.yul\":6157:6576   */\n      swap2\n      swap1\n      pop\n      jump\t// out\n        /* \"#utility.yul\":6582:7001   */\n    tag_258:\n        /* \"#utility.yul\":6748:6752   */\n      0x00\n        /* \"#utility.yul\":6786:6788   */\n      0x20\n        /* \"#utility.yul\":6775:6784   */\n      dup3\n        /* \"#utility.yul\":6771:6789   */\n      add\n        /* \"#utility.yul\":6763:6789   */\n      swap1\n      pop\n        /* \"#utility.yul\":6835:6844   */\n      dup2\n        /* \"#utility.yul\":6829:6833   */\n      dup2\n        /* \"#utility.yul\":6825:6845   */\n      sub\n        /* \"#utility.yul\":6821:6822   */\n      0x00\n        /* \"#utility.yul\":6810:6819   */\n      dup4\n        /* \"#utility.yul\":6806:6823   */\n      add\n        /* \"#utility.yul\":6799:6846   */\n      mstore\n        /* \"#utility.yul\":6863:6994   */\n      tag_362\n        /* \"#utility.yul\":6989:6993   */\n      dup2\n        /* \"#utility.yul\":6863:6994   */\n      tag_335\n      jump\t// in\n    tag_362:\n        /* \"#utility.yul\":6855:6994   */\n      swap1\n      pop\n        /* \"#utility.yul\":6582:7001   */\n      swap2\n      swap1\n      pop\n      jump\t// out\n        /* \"#utility.yul\":7007:7229   */\n    tag_37:\n        /* \"#utility.yul\":7100:7104   */\n      0x00\n        /* \"#utility.yul\":7138:7140   */\n      0x20\n        /* \"#utility.yul\":7127:7136   */\n      dup3\n        /* \"#utility.yul\":7123:7141   */\n      add\n        /* \"#utility.yul\":7115:7141   */\n      swap1\n      pop\n        /* \"#utility.yul\":7151:7222   */\n      tag_364\n        /* \"#utility.yul\":7219:7220   */\n      0x00\n        /* \"#utility.yul\":7208:7217   */\n      dup4\n        /* \"#utility.yul\":7204:7221   */\n      add\n        /* \"#utility.yul\":7195:7201   */\n      dup5\n        /* \"#utility.yul\":7151:7222   */\n      tag_340\n      jump\t// in\n    tag_364:\n        /* \"#utility.yul\":7007:7229   */\n      swap3\n      swap2\n      pop\n      pop\n      jump\t// out\n        /* \"#utility.yul\":7316:7485   */\n    tag_327:\n        /* \"#utility.yul\":7400:7411   */\n      0x00\n        /* \"#utility.yul\":7434:7440   */\n      dup3\n        /* \"#utility.yul\":7429:7432   */\n      dup3\n        /* \"#utility.yul\":7422:7441   */\n      mstore\n        /* \"#utility.yul\":7474:7478   */\n      0x20\n        /* \"#utility.yul\":7469:7472   */\n      dup3\n        /* \"#utility.yul\":7465:7479   */\n      add\n        /* \"#utility.yul\":7450:7479   */\n      swap1\n      pop\n        /* \"#utility.yul\":7316:7485   */\n      swap3\n      swap2\n      pop\n      pop\n      jump\t// out\n        /* \"#utility.yul\":7491:7796   */\n    tag_170:\n        /* \"#utility.yul\":7531:7534   */\n      0x00\n        /* \"#utility.yul\":7550:7570   */\n      tag_369\n        /* \"#utility.yul\":7568:7569   */\n      dup3\n        /* \"#utility.yul\":7550:7570   */\n      tag_343\n      jump\t// in\n    tag_369:\n        /* \"#utility.yul\":7545:7570   */\n      swap2\n      pop\n        /* \"#utility.yul\":7584:7604   */\n      tag_370\n        /* \"#utility.yul\":7602:7603   */\n      dup4\n        /* \"#utility.yul\":7584:7604   */\n      tag_343\n      jump\t// in\n    tag_370:\n        /* \"#utility.yul\":7579:7604   */\n      swap3\n      pop\n        /* \"#utility.yul\":7738:7739   */\n      dup3\n        /* \"#utility.yul\":7670:7736   */\n      0xffffffffffffffffffffffffffffffffffffffffffffffffffffffffffffffff\n        /* \"#utility.yul\":7666:7740   */\n      sub\n        /* \"#utility.yul\":7663:7664   */\n      dup3\n        /* \"#utility.yul\":7660:7741   */\n      gt\n        /* \"#utility.yul\":7657:7764   */\n      iszero\n      tag_371\n      jumpi\n        /* \"#utility.yul\":7744:7762   */\n      tag_372\n      tag_373\n      jump\t// in\n    tag_372:\n        /* \"#utility.yul\":7657:7764   */\n    tag_371:\n        /* \"#utility.yul\":7788:7789   */\n      dup3\n        /* \"#utility.yul\":7785:7786   */\n      dup3\n        /* \"#utility.yul\":7781:7790   */\n      add\n        /* \"#utility.yul\":7774:7790   */\n      swap1\n      pop\n        /* \"#utility.yul\":7491:7796   */\n      swap3\n      swap2\n      pop\n      pop\n      jump\t// out\n        /* \"#utility.yul\":7802:7987   */\n    tag_159:\n        /* \"#utility.yul\":7842:7843   */\n      0x00\n        /* \"#utility.yul\":7859:7879   */\n      tag_375\n        /* \"#utility.yul\":7877:7878   */\n      dup3\n        /* \"#utility.yul\":7859:7879   */\n      tag_343\n      jump\t// in\n    tag_375:\n        /* \"#utility.yul\":7854:7879   */\n      swap2\n      pop\n        /* \"#utility.yul\":7893:7913   */\n      tag_376\n        /* \"#utility.yul\":7911:7912   */\n      dup4\n        /* \"#utility.yul\":7893:7913   */\n      tag_343\n      jump\t// in\n    tag_376:\n        /* \"#utility.yul\":7888:7913   */\n      swap3\n      pop\n        /* \"#utility.yul\":7932:7933   */\n      dup3\n        /* \"#utility.yul\":7922:7957   */\n      tag_377\n      jumpi\n        /* \"#utility.yul\":7937:7955   */\n      tag_378\n      tag_379\n      jump\t// in\n    tag_378:\n        /* \"#utility.yul\":7922:7957   */\n    tag_377:\n        /* \"#utility.yul\":7979:7980   */\n      dup3\n        /* \"#utility.yul\":7976:7977   */\n      dup3\n        /* \"#utility.yul\":7972:7981   */\n      div\n        /* \"#utility.yul\":7967:7981   */\n      swap1\n      pop\n        /* \"#utility.yul\":7802:7987   */\n      swap3\n      swap2\n      pop\n      pop\n      jump\t// out\n        /* \"#utility.yul\":7993:8341   */\n    tag_157:\n        /* \"#utility.yul\":8033:8040   */\n      0x00\n        /* \"#utility.yul\":8056:8076   */\n      tag_381\n        /* \"#utility.yul\":8074:8075   */\n      dup3\n        /* \"#utility.yul\":8056:8076   */\n      tag_343\n      jump\t// in\n    tag_381:\n        /* \"#utility.yul\":8051:8076   */\n      swap2\n      pop\n        /* \"#utility.yul\":8090:8110   */\n      tag_382\n        /* \"#utility.yul\":8108:8109   */\n      dup4\n        /* \"#utility.yul\":8090:8110   */\n      tag_343\n      jump\t// in\n    tag_382:\n        /* \"#utility.yul\":8085:8110   */\n      swap3\n      pop\n        /* \"#utility.yul\":8278:8279   */\n      dup2\n        /* \"#utility.yul\":8210:8276   */\n      0xffffffffffffffffffffffffffffffffffffffffffffffffffffffffffffffff\n        /* \"#utility.yul\":8206:8280   */\n      div\n        /* \"#utility.yul\":8203:8204   */\n      dup4\n        /* \"#utility.yul\":8200:8281   */\n      gt\n        /* \"#utility.yul\":8195:8196   */\n      dup3\n        /* \"#utility.yul\":8188:8197   */\n      iszero\n        /* \"#utility.yul\":8181:8198   */\n      iszero\n        /* \"#utility.yul\":8177:8282   */\n      and\n        /* \"#utility.yul\":8174:8305   */\n      iszero\n      tag_383\n      jumpi\n        /* \"#utility.yul\":8285:8303   */\n      tag_384\n      tag_373\n      jump\t// in\n    tag_384:\n        /* \"#utility.yul\":8174:8305   */\n    tag_383:\n        /* \"#utility.yul\":8333:8334   */\n      dup3\n        /* \"#utility.yul\":8330:8331   */\n      dup3\n        /* \"#utility.yul\":8326:8335   */\n      mul\n        /* \"#utility.yul\":8315:8335   */\n      swap1\n      pop\n        /* \"#utility.yul\":7993:8341   */\n      swap3\n      swap2\n      pop\n      pop\n      jump\t// out\n        /* \"#utility.yul\":8347:8538   */\n    tag_150:\n        /* \"#utility.yul\":8387:8391   */\n      0x00\n        /* \"#utility.yul\":8407:8427   */\n      tag_386\n        /* \"#utility.yul\":8425:8426   */\n      dup3\n        /* \"#utility.yul\":8407:8427   */\n      tag_343\n      jump\t// in\n    tag_386:\n        /* \"#utility.yul\":8402:8427   */\n      swap2\n      pop\n        /* \"#utility.yul\":8441:8461   */\n      tag_387\n        /* \"#utility.yul\":8459:8460   */\n      dup4\n        /* \"#utility.yul\":8441:8461   */\n      tag_343\n      jump\t// in\n    tag_387:\n        /* \"#utility.yul\":8436:8461   */\n      swap3\n      pop\n        /* \"#utility.yul\":8480:8481   */\n      dup3\n        /* \"#utility.yul\":8477:8478   */\n      dup3\n        /* \"#utility.yul\":8474:8482   */\n      lt\n        /* \"#utility.yul\":8471:8505   */\n      iszero\n      tag_388\n      jumpi\n        /* \"#utility.yul\":8485:8503   */\n      tag_389\n      tag_373\n      jump\t// in\n    tag_389:\n        /* \"#utility.yul\":8471:8505   */\n    tag_388:\n        /* \"#utility.yul\":8530:8531   */\n      dup3\n        /* \"#utility.yul\":8527:8528   */\n      dup3\n        /* \"#utility.yul\":8523:8532   */\n      sub\n        /* \"#utility.yul\":8515:8532   */\n      swap1\n      pop\n        /* \"#utility.yul\":8347:8538   */\n      swap3\n      swap2\n      pop\n      pop\n      jump\t// out\n        /* \"#utility.yul\":8544:8640   */\n    tag_315:\n        /* \"#utility.yul\":8581:8588   */\n      0x00\n        /* \"#utility.yul\":8610:8634   */\n      tag_391\n        /* \"#utility.yul\":8628:8633   */\n      dup3\n        /* \"#utility.yul\":8610:8634   */\n      tag_392\n      jump\t// in\n    tag_391:\n        /* \"#utility.yul\":8599:8634   */\n      swap1\n      pop\n        /* \"#utility.yul\":8544:8640   */\n      swap2\n      swap1\n      pop\n      jump\t// out\n        /* \"#utility.yul\":8646:8736   */\n    tag_393:\n        /* \"#utility.yul\":8680:8687   */\n      0x00\n        /* \"#utility.yul\":8723:8728   */\n      dup2\n        /* \"#utility.yul\":8716:8729   */\n      iszero\n        /* \"#utility.yul\":8709:8730   */\n      iszero\n        /* \"#utility.yul\":8698:8730   */\n      swap1\n      pop\n        /* \"#utility.yul\":8646:8736   */\n      swap2\n      swap1\n      pop\n      jump\t// out\n        /* \"#utility.yul\":8742:8834   */\n    tag_323:\n        /* \"#utility.yul\":8778:8785   */\n      0x00\n        /* \"#utility.yul\":8822:8827   */\n      dup2\n        /* \"#utility.yul\":8818:8820   */\n      0x0f\n        /* \"#utility.yul\":8807:8828   */\n      signextend\n        /* \"#utility.yul\":8796:8828   */\n      swap1\n      pop\n        /* \"#utility.yul\":8742:8834   */\n      swap2\n      swap1\n      pop\n      jump\t// out\n        /* \"#utility.yul\":8840:8966   */\n    tag_392:\n        /* \"#utility.yul\":8877:8884   */\n      0x00\n        /* \"#utility.yul\":8917:8959   */\n      0xffffffffffffffffffffffffffffffffffffffff\n        /* \"#utility.yul\":8910:8915   */\n      dup3\n        /* \"#utility.yul\":8906:8960   */\n      and\n        /* \"#utility.yul\":8895:8960   */\n      swap1\n      pop\n        /* \"#utility.yul\":8840:8966   */\n      swap2\n      swap1\n      pop\n      jump\t// out\n        /* \"#utility.yul\":8972:9049   */\n    tag_343:\n        /* \"#utility.yul\":9009:9016   */\n      0x00\n        /* \"#utility.yul\":9038:9043   */\n      dup2\n        /* \"#utility.yul\":9027:9043   */\n      swap1\n      pop\n        /* \"#utility.yul\":8972:9049   */\n      swap2\n      swap1\n      pop\n      jump\t// out\n        /* \"#utility.yul\":9055:9194   */\n    tag_319:\n        /* \"#utility.yul\":9118:9127   */\n      0x00\n        /* \"#utility.yul\":9151:9188   */\n      tag_399\n        /* \"#utility.yul\":9182:9187   */\n      dup3\n        /* \"#utility.yul\":9151:9188   */\n      tag_400\n      jump\t// in\n    tag_399:\n        /* \"#utility.yul\":9138:9188   */\n      swap1\n      pop\n        /* \"#utility.yul\":9055:9194   */\n      swap2\n      swap1\n      pop\n      jump\t// out\n        /* \"#utility.yul\":9200:9326   */\n    tag_400:\n        /* \"#utility.yul\":9250:9259   */\n      0x00\n        /* \"#utility.yul\":9283:9320   */\n      tag_402\n        /* \"#utility.yul\":9314:9319   */\n      dup3\n        /* \"#utility.yul\":9283:9320   */\n      tag_403\n      jump\t// in\n    tag_402:\n        /* \"#utility.yul\":9270:9320   */\n      swap1\n      pop\n        /* \"#utility.yul\":9200:9326   */\n      swap2\n      swap1\n      pop\n      jump\t// out\n        /* \"#utility.yul\":9332:9445   */\n    tag_403:\n        /* \"#utility.yul\":9382:9391   */\n      0x00\n        /* \"#utility.yul\":9415:9439   */\n      tag_405\n        /* \"#utility.yul\":9433:9438   */\n      dup3\n        /* \"#utility.yul\":9415:9439   */\n      tag_392\n      jump\t// in\n    tag_405:\n        /* \"#utility.yul\":9402:9439   */\n      swap1\n      pop\n        /* \"#utility.yul\":9332:9445   */\n      swap2\n      swap1\n      pop\n      jump\t// out\n        /* \"#utility.yul\":9451:9684   */\n    tag_215:\n        /* \"#utility.yul\":9490:9493   */\n      0x00\n        /* \"#utility.yul\":9513:9537   */\n      tag_407\n        /* \"#utility.yul\":9531:9536   */\n      dup3\n        /* \"#utility.yul\":9513:9537   */\n      tag_343\n      jump\t// in\n    tag_407:\n        /* \"#utility.yul\":9504:9537   */\n      swap2\n      pop\n        /* \"#utility.yul\":9559:9625   */\n      0xffffffffffffffffffffffffffffffffffffffffffffffffffffffffffffffff\n        /* \"#utility.yul\":9552:9557   */\n      dup3\n        /* \"#utility.yul\":9549:9626   */\n      eq\n        /* \"#utility.yul\":9546:9649   */\n      iszero\n      tag_408\n      jumpi\n        /* \"#utility.yul\":9629:9647   */\n      tag_409\n      tag_373\n      jump\t// in\n    tag_409:\n        /* \"#utility.yul\":9546:9649   */\n    tag_408:\n        /* \"#utility.yul\":9676:9677   */\n      0x01\n        /* \"#utility.yul\":9669:9674   */\n      dup3\n        /* \"#utility.yul\":9665:9678   */\n      add\n        /* \"#utility.yul\":9658:9678   */\n      swap1\n      pop\n        /* \"#utility.yul\":9451:9684   */\n      swap2\n      swap1\n      pop\n      jump\t// out\n        /* \"#utility.yul\":9690:9870   */\n    tag_373:\n        /* \"#utility.yul\":9738:9815   */\n      0x4e487b7100000000000000000000000000000000000000000000000000000000\n        /* \"#utility.yul\":9735:9736   */\n      0x00\n        /* \"#utility.yul\":9728:9816   */\n      mstore\n        /* \"#utility.yul\":9835:9839   */\n      0x11\n        /* \"#utility.yul\":9832:9833   */\n      0x04\n        /* \"#utility.yul\":9825:9840   */\n      mstore\n        /* \"#utility.yul\":9859:9863   */\n      0x24\n        /* \"#utility.yul\":9856:9857   */\n      0x00\n        /* \"#utility.yul\":9849:9864   */\n      revert\n        /* \"#utility.yul\":9876:10056   */\n    tag_379:\n        /* \"#utility.yul\":9924:10001   */\n      0x4e487b7100000000000000000000000000000000000000000000000000000000\n        /* \"#utility.yul\":9921:9922   */\n      0x00\n        /* \"#utility.yul\":9914:10002   */\n      mstore\n        /* \"#utility.yul\":10021:10025   */\n      0x12\n        /* \"#utility.yul\":10018:10019   */\n      0x04\n        /* \"#utility.yul\":10011:10026   */\n      mstore\n        /* \"#utility.yul\":10045:10049   */\n      0x24\n        /* \"#utility.yul\":10042:10043   */\n      0x00\n        /* \"#utility.yul\":10035:10050   */\n      revert\n        /* \"#utility.yul\":10185:10302   */\n    tag_292:\n        /* \"#utility.yul\":10294:10295   */\n      0x00\n        /* \"#utility.yul\":10291:10292   */\n      dup1\n        /* \"#utility.yul\":10284:10296   */\n      revert\n        /* \"#utility.yul\":10308:10479   */\n    tag_329:\n        /* \"#utility.yul\":10448:10471   */\n      0x546f6b656e207472616e73666572206661696c65640000000000000000000000\n        /* \"#utility.yul\":10444:10445   */\n      0x00\n        /* \"#utility.yul\":10436:10442   */\n      dup3\n        /* \"#utility.yul\":10432:10446   */\n      add\n        /* \"#utility.yul\":10425:10472   */\n      mstore\n        /* \"#utility.yul\":10308:10479   */\n      pop\n      jump\t// out\n        /* \"#utility.yul\":10485:10661   */\n    tag_334:\n        /* \"#utility.yul\":10625:10653   */\n      0x596f7520646f6e742068617665207468617420616d6f756e7421000000000000\n        /* \"#utility.yul\":10621:10622   */\n      0x00\n        /* \"#utility.yul\":10613:10619   */\n      dup3\n        /* \"#utility.yul\":10609:10623   */\n      add\n        /* \"#utility.yul\":10602:10654   */\n      mstore\n        /* \"#utility.yul\":10485:10661   */\n      pop\n      jump\t// out\n        /* \"#utility.yul\":10667:10887   */\n    tag_339:\n        /* \"#utility.yul\":10807:10841   */\n      0x75696e74206f766572666c6f772066726f6d206d756c7469706c69636174696f\n        /* \"#utility.yul\":10803:10804   */\n      0x00\n        /* \"#utility.yul\":10795:10801   */\n      dup3\n        /* \"#utility.yul\":10791:10805   */\n      add\n        /* \"#utility.yul\":10784:10842   */\n      mstore\n        /* \"#utility.yul\":10876:10879   */\n      0x6e00000000000000000000000000000000000000000000000000000000000000\n        /* \"#utility.yul\":10871:10873   */\n      0x20\n        /* \"#utility.yul\":10863:10869   */\n      dup3\n        /* \"#utility.yul\":10859:10874   */\n      add\n        /* \"#utility.yul\":10852:10880   */\n      mstore\n        /* \"#utility.yul\":10667:10887   */\n      pop\n      jump\t// out\n        /* \"#utility.yul\":10893:11015   */\n    tag_277:\n        /* \"#utility.yul\":10966:10990   */\n      tag_419\n        /* \"#utility.yul\":10984:10989   */\n      dup2\n        /* \"#utility.yul\":10966:10990   */\n      tag_315\n      jump\t// in\n    tag_419:\n        /* \"#utility.yul\":10959:10964   */\n      dup2\n        /* \"#utility.yul\":10956:10991   */\n      eq\n        /* \"#utility.yul\":10946:11009   */\n      tag_420\n      jumpi\n        /* \"#utility.yul\":11005:11006   */\n      0x00\n        /* \"#utility.yul\":11002:11003   */\n      dup1\n        /* \"#utility.yul\":10995:11007   */\n      revert\n        /* \"#utility.yul\":10946:11009   */\n    tag_420:\n        /* \"#utility.yul\":10893:11015   */\n      pop\n      jump\t// out\n        /* \"#utility.yul\":11021:11137   */\n    tag_281:\n        /* \"#utility.yul\":11091:11112   */\n      tag_422\n        /* \"#utility.yul\":11106:11111   */\n      dup2\n        /* \"#utility.yul\":11091:11112   */\n      tag_393\n      jump\t// in\n    tag_422:\n        /* \"#utility.yul\":11084:11089   */\n      dup2\n        /* \"#utility.yul\":11081:11113   */\n      eq\n        /* \"#utility.yul\":11071:11131   */\n      tag_423\n      jumpi\n        /* \"#utility.yul\":11127:11128   */\n      0x00\n        /* \"#utility.yul\":11124:11125   */\n      dup1\n        /* \"#utility.yul\":11117:11129   */\n      revert\n        /* \"#utility.yul\":11071:11131   */\n    tag_423:\n        /* \"#utility.yul\":11021:11137   */\n      pop\n      jump\t// out\n        /* \"#utility.yul\":11143:11265   */\n    tag_285:\n        /* \"#utility.yul\":11216:11240   */\n      tag_425\n        /* \"#utility.yul\":11234:11239   */\n      dup2\n        /* \"#utility.yul\":11216:11240   */\n      tag_343\n      jump\t// in\n    tag_425:\n        /* \"#utility.yul\":11209:11214   */\n      dup2\n        /* \"#utility.yul\":11206:11241   */\n      eq\n        /* \"#utility.yul\":11196:11259   */\n      tag_426\n      jumpi\n        /* \"#utility.yul\":11255:11256   */\n      0x00\n        /* \"#utility.yul\":11252:11253   */\n      dup1\n        /* \"#utility.yul\":11245:11257   */\n      revert\n        /* \"#utility.yul\":11196:11259   */\n    tag_426:\n        /* \"#utility.yul\":11143:11265   */\n      pop\n      jump\t// out\n\n    auxdata: 0xa26469706673582212201d91ae15cf24d28900d5e476c5e4f750ca951c59c8030f98eaecb5751719910264736f6c63430008070033\n}\n",
				"bytecode": {
					"linkReferences": {},
					"object": "6080604052670de0b6b3a764000061c3506200001c9190620004c2565b600955620186a0600c5562015f90600d55620927c0600e5573617f2e2fd72fd9d5503197092ac168c91465e7f2601060006101000a81548173ffffffffffffffffffffffffffffffffffffffff021916908373ffffffffffffffffffffffffffffffffffffffff1602179055503480156200009657600080fd5b5060405162001e9238038062001e928339818101604052810190620000bc91906200038c565b80601560006101000a81548173ffffffffffffffffffffffffffffffffffffffff021916908373ffffffffffffffffffffffffffffffffffffffff16021790555081601160006101000a81548173ffffffffffffffffffffffffffffffffffffffff021916908373ffffffffffffffffffffffffffffffffffffffff16021790555073d7acd2a9fd159e69bb102a1ca21c9a3e3a5f771b601260006101000a81548173ffffffffffffffffffffffffffffffffffffffff021916908373ffffffffffffffffffffffffffffffffffffffff16021790555073617f2e2fd72fd9d5503197092ac168c91465e7f2600660006101000a81548173ffffffffffffffffffffffffffffffffffffffff021916908373ffffffffffffffffffffffffffffffffffffffff160217905550620001fe600c54600e546200023960201b60201c565b6000819055506200021a600d54600e546200023960201b60201c565b60018190555042600a8190555062069780600b8190555050506200062d565b6000806200025684670de0b6b3a76400006200028e60201b60201c565b90508262000279826002866200026d91906200048a565b6200031260201b60201c565b6200028591906200048a565b91505092915050565b600080831415620002a357600090506200030c565b60008284620002b39190620004c2565b9050828482620002c491906200048a565b1462000307576040517f08c379a0000000000000000000000000000000000000000000000000000000008152600401620002fe90620003fa565b60405180910390fd5b809150505b92915050565b60008082846200032391906200042d565b9050838110156200036b576040517f08c379a00000000000000000000000000000000000000000000000000000000081526004016200036290620003fa565b60405180910390fd5b8091505092915050565b600081519050620003868162000613565b92915050565b60008060408385031215620003a657620003a5620005bf565b5b6000620003b68582860162000375565b9250506020620003c98582860162000375565b9150509250929050565b6000620003e26021836200041c565b9150620003ef82620005c4565b604082019050919050565b600060208201905081810360008301526200041581620003d3565b9050919050565b600082825260208201905092915050565b60006200043a8262000557565b9150620004478362000557565b9250827fffffffffffffffffffffffffffffffffffffffffffffffffffffffffffffffff038211156200047f576200047e62000561565b5b828201905092915050565b6000620004978262000557565b9150620004a48362000557565b925082620004b757620004b662000590565b5b828204905092915050565b6000620004cf8262000557565b9150620004dc8362000557565b9250817fffffffffffffffffffffffffffffffffffffffffffffffffffffffffffffffff048311821515161562000518576200051762000561565b5b828202905092915050565b6000620005308262000537565b9050919050565b600073ffffffffffffffffffffffffffffffffffffffff82169050919050565b6000819050919050565b7f4e487b7100000000000000000000000000000000000000000000000000000000600052601160045260246000fd5b7f4e487b7100000000000000000000000000000000000000000000000000000000600052601260045260246000fd5b600080fd5b7f75696e74206f766572666c6f772066726f6d206d756c7469706c69636174696f60008201527f6e00000000000000000000000000000000000000000000000000000000000000602082015250565b6200061e8162000523565b81146200062a57600080fd5b50565b611855806200063d6000396000f3fe6080604052600436106101815760003560e01c80636f10e285116100d1578063ee4676781161008a578063eee05f5e11610064578063eee05f5e14610574578063f7523c521461059f578063fbbb4589146105dc578063fc3614431461060757610181565b8063ee467678146104e1578063ee546a511461050c578063ee6208681461054957610181565b80636f10e285146103ee57806371cd58f914610419578063c079d7f614610444578063cbff46171461046f578063d82eddf21461049a578063daa3a4a4146104c557610181565b80633c6eb17a1161013e57806364ce07d81161011857806364ce07d81461033f57806365819f7e1461037c57806367b48c91146103985780636e05c1b9146103c357610181565b80633c6eb17a146102ac57806343d32e9c146102d757806346bfe6261461030257610181565b8063018a25e814610186578063047729b0146101b15780631514c976146101dc5780631f564a06146102195780632a9f0fb1146102445780633545330714610281575b600080fd5b34801561019257600080fd5b5061019b610630565b6040516101a891906114c1565b60405180910390f35b3480156101bd57600080fd5b506101c66106e8565b6040516101d391906113b0565b60405180910390f35b3480156101e857600080fd5b5061020360048036038101906101fe9190611271565b61070e565b60405161021091906114c1565b60405180910390f35b34801561022557600080fd5b5061022e610726565b60405161023b91906114c1565b60405180910390f35b34801561025057600080fd5b5061026b60048036038101906102669190611271565b6107d8565b60405161027891906114c1565b60405180910390f35b34801561028d57600080fd5b506102966107f0565b6040516102a391906114c1565b60405180910390f35b3480156102b857600080fd5b506102c16107f6565b6040516102ce91906114c1565b60405180910390f35b3480156102e357600080fd5b506102ec6107fc565b6040516102f991906114c1565b60405180910390f35b34801561030e57600080fd5b50610329600480360381019061032491906112cb565b6108cc565b60405161033691906114c1565b60405180910390f35b34801561034b57600080fd5b50610366600480360381019061036191906112cb565b61090f565b60405161037391906114c1565b60405180910390f35b61039660048036038101906103919190611271565b610950565b005b3480156103a457600080fd5b506103ad610b6e565b6040516103ba91906114c1565b60405180910390f35b3480156103cf57600080fd5b506103d8610b74565b6040516103e5919061142b565b60405180910390f35b3480156103fa57600080fd5b50610403610b9a565b6040516104109190611446565b60405180910390f35b34801561042557600080fd5b5061042e610bad565b60405161043b91906114c1565b60405180910390f35b34801561045057600080fd5b50610459610c10565b60405161046691906113b0565b60405180910390f35b34801561047b57600080fd5b50610484610c36565b60405161049191906114c1565b60405180910390f35b3480156104a657600080fd5b506104af610c3c565b6040516104bc91906114c1565b60405180910390f35b6104df60048036038101906104da9190611271565b610c9f565b005b3480156104ed57600080fd5b506104f6610e91565b604051610503919061142b565b60405180910390f35b34801561051857600080fd5b50610533600480360381019061052e9190611204565b610eb7565b60405161054091906114c1565b60405180910390f35b34801561055557600080fd5b5061055e610f4a565b60405161056b91906114c1565b60405180910390f35b34801561058057600080fd5b50610589610f50565b60405161059691906113b0565b60405180910390f35b3480156105ab57600080fd5b506105c660048036038101906105c191906112cb565b610f76565b6040516105d391906114c1565b60405180910390f35b3480156105e857600080fd5b506105f1610fbf565b6040516105fe91906113b0565b60405180910390f35b34801561061357600080fd5b5061062e60048036038101906106299190611271565b610fe5565b005b6000670de0b6b3a7640000600154670c7d713b49da000061065191906115ce565b3073ffffffffffffffffffffffffffffffffffffffff16631f564a066040518163ffffffff1660e01b815260040160206040518083038186803b15801561069757600080fd5b505afa1580156106ab573d6000803e3d6000fd5b505050506040513d601f19601f820116820180604052508101906106cf919061129e565b6106d99190611574565b6106e39190611543565b905090565b600860009054906101000a900473ffffffffffffffffffffffffffffffffffffffff1681565b60146020528060005260406000206000915090505481565b60006107d3600954601160009054906101000a900473ffffffffffffffffffffffffffffffffffffffff1673ffffffffffffffffffffffffffffffffffffffff166318160ddd6040518163ffffffff1660e01b815260040160206040518083038186803b15801561079657600080fd5b505afa1580156107aa573d6000803e3d6000fd5b505050506040513d601f19601f820116820180604052508101906107ce919061129e565b61090f565b905090565b60136020528060005260406000206000915090505481565b60095481565b600a5481565b6000670de0b6b3a76400006005670de0b6b3a7640000600661081e9190611574565b6108289190611543565b60005461083591906114ed565b3073ffffffffffffffffffffffffffffffffffffffff16631f564a066040518163ffffffff1660e01b815260040160206040518083038186803b15801561087b57600080fd5b505afa15801561088f573d6000803e3d6000fd5b505050506040513d601f19601f820116820180604052508101906108b3919061129e565b6108bd9190611574565b6108c79190611543565b905090565b60008062015180600a54856108e191906115ce565b6108eb9190611543565b90508260136000838152602001908152602001600020819055508091505092915050565b60008061092484670de0b6b3a7640000610ffd565b90508261093d826002866109389190611543565b611078565b6109479190611543565b91505092915050565b6000601260009054906101000a900473ffffffffffffffffffffffffffffffffffffffff1673ffffffffffffffffffffffffffffffffffffffff166370a08231336040518263ffffffff1660e01b81526004016109ad91906113b0565b60206040518083038186803b1580156109c557600080fd5b505afa1580156109d9573d6000803e3d6000fd5b505050506040513d601f19601f820116820180604052508101906109fd919061129e565b9050818111610a41576040517f08c379a0000000000000000000000000000000000000000000000000000000008152600401610a3890611481565b60405180910390fd5b601160009054906101000a900473ffffffffffffffffffffffffffffffffffffffff1673ffffffffffffffffffffffffffffffffffffffff1663a9059cbb33846040518363ffffffff1660e01b8152600401610a9e929190611402565b602060405180830381600087803b158015610ab857600080fd5b505af1158015610acc573d6000803e3d6000fd5b505050506040513d601f19601f82011682018060405250810190610af09190611244565b50610b1f601260009054906101000a900473ffffffffffffffffffffffffffffffffffffffff163330856110d6565b600062015180600a5442610b3391906115ce565b610b3d9190611543565b905082601360008381526020019081526020016000206000828254610b6291906114ed565b92505081905550505050565b600b5481565b601160009054906101000a900473ffffffffffffffffffffffffffffffffffffffff1681565b600f60009054906101000a9004600f0b81565b60008060008062015180600b54610bc49190611543565b9050600091505b80821015610c0757601360008381526020019081526020016000205483610bf291906114ed565b92508180610bff9061168d565b925050610bcb565b82935050505090565b600760009054906101000a900473ffffffffffffffffffffffffffffffffffffffff1681565b60015481565b60008060008062015180600b54610c539190611543565b9050600091505b80821015610c9657601460008381526020019081526020016000205483610c8191906114ed565b92508180610c8e9061168d565b925050610c5a565b82935050505090565b6000601160009054906101000a900473ffffffffffffffffffffffffffffffffffffffff1673ffffffffffffffffffffffffffffffffffffffff166370a08231336040518263ffffffff1660e01b8152600401610cfc91906113b0565b60206040518083038186803b158015610d1457600080fd5b505afa158015610d28573d6000803e3d6000fd5b505050506040513d601f19601f82011682018060405250810190610d4c919061129e565b9050818111610d90576040517f08c379a0000000000000000000000000000000000000000000000000000000008152600401610d8790611481565b60405180910390fd5b601260009054906101000a900473ffffffffffffffffffffffffffffffffffffffff1673ffffffffffffffffffffffffffffffffffffffff1663a9059cbb33670de0b6b3a76400006001610de49190611574565b85610def91906114ed565b6040518363ffffffff1660e01b8152600401610e0c929190611402565b602060405180830381600087803b158015610e2657600080fd5b505af1158015610e3a573d6000803e3d6000fd5b505050506040513d601f19601f82011682018060405250810190610e5e9190611244565b50610e8d601160009054906101000a900473ffffffffffffffffffffffffffffffffffffffff163330856110d6565b5050565b601260009054906101000a900473ffffffffffffffffffffffffffffffffffffffff1681565b60008273ffffffffffffffffffffffffffffffffffffffff166370a08231836040518263ffffffff1660e01b8152600401610ef291906113b0565b60206040518083038186803b158015610f0a57600080fd5b505afa158015610f1e573d6000803e3d6000fd5b505050506040513d601f19601f82011682018060405250810190610f42919061129e565b905092915050565b60005481565b601060009054906101000a900473ffffffffffffffffffffffffffffffffffffffff1681565b600080610f838484610ffd565b9050670de0b6b3a7640000610fac826002670de0b6b3a7640000610fa79190611543565b611078565b610fb69190611543565b91505092915050565b600660009054906101000a900473ffffffffffffffffffffffffffffffffffffffff1681565b6201518081610ff49190611574565b600b8190555050565b6000808314156110105760009050611072565b6000828461101e9190611574565b905082848261102d9190611543565b1461106d576040517f08c379a0000000000000000000000000000000000000000000000000000000008152600401611064906114a1565b60405180910390fd5b809150505b92915050565b600080828461108791906114ed565b9050838110156110cc576040517f08c379a00000000000000000000000000000000000000000000000000000000081526004016110c3906114a1565b60405180910390fd5b8091505092915050565b60008473ffffffffffffffffffffffffffffffffffffffff166323b872dd8585856040518463ffffffff1660e01b8152600401611115939291906113cb565b602060405180830381600087803b15801561112f57600080fd5b505af1158015611143573d6000803e3d6000fd5b505050506040513d601f19601f820116820180604052508101906111679190611244565b9050806111a9576040517f08c379a00000000000000000000000000000000000000000000000000000000081526004016111a090611461565b60405180910390fd5b5050505050565b6000813590506111bf816117da565b92915050565b6000815190506111d4816117f1565b92915050565b6000813590506111e981611808565b92915050565b6000815190506111fe81611808565b92915050565b6000806040838503121561121b5761121a611734565b5b6000611229858286016111b0565b925050602061123a858286016111b0565b9150509250929050565b60006020828403121561125a57611259611734565b5b6000611268848285016111c5565b91505092915050565b60006020828403121561128757611286611734565b5b6000611295848285016111da565b91505092915050565b6000602082840312156112b4576112b3611734565b5b60006112c2848285016111ef565b91505092915050565b600080604083850312156112e2576112e1611734565b5b60006112f0858286016111da565b9250506020611301858286016111da565b9150509250929050565b61131481611602565b82525050565b61132381611657565b82525050565b61133281611620565b82525050565b60006113456015836114dc565b915061135082611739565b602082019050919050565b6000611368601a836114dc565b915061137382611762565b602082019050919050565b600061138b6021836114dc565b91506113968261178b565b604082019050919050565b6113aa8161164d565b82525050565b60006020820190506113c5600083018461130b565b92915050565b60006060820190506113e0600083018661130b565b6113ed602083018561130b565b6113fa60408301846113a1565b949350505050565b6000604082019050611417600083018561130b565b61142460208301846113a1565b9392505050565b6000602082019050611440600083018461131a565b92915050565b600060208201905061145b6000830184611329565b92915050565b6000602082019050818103600083015261147a81611338565b9050919050565b6000602082019050818103600083015261149a8161135b565b9050919050565b600060208201905081810360008301526114ba8161137e565b9050919050565b60006020820190506114d660008301846113a1565b92915050565b600082825260208201905092915050565b60006114f88261164d565b91506115038361164d565b9250827fffffffffffffffffffffffffffffffffffffffffffffffffffffffffffffffff03821115611538576115376116d6565b5b828201905092915050565b600061154e8261164d565b91506115598361164d565b92508261156957611568611705565b5b828204905092915050565b600061157f8261164d565b915061158a8361164d565b9250817fffffffffffffffffffffffffffffffffffffffffffffffffffffffffffffffff04831182151516156115c3576115c26116d6565b5b828202905092915050565b60006115d98261164d565b91506115e48361164d565b9250828210156115f7576115f66116d6565b5b828203905092915050565b600061160d8261162d565b9050919050565b60008115159050919050565b600081600f0b9050919050565b600073ffffffffffffffffffffffffffffffffffffffff82169050919050565b6000819050919050565b600061166282611669565b9050919050565b60006116748261167b565b9050919050565b60006116868261162d565b9050919050565b60006116988261164d565b91507fffffffffffffffffffffffffffffffffffffffffffffffffffffffffffffffff8214156116cb576116ca6116d6565b5b600182019050919050565b7f4e487b7100000000000000000000000000000000000000000000000000000000600052601160045260246000fd5b7f4e487b7100000000000000000000000000000000000000000000000000000000600052601260045260246000fd5b600080fd5b7f546f6b656e207472616e73666572206661696c65640000000000000000000000600082015250565b7f596f7520646f6e742068617665207468617420616d6f756e7421000000000000600082015250565b7f75696e74206f766572666c6f772066726f6d206d756c7469706c69636174696f60008201527f6e00000000000000000000000000000000000000000000000000000000000000602082015250565b6117e381611602565b81146117ee57600080fd5b50565b6117fa81611614565b811461180557600080fd5b50565b6118118161164d565b811461181c57600080fd5b5056fea26469706673582212201d91ae15cf24d28900d5e476c5e4f750ca951c59c8030f98eaecb5751719910264736f6c63430008070033",
					"opcodes": "PUSH1 0x80 PUSH1 0x40 MSTORE PUSH8 0xDE0B6B3A7640000 PUSH2 0xC350 PUSH3 0x1C SWAP2 SWAP1 PUSH3 0x4C2 JUMP JUMPDEST PUSH1 0x9 SSTORE PUSH3 0x186A0 PUSH1 0xC SSTORE PUSH3 0x15F90 PUSH1 0xD SSTORE PUSH3 0x927C0 PUSH1 0xE SSTORE PUSH20 0x617F2E2FD72FD9D5503197092AC168C91465E7F2 PUSH1 0x10 PUSH1 0x0 PUSH2 0x100 EXP DUP2 SLOAD DUP2 PUSH20 0xFFFFFFFFFFFFFFFFFFFFFFFFFFFFFFFFFFFFFFFF MUL NOT AND SWAP1 DUP4 PUSH20 0xFFFFFFFFFFFFFFFFFFFFFFFFFFFFFFFFFFFFFFFF AND MUL OR SWAP1 SSTORE POP CALLVALUE DUP1 ISZERO PUSH3 0x96 JUMPI PUSH1 0x0 DUP1 REVERT JUMPDEST POP PUSH1 0x40 MLOAD PUSH3 0x1E92 CODESIZE SUB DUP1 PUSH3 0x1E92 DUP4 CODECOPY DUP2 DUP2 ADD PUSH1 0x40 MSTORE DUP2 ADD SWAP1 PUSH3 0xBC SWAP2 SWAP1 PUSH3 0x38C JUMP JUMPDEST DUP1 PUSH1 0x15 PUSH1 0x0 PUSH2 0x100 EXP DUP2 SLOAD DUP2 PUSH20 0xFFFFFFFFFFFFFFFFFFFFFFFFFFFFFFFFFFFFFFFF MUL NOT AND SWAP1 DUP4 PUSH20 0xFFFFFFFFFFFFFFFFFFFFFFFFFFFFFFFFFFFFFFFF AND MUL OR SWAP1 SSTORE POP DUP2 PUSH1 0x11 PUSH1 0x0 PUSH2 0x100 EXP DUP2 SLOAD DUP2 PUSH20 0xFFFFFFFFFFFFFFFFFFFFFFFFFFFFFFFFFFFFFFFF MUL NOT AND SWAP1 DUP4 PUSH20 0xFFFFFFFFFFFFFFFFFFFFFFFFFFFFFFFFFFFFFFFF AND MUL OR SWAP1 SSTORE POP PUSH20 0xD7ACD2A9FD159E69BB102A1CA21C9A3E3A5F771B PUSH1 0x12 PUSH1 0x0 PUSH2 0x100 EXP DUP2 SLOAD DUP2 PUSH20 0xFFFFFFFFFFFFFFFFFFFFFFFFFFFFFFFFFFFFFFFF MUL NOT AND SWAP1 DUP4 PUSH20 0xFFFFFFFFFFFFFFFFFFFFFFFFFFFFFFFFFFFFFFFF AND MUL OR SWAP1 SSTORE POP PUSH20 0x617F2E2FD72FD9D5503197092AC168C91465E7F2 PUSH1 0x6 PUSH1 0x0 PUSH2 0x100 EXP DUP2 SLOAD DUP2 PUSH20 0xFFFFFFFFFFFFFFFFFFFFFFFFFFFFFFFFFFFFFFFF MUL NOT AND SWAP1 DUP4 PUSH20 0xFFFFFFFFFFFFFFFFFFFFFFFFFFFFFFFFFFFFFFFF AND MUL OR SWAP1 SSTORE POP PUSH3 0x1FE PUSH1 0xC SLOAD PUSH1 0xE SLOAD PUSH3 0x239 PUSH1 0x20 SHL PUSH1 0x20 SHR JUMP JUMPDEST PUSH1 0x0 DUP2 SWAP1 SSTORE POP PUSH3 0x21A PUSH1 0xD SLOAD PUSH1 0xE SLOAD PUSH3 0x239 PUSH1 0x20 SHL PUSH1 0x20 SHR JUMP JUMPDEST PUSH1 0x1 DUP2 SWAP1 SSTORE POP TIMESTAMP PUSH1 0xA DUP2 SWAP1 SSTORE POP PUSH3 0x69780 PUSH1 0xB DUP2 SWAP1 SSTORE POP POP POP PUSH3 0x62D JUMP JUMPDEST PUSH1 0x0 DUP1 PUSH3 0x256 DUP5 PUSH8 0xDE0B6B3A7640000 PUSH3 0x28E PUSH1 0x20 SHL PUSH1 0x20 SHR JUMP JUMPDEST SWAP1 POP DUP3 PUSH3 0x279 DUP3 PUSH1 0x2 DUP7 PUSH3 0x26D SWAP2 SWAP1 PUSH3 0x48A JUMP JUMPDEST PUSH3 0x312 PUSH1 0x20 SHL PUSH1 0x20 SHR JUMP JUMPDEST PUSH3 0x285 SWAP2 SWAP1 PUSH3 0x48A JUMP JUMPDEST SWAP2 POP POP SWAP3 SWAP2 POP POP JUMP JUMPDEST PUSH1 0x0 DUP1 DUP4 EQ ISZERO PUSH3 0x2A3 JUMPI PUSH1 0x0 SWAP1 POP PUSH3 0x30C JUMP JUMPDEST PUSH1 0x0 DUP3 DUP5 PUSH3 0x2B3 SWAP2 SWAP1 PUSH3 0x4C2 JUMP JUMPDEST SWAP1 POP DUP3 DUP5 DUP3 PUSH3 0x2C4 SWAP2 SWAP1 PUSH3 0x48A JUMP JUMPDEST EQ PUSH3 0x307 JUMPI PUSH1 0x40 MLOAD PUSH32 0x8C379A000000000000000000000000000000000000000000000000000000000 DUP2 MSTORE PUSH1 0x4 ADD PUSH3 0x2FE SWAP1 PUSH3 0x3FA JUMP JUMPDEST PUSH1 0x40 MLOAD DUP1 SWAP2 SUB SWAP1 REVERT JUMPDEST DUP1 SWAP2 POP POP JUMPDEST SWAP3 SWAP2 POP POP JUMP JUMPDEST PUSH1 0x0 DUP1 DUP3 DUP5 PUSH3 0x323 SWAP2 SWAP1 PUSH3 0x42D JUMP JUMPDEST SWAP1 POP DUP4 DUP2 LT ISZERO PUSH3 0x36B JUMPI PUSH1 0x40 MLOAD PUSH32 0x8C379A000000000000000000000000000000000000000000000000000000000 DUP2 MSTORE PUSH1 0x4 ADD PUSH3 0x362 SWAP1 PUSH3 0x3FA JUMP JUMPDEST PUSH1 0x40 MLOAD DUP1 SWAP2 SUB SWAP1 REVERT JUMPDEST DUP1 SWAP2 POP POP SWAP3 SWAP2 POP POP JUMP JUMPDEST PUSH1 0x0 DUP2 MLOAD SWAP1 POP PUSH3 0x386 DUP2 PUSH3 0x613 JUMP JUMPDEST SWAP3 SWAP2 POP POP JUMP JUMPDEST PUSH1 0x0 DUP1 PUSH1 0x40 DUP4 DUP6 SUB SLT ISZERO PUSH3 0x3A6 JUMPI PUSH3 0x3A5 PUSH3 0x5BF JUMP JUMPDEST JUMPDEST PUSH1 0x0 PUSH3 0x3B6 DUP6 DUP3 DUP7 ADD PUSH3 0x375 JUMP JUMPDEST SWAP3 POP POP PUSH1 0x20 PUSH3 0x3C9 DUP6 DUP3 DUP7 ADD PUSH3 0x375 JUMP JUMPDEST SWAP2 POP POP SWAP3 POP SWAP3 SWAP1 POP JUMP JUMPDEST PUSH1 0x0 PUSH3 0x3E2 PUSH1 0x21 DUP4 PUSH3 0x41C JUMP JUMPDEST SWAP2 POP PUSH3 0x3EF DUP3 PUSH3 0x5C4 JUMP JUMPDEST PUSH1 0x40 DUP3 ADD SWAP1 POP SWAP2 SWAP1 POP JUMP JUMPDEST PUSH1 0x0 PUSH1 0x20 DUP3 ADD SWAP1 POP DUP2 DUP2 SUB PUSH1 0x0 DUP4 ADD MSTORE PUSH3 0x415 DUP2 PUSH3 0x3D3 JUMP JUMPDEST SWAP1 POP SWAP2 SWAP1 POP JUMP JUMPDEST PUSH1 0x0 DUP3 DUP3 MSTORE PUSH1 0x20 DUP3 ADD SWAP1 POP SWAP3 SWAP2 POP POP JUMP JUMPDEST PUSH1 0x0 PUSH3 0x43A DUP3 PUSH3 0x557 JUMP JUMPDEST SWAP2 POP PUSH3 0x447 DUP4 PUSH3 0x557 JUMP JUMPDEST SWAP3 POP DUP3 PUSH32 0xFFFFFFFFFFFFFFFFFFFFFFFFFFFFFFFFFFFFFFFFFFFFFFFFFFFFFFFFFFFFFFFF SUB DUP3 GT ISZERO PUSH3 0x47F JUMPI PUSH3 0x47E PUSH3 0x561 JUMP JUMPDEST JUMPDEST DUP3 DUP3 ADD SWAP1 POP SWAP3 SWAP2 POP POP JUMP JUMPDEST PUSH1 0x0 PUSH3 0x497 DUP3 PUSH3 0x557 JUMP JUMPDEST SWAP2 POP PUSH3 0x4A4 DUP4 PUSH3 0x557 JUMP JUMPDEST SWAP3 POP DUP3 PUSH3 0x4B7 JUMPI PUSH3 0x4B6 PUSH3 0x590 JUMP JUMPDEST JUMPDEST DUP3 DUP3 DIV SWAP1 POP SWAP3 SWAP2 POP POP JUMP JUMPDEST PUSH1 0x0 PUSH3 0x4CF DUP3 PUSH3 0x557 JUMP JUMPDEST SWAP2 POP PUSH3 0x4DC DUP4 PUSH3 0x557 JUMP JUMPDEST SWAP3 POP DUP2 PUSH32 0xFFFFFFFFFFFFFFFFFFFFFFFFFFFFFFFFFFFFFFFFFFFFFFFFFFFFFFFFFFFFFFFF DIV DUP4 GT DUP3 ISZERO ISZERO AND ISZERO PUSH3 0x518 JUMPI PUSH3 0x517 PUSH3 0x561 JUMP JUMPDEST JUMPDEST DUP3 DUP3 MUL SWAP1 POP SWAP3 SWAP2 POP POP JUMP JUMPDEST PUSH1 0x0 PUSH3 0x530 DUP3 PUSH3 0x537 JUMP JUMPDEST SWAP1 POP SWAP2 SWAP1 POP JUMP JUMPDEST PUSH1 0x0 PUSH20 0xFFFFFFFFFFFFFFFFFFFFFFFFFFFFFFFFFFFFFFFF DUP3 AND SWAP1 POP SWAP2 SWAP1 POP JUMP JUMPDEST PUSH1 0x0 DUP2 SWAP1 POP SWAP2 SWAP1 POP JUMP JUMPDEST PUSH32 0x4E487B7100000000000000000000000000000000000000000000000000000000 PUSH1 0x0 MSTORE PUSH1 0x11 PUSH1 0x4 MSTORE PUSH1 0x24 PUSH1 0x0 REVERT JUMPDEST PUSH32 0x4E487B7100000000000000000000000000000000000000000000000000000000 PUSH1 0x0 MSTORE PUSH1 0x12 PUSH1 0x4 MSTORE PUSH1 0x24 PUSH1 0x0 REVERT JUMPDEST PUSH1 0x0 DUP1 REVERT JUMPDEST PUSH32 0x75696E74206F766572666C6F772066726F6D206D756C7469706C69636174696F PUSH1 0x0 DUP3 ADD MSTORE PUSH32 0x6E00000000000000000000000000000000000000000000000000000000000000 PUSH1 0x20 DUP3 ADD MSTORE POP JUMP JUMPDEST PUSH3 0x61E DUP2 PUSH3 0x523 JUMP JUMPDEST DUP2 EQ PUSH3 0x62A JUMPI PUSH1 0x0 DUP1 REVERT JUMPDEST POP JUMP JUMPDEST PUSH2 0x1855 DUP1 PUSH3 0x63D PUSH1 0x0 CODECOPY PUSH1 0x0 RETURN INVALID PUSH1 0x80 PUSH1 0x40 MSTORE PUSH1 0x4 CALLDATASIZE LT PUSH2 0x181 JUMPI PUSH1 0x0 CALLDATALOAD PUSH1 0xE0 SHR DUP1 PUSH4 0x6F10E285 GT PUSH2 0xD1 JUMPI DUP1 PUSH4 0xEE467678 GT PUSH2 0x8A JUMPI DUP1 PUSH4 0xEEE05F5E GT PUSH2 0x64 JUMPI DUP1 PUSH4 0xEEE05F5E EQ PUSH2 0x574 JUMPI DUP1 PUSH4 0xF7523C52 EQ PUSH2 0x59F JUMPI DUP1 PUSH4 0xFBBB4589 EQ PUSH2 0x5DC JUMPI DUP1 PUSH4 0xFC361443 EQ PUSH2 0x607 JUMPI PUSH2 0x181 JUMP JUMPDEST DUP1 PUSH4 0xEE467678 EQ PUSH2 0x4E1 JUMPI DUP1 PUSH4 0xEE546A51 EQ PUSH2 0x50C JUMPI DUP1 PUSH4 0xEE620868 EQ PUSH2 0x549 JUMPI PUSH2 0x181 JUMP JUMPDEST DUP1 PUSH4 0x6F10E285 EQ PUSH2 0x3EE JUMPI DUP1 PUSH4 0x71CD58F9 EQ PUSH2 0x419 JUMPI DUP1 PUSH4 0xC079D7F6 EQ PUSH2 0x444 JUMPI DUP1 PUSH4 0xCBFF4617 EQ PUSH2 0x46F JUMPI DUP1 PUSH4 0xD82EDDF2 EQ PUSH2 0x49A JUMPI DUP1 PUSH4 0xDAA3A4A4 EQ PUSH2 0x4C5 JUMPI PUSH2 0x181 JUMP JUMPDEST DUP1 PUSH4 0x3C6EB17A GT PUSH2 0x13E JUMPI DUP1 PUSH4 0x64CE07D8 GT PUSH2 0x118 JUMPI DUP1 PUSH4 0x64CE07D8 EQ PUSH2 0x33F JUMPI DUP1 PUSH4 0x65819F7E EQ PUSH2 0x37C JUMPI DUP1 PUSH4 0x67B48C91 EQ PUSH2 0x398 JUMPI DUP1 PUSH4 0x6E05C1B9 EQ PUSH2 0x3C3 JUMPI PUSH2 0x181 JUMP JUMPDEST DUP1 PUSH4 0x3C6EB17A EQ PUSH2 0x2AC JUMPI DUP1 PUSH4 0x43D32E9C EQ PUSH2 0x2D7 JUMPI DUP1 PUSH4 0x46BFE626 EQ PUSH2 0x302 JUMPI PUSH2 0x181 JUMP JUMPDEST DUP1 PUSH4 0x18A25E8 EQ PUSH2 0x186 JUMPI DUP1 PUSH4 0x47729B0 EQ PUSH2 0x1B1 JUMPI DUP1 PUSH4 0x1514C976 EQ PUSH2 0x1DC JUMPI DUP1 PUSH4 0x1F564A06 EQ PUSH2 0x219 JUMPI DUP1 PUSH4 0x2A9F0FB1 EQ PUSH2 0x244 JUMPI DUP1 PUSH4 0x35453307 EQ PUSH2 0x281 JUMPI JUMPDEST PUSH1 0x0 DUP1 REVERT JUMPDEST CALLVALUE DUP1 ISZERO PUSH2 0x192 JUMPI PUSH1 0x0 DUP1 REVERT JUMPDEST POP PUSH2 0x19B PUSH2 0x630 JUMP JUMPDEST PUSH1 0x40 MLOAD PUSH2 0x1A8 SWAP2 SWAP1 PUSH2 0x14C1 JUMP JUMPDEST PUSH1 0x40 MLOAD DUP1 SWAP2 SUB SWAP1 RETURN JUMPDEST CALLVALUE DUP1 ISZERO PUSH2 0x1BD JUMPI PUSH1 0x0 DUP1 REVERT JUMPDEST POP PUSH2 0x1C6 PUSH2 0x6E8 JUMP JUMPDEST PUSH1 0x40 MLOAD PUSH2 0x1D3 SWAP2 SWAP1 PUSH2 0x13B0 JUMP JUMPDEST PUSH1 0x40 MLOAD DUP1 SWAP2 SUB SWAP1 RETURN JUMPDEST CALLVALUE DUP1 ISZERO PUSH2 0x1E8 JUMPI PUSH1 0x0 DUP1 REVERT JUMPDEST POP PUSH2 0x203 PUSH1 0x4 DUP1 CALLDATASIZE SUB DUP2 ADD SWAP1 PUSH2 0x1FE SWAP2 SWAP1 PUSH2 0x1271 JUMP JUMPDEST PUSH2 0x70E JUMP JUMPDEST PUSH1 0x40 MLOAD PUSH2 0x210 SWAP2 SWAP1 PUSH2 0x14C1 JUMP JUMPDEST PUSH1 0x40 MLOAD DUP1 SWAP2 SUB SWAP1 RETURN JUMPDEST CALLVALUE DUP1 ISZERO PUSH2 0x225 JUMPI PUSH1 0x0 DUP1 REVERT JUMPDEST POP PUSH2 0x22E PUSH2 0x726 JUMP JUMPDEST PUSH1 0x40 MLOAD PUSH2 0x23B SWAP2 SWAP1 PUSH2 0x14C1 JUMP JUMPDEST PUSH1 0x40 MLOAD DUP1 SWAP2 SUB SWAP1 RETURN JUMPDEST CALLVALUE DUP1 ISZERO PUSH2 0x250 JUMPI PUSH1 0x0 DUP1 REVERT JUMPDEST POP PUSH2 0x26B PUSH1 0x4 DUP1 CALLDATASIZE SUB DUP2 ADD SWAP1 PUSH2 0x266 SWAP2 SWAP1 PUSH2 0x1271 JUMP JUMPDEST PUSH2 0x7D8 JUMP JUMPDEST PUSH1 0x40 MLOAD PUSH2 0x278 SWAP2 SWAP1 PUSH2 0x14C1 JUMP JUMPDEST PUSH1 0x40 MLOAD DUP1 SWAP2 SUB SWAP1 RETURN JUMPDEST CALLVALUE DUP1 ISZERO PUSH2 0x28D JUMPI PUSH1 0x0 DUP1 REVERT JUMPDEST POP PUSH2 0x296 PUSH2 0x7F0 JUMP JUMPDEST PUSH1 0x40 MLOAD PUSH2 0x2A3 SWAP2 SWAP1 PUSH2 0x14C1 JUMP JUMPDEST PUSH1 0x40 MLOAD DUP1 SWAP2 SUB SWAP1 RETURN JUMPDEST CALLVALUE DUP1 ISZERO PUSH2 0x2B8 JUMPI PUSH1 0x0 DUP1 REVERT JUMPDEST POP PUSH2 0x2C1 PUSH2 0x7F6 JUMP JUMPDEST PUSH1 0x40 MLOAD PUSH2 0x2CE SWAP2 SWAP1 PUSH2 0x14C1 JUMP JUMPDEST PUSH1 0x40 MLOAD DUP1 SWAP2 SUB SWAP1 RETURN JUMPDEST CALLVALUE DUP1 ISZERO PUSH2 0x2E3 JUMPI PUSH1 0x0 DUP1 REVERT JUMPDEST POP PUSH2 0x2EC PUSH2 0x7FC JUMP JUMPDEST PUSH1 0x40 MLOAD PUSH2 0x2F9 SWAP2 SWAP1 PUSH2 0x14C1 JUMP JUMPDEST PUSH1 0x40 MLOAD DUP1 SWAP2 SUB SWAP1 RETURN JUMPDEST CALLVALUE DUP1 ISZERO PUSH2 0x30E JUMPI PUSH1 0x0 DUP1 REVERT JUMPDEST POP PUSH2 0x329 PUSH1 0x4 DUP1 CALLDATASIZE SUB DUP2 ADD SWAP1 PUSH2 0x324 SWAP2 SWAP1 PUSH2 0x12CB JUMP JUMPDEST PUSH2 0x8CC JUMP JUMPDEST PUSH1 0x40 MLOAD PUSH2 0x336 SWAP2 SWAP1 PUSH2 0x14C1 JUMP JUMPDEST PUSH1 0x40 MLOAD DUP1 SWAP2 SUB SWAP1 RETURN JUMPDEST CALLVALUE DUP1 ISZERO PUSH2 0x34B JUMPI PUSH1 0x0 DUP1 REVERT JUMPDEST POP PUSH2 0x366 PUSH1 0x4 DUP1 CALLDATASIZE SUB DUP2 ADD SWAP1 PUSH2 0x361 SWAP2 SWAP1 PUSH2 0x12CB JUMP JUMPDEST PUSH2 0x90F JUMP JUMPDEST PUSH1 0x40 MLOAD PUSH2 0x373 SWAP2 SWAP1 PUSH2 0x14C1 JUMP JUMPDEST PUSH1 0x40 MLOAD DUP1 SWAP2 SUB SWAP1 RETURN JUMPDEST PUSH2 0x396 PUSH1 0x4 DUP1 CALLDATASIZE SUB DUP2 ADD SWAP1 PUSH2 0x391 SWAP2 SWAP1 PUSH2 0x1271 JUMP JUMPDEST PUSH2 0x950 JUMP JUMPDEST STOP JUMPDEST CALLVALUE DUP1 ISZERO PUSH2 0x3A4 JUMPI PUSH1 0x0 DUP1 REVERT JUMPDEST POP PUSH2 0x3AD PUSH2 0xB6E JUMP JUMPDEST PUSH1 0x40 MLOAD PUSH2 0x3BA SWAP2 SWAP1 PUSH2 0x14C1 JUMP JUMPDEST PUSH1 0x40 MLOAD DUP1 SWAP2 SUB SWAP1 RETURN JUMPDEST CALLVALUE DUP1 ISZERO PUSH2 0x3CF JUMPI PUSH1 0x0 DUP1 REVERT JUMPDEST POP PUSH2 0x3D8 PUSH2 0xB74 JUMP JUMPDEST PUSH1 0x40 MLOAD PUSH2 0x3E5 SWAP2 SWAP1 PUSH2 0x142B JUMP JUMPDEST PUSH1 0x40 MLOAD DUP1 SWAP2 SUB SWAP1 RETURN JUMPDEST CALLVALUE DUP1 ISZERO PUSH2 0x3FA JUMPI PUSH1 0x0 DUP1 REVERT JUMPDEST POP PUSH2 0x403 PUSH2 0xB9A JUMP JUMPDEST PUSH1 0x40 MLOAD PUSH2 0x410 SWAP2 SWAP1 PUSH2 0x1446 JUMP JUMPDEST PUSH1 0x40 MLOAD DUP1 SWAP2 SUB SWAP1 RETURN JUMPDEST CALLVALUE DUP1 ISZERO PUSH2 0x425 JUMPI PUSH1 0x0 DUP1 REVERT JUMPDEST POP PUSH2 0x42E PUSH2 0xBAD JUMP JUMPDEST PUSH1 0x40 MLOAD PUSH2 0x43B SWAP2 SWAP1 PUSH2 0x14C1 JUMP JUMPDEST PUSH1 0x40 MLOAD DUP1 SWAP2 SUB SWAP1 RETURN JUMPDEST CALLVALUE DUP1 ISZERO PUSH2 0x450 JUMPI PUSH1 0x0 DUP1 REVERT JUMPDEST POP PUSH2 0x459 PUSH2 0xC10 JUMP JUMPDEST PUSH1 0x40 MLOAD PUSH2 0x466 SWAP2 SWAP1 PUSH2 0x13B0 JUMP JUMPDEST PUSH1 0x40 MLOAD DUP1 SWAP2 SUB SWAP1 RETURN JUMPDEST CALLVALUE DUP1 ISZERO PUSH2 0x47B JUMPI PUSH1 0x0 DUP1 REVERT JUMPDEST POP PUSH2 0x484 PUSH2 0xC36 JUMP JUMPDEST PUSH1 0x40 MLOAD PUSH2 0x491 SWAP2 SWAP1 PUSH2 0x14C1 JUMP JUMPDEST PUSH1 0x40 MLOAD DUP1 SWAP2 SUB SWAP1 RETURN JUMPDEST CALLVALUE DUP1 ISZERO PUSH2 0x4A6 JUMPI PUSH1 0x0 DUP1 REVERT JUMPDEST POP PUSH2 0x4AF PUSH2 0xC3C JUMP JUMPDEST PUSH1 0x40 MLOAD PUSH2 0x4BC SWAP2 SWAP1 PUSH2 0x14C1 JUMP JUMPDEST PUSH1 0x40 MLOAD DUP1 SWAP2 SUB SWAP1 RETURN JUMPDEST PUSH2 0x4DF PUSH1 0x4 DUP1 CALLDATASIZE SUB DUP2 ADD SWAP1 PUSH2 0x4DA SWAP2 SWAP1 PUSH2 0x1271 JUMP JUMPDEST PUSH2 0xC9F JUMP JUMPDEST STOP JUMPDEST CALLVALUE DUP1 ISZERO PUSH2 0x4ED JUMPI PUSH1 0x0 DUP1 REVERT JUMPDEST POP PUSH2 0x4F6 PUSH2 0xE91 JUMP JUMPDEST PUSH1 0x40 MLOAD PUSH2 0x503 SWAP2 SWAP1 PUSH2 0x142B JUMP JUMPDEST PUSH1 0x40 MLOAD DUP1 SWAP2 SUB SWAP1 RETURN JUMPDEST CALLVALUE DUP1 ISZERO PUSH2 0x518 JUMPI PUSH1 0x0 DUP1 REVERT JUMPDEST POP PUSH2 0x533 PUSH1 0x4 DUP1 CALLDATASIZE SUB DUP2 ADD SWAP1 PUSH2 0x52E SWAP2 SWAP1 PUSH2 0x1204 JUMP JUMPDEST PUSH2 0xEB7 JUMP JUMPDEST PUSH1 0x40 MLOAD PUSH2 0x540 SWAP2 SWAP1 PUSH2 0x14C1 JUMP JUMPDEST PUSH1 0x40 MLOAD DUP1 SWAP2 SUB SWAP1 RETURN JUMPDEST CALLVALUE DUP1 ISZERO PUSH2 0x555 JUMPI PUSH1 0x0 DUP1 REVERT JUMPDEST POP PUSH2 0x55E PUSH2 0xF4A JUMP JUMPDEST PUSH1 0x40 MLOAD PUSH2 0x56B SWAP2 SWAP1 PUSH2 0x14C1 JUMP JUMPDEST PUSH1 0x40 MLOAD DUP1 SWAP2 SUB SWAP1 RETURN JUMPDEST CALLVALUE DUP1 ISZERO PUSH2 0x580 JUMPI PUSH1 0x0 DUP1 REVERT JUMPDEST POP PUSH2 0x589 PUSH2 0xF50 JUMP JUMPDEST PUSH1 0x40 MLOAD PUSH2 0x596 SWAP2 SWAP1 PUSH2 0x13B0 JUMP JUMPDEST PUSH1 0x40 MLOAD DUP1 SWAP2 SUB SWAP1 RETURN JUMPDEST CALLVALUE DUP1 ISZERO PUSH2 0x5AB JUMPI PUSH1 0x0 DUP1 REVERT JUMPDEST POP PUSH2 0x5C6 PUSH1 0x4 DUP1 CALLDATASIZE SUB DUP2 ADD SWAP1 PUSH2 0x5C1 SWAP2 SWAP1 PUSH2 0x12CB JUMP JUMPDEST PUSH2 0xF76 JUMP JUMPDEST PUSH1 0x40 MLOAD PUSH2 0x5D3 SWAP2 SWAP1 PUSH2 0x14C1 JUMP JUMPDEST PUSH1 0x40 MLOAD DUP1 SWAP2 SUB SWAP1 RETURN JUMPDEST CALLVALUE DUP1 ISZERO PUSH2 0x5E8 JUMPI PUSH1 0x0 DUP1 REVERT JUMPDEST POP PUSH2 0x5F1 PUSH2 0xFBF JUMP JUMPDEST PUSH1 0x40 MLOAD PUSH2 0x5FE SWAP2 SWAP1 PUSH2 0x13B0 JUMP JUMPDEST PUSH1 0x40 MLOAD DUP1 SWAP2 SUB SWAP1 RETURN JUMPDEST CALLVALUE DUP1 ISZERO PUSH2 0x613 JUMPI PUSH1 0x0 DUP1 REVERT JUMPDEST POP PUSH2 0x62E PUSH1 0x4 DUP1 CALLDATASIZE SUB DUP2 ADD SWAP1 PUSH2 0x629 SWAP2 SWAP1 PUSH2 0x1271 JUMP JUMPDEST PUSH2 0xFE5 JUMP JUMPDEST STOP JUMPDEST PUSH1 0x0 PUSH8 0xDE0B6B3A7640000 PUSH1 0x1 SLOAD PUSH8 0xC7D713B49DA0000 PUSH2 0x651 SWAP2 SWAP1 PUSH2 0x15CE JUMP JUMPDEST ADDRESS PUSH20 0xFFFFFFFFFFFFFFFFFFFFFFFFFFFFFFFFFFFFFFFF AND PUSH4 0x1F564A06 PUSH1 0x40 MLOAD DUP2 PUSH4 0xFFFFFFFF AND PUSH1 0xE0 SHL DUP2 MSTORE PUSH1 0x4 ADD PUSH1 0x20 PUSH1 0x40 MLOAD DUP1 DUP4 SUB DUP2 DUP7 DUP1 EXTCODESIZE ISZERO DUP1 ISZERO PUSH2 0x697 JUMPI PUSH1 0x0 DUP1 REVERT JUMPDEST POP GAS STATICCALL ISZERO DUP1 ISZERO PUSH2 0x6AB JUMPI RETURNDATASIZE PUSH1 0x0 DUP1 RETURNDATACOPY RETURNDATASIZE PUSH1 0x0 REVERT JUMPDEST POP POP POP POP PUSH1 0x40 MLOAD RETURNDATASIZE PUSH1 0x1F NOT PUSH1 0x1F DUP3 ADD AND DUP3 ADD DUP1 PUSH1 0x40 MSTORE POP DUP2 ADD SWAP1 PUSH2 0x6CF SWAP2 SWAP1 PUSH2 0x129E JUMP JUMPDEST PUSH2 0x6D9 SWAP2 SWAP1 PUSH2 0x1574 JUMP JUMPDEST PUSH2 0x6E3 SWAP2 SWAP1 PUSH2 0x1543 JUMP JUMPDEST SWAP1 POP SWAP1 JUMP JUMPDEST PUSH1 0x8 PUSH1 0x0 SWAP1 SLOAD SWAP1 PUSH2 0x100 EXP SWAP1 DIV PUSH20 0xFFFFFFFFFFFFFFFFFFFFFFFFFFFFFFFFFFFFFFFF AND DUP2 JUMP JUMPDEST PUSH1 0x14 PUSH1 0x20 MSTORE DUP1 PUSH1 0x0 MSTORE PUSH1 0x40 PUSH1 0x0 KECCAK256 PUSH1 0x0 SWAP2 POP SWAP1 POP SLOAD DUP2 JUMP JUMPDEST PUSH1 0x0 PUSH2 0x7D3 PUSH1 0x9 SLOAD PUSH1 0x11 PUSH1 0x0 SWAP1 SLOAD SWAP1 PUSH2 0x100 EXP SWAP1 DIV PUSH20 0xFFFFFFFFFFFFFFFFFFFFFFFFFFFFFFFFFFFFFFFF AND PUSH20 0xFFFFFFFFFFFFFFFFFFFFFFFFFFFFFFFFFFFFFFFF AND PUSH4 0x18160DDD PUSH1 0x40 MLOAD DUP2 PUSH4 0xFFFFFFFF AND PUSH1 0xE0 SHL DUP2 MSTORE PUSH1 0x4 ADD PUSH1 0x20 PUSH1 0x40 MLOAD DUP1 DUP4 SUB DUP2 DUP7 DUP1 EXTCODESIZE ISZERO DUP1 ISZERO PUSH2 0x796 JUMPI PUSH1 0x0 DUP1 REVERT JUMPDEST POP GAS STATICCALL ISZERO DUP1 ISZERO PUSH2 0x7AA JUMPI RETURNDATASIZE PUSH1 0x0 DUP1 RETURNDATACOPY RETURNDATASIZE PUSH1 0x0 REVERT JUMPDEST POP POP POP POP PUSH1 0x40 MLOAD RETURNDATASIZE PUSH1 0x1F NOT PUSH1 0x1F DUP3 ADD AND DUP3 ADD DUP1 PUSH1 0x40 MSTORE POP DUP2 ADD SWAP1 PUSH2 0x7CE SWAP2 SWAP1 PUSH2 0x129E JUMP JUMPDEST PUSH2 0x90F JUMP JUMPDEST SWAP1 POP SWAP1 JUMP JUMPDEST PUSH1 0x13 PUSH1 0x20 MSTORE DUP1 PUSH1 0x0 MSTORE PUSH1 0x40 PUSH1 0x0 KECCAK256 PUSH1 0x0 SWAP2 POP SWAP1 POP SLOAD DUP2 JUMP JUMPDEST PUSH1 0x9 SLOAD DUP2 JUMP JUMPDEST PUSH1 0xA SLOAD DUP2 JUMP JUMPDEST PUSH1 0x0 PUSH8 0xDE0B6B3A7640000 PUSH1 0x5 PUSH8 0xDE0B6B3A7640000 PUSH1 0x6 PUSH2 0x81E SWAP2 SWAP1 PUSH2 0x1574 JUMP JUMPDEST PUSH2 0x828 SWAP2 SWAP1 PUSH2 0x1543 JUMP JUMPDEST PUSH1 0x0 SLOAD PUSH2 0x835 SWAP2 SWAP1 PUSH2 0x14ED JUMP JUMPDEST ADDRESS PUSH20 0xFFFFFFFFFFFFFFFFFFFFFFFFFFFFFFFFFFFFFFFF AND PUSH4 0x1F564A06 PUSH1 0x40 MLOAD DUP2 PUSH4 0xFFFFFFFF AND PUSH1 0xE0 SHL DUP2 MSTORE PUSH1 0x4 ADD PUSH1 0x20 PUSH1 0x40 MLOAD DUP1 DUP4 SUB DUP2 DUP7 DUP1 EXTCODESIZE ISZERO DUP1 ISZERO PUSH2 0x87B JUMPI PUSH1 0x0 DUP1 REVERT JUMPDEST POP GAS STATICCALL ISZERO DUP1 ISZERO PUSH2 0x88F JUMPI RETURNDATASIZE PUSH1 0x0 DUP1 RETURNDATACOPY RETURNDATASIZE PUSH1 0x0 REVERT JUMPDEST POP POP POP POP PUSH1 0x40 MLOAD RETURNDATASIZE PUSH1 0x1F NOT PUSH1 0x1F DUP3 ADD AND DUP3 ADD DUP1 PUSH1 0x40 MSTORE POP DUP2 ADD SWAP1 PUSH2 0x8B3 SWAP2 SWAP1 PUSH2 0x129E JUMP JUMPDEST PUSH2 0x8BD SWAP2 SWAP1 PUSH2 0x1574 JUMP JUMPDEST PUSH2 0x8C7 SWAP2 SWAP1 PUSH2 0x1543 JUMP JUMPDEST SWAP1 POP SWAP1 JUMP JUMPDEST PUSH1 0x0 DUP1 PUSH3 0x15180 PUSH1 0xA SLOAD DUP6 PUSH2 0x8E1 SWAP2 SWAP1 PUSH2 0x15CE JUMP JUMPDEST PUSH2 0x8EB SWAP2 SWAP1 PUSH2 0x1543 JUMP JUMPDEST SWAP1 POP DUP3 PUSH1 0x13 PUSH1 0x0 DUP4 DUP2 MSTORE PUSH1 0x20 ADD SWAP1 DUP2 MSTORE PUSH1 0x20 ADD PUSH1 0x0 KECCAK256 DUP2 SWAP1 SSTORE POP DUP1 SWAP2 POP POP SWAP3 SWAP2 POP POP JUMP JUMPDEST PUSH1 0x0 DUP1 PUSH2 0x924 DUP5 PUSH8 0xDE0B6B3A7640000 PUSH2 0xFFD JUMP JUMPDEST SWAP1 POP DUP3 PUSH2 0x93D DUP3 PUSH1 0x2 DUP7 PUSH2 0x938 SWAP2 SWAP1 PUSH2 0x1543 JUMP JUMPDEST PUSH2 0x1078 JUMP JUMPDEST PUSH2 0x947 SWAP2 SWAP1 PUSH2 0x1543 JUMP JUMPDEST SWAP2 POP POP SWAP3 SWAP2 POP POP JUMP JUMPDEST PUSH1 0x0 PUSH1 0x12 PUSH1 0x0 SWAP1 SLOAD SWAP1 PUSH2 0x100 EXP SWAP1 DIV PUSH20 0xFFFFFFFFFFFFFFFFFFFFFFFFFFFFFFFFFFFFFFFF AND PUSH20 0xFFFFFFFFFFFFFFFFFFFFFFFFFFFFFFFFFFFFFFFF AND PUSH4 0x70A08231 CALLER PUSH1 0x40 MLOAD DUP3 PUSH4 0xFFFFFFFF AND PUSH1 0xE0 SHL DUP2 MSTORE PUSH1 0x4 ADD PUSH2 0x9AD SWAP2 SWAP1 PUSH2 0x13B0 JUMP JUMPDEST PUSH1 0x20 PUSH1 0x40 MLOAD DUP1 DUP4 SUB DUP2 DUP7 DUP1 EXTCODESIZE ISZERO DUP1 ISZERO PUSH2 0x9C5 JUMPI PUSH1 0x0 DUP1 REVERT JUMPDEST POP GAS STATICCALL ISZERO DUP1 ISZERO PUSH2 0x9D9 JUMPI RETURNDATASIZE PUSH1 0x0 DUP1 RETURNDATACOPY RETURNDATASIZE PUSH1 0x0 REVERT JUMPDEST POP POP POP POP PUSH1 0x40 MLOAD RETURNDATASIZE PUSH1 0x1F NOT PUSH1 0x1F DUP3 ADD AND DUP3 ADD DUP1 PUSH1 0x40 MSTORE POP DUP2 ADD SWAP1 PUSH2 0x9FD SWAP2 SWAP1 PUSH2 0x129E JUMP JUMPDEST SWAP1 POP DUP2 DUP2 GT PUSH2 0xA41 JUMPI PUSH1 0x40 MLOAD PUSH32 0x8C379A000000000000000000000000000000000000000000000000000000000 DUP2 MSTORE PUSH1 0x4 ADD PUSH2 0xA38 SWAP1 PUSH2 0x1481 JUMP JUMPDEST PUSH1 0x40 MLOAD DUP1 SWAP2 SUB SWAP1 REVERT JUMPDEST PUSH1 0x11 PUSH1 0x0 SWAP1 SLOAD SWAP1 PUSH2 0x100 EXP SWAP1 DIV PUSH20 0xFFFFFFFFFFFFFFFFFFFFFFFFFFFFFFFFFFFFFFFF AND PUSH20 0xFFFFFFFFFFFFFFFFFFFFFFFFFFFFFFFFFFFFFFFF AND PUSH4 0xA9059CBB CALLER DUP5 PUSH1 0x40 MLOAD DUP4 PUSH4 0xFFFFFFFF AND PUSH1 0xE0 SHL DUP2 MSTORE PUSH1 0x4 ADD PUSH2 0xA9E SWAP3 SWAP2 SWAP1 PUSH2 0x1402 JUMP JUMPDEST PUSH1 0x20 PUSH1 0x40 MLOAD DUP1 DUP4 SUB DUP2 PUSH1 0x0 DUP8 DUP1 EXTCODESIZE ISZERO DUP1 ISZERO PUSH2 0xAB8 JUMPI PUSH1 0x0 DUP1 REVERT JUMPDEST POP GAS CALL ISZERO DUP1 ISZERO PUSH2 0xACC JUMPI RETURNDATASIZE PUSH1 0x0 DUP1 RETURNDATACOPY RETURNDATASIZE PUSH1 0x0 REVERT JUMPDEST POP POP POP POP PUSH1 0x40 MLOAD RETURNDATASIZE PUSH1 0x1F NOT PUSH1 0x1F DUP3 ADD AND DUP3 ADD DUP1 PUSH1 0x40 MSTORE POP DUP2 ADD SWAP1 PUSH2 0xAF0 SWAP2 SWAP1 PUSH2 0x1244 JUMP JUMPDEST POP PUSH2 0xB1F PUSH1 0x12 PUSH1 0x0 SWAP1 SLOAD SWAP1 PUSH2 0x100 EXP SWAP1 DIV PUSH20 0xFFFFFFFFFFFFFFFFFFFFFFFFFFFFFFFFFFFFFFFF AND CALLER ADDRESS DUP6 PUSH2 0x10D6 JUMP JUMPDEST PUSH1 0x0 PUSH3 0x15180 PUSH1 0xA SLOAD TIMESTAMP PUSH2 0xB33 SWAP2 SWAP1 PUSH2 0x15CE JUMP JUMPDEST PUSH2 0xB3D SWAP2 SWAP1 PUSH2 0x1543 JUMP JUMPDEST SWAP1 POP DUP3 PUSH1 0x13 PUSH1 0x0 DUP4 DUP2 MSTORE PUSH1 0x20 ADD SWAP1 DUP2 MSTORE PUSH1 0x20 ADD PUSH1 0x0 KECCAK256 PUSH1 0x0 DUP3 DUP3 SLOAD PUSH2 0xB62 SWAP2 SWAP1 PUSH2 0x14ED JUMP JUMPDEST SWAP3 POP POP DUP2 SWAP1 SSTORE POP POP POP POP JUMP JUMPDEST PUSH1 0xB SLOAD DUP2 JUMP JUMPDEST PUSH1 0x11 PUSH1 0x0 SWAP1 SLOAD SWAP1 PUSH2 0x100 EXP SWAP1 DIV PUSH20 0xFFFFFFFFFFFFFFFFFFFFFFFFFFFFFFFFFFFFFFFF AND DUP2 JUMP JUMPDEST PUSH1 0xF PUSH1 0x0 SWAP1 SLOAD SWAP1 PUSH2 0x100 EXP SWAP1 DIV PUSH1 0xF SIGNEXTEND DUP2 JUMP JUMPDEST PUSH1 0x0 DUP1 PUSH1 0x0 DUP1 PUSH3 0x15180 PUSH1 0xB SLOAD PUSH2 0xBC4 SWAP2 SWAP1 PUSH2 0x1543 JUMP JUMPDEST SWAP1 POP PUSH1 0x0 SWAP2 POP JUMPDEST DUP1 DUP3 LT ISZERO PUSH2 0xC07 JUMPI PUSH1 0x13 PUSH1 0x0 DUP4 DUP2 MSTORE PUSH1 0x20 ADD SWAP1 DUP2 MSTORE PUSH1 0x20 ADD PUSH1 0x0 KECCAK256 SLOAD DUP4 PUSH2 0xBF2 SWAP2 SWAP1 PUSH2 0x14ED JUMP JUMPDEST SWAP3 POP DUP2 DUP1 PUSH2 0xBFF SWAP1 PUSH2 0x168D JUMP JUMPDEST SWAP3 POP POP PUSH2 0xBCB JUMP JUMPDEST DUP3 SWAP4 POP POP POP POP SWAP1 JUMP JUMPDEST PUSH1 0x7 PUSH1 0x0 SWAP1 SLOAD SWAP1 PUSH2 0x100 EXP SWAP1 DIV PUSH20 0xFFFFFFFFFFFFFFFFFFFFFFFFFFFFFFFFFFFFFFFF AND DUP2 JUMP JUMPDEST PUSH1 0x1 SLOAD DUP2 JUMP JUMPDEST PUSH1 0x0 DUP1 PUSH1 0x0 DUP1 PUSH3 0x15180 PUSH1 0xB SLOAD PUSH2 0xC53 SWAP2 SWAP1 PUSH2 0x1543 JUMP JUMPDEST SWAP1 POP PUSH1 0x0 SWAP2 POP JUMPDEST DUP1 DUP3 LT ISZERO PUSH2 0xC96 JUMPI PUSH1 0x14 PUSH1 0x0 DUP4 DUP2 MSTORE PUSH1 0x20 ADD SWAP1 DUP2 MSTORE PUSH1 0x20 ADD PUSH1 0x0 KECCAK256 SLOAD DUP4 PUSH2 0xC81 SWAP2 SWAP1 PUSH2 0x14ED JUMP JUMPDEST SWAP3 POP DUP2 DUP1 PUSH2 0xC8E SWAP1 PUSH2 0x168D JUMP JUMPDEST SWAP3 POP POP PUSH2 0xC5A JUMP JUMPDEST DUP3 SWAP4 POP POP POP POP SWAP1 JUMP JUMPDEST PUSH1 0x0 PUSH1 0x11 PUSH1 0x0 SWAP1 SLOAD SWAP1 PUSH2 0x100 EXP SWAP1 DIV PUSH20 0xFFFFFFFFFFFFFFFFFFFFFFFFFFFFFFFFFFFFFFFF AND PUSH20 0xFFFFFFFFFFFFFFFFFFFFFFFFFFFFFFFFFFFFFFFF AND PUSH4 0x70A08231 CALLER PUSH1 0x40 MLOAD DUP3 PUSH4 0xFFFFFFFF AND PUSH1 0xE0 SHL DUP2 MSTORE PUSH1 0x4 ADD PUSH2 0xCFC SWAP2 SWAP1 PUSH2 0x13B0 JUMP JUMPDEST PUSH1 0x20 PUSH1 0x40 MLOAD DUP1 DUP4 SUB DUP2 DUP7 DUP1 EXTCODESIZE ISZERO DUP1 ISZERO PUSH2 0xD14 JUMPI PUSH1 0x0 DUP1 REVERT JUMPDEST POP GAS STATICCALL ISZERO DUP1 ISZERO PUSH2 0xD28 JUMPI RETURNDATASIZE PUSH1 0x0 DUP1 RETURNDATACOPY RETURNDATASIZE PUSH1 0x0 REVERT JUMPDEST POP POP POP POP PUSH1 0x40 MLOAD RETURNDATASIZE PUSH1 0x1F NOT PUSH1 0x1F DUP3 ADD AND DUP3 ADD DUP1 PUSH1 0x40 MSTORE POP DUP2 ADD SWAP1 PUSH2 0xD4C SWAP2 SWAP1 PUSH2 0x129E JUMP JUMPDEST SWAP1 POP DUP2 DUP2 GT PUSH2 0xD90 JUMPI PUSH1 0x40 MLOAD PUSH32 0x8C379A000000000000000000000000000000000000000000000000000000000 DUP2 MSTORE PUSH1 0x4 ADD PUSH2 0xD87 SWAP1 PUSH2 0x1481 JUMP JUMPDEST PUSH1 0x40 MLOAD DUP1 SWAP2 SUB SWAP1 REVERT JUMPDEST PUSH1 0x12 PUSH1 0x0 SWAP1 SLOAD SWAP1 PUSH2 0x100 EXP SWAP1 DIV PUSH20 0xFFFFFFFFFFFFFFFFFFFFFFFFFFFFFFFFFFFFFFFF AND PUSH20 0xFFFFFFFFFFFFFFFFFFFFFFFFFFFFFFFFFFFFFFFF AND PUSH4 0xA9059CBB CALLER PUSH8 0xDE0B6B3A7640000 PUSH1 0x1 PUSH2 0xDE4 SWAP2 SWAP1 PUSH2 0x1574 JUMP JUMPDEST DUP6 PUSH2 0xDEF SWAP2 SWAP1 PUSH2 0x14ED JUMP JUMPDEST PUSH1 0x40 MLOAD DUP4 PUSH4 0xFFFFFFFF AND PUSH1 0xE0 SHL DUP2 MSTORE PUSH1 0x4 ADD PUSH2 0xE0C SWAP3 SWAP2 SWAP1 PUSH2 0x1402 JUMP JUMPDEST PUSH1 0x20 PUSH1 0x40 MLOAD DUP1 DUP4 SUB DUP2 PUSH1 0x0 DUP8 DUP1 EXTCODESIZE ISZERO DUP1 ISZERO PUSH2 0xE26 JUMPI PUSH1 0x0 DUP1 REVERT JUMPDEST POP GAS CALL ISZERO DUP1 ISZERO PUSH2 0xE3A JUMPI RETURNDATASIZE PUSH1 0x0 DUP1 RETURNDATACOPY RETURNDATASIZE PUSH1 0x0 REVERT JUMPDEST POP POP POP POP PUSH1 0x40 MLOAD RETURNDATASIZE PUSH1 0x1F NOT PUSH1 0x1F DUP3 ADD AND DUP3 ADD DUP1 PUSH1 0x40 MSTORE POP DUP2 ADD SWAP1 PUSH2 0xE5E SWAP2 SWAP1 PUSH2 0x1244 JUMP JUMPDEST POP PUSH2 0xE8D PUSH1 0x11 PUSH1 0x0 SWAP1 SLOAD SWAP1 PUSH2 0x100 EXP SWAP1 DIV PUSH20 0xFFFFFFFFFFFFFFFFFFFFFFFFFFFFFFFFFFFFFFFF AND CALLER ADDRESS DUP6 PUSH2 0x10D6 JUMP JUMPDEST POP POP JUMP JUMPDEST PUSH1 0x12 PUSH1 0x0 SWAP1 SLOAD SWAP1 PUSH2 0x100 EXP SWAP1 DIV PUSH20 0xFFFFFFFFFFFFFFFFFFFFFFFFFFFFFFFFFFFFFFFF AND DUP2 JUMP JUMPDEST PUSH1 0x0 DUP3 PUSH20 0xFFFFFFFFFFFFFFFFFFFFFFFFFFFFFFFFFFFFFFFF AND PUSH4 0x70A08231 DUP4 PUSH1 0x40 MLOAD DUP3 PUSH4 0xFFFFFFFF AND PUSH1 0xE0 SHL DUP2 MSTORE PUSH1 0x4 ADD PUSH2 0xEF2 SWAP2 SWAP1 PUSH2 0x13B0 JUMP JUMPDEST PUSH1 0x20 PUSH1 0x40 MLOAD DUP1 DUP4 SUB DUP2 DUP7 DUP1 EXTCODESIZE ISZERO DUP1 ISZERO PUSH2 0xF0A JUMPI PUSH1 0x0 DUP1 REVERT JUMPDEST POP GAS STATICCALL ISZERO DUP1 ISZERO PUSH2 0xF1E JUMPI RETURNDATASIZE PUSH1 0x0 DUP1 RETURNDATACOPY RETURNDATASIZE PUSH1 0x0 REVERT JUMPDEST POP POP POP POP PUSH1 0x40 MLOAD RETURNDATASIZE PUSH1 0x1F NOT PUSH1 0x1F DUP3 ADD AND DUP3 ADD DUP1 PUSH1 0x40 MSTORE POP DUP2 ADD SWAP1 PUSH2 0xF42 SWAP2 SWAP1 PUSH2 0x129E JUMP JUMPDEST SWAP1 POP SWAP3 SWAP2 POP POP JUMP JUMPDEST PUSH1 0x0 SLOAD DUP2 JUMP JUMPDEST PUSH1 0x10 PUSH1 0x0 SWAP1 SLOAD SWAP1 PUSH2 0x100 EXP SWAP1 DIV PUSH20 0xFFFFFFFFFFFFFFFFFFFFFFFFFFFFFFFFFFFFFFFF AND DUP2 JUMP JUMPDEST PUSH1 0x0 DUP1 PUSH2 0xF83 DUP5 DUP5 PUSH2 0xFFD JUMP JUMPDEST SWAP1 POP PUSH8 0xDE0B6B3A7640000 PUSH2 0xFAC DUP3 PUSH1 0x2 PUSH8 0xDE0B6B3A7640000 PUSH2 0xFA7 SWAP2 SWAP1 PUSH2 0x1543 JUMP JUMPDEST PUSH2 0x1078 JUMP JUMPDEST PUSH2 0xFB6 SWAP2 SWAP1 PUSH2 0x1543 JUMP JUMPDEST SWAP2 POP POP SWAP3 SWAP2 POP POP JUMP JUMPDEST PUSH1 0x6 PUSH1 0x0 SWAP1 SLOAD SWAP1 PUSH2 0x100 EXP SWAP1 DIV PUSH20 0xFFFFFFFFFFFFFFFFFFFFFFFFFFFFFFFFFFFFFFFF AND DUP2 JUMP JUMPDEST PUSH3 0x15180 DUP2 PUSH2 0xFF4 SWAP2 SWAP1 PUSH2 0x1574 JUMP JUMPDEST PUSH1 0xB DUP2 SWAP1 SSTORE POP POP JUMP JUMPDEST PUSH1 0x0 DUP1 DUP4 EQ ISZERO PUSH2 0x1010 JUMPI PUSH1 0x0 SWAP1 POP PUSH2 0x1072 JUMP JUMPDEST PUSH1 0x0 DUP3 DUP5 PUSH2 0x101E SWAP2 SWAP1 PUSH2 0x1574 JUMP JUMPDEST SWAP1 POP DUP3 DUP5 DUP3 PUSH2 0x102D SWAP2 SWAP1 PUSH2 0x1543 JUMP JUMPDEST EQ PUSH2 0x106D JUMPI PUSH1 0x40 MLOAD PUSH32 0x8C379A000000000000000000000000000000000000000000000000000000000 DUP2 MSTORE PUSH1 0x4 ADD PUSH2 0x1064 SWAP1 PUSH2 0x14A1 JUMP JUMPDEST PUSH1 0x40 MLOAD DUP1 SWAP2 SUB SWAP1 REVERT JUMPDEST DUP1 SWAP2 POP POP JUMPDEST SWAP3 SWAP2 POP POP JUMP JUMPDEST PUSH1 0x0 DUP1 DUP3 DUP5 PUSH2 0x1087 SWAP2 SWAP1 PUSH2 0x14ED JUMP JUMPDEST SWAP1 POP DUP4 DUP2 LT ISZERO PUSH2 0x10CC JUMPI PUSH1 0x40 MLOAD PUSH32 0x8C379A000000000000000000000000000000000000000000000000000000000 DUP2 MSTORE PUSH1 0x4 ADD PUSH2 0x10C3 SWAP1 PUSH2 0x14A1 JUMP JUMPDEST PUSH1 0x40 MLOAD DUP1 SWAP2 SUB SWAP1 REVERT JUMPDEST DUP1 SWAP2 POP POP SWAP3 SWAP2 POP POP JUMP JUMPDEST PUSH1 0x0 DUP5 PUSH20 0xFFFFFFFFFFFFFFFFFFFFFFFFFFFFFFFFFFFFFFFF AND PUSH4 0x23B872DD DUP6 DUP6 DUP6 PUSH1 0x40 MLOAD DUP5 PUSH4 0xFFFFFFFF AND PUSH1 0xE0 SHL DUP2 MSTORE PUSH1 0x4 ADD PUSH2 0x1115 SWAP4 SWAP3 SWAP2 SWAP1 PUSH2 0x13CB JUMP JUMPDEST PUSH1 0x20 PUSH1 0x40 MLOAD DUP1 DUP4 SUB DUP2 PUSH1 0x0 DUP8 DUP1 EXTCODESIZE ISZERO DUP1 ISZERO PUSH2 0x112F JUMPI PUSH1 0x0 DUP1 REVERT JUMPDEST POP GAS CALL ISZERO DUP1 ISZERO PUSH2 0x1143 JUMPI RETURNDATASIZE PUSH1 0x0 DUP1 RETURNDATACOPY RETURNDATASIZE PUSH1 0x0 REVERT JUMPDEST POP POP POP POP PUSH1 0x40 MLOAD RETURNDATASIZE PUSH1 0x1F NOT PUSH1 0x1F DUP3 ADD AND DUP3 ADD DUP1 PUSH1 0x40 MSTORE POP DUP2 ADD SWAP1 PUSH2 0x1167 SWAP2 SWAP1 PUSH2 0x1244 JUMP JUMPDEST SWAP1 POP DUP1 PUSH2 0x11A9 JUMPI PUSH1 0x40 MLOAD PUSH32 0x8C379A000000000000000000000000000000000000000000000000000000000 DUP2 MSTORE PUSH1 0x4 ADD PUSH2 0x11A0 SWAP1 PUSH2 0x1461 JUMP JUMPDEST PUSH1 0x40 MLOAD DUP1 SWAP2 SUB SWAP1 REVERT JUMPDEST POP POP POP POP POP JUMP JUMPDEST PUSH1 0x0 DUP2 CALLDATALOAD SWAP1 POP PUSH2 0x11BF DUP2 PUSH2 0x17DA JUMP JUMPDEST SWAP3 SWAP2 POP POP JUMP JUMPDEST PUSH1 0x0 DUP2 MLOAD SWAP1 POP PUSH2 0x11D4 DUP2 PUSH2 0x17F1 JUMP JUMPDEST SWAP3 SWAP2 POP POP JUMP JUMPDEST PUSH1 0x0 DUP2 CALLDATALOAD SWAP1 POP PUSH2 0x11E9 DUP2 PUSH2 0x1808 JUMP JUMPDEST SWAP3 SWAP2 POP POP JUMP JUMPDEST PUSH1 0x0 DUP2 MLOAD SWAP1 POP PUSH2 0x11FE DUP2 PUSH2 0x1808 JUMP JUMPDEST SWAP3 SWAP2 POP POP JUMP JUMPDEST PUSH1 0x0 DUP1 PUSH1 0x40 DUP4 DUP6 SUB SLT ISZERO PUSH2 0x121B JUMPI PUSH2 0x121A PUSH2 0x1734 JUMP JUMPDEST JUMPDEST PUSH1 0x0 PUSH2 0x1229 DUP6 DUP3 DUP7 ADD PUSH2 0x11B0 JUMP JUMPDEST SWAP3 POP POP PUSH1 0x20 PUSH2 0x123A DUP6 DUP3 DUP7 ADD PUSH2 0x11B0 JUMP JUMPDEST SWAP2 POP POP SWAP3 POP SWAP3 SWAP1 POP JUMP JUMPDEST PUSH1 0x0 PUSH1 0x20 DUP3 DUP5 SUB SLT ISZERO PUSH2 0x125A JUMPI PUSH2 0x1259 PUSH2 0x1734 JUMP JUMPDEST JUMPDEST PUSH1 0x0 PUSH2 0x1268 DUP5 DUP3 DUP6 ADD PUSH2 0x11C5 JUMP JUMPDEST SWAP2 POP POP SWAP3 SWAP2 POP POP JUMP JUMPDEST PUSH1 0x0 PUSH1 0x20 DUP3 DUP5 SUB SLT ISZERO PUSH2 0x1287 JUMPI PUSH2 0x1286 PUSH2 0x1734 JUMP JUMPDEST JUMPDEST PUSH1 0x0 PUSH2 0x1295 DUP5 DUP3 DUP6 ADD PUSH2 0x11DA JUMP JUMPDEST SWAP2 POP POP SWAP3 SWAP2 POP POP JUMP JUMPDEST PUSH1 0x0 PUSH1 0x20 DUP3 DUP5 SUB SLT ISZERO PUSH2 0x12B4 JUMPI PUSH2 0x12B3 PUSH2 0x1734 JUMP JUMPDEST JUMPDEST PUSH1 0x0 PUSH2 0x12C2 DUP5 DUP3 DUP6 ADD PUSH2 0x11EF JUMP JUMPDEST SWAP2 POP POP SWAP3 SWAP2 POP POP JUMP JUMPDEST PUSH1 0x0 DUP1 PUSH1 0x40 DUP4 DUP6 SUB SLT ISZERO PUSH2 0x12E2 JUMPI PUSH2 0x12E1 PUSH2 0x1734 JUMP JUMPDEST JUMPDEST PUSH1 0x0 PUSH2 0x12F0 DUP6 DUP3 DUP7 ADD PUSH2 0x11DA JUMP JUMPDEST SWAP3 POP POP PUSH1 0x20 PUSH2 0x1301 DUP6 DUP3 DUP7 ADD PUSH2 0x11DA JUMP JUMPDEST SWAP2 POP POP SWAP3 POP SWAP3 SWAP1 POP JUMP JUMPDEST PUSH2 0x1314 DUP2 PUSH2 0x1602 JUMP JUMPDEST DUP3 MSTORE POP POP JUMP JUMPDEST PUSH2 0x1323 DUP2 PUSH2 0x1657 JUMP JUMPDEST DUP3 MSTORE POP POP JUMP JUMPDEST PUSH2 0x1332 DUP2 PUSH2 0x1620 JUMP JUMPDEST DUP3 MSTORE POP POP JUMP JUMPDEST PUSH1 0x0 PUSH2 0x1345 PUSH1 0x15 DUP4 PUSH2 0x14DC JUMP JUMPDEST SWAP2 POP PUSH2 0x1350 DUP3 PUSH2 0x1739 JUMP JUMPDEST PUSH1 0x20 DUP3 ADD SWAP1 POP SWAP2 SWAP1 POP JUMP JUMPDEST PUSH1 0x0 PUSH2 0x1368 PUSH1 0x1A DUP4 PUSH2 0x14DC JUMP JUMPDEST SWAP2 POP PUSH2 0x1373 DUP3 PUSH2 0x1762 JUMP JUMPDEST PUSH1 0x20 DUP3 ADD SWAP1 POP SWAP2 SWAP1 POP JUMP JUMPDEST PUSH1 0x0 PUSH2 0x138B PUSH1 0x21 DUP4 PUSH2 0x14DC JUMP JUMPDEST SWAP2 POP PUSH2 0x1396 DUP3 PUSH2 0x178B JUMP JUMPDEST PUSH1 0x40 DUP3 ADD SWAP1 POP SWAP2 SWAP1 POP JUMP JUMPDEST PUSH2 0x13AA DUP2 PUSH2 0x164D JUMP JUMPDEST DUP3 MSTORE POP POP JUMP JUMPDEST PUSH1 0x0 PUSH1 0x20 DUP3 ADD SWAP1 POP PUSH2 0x13C5 PUSH1 0x0 DUP4 ADD DUP5 PUSH2 0x130B JUMP JUMPDEST SWAP3 SWAP2 POP POP JUMP JUMPDEST PUSH1 0x0 PUSH1 0x60 DUP3 ADD SWAP1 POP PUSH2 0x13E0 PUSH1 0x0 DUP4 ADD DUP7 PUSH2 0x130B JUMP JUMPDEST PUSH2 0x13ED PUSH1 0x20 DUP4 ADD DUP6 PUSH2 0x130B JUMP JUMPDEST PUSH2 0x13FA PUSH1 0x40 DUP4 ADD DUP5 PUSH2 0x13A1 JUMP JUMPDEST SWAP5 SWAP4 POP POP POP POP JUMP JUMPDEST PUSH1 0x0 PUSH1 0x40 DUP3 ADD SWAP1 POP PUSH2 0x1417 PUSH1 0x0 DUP4 ADD DUP6 PUSH2 0x130B JUMP JUMPDEST PUSH2 0x1424 PUSH1 0x20 DUP4 ADD DUP5 PUSH2 0x13A1 JUMP JUMPDEST SWAP4 SWAP3 POP POP POP JUMP JUMPDEST PUSH1 0x0 PUSH1 0x20 DUP3 ADD SWAP1 POP PUSH2 0x1440 PUSH1 0x0 DUP4 ADD DUP5 PUSH2 0x131A JUMP JUMPDEST SWAP3 SWAP2 POP POP JUMP JUMPDEST PUSH1 0x0 PUSH1 0x20 DUP3 ADD SWAP1 POP PUSH2 0x145B PUSH1 0x0 DUP4 ADD DUP5 PUSH2 0x1329 JUMP JUMPDEST SWAP3 SWAP2 POP POP JUMP JUMPDEST PUSH1 0x0 PUSH1 0x20 DUP3 ADD SWAP1 POP DUP2 DUP2 SUB PUSH1 0x0 DUP4 ADD MSTORE PUSH2 0x147A DUP2 PUSH2 0x1338 JUMP JUMPDEST SWAP1 POP SWAP2 SWAP1 POP JUMP JUMPDEST PUSH1 0x0 PUSH1 0x20 DUP3 ADD SWAP1 POP DUP2 DUP2 SUB PUSH1 0x0 DUP4 ADD MSTORE PUSH2 0x149A DUP2 PUSH2 0x135B JUMP JUMPDEST SWAP1 POP SWAP2 SWAP1 POP JUMP JUMPDEST PUSH1 0x0 PUSH1 0x20 DUP3 ADD SWAP1 POP DUP2 DUP2 SUB PUSH1 0x0 DUP4 ADD MSTORE PUSH2 0x14BA DUP2 PUSH2 0x137E JUMP JUMPDEST SWAP1 POP SWAP2 SWAP1 POP JUMP JUMPDEST PUSH1 0x0 PUSH1 0x20 DUP3 ADD SWAP1 POP PUSH2 0x14D6 PUSH1 0x0 DUP4 ADD DUP5 PUSH2 0x13A1 JUMP JUMPDEST SWAP3 SWAP2 POP POP JUMP JUMPDEST PUSH1 0x0 DUP3 DUP3 MSTORE PUSH1 0x20 DUP3 ADD SWAP1 POP SWAP3 SWAP2 POP POP JUMP JUMPDEST PUSH1 0x0 PUSH2 0x14F8 DUP3 PUSH2 0x164D JUMP JUMPDEST SWAP2 POP PUSH2 0x1503 DUP4 PUSH2 0x164D JUMP JUMPDEST SWAP3 POP DUP3 PUSH32 0xFFFFFFFFFFFFFFFFFFFFFFFFFFFFFFFFFFFFFFFFFFFFFFFFFFFFFFFFFFFFFFFF SUB DUP3 GT ISZERO PUSH2 0x1538 JUMPI PUSH2 0x1537 PUSH2 0x16D6 JUMP JUMPDEST JUMPDEST DUP3 DUP3 ADD SWAP1 POP SWAP3 SWAP2 POP POP JUMP JUMPDEST PUSH1 0x0 PUSH2 0x154E DUP3 PUSH2 0x164D JUMP JUMPDEST SWAP2 POP PUSH2 0x1559 DUP4 PUSH2 0x164D JUMP JUMPDEST SWAP3 POP DUP3 PUSH2 0x1569 JUMPI PUSH2 0x1568 PUSH2 0x1705 JUMP JUMPDEST JUMPDEST DUP3 DUP3 DIV SWAP1 POP SWAP3 SWAP2 POP POP JUMP JUMPDEST PUSH1 0x0 PUSH2 0x157F DUP3 PUSH2 0x164D JUMP JUMPDEST SWAP2 POP PUSH2 0x158A DUP4 PUSH2 0x164D JUMP JUMPDEST SWAP3 POP DUP2 PUSH32 0xFFFFFFFFFFFFFFFFFFFFFFFFFFFFFFFFFFFFFFFFFFFFFFFFFFFFFFFFFFFFFFFF DIV DUP4 GT DUP3 ISZERO ISZERO AND ISZERO PUSH2 0x15C3 JUMPI PUSH2 0x15C2 PUSH2 0x16D6 JUMP JUMPDEST JUMPDEST DUP3 DUP3 MUL SWAP1 POP SWAP3 SWAP2 POP POP JUMP JUMPDEST PUSH1 0x0 PUSH2 0x15D9 DUP3 PUSH2 0x164D JUMP JUMPDEST SWAP2 POP PUSH2 0x15E4 DUP4 PUSH2 0x164D JUMP JUMPDEST SWAP3 POP DUP3 DUP3 LT ISZERO PUSH2 0x15F7 JUMPI PUSH2 0x15F6 PUSH2 0x16D6 JUMP JUMPDEST JUMPDEST DUP3 DUP3 SUB SWAP1 POP SWAP3 SWAP2 POP POP JUMP JUMPDEST PUSH1 0x0 PUSH2 0x160D DUP3 PUSH2 0x162D JUMP JUMPDEST SWAP1 POP SWAP2 SWAP1 POP JUMP JUMPDEST PUSH1 0x0 DUP2 ISZERO ISZERO SWAP1 POP SWAP2 SWAP1 POP JUMP JUMPDEST PUSH1 0x0 DUP2 PUSH1 0xF SIGNEXTEND SWAP1 POP SWAP2 SWAP1 POP JUMP JUMPDEST PUSH1 0x0 PUSH20 0xFFFFFFFFFFFFFFFFFFFFFFFFFFFFFFFFFFFFFFFF DUP3 AND SWAP1 POP SWAP2 SWAP1 POP JUMP JUMPDEST PUSH1 0x0 DUP2 SWAP1 POP SWAP2 SWAP1 POP JUMP JUMPDEST PUSH1 0x0 PUSH2 0x1662 DUP3 PUSH2 0x1669 JUMP JUMPDEST SWAP1 POP SWAP2 SWAP1 POP JUMP JUMPDEST PUSH1 0x0 PUSH2 0x1674 DUP3 PUSH2 0x167B JUMP JUMPDEST SWAP1 POP SWAP2 SWAP1 POP JUMP JUMPDEST PUSH1 0x0 PUSH2 0x1686 DUP3 PUSH2 0x162D JUMP JUMPDEST SWAP1 POP SWAP2 SWAP1 POP JUMP JUMPDEST PUSH1 0x0 PUSH2 0x1698 DUP3 PUSH2 0x164D JUMP JUMPDEST SWAP2 POP PUSH32 0xFFFFFFFFFFFFFFFFFFFFFFFFFFFFFFFFFFFFFFFFFFFFFFFFFFFFFFFFFFFFFFFF DUP3 EQ ISZERO PUSH2 0x16CB JUMPI PUSH2 0x16CA PUSH2 0x16D6 JUMP JUMPDEST JUMPDEST PUSH1 0x1 DUP3 ADD SWAP1 POP SWAP2 SWAP1 POP JUMP JUMPDEST PUSH32 0x4E487B7100000000000000000000000000000000000000000000000000000000 PUSH1 0x0 MSTORE PUSH1 0x11 PUSH1 0x4 MSTORE PUSH1 0x24 PUSH1 0x0 REVERT JUMPDEST PUSH32 0x4E487B7100000000000000000000000000000000000000000000000000000000 PUSH1 0x0 MSTORE PUSH1 0x12 PUSH1 0x4 MSTORE PUSH1 0x24 PUSH1 0x0 REVERT JUMPDEST PUSH1 0x0 DUP1 REVERT JUMPDEST PUSH32 0x546F6B656E207472616E73666572206661696C65640000000000000000000000 PUSH1 0x0 DUP3 ADD MSTORE POP JUMP JUMPDEST PUSH32 0x596F7520646F6E742068617665207468617420616D6F756E7421000000000000 PUSH1 0x0 DUP3 ADD MSTORE POP JUMP JUMPDEST PUSH32 0x75696E74206F766572666C6F772066726F6D206D756C7469706C69636174696F PUSH1 0x0 DUP3 ADD MSTORE PUSH32 0x6E00000000000000000000000000000000000000000000000000000000000000 PUSH1 0x20 DUP3 ADD MSTORE POP JUMP JUMPDEST PUSH2 0x17E3 DUP2 PUSH2 0x1602 JUMP JUMPDEST DUP2 EQ PUSH2 0x17EE JUMPI PUSH1 0x0 DUP1 REVERT JUMPDEST POP JUMP JUMPDEST PUSH2 0x17FA DUP2 PUSH2 0x1614 JUMP JUMPDEST DUP2 EQ PUSH2 0x1805 JUMPI PUSH1 0x0 DUP1 REVERT JUMPDEST POP JUMP JUMPDEST PUSH2 0x1811 DUP2 PUSH2 0x164D JUMP JUMPDEST DUP2 EQ PUSH2 0x181C JUMPI PUSH1 0x0 DUP1 REVERT JUMPDEST POP JUMP INVALID LOG2 PUSH5 0x6970667358 0x22 SLT KECCAK256 SAR SWAP2 0xAE ISZERO 0xCF 0x24 0xD2 DUP10 STOP 0xD5 0xE4 PUSH23 0xC5E4F750CA951C59C8030F98EAECB5751719910264736F PUSH13 0x63430008070033000000000000 "
				},
				"gasEstimates": {
					"creation": {
						"codeDepositCost": "1245800",
						"executionCost": "infinite",
						"totalCost": "infinite"
					},
					"external": {
						"buyScepter(uint256)": "infinite",
						"daysInCalculation()": "2518",
						"decDiv18(uint256,uint256)": "infinite",
						"decMul18(uint256,uint256)": "infinite",
						"getBackingPrice()": "infinite",
						"getBuyPrice()": "infinite",
						"getSellPrice()": "infinite",
						"getTokensBoughtXDays()": "infinite",
						"getTokensSoldXDays()": "infinite",
						"growthFactor()": "2518",
						"mockUSDC()": "2645",
						"queryERC20Balance(address,address)": "infinite",
						"res()": "2498",
						"riskTreasuryAddr()": "2560",
						"scepterTreasuryAddr()": "2581",
						"sellFactor()": "2518",
						"sellScepter(uint256)": "infinite",
						"setDaysUsedInFactors(uint256)": "infinite",
						"tSC()": "2711",
						"testMappings(uint256,uint256)": "infinite",
						"testwallet()": "2558",
						"timeLaunched()": "2475",
						"tokensBoughtXDays(uint256)": "infinite",
						"tokensSoldXDays(uint256)": "infinite",
						"treasury1Addr()": "2602",
						"treasury1bal()": "2563"
					},
					"internal": {
						"_safeTransferFrom(contract IERC20,address,address,uint256)": "infinite",
						"add(uint256,uint256)": "infinite",
						"div(uint256,uint256)": "infinite",
						"mintBaton(uint256)": "infinite",
						"mul(uint256,uint256)": "infinite",
						"sub(uint256,uint256)": "infinite"
					}
				},
				"methodIdentifiers": {
					"buyScepter(uint256)": "65819f7e",
					"daysInCalculation()": "67b48c91",
					"decDiv18(uint256,uint256)": "64ce07d8",
					"decMul18(uint256,uint256)": "f7523c52",
					"getBackingPrice()": "1f564a06",
					"getBuyPrice()": "018a25e8",
					"getSellPrice()": "43d32e9c",
					"getTokensBoughtXDays()": "71cd58f9",
					"getTokensSoldXDays()": "d82eddf2",
					"growthFactor()": "ee620868",
					"mockUSDC()": "ee467678",
					"queryERC20Balance(address,address)": "ee546a51",
					"res()": "6f10e285",
					"riskTreasuryAddr()": "047729b0",
					"scepterTreasuryAddr()": "c079d7f6",
					"sellFactor()": "cbff4617",
					"sellScepter(uint256)": "daa3a4a4",
					"setDaysUsedInFactors(uint256)": "fc361443",
					"tSC()": "6e05c1b9",
					"testMappings(uint256,uint256)": "46bfe626",
					"testwallet()": "eee05f5e",
					"timeLaunched()": "3c6eb17a",
					"tokensBoughtXDays(uint256)": "2a9f0fb1",
					"tokensSoldXDays(uint256)": "1514c976",
					"treasury1Addr()": "fbbb4589",
					"treasury1bal()": "35453307"
				}
			},
			"userdoc": {
				"kind": "user",
				"methods": {},
				"version": 1
			}
		}
	}
}