{
	"WandInstruments.sol": {
		"testSticks": {
			"abi": [
				{
					"inputs": [
						{
							"internalType": "address",
							"name": "scepterAddr",
							"type": "address"
						},
						{
							"internalType": "address",
							"name": "batonAddr",
							"type": "address"
						}
					],
					"stateMutability": "nonpayable",
					"type": "constructor"
				},
				{
					"anonymous": false,
					"inputs": [
						{
							"indexed": true,
							"internalType": "address",
							"name": "_from",
							"type": "address"
						},
						{
							"indexed": false,
							"internalType": "uint256",
							"name": "_amount",
							"type": "uint256"
						}
					],
					"name": "sceptersBought",
					"type": "event"
				},
				{
					"anonymous": false,
					"inputs": [
						{
							"indexed": true,
							"internalType": "address",
							"name": "_from",
							"type": "address"
						},
						{
							"indexed": false,
							"internalType": "uint256",
							"name": "_amount",
							"type": "uint256"
						}
					],
					"name": "sceptersSold",
					"type": "event"
				},
				{
					"inputs": [
						{
							"internalType": "string",
							"name": "_ticker",
							"type": "string"
						},
						{
							"internalType": "address",
							"name": "_addr",
							"type": "address"
						},
						{
							"internalType": "uint256",
							"name": "_dec",
							"type": "uint256"
						}
					],
					"name": "addStable",
					"outputs": [],
					"stateMutability": "nonpayable",
					"type": "function"
				},
				{
					"inputs": [
						{
							"internalType": "uint256",
							"name": "amountSCPtoBuy",
							"type": "uint256"
						},
						{
							"internalType": "string",
							"name": "_stableChosen",
							"type": "string"
						}
					],
					"name": "buyScepter",
					"outputs": [],
					"stateMutability": "nonpayable",
					"type": "function"
				},
				{
					"inputs": [
						{
							"internalType": "uint256",
							"name": "amountSCPtoSell",
							"type": "uint256"
						},
						{
							"internalType": "uint256",
							"name": "timeChosenLocked",
							"type": "uint256"
						}
					],
					"name": "cashOutScepter",
					"outputs": [],
					"stateMutability": "payable",
					"type": "function"
				},
				{
					"inputs": [
						{
							"internalType": "uint256",
							"name": "",
							"type": "uint256"
						}
					],
					"name": "circulatingSupplyXDays",
					"outputs": [
						{
							"internalType": "uint256",
							"name": "",
							"type": "uint256"
						}
					],
					"stateMutability": "view",
					"type": "function"
				},
				{
					"inputs": [
						{
							"internalType": "address",
							"name": "_claimant",
							"type": "address"
						}
					],
					"name": "claimLockedUSDC",
					"outputs": [],
					"stateMutability": "nonpayable",
					"type": "function"
				},
				{
					"inputs": [],
					"name": "daysInCalculation",
					"outputs": [
						{
							"internalType": "uint256",
							"name": "",
							"type": "uint256"
						}
					],
					"stateMutability": "view",
					"type": "function"
				},
				{
					"inputs": [
						{
							"internalType": "uint256",
							"name": "x",
							"type": "uint256"
						},
						{
							"internalType": "uint256",
							"name": "y",
							"type": "uint256"
						}
					],
					"name": "decDiv18",
					"outputs": [
						{
							"internalType": "uint256",
							"name": "decQuotient",
							"type": "uint256"
						}
					],
					"stateMutability": "pure",
					"type": "function"
				},
				{
					"inputs": [
						{
							"internalType": "uint256",
							"name": "x",
							"type": "uint256"
						},
						{
							"internalType": "uint256",
							"name": "y",
							"type": "uint256"
						}
					],
					"name": "decMul18",
					"outputs": [
						{
							"internalType": "uint256",
							"name": "decProd",
							"type": "uint256"
						}
					],
					"stateMutability": "pure",
					"type": "function"
				},
				{
					"inputs": [],
					"name": "devWalletAddr",
					"outputs": [
						{
							"internalType": "address",
							"name": "",
							"type": "address"
						}
					],
					"stateMutability": "view",
					"type": "function"
				},
				{
					"inputs": [],
					"name": "getBackingPrice",
					"outputs": [
						{
							"internalType": "uint256",
							"name": "",
							"type": "uint256"
						}
					],
					"stateMutability": "view",
					"type": "function"
				},
				{
					"inputs": [],
					"name": "getBuyPrice",
					"outputs": [
						{
							"internalType": "uint256",
							"name": "",
							"type": "uint256"
						}
					],
					"stateMutability": "view",
					"type": "function"
				},
				{
					"inputs": [],
					"name": "getCircSupplyXDays",
					"outputs": [
						{
							"internalType": "uint256",
							"name": "",
							"type": "uint256"
						}
					],
					"stateMutability": "view",
					"type": "function"
				},
				{
					"inputs": [],
					"name": "getGrowthFactor",
					"outputs": [
						{
							"internalType": "uint256",
							"name": "",
							"type": "uint256"
						}
					],
					"stateMutability": "view",
					"type": "function"
				},
				{
					"inputs": [],
					"name": "getSellFactor",
					"outputs": [
						{
							"internalType": "uint256",
							"name": "",
							"type": "uint256"
						}
					],
					"stateMutability": "view",
					"type": "function"
				},
				{
					"inputs": [],
					"name": "getSellPrice",
					"outputs": [
						{
							"internalType": "uint256",
							"name": "",
							"type": "uint256"
						}
					],
					"stateMutability": "view",
					"type": "function"
				},
				{
					"inputs": [],
					"name": "getTokensBoughtXDays",
					"outputs": [
						{
							"internalType": "uint256",
							"name": "",
							"type": "uint256"
						}
					],
					"stateMutability": "view",
					"type": "function"
				},
				{
					"inputs": [],
					"name": "getTokensSoldXDays",
					"outputs": [
						{
							"internalType": "uint256",
							"name": "",
							"type": "uint256"
						}
					],
					"stateMutability": "view",
					"type": "function"
				},
				{
					"inputs": [],
					"name": "growthFactor",
					"outputs": [
						{
							"internalType": "uint256",
							"name": "",
							"type": "uint256"
						}
					],
					"stateMutability": "view",
					"type": "function"
				},
				{
					"inputs": [],
					"name": "mockUSDC",
					"outputs": [
						{
							"internalType": "contract IERC20",
							"name": "",
							"type": "address"
						}
					],
					"stateMutability": "view",
					"type": "function"
				},
				{
					"inputs": [],
					"name": "res",
					"outputs": [
						{
							"internalType": "int128",
							"name": "",
							"type": "int128"
						}
					],
					"stateMutability": "view",
					"type": "function"
				},
				{
					"inputs": [],
					"name": "riskTreasuryAddr",
					"outputs": [
						{
							"internalType": "address",
							"name": "",
							"type": "address"
						}
					],
					"stateMutability": "view",
					"type": "function"
				},
				{
					"inputs": [],
					"name": "scepterTreasuryAddr",
					"outputs": [
						{
							"internalType": "address",
							"name": "",
							"type": "address"
						}
					],
					"stateMutability": "view",
					"type": "function"
				},
				{
					"inputs": [],
					"name": "sellFactor",
					"outputs": [
						{
							"internalType": "uint256",
							"name": "",
							"type": "uint256"
						}
					],
					"stateMutability": "view",
					"type": "function"
				},
				{
					"inputs": [
						{
							"internalType": "uint256",
							"name": "numDays",
							"type": "uint256"
						}
					],
					"name": "setDaysUsedInFactors",
					"outputs": [],
					"stateMutability": "nonpayable",
					"type": "function"
				},
				{
					"inputs": [
						{
							"internalType": "string",
							"name": "",
							"type": "string"
						}
					],
					"name": "stableERC20Info",
					"outputs": [
						{
							"internalType": "address",
							"name": "contractAddress",
							"type": "address"
						},
						{
							"internalType": "uint256",
							"name": "tokenDecimals",
							"type": "uint256"
						}
					],
					"stateMutability": "view",
					"type": "function"
				},
				{
					"inputs": [],
					"name": "tSC",
					"outputs": [
						{
							"internalType": "contract IERC20",
							"name": "",
							"type": "address"
						}
					],
					"stateMutability": "view",
					"type": "function"
				},
				{
					"inputs": [
						{
							"internalType": "uint256",
							"name": "amt",
							"type": "uint256"
						}
					],
					"name": "testUpdatetimeLockedminus",
					"outputs": [],
					"stateMutability": "nonpayable",
					"type": "function"
				},
				{
					"inputs": [
						{
							"internalType": "uint256",
							"name": "amt",
							"type": "uint256"
						}
					],
					"name": "testUpdatetimeLockedplus",
					"outputs": [],
					"stateMutability": "nonpayable",
					"type": "function"
				},
				{
					"inputs": [],
					"name": "testwallet",
					"outputs": [
						{
							"internalType": "address",
							"name": "",
							"type": "address"
						}
					],
					"stateMutability": "view",
					"type": "function"
				},
				{
					"inputs": [],
					"name": "timeLaunched",
					"outputs": [
						{
							"internalType": "uint256",
							"name": "",
							"type": "uint256"
						}
					],
					"stateMutability": "view",
					"type": "function"
				},
				{
					"inputs": [],
					"name": "tokenStable",
					"outputs": [
						{
							"internalType": "contract IERC20",
							"name": "",
							"type": "address"
						}
					],
					"stateMutability": "view",
					"type": "function"
				},
				{
					"inputs": [
						{
							"internalType": "uint256",
							"name": "",
							"type": "uint256"
						}
					],
					"name": "tokensBoughtXDays",
					"outputs": [
						{
							"internalType": "uint256",
							"name": "",
							"type": "uint256"
						}
					],
					"stateMutability": "view",
					"type": "function"
				},
				{
					"inputs": [
						{
							"internalType": "uint256",
							"name": "",
							"type": "uint256"
						}
					],
					"name": "tokensSoldXDays",
					"outputs": [
						{
							"internalType": "uint256",
							"name": "",
							"type": "uint256"
						}
					],
					"stateMutability": "view",
					"type": "function"
				},
				{
					"inputs": [
						{
							"internalType": "uint256",
							"name": "amountSCPtoSwap",
							"type": "uint256"
						}
					],
					"name": "transformScepterToBaton",
					"outputs": [],
					"stateMutability": "payable",
					"type": "function"
				},
				{
					"inputs": [],
					"name": "treasury1Addr",
					"outputs": [
						{
							"internalType": "address",
							"name": "",
							"type": "address"
						}
					],
					"stateMutability": "view",
					"type": "function"
				},
				{
					"inputs": [],
					"name": "treasury1bal",
					"outputs": [
						{
							"internalType": "uint256",
							"name": "",
							"type": "uint256"
						}
					],
					"stateMutability": "view",
					"type": "function"
				},
				{
					"inputs": [
						{
							"internalType": "address",
							"name": "_addr",
							"type": "address"
						}
					],
					"name": "whitelist",
					"outputs": [],
					"stateMutability": "nonpayable",
					"type": "function"
				},
				{
					"inputs": [
						{
							"internalType": "uint256",
							"name": "_amtToWithdraw",
							"type": "uint256"
						}
					],
					"name": "withdrawStables",
					"outputs": [],
					"stateMutability": "nonpayable",
					"type": "function"
				},
				{
					"inputs": [
						{
							"internalType": "address",
							"name": "",
							"type": "address"
						}
					],
					"name": "withheldWithdrawals",
					"outputs": [
						{
							"internalType": "uint256",
							"name": "timeUnlocked",
							"type": "uint256"
						},
						{
							"internalType": "uint256",
							"name": "amounts",
							"type": "uint256"
						}
					],
					"stateMutability": "view",
					"type": "function"
				}
			],
			"devdoc": {
				"kind": "dev",
				"methods": {},
				"version": 1
			},
			"evm": {
				"assembly": "    /* \"WandInstruments.sol\":96:14089  contract testSticks {\r... */\n  mstore(0x40, 0x80)\n    /* \"WandInstruments.sol\":283:289  10**18 */\n  0x0de0b6b3a7640000\n    /* \"WandInstruments.sol\":759:764  50000 */\n  0xc350\n    /* \"WandInstruments.sol\":759:775  50000*(DECIMALS) */\n  tag_1\n  swap2\n  swap1\n  tag_2\n  jump\t// in\ntag_1:\n    /* \"WandInstruments.sol\":729:775  uint256 public treasury1bal = 50000*(DECIMALS) */\n  0x0a\n  sstore\n    /* \"WandInstruments.sol\":925:931  100000 */\n  0x0186a0\n    /* \"WandInstruments.sol\":894:931  uint256 private ft5daybought = 100000 */\n  0x0d\n  sstore\n    /* \"WandInstruments.sol\":967:972  90000 */\n  0x015f90\n    /* \"WandInstruments.sol\":938:972  uint256 private ft5daysold = 90000 */\n  0x0e\n  sstore\n    /* \"WandInstruments.sol\":1014:1020  600000 */\n  0x0927c0\n    /* \"WandInstruments.sol\":979:1020  uint256 private double5daytokens = 600000 */\n  0x0f\n  sstore\n    /* \"WandInstruments.sol\":1141:1183  0x617F2E2fD72FD9D5503197092aC168c91465E7f2 */\n  0x617f2e2fd72fd9d5503197092ac168c91465e7f2\n    /* \"WandInstruments.sol\":1113:1183  address public testwallet = 0x617F2E2fD72FD9D5503197092aC168c91465E7f2 */\n  0x11\n  exp(0x0100, 0x00)\n  dup2\n  sload\n  dup2\n  0xffffffffffffffffffffffffffffffffffffffff\n  mul\n  not\n  and\n  swap1\n  dup4\n  0xffffffffffffffffffffffffffffffffffffffff\n  and\n  mul\n  or\n  swap1\n  sstore\n  pop\n    /* \"WandInstruments.sol\":2323:3038  constructor(address scepterAddr, address batonAddr) {   \r... */\n  callvalue\n  dup1\n  iszero\n  tag_3\n  jumpi\n  0x00\n  dup1\n  revert\ntag_3:\n  pop\n  mload(0x40)\n  sub(codesize, bytecodeSize)\n  dup1\n  bytecodeSize\n  dup4\n  codecopy\n  dup2\n  dup2\n  add\n  0x40\n  mstore\n  dup2\n  add\n  swap1\n  tag_4\n  swap2\n  swap1\n  tag_5\n  jump\t// in\ntag_4:\n    /* \"WandInstruments.sol\":2459:2470  scepterAddr */\n  dup2\n    /* \"WandInstruments.sol\":2444:2448  sptr */\n  0x1a\n  0x00\n    /* \"WandInstruments.sol\":2444:2471  sptr = Scepter(scepterAddr) */\n  0x0100\n  exp\n  dup2\n  sload\n  dup2\n  0xffffffffffffffffffffffffffffffffffffffff\n  mul\n  not\n  and\n  swap1\n  dup4\n  0xffffffffffffffffffffffffffffffffffffffff\n  and\n  mul\n  or\n  swap1\n  sstore\n  pop\n    /* \"WandInstruments.sol\":2494:2503  batonAddr */\n  dup1\n    /* \"WandInstruments.sol\":2482:2485  btn */\n  0x1b\n  0x00\n    /* \"WandInstruments.sol\":2482:2504  btn = Baton(batonAddr) */\n  0x0100\n  exp\n  dup2\n  sload\n  dup2\n  0xffffffffffffffffffffffffffffffffffffffff\n  mul\n  not\n  and\n  swap1\n  dup4\n  0xffffffffffffffffffffffffffffffffffffffff\n  and\n  mul\n  or\n  swap1\n  sstore\n  pop\n    /* \"WandInstruments.sol\":2528:2539  scepterAddr */\n  dup2\n    /* \"WandInstruments.sol\":2515:2518  tSC */\n  0x12\n  0x00\n    /* \"WandInstruments.sol\":2515:2540  tSC = IERC20(scepterAddr) */\n  0x0100\n  exp\n  dup2\n  sload\n  dup2\n  0xffffffffffffffffffffffffffffffffffffffff\n  mul\n  not\n  and\n  swap1\n  dup4\n  0xffffffffffffffffffffffffffffffffffffffff\n  and\n  mul\n  or\n  swap1\n  sstore\n  pop\n    /* \"WandInstruments.sol\":2571:2613  0x2F8895b08D8F226b19895d46154faB7096fB2593 */\n  0x2f8895b08d8f226b19895d46154fab7096fb2593\n    /* \"WandInstruments.sol\":2553:2561  mockUSDC */\n  0x13\n  0x00\n    /* \"WandInstruments.sol\":2553:2614  mockUSDC = IERC20(0x2F8895b08D8F226b19895d46154faB7096fB2593) */\n  0x0100\n  exp\n  dup2\n  sload\n  dup2\n  0xffffffffffffffffffffffffffffffffffffffff\n  mul\n  not\n  and\n  swap1\n  dup4\n  0xffffffffffffffffffffffffffffffffffffffff\n  and\n  mul\n  or\n  swap1\n  sstore\n  pop\n    /* \"WandInstruments.sol\":2641:2683  0x617F2E2fD72FD9D5503197092aC168c91465E7f2 */\n  0x617f2e2fd72fd9d5503197092ac168c91465e7f2\n    /* \"WandInstruments.sol\":2625:2638  treasury1Addr */\n  0x06\n  0x00\n    /* \"WandInstruments.sol\":2625:2683  treasury1Addr = 0x617F2E2fD72FD9D5503197092aC168c91465E7f2 */\n  0x0100\n  exp\n  dup2\n  sload\n  dup2\n  0xffffffffffffffffffffffffffffffffffffffff\n  mul\n  not\n  and\n  swap1\n  dup4\n  0xffffffffffffffffffffffffffffffffffffffff\n  and\n  mul\n  or\n  swap1\n  sstore\n  pop\n    /* \"WandInstruments.sol\":2882:2897  block.timestamp */\n  timestamp\n    /* \"WandInstruments.sol\":2867:2879  timeLaunched */\n  0x0b\n    /* \"WandInstruments.sol\":2867:2897  timeLaunched = block.timestamp */\n  dup2\n  swap1\n  sstore\n  pop\n    /* \"WandInstruments.sol\":2928:2934  5 days */\n  0x069780\n    /* \"WandInstruments.sol\":2908:2925  daysInCalculation */\n  0x0c\n    /* \"WandInstruments.sol\":2908:2934  daysInCalculation = 5 days */\n  dup2\n  swap1\n  sstore\n  pop\n    /* \"WandInstruments.sol\":2323:3038  constructor(address scepterAddr, address batonAddr) {   \r... */\n  pop\n  pop\n    /* \"WandInstruments.sol\":96:14089  contract testSticks {\r... */\n  jump(tag_8)\n    /* \"#utility.yul\":7:150   */\ntag_10:\n    /* \"#utility.yul\":64:69   */\n  0x00\n    /* \"#utility.yul\":95:101   */\n  dup2\n    /* \"#utility.yul\":89:102   */\n  mload\n    /* \"#utility.yul\":80:102   */\n  swap1\n  pop\n    /* \"#utility.yul\":111:144   */\n  tag_12\n    /* \"#utility.yul\":138:143   */\n  dup2\n    /* \"#utility.yul\":111:144   */\n  tag_13\n  jump\t// in\ntag_12:\n    /* \"#utility.yul\":7:150   */\n  swap3\n  swap2\n  pop\n  pop\n  jump\t// out\n    /* \"#utility.yul\":156:663   */\ntag_5:\n    /* \"#utility.yul\":235:241   */\n  0x00\n    /* \"#utility.yul\":243:249   */\n  dup1\n    /* \"#utility.yul\":292:294   */\n  0x40\n    /* \"#utility.yul\":280:289   */\n  dup4\n    /* \"#utility.yul\":271:278   */\n  dup6\n    /* \"#utility.yul\":267:290   */\n  sub\n    /* \"#utility.yul\":263:295   */\n  slt\n    /* \"#utility.yul\":260:379   */\n  iszero\n  tag_15\n  jumpi\n    /* \"#utility.yul\":298:377   */\n  tag_16\n  tag_17\n  jump\t// in\ntag_16:\n    /* \"#utility.yul\":260:379   */\ntag_15:\n    /* \"#utility.yul\":418:419   */\n  0x00\n    /* \"#utility.yul\":443:507   */\n  tag_18\n    /* \"#utility.yul\":499:506   */\n  dup6\n    /* \"#utility.yul\":490:496   */\n  dup3\n    /* \"#utility.yul\":479:488   */\n  dup7\n    /* \"#utility.yul\":475:497   */\n  add\n    /* \"#utility.yul\":443:507   */\n  tag_10\n  jump\t// in\ntag_18:\n    /* \"#utility.yul\":433:507   */\n  swap3\n  pop\n    /* \"#utility.yul\":389:517   */\n  pop\n    /* \"#utility.yul\":556:558   */\n  0x20\n    /* \"#utility.yul\":582:646   */\n  tag_19\n    /* \"#utility.yul\":638:645   */\n  dup6\n    /* \"#utility.yul\":629:635   */\n  dup3\n    /* \"#utility.yul\":618:627   */\n  dup7\n    /* \"#utility.yul\":614:636   */\n  add\n    /* \"#utility.yul\":582:646   */\n  tag_10\n  jump\t// in\ntag_19:\n    /* \"#utility.yul\":572:646   */\n  swap2\n  pop\n    /* \"#utility.yul\":527:656   */\n  pop\n    /* \"#utility.yul\":156:663   */\n  swap3\n  pop\n  swap3\n  swap1\n  pop\n  jump\t// out\n    /* \"#utility.yul\":750:1098   */\ntag_2:\n    /* \"#utility.yul\":790:797   */\n  0x00\n    /* \"#utility.yul\":813:833   */\n  tag_23\n    /* \"#utility.yul\":831:832   */\n  dup3\n    /* \"#utility.yul\":813:833   */\n  tag_24\n  jump\t// in\ntag_23:\n    /* \"#utility.yul\":808:833   */\n  swap2\n  pop\n    /* \"#utility.yul\":847:867   */\n  tag_25\n    /* \"#utility.yul\":865:866   */\n  dup4\n    /* \"#utility.yul\":847:867   */\n  tag_24\n  jump\t// in\ntag_25:\n    /* \"#utility.yul\":842:867   */\n  swap3\n  pop\n    /* \"#utility.yul\":1035:1036   */\n  dup2\n    /* \"#utility.yul\":967:1033   */\n  0xffffffffffffffffffffffffffffffffffffffffffffffffffffffffffffffff\n    /* \"#utility.yul\":963:1037   */\n  div\n    /* \"#utility.yul\":960:961   */\n  dup4\n    /* \"#utility.yul\":957:1038   */\n  gt\n    /* \"#utility.yul\":952:953   */\n  dup3\n    /* \"#utility.yul\":945:954   */\n  iszero\n    /* \"#utility.yul\":938:955   */\n  iszero\n    /* \"#utility.yul\":934:1039   */\n  and\n    /* \"#utility.yul\":931:1062   */\n  iszero\n  tag_26\n  jumpi\n    /* \"#utility.yul\":1042:1060   */\n  tag_27\n  tag_28\n  jump\t// in\ntag_27:\n    /* \"#utility.yul\":931:1062   */\ntag_26:\n    /* \"#utility.yul\":1090:1091   */\n  dup3\n    /* \"#utility.yul\":1087:1088   */\n  dup3\n    /* \"#utility.yul\":1083:1092   */\n  mul\n    /* \"#utility.yul\":1072:1092   */\n  swap1\n  pop\n    /* \"#utility.yul\":750:1098   */\n  swap3\n  swap2\n  pop\n  pop\n  jump\t// out\n    /* \"#utility.yul\":1104:1200   */\ntag_29:\n    /* \"#utility.yul\":1141:1148   */\n  0x00\n    /* \"#utility.yul\":1170:1194   */\n  tag_31\n    /* \"#utility.yul\":1188:1193   */\n  dup3\n    /* \"#utility.yul\":1170:1194   */\n  tag_32\n  jump\t// in\ntag_31:\n    /* \"#utility.yul\":1159:1194   */\n  swap1\n  pop\n    /* \"#utility.yul\":1104:1200   */\n  swap2\n  swap1\n  pop\n  jump\t// out\n    /* \"#utility.yul\":1206:1332   */\ntag_32:\n    /* \"#utility.yul\":1243:1250   */\n  0x00\n    /* \"#utility.yul\":1283:1325   */\n  0xffffffffffffffffffffffffffffffffffffffff\n    /* \"#utility.yul\":1276:1281   */\n  dup3\n    /* \"#utility.yul\":1272:1326   */\n  and\n    /* \"#utility.yul\":1261:1326   */\n  swap1\n  pop\n    /* \"#utility.yul\":1206:1332   */\n  swap2\n  swap1\n  pop\n  jump\t// out\n    /* \"#utility.yul\":1338:1415   */\ntag_24:\n    /* \"#utility.yul\":1375:1382   */\n  0x00\n    /* \"#utility.yul\":1404:1409   */\n  dup2\n    /* \"#utility.yul\":1393:1409   */\n  swap1\n  pop\n    /* \"#utility.yul\":1338:1415   */\n  swap2\n  swap1\n  pop\n  jump\t// out\n    /* \"#utility.yul\":1421:1601   */\ntag_28:\n    /* \"#utility.yul\":1469:1546   */\n  0x4e487b7100000000000000000000000000000000000000000000000000000000\n    /* \"#utility.yul\":1466:1467   */\n  0x00\n    /* \"#utility.yul\":1459:1547   */\n  mstore\n    /* \"#utility.yul\":1566:1570   */\n  0x11\n    /* \"#utility.yul\":1563:1564   */\n  0x04\n    /* \"#utility.yul\":1556:1571   */\n  mstore\n    /* \"#utility.yul\":1590:1594   */\n  0x24\n    /* \"#utility.yul\":1587:1588   */\n  0x00\n    /* \"#utility.yul\":1580:1595   */\n  revert\n    /* \"#utility.yul\":1730:1847   */\ntag_17:\n    /* \"#utility.yul\":1839:1840   */\n  0x00\n    /* \"#utility.yul\":1836:1837   */\n  dup1\n    /* \"#utility.yul\":1829:1841   */\n  revert\n    /* \"#utility.yul\":1853:1975   */\ntag_13:\n    /* \"#utility.yul\":1926:1950   */\n  tag_40\n    /* \"#utility.yul\":1944:1949   */\n  dup2\n    /* \"#utility.yul\":1926:1950   */\n  tag_29\n  jump\t// in\ntag_40:\n    /* \"#utility.yul\":1919:1924   */\n  dup2\n    /* \"#utility.yul\":1916:1951   */\n  eq\n    /* \"#utility.yul\":1906:1969   */\n  tag_41\n  jumpi\n    /* \"#utility.yul\":1965:1966   */\n  0x00\n    /* \"#utility.yul\":1962:1963   */\n  dup1\n    /* \"#utility.yul\":1955:1967   */\n  revert\n    /* \"#utility.yul\":1906:1969   */\ntag_41:\n    /* \"#utility.yul\":1853:1975   */\n  pop\n  jump\t// out\n    /* \"WandInstruments.sol\":96:14089  contract testSticks {\r... */\ntag_8:\n  dataSize(sub_0)\n  dup1\n  dataOffset(sub_0)\n  0x00\n  codecopy\n  0x00\n  return\nstop\n\nsub_0: assembly {\n        /* \"WandInstruments.sol\":96:14089  contract testSticks {\r... */\n      mstore(0x40, 0x80)\n      jumpi(tag_1, lt(calldatasize, 0x04))\n      shr(0xe0, calldataload(0x00))\n      dup1\n      0x67e927a8\n      gt\n      tag_41\n      jumpi\n      dup1\n      0xc079d7f6\n      gt\n      tag_42\n      jumpi\n      dup1\n      0xee620868\n      gt\n      tag_43\n      jumpi\n      dup1\n      0xee620868\n      eq\n      tag_36\n      jumpi\n      dup1\n      0xeee05f5e\n      eq\n      tag_37\n      jumpi\n      dup1\n      0xf7523c52\n      eq\n      tag_38\n      jumpi\n      dup1\n      0xfbbb4589\n      eq\n      tag_39\n      jumpi\n      dup1\n      0xfc361443\n      eq\n      tag_40\n      jumpi\n      jump(tag_1)\n    tag_43:\n      dup1\n      0xc079d7f6\n      eq\n      tag_31\n      jumpi\n      dup1\n      0xcbff4617\n      eq\n      tag_32\n      jumpi\n      dup1\n      0xd82eddf2\n      eq\n      tag_33\n      jumpi\n      dup1\n      0xe5d98082\n      eq\n      tag_34\n      jumpi\n      dup1\n      0xee467678\n      eq\n      tag_35\n      jumpi\n      jump(tag_1)\n    tag_42:\n      dup1\n      0x862d1b35\n      gt\n      tag_44\n      jumpi\n      dup1\n      0x862d1b35\n      eq\n      tag_26\n      jumpi\n      dup1\n      0x93f7b711\n      eq\n      tag_27\n      jumpi\n      dup1\n      0x9b19251a\n      eq\n      tag_28\n      jumpi\n      dup1\n      0xa475bf48\n      eq\n      tag_29\n      jumpi\n      dup1\n      0xbcd323cb\n      eq\n      tag_30\n      jumpi\n      jump(tag_1)\n    tag_44:\n      dup1\n      0x67e927a8\n      eq\n      tag_21\n      jumpi\n      dup1\n      0x6e05c1b9\n      eq\n      tag_22\n      jumpi\n      dup1\n      0x6f10e285\n      eq\n      tag_23\n      jumpi\n      dup1\n      0x7087a7a5\n      eq\n      tag_24\n      jumpi\n      dup1\n      0x71cd58f9\n      eq\n      tag_25\n      jumpi\n      jump(tag_1)\n    tag_41:\n      dup1\n      0x1f564a06\n      gt\n      tag_45\n      jumpi\n      dup1\n      0x3c6eb17a\n      gt\n      tag_46\n      jumpi\n      dup1\n      0x3c6eb17a\n      eq\n      tag_16\n      jumpi\n      dup1\n      0x43d32e9c\n      eq\n      tag_17\n      jumpi\n      dup1\n      0x63d03361\n      eq\n      tag_18\n      jumpi\n      dup1\n      0x64ce07d8\n      eq\n      tag_19\n      jumpi\n      dup1\n      0x67b48c91\n      eq\n      tag_20\n      jumpi\n      jump(tag_1)\n    tag_46:\n      dup1\n      0x1f564a06\n      eq\n      tag_11\n      jumpi\n      dup1\n      0x29982a32\n      eq\n      tag_12\n      jumpi\n      dup1\n      0x2a9f0fb1\n      eq\n      tag_13\n      jumpi\n      dup1\n      0x35453307\n      eq\n      tag_14\n      jumpi\n      dup1\n      0x39ad95d6\n      eq\n      tag_15\n      jumpi\n      jump(tag_1)\n    tag_45:\n      dup1\n      0x12b2ed94\n      gt\n      tag_47\n      jumpi\n      dup1\n      0x12b2ed94\n      eq\n      tag_6\n      jumpi\n      dup1\n      0x1514c976\n      eq\n      tag_7\n      jumpi\n      dup1\n      0x164c8501\n      eq\n      tag_8\n      jumpi\n      dup1\n      0x1a30e872\n      eq\n      tag_9\n      jumpi\n      dup1\n      0x1bc9cc45\n      eq\n      tag_10\n      jumpi\n      jump(tag_1)\n    tag_47:\n      dup1\n      0x018a25e8\n      eq\n      tag_2\n      jumpi\n      dup1\n      0x047729b0\n      eq\n      tag_3\n      jumpi\n      dup1\n      0x0ccaf04f\n      eq\n      tag_4\n      jumpi\n      dup1\n      0x0f65de3e\n      eq\n      tag_5\n      jumpi\n    tag_1:\n      0x00\n      dup1\n      revert\n        /* \"WandInstruments.sol\":10658:10932  function getBuyPrice() external view returns (uint256){\r... */\n    tag_2:\n      callvalue\n      dup1\n      iszero\n      tag_48\n      jumpi\n      0x00\n      dup1\n      revert\n    tag_48:\n      pop\n      tag_49\n      tag_50\n      jump\t// in\n    tag_49:\n      mload(0x40)\n      tag_51\n      swap2\n      swap1\n      tag_52\n      jump\t// in\n    tag_51:\n      mload(0x40)\n      dup1\n      swap2\n      sub\n      swap1\n      return\n        /* \"WandInstruments.sol\":622:653  address public riskTreasuryAddr */\n    tag_3:\n      callvalue\n      dup1\n      iszero\n      tag_53\n      jumpi\n      0x00\n      dup1\n      revert\n    tag_53:\n      pop\n      tag_54\n      tag_55\n      jump\t// in\n    tag_54:\n      mload(0x40)\n      tag_56\n      swap2\n      swap1\n      tag_57\n      jump\t// in\n    tag_56:\n      mload(0x40)\n      dup1\n      swap2\n      sub\n      swap1\n      return\n        /* \"WandInstruments.sol\":9539:10434  function getSellFactor() external view returns (uint256){\r... */\n    tag_4:\n      callvalue\n      dup1\n      iszero\n      tag_58\n      jumpi\n      0x00\n      dup1\n      revert\n    tag_58:\n      pop\n      tag_59\n      tag_60\n      jump\t// in\n    tag_59:\n      mload(0x40)\n      tag_61\n      swap2\n      swap1\n      tag_52\n      jump\t// in\n    tag_61:\n      mload(0x40)\n      dup1\n      swap2\n      sub\n      swap1\n      return\n        /* \"WandInstruments.sol\":13417:13486  function getCircSupplyXDays() external view returns (uint256){\r... */\n    tag_5:\n      callvalue\n      dup1\n      iszero\n      tag_62\n      jumpi\n      0x00\n      dup1\n      revert\n    tag_62:\n      pop\n      tag_63\n      tag_64\n      jump\t// in\n    tag_63:\n      mload(0x40)\n      tag_65\n      swap2\n      swap1\n      tag_52\n      jump\t// in\n    tag_65:\n      mload(0x40)\n      dup1\n      swap2\n      sub\n      swap1\n      return\n        /* \"WandInstruments.sol\":1945:2005  mapping(address => lockedamounts) public withheldWithdrawals */\n    tag_6:\n      callvalue\n      dup1\n      iszero\n      tag_66\n      jumpi\n      0x00\n      dup1\n      revert\n    tag_66:\n      pop\n      tag_67\n      0x04\n      dup1\n      calldatasize\n      sub\n      dup2\n      add\n      swap1\n      tag_68\n      swap2\n      swap1\n      tag_69\n      jump\t// in\n    tag_68:\n      tag_70\n      jump\t// in\n    tag_67:\n      mload(0x40)\n      tag_71\n      swap3\n      swap2\n      swap1\n      tag_72\n      jump\t// in\n    tag_71:\n      mload(0x40)\n      dup1\n      swap2\n      sub\n      swap1\n      return\n        /* \"WandInstruments.sol\":1528:1578  mapping(uint256 => uint256) public tokensSoldXDays */\n    tag_7:\n      callvalue\n      dup1\n      iszero\n      tag_73\n      jumpi\n      0x00\n      dup1\n      revert\n    tag_73:\n      pop\n      tag_74\n      0x04\n      dup1\n      calldatasize\n      sub\n      dup2\n      add\n      swap1\n      tag_75\n      swap2\n      swap1\n      tag_76\n      jump\t// in\n    tag_75:\n      tag_77\n      jump\t// in\n    tag_74:\n      mload(0x40)\n      tag_78\n      swap2\n      swap1\n      tag_52\n      jump\t// in\n    tag_78:\n      mload(0x40)\n      dup1\n      swap2\n      sub\n      swap1\n      return\n        /* \"WandInstruments.sol\":11978:12480  function testUpdatetimeLockedminus(uint256 amt) public  {\r... */\n    tag_8:\n      callvalue\n      dup1\n      iszero\n      tag_79\n      jumpi\n      0x00\n      dup1\n      revert\n    tag_79:\n      pop\n      tag_80\n      0x04\n      dup1\n      calldatasize\n      sub\n      dup2\n      add\n      swap1\n      tag_81\n      swap2\n      swap1\n      tag_76\n      jump\t// in\n    tag_81:\n      tag_82\n      jump\t// in\n    tag_80:\n      stop\n        /* \"WandInstruments.sol\":1585:1642  mapping(uint256 => uint256) public circulatingSupplyXDays */\n    tag_9:\n      callvalue\n      dup1\n      iszero\n      tag_83\n      jumpi\n      0x00\n      dup1\n      revert\n    tag_83:\n      pop\n      tag_84\n      0x04\n      dup1\n      calldatasize\n      sub\n      dup2\n      add\n      swap1\n      tag_85\n      swap2\n      swap1\n      tag_76\n      jump\t// in\n    tag_85:\n      tag_86\n      jump\t// in\n    tag_84:\n      mload(0x40)\n      tag_87\n      swap2\n      swap1\n      tag_52\n      jump\t// in\n    tag_87:\n      mload(0x40)\n      dup1\n      swap2\n      sub\n      swap1\n      return\n        /* \"WandInstruments.sol\":6227:6972  function transformScepterToBaton(uint256 amountSCPtoSwap) public payable{\r... */\n    tag_10:\n      tag_88\n      0x04\n      dup1\n      calldatasize\n      sub\n      dup2\n      add\n      swap1\n      tag_89\n      swap2\n      swap1\n      tag_76\n      jump\t// in\n    tag_89:\n      tag_90\n      jump\t// in\n    tag_88:\n      stop\n        /* \"WandInstruments.sol\":10440:10652  function getBackingPrice() external view returns (uint256){\r... */\n    tag_11:\n      callvalue\n      dup1\n      iszero\n      tag_91\n      jumpi\n      0x00\n      dup1\n      revert\n    tag_91:\n      pop\n      tag_92\n      tag_93\n      jump\t// in\n    tag_92:\n      mload(0x40)\n      tag_94\n      swap2\n      swap1\n      tag_52\n      jump\t// in\n    tag_94:\n      mload(0x40)\n      dup1\n      swap2\n      sub\n      swap1\n      return\n        /* \"WandInstruments.sol\":660:688  address public devWalletAddr */\n    tag_12:\n      callvalue\n      dup1\n      iszero\n      tag_95\n      jumpi\n      0x00\n      dup1\n      revert\n    tag_95:\n      pop\n      tag_96\n      tag_97\n      jump\t// in\n    tag_96:\n      mload(0x40)\n      tag_98\n      swap2\n      swap1\n      tag_57\n      jump\t// in\n    tag_98:\n      mload(0x40)\n      dup1\n      swap2\n      sub\n      swap1\n      return\n        /* \"WandInstruments.sol\":1469:1521  mapping(uint256 => uint256) public tokensBoughtXDays */\n    tag_13:\n      callvalue\n      dup1\n      iszero\n      tag_99\n      jumpi\n      0x00\n      dup1\n      revert\n    tag_99:\n      pop\n      tag_100\n      0x04\n      dup1\n      calldatasize\n      sub\n      dup2\n      add\n      swap1\n      tag_101\n      swap2\n      swap1\n      tag_76\n      jump\t// in\n    tag_101:\n      tag_102\n      jump\t// in\n    tag_100:\n      mload(0x40)\n      tag_103\n      swap2\n      swap1\n      tag_52\n      jump\t// in\n    tag_103:\n      mload(0x40)\n      dup1\n      swap2\n      sub\n      swap1\n      return\n        /* \"WandInstruments.sol\":729:775  uint256 public treasury1bal = 50000*(DECIMALS) */\n    tag_14:\n      callvalue\n      dup1\n      iszero\n      tag_104\n      jumpi\n      0x00\n      dup1\n      revert\n    tag_104:\n      pop\n      tag_105\n      tag_106\n      jump\t// in\n    tag_105:\n      mload(0x40)\n      tag_107\n      swap2\n      swap1\n      tag_52\n      jump\t// in\n    tag_107:\n      mload(0x40)\n      dup1\n      swap2\n      sub\n      swap1\n      return\n        /* \"WandInstruments.sol\":11410:11486  function withdrawStables(uint256 _amtToWithdraw) public onlyOwner {\r... */\n    tag_15:\n      callvalue\n      dup1\n      iszero\n      tag_108\n      jumpi\n      0x00\n      dup1\n      revert\n    tag_108:\n      pop\n      tag_109\n      0x04\n      dup1\n      calldatasize\n      sub\n      dup2\n      add\n      swap1\n      tag_110\n      swap2\n      swap1\n      tag_76\n      jump\t// in\n    tag_110:\n      tag_111\n      jump\t// in\n    tag_109:\n      stop\n        /* \"WandInstruments.sol\":804:831  uint256 public timeLaunched */\n    tag_16:\n      callvalue\n      dup1\n      iszero\n      tag_112\n      jumpi\n      0x00\n      dup1\n      revert\n    tag_112:\n      pop\n      tag_113\n      tag_114\n      jump\t// in\n    tag_113:\n      mload(0x40)\n      tag_115\n      swap2\n      swap1\n      tag_52\n      jump\t// in\n    tag_115:\n      mload(0x40)\n      dup1\n      swap2\n      sub\n      swap1\n      return\n        /* \"WandInstruments.sol\":10938:11211  function getSellPrice() external view returns (uint256){\r... */\n    tag_17:\n      callvalue\n      dup1\n      iszero\n      tag_116\n      jumpi\n      0x00\n      dup1\n      revert\n    tag_116:\n      pop\n      tag_117\n      tag_118\n      jump\t// in\n    tag_117:\n      mload(0x40)\n      tag_119\n      swap2\n      swap1\n      tag_52\n      jump\t// in\n    tag_119:\n      mload(0x40)\n      dup1\n      swap2\n      sub\n      swap1\n      return\n        /* \"WandInstruments.sol\":4606:6219  function cashOutScepter(uint256 amountSCPtoSell, uint256 timeChosenLocked) public payable{\r... */\n    tag_18:\n      tag_120\n      0x04\n      dup1\n      calldatasize\n      sub\n      dup2\n      add\n      swap1\n      tag_121\n      swap2\n      swap1\n      tag_122\n      jump\t// in\n    tag_121:\n      tag_123\n      jump\t// in\n    tag_120:\n      stop\n        /* \"WandInstruments.sol\":4070:4249  function decDiv18(uint x, uint y) public pure returns (uint decQuotient) {\r... */\n    tag_19:\n      callvalue\n      dup1\n      iszero\n      tag_124\n      jumpi\n      0x00\n      dup1\n      revert\n    tag_124:\n      pop\n      tag_125\n      0x04\n      dup1\n      calldatasize\n      sub\n      dup2\n      add\n      swap1\n      tag_126\n      swap2\n      swap1\n      tag_122\n      jump\t// in\n    tag_126:\n      tag_127\n      jump\t// in\n    tag_125:\n      mload(0x40)\n      tag_128\n      swap2\n      swap1\n      tag_52\n      jump\t// in\n    tag_128:\n      mload(0x40)\n      dup1\n      swap2\n      sub\n      swap1\n      return\n        /* \"WandInstruments.sol\":838:870  uint256 public daysInCalculation */\n    tag_20:\n      callvalue\n      dup1\n      iszero\n      tag_129\n      jumpi\n      0x00\n      dup1\n      revert\n    tag_129:\n      pop\n      tag_130\n      tag_131\n      jump\t// in\n    tag_130:\n      mload(0x40)\n      tag_132\n      swap2\n      swap1\n      tag_52\n      jump\t// in\n    tag_132:\n      mload(0x40)\n      dup1\n      swap2\n      sub\n      swap1\n      return\n        /* \"WandInstruments.sol\":11494:11966  function testUpdatetimeLockedplus(uint256 amt) public  {\r... */\n    tag_21:\n      callvalue\n      dup1\n      iszero\n      tag_133\n      jumpi\n      0x00\n      dup1\n      revert\n    tag_133:\n      pop\n      tag_134\n      0x04\n      dup1\n      calldatasize\n      sub\n      dup2\n      add\n      swap1\n      tag_135\n      swap2\n      swap1\n      tag_76\n      jump\t// in\n    tag_135:\n      tag_136\n      jump\t// in\n    tag_134:\n      stop\n        /* \"WandInstruments.sol\":1311:1328  IERC20 public tSC */\n    tag_22:\n      callvalue\n      dup1\n      iszero\n      tag_137\n      jumpi\n      0x00\n      dup1\n      revert\n    tag_137:\n      pop\n      tag_138\n      tag_139\n      jump\t// in\n    tag_138:\n      mload(0x40)\n      tag_140\n      swap2\n      swap1\n      tag_141\n      jump\t// in\n    tag_140:\n      mload(0x40)\n      dup1\n      swap2\n      sub\n      swap1\n      return\n        /* \"WandInstruments.sol\":1089:1106  int128 public res */\n    tag_23:\n      callvalue\n      dup1\n      iszero\n      tag_142\n      jumpi\n      0x00\n      dup1\n      revert\n    tag_142:\n      pop\n      tag_143\n      tag_144\n      jump\t// in\n    tag_143:\n      mload(0x40)\n      tag_145\n      swap2\n      swap1\n      tag_146\n      jump\t// in\n    tag_145:\n      mload(0x40)\n      dup1\n      swap2\n      sub\n      swap1\n      return\n        /* \"WandInstruments.sol\":1386:1411  IERC20 public tokenStable */\n    tag_24:\n      callvalue\n      dup1\n      iszero\n      tag_147\n      jumpi\n      0x00\n      dup1\n      revert\n    tag_147:\n      pop\n      tag_148\n      tag_149\n      jump\t// in\n    tag_148:\n      mload(0x40)\n      tag_150\n      swap2\n      swap1\n      tag_141\n      jump\t// in\n    tag_150:\n      mload(0x40)\n      dup1\n      swap2\n      sub\n      swap1\n      return\n        /* \"WandInstruments.sol\":12591:13119  function getTokensBoughtXDays() external view returns (uint256){\r... */\n    tag_25:\n      callvalue\n      dup1\n      iszero\n      tag_151\n      jumpi\n      0x00\n      dup1\n      revert\n    tag_151:\n      pop\n      tag_152\n      tag_153\n      jump\t// in\n    tag_152:\n      mload(0x40)\n      tag_154\n      swap2\n      swap1\n      tag_52\n      jump\t// in\n    tag_154:\n      mload(0x40)\n      dup1\n      swap2\n      sub\n      swap1\n      return\n        /* \"WandInstruments.sol\":6987:8191  function buyScepter(uint256 amountSCPtoBuy, string memory _stableChosen) public {\r... */\n    tag_26:\n      callvalue\n      dup1\n      iszero\n      tag_155\n      jumpi\n      0x00\n      dup1\n      revert\n    tag_155:\n      pop\n      tag_156\n      0x04\n      dup1\n      calldatasize\n      sub\n      dup2\n      add\n      swap1\n      tag_157\n      swap2\n      swap1\n      tag_158\n      jump\t// in\n    tag_157:\n      tag_159\n      jump\t// in\n    tag_156:\n      stop\n        /* \"WandInstruments.sol\":8628:9533  function getGrowthFactor() external view returns (uint256){\r... */\n    tag_27:\n      callvalue\n      dup1\n      iszero\n      tag_160\n      jumpi\n      0x00\n      dup1\n      revert\n    tag_160:\n      pop\n      tag_161\n      tag_162\n      jump\t// in\n    tag_161:\n      mload(0x40)\n      tag_163\n      swap2\n      swap1\n      tag_52\n      jump\t// in\n    tag_163:\n      mload(0x40)\n      dup1\n      swap2\n      sub\n      swap1\n      return\n        /* \"WandInstruments.sol\":13494:13583  function whitelist(address _addr) public onlyOwner {  \r... */\n    tag_28:\n      callvalue\n      dup1\n      iszero\n      tag_164\n      jumpi\n      0x00\n      dup1\n      revert\n    tag_164:\n      pop\n      tag_165\n      0x04\n      dup1\n      calldatasize\n      sub\n      dup2\n      add\n      swap1\n      tag_166\n      swap2\n      swap1\n      tag_69\n      jump\t// in\n    tag_166:\n      tag_167\n      jump\t// in\n    tag_165:\n      stop\n        /* \"WandInstruments.sol\":1773:1834  mapping (string => stableTokensParams) public stableERC20Info */\n    tag_29:\n      callvalue\n      dup1\n      iszero\n      tag_168\n      jumpi\n      0x00\n      dup1\n      revert\n    tag_168:\n      pop\n      tag_169\n      0x04\n      dup1\n      calldatasize\n      sub\n      dup2\n      add\n      swap1\n      tag_170\n      swap2\n      swap1\n      tag_171\n      jump\t// in\n    tag_170:\n      tag_172\n      jump\t// in\n    tag_169:\n      mload(0x40)\n      tag_173\n      swap3\n      swap2\n      swap1\n      tag_174\n      jump\t// in\n    tag_173:\n      mload(0x40)\n      dup1\n      swap2\n      sub\n      swap1\n      return\n        /* \"WandInstruments.sol\":8199:8595  function claimLockedUSDC(address _claimant) public {\r... */\n    tag_30:\n      callvalue\n      dup1\n      iszero\n      tag_175\n      jumpi\n      0x00\n      dup1\n      revert\n    tag_175:\n      pop\n      tag_176\n      0x04\n      dup1\n      calldatasize\n      sub\n      dup2\n      add\n      swap1\n      tag_177\n      swap2\n      swap1\n      tag_69\n      jump\t// in\n    tag_177:\n      tag_178\n      jump\t// in\n    tag_176:\n      stop\n        /* \"WandInstruments.sol\":581:615  address public scepterTreasuryAddr */\n    tag_31:\n      callvalue\n      dup1\n      iszero\n      tag_179\n      jumpi\n      0x00\n      dup1\n      revert\n    tag_179:\n      pop\n      tag_180\n      tag_181\n      jump\t// in\n    tag_180:\n      mload(0x40)\n      tag_182\n      swap2\n      swap1\n      tag_57\n      jump\t// in\n    tag_182:\n      mload(0x40)\n      dup1\n      swap2\n      sub\n      swap1\n      return\n        /* \"WandInstruments.sol\":332:357  uint256 public sellFactor */\n    tag_32:\n      callvalue\n      dup1\n      iszero\n      tag_183\n      jumpi\n      0x00\n      dup1\n      revert\n    tag_183:\n      pop\n      tag_184\n      tag_185\n      jump\t// in\n    tag_184:\n      mload(0x40)\n      tag_186\n      swap2\n      swap1\n      tag_52\n      jump\t// in\n    tag_186:\n      mload(0x40)\n      dup1\n      swap2\n      sub\n      swap1\n      return\n        /* \"WandInstruments.sol\":13125:13411  function getTokensSoldXDays() external view returns (uint256){\r... */\n    tag_33:\n      callvalue\n      dup1\n      iszero\n      tag_187\n      jumpi\n      0x00\n      dup1\n      revert\n    tag_187:\n      pop\n      tag_188\n      tag_189\n      jump\t// in\n    tag_188:\n      mload(0x40)\n      tag_190\n      swap2\n      swap1\n      tag_52\n      jump\t// in\n    tag_190:\n      mload(0x40)\n      dup1\n      swap2\n      sub\n      swap1\n      return\n        /* \"WandInstruments.sol\":13591:13810  function addStable(string memory _ticker, address _addr, uint256 _dec) public onlyOwner {\r... */\n    tag_34:\n      callvalue\n      dup1\n      iszero\n      tag_191\n      jumpi\n      0x00\n      dup1\n      revert\n    tag_191:\n      pop\n      tag_192\n      0x04\n      dup1\n      calldatasize\n      sub\n      dup2\n      add\n      swap1\n      tag_193\n      swap2\n      swap1\n      tag_194\n      jump\t// in\n    tag_193:\n      tag_195\n      jump\t// in\n    tag_192:\n      stop\n        /* \"WandInstruments.sol\":1357:1379  IERC20 public mockUSDC */\n    tag_35:\n      callvalue\n      dup1\n      iszero\n      tag_196\n      jumpi\n      0x00\n      dup1\n      revert\n    tag_196:\n      pop\n      tag_197\n      tag_198\n      jump\t// in\n    tag_197:\n      mload(0x40)\n      tag_199\n      swap2\n      swap1\n      tag_141\n      jump\t// in\n    tag_199:\n      mload(0x40)\n      dup1\n      swap2\n      sub\n      swap1\n      return\n        /* \"WandInstruments.sol\":298:325  uint256 public growthFactor */\n    tag_36:\n      callvalue\n      dup1\n      iszero\n      tag_200\n      jumpi\n      0x00\n      dup1\n      revert\n    tag_200:\n      pop\n      tag_201\n      tag_202\n      jump\t// in\n    tag_201:\n      mload(0x40)\n      tag_203\n      swap2\n      swap1\n      tag_52\n      jump\t// in\n    tag_203:\n      mload(0x40)\n      dup1\n      swap2\n      sub\n      swap1\n      return\n        /* \"WandInstruments.sol\":1113:1183  address public testwallet = 0x617F2E2fD72FD9D5503197092aC168c91465E7f2 */\n    tag_37:\n      callvalue\n      dup1\n      iszero\n      tag_204\n      jumpi\n      0x00\n      dup1\n      revert\n    tag_204:\n      pop\n      tag_205\n      tag_206\n      jump\t// in\n    tag_205:\n      mload(0x40)\n      tag_207\n      swap2\n      swap1\n      tag_57\n      jump\t// in\n    tag_207:\n      mload(0x40)\n      dup1\n      swap2\n      sub\n      swap1\n      return\n        /* \"WandInstruments.sol\":3892:4062  function decMul18(uint x, uint y) public pure returns (uint decProd) {\r... */\n    tag_38:\n      callvalue\n      dup1\n      iszero\n      tag_208\n      jumpi\n      0x00\n      dup1\n      revert\n    tag_208:\n      pop\n      tag_209\n      0x04\n      dup1\n      calldatasize\n      sub\n      dup2\n      add\n      swap1\n      tag_210\n      swap2\n      swap1\n      tag_122\n      jump\t// in\n    tag_210:\n      tag_211\n      jump\t// in\n    tag_209:\n      mload(0x40)\n      tag_212\n      swap2\n      swap1\n      tag_52\n      jump\t// in\n    tag_212:\n      mload(0x40)\n      dup1\n      swap2\n      sub\n      swap1\n      return\n        /* \"WandInstruments.sol\":546:574  address public treasury1Addr */\n    tag_39:\n      callvalue\n      dup1\n      iszero\n      tag_213\n      jumpi\n      0x00\n      dup1\n      revert\n    tag_213:\n      pop\n      tag_214\n      tag_215\n      jump\t// in\n    tag_214:\n      mload(0x40)\n      tag_216\n      swap2\n      swap1\n      tag_57\n      jump\t// in\n    tag_216:\n      mload(0x40)\n      dup1\n      swap2\n      sub\n      swap1\n      return\n        /* \"WandInstruments.sol\":11242:11398  function setDaysUsedInFactors(uint256 numDays) public {  \r... */\n    tag_40:\n      callvalue\n      dup1\n      iszero\n      tag_217\n      jumpi\n      0x00\n      dup1\n      revert\n    tag_217:\n      pop\n      tag_218\n      0x04\n      dup1\n      calldatasize\n      sub\n      dup2\n      add\n      swap1\n      tag_219\n      swap2\n      swap1\n      tag_76\n      jump\t// in\n    tag_219:\n      tag_220\n      jump\t// in\n    tag_218:\n      stop\n        /* \"WandInstruments.sol\":10658:10932  function getBuyPrice() external view returns (uint256){\r... */\n    tag_50:\n        /* \"WandInstruments.sol\":10704:10711  uint256 */\n      0x00\n        /* \"WandInstruments.sol\":10841:10922  decMul18(this.getBackingPrice() , (1200000000000000000 + this.getGrowthFactor())) */\n      tag_222\n        /* \"WandInstruments.sol\":10850:10854  this */\n      address\n        /* \"WandInstruments.sol\":10850:10870  this.getBackingPrice */\n      0xffffffffffffffffffffffffffffffffffffffff\n      and\n      0x1f564a06\n        /* \"WandInstruments.sol\":10850:10872  this.getBackingPrice() */\n      mload(0x40)\n      dup2\n      0xffffffff\n      and\n      0xe0\n      shl\n      dup2\n      mstore\n      0x04\n      add\n      0x20\n      mload(0x40)\n      dup1\n      dup4\n      sub\n      dup2\n      dup7\n      dup1\n      extcodesize\n      iszero\n      dup1\n      iszero\n      tag_223\n      jumpi\n      0x00\n      dup1\n      revert\n    tag_223:\n      pop\n      gas\n      staticcall\n      iszero\n      dup1\n      iszero\n      tag_225\n      jumpi\n      returndatasize\n      0x00\n      dup1\n      returndatacopy\n      revert(0x00, returndatasize)\n    tag_225:\n      pop\n      pop\n      pop\n      pop\n      mload(0x40)\n      returndatasize\n      not(0x1f)\n      0x1f\n      dup3\n      add\n      and\n      dup3\n      add\n      dup1\n      0x40\n      mstore\n      pop\n      dup2\n      add\n      swap1\n      tag_226\n      swap2\n      swap1\n      tag_227\n      jump\t// in\n    tag_226:\n        /* \"WandInstruments.sol\":10898:10902  this */\n      address\n        /* \"WandInstruments.sol\":10898:10918  this.getGrowthFactor */\n      0xffffffffffffffffffffffffffffffffffffffff\n      and\n      0x93f7b711\n        /* \"WandInstruments.sol\":10898:10920  this.getGrowthFactor() */\n      mload(0x40)\n      dup2\n      0xffffffff\n      and\n      0xe0\n      shl\n      dup2\n      mstore\n      0x04\n      add\n      0x20\n      mload(0x40)\n      dup1\n      dup4\n      sub\n      dup2\n      dup7\n      dup1\n      extcodesize\n      iszero\n      dup1\n      iszero\n      tag_228\n      jumpi\n      0x00\n      dup1\n      revert\n    tag_228:\n      pop\n      gas\n      staticcall\n      iszero\n      dup1\n      iszero\n      tag_230\n      jumpi\n      returndatasize\n      0x00\n      dup1\n      returndatacopy\n      revert(0x00, returndatasize)\n    tag_230:\n      pop\n      pop\n      pop\n      pop\n      mload(0x40)\n      returndatasize\n      not(0x1f)\n      0x1f\n      dup3\n      add\n      and\n      dup3\n      add\n      dup1\n      0x40\n      mstore\n      pop\n      dup2\n      add\n      swap1\n      tag_231\n      swap2\n      swap1\n      tag_227\n      jump\t// in\n    tag_231:\n        /* \"WandInstruments.sol\":10876:10895  1200000000000000000 */\n      0x10a741a462780000\n        /* \"WandInstruments.sol\":10876:10920  1200000000000000000 + this.getGrowthFactor() */\n      tag_232\n      swap2\n      swap1\n      tag_233\n      jump\t// in\n    tag_232:\n        /* \"WandInstruments.sol\":10841:10849  decMul18 */\n      tag_211\n        /* \"WandInstruments.sol\":10841:10922  decMul18(this.getBackingPrice() , (1200000000000000000 + this.getGrowthFactor())) */\n      jump\t// in\n    tag_222:\n        /* \"WandInstruments.sol\":10834:10922  return decMul18(this.getBackingPrice() , (1200000000000000000 + this.getGrowthFactor())) */\n      swap1\n      pop\n        /* \"WandInstruments.sol\":10658:10932  function getBuyPrice() external view returns (uint256){\r... */\n      swap1\n      jump\t// out\n        /* \"WandInstruments.sol\":622:653  address public riskTreasuryAddr */\n    tag_55:\n      0x08\n      0x00\n      swap1\n      sload\n      swap1\n      0x0100\n      exp\n      swap1\n      div\n      0xffffffffffffffffffffffffffffffffffffffff\n      and\n      dup2\n      jump\t// out\n        /* \"WandInstruments.sol\":9539:10434  function getSellFactor() external view returns (uint256){\r... */\n    tag_60:\n        /* \"WandInstruments.sol\":9587:9594  uint256 */\n      0x00\n        /* \"WandInstruments.sol\":9740:9751  uint256 _sF */\n      dup1\n        /* \"WandInstruments.sol\":9763:9786  uint256 xDaysCircSupply */\n      0x00\n        /* \"WandInstruments.sol\":9797:9812  uint256 numdays */\n      dup1\n        /* \"WandInstruments.sol\":9833:9838  86400 */\n      0x015180\n        /* \"WandInstruments.sol\":9815:9832  daysInCalculation */\n      sload(0x0c)\n        /* \"WandInstruments.sol\":9815:9838  daysInCalculation/86400 */\n      tag_235\n      swap2\n      swap1\n      tag_236\n      jump\t// in\n    tag_235:\n        /* \"WandInstruments.sol\":9797:9838  uint256 numdays = daysInCalculation/86400 */\n      swap1\n      pop\n        /* \"WandInstruments.sol\":9849:9873  uint256 daySinceLaunched */\n      0x00\n        /* \"WandInstruments.sol\":9911:9916  86400 */\n      0x015180\n        /* \"WandInstruments.sol\":9895:9907  timeLaunched */\n      sload(0x0b)\n        /* \"WandInstruments.sol\":9877:9892  block.timestamp */\n      timestamp\n        /* \"WandInstruments.sol\":9877:9907  block.timestamp - timeLaunched */\n      tag_237\n      swap2\n      swap1\n      tag_238\n      jump\t// in\n    tag_237:\n        /* \"WandInstruments.sol\":9876:9916  (block.timestamp - timeLaunched) / 86400 */\n      tag_239\n      swap2\n      swap1\n      tag_236\n      jump\t// in\n    tag_239:\n        /* \"WandInstruments.sol\":9849:9916  uint256 daySinceLaunched = (block.timestamp - timeLaunched) / 86400 */\n      swap1\n      pop\n        /* \"WandInstruments.sol\":9927:9936  uint256 d */\n      0x00\n        /* \"WandInstruments.sol\":9973:9974  0 */\n      dup1\n        /* \"WandInstruments.sol\":9953:9969  daySinceLaunched */\n      dup3\n        /* \"WandInstruments.sol\":9953:9974  daySinceLaunched == 0 */\n      eq\n        /* \"WandInstruments.sol\":9949:10241  if (daySinceLaunched == 0) {\r... */\n      iszero\n      tag_240\n      jumpi\n        /* \"WandInstruments.sol\":10005:10027  circulatingSupplyXDays */\n      0x17\n        /* \"WandInstruments.sol\":10005:10030  circulatingSupplyXDays[0] */\n      0x00\n        /* \"WandInstruments.sol\":10028:10029  0 */\n      dup1\n        /* \"WandInstruments.sol\":10005:10030  circulatingSupplyXDays[0] */\n      dup2\n      mstore\n      0x20\n      add\n      swap1\n      dup2\n      mstore\n      0x20\n      add\n      0x00\n      keccak256\n      sload\n        /* \"WandInstruments.sol\":9987:10030  xDaysCircSupply = circulatingSupplyXDays[0] */\n      swap4\n      pop\n        /* \"WandInstruments.sol\":9949:10241  if (daySinceLaunched == 0) {\r... */\n      jump(tag_241)\n    tag_240:\n        /* \"WandInstruments.sol\":10099:10106  numdays */\n      dup3\n        /* \"WandInstruments.sol\":10080:10096  daySinceLaunched */\n      dup3\n        /* \"WandInstruments.sol\":10080:10106  daySinceLaunched - numdays */\n      tag_245\n      swap2\n      swap1\n      tag_238\n      jump\t// in\n    tag_245:\n        /* \"WandInstruments.sol\":10076:10106  d = daySinceLaunched - numdays */\n      swap1\n      pop\n        /* \"WandInstruments.sol\":10071:10230  for (d = daySinceLaunched - numdays; d < daySinceLaunched; d++) {  //for loop example\r... */\n    tag_242:\n        /* \"WandInstruments.sol\":10112:10128  daySinceLaunched */\n      dup2\n        /* \"WandInstruments.sol\":10108:10109  d */\n      dup2\n        /* \"WandInstruments.sol\":10108:10128  d < daySinceLaunched */\n      lt\n        /* \"WandInstruments.sol\":10071:10230  for (d = daySinceLaunched - numdays; d < daySinceLaunched; d++) {  //for loop example\r... */\n      iszero\n      tag_243\n      jumpi\n        /* \"WandInstruments.sol\":10189:10211  circulatingSupplyXDays */\n      0x17\n        /* \"WandInstruments.sol\":10189:10214  circulatingSupplyXDays[d] */\n      0x00\n        /* \"WandInstruments.sol\":10212:10213  d */\n      dup3\n        /* \"WandInstruments.sol\":10189:10214  circulatingSupplyXDays[d] */\n      dup2\n      mstore\n      0x20\n      add\n      swap1\n      dup2\n      mstore\n      0x20\n      add\n      0x00\n      keccak256\n      sload\n        /* \"WandInstruments.sol\":10170:10214  xDaysCircSupply += circulatingSupplyXDays[d] */\n      dup5\n      tag_246\n      swap2\n      swap1\n      tag_233\n      jump\t// in\n    tag_246:\n      swap4\n      pop\n        /* \"WandInstruments.sol\":10130:10133  d++ */\n      dup1\n      dup1\n      tag_247\n      swap1\n      tag_248\n      jump\t// in\n    tag_247:\n      swap2\n      pop\n      pop\n        /* \"WandInstruments.sol\":10071:10230  for (d = daySinceLaunched - numdays; d < daySinceLaunched; d++) {  //for loop example\r... */\n      jump(tag_242)\n    tag_243:\n        /* \"WandInstruments.sol\":9949:10241  if (daySinceLaunched == 0) {\r... */\n    tag_241:\n        /* \"WandInstruments.sol\":10258:10309  decDiv18(this.getTokensSoldXDays(),xDaysCircSupply) */\n      tag_249\n        /* \"WandInstruments.sol\":10267:10271  this */\n      address\n        /* \"WandInstruments.sol\":10267:10290  this.getTokensSoldXDays */\n      0xffffffffffffffffffffffffffffffffffffffff\n      and\n      0xd82eddf2\n        /* \"WandInstruments.sol\":10267:10292  this.getTokensSoldXDays() */\n      mload(0x40)\n      dup2\n      0xffffffff\n      and\n      0xe0\n      shl\n      dup2\n      mstore\n      0x04\n      add\n      0x20\n      mload(0x40)\n      dup1\n      dup4\n      sub\n      dup2\n      dup7\n      dup1\n      extcodesize\n      iszero\n      dup1\n      iszero\n      tag_250\n      jumpi\n      0x00\n      dup1\n      revert\n    tag_250:\n      pop\n      gas\n      staticcall\n      iszero\n      dup1\n      iszero\n      tag_252\n      jumpi\n      returndatasize\n      0x00\n      dup1\n      returndatacopy\n      revert(0x00, returndatasize)\n    tag_252:\n      pop\n      pop\n      pop\n      pop\n      mload(0x40)\n      returndatasize\n      not(0x1f)\n      0x1f\n      dup3\n      add\n      and\n      dup3\n      add\n      dup1\n      0x40\n      mstore\n      pop\n      dup2\n      add\n      swap1\n      tag_253\n      swap2\n      swap1\n      tag_227\n      jump\t// in\n    tag_253:\n        /* \"WandInstruments.sol\":10293:10308  xDaysCircSupply */\n      dup6\n        /* \"WandInstruments.sol\":10258:10266  decDiv18 */\n      tag_127\n        /* \"WandInstruments.sol\":10258:10309  decDiv18(this.getTokensSoldXDays(),xDaysCircSupply) */\n      jump\t// in\n    tag_249:\n        /* \"WandInstruments.sol\":10252:10309  _sF = decDiv18(this.getTokensSoldXDays(),xDaysCircSupply) */\n      swap5\n      pop\n        /* \"WandInstruments.sol\":10329:10347  300000000000000000 */\n      0x0429d069189e0000\n        /* \"WandInstruments.sol\":10323:10326  _sF */\n      dup6\n        /* \"WandInstruments.sol\":10323:10347  _sF > 300000000000000000 */\n      gt\n        /* \"WandInstruments.sol\":10319:10406  if (_sF > 300000000000000000)\r... */\n      iszero\n      tag_254\n      jumpi\n        /* \"WandInstruments.sol\":10377:10395  300000000000000000 */\n      0x0429d069189e0000\n        /* \"WandInstruments.sol\":10371:10395  _sF = 300000000000000000 */\n      swap5\n      pop\n        /* \"WandInstruments.sol\":10319:10406  if (_sF > 300000000000000000)\r... */\n    tag_254:\n        /* \"WandInstruments.sol\":10422:10425  _sF */\n      dup5\n        /* \"WandInstruments.sol\":10415:10425  return _sF */\n      swap6\n      pop\n      pop\n      pop\n      pop\n      pop\n      pop\n        /* \"WandInstruments.sol\":9539:10434  function getSellFactor() external view returns (uint256){\r... */\n      swap1\n      jump\t// out\n        /* \"WandInstruments.sol\":13417:13486  function getCircSupplyXDays() external view returns (uint256){\r... */\n    tag_64:\n        /* \"WandInstruments.sol\":13470:13477  uint256 */\n      0x00\n        /* \"WandInstruments.sol\":13417:13486  function getCircSupplyXDays() external view returns (uint256){\r... */\n      swap1\n      jump\t// out\n        /* \"WandInstruments.sol\":1945:2005  mapping(address => lockedamounts) public withheldWithdrawals */\n    tag_70:\n      mstore(0x20, 0x19)\n      dup1\n      0x00\n      mstore\n      keccak256(0x00, 0x40)\n      0x00\n      swap2\n      pop\n      swap1\n      pop\n      dup1\n      0x00\n      add\n      sload\n      swap1\n      dup1\n      0x01\n      add\n      sload\n      swap1\n      pop\n      dup3\n      jump\t// out\n        /* \"WandInstruments.sol\":1528:1578  mapping(uint256 => uint256) public tokensSoldXDays */\n    tag_77:\n      mstore(0x20, 0x16)\n      dup1\n      0x00\n      mstore\n      keccak256(0x00, 0x40)\n      0x00\n      swap2\n      pop\n      swap1\n      pop\n      sload\n      dup2\n      jump\t// out\n        /* \"WandInstruments.sol\":11978:12480  function testUpdatetimeLockedminus(uint256 amt) public  {\r... */\n    tag_82:\n        /* \"WandInstruments.sol\":12059:12078  withheldWithdrawals */\n      0x19\n        /* \"WandInstruments.sol\":12059:12090  withheldWithdrawals[msg.sender] */\n      0x00\n        /* \"WandInstruments.sol\":12079:12089  msg.sender */\n      caller\n        /* \"WandInstruments.sol\":12059:12090  withheldWithdrawals[msg.sender] */\n      0xffffffffffffffffffffffffffffffffffffffff\n      and\n      0xffffffffffffffffffffffffffffffffffffffff\n      and\n      dup2\n      mstore\n      0x20\n      add\n      swap1\n      dup2\n      mstore\n      0x20\n      add\n      0x00\n      keccak256\n        /* \"WandInstruments.sol\":12059:12098  withheldWithdrawals[msg.sender].amounts */\n      0x01\n      add\n      sload\n        /* \"WandInstruments.sol\":12053:12056  amt */\n      dup2\n        /* \"WandInstruments.sol\":12053:12098  amt < withheldWithdrawals[msg.sender].amounts */\n      lt\n        /* \"WandInstruments.sol\":12045:12139  require(amt < withheldWithdrawals[msg.sender].amounts, \"You dont have that much to withdraw!\") */\n      tag_257\n      jumpi\n      mload(0x40)\n      0x08c379a000000000000000000000000000000000000000000000000000000000\n      dup2\n      mstore\n      0x04\n      add\n      tag_258\n      swap1\n      tag_259\n      jump\t// in\n    tag_258:\n      mload(0x40)\n      dup1\n      swap2\n      sub\n      swap1\n      revert\n    tag_257:\n        /* \"WandInstruments.sol\":12344:12347  amt */\n      dup1\n        /* \"WandInstruments.sol\":12301:12320  withheldWithdrawals */\n      0x19\n        /* \"WandInstruments.sol\":12301:12332  withheldWithdrawals[msg.sender] */\n      0x00\n        /* \"WandInstruments.sol\":12321:12331  msg.sender */\n      caller\n        /* \"WandInstruments.sol\":12301:12332  withheldWithdrawals[msg.sender] */\n      0xffffffffffffffffffffffffffffffffffffffff\n      and\n      0xffffffffffffffffffffffffffffffffffffffff\n      and\n      dup2\n      mstore\n      0x20\n      add\n      swap1\n      dup2\n      mstore\n      0x20\n      add\n      0x00\n      keccak256\n        /* \"WandInstruments.sol\":12301:12340  withheldWithdrawals[msg.sender].amounts */\n      0x01\n      add\n      0x00\n        /* \"WandInstruments.sol\":12301:12347  withheldWithdrawals[msg.sender].amounts -= amt */\n      dup3\n      dup3\n      sload\n      tag_260\n      swap2\n      swap1\n      tag_238\n      jump\t// in\n    tag_260:\n      swap3\n      pop\n      pop\n      dup2\n      swap1\n      sstore\n      pop\n        /* \"WandInstruments.sol\":12404:12405  0 */\n      0x00\n        /* \"WandInstruments.sol\":12362:12381  withheldWithdrawals */\n      0x19\n        /* \"WandInstruments.sol\":12362:12393  withheldWithdrawals[msg.sender] */\n      0x00\n        /* \"WandInstruments.sol\":12382:12392  msg.sender */\n      caller\n        /* \"WandInstruments.sol\":12362:12393  withheldWithdrawals[msg.sender] */\n      0xffffffffffffffffffffffffffffffffffffffff\n      and\n      0xffffffffffffffffffffffffffffffffffffffff\n      and\n      dup2\n      mstore\n      0x20\n      add\n      swap1\n      dup2\n      mstore\n      0x20\n      add\n      0x00\n      keccak256\n        /* \"WandInstruments.sol\":12362:12401  withheldWithdrawals[msg.sender].amounts */\n      0x01\n      add\n      sload\n        /* \"WandInstruments.sol\":12362:12405  withheldWithdrawals[msg.sender].amounts ==0 */\n      eq\n        /* \"WandInstruments.sol\":12358:12473  if (withheldWithdrawals[msg.sender].amounts ==0 ){\r... */\n      iszero\n      tag_261\n      jumpi\n        /* \"WandInstruments.sol\":12429:12448  withheldWithdrawals */\n      0x19\n        /* \"WandInstruments.sol\":12429:12460  withheldWithdrawals[msg.sender] */\n      0x00\n        /* \"WandInstruments.sol\":12449:12459  msg.sender */\n      caller\n        /* \"WandInstruments.sol\":12429:12460  withheldWithdrawals[msg.sender] */\n      0xffffffffffffffffffffffffffffffffffffffff\n      and\n      0xffffffffffffffffffffffffffffffffffffffff\n      and\n      dup2\n      mstore\n      0x20\n      add\n      swap1\n      dup2\n      mstore\n      0x20\n      add\n      0x00\n      keccak256\n      0x00\n        /* \"WandInstruments.sol\":12422:12461  delete(withheldWithdrawals[msg.sender]) */\n      dup1\n      dup3\n      add\n      0x00\n      swap1\n      sstore\n      0x01\n      dup3\n      add\n      0x00\n      swap1\n      sstore\n      pop\n      pop\n        /* \"WandInstruments.sol\":12358:12473  if (withheldWithdrawals[msg.sender].amounts ==0 ){\r... */\n    tag_261:\n        /* \"WandInstruments.sol\":11978:12480  function testUpdatetimeLockedminus(uint256 amt) public  {\r... */\n      pop\n      jump\t// out\n        /* \"WandInstruments.sol\":1585:1642  mapping(uint256 => uint256) public circulatingSupplyXDays */\n    tag_86:\n      mstore(0x20, 0x17)\n      dup1\n      0x00\n      mstore\n      keccak256(0x00, 0x40)\n      0x00\n      swap2\n      pop\n      swap1\n      pop\n      sload\n      dup2\n      jump\t// out\n        /* \"WandInstruments.sol\":6227:6972  function transformScepterToBaton(uint256 amountSCPtoSwap) public payable{\r... */\n    tag_90:\n        /* \"WandInstruments.sol\":6371:6397  uint256 trader_tsc_balance */\n      0x00\n        /* \"WandInstruments.sol\":6400:6403  tSC */\n      0x12\n      0x00\n      swap1\n      sload\n      swap1\n      0x0100\n      exp\n      swap1\n      div\n      0xffffffffffffffffffffffffffffffffffffffff\n      and\n        /* \"WandInstruments.sol\":6400:6413  tSC.balanceOf */\n      0xffffffffffffffffffffffffffffffffffffffff\n      and\n      0x70a08231\n        /* \"WandInstruments.sol\":6414:6424  msg.sender */\n      caller\n        /* \"WandInstruments.sol\":6400:6425  tSC.balanceOf(msg.sender) */\n      mload(0x40)\n      dup3\n      0xffffffff\n      and\n      0xe0\n      shl\n      dup2\n      mstore\n      0x04\n      add\n      tag_263\n      swap2\n      swap1\n      tag_57\n      jump\t// in\n    tag_263:\n      0x20\n      mload(0x40)\n      dup1\n      dup4\n      sub\n      dup2\n      dup7\n      dup1\n      extcodesize\n      iszero\n      dup1\n      iszero\n      tag_264\n      jumpi\n      0x00\n      dup1\n      revert\n    tag_264:\n      pop\n      gas\n      staticcall\n      iszero\n      dup1\n      iszero\n      tag_266\n      jumpi\n      returndatasize\n      0x00\n      dup1\n      returndatacopy\n      revert(0x00, returndatasize)\n    tag_266:\n      pop\n      pop\n      pop\n      pop\n      mload(0x40)\n      returndatasize\n      not(0x1f)\n      0x1f\n      dup3\n      add\n      and\n      dup3\n      add\n      dup1\n      0x40\n      mstore\n      pop\n      dup2\n      add\n      swap1\n      tag_267\n      swap2\n      swap1\n      tag_227\n      jump\t// in\n    tag_267:\n        /* \"WandInstruments.sol\":6371:6425  uint256 trader_tsc_balance = tSC.balanceOf(msg.sender) */\n      swap1\n      pop\n        /* \"WandInstruments.sol\":6465:6480  amountSCPtoSwap */\n      dup2\n        /* \"WandInstruments.sol\":6444:6462  trader_tsc_balance */\n      dup2\n        /* \"WandInstruments.sol\":6444:6480  trader_tsc_balance > amountSCPtoSwap */\n      gt\n        /* \"WandInstruments.sol\":6436:6511  require(trader_tsc_balance > amountSCPtoSwap, \"You dont have that amount!\") */\n      tag_268\n      jumpi\n      mload(0x40)\n      0x08c379a000000000000000000000000000000000000000000000000000000000\n      dup2\n      mstore\n      0x04\n      add\n      tag_269\n      swap1\n      tag_270\n      jump\t// in\n    tag_269:\n      mload(0x40)\n      dup1\n      swap2\n      sub\n      swap1\n      revert\n    tag_268:\n        /* \"WandInstruments.sol\":6565:6631  _safeTransferFrom(tSC, msg.sender, address(this), amountSCPtoSwap) */\n      tag_271\n        /* \"WandInstruments.sol\":6583:6586  tSC */\n      0x12\n      0x00\n      swap1\n      sload\n      swap1\n      0x0100\n      exp\n      swap1\n      div\n      0xffffffffffffffffffffffffffffffffffffffff\n      and\n        /* \"WandInstruments.sol\":6588:6598  msg.sender */\n      caller\n        /* \"WandInstruments.sol\":6608:6612  this */\n      address\n        /* \"WandInstruments.sol\":6615:6630  amountSCPtoSwap */\n      dup6\n        /* \"WandInstruments.sol\":6565:6582  _safeTransferFrom */\n      tag_272\n        /* \"WandInstruments.sol\":6565:6631  _safeTransferFrom(tSC, msg.sender, address(this), amountSCPtoSwap) */\n      jump\t// in\n    tag_271:\n        /* \"WandInstruments.sol\":6692:6708  uint256 dInArray */\n      0x00\n        /* \"WandInstruments.sol\":6742:6747  86400 */\n      0x015180\n        /* \"WandInstruments.sol\":6728:6740  timeLaunched */\n      sload(0x0b)\n        /* \"WandInstruments.sol\":6711:6726  block.timestamp */\n      timestamp\n        /* \"WandInstruments.sol\":6711:6740  block.timestamp- timeLaunched */\n      tag_273\n      swap2\n      swap1\n      tag_238\n      jump\t// in\n    tag_273:\n        /* \"WandInstruments.sol\":6710:6747  (block.timestamp- timeLaunched)/86400 */\n      tag_274\n      swap2\n      swap1\n      tag_236\n      jump\t// in\n    tag_274:\n        /* \"WandInstruments.sol\":6692:6747  uint256 dInArray =(block.timestamp- timeLaunched)/86400 */\n      swap1\n      pop\n        /* \"WandInstruments.sol\":6788:6803  amountSCPtoSwap */\n      dup3\n        /* \"WandInstruments.sol\":6759:6774  tokensSoldXDays */\n      0x16\n        /* \"WandInstruments.sol\":6759:6784  tokensSoldXDays[dInArray] */\n      0x00\n        /* \"WandInstruments.sol\":6775:6783  dInArray */\n      dup4\n        /* \"WandInstruments.sol\":6759:6784  tokensSoldXDays[dInArray] */\n      dup2\n      mstore\n      0x20\n      add\n      swap1\n      dup2\n      mstore\n      0x20\n      add\n      0x00\n      keccak256\n      0x00\n        /* \"WandInstruments.sol\":6759:6803  tokensSoldXDays[dInArray] += amountSCPtoSwap */\n      dup3\n      dup3\n      sload\n      tag_275\n      swap2\n      swap1\n      tag_233\n      jump\t// in\n    tag_275:\n      swap3\n      pop\n      pop\n      dup2\n      swap1\n      sstore\n      pop\n        /* \"WandInstruments.sol\":6850:6865  amountSCPtoSwap */\n      dup3\n        /* \"WandInstruments.sol\":6814:6836  circulatingSupplyXDays */\n      0x17\n        /* \"WandInstruments.sol\":6814:6846  circulatingSupplyXDays[dInArray] */\n      0x00\n        /* \"WandInstruments.sol\":6837:6845  dInArray */\n      dup4\n        /* \"WandInstruments.sol\":6814:6846  circulatingSupplyXDays[dInArray] */\n      dup2\n      mstore\n      0x20\n      add\n      swap1\n      dup2\n      mstore\n      0x20\n      add\n      0x00\n      keccak256\n      0x00\n        /* \"WandInstruments.sol\":6814:6865  circulatingSupplyXDays[dInArray] -= amountSCPtoSwap */\n      dup3\n      dup3\n      sload\n      tag_276\n      swap2\n      swap1\n      tag_238\n      jump\t// in\n    tag_276:\n      swap3\n      pop\n      pop\n      dup2\n      swap1\n      sstore\n      pop\n        /* \"WandInstruments.sol\":6299:6972  {\r... */\n      pop\n      pop\n        /* \"WandInstruments.sol\":6227:6972  function transformScepterToBaton(uint256 amountSCPtoSwap) public payable{\r... */\n      pop\n      jump\t// out\n        /* \"WandInstruments.sol\":10440:10652  function getBackingPrice() external view returns (uint256){\r... */\n    tag_93:\n        /* \"WandInstruments.sol\":10490:10497  uint256 */\n      0x00\n        /* \"WandInstruments.sol\":10604:10644  decDiv18(treasury1bal,tSC.totalSupply()) */\n      tag_278\n        /* \"WandInstruments.sol\":10613:10625  treasury1bal */\n      sload(0x0a)\n        /* \"WandInstruments.sol\":10626:10629  tSC */\n      0x12\n      0x00\n      swap1\n      sload\n      swap1\n      0x0100\n      exp\n      swap1\n      div\n      0xffffffffffffffffffffffffffffffffffffffff\n      and\n        /* \"WandInstruments.sol\":10626:10641  tSC.totalSupply */\n      0xffffffffffffffffffffffffffffffffffffffff\n      and\n      0x18160ddd\n        /* \"WandInstruments.sol\":10626:10643  tSC.totalSupply() */\n      mload(0x40)\n      dup2\n      0xffffffff\n      and\n      0xe0\n      shl\n      dup2\n      mstore\n      0x04\n      add\n      0x20\n      mload(0x40)\n      dup1\n      dup4\n      sub\n      dup2\n      dup7\n      dup1\n      extcodesize\n      iszero\n      dup1\n      iszero\n      tag_279\n      jumpi\n      0x00\n      dup1\n      revert\n    tag_279:\n      pop\n      gas\n      staticcall\n      iszero\n      dup1\n      iszero\n      tag_281\n      jumpi\n      returndatasize\n      0x00\n      dup1\n      returndatacopy\n      revert(0x00, returndatasize)\n    tag_281:\n      pop\n      pop\n      pop\n      pop\n      mload(0x40)\n      returndatasize\n      not(0x1f)\n      0x1f\n      dup3\n      add\n      and\n      dup3\n      add\n      dup1\n      0x40\n      mstore\n      pop\n      dup2\n      add\n      swap1\n      tag_282\n      swap2\n      swap1\n      tag_227\n      jump\t// in\n    tag_282:\n        /* \"WandInstruments.sol\":10604:10612  decDiv18 */\n      tag_127\n        /* \"WandInstruments.sol\":10604:10644  decDiv18(treasury1bal,tSC.totalSupply()) */\n      jump\t// in\n    tag_278:\n        /* \"WandInstruments.sol\":10597:10644  return decDiv18(treasury1bal,tSC.totalSupply()) */\n      swap1\n      pop\n        /* \"WandInstruments.sol\":10440:10652  function getBackingPrice() external view returns (uint256){\r... */\n      swap1\n      jump\t// out\n        /* \"WandInstruments.sol\":660:688  address public devWalletAddr */\n    tag_97:\n      0x09\n      0x00\n      swap1\n      sload\n      swap1\n      0x0100\n      exp\n      swap1\n      div\n      0xffffffffffffffffffffffffffffffffffffffff\n      and\n      dup2\n      jump\t// out\n        /* \"WandInstruments.sol\":1469:1521  mapping(uint256 => uint256) public tokensBoughtXDays */\n    tag_102:\n      mstore(0x20, 0x15)\n      dup1\n      0x00\n      mstore\n      keccak256(0x00, 0x40)\n      0x00\n      swap2\n      pop\n      swap1\n      pop\n      sload\n      dup2\n      jump\t// out\n        /* \"WandInstruments.sol\":729:775  uint256 public treasury1bal = 50000*(DECIMALS) */\n    tag_106:\n      sload(0x0a)\n      dup2\n      jump\t// out\n        /* \"WandInstruments.sol\":11410:11486  function withdrawStables(uint256 _amtToWithdraw) public onlyOwner {\r... */\n    tag_111:\n      pop\n      jump\t// out\n        /* \"WandInstruments.sol\":804:831  uint256 public timeLaunched */\n    tag_114:\n      sload(0x0b)\n      dup2\n      jump\t// out\n        /* \"WandInstruments.sol\":10938:11211  function getSellPrice() external view returns (uint256){\r... */\n    tag_118:\n        /* \"WandInstruments.sol\":10985:10992  uint256 */\n      0x00\n        /* \"WandInstruments.sol\":11125:11203  decMul18(this.getBackingPrice() , (900000000000000000 - this.getSellFactor())) */\n      tag_286\n        /* \"WandInstruments.sol\":11134:11138  this */\n      address\n        /* \"WandInstruments.sol\":11134:11154  this.getBackingPrice */\n      0xffffffffffffffffffffffffffffffffffffffff\n      and\n      0x1f564a06\n        /* \"WandInstruments.sol\":11134:11156  this.getBackingPrice() */\n      mload(0x40)\n      dup2\n      0xffffffff\n      and\n      0xe0\n      shl\n      dup2\n      mstore\n      0x04\n      add\n      0x20\n      mload(0x40)\n      dup1\n      dup4\n      sub\n      dup2\n      dup7\n      dup1\n      extcodesize\n      iszero\n      dup1\n      iszero\n      tag_287\n      jumpi\n      0x00\n      dup1\n      revert\n    tag_287:\n      pop\n      gas\n      staticcall\n      iszero\n      dup1\n      iszero\n      tag_289\n      jumpi\n      returndatasize\n      0x00\n      dup1\n      returndatacopy\n      revert(0x00, returndatasize)\n    tag_289:\n      pop\n      pop\n      pop\n      pop\n      mload(0x40)\n      returndatasize\n      not(0x1f)\n      0x1f\n      dup3\n      add\n      and\n      dup3\n      add\n      dup1\n      0x40\n      mstore\n      pop\n      dup2\n      add\n      swap1\n      tag_290\n      swap2\n      swap1\n      tag_227\n      jump\t// in\n    tag_290:\n        /* \"WandInstruments.sol\":11181:11185  this */\n      address\n        /* \"WandInstruments.sol\":11181:11199  this.getSellFactor */\n      0xffffffffffffffffffffffffffffffffffffffff\n      and\n      0x0ccaf04f\n        /* \"WandInstruments.sol\":11181:11201  this.getSellFactor() */\n      mload(0x40)\n      dup2\n      0xffffffff\n      and\n      0xe0\n      shl\n      dup2\n      mstore\n      0x04\n      add\n      0x20\n      mload(0x40)\n      dup1\n      dup4\n      sub\n      dup2\n      dup7\n      dup1\n      extcodesize\n      iszero\n      dup1\n      iszero\n      tag_291\n      jumpi\n      0x00\n      dup1\n      revert\n    tag_291:\n      pop\n      gas\n      staticcall\n      iszero\n      dup1\n      iszero\n      tag_293\n      jumpi\n      returndatasize\n      0x00\n      dup1\n      returndatacopy\n      revert(0x00, returndatasize)\n    tag_293:\n      pop\n      pop\n      pop\n      pop\n      mload(0x40)\n      returndatasize\n      not(0x1f)\n      0x1f\n      dup3\n      add\n      and\n      dup3\n      add\n      dup1\n      0x40\n      mstore\n      pop\n      dup2\n      add\n      swap1\n      tag_294\n      swap2\n      swap1\n      tag_227\n      jump\t// in\n    tag_294:\n        /* \"WandInstruments.sol\":11160:11178  900000000000000000 */\n      0x0c7d713b49da0000\n        /* \"WandInstruments.sol\":11160:11201  900000000000000000 - this.getSellFactor() */\n      tag_295\n      swap2\n      swap1\n      tag_238\n      jump\t// in\n    tag_295:\n        /* \"WandInstruments.sol\":11125:11133  decMul18 */\n      tag_211\n        /* \"WandInstruments.sol\":11125:11203  decMul18(this.getBackingPrice() , (900000000000000000 - this.getSellFactor())) */\n      jump\t// in\n    tag_286:\n        /* \"WandInstruments.sol\":11118:11203  return decMul18(this.getBackingPrice() , (900000000000000000 - this.getSellFactor())) */\n      swap1\n      pop\n        /* \"WandInstruments.sol\":10938:11211  function getSellPrice() external view returns (uint256){\r... */\n      swap1\n      jump\t// out\n        /* \"WandInstruments.sol\":4606:6219  function cashOutScepter(uint256 amountSCPtoSell, uint256 timeChosenLocked) public payable{\r... */\n    tag_123:\n        /* \"WandInstruments.sol\":4767:4793  uint256 trader_tsc_balance */\n      0x00\n        /* \"WandInstruments.sol\":4796:4799  tSC */\n      0x12\n      0x00\n      swap1\n      sload\n      swap1\n      0x0100\n      exp\n      swap1\n      div\n      0xffffffffffffffffffffffffffffffffffffffff\n      and\n        /* \"WandInstruments.sol\":4796:4809  tSC.balanceOf */\n      0xffffffffffffffffffffffffffffffffffffffff\n      and\n      0x70a08231\n        /* \"WandInstruments.sol\":4810:4820  msg.sender */\n      caller\n        /* \"WandInstruments.sol\":4796:4821  tSC.balanceOf(msg.sender) */\n      mload(0x40)\n      dup3\n      0xffffffff\n      and\n      0xe0\n      shl\n      dup2\n      mstore\n      0x04\n      add\n      tag_297\n      swap2\n      swap1\n      tag_57\n      jump\t// in\n    tag_297:\n      0x20\n      mload(0x40)\n      dup1\n      dup4\n      sub\n      dup2\n      dup7\n      dup1\n      extcodesize\n      iszero\n      dup1\n      iszero\n      tag_298\n      jumpi\n      0x00\n      dup1\n      revert\n    tag_298:\n      pop\n      gas\n      staticcall\n      iszero\n      dup1\n      iszero\n      tag_300\n      jumpi\n      returndatasize\n      0x00\n      dup1\n      returndatacopy\n      revert(0x00, returndatasize)\n    tag_300:\n      pop\n      pop\n      pop\n      pop\n      mload(0x40)\n      returndatasize\n      not(0x1f)\n      0x1f\n      dup3\n      add\n      and\n      dup3\n      add\n      dup1\n      0x40\n      mstore\n      pop\n      dup2\n      add\n      swap1\n      tag_301\n      swap2\n      swap1\n      tag_227\n      jump\t// in\n    tag_301:\n        /* \"WandInstruments.sol\":4767:4821  uint256 trader_tsc_balance = tSC.balanceOf(msg.sender) */\n      swap1\n      pop\n        /* \"WandInstruments.sol\":4861:4876  amountSCPtoSell */\n      dup3\n        /* \"WandInstruments.sol\":4840:4858  trader_tsc_balance */\n      dup2\n        /* \"WandInstruments.sol\":4840:4876  trader_tsc_balance > amountSCPtoSell */\n      gt\n        /* \"WandInstruments.sol\":4832:4907  require(trader_tsc_balance > amountSCPtoSell, \"You dont have that amount!\") */\n      tag_302\n      jumpi\n      mload(0x40)\n      0x08c379a000000000000000000000000000000000000000000000000000000000\n      dup2\n      mstore\n      0x04\n      add\n      tag_303\n      swap1\n      tag_270\n      jump\t// in\n    tag_303:\n      mload(0x40)\n      dup1\n      swap2\n      sub\n      swap1\n      revert\n    tag_302:\n        /* \"WandInstruments.sol\":5109:5117  mockUSDC */\n      0x13\n      0x00\n      swap1\n      sload\n      swap1\n      0x0100\n      exp\n      swap1\n      div\n      0xffffffffffffffffffffffffffffffffffffffff\n      and\n        /* \"WandInstruments.sol\":5109:5126  mockUSDC.transfer */\n      0xffffffffffffffffffffffffffffffffffffffff\n      and\n      0xa9059cbb\n        /* \"WandInstruments.sol\":5127:5137  msg.sender */\n      caller\n        /* \"WandInstruments.sol\":283:289  10**18 */\n      0x0de0b6b3a7640000\n        /* \"WandInstruments.sol\":5158:5159  1 */\n      0x01\n        /* \"WandInstruments.sol\":5158:5170  1*(DECIMALS) */\n      tag_304\n      swap2\n      swap1\n      tag_305\n      jump\t// in\n    tag_304:\n        /* \"WandInstruments.sol\":5139:5154  amountSCPtoSell */\n      dup7\n        /* \"WandInstruments.sol\":5139:5171  amountSCPtoSell + (1*(DECIMALS)) */\n      tag_306\n      swap2\n      swap1\n      tag_233\n      jump\t// in\n    tag_306:\n        /* \"WandInstruments.sol\":5109:5172  mockUSDC.transfer(msg.sender, amountSCPtoSell + (1*(DECIMALS))) */\n      mload(0x40)\n      dup4\n      0xffffffff\n      and\n      0xe0\n      shl\n      dup2\n      mstore\n      0x04\n      add\n      tag_307\n      swap3\n      swap2\n      swap1\n      tag_174\n      jump\t// in\n    tag_307:\n      0x20\n      mload(0x40)\n      dup1\n      dup4\n      sub\n      dup2\n      0x00\n      dup8\n      dup1\n      extcodesize\n      iszero\n      dup1\n      iszero\n      tag_308\n      jumpi\n      0x00\n      dup1\n      revert\n    tag_308:\n      pop\n      gas\n      call\n      iszero\n      dup1\n      iszero\n      tag_310\n      jumpi\n      returndatasize\n      0x00\n      dup1\n      returndatacopy\n      revert(0x00, returndatasize)\n    tag_310:\n      pop\n      pop\n      pop\n      pop\n      mload(0x40)\n      returndatasize\n      not(0x1f)\n      0x1f\n      dup3\n      add\n      and\n      dup3\n      add\n      dup1\n      0x40\n      mstore\n      pop\n      dup2\n      add\n      swap1\n      tag_311\n      swap2\n      swap1\n      tag_312\n      jump\t// in\n    tag_311:\n      pop\n        /* \"WandInstruments.sol\":5275:5341  _safeTransferFrom(tSC, msg.sender, address(this), amountSCPtoSell) */\n      tag_313\n        /* \"WandInstruments.sol\":5293:5296  tSC */\n      0x12\n      0x00\n      swap1\n      sload\n      swap1\n      0x0100\n      exp\n      swap1\n      div\n      0xffffffffffffffffffffffffffffffffffffffff\n      and\n        /* \"WandInstruments.sol\":5298:5308  msg.sender */\n      caller\n        /* \"WandInstruments.sol\":5318:5322  this */\n      address\n        /* \"WandInstruments.sol\":5325:5340  amountSCPtoSell */\n      dup7\n        /* \"WandInstruments.sol\":5275:5292  _safeTransferFrom */\n      tag_272\n        /* \"WandInstruments.sol\":5275:5341  _safeTransferFrom(tSC, msg.sender, address(this), amountSCPtoSell) */\n      jump\t// in\n    tag_313:\n        /* \"WandInstruments.sol\":5355:5370  uint256 usdcAmt */\n      0x00\n        /* \"WandInstruments.sol\":5417:5432  amountSCPtoSell */\n      dup4\n        /* \"WandInstruments.sol\":5395:5399  this */\n      address\n        /* \"WandInstruments.sol\":5395:5412  this.getSellPrice */\n      0xffffffffffffffffffffffffffffffffffffffff\n      and\n      0x43d32e9c\n        /* \"WandInstruments.sol\":5395:5414  this.getSellPrice() */\n      mload(0x40)\n      dup2\n      0xffffffff\n      and\n      0xe0\n      shl\n      dup2\n      mstore\n      0x04\n      add\n      0x20\n      mload(0x40)\n      dup1\n      dup4\n      sub\n      dup2\n      dup7\n      dup1\n      extcodesize\n      iszero\n      dup1\n      iszero\n      tag_314\n      jumpi\n      0x00\n      dup1\n      revert\n    tag_314:\n      pop\n      gas\n      staticcall\n      iszero\n      dup1\n      iszero\n      tag_316\n      jumpi\n      returndatasize\n      0x00\n      dup1\n      returndatacopy\n      revert(0x00, returndatasize)\n    tag_316:\n      pop\n      pop\n      pop\n      pop\n      mload(0x40)\n      returndatasize\n      not(0x1f)\n      0x1f\n      dup3\n      add\n      and\n      dup3\n      add\n      dup1\n      0x40\n      mstore\n      pop\n      dup2\n      add\n      swap1\n      tag_317\n      swap2\n      swap1\n      tag_227\n      jump\t// in\n    tag_317:\n        /* \"WandInstruments.sol\":5395:5432  this.getSellPrice() * amountSCPtoSell */\n      tag_318\n      swap2\n      swap1\n      tag_305\n      jump\t// in\n    tag_318:\n        /* \"WandInstruments.sol\":5385:5432  usdcAmt = this.getSellPrice() * amountSCPtoSell */\n      swap1\n      pop\n        /* \"WandInstruments.sol\":5707:5723  uint256 dInArray */\n      0x00\n        /* \"WandInstruments.sol\":5757:5762  86400 */\n      0x015180\n        /* \"WandInstruments.sol\":5743:5755  timeLaunched */\n      sload(0x0b)\n        /* \"WandInstruments.sol\":5726:5741  block.timestamp */\n      timestamp\n        /* \"WandInstruments.sol\":5726:5755  block.timestamp- timeLaunched */\n      tag_319\n      swap2\n      swap1\n      tag_238\n      jump\t// in\n    tag_319:\n        /* \"WandInstruments.sol\":5725:5762  (block.timestamp- timeLaunched)/86400 */\n      tag_320\n      swap2\n      swap1\n      tag_236\n      jump\t// in\n    tag_320:\n        /* \"WandInstruments.sol\":5707:5762  uint256 dInArray =(block.timestamp- timeLaunched)/86400 */\n      swap1\n      pop\n        /* \"WandInstruments.sol\":5803:5818  amountSCPtoSell */\n      dup5\n        /* \"WandInstruments.sol\":5774:5789  tokensSoldXDays */\n      0x16\n        /* \"WandInstruments.sol\":5774:5799  tokensSoldXDays[dInArray] */\n      0x00\n        /* \"WandInstruments.sol\":5790:5798  dInArray */\n      dup4\n        /* \"WandInstruments.sol\":5774:5799  tokensSoldXDays[dInArray] */\n      dup2\n      mstore\n      0x20\n      add\n      swap1\n      dup2\n      mstore\n      0x20\n      add\n      0x00\n      keccak256\n      0x00\n        /* \"WandInstruments.sol\":5774:5818  tokensSoldXDays[dInArray] += amountSCPtoSell */\n      dup3\n      dup3\n      sload\n      tag_321\n      swap2\n      swap1\n      tag_233\n      jump\t// in\n    tag_321:\n      swap3\n      pop\n      pop\n      dup2\n      swap1\n      sstore\n      pop\n        /* \"WandInstruments.sol\":5865:5880  amountSCPtoSell */\n      dup5\n        /* \"WandInstruments.sol\":5829:5851  circulatingSupplyXDays */\n      0x17\n        /* \"WandInstruments.sol\":5829:5861  circulatingSupplyXDays[dInArray] */\n      0x00\n        /* \"WandInstruments.sol\":5852:5860  dInArray */\n      dup4\n        /* \"WandInstruments.sol\":5829:5861  circulatingSupplyXDays[dInArray] */\n      dup2\n      mstore\n      0x20\n      add\n      swap1\n      dup2\n      mstore\n      0x20\n      add\n      0x00\n      keccak256\n      0x00\n        /* \"WandInstruments.sol\":5829:5880  circulatingSupplyXDays[dInArray] -= amountSCPtoSell */\n      dup3\n      dup3\n      sload\n      tag_322\n      swap2\n      swap1\n      tag_238\n      jump\t// in\n    tag_322:\n      swap3\n      pop\n      pop\n      dup2\n      swap1\n      sstore\n      pop\n        /* \"WandInstruments.sol\":4695:6219  {\r... */\n      pop\n      pop\n      pop\n        /* \"WandInstruments.sol\":4606:6219  function cashOutScepter(uint256 amountSCPtoSell, uint256 timeChosenLocked) public payable{\r... */\n      pop\n      pop\n      jump\t// out\n        /* \"WandInstruments.sol\":4070:4249  function decDiv18(uint x, uint y) public pure returns (uint decQuotient) {\r... */\n    tag_127:\n        /* \"WandInstruments.sol\":4125:4141  uint decQuotient */\n      0x00\n        /* \"WandInstruments.sol\":4154:4170  uint prod_xTEN18 */\n      dup1\n        /* \"WandInstruments.sol\":4173:4189  mul(x, DECIMALS) */\n      tag_324\n        /* \"WandInstruments.sol\":4177:4178  x */\n      dup5\n        /* \"WandInstruments.sol\":283:289  10**18 */\n      0x0de0b6b3a7640000\n        /* \"WandInstruments.sol\":4173:4176  mul */\n      tag_325\n        /* \"WandInstruments.sol\":4173:4189  mul(x, DECIMALS) */\n      jump\t// in\n    tag_324:\n        /* \"WandInstruments.sol\":4154:4189  uint prod_xTEN18 = mul(x, DECIMALS) */\n      swap1\n      pop\n        /* \"WandInstruments.sol\":4240:4241  y */\n      dup3\n        /* \"WandInstruments.sol\":4214:4237  add(prod_xTEN18, y / 2) */\n      tag_326\n        /* \"WandInstruments.sol\":4218:4229  prod_xTEN18 */\n      dup3\n        /* \"WandInstruments.sol\":4235:4236  2 */\n      0x02\n        /* \"WandInstruments.sol\":4231:4232  y */\n      dup7\n        /* \"WandInstruments.sol\":4231:4236  y / 2 */\n      tag_327\n      swap2\n      swap1\n      tag_236\n      jump\t// in\n    tag_327:\n        /* \"WandInstruments.sol\":4214:4217  add */\n      tag_328\n        /* \"WandInstruments.sol\":4214:4237  add(prod_xTEN18, y / 2) */\n      jump\t// in\n    tag_326:\n        /* \"WandInstruments.sol\":4214:4241  add(prod_xTEN18, y / 2) / y */\n      tag_329\n      swap2\n      swap1\n      tag_236\n      jump\t// in\n    tag_329:\n        /* \"WandInstruments.sol\":4200:4241  decQuotient = add(prod_xTEN18, y / 2) / y */\n      swap2\n      pop\n        /* \"WandInstruments.sol\":4143:4249  {\r... */\n      pop\n        /* \"WandInstruments.sol\":4070:4249  function decDiv18(uint x, uint y) public pure returns (uint decQuotient) {\r... */\n      swap3\n      swap2\n      pop\n      pop\n      jump\t// out\n        /* \"WandInstruments.sol\":838:870  uint256 public daysInCalculation */\n    tag_131:\n      sload(0x0c)\n      dup2\n      jump\t// out\n        /* \"WandInstruments.sol\":11494:11966  function testUpdatetimeLockedplus(uint256 amt) public  {\r... */\n    tag_136:\n        /* \"WandInstruments.sol\":11889:11895  864000 */\n      0x0d2f00\n        /* \"WandInstruments.sol\":11871:11886  block.timestamp */\n      timestamp\n        /* \"WandInstruments.sol\":11871:11895  block.timestamp + 864000 */\n      tag_331\n      swap2\n      swap1\n      tag_233\n      jump\t// in\n    tag_331:\n        /* \"WandInstruments.sol\":11824:11843  withheldWithdrawals */\n      0x19\n        /* \"WandInstruments.sol\":11824:11855  withheldWithdrawals[msg.sender] */\n      0x00\n        /* \"WandInstruments.sol\":11844:11854  msg.sender */\n      caller\n        /* \"WandInstruments.sol\":11824:11855  withheldWithdrawals[msg.sender] */\n      0xffffffffffffffffffffffffffffffffffffffff\n      and\n      0xffffffffffffffffffffffffffffffffffffffff\n      and\n      dup2\n      mstore\n      0x20\n      add\n      swap1\n      dup2\n      mstore\n      0x20\n      add\n      0x00\n      keccak256\n        /* \"WandInstruments.sol\":11824:11868  withheldWithdrawals[msg.sender].timeUnlocked */\n      0x00\n      add\n        /* \"WandInstruments.sol\":11824:11895  withheldWithdrawals[msg.sender].timeUnlocked = block.timestamp + 864000 */\n      dup2\n      swap1\n      sstore\n      pop\n        /* \"WandInstruments.sol\":11949:11952  amt */\n      dup1\n        /* \"WandInstruments.sol\":11906:11925  withheldWithdrawals */\n      0x19\n        /* \"WandInstruments.sol\":11906:11937  withheldWithdrawals[msg.sender] */\n      0x00\n        /* \"WandInstruments.sol\":11926:11936  msg.sender */\n      caller\n        /* \"WandInstruments.sol\":11906:11937  withheldWithdrawals[msg.sender] */\n      0xffffffffffffffffffffffffffffffffffffffff\n      and\n      0xffffffffffffffffffffffffffffffffffffffff\n      and\n      dup2\n      mstore\n      0x20\n      add\n      swap1\n      dup2\n      mstore\n      0x20\n      add\n      0x00\n      keccak256\n        /* \"WandInstruments.sol\":11906:11945  withheldWithdrawals[msg.sender].amounts */\n      0x01\n      add\n      0x00\n        /* \"WandInstruments.sol\":11906:11952  withheldWithdrawals[msg.sender].amounts += amt */\n      dup3\n      dup3\n      sload\n      tag_332\n      swap2\n      swap1\n      tag_233\n      jump\t// in\n    tag_332:\n      swap3\n      pop\n      pop\n      dup2\n      swap1\n      sstore\n      pop\n        /* \"WandInstruments.sol\":11494:11966  function testUpdatetimeLockedplus(uint256 amt) public  {\r... */\n      pop\n      jump\t// out\n        /* \"WandInstruments.sol\":1311:1328  IERC20 public tSC */\n    tag_139:\n      0x12\n      0x00\n      swap1\n      sload\n      swap1\n      0x0100\n      exp\n      swap1\n      div\n      0xffffffffffffffffffffffffffffffffffffffff\n      and\n      dup2\n      jump\t// out\n        /* \"WandInstruments.sol\":1089:1106  int128 public res */\n    tag_144:\n      0x10\n      0x00\n      swap1\n      sload\n      swap1\n      0x0100\n      exp\n      swap1\n      div\n      0x0f\n      signextend\n      dup2\n      jump\t// out\n        /* \"WandInstruments.sol\":1386:1411  IERC20 public tokenStable */\n    tag_149:\n      0x14\n      0x00\n      swap1\n      sload\n      swap1\n      0x0100\n      exp\n      swap1\n      div\n      0xffffffffffffffffffffffffffffffffffffffff\n      and\n      dup2\n      jump\t// out\n        /* \"WandInstruments.sol\":12591:13119  function getTokensBoughtXDays() external view returns (uint256){\r... */\n    tag_153:\n        /* \"WandInstruments.sol\":12646:12653  uint256 */\n      0x00\n        /* \"WandInstruments.sol\":12665:12682  uint256 boughtnum */\n      dup1\n        /* \"WandInstruments.sol\":12693:12702  uint256 d */\n      0x00\n        /* \"WandInstruments.sol\":12713:12728  uint256 numdays */\n      dup1\n        /* \"WandInstruments.sol\":12749:12754  86400 */\n      0x015180\n        /* \"WandInstruments.sol\":12731:12748  daysInCalculation */\n      sload(0x0c)\n        /* \"WandInstruments.sol\":12731:12754  daysInCalculation/86400 */\n      tag_334\n      swap2\n      swap1\n      tag_236\n      jump\t// in\n    tag_334:\n        /* \"WandInstruments.sol\":12713:12754  uint256 numdays = daysInCalculation/86400 */\n      swap1\n      pop\n        /* \"WandInstruments.sol\":12765:12789  uint256 daySinceLaunched */\n      0x00\n        /* \"WandInstruments.sol\":12827:12832  86400 */\n      0x015180\n        /* \"WandInstruments.sol\":12811:12823  timeLaunched */\n      sload(0x0b)\n        /* \"WandInstruments.sol\":12793:12808  block.timestamp */\n      timestamp\n        /* \"WandInstruments.sol\":12793:12823  block.timestamp - timeLaunched */\n      tag_335\n      swap2\n      swap1\n      tag_238\n      jump\t// in\n    tag_335:\n        /* \"WandInstruments.sol\":12792:12832  (block.timestamp - timeLaunched) / 86400 */\n      tag_336\n      swap2\n      swap1\n      tag_236\n      jump\t// in\n    tag_336:\n        /* \"WandInstruments.sol\":12765:12832  uint256 daySinceLaunched = (block.timestamp - timeLaunched) / 86400 */\n      swap1\n      pop\n        /* \"WandInstruments.sol\":12867:12868  0 */\n      0x00\n        /* \"WandInstruments.sol\":12847:12863  daySinceLaunched */\n      dup2\n        /* \"WandInstruments.sol\":12847:12868  daySinceLaunched == 0 */\n      eq\n        /* \"WandInstruments.sol\":12843:12920  if (daySinceLaunched == 0) {\r... */\n      iszero\n      tag_337\n      jumpi\n        /* \"WandInstruments.sol\":12888:12905  tokensBoughtXDays */\n      0x15\n        /* \"WandInstruments.sol\":12888:12908  tokensBoughtXDays[0] */\n      0x00\n        /* \"WandInstruments.sol\":12906:12907  0 */\n      dup1\n        /* \"WandInstruments.sol\":12888:12908  tokensBoughtXDays[0] */\n      dup2\n      mstore\n      0x20\n      add\n      swap1\n      dup2\n      mstore\n      0x20\n      add\n      0x00\n      keccak256\n      sload\n        /* \"WandInstruments.sol\":12881:12908  return tokensBoughtXDays[0] */\n      swap5\n      pop\n      pop\n      pop\n      pop\n      pop\n      jump(tag_333)\n        /* \"WandInstruments.sol\":12843:12920  if (daySinceLaunched == 0) {\r... */\n    tag_337:\n        /* \"WandInstruments.sol\":12958:12965  numdays */\n      dup2\n        /* \"WandInstruments.sol\":12939:12955  daySinceLaunched */\n      dup2\n        /* \"WandInstruments.sol\":12939:12965  daySinceLaunched - numdays */\n      tag_341\n      swap2\n      swap1\n      tag_238\n      jump\t// in\n    tag_341:\n        /* \"WandInstruments.sol\":12935:12965  d = daySinceLaunched - numdays */\n      swap3\n      pop\n        /* \"WandInstruments.sol\":12930:13076  for (d = daySinceLaunched - numdays; d < daySinceLaunched; d++) {  //for loop example\r... */\n    tag_338:\n        /* \"WandInstruments.sol\":12971:12987  daySinceLaunched */\n      dup1\n        /* \"WandInstruments.sol\":12967:12968  d */\n      dup4\n        /* \"WandInstruments.sol\":12967:12987  d < daySinceLaunched */\n      lt\n        /* \"WandInstruments.sol\":12930:13076  for (d = daySinceLaunched - numdays; d < daySinceLaunched; d++) {  //for loop example\r... */\n      iszero\n      tag_339\n      jumpi\n        /* \"WandInstruments.sol\":13040:13057  tokensBoughtXDays */\n      0x15\n        /* \"WandInstruments.sol\":13040:13060  tokensBoughtXDays[d] */\n      0x00\n        /* \"WandInstruments.sol\":13058:13059  d */\n      dup5\n        /* \"WandInstruments.sol\":13040:13060  tokensBoughtXDays[d] */\n      dup2\n      mstore\n      0x20\n      add\n      swap1\n      dup2\n      mstore\n      0x20\n      add\n      0x00\n      keccak256\n      sload\n        /* \"WandInstruments.sol\":13027:13060  boughtnum += tokensBoughtXDays[d] */\n      dup5\n      tag_342\n      swap2\n      swap1\n      tag_233\n      jump\t// in\n    tag_342:\n      swap4\n      pop\n        /* \"WandInstruments.sol\":12989:12992  d++ */\n      dup3\n      dup1\n      tag_343\n      swap1\n      tag_248\n      jump\t// in\n    tag_343:\n      swap4\n      pop\n      pop\n        /* \"WandInstruments.sol\":12930:13076  for (d = daySinceLaunched - numdays; d < daySinceLaunched; d++) {  //for loop example\r... */\n      jump(tag_338)\n    tag_339:\n        /* \"WandInstruments.sol\":13102:13111  boughtnum */\n      dup4\n        /* \"WandInstruments.sol\":13095:13111  return boughtnum */\n      swap5\n      pop\n      pop\n      pop\n      pop\n      pop\n        /* \"WandInstruments.sol\":12591:13119  function getTokensBoughtXDays() external view returns (uint256){\r... */\n    tag_333:\n      swap1\n      jump\t// out\n        /* \"WandInstruments.sol\":6987:8191  function buyScepter(uint256 amountSCPtoBuy, string memory _stableChosen) public {\r... */\n    tag_159:\n        /* \"WandInstruments.sol\":7165:7171  250000 */\n      0x03d090\n        /* \"WandInstruments.sol\":7147:7161  amountSCPtoBuy */\n      dup3\n        /* \"WandInstruments.sol\":7147:7171  amountSCPtoBuy <= 250000 */\n      gt\n      iszero\n        /* \"WandInstruments.sol\":7139:7198  require(amountSCPtoBuy <= 250000 , \"Per transaction limit\") */\n      tag_345\n      jumpi\n      mload(0x40)\n      0x08c379a000000000000000000000000000000000000000000000000000000000\n      dup2\n      mstore\n      0x04\n      add\n      tag_346\n      swap1\n      tag_347\n      jump\t// in\n    tag_346:\n      mload(0x40)\n      dup1\n      swap2\n      sub\n      swap1\n      revert\n    tag_345:\n        /* \"WandInstruments.sol\":7209:7236  uint256 trader_usdc_balance */\n      0x00\n        /* \"WandInstruments.sol\":7239:7247  mockUSDC */\n      0x13\n      0x00\n      swap1\n      sload\n      swap1\n      0x0100\n      exp\n      swap1\n      div\n      0xffffffffffffffffffffffffffffffffffffffff\n      and\n        /* \"WandInstruments.sol\":7239:7257  mockUSDC.balanceOf */\n      0xffffffffffffffffffffffffffffffffffffffff\n      and\n      0x70a08231\n        /* \"WandInstruments.sol\":7258:7268  msg.sender */\n      caller\n        /* \"WandInstruments.sol\":7239:7269  mockUSDC.balanceOf(msg.sender) */\n      mload(0x40)\n      dup3\n      0xffffffff\n      and\n      0xe0\n      shl\n      dup2\n      mstore\n      0x04\n      add\n      tag_348\n      swap2\n      swap1\n      tag_57\n      jump\t// in\n    tag_348:\n      0x20\n      mload(0x40)\n      dup1\n      dup4\n      sub\n      dup2\n      dup7\n      dup1\n      extcodesize\n      iszero\n      dup1\n      iszero\n      tag_349\n      jumpi\n      0x00\n      dup1\n      revert\n    tag_349:\n      pop\n      gas\n      staticcall\n      iszero\n      dup1\n      iszero\n      tag_351\n      jumpi\n      returndatasize\n      0x00\n      dup1\n      returndatacopy\n      revert(0x00, returndatasize)\n    tag_351:\n      pop\n      pop\n      pop\n      pop\n      mload(0x40)\n      returndatasize\n      not(0x1f)\n      0x1f\n      dup3\n      add\n      and\n      dup3\n      add\n      dup1\n      0x40\n      mstore\n      pop\n      dup2\n      add\n      swap1\n      tag_352\n      swap2\n      swap1\n      tag_227\n      jump\t// in\n    tag_352:\n        /* \"WandInstruments.sol\":7209:7269  uint256 trader_usdc_balance = mockUSDC.balanceOf(msg.sender) */\n      swap1\n      pop\n        /* \"WandInstruments.sol\":7310:7324  amountSCPtoBuy */\n      dup3\n        /* \"WandInstruments.sol\":7288:7307  trader_usdc_balance */\n      dup2\n        /* \"WandInstruments.sol\":7288:7324  trader_usdc_balance > amountSCPtoBuy */\n      gt\n        /* \"WandInstruments.sol\":7280:7355  require(trader_usdc_balance > amountSCPtoBuy, \"You dont have that amount!\") */\n      tag_353\n      jumpi\n      mload(0x40)\n      0x08c379a000000000000000000000000000000000000000000000000000000000\n      dup2\n      mstore\n      0x04\n      add\n      tag_354\n      swap1\n      tag_270\n      jump\t// in\n    tag_354:\n      mload(0x40)\n      dup1\n      swap2\n      sub\n      swap1\n      revert\n    tag_353:\n        /* \"WandInstruments.sol\":7433:7448  stableERC20Info */\n      0x18\n        /* \"WandInstruments.sol\":7449:7462  _stableChosen */\n      dup3\n        /* \"WandInstruments.sol\":7433:7463  stableERC20Info[_stableChosen] */\n      mload(0x40)\n      tag_355\n      swap2\n      swap1\n      tag_356\n      jump\t// in\n    tag_355:\n      swap1\n      dup2\n      mstore\n      0x20\n      add\n      mload(0x40)\n      dup1\n      swap2\n      sub\n      swap1\n      keccak256\n        /* \"WandInstruments.sol\":7433:7479  stableERC20Info[_stableChosen].contractAddress */\n      0x00\n      add\n      0x00\n      swap1\n      sload\n      swap1\n      0x0100\n      exp\n      swap1\n      div\n      0xffffffffffffffffffffffffffffffffffffffff\n      and\n        /* \"WandInstruments.sol\":7412:7423  tokenStable */\n      0x14\n      0x00\n        /* \"WandInstruments.sol\":7412:7480  tokenStable = IERC20(stableERC20Info[_stableChosen].contractAddress) */\n      0x0100\n      exp\n      dup2\n      sload\n      dup2\n      0xffffffffffffffffffffffffffffffffffffffff\n      mul\n      not\n      and\n      swap1\n      dup4\n      0xffffffffffffffffffffffffffffffffffffffff\n      and\n      mul\n      or\n      swap1\n      sstore\n      pop\n        /* \"WandInstruments.sol\":7491:7510  uint256 usdAmtToPay */\n      0x00\n        /* \"WandInstruments.sol\":7573:7588  stableERC20Info */\n      0x18\n        /* \"WandInstruments.sol\":7589:7602  _stableChosen */\n      dup4\n        /* \"WandInstruments.sol\":7573:7603  stableERC20Info[_stableChosen] */\n      mload(0x40)\n      tag_357\n      swap2\n      swap1\n      tag_356\n      jump\t// in\n    tag_357:\n      swap1\n      dup2\n      mstore\n      0x20\n      add\n      mload(0x40)\n      dup1\n      swap2\n      sub\n      swap1\n      keccak256\n        /* \"WandInstruments.sol\":7573:7617  stableERC20Info[_stableChosen].tokenDecimals */\n      0x01\n      add\n      sload\n        /* \"WandInstruments.sol\":7552:7556  this */\n      address\n        /* \"WandInstruments.sol\":7552:7568  this.getBuyPrice */\n      0xffffffffffffffffffffffffffffffffffffffff\n      and\n      0x018a25e8\n        /* \"WandInstruments.sol\":7552:7570  this.getBuyPrice() */\n      mload(0x40)\n      dup2\n      0xffffffff\n      and\n      0xe0\n      shl\n      dup2\n      mstore\n      0x04\n      add\n      0x20\n      mload(0x40)\n      dup1\n      dup4\n      sub\n      dup2\n      dup7\n      dup1\n      extcodesize\n      iszero\n      dup1\n      iszero\n      tag_358\n      jumpi\n      0x00\n      dup1\n      revert\n    tag_358:\n      pop\n      gas\n      staticcall\n      iszero\n      dup1\n      iszero\n      tag_360\n      jumpi\n      returndatasize\n      0x00\n      dup1\n      returndatacopy\n      revert(0x00, returndatasize)\n    tag_360:\n      pop\n      pop\n      pop\n      pop\n      mload(0x40)\n      returndatasize\n      not(0x1f)\n      0x1f\n      dup3\n      add\n      and\n      dup3\n      add\n      dup1\n      0x40\n      mstore\n      pop\n      dup2\n      add\n      swap1\n      tag_361\n      swap2\n      swap1\n      tag_227\n      jump\t// in\n    tag_361:\n        /* \"WandInstruments.sol\":7535:7549  amountSCPtoBuy */\n      dup6\n        /* \"WandInstruments.sol\":7535:7570  amountSCPtoBuy * this.getBuyPrice() */\n      tag_362\n      swap2\n      swap1\n      tag_305\n      jump\t// in\n    tag_362:\n        /* \"WandInstruments.sol\":7535:7617  amountSCPtoBuy * this.getBuyPrice() * stableERC20Info[_stableChosen].tokenDecimals */\n      tag_363\n      swap2\n      swap1\n      tag_305\n      jump\t// in\n    tag_363:\n        /* \"WandInstruments.sol\":7521:7617  usdAmtToPay = amountSCPtoBuy * this.getBuyPrice() * stableERC20Info[_stableChosen].tokenDecimals */\n      swap1\n      pop\n        /* \"WandInstruments.sol\":7673:7743  _safeTransferFrom(tokenStable, msg.sender, address(this), usdAmtToPay) */\n      tag_364\n        /* \"WandInstruments.sol\":7691:7702  tokenStable */\n      0x14\n      0x00\n      swap1\n      sload\n      swap1\n      0x0100\n      exp\n      swap1\n      div\n      0xffffffffffffffffffffffffffffffffffffffff\n      and\n        /* \"WandInstruments.sol\":7704:7714  msg.sender */\n      caller\n        /* \"WandInstruments.sol\":7724:7728  this */\n      address\n        /* \"WandInstruments.sol\":7731:7742  usdAmtToPay */\n      dup5\n        /* \"WandInstruments.sol\":7673:7690  _safeTransferFrom */\n      tag_272\n        /* \"WandInstruments.sol\":7673:7743  _safeTransferFrom(tokenStable, msg.sender, address(this), usdAmtToPay) */\n      jump\t// in\n    tag_364:\n        /* \"WandInstruments.sol\":7762:7766  sptr */\n      0x1a\n      0x00\n      swap1\n      sload\n      swap1\n      0x0100\n      exp\n      swap1\n      div\n      0xffffffffffffffffffffffffffffffffffffffff\n      and\n        /* \"WandInstruments.sol\":7762:7771  sptr.mint */\n      0xffffffffffffffffffffffffffffffffffffffff\n      and\n      0x40c10f19\n        /* \"WandInstruments.sol\":7772:7782  msg.sender */\n      caller\n        /* \"WandInstruments.sol\":283:289  10**18 */\n      0x0de0b6b3a7640000\n        /* \"WandInstruments.sol\":7783:7797  amountSCPtoBuy */\n      dup8\n        /* \"WandInstruments.sol\":7783:7808  amountSCPtoBuy * DECIMALS */\n      tag_365\n      swap2\n      swap1\n      tag_305\n      jump\t// in\n    tag_365:\n        /* \"WandInstruments.sol\":7762:7809  sptr.mint(msg.sender,amountSCPtoBuy * DECIMALS) */\n      mload(0x40)\n      dup4\n      0xffffffff\n      and\n      0xe0\n      shl\n      dup2\n      mstore\n      0x04\n      add\n      tag_366\n      swap3\n      swap2\n      swap1\n      tag_174\n      jump\t// in\n    tag_366:\n      0x00\n      mload(0x40)\n      dup1\n      dup4\n      sub\n      dup2\n      0x00\n      dup8\n      dup1\n      extcodesize\n      iszero\n      dup1\n      iszero\n      tag_367\n      jumpi\n      0x00\n      dup1\n      revert\n    tag_367:\n      pop\n      gas\n      call\n      iszero\n      dup1\n      iszero\n      tag_369\n      jumpi\n      returndatasize\n      0x00\n      dup1\n      returndatacopy\n      revert(0x00, returndatasize)\n    tag_369:\n      pop\n      pop\n      pop\n      pop\n        /* \"WandInstruments.sol\":7950:7966  uint256 dInArray */\n      0x00\n        /* \"WandInstruments.sol\":8000:8005  86400 */\n      0x015180\n        /* \"WandInstruments.sol\":7986:7998  timeLaunched */\n      sload(0x0b)\n        /* \"WandInstruments.sol\":7969:7984  block.timestamp */\n      timestamp\n        /* \"WandInstruments.sol\":7969:7998  block.timestamp- timeLaunched */\n      tag_370\n      swap2\n      swap1\n      tag_238\n      jump\t// in\n    tag_370:\n        /* \"WandInstruments.sol\":7968:8005  (block.timestamp- timeLaunched)/86400 */\n      tag_371\n      swap2\n      swap1\n      tag_236\n      jump\t// in\n    tag_371:\n        /* \"WandInstruments.sol\":7950:8005  uint256 dInArray =(block.timestamp- timeLaunched)/86400 */\n      swap1\n      pop\n        /* \"WandInstruments.sol\":8048:8062  amountSCPtoBuy */\n      dup5\n        /* \"WandInstruments.sol\":8017:8034  tokensBoughtXDays */\n      0x15\n        /* \"WandInstruments.sol\":8017:8044  tokensBoughtXDays[dInArray] */\n      0x00\n        /* \"WandInstruments.sol\":8035:8043  dInArray */\n      dup4\n        /* \"WandInstruments.sol\":8017:8044  tokensBoughtXDays[dInArray] */\n      dup2\n      mstore\n      0x20\n      add\n      swap1\n      dup2\n      mstore\n      0x20\n      add\n      0x00\n      keccak256\n      0x00\n        /* \"WandInstruments.sol\":8017:8062  tokensBoughtXDays[dInArray] += amountSCPtoBuy */\n      dup3\n      dup3\n      sload\n      tag_372\n      swap2\n      swap1\n      tag_233\n      jump\t// in\n    tag_372:\n      swap3\n      pop\n      pop\n      dup2\n      swap1\n      sstore\n      pop\n        /* \"WandInstruments.sol\":8109:8123  amountSCPtoBuy */\n      dup5\n        /* \"WandInstruments.sol\":8073:8095  circulatingSupplyXDays */\n      0x17\n        /* \"WandInstruments.sol\":8073:8105  circulatingSupplyXDays[dInArray] */\n      0x00\n        /* \"WandInstruments.sol\":8096:8104  dInArray */\n      dup4\n        /* \"WandInstruments.sol\":8073:8105  circulatingSupplyXDays[dInArray] */\n      dup2\n      mstore\n      0x20\n      add\n      swap1\n      dup2\n      mstore\n      0x20\n      add\n      0x00\n      keccak256\n      0x00\n        /* \"WandInstruments.sol\":8073:8123  circulatingSupplyXDays[dInArray] += amountSCPtoBuy */\n      dup3\n      dup3\n      sload\n      tag_373\n      swap2\n      swap1\n      tag_233\n      jump\t// in\n    tag_373:\n      swap3\n      pop\n      pop\n      dup2\n      swap1\n      sstore\n      pop\n        /* \"WandInstruments.sol\":8156:8166  msg.sender */\n      caller\n        /* \"WandInstruments.sol\":8141:8183  sceptersBought(msg.sender, amountSCPtoBuy) */\n      0xffffffffffffffffffffffffffffffffffffffff\n      and\n      0xf633443b01504d269657083d48bb6de98e089cfff672b47fefbed21608b5c779\n        /* \"WandInstruments.sol\":8168:8182  amountSCPtoBuy */\n      dup7\n        /* \"WandInstruments.sol\":8141:8183  sceptersBought(msg.sender, amountSCPtoBuy) */\n      mload(0x40)\n      tag_374\n      swap2\n      swap1\n      tag_52\n      jump\t// in\n    tag_374:\n      mload(0x40)\n      dup1\n      swap2\n      sub\n      swap1\n      log2\n        /* \"WandInstruments.sol\":7067:8191  {\r... */\n      pop\n      pop\n      pop\n        /* \"WandInstruments.sol\":6987:8191  function buyScepter(uint256 amountSCPtoBuy, string memory _stableChosen) public {\r... */\n      pop\n      pop\n      jump\t// out\n        /* \"WandInstruments.sol\":8628:9533  function getGrowthFactor() external view returns (uint256){\r... */\n    tag_162:\n        /* \"WandInstruments.sol\":8678:8685  uint256 */\n      0x00\n        /* \"WandInstruments.sol\":8830:8841  uint256 _gF */\n      dup1\n        /* \"WandInstruments.sol\":8852:8875  uint256 xDaysCircSupply */\n      0x00\n        /* \"WandInstruments.sol\":8886:8901  uint256 numdays */\n      dup1\n        /* \"WandInstruments.sol\":8922:8927  86400 */\n      0x015180\n        /* \"WandInstruments.sol\":8904:8921  daysInCalculation */\n      sload(0x0c)\n        /* \"WandInstruments.sol\":8904:8927  daysInCalculation/86400 */\n      tag_376\n      swap2\n      swap1\n      tag_236\n      jump\t// in\n    tag_376:\n        /* \"WandInstruments.sol\":8886:8927  uint256 numdays = daysInCalculation/86400 */\n      swap1\n      pop\n        /* \"WandInstruments.sol\":8938:8962  uint256 daySinceLaunched */\n      0x00\n        /* \"WandInstruments.sol\":9000:9005  86400 */\n      0x015180\n        /* \"WandInstruments.sol\":8984:8996  timeLaunched */\n      sload(0x0b)\n        /* \"WandInstruments.sol\":8966:8981  block.timestamp */\n      timestamp\n        /* \"WandInstruments.sol\":8966:8996  block.timestamp - timeLaunched */\n      tag_377\n      swap2\n      swap1\n      tag_238\n      jump\t// in\n    tag_377:\n        /* \"WandInstruments.sol\":8965:9005  (block.timestamp - timeLaunched) / 86400 */\n      tag_378\n      swap2\n      swap1\n      tag_236\n      jump\t// in\n    tag_378:\n        /* \"WandInstruments.sol\":8938:9005  uint256 daySinceLaunched = (block.timestamp - timeLaunched) / 86400 */\n      swap1\n      pop\n        /* \"WandInstruments.sol\":9016:9025  uint256 d */\n      0x00\n        /* \"WandInstruments.sol\":9070:9071  0 */\n      dup1\n        /* \"WandInstruments.sol\":9050:9066  daySinceLaunched */\n      dup3\n        /* \"WandInstruments.sol\":9050:9071  daySinceLaunched == 0 */\n      eq\n        /* \"WandInstruments.sol\":9046:9338  if (daySinceLaunched == 0) {\r... */\n      iszero\n      tag_379\n      jumpi\n        /* \"WandInstruments.sol\":9102:9124  circulatingSupplyXDays */\n      0x17\n        /* \"WandInstruments.sol\":9102:9127  circulatingSupplyXDays[0] */\n      0x00\n        /* \"WandInstruments.sol\":9125:9126  0 */\n      dup1\n        /* \"WandInstruments.sol\":9102:9127  circulatingSupplyXDays[0] */\n      dup2\n      mstore\n      0x20\n      add\n      swap1\n      dup2\n      mstore\n      0x20\n      add\n      0x00\n      keccak256\n      sload\n        /* \"WandInstruments.sol\":9084:9127  xDaysCircSupply = circulatingSupplyXDays[0] */\n      swap4\n      pop\n        /* \"WandInstruments.sol\":9046:9338  if (daySinceLaunched == 0) {\r... */\n      jump(tag_380)\n    tag_379:\n        /* \"WandInstruments.sol\":9196:9203  numdays */\n      dup3\n        /* \"WandInstruments.sol\":9177:9193  daySinceLaunched */\n      dup3\n        /* \"WandInstruments.sol\":9177:9203  daySinceLaunched - numdays */\n      tag_384\n      swap2\n      swap1\n      tag_238\n      jump\t// in\n    tag_384:\n        /* \"WandInstruments.sol\":9173:9203  d = daySinceLaunched - numdays */\n      swap1\n      pop\n        /* \"WandInstruments.sol\":9168:9327  for (d = daySinceLaunched - numdays; d < daySinceLaunched; d++) {  //for loop example\r... */\n    tag_381:\n        /* \"WandInstruments.sol\":9209:9225  daySinceLaunched */\n      dup2\n        /* \"WandInstruments.sol\":9205:9206  d */\n      dup2\n        /* \"WandInstruments.sol\":9205:9225  d < daySinceLaunched */\n      lt\n        /* \"WandInstruments.sol\":9168:9327  for (d = daySinceLaunched - numdays; d < daySinceLaunched; d++) {  //for loop example\r... */\n      iszero\n      tag_382\n      jumpi\n        /* \"WandInstruments.sol\":9286:9308  circulatingSupplyXDays */\n      0x17\n        /* \"WandInstruments.sol\":9286:9311  circulatingSupplyXDays[d] */\n      0x00\n        /* \"WandInstruments.sol\":9309:9310  d */\n      dup3\n        /* \"WandInstruments.sol\":9286:9311  circulatingSupplyXDays[d] */\n      dup2\n      mstore\n      0x20\n      add\n      swap1\n      dup2\n      mstore\n      0x20\n      add\n      0x00\n      keccak256\n      sload\n        /* \"WandInstruments.sol\":9267:9311  xDaysCircSupply += circulatingSupplyXDays[d] */\n      dup5\n      tag_385\n      swap2\n      swap1\n      tag_233\n      jump\t// in\n    tag_385:\n      swap4\n      pop\n        /* \"WandInstruments.sol\":9227:9230  d++ */\n      dup1\n      dup1\n      tag_386\n      swap1\n      tag_248\n      jump\t// in\n    tag_386:\n      swap2\n      pop\n      pop\n        /* \"WandInstruments.sol\":9168:9327  for (d = daySinceLaunched - numdays; d < daySinceLaunched; d++) {  //for loop example\r... */\n      jump(tag_381)\n    tag_382:\n        /* \"WandInstruments.sol\":9046:9338  if (daySinceLaunched == 0) {\r... */\n    tag_380:\n        /* \"WandInstruments.sol\":9353:9406  decDiv18(this.getTokensBoughtXDays(),xDaysCircSupply) */\n      tag_387\n        /* \"WandInstruments.sol\":9362:9366  this */\n      address\n        /* \"WandInstruments.sol\":9362:9387  this.getTokensBoughtXDays */\n      0xffffffffffffffffffffffffffffffffffffffff\n      and\n      0x71cd58f9\n        /* \"WandInstruments.sol\":9362:9389  this.getTokensBoughtXDays() */\n      mload(0x40)\n      dup2\n      0xffffffff\n      and\n      0xe0\n      shl\n      dup2\n      mstore\n      0x04\n      add\n      0x20\n      mload(0x40)\n      dup1\n      dup4\n      sub\n      dup2\n      dup7\n      dup1\n      extcodesize\n      iszero\n      dup1\n      iszero\n      tag_388\n      jumpi\n      0x00\n      dup1\n      revert\n    tag_388:\n      pop\n      gas\n      staticcall\n      iszero\n      dup1\n      iszero\n      tag_390\n      jumpi\n      returndatasize\n      0x00\n      dup1\n      returndatacopy\n      revert(0x00, returndatasize)\n    tag_390:\n      pop\n      pop\n      pop\n      pop\n      mload(0x40)\n      returndatasize\n      not(0x1f)\n      0x1f\n      dup3\n      add\n      and\n      dup3\n      add\n      dup1\n      0x40\n      mstore\n      pop\n      dup2\n      add\n      swap1\n      tag_391\n      swap2\n      swap1\n      tag_227\n      jump\t// in\n    tag_391:\n        /* \"WandInstruments.sol\":9390:9405  xDaysCircSupply */\n      dup6\n        /* \"WandInstruments.sol\":9353:9361  decDiv18 */\n      tag_127\n        /* \"WandInstruments.sol\":9353:9406  decDiv18(this.getTokensBoughtXDays(),xDaysCircSupply) */\n      jump\t// in\n    tag_387:\n        /* \"WandInstruments.sol\":9347:9406  _gF = decDiv18(this.getTokensBoughtXDays(),xDaysCircSupply) */\n      swap5\n      pop\n        /* \"WandInstruments.sol\":9426:9445  1200000000000000000 */\n      0x10a741a462780000\n        /* \"WandInstruments.sol\":9420:9423  _gF */\n      dup6\n        /* \"WandInstruments.sol\":9420:9445  _gF > 1200000000000000000 */\n      gt\n        /* \"WandInstruments.sol\":9416:9505  if (_gF > 1200000000000000000)\r... */\n      iszero\n      tag_392\n      jumpi\n        /* \"WandInstruments.sol\":9475:9494  1200000000000000000 */\n      0x10a741a462780000\n        /* \"WandInstruments.sol\":9469:9494  _gF = 1200000000000000000 */\n      swap5\n      pop\n        /* \"WandInstruments.sol\":9416:9505  if (_gF > 1200000000000000000)\r... */\n    tag_392:\n        /* \"WandInstruments.sol\":9521:9524  _gF */\n      dup5\n        /* \"WandInstruments.sol\":9514:9524  return _gF */\n      swap6\n      pop\n      pop\n      pop\n      pop\n      pop\n      pop\n        /* \"WandInstruments.sol\":8628:9533  function getGrowthFactor() external view returns (uint256){\r... */\n      swap1\n      jump\t// out\n        /* \"WandInstruments.sol\":13494:13583  function whitelist(address _addr) public onlyOwner {  \r... */\n    tag_167:\n      pop\n      jump\t// out\n        /* \"WandInstruments.sol\":1773:1834  mapping (string => stableTokensParams) public stableERC20Info */\n    tag_172:\n      0x18\n      dup2\n      dup1\n      mload\n      0x20\n      dup2\n      add\n      dup3\n      add\n      dup1\n      mload\n      dup5\n      dup3\n      mstore\n      0x20\n      dup4\n      add\n      0x20\n      dup6\n      add\n      keccak256\n      dup2\n      dup4\n      mstore\n      dup1\n      swap6\n      pop\n      pop\n      pop\n      pop\n      pop\n      pop\n      0x00\n      swap2\n      pop\n      swap1\n      pop\n      dup1\n      0x00\n      add\n      0x00\n      swap1\n      sload\n      swap1\n      0x0100\n      exp\n      swap1\n      div\n      0xffffffffffffffffffffffffffffffffffffffff\n      and\n      swap1\n      dup1\n      0x01\n      add\n      sload\n      swap1\n      pop\n      dup3\n      jump\t// out\n        /* \"WandInstruments.sol\":8199:8595  function claimLockedUSDC(address _claimant) public {\r... */\n    tag_178:\n        /* \"WandInstruments.sol\":8289:8308  withheldWithdrawals */\n      0x19\n        /* \"WandInstruments.sol\":8289:8319  withheldWithdrawals[_claimant] */\n      0x00\n        /* \"WandInstruments.sol\":8309:8318  _claimant */\n      dup3\n        /* \"WandInstruments.sol\":8289:8319  withheldWithdrawals[_claimant] */\n      0xffffffffffffffffffffffffffffffffffffffff\n      and\n      0xffffffffffffffffffffffffffffffffffffffff\n      and\n      dup2\n      mstore\n      0x20\n      add\n      swap1\n      dup2\n      mstore\n      0x20\n      add\n      0x00\n      keccak256\n        /* \"WandInstruments.sol\":8289:8332  withheldWithdrawals[_claimant].timeUnlocked */\n      0x00\n      add\n      sload\n        /* \"WandInstruments.sol\":8270:8285  block.timestamp */\n      timestamp\n        /* \"WandInstruments.sol\":8270:8332  block.timestamp >= withheldWithdrawals[_claimant].timeUnlocked */\n      lt\n      iszero\n        /* \"WandInstruments.sol\":8261:8349  require (block.timestamp >= withheldWithdrawals[_claimant].timeUnlocked, \"Not unlocked\") */\n      tag_396\n      jumpi\n      mload(0x40)\n      0x08c379a000000000000000000000000000000000000000000000000000000000\n      dup2\n      mstore\n      0x04\n      add\n      tag_397\n      swap1\n      tag_398\n      jump\t// in\n    tag_397:\n      mload(0x40)\n      dup1\n      swap2\n      sub\n      swap1\n      revert\n    tag_396:\n        /* \"WandInstruments.sol\":8431:8448  uint256 claimAmts */\n      0x00\n        /* \"WandInstruments.sol\":8471:8490  withheldWithdrawals */\n      0x19\n        /* \"WandInstruments.sol\":8471:8501  withheldWithdrawals[_claimant] */\n      0x00\n        /* \"WandInstruments.sol\":8491:8500  _claimant */\n      dup4\n        /* \"WandInstruments.sol\":8471:8501  withheldWithdrawals[_claimant] */\n      0xffffffffffffffffffffffffffffffffffffffff\n      and\n      0xffffffffffffffffffffffffffffffffffffffff\n      and\n      dup2\n      mstore\n      0x20\n      add\n      swap1\n      dup2\n      mstore\n      0x20\n      add\n      0x00\n      keccak256\n        /* \"WandInstruments.sol\":8471:8509  withheldWithdrawals[_claimant].amounts */\n      0x01\n      add\n      sload\n        /* \"WandInstruments.sol\":8459:8509  claimAmts = withheldWithdrawals[_claimant].amounts */\n      swap1\n      pop\n        /* \"WandInstruments.sol\":8520:8585  _safeTransferFrom(mockUSDC, address(this), msg.sender, claimAmts) */\n      tag_399\n        /* \"WandInstruments.sol\":8538:8546  mockUSDC */\n      0x13\n      0x00\n      swap1\n      sload\n      swap1\n      0x0100\n      exp\n      swap1\n      div\n      0xffffffffffffffffffffffffffffffffffffffff\n      and\n        /* \"WandInstruments.sol\":8556:8560  this */\n      address\n        /* \"WandInstruments.sol\":8563:8573  msg.sender */\n      caller\n        /* \"WandInstruments.sol\":8575:8584  claimAmts */\n      dup5\n        /* \"WandInstruments.sol\":8520:8537  _safeTransferFrom */\n      tag_272\n        /* \"WandInstruments.sol\":8520:8585  _safeTransferFrom(mockUSDC, address(this), msg.sender, claimAmts) */\n      jump\t// in\n    tag_399:\n        /* \"WandInstruments.sol\":8250:8595  {\r... */\n      pop\n        /* \"WandInstruments.sol\":8199:8595  function claimLockedUSDC(address _claimant) public {\r... */\n      pop\n      jump\t// out\n        /* \"WandInstruments.sol\":581:615  address public scepterTreasuryAddr */\n    tag_181:\n      0x07\n      0x00\n      swap1\n      sload\n      swap1\n      0x0100\n      exp\n      swap1\n      div\n      0xffffffffffffffffffffffffffffffffffffffff\n      and\n      dup2\n      jump\t// out\n        /* \"WandInstruments.sol\":332:357  uint256 public sellFactor */\n    tag_185:\n      sload(0x01)\n      dup2\n      jump\t// out\n        /* \"WandInstruments.sol\":13125:13411  function getTokensSoldXDays() external view returns (uint256){\r... */\n    tag_189:\n        /* \"WandInstruments.sol\":13178:13185  uint256 */\n      0x00\n        /* \"WandInstruments.sol\":13197:13212  uint256 soldNum */\n      dup1\n        /* \"WandInstruments.sol\":13223:13232  uint256 d */\n      0x00\n        /* \"WandInstruments.sol\":13243:13258  uint256 numdays */\n      dup1\n        /* \"WandInstruments.sol\":13279:13284  86400 */\n      0x015180\n        /* \"WandInstruments.sol\":13261:13278  daysInCalculation */\n      sload(0x0c)\n        /* \"WandInstruments.sol\":13261:13284  daysInCalculation/86400 */\n      tag_401\n      swap2\n      swap1\n      tag_236\n      jump\t// in\n    tag_401:\n        /* \"WandInstruments.sol\":13243:13284  uint256 numdays = daysInCalculation/86400 */\n      swap1\n      pop\n        /* \"WandInstruments.sol\":13306:13307  0 */\n      0x00\n        /* \"WandInstruments.sol\":13302:13307  d = 0 */\n      swap2\n      pop\n        /* \"WandInstruments.sol\":13297:13380  for (d = 0; d < numdays; d++) { \r... */\n    tag_402:\n        /* \"WandInstruments.sol\":13313:13320  numdays */\n      dup1\n        /* \"WandInstruments.sol\":13309:13310  d */\n      dup3\n        /* \"WandInstruments.sol\":13309:13320  d < numdays */\n      lt\n        /* \"WandInstruments.sol\":13297:13380  for (d = 0; d < numdays; d++) { \r... */\n      iszero\n      tag_403\n      jumpi\n        /* \"WandInstruments.sol\":13352:13367  tokensSoldXDays */\n      0x16\n        /* \"WandInstruments.sol\":13352:13370  tokensSoldXDays[d] */\n      0x00\n        /* \"WandInstruments.sol\":13368:13369  d */\n      dup4\n        /* \"WandInstruments.sol\":13352:13370  tokensSoldXDays[d] */\n      dup2\n      mstore\n      0x20\n      add\n      swap1\n      dup2\n      mstore\n      0x20\n      add\n      0x00\n      keccak256\n      sload\n        /* \"WandInstruments.sol\":13341:13370  soldNum += tokensSoldXDays[d] */\n      dup4\n      tag_405\n      swap2\n      swap1\n      tag_233\n      jump\t// in\n    tag_405:\n      swap3\n      pop\n        /* \"WandInstruments.sol\":13322:13325  d++ */\n      dup2\n      dup1\n      tag_406\n      swap1\n      tag_248\n      jump\t// in\n    tag_406:\n      swap3\n      pop\n      pop\n        /* \"WandInstruments.sol\":13297:13380  for (d = 0; d < numdays; d++) { \r... */\n      jump(tag_402)\n    tag_403:\n        /* \"WandInstruments.sol\":13396:13403  soldNum */\n      dup3\n        /* \"WandInstruments.sol\":13389:13403  return soldNum */\n      swap4\n      pop\n      pop\n      pop\n      pop\n        /* \"WandInstruments.sol\":13125:13411  function getTokensSoldXDays() external view returns (uint256){\r... */\n      swap1\n      jump\t// out\n        /* \"WandInstruments.sol\":13591:13810  function addStable(string memory _ticker, address _addr, uint256 _dec) public onlyOwner {\r... */\n    tag_195:\n        /* \"WandInstruments.sol\":13739:13744  _addr */\n      dup2\n        /* \"WandInstruments.sol\":13696:13711  stableERC20Info */\n      0x18\n        /* \"WandInstruments.sol\":13712:13719  _ticker */\n      dup5\n        /* \"WandInstruments.sol\":13696:13720  stableERC20Info[_ticker] */\n      mload(0x40)\n      tag_409\n      swap2\n      swap1\n      tag_356\n      jump\t// in\n    tag_409:\n      swap1\n      dup2\n      mstore\n      0x20\n      add\n      mload(0x40)\n      dup1\n      swap2\n      sub\n      swap1\n      keccak256\n        /* \"WandInstruments.sol\":13696:13736  stableERC20Info[_ticker].contractAddress */\n      0x00\n      add\n      0x00\n        /* \"WandInstruments.sol\":13696:13744  stableERC20Info[_ticker].contractAddress = _addr */\n      0x0100\n      exp\n      dup2\n      sload\n      dup2\n      0xffffffffffffffffffffffffffffffffffffffff\n      mul\n      not\n      and\n      swap1\n      dup4\n      0xffffffffffffffffffffffffffffffffffffffff\n      and\n      mul\n      or\n      swap1\n      sstore\n      pop\n        /* \"WandInstruments.sol\":13796:13800  _dec */\n      dup1\n        /* \"WandInstruments.sol\":13755:13770  stableERC20Info */\n      0x18\n        /* \"WandInstruments.sol\":13771:13778  _ticker */\n      dup5\n        /* \"WandInstruments.sol\":13755:13779  stableERC20Info[_ticker] */\n      mload(0x40)\n      tag_410\n      swap2\n      swap1\n      tag_356\n      jump\t// in\n    tag_410:\n      swap1\n      dup2\n      mstore\n      0x20\n      add\n      mload(0x40)\n      dup1\n      swap2\n      sub\n      swap1\n      keccak256\n        /* \"WandInstruments.sol\":13755:13793  stableERC20Info[_ticker].tokenDecimals */\n      0x01\n      add\n        /* \"WandInstruments.sol\":13755:13800  stableERC20Info[_ticker].tokenDecimals = _dec */\n      dup2\n      swap1\n      sstore\n      pop\n        /* \"WandInstruments.sol\":13591:13810  function addStable(string memory _ticker, address _addr, uint256 _dec) public onlyOwner {\r... */\n      pop\n      pop\n      pop\n      jump\t// out\n        /* \"WandInstruments.sol\":1357:1379  IERC20 public mockUSDC */\n    tag_198:\n      0x13\n      0x00\n      swap1\n      sload\n      swap1\n      0x0100\n      exp\n      swap1\n      div\n      0xffffffffffffffffffffffffffffffffffffffff\n      and\n      dup2\n      jump\t// out\n        /* \"WandInstruments.sol\":298:325  uint256 public growthFactor */\n    tag_202:\n      sload(0x00)\n      dup2\n      jump\t// out\n        /* \"WandInstruments.sol\":1113:1183  address public testwallet = 0x617F2E2fD72FD9D5503197092aC168c91465E7f2 */\n    tag_206:\n      0x11\n      0x00\n      swap1\n      sload\n      swap1\n      0x0100\n      exp\n      swap1\n      div\n      0xffffffffffffffffffffffffffffffffffffffff\n      and\n      dup2\n      jump\t// out\n        /* \"WandInstruments.sol\":3892:4062  function decMul18(uint x, uint y) public pure returns (uint decProd) {\r... */\n    tag_211:\n        /* \"WandInstruments.sol\":3947:3959  uint decProd */\n      0x00\n        /* \"WandInstruments.sol\":3972:3984  uint prod_xy */\n      dup1\n        /* \"WandInstruments.sol\":3987:3996  mul(x, y) */\n      tag_412\n        /* \"WandInstruments.sol\":3991:3992  x */\n      dup5\n        /* \"WandInstruments.sol\":3994:3995  y */\n      dup5\n        /* \"WandInstruments.sol\":3987:3990  mul */\n      tag_325\n        /* \"WandInstruments.sol\":3987:3996  mul(x, y) */\n      jump\t// in\n    tag_412:\n        /* \"WandInstruments.sol\":3972:3996  uint prod_xy = mul(x, y) */\n      swap1\n      pop\n        /* \"WandInstruments.sol\":283:289  10**18 */\n      0x0de0b6b3a7640000\n        /* \"WandInstruments.sol\":4017:4043  add(prod_xy, DECIMALS / 2) */\n      tag_413\n        /* \"WandInstruments.sol\":4021:4028  prod_xy */\n      dup3\n        /* \"WandInstruments.sol\":4041:4042  2 */\n      0x02\n        /* \"WandInstruments.sol\":283:289  10**18 */\n      0x0de0b6b3a7640000\n        /* \"WandInstruments.sol\":4030:4042  DECIMALS / 2 */\n      tag_414\n      swap2\n      swap1\n      tag_236\n      jump\t// in\n    tag_414:\n        /* \"WandInstruments.sol\":4017:4020  add */\n      tag_328\n        /* \"WandInstruments.sol\":4017:4043  add(prod_xy, DECIMALS / 2) */\n      jump\t// in\n    tag_413:\n        /* \"WandInstruments.sol\":4017:4054  add(prod_xy, DECIMALS / 2) / DECIMALS */\n      tag_415\n      swap2\n      swap1\n      tag_236\n      jump\t// in\n    tag_415:\n        /* \"WandInstruments.sol\":4007:4054  decProd = add(prod_xy, DECIMALS / 2) / DECIMALS */\n      swap2\n      pop\n        /* \"WandInstruments.sol\":3961:4062  {\r... */\n      pop\n        /* \"WandInstruments.sol\":3892:4062  function decMul18(uint x, uint y) public pure returns (uint decProd) {\r... */\n      swap3\n      swap2\n      pop\n      pop\n      jump\t// out\n        /* \"WandInstruments.sol\":546:574  address public treasury1Addr */\n    tag_215:\n      0x06\n      0x00\n      swap1\n      sload\n      swap1\n      0x0100\n      exp\n      swap1\n      div\n      0xffffffffffffffffffffffffffffffffffffffff\n      and\n      dup2\n      jump\t// out\n        /* \"WandInstruments.sol\":11242:11398  function setDaysUsedInFactors(uint256 numDays) public {  \r... */\n    tag_220:\n        /* \"WandInstruments.sol\":11375:11380  86400 */\n      0x015180\n        /* \"WandInstruments.sol\":11365:11372  numDays */\n      dup2\n        /* \"WandInstruments.sol\":11365:11380  numDays * 86400 */\n      tag_417\n      swap2\n      swap1\n      tag_305\n      jump\t// in\n    tag_417:\n        /* \"WandInstruments.sol\":11345:11362  daysInCalculation */\n      0x0c\n        /* \"WandInstruments.sol\":11345:11380  daysInCalculation = numDays * 86400 */\n      dup2\n      swap1\n      sstore\n      pop\n        /* \"WandInstruments.sol\":11242:11398  function setDaysUsedInFactors(uint256 numDays) public {  \r... */\n      pop\n      jump\t// out\n        /* \"WandInstruments.sol\":13822:14084  function _safeTransferFrom(\r... */\n    tag_272:\n        /* \"WandInstruments.sol\":13970:13979  bool sent */\n      0x00\n        /* \"WandInstruments.sol\":13982:13987  token */\n      dup5\n        /* \"WandInstruments.sol\":13982:14000  token.transferFrom */\n      0xffffffffffffffffffffffffffffffffffffffff\n      and\n      0x23b872dd\n        /* \"WandInstruments.sol\":14001:14007  sender */\n      dup6\n        /* \"WandInstruments.sol\":14009:14018  recipient */\n      dup6\n        /* \"WandInstruments.sol\":14020:14026  amount */\n      dup6\n        /* \"WandInstruments.sol\":13982:14027  token.transferFrom(sender, recipient, amount) */\n      mload(0x40)\n      dup5\n      0xffffffff\n      and\n      0xe0\n      shl\n      dup2\n      mstore\n      0x04\n      add\n      tag_419\n      swap4\n      swap3\n      swap2\n      swap1\n      tag_420\n      jump\t// in\n    tag_419:\n      0x20\n      mload(0x40)\n      dup1\n      dup4\n      sub\n      dup2\n      0x00\n      dup8\n      dup1\n      extcodesize\n      iszero\n      dup1\n      iszero\n      tag_421\n      jumpi\n      0x00\n      dup1\n      revert\n    tag_421:\n      pop\n      gas\n      call\n      iszero\n      dup1\n      iszero\n      tag_423\n      jumpi\n      returndatasize\n      0x00\n      dup1\n      returndatacopy\n      revert(0x00, returndatasize)\n    tag_423:\n      pop\n      pop\n      pop\n      pop\n      mload(0x40)\n      returndatasize\n      not(0x1f)\n      0x1f\n      dup3\n      add\n      and\n      dup3\n      add\n      dup1\n      0x40\n      mstore\n      pop\n      dup2\n      add\n      swap1\n      tag_424\n      swap2\n      swap1\n      tag_312\n      jump\t// in\n    tag_424:\n        /* \"WandInstruments.sol\":13970:14027  bool sent = token.transferFrom(sender, recipient, amount) */\n      swap1\n      pop\n        /* \"WandInstruments.sol\":14046:14050  sent */\n      dup1\n        /* \"WandInstruments.sol\":14038:14076  require(sent, \"Token transfer failed\") */\n      tag_425\n      jumpi\n      mload(0x40)\n      0x08c379a000000000000000000000000000000000000000000000000000000000\n      dup2\n      mstore\n      0x04\n      add\n      tag_426\n      swap1\n      tag_427\n      jump\t// in\n    tag_426:\n      mload(0x40)\n      dup1\n      swap2\n      sub\n      swap1\n      revert\n    tag_425:\n        /* \"WandInstruments.sol\":13959:14084  {\r... */\n      pop\n        /* \"WandInstruments.sol\":13822:14084  function _safeTransferFrom(\r... */\n      pop\n      pop\n      pop\n      pop\n      jump\t// out\n        /* \"WandInstruments.sol\":3077:3319  function mul(uint256 a, uint256 b) internal pure returns (uint256) {\r... */\n    tag_325:\n        /* \"WandInstruments.sol\":3135:3142  uint256 */\n      0x00\n        /* \"WandInstruments.sol\":3164:3165  0 */\n      dup1\n        /* \"WandInstruments.sol\":3159:3160  a */\n      dup4\n        /* \"WandInstruments.sol\":3159:3165  a == 0 */\n      eq\n        /* \"WandInstruments.sol\":3155:3198  if (a == 0) {\r... */\n      iszero\n      tag_429\n      jumpi\n        /* \"WandInstruments.sol\":3185:3186  0 */\n      0x00\n        /* \"WandInstruments.sol\":3178:3186  return 0 */\n      swap1\n      pop\n      jump(tag_428)\n        /* \"WandInstruments.sol\":3155:3198  if (a == 0) {\r... */\n    tag_429:\n        /* \"WandInstruments.sol\":3208:3217  uint256 c */\n      0x00\n        /* \"WandInstruments.sol\":3224:3225  b */\n      dup3\n        /* \"WandInstruments.sol\":3220:3221  a */\n      dup5\n        /* \"WandInstruments.sol\":3220:3225  a * b */\n      tag_430\n      swap2\n      swap1\n      tag_305\n      jump\t// in\n    tag_430:\n        /* \"WandInstruments.sol\":3208:3225  uint256 c = a * b */\n      swap1\n      pop\n        /* \"WandInstruments.sol\":3253:3254  b */\n      dup3\n        /* \"WandInstruments.sol\":3248:3249  a */\n      dup5\n        /* \"WandInstruments.sol\":3244:3245  c */\n      dup3\n        /* \"WandInstruments.sol\":3244:3249  c / a */\n      tag_431\n      swap2\n      swap1\n      tag_236\n      jump\t// in\n    tag_431:\n        /* \"WandInstruments.sol\":3244:3254  c / a == b */\n      eq\n        /* \"WandInstruments.sol\":3236:3292  require(c / a == b, \"uint overflow from multiplication\") */\n      tag_432\n      jumpi\n      mload(0x40)\n      0x08c379a000000000000000000000000000000000000000000000000000000000\n      dup2\n      mstore\n      0x04\n      add\n      tag_433\n      swap1\n      tag_434\n      jump\t// in\n    tag_433:\n      mload(0x40)\n      dup1\n      swap2\n      sub\n      swap1\n      revert\n    tag_432:\n        /* \"WandInstruments.sol\":3310:3311  c */\n      dup1\n        /* \"WandInstruments.sol\":3303:3311  return c */\n      swap2\n      pop\n      pop\n        /* \"WandInstruments.sol\":3077:3319  function mul(uint256 a, uint256 b) internal pure returns (uint256) {\r... */\n    tag_428:\n      swap3\n      swap2\n      pop\n      pop\n      jump\t// out\n        /* \"WandInstruments.sol\":3695:3880  function add(uint256 a, uint256 b) internal pure returns (uint256) {\r... */\n    tag_328:\n        /* \"WandInstruments.sol\":3753:3760  uint256 */\n      0x00\n        /* \"WandInstruments.sol\":3773:3782  uint256 c */\n      dup1\n        /* \"WandInstruments.sol\":3789:3790  b */\n      dup3\n        /* \"WandInstruments.sol\":3785:3786  a */\n      dup5\n        /* \"WandInstruments.sol\":3785:3790  a + b */\n      tag_436\n      swap2\n      swap1\n      tag_233\n      jump\t// in\n    tag_436:\n        /* \"WandInstruments.sol\":3773:3790  uint256 c = a + b */\n      swap1\n      pop\n        /* \"WandInstruments.sol\":3814:3815  a */\n      dup4\n        /* \"WandInstruments.sol\":3809:3810  c */\n      dup2\n        /* \"WandInstruments.sol\":3809:3815  c >= a */\n      lt\n      iszero\n        /* \"WandInstruments.sol\":3801:3853  require(c >= a, \"uint overflow from multiplication\") */\n      tag_437\n      jumpi\n      mload(0x40)\n      0x08c379a000000000000000000000000000000000000000000000000000000000\n      dup2\n      mstore\n      0x04\n      add\n      tag_438\n      swap1\n      tag_434\n      jump\t// in\n    tag_438:\n      mload(0x40)\n      dup1\n      swap2\n      sub\n      swap1\n      revert\n    tag_437:\n        /* \"WandInstruments.sol\":3871:3872  c */\n      dup1\n        /* \"WandInstruments.sol\":3864:3872  return c */\n      swap2\n      pop\n      pop\n        /* \"WandInstruments.sol\":3695:3880  function add(uint256 a, uint256 b) internal pure returns (uint256) {\r... */\n      swap3\n      swap2\n      pop\n      pop\n      jump\t// out\n        /* \"#utility.yul\":7:419   */\n    tag_440:\n        /* \"#utility.yul\":85:90   */\n      0x00\n        /* \"#utility.yul\":110:176   */\n      tag_442\n        /* \"#utility.yul\":126:175   */\n      tag_443\n        /* \"#utility.yul\":168:174   */\n      dup5\n        /* \"#utility.yul\":126:175   */\n      tag_444\n      jump\t// in\n    tag_443:\n        /* \"#utility.yul\":110:176   */\n      tag_445\n      jump\t// in\n    tag_442:\n        /* \"#utility.yul\":101:176   */\n      swap1\n      pop\n        /* \"#utility.yul\":199:205   */\n      dup3\n        /* \"#utility.yul\":192:197   */\n      dup2\n        /* \"#utility.yul\":185:206   */\n      mstore\n        /* \"#utility.yul\":237:241   */\n      0x20\n        /* \"#utility.yul\":230:235   */\n      dup2\n        /* \"#utility.yul\":226:242   */\n      add\n        /* \"#utility.yul\":275:278   */\n      dup5\n        /* \"#utility.yul\":266:272   */\n      dup5\n        /* \"#utility.yul\":261:264   */\n      dup5\n        /* \"#utility.yul\":257:273   */\n      add\n        /* \"#utility.yul\":254:279   */\n      gt\n        /* \"#utility.yul\":251:363   */\n      iszero\n      tag_446\n      jumpi\n        /* \"#utility.yul\":282:361   */\n      tag_447\n      tag_448\n      jump\t// in\n    tag_447:\n        /* \"#utility.yul\":251:363   */\n    tag_446:\n        /* \"#utility.yul\":372:413   */\n      tag_449\n        /* \"#utility.yul\":406:412   */\n      dup5\n        /* \"#utility.yul\":401:404   */\n      dup3\n        /* \"#utility.yul\":396:399   */\n      dup6\n        /* \"#utility.yul\":372:413   */\n      tag_450\n      jump\t// in\n    tag_449:\n        /* \"#utility.yul\":91:419   */\n      pop\n        /* \"#utility.yul\":7:419   */\n      swap4\n      swap3\n      pop\n      pop\n      pop\n      jump\t// out\n        /* \"#utility.yul\":425:564   */\n    tag_451:\n        /* \"#utility.yul\":471:476   */\n      0x00\n        /* \"#utility.yul\":509:515   */\n      dup2\n        /* \"#utility.yul\":496:516   */\n      calldataload\n        /* \"#utility.yul\":487:516   */\n      swap1\n      pop\n        /* \"#utility.yul\":525:558   */\n      tag_453\n        /* \"#utility.yul\":552:557   */\n      dup2\n        /* \"#utility.yul\":525:558   */\n      tag_454\n      jump\t// in\n    tag_453:\n        /* \"#utility.yul\":425:564   */\n      swap3\n      swap2\n      pop\n      pop\n      jump\t// out\n        /* \"#utility.yul\":570:707   */\n    tag_455:\n        /* \"#utility.yul\":624:629   */\n      0x00\n        /* \"#utility.yul\":655:661   */\n      dup2\n        /* \"#utility.yul\":649:662   */\n      mload\n        /* \"#utility.yul\":640:662   */\n      swap1\n      pop\n        /* \"#utility.yul\":671:701   */\n      tag_457\n        /* \"#utility.yul\":695:700   */\n      dup2\n        /* \"#utility.yul\":671:701   */\n      tag_458\n      jump\t// in\n    tag_457:\n        /* \"#utility.yul\":570:707   */\n      swap3\n      swap2\n      pop\n      pop\n      jump\t// out\n        /* \"#utility.yul\":727:1067   */\n    tag_459:\n        /* \"#utility.yul\":783:788   */\n      0x00\n        /* \"#utility.yul\":832:835   */\n      dup3\n        /* \"#utility.yul\":825:829   */\n      0x1f\n        /* \"#utility.yul\":817:823   */\n      dup4\n        /* \"#utility.yul\":813:830   */\n      add\n        /* \"#utility.yul\":809:836   */\n      slt\n        /* \"#utility.yul\":799:921   */\n      tag_461\n      jumpi\n        /* \"#utility.yul\":840:919   */\n      tag_462\n      tag_463\n      jump\t// in\n    tag_462:\n        /* \"#utility.yul\":799:921   */\n    tag_461:\n        /* \"#utility.yul\":957:963   */\n      dup2\n        /* \"#utility.yul\":944:964   */\n      calldataload\n        /* \"#utility.yul\":982:1061   */\n      tag_464\n        /* \"#utility.yul\":1057:1060   */\n      dup5\n        /* \"#utility.yul\":1049:1055   */\n      dup3\n        /* \"#utility.yul\":1042:1046   */\n      0x20\n        /* \"#utility.yul\":1034:1040   */\n      dup7\n        /* \"#utility.yul\":1030:1047   */\n      add\n        /* \"#utility.yul\":982:1061   */\n      tag_440\n      jump\t// in\n    tag_464:\n        /* \"#utility.yul\":973:1061   */\n      swap2\n      pop\n        /* \"#utility.yul\":789:1067   */\n      pop\n        /* \"#utility.yul\":727:1067   */\n      swap3\n      swap2\n      pop\n      pop\n      jump\t// out\n        /* \"#utility.yul\":1073:1212   */\n    tag_465:\n        /* \"#utility.yul\":1119:1124   */\n      0x00\n        /* \"#utility.yul\":1157:1163   */\n      dup2\n        /* \"#utility.yul\":1144:1164   */\n      calldataload\n        /* \"#utility.yul\":1135:1164   */\n      swap1\n      pop\n        /* \"#utility.yul\":1173:1206   */\n      tag_467\n        /* \"#utility.yul\":1200:1205   */\n      dup2\n        /* \"#utility.yul\":1173:1206   */\n      tag_468\n      jump\t// in\n    tag_467:\n        /* \"#utility.yul\":1073:1212   */\n      swap3\n      swap2\n      pop\n      pop\n      jump\t// out\n        /* \"#utility.yul\":1218:1361   */\n    tag_469:\n        /* \"#utility.yul\":1275:1280   */\n      0x00\n        /* \"#utility.yul\":1306:1312   */\n      dup2\n        /* \"#utility.yul\":1300:1313   */\n      mload\n        /* \"#utility.yul\":1291:1313   */\n      swap1\n      pop\n        /* \"#utility.yul\":1322:1355   */\n      tag_471\n        /* \"#utility.yul\":1349:1354   */\n      dup2\n        /* \"#utility.yul\":1322:1355   */\n      tag_468\n      jump\t// in\n    tag_471:\n        /* \"#utility.yul\":1218:1361   */\n      swap3\n      swap2\n      pop\n      pop\n      jump\t// out\n        /* \"#utility.yul\":1367:1696   */\n    tag_69:\n        /* \"#utility.yul\":1426:1432   */\n      0x00\n        /* \"#utility.yul\":1475:1477   */\n      0x20\n        /* \"#utility.yul\":1463:1472   */\n      dup3\n        /* \"#utility.yul\":1454:1461   */\n      dup5\n        /* \"#utility.yul\":1450:1473   */\n      sub\n        /* \"#utility.yul\":1446:1478   */\n      slt\n        /* \"#utility.yul\":1443:1562   */\n      iszero\n      tag_473\n      jumpi\n        /* \"#utility.yul\":1481:1560   */\n      tag_474\n      tag_475\n      jump\t// in\n    tag_474:\n        /* \"#utility.yul\":1443:1562   */\n    tag_473:\n        /* \"#utility.yul\":1601:1602   */\n      0x00\n        /* \"#utility.yul\":1626:1679   */\n      tag_476\n        /* \"#utility.yul\":1671:1678   */\n      dup5\n        /* \"#utility.yul\":1662:1668   */\n      dup3\n        /* \"#utility.yul\":1651:1660   */\n      dup6\n        /* \"#utility.yul\":1647:1669   */\n      add\n        /* \"#utility.yul\":1626:1679   */\n      tag_451\n      jump\t// in\n    tag_476:\n        /* \"#utility.yul\":1616:1679   */\n      swap2\n      pop\n        /* \"#utility.yul\":1572:1689   */\n      pop\n        /* \"#utility.yul\":1367:1696   */\n      swap3\n      swap2\n      pop\n      pop\n      jump\t// out\n        /* \"#utility.yul\":1702:2047   */\n    tag_312:\n        /* \"#utility.yul\":1769:1775   */\n      0x00\n        /* \"#utility.yul\":1818:1820   */\n      0x20\n        /* \"#utility.yul\":1806:1815   */\n      dup3\n        /* \"#utility.yul\":1797:1804   */\n      dup5\n        /* \"#utility.yul\":1793:1816   */\n      sub\n        /* \"#utility.yul\":1789:1821   */\n      slt\n        /* \"#utility.yul\":1786:1905   */\n      iszero\n      tag_478\n      jumpi\n        /* \"#utility.yul\":1824:1903   */\n      tag_479\n      tag_475\n      jump\t// in\n    tag_479:\n        /* \"#utility.yul\":1786:1905   */\n    tag_478:\n        /* \"#utility.yul\":1944:1945   */\n      0x00\n        /* \"#utility.yul\":1969:2030   */\n      tag_480\n        /* \"#utility.yul\":2022:2029   */\n      dup5\n        /* \"#utility.yul\":2013:2019   */\n      dup3\n        /* \"#utility.yul\":2002:2011   */\n      dup6\n        /* \"#utility.yul\":1998:2020   */\n      add\n        /* \"#utility.yul\":1969:2030   */\n      tag_455\n      jump\t// in\n    tag_480:\n        /* \"#utility.yul\":1959:2030   */\n      swap2\n      pop\n        /* \"#utility.yul\":1915:2040   */\n      pop\n        /* \"#utility.yul\":1702:2047   */\n      swap3\n      swap2\n      pop\n      pop\n      jump\t// out\n        /* \"#utility.yul\":2053:2562   */\n    tag_171:\n        /* \"#utility.yul\":2122:2128   */\n      0x00\n        /* \"#utility.yul\":2171:2173   */\n      0x20\n        /* \"#utility.yul\":2159:2168   */\n      dup3\n        /* \"#utility.yul\":2150:2157   */\n      dup5\n        /* \"#utility.yul\":2146:2169   */\n      sub\n        /* \"#utility.yul\":2142:2174   */\n      slt\n        /* \"#utility.yul\":2139:2258   */\n      iszero\n      tag_482\n      jumpi\n        /* \"#utility.yul\":2177:2256   */\n      tag_483\n      tag_475\n      jump\t// in\n    tag_483:\n        /* \"#utility.yul\":2139:2258   */\n    tag_482:\n        /* \"#utility.yul\":2325:2326   */\n      0x00\n        /* \"#utility.yul\":2314:2323   */\n      dup3\n        /* \"#utility.yul\":2310:2327   */\n      add\n        /* \"#utility.yul\":2297:2328   */\n      calldataload\n        /* \"#utility.yul\":2355:2373   */\n      0xffffffffffffffff\n        /* \"#utility.yul\":2347:2353   */\n      dup2\n        /* \"#utility.yul\":2344:2374   */\n      gt\n        /* \"#utility.yul\":2341:2458   */\n      iszero\n      tag_484\n      jumpi\n        /* \"#utility.yul\":2377:2456   */\n      tag_485\n      tag_486\n      jump\t// in\n    tag_485:\n        /* \"#utility.yul\":2341:2458   */\n    tag_484:\n        /* \"#utility.yul\":2482:2545   */\n      tag_487\n        /* \"#utility.yul\":2537:2544   */\n      dup5\n        /* \"#utility.yul\":2528:2534   */\n      dup3\n        /* \"#utility.yul\":2517:2526   */\n      dup6\n        /* \"#utility.yul\":2513:2535   */\n      add\n        /* \"#utility.yul\":2482:2545   */\n      tag_459\n      jump\t// in\n    tag_487:\n        /* \"#utility.yul\":2472:2545   */\n      swap2\n      pop\n        /* \"#utility.yul\":2268:2555   */\n      pop\n        /* \"#utility.yul\":2053:2562   */\n      swap3\n      swap2\n      pop\n      pop\n      jump\t// out\n        /* \"#utility.yul\":2568:3367   */\n    tag_194:\n        /* \"#utility.yul\":2655:2661   */\n      0x00\n        /* \"#utility.yul\":2663:2669   */\n      dup1\n        /* \"#utility.yul\":2671:2677   */\n      0x00\n        /* \"#utility.yul\":2720:2722   */\n      0x60\n        /* \"#utility.yul\":2708:2717   */\n      dup5\n        /* \"#utility.yul\":2699:2706   */\n      dup7\n        /* \"#utility.yul\":2695:2718   */\n      sub\n        /* \"#utility.yul\":2691:2723   */\n      slt\n        /* \"#utility.yul\":2688:2807   */\n      iszero\n      tag_489\n      jumpi\n        /* \"#utility.yul\":2726:2805   */\n      tag_490\n      tag_475\n      jump\t// in\n    tag_490:\n        /* \"#utility.yul\":2688:2807   */\n    tag_489:\n        /* \"#utility.yul\":2874:2875   */\n      0x00\n        /* \"#utility.yul\":2863:2872   */\n      dup5\n        /* \"#utility.yul\":2859:2876   */\n      add\n        /* \"#utility.yul\":2846:2877   */\n      calldataload\n        /* \"#utility.yul\":2904:2922   */\n      0xffffffffffffffff\n        /* \"#utility.yul\":2896:2902   */\n      dup2\n        /* \"#utility.yul\":2893:2923   */\n      gt\n        /* \"#utility.yul\":2890:3007   */\n      iszero\n      tag_491\n      jumpi\n        /* \"#utility.yul\":2926:3005   */\n      tag_492\n      tag_486\n      jump\t// in\n    tag_492:\n        /* \"#utility.yul\":2890:3007   */\n    tag_491:\n        /* \"#utility.yul\":3031:3094   */\n      tag_493\n        /* \"#utility.yul\":3086:3093   */\n      dup7\n        /* \"#utility.yul\":3077:3083   */\n      dup3\n        /* \"#utility.yul\":3066:3075   */\n      dup8\n        /* \"#utility.yul\":3062:3084   */\n      add\n        /* \"#utility.yul\":3031:3094   */\n      tag_459\n      jump\t// in\n    tag_493:\n        /* \"#utility.yul\":3021:3094   */\n      swap4\n      pop\n        /* \"#utility.yul\":2817:3104   */\n      pop\n        /* \"#utility.yul\":3143:3145   */\n      0x20\n        /* \"#utility.yul\":3169:3222   */\n      tag_494\n        /* \"#utility.yul\":3214:3221   */\n      dup7\n        /* \"#utility.yul\":3205:3211   */\n      dup3\n        /* \"#utility.yul\":3194:3203   */\n      dup8\n        /* \"#utility.yul\":3190:3212   */\n      add\n        /* \"#utility.yul\":3169:3222   */\n      tag_451\n      jump\t// in\n    tag_494:\n        /* \"#utility.yul\":3159:3222   */\n      swap3\n      pop\n        /* \"#utility.yul\":3114:3232   */\n      pop\n        /* \"#utility.yul\":3271:3273   */\n      0x40\n        /* \"#utility.yul\":3297:3350   */\n      tag_495\n        /* \"#utility.yul\":3342:3349   */\n      dup7\n        /* \"#utility.yul\":3333:3339   */\n      dup3\n        /* \"#utility.yul\":3322:3331   */\n      dup8\n        /* \"#utility.yul\":3318:3340   */\n      add\n        /* \"#utility.yul\":3297:3350   */\n      tag_465\n      jump\t// in\n    tag_495:\n        /* \"#utility.yul\":3287:3350   */\n      swap2\n      pop\n        /* \"#utility.yul\":3242:3360   */\n      pop\n        /* \"#utility.yul\":2568:3367   */\n      swap3\n      pop\n      swap3\n      pop\n      swap3\n      jump\t// out\n        /* \"#utility.yul\":3373:3702   */\n    tag_76:\n        /* \"#utility.yul\":3432:3438   */\n      0x00\n        /* \"#utility.yul\":3481:3483   */\n      0x20\n        /* \"#utility.yul\":3469:3478   */\n      dup3\n        /* \"#utility.yul\":3460:3467   */\n      dup5\n        /* \"#utility.yul\":3456:3479   */\n      sub\n        /* \"#utility.yul\":3452:3484   */\n      slt\n        /* \"#utility.yul\":3449:3568   */\n      iszero\n      tag_497\n      jumpi\n        /* \"#utility.yul\":3487:3566   */\n      tag_498\n      tag_475\n      jump\t// in\n    tag_498:\n        /* \"#utility.yul\":3449:3568   */\n    tag_497:\n        /* \"#utility.yul\":3607:3608   */\n      0x00\n        /* \"#utility.yul\":3632:3685   */\n      tag_499\n        /* \"#utility.yul\":3677:3684   */\n      dup5\n        /* \"#utility.yul\":3668:3674   */\n      dup3\n        /* \"#utility.yul\":3657:3666   */\n      dup6\n        /* \"#utility.yul\":3653:3675   */\n      add\n        /* \"#utility.yul\":3632:3685   */\n      tag_465\n      jump\t// in\n    tag_499:\n        /* \"#utility.yul\":3622:3685   */\n      swap2\n      pop\n        /* \"#utility.yul\":3578:3695   */\n      pop\n        /* \"#utility.yul\":3373:3702   */\n      swap3\n      swap2\n      pop\n      pop\n      jump\t// out\n        /* \"#utility.yul\":3708:4059   */\n    tag_227:\n        /* \"#utility.yul\":3778:3784   */\n      0x00\n        /* \"#utility.yul\":3827:3829   */\n      0x20\n        /* \"#utility.yul\":3815:3824   */\n      dup3\n        /* \"#utility.yul\":3806:3813   */\n      dup5\n        /* \"#utility.yul\":3802:3825   */\n      sub\n        /* \"#utility.yul\":3798:3830   */\n      slt\n        /* \"#utility.yul\":3795:3914   */\n      iszero\n      tag_501\n      jumpi\n        /* \"#utility.yul\":3833:3912   */\n      tag_502\n      tag_475\n      jump\t// in\n    tag_502:\n        /* \"#utility.yul\":3795:3914   */\n    tag_501:\n        /* \"#utility.yul\":3953:3954   */\n      0x00\n        /* \"#utility.yul\":3978:4042   */\n      tag_503\n        /* \"#utility.yul\":4034:4041   */\n      dup5\n        /* \"#utility.yul\":4025:4031   */\n      dup3\n        /* \"#utility.yul\":4014:4023   */\n      dup6\n        /* \"#utility.yul\":4010:4032   */\n      add\n        /* \"#utility.yul\":3978:4042   */\n      tag_469\n      jump\t// in\n    tag_503:\n        /* \"#utility.yul\":3968:4042   */\n      swap2\n      pop\n        /* \"#utility.yul\":3924:4052   */\n      pop\n        /* \"#utility.yul\":3708:4059   */\n      swap3\n      swap2\n      pop\n      pop\n      jump\t// out\n        /* \"#utility.yul\":4065:4719   */\n    tag_158:\n        /* \"#utility.yul\":4143:4149   */\n      0x00\n        /* \"#utility.yul\":4151:4157   */\n      dup1\n        /* \"#utility.yul\":4200:4202   */\n      0x40\n        /* \"#utility.yul\":4188:4197   */\n      dup4\n        /* \"#utility.yul\":4179:4186   */\n      dup6\n        /* \"#utility.yul\":4175:4198   */\n      sub\n        /* \"#utility.yul\":4171:4203   */\n      slt\n        /* \"#utility.yul\":4168:4287   */\n      iszero\n      tag_505\n      jumpi\n        /* \"#utility.yul\":4206:4285   */\n      tag_506\n      tag_475\n      jump\t// in\n    tag_506:\n        /* \"#utility.yul\":4168:4287   */\n    tag_505:\n        /* \"#utility.yul\":4326:4327   */\n      0x00\n        /* \"#utility.yul\":4351:4404   */\n      tag_507\n        /* \"#utility.yul\":4396:4403   */\n      dup6\n        /* \"#utility.yul\":4387:4393   */\n      dup3\n        /* \"#utility.yul\":4376:4385   */\n      dup7\n        /* \"#utility.yul\":4372:4394   */\n      add\n        /* \"#utility.yul\":4351:4404   */\n      tag_465\n      jump\t// in\n    tag_507:\n        /* \"#utility.yul\":4341:4404   */\n      swap3\n      pop\n        /* \"#utility.yul\":4297:4414   */\n      pop\n        /* \"#utility.yul\":4481:4483   */\n      0x20\n        /* \"#utility.yul\":4470:4479   */\n      dup4\n        /* \"#utility.yul\":4466:4484   */\n      add\n        /* \"#utility.yul\":4453:4485   */\n      calldataload\n        /* \"#utility.yul\":4512:4530   */\n      0xffffffffffffffff\n        /* \"#utility.yul\":4504:4510   */\n      dup2\n        /* \"#utility.yul\":4501:4531   */\n      gt\n        /* \"#utility.yul\":4498:4615   */\n      iszero\n      tag_508\n      jumpi\n        /* \"#utility.yul\":4534:4613   */\n      tag_509\n      tag_486\n      jump\t// in\n    tag_509:\n        /* \"#utility.yul\":4498:4615   */\n    tag_508:\n        /* \"#utility.yul\":4639:4702   */\n      tag_510\n        /* \"#utility.yul\":4694:4701   */\n      dup6\n        /* \"#utility.yul\":4685:4691   */\n      dup3\n        /* \"#utility.yul\":4674:4683   */\n      dup7\n        /* \"#utility.yul\":4670:4692   */\n      add\n        /* \"#utility.yul\":4639:4702   */\n      tag_459\n      jump\t// in\n    tag_510:\n        /* \"#utility.yul\":4629:4702   */\n      swap2\n      pop\n        /* \"#utility.yul\":4424:4712   */\n      pop\n        /* \"#utility.yul\":4065:4719   */\n      swap3\n      pop\n      swap3\n      swap1\n      pop\n      jump\t// out\n        /* \"#utility.yul\":4725:5199   */\n    tag_122:\n        /* \"#utility.yul\":4793:4799   */\n      0x00\n        /* \"#utility.yul\":4801:4807   */\n      dup1\n        /* \"#utility.yul\":4850:4852   */\n      0x40\n        /* \"#utility.yul\":4838:4847   */\n      dup4\n        /* \"#utility.yul\":4829:4836   */\n      dup6\n        /* \"#utility.yul\":4825:4848   */\n      sub\n        /* \"#utility.yul\":4821:4853   */\n      slt\n        /* \"#utility.yul\":4818:4937   */\n      iszero\n      tag_512\n      jumpi\n        /* \"#utility.yul\":4856:4935   */\n      tag_513\n      tag_475\n      jump\t// in\n    tag_513:\n        /* \"#utility.yul\":4818:4937   */\n    tag_512:\n        /* \"#utility.yul\":4976:4977   */\n      0x00\n        /* \"#utility.yul\":5001:5054   */\n      tag_514\n        /* \"#utility.yul\":5046:5053   */\n      dup6\n        /* \"#utility.yul\":5037:5043   */\n      dup3\n        /* \"#utility.yul\":5026:5035   */\n      dup7\n        /* \"#utility.yul\":5022:5044   */\n      add\n        /* \"#utility.yul\":5001:5054   */\n      tag_465\n      jump\t// in\n    tag_514:\n        /* \"#utility.yul\":4991:5054   */\n      swap3\n      pop\n        /* \"#utility.yul\":4947:5064   */\n      pop\n        /* \"#utility.yul\":5103:5105   */\n      0x20\n        /* \"#utility.yul\":5129:5182   */\n      tag_515\n        /* \"#utility.yul\":5174:5181   */\n      dup6\n        /* \"#utility.yul\":5165:5171   */\n      dup3\n        /* \"#utility.yul\":5154:5163   */\n      dup7\n        /* \"#utility.yul\":5150:5172   */\n      add\n        /* \"#utility.yul\":5129:5182   */\n      tag_465\n      jump\t// in\n    tag_515:\n        /* \"#utility.yul\":5119:5182   */\n      swap2\n      pop\n        /* \"#utility.yul\":5074:5192   */\n      pop\n        /* \"#utility.yul\":4725:5199   */\n      swap3\n      pop\n      swap3\n      swap1\n      pop\n      jump\t// out\n        /* \"#utility.yul\":5205:5323   */\n    tag_516:\n        /* \"#utility.yul\":5292:5316   */\n      tag_518\n        /* \"#utility.yul\":5310:5315   */\n      dup2\n        /* \"#utility.yul\":5292:5316   */\n      tag_519\n      jump\t// in\n    tag_518:\n        /* \"#utility.yul\":5287:5290   */\n      dup3\n        /* \"#utility.yul\":5280:5317   */\n      mstore\n        /* \"#utility.yul\":5205:5323   */\n      pop\n      pop\n      jump\t// out\n        /* \"#utility.yul\":5329:5486   */\n    tag_520:\n        /* \"#utility.yul\":5429:5479   */\n      tag_522\n        /* \"#utility.yul\":5473:5478   */\n      dup2\n        /* \"#utility.yul\":5429:5479   */\n      tag_523\n      jump\t// in\n    tag_522:\n        /* \"#utility.yul\":5424:5427   */\n      dup3\n        /* \"#utility.yul\":5417:5480   */\n      mstore\n        /* \"#utility.yul\":5329:5486   */\n      pop\n      pop\n      jump\t// out\n        /* \"#utility.yul\":5492:5607   */\n    tag_524:\n        /* \"#utility.yul\":5577:5600   */\n      tag_526\n        /* \"#utility.yul\":5594:5599   */\n      dup2\n        /* \"#utility.yul\":5577:5600   */\n      tag_527\n      jump\t// in\n    tag_526:\n        /* \"#utility.yul\":5572:5575   */\n      dup3\n        /* \"#utility.yul\":5565:5601   */\n      mstore\n        /* \"#utility.yul\":5492:5607   */\n      pop\n      pop\n      jump\t// out\n        /* \"#utility.yul\":5613:5990   */\n    tag_528:\n        /* \"#utility.yul\":5719:5722   */\n      0x00\n        /* \"#utility.yul\":5747:5786   */\n      tag_530\n        /* \"#utility.yul\":5780:5785   */\n      dup3\n        /* \"#utility.yul\":5747:5786   */\n      tag_531\n      jump\t// in\n    tag_530:\n        /* \"#utility.yul\":5802:5891   */\n      tag_532\n        /* \"#utility.yul\":5884:5890   */\n      dup2\n        /* \"#utility.yul\":5879:5882   */\n      dup6\n        /* \"#utility.yul\":5802:5891   */\n      tag_533\n      jump\t// in\n    tag_532:\n        /* \"#utility.yul\":5795:5891   */\n      swap4\n      pop\n        /* \"#utility.yul\":5900:5952   */\n      tag_534\n        /* \"#utility.yul\":5945:5951   */\n      dup2\n        /* \"#utility.yul\":5940:5943   */\n      dup6\n        /* \"#utility.yul\":5933:5937   */\n      0x20\n        /* \"#utility.yul\":5926:5931   */\n      dup7\n        /* \"#utility.yul\":5922:5938   */\n      add\n        /* \"#utility.yul\":5900:5952   */\n      tag_535\n      jump\t// in\n    tag_534:\n        /* \"#utility.yul\":5977:5983   */\n      dup1\n        /* \"#utility.yul\":5972:5975   */\n      dup5\n        /* \"#utility.yul\":5968:5984   */\n      add\n        /* \"#utility.yul\":5961:5984   */\n      swap2\n      pop\n        /* \"#utility.yul\":5723:5990   */\n      pop\n        /* \"#utility.yul\":5613:5990   */\n      swap3\n      swap2\n      pop\n      pop\n      jump\t// out\n        /* \"#utility.yul\":5996:6362   */\n    tag_536:\n        /* \"#utility.yul\":6138:6141   */\n      0x00\n        /* \"#utility.yul\":6159:6226   */\n      tag_538\n        /* \"#utility.yul\":6223:6225   */\n      0x24\n        /* \"#utility.yul\":6218:6221   */\n      dup4\n        /* \"#utility.yul\":6159:6226   */\n      tag_539\n      jump\t// in\n    tag_538:\n        /* \"#utility.yul\":6152:6226   */\n      swap2\n      pop\n        /* \"#utility.yul\":6235:6328   */\n      tag_540\n        /* \"#utility.yul\":6324:6327   */\n      dup3\n        /* \"#utility.yul\":6235:6328   */\n      tag_541\n      jump\t// in\n    tag_540:\n        /* \"#utility.yul\":6353:6355   */\n      0x40\n        /* \"#utility.yul\":6348:6351   */\n      dup3\n        /* \"#utility.yul\":6344:6356   */\n      add\n        /* \"#utility.yul\":6337:6356   */\n      swap1\n      pop\n        /* \"#utility.yul\":5996:6362   */\n      swap2\n      swap1\n      pop\n      jump\t// out\n        /* \"#utility.yul\":6368:6734   */\n    tag_542:\n        /* \"#utility.yul\":6510:6513   */\n      0x00\n        /* \"#utility.yul\":6531:6598   */\n      tag_544\n        /* \"#utility.yul\":6595:6597   */\n      0x15\n        /* \"#utility.yul\":6590:6593   */\n      dup4\n        /* \"#utility.yul\":6531:6598   */\n      tag_539\n      jump\t// in\n    tag_544:\n        /* \"#utility.yul\":6524:6598   */\n      swap2\n      pop\n        /* \"#utility.yul\":6607:6700   */\n      tag_545\n        /* \"#utility.yul\":6696:6699   */\n      dup3\n        /* \"#utility.yul\":6607:6700   */\n      tag_546\n      jump\t// in\n    tag_545:\n        /* \"#utility.yul\":6725:6727   */\n      0x20\n        /* \"#utility.yul\":6720:6723   */\n      dup3\n        /* \"#utility.yul\":6716:6728   */\n      add\n        /* \"#utility.yul\":6709:6728   */\n      swap1\n      pop\n        /* \"#utility.yul\":6368:6734   */\n      swap2\n      swap1\n      pop\n      jump\t// out\n        /* \"#utility.yul\":6740:7106   */\n    tag_547:\n        /* \"#utility.yul\":6882:6885   */\n      0x00\n        /* \"#utility.yul\":6903:6970   */\n      tag_549\n        /* \"#utility.yul\":6967:6969   */\n      0x1a\n        /* \"#utility.yul\":6962:6965   */\n      dup4\n        /* \"#utility.yul\":6903:6970   */\n      tag_539\n      jump\t// in\n    tag_549:\n        /* \"#utility.yul\":6896:6970   */\n      swap2\n      pop\n        /* \"#utility.yul\":6979:7072   */\n      tag_550\n        /* \"#utility.yul\":7068:7071   */\n      dup3\n        /* \"#utility.yul\":6979:7072   */\n      tag_551\n      jump\t// in\n    tag_550:\n        /* \"#utility.yul\":7097:7099   */\n      0x20\n        /* \"#utility.yul\":7092:7095   */\n      dup3\n        /* \"#utility.yul\":7088:7100   */\n      add\n        /* \"#utility.yul\":7081:7100   */\n      swap1\n      pop\n        /* \"#utility.yul\":6740:7106   */\n      swap2\n      swap1\n      pop\n      jump\t// out\n        /* \"#utility.yul\":7112:7478   */\n    tag_552:\n        /* \"#utility.yul\":7254:7257   */\n      0x00\n        /* \"#utility.yul\":7275:7342   */\n      tag_554\n        /* \"#utility.yul\":7339:7341   */\n      0x15\n        /* \"#utility.yul\":7334:7337   */\n      dup4\n        /* \"#utility.yul\":7275:7342   */\n      tag_539\n      jump\t// in\n    tag_554:\n        /* \"#utility.yul\":7268:7342   */\n      swap2\n      pop\n        /* \"#utility.yul\":7351:7444   */\n      tag_555\n        /* \"#utility.yul\":7440:7443   */\n      dup3\n        /* \"#utility.yul\":7351:7444   */\n      tag_556\n      jump\t// in\n    tag_555:\n        /* \"#utility.yul\":7469:7471   */\n      0x20\n        /* \"#utility.yul\":7464:7467   */\n      dup3\n        /* \"#utility.yul\":7460:7472   */\n      add\n        /* \"#utility.yul\":7453:7472   */\n      swap1\n      pop\n        /* \"#utility.yul\":7112:7478   */\n      swap2\n      swap1\n      pop\n      jump\t// out\n        /* \"#utility.yul\":7484:7850   */\n    tag_557:\n        /* \"#utility.yul\":7626:7629   */\n      0x00\n        /* \"#utility.yul\":7647:7714   */\n      tag_559\n        /* \"#utility.yul\":7711:7713   */\n      0x0c\n        /* \"#utility.yul\":7706:7709   */\n      dup4\n        /* \"#utility.yul\":7647:7714   */\n      tag_539\n      jump\t// in\n    tag_559:\n        /* \"#utility.yul\":7640:7714   */\n      swap2\n      pop\n        /* \"#utility.yul\":7723:7816   */\n      tag_560\n        /* \"#utility.yul\":7812:7815   */\n      dup3\n        /* \"#utility.yul\":7723:7816   */\n      tag_561\n      jump\t// in\n    tag_560:\n        /* \"#utility.yul\":7841:7843   */\n      0x20\n        /* \"#utility.yul\":7836:7839   */\n      dup3\n        /* \"#utility.yul\":7832:7844   */\n      add\n        /* \"#utility.yul\":7825:7844   */\n      swap1\n      pop\n        /* \"#utility.yul\":7484:7850   */\n      swap2\n      swap1\n      pop\n      jump\t// out\n        /* \"#utility.yul\":7856:8222   */\n    tag_562:\n        /* \"#utility.yul\":7998:8001   */\n      0x00\n        /* \"#utility.yul\":8019:8086   */\n      tag_564\n        /* \"#utility.yul\":8083:8085   */\n      0x21\n        /* \"#utility.yul\":8078:8081   */\n      dup4\n        /* \"#utility.yul\":8019:8086   */\n      tag_539\n      jump\t// in\n    tag_564:\n        /* \"#utility.yul\":8012:8086   */\n      swap2\n      pop\n        /* \"#utility.yul\":8095:8188   */\n      tag_565\n        /* \"#utility.yul\":8184:8187   */\n      dup3\n        /* \"#utility.yul\":8095:8188   */\n      tag_566\n      jump\t// in\n    tag_565:\n        /* \"#utility.yul\":8213:8215   */\n      0x40\n        /* \"#utility.yul\":8208:8211   */\n      dup3\n        /* \"#utility.yul\":8204:8216   */\n      add\n        /* \"#utility.yul\":8197:8216   */\n      swap1\n      pop\n        /* \"#utility.yul\":7856:8222   */\n      swap2\n      swap1\n      pop\n      jump\t// out\n        /* \"#utility.yul\":8228:8346   */\n    tag_567:\n        /* \"#utility.yul\":8315:8339   */\n      tag_569\n        /* \"#utility.yul\":8333:8338   */\n      dup2\n        /* \"#utility.yul\":8315:8339   */\n      tag_570\n      jump\t// in\n    tag_569:\n        /* \"#utility.yul\":8310:8313   */\n      dup3\n        /* \"#utility.yul\":8303:8340   */\n      mstore\n        /* \"#utility.yul\":8228:8346   */\n      pop\n      pop\n      jump\t// out\n        /* \"#utility.yul\":8352:8627   */\n    tag_356:\n        /* \"#utility.yul\":8484:8487   */\n      0x00\n        /* \"#utility.yul\":8506:8601   */\n      tag_572\n        /* \"#utility.yul\":8597:8600   */\n      dup3\n        /* \"#utility.yul\":8588:8594   */\n      dup5\n        /* \"#utility.yul\":8506:8601   */\n      tag_528\n      jump\t// in\n    tag_572:\n        /* \"#utility.yul\":8499:8601   */\n      swap2\n      pop\n        /* \"#utility.yul\":8618:8621   */\n      dup2\n        /* \"#utility.yul\":8611:8621   */\n      swap1\n      pop\n        /* \"#utility.yul\":8352:8627   */\n      swap3\n      swap2\n      pop\n      pop\n      jump\t// out\n        /* \"#utility.yul\":8633:8855   */\n    tag_57:\n        /* \"#utility.yul\":8726:8730   */\n      0x00\n        /* \"#utility.yul\":8764:8766   */\n      0x20\n        /* \"#utility.yul\":8753:8762   */\n      dup3\n        /* \"#utility.yul\":8749:8767   */\n      add\n        /* \"#utility.yul\":8741:8767   */\n      swap1\n      pop\n        /* \"#utility.yul\":8777:8848   */\n      tag_574\n        /* \"#utility.yul\":8845:8846   */\n      0x00\n        /* \"#utility.yul\":8834:8843   */\n      dup4\n        /* \"#utility.yul\":8830:8847   */\n      add\n        /* \"#utility.yul\":8821:8827   */\n      dup5\n        /* \"#utility.yul\":8777:8848   */\n      tag_516\n      jump\t// in\n    tag_574:\n        /* \"#utility.yul\":8633:8855   */\n      swap3\n      swap2\n      pop\n      pop\n      jump\t// out\n        /* \"#utility.yul\":8861:9303   */\n    tag_420:\n        /* \"#utility.yul\":9010:9014   */\n      0x00\n        /* \"#utility.yul\":9048:9050   */\n      0x60\n        /* \"#utility.yul\":9037:9046   */\n      dup3\n        /* \"#utility.yul\":9033:9051   */\n      add\n        /* \"#utility.yul\":9025:9051   */\n      swap1\n      pop\n        /* \"#utility.yul\":9061:9132   */\n      tag_576\n        /* \"#utility.yul\":9129:9130   */\n      0x00\n        /* \"#utility.yul\":9118:9127   */\n      dup4\n        /* \"#utility.yul\":9114:9131   */\n      add\n        /* \"#utility.yul\":9105:9111   */\n      dup7\n        /* \"#utility.yul\":9061:9132   */\n      tag_516\n      jump\t// in\n    tag_576:\n        /* \"#utility.yul\":9142:9214   */\n      tag_577\n        /* \"#utility.yul\":9210:9212   */\n      0x20\n        /* \"#utility.yul\":9199:9208   */\n      dup4\n        /* \"#utility.yul\":9195:9213   */\n      add\n        /* \"#utility.yul\":9186:9192   */\n      dup6\n        /* \"#utility.yul\":9142:9214   */\n      tag_516\n      jump\t// in\n    tag_577:\n        /* \"#utility.yul\":9224:9296   */\n      tag_578\n        /* \"#utility.yul\":9292:9294   */\n      0x40\n        /* \"#utility.yul\":9281:9290   */\n      dup4\n        /* \"#utility.yul\":9277:9295   */\n      add\n        /* \"#utility.yul\":9268:9274   */\n      dup5\n        /* \"#utility.yul\":9224:9296   */\n      tag_567\n      jump\t// in\n    tag_578:\n        /* \"#utility.yul\":8861:9303   */\n      swap5\n      swap4\n      pop\n      pop\n      pop\n      pop\n      jump\t// out\n        /* \"#utility.yul\":9309:9641   */\n    tag_174:\n        /* \"#utility.yul\":9430:9434   */\n      0x00\n        /* \"#utility.yul\":9468:9470   */\n      0x40\n        /* \"#utility.yul\":9457:9466   */\n      dup3\n        /* \"#utility.yul\":9453:9471   */\n      add\n        /* \"#utility.yul\":9445:9471   */\n      swap1\n      pop\n        /* \"#utility.yul\":9481:9552   */\n      tag_580\n        /* \"#utility.yul\":9549:9550   */\n      0x00\n        /* \"#utility.yul\":9538:9547   */\n      dup4\n        /* \"#utility.yul\":9534:9551   */\n      add\n        /* \"#utility.yul\":9525:9531   */\n      dup6\n        /* \"#utility.yul\":9481:9552   */\n      tag_516\n      jump\t// in\n    tag_580:\n        /* \"#utility.yul\":9562:9634   */\n      tag_581\n        /* \"#utility.yul\":9630:9632   */\n      0x20\n        /* \"#utility.yul\":9619:9628   */\n      dup4\n        /* \"#utility.yul\":9615:9633   */\n      add\n        /* \"#utility.yul\":9606:9612   */\n      dup5\n        /* \"#utility.yul\":9562:9634   */\n      tag_567\n      jump\t// in\n    tag_581:\n        /* \"#utility.yul\":9309:9641   */\n      swap4\n      swap3\n      pop\n      pop\n      pop\n      jump\t// out\n        /* \"#utility.yul\":9647:9895   */\n    tag_141:\n        /* \"#utility.yul\":9753:9757   */\n      0x00\n        /* \"#utility.yul\":9791:9793   */\n      0x20\n        /* \"#utility.yul\":9780:9789   */\n      dup3\n        /* \"#utility.yul\":9776:9794   */\n      add\n        /* \"#utility.yul\":9768:9794   */\n      swap1\n      pop\n        /* \"#utility.yul\":9804:9888   */\n      tag_583\n        /* \"#utility.yul\":9885:9886   */\n      0x00\n        /* \"#utility.yul\":9874:9883   */\n      dup4\n        /* \"#utility.yul\":9870:9887   */\n      add\n        /* \"#utility.yul\":9861:9867   */\n      dup5\n        /* \"#utility.yul\":9804:9888   */\n      tag_520\n      jump\t// in\n    tag_583:\n        /* \"#utility.yul\":9647:9895   */\n      swap3\n      swap2\n      pop\n      pop\n      jump\t// out\n        /* \"#utility.yul\":9901:10119   */\n    tag_146:\n        /* \"#utility.yul\":9992:9996   */\n      0x00\n        /* \"#utility.yul\":10030:10032   */\n      0x20\n        /* \"#utility.yul\":10019:10028   */\n      dup3\n        /* \"#utility.yul\":10015:10033   */\n      add\n        /* \"#utility.yul\":10007:10033   */\n      swap1\n      pop\n        /* \"#utility.yul\":10043:10112   */\n      tag_585\n        /* \"#utility.yul\":10109:10110   */\n      0x00\n        /* \"#utility.yul\":10098:10107   */\n      dup4\n        /* \"#utility.yul\":10094:10111   */\n      add\n        /* \"#utility.yul\":10085:10091   */\n      dup5\n        /* \"#utility.yul\":10043:10112   */\n      tag_524\n      jump\t// in\n    tag_585:\n        /* \"#utility.yul\":9901:10119   */\n      swap3\n      swap2\n      pop\n      pop\n      jump\t// out\n        /* \"#utility.yul\":10125:10544   */\n    tag_259:\n        /* \"#utility.yul\":10291:10295   */\n      0x00\n        /* \"#utility.yul\":10329:10331   */\n      0x20\n        /* \"#utility.yul\":10318:10327   */\n      dup3\n        /* \"#utility.yul\":10314:10332   */\n      add\n        /* \"#utility.yul\":10306:10332   */\n      swap1\n      pop\n        /* \"#utility.yul\":10378:10387   */\n      dup2\n        /* \"#utility.yul\":10372:10376   */\n      dup2\n        /* \"#utility.yul\":10368:10388   */\n      sub\n        /* \"#utility.yul\":10364:10365   */\n      0x00\n        /* \"#utility.yul\":10353:10362   */\n      dup4\n        /* \"#utility.yul\":10349:10366   */\n      add\n        /* \"#utility.yul\":10342:10389   */\n      mstore\n        /* \"#utility.yul\":10406:10537   */\n      tag_587\n        /* \"#utility.yul\":10532:10536   */\n      dup2\n        /* \"#utility.yul\":10406:10537   */\n      tag_536\n      jump\t// in\n    tag_587:\n        /* \"#utility.yul\":10398:10537   */\n      swap1\n      pop\n        /* \"#utility.yul\":10125:10544   */\n      swap2\n      swap1\n      pop\n      jump\t// out\n        /* \"#utility.yul\":10550:10969   */\n    tag_427:\n        /* \"#utility.yul\":10716:10720   */\n      0x00\n        /* \"#utility.yul\":10754:10756   */\n      0x20\n        /* \"#utility.yul\":10743:10752   */\n      dup3\n        /* \"#utility.yul\":10739:10757   */\n      add\n        /* \"#utility.yul\":10731:10757   */\n      swap1\n      pop\n        /* \"#utility.yul\":10803:10812   */\n      dup2\n        /* \"#utility.yul\":10797:10801   */\n      dup2\n        /* \"#utility.yul\":10793:10813   */\n      sub\n        /* \"#utility.yul\":10789:10790   */\n      0x00\n        /* \"#utility.yul\":10778:10787   */\n      dup4\n        /* \"#utility.yul\":10774:10791   */\n      add\n        /* \"#utility.yul\":10767:10814   */\n      mstore\n        /* \"#utility.yul\":10831:10962   */\n      tag_589\n        /* \"#utility.yul\":10957:10961   */\n      dup2\n        /* \"#utility.yul\":10831:10962   */\n      tag_542\n      jump\t// in\n    tag_589:\n        /* \"#utility.yul\":10823:10962   */\n      swap1\n      pop\n        /* \"#utility.yul\":10550:10969   */\n      swap2\n      swap1\n      pop\n      jump\t// out\n        /* \"#utility.yul\":10975:11394   */\n    tag_270:\n        /* \"#utility.yul\":11141:11145   */\n      0x00\n        /* \"#utility.yul\":11179:11181   */\n      0x20\n        /* \"#utility.yul\":11168:11177   */\n      dup3\n        /* \"#utility.yul\":11164:11182   */\n      add\n        /* \"#utility.yul\":11156:11182   */\n      swap1\n      pop\n        /* \"#utility.yul\":11228:11237   */\n      dup2\n        /* \"#utility.yul\":11222:11226   */\n      dup2\n        /* \"#utility.yul\":11218:11238   */\n      sub\n        /* \"#utility.yul\":11214:11215   */\n      0x00\n        /* \"#utility.yul\":11203:11212   */\n      dup4\n        /* \"#utility.yul\":11199:11216   */\n      add\n        /* \"#utility.yul\":11192:11239   */\n      mstore\n        /* \"#utility.yul\":11256:11387   */\n      tag_591\n        /* \"#utility.yul\":11382:11386   */\n      dup2\n        /* \"#utility.yul\":11256:11387   */\n      tag_547\n      jump\t// in\n    tag_591:\n        /* \"#utility.yul\":11248:11387   */\n      swap1\n      pop\n        /* \"#utility.yul\":10975:11394   */\n      swap2\n      swap1\n      pop\n      jump\t// out\n        /* \"#utility.yul\":11400:11819   */\n    tag_347:\n        /* \"#utility.yul\":11566:11570   */\n      0x00\n        /* \"#utility.yul\":11604:11606   */\n      0x20\n        /* \"#utility.yul\":11593:11602   */\n      dup3\n        /* \"#utility.yul\":11589:11607   */\n      add\n        /* \"#utility.yul\":11581:11607   */\n      swap1\n      pop\n        /* \"#utility.yul\":11653:11662   */\n      dup2\n        /* \"#utility.yul\":11647:11651   */\n      dup2\n        /* \"#utility.yul\":11643:11663   */\n      sub\n        /* \"#utility.yul\":11639:11640   */\n      0x00\n        /* \"#utility.yul\":11628:11637   */\n      dup4\n        /* \"#utility.yul\":11624:11641   */\n      add\n        /* \"#utility.yul\":11617:11664   */\n      mstore\n        /* \"#utility.yul\":11681:11812   */\n      tag_593\n        /* \"#utility.yul\":11807:11811   */\n      dup2\n        /* \"#utility.yul\":11681:11812   */\n      tag_552\n      jump\t// in\n    tag_593:\n        /* \"#utility.yul\":11673:11812   */\n      swap1\n      pop\n        /* \"#utility.yul\":11400:11819   */\n      swap2\n      swap1\n      pop\n      jump\t// out\n        /* \"#utility.yul\":11825:12244   */\n    tag_398:\n        /* \"#utility.yul\":11991:11995   */\n      0x00\n        /* \"#utility.yul\":12029:12031   */\n      0x20\n        /* \"#utility.yul\":12018:12027   */\n      dup3\n        /* \"#utility.yul\":12014:12032   */\n      add\n        /* \"#utility.yul\":12006:12032   */\n      swap1\n      pop\n        /* \"#utility.yul\":12078:12087   */\n      dup2\n        /* \"#utility.yul\":12072:12076   */\n      dup2\n        /* \"#utility.yul\":12068:12088   */\n      sub\n        /* \"#utility.yul\":12064:12065   */\n      0x00\n        /* \"#utility.yul\":12053:12062   */\n      dup4\n        /* \"#utility.yul\":12049:12066   */\n      add\n        /* \"#utility.yul\":12042:12089   */\n      mstore\n        /* \"#utility.yul\":12106:12237   */\n      tag_595\n        /* \"#utility.yul\":12232:12236   */\n      dup2\n        /* \"#utility.yul\":12106:12237   */\n      tag_557\n      jump\t// in\n    tag_595:\n        /* \"#utility.yul\":12098:12237   */\n      swap1\n      pop\n        /* \"#utility.yul\":11825:12244   */\n      swap2\n      swap1\n      pop\n      jump\t// out\n        /* \"#utility.yul\":12250:12669   */\n    tag_434:\n        /* \"#utility.yul\":12416:12420   */\n      0x00\n        /* \"#utility.yul\":12454:12456   */\n      0x20\n        /* \"#utility.yul\":12443:12452   */\n      dup3\n        /* \"#utility.yul\":12439:12457   */\n      add\n        /* \"#utility.yul\":12431:12457   */\n      swap1\n      pop\n        /* \"#utility.yul\":12503:12512   */\n      dup2\n        /* \"#utility.yul\":12497:12501   */\n      dup2\n        /* \"#utility.yul\":12493:12513   */\n      sub\n        /* \"#utility.yul\":12489:12490   */\n      0x00\n        /* \"#utility.yul\":12478:12487   */\n      dup4\n        /* \"#utility.yul\":12474:12491   */\n      add\n        /* \"#utility.yul\":12467:12514   */\n      mstore\n        /* \"#utility.yul\":12531:12662   */\n      tag_597\n        /* \"#utility.yul\":12657:12661   */\n      dup2\n        /* \"#utility.yul\":12531:12662   */\n      tag_562\n      jump\t// in\n    tag_597:\n        /* \"#utility.yul\":12523:12662   */\n      swap1\n      pop\n        /* \"#utility.yul\":12250:12669   */\n      swap2\n      swap1\n      pop\n      jump\t// out\n        /* \"#utility.yul\":12675:12897   */\n    tag_52:\n        /* \"#utility.yul\":12768:12772   */\n      0x00\n        /* \"#utility.yul\":12806:12808   */\n      0x20\n        /* \"#utility.yul\":12795:12804   */\n      dup3\n        /* \"#utility.yul\":12791:12809   */\n      add\n        /* \"#utility.yul\":12783:12809   */\n      swap1\n      pop\n        /* \"#utility.yul\":12819:12890   */\n      tag_599\n        /* \"#utility.yul\":12887:12888   */\n      0x00\n        /* \"#utility.yul\":12876:12885   */\n      dup4\n        /* \"#utility.yul\":12872:12889   */\n      add\n        /* \"#utility.yul\":12863:12869   */\n      dup5\n        /* \"#utility.yul\":12819:12890   */\n      tag_567\n      jump\t// in\n    tag_599:\n        /* \"#utility.yul\":12675:12897   */\n      swap3\n      swap2\n      pop\n      pop\n      jump\t// out\n        /* \"#utility.yul\":12903:13235   */\n    tag_72:\n        /* \"#utility.yul\":13024:13028   */\n      0x00\n        /* \"#utility.yul\":13062:13064   */\n      0x40\n        /* \"#utility.yul\":13051:13060   */\n      dup3\n        /* \"#utility.yul\":13047:13065   */\n      add\n        /* \"#utility.yul\":13039:13065   */\n      swap1\n      pop\n        /* \"#utility.yul\":13075:13146   */\n      tag_601\n        /* \"#utility.yul\":13143:13144   */\n      0x00\n        /* \"#utility.yul\":13132:13141   */\n      dup4\n        /* \"#utility.yul\":13128:13145   */\n      add\n        /* \"#utility.yul\":13119:13125   */\n      dup6\n        /* \"#utility.yul\":13075:13146   */\n      tag_567\n      jump\t// in\n    tag_601:\n        /* \"#utility.yul\":13156:13228   */\n      tag_602\n        /* \"#utility.yul\":13224:13226   */\n      0x20\n        /* \"#utility.yul\":13213:13222   */\n      dup4\n        /* \"#utility.yul\":13209:13227   */\n      add\n        /* \"#utility.yul\":13200:13206   */\n      dup5\n        /* \"#utility.yul\":13156:13228   */\n      tag_567\n      jump\t// in\n    tag_602:\n        /* \"#utility.yul\":12903:13235   */\n      swap4\n      swap3\n      pop\n      pop\n      pop\n      jump\t// out\n        /* \"#utility.yul\":13241:13370   */\n    tag_445:\n        /* \"#utility.yul\":13275:13281   */\n      0x00\n        /* \"#utility.yul\":13302:13322   */\n      tag_604\n      tag_605\n      jump\t// in\n    tag_604:\n        /* \"#utility.yul\":13292:13322   */\n      swap1\n      pop\n        /* \"#utility.yul\":13331:13364   */\n      tag_606\n        /* \"#utility.yul\":13359:13363   */\n      dup3\n        /* \"#utility.yul\":13351:13357   */\n      dup3\n        /* \"#utility.yul\":13331:13364   */\n      tag_607\n      jump\t// in\n    tag_606:\n        /* \"#utility.yul\":13241:13370   */\n      swap2\n      swap1\n      pop\n      jump\t// out\n        /* \"#utility.yul\":13376:13451   */\n    tag_605:\n        /* \"#utility.yul\":13409:13415   */\n      0x00\n        /* \"#utility.yul\":13442:13444   */\n      0x40\n        /* \"#utility.yul\":13436:13445   */\n      mload\n        /* \"#utility.yul\":13426:13445   */\n      swap1\n      pop\n        /* \"#utility.yul\":13376:13451   */\n      swap1\n      jump\t// out\n        /* \"#utility.yul\":13457:13765   */\n    tag_444:\n        /* \"#utility.yul\":13519:13523   */\n      0x00\n        /* \"#utility.yul\":13609:13627   */\n      0xffffffffffffffff\n        /* \"#utility.yul\":13601:13607   */\n      dup3\n        /* \"#utility.yul\":13598:13628   */\n      gt\n        /* \"#utility.yul\":13595:13651   */\n      iszero\n      tag_610\n      jumpi\n        /* \"#utility.yul\":13631:13649   */\n      tag_611\n      tag_612\n      jump\t// in\n    tag_611:\n        /* \"#utility.yul\":13595:13651   */\n    tag_610:\n        /* \"#utility.yul\":13669:13698   */\n      tag_613\n        /* \"#utility.yul\":13691:13697   */\n      dup3\n        /* \"#utility.yul\":13669:13698   */\n      tag_614\n      jump\t// in\n    tag_613:\n        /* \"#utility.yul\":13661:13698   */\n      swap1\n      pop\n        /* \"#utility.yul\":13753:13757   */\n      0x20\n        /* \"#utility.yul\":13747:13751   */\n      dup2\n        /* \"#utility.yul\":13743:13758   */\n      add\n        /* \"#utility.yul\":13735:13758   */\n      swap1\n      pop\n        /* \"#utility.yul\":13457:13765   */\n      swap2\n      swap1\n      pop\n      jump\t// out\n        /* \"#utility.yul\":13771:13870   */\n    tag_531:\n        /* \"#utility.yul\":13823:13829   */\n      0x00\n        /* \"#utility.yul\":13857:13862   */\n      dup2\n        /* \"#utility.yul\":13851:13863   */\n      mload\n        /* \"#utility.yul\":13841:13863   */\n      swap1\n      pop\n        /* \"#utility.yul\":13771:13870   */\n      swap2\n      swap1\n      pop\n      jump\t// out\n        /* \"#utility.yul\":13876:14045   */\n    tag_539:\n        /* \"#utility.yul\":13960:13971   */\n      0x00\n        /* \"#utility.yul\":13994:14000   */\n      dup3\n        /* \"#utility.yul\":13989:13992   */\n      dup3\n        /* \"#utility.yul\":13982:14001   */\n      mstore\n        /* \"#utility.yul\":14034:14038   */\n      0x20\n        /* \"#utility.yul\":14029:14032   */\n      dup3\n        /* \"#utility.yul\":14025:14039   */\n      add\n        /* \"#utility.yul\":14010:14039   */\n      swap1\n      pop\n        /* \"#utility.yul\":13876:14045   */\n      swap3\n      swap2\n      pop\n      pop\n      jump\t// out\n        /* \"#utility.yul\":14051:14199   */\n    tag_533:\n        /* \"#utility.yul\":14153:14164   */\n      0x00\n        /* \"#utility.yul\":14190:14193   */\n      dup2\n        /* \"#utility.yul\":14175:14193   */\n      swap1\n      pop\n        /* \"#utility.yul\":14051:14199   */\n      swap3\n      swap2\n      pop\n      pop\n      jump\t// out\n        /* \"#utility.yul\":14205:14510   */\n    tag_233:\n        /* \"#utility.yul\":14245:14248   */\n      0x00\n        /* \"#utility.yul\":14264:14284   */\n      tag_619\n        /* \"#utility.yul\":14282:14283   */\n      dup3\n        /* \"#utility.yul\":14264:14284   */\n      tag_570\n      jump\t// in\n    tag_619:\n        /* \"#utility.yul\":14259:14284   */\n      swap2\n      pop\n        /* \"#utility.yul\":14298:14318   */\n      tag_620\n        /* \"#utility.yul\":14316:14317   */\n      dup4\n        /* \"#utility.yul\":14298:14318   */\n      tag_570\n      jump\t// in\n    tag_620:\n        /* \"#utility.yul\":14293:14318   */\n      swap3\n      pop\n        /* \"#utility.yul\":14452:14453   */\n      dup3\n        /* \"#utility.yul\":14384:14450   */\n      0xffffffffffffffffffffffffffffffffffffffffffffffffffffffffffffffff\n        /* \"#utility.yul\":14380:14454   */\n      sub\n        /* \"#utility.yul\":14377:14378   */\n      dup3\n        /* \"#utility.yul\":14374:14455   */\n      gt\n        /* \"#utility.yul\":14371:14478   */\n      iszero\n      tag_621\n      jumpi\n        /* \"#utility.yul\":14458:14476   */\n      tag_622\n      tag_623\n      jump\t// in\n    tag_622:\n        /* \"#utility.yul\":14371:14478   */\n    tag_621:\n        /* \"#utility.yul\":14502:14503   */\n      dup3\n        /* \"#utility.yul\":14499:14500   */\n      dup3\n        /* \"#utility.yul\":14495:14504   */\n      add\n        /* \"#utility.yul\":14488:14504   */\n      swap1\n      pop\n        /* \"#utility.yul\":14205:14510   */\n      swap3\n      swap2\n      pop\n      pop\n      jump\t// out\n        /* \"#utility.yul\":14516:14701   */\n    tag_236:\n        /* \"#utility.yul\":14556:14557   */\n      0x00\n        /* \"#utility.yul\":14573:14593   */\n      tag_625\n        /* \"#utility.yul\":14591:14592   */\n      dup3\n        /* \"#utility.yul\":14573:14593   */\n      tag_570\n      jump\t// in\n    tag_625:\n        /* \"#utility.yul\":14568:14593   */\n      swap2\n      pop\n        /* \"#utility.yul\":14607:14627   */\n      tag_626\n        /* \"#utility.yul\":14625:14626   */\n      dup4\n        /* \"#utility.yul\":14607:14627   */\n      tag_570\n      jump\t// in\n    tag_626:\n        /* \"#utility.yul\":14602:14627   */\n      swap3\n      pop\n        /* \"#utility.yul\":14646:14647   */\n      dup3\n        /* \"#utility.yul\":14636:14671   */\n      tag_627\n      jumpi\n        /* \"#utility.yul\":14651:14669   */\n      tag_628\n      tag_629\n      jump\t// in\n    tag_628:\n        /* \"#utility.yul\":14636:14671   */\n    tag_627:\n        /* \"#utility.yul\":14693:14694   */\n      dup3\n        /* \"#utility.yul\":14690:14691   */\n      dup3\n        /* \"#utility.yul\":14686:14695   */\n      div\n        /* \"#utility.yul\":14681:14695   */\n      swap1\n      pop\n        /* \"#utility.yul\":14516:14701   */\n      swap3\n      swap2\n      pop\n      pop\n      jump\t// out\n        /* \"#utility.yul\":14707:15055   */\n    tag_305:\n        /* \"#utility.yul\":14747:14754   */\n      0x00\n        /* \"#utility.yul\":14770:14790   */\n      tag_631\n        /* \"#utility.yul\":14788:14789   */\n      dup3\n        /* \"#utility.yul\":14770:14790   */\n      tag_570\n      jump\t// in\n    tag_631:\n        /* \"#utility.yul\":14765:14790   */\n      swap2\n      pop\n        /* \"#utility.yul\":14804:14824   */\n      tag_632\n        /* \"#utility.yul\":14822:14823   */\n      dup4\n        /* \"#utility.yul\":14804:14824   */\n      tag_570\n      jump\t// in\n    tag_632:\n        /* \"#utility.yul\":14799:14824   */\n      swap3\n      pop\n        /* \"#utility.yul\":14992:14993   */\n      dup2\n        /* \"#utility.yul\":14924:14990   */\n      0xffffffffffffffffffffffffffffffffffffffffffffffffffffffffffffffff\n        /* \"#utility.yul\":14920:14994   */\n      div\n        /* \"#utility.yul\":14917:14918   */\n      dup4\n        /* \"#utility.yul\":14914:14995   */\n      gt\n        /* \"#utility.yul\":14909:14910   */\n      dup3\n        /* \"#utility.yul\":14902:14911   */\n      iszero\n        /* \"#utility.yul\":14895:14912   */\n      iszero\n        /* \"#utility.yul\":14891:14996   */\n      and\n        /* \"#utility.yul\":14888:15019   */\n      iszero\n      tag_633\n      jumpi\n        /* \"#utility.yul\":14999:15017   */\n      tag_634\n      tag_623\n      jump\t// in\n    tag_634:\n        /* \"#utility.yul\":14888:15019   */\n    tag_633:\n        /* \"#utility.yul\":15047:15048   */\n      dup3\n        /* \"#utility.yul\":15044:15045   */\n      dup3\n        /* \"#utility.yul\":15040:15049   */\n      mul\n        /* \"#utility.yul\":15029:15049   */\n      swap1\n      pop\n        /* \"#utility.yul\":14707:15055   */\n      swap3\n      swap2\n      pop\n      pop\n      jump\t// out\n        /* \"#utility.yul\":15061:15252   */\n    tag_238:\n        /* \"#utility.yul\":15101:15105   */\n      0x00\n        /* \"#utility.yul\":15121:15141   */\n      tag_636\n        /* \"#utility.yul\":15139:15140   */\n      dup3\n        /* \"#utility.yul\":15121:15141   */\n      tag_570\n      jump\t// in\n    tag_636:\n        /* \"#utility.yul\":15116:15141   */\n      swap2\n      pop\n        /* \"#utility.yul\":15155:15175   */\n      tag_637\n        /* \"#utility.yul\":15173:15174   */\n      dup4\n        /* \"#utility.yul\":15155:15175   */\n      tag_570\n      jump\t// in\n    tag_637:\n        /* \"#utility.yul\":15150:15175   */\n      swap3\n      pop\n        /* \"#utility.yul\":15194:15195   */\n      dup3\n        /* \"#utility.yul\":15191:15192   */\n      dup3\n        /* \"#utility.yul\":15188:15196   */\n      lt\n        /* \"#utility.yul\":15185:15219   */\n      iszero\n      tag_638\n      jumpi\n        /* \"#utility.yul\":15199:15217   */\n      tag_639\n      tag_623\n      jump\t// in\n    tag_639:\n        /* \"#utility.yul\":15185:15219   */\n    tag_638:\n        /* \"#utility.yul\":15244:15245   */\n      dup3\n        /* \"#utility.yul\":15241:15242   */\n      dup3\n        /* \"#utility.yul\":15237:15246   */\n      sub\n        /* \"#utility.yul\":15229:15246   */\n      swap1\n      pop\n        /* \"#utility.yul\":15061:15252   */\n      swap3\n      swap2\n      pop\n      pop\n      jump\t// out\n        /* \"#utility.yul\":15258:15354   */\n    tag_519:\n        /* \"#utility.yul\":15295:15302   */\n      0x00\n        /* \"#utility.yul\":15324:15348   */\n      tag_641\n        /* \"#utility.yul\":15342:15347   */\n      dup3\n        /* \"#utility.yul\":15324:15348   */\n      tag_642\n      jump\t// in\n    tag_641:\n        /* \"#utility.yul\":15313:15348   */\n      swap1\n      pop\n        /* \"#utility.yul\":15258:15354   */\n      swap2\n      swap1\n      pop\n      jump\t// out\n        /* \"#utility.yul\":15360:15450   */\n    tag_643:\n        /* \"#utility.yul\":15394:15401   */\n      0x00\n        /* \"#utility.yul\":15437:15442   */\n      dup2\n        /* \"#utility.yul\":15430:15443   */\n      iszero\n        /* \"#utility.yul\":15423:15444   */\n      iszero\n        /* \"#utility.yul\":15412:15444   */\n      swap1\n      pop\n        /* \"#utility.yul\":15360:15450   */\n      swap2\n      swap1\n      pop\n      jump\t// out\n        /* \"#utility.yul\":15456:15548   */\n    tag_527:\n        /* \"#utility.yul\":15492:15499   */\n      0x00\n        /* \"#utility.yul\":15536:15541   */\n      dup2\n        /* \"#utility.yul\":15532:15534   */\n      0x0f\n        /* \"#utility.yul\":15521:15542   */\n      signextend\n        /* \"#utility.yul\":15510:15542   */\n      swap1\n      pop\n        /* \"#utility.yul\":15456:15548   */\n      swap2\n      swap1\n      pop\n      jump\t// out\n        /* \"#utility.yul\":15554:15680   */\n    tag_642:\n        /* \"#utility.yul\":15591:15598   */\n      0x00\n        /* \"#utility.yul\":15631:15673   */\n      0xffffffffffffffffffffffffffffffffffffffff\n        /* \"#utility.yul\":15624:15629   */\n      dup3\n        /* \"#utility.yul\":15620:15674   */\n      and\n        /* \"#utility.yul\":15609:15674   */\n      swap1\n      pop\n        /* \"#utility.yul\":15554:15680   */\n      swap2\n      swap1\n      pop\n      jump\t// out\n        /* \"#utility.yul\":15686:15763   */\n    tag_570:\n        /* \"#utility.yul\":15723:15730   */\n      0x00\n        /* \"#utility.yul\":15752:15757   */\n      dup2\n        /* \"#utility.yul\":15741:15757   */\n      swap1\n      pop\n        /* \"#utility.yul\":15686:15763   */\n      swap2\n      swap1\n      pop\n      jump\t// out\n        /* \"#utility.yul\":15769:15908   */\n    tag_523:\n        /* \"#utility.yul\":15832:15841   */\n      0x00\n        /* \"#utility.yul\":15865:15902   */\n      tag_649\n        /* \"#utility.yul\":15896:15901   */\n      dup3\n        /* \"#utility.yul\":15865:15902   */\n      tag_650\n      jump\t// in\n    tag_649:\n        /* \"#utility.yul\":15852:15902   */\n      swap1\n      pop\n        /* \"#utility.yul\":15769:15908   */\n      swap2\n      swap1\n      pop\n      jump\t// out\n        /* \"#utility.yul\":15914:16040   */\n    tag_650:\n        /* \"#utility.yul\":15964:15973   */\n      0x00\n        /* \"#utility.yul\":15997:16034   */\n      tag_652\n        /* \"#utility.yul\":16028:16033   */\n      dup3\n        /* \"#utility.yul\":15997:16034   */\n      tag_653\n      jump\t// in\n    tag_652:\n        /* \"#utility.yul\":15984:16034   */\n      swap1\n      pop\n        /* \"#utility.yul\":15914:16040   */\n      swap2\n      swap1\n      pop\n      jump\t// out\n        /* \"#utility.yul\":16046:16159   */\n    tag_653:\n        /* \"#utility.yul\":16096:16105   */\n      0x00\n        /* \"#utility.yul\":16129:16153   */\n      tag_655\n        /* \"#utility.yul\":16147:16152   */\n      dup3\n        /* \"#utility.yul\":16129:16153   */\n      tag_642\n      jump\t// in\n    tag_655:\n        /* \"#utility.yul\":16116:16153   */\n      swap1\n      pop\n        /* \"#utility.yul\":16046:16159   */\n      swap2\n      swap1\n      pop\n      jump\t// out\n        /* \"#utility.yul\":16165:16319   */\n    tag_450:\n        /* \"#utility.yul\":16249:16255   */\n      dup3\n        /* \"#utility.yul\":16244:16247   */\n      dup2\n        /* \"#utility.yul\":16239:16242   */\n      dup4\n        /* \"#utility.yul\":16226:16256   */\n      calldatacopy\n        /* \"#utility.yul\":16311:16312   */\n      0x00\n        /* \"#utility.yul\":16302:16308   */\n      dup4\n        /* \"#utility.yul\":16297:16300   */\n      dup4\n        /* \"#utility.yul\":16293:16309   */\n      add\n        /* \"#utility.yul\":16286:16313   */\n      mstore\n        /* \"#utility.yul\":16165:16319   */\n      pop\n      pop\n      pop\n      jump\t// out\n        /* \"#utility.yul\":16325:16632   */\n    tag_535:\n        /* \"#utility.yul\":16393:16394   */\n      0x00\n        /* \"#utility.yul\":16403:16516   */\n    tag_658:\n        /* \"#utility.yul\":16417:16423   */\n      dup4\n        /* \"#utility.yul\":16414:16415   */\n      dup2\n        /* \"#utility.yul\":16411:16424   */\n      lt\n        /* \"#utility.yul\":16403:16516   */\n      iszero\n      tag_660\n      jumpi\n        /* \"#utility.yul\":16502:16503   */\n      dup1\n        /* \"#utility.yul\":16497:16500   */\n      dup3\n        /* \"#utility.yul\":16493:16504   */\n      add\n        /* \"#utility.yul\":16487:16505   */\n      mload\n        /* \"#utility.yul\":16483:16484   */\n      dup2\n        /* \"#utility.yul\":16478:16481   */\n      dup5\n        /* \"#utility.yul\":16474:16485   */\n      add\n        /* \"#utility.yul\":16467:16506   */\n      mstore\n        /* \"#utility.yul\":16439:16441   */\n      0x20\n        /* \"#utility.yul\":16436:16437   */\n      dup2\n        /* \"#utility.yul\":16432:16442   */\n      add\n        /* \"#utility.yul\":16427:16442   */\n      swap1\n      pop\n        /* \"#utility.yul\":16403:16516   */\n      jump(tag_658)\n    tag_660:\n        /* \"#utility.yul\":16534:16540   */\n      dup4\n        /* \"#utility.yul\":16531:16532   */\n      dup2\n        /* \"#utility.yul\":16528:16541   */\n      gt\n        /* \"#utility.yul\":16525:16626   */\n      iszero\n      tag_661\n      jumpi\n        /* \"#utility.yul\":16614:16615   */\n      0x00\n        /* \"#utility.yul\":16605:16611   */\n      dup5\n        /* \"#utility.yul\":16600:16603   */\n      dup5\n        /* \"#utility.yul\":16596:16612   */\n      add\n        /* \"#utility.yul\":16589:16616   */\n      mstore\n        /* \"#utility.yul\":16525:16626   */\n    tag_661:\n        /* \"#utility.yul\":16374:16632   */\n      pop\n        /* \"#utility.yul\":16325:16632   */\n      pop\n      pop\n      pop\n      jump\t// out\n        /* \"#utility.yul\":16638:16919   */\n    tag_607:\n        /* \"#utility.yul\":16721:16748   */\n      tag_663\n        /* \"#utility.yul\":16743:16747   */\n      dup3\n        /* \"#utility.yul\":16721:16748   */\n      tag_614\n      jump\t// in\n    tag_663:\n        /* \"#utility.yul\":16713:16719   */\n      dup2\n        /* \"#utility.yul\":16709:16749   */\n      add\n        /* \"#utility.yul\":16851:16857   */\n      dup2\n        /* \"#utility.yul\":16839:16849   */\n      dup2\n        /* \"#utility.yul\":16836:16858   */\n      lt\n        /* \"#utility.yul\":16815:16833   */\n      0xffffffffffffffff\n        /* \"#utility.yul\":16803:16813   */\n      dup3\n        /* \"#utility.yul\":16800:16834   */\n      gt\n        /* \"#utility.yul\":16797:16859   */\n      or\n        /* \"#utility.yul\":16794:16882   */\n      iszero\n      tag_664\n      jumpi\n        /* \"#utility.yul\":16862:16880   */\n      tag_665\n      tag_612\n      jump\t// in\n    tag_665:\n        /* \"#utility.yul\":16794:16882   */\n    tag_664:\n        /* \"#utility.yul\":16902:16912   */\n      dup1\n        /* \"#utility.yul\":16898:16900   */\n      0x40\n        /* \"#utility.yul\":16891:16913   */\n      mstore\n        /* \"#utility.yul\":16681:16919   */\n      pop\n        /* \"#utility.yul\":16638:16919   */\n      pop\n      pop\n      jump\t// out\n        /* \"#utility.yul\":16925:17158   */\n    tag_248:\n        /* \"#utility.yul\":16964:16967   */\n      0x00\n        /* \"#utility.yul\":16987:17011   */\n      tag_667\n        /* \"#utility.yul\":17005:17010   */\n      dup3\n        /* \"#utility.yul\":16987:17011   */\n      tag_570\n      jump\t// in\n    tag_667:\n        /* \"#utility.yul\":16978:17011   */\n      swap2\n      pop\n        /* \"#utility.yul\":17033:17099   */\n      0xffffffffffffffffffffffffffffffffffffffffffffffffffffffffffffffff\n        /* \"#utility.yul\":17026:17031   */\n      dup3\n        /* \"#utility.yul\":17023:17100   */\n      eq\n        /* \"#utility.yul\":17020:17123   */\n      iszero\n      tag_668\n      jumpi\n        /* \"#utility.yul\":17103:17121   */\n      tag_669\n      tag_623\n      jump\t// in\n    tag_669:\n        /* \"#utility.yul\":17020:17123   */\n    tag_668:\n        /* \"#utility.yul\":17150:17151   */\n      0x01\n        /* \"#utility.yul\":17143:17148   */\n      dup3\n        /* \"#utility.yul\":17139:17152   */\n      add\n        /* \"#utility.yul\":17132:17152   */\n      swap1\n      pop\n        /* \"#utility.yul\":16925:17158   */\n      swap2\n      swap1\n      pop\n      jump\t// out\n        /* \"#utility.yul\":17164:17344   */\n    tag_623:\n        /* \"#utility.yul\":17212:17289   */\n      0x4e487b7100000000000000000000000000000000000000000000000000000000\n        /* \"#utility.yul\":17209:17210   */\n      0x00\n        /* \"#utility.yul\":17202:17290   */\n      mstore\n        /* \"#utility.yul\":17309:17313   */\n      0x11\n        /* \"#utility.yul\":17306:17307   */\n      0x04\n        /* \"#utility.yul\":17299:17314   */\n      mstore\n        /* \"#utility.yul\":17333:17337   */\n      0x24\n        /* \"#utility.yul\":17330:17331   */\n      0x00\n        /* \"#utility.yul\":17323:17338   */\n      revert\n        /* \"#utility.yul\":17350:17530   */\n    tag_629:\n        /* \"#utility.yul\":17398:17475   */\n      0x4e487b7100000000000000000000000000000000000000000000000000000000\n        /* \"#utility.yul\":17395:17396   */\n      0x00\n        /* \"#utility.yul\":17388:17476   */\n      mstore\n        /* \"#utility.yul\":17495:17499   */\n      0x12\n        /* \"#utility.yul\":17492:17493   */\n      0x04\n        /* \"#utility.yul\":17485:17500   */\n      mstore\n        /* \"#utility.yul\":17519:17523   */\n      0x24\n        /* \"#utility.yul\":17516:17517   */\n      0x00\n        /* \"#utility.yul\":17509:17524   */\n      revert\n        /* \"#utility.yul\":17536:17716   */\n    tag_612:\n        /* \"#utility.yul\":17584:17661   */\n      0x4e487b7100000000000000000000000000000000000000000000000000000000\n        /* \"#utility.yul\":17581:17582   */\n      0x00\n        /* \"#utility.yul\":17574:17662   */\n      mstore\n        /* \"#utility.yul\":17681:17685   */\n      0x41\n        /* \"#utility.yul\":17678:17679   */\n      0x04\n        /* \"#utility.yul\":17671:17686   */\n      mstore\n        /* \"#utility.yul\":17705:17709   */\n      0x24\n        /* \"#utility.yul\":17702:17703   */\n      0x00\n        /* \"#utility.yul\":17695:17710   */\n      revert\n        /* \"#utility.yul\":17722:17839   */\n    tag_463:\n        /* \"#utility.yul\":17831:17832   */\n      0x00\n        /* \"#utility.yul\":17828:17829   */\n      dup1\n        /* \"#utility.yul\":17821:17833   */\n      revert\n        /* \"#utility.yul\":17845:17962   */\n    tag_448:\n        /* \"#utility.yul\":17954:17955   */\n      0x00\n        /* \"#utility.yul\":17951:17952   */\n      dup1\n        /* \"#utility.yul\":17944:17956   */\n      revert\n        /* \"#utility.yul\":17968:18085   */\n    tag_486:\n        /* \"#utility.yul\":18077:18078   */\n      0x00\n        /* \"#utility.yul\":18074:18075   */\n      dup1\n        /* \"#utility.yul\":18067:18079   */\n      revert\n        /* \"#utility.yul\":18091:18208   */\n    tag_475:\n        /* \"#utility.yul\":18200:18201   */\n      0x00\n        /* \"#utility.yul\":18197:18198   */\n      dup1\n        /* \"#utility.yul\":18190:18202   */\n      revert\n        /* \"#utility.yul\":18214:18316   */\n    tag_614:\n        /* \"#utility.yul\":18255:18261   */\n      0x00\n        /* \"#utility.yul\":18306:18308   */\n      0x1f\n        /* \"#utility.yul\":18302:18309   */\n      not\n        /* \"#utility.yul\":18297:18299   */\n      0x1f\n        /* \"#utility.yul\":18290:18295   */\n      dup4\n        /* \"#utility.yul\":18286:18300   */\n      add\n        /* \"#utility.yul\":18282:18310   */\n      and\n        /* \"#utility.yul\":18272:18310   */\n      swap1\n      pop\n        /* \"#utility.yul\":18214:18316   */\n      swap2\n      swap1\n      pop\n      jump\t// out\n        /* \"#utility.yul\":18322:18545   */\n    tag_541:\n        /* \"#utility.yul\":18462:18496   */\n      0x596f7520646f6e7420686176652074686174206d75636820746f207769746864\n        /* \"#utility.yul\":18458:18459   */\n      0x00\n        /* \"#utility.yul\":18450:18456   */\n      dup3\n        /* \"#utility.yul\":18446:18460   */\n      add\n        /* \"#utility.yul\":18439:18497   */\n      mstore\n        /* \"#utility.yul\":18531:18537   */\n      0x7261772100000000000000000000000000000000000000000000000000000000\n        /* \"#utility.yul\":18526:18528   */\n      0x20\n        /* \"#utility.yul\":18518:18524   */\n      dup3\n        /* \"#utility.yul\":18514:18529   */\n      add\n        /* \"#utility.yul\":18507:18538   */\n      mstore\n        /* \"#utility.yul\":18322:18545   */\n      pop\n      jump\t// out\n        /* \"#utility.yul\":18551:18722   */\n    tag_546:\n        /* \"#utility.yul\":18691:18714   */\n      0x546f6b656e207472616e73666572206661696c65640000000000000000000000\n        /* \"#utility.yul\":18687:18688   */\n      0x00\n        /* \"#utility.yul\":18679:18685   */\n      dup3\n        /* \"#utility.yul\":18675:18689   */\n      add\n        /* \"#utility.yul\":18668:18715   */\n      mstore\n        /* \"#utility.yul\":18551:18722   */\n      pop\n      jump\t// out\n        /* \"#utility.yul\":18728:18904   */\n    tag_551:\n        /* \"#utility.yul\":18868:18896   */\n      0x596f7520646f6e742068617665207468617420616d6f756e7421000000000000\n        /* \"#utility.yul\":18864:18865   */\n      0x00\n        /* \"#utility.yul\":18856:18862   */\n      dup3\n        /* \"#utility.yul\":18852:18866   */\n      add\n        /* \"#utility.yul\":18845:18897   */\n      mstore\n        /* \"#utility.yul\":18728:18904   */\n      pop\n      jump\t// out\n        /* \"#utility.yul\":18910:19081   */\n    tag_556:\n        /* \"#utility.yul\":19050:19073   */\n      0x506572207472616e73616374696f6e206c696d69740000000000000000000000\n        /* \"#utility.yul\":19046:19047   */\n      0x00\n        /* \"#utility.yul\":19038:19044   */\n      dup3\n        /* \"#utility.yul\":19034:19048   */\n      add\n        /* \"#utility.yul\":19027:19074   */\n      mstore\n        /* \"#utility.yul\":18910:19081   */\n      pop\n      jump\t// out\n        /* \"#utility.yul\":19087:19249   */\n    tag_561:\n        /* \"#utility.yul\":19227:19241   */\n      0x4e6f7420756e6c6f636b65640000000000000000000000000000000000000000\n        /* \"#utility.yul\":19223:19224   */\n      0x00\n        /* \"#utility.yul\":19215:19221   */\n      dup3\n        /* \"#utility.yul\":19211:19225   */\n      add\n        /* \"#utility.yul\":19204:19242   */\n      mstore\n        /* \"#utility.yul\":19087:19249   */\n      pop\n      jump\t// out\n        /* \"#utility.yul\":19255:19475   */\n    tag_566:\n        /* \"#utility.yul\":19395:19429   */\n      0x75696e74206f766572666c6f772066726f6d206d756c7469706c69636174696f\n        /* \"#utility.yul\":19391:19392   */\n      0x00\n        /* \"#utility.yul\":19383:19389   */\n      dup3\n        /* \"#utility.yul\":19379:19393   */\n      add\n        /* \"#utility.yul\":19372:19430   */\n      mstore\n        /* \"#utility.yul\":19464:19467   */\n      0x6e00000000000000000000000000000000000000000000000000000000000000\n        /* \"#utility.yul\":19459:19461   */\n      0x20\n        /* \"#utility.yul\":19451:19457   */\n      dup3\n        /* \"#utility.yul\":19447:19462   */\n      add\n        /* \"#utility.yul\":19440:19468   */\n      mstore\n        /* \"#utility.yul\":19255:19475   */\n      pop\n      jump\t// out\n        /* \"#utility.yul\":19481:19603   */\n    tag_454:\n        /* \"#utility.yul\":19554:19578   */\n      tag_685\n        /* \"#utility.yul\":19572:19577   */\n      dup2\n        /* \"#utility.yul\":19554:19578   */\n      tag_519\n      jump\t// in\n    tag_685:\n        /* \"#utility.yul\":19547:19552   */\n      dup2\n        /* \"#utility.yul\":19544:19579   */\n      eq\n        /* \"#utility.yul\":19534:19597   */\n      tag_686\n      jumpi\n        /* \"#utility.yul\":19593:19594   */\n      0x00\n        /* \"#utility.yul\":19590:19591   */\n      dup1\n        /* \"#utility.yul\":19583:19595   */\n      revert\n        /* \"#utility.yul\":19534:19597   */\n    tag_686:\n        /* \"#utility.yul\":19481:19603   */\n      pop\n      jump\t// out\n        /* \"#utility.yul\":19609:19725   */\n    tag_458:\n        /* \"#utility.yul\":19679:19700   */\n      tag_688\n        /* \"#utility.yul\":19694:19699   */\n      dup2\n        /* \"#utility.yul\":19679:19700   */\n      tag_643\n      jump\t// in\n    tag_688:\n        /* \"#utility.yul\":19672:19677   */\n      dup2\n        /* \"#utility.yul\":19669:19701   */\n      eq\n        /* \"#utility.yul\":19659:19719   */\n      tag_689\n      jumpi\n        /* \"#utility.yul\":19715:19716   */\n      0x00\n        /* \"#utility.yul\":19712:19713   */\n      dup1\n        /* \"#utility.yul\":19705:19717   */\n      revert\n        /* \"#utility.yul\":19659:19719   */\n    tag_689:\n        /* \"#utility.yul\":19609:19725   */\n      pop\n      jump\t// out\n        /* \"#utility.yul\":19731:19853   */\n    tag_468:\n        /* \"#utility.yul\":19804:19828   */\n      tag_691\n        /* \"#utility.yul\":19822:19827   */\n      dup2\n        /* \"#utility.yul\":19804:19828   */\n      tag_570\n      jump\t// in\n    tag_691:\n        /* \"#utility.yul\":19797:19802   */\n      dup2\n        /* \"#utility.yul\":19794:19829   */\n      eq\n        /* \"#utility.yul\":19784:19847   */\n      tag_692\n      jumpi\n        /* \"#utility.yul\":19843:19844   */\n      0x00\n        /* \"#utility.yul\":19840:19841   */\n      dup1\n        /* \"#utility.yul\":19833:19845   */\n      revert\n        /* \"#utility.yul\":19784:19847   */\n    tag_692:\n        /* \"#utility.yul\":19731:19853   */\n      pop\n      jump\t// out\n\n    auxdata: 0xa2646970667358221220cc5d8938f7ce9d7f7515f79a84153f005622cc102c19c6c4ac1c1bb56825206764736f6c63430008070033\n}\n",
				"bytecode": {
					"linkReferences": {},
					"object": "6080604052670de0b6b3a764000061c3506200001c9190620002a0565b600a55620186a0600d5562015f90600e55620927c0600f5573617f2e2fd72fd9d5503197092ac168c91465e7f2601160006101000a81548173ffffffffffffffffffffffffffffffffffffffff021916908373ffffffffffffffffffffffffffffffffffffffff1602179055503480156200009657600080fd5b5060405162002f6438038062002f648339818101604052810190620000bc919062000259565b81601a60006101000a81548173ffffffffffffffffffffffffffffffffffffffff021916908373ffffffffffffffffffffffffffffffffffffffff16021790555080601b60006101000a81548173ffffffffffffffffffffffffffffffffffffffff021916908373ffffffffffffffffffffffffffffffffffffffff16021790555081601260006101000a81548173ffffffffffffffffffffffffffffffffffffffff021916908373ffffffffffffffffffffffffffffffffffffffff160217905550732f8895b08d8f226b19895d46154fab7096fb2593601360006101000a81548173ffffffffffffffffffffffffffffffffffffffff021916908373ffffffffffffffffffffffffffffffffffffffff16021790555073617f2e2fd72fd9d5503197092ac168c91465e7f2600660006101000a81548173ffffffffffffffffffffffffffffffffffffffff021916908373ffffffffffffffffffffffffffffffffffffffff16021790555042600b8190555062069780600c8190555050506200038d565b600081519050620002538162000373565b92915050565b600080604083850312156200027357620002726200036e565b5b6000620002838582860162000242565b9250506020620002968582860162000242565b9150509250929050565b6000620002ad8262000335565b9150620002ba8362000335565b9250817fffffffffffffffffffffffffffffffffffffffffffffffffffffffffffffffff0483118215151615620002f657620002f56200033f565b5b828202905092915050565b60006200030e8262000315565b9050919050565b600073ffffffffffffffffffffffffffffffffffffffff82169050919050565b6000819050919050565b7f4e487b7100000000000000000000000000000000000000000000000000000000600052601160045260246000fd5b600080fd5b6200037e8162000301565b81146200038a57600080fd5b50565b612bc7806200039d6000396000f3fe6080604052600436106102305760003560e01c806367e927a81161012e578063c079d7f6116100ab578063ee6208681161006f578063ee6208681461082d578063eee05f5e14610858578063f7523c5214610883578063fbbb4589146108c0578063fc361443146108eb57610230565b8063c079d7f614610758578063cbff461714610783578063d82eddf2146107ae578063e5d98082146107d9578063ee4676781461080257610230565b8063862d1b35116100f2578063862d1b351461067457806393f7b7111461069d5780639b19251a146106c8578063a475bf48146106f1578063bcd323cb1461072f57610230565b806367e927a81461059f5780636e05c1b9146105c85780636f10e285146105f35780637087a7a51461061e57806371cd58f91461064957610230565b80631f564a06116101bc5780633c6eb17a116101805780633c6eb17a146104c557806343d32e9c146104f057806363d033611461051b57806364ce07d81461053757806367b48c911461057457610230565b80631f564a06146103de57806329982a32146104095780632a9f0fb114610434578063354533071461047157806339ad95d61461049c57610230565b806312b2ed941161020357806312b2ed94146102e15780631514c9761461031f578063164c85011461035c5780631a30e872146103855780631bc9cc45146103c257610230565b8063018a25e814610235578063047729b0146102605780630ccaf04f1461028b5780630f65de3e146102b6575b600080fd5b34801561024157600080fd5b5061024a610914565b604051610257919061263b565b60405180910390f35b34801561026c57600080fd5b50610275610a32565b60405161028291906124ca565b60405180910390f35b34801561029757600080fd5b506102a0610a58565b6040516102ad919061263b565b60405180910390f35b3480156102c257600080fd5b506102cb610bb2565b6040516102d8919061263b565b60405180910390f35b3480156102ed57600080fd5b506103086004803603810190610303919061216c565b610bb7565b604051610316929190612656565b60405180910390f35b34801561032b57600080fd5b506103466004803603810190610341919061227e565b610bdb565b604051610353919061263b565b60405180910390f35b34801561036857600080fd5b50610383600480360381019061037e919061227e565b610bf3565b005b34801561039157600080fd5b506103ac60048036038101906103a7919061227e565b610d71565b6040516103b9919061263b565b60405180910390f35b6103dc60048036038101906103d7919061227e565b610d89565b005b3480156103ea57600080fd5b506103f3610f21565b604051610400919061263b565b60405180910390f35b34801561041557600080fd5b5061041e610fd3565b60405161042b91906124ca565b60405180910390f35b34801561044057600080fd5b5061045b6004803603810190610456919061227e565b610ff9565b604051610468919061263b565b60405180910390f35b34801561047d57600080fd5b50610486611011565b604051610493919061263b565b60405180910390f35b3480156104a857600080fd5b506104c360048036038101906104be919061227e565b611017565b005b3480156104d157600080fd5b506104da61101a565b6040516104e7919061263b565b60405180910390f35b3480156104fc57600080fd5b50610505611020565b604051610512919061263b565b60405180910390f35b61053560048036038101906105309190612334565b61113e565b005b34801561054357600080fd5b5061055e60048036038101906105599190612334565b611434565b60405161056b919061263b565b60405180910390f35b34801561058057600080fd5b50610589611475565b604051610596919061263b565b60405180910390f35b3480156105ab57600080fd5b506105c660048036038101906105c1919061227e565b61147b565b005b3480156105d457600080fd5b506105dd61152c565b6040516105ea9190612545565b60405180910390f35b3480156105ff57600080fd5b50610608611552565b6040516106159190612560565b60405180910390f35b34801561062a57600080fd5b50610633611565565b6040516106409190612545565b60405180910390f35b34801561065557600080fd5b5061065e61158b565b60405161066b919061263b565b60405180910390f35b34801561068057600080fd5b5061069b600480360381019061069691906122d8565b611642565b005b3480156106a957600080fd5b506106b2611a4d565b6040516106bf919061263b565b60405180910390f35b3480156106d457600080fd5b506106ef60048036038101906106ea919061216c565b611ba7565b005b3480156106fd57600080fd5b50610718600480360381019061071391906121c6565b611baa565b60405161072692919061251c565b60405180910390f35b34801561073b57600080fd5b506107566004803603810190610751919061216c565b611c04565b005b34801561076457600080fd5b5061076d611d02565b60405161077a91906124ca565b60405180910390f35b34801561078f57600080fd5b50610798611d28565b6040516107a5919061263b565b60405180910390f35b3480156107ba57600080fd5b506107c3611d2e565b6040516107d0919061263b565b60405180910390f35b3480156107e557600080fd5b5061080060048036038101906107fb919061220f565b611d91565b005b34801561080e57600080fd5b50610817611e1c565b6040516108249190612545565b60405180910390f35b34801561083957600080fd5b50610842611e42565b60405161084f919061263b565b60405180910390f35b34801561086457600080fd5b5061086d611e48565b60405161087a91906124ca565b60405180910390f35b34801561088f57600080fd5b506108aa60048036038101906108a59190612334565b611e6e565b6040516108b7919061263b565b60405180910390f35b3480156108cc57600080fd5b506108d5611eb7565b6040516108e291906124ca565b60405180910390f35b3480156108f757600080fd5b50610912600480360381019061090d919061227e565b611edd565b005b6000610a2d3073ffffffffffffffffffffffffffffffffffffffff16631f564a066040518163ffffffff1660e01b815260040160206040518083038186803b15801561095f57600080fd5b505afa158015610973573d6000803e3d6000fd5b505050506040513d601f19601f8201168201806040525081019061099791906122ab565b3073ffffffffffffffffffffffffffffffffffffffff166393f7b7116040518163ffffffff1660e01b815260040160206040518083038186803b1580156109dd57600080fd5b505afa1580156109f1573d6000803e3d6000fd5b505050506040513d601f19601f82011682018060405250810190610a1591906122ab565b6710a741a462780000610a2891906126fc565b611e6e565b905090565b600860009054906101000a900473ffffffffffffffffffffffffffffffffffffffff1681565b60008060008062015180600c54610a6f9190612752565b9050600062015180600b5442610a8591906127dd565b610a8f9190612752565b9050600080821415610ab65760176000808152602001908152602001600020549350610b02565b8282610ac291906127dd565b90505b81811015610b0157601760008281526020019081526020016000205484610aec91906126fc565b93508080610af99061290f565b915050610ac5565b5b610b893073ffffffffffffffffffffffffffffffffffffffff1663d82eddf26040518163ffffffff1660e01b815260040160206040518083038186803b158015610b4b57600080fd5b505afa158015610b5f573d6000803e3d6000fd5b505050506040513d601f19601f82011682018060405250810190610b8391906122ab565b85611434565b9450670429d069189e0000851115610ba757670429d069189e000094505b849550505050505090565b600090565b60196020528060005260406000206000915090508060000154908060010154905082565b60166020528060005260406000206000915090505481565b601960003373ffffffffffffffffffffffffffffffffffffffff1673ffffffffffffffffffffffffffffffffffffffff168152602001908152602001600020600101548110610c77576040517f08c379a0000000000000000000000000000000000000000000000000000000008152600401610c6e9061257b565b60405180910390fd5b80601960003373ffffffffffffffffffffffffffffffffffffffff1673ffffffffffffffffffffffffffffffffffffffff1681526020019081526020016000206001016000828254610cc991906127dd565b925050819055506000601960003373ffffffffffffffffffffffffffffffffffffffff1673ffffffffffffffffffffffffffffffffffffffff168152602001908152602001600020600101541415610d6e57601960003373ffffffffffffffffffffffffffffffffffffffff1673ffffffffffffffffffffffffffffffffffffffff168152602001908152602001600020600080820160009055600182016000905550505b50565b60176020528060005260406000206000915090505481565b6000601260009054906101000a900473ffffffffffffffffffffffffffffffffffffffff1673ffffffffffffffffffffffffffffffffffffffff166370a08231336040518263ffffffff1660e01b8152600401610de691906124ca565b60206040518083038186803b158015610dfe57600080fd5b505afa158015610e12573d6000803e3d6000fd5b505050506040513d601f19601f82011682018060405250810190610e3691906122ab565b9050818111610e7a576040517f08c379a0000000000000000000000000000000000000000000000000000000008152600401610e71906125bb565b60405180910390fd5b610ea8601260009054906101000a900473ffffffffffffffffffffffffffffffffffffffff16333085611ef5565b600062015180600b5442610ebc91906127dd565b610ec69190612752565b905082601660008381526020019081526020016000206000828254610eeb91906126fc565b9250508190555082601760008381526020019081526020016000206000828254610f1591906127dd565b92505081905550505050565b6000610fce600a54601260009054906101000a900473ffffffffffffffffffffffffffffffffffffffff1673ffffffffffffffffffffffffffffffffffffffff166318160ddd6040518163ffffffff1660e01b815260040160206040518083038186803b158015610f9157600080fd5b505afa158015610fa5573d6000803e3d6000fd5b505050506040513d601f19601f82011682018060405250810190610fc991906122ab565b611434565b905090565b600960009054906101000a900473ffffffffffffffffffffffffffffffffffffffff1681565b60156020528060005260406000206000915090505481565b600a5481565b50565b600b5481565b60006111393073ffffffffffffffffffffffffffffffffffffffff16631f564a066040518163ffffffff1660e01b815260040160206040518083038186803b15801561106b57600080fd5b505afa15801561107f573d6000803e3d6000fd5b505050506040513d601f19601f820116820180604052508101906110a391906122ab565b3073ffffffffffffffffffffffffffffffffffffffff16630ccaf04f6040518163ffffffff1660e01b815260040160206040518083038186803b1580156110e957600080fd5b505afa1580156110fd573d6000803e3d6000fd5b505050506040513d601f19601f8201168201806040525081019061112191906122ab565b670c7d713b49da000061113491906127dd565b611e6e565b905090565b6000601260009054906101000a900473ffffffffffffffffffffffffffffffffffffffff1673ffffffffffffffffffffffffffffffffffffffff166370a08231336040518263ffffffff1660e01b815260040161119b91906124ca565b60206040518083038186803b1580156111b357600080fd5b505afa1580156111c7573d6000803e3d6000fd5b505050506040513d601f19601f820116820180604052508101906111eb91906122ab565b905082811161122f576040517f08c379a0000000000000000000000000000000000000000000000000000000008152600401611226906125bb565b60405180910390fd5b601360009054906101000a900473ffffffffffffffffffffffffffffffffffffffff1673ffffffffffffffffffffffffffffffffffffffff1663a9059cbb33670de0b6b3a764000060016112839190612783565b8661128e91906126fc565b6040518363ffffffff1660e01b81526004016112ab92919061251c565b602060405180830381600087803b1580156112c557600080fd5b505af11580156112d9573d6000803e3d6000fd5b505050506040513d601f19601f820116820180604052508101906112fd9190612199565b5061132c601260009054906101000a900473ffffffffffffffffffffffffffffffffffffffff16333086611ef5565b6000833073ffffffffffffffffffffffffffffffffffffffff166343d32e9c6040518163ffffffff1660e01b815260040160206040518083038186803b15801561137557600080fd5b505afa158015611389573d6000803e3d6000fd5b505050506040513d601f19601f820116820180604052508101906113ad91906122ab565b6113b79190612783565b9050600062015180600b54426113cd91906127dd565b6113d79190612752565b9050846016600083815260200190815260200160002060008282546113fc91906126fc565b925050819055508460176000838152602001908152602001600020600082825461142691906127dd565b925050819055505050505050565b60008061144984670de0b6b3a7640000611fcf565b9050826114628260028661145d9190612752565b61204a565b61146c9190612752565b91505092915050565b600c5481565b620d2f004261148a91906126fc565b601960003373ffffffffffffffffffffffffffffffffffffffff1673ffffffffffffffffffffffffffffffffffffffff1681526020019081526020016000206000018190555080601960003373ffffffffffffffffffffffffffffffffffffffff1673ffffffffffffffffffffffffffffffffffffffff168152602001908152602001600020600101600082825461152291906126fc565b9250508190555050565b601260009054906101000a900473ffffffffffffffffffffffffffffffffffffffff1681565b601060009054906101000a9004600f0b81565b601460009054906101000a900473ffffffffffffffffffffffffffffffffffffffff1681565b60008060008062015180600c546115a29190612752565b9050600062015180600b54426115b891906127dd565b6115c29190612752565b905060008114156115ec57601560008081526020019081526020016000205494505050505061163f565b81816115f891906127dd565b92505b808310156116375760156000848152602001908152602001600020548461162291906126fc565b9350828061162f9061290f565b9350506115fb565b839450505050505b90565b6203d090821115611688576040517f08c379a000000000000000000000000000000000000000000000000000000000815260040161167f906125db565b60405180910390fd5b6000601360009054906101000a900473ffffffffffffffffffffffffffffffffffffffff1673ffffffffffffffffffffffffffffffffffffffff166370a08231336040518263ffffffff1660e01b81526004016116e591906124ca565b60206040518083038186803b1580156116fd57600080fd5b505afa158015611711573d6000803e3d6000fd5b505050506040513d601f19601f8201168201806040525081019061173591906122ab565b9050828111611779576040517f08c379a0000000000000000000000000000000000000000000000000000000008152600401611770906125bb565b60405180910390fd5b60188260405161178991906124b3565b908152602001604051809103902060000160009054906101000a900473ffffffffffffffffffffffffffffffffffffffff16601460006101000a81548173ffffffffffffffffffffffffffffffffffffffff021916908373ffffffffffffffffffffffffffffffffffffffff160217905550600060188360405161180d91906124b3565b9081526020016040518091039020600101543073ffffffffffffffffffffffffffffffffffffffff1663018a25e86040518163ffffffff1660e01b815260040160206040518083038186803b15801561186557600080fd5b505afa158015611879573d6000803e3d6000fd5b505050506040513d601f19601f8201168201806040525081019061189d91906122ab565b856118a89190612783565b6118b29190612783565b90506118e2601460009054906101000a900473ffffffffffffffffffffffffffffffffffffffff16333084611ef5565b601a60009054906101000a900473ffffffffffffffffffffffffffffffffffffffff1673ffffffffffffffffffffffffffffffffffffffff166340c10f1933670de0b6b3a7640000876119359190612783565b6040518363ffffffff1660e01b815260040161195292919061251c565b600060405180830381600087803b15801561196c57600080fd5b505af1158015611980573d6000803e3d6000fd5b50505050600062015180600b544261199891906127dd565b6119a29190612752565b9050846015600083815260200190815260200160002060008282546119c791906126fc565b92505081905550846017600083815260200190815260200160002060008282546119f191906126fc565b925050819055503373ffffffffffffffffffffffffffffffffffffffff167ff633443b01504d269657083d48bb6de98e089cfff672b47fefbed21608b5c77986604051611a3e919061263b565b60405180910390a25050505050565b60008060008062015180600c54611a649190612752565b9050600062015180600b5442611a7a91906127dd565b611a849190612752565b9050600080821415611aab5760176000808152602001908152602001600020549350611af7565b8282611ab791906127dd565b90505b81811015611af657601760008281526020019081526020016000205484611ae191906126fc565b93508080611aee9061290f565b915050611aba565b5b611b7e3073ffffffffffffffffffffffffffffffffffffffff166371cd58f96040518163ffffffff1660e01b815260040160206040518083038186803b158015611b4057600080fd5b505afa158015611b54573d6000803e3d6000fd5b505050506040513d601f19601f82011682018060405250810190611b7891906122ab565b85611434565b94506710a741a462780000851115611b9c576710a741a46278000094505b849550505050505090565b50565b6018818051602081018201805184825260208301602085012081835280955050505050506000915090508060000160009054906101000a900473ffffffffffffffffffffffffffffffffffffffff16908060010154905082565b601960008273ffffffffffffffffffffffffffffffffffffffff1673ffffffffffffffffffffffffffffffffffffffff16815260200190815260200160002060000154421015611c89576040517f08c379a0000000000000000000000000000000000000000000000000000000008152600401611c80906125fb565b60405180910390fd5b6000601960008373ffffffffffffffffffffffffffffffffffffffff1673ffffffffffffffffffffffffffffffffffffffff168152602001908152602001600020600101549050611cfe601360009054906101000a900473ffffffffffffffffffffffffffffffffffffffff16303384611ef5565b5050565b600760009054906101000a900473ffffffffffffffffffffffffffffffffffffffff1681565b60015481565b60008060008062015180600c54611d459190612752565b9050600091505b80821015611d8857601660008381526020019081526020016000205483611d7391906126fc565b92508180611d809061290f565b925050611d4c565b82935050505090565b81601884604051611da291906124b3565b908152602001604051809103902060000160006101000a81548173ffffffffffffffffffffffffffffffffffffffff021916908373ffffffffffffffffffffffffffffffffffffffff16021790555080601884604051611e0291906124b3565b908152602001604051809103902060010181905550505050565b601360009054906101000a900473ffffffffffffffffffffffffffffffffffffffff1681565b60005481565b601160009054906101000a900473ffffffffffffffffffffffffffffffffffffffff1681565b600080611e7b8484611fcf565b9050670de0b6b3a7640000611ea4826002670de0b6b3a7640000611e9f9190612752565b61204a565b611eae9190612752565b91505092915050565b600660009054906101000a900473ffffffffffffffffffffffffffffffffffffffff1681565b6201518081611eec9190612783565b600c8190555050565b60008473ffffffffffffffffffffffffffffffffffffffff166323b872dd8585856040518463ffffffff1660e01b8152600401611f34939291906124e5565b602060405180830381600087803b158015611f4e57600080fd5b505af1158015611f62573d6000803e3d6000fd5b505050506040513d601f19601f82011682018060405250810190611f869190612199565b905080611fc8576040517f08c379a0000000000000000000000000000000000000000000000000000000008152600401611fbf9061259b565b60405180910390fd5b5050505050565b600080831415611fe25760009050612044565b60008284611ff09190612783565b9050828482611fff9190612752565b1461203f576040517f08c379a00000000000000000000000000000000000000000000000000000000081526004016120369061261b565b60405180910390fd5b809150505b92915050565b600080828461205991906126fc565b90508381101561209e576040517f08c379a00000000000000000000000000000000000000000000000000000000081526004016120959061261b565b60405180910390fd5b8091505092915050565b60006120bb6120b6846126a4565b61267f565b9050828152602081018484840111156120d7576120d66129ea565b5b6120e284828561289c565b509392505050565b6000813590506120f981612b4c565b92915050565b60008151905061210e81612b63565b92915050565b600082601f830112612129576121286129e5565b5b81356121398482602086016120a8565b91505092915050565b60008135905061215181612b7a565b92915050565b60008151905061216681612b7a565b92915050565b600060208284031215612182576121816129f4565b5b6000612190848285016120ea565b91505092915050565b6000602082840312156121af576121ae6129f4565b5b60006121bd848285016120ff565b91505092915050565b6000602082840312156121dc576121db6129f4565b5b600082013567ffffffffffffffff8111156121fa576121f96129ef565b5b61220684828501612114565b91505092915050565b600080600060608486031215612228576122276129f4565b5b600084013567ffffffffffffffff811115612246576122456129ef565b5b61225286828701612114565b9350506020612263868287016120ea565b925050604061227486828701612142565b9150509250925092565b600060208284031215612294576122936129f4565b5b60006122a284828501612142565b91505092915050565b6000602082840312156122c1576122c06129f4565b5b60006122cf84828501612157565b91505092915050565b600080604083850312156122ef576122ee6129f4565b5b60006122fd85828601612142565b925050602083013567ffffffffffffffff81111561231e5761231d6129ef565b5b61232a85828601612114565b9150509250929050565b6000806040838503121561234b5761234a6129f4565b5b600061235985828601612142565b925050602061236a85828601612142565b9150509250929050565b61237d81612811565b82525050565b61238c81612866565b82525050565b61239b8161282f565b82525050565b60006123ac826126d5565b6123b681856126f1565b93506123c68185602086016128ab565b80840191505092915050565b60006123df6024836126e0565b91506123ea82612a0a565b604082019050919050565b60006124026015836126e0565b915061240d82612a59565b602082019050919050565b6000612425601a836126e0565b915061243082612a82565b602082019050919050565b60006124486015836126e0565b915061245382612aab565b602082019050919050565b600061246b600c836126e0565b915061247682612ad4565b602082019050919050565b600061248e6021836126e0565b915061249982612afd565b604082019050919050565b6124ad8161285c565b82525050565b60006124bf82846123a1565b915081905092915050565b60006020820190506124df6000830184612374565b92915050565b60006060820190506124fa6000830186612374565b6125076020830185612374565b61251460408301846124a4565b949350505050565b60006040820190506125316000830185612374565b61253e60208301846124a4565b9392505050565b600060208201905061255a6000830184612383565b92915050565b60006020820190506125756000830184612392565b92915050565b60006020820190508181036000830152612594816123d2565b9050919050565b600060208201905081810360008301526125b4816123f5565b9050919050565b600060208201905081810360008301526125d481612418565b9050919050565b600060208201905081810360008301526125f48161243b565b9050919050565b600060208201905081810360008301526126148161245e565b9050919050565b6000602082019050818103600083015261263481612481565b9050919050565b600060208201905061265060008301846124a4565b92915050565b600060408201905061266b60008301856124a4565b61267860208301846124a4565b9392505050565b600061268961269a565b905061269582826128de565b919050565b6000604051905090565b600067ffffffffffffffff8211156126bf576126be6129b6565b5b6126c8826129f9565b9050602081019050919050565b600081519050919050565b600082825260208201905092915050565b600081905092915050565b60006127078261285c565b91506127128361285c565b9250827fffffffffffffffffffffffffffffffffffffffffffffffffffffffffffffffff0382111561274757612746612958565b5b828201905092915050565b600061275d8261285c565b91506127688361285c565b92508261277857612777612987565b5b828204905092915050565b600061278e8261285c565b91506127998361285c565b9250817fffffffffffffffffffffffffffffffffffffffffffffffffffffffffffffffff04831182151516156127d2576127d1612958565b5b828202905092915050565b60006127e88261285c565b91506127f38361285c565b92508282101561280657612805612958565b5b828203905092915050565b600061281c8261283c565b9050919050565b60008115159050919050565b600081600f0b9050919050565b600073ffffffffffffffffffffffffffffffffffffffff82169050919050565b6000819050919050565b600061287182612878565b9050919050565b60006128838261288a565b9050919050565b60006128958261283c565b9050919050565b82818337600083830152505050565b60005b838110156128c95780820151818401526020810190506128ae565b838111156128d8576000848401525b50505050565b6128e7826129f9565b810181811067ffffffffffffffff82111715612906576129056129b6565b5b80604052505050565b600061291a8261285c565b91507fffffffffffffffffffffffffffffffffffffffffffffffffffffffffffffffff82141561294d5761294c612958565b5b600182019050919050565b7f4e487b7100000000000000000000000000000000000000000000000000000000600052601160045260246000fd5b7f4e487b7100000000000000000000000000000000000000000000000000000000600052601260045260246000fd5b7f4e487b7100000000000000000000000000000000000000000000000000000000600052604160045260246000fd5b600080fd5b600080fd5b600080fd5b600080fd5b6000601f19601f8301169050919050565b7f596f7520646f6e7420686176652074686174206d75636820746f20776974686460008201527f7261772100000000000000000000000000000000000000000000000000000000602082015250565b7f546f6b656e207472616e73666572206661696c65640000000000000000000000600082015250565b7f596f7520646f6e742068617665207468617420616d6f756e7421000000000000600082015250565b7f506572207472616e73616374696f6e206c696d69740000000000000000000000600082015250565b7f4e6f7420756e6c6f636b65640000000000000000000000000000000000000000600082015250565b7f75696e74206f766572666c6f772066726f6d206d756c7469706c69636174696f60008201527f6e00000000000000000000000000000000000000000000000000000000000000602082015250565b612b5581612811565b8114612b6057600080fd5b50565b612b6c81612823565b8114612b7757600080fd5b50565b612b838161285c565b8114612b8e57600080fd5b5056fea2646970667358221220cc5d8938f7ce9d7f7515f79a84153f005622cc102c19c6c4ac1c1bb56825206764736f6c63430008070033",
					"opcodes": "PUSH1 0x80 PUSH1 0x40 MSTORE PUSH8 0xDE0B6B3A7640000 PUSH2 0xC350 PUSH3 0x1C SWAP2 SWAP1 PUSH3 0x2A0 JUMP JUMPDEST PUSH1 0xA SSTORE PUSH3 0x186A0 PUSH1 0xD SSTORE PUSH3 0x15F90 PUSH1 0xE SSTORE PUSH3 0x927C0 PUSH1 0xF SSTORE PUSH20 0x617F2E2FD72FD9D5503197092AC168C91465E7F2 PUSH1 0x11 PUSH1 0x0 PUSH2 0x100 EXP DUP2 SLOAD DUP2 PUSH20 0xFFFFFFFFFFFFFFFFFFFFFFFFFFFFFFFFFFFFFFFF MUL NOT AND SWAP1 DUP4 PUSH20 0xFFFFFFFFFFFFFFFFFFFFFFFFFFFFFFFFFFFFFFFF AND MUL OR SWAP1 SSTORE POP CALLVALUE DUP1 ISZERO PUSH3 0x96 JUMPI PUSH1 0x0 DUP1 REVERT JUMPDEST POP PUSH1 0x40 MLOAD PUSH3 0x2F64 CODESIZE SUB DUP1 PUSH3 0x2F64 DUP4 CODECOPY DUP2 DUP2 ADD PUSH1 0x40 MSTORE DUP2 ADD SWAP1 PUSH3 0xBC SWAP2 SWAP1 PUSH3 0x259 JUMP JUMPDEST DUP2 PUSH1 0x1A PUSH1 0x0 PUSH2 0x100 EXP DUP2 SLOAD DUP2 PUSH20 0xFFFFFFFFFFFFFFFFFFFFFFFFFFFFFFFFFFFFFFFF MUL NOT AND SWAP1 DUP4 PUSH20 0xFFFFFFFFFFFFFFFFFFFFFFFFFFFFFFFFFFFFFFFF AND MUL OR SWAP1 SSTORE POP DUP1 PUSH1 0x1B PUSH1 0x0 PUSH2 0x100 EXP DUP2 SLOAD DUP2 PUSH20 0xFFFFFFFFFFFFFFFFFFFFFFFFFFFFFFFFFFFFFFFF MUL NOT AND SWAP1 DUP4 PUSH20 0xFFFFFFFFFFFFFFFFFFFFFFFFFFFFFFFFFFFFFFFF AND MUL OR SWAP1 SSTORE POP DUP2 PUSH1 0x12 PUSH1 0x0 PUSH2 0x100 EXP DUP2 SLOAD DUP2 PUSH20 0xFFFFFFFFFFFFFFFFFFFFFFFFFFFFFFFFFFFFFFFF MUL NOT AND SWAP1 DUP4 PUSH20 0xFFFFFFFFFFFFFFFFFFFFFFFFFFFFFFFFFFFFFFFF AND MUL OR SWAP1 SSTORE POP PUSH20 0x2F8895B08D8F226B19895D46154FAB7096FB2593 PUSH1 0x13 PUSH1 0x0 PUSH2 0x100 EXP DUP2 SLOAD DUP2 PUSH20 0xFFFFFFFFFFFFFFFFFFFFFFFFFFFFFFFFFFFFFFFF MUL NOT AND SWAP1 DUP4 PUSH20 0xFFFFFFFFFFFFFFFFFFFFFFFFFFFFFFFFFFFFFFFF AND MUL OR SWAP1 SSTORE POP PUSH20 0x617F2E2FD72FD9D5503197092AC168C91465E7F2 PUSH1 0x6 PUSH1 0x0 PUSH2 0x100 EXP DUP2 SLOAD DUP2 PUSH20 0xFFFFFFFFFFFFFFFFFFFFFFFFFFFFFFFFFFFFFFFF MUL NOT AND SWAP1 DUP4 PUSH20 0xFFFFFFFFFFFFFFFFFFFFFFFFFFFFFFFFFFFFFFFF AND MUL OR SWAP1 SSTORE POP TIMESTAMP PUSH1 0xB DUP2 SWAP1 SSTORE POP PUSH3 0x69780 PUSH1 0xC DUP2 SWAP1 SSTORE POP POP POP PUSH3 0x38D JUMP JUMPDEST PUSH1 0x0 DUP2 MLOAD SWAP1 POP PUSH3 0x253 DUP2 PUSH3 0x373 JUMP JUMPDEST SWAP3 SWAP2 POP POP JUMP JUMPDEST PUSH1 0x0 DUP1 PUSH1 0x40 DUP4 DUP6 SUB SLT ISZERO PUSH3 0x273 JUMPI PUSH3 0x272 PUSH3 0x36E JUMP JUMPDEST JUMPDEST PUSH1 0x0 PUSH3 0x283 DUP6 DUP3 DUP7 ADD PUSH3 0x242 JUMP JUMPDEST SWAP3 POP POP PUSH1 0x20 PUSH3 0x296 DUP6 DUP3 DUP7 ADD PUSH3 0x242 JUMP JUMPDEST SWAP2 POP POP SWAP3 POP SWAP3 SWAP1 POP JUMP JUMPDEST PUSH1 0x0 PUSH3 0x2AD DUP3 PUSH3 0x335 JUMP JUMPDEST SWAP2 POP PUSH3 0x2BA DUP4 PUSH3 0x335 JUMP JUMPDEST SWAP3 POP DUP2 PUSH32 0xFFFFFFFFFFFFFFFFFFFFFFFFFFFFFFFFFFFFFFFFFFFFFFFFFFFFFFFFFFFFFFFF DIV DUP4 GT DUP3 ISZERO ISZERO AND ISZERO PUSH3 0x2F6 JUMPI PUSH3 0x2F5 PUSH3 0x33F JUMP JUMPDEST JUMPDEST DUP3 DUP3 MUL SWAP1 POP SWAP3 SWAP2 POP POP JUMP JUMPDEST PUSH1 0x0 PUSH3 0x30E DUP3 PUSH3 0x315 JUMP JUMPDEST SWAP1 POP SWAP2 SWAP1 POP JUMP JUMPDEST PUSH1 0x0 PUSH20 0xFFFFFFFFFFFFFFFFFFFFFFFFFFFFFFFFFFFFFFFF DUP3 AND SWAP1 POP SWAP2 SWAP1 POP JUMP JUMPDEST PUSH1 0x0 DUP2 SWAP1 POP SWAP2 SWAP1 POP JUMP JUMPDEST PUSH32 0x4E487B7100000000000000000000000000000000000000000000000000000000 PUSH1 0x0 MSTORE PUSH1 0x11 PUSH1 0x4 MSTORE PUSH1 0x24 PUSH1 0x0 REVERT JUMPDEST PUSH1 0x0 DUP1 REVERT JUMPDEST PUSH3 0x37E DUP2 PUSH3 0x301 JUMP JUMPDEST DUP2 EQ PUSH3 0x38A JUMPI PUSH1 0x0 DUP1 REVERT JUMPDEST POP JUMP JUMPDEST PUSH2 0x2BC7 DUP1 PUSH3 0x39D PUSH1 0x0 CODECOPY PUSH1 0x0 RETURN INVALID PUSH1 0x80 PUSH1 0x40 MSTORE PUSH1 0x4 CALLDATASIZE LT PUSH2 0x230 JUMPI PUSH1 0x0 CALLDATALOAD PUSH1 0xE0 SHR DUP1 PUSH4 0x67E927A8 GT PUSH2 0x12E JUMPI DUP1 PUSH4 0xC079D7F6 GT PUSH2 0xAB JUMPI DUP1 PUSH4 0xEE620868 GT PUSH2 0x6F JUMPI DUP1 PUSH4 0xEE620868 EQ PUSH2 0x82D JUMPI DUP1 PUSH4 0xEEE05F5E EQ PUSH2 0x858 JUMPI DUP1 PUSH4 0xF7523C52 EQ PUSH2 0x883 JUMPI DUP1 PUSH4 0xFBBB4589 EQ PUSH2 0x8C0 JUMPI DUP1 PUSH4 0xFC361443 EQ PUSH2 0x8EB JUMPI PUSH2 0x230 JUMP JUMPDEST DUP1 PUSH4 0xC079D7F6 EQ PUSH2 0x758 JUMPI DUP1 PUSH4 0xCBFF4617 EQ PUSH2 0x783 JUMPI DUP1 PUSH4 0xD82EDDF2 EQ PUSH2 0x7AE JUMPI DUP1 PUSH4 0xE5D98082 EQ PUSH2 0x7D9 JUMPI DUP1 PUSH4 0xEE467678 EQ PUSH2 0x802 JUMPI PUSH2 0x230 JUMP JUMPDEST DUP1 PUSH4 0x862D1B35 GT PUSH2 0xF2 JUMPI DUP1 PUSH4 0x862D1B35 EQ PUSH2 0x674 JUMPI DUP1 PUSH4 0x93F7B711 EQ PUSH2 0x69D JUMPI DUP1 PUSH4 0x9B19251A EQ PUSH2 0x6C8 JUMPI DUP1 PUSH4 0xA475BF48 EQ PUSH2 0x6F1 JUMPI DUP1 PUSH4 0xBCD323CB EQ PUSH2 0x72F JUMPI PUSH2 0x230 JUMP JUMPDEST DUP1 PUSH4 0x67E927A8 EQ PUSH2 0x59F JUMPI DUP1 PUSH4 0x6E05C1B9 EQ PUSH2 0x5C8 JUMPI DUP1 PUSH4 0x6F10E285 EQ PUSH2 0x5F3 JUMPI DUP1 PUSH4 0x7087A7A5 EQ PUSH2 0x61E JUMPI DUP1 PUSH4 0x71CD58F9 EQ PUSH2 0x649 JUMPI PUSH2 0x230 JUMP JUMPDEST DUP1 PUSH4 0x1F564A06 GT PUSH2 0x1BC JUMPI DUP1 PUSH4 0x3C6EB17A GT PUSH2 0x180 JUMPI DUP1 PUSH4 0x3C6EB17A EQ PUSH2 0x4C5 JUMPI DUP1 PUSH4 0x43D32E9C EQ PUSH2 0x4F0 JUMPI DUP1 PUSH4 0x63D03361 EQ PUSH2 0x51B JUMPI DUP1 PUSH4 0x64CE07D8 EQ PUSH2 0x537 JUMPI DUP1 PUSH4 0x67B48C91 EQ PUSH2 0x574 JUMPI PUSH2 0x230 JUMP JUMPDEST DUP1 PUSH4 0x1F564A06 EQ PUSH2 0x3DE JUMPI DUP1 PUSH4 0x29982A32 EQ PUSH2 0x409 JUMPI DUP1 PUSH4 0x2A9F0FB1 EQ PUSH2 0x434 JUMPI DUP1 PUSH4 0x35453307 EQ PUSH2 0x471 JUMPI DUP1 PUSH4 0x39AD95D6 EQ PUSH2 0x49C JUMPI PUSH2 0x230 JUMP JUMPDEST DUP1 PUSH4 0x12B2ED94 GT PUSH2 0x203 JUMPI DUP1 PUSH4 0x12B2ED94 EQ PUSH2 0x2E1 JUMPI DUP1 PUSH4 0x1514C976 EQ PUSH2 0x31F JUMPI DUP1 PUSH4 0x164C8501 EQ PUSH2 0x35C JUMPI DUP1 PUSH4 0x1A30E872 EQ PUSH2 0x385 JUMPI DUP1 PUSH4 0x1BC9CC45 EQ PUSH2 0x3C2 JUMPI PUSH2 0x230 JUMP JUMPDEST DUP1 PUSH4 0x18A25E8 EQ PUSH2 0x235 JUMPI DUP1 PUSH4 0x47729B0 EQ PUSH2 0x260 JUMPI DUP1 PUSH4 0xCCAF04F EQ PUSH2 0x28B JUMPI DUP1 PUSH4 0xF65DE3E EQ PUSH2 0x2B6 JUMPI JUMPDEST PUSH1 0x0 DUP1 REVERT JUMPDEST CALLVALUE DUP1 ISZERO PUSH2 0x241 JUMPI PUSH1 0x0 DUP1 REVERT JUMPDEST POP PUSH2 0x24A PUSH2 0x914 JUMP JUMPDEST PUSH1 0x40 MLOAD PUSH2 0x257 SWAP2 SWAP1 PUSH2 0x263B JUMP JUMPDEST PUSH1 0x40 MLOAD DUP1 SWAP2 SUB SWAP1 RETURN JUMPDEST CALLVALUE DUP1 ISZERO PUSH2 0x26C JUMPI PUSH1 0x0 DUP1 REVERT JUMPDEST POP PUSH2 0x275 PUSH2 0xA32 JUMP JUMPDEST PUSH1 0x40 MLOAD PUSH2 0x282 SWAP2 SWAP1 PUSH2 0x24CA JUMP JUMPDEST PUSH1 0x40 MLOAD DUP1 SWAP2 SUB SWAP1 RETURN JUMPDEST CALLVALUE DUP1 ISZERO PUSH2 0x297 JUMPI PUSH1 0x0 DUP1 REVERT JUMPDEST POP PUSH2 0x2A0 PUSH2 0xA58 JUMP JUMPDEST PUSH1 0x40 MLOAD PUSH2 0x2AD SWAP2 SWAP1 PUSH2 0x263B JUMP JUMPDEST PUSH1 0x40 MLOAD DUP1 SWAP2 SUB SWAP1 RETURN JUMPDEST CALLVALUE DUP1 ISZERO PUSH2 0x2C2 JUMPI PUSH1 0x0 DUP1 REVERT JUMPDEST POP PUSH2 0x2CB PUSH2 0xBB2 JUMP JUMPDEST PUSH1 0x40 MLOAD PUSH2 0x2D8 SWAP2 SWAP1 PUSH2 0x263B JUMP JUMPDEST PUSH1 0x40 MLOAD DUP1 SWAP2 SUB SWAP1 RETURN JUMPDEST CALLVALUE DUP1 ISZERO PUSH2 0x2ED JUMPI PUSH1 0x0 DUP1 REVERT JUMPDEST POP PUSH2 0x308 PUSH1 0x4 DUP1 CALLDATASIZE SUB DUP2 ADD SWAP1 PUSH2 0x303 SWAP2 SWAP1 PUSH2 0x216C JUMP JUMPDEST PUSH2 0xBB7 JUMP JUMPDEST PUSH1 0x40 MLOAD PUSH2 0x316 SWAP3 SWAP2 SWAP1 PUSH2 0x2656 JUMP JUMPDEST PUSH1 0x40 MLOAD DUP1 SWAP2 SUB SWAP1 RETURN JUMPDEST CALLVALUE DUP1 ISZERO PUSH2 0x32B JUMPI PUSH1 0x0 DUP1 REVERT JUMPDEST POP PUSH2 0x346 PUSH1 0x4 DUP1 CALLDATASIZE SUB DUP2 ADD SWAP1 PUSH2 0x341 SWAP2 SWAP1 PUSH2 0x227E JUMP JUMPDEST PUSH2 0xBDB JUMP JUMPDEST PUSH1 0x40 MLOAD PUSH2 0x353 SWAP2 SWAP1 PUSH2 0x263B JUMP JUMPDEST PUSH1 0x40 MLOAD DUP1 SWAP2 SUB SWAP1 RETURN JUMPDEST CALLVALUE DUP1 ISZERO PUSH2 0x368 JUMPI PUSH1 0x0 DUP1 REVERT JUMPDEST POP PUSH2 0x383 PUSH1 0x4 DUP1 CALLDATASIZE SUB DUP2 ADD SWAP1 PUSH2 0x37E SWAP2 SWAP1 PUSH2 0x227E JUMP JUMPDEST PUSH2 0xBF3 JUMP JUMPDEST STOP JUMPDEST CALLVALUE DUP1 ISZERO PUSH2 0x391 JUMPI PUSH1 0x0 DUP1 REVERT JUMPDEST POP PUSH2 0x3AC PUSH1 0x4 DUP1 CALLDATASIZE SUB DUP2 ADD SWAP1 PUSH2 0x3A7 SWAP2 SWAP1 PUSH2 0x227E JUMP JUMPDEST PUSH2 0xD71 JUMP JUMPDEST PUSH1 0x40 MLOAD PUSH2 0x3B9 SWAP2 SWAP1 PUSH2 0x263B JUMP JUMPDEST PUSH1 0x40 MLOAD DUP1 SWAP2 SUB SWAP1 RETURN JUMPDEST PUSH2 0x3DC PUSH1 0x4 DUP1 CALLDATASIZE SUB DUP2 ADD SWAP1 PUSH2 0x3D7 SWAP2 SWAP1 PUSH2 0x227E JUMP JUMPDEST PUSH2 0xD89 JUMP JUMPDEST STOP JUMPDEST CALLVALUE DUP1 ISZERO PUSH2 0x3EA JUMPI PUSH1 0x0 DUP1 REVERT JUMPDEST POP PUSH2 0x3F3 PUSH2 0xF21 JUMP JUMPDEST PUSH1 0x40 MLOAD PUSH2 0x400 SWAP2 SWAP1 PUSH2 0x263B JUMP JUMPDEST PUSH1 0x40 MLOAD DUP1 SWAP2 SUB SWAP1 RETURN JUMPDEST CALLVALUE DUP1 ISZERO PUSH2 0x415 JUMPI PUSH1 0x0 DUP1 REVERT JUMPDEST POP PUSH2 0x41E PUSH2 0xFD3 JUMP JUMPDEST PUSH1 0x40 MLOAD PUSH2 0x42B SWAP2 SWAP1 PUSH2 0x24CA JUMP JUMPDEST PUSH1 0x40 MLOAD DUP1 SWAP2 SUB SWAP1 RETURN JUMPDEST CALLVALUE DUP1 ISZERO PUSH2 0x440 JUMPI PUSH1 0x0 DUP1 REVERT JUMPDEST POP PUSH2 0x45B PUSH1 0x4 DUP1 CALLDATASIZE SUB DUP2 ADD SWAP1 PUSH2 0x456 SWAP2 SWAP1 PUSH2 0x227E JUMP JUMPDEST PUSH2 0xFF9 JUMP JUMPDEST PUSH1 0x40 MLOAD PUSH2 0x468 SWAP2 SWAP1 PUSH2 0x263B JUMP JUMPDEST PUSH1 0x40 MLOAD DUP1 SWAP2 SUB SWAP1 RETURN JUMPDEST CALLVALUE DUP1 ISZERO PUSH2 0x47D JUMPI PUSH1 0x0 DUP1 REVERT JUMPDEST POP PUSH2 0x486 PUSH2 0x1011 JUMP JUMPDEST PUSH1 0x40 MLOAD PUSH2 0x493 SWAP2 SWAP1 PUSH2 0x263B JUMP JUMPDEST PUSH1 0x40 MLOAD DUP1 SWAP2 SUB SWAP1 RETURN JUMPDEST CALLVALUE DUP1 ISZERO PUSH2 0x4A8 JUMPI PUSH1 0x0 DUP1 REVERT JUMPDEST POP PUSH2 0x4C3 PUSH1 0x4 DUP1 CALLDATASIZE SUB DUP2 ADD SWAP1 PUSH2 0x4BE SWAP2 SWAP1 PUSH2 0x227E JUMP JUMPDEST PUSH2 0x1017 JUMP JUMPDEST STOP JUMPDEST CALLVALUE DUP1 ISZERO PUSH2 0x4D1 JUMPI PUSH1 0x0 DUP1 REVERT JUMPDEST POP PUSH2 0x4DA PUSH2 0x101A JUMP JUMPDEST PUSH1 0x40 MLOAD PUSH2 0x4E7 SWAP2 SWAP1 PUSH2 0x263B JUMP JUMPDEST PUSH1 0x40 MLOAD DUP1 SWAP2 SUB SWAP1 RETURN JUMPDEST CALLVALUE DUP1 ISZERO PUSH2 0x4FC JUMPI PUSH1 0x0 DUP1 REVERT JUMPDEST POP PUSH2 0x505 PUSH2 0x1020 JUMP JUMPDEST PUSH1 0x40 MLOAD PUSH2 0x512 SWAP2 SWAP1 PUSH2 0x263B JUMP JUMPDEST PUSH1 0x40 MLOAD DUP1 SWAP2 SUB SWAP1 RETURN JUMPDEST PUSH2 0x535 PUSH1 0x4 DUP1 CALLDATASIZE SUB DUP2 ADD SWAP1 PUSH2 0x530 SWAP2 SWAP1 PUSH2 0x2334 JUMP JUMPDEST PUSH2 0x113E JUMP JUMPDEST STOP JUMPDEST CALLVALUE DUP1 ISZERO PUSH2 0x543 JUMPI PUSH1 0x0 DUP1 REVERT JUMPDEST POP PUSH2 0x55E PUSH1 0x4 DUP1 CALLDATASIZE SUB DUP2 ADD SWAP1 PUSH2 0x559 SWAP2 SWAP1 PUSH2 0x2334 JUMP JUMPDEST PUSH2 0x1434 JUMP JUMPDEST PUSH1 0x40 MLOAD PUSH2 0x56B SWAP2 SWAP1 PUSH2 0x263B JUMP JUMPDEST PUSH1 0x40 MLOAD DUP1 SWAP2 SUB SWAP1 RETURN JUMPDEST CALLVALUE DUP1 ISZERO PUSH2 0x580 JUMPI PUSH1 0x0 DUP1 REVERT JUMPDEST POP PUSH2 0x589 PUSH2 0x1475 JUMP JUMPDEST PUSH1 0x40 MLOAD PUSH2 0x596 SWAP2 SWAP1 PUSH2 0x263B JUMP JUMPDEST PUSH1 0x40 MLOAD DUP1 SWAP2 SUB SWAP1 RETURN JUMPDEST CALLVALUE DUP1 ISZERO PUSH2 0x5AB JUMPI PUSH1 0x0 DUP1 REVERT JUMPDEST POP PUSH2 0x5C6 PUSH1 0x4 DUP1 CALLDATASIZE SUB DUP2 ADD SWAP1 PUSH2 0x5C1 SWAP2 SWAP1 PUSH2 0x227E JUMP JUMPDEST PUSH2 0x147B JUMP JUMPDEST STOP JUMPDEST CALLVALUE DUP1 ISZERO PUSH2 0x5D4 JUMPI PUSH1 0x0 DUP1 REVERT JUMPDEST POP PUSH2 0x5DD PUSH2 0x152C JUMP JUMPDEST PUSH1 0x40 MLOAD PUSH2 0x5EA SWAP2 SWAP1 PUSH2 0x2545 JUMP JUMPDEST PUSH1 0x40 MLOAD DUP1 SWAP2 SUB SWAP1 RETURN JUMPDEST CALLVALUE DUP1 ISZERO PUSH2 0x5FF JUMPI PUSH1 0x0 DUP1 REVERT JUMPDEST POP PUSH2 0x608 PUSH2 0x1552 JUMP JUMPDEST PUSH1 0x40 MLOAD PUSH2 0x615 SWAP2 SWAP1 PUSH2 0x2560 JUMP JUMPDEST PUSH1 0x40 MLOAD DUP1 SWAP2 SUB SWAP1 RETURN JUMPDEST CALLVALUE DUP1 ISZERO PUSH2 0x62A JUMPI PUSH1 0x0 DUP1 REVERT JUMPDEST POP PUSH2 0x633 PUSH2 0x1565 JUMP JUMPDEST PUSH1 0x40 MLOAD PUSH2 0x640 SWAP2 SWAP1 PUSH2 0x2545 JUMP JUMPDEST PUSH1 0x40 MLOAD DUP1 SWAP2 SUB SWAP1 RETURN JUMPDEST CALLVALUE DUP1 ISZERO PUSH2 0x655 JUMPI PUSH1 0x0 DUP1 REVERT JUMPDEST POP PUSH2 0x65E PUSH2 0x158B JUMP JUMPDEST PUSH1 0x40 MLOAD PUSH2 0x66B SWAP2 SWAP1 PUSH2 0x263B JUMP JUMPDEST PUSH1 0x40 MLOAD DUP1 SWAP2 SUB SWAP1 RETURN JUMPDEST CALLVALUE DUP1 ISZERO PUSH2 0x680 JUMPI PUSH1 0x0 DUP1 REVERT JUMPDEST POP PUSH2 0x69B PUSH1 0x4 DUP1 CALLDATASIZE SUB DUP2 ADD SWAP1 PUSH2 0x696 SWAP2 SWAP1 PUSH2 0x22D8 JUMP JUMPDEST PUSH2 0x1642 JUMP JUMPDEST STOP JUMPDEST CALLVALUE DUP1 ISZERO PUSH2 0x6A9 JUMPI PUSH1 0x0 DUP1 REVERT JUMPDEST POP PUSH2 0x6B2 PUSH2 0x1A4D JUMP JUMPDEST PUSH1 0x40 MLOAD PUSH2 0x6BF SWAP2 SWAP1 PUSH2 0x263B JUMP JUMPDEST PUSH1 0x40 MLOAD DUP1 SWAP2 SUB SWAP1 RETURN JUMPDEST CALLVALUE DUP1 ISZERO PUSH2 0x6D4 JUMPI PUSH1 0x0 DUP1 REVERT JUMPDEST POP PUSH2 0x6EF PUSH1 0x4 DUP1 CALLDATASIZE SUB DUP2 ADD SWAP1 PUSH2 0x6EA SWAP2 SWAP1 PUSH2 0x216C JUMP JUMPDEST PUSH2 0x1BA7 JUMP JUMPDEST STOP JUMPDEST CALLVALUE DUP1 ISZERO PUSH2 0x6FD JUMPI PUSH1 0x0 DUP1 REVERT JUMPDEST POP PUSH2 0x718 PUSH1 0x4 DUP1 CALLDATASIZE SUB DUP2 ADD SWAP1 PUSH2 0x713 SWAP2 SWAP1 PUSH2 0x21C6 JUMP JUMPDEST PUSH2 0x1BAA JUMP JUMPDEST PUSH1 0x40 MLOAD PUSH2 0x726 SWAP3 SWAP2 SWAP1 PUSH2 0x251C JUMP JUMPDEST PUSH1 0x40 MLOAD DUP1 SWAP2 SUB SWAP1 RETURN JUMPDEST CALLVALUE DUP1 ISZERO PUSH2 0x73B JUMPI PUSH1 0x0 DUP1 REVERT JUMPDEST POP PUSH2 0x756 PUSH1 0x4 DUP1 CALLDATASIZE SUB DUP2 ADD SWAP1 PUSH2 0x751 SWAP2 SWAP1 PUSH2 0x216C JUMP JUMPDEST PUSH2 0x1C04 JUMP JUMPDEST STOP JUMPDEST CALLVALUE DUP1 ISZERO PUSH2 0x764 JUMPI PUSH1 0x0 DUP1 REVERT JUMPDEST POP PUSH2 0x76D PUSH2 0x1D02 JUMP JUMPDEST PUSH1 0x40 MLOAD PUSH2 0x77A SWAP2 SWAP1 PUSH2 0x24CA JUMP JUMPDEST PUSH1 0x40 MLOAD DUP1 SWAP2 SUB SWAP1 RETURN JUMPDEST CALLVALUE DUP1 ISZERO PUSH2 0x78F JUMPI PUSH1 0x0 DUP1 REVERT JUMPDEST POP PUSH2 0x798 PUSH2 0x1D28 JUMP JUMPDEST PUSH1 0x40 MLOAD PUSH2 0x7A5 SWAP2 SWAP1 PUSH2 0x263B JUMP JUMPDEST PUSH1 0x40 MLOAD DUP1 SWAP2 SUB SWAP1 RETURN JUMPDEST CALLVALUE DUP1 ISZERO PUSH2 0x7BA JUMPI PUSH1 0x0 DUP1 REVERT JUMPDEST POP PUSH2 0x7C3 PUSH2 0x1D2E JUMP JUMPDEST PUSH1 0x40 MLOAD PUSH2 0x7D0 SWAP2 SWAP1 PUSH2 0x263B JUMP JUMPDEST PUSH1 0x40 MLOAD DUP1 SWAP2 SUB SWAP1 RETURN JUMPDEST CALLVALUE DUP1 ISZERO PUSH2 0x7E5 JUMPI PUSH1 0x0 DUP1 REVERT JUMPDEST POP PUSH2 0x800 PUSH1 0x4 DUP1 CALLDATASIZE SUB DUP2 ADD SWAP1 PUSH2 0x7FB SWAP2 SWAP1 PUSH2 0x220F JUMP JUMPDEST PUSH2 0x1D91 JUMP JUMPDEST STOP JUMPDEST CALLVALUE DUP1 ISZERO PUSH2 0x80E JUMPI PUSH1 0x0 DUP1 REVERT JUMPDEST POP PUSH2 0x817 PUSH2 0x1E1C JUMP JUMPDEST PUSH1 0x40 MLOAD PUSH2 0x824 SWAP2 SWAP1 PUSH2 0x2545 JUMP JUMPDEST PUSH1 0x40 MLOAD DUP1 SWAP2 SUB SWAP1 RETURN JUMPDEST CALLVALUE DUP1 ISZERO PUSH2 0x839 JUMPI PUSH1 0x0 DUP1 REVERT JUMPDEST POP PUSH2 0x842 PUSH2 0x1E42 JUMP JUMPDEST PUSH1 0x40 MLOAD PUSH2 0x84F SWAP2 SWAP1 PUSH2 0x263B JUMP JUMPDEST PUSH1 0x40 MLOAD DUP1 SWAP2 SUB SWAP1 RETURN JUMPDEST CALLVALUE DUP1 ISZERO PUSH2 0x864 JUMPI PUSH1 0x0 DUP1 REVERT JUMPDEST POP PUSH2 0x86D PUSH2 0x1E48 JUMP JUMPDEST PUSH1 0x40 MLOAD PUSH2 0x87A SWAP2 SWAP1 PUSH2 0x24CA JUMP JUMPDEST PUSH1 0x40 MLOAD DUP1 SWAP2 SUB SWAP1 RETURN JUMPDEST CALLVALUE DUP1 ISZERO PUSH2 0x88F JUMPI PUSH1 0x0 DUP1 REVERT JUMPDEST POP PUSH2 0x8AA PUSH1 0x4 DUP1 CALLDATASIZE SUB DUP2 ADD SWAP1 PUSH2 0x8A5 SWAP2 SWAP1 PUSH2 0x2334 JUMP JUMPDEST PUSH2 0x1E6E JUMP JUMPDEST PUSH1 0x40 MLOAD PUSH2 0x8B7 SWAP2 SWAP1 PUSH2 0x263B JUMP JUMPDEST PUSH1 0x40 MLOAD DUP1 SWAP2 SUB SWAP1 RETURN JUMPDEST CALLVALUE DUP1 ISZERO PUSH2 0x8CC JUMPI PUSH1 0x0 DUP1 REVERT JUMPDEST POP PUSH2 0x8D5 PUSH2 0x1EB7 JUMP JUMPDEST PUSH1 0x40 MLOAD PUSH2 0x8E2 SWAP2 SWAP1 PUSH2 0x24CA JUMP JUMPDEST PUSH1 0x40 MLOAD DUP1 SWAP2 SUB SWAP1 RETURN JUMPDEST CALLVALUE DUP1 ISZERO PUSH2 0x8F7 JUMPI PUSH1 0x0 DUP1 REVERT JUMPDEST POP PUSH2 0x912 PUSH1 0x4 DUP1 CALLDATASIZE SUB DUP2 ADD SWAP1 PUSH2 0x90D SWAP2 SWAP1 PUSH2 0x227E JUMP JUMPDEST PUSH2 0x1EDD JUMP JUMPDEST STOP JUMPDEST PUSH1 0x0 PUSH2 0xA2D ADDRESS PUSH20 0xFFFFFFFFFFFFFFFFFFFFFFFFFFFFFFFFFFFFFFFF AND PUSH4 0x1F564A06 PUSH1 0x40 MLOAD DUP2 PUSH4 0xFFFFFFFF AND PUSH1 0xE0 SHL DUP2 MSTORE PUSH1 0x4 ADD PUSH1 0x20 PUSH1 0x40 MLOAD DUP1 DUP4 SUB DUP2 DUP7 DUP1 EXTCODESIZE ISZERO DUP1 ISZERO PUSH2 0x95F JUMPI PUSH1 0x0 DUP1 REVERT JUMPDEST POP GAS STATICCALL ISZERO DUP1 ISZERO PUSH2 0x973 JUMPI RETURNDATASIZE PUSH1 0x0 DUP1 RETURNDATACOPY RETURNDATASIZE PUSH1 0x0 REVERT JUMPDEST POP POP POP POP PUSH1 0x40 MLOAD RETURNDATASIZE PUSH1 0x1F NOT PUSH1 0x1F DUP3 ADD AND DUP3 ADD DUP1 PUSH1 0x40 MSTORE POP DUP2 ADD SWAP1 PUSH2 0x997 SWAP2 SWAP1 PUSH2 0x22AB JUMP JUMPDEST ADDRESS PUSH20 0xFFFFFFFFFFFFFFFFFFFFFFFFFFFFFFFFFFFFFFFF AND PUSH4 0x93F7B711 PUSH1 0x40 MLOAD DUP2 PUSH4 0xFFFFFFFF AND PUSH1 0xE0 SHL DUP2 MSTORE PUSH1 0x4 ADD PUSH1 0x20 PUSH1 0x40 MLOAD DUP1 DUP4 SUB DUP2 DUP7 DUP1 EXTCODESIZE ISZERO DUP1 ISZERO PUSH2 0x9DD JUMPI PUSH1 0x0 DUP1 REVERT JUMPDEST POP GAS STATICCALL ISZERO DUP1 ISZERO PUSH2 0x9F1 JUMPI RETURNDATASIZE PUSH1 0x0 DUP1 RETURNDATACOPY RETURNDATASIZE PUSH1 0x0 REVERT JUMPDEST POP POP POP POP PUSH1 0x40 MLOAD RETURNDATASIZE PUSH1 0x1F NOT PUSH1 0x1F DUP3 ADD AND DUP3 ADD DUP1 PUSH1 0x40 MSTORE POP DUP2 ADD SWAP1 PUSH2 0xA15 SWAP2 SWAP1 PUSH2 0x22AB JUMP JUMPDEST PUSH8 0x10A741A462780000 PUSH2 0xA28 SWAP2 SWAP1 PUSH2 0x26FC JUMP JUMPDEST PUSH2 0x1E6E JUMP JUMPDEST SWAP1 POP SWAP1 JUMP JUMPDEST PUSH1 0x8 PUSH1 0x0 SWAP1 SLOAD SWAP1 PUSH2 0x100 EXP SWAP1 DIV PUSH20 0xFFFFFFFFFFFFFFFFFFFFFFFFFFFFFFFFFFFFFFFF AND DUP2 JUMP JUMPDEST PUSH1 0x0 DUP1 PUSH1 0x0 DUP1 PUSH3 0x15180 PUSH1 0xC SLOAD PUSH2 0xA6F SWAP2 SWAP1 PUSH2 0x2752 JUMP JUMPDEST SWAP1 POP PUSH1 0x0 PUSH3 0x15180 PUSH1 0xB SLOAD TIMESTAMP PUSH2 0xA85 SWAP2 SWAP1 PUSH2 0x27DD JUMP JUMPDEST PUSH2 0xA8F SWAP2 SWAP1 PUSH2 0x2752 JUMP JUMPDEST SWAP1 POP PUSH1 0x0 DUP1 DUP3 EQ ISZERO PUSH2 0xAB6 JUMPI PUSH1 0x17 PUSH1 0x0 DUP1 DUP2 MSTORE PUSH1 0x20 ADD SWAP1 DUP2 MSTORE PUSH1 0x20 ADD PUSH1 0x0 KECCAK256 SLOAD SWAP4 POP PUSH2 0xB02 JUMP JUMPDEST DUP3 DUP3 PUSH2 0xAC2 SWAP2 SWAP1 PUSH2 0x27DD JUMP JUMPDEST SWAP1 POP JUMPDEST DUP2 DUP2 LT ISZERO PUSH2 0xB01 JUMPI PUSH1 0x17 PUSH1 0x0 DUP3 DUP2 MSTORE PUSH1 0x20 ADD SWAP1 DUP2 MSTORE PUSH1 0x20 ADD PUSH1 0x0 KECCAK256 SLOAD DUP5 PUSH2 0xAEC SWAP2 SWAP1 PUSH2 0x26FC JUMP JUMPDEST SWAP4 POP DUP1 DUP1 PUSH2 0xAF9 SWAP1 PUSH2 0x290F JUMP JUMPDEST SWAP2 POP POP PUSH2 0xAC5 JUMP JUMPDEST JUMPDEST PUSH2 0xB89 ADDRESS PUSH20 0xFFFFFFFFFFFFFFFFFFFFFFFFFFFFFFFFFFFFFFFF AND PUSH4 0xD82EDDF2 PUSH1 0x40 MLOAD DUP2 PUSH4 0xFFFFFFFF AND PUSH1 0xE0 SHL DUP2 MSTORE PUSH1 0x4 ADD PUSH1 0x20 PUSH1 0x40 MLOAD DUP1 DUP4 SUB DUP2 DUP7 DUP1 EXTCODESIZE ISZERO DUP1 ISZERO PUSH2 0xB4B JUMPI PUSH1 0x0 DUP1 REVERT JUMPDEST POP GAS STATICCALL ISZERO DUP1 ISZERO PUSH2 0xB5F JUMPI RETURNDATASIZE PUSH1 0x0 DUP1 RETURNDATACOPY RETURNDATASIZE PUSH1 0x0 REVERT JUMPDEST POP POP POP POP PUSH1 0x40 MLOAD RETURNDATASIZE PUSH1 0x1F NOT PUSH1 0x1F DUP3 ADD AND DUP3 ADD DUP1 PUSH1 0x40 MSTORE POP DUP2 ADD SWAP1 PUSH2 0xB83 SWAP2 SWAP1 PUSH2 0x22AB JUMP JUMPDEST DUP6 PUSH2 0x1434 JUMP JUMPDEST SWAP5 POP PUSH8 0x429D069189E0000 DUP6 GT ISZERO PUSH2 0xBA7 JUMPI PUSH8 0x429D069189E0000 SWAP5 POP JUMPDEST DUP5 SWAP6 POP POP POP POP POP POP SWAP1 JUMP JUMPDEST PUSH1 0x0 SWAP1 JUMP JUMPDEST PUSH1 0x19 PUSH1 0x20 MSTORE DUP1 PUSH1 0x0 MSTORE PUSH1 0x40 PUSH1 0x0 KECCAK256 PUSH1 0x0 SWAP2 POP SWAP1 POP DUP1 PUSH1 0x0 ADD SLOAD SWAP1 DUP1 PUSH1 0x1 ADD SLOAD SWAP1 POP DUP3 JUMP JUMPDEST PUSH1 0x16 PUSH1 0x20 MSTORE DUP1 PUSH1 0x0 MSTORE PUSH1 0x40 PUSH1 0x0 KECCAK256 PUSH1 0x0 SWAP2 POP SWAP1 POP SLOAD DUP2 JUMP JUMPDEST PUSH1 0x19 PUSH1 0x0 CALLER PUSH20 0xFFFFFFFFFFFFFFFFFFFFFFFFFFFFFFFFFFFFFFFF AND PUSH20 0xFFFFFFFFFFFFFFFFFFFFFFFFFFFFFFFFFFFFFFFF AND DUP2 MSTORE PUSH1 0x20 ADD SWAP1 DUP2 MSTORE PUSH1 0x20 ADD PUSH1 0x0 KECCAK256 PUSH1 0x1 ADD SLOAD DUP2 LT PUSH2 0xC77 JUMPI PUSH1 0x40 MLOAD PUSH32 0x8C379A000000000000000000000000000000000000000000000000000000000 DUP2 MSTORE PUSH1 0x4 ADD PUSH2 0xC6E SWAP1 PUSH2 0x257B JUMP JUMPDEST PUSH1 0x40 MLOAD DUP1 SWAP2 SUB SWAP1 REVERT JUMPDEST DUP1 PUSH1 0x19 PUSH1 0x0 CALLER PUSH20 0xFFFFFFFFFFFFFFFFFFFFFFFFFFFFFFFFFFFFFFFF AND PUSH20 0xFFFFFFFFFFFFFFFFFFFFFFFFFFFFFFFFFFFFFFFF AND DUP2 MSTORE PUSH1 0x20 ADD SWAP1 DUP2 MSTORE PUSH1 0x20 ADD PUSH1 0x0 KECCAK256 PUSH1 0x1 ADD PUSH1 0x0 DUP3 DUP3 SLOAD PUSH2 0xCC9 SWAP2 SWAP1 PUSH2 0x27DD JUMP JUMPDEST SWAP3 POP POP DUP2 SWAP1 SSTORE POP PUSH1 0x0 PUSH1 0x19 PUSH1 0x0 CALLER PUSH20 0xFFFFFFFFFFFFFFFFFFFFFFFFFFFFFFFFFFFFFFFF AND PUSH20 0xFFFFFFFFFFFFFFFFFFFFFFFFFFFFFFFFFFFFFFFF AND DUP2 MSTORE PUSH1 0x20 ADD SWAP1 DUP2 MSTORE PUSH1 0x20 ADD PUSH1 0x0 KECCAK256 PUSH1 0x1 ADD SLOAD EQ ISZERO PUSH2 0xD6E JUMPI PUSH1 0x19 PUSH1 0x0 CALLER PUSH20 0xFFFFFFFFFFFFFFFFFFFFFFFFFFFFFFFFFFFFFFFF AND PUSH20 0xFFFFFFFFFFFFFFFFFFFFFFFFFFFFFFFFFFFFFFFF AND DUP2 MSTORE PUSH1 0x20 ADD SWAP1 DUP2 MSTORE PUSH1 0x20 ADD PUSH1 0x0 KECCAK256 PUSH1 0x0 DUP1 DUP3 ADD PUSH1 0x0 SWAP1 SSTORE PUSH1 0x1 DUP3 ADD PUSH1 0x0 SWAP1 SSTORE POP POP JUMPDEST POP JUMP JUMPDEST PUSH1 0x17 PUSH1 0x20 MSTORE DUP1 PUSH1 0x0 MSTORE PUSH1 0x40 PUSH1 0x0 KECCAK256 PUSH1 0x0 SWAP2 POP SWAP1 POP SLOAD DUP2 JUMP JUMPDEST PUSH1 0x0 PUSH1 0x12 PUSH1 0x0 SWAP1 SLOAD SWAP1 PUSH2 0x100 EXP SWAP1 DIV PUSH20 0xFFFFFFFFFFFFFFFFFFFFFFFFFFFFFFFFFFFFFFFF AND PUSH20 0xFFFFFFFFFFFFFFFFFFFFFFFFFFFFFFFFFFFFFFFF AND PUSH4 0x70A08231 CALLER PUSH1 0x40 MLOAD DUP3 PUSH4 0xFFFFFFFF AND PUSH1 0xE0 SHL DUP2 MSTORE PUSH1 0x4 ADD PUSH2 0xDE6 SWAP2 SWAP1 PUSH2 0x24CA JUMP JUMPDEST PUSH1 0x20 PUSH1 0x40 MLOAD DUP1 DUP4 SUB DUP2 DUP7 DUP1 EXTCODESIZE ISZERO DUP1 ISZERO PUSH2 0xDFE JUMPI PUSH1 0x0 DUP1 REVERT JUMPDEST POP GAS STATICCALL ISZERO DUP1 ISZERO PUSH2 0xE12 JUMPI RETURNDATASIZE PUSH1 0x0 DUP1 RETURNDATACOPY RETURNDATASIZE PUSH1 0x0 REVERT JUMPDEST POP POP POP POP PUSH1 0x40 MLOAD RETURNDATASIZE PUSH1 0x1F NOT PUSH1 0x1F DUP3 ADD AND DUP3 ADD DUP1 PUSH1 0x40 MSTORE POP DUP2 ADD SWAP1 PUSH2 0xE36 SWAP2 SWAP1 PUSH2 0x22AB JUMP JUMPDEST SWAP1 POP DUP2 DUP2 GT PUSH2 0xE7A JUMPI PUSH1 0x40 MLOAD PUSH32 0x8C379A000000000000000000000000000000000000000000000000000000000 DUP2 MSTORE PUSH1 0x4 ADD PUSH2 0xE71 SWAP1 PUSH2 0x25BB JUMP JUMPDEST PUSH1 0x40 MLOAD DUP1 SWAP2 SUB SWAP1 REVERT JUMPDEST PUSH2 0xEA8 PUSH1 0x12 PUSH1 0x0 SWAP1 SLOAD SWAP1 PUSH2 0x100 EXP SWAP1 DIV PUSH20 0xFFFFFFFFFFFFFFFFFFFFFFFFFFFFFFFFFFFFFFFF AND CALLER ADDRESS DUP6 PUSH2 0x1EF5 JUMP JUMPDEST PUSH1 0x0 PUSH3 0x15180 PUSH1 0xB SLOAD TIMESTAMP PUSH2 0xEBC SWAP2 SWAP1 PUSH2 0x27DD JUMP JUMPDEST PUSH2 0xEC6 SWAP2 SWAP1 PUSH2 0x2752 JUMP JUMPDEST SWAP1 POP DUP3 PUSH1 0x16 PUSH1 0x0 DUP4 DUP2 MSTORE PUSH1 0x20 ADD SWAP1 DUP2 MSTORE PUSH1 0x20 ADD PUSH1 0x0 KECCAK256 PUSH1 0x0 DUP3 DUP3 SLOAD PUSH2 0xEEB SWAP2 SWAP1 PUSH2 0x26FC JUMP JUMPDEST SWAP3 POP POP DUP2 SWAP1 SSTORE POP DUP3 PUSH1 0x17 PUSH1 0x0 DUP4 DUP2 MSTORE PUSH1 0x20 ADD SWAP1 DUP2 MSTORE PUSH1 0x20 ADD PUSH1 0x0 KECCAK256 PUSH1 0x0 DUP3 DUP3 SLOAD PUSH2 0xF15 SWAP2 SWAP1 PUSH2 0x27DD JUMP JUMPDEST SWAP3 POP POP DUP2 SWAP1 SSTORE POP POP POP POP JUMP JUMPDEST PUSH1 0x0 PUSH2 0xFCE PUSH1 0xA SLOAD PUSH1 0x12 PUSH1 0x0 SWAP1 SLOAD SWAP1 PUSH2 0x100 EXP SWAP1 DIV PUSH20 0xFFFFFFFFFFFFFFFFFFFFFFFFFFFFFFFFFFFFFFFF AND PUSH20 0xFFFFFFFFFFFFFFFFFFFFFFFFFFFFFFFFFFFFFFFF AND PUSH4 0x18160DDD PUSH1 0x40 MLOAD DUP2 PUSH4 0xFFFFFFFF AND PUSH1 0xE0 SHL DUP2 MSTORE PUSH1 0x4 ADD PUSH1 0x20 PUSH1 0x40 MLOAD DUP1 DUP4 SUB DUP2 DUP7 DUP1 EXTCODESIZE ISZERO DUP1 ISZERO PUSH2 0xF91 JUMPI PUSH1 0x0 DUP1 REVERT JUMPDEST POP GAS STATICCALL ISZERO DUP1 ISZERO PUSH2 0xFA5 JUMPI RETURNDATASIZE PUSH1 0x0 DUP1 RETURNDATACOPY RETURNDATASIZE PUSH1 0x0 REVERT JUMPDEST POP POP POP POP PUSH1 0x40 MLOAD RETURNDATASIZE PUSH1 0x1F NOT PUSH1 0x1F DUP3 ADD AND DUP3 ADD DUP1 PUSH1 0x40 MSTORE POP DUP2 ADD SWAP1 PUSH2 0xFC9 SWAP2 SWAP1 PUSH2 0x22AB JUMP JUMPDEST PUSH2 0x1434 JUMP JUMPDEST SWAP1 POP SWAP1 JUMP JUMPDEST PUSH1 0x9 PUSH1 0x0 SWAP1 SLOAD SWAP1 PUSH2 0x100 EXP SWAP1 DIV PUSH20 0xFFFFFFFFFFFFFFFFFFFFFFFFFFFFFFFFFFFFFFFF AND DUP2 JUMP JUMPDEST PUSH1 0x15 PUSH1 0x20 MSTORE DUP1 PUSH1 0x0 MSTORE PUSH1 0x40 PUSH1 0x0 KECCAK256 PUSH1 0x0 SWAP2 POP SWAP1 POP SLOAD DUP2 JUMP JUMPDEST PUSH1 0xA SLOAD DUP2 JUMP JUMPDEST POP JUMP JUMPDEST PUSH1 0xB SLOAD DUP2 JUMP JUMPDEST PUSH1 0x0 PUSH2 0x1139 ADDRESS PUSH20 0xFFFFFFFFFFFFFFFFFFFFFFFFFFFFFFFFFFFFFFFF AND PUSH4 0x1F564A06 PUSH1 0x40 MLOAD DUP2 PUSH4 0xFFFFFFFF AND PUSH1 0xE0 SHL DUP2 MSTORE PUSH1 0x4 ADD PUSH1 0x20 PUSH1 0x40 MLOAD DUP1 DUP4 SUB DUP2 DUP7 DUP1 EXTCODESIZE ISZERO DUP1 ISZERO PUSH2 0x106B JUMPI PUSH1 0x0 DUP1 REVERT JUMPDEST POP GAS STATICCALL ISZERO DUP1 ISZERO PUSH2 0x107F JUMPI RETURNDATASIZE PUSH1 0x0 DUP1 RETURNDATACOPY RETURNDATASIZE PUSH1 0x0 REVERT JUMPDEST POP POP POP POP PUSH1 0x40 MLOAD RETURNDATASIZE PUSH1 0x1F NOT PUSH1 0x1F DUP3 ADD AND DUP3 ADD DUP1 PUSH1 0x40 MSTORE POP DUP2 ADD SWAP1 PUSH2 0x10A3 SWAP2 SWAP1 PUSH2 0x22AB JUMP JUMPDEST ADDRESS PUSH20 0xFFFFFFFFFFFFFFFFFFFFFFFFFFFFFFFFFFFFFFFF AND PUSH4 0xCCAF04F PUSH1 0x40 MLOAD DUP2 PUSH4 0xFFFFFFFF AND PUSH1 0xE0 SHL DUP2 MSTORE PUSH1 0x4 ADD PUSH1 0x20 PUSH1 0x40 MLOAD DUP1 DUP4 SUB DUP2 DUP7 DUP1 EXTCODESIZE ISZERO DUP1 ISZERO PUSH2 0x10E9 JUMPI PUSH1 0x0 DUP1 REVERT JUMPDEST POP GAS STATICCALL ISZERO DUP1 ISZERO PUSH2 0x10FD JUMPI RETURNDATASIZE PUSH1 0x0 DUP1 RETURNDATACOPY RETURNDATASIZE PUSH1 0x0 REVERT JUMPDEST POP POP POP POP PUSH1 0x40 MLOAD RETURNDATASIZE PUSH1 0x1F NOT PUSH1 0x1F DUP3 ADD AND DUP3 ADD DUP1 PUSH1 0x40 MSTORE POP DUP2 ADD SWAP1 PUSH2 0x1121 SWAP2 SWAP1 PUSH2 0x22AB JUMP JUMPDEST PUSH8 0xC7D713B49DA0000 PUSH2 0x1134 SWAP2 SWAP1 PUSH2 0x27DD JUMP JUMPDEST PUSH2 0x1E6E JUMP JUMPDEST SWAP1 POP SWAP1 JUMP JUMPDEST PUSH1 0x0 PUSH1 0x12 PUSH1 0x0 SWAP1 SLOAD SWAP1 PUSH2 0x100 EXP SWAP1 DIV PUSH20 0xFFFFFFFFFFFFFFFFFFFFFFFFFFFFFFFFFFFFFFFF AND PUSH20 0xFFFFFFFFFFFFFFFFFFFFFFFFFFFFFFFFFFFFFFFF AND PUSH4 0x70A08231 CALLER PUSH1 0x40 MLOAD DUP3 PUSH4 0xFFFFFFFF AND PUSH1 0xE0 SHL DUP2 MSTORE PUSH1 0x4 ADD PUSH2 0x119B SWAP2 SWAP1 PUSH2 0x24CA JUMP JUMPDEST PUSH1 0x20 PUSH1 0x40 MLOAD DUP1 DUP4 SUB DUP2 DUP7 DUP1 EXTCODESIZE ISZERO DUP1 ISZERO PUSH2 0x11B3 JUMPI PUSH1 0x0 DUP1 REVERT JUMPDEST POP GAS STATICCALL ISZERO DUP1 ISZERO PUSH2 0x11C7 JUMPI RETURNDATASIZE PUSH1 0x0 DUP1 RETURNDATACOPY RETURNDATASIZE PUSH1 0x0 REVERT JUMPDEST POP POP POP POP PUSH1 0x40 MLOAD RETURNDATASIZE PUSH1 0x1F NOT PUSH1 0x1F DUP3 ADD AND DUP3 ADD DUP1 PUSH1 0x40 MSTORE POP DUP2 ADD SWAP1 PUSH2 0x11EB SWAP2 SWAP1 PUSH2 0x22AB JUMP JUMPDEST SWAP1 POP DUP3 DUP2 GT PUSH2 0x122F JUMPI PUSH1 0x40 MLOAD PUSH32 0x8C379A000000000000000000000000000000000000000000000000000000000 DUP2 MSTORE PUSH1 0x4 ADD PUSH2 0x1226 SWAP1 PUSH2 0x25BB JUMP JUMPDEST PUSH1 0x40 MLOAD DUP1 SWAP2 SUB SWAP1 REVERT JUMPDEST PUSH1 0x13 PUSH1 0x0 SWAP1 SLOAD SWAP1 PUSH2 0x100 EXP SWAP1 DIV PUSH20 0xFFFFFFFFFFFFFFFFFFFFFFFFFFFFFFFFFFFFFFFF AND PUSH20 0xFFFFFFFFFFFFFFFFFFFFFFFFFFFFFFFFFFFFFFFF AND PUSH4 0xA9059CBB CALLER PUSH8 0xDE0B6B3A7640000 PUSH1 0x1 PUSH2 0x1283 SWAP2 SWAP1 PUSH2 0x2783 JUMP JUMPDEST DUP7 PUSH2 0x128E SWAP2 SWAP1 PUSH2 0x26FC JUMP JUMPDEST PUSH1 0x40 MLOAD DUP4 PUSH4 0xFFFFFFFF AND PUSH1 0xE0 SHL DUP2 MSTORE PUSH1 0x4 ADD PUSH2 0x12AB SWAP3 SWAP2 SWAP1 PUSH2 0x251C JUMP JUMPDEST PUSH1 0x20 PUSH1 0x40 MLOAD DUP1 DUP4 SUB DUP2 PUSH1 0x0 DUP8 DUP1 EXTCODESIZE ISZERO DUP1 ISZERO PUSH2 0x12C5 JUMPI PUSH1 0x0 DUP1 REVERT JUMPDEST POP GAS CALL ISZERO DUP1 ISZERO PUSH2 0x12D9 JUMPI RETURNDATASIZE PUSH1 0x0 DUP1 RETURNDATACOPY RETURNDATASIZE PUSH1 0x0 REVERT JUMPDEST POP POP POP POP PUSH1 0x40 MLOAD RETURNDATASIZE PUSH1 0x1F NOT PUSH1 0x1F DUP3 ADD AND DUP3 ADD DUP1 PUSH1 0x40 MSTORE POP DUP2 ADD SWAP1 PUSH2 0x12FD SWAP2 SWAP1 PUSH2 0x2199 JUMP JUMPDEST POP PUSH2 0x132C PUSH1 0x12 PUSH1 0x0 SWAP1 SLOAD SWAP1 PUSH2 0x100 EXP SWAP1 DIV PUSH20 0xFFFFFFFFFFFFFFFFFFFFFFFFFFFFFFFFFFFFFFFF AND CALLER ADDRESS DUP7 PUSH2 0x1EF5 JUMP JUMPDEST PUSH1 0x0 DUP4 ADDRESS PUSH20 0xFFFFFFFFFFFFFFFFFFFFFFFFFFFFFFFFFFFFFFFF AND PUSH4 0x43D32E9C PUSH1 0x40 MLOAD DUP2 PUSH4 0xFFFFFFFF AND PUSH1 0xE0 SHL DUP2 MSTORE PUSH1 0x4 ADD PUSH1 0x20 PUSH1 0x40 MLOAD DUP1 DUP4 SUB DUP2 DUP7 DUP1 EXTCODESIZE ISZERO DUP1 ISZERO PUSH2 0x1375 JUMPI PUSH1 0x0 DUP1 REVERT JUMPDEST POP GAS STATICCALL ISZERO DUP1 ISZERO PUSH2 0x1389 JUMPI RETURNDATASIZE PUSH1 0x0 DUP1 RETURNDATACOPY RETURNDATASIZE PUSH1 0x0 REVERT JUMPDEST POP POP POP POP PUSH1 0x40 MLOAD RETURNDATASIZE PUSH1 0x1F NOT PUSH1 0x1F DUP3 ADD AND DUP3 ADD DUP1 PUSH1 0x40 MSTORE POP DUP2 ADD SWAP1 PUSH2 0x13AD SWAP2 SWAP1 PUSH2 0x22AB JUMP JUMPDEST PUSH2 0x13B7 SWAP2 SWAP1 PUSH2 0x2783 JUMP JUMPDEST SWAP1 POP PUSH1 0x0 PUSH3 0x15180 PUSH1 0xB SLOAD TIMESTAMP PUSH2 0x13CD SWAP2 SWAP1 PUSH2 0x27DD JUMP JUMPDEST PUSH2 0x13D7 SWAP2 SWAP1 PUSH2 0x2752 JUMP JUMPDEST SWAP1 POP DUP5 PUSH1 0x16 PUSH1 0x0 DUP4 DUP2 MSTORE PUSH1 0x20 ADD SWAP1 DUP2 MSTORE PUSH1 0x20 ADD PUSH1 0x0 KECCAK256 PUSH1 0x0 DUP3 DUP3 SLOAD PUSH2 0x13FC SWAP2 SWAP1 PUSH2 0x26FC JUMP JUMPDEST SWAP3 POP POP DUP2 SWAP1 SSTORE POP DUP5 PUSH1 0x17 PUSH1 0x0 DUP4 DUP2 MSTORE PUSH1 0x20 ADD SWAP1 DUP2 MSTORE PUSH1 0x20 ADD PUSH1 0x0 KECCAK256 PUSH1 0x0 DUP3 DUP3 SLOAD PUSH2 0x1426 SWAP2 SWAP1 PUSH2 0x27DD JUMP JUMPDEST SWAP3 POP POP DUP2 SWAP1 SSTORE POP POP POP POP POP POP JUMP JUMPDEST PUSH1 0x0 DUP1 PUSH2 0x1449 DUP5 PUSH8 0xDE0B6B3A7640000 PUSH2 0x1FCF JUMP JUMPDEST SWAP1 POP DUP3 PUSH2 0x1462 DUP3 PUSH1 0x2 DUP7 PUSH2 0x145D SWAP2 SWAP1 PUSH2 0x2752 JUMP JUMPDEST PUSH2 0x204A JUMP JUMPDEST PUSH2 0x146C SWAP2 SWAP1 PUSH2 0x2752 JUMP JUMPDEST SWAP2 POP POP SWAP3 SWAP2 POP POP JUMP JUMPDEST PUSH1 0xC SLOAD DUP2 JUMP JUMPDEST PUSH3 0xD2F00 TIMESTAMP PUSH2 0x148A SWAP2 SWAP1 PUSH2 0x26FC JUMP JUMPDEST PUSH1 0x19 PUSH1 0x0 CALLER PUSH20 0xFFFFFFFFFFFFFFFFFFFFFFFFFFFFFFFFFFFFFFFF AND PUSH20 0xFFFFFFFFFFFFFFFFFFFFFFFFFFFFFFFFFFFFFFFF AND DUP2 MSTORE PUSH1 0x20 ADD SWAP1 DUP2 MSTORE PUSH1 0x20 ADD PUSH1 0x0 KECCAK256 PUSH1 0x0 ADD DUP2 SWAP1 SSTORE POP DUP1 PUSH1 0x19 PUSH1 0x0 CALLER PUSH20 0xFFFFFFFFFFFFFFFFFFFFFFFFFFFFFFFFFFFFFFFF AND PUSH20 0xFFFFFFFFFFFFFFFFFFFFFFFFFFFFFFFFFFFFFFFF AND DUP2 MSTORE PUSH1 0x20 ADD SWAP1 DUP2 MSTORE PUSH1 0x20 ADD PUSH1 0x0 KECCAK256 PUSH1 0x1 ADD PUSH1 0x0 DUP3 DUP3 SLOAD PUSH2 0x1522 SWAP2 SWAP1 PUSH2 0x26FC JUMP JUMPDEST SWAP3 POP POP DUP2 SWAP1 SSTORE POP POP JUMP JUMPDEST PUSH1 0x12 PUSH1 0x0 SWAP1 SLOAD SWAP1 PUSH2 0x100 EXP SWAP1 DIV PUSH20 0xFFFFFFFFFFFFFFFFFFFFFFFFFFFFFFFFFFFFFFFF AND DUP2 JUMP JUMPDEST PUSH1 0x10 PUSH1 0x0 SWAP1 SLOAD SWAP1 PUSH2 0x100 EXP SWAP1 DIV PUSH1 0xF SIGNEXTEND DUP2 JUMP JUMPDEST PUSH1 0x14 PUSH1 0x0 SWAP1 SLOAD SWAP1 PUSH2 0x100 EXP SWAP1 DIV PUSH20 0xFFFFFFFFFFFFFFFFFFFFFFFFFFFFFFFFFFFFFFFF AND DUP2 JUMP JUMPDEST PUSH1 0x0 DUP1 PUSH1 0x0 DUP1 PUSH3 0x15180 PUSH1 0xC SLOAD PUSH2 0x15A2 SWAP2 SWAP1 PUSH2 0x2752 JUMP JUMPDEST SWAP1 POP PUSH1 0x0 PUSH3 0x15180 PUSH1 0xB SLOAD TIMESTAMP PUSH2 0x15B8 SWAP2 SWAP1 PUSH2 0x27DD JUMP JUMPDEST PUSH2 0x15C2 SWAP2 SWAP1 PUSH2 0x2752 JUMP JUMPDEST SWAP1 POP PUSH1 0x0 DUP2 EQ ISZERO PUSH2 0x15EC JUMPI PUSH1 0x15 PUSH1 0x0 DUP1 DUP2 MSTORE PUSH1 0x20 ADD SWAP1 DUP2 MSTORE PUSH1 0x20 ADD PUSH1 0x0 KECCAK256 SLOAD SWAP5 POP POP POP POP POP PUSH2 0x163F JUMP JUMPDEST DUP2 DUP2 PUSH2 0x15F8 SWAP2 SWAP1 PUSH2 0x27DD JUMP JUMPDEST SWAP3 POP JUMPDEST DUP1 DUP4 LT ISZERO PUSH2 0x1637 JUMPI PUSH1 0x15 PUSH1 0x0 DUP5 DUP2 MSTORE PUSH1 0x20 ADD SWAP1 DUP2 MSTORE PUSH1 0x20 ADD PUSH1 0x0 KECCAK256 SLOAD DUP5 PUSH2 0x1622 SWAP2 SWAP1 PUSH2 0x26FC JUMP JUMPDEST SWAP4 POP DUP3 DUP1 PUSH2 0x162F SWAP1 PUSH2 0x290F JUMP JUMPDEST SWAP4 POP POP PUSH2 0x15FB JUMP JUMPDEST DUP4 SWAP5 POP POP POP POP POP JUMPDEST SWAP1 JUMP JUMPDEST PUSH3 0x3D090 DUP3 GT ISZERO PUSH2 0x1688 JUMPI PUSH1 0x40 MLOAD PUSH32 0x8C379A000000000000000000000000000000000000000000000000000000000 DUP2 MSTORE PUSH1 0x4 ADD PUSH2 0x167F SWAP1 PUSH2 0x25DB JUMP JUMPDEST PUSH1 0x40 MLOAD DUP1 SWAP2 SUB SWAP1 REVERT JUMPDEST PUSH1 0x0 PUSH1 0x13 PUSH1 0x0 SWAP1 SLOAD SWAP1 PUSH2 0x100 EXP SWAP1 DIV PUSH20 0xFFFFFFFFFFFFFFFFFFFFFFFFFFFFFFFFFFFFFFFF AND PUSH20 0xFFFFFFFFFFFFFFFFFFFFFFFFFFFFFFFFFFFFFFFF AND PUSH4 0x70A08231 CALLER PUSH1 0x40 MLOAD DUP3 PUSH4 0xFFFFFFFF AND PUSH1 0xE0 SHL DUP2 MSTORE PUSH1 0x4 ADD PUSH2 0x16E5 SWAP2 SWAP1 PUSH2 0x24CA JUMP JUMPDEST PUSH1 0x20 PUSH1 0x40 MLOAD DUP1 DUP4 SUB DUP2 DUP7 DUP1 EXTCODESIZE ISZERO DUP1 ISZERO PUSH2 0x16FD JUMPI PUSH1 0x0 DUP1 REVERT JUMPDEST POP GAS STATICCALL ISZERO DUP1 ISZERO PUSH2 0x1711 JUMPI RETURNDATASIZE PUSH1 0x0 DUP1 RETURNDATACOPY RETURNDATASIZE PUSH1 0x0 REVERT JUMPDEST POP POP POP POP PUSH1 0x40 MLOAD RETURNDATASIZE PUSH1 0x1F NOT PUSH1 0x1F DUP3 ADD AND DUP3 ADD DUP1 PUSH1 0x40 MSTORE POP DUP2 ADD SWAP1 PUSH2 0x1735 SWAP2 SWAP1 PUSH2 0x22AB JUMP JUMPDEST SWAP1 POP DUP3 DUP2 GT PUSH2 0x1779 JUMPI PUSH1 0x40 MLOAD PUSH32 0x8C379A000000000000000000000000000000000000000000000000000000000 DUP2 MSTORE PUSH1 0x4 ADD PUSH2 0x1770 SWAP1 PUSH2 0x25BB JUMP JUMPDEST PUSH1 0x40 MLOAD DUP1 SWAP2 SUB SWAP1 REVERT JUMPDEST PUSH1 0x18 DUP3 PUSH1 0x40 MLOAD PUSH2 0x1789 SWAP2 SWAP1 PUSH2 0x24B3 JUMP JUMPDEST SWAP1 DUP2 MSTORE PUSH1 0x20 ADD PUSH1 0x40 MLOAD DUP1 SWAP2 SUB SWAP1 KECCAK256 PUSH1 0x0 ADD PUSH1 0x0 SWAP1 SLOAD SWAP1 PUSH2 0x100 EXP SWAP1 DIV PUSH20 0xFFFFFFFFFFFFFFFFFFFFFFFFFFFFFFFFFFFFFFFF AND PUSH1 0x14 PUSH1 0x0 PUSH2 0x100 EXP DUP2 SLOAD DUP2 PUSH20 0xFFFFFFFFFFFFFFFFFFFFFFFFFFFFFFFFFFFFFFFF MUL NOT AND SWAP1 DUP4 PUSH20 0xFFFFFFFFFFFFFFFFFFFFFFFFFFFFFFFFFFFFFFFF AND MUL OR SWAP1 SSTORE POP PUSH1 0x0 PUSH1 0x18 DUP4 PUSH1 0x40 MLOAD PUSH2 0x180D SWAP2 SWAP1 PUSH2 0x24B3 JUMP JUMPDEST SWAP1 DUP2 MSTORE PUSH1 0x20 ADD PUSH1 0x40 MLOAD DUP1 SWAP2 SUB SWAP1 KECCAK256 PUSH1 0x1 ADD SLOAD ADDRESS PUSH20 0xFFFFFFFFFFFFFFFFFFFFFFFFFFFFFFFFFFFFFFFF AND PUSH4 0x18A25E8 PUSH1 0x40 MLOAD DUP2 PUSH4 0xFFFFFFFF AND PUSH1 0xE0 SHL DUP2 MSTORE PUSH1 0x4 ADD PUSH1 0x20 PUSH1 0x40 MLOAD DUP1 DUP4 SUB DUP2 DUP7 DUP1 EXTCODESIZE ISZERO DUP1 ISZERO PUSH2 0x1865 JUMPI PUSH1 0x0 DUP1 REVERT JUMPDEST POP GAS STATICCALL ISZERO DUP1 ISZERO PUSH2 0x1879 JUMPI RETURNDATASIZE PUSH1 0x0 DUP1 RETURNDATACOPY RETURNDATASIZE PUSH1 0x0 REVERT JUMPDEST POP POP POP POP PUSH1 0x40 MLOAD RETURNDATASIZE PUSH1 0x1F NOT PUSH1 0x1F DUP3 ADD AND DUP3 ADD DUP1 PUSH1 0x40 MSTORE POP DUP2 ADD SWAP1 PUSH2 0x189D SWAP2 SWAP1 PUSH2 0x22AB JUMP JUMPDEST DUP6 PUSH2 0x18A8 SWAP2 SWAP1 PUSH2 0x2783 JUMP JUMPDEST PUSH2 0x18B2 SWAP2 SWAP1 PUSH2 0x2783 JUMP JUMPDEST SWAP1 POP PUSH2 0x18E2 PUSH1 0x14 PUSH1 0x0 SWAP1 SLOAD SWAP1 PUSH2 0x100 EXP SWAP1 DIV PUSH20 0xFFFFFFFFFFFFFFFFFFFFFFFFFFFFFFFFFFFFFFFF AND CALLER ADDRESS DUP5 PUSH2 0x1EF5 JUMP JUMPDEST PUSH1 0x1A PUSH1 0x0 SWAP1 SLOAD SWAP1 PUSH2 0x100 EXP SWAP1 DIV PUSH20 0xFFFFFFFFFFFFFFFFFFFFFFFFFFFFFFFFFFFFFFFF AND PUSH20 0xFFFFFFFFFFFFFFFFFFFFFFFFFFFFFFFFFFFFFFFF AND PUSH4 0x40C10F19 CALLER PUSH8 0xDE0B6B3A7640000 DUP8 PUSH2 0x1935 SWAP2 SWAP1 PUSH2 0x2783 JUMP JUMPDEST PUSH1 0x40 MLOAD DUP4 PUSH4 0xFFFFFFFF AND PUSH1 0xE0 SHL DUP2 MSTORE PUSH1 0x4 ADD PUSH2 0x1952 SWAP3 SWAP2 SWAP1 PUSH2 0x251C JUMP JUMPDEST PUSH1 0x0 PUSH1 0x40 MLOAD DUP1 DUP4 SUB DUP2 PUSH1 0x0 DUP8 DUP1 EXTCODESIZE ISZERO DUP1 ISZERO PUSH2 0x196C JUMPI PUSH1 0x0 DUP1 REVERT JUMPDEST POP GAS CALL ISZERO DUP1 ISZERO PUSH2 0x1980 JUMPI RETURNDATASIZE PUSH1 0x0 DUP1 RETURNDATACOPY RETURNDATASIZE PUSH1 0x0 REVERT JUMPDEST POP POP POP POP PUSH1 0x0 PUSH3 0x15180 PUSH1 0xB SLOAD TIMESTAMP PUSH2 0x1998 SWAP2 SWAP1 PUSH2 0x27DD JUMP JUMPDEST PUSH2 0x19A2 SWAP2 SWAP1 PUSH2 0x2752 JUMP JUMPDEST SWAP1 POP DUP5 PUSH1 0x15 PUSH1 0x0 DUP4 DUP2 MSTORE PUSH1 0x20 ADD SWAP1 DUP2 MSTORE PUSH1 0x20 ADD PUSH1 0x0 KECCAK256 PUSH1 0x0 DUP3 DUP3 SLOAD PUSH2 0x19C7 SWAP2 SWAP1 PUSH2 0x26FC JUMP JUMPDEST SWAP3 POP POP DUP2 SWAP1 SSTORE POP DUP5 PUSH1 0x17 PUSH1 0x0 DUP4 DUP2 MSTORE PUSH1 0x20 ADD SWAP1 DUP2 MSTORE PUSH1 0x20 ADD PUSH1 0x0 KECCAK256 PUSH1 0x0 DUP3 DUP3 SLOAD PUSH2 0x19F1 SWAP2 SWAP1 PUSH2 0x26FC JUMP JUMPDEST SWAP3 POP POP DUP2 SWAP1 SSTORE POP CALLER PUSH20 0xFFFFFFFFFFFFFFFFFFFFFFFFFFFFFFFFFFFFFFFF AND PUSH32 0xF633443B01504D269657083D48BB6DE98E089CFFF672B47FEFBED21608B5C779 DUP7 PUSH1 0x40 MLOAD PUSH2 0x1A3E SWAP2 SWAP1 PUSH2 0x263B JUMP JUMPDEST PUSH1 0x40 MLOAD DUP1 SWAP2 SUB SWAP1 LOG2 POP POP POP POP POP JUMP JUMPDEST PUSH1 0x0 DUP1 PUSH1 0x0 DUP1 PUSH3 0x15180 PUSH1 0xC SLOAD PUSH2 0x1A64 SWAP2 SWAP1 PUSH2 0x2752 JUMP JUMPDEST SWAP1 POP PUSH1 0x0 PUSH3 0x15180 PUSH1 0xB SLOAD TIMESTAMP PUSH2 0x1A7A SWAP2 SWAP1 PUSH2 0x27DD JUMP JUMPDEST PUSH2 0x1A84 SWAP2 SWAP1 PUSH2 0x2752 JUMP JUMPDEST SWAP1 POP PUSH1 0x0 DUP1 DUP3 EQ ISZERO PUSH2 0x1AAB JUMPI PUSH1 0x17 PUSH1 0x0 DUP1 DUP2 MSTORE PUSH1 0x20 ADD SWAP1 DUP2 MSTORE PUSH1 0x20 ADD PUSH1 0x0 KECCAK256 SLOAD SWAP4 POP PUSH2 0x1AF7 JUMP JUMPDEST DUP3 DUP3 PUSH2 0x1AB7 SWAP2 SWAP1 PUSH2 0x27DD JUMP JUMPDEST SWAP1 POP JUMPDEST DUP2 DUP2 LT ISZERO PUSH2 0x1AF6 JUMPI PUSH1 0x17 PUSH1 0x0 DUP3 DUP2 MSTORE PUSH1 0x20 ADD SWAP1 DUP2 MSTORE PUSH1 0x20 ADD PUSH1 0x0 KECCAK256 SLOAD DUP5 PUSH2 0x1AE1 SWAP2 SWAP1 PUSH2 0x26FC JUMP JUMPDEST SWAP4 POP DUP1 DUP1 PUSH2 0x1AEE SWAP1 PUSH2 0x290F JUMP JUMPDEST SWAP2 POP POP PUSH2 0x1ABA JUMP JUMPDEST JUMPDEST PUSH2 0x1B7E ADDRESS PUSH20 0xFFFFFFFFFFFFFFFFFFFFFFFFFFFFFFFFFFFFFFFF AND PUSH4 0x71CD58F9 PUSH1 0x40 MLOAD DUP2 PUSH4 0xFFFFFFFF AND PUSH1 0xE0 SHL DUP2 MSTORE PUSH1 0x4 ADD PUSH1 0x20 PUSH1 0x40 MLOAD DUP1 DUP4 SUB DUP2 DUP7 DUP1 EXTCODESIZE ISZERO DUP1 ISZERO PUSH2 0x1B40 JUMPI PUSH1 0x0 DUP1 REVERT JUMPDEST POP GAS STATICCALL ISZERO DUP1 ISZERO PUSH2 0x1B54 JUMPI RETURNDATASIZE PUSH1 0x0 DUP1 RETURNDATACOPY RETURNDATASIZE PUSH1 0x0 REVERT JUMPDEST POP POP POP POP PUSH1 0x40 MLOAD RETURNDATASIZE PUSH1 0x1F NOT PUSH1 0x1F DUP3 ADD AND DUP3 ADD DUP1 PUSH1 0x40 MSTORE POP DUP2 ADD SWAP1 PUSH2 0x1B78 SWAP2 SWAP1 PUSH2 0x22AB JUMP JUMPDEST DUP6 PUSH2 0x1434 JUMP JUMPDEST SWAP5 POP PUSH8 0x10A741A462780000 DUP6 GT ISZERO PUSH2 0x1B9C JUMPI PUSH8 0x10A741A462780000 SWAP5 POP JUMPDEST DUP5 SWAP6 POP POP POP POP POP POP SWAP1 JUMP JUMPDEST POP JUMP JUMPDEST PUSH1 0x18 DUP2 DUP1 MLOAD PUSH1 0x20 DUP2 ADD DUP3 ADD DUP1 MLOAD DUP5 DUP3 MSTORE PUSH1 0x20 DUP4 ADD PUSH1 0x20 DUP6 ADD KECCAK256 DUP2 DUP4 MSTORE DUP1 SWAP6 POP POP POP POP POP POP PUSH1 0x0 SWAP2 POP SWAP1 POP DUP1 PUSH1 0x0 ADD PUSH1 0x0 SWAP1 SLOAD SWAP1 PUSH2 0x100 EXP SWAP1 DIV PUSH20 0xFFFFFFFFFFFFFFFFFFFFFFFFFFFFFFFFFFFFFFFF AND SWAP1 DUP1 PUSH1 0x1 ADD SLOAD SWAP1 POP DUP3 JUMP JUMPDEST PUSH1 0x19 PUSH1 0x0 DUP3 PUSH20 0xFFFFFFFFFFFFFFFFFFFFFFFFFFFFFFFFFFFFFFFF AND PUSH20 0xFFFFFFFFFFFFFFFFFFFFFFFFFFFFFFFFFFFFFFFF AND DUP2 MSTORE PUSH1 0x20 ADD SWAP1 DUP2 MSTORE PUSH1 0x20 ADD PUSH1 0x0 KECCAK256 PUSH1 0x0 ADD SLOAD TIMESTAMP LT ISZERO PUSH2 0x1C89 JUMPI PUSH1 0x40 MLOAD PUSH32 0x8C379A000000000000000000000000000000000000000000000000000000000 DUP2 MSTORE PUSH1 0x4 ADD PUSH2 0x1C80 SWAP1 PUSH2 0x25FB JUMP JUMPDEST PUSH1 0x40 MLOAD DUP1 SWAP2 SUB SWAP1 REVERT JUMPDEST PUSH1 0x0 PUSH1 0x19 PUSH1 0x0 DUP4 PUSH20 0xFFFFFFFFFFFFFFFFFFFFFFFFFFFFFFFFFFFFFFFF AND PUSH20 0xFFFFFFFFFFFFFFFFFFFFFFFFFFFFFFFFFFFFFFFF AND DUP2 MSTORE PUSH1 0x20 ADD SWAP1 DUP2 MSTORE PUSH1 0x20 ADD PUSH1 0x0 KECCAK256 PUSH1 0x1 ADD SLOAD SWAP1 POP PUSH2 0x1CFE PUSH1 0x13 PUSH1 0x0 SWAP1 SLOAD SWAP1 PUSH2 0x100 EXP SWAP1 DIV PUSH20 0xFFFFFFFFFFFFFFFFFFFFFFFFFFFFFFFFFFFFFFFF AND ADDRESS CALLER DUP5 PUSH2 0x1EF5 JUMP JUMPDEST POP POP JUMP JUMPDEST PUSH1 0x7 PUSH1 0x0 SWAP1 SLOAD SWAP1 PUSH2 0x100 EXP SWAP1 DIV PUSH20 0xFFFFFFFFFFFFFFFFFFFFFFFFFFFFFFFFFFFFFFFF AND DUP2 JUMP JUMPDEST PUSH1 0x1 SLOAD DUP2 JUMP JUMPDEST PUSH1 0x0 DUP1 PUSH1 0x0 DUP1 PUSH3 0x15180 PUSH1 0xC SLOAD PUSH2 0x1D45 SWAP2 SWAP1 PUSH2 0x2752 JUMP JUMPDEST SWAP1 POP PUSH1 0x0 SWAP2 POP JUMPDEST DUP1 DUP3 LT ISZERO PUSH2 0x1D88 JUMPI PUSH1 0x16 PUSH1 0x0 DUP4 DUP2 MSTORE PUSH1 0x20 ADD SWAP1 DUP2 MSTORE PUSH1 0x20 ADD PUSH1 0x0 KECCAK256 SLOAD DUP4 PUSH2 0x1D73 SWAP2 SWAP1 PUSH2 0x26FC JUMP JUMPDEST SWAP3 POP DUP2 DUP1 PUSH2 0x1D80 SWAP1 PUSH2 0x290F JUMP JUMPDEST SWAP3 POP POP PUSH2 0x1D4C JUMP JUMPDEST DUP3 SWAP4 POP POP POP POP SWAP1 JUMP JUMPDEST DUP2 PUSH1 0x18 DUP5 PUSH1 0x40 MLOAD PUSH2 0x1DA2 SWAP2 SWAP1 PUSH2 0x24B3 JUMP JUMPDEST SWAP1 DUP2 MSTORE PUSH1 0x20 ADD PUSH1 0x40 MLOAD DUP1 SWAP2 SUB SWAP1 KECCAK256 PUSH1 0x0 ADD PUSH1 0x0 PUSH2 0x100 EXP DUP2 SLOAD DUP2 PUSH20 0xFFFFFFFFFFFFFFFFFFFFFFFFFFFFFFFFFFFFFFFF MUL NOT AND SWAP1 DUP4 PUSH20 0xFFFFFFFFFFFFFFFFFFFFFFFFFFFFFFFFFFFFFFFF AND MUL OR SWAP1 SSTORE POP DUP1 PUSH1 0x18 DUP5 PUSH1 0x40 MLOAD PUSH2 0x1E02 SWAP2 SWAP1 PUSH2 0x24B3 JUMP JUMPDEST SWAP1 DUP2 MSTORE PUSH1 0x20 ADD PUSH1 0x40 MLOAD DUP1 SWAP2 SUB SWAP1 KECCAK256 PUSH1 0x1 ADD DUP2 SWAP1 SSTORE POP POP POP POP JUMP JUMPDEST PUSH1 0x13 PUSH1 0x0 SWAP1 SLOAD SWAP1 PUSH2 0x100 EXP SWAP1 DIV PUSH20 0xFFFFFFFFFFFFFFFFFFFFFFFFFFFFFFFFFFFFFFFF AND DUP2 JUMP JUMPDEST PUSH1 0x0 SLOAD DUP2 JUMP JUMPDEST PUSH1 0x11 PUSH1 0x0 SWAP1 SLOAD SWAP1 PUSH2 0x100 EXP SWAP1 DIV PUSH20 0xFFFFFFFFFFFFFFFFFFFFFFFFFFFFFFFFFFFFFFFF AND DUP2 JUMP JUMPDEST PUSH1 0x0 DUP1 PUSH2 0x1E7B DUP5 DUP5 PUSH2 0x1FCF JUMP JUMPDEST SWAP1 POP PUSH8 0xDE0B6B3A7640000 PUSH2 0x1EA4 DUP3 PUSH1 0x2 PUSH8 0xDE0B6B3A7640000 PUSH2 0x1E9F SWAP2 SWAP1 PUSH2 0x2752 JUMP JUMPDEST PUSH2 0x204A JUMP JUMPDEST PUSH2 0x1EAE SWAP2 SWAP1 PUSH2 0x2752 JUMP JUMPDEST SWAP2 POP POP SWAP3 SWAP2 POP POP JUMP JUMPDEST PUSH1 0x6 PUSH1 0x0 SWAP1 SLOAD SWAP1 PUSH2 0x100 EXP SWAP1 DIV PUSH20 0xFFFFFFFFFFFFFFFFFFFFFFFFFFFFFFFFFFFFFFFF AND DUP2 JUMP JUMPDEST PUSH3 0x15180 DUP2 PUSH2 0x1EEC SWAP2 SWAP1 PUSH2 0x2783 JUMP JUMPDEST PUSH1 0xC DUP2 SWAP1 SSTORE POP POP JUMP JUMPDEST PUSH1 0x0 DUP5 PUSH20 0xFFFFFFFFFFFFFFFFFFFFFFFFFFFFFFFFFFFFFFFF AND PUSH4 0x23B872DD DUP6 DUP6 DUP6 PUSH1 0x40 MLOAD DUP5 PUSH4 0xFFFFFFFF AND PUSH1 0xE0 SHL DUP2 MSTORE PUSH1 0x4 ADD PUSH2 0x1F34 SWAP4 SWAP3 SWAP2 SWAP1 PUSH2 0x24E5 JUMP JUMPDEST PUSH1 0x20 PUSH1 0x40 MLOAD DUP1 DUP4 SUB DUP2 PUSH1 0x0 DUP8 DUP1 EXTCODESIZE ISZERO DUP1 ISZERO PUSH2 0x1F4E JUMPI PUSH1 0x0 DUP1 REVERT JUMPDEST POP GAS CALL ISZERO DUP1 ISZERO PUSH2 0x1F62 JUMPI RETURNDATASIZE PUSH1 0x0 DUP1 RETURNDATACOPY RETURNDATASIZE PUSH1 0x0 REVERT JUMPDEST POP POP POP POP PUSH1 0x40 MLOAD RETURNDATASIZE PUSH1 0x1F NOT PUSH1 0x1F DUP3 ADD AND DUP3 ADD DUP1 PUSH1 0x40 MSTORE POP DUP2 ADD SWAP1 PUSH2 0x1F86 SWAP2 SWAP1 PUSH2 0x2199 JUMP JUMPDEST SWAP1 POP DUP1 PUSH2 0x1FC8 JUMPI PUSH1 0x40 MLOAD PUSH32 0x8C379A000000000000000000000000000000000000000000000000000000000 DUP2 MSTORE PUSH1 0x4 ADD PUSH2 0x1FBF SWAP1 PUSH2 0x259B JUMP JUMPDEST PUSH1 0x40 MLOAD DUP1 SWAP2 SUB SWAP1 REVERT JUMPDEST POP POP POP POP POP JUMP JUMPDEST PUSH1 0x0 DUP1 DUP4 EQ ISZERO PUSH2 0x1FE2 JUMPI PUSH1 0x0 SWAP1 POP PUSH2 0x2044 JUMP JUMPDEST PUSH1 0x0 DUP3 DUP5 PUSH2 0x1FF0 SWAP2 SWAP1 PUSH2 0x2783 JUMP JUMPDEST SWAP1 POP DUP3 DUP5 DUP3 PUSH2 0x1FFF SWAP2 SWAP1 PUSH2 0x2752 JUMP JUMPDEST EQ PUSH2 0x203F JUMPI PUSH1 0x40 MLOAD PUSH32 0x8C379A000000000000000000000000000000000000000000000000000000000 DUP2 MSTORE PUSH1 0x4 ADD PUSH2 0x2036 SWAP1 PUSH2 0x261B JUMP JUMPDEST PUSH1 0x40 MLOAD DUP1 SWAP2 SUB SWAP1 REVERT JUMPDEST DUP1 SWAP2 POP POP JUMPDEST SWAP3 SWAP2 POP POP JUMP JUMPDEST PUSH1 0x0 DUP1 DUP3 DUP5 PUSH2 0x2059 SWAP2 SWAP1 PUSH2 0x26FC JUMP JUMPDEST SWAP1 POP DUP4 DUP2 LT ISZERO PUSH2 0x209E JUMPI PUSH1 0x40 MLOAD PUSH32 0x8C379A000000000000000000000000000000000000000000000000000000000 DUP2 MSTORE PUSH1 0x4 ADD PUSH2 0x2095 SWAP1 PUSH2 0x261B JUMP JUMPDEST PUSH1 0x40 MLOAD DUP1 SWAP2 SUB SWAP1 REVERT JUMPDEST DUP1 SWAP2 POP POP SWAP3 SWAP2 POP POP JUMP JUMPDEST PUSH1 0x0 PUSH2 0x20BB PUSH2 0x20B6 DUP5 PUSH2 0x26A4 JUMP JUMPDEST PUSH2 0x267F JUMP JUMPDEST SWAP1 POP DUP3 DUP2 MSTORE PUSH1 0x20 DUP2 ADD DUP5 DUP5 DUP5 ADD GT ISZERO PUSH2 0x20D7 JUMPI PUSH2 0x20D6 PUSH2 0x29EA JUMP JUMPDEST JUMPDEST PUSH2 0x20E2 DUP5 DUP3 DUP6 PUSH2 0x289C JUMP JUMPDEST POP SWAP4 SWAP3 POP POP POP JUMP JUMPDEST PUSH1 0x0 DUP2 CALLDATALOAD SWAP1 POP PUSH2 0x20F9 DUP2 PUSH2 0x2B4C JUMP JUMPDEST SWAP3 SWAP2 POP POP JUMP JUMPDEST PUSH1 0x0 DUP2 MLOAD SWAP1 POP PUSH2 0x210E DUP2 PUSH2 0x2B63 JUMP JUMPDEST SWAP3 SWAP2 POP POP JUMP JUMPDEST PUSH1 0x0 DUP3 PUSH1 0x1F DUP4 ADD SLT PUSH2 0x2129 JUMPI PUSH2 0x2128 PUSH2 0x29E5 JUMP JUMPDEST JUMPDEST DUP2 CALLDATALOAD PUSH2 0x2139 DUP5 DUP3 PUSH1 0x20 DUP7 ADD PUSH2 0x20A8 JUMP JUMPDEST SWAP2 POP POP SWAP3 SWAP2 POP POP JUMP JUMPDEST PUSH1 0x0 DUP2 CALLDATALOAD SWAP1 POP PUSH2 0x2151 DUP2 PUSH2 0x2B7A JUMP JUMPDEST SWAP3 SWAP2 POP POP JUMP JUMPDEST PUSH1 0x0 DUP2 MLOAD SWAP1 POP PUSH2 0x2166 DUP2 PUSH2 0x2B7A JUMP JUMPDEST SWAP3 SWAP2 POP POP JUMP JUMPDEST PUSH1 0x0 PUSH1 0x20 DUP3 DUP5 SUB SLT ISZERO PUSH2 0x2182 JUMPI PUSH2 0x2181 PUSH2 0x29F4 JUMP JUMPDEST JUMPDEST PUSH1 0x0 PUSH2 0x2190 DUP5 DUP3 DUP6 ADD PUSH2 0x20EA JUMP JUMPDEST SWAP2 POP POP SWAP3 SWAP2 POP POP JUMP JUMPDEST PUSH1 0x0 PUSH1 0x20 DUP3 DUP5 SUB SLT ISZERO PUSH2 0x21AF JUMPI PUSH2 0x21AE PUSH2 0x29F4 JUMP JUMPDEST JUMPDEST PUSH1 0x0 PUSH2 0x21BD DUP5 DUP3 DUP6 ADD PUSH2 0x20FF JUMP JUMPDEST SWAP2 POP POP SWAP3 SWAP2 POP POP JUMP JUMPDEST PUSH1 0x0 PUSH1 0x20 DUP3 DUP5 SUB SLT ISZERO PUSH2 0x21DC JUMPI PUSH2 0x21DB PUSH2 0x29F4 JUMP JUMPDEST JUMPDEST PUSH1 0x0 DUP3 ADD CALLDATALOAD PUSH8 0xFFFFFFFFFFFFFFFF DUP2 GT ISZERO PUSH2 0x21FA JUMPI PUSH2 0x21F9 PUSH2 0x29EF JUMP JUMPDEST JUMPDEST PUSH2 0x2206 DUP5 DUP3 DUP6 ADD PUSH2 0x2114 JUMP JUMPDEST SWAP2 POP POP SWAP3 SWAP2 POP POP JUMP JUMPDEST PUSH1 0x0 DUP1 PUSH1 0x0 PUSH1 0x60 DUP5 DUP7 SUB SLT ISZERO PUSH2 0x2228 JUMPI PUSH2 0x2227 PUSH2 0x29F4 JUMP JUMPDEST JUMPDEST PUSH1 0x0 DUP5 ADD CALLDATALOAD PUSH8 0xFFFFFFFFFFFFFFFF DUP2 GT ISZERO PUSH2 0x2246 JUMPI PUSH2 0x2245 PUSH2 0x29EF JUMP JUMPDEST JUMPDEST PUSH2 0x2252 DUP7 DUP3 DUP8 ADD PUSH2 0x2114 JUMP JUMPDEST SWAP4 POP POP PUSH1 0x20 PUSH2 0x2263 DUP7 DUP3 DUP8 ADD PUSH2 0x20EA JUMP JUMPDEST SWAP3 POP POP PUSH1 0x40 PUSH2 0x2274 DUP7 DUP3 DUP8 ADD PUSH2 0x2142 JUMP JUMPDEST SWAP2 POP POP SWAP3 POP SWAP3 POP SWAP3 JUMP JUMPDEST PUSH1 0x0 PUSH1 0x20 DUP3 DUP5 SUB SLT ISZERO PUSH2 0x2294 JUMPI PUSH2 0x2293 PUSH2 0x29F4 JUMP JUMPDEST JUMPDEST PUSH1 0x0 PUSH2 0x22A2 DUP5 DUP3 DUP6 ADD PUSH2 0x2142 JUMP JUMPDEST SWAP2 POP POP SWAP3 SWAP2 POP POP JUMP JUMPDEST PUSH1 0x0 PUSH1 0x20 DUP3 DUP5 SUB SLT ISZERO PUSH2 0x22C1 JUMPI PUSH2 0x22C0 PUSH2 0x29F4 JUMP JUMPDEST JUMPDEST PUSH1 0x0 PUSH2 0x22CF DUP5 DUP3 DUP6 ADD PUSH2 0x2157 JUMP JUMPDEST SWAP2 POP POP SWAP3 SWAP2 POP POP JUMP JUMPDEST PUSH1 0x0 DUP1 PUSH1 0x40 DUP4 DUP6 SUB SLT ISZERO PUSH2 0x22EF JUMPI PUSH2 0x22EE PUSH2 0x29F4 JUMP JUMPDEST JUMPDEST PUSH1 0x0 PUSH2 0x22FD DUP6 DUP3 DUP7 ADD PUSH2 0x2142 JUMP JUMPDEST SWAP3 POP POP PUSH1 0x20 DUP4 ADD CALLDATALOAD PUSH8 0xFFFFFFFFFFFFFFFF DUP2 GT ISZERO PUSH2 0x231E JUMPI PUSH2 0x231D PUSH2 0x29EF JUMP JUMPDEST JUMPDEST PUSH2 0x232A DUP6 DUP3 DUP7 ADD PUSH2 0x2114 JUMP JUMPDEST SWAP2 POP POP SWAP3 POP SWAP3 SWAP1 POP JUMP JUMPDEST PUSH1 0x0 DUP1 PUSH1 0x40 DUP4 DUP6 SUB SLT ISZERO PUSH2 0x234B JUMPI PUSH2 0x234A PUSH2 0x29F4 JUMP JUMPDEST JUMPDEST PUSH1 0x0 PUSH2 0x2359 DUP6 DUP3 DUP7 ADD PUSH2 0x2142 JUMP JUMPDEST SWAP3 POP POP PUSH1 0x20 PUSH2 0x236A DUP6 DUP3 DUP7 ADD PUSH2 0x2142 JUMP JUMPDEST SWAP2 POP POP SWAP3 POP SWAP3 SWAP1 POP JUMP JUMPDEST PUSH2 0x237D DUP2 PUSH2 0x2811 JUMP JUMPDEST DUP3 MSTORE POP POP JUMP JUMPDEST PUSH2 0x238C DUP2 PUSH2 0x2866 JUMP JUMPDEST DUP3 MSTORE POP POP JUMP JUMPDEST PUSH2 0x239B DUP2 PUSH2 0x282F JUMP JUMPDEST DUP3 MSTORE POP POP JUMP JUMPDEST PUSH1 0x0 PUSH2 0x23AC DUP3 PUSH2 0x26D5 JUMP JUMPDEST PUSH2 0x23B6 DUP2 DUP6 PUSH2 0x26F1 JUMP JUMPDEST SWAP4 POP PUSH2 0x23C6 DUP2 DUP6 PUSH1 0x20 DUP7 ADD PUSH2 0x28AB JUMP JUMPDEST DUP1 DUP5 ADD SWAP2 POP POP SWAP3 SWAP2 POP POP JUMP JUMPDEST PUSH1 0x0 PUSH2 0x23DF PUSH1 0x24 DUP4 PUSH2 0x26E0 JUMP JUMPDEST SWAP2 POP PUSH2 0x23EA DUP3 PUSH2 0x2A0A JUMP JUMPDEST PUSH1 0x40 DUP3 ADD SWAP1 POP SWAP2 SWAP1 POP JUMP JUMPDEST PUSH1 0x0 PUSH2 0x2402 PUSH1 0x15 DUP4 PUSH2 0x26E0 JUMP JUMPDEST SWAP2 POP PUSH2 0x240D DUP3 PUSH2 0x2A59 JUMP JUMPDEST PUSH1 0x20 DUP3 ADD SWAP1 POP SWAP2 SWAP1 POP JUMP JUMPDEST PUSH1 0x0 PUSH2 0x2425 PUSH1 0x1A DUP4 PUSH2 0x26E0 JUMP JUMPDEST SWAP2 POP PUSH2 0x2430 DUP3 PUSH2 0x2A82 JUMP JUMPDEST PUSH1 0x20 DUP3 ADD SWAP1 POP SWAP2 SWAP1 POP JUMP JUMPDEST PUSH1 0x0 PUSH2 0x2448 PUSH1 0x15 DUP4 PUSH2 0x26E0 JUMP JUMPDEST SWAP2 POP PUSH2 0x2453 DUP3 PUSH2 0x2AAB JUMP JUMPDEST PUSH1 0x20 DUP3 ADD SWAP1 POP SWAP2 SWAP1 POP JUMP JUMPDEST PUSH1 0x0 PUSH2 0x246B PUSH1 0xC DUP4 PUSH2 0x26E0 JUMP JUMPDEST SWAP2 POP PUSH2 0x2476 DUP3 PUSH2 0x2AD4 JUMP JUMPDEST PUSH1 0x20 DUP3 ADD SWAP1 POP SWAP2 SWAP1 POP JUMP JUMPDEST PUSH1 0x0 PUSH2 0x248E PUSH1 0x21 DUP4 PUSH2 0x26E0 JUMP JUMPDEST SWAP2 POP PUSH2 0x2499 DUP3 PUSH2 0x2AFD JUMP JUMPDEST PUSH1 0x40 DUP3 ADD SWAP1 POP SWAP2 SWAP1 POP JUMP JUMPDEST PUSH2 0x24AD DUP2 PUSH2 0x285C JUMP JUMPDEST DUP3 MSTORE POP POP JUMP JUMPDEST PUSH1 0x0 PUSH2 0x24BF DUP3 DUP5 PUSH2 0x23A1 JUMP JUMPDEST SWAP2 POP DUP2 SWAP1 POP SWAP3 SWAP2 POP POP JUMP JUMPDEST PUSH1 0x0 PUSH1 0x20 DUP3 ADD SWAP1 POP PUSH2 0x24DF PUSH1 0x0 DUP4 ADD DUP5 PUSH2 0x2374 JUMP JUMPDEST SWAP3 SWAP2 POP POP JUMP JUMPDEST PUSH1 0x0 PUSH1 0x60 DUP3 ADD SWAP1 POP PUSH2 0x24FA PUSH1 0x0 DUP4 ADD DUP7 PUSH2 0x2374 JUMP JUMPDEST PUSH2 0x2507 PUSH1 0x20 DUP4 ADD DUP6 PUSH2 0x2374 JUMP JUMPDEST PUSH2 0x2514 PUSH1 0x40 DUP4 ADD DUP5 PUSH2 0x24A4 JUMP JUMPDEST SWAP5 SWAP4 POP POP POP POP JUMP JUMPDEST PUSH1 0x0 PUSH1 0x40 DUP3 ADD SWAP1 POP PUSH2 0x2531 PUSH1 0x0 DUP4 ADD DUP6 PUSH2 0x2374 JUMP JUMPDEST PUSH2 0x253E PUSH1 0x20 DUP4 ADD DUP5 PUSH2 0x24A4 JUMP JUMPDEST SWAP4 SWAP3 POP POP POP JUMP JUMPDEST PUSH1 0x0 PUSH1 0x20 DUP3 ADD SWAP1 POP PUSH2 0x255A PUSH1 0x0 DUP4 ADD DUP5 PUSH2 0x2383 JUMP JUMPDEST SWAP3 SWAP2 POP POP JUMP JUMPDEST PUSH1 0x0 PUSH1 0x20 DUP3 ADD SWAP1 POP PUSH2 0x2575 PUSH1 0x0 DUP4 ADD DUP5 PUSH2 0x2392 JUMP JUMPDEST SWAP3 SWAP2 POP POP JUMP JUMPDEST PUSH1 0x0 PUSH1 0x20 DUP3 ADD SWAP1 POP DUP2 DUP2 SUB PUSH1 0x0 DUP4 ADD MSTORE PUSH2 0x2594 DUP2 PUSH2 0x23D2 JUMP JUMPDEST SWAP1 POP SWAP2 SWAP1 POP JUMP JUMPDEST PUSH1 0x0 PUSH1 0x20 DUP3 ADD SWAP1 POP DUP2 DUP2 SUB PUSH1 0x0 DUP4 ADD MSTORE PUSH2 0x25B4 DUP2 PUSH2 0x23F5 JUMP JUMPDEST SWAP1 POP SWAP2 SWAP1 POP JUMP JUMPDEST PUSH1 0x0 PUSH1 0x20 DUP3 ADD SWAP1 POP DUP2 DUP2 SUB PUSH1 0x0 DUP4 ADD MSTORE PUSH2 0x25D4 DUP2 PUSH2 0x2418 JUMP JUMPDEST SWAP1 POP SWAP2 SWAP1 POP JUMP JUMPDEST PUSH1 0x0 PUSH1 0x20 DUP3 ADD SWAP1 POP DUP2 DUP2 SUB PUSH1 0x0 DUP4 ADD MSTORE PUSH2 0x25F4 DUP2 PUSH2 0x243B JUMP JUMPDEST SWAP1 POP SWAP2 SWAP1 POP JUMP JUMPDEST PUSH1 0x0 PUSH1 0x20 DUP3 ADD SWAP1 POP DUP2 DUP2 SUB PUSH1 0x0 DUP4 ADD MSTORE PUSH2 0x2614 DUP2 PUSH2 0x245E JUMP JUMPDEST SWAP1 POP SWAP2 SWAP1 POP JUMP JUMPDEST PUSH1 0x0 PUSH1 0x20 DUP3 ADD SWAP1 POP DUP2 DUP2 SUB PUSH1 0x0 DUP4 ADD MSTORE PUSH2 0x2634 DUP2 PUSH2 0x2481 JUMP JUMPDEST SWAP1 POP SWAP2 SWAP1 POP JUMP JUMPDEST PUSH1 0x0 PUSH1 0x20 DUP3 ADD SWAP1 POP PUSH2 0x2650 PUSH1 0x0 DUP4 ADD DUP5 PUSH2 0x24A4 JUMP JUMPDEST SWAP3 SWAP2 POP POP JUMP JUMPDEST PUSH1 0x0 PUSH1 0x40 DUP3 ADD SWAP1 POP PUSH2 0x266B PUSH1 0x0 DUP4 ADD DUP6 PUSH2 0x24A4 JUMP JUMPDEST PUSH2 0x2678 PUSH1 0x20 DUP4 ADD DUP5 PUSH2 0x24A4 JUMP JUMPDEST SWAP4 SWAP3 POP POP POP JUMP JUMPDEST PUSH1 0x0 PUSH2 0x2689 PUSH2 0x269A JUMP JUMPDEST SWAP1 POP PUSH2 0x2695 DUP3 DUP3 PUSH2 0x28DE JUMP JUMPDEST SWAP2 SWAP1 POP JUMP JUMPDEST PUSH1 0x0 PUSH1 0x40 MLOAD SWAP1 POP SWAP1 JUMP JUMPDEST PUSH1 0x0 PUSH8 0xFFFFFFFFFFFFFFFF DUP3 GT ISZERO PUSH2 0x26BF JUMPI PUSH2 0x26BE PUSH2 0x29B6 JUMP JUMPDEST JUMPDEST PUSH2 0x26C8 DUP3 PUSH2 0x29F9 JUMP JUMPDEST SWAP1 POP PUSH1 0x20 DUP2 ADD SWAP1 POP SWAP2 SWAP1 POP JUMP JUMPDEST PUSH1 0x0 DUP2 MLOAD SWAP1 POP SWAP2 SWAP1 POP JUMP JUMPDEST PUSH1 0x0 DUP3 DUP3 MSTORE PUSH1 0x20 DUP3 ADD SWAP1 POP SWAP3 SWAP2 POP POP JUMP JUMPDEST PUSH1 0x0 DUP2 SWAP1 POP SWAP3 SWAP2 POP POP JUMP JUMPDEST PUSH1 0x0 PUSH2 0x2707 DUP3 PUSH2 0x285C JUMP JUMPDEST SWAP2 POP PUSH2 0x2712 DUP4 PUSH2 0x285C JUMP JUMPDEST SWAP3 POP DUP3 PUSH32 0xFFFFFFFFFFFFFFFFFFFFFFFFFFFFFFFFFFFFFFFFFFFFFFFFFFFFFFFFFFFFFFFF SUB DUP3 GT ISZERO PUSH2 0x2747 JUMPI PUSH2 0x2746 PUSH2 0x2958 JUMP JUMPDEST JUMPDEST DUP3 DUP3 ADD SWAP1 POP SWAP3 SWAP2 POP POP JUMP JUMPDEST PUSH1 0x0 PUSH2 0x275D DUP3 PUSH2 0x285C JUMP JUMPDEST SWAP2 POP PUSH2 0x2768 DUP4 PUSH2 0x285C JUMP JUMPDEST SWAP3 POP DUP3 PUSH2 0x2778 JUMPI PUSH2 0x2777 PUSH2 0x2987 JUMP JUMPDEST JUMPDEST DUP3 DUP3 DIV SWAP1 POP SWAP3 SWAP2 POP POP JUMP JUMPDEST PUSH1 0x0 PUSH2 0x278E DUP3 PUSH2 0x285C JUMP JUMPDEST SWAP2 POP PUSH2 0x2799 DUP4 PUSH2 0x285C JUMP JUMPDEST SWAP3 POP DUP2 PUSH32 0xFFFFFFFFFFFFFFFFFFFFFFFFFFFFFFFFFFFFFFFFFFFFFFFFFFFFFFFFFFFFFFFF DIV DUP4 GT DUP3 ISZERO ISZERO AND ISZERO PUSH2 0x27D2 JUMPI PUSH2 0x27D1 PUSH2 0x2958 JUMP JUMPDEST JUMPDEST DUP3 DUP3 MUL SWAP1 POP SWAP3 SWAP2 POP POP JUMP JUMPDEST PUSH1 0x0 PUSH2 0x27E8 DUP3 PUSH2 0x285C JUMP JUMPDEST SWAP2 POP PUSH2 0x27F3 DUP4 PUSH2 0x285C JUMP JUMPDEST SWAP3 POP DUP3 DUP3 LT ISZERO PUSH2 0x2806 JUMPI PUSH2 0x2805 PUSH2 0x2958 JUMP JUMPDEST JUMPDEST DUP3 DUP3 SUB SWAP1 POP SWAP3 SWAP2 POP POP JUMP JUMPDEST PUSH1 0x0 PUSH2 0x281C DUP3 PUSH2 0x283C JUMP JUMPDEST SWAP1 POP SWAP2 SWAP1 POP JUMP JUMPDEST PUSH1 0x0 DUP2 ISZERO ISZERO SWAP1 POP SWAP2 SWAP1 POP JUMP JUMPDEST PUSH1 0x0 DUP2 PUSH1 0xF SIGNEXTEND SWAP1 POP SWAP2 SWAP1 POP JUMP JUMPDEST PUSH1 0x0 PUSH20 0xFFFFFFFFFFFFFFFFFFFFFFFFFFFFFFFFFFFFFFFF DUP3 AND SWAP1 POP SWAP2 SWAP1 POP JUMP JUMPDEST PUSH1 0x0 DUP2 SWAP1 POP SWAP2 SWAP1 POP JUMP JUMPDEST PUSH1 0x0 PUSH2 0x2871 DUP3 PUSH2 0x2878 JUMP JUMPDEST SWAP1 POP SWAP2 SWAP1 POP JUMP JUMPDEST PUSH1 0x0 PUSH2 0x2883 DUP3 PUSH2 0x288A JUMP JUMPDEST SWAP1 POP SWAP2 SWAP1 POP JUMP JUMPDEST PUSH1 0x0 PUSH2 0x2895 DUP3 PUSH2 0x283C JUMP JUMPDEST SWAP1 POP SWAP2 SWAP1 POP JUMP JUMPDEST DUP3 DUP2 DUP4 CALLDATACOPY PUSH1 0x0 DUP4 DUP4 ADD MSTORE POP POP POP JUMP JUMPDEST PUSH1 0x0 JUMPDEST DUP4 DUP2 LT ISZERO PUSH2 0x28C9 JUMPI DUP1 DUP3 ADD MLOAD DUP2 DUP5 ADD MSTORE PUSH1 0x20 DUP2 ADD SWAP1 POP PUSH2 0x28AE JUMP JUMPDEST DUP4 DUP2 GT ISZERO PUSH2 0x28D8 JUMPI PUSH1 0x0 DUP5 DUP5 ADD MSTORE JUMPDEST POP POP POP POP JUMP JUMPDEST PUSH2 0x28E7 DUP3 PUSH2 0x29F9 JUMP JUMPDEST DUP2 ADD DUP2 DUP2 LT PUSH8 0xFFFFFFFFFFFFFFFF DUP3 GT OR ISZERO PUSH2 0x2906 JUMPI PUSH2 0x2905 PUSH2 0x29B6 JUMP JUMPDEST JUMPDEST DUP1 PUSH1 0x40 MSTORE POP POP POP JUMP JUMPDEST PUSH1 0x0 PUSH2 0x291A DUP3 PUSH2 0x285C JUMP JUMPDEST SWAP2 POP PUSH32 0xFFFFFFFFFFFFFFFFFFFFFFFFFFFFFFFFFFFFFFFFFFFFFFFFFFFFFFFFFFFFFFFF DUP3 EQ ISZERO PUSH2 0x294D JUMPI PUSH2 0x294C PUSH2 0x2958 JUMP JUMPDEST JUMPDEST PUSH1 0x1 DUP3 ADD SWAP1 POP SWAP2 SWAP1 POP JUMP JUMPDEST PUSH32 0x4E487B7100000000000000000000000000000000000000000000000000000000 PUSH1 0x0 MSTORE PUSH1 0x11 PUSH1 0x4 MSTORE PUSH1 0x24 PUSH1 0x0 REVERT JUMPDEST PUSH32 0x4E487B7100000000000000000000000000000000000000000000000000000000 PUSH1 0x0 MSTORE PUSH1 0x12 PUSH1 0x4 MSTORE PUSH1 0x24 PUSH1 0x0 REVERT JUMPDEST PUSH32 0x4E487B7100000000000000000000000000000000000000000000000000000000 PUSH1 0x0 MSTORE PUSH1 0x41 PUSH1 0x4 MSTORE PUSH1 0x24 PUSH1 0x0 REVERT JUMPDEST PUSH1 0x0 DUP1 REVERT JUMPDEST PUSH1 0x0 DUP1 REVERT JUMPDEST PUSH1 0x0 DUP1 REVERT JUMPDEST PUSH1 0x0 DUP1 REVERT JUMPDEST PUSH1 0x0 PUSH1 0x1F NOT PUSH1 0x1F DUP4 ADD AND SWAP1 POP SWAP2 SWAP1 POP JUMP JUMPDEST PUSH32 0x596F7520646F6E7420686176652074686174206D75636820746F207769746864 PUSH1 0x0 DUP3 ADD MSTORE PUSH32 0x7261772100000000000000000000000000000000000000000000000000000000 PUSH1 0x20 DUP3 ADD MSTORE POP JUMP JUMPDEST PUSH32 0x546F6B656E207472616E73666572206661696C65640000000000000000000000 PUSH1 0x0 DUP3 ADD MSTORE POP JUMP JUMPDEST PUSH32 0x596F7520646F6E742068617665207468617420616D6F756E7421000000000000 PUSH1 0x0 DUP3 ADD MSTORE POP JUMP JUMPDEST PUSH32 0x506572207472616E73616374696F6E206C696D69740000000000000000000000 PUSH1 0x0 DUP3 ADD MSTORE POP JUMP JUMPDEST PUSH32 0x4E6F7420756E6C6F636B65640000000000000000000000000000000000000000 PUSH1 0x0 DUP3 ADD MSTORE POP JUMP JUMPDEST PUSH32 0x75696E74206F766572666C6F772066726F6D206D756C7469706C69636174696F PUSH1 0x0 DUP3 ADD MSTORE PUSH32 0x6E00000000000000000000000000000000000000000000000000000000000000 PUSH1 0x20 DUP3 ADD MSTORE POP JUMP JUMPDEST PUSH2 0x2B55 DUP2 PUSH2 0x2811 JUMP JUMPDEST DUP2 EQ PUSH2 0x2B60 JUMPI PUSH1 0x0 DUP1 REVERT JUMPDEST POP JUMP JUMPDEST PUSH2 0x2B6C DUP2 PUSH2 0x2823 JUMP JUMPDEST DUP2 EQ PUSH2 0x2B77 JUMPI PUSH1 0x0 DUP1 REVERT JUMPDEST POP JUMP JUMPDEST PUSH2 0x2B83 DUP2 PUSH2 0x285C JUMP JUMPDEST DUP2 EQ PUSH2 0x2B8E JUMPI PUSH1 0x0 DUP1 REVERT JUMPDEST POP JUMP INVALID LOG2 PUSH5 0x6970667358 0x22 SLT KECCAK256 0xCC 0x5D DUP10 CODESIZE 0xF7 0xCE SWAP14 PUSH32 0x7515F79A84153F005622CC102C19C6C4AC1C1BB56825206764736F6C63430008 SMOD STOP CALLER "
				},
				"gasEstimates": {
					"creation": {
						"codeDepositCost": "2241400",
						"executionCost": "infinite",
						"totalCost": "infinite"
					},
					"external": {
						"addStable(string,address,uint256)": "infinite",
						"buyScepter(uint256,string)": "infinite",
						"cashOutScepter(uint256,uint256)": "infinite",
						"circulatingSupplyXDays(uint256)": "infinite",
						"claimLockedUSDC(address)": "infinite",
						"daysInCalculation()": "2562",
						"decDiv18(uint256,uint256)": "infinite",
						"decMul18(uint256,uint256)": "infinite",
						"devWalletAddr()": "2582",
						"getBackingPrice()": "infinite",
						"getBuyPrice()": "infinite",
						"getCircSupplyXDays()": "442",
						"getGrowthFactor()": "infinite",
						"getSellFactor()": "infinite",
						"getSellPrice()": "infinite",
						"getTokensBoughtXDays()": "infinite",
						"getTokensSoldXDays()": "infinite",
						"growthFactor()": "2473",
						"mockUSDC()": "2733",
						"res()": "2565",
						"riskTreasuryAddr()": "2583",
						"scepterTreasuryAddr()": "2559",
						"sellFactor()": "2496",
						"setDaysUsedInFactors(uint256)": "infinite",
						"stableERC20Info(string)": "infinite",
						"tSC()": "2668",
						"testUpdatetimeLockedminus(uint256)": "infinite",
						"testUpdatetimeLockedplus(uint256)": "infinite",
						"testwallet()": "2580",
						"timeLaunched()": "2474",
						"tokenStable()": "2712",
						"tokensBoughtXDays(uint256)": "infinite",
						"tokensSoldXDays(uint256)": "infinite",
						"transformScepterToBaton(uint256)": "infinite",
						"treasury1Addr()": "2624",
						"treasury1bal()": "2541",
						"whitelist(address)": "544",
						"withdrawStables(uint256)": "540",
						"withheldWithdrawals(address)": "infinite"
					},
					"internal": {
						"_safeTransferFrom(contract IERC20,address,address,uint256)": "infinite",
						"add(uint256,uint256)": "infinite",
						"div(uint256,uint256)": "infinite",
						"mintBaton(uint256)": "infinite",
						"mul(uint256,uint256)": "infinite",
						"sub(uint256,uint256)": "infinite"
					}
				},
				"methodIdentifiers": {
					"addStable(string,address,uint256)": "e5d98082",
					"buyScepter(uint256,string)": "862d1b35",
					"cashOutScepter(uint256,uint256)": "63d03361",
					"circulatingSupplyXDays(uint256)": "1a30e872",
					"claimLockedUSDC(address)": "bcd323cb",
					"daysInCalculation()": "67b48c91",
					"decDiv18(uint256,uint256)": "64ce07d8",
					"decMul18(uint256,uint256)": "f7523c52",
					"devWalletAddr()": "29982a32",
					"getBackingPrice()": "1f564a06",
					"getBuyPrice()": "018a25e8",
					"getCircSupplyXDays()": "0f65de3e",
					"getGrowthFactor()": "93f7b711",
					"getSellFactor()": "0ccaf04f",
					"getSellPrice()": "43d32e9c",
					"getTokensBoughtXDays()": "71cd58f9",
					"getTokensSoldXDays()": "d82eddf2",
					"growthFactor()": "ee620868",
					"mockUSDC()": "ee467678",
					"res()": "6f10e285",
					"riskTreasuryAddr()": "047729b0",
					"scepterTreasuryAddr()": "c079d7f6",
					"sellFactor()": "cbff4617",
					"setDaysUsedInFactors(uint256)": "fc361443",
					"stableERC20Info(string)": "a475bf48",
					"tSC()": "6e05c1b9",
					"testUpdatetimeLockedminus(uint256)": "164c8501",
					"testUpdatetimeLockedplus(uint256)": "67e927a8",
					"testwallet()": "eee05f5e",
					"timeLaunched()": "3c6eb17a",
					"tokenStable()": "7087a7a5",
					"tokensBoughtXDays(uint256)": "2a9f0fb1",
					"tokensSoldXDays(uint256)": "1514c976",
					"transformScepterToBaton(uint256)": "1bc9cc45",
					"treasury1Addr()": "fbbb4589",
					"treasury1bal()": "35453307",
					"whitelist(address)": "9b19251a",
					"withdrawStables(uint256)": "39ad95d6",
					"withheldWithdrawals(address)": "12b2ed94"
				}
			},
			"storageLayout": {
				"storage": [
					{
						"astId": 87,
						"contract": "WandInstruments.sol:testSticks",
						"label": "growthFactor",
						"offset": 0,
						"slot": "0",
						"type": "t_uint256"
					},
					{
						"astId": 89,
						"contract": "WandInstruments.sol:testSticks",
						"label": "sellFactor",
						"offset": 0,
						"slot": "1",
						"type": "t_uint256"
					},
					{
						"astId": 91,
						"contract": "WandInstruments.sol:testSticks",
						"label": "backingPrice",
						"offset": 0,
						"slot": "2",
						"type": "t_uint256"
					},
					{
						"astId": 93,
						"contract": "WandInstruments.sol:testSticks",
						"label": "scepterBuyPrice",
						"offset": 0,
						"slot": "3",
						"type": "t_uint256"
					},
					{
						"astId": 95,
						"contract": "WandInstruments.sol:testSticks",
						"label": "scepterSellPrice",
						"offset": 0,
						"slot": "4",
						"type": "t_uint256"
					},
					{
						"astId": 97,
						"contract": "WandInstruments.sol:testSticks",
						"label": "treasuryUSDC",
						"offset": 0,
						"slot": "5",
						"type": "t_uint256"
					},
					{
						"astId": 99,
						"contract": "WandInstruments.sol:testSticks",
						"label": "treasury1Addr",
						"offset": 0,
						"slot": "6",
						"type": "t_address"
					},
					{
						"astId": 101,
						"contract": "WandInstruments.sol:testSticks",
						"label": "scepterTreasuryAddr",
						"offset": 0,
						"slot": "7",
						"type": "t_address"
					},
					{
						"astId": 103,
						"contract": "WandInstruments.sol:testSticks",
						"label": "riskTreasuryAddr",
						"offset": 0,
						"slot": "8",
						"type": "t_address"
					},
					{
						"astId": 105,
						"contract": "WandInstruments.sol:testSticks",
						"label": "devWalletAddr",
						"offset": 0,
						"slot": "9",
						"type": "t_address"
					},
					{
						"astId": 111,
						"contract": "WandInstruments.sol:testSticks",
						"label": "treasury1bal",
						"offset": 0,
						"slot": "10",
						"type": "t_uint256"
					},
					{
						"astId": 113,
						"contract": "WandInstruments.sol:testSticks",
						"label": "timeLaunched",
						"offset": 0,
						"slot": "11",
						"type": "t_uint256"
					},
					{
						"astId": 115,
						"contract": "WandInstruments.sol:testSticks",
						"label": "daysInCalculation",
						"offset": 0,
						"slot": "12",
						"type": "t_uint256"
					},
					{
						"astId": 118,
						"contract": "WandInstruments.sol:testSticks",
						"label": "ft5daybought",
						"offset": 0,
						"slot": "13",
						"type": "t_uint256"
					},
					{
						"astId": 121,
						"contract": "WandInstruments.sol:testSticks",
						"label": "ft5daysold",
						"offset": 0,
						"slot": "14",
						"type": "t_uint256"
					},
					{
						"astId": 124,
						"contract": "WandInstruments.sol:testSticks",
						"label": "double5daytokens",
						"offset": 0,
						"slot": "15",
						"type": "t_uint256"
					},
					{
						"astId": 126,
						"contract": "WandInstruments.sol:testSticks",
						"label": "res",
						"offset": 0,
						"slot": "16",
						"type": "t_int128"
					},
					{
						"astId": 129,
						"contract": "WandInstruments.sol:testSticks",
						"label": "testwallet",
						"offset": 0,
						"slot": "17",
						"type": "t_address"
					},
					{
						"astId": 132,
						"contract": "WandInstruments.sol:testSticks",
						"label": "tSC",
						"offset": 0,
						"slot": "18",
						"type": "t_contract(IERC20)77"
					},
					{
						"astId": 135,
						"contract": "WandInstruments.sol:testSticks",
						"label": "mockUSDC",
						"offset": 0,
						"slot": "19",
						"type": "t_contract(IERC20)77"
					},
					{
						"astId": 138,
						"contract": "WandInstruments.sol:testSticks",
						"label": "tokenStable",
						"offset": 0,
						"slot": "20",
						"type": "t_contract(IERC20)77"
					},
					{
						"astId": 142,
						"contract": "WandInstruments.sol:testSticks",
						"label": "tokensBoughtXDays",
						"offset": 0,
						"slot": "21",
						"type": "t_mapping(t_uint256,t_uint256)"
					},
					{
						"astId": 146,
						"contract": "WandInstruments.sol:testSticks",
						"label": "tokensSoldXDays",
						"offset": 0,
						"slot": "22",
						"type": "t_mapping(t_uint256,t_uint256)"
					},
					{
						"astId": 150,
						"contract": "WandInstruments.sol:testSticks",
						"label": "circulatingSupplyXDays",
						"offset": 0,
						"slot": "23",
						"type": "t_mapping(t_uint256,t_uint256)"
					},
					{
						"astId": 160,
						"contract": "WandInstruments.sol:testSticks",
						"label": "stableERC20Info",
						"offset": 0,
						"slot": "24",
						"type": "t_mapping(t_string_memory_ptr,t_struct(stableTokensParams)155_storage)"
					},
					{
						"astId": 170,
						"contract": "WandInstruments.sol:testSticks",
						"label": "withheldWithdrawals",
						"offset": 0,
						"slot": "25",
						"type": "t_mapping(t_address,t_struct(lockedamounts)165_storage)"
					},
					{
						"astId": 173,
						"contract": "WandInstruments.sol:testSticks",
						"label": "sptr",
						"offset": 0,
						"slot": "26",
						"type": "t_contract(Scepter)1181"
					},
					{
						"astId": 176,
						"contract": "WandInstruments.sol:testSticks",
						"label": "btn",
						"offset": 0,
						"slot": "27",
						"type": "t_contract(Baton)1189"
					}
				],
				"types": {
					"t_address": {
						"encoding": "inplace",
						"label": "address",
						"numberOfBytes": "20"
					},
					"t_contract(Baton)1189": {
						"encoding": "inplace",
						"label": "contract Baton",
						"numberOfBytes": "20"
					},
					"t_contract(IERC20)77": {
						"encoding": "inplace",
						"label": "contract IERC20",
						"numberOfBytes": "20"
					},
					"t_contract(Scepter)1181": {
						"encoding": "inplace",
						"label": "contract Scepter",
						"numberOfBytes": "20"
					},
					"t_int128": {
						"encoding": "inplace",
						"label": "int128",
						"numberOfBytes": "16"
					},
					"t_mapping(t_address,t_struct(lockedamounts)165_storage)": {
						"encoding": "mapping",
						"key": "t_address",
						"label": "mapping(address => struct testSticks.lockedamounts)",
						"numberOfBytes": "32",
						"value": "t_struct(lockedamounts)165_storage"
					},
					"t_mapping(t_string_memory_ptr,t_struct(stableTokensParams)155_storage)": {
						"encoding": "mapping",
						"key": "t_string_memory_ptr",
						"label": "mapping(string => struct testSticks.stableTokensParams)",
						"numberOfBytes": "32",
						"value": "t_struct(stableTokensParams)155_storage"
					},
					"t_mapping(t_uint256,t_uint256)": {
						"encoding": "mapping",
						"key": "t_uint256",
						"label": "mapping(uint256 => uint256)",
						"numberOfBytes": "32",
						"value": "t_uint256"
					},
					"t_string_memory_ptr": {
						"encoding": "bytes",
						"label": "string",
						"numberOfBytes": "32"
					},
					"t_struct(lockedamounts)165_storage": {
						"encoding": "inplace",
						"label": "struct testSticks.lockedamounts",
						"members": [
							{
								"astId": 162,
								"contract": "WandInstruments.sol:testSticks",
								"label": "timeUnlocked",
								"offset": 0,
								"slot": "0",
								"type": "t_uint256"
							},
							{
								"astId": 164,
								"contract": "WandInstruments.sol:testSticks",
								"label": "amounts",
								"offset": 0,
								"slot": "1",
								"type": "t_uint256"
							}
						],
						"numberOfBytes": "64"
					},
					"t_struct(stableTokensParams)155_storage": {
						"encoding": "inplace",
						"label": "struct testSticks.stableTokensParams",
						"members": [
							{
								"astId": 152,
								"contract": "WandInstruments.sol:testSticks",
								"label": "contractAddress",
								"offset": 0,
								"slot": "0",
								"type": "t_address"
							},
							{
								"astId": 154,
								"contract": "WandInstruments.sol:testSticks",
								"label": "tokenDecimals",
								"offset": 0,
								"slot": "1",
								"type": "t_uint256"
							}
						],
						"numberOfBytes": "64"
					},
					"t_uint256": {
						"encoding": "inplace",
						"label": "uint256",
						"numberOfBytes": "32"
					}
				}
			},
			"userdoc": {
				"events": {
					"sceptersBought(address,uint256)": {
						"notice": "Events*"
					}
				},
				"kind": "user",
				"methods": {},
				"version": 1
			}
		}
	}
}