{
	"Wand.sol": {
		"WAND": {
			"abi": [
				{
					"inputs": [],
					"stateMutability": "nonpayable",
					"type": "constructor"
				},
				{
					"anonymous": false,
					"inputs": [
						{
							"indexed": true,
							"internalType": "address",
							"name": "owner",
							"type": "address"
						},
						{
							"indexed": true,
							"internalType": "address",
							"name": "spender",
							"type": "address"
						},
						{
							"indexed": false,
							"internalType": "uint256",
							"name": "value",
							"type": "uint256"
						}
					],
					"name": "Approval",
					"type": "event"
				},
				{
					"anonymous": false,
					"inputs": [
						{
							"indexed": true,
							"internalType": "address",
							"name": "previousOwner",
							"type": "address"
						},
						{
							"indexed": true,
							"internalType": "address",
							"name": "newOwner",
							"type": "address"
						}
					],
					"name": "OwnershipTransferred",
					"type": "event"
				},
				{
					"anonymous": false,
					"inputs": [
						{
							"indexed": true,
							"internalType": "address",
							"name": "from",
							"type": "address"
						},
						{
							"indexed": true,
							"internalType": "address",
							"name": "to",
							"type": "address"
						},
						{
							"indexed": false,
							"internalType": "uint256",
							"name": "value",
							"type": "uint256"
						}
					],
					"name": "Transfer",
					"type": "event"
				},
				{
					"inputs": [
						{
							"internalType": "address",
							"name": "controller",
							"type": "address"
						}
					],
					"name": "addController",
					"outputs": [],
					"stateMutability": "nonpayable",
					"type": "function"
				},
				{
					"inputs": [
						{
							"internalType": "address",
							"name": "owner",
							"type": "address"
						},
						{
							"internalType": "address",
							"name": "spender",
							"type": "address"
						}
					],
					"name": "allowance",
					"outputs": [
						{
							"internalType": "uint256",
							"name": "",
							"type": "uint256"
						}
					],
					"stateMutability": "view",
					"type": "function"
				},
				{
					"inputs": [
						{
							"internalType": "address",
							"name": "spender",
							"type": "address"
						},
						{
							"internalType": "uint256",
							"name": "amount",
							"type": "uint256"
						}
					],
					"name": "approve",
					"outputs": [
						{
							"internalType": "bool",
							"name": "",
							"type": "bool"
						}
					],
					"stateMutability": "nonpayable",
					"type": "function"
				},
				{
					"inputs": [
						{
							"internalType": "address",
							"name": "account",
							"type": "address"
						}
					],
					"name": "balanceOf",
					"outputs": [
						{
							"internalType": "uint256",
							"name": "",
							"type": "uint256"
						}
					],
					"stateMutability": "view",
					"type": "function"
				},
				{
					"inputs": [
						{
							"internalType": "address",
							"name": "from",
							"type": "address"
						},
						{
							"internalType": "uint256",
							"name": "amount",
							"type": "uint256"
						}
					],
					"name": "burn",
					"outputs": [],
					"stateMutability": "nonpayable",
					"type": "function"
				},
				{
					"inputs": [],
					"name": "decimals",
					"outputs": [
						{
							"internalType": "uint8",
							"name": "",
							"type": "uint8"
						}
					],
					"stateMutability": "view",
					"type": "function"
				},
				{
					"inputs": [
						{
							"internalType": "address",
							"name": "spender",
							"type": "address"
						},
						{
							"internalType": "uint256",
							"name": "subtractedValue",
							"type": "uint256"
						}
					],
					"name": "decreaseAllowance",
					"outputs": [
						{
							"internalType": "bool",
							"name": "",
							"type": "bool"
						}
					],
					"stateMutability": "nonpayable",
					"type": "function"
				},
				{
					"inputs": [
						{
							"internalType": "address",
							"name": "spender",
							"type": "address"
						},
						{
							"internalType": "uint256",
							"name": "addedValue",
							"type": "uint256"
						}
					],
					"name": "increaseAllowance",
					"outputs": [
						{
							"internalType": "bool",
							"name": "",
							"type": "bool"
						}
					],
					"stateMutability": "nonpayable",
					"type": "function"
				},
				{
					"inputs": [
						{
							"internalType": "address",
							"name": "to",
							"type": "address"
						},
						{
							"internalType": "uint256",
							"name": "amount",
							"type": "uint256"
						}
					],
					"name": "mint",
					"outputs": [],
					"stateMutability": "nonpayable",
					"type": "function"
				},
				{
					"inputs": [],
					"name": "name",
					"outputs": [
						{
							"internalType": "string",
							"name": "",
							"type": "string"
						}
					],
					"stateMutability": "view",
					"type": "function"
				},
				{
					"inputs": [],
					"name": "owner",
					"outputs": [
						{
							"internalType": "address",
							"name": "",
							"type": "address"
						}
					],
					"stateMutability": "view",
					"type": "function"
				},
				{
					"inputs": [
						{
							"internalType": "address",
							"name": "controller",
							"type": "address"
						}
					],
					"name": "removeController",
					"outputs": [],
					"stateMutability": "nonpayable",
					"type": "function"
				},
				{
					"inputs": [],
					"name": "renounceOwnership",
					"outputs": [],
					"stateMutability": "nonpayable",
					"type": "function"
				},
				{
					"inputs": [],
					"name": "symbol",
					"outputs": [
						{
							"internalType": "string",
							"name": "",
							"type": "string"
						}
					],
					"stateMutability": "view",
					"type": "function"
				},
				{
					"inputs": [],
					"name": "totalSupply",
					"outputs": [
						{
							"internalType": "uint256",
							"name": "",
							"type": "uint256"
						}
					],
					"stateMutability": "view",
					"type": "function"
				},
				{
					"inputs": [
						{
							"internalType": "address",
							"name": "recipient",
							"type": "address"
						},
						{
							"internalType": "uint256",
							"name": "amount",
							"type": "uint256"
						}
					],
					"name": "transfer",
					"outputs": [
						{
							"internalType": "bool",
							"name": "",
							"type": "bool"
						}
					],
					"stateMutability": "nonpayable",
					"type": "function"
				},
				{
					"inputs": [
						{
							"internalType": "address",
							"name": "sender",
							"type": "address"
						},
						{
							"internalType": "address",
							"name": "recipient",
							"type": "address"
						},
						{
							"internalType": "uint256",
							"name": "amount",
							"type": "uint256"
						}
					],
					"name": "transferFrom",
					"outputs": [
						{
							"internalType": "bool",
							"name": "",
							"type": "bool"
						}
					],
					"stateMutability": "nonpayable",
					"type": "function"
				},
				{
					"inputs": [
						{
							"internalType": "address",
							"name": "newOwner",
							"type": "address"
						}
					],
					"name": "transferOwnership",
					"outputs": [],
					"stateMutability": "nonpayable",
					"type": "function"
				},
				{
					"inputs": [],
					"name": "wandTotalSupply",
					"outputs": [
						{
							"internalType": "uint256",
							"name": "",
							"type": "uint256"
						}
					],
					"stateMutability": "view",
					"type": "function"
				}
			],
			"devdoc": {
				"kind": "dev",
				"methods": {
					"addController(address)": {
						"params": {
							"controller": "the address to enable"
						}
					},
					"allowance(address,address)": {
						"details": "See {IERC20-allowance}."
					},
					"approve(address,uint256)": {
						"details": "See {IERC20-approve}. Requirements: - `spender` cannot be the zero address."
					},
					"balanceOf(address)": {
						"details": "See {IERC20-balanceOf}."
					},
					"burn(address,uint256)": {
						"params": {
							"amount": "the amount of $Scepter to burn TODO: Each time a call is sent to burn $Scepter, the same call is sent to burn same amount of $Wand and mint the same amount of $Baton ",
							"from": "the holder of the $Scepter"
						}
					},
					"decimals()": {
						"details": "Returns the number of decimals used to get its user representation. For example, if `decimals` equals `2`, a balance of `505` tokens should be displayed to a user as `5.05` (`505 / 10 ** 2`). Tokens usually opt for a value of 18, imitating the relationship between Ether and Wei. This is the value {ERC20} uses, unless this function is overridden; NOTE: This information is only used for _display_ purposes: it in no way affects any of the arithmetic of the contract, including {IERC20-balanceOf} and {IERC20-transfer}."
					},
					"decreaseAllowance(address,uint256)": {
						"details": "Atomically decreases the allowance granted to `spender` by the caller. This is an alternative to {approve} that can be used as a mitigation for problems described in {IERC20-approve}. Emits an {Approval} event indicating the updated allowance. Requirements: - `spender` cannot be the zero address. - `spender` must have allowance for the caller of at least `subtractedValue`."
					},
					"increaseAllowance(address,uint256)": {
						"details": "Atomically increases the allowance granted to `spender` by the caller. This is an alternative to {approve} that can be used as a mitigation for problems described in {IERC20-approve}. Emits an {Approval} event indicating the updated allowance. Requirements: - `spender` cannot be the zero address."
					},
					"mint(address,uint256)": {
						"params": {
							"amount": "the amount of $Scepter to mint TODO: Each time a call is sent to mint $Scepter, the same call is sent to mint $Wand",
							"to": "the recipient of the $Scepter"
						}
					},
					"name()": {
						"details": "Returns the name of the token."
					},
					"owner()": {
						"details": "Returns the address of the current owner."
					},
					"removeController(address)": {
						"params": {
							"controller": "the address to disbale"
						}
					},
					"renounceOwnership()": {
						"details": "Leaves the contract without owner. It will not be possible to call `onlyOwner` functions anymore. Can only be called by the current owner. NOTE: Renouncing ownership will leave the contract without an owner, thereby removing any functionality that is only available to the owner."
					},
					"symbol()": {
						"details": "Returns the symbol of the token, usually a shorter version of the name."
					},
					"totalSupply()": {
						"details": "See {IERC20-totalSupply}."
					},
					"transfer(address,uint256)": {
						"details": "See {IERC20-transfer}. Requirements: - `recipient` cannot be the zero address. - the caller must have a balance of at least `amount`."
					},
					"transferFrom(address,address,uint256)": {
						"details": "See {IERC20-transferFrom}. Emits an {Approval} event indicating the updated allowance. This is not required by the EIP. See the note at the beginning of {ERC20}. Requirements: - `sender` and `recipient` cannot be the zero address. - `sender` must have a balance of at least `amount`. - the caller must have allowance for ``sender``'s tokens of at least `amount`."
					},
					"transferOwnership(address)": {
						"details": "Transfers ownership of the contract to a new account (`newOwner`). Can only be called by the current owner."
					}
				},
				"version": 1
			},
			"evm": {
				"assembly": "    /* \"Wand.sol\":122:1811  contract WAND is ERC20, Ownable {\r... */\n  mstore(0x40, 0x80)\n    /* \"Wand.sol\":281:340  constructor() ERC20(\"Wand-Wand\", \"TWND\") {\r... */\n  callvalue\n  dup1\n  iszero\n  tag_1\n  jumpi\n  0x00\n  dup1\n  revert\ntag_1:\n  pop\n    /* \"ERC20.sol\":1974:2150  constructor(string memory name_, string memory symbol_) {... */\n  mload(0x40)\n  dup1\n  0x40\n  add\n  0x40\n  mstore\n  dup1\n  0x09\n  dup2\n  mstore\n  0x20\n  add\n  0x57616e642d57616e640000000000000000000000000000000000000000000000\n  dup2\n  mstore\n  pop\n  mload(0x40)\n  dup1\n  0x40\n  add\n  0x40\n  mstore\n  dup1\n  0x04\n  dup2\n  mstore\n  0x20\n  add\n  0x54574e4400000000000000000000000000000000000000000000000000000000\n  dup2\n  mstore\n  pop\n    /* \"ERC20.sol\":2048:2053  name_ */\n  dup2\n    /* \"ERC20.sol\":2040:2045  _name */\n  0x03\n    /* \"ERC20.sol\":2040:2053  _name = name_ */\n  swap1\n  dup1\n  mload\n  swap1\n  0x20\n  add\n  swap1\n  tag_6\n  swap3\n  swap2\n  swap1\n  tag_7\n  jump\t// in\ntag_6:\n  pop\n    /* \"ERC20.sol\":2073:2080  symbol_ */\n  dup1\n    /* \"ERC20.sol\":2063:2070  _symbol */\n  0x04\n    /* \"ERC20.sol\":2063:2080  _symbol = symbol_ */\n  swap1\n  dup1\n  mload\n  swap1\n  0x20\n  add\n  swap1\n  tag_8\n  swap3\n  swap2\n  swap1\n  tag_7\n  jump\t// in\ntag_8:\n  pop\n    /* \"ERC20.sol\":2101:2143  0x4a55c1181B4aeC55cF8e71377e8518E742F9Ae72 */\n  0x4a55c1181b4aec55cf8e71377e8518e742f9ae72\n    /* \"ERC20.sol\":2090:2098  approved */\n  0x05\n  0x00\n    /* \"ERC20.sol\":2090:2143  approved = 0x4a55c1181B4aeC55cF8e71377e8518E742F9Ae72 */\n  0x0100\n  exp\n  dup2\n  sload\n  dup2\n  0xffffffffffffffffffffffffffffffffffffffff\n  mul\n  not\n  and\n  swap1\n  dup4\n  0xffffffffffffffffffffffffffffffffffffffff\n  and\n  mul\n  or\n  swap1\n  sstore\n  pop\n    /* \"ERC20.sol\":1974:2150  constructor(string memory name_, string memory symbol_) {... */\n  pop\n  pop\n    /* \"Ownable.sol\":914:946  _transferOwnership(_msgSender()) */\n  tag_10\n    /* \"Ownable.sol\":933:945  _msgSender() */\n  tag_11\n    /* \"Ownable.sol\":933:943  _msgSender */\n  shl(0x20, tag_12)\n    /* \"Ownable.sol\":933:945  _msgSender() */\n  0x20\n  shr\n  jump\t// in\ntag_11:\n    /* \"Ownable.sol\":914:932  _transferOwnership */\n  shl(0x20, tag_13)\n    /* \"Ownable.sol\":914:946  _transferOwnership(_msgSender()) */\n  0x20\n  shr\n  jump\t// in\ntag_10:\n    /* \"Wand.sol\":122:1811  contract WAND is ERC20, Ownable {\r... */\n  jump(tag_15)\n    /* \"Context.sol\":640:736  function _msgSender() internal view virtual returns (address) {... */\ntag_12:\n    /* \"Context.sol\":693:700  address */\n  0x00\n    /* \"Context.sol\":719:729  msg.sender */\n  caller\n    /* \"Context.sol\":712:729  return msg.sender */\n  swap1\n  pop\n    /* \"Context.sol\":640:736  function _msgSender() internal view virtual returns (address) {... */\n  swap1\n  jump\t// out\n    /* \"Ownable.sol\":2263:2450  function _transferOwnership(address newOwner) internal virtual {... */\ntag_13:\n    /* \"Ownable.sol\":2336:2352  address oldOwner */\n  0x00\n    /* \"Ownable.sol\":2355:2361  _owner */\n  0x06\n  0x00\n  swap1\n  sload\n  swap1\n  0x0100\n  exp\n  swap1\n  div\n  0xffffffffffffffffffffffffffffffffffffffff\n  and\n    /* \"Ownable.sol\":2336:2361  address oldOwner = _owner */\n  swap1\n  pop\n    /* \"Ownable.sol\":2380:2388  newOwner */\n  dup2\n    /* \"Ownable.sol\":2371:2377  _owner */\n  0x06\n  0x00\n    /* \"Ownable.sol\":2371:2388  _owner = newOwner */\n  0x0100\n  exp\n  dup2\n  sload\n  dup2\n  0xffffffffffffffffffffffffffffffffffffffff\n  mul\n  not\n  and\n  swap1\n  dup4\n  0xffffffffffffffffffffffffffffffffffffffff\n  and\n  mul\n  or\n  swap1\n  sstore\n  pop\n    /* \"Ownable.sol\":2434:2442  newOwner */\n  dup2\n    /* \"Ownable.sol\":2403:2443  OwnershipTransferred(oldOwner, newOwner) */\n  0xffffffffffffffffffffffffffffffffffffffff\n  and\n    /* \"Ownable.sol\":2424:2432  oldOwner */\n  dup2\n    /* \"Ownable.sol\":2403:2443  OwnershipTransferred(oldOwner, newOwner) */\n  0xffffffffffffffffffffffffffffffffffffffff\n  and\n  0x8be0079c531659141344cd1fd0a4f28419497f9722a3daafe3b4186f6b6457e0\n  mload(0x40)\n  mload(0x40)\n  dup1\n  swap2\n  sub\n  swap1\n  log3\n    /* \"Ownable.sol\":2326:2450  {... */\n  pop\n    /* \"Ownable.sol\":2263:2450  function _transferOwnership(address newOwner) internal virtual {... */\n  pop\n  jump\t// out\n    /* \"Wand.sol\":122:1811  contract WAND is ERC20, Ownable {\r... */\ntag_7:\n  dup3\n  dup1\n  sload\n  tag_18\n  swap1\n  tag_19\n  jump\t// in\ntag_18:\n  swap1\n  0x00\n  mstore\n  keccak256(0x00, 0x20)\n  swap1\n  0x1f\n  add\n  0x20\n  swap1\n  div\n  dup2\n  add\n  swap3\n  dup3\n  tag_21\n  jumpi\n  0x00\n  dup6\n  sstore\n  jump(tag_20)\ntag_21:\n  dup3\n  0x1f\n  lt\n  tag_22\n  jumpi\n  dup1\n  mload\n  not(0xff)\n  and\n  dup4\n  dup1\n  add\n  or\n  dup6\n  sstore\n  jump(tag_20)\ntag_22:\n  dup3\n  dup1\n  add\n  0x01\n  add\n  dup6\n  sstore\n  dup3\n  iszero\n  tag_20\n  jumpi\n  swap2\n  dup3\n  add\ntag_23:\n  dup3\n  dup2\n  gt\n  iszero\n  tag_24\n  jumpi\n  dup3\n  mload\n  dup3\n  sstore\n  swap2\n  0x20\n  add\n  swap2\n  swap1\n  0x01\n  add\n  swap1\n  jump(tag_23)\ntag_24:\ntag_20:\n  pop\n  swap1\n  pop\n  tag_25\n  swap2\n  swap1\n  tag_26\n  jump\t// in\ntag_25:\n  pop\n  swap1\n  jump\t// out\ntag_26:\ntag_27:\n  dup1\n  dup3\n  gt\n  iszero\n  tag_28\n  jumpi\n  0x00\n  dup2\n  0x00\n  swap1\n  sstore\n  pop\n  0x01\n  add\n  jump(tag_27)\ntag_28:\n  pop\n  swap1\n  jump\t// out\n    /* \"#utility.yul\":7:327   */\ntag_19:\n    /* \"#utility.yul\":51:57   */\n  0x00\n    /* \"#utility.yul\":88:89   */\n  0x02\n    /* \"#utility.yul\":82:86   */\n  dup3\n    /* \"#utility.yul\":78:90   */\n  div\n    /* \"#utility.yul\":68:90   */\n  swap1\n  pop\n    /* \"#utility.yul\":135:136   */\n  0x01\n    /* \"#utility.yul\":129:133   */\n  dup3\n    /* \"#utility.yul\":125:137   */\n  and\n    /* \"#utility.yul\":156:174   */\n  dup1\n    /* \"#utility.yul\":146:227   */\n  tag_31\n  jumpi\n    /* \"#utility.yul\":212:216   */\n  0x7f\n    /* \"#utility.yul\":204:210   */\n  dup3\n    /* \"#utility.yul\":200:217   */\n  and\n    /* \"#utility.yul\":190:217   */\n  swap2\n  pop\n    /* \"#utility.yul\":146:227   */\ntag_31:\n    /* \"#utility.yul\":274:276   */\n  0x20\n    /* \"#utility.yul\":266:272   */\n  dup3\n    /* \"#utility.yul\":263:277   */\n  lt\n    /* \"#utility.yul\":243:261   */\n  dup2\n    /* \"#utility.yul\":240:278   */\n  eq\n    /* \"#utility.yul\":237:321   */\n  iszero\n  tag_32\n  jumpi\n    /* \"#utility.yul\":293:311   */\n  tag_33\n  tag_34\n  jump\t// in\ntag_33:\n    /* \"#utility.yul\":237:321   */\ntag_32:\n    /* \"#utility.yul\":58:327   */\n  pop\n    /* \"#utility.yul\":7:327   */\n  swap2\n  swap1\n  pop\n  jump\t// out\n    /* \"#utility.yul\":333:513   */\ntag_34:\n    /* \"#utility.yul\":381:458   */\n  0x4e487b7100000000000000000000000000000000000000000000000000000000\n    /* \"#utility.yul\":378:379   */\n  0x00\n    /* \"#utility.yul\":371:459   */\n  mstore\n    /* \"#utility.yul\":478:482   */\n  0x22\n    /* \"#utility.yul\":475:476   */\n  0x04\n    /* \"#utility.yul\":468:483   */\n  mstore\n    /* \"#utility.yul\":502:506   */\n  0x24\n    /* \"#utility.yul\":499:500   */\n  0x00\n    /* \"#utility.yul\":492:507   */\n  revert\n    /* \"Wand.sol\":122:1811  contract WAND is ERC20, Ownable {\r... */\ntag_15:\n  dataSize(sub_0)\n  dup1\n  dataOffset(sub_0)\n  0x00\n  codecopy\n  0x00\n  return\nstop\n\nsub_0: assembly {\n        /* \"Wand.sol\":122:1811  contract WAND is ERC20, Ownable {\r... */\n      mstore(0x40, 0x80)\n      callvalue\n      dup1\n      iszero\n      tag_1\n      jumpi\n      0x00\n      dup1\n      revert\n    tag_1:\n      pop\n      jumpi(tag_2, lt(calldatasize, 0x04))\n      shr(0xe0, calldataload(0x00))\n      dup1\n      0x8da5cb5b\n      gt\n      tag_22\n      jumpi\n      dup1\n      0xa9059cbb\n      gt\n      tag_23\n      jumpi\n      dup1\n      0xa9059cbb\n      eq\n      tag_17\n      jumpi\n      dup1\n      0xdd62ed3e\n      eq\n      tag_18\n      jumpi\n      dup1\n      0xf2fde38b\n      eq\n      tag_19\n      jumpi\n      dup1\n      0xf6a74ed7\n      eq\n      tag_20\n      jumpi\n      dup1\n      0xf7425e4e\n      eq\n      tag_21\n      jumpi\n      jump(tag_2)\n    tag_23:\n      dup1\n      0x8da5cb5b\n      eq\n      tag_12\n      jumpi\n      dup1\n      0x95d89b41\n      eq\n      tag_13\n      jumpi\n      dup1\n      0x9dc29fac\n      eq\n      tag_14\n      jumpi\n      dup1\n      0xa457c2d7\n      eq\n      tag_15\n      jumpi\n      dup1\n      0xa7fc7a07\n      eq\n      tag_16\n      jumpi\n      jump(tag_2)\n    tag_22:\n      dup1\n      0x313ce567\n      gt\n      tag_24\n      jumpi\n      dup1\n      0x313ce567\n      eq\n      tag_7\n      jumpi\n      dup1\n      0x39509351\n      eq\n      tag_8\n      jumpi\n      dup1\n      0x40c10f19\n      eq\n      tag_9\n      jumpi\n      dup1\n      0x70a08231\n      eq\n      tag_10\n      jumpi\n      dup1\n      0x715018a6\n      eq\n      tag_11\n      jumpi\n      jump(tag_2)\n    tag_24:\n      dup1\n      0x06fdde03\n      eq\n      tag_3\n      jumpi\n      dup1\n      0x095ea7b3\n      eq\n      tag_4\n      jumpi\n      dup1\n      0x18160ddd\n      eq\n      tag_5\n      jumpi\n      dup1\n      0x23b872dd\n      eq\n      tag_6\n      jumpi\n    tag_2:\n      0x00\n      dup1\n      revert\n        /* \"ERC20.sol\":2297:2395  function name() public view virtual override returns (string memory) {... */\n    tag_3:\n      tag_25\n      tag_26\n      jump\t// in\n    tag_25:\n      mload(0x40)\n      tag_27\n      swap2\n      swap1\n      tag_28\n      jump\t// in\n    tag_27:\n      mload(0x40)\n      dup1\n      swap2\n      sub\n      swap1\n      return\n        /* \"ERC20.sol\":4407:4573  function approve(address spender, uint256 amount) public virtual override returns (bool) {... */\n    tag_4:\n      tag_29\n      0x04\n      dup1\n      calldatasize\n      sub\n      dup2\n      add\n      swap1\n      tag_30\n      swap2\n      swap1\n      tag_31\n      jump\t// in\n    tag_30:\n      tag_32\n      jump\t// in\n    tag_29:\n      mload(0x40)\n      tag_33\n      swap2\n      swap1\n      tag_34\n      jump\t// in\n    tag_33:\n      mload(0x40)\n      dup1\n      swap2\n      sub\n      swap1\n      return\n        /* \"ERC20.sol\":3385:3491  function totalSupply() public view virtual override returns (uint256) {... */\n    tag_5:\n      tag_35\n      tag_36\n      jump\t// in\n    tag_35:\n      mload(0x40)\n      tag_37\n      swap2\n      swap1\n      tag_38\n      jump\t// in\n    tag_37:\n      mload(0x40)\n      dup1\n      swap2\n      sub\n      swap1\n      return\n        /* \"ERC20.sol\":5040:5518  function transferFrom(... */\n    tag_6:\n      tag_39\n      0x04\n      dup1\n      calldatasize\n      sub\n      dup2\n      add\n      swap1\n      tag_40\n      swap2\n      swap1\n      tag_41\n      jump\t// in\n    tag_40:\n      tag_42\n      jump\t// in\n    tag_39:\n      mload(0x40)\n      tag_43\n      swap2\n      swap1\n      tag_34\n      jump\t// in\n    tag_43:\n      mload(0x40)\n      dup1\n      swap2\n      sub\n      swap1\n      return\n        /* \"ERC20.sol\":3234:3325  function decimals() public view virtual override returns (uint8) {... */\n    tag_7:\n      tag_44\n      tag_45\n      jump\t// in\n    tag_44:\n      mload(0x40)\n      tag_46\n      swap2\n      swap1\n      tag_47\n      jump\t// in\n    tag_46:\n      mload(0x40)\n      dup1\n      swap2\n      sub\n      swap1\n      return\n        /* \"ERC20.sol\":5913:6125  function increaseAllowance(address spender, uint256 addedValue) public virtual returns (bool) {... */\n    tag_8:\n      tag_48\n      0x04\n      dup1\n      calldatasize\n      sub\n      dup2\n      add\n      swap1\n      tag_49\n      swap2\n      swap1\n      tag_31\n      jump\t// in\n    tag_49:\n      tag_50\n      jump\t// in\n    tag_48:\n      mload(0x40)\n      tag_51\n      swap2\n      swap1\n      tag_34\n      jump\t// in\n    tag_51:\n      mload(0x40)\n      dup1\n      swap2\n      sub\n      swap1\n      return\n        /* \"Wand.sol\":594:751  function mint(address to, uint256 amount) public {\r... */\n    tag_9:\n      tag_52\n      0x04\n      dup1\n      calldatasize\n      sub\n      dup2\n      add\n      swap1\n      tag_53\n      swap2\n      swap1\n      tag_31\n      jump\t// in\n    tag_53:\n      tag_54\n      jump\t// in\n    tag_52:\n      stop\n        /* \"ERC20.sol\":3549:3674  function balanceOf(address account) public view virtual override returns (uint256) {... */\n    tag_10:\n      tag_55\n      0x04\n      dup1\n      calldatasize\n      sub\n      dup2\n      add\n      swap1\n      tag_56\n      swap2\n      swap1\n      tag_57\n      jump\t// in\n    tag_56:\n      tag_58\n      jump\t// in\n    tag_55:\n      mload(0x40)\n      tag_59\n      swap2\n      swap1\n      tag_38\n      jump\t// in\n    tag_59:\n      mload(0x40)\n      dup1\n      swap2\n      sub\n      swap1\n      return\n        /* \"Ownable.sol\":1661:1762  function renounceOwnership() public virtual onlyOwner {... */\n    tag_11:\n      tag_60\n      tag_61\n      jump\t// in\n    tag_60:\n      stop\n        /* \"Ownable.sol\":1029:1114  function owner() public view virtual returns (address) {... */\n    tag_12:\n      tag_62\n      tag_63\n      jump\t// in\n    tag_62:\n      mload(0x40)\n      tag_64\n      swap2\n      swap1\n      tag_65\n      jump\t// in\n    tag_64:\n      mload(0x40)\n      dup1\n      swap2\n      sub\n      swap1\n      return\n        /* \"ERC20.sol\":2508:2610  function symbol() public view virtual override returns (string memory) {... */\n    tag_13:\n      tag_66\n      tag_67\n      jump\t// in\n    tag_66:\n      mload(0x40)\n      tag_68\n      swap2\n      swap1\n      tag_28\n      jump\t// in\n    tag_68:\n      mload(0x40)\n      dup1\n      swap2\n      sub\n      swap1\n      return\n        /* \"Wand.sol\":1055:1218  function burn(address from, uint256 amount) external {\r... */\n    tag_14:\n      tag_69\n      0x04\n      dup1\n      calldatasize\n      sub\n      dup2\n      add\n      swap1\n      tag_70\n      swap2\n      swap1\n      tag_31\n      jump\t// in\n    tag_70:\n      tag_71\n      jump\t// in\n    tag_69:\n      stop\n        /* \"ERC20.sol\":6612:7017  function decreaseAllowance(address spender, uint256 subtractedValue) public virtual returns (bool) {... */\n    tag_15:\n      tag_72\n      0x04\n      dup1\n      calldatasize\n      sub\n      dup2\n      add\n      swap1\n      tag_73\n      swap2\n      swap1\n      tag_31\n      jump\t// in\n    tag_73:\n      tag_74\n      jump\t// in\n    tag_72:\n      mload(0x40)\n      tag_75\n      swap2\n      swap1\n      tag_34\n      jump\t// in\n    tag_75:\n      mload(0x40)\n      dup1\n      swap2\n      sub\n      swap1\n      return\n        /* \"Wand.sol\":1332:1443  function addController(address controller) external onlyOwner {\r... */\n    tag_16:\n      tag_76\n      0x04\n      dup1\n      calldatasize\n      sub\n      dup2\n      add\n      swap1\n      tag_77\n      swap2\n      swap1\n      tag_57\n      jump\t// in\n    tag_77:\n      tag_78\n      jump\t// in\n    tag_76:\n      stop\n        /* \"ERC20.sol\":3877:4062  function transfer(address recipient, uint256 amount) public virtual override onlyApproved returns (bool) {... */\n    tag_17:\n      tag_79\n      0x04\n      dup1\n      calldatasize\n      sub\n      dup2\n      add\n      swap1\n      tag_80\n      swap2\n      swap1\n      tag_31\n      jump\t// in\n    tag_80:\n      tag_81\n      jump\t// in\n    tag_79:\n      mload(0x40)\n      tag_82\n      swap2\n      swap1\n      tag_34\n      jump\t// in\n    tag_82:\n      mload(0x40)\n      dup1\n      swap2\n      sub\n      swap1\n      return\n        /* \"ERC20.sol\":4120:4269  function allowance(address owner, address spender) public view virtual override returns (uint256) {... */\n    tag_18:\n      tag_83\n      0x04\n      dup1\n      calldatasize\n      sub\n      dup2\n      add\n      swap1\n      tag_84\n      swap2\n      swap1\n      tag_85\n      jump\t// in\n    tag_84:\n      tag_86\n      jump\t// in\n    tag_83:\n      mload(0x40)\n      tag_87\n      swap2\n      swap1\n      tag_38\n      jump\t// in\n    tag_87:\n      mload(0x40)\n      dup1\n      swap2\n      sub\n      swap1\n      return\n        /* \"Ownable.sol\":1911:2109  function transferOwnership(address newOwner) public virtual onlyOwner {... */\n    tag_19:\n      tag_88\n      0x04\n      dup1\n      calldatasize\n      sub\n      dup2\n      add\n      swap1\n      tag_89\n      swap2\n      swap1\n      tag_57\n      jump\t// in\n    tag_89:\n      tag_90\n      jump\t// in\n    tag_88:\n      stop\n        /* \"Wand.sol\":1567:1682  function removeController(address controller) external onlyOwner {\r... */\n    tag_20:\n      tag_91\n      0x04\n      dup1\n      calldatasize\n      sub\n      dup2\n      add\n      swap1\n      tag_92\n      swap2\n      swap1\n      tag_57\n      jump\t// in\n    tag_92:\n      tag_93\n      jump\t// in\n    tag_91:\n      stop\n        /* \"Wand.sol\":1688:1789  function wandTotalSupply() external view returns (uint256){\r... */\n    tag_21:\n      tag_94\n      tag_95\n      jump\t// in\n    tag_94:\n      mload(0x40)\n      tag_96\n      swap2\n      swap1\n      tag_38\n      jump\t// in\n    tag_96:\n      mload(0x40)\n      dup1\n      swap2\n      sub\n      swap1\n      return\n        /* \"ERC20.sol\":2297:2395  function name() public view virtual override returns (string memory) {... */\n    tag_26:\n        /* \"ERC20.sol\":2351:2364  string memory */\n      0x60\n        /* \"ERC20.sol\":2383:2388  _name */\n      0x03\n        /* \"ERC20.sol\":2376:2388  return _name */\n      dup1\n      sload\n      tag_98\n      swap1\n      tag_99\n      jump\t// in\n    tag_98:\n      dup1\n      0x1f\n      add\n      0x20\n      dup1\n      swap2\n      div\n      mul\n      0x20\n      add\n      mload(0x40)\n      swap1\n      dup2\n      add\n      0x40\n      mstore\n      dup1\n      swap3\n      swap2\n      swap1\n      dup2\n      dup2\n      mstore\n      0x20\n      add\n      dup3\n      dup1\n      sload\n      tag_100\n      swap1\n      tag_99\n      jump\t// in\n    tag_100:\n      dup1\n      iszero\n      tag_101\n      jumpi\n      dup1\n      0x1f\n      lt\n      tag_102\n      jumpi\n      0x0100\n      dup1\n      dup4\n      sload\n      div\n      mul\n      dup4\n      mstore\n      swap2\n      0x20\n      add\n      swap2\n      jump(tag_101)\n    tag_102:\n      dup3\n      add\n      swap2\n      swap1\n      0x00\n      mstore\n      keccak256(0x00, 0x20)\n      swap1\n    tag_103:\n      dup2\n      sload\n      dup2\n      mstore\n      swap1\n      0x01\n      add\n      swap1\n      0x20\n      add\n      dup1\n      dup4\n      gt\n      tag_103\n      jumpi\n      dup3\n      swap1\n      sub\n      0x1f\n      and\n      dup3\n      add\n      swap2\n    tag_101:\n      pop\n      pop\n      pop\n      pop\n      pop\n      swap1\n      pop\n        /* \"ERC20.sol\":2297:2395  function name() public view virtual override returns (string memory) {... */\n      swap1\n      jump\t// out\n        /* \"ERC20.sol\":4407:4573  function approve(address spender, uint256 amount) public virtual override returns (bool) {... */\n    tag_32:\n        /* \"ERC20.sol\":4490:4494  bool */\n      0x00\n        /* \"ERC20.sol\":4506:4545  _approve(_msgSender(), spender, amount) */\n      tag_105\n        /* \"ERC20.sol\":4515:4527  _msgSender() */\n      tag_106\n        /* \"ERC20.sol\":4515:4525  _msgSender */\n      tag_107\n        /* \"ERC20.sol\":4515:4527  _msgSender() */\n      jump\t// in\n    tag_106:\n        /* \"ERC20.sol\":4529:4536  spender */\n      dup5\n        /* \"ERC20.sol\":4538:4544  amount */\n      dup5\n        /* \"ERC20.sol\":4506:4514  _approve */\n      tag_108\n        /* \"ERC20.sol\":4506:4545  _approve(_msgSender(), spender, amount) */\n      jump\t// in\n    tag_105:\n        /* \"ERC20.sol\":4562:4566  true */\n      0x01\n        /* \"ERC20.sol\":4555:4566  return true */\n      swap1\n      pop\n        /* \"ERC20.sol\":4407:4573  function approve(address spender, uint256 amount) public virtual override returns (bool) {... */\n      swap3\n      swap2\n      pop\n      pop\n      jump\t// out\n        /* \"ERC20.sol\":3385:3491  function totalSupply() public view virtual override returns (uint256) {... */\n    tag_36:\n        /* \"ERC20.sol\":3446:3453  uint256 */\n      0x00\n        /* \"ERC20.sol\":3472:3484  _totalSupply */\n      sload(0x02)\n        /* \"ERC20.sol\":3465:3484  return _totalSupply */\n      swap1\n      pop\n        /* \"ERC20.sol\":3385:3491  function totalSupply() public view virtual override returns (uint256) {... */\n      swap1\n      jump\t// out\n        /* \"ERC20.sol\":5040:5518  function transferFrom(... */\n    tag_42:\n        /* \"ERC20.sol\":5176:5180  bool */\n      0x00\n        /* \"ERC20.sol\":5192:5228  _transfer(sender, recipient, amount) */\n      tag_111\n        /* \"ERC20.sol\":5202:5208  sender */\n      dup5\n        /* \"ERC20.sol\":5210:5219  recipient */\n      dup5\n        /* \"ERC20.sol\":5221:5227  amount */\n      dup5\n        /* \"ERC20.sol\":5192:5201  _transfer */\n      tag_112\n        /* \"ERC20.sol\":5192:5228  _transfer(sender, recipient, amount) */\n      jump\t// in\n    tag_111:\n        /* \"ERC20.sol\":5239:5263  uint256 currentAllowance */\n      0x00\n        /* \"ERC20.sol\":5266:5277  _allowances */\n      0x01\n        /* \"ERC20.sol\":5266:5285  _allowances[sender] */\n      0x00\n        /* \"ERC20.sol\":5278:5284  sender */\n      dup7\n        /* \"ERC20.sol\":5266:5285  _allowances[sender] */\n      0xffffffffffffffffffffffffffffffffffffffff\n      and\n      0xffffffffffffffffffffffffffffffffffffffff\n      and\n      dup2\n      mstore\n      0x20\n      add\n      swap1\n      dup2\n      mstore\n      0x20\n      add\n      0x00\n      keccak256\n        /* \"ERC20.sol\":5266:5299  _allowances[sender][_msgSender()] */\n      0x00\n        /* \"ERC20.sol\":5286:5298  _msgSender() */\n      tag_113\n        /* \"ERC20.sol\":5286:5296  _msgSender */\n      tag_107\n        /* \"ERC20.sol\":5286:5298  _msgSender() */\n      jump\t// in\n    tag_113:\n        /* \"ERC20.sol\":5266:5299  _allowances[sender][_msgSender()] */\n      0xffffffffffffffffffffffffffffffffffffffff\n      and\n      0xffffffffffffffffffffffffffffffffffffffff\n      and\n      dup2\n      mstore\n      0x20\n      add\n      swap1\n      dup2\n      mstore\n      0x20\n      add\n      0x00\n      keccak256\n      sload\n        /* \"ERC20.sol\":5239:5299  uint256 currentAllowance = _allowances[sender][_msgSender()] */\n      swap1\n      pop\n        /* \"ERC20.sol\":5337:5343  amount */\n      dup3\n        /* \"ERC20.sol\":5317:5333  currentAllowance */\n      dup2\n        /* \"ERC20.sol\":5317:5343  currentAllowance >= amount */\n      lt\n      iszero\n        /* \"ERC20.sol\":5309:5388  require(currentAllowance >= amount, \"ERC20: transfer amount exceeds allowance\") */\n      tag_114\n      jumpi\n      mload(0x40)\n      0x08c379a000000000000000000000000000000000000000000000000000000000\n      dup2\n      mstore\n      0x04\n      add\n      tag_115\n      swap1\n      tag_116\n      jump\t// in\n    tag_115:\n      mload(0x40)\n      dup1\n      swap2\n      sub\n      swap1\n      revert\n    tag_114:\n        /* \"ERC20.sol\":5422:5479  _approve(sender, _msgSender(), currentAllowance - amount) */\n      tag_117\n        /* \"ERC20.sol\":5431:5437  sender */\n      dup6\n        /* \"ERC20.sol\":5439:5451  _msgSender() */\n      tag_118\n        /* \"ERC20.sol\":5439:5449  _msgSender */\n      tag_107\n        /* \"ERC20.sol\":5439:5451  _msgSender() */\n      jump\t// in\n    tag_118:\n        /* \"ERC20.sol\":5472:5478  amount */\n      dup6\n        /* \"ERC20.sol\":5453:5469  currentAllowance */\n      dup5\n        /* \"ERC20.sol\":5453:5478  currentAllowance - amount */\n      sub\n        /* \"ERC20.sol\":5422:5430  _approve */\n      tag_108\n        /* \"ERC20.sol\":5422:5479  _approve(sender, _msgSender(), currentAllowance - amount) */\n      jump\t// in\n    tag_117:\n        /* \"ERC20.sol\":5507:5511  true */\n      0x01\n        /* \"ERC20.sol\":5500:5511  return true */\n      swap2\n      pop\n      pop\n        /* \"ERC20.sol\":5040:5518  function transferFrom(... */\n      swap4\n      swap3\n      pop\n      pop\n      pop\n      jump\t// out\n        /* \"ERC20.sol\":3234:3325  function decimals() public view virtual override returns (uint8) {... */\n    tag_45:\n        /* \"ERC20.sol\":3292:3297  uint8 */\n      0x00\n        /* \"ERC20.sol\":3316:3318  18 */\n      0x12\n        /* \"ERC20.sol\":3309:3318  return 18 */\n      swap1\n      pop\n        /* \"ERC20.sol\":3234:3325  function decimals() public view virtual override returns (uint8) {... */\n      swap1\n      jump\t// out\n        /* \"ERC20.sol\":5913:6125  function increaseAllowance(address spender, uint256 addedValue) public virtual returns (bool) {... */\n    tag_50:\n        /* \"ERC20.sol\":6001:6005  bool */\n      0x00\n        /* \"ERC20.sol\":6017:6097  _approve(_msgSender(), spender, _allowances[_msgSender()][spender] + addedValue) */\n      tag_121\n        /* \"ERC20.sol\":6026:6038  _msgSender() */\n      tag_122\n        /* \"ERC20.sol\":6026:6036  _msgSender */\n      tag_107\n        /* \"ERC20.sol\":6026:6038  _msgSender() */\n      jump\t// in\n    tag_122:\n        /* \"ERC20.sol\":6040:6047  spender */\n      dup5\n        /* \"ERC20.sol\":6086:6096  addedValue */\n      dup5\n        /* \"ERC20.sol\":6049:6060  _allowances */\n      0x01\n        /* \"ERC20.sol\":6049:6074  _allowances[_msgSender()] */\n      0x00\n        /* \"ERC20.sol\":6061:6073  _msgSender() */\n      tag_123\n        /* \"ERC20.sol\":6061:6071  _msgSender */\n      tag_107\n        /* \"ERC20.sol\":6061:6073  _msgSender() */\n      jump\t// in\n    tag_123:\n        /* \"ERC20.sol\":6049:6074  _allowances[_msgSender()] */\n      0xffffffffffffffffffffffffffffffffffffffff\n      and\n      0xffffffffffffffffffffffffffffffffffffffff\n      and\n      dup2\n      mstore\n      0x20\n      add\n      swap1\n      dup2\n      mstore\n      0x20\n      add\n      0x00\n      keccak256\n        /* \"ERC20.sol\":6049:6083  _allowances[_msgSender()][spender] */\n      0x00\n        /* \"ERC20.sol\":6075:6082  spender */\n      dup9\n        /* \"ERC20.sol\":6049:6083  _allowances[_msgSender()][spender] */\n      0xffffffffffffffffffffffffffffffffffffffff\n      and\n      0xffffffffffffffffffffffffffffffffffffffff\n      and\n      dup2\n      mstore\n      0x20\n      add\n      swap1\n      dup2\n      mstore\n      0x20\n      add\n      0x00\n      keccak256\n      sload\n        /* \"ERC20.sol\":6049:6096  _allowances[_msgSender()][spender] + addedValue */\n      tag_124\n      swap2\n      swap1\n      tag_125\n      jump\t// in\n    tag_124:\n        /* \"ERC20.sol\":6017:6025  _approve */\n      tag_108\n        /* \"ERC20.sol\":6017:6097  _approve(_msgSender(), spender, _allowances[_msgSender()][spender] + addedValue) */\n      jump\t// in\n    tag_121:\n        /* \"ERC20.sol\":6114:6118  true */\n      0x01\n        /* \"ERC20.sol\":6107:6118  return true */\n      swap1\n      pop\n        /* \"ERC20.sol\":5913:6125  function increaseAllowance(address spender, uint256 addedValue) public virtual returns (bool) {... */\n      swap3\n      swap2\n      pop\n      pop\n      jump\t// out\n        /* \"Wand.sol\":594:751  function mint(address to, uint256 amount) public {\r... */\n    tag_54:\n        /* \"Wand.sol\":662:673  controllers */\n      0x07\n        /* \"Wand.sol\":662:685  controllers[msg.sender] */\n      0x00\n        /* \"Wand.sol\":674:684  msg.sender */\n      caller\n        /* \"Wand.sol\":662:685  controllers[msg.sender] */\n      0xffffffffffffffffffffffffffffffffffffffff\n      and\n      0xffffffffffffffffffffffffffffffffffffffff\n      and\n      dup2\n      mstore\n      0x20\n      add\n      swap1\n      dup2\n      mstore\n      0x20\n      add\n      0x00\n      keccak256\n      0x00\n      swap1\n      sload\n      swap1\n      0x0100\n      exp\n      swap1\n      div\n      0xff\n      and\n        /* \"Wand.sol\":654:715  require(controllers[msg.sender], \"Only controllers can mint\") */\n      tag_127\n      jumpi\n      mload(0x40)\n      0x08c379a000000000000000000000000000000000000000000000000000000000\n      dup2\n      mstore\n      0x04\n      add\n      tag_128\n      swap1\n      tag_129\n      jump\t// in\n    tag_128:\n      mload(0x40)\n      dup1\n      swap2\n      sub\n      swap1\n      revert\n    tag_127:\n        /* \"Wand.sol\":726:743  _mint(to, amount) */\n      tag_130\n        /* \"Wand.sol\":732:734  to */\n      dup3\n        /* \"Wand.sol\":736:742  amount */\n      dup3\n        /* \"Wand.sol\":726:731  _mint */\n      tag_131\n        /* \"Wand.sol\":726:743  _mint(to, amount) */\n      jump\t// in\n    tag_130:\n        /* \"Wand.sol\":594:751  function mint(address to, uint256 amount) public {\r... */\n      pop\n      pop\n      jump\t// out\n        /* \"ERC20.sol\":3549:3674  function balanceOf(address account) public view virtual override returns (uint256) {... */\n    tag_58:\n        /* \"ERC20.sol\":3623:3630  uint256 */\n      0x00\n        /* \"ERC20.sol\":3649:3658  _balances */\n      dup1\n        /* \"ERC20.sol\":3649:3667  _balances[account] */\n      0x00\n        /* \"ERC20.sol\":3659:3666  account */\n      dup4\n        /* \"ERC20.sol\":3649:3667  _balances[account] */\n      0xffffffffffffffffffffffffffffffffffffffff\n      and\n      0xffffffffffffffffffffffffffffffffffffffff\n      and\n      dup2\n      mstore\n      0x20\n      add\n      swap1\n      dup2\n      mstore\n      0x20\n      add\n      0x00\n      keccak256\n      sload\n        /* \"ERC20.sol\":3642:3667  return _balances[account] */\n      swap1\n      pop\n        /* \"ERC20.sol\":3549:3674  function balanceOf(address account) public view virtual override returns (uint256) {... */\n      swap2\n      swap1\n      pop\n      jump\t// out\n        /* \"Ownable.sol\":1661:1762  function renounceOwnership() public virtual onlyOwner {... */\n    tag_61:\n        /* \"Ownable.sol\":1252:1264  _msgSender() */\n      tag_134\n        /* \"Ownable.sol\":1252:1262  _msgSender */\n      tag_107\n        /* \"Ownable.sol\":1252:1264  _msgSender() */\n      jump\t// in\n    tag_134:\n        /* \"Ownable.sol\":1241:1264  owner() == _msgSender() */\n      0xffffffffffffffffffffffffffffffffffffffff\n      and\n        /* \"Ownable.sol\":1241:1248  owner() */\n      tag_135\n        /* \"Ownable.sol\":1241:1246  owner */\n      tag_63\n        /* \"Ownable.sol\":1241:1248  owner() */\n      jump\t// in\n    tag_135:\n        /* \"Ownable.sol\":1241:1264  owner() == _msgSender() */\n      0xffffffffffffffffffffffffffffffffffffffff\n      and\n      eq\n        /* \"Ownable.sol\":1233:1301  require(owner() == _msgSender(), \"Ownable: caller is not the owner\") */\n      tag_136\n      jumpi\n      mload(0x40)\n      0x08c379a000000000000000000000000000000000000000000000000000000000\n      dup2\n      mstore\n      0x04\n      add\n      tag_137\n      swap1\n      tag_138\n      jump\t// in\n    tag_137:\n      mload(0x40)\n      dup1\n      swap2\n      sub\n      swap1\n      revert\n    tag_136:\n        /* \"Ownable.sol\":1725:1755  _transferOwnership(address(0)) */\n      tag_140\n        /* \"Ownable.sol\":1752:1753  0 */\n      0x00\n        /* \"Ownable.sol\":1725:1743  _transferOwnership */\n      tag_141\n        /* \"Ownable.sol\":1725:1755  _transferOwnership(address(0)) */\n      jump\t// in\n    tag_140:\n        /* \"Ownable.sol\":1661:1762  function renounceOwnership() public virtual onlyOwner {... */\n      jump\t// out\n        /* \"Ownable.sol\":1029:1114  function owner() public view virtual returns (address) {... */\n    tag_63:\n        /* \"Ownable.sol\":1075:1082  address */\n      0x00\n        /* \"Ownable.sol\":1101:1107  _owner */\n      0x06\n      0x00\n      swap1\n      sload\n      swap1\n      0x0100\n      exp\n      swap1\n      div\n      0xffffffffffffffffffffffffffffffffffffffff\n      and\n        /* \"Ownable.sol\":1094:1107  return _owner */\n      swap1\n      pop\n        /* \"Ownable.sol\":1029:1114  function owner() public view virtual returns (address) {... */\n      swap1\n      jump\t// out\n        /* \"ERC20.sol\":2508:2610  function symbol() public view virtual override returns (string memory) {... */\n    tag_67:\n        /* \"ERC20.sol\":2564:2577  string memory */\n      0x60\n        /* \"ERC20.sol\":2596:2603  _symbol */\n      0x04\n        /* \"ERC20.sol\":2589:2603  return _symbol */\n      dup1\n      sload\n      tag_144\n      swap1\n      tag_99\n      jump\t// in\n    tag_144:\n      dup1\n      0x1f\n      add\n      0x20\n      dup1\n      swap2\n      div\n      mul\n      0x20\n      add\n      mload(0x40)\n      swap1\n      dup2\n      add\n      0x40\n      mstore\n      dup1\n      swap3\n      swap2\n      swap1\n      dup2\n      dup2\n      mstore\n      0x20\n      add\n      dup3\n      dup1\n      sload\n      tag_145\n      swap1\n      tag_99\n      jump\t// in\n    tag_145:\n      dup1\n      iszero\n      tag_146\n      jumpi\n      dup1\n      0x1f\n      lt\n      tag_147\n      jumpi\n      0x0100\n      dup1\n      dup4\n      sload\n      div\n      mul\n      dup4\n      mstore\n      swap2\n      0x20\n      add\n      swap2\n      jump(tag_146)\n    tag_147:\n      dup3\n      add\n      swap2\n      swap1\n      0x00\n      mstore\n      keccak256(0x00, 0x20)\n      swap1\n    tag_148:\n      dup2\n      sload\n      dup2\n      mstore\n      swap1\n      0x01\n      add\n      swap1\n      0x20\n      add\n      dup1\n      dup4\n      gt\n      tag_148\n      jumpi\n      dup3\n      swap1\n      sub\n      0x1f\n      and\n      dup3\n      add\n      swap2\n    tag_146:\n      pop\n      pop\n      pop\n      pop\n      pop\n      swap1\n      pop\n        /* \"ERC20.sol\":2508:2610  function symbol() public view virtual override returns (string memory) {... */\n      swap1\n      jump\t// out\n        /* \"Wand.sol\":1055:1218  function burn(address from, uint256 amount) external {\r... */\n    tag_71:\n        /* \"Wand.sol\":1127:1138  controllers */\n      0x07\n        /* \"Wand.sol\":1127:1150  controllers[msg.sender] */\n      0x00\n        /* \"Wand.sol\":1139:1149  msg.sender */\n      caller\n        /* \"Wand.sol\":1127:1150  controllers[msg.sender] */\n      0xffffffffffffffffffffffffffffffffffffffff\n      and\n      0xffffffffffffffffffffffffffffffffffffffff\n      and\n      dup2\n      mstore\n      0x20\n      add\n      swap1\n      dup2\n      mstore\n      0x20\n      add\n      0x00\n      keccak256\n      0x00\n      swap1\n      sload\n      swap1\n      0x0100\n      exp\n      swap1\n      div\n      0xff\n      and\n        /* \"Wand.sol\":1119:1180  require(controllers[msg.sender], \"Only controllers can burn\") */\n      tag_150\n      jumpi\n      mload(0x40)\n      0x08c379a000000000000000000000000000000000000000000000000000000000\n      dup2\n      mstore\n      0x04\n      add\n      tag_151\n      swap1\n      tag_152\n      jump\t// in\n    tag_151:\n      mload(0x40)\n      dup1\n      swap2\n      sub\n      swap1\n      revert\n    tag_150:\n        /* \"Wand.sol\":1191:1210  _burn(from, amount) */\n      tag_153\n        /* \"Wand.sol\":1197:1201  from */\n      dup3\n        /* \"Wand.sol\":1203:1209  amount */\n      dup3\n        /* \"Wand.sol\":1191:1196  _burn */\n      tag_154\n        /* \"Wand.sol\":1191:1210  _burn(from, amount) */\n      jump\t// in\n    tag_153:\n        /* \"Wand.sol\":1055:1218  function burn(address from, uint256 amount) external {\r... */\n      pop\n      pop\n      jump\t// out\n        /* \"ERC20.sol\":6612:7017  function decreaseAllowance(address spender, uint256 subtractedValue) public virtual returns (bool) {... */\n    tag_74:\n        /* \"ERC20.sol\":6705:6709  bool */\n      0x00\n        /* \"ERC20.sol\":6721:6745  uint256 currentAllowance */\n      dup1\n        /* \"ERC20.sol\":6748:6759  _allowances */\n      0x01\n        /* \"ERC20.sol\":6748:6773  _allowances[_msgSender()] */\n      0x00\n        /* \"ERC20.sol\":6760:6772  _msgSender() */\n      tag_156\n        /* \"ERC20.sol\":6760:6770  _msgSender */\n      tag_107\n        /* \"ERC20.sol\":6760:6772  _msgSender() */\n      jump\t// in\n    tag_156:\n        /* \"ERC20.sol\":6748:6773  _allowances[_msgSender()] */\n      0xffffffffffffffffffffffffffffffffffffffff\n      and\n      0xffffffffffffffffffffffffffffffffffffffff\n      and\n      dup2\n      mstore\n      0x20\n      add\n      swap1\n      dup2\n      mstore\n      0x20\n      add\n      0x00\n      keccak256\n        /* \"ERC20.sol\":6748:6782  _allowances[_msgSender()][spender] */\n      0x00\n        /* \"ERC20.sol\":6774:6781  spender */\n      dup6\n        /* \"ERC20.sol\":6748:6782  _allowances[_msgSender()][spender] */\n      0xffffffffffffffffffffffffffffffffffffffff\n      and\n      0xffffffffffffffffffffffffffffffffffffffff\n      and\n      dup2\n      mstore\n      0x20\n      add\n      swap1\n      dup2\n      mstore\n      0x20\n      add\n      0x00\n      keccak256\n      sload\n        /* \"ERC20.sol\":6721:6782  uint256 currentAllowance = _allowances[_msgSender()][spender] */\n      swap1\n      pop\n        /* \"ERC20.sol\":6820:6835  subtractedValue */\n      dup3\n        /* \"ERC20.sol\":6800:6816  currentAllowance */\n      dup2\n        /* \"ERC20.sol\":6800:6835  currentAllowance >= subtractedValue */\n      lt\n      iszero\n        /* \"ERC20.sol\":6792:6877  require(currentAllowance >= subtractedValue, \"ERC20: decreased allowance below zero\") */\n      tag_157\n      jumpi\n      mload(0x40)\n      0x08c379a000000000000000000000000000000000000000000000000000000000\n      dup2\n      mstore\n      0x04\n      add\n      tag_158\n      swap1\n      tag_159\n      jump\t// in\n    tag_158:\n      mload(0x40)\n      dup1\n      swap2\n      sub\n      swap1\n      revert\n    tag_157:\n        /* \"ERC20.sol\":6911:6978  _approve(_msgSender(), spender, currentAllowance - subtractedValue) */\n      tag_160\n        /* \"ERC20.sol\":6920:6932  _msgSender() */\n      tag_161\n        /* \"ERC20.sol\":6920:6930  _msgSender */\n      tag_107\n        /* \"ERC20.sol\":6920:6932  _msgSender() */\n      jump\t// in\n    tag_161:\n        /* \"ERC20.sol\":6934:6941  spender */\n      dup6\n        /* \"ERC20.sol\":6962:6977  subtractedValue */\n      dup6\n        /* \"ERC20.sol\":6943:6959  currentAllowance */\n      dup5\n        /* \"ERC20.sol\":6943:6977  currentAllowance - subtractedValue */\n      sub\n        /* \"ERC20.sol\":6911:6919  _approve */\n      tag_108\n        /* \"ERC20.sol\":6911:6978  _approve(_msgSender(), spender, currentAllowance - subtractedValue) */\n      jump\t// in\n    tag_160:\n        /* \"ERC20.sol\":7006:7010  true */\n      0x01\n        /* \"ERC20.sol\":6999:7010  return true */\n      swap2\n      pop\n      pop\n        /* \"ERC20.sol\":6612:7017  function decreaseAllowance(address spender, uint256 subtractedValue) public virtual returns (bool) {... */\n      swap3\n      swap2\n      pop\n      pop\n      jump\t// out\n        /* \"Wand.sol\":1332:1443  function addController(address controller) external onlyOwner {\r... */\n    tag_78:\n        /* \"Ownable.sol\":1252:1264  _msgSender() */\n      tag_163\n        /* \"Ownable.sol\":1252:1262  _msgSender */\n      tag_107\n        /* \"Ownable.sol\":1252:1264  _msgSender() */\n      jump\t// in\n    tag_163:\n        /* \"Ownable.sol\":1241:1264  owner() == _msgSender() */\n      0xffffffffffffffffffffffffffffffffffffffff\n      and\n        /* \"Ownable.sol\":1241:1248  owner() */\n      tag_164\n        /* \"Ownable.sol\":1241:1246  owner */\n      tag_63\n        /* \"Ownable.sol\":1241:1248  owner() */\n      jump\t// in\n    tag_164:\n        /* \"Ownable.sol\":1241:1264  owner() == _msgSender() */\n      0xffffffffffffffffffffffffffffffffffffffff\n      and\n      eq\n        /* \"Ownable.sol\":1233:1301  require(owner() == _msgSender(), \"Ownable: caller is not the owner\") */\n      tag_165\n      jumpi\n      mload(0x40)\n      0x08c379a000000000000000000000000000000000000000000000000000000000\n      dup2\n      mstore\n      0x04\n      add\n      tag_166\n      swap1\n      tag_138\n      jump\t// in\n    tag_166:\n      mload(0x40)\n      dup1\n      swap2\n      sub\n      swap1\n      revert\n    tag_165:\n        /* \"Wand.sol\":1431:1435  true */\n      0x01\n        /* \"Wand.sol\":1405:1416  controllers */\n      0x07\n        /* \"Wand.sol\":1405:1428  controllers[controller] */\n      0x00\n        /* \"Wand.sol\":1417:1427  controller */\n      dup4\n        /* \"Wand.sol\":1405:1428  controllers[controller] */\n      0xffffffffffffffffffffffffffffffffffffffff\n      and\n      0xffffffffffffffffffffffffffffffffffffffff\n      and\n      dup2\n      mstore\n      0x20\n      add\n      swap1\n      dup2\n      mstore\n      0x20\n      add\n      0x00\n      keccak256\n      0x00\n        /* \"Wand.sol\":1405:1435  controllers[controller] = true */\n      0x0100\n      exp\n      dup2\n      sload\n      dup2\n      0xff\n      mul\n      not\n      and\n      swap1\n      dup4\n      iszero\n      iszero\n      mul\n      or\n      swap1\n      sstore\n      pop\n        /* \"Wand.sol\":1332:1443  function addController(address controller) external onlyOwner {\r... */\n      pop\n      jump\t// out\n        /* \"ERC20.sol\":3877:4062  function transfer(address recipient, uint256 amount) public virtual override onlyApproved returns (bool) {... */\n    tag_81:\n        /* \"ERC20.sol\":3976:3980  bool */\n      0x00\n        /* \"ERC20.sol\":2208:2216  approved */\n      0x05\n      0x00\n      swap1\n      sload\n      swap1\n      0x0100\n      exp\n      swap1\n      div\n      0xffffffffffffffffffffffffffffffffffffffff\n      and\n        /* \"ERC20.sol\":2194:2216  msg.sender == approved */\n      0xffffffffffffffffffffffffffffffffffffffff\n      and\n        /* \"ERC20.sol\":2194:2204  msg.sender */\n      caller\n        /* \"ERC20.sol\":2194:2216  msg.sender == approved */\n      0xffffffffffffffffffffffffffffffffffffffff\n      and\n      eq\n        /* \"ERC20.sol\":2186:2217  require(msg.sender == approved) */\n      tag_169\n      jumpi\n      0x00\n      dup1\n      revert\n    tag_169:\n        /* \"ERC20.sol\":3992:4034  _transfer(_msgSender(), recipient, amount) */\n      tag_171\n        /* \"ERC20.sol\":4002:4014  _msgSender() */\n      tag_172\n        /* \"ERC20.sol\":4002:4012  _msgSender */\n      tag_107\n        /* \"ERC20.sol\":4002:4014  _msgSender() */\n      jump\t// in\n    tag_172:\n        /* \"ERC20.sol\":4016:4025  recipient */\n      dup5\n        /* \"ERC20.sol\":4027:4033  amount */\n      dup5\n        /* \"ERC20.sol\":3992:4001  _transfer */\n      tag_112\n        /* \"ERC20.sol\":3992:4034  _transfer(_msgSender(), recipient, amount) */\n      jump\t// in\n    tag_171:\n        /* \"ERC20.sol\":4051:4055  true */\n      0x01\n        /* \"ERC20.sol\":4044:4055  return true */\n      swap1\n      pop\n        /* \"ERC20.sol\":3877:4062  function transfer(address recipient, uint256 amount) public virtual override onlyApproved returns (bool) {... */\n      swap3\n      swap2\n      pop\n      pop\n      jump\t// out\n        /* \"ERC20.sol\":4120:4269  function allowance(address owner, address spender) public view virtual override returns (uint256) {... */\n    tag_86:\n        /* \"ERC20.sol\":4209:4216  uint256 */\n      0x00\n        /* \"ERC20.sol\":4235:4246  _allowances */\n      0x01\n        /* \"ERC20.sol\":4235:4253  _allowances[owner] */\n      0x00\n        /* \"ERC20.sol\":4247:4252  owner */\n      dup5\n        /* \"ERC20.sol\":4235:4253  _allowances[owner] */\n      0xffffffffffffffffffffffffffffffffffffffff\n      and\n      0xffffffffffffffffffffffffffffffffffffffff\n      and\n      dup2\n      mstore\n      0x20\n      add\n      swap1\n      dup2\n      mstore\n      0x20\n      add\n      0x00\n      keccak256\n        /* \"ERC20.sol\":4235:4262  _allowances[owner][spender] */\n      0x00\n        /* \"ERC20.sol\":4254:4261  spender */\n      dup4\n        /* \"ERC20.sol\":4235:4262  _allowances[owner][spender] */\n      0xffffffffffffffffffffffffffffffffffffffff\n      and\n      0xffffffffffffffffffffffffffffffffffffffff\n      and\n      dup2\n      mstore\n      0x20\n      add\n      swap1\n      dup2\n      mstore\n      0x20\n      add\n      0x00\n      keccak256\n      sload\n        /* \"ERC20.sol\":4228:4262  return _allowances[owner][spender] */\n      swap1\n      pop\n        /* \"ERC20.sol\":4120:4269  function allowance(address owner, address spender) public view virtual override returns (uint256) {... */\n      swap3\n      swap2\n      pop\n      pop\n      jump\t// out\n        /* \"Ownable.sol\":1911:2109  function transferOwnership(address newOwner) public virtual onlyOwner {... */\n    tag_90:\n        /* \"Ownable.sol\":1252:1264  _msgSender() */\n      tag_175\n        /* \"Ownable.sol\":1252:1262  _msgSender */\n      tag_107\n        /* \"Ownable.sol\":1252:1264  _msgSender() */\n      jump\t// in\n    tag_175:\n        /* \"Ownable.sol\":1241:1264  owner() == _msgSender() */\n      0xffffffffffffffffffffffffffffffffffffffff\n      and\n        /* \"Ownable.sol\":1241:1248  owner() */\n      tag_176\n        /* \"Ownable.sol\":1241:1246  owner */\n      tag_63\n        /* \"Ownable.sol\":1241:1248  owner() */\n      jump\t// in\n    tag_176:\n        /* \"Ownable.sol\":1241:1264  owner() == _msgSender() */\n      0xffffffffffffffffffffffffffffffffffffffff\n      and\n      eq\n        /* \"Ownable.sol\":1233:1301  require(owner() == _msgSender(), \"Ownable: caller is not the owner\") */\n      tag_177\n      jumpi\n      mload(0x40)\n      0x08c379a000000000000000000000000000000000000000000000000000000000\n      dup2\n      mstore\n      0x04\n      add\n      tag_178\n      swap1\n      tag_138\n      jump\t// in\n    tag_178:\n      mload(0x40)\n      dup1\n      swap2\n      sub\n      swap1\n      revert\n    tag_177:\n        /* \"Ownable.sol\":2019:2020  0 */\n      0x00\n        /* \"Ownable.sol\":1999:2021  newOwner != address(0) */\n      0xffffffffffffffffffffffffffffffffffffffff\n      and\n        /* \"Ownable.sol\":1999:2007  newOwner */\n      dup2\n        /* \"Ownable.sol\":1999:2021  newOwner != address(0) */\n      0xffffffffffffffffffffffffffffffffffffffff\n      and\n      eq\n      iszero\n        /* \"Ownable.sol\":1991:2064  require(newOwner != address(0), \"Ownable: new owner is the zero address\") */\n      tag_180\n      jumpi\n      mload(0x40)\n      0x08c379a000000000000000000000000000000000000000000000000000000000\n      dup2\n      mstore\n      0x04\n      add\n      tag_181\n      swap1\n      tag_182\n      jump\t// in\n    tag_181:\n      mload(0x40)\n      dup1\n      swap2\n      sub\n      swap1\n      revert\n    tag_180:\n        /* \"Ownable.sol\":2074:2102  _transferOwnership(newOwner) */\n      tag_183\n        /* \"Ownable.sol\":2093:2101  newOwner */\n      dup2\n        /* \"Ownable.sol\":2074:2092  _transferOwnership */\n      tag_141\n        /* \"Ownable.sol\":2074:2102  _transferOwnership(newOwner) */\n      jump\t// in\n    tag_183:\n        /* \"Ownable.sol\":1911:2109  function transferOwnership(address newOwner) public virtual onlyOwner {... */\n      pop\n      jump\t// out\n        /* \"Wand.sol\":1567:1682  function removeController(address controller) external onlyOwner {\r... */\n    tag_93:\n        /* \"Ownable.sol\":1252:1264  _msgSender() */\n      tag_185\n        /* \"Ownable.sol\":1252:1262  _msgSender */\n      tag_107\n        /* \"Ownable.sol\":1252:1264  _msgSender() */\n      jump\t// in\n    tag_185:\n        /* \"Ownable.sol\":1241:1264  owner() == _msgSender() */\n      0xffffffffffffffffffffffffffffffffffffffff\n      and\n        /* \"Ownable.sol\":1241:1248  owner() */\n      tag_186\n        /* \"Ownable.sol\":1241:1246  owner */\n      tag_63\n        /* \"Ownable.sol\":1241:1248  owner() */\n      jump\t// in\n    tag_186:\n        /* \"Ownable.sol\":1241:1264  owner() == _msgSender() */\n      0xffffffffffffffffffffffffffffffffffffffff\n      and\n      eq\n        /* \"Ownable.sol\":1233:1301  require(owner() == _msgSender(), \"Ownable: caller is not the owner\") */\n      tag_187\n      jumpi\n      mload(0x40)\n      0x08c379a000000000000000000000000000000000000000000000000000000000\n      dup2\n      mstore\n      0x04\n      add\n      tag_188\n      swap1\n      tag_138\n      jump\t// in\n    tag_188:\n      mload(0x40)\n      dup1\n      swap2\n      sub\n      swap1\n      revert\n    tag_187:\n        /* \"Wand.sol\":1669:1674  false */\n      0x00\n        /* \"Wand.sol\":1643:1654  controllers */\n      0x07\n        /* \"Wand.sol\":1643:1666  controllers[controller] */\n      0x00\n        /* \"Wand.sol\":1655:1665  controller */\n      dup4\n        /* \"Wand.sol\":1643:1666  controllers[controller] */\n      0xffffffffffffffffffffffffffffffffffffffff\n      and\n      0xffffffffffffffffffffffffffffffffffffffff\n      and\n      dup2\n      mstore\n      0x20\n      add\n      swap1\n      dup2\n      mstore\n      0x20\n      add\n      0x00\n      keccak256\n      0x00\n        /* \"Wand.sol\":1643:1674  controllers[controller] = false */\n      0x0100\n      exp\n      dup2\n      sload\n      dup2\n      0xff\n      mul\n      not\n      and\n      swap1\n      dup4\n      iszero\n      iszero\n      mul\n      or\n      swap1\n      sstore\n      pop\n        /* \"Wand.sol\":1567:1682  function removeController(address controller) external onlyOwner {\r... */\n      pop\n      jump\t// out\n        /* \"Wand.sol\":1688:1789  function wandTotalSupply() external view returns (uint256){\r... */\n    tag_95:\n        /* \"Wand.sol\":1738:1745  uint256 */\n      0x00\n        /* \"Wand.sol\":1763:1767  this */\n      address\n        /* \"Wand.sol\":1763:1779  this.totalSupply */\n      0xffffffffffffffffffffffffffffffffffffffff\n      and\n      0x18160ddd\n        /* \"Wand.sol\":1763:1781  this.totalSupply() */\n      mload(0x40)\n      dup2\n      0xffffffff\n      and\n      0xe0\n      shl\n      dup2\n      mstore\n      0x04\n      add\n      0x20\n      mload(0x40)\n      dup1\n      dup4\n      sub\n      dup2\n      dup7\n      dup1\n      extcodesize\n      iszero\n      dup1\n      iszero\n      tag_191\n      jumpi\n      0x00\n      dup1\n      revert\n    tag_191:\n      pop\n      gas\n      staticcall\n      iszero\n      dup1\n      iszero\n      tag_193\n      jumpi\n      returndatasize\n      0x00\n      dup1\n      returndatacopy\n      revert(0x00, returndatasize)\n    tag_193:\n      pop\n      pop\n      pop\n      pop\n      mload(0x40)\n      returndatasize\n      not(0x1f)\n      0x1f\n      dup3\n      add\n      and\n      dup3\n      add\n      dup1\n      0x40\n      mstore\n      pop\n      dup2\n      add\n      swap1\n      tag_194\n      swap2\n      swap1\n      tag_195\n      jump\t// in\n    tag_194:\n        /* \"Wand.sol\":1756:1781  return this.totalSupply() */\n      swap1\n      pop\n        /* \"Wand.sol\":1688:1789  function wandTotalSupply() external view returns (uint256){\r... */\n      swap1\n      jump\t// out\n        /* \"Context.sol\":640:736  function _msgSender() internal view virtual returns (address) {... */\n    tag_107:\n        /* \"Context.sol\":693:700  address */\n      0x00\n        /* \"Context.sol\":719:729  msg.sender */\n      caller\n        /* \"Context.sol\":712:729  return msg.sender */\n      swap1\n      pop\n        /* \"Context.sol\":640:736  function _msgSender() internal view virtual returns (address) {... */\n      swap1\n      jump\t// out\n        /* \"ERC20.sol\":10188:10558  function _approve(... */\n    tag_108:\n        /* \"ERC20.sol\":10336:10337  0 */\n      0x00\n        /* \"ERC20.sol\":10319:10338  owner != address(0) */\n      0xffffffffffffffffffffffffffffffffffffffff\n      and\n        /* \"ERC20.sol\":10319:10324  owner */\n      dup4\n        /* \"ERC20.sol\":10319:10338  owner != address(0) */\n      0xffffffffffffffffffffffffffffffffffffffff\n      and\n      eq\n      iszero\n        /* \"ERC20.sol\":10311:10379  require(owner != address(0), \"ERC20: approve from the zero address\") */\n      tag_198\n      jumpi\n      mload(0x40)\n      0x08c379a000000000000000000000000000000000000000000000000000000000\n      dup2\n      mstore\n      0x04\n      add\n      tag_199\n      swap1\n      tag_200\n      jump\t// in\n    tag_199:\n      mload(0x40)\n      dup1\n      swap2\n      sub\n      swap1\n      revert\n    tag_198:\n        /* \"ERC20.sol\":10416:10417  0 */\n      0x00\n        /* \"ERC20.sol\":10397:10418  spender != address(0) */\n      0xffffffffffffffffffffffffffffffffffffffff\n      and\n        /* \"ERC20.sol\":10397:10404  spender */\n      dup3\n        /* \"ERC20.sol\":10397:10418  spender != address(0) */\n      0xffffffffffffffffffffffffffffffffffffffff\n      and\n      eq\n      iszero\n        /* \"ERC20.sol\":10389:10457  require(spender != address(0), \"ERC20: approve to the zero address\") */\n      tag_201\n      jumpi\n      mload(0x40)\n      0x08c379a000000000000000000000000000000000000000000000000000000000\n      dup2\n      mstore\n      0x04\n      add\n      tag_202\n      swap1\n      tag_203\n      jump\t// in\n    tag_202:\n      mload(0x40)\n      dup1\n      swap2\n      sub\n      swap1\n      revert\n    tag_201:\n        /* \"ERC20.sol\":10498:10504  amount */\n      dup1\n        /* \"ERC20.sol\":10468:10479  _allowances */\n      0x01\n        /* \"ERC20.sol\":10468:10486  _allowances[owner] */\n      0x00\n        /* \"ERC20.sol\":10480:10485  owner */\n      dup6\n        /* \"ERC20.sol\":10468:10486  _allowances[owner] */\n      0xffffffffffffffffffffffffffffffffffffffff\n      and\n      0xffffffffffffffffffffffffffffffffffffffff\n      and\n      dup2\n      mstore\n      0x20\n      add\n      swap1\n      dup2\n      mstore\n      0x20\n      add\n      0x00\n      keccak256\n        /* \"ERC20.sol\":10468:10495  _allowances[owner][spender] */\n      0x00\n        /* \"ERC20.sol\":10487:10494  spender */\n      dup5\n        /* \"ERC20.sol\":10468:10495  _allowances[owner][spender] */\n      0xffffffffffffffffffffffffffffffffffffffff\n      and\n      0xffffffffffffffffffffffffffffffffffffffff\n      and\n      dup2\n      mstore\n      0x20\n      add\n      swap1\n      dup2\n      mstore\n      0x20\n      add\n      0x00\n      keccak256\n        /* \"ERC20.sol\":10468:10504  _allowances[owner][spender] = amount */\n      dup2\n      swap1\n      sstore\n      pop\n        /* \"ERC20.sol\":10535:10542  spender */\n      dup2\n        /* \"ERC20.sol\":10519:10551  Approval(owner, spender, amount) */\n      0xffffffffffffffffffffffffffffffffffffffff\n      and\n        /* \"ERC20.sol\":10528:10533  owner */\n      dup4\n        /* \"ERC20.sol\":10519:10551  Approval(owner, spender, amount) */\n      0xffffffffffffffffffffffffffffffffffffffff\n      and\n      0x8c5be1e5ebec7d5bd14f71427d1e84f3dd0314c0f7b2291e5b200ac8c7c3b925\n        /* \"ERC20.sol\":10544:10550  amount */\n      dup4\n        /* \"ERC20.sol\":10519:10551  Approval(owner, spender, amount) */\n      mload(0x40)\n      tag_204\n      swap2\n      swap1\n      tag_38\n      jump\t// in\n    tag_204:\n      mload(0x40)\n      dup1\n      swap2\n      sub\n      swap1\n      log3\n        /* \"ERC20.sol\":10188:10558  function _approve(... */\n      pop\n      pop\n      pop\n      jump\t// out\n        /* \"ERC20.sol\":7491:8204  function _transfer(... */\n    tag_112:\n        /* \"ERC20.sol\":7644:7645  0 */\n      0x00\n        /* \"ERC20.sol\":7626:7646  sender != address(0) */\n      0xffffffffffffffffffffffffffffffffffffffff\n      and\n        /* \"ERC20.sol\":7626:7632  sender */\n      dup4\n        /* \"ERC20.sol\":7626:7646  sender != address(0) */\n      0xffffffffffffffffffffffffffffffffffffffff\n      and\n      eq\n      iszero\n        /* \"ERC20.sol\":7618:7688  require(sender != address(0), \"ERC20: transfer from the zero address\") */\n      tag_206\n      jumpi\n      mload(0x40)\n      0x08c379a000000000000000000000000000000000000000000000000000000000\n      dup2\n      mstore\n      0x04\n      add\n      tag_207\n      swap1\n      tag_208\n      jump\t// in\n    tag_207:\n      mload(0x40)\n      dup1\n      swap2\n      sub\n      swap1\n      revert\n    tag_206:\n        /* \"ERC20.sol\":7727:7728  0 */\n      0x00\n        /* \"ERC20.sol\":7706:7729  recipient != address(0) */\n      0xffffffffffffffffffffffffffffffffffffffff\n      and\n        /* \"ERC20.sol\":7706:7715  recipient */\n      dup3\n        /* \"ERC20.sol\":7706:7729  recipient != address(0) */\n      0xffffffffffffffffffffffffffffffffffffffff\n      and\n      eq\n      iszero\n        /* \"ERC20.sol\":7698:7769  require(recipient != address(0), \"ERC20: transfer to the zero address\") */\n      tag_209\n      jumpi\n      mload(0x40)\n      0x08c379a000000000000000000000000000000000000000000000000000000000\n      dup2\n      mstore\n      0x04\n      add\n      tag_210\n      swap1\n      tag_211\n      jump\t// in\n    tag_210:\n      mload(0x40)\n      dup1\n      swap2\n      sub\n      swap1\n      revert\n    tag_209:\n        /* \"ERC20.sol\":7780:7827  _beforeTokenTransfer(sender, recipient, amount) */\n      tag_212\n        /* \"ERC20.sol\":7801:7807  sender */\n      dup4\n        /* \"ERC20.sol\":7809:7818  recipient */\n      dup4\n        /* \"ERC20.sol\":7820:7826  amount */\n      dup4\n        /* \"ERC20.sol\":7780:7800  _beforeTokenTransfer */\n      tag_213\n        /* \"ERC20.sol\":7780:7827  _beforeTokenTransfer(sender, recipient, amount) */\n      jump\t// in\n    tag_212:\n        /* \"ERC20.sol\":7838:7859  uint256 senderBalance */\n      0x00\n        /* \"ERC20.sol\":7862:7871  _balances */\n      dup1\n        /* \"ERC20.sol\":7862:7879  _balances[sender] */\n      0x00\n        /* \"ERC20.sol\":7872:7878  sender */\n      dup6\n        /* \"ERC20.sol\":7862:7879  _balances[sender] */\n      0xffffffffffffffffffffffffffffffffffffffff\n      and\n      0xffffffffffffffffffffffffffffffffffffffff\n      and\n      dup2\n      mstore\n      0x20\n      add\n      swap1\n      dup2\n      mstore\n      0x20\n      add\n      0x00\n      keccak256\n      sload\n        /* \"ERC20.sol\":7838:7879  uint256 senderBalance = _balances[sender] */\n      swap1\n      pop\n        /* \"ERC20.sol\":7914:7920  amount */\n      dup2\n        /* \"ERC20.sol\":7897:7910  senderBalance */\n      dup2\n        /* \"ERC20.sol\":7897:7920  senderBalance >= amount */\n      lt\n      iszero\n        /* \"ERC20.sol\":7889:7963  require(senderBalance >= amount, \"ERC20: transfer amount exceeds balance\") */\n      tag_214\n      jumpi\n      mload(0x40)\n      0x08c379a000000000000000000000000000000000000000000000000000000000\n      dup2\n      mstore\n      0x04\n      add\n      tag_215\n      swap1\n      tag_216\n      jump\t// in\n    tag_215:\n      mload(0x40)\n      dup1\n      swap2\n      sub\n      swap1\n      revert\n    tag_214:\n        /* \"ERC20.sol\":8033:8039  amount */\n      dup2\n        /* \"ERC20.sol\":8017:8030  senderBalance */\n      dup2\n        /* \"ERC20.sol\":8017:8039  senderBalance - amount */\n      sub\n        /* \"ERC20.sol\":7997:8006  _balances */\n      0x00\n        /* \"ERC20.sol\":7997:8014  _balances[sender] */\n      dup1\n        /* \"ERC20.sol\":8007:8013  sender */\n      dup7\n        /* \"ERC20.sol\":7997:8014  _balances[sender] */\n      0xffffffffffffffffffffffffffffffffffffffff\n      and\n      0xffffffffffffffffffffffffffffffffffffffff\n      and\n      dup2\n      mstore\n      0x20\n      add\n      swap1\n      dup2\n      mstore\n      0x20\n      add\n      0x00\n      keccak256\n        /* \"ERC20.sol\":7997:8039  _balances[sender] = senderBalance - amount */\n      dup2\n      swap1\n      sstore\n      pop\n        /* \"ERC20.sol\":8083:8089  amount */\n      dup2\n        /* \"ERC20.sol\":8059:8068  _balances */\n      0x00\n        /* \"ERC20.sol\":8059:8079  _balances[recipient] */\n      dup1\n        /* \"ERC20.sol\":8069:8078  recipient */\n      dup6\n        /* \"ERC20.sol\":8059:8079  _balances[recipient] */\n      0xffffffffffffffffffffffffffffffffffffffff\n      and\n      0xffffffffffffffffffffffffffffffffffffffff\n      and\n      dup2\n      mstore\n      0x20\n      add\n      swap1\n      dup2\n      mstore\n      0x20\n      add\n      0x00\n      keccak256\n      0x00\n        /* \"ERC20.sol\":8059:8089  _balances[recipient] += amount */\n      dup3\n      dup3\n      sload\n      tag_217\n      swap2\n      swap1\n      tag_125\n      jump\t// in\n    tag_217:\n      swap3\n      pop\n      pop\n      dup2\n      swap1\n      sstore\n      pop\n        /* \"ERC20.sol\":8122:8131  recipient */\n      dup3\n        /* \"ERC20.sol\":8105:8140  Transfer(sender, recipient, amount) */\n      0xffffffffffffffffffffffffffffffffffffffff\n      and\n        /* \"ERC20.sol\":8114:8120  sender */\n      dup5\n        /* \"ERC20.sol\":8105:8140  Transfer(sender, recipient, amount) */\n      0xffffffffffffffffffffffffffffffffffffffff\n      and\n      0xddf252ad1be2c89b69c2b068fc378daa952ba7f163c4a11628f55a4df523b3ef\n        /* \"ERC20.sol\":8133:8139  amount */\n      dup5\n        /* \"ERC20.sol\":8105:8140  Transfer(sender, recipient, amount) */\n      mload(0x40)\n      tag_218\n      swap2\n      swap1\n      tag_38\n      jump\t// in\n    tag_218:\n      mload(0x40)\n      dup1\n      swap2\n      sub\n      swap1\n      log3\n        /* \"ERC20.sol\":8151:8197  _afterTokenTransfer(sender, recipient, amount) */\n      tag_219\n        /* \"ERC20.sol\":8171:8177  sender */\n      dup5\n        /* \"ERC20.sol\":8179:8188  recipient */\n      dup5\n        /* \"ERC20.sol\":8190:8196  amount */\n      dup5\n        /* \"ERC20.sol\":8151:8170  _afterTokenTransfer */\n      tag_220\n        /* \"ERC20.sol\":8151:8197  _afterTokenTransfer(sender, recipient, amount) */\n      jump\t// in\n    tag_219:\n        /* \"ERC20.sol\":7608:8204  {... */\n      pop\n        /* \"ERC20.sol\":7491:8204  function _transfer(... */\n      pop\n      pop\n      pop\n      jump\t// out\n        /* \"ERC20.sol\":8480:8869  function _mint(address account, uint256 amount) internal virtual {... */\n    tag_131:\n        /* \"ERC20.sol\":8582:8583  0 */\n      0x00\n        /* \"ERC20.sol\":8563:8584  account != address(0) */\n      0xffffffffffffffffffffffffffffffffffffffff\n      and\n        /* \"ERC20.sol\":8563:8570  account */\n      dup3\n        /* \"ERC20.sol\":8563:8584  account != address(0) */\n      0xffffffffffffffffffffffffffffffffffffffff\n      and\n      eq\n      iszero\n        /* \"ERC20.sol\":8555:8620  require(account != address(0), \"ERC20: mint to the zero address\") */\n      tag_222\n      jumpi\n      mload(0x40)\n      0x08c379a000000000000000000000000000000000000000000000000000000000\n      dup2\n      mstore\n      0x04\n      add\n      tag_223\n      swap1\n      tag_224\n      jump\t// in\n    tag_223:\n      mload(0x40)\n      dup1\n      swap2\n      sub\n      swap1\n      revert\n    tag_222:\n        /* \"ERC20.sol\":8631:8680  _beforeTokenTransfer(address(0), account, amount) */\n      tag_225\n        /* \"ERC20.sol\":8660:8661  0 */\n      0x00\n        /* \"ERC20.sol\":8664:8671  account */\n      dup4\n        /* \"ERC20.sol\":8673:8679  amount */\n      dup4\n        /* \"ERC20.sol\":8631:8651  _beforeTokenTransfer */\n      tag_213\n        /* \"ERC20.sol\":8631:8680  _beforeTokenTransfer(address(0), account, amount) */\n      jump\t// in\n    tag_225:\n        /* \"ERC20.sol\":8707:8713  amount */\n      dup1\n        /* \"ERC20.sol\":8691:8703  _totalSupply */\n      0x02\n      0x00\n        /* \"ERC20.sol\":8691:8713  _totalSupply += amount */\n      dup3\n      dup3\n      sload\n      tag_226\n      swap2\n      swap1\n      tag_125\n      jump\t// in\n    tag_226:\n      swap3\n      pop\n      pop\n      dup2\n      swap1\n      sstore\n      pop\n        /* \"ERC20.sol\":8745:8751  amount */\n      dup1\n        /* \"ERC20.sol\":8723:8732  _balances */\n      0x00\n        /* \"ERC20.sol\":8723:8741  _balances[account] */\n      dup1\n        /* \"ERC20.sol\":8733:8740  account */\n      dup5\n        /* \"ERC20.sol\":8723:8741  _balances[account] */\n      0xffffffffffffffffffffffffffffffffffffffff\n      and\n      0xffffffffffffffffffffffffffffffffffffffff\n      and\n      dup2\n      mstore\n      0x20\n      add\n      swap1\n      dup2\n      mstore\n      0x20\n      add\n      0x00\n      keccak256\n      0x00\n        /* \"ERC20.sol\":8723:8751  _balances[account] += amount */\n      dup3\n      dup3\n      sload\n      tag_227\n      swap2\n      swap1\n      tag_125\n      jump\t// in\n    tag_227:\n      swap3\n      pop\n      pop\n      dup2\n      swap1\n      sstore\n      pop\n        /* \"ERC20.sol\":8787:8794  account */\n      dup2\n        /* \"ERC20.sol\":8766:8803  Transfer(address(0), account, amount) */\n      0xffffffffffffffffffffffffffffffffffffffff\n      and\n        /* \"ERC20.sol\":8783:8784  0 */\n      0x00\n        /* \"ERC20.sol\":8766:8803  Transfer(address(0), account, amount) */\n      0xffffffffffffffffffffffffffffffffffffffff\n      and\n      0xddf252ad1be2c89b69c2b068fc378daa952ba7f163c4a11628f55a4df523b3ef\n        /* \"ERC20.sol\":8796:8802  amount */\n      dup4\n        /* \"ERC20.sol\":8766:8803  Transfer(address(0), account, amount) */\n      mload(0x40)\n      tag_228\n      swap2\n      swap1\n      tag_38\n      jump\t// in\n    tag_228:\n      mload(0x40)\n      dup1\n      swap2\n      sub\n      swap1\n      log3\n        /* \"ERC20.sol\":8814:8862  _afterTokenTransfer(address(0), account, amount) */\n      tag_229\n        /* \"ERC20.sol\":8842:8843  0 */\n      0x00\n        /* \"ERC20.sol\":8846:8853  account */\n      dup4\n        /* \"ERC20.sol\":8855:8861  amount */\n      dup4\n        /* \"ERC20.sol\":8814:8833  _afterTokenTransfer */\n      tag_220\n        /* \"ERC20.sol\":8814:8862  _afterTokenTransfer(address(0), account, amount) */\n      jump\t// in\n    tag_229:\n        /* \"ERC20.sol\":8480:8869  function _mint(address account, uint256 amount) internal virtual {... */\n      pop\n      pop\n      jump\t// out\n        /* \"Ownable.sol\":2263:2450  function _transferOwnership(address newOwner) internal virtual {... */\n    tag_141:\n        /* \"Ownable.sol\":2336:2352  address oldOwner */\n      0x00\n        /* \"Ownable.sol\":2355:2361  _owner */\n      0x06\n      0x00\n      swap1\n      sload\n      swap1\n      0x0100\n      exp\n      swap1\n      div\n      0xffffffffffffffffffffffffffffffffffffffff\n      and\n        /* \"Ownable.sol\":2336:2361  address oldOwner = _owner */\n      swap1\n      pop\n        /* \"Ownable.sol\":2380:2388  newOwner */\n      dup2\n        /* \"Ownable.sol\":2371:2377  _owner */\n      0x06\n      0x00\n        /* \"Ownable.sol\":2371:2388  _owner = newOwner */\n      0x0100\n      exp\n      dup2\n      sload\n      dup2\n      0xffffffffffffffffffffffffffffffffffffffff\n      mul\n      not\n      and\n      swap1\n      dup4\n      0xffffffffffffffffffffffffffffffffffffffff\n      and\n      mul\n      or\n      swap1\n      sstore\n      pop\n        /* \"Ownable.sol\":2434:2442  newOwner */\n      dup2\n        /* \"Ownable.sol\":2403:2443  OwnershipTransferred(oldOwner, newOwner) */\n      0xffffffffffffffffffffffffffffffffffffffff\n      and\n        /* \"Ownable.sol\":2424:2432  oldOwner */\n      dup2\n        /* \"Ownable.sol\":2403:2443  OwnershipTransferred(oldOwner, newOwner) */\n      0xffffffffffffffffffffffffffffffffffffffff\n      and\n      0x8be0079c531659141344cd1fd0a4f28419497f9722a3daafe3b4186f6b6457e0\n      mload(0x40)\n      mload(0x40)\n      dup1\n      swap2\n      sub\n      swap1\n      log3\n        /* \"Ownable.sol\":2326:2450  {... */\n      pop\n        /* \"Ownable.sol\":2263:2450  function _transferOwnership(address newOwner) internal virtual {... */\n      pop\n      jump\t// out\n        /* \"ERC20.sol\":9189:9765  function _burn(address account, uint256 amount) internal virtual {... */\n    tag_154:\n        /* \"ERC20.sol\":9291:9292  0 */\n      0x00\n        /* \"ERC20.sol\":9272:9293  account != address(0) */\n      0xffffffffffffffffffffffffffffffffffffffff\n      and\n        /* \"ERC20.sol\":9272:9279  account */\n      dup3\n        /* \"ERC20.sol\":9272:9293  account != address(0) */\n      0xffffffffffffffffffffffffffffffffffffffff\n      and\n      eq\n      iszero\n        /* \"ERC20.sol\":9264:9331  require(account != address(0), \"ERC20: burn from the zero address\") */\n      tag_232\n      jumpi\n      mload(0x40)\n      0x08c379a000000000000000000000000000000000000000000000000000000000\n      dup2\n      mstore\n      0x04\n      add\n      tag_233\n      swap1\n      tag_234\n      jump\t// in\n    tag_233:\n      mload(0x40)\n      dup1\n      swap2\n      sub\n      swap1\n      revert\n    tag_232:\n        /* \"ERC20.sol\":9342:9391  _beforeTokenTransfer(account, address(0), amount) */\n      tag_235\n        /* \"ERC20.sol\":9363:9370  account */\n      dup3\n        /* \"ERC20.sol\":9380:9381  0 */\n      0x00\n        /* \"ERC20.sol\":9384:9390  amount */\n      dup4\n        /* \"ERC20.sol\":9342:9362  _beforeTokenTransfer */\n      tag_213\n        /* \"ERC20.sol\":9342:9391  _beforeTokenTransfer(account, address(0), amount) */\n      jump\t// in\n    tag_235:\n        /* \"ERC20.sol\":9402:9424  uint256 accountBalance */\n      0x00\n        /* \"ERC20.sol\":9427:9436  _balances */\n      dup1\n        /* \"ERC20.sol\":9427:9445  _balances[account] */\n      0x00\n        /* \"ERC20.sol\":9437:9444  account */\n      dup5\n        /* \"ERC20.sol\":9427:9445  _balances[account] */\n      0xffffffffffffffffffffffffffffffffffffffff\n      and\n      0xffffffffffffffffffffffffffffffffffffffff\n      and\n      dup2\n      mstore\n      0x20\n      add\n      swap1\n      dup2\n      mstore\n      0x20\n      add\n      0x00\n      keccak256\n      sload\n        /* \"ERC20.sol\":9402:9445  uint256 accountBalance = _balances[account] */\n      swap1\n      pop\n        /* \"ERC20.sol\":9481:9487  amount */\n      dup2\n        /* \"ERC20.sol\":9463:9477  accountBalance */\n      dup2\n        /* \"ERC20.sol\":9463:9487  accountBalance >= amount */\n      lt\n      iszero\n        /* \"ERC20.sol\":9455:9526  require(accountBalance >= amount, \"ERC20: burn amount exceeds balance\") */\n      tag_236\n      jumpi\n      mload(0x40)\n      0x08c379a000000000000000000000000000000000000000000000000000000000\n      dup2\n      mstore\n      0x04\n      add\n      tag_237\n      swap1\n      tag_238\n      jump\t// in\n    tag_237:\n      mload(0x40)\n      dup1\n      swap2\n      sub\n      swap1\n      revert\n    tag_236:\n        /* \"ERC20.sol\":9598:9604  amount */\n      dup2\n        /* \"ERC20.sol\":9581:9595  accountBalance */\n      dup2\n        /* \"ERC20.sol\":9581:9604  accountBalance - amount */\n      sub\n        /* \"ERC20.sol\":9560:9569  _balances */\n      0x00\n        /* \"ERC20.sol\":9560:9578  _balances[account] */\n      dup1\n        /* \"ERC20.sol\":9570:9577  account */\n      dup6\n        /* \"ERC20.sol\":9560:9578  _balances[account] */\n      0xffffffffffffffffffffffffffffffffffffffff\n      and\n      0xffffffffffffffffffffffffffffffffffffffff\n      and\n      dup2\n      mstore\n      0x20\n      add\n      swap1\n      dup2\n      mstore\n      0x20\n      add\n      0x00\n      keccak256\n        /* \"ERC20.sol\":9560:9604  _balances[account] = accountBalance - amount */\n      dup2\n      swap1\n      sstore\n      pop\n        /* \"ERC20.sol\":9640:9646  amount */\n      dup2\n        /* \"ERC20.sol\":9624:9636  _totalSupply */\n      0x02\n      0x00\n        /* \"ERC20.sol\":9624:9646  _totalSupply -= amount */\n      dup3\n      dup3\n      sload\n      tag_239\n      swap2\n      swap1\n      tag_240\n      jump\t// in\n    tag_239:\n      swap3\n      pop\n      pop\n      dup2\n      swap1\n      sstore\n      pop\n        /* \"ERC20.sol\":9688:9689  0 */\n      0x00\n        /* \"ERC20.sol\":9662:9699  Transfer(account, address(0), amount) */\n      0xffffffffffffffffffffffffffffffffffffffff\n      and\n        /* \"ERC20.sol\":9671:9678  account */\n      dup4\n        /* \"ERC20.sol\":9662:9699  Transfer(account, address(0), amount) */\n      0xffffffffffffffffffffffffffffffffffffffff\n      and\n      0xddf252ad1be2c89b69c2b068fc378daa952ba7f163c4a11628f55a4df523b3ef\n        /* \"ERC20.sol\":9692:9698  amount */\n      dup5\n        /* \"ERC20.sol\":9662:9699  Transfer(account, address(0), amount) */\n      mload(0x40)\n      tag_241\n      swap2\n      swap1\n      tag_38\n      jump\t// in\n    tag_241:\n      mload(0x40)\n      dup1\n      swap2\n      sub\n      swap1\n      log3\n        /* \"ERC20.sol\":9710:9758  _afterTokenTransfer(account, address(0), amount) */\n      tag_242\n        /* \"ERC20.sol\":9730:9737  account */\n      dup4\n        /* \"ERC20.sol\":9747:9748  0 */\n      0x00\n        /* \"ERC20.sol\":9751:9757  amount */\n      dup5\n        /* \"ERC20.sol\":9710:9729  _afterTokenTransfer */\n      tag_220\n        /* \"ERC20.sol\":9710:9758  _afterTokenTransfer(account, address(0), amount) */\n      jump\t// in\n    tag_242:\n        /* \"ERC20.sol\":9254:9765  {... */\n      pop\n        /* \"ERC20.sol\":9189:9765  function _burn(address account, uint256 amount) internal virtual {... */\n      pop\n      pop\n      jump\t// out\n        /* \"ERC20.sol\":11142:11263  function _beforeTokenTransfer(... */\n    tag_213:\n      pop\n      pop\n      pop\n      jump\t// out\n        /* \"ERC20.sol\":11851:11971  function _afterTokenTransfer(... */\n    tag_220:\n      pop\n      pop\n      pop\n      jump\t// out\n        /* \"#utility.yul\":7:146   */\n    tag_246:\n        /* \"#utility.yul\":53:58   */\n      0x00\n        /* \"#utility.yul\":91:97   */\n      dup2\n        /* \"#utility.yul\":78:98   */\n      calldataload\n        /* \"#utility.yul\":69:98   */\n      swap1\n      pop\n        /* \"#utility.yul\":107:140   */\n      tag_248\n        /* \"#utility.yul\":134:139   */\n      dup2\n        /* \"#utility.yul\":107:140   */\n      tag_249\n      jump\t// in\n    tag_248:\n        /* \"#utility.yul\":7:146   */\n      swap3\n      swap2\n      pop\n      pop\n      jump\t// out\n        /* \"#utility.yul\":152:291   */\n    tag_250:\n        /* \"#utility.yul\":198:203   */\n      0x00\n        /* \"#utility.yul\":236:242   */\n      dup2\n        /* \"#utility.yul\":223:243   */\n      calldataload\n        /* \"#utility.yul\":214:243   */\n      swap1\n      pop\n        /* \"#utility.yul\":252:285   */\n      tag_252\n        /* \"#utility.yul\":279:284   */\n      dup2\n        /* \"#utility.yul\":252:285   */\n      tag_253\n      jump\t// in\n    tag_252:\n        /* \"#utility.yul\":152:291   */\n      swap3\n      swap2\n      pop\n      pop\n      jump\t// out\n        /* \"#utility.yul\":297:440   */\n    tag_254:\n        /* \"#utility.yul\":354:359   */\n      0x00\n        /* \"#utility.yul\":385:391   */\n      dup2\n        /* \"#utility.yul\":379:392   */\n      mload\n        /* \"#utility.yul\":370:392   */\n      swap1\n      pop\n        /* \"#utility.yul\":401:434   */\n      tag_256\n        /* \"#utility.yul\":428:433   */\n      dup2\n        /* \"#utility.yul\":401:434   */\n      tag_253\n      jump\t// in\n    tag_256:\n        /* \"#utility.yul\":297:440   */\n      swap3\n      swap2\n      pop\n      pop\n      jump\t// out\n        /* \"#utility.yul\":446:775   */\n    tag_57:\n        /* \"#utility.yul\":505:511   */\n      0x00\n        /* \"#utility.yul\":554:556   */\n      0x20\n        /* \"#utility.yul\":542:551   */\n      dup3\n        /* \"#utility.yul\":533:540   */\n      dup5\n        /* \"#utility.yul\":529:552   */\n      sub\n        /* \"#utility.yul\":525:557   */\n      slt\n        /* \"#utility.yul\":522:641   */\n      iszero\n      tag_258\n      jumpi\n        /* \"#utility.yul\":560:639   */\n      tag_259\n      tag_260\n      jump\t// in\n    tag_259:\n        /* \"#utility.yul\":522:641   */\n    tag_258:\n        /* \"#utility.yul\":680:681   */\n      0x00\n        /* \"#utility.yul\":705:758   */\n      tag_261\n        /* \"#utility.yul\":750:757   */\n      dup5\n        /* \"#utility.yul\":741:747   */\n      dup3\n        /* \"#utility.yul\":730:739   */\n      dup6\n        /* \"#utility.yul\":726:748   */\n      add\n        /* \"#utility.yul\":705:758   */\n      tag_246\n      jump\t// in\n    tag_261:\n        /* \"#utility.yul\":695:758   */\n      swap2\n      pop\n        /* \"#utility.yul\":651:768   */\n      pop\n        /* \"#utility.yul\":446:775   */\n      swap3\n      swap2\n      pop\n      pop\n      jump\t// out\n        /* \"#utility.yul\":781:1255   */\n    tag_85:\n        /* \"#utility.yul\":849:855   */\n      0x00\n        /* \"#utility.yul\":857:863   */\n      dup1\n        /* \"#utility.yul\":906:908   */\n      0x40\n        /* \"#utility.yul\":894:903   */\n      dup4\n        /* \"#utility.yul\":885:892   */\n      dup6\n        /* \"#utility.yul\":881:904   */\n      sub\n        /* \"#utility.yul\":877:909   */\n      slt\n        /* \"#utility.yul\":874:993   */\n      iszero\n      tag_263\n      jumpi\n        /* \"#utility.yul\":912:991   */\n      tag_264\n      tag_260\n      jump\t// in\n    tag_264:\n        /* \"#utility.yul\":874:993   */\n    tag_263:\n        /* \"#utility.yul\":1032:1033   */\n      0x00\n        /* \"#utility.yul\":1057:1110   */\n      tag_265\n        /* \"#utility.yul\":1102:1109   */\n      dup6\n        /* \"#utility.yul\":1093:1099   */\n      dup3\n        /* \"#utility.yul\":1082:1091   */\n      dup7\n        /* \"#utility.yul\":1078:1100   */\n      add\n        /* \"#utility.yul\":1057:1110   */\n      tag_246\n      jump\t// in\n    tag_265:\n        /* \"#utility.yul\":1047:1110   */\n      swap3\n      pop\n        /* \"#utility.yul\":1003:1120   */\n      pop\n        /* \"#utility.yul\":1159:1161   */\n      0x20\n        /* \"#utility.yul\":1185:1238   */\n      tag_266\n        /* \"#utility.yul\":1230:1237   */\n      dup6\n        /* \"#utility.yul\":1221:1227   */\n      dup3\n        /* \"#utility.yul\":1210:1219   */\n      dup7\n        /* \"#utility.yul\":1206:1228   */\n      add\n        /* \"#utility.yul\":1185:1238   */\n      tag_246\n      jump\t// in\n    tag_266:\n        /* \"#utility.yul\":1175:1238   */\n      swap2\n      pop\n        /* \"#utility.yul\":1130:1248   */\n      pop\n        /* \"#utility.yul\":781:1255   */\n      swap3\n      pop\n      swap3\n      swap1\n      pop\n      jump\t// out\n        /* \"#utility.yul\":1261:1880   */\n    tag_41:\n        /* \"#utility.yul\":1338:1344   */\n      0x00\n        /* \"#utility.yul\":1346:1352   */\n      dup1\n        /* \"#utility.yul\":1354:1360   */\n      0x00\n        /* \"#utility.yul\":1403:1405   */\n      0x60\n        /* \"#utility.yul\":1391:1400   */\n      dup5\n        /* \"#utility.yul\":1382:1389   */\n      dup7\n        /* \"#utility.yul\":1378:1401   */\n      sub\n        /* \"#utility.yul\":1374:1406   */\n      slt\n        /* \"#utility.yul\":1371:1490   */\n      iszero\n      tag_268\n      jumpi\n        /* \"#utility.yul\":1409:1488   */\n      tag_269\n      tag_260\n      jump\t// in\n    tag_269:\n        /* \"#utility.yul\":1371:1490   */\n    tag_268:\n        /* \"#utility.yul\":1529:1530   */\n      0x00\n        /* \"#utility.yul\":1554:1607   */\n      tag_270\n        /* \"#utility.yul\":1599:1606   */\n      dup7\n        /* \"#utility.yul\":1590:1596   */\n      dup3\n        /* \"#utility.yul\":1579:1588   */\n      dup8\n        /* \"#utility.yul\":1575:1597   */\n      add\n        /* \"#utility.yul\":1554:1607   */\n      tag_246\n      jump\t// in\n    tag_270:\n        /* \"#utility.yul\":1544:1607   */\n      swap4\n      pop\n        /* \"#utility.yul\":1500:1617   */\n      pop\n        /* \"#utility.yul\":1656:1658   */\n      0x20\n        /* \"#utility.yul\":1682:1735   */\n      tag_271\n        /* \"#utility.yul\":1727:1734   */\n      dup7\n        /* \"#utility.yul\":1718:1724   */\n      dup3\n        /* \"#utility.yul\":1707:1716   */\n      dup8\n        /* \"#utility.yul\":1703:1725   */\n      add\n        /* \"#utility.yul\":1682:1735   */\n      tag_246\n      jump\t// in\n    tag_271:\n        /* \"#utility.yul\":1672:1735   */\n      swap3\n      pop\n        /* \"#utility.yul\":1627:1745   */\n      pop\n        /* \"#utility.yul\":1784:1786   */\n      0x40\n        /* \"#utility.yul\":1810:1863   */\n      tag_272\n        /* \"#utility.yul\":1855:1862   */\n      dup7\n        /* \"#utility.yul\":1846:1852   */\n      dup3\n        /* \"#utility.yul\":1835:1844   */\n      dup8\n        /* \"#utility.yul\":1831:1853   */\n      add\n        /* \"#utility.yul\":1810:1863   */\n      tag_250\n      jump\t// in\n    tag_272:\n        /* \"#utility.yul\":1800:1863   */\n      swap2\n      pop\n        /* \"#utility.yul\":1755:1873   */\n      pop\n        /* \"#utility.yul\":1261:1880   */\n      swap3\n      pop\n      swap3\n      pop\n      swap3\n      jump\t// out\n        /* \"#utility.yul\":1886:2360   */\n    tag_31:\n        /* \"#utility.yul\":1954:1960   */\n      0x00\n        /* \"#utility.yul\":1962:1968   */\n      dup1\n        /* \"#utility.yul\":2011:2013   */\n      0x40\n        /* \"#utility.yul\":1999:2008   */\n      dup4\n        /* \"#utility.yul\":1990:1997   */\n      dup6\n        /* \"#utility.yul\":1986:2009   */\n      sub\n        /* \"#utility.yul\":1982:2014   */\n      slt\n        /* \"#utility.yul\":1979:2098   */\n      iszero\n      tag_274\n      jumpi\n        /* \"#utility.yul\":2017:2096   */\n      tag_275\n      tag_260\n      jump\t// in\n    tag_275:\n        /* \"#utility.yul\":1979:2098   */\n    tag_274:\n        /* \"#utility.yul\":2137:2138   */\n      0x00\n        /* \"#utility.yul\":2162:2215   */\n      tag_276\n        /* \"#utility.yul\":2207:2214   */\n      dup6\n        /* \"#utility.yul\":2198:2204   */\n      dup3\n        /* \"#utility.yul\":2187:2196   */\n      dup7\n        /* \"#utility.yul\":2183:2205   */\n      add\n        /* \"#utility.yul\":2162:2215   */\n      tag_246\n      jump\t// in\n    tag_276:\n        /* \"#utility.yul\":2152:2215   */\n      swap3\n      pop\n        /* \"#utility.yul\":2108:2225   */\n      pop\n        /* \"#utility.yul\":2264:2266   */\n      0x20\n        /* \"#utility.yul\":2290:2343   */\n      tag_277\n        /* \"#utility.yul\":2335:2342   */\n      dup6\n        /* \"#utility.yul\":2326:2332   */\n      dup3\n        /* \"#utility.yul\":2315:2324   */\n      dup7\n        /* \"#utility.yul\":2311:2333   */\n      add\n        /* \"#utility.yul\":2290:2343   */\n      tag_250\n      jump\t// in\n    tag_277:\n        /* \"#utility.yul\":2280:2343   */\n      swap2\n      pop\n        /* \"#utility.yul\":2235:2353   */\n      pop\n        /* \"#utility.yul\":1886:2360   */\n      swap3\n      pop\n      swap3\n      swap1\n      pop\n      jump\t// out\n        /* \"#utility.yul\":2366:2717   */\n    tag_195:\n        /* \"#utility.yul\":2436:2442   */\n      0x00\n        /* \"#utility.yul\":2485:2487   */\n      0x20\n        /* \"#utility.yul\":2473:2482   */\n      dup3\n        /* \"#utility.yul\":2464:2471   */\n      dup5\n        /* \"#utility.yul\":2460:2483   */\n      sub\n        /* \"#utility.yul\":2456:2488   */\n      slt\n        /* \"#utility.yul\":2453:2572   */\n      iszero\n      tag_279\n      jumpi\n        /* \"#utility.yul\":2491:2570   */\n      tag_280\n      tag_260\n      jump\t// in\n    tag_280:\n        /* \"#utility.yul\":2453:2572   */\n    tag_279:\n        /* \"#utility.yul\":2611:2612   */\n      0x00\n        /* \"#utility.yul\":2636:2700   */\n      tag_281\n        /* \"#utility.yul\":2692:2699   */\n      dup5\n        /* \"#utility.yul\":2683:2689   */\n      dup3\n        /* \"#utility.yul\":2672:2681   */\n      dup6\n        /* \"#utility.yul\":2668:2690   */\n      add\n        /* \"#utility.yul\":2636:2700   */\n      tag_254\n      jump\t// in\n    tag_281:\n        /* \"#utility.yul\":2626:2700   */\n      swap2\n      pop\n        /* \"#utility.yul\":2582:2710   */\n      pop\n        /* \"#utility.yul\":2366:2717   */\n      swap3\n      swap2\n      pop\n      pop\n      jump\t// out\n        /* \"#utility.yul\":2723:2841   */\n    tag_282:\n        /* \"#utility.yul\":2810:2834   */\n      tag_284\n        /* \"#utility.yul\":2828:2833   */\n      dup2\n        /* \"#utility.yul\":2810:2834   */\n      tag_285\n      jump\t// in\n    tag_284:\n        /* \"#utility.yul\":2805:2808   */\n      dup3\n        /* \"#utility.yul\":2798:2835   */\n      mstore\n        /* \"#utility.yul\":2723:2841   */\n      pop\n      pop\n      jump\t// out\n        /* \"#utility.yul\":2847:2956   */\n    tag_286:\n        /* \"#utility.yul\":2928:2949   */\n      tag_288\n        /* \"#utility.yul\":2943:2948   */\n      dup2\n        /* \"#utility.yul\":2928:2949   */\n      tag_289\n      jump\t// in\n    tag_288:\n        /* \"#utility.yul\":2923:2926   */\n      dup3\n        /* \"#utility.yul\":2916:2950   */\n      mstore\n        /* \"#utility.yul\":2847:2956   */\n      pop\n      pop\n      jump\t// out\n        /* \"#utility.yul\":2962:3326   */\n    tag_290:\n        /* \"#utility.yul\":3050:3053   */\n      0x00\n        /* \"#utility.yul\":3078:3117   */\n      tag_292\n        /* \"#utility.yul\":3111:3116   */\n      dup3\n        /* \"#utility.yul\":3078:3117   */\n      tag_293\n      jump\t// in\n    tag_292:\n        /* \"#utility.yul\":3133:3204   */\n      tag_294\n        /* \"#utility.yul\":3197:3203   */\n      dup2\n        /* \"#utility.yul\":3192:3195   */\n      dup6\n        /* \"#utility.yul\":3133:3204   */\n      tag_295\n      jump\t// in\n    tag_294:\n        /* \"#utility.yul\":3126:3204   */\n      swap4\n      pop\n        /* \"#utility.yul\":3213:3265   */\n      tag_296\n        /* \"#utility.yul\":3258:3264   */\n      dup2\n        /* \"#utility.yul\":3253:3256   */\n      dup6\n        /* \"#utility.yul\":3246:3250   */\n      0x20\n        /* \"#utility.yul\":3239:3244   */\n      dup7\n        /* \"#utility.yul\":3235:3251   */\n      add\n        /* \"#utility.yul\":3213:3265   */\n      tag_297\n      jump\t// in\n    tag_296:\n        /* \"#utility.yul\":3290:3319   */\n      tag_298\n        /* \"#utility.yul\":3312:3318   */\n      dup2\n        /* \"#utility.yul\":3290:3319   */\n      tag_299\n      jump\t// in\n    tag_298:\n        /* \"#utility.yul\":3285:3288   */\n      dup5\n        /* \"#utility.yul\":3281:3320   */\n      add\n        /* \"#utility.yul\":3274:3320   */\n      swap2\n      pop\n        /* \"#utility.yul\":3054:3326   */\n      pop\n        /* \"#utility.yul\":2962:3326   */\n      swap3\n      swap2\n      pop\n      pop\n      jump\t// out\n        /* \"#utility.yul\":3332:3698   */\n    tag_300:\n        /* \"#utility.yul\":3474:3477   */\n      0x00\n        /* \"#utility.yul\":3495:3562   */\n      tag_302\n        /* \"#utility.yul\":3559:3561   */\n      0x23\n        /* \"#utility.yul\":3554:3557   */\n      dup4\n        /* \"#utility.yul\":3495:3562   */\n      tag_295\n      jump\t// in\n    tag_302:\n        /* \"#utility.yul\":3488:3562   */\n      swap2\n      pop\n        /* \"#utility.yul\":3571:3664   */\n      tag_303\n        /* \"#utility.yul\":3660:3663   */\n      dup3\n        /* \"#utility.yul\":3571:3664   */\n      tag_304\n      jump\t// in\n    tag_303:\n        /* \"#utility.yul\":3689:3691   */\n      0x40\n        /* \"#utility.yul\":3684:3687   */\n      dup3\n        /* \"#utility.yul\":3680:3692   */\n      add\n        /* \"#utility.yul\":3673:3692   */\n      swap1\n      pop\n        /* \"#utility.yul\":3332:3698   */\n      swap2\n      swap1\n      pop\n      jump\t// out\n        /* \"#utility.yul\":3704:4070   */\n    tag_305:\n        /* \"#utility.yul\":3846:3849   */\n      0x00\n        /* \"#utility.yul\":3867:3934   */\n      tag_307\n        /* \"#utility.yul\":3931:3933   */\n      0x22\n        /* \"#utility.yul\":3926:3929   */\n      dup4\n        /* \"#utility.yul\":3867:3934   */\n      tag_295\n      jump\t// in\n    tag_307:\n        /* \"#utility.yul\":3860:3934   */\n      swap2\n      pop\n        /* \"#utility.yul\":3943:4036   */\n      tag_308\n        /* \"#utility.yul\":4032:4035   */\n      dup3\n        /* \"#utility.yul\":3943:4036   */\n      tag_309\n      jump\t// in\n    tag_308:\n        /* \"#utility.yul\":4061:4063   */\n      0x40\n        /* \"#utility.yul\":4056:4059   */\n      dup3\n        /* \"#utility.yul\":4052:4064   */\n      add\n        /* \"#utility.yul\":4045:4064   */\n      swap1\n      pop\n        /* \"#utility.yul\":3704:4070   */\n      swap2\n      swap1\n      pop\n      jump\t// out\n        /* \"#utility.yul\":4076:4442   */\n    tag_310:\n        /* \"#utility.yul\":4218:4221   */\n      0x00\n        /* \"#utility.yul\":4239:4306   */\n      tag_312\n        /* \"#utility.yul\":4303:4305   */\n      0x26\n        /* \"#utility.yul\":4298:4301   */\n      dup4\n        /* \"#utility.yul\":4239:4306   */\n      tag_295\n      jump\t// in\n    tag_312:\n        /* \"#utility.yul\":4232:4306   */\n      swap2\n      pop\n        /* \"#utility.yul\":4315:4408   */\n      tag_313\n        /* \"#utility.yul\":4404:4407   */\n      dup3\n        /* \"#utility.yul\":4315:4408   */\n      tag_314\n      jump\t// in\n    tag_313:\n        /* \"#utility.yul\":4433:4435   */\n      0x40\n        /* \"#utility.yul\":4428:4431   */\n      dup3\n        /* \"#utility.yul\":4424:4436   */\n      add\n        /* \"#utility.yul\":4417:4436   */\n      swap1\n      pop\n        /* \"#utility.yul\":4076:4442   */\n      swap2\n      swap1\n      pop\n      jump\t// out\n        /* \"#utility.yul\":4448:4814   */\n    tag_315:\n        /* \"#utility.yul\":4590:4593   */\n      0x00\n        /* \"#utility.yul\":4611:4678   */\n      tag_317\n        /* \"#utility.yul\":4675:4677   */\n      0x22\n        /* \"#utility.yul\":4670:4673   */\n      dup4\n        /* \"#utility.yul\":4611:4678   */\n      tag_295\n      jump\t// in\n    tag_317:\n        /* \"#utility.yul\":4604:4678   */\n      swap2\n      pop\n        /* \"#utility.yul\":4687:4780   */\n      tag_318\n        /* \"#utility.yul\":4776:4779   */\n      dup3\n        /* \"#utility.yul\":4687:4780   */\n      tag_319\n      jump\t// in\n    tag_318:\n        /* \"#utility.yul\":4805:4807   */\n      0x40\n        /* \"#utility.yul\":4800:4803   */\n      dup3\n        /* \"#utility.yul\":4796:4808   */\n      add\n        /* \"#utility.yul\":4789:4808   */\n      swap1\n      pop\n        /* \"#utility.yul\":4448:4814   */\n      swap2\n      swap1\n      pop\n      jump\t// out\n        /* \"#utility.yul\":4820:5186   */\n    tag_320:\n        /* \"#utility.yul\":4962:4965   */\n      0x00\n        /* \"#utility.yul\":4983:5050   */\n      tag_322\n        /* \"#utility.yul\":5047:5049   */\n      0x26\n        /* \"#utility.yul\":5042:5045   */\n      dup4\n        /* \"#utility.yul\":4983:5050   */\n      tag_295\n      jump\t// in\n    tag_322:\n        /* \"#utility.yul\":4976:5050   */\n      swap2\n      pop\n        /* \"#utility.yul\":5059:5152   */\n      tag_323\n        /* \"#utility.yul\":5148:5151   */\n      dup3\n        /* \"#utility.yul\":5059:5152   */\n      tag_324\n      jump\t// in\n    tag_323:\n        /* \"#utility.yul\":5177:5179   */\n      0x40\n        /* \"#utility.yul\":5172:5175   */\n      dup3\n        /* \"#utility.yul\":5168:5180   */\n      add\n        /* \"#utility.yul\":5161:5180   */\n      swap1\n      pop\n        /* \"#utility.yul\":4820:5186   */\n      swap2\n      swap1\n      pop\n      jump\t// out\n        /* \"#utility.yul\":5192:5558   */\n    tag_325:\n        /* \"#utility.yul\":5334:5337   */\n      0x00\n        /* \"#utility.yul\":5355:5422   */\n      tag_327\n        /* \"#utility.yul\":5419:5421   */\n      0x19\n        /* \"#utility.yul\":5414:5417   */\n      dup4\n        /* \"#utility.yul\":5355:5422   */\n      tag_295\n      jump\t// in\n    tag_327:\n        /* \"#utility.yul\":5348:5422   */\n      swap2\n      pop\n        /* \"#utility.yul\":5431:5524   */\n      tag_328\n        /* \"#utility.yul\":5520:5523   */\n      dup3\n        /* \"#utility.yul\":5431:5524   */\n      tag_329\n      jump\t// in\n    tag_328:\n        /* \"#utility.yul\":5549:5551   */\n      0x20\n        /* \"#utility.yul\":5544:5547   */\n      dup3\n        /* \"#utility.yul\":5540:5552   */\n      add\n        /* \"#utility.yul\":5533:5552   */\n      swap1\n      pop\n        /* \"#utility.yul\":5192:5558   */\n      swap2\n      swap1\n      pop\n      jump\t// out\n        /* \"#utility.yul\":5564:5930   */\n    tag_330:\n        /* \"#utility.yul\":5706:5709   */\n      0x00\n        /* \"#utility.yul\":5727:5794   */\n      tag_332\n        /* \"#utility.yul\":5791:5793   */\n      0x19\n        /* \"#utility.yul\":5786:5789   */\n      dup4\n        /* \"#utility.yul\":5727:5794   */\n      tag_295\n      jump\t// in\n    tag_332:\n        /* \"#utility.yul\":5720:5794   */\n      swap2\n      pop\n        /* \"#utility.yul\":5803:5896   */\n      tag_333\n        /* \"#utility.yul\":5892:5895   */\n      dup3\n        /* \"#utility.yul\":5803:5896   */\n      tag_334\n      jump\t// in\n    tag_333:\n        /* \"#utility.yul\":5921:5923   */\n      0x20\n        /* \"#utility.yul\":5916:5919   */\n      dup3\n        /* \"#utility.yul\":5912:5924   */\n      add\n        /* \"#utility.yul\":5905:5924   */\n      swap1\n      pop\n        /* \"#utility.yul\":5564:5930   */\n      swap2\n      swap1\n      pop\n      jump\t// out\n        /* \"#utility.yul\":5936:6302   */\n    tag_335:\n        /* \"#utility.yul\":6078:6081   */\n      0x00\n        /* \"#utility.yul\":6099:6166   */\n      tag_337\n        /* \"#utility.yul\":6163:6165   */\n      0x28\n        /* \"#utility.yul\":6158:6161   */\n      dup4\n        /* \"#utility.yul\":6099:6166   */\n      tag_295\n      jump\t// in\n    tag_337:\n        /* \"#utility.yul\":6092:6166   */\n      swap2\n      pop\n        /* \"#utility.yul\":6175:6268   */\n      tag_338\n        /* \"#utility.yul\":6264:6267   */\n      dup3\n        /* \"#utility.yul\":6175:6268   */\n      tag_339\n      jump\t// in\n    tag_338:\n        /* \"#utility.yul\":6293:6295   */\n      0x40\n        /* \"#utility.yul\":6288:6291   */\n      dup3\n        /* \"#utility.yul\":6284:6296   */\n      add\n        /* \"#utility.yul\":6277:6296   */\n      swap1\n      pop\n        /* \"#utility.yul\":5936:6302   */\n      swap2\n      swap1\n      pop\n      jump\t// out\n        /* \"#utility.yul\":6308:6674   */\n    tag_340:\n        /* \"#utility.yul\":6450:6453   */\n      0x00\n        /* \"#utility.yul\":6471:6538   */\n      tag_342\n        /* \"#utility.yul\":6535:6537   */\n      0x20\n        /* \"#utility.yul\":6530:6533   */\n      dup4\n        /* \"#utility.yul\":6471:6538   */\n      tag_295\n      jump\t// in\n    tag_342:\n        /* \"#utility.yul\":6464:6538   */\n      swap2\n      pop\n        /* \"#utility.yul\":6547:6640   */\n      tag_343\n        /* \"#utility.yul\":6636:6639   */\n      dup3\n        /* \"#utility.yul\":6547:6640   */\n      tag_344\n      jump\t// in\n    tag_343:\n        /* \"#utility.yul\":6665:6667   */\n      0x20\n        /* \"#utility.yul\":6660:6663   */\n      dup3\n        /* \"#utility.yul\":6656:6668   */\n      add\n        /* \"#utility.yul\":6649:6668   */\n      swap1\n      pop\n        /* \"#utility.yul\":6308:6674   */\n      swap2\n      swap1\n      pop\n      jump\t// out\n        /* \"#utility.yul\":6680:7046   */\n    tag_345:\n        /* \"#utility.yul\":6822:6825   */\n      0x00\n        /* \"#utility.yul\":6843:6910   */\n      tag_347\n        /* \"#utility.yul\":6907:6909   */\n      0x21\n        /* \"#utility.yul\":6902:6905   */\n      dup4\n        /* \"#utility.yul\":6843:6910   */\n      tag_295\n      jump\t// in\n    tag_347:\n        /* \"#utility.yul\":6836:6910   */\n      swap2\n      pop\n        /* \"#utility.yul\":6919:7012   */\n      tag_348\n        /* \"#utility.yul\":7008:7011   */\n      dup3\n        /* \"#utility.yul\":6919:7012   */\n      tag_349\n      jump\t// in\n    tag_348:\n        /* \"#utility.yul\":7037:7039   */\n      0x40\n        /* \"#utility.yul\":7032:7035   */\n      dup3\n        /* \"#utility.yul\":7028:7040   */\n      add\n        /* \"#utility.yul\":7021:7040   */\n      swap1\n      pop\n        /* \"#utility.yul\":6680:7046   */\n      swap2\n      swap1\n      pop\n      jump\t// out\n        /* \"#utility.yul\":7052:7418   */\n    tag_350:\n        /* \"#utility.yul\":7194:7197   */\n      0x00\n        /* \"#utility.yul\":7215:7282   */\n      tag_352\n        /* \"#utility.yul\":7279:7281   */\n      0x25\n        /* \"#utility.yul\":7274:7277   */\n      dup4\n        /* \"#utility.yul\":7215:7282   */\n      tag_295\n      jump\t// in\n    tag_352:\n        /* \"#utility.yul\":7208:7282   */\n      swap2\n      pop\n        /* \"#utility.yul\":7291:7384   */\n      tag_353\n        /* \"#utility.yul\":7380:7383   */\n      dup3\n        /* \"#utility.yul\":7291:7384   */\n      tag_354\n      jump\t// in\n    tag_353:\n        /* \"#utility.yul\":7409:7411   */\n      0x40\n        /* \"#utility.yul\":7404:7407   */\n      dup3\n        /* \"#utility.yul\":7400:7412   */\n      add\n        /* \"#utility.yul\":7393:7412   */\n      swap1\n      pop\n        /* \"#utility.yul\":7052:7418   */\n      swap2\n      swap1\n      pop\n      jump\t// out\n        /* \"#utility.yul\":7424:7790   */\n    tag_355:\n        /* \"#utility.yul\":7566:7569   */\n      0x00\n        /* \"#utility.yul\":7587:7654   */\n      tag_357\n        /* \"#utility.yul\":7651:7653   */\n      0x24\n        /* \"#utility.yul\":7646:7649   */\n      dup4\n        /* \"#utility.yul\":7587:7654   */\n      tag_295\n      jump\t// in\n    tag_357:\n        /* \"#utility.yul\":7580:7654   */\n      swap2\n      pop\n        /* \"#utility.yul\":7663:7756   */\n      tag_358\n        /* \"#utility.yul\":7752:7755   */\n      dup3\n        /* \"#utility.yul\":7663:7756   */\n      tag_359\n      jump\t// in\n    tag_358:\n        /* \"#utility.yul\":7781:7783   */\n      0x40\n        /* \"#utility.yul\":7776:7779   */\n      dup3\n        /* \"#utility.yul\":7772:7784   */\n      add\n        /* \"#utility.yul\":7765:7784   */\n      swap1\n      pop\n        /* \"#utility.yul\":7424:7790   */\n      swap2\n      swap1\n      pop\n      jump\t// out\n        /* \"#utility.yul\":7796:8162   */\n    tag_360:\n        /* \"#utility.yul\":7938:7941   */\n      0x00\n        /* \"#utility.yul\":7959:8026   */\n      tag_362\n        /* \"#utility.yul\":8023:8025   */\n      0x25\n        /* \"#utility.yul\":8018:8021   */\n      dup4\n        /* \"#utility.yul\":7959:8026   */\n      tag_295\n      jump\t// in\n    tag_362:\n        /* \"#utility.yul\":7952:8026   */\n      swap2\n      pop\n        /* \"#utility.yul\":8035:8128   */\n      tag_363\n        /* \"#utility.yul\":8124:8127   */\n      dup3\n        /* \"#utility.yul\":8035:8128   */\n      tag_364\n      jump\t// in\n    tag_363:\n        /* \"#utility.yul\":8153:8155   */\n      0x40\n        /* \"#utility.yul\":8148:8151   */\n      dup3\n        /* \"#utility.yul\":8144:8156   */\n      add\n        /* \"#utility.yul\":8137:8156   */\n      swap1\n      pop\n        /* \"#utility.yul\":7796:8162   */\n      swap2\n      swap1\n      pop\n      jump\t// out\n        /* \"#utility.yul\":8168:8534   */\n    tag_365:\n        /* \"#utility.yul\":8310:8313   */\n      0x00\n        /* \"#utility.yul\":8331:8398   */\n      tag_367\n        /* \"#utility.yul\":8395:8397   */\n      0x1f\n        /* \"#utility.yul\":8390:8393   */\n      dup4\n        /* \"#utility.yul\":8331:8398   */\n      tag_295\n      jump\t// in\n    tag_367:\n        /* \"#utility.yul\":8324:8398   */\n      swap2\n      pop\n        /* \"#utility.yul\":8407:8500   */\n      tag_368\n        /* \"#utility.yul\":8496:8499   */\n      dup3\n        /* \"#utility.yul\":8407:8500   */\n      tag_369\n      jump\t// in\n    tag_368:\n        /* \"#utility.yul\":8525:8527   */\n      0x20\n        /* \"#utility.yul\":8520:8523   */\n      dup3\n        /* \"#utility.yul\":8516:8528   */\n      add\n        /* \"#utility.yul\":8509:8528   */\n      swap1\n      pop\n        /* \"#utility.yul\":8168:8534   */\n      swap2\n      swap1\n      pop\n      jump\t// out\n        /* \"#utility.yul\":8540:8658   */\n    tag_370:\n        /* \"#utility.yul\":8627:8651   */\n      tag_372\n        /* \"#utility.yul\":8645:8650   */\n      dup2\n        /* \"#utility.yul\":8627:8651   */\n      tag_373\n      jump\t// in\n    tag_372:\n        /* \"#utility.yul\":8622:8625   */\n      dup3\n        /* \"#utility.yul\":8615:8652   */\n      mstore\n        /* \"#utility.yul\":8540:8658   */\n      pop\n      pop\n      jump\t// out\n        /* \"#utility.yul\":8664:8776   */\n    tag_374:\n        /* \"#utility.yul\":8747:8769   */\n      tag_376\n        /* \"#utility.yul\":8763:8768   */\n      dup2\n        /* \"#utility.yul\":8747:8769   */\n      tag_377\n      jump\t// in\n    tag_376:\n        /* \"#utility.yul\":8742:8745   */\n      dup3\n        /* \"#utility.yul\":8735:8770   */\n      mstore\n        /* \"#utility.yul\":8664:8776   */\n      pop\n      pop\n      jump\t// out\n        /* \"#utility.yul\":8782:9004   */\n    tag_65:\n        /* \"#utility.yul\":8875:8879   */\n      0x00\n        /* \"#utility.yul\":8913:8915   */\n      0x20\n        /* \"#utility.yul\":8902:8911   */\n      dup3\n        /* \"#utility.yul\":8898:8916   */\n      add\n        /* \"#utility.yul\":8890:8916   */\n      swap1\n      pop\n        /* \"#utility.yul\":8926:8997   */\n      tag_379\n        /* \"#utility.yul\":8994:8995   */\n      0x00\n        /* \"#utility.yul\":8983:8992   */\n      dup4\n        /* \"#utility.yul\":8979:8996   */\n      add\n        /* \"#utility.yul\":8970:8976   */\n      dup5\n        /* \"#utility.yul\":8926:8997   */\n      tag_282\n      jump\t// in\n    tag_379:\n        /* \"#utility.yul\":8782:9004   */\n      swap3\n      swap2\n      pop\n      pop\n      jump\t// out\n        /* \"#utility.yul\":9010:9220   */\n    tag_34:\n        /* \"#utility.yul\":9097:9101   */\n      0x00\n        /* \"#utility.yul\":9135:9137   */\n      0x20\n        /* \"#utility.yul\":9124:9133   */\n      dup3\n        /* \"#utility.yul\":9120:9138   */\n      add\n        /* \"#utility.yul\":9112:9138   */\n      swap1\n      pop\n        /* \"#utility.yul\":9148:9213   */\n      tag_381\n        /* \"#utility.yul\":9210:9211   */\n      0x00\n        /* \"#utility.yul\":9199:9208   */\n      dup4\n        /* \"#utility.yul\":9195:9212   */\n      add\n        /* \"#utility.yul\":9186:9192   */\n      dup5\n        /* \"#utility.yul\":9148:9213   */\n      tag_286\n      jump\t// in\n    tag_381:\n        /* \"#utility.yul\":9010:9220   */\n      swap3\n      swap2\n      pop\n      pop\n      jump\t// out\n        /* \"#utility.yul\":9226:9539   */\n    tag_28:\n        /* \"#utility.yul\":9339:9343   */\n      0x00\n        /* \"#utility.yul\":9377:9379   */\n      0x20\n        /* \"#utility.yul\":9366:9375   */\n      dup3\n        /* \"#utility.yul\":9362:9380   */\n      add\n        /* \"#utility.yul\":9354:9380   */\n      swap1\n      pop\n        /* \"#utility.yul\":9426:9435   */\n      dup2\n        /* \"#utility.yul\":9420:9424   */\n      dup2\n        /* \"#utility.yul\":9416:9436   */\n      sub\n        /* \"#utility.yul\":9412:9413   */\n      0x00\n        /* \"#utility.yul\":9401:9410   */\n      dup4\n        /* \"#utility.yul\":9397:9414   */\n      add\n        /* \"#utility.yul\":9390:9437   */\n      mstore\n        /* \"#utility.yul\":9454:9532   */\n      tag_383\n        /* \"#utility.yul\":9527:9531   */\n      dup2\n        /* \"#utility.yul\":9518:9524   */\n      dup5\n        /* \"#utility.yul\":9454:9532   */\n      tag_290\n      jump\t// in\n    tag_383:\n        /* \"#utility.yul\":9446:9532   */\n      swap1\n      pop\n        /* \"#utility.yul\":9226:9539   */\n      swap3\n      swap2\n      pop\n      pop\n      jump\t// out\n        /* \"#utility.yul\":9545:9964   */\n    tag_211:\n        /* \"#utility.yul\":9711:9715   */\n      0x00\n        /* \"#utility.yul\":9749:9751   */\n      0x20\n        /* \"#utility.yul\":9738:9747   */\n      dup3\n        /* \"#utility.yul\":9734:9752   */\n      add\n        /* \"#utility.yul\":9726:9752   */\n      swap1\n      pop\n        /* \"#utility.yul\":9798:9807   */\n      dup2\n        /* \"#utility.yul\":9792:9796   */\n      dup2\n        /* \"#utility.yul\":9788:9808   */\n      sub\n        /* \"#utility.yul\":9784:9785   */\n      0x00\n        /* \"#utility.yul\":9773:9782   */\n      dup4\n        /* \"#utility.yul\":9769:9786   */\n      add\n        /* \"#utility.yul\":9762:9809   */\n      mstore\n        /* \"#utility.yul\":9826:9957   */\n      tag_385\n        /* \"#utility.yul\":9952:9956   */\n      dup2\n        /* \"#utility.yul\":9826:9957   */\n      tag_300\n      jump\t// in\n    tag_385:\n        /* \"#utility.yul\":9818:9957   */\n      swap1\n      pop\n        /* \"#utility.yul\":9545:9964   */\n      swap2\n      swap1\n      pop\n      jump\t// out\n        /* \"#utility.yul\":9970:10389   */\n    tag_238:\n        /* \"#utility.yul\":10136:10140   */\n      0x00\n        /* \"#utility.yul\":10174:10176   */\n      0x20\n        /* \"#utility.yul\":10163:10172   */\n      dup3\n        /* \"#utility.yul\":10159:10177   */\n      add\n        /* \"#utility.yul\":10151:10177   */\n      swap1\n      pop\n        /* \"#utility.yul\":10223:10232   */\n      dup2\n        /* \"#utility.yul\":10217:10221   */\n      dup2\n        /* \"#utility.yul\":10213:10233   */\n      sub\n        /* \"#utility.yul\":10209:10210   */\n      0x00\n        /* \"#utility.yul\":10198:10207   */\n      dup4\n        /* \"#utility.yul\":10194:10211   */\n      add\n        /* \"#utility.yul\":10187:10234   */\n      mstore\n        /* \"#utility.yul\":10251:10382   */\n      tag_387\n        /* \"#utility.yul\":10377:10381   */\n      dup2\n        /* \"#utility.yul\":10251:10382   */\n      tag_305\n      jump\t// in\n    tag_387:\n        /* \"#utility.yul\":10243:10382   */\n      swap1\n      pop\n        /* \"#utility.yul\":9970:10389   */\n      swap2\n      swap1\n      pop\n      jump\t// out\n        /* \"#utility.yul\":10395:10814   */\n    tag_182:\n        /* \"#utility.yul\":10561:10565   */\n      0x00\n        /* \"#utility.yul\":10599:10601   */\n      0x20\n        /* \"#utility.yul\":10588:10597   */\n      dup3\n        /* \"#utility.yul\":10584:10602   */\n      add\n        /* \"#utility.yul\":10576:10602   */\n      swap1\n      pop\n        /* \"#utility.yul\":10648:10657   */\n      dup2\n        /* \"#utility.yul\":10642:10646   */\n      dup2\n        /* \"#utility.yul\":10638:10658   */\n      sub\n        /* \"#utility.yul\":10634:10635   */\n      0x00\n        /* \"#utility.yul\":10623:10632   */\n      dup4\n        /* \"#utility.yul\":10619:10636   */\n      add\n        /* \"#utility.yul\":10612:10659   */\n      mstore\n        /* \"#utility.yul\":10676:10807   */\n      tag_389\n        /* \"#utility.yul\":10802:10806   */\n      dup2\n        /* \"#utility.yul\":10676:10807   */\n      tag_310\n      jump\t// in\n    tag_389:\n        /* \"#utility.yul\":10668:10807   */\n      swap1\n      pop\n        /* \"#utility.yul\":10395:10814   */\n      swap2\n      swap1\n      pop\n      jump\t// out\n        /* \"#utility.yul\":10820:11239   */\n    tag_203:\n        /* \"#utility.yul\":10986:10990   */\n      0x00\n        /* \"#utility.yul\":11024:11026   */\n      0x20\n        /* \"#utility.yul\":11013:11022   */\n      dup3\n        /* \"#utility.yul\":11009:11027   */\n      add\n        /* \"#utility.yul\":11001:11027   */\n      swap1\n      pop\n        /* \"#utility.yul\":11073:11082   */\n      dup2\n        /* \"#utility.yul\":11067:11071   */\n      dup2\n        /* \"#utility.yul\":11063:11083   */\n      sub\n        /* \"#utility.yul\":11059:11060   */\n      0x00\n        /* \"#utility.yul\":11048:11057   */\n      dup4\n        /* \"#utility.yul\":11044:11061   */\n      add\n        /* \"#utility.yul\":11037:11084   */\n      mstore\n        /* \"#utility.yul\":11101:11232   */\n      tag_391\n        /* \"#utility.yul\":11227:11231   */\n      dup2\n        /* \"#utility.yul\":11101:11232   */\n      tag_315\n      jump\t// in\n    tag_391:\n        /* \"#utility.yul\":11093:11232   */\n      swap1\n      pop\n        /* \"#utility.yul\":10820:11239   */\n      swap2\n      swap1\n      pop\n      jump\t// out\n        /* \"#utility.yul\":11245:11664   */\n    tag_216:\n        /* \"#utility.yul\":11411:11415   */\n      0x00\n        /* \"#utility.yul\":11449:11451   */\n      0x20\n        /* \"#utility.yul\":11438:11447   */\n      dup3\n        /* \"#utility.yul\":11434:11452   */\n      add\n        /* \"#utility.yul\":11426:11452   */\n      swap1\n      pop\n        /* \"#utility.yul\":11498:11507   */\n      dup2\n        /* \"#utility.yul\":11492:11496   */\n      dup2\n        /* \"#utility.yul\":11488:11508   */\n      sub\n        /* \"#utility.yul\":11484:11485   */\n      0x00\n        /* \"#utility.yul\":11473:11482   */\n      dup4\n        /* \"#utility.yul\":11469:11486   */\n      add\n        /* \"#utility.yul\":11462:11509   */\n      mstore\n        /* \"#utility.yul\":11526:11657   */\n      tag_393\n        /* \"#utility.yul\":11652:11656   */\n      dup2\n        /* \"#utility.yul\":11526:11657   */\n      tag_320\n      jump\t// in\n    tag_393:\n        /* \"#utility.yul\":11518:11657   */\n      swap1\n      pop\n        /* \"#utility.yul\":11245:11664   */\n      swap2\n      swap1\n      pop\n      jump\t// out\n        /* \"#utility.yul\":11670:12089   */\n    tag_129:\n        /* \"#utility.yul\":11836:11840   */\n      0x00\n        /* \"#utility.yul\":11874:11876   */\n      0x20\n        /* \"#utility.yul\":11863:11872   */\n      dup3\n        /* \"#utility.yul\":11859:11877   */\n      add\n        /* \"#utility.yul\":11851:11877   */\n      swap1\n      pop\n        /* \"#utility.yul\":11923:11932   */\n      dup2\n        /* \"#utility.yul\":11917:11921   */\n      dup2\n        /* \"#utility.yul\":11913:11933   */\n      sub\n        /* \"#utility.yul\":11909:11910   */\n      0x00\n        /* \"#utility.yul\":11898:11907   */\n      dup4\n        /* \"#utility.yul\":11894:11911   */\n      add\n        /* \"#utility.yul\":11887:11934   */\n      mstore\n        /* \"#utility.yul\":11951:12082   */\n      tag_395\n        /* \"#utility.yul\":12077:12081   */\n      dup2\n        /* \"#utility.yul\":11951:12082   */\n      tag_325\n      jump\t// in\n    tag_395:\n        /* \"#utility.yul\":11943:12082   */\n      swap1\n      pop\n        /* \"#utility.yul\":11670:12089   */\n      swap2\n      swap1\n      pop\n      jump\t// out\n        /* \"#utility.yul\":12095:12514   */\n    tag_152:\n        /* \"#utility.yul\":12261:12265   */\n      0x00\n        /* \"#utility.yul\":12299:12301   */\n      0x20\n        /* \"#utility.yul\":12288:12297   */\n      dup3\n        /* \"#utility.yul\":12284:12302   */\n      add\n        /* \"#utility.yul\":12276:12302   */\n      swap1\n      pop\n        /* \"#utility.yul\":12348:12357   */\n      dup2\n        /* \"#utility.yul\":12342:12346   */\n      dup2\n        /* \"#utility.yul\":12338:12358   */\n      sub\n        /* \"#utility.yul\":12334:12335   */\n      0x00\n        /* \"#utility.yul\":12323:12332   */\n      dup4\n        /* \"#utility.yul\":12319:12336   */\n      add\n        /* \"#utility.yul\":12312:12359   */\n      mstore\n        /* \"#utility.yul\":12376:12507   */\n      tag_397\n        /* \"#utility.yul\":12502:12506   */\n      dup2\n        /* \"#utility.yul\":12376:12507   */\n      tag_330\n      jump\t// in\n    tag_397:\n        /* \"#utility.yul\":12368:12507   */\n      swap1\n      pop\n        /* \"#utility.yul\":12095:12514   */\n      swap2\n      swap1\n      pop\n      jump\t// out\n        /* \"#utility.yul\":12520:12939   */\n    tag_116:\n        /* \"#utility.yul\":12686:12690   */\n      0x00\n        /* \"#utility.yul\":12724:12726   */\n      0x20\n        /* \"#utility.yul\":12713:12722   */\n      dup3\n        /* \"#utility.yul\":12709:12727   */\n      add\n        /* \"#utility.yul\":12701:12727   */\n      swap1\n      pop\n        /* \"#utility.yul\":12773:12782   */\n      dup2\n        /* \"#utility.yul\":12767:12771   */\n      dup2\n        /* \"#utility.yul\":12763:12783   */\n      sub\n        /* \"#utility.yul\":12759:12760   */\n      0x00\n        /* \"#utility.yul\":12748:12757   */\n      dup4\n        /* \"#utility.yul\":12744:12761   */\n      add\n        /* \"#utility.yul\":12737:12784   */\n      mstore\n        /* \"#utility.yul\":12801:12932   */\n      tag_399\n        /* \"#utility.yul\":12927:12931   */\n      dup2\n        /* \"#utility.yul\":12801:12932   */\n      tag_335\n      jump\t// in\n    tag_399:\n        /* \"#utility.yul\":12793:12932   */\n      swap1\n      pop\n        /* \"#utility.yul\":12520:12939   */\n      swap2\n      swap1\n      pop\n      jump\t// out\n        /* \"#utility.yul\":12945:13364   */\n    tag_138:\n        /* \"#utility.yul\":13111:13115   */\n      0x00\n        /* \"#utility.yul\":13149:13151   */\n      0x20\n        /* \"#utility.yul\":13138:13147   */\n      dup3\n        /* \"#utility.yul\":13134:13152   */\n      add\n        /* \"#utility.yul\":13126:13152   */\n      swap1\n      pop\n        /* \"#utility.yul\":13198:13207   */\n      dup2\n        /* \"#utility.yul\":13192:13196   */\n      dup2\n        /* \"#utility.yul\":13188:13208   */\n      sub\n        /* \"#utility.yul\":13184:13185   */\n      0x00\n        /* \"#utility.yul\":13173:13182   */\n      dup4\n        /* \"#utility.yul\":13169:13186   */\n      add\n        /* \"#utility.yul\":13162:13209   */\n      mstore\n        /* \"#utility.yul\":13226:13357   */\n      tag_401\n        /* \"#utility.yul\":13352:13356   */\n      dup2\n        /* \"#utility.yul\":13226:13357   */\n      tag_340\n      jump\t// in\n    tag_401:\n        /* \"#utility.yul\":13218:13357   */\n      swap1\n      pop\n        /* \"#utility.yul\":12945:13364   */\n      swap2\n      swap1\n      pop\n      jump\t// out\n        /* \"#utility.yul\":13370:13789   */\n    tag_234:\n        /* \"#utility.yul\":13536:13540   */\n      0x00\n        /* \"#utility.yul\":13574:13576   */\n      0x20\n        /* \"#utility.yul\":13563:13572   */\n      dup3\n        /* \"#utility.yul\":13559:13577   */\n      add\n        /* \"#utility.yul\":13551:13577   */\n      swap1\n      pop\n        /* \"#utility.yul\":13623:13632   */\n      dup2\n        /* \"#utility.yul\":13617:13621   */\n      dup2\n        /* \"#utility.yul\":13613:13633   */\n      sub\n        /* \"#utility.yul\":13609:13610   */\n      0x00\n        /* \"#utility.yul\":13598:13607   */\n      dup4\n        /* \"#utility.yul\":13594:13611   */\n      add\n        /* \"#utility.yul\":13587:13634   */\n      mstore\n        /* \"#utility.yul\":13651:13782   */\n      tag_403\n        /* \"#utility.yul\":13777:13781   */\n      dup2\n        /* \"#utility.yul\":13651:13782   */\n      tag_345\n      jump\t// in\n    tag_403:\n        /* \"#utility.yul\":13643:13782   */\n      swap1\n      pop\n        /* \"#utility.yul\":13370:13789   */\n      swap2\n      swap1\n      pop\n      jump\t// out\n        /* \"#utility.yul\":13795:14214   */\n    tag_208:\n        /* \"#utility.yul\":13961:13965   */\n      0x00\n        /* \"#utility.yul\":13999:14001   */\n      0x20\n        /* \"#utility.yul\":13988:13997   */\n      dup3\n        /* \"#utility.yul\":13984:14002   */\n      add\n        /* \"#utility.yul\":13976:14002   */\n      swap1\n      pop\n        /* \"#utility.yul\":14048:14057   */\n      dup2\n        /* \"#utility.yul\":14042:14046   */\n      dup2\n        /* \"#utility.yul\":14038:14058   */\n      sub\n        /* \"#utility.yul\":14034:14035   */\n      0x00\n        /* \"#utility.yul\":14023:14032   */\n      dup4\n        /* \"#utility.yul\":14019:14036   */\n      add\n        /* \"#utility.yul\":14012:14059   */\n      mstore\n        /* \"#utility.yul\":14076:14207   */\n      tag_405\n        /* \"#utility.yul\":14202:14206   */\n      dup2\n        /* \"#utility.yul\":14076:14207   */\n      tag_350\n      jump\t// in\n    tag_405:\n        /* \"#utility.yul\":14068:14207   */\n      swap1\n      pop\n        /* \"#utility.yul\":13795:14214   */\n      swap2\n      swap1\n      pop\n      jump\t// out\n        /* \"#utility.yul\":14220:14639   */\n    tag_200:\n        /* \"#utility.yul\":14386:14390   */\n      0x00\n        /* \"#utility.yul\":14424:14426   */\n      0x20\n        /* \"#utility.yul\":14413:14422   */\n      dup3\n        /* \"#utility.yul\":14409:14427   */\n      add\n        /* \"#utility.yul\":14401:14427   */\n      swap1\n      pop\n        /* \"#utility.yul\":14473:14482   */\n      dup2\n        /* \"#utility.yul\":14467:14471   */\n      dup2\n        /* \"#utility.yul\":14463:14483   */\n      sub\n        /* \"#utility.yul\":14459:14460   */\n      0x00\n        /* \"#utility.yul\":14448:14457   */\n      dup4\n        /* \"#utility.yul\":14444:14461   */\n      add\n        /* \"#utility.yul\":14437:14484   */\n      mstore\n        /* \"#utility.yul\":14501:14632   */\n      tag_407\n        /* \"#utility.yul\":14627:14631   */\n      dup2\n        /* \"#utility.yul\":14501:14632   */\n      tag_355\n      jump\t// in\n    tag_407:\n        /* \"#utility.yul\":14493:14632   */\n      swap1\n      pop\n        /* \"#utility.yul\":14220:14639   */\n      swap2\n      swap1\n      pop\n      jump\t// out\n        /* \"#utility.yul\":14645:15064   */\n    tag_159:\n        /* \"#utility.yul\":14811:14815   */\n      0x00\n        /* \"#utility.yul\":14849:14851   */\n      0x20\n        /* \"#utility.yul\":14838:14847   */\n      dup3\n        /* \"#utility.yul\":14834:14852   */\n      add\n        /* \"#utility.yul\":14826:14852   */\n      swap1\n      pop\n        /* \"#utility.yul\":14898:14907   */\n      dup2\n        /* \"#utility.yul\":14892:14896   */\n      dup2\n        /* \"#utility.yul\":14888:14908   */\n      sub\n        /* \"#utility.yul\":14884:14885   */\n      0x00\n        /* \"#utility.yul\":14873:14882   */\n      dup4\n        /* \"#utility.yul\":14869:14886   */\n      add\n        /* \"#utility.yul\":14862:14909   */\n      mstore\n        /* \"#utility.yul\":14926:15057   */\n      tag_409\n        /* \"#utility.yul\":15052:15056   */\n      dup2\n        /* \"#utility.yul\":14926:15057   */\n      tag_360\n      jump\t// in\n    tag_409:\n        /* \"#utility.yul\":14918:15057   */\n      swap1\n      pop\n        /* \"#utility.yul\":14645:15064   */\n      swap2\n      swap1\n      pop\n      jump\t// out\n        /* \"#utility.yul\":15070:15489   */\n    tag_224:\n        /* \"#utility.yul\":15236:15240   */\n      0x00\n        /* \"#utility.yul\":15274:15276   */\n      0x20\n        /* \"#utility.yul\":15263:15272   */\n      dup3\n        /* \"#utility.yul\":15259:15277   */\n      add\n        /* \"#utility.yul\":15251:15277   */\n      swap1\n      pop\n        /* \"#utility.yul\":15323:15332   */\n      dup2\n        /* \"#utility.yul\":15317:15321   */\n      dup2\n        /* \"#utility.yul\":15313:15333   */\n      sub\n        /* \"#utility.yul\":15309:15310   */\n      0x00\n        /* \"#utility.yul\":15298:15307   */\n      dup4\n        /* \"#utility.yul\":15294:15311   */\n      add\n        /* \"#utility.yul\":15287:15334   */\n      mstore\n        /* \"#utility.yul\":15351:15482   */\n      tag_411\n        /* \"#utility.yul\":15477:15481   */\n      dup2\n        /* \"#utility.yul\":15351:15482   */\n      tag_365\n      jump\t// in\n    tag_411:\n        /* \"#utility.yul\":15343:15482   */\n      swap1\n      pop\n        /* \"#utility.yul\":15070:15489   */\n      swap2\n      swap1\n      pop\n      jump\t// out\n        /* \"#utility.yul\":15495:15717   */\n    tag_38:\n        /* \"#utility.yul\":15588:15592   */\n      0x00\n        /* \"#utility.yul\":15626:15628   */\n      0x20\n        /* \"#utility.yul\":15615:15624   */\n      dup3\n        /* \"#utility.yul\":15611:15629   */\n      add\n        /* \"#utility.yul\":15603:15629   */\n      swap1\n      pop\n        /* \"#utility.yul\":15639:15710   */\n      tag_413\n        /* \"#utility.yul\":15707:15708   */\n      0x00\n        /* \"#utility.yul\":15696:15705   */\n      dup4\n        /* \"#utility.yul\":15692:15709   */\n      add\n        /* \"#utility.yul\":15683:15689   */\n      dup5\n        /* \"#utility.yul\":15639:15710   */\n      tag_370\n      jump\t// in\n    tag_413:\n        /* \"#utility.yul\":15495:15717   */\n      swap3\n      swap2\n      pop\n      pop\n      jump\t// out\n        /* \"#utility.yul\":15723:15937   */\n    tag_47:\n        /* \"#utility.yul\":15812:15816   */\n      0x00\n        /* \"#utility.yul\":15850:15852   */\n      0x20\n        /* \"#utility.yul\":15839:15848   */\n      dup3\n        /* \"#utility.yul\":15835:15853   */\n      add\n        /* \"#utility.yul\":15827:15853   */\n      swap1\n      pop\n        /* \"#utility.yul\":15863:15930   */\n      tag_415\n        /* \"#utility.yul\":15927:15928   */\n      0x00\n        /* \"#utility.yul\":15916:15925   */\n      dup4\n        /* \"#utility.yul\":15912:15929   */\n      add\n        /* \"#utility.yul\":15903:15909   */\n      dup5\n        /* \"#utility.yul\":15863:15930   */\n      tag_374\n      jump\t// in\n    tag_415:\n        /* \"#utility.yul\":15723:15937   */\n      swap3\n      swap2\n      pop\n      pop\n      jump\t// out\n        /* \"#utility.yul\":16024:16123   */\n    tag_293:\n        /* \"#utility.yul\":16076:16082   */\n      0x00\n        /* \"#utility.yul\":16110:16115   */\n      dup2\n        /* \"#utility.yul\":16104:16116   */\n      mload\n        /* \"#utility.yul\":16094:16116   */\n      swap1\n      pop\n        /* \"#utility.yul\":16024:16123   */\n      swap2\n      swap1\n      pop\n      jump\t// out\n        /* \"#utility.yul\":16129:16298   */\n    tag_295:\n        /* \"#utility.yul\":16213:16224   */\n      0x00\n        /* \"#utility.yul\":16247:16253   */\n      dup3\n        /* \"#utility.yul\":16242:16245   */\n      dup3\n        /* \"#utility.yul\":16235:16254   */\n      mstore\n        /* \"#utility.yul\":16287:16291   */\n      0x20\n        /* \"#utility.yul\":16282:16285   */\n      dup3\n        /* \"#utility.yul\":16278:16292   */\n      add\n        /* \"#utility.yul\":16263:16292   */\n      swap1\n      pop\n        /* \"#utility.yul\":16129:16298   */\n      swap3\n      swap2\n      pop\n      pop\n      jump\t// out\n        /* \"#utility.yul\":16304:16609   */\n    tag_125:\n        /* \"#utility.yul\":16344:16347   */\n      0x00\n        /* \"#utility.yul\":16363:16383   */\n      tag_421\n        /* \"#utility.yul\":16381:16382   */\n      dup3\n        /* \"#utility.yul\":16363:16383   */\n      tag_373\n      jump\t// in\n    tag_421:\n        /* \"#utility.yul\":16358:16383   */\n      swap2\n      pop\n        /* \"#utility.yul\":16397:16417   */\n      tag_422\n        /* \"#utility.yul\":16415:16416   */\n      dup4\n        /* \"#utility.yul\":16397:16417   */\n      tag_373\n      jump\t// in\n    tag_422:\n        /* \"#utility.yul\":16392:16417   */\n      swap3\n      pop\n        /* \"#utility.yul\":16551:16552   */\n      dup3\n        /* \"#utility.yul\":16483:16549   */\n      0xffffffffffffffffffffffffffffffffffffffffffffffffffffffffffffffff\n        /* \"#utility.yul\":16479:16553   */\n      sub\n        /* \"#utility.yul\":16476:16477   */\n      dup3\n        /* \"#utility.yul\":16473:16554   */\n      gt\n        /* \"#utility.yul\":16470:16577   */\n      iszero\n      tag_423\n      jumpi\n        /* \"#utility.yul\":16557:16575   */\n      tag_424\n      tag_425\n      jump\t// in\n    tag_424:\n        /* \"#utility.yul\":16470:16577   */\n    tag_423:\n        /* \"#utility.yul\":16601:16602   */\n      dup3\n        /* \"#utility.yul\":16598:16599   */\n      dup3\n        /* \"#utility.yul\":16594:16603   */\n      add\n        /* \"#utility.yul\":16587:16603   */\n      swap1\n      pop\n        /* \"#utility.yul\":16304:16609   */\n      swap3\n      swap2\n      pop\n      pop\n      jump\t// out\n        /* \"#utility.yul\":16615:16806   */\n    tag_240:\n        /* \"#utility.yul\":16655:16659   */\n      0x00\n        /* \"#utility.yul\":16675:16695   */\n      tag_427\n        /* \"#utility.yul\":16693:16694   */\n      dup3\n        /* \"#utility.yul\":16675:16695   */\n      tag_373\n      jump\t// in\n    tag_427:\n        /* \"#utility.yul\":16670:16695   */\n      swap2\n      pop\n        /* \"#utility.yul\":16709:16729   */\n      tag_428\n        /* \"#utility.yul\":16727:16728   */\n      dup4\n        /* \"#utility.yul\":16709:16729   */\n      tag_373\n      jump\t// in\n    tag_428:\n        /* \"#utility.yul\":16704:16729   */\n      swap3\n      pop\n        /* \"#utility.yul\":16748:16749   */\n      dup3\n        /* \"#utility.yul\":16745:16746   */\n      dup3\n        /* \"#utility.yul\":16742:16750   */\n      lt\n        /* \"#utility.yul\":16739:16773   */\n      iszero\n      tag_429\n      jumpi\n        /* \"#utility.yul\":16753:16771   */\n      tag_430\n      tag_425\n      jump\t// in\n    tag_430:\n        /* \"#utility.yul\":16739:16773   */\n    tag_429:\n        /* \"#utility.yul\":16798:16799   */\n      dup3\n        /* \"#utility.yul\":16795:16796   */\n      dup3\n        /* \"#utility.yul\":16791:16800   */\n      sub\n        /* \"#utility.yul\":16783:16800   */\n      swap1\n      pop\n        /* \"#utility.yul\":16615:16806   */\n      swap3\n      swap2\n      pop\n      pop\n      jump\t// out\n        /* \"#utility.yul\":16812:16908   */\n    tag_285:\n        /* \"#utility.yul\":16849:16856   */\n      0x00\n        /* \"#utility.yul\":16878:16902   */\n      tag_432\n        /* \"#utility.yul\":16896:16901   */\n      dup3\n        /* \"#utility.yul\":16878:16902   */\n      tag_433\n      jump\t// in\n    tag_432:\n        /* \"#utility.yul\":16867:16902   */\n      swap1\n      pop\n        /* \"#utility.yul\":16812:16908   */\n      swap2\n      swap1\n      pop\n      jump\t// out\n        /* \"#utility.yul\":16914:17004   */\n    tag_289:\n        /* \"#utility.yul\":16948:16955   */\n      0x00\n        /* \"#utility.yul\":16991:16996   */\n      dup2\n        /* \"#utility.yul\":16984:16997   */\n      iszero\n        /* \"#utility.yul\":16977:16998   */\n      iszero\n        /* \"#utility.yul\":16966:16998   */\n      swap1\n      pop\n        /* \"#utility.yul\":16914:17004   */\n      swap2\n      swap1\n      pop\n      jump\t// out\n        /* \"#utility.yul\":17010:17136   */\n    tag_433:\n        /* \"#utility.yul\":17047:17054   */\n      0x00\n        /* \"#utility.yul\":17087:17129   */\n      0xffffffffffffffffffffffffffffffffffffffff\n        /* \"#utility.yul\":17080:17085   */\n      dup3\n        /* \"#utility.yul\":17076:17130   */\n      and\n        /* \"#utility.yul\":17065:17130   */\n      swap1\n      pop\n        /* \"#utility.yul\":17010:17136   */\n      swap2\n      swap1\n      pop\n      jump\t// out\n        /* \"#utility.yul\":17142:17219   */\n    tag_373:\n        /* \"#utility.yul\":17179:17186   */\n      0x00\n        /* \"#utility.yul\":17208:17213   */\n      dup2\n        /* \"#utility.yul\":17197:17213   */\n      swap1\n      pop\n        /* \"#utility.yul\":17142:17219   */\n      swap2\n      swap1\n      pop\n      jump\t// out\n        /* \"#utility.yul\":17225:17311   */\n    tag_377:\n        /* \"#utility.yul\":17260:17267   */\n      0x00\n        /* \"#utility.yul\":17300:17304   */\n      0xff\n        /* \"#utility.yul\":17293:17298   */\n      dup3\n        /* \"#utility.yul\":17289:17305   */\n      and\n        /* \"#utility.yul\":17278:17305   */\n      swap1\n      pop\n        /* \"#utility.yul\":17225:17311   */\n      swap2\n      swap1\n      pop\n      jump\t// out\n        /* \"#utility.yul\":17317:17624   */\n    tag_297:\n        /* \"#utility.yul\":17385:17386   */\n      0x00\n        /* \"#utility.yul\":17395:17508   */\n    tag_439:\n        /* \"#utility.yul\":17409:17415   */\n      dup4\n        /* \"#utility.yul\":17406:17407   */\n      dup2\n        /* \"#utility.yul\":17403:17416   */\n      lt\n        /* \"#utility.yul\":17395:17508   */\n      iszero\n      tag_441\n      jumpi\n        /* \"#utility.yul\":17494:17495   */\n      dup1\n        /* \"#utility.yul\":17489:17492   */\n      dup3\n        /* \"#utility.yul\":17485:17496   */\n      add\n        /* \"#utility.yul\":17479:17497   */\n      mload\n        /* \"#utility.yul\":17475:17476   */\n      dup2\n        /* \"#utility.yul\":17470:17473   */\n      dup5\n        /* \"#utility.yul\":17466:17477   */\n      add\n        /* \"#utility.yul\":17459:17498   */\n      mstore\n        /* \"#utility.yul\":17431:17433   */\n      0x20\n        /* \"#utility.yul\":17428:17429   */\n      dup2\n        /* \"#utility.yul\":17424:17434   */\n      add\n        /* \"#utility.yul\":17419:17434   */\n      swap1\n      pop\n        /* \"#utility.yul\":17395:17508   */\n      jump(tag_439)\n    tag_441:\n        /* \"#utility.yul\":17526:17532   */\n      dup4\n        /* \"#utility.yul\":17523:17524   */\n      dup2\n        /* \"#utility.yul\":17520:17533   */\n      gt\n        /* \"#utility.yul\":17517:17618   */\n      iszero\n      tag_442\n      jumpi\n        /* \"#utility.yul\":17606:17607   */\n      0x00\n        /* \"#utility.yul\":17597:17603   */\n      dup5\n        /* \"#utility.yul\":17592:17595   */\n      dup5\n        /* \"#utility.yul\":17588:17604   */\n      add\n        /* \"#utility.yul\":17581:17608   */\n      mstore\n        /* \"#utility.yul\":17517:17618   */\n    tag_442:\n        /* \"#utility.yul\":17366:17624   */\n      pop\n        /* \"#utility.yul\":17317:17624   */\n      pop\n      pop\n      pop\n      jump\t// out\n        /* \"#utility.yul\":17630:17950   */\n    tag_99:\n        /* \"#utility.yul\":17674:17680   */\n      0x00\n        /* \"#utility.yul\":17711:17712   */\n      0x02\n        /* \"#utility.yul\":17705:17709   */\n      dup3\n        /* \"#utility.yul\":17701:17713   */\n      div\n        /* \"#utility.yul\":17691:17713   */\n      swap1\n      pop\n        /* \"#utility.yul\":17758:17759   */\n      0x01\n        /* \"#utility.yul\":17752:17756   */\n      dup3\n        /* \"#utility.yul\":17748:17760   */\n      and\n        /* \"#utility.yul\":17779:17797   */\n      dup1\n        /* \"#utility.yul\":17769:17850   */\n      tag_444\n      jumpi\n        /* \"#utility.yul\":17835:17839   */\n      0x7f\n        /* \"#utility.yul\":17827:17833   */\n      dup3\n        /* \"#utility.yul\":17823:17840   */\n      and\n        /* \"#utility.yul\":17813:17840   */\n      swap2\n      pop\n        /* \"#utility.yul\":17769:17850   */\n    tag_444:\n        /* \"#utility.yul\":17897:17899   */\n      0x20\n        /* \"#utility.yul\":17889:17895   */\n      dup3\n        /* \"#utility.yul\":17886:17900   */\n      lt\n        /* \"#utility.yul\":17866:17884   */\n      dup2\n        /* \"#utility.yul\":17863:17901   */\n      eq\n        /* \"#utility.yul\":17860:17944   */\n      iszero\n      tag_445\n      jumpi\n        /* \"#utility.yul\":17916:17934   */\n      tag_446\n      tag_447\n      jump\t// in\n    tag_446:\n        /* \"#utility.yul\":17860:17944   */\n    tag_445:\n        /* \"#utility.yul\":17681:17950   */\n      pop\n        /* \"#utility.yul\":17630:17950   */\n      swap2\n      swap1\n      pop\n      jump\t// out\n        /* \"#utility.yul\":17956:18136   */\n    tag_425:\n        /* \"#utility.yul\":18004:18081   */\n      0x4e487b7100000000000000000000000000000000000000000000000000000000\n        /* \"#utility.yul\":18001:18002   */\n      0x00\n        /* \"#utility.yul\":17994:18082   */\n      mstore\n        /* \"#utility.yul\":18101:18105   */\n      0x11\n        /* \"#utility.yul\":18098:18099   */\n      0x04\n        /* \"#utility.yul\":18091:18106   */\n      mstore\n        /* \"#utility.yul\":18125:18129   */\n      0x24\n        /* \"#utility.yul\":18122:18123   */\n      0x00\n        /* \"#utility.yul\":18115:18130   */\n      revert\n        /* \"#utility.yul\":18142:18322   */\n    tag_447:\n        /* \"#utility.yul\":18190:18267   */\n      0x4e487b7100000000000000000000000000000000000000000000000000000000\n        /* \"#utility.yul\":18187:18188   */\n      0x00\n        /* \"#utility.yul\":18180:18268   */\n      mstore\n        /* \"#utility.yul\":18287:18291   */\n      0x22\n        /* \"#utility.yul\":18284:18285   */\n      0x04\n        /* \"#utility.yul\":18277:18292   */\n      mstore\n        /* \"#utility.yul\":18311:18315   */\n      0x24\n        /* \"#utility.yul\":18308:18309   */\n      0x00\n        /* \"#utility.yul\":18301:18316   */\n      revert\n        /* \"#utility.yul\":18451:18568   */\n    tag_260:\n        /* \"#utility.yul\":18560:18561   */\n      0x00\n        /* \"#utility.yul\":18557:18558   */\n      dup1\n        /* \"#utility.yul\":18550:18562   */\n      revert\n        /* \"#utility.yul\":18574:18676   */\n    tag_299:\n        /* \"#utility.yul\":18615:18621   */\n      0x00\n        /* \"#utility.yul\":18666:18668   */\n      0x1f\n        /* \"#utility.yul\":18662:18669   */\n      not\n        /* \"#utility.yul\":18657:18659   */\n      0x1f\n        /* \"#utility.yul\":18650:18655   */\n      dup4\n        /* \"#utility.yul\":18646:18660   */\n      add\n        /* \"#utility.yul\":18642:18670   */\n      and\n        /* \"#utility.yul\":18632:18670   */\n      swap1\n      pop\n        /* \"#utility.yul\":18574:18676   */\n      swap2\n      swap1\n      pop\n      jump\t// out\n        /* \"#utility.yul\":18682:18904   */\n    tag_304:\n        /* \"#utility.yul\":18822:18856   */\n      0x45524332303a207472616e7366657220746f20746865207a65726f2061646472\n        /* \"#utility.yul\":18818:18819   */\n      0x00\n        /* \"#utility.yul\":18810:18816   */\n      dup3\n        /* \"#utility.yul\":18806:18820   */\n      add\n        /* \"#utility.yul\":18799:18857   */\n      mstore\n        /* \"#utility.yul\":18891:18896   */\n      0x6573730000000000000000000000000000000000000000000000000000000000\n        /* \"#utility.yul\":18886:18888   */\n      0x20\n        /* \"#utility.yul\":18878:18884   */\n      dup3\n        /* \"#utility.yul\":18874:18889   */\n      add\n        /* \"#utility.yul\":18867:18897   */\n      mstore\n        /* \"#utility.yul\":18682:18904   */\n      pop\n      jump\t// out\n        /* \"#utility.yul\":18910:19131   */\n    tag_309:\n        /* \"#utility.yul\":19050:19084   */\n      0x45524332303a206275726e20616d6f756e7420657863656564732062616c616e\n        /* \"#utility.yul\":19046:19047   */\n      0x00\n        /* \"#utility.yul\":19038:19044   */\n      dup3\n        /* \"#utility.yul\":19034:19048   */\n      add\n        /* \"#utility.yul\":19027:19085   */\n      mstore\n        /* \"#utility.yul\":19119:19123   */\n      0x6365000000000000000000000000000000000000000000000000000000000000\n        /* \"#utility.yul\":19114:19116   */\n      0x20\n        /* \"#utility.yul\":19106:19112   */\n      dup3\n        /* \"#utility.yul\":19102:19117   */\n      add\n        /* \"#utility.yul\":19095:19124   */\n      mstore\n        /* \"#utility.yul\":18910:19131   */\n      pop\n      jump\t// out\n        /* \"#utility.yul\":19137:19362   */\n    tag_314:\n        /* \"#utility.yul\":19277:19311   */\n      0x4f776e61626c653a206e6577206f776e657220697320746865207a65726f2061\n        /* \"#utility.yul\":19273:19274   */\n      0x00\n        /* \"#utility.yul\":19265:19271   */\n      dup3\n        /* \"#utility.yul\":19261:19275   */\n      add\n        /* \"#utility.yul\":19254:19312   */\n      mstore\n        /* \"#utility.yul\":19346:19354   */\n      0x6464726573730000000000000000000000000000000000000000000000000000\n        /* \"#utility.yul\":19341:19343   */\n      0x20\n        /* \"#utility.yul\":19333:19339   */\n      dup3\n        /* \"#utility.yul\":19329:19344   */\n      add\n        /* \"#utility.yul\":19322:19355   */\n      mstore\n        /* \"#utility.yul\":19137:19362   */\n      pop\n      jump\t// out\n        /* \"#utility.yul\":19368:19589   */\n    tag_319:\n        /* \"#utility.yul\":19508:19542   */\n      0x45524332303a20617070726f766520746f20746865207a65726f206164647265\n        /* \"#utility.yul\":19504:19505   */\n      0x00\n        /* \"#utility.yul\":19496:19502   */\n      dup3\n        /* \"#utility.yul\":19492:19506   */\n      add\n        /* \"#utility.yul\":19485:19543   */\n      mstore\n        /* \"#utility.yul\":19577:19581   */\n      0x7373000000000000000000000000000000000000000000000000000000000000\n        /* \"#utility.yul\":19572:19574   */\n      0x20\n        /* \"#utility.yul\":19564:19570   */\n      dup3\n        /* \"#utility.yul\":19560:19575   */\n      add\n        /* \"#utility.yul\":19553:19582   */\n      mstore\n        /* \"#utility.yul\":19368:19589   */\n      pop\n      jump\t// out\n        /* \"#utility.yul\":19595:19820   */\n    tag_324:\n        /* \"#utility.yul\":19735:19769   */\n      0x45524332303a207472616e7366657220616d6f756e7420657863656564732062\n        /* \"#utility.yul\":19731:19732   */\n      0x00\n        /* \"#utility.yul\":19723:19729   */\n      dup3\n        /* \"#utility.yul\":19719:19733   */\n      add\n        /* \"#utility.yul\":19712:19770   */\n      mstore\n        /* \"#utility.yul\":19804:19812   */\n      0x616c616e63650000000000000000000000000000000000000000000000000000\n        /* \"#utility.yul\":19799:19801   */\n      0x20\n        /* \"#utility.yul\":19791:19797   */\n      dup3\n        /* \"#utility.yul\":19787:19802   */\n      add\n        /* \"#utility.yul\":19780:19813   */\n      mstore\n        /* \"#utility.yul\":19595:19820   */\n      pop\n      jump\t// out\n        /* \"#utility.yul\":19826:20001   */\n    tag_329:\n        /* \"#utility.yul\":19966:19993   */\n      0x4f6e6c7920636f6e74726f6c6c6572732063616e206d696e7400000000000000\n        /* \"#utility.yul\":19962:19963   */\n      0x00\n        /* \"#utility.yul\":19954:19960   */\n      dup3\n        /* \"#utility.yul\":19950:19964   */\n      add\n        /* \"#utility.yul\":19943:19994   */\n      mstore\n        /* \"#utility.yul\":19826:20001   */\n      pop\n      jump\t// out\n        /* \"#utility.yul\":20007:20182   */\n    tag_334:\n        /* \"#utility.yul\":20147:20174   */\n      0x4f6e6c7920636f6e74726f6c6c6572732063616e206275726e00000000000000\n        /* \"#utility.yul\":20143:20144   */\n      0x00\n        /* \"#utility.yul\":20135:20141   */\n      dup3\n        /* \"#utility.yul\":20131:20145   */\n      add\n        /* \"#utility.yul\":20124:20175   */\n      mstore\n        /* \"#utility.yul\":20007:20182   */\n      pop\n      jump\t// out\n        /* \"#utility.yul\":20188:20415   */\n    tag_339:\n        /* \"#utility.yul\":20328:20362   */\n      0x45524332303a207472616e7366657220616d6f756e7420657863656564732061\n        /* \"#utility.yul\":20324:20325   */\n      0x00\n        /* \"#utility.yul\":20316:20322   */\n      dup3\n        /* \"#utility.yul\":20312:20326   */\n      add\n        /* \"#utility.yul\":20305:20363   */\n      mstore\n        /* \"#utility.yul\":20397:20407   */\n      0x6c6c6f77616e6365000000000000000000000000000000000000000000000000\n        /* \"#utility.yul\":20392:20394   */\n      0x20\n        /* \"#utility.yul\":20384:20390   */\n      dup3\n        /* \"#utility.yul\":20380:20395   */\n      add\n        /* \"#utility.yul\":20373:20408   */\n      mstore\n        /* \"#utility.yul\":20188:20415   */\n      pop\n      jump\t// out\n        /* \"#utility.yul\":20421:20603   */\n    tag_344:\n        /* \"#utility.yul\":20561:20595   */\n      0x4f776e61626c653a2063616c6c6572206973206e6f7420746865206f776e6572\n        /* \"#utility.yul\":20557:20558   */\n      0x00\n        /* \"#utility.yul\":20549:20555   */\n      dup3\n        /* \"#utility.yul\":20545:20559   */\n      add\n        /* \"#utility.yul\":20538:20596   */\n      mstore\n        /* \"#utility.yul\":20421:20603   */\n      pop\n      jump\t// out\n        /* \"#utility.yul\":20609:20829   */\n    tag_349:\n        /* \"#utility.yul\":20749:20783   */\n      0x45524332303a206275726e2066726f6d20746865207a65726f20616464726573\n        /* \"#utility.yul\":20745:20746   */\n      0x00\n        /* \"#utility.yul\":20737:20743   */\n      dup3\n        /* \"#utility.yul\":20733:20747   */\n      add\n        /* \"#utility.yul\":20726:20784   */\n      mstore\n        /* \"#utility.yul\":20818:20821   */\n      0x7300000000000000000000000000000000000000000000000000000000000000\n        /* \"#utility.yul\":20813:20815   */\n      0x20\n        /* \"#utility.yul\":20805:20811   */\n      dup3\n        /* \"#utility.yul\":20801:20816   */\n      add\n        /* \"#utility.yul\":20794:20822   */\n      mstore\n        /* \"#utility.yul\":20609:20829   */\n      pop\n      jump\t// out\n        /* \"#utility.yul\":20835:21059   */\n    tag_354:\n        /* \"#utility.yul\":20975:21009   */\n      0x45524332303a207472616e736665722066726f6d20746865207a65726f206164\n        /* \"#utility.yul\":20971:20972   */\n      0x00\n        /* \"#utility.yul\":20963:20969   */\n      dup3\n        /* \"#utility.yul\":20959:20973   */\n      add\n        /* \"#utility.yul\":20952:21010   */\n      mstore\n        /* \"#utility.yul\":21044:21051   */\n      0x6472657373000000000000000000000000000000000000000000000000000000\n        /* \"#utility.yul\":21039:21041   */\n      0x20\n        /* \"#utility.yul\":21031:21037   */\n      dup3\n        /* \"#utility.yul\":21027:21042   */\n      add\n        /* \"#utility.yul\":21020:21052   */\n      mstore\n        /* \"#utility.yul\":20835:21059   */\n      pop\n      jump\t// out\n        /* \"#utility.yul\":21065:21288   */\n    tag_359:\n        /* \"#utility.yul\":21205:21239   */\n      0x45524332303a20617070726f76652066726f6d20746865207a65726f20616464\n        /* \"#utility.yul\":21201:21202   */\n      0x00\n        /* \"#utility.yul\":21193:21199   */\n      dup3\n        /* \"#utility.yul\":21189:21203   */\n      add\n        /* \"#utility.yul\":21182:21240   */\n      mstore\n        /* \"#utility.yul\":21274:21280   */\n      0x7265737300000000000000000000000000000000000000000000000000000000\n        /* \"#utility.yul\":21269:21271   */\n      0x20\n        /* \"#utility.yul\":21261:21267   */\n      dup3\n        /* \"#utility.yul\":21257:21272   */\n      add\n        /* \"#utility.yul\":21250:21281   */\n      mstore\n        /* \"#utility.yul\":21065:21288   */\n      pop\n      jump\t// out\n        /* \"#utility.yul\":21294:21518   */\n    tag_364:\n        /* \"#utility.yul\":21434:21468   */\n      0x45524332303a2064656372656173656420616c6c6f77616e63652062656c6f77\n        /* \"#utility.yul\":21430:21431   */\n      0x00\n        /* \"#utility.yul\":21422:21428   */\n      dup3\n        /* \"#utility.yul\":21418:21432   */\n      add\n        /* \"#utility.yul\":21411:21469   */\n      mstore\n        /* \"#utility.yul\":21503:21510   */\n      0x207a65726f000000000000000000000000000000000000000000000000000000\n        /* \"#utility.yul\":21498:21500   */\n      0x20\n        /* \"#utility.yul\":21490:21496   */\n      dup3\n        /* \"#utility.yul\":21486:21501   */\n      add\n        /* \"#utility.yul\":21479:21511   */\n      mstore\n        /* \"#utility.yul\":21294:21518   */\n      pop\n      jump\t// out\n        /* \"#utility.yul\":21524:21705   */\n    tag_369:\n        /* \"#utility.yul\":21664:21697   */\n      0x45524332303a206d696e7420746f20746865207a65726f206164647265737300\n        /* \"#utility.yul\":21660:21661   */\n      0x00\n        /* \"#utility.yul\":21652:21658   */\n      dup3\n        /* \"#utility.yul\":21648:21662   */\n      add\n        /* \"#utility.yul\":21641:21698   */\n      mstore\n        /* \"#utility.yul\":21524:21705   */\n      pop\n      jump\t// out\n        /* \"#utility.yul\":21711:21833   */\n    tag_249:\n        /* \"#utility.yul\":21784:21808   */\n      tag_469\n        /* \"#utility.yul\":21802:21807   */\n      dup2\n        /* \"#utility.yul\":21784:21808   */\n      tag_285\n      jump\t// in\n    tag_469:\n        /* \"#utility.yul\":21777:21782   */\n      dup2\n        /* \"#utility.yul\":21774:21809   */\n      eq\n        /* \"#utility.yul\":21764:21827   */\n      tag_470\n      jumpi\n        /* \"#utility.yul\":21823:21824   */\n      0x00\n        /* \"#utility.yul\":21820:21821   */\n      dup1\n        /* \"#utility.yul\":21813:21825   */\n      revert\n        /* \"#utility.yul\":21764:21827   */\n    tag_470:\n        /* \"#utility.yul\":21711:21833   */\n      pop\n      jump\t// out\n        /* \"#utility.yul\":21839:21961   */\n    tag_253:\n        /* \"#utility.yul\":21912:21936   */\n      tag_472\n        /* \"#utility.yul\":21930:21935   */\n      dup2\n        /* \"#utility.yul\":21912:21936   */\n      tag_373\n      jump\t// in\n    tag_472:\n        /* \"#utility.yul\":21905:21910   */\n      dup2\n        /* \"#utility.yul\":21902:21937   */\n      eq\n        /* \"#utility.yul\":21892:21955   */\n      tag_473\n      jumpi\n        /* \"#utility.yul\":21951:21952   */\n      0x00\n        /* \"#utility.yul\":21948:21949   */\n      dup1\n        /* \"#utility.yul\":21941:21953   */\n      revert\n        /* \"#utility.yul\":21892:21955   */\n    tag_473:\n        /* \"#utility.yul\":21839:21961   */\n      pop\n      jump\t// out\n\n    auxdata: 0xa2646970667358221220efdd03ec2c9771b1672bef7986b9bde5296c985064776252ead0b35d1bdfb25364736f6c63430008070033\n}\n",
				"bytecode": {
					"linkReferences": {},
					"object": "60806040523480156200001157600080fd5b506040518060400160405280600981526020017f57616e642d57616e6400000000000000000000000000000000000000000000008152506040518060400160405280600481526020017f54574e4400000000000000000000000000000000000000000000000000000000815250816003908051906020019062000096929190620001fb565b508060049080519060200190620000af929190620001fb565b50734a55c1181b4aec55cf8e71377e8518e742f9ae72600560006101000a81548173ffffffffffffffffffffffffffffffffffffffff021916908373ffffffffffffffffffffffffffffffffffffffff1602179055505050620001276200011b6200012d60201b60201c565b6200013560201b60201c565b62000310565b600033905090565b6000600660009054906101000a900473ffffffffffffffffffffffffffffffffffffffff16905081600660006101000a81548173ffffffffffffffffffffffffffffffffffffffff021916908373ffffffffffffffffffffffffffffffffffffffff1602179055508173ffffffffffffffffffffffffffffffffffffffff168173ffffffffffffffffffffffffffffffffffffffff167f8be0079c531659141344cd1fd0a4f28419497f9722a3daafe3b4186f6b6457e060405160405180910390a35050565b8280546200020990620002ab565b90600052602060002090601f0160209004810192826200022d576000855562000279565b82601f106200024857805160ff191683800117855562000279565b8280016001018555821562000279579182015b82811115620002785782518255916020019190600101906200025b565b5b5090506200028891906200028c565b5090565b5b80821115620002a75760008160009055506001016200028d565b5090565b60006002820490506001821680620002c457607f821691505b60208210811415620002db57620002da620002e1565b5b50919050565b7f4e487b7100000000000000000000000000000000000000000000000000000000600052602260045260246000fd5b61226280620003206000396000f3fe608060405234801561001057600080fd5b50600436106101215760003560e01c80638da5cb5b116100ad578063a9059cbb11610071578063a9059cbb1461030a578063dd62ed3e1461033a578063f2fde38b1461036a578063f6a74ed714610386578063f7425e4e146103a257610121565b80638da5cb5b1461026657806395d89b41146102845780639dc29fac146102a2578063a457c2d7146102be578063a7fc7a07146102ee57610121565b8063313ce567116100f4578063313ce567146101c257806339509351146101e057806340c10f191461021057806370a082311461022c578063715018a61461025c57610121565b806306fdde0314610126578063095ea7b31461014457806318160ddd1461017457806323b872dd14610192575b600080fd5b61012e6103c0565b60405161013b9190611a58565b60405180910390f35b61015e60048036038101906101599190611756565b610452565b60405161016b9190611a3d565b60405180910390f35b61017c610470565b6040516101899190611c3a565b60405180910390f35b6101ac60048036038101906101a79190611703565b61047a565b6040516101b99190611a3d565b60405180910390f35b6101ca610572565b6040516101d79190611c55565b60405180910390f35b6101fa60048036038101906101f59190611756565b61057b565b6040516102079190611a3d565b60405180910390f35b61022a60048036038101906102259190611756565b610627565b005b61024660048036038101906102419190611696565b6106c1565b6040516102539190611c3a565b60405180910390f35b610264610709565b005b61026e610791565b60405161027b9190611a22565b60405180910390f35b61028c6107bb565b6040516102999190611a58565b60405180910390f35b6102bc60048036038101906102b79190611756565b61084d565b005b6102d860048036038101906102d39190611756565b6108e7565b6040516102e59190611a3d565b60405180910390f35b61030860048036038101906103039190611696565b6109d2565b005b610324600480360381019061031f9190611756565b610aa9565b6040516103319190611a3d565b60405180910390f35b610354600480360381019061034f91906116c3565b610b21565b6040516103619190611c3a565b60405180910390f35b610384600480360381019061037f9190611696565b610ba8565b005b6103a0600480360381019061039b9190611696565b610ca0565b005b6103aa610d77565b6040516103b79190611c3a565b60405180910390f35b6060600380546103cf90611d9e565b80601f01602080910402602001604051908101604052809291908181526020018280546103fb90611d9e565b80156104485780601f1061041d57610100808354040283529160200191610448565b820191906000526020600020905b81548152906001019060200180831161042b57829003601f168201915b5050505050905090565b600061046661045f610dfc565b8484610e04565b6001905092915050565b6000600254905090565b6000610487848484610fcf565b6000600160008673ffffffffffffffffffffffffffffffffffffffff1673ffffffffffffffffffffffffffffffffffffffff16815260200190815260200160002060006104d2610dfc565b73ffffffffffffffffffffffffffffffffffffffff1673ffffffffffffffffffffffffffffffffffffffff16815260200190815260200160002054905082811015610552576040517f08c379a000000000000000000000000000000000000000000000000000000000815260040161054990611b5a565b60405180910390fd5b6105668561055e610dfc565b858403610e04565b60019150509392505050565b60006012905090565b600061061d610588610dfc565b848460016000610596610dfc565b73ffffffffffffffffffffffffffffffffffffffff1673ffffffffffffffffffffffffffffffffffffffff16815260200190815260200160002060008873ffffffffffffffffffffffffffffffffffffffff1673ffffffffffffffffffffffffffffffffffffffff168152602001908152602001600020546106189190611c8c565b610e04565b6001905092915050565b600760003373ffffffffffffffffffffffffffffffffffffffff1673ffffffffffffffffffffffffffffffffffffffff16815260200190815260200160002060009054906101000a900460ff166106b3576040517f08c379a00000000000000000000000000000000000000000000000000000000081526004016106aa90611b1a565b60405180910390fd5b6106bd8282611250565b5050565b60008060008373ffffffffffffffffffffffffffffffffffffffff1673ffffffffffffffffffffffffffffffffffffffff168152602001908152602001600020549050919050565b610711610dfc565b73ffffffffffffffffffffffffffffffffffffffff1661072f610791565b73ffffffffffffffffffffffffffffffffffffffff1614610785576040517f08c379a000000000000000000000000000000000000000000000000000000000815260040161077c90611b7a565b60405180910390fd5b61078f60006113b0565b565b6000600660009054906101000a900473ffffffffffffffffffffffffffffffffffffffff16905090565b6060600480546107ca90611d9e565b80601f01602080910402602001604051908101604052809291908181526020018280546107f690611d9e565b80156108435780601f1061081857610100808354040283529160200191610843565b820191906000526020600020905b81548152906001019060200180831161082657829003601f168201915b5050505050905090565b600760003373ffffffffffffffffffffffffffffffffffffffff1673ffffffffffffffffffffffffffffffffffffffff16815260200190815260200160002060009054906101000a900460ff166108d9576040517f08c379a00000000000000000000000000000000000000000000000000000000081526004016108d090611b3a565b60405180910390fd5b6108e38282611476565b5050565b600080600160006108f6610dfc565b73ffffffffffffffffffffffffffffffffffffffff1673ffffffffffffffffffffffffffffffffffffffff16815260200190815260200160002060008573ffffffffffffffffffffffffffffffffffffffff1673ffffffffffffffffffffffffffffffffffffffff168152602001908152602001600020549050828110156109b3576040517f08c379a00000000000000000000000000000000000000000000000000000000081526004016109aa90611bfa565b60405180910390fd5b6109c76109be610dfc565b85858403610e04565b600191505092915050565b6109da610dfc565b73ffffffffffffffffffffffffffffffffffffffff166109f8610791565b73ffffffffffffffffffffffffffffffffffffffff1614610a4e576040517f08c379a0000000000000000000000000000000000000000000000000000000008152600401610a4590611b7a565b60405180910390fd5b6001600760008373ffffffffffffffffffffffffffffffffffffffff1673ffffffffffffffffffffffffffffffffffffffff16815260200190815260200160002060006101000a81548160ff02191690831515021790555050565b6000600560009054906101000a900473ffffffffffffffffffffffffffffffffffffffff1673ffffffffffffffffffffffffffffffffffffffff163373ffffffffffffffffffffffffffffffffffffffff1614610b0557600080fd5b610b17610b10610dfc565b8484610fcf565b6001905092915050565b6000600160008473ffffffffffffffffffffffffffffffffffffffff1673ffffffffffffffffffffffffffffffffffffffff16815260200190815260200160002060008373ffffffffffffffffffffffffffffffffffffffff1673ffffffffffffffffffffffffffffffffffffffff16815260200190815260200160002054905092915050565b610bb0610dfc565b73ffffffffffffffffffffffffffffffffffffffff16610bce610791565b73ffffffffffffffffffffffffffffffffffffffff1614610c24576040517f08c379a0000000000000000000000000000000000000000000000000000000008152600401610c1b90611b7a565b60405180910390fd5b600073ffffffffffffffffffffffffffffffffffffffff168173ffffffffffffffffffffffffffffffffffffffff161415610c94576040517f08c379a0000000000000000000000000000000000000000000000000000000008152600401610c8b90611aba565b60405180910390fd5b610c9d816113b0565b50565b610ca8610dfc565b73ffffffffffffffffffffffffffffffffffffffff16610cc6610791565b73ffffffffffffffffffffffffffffffffffffffff1614610d1c576040517f08c379a0000000000000000000000000000000000000000000000000000000008152600401610d1390611b7a565b60405180910390fd5b6000600760008373ffffffffffffffffffffffffffffffffffffffff1673ffffffffffffffffffffffffffffffffffffffff16815260200190815260200160002060006101000a81548160ff02191690831515021790555050565b60003073ffffffffffffffffffffffffffffffffffffffff166318160ddd6040518163ffffffff1660e01b815260040160206040518083038186803b158015610dbf57600080fd5b505afa158015610dd3573d6000803e3d6000fd5b505050506040513d601f19601f82011682018060405250810190610df79190611796565b905090565b600033905090565b600073ffffffffffffffffffffffffffffffffffffffff168373ffffffffffffffffffffffffffffffffffffffff161415610e74576040517f08c379a0000000000000000000000000000000000000000000000000000000008152600401610e6b90611bda565b60405180910390fd5b600073ffffffffffffffffffffffffffffffffffffffff168273ffffffffffffffffffffffffffffffffffffffff161415610ee4576040517f08c379a0000000000000000000000000000000000000000000000000000000008152600401610edb90611ada565b60405180910390fd5b80600160008573ffffffffffffffffffffffffffffffffffffffff1673ffffffffffffffffffffffffffffffffffffffff16815260200190815260200160002060008473ffffffffffffffffffffffffffffffffffffffff1673ffffffffffffffffffffffffffffffffffffffff168152602001908152602001600020819055508173ffffffffffffffffffffffffffffffffffffffff168373ffffffffffffffffffffffffffffffffffffffff167f8c5be1e5ebec7d5bd14f71427d1e84f3dd0314c0f7b2291e5b200ac8c7c3b92583604051610fc29190611c3a565b60405180910390a3505050565b600073ffffffffffffffffffffffffffffffffffffffff168373ffffffffffffffffffffffffffffffffffffffff16141561103f576040517f08c379a000000000000000000000000000000000000000000000000000000000815260040161103690611bba565b60405180910390fd5b600073ffffffffffffffffffffffffffffffffffffffff168273ffffffffffffffffffffffffffffffffffffffff1614156110af576040517f08c379a00000000000000000000000000000000000000000000000000000000081526004016110a690611a7a565b60405180910390fd5b6110ba83838361164d565b60008060008573ffffffffffffffffffffffffffffffffffffffff1673ffffffffffffffffffffffffffffffffffffffff16815260200190815260200160002054905081811015611140576040517f08c379a000000000000000000000000000000000000000000000000000000000815260040161113790611afa565b60405180910390fd5b8181036000808673ffffffffffffffffffffffffffffffffffffffff1673ffffffffffffffffffffffffffffffffffffffff16815260200190815260200160002081905550816000808573ffffffffffffffffffffffffffffffffffffffff1673ffffffffffffffffffffffffffffffffffffffff16815260200190815260200160002060008282546111d39190611c8c565b925050819055508273ffffffffffffffffffffffffffffffffffffffff168473ffffffffffffffffffffffffffffffffffffffff167fddf252ad1be2c89b69c2b068fc378daa952ba7f163c4a11628f55a4df523b3ef846040516112379190611c3a565b60405180910390a361124a848484611652565b50505050565b600073ffffffffffffffffffffffffffffffffffffffff168273ffffffffffffffffffffffffffffffffffffffff1614156112c0576040517f08c379a00000000000000000000000000000000000000000000000000000000081526004016112b790611c1a565b60405180910390fd5b6112cc6000838361164d565b80600260008282546112de9190611c8c565b92505081905550806000808473ffffffffffffffffffffffffffffffffffffffff1673ffffffffffffffffffffffffffffffffffffffff16815260200190815260200160002060008282546113339190611c8c565b925050819055508173ffffffffffffffffffffffffffffffffffffffff16600073ffffffffffffffffffffffffffffffffffffffff167fddf252ad1be2c89b69c2b068fc378daa952ba7f163c4a11628f55a4df523b3ef836040516113989190611c3a565b60405180910390a36113ac60008383611652565b5050565b6000600660009054906101000a900473ffffffffffffffffffffffffffffffffffffffff16905081600660006101000a81548173ffffffffffffffffffffffffffffffffffffffff021916908373ffffffffffffffffffffffffffffffffffffffff1602179055508173ffffffffffffffffffffffffffffffffffffffff168173ffffffffffffffffffffffffffffffffffffffff167f8be0079c531659141344cd1fd0a4f28419497f9722a3daafe3b4186f6b6457e060405160405180910390a35050565b600073ffffffffffffffffffffffffffffffffffffffff168273ffffffffffffffffffffffffffffffffffffffff1614156114e6576040517f08c379a00000000000000000000000000000000000000000000000000000000081526004016114dd90611b9a565b60405180910390fd5b6114f28260008361164d565b60008060008473ffffffffffffffffffffffffffffffffffffffff1673ffffffffffffffffffffffffffffffffffffffff16815260200190815260200160002054905081811015611578576040517f08c379a000000000000000000000000000000000000000000000000000000000815260040161156f90611a9a565b60405180910390fd5b8181036000808573ffffffffffffffffffffffffffffffffffffffff1673ffffffffffffffffffffffffffffffffffffffff1681526020019081526020016000208190555081600260008282546115cf9190611ce2565b92505081905550600073ffffffffffffffffffffffffffffffffffffffff168373ffffffffffffffffffffffffffffffffffffffff167fddf252ad1be2c89b69c2b068fc378daa952ba7f163c4a11628f55a4df523b3ef846040516116349190611c3a565b60405180910390a361164883600084611652565b505050565b505050565b505050565b600081359050611666816121fe565b92915050565b60008135905061167b81612215565b92915050565b60008151905061169081612215565b92915050565b6000602082840312156116ac576116ab611e2e565b5b60006116ba84828501611657565b91505092915050565b600080604083850312156116da576116d9611e2e565b5b60006116e885828601611657565b92505060206116f985828601611657565b9150509250929050565b60008060006060848603121561171c5761171b611e2e565b5b600061172a86828701611657565b935050602061173b86828701611657565b925050604061174c8682870161166c565b9150509250925092565b6000806040838503121561176d5761176c611e2e565b5b600061177b85828601611657565b925050602061178c8582860161166c565b9150509250929050565b6000602082840312156117ac576117ab611e2e565b5b60006117ba84828501611681565b91505092915050565b6117cc81611d16565b82525050565b6117db81611d28565b82525050565b60006117ec82611c70565b6117f68185611c7b565b9350611806818560208601611d6b565b61180f81611e33565b840191505092915050565b6000611827602383611c7b565b915061183282611e44565b604082019050919050565b600061184a602283611c7b565b915061185582611e93565b604082019050919050565b600061186d602683611c7b565b915061187882611ee2565b604082019050919050565b6000611890602283611c7b565b915061189b82611f31565b604082019050919050565b60006118b3602683611c7b565b91506118be82611f80565b604082019050919050565b60006118d6601983611c7b565b91506118e182611fcf565b602082019050919050565b60006118f9601983611c7b565b915061190482611ff8565b602082019050919050565b600061191c602883611c7b565b915061192782612021565b604082019050919050565b600061193f602083611c7b565b915061194a82612070565b602082019050919050565b6000611962602183611c7b565b915061196d82612099565b604082019050919050565b6000611985602583611c7b565b9150611990826120e8565b604082019050919050565b60006119a8602483611c7b565b91506119b382612137565b604082019050919050565b60006119cb602583611c7b565b91506119d682612186565b604082019050919050565b60006119ee601f83611c7b565b91506119f9826121d5565b602082019050919050565b611a0d81611d54565b82525050565b611a1c81611d5e565b82525050565b6000602082019050611a3760008301846117c3565b92915050565b6000602082019050611a5260008301846117d2565b92915050565b60006020820190508181036000830152611a7281846117e1565b905092915050565b60006020820190508181036000830152611a938161181a565b9050919050565b60006020820190508181036000830152611ab38161183d565b9050919050565b60006020820190508181036000830152611ad381611860565b9050919050565b60006020820190508181036000830152611af381611883565b9050919050565b60006020820190508181036000830152611b13816118a6565b9050919050565b60006020820190508181036000830152611b33816118c9565b9050919050565b60006020820190508181036000830152611b53816118ec565b9050919050565b60006020820190508181036000830152611b738161190f565b9050919050565b60006020820190508181036000830152611b9381611932565b9050919050565b60006020820190508181036000830152611bb381611955565b9050919050565b60006020820190508181036000830152611bd381611978565b9050919050565b60006020820190508181036000830152611bf38161199b565b9050919050565b60006020820190508181036000830152611c13816119be565b9050919050565b60006020820190508181036000830152611c33816119e1565b9050919050565b6000602082019050611c4f6000830184611a04565b92915050565b6000602082019050611c6a6000830184611a13565b92915050565b600081519050919050565b600082825260208201905092915050565b6000611c9782611d54565b9150611ca283611d54565b9250827fffffffffffffffffffffffffffffffffffffffffffffffffffffffffffffffff03821115611cd757611cd6611dd0565b5b828201905092915050565b6000611ced82611d54565b9150611cf883611d54565b925082821015611d0b57611d0a611dd0565b5b828203905092915050565b6000611d2182611d34565b9050919050565b60008115159050919050565b600073ffffffffffffffffffffffffffffffffffffffff82169050919050565b6000819050919050565b600060ff82169050919050565b60005b83811015611d89578082015181840152602081019050611d6e565b83811115611d98576000848401525b50505050565b60006002820490506001821680611db657607f821691505b60208210811415611dca57611dc9611dff565b5b50919050565b7f4e487b7100000000000000000000000000000000000000000000000000000000600052601160045260246000fd5b7f4e487b7100000000000000000000000000000000000000000000000000000000600052602260045260246000fd5b600080fd5b6000601f19601f8301169050919050565b7f45524332303a207472616e7366657220746f20746865207a65726f206164647260008201527f6573730000000000000000000000000000000000000000000000000000000000602082015250565b7f45524332303a206275726e20616d6f756e7420657863656564732062616c616e60008201527f6365000000000000000000000000000000000000000000000000000000000000602082015250565b7f4f776e61626c653a206e6577206f776e657220697320746865207a65726f206160008201527f6464726573730000000000000000000000000000000000000000000000000000602082015250565b7f45524332303a20617070726f766520746f20746865207a65726f20616464726560008201527f7373000000000000000000000000000000000000000000000000000000000000602082015250565b7f45524332303a207472616e7366657220616d6f756e742065786365656473206260008201527f616c616e63650000000000000000000000000000000000000000000000000000602082015250565b7f4f6e6c7920636f6e74726f6c6c6572732063616e206d696e7400000000000000600082015250565b7f4f6e6c7920636f6e74726f6c6c6572732063616e206275726e00000000000000600082015250565b7f45524332303a207472616e7366657220616d6f756e742065786365656473206160008201527f6c6c6f77616e6365000000000000000000000000000000000000000000000000602082015250565b7f4f776e61626c653a2063616c6c6572206973206e6f7420746865206f776e6572600082015250565b7f45524332303a206275726e2066726f6d20746865207a65726f2061646472657360008201527f7300000000000000000000000000000000000000000000000000000000000000602082015250565b7f45524332303a207472616e736665722066726f6d20746865207a65726f20616460008201527f6472657373000000000000000000000000000000000000000000000000000000602082015250565b7f45524332303a20617070726f76652066726f6d20746865207a65726f2061646460008201527f7265737300000000000000000000000000000000000000000000000000000000602082015250565b7f45524332303a2064656372656173656420616c6c6f77616e63652062656c6f7760008201527f207a65726f000000000000000000000000000000000000000000000000000000602082015250565b7f45524332303a206d696e7420746f20746865207a65726f206164647265737300600082015250565b61220781611d16565b811461221257600080fd5b50565b61221e81611d54565b811461222957600080fd5b5056fea2646970667358221220efdd03ec2c9771b1672bef7986b9bde5296c985064776252ead0b35d1bdfb25364736f6c63430008070033",
					"opcodes": "PUSH1 0x80 PUSH1 0x40 MSTORE CALLVALUE DUP1 ISZERO PUSH3 0x11 JUMPI PUSH1 0x0 DUP1 REVERT JUMPDEST POP PUSH1 0x40 MLOAD DUP1 PUSH1 0x40 ADD PUSH1 0x40 MSTORE DUP1 PUSH1 0x9 DUP2 MSTORE PUSH1 0x20 ADD PUSH32 0x57616E642D57616E640000000000000000000000000000000000000000000000 DUP2 MSTORE POP PUSH1 0x40 MLOAD DUP1 PUSH1 0x40 ADD PUSH1 0x40 MSTORE DUP1 PUSH1 0x4 DUP2 MSTORE PUSH1 0x20 ADD PUSH32 0x54574E4400000000000000000000000000000000000000000000000000000000 DUP2 MSTORE POP DUP2 PUSH1 0x3 SWAP1 DUP1 MLOAD SWAP1 PUSH1 0x20 ADD SWAP1 PUSH3 0x96 SWAP3 SWAP2 SWAP1 PUSH3 0x1FB JUMP JUMPDEST POP DUP1 PUSH1 0x4 SWAP1 DUP1 MLOAD SWAP1 PUSH1 0x20 ADD SWAP1 PUSH3 0xAF SWAP3 SWAP2 SWAP1 PUSH3 0x1FB JUMP JUMPDEST POP PUSH20 0x4A55C1181B4AEC55CF8E71377E8518E742F9AE72 PUSH1 0x5 PUSH1 0x0 PUSH2 0x100 EXP DUP2 SLOAD DUP2 PUSH20 0xFFFFFFFFFFFFFFFFFFFFFFFFFFFFFFFFFFFFFFFF MUL NOT AND SWAP1 DUP4 PUSH20 0xFFFFFFFFFFFFFFFFFFFFFFFFFFFFFFFFFFFFFFFF AND MUL OR SWAP1 SSTORE POP POP POP PUSH3 0x127 PUSH3 0x11B PUSH3 0x12D PUSH1 0x20 SHL PUSH1 0x20 SHR JUMP JUMPDEST PUSH3 0x135 PUSH1 0x20 SHL PUSH1 0x20 SHR JUMP JUMPDEST PUSH3 0x310 JUMP JUMPDEST PUSH1 0x0 CALLER SWAP1 POP SWAP1 JUMP JUMPDEST PUSH1 0x0 PUSH1 0x6 PUSH1 0x0 SWAP1 SLOAD SWAP1 PUSH2 0x100 EXP SWAP1 DIV PUSH20 0xFFFFFFFFFFFFFFFFFFFFFFFFFFFFFFFFFFFFFFFF AND SWAP1 POP DUP2 PUSH1 0x6 PUSH1 0x0 PUSH2 0x100 EXP DUP2 SLOAD DUP2 PUSH20 0xFFFFFFFFFFFFFFFFFFFFFFFFFFFFFFFFFFFFFFFF MUL NOT AND SWAP1 DUP4 PUSH20 0xFFFFFFFFFFFFFFFFFFFFFFFFFFFFFFFFFFFFFFFF AND MUL OR SWAP1 SSTORE POP DUP2 PUSH20 0xFFFFFFFFFFFFFFFFFFFFFFFFFFFFFFFFFFFFFFFF AND DUP2 PUSH20 0xFFFFFFFFFFFFFFFFFFFFFFFFFFFFFFFFFFFFFFFF AND PUSH32 0x8BE0079C531659141344CD1FD0A4F28419497F9722A3DAAFE3B4186F6B6457E0 PUSH1 0x40 MLOAD PUSH1 0x40 MLOAD DUP1 SWAP2 SUB SWAP1 LOG3 POP POP JUMP JUMPDEST DUP3 DUP1 SLOAD PUSH3 0x209 SWAP1 PUSH3 0x2AB JUMP JUMPDEST SWAP1 PUSH1 0x0 MSTORE PUSH1 0x20 PUSH1 0x0 KECCAK256 SWAP1 PUSH1 0x1F ADD PUSH1 0x20 SWAP1 DIV DUP2 ADD SWAP3 DUP3 PUSH3 0x22D JUMPI PUSH1 0x0 DUP6 SSTORE PUSH3 0x279 JUMP JUMPDEST DUP3 PUSH1 0x1F LT PUSH3 0x248 JUMPI DUP1 MLOAD PUSH1 0xFF NOT AND DUP4 DUP1 ADD OR DUP6 SSTORE PUSH3 0x279 JUMP JUMPDEST DUP3 DUP1 ADD PUSH1 0x1 ADD DUP6 SSTORE DUP3 ISZERO PUSH3 0x279 JUMPI SWAP2 DUP3 ADD JUMPDEST DUP3 DUP2 GT ISZERO PUSH3 0x278 JUMPI DUP3 MLOAD DUP3 SSTORE SWAP2 PUSH1 0x20 ADD SWAP2 SWAP1 PUSH1 0x1 ADD SWAP1 PUSH3 0x25B JUMP JUMPDEST JUMPDEST POP SWAP1 POP PUSH3 0x288 SWAP2 SWAP1 PUSH3 0x28C JUMP JUMPDEST POP SWAP1 JUMP JUMPDEST JUMPDEST DUP1 DUP3 GT ISZERO PUSH3 0x2A7 JUMPI PUSH1 0x0 DUP2 PUSH1 0x0 SWAP1 SSTORE POP PUSH1 0x1 ADD PUSH3 0x28D JUMP JUMPDEST POP SWAP1 JUMP JUMPDEST PUSH1 0x0 PUSH1 0x2 DUP3 DIV SWAP1 POP PUSH1 0x1 DUP3 AND DUP1 PUSH3 0x2C4 JUMPI PUSH1 0x7F DUP3 AND SWAP2 POP JUMPDEST PUSH1 0x20 DUP3 LT DUP2 EQ ISZERO PUSH3 0x2DB JUMPI PUSH3 0x2DA PUSH3 0x2E1 JUMP JUMPDEST JUMPDEST POP SWAP2 SWAP1 POP JUMP JUMPDEST PUSH32 0x4E487B7100000000000000000000000000000000000000000000000000000000 PUSH1 0x0 MSTORE PUSH1 0x22 PUSH1 0x4 MSTORE PUSH1 0x24 PUSH1 0x0 REVERT JUMPDEST PUSH2 0x2262 DUP1 PUSH3 0x320 PUSH1 0x0 CODECOPY PUSH1 0x0 RETURN INVALID PUSH1 0x80 PUSH1 0x40 MSTORE CALLVALUE DUP1 ISZERO PUSH2 0x10 JUMPI PUSH1 0x0 DUP1 REVERT JUMPDEST POP PUSH1 0x4 CALLDATASIZE LT PUSH2 0x121 JUMPI PUSH1 0x0 CALLDATALOAD PUSH1 0xE0 SHR DUP1 PUSH4 0x8DA5CB5B GT PUSH2 0xAD JUMPI DUP1 PUSH4 0xA9059CBB GT PUSH2 0x71 JUMPI DUP1 PUSH4 0xA9059CBB EQ PUSH2 0x30A JUMPI DUP1 PUSH4 0xDD62ED3E EQ PUSH2 0x33A JUMPI DUP1 PUSH4 0xF2FDE38B EQ PUSH2 0x36A JUMPI DUP1 PUSH4 0xF6A74ED7 EQ PUSH2 0x386 JUMPI DUP1 PUSH4 0xF7425E4E EQ PUSH2 0x3A2 JUMPI PUSH2 0x121 JUMP JUMPDEST DUP1 PUSH4 0x8DA5CB5B EQ PUSH2 0x266 JUMPI DUP1 PUSH4 0x95D89B41 EQ PUSH2 0x284 JUMPI DUP1 PUSH4 0x9DC29FAC EQ PUSH2 0x2A2 JUMPI DUP1 PUSH4 0xA457C2D7 EQ PUSH2 0x2BE JUMPI DUP1 PUSH4 0xA7FC7A07 EQ PUSH2 0x2EE JUMPI PUSH2 0x121 JUMP JUMPDEST DUP1 PUSH4 0x313CE567 GT PUSH2 0xF4 JUMPI DUP1 PUSH4 0x313CE567 EQ PUSH2 0x1C2 JUMPI DUP1 PUSH4 0x39509351 EQ PUSH2 0x1E0 JUMPI DUP1 PUSH4 0x40C10F19 EQ PUSH2 0x210 JUMPI DUP1 PUSH4 0x70A08231 EQ PUSH2 0x22C JUMPI DUP1 PUSH4 0x715018A6 EQ PUSH2 0x25C JUMPI PUSH2 0x121 JUMP JUMPDEST DUP1 PUSH4 0x6FDDE03 EQ PUSH2 0x126 JUMPI DUP1 PUSH4 0x95EA7B3 EQ PUSH2 0x144 JUMPI DUP1 PUSH4 0x18160DDD EQ PUSH2 0x174 JUMPI DUP1 PUSH4 0x23B872DD EQ PUSH2 0x192 JUMPI JUMPDEST PUSH1 0x0 DUP1 REVERT JUMPDEST PUSH2 0x12E PUSH2 0x3C0 JUMP JUMPDEST PUSH1 0x40 MLOAD PUSH2 0x13B SWAP2 SWAP1 PUSH2 0x1A58 JUMP JUMPDEST PUSH1 0x40 MLOAD DUP1 SWAP2 SUB SWAP1 RETURN JUMPDEST PUSH2 0x15E PUSH1 0x4 DUP1 CALLDATASIZE SUB DUP2 ADD SWAP1 PUSH2 0x159 SWAP2 SWAP1 PUSH2 0x1756 JUMP JUMPDEST PUSH2 0x452 JUMP JUMPDEST PUSH1 0x40 MLOAD PUSH2 0x16B SWAP2 SWAP1 PUSH2 0x1A3D JUMP JUMPDEST PUSH1 0x40 MLOAD DUP1 SWAP2 SUB SWAP1 RETURN JUMPDEST PUSH2 0x17C PUSH2 0x470 JUMP JUMPDEST PUSH1 0x40 MLOAD PUSH2 0x189 SWAP2 SWAP1 PUSH2 0x1C3A JUMP JUMPDEST PUSH1 0x40 MLOAD DUP1 SWAP2 SUB SWAP1 RETURN JUMPDEST PUSH2 0x1AC PUSH1 0x4 DUP1 CALLDATASIZE SUB DUP2 ADD SWAP1 PUSH2 0x1A7 SWAP2 SWAP1 PUSH2 0x1703 JUMP JUMPDEST PUSH2 0x47A JUMP JUMPDEST PUSH1 0x40 MLOAD PUSH2 0x1B9 SWAP2 SWAP1 PUSH2 0x1A3D JUMP JUMPDEST PUSH1 0x40 MLOAD DUP1 SWAP2 SUB SWAP1 RETURN JUMPDEST PUSH2 0x1CA PUSH2 0x572 JUMP JUMPDEST PUSH1 0x40 MLOAD PUSH2 0x1D7 SWAP2 SWAP1 PUSH2 0x1C55 JUMP JUMPDEST PUSH1 0x40 MLOAD DUP1 SWAP2 SUB SWAP1 RETURN JUMPDEST PUSH2 0x1FA PUSH1 0x4 DUP1 CALLDATASIZE SUB DUP2 ADD SWAP1 PUSH2 0x1F5 SWAP2 SWAP1 PUSH2 0x1756 JUMP JUMPDEST PUSH2 0x57B JUMP JUMPDEST PUSH1 0x40 MLOAD PUSH2 0x207 SWAP2 SWAP1 PUSH2 0x1A3D JUMP JUMPDEST PUSH1 0x40 MLOAD DUP1 SWAP2 SUB SWAP1 RETURN JUMPDEST PUSH2 0x22A PUSH1 0x4 DUP1 CALLDATASIZE SUB DUP2 ADD SWAP1 PUSH2 0x225 SWAP2 SWAP1 PUSH2 0x1756 JUMP JUMPDEST PUSH2 0x627 JUMP JUMPDEST STOP JUMPDEST PUSH2 0x246 PUSH1 0x4 DUP1 CALLDATASIZE SUB DUP2 ADD SWAP1 PUSH2 0x241 SWAP2 SWAP1 PUSH2 0x1696 JUMP JUMPDEST PUSH2 0x6C1 JUMP JUMPDEST PUSH1 0x40 MLOAD PUSH2 0x253 SWAP2 SWAP1 PUSH2 0x1C3A JUMP JUMPDEST PUSH1 0x40 MLOAD DUP1 SWAP2 SUB SWAP1 RETURN JUMPDEST PUSH2 0x264 PUSH2 0x709 JUMP JUMPDEST STOP JUMPDEST PUSH2 0x26E PUSH2 0x791 JUMP JUMPDEST PUSH1 0x40 MLOAD PUSH2 0x27B SWAP2 SWAP1 PUSH2 0x1A22 JUMP JUMPDEST PUSH1 0x40 MLOAD DUP1 SWAP2 SUB SWAP1 RETURN JUMPDEST PUSH2 0x28C PUSH2 0x7BB JUMP JUMPDEST PUSH1 0x40 MLOAD PUSH2 0x299 SWAP2 SWAP1 PUSH2 0x1A58 JUMP JUMPDEST PUSH1 0x40 MLOAD DUP1 SWAP2 SUB SWAP1 RETURN JUMPDEST PUSH2 0x2BC PUSH1 0x4 DUP1 CALLDATASIZE SUB DUP2 ADD SWAP1 PUSH2 0x2B7 SWAP2 SWAP1 PUSH2 0x1756 JUMP JUMPDEST PUSH2 0x84D JUMP JUMPDEST STOP JUMPDEST PUSH2 0x2D8 PUSH1 0x4 DUP1 CALLDATASIZE SUB DUP2 ADD SWAP1 PUSH2 0x2D3 SWAP2 SWAP1 PUSH2 0x1756 JUMP JUMPDEST PUSH2 0x8E7 JUMP JUMPDEST PUSH1 0x40 MLOAD PUSH2 0x2E5 SWAP2 SWAP1 PUSH2 0x1A3D JUMP JUMPDEST PUSH1 0x40 MLOAD DUP1 SWAP2 SUB SWAP1 RETURN JUMPDEST PUSH2 0x308 PUSH1 0x4 DUP1 CALLDATASIZE SUB DUP2 ADD SWAP1 PUSH2 0x303 SWAP2 SWAP1 PUSH2 0x1696 JUMP JUMPDEST PUSH2 0x9D2 JUMP JUMPDEST STOP JUMPDEST PUSH2 0x324 PUSH1 0x4 DUP1 CALLDATASIZE SUB DUP2 ADD SWAP1 PUSH2 0x31F SWAP2 SWAP1 PUSH2 0x1756 JUMP JUMPDEST PUSH2 0xAA9 JUMP JUMPDEST PUSH1 0x40 MLOAD PUSH2 0x331 SWAP2 SWAP1 PUSH2 0x1A3D JUMP JUMPDEST PUSH1 0x40 MLOAD DUP1 SWAP2 SUB SWAP1 RETURN JUMPDEST PUSH2 0x354 PUSH1 0x4 DUP1 CALLDATASIZE SUB DUP2 ADD SWAP1 PUSH2 0x34F SWAP2 SWAP1 PUSH2 0x16C3 JUMP JUMPDEST PUSH2 0xB21 JUMP JUMPDEST PUSH1 0x40 MLOAD PUSH2 0x361 SWAP2 SWAP1 PUSH2 0x1C3A JUMP JUMPDEST PUSH1 0x40 MLOAD DUP1 SWAP2 SUB SWAP1 RETURN JUMPDEST PUSH2 0x384 PUSH1 0x4 DUP1 CALLDATASIZE SUB DUP2 ADD SWAP1 PUSH2 0x37F SWAP2 SWAP1 PUSH2 0x1696 JUMP JUMPDEST PUSH2 0xBA8 JUMP JUMPDEST STOP JUMPDEST PUSH2 0x3A0 PUSH1 0x4 DUP1 CALLDATASIZE SUB DUP2 ADD SWAP1 PUSH2 0x39B SWAP2 SWAP1 PUSH2 0x1696 JUMP JUMPDEST PUSH2 0xCA0 JUMP JUMPDEST STOP JUMPDEST PUSH2 0x3AA PUSH2 0xD77 JUMP JUMPDEST PUSH1 0x40 MLOAD PUSH2 0x3B7 SWAP2 SWAP1 PUSH2 0x1C3A JUMP JUMPDEST PUSH1 0x40 MLOAD DUP1 SWAP2 SUB SWAP1 RETURN JUMPDEST PUSH1 0x60 PUSH1 0x3 DUP1 SLOAD PUSH2 0x3CF SWAP1 PUSH2 0x1D9E JUMP JUMPDEST DUP1 PUSH1 0x1F ADD PUSH1 0x20 DUP1 SWAP2 DIV MUL PUSH1 0x20 ADD PUSH1 0x40 MLOAD SWAP1 DUP2 ADD PUSH1 0x40 MSTORE DUP1 SWAP3 SWAP2 SWAP1 DUP2 DUP2 MSTORE PUSH1 0x20 ADD DUP3 DUP1 SLOAD PUSH2 0x3FB SWAP1 PUSH2 0x1D9E JUMP JUMPDEST DUP1 ISZERO PUSH2 0x448 JUMPI DUP1 PUSH1 0x1F LT PUSH2 0x41D JUMPI PUSH2 0x100 DUP1 DUP4 SLOAD DIV MUL DUP4 MSTORE SWAP2 PUSH1 0x20 ADD SWAP2 PUSH2 0x448 JUMP JUMPDEST DUP3 ADD SWAP2 SWAP1 PUSH1 0x0 MSTORE PUSH1 0x20 PUSH1 0x0 KECCAK256 SWAP1 JUMPDEST DUP2 SLOAD DUP2 MSTORE SWAP1 PUSH1 0x1 ADD SWAP1 PUSH1 0x20 ADD DUP1 DUP4 GT PUSH2 0x42B JUMPI DUP3 SWAP1 SUB PUSH1 0x1F AND DUP3 ADD SWAP2 JUMPDEST POP POP POP POP POP SWAP1 POP SWAP1 JUMP JUMPDEST PUSH1 0x0 PUSH2 0x466 PUSH2 0x45F PUSH2 0xDFC JUMP JUMPDEST DUP5 DUP5 PUSH2 0xE04 JUMP JUMPDEST PUSH1 0x1 SWAP1 POP SWAP3 SWAP2 POP POP JUMP JUMPDEST PUSH1 0x0 PUSH1 0x2 SLOAD SWAP1 POP SWAP1 JUMP JUMPDEST PUSH1 0x0 PUSH2 0x487 DUP5 DUP5 DUP5 PUSH2 0xFCF JUMP JUMPDEST PUSH1 0x0 PUSH1 0x1 PUSH1 0x0 DUP7 PUSH20 0xFFFFFFFFFFFFFFFFFFFFFFFFFFFFFFFFFFFFFFFF AND PUSH20 0xFFFFFFFFFFFFFFFFFFFFFFFFFFFFFFFFFFFFFFFF AND DUP2 MSTORE PUSH1 0x20 ADD SWAP1 DUP2 MSTORE PUSH1 0x20 ADD PUSH1 0x0 KECCAK256 PUSH1 0x0 PUSH2 0x4D2 PUSH2 0xDFC JUMP JUMPDEST PUSH20 0xFFFFFFFFFFFFFFFFFFFFFFFFFFFFFFFFFFFFFFFF AND PUSH20 0xFFFFFFFFFFFFFFFFFFFFFFFFFFFFFFFFFFFFFFFF AND DUP2 MSTORE PUSH1 0x20 ADD SWAP1 DUP2 MSTORE PUSH1 0x20 ADD PUSH1 0x0 KECCAK256 SLOAD SWAP1 POP DUP3 DUP2 LT ISZERO PUSH2 0x552 JUMPI PUSH1 0x40 MLOAD PUSH32 0x8C379A000000000000000000000000000000000000000000000000000000000 DUP2 MSTORE PUSH1 0x4 ADD PUSH2 0x549 SWAP1 PUSH2 0x1B5A JUMP JUMPDEST PUSH1 0x40 MLOAD DUP1 SWAP2 SUB SWAP1 REVERT JUMPDEST PUSH2 0x566 DUP6 PUSH2 0x55E PUSH2 0xDFC JUMP JUMPDEST DUP6 DUP5 SUB PUSH2 0xE04 JUMP JUMPDEST PUSH1 0x1 SWAP2 POP POP SWAP4 SWAP3 POP POP POP JUMP JUMPDEST PUSH1 0x0 PUSH1 0x12 SWAP1 POP SWAP1 JUMP JUMPDEST PUSH1 0x0 PUSH2 0x61D PUSH2 0x588 PUSH2 0xDFC JUMP JUMPDEST DUP5 DUP5 PUSH1 0x1 PUSH1 0x0 PUSH2 0x596 PUSH2 0xDFC JUMP JUMPDEST PUSH20 0xFFFFFFFFFFFFFFFFFFFFFFFFFFFFFFFFFFFFFFFF AND PUSH20 0xFFFFFFFFFFFFFFFFFFFFFFFFFFFFFFFFFFFFFFFF AND DUP2 MSTORE PUSH1 0x20 ADD SWAP1 DUP2 MSTORE PUSH1 0x20 ADD PUSH1 0x0 KECCAK256 PUSH1 0x0 DUP9 PUSH20 0xFFFFFFFFFFFFFFFFFFFFFFFFFFFFFFFFFFFFFFFF AND PUSH20 0xFFFFFFFFFFFFFFFFFFFFFFFFFFFFFFFFFFFFFFFF AND DUP2 MSTORE PUSH1 0x20 ADD SWAP1 DUP2 MSTORE PUSH1 0x20 ADD PUSH1 0x0 KECCAK256 SLOAD PUSH2 0x618 SWAP2 SWAP1 PUSH2 0x1C8C JUMP JUMPDEST PUSH2 0xE04 JUMP JUMPDEST PUSH1 0x1 SWAP1 POP SWAP3 SWAP2 POP POP JUMP JUMPDEST PUSH1 0x7 PUSH1 0x0 CALLER PUSH20 0xFFFFFFFFFFFFFFFFFFFFFFFFFFFFFFFFFFFFFFFF AND PUSH20 0xFFFFFFFFFFFFFFFFFFFFFFFFFFFFFFFFFFFFFFFF AND DUP2 MSTORE PUSH1 0x20 ADD SWAP1 DUP2 MSTORE PUSH1 0x20 ADD PUSH1 0x0 KECCAK256 PUSH1 0x0 SWAP1 SLOAD SWAP1 PUSH2 0x100 EXP SWAP1 DIV PUSH1 0xFF AND PUSH2 0x6B3 JUMPI PUSH1 0x40 MLOAD PUSH32 0x8C379A000000000000000000000000000000000000000000000000000000000 DUP2 MSTORE PUSH1 0x4 ADD PUSH2 0x6AA SWAP1 PUSH2 0x1B1A JUMP JUMPDEST PUSH1 0x40 MLOAD DUP1 SWAP2 SUB SWAP1 REVERT JUMPDEST PUSH2 0x6BD DUP3 DUP3 PUSH2 0x1250 JUMP JUMPDEST POP POP JUMP JUMPDEST PUSH1 0x0 DUP1 PUSH1 0x0 DUP4 PUSH20 0xFFFFFFFFFFFFFFFFFFFFFFFFFFFFFFFFFFFFFFFF AND PUSH20 0xFFFFFFFFFFFFFFFFFFFFFFFFFFFFFFFFFFFFFFFF AND DUP2 MSTORE PUSH1 0x20 ADD SWAP1 DUP2 MSTORE PUSH1 0x20 ADD PUSH1 0x0 KECCAK256 SLOAD SWAP1 POP SWAP2 SWAP1 POP JUMP JUMPDEST PUSH2 0x711 PUSH2 0xDFC JUMP JUMPDEST PUSH20 0xFFFFFFFFFFFFFFFFFFFFFFFFFFFFFFFFFFFFFFFF AND PUSH2 0x72F PUSH2 0x791 JUMP JUMPDEST PUSH20 0xFFFFFFFFFFFFFFFFFFFFFFFFFFFFFFFFFFFFFFFF AND EQ PUSH2 0x785 JUMPI PUSH1 0x40 MLOAD PUSH32 0x8C379A000000000000000000000000000000000000000000000000000000000 DUP2 MSTORE PUSH1 0x4 ADD PUSH2 0x77C SWAP1 PUSH2 0x1B7A JUMP JUMPDEST PUSH1 0x40 MLOAD DUP1 SWAP2 SUB SWAP1 REVERT JUMPDEST PUSH2 0x78F PUSH1 0x0 PUSH2 0x13B0 JUMP JUMPDEST JUMP JUMPDEST PUSH1 0x0 PUSH1 0x6 PUSH1 0x0 SWAP1 SLOAD SWAP1 PUSH2 0x100 EXP SWAP1 DIV PUSH20 0xFFFFFFFFFFFFFFFFFFFFFFFFFFFFFFFFFFFFFFFF AND SWAP1 POP SWAP1 JUMP JUMPDEST PUSH1 0x60 PUSH1 0x4 DUP1 SLOAD PUSH2 0x7CA SWAP1 PUSH2 0x1D9E JUMP JUMPDEST DUP1 PUSH1 0x1F ADD PUSH1 0x20 DUP1 SWAP2 DIV MUL PUSH1 0x20 ADD PUSH1 0x40 MLOAD SWAP1 DUP2 ADD PUSH1 0x40 MSTORE DUP1 SWAP3 SWAP2 SWAP1 DUP2 DUP2 MSTORE PUSH1 0x20 ADD DUP3 DUP1 SLOAD PUSH2 0x7F6 SWAP1 PUSH2 0x1D9E JUMP JUMPDEST DUP1 ISZERO PUSH2 0x843 JUMPI DUP1 PUSH1 0x1F LT PUSH2 0x818 JUMPI PUSH2 0x100 DUP1 DUP4 SLOAD DIV MUL DUP4 MSTORE SWAP2 PUSH1 0x20 ADD SWAP2 PUSH2 0x843 JUMP JUMPDEST DUP3 ADD SWAP2 SWAP1 PUSH1 0x0 MSTORE PUSH1 0x20 PUSH1 0x0 KECCAK256 SWAP1 JUMPDEST DUP2 SLOAD DUP2 MSTORE SWAP1 PUSH1 0x1 ADD SWAP1 PUSH1 0x20 ADD DUP1 DUP4 GT PUSH2 0x826 JUMPI DUP3 SWAP1 SUB PUSH1 0x1F AND DUP3 ADD SWAP2 JUMPDEST POP POP POP POP POP SWAP1 POP SWAP1 JUMP JUMPDEST PUSH1 0x7 PUSH1 0x0 CALLER PUSH20 0xFFFFFFFFFFFFFFFFFFFFFFFFFFFFFFFFFFFFFFFF AND PUSH20 0xFFFFFFFFFFFFFFFFFFFFFFFFFFFFFFFFFFFFFFFF AND DUP2 MSTORE PUSH1 0x20 ADD SWAP1 DUP2 MSTORE PUSH1 0x20 ADD PUSH1 0x0 KECCAK256 PUSH1 0x0 SWAP1 SLOAD SWAP1 PUSH2 0x100 EXP SWAP1 DIV PUSH1 0xFF AND PUSH2 0x8D9 JUMPI PUSH1 0x40 MLOAD PUSH32 0x8C379A000000000000000000000000000000000000000000000000000000000 DUP2 MSTORE PUSH1 0x4 ADD PUSH2 0x8D0 SWAP1 PUSH2 0x1B3A JUMP JUMPDEST PUSH1 0x40 MLOAD DUP1 SWAP2 SUB SWAP1 REVERT JUMPDEST PUSH2 0x8E3 DUP3 DUP3 PUSH2 0x1476 JUMP JUMPDEST POP POP JUMP JUMPDEST PUSH1 0x0 DUP1 PUSH1 0x1 PUSH1 0x0 PUSH2 0x8F6 PUSH2 0xDFC JUMP JUMPDEST PUSH20 0xFFFFFFFFFFFFFFFFFFFFFFFFFFFFFFFFFFFFFFFF AND PUSH20 0xFFFFFFFFFFFFFFFFFFFFFFFFFFFFFFFFFFFFFFFF AND DUP2 MSTORE PUSH1 0x20 ADD SWAP1 DUP2 MSTORE PUSH1 0x20 ADD PUSH1 0x0 KECCAK256 PUSH1 0x0 DUP6 PUSH20 0xFFFFFFFFFFFFFFFFFFFFFFFFFFFFFFFFFFFFFFFF AND PUSH20 0xFFFFFFFFFFFFFFFFFFFFFFFFFFFFFFFFFFFFFFFF AND DUP2 MSTORE PUSH1 0x20 ADD SWAP1 DUP2 MSTORE PUSH1 0x20 ADD PUSH1 0x0 KECCAK256 SLOAD SWAP1 POP DUP3 DUP2 LT ISZERO PUSH2 0x9B3 JUMPI PUSH1 0x40 MLOAD PUSH32 0x8C379A000000000000000000000000000000000000000000000000000000000 DUP2 MSTORE PUSH1 0x4 ADD PUSH2 0x9AA SWAP1 PUSH2 0x1BFA JUMP JUMPDEST PUSH1 0x40 MLOAD DUP1 SWAP2 SUB SWAP1 REVERT JUMPDEST PUSH2 0x9C7 PUSH2 0x9BE PUSH2 0xDFC JUMP JUMPDEST DUP6 DUP6 DUP5 SUB PUSH2 0xE04 JUMP JUMPDEST PUSH1 0x1 SWAP2 POP POP SWAP3 SWAP2 POP POP JUMP JUMPDEST PUSH2 0x9DA PUSH2 0xDFC JUMP JUMPDEST PUSH20 0xFFFFFFFFFFFFFFFFFFFFFFFFFFFFFFFFFFFFFFFF AND PUSH2 0x9F8 PUSH2 0x791 JUMP JUMPDEST PUSH20 0xFFFFFFFFFFFFFFFFFFFFFFFFFFFFFFFFFFFFFFFF AND EQ PUSH2 0xA4E JUMPI PUSH1 0x40 MLOAD PUSH32 0x8C379A000000000000000000000000000000000000000000000000000000000 DUP2 MSTORE PUSH1 0x4 ADD PUSH2 0xA45 SWAP1 PUSH2 0x1B7A JUMP JUMPDEST PUSH1 0x40 MLOAD DUP1 SWAP2 SUB SWAP1 REVERT JUMPDEST PUSH1 0x1 PUSH1 0x7 PUSH1 0x0 DUP4 PUSH20 0xFFFFFFFFFFFFFFFFFFFFFFFFFFFFFFFFFFFFFFFF AND PUSH20 0xFFFFFFFFFFFFFFFFFFFFFFFFFFFFFFFFFFFFFFFF AND DUP2 MSTORE PUSH1 0x20 ADD SWAP1 DUP2 MSTORE PUSH1 0x20 ADD PUSH1 0x0 KECCAK256 PUSH1 0x0 PUSH2 0x100 EXP DUP2 SLOAD DUP2 PUSH1 0xFF MUL NOT AND SWAP1 DUP4 ISZERO ISZERO MUL OR SWAP1 SSTORE POP POP JUMP JUMPDEST PUSH1 0x0 PUSH1 0x5 PUSH1 0x0 SWAP1 SLOAD SWAP1 PUSH2 0x100 EXP SWAP1 DIV PUSH20 0xFFFFFFFFFFFFFFFFFFFFFFFFFFFFFFFFFFFFFFFF AND PUSH20 0xFFFFFFFFFFFFFFFFFFFFFFFFFFFFFFFFFFFFFFFF AND CALLER PUSH20 0xFFFFFFFFFFFFFFFFFFFFFFFFFFFFFFFFFFFFFFFF AND EQ PUSH2 0xB05 JUMPI PUSH1 0x0 DUP1 REVERT JUMPDEST PUSH2 0xB17 PUSH2 0xB10 PUSH2 0xDFC JUMP JUMPDEST DUP5 DUP5 PUSH2 0xFCF JUMP JUMPDEST PUSH1 0x1 SWAP1 POP SWAP3 SWAP2 POP POP JUMP JUMPDEST PUSH1 0x0 PUSH1 0x1 PUSH1 0x0 DUP5 PUSH20 0xFFFFFFFFFFFFFFFFFFFFFFFFFFFFFFFFFFFFFFFF AND PUSH20 0xFFFFFFFFFFFFFFFFFFFFFFFFFFFFFFFFFFFFFFFF AND DUP2 MSTORE PUSH1 0x20 ADD SWAP1 DUP2 MSTORE PUSH1 0x20 ADD PUSH1 0x0 KECCAK256 PUSH1 0x0 DUP4 PUSH20 0xFFFFFFFFFFFFFFFFFFFFFFFFFFFFFFFFFFFFFFFF AND PUSH20 0xFFFFFFFFFFFFFFFFFFFFFFFFFFFFFFFFFFFFFFFF AND DUP2 MSTORE PUSH1 0x20 ADD SWAP1 DUP2 MSTORE PUSH1 0x20 ADD PUSH1 0x0 KECCAK256 SLOAD SWAP1 POP SWAP3 SWAP2 POP POP JUMP JUMPDEST PUSH2 0xBB0 PUSH2 0xDFC JUMP JUMPDEST PUSH20 0xFFFFFFFFFFFFFFFFFFFFFFFFFFFFFFFFFFFFFFFF AND PUSH2 0xBCE PUSH2 0x791 JUMP JUMPDEST PUSH20 0xFFFFFFFFFFFFFFFFFFFFFFFFFFFFFFFFFFFFFFFF AND EQ PUSH2 0xC24 JUMPI PUSH1 0x40 MLOAD PUSH32 0x8C379A000000000000000000000000000000000000000000000000000000000 DUP2 MSTORE PUSH1 0x4 ADD PUSH2 0xC1B SWAP1 PUSH2 0x1B7A JUMP JUMPDEST PUSH1 0x40 MLOAD DUP1 SWAP2 SUB SWAP1 REVERT JUMPDEST PUSH1 0x0 PUSH20 0xFFFFFFFFFFFFFFFFFFFFFFFFFFFFFFFFFFFFFFFF AND DUP2 PUSH20 0xFFFFFFFFFFFFFFFFFFFFFFFFFFFFFFFFFFFFFFFF AND EQ ISZERO PUSH2 0xC94 JUMPI PUSH1 0x40 MLOAD PUSH32 0x8C379A000000000000000000000000000000000000000000000000000000000 DUP2 MSTORE PUSH1 0x4 ADD PUSH2 0xC8B SWAP1 PUSH2 0x1ABA JUMP JUMPDEST PUSH1 0x40 MLOAD DUP1 SWAP2 SUB SWAP1 REVERT JUMPDEST PUSH2 0xC9D DUP2 PUSH2 0x13B0 JUMP JUMPDEST POP JUMP JUMPDEST PUSH2 0xCA8 PUSH2 0xDFC JUMP JUMPDEST PUSH20 0xFFFFFFFFFFFFFFFFFFFFFFFFFFFFFFFFFFFFFFFF AND PUSH2 0xCC6 PUSH2 0x791 JUMP JUMPDEST PUSH20 0xFFFFFFFFFFFFFFFFFFFFFFFFFFFFFFFFFFFFFFFF AND EQ PUSH2 0xD1C JUMPI PUSH1 0x40 MLOAD PUSH32 0x8C379A000000000000000000000000000000000000000000000000000000000 DUP2 MSTORE PUSH1 0x4 ADD PUSH2 0xD13 SWAP1 PUSH2 0x1B7A JUMP JUMPDEST PUSH1 0x40 MLOAD DUP1 SWAP2 SUB SWAP1 REVERT JUMPDEST PUSH1 0x0 PUSH1 0x7 PUSH1 0x0 DUP4 PUSH20 0xFFFFFFFFFFFFFFFFFFFFFFFFFFFFFFFFFFFFFFFF AND PUSH20 0xFFFFFFFFFFFFFFFFFFFFFFFFFFFFFFFFFFFFFFFF AND DUP2 MSTORE PUSH1 0x20 ADD SWAP1 DUP2 MSTORE PUSH1 0x20 ADD PUSH1 0x0 KECCAK256 PUSH1 0x0 PUSH2 0x100 EXP DUP2 SLOAD DUP2 PUSH1 0xFF MUL NOT AND SWAP1 DUP4 ISZERO ISZERO MUL OR SWAP1 SSTORE POP POP JUMP JUMPDEST PUSH1 0x0 ADDRESS PUSH20 0xFFFFFFFFFFFFFFFFFFFFFFFFFFFFFFFFFFFFFFFF AND PUSH4 0x18160DDD PUSH1 0x40 MLOAD DUP2 PUSH4 0xFFFFFFFF AND PUSH1 0xE0 SHL DUP2 MSTORE PUSH1 0x4 ADD PUSH1 0x20 PUSH1 0x40 MLOAD DUP1 DUP4 SUB DUP2 DUP7 DUP1 EXTCODESIZE ISZERO DUP1 ISZERO PUSH2 0xDBF JUMPI PUSH1 0x0 DUP1 REVERT JUMPDEST POP GAS STATICCALL ISZERO DUP1 ISZERO PUSH2 0xDD3 JUMPI RETURNDATASIZE PUSH1 0x0 DUP1 RETURNDATACOPY RETURNDATASIZE PUSH1 0x0 REVERT JUMPDEST POP POP POP POP PUSH1 0x40 MLOAD RETURNDATASIZE PUSH1 0x1F NOT PUSH1 0x1F DUP3 ADD AND DUP3 ADD DUP1 PUSH1 0x40 MSTORE POP DUP2 ADD SWAP1 PUSH2 0xDF7 SWAP2 SWAP1 PUSH2 0x1796 JUMP JUMPDEST SWAP1 POP SWAP1 JUMP JUMPDEST PUSH1 0x0 CALLER SWAP1 POP SWAP1 JUMP JUMPDEST PUSH1 0x0 PUSH20 0xFFFFFFFFFFFFFFFFFFFFFFFFFFFFFFFFFFFFFFFF AND DUP4 PUSH20 0xFFFFFFFFFFFFFFFFFFFFFFFFFFFFFFFFFFFFFFFF AND EQ ISZERO PUSH2 0xE74 JUMPI PUSH1 0x40 MLOAD PUSH32 0x8C379A000000000000000000000000000000000000000000000000000000000 DUP2 MSTORE PUSH1 0x4 ADD PUSH2 0xE6B SWAP1 PUSH2 0x1BDA JUMP JUMPDEST PUSH1 0x40 MLOAD DUP1 SWAP2 SUB SWAP1 REVERT JUMPDEST PUSH1 0x0 PUSH20 0xFFFFFFFFFFFFFFFFFFFFFFFFFFFFFFFFFFFFFFFF AND DUP3 PUSH20 0xFFFFFFFFFFFFFFFFFFFFFFFFFFFFFFFFFFFFFFFF AND EQ ISZERO PUSH2 0xEE4 JUMPI PUSH1 0x40 MLOAD PUSH32 0x8C379A000000000000000000000000000000000000000000000000000000000 DUP2 MSTORE PUSH1 0x4 ADD PUSH2 0xEDB SWAP1 PUSH2 0x1ADA JUMP JUMPDEST PUSH1 0x40 MLOAD DUP1 SWAP2 SUB SWAP1 REVERT JUMPDEST DUP1 PUSH1 0x1 PUSH1 0x0 DUP6 PUSH20 0xFFFFFFFFFFFFFFFFFFFFFFFFFFFFFFFFFFFFFFFF AND PUSH20 0xFFFFFFFFFFFFFFFFFFFFFFFFFFFFFFFFFFFFFFFF AND DUP2 MSTORE PUSH1 0x20 ADD SWAP1 DUP2 MSTORE PUSH1 0x20 ADD PUSH1 0x0 KECCAK256 PUSH1 0x0 DUP5 PUSH20 0xFFFFFFFFFFFFFFFFFFFFFFFFFFFFFFFFFFFFFFFF AND PUSH20 0xFFFFFFFFFFFFFFFFFFFFFFFFFFFFFFFFFFFFFFFF AND DUP2 MSTORE PUSH1 0x20 ADD SWAP1 DUP2 MSTORE PUSH1 0x20 ADD PUSH1 0x0 KECCAK256 DUP2 SWAP1 SSTORE POP DUP2 PUSH20 0xFFFFFFFFFFFFFFFFFFFFFFFFFFFFFFFFFFFFFFFF AND DUP4 PUSH20 0xFFFFFFFFFFFFFFFFFFFFFFFFFFFFFFFFFFFFFFFF AND PUSH32 0x8C5BE1E5EBEC7D5BD14F71427D1E84F3DD0314C0F7B2291E5B200AC8C7C3B925 DUP4 PUSH1 0x40 MLOAD PUSH2 0xFC2 SWAP2 SWAP1 PUSH2 0x1C3A JUMP JUMPDEST PUSH1 0x40 MLOAD DUP1 SWAP2 SUB SWAP1 LOG3 POP POP POP JUMP JUMPDEST PUSH1 0x0 PUSH20 0xFFFFFFFFFFFFFFFFFFFFFFFFFFFFFFFFFFFFFFFF AND DUP4 PUSH20 0xFFFFFFFFFFFFFFFFFFFFFFFFFFFFFFFFFFFFFFFF AND EQ ISZERO PUSH2 0x103F JUMPI PUSH1 0x40 MLOAD PUSH32 0x8C379A000000000000000000000000000000000000000000000000000000000 DUP2 MSTORE PUSH1 0x4 ADD PUSH2 0x1036 SWAP1 PUSH2 0x1BBA JUMP JUMPDEST PUSH1 0x40 MLOAD DUP1 SWAP2 SUB SWAP1 REVERT JUMPDEST PUSH1 0x0 PUSH20 0xFFFFFFFFFFFFFFFFFFFFFFFFFFFFFFFFFFFFFFFF AND DUP3 PUSH20 0xFFFFFFFFFFFFFFFFFFFFFFFFFFFFFFFFFFFFFFFF AND EQ ISZERO PUSH2 0x10AF JUMPI PUSH1 0x40 MLOAD PUSH32 0x8C379A000000000000000000000000000000000000000000000000000000000 DUP2 MSTORE PUSH1 0x4 ADD PUSH2 0x10A6 SWAP1 PUSH2 0x1A7A JUMP JUMPDEST PUSH1 0x40 MLOAD DUP1 SWAP2 SUB SWAP1 REVERT JUMPDEST PUSH2 0x10BA DUP4 DUP4 DUP4 PUSH2 0x164D JUMP JUMPDEST PUSH1 0x0 DUP1 PUSH1 0x0 DUP6 PUSH20 0xFFFFFFFFFFFFFFFFFFFFFFFFFFFFFFFFFFFFFFFF AND PUSH20 0xFFFFFFFFFFFFFFFFFFFFFFFFFFFFFFFFFFFFFFFF AND DUP2 MSTORE PUSH1 0x20 ADD SWAP1 DUP2 MSTORE PUSH1 0x20 ADD PUSH1 0x0 KECCAK256 SLOAD SWAP1 POP DUP2 DUP2 LT ISZERO PUSH2 0x1140 JUMPI PUSH1 0x40 MLOAD PUSH32 0x8C379A000000000000000000000000000000000000000000000000000000000 DUP2 MSTORE PUSH1 0x4 ADD PUSH2 0x1137 SWAP1 PUSH2 0x1AFA JUMP JUMPDEST PUSH1 0x40 MLOAD DUP1 SWAP2 SUB SWAP1 REVERT JUMPDEST DUP2 DUP2 SUB PUSH1 0x0 DUP1 DUP7 PUSH20 0xFFFFFFFFFFFFFFFFFFFFFFFFFFFFFFFFFFFFFFFF AND PUSH20 0xFFFFFFFFFFFFFFFFFFFFFFFFFFFFFFFFFFFFFFFF AND DUP2 MSTORE PUSH1 0x20 ADD SWAP1 DUP2 MSTORE PUSH1 0x20 ADD PUSH1 0x0 KECCAK256 DUP2 SWAP1 SSTORE POP DUP2 PUSH1 0x0 DUP1 DUP6 PUSH20 0xFFFFFFFFFFFFFFFFFFFFFFFFFFFFFFFFFFFFFFFF AND PUSH20 0xFFFFFFFFFFFFFFFFFFFFFFFFFFFFFFFFFFFFFFFF AND DUP2 MSTORE PUSH1 0x20 ADD SWAP1 DUP2 MSTORE PUSH1 0x20 ADD PUSH1 0x0 KECCAK256 PUSH1 0x0 DUP3 DUP3 SLOAD PUSH2 0x11D3 SWAP2 SWAP1 PUSH2 0x1C8C JUMP JUMPDEST SWAP3 POP POP DUP2 SWAP1 SSTORE POP DUP3 PUSH20 0xFFFFFFFFFFFFFFFFFFFFFFFFFFFFFFFFFFFFFFFF AND DUP5 PUSH20 0xFFFFFFFFFFFFFFFFFFFFFFFFFFFFFFFFFFFFFFFF AND PUSH32 0xDDF252AD1BE2C89B69C2B068FC378DAA952BA7F163C4A11628F55A4DF523B3EF DUP5 PUSH1 0x40 MLOAD PUSH2 0x1237 SWAP2 SWAP1 PUSH2 0x1C3A JUMP JUMPDEST PUSH1 0x40 MLOAD DUP1 SWAP2 SUB SWAP1 LOG3 PUSH2 0x124A DUP5 DUP5 DUP5 PUSH2 0x1652 JUMP JUMPDEST POP POP POP POP JUMP JUMPDEST PUSH1 0x0 PUSH20 0xFFFFFFFFFFFFFFFFFFFFFFFFFFFFFFFFFFFFFFFF AND DUP3 PUSH20 0xFFFFFFFFFFFFFFFFFFFFFFFFFFFFFFFFFFFFFFFF AND EQ ISZERO PUSH2 0x12C0 JUMPI PUSH1 0x40 MLOAD PUSH32 0x8C379A000000000000000000000000000000000000000000000000000000000 DUP2 MSTORE PUSH1 0x4 ADD PUSH2 0x12B7 SWAP1 PUSH2 0x1C1A JUMP JUMPDEST PUSH1 0x40 MLOAD DUP1 SWAP2 SUB SWAP1 REVERT JUMPDEST PUSH2 0x12CC PUSH1 0x0 DUP4 DUP4 PUSH2 0x164D JUMP JUMPDEST DUP1 PUSH1 0x2 PUSH1 0x0 DUP3 DUP3 SLOAD PUSH2 0x12DE SWAP2 SWAP1 PUSH2 0x1C8C JUMP JUMPDEST SWAP3 POP POP DUP2 SWAP1 SSTORE POP DUP1 PUSH1 0x0 DUP1 DUP5 PUSH20 0xFFFFFFFFFFFFFFFFFFFFFFFFFFFFFFFFFFFFFFFF AND PUSH20 0xFFFFFFFFFFFFFFFFFFFFFFFFFFFFFFFFFFFFFFFF AND DUP2 MSTORE PUSH1 0x20 ADD SWAP1 DUP2 MSTORE PUSH1 0x20 ADD PUSH1 0x0 KECCAK256 PUSH1 0x0 DUP3 DUP3 SLOAD PUSH2 0x1333 SWAP2 SWAP1 PUSH2 0x1C8C JUMP JUMPDEST SWAP3 POP POP DUP2 SWAP1 SSTORE POP DUP2 PUSH20 0xFFFFFFFFFFFFFFFFFFFFFFFFFFFFFFFFFFFFFFFF AND PUSH1 0x0 PUSH20 0xFFFFFFFFFFFFFFFFFFFFFFFFFFFFFFFFFFFFFFFF AND PUSH32 0xDDF252AD1BE2C89B69C2B068FC378DAA952BA7F163C4A11628F55A4DF523B3EF DUP4 PUSH1 0x40 MLOAD PUSH2 0x1398 SWAP2 SWAP1 PUSH2 0x1C3A JUMP JUMPDEST PUSH1 0x40 MLOAD DUP1 SWAP2 SUB SWAP1 LOG3 PUSH2 0x13AC PUSH1 0x0 DUP4 DUP4 PUSH2 0x1652 JUMP JUMPDEST POP POP JUMP JUMPDEST PUSH1 0x0 PUSH1 0x6 PUSH1 0x0 SWAP1 SLOAD SWAP1 PUSH2 0x100 EXP SWAP1 DIV PUSH20 0xFFFFFFFFFFFFFFFFFFFFFFFFFFFFFFFFFFFFFFFF AND SWAP1 POP DUP2 PUSH1 0x6 PUSH1 0x0 PUSH2 0x100 EXP DUP2 SLOAD DUP2 PUSH20 0xFFFFFFFFFFFFFFFFFFFFFFFFFFFFFFFFFFFFFFFF MUL NOT AND SWAP1 DUP4 PUSH20 0xFFFFFFFFFFFFFFFFFFFFFFFFFFFFFFFFFFFFFFFF AND MUL OR SWAP1 SSTORE POP DUP2 PUSH20 0xFFFFFFFFFFFFFFFFFFFFFFFFFFFFFFFFFFFFFFFF AND DUP2 PUSH20 0xFFFFFFFFFFFFFFFFFFFFFFFFFFFFFFFFFFFFFFFF AND PUSH32 0x8BE0079C531659141344CD1FD0A4F28419497F9722A3DAAFE3B4186F6B6457E0 PUSH1 0x40 MLOAD PUSH1 0x40 MLOAD DUP1 SWAP2 SUB SWAP1 LOG3 POP POP JUMP JUMPDEST PUSH1 0x0 PUSH20 0xFFFFFFFFFFFFFFFFFFFFFFFFFFFFFFFFFFFFFFFF AND DUP3 PUSH20 0xFFFFFFFFFFFFFFFFFFFFFFFFFFFFFFFFFFFFFFFF AND EQ ISZERO PUSH2 0x14E6 JUMPI PUSH1 0x40 MLOAD PUSH32 0x8C379A000000000000000000000000000000000000000000000000000000000 DUP2 MSTORE PUSH1 0x4 ADD PUSH2 0x14DD SWAP1 PUSH2 0x1B9A JUMP JUMPDEST PUSH1 0x40 MLOAD DUP1 SWAP2 SUB SWAP1 REVERT JUMPDEST PUSH2 0x14F2 DUP3 PUSH1 0x0 DUP4 PUSH2 0x164D JUMP JUMPDEST PUSH1 0x0 DUP1 PUSH1 0x0 DUP5 PUSH20 0xFFFFFFFFFFFFFFFFFFFFFFFFFFFFFFFFFFFFFFFF AND PUSH20 0xFFFFFFFFFFFFFFFFFFFFFFFFFFFFFFFFFFFFFFFF AND DUP2 MSTORE PUSH1 0x20 ADD SWAP1 DUP2 MSTORE PUSH1 0x20 ADD PUSH1 0x0 KECCAK256 SLOAD SWAP1 POP DUP2 DUP2 LT ISZERO PUSH2 0x1578 JUMPI PUSH1 0x40 MLOAD PUSH32 0x8C379A000000000000000000000000000000000000000000000000000000000 DUP2 MSTORE PUSH1 0x4 ADD PUSH2 0x156F SWAP1 PUSH2 0x1A9A JUMP JUMPDEST PUSH1 0x40 MLOAD DUP1 SWAP2 SUB SWAP1 REVERT JUMPDEST DUP2 DUP2 SUB PUSH1 0x0 DUP1 DUP6 PUSH20 0xFFFFFFFFFFFFFFFFFFFFFFFFFFFFFFFFFFFFFFFF AND PUSH20 0xFFFFFFFFFFFFFFFFFFFFFFFFFFFFFFFFFFFFFFFF AND DUP2 MSTORE PUSH1 0x20 ADD SWAP1 DUP2 MSTORE PUSH1 0x20 ADD PUSH1 0x0 KECCAK256 DUP2 SWAP1 SSTORE POP DUP2 PUSH1 0x2 PUSH1 0x0 DUP3 DUP3 SLOAD PUSH2 0x15CF SWAP2 SWAP1 PUSH2 0x1CE2 JUMP JUMPDEST SWAP3 POP POP DUP2 SWAP1 SSTORE POP PUSH1 0x0 PUSH20 0xFFFFFFFFFFFFFFFFFFFFFFFFFFFFFFFFFFFFFFFF AND DUP4 PUSH20 0xFFFFFFFFFFFFFFFFFFFFFFFFFFFFFFFFFFFFFFFF AND PUSH32 0xDDF252AD1BE2C89B69C2B068FC378DAA952BA7F163C4A11628F55A4DF523B3EF DUP5 PUSH1 0x40 MLOAD PUSH2 0x1634 SWAP2 SWAP1 PUSH2 0x1C3A JUMP JUMPDEST PUSH1 0x40 MLOAD DUP1 SWAP2 SUB SWAP1 LOG3 PUSH2 0x1648 DUP4 PUSH1 0x0 DUP5 PUSH2 0x1652 JUMP JUMPDEST POP POP POP JUMP JUMPDEST POP POP POP JUMP JUMPDEST POP POP POP JUMP JUMPDEST PUSH1 0x0 DUP2 CALLDATALOAD SWAP1 POP PUSH2 0x1666 DUP2 PUSH2 0x21FE JUMP JUMPDEST SWAP3 SWAP2 POP POP JUMP JUMPDEST PUSH1 0x0 DUP2 CALLDATALOAD SWAP1 POP PUSH2 0x167B DUP2 PUSH2 0x2215 JUMP JUMPDEST SWAP3 SWAP2 POP POP JUMP JUMPDEST PUSH1 0x0 DUP2 MLOAD SWAP1 POP PUSH2 0x1690 DUP2 PUSH2 0x2215 JUMP JUMPDEST SWAP3 SWAP2 POP POP JUMP JUMPDEST PUSH1 0x0 PUSH1 0x20 DUP3 DUP5 SUB SLT ISZERO PUSH2 0x16AC JUMPI PUSH2 0x16AB PUSH2 0x1E2E JUMP JUMPDEST JUMPDEST PUSH1 0x0 PUSH2 0x16BA DUP5 DUP3 DUP6 ADD PUSH2 0x1657 JUMP JUMPDEST SWAP2 POP POP SWAP3 SWAP2 POP POP JUMP JUMPDEST PUSH1 0x0 DUP1 PUSH1 0x40 DUP4 DUP6 SUB SLT ISZERO PUSH2 0x16DA JUMPI PUSH2 0x16D9 PUSH2 0x1E2E JUMP JUMPDEST JUMPDEST PUSH1 0x0 PUSH2 0x16E8 DUP6 DUP3 DUP7 ADD PUSH2 0x1657 JUMP JUMPDEST SWAP3 POP POP PUSH1 0x20 PUSH2 0x16F9 DUP6 DUP3 DUP7 ADD PUSH2 0x1657 JUMP JUMPDEST SWAP2 POP POP SWAP3 POP SWAP3 SWAP1 POP JUMP JUMPDEST PUSH1 0x0 DUP1 PUSH1 0x0 PUSH1 0x60 DUP5 DUP7 SUB SLT ISZERO PUSH2 0x171C JUMPI PUSH2 0x171B PUSH2 0x1E2E JUMP JUMPDEST JUMPDEST PUSH1 0x0 PUSH2 0x172A DUP7 DUP3 DUP8 ADD PUSH2 0x1657 JUMP JUMPDEST SWAP4 POP POP PUSH1 0x20 PUSH2 0x173B DUP7 DUP3 DUP8 ADD PUSH2 0x1657 JUMP JUMPDEST SWAP3 POP POP PUSH1 0x40 PUSH2 0x174C DUP7 DUP3 DUP8 ADD PUSH2 0x166C JUMP JUMPDEST SWAP2 POP POP SWAP3 POP SWAP3 POP SWAP3 JUMP JUMPDEST PUSH1 0x0 DUP1 PUSH1 0x40 DUP4 DUP6 SUB SLT ISZERO PUSH2 0x176D JUMPI PUSH2 0x176C PUSH2 0x1E2E JUMP JUMPDEST JUMPDEST PUSH1 0x0 PUSH2 0x177B DUP6 DUP3 DUP7 ADD PUSH2 0x1657 JUMP JUMPDEST SWAP3 POP POP PUSH1 0x20 PUSH2 0x178C DUP6 DUP3 DUP7 ADD PUSH2 0x166C JUMP JUMPDEST SWAP2 POP POP SWAP3 POP SWAP3 SWAP1 POP JUMP JUMPDEST PUSH1 0x0 PUSH1 0x20 DUP3 DUP5 SUB SLT ISZERO PUSH2 0x17AC JUMPI PUSH2 0x17AB PUSH2 0x1E2E JUMP JUMPDEST JUMPDEST PUSH1 0x0 PUSH2 0x17BA DUP5 DUP3 DUP6 ADD PUSH2 0x1681 JUMP JUMPDEST SWAP2 POP POP SWAP3 SWAP2 POP POP JUMP JUMPDEST PUSH2 0x17CC DUP2 PUSH2 0x1D16 JUMP JUMPDEST DUP3 MSTORE POP POP JUMP JUMPDEST PUSH2 0x17DB DUP2 PUSH2 0x1D28 JUMP JUMPDEST DUP3 MSTORE POP POP JUMP JUMPDEST PUSH1 0x0 PUSH2 0x17EC DUP3 PUSH2 0x1C70 JUMP JUMPDEST PUSH2 0x17F6 DUP2 DUP6 PUSH2 0x1C7B JUMP JUMPDEST SWAP4 POP PUSH2 0x1806 DUP2 DUP6 PUSH1 0x20 DUP7 ADD PUSH2 0x1D6B JUMP JUMPDEST PUSH2 0x180F DUP2 PUSH2 0x1E33 JUMP JUMPDEST DUP5 ADD SWAP2 POP POP SWAP3 SWAP2 POP POP JUMP JUMPDEST PUSH1 0x0 PUSH2 0x1827 PUSH1 0x23 DUP4 PUSH2 0x1C7B JUMP JUMPDEST SWAP2 POP PUSH2 0x1832 DUP3 PUSH2 0x1E44 JUMP JUMPDEST PUSH1 0x40 DUP3 ADD SWAP1 POP SWAP2 SWAP1 POP JUMP JUMPDEST PUSH1 0x0 PUSH2 0x184A PUSH1 0x22 DUP4 PUSH2 0x1C7B JUMP JUMPDEST SWAP2 POP PUSH2 0x1855 DUP3 PUSH2 0x1E93 JUMP JUMPDEST PUSH1 0x40 DUP3 ADD SWAP1 POP SWAP2 SWAP1 POP JUMP JUMPDEST PUSH1 0x0 PUSH2 0x186D PUSH1 0x26 DUP4 PUSH2 0x1C7B JUMP JUMPDEST SWAP2 POP PUSH2 0x1878 DUP3 PUSH2 0x1EE2 JUMP JUMPDEST PUSH1 0x40 DUP3 ADD SWAP1 POP SWAP2 SWAP1 POP JUMP JUMPDEST PUSH1 0x0 PUSH2 0x1890 PUSH1 0x22 DUP4 PUSH2 0x1C7B JUMP JUMPDEST SWAP2 POP PUSH2 0x189B DUP3 PUSH2 0x1F31 JUMP JUMPDEST PUSH1 0x40 DUP3 ADD SWAP1 POP SWAP2 SWAP1 POP JUMP JUMPDEST PUSH1 0x0 PUSH2 0x18B3 PUSH1 0x26 DUP4 PUSH2 0x1C7B JUMP JUMPDEST SWAP2 POP PUSH2 0x18BE DUP3 PUSH2 0x1F80 JUMP JUMPDEST PUSH1 0x40 DUP3 ADD SWAP1 POP SWAP2 SWAP1 POP JUMP JUMPDEST PUSH1 0x0 PUSH2 0x18D6 PUSH1 0x19 DUP4 PUSH2 0x1C7B JUMP JUMPDEST SWAP2 POP PUSH2 0x18E1 DUP3 PUSH2 0x1FCF JUMP JUMPDEST PUSH1 0x20 DUP3 ADD SWAP1 POP SWAP2 SWAP1 POP JUMP JUMPDEST PUSH1 0x0 PUSH2 0x18F9 PUSH1 0x19 DUP4 PUSH2 0x1C7B JUMP JUMPDEST SWAP2 POP PUSH2 0x1904 DUP3 PUSH2 0x1FF8 JUMP JUMPDEST PUSH1 0x20 DUP3 ADD SWAP1 POP SWAP2 SWAP1 POP JUMP JUMPDEST PUSH1 0x0 PUSH2 0x191C PUSH1 0x28 DUP4 PUSH2 0x1C7B JUMP JUMPDEST SWAP2 POP PUSH2 0x1927 DUP3 PUSH2 0x2021 JUMP JUMPDEST PUSH1 0x40 DUP3 ADD SWAP1 POP SWAP2 SWAP1 POP JUMP JUMPDEST PUSH1 0x0 PUSH2 0x193F PUSH1 0x20 DUP4 PUSH2 0x1C7B JUMP JUMPDEST SWAP2 POP PUSH2 0x194A DUP3 PUSH2 0x2070 JUMP JUMPDEST PUSH1 0x20 DUP3 ADD SWAP1 POP SWAP2 SWAP1 POP JUMP JUMPDEST PUSH1 0x0 PUSH2 0x1962 PUSH1 0x21 DUP4 PUSH2 0x1C7B JUMP JUMPDEST SWAP2 POP PUSH2 0x196D DUP3 PUSH2 0x2099 JUMP JUMPDEST PUSH1 0x40 DUP3 ADD SWAP1 POP SWAP2 SWAP1 POP JUMP JUMPDEST PUSH1 0x0 PUSH2 0x1985 PUSH1 0x25 DUP4 PUSH2 0x1C7B JUMP JUMPDEST SWAP2 POP PUSH2 0x1990 DUP3 PUSH2 0x20E8 JUMP JUMPDEST PUSH1 0x40 DUP3 ADD SWAP1 POP SWAP2 SWAP1 POP JUMP JUMPDEST PUSH1 0x0 PUSH2 0x19A8 PUSH1 0x24 DUP4 PUSH2 0x1C7B JUMP JUMPDEST SWAP2 POP PUSH2 0x19B3 DUP3 PUSH2 0x2137 JUMP JUMPDEST PUSH1 0x40 DUP3 ADD SWAP1 POP SWAP2 SWAP1 POP JUMP JUMPDEST PUSH1 0x0 PUSH2 0x19CB PUSH1 0x25 DUP4 PUSH2 0x1C7B JUMP JUMPDEST SWAP2 POP PUSH2 0x19D6 DUP3 PUSH2 0x2186 JUMP JUMPDEST PUSH1 0x40 DUP3 ADD SWAP1 POP SWAP2 SWAP1 POP JUMP JUMPDEST PUSH1 0x0 PUSH2 0x19EE PUSH1 0x1F DUP4 PUSH2 0x1C7B JUMP JUMPDEST SWAP2 POP PUSH2 0x19F9 DUP3 PUSH2 0x21D5 JUMP JUMPDEST PUSH1 0x20 DUP3 ADD SWAP1 POP SWAP2 SWAP1 POP JUMP JUMPDEST PUSH2 0x1A0D DUP2 PUSH2 0x1D54 JUMP JUMPDEST DUP3 MSTORE POP POP JUMP JUMPDEST PUSH2 0x1A1C DUP2 PUSH2 0x1D5E JUMP JUMPDEST DUP3 MSTORE POP POP JUMP JUMPDEST PUSH1 0x0 PUSH1 0x20 DUP3 ADD SWAP1 POP PUSH2 0x1A37 PUSH1 0x0 DUP4 ADD DUP5 PUSH2 0x17C3 JUMP JUMPDEST SWAP3 SWAP2 POP POP JUMP JUMPDEST PUSH1 0x0 PUSH1 0x20 DUP3 ADD SWAP1 POP PUSH2 0x1A52 PUSH1 0x0 DUP4 ADD DUP5 PUSH2 0x17D2 JUMP JUMPDEST SWAP3 SWAP2 POP POP JUMP JUMPDEST PUSH1 0x0 PUSH1 0x20 DUP3 ADD SWAP1 POP DUP2 DUP2 SUB PUSH1 0x0 DUP4 ADD MSTORE PUSH2 0x1A72 DUP2 DUP5 PUSH2 0x17E1 JUMP JUMPDEST SWAP1 POP SWAP3 SWAP2 POP POP JUMP JUMPDEST PUSH1 0x0 PUSH1 0x20 DUP3 ADD SWAP1 POP DUP2 DUP2 SUB PUSH1 0x0 DUP4 ADD MSTORE PUSH2 0x1A93 DUP2 PUSH2 0x181A JUMP JUMPDEST SWAP1 POP SWAP2 SWAP1 POP JUMP JUMPDEST PUSH1 0x0 PUSH1 0x20 DUP3 ADD SWAP1 POP DUP2 DUP2 SUB PUSH1 0x0 DUP4 ADD MSTORE PUSH2 0x1AB3 DUP2 PUSH2 0x183D JUMP JUMPDEST SWAP1 POP SWAP2 SWAP1 POP JUMP JUMPDEST PUSH1 0x0 PUSH1 0x20 DUP3 ADD SWAP1 POP DUP2 DUP2 SUB PUSH1 0x0 DUP4 ADD MSTORE PUSH2 0x1AD3 DUP2 PUSH2 0x1860 JUMP JUMPDEST SWAP1 POP SWAP2 SWAP1 POP JUMP JUMPDEST PUSH1 0x0 PUSH1 0x20 DUP3 ADD SWAP1 POP DUP2 DUP2 SUB PUSH1 0x0 DUP4 ADD MSTORE PUSH2 0x1AF3 DUP2 PUSH2 0x1883 JUMP JUMPDEST SWAP1 POP SWAP2 SWAP1 POP JUMP JUMPDEST PUSH1 0x0 PUSH1 0x20 DUP3 ADD SWAP1 POP DUP2 DUP2 SUB PUSH1 0x0 DUP4 ADD MSTORE PUSH2 0x1B13 DUP2 PUSH2 0x18A6 JUMP JUMPDEST SWAP1 POP SWAP2 SWAP1 POP JUMP JUMPDEST PUSH1 0x0 PUSH1 0x20 DUP3 ADD SWAP1 POP DUP2 DUP2 SUB PUSH1 0x0 DUP4 ADD MSTORE PUSH2 0x1B33 DUP2 PUSH2 0x18C9 JUMP JUMPDEST SWAP1 POP SWAP2 SWAP1 POP JUMP JUMPDEST PUSH1 0x0 PUSH1 0x20 DUP3 ADD SWAP1 POP DUP2 DUP2 SUB PUSH1 0x0 DUP4 ADD MSTORE PUSH2 0x1B53 DUP2 PUSH2 0x18EC JUMP JUMPDEST SWAP1 POP SWAP2 SWAP1 POP JUMP JUMPDEST PUSH1 0x0 PUSH1 0x20 DUP3 ADD SWAP1 POP DUP2 DUP2 SUB PUSH1 0x0 DUP4 ADD MSTORE PUSH2 0x1B73 DUP2 PUSH2 0x190F JUMP JUMPDEST SWAP1 POP SWAP2 SWAP1 POP JUMP JUMPDEST PUSH1 0x0 PUSH1 0x20 DUP3 ADD SWAP1 POP DUP2 DUP2 SUB PUSH1 0x0 DUP4 ADD MSTORE PUSH2 0x1B93 DUP2 PUSH2 0x1932 JUMP JUMPDEST SWAP1 POP SWAP2 SWAP1 POP JUMP JUMPDEST PUSH1 0x0 PUSH1 0x20 DUP3 ADD SWAP1 POP DUP2 DUP2 SUB PUSH1 0x0 DUP4 ADD MSTORE PUSH2 0x1BB3 DUP2 PUSH2 0x1955 JUMP JUMPDEST SWAP1 POP SWAP2 SWAP1 POP JUMP JUMPDEST PUSH1 0x0 PUSH1 0x20 DUP3 ADD SWAP1 POP DUP2 DUP2 SUB PUSH1 0x0 DUP4 ADD MSTORE PUSH2 0x1BD3 DUP2 PUSH2 0x1978 JUMP JUMPDEST SWAP1 POP SWAP2 SWAP1 POP JUMP JUMPDEST PUSH1 0x0 PUSH1 0x20 DUP3 ADD SWAP1 POP DUP2 DUP2 SUB PUSH1 0x0 DUP4 ADD MSTORE PUSH2 0x1BF3 DUP2 PUSH2 0x199B JUMP JUMPDEST SWAP1 POP SWAP2 SWAP1 POP JUMP JUMPDEST PUSH1 0x0 PUSH1 0x20 DUP3 ADD SWAP1 POP DUP2 DUP2 SUB PUSH1 0x0 DUP4 ADD MSTORE PUSH2 0x1C13 DUP2 PUSH2 0x19BE JUMP JUMPDEST SWAP1 POP SWAP2 SWAP1 POP JUMP JUMPDEST PUSH1 0x0 PUSH1 0x20 DUP3 ADD SWAP1 POP DUP2 DUP2 SUB PUSH1 0x0 DUP4 ADD MSTORE PUSH2 0x1C33 DUP2 PUSH2 0x19E1 JUMP JUMPDEST SWAP1 POP SWAP2 SWAP1 POP JUMP JUMPDEST PUSH1 0x0 PUSH1 0x20 DUP3 ADD SWAP1 POP PUSH2 0x1C4F PUSH1 0x0 DUP4 ADD DUP5 PUSH2 0x1A04 JUMP JUMPDEST SWAP3 SWAP2 POP POP JUMP JUMPDEST PUSH1 0x0 PUSH1 0x20 DUP3 ADD SWAP1 POP PUSH2 0x1C6A PUSH1 0x0 DUP4 ADD DUP5 PUSH2 0x1A13 JUMP JUMPDEST SWAP3 SWAP2 POP POP JUMP JUMPDEST PUSH1 0x0 DUP2 MLOAD SWAP1 POP SWAP2 SWAP1 POP JUMP JUMPDEST PUSH1 0x0 DUP3 DUP3 MSTORE PUSH1 0x20 DUP3 ADD SWAP1 POP SWAP3 SWAP2 POP POP JUMP JUMPDEST PUSH1 0x0 PUSH2 0x1C97 DUP3 PUSH2 0x1D54 JUMP JUMPDEST SWAP2 POP PUSH2 0x1CA2 DUP4 PUSH2 0x1D54 JUMP JUMPDEST SWAP3 POP DUP3 PUSH32 0xFFFFFFFFFFFFFFFFFFFFFFFFFFFFFFFFFFFFFFFFFFFFFFFFFFFFFFFFFFFFFFFF SUB DUP3 GT ISZERO PUSH2 0x1CD7 JUMPI PUSH2 0x1CD6 PUSH2 0x1DD0 JUMP JUMPDEST JUMPDEST DUP3 DUP3 ADD SWAP1 POP SWAP3 SWAP2 POP POP JUMP JUMPDEST PUSH1 0x0 PUSH2 0x1CED DUP3 PUSH2 0x1D54 JUMP JUMPDEST SWAP2 POP PUSH2 0x1CF8 DUP4 PUSH2 0x1D54 JUMP JUMPDEST SWAP3 POP DUP3 DUP3 LT ISZERO PUSH2 0x1D0B JUMPI PUSH2 0x1D0A PUSH2 0x1DD0 JUMP JUMPDEST JUMPDEST DUP3 DUP3 SUB SWAP1 POP SWAP3 SWAP2 POP POP JUMP JUMPDEST PUSH1 0x0 PUSH2 0x1D21 DUP3 PUSH2 0x1D34 JUMP JUMPDEST SWAP1 POP SWAP2 SWAP1 POP JUMP JUMPDEST PUSH1 0x0 DUP2 ISZERO ISZERO SWAP1 POP SWAP2 SWAP1 POP JUMP JUMPDEST PUSH1 0x0 PUSH20 0xFFFFFFFFFFFFFFFFFFFFFFFFFFFFFFFFFFFFFFFF DUP3 AND SWAP1 POP SWAP2 SWAP1 POP JUMP JUMPDEST PUSH1 0x0 DUP2 SWAP1 POP SWAP2 SWAP1 POP JUMP JUMPDEST PUSH1 0x0 PUSH1 0xFF DUP3 AND SWAP1 POP SWAP2 SWAP1 POP JUMP JUMPDEST PUSH1 0x0 JUMPDEST DUP4 DUP2 LT ISZERO PUSH2 0x1D89 JUMPI DUP1 DUP3 ADD MLOAD DUP2 DUP5 ADD MSTORE PUSH1 0x20 DUP2 ADD SWAP1 POP PUSH2 0x1D6E JUMP JUMPDEST DUP4 DUP2 GT ISZERO PUSH2 0x1D98 JUMPI PUSH1 0x0 DUP5 DUP5 ADD MSTORE JUMPDEST POP POP POP POP JUMP JUMPDEST PUSH1 0x0 PUSH1 0x2 DUP3 DIV SWAP1 POP PUSH1 0x1 DUP3 AND DUP1 PUSH2 0x1DB6 JUMPI PUSH1 0x7F DUP3 AND SWAP2 POP JUMPDEST PUSH1 0x20 DUP3 LT DUP2 EQ ISZERO PUSH2 0x1DCA JUMPI PUSH2 0x1DC9 PUSH2 0x1DFF JUMP JUMPDEST JUMPDEST POP SWAP2 SWAP1 POP JUMP JUMPDEST PUSH32 0x4E487B7100000000000000000000000000000000000000000000000000000000 PUSH1 0x0 MSTORE PUSH1 0x11 PUSH1 0x4 MSTORE PUSH1 0x24 PUSH1 0x0 REVERT JUMPDEST PUSH32 0x4E487B7100000000000000000000000000000000000000000000000000000000 PUSH1 0x0 MSTORE PUSH1 0x22 PUSH1 0x4 MSTORE PUSH1 0x24 PUSH1 0x0 REVERT JUMPDEST PUSH1 0x0 DUP1 REVERT JUMPDEST PUSH1 0x0 PUSH1 0x1F NOT PUSH1 0x1F DUP4 ADD AND SWAP1 POP SWAP2 SWAP1 POP JUMP JUMPDEST PUSH32 0x45524332303A207472616E7366657220746F20746865207A65726F2061646472 PUSH1 0x0 DUP3 ADD MSTORE PUSH32 0x6573730000000000000000000000000000000000000000000000000000000000 PUSH1 0x20 DUP3 ADD MSTORE POP JUMP JUMPDEST PUSH32 0x45524332303A206275726E20616D6F756E7420657863656564732062616C616E PUSH1 0x0 DUP3 ADD MSTORE PUSH32 0x6365000000000000000000000000000000000000000000000000000000000000 PUSH1 0x20 DUP3 ADD MSTORE POP JUMP JUMPDEST PUSH32 0x4F776E61626C653A206E6577206F776E657220697320746865207A65726F2061 PUSH1 0x0 DUP3 ADD MSTORE PUSH32 0x6464726573730000000000000000000000000000000000000000000000000000 PUSH1 0x20 DUP3 ADD MSTORE POP JUMP JUMPDEST PUSH32 0x45524332303A20617070726F766520746F20746865207A65726F206164647265 PUSH1 0x0 DUP3 ADD MSTORE PUSH32 0x7373000000000000000000000000000000000000000000000000000000000000 PUSH1 0x20 DUP3 ADD MSTORE POP JUMP JUMPDEST PUSH32 0x45524332303A207472616E7366657220616D6F756E7420657863656564732062 PUSH1 0x0 DUP3 ADD MSTORE PUSH32 0x616C616E63650000000000000000000000000000000000000000000000000000 PUSH1 0x20 DUP3 ADD MSTORE POP JUMP JUMPDEST PUSH32 0x4F6E6C7920636F6E74726F6C6C6572732063616E206D696E7400000000000000 PUSH1 0x0 DUP3 ADD MSTORE POP JUMP JUMPDEST PUSH32 0x4F6E6C7920636F6E74726F6C6C6572732063616E206275726E00000000000000 PUSH1 0x0 DUP3 ADD MSTORE POP JUMP JUMPDEST PUSH32 0x45524332303A207472616E7366657220616D6F756E7420657863656564732061 PUSH1 0x0 DUP3 ADD MSTORE PUSH32 0x6C6C6F77616E6365000000000000000000000000000000000000000000000000 PUSH1 0x20 DUP3 ADD MSTORE POP JUMP JUMPDEST PUSH32 0x4F776E61626C653A2063616C6C6572206973206E6F7420746865206F776E6572 PUSH1 0x0 DUP3 ADD MSTORE POP JUMP JUMPDEST PUSH32 0x45524332303A206275726E2066726F6D20746865207A65726F20616464726573 PUSH1 0x0 DUP3 ADD MSTORE PUSH32 0x7300000000000000000000000000000000000000000000000000000000000000 PUSH1 0x20 DUP3 ADD MSTORE POP JUMP JUMPDEST PUSH32 0x45524332303A207472616E736665722066726F6D20746865207A65726F206164 PUSH1 0x0 DUP3 ADD MSTORE PUSH32 0x6472657373000000000000000000000000000000000000000000000000000000 PUSH1 0x20 DUP3 ADD MSTORE POP JUMP JUMPDEST PUSH32 0x45524332303A20617070726F76652066726F6D20746865207A65726F20616464 PUSH1 0x0 DUP3 ADD MSTORE PUSH32 0x7265737300000000000000000000000000000000000000000000000000000000 PUSH1 0x20 DUP3 ADD MSTORE POP JUMP JUMPDEST PUSH32 0x45524332303A2064656372656173656420616C6C6F77616E63652062656C6F77 PUSH1 0x0 DUP3 ADD MSTORE PUSH32 0x207A65726F000000000000000000000000000000000000000000000000000000 PUSH1 0x20 DUP3 ADD MSTORE POP JUMP JUMPDEST PUSH32 0x45524332303A206D696E7420746F20746865207A65726F206164647265737300 PUSH1 0x0 DUP3 ADD MSTORE POP JUMP JUMPDEST PUSH2 0x2207 DUP2 PUSH2 0x1D16 JUMP JUMPDEST DUP2 EQ PUSH2 0x2212 JUMPI PUSH1 0x0 DUP1 REVERT JUMPDEST POP JUMP JUMPDEST PUSH2 0x221E DUP2 PUSH2 0x1D54 JUMP JUMPDEST DUP2 EQ PUSH2 0x2229 JUMPI PUSH1 0x0 DUP1 REVERT JUMPDEST POP JUMP INVALID LOG2 PUSH5 0x6970667358 0x22 SLT KECCAK256 0xEF 0xDD SUB 0xEC 0x2C SWAP8 PUSH18 0xB1672BEF7986B9BDE5296C985064776252EA 0xD0 0xB3 0x5D SHL 0xDF 0xB2 MSTORE8 PUSH5 0x736F6C6343 STOP ADDMOD SMOD STOP CALLER "
				},
				"gasEstimates": {
					"creation": {
						"codeDepositCost": "1760400",
						"executionCost": "infinite",
						"totalCost": "infinite"
					},
					"external": {
						"addController(address)": "27163",
						"allowance(address,address)": "infinite",
						"approve(address,uint256)": "infinite",
						"balanceOf(address)": "2930",
						"burn(address,uint256)": "infinite",
						"decimals()": "366",
						"decreaseAllowance(address,uint256)": "infinite",
						"increaseAllowance(address,uint256)": "infinite",
						"mint(address,uint256)": "infinite",
						"name()": "infinite",
						"owner()": "2545",
						"removeController(address)": "27140",
						"renounceOwnership()": "30485",
						"symbol()": "infinite",
						"totalSupply()": "2505",
						"transfer(address,uint256)": "infinite",
						"transferFrom(address,address,uint256)": "infinite",
						"transferOwnership(address)": "30789",
						"wandTotalSupply()": "infinite"
					}
				},
				"methodIdentifiers": {
					"addController(address)": "a7fc7a07",
					"allowance(address,address)": "dd62ed3e",
					"approve(address,uint256)": "095ea7b3",
					"balanceOf(address)": "70a08231",
					"burn(address,uint256)": "9dc29fac",
					"decimals()": "313ce567",
					"decreaseAllowance(address,uint256)": "a457c2d7",
					"increaseAllowance(address,uint256)": "39509351",
					"mint(address,uint256)": "40c10f19",
					"name()": "06fdde03",
					"owner()": "8da5cb5b",
					"removeController(address)": "f6a74ed7",
					"renounceOwnership()": "715018a6",
					"symbol()": "95d89b41",
					"totalSupply()": "18160ddd",
					"transfer(address,uint256)": "a9059cbb",
					"transferFrom(address,address,uint256)": "23b872dd",
					"transferOwnership(address)": "f2fde38b",
					"wandTotalSupply()": "f7425e4e"
				}
			},
			"userdoc": {
				"kind": "user",
				"methods": {
					"addController(address)": {
						"notice": "enables an address to mint / burn"
					},
					"burn(address,uint256)": {
						"notice": "burns $Scepter from a holder"
					},
					"mint(address,uint256)": {
						"notice": "mints $Scepter to a recipient"
					},
					"removeController(address)": {
						"notice": "disables an address from minting / burning"
					}
				},
				"version": 1
			}
		}
	}
}