{
	"WandInstruments.sol": {
		"testSticks": {
			"abi": [
				{
					"inputs": [
						{
							"internalType": "address",
							"name": "scepterAddr",
							"type": "address"
						},
						{
							"internalType": "address",
							"name": "batonAddr",
							"type": "address"
						}
					],
					"stateMutability": "nonpayable",
					"type": "constructor"
				},
				{
					"inputs": [
						{
							"internalType": "uint256",
							"name": "amountSCPtoBuy",
							"type": "uint256"
						}
					],
					"name": "buyScepter",
					"outputs": [],
					"stateMutability": "payable",
					"type": "function"
				},
				{
					"inputs": [
						{
							"internalType": "uint256",
							"name": "amountSCPtoSell",
							"type": "uint256"
						}
					],
					"name": "cashOutScepter",
					"outputs": [],
					"stateMutability": "payable",
					"type": "function"
				},
				{
					"inputs": [],
					"name": "daysInCalculation",
					"outputs": [
						{
							"internalType": "uint256",
							"name": "",
							"type": "uint256"
						}
					],
					"stateMutability": "view",
					"type": "function"
				},
				{
					"inputs": [
						{
							"internalType": "uint256",
							"name": "x",
							"type": "uint256"
						},
						{
							"internalType": "uint256",
							"name": "y",
							"type": "uint256"
						}
					],
					"name": "decDiv18",
					"outputs": [
						{
							"internalType": "uint256",
							"name": "decQuotient",
							"type": "uint256"
						}
					],
					"stateMutability": "pure",
					"type": "function"
				},
				{
					"inputs": [
						{
							"internalType": "uint256",
							"name": "x",
							"type": "uint256"
						},
						{
							"internalType": "uint256",
							"name": "y",
							"type": "uint256"
						}
					],
					"name": "decMul18",
					"outputs": [
						{
							"internalType": "uint256",
							"name": "decProd",
							"type": "uint256"
						}
					],
					"stateMutability": "pure",
					"type": "function"
				},
				{
					"inputs": [],
					"name": "devWalletAddr",
					"outputs": [
						{
							"internalType": "address",
							"name": "",
							"type": "address"
						}
					],
					"stateMutability": "view",
					"type": "function"
				},
				{
					"inputs": [],
					"name": "getBackingPrice",
					"outputs": [
						{
							"internalType": "uint256",
							"name": "",
							"type": "uint256"
						}
					],
					"stateMutability": "view",
					"type": "function"
				},
				{
					"inputs": [],
					"name": "getBuyPrice",
					"outputs": [
						{
							"internalType": "uint256",
							"name": "",
							"type": "uint256"
						}
					],
					"stateMutability": "view",
					"type": "function"
				},
				{
					"inputs": [],
					"name": "getGrowthFactor",
					"outputs": [
						{
							"internalType": "uint256",
							"name": "",
							"type": "uint256"
						}
					],
					"stateMutability": "view",
					"type": "function"
				},
				{
					"inputs": [],
					"name": "getSellFactor",
					"outputs": [
						{
							"internalType": "uint256",
							"name": "",
							"type": "uint256"
						}
					],
					"stateMutability": "view",
					"type": "function"
				},
				{
					"inputs": [],
					"name": "getSellPrice",
					"outputs": [
						{
							"internalType": "uint256",
							"name": "",
							"type": "uint256"
						}
					],
					"stateMutability": "view",
					"type": "function"
				},
				{
					"inputs": [],
					"name": "getTokensBoughtXDays",
					"outputs": [
						{
							"internalType": "uint256",
							"name": "",
							"type": "uint256"
						}
					],
					"stateMutability": "view",
					"type": "function"
				},
				{
					"inputs": [],
					"name": "getTokensSoldXDays",
					"outputs": [
						{
							"internalType": "uint256",
							"name": "",
							"type": "uint256"
						}
					],
					"stateMutability": "view",
					"type": "function"
				},
				{
					"inputs": [],
					"name": "growthFactor",
					"outputs": [
						{
							"internalType": "uint256",
							"name": "",
							"type": "uint256"
						}
					],
					"stateMutability": "view",
					"type": "function"
				},
				{
					"inputs": [],
					"name": "mockUSDC",
					"outputs": [
						{
							"internalType": "contract IERC20",
							"name": "",
							"type": "address"
						}
					],
					"stateMutability": "view",
					"type": "function"
				},
				{
					"inputs": [
						{
							"internalType": "address",
							"name": "_tokenAddress",
							"type": "address"
						},
						{
							"internalType": "address",
							"name": "_addressToQuery",
							"type": "address"
						}
					],
					"name": "queryERC20Balance",
					"outputs": [
						{
							"internalType": "uint256",
							"name": "",
							"type": "uint256"
						}
					],
					"stateMutability": "view",
					"type": "function"
				},
				{
					"inputs": [],
					"name": "res",
					"outputs": [
						{
							"internalType": "int128",
							"name": "",
							"type": "int128"
						}
					],
					"stateMutability": "view",
					"type": "function"
				},
				{
					"inputs": [],
					"name": "riskTreasuryAddr",
					"outputs": [
						{
							"internalType": "address",
							"name": "",
							"type": "address"
						}
					],
					"stateMutability": "view",
					"type": "function"
				},
				{
					"inputs": [],
					"name": "scepterTreasuryAddr",
					"outputs": [
						{
							"internalType": "address",
							"name": "",
							"type": "address"
						}
					],
					"stateMutability": "view",
					"type": "function"
				},
				{
					"inputs": [],
					"name": "sellFactor",
					"outputs": [
						{
							"internalType": "uint256",
							"name": "",
							"type": "uint256"
						}
					],
					"stateMutability": "view",
					"type": "function"
				},
				{
					"inputs": [
						{
							"internalType": "uint256",
							"name": "numDays",
							"type": "uint256"
						}
					],
					"name": "setDaysUsedInFactors",
					"outputs": [],
					"stateMutability": "nonpayable",
					"type": "function"
				},
				{
					"inputs": [],
					"name": "tSC",
					"outputs": [
						{
							"internalType": "contract IERC20",
							"name": "",
							"type": "address"
						}
					],
					"stateMutability": "view",
					"type": "function"
				},
				{
					"inputs": [
						{
							"internalType": "uint256",
							"name": "amt",
							"type": "uint256"
						}
					],
					"name": "testUpdatetimeLockedminus",
					"outputs": [],
					"stateMutability": "nonpayable",
					"type": "function"
				},
				{
					"inputs": [
						{
							"internalType": "uint256",
							"name": "amt",
							"type": "uint256"
						}
					],
					"name": "testUpdatetimeLockedplus",
					"outputs": [],
					"stateMutability": "nonpayable",
					"type": "function"
				},
				{
					"inputs": [],
					"name": "testwallet",
					"outputs": [
						{
							"internalType": "address",
							"name": "",
							"type": "address"
						}
					],
					"stateMutability": "view",
					"type": "function"
				},
				{
					"inputs": [],
					"name": "timeLaunched",
					"outputs": [
						{
							"internalType": "uint256",
							"name": "",
							"type": "uint256"
						}
					],
					"stateMutability": "view",
					"type": "function"
				},
				{
					"inputs": [
						{
							"internalType": "uint256",
							"name": "",
							"type": "uint256"
						}
					],
					"name": "tokensBoughtXDays",
					"outputs": [
						{
							"internalType": "uint256",
							"name": "",
							"type": "uint256"
						}
					],
					"stateMutability": "view",
					"type": "function"
				},
				{
					"inputs": [
						{
							"internalType": "uint256",
							"name": "",
							"type": "uint256"
						}
					],
					"name": "tokensSoldXDays",
					"outputs": [
						{
							"internalType": "uint256",
							"name": "",
							"type": "uint256"
						}
					],
					"stateMutability": "view",
					"type": "function"
				},
				{
					"inputs": [
						{
							"internalType": "uint256",
							"name": "amountSCPtoSwap",
							"type": "uint256"
						}
					],
					"name": "transformScepterToBaton",
					"outputs": [],
					"stateMutability": "payable",
					"type": "function"
				},
				{
					"inputs": [],
					"name": "treasury1Addr",
					"outputs": [
						{
							"internalType": "address",
							"name": "",
							"type": "address"
						}
					],
					"stateMutability": "view",
					"type": "function"
				},
				{
					"inputs": [],
					"name": "treasury1bal",
					"outputs": [
						{
							"internalType": "uint256",
							"name": "",
							"type": "uint256"
						}
					],
					"stateMutability": "view",
					"type": "function"
				},
				{
					"inputs": [
						{
							"internalType": "address",
							"name": "_addr",
							"type": "address"
						}
					],
					"name": "whitelist",
					"outputs": [],
					"stateMutability": "nonpayable",
					"type": "function"
				},
				{
					"inputs": [
						{
							"internalType": "address",
							"name": "",
							"type": "address"
						}
					],
					"name": "withheldWithdrawals",
					"outputs": [
						{
							"internalType": "uint256",
							"name": "timeUnlocked",
							"type": "uint256"
						},
						{
							"internalType": "uint256",
							"name": "amounts",
							"type": "uint256"
						}
					],
					"stateMutability": "view",
					"type": "function"
				}
			],
			"devdoc": {
				"kind": "dev",
				"methods": {},
				"version": 1
			},
			"evm": {
				"assembly": "    /* \"WandInstruments.sol\":96:10961  contract testSticks {\r... */\n  mstore(0x40, 0x80)\n    /* \"WandInstruments.sol\":283:289  10**18 */\n  0x0de0b6b3a7640000\n    /* \"WandInstruments.sol\":759:764  50000 */\n  0xc350\n    /* \"WandInstruments.sol\":759:775  50000*(DECIMALS) */\n  tag_1\n  swap2\n  swap1\n  tag_2\n  jump\t// in\ntag_1:\n    /* \"WandInstruments.sol\":729:775  uint256 public treasury1bal = 50000*(DECIMALS) */\n  0x0a\n  sstore\n    /* \"WandInstruments.sol\":925:931  100000 */\n  0x0186a0\n    /* \"WandInstruments.sol\":894:931  uint256 private ft5daybought = 100000 */\n  0x0d\n  sstore\n    /* \"WandInstruments.sol\":967:972  90000 */\n  0x015f90\n    /* \"WandInstruments.sol\":938:972  uint256 private ft5daysold = 90000 */\n  0x0e\n  sstore\n    /* \"WandInstruments.sol\":1014:1020  600000 */\n  0x0927c0\n    /* \"WandInstruments.sol\":979:1020  uint256 private double5daytokens = 600000 */\n  0x0f\n  sstore\n    /* \"WandInstruments.sol\":1141:1183  0x617F2E2fD72FD9D5503197092aC168c91465E7f2 */\n  0x617f2e2fd72fd9d5503197092ac168c91465e7f2\n    /* \"WandInstruments.sol\":1113:1183  address public testwallet = 0x617F2E2fD72FD9D5503197092aC168c91465E7f2 */\n  0x11\n  exp(0x0100, 0x00)\n  dup2\n  sload\n  dup2\n  0xffffffffffffffffffffffffffffffffffffffff\n  mul\n  not\n  and\n  swap1\n  dup4\n  0xffffffffffffffffffffffffffffffffffffffff\n  and\n  mul\n  or\n  swap1\n  sstore\n  pop\n    /* \"WandInstruments.sol\":1875:2589  constructor(address scepterAddr, address batonAddr) {   \r... */\n  callvalue\n  dup1\n  iszero\n  tag_3\n  jumpi\n  0x00\n  dup1\n  revert\ntag_3:\n  pop\n  mload(0x40)\n  sub(codesize, bytecodeSize)\n  dup1\n  bytecodeSize\n  dup4\n  codecopy\n  dup2\n  dup2\n  add\n  0x40\n  mstore\n  dup2\n  add\n  swap1\n  tag_4\n  swap2\n  swap1\n  tag_5\n  jump\t// in\ntag_4:\n    /* \"WandInstruments.sol\":2045:2054  batonAddr */\n  dup1\n    /* \"WandInstruments.sol\":2033:2036  btn */\n  0x17\n  0x00\n    /* \"WandInstruments.sol\":2033:2055  btn = Baton(batonAddr) */\n  0x0100\n  exp\n  dup2\n  sload\n  dup2\n  0xffffffffffffffffffffffffffffffffffffffff\n  mul\n  not\n  and\n  swap1\n  dup4\n  0xffffffffffffffffffffffffffffffffffffffff\n  and\n  mul\n  or\n  swap1\n  sstore\n  pop\n    /* \"WandInstruments.sol\":2079:2090  scepterAddr */\n  dup2\n    /* \"WandInstruments.sol\":2066:2069  tSC */\n  0x12\n  0x00\n    /* \"WandInstruments.sol\":2066:2091  tSC = IERC20(scepterAddr) */\n  0x0100\n  exp\n  dup2\n  sload\n  dup2\n  0xffffffffffffffffffffffffffffffffffffffff\n  mul\n  not\n  and\n  swap1\n  dup4\n  0xffffffffffffffffffffffffffffffffffffffff\n  and\n  mul\n  or\n  swap1\n  sstore\n  pop\n    /* \"WandInstruments.sol\":2122:2164  0xD7ACd2a9FD159E69Bb102A1ca21C9a3e3A5F771B */\n  0xd7acd2a9fd159e69bb102a1ca21c9a3e3a5f771b\n    /* \"WandInstruments.sol\":2104:2112  mockUSDC */\n  0x13\n  0x00\n    /* \"WandInstruments.sol\":2104:2165  mockUSDC = IERC20(0xD7ACd2a9FD159E69Bb102A1ca21C9a3e3A5F771B) */\n  0x0100\n  exp\n  dup2\n  sload\n  dup2\n  0xffffffffffffffffffffffffffffffffffffffff\n  mul\n  not\n  and\n  swap1\n  dup4\n  0xffffffffffffffffffffffffffffffffffffffff\n  and\n  mul\n  or\n  swap1\n  sstore\n  pop\n    /* \"WandInstruments.sol\":2192:2234  0x617F2E2fD72FD9D5503197092aC168c91465E7f2 */\n  0x617f2e2fd72fd9d5503197092ac168c91465e7f2\n    /* \"WandInstruments.sol\":2176:2189  treasury1Addr */\n  0x06\n  0x00\n    /* \"WandInstruments.sol\":2176:2234  treasury1Addr = 0x617F2E2fD72FD9D5503197092aC168c91465E7f2 */\n  0x0100\n  exp\n  dup2\n  sload\n  dup2\n  0xffffffffffffffffffffffffffffffffffffffff\n  mul\n  not\n  and\n  swap1\n  dup4\n  0xffffffffffffffffffffffffffffffffffffffff\n  and\n  mul\n  or\n  swap1\n  sstore\n  pop\n    /* \"WandInstruments.sol\":2433:2448  block.timestamp */\n  timestamp\n    /* \"WandInstruments.sol\":2418:2430  timeLaunched */\n  0x0b\n    /* \"WandInstruments.sol\":2418:2448  timeLaunched = block.timestamp */\n  dup2\n  swap1\n  sstore\n  pop\n    /* \"WandInstruments.sol\":2479:2485  5 days */\n  0x069780\n    /* \"WandInstruments.sol\":2459:2476  daysInCalculation */\n  0x0c\n    /* \"WandInstruments.sol\":2459:2485  daysInCalculation = 5 days */\n  dup2\n  swap1\n  sstore\n  pop\n    /* \"WandInstruments.sol\":1875:2589  constructor(address scepterAddr, address batonAddr) {   \r... */\n  pop\n  pop\n    /* \"WandInstruments.sol\":96:10961  contract testSticks {\r... */\n  jump(tag_8)\n    /* \"#utility.yul\":7:150   */\ntag_10:\n    /* \"#utility.yul\":64:69   */\n  0x00\n    /* \"#utility.yul\":95:101   */\n  dup2\n    /* \"#utility.yul\":89:102   */\n  mload\n    /* \"#utility.yul\":80:102   */\n  swap1\n  pop\n    /* \"#utility.yul\":111:144   */\n  tag_12\n    /* \"#utility.yul\":138:143   */\n  dup2\n    /* \"#utility.yul\":111:144   */\n  tag_13\n  jump\t// in\ntag_12:\n    /* \"#utility.yul\":7:150   */\n  swap3\n  swap2\n  pop\n  pop\n  jump\t// out\n    /* \"#utility.yul\":156:663   */\ntag_5:\n    /* \"#utility.yul\":235:241   */\n  0x00\n    /* \"#utility.yul\":243:249   */\n  dup1\n    /* \"#utility.yul\":292:294   */\n  0x40\n    /* \"#utility.yul\":280:289   */\n  dup4\n    /* \"#utility.yul\":271:278   */\n  dup6\n    /* \"#utility.yul\":267:290   */\n  sub\n    /* \"#utility.yul\":263:295   */\n  slt\n    /* \"#utility.yul\":260:379   */\n  iszero\n  tag_15\n  jumpi\n    /* \"#utility.yul\":298:377   */\n  tag_16\n  tag_17\n  jump\t// in\ntag_16:\n    /* \"#utility.yul\":260:379   */\ntag_15:\n    /* \"#utility.yul\":418:419   */\n  0x00\n    /* \"#utility.yul\":443:507   */\n  tag_18\n    /* \"#utility.yul\":499:506   */\n  dup6\n    /* \"#utility.yul\":490:496   */\n  dup3\n    /* \"#utility.yul\":479:488   */\n  dup7\n    /* \"#utility.yul\":475:497   */\n  add\n    /* \"#utility.yul\":443:507   */\n  tag_10\n  jump\t// in\ntag_18:\n    /* \"#utility.yul\":433:507   */\n  swap3\n  pop\n    /* \"#utility.yul\":389:517   */\n  pop\n    /* \"#utility.yul\":556:558   */\n  0x20\n    /* \"#utility.yul\":582:646   */\n  tag_19\n    /* \"#utility.yul\":638:645   */\n  dup6\n    /* \"#utility.yul\":629:635   */\n  dup3\n    /* \"#utility.yul\":618:627   */\n  dup7\n    /* \"#utility.yul\":614:636   */\n  add\n    /* \"#utility.yul\":582:646   */\n  tag_10\n  jump\t// in\ntag_19:\n    /* \"#utility.yul\":572:646   */\n  swap2\n  pop\n    /* \"#utility.yul\":527:656   */\n  pop\n    /* \"#utility.yul\":156:663   */\n  swap3\n  pop\n  swap3\n  swap1\n  pop\n  jump\t// out\n    /* \"#utility.yul\":750:1098   */\ntag_2:\n    /* \"#utility.yul\":790:797   */\n  0x00\n    /* \"#utility.yul\":813:833   */\n  tag_23\n    /* \"#utility.yul\":831:832   */\n  dup3\n    /* \"#utility.yul\":813:833   */\n  tag_24\n  jump\t// in\ntag_23:\n    /* \"#utility.yul\":808:833   */\n  swap2\n  pop\n    /* \"#utility.yul\":847:867   */\n  tag_25\n    /* \"#utility.yul\":865:866   */\n  dup4\n    /* \"#utility.yul\":847:867   */\n  tag_24\n  jump\t// in\ntag_25:\n    /* \"#utility.yul\":842:867   */\n  swap3\n  pop\n    /* \"#utility.yul\":1035:1036   */\n  dup2\n    /* \"#utility.yul\":967:1033   */\n  0xffffffffffffffffffffffffffffffffffffffffffffffffffffffffffffffff\n    /* \"#utility.yul\":963:1037   */\n  div\n    /* \"#utility.yul\":960:961   */\n  dup4\n    /* \"#utility.yul\":957:1038   */\n  gt\n    /* \"#utility.yul\":952:953   */\n  dup3\n    /* \"#utility.yul\":945:954   */\n  iszero\n    /* \"#utility.yul\":938:955   */\n  iszero\n    /* \"#utility.yul\":934:1039   */\n  and\n    /* \"#utility.yul\":931:1062   */\n  iszero\n  tag_26\n  jumpi\n    /* \"#utility.yul\":1042:1060   */\n  tag_27\n  tag_28\n  jump\t// in\ntag_27:\n    /* \"#utility.yul\":931:1062   */\ntag_26:\n    /* \"#utility.yul\":1090:1091   */\n  dup3\n    /* \"#utility.yul\":1087:1088   */\n  dup3\n    /* \"#utility.yul\":1083:1092   */\n  mul\n    /* \"#utility.yul\":1072:1092   */\n  swap1\n  pop\n    /* \"#utility.yul\":750:1098   */\n  swap3\n  swap2\n  pop\n  pop\n  jump\t// out\n    /* \"#utility.yul\":1104:1200   */\ntag_29:\n    /* \"#utility.yul\":1141:1148   */\n  0x00\n    /* \"#utility.yul\":1170:1194   */\n  tag_31\n    /* \"#utility.yul\":1188:1193   */\n  dup3\n    /* \"#utility.yul\":1170:1194   */\n  tag_32\n  jump\t// in\ntag_31:\n    /* \"#utility.yul\":1159:1194   */\n  swap1\n  pop\n    /* \"#utility.yul\":1104:1200   */\n  swap2\n  swap1\n  pop\n  jump\t// out\n    /* \"#utility.yul\":1206:1332   */\ntag_32:\n    /* \"#utility.yul\":1243:1250   */\n  0x00\n    /* \"#utility.yul\":1283:1325   */\n  0xffffffffffffffffffffffffffffffffffffffff\n    /* \"#utility.yul\":1276:1281   */\n  dup3\n    /* \"#utility.yul\":1272:1326   */\n  and\n    /* \"#utility.yul\":1261:1326   */\n  swap1\n  pop\n    /* \"#utility.yul\":1206:1332   */\n  swap2\n  swap1\n  pop\n  jump\t// out\n    /* \"#utility.yul\":1338:1415   */\ntag_24:\n    /* \"#utility.yul\":1375:1382   */\n  0x00\n    /* \"#utility.yul\":1404:1409   */\n  dup2\n    /* \"#utility.yul\":1393:1409   */\n  swap1\n  pop\n    /* \"#utility.yul\":1338:1415   */\n  swap2\n  swap1\n  pop\n  jump\t// out\n    /* \"#utility.yul\":1421:1601   */\ntag_28:\n    /* \"#utility.yul\":1469:1546   */\n  0x4e487b7100000000000000000000000000000000000000000000000000000000\n    /* \"#utility.yul\":1466:1467   */\n  0x00\n    /* \"#utility.yul\":1459:1547   */\n  mstore\n    /* \"#utility.yul\":1566:1570   */\n  0x11\n    /* \"#utility.yul\":1563:1564   */\n  0x04\n    /* \"#utility.yul\":1556:1571   */\n  mstore\n    /* \"#utility.yul\":1590:1594   */\n  0x24\n    /* \"#utility.yul\":1587:1588   */\n  0x00\n    /* \"#utility.yul\":1580:1595   */\n  revert\n    /* \"#utility.yul\":1730:1847   */\ntag_17:\n    /* \"#utility.yul\":1839:1840   */\n  0x00\n    /* \"#utility.yul\":1836:1837   */\n  dup1\n    /* \"#utility.yul\":1829:1841   */\n  revert\n    /* \"#utility.yul\":1853:1975   */\ntag_13:\n    /* \"#utility.yul\":1926:1950   */\n  tag_40\n    /* \"#utility.yul\":1944:1949   */\n  dup2\n    /* \"#utility.yul\":1926:1950   */\n  tag_29\n  jump\t// in\ntag_40:\n    /* \"#utility.yul\":1919:1924   */\n  dup2\n    /* \"#utility.yul\":1916:1951   */\n  eq\n    /* \"#utility.yul\":1906:1969   */\n  tag_41\n  jumpi\n    /* \"#utility.yul\":1965:1966   */\n  0x00\n    /* \"#utility.yul\":1962:1963   */\n  dup1\n    /* \"#utility.yul\":1955:1967   */\n  revert\n    /* \"#utility.yul\":1906:1969   */\ntag_41:\n    /* \"#utility.yul\":1853:1975   */\n  pop\n  jump\t// out\n    /* \"WandInstruments.sol\":96:10961  contract testSticks {\r... */\ntag_8:\n  dataSize(sub_0)\n  dup1\n  dataOffset(sub_0)\n  0x00\n  codecopy\n  0x00\n  return\nstop\n\nsub_0: assembly {\n        /* \"WandInstruments.sol\":96:10961  contract testSticks {\r... */\n      mstore(0x40, 0x80)\n      jumpi(tag_1, lt(calldatasize, 0x04))\n      shr(0xe0, calldataload(0x00))\n      dup1\n      0x67e927a8\n      gt\n      tag_35\n      jumpi\n      dup1\n      0xd82eddf2\n      gt\n      tag_36\n      jumpi\n      dup1\n      0xeee05f5e\n      gt\n      tag_37\n      jumpi\n      dup1\n      0xeee05f5e\n      eq\n      tag_30\n      jumpi\n      dup1\n      0xf7523c52\n      eq\n      tag_31\n      jumpi\n      dup1\n      0xfbbb4589\n      eq\n      tag_32\n      jumpi\n      dup1\n      0xfc361443\n      eq\n      tag_33\n      jumpi\n      dup1\n      0xff357f5b\n      eq\n      tag_34\n      jumpi\n      jump(tag_1)\n    tag_37:\n      dup1\n      0xd82eddf2\n      eq\n      tag_26\n      jumpi\n      dup1\n      0xee467678\n      eq\n      tag_27\n      jumpi\n      dup1\n      0xee546a51\n      eq\n      tag_28\n      jumpi\n      dup1\n      0xee620868\n      eq\n      tag_29\n      jumpi\n      jump(tag_1)\n    tag_36:\n      dup1\n      0x93f7b711\n      gt\n      tag_38\n      jumpi\n      dup1\n      0x93f7b711\n      eq\n      tag_22\n      jumpi\n      dup1\n      0x9b19251a\n      eq\n      tag_23\n      jumpi\n      dup1\n      0xc079d7f6\n      eq\n      tag_24\n      jumpi\n      dup1\n      0xcbff4617\n      eq\n      tag_25\n      jumpi\n      jump(tag_1)\n    tag_38:\n      dup1\n      0x67e927a8\n      eq\n      tag_18\n      jumpi\n      dup1\n      0x6e05c1b9\n      eq\n      tag_19\n      jumpi\n      dup1\n      0x6f10e285\n      eq\n      tag_20\n      jumpi\n      dup1\n      0x71cd58f9\n      eq\n      tag_21\n      jumpi\n      jump(tag_1)\n    tag_35:\n      dup1\n      0x29982a32\n      gt\n      tag_39\n      jumpi\n      dup1\n      0x43d32e9c\n      gt\n      tag_40\n      jumpi\n      dup1\n      0x43d32e9c\n      eq\n      tag_14\n      jumpi\n      dup1\n      0x64ce07d8\n      eq\n      tag_15\n      jumpi\n      dup1\n      0x65819f7e\n      eq\n      tag_16\n      jumpi\n      dup1\n      0x67b48c91\n      eq\n      tag_17\n      jumpi\n      jump(tag_1)\n    tag_40:\n      dup1\n      0x29982a32\n      eq\n      tag_10\n      jumpi\n      dup1\n      0x2a9f0fb1\n      eq\n      tag_11\n      jumpi\n      dup1\n      0x35453307\n      eq\n      tag_12\n      jumpi\n      dup1\n      0x3c6eb17a\n      eq\n      tag_13\n      jumpi\n      jump(tag_1)\n    tag_39:\n      dup1\n      0x1514c976\n      gt\n      tag_41\n      jumpi\n      dup1\n      0x1514c976\n      eq\n      tag_6\n      jumpi\n      dup1\n      0x164c8501\n      eq\n      tag_7\n      jumpi\n      dup1\n      0x1bc9cc45\n      eq\n      tag_8\n      jumpi\n      dup1\n      0x1f564a06\n      eq\n      tag_9\n      jumpi\n      jump(tag_1)\n    tag_41:\n      dup1\n      0x018a25e8\n      eq\n      tag_2\n      jumpi\n      dup1\n      0x047729b0\n      eq\n      tag_3\n      jumpi\n      dup1\n      0x0ccaf04f\n      eq\n      tag_4\n      jumpi\n      dup1\n      0x12b2ed94\n      eq\n      tag_5\n      jumpi\n    tag_1:\n      0x00\n      dup1\n      revert\n        /* \"WandInstruments.sol\":8233:8455  function getBuyPrice() external view returns (uint256){\r... */\n    tag_2:\n      callvalue\n      dup1\n      iszero\n      tag_42\n      jumpi\n      0x00\n      dup1\n      revert\n    tag_42:\n      pop\n      tag_43\n      tag_44\n      jump\t// in\n    tag_43:\n      mload(0x40)\n      tag_45\n      swap2\n      swap1\n      tag_46\n      jump\t// in\n    tag_45:\n      mload(0x40)\n      dup1\n      swap2\n      sub\n      swap1\n      return\n        /* \"WandInstruments.sol\":622:653  address public riskTreasuryAddr */\n    tag_3:\n      callvalue\n      dup1\n      iszero\n      tag_47\n      jumpi\n      0x00\n      dup1\n      revert\n    tag_47:\n      pop\n      tag_48\n      tag_49\n      jump\t// in\n    tag_48:\n      mload(0x40)\n      tag_50\n      swap2\n      swap1\n      tag_51\n      jump\t// in\n    tag_50:\n      mload(0x40)\n      dup1\n      swap2\n      sub\n      swap1\n      return\n        /* \"WandInstruments.sol\":7656:8007  function getSellFactor() external view returns (uint256){\r... */\n    tag_4:\n      callvalue\n      dup1\n      iszero\n      tag_52\n      jumpi\n      0x00\n      dup1\n      revert\n    tag_52:\n      pop\n      tag_53\n      tag_54\n      jump\t// in\n    tag_53:\n      mload(0x40)\n      tag_55\n      swap2\n      swap1\n      tag_46\n      jump\t// in\n    tag_55:\n      mload(0x40)\n      dup1\n      swap2\n      sub\n      swap1\n      return\n        /* \"WandInstruments.sol\":1660:1720  mapping(address => lockedamounts) public withheldWithdrawals */\n    tag_5:\n      callvalue\n      dup1\n      iszero\n      tag_56\n      jumpi\n      0x00\n      dup1\n      revert\n    tag_56:\n      pop\n      tag_57\n      0x04\n      dup1\n      calldatasize\n      sub\n      dup2\n      add\n      swap1\n      tag_58\n      swap2\n      swap1\n      tag_59\n      jump\t// in\n    tag_58:\n      tag_60\n      jump\t// in\n    tag_57:\n      mload(0x40)\n      tag_61\n      swap3\n      swap2\n      swap1\n      tag_62\n      jump\t// in\n    tag_61:\n      mload(0x40)\n      dup1\n      swap2\n      sub\n      swap1\n      return\n        /* \"WandInstruments.sol\":1496:1546  mapping(uint256 => uint256) public tokensSoldXDays */\n    tag_6:\n      callvalue\n      dup1\n      iszero\n      tag_63\n      jumpi\n      0x00\n      dup1\n      revert\n    tag_63:\n      pop\n      tag_64\n      0x04\n      dup1\n      calldatasize\n      sub\n      dup2\n      add\n      swap1\n      tag_65\n      swap2\n      swap1\n      tag_66\n      jump\t// in\n    tag_65:\n      tag_67\n      jump\t// in\n    tag_64:\n      mload(0x40)\n      tag_68\n      swap2\n      swap1\n      tag_46\n      jump\t// in\n    tag_68:\n      mload(0x40)\n      dup1\n      swap2\n      sub\n      swap1\n      return\n        /* \"WandInstruments.sol\":9363:9865  function testUpdatetimeLockedminus(uint256 amt) public  {\r... */\n    tag_7:\n      callvalue\n      dup1\n      iszero\n      tag_69\n      jumpi\n      0x00\n      dup1\n      revert\n    tag_69:\n      pop\n      tag_70\n      0x04\n      dup1\n      calldatasize\n      sub\n      dup2\n      add\n      swap1\n      tag_71\n      swap2\n      swap1\n      tag_66\n      jump\t// in\n    tag_71:\n      tag_72\n      jump\t// in\n    tag_70:\n      stop\n        /* \"WandInstruments.sol\":5550:6233  function transformScepterToBaton(uint256 amountSCPtoSwap) public payable{\r... */\n    tag_8:\n      tag_73\n      0x04\n      dup1\n      calldatasize\n      sub\n      dup2\n      add\n      swap1\n      tag_74\n      swap2\n      swap1\n      tag_66\n      jump\t// in\n    tag_74:\n      tag_75\n      jump\t// in\n    tag_73:\n      stop\n        /* \"WandInstruments.sol\":8013:8227  function getBackingPrice() external view returns (uint256){\r... */\n    tag_9:\n      callvalue\n      dup1\n      iszero\n      tag_76\n      jumpi\n      0x00\n      dup1\n      revert\n    tag_76:\n      pop\n      tag_77\n      tag_78\n      jump\t// in\n    tag_77:\n      mload(0x40)\n      tag_79\n      swap2\n      swap1\n      tag_46\n      jump\t// in\n    tag_79:\n      mload(0x40)\n      dup1\n      swap2\n      sub\n      swap1\n      return\n        /* \"WandInstruments.sol\":660:688  address public devWalletAddr */\n    tag_10:\n      callvalue\n      dup1\n      iszero\n      tag_80\n      jumpi\n      0x00\n      dup1\n      revert\n    tag_80:\n      pop\n      tag_81\n      tag_82\n      jump\t// in\n    tag_81:\n      mload(0x40)\n      tag_83\n      swap2\n      swap1\n      tag_51\n      jump\t// in\n    tag_83:\n      mload(0x40)\n      dup1\n      swap2\n      sub\n      swap1\n      return\n        /* \"WandInstruments.sol\":1437:1489  mapping(uint256 => uint256) public tokensBoughtXDays */\n    tag_11:\n      callvalue\n      dup1\n      iszero\n      tag_84\n      jumpi\n      0x00\n      dup1\n      revert\n    tag_84:\n      pop\n      tag_85\n      0x04\n      dup1\n      calldatasize\n      sub\n      dup2\n      add\n      swap1\n      tag_86\n      swap2\n      swap1\n      tag_66\n      jump\t// in\n    tag_86:\n      tag_87\n      jump\t// in\n    tag_85:\n      mload(0x40)\n      tag_88\n      swap2\n      swap1\n      tag_46\n      jump\t// in\n    tag_88:\n      mload(0x40)\n      dup1\n      swap2\n      sub\n      swap1\n      return\n        /* \"WandInstruments.sol\":729:775  uint256 public treasury1bal = 50000*(DECIMALS) */\n    tag_12:\n      callvalue\n      dup1\n      iszero\n      tag_89\n      jumpi\n      0x00\n      dup1\n      revert\n    tag_89:\n      pop\n      tag_90\n      tag_91\n      jump\t// in\n    tag_90:\n      mload(0x40)\n      tag_92\n      swap2\n      swap1\n      tag_46\n      jump\t// in\n    tag_92:\n      mload(0x40)\n      dup1\n      swap2\n      sub\n      swap1\n      return\n        /* \"WandInstruments.sol\":804:831  uint256 public timeLaunched */\n    tag_13:\n      callvalue\n      dup1\n      iszero\n      tag_93\n      jumpi\n      0x00\n      dup1\n      revert\n    tag_93:\n      pop\n      tag_94\n      tag_95\n      jump\t// in\n    tag_94:\n      mload(0x40)\n      tag_96\n      swap2\n      swap1\n      tag_46\n      jump\t// in\n    tag_96:\n      mload(0x40)\n      dup1\n      swap2\n      sub\n      swap1\n      return\n        /* \"WandInstruments.sol\":8461:8684  function getSellPrice() external view returns (uint256){\r... */\n    tag_14:\n      callvalue\n      dup1\n      iszero\n      tag_97\n      jumpi\n      0x00\n      dup1\n      revert\n    tag_97:\n      pop\n      tag_98\n      tag_99\n      jump\t// in\n    tag_98:\n      mload(0x40)\n      tag_100\n      swap2\n      swap1\n      tag_46\n      jump\t// in\n    tag_100:\n      mload(0x40)\n      dup1\n      swap2\n      sub\n      swap1\n      return\n        /* \"WandInstruments.sol\":3621:3800  function decDiv18(uint x, uint y) public pure returns (uint decQuotient) {\r... */\n    tag_15:\n      callvalue\n      dup1\n      iszero\n      tag_101\n      jumpi\n      0x00\n      dup1\n      revert\n    tag_101:\n      pop\n      tag_102\n      0x04\n      dup1\n      calldatasize\n      sub\n      dup2\n      add\n      swap1\n      tag_103\n      swap2\n      swap1\n      tag_104\n      jump\t// in\n    tag_103:\n      tag_105\n      jump\t// in\n    tag_102:\n      mload(0x40)\n      tag_106\n      swap2\n      swap1\n      tag_46\n      jump\t// in\n    tag_106:\n      mload(0x40)\n      dup1\n      swap2\n      sub\n      swap1\n      return\n        /* \"WandInstruments.sol\":6248:7260  function buyScepter(uint256 amountSCPtoBuy) public payable{\r... */\n    tag_16:\n      tag_107\n      0x04\n      dup1\n      calldatasize\n      sub\n      dup2\n      add\n      swap1\n      tag_108\n      swap2\n      swap1\n      tag_66\n      jump\t// in\n    tag_108:\n      tag_109\n      jump\t// in\n    tag_107:\n      stop\n        /* \"WandInstruments.sol\":838:870  uint256 public daysInCalculation */\n    tag_17:\n      callvalue\n      dup1\n      iszero\n      tag_110\n      jumpi\n      0x00\n      dup1\n      revert\n    tag_110:\n      pop\n      tag_111\n      tag_112\n      jump\t// in\n    tag_111:\n      mload(0x40)\n      tag_113\n      swap2\n      swap1\n      tag_46\n      jump\t// in\n    tag_113:\n      mload(0x40)\n      dup1\n      swap2\n      sub\n      swap1\n      return\n        /* \"WandInstruments.sol\":8879:9351  function testUpdatetimeLockedplus(uint256 amt) public  {\r... */\n    tag_18:\n      callvalue\n      dup1\n      iszero\n      tag_114\n      jumpi\n      0x00\n      dup1\n      revert\n    tag_114:\n      pop\n      tag_115\n      0x04\n      dup1\n      calldatasize\n      sub\n      dup2\n      add\n      swap1\n      tag_116\n      swap2\n      swap1\n      tag_66\n      jump\t// in\n    tag_116:\n      tag_117\n      jump\t// in\n    tag_115:\n      stop\n        /* \"WandInstruments.sol\":1311:1328  IERC20 public tSC */\n    tag_19:\n      callvalue\n      dup1\n      iszero\n      tag_118\n      jumpi\n      0x00\n      dup1\n      revert\n    tag_118:\n      pop\n      tag_119\n      tag_120\n      jump\t// in\n    tag_119:\n      mload(0x40)\n      tag_121\n      swap2\n      swap1\n      tag_122\n      jump\t// in\n    tag_121:\n      mload(0x40)\n      dup1\n      swap2\n      sub\n      swap1\n      return\n        /* \"WandInstruments.sol\":1089:1106  int128 public res */\n    tag_20:\n      callvalue\n      dup1\n      iszero\n      tag_123\n      jumpi\n      0x00\n      dup1\n      revert\n    tag_123:\n      pop\n      tag_124\n      tag_125\n      jump\t// in\n    tag_124:\n      mload(0x40)\n      tag_126\n      swap2\n      swap1\n      tag_127\n      jump\t// in\n    tag_126:\n      mload(0x40)\n      dup1\n      swap2\n      sub\n      swap1\n      return\n        /* \"WandInstruments.sol\":9976:10295  function getTokensBoughtXDays() external view returns (uint256){\r... */\n    tag_21:\n      callvalue\n      dup1\n      iszero\n      tag_128\n      jumpi\n      0x00\n      dup1\n      revert\n    tag_128:\n      pop\n      tag_129\n      tag_130\n      jump\t// in\n    tag_129:\n      mload(0x40)\n      tag_131\n      swap2\n      swap1\n      tag_46\n      jump\t// in\n    tag_131:\n      mload(0x40)\n      dup1\n      swap2\n      sub\n      swap1\n      return\n        /* \"WandInstruments.sol\":7293:7650  function getGrowthFactor() external view returns (uint256){\r... */\n    tag_22:\n      callvalue\n      dup1\n      iszero\n      tag_132\n      jumpi\n      0x00\n      dup1\n      revert\n    tag_132:\n      pop\n      tag_133\n      tag_134\n      jump\t// in\n    tag_133:\n      mload(0x40)\n      tag_135\n      swap2\n      swap1\n      tag_46\n      jump\t// in\n    tag_135:\n      mload(0x40)\n      dup1\n      swap2\n      sub\n      swap1\n      return\n        /* \"WandInstruments.sol\":10593:10682  function whitelist(address _addr) public onlyOwner {  \r... */\n    tag_23:\n      callvalue\n      dup1\n      iszero\n      tag_136\n      jumpi\n      0x00\n      dup1\n      revert\n    tag_136:\n      pop\n      tag_137\n      0x04\n      dup1\n      calldatasize\n      sub\n      dup2\n      add\n      swap1\n      tag_138\n      swap2\n      swap1\n      tag_59\n      jump\t// in\n    tag_138:\n      tag_139\n      jump\t// in\n    tag_137:\n      stop\n        /* \"WandInstruments.sol\":581:615  address public scepterTreasuryAddr */\n    tag_24:\n      callvalue\n      dup1\n      iszero\n      tag_140\n      jumpi\n      0x00\n      dup1\n      revert\n    tag_140:\n      pop\n      tag_141\n      tag_142\n      jump\t// in\n    tag_141:\n      mload(0x40)\n      tag_143\n      swap2\n      swap1\n      tag_51\n      jump\t// in\n    tag_143:\n      mload(0x40)\n      dup1\n      swap2\n      sub\n      swap1\n      return\n        /* \"WandInstruments.sol\":332:357  uint256 public sellFactor */\n    tag_25:\n      callvalue\n      dup1\n      iszero\n      tag_144\n      jumpi\n      0x00\n      dup1\n      revert\n    tag_144:\n      pop\n      tag_145\n      tag_146\n      jump\t// in\n    tag_145:\n      mload(0x40)\n      tag_147\n      swap2\n      swap1\n      tag_46\n      jump\t// in\n    tag_147:\n      mload(0x40)\n      dup1\n      swap2\n      sub\n      swap1\n      return\n        /* \"WandInstruments.sol\":10301:10585  function getTokensSoldXDays() external view returns (uint256){\r... */\n    tag_26:\n      callvalue\n      dup1\n      iszero\n      tag_148\n      jumpi\n      0x00\n      dup1\n      revert\n    tag_148:\n      pop\n      tag_149\n      tag_150\n      jump\t// in\n    tag_149:\n      mload(0x40)\n      tag_151\n      swap2\n      swap1\n      tag_46\n      jump\t// in\n    tag_151:\n      mload(0x40)\n      dup1\n      swap2\n      sub\n      swap1\n      return\n        /* \"WandInstruments.sol\":1357:1379  IERC20 public mockUSDC */\n    tag_27:\n      callvalue\n      dup1\n      iszero\n      tag_152\n      jumpi\n      0x00\n      dup1\n      revert\n    tag_152:\n      pop\n      tag_153\n      tag_154\n      jump\t// in\n    tag_153:\n      mload(0x40)\n      tag_155\n      swap2\n      swap1\n      tag_122\n      jump\t// in\n    tag_155:\n      mload(0x40)\n      dup1\n      swap2\n      sub\n      swap1\n      return\n        /* \"WandInstruments.sol\":3808:3992  function queryERC20Balance(address _tokenAddress, address _addressToQuery) view public returns (uint) {\r... */\n    tag_28:\n      callvalue\n      dup1\n      iszero\n      tag_156\n      jumpi\n      0x00\n      dup1\n      revert\n    tag_156:\n      pop\n      tag_157\n      0x04\n      dup1\n      calldatasize\n      sub\n      dup2\n      add\n      swap1\n      tag_158\n      swap2\n      swap1\n      tag_159\n      jump\t// in\n    tag_158:\n      tag_160\n      jump\t// in\n    tag_157:\n      mload(0x40)\n      tag_161\n      swap2\n      swap1\n      tag_46\n      jump\t// in\n    tag_161:\n      mload(0x40)\n      dup1\n      swap2\n      sub\n      swap1\n      return\n        /* \"WandInstruments.sol\":298:325  uint256 public growthFactor */\n    tag_29:\n      callvalue\n      dup1\n      iszero\n      tag_162\n      jumpi\n      0x00\n      dup1\n      revert\n    tag_162:\n      pop\n      tag_163\n      tag_164\n      jump\t// in\n    tag_163:\n      mload(0x40)\n      tag_165\n      swap2\n      swap1\n      tag_46\n      jump\t// in\n    tag_165:\n      mload(0x40)\n      dup1\n      swap2\n      sub\n      swap1\n      return\n        /* \"WandInstruments.sol\":1113:1183  address public testwallet = 0x617F2E2fD72FD9D5503197092aC168c91465E7f2 */\n    tag_30:\n      callvalue\n      dup1\n      iszero\n      tag_166\n      jumpi\n      0x00\n      dup1\n      revert\n    tag_166:\n      pop\n      tag_167\n      tag_168\n      jump\t// in\n    tag_167:\n      mload(0x40)\n      tag_169\n      swap2\n      swap1\n      tag_51\n      jump\t// in\n    tag_169:\n      mload(0x40)\n      dup1\n      swap2\n      sub\n      swap1\n      return\n        /* \"WandInstruments.sol\":3443:3613  function decMul18(uint x, uint y) public pure returns (uint decProd) {\r... */\n    tag_31:\n      callvalue\n      dup1\n      iszero\n      tag_170\n      jumpi\n      0x00\n      dup1\n      revert\n    tag_170:\n      pop\n      tag_171\n      0x04\n      dup1\n      calldatasize\n      sub\n      dup2\n      add\n      swap1\n      tag_172\n      swap2\n      swap1\n      tag_104\n      jump\t// in\n    tag_172:\n      tag_173\n      jump\t// in\n    tag_171:\n      mload(0x40)\n      tag_174\n      swap2\n      swap1\n      tag_46\n      jump\t// in\n    tag_174:\n      mload(0x40)\n      dup1\n      swap2\n      sub\n      swap1\n      return\n        /* \"WandInstruments.sol\":546:574  address public treasury1Addr */\n    tag_32:\n      callvalue\n      dup1\n      iszero\n      tag_175\n      jumpi\n      0x00\n      dup1\n      revert\n    tag_175:\n      pop\n      tag_176\n      tag_177\n      jump\t// in\n    tag_176:\n      mload(0x40)\n      tag_178\n      swap2\n      swap1\n      tag_51\n      jump\t// in\n    tag_178:\n      mload(0x40)\n      dup1\n      swap2\n      sub\n      swap1\n      return\n        /* \"WandInstruments.sol\":8715:8871  function setDaysUsedInFactors(uint256 numDays) public {  \r... */\n    tag_33:\n      callvalue\n      dup1\n      iszero\n      tag_179\n      jumpi\n      0x00\n      dup1\n      revert\n    tag_179:\n      pop\n      tag_180\n      0x04\n      dup1\n      calldatasize\n      sub\n      dup2\n      add\n      swap1\n      tag_181\n      swap2\n      swap1\n      tag_66\n      jump\t// in\n    tag_181:\n      tag_182\n      jump\t// in\n    tag_180:\n      stop\n        /* \"WandInstruments.sol\":4355:5542  function cashOutScepter(uint256 amountSCPtoSell) public payable{\r... */\n    tag_34:\n      tag_183\n      0x04\n      dup1\n      calldatasize\n      sub\n      dup2\n      add\n      swap1\n      tag_184\n      swap2\n      swap1\n      tag_66\n      jump\t// in\n    tag_184:\n      tag_185\n      jump\t// in\n    tag_183:\n      stop\n        /* \"WandInstruments.sol\":8233:8455  function getBuyPrice() external view returns (uint256){\r... */\n    tag_44:\n        /* \"WandInstruments.sol\":8279:8286  uint256 */\n      0x00\n        /* \"WandInstruments.sol\":8364:8445  decMul18(this.getBackingPrice() , (1200000000000000000 + this.getGrowthFactor())) */\n      tag_187\n        /* \"WandInstruments.sol\":8373:8377  this */\n      address\n        /* \"WandInstruments.sol\":8373:8393  this.getBackingPrice */\n      0xffffffffffffffffffffffffffffffffffffffff\n      and\n      0x1f564a06\n        /* \"WandInstruments.sol\":8373:8395  this.getBackingPrice() */\n      mload(0x40)\n      dup2\n      0xffffffff\n      and\n      0xe0\n      shl\n      dup2\n      mstore\n      0x04\n      add\n      0x20\n      mload(0x40)\n      dup1\n      dup4\n      sub\n      dup2\n      dup7\n      dup1\n      extcodesize\n      iszero\n      dup1\n      iszero\n      tag_188\n      jumpi\n      0x00\n      dup1\n      revert\n    tag_188:\n      pop\n      gas\n      staticcall\n      iszero\n      dup1\n      iszero\n      tag_190\n      jumpi\n      returndatasize\n      0x00\n      dup1\n      returndatacopy\n      revert(0x00, returndatasize)\n    tag_190:\n      pop\n      pop\n      pop\n      pop\n      mload(0x40)\n      returndatasize\n      not(0x1f)\n      0x1f\n      dup3\n      add\n      and\n      dup3\n      add\n      dup1\n      0x40\n      mstore\n      pop\n      dup2\n      add\n      swap1\n      tag_191\n      swap2\n      swap1\n      tag_192\n      jump\t// in\n    tag_191:\n        /* \"WandInstruments.sol\":8421:8425  this */\n      address\n        /* \"WandInstruments.sol\":8421:8441  this.getGrowthFactor */\n      0xffffffffffffffffffffffffffffffffffffffff\n      and\n      0x93f7b711\n        /* \"WandInstruments.sol\":8421:8443  this.getGrowthFactor() */\n      mload(0x40)\n      dup2\n      0xffffffff\n      and\n      0xe0\n      shl\n      dup2\n      mstore\n      0x04\n      add\n      0x20\n      mload(0x40)\n      dup1\n      dup4\n      sub\n      dup2\n      dup7\n      dup1\n      extcodesize\n      iszero\n      dup1\n      iszero\n      tag_193\n      jumpi\n      0x00\n      dup1\n      revert\n    tag_193:\n      pop\n      gas\n      staticcall\n      iszero\n      dup1\n      iszero\n      tag_195\n      jumpi\n      returndatasize\n      0x00\n      dup1\n      returndatacopy\n      revert(0x00, returndatasize)\n    tag_195:\n      pop\n      pop\n      pop\n      pop\n      mload(0x40)\n      returndatasize\n      not(0x1f)\n      0x1f\n      dup3\n      add\n      and\n      dup3\n      add\n      dup1\n      0x40\n      mstore\n      pop\n      dup2\n      add\n      swap1\n      tag_196\n      swap2\n      swap1\n      tag_192\n      jump\t// in\n    tag_196:\n        /* \"WandInstruments.sol\":8399:8418  1200000000000000000 */\n      0x10a741a462780000\n        /* \"WandInstruments.sol\":8399:8443  1200000000000000000 + this.getGrowthFactor() */\n      tag_197\n      swap2\n      swap1\n      tag_198\n      jump\t// in\n    tag_197:\n        /* \"WandInstruments.sol\":8364:8372  decMul18 */\n      tag_173\n        /* \"WandInstruments.sol\":8364:8445  decMul18(this.getBackingPrice() , (1200000000000000000 + this.getGrowthFactor())) */\n      jump\t// in\n    tag_187:\n        /* \"WandInstruments.sol\":8357:8445  return decMul18(this.getBackingPrice() , (1200000000000000000 + this.getGrowthFactor())) */\n      swap1\n      pop\n        /* \"WandInstruments.sol\":8233:8455  function getBuyPrice() external view returns (uint256){\r... */\n      swap1\n      jump\t// out\n        /* \"WandInstruments.sol\":622:653  address public riskTreasuryAddr */\n    tag_49:\n      0x08\n      0x00\n      swap1\n      sload\n      swap1\n      0x0100\n      exp\n      swap1\n      div\n      0xffffffffffffffffffffffffffffffffffffffff\n      and\n      dup2\n      jump\t// out\n        /* \"WandInstruments.sol\":7656:8007  function getSellFactor() external view returns (uint256){\r... */\n    tag_54:\n        /* \"WandInstruments.sol\":7704:7711  uint256 */\n      0x00\n        /* \"WandInstruments.sol\":7802:7813  uint256 _sF */\n      dup1\n        /* \"WandInstruments.sol\":7830:7882  decDiv18(this.getTokensSoldXDays(),double5daytokens) */\n      tag_200\n        /* \"WandInstruments.sol\":7839:7843  this */\n      address\n        /* \"WandInstruments.sol\":7839:7862  this.getTokensSoldXDays */\n      0xffffffffffffffffffffffffffffffffffffffff\n      and\n      0xd82eddf2\n        /* \"WandInstruments.sol\":7839:7864  this.getTokensSoldXDays() */\n      mload(0x40)\n      dup2\n      0xffffffff\n      and\n      0xe0\n      shl\n      dup2\n      mstore\n      0x04\n      add\n      0x20\n      mload(0x40)\n      dup1\n      dup4\n      sub\n      dup2\n      dup7\n      dup1\n      extcodesize\n      iszero\n      dup1\n      iszero\n      tag_201\n      jumpi\n      0x00\n      dup1\n      revert\n    tag_201:\n      pop\n      gas\n      staticcall\n      iszero\n      dup1\n      iszero\n      tag_203\n      jumpi\n      returndatasize\n      0x00\n      dup1\n      returndatacopy\n      revert(0x00, returndatasize)\n    tag_203:\n      pop\n      pop\n      pop\n      pop\n      mload(0x40)\n      returndatasize\n      not(0x1f)\n      0x1f\n      dup3\n      add\n      and\n      dup3\n      add\n      dup1\n      0x40\n      mstore\n      pop\n      dup2\n      add\n      swap1\n      tag_204\n      swap2\n      swap1\n      tag_192\n      jump\t// in\n    tag_204:\n        /* \"WandInstruments.sol\":7865:7881  double5daytokens */\n      sload(0x0f)\n        /* \"WandInstruments.sol\":7830:7838  decDiv18 */\n      tag_105\n        /* \"WandInstruments.sol\":7830:7882  decDiv18(this.getTokensSoldXDays(),double5daytokens) */\n      jump\t// in\n    tag_200:\n        /* \"WandInstruments.sol\":7824:7882  _sF = decDiv18(this.getTokensSoldXDays(),double5daytokens) */\n      swap1\n      pop\n        /* \"WandInstruments.sol\":7902:7920  300000000000000000 */\n      0x0429d069189e0000\n        /* \"WandInstruments.sol\":7896:7899  _sF */\n      dup2\n        /* \"WandInstruments.sol\":7896:7920  _sF > 300000000000000000 */\n      gt\n        /* \"WandInstruments.sol\":7892:7979  if (_sF > 300000000000000000)\r... */\n      iszero\n      tag_205\n      jumpi\n        /* \"WandInstruments.sol\":7950:7968  300000000000000000 */\n      0x0429d069189e0000\n        /* \"WandInstruments.sol\":7944:7968  _sF = 300000000000000000 */\n      swap1\n      pop\n        /* \"WandInstruments.sol\":7892:7979  if (_sF > 300000000000000000)\r... */\n    tag_205:\n        /* \"WandInstruments.sol\":7995:7998  _sF */\n      dup1\n        /* \"WandInstruments.sol\":7988:7998  return _sF */\n      swap2\n      pop\n      pop\n        /* \"WandInstruments.sol\":7656:8007  function getSellFactor() external view returns (uint256){\r... */\n      swap1\n      jump\t// out\n        /* \"WandInstruments.sol\":1660:1720  mapping(address => lockedamounts) public withheldWithdrawals */\n    tag_60:\n      mstore(0x20, 0x16)\n      dup1\n      0x00\n      mstore\n      keccak256(0x00, 0x40)\n      0x00\n      swap2\n      pop\n      swap1\n      pop\n      dup1\n      0x00\n      add\n      sload\n      swap1\n      dup1\n      0x01\n      add\n      sload\n      swap1\n      pop\n      dup3\n      jump\t// out\n        /* \"WandInstruments.sol\":1496:1546  mapping(uint256 => uint256) public tokensSoldXDays */\n    tag_67:\n      mstore(0x20, 0x15)\n      dup1\n      0x00\n      mstore\n      keccak256(0x00, 0x40)\n      0x00\n      swap2\n      pop\n      swap1\n      pop\n      sload\n      dup2\n      jump\t// out\n        /* \"WandInstruments.sol\":9363:9865  function testUpdatetimeLockedminus(uint256 amt) public  {\r... */\n    tag_72:\n        /* \"WandInstruments.sol\":9444:9463  withheldWithdrawals */\n      0x16\n        /* \"WandInstruments.sol\":9444:9475  withheldWithdrawals[msg.sender] */\n      0x00\n        /* \"WandInstruments.sol\":9464:9474  msg.sender */\n      caller\n        /* \"WandInstruments.sol\":9444:9475  withheldWithdrawals[msg.sender] */\n      0xffffffffffffffffffffffffffffffffffffffff\n      and\n      0xffffffffffffffffffffffffffffffffffffffff\n      and\n      dup2\n      mstore\n      0x20\n      add\n      swap1\n      dup2\n      mstore\n      0x20\n      add\n      0x00\n      keccak256\n        /* \"WandInstruments.sol\":9444:9483  withheldWithdrawals[msg.sender].amounts */\n      0x01\n      add\n      sload\n        /* \"WandInstruments.sol\":9438:9441  amt */\n      dup2\n        /* \"WandInstruments.sol\":9438:9483  amt < withheldWithdrawals[msg.sender].amounts */\n      lt\n        /* \"WandInstruments.sol\":9430:9524  require(amt < withheldWithdrawals[msg.sender].amounts, \"You dont have that much to withdraw!\") */\n      tag_207\n      jumpi\n      mload(0x40)\n      0x08c379a000000000000000000000000000000000000000000000000000000000\n      dup2\n      mstore\n      0x04\n      add\n      tag_208\n      swap1\n      tag_209\n      jump\t// in\n    tag_208:\n      mload(0x40)\n      dup1\n      swap2\n      sub\n      swap1\n      revert\n    tag_207:\n        /* \"WandInstruments.sol\":9729:9732  amt */\n      dup1\n        /* \"WandInstruments.sol\":9686:9705  withheldWithdrawals */\n      0x16\n        /* \"WandInstruments.sol\":9686:9717  withheldWithdrawals[msg.sender] */\n      0x00\n        /* \"WandInstruments.sol\":9706:9716  msg.sender */\n      caller\n        /* \"WandInstruments.sol\":9686:9717  withheldWithdrawals[msg.sender] */\n      0xffffffffffffffffffffffffffffffffffffffff\n      and\n      0xffffffffffffffffffffffffffffffffffffffff\n      and\n      dup2\n      mstore\n      0x20\n      add\n      swap1\n      dup2\n      mstore\n      0x20\n      add\n      0x00\n      keccak256\n        /* \"WandInstruments.sol\":9686:9725  withheldWithdrawals[msg.sender].amounts */\n      0x01\n      add\n      0x00\n        /* \"WandInstruments.sol\":9686:9732  withheldWithdrawals[msg.sender].amounts -= amt */\n      dup3\n      dup3\n      sload\n      tag_210\n      swap2\n      swap1\n      tag_211\n      jump\t// in\n    tag_210:\n      swap3\n      pop\n      pop\n      dup2\n      swap1\n      sstore\n      pop\n        /* \"WandInstruments.sol\":9789:9790  0 */\n      0x00\n        /* \"WandInstruments.sol\":9747:9766  withheldWithdrawals */\n      0x16\n        /* \"WandInstruments.sol\":9747:9778  withheldWithdrawals[msg.sender] */\n      0x00\n        /* \"WandInstruments.sol\":9767:9777  msg.sender */\n      caller\n        /* \"WandInstruments.sol\":9747:9778  withheldWithdrawals[msg.sender] */\n      0xffffffffffffffffffffffffffffffffffffffff\n      and\n      0xffffffffffffffffffffffffffffffffffffffff\n      and\n      dup2\n      mstore\n      0x20\n      add\n      swap1\n      dup2\n      mstore\n      0x20\n      add\n      0x00\n      keccak256\n        /* \"WandInstruments.sol\":9747:9786  withheldWithdrawals[msg.sender].amounts */\n      0x01\n      add\n      sload\n        /* \"WandInstruments.sol\":9747:9790  withheldWithdrawals[msg.sender].amounts ==0 */\n      eq\n        /* \"WandInstruments.sol\":9743:9858  if (withheldWithdrawals[msg.sender].amounts ==0 ){\r... */\n      iszero\n      tag_212\n      jumpi\n        /* \"WandInstruments.sol\":9814:9833  withheldWithdrawals */\n      0x16\n        /* \"WandInstruments.sol\":9814:9845  withheldWithdrawals[msg.sender] */\n      0x00\n        /* \"WandInstruments.sol\":9834:9844  msg.sender */\n      caller\n        /* \"WandInstruments.sol\":9814:9845  withheldWithdrawals[msg.sender] */\n      0xffffffffffffffffffffffffffffffffffffffff\n      and\n      0xffffffffffffffffffffffffffffffffffffffff\n      and\n      dup2\n      mstore\n      0x20\n      add\n      swap1\n      dup2\n      mstore\n      0x20\n      add\n      0x00\n      keccak256\n      0x00\n        /* \"WandInstruments.sol\":9807:9846  delete(withheldWithdrawals[msg.sender]) */\n      dup1\n      dup3\n      add\n      0x00\n      swap1\n      sstore\n      0x01\n      dup3\n      add\n      0x00\n      swap1\n      sstore\n      pop\n      pop\n        /* \"WandInstruments.sol\":9743:9858  if (withheldWithdrawals[msg.sender].amounts ==0 ){\r... */\n    tag_212:\n        /* \"WandInstruments.sol\":9363:9865  function testUpdatetimeLockedminus(uint256 amt) public  {\r... */\n      pop\n      jump\t// out\n        /* \"WandInstruments.sol\":5550:6233  function transformScepterToBaton(uint256 amountSCPtoSwap) public payable{\r... */\n    tag_75:\n        /* \"WandInstruments.sol\":5694:5720  uint256 trader_tsc_balance */\n      0x00\n        /* \"WandInstruments.sol\":5723:5726  tSC */\n      0x12\n      0x00\n      swap1\n      sload\n      swap1\n      0x0100\n      exp\n      swap1\n      div\n      0xffffffffffffffffffffffffffffffffffffffff\n      and\n        /* \"WandInstruments.sol\":5723:5736  tSC.balanceOf */\n      0xffffffffffffffffffffffffffffffffffffffff\n      and\n      0x70a08231\n        /* \"WandInstruments.sol\":5737:5747  msg.sender */\n      caller\n        /* \"WandInstruments.sol\":5723:5748  tSC.balanceOf(msg.sender) */\n      mload(0x40)\n      dup3\n      0xffffffff\n      and\n      0xe0\n      shl\n      dup2\n      mstore\n      0x04\n      add\n      tag_214\n      swap2\n      swap1\n      tag_51\n      jump\t// in\n    tag_214:\n      0x20\n      mload(0x40)\n      dup1\n      dup4\n      sub\n      dup2\n      dup7\n      dup1\n      extcodesize\n      iszero\n      dup1\n      iszero\n      tag_215\n      jumpi\n      0x00\n      dup1\n      revert\n    tag_215:\n      pop\n      gas\n      staticcall\n      iszero\n      dup1\n      iszero\n      tag_217\n      jumpi\n      returndatasize\n      0x00\n      dup1\n      returndatacopy\n      revert(0x00, returndatasize)\n    tag_217:\n      pop\n      pop\n      pop\n      pop\n      mload(0x40)\n      returndatasize\n      not(0x1f)\n      0x1f\n      dup3\n      add\n      and\n      dup3\n      add\n      dup1\n      0x40\n      mstore\n      pop\n      dup2\n      add\n      swap1\n      tag_218\n      swap2\n      swap1\n      tag_192\n      jump\t// in\n    tag_218:\n        /* \"WandInstruments.sol\":5694:5748  uint256 trader_tsc_balance = tSC.balanceOf(msg.sender) */\n      swap1\n      pop\n        /* \"WandInstruments.sol\":5788:5803  amountSCPtoSwap */\n      dup2\n        /* \"WandInstruments.sol\":5767:5785  trader_tsc_balance */\n      dup2\n        /* \"WandInstruments.sol\":5767:5803  trader_tsc_balance > amountSCPtoSwap */\n      gt\n        /* \"WandInstruments.sol\":5759:5834  require(trader_tsc_balance > amountSCPtoSwap, \"You dont have that amount!\") */\n      tag_219\n      jumpi\n      mload(0x40)\n      0x08c379a000000000000000000000000000000000000000000000000000000000\n      dup2\n      mstore\n      0x04\n      add\n      tag_220\n      swap1\n      tag_221\n      jump\t// in\n    tag_220:\n      mload(0x40)\n      dup1\n      swap2\n      sub\n      swap1\n      revert\n    tag_219:\n        /* \"WandInstruments.sol\":5888:5954  _safeTransferFrom(tSC, msg.sender, address(this), amountSCPtoSwap) */\n      tag_222\n        /* \"WandInstruments.sol\":5906:5909  tSC */\n      0x12\n      0x00\n      swap1\n      sload\n      swap1\n      0x0100\n      exp\n      swap1\n      div\n      0xffffffffffffffffffffffffffffffffffffffff\n      and\n        /* \"WandInstruments.sol\":5911:5921  msg.sender */\n      caller\n        /* \"WandInstruments.sol\":5931:5935  this */\n      address\n        /* \"WandInstruments.sol\":5938:5953  amountSCPtoSwap */\n      dup6\n        /* \"WandInstruments.sol\":5888:5905  _safeTransferFrom */\n      tag_223\n        /* \"WandInstruments.sol\":5888:5954  _safeTransferFrom(tSC, msg.sender, address(this), amountSCPtoSwap) */\n      jump\t// in\n    tag_222:\n        /* \"WandInstruments.sol\":6015:6031  uint256 dInArray */\n      0x00\n        /* \"WandInstruments.sol\":6065:6070  86400 */\n      0x015180\n        /* \"WandInstruments.sol\":6051:6063  timeLaunched */\n      sload(0x0b)\n        /* \"WandInstruments.sol\":6034:6049  block.timestamp */\n      timestamp\n        /* \"WandInstruments.sol\":6034:6063  block.timestamp- timeLaunched */\n      tag_224\n      swap2\n      swap1\n      tag_211\n      jump\t// in\n    tag_224:\n        /* \"WandInstruments.sol\":6033:6070  (block.timestamp- timeLaunched)/86400 */\n      tag_225\n      swap2\n      swap1\n      tag_226\n      jump\t// in\n    tag_225:\n        /* \"WandInstruments.sol\":6015:6070  uint256 dInArray =(block.timestamp- timeLaunched)/86400 */\n      swap1\n      pop\n        /* \"WandInstruments.sol\":6111:6126  amountSCPtoSwap */\n      dup3\n        /* \"WandInstruments.sol\":6082:6097  tokensSoldXDays */\n      0x15\n        /* \"WandInstruments.sol\":6082:6107  tokensSoldXDays[dInArray] */\n      0x00\n        /* \"WandInstruments.sol\":6098:6106  dInArray */\n      dup4\n        /* \"WandInstruments.sol\":6082:6107  tokensSoldXDays[dInArray] */\n      dup2\n      mstore\n      0x20\n      add\n      swap1\n      dup2\n      mstore\n      0x20\n      add\n      0x00\n      keccak256\n      0x00\n        /* \"WandInstruments.sol\":6082:6126  tokensSoldXDays[dInArray] += amountSCPtoSwap */\n      dup3\n      dup3\n      sload\n      tag_227\n      swap2\n      swap1\n      tag_198\n      jump\t// in\n    tag_227:\n      swap3\n      pop\n      pop\n      dup2\n      swap1\n      sstore\n      pop\n        /* \"WandInstruments.sol\":5622:6233  {\r... */\n      pop\n      pop\n        /* \"WandInstruments.sol\":5550:6233  function transformScepterToBaton(uint256 amountSCPtoSwap) public payable{\r... */\n      pop\n      jump\t// out\n        /* \"WandInstruments.sol\":8013:8227  function getBackingPrice() external view returns (uint256){\r... */\n    tag_78:\n        /* \"WandInstruments.sol\":8063:8070  uint256 */\n      0x00\n        /* \"WandInstruments.sol\":8177:8217  decDiv18(treasury1bal,tSC.totalSupply()) */\n      tag_229\n        /* \"WandInstruments.sol\":8186:8198  treasury1bal */\n      sload(0x0a)\n        /* \"WandInstruments.sol\":8199:8202  tSC */\n      0x12\n      0x00\n      swap1\n      sload\n      swap1\n      0x0100\n      exp\n      swap1\n      div\n      0xffffffffffffffffffffffffffffffffffffffff\n      and\n        /* \"WandInstruments.sol\":8199:8214  tSC.totalSupply */\n      0xffffffffffffffffffffffffffffffffffffffff\n      and\n      0x18160ddd\n        /* \"WandInstruments.sol\":8199:8216  tSC.totalSupply() */\n      mload(0x40)\n      dup2\n      0xffffffff\n      and\n      0xe0\n      shl\n      dup2\n      mstore\n      0x04\n      add\n      0x20\n      mload(0x40)\n      dup1\n      dup4\n      sub\n      dup2\n      dup7\n      dup1\n      extcodesize\n      iszero\n      dup1\n      iszero\n      tag_230\n      jumpi\n      0x00\n      dup1\n      revert\n    tag_230:\n      pop\n      gas\n      staticcall\n      iszero\n      dup1\n      iszero\n      tag_232\n      jumpi\n      returndatasize\n      0x00\n      dup1\n      returndatacopy\n      revert(0x00, returndatasize)\n    tag_232:\n      pop\n      pop\n      pop\n      pop\n      mload(0x40)\n      returndatasize\n      not(0x1f)\n      0x1f\n      dup3\n      add\n      and\n      dup3\n      add\n      dup1\n      0x40\n      mstore\n      pop\n      dup2\n      add\n      swap1\n      tag_233\n      swap2\n      swap1\n      tag_192\n      jump\t// in\n    tag_233:\n        /* \"WandInstruments.sol\":8177:8185  decDiv18 */\n      tag_105\n        /* \"WandInstruments.sol\":8177:8217  decDiv18(treasury1bal,tSC.totalSupply()) */\n      jump\t// in\n    tag_229:\n        /* \"WandInstruments.sol\":8170:8217  return decDiv18(treasury1bal,tSC.totalSupply()) */\n      swap1\n      pop\n        /* \"WandInstruments.sol\":8013:8227  function getBackingPrice() external view returns (uint256){\r... */\n      swap1\n      jump\t// out\n        /* \"WandInstruments.sol\":660:688  address public devWalletAddr */\n    tag_82:\n      0x09\n      0x00\n      swap1\n      sload\n      swap1\n      0x0100\n      exp\n      swap1\n      div\n      0xffffffffffffffffffffffffffffffffffffffff\n      and\n      dup2\n      jump\t// out\n        /* \"WandInstruments.sol\":1437:1489  mapping(uint256 => uint256) public tokensBoughtXDays */\n    tag_87:\n      mstore(0x20, 0x14)\n      dup1\n      0x00\n      mstore\n      keccak256(0x00, 0x40)\n      0x00\n      swap2\n      pop\n      swap1\n      pop\n      sload\n      dup2\n      jump\t// out\n        /* \"WandInstruments.sol\":729:775  uint256 public treasury1bal = 50000*(DECIMALS) */\n    tag_91:\n      sload(0x0a)\n      dup2\n      jump\t// out\n        /* \"WandInstruments.sol\":804:831  uint256 public timeLaunched */\n    tag_95:\n      sload(0x0b)\n      dup2\n      jump\t// out\n        /* \"WandInstruments.sol\":8461:8684  function getSellPrice() external view returns (uint256){\r... */\n    tag_99:\n        /* \"WandInstruments.sol\":8508:8515  uint256 */\n      0x00\n        /* \"WandInstruments.sol\":8598:8676  decMul18(this.getBackingPrice() , (900000000000000000 - this.getSellFactor())) */\n      tag_235\n        /* \"WandInstruments.sol\":8607:8611  this */\n      address\n        /* \"WandInstruments.sol\":8607:8627  this.getBackingPrice */\n      0xffffffffffffffffffffffffffffffffffffffff\n      and\n      0x1f564a06\n        /* \"WandInstruments.sol\":8607:8629  this.getBackingPrice() */\n      mload(0x40)\n      dup2\n      0xffffffff\n      and\n      0xe0\n      shl\n      dup2\n      mstore\n      0x04\n      add\n      0x20\n      mload(0x40)\n      dup1\n      dup4\n      sub\n      dup2\n      dup7\n      dup1\n      extcodesize\n      iszero\n      dup1\n      iszero\n      tag_236\n      jumpi\n      0x00\n      dup1\n      revert\n    tag_236:\n      pop\n      gas\n      staticcall\n      iszero\n      dup1\n      iszero\n      tag_238\n      jumpi\n      returndatasize\n      0x00\n      dup1\n      returndatacopy\n      revert(0x00, returndatasize)\n    tag_238:\n      pop\n      pop\n      pop\n      pop\n      mload(0x40)\n      returndatasize\n      not(0x1f)\n      0x1f\n      dup3\n      add\n      and\n      dup3\n      add\n      dup1\n      0x40\n      mstore\n      pop\n      dup2\n      add\n      swap1\n      tag_239\n      swap2\n      swap1\n      tag_192\n      jump\t// in\n    tag_239:\n        /* \"WandInstruments.sol\":8654:8658  this */\n      address\n        /* \"WandInstruments.sol\":8654:8672  this.getSellFactor */\n      0xffffffffffffffffffffffffffffffffffffffff\n      and\n      0x0ccaf04f\n        /* \"WandInstruments.sol\":8654:8674  this.getSellFactor() */\n      mload(0x40)\n      dup2\n      0xffffffff\n      and\n      0xe0\n      shl\n      dup2\n      mstore\n      0x04\n      add\n      0x20\n      mload(0x40)\n      dup1\n      dup4\n      sub\n      dup2\n      dup7\n      dup1\n      extcodesize\n      iszero\n      dup1\n      iszero\n      tag_240\n      jumpi\n      0x00\n      dup1\n      revert\n    tag_240:\n      pop\n      gas\n      staticcall\n      iszero\n      dup1\n      iszero\n      tag_242\n      jumpi\n      returndatasize\n      0x00\n      dup1\n      returndatacopy\n      revert(0x00, returndatasize)\n    tag_242:\n      pop\n      pop\n      pop\n      pop\n      mload(0x40)\n      returndatasize\n      not(0x1f)\n      0x1f\n      dup3\n      add\n      and\n      dup3\n      add\n      dup1\n      0x40\n      mstore\n      pop\n      dup2\n      add\n      swap1\n      tag_243\n      swap2\n      swap1\n      tag_192\n      jump\t// in\n    tag_243:\n        /* \"WandInstruments.sol\":8633:8651  900000000000000000 */\n      0x0c7d713b49da0000\n        /* \"WandInstruments.sol\":8633:8674  900000000000000000 - this.getSellFactor() */\n      tag_244\n      swap2\n      swap1\n      tag_211\n      jump\t// in\n    tag_244:\n        /* \"WandInstruments.sol\":8598:8606  decMul18 */\n      tag_173\n        /* \"WandInstruments.sol\":8598:8676  decMul18(this.getBackingPrice() , (900000000000000000 - this.getSellFactor())) */\n      jump\t// in\n    tag_235:\n        /* \"WandInstruments.sol\":8591:8676  return decMul18(this.getBackingPrice() , (900000000000000000 - this.getSellFactor())) */\n      swap1\n      pop\n        /* \"WandInstruments.sol\":8461:8684  function getSellPrice() external view returns (uint256){\r... */\n      swap1\n      jump\t// out\n        /* \"WandInstruments.sol\":3621:3800  function decDiv18(uint x, uint y) public pure returns (uint decQuotient) {\r... */\n    tag_105:\n        /* \"WandInstruments.sol\":3676:3692  uint decQuotient */\n      0x00\n        /* \"WandInstruments.sol\":3705:3721  uint prod_xTEN18 */\n      dup1\n        /* \"WandInstruments.sol\":3724:3740  mul(x, DECIMALS) */\n      tag_246\n        /* \"WandInstruments.sol\":3728:3729  x */\n      dup5\n        /* \"WandInstruments.sol\":283:289  10**18 */\n      0x0de0b6b3a7640000\n        /* \"WandInstruments.sol\":3724:3727  mul */\n      tag_247\n        /* \"WandInstruments.sol\":3724:3740  mul(x, DECIMALS) */\n      jump\t// in\n    tag_246:\n        /* \"WandInstruments.sol\":3705:3740  uint prod_xTEN18 = mul(x, DECIMALS) */\n      swap1\n      pop\n        /* \"WandInstruments.sol\":3791:3792  y */\n      dup3\n        /* \"WandInstruments.sol\":3765:3788  add(prod_xTEN18, y / 2) */\n      tag_248\n        /* \"WandInstruments.sol\":3769:3780  prod_xTEN18 */\n      dup3\n        /* \"WandInstruments.sol\":3786:3787  2 */\n      0x02\n        /* \"WandInstruments.sol\":3782:3783  y */\n      dup7\n        /* \"WandInstruments.sol\":3782:3787  y / 2 */\n      tag_249\n      swap2\n      swap1\n      tag_226\n      jump\t// in\n    tag_249:\n        /* \"WandInstruments.sol\":3765:3768  add */\n      tag_250\n        /* \"WandInstruments.sol\":3765:3788  add(prod_xTEN18, y / 2) */\n      jump\t// in\n    tag_248:\n        /* \"WandInstruments.sol\":3765:3792  add(prod_xTEN18, y / 2) / y */\n      tag_251\n      swap2\n      swap1\n      tag_226\n      jump\t// in\n    tag_251:\n        /* \"WandInstruments.sol\":3751:3792  decQuotient = add(prod_xTEN18, y / 2) / y */\n      swap2\n      pop\n        /* \"WandInstruments.sol\":3694:3800  {\r... */\n      pop\n        /* \"WandInstruments.sol\":3621:3800  function decDiv18(uint x, uint y) public pure returns (uint decQuotient) {\r... */\n      swap3\n      swap2\n      pop\n      pop\n      jump\t// out\n        /* \"WandInstruments.sol\":6248:7260  function buyScepter(uint256 amountSCPtoBuy) public payable{\r... */\n    tag_109:\n        /* \"WandInstruments.sol\":6378:6405  uint256 trader_usdc_balance */\n      0x00\n        /* \"WandInstruments.sol\":6408:6416  mockUSDC */\n      0x13\n      0x00\n      swap1\n      sload\n      swap1\n      0x0100\n      exp\n      swap1\n      div\n      0xffffffffffffffffffffffffffffffffffffffff\n      and\n        /* \"WandInstruments.sol\":6408:6426  mockUSDC.balanceOf */\n      0xffffffffffffffffffffffffffffffffffffffff\n      and\n      0x70a08231\n        /* \"WandInstruments.sol\":6427:6437  msg.sender */\n      caller\n        /* \"WandInstruments.sol\":6408:6438  mockUSDC.balanceOf(msg.sender) */\n      mload(0x40)\n      dup3\n      0xffffffff\n      and\n      0xe0\n      shl\n      dup2\n      mstore\n      0x04\n      add\n      tag_253\n      swap2\n      swap1\n      tag_51\n      jump\t// in\n    tag_253:\n      0x20\n      mload(0x40)\n      dup1\n      dup4\n      sub\n      dup2\n      dup7\n      dup1\n      extcodesize\n      iszero\n      dup1\n      iszero\n      tag_254\n      jumpi\n      0x00\n      dup1\n      revert\n    tag_254:\n      pop\n      gas\n      staticcall\n      iszero\n      dup1\n      iszero\n      tag_256\n      jumpi\n      returndatasize\n      0x00\n      dup1\n      returndatacopy\n      revert(0x00, returndatasize)\n    tag_256:\n      pop\n      pop\n      pop\n      pop\n      mload(0x40)\n      returndatasize\n      not(0x1f)\n      0x1f\n      dup3\n      add\n      and\n      dup3\n      add\n      dup1\n      0x40\n      mstore\n      pop\n      dup2\n      add\n      swap1\n      tag_257\n      swap2\n      swap1\n      tag_192\n      jump\t// in\n    tag_257:\n        /* \"WandInstruments.sol\":6378:6438  uint256 trader_usdc_balance = mockUSDC.balanceOf(msg.sender) */\n      swap1\n      pop\n        /* \"WandInstruments.sol\":6479:6493  amountSCPtoBuy */\n      dup2\n        /* \"WandInstruments.sol\":6457:6476  trader_usdc_balance */\n      dup2\n        /* \"WandInstruments.sol\":6457:6493  trader_usdc_balance > amountSCPtoBuy */\n      gt\n        /* \"WandInstruments.sol\":6449:6524  require(trader_usdc_balance > amountSCPtoBuy, \"You dont have that amount!\") */\n      tag_258\n      jumpi\n      mload(0x40)\n      0x08c379a000000000000000000000000000000000000000000000000000000000\n      dup2\n      mstore\n      0x04\n      add\n      tag_259\n      swap1\n      tag_221\n      jump\t// in\n    tag_259:\n      mload(0x40)\n      dup1\n      swap2\n      sub\n      swap1\n      revert\n    tag_258:\n        /* \"WandInstruments.sol\":6617:6620  tSC */\n      0x12\n      0x00\n      swap1\n      sload\n      swap1\n      0x0100\n      exp\n      swap1\n      div\n      0xffffffffffffffffffffffffffffffffffffffff\n      and\n        /* \"WandInstruments.sol\":6617:6629  tSC.transfer */\n      0xffffffffffffffffffffffffffffffffffffffff\n      and\n      0xa9059cbb\n        /* \"WandInstruments.sol\":6630:6640  msg.sender */\n      caller\n        /* \"WandInstruments.sol\":6642:6656  amountSCPtoBuy */\n      dup5\n        /* \"WandInstruments.sol\":6617:6657  tSC.transfer(msg.sender, amountSCPtoBuy) */\n      mload(0x40)\n      dup4\n      0xffffffff\n      and\n      0xe0\n      shl\n      dup2\n      mstore\n      0x04\n      add\n      tag_260\n      swap3\n      swap2\n      swap1\n      tag_261\n      jump\t// in\n    tag_260:\n      0x20\n      mload(0x40)\n      dup1\n      dup4\n      sub\n      dup2\n      0x00\n      dup8\n      dup1\n      extcodesize\n      iszero\n      dup1\n      iszero\n      tag_262\n      jumpi\n      0x00\n      dup1\n      revert\n    tag_262:\n      pop\n      gas\n      call\n      iszero\n      dup1\n      iszero\n      tag_264\n      jumpi\n      returndatasize\n      0x00\n      dup1\n      returndatacopy\n      revert(0x00, returndatasize)\n    tag_264:\n      pop\n      pop\n      pop\n      pop\n      mload(0x40)\n      returndatasize\n      not(0x1f)\n      0x1f\n      dup3\n      add\n      and\n      dup3\n      add\n      dup1\n      0x40\n      mstore\n      pop\n      dup2\n      add\n      swap1\n      tag_265\n      swap2\n      swap1\n      tag_266\n      jump\t// in\n    tag_265:\n      pop\n        /* \"WandInstruments.sol\":6791:6861  _safeTransferFrom(mockUSDC, msg.sender, address(this), amountSCPtoBuy) */\n      tag_267\n        /* \"WandInstruments.sol\":6809:6817  mockUSDC */\n      0x13\n      0x00\n      swap1\n      sload\n      swap1\n      0x0100\n      exp\n      swap1\n      div\n      0xffffffffffffffffffffffffffffffffffffffff\n      and\n        /* \"WandInstruments.sol\":6819:6829  msg.sender */\n      caller\n        /* \"WandInstruments.sol\":6839:6843  this */\n      address\n        /* \"WandInstruments.sol\":6846:6860  amountSCPtoBuy */\n      dup6\n        /* \"WandInstruments.sol\":6791:6808  _safeTransferFrom */\n      tag_223\n        /* \"WandInstruments.sol\":6791:6861  _safeTransferFrom(mockUSDC, msg.sender, address(this), amountSCPtoBuy) */\n      jump\t// in\n    tag_267:\n        /* \"WandInstruments.sol\":7138:7154  uint256 dInArray */\n      0x00\n        /* \"WandInstruments.sol\":7188:7193  86400 */\n      0x015180\n        /* \"WandInstruments.sol\":7174:7186  timeLaunched */\n      sload(0x0b)\n        /* \"WandInstruments.sol\":7157:7172  block.timestamp */\n      timestamp\n        /* \"WandInstruments.sol\":7157:7186  block.timestamp- timeLaunched */\n      tag_268\n      swap2\n      swap1\n      tag_211\n      jump\t// in\n    tag_268:\n        /* \"WandInstruments.sol\":7156:7193  (block.timestamp- timeLaunched)/86400 */\n      tag_269\n      swap2\n      swap1\n      tag_226\n      jump\t// in\n    tag_269:\n        /* \"WandInstruments.sol\":7138:7193  uint256 dInArray =(block.timestamp- timeLaunched)/86400 */\n      swap1\n      pop\n        /* \"WandInstruments.sol\":7236:7250  amountSCPtoBuy */\n      dup3\n        /* \"WandInstruments.sol\":7205:7222  tokensBoughtXDays */\n      0x14\n        /* \"WandInstruments.sol\":7205:7232  tokensBoughtXDays[dInArray] */\n      0x00\n        /* \"WandInstruments.sol\":7223:7231  dInArray */\n      dup4\n        /* \"WandInstruments.sol\":7205:7232  tokensBoughtXDays[dInArray] */\n      dup2\n      mstore\n      0x20\n      add\n      swap1\n      dup2\n      mstore\n      0x20\n      add\n      0x00\n      keccak256\n      0x00\n        /* \"WandInstruments.sol\":7205:7250  tokensBoughtXDays[dInArray] += amountSCPtoBuy */\n      dup3\n      dup3\n      sload\n      tag_270\n      swap2\n      swap1\n      tag_198\n      jump\t// in\n    tag_270:\n      swap3\n      pop\n      pop\n      dup2\n      swap1\n      sstore\n      pop\n        /* \"WandInstruments.sol\":6306:7260  {\r... */\n      pop\n      pop\n        /* \"WandInstruments.sol\":6248:7260  function buyScepter(uint256 amountSCPtoBuy) public payable{\r... */\n      pop\n      jump\t// out\n        /* \"WandInstruments.sol\":838:870  uint256 public daysInCalculation */\n    tag_112:\n      sload(0x0c)\n      dup2\n      jump\t// out\n        /* \"WandInstruments.sol\":8879:9351  function testUpdatetimeLockedplus(uint256 amt) public  {\r... */\n    tag_117:\n        /* \"WandInstruments.sol\":9274:9280  864000 */\n      0x0d2f00\n        /* \"WandInstruments.sol\":9256:9271  block.timestamp */\n      timestamp\n        /* \"WandInstruments.sol\":9256:9280  block.timestamp + 864000 */\n      tag_272\n      swap2\n      swap1\n      tag_198\n      jump\t// in\n    tag_272:\n        /* \"WandInstruments.sol\":9209:9228  withheldWithdrawals */\n      0x16\n        /* \"WandInstruments.sol\":9209:9240  withheldWithdrawals[msg.sender] */\n      0x00\n        /* \"WandInstruments.sol\":9229:9239  msg.sender */\n      caller\n        /* \"WandInstruments.sol\":9209:9240  withheldWithdrawals[msg.sender] */\n      0xffffffffffffffffffffffffffffffffffffffff\n      and\n      0xffffffffffffffffffffffffffffffffffffffff\n      and\n      dup2\n      mstore\n      0x20\n      add\n      swap1\n      dup2\n      mstore\n      0x20\n      add\n      0x00\n      keccak256\n        /* \"WandInstruments.sol\":9209:9253  withheldWithdrawals[msg.sender].timeUnlocked */\n      0x00\n      add\n        /* \"WandInstruments.sol\":9209:9280  withheldWithdrawals[msg.sender].timeUnlocked = block.timestamp + 864000 */\n      dup2\n      swap1\n      sstore\n      pop\n        /* \"WandInstruments.sol\":9334:9337  amt */\n      dup1\n        /* \"WandInstruments.sol\":9291:9310  withheldWithdrawals */\n      0x16\n        /* \"WandInstruments.sol\":9291:9322  withheldWithdrawals[msg.sender] */\n      0x00\n        /* \"WandInstruments.sol\":9311:9321  msg.sender */\n      caller\n        /* \"WandInstruments.sol\":9291:9322  withheldWithdrawals[msg.sender] */\n      0xffffffffffffffffffffffffffffffffffffffff\n      and\n      0xffffffffffffffffffffffffffffffffffffffff\n      and\n      dup2\n      mstore\n      0x20\n      add\n      swap1\n      dup2\n      mstore\n      0x20\n      add\n      0x00\n      keccak256\n        /* \"WandInstruments.sol\":9291:9330  withheldWithdrawals[msg.sender].amounts */\n      0x01\n      add\n      0x00\n        /* \"WandInstruments.sol\":9291:9337  withheldWithdrawals[msg.sender].amounts += amt */\n      dup3\n      dup3\n      sload\n      tag_273\n      swap2\n      swap1\n      tag_198\n      jump\t// in\n    tag_273:\n      swap3\n      pop\n      pop\n      dup2\n      swap1\n      sstore\n      pop\n        /* \"WandInstruments.sol\":8879:9351  function testUpdatetimeLockedplus(uint256 amt) public  {\r... */\n      pop\n      jump\t// out\n        /* \"WandInstruments.sol\":1311:1328  IERC20 public tSC */\n    tag_120:\n      0x12\n      0x00\n      swap1\n      sload\n      swap1\n      0x0100\n      exp\n      swap1\n      div\n      0xffffffffffffffffffffffffffffffffffffffff\n      and\n      dup2\n      jump\t// out\n        /* \"WandInstruments.sol\":1089:1106  int128 public res */\n    tag_125:\n      0x10\n      0x00\n      swap1\n      sload\n      swap1\n      0x0100\n      exp\n      swap1\n      div\n      0x0f\n      signextend\n      dup2\n      jump\t// out\n        /* \"WandInstruments.sol\":9976:10295  function getTokensBoughtXDays() external view returns (uint256){\r... */\n    tag_130:\n        /* \"WandInstruments.sol\":10031:10038  uint256 */\n      0x00\n        /* \"WandInstruments.sol\":10050:10067  uint256 boughtnum */\n      dup1\n        /* \"WandInstruments.sol\":10078:10087  uint256 d */\n      0x00\n        /* \"WandInstruments.sol\":10098:10113  uint256 numdays */\n      dup1\n        /* \"WandInstruments.sol\":10134:10139  86400 */\n      0x015180\n        /* \"WandInstruments.sol\":10116:10133  daysInCalculation */\n      sload(0x0c)\n        /* \"WandInstruments.sol\":10116:10139  daysInCalculation/86400 */\n      tag_275\n      swap2\n      swap1\n      tag_226\n      jump\t// in\n    tag_275:\n        /* \"WandInstruments.sol\":10098:10139  uint256 numdays = daysInCalculation/86400 */\n      swap1\n      pop\n        /* \"WandInstruments.sol\":10159:10160  0 */\n      0x00\n        /* \"WandInstruments.sol\":10155:10160  d = 0 */\n      swap2\n      pop\n        /* \"WandInstruments.sol\":10150:10262  for (d = 0; d < numdays; d++) {  //for loop example\r... */\n    tag_276:\n        /* \"WandInstruments.sol\":10166:10173  numdays */\n      dup1\n        /* \"WandInstruments.sol\":10162:10163  d */\n      dup3\n        /* \"WandInstruments.sol\":10162:10173  d < numdays */\n      lt\n        /* \"WandInstruments.sol\":10150:10262  for (d = 0; d < numdays; d++) {  //for loop example\r... */\n      iszero\n      tag_277\n      jumpi\n        /* \"WandInstruments.sol\":10226:10243  tokensBoughtXDays */\n      0x14\n        /* \"WandInstruments.sol\":10226:10246  tokensBoughtXDays[d] */\n      0x00\n        /* \"WandInstruments.sol\":10244:10245  d */\n      dup4\n        /* \"WandInstruments.sol\":10226:10246  tokensBoughtXDays[d] */\n      dup2\n      mstore\n      0x20\n      add\n      swap1\n      dup2\n      mstore\n      0x20\n      add\n      0x00\n      keccak256\n      sload\n        /* \"WandInstruments.sol\":10213:10246  boughtnum += tokensBoughtXDays[d] */\n      dup4\n      tag_279\n      swap2\n      swap1\n      tag_198\n      jump\t// in\n    tag_279:\n      swap3\n      pop\n        /* \"WandInstruments.sol\":10175:10178  d++ */\n      dup2\n      dup1\n      tag_280\n      swap1\n      tag_281\n      jump\t// in\n    tag_280:\n      swap3\n      pop\n      pop\n        /* \"WandInstruments.sol\":10150:10262  for (d = 0; d < numdays; d++) {  //for loop example\r... */\n      jump(tag_276)\n    tag_277:\n        /* \"WandInstruments.sol\":10278:10287  boughtnum */\n      dup3\n        /* \"WandInstruments.sol\":10271:10287  return boughtnum */\n      swap4\n      pop\n      pop\n      pop\n      pop\n        /* \"WandInstruments.sol\":9976:10295  function getTokensBoughtXDays() external view returns (uint256){\r... */\n      swap1\n      jump\t// out\n        /* \"WandInstruments.sol\":7293:7650  function getGrowthFactor() external view returns (uint256){\r... */\n    tag_134:\n        /* \"WandInstruments.sol\":7343:7350  uint256 */\n      0x00\n        /* \"WandInstruments.sol\":7442:7453  uint256 _gF */\n      dup1\n        /* \"WandInstruments.sol\":7469:7523  decDiv18(this.getTokensBoughtXDays(),double5daytokens) */\n      tag_283\n        /* \"WandInstruments.sol\":7478:7482  this */\n      address\n        /* \"WandInstruments.sol\":7478:7503  this.getTokensBoughtXDays */\n      0xffffffffffffffffffffffffffffffffffffffff\n      and\n      0x71cd58f9\n        /* \"WandInstruments.sol\":7478:7505  this.getTokensBoughtXDays() */\n      mload(0x40)\n      dup2\n      0xffffffff\n      and\n      0xe0\n      shl\n      dup2\n      mstore\n      0x04\n      add\n      0x20\n      mload(0x40)\n      dup1\n      dup4\n      sub\n      dup2\n      dup7\n      dup1\n      extcodesize\n      iszero\n      dup1\n      iszero\n      tag_284\n      jumpi\n      0x00\n      dup1\n      revert\n    tag_284:\n      pop\n      gas\n      staticcall\n      iszero\n      dup1\n      iszero\n      tag_286\n      jumpi\n      returndatasize\n      0x00\n      dup1\n      returndatacopy\n      revert(0x00, returndatasize)\n    tag_286:\n      pop\n      pop\n      pop\n      pop\n      mload(0x40)\n      returndatasize\n      not(0x1f)\n      0x1f\n      dup3\n      add\n      and\n      dup3\n      add\n      dup1\n      0x40\n      mstore\n      pop\n      dup2\n      add\n      swap1\n      tag_287\n      swap2\n      swap1\n      tag_192\n      jump\t// in\n    tag_287:\n        /* \"WandInstruments.sol\":7506:7522  double5daytokens */\n      sload(0x0f)\n        /* \"WandInstruments.sol\":7469:7477  decDiv18 */\n      tag_105\n        /* \"WandInstruments.sol\":7469:7523  decDiv18(this.getTokensBoughtXDays(),double5daytokens) */\n      jump\t// in\n    tag_283:\n        /* \"WandInstruments.sol\":7463:7523  _gF = decDiv18(this.getTokensBoughtXDays(),double5daytokens) */\n      swap1\n      pop\n        /* \"WandInstruments.sol\":7543:7562  1200000000000000000 */\n      0x10a741a462780000\n        /* \"WandInstruments.sol\":7537:7540  _gF */\n      dup2\n        /* \"WandInstruments.sol\":7537:7562  _gF > 1200000000000000000 */\n      gt\n        /* \"WandInstruments.sol\":7533:7622  if (_gF > 1200000000000000000)\r... */\n      iszero\n      tag_288\n      jumpi\n        /* \"WandInstruments.sol\":7592:7611  1200000000000000000 */\n      0x10a741a462780000\n        /* \"WandInstruments.sol\":7586:7611  _gF = 1200000000000000000 */\n      swap1\n      pop\n        /* \"WandInstruments.sol\":7533:7622  if (_gF > 1200000000000000000)\r... */\n    tag_288:\n        /* \"WandInstruments.sol\":7638:7641  _gF */\n      dup1\n        /* \"WandInstruments.sol\":7631:7641  return _gF */\n      swap2\n      pop\n      pop\n        /* \"WandInstruments.sol\":7293:7650  function getGrowthFactor() external view returns (uint256){\r... */\n      swap1\n      jump\t// out\n        /* \"WandInstruments.sol\":10593:10682  function whitelist(address _addr) public onlyOwner {  \r... */\n    tag_139:\n      pop\n      jump\t// out\n        /* \"WandInstruments.sol\":581:615  address public scepterTreasuryAddr */\n    tag_142:\n      0x07\n      0x00\n      swap1\n      sload\n      swap1\n      0x0100\n      exp\n      swap1\n      div\n      0xffffffffffffffffffffffffffffffffffffffff\n      and\n      dup2\n      jump\t// out\n        /* \"WandInstruments.sol\":332:357  uint256 public sellFactor */\n    tag_146:\n      sload(0x01)\n      dup2\n      jump\t// out\n        /* \"WandInstruments.sol\":10301:10585  function getTokensSoldXDays() external view returns (uint256){\r... */\n    tag_150:\n        /* \"WandInstruments.sol\":10354:10361  uint256 */\n      0x00\n        /* \"WandInstruments.sol\":10373:10388  uint256 soldNum */\n      dup1\n        /* \"WandInstruments.sol\":10399:10408  uint256 d */\n      0x00\n        /* \"WandInstruments.sol\":10419:10434  uint256 numdays */\n      dup1\n        /* \"WandInstruments.sol\":10455:10460  86400 */\n      0x015180\n        /* \"WandInstruments.sol\":10437:10454  daysInCalculation */\n      sload(0x0c)\n        /* \"WandInstruments.sol\":10437:10460  daysInCalculation/86400 */\n      tag_292\n      swap2\n      swap1\n      tag_226\n      jump\t// in\n    tag_292:\n        /* \"WandInstruments.sol\":10419:10460  uint256 numdays = daysInCalculation/86400 */\n      swap1\n      pop\n        /* \"WandInstruments.sol\":10480:10481  0 */\n      0x00\n        /* \"WandInstruments.sol\":10476:10481  d = 0 */\n      swap2\n      pop\n        /* \"WandInstruments.sol\":10471:10554  for (d = 0; d < numdays; d++) { \r... */\n    tag_293:\n        /* \"WandInstruments.sol\":10487:10494  numdays */\n      dup1\n        /* \"WandInstruments.sol\":10483:10484  d */\n      dup3\n        /* \"WandInstruments.sol\":10483:10494  d < numdays */\n      lt\n        /* \"WandInstruments.sol\":10471:10554  for (d = 0; d < numdays; d++) { \r... */\n      iszero\n      tag_294\n      jumpi\n        /* \"WandInstruments.sol\":10526:10541  tokensSoldXDays */\n      0x15\n        /* \"WandInstruments.sol\":10526:10544  tokensSoldXDays[d] */\n      0x00\n        /* \"WandInstruments.sol\":10542:10543  d */\n      dup4\n        /* \"WandInstruments.sol\":10526:10544  tokensSoldXDays[d] */\n      dup2\n      mstore\n      0x20\n      add\n      swap1\n      dup2\n      mstore\n      0x20\n      add\n      0x00\n      keccak256\n      sload\n        /* \"WandInstruments.sol\":10515:10544  soldNum += tokensSoldXDays[d] */\n      dup4\n      tag_296\n      swap2\n      swap1\n      tag_198\n      jump\t// in\n    tag_296:\n      swap3\n      pop\n        /* \"WandInstruments.sol\":10496:10499  d++ */\n      dup2\n      dup1\n      tag_297\n      swap1\n      tag_281\n      jump\t// in\n    tag_297:\n      swap3\n      pop\n      pop\n        /* \"WandInstruments.sol\":10471:10554  for (d = 0; d < numdays; d++) { \r... */\n      jump(tag_293)\n    tag_294:\n        /* \"WandInstruments.sol\":10570:10577  soldNum */\n      dup3\n        /* \"WandInstruments.sol\":10563:10577  return soldNum */\n      swap4\n      pop\n      pop\n      pop\n      pop\n        /* \"WandInstruments.sol\":10301:10585  function getTokensSoldXDays() external view returns (uint256){\r... */\n      swap1\n      jump\t// out\n        /* \"WandInstruments.sol\":1357:1379  IERC20 public mockUSDC */\n    tag_154:\n      0x13\n      0x00\n      swap1\n      sload\n      swap1\n      0x0100\n      exp\n      swap1\n      div\n      0xffffffffffffffffffffffffffffffffffffffff\n      and\n      dup2\n      jump\t// out\n        /* \"WandInstruments.sol\":3808:3992  function queryERC20Balance(address _tokenAddress, address _addressToQuery) view public returns (uint) {\r... */\n    tag_160:\n        /* \"WandInstruments.sol\":3904:3908  uint */\n      0x00\n        /* \"WandInstruments.sol\":3943:3956  _tokenAddress */\n      dup3\n        /* \"WandInstruments.sol\":3928:3967  ERC20Interface(_tokenAddress).balanceOf */\n      0xffffffffffffffffffffffffffffffffffffffff\n      and\n      0x70a08231\n        /* \"WandInstruments.sol\":3968:3983  _addressToQuery */\n      dup4\n        /* \"WandInstruments.sol\":3928:3984  ERC20Interface(_tokenAddress).balanceOf(_addressToQuery) */\n      mload(0x40)\n      dup3\n      0xffffffff\n      and\n      0xe0\n      shl\n      dup2\n      mstore\n      0x04\n      add\n      tag_299\n      swap2\n      swap1\n      tag_51\n      jump\t// in\n    tag_299:\n      0x20\n      mload(0x40)\n      dup1\n      dup4\n      sub\n      dup2\n      dup7\n      dup1\n      extcodesize\n      iszero\n      dup1\n      iszero\n      tag_300\n      jumpi\n      0x00\n      dup1\n      revert\n    tag_300:\n      pop\n      gas\n      staticcall\n      iszero\n      dup1\n      iszero\n      tag_302\n      jumpi\n      returndatasize\n      0x00\n      dup1\n      returndatacopy\n      revert(0x00, returndatasize)\n    tag_302:\n      pop\n      pop\n      pop\n      pop\n      mload(0x40)\n      returndatasize\n      not(0x1f)\n      0x1f\n      dup3\n      add\n      and\n      dup3\n      add\n      dup1\n      0x40\n      mstore\n      pop\n      dup2\n      add\n      swap1\n      tag_303\n      swap2\n      swap1\n      tag_192\n      jump\t// in\n    tag_303:\n        /* \"WandInstruments.sol\":3921:3984  return ERC20Interface(_tokenAddress).balanceOf(_addressToQuery) */\n      swap1\n      pop\n        /* \"WandInstruments.sol\":3808:3992  function queryERC20Balance(address _tokenAddress, address _addressToQuery) view public returns (uint) {\r... */\n      swap3\n      swap2\n      pop\n      pop\n      jump\t// out\n        /* \"WandInstruments.sol\":298:325  uint256 public growthFactor */\n    tag_164:\n      sload(0x00)\n      dup2\n      jump\t// out\n        /* \"WandInstruments.sol\":1113:1183  address public testwallet = 0x617F2E2fD72FD9D5503197092aC168c91465E7f2 */\n    tag_168:\n      0x11\n      0x00\n      swap1\n      sload\n      swap1\n      0x0100\n      exp\n      swap1\n      div\n      0xffffffffffffffffffffffffffffffffffffffff\n      and\n      dup2\n      jump\t// out\n        /* \"WandInstruments.sol\":3443:3613  function decMul18(uint x, uint y) public pure returns (uint decProd) {\r... */\n    tag_173:\n        /* \"WandInstruments.sol\":3498:3510  uint decProd */\n      0x00\n        /* \"WandInstruments.sol\":3523:3535  uint prod_xy */\n      dup1\n        /* \"WandInstruments.sol\":3538:3547  mul(x, y) */\n      tag_305\n        /* \"WandInstruments.sol\":3542:3543  x */\n      dup5\n        /* \"WandInstruments.sol\":3545:3546  y */\n      dup5\n        /* \"WandInstruments.sol\":3538:3541  mul */\n      tag_247\n        /* \"WandInstruments.sol\":3538:3547  mul(x, y) */\n      jump\t// in\n    tag_305:\n        /* \"WandInstruments.sol\":3523:3547  uint prod_xy = mul(x, y) */\n      swap1\n      pop\n        /* \"WandInstruments.sol\":283:289  10**18 */\n      0x0de0b6b3a7640000\n        /* \"WandInstruments.sol\":3568:3594  add(prod_xy, DECIMALS / 2) */\n      tag_306\n        /* \"WandInstruments.sol\":3572:3579  prod_xy */\n      dup3\n        /* \"WandInstruments.sol\":3592:3593  2 */\n      0x02\n        /* \"WandInstruments.sol\":283:289  10**18 */\n      0x0de0b6b3a7640000\n        /* \"WandInstruments.sol\":3581:3593  DECIMALS / 2 */\n      tag_307\n      swap2\n      swap1\n      tag_226\n      jump\t// in\n    tag_307:\n        /* \"WandInstruments.sol\":3568:3571  add */\n      tag_250\n        /* \"WandInstruments.sol\":3568:3594  add(prod_xy, DECIMALS / 2) */\n      jump\t// in\n    tag_306:\n        /* \"WandInstruments.sol\":3568:3605  add(prod_xy, DECIMALS / 2) / DECIMALS */\n      tag_308\n      swap2\n      swap1\n      tag_226\n      jump\t// in\n    tag_308:\n        /* \"WandInstruments.sol\":3558:3605  decProd = add(prod_xy, DECIMALS / 2) / DECIMALS */\n      swap2\n      pop\n        /* \"WandInstruments.sol\":3512:3613  {\r... */\n      pop\n        /* \"WandInstruments.sol\":3443:3613  function decMul18(uint x, uint y) public pure returns (uint decProd) {\r... */\n      swap3\n      swap2\n      pop\n      pop\n      jump\t// out\n        /* \"WandInstruments.sol\":546:574  address public treasury1Addr */\n    tag_177:\n      0x06\n      0x00\n      swap1\n      sload\n      swap1\n      0x0100\n      exp\n      swap1\n      div\n      0xffffffffffffffffffffffffffffffffffffffff\n      and\n      dup2\n      jump\t// out\n        /* \"WandInstruments.sol\":8715:8871  function setDaysUsedInFactors(uint256 numDays) public {  \r... */\n    tag_182:\n        /* \"WandInstruments.sol\":8848:8853  86400 */\n      0x015180\n        /* \"WandInstruments.sol\":8838:8845  numDays */\n      dup2\n        /* \"WandInstruments.sol\":8838:8853  numDays * 86400 */\n      tag_310\n      swap2\n      swap1\n      tag_311\n      jump\t// in\n    tag_310:\n        /* \"WandInstruments.sol\":8818:8835  daysInCalculation */\n      0x0c\n        /* \"WandInstruments.sol\":8818:8853  daysInCalculation = numDays * 86400 */\n      dup2\n      swap1\n      sstore\n      pop\n        /* \"WandInstruments.sol\":8715:8871  function setDaysUsedInFactors(uint256 numDays) public {  \r... */\n      pop\n      jump\t// out\n        /* \"WandInstruments.sol\":4355:5542  function cashOutScepter(uint256 amountSCPtoSell) public payable{\r... */\n    tag_185:\n        /* \"WandInstruments.sol\":4490:4516  uint256 trader_tsc_balance */\n      0x00\n        /* \"WandInstruments.sol\":4519:4522  tSC */\n      0x12\n      0x00\n      swap1\n      sload\n      swap1\n      0x0100\n      exp\n      swap1\n      div\n      0xffffffffffffffffffffffffffffffffffffffff\n      and\n        /* \"WandInstruments.sol\":4519:4532  tSC.balanceOf */\n      0xffffffffffffffffffffffffffffffffffffffff\n      and\n      0x70a08231\n        /* \"WandInstruments.sol\":4533:4543  msg.sender */\n      caller\n        /* \"WandInstruments.sol\":4519:4544  tSC.balanceOf(msg.sender) */\n      mload(0x40)\n      dup3\n      0xffffffff\n      and\n      0xe0\n      shl\n      dup2\n      mstore\n      0x04\n      add\n      tag_313\n      swap2\n      swap1\n      tag_51\n      jump\t// in\n    tag_313:\n      0x20\n      mload(0x40)\n      dup1\n      dup4\n      sub\n      dup2\n      dup7\n      dup1\n      extcodesize\n      iszero\n      dup1\n      iszero\n      tag_314\n      jumpi\n      0x00\n      dup1\n      revert\n    tag_314:\n      pop\n      gas\n      staticcall\n      iszero\n      dup1\n      iszero\n      tag_316\n      jumpi\n      returndatasize\n      0x00\n      dup1\n      returndatacopy\n      revert(0x00, returndatasize)\n    tag_316:\n      pop\n      pop\n      pop\n      pop\n      mload(0x40)\n      returndatasize\n      not(0x1f)\n      0x1f\n      dup3\n      add\n      and\n      dup3\n      add\n      dup1\n      0x40\n      mstore\n      pop\n      dup2\n      add\n      swap1\n      tag_317\n      swap2\n      swap1\n      tag_192\n      jump\t// in\n    tag_317:\n        /* \"WandInstruments.sol\":4490:4544  uint256 trader_tsc_balance = tSC.balanceOf(msg.sender) */\n      swap1\n      pop\n        /* \"WandInstruments.sol\":4584:4599  amountSCPtoSell */\n      dup2\n        /* \"WandInstruments.sol\":4563:4581  trader_tsc_balance */\n      dup2\n        /* \"WandInstruments.sol\":4563:4599  trader_tsc_balance > amountSCPtoSell */\n      gt\n        /* \"WandInstruments.sol\":4555:4630  require(trader_tsc_balance > amountSCPtoSell, \"You dont have that amount!\") */\n      tag_318\n      jumpi\n      mload(0x40)\n      0x08c379a000000000000000000000000000000000000000000000000000000000\n      dup2\n      mstore\n      0x04\n      add\n      tag_319\n      swap1\n      tag_221\n      jump\t// in\n    tag_319:\n      mload(0x40)\n      dup1\n      swap2\n      sub\n      swap1\n      revert\n    tag_318:\n        /* \"WandInstruments.sol\":4832:4840  mockUSDC */\n      0x13\n      0x00\n      swap1\n      sload\n      swap1\n      0x0100\n      exp\n      swap1\n      div\n      0xffffffffffffffffffffffffffffffffffffffff\n      and\n        /* \"WandInstruments.sol\":4832:4849  mockUSDC.transfer */\n      0xffffffffffffffffffffffffffffffffffffffff\n      and\n      0xa9059cbb\n        /* \"WandInstruments.sol\":4850:4860  msg.sender */\n      caller\n        /* \"WandInstruments.sol\":283:289  10**18 */\n      0x0de0b6b3a7640000\n        /* \"WandInstruments.sol\":4881:4882  1 */\n      0x01\n        /* \"WandInstruments.sol\":4881:4893  1*(DECIMALS) */\n      tag_320\n      swap2\n      swap1\n      tag_311\n      jump\t// in\n    tag_320:\n        /* \"WandInstruments.sol\":4862:4877  amountSCPtoSell */\n      dup6\n        /* \"WandInstruments.sol\":4862:4894  amountSCPtoSell + (1*(DECIMALS)) */\n      tag_321\n      swap2\n      swap1\n      tag_198\n      jump\t// in\n    tag_321:\n        /* \"WandInstruments.sol\":4832:4895  mockUSDC.transfer(msg.sender, amountSCPtoSell + (1*(DECIMALS))) */\n      mload(0x40)\n      dup4\n      0xffffffff\n      and\n      0xe0\n      shl\n      dup2\n      mstore\n      0x04\n      add\n      tag_322\n      swap3\n      swap2\n      swap1\n      tag_261\n      jump\t// in\n    tag_322:\n      0x20\n      mload(0x40)\n      dup1\n      dup4\n      sub\n      dup2\n      0x00\n      dup8\n      dup1\n      extcodesize\n      iszero\n      dup1\n      iszero\n      tag_323\n      jumpi\n      0x00\n      dup1\n      revert\n    tag_323:\n      pop\n      gas\n      call\n      iszero\n      dup1\n      iszero\n      tag_325\n      jumpi\n      returndatasize\n      0x00\n      dup1\n      returndatacopy\n      revert(0x00, returndatasize)\n    tag_325:\n      pop\n      pop\n      pop\n      pop\n      mload(0x40)\n      returndatasize\n      not(0x1f)\n      0x1f\n      dup3\n      add\n      and\n      dup3\n      add\n      dup1\n      0x40\n      mstore\n      pop\n      dup2\n      add\n      swap1\n      tag_326\n      swap2\n      swap1\n      tag_266\n      jump\t// in\n    tag_326:\n      pop\n        /* \"WandInstruments.sol\":4996:5062  _safeTransferFrom(tSC, msg.sender, address(this), amountSCPtoSell) */\n      tag_327\n        /* \"WandInstruments.sol\":5014:5017  tSC */\n      0x12\n      0x00\n      swap1\n      sload\n      swap1\n      0x0100\n      exp\n      swap1\n      div\n      0xffffffffffffffffffffffffffffffffffffffff\n      and\n        /* \"WandInstruments.sol\":5019:5029  msg.sender */\n      caller\n        /* \"WandInstruments.sol\":5039:5043  this */\n      address\n        /* \"WandInstruments.sol\":5046:5061  amountSCPtoSell */\n      dup6\n        /* \"WandInstruments.sol\":4996:5013  _safeTransferFrom */\n      tag_223\n        /* \"WandInstruments.sol\":4996:5062  _safeTransferFrom(tSC, msg.sender, address(this), amountSCPtoSell) */\n      jump\t// in\n    tag_327:\n        /* \"WandInstruments.sol\":5339:5355  uint256 dInArray */\n      0x00\n        /* \"WandInstruments.sol\":5389:5394  86400 */\n      0x015180\n        /* \"WandInstruments.sol\":5375:5387  timeLaunched */\n      sload(0x0b)\n        /* \"WandInstruments.sol\":5358:5373  block.timestamp */\n      timestamp\n        /* \"WandInstruments.sol\":5358:5387  block.timestamp- timeLaunched */\n      tag_328\n      swap2\n      swap1\n      tag_211\n      jump\t// in\n    tag_328:\n        /* \"WandInstruments.sol\":5357:5394  (block.timestamp- timeLaunched)/86400 */\n      tag_329\n      swap2\n      swap1\n      tag_226\n      jump\t// in\n    tag_329:\n        /* \"WandInstruments.sol\":5339:5394  uint256 dInArray =(block.timestamp- timeLaunched)/86400 */\n      swap1\n      pop\n        /* \"WandInstruments.sol\":5435:5450  amountSCPtoSell */\n      dup3\n        /* \"WandInstruments.sol\":5406:5421  tokensSoldXDays */\n      0x15\n        /* \"WandInstruments.sol\":5406:5431  tokensSoldXDays[dInArray] */\n      0x00\n        /* \"WandInstruments.sol\":5422:5430  dInArray */\n      dup4\n        /* \"WandInstruments.sol\":5406:5431  tokensSoldXDays[dInArray] */\n      dup2\n      mstore\n      0x20\n      add\n      swap1\n      dup2\n      mstore\n      0x20\n      add\n      0x00\n      keccak256\n      0x00\n        /* \"WandInstruments.sol\":5406:5450  tokensSoldXDays[dInArray] += amountSCPtoSell */\n      dup3\n      dup3\n      sload\n      tag_330\n      swap2\n      swap1\n      tag_198\n      jump\t// in\n    tag_330:\n      swap3\n      pop\n      pop\n      dup2\n      swap1\n      sstore\n      pop\n        /* \"WandInstruments.sol\":4418:5542  {\r... */\n      pop\n      pop\n        /* \"WandInstruments.sol\":4355:5542  function cashOutScepter(uint256 amountSCPtoSell) public payable{\r... */\n      pop\n      jump\t// out\n        /* \"WandInstruments.sol\":10694:10956  function _safeTransferFrom(\r... */\n    tag_223:\n        /* \"WandInstruments.sol\":10842:10851  bool sent */\n      0x00\n        /* \"WandInstruments.sol\":10854:10859  token */\n      dup5\n        /* \"WandInstruments.sol\":10854:10872  token.transferFrom */\n      0xffffffffffffffffffffffffffffffffffffffff\n      and\n      0x23b872dd\n        /* \"WandInstruments.sol\":10873:10879  sender */\n      dup6\n        /* \"WandInstruments.sol\":10881:10890  recipient */\n      dup6\n        /* \"WandInstruments.sol\":10892:10898  amount */\n      dup6\n        /* \"WandInstruments.sol\":10854:10899  token.transferFrom(sender, recipient, amount) */\n      mload(0x40)\n      dup5\n      0xffffffff\n      and\n      0xe0\n      shl\n      dup2\n      mstore\n      0x04\n      add\n      tag_332\n      swap4\n      swap3\n      swap2\n      swap1\n      tag_333\n      jump\t// in\n    tag_332:\n      0x20\n      mload(0x40)\n      dup1\n      dup4\n      sub\n      dup2\n      0x00\n      dup8\n      dup1\n      extcodesize\n      iszero\n      dup1\n      iszero\n      tag_334\n      jumpi\n      0x00\n      dup1\n      revert\n    tag_334:\n      pop\n      gas\n      call\n      iszero\n      dup1\n      iszero\n      tag_336\n      jumpi\n      returndatasize\n      0x00\n      dup1\n      returndatacopy\n      revert(0x00, returndatasize)\n    tag_336:\n      pop\n      pop\n      pop\n      pop\n      mload(0x40)\n      returndatasize\n      not(0x1f)\n      0x1f\n      dup3\n      add\n      and\n      dup3\n      add\n      dup1\n      0x40\n      mstore\n      pop\n      dup2\n      add\n      swap1\n      tag_337\n      swap2\n      swap1\n      tag_266\n      jump\t// in\n    tag_337:\n        /* \"WandInstruments.sol\":10842:10899  bool sent = token.transferFrom(sender, recipient, amount) */\n      swap1\n      pop\n        /* \"WandInstruments.sol\":10918:10922  sent */\n      dup1\n        /* \"WandInstruments.sol\":10910:10948  require(sent, \"Token transfer failed\") */\n      tag_338\n      jumpi\n      mload(0x40)\n      0x08c379a000000000000000000000000000000000000000000000000000000000\n      dup2\n      mstore\n      0x04\n      add\n      tag_339\n      swap1\n      tag_340\n      jump\t// in\n    tag_339:\n      mload(0x40)\n      dup1\n      swap2\n      sub\n      swap1\n      revert\n    tag_338:\n        /* \"WandInstruments.sol\":10831:10956  {\r... */\n      pop\n        /* \"WandInstruments.sol\":10694:10956  function _safeTransferFrom(\r... */\n      pop\n      pop\n      pop\n      pop\n      jump\t// out\n        /* \"WandInstruments.sol\":2628:2870  function mul(uint256 a, uint256 b) internal pure returns (uint256) {\r... */\n    tag_247:\n        /* \"WandInstruments.sol\":2686:2693  uint256 */\n      0x00\n        /* \"WandInstruments.sol\":2715:2716  0 */\n      dup1\n        /* \"WandInstruments.sol\":2710:2711  a */\n      dup4\n        /* \"WandInstruments.sol\":2710:2716  a == 0 */\n      eq\n        /* \"WandInstruments.sol\":2706:2749  if (a == 0) {\r... */\n      iszero\n      tag_342\n      jumpi\n        /* \"WandInstruments.sol\":2736:2737  0 */\n      0x00\n        /* \"WandInstruments.sol\":2729:2737  return 0 */\n      swap1\n      pop\n      jump(tag_341)\n        /* \"WandInstruments.sol\":2706:2749  if (a == 0) {\r... */\n    tag_342:\n        /* \"WandInstruments.sol\":2759:2768  uint256 c */\n      0x00\n        /* \"WandInstruments.sol\":2775:2776  b */\n      dup3\n        /* \"WandInstruments.sol\":2771:2772  a */\n      dup5\n        /* \"WandInstruments.sol\":2771:2776  a * b */\n      tag_343\n      swap2\n      swap1\n      tag_311\n      jump\t// in\n    tag_343:\n        /* \"WandInstruments.sol\":2759:2776  uint256 c = a * b */\n      swap1\n      pop\n        /* \"WandInstruments.sol\":2804:2805  b */\n      dup3\n        /* \"WandInstruments.sol\":2799:2800  a */\n      dup5\n        /* \"WandInstruments.sol\":2795:2796  c */\n      dup3\n        /* \"WandInstruments.sol\":2795:2800  c / a */\n      tag_344\n      swap2\n      swap1\n      tag_226\n      jump\t// in\n    tag_344:\n        /* \"WandInstruments.sol\":2795:2805  c / a == b */\n      eq\n        /* \"WandInstruments.sol\":2787:2843  require(c / a == b, \"uint overflow from multiplication\") */\n      tag_345\n      jumpi\n      mload(0x40)\n      0x08c379a000000000000000000000000000000000000000000000000000000000\n      dup2\n      mstore\n      0x04\n      add\n      tag_346\n      swap1\n      tag_347\n      jump\t// in\n    tag_346:\n      mload(0x40)\n      dup1\n      swap2\n      sub\n      swap1\n      revert\n    tag_345:\n        /* \"WandInstruments.sol\":2861:2862  c */\n      dup1\n        /* \"WandInstruments.sol\":2854:2862  return c */\n      swap2\n      pop\n      pop\n        /* \"WandInstruments.sol\":2628:2870  function mul(uint256 a, uint256 b) internal pure returns (uint256) {\r... */\n    tag_341:\n      swap3\n      swap2\n      pop\n      pop\n      jump\t// out\n        /* \"WandInstruments.sol\":3246:3431  function add(uint256 a, uint256 b) internal pure returns (uint256) {\r... */\n    tag_250:\n        /* \"WandInstruments.sol\":3304:3311  uint256 */\n      0x00\n        /* \"WandInstruments.sol\":3324:3333  uint256 c */\n      dup1\n        /* \"WandInstruments.sol\":3340:3341  b */\n      dup3\n        /* \"WandInstruments.sol\":3336:3337  a */\n      dup5\n        /* \"WandInstruments.sol\":3336:3341  a + b */\n      tag_349\n      swap2\n      swap1\n      tag_198\n      jump\t// in\n    tag_349:\n        /* \"WandInstruments.sol\":3324:3341  uint256 c = a + b */\n      swap1\n      pop\n        /* \"WandInstruments.sol\":3365:3366  a */\n      dup4\n        /* \"WandInstruments.sol\":3360:3361  c */\n      dup2\n        /* \"WandInstruments.sol\":3360:3366  c >= a */\n      lt\n      iszero\n        /* \"WandInstruments.sol\":3352:3404  require(c >= a, \"uint overflow from multiplication\") */\n      tag_350\n      jumpi\n      mload(0x40)\n      0x08c379a000000000000000000000000000000000000000000000000000000000\n      dup2\n      mstore\n      0x04\n      add\n      tag_351\n      swap1\n      tag_347\n      jump\t// in\n    tag_351:\n      mload(0x40)\n      dup1\n      swap2\n      sub\n      swap1\n      revert\n    tag_350:\n        /* \"WandInstruments.sol\":3422:3423  c */\n      dup1\n        /* \"WandInstruments.sol\":3415:3423  return c */\n      swap2\n      pop\n      pop\n        /* \"WandInstruments.sol\":3246:3431  function add(uint256 a, uint256 b) internal pure returns (uint256) {\r... */\n      swap3\n      swap2\n      pop\n      pop\n      jump\t// out\n        /* \"#utility.yul\":7:146   */\n    tag_353:\n        /* \"#utility.yul\":53:58   */\n      0x00\n        /* \"#utility.yul\":91:97   */\n      dup2\n        /* \"#utility.yul\":78:98   */\n      calldataload\n        /* \"#utility.yul\":69:98   */\n      swap1\n      pop\n        /* \"#utility.yul\":107:140   */\n      tag_355\n        /* \"#utility.yul\":134:139   */\n      dup2\n        /* \"#utility.yul\":107:140   */\n      tag_356\n      jump\t// in\n    tag_355:\n        /* \"#utility.yul\":7:146   */\n      swap3\n      swap2\n      pop\n      pop\n      jump\t// out\n        /* \"#utility.yul\":152:289   */\n    tag_357:\n        /* \"#utility.yul\":206:211   */\n      0x00\n        /* \"#utility.yul\":237:243   */\n      dup2\n        /* \"#utility.yul\":231:244   */\n      mload\n        /* \"#utility.yul\":222:244   */\n      swap1\n      pop\n        /* \"#utility.yul\":253:283   */\n      tag_359\n        /* \"#utility.yul\":277:282   */\n      dup2\n        /* \"#utility.yul\":253:283   */\n      tag_360\n      jump\t// in\n    tag_359:\n        /* \"#utility.yul\":152:289   */\n      swap3\n      swap2\n      pop\n      pop\n      jump\t// out\n        /* \"#utility.yul\":295:434   */\n    tag_361:\n        /* \"#utility.yul\":341:346   */\n      0x00\n        /* \"#utility.yul\":379:385   */\n      dup2\n        /* \"#utility.yul\":366:386   */\n      calldataload\n        /* \"#utility.yul\":357:386   */\n      swap1\n      pop\n        /* \"#utility.yul\":395:428   */\n      tag_363\n        /* \"#utility.yul\":422:427   */\n      dup2\n        /* \"#utility.yul\":395:428   */\n      tag_364\n      jump\t// in\n    tag_363:\n        /* \"#utility.yul\":295:434   */\n      swap3\n      swap2\n      pop\n      pop\n      jump\t// out\n        /* \"#utility.yul\":440:583   */\n    tag_365:\n        /* \"#utility.yul\":497:502   */\n      0x00\n        /* \"#utility.yul\":528:534   */\n      dup2\n        /* \"#utility.yul\":522:535   */\n      mload\n        /* \"#utility.yul\":513:535   */\n      swap1\n      pop\n        /* \"#utility.yul\":544:577   */\n      tag_367\n        /* \"#utility.yul\":571:576   */\n      dup2\n        /* \"#utility.yul\":544:577   */\n      tag_364\n      jump\t// in\n    tag_367:\n        /* \"#utility.yul\":440:583   */\n      swap3\n      swap2\n      pop\n      pop\n      jump\t// out\n        /* \"#utility.yul\":589:918   */\n    tag_59:\n        /* \"#utility.yul\":648:654   */\n      0x00\n        /* \"#utility.yul\":697:699   */\n      0x20\n        /* \"#utility.yul\":685:694   */\n      dup3\n        /* \"#utility.yul\":676:683   */\n      dup5\n        /* \"#utility.yul\":672:695   */\n      sub\n        /* \"#utility.yul\":668:700   */\n      slt\n        /* \"#utility.yul\":665:784   */\n      iszero\n      tag_369\n      jumpi\n        /* \"#utility.yul\":703:782   */\n      tag_370\n      tag_371\n      jump\t// in\n    tag_370:\n        /* \"#utility.yul\":665:784   */\n    tag_369:\n        /* \"#utility.yul\":823:824   */\n      0x00\n        /* \"#utility.yul\":848:901   */\n      tag_372\n        /* \"#utility.yul\":893:900   */\n      dup5\n        /* \"#utility.yul\":884:890   */\n      dup3\n        /* \"#utility.yul\":873:882   */\n      dup6\n        /* \"#utility.yul\":869:891   */\n      add\n        /* \"#utility.yul\":848:901   */\n      tag_353\n      jump\t// in\n    tag_372:\n        /* \"#utility.yul\":838:901   */\n      swap2\n      pop\n        /* \"#utility.yul\":794:911   */\n      pop\n        /* \"#utility.yul\":589:918   */\n      swap3\n      swap2\n      pop\n      pop\n      jump\t// out\n        /* \"#utility.yul\":924:1398   */\n    tag_159:\n        /* \"#utility.yul\":992:998   */\n      0x00\n        /* \"#utility.yul\":1000:1006   */\n      dup1\n        /* \"#utility.yul\":1049:1051   */\n      0x40\n        /* \"#utility.yul\":1037:1046   */\n      dup4\n        /* \"#utility.yul\":1028:1035   */\n      dup6\n        /* \"#utility.yul\":1024:1047   */\n      sub\n        /* \"#utility.yul\":1020:1052   */\n      slt\n        /* \"#utility.yul\":1017:1136   */\n      iszero\n      tag_374\n      jumpi\n        /* \"#utility.yul\":1055:1134   */\n      tag_375\n      tag_371\n      jump\t// in\n    tag_375:\n        /* \"#utility.yul\":1017:1136   */\n    tag_374:\n        /* \"#utility.yul\":1175:1176   */\n      0x00\n        /* \"#utility.yul\":1200:1253   */\n      tag_376\n        /* \"#utility.yul\":1245:1252   */\n      dup6\n        /* \"#utility.yul\":1236:1242   */\n      dup3\n        /* \"#utility.yul\":1225:1234   */\n      dup7\n        /* \"#utility.yul\":1221:1243   */\n      add\n        /* \"#utility.yul\":1200:1253   */\n      tag_353\n      jump\t// in\n    tag_376:\n        /* \"#utility.yul\":1190:1253   */\n      swap3\n      pop\n        /* \"#utility.yul\":1146:1263   */\n      pop\n        /* \"#utility.yul\":1302:1304   */\n      0x20\n        /* \"#utility.yul\":1328:1381   */\n      tag_377\n        /* \"#utility.yul\":1373:1380   */\n      dup6\n        /* \"#utility.yul\":1364:1370   */\n      dup3\n        /* \"#utility.yul\":1353:1362   */\n      dup7\n        /* \"#utility.yul\":1349:1371   */\n      add\n        /* \"#utility.yul\":1328:1381   */\n      tag_353\n      jump\t// in\n    tag_377:\n        /* \"#utility.yul\":1318:1381   */\n      swap2\n      pop\n        /* \"#utility.yul\":1273:1391   */\n      pop\n        /* \"#utility.yul\":924:1398   */\n      swap3\n      pop\n      swap3\n      swap1\n      pop\n      jump\t// out\n        /* \"#utility.yul\":1404:1749   */\n    tag_266:\n        /* \"#utility.yul\":1471:1477   */\n      0x00\n        /* \"#utility.yul\":1520:1522   */\n      0x20\n        /* \"#utility.yul\":1508:1517   */\n      dup3\n        /* \"#utility.yul\":1499:1506   */\n      dup5\n        /* \"#utility.yul\":1495:1518   */\n      sub\n        /* \"#utility.yul\":1491:1523   */\n      slt\n        /* \"#utility.yul\":1488:1607   */\n      iszero\n      tag_379\n      jumpi\n        /* \"#utility.yul\":1526:1605   */\n      tag_380\n      tag_371\n      jump\t// in\n    tag_380:\n        /* \"#utility.yul\":1488:1607   */\n    tag_379:\n        /* \"#utility.yul\":1646:1647   */\n      0x00\n        /* \"#utility.yul\":1671:1732   */\n      tag_381\n        /* \"#utility.yul\":1724:1731   */\n      dup5\n        /* \"#utility.yul\":1715:1721   */\n      dup3\n        /* \"#utility.yul\":1704:1713   */\n      dup6\n        /* \"#utility.yul\":1700:1722   */\n      add\n        /* \"#utility.yul\":1671:1732   */\n      tag_357\n      jump\t// in\n    tag_381:\n        /* \"#utility.yul\":1661:1732   */\n      swap2\n      pop\n        /* \"#utility.yul\":1617:1742   */\n      pop\n        /* \"#utility.yul\":1404:1749   */\n      swap3\n      swap2\n      pop\n      pop\n      jump\t// out\n        /* \"#utility.yul\":1755:2084   */\n    tag_66:\n        /* \"#utility.yul\":1814:1820   */\n      0x00\n        /* \"#utility.yul\":1863:1865   */\n      0x20\n        /* \"#utility.yul\":1851:1860   */\n      dup3\n        /* \"#utility.yul\":1842:1849   */\n      dup5\n        /* \"#utility.yul\":1838:1861   */\n      sub\n        /* \"#utility.yul\":1834:1866   */\n      slt\n        /* \"#utility.yul\":1831:1950   */\n      iszero\n      tag_383\n      jumpi\n        /* \"#utility.yul\":1869:1948   */\n      tag_384\n      tag_371\n      jump\t// in\n    tag_384:\n        /* \"#utility.yul\":1831:1950   */\n    tag_383:\n        /* \"#utility.yul\":1989:1990   */\n      0x00\n        /* \"#utility.yul\":2014:2067   */\n      tag_385\n        /* \"#utility.yul\":2059:2066   */\n      dup5\n        /* \"#utility.yul\":2050:2056   */\n      dup3\n        /* \"#utility.yul\":2039:2048   */\n      dup6\n        /* \"#utility.yul\":2035:2057   */\n      add\n        /* \"#utility.yul\":2014:2067   */\n      tag_361\n      jump\t// in\n    tag_385:\n        /* \"#utility.yul\":2004:2067   */\n      swap2\n      pop\n        /* \"#utility.yul\":1960:2077   */\n      pop\n        /* \"#utility.yul\":1755:2084   */\n      swap3\n      swap2\n      pop\n      pop\n      jump\t// out\n        /* \"#utility.yul\":2090:2441   */\n    tag_192:\n        /* \"#utility.yul\":2160:2166   */\n      0x00\n        /* \"#utility.yul\":2209:2211   */\n      0x20\n        /* \"#utility.yul\":2197:2206   */\n      dup3\n        /* \"#utility.yul\":2188:2195   */\n      dup5\n        /* \"#utility.yul\":2184:2207   */\n      sub\n        /* \"#utility.yul\":2180:2212   */\n      slt\n        /* \"#utility.yul\":2177:2296   */\n      iszero\n      tag_387\n      jumpi\n        /* \"#utility.yul\":2215:2294   */\n      tag_388\n      tag_371\n      jump\t// in\n    tag_388:\n        /* \"#utility.yul\":2177:2296   */\n    tag_387:\n        /* \"#utility.yul\":2335:2336   */\n      0x00\n        /* \"#utility.yul\":2360:2424   */\n      tag_389\n        /* \"#utility.yul\":2416:2423   */\n      dup5\n        /* \"#utility.yul\":2407:2413   */\n      dup3\n        /* \"#utility.yul\":2396:2405   */\n      dup6\n        /* \"#utility.yul\":2392:2414   */\n      add\n        /* \"#utility.yul\":2360:2424   */\n      tag_365\n      jump\t// in\n    tag_389:\n        /* \"#utility.yul\":2350:2424   */\n      swap2\n      pop\n        /* \"#utility.yul\":2306:2434   */\n      pop\n        /* \"#utility.yul\":2090:2441   */\n      swap3\n      swap2\n      pop\n      pop\n      jump\t// out\n        /* \"#utility.yul\":2447:2921   */\n    tag_104:\n        /* \"#utility.yul\":2515:2521   */\n      0x00\n        /* \"#utility.yul\":2523:2529   */\n      dup1\n        /* \"#utility.yul\":2572:2574   */\n      0x40\n        /* \"#utility.yul\":2560:2569   */\n      dup4\n        /* \"#utility.yul\":2551:2558   */\n      dup6\n        /* \"#utility.yul\":2547:2570   */\n      sub\n        /* \"#utility.yul\":2543:2575   */\n      slt\n        /* \"#utility.yul\":2540:2659   */\n      iszero\n      tag_391\n      jumpi\n        /* \"#utility.yul\":2578:2657   */\n      tag_392\n      tag_371\n      jump\t// in\n    tag_392:\n        /* \"#utility.yul\":2540:2659   */\n    tag_391:\n        /* \"#utility.yul\":2698:2699   */\n      0x00\n        /* \"#utility.yul\":2723:2776   */\n      tag_393\n        /* \"#utility.yul\":2768:2775   */\n      dup6\n        /* \"#utility.yul\":2759:2765   */\n      dup3\n        /* \"#utility.yul\":2748:2757   */\n      dup7\n        /* \"#utility.yul\":2744:2766   */\n      add\n        /* \"#utility.yul\":2723:2776   */\n      tag_361\n      jump\t// in\n    tag_393:\n        /* \"#utility.yul\":2713:2776   */\n      swap3\n      pop\n        /* \"#utility.yul\":2669:2786   */\n      pop\n        /* \"#utility.yul\":2825:2827   */\n      0x20\n        /* \"#utility.yul\":2851:2904   */\n      tag_394\n        /* \"#utility.yul\":2896:2903   */\n      dup6\n        /* \"#utility.yul\":2887:2893   */\n      dup3\n        /* \"#utility.yul\":2876:2885   */\n      dup7\n        /* \"#utility.yul\":2872:2894   */\n      add\n        /* \"#utility.yul\":2851:2904   */\n      tag_361\n      jump\t// in\n    tag_394:\n        /* \"#utility.yul\":2841:2904   */\n      swap2\n      pop\n        /* \"#utility.yul\":2796:2914   */\n      pop\n        /* \"#utility.yul\":2447:2921   */\n      swap3\n      pop\n      swap3\n      swap1\n      pop\n      jump\t// out\n        /* \"#utility.yul\":2927:3045   */\n    tag_395:\n        /* \"#utility.yul\":3014:3038   */\n      tag_397\n        /* \"#utility.yul\":3032:3037   */\n      dup2\n        /* \"#utility.yul\":3014:3038   */\n      tag_398\n      jump\t// in\n    tag_397:\n        /* \"#utility.yul\":3009:3012   */\n      dup3\n        /* \"#utility.yul\":3002:3039   */\n      mstore\n        /* \"#utility.yul\":2927:3045   */\n      pop\n      pop\n      jump\t// out\n        /* \"#utility.yul\":3051:3208   */\n    tag_399:\n        /* \"#utility.yul\":3151:3201   */\n      tag_401\n        /* \"#utility.yul\":3195:3200   */\n      dup2\n        /* \"#utility.yul\":3151:3201   */\n      tag_402\n      jump\t// in\n    tag_401:\n        /* \"#utility.yul\":3146:3149   */\n      dup3\n        /* \"#utility.yul\":3139:3202   */\n      mstore\n        /* \"#utility.yul\":3051:3208   */\n      pop\n      pop\n      jump\t// out\n        /* \"#utility.yul\":3214:3329   */\n    tag_403:\n        /* \"#utility.yul\":3299:3322   */\n      tag_405\n        /* \"#utility.yul\":3316:3321   */\n      dup2\n        /* \"#utility.yul\":3299:3322   */\n      tag_406\n      jump\t// in\n    tag_405:\n        /* \"#utility.yul\":3294:3297   */\n      dup3\n        /* \"#utility.yul\":3287:3323   */\n      mstore\n        /* \"#utility.yul\":3214:3329   */\n      pop\n      pop\n      jump\t// out\n        /* \"#utility.yul\":3335:3701   */\n    tag_407:\n        /* \"#utility.yul\":3477:3480   */\n      0x00\n        /* \"#utility.yul\":3498:3565   */\n      tag_409\n        /* \"#utility.yul\":3562:3564   */\n      0x24\n        /* \"#utility.yul\":3557:3560   */\n      dup4\n        /* \"#utility.yul\":3498:3565   */\n      tag_410\n      jump\t// in\n    tag_409:\n        /* \"#utility.yul\":3491:3565   */\n      swap2\n      pop\n        /* \"#utility.yul\":3574:3667   */\n      tag_411\n        /* \"#utility.yul\":3663:3666   */\n      dup3\n        /* \"#utility.yul\":3574:3667   */\n      tag_412\n      jump\t// in\n    tag_411:\n        /* \"#utility.yul\":3692:3694   */\n      0x40\n        /* \"#utility.yul\":3687:3690   */\n      dup3\n        /* \"#utility.yul\":3683:3695   */\n      add\n        /* \"#utility.yul\":3676:3695   */\n      swap1\n      pop\n        /* \"#utility.yul\":3335:3701   */\n      swap2\n      swap1\n      pop\n      jump\t// out\n        /* \"#utility.yul\":3707:4073   */\n    tag_413:\n        /* \"#utility.yul\":3849:3852   */\n      0x00\n        /* \"#utility.yul\":3870:3937   */\n      tag_415\n        /* \"#utility.yul\":3934:3936   */\n      0x15\n        /* \"#utility.yul\":3929:3932   */\n      dup4\n        /* \"#utility.yul\":3870:3937   */\n      tag_410\n      jump\t// in\n    tag_415:\n        /* \"#utility.yul\":3863:3937   */\n      swap2\n      pop\n        /* \"#utility.yul\":3946:4039   */\n      tag_416\n        /* \"#utility.yul\":4035:4038   */\n      dup3\n        /* \"#utility.yul\":3946:4039   */\n      tag_417\n      jump\t// in\n    tag_416:\n        /* \"#utility.yul\":4064:4066   */\n      0x20\n        /* \"#utility.yul\":4059:4062   */\n      dup3\n        /* \"#utility.yul\":4055:4067   */\n      add\n        /* \"#utility.yul\":4048:4067   */\n      swap1\n      pop\n        /* \"#utility.yul\":3707:4073   */\n      swap2\n      swap1\n      pop\n      jump\t// out\n        /* \"#utility.yul\":4079:4445   */\n    tag_418:\n        /* \"#utility.yul\":4221:4224   */\n      0x00\n        /* \"#utility.yul\":4242:4309   */\n      tag_420\n        /* \"#utility.yul\":4306:4308   */\n      0x1a\n        /* \"#utility.yul\":4301:4304   */\n      dup4\n        /* \"#utility.yul\":4242:4309   */\n      tag_410\n      jump\t// in\n    tag_420:\n        /* \"#utility.yul\":4235:4309   */\n      swap2\n      pop\n        /* \"#utility.yul\":4318:4411   */\n      tag_421\n        /* \"#utility.yul\":4407:4410   */\n      dup3\n        /* \"#utility.yul\":4318:4411   */\n      tag_422\n      jump\t// in\n    tag_421:\n        /* \"#utility.yul\":4436:4438   */\n      0x20\n        /* \"#utility.yul\":4431:4434   */\n      dup3\n        /* \"#utility.yul\":4427:4439   */\n      add\n        /* \"#utility.yul\":4420:4439   */\n      swap1\n      pop\n        /* \"#utility.yul\":4079:4445   */\n      swap2\n      swap1\n      pop\n      jump\t// out\n        /* \"#utility.yul\":4451:4817   */\n    tag_423:\n        /* \"#utility.yul\":4593:4596   */\n      0x00\n        /* \"#utility.yul\":4614:4681   */\n      tag_425\n        /* \"#utility.yul\":4678:4680   */\n      0x21\n        /* \"#utility.yul\":4673:4676   */\n      dup4\n        /* \"#utility.yul\":4614:4681   */\n      tag_410\n      jump\t// in\n    tag_425:\n        /* \"#utility.yul\":4607:4681   */\n      swap2\n      pop\n        /* \"#utility.yul\":4690:4783   */\n      tag_426\n        /* \"#utility.yul\":4779:4782   */\n      dup3\n        /* \"#utility.yul\":4690:4783   */\n      tag_427\n      jump\t// in\n    tag_426:\n        /* \"#utility.yul\":4808:4810   */\n      0x40\n        /* \"#utility.yul\":4803:4806   */\n      dup3\n        /* \"#utility.yul\":4799:4811   */\n      add\n        /* \"#utility.yul\":4792:4811   */\n      swap1\n      pop\n        /* \"#utility.yul\":4451:4817   */\n      swap2\n      swap1\n      pop\n      jump\t// out\n        /* \"#utility.yul\":4823:4941   */\n    tag_428:\n        /* \"#utility.yul\":4910:4934   */\n      tag_430\n        /* \"#utility.yul\":4928:4933   */\n      dup2\n        /* \"#utility.yul\":4910:4934   */\n      tag_431\n      jump\t// in\n    tag_430:\n        /* \"#utility.yul\":4905:4908   */\n      dup3\n        /* \"#utility.yul\":4898:4935   */\n      mstore\n        /* \"#utility.yul\":4823:4941   */\n      pop\n      pop\n      jump\t// out\n        /* \"#utility.yul\":4947:5169   */\n    tag_51:\n        /* \"#utility.yul\":5040:5044   */\n      0x00\n        /* \"#utility.yul\":5078:5080   */\n      0x20\n        /* \"#utility.yul\":5067:5076   */\n      dup3\n        /* \"#utility.yul\":5063:5081   */\n      add\n        /* \"#utility.yul\":5055:5081   */\n      swap1\n      pop\n        /* \"#utility.yul\":5091:5162   */\n      tag_433\n        /* \"#utility.yul\":5159:5160   */\n      0x00\n        /* \"#utility.yul\":5148:5157   */\n      dup4\n        /* \"#utility.yul\":5144:5161   */\n      add\n        /* \"#utility.yul\":5135:5141   */\n      dup5\n        /* \"#utility.yul\":5091:5162   */\n      tag_395\n      jump\t// in\n    tag_433:\n        /* \"#utility.yul\":4947:5169   */\n      swap3\n      swap2\n      pop\n      pop\n      jump\t// out\n        /* \"#utility.yul\":5175:5617   */\n    tag_333:\n        /* \"#utility.yul\":5324:5328   */\n      0x00\n        /* \"#utility.yul\":5362:5364   */\n      0x60\n        /* \"#utility.yul\":5351:5360   */\n      dup3\n        /* \"#utility.yul\":5347:5365   */\n      add\n        /* \"#utility.yul\":5339:5365   */\n      swap1\n      pop\n        /* \"#utility.yul\":5375:5446   */\n      tag_435\n        /* \"#utility.yul\":5443:5444   */\n      0x00\n        /* \"#utility.yul\":5432:5441   */\n      dup4\n        /* \"#utility.yul\":5428:5445   */\n      add\n        /* \"#utility.yul\":5419:5425   */\n      dup7\n        /* \"#utility.yul\":5375:5446   */\n      tag_395\n      jump\t// in\n    tag_435:\n        /* \"#utility.yul\":5456:5528   */\n      tag_436\n        /* \"#utility.yul\":5524:5526   */\n      0x20\n        /* \"#utility.yul\":5513:5522   */\n      dup4\n        /* \"#utility.yul\":5509:5527   */\n      add\n        /* \"#utility.yul\":5500:5506   */\n      dup6\n        /* \"#utility.yul\":5456:5528   */\n      tag_395\n      jump\t// in\n    tag_436:\n        /* \"#utility.yul\":5538:5610   */\n      tag_437\n        /* \"#utility.yul\":5606:5608   */\n      0x40\n        /* \"#utility.yul\":5595:5604   */\n      dup4\n        /* \"#utility.yul\":5591:5609   */\n      add\n        /* \"#utility.yul\":5582:5588   */\n      dup5\n        /* \"#utility.yul\":5538:5610   */\n      tag_428\n      jump\t// in\n    tag_437:\n        /* \"#utility.yul\":5175:5617   */\n      swap5\n      swap4\n      pop\n      pop\n      pop\n      pop\n      jump\t// out\n        /* \"#utility.yul\":5623:5955   */\n    tag_261:\n        /* \"#utility.yul\":5744:5748   */\n      0x00\n        /* \"#utility.yul\":5782:5784   */\n      0x40\n        /* \"#utility.yul\":5771:5780   */\n      dup3\n        /* \"#utility.yul\":5767:5785   */\n      add\n        /* \"#utility.yul\":5759:5785   */\n      swap1\n      pop\n        /* \"#utility.yul\":5795:5866   */\n      tag_439\n        /* \"#utility.yul\":5863:5864   */\n      0x00\n        /* \"#utility.yul\":5852:5861   */\n      dup4\n        /* \"#utility.yul\":5848:5865   */\n      add\n        /* \"#utility.yul\":5839:5845   */\n      dup6\n        /* \"#utility.yul\":5795:5866   */\n      tag_395\n      jump\t// in\n    tag_439:\n        /* \"#utility.yul\":5876:5948   */\n      tag_440\n        /* \"#utility.yul\":5944:5946   */\n      0x20\n        /* \"#utility.yul\":5933:5942   */\n      dup4\n        /* \"#utility.yul\":5929:5947   */\n      add\n        /* \"#utility.yul\":5920:5926   */\n      dup5\n        /* \"#utility.yul\":5876:5948   */\n      tag_428\n      jump\t// in\n    tag_440:\n        /* \"#utility.yul\":5623:5955   */\n      swap4\n      swap3\n      pop\n      pop\n      pop\n      jump\t// out\n        /* \"#utility.yul\":5961:6209   */\n    tag_122:\n        /* \"#utility.yul\":6067:6071   */\n      0x00\n        /* \"#utility.yul\":6105:6107   */\n      0x20\n        /* \"#utility.yul\":6094:6103   */\n      dup3\n        /* \"#utility.yul\":6090:6108   */\n      add\n        /* \"#utility.yul\":6082:6108   */\n      swap1\n      pop\n        /* \"#utility.yul\":6118:6202   */\n      tag_442\n        /* \"#utility.yul\":6199:6200   */\n      0x00\n        /* \"#utility.yul\":6188:6197   */\n      dup4\n        /* \"#utility.yul\":6184:6201   */\n      add\n        /* \"#utility.yul\":6175:6181   */\n      dup5\n        /* \"#utility.yul\":6118:6202   */\n      tag_399\n      jump\t// in\n    tag_442:\n        /* \"#utility.yul\":5961:6209   */\n      swap3\n      swap2\n      pop\n      pop\n      jump\t// out\n        /* \"#utility.yul\":6215:6433   */\n    tag_127:\n        /* \"#utility.yul\":6306:6310   */\n      0x00\n        /* \"#utility.yul\":6344:6346   */\n      0x20\n        /* \"#utility.yul\":6333:6342   */\n      dup3\n        /* \"#utility.yul\":6329:6347   */\n      add\n        /* \"#utility.yul\":6321:6347   */\n      swap1\n      pop\n        /* \"#utility.yul\":6357:6426   */\n      tag_444\n        /* \"#utility.yul\":6423:6424   */\n      0x00\n        /* \"#utility.yul\":6412:6421   */\n      dup4\n        /* \"#utility.yul\":6408:6425   */\n      add\n        /* \"#utility.yul\":6399:6405   */\n      dup5\n        /* \"#utility.yul\":6357:6426   */\n      tag_403\n      jump\t// in\n    tag_444:\n        /* \"#utility.yul\":6215:6433   */\n      swap3\n      swap2\n      pop\n      pop\n      jump\t// out\n        /* \"#utility.yul\":6439:6858   */\n    tag_209:\n        /* \"#utility.yul\":6605:6609   */\n      0x00\n        /* \"#utility.yul\":6643:6645   */\n      0x20\n        /* \"#utility.yul\":6632:6641   */\n      dup3\n        /* \"#utility.yul\":6628:6646   */\n      add\n        /* \"#utility.yul\":6620:6646   */\n      swap1\n      pop\n        /* \"#utility.yul\":6692:6701   */\n      dup2\n        /* \"#utility.yul\":6686:6690   */\n      dup2\n        /* \"#utility.yul\":6682:6702   */\n      sub\n        /* \"#utility.yul\":6678:6679   */\n      0x00\n        /* \"#utility.yul\":6667:6676   */\n      dup4\n        /* \"#utility.yul\":6663:6680   */\n      add\n        /* \"#utility.yul\":6656:6703   */\n      mstore\n        /* \"#utility.yul\":6720:6851   */\n      tag_446\n        /* \"#utility.yul\":6846:6850   */\n      dup2\n        /* \"#utility.yul\":6720:6851   */\n      tag_407\n      jump\t// in\n    tag_446:\n        /* \"#utility.yul\":6712:6851   */\n      swap1\n      pop\n        /* \"#utility.yul\":6439:6858   */\n      swap2\n      swap1\n      pop\n      jump\t// out\n        /* \"#utility.yul\":6864:7283   */\n    tag_340:\n        /* \"#utility.yul\":7030:7034   */\n      0x00\n        /* \"#utility.yul\":7068:7070   */\n      0x20\n        /* \"#utility.yul\":7057:7066   */\n      dup3\n        /* \"#utility.yul\":7053:7071   */\n      add\n        /* \"#utility.yul\":7045:7071   */\n      swap1\n      pop\n        /* \"#utility.yul\":7117:7126   */\n      dup2\n        /* \"#utility.yul\":7111:7115   */\n      dup2\n        /* \"#utility.yul\":7107:7127   */\n      sub\n        /* \"#utility.yul\":7103:7104   */\n      0x00\n        /* \"#utility.yul\":7092:7101   */\n      dup4\n        /* \"#utility.yul\":7088:7105   */\n      add\n        /* \"#utility.yul\":7081:7128   */\n      mstore\n        /* \"#utility.yul\":7145:7276   */\n      tag_448\n        /* \"#utility.yul\":7271:7275   */\n      dup2\n        /* \"#utility.yul\":7145:7276   */\n      tag_413\n      jump\t// in\n    tag_448:\n        /* \"#utility.yul\":7137:7276   */\n      swap1\n      pop\n        /* \"#utility.yul\":6864:7283   */\n      swap2\n      swap1\n      pop\n      jump\t// out\n        /* \"#utility.yul\":7289:7708   */\n    tag_221:\n        /* \"#utility.yul\":7455:7459   */\n      0x00\n        /* \"#utility.yul\":7493:7495   */\n      0x20\n        /* \"#utility.yul\":7482:7491   */\n      dup3\n        /* \"#utility.yul\":7478:7496   */\n      add\n        /* \"#utility.yul\":7470:7496   */\n      swap1\n      pop\n        /* \"#utility.yul\":7542:7551   */\n      dup2\n        /* \"#utility.yul\":7536:7540   */\n      dup2\n        /* \"#utility.yul\":7532:7552   */\n      sub\n        /* \"#utility.yul\":7528:7529   */\n      0x00\n        /* \"#utility.yul\":7517:7526   */\n      dup4\n        /* \"#utility.yul\":7513:7530   */\n      add\n        /* \"#utility.yul\":7506:7553   */\n      mstore\n        /* \"#utility.yul\":7570:7701   */\n      tag_450\n        /* \"#utility.yul\":7696:7700   */\n      dup2\n        /* \"#utility.yul\":7570:7701   */\n      tag_418\n      jump\t// in\n    tag_450:\n        /* \"#utility.yul\":7562:7701   */\n      swap1\n      pop\n        /* \"#utility.yul\":7289:7708   */\n      swap2\n      swap1\n      pop\n      jump\t// out\n        /* \"#utility.yul\":7714:8133   */\n    tag_347:\n        /* \"#utility.yul\":7880:7884   */\n      0x00\n        /* \"#utility.yul\":7918:7920   */\n      0x20\n        /* \"#utility.yul\":7907:7916   */\n      dup3\n        /* \"#utility.yul\":7903:7921   */\n      add\n        /* \"#utility.yul\":7895:7921   */\n      swap1\n      pop\n        /* \"#utility.yul\":7967:7976   */\n      dup2\n        /* \"#utility.yul\":7961:7965   */\n      dup2\n        /* \"#utility.yul\":7957:7977   */\n      sub\n        /* \"#utility.yul\":7953:7954   */\n      0x00\n        /* \"#utility.yul\":7942:7951   */\n      dup4\n        /* \"#utility.yul\":7938:7955   */\n      add\n        /* \"#utility.yul\":7931:7978   */\n      mstore\n        /* \"#utility.yul\":7995:8126   */\n      tag_452\n        /* \"#utility.yul\":8121:8125   */\n      dup2\n        /* \"#utility.yul\":7995:8126   */\n      tag_423\n      jump\t// in\n    tag_452:\n        /* \"#utility.yul\":7987:8126   */\n      swap1\n      pop\n        /* \"#utility.yul\":7714:8133   */\n      swap2\n      swap1\n      pop\n      jump\t// out\n        /* \"#utility.yul\":8139:8361   */\n    tag_46:\n        /* \"#utility.yul\":8232:8236   */\n      0x00\n        /* \"#utility.yul\":8270:8272   */\n      0x20\n        /* \"#utility.yul\":8259:8268   */\n      dup3\n        /* \"#utility.yul\":8255:8273   */\n      add\n        /* \"#utility.yul\":8247:8273   */\n      swap1\n      pop\n        /* \"#utility.yul\":8283:8354   */\n      tag_454\n        /* \"#utility.yul\":8351:8352   */\n      0x00\n        /* \"#utility.yul\":8340:8349   */\n      dup4\n        /* \"#utility.yul\":8336:8353   */\n      add\n        /* \"#utility.yul\":8327:8333   */\n      dup5\n        /* \"#utility.yul\":8283:8354   */\n      tag_428\n      jump\t// in\n    tag_454:\n        /* \"#utility.yul\":8139:8361   */\n      swap3\n      swap2\n      pop\n      pop\n      jump\t// out\n        /* \"#utility.yul\":8367:8699   */\n    tag_62:\n        /* \"#utility.yul\":8488:8492   */\n      0x00\n        /* \"#utility.yul\":8526:8528   */\n      0x40\n        /* \"#utility.yul\":8515:8524   */\n      dup3\n        /* \"#utility.yul\":8511:8529   */\n      add\n        /* \"#utility.yul\":8503:8529   */\n      swap1\n      pop\n        /* \"#utility.yul\":8539:8610   */\n      tag_456\n        /* \"#utility.yul\":8607:8608   */\n      0x00\n        /* \"#utility.yul\":8596:8605   */\n      dup4\n        /* \"#utility.yul\":8592:8609   */\n      add\n        /* \"#utility.yul\":8583:8589   */\n      dup6\n        /* \"#utility.yul\":8539:8610   */\n      tag_428\n      jump\t// in\n    tag_456:\n        /* \"#utility.yul\":8620:8692   */\n      tag_457\n        /* \"#utility.yul\":8688:8690   */\n      0x20\n        /* \"#utility.yul\":8677:8686   */\n      dup4\n        /* \"#utility.yul\":8673:8691   */\n      add\n        /* \"#utility.yul\":8664:8670   */\n      dup5\n        /* \"#utility.yul\":8620:8692   */\n      tag_428\n      jump\t// in\n    tag_457:\n        /* \"#utility.yul\":8367:8699   */\n      swap4\n      swap3\n      pop\n      pop\n      pop\n      jump\t// out\n        /* \"#utility.yul\":8786:8955   */\n    tag_410:\n        /* \"#utility.yul\":8870:8881   */\n      0x00\n        /* \"#utility.yul\":8904:8910   */\n      dup3\n        /* \"#utility.yul\":8899:8902   */\n      dup3\n        /* \"#utility.yul\":8892:8911   */\n      mstore\n        /* \"#utility.yul\":8944:8948   */\n      0x20\n        /* \"#utility.yul\":8939:8942   */\n      dup3\n        /* \"#utility.yul\":8935:8949   */\n      add\n        /* \"#utility.yul\":8920:8949   */\n      swap1\n      pop\n        /* \"#utility.yul\":8786:8955   */\n      swap3\n      swap2\n      pop\n      pop\n      jump\t// out\n        /* \"#utility.yul\":8961:9266   */\n    tag_198:\n        /* \"#utility.yul\":9001:9004   */\n      0x00\n        /* \"#utility.yul\":9020:9040   */\n      tag_462\n        /* \"#utility.yul\":9038:9039   */\n      dup3\n        /* \"#utility.yul\":9020:9040   */\n      tag_431\n      jump\t// in\n    tag_462:\n        /* \"#utility.yul\":9015:9040   */\n      swap2\n      pop\n        /* \"#utility.yul\":9054:9074   */\n      tag_463\n        /* \"#utility.yul\":9072:9073   */\n      dup4\n        /* \"#utility.yul\":9054:9074   */\n      tag_431\n      jump\t// in\n    tag_463:\n        /* \"#utility.yul\":9049:9074   */\n      swap3\n      pop\n        /* \"#utility.yul\":9208:9209   */\n      dup3\n        /* \"#utility.yul\":9140:9206   */\n      0xffffffffffffffffffffffffffffffffffffffffffffffffffffffffffffffff\n        /* \"#utility.yul\":9136:9210   */\n      sub\n        /* \"#utility.yul\":9133:9134   */\n      dup3\n        /* \"#utility.yul\":9130:9211   */\n      gt\n        /* \"#utility.yul\":9127:9234   */\n      iszero\n      tag_464\n      jumpi\n        /* \"#utility.yul\":9214:9232   */\n      tag_465\n      tag_466\n      jump\t// in\n    tag_465:\n        /* \"#utility.yul\":9127:9234   */\n    tag_464:\n        /* \"#utility.yul\":9258:9259   */\n      dup3\n        /* \"#utility.yul\":9255:9256   */\n      dup3\n        /* \"#utility.yul\":9251:9260   */\n      add\n        /* \"#utility.yul\":9244:9260   */\n      swap1\n      pop\n        /* \"#utility.yul\":8961:9266   */\n      swap3\n      swap2\n      pop\n      pop\n      jump\t// out\n        /* \"#utility.yul\":9272:9457   */\n    tag_226:\n        /* \"#utility.yul\":9312:9313   */\n      0x00\n        /* \"#utility.yul\":9329:9349   */\n      tag_468\n        /* \"#utility.yul\":9347:9348   */\n      dup3\n        /* \"#utility.yul\":9329:9349   */\n      tag_431\n      jump\t// in\n    tag_468:\n        /* \"#utility.yul\":9324:9349   */\n      swap2\n      pop\n        /* \"#utility.yul\":9363:9383   */\n      tag_469\n        /* \"#utility.yul\":9381:9382   */\n      dup4\n        /* \"#utility.yul\":9363:9383   */\n      tag_431\n      jump\t// in\n    tag_469:\n        /* \"#utility.yul\":9358:9383   */\n      swap3\n      pop\n        /* \"#utility.yul\":9402:9403   */\n      dup3\n        /* \"#utility.yul\":9392:9427   */\n      tag_470\n      jumpi\n        /* \"#utility.yul\":9407:9425   */\n      tag_471\n      tag_472\n      jump\t// in\n    tag_471:\n        /* \"#utility.yul\":9392:9427   */\n    tag_470:\n        /* \"#utility.yul\":9449:9450   */\n      dup3\n        /* \"#utility.yul\":9446:9447   */\n      dup3\n        /* \"#utility.yul\":9442:9451   */\n      div\n        /* \"#utility.yul\":9437:9451   */\n      swap1\n      pop\n        /* \"#utility.yul\":9272:9457   */\n      swap3\n      swap2\n      pop\n      pop\n      jump\t// out\n        /* \"#utility.yul\":9463:9811   */\n    tag_311:\n        /* \"#utility.yul\":9503:9510   */\n      0x00\n        /* \"#utility.yul\":9526:9546   */\n      tag_474\n        /* \"#utility.yul\":9544:9545   */\n      dup3\n        /* \"#utility.yul\":9526:9546   */\n      tag_431\n      jump\t// in\n    tag_474:\n        /* \"#utility.yul\":9521:9546   */\n      swap2\n      pop\n        /* \"#utility.yul\":9560:9580   */\n      tag_475\n        /* \"#utility.yul\":9578:9579   */\n      dup4\n        /* \"#utility.yul\":9560:9580   */\n      tag_431\n      jump\t// in\n    tag_475:\n        /* \"#utility.yul\":9555:9580   */\n      swap3\n      pop\n        /* \"#utility.yul\":9748:9749   */\n      dup2\n        /* \"#utility.yul\":9680:9746   */\n      0xffffffffffffffffffffffffffffffffffffffffffffffffffffffffffffffff\n        /* \"#utility.yul\":9676:9750   */\n      div\n        /* \"#utility.yul\":9673:9674   */\n      dup4\n        /* \"#utility.yul\":9670:9751   */\n      gt\n        /* \"#utility.yul\":9665:9666   */\n      dup3\n        /* \"#utility.yul\":9658:9667   */\n      iszero\n        /* \"#utility.yul\":9651:9668   */\n      iszero\n        /* \"#utility.yul\":9647:9752   */\n      and\n        /* \"#utility.yul\":9644:9775   */\n      iszero\n      tag_476\n      jumpi\n        /* \"#utility.yul\":9755:9773   */\n      tag_477\n      tag_466\n      jump\t// in\n    tag_477:\n        /* \"#utility.yul\":9644:9775   */\n    tag_476:\n        /* \"#utility.yul\":9803:9804   */\n      dup3\n        /* \"#utility.yul\":9800:9801   */\n      dup3\n        /* \"#utility.yul\":9796:9805   */\n      mul\n        /* \"#utility.yul\":9785:9805   */\n      swap1\n      pop\n        /* \"#utility.yul\":9463:9811   */\n      swap3\n      swap2\n      pop\n      pop\n      jump\t// out\n        /* \"#utility.yul\":9817:10008   */\n    tag_211:\n        /* \"#utility.yul\":9857:9861   */\n      0x00\n        /* \"#utility.yul\":9877:9897   */\n      tag_479\n        /* \"#utility.yul\":9895:9896   */\n      dup3\n        /* \"#utility.yul\":9877:9897   */\n      tag_431\n      jump\t// in\n    tag_479:\n        /* \"#utility.yul\":9872:9897   */\n      swap2\n      pop\n        /* \"#utility.yul\":9911:9931   */\n      tag_480\n        /* \"#utility.yul\":9929:9930   */\n      dup4\n        /* \"#utility.yul\":9911:9931   */\n      tag_431\n      jump\t// in\n    tag_480:\n        /* \"#utility.yul\":9906:9931   */\n      swap3\n      pop\n        /* \"#utility.yul\":9950:9951   */\n      dup3\n        /* \"#utility.yul\":9947:9948   */\n      dup3\n        /* \"#utility.yul\":9944:9952   */\n      lt\n        /* \"#utility.yul\":9941:9975   */\n      iszero\n      tag_481\n      jumpi\n        /* \"#utility.yul\":9955:9973   */\n      tag_482\n      tag_466\n      jump\t// in\n    tag_482:\n        /* \"#utility.yul\":9941:9975   */\n    tag_481:\n        /* \"#utility.yul\":10000:10001   */\n      dup3\n        /* \"#utility.yul\":9997:9998   */\n      dup3\n        /* \"#utility.yul\":9993:10002   */\n      sub\n        /* \"#utility.yul\":9985:10002   */\n      swap1\n      pop\n        /* \"#utility.yul\":9817:10008   */\n      swap3\n      swap2\n      pop\n      pop\n      jump\t// out\n        /* \"#utility.yul\":10014:10110   */\n    tag_398:\n        /* \"#utility.yul\":10051:10058   */\n      0x00\n        /* \"#utility.yul\":10080:10104   */\n      tag_484\n        /* \"#utility.yul\":10098:10103   */\n      dup3\n        /* \"#utility.yul\":10080:10104   */\n      tag_485\n      jump\t// in\n    tag_484:\n        /* \"#utility.yul\":10069:10104   */\n      swap1\n      pop\n        /* \"#utility.yul\":10014:10110   */\n      swap2\n      swap1\n      pop\n      jump\t// out\n        /* \"#utility.yul\":10116:10206   */\n    tag_486:\n        /* \"#utility.yul\":10150:10157   */\n      0x00\n        /* \"#utility.yul\":10193:10198   */\n      dup2\n        /* \"#utility.yul\":10186:10199   */\n      iszero\n        /* \"#utility.yul\":10179:10200   */\n      iszero\n        /* \"#utility.yul\":10168:10200   */\n      swap1\n      pop\n        /* \"#utility.yul\":10116:10206   */\n      swap2\n      swap1\n      pop\n      jump\t// out\n        /* \"#utility.yul\":10212:10304   */\n    tag_406:\n        /* \"#utility.yul\":10248:10255   */\n      0x00\n        /* \"#utility.yul\":10292:10297   */\n      dup2\n        /* \"#utility.yul\":10288:10290   */\n      0x0f\n        /* \"#utility.yul\":10277:10298   */\n      signextend\n        /* \"#utility.yul\":10266:10298   */\n      swap1\n      pop\n        /* \"#utility.yul\":10212:10304   */\n      swap2\n      swap1\n      pop\n      jump\t// out\n        /* \"#utility.yul\":10310:10436   */\n    tag_485:\n        /* \"#utility.yul\":10347:10354   */\n      0x00\n        /* \"#utility.yul\":10387:10429   */\n      0xffffffffffffffffffffffffffffffffffffffff\n        /* \"#utility.yul\":10380:10385   */\n      dup3\n        /* \"#utility.yul\":10376:10430   */\n      and\n        /* \"#utility.yul\":10365:10430   */\n      swap1\n      pop\n        /* \"#utility.yul\":10310:10436   */\n      swap2\n      swap1\n      pop\n      jump\t// out\n        /* \"#utility.yul\":10442:10519   */\n    tag_431:\n        /* \"#utility.yul\":10479:10486   */\n      0x00\n        /* \"#utility.yul\":10508:10513   */\n      dup2\n        /* \"#utility.yul\":10497:10513   */\n      swap1\n      pop\n        /* \"#utility.yul\":10442:10519   */\n      swap2\n      swap1\n      pop\n      jump\t// out\n        /* \"#utility.yul\":10525:10664   */\n    tag_402:\n        /* \"#utility.yul\":10588:10597   */\n      0x00\n        /* \"#utility.yul\":10621:10658   */\n      tag_492\n        /* \"#utility.yul\":10652:10657   */\n      dup3\n        /* \"#utility.yul\":10621:10658   */\n      tag_493\n      jump\t// in\n    tag_492:\n        /* \"#utility.yul\":10608:10658   */\n      swap1\n      pop\n        /* \"#utility.yul\":10525:10664   */\n      swap2\n      swap1\n      pop\n      jump\t// out\n        /* \"#utility.yul\":10670:10796   */\n    tag_493:\n        /* \"#utility.yul\":10720:10729   */\n      0x00\n        /* \"#utility.yul\":10753:10790   */\n      tag_495\n        /* \"#utility.yul\":10784:10789   */\n      dup3\n        /* \"#utility.yul\":10753:10790   */\n      tag_496\n      jump\t// in\n    tag_495:\n        /* \"#utility.yul\":10740:10790   */\n      swap1\n      pop\n        /* \"#utility.yul\":10670:10796   */\n      swap2\n      swap1\n      pop\n      jump\t// out\n        /* \"#utility.yul\":10802:10915   */\n    tag_496:\n        /* \"#utility.yul\":10852:10861   */\n      0x00\n        /* \"#utility.yul\":10885:10909   */\n      tag_498\n        /* \"#utility.yul\":10903:10908   */\n      dup3\n        /* \"#utility.yul\":10885:10909   */\n      tag_485\n      jump\t// in\n    tag_498:\n        /* \"#utility.yul\":10872:10909   */\n      swap1\n      pop\n        /* \"#utility.yul\":10802:10915   */\n      swap2\n      swap1\n      pop\n      jump\t// out\n        /* \"#utility.yul\":10921:11154   */\n    tag_281:\n        /* \"#utility.yul\":10960:10963   */\n      0x00\n        /* \"#utility.yul\":10983:11007   */\n      tag_500\n        /* \"#utility.yul\":11001:11006   */\n      dup3\n        /* \"#utility.yul\":10983:11007   */\n      tag_431\n      jump\t// in\n    tag_500:\n        /* \"#utility.yul\":10974:11007   */\n      swap2\n      pop\n        /* \"#utility.yul\":11029:11095   */\n      0xffffffffffffffffffffffffffffffffffffffffffffffffffffffffffffffff\n        /* \"#utility.yul\":11022:11027   */\n      dup3\n        /* \"#utility.yul\":11019:11096   */\n      eq\n        /* \"#utility.yul\":11016:11119   */\n      iszero\n      tag_501\n      jumpi\n        /* \"#utility.yul\":11099:11117   */\n      tag_502\n      tag_466\n      jump\t// in\n    tag_502:\n        /* \"#utility.yul\":11016:11119   */\n    tag_501:\n        /* \"#utility.yul\":11146:11147   */\n      0x01\n        /* \"#utility.yul\":11139:11144   */\n      dup3\n        /* \"#utility.yul\":11135:11148   */\n      add\n        /* \"#utility.yul\":11128:11148   */\n      swap1\n      pop\n        /* \"#utility.yul\":10921:11154   */\n      swap2\n      swap1\n      pop\n      jump\t// out\n        /* \"#utility.yul\":11160:11340   */\n    tag_466:\n        /* \"#utility.yul\":11208:11285   */\n      0x4e487b7100000000000000000000000000000000000000000000000000000000\n        /* \"#utility.yul\":11205:11206   */\n      0x00\n        /* \"#utility.yul\":11198:11286   */\n      mstore\n        /* \"#utility.yul\":11305:11309   */\n      0x11\n        /* \"#utility.yul\":11302:11303   */\n      0x04\n        /* \"#utility.yul\":11295:11310   */\n      mstore\n        /* \"#utility.yul\":11329:11333   */\n      0x24\n        /* \"#utility.yul\":11326:11327   */\n      0x00\n        /* \"#utility.yul\":11319:11334   */\n      revert\n        /* \"#utility.yul\":11346:11526   */\n    tag_472:\n        /* \"#utility.yul\":11394:11471   */\n      0x4e487b7100000000000000000000000000000000000000000000000000000000\n        /* \"#utility.yul\":11391:11392   */\n      0x00\n        /* \"#utility.yul\":11384:11472   */\n      mstore\n        /* \"#utility.yul\":11491:11495   */\n      0x12\n        /* \"#utility.yul\":11488:11489   */\n      0x04\n        /* \"#utility.yul\":11481:11496   */\n      mstore\n        /* \"#utility.yul\":11515:11519   */\n      0x24\n        /* \"#utility.yul\":11512:11513   */\n      0x00\n        /* \"#utility.yul\":11505:11520   */\n      revert\n        /* \"#utility.yul\":11655:11772   */\n    tag_371:\n        /* \"#utility.yul\":11764:11765   */\n      0x00\n        /* \"#utility.yul\":11761:11762   */\n      dup1\n        /* \"#utility.yul\":11754:11766   */\n      revert\n        /* \"#utility.yul\":11778:12001   */\n    tag_412:\n        /* \"#utility.yul\":11918:11952   */\n      0x596f7520646f6e7420686176652074686174206d75636820746f207769746864\n        /* \"#utility.yul\":11914:11915   */\n      0x00\n        /* \"#utility.yul\":11906:11912   */\n      dup3\n        /* \"#utility.yul\":11902:11916   */\n      add\n        /* \"#utility.yul\":11895:11953   */\n      mstore\n        /* \"#utility.yul\":11987:11993   */\n      0x7261772100000000000000000000000000000000000000000000000000000000\n        /* \"#utility.yul\":11982:11984   */\n      0x20\n        /* \"#utility.yul\":11974:11980   */\n      dup3\n        /* \"#utility.yul\":11970:11985   */\n      add\n        /* \"#utility.yul\":11963:11994   */\n      mstore\n        /* \"#utility.yul\":11778:12001   */\n      pop\n      jump\t// out\n        /* \"#utility.yul\":12007:12178   */\n    tag_417:\n        /* \"#utility.yul\":12147:12170   */\n      0x546f6b656e207472616e73666572206661696c65640000000000000000000000\n        /* \"#utility.yul\":12143:12144   */\n      0x00\n        /* \"#utility.yul\":12135:12141   */\n      dup3\n        /* \"#utility.yul\":12131:12145   */\n      add\n        /* \"#utility.yul\":12124:12171   */\n      mstore\n        /* \"#utility.yul\":12007:12178   */\n      pop\n      jump\t// out\n        /* \"#utility.yul\":12184:12360   */\n    tag_422:\n        /* \"#utility.yul\":12324:12352   */\n      0x596f7520646f6e742068617665207468617420616d6f756e7421000000000000\n        /* \"#utility.yul\":12320:12321   */\n      0x00\n        /* \"#utility.yul\":12312:12318   */\n      dup3\n        /* \"#utility.yul\":12308:12322   */\n      add\n        /* \"#utility.yul\":12301:12353   */\n      mstore\n        /* \"#utility.yul\":12184:12360   */\n      pop\n      jump\t// out\n        /* \"#utility.yul\":12366:12586   */\n    tag_427:\n        /* \"#utility.yul\":12506:12540   */\n      0x75696e74206f766572666c6f772066726f6d206d756c7469706c69636174696f\n        /* \"#utility.yul\":12502:12503   */\n      0x00\n        /* \"#utility.yul\":12494:12500   */\n      dup3\n        /* \"#utility.yul\":12490:12504   */\n      add\n        /* \"#utility.yul\":12483:12541   */\n      mstore\n        /* \"#utility.yul\":12575:12578   */\n      0x6e00000000000000000000000000000000000000000000000000000000000000\n        /* \"#utility.yul\":12570:12572   */\n      0x20\n        /* \"#utility.yul\":12562:12568   */\n      dup3\n        /* \"#utility.yul\":12558:12573   */\n      add\n        /* \"#utility.yul\":12551:12579   */\n      mstore\n        /* \"#utility.yul\":12366:12586   */\n      pop\n      jump\t// out\n        /* \"#utility.yul\":12592:12714   */\n    tag_356:\n        /* \"#utility.yul\":12665:12689   */\n      tag_513\n        /* \"#utility.yul\":12683:12688   */\n      dup2\n        /* \"#utility.yul\":12665:12689   */\n      tag_398\n      jump\t// in\n    tag_513:\n        /* \"#utility.yul\":12658:12663   */\n      dup2\n        /* \"#utility.yul\":12655:12690   */\n      eq\n        /* \"#utility.yul\":12645:12708   */\n      tag_514\n      jumpi\n        /* \"#utility.yul\":12704:12705   */\n      0x00\n        /* \"#utility.yul\":12701:12702   */\n      dup1\n        /* \"#utility.yul\":12694:12706   */\n      revert\n        /* \"#utility.yul\":12645:12708   */\n    tag_514:\n        /* \"#utility.yul\":12592:12714   */\n      pop\n      jump\t// out\n        /* \"#utility.yul\":12720:12836   */\n    tag_360:\n        /* \"#utility.yul\":12790:12811   */\n      tag_516\n        /* \"#utility.yul\":12805:12810   */\n      dup2\n        /* \"#utility.yul\":12790:12811   */\n      tag_486\n      jump\t// in\n    tag_516:\n        /* \"#utility.yul\":12783:12788   */\n      dup2\n        /* \"#utility.yul\":12780:12812   */\n      eq\n        /* \"#utility.yul\":12770:12830   */\n      tag_517\n      jumpi\n        /* \"#utility.yul\":12826:12827   */\n      0x00\n        /* \"#utility.yul\":12823:12824   */\n      dup1\n        /* \"#utility.yul\":12816:12828   */\n      revert\n        /* \"#utility.yul\":12770:12830   */\n    tag_517:\n        /* \"#utility.yul\":12720:12836   */\n      pop\n      jump\t// out\n        /* \"#utility.yul\":12842:12964   */\n    tag_364:\n        /* \"#utility.yul\":12915:12939   */\n      tag_519\n        /* \"#utility.yul\":12933:12938   */\n      dup2\n        /* \"#utility.yul\":12915:12939   */\n      tag_431\n      jump\t// in\n    tag_519:\n        /* \"#utility.yul\":12908:12913   */\n      dup2\n        /* \"#utility.yul\":12905:12940   */\n      eq\n        /* \"#utility.yul\":12895:12958   */\n      tag_520\n      jumpi\n        /* \"#utility.yul\":12954:12955   */\n      0x00\n        /* \"#utility.yul\":12951:12952   */\n      dup1\n        /* \"#utility.yul\":12944:12956   */\n      revert\n        /* \"#utility.yul\":12895:12958   */\n    tag_520:\n        /* \"#utility.yul\":12842:12964   */\n      pop\n      jump\t// out\n\n    auxdata: 0xa26469706673582212207c1c71409bcaf67022359471b00f4a8967287d27881649f2daeb14c342316a0564736f6c63430008070033\n}\n",
				"bytecode": {
					"linkReferences": {},
					"object": "6080604052670de0b6b3a764000061c3506200001c91906200025f565b600a55620186a0600d5562015f90600e55620927c0600f5573617f2e2fd72fd9d5503197092ac168c91465e7f2601160006101000a81548173ffffffffffffffffffffffffffffffffffffffff021916908373ffffffffffffffffffffffffffffffffffffffff1602179055503480156200009657600080fd5b5060405162002427380380620024278339818101604052810190620000bc919062000218565b80601760006101000a81548173ffffffffffffffffffffffffffffffffffffffff021916908373ffffffffffffffffffffffffffffffffffffffff16021790555081601260006101000a81548173ffffffffffffffffffffffffffffffffffffffff021916908373ffffffffffffffffffffffffffffffffffffffff16021790555073d7acd2a9fd159e69bb102a1ca21c9a3e3a5f771b601360006101000a81548173ffffffffffffffffffffffffffffffffffffffff021916908373ffffffffffffffffffffffffffffffffffffffff16021790555073617f2e2fd72fd9d5503197092ac168c91465e7f2600660006101000a81548173ffffffffffffffffffffffffffffffffffffffff021916908373ffffffffffffffffffffffffffffffffffffffff16021790555042600b8190555062069780600c8190555050506200034c565b600081519050620002128162000332565b92915050565b600080604083850312156200023257620002316200032d565b5b6000620002428582860162000201565b9250506020620002558582860162000201565b9150509250929050565b60006200026c82620002f4565b91506200027983620002f4565b9250817fffffffffffffffffffffffffffffffffffffffffffffffffffffffffffffffff0483118215151615620002b557620002b4620002fe565b5b828202905092915050565b6000620002cd82620002d4565b9050919050565b600073ffffffffffffffffffffffffffffffffffffffff82169050919050565b6000819050919050565b7f4e487b7100000000000000000000000000000000000000000000000000000000600052601160045260246000fd5b600080fd5b6200033d81620002c0565b81146200034957600080fd5b50565b6120cb806200035c6000396000f3fe6080604052600436106101ee5760003560e01c806367e927a81161010d578063d82eddf2116100a0578063eee05f5e1161006f578063eee05f5e146106de578063f7523c5214610709578063fbbb458914610746578063fc36144314610771578063ff357f5b1461079a576101ee565b8063d82eddf214610620578063ee4676781461064b578063ee546a5114610676578063ee620868146106b3576101ee565b806393f7b711116100dc57806393f7b711146105765780639b19251a146105a1578063c079d7f6146105ca578063cbff4617146105f5576101ee565b806367e927a8146104cc5780636e05c1b9146104f55780636f10e2851461052057806371cd58f91461054b576101ee565b806329982a321161018557806343d32e9c1161015457806343d32e9c1461041d57806364ce07d81461044857806365819f7e1461048557806367b48c91146104a1576101ee565b806329982a321461035f5780632a9f0fb11461038a57806335453307146103c75780633c6eb17a146103f2576101ee565b80631514c976116101c15780631514c976146102b2578063164c8501146102ef5780631bc9cc45146103185780631f564a0614610334576101ee565b8063018a25e8146101f3578063047729b01461021e5780630ccaf04f1461024957806312b2ed9414610274575b600080fd5b3480156101ff57600080fd5b506102086107b6565b6040516102159190611cbf565b60405180910390f35b34801561022a57600080fd5b506102336108d4565b6040516102409190611b8e565b60405180910390f35b34801561025557600080fd5b5061025e6108fa565b60405161026b9190611cbf565b60405180910390f35b34801561028057600080fd5b5061029b60048036038101906102969190611992565b6109ab565b6040516102a9929190611cda565b60405180910390f35b3480156102be57600080fd5b506102d960048036038101906102d49190611a2c565b6109cf565b6040516102e69190611cbf565b60405180910390f35b3480156102fb57600080fd5b5061031660048036038101906103119190611a2c565b6109e7565b005b610332600480360381019061032d9190611a2c565b610b65565b005b34801561034057600080fd5b50610349610cd3565b6040516103569190611cbf565b60405180910390f35b34801561036b57600080fd5b50610374610d85565b6040516103819190611b8e565b60405180910390f35b34801561039657600080fd5b506103b160048036038101906103ac9190611a2c565b610dab565b6040516103be9190611cbf565b60405180910390f35b3480156103d357600080fd5b506103dc610dc3565b6040516103e99190611cbf565b60405180910390f35b3480156103fe57600080fd5b50610407610dc9565b6040516104149190611cbf565b60405180910390f35b34801561042957600080fd5b50610432610dcf565b60405161043f9190611cbf565b60405180910390f35b34801561045457600080fd5b5061046f600480360381019061046a9190611a86565b610eed565b60405161047c9190611cbf565b60405180910390f35b61049f600480360381019061049a9190611a2c565b610f2e565b005b3480156104ad57600080fd5b506104b661114c565b6040516104c39190611cbf565b60405180910390f35b3480156104d857600080fd5b506104f360048036038101906104ee9190611a2c565b611152565b005b34801561050157600080fd5b5061050a611203565b6040516105179190611c09565b60405180910390f35b34801561052c57600080fd5b50610535611229565b6040516105429190611c24565b60405180910390f35b34801561055757600080fd5b5061056061123c565b60405161056d9190611cbf565b60405180910390f35b34801561058257600080fd5b5061058b61129f565b6040516105989190611cbf565b60405180910390f35b3480156105ad57600080fd5b506105c860048036038101906105c39190611992565b611350565b005b3480156105d657600080fd5b506105df611353565b6040516105ec9190611b8e565b60405180910390f35b34801561060157600080fd5b5061060a611379565b6040516106179190611cbf565b60405180910390f35b34801561062c57600080fd5b5061063561137f565b6040516106429190611cbf565b60405180910390f35b34801561065757600080fd5b506106606113e2565b60405161066d9190611c09565b60405180910390f35b34801561068257600080fd5b5061069d600480360381019061069891906119bf565b611408565b6040516106aa9190611cbf565b60405180910390f35b3480156106bf57600080fd5b506106c861149b565b6040516106d59190611cbf565b60405180910390f35b3480156106ea57600080fd5b506106f36114a1565b6040516107009190611b8e565b60405180910390f35b34801561071557600080fd5b50610730600480360381019061072b9190611a86565b6114c7565b60405161073d9190611cbf565b60405180910390f35b34801561075257600080fd5b5061075b611510565b6040516107689190611b8e565b60405180910390f35b34801561077d57600080fd5b5061079860048036038101906107939190611a2c565b611536565b005b6107b460048036038101906107af9190611a2c565b61154e565b005b60006108cf3073ffffffffffffffffffffffffffffffffffffffff16631f564a066040518163ffffffff1660e01b815260040160206040518083038186803b15801561080157600080fd5b505afa158015610815573d6000803e3d6000fd5b505050506040513d601f19601f820116820180604052508101906108399190611a59565b3073ffffffffffffffffffffffffffffffffffffffff166393f7b7116040518163ffffffff1660e01b815260040160206040518083038186803b15801561087f57600080fd5b505afa158015610893573d6000803e3d6000fd5b505050506040513d601f19601f820116820180604052508101906108b79190611a59565b6710a741a4627800006108ca9190611d14565b6114c7565b905090565b600860009054906101000a900473ffffffffffffffffffffffffffffffffffffffff1681565b6000806109863073ffffffffffffffffffffffffffffffffffffffff1663d82eddf26040518163ffffffff1660e01b815260040160206040518083038186803b15801561094657600080fd5b505afa15801561095a573d6000803e3d6000fd5b505050506040513d601f19601f8201168201806040525081019061097e9190611a59565b600f54610eed565b9050670429d069189e00008111156109a457670429d069189e000090505b8091505090565b60166020528060005260406000206000915090508060000154908060010154905082565b60156020528060005260406000206000915090505481565b601660003373ffffffffffffffffffffffffffffffffffffffff1673ffffffffffffffffffffffffffffffffffffffff168152602001908152602001600020600101548110610a6b576040517f08c379a0000000000000000000000000000000000000000000000000000000008152600401610a6290611c3f565b60405180910390fd5b80601660003373ffffffffffffffffffffffffffffffffffffffff1673ffffffffffffffffffffffffffffffffffffffff1681526020019081526020016000206001016000828254610abd9190611df5565b925050819055506000601660003373ffffffffffffffffffffffffffffffffffffffff1673ffffffffffffffffffffffffffffffffffffffff168152602001908152602001600020600101541415610b6257601660003373ffffffffffffffffffffffffffffffffffffffff1673ffffffffffffffffffffffffffffffffffffffff168152602001908152602001600020600080820160009055600182016000905550505b50565b6000601260009054906101000a900473ffffffffffffffffffffffffffffffffffffffff1673ffffffffffffffffffffffffffffffffffffffff166370a08231336040518263ffffffff1660e01b8152600401610bc29190611b8e565b60206040518083038186803b158015610bda57600080fd5b505afa158015610bee573d6000803e3d6000fd5b505050506040513d601f19601f82011682018060405250810190610c129190611a59565b9050818111610c56576040517f08c379a0000000000000000000000000000000000000000000000000000000008152600401610c4d90611c7f565b60405180910390fd5b610c84601260009054906101000a900473ffffffffffffffffffffffffffffffffffffffff1633308561178b565b600062015180600b5442610c989190611df5565b610ca29190611d6a565b905082601560008381526020019081526020016000206000828254610cc79190611d14565b92505081905550505050565b6000610d80600a54601260009054906101000a900473ffffffffffffffffffffffffffffffffffffffff1673ffffffffffffffffffffffffffffffffffffffff166318160ddd6040518163ffffffff1660e01b815260040160206040518083038186803b158015610d4357600080fd5b505afa158015610d57573d6000803e3d6000fd5b505050506040513d601f19601f82011682018060405250810190610d7b9190611a59565b610eed565b905090565b600960009054906101000a900473ffffffffffffffffffffffffffffffffffffffff1681565b60146020528060005260406000206000915090505481565b600a5481565b600b5481565b6000610ee83073ffffffffffffffffffffffffffffffffffffffff16631f564a066040518163ffffffff1660e01b815260040160206040518083038186803b158015610e1a57600080fd5b505afa158015610e2e573d6000803e3d6000fd5b505050506040513d601f19601f82011682018060405250810190610e529190611a59565b3073ffffffffffffffffffffffffffffffffffffffff16630ccaf04f6040518163ffffffff1660e01b815260040160206040518083038186803b158015610e9857600080fd5b505afa158015610eac573d6000803e3d6000fd5b505050506040513d601f19601f82011682018060405250810190610ed09190611a59565b670c7d713b49da0000610ee39190611df5565b6114c7565b905090565b600080610f0284670de0b6b3a7640000611865565b905082610f1b82600286610f169190611d6a565b6118e0565b610f259190611d6a565b91505092915050565b6000601360009054906101000a900473ffffffffffffffffffffffffffffffffffffffff1673ffffffffffffffffffffffffffffffffffffffff166370a08231336040518263ffffffff1660e01b8152600401610f8b9190611b8e565b60206040518083038186803b158015610fa357600080fd5b505afa158015610fb7573d6000803e3d6000fd5b505050506040513d601f19601f82011682018060405250810190610fdb9190611a59565b905081811161101f576040517f08c379a000000000000000000000000000000000000000000000000000000000815260040161101690611c7f565b60405180910390fd5b601260009054906101000a900473ffffffffffffffffffffffffffffffffffffffff1673ffffffffffffffffffffffffffffffffffffffff1663a9059cbb33846040518363ffffffff1660e01b815260040161107c929190611be0565b602060405180830381600087803b15801561109657600080fd5b505af11580156110aa573d6000803e3d6000fd5b505050506040513d601f19601f820116820180604052508101906110ce91906119ff565b506110fd601360009054906101000a900473ffffffffffffffffffffffffffffffffffffffff1633308561178b565b600062015180600b54426111119190611df5565b61111b9190611d6a565b9050826014600083815260200190815260200160002060008282546111409190611d14565b92505081905550505050565b600c5481565b620d2f00426111619190611d14565b601660003373ffffffffffffffffffffffffffffffffffffffff1673ffffffffffffffffffffffffffffffffffffffff1681526020019081526020016000206000018190555080601660003373ffffffffffffffffffffffffffffffffffffffff1673ffffffffffffffffffffffffffffffffffffffff16815260200190815260200160002060010160008282546111f99190611d14565b9250508190555050565b601260009054906101000a900473ffffffffffffffffffffffffffffffffffffffff1681565b601060009054906101000a9004600f0b81565b60008060008062015180600c546112539190611d6a565b9050600091505b80821015611296576014600083815260200190815260200160002054836112819190611d14565b9250818061128e90611eb4565b92505061125a565b82935050505090565b60008061132b3073ffffffffffffffffffffffffffffffffffffffff166371cd58f96040518163ffffffff1660e01b815260040160206040518083038186803b1580156112eb57600080fd5b505afa1580156112ff573d6000803e3d6000fd5b505050506040513d601f19601f820116820180604052508101906113239190611a59565b600f54610eed565b90506710a741a462780000811115611349576710a741a46278000090505b8091505090565b50565b600760009054906101000a900473ffffffffffffffffffffffffffffffffffffffff1681565b60015481565b60008060008062015180600c546113969190611d6a565b9050600091505b808210156113d9576015600083815260200190815260200160002054836113c49190611d14565b925081806113d190611eb4565b92505061139d565b82935050505090565b601360009054906101000a900473ffffffffffffffffffffffffffffffffffffffff1681565b60008273ffffffffffffffffffffffffffffffffffffffff166370a08231836040518263ffffffff1660e01b81526004016114439190611b8e565b60206040518083038186803b15801561145b57600080fd5b505afa15801561146f573d6000803e3d6000fd5b505050506040513d601f19601f820116820180604052508101906114939190611a59565b905092915050565b60005481565b601160009054906101000a900473ffffffffffffffffffffffffffffffffffffffff1681565b6000806114d48484611865565b9050670de0b6b3a76400006114fd826002670de0b6b3a76400006114f89190611d6a565b6118e0565b6115079190611d6a565b91505092915050565b600660009054906101000a900473ffffffffffffffffffffffffffffffffffffffff1681565b62015180816115459190611d9b565b600c8190555050565b6000601260009054906101000a900473ffffffffffffffffffffffffffffffffffffffff1673ffffffffffffffffffffffffffffffffffffffff166370a08231336040518263ffffffff1660e01b81526004016115ab9190611b8e565b60206040518083038186803b1580156115c357600080fd5b505afa1580156115d7573d6000803e3d6000fd5b505050506040513d601f19601f820116820180604052508101906115fb9190611a59565b905081811161163f576040517f08c379a000000000000000000000000000000000000000000000000000000000815260040161163690611c7f565b60405180910390fd5b601360009054906101000a900473ffffffffffffffffffffffffffffffffffffffff1673ffffffffffffffffffffffffffffffffffffffff1663a9059cbb33670de0b6b3a764000060016116939190611d9b565b8561169e9190611d14565b6040518363ffffffff1660e01b81526004016116bb929190611be0565b602060405180830381600087803b1580156116d557600080fd5b505af11580156116e9573d6000803e3d6000fd5b505050506040513d601f19601f8201168201806040525081019061170d91906119ff565b5061173c601260009054906101000a900473ffffffffffffffffffffffffffffffffffffffff1633308561178b565b600062015180600b54426117509190611df5565b61175a9190611d6a565b90508260156000838152602001908152602001600020600082825461177f9190611d14565b92505081905550505050565b60008473ffffffffffffffffffffffffffffffffffffffff166323b872dd8585856040518463ffffffff1660e01b81526004016117ca93929190611ba9565b602060405180830381600087803b1580156117e457600080fd5b505af11580156117f8573d6000803e3d6000fd5b505050506040513d601f19601f8201168201806040525081019061181c91906119ff565b90508061185e576040517f08c379a000000000000000000000000000000000000000000000000000000000815260040161185590611c5f565b60405180910390fd5b5050505050565b60008083141561187857600090506118da565b600082846118869190611d9b565b90508284826118959190611d6a565b146118d5576040517f08c379a00000000000000000000000000000000000000000000000000000000081526004016118cc90611c9f565b60405180910390fd5b809150505b92915050565b60008082846118ef9190611d14565b905083811015611934576040517f08c379a000000000000000000000000000000000000000000000000000000000815260040161192b90611c9f565b60405180910390fd5b8091505092915050565b60008135905061194d81612050565b92915050565b60008151905061196281612067565b92915050565b6000813590506119778161207e565b92915050565b60008151905061198c8161207e565b92915050565b6000602082840312156119a8576119a7611f5b565b5b60006119b68482850161193e565b91505092915050565b600080604083850312156119d6576119d5611f5b565b5b60006119e48582860161193e565b92505060206119f58582860161193e565b9150509250929050565b600060208284031215611a1557611a14611f5b565b5b6000611a2384828501611953565b91505092915050565b600060208284031215611a4257611a41611f5b565b5b6000611a5084828501611968565b91505092915050565b600060208284031215611a6f57611a6e611f5b565b5b6000611a7d8482850161197d565b91505092915050565b60008060408385031215611a9d57611a9c611f5b565b5b6000611aab85828601611968565b9250506020611abc85828601611968565b9150509250929050565b611acf81611e29565b82525050565b611ade81611e7e565b82525050565b611aed81611e47565b82525050565b6000611b00602483611d03565b9150611b0b82611f60565b604082019050919050565b6000611b23601583611d03565b9150611b2e82611faf565b602082019050919050565b6000611b46601a83611d03565b9150611b5182611fd8565b602082019050919050565b6000611b69602183611d03565b9150611b7482612001565b604082019050919050565b611b8881611e74565b82525050565b6000602082019050611ba36000830184611ac6565b92915050565b6000606082019050611bbe6000830186611ac6565b611bcb6020830185611ac6565b611bd86040830184611b7f565b949350505050565b6000604082019050611bf56000830185611ac6565b611c026020830184611b7f565b9392505050565b6000602082019050611c1e6000830184611ad5565b92915050565b6000602082019050611c396000830184611ae4565b92915050565b60006020820190508181036000830152611c5881611af3565b9050919050565b60006020820190508181036000830152611c7881611b16565b9050919050565b60006020820190508181036000830152611c9881611b39565b9050919050565b60006020820190508181036000830152611cb881611b5c565b9050919050565b6000602082019050611cd46000830184611b7f565b92915050565b6000604082019050611cef6000830185611b7f565b611cfc6020830184611b7f565b9392505050565b600082825260208201905092915050565b6000611d1f82611e74565b9150611d2a83611e74565b9250827fffffffffffffffffffffffffffffffffffffffffffffffffffffffffffffffff03821115611d5f57611d5e611efd565b5b828201905092915050565b6000611d7582611e74565b9150611d8083611e74565b925082611d9057611d8f611f2c565b5b828204905092915050565b6000611da682611e74565b9150611db183611e74565b9250817fffffffffffffffffffffffffffffffffffffffffffffffffffffffffffffffff0483118215151615611dea57611de9611efd565b5b828202905092915050565b6000611e0082611e74565b9150611e0b83611e74565b925082821015611e1e57611e1d611efd565b5b828203905092915050565b6000611e3482611e54565b9050919050565b60008115159050919050565b600081600f0b9050919050565b600073ffffffffffffffffffffffffffffffffffffffff82169050919050565b6000819050919050565b6000611e8982611e90565b9050919050565b6000611e9b82611ea2565b9050919050565b6000611ead82611e54565b9050919050565b6000611ebf82611e74565b91507fffffffffffffffffffffffffffffffffffffffffffffffffffffffffffffffff821415611ef257611ef1611efd565b5b600182019050919050565b7f4e487b7100000000000000000000000000000000000000000000000000000000600052601160045260246000fd5b7f4e487b7100000000000000000000000000000000000000000000000000000000600052601260045260246000fd5b600080fd5b7f596f7520646f6e7420686176652074686174206d75636820746f20776974686460008201527f7261772100000000000000000000000000000000000000000000000000000000602082015250565b7f546f6b656e207472616e73666572206661696c65640000000000000000000000600082015250565b7f596f7520646f6e742068617665207468617420616d6f756e7421000000000000600082015250565b7f75696e74206f766572666c6f772066726f6d206d756c7469706c69636174696f60008201527f6e00000000000000000000000000000000000000000000000000000000000000602082015250565b61205981611e29565b811461206457600080fd5b50565b61207081611e3b565b811461207b57600080fd5b50565b61208781611e74565b811461209257600080fd5b5056fea26469706673582212207c1c71409bcaf67022359471b00f4a8967287d27881649f2daeb14c342316a0564736f6c63430008070033",
					"opcodes": "PUSH1 0x80 PUSH1 0x40 MSTORE PUSH8 0xDE0B6B3A7640000 PUSH2 0xC350 PUSH3 0x1C SWAP2 SWAP1 PUSH3 0x25F JUMP JUMPDEST PUSH1 0xA SSTORE PUSH3 0x186A0 PUSH1 0xD SSTORE PUSH3 0x15F90 PUSH1 0xE SSTORE PUSH3 0x927C0 PUSH1 0xF SSTORE PUSH20 0x617F2E2FD72FD9D5503197092AC168C91465E7F2 PUSH1 0x11 PUSH1 0x0 PUSH2 0x100 EXP DUP2 SLOAD DUP2 PUSH20 0xFFFFFFFFFFFFFFFFFFFFFFFFFFFFFFFFFFFFFFFF MUL NOT AND SWAP1 DUP4 PUSH20 0xFFFFFFFFFFFFFFFFFFFFFFFFFFFFFFFFFFFFFFFF AND MUL OR SWAP1 SSTORE POP CALLVALUE DUP1 ISZERO PUSH3 0x96 JUMPI PUSH1 0x0 DUP1 REVERT JUMPDEST POP PUSH1 0x40 MLOAD PUSH3 0x2427 CODESIZE SUB DUP1 PUSH3 0x2427 DUP4 CODECOPY DUP2 DUP2 ADD PUSH1 0x40 MSTORE DUP2 ADD SWAP1 PUSH3 0xBC SWAP2 SWAP1 PUSH3 0x218 JUMP JUMPDEST DUP1 PUSH1 0x17 PUSH1 0x0 PUSH2 0x100 EXP DUP2 SLOAD DUP2 PUSH20 0xFFFFFFFFFFFFFFFFFFFFFFFFFFFFFFFFFFFFFFFF MUL NOT AND SWAP1 DUP4 PUSH20 0xFFFFFFFFFFFFFFFFFFFFFFFFFFFFFFFFFFFFFFFF AND MUL OR SWAP1 SSTORE POP DUP2 PUSH1 0x12 PUSH1 0x0 PUSH2 0x100 EXP DUP2 SLOAD DUP2 PUSH20 0xFFFFFFFFFFFFFFFFFFFFFFFFFFFFFFFFFFFFFFFF MUL NOT AND SWAP1 DUP4 PUSH20 0xFFFFFFFFFFFFFFFFFFFFFFFFFFFFFFFFFFFFFFFF AND MUL OR SWAP1 SSTORE POP PUSH20 0xD7ACD2A9FD159E69BB102A1CA21C9A3E3A5F771B PUSH1 0x13 PUSH1 0x0 PUSH2 0x100 EXP DUP2 SLOAD DUP2 PUSH20 0xFFFFFFFFFFFFFFFFFFFFFFFFFFFFFFFFFFFFFFFF MUL NOT AND SWAP1 DUP4 PUSH20 0xFFFFFFFFFFFFFFFFFFFFFFFFFFFFFFFFFFFFFFFF AND MUL OR SWAP1 SSTORE POP PUSH20 0x617F2E2FD72FD9D5503197092AC168C91465E7F2 PUSH1 0x6 PUSH1 0x0 PUSH2 0x100 EXP DUP2 SLOAD DUP2 PUSH20 0xFFFFFFFFFFFFFFFFFFFFFFFFFFFFFFFFFFFFFFFF MUL NOT AND SWAP1 DUP4 PUSH20 0xFFFFFFFFFFFFFFFFFFFFFFFFFFFFFFFFFFFFFFFF AND MUL OR SWAP1 SSTORE POP TIMESTAMP PUSH1 0xB DUP2 SWAP1 SSTORE POP PUSH3 0x69780 PUSH1 0xC DUP2 SWAP1 SSTORE POP POP POP PUSH3 0x34C JUMP JUMPDEST PUSH1 0x0 DUP2 MLOAD SWAP1 POP PUSH3 0x212 DUP2 PUSH3 0x332 JUMP JUMPDEST SWAP3 SWAP2 POP POP JUMP JUMPDEST PUSH1 0x0 DUP1 PUSH1 0x40 DUP4 DUP6 SUB SLT ISZERO PUSH3 0x232 JUMPI PUSH3 0x231 PUSH3 0x32D JUMP JUMPDEST JUMPDEST PUSH1 0x0 PUSH3 0x242 DUP6 DUP3 DUP7 ADD PUSH3 0x201 JUMP JUMPDEST SWAP3 POP POP PUSH1 0x20 PUSH3 0x255 DUP6 DUP3 DUP7 ADD PUSH3 0x201 JUMP JUMPDEST SWAP2 POP POP SWAP3 POP SWAP3 SWAP1 POP JUMP JUMPDEST PUSH1 0x0 PUSH3 0x26C DUP3 PUSH3 0x2F4 JUMP JUMPDEST SWAP2 POP PUSH3 0x279 DUP4 PUSH3 0x2F4 JUMP JUMPDEST SWAP3 POP DUP2 PUSH32 0xFFFFFFFFFFFFFFFFFFFFFFFFFFFFFFFFFFFFFFFFFFFFFFFFFFFFFFFFFFFFFFFF DIV DUP4 GT DUP3 ISZERO ISZERO AND ISZERO PUSH3 0x2B5 JUMPI PUSH3 0x2B4 PUSH3 0x2FE JUMP JUMPDEST JUMPDEST DUP3 DUP3 MUL SWAP1 POP SWAP3 SWAP2 POP POP JUMP JUMPDEST PUSH1 0x0 PUSH3 0x2CD DUP3 PUSH3 0x2D4 JUMP JUMPDEST SWAP1 POP SWAP2 SWAP1 POP JUMP JUMPDEST PUSH1 0x0 PUSH20 0xFFFFFFFFFFFFFFFFFFFFFFFFFFFFFFFFFFFFFFFF DUP3 AND SWAP1 POP SWAP2 SWAP1 POP JUMP JUMPDEST PUSH1 0x0 DUP2 SWAP1 POP SWAP2 SWAP1 POP JUMP JUMPDEST PUSH32 0x4E487B7100000000000000000000000000000000000000000000000000000000 PUSH1 0x0 MSTORE PUSH1 0x11 PUSH1 0x4 MSTORE PUSH1 0x24 PUSH1 0x0 REVERT JUMPDEST PUSH1 0x0 DUP1 REVERT JUMPDEST PUSH3 0x33D DUP2 PUSH3 0x2C0 JUMP JUMPDEST DUP2 EQ PUSH3 0x349 JUMPI PUSH1 0x0 DUP1 REVERT JUMPDEST POP JUMP JUMPDEST PUSH2 0x20CB DUP1 PUSH3 0x35C PUSH1 0x0 CODECOPY PUSH1 0x0 RETURN INVALID PUSH1 0x80 PUSH1 0x40 MSTORE PUSH1 0x4 CALLDATASIZE LT PUSH2 0x1EE JUMPI PUSH1 0x0 CALLDATALOAD PUSH1 0xE0 SHR DUP1 PUSH4 0x67E927A8 GT PUSH2 0x10D JUMPI DUP1 PUSH4 0xD82EDDF2 GT PUSH2 0xA0 JUMPI DUP1 PUSH4 0xEEE05F5E GT PUSH2 0x6F JUMPI DUP1 PUSH4 0xEEE05F5E EQ PUSH2 0x6DE JUMPI DUP1 PUSH4 0xF7523C52 EQ PUSH2 0x709 JUMPI DUP1 PUSH4 0xFBBB4589 EQ PUSH2 0x746 JUMPI DUP1 PUSH4 0xFC361443 EQ PUSH2 0x771 JUMPI DUP1 PUSH4 0xFF357F5B EQ PUSH2 0x79A JUMPI PUSH2 0x1EE JUMP JUMPDEST DUP1 PUSH4 0xD82EDDF2 EQ PUSH2 0x620 JUMPI DUP1 PUSH4 0xEE467678 EQ PUSH2 0x64B JUMPI DUP1 PUSH4 0xEE546A51 EQ PUSH2 0x676 JUMPI DUP1 PUSH4 0xEE620868 EQ PUSH2 0x6B3 JUMPI PUSH2 0x1EE JUMP JUMPDEST DUP1 PUSH4 0x93F7B711 GT PUSH2 0xDC JUMPI DUP1 PUSH4 0x93F7B711 EQ PUSH2 0x576 JUMPI DUP1 PUSH4 0x9B19251A EQ PUSH2 0x5A1 JUMPI DUP1 PUSH4 0xC079D7F6 EQ PUSH2 0x5CA JUMPI DUP1 PUSH4 0xCBFF4617 EQ PUSH2 0x5F5 JUMPI PUSH2 0x1EE JUMP JUMPDEST DUP1 PUSH4 0x67E927A8 EQ PUSH2 0x4CC JUMPI DUP1 PUSH4 0x6E05C1B9 EQ PUSH2 0x4F5 JUMPI DUP1 PUSH4 0x6F10E285 EQ PUSH2 0x520 JUMPI DUP1 PUSH4 0x71CD58F9 EQ PUSH2 0x54B JUMPI PUSH2 0x1EE JUMP JUMPDEST DUP1 PUSH4 0x29982A32 GT PUSH2 0x185 JUMPI DUP1 PUSH4 0x43D32E9C GT PUSH2 0x154 JUMPI DUP1 PUSH4 0x43D32E9C EQ PUSH2 0x41D JUMPI DUP1 PUSH4 0x64CE07D8 EQ PUSH2 0x448 JUMPI DUP1 PUSH4 0x65819F7E EQ PUSH2 0x485 JUMPI DUP1 PUSH4 0x67B48C91 EQ PUSH2 0x4A1 JUMPI PUSH2 0x1EE JUMP JUMPDEST DUP1 PUSH4 0x29982A32 EQ PUSH2 0x35F JUMPI DUP1 PUSH4 0x2A9F0FB1 EQ PUSH2 0x38A JUMPI DUP1 PUSH4 0x35453307 EQ PUSH2 0x3C7 JUMPI DUP1 PUSH4 0x3C6EB17A EQ PUSH2 0x3F2 JUMPI PUSH2 0x1EE JUMP JUMPDEST DUP1 PUSH4 0x1514C976 GT PUSH2 0x1C1 JUMPI DUP1 PUSH4 0x1514C976 EQ PUSH2 0x2B2 JUMPI DUP1 PUSH4 0x164C8501 EQ PUSH2 0x2EF JUMPI DUP1 PUSH4 0x1BC9CC45 EQ PUSH2 0x318 JUMPI DUP1 PUSH4 0x1F564A06 EQ PUSH2 0x334 JUMPI PUSH2 0x1EE JUMP JUMPDEST DUP1 PUSH4 0x18A25E8 EQ PUSH2 0x1F3 JUMPI DUP1 PUSH4 0x47729B0 EQ PUSH2 0x21E JUMPI DUP1 PUSH4 0xCCAF04F EQ PUSH2 0x249 JUMPI DUP1 PUSH4 0x12B2ED94 EQ PUSH2 0x274 JUMPI JUMPDEST PUSH1 0x0 DUP1 REVERT JUMPDEST CALLVALUE DUP1 ISZERO PUSH2 0x1FF JUMPI PUSH1 0x0 DUP1 REVERT JUMPDEST POP PUSH2 0x208 PUSH2 0x7B6 JUMP JUMPDEST PUSH1 0x40 MLOAD PUSH2 0x215 SWAP2 SWAP1 PUSH2 0x1CBF JUMP JUMPDEST PUSH1 0x40 MLOAD DUP1 SWAP2 SUB SWAP1 RETURN JUMPDEST CALLVALUE DUP1 ISZERO PUSH2 0x22A JUMPI PUSH1 0x0 DUP1 REVERT JUMPDEST POP PUSH2 0x233 PUSH2 0x8D4 JUMP JUMPDEST PUSH1 0x40 MLOAD PUSH2 0x240 SWAP2 SWAP1 PUSH2 0x1B8E JUMP JUMPDEST PUSH1 0x40 MLOAD DUP1 SWAP2 SUB SWAP1 RETURN JUMPDEST CALLVALUE DUP1 ISZERO PUSH2 0x255 JUMPI PUSH1 0x0 DUP1 REVERT JUMPDEST POP PUSH2 0x25E PUSH2 0x8FA JUMP JUMPDEST PUSH1 0x40 MLOAD PUSH2 0x26B SWAP2 SWAP1 PUSH2 0x1CBF JUMP JUMPDEST PUSH1 0x40 MLOAD DUP1 SWAP2 SUB SWAP1 RETURN JUMPDEST CALLVALUE DUP1 ISZERO PUSH2 0x280 JUMPI PUSH1 0x0 DUP1 REVERT JUMPDEST POP PUSH2 0x29B PUSH1 0x4 DUP1 CALLDATASIZE SUB DUP2 ADD SWAP1 PUSH2 0x296 SWAP2 SWAP1 PUSH2 0x1992 JUMP JUMPDEST PUSH2 0x9AB JUMP JUMPDEST PUSH1 0x40 MLOAD PUSH2 0x2A9 SWAP3 SWAP2 SWAP1 PUSH2 0x1CDA JUMP JUMPDEST PUSH1 0x40 MLOAD DUP1 SWAP2 SUB SWAP1 RETURN JUMPDEST CALLVALUE DUP1 ISZERO PUSH2 0x2BE JUMPI PUSH1 0x0 DUP1 REVERT JUMPDEST POP PUSH2 0x2D9 PUSH1 0x4 DUP1 CALLDATASIZE SUB DUP2 ADD SWAP1 PUSH2 0x2D4 SWAP2 SWAP1 PUSH2 0x1A2C JUMP JUMPDEST PUSH2 0x9CF JUMP JUMPDEST PUSH1 0x40 MLOAD PUSH2 0x2E6 SWAP2 SWAP1 PUSH2 0x1CBF JUMP JUMPDEST PUSH1 0x40 MLOAD DUP1 SWAP2 SUB SWAP1 RETURN JUMPDEST CALLVALUE DUP1 ISZERO PUSH2 0x2FB JUMPI PUSH1 0x0 DUP1 REVERT JUMPDEST POP PUSH2 0x316 PUSH1 0x4 DUP1 CALLDATASIZE SUB DUP2 ADD SWAP1 PUSH2 0x311 SWAP2 SWAP1 PUSH2 0x1A2C JUMP JUMPDEST PUSH2 0x9E7 JUMP JUMPDEST STOP JUMPDEST PUSH2 0x332 PUSH1 0x4 DUP1 CALLDATASIZE SUB DUP2 ADD SWAP1 PUSH2 0x32D SWAP2 SWAP1 PUSH2 0x1A2C JUMP JUMPDEST PUSH2 0xB65 JUMP JUMPDEST STOP JUMPDEST CALLVALUE DUP1 ISZERO PUSH2 0x340 JUMPI PUSH1 0x0 DUP1 REVERT JUMPDEST POP PUSH2 0x349 PUSH2 0xCD3 JUMP JUMPDEST PUSH1 0x40 MLOAD PUSH2 0x356 SWAP2 SWAP1 PUSH2 0x1CBF JUMP JUMPDEST PUSH1 0x40 MLOAD DUP1 SWAP2 SUB SWAP1 RETURN JUMPDEST CALLVALUE DUP1 ISZERO PUSH2 0x36B JUMPI PUSH1 0x0 DUP1 REVERT JUMPDEST POP PUSH2 0x374 PUSH2 0xD85 JUMP JUMPDEST PUSH1 0x40 MLOAD PUSH2 0x381 SWAP2 SWAP1 PUSH2 0x1B8E JUMP JUMPDEST PUSH1 0x40 MLOAD DUP1 SWAP2 SUB SWAP1 RETURN JUMPDEST CALLVALUE DUP1 ISZERO PUSH2 0x396 JUMPI PUSH1 0x0 DUP1 REVERT JUMPDEST POP PUSH2 0x3B1 PUSH1 0x4 DUP1 CALLDATASIZE SUB DUP2 ADD SWAP1 PUSH2 0x3AC SWAP2 SWAP1 PUSH2 0x1A2C JUMP JUMPDEST PUSH2 0xDAB JUMP JUMPDEST PUSH1 0x40 MLOAD PUSH2 0x3BE SWAP2 SWAP1 PUSH2 0x1CBF JUMP JUMPDEST PUSH1 0x40 MLOAD DUP1 SWAP2 SUB SWAP1 RETURN JUMPDEST CALLVALUE DUP1 ISZERO PUSH2 0x3D3 JUMPI PUSH1 0x0 DUP1 REVERT JUMPDEST POP PUSH2 0x3DC PUSH2 0xDC3 JUMP JUMPDEST PUSH1 0x40 MLOAD PUSH2 0x3E9 SWAP2 SWAP1 PUSH2 0x1CBF JUMP JUMPDEST PUSH1 0x40 MLOAD DUP1 SWAP2 SUB SWAP1 RETURN JUMPDEST CALLVALUE DUP1 ISZERO PUSH2 0x3FE JUMPI PUSH1 0x0 DUP1 REVERT JUMPDEST POP PUSH2 0x407 PUSH2 0xDC9 JUMP JUMPDEST PUSH1 0x40 MLOAD PUSH2 0x414 SWAP2 SWAP1 PUSH2 0x1CBF JUMP JUMPDEST PUSH1 0x40 MLOAD DUP1 SWAP2 SUB SWAP1 RETURN JUMPDEST CALLVALUE DUP1 ISZERO PUSH2 0x429 JUMPI PUSH1 0x0 DUP1 REVERT JUMPDEST POP PUSH2 0x432 PUSH2 0xDCF JUMP JUMPDEST PUSH1 0x40 MLOAD PUSH2 0x43F SWAP2 SWAP1 PUSH2 0x1CBF JUMP JUMPDEST PUSH1 0x40 MLOAD DUP1 SWAP2 SUB SWAP1 RETURN JUMPDEST CALLVALUE DUP1 ISZERO PUSH2 0x454 JUMPI PUSH1 0x0 DUP1 REVERT JUMPDEST POP PUSH2 0x46F PUSH1 0x4 DUP1 CALLDATASIZE SUB DUP2 ADD SWAP1 PUSH2 0x46A SWAP2 SWAP1 PUSH2 0x1A86 JUMP JUMPDEST PUSH2 0xEED JUMP JUMPDEST PUSH1 0x40 MLOAD PUSH2 0x47C SWAP2 SWAP1 PUSH2 0x1CBF JUMP JUMPDEST PUSH1 0x40 MLOAD DUP1 SWAP2 SUB SWAP1 RETURN JUMPDEST PUSH2 0x49F PUSH1 0x4 DUP1 CALLDATASIZE SUB DUP2 ADD SWAP1 PUSH2 0x49A SWAP2 SWAP1 PUSH2 0x1A2C JUMP JUMPDEST PUSH2 0xF2E JUMP JUMPDEST STOP JUMPDEST CALLVALUE DUP1 ISZERO PUSH2 0x4AD JUMPI PUSH1 0x0 DUP1 REVERT JUMPDEST POP PUSH2 0x4B6 PUSH2 0x114C JUMP JUMPDEST PUSH1 0x40 MLOAD PUSH2 0x4C3 SWAP2 SWAP1 PUSH2 0x1CBF JUMP JUMPDEST PUSH1 0x40 MLOAD DUP1 SWAP2 SUB SWAP1 RETURN JUMPDEST CALLVALUE DUP1 ISZERO PUSH2 0x4D8 JUMPI PUSH1 0x0 DUP1 REVERT JUMPDEST POP PUSH2 0x4F3 PUSH1 0x4 DUP1 CALLDATASIZE SUB DUP2 ADD SWAP1 PUSH2 0x4EE SWAP2 SWAP1 PUSH2 0x1A2C JUMP JUMPDEST PUSH2 0x1152 JUMP JUMPDEST STOP JUMPDEST CALLVALUE DUP1 ISZERO PUSH2 0x501 JUMPI PUSH1 0x0 DUP1 REVERT JUMPDEST POP PUSH2 0x50A PUSH2 0x1203 JUMP JUMPDEST PUSH1 0x40 MLOAD PUSH2 0x517 SWAP2 SWAP1 PUSH2 0x1C09 JUMP JUMPDEST PUSH1 0x40 MLOAD DUP1 SWAP2 SUB SWAP1 RETURN JUMPDEST CALLVALUE DUP1 ISZERO PUSH2 0x52C JUMPI PUSH1 0x0 DUP1 REVERT JUMPDEST POP PUSH2 0x535 PUSH2 0x1229 JUMP JUMPDEST PUSH1 0x40 MLOAD PUSH2 0x542 SWAP2 SWAP1 PUSH2 0x1C24 JUMP JUMPDEST PUSH1 0x40 MLOAD DUP1 SWAP2 SUB SWAP1 RETURN JUMPDEST CALLVALUE DUP1 ISZERO PUSH2 0x557 JUMPI PUSH1 0x0 DUP1 REVERT JUMPDEST POP PUSH2 0x560 PUSH2 0x123C JUMP JUMPDEST PUSH1 0x40 MLOAD PUSH2 0x56D SWAP2 SWAP1 PUSH2 0x1CBF JUMP JUMPDEST PUSH1 0x40 MLOAD DUP1 SWAP2 SUB SWAP1 RETURN JUMPDEST CALLVALUE DUP1 ISZERO PUSH2 0x582 JUMPI PUSH1 0x0 DUP1 REVERT JUMPDEST POP PUSH2 0x58B PUSH2 0x129F JUMP JUMPDEST PUSH1 0x40 MLOAD PUSH2 0x598 SWAP2 SWAP1 PUSH2 0x1CBF JUMP JUMPDEST PUSH1 0x40 MLOAD DUP1 SWAP2 SUB SWAP1 RETURN JUMPDEST CALLVALUE DUP1 ISZERO PUSH2 0x5AD JUMPI PUSH1 0x0 DUP1 REVERT JUMPDEST POP PUSH2 0x5C8 PUSH1 0x4 DUP1 CALLDATASIZE SUB DUP2 ADD SWAP1 PUSH2 0x5C3 SWAP2 SWAP1 PUSH2 0x1992 JUMP JUMPDEST PUSH2 0x1350 JUMP JUMPDEST STOP JUMPDEST CALLVALUE DUP1 ISZERO PUSH2 0x5D6 JUMPI PUSH1 0x0 DUP1 REVERT JUMPDEST POP PUSH2 0x5DF PUSH2 0x1353 JUMP JUMPDEST PUSH1 0x40 MLOAD PUSH2 0x5EC SWAP2 SWAP1 PUSH2 0x1B8E JUMP JUMPDEST PUSH1 0x40 MLOAD DUP1 SWAP2 SUB SWAP1 RETURN JUMPDEST CALLVALUE DUP1 ISZERO PUSH2 0x601 JUMPI PUSH1 0x0 DUP1 REVERT JUMPDEST POP PUSH2 0x60A PUSH2 0x1379 JUMP JUMPDEST PUSH1 0x40 MLOAD PUSH2 0x617 SWAP2 SWAP1 PUSH2 0x1CBF JUMP JUMPDEST PUSH1 0x40 MLOAD DUP1 SWAP2 SUB SWAP1 RETURN JUMPDEST CALLVALUE DUP1 ISZERO PUSH2 0x62C JUMPI PUSH1 0x0 DUP1 REVERT JUMPDEST POP PUSH2 0x635 PUSH2 0x137F JUMP JUMPDEST PUSH1 0x40 MLOAD PUSH2 0x642 SWAP2 SWAP1 PUSH2 0x1CBF JUMP JUMPDEST PUSH1 0x40 MLOAD DUP1 SWAP2 SUB SWAP1 RETURN JUMPDEST CALLVALUE DUP1 ISZERO PUSH2 0x657 JUMPI PUSH1 0x0 DUP1 REVERT JUMPDEST POP PUSH2 0x660 PUSH2 0x13E2 JUMP JUMPDEST PUSH1 0x40 MLOAD PUSH2 0x66D SWAP2 SWAP1 PUSH2 0x1C09 JUMP JUMPDEST PUSH1 0x40 MLOAD DUP1 SWAP2 SUB SWAP1 RETURN JUMPDEST CALLVALUE DUP1 ISZERO PUSH2 0x682 JUMPI PUSH1 0x0 DUP1 REVERT JUMPDEST POP PUSH2 0x69D PUSH1 0x4 DUP1 CALLDATASIZE SUB DUP2 ADD SWAP1 PUSH2 0x698 SWAP2 SWAP1 PUSH2 0x19BF JUMP JUMPDEST PUSH2 0x1408 JUMP JUMPDEST PUSH1 0x40 MLOAD PUSH2 0x6AA SWAP2 SWAP1 PUSH2 0x1CBF JUMP JUMPDEST PUSH1 0x40 MLOAD DUP1 SWAP2 SUB SWAP1 RETURN JUMPDEST CALLVALUE DUP1 ISZERO PUSH2 0x6BF JUMPI PUSH1 0x0 DUP1 REVERT JUMPDEST POP PUSH2 0x6C8 PUSH2 0x149B JUMP JUMPDEST PUSH1 0x40 MLOAD PUSH2 0x6D5 SWAP2 SWAP1 PUSH2 0x1CBF JUMP JUMPDEST PUSH1 0x40 MLOAD DUP1 SWAP2 SUB SWAP1 RETURN JUMPDEST CALLVALUE DUP1 ISZERO PUSH2 0x6EA JUMPI PUSH1 0x0 DUP1 REVERT JUMPDEST POP PUSH2 0x6F3 PUSH2 0x14A1 JUMP JUMPDEST PUSH1 0x40 MLOAD PUSH2 0x700 SWAP2 SWAP1 PUSH2 0x1B8E JUMP JUMPDEST PUSH1 0x40 MLOAD DUP1 SWAP2 SUB SWAP1 RETURN JUMPDEST CALLVALUE DUP1 ISZERO PUSH2 0x715 JUMPI PUSH1 0x0 DUP1 REVERT JUMPDEST POP PUSH2 0x730 PUSH1 0x4 DUP1 CALLDATASIZE SUB DUP2 ADD SWAP1 PUSH2 0x72B SWAP2 SWAP1 PUSH2 0x1A86 JUMP JUMPDEST PUSH2 0x14C7 JUMP JUMPDEST PUSH1 0x40 MLOAD PUSH2 0x73D SWAP2 SWAP1 PUSH2 0x1CBF JUMP JUMPDEST PUSH1 0x40 MLOAD DUP1 SWAP2 SUB SWAP1 RETURN JUMPDEST CALLVALUE DUP1 ISZERO PUSH2 0x752 JUMPI PUSH1 0x0 DUP1 REVERT JUMPDEST POP PUSH2 0x75B PUSH2 0x1510 JUMP JUMPDEST PUSH1 0x40 MLOAD PUSH2 0x768 SWAP2 SWAP1 PUSH2 0x1B8E JUMP JUMPDEST PUSH1 0x40 MLOAD DUP1 SWAP2 SUB SWAP1 RETURN JUMPDEST CALLVALUE DUP1 ISZERO PUSH2 0x77D JUMPI PUSH1 0x0 DUP1 REVERT JUMPDEST POP PUSH2 0x798 PUSH1 0x4 DUP1 CALLDATASIZE SUB DUP2 ADD SWAP1 PUSH2 0x793 SWAP2 SWAP1 PUSH2 0x1A2C JUMP JUMPDEST PUSH2 0x1536 JUMP JUMPDEST STOP JUMPDEST PUSH2 0x7B4 PUSH1 0x4 DUP1 CALLDATASIZE SUB DUP2 ADD SWAP1 PUSH2 0x7AF SWAP2 SWAP1 PUSH2 0x1A2C JUMP JUMPDEST PUSH2 0x154E JUMP JUMPDEST STOP JUMPDEST PUSH1 0x0 PUSH2 0x8CF ADDRESS PUSH20 0xFFFFFFFFFFFFFFFFFFFFFFFFFFFFFFFFFFFFFFFF AND PUSH4 0x1F564A06 PUSH1 0x40 MLOAD DUP2 PUSH4 0xFFFFFFFF AND PUSH1 0xE0 SHL DUP2 MSTORE PUSH1 0x4 ADD PUSH1 0x20 PUSH1 0x40 MLOAD DUP1 DUP4 SUB DUP2 DUP7 DUP1 EXTCODESIZE ISZERO DUP1 ISZERO PUSH2 0x801 JUMPI PUSH1 0x0 DUP1 REVERT JUMPDEST POP GAS STATICCALL ISZERO DUP1 ISZERO PUSH2 0x815 JUMPI RETURNDATASIZE PUSH1 0x0 DUP1 RETURNDATACOPY RETURNDATASIZE PUSH1 0x0 REVERT JUMPDEST POP POP POP POP PUSH1 0x40 MLOAD RETURNDATASIZE PUSH1 0x1F NOT PUSH1 0x1F DUP3 ADD AND DUP3 ADD DUP1 PUSH1 0x40 MSTORE POP DUP2 ADD SWAP1 PUSH2 0x839 SWAP2 SWAP1 PUSH2 0x1A59 JUMP JUMPDEST ADDRESS PUSH20 0xFFFFFFFFFFFFFFFFFFFFFFFFFFFFFFFFFFFFFFFF AND PUSH4 0x93F7B711 PUSH1 0x40 MLOAD DUP2 PUSH4 0xFFFFFFFF AND PUSH1 0xE0 SHL DUP2 MSTORE PUSH1 0x4 ADD PUSH1 0x20 PUSH1 0x40 MLOAD DUP1 DUP4 SUB DUP2 DUP7 DUP1 EXTCODESIZE ISZERO DUP1 ISZERO PUSH2 0x87F JUMPI PUSH1 0x0 DUP1 REVERT JUMPDEST POP GAS STATICCALL ISZERO DUP1 ISZERO PUSH2 0x893 JUMPI RETURNDATASIZE PUSH1 0x0 DUP1 RETURNDATACOPY RETURNDATASIZE PUSH1 0x0 REVERT JUMPDEST POP POP POP POP PUSH1 0x40 MLOAD RETURNDATASIZE PUSH1 0x1F NOT PUSH1 0x1F DUP3 ADD AND DUP3 ADD DUP1 PUSH1 0x40 MSTORE POP DUP2 ADD SWAP1 PUSH2 0x8B7 SWAP2 SWAP1 PUSH2 0x1A59 JUMP JUMPDEST PUSH8 0x10A741A462780000 PUSH2 0x8CA SWAP2 SWAP1 PUSH2 0x1D14 JUMP JUMPDEST PUSH2 0x14C7 JUMP JUMPDEST SWAP1 POP SWAP1 JUMP JUMPDEST PUSH1 0x8 PUSH1 0x0 SWAP1 SLOAD SWAP1 PUSH2 0x100 EXP SWAP1 DIV PUSH20 0xFFFFFFFFFFFFFFFFFFFFFFFFFFFFFFFFFFFFFFFF AND DUP2 JUMP JUMPDEST PUSH1 0x0 DUP1 PUSH2 0x986 ADDRESS PUSH20 0xFFFFFFFFFFFFFFFFFFFFFFFFFFFFFFFFFFFFFFFF AND PUSH4 0xD82EDDF2 PUSH1 0x40 MLOAD DUP2 PUSH4 0xFFFFFFFF AND PUSH1 0xE0 SHL DUP2 MSTORE PUSH1 0x4 ADD PUSH1 0x20 PUSH1 0x40 MLOAD DUP1 DUP4 SUB DUP2 DUP7 DUP1 EXTCODESIZE ISZERO DUP1 ISZERO PUSH2 0x946 JUMPI PUSH1 0x0 DUP1 REVERT JUMPDEST POP GAS STATICCALL ISZERO DUP1 ISZERO PUSH2 0x95A JUMPI RETURNDATASIZE PUSH1 0x0 DUP1 RETURNDATACOPY RETURNDATASIZE PUSH1 0x0 REVERT JUMPDEST POP POP POP POP PUSH1 0x40 MLOAD RETURNDATASIZE PUSH1 0x1F NOT PUSH1 0x1F DUP3 ADD AND DUP3 ADD DUP1 PUSH1 0x40 MSTORE POP DUP2 ADD SWAP1 PUSH2 0x97E SWAP2 SWAP1 PUSH2 0x1A59 JUMP JUMPDEST PUSH1 0xF SLOAD PUSH2 0xEED JUMP JUMPDEST SWAP1 POP PUSH8 0x429D069189E0000 DUP2 GT ISZERO PUSH2 0x9A4 JUMPI PUSH8 0x429D069189E0000 SWAP1 POP JUMPDEST DUP1 SWAP2 POP POP SWAP1 JUMP JUMPDEST PUSH1 0x16 PUSH1 0x20 MSTORE DUP1 PUSH1 0x0 MSTORE PUSH1 0x40 PUSH1 0x0 KECCAK256 PUSH1 0x0 SWAP2 POP SWAP1 POP DUP1 PUSH1 0x0 ADD SLOAD SWAP1 DUP1 PUSH1 0x1 ADD SLOAD SWAP1 POP DUP3 JUMP JUMPDEST PUSH1 0x15 PUSH1 0x20 MSTORE DUP1 PUSH1 0x0 MSTORE PUSH1 0x40 PUSH1 0x0 KECCAK256 PUSH1 0x0 SWAP2 POP SWAP1 POP SLOAD DUP2 JUMP JUMPDEST PUSH1 0x16 PUSH1 0x0 CALLER PUSH20 0xFFFFFFFFFFFFFFFFFFFFFFFFFFFFFFFFFFFFFFFF AND PUSH20 0xFFFFFFFFFFFFFFFFFFFFFFFFFFFFFFFFFFFFFFFF AND DUP2 MSTORE PUSH1 0x20 ADD SWAP1 DUP2 MSTORE PUSH1 0x20 ADD PUSH1 0x0 KECCAK256 PUSH1 0x1 ADD SLOAD DUP2 LT PUSH2 0xA6B JUMPI PUSH1 0x40 MLOAD PUSH32 0x8C379A000000000000000000000000000000000000000000000000000000000 DUP2 MSTORE PUSH1 0x4 ADD PUSH2 0xA62 SWAP1 PUSH2 0x1C3F JUMP JUMPDEST PUSH1 0x40 MLOAD DUP1 SWAP2 SUB SWAP1 REVERT JUMPDEST DUP1 PUSH1 0x16 PUSH1 0x0 CALLER PUSH20 0xFFFFFFFFFFFFFFFFFFFFFFFFFFFFFFFFFFFFFFFF AND PUSH20 0xFFFFFFFFFFFFFFFFFFFFFFFFFFFFFFFFFFFFFFFF AND DUP2 MSTORE PUSH1 0x20 ADD SWAP1 DUP2 MSTORE PUSH1 0x20 ADD PUSH1 0x0 KECCAK256 PUSH1 0x1 ADD PUSH1 0x0 DUP3 DUP3 SLOAD PUSH2 0xABD SWAP2 SWAP1 PUSH2 0x1DF5 JUMP JUMPDEST SWAP3 POP POP DUP2 SWAP1 SSTORE POP PUSH1 0x0 PUSH1 0x16 PUSH1 0x0 CALLER PUSH20 0xFFFFFFFFFFFFFFFFFFFFFFFFFFFFFFFFFFFFFFFF AND PUSH20 0xFFFFFFFFFFFFFFFFFFFFFFFFFFFFFFFFFFFFFFFF AND DUP2 MSTORE PUSH1 0x20 ADD SWAP1 DUP2 MSTORE PUSH1 0x20 ADD PUSH1 0x0 KECCAK256 PUSH1 0x1 ADD SLOAD EQ ISZERO PUSH2 0xB62 JUMPI PUSH1 0x16 PUSH1 0x0 CALLER PUSH20 0xFFFFFFFFFFFFFFFFFFFFFFFFFFFFFFFFFFFFFFFF AND PUSH20 0xFFFFFFFFFFFFFFFFFFFFFFFFFFFFFFFFFFFFFFFF AND DUP2 MSTORE PUSH1 0x20 ADD SWAP1 DUP2 MSTORE PUSH1 0x20 ADD PUSH1 0x0 KECCAK256 PUSH1 0x0 DUP1 DUP3 ADD PUSH1 0x0 SWAP1 SSTORE PUSH1 0x1 DUP3 ADD PUSH1 0x0 SWAP1 SSTORE POP POP JUMPDEST POP JUMP JUMPDEST PUSH1 0x0 PUSH1 0x12 PUSH1 0x0 SWAP1 SLOAD SWAP1 PUSH2 0x100 EXP SWAP1 DIV PUSH20 0xFFFFFFFFFFFFFFFFFFFFFFFFFFFFFFFFFFFFFFFF AND PUSH20 0xFFFFFFFFFFFFFFFFFFFFFFFFFFFFFFFFFFFFFFFF AND PUSH4 0x70A08231 CALLER PUSH1 0x40 MLOAD DUP3 PUSH4 0xFFFFFFFF AND PUSH1 0xE0 SHL DUP2 MSTORE PUSH1 0x4 ADD PUSH2 0xBC2 SWAP2 SWAP1 PUSH2 0x1B8E JUMP JUMPDEST PUSH1 0x20 PUSH1 0x40 MLOAD DUP1 DUP4 SUB DUP2 DUP7 DUP1 EXTCODESIZE ISZERO DUP1 ISZERO PUSH2 0xBDA JUMPI PUSH1 0x0 DUP1 REVERT JUMPDEST POP GAS STATICCALL ISZERO DUP1 ISZERO PUSH2 0xBEE JUMPI RETURNDATASIZE PUSH1 0x0 DUP1 RETURNDATACOPY RETURNDATASIZE PUSH1 0x0 REVERT JUMPDEST POP POP POP POP PUSH1 0x40 MLOAD RETURNDATASIZE PUSH1 0x1F NOT PUSH1 0x1F DUP3 ADD AND DUP3 ADD DUP1 PUSH1 0x40 MSTORE POP DUP2 ADD SWAP1 PUSH2 0xC12 SWAP2 SWAP1 PUSH2 0x1A59 JUMP JUMPDEST SWAP1 POP DUP2 DUP2 GT PUSH2 0xC56 JUMPI PUSH1 0x40 MLOAD PUSH32 0x8C379A000000000000000000000000000000000000000000000000000000000 DUP2 MSTORE PUSH1 0x4 ADD PUSH2 0xC4D SWAP1 PUSH2 0x1C7F JUMP JUMPDEST PUSH1 0x40 MLOAD DUP1 SWAP2 SUB SWAP1 REVERT JUMPDEST PUSH2 0xC84 PUSH1 0x12 PUSH1 0x0 SWAP1 SLOAD SWAP1 PUSH2 0x100 EXP SWAP1 DIV PUSH20 0xFFFFFFFFFFFFFFFFFFFFFFFFFFFFFFFFFFFFFFFF AND CALLER ADDRESS DUP6 PUSH2 0x178B JUMP JUMPDEST PUSH1 0x0 PUSH3 0x15180 PUSH1 0xB SLOAD TIMESTAMP PUSH2 0xC98 SWAP2 SWAP1 PUSH2 0x1DF5 JUMP JUMPDEST PUSH2 0xCA2 SWAP2 SWAP1 PUSH2 0x1D6A JUMP JUMPDEST SWAP1 POP DUP3 PUSH1 0x15 PUSH1 0x0 DUP4 DUP2 MSTORE PUSH1 0x20 ADD SWAP1 DUP2 MSTORE PUSH1 0x20 ADD PUSH1 0x0 KECCAK256 PUSH1 0x0 DUP3 DUP3 SLOAD PUSH2 0xCC7 SWAP2 SWAP1 PUSH2 0x1D14 JUMP JUMPDEST SWAP3 POP POP DUP2 SWAP1 SSTORE POP POP POP POP JUMP JUMPDEST PUSH1 0x0 PUSH2 0xD80 PUSH1 0xA SLOAD PUSH1 0x12 PUSH1 0x0 SWAP1 SLOAD SWAP1 PUSH2 0x100 EXP SWAP1 DIV PUSH20 0xFFFFFFFFFFFFFFFFFFFFFFFFFFFFFFFFFFFFFFFF AND PUSH20 0xFFFFFFFFFFFFFFFFFFFFFFFFFFFFFFFFFFFFFFFF AND PUSH4 0x18160DDD PUSH1 0x40 MLOAD DUP2 PUSH4 0xFFFFFFFF AND PUSH1 0xE0 SHL DUP2 MSTORE PUSH1 0x4 ADD PUSH1 0x20 PUSH1 0x40 MLOAD DUP1 DUP4 SUB DUP2 DUP7 DUP1 EXTCODESIZE ISZERO DUP1 ISZERO PUSH2 0xD43 JUMPI PUSH1 0x0 DUP1 REVERT JUMPDEST POP GAS STATICCALL ISZERO DUP1 ISZERO PUSH2 0xD57 JUMPI RETURNDATASIZE PUSH1 0x0 DUP1 RETURNDATACOPY RETURNDATASIZE PUSH1 0x0 REVERT JUMPDEST POP POP POP POP PUSH1 0x40 MLOAD RETURNDATASIZE PUSH1 0x1F NOT PUSH1 0x1F DUP3 ADD AND DUP3 ADD DUP1 PUSH1 0x40 MSTORE POP DUP2 ADD SWAP1 PUSH2 0xD7B SWAP2 SWAP1 PUSH2 0x1A59 JUMP JUMPDEST PUSH2 0xEED JUMP JUMPDEST SWAP1 POP SWAP1 JUMP JUMPDEST PUSH1 0x9 PUSH1 0x0 SWAP1 SLOAD SWAP1 PUSH2 0x100 EXP SWAP1 DIV PUSH20 0xFFFFFFFFFFFFFFFFFFFFFFFFFFFFFFFFFFFFFFFF AND DUP2 JUMP JUMPDEST PUSH1 0x14 PUSH1 0x20 MSTORE DUP1 PUSH1 0x0 MSTORE PUSH1 0x40 PUSH1 0x0 KECCAK256 PUSH1 0x0 SWAP2 POP SWAP1 POP SLOAD DUP2 JUMP JUMPDEST PUSH1 0xA SLOAD DUP2 JUMP JUMPDEST PUSH1 0xB SLOAD DUP2 JUMP JUMPDEST PUSH1 0x0 PUSH2 0xEE8 ADDRESS PUSH20 0xFFFFFFFFFFFFFFFFFFFFFFFFFFFFFFFFFFFFFFFF AND PUSH4 0x1F564A06 PUSH1 0x40 MLOAD DUP2 PUSH4 0xFFFFFFFF AND PUSH1 0xE0 SHL DUP2 MSTORE PUSH1 0x4 ADD PUSH1 0x20 PUSH1 0x40 MLOAD DUP1 DUP4 SUB DUP2 DUP7 DUP1 EXTCODESIZE ISZERO DUP1 ISZERO PUSH2 0xE1A JUMPI PUSH1 0x0 DUP1 REVERT JUMPDEST POP GAS STATICCALL ISZERO DUP1 ISZERO PUSH2 0xE2E JUMPI RETURNDATASIZE PUSH1 0x0 DUP1 RETURNDATACOPY RETURNDATASIZE PUSH1 0x0 REVERT JUMPDEST POP POP POP POP PUSH1 0x40 MLOAD RETURNDATASIZE PUSH1 0x1F NOT PUSH1 0x1F DUP3 ADD AND DUP3 ADD DUP1 PUSH1 0x40 MSTORE POP DUP2 ADD SWAP1 PUSH2 0xE52 SWAP2 SWAP1 PUSH2 0x1A59 JUMP JUMPDEST ADDRESS PUSH20 0xFFFFFFFFFFFFFFFFFFFFFFFFFFFFFFFFFFFFFFFF AND PUSH4 0xCCAF04F PUSH1 0x40 MLOAD DUP2 PUSH4 0xFFFFFFFF AND PUSH1 0xE0 SHL DUP2 MSTORE PUSH1 0x4 ADD PUSH1 0x20 PUSH1 0x40 MLOAD DUP1 DUP4 SUB DUP2 DUP7 DUP1 EXTCODESIZE ISZERO DUP1 ISZERO PUSH2 0xE98 JUMPI PUSH1 0x0 DUP1 REVERT JUMPDEST POP GAS STATICCALL ISZERO DUP1 ISZERO PUSH2 0xEAC JUMPI RETURNDATASIZE PUSH1 0x0 DUP1 RETURNDATACOPY RETURNDATASIZE PUSH1 0x0 REVERT JUMPDEST POP POP POP POP PUSH1 0x40 MLOAD RETURNDATASIZE PUSH1 0x1F NOT PUSH1 0x1F DUP3 ADD AND DUP3 ADD DUP1 PUSH1 0x40 MSTORE POP DUP2 ADD SWAP1 PUSH2 0xED0 SWAP2 SWAP1 PUSH2 0x1A59 JUMP JUMPDEST PUSH8 0xC7D713B49DA0000 PUSH2 0xEE3 SWAP2 SWAP1 PUSH2 0x1DF5 JUMP JUMPDEST PUSH2 0x14C7 JUMP JUMPDEST SWAP1 POP SWAP1 JUMP JUMPDEST PUSH1 0x0 DUP1 PUSH2 0xF02 DUP5 PUSH8 0xDE0B6B3A7640000 PUSH2 0x1865 JUMP JUMPDEST SWAP1 POP DUP3 PUSH2 0xF1B DUP3 PUSH1 0x2 DUP7 PUSH2 0xF16 SWAP2 SWAP1 PUSH2 0x1D6A JUMP JUMPDEST PUSH2 0x18E0 JUMP JUMPDEST PUSH2 0xF25 SWAP2 SWAP1 PUSH2 0x1D6A JUMP JUMPDEST SWAP2 POP POP SWAP3 SWAP2 POP POP JUMP JUMPDEST PUSH1 0x0 PUSH1 0x13 PUSH1 0x0 SWAP1 SLOAD SWAP1 PUSH2 0x100 EXP SWAP1 DIV PUSH20 0xFFFFFFFFFFFFFFFFFFFFFFFFFFFFFFFFFFFFFFFF AND PUSH20 0xFFFFFFFFFFFFFFFFFFFFFFFFFFFFFFFFFFFFFFFF AND PUSH4 0x70A08231 CALLER PUSH1 0x40 MLOAD DUP3 PUSH4 0xFFFFFFFF AND PUSH1 0xE0 SHL DUP2 MSTORE PUSH1 0x4 ADD PUSH2 0xF8B SWAP2 SWAP1 PUSH2 0x1B8E JUMP JUMPDEST PUSH1 0x20 PUSH1 0x40 MLOAD DUP1 DUP4 SUB DUP2 DUP7 DUP1 EXTCODESIZE ISZERO DUP1 ISZERO PUSH2 0xFA3 JUMPI PUSH1 0x0 DUP1 REVERT JUMPDEST POP GAS STATICCALL ISZERO DUP1 ISZERO PUSH2 0xFB7 JUMPI RETURNDATASIZE PUSH1 0x0 DUP1 RETURNDATACOPY RETURNDATASIZE PUSH1 0x0 REVERT JUMPDEST POP POP POP POP PUSH1 0x40 MLOAD RETURNDATASIZE PUSH1 0x1F NOT PUSH1 0x1F DUP3 ADD AND DUP3 ADD DUP1 PUSH1 0x40 MSTORE POP DUP2 ADD SWAP1 PUSH2 0xFDB SWAP2 SWAP1 PUSH2 0x1A59 JUMP JUMPDEST SWAP1 POP DUP2 DUP2 GT PUSH2 0x101F JUMPI PUSH1 0x40 MLOAD PUSH32 0x8C379A000000000000000000000000000000000000000000000000000000000 DUP2 MSTORE PUSH1 0x4 ADD PUSH2 0x1016 SWAP1 PUSH2 0x1C7F JUMP JUMPDEST PUSH1 0x40 MLOAD DUP1 SWAP2 SUB SWAP1 REVERT JUMPDEST PUSH1 0x12 PUSH1 0x0 SWAP1 SLOAD SWAP1 PUSH2 0x100 EXP SWAP1 DIV PUSH20 0xFFFFFFFFFFFFFFFFFFFFFFFFFFFFFFFFFFFFFFFF AND PUSH20 0xFFFFFFFFFFFFFFFFFFFFFFFFFFFFFFFFFFFFFFFF AND PUSH4 0xA9059CBB CALLER DUP5 PUSH1 0x40 MLOAD DUP4 PUSH4 0xFFFFFFFF AND PUSH1 0xE0 SHL DUP2 MSTORE PUSH1 0x4 ADD PUSH2 0x107C SWAP3 SWAP2 SWAP1 PUSH2 0x1BE0 JUMP JUMPDEST PUSH1 0x20 PUSH1 0x40 MLOAD DUP1 DUP4 SUB DUP2 PUSH1 0x0 DUP8 DUP1 EXTCODESIZE ISZERO DUP1 ISZERO PUSH2 0x1096 JUMPI PUSH1 0x0 DUP1 REVERT JUMPDEST POP GAS CALL ISZERO DUP1 ISZERO PUSH2 0x10AA JUMPI RETURNDATASIZE PUSH1 0x0 DUP1 RETURNDATACOPY RETURNDATASIZE PUSH1 0x0 REVERT JUMPDEST POP POP POP POP PUSH1 0x40 MLOAD RETURNDATASIZE PUSH1 0x1F NOT PUSH1 0x1F DUP3 ADD AND DUP3 ADD DUP1 PUSH1 0x40 MSTORE POP DUP2 ADD SWAP1 PUSH2 0x10CE SWAP2 SWAP1 PUSH2 0x19FF JUMP JUMPDEST POP PUSH2 0x10FD PUSH1 0x13 PUSH1 0x0 SWAP1 SLOAD SWAP1 PUSH2 0x100 EXP SWAP1 DIV PUSH20 0xFFFFFFFFFFFFFFFFFFFFFFFFFFFFFFFFFFFFFFFF AND CALLER ADDRESS DUP6 PUSH2 0x178B JUMP JUMPDEST PUSH1 0x0 PUSH3 0x15180 PUSH1 0xB SLOAD TIMESTAMP PUSH2 0x1111 SWAP2 SWAP1 PUSH2 0x1DF5 JUMP JUMPDEST PUSH2 0x111B SWAP2 SWAP1 PUSH2 0x1D6A JUMP JUMPDEST SWAP1 POP DUP3 PUSH1 0x14 PUSH1 0x0 DUP4 DUP2 MSTORE PUSH1 0x20 ADD SWAP1 DUP2 MSTORE PUSH1 0x20 ADD PUSH1 0x0 KECCAK256 PUSH1 0x0 DUP3 DUP3 SLOAD PUSH2 0x1140 SWAP2 SWAP1 PUSH2 0x1D14 JUMP JUMPDEST SWAP3 POP POP DUP2 SWAP1 SSTORE POP POP POP POP JUMP JUMPDEST PUSH1 0xC SLOAD DUP2 JUMP JUMPDEST PUSH3 0xD2F00 TIMESTAMP PUSH2 0x1161 SWAP2 SWAP1 PUSH2 0x1D14 JUMP JUMPDEST PUSH1 0x16 PUSH1 0x0 CALLER PUSH20 0xFFFFFFFFFFFFFFFFFFFFFFFFFFFFFFFFFFFFFFFF AND PUSH20 0xFFFFFFFFFFFFFFFFFFFFFFFFFFFFFFFFFFFFFFFF AND DUP2 MSTORE PUSH1 0x20 ADD SWAP1 DUP2 MSTORE PUSH1 0x20 ADD PUSH1 0x0 KECCAK256 PUSH1 0x0 ADD DUP2 SWAP1 SSTORE POP DUP1 PUSH1 0x16 PUSH1 0x0 CALLER PUSH20 0xFFFFFFFFFFFFFFFFFFFFFFFFFFFFFFFFFFFFFFFF AND PUSH20 0xFFFFFFFFFFFFFFFFFFFFFFFFFFFFFFFFFFFFFFFF AND DUP2 MSTORE PUSH1 0x20 ADD SWAP1 DUP2 MSTORE PUSH1 0x20 ADD PUSH1 0x0 KECCAK256 PUSH1 0x1 ADD PUSH1 0x0 DUP3 DUP3 SLOAD PUSH2 0x11F9 SWAP2 SWAP1 PUSH2 0x1D14 JUMP JUMPDEST SWAP3 POP POP DUP2 SWAP1 SSTORE POP POP JUMP JUMPDEST PUSH1 0x12 PUSH1 0x0 SWAP1 SLOAD SWAP1 PUSH2 0x100 EXP SWAP1 DIV PUSH20 0xFFFFFFFFFFFFFFFFFFFFFFFFFFFFFFFFFFFFFFFF AND DUP2 JUMP JUMPDEST PUSH1 0x10 PUSH1 0x0 SWAP1 SLOAD SWAP1 PUSH2 0x100 EXP SWAP1 DIV PUSH1 0xF SIGNEXTEND DUP2 JUMP JUMPDEST PUSH1 0x0 DUP1 PUSH1 0x0 DUP1 PUSH3 0x15180 PUSH1 0xC SLOAD PUSH2 0x1253 SWAP2 SWAP1 PUSH2 0x1D6A JUMP JUMPDEST SWAP1 POP PUSH1 0x0 SWAP2 POP JUMPDEST DUP1 DUP3 LT ISZERO PUSH2 0x1296 JUMPI PUSH1 0x14 PUSH1 0x0 DUP4 DUP2 MSTORE PUSH1 0x20 ADD SWAP1 DUP2 MSTORE PUSH1 0x20 ADD PUSH1 0x0 KECCAK256 SLOAD DUP4 PUSH2 0x1281 SWAP2 SWAP1 PUSH2 0x1D14 JUMP JUMPDEST SWAP3 POP DUP2 DUP1 PUSH2 0x128E SWAP1 PUSH2 0x1EB4 JUMP JUMPDEST SWAP3 POP POP PUSH2 0x125A JUMP JUMPDEST DUP3 SWAP4 POP POP POP POP SWAP1 JUMP JUMPDEST PUSH1 0x0 DUP1 PUSH2 0x132B ADDRESS PUSH20 0xFFFFFFFFFFFFFFFFFFFFFFFFFFFFFFFFFFFFFFFF AND PUSH4 0x71CD58F9 PUSH1 0x40 MLOAD DUP2 PUSH4 0xFFFFFFFF AND PUSH1 0xE0 SHL DUP2 MSTORE PUSH1 0x4 ADD PUSH1 0x20 PUSH1 0x40 MLOAD DUP1 DUP4 SUB DUP2 DUP7 DUP1 EXTCODESIZE ISZERO DUP1 ISZERO PUSH2 0x12EB JUMPI PUSH1 0x0 DUP1 REVERT JUMPDEST POP GAS STATICCALL ISZERO DUP1 ISZERO PUSH2 0x12FF JUMPI RETURNDATASIZE PUSH1 0x0 DUP1 RETURNDATACOPY RETURNDATASIZE PUSH1 0x0 REVERT JUMPDEST POP POP POP POP PUSH1 0x40 MLOAD RETURNDATASIZE PUSH1 0x1F NOT PUSH1 0x1F DUP3 ADD AND DUP3 ADD DUP1 PUSH1 0x40 MSTORE POP DUP2 ADD SWAP1 PUSH2 0x1323 SWAP2 SWAP1 PUSH2 0x1A59 JUMP JUMPDEST PUSH1 0xF SLOAD PUSH2 0xEED JUMP JUMPDEST SWAP1 POP PUSH8 0x10A741A462780000 DUP2 GT ISZERO PUSH2 0x1349 JUMPI PUSH8 0x10A741A462780000 SWAP1 POP JUMPDEST DUP1 SWAP2 POP POP SWAP1 JUMP JUMPDEST POP JUMP JUMPDEST PUSH1 0x7 PUSH1 0x0 SWAP1 SLOAD SWAP1 PUSH2 0x100 EXP SWAP1 DIV PUSH20 0xFFFFFFFFFFFFFFFFFFFFFFFFFFFFFFFFFFFFFFFF AND DUP2 JUMP JUMPDEST PUSH1 0x1 SLOAD DUP2 JUMP JUMPDEST PUSH1 0x0 DUP1 PUSH1 0x0 DUP1 PUSH3 0x15180 PUSH1 0xC SLOAD PUSH2 0x1396 SWAP2 SWAP1 PUSH2 0x1D6A JUMP JUMPDEST SWAP1 POP PUSH1 0x0 SWAP2 POP JUMPDEST DUP1 DUP3 LT ISZERO PUSH2 0x13D9 JUMPI PUSH1 0x15 PUSH1 0x0 DUP4 DUP2 MSTORE PUSH1 0x20 ADD SWAP1 DUP2 MSTORE PUSH1 0x20 ADD PUSH1 0x0 KECCAK256 SLOAD DUP4 PUSH2 0x13C4 SWAP2 SWAP1 PUSH2 0x1D14 JUMP JUMPDEST SWAP3 POP DUP2 DUP1 PUSH2 0x13D1 SWAP1 PUSH2 0x1EB4 JUMP JUMPDEST SWAP3 POP POP PUSH2 0x139D JUMP JUMPDEST DUP3 SWAP4 POP POP POP POP SWAP1 JUMP JUMPDEST PUSH1 0x13 PUSH1 0x0 SWAP1 SLOAD SWAP1 PUSH2 0x100 EXP SWAP1 DIV PUSH20 0xFFFFFFFFFFFFFFFFFFFFFFFFFFFFFFFFFFFFFFFF AND DUP2 JUMP JUMPDEST PUSH1 0x0 DUP3 PUSH20 0xFFFFFFFFFFFFFFFFFFFFFFFFFFFFFFFFFFFFFFFF AND PUSH4 0x70A08231 DUP4 PUSH1 0x40 MLOAD DUP3 PUSH4 0xFFFFFFFF AND PUSH1 0xE0 SHL DUP2 MSTORE PUSH1 0x4 ADD PUSH2 0x1443 SWAP2 SWAP1 PUSH2 0x1B8E JUMP JUMPDEST PUSH1 0x20 PUSH1 0x40 MLOAD DUP1 DUP4 SUB DUP2 DUP7 DUP1 EXTCODESIZE ISZERO DUP1 ISZERO PUSH2 0x145B JUMPI PUSH1 0x0 DUP1 REVERT JUMPDEST POP GAS STATICCALL ISZERO DUP1 ISZERO PUSH2 0x146F JUMPI RETURNDATASIZE PUSH1 0x0 DUP1 RETURNDATACOPY RETURNDATASIZE PUSH1 0x0 REVERT JUMPDEST POP POP POP POP PUSH1 0x40 MLOAD RETURNDATASIZE PUSH1 0x1F NOT PUSH1 0x1F DUP3 ADD AND DUP3 ADD DUP1 PUSH1 0x40 MSTORE POP DUP2 ADD SWAP1 PUSH2 0x1493 SWAP2 SWAP1 PUSH2 0x1A59 JUMP JUMPDEST SWAP1 POP SWAP3 SWAP2 POP POP JUMP JUMPDEST PUSH1 0x0 SLOAD DUP2 JUMP JUMPDEST PUSH1 0x11 PUSH1 0x0 SWAP1 SLOAD SWAP1 PUSH2 0x100 EXP SWAP1 DIV PUSH20 0xFFFFFFFFFFFFFFFFFFFFFFFFFFFFFFFFFFFFFFFF AND DUP2 JUMP JUMPDEST PUSH1 0x0 DUP1 PUSH2 0x14D4 DUP5 DUP5 PUSH2 0x1865 JUMP JUMPDEST SWAP1 POP PUSH8 0xDE0B6B3A7640000 PUSH2 0x14FD DUP3 PUSH1 0x2 PUSH8 0xDE0B6B3A7640000 PUSH2 0x14F8 SWAP2 SWAP1 PUSH2 0x1D6A JUMP JUMPDEST PUSH2 0x18E0 JUMP JUMPDEST PUSH2 0x1507 SWAP2 SWAP1 PUSH2 0x1D6A JUMP JUMPDEST SWAP2 POP POP SWAP3 SWAP2 POP POP JUMP JUMPDEST PUSH1 0x6 PUSH1 0x0 SWAP1 SLOAD SWAP1 PUSH2 0x100 EXP SWAP1 DIV PUSH20 0xFFFFFFFFFFFFFFFFFFFFFFFFFFFFFFFFFFFFFFFF AND DUP2 JUMP JUMPDEST PUSH3 0x15180 DUP2 PUSH2 0x1545 SWAP2 SWAP1 PUSH2 0x1D9B JUMP JUMPDEST PUSH1 0xC DUP2 SWAP1 SSTORE POP POP JUMP JUMPDEST PUSH1 0x0 PUSH1 0x12 PUSH1 0x0 SWAP1 SLOAD SWAP1 PUSH2 0x100 EXP SWAP1 DIV PUSH20 0xFFFFFFFFFFFFFFFFFFFFFFFFFFFFFFFFFFFFFFFF AND PUSH20 0xFFFFFFFFFFFFFFFFFFFFFFFFFFFFFFFFFFFFFFFF AND PUSH4 0x70A08231 CALLER PUSH1 0x40 MLOAD DUP3 PUSH4 0xFFFFFFFF AND PUSH1 0xE0 SHL DUP2 MSTORE PUSH1 0x4 ADD PUSH2 0x15AB SWAP2 SWAP1 PUSH2 0x1B8E JUMP JUMPDEST PUSH1 0x20 PUSH1 0x40 MLOAD DUP1 DUP4 SUB DUP2 DUP7 DUP1 EXTCODESIZE ISZERO DUP1 ISZERO PUSH2 0x15C3 JUMPI PUSH1 0x0 DUP1 REVERT JUMPDEST POP GAS STATICCALL ISZERO DUP1 ISZERO PUSH2 0x15D7 JUMPI RETURNDATASIZE PUSH1 0x0 DUP1 RETURNDATACOPY RETURNDATASIZE PUSH1 0x0 REVERT JUMPDEST POP POP POP POP PUSH1 0x40 MLOAD RETURNDATASIZE PUSH1 0x1F NOT PUSH1 0x1F DUP3 ADD AND DUP3 ADD DUP1 PUSH1 0x40 MSTORE POP DUP2 ADD SWAP1 PUSH2 0x15FB SWAP2 SWAP1 PUSH2 0x1A59 JUMP JUMPDEST SWAP1 POP DUP2 DUP2 GT PUSH2 0x163F JUMPI PUSH1 0x40 MLOAD PUSH32 0x8C379A000000000000000000000000000000000000000000000000000000000 DUP2 MSTORE PUSH1 0x4 ADD PUSH2 0x1636 SWAP1 PUSH2 0x1C7F JUMP JUMPDEST PUSH1 0x40 MLOAD DUP1 SWAP2 SUB SWAP1 REVERT JUMPDEST PUSH1 0x13 PUSH1 0x0 SWAP1 SLOAD SWAP1 PUSH2 0x100 EXP SWAP1 DIV PUSH20 0xFFFFFFFFFFFFFFFFFFFFFFFFFFFFFFFFFFFFFFFF AND PUSH20 0xFFFFFFFFFFFFFFFFFFFFFFFFFFFFFFFFFFFFFFFF AND PUSH4 0xA9059CBB CALLER PUSH8 0xDE0B6B3A7640000 PUSH1 0x1 PUSH2 0x1693 SWAP2 SWAP1 PUSH2 0x1D9B JUMP JUMPDEST DUP6 PUSH2 0x169E SWAP2 SWAP1 PUSH2 0x1D14 JUMP JUMPDEST PUSH1 0x40 MLOAD DUP4 PUSH4 0xFFFFFFFF AND PUSH1 0xE0 SHL DUP2 MSTORE PUSH1 0x4 ADD PUSH2 0x16BB SWAP3 SWAP2 SWAP1 PUSH2 0x1BE0 JUMP JUMPDEST PUSH1 0x20 PUSH1 0x40 MLOAD DUP1 DUP4 SUB DUP2 PUSH1 0x0 DUP8 DUP1 EXTCODESIZE ISZERO DUP1 ISZERO PUSH2 0x16D5 JUMPI PUSH1 0x0 DUP1 REVERT JUMPDEST POP GAS CALL ISZERO DUP1 ISZERO PUSH2 0x16E9 JUMPI RETURNDATASIZE PUSH1 0x0 DUP1 RETURNDATACOPY RETURNDATASIZE PUSH1 0x0 REVERT JUMPDEST POP POP POP POP PUSH1 0x40 MLOAD RETURNDATASIZE PUSH1 0x1F NOT PUSH1 0x1F DUP3 ADD AND DUP3 ADD DUP1 PUSH1 0x40 MSTORE POP DUP2 ADD SWAP1 PUSH2 0x170D SWAP2 SWAP1 PUSH2 0x19FF JUMP JUMPDEST POP PUSH2 0x173C PUSH1 0x12 PUSH1 0x0 SWAP1 SLOAD SWAP1 PUSH2 0x100 EXP SWAP1 DIV PUSH20 0xFFFFFFFFFFFFFFFFFFFFFFFFFFFFFFFFFFFFFFFF AND CALLER ADDRESS DUP6 PUSH2 0x178B JUMP JUMPDEST PUSH1 0x0 PUSH3 0x15180 PUSH1 0xB SLOAD TIMESTAMP PUSH2 0x1750 SWAP2 SWAP1 PUSH2 0x1DF5 JUMP JUMPDEST PUSH2 0x175A SWAP2 SWAP1 PUSH2 0x1D6A JUMP JUMPDEST SWAP1 POP DUP3 PUSH1 0x15 PUSH1 0x0 DUP4 DUP2 MSTORE PUSH1 0x20 ADD SWAP1 DUP2 MSTORE PUSH1 0x20 ADD PUSH1 0x0 KECCAK256 PUSH1 0x0 DUP3 DUP3 SLOAD PUSH2 0x177F SWAP2 SWAP1 PUSH2 0x1D14 JUMP JUMPDEST SWAP3 POP POP DUP2 SWAP1 SSTORE POP POP POP POP JUMP JUMPDEST PUSH1 0x0 DUP5 PUSH20 0xFFFFFFFFFFFFFFFFFFFFFFFFFFFFFFFFFFFFFFFF AND PUSH4 0x23B872DD DUP6 DUP6 DUP6 PUSH1 0x40 MLOAD DUP5 PUSH4 0xFFFFFFFF AND PUSH1 0xE0 SHL DUP2 MSTORE PUSH1 0x4 ADD PUSH2 0x17CA SWAP4 SWAP3 SWAP2 SWAP1 PUSH2 0x1BA9 JUMP JUMPDEST PUSH1 0x20 PUSH1 0x40 MLOAD DUP1 DUP4 SUB DUP2 PUSH1 0x0 DUP8 DUP1 EXTCODESIZE ISZERO DUP1 ISZERO PUSH2 0x17E4 JUMPI PUSH1 0x0 DUP1 REVERT JUMPDEST POP GAS CALL ISZERO DUP1 ISZERO PUSH2 0x17F8 JUMPI RETURNDATASIZE PUSH1 0x0 DUP1 RETURNDATACOPY RETURNDATASIZE PUSH1 0x0 REVERT JUMPDEST POP POP POP POP PUSH1 0x40 MLOAD RETURNDATASIZE PUSH1 0x1F NOT PUSH1 0x1F DUP3 ADD AND DUP3 ADD DUP1 PUSH1 0x40 MSTORE POP DUP2 ADD SWAP1 PUSH2 0x181C SWAP2 SWAP1 PUSH2 0x19FF JUMP JUMPDEST SWAP1 POP DUP1 PUSH2 0x185E JUMPI PUSH1 0x40 MLOAD PUSH32 0x8C379A000000000000000000000000000000000000000000000000000000000 DUP2 MSTORE PUSH1 0x4 ADD PUSH2 0x1855 SWAP1 PUSH2 0x1C5F JUMP JUMPDEST PUSH1 0x40 MLOAD DUP1 SWAP2 SUB SWAP1 REVERT JUMPDEST POP POP POP POP POP JUMP JUMPDEST PUSH1 0x0 DUP1 DUP4 EQ ISZERO PUSH2 0x1878 JUMPI PUSH1 0x0 SWAP1 POP PUSH2 0x18DA JUMP JUMPDEST PUSH1 0x0 DUP3 DUP5 PUSH2 0x1886 SWAP2 SWAP1 PUSH2 0x1D9B JUMP JUMPDEST SWAP1 POP DUP3 DUP5 DUP3 PUSH2 0x1895 SWAP2 SWAP1 PUSH2 0x1D6A JUMP JUMPDEST EQ PUSH2 0x18D5 JUMPI PUSH1 0x40 MLOAD PUSH32 0x8C379A000000000000000000000000000000000000000000000000000000000 DUP2 MSTORE PUSH1 0x4 ADD PUSH2 0x18CC SWAP1 PUSH2 0x1C9F JUMP JUMPDEST PUSH1 0x40 MLOAD DUP1 SWAP2 SUB SWAP1 REVERT JUMPDEST DUP1 SWAP2 POP POP JUMPDEST SWAP3 SWAP2 POP POP JUMP JUMPDEST PUSH1 0x0 DUP1 DUP3 DUP5 PUSH2 0x18EF SWAP2 SWAP1 PUSH2 0x1D14 JUMP JUMPDEST SWAP1 POP DUP4 DUP2 LT ISZERO PUSH2 0x1934 JUMPI PUSH1 0x40 MLOAD PUSH32 0x8C379A000000000000000000000000000000000000000000000000000000000 DUP2 MSTORE PUSH1 0x4 ADD PUSH2 0x192B SWAP1 PUSH2 0x1C9F JUMP JUMPDEST PUSH1 0x40 MLOAD DUP1 SWAP2 SUB SWAP1 REVERT JUMPDEST DUP1 SWAP2 POP POP SWAP3 SWAP2 POP POP JUMP JUMPDEST PUSH1 0x0 DUP2 CALLDATALOAD SWAP1 POP PUSH2 0x194D DUP2 PUSH2 0x2050 JUMP JUMPDEST SWAP3 SWAP2 POP POP JUMP JUMPDEST PUSH1 0x0 DUP2 MLOAD SWAP1 POP PUSH2 0x1962 DUP2 PUSH2 0x2067 JUMP JUMPDEST SWAP3 SWAP2 POP POP JUMP JUMPDEST PUSH1 0x0 DUP2 CALLDATALOAD SWAP1 POP PUSH2 0x1977 DUP2 PUSH2 0x207E JUMP JUMPDEST SWAP3 SWAP2 POP POP JUMP JUMPDEST PUSH1 0x0 DUP2 MLOAD SWAP1 POP PUSH2 0x198C DUP2 PUSH2 0x207E JUMP JUMPDEST SWAP3 SWAP2 POP POP JUMP JUMPDEST PUSH1 0x0 PUSH1 0x20 DUP3 DUP5 SUB SLT ISZERO PUSH2 0x19A8 JUMPI PUSH2 0x19A7 PUSH2 0x1F5B JUMP JUMPDEST JUMPDEST PUSH1 0x0 PUSH2 0x19B6 DUP5 DUP3 DUP6 ADD PUSH2 0x193E JUMP JUMPDEST SWAP2 POP POP SWAP3 SWAP2 POP POP JUMP JUMPDEST PUSH1 0x0 DUP1 PUSH1 0x40 DUP4 DUP6 SUB SLT ISZERO PUSH2 0x19D6 JUMPI PUSH2 0x19D5 PUSH2 0x1F5B JUMP JUMPDEST JUMPDEST PUSH1 0x0 PUSH2 0x19E4 DUP6 DUP3 DUP7 ADD PUSH2 0x193E JUMP JUMPDEST SWAP3 POP POP PUSH1 0x20 PUSH2 0x19F5 DUP6 DUP3 DUP7 ADD PUSH2 0x193E JUMP JUMPDEST SWAP2 POP POP SWAP3 POP SWAP3 SWAP1 POP JUMP JUMPDEST PUSH1 0x0 PUSH1 0x20 DUP3 DUP5 SUB SLT ISZERO PUSH2 0x1A15 JUMPI PUSH2 0x1A14 PUSH2 0x1F5B JUMP JUMPDEST JUMPDEST PUSH1 0x0 PUSH2 0x1A23 DUP5 DUP3 DUP6 ADD PUSH2 0x1953 JUMP JUMPDEST SWAP2 POP POP SWAP3 SWAP2 POP POP JUMP JUMPDEST PUSH1 0x0 PUSH1 0x20 DUP3 DUP5 SUB SLT ISZERO PUSH2 0x1A42 JUMPI PUSH2 0x1A41 PUSH2 0x1F5B JUMP JUMPDEST JUMPDEST PUSH1 0x0 PUSH2 0x1A50 DUP5 DUP3 DUP6 ADD PUSH2 0x1968 JUMP JUMPDEST SWAP2 POP POP SWAP3 SWAP2 POP POP JUMP JUMPDEST PUSH1 0x0 PUSH1 0x20 DUP3 DUP5 SUB SLT ISZERO PUSH2 0x1A6F JUMPI PUSH2 0x1A6E PUSH2 0x1F5B JUMP JUMPDEST JUMPDEST PUSH1 0x0 PUSH2 0x1A7D DUP5 DUP3 DUP6 ADD PUSH2 0x197D JUMP JUMPDEST SWAP2 POP POP SWAP3 SWAP2 POP POP JUMP JUMPDEST PUSH1 0x0 DUP1 PUSH1 0x40 DUP4 DUP6 SUB SLT ISZERO PUSH2 0x1A9D JUMPI PUSH2 0x1A9C PUSH2 0x1F5B JUMP JUMPDEST JUMPDEST PUSH1 0x0 PUSH2 0x1AAB DUP6 DUP3 DUP7 ADD PUSH2 0x1968 JUMP JUMPDEST SWAP3 POP POP PUSH1 0x20 PUSH2 0x1ABC DUP6 DUP3 DUP7 ADD PUSH2 0x1968 JUMP JUMPDEST SWAP2 POP POP SWAP3 POP SWAP3 SWAP1 POP JUMP JUMPDEST PUSH2 0x1ACF DUP2 PUSH2 0x1E29 JUMP JUMPDEST DUP3 MSTORE POP POP JUMP JUMPDEST PUSH2 0x1ADE DUP2 PUSH2 0x1E7E JUMP JUMPDEST DUP3 MSTORE POP POP JUMP JUMPDEST PUSH2 0x1AED DUP2 PUSH2 0x1E47 JUMP JUMPDEST DUP3 MSTORE POP POP JUMP JUMPDEST PUSH1 0x0 PUSH2 0x1B00 PUSH1 0x24 DUP4 PUSH2 0x1D03 JUMP JUMPDEST SWAP2 POP PUSH2 0x1B0B DUP3 PUSH2 0x1F60 JUMP JUMPDEST PUSH1 0x40 DUP3 ADD SWAP1 POP SWAP2 SWAP1 POP JUMP JUMPDEST PUSH1 0x0 PUSH2 0x1B23 PUSH1 0x15 DUP4 PUSH2 0x1D03 JUMP JUMPDEST SWAP2 POP PUSH2 0x1B2E DUP3 PUSH2 0x1FAF JUMP JUMPDEST PUSH1 0x20 DUP3 ADD SWAP1 POP SWAP2 SWAP1 POP JUMP JUMPDEST PUSH1 0x0 PUSH2 0x1B46 PUSH1 0x1A DUP4 PUSH2 0x1D03 JUMP JUMPDEST SWAP2 POP PUSH2 0x1B51 DUP3 PUSH2 0x1FD8 JUMP JUMPDEST PUSH1 0x20 DUP3 ADD SWAP1 POP SWAP2 SWAP1 POP JUMP JUMPDEST PUSH1 0x0 PUSH2 0x1B69 PUSH1 0x21 DUP4 PUSH2 0x1D03 JUMP JUMPDEST SWAP2 POP PUSH2 0x1B74 DUP3 PUSH2 0x2001 JUMP JUMPDEST PUSH1 0x40 DUP3 ADD SWAP1 POP SWAP2 SWAP1 POP JUMP JUMPDEST PUSH2 0x1B88 DUP2 PUSH2 0x1E74 JUMP JUMPDEST DUP3 MSTORE POP POP JUMP JUMPDEST PUSH1 0x0 PUSH1 0x20 DUP3 ADD SWAP1 POP PUSH2 0x1BA3 PUSH1 0x0 DUP4 ADD DUP5 PUSH2 0x1AC6 JUMP JUMPDEST SWAP3 SWAP2 POP POP JUMP JUMPDEST PUSH1 0x0 PUSH1 0x60 DUP3 ADD SWAP1 POP PUSH2 0x1BBE PUSH1 0x0 DUP4 ADD DUP7 PUSH2 0x1AC6 JUMP JUMPDEST PUSH2 0x1BCB PUSH1 0x20 DUP4 ADD DUP6 PUSH2 0x1AC6 JUMP JUMPDEST PUSH2 0x1BD8 PUSH1 0x40 DUP4 ADD DUP5 PUSH2 0x1B7F JUMP JUMPDEST SWAP5 SWAP4 POP POP POP POP JUMP JUMPDEST PUSH1 0x0 PUSH1 0x40 DUP3 ADD SWAP1 POP PUSH2 0x1BF5 PUSH1 0x0 DUP4 ADD DUP6 PUSH2 0x1AC6 JUMP JUMPDEST PUSH2 0x1C02 PUSH1 0x20 DUP4 ADD DUP5 PUSH2 0x1B7F JUMP JUMPDEST SWAP4 SWAP3 POP POP POP JUMP JUMPDEST PUSH1 0x0 PUSH1 0x20 DUP3 ADD SWAP1 POP PUSH2 0x1C1E PUSH1 0x0 DUP4 ADD DUP5 PUSH2 0x1AD5 JUMP JUMPDEST SWAP3 SWAP2 POP POP JUMP JUMPDEST PUSH1 0x0 PUSH1 0x20 DUP3 ADD SWAP1 POP PUSH2 0x1C39 PUSH1 0x0 DUP4 ADD DUP5 PUSH2 0x1AE4 JUMP JUMPDEST SWAP3 SWAP2 POP POP JUMP JUMPDEST PUSH1 0x0 PUSH1 0x20 DUP3 ADD SWAP1 POP DUP2 DUP2 SUB PUSH1 0x0 DUP4 ADD MSTORE PUSH2 0x1C58 DUP2 PUSH2 0x1AF3 JUMP JUMPDEST SWAP1 POP SWAP2 SWAP1 POP JUMP JUMPDEST PUSH1 0x0 PUSH1 0x20 DUP3 ADD SWAP1 POP DUP2 DUP2 SUB PUSH1 0x0 DUP4 ADD MSTORE PUSH2 0x1C78 DUP2 PUSH2 0x1B16 JUMP JUMPDEST SWAP1 POP SWAP2 SWAP1 POP JUMP JUMPDEST PUSH1 0x0 PUSH1 0x20 DUP3 ADD SWAP1 POP DUP2 DUP2 SUB PUSH1 0x0 DUP4 ADD MSTORE PUSH2 0x1C98 DUP2 PUSH2 0x1B39 JUMP JUMPDEST SWAP1 POP SWAP2 SWAP1 POP JUMP JUMPDEST PUSH1 0x0 PUSH1 0x20 DUP3 ADD SWAP1 POP DUP2 DUP2 SUB PUSH1 0x0 DUP4 ADD MSTORE PUSH2 0x1CB8 DUP2 PUSH2 0x1B5C JUMP JUMPDEST SWAP1 POP SWAP2 SWAP1 POP JUMP JUMPDEST PUSH1 0x0 PUSH1 0x20 DUP3 ADD SWAP1 POP PUSH2 0x1CD4 PUSH1 0x0 DUP4 ADD DUP5 PUSH2 0x1B7F JUMP JUMPDEST SWAP3 SWAP2 POP POP JUMP JUMPDEST PUSH1 0x0 PUSH1 0x40 DUP3 ADD SWAP1 POP PUSH2 0x1CEF PUSH1 0x0 DUP4 ADD DUP6 PUSH2 0x1B7F JUMP JUMPDEST PUSH2 0x1CFC PUSH1 0x20 DUP4 ADD DUP5 PUSH2 0x1B7F JUMP JUMPDEST SWAP4 SWAP3 POP POP POP JUMP JUMPDEST PUSH1 0x0 DUP3 DUP3 MSTORE PUSH1 0x20 DUP3 ADD SWAP1 POP SWAP3 SWAP2 POP POP JUMP JUMPDEST PUSH1 0x0 PUSH2 0x1D1F DUP3 PUSH2 0x1E74 JUMP JUMPDEST SWAP2 POP PUSH2 0x1D2A DUP4 PUSH2 0x1E74 JUMP JUMPDEST SWAP3 POP DUP3 PUSH32 0xFFFFFFFFFFFFFFFFFFFFFFFFFFFFFFFFFFFFFFFFFFFFFFFFFFFFFFFFFFFFFFFF SUB DUP3 GT ISZERO PUSH2 0x1D5F JUMPI PUSH2 0x1D5E PUSH2 0x1EFD JUMP JUMPDEST JUMPDEST DUP3 DUP3 ADD SWAP1 POP SWAP3 SWAP2 POP POP JUMP JUMPDEST PUSH1 0x0 PUSH2 0x1D75 DUP3 PUSH2 0x1E74 JUMP JUMPDEST SWAP2 POP PUSH2 0x1D80 DUP4 PUSH2 0x1E74 JUMP JUMPDEST SWAP3 POP DUP3 PUSH2 0x1D90 JUMPI PUSH2 0x1D8F PUSH2 0x1F2C JUMP JUMPDEST JUMPDEST DUP3 DUP3 DIV SWAP1 POP SWAP3 SWAP2 POP POP JUMP JUMPDEST PUSH1 0x0 PUSH2 0x1DA6 DUP3 PUSH2 0x1E74 JUMP JUMPDEST SWAP2 POP PUSH2 0x1DB1 DUP4 PUSH2 0x1E74 JUMP JUMPDEST SWAP3 POP DUP2 PUSH32 0xFFFFFFFFFFFFFFFFFFFFFFFFFFFFFFFFFFFFFFFFFFFFFFFFFFFFFFFFFFFFFFFF DIV DUP4 GT DUP3 ISZERO ISZERO AND ISZERO PUSH2 0x1DEA JUMPI PUSH2 0x1DE9 PUSH2 0x1EFD JUMP JUMPDEST JUMPDEST DUP3 DUP3 MUL SWAP1 POP SWAP3 SWAP2 POP POP JUMP JUMPDEST PUSH1 0x0 PUSH2 0x1E00 DUP3 PUSH2 0x1E74 JUMP JUMPDEST SWAP2 POP PUSH2 0x1E0B DUP4 PUSH2 0x1E74 JUMP JUMPDEST SWAP3 POP DUP3 DUP3 LT ISZERO PUSH2 0x1E1E JUMPI PUSH2 0x1E1D PUSH2 0x1EFD JUMP JUMPDEST JUMPDEST DUP3 DUP3 SUB SWAP1 POP SWAP3 SWAP2 POP POP JUMP JUMPDEST PUSH1 0x0 PUSH2 0x1E34 DUP3 PUSH2 0x1E54 JUMP JUMPDEST SWAP1 POP SWAP2 SWAP1 POP JUMP JUMPDEST PUSH1 0x0 DUP2 ISZERO ISZERO SWAP1 POP SWAP2 SWAP1 POP JUMP JUMPDEST PUSH1 0x0 DUP2 PUSH1 0xF SIGNEXTEND SWAP1 POP SWAP2 SWAP1 POP JUMP JUMPDEST PUSH1 0x0 PUSH20 0xFFFFFFFFFFFFFFFFFFFFFFFFFFFFFFFFFFFFFFFF DUP3 AND SWAP1 POP SWAP2 SWAP1 POP JUMP JUMPDEST PUSH1 0x0 DUP2 SWAP1 POP SWAP2 SWAP1 POP JUMP JUMPDEST PUSH1 0x0 PUSH2 0x1E89 DUP3 PUSH2 0x1E90 JUMP JUMPDEST SWAP1 POP SWAP2 SWAP1 POP JUMP JUMPDEST PUSH1 0x0 PUSH2 0x1E9B DUP3 PUSH2 0x1EA2 JUMP JUMPDEST SWAP1 POP SWAP2 SWAP1 POP JUMP JUMPDEST PUSH1 0x0 PUSH2 0x1EAD DUP3 PUSH2 0x1E54 JUMP JUMPDEST SWAP1 POP SWAP2 SWAP1 POP JUMP JUMPDEST PUSH1 0x0 PUSH2 0x1EBF DUP3 PUSH2 0x1E74 JUMP JUMPDEST SWAP2 POP PUSH32 0xFFFFFFFFFFFFFFFFFFFFFFFFFFFFFFFFFFFFFFFFFFFFFFFFFFFFFFFFFFFFFFFF DUP3 EQ ISZERO PUSH2 0x1EF2 JUMPI PUSH2 0x1EF1 PUSH2 0x1EFD JUMP JUMPDEST JUMPDEST PUSH1 0x1 DUP3 ADD SWAP1 POP SWAP2 SWAP1 POP JUMP JUMPDEST PUSH32 0x4E487B7100000000000000000000000000000000000000000000000000000000 PUSH1 0x0 MSTORE PUSH1 0x11 PUSH1 0x4 MSTORE PUSH1 0x24 PUSH1 0x0 REVERT JUMPDEST PUSH32 0x4E487B7100000000000000000000000000000000000000000000000000000000 PUSH1 0x0 MSTORE PUSH1 0x12 PUSH1 0x4 MSTORE PUSH1 0x24 PUSH1 0x0 REVERT JUMPDEST PUSH1 0x0 DUP1 REVERT JUMPDEST PUSH32 0x596F7520646F6E7420686176652074686174206D75636820746F207769746864 PUSH1 0x0 DUP3 ADD MSTORE PUSH32 0x7261772100000000000000000000000000000000000000000000000000000000 PUSH1 0x20 DUP3 ADD MSTORE POP JUMP JUMPDEST PUSH32 0x546F6B656E207472616E73666572206661696C65640000000000000000000000 PUSH1 0x0 DUP3 ADD MSTORE POP JUMP JUMPDEST PUSH32 0x596F7520646F6E742068617665207468617420616D6F756E7421000000000000 PUSH1 0x0 DUP3 ADD MSTORE POP JUMP JUMPDEST PUSH32 0x75696E74206F766572666C6F772066726F6D206D756C7469706C69636174696F PUSH1 0x0 DUP3 ADD MSTORE PUSH32 0x6E00000000000000000000000000000000000000000000000000000000000000 PUSH1 0x20 DUP3 ADD MSTORE POP JUMP JUMPDEST PUSH2 0x2059 DUP2 PUSH2 0x1E29 JUMP JUMPDEST DUP2 EQ PUSH2 0x2064 JUMPI PUSH1 0x0 DUP1 REVERT JUMPDEST POP JUMP JUMPDEST PUSH2 0x2070 DUP2 PUSH2 0x1E3B JUMP JUMPDEST DUP2 EQ PUSH2 0x207B JUMPI PUSH1 0x0 DUP1 REVERT JUMPDEST POP JUMP JUMPDEST PUSH2 0x2087 DUP2 PUSH2 0x1E74 JUMP JUMPDEST DUP2 EQ PUSH2 0x2092 JUMPI PUSH1 0x0 DUP1 REVERT JUMPDEST POP JUMP INVALID LOG2 PUSH5 0x6970667358 0x22 SLT KECCAK256 PUSH29 0x1C71409BCAF67022359471B00F4A8967287D27881649F2DAEB14C34231 PUSH11 0x564736F6C634300080700 CALLER "
				},
				"gasEstimates": {
					"creation": {
						"codeDepositCost": "1679000",
						"executionCost": "infinite",
						"totalCost": "infinite"
					},
					"external": {
						"buyScepter(uint256)": "infinite",
						"cashOutScepter(uint256)": "infinite",
						"daysInCalculation()": "2540",
						"decDiv18(uint256,uint256)": "infinite",
						"decMul18(uint256,uint256)": "infinite",
						"devWalletAddr()": "2560",
						"getBackingPrice()": "infinite",
						"getBuyPrice()": "infinite",
						"getGrowthFactor()": "infinite",
						"getSellFactor()": "infinite",
						"getSellPrice()": "infinite",
						"getTokensBoughtXDays()": "infinite",
						"getTokensSoldXDays()": "infinite",
						"growthFactor()": "2540",
						"mockUSDC()": "2667",
						"queryERC20Balance(address,address)": "infinite",
						"res()": "2565",
						"riskTreasuryAddr()": "2583",
						"scepterTreasuryAddr()": "2603",
						"sellFactor()": "2540",
						"setDaysUsedInFactors(uint256)": "infinite",
						"tSC()": "2668",
						"testUpdatetimeLockedminus(uint256)": "infinite",
						"testUpdatetimeLockedplus(uint256)": "infinite",
						"testwallet()": "2558",
						"timeLaunched()": "2541",
						"tokensBoughtXDays(uint256)": "infinite",
						"tokensSoldXDays(uint256)": "infinite",
						"transformScepterToBaton(uint256)": "infinite",
						"treasury1Addr()": "2602",
						"treasury1bal()": "2519",
						"whitelist(address)": "522",
						"withheldWithdrawals(address)": "infinite"
					},
					"internal": {
						"_safeTransferFrom(contract IERC20,address,address,uint256)": "infinite",
						"add(uint256,uint256)": "infinite",
						"div(uint256,uint256)": "infinite",
						"mintBaton(uint256)": "infinite",
						"mul(uint256,uint256)": "infinite",
						"sub(uint256,uint256)": "infinite"
					}
				},
				"methodIdentifiers": {
					"buyScepter(uint256)": "65819f7e",
					"cashOutScepter(uint256)": "ff357f5b",
					"daysInCalculation()": "67b48c91",
					"decDiv18(uint256,uint256)": "64ce07d8",
					"decMul18(uint256,uint256)": "f7523c52",
					"devWalletAddr()": "29982a32",
					"getBackingPrice()": "1f564a06",
					"getBuyPrice()": "018a25e8",
					"getGrowthFactor()": "93f7b711",
					"getSellFactor()": "0ccaf04f",
					"getSellPrice()": "43d32e9c",
					"getTokensBoughtXDays()": "71cd58f9",
					"getTokensSoldXDays()": "d82eddf2",
					"growthFactor()": "ee620868",
					"mockUSDC()": "ee467678",
					"queryERC20Balance(address,address)": "ee546a51",
					"res()": "6f10e285",
					"riskTreasuryAddr()": "047729b0",
					"scepterTreasuryAddr()": "c079d7f6",
					"sellFactor()": "cbff4617",
					"setDaysUsedInFactors(uint256)": "fc361443",
					"tSC()": "6e05c1b9",
					"testUpdatetimeLockedminus(uint256)": "164c8501",
					"testUpdatetimeLockedplus(uint256)": "67e927a8",
					"testwallet()": "eee05f5e",
					"timeLaunched()": "3c6eb17a",
					"tokensBoughtXDays(uint256)": "2a9f0fb1",
					"tokensSoldXDays(uint256)": "1514c976",
					"transformScepterToBaton(uint256)": "1bc9cc45",
					"treasury1Addr()": "fbbb4589",
					"treasury1bal()": "35453307",
					"whitelist(address)": "9b19251a",
					"withheldWithdrawals(address)": "12b2ed94"
				}
			},
			"userdoc": {
				"kind": "user",
				"methods": {},
				"version": 1
			}
		}
	}
}