{
	"RebaseAirdrop.sol": {
		"testRebase": {
			"abi": [
				{
					"inputs": [
						{
							"internalType": "address",
							"name": "_usdcAddr",
							"type": "address"
						},
						{
							"internalType": "address",
							"name": "_btonAddr",
							"type": "address"
						}
					],
					"stateMutability": "nonpayable",
					"type": "constructor"
				},
				{
					"inputs": [],
					"name": "USDC",
					"outputs": [
						{
							"internalType": "contract IERC20",
							"name": "",
							"type": "address"
						}
					],
					"stateMutability": "view",
					"type": "function"
				},
				{
					"inputs": [
						{
							"internalType": "address",
							"name": "",
							"type": "address"
						}
					],
					"name": "airdroppedBal",
					"outputs": [
						{
							"internalType": "uint256",
							"name": "timeInit",
							"type": "uint256"
						},
						{
							"internalType": "uint256",
							"name": "amounts",
							"type": "uint256"
						}
					],
					"stateMutability": "view",
					"type": "function"
				},
				{
					"inputs": [],
					"name": "startAirDrop",
					"outputs": [],
					"stateMutability": "nonpayable",
					"type": "function"
				}
			],
			"devdoc": {
				"kind": "dev",
				"methods": {},
				"version": 1
			},
			"evm": {
				"assembly": "    /* \"RebaseAirdrop.sol\":55:1438  contract testRebase { \r... */\n  mstore(0x40, 0x80)\n    /* \"RebaseAirdrop.sol\":441:571  constructor(address _usdcAddr, address _btonAddr) {\r... */\n  callvalue\n  dup1\n  iszero\n  tag_1\n  jumpi\n  0x00\n  dup1\n  revert\ntag_1:\n  pop\n  mload(0x40)\n  sub(codesize, bytecodeSize)\n  dup1\n  bytecodeSize\n  dup4\n  codecopy\n  dup2\n  dup2\n  add\n  0x40\n  mstore\n  dup2\n  add\n  swap1\n  tag_2\n  swap2\n  swap1\n  tag_3\n  jump\t// in\ntag_2:\n    /* \"RebaseAirdrop.sol\":516:558  0xD7ACd2a9FD159E69Bb102A1ca21C9a3e3A5F771B */\n  0xd7acd2a9fd159e69bb102a1ca21c9a3e3a5f771b\n    /* \"RebaseAirdrop.sol\":502:506  USDC */\n  0x01\n  0x00\n    /* \"RebaseAirdrop.sol\":502:559  USDC = IERC20(0xD7ACd2a9FD159E69Bb102A1ca21C9a3e3A5F771B) */\n  0x0100\n  exp\n  dup2\n  sload\n  dup2\n  0xffffffffffffffffffffffffffffffffffffffff\n  mul\n  not\n  and\n  swap1\n  dup4\n  0xffffffffffffffffffffffffffffffffffffffff\n  and\n  mul\n  or\n  swap1\n  sstore\n  pop\n    /* \"RebaseAirdrop.sol\":441:571  constructor(address _usdcAddr, address _btonAddr) {\r... */\n  pop\n  pop\n    /* \"RebaseAirdrop.sol\":55:1438  contract testRebase { \r... */\n  jump(tag_6)\n    /* \"#utility.yul\":7:150   */\ntag_8:\n    /* \"#utility.yul\":64:69   */\n  0x00\n    /* \"#utility.yul\":95:101   */\n  dup2\n    /* \"#utility.yul\":89:102   */\n  mload\n    /* \"#utility.yul\":80:102   */\n  swap1\n  pop\n    /* \"#utility.yul\":111:144   */\n  tag_10\n    /* \"#utility.yul\":138:143   */\n  dup2\n    /* \"#utility.yul\":111:144   */\n  tag_11\n  jump\t// in\ntag_10:\n    /* \"#utility.yul\":7:150   */\n  swap3\n  swap2\n  pop\n  pop\n  jump\t// out\n    /* \"#utility.yul\":156:663   */\ntag_3:\n    /* \"#utility.yul\":235:241   */\n  0x00\n    /* \"#utility.yul\":243:249   */\n  dup1\n    /* \"#utility.yul\":292:294   */\n  0x40\n    /* \"#utility.yul\":280:289   */\n  dup4\n    /* \"#utility.yul\":271:278   */\n  dup6\n    /* \"#utility.yul\":267:290   */\n  sub\n    /* \"#utility.yul\":263:295   */\n  slt\n    /* \"#utility.yul\":260:379   */\n  iszero\n  tag_13\n  jumpi\n    /* \"#utility.yul\":298:377   */\n  tag_14\n  tag_15\n  jump\t// in\ntag_14:\n    /* \"#utility.yul\":260:379   */\ntag_13:\n    /* \"#utility.yul\":418:419   */\n  0x00\n    /* \"#utility.yul\":443:507   */\n  tag_16\n    /* \"#utility.yul\":499:506   */\n  dup6\n    /* \"#utility.yul\":490:496   */\n  dup3\n    /* \"#utility.yul\":479:488   */\n  dup7\n    /* \"#utility.yul\":475:497   */\n  add\n    /* \"#utility.yul\":443:507   */\n  tag_8\n  jump\t// in\ntag_16:\n    /* \"#utility.yul\":433:507   */\n  swap3\n  pop\n    /* \"#utility.yul\":389:517   */\n  pop\n    /* \"#utility.yul\":556:558   */\n  0x20\n    /* \"#utility.yul\":582:646   */\n  tag_17\n    /* \"#utility.yul\":638:645   */\n  dup6\n    /* \"#utility.yul\":629:635   */\n  dup3\n    /* \"#utility.yul\":618:627   */\n  dup7\n    /* \"#utility.yul\":614:636   */\n  add\n    /* \"#utility.yul\":582:646   */\n  tag_8\n  jump\t// in\ntag_17:\n    /* \"#utility.yul\":572:646   */\n  swap2\n  pop\n    /* \"#utility.yul\":527:656   */\n  pop\n    /* \"#utility.yul\":156:663   */\n  swap3\n  pop\n  swap3\n  swap1\n  pop\n  jump\t// out\n    /* \"#utility.yul\":750:846   */\ntag_20:\n    /* \"#utility.yul\":787:794   */\n  0x00\n    /* \"#utility.yul\":816:840   */\n  tag_22\n    /* \"#utility.yul\":834:839   */\n  dup3\n    /* \"#utility.yul\":816:840   */\n  tag_23\n  jump\t// in\ntag_22:\n    /* \"#utility.yul\":805:840   */\n  swap1\n  pop\n    /* \"#utility.yul\":750:846   */\n  swap2\n  swap1\n  pop\n  jump\t// out\n    /* \"#utility.yul\":852:978   */\ntag_23:\n    /* \"#utility.yul\":889:896   */\n  0x00\n    /* \"#utility.yul\":929:971   */\n  0xffffffffffffffffffffffffffffffffffffffff\n    /* \"#utility.yul\":922:927   */\n  dup3\n    /* \"#utility.yul\":918:972   */\n  and\n    /* \"#utility.yul\":907:972   */\n  swap1\n  pop\n    /* \"#utility.yul\":852:978   */\n  swap2\n  swap1\n  pop\n  jump\t// out\n    /* \"#utility.yul\":1107:1224   */\ntag_15:\n    /* \"#utility.yul\":1216:1217   */\n  0x00\n    /* \"#utility.yul\":1213:1214   */\n  dup1\n    /* \"#utility.yul\":1206:1218   */\n  revert\n    /* \"#utility.yul\":1230:1352   */\ntag_11:\n    /* \"#utility.yul\":1303:1327   */\n  tag_29\n    /* \"#utility.yul\":1321:1326   */\n  dup2\n    /* \"#utility.yul\":1303:1327   */\n  tag_20\n  jump\t// in\ntag_29:\n    /* \"#utility.yul\":1296:1301   */\n  dup2\n    /* \"#utility.yul\":1293:1328   */\n  eq\n    /* \"#utility.yul\":1283:1346   */\n  tag_30\n  jumpi\n    /* \"#utility.yul\":1342:1343   */\n  0x00\n    /* \"#utility.yul\":1339:1340   */\n  dup1\n    /* \"#utility.yul\":1332:1344   */\n  revert\n    /* \"#utility.yul\":1283:1346   */\ntag_30:\n    /* \"#utility.yul\":1230:1352   */\n  pop\n  jump\t// out\n    /* \"RebaseAirdrop.sol\":55:1438  contract testRebase { \r... */\ntag_6:\n  dataSize(sub_0)\n  dup1\n  dataOffset(sub_0)\n  0x00\n  codecopy\n  0x00\n  return\nstop\n\nsub_0: assembly {\n        /* \"RebaseAirdrop.sol\":55:1438  contract testRebase { \r... */\n      mstore(0x40, 0x80)\n      callvalue\n      dup1\n      iszero\n      tag_1\n      jumpi\n      0x00\n      dup1\n      revert\n    tag_1:\n      pop\n      jumpi(tag_2, lt(calldatasize, 0x04))\n      shr(0xe0, calldataload(0x00))\n      dup1\n      0x283a1e16\n      eq\n      tag_3\n      jumpi\n      dup1\n      0x89a30271\n      eq\n      tag_4\n      jumpi\n      dup1\n      0xa87c70fa\n      eq\n      tag_5\n      jumpi\n    tag_2:\n      0x00\n      dup1\n      revert\n        /* \"RebaseAirdrop.sol\":584:735  function startAirDrop() external\r... */\n    tag_3:\n      tag_6\n      tag_7\n      jump\t// in\n    tag_6:\n      stop\n        /* \"RebaseAirdrop.sol\":416:434  IERC20 public USDC */\n    tag_4:\n      tag_8\n      tag_9\n      jump\t// in\n    tag_8:\n      mload(0x40)\n      tag_10\n      swap2\n      swap1\n      tag_11\n      jump\t// in\n    tag_10:\n      mload(0x40)\n      dup1\n      swap2\n      sub\n      swap1\n      return\n        /* \"RebaseAirdrop.sol\":357:409  mapping(address => btonsLocked) public airdroppedBal */\n    tag_5:\n      tag_12\n      0x04\n      dup1\n      calldatasize\n      sub\n      dup2\n      add\n      swap1\n      tag_13\n      swap2\n      swap1\n      tag_14\n      jump\t// in\n    tag_13:\n      tag_15\n      jump\t// in\n    tag_12:\n      mload(0x40)\n      tag_16\n      swap3\n      swap2\n      swap1\n      tag_17\n      jump\t// in\n    tag_16:\n      mload(0x40)\n      dup1\n      swap2\n      sub\n      swap1\n      return\n        /* \"RebaseAirdrop.sol\":584:735  function startAirDrop() external\r... */\n    tag_7:\n        /* \"RebaseAirdrop.sol\":670:685  block.timestamp */\n      timestamp\n        /* \"RebaseAirdrop.sol\":633:646  airdroppedBal */\n      0x00\n        /* \"RebaseAirdrop.sol\":633:658  airdroppedBal[msg.sender] */\n      dup1\n        /* \"RebaseAirdrop.sol\":647:657  msg.sender */\n      caller\n        /* \"RebaseAirdrop.sol\":633:658  airdroppedBal[msg.sender] */\n      0xffffffffffffffffffffffffffffffffffffffff\n      and\n      0xffffffffffffffffffffffffffffffffffffffff\n      and\n      dup2\n      mstore\n      0x20\n      add\n      swap1\n      dup2\n      mstore\n      0x20\n      add\n      0x00\n      keccak256\n        /* \"RebaseAirdrop.sol\":633:667  airdroppedBal[msg.sender].timeInit */\n      0x00\n      add\n        /* \"RebaseAirdrop.sol\":633:685  airdroppedBal[msg.sender].timeInit = block.timestamp */\n      dup2\n      swap1\n      sstore\n      pop\n        /* \"RebaseAirdrop.sol\":584:735  function startAirDrop() external\r... */\n      jump\t// out\n        /* \"RebaseAirdrop.sol\":416:434  IERC20 public USDC */\n    tag_9:\n      0x01\n      0x00\n      swap1\n      sload\n      swap1\n      0x0100\n      exp\n      swap1\n      div\n      0xffffffffffffffffffffffffffffffffffffffff\n      and\n      dup2\n      jump\t// out\n        /* \"RebaseAirdrop.sol\":357:409  mapping(address => btonsLocked) public airdroppedBal */\n    tag_15:\n      mstore(0x20, 0x00)\n      dup1\n      0x00\n      mstore\n      keccak256(0x00, 0x40)\n      0x00\n      swap2\n      pop\n      swap1\n      pop\n      dup1\n      0x00\n      add\n      sload\n      swap1\n      dup1\n      0x01\n      add\n      sload\n      swap1\n      pop\n      dup3\n      jump\t// out\n        /* \"#utility.yul\":7:146   */\n    tag_20:\n        /* \"#utility.yul\":53:58   */\n      0x00\n        /* \"#utility.yul\":91:97   */\n      dup2\n        /* \"#utility.yul\":78:98   */\n      calldataload\n        /* \"#utility.yul\":69:98   */\n      swap1\n      pop\n        /* \"#utility.yul\":107:140   */\n      tag_22\n        /* \"#utility.yul\":134:139   */\n      dup2\n        /* \"#utility.yul\":107:140   */\n      tag_23\n      jump\t// in\n    tag_22:\n        /* \"#utility.yul\":7:146   */\n      swap3\n      swap2\n      pop\n      pop\n      jump\t// out\n        /* \"#utility.yul\":152:481   */\n    tag_14:\n        /* \"#utility.yul\":211:217   */\n      0x00\n        /* \"#utility.yul\":260:262   */\n      0x20\n        /* \"#utility.yul\":248:257   */\n      dup3\n        /* \"#utility.yul\":239:246   */\n      dup5\n        /* \"#utility.yul\":235:258   */\n      sub\n        /* \"#utility.yul\":231:263   */\n      slt\n        /* \"#utility.yul\":228:347   */\n      iszero\n      tag_25\n      jumpi\n        /* \"#utility.yul\":266:345   */\n      tag_26\n      tag_27\n      jump\t// in\n    tag_26:\n        /* \"#utility.yul\":228:347   */\n    tag_25:\n        /* \"#utility.yul\":386:387   */\n      0x00\n        /* \"#utility.yul\":411:464   */\n      tag_28\n        /* \"#utility.yul\":456:463   */\n      dup5\n        /* \"#utility.yul\":447:453   */\n      dup3\n        /* \"#utility.yul\":436:445   */\n      dup6\n        /* \"#utility.yul\":432:454   */\n      add\n        /* \"#utility.yul\":411:464   */\n      tag_20\n      jump\t// in\n    tag_28:\n        /* \"#utility.yul\":401:464   */\n      swap2\n      pop\n        /* \"#utility.yul\":357:474   */\n      pop\n        /* \"#utility.yul\":152:481   */\n      swap3\n      swap2\n      pop\n      pop\n      jump\t// out\n        /* \"#utility.yul\":487:644   */\n    tag_29:\n        /* \"#utility.yul\":587:637   */\n      tag_31\n        /* \"#utility.yul\":631:636   */\n      dup2\n        /* \"#utility.yul\":587:637   */\n      tag_32\n      jump\t// in\n    tag_31:\n        /* \"#utility.yul\":582:585   */\n      dup3\n        /* \"#utility.yul\":575:638   */\n      mstore\n        /* \"#utility.yul\":487:644   */\n      pop\n      pop\n      jump\t// out\n        /* \"#utility.yul\":650:768   */\n    tag_33:\n        /* \"#utility.yul\":737:761   */\n      tag_35\n        /* \"#utility.yul\":755:760   */\n      dup2\n        /* \"#utility.yul\":737:761   */\n      tag_36\n      jump\t// in\n    tag_35:\n        /* \"#utility.yul\":732:735   */\n      dup3\n        /* \"#utility.yul\":725:762   */\n      mstore\n        /* \"#utility.yul\":650:768   */\n      pop\n      pop\n      jump\t// out\n        /* \"#utility.yul\":774:1022   */\n    tag_11:\n        /* \"#utility.yul\":880:884   */\n      0x00\n        /* \"#utility.yul\":918:920   */\n      0x20\n        /* \"#utility.yul\":907:916   */\n      dup3\n        /* \"#utility.yul\":903:921   */\n      add\n        /* \"#utility.yul\":895:921   */\n      swap1\n      pop\n        /* \"#utility.yul\":931:1015   */\n      tag_38\n        /* \"#utility.yul\":1012:1013   */\n      0x00\n        /* \"#utility.yul\":1001:1010   */\n      dup4\n        /* \"#utility.yul\":997:1014   */\n      add\n        /* \"#utility.yul\":988:994   */\n      dup5\n        /* \"#utility.yul\":931:1015   */\n      tag_29\n      jump\t// in\n    tag_38:\n        /* \"#utility.yul\":774:1022   */\n      swap3\n      swap2\n      pop\n      pop\n      jump\t// out\n        /* \"#utility.yul\":1028:1360   */\n    tag_17:\n        /* \"#utility.yul\":1149:1153   */\n      0x00\n        /* \"#utility.yul\":1187:1189   */\n      0x40\n        /* \"#utility.yul\":1176:1185   */\n      dup3\n        /* \"#utility.yul\":1172:1190   */\n      add\n        /* \"#utility.yul\":1164:1190   */\n      swap1\n      pop\n        /* \"#utility.yul\":1200:1271   */\n      tag_40\n        /* \"#utility.yul\":1268:1269   */\n      0x00\n        /* \"#utility.yul\":1257:1266   */\n      dup4\n        /* \"#utility.yul\":1253:1270   */\n      add\n        /* \"#utility.yul\":1244:1250   */\n      dup6\n        /* \"#utility.yul\":1200:1271   */\n      tag_33\n      jump\t// in\n    tag_40:\n        /* \"#utility.yul\":1281:1353   */\n      tag_41\n        /* \"#utility.yul\":1349:1351   */\n      0x20\n        /* \"#utility.yul\":1338:1347   */\n      dup4\n        /* \"#utility.yul\":1334:1352   */\n      add\n        /* \"#utility.yul\":1325:1331   */\n      dup5\n        /* \"#utility.yul\":1281:1353   */\n      tag_33\n      jump\t// in\n    tag_41:\n        /* \"#utility.yul\":1028:1360   */\n      swap4\n      swap3\n      pop\n      pop\n      pop\n      jump\t// out\n        /* \"#utility.yul\":1447:1543   */\n    tag_44:\n        /* \"#utility.yul\":1484:1491   */\n      0x00\n        /* \"#utility.yul\":1513:1537   */\n      tag_46\n        /* \"#utility.yul\":1531:1536   */\n      dup3\n        /* \"#utility.yul\":1513:1537   */\n      tag_47\n      jump\t// in\n    tag_46:\n        /* \"#utility.yul\":1502:1537   */\n      swap1\n      pop\n        /* \"#utility.yul\":1447:1543   */\n      swap2\n      swap1\n      pop\n      jump\t// out\n        /* \"#utility.yul\":1549:1675   */\n    tag_47:\n        /* \"#utility.yul\":1586:1593   */\n      0x00\n        /* \"#utility.yul\":1626:1668   */\n      0xffffffffffffffffffffffffffffffffffffffff\n        /* \"#utility.yul\":1619:1624   */\n      dup3\n        /* \"#utility.yul\":1615:1669   */\n      and\n        /* \"#utility.yul\":1604:1669   */\n      swap1\n      pop\n        /* \"#utility.yul\":1549:1675   */\n      swap2\n      swap1\n      pop\n      jump\t// out\n        /* \"#utility.yul\":1681:1758   */\n    tag_36:\n        /* \"#utility.yul\":1718:1725   */\n      0x00\n        /* \"#utility.yul\":1747:1752   */\n      dup2\n        /* \"#utility.yul\":1736:1752   */\n      swap1\n      pop\n        /* \"#utility.yul\":1681:1758   */\n      swap2\n      swap1\n      pop\n      jump\t// out\n        /* \"#utility.yul\":1764:1903   */\n    tag_32:\n        /* \"#utility.yul\":1827:1836   */\n      0x00\n        /* \"#utility.yul\":1860:1897   */\n      tag_51\n        /* \"#utility.yul\":1891:1896   */\n      dup3\n        /* \"#utility.yul\":1860:1897   */\n      tag_52\n      jump\t// in\n    tag_51:\n        /* \"#utility.yul\":1847:1897   */\n      swap1\n      pop\n        /* \"#utility.yul\":1764:1903   */\n      swap2\n      swap1\n      pop\n      jump\t// out\n        /* \"#utility.yul\":1909:2035   */\n    tag_52:\n        /* \"#utility.yul\":1959:1968   */\n      0x00\n        /* \"#utility.yul\":1992:2029   */\n      tag_54\n        /* \"#utility.yul\":2023:2028   */\n      dup3\n        /* \"#utility.yul\":1992:2029   */\n      tag_55\n      jump\t// in\n    tag_54:\n        /* \"#utility.yul\":1979:2029   */\n      swap1\n      pop\n        /* \"#utility.yul\":1909:2035   */\n      swap2\n      swap1\n      pop\n      jump\t// out\n        /* \"#utility.yul\":2041:2154   */\n    tag_55:\n        /* \"#utility.yul\":2091:2100   */\n      0x00\n        /* \"#utility.yul\":2124:2148   */\n      tag_57\n        /* \"#utility.yul\":2142:2147   */\n      dup3\n        /* \"#utility.yul\":2124:2148   */\n      tag_47\n      jump\t// in\n    tag_57:\n        /* \"#utility.yul\":2111:2148   */\n      swap1\n      pop\n        /* \"#utility.yul\":2041:2154   */\n      swap2\n      swap1\n      pop\n      jump\t// out\n        /* \"#utility.yul\":2283:2400   */\n    tag_27:\n        /* \"#utility.yul\":2392:2393   */\n      0x00\n        /* \"#utility.yul\":2389:2390   */\n      dup1\n        /* \"#utility.yul\":2382:2394   */\n      revert\n        /* \"#utility.yul\":2406:2528   */\n    tag_23:\n        /* \"#utility.yul\":2479:2503   */\n      tag_62\n        /* \"#utility.yul\":2497:2502   */\n      dup2\n        /* \"#utility.yul\":2479:2503   */\n      tag_44\n      jump\t// in\n    tag_62:\n        /* \"#utility.yul\":2472:2477   */\n      dup2\n        /* \"#utility.yul\":2469:2504   */\n      eq\n        /* \"#utility.yul\":2459:2522   */\n      tag_63\n      jumpi\n        /* \"#utility.yul\":2518:2519   */\n      0x00\n        /* \"#utility.yul\":2515:2516   */\n      dup1\n        /* \"#utility.yul\":2508:2520   */\n      revert\n        /* \"#utility.yul\":2459:2522   */\n    tag_63:\n        /* \"#utility.yul\":2406:2528   */\n      pop\n      jump\t// out\n\n    auxdata: 0xa26469706673582212204f90b2c4254b80493a1118f2da624d4d5a434e56a68ba555ef0d002693e4c12a64736f6c63430008070033\n}\n",
				"bytecode": {
					"linkReferences": {},
					"object": "608060405234801561001057600080fd5b506040516103d93803806103d9833981810160405281019061003291906100a3565b73d7acd2a9fd159e69bb102a1ca21c9a3e3a5f771b600160006101000a81548173ffffffffffffffffffffffffffffffffffffffff021916908373ffffffffffffffffffffffffffffffffffffffff1602179055505050610131565b60008151905061009d8161011a565b92915050565b600080604083850312156100ba576100b9610115565b5b60006100c88582860161008e565b92505060206100d98582860161008e565b9150509250929050565b60006100ee826100f5565b9050919050565b600073ffffffffffffffffffffffffffffffffffffffff82169050919050565b600080fd5b610123816100e3565b811461012e57600080fd5b50565b610299806101406000396000f3fe608060405234801561001057600080fd5b50600436106100415760003560e01c8063283a1e161461004657806389a3027114610050578063a87c70fa1461006e575b600080fd5b61004e61009f565b005b6100586100e7565b6040516100659190610191565b60405180910390f35b61008860048036038101906100839190610146565b61010d565b6040516100969291906101ac565b60405180910390f35b426000803373ffffffffffffffffffffffffffffffffffffffff1673ffffffffffffffffffffffffffffffffffffffff16815260200190815260200160002060000181905550565b600160009054906101000a900473ffffffffffffffffffffffffffffffffffffffff1681565b60006020528060005260406000206000915090508060000154908060010154905082565b6000813590506101408161024c565b92915050565b60006020828403121561015c5761015b610247565b5b600061016a84828501610131565b91505092915050565b61017c81610211565b82525050565b61018b81610207565b82525050565b60006020820190506101a66000830184610173565b92915050565b60006040820190506101c16000830185610182565b6101ce6020830184610182565b9392505050565b60006101e0826101e7565b9050919050565b600073ffffffffffffffffffffffffffffffffffffffff82169050919050565b6000819050919050565b600061021c82610223565b9050919050565b600061022e82610235565b9050919050565b6000610240826101e7565b9050919050565b600080fd5b610255816101d5565b811461026057600080fd5b5056fea26469706673582212204f90b2c4254b80493a1118f2da624d4d5a434e56a68ba555ef0d002693e4c12a64736f6c63430008070033",
					"opcodes": "PUSH1 0x80 PUSH1 0x40 MSTORE CALLVALUE DUP1 ISZERO PUSH2 0x10 JUMPI PUSH1 0x0 DUP1 REVERT JUMPDEST POP PUSH1 0x40 MLOAD PUSH2 0x3D9 CODESIZE SUB DUP1 PUSH2 0x3D9 DUP4 CODECOPY DUP2 DUP2 ADD PUSH1 0x40 MSTORE DUP2 ADD SWAP1 PUSH2 0x32 SWAP2 SWAP1 PUSH2 0xA3 JUMP JUMPDEST PUSH20 0xD7ACD2A9FD159E69BB102A1CA21C9A3E3A5F771B PUSH1 0x1 PUSH1 0x0 PUSH2 0x100 EXP DUP2 SLOAD DUP2 PUSH20 0xFFFFFFFFFFFFFFFFFFFFFFFFFFFFFFFFFFFFFFFF MUL NOT AND SWAP1 DUP4 PUSH20 0xFFFFFFFFFFFFFFFFFFFFFFFFFFFFFFFFFFFFFFFF AND MUL OR SWAP1 SSTORE POP POP POP PUSH2 0x131 JUMP JUMPDEST PUSH1 0x0 DUP2 MLOAD SWAP1 POP PUSH2 0x9D DUP2 PUSH2 0x11A JUMP JUMPDEST SWAP3 SWAP2 POP POP JUMP JUMPDEST PUSH1 0x0 DUP1 PUSH1 0x40 DUP4 DUP6 SUB SLT ISZERO PUSH2 0xBA JUMPI PUSH2 0xB9 PUSH2 0x115 JUMP JUMPDEST JUMPDEST PUSH1 0x0 PUSH2 0xC8 DUP6 DUP3 DUP7 ADD PUSH2 0x8E JUMP JUMPDEST SWAP3 POP POP PUSH1 0x20 PUSH2 0xD9 DUP6 DUP3 DUP7 ADD PUSH2 0x8E JUMP JUMPDEST SWAP2 POP POP SWAP3 POP SWAP3 SWAP1 POP JUMP JUMPDEST PUSH1 0x0 PUSH2 0xEE DUP3 PUSH2 0xF5 JUMP JUMPDEST SWAP1 POP SWAP2 SWAP1 POP JUMP JUMPDEST PUSH1 0x0 PUSH20 0xFFFFFFFFFFFFFFFFFFFFFFFFFFFFFFFFFFFFFFFF DUP3 AND SWAP1 POP SWAP2 SWAP1 POP JUMP JUMPDEST PUSH1 0x0 DUP1 REVERT JUMPDEST PUSH2 0x123 DUP2 PUSH2 0xE3 JUMP JUMPDEST DUP2 EQ PUSH2 0x12E JUMPI PUSH1 0x0 DUP1 REVERT JUMPDEST POP JUMP JUMPDEST PUSH2 0x299 DUP1 PUSH2 0x140 PUSH1 0x0 CODECOPY PUSH1 0x0 RETURN INVALID PUSH1 0x80 PUSH1 0x40 MSTORE CALLVALUE DUP1 ISZERO PUSH2 0x10 JUMPI PUSH1 0x0 DUP1 REVERT JUMPDEST POP PUSH1 0x4 CALLDATASIZE LT PUSH2 0x41 JUMPI PUSH1 0x0 CALLDATALOAD PUSH1 0xE0 SHR DUP1 PUSH4 0x283A1E16 EQ PUSH2 0x46 JUMPI DUP1 PUSH4 0x89A30271 EQ PUSH2 0x50 JUMPI DUP1 PUSH4 0xA87C70FA EQ PUSH2 0x6E JUMPI JUMPDEST PUSH1 0x0 DUP1 REVERT JUMPDEST PUSH2 0x4E PUSH2 0x9F JUMP JUMPDEST STOP JUMPDEST PUSH2 0x58 PUSH2 0xE7 JUMP JUMPDEST PUSH1 0x40 MLOAD PUSH2 0x65 SWAP2 SWAP1 PUSH2 0x191 JUMP JUMPDEST PUSH1 0x40 MLOAD DUP1 SWAP2 SUB SWAP1 RETURN JUMPDEST PUSH2 0x88 PUSH1 0x4 DUP1 CALLDATASIZE SUB DUP2 ADD SWAP1 PUSH2 0x83 SWAP2 SWAP1 PUSH2 0x146 JUMP JUMPDEST PUSH2 0x10D JUMP JUMPDEST PUSH1 0x40 MLOAD PUSH2 0x96 SWAP3 SWAP2 SWAP1 PUSH2 0x1AC JUMP JUMPDEST PUSH1 0x40 MLOAD DUP1 SWAP2 SUB SWAP1 RETURN JUMPDEST TIMESTAMP PUSH1 0x0 DUP1 CALLER PUSH20 0xFFFFFFFFFFFFFFFFFFFFFFFFFFFFFFFFFFFFFFFF AND PUSH20 0xFFFFFFFFFFFFFFFFFFFFFFFFFFFFFFFFFFFFFFFF AND DUP2 MSTORE PUSH1 0x20 ADD SWAP1 DUP2 MSTORE PUSH1 0x20 ADD PUSH1 0x0 KECCAK256 PUSH1 0x0 ADD DUP2 SWAP1 SSTORE POP JUMP JUMPDEST PUSH1 0x1 PUSH1 0x0 SWAP1 SLOAD SWAP1 PUSH2 0x100 EXP SWAP1 DIV PUSH20 0xFFFFFFFFFFFFFFFFFFFFFFFFFFFFFFFFFFFFFFFF AND DUP2 JUMP JUMPDEST PUSH1 0x0 PUSH1 0x20 MSTORE DUP1 PUSH1 0x0 MSTORE PUSH1 0x40 PUSH1 0x0 KECCAK256 PUSH1 0x0 SWAP2 POP SWAP1 POP DUP1 PUSH1 0x0 ADD SLOAD SWAP1 DUP1 PUSH1 0x1 ADD SLOAD SWAP1 POP DUP3 JUMP JUMPDEST PUSH1 0x0 DUP2 CALLDATALOAD SWAP1 POP PUSH2 0x140 DUP2 PUSH2 0x24C JUMP JUMPDEST SWAP3 SWAP2 POP POP JUMP JUMPDEST PUSH1 0x0 PUSH1 0x20 DUP3 DUP5 SUB SLT ISZERO PUSH2 0x15C JUMPI PUSH2 0x15B PUSH2 0x247 JUMP JUMPDEST JUMPDEST PUSH1 0x0 PUSH2 0x16A DUP5 DUP3 DUP6 ADD PUSH2 0x131 JUMP JUMPDEST SWAP2 POP POP SWAP3 SWAP2 POP POP JUMP JUMPDEST PUSH2 0x17C DUP2 PUSH2 0x211 JUMP JUMPDEST DUP3 MSTORE POP POP JUMP JUMPDEST PUSH2 0x18B DUP2 PUSH2 0x207 JUMP JUMPDEST DUP3 MSTORE POP POP JUMP JUMPDEST PUSH1 0x0 PUSH1 0x20 DUP3 ADD SWAP1 POP PUSH2 0x1A6 PUSH1 0x0 DUP4 ADD DUP5 PUSH2 0x173 JUMP JUMPDEST SWAP3 SWAP2 POP POP JUMP JUMPDEST PUSH1 0x0 PUSH1 0x40 DUP3 ADD SWAP1 POP PUSH2 0x1C1 PUSH1 0x0 DUP4 ADD DUP6 PUSH2 0x182 JUMP JUMPDEST PUSH2 0x1CE PUSH1 0x20 DUP4 ADD DUP5 PUSH2 0x182 JUMP JUMPDEST SWAP4 SWAP3 POP POP POP JUMP JUMPDEST PUSH1 0x0 PUSH2 0x1E0 DUP3 PUSH2 0x1E7 JUMP JUMPDEST SWAP1 POP SWAP2 SWAP1 POP JUMP JUMPDEST PUSH1 0x0 PUSH20 0xFFFFFFFFFFFFFFFFFFFFFFFFFFFFFFFFFFFFFFFF DUP3 AND SWAP1 POP SWAP2 SWAP1 POP JUMP JUMPDEST PUSH1 0x0 DUP2 SWAP1 POP SWAP2 SWAP1 POP JUMP JUMPDEST PUSH1 0x0 PUSH2 0x21C DUP3 PUSH2 0x223 JUMP JUMPDEST SWAP1 POP SWAP2 SWAP1 POP JUMP JUMPDEST PUSH1 0x0 PUSH2 0x22E DUP3 PUSH2 0x235 JUMP JUMPDEST SWAP1 POP SWAP2 SWAP1 POP JUMP JUMPDEST PUSH1 0x0 PUSH2 0x240 DUP3 PUSH2 0x1E7 JUMP JUMPDEST SWAP1 POP SWAP2 SWAP1 POP JUMP JUMPDEST PUSH1 0x0 DUP1 REVERT JUMPDEST PUSH2 0x255 DUP2 PUSH2 0x1D5 JUMP JUMPDEST DUP2 EQ PUSH2 0x260 JUMPI PUSH1 0x0 DUP1 REVERT JUMPDEST POP JUMP INVALID LOG2 PUSH5 0x6970667358 0x22 SLT KECCAK256 0x4F SWAP1 0xB2 0xC4 0x25 0x4B DUP1 0x49 GASPRICE GT XOR CALLCODE 0xDA PUSH3 0x4D4D5A NUMBER 0x4E JUMP 0xA6 DUP12 0xA5 SSTORE 0xEF 0xD STOP 0x26 SWAP4 0xE4 0xC1 0x2A PUSH5 0x736F6C6343 STOP ADDMOD SMOD STOP CALLER "
				},
				"gasEstimates": {
					"creation": {
						"codeDepositCost": "133000",
						"executionCost": "infinite",
						"totalCost": "infinite"
					},
					"external": {
						"USDC()": "2600",
						"airdroppedBal(address)": "infinite",
						"startAirDrop()": "22330"
					},
					"internal": {
						"calcAirdrop()": "infinite",
						"withdrawAirDrop()": "infinite"
					}
				},
				"methodIdentifiers": {
					"USDC()": "89a30271",
					"airdroppedBal(address)": "a87c70fa",
					"startAirDrop()": "283a1e16"
				}
			},
			"userdoc": {
				"kind": "user",
				"methods": {},
				"version": 1
			}
		}
	}
}