{
	"WandInstruments.sol": {
		"testSticks": {
			"abi": [
				{
					"inputs": [],
					"stateMutability": "nonpayable",
					"type": "constructor"
				},
				{
					"anonymous": false,
					"inputs": [
						{
							"indexed": true,
							"internalType": "address",
							"name": "previousOwner",
							"type": "address"
						},
						{
							"indexed": true,
							"internalType": "address",
							"name": "newOwner",
							"type": "address"
						}
					],
					"name": "OwnershipTransferred",
					"type": "event"
				},
				{
					"anonymous": false,
					"inputs": [
						{
							"indexed": true,
							"internalType": "address",
							"name": "_from",
							"type": "address"
						},
						{
							"indexed": false,
							"internalType": "uint256",
							"name": "_amount",
							"type": "uint256"
						}
					],
					"name": "sceptersBought",
					"type": "event"
				},
				{
					"anonymous": false,
					"inputs": [
						{
							"indexed": true,
							"internalType": "address",
							"name": "_from",
							"type": "address"
						},
						{
							"indexed": false,
							"internalType": "uint256",
							"name": "_amount",
							"type": "uint256"
						}
					],
					"name": "sceptersSold",
					"type": "event"
				},
				{
					"inputs": [],
					"name": "BTON",
					"outputs": [
						{
							"internalType": "contract IERC20",
							"name": "",
							"type": "address"
						}
					],
					"stateMutability": "view",
					"type": "function"
				},
				{
					"inputs": [],
					"name": "Launch",
					"outputs": [],
					"stateMutability": "nonpayable",
					"type": "function"
				},
				{
					"inputs": [],
					"name": "SPTR",
					"outputs": [
						{
							"internalType": "contract IERC20",
							"name": "",
							"type": "address"
						}
					],
					"stateMutability": "view",
					"type": "function"
				},
				{
					"inputs": [],
					"name": "WAND",
					"outputs": [
						{
							"internalType": "contract IERC20",
							"name": "",
							"type": "address"
						}
					],
					"stateMutability": "view",
					"type": "function"
				},
				{
					"inputs": [
						{
							"internalType": "string",
							"name": "_ticker",
							"type": "string"
						},
						{
							"internalType": "address",
							"name": "_addr",
							"type": "address"
						},
						{
							"internalType": "uint256",
							"name": "_dec",
							"type": "uint256"
						}
					],
					"name": "addStable",
					"outputs": [],
					"stateMutability": "nonpayable",
					"type": "function"
				},
				{
					"inputs": [
						{
							"internalType": "uint256",
							"name": "amountSCPtoBuy",
							"type": "uint256"
						},
						{
							"internalType": "string",
							"name": "_stableChosen",
							"type": "string"
						}
					],
					"name": "buyScepter",
					"outputs": [],
					"stateMutability": "nonpayable",
					"type": "function"
				},
				{
					"inputs": [
						{
							"internalType": "uint256",
							"name": "amountSCPtoSell",
							"type": "uint256"
						},
						{
							"internalType": "uint256",
							"name": "timeChosenLocked",
							"type": "uint256"
						},
						{
							"internalType": "string",
							"name": "_stableChosen",
							"type": "string"
						}
					],
					"name": "cashOutScepter",
					"outputs": [],
					"stateMutability": "payable",
					"type": "function"
				},
				{
					"inputs": [
						{
							"internalType": "uint256",
							"name": "",
							"type": "uint256"
						}
					],
					"name": "circulatingSupplyXDays",
					"outputs": [
						{
							"internalType": "uint256",
							"name": "",
							"type": "uint256"
						}
					],
					"stateMutability": "view",
					"type": "function"
				},
				{
					"inputs": [
						{
							"internalType": "address",
							"name": "_claimant",
							"type": "address"
						},
						{
							"internalType": "string",
							"name": "_stableChosen",
							"type": "string"
						}
					],
					"name": "claimLockedUSDC",
					"outputs": [],
					"stateMutability": "nonpayable",
					"type": "function"
				},
				{
					"inputs": [],
					"name": "daysInCalculation",
					"outputs": [
						{
							"internalType": "uint256",
							"name": "",
							"type": "uint256"
						}
					],
					"stateMutability": "view",
					"type": "function"
				},
				{
					"inputs": [],
					"name": "devWalletAddr",
					"outputs": [
						{
							"internalType": "address",
							"name": "",
							"type": "address"
						}
					],
					"stateMutability": "view",
					"type": "function"
				},
				{
					"inputs": [],
					"name": "getBackingPrice",
					"outputs": [
						{
							"internalType": "uint256",
							"name": "",
							"type": "uint256"
						}
					],
					"stateMutability": "view",
					"type": "function"
				},
				{
					"inputs": [],
					"name": "getBuyPrice",
					"outputs": [
						{
							"internalType": "uint256",
							"name": "",
							"type": "uint256"
						}
					],
					"stateMutability": "view",
					"type": "function"
				},
				{
					"inputs": [],
					"name": "getCircSupplyXDays",
					"outputs": [
						{
							"internalType": "uint256",
							"name": "",
							"type": "uint256"
						}
					],
					"stateMutability": "view",
					"type": "function"
				},
				{
					"inputs": [],
					"name": "getGrowthFactor",
					"outputs": [
						{
							"internalType": "uint256",
							"name": "",
							"type": "uint256"
						}
					],
					"stateMutability": "view",
					"type": "function"
				},
				{
					"inputs": [],
					"name": "getSellFactor",
					"outputs": [
						{
							"internalType": "uint256",
							"name": "",
							"type": "uint256"
						}
					],
					"stateMutability": "view",
					"type": "function"
				},
				{
					"inputs": [],
					"name": "getSellPrice",
					"outputs": [
						{
							"internalType": "uint256",
							"name": "",
							"type": "uint256"
						}
					],
					"stateMutability": "view",
					"type": "function"
				},
				{
					"inputs": [],
					"name": "getTokensBoughtXDays",
					"outputs": [
						{
							"internalType": "uint256",
							"name": "",
							"type": "uint256"
						}
					],
					"stateMutability": "view",
					"type": "function"
				},
				{
					"inputs": [],
					"name": "getTokensSoldXDays",
					"outputs": [
						{
							"internalType": "uint256",
							"name": "",
							"type": "uint256"
						}
					],
					"stateMutability": "view",
					"type": "function"
				},
				{
					"inputs": [],
					"name": "growthFactor",
					"outputs": [
						{
							"internalType": "uint256",
							"name": "",
							"type": "uint256"
						}
					],
					"stateMutability": "view",
					"type": "function"
				},
				{
					"inputs": [],
					"name": "owner",
					"outputs": [
						{
							"internalType": "address",
							"name": "",
							"type": "address"
						}
					],
					"stateMutability": "view",
					"type": "function"
				},
				{
					"inputs": [],
					"name": "renounceOwnership",
					"outputs": [],
					"stateMutability": "nonpayable",
					"type": "function"
				},
				{
					"inputs": [],
					"name": "res",
					"outputs": [
						{
							"internalType": "int128",
							"name": "",
							"type": "int128"
						}
					],
					"stateMutability": "view",
					"type": "function"
				},
				{
					"inputs": [],
					"name": "riskTreasuryAddr",
					"outputs": [
						{
							"internalType": "address",
							"name": "",
							"type": "address"
						}
					],
					"stateMutability": "view",
					"type": "function"
				},
				{
					"inputs": [],
					"name": "scepterTreasuryAddr",
					"outputs": [
						{
							"internalType": "address",
							"name": "",
							"type": "address"
						}
					],
					"stateMutability": "view",
					"type": "function"
				},
				{
					"inputs": [],
					"name": "sellFactor",
					"outputs": [
						{
							"internalType": "uint256",
							"name": "",
							"type": "uint256"
						}
					],
					"stateMutability": "view",
					"type": "function"
				},
				{
					"inputs": [
						{
							"internalType": "uint256",
							"name": "numDays",
							"type": "uint256"
						}
					],
					"name": "setDaysUsedInFactors",
					"outputs": [],
					"stateMutability": "nonpayable",
					"type": "function"
				},
				{
					"inputs": [],
					"name": "sptrTreasuryBal",
					"outputs": [
						{
							"internalType": "uint256",
							"name": "",
							"type": "uint256"
						}
					],
					"stateMutability": "view",
					"type": "function"
				},
				{
					"inputs": [
						{
							"internalType": "string",
							"name": "",
							"type": "string"
						}
					],
					"name": "stableERC20Info",
					"outputs": [
						{
							"internalType": "address",
							"name": "contractAddress",
							"type": "address"
						},
						{
							"internalType": "uint256",
							"name": "tokenDecimals",
							"type": "uint256"
						}
					],
					"stateMutability": "view",
					"type": "function"
				},
				{
					"inputs": [
						{
							"internalType": "uint256",
							"name": "amt",
							"type": "uint256"
						}
					],
					"name": "testUpdatetimeLockedminus",
					"outputs": [],
					"stateMutability": "nonpayable",
					"type": "function"
				},
				{
					"inputs": [
						{
							"internalType": "uint256",
							"name": "amt",
							"type": "uint256"
						}
					],
					"name": "testUpdatetimeLockedplus",
					"outputs": [],
					"stateMutability": "nonpayable",
					"type": "function"
				},
				{
					"inputs": [],
					"name": "testwallet",
					"outputs": [
						{
							"internalType": "address",
							"name": "",
							"type": "address"
						}
					],
					"stateMutability": "view",
					"type": "function"
				},
				{
					"inputs": [],
					"name": "timeLaunched",
					"outputs": [
						{
							"internalType": "uint256",
							"name": "",
							"type": "uint256"
						}
					],
					"stateMutability": "view",
					"type": "function"
				},
				{
					"inputs": [],
					"name": "tokenStable",
					"outputs": [
						{
							"internalType": "contract IERC20",
							"name": "",
							"type": "address"
						}
					],
					"stateMutability": "view",
					"type": "function"
				},
				{
					"inputs": [
						{
							"internalType": "uint256",
							"name": "",
							"type": "uint256"
						}
					],
					"name": "tokensBoughtXDays",
					"outputs": [
						{
							"internalType": "uint256",
							"name": "",
							"type": "uint256"
						}
					],
					"stateMutability": "view",
					"type": "function"
				},
				{
					"inputs": [
						{
							"internalType": "uint256",
							"name": "",
							"type": "uint256"
						}
					],
					"name": "tokensSoldXDays",
					"outputs": [
						{
							"internalType": "uint256",
							"name": "",
							"type": "uint256"
						}
					],
					"stateMutability": "view",
					"type": "function"
				},
				{
					"inputs": [
						{
							"internalType": "address",
							"name": "newOwner",
							"type": "address"
						}
					],
					"name": "transferOwnership",
					"outputs": [],
					"stateMutability": "nonpayable",
					"type": "function"
				},
				{
					"inputs": [
						{
							"internalType": "uint256",
							"name": "amountSCPtoSwap",
							"type": "uint256"
						}
					],
					"name": "transformScepterToBaton",
					"outputs": [],
					"stateMutability": "payable",
					"type": "function"
				},
				{
					"inputs": [],
					"name": "treasury1Addr",
					"outputs": [
						{
							"internalType": "address",
							"name": "",
							"type": "address"
						}
					],
					"stateMutability": "view",
					"type": "function"
				},
				{
					"inputs": [],
					"name": "updateSPTRTreasuryBal",
					"outputs": [],
					"stateMutability": "nonpayable",
					"type": "function"
				},
				{
					"inputs": [
						{
							"internalType": "address",
							"name": "_addr",
							"type": "address"
						}
					],
					"name": "whitelist",
					"outputs": [],
					"stateMutability": "nonpayable",
					"type": "function"
				},
				{
					"inputs": [
						{
							"internalType": "uint256",
							"name": "_amtToWithdraw",
							"type": "uint256"
						}
					],
					"name": "withdrawStables",
					"outputs": [],
					"stateMutability": "nonpayable",
					"type": "function"
				},
				{
					"inputs": [
						{
							"internalType": "address",
							"name": "",
							"type": "address"
						}
					],
					"name": "withheldWithdrawals",
					"outputs": [
						{
							"internalType": "uint256",
							"name": "timeUnlocked",
							"type": "uint256"
						},
						{
							"internalType": "uint256",
							"name": "amounts",
							"type": "uint256"
						}
					],
					"stateMutability": "view",
					"type": "function"
				}
			],
			"devdoc": {
				"kind": "dev",
				"methods": {
					"owner()": {
						"details": "Returns the address of the current owner."
					},
					"renounceOwnership()": {
						"details": "Leaves the contract without owner. It will not be possible to call `onlyOwner` functions anymore. Can only be called by the current owner. NOTE: Renouncing ownership will leave the contract without an owner, thereby removing any functionality that is only available to the owner."
					},
					"transferOwnership(address)": {
						"details": "Transfers ownership of the contract to a new account (`newOwner`). Can only be called by the current owner."
					}
				},
				"version": 1
			},
			"evm": {
				"assembly": "    /* \"WandInstruments.sol\":156:16198  contract testSticks is ReentrancyGuard, Ownable{\r... */\n  mstore(0x40, 0x80)\n    /* \"WandInstruments.sol\":996:1002  100000 */\n  0x0186a0\n    /* \"WandInstruments.sol\":965:1002  uint256 private ft5daybought = 100000 */\n  0x0f\n  sstore\n    /* \"WandInstruments.sol\":1038:1043  90000 */\n  0x015f90\n    /* \"WandInstruments.sol\":1009:1043  uint256 private ft5daysold = 90000 */\n  0x10\n  sstore\n    /* \"WandInstruments.sol\":1085:1091  600000 */\n  0x0927c0\n    /* \"WandInstruments.sol\":1050:1091  uint256 private double5daytokens = 600000 */\n  0x11\n  sstore\n    /* \"WandInstruments.sol\":1212:1254  0x617F2E2fD72FD9D5503197092aC168c91465E7f2 */\n  0x617f2e2fd72fd9d5503197092ac168c91465e7f2\n    /* \"WandInstruments.sol\":1184:1254  address public testwallet = 0x617F2E2fD72FD9D5503197092aC168c91465E7f2 */\n  0x13\n  exp(0x0100, 0x00)\n  dup2\n  sload\n  dup2\n  0xffffffffffffffffffffffffffffffffffffffff\n  mul\n  not\n  and\n  swap1\n  dup4\n  0xffffffffffffffffffffffffffffffffffffffff\n  and\n  mul\n  or\n  swap1\n  sstore\n  pop\n    /* \"WandInstruments.sol\":2383:3630  constructor() {   \r... */\n  callvalue\n  dup1\n  iszero\n  tag_1\n  jumpi\n  0x00\n  dup1\n  revert\ntag_1:\n  pop\n    /* \"ReentrancyGuard.sol\":1734:1735  1 */\n  0x01\n    /* \"ReentrancyGuard.sol\":1845:1852  _status */\n  0x00\n    /* \"ReentrancyGuard.sol\":1845:1867  _status = _NOT_ENTERED */\n  dup2\n  swap1\n  sstore\n  pop\n    /* \"Ownable.sol\":914:946  _transferOwnership(_msgSender()) */\n  tag_7\n    /* \"Ownable.sol\":933:945  _msgSender() */\n  tag_8\n    /* \"Ownable.sol\":933:943  _msgSender */\n  shl(0x20, tag_9)\n    /* \"Ownable.sol\":933:945  _msgSender() */\n  0x20\n  shr\n  jump\t// in\ntag_8:\n    /* \"Ownable.sol\":914:932  _transferOwnership */\n  shl(0x20, tag_10)\n    /* \"Ownable.sol\":914:946  _transferOwnership(_msgSender()) */\n  0x20\n  shr\n  jump\t// in\ntag_7:\n    /* \"WandInstruments.sol\":2480:2522  0x660c3f2A92c9aD7a8e65705Ed2111946ac2d4BB4 */\n  0x660c3f2a92c9ad7a8e65705ed2111946ac2d4bb4\n    /* \"WandInstruments.sol\":2466:2470  SPTR */\n  0x14\n  0x00\n    /* \"WandInstruments.sol\":2466:2523  SPTR = IERC20(0x660c3f2A92c9aD7a8e65705Ed2111946ac2d4BB4) */\n  0x0100\n  exp\n  dup2\n  sload\n  dup2\n  0xffffffffffffffffffffffffffffffffffffffff\n  mul\n  not\n  and\n  swap1\n  dup4\n  0xffffffffffffffffffffffffffffffffffffffff\n  and\n  mul\n  or\n  swap1\n  sstore\n  pop\n    /* \"WandInstruments.sol\":2548:2590  0xF65DbDB9cFA568b2AD52D44312a520C7EaEf8a2d */\n  0xf65dbdb9cfa568b2ad52d44312a520c7eaef8a2d\n    /* \"WandInstruments.sol\":2534:2538  WAND */\n  0x15\n  0x00\n    /* \"WandInstruments.sol\":2534:2591  WAND = IERC20(0xF65DbDB9cFA568b2AD52D44312a520C7EaEf8a2d) */\n  0x0100\n  exp\n  dup2\n  sload\n  dup2\n  0xffffffffffffffffffffffffffffffffffffffff\n  mul\n  not\n  and\n  swap1\n  dup4\n  0xffffffffffffffffffffffffffffffffffffffff\n  and\n  mul\n  or\n  swap1\n  sstore\n  pop\n    /* \"WandInstruments.sol\":2616:2658  0x2557F4c8Ba4BE59eDDAbfd26dF4ECd7F2e678f1d */\n  0x2557f4c8ba4be59eddabfd26df4ecd7f2e678f1d\n    /* \"WandInstruments.sol\":2602:2606  BTON */\n  0x16\n  0x00\n    /* \"WandInstruments.sol\":2602:2659  BTON = IERC20(0x2557F4c8Ba4BE59eDDAbfd26dF4ECd7F2e678f1d) */\n  0x0100\n  exp\n  dup2\n  sload\n  dup2\n  0xffffffffffffffffffffffffffffffffffffffff\n  mul\n  not\n  and\n  swap1\n  dup4\n  0xffffffffffffffffffffffffffffffffffffffff\n  and\n  mul\n  or\n  swap1\n  sstore\n  pop\n    /* \"WandInstruments.sol\":2771:2813  0x85F05208B6C3613f42366dE27BAFBd4df40a8ceb */\n  0x85f05208b6c3613f42366de27bafbd4df40a8ceb\n    /* \"WandInstruments.sol\":2729:2744  stableERC20Info */\n  0x1b\n    /* \"WandInstruments.sol\":2729:2752  stableERC20Info[\"USDC\"] */\n  mload(0x40)\n  tag_12\n  swap1\n  tag_13\n  jump\t// in\ntag_12:\n  swap1\n  dup2\n  mstore\n  0x20\n  add\n  mload(0x40)\n  dup1\n  swap2\n  sub\n  swap1\n  keccak256\n    /* \"WandInstruments.sol\":2729:2768  stableERC20Info[\"USDC\"].contractAddress */\n  0x00\n  add\n  0x00\n    /* \"WandInstruments.sol\":2729:2813  stableERC20Info[\"USDC\"].contractAddress = 0x85F05208B6C3613f42366dE27BAFBd4df40a8ceb */\n  0x0100\n  exp\n  dup2\n  sload\n  dup2\n  0xffffffffffffffffffffffffffffffffffffffff\n  mul\n  not\n  and\n  swap1\n  dup4\n  0xffffffffffffffffffffffffffffffffffffffff\n  and\n  mul\n  or\n  swap1\n  sstore\n  pop\n    /* \"WandInstruments.sol\":2864:2865  6 */\n  0x06\n    /* \"WandInstruments.sol\":2824:2839  stableERC20Info */\n  0x1b\n    /* \"WandInstruments.sol\":2824:2847  stableERC20Info[\"USDC\"] */\n  mload(0x40)\n  tag_14\n  swap1\n  tag_13\n  jump\t// in\ntag_14:\n  swap1\n  dup2\n  mstore\n  0x20\n  add\n  mload(0x40)\n  dup1\n  swap2\n  sub\n  swap1\n  keccak256\n    /* \"WandInstruments.sol\":2824:2861  stableERC20Info[\"USDC\"].tokenDecimals */\n  0x01\n  add\n    /* \"WandInstruments.sol\":2824:2865  stableERC20Info[\"USDC\"].tokenDecimals = 6 */\n  dup2\n  swap1\n  sstore\n  pop\n    /* \"WandInstruments.sol\":2937:2979  0x2A4a8Ab6A0Bc0d377098F8688F77003833BC1C9d */\n  0x2a4a8ab6a0bc0d377098f8688f77003833bc1c9d\n    /* \"WandInstruments.sol\":2896:2911  stableERC20Info */\n  0x1b\n    /* \"WandInstruments.sol\":2896:2918  stableERC20Info[\"DAI\"] */\n  mload(0x40)\n  tag_15\n  swap1\n  tag_16\n  jump\t// in\ntag_15:\n  swap1\n  dup2\n  mstore\n  0x20\n  add\n  mload(0x40)\n  dup1\n  swap2\n  sub\n  swap1\n  keccak256\n    /* \"WandInstruments.sol\":2896:2934  stableERC20Info[\"DAI\"].contractAddress */\n  0x00\n  add\n  0x00\n    /* \"WandInstruments.sol\":2896:2979  stableERC20Info[\"DAI\"].contractAddress = 0x2A4a8Ab6A0Bc0d377098F8688F77003833BC1C9d */\n  0x0100\n  exp\n  dup2\n  sload\n  dup2\n  0xffffffffffffffffffffffffffffffffffffffff\n  mul\n  not\n  and\n  swap1\n  dup4\n  0xffffffffffffffffffffffffffffffffffffffff\n  and\n  mul\n  or\n  swap1\n  sstore\n  pop\n    /* \"WandInstruments.sol\":3029:3031  18 */\n  0x12\n    /* \"WandInstruments.sol\":2990:3005  stableERC20Info */\n  0x1b\n    /* \"WandInstruments.sol\":2990:3012  stableERC20Info[\"DAI\"] */\n  mload(0x40)\n  tag_17\n  swap1\n  tag_16\n  jump\t// in\ntag_17:\n  swap1\n  dup2\n  mstore\n  0x20\n  add\n  mload(0x40)\n  dup1\n  swap2\n  sub\n  swap1\n  keccak256\n    /* \"WandInstruments.sol\":2990:3026  stableERC20Info[\"DAI\"].tokenDecimals */\n  0x01\n  add\n    /* \"WandInstruments.sol\":2990:3031  stableERC20Info[\"DAI\"].tokenDecimals = 18 */\n  dup2\n  swap1\n  sstore\n  pop\n    /* \"WandInstruments.sol\":3105:3147  0xdc301622e621166BD8E82f2cA0A26c13Ad0BE355 */\n  0xdc301622e621166bd8e82f2ca0a26c13ad0be355\n    /* \"WandInstruments.sol\":3063:3078  stableERC20Info */\n  0x1b\n    /* \"WandInstruments.sol\":3063:3086  stableERC20Info[\"FRAX\"] */\n  mload(0x40)\n  tag_18\n  swap1\n  tag_19\n  jump\t// in\ntag_18:\n  swap1\n  dup2\n  mstore\n  0x20\n  add\n  mload(0x40)\n  dup1\n  swap2\n  sub\n  swap1\n  keccak256\n    /* \"WandInstruments.sol\":3063:3102  stableERC20Info[\"FRAX\"].contractAddress */\n  0x00\n  add\n  0x00\n    /* \"WandInstruments.sol\":3063:3147  stableERC20Info[\"FRAX\"].contractAddress = 0xdc301622e621166BD8E82f2cA0A26c13Ad0BE355 */\n  0x0100\n  exp\n  dup2\n  sload\n  dup2\n  0xffffffffffffffffffffffffffffffffffffffff\n  mul\n  not\n  and\n  swap1\n  dup4\n  0xffffffffffffffffffffffffffffffffffffffff\n  and\n  mul\n  or\n  swap1\n  sstore\n  pop\n    /* \"WandInstruments.sol\":3198:3200  18 */\n  0x12\n    /* \"WandInstruments.sol\":3158:3173  stableERC20Info */\n  0x1b\n    /* \"WandInstruments.sol\":3158:3181  stableERC20Info[\"FRAX\"] */\n  mload(0x40)\n  tag_20\n  swap1\n  tag_19\n  jump\t// in\ntag_20:\n  swap1\n  dup2\n  mstore\n  0x20\n  add\n  mload(0x40)\n  dup1\n  swap2\n  sub\n  swap1\n  keccak256\n    /* \"WandInstruments.sol\":3158:3195  stableERC20Info[\"FRAX\"].tokenDecimals */\n  0x01\n  add\n    /* \"WandInstruments.sol\":3158:3200  stableERC20Info[\"FRAX\"].tokenDecimals = 18 */\n  dup2\n  swap1\n  sstore\n  pop\n    /* \"WandInstruments.sol\":3229:3271  0x617F2E2fD72FD9D5503197092aC168c91465E7f2 */\n  0x617f2e2fd72fd9d5503197092ac168c91465e7f2\n    /* \"WandInstruments.sol\":3213:3226  treasury1Addr */\n  0x08\n  0x00\n    /* \"WandInstruments.sol\":3213:3271  treasury1Addr = 0x617F2E2fD72FD9D5503197092aC168c91465E7f2 */\n  0x0100\n  exp\n  dup2\n  sload\n  dup2\n  0xffffffffffffffffffffffffffffffffffffffff\n  mul\n  not\n  and\n  swap1\n  dup4\n  0xffffffffffffffffffffffffffffffffffffffff\n  and\n  mul\n  or\n  swap1\n  sstore\n  pop\n    /* \"WandInstruments.sol\":3470:3485  block.timestamp */\n  timestamp\n    /* \"WandInstruments.sol\":3455:3467  timeLaunched */\n  0x0d\n    /* \"WandInstruments.sol\":3455:3485  timeLaunched = block.timestamp */\n  dup2\n  swap1\n  sstore\n  pop\n    /* \"WandInstruments.sol\":3516:3522  5 days */\n  0x069780\n    /* \"WandInstruments.sol\":3496:3513  daysInCalculation */\n  0x0e\n    /* \"WandInstruments.sol\":3496:3522  daysInCalculation = 5 days */\n  dup2\n  swap1\n  sstore\n  pop\n    /* \"WandInstruments.sol\":156:16198  contract testSticks is ReentrancyGuard, Ownable{\r... */\n  jump(tag_21)\n    /* \"Context.sol\":640:736  function _msgSender() internal view virtual returns (address) {... */\ntag_9:\n    /* \"Context.sol\":693:700  address */\n  0x00\n    /* \"Context.sol\":719:729  msg.sender */\n  caller\n    /* \"Context.sol\":712:729  return msg.sender */\n  swap1\n  pop\n    /* \"Context.sol\":640:736  function _msgSender() internal view virtual returns (address) {... */\n  swap1\n  jump\t// out\n    /* \"Ownable.sol\":2263:2450  function _transferOwnership(address newOwner) internal virtual {... */\ntag_10:\n    /* \"Ownable.sol\":2336:2352  address oldOwner */\n  0x00\n    /* \"Ownable.sol\":2355:2361  _owner */\n  0x01\n  0x00\n  swap1\n  sload\n  swap1\n  0x0100\n  exp\n  swap1\n  div\n  0xffffffffffffffffffffffffffffffffffffffff\n  and\n    /* \"Ownable.sol\":2336:2361  address oldOwner = _owner */\n  swap1\n  pop\n    /* \"Ownable.sol\":2380:2388  newOwner */\n  dup2\n    /* \"Ownable.sol\":2371:2377  _owner */\n  0x01\n  0x00\n    /* \"Ownable.sol\":2371:2388  _owner = newOwner */\n  0x0100\n  exp\n  dup2\n  sload\n  dup2\n  0xffffffffffffffffffffffffffffffffffffffff\n  mul\n  not\n  and\n  swap1\n  dup4\n  0xffffffffffffffffffffffffffffffffffffffff\n  and\n  mul\n  or\n  swap1\n  sstore\n  pop\n    /* \"Ownable.sol\":2434:2442  newOwner */\n  dup2\n    /* \"Ownable.sol\":2403:2443  OwnershipTransferred(oldOwner, newOwner) */\n  0xffffffffffffffffffffffffffffffffffffffff\n  and\n    /* \"Ownable.sol\":2424:2432  oldOwner */\n  dup2\n    /* \"Ownable.sol\":2403:2443  OwnershipTransferred(oldOwner, newOwner) */\n  0xffffffffffffffffffffffffffffffffffffffff\n  and\n  0x8be0079c531659141344cd1fd0a4f28419497f9722a3daafe3b4186f6b6457e0\n  mload(0x40)\n  mload(0x40)\n  dup1\n  swap2\n  sub\n  swap1\n  log3\n    /* \"Ownable.sol\":2326:2450  {... */\n  pop\n    /* \"Ownable.sol\":2263:2450  function _transferOwnership(address newOwner) internal virtual {... */\n  pop\n  jump\t// out\n    /* \"#utility.yul\":7:407   */\ntag_25:\n    /* \"#utility.yul\":167:170   */\n  0x00\n    /* \"#utility.yul\":188:272   */\n  tag_27\n    /* \"#utility.yul\":270:271   */\n  0x04\n    /* \"#utility.yul\":265:268   */\n  dup4\n    /* \"#utility.yul\":188:272   */\n  tag_28\n  jump\t// in\ntag_27:\n    /* \"#utility.yul\":181:272   */\n  swap2\n  pop\n    /* \"#utility.yul\":281:374   */\n  tag_29\n    /* \"#utility.yul\":370:373   */\n  dup3\n    /* \"#utility.yul\":281:374   */\n  tag_30\n  jump\t// in\ntag_29:\n    /* \"#utility.yul\":399:400   */\n  0x04\n    /* \"#utility.yul\":394:397   */\n  dup3\n    /* \"#utility.yul\":390:401   */\n  add\n    /* \"#utility.yul\":383:401   */\n  swap1\n  pop\n    /* \"#utility.yul\":7:407   */\n  swap2\n  swap1\n  pop\n  jump\t// out\n    /* \"#utility.yul\":413:813   */\ntag_31:\n    /* \"#utility.yul\":573:576   */\n  0x00\n    /* \"#utility.yul\":594:678   */\n  tag_33\n    /* \"#utility.yul\":676:677   */\n  0x03\n    /* \"#utility.yul\":671:674   */\n  dup4\n    /* \"#utility.yul\":594:678   */\n  tag_28\n  jump\t// in\ntag_33:\n    /* \"#utility.yul\":587:678   */\n  swap2\n  pop\n    /* \"#utility.yul\":687:780   */\n  tag_34\n    /* \"#utility.yul\":776:779   */\n  dup3\n    /* \"#utility.yul\":687:780   */\n  tag_35\n  jump\t// in\ntag_34:\n    /* \"#utility.yul\":805:806   */\n  0x03\n    /* \"#utility.yul\":800:803   */\n  dup3\n    /* \"#utility.yul\":796:807   */\n  add\n    /* \"#utility.yul\":789:807   */\n  swap1\n  pop\n    /* \"#utility.yul\":413:813   */\n  swap2\n  swap1\n  pop\n  jump\t// out\n    /* \"#utility.yul\":819:1219   */\ntag_36:\n    /* \"#utility.yul\":979:982   */\n  0x00\n    /* \"#utility.yul\":1000:1084   */\n  tag_38\n    /* \"#utility.yul\":1082:1083   */\n  0x04\n    /* \"#utility.yul\":1077:1080   */\n  dup4\n    /* \"#utility.yul\":1000:1084   */\n  tag_28\n  jump\t// in\ntag_38:\n    /* \"#utility.yul\":993:1084   */\n  swap2\n  pop\n    /* \"#utility.yul\":1093:1186   */\n  tag_39\n    /* \"#utility.yul\":1182:1185   */\n  dup3\n    /* \"#utility.yul\":1093:1186   */\n  tag_40\n  jump\t// in\ntag_39:\n    /* \"#utility.yul\":1211:1212   */\n  0x04\n    /* \"#utility.yul\":1206:1209   */\n  dup3\n    /* \"#utility.yul\":1202:1213   */\n  add\n    /* \"#utility.yul\":1195:1213   */\n  swap1\n  pop\n    /* \"#utility.yul\":819:1219   */\n  swap2\n  swap1\n  pop\n  jump\t// out\n    /* \"#utility.yul\":1225:1606   */\ntag_19:\n    /* \"#utility.yul\":1410:1413   */\n  0x00\n    /* \"#utility.yul\":1432:1580   */\n  tag_42\n    /* \"#utility.yul\":1576:1579   */\n  dup3\n    /* \"#utility.yul\":1432:1580   */\n  tag_25\n  jump\t// in\ntag_42:\n    /* \"#utility.yul\":1425:1580   */\n  swap2\n  pop\n    /* \"#utility.yul\":1597:1600   */\n  dup2\n    /* \"#utility.yul\":1590:1600   */\n  swap1\n  pop\n    /* \"#utility.yul\":1225:1606   */\n  swap2\n  swap1\n  pop\n  jump\t// out\n    /* \"#utility.yul\":1612:1993   */\ntag_16:\n    /* \"#utility.yul\":1797:1800   */\n  0x00\n    /* \"#utility.yul\":1819:1967   */\n  tag_44\n    /* \"#utility.yul\":1963:1966   */\n  dup3\n    /* \"#utility.yul\":1819:1967   */\n  tag_31\n  jump\t// in\ntag_44:\n    /* \"#utility.yul\":1812:1967   */\n  swap2\n  pop\n    /* \"#utility.yul\":1984:1987   */\n  dup2\n    /* \"#utility.yul\":1977:1987   */\n  swap1\n  pop\n    /* \"#utility.yul\":1612:1993   */\n  swap2\n  swap1\n  pop\n  jump\t// out\n    /* \"#utility.yul\":1999:2380   */\ntag_13:\n    /* \"#utility.yul\":2184:2187   */\n  0x00\n    /* \"#utility.yul\":2206:2354   */\n  tag_46\n    /* \"#utility.yul\":2350:2353   */\n  dup3\n    /* \"#utility.yul\":2206:2354   */\n  tag_36\n  jump\t// in\ntag_46:\n    /* \"#utility.yul\":2199:2354   */\n  swap2\n  pop\n    /* \"#utility.yul\":2371:2374   */\n  dup2\n    /* \"#utility.yul\":2364:2374   */\n  swap1\n  pop\n    /* \"#utility.yul\":1999:2380   */\n  swap2\n  swap1\n  pop\n  jump\t// out\n    /* \"#utility.yul\":2386:2534   */\ntag_28:\n    /* \"#utility.yul\":2488:2499   */\n  0x00\n    /* \"#utility.yul\":2525:2528   */\n  dup2\n    /* \"#utility.yul\":2510:2528   */\n  swap1\n  pop\n    /* \"#utility.yul\":2386:2534   */\n  swap3\n  swap2\n  pop\n  pop\n  jump\t// out\n    /* \"#utility.yul\":2540:2694   */\ntag_30:\n    /* \"#utility.yul\":2680:2686   */\n  0x4652415800000000000000000000000000000000000000000000000000000000\n    /* \"#utility.yul\":2676:2677   */\n  0x00\n    /* \"#utility.yul\":2668:2674   */\n  dup3\n    /* \"#utility.yul\":2664:2678   */\n  add\n    /* \"#utility.yul\":2657:2687   */\n  mstore\n    /* \"#utility.yul\":2540:2694   */\n  pop\n  jump\t// out\n    /* \"#utility.yul\":2700:2853   */\ntag_35:\n    /* \"#utility.yul\":2840:2845   */\n  0x4441490000000000000000000000000000000000000000000000000000000000\n    /* \"#utility.yul\":2836:2837   */\n  0x00\n    /* \"#utility.yul\":2828:2834   */\n  dup3\n    /* \"#utility.yul\":2824:2838   */\n  add\n    /* \"#utility.yul\":2817:2846   */\n  mstore\n    /* \"#utility.yul\":2700:2853   */\n  pop\n  jump\t// out\n    /* \"#utility.yul\":2859:3013   */\ntag_40:\n    /* \"#utility.yul\":2999:3005   */\n  0x5553444300000000000000000000000000000000000000000000000000000000\n    /* \"#utility.yul\":2995:2996   */\n  0x00\n    /* \"#utility.yul\":2987:2993   */\n  dup3\n    /* \"#utility.yul\":2983:2997   */\n  add\n    /* \"#utility.yul\":2976:3006   */\n  mstore\n    /* \"#utility.yul\":2859:3013   */\n  pop\n  jump\t// out\n    /* \"WandInstruments.sol\":156:16198  contract testSticks is ReentrancyGuard, Ownable{\r... */\ntag_21:\n  dataSize(sub_0)\n  dup1\n  dataOffset(sub_0)\n  0x00\n  codecopy\n  0x00\n  return\nstop\n\nsub_0: assembly {\n        /* \"WandInstruments.sol\":156:16198  contract testSticks is ReentrancyGuard, Ownable{\r... */\n      mstore(0x40, 0x80)\n      jumpi(tag_1, lt(calldatasize, 0x04))\n      shr(0xe0, calldataload(0x00))\n      dup1\n      0x7087a7a5\n      gt\n      tag_45\n      jumpi\n      dup1\n      0xc0ca6fb4\n      gt\n      tag_46\n      jumpi\n      dup1\n      0xe5d98082\n      gt\n      tag_47\n      jumpi\n      dup1\n      0xe5d98082\n      eq\n      tag_39\n      jumpi\n      dup1\n      0xee620868\n      eq\n      tag_40\n      jumpi\n      dup1\n      0xeee05f5e\n      eq\n      tag_41\n      jumpi\n      dup1\n      0xf2fde38b\n      eq\n      tag_42\n      jumpi\n      dup1\n      0xfbbb4589\n      eq\n      tag_43\n      jumpi\n      dup1\n      0xfc361443\n      eq\n      tag_44\n      jumpi\n      jump(tag_1)\n    tag_47:\n      dup1\n      0xc0ca6fb4\n      eq\n      tag_34\n      jumpi\n      dup1\n      0xc0ce5889\n      eq\n      tag_35\n      jumpi\n      dup1\n      0xcbff4617\n      eq\n      tag_36\n      jumpi\n      dup1\n      0xd04d7908\n      eq\n      tag_37\n      jumpi\n      dup1\n      0xd82eddf2\n      eq\n      tag_38\n      jumpi\n      jump(tag_1)\n    tag_46:\n      dup1\n      0x93f7b711\n      gt\n      tag_48\n      jumpi\n      dup1\n      0x93f7b711\n      eq\n      tag_28\n      jumpi\n      dup1\n      0x9b19251a\n      eq\n      tag_29\n      jumpi\n      dup1\n      0xa475bf48\n      eq\n      tag_30\n      jumpi\n      dup1\n      0xbcb3de54\n      eq\n      tag_31\n      jumpi\n      dup1\n      0xbdad7f02\n      eq\n      tag_32\n      jumpi\n      dup1\n      0xc079d7f6\n      eq\n      tag_33\n      jumpi\n      jump(tag_1)\n    tag_48:\n      dup1\n      0x7087a7a5\n      eq\n      tag_23\n      jumpi\n      dup1\n      0x715018a6\n      eq\n      tag_24\n      jumpi\n      dup1\n      0x71cd58f9\n      eq\n      tag_25\n      jumpi\n      dup1\n      0x862d1b35\n      eq\n      tag_26\n      jumpi\n      dup1\n      0x8da5cb5b\n      eq\n      tag_27\n      jumpi\n      jump(tag_1)\n    tag_45:\n      dup1\n      0x1f564a06\n      gt\n      tag_49\n      jumpi\n      dup1\n      0x3c6eb17a\n      gt\n      tag_50\n      jumpi\n      dup1\n      0x3c6eb17a\n      eq\n      tag_17\n      jumpi\n      dup1\n      0x43d32e9c\n      eq\n      tag_18\n      jumpi\n      dup1\n      0x66763319\n      eq\n      tag_19\n      jumpi\n      dup1\n      0x67b48c91\n      eq\n      tag_20\n      jumpi\n      dup1\n      0x67e927a8\n      eq\n      tag_21\n      jumpi\n      dup1\n      0x6f10e285\n      eq\n      tag_22\n      jumpi\n      jump(tag_1)\n    tag_50:\n      dup1\n      0x1f564a06\n      eq\n      tag_12\n      jumpi\n      dup1\n      0x26ae486e\n      eq\n      tag_13\n      jumpi\n      dup1\n      0x29982a32\n      eq\n      tag_14\n      jumpi\n      dup1\n      0x2a9f0fb1\n      eq\n      tag_15\n      jumpi\n      dup1\n      0x39ad95d6\n      eq\n      tag_16\n      jumpi\n      jump(tag_1)\n    tag_49:\n      dup1\n      0x12b2ed94\n      gt\n      tag_51\n      jumpi\n      dup1\n      0x12b2ed94\n      eq\n      tag_7\n      jumpi\n      dup1\n      0x1514c976\n      eq\n      tag_8\n      jumpi\n      dup1\n      0x164c8501\n      eq\n      tag_9\n      jumpi\n      dup1\n      0x1a30e872\n      eq\n      tag_10\n      jumpi\n      dup1\n      0x1bc9cc45\n      eq\n      tag_11\n      jumpi\n      jump(tag_1)\n    tag_51:\n      dup1\n      0x018a25e8\n      eq\n      tag_2\n      jumpi\n      dup1\n      0x02ac8168\n      eq\n      tag_3\n      jumpi\n      dup1\n      0x047729b0\n      eq\n      tag_4\n      jumpi\n      dup1\n      0x0ccaf04f\n      eq\n      tag_5\n      jumpi\n      dup1\n      0x0f65de3e\n      eq\n      tag_6\n      jumpi\n    tag_1:\n      0x00\n      dup1\n      revert\n        /* \"WandInstruments.sol\":11529:11803  function getBuyPrice() external view returns (uint256){\r... */\n    tag_2:\n      callvalue\n      dup1\n      iszero\n      tag_52\n      jumpi\n      0x00\n      dup1\n      revert\n    tag_52:\n      pop\n      tag_53\n      tag_54\n      jump\t// in\n    tag_53:\n      mload(0x40)\n      tag_55\n      swap2\n      swap1\n      tag_56\n      jump\t// in\n    tag_55:\n      mload(0x40)\n      dup1\n      swap2\n      sub\n      swap1\n      return\n        /* \"WandInstruments.sol\":12352:12970  function Launch() public onlyOwner{\r... */\n    tag_3:\n      callvalue\n      dup1\n      iszero\n      tag_57\n      jumpi\n      0x00\n      dup1\n      revert\n    tag_57:\n      pop\n      tag_58\n      tag_59\n      jump\t// in\n    tag_58:\n      stop\n        /* \"WandInstruments.sol\":709:740  address public riskTreasuryAddr */\n    tag_4:\n      callvalue\n      dup1\n      iszero\n      tag_60\n      jumpi\n      0x00\n      dup1\n      revert\n    tag_60:\n      pop\n      tag_61\n      tag_62\n      jump\t// in\n    tag_61:\n      mload(0x40)\n      tag_63\n      swap2\n      swap1\n      tag_64\n      jump\t// in\n    tag_63:\n      mload(0x40)\n      dup1\n      swap2\n      sub\n      swap1\n      return\n        /* \"WandInstruments.sol\":10402:11297  function getSellFactor() external view returns (uint256){\r... */\n    tag_5:\n      callvalue\n      dup1\n      iszero\n      tag_65\n      jumpi\n      0x00\n      dup1\n      revert\n    tag_65:\n      pop\n      tag_66\n      tag_67\n      jump\t// in\n    tag_66:\n      mload(0x40)\n      tag_68\n      swap2\n      swap1\n      tag_56\n      jump\t// in\n    tag_68:\n      mload(0x40)\n      dup1\n      swap2\n      sub\n      swap1\n      return\n        /* \"WandInstruments.sol\":15160:15595  function getCircSupplyXDays() external view returns (uint256){\r... */\n    tag_6:\n      callvalue\n      dup1\n      iszero\n      tag_69\n      jumpi\n      0x00\n      dup1\n      revert\n    tag_69:\n      pop\n      tag_70\n      tag_71\n      jump\t// in\n    tag_70:\n      mload(0x40)\n      tag_72\n      swap2\n      swap1\n      tag_56\n      jump\t// in\n    tag_72:\n      mload(0x40)\n      dup1\n      swap2\n      sub\n      swap1\n      return\n        /* \"WandInstruments.sol\":2066:2126  mapping(address => lockedamounts) public withheldWithdrawals */\n    tag_7:\n      callvalue\n      dup1\n      iszero\n      tag_73\n      jumpi\n      0x00\n      dup1\n      revert\n    tag_73:\n      pop\n      tag_74\n      0x04\n      dup1\n      calldatasize\n      sub\n      dup2\n      add\n      swap1\n      tag_75\n      swap2\n      swap1\n      tag_76\n      jump\t// in\n    tag_75:\n      tag_77\n      jump\t// in\n    tag_74:\n      mload(0x40)\n      tag_78\n      swap3\n      swap2\n      swap1\n      tag_79\n      jump\t// in\n    tag_78:\n      mload(0x40)\n      dup1\n      swap2\n      sub\n      swap1\n      return\n        /* \"WandInstruments.sol\":1649:1699  mapping(uint256 => uint256) public tokensSoldXDays */\n    tag_8:\n      callvalue\n      dup1\n      iszero\n      tag_80\n      jumpi\n      0x00\n      dup1\n      revert\n    tag_80:\n      pop\n      tag_81\n      0x04\n      dup1\n      calldatasize\n      sub\n      dup2\n      add\n      swap1\n      tag_82\n      swap2\n      swap1\n      tag_83\n      jump\t// in\n    tag_82:\n      tag_84\n      jump\t// in\n    tag_81:\n      mload(0x40)\n      tag_85\n      swap2\n      swap1\n      tag_56\n      jump\t// in\n    tag_85:\n      mload(0x40)\n      dup1\n      swap2\n      sub\n      swap1\n      return\n        /* \"WandInstruments.sol\":13718:14220  function testUpdatetimeLockedminus(uint256 amt) public  {\r... */\n    tag_9:\n      callvalue\n      dup1\n      iszero\n      tag_86\n      jumpi\n      0x00\n      dup1\n      revert\n    tag_86:\n      pop\n      tag_87\n      0x04\n      dup1\n      calldatasize\n      sub\n      dup2\n      add\n      swap1\n      tag_88\n      swap2\n      swap1\n      tag_83\n      jump\t// in\n    tag_88:\n      tag_89\n      jump\t// in\n    tag_87:\n      stop\n        /* \"WandInstruments.sol\":1706:1763  mapping(uint256 => uint256) public circulatingSupplyXDays */\n    tag_10:\n      callvalue\n      dup1\n      iszero\n      tag_90\n      jumpi\n      0x00\n      dup1\n      revert\n    tag_90:\n      pop\n      tag_91\n      0x04\n      dup1\n      calldatasize\n      sub\n      dup2\n      add\n      swap1\n      tag_92\n      swap2\n      swap1\n      tag_83\n      jump\t// in\n    tag_92:\n      tag_93\n      jump\t// in\n    tag_91:\n      mload(0x40)\n      tag_94\n      swap2\n      swap1\n      tag_56\n      jump\t// in\n    tag_94:\n      mload(0x40)\n      dup1\n      swap2\n      sub\n      swap1\n      return\n        /* \"WandInstruments.sol\":6936:7683  function transformScepterToBaton(uint256 amountSCPtoSwap) public payable{\r... */\n    tag_11:\n      tag_95\n      0x04\n      dup1\n      calldatasize\n      sub\n      dup2\n      add\n      swap1\n      tag_96\n      swap2\n      swap1\n      tag_83\n      jump\t// in\n    tag_96:\n      tag_97\n      jump\t// in\n    tag_95:\n      stop\n        /* \"WandInstruments.sol\":11303:11523  function getBackingPrice() external view returns (uint256){\r... */\n    tag_12:\n      callvalue\n      dup1\n      iszero\n      tag_98\n      jumpi\n      0x00\n      dup1\n      revert\n    tag_98:\n      pop\n      tag_99\n      tag_100\n      jump\t// in\n    tag_99:\n      mload(0x40)\n      tag_101\n      swap2\n      swap1\n      tag_56\n      jump\t// in\n    tag_101:\n      mload(0x40)\n      dup1\n      swap2\n      sub\n      swap1\n      return\n        /* \"WandInstruments.sol\":1430:1448  IERC20 public SPTR */\n    tag_13:\n      callvalue\n      dup1\n      iszero\n      tag_102\n      jumpi\n      0x00\n      dup1\n      revert\n    tag_102:\n      pop\n      tag_103\n      tag_104\n      jump\t// in\n    tag_103:\n      mload(0x40)\n      tag_105\n      swap2\n      swap1\n      tag_106\n      jump\t// in\n    tag_105:\n      mload(0x40)\n      dup1\n      swap2\n      sub\n      swap1\n      return\n        /* \"WandInstruments.sol\":747:775  address public devWalletAddr */\n    tag_14:\n      callvalue\n      dup1\n      iszero\n      tag_107\n      jumpi\n      0x00\n      dup1\n      revert\n    tag_107:\n      pop\n      tag_108\n      tag_109\n      jump\t// in\n    tag_108:\n      mload(0x40)\n      tag_110\n      swap2\n      swap1\n      tag_64\n      jump\t// in\n    tag_110:\n      mload(0x40)\n      dup1\n      swap2\n      sub\n      swap1\n      return\n        /* \"WandInstruments.sol\":1590:1642  mapping(uint256 => uint256) public tokensBoughtXDays */\n    tag_15:\n      callvalue\n      dup1\n      iszero\n      tag_111\n      jumpi\n      0x00\n      dup1\n      revert\n    tag_111:\n      pop\n      tag_112\n      0x04\n      dup1\n      calldatasize\n      sub\n      dup2\n      add\n      swap1\n      tag_113\n      swap2\n      swap1\n      tag_83\n      jump\t// in\n    tag_113:\n      tag_114\n      jump\t// in\n    tag_112:\n      mload(0x40)\n      tag_115\n      swap2\n      swap1\n      tag_56\n      jump\t// in\n    tag_115:\n      mload(0x40)\n      dup1\n      swap2\n      sub\n      swap1\n      return\n        /* \"WandInstruments.sol\":13150:13226  function withdrawStables(uint256 _amtToWithdraw) public onlyOwner {\r... */\n    tag_16:\n      callvalue\n      dup1\n      iszero\n      tag_116\n      jumpi\n      0x00\n      dup1\n      revert\n    tag_116:\n      pop\n      tag_117\n      0x04\n      dup1\n      calldatasize\n      sub\n      dup2\n      add\n      swap1\n      tag_118\n      swap2\n      swap1\n      tag_83\n      jump\t// in\n    tag_118:\n      tag_119\n      jump\t// in\n    tag_117:\n      stop\n        /* \"WandInstruments.sol\":875:902  uint256 public timeLaunched */\n    tag_17:\n      callvalue\n      dup1\n      iszero\n      tag_120\n      jumpi\n      0x00\n      dup1\n      revert\n    tag_120:\n      pop\n      tag_121\n      tag_122\n      jump\t// in\n    tag_121:\n      mload(0x40)\n      tag_123\n      swap2\n      swap1\n      tag_56\n      jump\t// in\n    tag_123:\n      mload(0x40)\n      dup1\n      swap2\n      sub\n      swap1\n      return\n        /* \"WandInstruments.sol\":11809:12082  function getSellPrice() external view returns (uint256){\r... */\n    tag_18:\n      callvalue\n      dup1\n      iszero\n      tag_124\n      jumpi\n      0x00\n      dup1\n      revert\n    tag_124:\n      pop\n      tag_125\n      tag_126\n      jump\t// in\n    tag_125:\n      mload(0x40)\n      tag_127\n      swap2\n      swap1\n      tag_56\n      jump\t// in\n    tag_127:\n      mload(0x40)\n      dup1\n      swap2\n      sub\n      swap1\n      return\n        /* \"WandInstruments.sol\":816:846  uint256 public sptrTreasuryBal */\n    tag_19:\n      callvalue\n      dup1\n      iszero\n      tag_128\n      jumpi\n      0x00\n      dup1\n      revert\n    tag_128:\n      pop\n      tag_129\n      tag_130\n      jump\t// in\n    tag_129:\n      mload(0x40)\n      tag_131\n      swap2\n      swap1\n      tag_56\n      jump\t// in\n    tag_131:\n      mload(0x40)\n      dup1\n      swap2\n      sub\n      swap1\n      return\n        /* \"WandInstruments.sol\":909:941  uint256 public daysInCalculation */\n    tag_20:\n      callvalue\n      dup1\n      iszero\n      tag_132\n      jumpi\n      0x00\n      dup1\n      revert\n    tag_132:\n      pop\n      tag_133\n      tag_134\n      jump\t// in\n    tag_133:\n      mload(0x40)\n      tag_135\n      swap2\n      swap1\n      tag_56\n      jump\t// in\n    tag_135:\n      mload(0x40)\n      dup1\n      swap2\n      sub\n      swap1\n      return\n        /* \"WandInstruments.sol\":13234:13706  function testUpdatetimeLockedplus(uint256 amt) public  {\r... */\n    tag_21:\n      callvalue\n      dup1\n      iszero\n      tag_136\n      jumpi\n      0x00\n      dup1\n      revert\n    tag_136:\n      pop\n      tag_137\n      0x04\n      dup1\n      calldatasize\n      sub\n      dup2\n      add\n      swap1\n      tag_138\n      swap2\n      swap1\n      tag_83\n      jump\t// in\n    tag_138:\n      tag_139\n      jump\t// in\n    tag_137:\n      stop\n        /* \"WandInstruments.sol\":1160:1177  int128 public res */\n    tag_22:\n      callvalue\n      dup1\n      iszero\n      tag_140\n      jumpi\n      0x00\n      dup1\n      revert\n    tag_140:\n      pop\n      tag_141\n      tag_142\n      jump\t// in\n    tag_141:\n      mload(0x40)\n      tag_143\n      swap2\n      swap1\n      tag_144\n      jump\t// in\n    tag_143:\n      mload(0x40)\n      dup1\n      swap2\n      sub\n      swap1\n      return\n        /* \"WandInstruments.sol\":1507:1532  IERC20 public tokenStable */\n    tag_23:\n      callvalue\n      dup1\n      iszero\n      tag_145\n      jumpi\n      0x00\n      dup1\n      revert\n    tag_145:\n      pop\n      tag_146\n      tag_147\n      jump\t// in\n    tag_146:\n      mload(0x40)\n      tag_148\n      swap2\n      swap1\n      tag_106\n      jump\t// in\n    tag_148:\n      mload(0x40)\n      dup1\n      swap2\n      sub\n      swap1\n      return\n        /* \"Ownable.sol\":1661:1762  function renounceOwnership() public virtual onlyOwner {... */\n    tag_24:\n      callvalue\n      dup1\n      iszero\n      tag_149\n      jumpi\n      0x00\n      dup1\n      revert\n    tag_149:\n      pop\n      tag_150\n      tag_151\n      jump\t// in\n    tag_150:\n      stop\n        /* \"WandInstruments.sol\":14334:14862  function getTokensBoughtXDays() external view returns (uint256){\r... */\n    tag_25:\n      callvalue\n      dup1\n      iszero\n      tag_152\n      jumpi\n      0x00\n      dup1\n      revert\n    tag_152:\n      pop\n      tag_153\n      tag_154\n      jump\t// in\n    tag_153:\n      mload(0x40)\n      tag_155\n      swap2\n      swap1\n      tag_56\n      jump\t// in\n    tag_155:\n      mload(0x40)\n      dup1\n      swap2\n      sub\n      swap1\n      return\n        /* \"WandInstruments.sol\":7698:8945  function buyScepter(uint256 amountSCPtoBuy, string memory _stableChosen) public nonReentrant{\r... */\n    tag_26:\n      callvalue\n      dup1\n      iszero\n      tag_156\n      jumpi\n      0x00\n      dup1\n      revert\n    tag_156:\n      pop\n      tag_157\n      0x04\n      dup1\n      calldatasize\n      sub\n      dup2\n      add\n      swap1\n      tag_158\n      swap2\n      swap1\n      tag_159\n      jump\t// in\n    tag_158:\n      tag_160\n      jump\t// in\n    tag_157:\n      stop\n        /* \"Ownable.sol\":1029:1114  function owner() public view virtual returns (address) {... */\n    tag_27:\n      callvalue\n      dup1\n      iszero\n      tag_161\n      jumpi\n      0x00\n      dup1\n      revert\n    tag_161:\n      pop\n      tag_162\n      tag_163\n      jump\t// in\n    tag_162:\n      mload(0x40)\n      tag_164\n      swap2\n      swap1\n      tag_64\n      jump\t// in\n    tag_164:\n      mload(0x40)\n      dup1\n      swap2\n      sub\n      swap1\n      return\n        /* \"WandInstruments.sol\":9493:10396  function getGrowthFactor() external view returns (uint256){\r... */\n    tag_28:\n      callvalue\n      dup1\n      iszero\n      tag_165\n      jumpi\n      0x00\n      dup1\n      revert\n    tag_165:\n      pop\n      tag_166\n      tag_167\n      jump\t// in\n    tag_166:\n      mload(0x40)\n      tag_168\n      swap2\n      swap1\n      tag_56\n      jump\t// in\n    tag_168:\n      mload(0x40)\n      dup1\n      swap2\n      sub\n      swap1\n      return\n        /* \"WandInstruments.sol\":15603:15692  function whitelist(address _addr) public onlyOwner {  \r... */\n    tag_29:\n      callvalue\n      dup1\n      iszero\n      tag_169\n      jumpi\n      0x00\n      dup1\n      revert\n    tag_169:\n      pop\n      tag_170\n      0x04\n      dup1\n      calldatasize\n      sub\n      dup2\n      add\n      swap1\n      tag_171\n      swap2\n      swap1\n      tag_76\n      jump\t// in\n    tag_171:\n      tag_172\n      jump\t// in\n    tag_170:\n      stop\n        /* \"WandInstruments.sol\":1894:1955  mapping (string => stableTokensParams) public stableERC20Info */\n    tag_30:\n      callvalue\n      dup1\n      iszero\n      tag_173\n      jumpi\n      0x00\n      dup1\n      revert\n    tag_173:\n      pop\n      tag_174\n      0x04\n      dup1\n      calldatasize\n      sub\n      dup2\n      add\n      swap1\n      tag_175\n      swap2\n      swap1\n      tag_176\n      jump\t// in\n    tag_175:\n      tag_177\n      jump\t// in\n    tag_174:\n      mload(0x40)\n      tag_178\n      swap3\n      swap2\n      swap1\n      tag_179\n      jump\t// in\n    tag_178:\n      mload(0x40)\n      dup1\n      swap2\n      sub\n      swap1\n      return\n        /* \"WandInstruments.sol\":12090:12310  function updateSPTRTreasuryBal() external {\r... */\n    tag_31:\n      callvalue\n      dup1\n      iszero\n      tag_180\n      jumpi\n      0x00\n      dup1\n      revert\n    tag_180:\n      pop\n      tag_181\n      tag_182\n      jump\t// in\n    tag_181:\n      stop\n        /* \"WandInstruments.sol\":8953:9460  function claimLockedUSDC(address _claimant, string memory _stableChosen) public {\r... */\n    tag_32:\n      callvalue\n      dup1\n      iszero\n      tag_183\n      jumpi\n      0x00\n      dup1\n      revert\n    tag_183:\n      pop\n      tag_184\n      0x04\n      dup1\n      calldatasize\n      sub\n      dup2\n      add\n      swap1\n      tag_185\n      swap2\n      swap1\n      tag_186\n      jump\t// in\n    tag_185:\n      tag_187\n      jump\t// in\n    tag_184:\n      stop\n        /* \"WandInstruments.sol\":668:702  address public scepterTreasuryAddr */\n    tag_33:\n      callvalue\n      dup1\n      iszero\n      tag_188\n      jumpi\n      0x00\n      dup1\n      revert\n    tag_188:\n      pop\n      tag_189\n      tag_190\n      jump\t// in\n    tag_189:\n      mload(0x40)\n      tag_191\n      swap2\n      swap1\n      tag_64\n      jump\t// in\n    tag_191:\n      mload(0x40)\n      dup1\n      swap2\n      sub\n      swap1\n      return\n        /* \"WandInstruments.sol\":1480:1498  IERC20 public BTON */\n    tag_34:\n      callvalue\n      dup1\n      iszero\n      tag_192\n      jumpi\n      0x00\n      dup1\n      revert\n    tag_192:\n      pop\n      tag_193\n      tag_194\n      jump\t// in\n    tag_193:\n      mload(0x40)\n      tag_195\n      swap2\n      swap1\n      tag_106\n      jump\t// in\n    tag_195:\n      mload(0x40)\n      dup1\n      swap2\n      sub\n      swap1\n      return\n        /* \"WandInstruments.sol\":5202:6928  function cashOutScepter(uint256 amountSCPtoSell, uint256 timeChosenLocked, string memory _stableChosen) public payable{\r... */\n    tag_35:\n      tag_196\n      0x04\n      dup1\n      calldatasize\n      sub\n      dup2\n      add\n      swap1\n      tag_197\n      swap2\n      swap1\n      tag_198\n      jump\t// in\n    tag_197:\n      tag_199\n      jump\t// in\n    tag_196:\n      stop\n        /* \"WandInstruments.sol\":419:444  uint256 public sellFactor */\n    tag_36:\n      callvalue\n      dup1\n      iszero\n      tag_200\n      jumpi\n      0x00\n      dup1\n      revert\n    tag_200:\n      pop\n      tag_201\n      tag_202\n      jump\t// in\n    tag_201:\n      mload(0x40)\n      tag_203\n      swap2\n      swap1\n      tag_56\n      jump\t// in\n    tag_203:\n      mload(0x40)\n      dup1\n      swap2\n      sub\n      swap1\n      return\n        /* \"WandInstruments.sol\":1455:1473  IERC20 public WAND */\n    tag_37:\n      callvalue\n      dup1\n      iszero\n      tag_204\n      jumpi\n      0x00\n      dup1\n      revert\n    tag_204:\n      pop\n      tag_205\n      tag_206\n      jump\t// in\n    tag_205:\n      mload(0x40)\n      tag_207\n      swap2\n      swap1\n      tag_106\n      jump\t// in\n    tag_207:\n      mload(0x40)\n      dup1\n      swap2\n      sub\n      swap1\n      return\n        /* \"WandInstruments.sol\":14868:15154  function getTokensSoldXDays() external view returns (uint256){\r... */\n    tag_38:\n      callvalue\n      dup1\n      iszero\n      tag_208\n      jumpi\n      0x00\n      dup1\n      revert\n    tag_208:\n      pop\n      tag_209\n      tag_210\n      jump\t// in\n    tag_209:\n      mload(0x40)\n      tag_211\n      swap2\n      swap1\n      tag_56\n      jump\t// in\n    tag_211:\n      mload(0x40)\n      dup1\n      swap2\n      sub\n      swap1\n      return\n        /* \"WandInstruments.sol\":15700:15919  function addStable(string memory _ticker, address _addr, uint256 _dec) public onlyOwner {\r... */\n    tag_39:\n      callvalue\n      dup1\n      iszero\n      tag_212\n      jumpi\n      0x00\n      dup1\n      revert\n    tag_212:\n      pop\n      tag_213\n      0x04\n      dup1\n      calldatasize\n      sub\n      dup2\n      add\n      swap1\n      tag_214\n      swap2\n      swap1\n      tag_215\n      jump\t// in\n    tag_214:\n      tag_216\n      jump\t// in\n    tag_213:\n      stop\n        /* \"WandInstruments.sol\":385:412  uint256 public growthFactor */\n    tag_40:\n      callvalue\n      dup1\n      iszero\n      tag_217\n      jumpi\n      0x00\n      dup1\n      revert\n    tag_217:\n      pop\n      tag_218\n      tag_219\n      jump\t// in\n    tag_218:\n      mload(0x40)\n      tag_220\n      swap2\n      swap1\n      tag_56\n      jump\t// in\n    tag_220:\n      mload(0x40)\n      dup1\n      swap2\n      sub\n      swap1\n      return\n        /* \"WandInstruments.sol\":1184:1254  address public testwallet = 0x617F2E2fD72FD9D5503197092aC168c91465E7f2 */\n    tag_41:\n      callvalue\n      dup1\n      iszero\n      tag_221\n      jumpi\n      0x00\n      dup1\n      revert\n    tag_221:\n      pop\n      tag_222\n      tag_223\n      jump\t// in\n    tag_222:\n      mload(0x40)\n      tag_224\n      swap2\n      swap1\n      tag_64\n      jump\t// in\n    tag_224:\n      mload(0x40)\n      dup1\n      swap2\n      sub\n      swap1\n      return\n        /* \"Ownable.sol\":1911:2109  function transferOwnership(address newOwner) public virtual onlyOwner {... */\n    tag_42:\n      callvalue\n      dup1\n      iszero\n      tag_225\n      jumpi\n      0x00\n      dup1\n      revert\n    tag_225:\n      pop\n      tag_226\n      0x04\n      dup1\n      calldatasize\n      sub\n      dup2\n      add\n      swap1\n      tag_227\n      swap2\n      swap1\n      tag_76\n      jump\t// in\n    tag_227:\n      tag_228\n      jump\t// in\n    tag_226:\n      stop\n        /* \"WandInstruments.sol\":633:661  address public treasury1Addr */\n    tag_43:\n      callvalue\n      dup1\n      iszero\n      tag_229\n      jumpi\n      0x00\n      dup1\n      revert\n    tag_229:\n      pop\n      tag_230\n      tag_231\n      jump\t// in\n    tag_230:\n      mload(0x40)\n      tag_232\n      swap2\n      swap1\n      tag_64\n      jump\t// in\n    tag_232:\n      mload(0x40)\n      dup1\n      swap2\n      sub\n      swap1\n      return\n        /* \"WandInstruments.sol\":12982:13138  function setDaysUsedInFactors(uint256 numDays) public {  \r... */\n    tag_44:\n      callvalue\n      dup1\n      iszero\n      tag_233\n      jumpi\n      0x00\n      dup1\n      revert\n    tag_233:\n      pop\n      tag_234\n      0x04\n      dup1\n      calldatasize\n      sub\n      dup2\n      add\n      swap1\n      tag_235\n      swap2\n      swap1\n      tag_83\n      jump\t// in\n    tag_235:\n      tag_236\n      jump\t// in\n    tag_234:\n      stop\n        /* \"WandInstruments.sol\":11529:11803  function getBuyPrice() external view returns (uint256){\r... */\n    tag_54:\n        /* \"WandInstruments.sol\":11575:11582  uint256 */\n      0x00\n        /* \"WandInstruments.sol\":11712:11793  decMul18(this.getBackingPrice() , (1200000000000000000 + this.getGrowthFactor())) */\n      tag_238\n        /* \"WandInstruments.sol\":11721:11725  this */\n      address\n        /* \"WandInstruments.sol\":11721:11741  this.getBackingPrice */\n      0xffffffffffffffffffffffffffffffffffffffff\n      and\n      0x1f564a06\n        /* \"WandInstruments.sol\":11721:11743  this.getBackingPrice() */\n      mload(0x40)\n      dup2\n      0xffffffff\n      and\n      0xe0\n      shl\n      dup2\n      mstore\n      0x04\n      add\n      0x20\n      mload(0x40)\n      dup1\n      dup4\n      sub\n      dup2\n      dup7\n      dup1\n      extcodesize\n      iszero\n      dup1\n      iszero\n      tag_239\n      jumpi\n      0x00\n      dup1\n      revert\n    tag_239:\n      pop\n      gas\n      staticcall\n      iszero\n      dup1\n      iszero\n      tag_241\n      jumpi\n      returndatasize\n      0x00\n      dup1\n      returndatacopy\n      revert(0x00, returndatasize)\n    tag_241:\n      pop\n      pop\n      pop\n      pop\n      mload(0x40)\n      returndatasize\n      not(0x1f)\n      0x1f\n      dup3\n      add\n      and\n      dup3\n      add\n      dup1\n      0x40\n      mstore\n      pop\n      dup2\n      add\n      swap1\n      tag_242\n      swap2\n      swap1\n      tag_243\n      jump\t// in\n    tag_242:\n        /* \"WandInstruments.sol\":11769:11773  this */\n      address\n        /* \"WandInstruments.sol\":11769:11789  this.getGrowthFactor */\n      0xffffffffffffffffffffffffffffffffffffffff\n      and\n      0x93f7b711\n        /* \"WandInstruments.sol\":11769:11791  this.getGrowthFactor() */\n      mload(0x40)\n      dup2\n      0xffffffff\n      and\n      0xe0\n      shl\n      dup2\n      mstore\n      0x04\n      add\n      0x20\n      mload(0x40)\n      dup1\n      dup4\n      sub\n      dup2\n      dup7\n      dup1\n      extcodesize\n      iszero\n      dup1\n      iszero\n      tag_244\n      jumpi\n      0x00\n      dup1\n      revert\n    tag_244:\n      pop\n      gas\n      staticcall\n      iszero\n      dup1\n      iszero\n      tag_246\n      jumpi\n      returndatasize\n      0x00\n      dup1\n      returndatacopy\n      revert(0x00, returndatasize)\n    tag_246:\n      pop\n      pop\n      pop\n      pop\n      mload(0x40)\n      returndatasize\n      not(0x1f)\n      0x1f\n      dup3\n      add\n      and\n      dup3\n      add\n      dup1\n      0x40\n      mstore\n      pop\n      dup2\n      add\n      swap1\n      tag_247\n      swap2\n      swap1\n      tag_243\n      jump\t// in\n    tag_247:\n        /* \"WandInstruments.sol\":11747:11766  1200000000000000000 */\n      0x10a741a462780000\n        /* \"WandInstruments.sol\":11747:11791  1200000000000000000 + this.getGrowthFactor() */\n      tag_248\n      swap2\n      swap1\n      tag_249\n      jump\t// in\n    tag_248:\n        /* \"WandInstruments.sol\":11712:11720  decMul18 */\n      tag_250\n        /* \"WandInstruments.sol\":11712:11793  decMul18(this.getBackingPrice() , (1200000000000000000 + this.getGrowthFactor())) */\n      jump\t// in\n    tag_238:\n        /* \"WandInstruments.sol\":11705:11793  return decMul18(this.getBackingPrice() , (1200000000000000000 + this.getGrowthFactor())) */\n      swap1\n      pop\n        /* \"WandInstruments.sol\":11529:11803  function getBuyPrice() external view returns (uint256){\r... */\n      swap1\n      jump\t// out\n        /* \"WandInstruments.sol\":12352:12970  function Launch() public onlyOwner{\r... */\n    tag_59:\n        /* \"Ownable.sol\":1252:1264  _msgSender() */\n      tag_252\n        /* \"Ownable.sol\":1252:1262  _msgSender */\n      tag_253\n        /* \"Ownable.sol\":1252:1264  _msgSender() */\n      jump\t// in\n    tag_252:\n        /* \"Ownable.sol\":1241:1264  owner() == _msgSender() */\n      0xffffffffffffffffffffffffffffffffffffffff\n      and\n        /* \"Ownable.sol\":1241:1248  owner() */\n      tag_254\n        /* \"Ownable.sol\":1241:1246  owner */\n      tag_163\n        /* \"Ownable.sol\":1241:1248  owner() */\n      jump\t// in\n    tag_254:\n        /* \"Ownable.sol\":1241:1264  owner() == _msgSender() */\n      0xffffffffffffffffffffffffffffffffffffffff\n      and\n      eq\n        /* \"Ownable.sol\":1233:1301  require(owner() == _msgSender(), \"Ownable: caller is not the owner\") */\n      tag_255\n      jumpi\n      mload(0x40)\n      0x08c379a000000000000000000000000000000000000000000000000000000000\n      dup2\n      mstore\n      0x04\n      add\n      tag_256\n      swap1\n      tag_257\n      jump\t// in\n    tag_256:\n      mload(0x40)\n      dup1\n      swap2\n      sub\n      swap1\n      revert\n    tag_255:\n        /* \"WandInstruments.sol\":12431:12435  SPTR */\n      0x14\n      0x00\n      swap1\n      sload\n      swap1\n      0x0100\n      exp\n      swap1\n      div\n      0xffffffffffffffffffffffffffffffffffffffff\n      and\n        /* \"WandInstruments.sol\":12431:12440  SPTR.mint */\n      0xffffffffffffffffffffffffffffffffffffffff\n      and\n      0x40c10f19\n        /* \"WandInstruments.sol\":12441:12483  0x617F2E2fD72FD9D5503197092aC168c91465E7f2 */\n      0x617f2e2fd72fd9d5503197092ac168c91465e7f2\n        /* \"WandInstruments.sol\":12485:12504  9411764706 * 10**12 */\n      0x01fe36793670c0c82000\n        /* \"WandInstruments.sol\":12431:12505  SPTR.mint(0x617F2E2fD72FD9D5503197092aC168c91465E7f2, 9411764706 * 10**12) */\n      mload(0x40)\n      dup4\n      0xffffffff\n      and\n      0xe0\n      shl\n      dup2\n      mstore\n      0x04\n      add\n      tag_259\n      swap3\n      swap2\n      swap1\n      tag_260\n      jump\t// in\n    tag_259:\n      0x00\n      mload(0x40)\n      dup1\n      dup4\n      sub\n      dup2\n      0x00\n      dup8\n      dup1\n      extcodesize\n      iszero\n      dup1\n      iszero\n      tag_261\n      jumpi\n      0x00\n      dup1\n      revert\n    tag_261:\n      pop\n      gas\n      call\n      iszero\n      dup1\n      iszero\n      tag_263\n      jumpi\n      returndatasize\n      0x00\n      dup1\n      returndatacopy\n      revert(0x00, returndatasize)\n    tag_263:\n      pop\n      pop\n      pop\n      pop\n        /* \"WandInstruments.sol\":12525:12529  SPTR */\n      0x14\n      0x00\n      swap1\n      sload\n      swap1\n      0x0100\n      exp\n      swap1\n      div\n      0xffffffffffffffffffffffffffffffffffffffff\n      and\n        /* \"WandInstruments.sol\":12525:12534  SPTR.mint */\n      0xffffffffffffffffffffffffffffffffffffffff\n      and\n      0x40c10f19\n        /* \"WandInstruments.sol\":12535:12577  0x17F6AD8Ef982297579C203069C1DbfFE4348c372 */\n      0x17f6ad8ef982297579c203069c1dbffe4348c372\n        /* \"WandInstruments.sol\":12579:12598  4470588235 * 10**13 */\n      0x097782bfbf68ab74e000\n        /* \"WandInstruments.sol\":12525:12599  SPTR.mint(0x17F6AD8Ef982297579C203069C1DbfFE4348c372, 4470588235 * 10**13) */\n      mload(0x40)\n      dup4\n      0xffffffff\n      and\n      0xe0\n      shl\n      dup2\n      mstore\n      0x04\n      add\n      tag_264\n      swap3\n      swap2\n      swap1\n      tag_265\n      jump\t// in\n    tag_264:\n      0x00\n      mload(0x40)\n      dup1\n      dup4\n      sub\n      dup2\n      0x00\n      dup8\n      dup1\n      extcodesize\n      iszero\n      dup1\n      iszero\n      tag_266\n      jumpi\n      0x00\n      dup1\n      revert\n    tag_266:\n      pop\n      gas\n      call\n      iszero\n      dup1\n      iszero\n      tag_268\n      jumpi\n      returndatasize\n      0x00\n      dup1\n      returndatacopy\n      revert(0x00, returndatasize)\n    tag_268:\n      pop\n      pop\n      pop\n      pop\n        /* \"WandInstruments.sol\":12619:12623  SPTR */\n      0x14\n      0x00\n      swap1\n      sload\n      swap1\n      0x0100\n      exp\n      swap1\n      div\n      0xffffffffffffffffffffffffffffffffffffffff\n      and\n        /* \"WandInstruments.sol\":12619:12628  SPTR.mint */\n      0xffffffffffffffffffffffffffffffffffffffff\n      and\n      0x40c10f19\n        /* \"WandInstruments.sol\":12629:12671  0x5c6B0f7Bf3E7ce046039Bd8FABdfD3f9F5021678 */\n      0x5c6b0f7bf3e7ce046039bd8fabdfd3f9f5021678\n        /* \"WandInstruments.sol\":12673:12692  4705882353 * 10**13 */\n      0x09f7105e1033c3e8a000\n        /* \"WandInstruments.sol\":12619:12693  SPTR.mint(0x5c6B0f7Bf3E7ce046039Bd8FABdfD3f9F5021678, 4705882353 * 10**13) */\n      mload(0x40)\n      dup4\n      0xffffffff\n      and\n      0xe0\n      shl\n      dup2\n      mstore\n      0x04\n      add\n      tag_269\n      swap3\n      swap2\n      swap1\n      tag_270\n      jump\t// in\n    tag_269:\n      0x00\n      mload(0x40)\n      dup1\n      dup4\n      sub\n      dup2\n      0x00\n      dup8\n      dup1\n      extcodesize\n      iszero\n      dup1\n      iszero\n      tag_271\n      jumpi\n      0x00\n      dup1\n      revert\n    tag_271:\n      pop\n      gas\n      call\n      iszero\n      dup1\n      iszero\n      tag_273\n      jumpi\n      returndatasize\n      0x00\n      dup1\n      returndatacopy\n      revert(0x00, returndatasize)\n    tag_273:\n      pop\n      pop\n      pop\n      pop\n        /* \"WandInstruments.sol\":12748:12817  (9411764706 * 10**12) + (4470588235 * 10**13) + (4705882353 * 10**13) */\n      0x156cc997060d3025a000\n        /* \"WandInstruments.sol\":12725:12742  tokensBoughtXDays */\n      0x18\n        /* \"WandInstruments.sol\":12725:12745  tokensBoughtXDays[0] */\n      0x00\n        /* \"WandInstruments.sol\":12743:12744  0 */\n      dup1\n        /* \"WandInstruments.sol\":12725:12745  tokensBoughtXDays[0] */\n      dup2\n      mstore\n      0x20\n      add\n      swap1\n      dup2\n      mstore\n      0x20\n      add\n      0x00\n      keccak256\n        /* \"WandInstruments.sol\":12725:12817  tokensBoughtXDays[0] = (9411764706 * 10**12) + (4470588235 * 10**13) + (4705882353 * 10**13) */\n      dup2\n      swap1\n      sstore\n      pop\n        /* \"WandInstruments.sol\":12856:12925  (9411764706 * 10**12) + (4470588235 * 10**13) + (4705882353 * 10**13) */\n      0x156cc997060d3025a000\n        /* \"WandInstruments.sol\":12828:12850  circulatingSupplyXDays */\n      0x1a\n        /* \"WandInstruments.sol\":12828:12853  circulatingSupplyXDays[0] */\n      0x00\n        /* \"WandInstruments.sol\":12851:12852  0 */\n      dup1\n        /* \"WandInstruments.sol\":12828:12853  circulatingSupplyXDays[0] */\n      dup2\n      mstore\n      0x20\n      add\n      swap1\n      dup2\n      mstore\n      0x20\n      add\n      0x00\n      keccak256\n        /* \"WandInstruments.sol\":12828:12925  circulatingSupplyXDays[0] = (9411764706 * 10**12) + (4470588235 * 10**13) + (4705882353 * 10**13) */\n      dup2\n      swap1\n      sstore\n      pop\n        /* \"WandInstruments.sol\":12956:12962  570000 */\n      0x08b290\n        /* \"WandInstruments.sol\":12938:12953  sptrTreasuryBal */\n      0x0c\n        /* \"WandInstruments.sol\":12938:12962  sptrTreasuryBal = 570000 */\n      dup2\n      swap1\n      sstore\n      pop\n        /* \"WandInstruments.sol\":12352:12970  function Launch() public onlyOwner{\r... */\n      jump\t// out\n        /* \"WandInstruments.sol\":709:740  address public riskTreasuryAddr */\n    tag_62:\n      0x0a\n      0x00\n      swap1\n      sload\n      swap1\n      0x0100\n      exp\n      swap1\n      div\n      0xffffffffffffffffffffffffffffffffffffffff\n      and\n      dup2\n      jump\t// out\n        /* \"WandInstruments.sol\":10402:11297  function getSellFactor() external view returns (uint256){\r... */\n    tag_67:\n        /* \"WandInstruments.sol\":10450:10457  uint256 */\n      0x00\n        /* \"WandInstruments.sol\":10603:10614  uint256 _sF */\n      dup1\n        /* \"WandInstruments.sol\":10626:10649  uint256 xDaysCircSupply */\n      0x00\n        /* \"WandInstruments.sol\":10660:10675  uint256 numdays */\n      dup1\n        /* \"WandInstruments.sol\":10696:10701  86400 */\n      0x015180\n        /* \"WandInstruments.sol\":10678:10695  daysInCalculation */\n      sload(0x0e)\n        /* \"WandInstruments.sol\":10678:10701  daysInCalculation/86400 */\n      tag_275\n      swap2\n      swap1\n      tag_276\n      jump\t// in\n    tag_275:\n        /* \"WandInstruments.sol\":10660:10701  uint256 numdays = daysInCalculation/86400 */\n      swap1\n      pop\n        /* \"WandInstruments.sol\":10712:10736  uint256 daySinceLaunched */\n      0x00\n        /* \"WandInstruments.sol\":10774:10779  86400 */\n      0x015180\n        /* \"WandInstruments.sol\":10758:10770  timeLaunched */\n      sload(0x0d)\n        /* \"WandInstruments.sol\":10740:10755  block.timestamp */\n      timestamp\n        /* \"WandInstruments.sol\":10740:10770  block.timestamp - timeLaunched */\n      tag_277\n      swap2\n      swap1\n      tag_278\n      jump\t// in\n    tag_277:\n        /* \"WandInstruments.sol\":10739:10779  (block.timestamp - timeLaunched) / 86400 */\n      tag_279\n      swap2\n      swap1\n      tag_276\n      jump\t// in\n    tag_279:\n        /* \"WandInstruments.sol\":10712:10779  uint256 daySinceLaunched = (block.timestamp - timeLaunched) / 86400 */\n      swap1\n      pop\n        /* \"WandInstruments.sol\":10790:10799  uint256 d */\n      0x00\n        /* \"WandInstruments.sol\":10836:10837  0 */\n      dup1\n        /* \"WandInstruments.sol\":10816:10832  daySinceLaunched */\n      dup3\n        /* \"WandInstruments.sol\":10816:10837  daySinceLaunched == 0 */\n      eq\n        /* \"WandInstruments.sol\":10812:11104  if (daySinceLaunched == 0) {\r... */\n      iszero\n      tag_280\n      jumpi\n        /* \"WandInstruments.sol\":10868:10890  circulatingSupplyXDays */\n      0x1a\n        /* \"WandInstruments.sol\":10868:10893  circulatingSupplyXDays[0] */\n      0x00\n        /* \"WandInstruments.sol\":10891:10892  0 */\n      dup1\n        /* \"WandInstruments.sol\":10868:10893  circulatingSupplyXDays[0] */\n      dup2\n      mstore\n      0x20\n      add\n      swap1\n      dup2\n      mstore\n      0x20\n      add\n      0x00\n      keccak256\n      sload\n        /* \"WandInstruments.sol\":10850:10893  xDaysCircSupply = circulatingSupplyXDays[0] */\n      swap4\n      pop\n        /* \"WandInstruments.sol\":10812:11104  if (daySinceLaunched == 0) {\r... */\n      jump(tag_281)\n    tag_280:\n        /* \"WandInstruments.sol\":10962:10969  numdays */\n      dup3\n        /* \"WandInstruments.sol\":10943:10959  daySinceLaunched */\n      dup3\n        /* \"WandInstruments.sol\":10943:10969  daySinceLaunched - numdays */\n      tag_285\n      swap2\n      swap1\n      tag_278\n      jump\t// in\n    tag_285:\n        /* \"WandInstruments.sol\":10939:10969  d = daySinceLaunched - numdays */\n      swap1\n      pop\n        /* \"WandInstruments.sol\":10934:11093  for (d = daySinceLaunched - numdays; d < daySinceLaunched; d++) {  //for loop example\r... */\n    tag_282:\n        /* \"WandInstruments.sol\":10975:10991  daySinceLaunched */\n      dup2\n        /* \"WandInstruments.sol\":10971:10972  d */\n      dup2\n        /* \"WandInstruments.sol\":10971:10991  d < daySinceLaunched */\n      lt\n        /* \"WandInstruments.sol\":10934:11093  for (d = daySinceLaunched - numdays; d < daySinceLaunched; d++) {  //for loop example\r... */\n      iszero\n      tag_283\n      jumpi\n        /* \"WandInstruments.sol\":11052:11074  circulatingSupplyXDays */\n      0x1a\n        /* \"WandInstruments.sol\":11052:11077  circulatingSupplyXDays[d] */\n      0x00\n        /* \"WandInstruments.sol\":11075:11076  d */\n      dup3\n        /* \"WandInstruments.sol\":11052:11077  circulatingSupplyXDays[d] */\n      dup2\n      mstore\n      0x20\n      add\n      swap1\n      dup2\n      mstore\n      0x20\n      add\n      0x00\n      keccak256\n      sload\n        /* \"WandInstruments.sol\":11033:11077  xDaysCircSupply += circulatingSupplyXDays[d] */\n      dup5\n      tag_286\n      swap2\n      swap1\n      tag_249\n      jump\t// in\n    tag_286:\n      swap4\n      pop\n        /* \"WandInstruments.sol\":10993:10996  d++ */\n      dup1\n      dup1\n      tag_287\n      swap1\n      tag_288\n      jump\t// in\n    tag_287:\n      swap2\n      pop\n      pop\n        /* \"WandInstruments.sol\":10934:11093  for (d = daySinceLaunched - numdays; d < daySinceLaunched; d++) {  //for loop example\r... */\n      jump(tag_282)\n    tag_283:\n        /* \"WandInstruments.sol\":10812:11104  if (daySinceLaunched == 0) {\r... */\n    tag_281:\n        /* \"WandInstruments.sol\":11121:11172  decDiv18(this.getTokensSoldXDays(),xDaysCircSupply) */\n      tag_289\n        /* \"WandInstruments.sol\":11130:11134  this */\n      address\n        /* \"WandInstruments.sol\":11130:11153  this.getTokensSoldXDays */\n      0xffffffffffffffffffffffffffffffffffffffff\n      and\n      0xd82eddf2\n        /* \"WandInstruments.sol\":11130:11155  this.getTokensSoldXDays() */\n      mload(0x40)\n      dup2\n      0xffffffff\n      and\n      0xe0\n      shl\n      dup2\n      mstore\n      0x04\n      add\n      0x20\n      mload(0x40)\n      dup1\n      dup4\n      sub\n      dup2\n      dup7\n      dup1\n      extcodesize\n      iszero\n      dup1\n      iszero\n      tag_290\n      jumpi\n      0x00\n      dup1\n      revert\n    tag_290:\n      pop\n      gas\n      staticcall\n      iszero\n      dup1\n      iszero\n      tag_292\n      jumpi\n      returndatasize\n      0x00\n      dup1\n      returndatacopy\n      revert(0x00, returndatasize)\n    tag_292:\n      pop\n      pop\n      pop\n      pop\n      mload(0x40)\n      returndatasize\n      not(0x1f)\n      0x1f\n      dup3\n      add\n      and\n      dup3\n      add\n      dup1\n      0x40\n      mstore\n      pop\n      dup2\n      add\n      swap1\n      tag_293\n      swap2\n      swap1\n      tag_243\n      jump\t// in\n    tag_293:\n        /* \"WandInstruments.sol\":11156:11171  xDaysCircSupply */\n      dup6\n        /* \"WandInstruments.sol\":11121:11129  decDiv18 */\n      tag_294\n        /* \"WandInstruments.sol\":11121:11172  decDiv18(this.getTokensSoldXDays(),xDaysCircSupply) */\n      jump\t// in\n    tag_289:\n        /* \"WandInstruments.sol\":11115:11172  _sF = decDiv18(this.getTokensSoldXDays(),xDaysCircSupply) */\n      swap5\n      pop\n        /* \"WandInstruments.sol\":11192:11210  300000000000000000 */\n      0x0429d069189e0000\n        /* \"WandInstruments.sol\":11186:11189  _sF */\n      dup6\n        /* \"WandInstruments.sol\":11186:11210  _sF > 300000000000000000 */\n      gt\n        /* \"WandInstruments.sol\":11182:11269  if (_sF > 300000000000000000)\r... */\n      iszero\n      tag_295\n      jumpi\n        /* \"WandInstruments.sol\":11240:11258  300000000000000000 */\n      0x0429d069189e0000\n        /* \"WandInstruments.sol\":11234:11258  _sF = 300000000000000000 */\n      swap5\n      pop\n        /* \"WandInstruments.sol\":11182:11269  if (_sF > 300000000000000000)\r... */\n    tag_295:\n        /* \"WandInstruments.sol\":11285:11288  _sF */\n      dup5\n        /* \"WandInstruments.sol\":11278:11288  return _sF */\n      swap6\n      pop\n      pop\n      pop\n      pop\n      pop\n      pop\n        /* \"WandInstruments.sol\":10402:11297  function getSellFactor() external view returns (uint256){\r... */\n      swap1\n      jump\t// out\n        /* \"WandInstruments.sol\":15160:15595  function getCircSupplyXDays() external view returns (uint256){\r... */\n    tag_71:\n        /* \"WandInstruments.sol\":15213:15220  uint256 */\n      0x00\n        /* \"WandInstruments.sol\":15226:15250  uint256 daySinceLaunched */\n      dup1\n        /* \"WandInstruments.sol\":15288:15293  86400 */\n      0x015180\n        /* \"WandInstruments.sol\":15272:15284  timeLaunched */\n      sload(0x0d)\n        /* \"WandInstruments.sol\":15254:15269  block.timestamp */\n      timestamp\n        /* \"WandInstruments.sol\":15254:15284  block.timestamp - timeLaunched */\n      tag_297\n      swap2\n      swap1\n      tag_278\n      jump\t// in\n    tag_297:\n        /* \"WandInstruments.sol\":15253:15293  (block.timestamp - timeLaunched) / 86400 */\n      tag_298\n      swap2\n      swap1\n      tag_276\n      jump\t// in\n    tag_298:\n        /* \"WandInstruments.sol\":15226:15293  uint256 daySinceLaunched = (block.timestamp - timeLaunched) / 86400 */\n      swap1\n      pop\n        /* \"WandInstruments.sol\":15304:15327  uint256 CircSupplyXDays */\n      0x00\n        /* \"WandInstruments.sol\":15342:15357  uint256 numdays */\n      dup1\n        /* \"WandInstruments.sol\":15378:15383  86400 */\n      0x015180\n        /* \"WandInstruments.sol\":15360:15377  daysInCalculation */\n      sload(0x0e)\n        /* \"WandInstruments.sol\":15360:15383  daysInCalculation/86400 */\n      tag_299\n      swap2\n      swap1\n      tag_276\n      jump\t// in\n    tag_299:\n        /* \"WandInstruments.sol\":15342:15383  uint256 numdays = daysInCalculation/86400 */\n      swap1\n      pop\n        /* \"WandInstruments.sol\":15394:15403  uint256 d */\n      0x00\n        /* \"WandInstruments.sol\":15452:15459  numdays */\n      dup2\n        /* \"WandInstruments.sol\":15433:15449  daySinceLaunched */\n      dup5\n        /* \"WandInstruments.sol\":15433:15459  daySinceLaunched - numdays */\n      tag_303\n      swap2\n      swap1\n      tag_278\n      jump\t// in\n    tag_303:\n        /* \"WandInstruments.sol\":15429:15459  d = daySinceLaunched - numdays */\n      swap1\n      pop\n        /* \"WandInstruments.sol\":15424:15555  for (d = daySinceLaunched - numdays; d < daySinceLaunched; d++) {\r... */\n    tag_300:\n        /* \"WandInstruments.sol\":15465:15481  daySinceLaunched */\n      dup4\n        /* \"WandInstruments.sol\":15461:15462  d */\n      dup2\n        /* \"WandInstruments.sol\":15461:15481  d < daySinceLaunched */\n      lt\n        /* \"WandInstruments.sol\":15424:15555  for (d = daySinceLaunched - numdays; d < daySinceLaunched; d++) {\r... */\n      iszero\n      tag_301\n      jumpi\n        /* \"WandInstruments.sol\":15518:15540  circulatingSupplyXDays */\n      0x1a\n        /* \"WandInstruments.sol\":15518:15543  circulatingSupplyXDays[d] */\n      0x00\n        /* \"WandInstruments.sol\":15541:15542  d */\n      dup3\n        /* \"WandInstruments.sol\":15518:15543  circulatingSupplyXDays[d] */\n      dup2\n      mstore\n      0x20\n      add\n      swap1\n      dup2\n      mstore\n      0x20\n      add\n      0x00\n      keccak256\n      sload\n        /* \"WandInstruments.sol\":15499:15543  CircSupplyXDays += circulatingSupplyXDays[d] */\n      dup4\n      tag_304\n      swap2\n      swap1\n      tag_249\n      jump\t// in\n    tag_304:\n      swap3\n      pop\n        /* \"WandInstruments.sol\":15483:15486  d++ */\n      dup1\n      dup1\n      tag_305\n      swap1\n      tag_288\n      jump\t// in\n    tag_305:\n      swap2\n      pop\n      pop\n        /* \"WandInstruments.sol\":15424:15555  for (d = daySinceLaunched - numdays; d < daySinceLaunched; d++) {\r... */\n      jump(tag_300)\n    tag_301:\n        /* \"WandInstruments.sol\":15572:15587  CircSupplyXDays */\n      dup3\n        /* \"WandInstruments.sol\":15565:15587  return CircSupplyXDays */\n      swap5\n      pop\n      pop\n      pop\n      pop\n      pop\n        /* \"WandInstruments.sol\":15160:15595  function getCircSupplyXDays() external view returns (uint256){\r... */\n      swap1\n      jump\t// out\n        /* \"WandInstruments.sol\":2066:2126  mapping(address => lockedamounts) public withheldWithdrawals */\n    tag_77:\n      mstore(0x20, 0x1c)\n      dup1\n      0x00\n      mstore\n      keccak256(0x00, 0x40)\n      0x00\n      swap2\n      pop\n      swap1\n      pop\n      dup1\n      0x00\n      add\n      sload\n      swap1\n      dup1\n      0x01\n      add\n      sload\n      swap1\n      pop\n      dup3\n      jump\t// out\n        /* \"WandInstruments.sol\":1649:1699  mapping(uint256 => uint256) public tokensSoldXDays */\n    tag_84:\n      mstore(0x20, 0x19)\n      dup1\n      0x00\n      mstore\n      keccak256(0x00, 0x40)\n      0x00\n      swap2\n      pop\n      swap1\n      pop\n      sload\n      dup2\n      jump\t// out\n        /* \"WandInstruments.sol\":13718:14220  function testUpdatetimeLockedminus(uint256 amt) public  {\r... */\n    tag_89:\n        /* \"WandInstruments.sol\":13799:13818  withheldWithdrawals */\n      0x1c\n        /* \"WandInstruments.sol\":13799:13830  withheldWithdrawals[msg.sender] */\n      0x00\n        /* \"WandInstruments.sol\":13819:13829  msg.sender */\n      caller\n        /* \"WandInstruments.sol\":13799:13830  withheldWithdrawals[msg.sender] */\n      0xffffffffffffffffffffffffffffffffffffffff\n      and\n      0xffffffffffffffffffffffffffffffffffffffff\n      and\n      dup2\n      mstore\n      0x20\n      add\n      swap1\n      dup2\n      mstore\n      0x20\n      add\n      0x00\n      keccak256\n        /* \"WandInstruments.sol\":13799:13838  withheldWithdrawals[msg.sender].amounts */\n      0x01\n      add\n      sload\n        /* \"WandInstruments.sol\":13793:13796  amt */\n      dup2\n        /* \"WandInstruments.sol\":13793:13838  amt < withheldWithdrawals[msg.sender].amounts */\n      lt\n        /* \"WandInstruments.sol\":13785:13879  require(amt < withheldWithdrawals[msg.sender].amounts, \"You dont have that much to withdraw!\") */\n      tag_307\n      jumpi\n      mload(0x40)\n      0x08c379a000000000000000000000000000000000000000000000000000000000\n      dup2\n      mstore\n      0x04\n      add\n      tag_308\n      swap1\n      tag_309\n      jump\t// in\n    tag_308:\n      mload(0x40)\n      dup1\n      swap2\n      sub\n      swap1\n      revert\n    tag_307:\n        /* \"WandInstruments.sol\":14084:14087  amt */\n      dup1\n        /* \"WandInstruments.sol\":14041:14060  withheldWithdrawals */\n      0x1c\n        /* \"WandInstruments.sol\":14041:14072  withheldWithdrawals[msg.sender] */\n      0x00\n        /* \"WandInstruments.sol\":14061:14071  msg.sender */\n      caller\n        /* \"WandInstruments.sol\":14041:14072  withheldWithdrawals[msg.sender] */\n      0xffffffffffffffffffffffffffffffffffffffff\n      and\n      0xffffffffffffffffffffffffffffffffffffffff\n      and\n      dup2\n      mstore\n      0x20\n      add\n      swap1\n      dup2\n      mstore\n      0x20\n      add\n      0x00\n      keccak256\n        /* \"WandInstruments.sol\":14041:14080  withheldWithdrawals[msg.sender].amounts */\n      0x01\n      add\n      0x00\n        /* \"WandInstruments.sol\":14041:14087  withheldWithdrawals[msg.sender].amounts -= amt */\n      dup3\n      dup3\n      sload\n      tag_310\n      swap2\n      swap1\n      tag_278\n      jump\t// in\n    tag_310:\n      swap3\n      pop\n      pop\n      dup2\n      swap1\n      sstore\n      pop\n        /* \"WandInstruments.sol\":14144:14145  0 */\n      0x00\n        /* \"WandInstruments.sol\":14102:14121  withheldWithdrawals */\n      0x1c\n        /* \"WandInstruments.sol\":14102:14133  withheldWithdrawals[msg.sender] */\n      0x00\n        /* \"WandInstruments.sol\":14122:14132  msg.sender */\n      caller\n        /* \"WandInstruments.sol\":14102:14133  withheldWithdrawals[msg.sender] */\n      0xffffffffffffffffffffffffffffffffffffffff\n      and\n      0xffffffffffffffffffffffffffffffffffffffff\n      and\n      dup2\n      mstore\n      0x20\n      add\n      swap1\n      dup2\n      mstore\n      0x20\n      add\n      0x00\n      keccak256\n        /* \"WandInstruments.sol\":14102:14141  withheldWithdrawals[msg.sender].amounts */\n      0x01\n      add\n      sload\n        /* \"WandInstruments.sol\":14102:14145  withheldWithdrawals[msg.sender].amounts ==0 */\n      eq\n        /* \"WandInstruments.sol\":14098:14213  if (withheldWithdrawals[msg.sender].amounts ==0 ){\r... */\n      iszero\n      tag_311\n      jumpi\n        /* \"WandInstruments.sol\":14169:14188  withheldWithdrawals */\n      0x1c\n        /* \"WandInstruments.sol\":14169:14200  withheldWithdrawals[msg.sender] */\n      0x00\n        /* \"WandInstruments.sol\":14189:14199  msg.sender */\n      caller\n        /* \"WandInstruments.sol\":14169:14200  withheldWithdrawals[msg.sender] */\n      0xffffffffffffffffffffffffffffffffffffffff\n      and\n      0xffffffffffffffffffffffffffffffffffffffff\n      and\n      dup2\n      mstore\n      0x20\n      add\n      swap1\n      dup2\n      mstore\n      0x20\n      add\n      0x00\n      keccak256\n      0x00\n        /* \"WandInstruments.sol\":14162:14201  delete(withheldWithdrawals[msg.sender]) */\n      dup1\n      dup3\n      add\n      0x00\n      swap1\n      sstore\n      0x01\n      dup3\n      add\n      0x00\n      swap1\n      sstore\n      pop\n      pop\n        /* \"WandInstruments.sol\":14098:14213  if (withheldWithdrawals[msg.sender].amounts ==0 ){\r... */\n    tag_311:\n        /* \"WandInstruments.sol\":13718:14220  function testUpdatetimeLockedminus(uint256 amt) public  {\r... */\n      pop\n      jump\t// out\n        /* \"WandInstruments.sol\":1706:1763  mapping(uint256 => uint256) public circulatingSupplyXDays */\n    tag_93:\n      mstore(0x20, 0x1a)\n      dup1\n      0x00\n      mstore\n      keccak256(0x00, 0x40)\n      0x00\n      swap2\n      pop\n      swap1\n      pop\n      sload\n      dup2\n      jump\t// out\n        /* \"WandInstruments.sol\":6936:7683  function transformScepterToBaton(uint256 amountSCPtoSwap) public payable{\r... */\n    tag_97:\n        /* \"WandInstruments.sol\":7080:7106  uint256 trader_tsc_balance */\n      0x00\n        /* \"WandInstruments.sol\":7109:7113  SPTR */\n      0x14\n      0x00\n      swap1\n      sload\n      swap1\n      0x0100\n      exp\n      swap1\n      div\n      0xffffffffffffffffffffffffffffffffffffffff\n      and\n        /* \"WandInstruments.sol\":7109:7123  SPTR.balanceOf */\n      0xffffffffffffffffffffffffffffffffffffffff\n      and\n      0x70a08231\n        /* \"WandInstruments.sol\":7124:7134  msg.sender */\n      caller\n        /* \"WandInstruments.sol\":7109:7135  SPTR.balanceOf(msg.sender) */\n      mload(0x40)\n      dup3\n      0xffffffff\n      and\n      0xe0\n      shl\n      dup2\n      mstore\n      0x04\n      add\n      tag_313\n      swap2\n      swap1\n      tag_64\n      jump\t// in\n    tag_313:\n      0x20\n      mload(0x40)\n      dup1\n      dup4\n      sub\n      dup2\n      dup7\n      dup1\n      extcodesize\n      iszero\n      dup1\n      iszero\n      tag_314\n      jumpi\n      0x00\n      dup1\n      revert\n    tag_314:\n      pop\n      gas\n      staticcall\n      iszero\n      dup1\n      iszero\n      tag_316\n      jumpi\n      returndatasize\n      0x00\n      dup1\n      returndatacopy\n      revert(0x00, returndatasize)\n    tag_316:\n      pop\n      pop\n      pop\n      pop\n      mload(0x40)\n      returndatasize\n      not(0x1f)\n      0x1f\n      dup3\n      add\n      and\n      dup3\n      add\n      dup1\n      0x40\n      mstore\n      pop\n      dup2\n      add\n      swap1\n      tag_317\n      swap2\n      swap1\n      tag_243\n      jump\t// in\n    tag_317:\n        /* \"WandInstruments.sol\":7080:7135  uint256 trader_tsc_balance = SPTR.balanceOf(msg.sender) */\n      swap1\n      pop\n        /* \"WandInstruments.sol\":7175:7190  amountSCPtoSwap */\n      dup2\n        /* \"WandInstruments.sol\":7154:7172  trader_tsc_balance */\n      dup2\n        /* \"WandInstruments.sol\":7154:7190  trader_tsc_balance > amountSCPtoSwap */\n      gt\n        /* \"WandInstruments.sol\":7146:7221  require(trader_tsc_balance > amountSCPtoSwap, \"You dont have that amount!\") */\n      tag_318\n      jumpi\n      mload(0x40)\n      0x08c379a000000000000000000000000000000000000000000000000000000000\n      dup2\n      mstore\n      0x04\n      add\n      tag_319\n      swap1\n      tag_320\n      jump\t// in\n    tag_319:\n      mload(0x40)\n      dup1\n      swap2\n      sub\n      swap1\n      revert\n    tag_318:\n        /* \"WandInstruments.sol\":7275:7342  _safeTransferFrom(SPTR, msg.sender, address(this), amountSCPtoSwap) */\n      tag_321\n        /* \"WandInstruments.sol\":7293:7297  SPTR */\n      0x14\n      0x00\n      swap1\n      sload\n      swap1\n      0x0100\n      exp\n      swap1\n      div\n      0xffffffffffffffffffffffffffffffffffffffff\n      and\n        /* \"WandInstruments.sol\":7299:7309  msg.sender */\n      caller\n        /* \"WandInstruments.sol\":7319:7323  this */\n      address\n        /* \"WandInstruments.sol\":7326:7341  amountSCPtoSwap */\n      dup6\n        /* \"WandInstruments.sol\":7275:7292  _safeTransferFrom */\n      tag_322\n        /* \"WandInstruments.sol\":7275:7342  _safeTransferFrom(SPTR, msg.sender, address(this), amountSCPtoSwap) */\n      jump\t// in\n    tag_321:\n        /* \"WandInstruments.sol\":7403:7419  uint256 dInArray */\n      0x00\n        /* \"WandInstruments.sol\":7453:7458  86400 */\n      0x015180\n        /* \"WandInstruments.sol\":7439:7451  timeLaunched */\n      sload(0x0d)\n        /* \"WandInstruments.sol\":7422:7437  block.timestamp */\n      timestamp\n        /* \"WandInstruments.sol\":7422:7451  block.timestamp- timeLaunched */\n      tag_323\n      swap2\n      swap1\n      tag_278\n      jump\t// in\n    tag_323:\n        /* \"WandInstruments.sol\":7421:7458  (block.timestamp- timeLaunched)/86400 */\n      tag_324\n      swap2\n      swap1\n      tag_276\n      jump\t// in\n    tag_324:\n        /* \"WandInstruments.sol\":7403:7458  uint256 dInArray =(block.timestamp- timeLaunched)/86400 */\n      swap1\n      pop\n        /* \"WandInstruments.sol\":7499:7514  amountSCPtoSwap */\n      dup3\n        /* \"WandInstruments.sol\":7470:7485  tokensSoldXDays */\n      0x19\n        /* \"WandInstruments.sol\":7470:7495  tokensSoldXDays[dInArray] */\n      0x00\n        /* \"WandInstruments.sol\":7486:7494  dInArray */\n      dup4\n        /* \"WandInstruments.sol\":7470:7495  tokensSoldXDays[dInArray] */\n      dup2\n      mstore\n      0x20\n      add\n      swap1\n      dup2\n      mstore\n      0x20\n      add\n      0x00\n      keccak256\n      0x00\n        /* \"WandInstruments.sol\":7470:7514  tokensSoldXDays[dInArray] += amountSCPtoSwap */\n      dup3\n      dup3\n      sload\n      tag_325\n      swap2\n      swap1\n      tag_249\n      jump\t// in\n    tag_325:\n      swap3\n      pop\n      pop\n      dup2\n      swap1\n      sstore\n      pop\n        /* \"WandInstruments.sol\":7561:7576  amountSCPtoSwap */\n      dup3\n        /* \"WandInstruments.sol\":7525:7547  circulatingSupplyXDays */\n      0x1a\n        /* \"WandInstruments.sol\":7525:7557  circulatingSupplyXDays[dInArray] */\n      0x00\n        /* \"WandInstruments.sol\":7548:7556  dInArray */\n      dup4\n        /* \"WandInstruments.sol\":7525:7557  circulatingSupplyXDays[dInArray] */\n      dup2\n      mstore\n      0x20\n      add\n      swap1\n      dup2\n      mstore\n      0x20\n      add\n      0x00\n      keccak256\n      0x00\n        /* \"WandInstruments.sol\":7525:7576  circulatingSupplyXDays[dInArray] -= amountSCPtoSwap */\n      dup3\n      dup3\n      sload\n      tag_326\n      swap2\n      swap1\n      tag_278\n      jump\t// in\n    tag_326:\n      swap3\n      pop\n      pop\n      dup2\n      swap1\n      sstore\n      pop\n        /* \"WandInstruments.sol\":7008:7683  {\r... */\n      pop\n      pop\n        /* \"WandInstruments.sol\":6936:7683  function transformScepterToBaton(uint256 amountSCPtoSwap) public payable{\r... */\n      pop\n      jump\t// out\n        /* \"WandInstruments.sol\":11303:11523  function getBackingPrice() external view returns (uint256){\r... */\n    tag_100:\n        /* \"WandInstruments.sol\":11353:11360  uint256 */\n      0x00\n        /* \"WandInstruments.sol\":11460:11515  decDiv18(sptrTreasuryBal * DECIMALS,SPTR.totalSupply()) */\n      tag_328\n        /* \"WandInstruments.sol\":370:376  10**18 */\n      0x0de0b6b3a7640000\n        /* \"WandInstruments.sol\":11469:11484  sptrTreasuryBal */\n      sload(0x0c)\n        /* \"WandInstruments.sol\":11469:11495  sptrTreasuryBal * DECIMALS */\n      tag_329\n      swap2\n      swap1\n      tag_330\n      jump\t// in\n    tag_329:\n        /* \"WandInstruments.sol\":11496:11500  SPTR */\n      0x14\n      0x00\n      swap1\n      sload\n      swap1\n      0x0100\n      exp\n      swap1\n      div\n      0xffffffffffffffffffffffffffffffffffffffff\n      and\n        /* \"WandInstruments.sol\":11496:11512  SPTR.totalSupply */\n      0xffffffffffffffffffffffffffffffffffffffff\n      and\n      0x18160ddd\n        /* \"WandInstruments.sol\":11496:11514  SPTR.totalSupply() */\n      mload(0x40)\n      dup2\n      0xffffffff\n      and\n      0xe0\n      shl\n      dup2\n      mstore\n      0x04\n      add\n      0x20\n      mload(0x40)\n      dup1\n      dup4\n      sub\n      dup2\n      dup7\n      dup1\n      extcodesize\n      iszero\n      dup1\n      iszero\n      tag_331\n      jumpi\n      0x00\n      dup1\n      revert\n    tag_331:\n      pop\n      gas\n      staticcall\n      iszero\n      dup1\n      iszero\n      tag_333\n      jumpi\n      returndatasize\n      0x00\n      dup1\n      returndatacopy\n      revert(0x00, returndatasize)\n    tag_333:\n      pop\n      pop\n      pop\n      pop\n      mload(0x40)\n      returndatasize\n      not(0x1f)\n      0x1f\n      dup3\n      add\n      and\n      dup3\n      add\n      dup1\n      0x40\n      mstore\n      pop\n      dup2\n      add\n      swap1\n      tag_334\n      swap2\n      swap1\n      tag_243\n      jump\t// in\n    tag_334:\n        /* \"WandInstruments.sol\":11460:11468  decDiv18 */\n      tag_294\n        /* \"WandInstruments.sol\":11460:11515  decDiv18(sptrTreasuryBal * DECIMALS,SPTR.totalSupply()) */\n      jump\t// in\n    tag_328:\n        /* \"WandInstruments.sol\":11453:11515  return decDiv18(sptrTreasuryBal * DECIMALS,SPTR.totalSupply()) */\n      swap1\n      pop\n        /* \"WandInstruments.sol\":11303:11523  function getBackingPrice() external view returns (uint256){\r... */\n      swap1\n      jump\t// out\n        /* \"WandInstruments.sol\":1430:1448  IERC20 public SPTR */\n    tag_104:\n      0x14\n      0x00\n      swap1\n      sload\n      swap1\n      0x0100\n      exp\n      swap1\n      div\n      0xffffffffffffffffffffffffffffffffffffffff\n      and\n      dup2\n      jump\t// out\n        /* \"WandInstruments.sol\":747:775  address public devWalletAddr */\n    tag_109:\n      0x0b\n      0x00\n      swap1\n      sload\n      swap1\n      0x0100\n      exp\n      swap1\n      div\n      0xffffffffffffffffffffffffffffffffffffffff\n      and\n      dup2\n      jump\t// out\n        /* \"WandInstruments.sol\":1590:1642  mapping(uint256 => uint256) public tokensBoughtXDays */\n    tag_114:\n      mstore(0x20, 0x18)\n      dup1\n      0x00\n      mstore\n      keccak256(0x00, 0x40)\n      0x00\n      swap2\n      pop\n      swap1\n      pop\n      sload\n      dup2\n      jump\t// out\n        /* \"WandInstruments.sol\":13150:13226  function withdrawStables(uint256 _amtToWithdraw) public onlyOwner {\r... */\n    tag_119:\n        /* \"Ownable.sol\":1252:1264  _msgSender() */\n      tag_336\n        /* \"Ownable.sol\":1252:1262  _msgSender */\n      tag_253\n        /* \"Ownable.sol\":1252:1264  _msgSender() */\n      jump\t// in\n    tag_336:\n        /* \"Ownable.sol\":1241:1264  owner() == _msgSender() */\n      0xffffffffffffffffffffffffffffffffffffffff\n      and\n        /* \"Ownable.sol\":1241:1248  owner() */\n      tag_337\n        /* \"Ownable.sol\":1241:1246  owner */\n      tag_163\n        /* \"Ownable.sol\":1241:1248  owner() */\n      jump\t// in\n    tag_337:\n        /* \"Ownable.sol\":1241:1264  owner() == _msgSender() */\n      0xffffffffffffffffffffffffffffffffffffffff\n      and\n      eq\n        /* \"Ownable.sol\":1233:1301  require(owner() == _msgSender(), \"Ownable: caller is not the owner\") */\n      tag_338\n      jumpi\n      mload(0x40)\n      0x08c379a000000000000000000000000000000000000000000000000000000000\n      dup2\n      mstore\n      0x04\n      add\n      tag_339\n      swap1\n      tag_257\n      jump\t// in\n    tag_339:\n      mload(0x40)\n      dup1\n      swap2\n      sub\n      swap1\n      revert\n    tag_338:\n        /* \"WandInstruments.sol\":13150:13226  function withdrawStables(uint256 _amtToWithdraw) public onlyOwner {\r... */\n      pop\n      jump\t// out\n        /* \"WandInstruments.sol\":875:902  uint256 public timeLaunched */\n    tag_122:\n      sload(0x0d)\n      dup2\n      jump\t// out\n        /* \"WandInstruments.sol\":11809:12082  function getSellPrice() external view returns (uint256){\r... */\n    tag_126:\n        /* \"WandInstruments.sol\":11856:11863  uint256 */\n      0x00\n        /* \"WandInstruments.sol\":11996:12074  decMul18(this.getBackingPrice() , (900000000000000000 - this.getSellFactor())) */\n      tag_342\n        /* \"WandInstruments.sol\":12005:12009  this */\n      address\n        /* \"WandInstruments.sol\":12005:12025  this.getBackingPrice */\n      0xffffffffffffffffffffffffffffffffffffffff\n      and\n      0x1f564a06\n        /* \"WandInstruments.sol\":12005:12027  this.getBackingPrice() */\n      mload(0x40)\n      dup2\n      0xffffffff\n      and\n      0xe0\n      shl\n      dup2\n      mstore\n      0x04\n      add\n      0x20\n      mload(0x40)\n      dup1\n      dup4\n      sub\n      dup2\n      dup7\n      dup1\n      extcodesize\n      iszero\n      dup1\n      iszero\n      tag_343\n      jumpi\n      0x00\n      dup1\n      revert\n    tag_343:\n      pop\n      gas\n      staticcall\n      iszero\n      dup1\n      iszero\n      tag_345\n      jumpi\n      returndatasize\n      0x00\n      dup1\n      returndatacopy\n      revert(0x00, returndatasize)\n    tag_345:\n      pop\n      pop\n      pop\n      pop\n      mload(0x40)\n      returndatasize\n      not(0x1f)\n      0x1f\n      dup3\n      add\n      and\n      dup3\n      add\n      dup1\n      0x40\n      mstore\n      pop\n      dup2\n      add\n      swap1\n      tag_346\n      swap2\n      swap1\n      tag_243\n      jump\t// in\n    tag_346:\n        /* \"WandInstruments.sol\":12052:12056  this */\n      address\n        /* \"WandInstruments.sol\":12052:12070  this.getSellFactor */\n      0xffffffffffffffffffffffffffffffffffffffff\n      and\n      0x0ccaf04f\n        /* \"WandInstruments.sol\":12052:12072  this.getSellFactor() */\n      mload(0x40)\n      dup2\n      0xffffffff\n      and\n      0xe0\n      shl\n      dup2\n      mstore\n      0x04\n      add\n      0x20\n      mload(0x40)\n      dup1\n      dup4\n      sub\n      dup2\n      dup7\n      dup1\n      extcodesize\n      iszero\n      dup1\n      iszero\n      tag_347\n      jumpi\n      0x00\n      dup1\n      revert\n    tag_347:\n      pop\n      gas\n      staticcall\n      iszero\n      dup1\n      iszero\n      tag_349\n      jumpi\n      returndatasize\n      0x00\n      dup1\n      returndatacopy\n      revert(0x00, returndatasize)\n    tag_349:\n      pop\n      pop\n      pop\n      pop\n      mload(0x40)\n      returndatasize\n      not(0x1f)\n      0x1f\n      dup3\n      add\n      and\n      dup3\n      add\n      dup1\n      0x40\n      mstore\n      pop\n      dup2\n      add\n      swap1\n      tag_350\n      swap2\n      swap1\n      tag_243\n      jump\t// in\n    tag_350:\n        /* \"WandInstruments.sol\":12031:12049  900000000000000000 */\n      0x0c7d713b49da0000\n        /* \"WandInstruments.sol\":12031:12072  900000000000000000 - this.getSellFactor() */\n      tag_351\n      swap2\n      swap1\n      tag_278\n      jump\t// in\n    tag_351:\n        /* \"WandInstruments.sol\":11996:12004  decMul18 */\n      tag_250\n        /* \"WandInstruments.sol\":11996:12074  decMul18(this.getBackingPrice() , (900000000000000000 - this.getSellFactor())) */\n      jump\t// in\n    tag_342:\n        /* \"WandInstruments.sol\":11989:12074  return decMul18(this.getBackingPrice() , (900000000000000000 - this.getSellFactor())) */\n      swap1\n      pop\n        /* \"WandInstruments.sol\":11809:12082  function getSellPrice() external view returns (uint256){\r... */\n      swap1\n      jump\t// out\n        /* \"WandInstruments.sol\":816:846  uint256 public sptrTreasuryBal */\n    tag_130:\n      sload(0x0c)\n      dup2\n      jump\t// out\n        /* \"WandInstruments.sol\":909:941  uint256 public daysInCalculation */\n    tag_134:\n      sload(0x0e)\n      dup2\n      jump\t// out\n        /* \"WandInstruments.sol\":13234:13706  function testUpdatetimeLockedplus(uint256 amt) public  {\r... */\n    tag_139:\n        /* \"WandInstruments.sol\":13629:13635  864000 */\n      0x0d2f00\n        /* \"WandInstruments.sol\":13611:13626  block.timestamp */\n      timestamp\n        /* \"WandInstruments.sol\":13611:13635  block.timestamp + 864000 */\n      tag_353\n      swap2\n      swap1\n      tag_249\n      jump\t// in\n    tag_353:\n        /* \"WandInstruments.sol\":13564:13583  withheldWithdrawals */\n      0x1c\n        /* \"WandInstruments.sol\":13564:13595  withheldWithdrawals[msg.sender] */\n      0x00\n        /* \"WandInstruments.sol\":13584:13594  msg.sender */\n      caller\n        /* \"WandInstruments.sol\":13564:13595  withheldWithdrawals[msg.sender] */\n      0xffffffffffffffffffffffffffffffffffffffff\n      and\n      0xffffffffffffffffffffffffffffffffffffffff\n      and\n      dup2\n      mstore\n      0x20\n      add\n      swap1\n      dup2\n      mstore\n      0x20\n      add\n      0x00\n      keccak256\n        /* \"WandInstruments.sol\":13564:13608  withheldWithdrawals[msg.sender].timeUnlocked */\n      0x00\n      add\n        /* \"WandInstruments.sol\":13564:13635  withheldWithdrawals[msg.sender].timeUnlocked = block.timestamp + 864000 */\n      dup2\n      swap1\n      sstore\n      pop\n        /* \"WandInstruments.sol\":13689:13692  amt */\n      dup1\n        /* \"WandInstruments.sol\":13646:13665  withheldWithdrawals */\n      0x1c\n        /* \"WandInstruments.sol\":13646:13677  withheldWithdrawals[msg.sender] */\n      0x00\n        /* \"WandInstruments.sol\":13666:13676  msg.sender */\n      caller\n        /* \"WandInstruments.sol\":13646:13677  withheldWithdrawals[msg.sender] */\n      0xffffffffffffffffffffffffffffffffffffffff\n      and\n      0xffffffffffffffffffffffffffffffffffffffff\n      and\n      dup2\n      mstore\n      0x20\n      add\n      swap1\n      dup2\n      mstore\n      0x20\n      add\n      0x00\n      keccak256\n        /* \"WandInstruments.sol\":13646:13685  withheldWithdrawals[msg.sender].amounts */\n      0x01\n      add\n      0x00\n        /* \"WandInstruments.sol\":13646:13692  withheldWithdrawals[msg.sender].amounts += amt */\n      dup3\n      dup3\n      sload\n      tag_354\n      swap2\n      swap1\n      tag_249\n      jump\t// in\n    tag_354:\n      swap3\n      pop\n      pop\n      dup2\n      swap1\n      sstore\n      pop\n        /* \"WandInstruments.sol\":13234:13706  function testUpdatetimeLockedplus(uint256 amt) public  {\r... */\n      pop\n      jump\t// out\n        /* \"WandInstruments.sol\":1160:1177  int128 public res */\n    tag_142:\n      0x12\n      0x00\n      swap1\n      sload\n      swap1\n      0x0100\n      exp\n      swap1\n      div\n      0x0f\n      signextend\n      dup2\n      jump\t// out\n        /* \"WandInstruments.sol\":1507:1532  IERC20 public tokenStable */\n    tag_147:\n      0x17\n      0x00\n      swap1\n      sload\n      swap1\n      0x0100\n      exp\n      swap1\n      div\n      0xffffffffffffffffffffffffffffffffffffffff\n      and\n      dup2\n      jump\t// out\n        /* \"Ownable.sol\":1661:1762  function renounceOwnership() public virtual onlyOwner {... */\n    tag_151:\n        /* \"Ownable.sol\":1252:1264  _msgSender() */\n      tag_356\n        /* \"Ownable.sol\":1252:1262  _msgSender */\n      tag_253\n        /* \"Ownable.sol\":1252:1264  _msgSender() */\n      jump\t// in\n    tag_356:\n        /* \"Ownable.sol\":1241:1264  owner() == _msgSender() */\n      0xffffffffffffffffffffffffffffffffffffffff\n      and\n        /* \"Ownable.sol\":1241:1248  owner() */\n      tag_357\n        /* \"Ownable.sol\":1241:1246  owner */\n      tag_163\n        /* \"Ownable.sol\":1241:1248  owner() */\n      jump\t// in\n    tag_357:\n        /* \"Ownable.sol\":1241:1264  owner() == _msgSender() */\n      0xffffffffffffffffffffffffffffffffffffffff\n      and\n      eq\n        /* \"Ownable.sol\":1233:1301  require(owner() == _msgSender(), \"Ownable: caller is not the owner\") */\n      tag_358\n      jumpi\n      mload(0x40)\n      0x08c379a000000000000000000000000000000000000000000000000000000000\n      dup2\n      mstore\n      0x04\n      add\n      tag_359\n      swap1\n      tag_257\n      jump\t// in\n    tag_359:\n      mload(0x40)\n      dup1\n      swap2\n      sub\n      swap1\n      revert\n    tag_358:\n        /* \"Ownable.sol\":1725:1755  _transferOwnership(address(0)) */\n      tag_361\n        /* \"Ownable.sol\":1752:1753  0 */\n      0x00\n        /* \"Ownable.sol\":1725:1743  _transferOwnership */\n      tag_362\n        /* \"Ownable.sol\":1725:1755  _transferOwnership(address(0)) */\n      jump\t// in\n    tag_361:\n        /* \"Ownable.sol\":1661:1762  function renounceOwnership() public virtual onlyOwner {... */\n      jump\t// out\n        /* \"WandInstruments.sol\":14334:14862  function getTokensBoughtXDays() external view returns (uint256){\r... */\n    tag_154:\n        /* \"WandInstruments.sol\":14389:14396  uint256 */\n      0x00\n        /* \"WandInstruments.sol\":14408:14425  uint256 boughtnum */\n      dup1\n        /* \"WandInstruments.sol\":14436:14445  uint256 d */\n      0x00\n        /* \"WandInstruments.sol\":14456:14471  uint256 numdays */\n      dup1\n        /* \"WandInstruments.sol\":14492:14497  86400 */\n      0x015180\n        /* \"WandInstruments.sol\":14474:14491  daysInCalculation */\n      sload(0x0e)\n        /* \"WandInstruments.sol\":14474:14497  daysInCalculation/86400 */\n      tag_364\n      swap2\n      swap1\n      tag_276\n      jump\t// in\n    tag_364:\n        /* \"WandInstruments.sol\":14456:14497  uint256 numdays = daysInCalculation/86400 */\n      swap1\n      pop\n        /* \"WandInstruments.sol\":14508:14532  uint256 daySinceLaunched */\n      0x00\n        /* \"WandInstruments.sol\":14570:14575  86400 */\n      0x015180\n        /* \"WandInstruments.sol\":14554:14566  timeLaunched */\n      sload(0x0d)\n        /* \"WandInstruments.sol\":14536:14551  block.timestamp */\n      timestamp\n        /* \"WandInstruments.sol\":14536:14566  block.timestamp - timeLaunched */\n      tag_365\n      swap2\n      swap1\n      tag_278\n      jump\t// in\n    tag_365:\n        /* \"WandInstruments.sol\":14535:14575  (block.timestamp - timeLaunched) / 86400 */\n      tag_366\n      swap2\n      swap1\n      tag_276\n      jump\t// in\n    tag_366:\n        /* \"WandInstruments.sol\":14508:14575  uint256 daySinceLaunched = (block.timestamp - timeLaunched) / 86400 */\n      swap1\n      pop\n        /* \"WandInstruments.sol\":14610:14611  0 */\n      0x00\n        /* \"WandInstruments.sol\":14590:14606  daySinceLaunched */\n      dup2\n        /* \"WandInstruments.sol\":14590:14611  daySinceLaunched == 0 */\n      eq\n        /* \"WandInstruments.sol\":14586:14663  if (daySinceLaunched == 0) {\r... */\n      iszero\n      tag_367\n      jumpi\n        /* \"WandInstruments.sol\":14631:14648  tokensBoughtXDays */\n      0x18\n        /* \"WandInstruments.sol\":14631:14651  tokensBoughtXDays[0] */\n      0x00\n        /* \"WandInstruments.sol\":14649:14650  0 */\n      dup1\n        /* \"WandInstruments.sol\":14631:14651  tokensBoughtXDays[0] */\n      dup2\n      mstore\n      0x20\n      add\n      swap1\n      dup2\n      mstore\n      0x20\n      add\n      0x00\n      keccak256\n      sload\n        /* \"WandInstruments.sol\":14624:14651  return tokensBoughtXDays[0] */\n      swap5\n      pop\n      pop\n      pop\n      pop\n      pop\n      jump(tag_363)\n        /* \"WandInstruments.sol\":14586:14663  if (daySinceLaunched == 0) {\r... */\n    tag_367:\n        /* \"WandInstruments.sol\":14701:14708  numdays */\n      dup2\n        /* \"WandInstruments.sol\":14682:14698  daySinceLaunched */\n      dup2\n        /* \"WandInstruments.sol\":14682:14708  daySinceLaunched - numdays */\n      tag_371\n      swap2\n      swap1\n      tag_278\n      jump\t// in\n    tag_371:\n        /* \"WandInstruments.sol\":14678:14708  d = daySinceLaunched - numdays */\n      swap3\n      pop\n        /* \"WandInstruments.sol\":14673:14819  for (d = daySinceLaunched - numdays; d < daySinceLaunched; d++) {  //for loop example\r... */\n    tag_368:\n        /* \"WandInstruments.sol\":14714:14730  daySinceLaunched */\n      dup1\n        /* \"WandInstruments.sol\":14710:14711  d */\n      dup4\n        /* \"WandInstruments.sol\":14710:14730  d < daySinceLaunched */\n      lt\n        /* \"WandInstruments.sol\":14673:14819  for (d = daySinceLaunched - numdays; d < daySinceLaunched; d++) {  //for loop example\r... */\n      iszero\n      tag_369\n      jumpi\n        /* \"WandInstruments.sol\":14783:14800  tokensBoughtXDays */\n      0x18\n        /* \"WandInstruments.sol\":14783:14803  tokensBoughtXDays[d] */\n      0x00\n        /* \"WandInstruments.sol\":14801:14802  d */\n      dup5\n        /* \"WandInstruments.sol\":14783:14803  tokensBoughtXDays[d] */\n      dup2\n      mstore\n      0x20\n      add\n      swap1\n      dup2\n      mstore\n      0x20\n      add\n      0x00\n      keccak256\n      sload\n        /* \"WandInstruments.sol\":14770:14803  boughtnum += tokensBoughtXDays[d] */\n      dup5\n      tag_372\n      swap2\n      swap1\n      tag_249\n      jump\t// in\n    tag_372:\n      swap4\n      pop\n        /* \"WandInstruments.sol\":14732:14735  d++ */\n      dup3\n      dup1\n      tag_373\n      swap1\n      tag_288\n      jump\t// in\n    tag_373:\n      swap4\n      pop\n      pop\n        /* \"WandInstruments.sol\":14673:14819  for (d = daySinceLaunched - numdays; d < daySinceLaunched; d++) {  //for loop example\r... */\n      jump(tag_368)\n    tag_369:\n        /* \"WandInstruments.sol\":14845:14854  boughtnum */\n      dup4\n        /* \"WandInstruments.sol\":14838:14854  return boughtnum */\n      swap5\n      pop\n      pop\n      pop\n      pop\n      pop\n        /* \"WandInstruments.sol\":14334:14862  function getTokensBoughtXDays() external view returns (uint256){\r... */\n    tag_363:\n      swap1\n      jump\t// out\n        /* \"WandInstruments.sol\":7698:8945  function buyScepter(uint256 amountSCPtoBuy, string memory _stableChosen) public nonReentrant{\r... */\n    tag_160:\n        /* \"ReentrancyGuard.sol\":1778:1779  2 */\n      0x02\n        /* \"ReentrancyGuard.sol\":2376:2383  _status */\n      sload(0x00)\n        /* \"ReentrancyGuard.sol\":2376:2395  _status != _ENTERED */\n      eq\n      iszero\n        /* \"ReentrancyGuard.sol\":2368:2431  require(_status != _ENTERED, \"ReentrancyGuard: reentrant call\") */\n      tag_375\n      jumpi\n      mload(0x40)\n      0x08c379a000000000000000000000000000000000000000000000000000000000\n      dup2\n      mstore\n      0x04\n      add\n      tag_376\n      swap1\n      tag_377\n      jump\t// in\n    tag_376:\n      mload(0x40)\n      dup1\n      swap2\n      sub\n      swap1\n      revert\n    tag_375:\n        /* \"ReentrancyGuard.sol\":1778:1779  2 */\n      0x02\n        /* \"ReentrancyGuard.sol\":2509:2516  _status */\n      0x00\n        /* \"ReentrancyGuard.sol\":2509:2527  _status = _ENTERED */\n      dup2\n      swap1\n      sstore\n      pop\n        /* \"WandInstruments.sol\":7883:7898  stableERC20Info */\n      0x1b\n        /* \"WandInstruments.sol\":7899:7912  _stableChosen */\n      dup2\n        /* \"WandInstruments.sol\":7883:7913  stableERC20Info[_stableChosen] */\n      mload(0x40)\n      tag_379\n      swap2\n      swap1\n      tag_380\n      jump\t// in\n    tag_379:\n      swap1\n      dup2\n      mstore\n      0x20\n      add\n      mload(0x40)\n      dup1\n      swap2\n      sub\n      swap1\n      keccak256\n        /* \"WandInstruments.sol\":7883:7929  stableERC20Info[_stableChosen].contractAddress */\n      0x00\n      add\n      0x00\n      swap1\n      sload\n      swap1\n      0x0100\n      exp\n      swap1\n      div\n      0xffffffffffffffffffffffffffffffffffffffff\n      and\n        /* \"WandInstruments.sol\":7862:7873  tokenStable */\n      0x17\n      0x00\n        /* \"WandInstruments.sol\":7862:7930  tokenStable = IERC20(stableERC20Info[_stableChosen].contractAddress) */\n      0x0100\n      exp\n      dup2\n      sload\n      dup2\n      0xffffffffffffffffffffffffffffffffffffffff\n      mul\n      not\n      and\n      swap1\n      dup4\n      0xffffffffffffffffffffffffffffffffffffffff\n      and\n      mul\n      or\n      swap1\n      sstore\n      pop\n        /* \"WandInstruments.sol\":7967:7973  250000 */\n      0x03d090\n        /* \"WandInstruments.sol\":7949:7963  amountSCPtoBuy */\n      dup3\n        /* \"WandInstruments.sol\":7949:7973  amountSCPtoBuy <= 250000 */\n      gt\n      iszero\n        /* \"WandInstruments.sol\":7941:8000  require(amountSCPtoBuy <= 250000 , \"Per transaction limit\") */\n      tag_381\n      jumpi\n      mload(0x40)\n      0x08c379a000000000000000000000000000000000000000000000000000000000\n      dup2\n      mstore\n      0x04\n      add\n      tag_382\n      swap1\n      tag_383\n      jump\t// in\n    tag_382:\n      mload(0x40)\n      dup1\n      swap2\n      sub\n      swap1\n      revert\n    tag_381:\n        /* \"WandInstruments.sol\":8011:8038  uint256 trader_usdc_balance */\n      0x00\n        /* \"WandInstruments.sol\":8041:8052  tokenStable */\n      0x17\n      0x00\n      swap1\n      sload\n      swap1\n      0x0100\n      exp\n      swap1\n      div\n      0xffffffffffffffffffffffffffffffffffffffff\n      and\n        /* \"WandInstruments.sol\":8041:8062  tokenStable.balanceOf */\n      0xffffffffffffffffffffffffffffffffffffffff\n      and\n      0x70a08231\n        /* \"WandInstruments.sol\":8063:8073  msg.sender */\n      caller\n        /* \"WandInstruments.sol\":8041:8074  tokenStable.balanceOf(msg.sender) */\n      mload(0x40)\n      dup3\n      0xffffffff\n      and\n      0xe0\n      shl\n      dup2\n      mstore\n      0x04\n      add\n      tag_384\n      swap2\n      swap1\n      tag_64\n      jump\t// in\n    tag_384:\n      0x20\n      mload(0x40)\n      dup1\n      dup4\n      sub\n      dup2\n      dup7\n      dup1\n      extcodesize\n      iszero\n      dup1\n      iszero\n      tag_385\n      jumpi\n      0x00\n      dup1\n      revert\n    tag_385:\n      pop\n      gas\n      staticcall\n      iszero\n      dup1\n      iszero\n      tag_387\n      jumpi\n      returndatasize\n      0x00\n      dup1\n      returndatacopy\n      revert(0x00, returndatasize)\n    tag_387:\n      pop\n      pop\n      pop\n      pop\n      mload(0x40)\n      returndatasize\n      not(0x1f)\n      0x1f\n      dup3\n      add\n      and\n      dup3\n      add\n      dup1\n      0x40\n      mstore\n      pop\n      dup2\n      add\n      swap1\n      tag_388\n      swap2\n      swap1\n      tag_243\n      jump\t// in\n    tag_388:\n        /* \"WandInstruments.sol\":8011:8074  uint256 trader_usdc_balance = tokenStable.balanceOf(msg.sender) */\n      swap1\n      pop\n        /* \"WandInstruments.sol\":8115:8129  amountSCPtoBuy */\n      dup3\n        /* \"WandInstruments.sol\":8093:8112  trader_usdc_balance */\n      dup2\n        /* \"WandInstruments.sol\":8093:8129  trader_usdc_balance > amountSCPtoBuy */\n      gt\n        /* \"WandInstruments.sol\":8085:8160  require(trader_usdc_balance > amountSCPtoBuy, \"You dont have that amount!\") */\n      tag_389\n      jumpi\n      mload(0x40)\n      0x08c379a000000000000000000000000000000000000000000000000000000000\n      dup2\n      mstore\n      0x04\n      add\n      tag_390\n      swap1\n      tag_320\n      jump\t// in\n    tag_390:\n      mload(0x40)\n      dup1\n      swap2\n      sub\n      swap1\n      revert\n    tag_389:\n        /* \"WandInstruments.sol\":8227:8246  uint256 usdAmtToPay */\n      0x00\n        /* \"WandInstruments.sol\":8318:8333  stableERC20Info */\n      0x1b\n        /* \"WandInstruments.sol\":8334:8347  _stableChosen */\n      dup4\n        /* \"WandInstruments.sol\":8318:8348  stableERC20Info[_stableChosen] */\n      mload(0x40)\n      tag_391\n      swap2\n      swap1\n      tag_380\n      jump\t// in\n    tag_391:\n      swap1\n      dup2\n      mstore\n      0x20\n      add\n      mload(0x40)\n      dup1\n      swap2\n      sub\n      swap1\n      keccak256\n        /* \"WandInstruments.sol\":8318:8362  stableERC20Info[_stableChosen].tokenDecimals */\n      0x01\n      add\n      sload\n        /* \"WandInstruments.sol\":8271:8315  decMul18(amountSCPtoBuy, this.getBuyPrice()) */\n      tag_392\n        /* \"WandInstruments.sol\":8280:8294  amountSCPtoBuy */\n      dup6\n        /* \"WandInstruments.sol\":8296:8300  this */\n      address\n        /* \"WandInstruments.sol\":8296:8312  this.getBuyPrice */\n      0xffffffffffffffffffffffffffffffffffffffff\n      and\n      0x018a25e8\n        /* \"WandInstruments.sol\":8296:8314  this.getBuyPrice() */\n      mload(0x40)\n      dup2\n      0xffffffff\n      and\n      0xe0\n      shl\n      dup2\n      mstore\n      0x04\n      add\n      0x20\n      mload(0x40)\n      dup1\n      dup4\n      sub\n      dup2\n      dup7\n      dup1\n      extcodesize\n      iszero\n      dup1\n      iszero\n      tag_393\n      jumpi\n      0x00\n      dup1\n      revert\n    tag_393:\n      pop\n      gas\n      staticcall\n      iszero\n      dup1\n      iszero\n      tag_395\n      jumpi\n      returndatasize\n      0x00\n      dup1\n      returndatacopy\n      revert(0x00, returndatasize)\n    tag_395:\n      pop\n      pop\n      pop\n      pop\n      mload(0x40)\n      returndatasize\n      not(0x1f)\n      0x1f\n      dup3\n      add\n      and\n      dup3\n      add\n      dup1\n      0x40\n      mstore\n      pop\n      dup2\n      add\n      swap1\n      tag_396\n      swap2\n      swap1\n      tag_243\n      jump\t// in\n    tag_396:\n        /* \"WandInstruments.sol\":8271:8279  decMul18 */\n      tag_250\n        /* \"WandInstruments.sol\":8271:8315  decMul18(amountSCPtoBuy, this.getBuyPrice()) */\n      jump\t// in\n    tag_392:\n        /* \"WandInstruments.sol\":8271:8362  decMul18(amountSCPtoBuy, this.getBuyPrice()) * stableERC20Info[_stableChosen].tokenDecimals */\n      tag_397\n      swap2\n      swap1\n      tag_330\n      jump\t// in\n    tag_397:\n        /* \"WandInstruments.sol\":8257:8362  usdAmtToPay = decMul18(amountSCPtoBuy, this.getBuyPrice()) * stableERC20Info[_stableChosen].tokenDecimals */\n      swap1\n      pop\n        /* \"WandInstruments.sol\":8418:8488  _safeTransferFrom(tokenStable, msg.sender, address(this), usdAmtToPay) */\n      tag_398\n        /* \"WandInstruments.sol\":8436:8447  tokenStable */\n      0x17\n      0x00\n      swap1\n      sload\n      swap1\n      0x0100\n      exp\n      swap1\n      div\n      0xffffffffffffffffffffffffffffffffffffffff\n      and\n        /* \"WandInstruments.sol\":8449:8459  msg.sender */\n      caller\n        /* \"WandInstruments.sol\":8469:8473  this */\n      address\n        /* \"WandInstruments.sol\":8476:8487  usdAmtToPay */\n      dup5\n        /* \"WandInstruments.sol\":8418:8435  _safeTransferFrom */\n      tag_322\n        /* \"WandInstruments.sol\":8418:8488  _safeTransferFrom(tokenStable, msg.sender, address(this), usdAmtToPay) */\n      jump\t// in\n    tag_398:\n        /* \"WandInstruments.sol\":8507:8511  SPTR */\n      0x14\n      0x00\n      swap1\n      sload\n      swap1\n      0x0100\n      exp\n      swap1\n      div\n      0xffffffffffffffffffffffffffffffffffffffff\n      and\n        /* \"WandInstruments.sol\":8507:8516  SPTR.mint */\n      0xffffffffffffffffffffffffffffffffffffffff\n      and\n      0x40c10f19\n        /* \"WandInstruments.sol\":8517:8527  msg.sender */\n      caller\n        /* \"WandInstruments.sol\":370:376  10**18 */\n      0x0de0b6b3a7640000\n        /* \"WandInstruments.sol\":8528:8542  amountSCPtoBuy */\n      dup8\n        /* \"WandInstruments.sol\":8528:8553  amountSCPtoBuy * DECIMALS */\n      tag_399\n      swap2\n      swap1\n      tag_330\n      jump\t// in\n    tag_399:\n        /* \"WandInstruments.sol\":8507:8554  SPTR.mint(msg.sender,amountSCPtoBuy * DECIMALS) */\n      mload(0x40)\n      dup4\n      0xffffffff\n      and\n      0xe0\n      shl\n      dup2\n      mstore\n      0x04\n      add\n      tag_400\n      swap3\n      swap2\n      swap1\n      tag_179\n      jump\t// in\n    tag_400:\n      0x00\n      mload(0x40)\n      dup1\n      dup4\n      sub\n      dup2\n      0x00\n      dup8\n      dup1\n      extcodesize\n      iszero\n      dup1\n      iszero\n      tag_401\n      jumpi\n      0x00\n      dup1\n      revert\n    tag_401:\n      pop\n      gas\n      call\n      iszero\n      dup1\n      iszero\n      tag_403\n      jumpi\n      returndatasize\n      0x00\n      dup1\n      returndatacopy\n      revert(0x00, returndatasize)\n    tag_403:\n      pop\n      pop\n      pop\n      pop\n        /* \"WandInstruments.sol\":8565:8569  WAND */\n      0x15\n      0x00\n      swap1\n      sload\n      swap1\n      0x0100\n      exp\n      swap1\n      div\n      0xffffffffffffffffffffffffffffffffffffffff\n      and\n        /* \"WandInstruments.sol\":8565:8574  WAND.mint */\n      0xffffffffffffffffffffffffffffffffffffffff\n      and\n      0x40c10f19\n        /* \"WandInstruments.sol\":8583:8587  this */\n      address\n        /* \"WandInstruments.sol\":370:376  10**18 */\n      0x0de0b6b3a7640000\n        /* \"WandInstruments.sol\":8589:8603  amountSCPtoBuy */\n      dup8\n        /* \"WandInstruments.sol\":8589:8614  amountSCPtoBuy * DECIMALS */\n      tag_404\n      swap2\n      swap1\n      tag_330\n      jump\t// in\n    tag_404:\n        /* \"WandInstruments.sol\":8565:8615  WAND.mint(address(this),amountSCPtoBuy * DECIMALS) */\n      mload(0x40)\n      dup4\n      0xffffffff\n      and\n      0xe0\n      shl\n      dup2\n      mstore\n      0x04\n      add\n      tag_405\n      swap3\n      swap2\n      swap1\n      tag_179\n      jump\t// in\n    tag_405:\n      0x00\n      mload(0x40)\n      dup1\n      dup4\n      sub\n      dup2\n      0x00\n      dup8\n      dup1\n      extcodesize\n      iszero\n      dup1\n      iszero\n      tag_406\n      jumpi\n      0x00\n      dup1\n      revert\n    tag_406:\n      pop\n      gas\n      call\n      iszero\n      dup1\n      iszero\n      tag_408\n      jumpi\n      returndatasize\n      0x00\n      dup1\n      returndatacopy\n      revert(0x00, returndatasize)\n    tag_408:\n      pop\n      pop\n      pop\n      pop\n        /* \"WandInstruments.sol\":8704:8720  uint256 dInArray */\n      0x00\n        /* \"WandInstruments.sol\":8754:8759  86400 */\n      0x015180\n        /* \"WandInstruments.sol\":8740:8752  timeLaunched */\n      sload(0x0d)\n        /* \"WandInstruments.sol\":8723:8738  block.timestamp */\n      timestamp\n        /* \"WandInstruments.sol\":8723:8752  block.timestamp- timeLaunched */\n      tag_409\n      swap2\n      swap1\n      tag_278\n      jump\t// in\n    tag_409:\n        /* \"WandInstruments.sol\":8722:8759  (block.timestamp- timeLaunched)/86400 */\n      tag_410\n      swap2\n      swap1\n      tag_276\n      jump\t// in\n    tag_410:\n        /* \"WandInstruments.sol\":8704:8759  uint256 dInArray =(block.timestamp- timeLaunched)/86400 */\n      swap1\n      pop\n        /* \"WandInstruments.sol\":8802:8816  amountSCPtoBuy */\n      dup5\n        /* \"WandInstruments.sol\":8771:8788  tokensBoughtXDays */\n      0x18\n        /* \"WandInstruments.sol\":8771:8798  tokensBoughtXDays[dInArray] */\n      0x00\n        /* \"WandInstruments.sol\":8789:8797  dInArray */\n      dup4\n        /* \"WandInstruments.sol\":8771:8798  tokensBoughtXDays[dInArray] */\n      dup2\n      mstore\n      0x20\n      add\n      swap1\n      dup2\n      mstore\n      0x20\n      add\n      0x00\n      keccak256\n      0x00\n        /* \"WandInstruments.sol\":8771:8816  tokensBoughtXDays[dInArray] += amountSCPtoBuy */\n      dup3\n      dup3\n      sload\n      tag_411\n      swap2\n      swap1\n      tag_249\n      jump\t// in\n    tag_411:\n      swap3\n      pop\n      pop\n      dup2\n      swap1\n      sstore\n      pop\n        /* \"WandInstruments.sol\":8863:8877  amountSCPtoBuy */\n      dup5\n        /* \"WandInstruments.sol\":8827:8849  circulatingSupplyXDays */\n      0x1a\n        /* \"WandInstruments.sol\":8827:8859  circulatingSupplyXDays[dInArray] */\n      0x00\n        /* \"WandInstruments.sol\":8850:8858  dInArray */\n      dup4\n        /* \"WandInstruments.sol\":8827:8859  circulatingSupplyXDays[dInArray] */\n      dup2\n      mstore\n      0x20\n      add\n      swap1\n      dup2\n      mstore\n      0x20\n      add\n      0x00\n      keccak256\n      0x00\n        /* \"WandInstruments.sol\":8827:8877  circulatingSupplyXDays[dInArray] += amountSCPtoBuy */\n      dup3\n      dup3\n      sload\n      tag_412\n      swap2\n      swap1\n      tag_249\n      jump\t// in\n    tag_412:\n      swap3\n      pop\n      pop\n      dup2\n      swap1\n      sstore\n      pop\n        /* \"WandInstruments.sol\":8910:8920  msg.sender */\n      caller\n        /* \"WandInstruments.sol\":8895:8937  sceptersBought(msg.sender, amountSCPtoBuy) */\n      0xffffffffffffffffffffffffffffffffffffffff\n      and\n      0xf633443b01504d269657083d48bb6de98e089cfff672b47fefbed21608b5c779\n        /* \"WandInstruments.sol\":8922:8936  amountSCPtoBuy */\n      dup7\n        /* \"WandInstruments.sol\":8895:8937  sceptersBought(msg.sender, amountSCPtoBuy) */\n      mload(0x40)\n      tag_413\n      swap2\n      swap1\n      tag_56\n      jump\t// in\n    tag_413:\n      mload(0x40)\n      dup1\n      swap2\n      sub\n      swap1\n      log2\n        /* \"WandInstruments.sol\":7790:8945  {\r... */\n      pop\n      pop\n      pop\n        /* \"ReentrancyGuard.sol\":1734:1735  1 */\n      0x01\n        /* \"ReentrancyGuard.sol\":2688:2695  _status */\n      0x00\n        /* \"ReentrancyGuard.sol\":2688:2710  _status = _NOT_ENTERED */\n      dup2\n      swap1\n      sstore\n      pop\n        /* \"WandInstruments.sol\":7698:8945  function buyScepter(uint256 amountSCPtoBuy, string memory _stableChosen) public nonReentrant{\r... */\n      pop\n      pop\n      jump\t// out\n        /* \"Ownable.sol\":1029:1114  function owner() public view virtual returns (address) {... */\n    tag_163:\n        /* \"Ownable.sol\":1075:1082  address */\n      0x00\n        /* \"Ownable.sol\":1101:1107  _owner */\n      0x01\n      0x00\n      swap1\n      sload\n      swap1\n      0x0100\n      exp\n      swap1\n      div\n      0xffffffffffffffffffffffffffffffffffffffff\n      and\n        /* \"Ownable.sol\":1094:1107  return _owner */\n      swap1\n      pop\n        /* \"Ownable.sol\":1029:1114  function owner() public view virtual returns (address) {... */\n      swap1\n      jump\t// out\n        /* \"WandInstruments.sol\":9493:10396  function getGrowthFactor() external view returns (uint256){\r... */\n    tag_167:\n        /* \"WandInstruments.sol\":9543:9550  uint256 */\n      0x00\n        /* \"WandInstruments.sol\":9695:9706  uint256 _gF */\n      dup1\n        /* \"WandInstruments.sol\":9717:9740  uint256 xDaysCircSupply */\n      0x00\n        /* \"WandInstruments.sol\":9751:9766  uint256 numdays */\n      dup1\n        /* \"WandInstruments.sol\":9787:9792  86400 */\n      0x015180\n        /* \"WandInstruments.sol\":9769:9786  daysInCalculation */\n      sload(0x0e)\n        /* \"WandInstruments.sol\":9769:9792  daysInCalculation/86400 */\n      tag_416\n      swap2\n      swap1\n      tag_276\n      jump\t// in\n    tag_416:\n        /* \"WandInstruments.sol\":9751:9792  uint256 numdays = daysInCalculation/86400 */\n      swap1\n      pop\n        /* \"WandInstruments.sol\":9803:9827  uint256 daySinceLaunched */\n      0x00\n        /* \"WandInstruments.sol\":9865:9870  86400 */\n      0x015180\n        /* \"WandInstruments.sol\":9849:9861  timeLaunched */\n      sload(0x0d)\n        /* \"WandInstruments.sol\":9831:9846  block.timestamp */\n      timestamp\n        /* \"WandInstruments.sol\":9831:9861  block.timestamp - timeLaunched */\n      tag_417\n      swap2\n      swap1\n      tag_278\n      jump\t// in\n    tag_417:\n        /* \"WandInstruments.sol\":9830:9870  (block.timestamp - timeLaunched) / 86400 */\n      tag_418\n      swap2\n      swap1\n      tag_276\n      jump\t// in\n    tag_418:\n        /* \"WandInstruments.sol\":9803:9870  uint256 daySinceLaunched = (block.timestamp - timeLaunched) / 86400 */\n      swap1\n      pop\n        /* \"WandInstruments.sol\":9881:9890  uint256 d */\n      0x00\n        /* \"WandInstruments.sol\":9935:9936  0 */\n      dup1\n        /* \"WandInstruments.sol\":9915:9931  daySinceLaunched */\n      dup3\n        /* \"WandInstruments.sol\":9915:9936  daySinceLaunched == 0 */\n      eq\n        /* \"WandInstruments.sol\":9911:10203  if (daySinceLaunched == 0) {\r... */\n      iszero\n      tag_419\n      jumpi\n        /* \"WandInstruments.sol\":9967:9989  circulatingSupplyXDays */\n      0x1a\n        /* \"WandInstruments.sol\":9967:9992  circulatingSupplyXDays[0] */\n      0x00\n        /* \"WandInstruments.sol\":9990:9991  0 */\n      dup1\n        /* \"WandInstruments.sol\":9967:9992  circulatingSupplyXDays[0] */\n      dup2\n      mstore\n      0x20\n      add\n      swap1\n      dup2\n      mstore\n      0x20\n      add\n      0x00\n      keccak256\n      sload\n        /* \"WandInstruments.sol\":9949:9992  xDaysCircSupply = circulatingSupplyXDays[0] */\n      swap4\n      pop\n        /* \"WandInstruments.sol\":9911:10203  if (daySinceLaunched == 0) {\r... */\n      jump(tag_420)\n    tag_419:\n        /* \"WandInstruments.sol\":10061:10068  numdays */\n      dup3\n        /* \"WandInstruments.sol\":10042:10058  daySinceLaunched */\n      dup3\n        /* \"WandInstruments.sol\":10042:10068  daySinceLaunched - numdays */\n      tag_424\n      swap2\n      swap1\n      tag_278\n      jump\t// in\n    tag_424:\n        /* \"WandInstruments.sol\":10038:10068  d = daySinceLaunched - numdays */\n      swap1\n      pop\n        /* \"WandInstruments.sol\":10033:10192  for (d = daySinceLaunched - numdays; d < daySinceLaunched; d++) {  //for loop example\r... */\n    tag_421:\n        /* \"WandInstruments.sol\":10074:10090  daySinceLaunched */\n      dup2\n        /* \"WandInstruments.sol\":10070:10071  d */\n      dup2\n        /* \"WandInstruments.sol\":10070:10090  d < daySinceLaunched */\n      lt\n        /* \"WandInstruments.sol\":10033:10192  for (d = daySinceLaunched - numdays; d < daySinceLaunched; d++) {  //for loop example\r... */\n      iszero\n      tag_422\n      jumpi\n        /* \"WandInstruments.sol\":10151:10173  circulatingSupplyXDays */\n      0x1a\n        /* \"WandInstruments.sol\":10151:10176  circulatingSupplyXDays[d] */\n      0x00\n        /* \"WandInstruments.sol\":10174:10175  d */\n      dup3\n        /* \"WandInstruments.sol\":10151:10176  circulatingSupplyXDays[d] */\n      dup2\n      mstore\n      0x20\n      add\n      swap1\n      dup2\n      mstore\n      0x20\n      add\n      0x00\n      keccak256\n      sload\n        /* \"WandInstruments.sol\":10132:10176  xDaysCircSupply += circulatingSupplyXDays[d] */\n      dup5\n      tag_425\n      swap2\n      swap1\n      tag_249\n      jump\t// in\n    tag_425:\n      swap4\n      pop\n        /* \"WandInstruments.sol\":10092:10095  d++ */\n      dup1\n      dup1\n      tag_426\n      swap1\n      tag_288\n      jump\t// in\n    tag_426:\n      swap2\n      pop\n      pop\n        /* \"WandInstruments.sol\":10033:10192  for (d = daySinceLaunched - numdays; d < daySinceLaunched; d++) {  //for loop example\r... */\n      jump(tag_421)\n    tag_422:\n        /* \"WandInstruments.sol\":9911:10203  if (daySinceLaunched == 0) {\r... */\n    tag_420:\n        /* \"WandInstruments.sol\":10218:10271  decDiv18(this.getTokensBoughtXDays(),xDaysCircSupply) */\n      tag_427\n        /* \"WandInstruments.sol\":10227:10231  this */\n      address\n        /* \"WandInstruments.sol\":10227:10252  this.getTokensBoughtXDays */\n      0xffffffffffffffffffffffffffffffffffffffff\n      and\n      0x71cd58f9\n        /* \"WandInstruments.sol\":10227:10254  this.getTokensBoughtXDays() */\n      mload(0x40)\n      dup2\n      0xffffffff\n      and\n      0xe0\n      shl\n      dup2\n      mstore\n      0x04\n      add\n      0x20\n      mload(0x40)\n      dup1\n      dup4\n      sub\n      dup2\n      dup7\n      dup1\n      extcodesize\n      iszero\n      dup1\n      iszero\n      tag_428\n      jumpi\n      0x00\n      dup1\n      revert\n    tag_428:\n      pop\n      gas\n      staticcall\n      iszero\n      dup1\n      iszero\n      tag_430\n      jumpi\n      returndatasize\n      0x00\n      dup1\n      returndatacopy\n      revert(0x00, returndatasize)\n    tag_430:\n      pop\n      pop\n      pop\n      pop\n      mload(0x40)\n      returndatasize\n      not(0x1f)\n      0x1f\n      dup3\n      add\n      and\n      dup3\n      add\n      dup1\n      0x40\n      mstore\n      pop\n      dup2\n      add\n      swap1\n      tag_431\n      swap2\n      swap1\n      tag_243\n      jump\t// in\n    tag_431:\n        /* \"WandInstruments.sol\":10255:10270  xDaysCircSupply */\n      dup6\n        /* \"WandInstruments.sol\":10218:10226  decDiv18 */\n      tag_294\n        /* \"WandInstruments.sol\":10218:10271  decDiv18(this.getTokensBoughtXDays(),xDaysCircSupply) */\n      jump\t// in\n    tag_427:\n        /* \"WandInstruments.sol\":10212:10271  _gF = decDiv18(this.getTokensBoughtXDays(),xDaysCircSupply) */\n      swap5\n      pop\n        /* \"WandInstruments.sol\":10291:10309  300000000000000000 */\n      0x0429d069189e0000\n        /* \"WandInstruments.sol\":10285:10288  _gF */\n      dup6\n        /* \"WandInstruments.sol\":10285:10309  _gF > 300000000000000000 */\n      gt\n        /* \"WandInstruments.sol\":10281:10368  if (_gF > 300000000000000000)\r... */\n      iszero\n      tag_432\n      jumpi\n        /* \"WandInstruments.sol\":10339:10357  300000000000000000 */\n      0x0429d069189e0000\n        /* \"WandInstruments.sol\":10333:10357  _gF = 300000000000000000 */\n      swap5\n      pop\n        /* \"WandInstruments.sol\":10281:10368  if (_gF > 300000000000000000)\r... */\n    tag_432:\n        /* \"WandInstruments.sol\":10384:10387  _gF */\n      dup5\n        /* \"WandInstruments.sol\":10377:10387  return _gF */\n      swap6\n      pop\n      pop\n      pop\n      pop\n      pop\n      pop\n        /* \"WandInstruments.sol\":9493:10396  function getGrowthFactor() external view returns (uint256){\r... */\n      swap1\n      jump\t// out\n        /* \"WandInstruments.sol\":15603:15692  function whitelist(address _addr) public onlyOwner {  \r... */\n    tag_172:\n        /* \"Ownable.sol\":1252:1264  _msgSender() */\n      tag_434\n        /* \"Ownable.sol\":1252:1262  _msgSender */\n      tag_253\n        /* \"Ownable.sol\":1252:1264  _msgSender() */\n      jump\t// in\n    tag_434:\n        /* \"Ownable.sol\":1241:1264  owner() == _msgSender() */\n      0xffffffffffffffffffffffffffffffffffffffff\n      and\n        /* \"Ownable.sol\":1241:1248  owner() */\n      tag_435\n        /* \"Ownable.sol\":1241:1246  owner */\n      tag_163\n        /* \"Ownable.sol\":1241:1248  owner() */\n      jump\t// in\n    tag_435:\n        /* \"Ownable.sol\":1241:1264  owner() == _msgSender() */\n      0xffffffffffffffffffffffffffffffffffffffff\n      and\n      eq\n        /* \"Ownable.sol\":1233:1301  require(owner() == _msgSender(), \"Ownable: caller is not the owner\") */\n      tag_436\n      jumpi\n      mload(0x40)\n      0x08c379a000000000000000000000000000000000000000000000000000000000\n      dup2\n      mstore\n      0x04\n      add\n      tag_437\n      swap1\n      tag_257\n      jump\t// in\n    tag_437:\n      mload(0x40)\n      dup1\n      swap2\n      sub\n      swap1\n      revert\n    tag_436:\n        /* \"WandInstruments.sol\":15603:15692  function whitelist(address _addr) public onlyOwner {  \r... */\n      pop\n      jump\t// out\n        /* \"WandInstruments.sol\":1894:1955  mapping (string => stableTokensParams) public stableERC20Info */\n    tag_177:\n      0x1b\n      dup2\n      dup1\n      mload\n      0x20\n      dup2\n      add\n      dup3\n      add\n      dup1\n      mload\n      dup5\n      dup3\n      mstore\n      0x20\n      dup4\n      add\n      0x20\n      dup6\n      add\n      keccak256\n      dup2\n      dup4\n      mstore\n      dup1\n      swap6\n      pop\n      pop\n      pop\n      pop\n      pop\n      pop\n      0x00\n      swap2\n      pop\n      swap1\n      pop\n      dup1\n      0x00\n      add\n      0x00\n      swap1\n      sload\n      swap1\n      0x0100\n      exp\n      swap1\n      div\n      0xffffffffffffffffffffffffffffffffffffffff\n      and\n      swap1\n      dup1\n      0x01\n      add\n      sload\n      swap1\n      pop\n      dup3\n      jump\t// out\n        /* \"WandInstruments.sol\":12090:12310  function updateSPTRTreasuryBal() external {\r... */\n    tag_182:\n        /* \"WandInstruments.sol\":12164:12179  stableERC20Info */\n      0x1b\n        /* \"WandInstruments.sol\":12164:12187  stableERC20Info[\"USDC\"] */\n      mload(0x40)\n      tag_440\n      swap1\n      tag_441\n      jump\t// in\n    tag_440:\n      swap1\n      dup2\n      mstore\n      0x20\n      add\n      mload(0x40)\n      dup1\n      swap2\n      sub\n      swap1\n      keccak256\n        /* \"WandInstruments.sol\":12164:12203  stableERC20Info[\"USDC\"].contractAddress */\n      0x00\n      add\n      0x00\n      swap1\n      sload\n      swap1\n      0x0100\n      exp\n      swap1\n      div\n      0xffffffffffffffffffffffffffffffffffffffff\n      and\n        /* \"WandInstruments.sol\":12143:12154  tokenStable */\n      0x17\n      0x00\n        /* \"WandInstruments.sol\":12143:12204  tokenStable = IERC20(stableERC20Info[\"USDC\"].contractAddress) */\n      0x0100\n      exp\n      dup2\n      sload\n      dup2\n      0xffffffffffffffffffffffffffffffffffffffff\n      mul\n      not\n      and\n      swap1\n      dup4\n      0xffffffffffffffffffffffffffffffffffffffff\n      and\n      mul\n      or\n      swap1\n      sstore\n      pop\n        /* \"WandInstruments.sol\":12090:12310  function updateSPTRTreasuryBal() external {\r... */\n      jump\t// out\n        /* \"WandInstruments.sol\":8953:9460  function claimLockedUSDC(address _claimant, string memory _stableChosen) public {\r... */\n    tag_187:\n        /* \"WandInstruments.sol\":9072:9091  withheldWithdrawals */\n      0x1c\n        /* \"WandInstruments.sol\":9072:9102  withheldWithdrawals[_claimant] */\n      0x00\n        /* \"WandInstruments.sol\":9092:9101  _claimant */\n      dup4\n        /* \"WandInstruments.sol\":9072:9102  withheldWithdrawals[_claimant] */\n      0xffffffffffffffffffffffffffffffffffffffff\n      and\n      0xffffffffffffffffffffffffffffffffffffffff\n      and\n      dup2\n      mstore\n      0x20\n      add\n      swap1\n      dup2\n      mstore\n      0x20\n      add\n      0x00\n      keccak256\n        /* \"WandInstruments.sol\":9072:9115  withheldWithdrawals[_claimant].timeUnlocked */\n      0x00\n      add\n      sload\n        /* \"WandInstruments.sol\":9053:9068  block.timestamp */\n      timestamp\n        /* \"WandInstruments.sol\":9053:9115  block.timestamp >= withheldWithdrawals[_claimant].timeUnlocked */\n      lt\n      iszero\n        /* \"WandInstruments.sol\":9044:9132  require (block.timestamp >= withheldWithdrawals[_claimant].timeUnlocked, \"Not unlocked\") */\n      tag_443\n      jumpi\n      mload(0x40)\n      0x08c379a000000000000000000000000000000000000000000000000000000000\n      dup2\n      mstore\n      0x04\n      add\n      tag_444\n      swap1\n      tag_445\n      jump\t// in\n    tag_444:\n      mload(0x40)\n      dup1\n      swap2\n      sub\n      swap1\n      revert\n    tag_443:\n        /* \"WandInstruments.sol\":9164:9179  stableERC20Info */\n      0x1b\n        /* \"WandInstruments.sol\":9180:9193  _stableChosen */\n      dup2\n        /* \"WandInstruments.sol\":9164:9194  stableERC20Info[_stableChosen] */\n      mload(0x40)\n      tag_446\n      swap2\n      swap1\n      tag_380\n      jump\t// in\n    tag_446:\n      swap1\n      dup2\n      mstore\n      0x20\n      add\n      mload(0x40)\n      dup1\n      swap2\n      sub\n      swap1\n      keccak256\n        /* \"WandInstruments.sol\":9164:9210  stableERC20Info[_stableChosen].contractAddress */\n      0x00\n      add\n      0x00\n      swap1\n      sload\n      swap1\n      0x0100\n      exp\n      swap1\n      div\n      0xffffffffffffffffffffffffffffffffffffffff\n      and\n        /* \"WandInstruments.sol\":9143:9154  tokenStable */\n      0x17\n      0x00\n        /* \"WandInstruments.sol\":9143:9211  tokenStable = IERC20(stableERC20Info[_stableChosen].contractAddress) */\n      0x0100\n      exp\n      dup2\n      sload\n      dup2\n      0xffffffffffffffffffffffffffffffffffffffff\n      mul\n      not\n      and\n      swap1\n      dup4\n      0xffffffffffffffffffffffffffffffffffffffff\n      and\n      mul\n      or\n      swap1\n      sstore\n      pop\n        /* \"WandInstruments.sol\":9293:9310  uint256 claimAmts */\n      0x00\n        /* \"WandInstruments.sol\":9333:9352  withheldWithdrawals */\n      0x1c\n        /* \"WandInstruments.sol\":9333:9363  withheldWithdrawals[_claimant] */\n      0x00\n        /* \"WandInstruments.sol\":9353:9362  _claimant */\n      dup5\n        /* \"WandInstruments.sol\":9333:9363  withheldWithdrawals[_claimant] */\n      0xffffffffffffffffffffffffffffffffffffffff\n      and\n      0xffffffffffffffffffffffffffffffffffffffff\n      and\n      dup2\n      mstore\n      0x20\n      add\n      swap1\n      dup2\n      mstore\n      0x20\n      add\n      0x00\n      keccak256\n        /* \"WandInstruments.sol\":9333:9371  withheldWithdrawals[_claimant].amounts */\n      0x01\n      add\n      sload\n        /* \"WandInstruments.sol\":9321:9371  claimAmts = withheldWithdrawals[_claimant].amounts */\n      swap1\n      pop\n        /* \"WandInstruments.sol\":9382:9450  _safeTransferFrom(tokenStable, address(this), msg.sender, claimAmts) */\n      tag_447\n        /* \"WandInstruments.sol\":9400:9411  tokenStable */\n      0x17\n      0x00\n      swap1\n      sload\n      swap1\n      0x0100\n      exp\n      swap1\n      div\n      0xffffffffffffffffffffffffffffffffffffffff\n      and\n        /* \"WandInstruments.sol\":9421:9425  this */\n      address\n        /* \"WandInstruments.sol\":9428:9438  msg.sender */\n      caller\n        /* \"WandInstruments.sol\":9440:9449  claimAmts */\n      dup5\n        /* \"WandInstruments.sol\":9382:9399  _safeTransferFrom */\n      tag_322\n        /* \"WandInstruments.sol\":9382:9450  _safeTransferFrom(tokenStable, address(this), msg.sender, claimAmts) */\n      jump\t// in\n    tag_447:\n        /* \"WandInstruments.sol\":9033:9460  {\r... */\n      pop\n        /* \"WandInstruments.sol\":8953:9460  function claimLockedUSDC(address _claimant, string memory _stableChosen) public {\r... */\n      pop\n      pop\n      jump\t// out\n        /* \"WandInstruments.sol\":668:702  address public scepterTreasuryAddr */\n    tag_190:\n      0x09\n      0x00\n      swap1\n      sload\n      swap1\n      0x0100\n      exp\n      swap1\n      div\n      0xffffffffffffffffffffffffffffffffffffffff\n      and\n      dup2\n      jump\t// out\n        /* \"WandInstruments.sol\":1480:1498  IERC20 public BTON */\n    tag_194:\n      0x16\n      0x00\n      swap1\n      sload\n      swap1\n      0x0100\n      exp\n      swap1\n      div\n      0xffffffffffffffffffffffffffffffffffffffff\n      and\n      dup2\n      jump\t// out\n        /* \"WandInstruments.sol\":5202:6928  function cashOutScepter(uint256 amountSCPtoSell, uint256 timeChosenLocked, string memory _stableChosen) public payable{\r... */\n    tag_199:\n        /* \"WandInstruments.sol\":5413:5428  stableERC20Info */\n      0x1b\n        /* \"WandInstruments.sol\":5429:5442  _stableChosen */\n      dup2\n        /* \"WandInstruments.sol\":5413:5443  stableERC20Info[_stableChosen] */\n      mload(0x40)\n      tag_449\n      swap2\n      swap1\n      tag_380\n      jump\t// in\n    tag_449:\n      swap1\n      dup2\n      mstore\n      0x20\n      add\n      mload(0x40)\n      dup1\n      swap2\n      sub\n      swap1\n      keccak256\n        /* \"WandInstruments.sol\":5413:5459  stableERC20Info[_stableChosen].contractAddress */\n      0x00\n      add\n      0x00\n      swap1\n      sload\n      swap1\n      0x0100\n      exp\n      swap1\n      div\n      0xffffffffffffffffffffffffffffffffffffffff\n      and\n        /* \"WandInstruments.sol\":5392:5403  tokenStable */\n      0x17\n      0x00\n        /* \"WandInstruments.sol\":5392:5460  tokenStable = IERC20(stableERC20Info[_stableChosen].contractAddress) */\n      0x0100\n      exp\n      dup2\n      sload\n      dup2\n      0xffffffffffffffffffffffffffffffffffffffff\n      mul\n      not\n      and\n      swap1\n      dup4\n      0xffffffffffffffffffffffffffffffffffffffff\n      and\n      mul\n      or\n      swap1\n      sstore\n      pop\n        /* \"WandInstruments.sol\":5471:5497  uint256 trader_tsc_balance */\n      0x00\n        /* \"WandInstruments.sol\":5500:5504  SPTR */\n      0x14\n      0x00\n      swap1\n      sload\n      swap1\n      0x0100\n      exp\n      swap1\n      div\n      0xffffffffffffffffffffffffffffffffffffffff\n      and\n        /* \"WandInstruments.sol\":5500:5514  SPTR.balanceOf */\n      0xffffffffffffffffffffffffffffffffffffffff\n      and\n      0x70a08231\n        /* \"WandInstruments.sol\":5515:5525  msg.sender */\n      caller\n        /* \"WandInstruments.sol\":5500:5526  SPTR.balanceOf(msg.sender) */\n      mload(0x40)\n      dup3\n      0xffffffff\n      and\n      0xe0\n      shl\n      dup2\n      mstore\n      0x04\n      add\n      tag_450\n      swap2\n      swap1\n      tag_64\n      jump\t// in\n    tag_450:\n      0x20\n      mload(0x40)\n      dup1\n      dup4\n      sub\n      dup2\n      dup7\n      dup1\n      extcodesize\n      iszero\n      dup1\n      iszero\n      tag_451\n      jumpi\n      0x00\n      dup1\n      revert\n    tag_451:\n      pop\n      gas\n      staticcall\n      iszero\n      dup1\n      iszero\n      tag_453\n      jumpi\n      returndatasize\n      0x00\n      dup1\n      returndatacopy\n      revert(0x00, returndatasize)\n    tag_453:\n      pop\n      pop\n      pop\n      pop\n      mload(0x40)\n      returndatasize\n      not(0x1f)\n      0x1f\n      dup3\n      add\n      and\n      dup3\n      add\n      dup1\n      0x40\n      mstore\n      pop\n      dup2\n      add\n      swap1\n      tag_454\n      swap2\n      swap1\n      tag_243\n      jump\t// in\n    tag_454:\n        /* \"WandInstruments.sol\":5471:5526  uint256 trader_tsc_balance = SPTR.balanceOf(msg.sender) */\n      swap1\n      pop\n        /* \"WandInstruments.sol\":5566:5581  amountSCPtoSell */\n      dup4\n        /* \"WandInstruments.sol\":5545:5563  trader_tsc_balance */\n      dup2\n        /* \"WandInstruments.sol\":5545:5581  trader_tsc_balance > amountSCPtoSell */\n      gt\n        /* \"WandInstruments.sol\":5537:5612  require(trader_tsc_balance > amountSCPtoSell, \"You dont have that amount!\") */\n      tag_455\n      jumpi\n      mload(0x40)\n      0x08c379a000000000000000000000000000000000000000000000000000000000\n      dup2\n      mstore\n      0x04\n      add\n      tag_456\n      swap1\n      tag_320\n      jump\t// in\n    tag_456:\n      mload(0x40)\n      dup1\n      swap2\n      sub\n      swap1\n      revert\n    tag_455:\n        /* \"WandInstruments.sol\":5814:5825  tokenStable */\n      0x17\n      0x00\n      swap1\n      sload\n      swap1\n      0x0100\n      exp\n      swap1\n      div\n      0xffffffffffffffffffffffffffffffffffffffff\n      and\n        /* \"WandInstruments.sol\":5814:5834  tokenStable.transfer */\n      0xffffffffffffffffffffffffffffffffffffffff\n      and\n      0xa9059cbb\n        /* \"WandInstruments.sol\":5835:5845  msg.sender */\n      caller\n        /* \"WandInstruments.sol\":370:376  10**18 */\n      0x0de0b6b3a7640000\n        /* \"WandInstruments.sol\":5866:5867  1 */\n      0x01\n        /* \"WandInstruments.sol\":5866:5878  1*(DECIMALS) */\n      tag_457\n      swap2\n      swap1\n      tag_330\n      jump\t// in\n    tag_457:\n        /* \"WandInstruments.sol\":5847:5862  amountSCPtoSell */\n      dup8\n        /* \"WandInstruments.sol\":5847:5879  amountSCPtoSell + (1*(DECIMALS)) */\n      tag_458\n      swap2\n      swap1\n      tag_249\n      jump\t// in\n    tag_458:\n        /* \"WandInstruments.sol\":5814:5880  tokenStable.transfer(msg.sender, amountSCPtoSell + (1*(DECIMALS))) */\n      mload(0x40)\n      dup4\n      0xffffffff\n      and\n      0xe0\n      shl\n      dup2\n      mstore\n      0x04\n      add\n      tag_459\n      swap3\n      swap2\n      swap1\n      tag_179\n      jump\t// in\n    tag_459:\n      0x20\n      mload(0x40)\n      dup1\n      dup4\n      sub\n      dup2\n      0x00\n      dup8\n      dup1\n      extcodesize\n      iszero\n      dup1\n      iszero\n      tag_460\n      jumpi\n      0x00\n      dup1\n      revert\n    tag_460:\n      pop\n      gas\n      call\n      iszero\n      dup1\n      iszero\n      tag_462\n      jumpi\n      returndatasize\n      0x00\n      dup1\n      returndatacopy\n      revert(0x00, returndatasize)\n    tag_462:\n      pop\n      pop\n      pop\n      pop\n      mload(0x40)\n      returndatasize\n      not(0x1f)\n      0x1f\n      dup3\n      add\n      and\n      dup3\n      add\n      dup1\n      0x40\n      mstore\n      pop\n      dup2\n      add\n      swap1\n      tag_463\n      swap2\n      swap1\n      tag_464\n      jump\t// in\n    tag_463:\n      pop\n        /* \"WandInstruments.sol\":5983:6050  _safeTransferFrom(SPTR, msg.sender, address(this), amountSCPtoSell) */\n      tag_465\n        /* \"WandInstruments.sol\":6001:6005  SPTR */\n      0x14\n      0x00\n      swap1\n      sload\n      swap1\n      0x0100\n      exp\n      swap1\n      div\n      0xffffffffffffffffffffffffffffffffffffffff\n      and\n        /* \"WandInstruments.sol\":6007:6017  msg.sender */\n      caller\n        /* \"WandInstruments.sol\":6027:6031  this */\n      address\n        /* \"WandInstruments.sol\":6034:6049  amountSCPtoSell */\n      dup8\n        /* \"WandInstruments.sol\":5983:6000  _safeTransferFrom */\n      tag_322\n        /* \"WandInstruments.sol\":5983:6050  _safeTransferFrom(SPTR, msg.sender, address(this), amountSCPtoSell) */\n      jump\t// in\n    tag_465:\n        /* \"WandInstruments.sol\":6064:6079  uint256 usdcAmt */\n      0x00\n        /* \"WandInstruments.sol\":6126:6141  amountSCPtoSell */\n      dup5\n        /* \"WandInstruments.sol\":6104:6108  this */\n      address\n        /* \"WandInstruments.sol\":6104:6121  this.getSellPrice */\n      0xffffffffffffffffffffffffffffffffffffffff\n      and\n      0x43d32e9c\n        /* \"WandInstruments.sol\":6104:6123  this.getSellPrice() */\n      mload(0x40)\n      dup2\n      0xffffffff\n      and\n      0xe0\n      shl\n      dup2\n      mstore\n      0x04\n      add\n      0x20\n      mload(0x40)\n      dup1\n      dup4\n      sub\n      dup2\n      dup7\n      dup1\n      extcodesize\n      iszero\n      dup1\n      iszero\n      tag_466\n      jumpi\n      0x00\n      dup1\n      revert\n    tag_466:\n      pop\n      gas\n      staticcall\n      iszero\n      dup1\n      iszero\n      tag_468\n      jumpi\n      returndatasize\n      0x00\n      dup1\n      returndatacopy\n      revert(0x00, returndatasize)\n    tag_468:\n      pop\n      pop\n      pop\n      pop\n      mload(0x40)\n      returndatasize\n      not(0x1f)\n      0x1f\n      dup3\n      add\n      and\n      dup3\n      add\n      dup1\n      0x40\n      mstore\n      pop\n      dup2\n      add\n      swap1\n      tag_469\n      swap2\n      swap1\n      tag_243\n      jump\t// in\n    tag_469:\n        /* \"WandInstruments.sol\":6104:6141  this.getSellPrice() * amountSCPtoSell */\n      tag_470\n      swap2\n      swap1\n      tag_330\n      jump\t// in\n    tag_470:\n        /* \"WandInstruments.sol\":6094:6141  usdcAmt = this.getSellPrice() * amountSCPtoSell */\n      swap1\n      pop\n        /* \"WandInstruments.sol\":6416:6432  uint256 dInArray */\n      0x00\n        /* \"WandInstruments.sol\":6466:6471  86400 */\n      0x015180\n        /* \"WandInstruments.sol\":6452:6464  timeLaunched */\n      sload(0x0d)\n        /* \"WandInstruments.sol\":6435:6450  block.timestamp */\n      timestamp\n        /* \"WandInstruments.sol\":6435:6464  block.timestamp- timeLaunched */\n      tag_471\n      swap2\n      swap1\n      tag_278\n      jump\t// in\n    tag_471:\n        /* \"WandInstruments.sol\":6434:6471  (block.timestamp- timeLaunched)/86400 */\n      tag_472\n      swap2\n      swap1\n      tag_276\n      jump\t// in\n    tag_472:\n        /* \"WandInstruments.sol\":6416:6471  uint256 dInArray =(block.timestamp- timeLaunched)/86400 */\n      swap1\n      pop\n        /* \"WandInstruments.sol\":6512:6527  amountSCPtoSell */\n      dup6\n        /* \"WandInstruments.sol\":6483:6498  tokensSoldXDays */\n      0x19\n        /* \"WandInstruments.sol\":6483:6508  tokensSoldXDays[dInArray] */\n      0x00\n        /* \"WandInstruments.sol\":6499:6507  dInArray */\n      dup4\n        /* \"WandInstruments.sol\":6483:6508  tokensSoldXDays[dInArray] */\n      dup2\n      mstore\n      0x20\n      add\n      swap1\n      dup2\n      mstore\n      0x20\n      add\n      0x00\n      keccak256\n      0x00\n        /* \"WandInstruments.sol\":6483:6527  tokensSoldXDays[dInArray] += amountSCPtoSell */\n      dup3\n      dup3\n      sload\n      tag_473\n      swap2\n      swap1\n      tag_249\n      jump\t// in\n    tag_473:\n      swap3\n      pop\n      pop\n      dup2\n      swap1\n      sstore\n      pop\n        /* \"WandInstruments.sol\":6574:6589  amountSCPtoSell */\n      dup6\n        /* \"WandInstruments.sol\":6538:6560  circulatingSupplyXDays */\n      0x1a\n        /* \"WandInstruments.sol\":6538:6570  circulatingSupplyXDays[dInArray] */\n      0x00\n        /* \"WandInstruments.sol\":6561:6569  dInArray */\n      dup4\n        /* \"WandInstruments.sol\":6538:6570  circulatingSupplyXDays[dInArray] */\n      dup2\n      mstore\n      0x20\n      add\n      swap1\n      dup2\n      mstore\n      0x20\n      add\n      0x00\n      keccak256\n      0x00\n        /* \"WandInstruments.sol\":6538:6589  circulatingSupplyXDays[dInArray] -= amountSCPtoSell */\n      dup3\n      dup3\n      sload\n      tag_474\n      swap2\n      swap1\n      tag_278\n      jump\t// in\n    tag_474:\n      swap3\n      pop\n      pop\n      dup2\n      swap1\n      sstore\n      pop\n        /* \"WandInstruments.sol\":5320:6928  {\r... */\n      pop\n      pop\n      pop\n        /* \"WandInstruments.sol\":5202:6928  function cashOutScepter(uint256 amountSCPtoSell, uint256 timeChosenLocked, string memory _stableChosen) public payable{\r... */\n      pop\n      pop\n      pop\n      jump\t// out\n        /* \"WandInstruments.sol\":419:444  uint256 public sellFactor */\n    tag_202:\n      sload(0x03)\n      dup2\n      jump\t// out\n        /* \"WandInstruments.sol\":1455:1473  IERC20 public WAND */\n    tag_206:\n      0x15\n      0x00\n      swap1\n      sload\n      swap1\n      0x0100\n      exp\n      swap1\n      div\n      0xffffffffffffffffffffffffffffffffffffffff\n      and\n      dup2\n      jump\t// out\n        /* \"WandInstruments.sol\":14868:15154  function getTokensSoldXDays() external view returns (uint256){\r... */\n    tag_210:\n        /* \"WandInstruments.sol\":14921:14928  uint256 */\n      0x00\n        /* \"WandInstruments.sol\":14940:14955  uint256 soldNum */\n      dup1\n        /* \"WandInstruments.sol\":14966:14975  uint256 d */\n      0x00\n        /* \"WandInstruments.sol\":14986:15001  uint256 numdays */\n      dup1\n        /* \"WandInstruments.sol\":15022:15027  86400 */\n      0x015180\n        /* \"WandInstruments.sol\":15004:15021  daysInCalculation */\n      sload(0x0e)\n        /* \"WandInstruments.sol\":15004:15027  daysInCalculation/86400 */\n      tag_476\n      swap2\n      swap1\n      tag_276\n      jump\t// in\n    tag_476:\n        /* \"WandInstruments.sol\":14986:15027  uint256 numdays = daysInCalculation/86400 */\n      swap1\n      pop\n        /* \"WandInstruments.sol\":15049:15050  0 */\n      0x00\n        /* \"WandInstruments.sol\":15045:15050  d = 0 */\n      swap2\n      pop\n        /* \"WandInstruments.sol\":15040:15123  for (d = 0; d < numdays; d++) { \r... */\n    tag_477:\n        /* \"WandInstruments.sol\":15056:15063  numdays */\n      dup1\n        /* \"WandInstruments.sol\":15052:15053  d */\n      dup3\n        /* \"WandInstruments.sol\":15052:15063  d < numdays */\n      lt\n        /* \"WandInstruments.sol\":15040:15123  for (d = 0; d < numdays; d++) { \r... */\n      iszero\n      tag_478\n      jumpi\n        /* \"WandInstruments.sol\":15095:15110  tokensSoldXDays */\n      0x19\n        /* \"WandInstruments.sol\":15095:15113  tokensSoldXDays[d] */\n      0x00\n        /* \"WandInstruments.sol\":15111:15112  d */\n      dup4\n        /* \"WandInstruments.sol\":15095:15113  tokensSoldXDays[d] */\n      dup2\n      mstore\n      0x20\n      add\n      swap1\n      dup2\n      mstore\n      0x20\n      add\n      0x00\n      keccak256\n      sload\n        /* \"WandInstruments.sol\":15084:15113  soldNum += tokensSoldXDays[d] */\n      dup4\n      tag_480\n      swap2\n      swap1\n      tag_249\n      jump\t// in\n    tag_480:\n      swap3\n      pop\n        /* \"WandInstruments.sol\":15065:15068  d++ */\n      dup2\n      dup1\n      tag_481\n      swap1\n      tag_288\n      jump\t// in\n    tag_481:\n      swap3\n      pop\n      pop\n        /* \"WandInstruments.sol\":15040:15123  for (d = 0; d < numdays; d++) { \r... */\n      jump(tag_477)\n    tag_478:\n        /* \"WandInstruments.sol\":15139:15146  soldNum */\n      dup3\n        /* \"WandInstruments.sol\":15132:15146  return soldNum */\n      swap4\n      pop\n      pop\n      pop\n      pop\n        /* \"WandInstruments.sol\":14868:15154  function getTokensSoldXDays() external view returns (uint256){\r... */\n      swap1\n      jump\t// out\n        /* \"WandInstruments.sol\":15700:15919  function addStable(string memory _ticker, address _addr, uint256 _dec) public onlyOwner {\r... */\n    tag_216:\n        /* \"Ownable.sol\":1252:1264  _msgSender() */\n      tag_483\n        /* \"Ownable.sol\":1252:1262  _msgSender */\n      tag_253\n        /* \"Ownable.sol\":1252:1264  _msgSender() */\n      jump\t// in\n    tag_483:\n        /* \"Ownable.sol\":1241:1264  owner() == _msgSender() */\n      0xffffffffffffffffffffffffffffffffffffffff\n      and\n        /* \"Ownable.sol\":1241:1248  owner() */\n      tag_484\n        /* \"Ownable.sol\":1241:1246  owner */\n      tag_163\n        /* \"Ownable.sol\":1241:1248  owner() */\n      jump\t// in\n    tag_484:\n        /* \"Ownable.sol\":1241:1264  owner() == _msgSender() */\n      0xffffffffffffffffffffffffffffffffffffffff\n      and\n      eq\n        /* \"Ownable.sol\":1233:1301  require(owner() == _msgSender(), \"Ownable: caller is not the owner\") */\n      tag_485\n      jumpi\n      mload(0x40)\n      0x08c379a000000000000000000000000000000000000000000000000000000000\n      dup2\n      mstore\n      0x04\n      add\n      tag_486\n      swap1\n      tag_257\n      jump\t// in\n    tag_486:\n      mload(0x40)\n      dup1\n      swap2\n      sub\n      swap1\n      revert\n    tag_485:\n        /* \"WandInstruments.sol\":15848:15853  _addr */\n      dup2\n        /* \"WandInstruments.sol\":15805:15820  stableERC20Info */\n      0x1b\n        /* \"WandInstruments.sol\":15821:15828  _ticker */\n      dup5\n        /* \"WandInstruments.sol\":15805:15829  stableERC20Info[_ticker] */\n      mload(0x40)\n      tag_488\n      swap2\n      swap1\n      tag_380\n      jump\t// in\n    tag_488:\n      swap1\n      dup2\n      mstore\n      0x20\n      add\n      mload(0x40)\n      dup1\n      swap2\n      sub\n      swap1\n      keccak256\n        /* \"WandInstruments.sol\":15805:15845  stableERC20Info[_ticker].contractAddress */\n      0x00\n      add\n      0x00\n        /* \"WandInstruments.sol\":15805:15853  stableERC20Info[_ticker].contractAddress = _addr */\n      0x0100\n      exp\n      dup2\n      sload\n      dup2\n      0xffffffffffffffffffffffffffffffffffffffff\n      mul\n      not\n      and\n      swap1\n      dup4\n      0xffffffffffffffffffffffffffffffffffffffff\n      and\n      mul\n      or\n      swap1\n      sstore\n      pop\n        /* \"WandInstruments.sol\":15905:15909  _dec */\n      dup1\n        /* \"WandInstruments.sol\":15864:15879  stableERC20Info */\n      0x1b\n        /* \"WandInstruments.sol\":15880:15887  _ticker */\n      dup5\n        /* \"WandInstruments.sol\":15864:15888  stableERC20Info[_ticker] */\n      mload(0x40)\n      tag_489\n      swap2\n      swap1\n      tag_380\n      jump\t// in\n    tag_489:\n      swap1\n      dup2\n      mstore\n      0x20\n      add\n      mload(0x40)\n      dup1\n      swap2\n      sub\n      swap1\n      keccak256\n        /* \"WandInstruments.sol\":15864:15902  stableERC20Info[_ticker].tokenDecimals */\n      0x01\n      add\n        /* \"WandInstruments.sol\":15864:15909  stableERC20Info[_ticker].tokenDecimals = _dec */\n      dup2\n      swap1\n      sstore\n      pop\n        /* \"WandInstruments.sol\":15700:15919  function addStable(string memory _ticker, address _addr, uint256 _dec) public onlyOwner {\r... */\n      pop\n      pop\n      pop\n      jump\t// out\n        /* \"WandInstruments.sol\":385:412  uint256 public growthFactor */\n    tag_219:\n      sload(0x02)\n      dup2\n      jump\t// out\n        /* \"WandInstruments.sol\":1184:1254  address public testwallet = 0x617F2E2fD72FD9D5503197092aC168c91465E7f2 */\n    tag_223:\n      0x13\n      0x00\n      swap1\n      sload\n      swap1\n      0x0100\n      exp\n      swap1\n      div\n      0xffffffffffffffffffffffffffffffffffffffff\n      and\n      dup2\n      jump\t// out\n        /* \"Ownable.sol\":1911:2109  function transferOwnership(address newOwner) public virtual onlyOwner {... */\n    tag_228:\n        /* \"Ownable.sol\":1252:1264  _msgSender() */\n      tag_491\n        /* \"Ownable.sol\":1252:1262  _msgSender */\n      tag_253\n        /* \"Ownable.sol\":1252:1264  _msgSender() */\n      jump\t// in\n    tag_491:\n        /* \"Ownable.sol\":1241:1264  owner() == _msgSender() */\n      0xffffffffffffffffffffffffffffffffffffffff\n      and\n        /* \"Ownable.sol\":1241:1248  owner() */\n      tag_492\n        /* \"Ownable.sol\":1241:1246  owner */\n      tag_163\n        /* \"Ownable.sol\":1241:1248  owner() */\n      jump\t// in\n    tag_492:\n        /* \"Ownable.sol\":1241:1264  owner() == _msgSender() */\n      0xffffffffffffffffffffffffffffffffffffffff\n      and\n      eq\n        /* \"Ownable.sol\":1233:1301  require(owner() == _msgSender(), \"Ownable: caller is not the owner\") */\n      tag_493\n      jumpi\n      mload(0x40)\n      0x08c379a000000000000000000000000000000000000000000000000000000000\n      dup2\n      mstore\n      0x04\n      add\n      tag_494\n      swap1\n      tag_257\n      jump\t// in\n    tag_494:\n      mload(0x40)\n      dup1\n      swap2\n      sub\n      swap1\n      revert\n    tag_493:\n        /* \"Ownable.sol\":2019:2020  0 */\n      0x00\n        /* \"Ownable.sol\":1999:2021  newOwner != address(0) */\n      0xffffffffffffffffffffffffffffffffffffffff\n      and\n        /* \"Ownable.sol\":1999:2007  newOwner */\n      dup2\n        /* \"Ownable.sol\":1999:2021  newOwner != address(0) */\n      0xffffffffffffffffffffffffffffffffffffffff\n      and\n      eq\n      iszero\n        /* \"Ownable.sol\":1991:2064  require(newOwner != address(0), \"Ownable: new owner is the zero address\") */\n      tag_496\n      jumpi\n      mload(0x40)\n      0x08c379a000000000000000000000000000000000000000000000000000000000\n      dup2\n      mstore\n      0x04\n      add\n      tag_497\n      swap1\n      tag_498\n      jump\t// in\n    tag_497:\n      mload(0x40)\n      dup1\n      swap2\n      sub\n      swap1\n      revert\n    tag_496:\n        /* \"Ownable.sol\":2074:2102  _transferOwnership(newOwner) */\n      tag_499\n        /* \"Ownable.sol\":2093:2101  newOwner */\n      dup2\n        /* \"Ownable.sol\":2074:2092  _transferOwnership */\n      tag_362\n        /* \"Ownable.sol\":2074:2102  _transferOwnership(newOwner) */\n      jump\t// in\n    tag_499:\n        /* \"Ownable.sol\":1911:2109  function transferOwnership(address newOwner) public virtual onlyOwner {... */\n      pop\n      jump\t// out\n        /* \"WandInstruments.sol\":633:661  address public treasury1Addr */\n    tag_231:\n      0x08\n      0x00\n      swap1\n      sload\n      swap1\n      0x0100\n      exp\n      swap1\n      div\n      0xffffffffffffffffffffffffffffffffffffffff\n      and\n      dup2\n      jump\t// out\n        /* \"WandInstruments.sol\":12982:13138  function setDaysUsedInFactors(uint256 numDays) public {  \r... */\n    tag_236:\n        /* \"WandInstruments.sol\":13115:13120  86400 */\n      0x015180\n        /* \"WandInstruments.sol\":13105:13112  numDays */\n      dup2\n        /* \"WandInstruments.sol\":13105:13120  numDays * 86400 */\n      tag_501\n      swap2\n      swap1\n      tag_330\n      jump\t// in\n    tag_501:\n        /* \"WandInstruments.sol\":13085:13102  daysInCalculation */\n      0x0e\n        /* \"WandInstruments.sol\":13085:13120  daysInCalculation = numDays * 86400 */\n      dup2\n      swap1\n      sstore\n      pop\n        /* \"WandInstruments.sol\":12982:13138  function setDaysUsedInFactors(uint256 numDays) public {  \r... */\n      pop\n      jump\t// out\n        /* \"WandInstruments.sol\":4484:4656  function decMul18(uint x, uint y) internal pure returns (uint decProd) {\r... */\n    tag_250:\n        /* \"WandInstruments.sol\":4541:4553  uint decProd */\n      0x00\n        /* \"WandInstruments.sol\":4566:4578  uint prod_xy */\n      dup1\n        /* \"WandInstruments.sol\":4581:4590  mul(x, y) */\n      tag_503\n        /* \"WandInstruments.sol\":4585:4586  x */\n      dup5\n        /* \"WandInstruments.sol\":4588:4589  y */\n      dup5\n        /* \"WandInstruments.sol\":4581:4584  mul */\n      tag_504\n        /* \"WandInstruments.sol\":4581:4590  mul(x, y) */\n      jump\t// in\n    tag_503:\n        /* \"WandInstruments.sol\":4566:4590  uint prod_xy = mul(x, y) */\n      swap1\n      pop\n        /* \"WandInstruments.sol\":370:376  10**18 */\n      0x0de0b6b3a7640000\n        /* \"WandInstruments.sol\":4611:4637  add(prod_xy, DECIMALS / 2) */\n      tag_505\n        /* \"WandInstruments.sol\":4615:4622  prod_xy */\n      dup3\n        /* \"WandInstruments.sol\":4635:4636  2 */\n      0x02\n        /* \"WandInstruments.sol\":370:376  10**18 */\n      0x0de0b6b3a7640000\n        /* \"WandInstruments.sol\":4624:4636  DECIMALS / 2 */\n      tag_506\n      swap2\n      swap1\n      tag_276\n      jump\t// in\n    tag_506:\n        /* \"WandInstruments.sol\":4611:4614  add */\n      tag_507\n        /* \"WandInstruments.sol\":4611:4637  add(prod_xy, DECIMALS / 2) */\n      jump\t// in\n    tag_505:\n        /* \"WandInstruments.sol\":4611:4648  add(prod_xy, DECIMALS / 2) / DECIMALS */\n      tag_508\n      swap2\n      swap1\n      tag_276\n      jump\t// in\n    tag_508:\n        /* \"WandInstruments.sol\":4601:4648  decProd = add(prod_xy, DECIMALS / 2) / DECIMALS */\n      swap2\n      pop\n        /* \"WandInstruments.sol\":4555:4656  {\r... */\n      pop\n        /* \"WandInstruments.sol\":4484:4656  function decMul18(uint x, uint y) internal pure returns (uint decProd) {\r... */\n      swap3\n      swap2\n      pop\n      pop\n      jump\t// out\n        /* \"Context.sol\":640:736  function _msgSender() internal view virtual returns (address) {... */\n    tag_253:\n        /* \"Context.sol\":693:700  address */\n      0x00\n        /* \"Context.sol\":719:729  msg.sender */\n      caller\n        /* \"Context.sol\":712:729  return msg.sender */\n      swap1\n      pop\n        /* \"Context.sol\":640:736  function _msgSender() internal view virtual returns (address) {... */\n      swap1\n      jump\t// out\n        /* \"WandInstruments.sol\":4664:4845  function decDiv18(uint x, uint y) internal pure returns (uint decQuotient) {\r... */\n    tag_294:\n        /* \"WandInstruments.sol\":4721:4737  uint decQuotient */\n      0x00\n        /* \"WandInstruments.sol\":4750:4766  uint prod_xTEN18 */\n      dup1\n        /* \"WandInstruments.sol\":4769:4785  mul(x, DECIMALS) */\n      tag_511\n        /* \"WandInstruments.sol\":4773:4774  x */\n      dup5\n        /* \"WandInstruments.sol\":370:376  10**18 */\n      0x0de0b6b3a7640000\n        /* \"WandInstruments.sol\":4769:4772  mul */\n      tag_504\n        /* \"WandInstruments.sol\":4769:4785  mul(x, DECIMALS) */\n      jump\t// in\n    tag_511:\n        /* \"WandInstruments.sol\":4750:4785  uint prod_xTEN18 = mul(x, DECIMALS) */\n      swap1\n      pop\n        /* \"WandInstruments.sol\":4836:4837  y */\n      dup3\n        /* \"WandInstruments.sol\":4810:4833  add(prod_xTEN18, y / 2) */\n      tag_512\n        /* \"WandInstruments.sol\":4814:4825  prod_xTEN18 */\n      dup3\n        /* \"WandInstruments.sol\":4831:4832  2 */\n      0x02\n        /* \"WandInstruments.sol\":4827:4828  y */\n      dup7\n        /* \"WandInstruments.sol\":4827:4832  y / 2 */\n      tag_513\n      swap2\n      swap1\n      tag_276\n      jump\t// in\n    tag_513:\n        /* \"WandInstruments.sol\":4810:4813  add */\n      tag_507\n        /* \"WandInstruments.sol\":4810:4833  add(prod_xTEN18, y / 2) */\n      jump\t// in\n    tag_512:\n        /* \"WandInstruments.sol\":4810:4837  add(prod_xTEN18, y / 2) / y */\n      tag_514\n      swap2\n      swap1\n      tag_276\n      jump\t// in\n    tag_514:\n        /* \"WandInstruments.sol\":4796:4837  decQuotient = add(prod_xTEN18, y / 2) / y */\n      swap2\n      pop\n        /* \"WandInstruments.sol\":4739:4845  {\r... */\n      pop\n        /* \"WandInstruments.sol\":4664:4845  function decDiv18(uint x, uint y) internal pure returns (uint decQuotient) {\r... */\n      swap3\n      swap2\n      pop\n      pop\n      jump\t// out\n        /* \"WandInstruments.sol\":15931:16193  function _safeTransferFrom(\r... */\n    tag_322:\n        /* \"WandInstruments.sol\":16079:16088  bool sent */\n      0x00\n        /* \"WandInstruments.sol\":16091:16096  token */\n      dup5\n        /* \"WandInstruments.sol\":16091:16109  token.transferFrom */\n      0xffffffffffffffffffffffffffffffffffffffff\n      and\n      0x23b872dd\n        /* \"WandInstruments.sol\":16110:16116  sender */\n      dup6\n        /* \"WandInstruments.sol\":16118:16127  recipient */\n      dup6\n        /* \"WandInstruments.sol\":16129:16135  amount */\n      dup6\n        /* \"WandInstruments.sol\":16091:16136  token.transferFrom(sender, recipient, amount) */\n      mload(0x40)\n      dup5\n      0xffffffff\n      and\n      0xe0\n      shl\n      dup2\n      mstore\n      0x04\n      add\n      tag_516\n      swap4\n      swap3\n      swap2\n      swap1\n      tag_517\n      jump\t// in\n    tag_516:\n      0x20\n      mload(0x40)\n      dup1\n      dup4\n      sub\n      dup2\n      0x00\n      dup8\n      dup1\n      extcodesize\n      iszero\n      dup1\n      iszero\n      tag_518\n      jumpi\n      0x00\n      dup1\n      revert\n    tag_518:\n      pop\n      gas\n      call\n      iszero\n      dup1\n      iszero\n      tag_520\n      jumpi\n      returndatasize\n      0x00\n      dup1\n      returndatacopy\n      revert(0x00, returndatasize)\n    tag_520:\n      pop\n      pop\n      pop\n      pop\n      mload(0x40)\n      returndatasize\n      not(0x1f)\n      0x1f\n      dup3\n      add\n      and\n      dup3\n      add\n      dup1\n      0x40\n      mstore\n      pop\n      dup2\n      add\n      swap1\n      tag_521\n      swap2\n      swap1\n      tag_464\n      jump\t// in\n    tag_521:\n        /* \"WandInstruments.sol\":16079:16136  bool sent = token.transferFrom(sender, recipient, amount) */\n      swap1\n      pop\n        /* \"WandInstruments.sol\":16155:16159  sent */\n      dup1\n        /* \"WandInstruments.sol\":16147:16185  require(sent, \"Token transfer failed\") */\n      tag_522\n      jumpi\n      mload(0x40)\n      0x08c379a000000000000000000000000000000000000000000000000000000000\n      dup2\n      mstore\n      0x04\n      add\n      tag_523\n      swap1\n      tag_524\n      jump\t// in\n    tag_523:\n      mload(0x40)\n      dup1\n      swap2\n      sub\n      swap1\n      revert\n    tag_522:\n        /* \"WandInstruments.sol\":16068:16193  {\r... */\n      pop\n        /* \"WandInstruments.sol\":15931:16193  function _safeTransferFrom(\r... */\n      pop\n      pop\n      pop\n      pop\n      jump\t// out\n        /* \"Ownable.sol\":2263:2450  function _transferOwnership(address newOwner) internal virtual {... */\n    tag_362:\n        /* \"Ownable.sol\":2336:2352  address oldOwner */\n      0x00\n        /* \"Ownable.sol\":2355:2361  _owner */\n      0x01\n      0x00\n      swap1\n      sload\n      swap1\n      0x0100\n      exp\n      swap1\n      div\n      0xffffffffffffffffffffffffffffffffffffffff\n      and\n        /* \"Ownable.sol\":2336:2361  address oldOwner = _owner */\n      swap1\n      pop\n        /* \"Ownable.sol\":2380:2388  newOwner */\n      dup2\n        /* \"Ownable.sol\":2371:2377  _owner */\n      0x01\n      0x00\n        /* \"Ownable.sol\":2371:2388  _owner = newOwner */\n      0x0100\n      exp\n      dup2\n      sload\n      dup2\n      0xffffffffffffffffffffffffffffffffffffffff\n      mul\n      not\n      and\n      swap1\n      dup4\n      0xffffffffffffffffffffffffffffffffffffffff\n      and\n      mul\n      or\n      swap1\n      sstore\n      pop\n        /* \"Ownable.sol\":2434:2442  newOwner */\n      dup2\n        /* \"Ownable.sol\":2403:2443  OwnershipTransferred(oldOwner, newOwner) */\n      0xffffffffffffffffffffffffffffffffffffffff\n      and\n        /* \"Ownable.sol\":2424:2432  oldOwner */\n      dup2\n        /* \"Ownable.sol\":2403:2443  OwnershipTransferred(oldOwner, newOwner) */\n      0xffffffffffffffffffffffffffffffffffffffff\n      and\n      0x8be0079c531659141344cd1fd0a4f28419497f9722a3daafe3b4186f6b6457e0\n      mload(0x40)\n      mload(0x40)\n      dup1\n      swap2\n      sub\n      swap1\n      log3\n        /* \"Ownable.sol\":2326:2450  {... */\n      pop\n        /* \"Ownable.sol\":2263:2450  function _transferOwnership(address newOwner) internal virtual {... */\n      pop\n      jump\t// out\n        /* \"WandInstruments.sol\":3669:3911  function mul(uint256 a, uint256 b) internal pure returns (uint256) {\r... */\n    tag_504:\n        /* \"WandInstruments.sol\":3727:3734  uint256 */\n      0x00\n        /* \"WandInstruments.sol\":3756:3757  0 */\n      dup1\n        /* \"WandInstruments.sol\":3751:3752  a */\n      dup4\n        /* \"WandInstruments.sol\":3751:3757  a == 0 */\n      eq\n        /* \"WandInstruments.sol\":3747:3790  if (a == 0) {\r... */\n      iszero\n      tag_527\n      jumpi\n        /* \"WandInstruments.sol\":3777:3778  0 */\n      0x00\n        /* \"WandInstruments.sol\":3770:3778  return 0 */\n      swap1\n      pop\n      jump(tag_526)\n        /* \"WandInstruments.sol\":3747:3790  if (a == 0) {\r... */\n    tag_527:\n        /* \"WandInstruments.sol\":3800:3809  uint256 c */\n      0x00\n        /* \"WandInstruments.sol\":3816:3817  b */\n      dup3\n        /* \"WandInstruments.sol\":3812:3813  a */\n      dup5\n        /* \"WandInstruments.sol\":3812:3817  a * b */\n      tag_528\n      swap2\n      swap1\n      tag_330\n      jump\t// in\n    tag_528:\n        /* \"WandInstruments.sol\":3800:3817  uint256 c = a * b */\n      swap1\n      pop\n        /* \"WandInstruments.sol\":3845:3846  b */\n      dup3\n        /* \"WandInstruments.sol\":3840:3841  a */\n      dup5\n        /* \"WandInstruments.sol\":3836:3837  c */\n      dup3\n        /* \"WandInstruments.sol\":3836:3841  c / a */\n      tag_529\n      swap2\n      swap1\n      tag_276\n      jump\t// in\n    tag_529:\n        /* \"WandInstruments.sol\":3836:3846  c / a == b */\n      eq\n        /* \"WandInstruments.sol\":3828:3884  require(c / a == b, \"uint overflow from multiplication\") */\n      tag_530\n      jumpi\n      mload(0x40)\n      0x08c379a000000000000000000000000000000000000000000000000000000000\n      dup2\n      mstore\n      0x04\n      add\n      tag_531\n      swap1\n      tag_532\n      jump\t// in\n    tag_531:\n      mload(0x40)\n      dup1\n      swap2\n      sub\n      swap1\n      revert\n    tag_530:\n        /* \"WandInstruments.sol\":3902:3903  c */\n      dup1\n        /* \"WandInstruments.sol\":3895:3903  return c */\n      swap2\n      pop\n      pop\n        /* \"WandInstruments.sol\":3669:3911  function mul(uint256 a, uint256 b) internal pure returns (uint256) {\r... */\n    tag_526:\n      swap3\n      swap2\n      pop\n      pop\n      jump\t// out\n        /* \"WandInstruments.sol\":4287:4472  function add(uint256 a, uint256 b) internal pure returns (uint256) {\r... */\n    tag_507:\n        /* \"WandInstruments.sol\":4345:4352  uint256 */\n      0x00\n        /* \"WandInstruments.sol\":4365:4374  uint256 c */\n      dup1\n        /* \"WandInstruments.sol\":4381:4382  b */\n      dup3\n        /* \"WandInstruments.sol\":4377:4378  a */\n      dup5\n        /* \"WandInstruments.sol\":4377:4382  a + b */\n      tag_534\n      swap2\n      swap1\n      tag_249\n      jump\t// in\n    tag_534:\n        /* \"WandInstruments.sol\":4365:4382  uint256 c = a + b */\n      swap1\n      pop\n        /* \"WandInstruments.sol\":4406:4407  a */\n      dup4\n        /* \"WandInstruments.sol\":4401:4402  c */\n      dup2\n        /* \"WandInstruments.sol\":4401:4407  c >= a */\n      lt\n      iszero\n        /* \"WandInstruments.sol\":4393:4445  require(c >= a, \"uint overflow from multiplication\") */\n      tag_535\n      jumpi\n      mload(0x40)\n      0x08c379a000000000000000000000000000000000000000000000000000000000\n      dup2\n      mstore\n      0x04\n      add\n      tag_536\n      swap1\n      tag_532\n      jump\t// in\n    tag_536:\n      mload(0x40)\n      dup1\n      swap2\n      sub\n      swap1\n      revert\n    tag_535:\n        /* \"WandInstruments.sol\":4463:4464  c */\n      dup1\n        /* \"WandInstruments.sol\":4456:4464  return c */\n      swap2\n      pop\n      pop\n        /* \"WandInstruments.sol\":4287:4472  function add(uint256 a, uint256 b) internal pure returns (uint256) {\r... */\n      swap3\n      swap2\n      pop\n      pop\n      jump\t// out\n        /* \"#utility.yul\":7:419   */\n    tag_538:\n        /* \"#utility.yul\":85:90   */\n      0x00\n        /* \"#utility.yul\":110:176   */\n      tag_540\n        /* \"#utility.yul\":126:175   */\n      tag_541\n        /* \"#utility.yul\":168:174   */\n      dup5\n        /* \"#utility.yul\":126:175   */\n      tag_542\n      jump\t// in\n    tag_541:\n        /* \"#utility.yul\":110:176   */\n      tag_543\n      jump\t// in\n    tag_540:\n        /* \"#utility.yul\":101:176   */\n      swap1\n      pop\n        /* \"#utility.yul\":199:205   */\n      dup3\n        /* \"#utility.yul\":192:197   */\n      dup2\n        /* \"#utility.yul\":185:206   */\n      mstore\n        /* \"#utility.yul\":237:241   */\n      0x20\n        /* \"#utility.yul\":230:235   */\n      dup2\n        /* \"#utility.yul\":226:242   */\n      add\n        /* \"#utility.yul\":275:278   */\n      dup5\n        /* \"#utility.yul\":266:272   */\n      dup5\n        /* \"#utility.yul\":261:264   */\n      dup5\n        /* \"#utility.yul\":257:273   */\n      add\n        /* \"#utility.yul\":254:279   */\n      gt\n        /* \"#utility.yul\":251:363   */\n      iszero\n      tag_544\n      jumpi\n        /* \"#utility.yul\":282:361   */\n      tag_545\n      tag_546\n      jump\t// in\n    tag_545:\n        /* \"#utility.yul\":251:363   */\n    tag_544:\n        /* \"#utility.yul\":372:413   */\n      tag_547\n        /* \"#utility.yul\":406:412   */\n      dup5\n        /* \"#utility.yul\":401:404   */\n      dup3\n        /* \"#utility.yul\":396:399   */\n      dup6\n        /* \"#utility.yul\":372:413   */\n      tag_548\n      jump\t// in\n    tag_547:\n        /* \"#utility.yul\":91:419   */\n      pop\n        /* \"#utility.yul\":7:419   */\n      swap4\n      swap3\n      pop\n      pop\n      pop\n      jump\t// out\n        /* \"#utility.yul\":425:564   */\n    tag_549:\n        /* \"#utility.yul\":471:476   */\n      0x00\n        /* \"#utility.yul\":509:515   */\n      dup2\n        /* \"#utility.yul\":496:516   */\n      calldataload\n        /* \"#utility.yul\":487:516   */\n      swap1\n      pop\n        /* \"#utility.yul\":525:558   */\n      tag_551\n        /* \"#utility.yul\":552:557   */\n      dup2\n        /* \"#utility.yul\":525:558   */\n      tag_552\n      jump\t// in\n    tag_551:\n        /* \"#utility.yul\":425:564   */\n      swap3\n      swap2\n      pop\n      pop\n      jump\t// out\n        /* \"#utility.yul\":570:707   */\n    tag_553:\n        /* \"#utility.yul\":624:629   */\n      0x00\n        /* \"#utility.yul\":655:661   */\n      dup2\n        /* \"#utility.yul\":649:662   */\n      mload\n        /* \"#utility.yul\":640:662   */\n      swap1\n      pop\n        /* \"#utility.yul\":671:701   */\n      tag_555\n        /* \"#utility.yul\":695:700   */\n      dup2\n        /* \"#utility.yul\":671:701   */\n      tag_556\n      jump\t// in\n    tag_555:\n        /* \"#utility.yul\":570:707   */\n      swap3\n      swap2\n      pop\n      pop\n      jump\t// out\n        /* \"#utility.yul\":727:1067   */\n    tag_557:\n        /* \"#utility.yul\":783:788   */\n      0x00\n        /* \"#utility.yul\":832:835   */\n      dup3\n        /* \"#utility.yul\":825:829   */\n      0x1f\n        /* \"#utility.yul\":817:823   */\n      dup4\n        /* \"#utility.yul\":813:830   */\n      add\n        /* \"#utility.yul\":809:836   */\n      slt\n        /* \"#utility.yul\":799:921   */\n      tag_559\n      jumpi\n        /* \"#utility.yul\":840:919   */\n      tag_560\n      tag_561\n      jump\t// in\n    tag_560:\n        /* \"#utility.yul\":799:921   */\n    tag_559:\n        /* \"#utility.yul\":957:963   */\n      dup2\n        /* \"#utility.yul\":944:964   */\n      calldataload\n        /* \"#utility.yul\":982:1061   */\n      tag_562\n        /* \"#utility.yul\":1057:1060   */\n      dup5\n        /* \"#utility.yul\":1049:1055   */\n      dup3\n        /* \"#utility.yul\":1042:1046   */\n      0x20\n        /* \"#utility.yul\":1034:1040   */\n      dup7\n        /* \"#utility.yul\":1030:1047   */\n      add\n        /* \"#utility.yul\":982:1061   */\n      tag_538\n      jump\t// in\n    tag_562:\n        /* \"#utility.yul\":973:1061   */\n      swap2\n      pop\n        /* \"#utility.yul\":789:1067   */\n      pop\n        /* \"#utility.yul\":727:1067   */\n      swap3\n      swap2\n      pop\n      pop\n      jump\t// out\n        /* \"#utility.yul\":1073:1212   */\n    tag_563:\n        /* \"#utility.yul\":1119:1124   */\n      0x00\n        /* \"#utility.yul\":1157:1163   */\n      dup2\n        /* \"#utility.yul\":1144:1164   */\n      calldataload\n        /* \"#utility.yul\":1135:1164   */\n      swap1\n      pop\n        /* \"#utility.yul\":1173:1206   */\n      tag_565\n        /* \"#utility.yul\":1200:1205   */\n      dup2\n        /* \"#utility.yul\":1173:1206   */\n      tag_566\n      jump\t// in\n    tag_565:\n        /* \"#utility.yul\":1073:1212   */\n      swap3\n      swap2\n      pop\n      pop\n      jump\t// out\n        /* \"#utility.yul\":1218:1361   */\n    tag_567:\n        /* \"#utility.yul\":1275:1280   */\n      0x00\n        /* \"#utility.yul\":1306:1312   */\n      dup2\n        /* \"#utility.yul\":1300:1313   */\n      mload\n        /* \"#utility.yul\":1291:1313   */\n      swap1\n      pop\n        /* \"#utility.yul\":1322:1355   */\n      tag_569\n        /* \"#utility.yul\":1349:1354   */\n      dup2\n        /* \"#utility.yul\":1322:1355   */\n      tag_566\n      jump\t// in\n    tag_569:\n        /* \"#utility.yul\":1218:1361   */\n      swap3\n      swap2\n      pop\n      pop\n      jump\t// out\n        /* \"#utility.yul\":1367:1696   */\n    tag_76:\n        /* \"#utility.yul\":1426:1432   */\n      0x00\n        /* \"#utility.yul\":1475:1477   */\n      0x20\n        /* \"#utility.yul\":1463:1472   */\n      dup3\n        /* \"#utility.yul\":1454:1461   */\n      dup5\n        /* \"#utility.yul\":1450:1473   */\n      sub\n        /* \"#utility.yul\":1446:1478   */\n      slt\n        /* \"#utility.yul\":1443:1562   */\n      iszero\n      tag_571\n      jumpi\n        /* \"#utility.yul\":1481:1560   */\n      tag_572\n      tag_573\n      jump\t// in\n    tag_572:\n        /* \"#utility.yul\":1443:1562   */\n    tag_571:\n        /* \"#utility.yul\":1601:1602   */\n      0x00\n        /* \"#utility.yul\":1626:1679   */\n      tag_574\n        /* \"#utility.yul\":1671:1678   */\n      dup5\n        /* \"#utility.yul\":1662:1668   */\n      dup3\n        /* \"#utility.yul\":1651:1660   */\n      dup6\n        /* \"#utility.yul\":1647:1669   */\n      add\n        /* \"#utility.yul\":1626:1679   */\n      tag_549\n      jump\t// in\n    tag_574:\n        /* \"#utility.yul\":1616:1679   */\n      swap2\n      pop\n        /* \"#utility.yul\":1572:1689   */\n      pop\n        /* \"#utility.yul\":1367:1696   */\n      swap3\n      swap2\n      pop\n      pop\n      jump\t// out\n        /* \"#utility.yul\":1702:2356   */\n    tag_186:\n        /* \"#utility.yul\":1780:1786   */\n      0x00\n        /* \"#utility.yul\":1788:1794   */\n      dup1\n        /* \"#utility.yul\":1837:1839   */\n      0x40\n        /* \"#utility.yul\":1825:1834   */\n      dup4\n        /* \"#utility.yul\":1816:1823   */\n      dup6\n        /* \"#utility.yul\":1812:1835   */\n      sub\n        /* \"#utility.yul\":1808:1840   */\n      slt\n        /* \"#utility.yul\":1805:1924   */\n      iszero\n      tag_576\n      jumpi\n        /* \"#utility.yul\":1843:1922   */\n      tag_577\n      tag_573\n      jump\t// in\n    tag_577:\n        /* \"#utility.yul\":1805:1924   */\n    tag_576:\n        /* \"#utility.yul\":1963:1964   */\n      0x00\n        /* \"#utility.yul\":1988:2041   */\n      tag_578\n        /* \"#utility.yul\":2033:2040   */\n      dup6\n        /* \"#utility.yul\":2024:2030   */\n      dup3\n        /* \"#utility.yul\":2013:2022   */\n      dup7\n        /* \"#utility.yul\":2009:2031   */\n      add\n        /* \"#utility.yul\":1988:2041   */\n      tag_549\n      jump\t// in\n    tag_578:\n        /* \"#utility.yul\":1978:2041   */\n      swap3\n      pop\n        /* \"#utility.yul\":1934:2051   */\n      pop\n        /* \"#utility.yul\":2118:2120   */\n      0x20\n        /* \"#utility.yul\":2107:2116   */\n      dup4\n        /* \"#utility.yul\":2103:2121   */\n      add\n        /* \"#utility.yul\":2090:2122   */\n      calldataload\n        /* \"#utility.yul\":2149:2167   */\n      0xffffffffffffffff\n        /* \"#utility.yul\":2141:2147   */\n      dup2\n        /* \"#utility.yul\":2138:2168   */\n      gt\n        /* \"#utility.yul\":2135:2252   */\n      iszero\n      tag_579\n      jumpi\n        /* \"#utility.yul\":2171:2250   */\n      tag_580\n      tag_581\n      jump\t// in\n    tag_580:\n        /* \"#utility.yul\":2135:2252   */\n    tag_579:\n        /* \"#utility.yul\":2276:2339   */\n      tag_582\n        /* \"#utility.yul\":2331:2338   */\n      dup6\n        /* \"#utility.yul\":2322:2328   */\n      dup3\n        /* \"#utility.yul\":2311:2320   */\n      dup7\n        /* \"#utility.yul\":2307:2329   */\n      add\n        /* \"#utility.yul\":2276:2339   */\n      tag_557\n      jump\t// in\n    tag_582:\n        /* \"#utility.yul\":2266:2339   */\n      swap2\n      pop\n        /* \"#utility.yul\":2061:2349   */\n      pop\n        /* \"#utility.yul\":1702:2356   */\n      swap3\n      pop\n      swap3\n      swap1\n      pop\n      jump\t// out\n        /* \"#utility.yul\":2362:2707   */\n    tag_464:\n        /* \"#utility.yul\":2429:2435   */\n      0x00\n        /* \"#utility.yul\":2478:2480   */\n      0x20\n        /* \"#utility.yul\":2466:2475   */\n      dup3\n        /* \"#utility.yul\":2457:2464   */\n      dup5\n        /* \"#utility.yul\":2453:2476   */\n      sub\n        /* \"#utility.yul\":2449:2481   */\n      slt\n        /* \"#utility.yul\":2446:2565   */\n      iszero\n      tag_584\n      jumpi\n        /* \"#utility.yul\":2484:2563   */\n      tag_585\n      tag_573\n      jump\t// in\n    tag_585:\n        /* \"#utility.yul\":2446:2565   */\n    tag_584:\n        /* \"#utility.yul\":2604:2605   */\n      0x00\n        /* \"#utility.yul\":2629:2690   */\n      tag_586\n        /* \"#utility.yul\":2682:2689   */\n      dup5\n        /* \"#utility.yul\":2673:2679   */\n      dup3\n        /* \"#utility.yul\":2662:2671   */\n      dup6\n        /* \"#utility.yul\":2658:2680   */\n      add\n        /* \"#utility.yul\":2629:2690   */\n      tag_553\n      jump\t// in\n    tag_586:\n        /* \"#utility.yul\":2619:2690   */\n      swap2\n      pop\n        /* \"#utility.yul\":2575:2700   */\n      pop\n        /* \"#utility.yul\":2362:2707   */\n      swap3\n      swap2\n      pop\n      pop\n      jump\t// out\n        /* \"#utility.yul\":2713:3222   */\n    tag_176:\n        /* \"#utility.yul\":2782:2788   */\n      0x00\n        /* \"#utility.yul\":2831:2833   */\n      0x20\n        /* \"#utility.yul\":2819:2828   */\n      dup3\n        /* \"#utility.yul\":2810:2817   */\n      dup5\n        /* \"#utility.yul\":2806:2829   */\n      sub\n        /* \"#utility.yul\":2802:2834   */\n      slt\n        /* \"#utility.yul\":2799:2918   */\n      iszero\n      tag_588\n      jumpi\n        /* \"#utility.yul\":2837:2916   */\n      tag_589\n      tag_573\n      jump\t// in\n    tag_589:\n        /* \"#utility.yul\":2799:2918   */\n    tag_588:\n        /* \"#utility.yul\":2985:2986   */\n      0x00\n        /* \"#utility.yul\":2974:2983   */\n      dup3\n        /* \"#utility.yul\":2970:2987   */\n      add\n        /* \"#utility.yul\":2957:2988   */\n      calldataload\n        /* \"#utility.yul\":3015:3033   */\n      0xffffffffffffffff\n        /* \"#utility.yul\":3007:3013   */\n      dup2\n        /* \"#utility.yul\":3004:3034   */\n      gt\n        /* \"#utility.yul\":3001:3118   */\n      iszero\n      tag_590\n      jumpi\n        /* \"#utility.yul\":3037:3116   */\n      tag_591\n      tag_581\n      jump\t// in\n    tag_591:\n        /* \"#utility.yul\":3001:3118   */\n    tag_590:\n        /* \"#utility.yul\":3142:3205   */\n      tag_592\n        /* \"#utility.yul\":3197:3204   */\n      dup5\n        /* \"#utility.yul\":3188:3194   */\n      dup3\n        /* \"#utility.yul\":3177:3186   */\n      dup6\n        /* \"#utility.yul\":3173:3195   */\n      add\n        /* \"#utility.yul\":3142:3205   */\n      tag_557\n      jump\t// in\n    tag_592:\n        /* \"#utility.yul\":3132:3205   */\n      swap2\n      pop\n        /* \"#utility.yul\":2928:3215   */\n      pop\n        /* \"#utility.yul\":2713:3222   */\n      swap3\n      swap2\n      pop\n      pop\n      jump\t// out\n        /* \"#utility.yul\":3228:4027   */\n    tag_215:\n        /* \"#utility.yul\":3315:3321   */\n      0x00\n        /* \"#utility.yul\":3323:3329   */\n      dup1\n        /* \"#utility.yul\":3331:3337   */\n      0x00\n        /* \"#utility.yul\":3380:3382   */\n      0x60\n        /* \"#utility.yul\":3368:3377   */\n      dup5\n        /* \"#utility.yul\":3359:3366   */\n      dup7\n        /* \"#utility.yul\":3355:3378   */\n      sub\n        /* \"#utility.yul\":3351:3383   */\n      slt\n        /* \"#utility.yul\":3348:3467   */\n      iszero\n      tag_594\n      jumpi\n        /* \"#utility.yul\":3386:3465   */\n      tag_595\n      tag_573\n      jump\t// in\n    tag_595:\n        /* \"#utility.yul\":3348:3467   */\n    tag_594:\n        /* \"#utility.yul\":3534:3535   */\n      0x00\n        /* \"#utility.yul\":3523:3532   */\n      dup5\n        /* \"#utility.yul\":3519:3536   */\n      add\n        /* \"#utility.yul\":3506:3537   */\n      calldataload\n        /* \"#utility.yul\":3564:3582   */\n      0xffffffffffffffff\n        /* \"#utility.yul\":3556:3562   */\n      dup2\n        /* \"#utility.yul\":3553:3583   */\n      gt\n        /* \"#utility.yul\":3550:3667   */\n      iszero\n      tag_596\n      jumpi\n        /* \"#utility.yul\":3586:3665   */\n      tag_597\n      tag_581\n      jump\t// in\n    tag_597:\n        /* \"#utility.yul\":3550:3667   */\n    tag_596:\n        /* \"#utility.yul\":3691:3754   */\n      tag_598\n        /* \"#utility.yul\":3746:3753   */\n      dup7\n        /* \"#utility.yul\":3737:3743   */\n      dup3\n        /* \"#utility.yul\":3726:3735   */\n      dup8\n        /* \"#utility.yul\":3722:3744   */\n      add\n        /* \"#utility.yul\":3691:3754   */\n      tag_557\n      jump\t// in\n    tag_598:\n        /* \"#utility.yul\":3681:3754   */\n      swap4\n      pop\n        /* \"#utility.yul\":3477:3764   */\n      pop\n        /* \"#utility.yul\":3803:3805   */\n      0x20\n        /* \"#utility.yul\":3829:3882   */\n      tag_599\n        /* \"#utility.yul\":3874:3881   */\n      dup7\n        /* \"#utility.yul\":3865:3871   */\n      dup3\n        /* \"#utility.yul\":3854:3863   */\n      dup8\n        /* \"#utility.yul\":3850:3872   */\n      add\n        /* \"#utility.yul\":3829:3882   */\n      tag_549\n      jump\t// in\n    tag_599:\n        /* \"#utility.yul\":3819:3882   */\n      swap3\n      pop\n        /* \"#utility.yul\":3774:3892   */\n      pop\n        /* \"#utility.yul\":3931:3933   */\n      0x40\n        /* \"#utility.yul\":3957:4010   */\n      tag_600\n        /* \"#utility.yul\":4002:4009   */\n      dup7\n        /* \"#utility.yul\":3993:3999   */\n      dup3\n        /* \"#utility.yul\":3982:3991   */\n      dup8\n        /* \"#utility.yul\":3978:4000   */\n      add\n        /* \"#utility.yul\":3957:4010   */\n      tag_563\n      jump\t// in\n    tag_600:\n        /* \"#utility.yul\":3947:4010   */\n      swap2\n      pop\n        /* \"#utility.yul\":3902:4020   */\n      pop\n        /* \"#utility.yul\":3228:4027   */\n      swap3\n      pop\n      swap3\n      pop\n      swap3\n      jump\t// out\n        /* \"#utility.yul\":4033:4362   */\n    tag_83:\n        /* \"#utility.yul\":4092:4098   */\n      0x00\n        /* \"#utility.yul\":4141:4143   */\n      0x20\n        /* \"#utility.yul\":4129:4138   */\n      dup3\n        /* \"#utility.yul\":4120:4127   */\n      dup5\n        /* \"#utility.yul\":4116:4139   */\n      sub\n        /* \"#utility.yul\":4112:4144   */\n      slt\n        /* \"#utility.yul\":4109:4228   */\n      iszero\n      tag_602\n      jumpi\n        /* \"#utility.yul\":4147:4226   */\n      tag_603\n      tag_573\n      jump\t// in\n    tag_603:\n        /* \"#utility.yul\":4109:4228   */\n    tag_602:\n        /* \"#utility.yul\":4267:4268   */\n      0x00\n        /* \"#utility.yul\":4292:4345   */\n      tag_604\n        /* \"#utility.yul\":4337:4344   */\n      dup5\n        /* \"#utility.yul\":4328:4334   */\n      dup3\n        /* \"#utility.yul\":4317:4326   */\n      dup6\n        /* \"#utility.yul\":4313:4335   */\n      add\n        /* \"#utility.yul\":4292:4345   */\n      tag_563\n      jump\t// in\n    tag_604:\n        /* \"#utility.yul\":4282:4345   */\n      swap2\n      pop\n        /* \"#utility.yul\":4238:4355   */\n      pop\n        /* \"#utility.yul\":4033:4362   */\n      swap3\n      swap2\n      pop\n      pop\n      jump\t// out\n        /* \"#utility.yul\":4368:4719   */\n    tag_243:\n        /* \"#utility.yul\":4438:4444   */\n      0x00\n        /* \"#utility.yul\":4487:4489   */\n      0x20\n        /* \"#utility.yul\":4475:4484   */\n      dup3\n        /* \"#utility.yul\":4466:4473   */\n      dup5\n        /* \"#utility.yul\":4462:4485   */\n      sub\n        /* \"#utility.yul\":4458:4490   */\n      slt\n        /* \"#utility.yul\":4455:4574   */\n      iszero\n      tag_606\n      jumpi\n        /* \"#utility.yul\":4493:4572   */\n      tag_607\n      tag_573\n      jump\t// in\n    tag_607:\n        /* \"#utility.yul\":4455:4574   */\n    tag_606:\n        /* \"#utility.yul\":4613:4614   */\n      0x00\n        /* \"#utility.yul\":4638:4702   */\n      tag_608\n        /* \"#utility.yul\":4694:4701   */\n      dup5\n        /* \"#utility.yul\":4685:4691   */\n      dup3\n        /* \"#utility.yul\":4674:4683   */\n      dup6\n        /* \"#utility.yul\":4670:4692   */\n      add\n        /* \"#utility.yul\":4638:4702   */\n      tag_567\n      jump\t// in\n    tag_608:\n        /* \"#utility.yul\":4628:4702   */\n      swap2\n      pop\n        /* \"#utility.yul\":4584:4712   */\n      pop\n        /* \"#utility.yul\":4368:4719   */\n      swap3\n      swap2\n      pop\n      pop\n      jump\t// out\n        /* \"#utility.yul\":4725:5379   */\n    tag_159:\n        /* \"#utility.yul\":4803:4809   */\n      0x00\n        /* \"#utility.yul\":4811:4817   */\n      dup1\n        /* \"#utility.yul\":4860:4862   */\n      0x40\n        /* \"#utility.yul\":4848:4857   */\n      dup4\n        /* \"#utility.yul\":4839:4846   */\n      dup6\n        /* \"#utility.yul\":4835:4858   */\n      sub\n        /* \"#utility.yul\":4831:4863   */\n      slt\n        /* \"#utility.yul\":4828:4947   */\n      iszero\n      tag_610\n      jumpi\n        /* \"#utility.yul\":4866:4945   */\n      tag_611\n      tag_573\n      jump\t// in\n    tag_611:\n        /* \"#utility.yul\":4828:4947   */\n    tag_610:\n        /* \"#utility.yul\":4986:4987   */\n      0x00\n        /* \"#utility.yul\":5011:5064   */\n      tag_612\n        /* \"#utility.yul\":5056:5063   */\n      dup6\n        /* \"#utility.yul\":5047:5053   */\n      dup3\n        /* \"#utility.yul\":5036:5045   */\n      dup7\n        /* \"#utility.yul\":5032:5054   */\n      add\n        /* \"#utility.yul\":5011:5064   */\n      tag_563\n      jump\t// in\n    tag_612:\n        /* \"#utility.yul\":5001:5064   */\n      swap3\n      pop\n        /* \"#utility.yul\":4957:5074   */\n      pop\n        /* \"#utility.yul\":5141:5143   */\n      0x20\n        /* \"#utility.yul\":5130:5139   */\n      dup4\n        /* \"#utility.yul\":5126:5144   */\n      add\n        /* \"#utility.yul\":5113:5145   */\n      calldataload\n        /* \"#utility.yul\":5172:5190   */\n      0xffffffffffffffff\n        /* \"#utility.yul\":5164:5170   */\n      dup2\n        /* \"#utility.yul\":5161:5191   */\n      gt\n        /* \"#utility.yul\":5158:5275   */\n      iszero\n      tag_613\n      jumpi\n        /* \"#utility.yul\":5194:5273   */\n      tag_614\n      tag_581\n      jump\t// in\n    tag_614:\n        /* \"#utility.yul\":5158:5275   */\n    tag_613:\n        /* \"#utility.yul\":5299:5362   */\n      tag_615\n        /* \"#utility.yul\":5354:5361   */\n      dup6\n        /* \"#utility.yul\":5345:5351   */\n      dup3\n        /* \"#utility.yul\":5334:5343   */\n      dup7\n        /* \"#utility.yul\":5330:5352   */\n      add\n        /* \"#utility.yul\":5299:5362   */\n      tag_557\n      jump\t// in\n    tag_615:\n        /* \"#utility.yul\":5289:5362   */\n      swap2\n      pop\n        /* \"#utility.yul\":5084:5372   */\n      pop\n        /* \"#utility.yul\":4725:5379   */\n      swap3\n      pop\n      swap3\n      swap1\n      pop\n      jump\t// out\n        /* \"#utility.yul\":5385:6184   */\n    tag_198:\n        /* \"#utility.yul\":5472:5478   */\n      0x00\n        /* \"#utility.yul\":5480:5486   */\n      dup1\n        /* \"#utility.yul\":5488:5494   */\n      0x00\n        /* \"#utility.yul\":5537:5539   */\n      0x60\n        /* \"#utility.yul\":5525:5534   */\n      dup5\n        /* \"#utility.yul\":5516:5523   */\n      dup7\n        /* \"#utility.yul\":5512:5535   */\n      sub\n        /* \"#utility.yul\":5508:5540   */\n      slt\n        /* \"#utility.yul\":5505:5624   */\n      iszero\n      tag_617\n      jumpi\n        /* \"#utility.yul\":5543:5622   */\n      tag_618\n      tag_573\n      jump\t// in\n    tag_618:\n        /* \"#utility.yul\":5505:5624   */\n    tag_617:\n        /* \"#utility.yul\":5663:5664   */\n      0x00\n        /* \"#utility.yul\":5688:5741   */\n      tag_619\n        /* \"#utility.yul\":5733:5740   */\n      dup7\n        /* \"#utility.yul\":5724:5730   */\n      dup3\n        /* \"#utility.yul\":5713:5722   */\n      dup8\n        /* \"#utility.yul\":5709:5731   */\n      add\n        /* \"#utility.yul\":5688:5741   */\n      tag_563\n      jump\t// in\n    tag_619:\n        /* \"#utility.yul\":5678:5741   */\n      swap4\n      pop\n        /* \"#utility.yul\":5634:5751   */\n      pop\n        /* \"#utility.yul\":5790:5792   */\n      0x20\n        /* \"#utility.yul\":5816:5869   */\n      tag_620\n        /* \"#utility.yul\":5861:5868   */\n      dup7\n        /* \"#utility.yul\":5852:5858   */\n      dup3\n        /* \"#utility.yul\":5841:5850   */\n      dup8\n        /* \"#utility.yul\":5837:5859   */\n      add\n        /* \"#utility.yul\":5816:5869   */\n      tag_563\n      jump\t// in\n    tag_620:\n        /* \"#utility.yul\":5806:5869   */\n      swap3\n      pop\n        /* \"#utility.yul\":5761:5879   */\n      pop\n        /* \"#utility.yul\":5946:5948   */\n      0x40\n        /* \"#utility.yul\":5935:5944   */\n      dup5\n        /* \"#utility.yul\":5931:5949   */\n      add\n        /* \"#utility.yul\":5918:5950   */\n      calldataload\n        /* \"#utility.yul\":5977:5995   */\n      0xffffffffffffffff\n        /* \"#utility.yul\":5969:5975   */\n      dup2\n        /* \"#utility.yul\":5966:5996   */\n      gt\n        /* \"#utility.yul\":5963:6080   */\n      iszero\n      tag_621\n      jumpi\n        /* \"#utility.yul\":5999:6078   */\n      tag_622\n      tag_581\n      jump\t// in\n    tag_622:\n        /* \"#utility.yul\":5963:6080   */\n    tag_621:\n        /* \"#utility.yul\":6104:6167   */\n      tag_623\n        /* \"#utility.yul\":6159:6166   */\n      dup7\n        /* \"#utility.yul\":6150:6156   */\n      dup3\n        /* \"#utility.yul\":6139:6148   */\n      dup8\n        /* \"#utility.yul\":6135:6157   */\n      add\n        /* \"#utility.yul\":6104:6167   */\n      tag_557\n      jump\t// in\n    tag_623:\n        /* \"#utility.yul\":6094:6167   */\n      swap2\n      pop\n        /* \"#utility.yul\":5889:6177   */\n      pop\n        /* \"#utility.yul\":5385:6184   */\n      swap3\n      pop\n      swap3\n      pop\n      swap3\n      jump\t// out\n        /* \"#utility.yul\":6190:6308   */\n    tag_624:\n        /* \"#utility.yul\":6277:6301   */\n      tag_626\n        /* \"#utility.yul\":6295:6300   */\n      dup2\n        /* \"#utility.yul\":6277:6301   */\n      tag_627\n      jump\t// in\n    tag_626:\n        /* \"#utility.yul\":6272:6275   */\n      dup3\n        /* \"#utility.yul\":6265:6302   */\n      mstore\n        /* \"#utility.yul\":6190:6308   */\n      pop\n      pop\n      jump\t// out\n        /* \"#utility.yul\":6314:6475   */\n    tag_628:\n        /* \"#utility.yul\":6416:6468   */\n      tag_630\n        /* \"#utility.yul\":6462:6467   */\n      dup2\n        /* \"#utility.yul\":6416:6468   */\n      tag_631\n      jump\t// in\n    tag_630:\n        /* \"#utility.yul\":6411:6414   */\n      dup3\n        /* \"#utility.yul\":6404:6469   */\n      mstore\n        /* \"#utility.yul\":6314:6475   */\n      pop\n      pop\n      jump\t// out\n        /* \"#utility.yul\":6481:6596   */\n    tag_632:\n        /* \"#utility.yul\":6566:6589   */\n      tag_634\n        /* \"#utility.yul\":6583:6588   */\n      dup2\n        /* \"#utility.yul\":6566:6589   */\n      tag_635\n      jump\t// in\n    tag_634:\n        /* \"#utility.yul\":6561:6564   */\n      dup3\n        /* \"#utility.yul\":6554:6590   */\n      mstore\n        /* \"#utility.yul\":6481:6596   */\n      pop\n      pop\n      jump\t// out\n        /* \"#utility.yul\":6602:6793   */\n    tag_636:\n        /* \"#utility.yul\":6719:6786   */\n      tag_638\n        /* \"#utility.yul\":6780:6785   */\n      dup2\n        /* \"#utility.yul\":6719:6786   */\n      tag_639\n      jump\t// in\n    tag_638:\n        /* \"#utility.yul\":6714:6717   */\n      dup3\n        /* \"#utility.yul\":6707:6787   */\n      mstore\n        /* \"#utility.yul\":6602:6793   */\n      pop\n      pop\n      jump\t// out\n        /* \"#utility.yul\":6799:6990   */\n    tag_640:\n        /* \"#utility.yul\":6916:6983   */\n      tag_642\n        /* \"#utility.yul\":6977:6982   */\n      dup2\n        /* \"#utility.yul\":6916:6983   */\n      tag_643\n      jump\t// in\n    tag_642:\n        /* \"#utility.yul\":6911:6914   */\n      dup3\n        /* \"#utility.yul\":6904:6984   */\n      mstore\n        /* \"#utility.yul\":6799:6990   */\n      pop\n      pop\n      jump\t// out\n        /* \"#utility.yul\":6996:7185   */\n    tag_644:\n        /* \"#utility.yul\":7112:7178   */\n      tag_646\n        /* \"#utility.yul\":7172:7177   */\n      dup2\n        /* \"#utility.yul\":7112:7178   */\n      tag_647\n      jump\t// in\n    tag_646:\n        /* \"#utility.yul\":7107:7110   */\n      dup3\n        /* \"#utility.yul\":7100:7179   */\n      mstore\n        /* \"#utility.yul\":6996:7185   */\n      pop\n      pop\n      jump\t// out\n        /* \"#utility.yul\":7191:7568   */\n    tag_648:\n        /* \"#utility.yul\":7297:7300   */\n      0x00\n        /* \"#utility.yul\":7325:7364   */\n      tag_650\n        /* \"#utility.yul\":7358:7363   */\n      dup3\n        /* \"#utility.yul\":7325:7364   */\n      tag_651\n      jump\t// in\n    tag_650:\n        /* \"#utility.yul\":7380:7469   */\n      tag_652\n        /* \"#utility.yul\":7462:7468   */\n      dup2\n        /* \"#utility.yul\":7457:7460   */\n      dup6\n        /* \"#utility.yul\":7380:7469   */\n      tag_653\n      jump\t// in\n    tag_652:\n        /* \"#utility.yul\":7373:7469   */\n      swap4\n      pop\n        /* \"#utility.yul\":7478:7530   */\n      tag_654\n        /* \"#utility.yul\":7523:7529   */\n      dup2\n        /* \"#utility.yul\":7518:7521   */\n      dup6\n        /* \"#utility.yul\":7511:7515   */\n      0x20\n        /* \"#utility.yul\":7504:7509   */\n      dup7\n        /* \"#utility.yul\":7500:7516   */\n      add\n        /* \"#utility.yul\":7478:7530   */\n      tag_655\n      jump\t// in\n    tag_654:\n        /* \"#utility.yul\":7555:7561   */\n      dup1\n        /* \"#utility.yul\":7550:7553   */\n      dup5\n        /* \"#utility.yul\":7546:7562   */\n      add\n        /* \"#utility.yul\":7539:7562   */\n      swap2\n      pop\n        /* \"#utility.yul\":7301:7568   */\n      pop\n        /* \"#utility.yul\":7191:7568   */\n      swap3\n      swap2\n      pop\n      pop\n      jump\t// out\n        /* \"#utility.yul\":7574:7940   */\n    tag_656:\n        /* \"#utility.yul\":7716:7719   */\n      0x00\n        /* \"#utility.yul\":7737:7804   */\n      tag_658\n        /* \"#utility.yul\":7801:7803   */\n      0x24\n        /* \"#utility.yul\":7796:7799   */\n      dup4\n        /* \"#utility.yul\":7737:7804   */\n      tag_659\n      jump\t// in\n    tag_658:\n        /* \"#utility.yul\":7730:7804   */\n      swap2\n      pop\n        /* \"#utility.yul\":7813:7906   */\n      tag_660\n        /* \"#utility.yul\":7902:7905   */\n      dup3\n        /* \"#utility.yul\":7813:7906   */\n      tag_661\n      jump\t// in\n    tag_660:\n        /* \"#utility.yul\":7931:7933   */\n      0x40\n        /* \"#utility.yul\":7926:7929   */\n      dup3\n        /* \"#utility.yul\":7922:7934   */\n      add\n        /* \"#utility.yul\":7915:7934   */\n      swap1\n      pop\n        /* \"#utility.yul\":7574:7940   */\n      swap2\n      swap1\n      pop\n      jump\t// out\n        /* \"#utility.yul\":7946:8312   */\n    tag_662:\n        /* \"#utility.yul\":8088:8091   */\n      0x00\n        /* \"#utility.yul\":8109:8176   */\n      tag_664\n        /* \"#utility.yul\":8173:8175   */\n      0x26\n        /* \"#utility.yul\":8168:8171   */\n      dup4\n        /* \"#utility.yul\":8109:8176   */\n      tag_659\n      jump\t// in\n    tag_664:\n        /* \"#utility.yul\":8102:8176   */\n      swap2\n      pop\n        /* \"#utility.yul\":8185:8278   */\n      tag_665\n        /* \"#utility.yul\":8274:8277   */\n      dup3\n        /* \"#utility.yul\":8185:8278   */\n      tag_666\n      jump\t// in\n    tag_665:\n        /* \"#utility.yul\":8303:8305   */\n      0x40\n        /* \"#utility.yul\":8298:8301   */\n      dup3\n        /* \"#utility.yul\":8294:8306   */\n      add\n        /* \"#utility.yul\":8287:8306   */\n      swap1\n      pop\n        /* \"#utility.yul\":7946:8312   */\n      swap2\n      swap1\n      pop\n      jump\t// out\n        /* \"#utility.yul\":8318:8684   */\n    tag_667:\n        /* \"#utility.yul\":8460:8463   */\n      0x00\n        /* \"#utility.yul\":8481:8548   */\n      tag_669\n        /* \"#utility.yul\":8545:8547   */\n      0x15\n        /* \"#utility.yul\":8540:8543   */\n      dup4\n        /* \"#utility.yul\":8481:8548   */\n      tag_659\n      jump\t// in\n    tag_669:\n        /* \"#utility.yul\":8474:8548   */\n      swap2\n      pop\n        /* \"#utility.yul\":8557:8650   */\n      tag_670\n        /* \"#utility.yul\":8646:8649   */\n      dup3\n        /* \"#utility.yul\":8557:8650   */\n      tag_671\n      jump\t// in\n    tag_670:\n        /* \"#utility.yul\":8675:8677   */\n      0x20\n        /* \"#utility.yul\":8670:8673   */\n      dup3\n        /* \"#utility.yul\":8666:8678   */\n      add\n        /* \"#utility.yul\":8659:8678   */\n      swap1\n      pop\n        /* \"#utility.yul\":8318:8684   */\n      swap2\n      swap1\n      pop\n      jump\t// out\n        /* \"#utility.yul\":8690:9056   */\n    tag_672:\n        /* \"#utility.yul\":8832:8835   */\n      0x00\n        /* \"#utility.yul\":8853:8920   */\n      tag_674\n        /* \"#utility.yul\":8917:8919   */\n      0x20\n        /* \"#utility.yul\":8912:8915   */\n      dup4\n        /* \"#utility.yul\":8853:8920   */\n      tag_659\n      jump\t// in\n    tag_674:\n        /* \"#utility.yul\":8846:8920   */\n      swap2\n      pop\n        /* \"#utility.yul\":8929:9022   */\n      tag_675\n        /* \"#utility.yul\":9018:9021   */\n      dup3\n        /* \"#utility.yul\":8929:9022   */\n      tag_676\n      jump\t// in\n    tag_675:\n        /* \"#utility.yul\":9047:9049   */\n      0x20\n        /* \"#utility.yul\":9042:9045   */\n      dup3\n        /* \"#utility.yul\":9038:9050   */\n      add\n        /* \"#utility.yul\":9031:9050   */\n      swap1\n      pop\n        /* \"#utility.yul\":8690:9056   */\n      swap2\n      swap1\n      pop\n      jump\t// out\n        /* \"#utility.yul\":9062:9428   */\n    tag_677:\n        /* \"#utility.yul\":9204:9207   */\n      0x00\n        /* \"#utility.yul\":9225:9292   */\n      tag_679\n        /* \"#utility.yul\":9289:9291   */\n      0x1a\n        /* \"#utility.yul\":9284:9287   */\n      dup4\n        /* \"#utility.yul\":9225:9292   */\n      tag_659\n      jump\t// in\n    tag_679:\n        /* \"#utility.yul\":9218:9292   */\n      swap2\n      pop\n        /* \"#utility.yul\":9301:9394   */\n      tag_680\n        /* \"#utility.yul\":9390:9393   */\n      dup3\n        /* \"#utility.yul\":9301:9394   */\n      tag_681\n      jump\t// in\n    tag_680:\n        /* \"#utility.yul\":9419:9421   */\n      0x20\n        /* \"#utility.yul\":9414:9417   */\n      dup3\n        /* \"#utility.yul\":9410:9422   */\n      add\n        /* \"#utility.yul\":9403:9422   */\n      swap1\n      pop\n        /* \"#utility.yul\":9062:9428   */\n      swap2\n      swap1\n      pop\n      jump\t// out\n        /* \"#utility.yul\":9434:9800   */\n    tag_682:\n        /* \"#utility.yul\":9576:9579   */\n      0x00\n        /* \"#utility.yul\":9597:9664   */\n      tag_684\n        /* \"#utility.yul\":9661:9663   */\n      0x15\n        /* \"#utility.yul\":9656:9659   */\n      dup4\n        /* \"#utility.yul\":9597:9664   */\n      tag_659\n      jump\t// in\n    tag_684:\n        /* \"#utility.yul\":9590:9664   */\n      swap2\n      pop\n        /* \"#utility.yul\":9673:9766   */\n      tag_685\n        /* \"#utility.yul\":9762:9765   */\n      dup3\n        /* \"#utility.yul\":9673:9766   */\n      tag_686\n      jump\t// in\n    tag_685:\n        /* \"#utility.yul\":9791:9793   */\n      0x20\n        /* \"#utility.yul\":9786:9789   */\n      dup3\n        /* \"#utility.yul\":9782:9794   */\n      add\n        /* \"#utility.yul\":9775:9794   */\n      swap1\n      pop\n        /* \"#utility.yul\":9434:9800   */\n      swap2\n      swap1\n      pop\n      jump\t// out\n        /* \"#utility.yul\":9806:10206   */\n    tag_687:\n        /* \"#utility.yul\":9966:9969   */\n      0x00\n        /* \"#utility.yul\":9987:10071   */\n      tag_689\n        /* \"#utility.yul\":10069:10070   */\n      0x04\n        /* \"#utility.yul\":10064:10067   */\n      dup4\n        /* \"#utility.yul\":9987:10071   */\n      tag_653\n      jump\t// in\n    tag_689:\n        /* \"#utility.yul\":9980:10071   */\n      swap2\n      pop\n        /* \"#utility.yul\":10080:10173   */\n      tag_690\n        /* \"#utility.yul\":10169:10172   */\n      dup3\n        /* \"#utility.yul\":10080:10173   */\n      tag_691\n      jump\t// in\n    tag_690:\n        /* \"#utility.yul\":10198:10199   */\n      0x04\n        /* \"#utility.yul\":10193:10196   */\n      dup3\n        /* \"#utility.yul\":10189:10200   */\n      add\n        /* \"#utility.yul\":10182:10200   */\n      swap1\n      pop\n        /* \"#utility.yul\":9806:10206   */\n      swap2\n      swap1\n      pop\n      jump\t// out\n        /* \"#utility.yul\":10212:10578   */\n    tag_692:\n        /* \"#utility.yul\":10354:10357   */\n      0x00\n        /* \"#utility.yul\":10375:10442   */\n      tag_694\n        /* \"#utility.yul\":10439:10441   */\n      0x0c\n        /* \"#utility.yul\":10434:10437   */\n      dup4\n        /* \"#utility.yul\":10375:10442   */\n      tag_659\n      jump\t// in\n    tag_694:\n        /* \"#utility.yul\":10368:10442   */\n      swap2\n      pop\n        /* \"#utility.yul\":10451:10544   */\n      tag_695\n        /* \"#utility.yul\":10540:10543   */\n      dup3\n        /* \"#utility.yul\":10451:10544   */\n      tag_696\n      jump\t// in\n    tag_695:\n        /* \"#utility.yul\":10569:10571   */\n      0x20\n        /* \"#utility.yul\":10564:10567   */\n      dup3\n        /* \"#utility.yul\":10560:10572   */\n      add\n        /* \"#utility.yul\":10553:10572   */\n      swap1\n      pop\n        /* \"#utility.yul\":10212:10578   */\n      swap2\n      swap1\n      pop\n      jump\t// out\n        /* \"#utility.yul\":10584:10950   */\n    tag_697:\n        /* \"#utility.yul\":10726:10729   */\n      0x00\n        /* \"#utility.yul\":10747:10814   */\n      tag_699\n        /* \"#utility.yul\":10811:10813   */\n      0x1f\n        /* \"#utility.yul\":10806:10809   */\n      dup4\n        /* \"#utility.yul\":10747:10814   */\n      tag_659\n      jump\t// in\n    tag_699:\n        /* \"#utility.yul\":10740:10814   */\n      swap2\n      pop\n        /* \"#utility.yul\":10823:10916   */\n      tag_700\n        /* \"#utility.yul\":10912:10915   */\n      dup3\n        /* \"#utility.yul\":10823:10916   */\n      tag_701\n      jump\t// in\n    tag_700:\n        /* \"#utility.yul\":10941:10943   */\n      0x20\n        /* \"#utility.yul\":10936:10939   */\n      dup3\n        /* \"#utility.yul\":10932:10944   */\n      add\n        /* \"#utility.yul\":10925:10944   */\n      swap1\n      pop\n        /* \"#utility.yul\":10584:10950   */\n      swap2\n      swap1\n      pop\n      jump\t// out\n        /* \"#utility.yul\":10956:11322   */\n    tag_702:\n        /* \"#utility.yul\":11098:11101   */\n      0x00\n        /* \"#utility.yul\":11119:11186   */\n      tag_704\n        /* \"#utility.yul\":11183:11185   */\n      0x21\n        /* \"#utility.yul\":11178:11181   */\n      dup4\n        /* \"#utility.yul\":11119:11186   */\n      tag_659\n      jump\t// in\n    tag_704:\n        /* \"#utility.yul\":11112:11186   */\n      swap2\n      pop\n        /* \"#utility.yul\":11195:11288   */\n      tag_705\n        /* \"#utility.yul\":11284:11287   */\n      dup3\n        /* \"#utility.yul\":11195:11288   */\n      tag_706\n      jump\t// in\n    tag_705:\n        /* \"#utility.yul\":11313:11315   */\n      0x40\n        /* \"#utility.yul\":11308:11311   */\n      dup3\n        /* \"#utility.yul\":11304:11316   */\n      add\n        /* \"#utility.yul\":11297:11316   */\n      swap1\n      pop\n        /* \"#utility.yul\":10956:11322   */\n      swap2\n      swap1\n      pop\n      jump\t// out\n        /* \"#utility.yul\":11328:11446   */\n    tag_707:\n        /* \"#utility.yul\":11415:11439   */\n      tag_709\n        /* \"#utility.yul\":11433:11438   */\n      dup2\n        /* \"#utility.yul\":11415:11439   */\n      tag_710\n      jump\t// in\n    tag_709:\n        /* \"#utility.yul\":11410:11413   */\n      dup3\n        /* \"#utility.yul\":11403:11440   */\n      mstore\n        /* \"#utility.yul\":11328:11446   */\n      pop\n      pop\n      jump\t// out\n        /* \"#utility.yul\":11452:11727   */\n    tag_380:\n        /* \"#utility.yul\":11584:11587   */\n      0x00\n        /* \"#utility.yul\":11606:11701   */\n      tag_712\n        /* \"#utility.yul\":11697:11700   */\n      dup3\n        /* \"#utility.yul\":11688:11694   */\n      dup5\n        /* \"#utility.yul\":11606:11701   */\n      tag_648\n      jump\t// in\n    tag_712:\n        /* \"#utility.yul\":11599:11701   */\n      swap2\n      pop\n        /* \"#utility.yul\":11718:11721   */\n      dup2\n        /* \"#utility.yul\":11711:11721   */\n      swap1\n      pop\n        /* \"#utility.yul\":11452:11727   */\n      swap3\n      swap2\n      pop\n      pop\n      jump\t// out\n        /* \"#utility.yul\":11733:12114   */\n    tag_441:\n        /* \"#utility.yul\":11918:11921   */\n      0x00\n        /* \"#utility.yul\":11940:12088   */\n      tag_714\n        /* \"#utility.yul\":12084:12087   */\n      dup3\n        /* \"#utility.yul\":11940:12088   */\n      tag_687\n      jump\t// in\n    tag_714:\n        /* \"#utility.yul\":11933:12088   */\n      swap2\n      pop\n        /* \"#utility.yul\":12105:12108   */\n      dup2\n        /* \"#utility.yul\":12098:12108   */\n      swap1\n      pop\n        /* \"#utility.yul\":11733:12114   */\n      swap2\n      swap1\n      pop\n      jump\t// out\n        /* \"#utility.yul\":12120:12342   */\n    tag_64:\n        /* \"#utility.yul\":12213:12217   */\n      0x00\n        /* \"#utility.yul\":12251:12253   */\n      0x20\n        /* \"#utility.yul\":12240:12249   */\n      dup3\n        /* \"#utility.yul\":12236:12254   */\n      add\n        /* \"#utility.yul\":12228:12254   */\n      swap1\n      pop\n        /* \"#utility.yul\":12264:12335   */\n      tag_716\n        /* \"#utility.yul\":12332:12333   */\n      0x00\n        /* \"#utility.yul\":12321:12330   */\n      dup4\n        /* \"#utility.yul\":12317:12334   */\n      add\n        /* \"#utility.yul\":12308:12314   */\n      dup5\n        /* \"#utility.yul\":12264:12335   */\n      tag_624\n      jump\t// in\n    tag_716:\n        /* \"#utility.yul\":12120:12342   */\n      swap3\n      swap2\n      pop\n      pop\n      jump\t// out\n        /* \"#utility.yul\":12348:12790   */\n    tag_517:\n        /* \"#utility.yul\":12497:12501   */\n      0x00\n        /* \"#utility.yul\":12535:12537   */\n      0x60\n        /* \"#utility.yul\":12524:12533   */\n      dup3\n        /* \"#utility.yul\":12520:12538   */\n      add\n        /* \"#utility.yul\":12512:12538   */\n      swap1\n      pop\n        /* \"#utility.yul\":12548:12619   */\n      tag_718\n        /* \"#utility.yul\":12616:12617   */\n      0x00\n        /* \"#utility.yul\":12605:12614   */\n      dup4\n        /* \"#utility.yul\":12601:12618   */\n      add\n        /* \"#utility.yul\":12592:12598   */\n      dup7\n        /* \"#utility.yul\":12548:12619   */\n      tag_624\n      jump\t// in\n    tag_718:\n        /* \"#utility.yul\":12629:12701   */\n      tag_719\n        /* \"#utility.yul\":12697:12699   */\n      0x20\n        /* \"#utility.yul\":12686:12695   */\n      dup4\n        /* \"#utility.yul\":12682:12700   */\n      add\n        /* \"#utility.yul\":12673:12679   */\n      dup6\n        /* \"#utility.yul\":12629:12701   */\n      tag_624\n      jump\t// in\n    tag_719:\n        /* \"#utility.yul\":12711:12783   */\n      tag_720\n        /* \"#utility.yul\":12779:12781   */\n      0x40\n        /* \"#utility.yul\":12768:12777   */\n      dup4\n        /* \"#utility.yul\":12764:12782   */\n      add\n        /* \"#utility.yul\":12755:12761   */\n      dup5\n        /* \"#utility.yul\":12711:12783   */\n      tag_707\n      jump\t// in\n    tag_720:\n        /* \"#utility.yul\":12348:12790   */\n      swap5\n      swap4\n      pop\n      pop\n      pop\n      pop\n      jump\t// out\n        /* \"#utility.yul\":12796:13188   */\n    tag_265:\n        /* \"#utility.yul\":12947:12951   */\n      0x00\n        /* \"#utility.yul\":12985:12987   */\n      0x40\n        /* \"#utility.yul\":12974:12983   */\n      dup3\n        /* \"#utility.yul\":12970:12988   */\n      add\n        /* \"#utility.yul\":12962:12988   */\n      swap1\n      pop\n        /* \"#utility.yul\":12998:13069   */\n      tag_722\n        /* \"#utility.yul\":13066:13067   */\n      0x00\n        /* \"#utility.yul\":13055:13064   */\n      dup4\n        /* \"#utility.yul\":13051:13068   */\n      add\n        /* \"#utility.yul\":13042:13048   */\n      dup6\n        /* \"#utility.yul\":12998:13069   */\n      tag_624\n      jump\t// in\n    tag_722:\n        /* \"#utility.yul\":13079:13181   */\n      tag_723\n        /* \"#utility.yul\":13177:13179   */\n      0x20\n        /* \"#utility.yul\":13166:13175   */\n      dup4\n        /* \"#utility.yul\":13162:13180   */\n      add\n        /* \"#utility.yul\":13153:13159   */\n      dup5\n        /* \"#utility.yul\":13079:13181   */\n      tag_636\n      jump\t// in\n    tag_723:\n        /* \"#utility.yul\":12796:13188   */\n      swap4\n      swap3\n      pop\n      pop\n      pop\n      jump\t// out\n        /* \"#utility.yul\":13194:13586   */\n    tag_270:\n        /* \"#utility.yul\":13345:13349   */\n      0x00\n        /* \"#utility.yul\":13383:13385   */\n      0x40\n        /* \"#utility.yul\":13372:13381   */\n      dup3\n        /* \"#utility.yul\":13368:13386   */\n      add\n        /* \"#utility.yul\":13360:13386   */\n      swap1\n      pop\n        /* \"#utility.yul\":13396:13467   */\n      tag_725\n        /* \"#utility.yul\":13464:13465   */\n      0x00\n        /* \"#utility.yul\":13453:13462   */\n      dup4\n        /* \"#utility.yul\":13449:13466   */\n      add\n        /* \"#utility.yul\":13440:13446   */\n      dup6\n        /* \"#utility.yul\":13396:13467   */\n      tag_624\n      jump\t// in\n    tag_725:\n        /* \"#utility.yul\":13477:13579   */\n      tag_726\n        /* \"#utility.yul\":13575:13577   */\n      0x20\n        /* \"#utility.yul\":13564:13573   */\n      dup4\n        /* \"#utility.yul\":13560:13578   */\n      add\n        /* \"#utility.yul\":13551:13557   */\n      dup5\n        /* \"#utility.yul\":13477:13579   */\n      tag_640\n      jump\t// in\n    tag_726:\n        /* \"#utility.yul\":13194:13586   */\n      swap4\n      swap3\n      pop\n      pop\n      pop\n      jump\t// out\n        /* \"#utility.yul\":13592:13982   */\n    tag_260:\n        /* \"#utility.yul\":13742:13746   */\n      0x00\n        /* \"#utility.yul\":13780:13782   */\n      0x40\n        /* \"#utility.yul\":13769:13778   */\n      dup3\n        /* \"#utility.yul\":13765:13783   */\n      add\n        /* \"#utility.yul\":13757:13783   */\n      swap1\n      pop\n        /* \"#utility.yul\":13793:13864   */\n      tag_728\n        /* \"#utility.yul\":13861:13862   */\n      0x00\n        /* \"#utility.yul\":13850:13859   */\n      dup4\n        /* \"#utility.yul\":13846:13863   */\n      add\n        /* \"#utility.yul\":13837:13843   */\n      dup6\n        /* \"#utility.yul\":13793:13864   */\n      tag_624\n      jump\t// in\n    tag_728:\n        /* \"#utility.yul\":13874:13975   */\n      tag_729\n        /* \"#utility.yul\":13971:13973   */\n      0x20\n        /* \"#utility.yul\":13960:13969   */\n      dup4\n        /* \"#utility.yul\":13956:13974   */\n      add\n        /* \"#utility.yul\":13947:13953   */\n      dup5\n        /* \"#utility.yul\":13874:13975   */\n      tag_644\n      jump\t// in\n    tag_729:\n        /* \"#utility.yul\":13592:13982   */\n      swap4\n      swap3\n      pop\n      pop\n      pop\n      jump\t// out\n        /* \"#utility.yul\":13988:14320   */\n    tag_179:\n        /* \"#utility.yul\":14109:14113   */\n      0x00\n        /* \"#utility.yul\":14147:14149   */\n      0x40\n        /* \"#utility.yul\":14136:14145   */\n      dup3\n        /* \"#utility.yul\":14132:14150   */\n      add\n        /* \"#utility.yul\":14124:14150   */\n      swap1\n      pop\n        /* \"#utility.yul\":14160:14231   */\n      tag_731\n        /* \"#utility.yul\":14228:14229   */\n      0x00\n        /* \"#utility.yul\":14217:14226   */\n      dup4\n        /* \"#utility.yul\":14213:14230   */\n      add\n        /* \"#utility.yul\":14204:14210   */\n      dup6\n        /* \"#utility.yul\":14160:14231   */\n      tag_624\n      jump\t// in\n    tag_731:\n        /* \"#utility.yul\":14241:14313   */\n      tag_732\n        /* \"#utility.yul\":14309:14311   */\n      0x20\n        /* \"#utility.yul\":14298:14307   */\n      dup4\n        /* \"#utility.yul\":14294:14312   */\n      add\n        /* \"#utility.yul\":14285:14291   */\n      dup5\n        /* \"#utility.yul\":14241:14313   */\n      tag_707\n      jump\t// in\n    tag_732:\n        /* \"#utility.yul\":13988:14320   */\n      swap4\n      swap3\n      pop\n      pop\n      pop\n      jump\t// out\n        /* \"#utility.yul\":14326:14578   */\n    tag_106:\n        /* \"#utility.yul\":14434:14438   */\n      0x00\n        /* \"#utility.yul\":14472:14474   */\n      0x20\n        /* \"#utility.yul\":14461:14470   */\n      dup3\n        /* \"#utility.yul\":14457:14475   */\n      add\n        /* \"#utility.yul\":14449:14475   */\n      swap1\n      pop\n        /* \"#utility.yul\":14485:14571   */\n      tag_734\n        /* \"#utility.yul\":14568:14569   */\n      0x00\n        /* \"#utility.yul\":14557:14566   */\n      dup4\n        /* \"#utility.yul\":14553:14570   */\n      add\n        /* \"#utility.yul\":14544:14550   */\n      dup5\n        /* \"#utility.yul\":14485:14571   */\n      tag_628\n      jump\t// in\n    tag_734:\n        /* \"#utility.yul\":14326:14578   */\n      swap3\n      swap2\n      pop\n      pop\n      jump\t// out\n        /* \"#utility.yul\":14584:14802   */\n    tag_144:\n        /* \"#utility.yul\":14675:14679   */\n      0x00\n        /* \"#utility.yul\":14713:14715   */\n      0x20\n        /* \"#utility.yul\":14702:14711   */\n      dup3\n        /* \"#utility.yul\":14698:14716   */\n      add\n        /* \"#utility.yul\":14690:14716   */\n      swap1\n      pop\n        /* \"#utility.yul\":14726:14795   */\n      tag_736\n        /* \"#utility.yul\":14792:14793   */\n      0x00\n        /* \"#utility.yul\":14781:14790   */\n      dup4\n        /* \"#utility.yul\":14777:14794   */\n      add\n        /* \"#utility.yul\":14768:14774   */\n      dup5\n        /* \"#utility.yul\":14726:14795   */\n      tag_632\n      jump\t// in\n    tag_736:\n        /* \"#utility.yul\":14584:14802   */\n      swap3\n      swap2\n      pop\n      pop\n      jump\t// out\n        /* \"#utility.yul\":14808:15227   */\n    tag_309:\n        /* \"#utility.yul\":14974:14978   */\n      0x00\n        /* \"#utility.yul\":15012:15014   */\n      0x20\n        /* \"#utility.yul\":15001:15010   */\n      dup3\n        /* \"#utility.yul\":14997:15015   */\n      add\n        /* \"#utility.yul\":14989:15015   */\n      swap1\n      pop\n        /* \"#utility.yul\":15061:15070   */\n      dup2\n        /* \"#utility.yul\":15055:15059   */\n      dup2\n        /* \"#utility.yul\":15051:15071   */\n      sub\n        /* \"#utility.yul\":15047:15048   */\n      0x00\n        /* \"#utility.yul\":15036:15045   */\n      dup4\n        /* \"#utility.yul\":15032:15049   */\n      add\n        /* \"#utility.yul\":15025:15072   */\n      mstore\n        /* \"#utility.yul\":15089:15220   */\n      tag_738\n        /* \"#utility.yul\":15215:15219   */\n      dup2\n        /* \"#utility.yul\":15089:15220   */\n      tag_656\n      jump\t// in\n    tag_738:\n        /* \"#utility.yul\":15081:15220   */\n      swap1\n      pop\n        /* \"#utility.yul\":14808:15227   */\n      swap2\n      swap1\n      pop\n      jump\t// out\n        /* \"#utility.yul\":15233:15652   */\n    tag_498:\n        /* \"#utility.yul\":15399:15403   */\n      0x00\n        /* \"#utility.yul\":15437:15439   */\n      0x20\n        /* \"#utility.yul\":15426:15435   */\n      dup3\n        /* \"#utility.yul\":15422:15440   */\n      add\n        /* \"#utility.yul\":15414:15440   */\n      swap1\n      pop\n        /* \"#utility.yul\":15486:15495   */\n      dup2\n        /* \"#utility.yul\":15480:15484   */\n      dup2\n        /* \"#utility.yul\":15476:15496   */\n      sub\n        /* \"#utility.yul\":15472:15473   */\n      0x00\n        /* \"#utility.yul\":15461:15470   */\n      dup4\n        /* \"#utility.yul\":15457:15474   */\n      add\n        /* \"#utility.yul\":15450:15497   */\n      mstore\n        /* \"#utility.yul\":15514:15645   */\n      tag_740\n        /* \"#utility.yul\":15640:15644   */\n      dup2\n        /* \"#utility.yul\":15514:15645   */\n      tag_662\n      jump\t// in\n    tag_740:\n        /* \"#utility.yul\":15506:15645   */\n      swap1\n      pop\n        /* \"#utility.yul\":15233:15652   */\n      swap2\n      swap1\n      pop\n      jump\t// out\n        /* \"#utility.yul\":15658:16077   */\n    tag_524:\n        /* \"#utility.yul\":15824:15828   */\n      0x00\n        /* \"#utility.yul\":15862:15864   */\n      0x20\n        /* \"#utility.yul\":15851:15860   */\n      dup3\n        /* \"#utility.yul\":15847:15865   */\n      add\n        /* \"#utility.yul\":15839:15865   */\n      swap1\n      pop\n        /* \"#utility.yul\":15911:15920   */\n      dup2\n        /* \"#utility.yul\":15905:15909   */\n      dup2\n        /* \"#utility.yul\":15901:15921   */\n      sub\n        /* \"#utility.yul\":15897:15898   */\n      0x00\n        /* \"#utility.yul\":15886:15895   */\n      dup4\n        /* \"#utility.yul\":15882:15899   */\n      add\n        /* \"#utility.yul\":15875:15922   */\n      mstore\n        /* \"#utility.yul\":15939:16070   */\n      tag_742\n        /* \"#utility.yul\":16065:16069   */\n      dup2\n        /* \"#utility.yul\":15939:16070   */\n      tag_667\n      jump\t// in\n    tag_742:\n        /* \"#utility.yul\":15931:16070   */\n      swap1\n      pop\n        /* \"#utility.yul\":15658:16077   */\n      swap2\n      swap1\n      pop\n      jump\t// out\n        /* \"#utility.yul\":16083:16502   */\n    tag_257:\n        /* \"#utility.yul\":16249:16253   */\n      0x00\n        /* \"#utility.yul\":16287:16289   */\n      0x20\n        /* \"#utility.yul\":16276:16285   */\n      dup3\n        /* \"#utility.yul\":16272:16290   */\n      add\n        /* \"#utility.yul\":16264:16290   */\n      swap1\n      pop\n        /* \"#utility.yul\":16336:16345   */\n      dup2\n        /* \"#utility.yul\":16330:16334   */\n      dup2\n        /* \"#utility.yul\":16326:16346   */\n      sub\n        /* \"#utility.yul\":16322:16323   */\n      0x00\n        /* \"#utility.yul\":16311:16320   */\n      dup4\n        /* \"#utility.yul\":16307:16324   */\n      add\n        /* \"#utility.yul\":16300:16347   */\n      mstore\n        /* \"#utility.yul\":16364:16495   */\n      tag_744\n        /* \"#utility.yul\":16490:16494   */\n      dup2\n        /* \"#utility.yul\":16364:16495   */\n      tag_672\n      jump\t// in\n    tag_744:\n        /* \"#utility.yul\":16356:16495   */\n      swap1\n      pop\n        /* \"#utility.yul\":16083:16502   */\n      swap2\n      swap1\n      pop\n      jump\t// out\n        /* \"#utility.yul\":16508:16927   */\n    tag_320:\n        /* \"#utility.yul\":16674:16678   */\n      0x00\n        /* \"#utility.yul\":16712:16714   */\n      0x20\n        /* \"#utility.yul\":16701:16710   */\n      dup3\n        /* \"#utility.yul\":16697:16715   */\n      add\n        /* \"#utility.yul\":16689:16715   */\n      swap1\n      pop\n        /* \"#utility.yul\":16761:16770   */\n      dup2\n        /* \"#utility.yul\":16755:16759   */\n      dup2\n        /* \"#utility.yul\":16751:16771   */\n      sub\n        /* \"#utility.yul\":16747:16748   */\n      0x00\n        /* \"#utility.yul\":16736:16745   */\n      dup4\n        /* \"#utility.yul\":16732:16749   */\n      add\n        /* \"#utility.yul\":16725:16772   */\n      mstore\n        /* \"#utility.yul\":16789:16920   */\n      tag_746\n        /* \"#utility.yul\":16915:16919   */\n      dup2\n        /* \"#utility.yul\":16789:16920   */\n      tag_677\n      jump\t// in\n    tag_746:\n        /* \"#utility.yul\":16781:16920   */\n      swap1\n      pop\n        /* \"#utility.yul\":16508:16927   */\n      swap2\n      swap1\n      pop\n      jump\t// out\n        /* \"#utility.yul\":16933:17352   */\n    tag_383:\n        /* \"#utility.yul\":17099:17103   */\n      0x00\n        /* \"#utility.yul\":17137:17139   */\n      0x20\n        /* \"#utility.yul\":17126:17135   */\n      dup3\n        /* \"#utility.yul\":17122:17140   */\n      add\n        /* \"#utility.yul\":17114:17140   */\n      swap1\n      pop\n        /* \"#utility.yul\":17186:17195   */\n      dup2\n        /* \"#utility.yul\":17180:17184   */\n      dup2\n        /* \"#utility.yul\":17176:17196   */\n      sub\n        /* \"#utility.yul\":17172:17173   */\n      0x00\n        /* \"#utility.yul\":17161:17170   */\n      dup4\n        /* \"#utility.yul\":17157:17174   */\n      add\n        /* \"#utility.yul\":17150:17197   */\n      mstore\n        /* \"#utility.yul\":17214:17345   */\n      tag_748\n        /* \"#utility.yul\":17340:17344   */\n      dup2\n        /* \"#utility.yul\":17214:17345   */\n      tag_682\n      jump\t// in\n    tag_748:\n        /* \"#utility.yul\":17206:17345   */\n      swap1\n      pop\n        /* \"#utility.yul\":16933:17352   */\n      swap2\n      swap1\n      pop\n      jump\t// out\n        /* \"#utility.yul\":17358:17777   */\n    tag_445:\n        /* \"#utility.yul\":17524:17528   */\n      0x00\n        /* \"#utility.yul\":17562:17564   */\n      0x20\n        /* \"#utility.yul\":17551:17560   */\n      dup3\n        /* \"#utility.yul\":17547:17565   */\n      add\n        /* \"#utility.yul\":17539:17565   */\n      swap1\n      pop\n        /* \"#utility.yul\":17611:17620   */\n      dup2\n        /* \"#utility.yul\":17605:17609   */\n      dup2\n        /* \"#utility.yul\":17601:17621   */\n      sub\n        /* \"#utility.yul\":17597:17598   */\n      0x00\n        /* \"#utility.yul\":17586:17595   */\n      dup4\n        /* \"#utility.yul\":17582:17599   */\n      add\n        /* \"#utility.yul\":17575:17622   */\n      mstore\n        /* \"#utility.yul\":17639:17770   */\n      tag_750\n        /* \"#utility.yul\":17765:17769   */\n      dup2\n        /* \"#utility.yul\":17639:17770   */\n      tag_692\n      jump\t// in\n    tag_750:\n        /* \"#utility.yul\":17631:17770   */\n      swap1\n      pop\n        /* \"#utility.yul\":17358:17777   */\n      swap2\n      swap1\n      pop\n      jump\t// out\n        /* \"#utility.yul\":17783:18202   */\n    tag_377:\n        /* \"#utility.yul\":17949:17953   */\n      0x00\n        /* \"#utility.yul\":17987:17989   */\n      0x20\n        /* \"#utility.yul\":17976:17985   */\n      dup3\n        /* \"#utility.yul\":17972:17990   */\n      add\n        /* \"#utility.yul\":17964:17990   */\n      swap1\n      pop\n        /* \"#utility.yul\":18036:18045   */\n      dup2\n        /* \"#utility.yul\":18030:18034   */\n      dup2\n        /* \"#utility.yul\":18026:18046   */\n      sub\n        /* \"#utility.yul\":18022:18023   */\n      0x00\n        /* \"#utility.yul\":18011:18020   */\n      dup4\n        /* \"#utility.yul\":18007:18024   */\n      add\n        /* \"#utility.yul\":18000:18047   */\n      mstore\n        /* \"#utility.yul\":18064:18195   */\n      tag_752\n        /* \"#utility.yul\":18190:18194   */\n      dup2\n        /* \"#utility.yul\":18064:18195   */\n      tag_697\n      jump\t// in\n    tag_752:\n        /* \"#utility.yul\":18056:18195   */\n      swap1\n      pop\n        /* \"#utility.yul\":17783:18202   */\n      swap2\n      swap1\n      pop\n      jump\t// out\n        /* \"#utility.yul\":18208:18627   */\n    tag_532:\n        /* \"#utility.yul\":18374:18378   */\n      0x00\n        /* \"#utility.yul\":18412:18414   */\n      0x20\n        /* \"#utility.yul\":18401:18410   */\n      dup3\n        /* \"#utility.yul\":18397:18415   */\n      add\n        /* \"#utility.yul\":18389:18415   */\n      swap1\n      pop\n        /* \"#utility.yul\":18461:18470   */\n      dup2\n        /* \"#utility.yul\":18455:18459   */\n      dup2\n        /* \"#utility.yul\":18451:18471   */\n      sub\n        /* \"#utility.yul\":18447:18448   */\n      0x00\n        /* \"#utility.yul\":18436:18445   */\n      dup4\n        /* \"#utility.yul\":18432:18449   */\n      add\n        /* \"#utility.yul\":18425:18472   */\n      mstore\n        /* \"#utility.yul\":18489:18620   */\n      tag_754\n        /* \"#utility.yul\":18615:18619   */\n      dup2\n        /* \"#utility.yul\":18489:18620   */\n      tag_702\n      jump\t// in\n    tag_754:\n        /* \"#utility.yul\":18481:18620   */\n      swap1\n      pop\n        /* \"#utility.yul\":18208:18627   */\n      swap2\n      swap1\n      pop\n      jump\t// out\n        /* \"#utility.yul\":18633:18855   */\n    tag_56:\n        /* \"#utility.yul\":18726:18730   */\n      0x00\n        /* \"#utility.yul\":18764:18766   */\n      0x20\n        /* \"#utility.yul\":18753:18762   */\n      dup3\n        /* \"#utility.yul\":18749:18767   */\n      add\n        /* \"#utility.yul\":18741:18767   */\n      swap1\n      pop\n        /* \"#utility.yul\":18777:18848   */\n      tag_756\n        /* \"#utility.yul\":18845:18846   */\n      0x00\n        /* \"#utility.yul\":18834:18843   */\n      dup4\n        /* \"#utility.yul\":18830:18847   */\n      add\n        /* \"#utility.yul\":18821:18827   */\n      dup5\n        /* \"#utility.yul\":18777:18848   */\n      tag_707\n      jump\t// in\n    tag_756:\n        /* \"#utility.yul\":18633:18855   */\n      swap3\n      swap2\n      pop\n      pop\n      jump\t// out\n        /* \"#utility.yul\":18861:19193   */\n    tag_79:\n        /* \"#utility.yul\":18982:18986   */\n      0x00\n        /* \"#utility.yul\":19020:19022   */\n      0x40\n        /* \"#utility.yul\":19009:19018   */\n      dup3\n        /* \"#utility.yul\":19005:19023   */\n      add\n        /* \"#utility.yul\":18997:19023   */\n      swap1\n      pop\n        /* \"#utility.yul\":19033:19104   */\n      tag_758\n        /* \"#utility.yul\":19101:19102   */\n      0x00\n        /* \"#utility.yul\":19090:19099   */\n      dup4\n        /* \"#utility.yul\":19086:19103   */\n      add\n        /* \"#utility.yul\":19077:19083   */\n      dup6\n        /* \"#utility.yul\":19033:19104   */\n      tag_707\n      jump\t// in\n    tag_758:\n        /* \"#utility.yul\":19114:19186   */\n      tag_759\n        /* \"#utility.yul\":19182:19184   */\n      0x20\n        /* \"#utility.yul\":19171:19180   */\n      dup4\n        /* \"#utility.yul\":19167:19185   */\n      add\n        /* \"#utility.yul\":19158:19164   */\n      dup5\n        /* \"#utility.yul\":19114:19186   */\n      tag_707\n      jump\t// in\n    tag_759:\n        /* \"#utility.yul\":18861:19193   */\n      swap4\n      swap3\n      pop\n      pop\n      pop\n      jump\t// out\n        /* \"#utility.yul\":19199:19328   */\n    tag_543:\n        /* \"#utility.yul\":19233:19239   */\n      0x00\n        /* \"#utility.yul\":19260:19280   */\n      tag_761\n      tag_762\n      jump\t// in\n    tag_761:\n        /* \"#utility.yul\":19250:19280   */\n      swap1\n      pop\n        /* \"#utility.yul\":19289:19322   */\n      tag_763\n        /* \"#utility.yul\":19317:19321   */\n      dup3\n        /* \"#utility.yul\":19309:19315   */\n      dup3\n        /* \"#utility.yul\":19289:19322   */\n      tag_764\n      jump\t// in\n    tag_763:\n        /* \"#utility.yul\":19199:19328   */\n      swap2\n      swap1\n      pop\n      jump\t// out\n        /* \"#utility.yul\":19334:19409   */\n    tag_762:\n        /* \"#utility.yul\":19367:19373   */\n      0x00\n        /* \"#utility.yul\":19400:19402   */\n      0x40\n        /* \"#utility.yul\":19394:19403   */\n      mload\n        /* \"#utility.yul\":19384:19403   */\n      swap1\n      pop\n        /* \"#utility.yul\":19334:19409   */\n      swap1\n      jump\t// out\n        /* \"#utility.yul\":19415:19723   */\n    tag_542:\n        /* \"#utility.yul\":19477:19481   */\n      0x00\n        /* \"#utility.yul\":19567:19585   */\n      0xffffffffffffffff\n        /* \"#utility.yul\":19559:19565   */\n      dup3\n        /* \"#utility.yul\":19556:19586   */\n      gt\n        /* \"#utility.yul\":19553:19609   */\n      iszero\n      tag_767\n      jumpi\n        /* \"#utility.yul\":19589:19607   */\n      tag_768\n      tag_769\n      jump\t// in\n    tag_768:\n        /* \"#utility.yul\":19553:19609   */\n    tag_767:\n        /* \"#utility.yul\":19627:19656   */\n      tag_770\n        /* \"#utility.yul\":19649:19655   */\n      dup3\n        /* \"#utility.yul\":19627:19656   */\n      tag_771\n      jump\t// in\n    tag_770:\n        /* \"#utility.yul\":19619:19656   */\n      swap1\n      pop\n        /* \"#utility.yul\":19711:19715   */\n      0x20\n        /* \"#utility.yul\":19705:19709   */\n      dup2\n        /* \"#utility.yul\":19701:19716   */\n      add\n        /* \"#utility.yul\":19693:19716   */\n      swap1\n      pop\n        /* \"#utility.yul\":19415:19723   */\n      swap2\n      swap1\n      pop\n      jump\t// out\n        /* \"#utility.yul\":19729:19828   */\n    tag_651:\n        /* \"#utility.yul\":19781:19787   */\n      0x00\n        /* \"#utility.yul\":19815:19820   */\n      dup2\n        /* \"#utility.yul\":19809:19821   */\n      mload\n        /* \"#utility.yul\":19799:19821   */\n      swap1\n      pop\n        /* \"#utility.yul\":19729:19828   */\n      swap2\n      swap1\n      pop\n      jump\t// out\n        /* \"#utility.yul\":19834:20003   */\n    tag_659:\n        /* \"#utility.yul\":19918:19929   */\n      0x00\n        /* \"#utility.yul\":19952:19958   */\n      dup3\n        /* \"#utility.yul\":19947:19950   */\n      dup3\n        /* \"#utility.yul\":19940:19959   */\n      mstore\n        /* \"#utility.yul\":19992:19996   */\n      0x20\n        /* \"#utility.yul\":19987:19990   */\n      dup3\n        /* \"#utility.yul\":19983:19997   */\n      add\n        /* \"#utility.yul\":19968:19997   */\n      swap1\n      pop\n        /* \"#utility.yul\":19834:20003   */\n      swap3\n      swap2\n      pop\n      pop\n      jump\t// out\n        /* \"#utility.yul\":20009:20157   */\n    tag_653:\n        /* \"#utility.yul\":20111:20122   */\n      0x00\n        /* \"#utility.yul\":20148:20151   */\n      dup2\n        /* \"#utility.yul\":20133:20151   */\n      swap1\n      pop\n        /* \"#utility.yul\":20009:20157   */\n      swap3\n      swap2\n      pop\n      pop\n      jump\t// out\n        /* \"#utility.yul\":20163:20468   */\n    tag_249:\n        /* \"#utility.yul\":20203:20206   */\n      0x00\n        /* \"#utility.yul\":20222:20242   */\n      tag_776\n        /* \"#utility.yul\":20240:20241   */\n      dup3\n        /* \"#utility.yul\":20222:20242   */\n      tag_710\n      jump\t// in\n    tag_776:\n        /* \"#utility.yul\":20217:20242   */\n      swap2\n      pop\n        /* \"#utility.yul\":20256:20276   */\n      tag_777\n        /* \"#utility.yul\":20274:20275   */\n      dup4\n        /* \"#utility.yul\":20256:20276   */\n      tag_710\n      jump\t// in\n    tag_777:\n        /* \"#utility.yul\":20251:20276   */\n      swap3\n      pop\n        /* \"#utility.yul\":20410:20411   */\n      dup3\n        /* \"#utility.yul\":20342:20408   */\n      0xffffffffffffffffffffffffffffffffffffffffffffffffffffffffffffffff\n        /* \"#utility.yul\":20338:20412   */\n      sub\n        /* \"#utility.yul\":20335:20336   */\n      dup3\n        /* \"#utility.yul\":20332:20413   */\n      gt\n        /* \"#utility.yul\":20329:20436   */\n      iszero\n      tag_778\n      jumpi\n        /* \"#utility.yul\":20416:20434   */\n      tag_779\n      tag_780\n      jump\t// in\n    tag_779:\n        /* \"#utility.yul\":20329:20436   */\n    tag_778:\n        /* \"#utility.yul\":20460:20461   */\n      dup3\n        /* \"#utility.yul\":20457:20458   */\n      dup3\n        /* \"#utility.yul\":20453:20462   */\n      add\n        /* \"#utility.yul\":20446:20462   */\n      swap1\n      pop\n        /* \"#utility.yul\":20163:20468   */\n      swap3\n      swap2\n      pop\n      pop\n      jump\t// out\n        /* \"#utility.yul\":20474:20659   */\n    tag_276:\n        /* \"#utility.yul\":20514:20515   */\n      0x00\n        /* \"#utility.yul\":20531:20551   */\n      tag_782\n        /* \"#utility.yul\":20549:20550   */\n      dup3\n        /* \"#utility.yul\":20531:20551   */\n      tag_710\n      jump\t// in\n    tag_782:\n        /* \"#utility.yul\":20526:20551   */\n      swap2\n      pop\n        /* \"#utility.yul\":20565:20585   */\n      tag_783\n        /* \"#utility.yul\":20583:20584   */\n      dup4\n        /* \"#utility.yul\":20565:20585   */\n      tag_710\n      jump\t// in\n    tag_783:\n        /* \"#utility.yul\":20560:20585   */\n      swap3\n      pop\n        /* \"#utility.yul\":20604:20605   */\n      dup3\n        /* \"#utility.yul\":20594:20629   */\n      tag_784\n      jumpi\n        /* \"#utility.yul\":20609:20627   */\n      tag_785\n      tag_786\n      jump\t// in\n    tag_785:\n        /* \"#utility.yul\":20594:20629   */\n    tag_784:\n        /* \"#utility.yul\":20651:20652   */\n      dup3\n        /* \"#utility.yul\":20648:20649   */\n      dup3\n        /* \"#utility.yul\":20644:20653   */\n      div\n        /* \"#utility.yul\":20639:20653   */\n      swap1\n      pop\n        /* \"#utility.yul\":20474:20659   */\n      swap3\n      swap2\n      pop\n      pop\n      jump\t// out\n        /* \"#utility.yul\":20665:21013   */\n    tag_330:\n        /* \"#utility.yul\":20705:20712   */\n      0x00\n        /* \"#utility.yul\":20728:20748   */\n      tag_788\n        /* \"#utility.yul\":20746:20747   */\n      dup3\n        /* \"#utility.yul\":20728:20748   */\n      tag_710\n      jump\t// in\n    tag_788:\n        /* \"#utility.yul\":20723:20748   */\n      swap2\n      pop\n        /* \"#utility.yul\":20762:20782   */\n      tag_789\n        /* \"#utility.yul\":20780:20781   */\n      dup4\n        /* \"#utility.yul\":20762:20782   */\n      tag_710\n      jump\t// in\n    tag_789:\n        /* \"#utility.yul\":20757:20782   */\n      swap3\n      pop\n        /* \"#utility.yul\":20950:20951   */\n      dup2\n        /* \"#utility.yul\":20882:20948   */\n      0xffffffffffffffffffffffffffffffffffffffffffffffffffffffffffffffff\n        /* \"#utility.yul\":20878:20952   */\n      div\n        /* \"#utility.yul\":20875:20876   */\n      dup4\n        /* \"#utility.yul\":20872:20953   */\n      gt\n        /* \"#utility.yul\":20867:20868   */\n      dup3\n        /* \"#utility.yul\":20860:20869   */\n      iszero\n        /* \"#utility.yul\":20853:20870   */\n      iszero\n        /* \"#utility.yul\":20849:20954   */\n      and\n        /* \"#utility.yul\":20846:20977   */\n      iszero\n      tag_790\n      jumpi\n        /* \"#utility.yul\":20957:20975   */\n      tag_791\n      tag_780\n      jump\t// in\n    tag_791:\n        /* \"#utility.yul\":20846:20977   */\n    tag_790:\n        /* \"#utility.yul\":21005:21006   */\n      dup3\n        /* \"#utility.yul\":21002:21003   */\n      dup3\n        /* \"#utility.yul\":20998:21007   */\n      mul\n        /* \"#utility.yul\":20987:21007   */\n      swap1\n      pop\n        /* \"#utility.yul\":20665:21013   */\n      swap3\n      swap2\n      pop\n      pop\n      jump\t// out\n        /* \"#utility.yul\":21019:21210   */\n    tag_278:\n        /* \"#utility.yul\":21059:21063   */\n      0x00\n        /* \"#utility.yul\":21079:21099   */\n      tag_793\n        /* \"#utility.yul\":21097:21098   */\n      dup3\n        /* \"#utility.yul\":21079:21099   */\n      tag_710\n      jump\t// in\n    tag_793:\n        /* \"#utility.yul\":21074:21099   */\n      swap2\n      pop\n        /* \"#utility.yul\":21113:21133   */\n      tag_794\n        /* \"#utility.yul\":21131:21132   */\n      dup4\n        /* \"#utility.yul\":21113:21133   */\n      tag_710\n      jump\t// in\n    tag_794:\n        /* \"#utility.yul\":21108:21133   */\n      swap3\n      pop\n        /* \"#utility.yul\":21152:21153   */\n      dup3\n        /* \"#utility.yul\":21149:21150   */\n      dup3\n        /* \"#utility.yul\":21146:21154   */\n      lt\n        /* \"#utility.yul\":21143:21177   */\n      iszero\n      tag_795\n      jumpi\n        /* \"#utility.yul\":21157:21175   */\n      tag_796\n      tag_780\n      jump\t// in\n    tag_796:\n        /* \"#utility.yul\":21143:21177   */\n    tag_795:\n        /* \"#utility.yul\":21202:21203   */\n      dup3\n        /* \"#utility.yul\":21199:21200   */\n      dup3\n        /* \"#utility.yul\":21195:21204   */\n      sub\n        /* \"#utility.yul\":21187:21204   */\n      swap1\n      pop\n        /* \"#utility.yul\":21019:21210   */\n      swap3\n      swap2\n      pop\n      pop\n      jump\t// out\n        /* \"#utility.yul\":21216:21312   */\n    tag_627:\n        /* \"#utility.yul\":21253:21260   */\n      0x00\n        /* \"#utility.yul\":21282:21306   */\n      tag_798\n        /* \"#utility.yul\":21300:21305   */\n      dup3\n        /* \"#utility.yul\":21282:21306   */\n      tag_799\n      jump\t// in\n    tag_798:\n        /* \"#utility.yul\":21271:21306   */\n      swap1\n      pop\n        /* \"#utility.yul\":21216:21312   */\n      swap2\n      swap1\n      pop\n      jump\t// out\n        /* \"#utility.yul\":21318:21408   */\n    tag_800:\n        /* \"#utility.yul\":21352:21359   */\n      0x00\n        /* \"#utility.yul\":21395:21400   */\n      dup2\n        /* \"#utility.yul\":21388:21401   */\n      iszero\n        /* \"#utility.yul\":21381:21402   */\n      iszero\n        /* \"#utility.yul\":21370:21402   */\n      swap1\n      pop\n        /* \"#utility.yul\":21318:21408   */\n      swap2\n      swap1\n      pop\n      jump\t// out\n        /* \"#utility.yul\":21414:21506   */\n    tag_635:\n        /* \"#utility.yul\":21450:21457   */\n      0x00\n        /* \"#utility.yul\":21494:21499   */\n      dup2\n        /* \"#utility.yul\":21490:21492   */\n      0x0f\n        /* \"#utility.yul\":21479:21500   */\n      signextend\n        /* \"#utility.yul\":21468:21500   */\n      swap1\n      pop\n        /* \"#utility.yul\":21414:21506   */\n      swap2\n      swap1\n      pop\n      jump\t// out\n        /* \"#utility.yul\":21512:21638   */\n    tag_799:\n        /* \"#utility.yul\":21549:21556   */\n      0x00\n        /* \"#utility.yul\":21589:21631   */\n      0xffffffffffffffffffffffffffffffffffffffff\n        /* \"#utility.yul\":21582:21587   */\n      dup3\n        /* \"#utility.yul\":21578:21632   */\n      and\n        /* \"#utility.yul\":21567:21632   */\n      swap1\n      pop\n        /* \"#utility.yul\":21512:21638   */\n      swap2\n      swap1\n      pop\n      jump\t// out\n        /* \"#utility.yul\":21644:21721   */\n    tag_710:\n        /* \"#utility.yul\":21681:21688   */\n      0x00\n        /* \"#utility.yul\":21710:21715   */\n      dup2\n        /* \"#utility.yul\":21699:21715   */\n      swap1\n      pop\n        /* \"#utility.yul\":21644:21721   */\n      swap2\n      swap1\n      pop\n      jump\t// out\n        /* \"#utility.yul\":21727:21868   */\n    tag_631:\n        /* \"#utility.yul\":21792:21801   */\n      0x00\n        /* \"#utility.yul\":21825:21862   */\n      tag_806\n        /* \"#utility.yul\":21856:21861   */\n      dup3\n        /* \"#utility.yul\":21825:21862   */\n      tag_807\n      jump\t// in\n    tag_806:\n        /* \"#utility.yul\":21812:21862   */\n      swap1\n      pop\n        /* \"#utility.yul\":21727:21868   */\n      swap2\n      swap1\n      pop\n      jump\t// out\n        /* \"#utility.yul\":21874:22017   */\n    tag_639:\n        /* \"#utility.yul\":21954:21963   */\n      0x00\n        /* \"#utility.yul\":21987:22011   */\n      tag_809\n        /* \"#utility.yul\":22005:22010   */\n      dup3\n        /* \"#utility.yul\":21987:22011   */\n      tag_710\n      jump\t// in\n    tag_809:\n        /* \"#utility.yul\":21974:22011   */\n      swap1\n      pop\n        /* \"#utility.yul\":21874:22017   */\n      swap2\n      swap1\n      pop\n      jump\t// out\n        /* \"#utility.yul\":22023:22166   */\n    tag_643:\n        /* \"#utility.yul\":22103:22112   */\n      0x00\n        /* \"#utility.yul\":22136:22160   */\n      tag_811\n        /* \"#utility.yul\":22154:22159   */\n      dup3\n        /* \"#utility.yul\":22136:22160   */\n      tag_710\n      jump\t// in\n    tag_811:\n        /* \"#utility.yul\":22123:22160   */\n      swap1\n      pop\n        /* \"#utility.yul\":22023:22166   */\n      swap2\n      swap1\n      pop\n      jump\t// out\n        /* \"#utility.yul\":22172:22314   */\n    tag_647:\n        /* \"#utility.yul\":22251:22260   */\n      0x00\n        /* \"#utility.yul\":22284:22308   */\n      tag_813\n        /* \"#utility.yul\":22302:22307   */\n      dup3\n        /* \"#utility.yul\":22284:22308   */\n      tag_710\n      jump\t// in\n    tag_813:\n        /* \"#utility.yul\":22271:22308   */\n      swap1\n      pop\n        /* \"#utility.yul\":22172:22314   */\n      swap2\n      swap1\n      pop\n      jump\t// out\n        /* \"#utility.yul\":22320:22446   */\n    tag_807:\n        /* \"#utility.yul\":22370:22379   */\n      0x00\n        /* \"#utility.yul\":22403:22440   */\n      tag_815\n        /* \"#utility.yul\":22434:22439   */\n      dup3\n        /* \"#utility.yul\":22403:22440   */\n      tag_816\n      jump\t// in\n    tag_815:\n        /* \"#utility.yul\":22390:22440   */\n      swap1\n      pop\n        /* \"#utility.yul\":22320:22446   */\n      swap2\n      swap1\n      pop\n      jump\t// out\n        /* \"#utility.yul\":22452:22565   */\n    tag_816:\n        /* \"#utility.yul\":22502:22511   */\n      0x00\n        /* \"#utility.yul\":22535:22559   */\n      tag_818\n        /* \"#utility.yul\":22553:22558   */\n      dup3\n        /* \"#utility.yul\":22535:22559   */\n      tag_799\n      jump\t// in\n    tag_818:\n        /* \"#utility.yul\":22522:22559   */\n      swap1\n      pop\n        /* \"#utility.yul\":22452:22565   */\n      swap2\n      swap1\n      pop\n      jump\t// out\n        /* \"#utility.yul\":22571:22725   */\n    tag_548:\n        /* \"#utility.yul\":22655:22661   */\n      dup3\n        /* \"#utility.yul\":22650:22653   */\n      dup2\n        /* \"#utility.yul\":22645:22648   */\n      dup4\n        /* \"#utility.yul\":22632:22662   */\n      calldatacopy\n        /* \"#utility.yul\":22717:22718   */\n      0x00\n        /* \"#utility.yul\":22708:22714   */\n      dup4\n        /* \"#utility.yul\":22703:22706   */\n      dup4\n        /* \"#utility.yul\":22699:22715   */\n      add\n        /* \"#utility.yul\":22692:22719   */\n      mstore\n        /* \"#utility.yul\":22571:22725   */\n      pop\n      pop\n      pop\n      jump\t// out\n        /* \"#utility.yul\":22731:23038   */\n    tag_655:\n        /* \"#utility.yul\":22799:22800   */\n      0x00\n        /* \"#utility.yul\":22809:22922   */\n    tag_821:\n        /* \"#utility.yul\":22823:22829   */\n      dup4\n        /* \"#utility.yul\":22820:22821   */\n      dup2\n        /* \"#utility.yul\":22817:22830   */\n      lt\n        /* \"#utility.yul\":22809:22922   */\n      iszero\n      tag_823\n      jumpi\n        /* \"#utility.yul\":22908:22909   */\n      dup1\n        /* \"#utility.yul\":22903:22906   */\n      dup3\n        /* \"#utility.yul\":22899:22910   */\n      add\n        /* \"#utility.yul\":22893:22911   */\n      mload\n        /* \"#utility.yul\":22889:22890   */\n      dup2\n        /* \"#utility.yul\":22884:22887   */\n      dup5\n        /* \"#utility.yul\":22880:22891   */\n      add\n        /* \"#utility.yul\":22873:22912   */\n      mstore\n        /* \"#utility.yul\":22845:22847   */\n      0x20\n        /* \"#utility.yul\":22842:22843   */\n      dup2\n        /* \"#utility.yul\":22838:22848   */\n      add\n        /* \"#utility.yul\":22833:22848   */\n      swap1\n      pop\n        /* \"#utility.yul\":22809:22922   */\n      jump(tag_821)\n    tag_823:\n        /* \"#utility.yul\":22940:22946   */\n      dup4\n        /* \"#utility.yul\":22937:22938   */\n      dup2\n        /* \"#utility.yul\":22934:22947   */\n      gt\n        /* \"#utility.yul\":22931:23032   */\n      iszero\n      tag_824\n      jumpi\n        /* \"#utility.yul\":23020:23021   */\n      0x00\n        /* \"#utility.yul\":23011:23017   */\n      dup5\n        /* \"#utility.yul\":23006:23009   */\n      dup5\n        /* \"#utility.yul\":23002:23018   */\n      add\n        /* \"#utility.yul\":22995:23022   */\n      mstore\n        /* \"#utility.yul\":22931:23032   */\n    tag_824:\n        /* \"#utility.yul\":22780:23038   */\n      pop\n        /* \"#utility.yul\":22731:23038   */\n      pop\n      pop\n      pop\n      jump\t// out\n        /* \"#utility.yul\":23044:23325   */\n    tag_764:\n        /* \"#utility.yul\":23127:23154   */\n      tag_826\n        /* \"#utility.yul\":23149:23153   */\n      dup3\n        /* \"#utility.yul\":23127:23154   */\n      tag_771\n      jump\t// in\n    tag_826:\n        /* \"#utility.yul\":23119:23125   */\n      dup2\n        /* \"#utility.yul\":23115:23155   */\n      add\n        /* \"#utility.yul\":23257:23263   */\n      dup2\n        /* \"#utility.yul\":23245:23255   */\n      dup2\n        /* \"#utility.yul\":23242:23264   */\n      lt\n        /* \"#utility.yul\":23221:23239   */\n      0xffffffffffffffff\n        /* \"#utility.yul\":23209:23219   */\n      dup3\n        /* \"#utility.yul\":23206:23240   */\n      gt\n        /* \"#utility.yul\":23203:23265   */\n      or\n        /* \"#utility.yul\":23200:23288   */\n      iszero\n      tag_827\n      jumpi\n        /* \"#utility.yul\":23268:23286   */\n      tag_828\n      tag_769\n      jump\t// in\n    tag_828:\n        /* \"#utility.yul\":23200:23288   */\n    tag_827:\n        /* \"#utility.yul\":23308:23318   */\n      dup1\n        /* \"#utility.yul\":23304:23306   */\n      0x40\n        /* \"#utility.yul\":23297:23319   */\n      mstore\n        /* \"#utility.yul\":23087:23325   */\n      pop\n        /* \"#utility.yul\":23044:23325   */\n      pop\n      pop\n      jump\t// out\n        /* \"#utility.yul\":23331:23564   */\n    tag_288:\n        /* \"#utility.yul\":23370:23373   */\n      0x00\n        /* \"#utility.yul\":23393:23417   */\n      tag_830\n        /* \"#utility.yul\":23411:23416   */\n      dup3\n        /* \"#utility.yul\":23393:23417   */\n      tag_710\n      jump\t// in\n    tag_830:\n        /* \"#utility.yul\":23384:23417   */\n      swap2\n      pop\n        /* \"#utility.yul\":23439:23505   */\n      0xffffffffffffffffffffffffffffffffffffffffffffffffffffffffffffffff\n        /* \"#utility.yul\":23432:23437   */\n      dup3\n        /* \"#utility.yul\":23429:23506   */\n      eq\n        /* \"#utility.yul\":23426:23529   */\n      iszero\n      tag_831\n      jumpi\n        /* \"#utility.yul\":23509:23527   */\n      tag_832\n      tag_780\n      jump\t// in\n    tag_832:\n        /* \"#utility.yul\":23426:23529   */\n    tag_831:\n        /* \"#utility.yul\":23556:23557   */\n      0x01\n        /* \"#utility.yul\":23549:23554   */\n      dup3\n        /* \"#utility.yul\":23545:23558   */\n      add\n        /* \"#utility.yul\":23538:23558   */\n      swap1\n      pop\n        /* \"#utility.yul\":23331:23564   */\n      swap2\n      swap1\n      pop\n      jump\t// out\n        /* \"#utility.yul\":23570:23750   */\n    tag_780:\n        /* \"#utility.yul\":23618:23695   */\n      0x4e487b7100000000000000000000000000000000000000000000000000000000\n        /* \"#utility.yul\":23615:23616   */\n      0x00\n        /* \"#utility.yul\":23608:23696   */\n      mstore\n        /* \"#utility.yul\":23715:23719   */\n      0x11\n        /* \"#utility.yul\":23712:23713   */\n      0x04\n        /* \"#utility.yul\":23705:23720   */\n      mstore\n        /* \"#utility.yul\":23739:23743   */\n      0x24\n        /* \"#utility.yul\":23736:23737   */\n      0x00\n        /* \"#utility.yul\":23729:23744   */\n      revert\n        /* \"#utility.yul\":23756:23936   */\n    tag_786:\n        /* \"#utility.yul\":23804:23881   */\n      0x4e487b7100000000000000000000000000000000000000000000000000000000\n        /* \"#utility.yul\":23801:23802   */\n      0x00\n        /* \"#utility.yul\":23794:23882   */\n      mstore\n        /* \"#utility.yul\":23901:23905   */\n      0x12\n        /* \"#utility.yul\":23898:23899   */\n      0x04\n        /* \"#utility.yul\":23891:23906   */\n      mstore\n        /* \"#utility.yul\":23925:23929   */\n      0x24\n        /* \"#utility.yul\":23922:23923   */\n      0x00\n        /* \"#utility.yul\":23915:23930   */\n      revert\n        /* \"#utility.yul\":23942:24122   */\n    tag_769:\n        /* \"#utility.yul\":23990:24067   */\n      0x4e487b7100000000000000000000000000000000000000000000000000000000\n        /* \"#utility.yul\":23987:23988   */\n      0x00\n        /* \"#utility.yul\":23980:24068   */\n      mstore\n        /* \"#utility.yul\":24087:24091   */\n      0x41\n        /* \"#utility.yul\":24084:24085   */\n      0x04\n        /* \"#utility.yul\":24077:24092   */\n      mstore\n        /* \"#utility.yul\":24111:24115   */\n      0x24\n        /* \"#utility.yul\":24108:24109   */\n      0x00\n        /* \"#utility.yul\":24101:24116   */\n      revert\n        /* \"#utility.yul\":24128:24245   */\n    tag_561:\n        /* \"#utility.yul\":24237:24238   */\n      0x00\n        /* \"#utility.yul\":24234:24235   */\n      dup1\n        /* \"#utility.yul\":24227:24239   */\n      revert\n        /* \"#utility.yul\":24251:24368   */\n    tag_546:\n        /* \"#utility.yul\":24360:24361   */\n      0x00\n        /* \"#utility.yul\":24357:24358   */\n      dup1\n        /* \"#utility.yul\":24350:24362   */\n      revert\n        /* \"#utility.yul\":24374:24491   */\n    tag_581:\n        /* \"#utility.yul\":24483:24484   */\n      0x00\n        /* \"#utility.yul\":24480:24481   */\n      dup1\n        /* \"#utility.yul\":24473:24485   */\n      revert\n        /* \"#utility.yul\":24497:24614   */\n    tag_573:\n        /* \"#utility.yul\":24606:24607   */\n      0x00\n        /* \"#utility.yul\":24603:24604   */\n      dup1\n        /* \"#utility.yul\":24596:24608   */\n      revert\n        /* \"#utility.yul\":24620:24722   */\n    tag_771:\n        /* \"#utility.yul\":24661:24667   */\n      0x00\n        /* \"#utility.yul\":24712:24714   */\n      0x1f\n        /* \"#utility.yul\":24708:24715   */\n      not\n        /* \"#utility.yul\":24703:24705   */\n      0x1f\n        /* \"#utility.yul\":24696:24701   */\n      dup4\n        /* \"#utility.yul\":24692:24706   */\n      add\n        /* \"#utility.yul\":24688:24716   */\n      and\n        /* \"#utility.yul\":24678:24716   */\n      swap1\n      pop\n        /* \"#utility.yul\":24620:24722   */\n      swap2\n      swap1\n      pop\n      jump\t// out\n        /* \"#utility.yul\":24728:24951   */\n    tag_661:\n        /* \"#utility.yul\":24868:24902   */\n      0x596f7520646f6e7420686176652074686174206d75636820746f207769746864\n        /* \"#utility.yul\":24864:24865   */\n      0x00\n        /* \"#utility.yul\":24856:24862   */\n      dup3\n        /* \"#utility.yul\":24852:24866   */\n      add\n        /* \"#utility.yul\":24845:24903   */\n      mstore\n        /* \"#utility.yul\":24937:24943   */\n      0x7261772100000000000000000000000000000000000000000000000000000000\n        /* \"#utility.yul\":24932:24934   */\n      0x20\n        /* \"#utility.yul\":24924:24930   */\n      dup3\n        /* \"#utility.yul\":24920:24935   */\n      add\n        /* \"#utility.yul\":24913:24944   */\n      mstore\n        /* \"#utility.yul\":24728:24951   */\n      pop\n      jump\t// out\n        /* \"#utility.yul\":24957:25182   */\n    tag_666:\n        /* \"#utility.yul\":25097:25131   */\n      0x4f776e61626c653a206e6577206f776e657220697320746865207a65726f2061\n        /* \"#utility.yul\":25093:25094   */\n      0x00\n        /* \"#utility.yul\":25085:25091   */\n      dup3\n        /* \"#utility.yul\":25081:25095   */\n      add\n        /* \"#utility.yul\":25074:25132   */\n      mstore\n        /* \"#utility.yul\":25166:25174   */\n      0x6464726573730000000000000000000000000000000000000000000000000000\n        /* \"#utility.yul\":25161:25163   */\n      0x20\n        /* \"#utility.yul\":25153:25159   */\n      dup3\n        /* \"#utility.yul\":25149:25164   */\n      add\n        /* \"#utility.yul\":25142:25175   */\n      mstore\n        /* \"#utility.yul\":24957:25182   */\n      pop\n      jump\t// out\n        /* \"#utility.yul\":25188:25359   */\n    tag_671:\n        /* \"#utility.yul\":25328:25351   */\n      0x546f6b656e207472616e73666572206661696c65640000000000000000000000\n        /* \"#utility.yul\":25324:25325   */\n      0x00\n        /* \"#utility.yul\":25316:25322   */\n      dup3\n        /* \"#utility.yul\":25312:25326   */\n      add\n        /* \"#utility.yul\":25305:25352   */\n      mstore\n        /* \"#utility.yul\":25188:25359   */\n      pop\n      jump\t// out\n        /* \"#utility.yul\":25365:25547   */\n    tag_676:\n        /* \"#utility.yul\":25505:25539   */\n      0x4f776e61626c653a2063616c6c6572206973206e6f7420746865206f776e6572\n        /* \"#utility.yul\":25501:25502   */\n      0x00\n        /* \"#utility.yul\":25493:25499   */\n      dup3\n        /* \"#utility.yul\":25489:25503   */\n      add\n        /* \"#utility.yul\":25482:25540   */\n      mstore\n        /* \"#utility.yul\":25365:25547   */\n      pop\n      jump\t// out\n        /* \"#utility.yul\":25553:25729   */\n    tag_681:\n        /* \"#utility.yul\":25693:25721   */\n      0x596f7520646f6e742068617665207468617420616d6f756e7421000000000000\n        /* \"#utility.yul\":25689:25690   */\n      0x00\n        /* \"#utility.yul\":25681:25687   */\n      dup3\n        /* \"#utility.yul\":25677:25691   */\n      add\n        /* \"#utility.yul\":25670:25722   */\n      mstore\n        /* \"#utility.yul\":25553:25729   */\n      pop\n      jump\t// out\n        /* \"#utility.yul\":25735:25906   */\n    tag_686:\n        /* \"#utility.yul\":25875:25898   */\n      0x506572207472616e73616374696f6e206c696d69740000000000000000000000\n        /* \"#utility.yul\":25871:25872   */\n      0x00\n        /* \"#utility.yul\":25863:25869   */\n      dup3\n        /* \"#utility.yul\":25859:25873   */\n      add\n        /* \"#utility.yul\":25852:25899   */\n      mstore\n        /* \"#utility.yul\":25735:25906   */\n      pop\n      jump\t// out\n        /* \"#utility.yul\":25912:26066   */\n    tag_691:\n        /* \"#utility.yul\":26052:26058   */\n      0x5553444300000000000000000000000000000000000000000000000000000000\n        /* \"#utility.yul\":26048:26049   */\n      0x00\n        /* \"#utility.yul\":26040:26046   */\n      dup3\n        /* \"#utility.yul\":26036:26050   */\n      add\n        /* \"#utility.yul\":26029:26059   */\n      mstore\n        /* \"#utility.yul\":25912:26066   */\n      pop\n      jump\t// out\n        /* \"#utility.yul\":26072:26234   */\n    tag_696:\n        /* \"#utility.yul\":26212:26226   */\n      0x4e6f7420756e6c6f636b65640000000000000000000000000000000000000000\n        /* \"#utility.yul\":26208:26209   */\n      0x00\n        /* \"#utility.yul\":26200:26206   */\n      dup3\n        /* \"#utility.yul\":26196:26210   */\n      add\n        /* \"#utility.yul\":26189:26227   */\n      mstore\n        /* \"#utility.yul\":26072:26234   */\n      pop\n      jump\t// out\n        /* \"#utility.yul\":26240:26421   */\n    tag_701:\n        /* \"#utility.yul\":26380:26413   */\n      0x5265656e7472616e637947756172643a207265656e7472616e742063616c6c00\n        /* \"#utility.yul\":26376:26377   */\n      0x00\n        /* \"#utility.yul\":26368:26374   */\n      dup3\n        /* \"#utility.yul\":26364:26378   */\n      add\n        /* \"#utility.yul\":26357:26414   */\n      mstore\n        /* \"#utility.yul\":26240:26421   */\n      pop\n      jump\t// out\n        /* \"#utility.yul\":26427:26647   */\n    tag_706:\n        /* \"#utility.yul\":26567:26601   */\n      0x75696e74206f766572666c6f772066726f6d206d756c7469706c69636174696f\n        /* \"#utility.yul\":26563:26564   */\n      0x00\n        /* \"#utility.yul\":26555:26561   */\n      dup3\n        /* \"#utility.yul\":26551:26565   */\n      add\n        /* \"#utility.yul\":26544:26602   */\n      mstore\n        /* \"#utility.yul\":26636:26639   */\n      0x6e00000000000000000000000000000000000000000000000000000000000000\n        /* \"#utility.yul\":26631:26633   */\n      0x20\n        /* \"#utility.yul\":26623:26629   */\n      dup3\n        /* \"#utility.yul\":26619:26634   */\n      add\n        /* \"#utility.yul\":26612:26640   */\n      mstore\n        /* \"#utility.yul\":26427:26647   */\n      pop\n      jump\t// out\n        /* \"#utility.yul\":26653:26775   */\n    tag_552:\n        /* \"#utility.yul\":26726:26750   */\n      tag_852\n        /* \"#utility.yul\":26744:26749   */\n      dup2\n        /* \"#utility.yul\":26726:26750   */\n      tag_627\n      jump\t// in\n    tag_852:\n        /* \"#utility.yul\":26719:26724   */\n      dup2\n        /* \"#utility.yul\":26716:26751   */\n      eq\n        /* \"#utility.yul\":26706:26769   */\n      tag_853\n      jumpi\n        /* \"#utility.yul\":26765:26766   */\n      0x00\n        /* \"#utility.yul\":26762:26763   */\n      dup1\n        /* \"#utility.yul\":26755:26767   */\n      revert\n        /* \"#utility.yul\":26706:26769   */\n    tag_853:\n        /* \"#utility.yul\":26653:26775   */\n      pop\n      jump\t// out\n        /* \"#utility.yul\":26781:26897   */\n    tag_556:\n        /* \"#utility.yul\":26851:26872   */\n      tag_855\n        /* \"#utility.yul\":26866:26871   */\n      dup2\n        /* \"#utility.yul\":26851:26872   */\n      tag_800\n      jump\t// in\n    tag_855:\n        /* \"#utility.yul\":26844:26849   */\n      dup2\n        /* \"#utility.yul\":26841:26873   */\n      eq\n        /* \"#utility.yul\":26831:26891   */\n      tag_856\n      jumpi\n        /* \"#utility.yul\":26887:26888   */\n      0x00\n        /* \"#utility.yul\":26884:26885   */\n      dup1\n        /* \"#utility.yul\":26877:26889   */\n      revert\n        /* \"#utility.yul\":26831:26891   */\n    tag_856:\n        /* \"#utility.yul\":26781:26897   */\n      pop\n      jump\t// out\n        /* \"#utility.yul\":26903:27025   */\n    tag_566:\n        /* \"#utility.yul\":26976:27000   */\n      tag_858\n        /* \"#utility.yul\":26994:26999   */\n      dup2\n        /* \"#utility.yul\":26976:27000   */\n      tag_710\n      jump\t// in\n    tag_858:\n        /* \"#utility.yul\":26969:26974   */\n      dup2\n        /* \"#utility.yul\":26966:27001   */\n      eq\n        /* \"#utility.yul\":26956:27019   */\n      tag_859\n      jumpi\n        /* \"#utility.yul\":27015:27016   */\n      0x00\n        /* \"#utility.yul\":27012:27013   */\n      dup1\n        /* \"#utility.yul\":27005:27017   */\n      revert\n        /* \"#utility.yul\":26956:27019   */\n    tag_859:\n        /* \"#utility.yul\":26903:27025   */\n      pop\n      jump\t// out\n\n    auxdata: 0xa26469706673582212201701b4f2e7ae1f30513a7df5ba8c96cc4ed9ae5d29be6e30de9400c7c854ae0064736f6c63430008070033\n}\n",
				"bytecode": {
					"linkReferences": {},
					"object": "6080604052620186a0600f5562015f90601055620927c060115573617f2e2fd72fd9d5503197092ac168c91465e7f2601360006101000a81548173ffffffffffffffffffffffffffffffffffffffff021916908373ffffffffffffffffffffffffffffffffffffffff1602179055503480156200007b57600080fd5b506001600081905550620000a462000098620003e060201b60201c565b620003e860201b60201c565b73660c3f2a92c9ad7a8e65705ed2111946ac2d4bb4601460006101000a81548173ffffffffffffffffffffffffffffffffffffffff021916908373ffffffffffffffffffffffffffffffffffffffff16021790555073f65dbdb9cfa568b2ad52d44312a520c7eaef8a2d601560006101000a81548173ffffffffffffffffffffffffffffffffffffffff021916908373ffffffffffffffffffffffffffffffffffffffff160217905550732557f4c8ba4be59eddabfd26df4ecd7f2e678f1d601660006101000a81548173ffffffffffffffffffffffffffffffffffffffff021916908373ffffffffffffffffffffffffffffffffffffffff1602179055507385f05208b6c3613f42366de27bafbd4df40a8ceb601b604051620001c89062000551565b908152602001604051809103902060000160006101000a81548173ffffffffffffffffffffffffffffffffffffffff021916908373ffffffffffffffffffffffffffffffffffffffff1602179055506006601b604051620002299062000551565b908152602001604051809103902060010181905550732a4a8ab6a0bc0d377098f8688f77003833bc1c9d601b60405162000263906200053a565b908152602001604051809103902060000160006101000a81548173ffffffffffffffffffffffffffffffffffffffff021916908373ffffffffffffffffffffffffffffffffffffffff1602179055506012601b604051620002c4906200053a565b90815260200160405180910390206001018190555073dc301622e621166bd8e82f2ca0a26c13ad0be355601b604051620002fe9062000523565b908152602001604051809103902060000160006101000a81548173ffffffffffffffffffffffffffffffffffffffff021916908373ffffffffffffffffffffffffffffffffffffffff1602179055506012601b6040516200035f9062000523565b90815260200160405180910390206001018190555073617f2e2fd72fd9d5503197092ac168c91465e7f2600860006101000a81548173ffffffffffffffffffffffffffffffffffffffff021916908373ffffffffffffffffffffffffffffffffffffffff16021790555042600d8190555062069780600e81905550620005ee565b600033905090565b6000600160009054906101000a900473ffffffffffffffffffffffffffffffffffffffff16905081600160006101000a81548173ffffffffffffffffffffffffffffffffffffffff021916908373ffffffffffffffffffffffffffffffffffffffff1602179055508173ffffffffffffffffffffffffffffffffffffffff168173ffffffffffffffffffffffffffffffffffffffff167f8be0079c531659141344cd1fd0a4f28419497f9722a3daafe3b4186f6b6457e060405160405180910390a35050565b6000620004bd60048362000568565b9150620004ca8262000573565b600482019050919050565b6000620004e460038362000568565b9150620004f1826200059c565b600382019050919050565b60006200050b60048362000568565b91506200051882620005c5565b600482019050919050565b60006200053082620004ae565b9150819050919050565b60006200054782620004d5565b9150819050919050565b60006200055e82620004fc565b9150819050919050565b600081905092915050565b7f4652415800000000000000000000000000000000000000000000000000000000600082015250565b7f4441490000000000000000000000000000000000000000000000000000000000600082015250565b7f5553444300000000000000000000000000000000000000000000000000000000600082015250565b61397080620005fe6000396000f3fe60806040526004361061025c5760003560e01c80637087a7a511610144578063c0ca6fb4116100b6578063e5d980821161007a578063e5d980821461088e578063ee620868146108b7578063eee05f5e146108e2578063f2fde38b1461090d578063fbbb458914610936578063fc361443146109615761025c565b8063c0ca6fb4146107c6578063c0ce5889146107f1578063cbff46171461080d578063d04d790814610838578063d82eddf2146108635761025c565b806393f7b7111161010857806393f7b711146106c95780639b19251a146106f4578063a475bf481461071d578063bcb3de541461075b578063bdad7f0214610772578063c079d7f61461079b5761025c565b80637087a7a514610608578063715018a61461063357806371cd58f91461064a578063862d1b35146106755780638da5cb5b1461069e5761025c565b80631f564a06116101dd5780633c6eb17a116101a15780633c6eb17a1461050857806343d32e9c14610533578063667633191461055e57806367b48c911461058957806367e927a8146105b45780636f10e285146105dd5761025c565b80631f564a061461042157806326ae486e1461044c57806329982a32146104775780632a9f0fb1146104a257806339ad95d6146104df5761025c565b806312b2ed941161022457806312b2ed94146103245780631514c97614610362578063164c85011461039f5780631a30e872146103c85780631bc9cc45146104055761025c565b8063018a25e81461026157806302ac81681461028c578063047729b0146102a35780630ccaf04f146102ce5780630f65de3e146102f9575b600080fd5b34801561026d57600080fd5b5061027661098a565b60405161028391906132e4565b60405180910390f35b34801561029857600080fd5b506102a1610aa8565b005b3480156102af57600080fd5b506102b8610d7b565b6040516102c59190613098565b60405180910390f35b3480156102da57600080fd5b506102e3610da1565b6040516102f091906132e4565b60405180910390f35b34801561030557600080fd5b5061030e610efb565b60405161031b91906132e4565b60405180910390f35b34801561033057600080fd5b5061034b60048036038101906103469190612be1565b610f89565b6040516103599291906132ff565b60405180910390f35b34801561036e57600080fd5b5061038960048036038101906103849190612d4f565b610fad565b60405161039691906132e4565b60405180910390f35b3480156103ab57600080fd5b506103c660048036038101906103c19190612d4f565b610fc5565b005b3480156103d457600080fd5b506103ef60048036038101906103ea9190612d4f565b611143565b6040516103fc91906132e4565b60405180910390f35b61041f600480360381019061041a9190612d4f565b61115b565b005b34801561042d57600080fd5b506104366112f3565b60405161044391906132e4565b60405180910390f35b34801561045857600080fd5b506104616113b8565b60405161046e919061318e565b60405180910390f35b34801561048357600080fd5b5061048c6113de565b6040516104999190613098565b60405180910390f35b3480156104ae57600080fd5b506104c960048036038101906104c49190612d4f565b611404565b6040516104d691906132e4565b60405180910390f35b3480156104eb57600080fd5b5061050660048036038101906105019190612d4f565b61141c565b005b34801561051457600080fd5b5061051d61149b565b60405161052a91906132e4565b60405180910390f35b34801561053f57600080fd5b506105486114a1565b60405161055591906132e4565b60405180910390f35b34801561056a57600080fd5b506105736115bf565b60405161058091906132e4565b60405180910390f35b34801561059557600080fd5b5061059e6115c5565b6040516105ab91906132e4565b60405180910390f35b3480156105c057600080fd5b506105db60048036038101906105d69190612d4f565b6115cb565b005b3480156105e957600080fd5b506105f261167c565b6040516105ff91906131a9565b60405180910390f35b34801561061457600080fd5b5061061d61168f565b60405161062a919061318e565b60405180910390f35b34801561063f57600080fd5b506106486116b5565b005b34801561065657600080fd5b5061065f61173d565b60405161066c91906132e4565b60405180910390f35b34801561068157600080fd5b5061069c60048036038101906106979190612da9565b6117f4565b005b3480156106aa57600080fd5b506106b3611cf5565b6040516106c09190613098565b60405180910390f35b3480156106d557600080fd5b506106de611d1f565b6040516106eb91906132e4565b60405180910390f35b34801561070057600080fd5b5061071b60048036038101906107169190612be1565b611e79565b005b34801561072957600080fd5b50610744600480360381019061073f9190612c97565b611ef8565b604051610752929190613165565b60405180910390f35b34801561076757600080fd5b50610770611f52565b005b34801561077e57600080fd5b5061079960048036038101906107949190612c0e565b611fd4565b005b3480156107a757600080fd5b506107b0612155565b6040516107bd9190613098565b60405180910390f35b3480156107d257600080fd5b506107db61217b565b6040516107e8919061318e565b60405180910390f35b61080b60048036038101906108069190612e05565b6121a1565b005b34801561081957600080fd5b5061082261251a565b60405161082f91906132e4565b60405180910390f35b34801561084457600080fd5b5061084d612520565b60405161085a919061318e565b60405180910390f35b34801561086f57600080fd5b50610878612546565b60405161088591906132e4565b60405180910390f35b34801561089a57600080fd5b506108b560048036038101906108b09190612ce0565b6125a9565b005b3480156108c357600080fd5b506108cc6126b0565b6040516108d991906132e4565b60405180910390f35b3480156108ee57600080fd5b506108f76126b6565b6040516109049190613098565b60405180910390f35b34801561091957600080fd5b50610934600480360381019061092f9190612be1565b6126dc565b005b34801561094257600080fd5b5061094b6127d4565b6040516109589190613098565b60405180910390f35b34801561096d57600080fd5b5061098860048036038101906109839190612d4f565b6127fa565b005b6000610aa33073ffffffffffffffffffffffffffffffffffffffff16631f564a066040518163ffffffff1660e01b815260040160206040518083038186803b1580156109d557600080fd5b505afa1580156109e9573d6000803e3d6000fd5b505050506040513d601f19601f82011682018060405250810190610a0d9190612d7c565b3073ffffffffffffffffffffffffffffffffffffffff166393f7b7116040518163ffffffff1660e01b815260040160206040518083038186803b158015610a5357600080fd5b505afa158015610a67573d6000803e3d6000fd5b505050506040513d601f19601f82011682018060405250810190610a8b9190612d7c565b6710a741a462780000610a9e91906133a5565b612812565b905090565b610ab061285b565b73ffffffffffffffffffffffffffffffffffffffff16610ace611cf5565b73ffffffffffffffffffffffffffffffffffffffff1614610b24576040517f08c379a0000000000000000000000000000000000000000000000000000000008152600401610b1b90613224565b60405180910390fd5b601460009054906101000a900473ffffffffffffffffffffffffffffffffffffffff1673ffffffffffffffffffffffffffffffffffffffff166340c10f1973617f2e2fd72fd9d5503197092ac168c91465e7f26901fe36793670c0c820006040518363ffffffff1660e01b8152600401610b9f92919061313c565b600060405180830381600087803b158015610bb957600080fd5b505af1158015610bcd573d6000803e3d6000fd5b50505050601460009054906101000a900473ffffffffffffffffffffffffffffffffffffffff1673ffffffffffffffffffffffffffffffffffffffff166340c10f197317f6ad8ef982297579c203069c1dbffe4348c37269097782bfbf68ab74e0006040518363ffffffff1660e01b8152600401610c4c9291906130ea565b600060405180830381600087803b158015610c6657600080fd5b505af1158015610c7a573d6000803e3d6000fd5b50505050601460009054906101000a900473ffffffffffffffffffffffffffffffffffffffff1673ffffffffffffffffffffffffffffffffffffffff166340c10f19735c6b0f7bf3e7ce046039bd8fabdfd3f9f50216786909f7105e1033c3e8a0006040518363ffffffff1660e01b8152600401610cf9929190613113565b600060405180830381600087803b158015610d1357600080fd5b505af1158015610d27573d6000803e3d6000fd5b5050505069156cc997060d3025a000601860008081526020019081526020016000208190555069156cc997060d3025a000601a6000808152602001908152602001600020819055506208b290600c81905550565b600a60009054906101000a900473ffffffffffffffffffffffffffffffffffffffff1681565b60008060008062015180600e54610db891906133fb565b9050600062015180600d5442610dce9190613486565b610dd891906133fb565b9050600080821415610dff57601a6000808152602001908152602001600020549350610e4b565b8282610e0b9190613486565b90505b81811015610e4a57601a60008281526020019081526020016000205484610e3591906133a5565b93508080610e42906135ee565b915050610e0e565b5b610ed23073ffffffffffffffffffffffffffffffffffffffff1663d82eddf26040518163ffffffff1660e01b815260040160206040518083038186803b158015610e9457600080fd5b505afa158015610ea8573d6000803e3d6000fd5b505050506040513d601f19601f82011682018060405250810190610ecc9190612d7c565b85612863565b9450670429d069189e0000851115610ef057670429d069189e000094505b849550505050505090565b60008062015180600d5442610f109190613486565b610f1a91906133fb565b905060008062015180600e54610f3091906133fb565b905060008184610f409190613486565b90505b83811015610f7f57601a60008281526020019081526020016000205483610f6a91906133a5565b92508080610f77906135ee565b915050610f43565b8294505050505090565b601c6020528060005260406000206000915090508060000154908060010154905082565b60196020528060005260406000206000915090505481565b601c60003373ffffffffffffffffffffffffffffffffffffffff1673ffffffffffffffffffffffffffffffffffffffff168152602001908152602001600020600101548110611049576040517f08c379a0000000000000000000000000000000000000000000000000000000008152600401611040906131c4565b60405180910390fd5b80601c60003373ffffffffffffffffffffffffffffffffffffffff1673ffffffffffffffffffffffffffffffffffffffff168152602001908152602001600020600101600082825461109b9190613486565b925050819055506000601c60003373ffffffffffffffffffffffffffffffffffffffff1673ffffffffffffffffffffffffffffffffffffffff16815260200190815260200160002060010154141561114057601c60003373ffffffffffffffffffffffffffffffffffffffff1673ffffffffffffffffffffffffffffffffffffffff168152602001908152602001600020600080820160009055600182016000905550505b50565b601a6020528060005260406000206000915090505481565b6000601460009054906101000a900473ffffffffffffffffffffffffffffffffffffffff1673ffffffffffffffffffffffffffffffffffffffff166370a08231336040518263ffffffff1660e01b81526004016111b89190613098565b60206040518083038186803b1580156111d057600080fd5b505afa1580156111e4573d6000803e3d6000fd5b505050506040513d601f19601f820116820180604052508101906112089190612d7c565b905081811161124c576040517f08c379a000000000000000000000000000000000000000000000000000000000815260040161124390613244565b60405180910390fd5b61127a601460009054906101000a900473ffffffffffffffffffffffffffffffffffffffff163330856128a4565b600062015180600d544261128e9190613486565b61129891906133fb565b9050826019600083815260200190815260200160002060008282546112bd91906133a5565b9250508190555082601a600083815260200190815260200160002060008282546112e79190613486565b92505081905550505050565b60006113b3670de0b6b3a7640000600c5461130e919061342c565b601460009054906101000a900473ffffffffffffffffffffffffffffffffffffffff1673ffffffffffffffffffffffffffffffffffffffff166318160ddd6040518163ffffffff1660e01b815260040160206040518083038186803b15801561137657600080fd5b505afa15801561138a573d6000803e3d6000fd5b505050506040513d601f19601f820116820180604052508101906113ae9190612d7c565b612863565b905090565b601460009054906101000a900473ffffffffffffffffffffffffffffffffffffffff1681565b600b60009054906101000a900473ffffffffffffffffffffffffffffffffffffffff1681565b60186020528060005260406000206000915090505481565b61142461285b565b73ffffffffffffffffffffffffffffffffffffffff16611442611cf5565b73ffffffffffffffffffffffffffffffffffffffff1614611498576040517f08c379a000000000000000000000000000000000000000000000000000000000815260040161148f90613224565b60405180910390fd5b50565b600d5481565b60006115ba3073ffffffffffffffffffffffffffffffffffffffff16631f564a066040518163ffffffff1660e01b815260040160206040518083038186803b1580156114ec57600080fd5b505afa158015611500573d6000803e3d6000fd5b505050506040513d601f19601f820116820180604052508101906115249190612d7c565b3073ffffffffffffffffffffffffffffffffffffffff16630ccaf04f6040518163ffffffff1660e01b815260040160206040518083038186803b15801561156a57600080fd5b505afa15801561157e573d6000803e3d6000fd5b505050506040513d601f19601f820116820180604052508101906115a29190612d7c565b670c7d713b49da00006115b59190613486565b612812565b905090565b600c5481565b600e5481565b620d2f00426115da91906133a5565b601c60003373ffffffffffffffffffffffffffffffffffffffff1673ffffffffffffffffffffffffffffffffffffffff1681526020019081526020016000206000018190555080601c60003373ffffffffffffffffffffffffffffffffffffffff1673ffffffffffffffffffffffffffffffffffffffff168152602001908152602001600020600101600082825461167291906133a5565b9250508190555050565b601260009054906101000a9004600f0b81565b601760009054906101000a900473ffffffffffffffffffffffffffffffffffffffff1681565b6116bd61285b565b73ffffffffffffffffffffffffffffffffffffffff166116db611cf5565b73ffffffffffffffffffffffffffffffffffffffff1614611731576040517f08c379a000000000000000000000000000000000000000000000000000000000815260040161172890613224565b60405180910390fd5b61173b600061297e565b565b60008060008062015180600e5461175491906133fb565b9050600062015180600d544261176a9190613486565b61177491906133fb565b9050600081141561179e5760186000808152602001908152602001600020549450505050506117f1565b81816117aa9190613486565b92505b808310156117e9576018600084815260200190815260200160002054846117d491906133a5565b935082806117e1906135ee565b9350506117ad565b839450505050505b90565b6002600054141561183a576040517f08c379a0000000000000000000000000000000000000000000000000000000008152600401611831906132a4565b60405180910390fd5b6002600081905550601b81604051611852919061306c565b908152602001604051809103902060000160009054906101000a900473ffffffffffffffffffffffffffffffffffffffff16601760006101000a81548173ffffffffffffffffffffffffffffffffffffffff021916908373ffffffffffffffffffffffffffffffffffffffff1602179055506203d09082111561190a576040517f08c379a000000000000000000000000000000000000000000000000000000000815260040161190190613264565b60405180910390fd5b6000601760009054906101000a900473ffffffffffffffffffffffffffffffffffffffff1673ffffffffffffffffffffffffffffffffffffffff166370a08231336040518263ffffffff1660e01b81526004016119679190613098565b60206040518083038186803b15801561197f57600080fd5b505afa158015611993573d6000803e3d6000fd5b505050506040513d601f19601f820116820180604052508101906119b79190612d7c565b90508281116119fb576040517f08c379a00000000000000000000000000000000000000000000000000000000081526004016119f290613244565b60405180910390fd5b6000601b83604051611a0d919061306c565b908152602001604051809103902060010154611aa6853073ffffffffffffffffffffffffffffffffffffffff1663018a25e86040518163ffffffff1660e01b815260040160206040518083038186803b158015611a6957600080fd5b505afa158015611a7d573d6000803e3d6000fd5b505050506040513d601f19601f82011682018060405250810190611aa19190612d7c565b612812565b611ab0919061342c565b9050611ae0601760009054906101000a900473ffffffffffffffffffffffffffffffffffffffff163330846128a4565b601460009054906101000a900473ffffffffffffffffffffffffffffffffffffffff1673ffffffffffffffffffffffffffffffffffffffff166340c10f1933670de0b6b3a764000087611b33919061342c565b6040518363ffffffff1660e01b8152600401611b50929190613165565b600060405180830381600087803b158015611b6a57600080fd5b505af1158015611b7e573d6000803e3d6000fd5b50505050601560009054906101000a900473ffffffffffffffffffffffffffffffffffffffff1673ffffffffffffffffffffffffffffffffffffffff166340c10f1930670de0b6b3a764000087611bd5919061342c565b6040518363ffffffff1660e01b8152600401611bf2929190613165565b600060405180830381600087803b158015611c0c57600080fd5b505af1158015611c20573d6000803e3d6000fd5b50505050600062015180600d5442611c389190613486565b611c4291906133fb565b905084601860008381526020019081526020016000206000828254611c6791906133a5565b9250508190555084601a60008381526020019081526020016000206000828254611c9191906133a5565b925050819055503373ffffffffffffffffffffffffffffffffffffffff167ff633443b01504d269657083d48bb6de98e089cfff672b47fefbed21608b5c77986604051611cde91906132e4565b60405180910390a250505060016000819055505050565b6000600160009054906101000a900473ffffffffffffffffffffffffffffffffffffffff16905090565b60008060008062015180600e54611d3691906133fb565b9050600062015180600d5442611d4c9190613486565b611d5691906133fb565b9050600080821415611d7d57601a6000808152602001908152602001600020549350611dc9565b8282611d899190613486565b90505b81811015611dc857601a60008281526020019081526020016000205484611db391906133a5565b93508080611dc0906135ee565b915050611d8c565b5b611e503073ffffffffffffffffffffffffffffffffffffffff166371cd58f96040518163ffffffff1660e01b815260040160206040518083038186803b158015611e1257600080fd5b505afa158015611e26573d6000803e3d6000fd5b505050506040513d601f19601f82011682018060405250810190611e4a9190612d7c565b85612863565b9450670429d069189e0000851115611e6e57670429d069189e000094505b849550505050505090565b611e8161285b565b73ffffffffffffffffffffffffffffffffffffffff16611e9f611cf5565b73ffffffffffffffffffffffffffffffffffffffff1614611ef5576040517f08c379a0000000000000000000000000000000000000000000000000000000008152600401611eec90613224565b60405180910390fd5b50565b601b818051602081018201805184825260208301602085012081835280955050505050506000915090508060000160009054906101000a900473ffffffffffffffffffffffffffffffffffffffff16908060010154905082565b601b604051611f6090613083565b908152602001604051809103902060000160009054906101000a900473ffffffffffffffffffffffffffffffffffffffff16601760006101000a81548173ffffffffffffffffffffffffffffffffffffffff021916908373ffffffffffffffffffffffffffffffffffffffff160217905550565b601c60008373ffffffffffffffffffffffffffffffffffffffff1673ffffffffffffffffffffffffffffffffffffffff16815260200190815260200160002060000154421015612059576040517f08c379a000000000000000000000000000000000000000000000000000000000815260040161205090613284565b60405180910390fd5b601b81604051612069919061306c565b908152602001604051809103902060000160009054906101000a900473ffffffffffffffffffffffffffffffffffffffff16601760006101000a81548173ffffffffffffffffffffffffffffffffffffffff021916908373ffffffffffffffffffffffffffffffffffffffff1602179055506000601c60008473ffffffffffffffffffffffffffffffffffffffff1673ffffffffffffffffffffffffffffffffffffffff168152602001908152602001600020600101549050612150601760009054906101000a900473ffffffffffffffffffffffffffffffffffffffff163033846128a4565b505050565b600960009054906101000a900473ffffffffffffffffffffffffffffffffffffffff1681565b601660009054906101000a900473ffffffffffffffffffffffffffffffffffffffff1681565b601b816040516121b1919061306c565b908152602001604051809103902060000160009054906101000a900473ffffffffffffffffffffffffffffffffffffffff16601760006101000a81548173ffffffffffffffffffffffffffffffffffffffff021916908373ffffffffffffffffffffffffffffffffffffffff1602179055506000601460009054906101000a900473ffffffffffffffffffffffffffffffffffffffff1673ffffffffffffffffffffffffffffffffffffffff166370a08231336040518263ffffffff1660e01b81526004016122809190613098565b60206040518083038186803b15801561229857600080fd5b505afa1580156122ac573d6000803e3d6000fd5b505050506040513d601f19601f820116820180604052508101906122d09190612d7c565b9050838111612314576040517f08c379a000000000000000000000000000000000000000000000000000000000815260040161230b90613244565b60405180910390fd5b601760009054906101000a900473ffffffffffffffffffffffffffffffffffffffff1673ffffffffffffffffffffffffffffffffffffffff1663a9059cbb33670de0b6b3a76400006001612368919061342c565b8761237391906133a5565b6040518363ffffffff1660e01b8152600401612390929190613165565b602060405180830381600087803b1580156123aa57600080fd5b505af11580156123be573d6000803e3d6000fd5b505050506040513d601f19601f820116820180604052508101906123e29190612c6a565b50612411601460009054906101000a900473ffffffffffffffffffffffffffffffffffffffff163330876128a4565b6000843073ffffffffffffffffffffffffffffffffffffffff166343d32e9c6040518163ffffffff1660e01b815260040160206040518083038186803b15801561245a57600080fd5b505afa15801561246e573d6000803e3d6000fd5b505050506040513d601f19601f820116820180604052508101906124929190612d7c565b61249c919061342c565b9050600062015180600d54426124b29190613486565b6124bc91906133fb565b9050856019600083815260200190815260200160002060008282546124e191906133a5565b9250508190555085601a6000838152602001908152602001600020600082825461250b9190613486565b92505081905550505050505050565b60035481565b601560009054906101000a900473ffffffffffffffffffffffffffffffffffffffff1681565b60008060008062015180600e5461255d91906133fb565b9050600091505b808210156125a05760196000838152602001908152602001600020548361258b91906133a5565b92508180612598906135ee565b925050612564565b82935050505090565b6125b161285b565b73ffffffffffffffffffffffffffffffffffffffff166125cf611cf5565b73ffffffffffffffffffffffffffffffffffffffff1614612625576040517f08c379a000000000000000000000000000000000000000000000000000000000815260040161261c90613224565b60405180910390fd5b81601b84604051612636919061306c565b908152602001604051809103902060000160006101000a81548173ffffffffffffffffffffffffffffffffffffffff021916908373ffffffffffffffffffffffffffffffffffffffff16021790555080601b84604051612696919061306c565b908152602001604051809103902060010181905550505050565b60025481565b601360009054906101000a900473ffffffffffffffffffffffffffffffffffffffff1681565b6126e461285b565b73ffffffffffffffffffffffffffffffffffffffff16612702611cf5565b73ffffffffffffffffffffffffffffffffffffffff1614612758576040517f08c379a000000000000000000000000000000000000000000000000000000000815260040161274f90613224565b60405180910390fd5b600073ffffffffffffffffffffffffffffffffffffffff168173ffffffffffffffffffffffffffffffffffffffff1614156127c8576040517f08c379a00000000000000000000000000000000000000000000000000000000081526004016127bf906131e4565b60405180910390fd5b6127d18161297e565b50565b600860009054906101000a900473ffffffffffffffffffffffffffffffffffffffff1681565b6201518081612809919061342c565b600e8190555050565b60008061281f8484612a44565b9050670de0b6b3a7640000612848826002670de0b6b3a764000061284391906133fb565b612abf565b61285291906133fb565b91505092915050565b600033905090565b60008061287884670de0b6b3a7640000612a44565b9050826128918260028661288c91906133fb565b612abf565b61289b91906133fb565b91505092915050565b60008473ffffffffffffffffffffffffffffffffffffffff166323b872dd8585856040518463ffffffff1660e01b81526004016128e3939291906130b3565b602060405180830381600087803b1580156128fd57600080fd5b505af1158015612911573d6000803e3d6000fd5b505050506040513d601f19601f820116820180604052508101906129359190612c6a565b905080612977576040517f08c379a000000000000000000000000000000000000000000000000000000000815260040161296e90613204565b60405180910390fd5b5050505050565b6000600160009054906101000a900473ffffffffffffffffffffffffffffffffffffffff16905081600160006101000a81548173ffffffffffffffffffffffffffffffffffffffff021916908373ffffffffffffffffffffffffffffffffffffffff1602179055508173ffffffffffffffffffffffffffffffffffffffff168173ffffffffffffffffffffffffffffffffffffffff167f8be0079c531659141344cd1fd0a4f28419497f9722a3daafe3b4186f6b6457e060405160405180910390a35050565b600080831415612a575760009050612ab9565b60008284612a65919061342c565b9050828482612a7491906133fb565b14612ab4576040517f08c379a0000000000000000000000000000000000000000000000000000000008152600401612aab906132c4565b60405180910390fd5b809150505b92915050565b6000808284612ace91906133a5565b905083811015612b13576040517f08c379a0000000000000000000000000000000000000000000000000000000008152600401612b0a906132c4565b60405180910390fd5b8091505092915050565b6000612b30612b2b8461334d565b613328565b905082815260208101848484011115612b4c57612b4b6136c9565b5b612b5784828561357b565b509392505050565b600081359050612b6e816138f5565b92915050565b600081519050612b838161390c565b92915050565b600082601f830112612b9e57612b9d6136c4565b5b8135612bae848260208601612b1d565b91505092915050565b600081359050612bc681613923565b92915050565b600081519050612bdb81613923565b92915050565b600060208284031215612bf757612bf66136d3565b5b6000612c0584828501612b5f565b91505092915050565b60008060408385031215612c2557612c246136d3565b5b6000612c3385828601612b5f565b925050602083013567ffffffffffffffff811115612c5457612c536136ce565b5b612c6085828601612b89565b9150509250929050565b600060208284031215612c8057612c7f6136d3565b5b6000612c8e84828501612b74565b91505092915050565b600060208284031215612cad57612cac6136d3565b5b600082013567ffffffffffffffff811115612ccb57612cca6136ce565b5b612cd784828501612b89565b91505092915050565b600080600060608486031215612cf957612cf86136d3565b5b600084013567ffffffffffffffff811115612d1757612d166136ce565b5b612d2386828701612b89565b9350506020612d3486828701612b5f565b9250506040612d4586828701612bb7565b9150509250925092565b600060208284031215612d6557612d646136d3565b5b6000612d7384828501612bb7565b91505092915050565b600060208284031215612d9257612d916136d3565b5b6000612da084828501612bcc565b91505092915050565b60008060408385031215612dc057612dbf6136d3565b5b6000612dce85828601612bb7565b925050602083013567ffffffffffffffff811115612def57612dee6136ce565b5b612dfb85828601612b89565b9150509250929050565b600080600060608486031215612e1e57612e1d6136d3565b5b6000612e2c86828701612bb7565b9350506020612e3d86828701612bb7565b925050604084013567ffffffffffffffff811115612e5e57612e5d6136ce565b5b612e6a86828701612b89565b9150509250925092565b612e7d816134ba565b82525050565b612e8c8161350f565b82525050565b612e9b816134d8565b82525050565b612eaa81613521565b82525050565b612eb981613533565b82525050565b612ec881613545565b82525050565b6000612ed98261337e565b612ee3818561339a565b9350612ef381856020860161358a565b80840191505092915050565b6000612f0c602483613389565b9150612f17826136e9565b604082019050919050565b6000612f2f602683613389565b9150612f3a82613738565b604082019050919050565b6000612f52601583613389565b9150612f5d82613787565b602082019050919050565b6000612f75602083613389565b9150612f80826137b0565b602082019050919050565b6000612f98601a83613389565b9150612fa3826137d9565b602082019050919050565b6000612fbb601583613389565b9150612fc682613802565b602082019050919050565b6000612fde60048361339a565b9150612fe98261382b565b600482019050919050565b6000613001600c83613389565b915061300c82613854565b602082019050919050565b6000613024601f83613389565b915061302f8261387d565b602082019050919050565b6000613047602183613389565b9150613052826138a6565b604082019050919050565b61306681613505565b82525050565b60006130788284612ece565b915081905092915050565b600061308e82612fd1565b9150819050919050565b60006020820190506130ad6000830184612e74565b92915050565b60006060820190506130c86000830186612e74565b6130d56020830185612e74565b6130e2604083018461305d565b949350505050565b60006040820190506130ff6000830185612e74565b61310c6020830184612ea1565b9392505050565b60006040820190506131286000830185612e74565b6131356020830184612eb0565b9392505050565b60006040820190506131516000830185612e74565b61315e6020830184612ebf565b9392505050565b600060408201905061317a6000830185612e74565b613187602083018461305d565b9392505050565b60006020820190506131a36000830184612e83565b92915050565b60006020820190506131be6000830184612e92565b92915050565b600060208201905081810360008301526131dd81612eff565b9050919050565b600060208201905081810360008301526131fd81612f22565b9050919050565b6000602082019050818103600083015261321d81612f45565b9050919050565b6000602082019050818103600083015261323d81612f68565b9050919050565b6000602082019050818103600083015261325d81612f8b565b9050919050565b6000602082019050818103600083015261327d81612fae565b9050919050565b6000602082019050818103600083015261329d81612ff4565b9050919050565b600060208201905081810360008301526132bd81613017565b9050919050565b600060208201905081810360008301526132dd8161303a565b9050919050565b60006020820190506132f9600083018461305d565b92915050565b6000604082019050613314600083018561305d565b613321602083018461305d565b9392505050565b6000613332613343565b905061333e82826135bd565b919050565b6000604051905090565b600067ffffffffffffffff82111561336857613367613695565b5b613371826136d8565b9050602081019050919050565b600081519050919050565b600082825260208201905092915050565b600081905092915050565b60006133b082613505565b91506133bb83613505565b9250827fffffffffffffffffffffffffffffffffffffffffffffffffffffffffffffffff038211156133f0576133ef613637565b5b828201905092915050565b600061340682613505565b915061341183613505565b92508261342157613420613666565b5b828204905092915050565b600061343782613505565b915061344283613505565b9250817fffffffffffffffffffffffffffffffffffffffffffffffffffffffffffffffff048311821515161561347b5761347a613637565b5b828202905092915050565b600061349182613505565b915061349c83613505565b9250828210156134af576134ae613637565b5b828203905092915050565b60006134c5826134e5565b9050919050565b60008115159050919050565b600081600f0b9050919050565b600073ffffffffffffffffffffffffffffffffffffffff82169050919050565b6000819050919050565b600061351a82613557565b9050919050565b600061352c82613505565b9050919050565b600061353e82613505565b9050919050565b600061355082613505565b9050919050565b600061356282613569565b9050919050565b6000613574826134e5565b9050919050565b82818337600083830152505050565b60005b838110156135a857808201518184015260208101905061358d565b838111156135b7576000848401525b50505050565b6135c6826136d8565b810181811067ffffffffffffffff821117156135e5576135e4613695565b5b80604052505050565b60006135f982613505565b91507fffffffffffffffffffffffffffffffffffffffffffffffffffffffffffffffff82141561362c5761362b613637565b5b600182019050919050565b7f4e487b7100000000000000000000000000000000000000000000000000000000600052601160045260246000fd5b7f4e487b7100000000000000000000000000000000000000000000000000000000600052601260045260246000fd5b7f4e487b7100000000000000000000000000000000000000000000000000000000600052604160045260246000fd5b600080fd5b600080fd5b600080fd5b600080fd5b6000601f19601f8301169050919050565b7f596f7520646f6e7420686176652074686174206d75636820746f20776974686460008201527f7261772100000000000000000000000000000000000000000000000000000000602082015250565b7f4f776e61626c653a206e6577206f776e657220697320746865207a65726f206160008201527f6464726573730000000000000000000000000000000000000000000000000000602082015250565b7f546f6b656e207472616e73666572206661696c65640000000000000000000000600082015250565b7f4f776e61626c653a2063616c6c6572206973206e6f7420746865206f776e6572600082015250565b7f596f7520646f6e742068617665207468617420616d6f756e7421000000000000600082015250565b7f506572207472616e73616374696f6e206c696d69740000000000000000000000600082015250565b7f5553444300000000000000000000000000000000000000000000000000000000600082015250565b7f4e6f7420756e6c6f636b65640000000000000000000000000000000000000000600082015250565b7f5265656e7472616e637947756172643a207265656e7472616e742063616c6c00600082015250565b7f75696e74206f766572666c6f772066726f6d206d756c7469706c69636174696f60008201527f6e00000000000000000000000000000000000000000000000000000000000000602082015250565b6138fe816134ba565b811461390957600080fd5b50565b613915816134cc565b811461392057600080fd5b50565b61392c81613505565b811461393757600080fd5b5056fea26469706673582212201701b4f2e7ae1f30513a7df5ba8c96cc4ed9ae5d29be6e30de9400c7c854ae0064736f6c63430008070033",
					"opcodes": "PUSH1 0x80 PUSH1 0x40 MSTORE PUSH3 0x186A0 PUSH1 0xF SSTORE PUSH3 0x15F90 PUSH1 0x10 SSTORE PUSH3 0x927C0 PUSH1 0x11 SSTORE PUSH20 0x617F2E2FD72FD9D5503197092AC168C91465E7F2 PUSH1 0x13 PUSH1 0x0 PUSH2 0x100 EXP DUP2 SLOAD DUP2 PUSH20 0xFFFFFFFFFFFFFFFFFFFFFFFFFFFFFFFFFFFFFFFF MUL NOT AND SWAP1 DUP4 PUSH20 0xFFFFFFFFFFFFFFFFFFFFFFFFFFFFFFFFFFFFFFFF AND MUL OR SWAP1 SSTORE POP CALLVALUE DUP1 ISZERO PUSH3 0x7B JUMPI PUSH1 0x0 DUP1 REVERT JUMPDEST POP PUSH1 0x1 PUSH1 0x0 DUP2 SWAP1 SSTORE POP PUSH3 0xA4 PUSH3 0x98 PUSH3 0x3E0 PUSH1 0x20 SHL PUSH1 0x20 SHR JUMP JUMPDEST PUSH3 0x3E8 PUSH1 0x20 SHL PUSH1 0x20 SHR JUMP JUMPDEST PUSH20 0x660C3F2A92C9AD7A8E65705ED2111946AC2D4BB4 PUSH1 0x14 PUSH1 0x0 PUSH2 0x100 EXP DUP2 SLOAD DUP2 PUSH20 0xFFFFFFFFFFFFFFFFFFFFFFFFFFFFFFFFFFFFFFFF MUL NOT AND SWAP1 DUP4 PUSH20 0xFFFFFFFFFFFFFFFFFFFFFFFFFFFFFFFFFFFFFFFF AND MUL OR SWAP1 SSTORE POP PUSH20 0xF65DBDB9CFA568B2AD52D44312A520C7EAEF8A2D PUSH1 0x15 PUSH1 0x0 PUSH2 0x100 EXP DUP2 SLOAD DUP2 PUSH20 0xFFFFFFFFFFFFFFFFFFFFFFFFFFFFFFFFFFFFFFFF MUL NOT AND SWAP1 DUP4 PUSH20 0xFFFFFFFFFFFFFFFFFFFFFFFFFFFFFFFFFFFFFFFF AND MUL OR SWAP1 SSTORE POP PUSH20 0x2557F4C8BA4BE59EDDABFD26DF4ECD7F2E678F1D PUSH1 0x16 PUSH1 0x0 PUSH2 0x100 EXP DUP2 SLOAD DUP2 PUSH20 0xFFFFFFFFFFFFFFFFFFFFFFFFFFFFFFFFFFFFFFFF MUL NOT AND SWAP1 DUP4 PUSH20 0xFFFFFFFFFFFFFFFFFFFFFFFFFFFFFFFFFFFFFFFF AND MUL OR SWAP1 SSTORE POP PUSH20 0x85F05208B6C3613F42366DE27BAFBD4DF40A8CEB PUSH1 0x1B PUSH1 0x40 MLOAD PUSH3 0x1C8 SWAP1 PUSH3 0x551 JUMP JUMPDEST SWAP1 DUP2 MSTORE PUSH1 0x20 ADD PUSH1 0x40 MLOAD DUP1 SWAP2 SUB SWAP1 KECCAK256 PUSH1 0x0 ADD PUSH1 0x0 PUSH2 0x100 EXP DUP2 SLOAD DUP2 PUSH20 0xFFFFFFFFFFFFFFFFFFFFFFFFFFFFFFFFFFFFFFFF MUL NOT AND SWAP1 DUP4 PUSH20 0xFFFFFFFFFFFFFFFFFFFFFFFFFFFFFFFFFFFFFFFF AND MUL OR SWAP1 SSTORE POP PUSH1 0x6 PUSH1 0x1B PUSH1 0x40 MLOAD PUSH3 0x229 SWAP1 PUSH3 0x551 JUMP JUMPDEST SWAP1 DUP2 MSTORE PUSH1 0x20 ADD PUSH1 0x40 MLOAD DUP1 SWAP2 SUB SWAP1 KECCAK256 PUSH1 0x1 ADD DUP2 SWAP1 SSTORE POP PUSH20 0x2A4A8AB6A0BC0D377098F8688F77003833BC1C9D PUSH1 0x1B PUSH1 0x40 MLOAD PUSH3 0x263 SWAP1 PUSH3 0x53A JUMP JUMPDEST SWAP1 DUP2 MSTORE PUSH1 0x20 ADD PUSH1 0x40 MLOAD DUP1 SWAP2 SUB SWAP1 KECCAK256 PUSH1 0x0 ADD PUSH1 0x0 PUSH2 0x100 EXP DUP2 SLOAD DUP2 PUSH20 0xFFFFFFFFFFFFFFFFFFFFFFFFFFFFFFFFFFFFFFFF MUL NOT AND SWAP1 DUP4 PUSH20 0xFFFFFFFFFFFFFFFFFFFFFFFFFFFFFFFFFFFFFFFF AND MUL OR SWAP1 SSTORE POP PUSH1 0x12 PUSH1 0x1B PUSH1 0x40 MLOAD PUSH3 0x2C4 SWAP1 PUSH3 0x53A JUMP JUMPDEST SWAP1 DUP2 MSTORE PUSH1 0x20 ADD PUSH1 0x40 MLOAD DUP1 SWAP2 SUB SWAP1 KECCAK256 PUSH1 0x1 ADD DUP2 SWAP1 SSTORE POP PUSH20 0xDC301622E621166BD8E82F2CA0A26C13AD0BE355 PUSH1 0x1B PUSH1 0x40 MLOAD PUSH3 0x2FE SWAP1 PUSH3 0x523 JUMP JUMPDEST SWAP1 DUP2 MSTORE PUSH1 0x20 ADD PUSH1 0x40 MLOAD DUP1 SWAP2 SUB SWAP1 KECCAK256 PUSH1 0x0 ADD PUSH1 0x0 PUSH2 0x100 EXP DUP2 SLOAD DUP2 PUSH20 0xFFFFFFFFFFFFFFFFFFFFFFFFFFFFFFFFFFFFFFFF MUL NOT AND SWAP1 DUP4 PUSH20 0xFFFFFFFFFFFFFFFFFFFFFFFFFFFFFFFFFFFFFFFF AND MUL OR SWAP1 SSTORE POP PUSH1 0x12 PUSH1 0x1B PUSH1 0x40 MLOAD PUSH3 0x35F SWAP1 PUSH3 0x523 JUMP JUMPDEST SWAP1 DUP2 MSTORE PUSH1 0x20 ADD PUSH1 0x40 MLOAD DUP1 SWAP2 SUB SWAP1 KECCAK256 PUSH1 0x1 ADD DUP2 SWAP1 SSTORE POP PUSH20 0x617F2E2FD72FD9D5503197092AC168C91465E7F2 PUSH1 0x8 PUSH1 0x0 PUSH2 0x100 EXP DUP2 SLOAD DUP2 PUSH20 0xFFFFFFFFFFFFFFFFFFFFFFFFFFFFFFFFFFFFFFFF MUL NOT AND SWAP1 DUP4 PUSH20 0xFFFFFFFFFFFFFFFFFFFFFFFFFFFFFFFFFFFFFFFF AND MUL OR SWAP1 SSTORE POP TIMESTAMP PUSH1 0xD DUP2 SWAP1 SSTORE POP PUSH3 0x69780 PUSH1 0xE DUP2 SWAP1 SSTORE POP PUSH3 0x5EE JUMP JUMPDEST PUSH1 0x0 CALLER SWAP1 POP SWAP1 JUMP JUMPDEST PUSH1 0x0 PUSH1 0x1 PUSH1 0x0 SWAP1 SLOAD SWAP1 PUSH2 0x100 EXP SWAP1 DIV PUSH20 0xFFFFFFFFFFFFFFFFFFFFFFFFFFFFFFFFFFFFFFFF AND SWAP1 POP DUP2 PUSH1 0x1 PUSH1 0x0 PUSH2 0x100 EXP DUP2 SLOAD DUP2 PUSH20 0xFFFFFFFFFFFFFFFFFFFFFFFFFFFFFFFFFFFFFFFF MUL NOT AND SWAP1 DUP4 PUSH20 0xFFFFFFFFFFFFFFFFFFFFFFFFFFFFFFFFFFFFFFFF AND MUL OR SWAP1 SSTORE POP DUP2 PUSH20 0xFFFFFFFFFFFFFFFFFFFFFFFFFFFFFFFFFFFFFFFF AND DUP2 PUSH20 0xFFFFFFFFFFFFFFFFFFFFFFFFFFFFFFFFFFFFFFFF AND PUSH32 0x8BE0079C531659141344CD1FD0A4F28419497F9722A3DAAFE3B4186F6B6457E0 PUSH1 0x40 MLOAD PUSH1 0x40 MLOAD DUP1 SWAP2 SUB SWAP1 LOG3 POP POP JUMP JUMPDEST PUSH1 0x0 PUSH3 0x4BD PUSH1 0x4 DUP4 PUSH3 0x568 JUMP JUMPDEST SWAP2 POP PUSH3 0x4CA DUP3 PUSH3 0x573 JUMP JUMPDEST PUSH1 0x4 DUP3 ADD SWAP1 POP SWAP2 SWAP1 POP JUMP JUMPDEST PUSH1 0x0 PUSH3 0x4E4 PUSH1 0x3 DUP4 PUSH3 0x568 JUMP JUMPDEST SWAP2 POP PUSH3 0x4F1 DUP3 PUSH3 0x59C JUMP JUMPDEST PUSH1 0x3 DUP3 ADD SWAP1 POP SWAP2 SWAP1 POP JUMP JUMPDEST PUSH1 0x0 PUSH3 0x50B PUSH1 0x4 DUP4 PUSH3 0x568 JUMP JUMPDEST SWAP2 POP PUSH3 0x518 DUP3 PUSH3 0x5C5 JUMP JUMPDEST PUSH1 0x4 DUP3 ADD SWAP1 POP SWAP2 SWAP1 POP JUMP JUMPDEST PUSH1 0x0 PUSH3 0x530 DUP3 PUSH3 0x4AE JUMP JUMPDEST SWAP2 POP DUP2 SWAP1 POP SWAP2 SWAP1 POP JUMP JUMPDEST PUSH1 0x0 PUSH3 0x547 DUP3 PUSH3 0x4D5 JUMP JUMPDEST SWAP2 POP DUP2 SWAP1 POP SWAP2 SWAP1 POP JUMP JUMPDEST PUSH1 0x0 PUSH3 0x55E DUP3 PUSH3 0x4FC JUMP JUMPDEST SWAP2 POP DUP2 SWAP1 POP SWAP2 SWAP1 POP JUMP JUMPDEST PUSH1 0x0 DUP2 SWAP1 POP SWAP3 SWAP2 POP POP JUMP JUMPDEST PUSH32 0x4652415800000000000000000000000000000000000000000000000000000000 PUSH1 0x0 DUP3 ADD MSTORE POP JUMP JUMPDEST PUSH32 0x4441490000000000000000000000000000000000000000000000000000000000 PUSH1 0x0 DUP3 ADD MSTORE POP JUMP JUMPDEST PUSH32 0x5553444300000000000000000000000000000000000000000000000000000000 PUSH1 0x0 DUP3 ADD MSTORE POP JUMP JUMPDEST PUSH2 0x3970 DUP1 PUSH3 0x5FE PUSH1 0x0 CODECOPY PUSH1 0x0 RETURN INVALID PUSH1 0x80 PUSH1 0x40 MSTORE PUSH1 0x4 CALLDATASIZE LT PUSH2 0x25C JUMPI PUSH1 0x0 CALLDATALOAD PUSH1 0xE0 SHR DUP1 PUSH4 0x7087A7A5 GT PUSH2 0x144 JUMPI DUP1 PUSH4 0xC0CA6FB4 GT PUSH2 0xB6 JUMPI DUP1 PUSH4 0xE5D98082 GT PUSH2 0x7A JUMPI DUP1 PUSH4 0xE5D98082 EQ PUSH2 0x88E JUMPI DUP1 PUSH4 0xEE620868 EQ PUSH2 0x8B7 JUMPI DUP1 PUSH4 0xEEE05F5E EQ PUSH2 0x8E2 JUMPI DUP1 PUSH4 0xF2FDE38B EQ PUSH2 0x90D JUMPI DUP1 PUSH4 0xFBBB4589 EQ PUSH2 0x936 JUMPI DUP1 PUSH4 0xFC361443 EQ PUSH2 0x961 JUMPI PUSH2 0x25C JUMP JUMPDEST DUP1 PUSH4 0xC0CA6FB4 EQ PUSH2 0x7C6 JUMPI DUP1 PUSH4 0xC0CE5889 EQ PUSH2 0x7F1 JUMPI DUP1 PUSH4 0xCBFF4617 EQ PUSH2 0x80D JUMPI DUP1 PUSH4 0xD04D7908 EQ PUSH2 0x838 JUMPI DUP1 PUSH4 0xD82EDDF2 EQ PUSH2 0x863 JUMPI PUSH2 0x25C JUMP JUMPDEST DUP1 PUSH4 0x93F7B711 GT PUSH2 0x108 JUMPI DUP1 PUSH4 0x93F7B711 EQ PUSH2 0x6C9 JUMPI DUP1 PUSH4 0x9B19251A EQ PUSH2 0x6F4 JUMPI DUP1 PUSH4 0xA475BF48 EQ PUSH2 0x71D JUMPI DUP1 PUSH4 0xBCB3DE54 EQ PUSH2 0x75B JUMPI DUP1 PUSH4 0xBDAD7F02 EQ PUSH2 0x772 JUMPI DUP1 PUSH4 0xC079D7F6 EQ PUSH2 0x79B JUMPI PUSH2 0x25C JUMP JUMPDEST DUP1 PUSH4 0x7087A7A5 EQ PUSH2 0x608 JUMPI DUP1 PUSH4 0x715018A6 EQ PUSH2 0x633 JUMPI DUP1 PUSH4 0x71CD58F9 EQ PUSH2 0x64A JUMPI DUP1 PUSH4 0x862D1B35 EQ PUSH2 0x675 JUMPI DUP1 PUSH4 0x8DA5CB5B EQ PUSH2 0x69E JUMPI PUSH2 0x25C JUMP JUMPDEST DUP1 PUSH4 0x1F564A06 GT PUSH2 0x1DD JUMPI DUP1 PUSH4 0x3C6EB17A GT PUSH2 0x1A1 JUMPI DUP1 PUSH4 0x3C6EB17A EQ PUSH2 0x508 JUMPI DUP1 PUSH4 0x43D32E9C EQ PUSH2 0x533 JUMPI DUP1 PUSH4 0x66763319 EQ PUSH2 0x55E JUMPI DUP1 PUSH4 0x67B48C91 EQ PUSH2 0x589 JUMPI DUP1 PUSH4 0x67E927A8 EQ PUSH2 0x5B4 JUMPI DUP1 PUSH4 0x6F10E285 EQ PUSH2 0x5DD JUMPI PUSH2 0x25C JUMP JUMPDEST DUP1 PUSH4 0x1F564A06 EQ PUSH2 0x421 JUMPI DUP1 PUSH4 0x26AE486E EQ PUSH2 0x44C JUMPI DUP1 PUSH4 0x29982A32 EQ PUSH2 0x477 JUMPI DUP1 PUSH4 0x2A9F0FB1 EQ PUSH2 0x4A2 JUMPI DUP1 PUSH4 0x39AD95D6 EQ PUSH2 0x4DF JUMPI PUSH2 0x25C JUMP JUMPDEST DUP1 PUSH4 0x12B2ED94 GT PUSH2 0x224 JUMPI DUP1 PUSH4 0x12B2ED94 EQ PUSH2 0x324 JUMPI DUP1 PUSH4 0x1514C976 EQ PUSH2 0x362 JUMPI DUP1 PUSH4 0x164C8501 EQ PUSH2 0x39F JUMPI DUP1 PUSH4 0x1A30E872 EQ PUSH2 0x3C8 JUMPI DUP1 PUSH4 0x1BC9CC45 EQ PUSH2 0x405 JUMPI PUSH2 0x25C JUMP JUMPDEST DUP1 PUSH4 0x18A25E8 EQ PUSH2 0x261 JUMPI DUP1 PUSH4 0x2AC8168 EQ PUSH2 0x28C JUMPI DUP1 PUSH4 0x47729B0 EQ PUSH2 0x2A3 JUMPI DUP1 PUSH4 0xCCAF04F EQ PUSH2 0x2CE JUMPI DUP1 PUSH4 0xF65DE3E EQ PUSH2 0x2F9 JUMPI JUMPDEST PUSH1 0x0 DUP1 REVERT JUMPDEST CALLVALUE DUP1 ISZERO PUSH2 0x26D JUMPI PUSH1 0x0 DUP1 REVERT JUMPDEST POP PUSH2 0x276 PUSH2 0x98A JUMP JUMPDEST PUSH1 0x40 MLOAD PUSH2 0x283 SWAP2 SWAP1 PUSH2 0x32E4 JUMP JUMPDEST PUSH1 0x40 MLOAD DUP1 SWAP2 SUB SWAP1 RETURN JUMPDEST CALLVALUE DUP1 ISZERO PUSH2 0x298 JUMPI PUSH1 0x0 DUP1 REVERT JUMPDEST POP PUSH2 0x2A1 PUSH2 0xAA8 JUMP JUMPDEST STOP JUMPDEST CALLVALUE DUP1 ISZERO PUSH2 0x2AF JUMPI PUSH1 0x0 DUP1 REVERT JUMPDEST POP PUSH2 0x2B8 PUSH2 0xD7B JUMP JUMPDEST PUSH1 0x40 MLOAD PUSH2 0x2C5 SWAP2 SWAP1 PUSH2 0x3098 JUMP JUMPDEST PUSH1 0x40 MLOAD DUP1 SWAP2 SUB SWAP1 RETURN JUMPDEST CALLVALUE DUP1 ISZERO PUSH2 0x2DA JUMPI PUSH1 0x0 DUP1 REVERT JUMPDEST POP PUSH2 0x2E3 PUSH2 0xDA1 JUMP JUMPDEST PUSH1 0x40 MLOAD PUSH2 0x2F0 SWAP2 SWAP1 PUSH2 0x32E4 JUMP JUMPDEST PUSH1 0x40 MLOAD DUP1 SWAP2 SUB SWAP1 RETURN JUMPDEST CALLVALUE DUP1 ISZERO PUSH2 0x305 JUMPI PUSH1 0x0 DUP1 REVERT JUMPDEST POP PUSH2 0x30E PUSH2 0xEFB JUMP JUMPDEST PUSH1 0x40 MLOAD PUSH2 0x31B SWAP2 SWAP1 PUSH2 0x32E4 JUMP JUMPDEST PUSH1 0x40 MLOAD DUP1 SWAP2 SUB SWAP1 RETURN JUMPDEST CALLVALUE DUP1 ISZERO PUSH2 0x330 JUMPI PUSH1 0x0 DUP1 REVERT JUMPDEST POP PUSH2 0x34B PUSH1 0x4 DUP1 CALLDATASIZE SUB DUP2 ADD SWAP1 PUSH2 0x346 SWAP2 SWAP1 PUSH2 0x2BE1 JUMP JUMPDEST PUSH2 0xF89 JUMP JUMPDEST PUSH1 0x40 MLOAD PUSH2 0x359 SWAP3 SWAP2 SWAP1 PUSH2 0x32FF JUMP JUMPDEST PUSH1 0x40 MLOAD DUP1 SWAP2 SUB SWAP1 RETURN JUMPDEST CALLVALUE DUP1 ISZERO PUSH2 0x36E JUMPI PUSH1 0x0 DUP1 REVERT JUMPDEST POP PUSH2 0x389 PUSH1 0x4 DUP1 CALLDATASIZE SUB DUP2 ADD SWAP1 PUSH2 0x384 SWAP2 SWAP1 PUSH2 0x2D4F JUMP JUMPDEST PUSH2 0xFAD JUMP JUMPDEST PUSH1 0x40 MLOAD PUSH2 0x396 SWAP2 SWAP1 PUSH2 0x32E4 JUMP JUMPDEST PUSH1 0x40 MLOAD DUP1 SWAP2 SUB SWAP1 RETURN JUMPDEST CALLVALUE DUP1 ISZERO PUSH2 0x3AB JUMPI PUSH1 0x0 DUP1 REVERT JUMPDEST POP PUSH2 0x3C6 PUSH1 0x4 DUP1 CALLDATASIZE SUB DUP2 ADD SWAP1 PUSH2 0x3C1 SWAP2 SWAP1 PUSH2 0x2D4F JUMP JUMPDEST PUSH2 0xFC5 JUMP JUMPDEST STOP JUMPDEST CALLVALUE DUP1 ISZERO PUSH2 0x3D4 JUMPI PUSH1 0x0 DUP1 REVERT JUMPDEST POP PUSH2 0x3EF PUSH1 0x4 DUP1 CALLDATASIZE SUB DUP2 ADD SWAP1 PUSH2 0x3EA SWAP2 SWAP1 PUSH2 0x2D4F JUMP JUMPDEST PUSH2 0x1143 JUMP JUMPDEST PUSH1 0x40 MLOAD PUSH2 0x3FC SWAP2 SWAP1 PUSH2 0x32E4 JUMP JUMPDEST PUSH1 0x40 MLOAD DUP1 SWAP2 SUB SWAP1 RETURN JUMPDEST PUSH2 0x41F PUSH1 0x4 DUP1 CALLDATASIZE SUB DUP2 ADD SWAP1 PUSH2 0x41A SWAP2 SWAP1 PUSH2 0x2D4F JUMP JUMPDEST PUSH2 0x115B JUMP JUMPDEST STOP JUMPDEST CALLVALUE DUP1 ISZERO PUSH2 0x42D JUMPI PUSH1 0x0 DUP1 REVERT JUMPDEST POP PUSH2 0x436 PUSH2 0x12F3 JUMP JUMPDEST PUSH1 0x40 MLOAD PUSH2 0x443 SWAP2 SWAP1 PUSH2 0x32E4 JUMP JUMPDEST PUSH1 0x40 MLOAD DUP1 SWAP2 SUB SWAP1 RETURN JUMPDEST CALLVALUE DUP1 ISZERO PUSH2 0x458 JUMPI PUSH1 0x0 DUP1 REVERT JUMPDEST POP PUSH2 0x461 PUSH2 0x13B8 JUMP JUMPDEST PUSH1 0x40 MLOAD PUSH2 0x46E SWAP2 SWAP1 PUSH2 0x318E JUMP JUMPDEST PUSH1 0x40 MLOAD DUP1 SWAP2 SUB SWAP1 RETURN JUMPDEST CALLVALUE DUP1 ISZERO PUSH2 0x483 JUMPI PUSH1 0x0 DUP1 REVERT JUMPDEST POP PUSH2 0x48C PUSH2 0x13DE JUMP JUMPDEST PUSH1 0x40 MLOAD PUSH2 0x499 SWAP2 SWAP1 PUSH2 0x3098 JUMP JUMPDEST PUSH1 0x40 MLOAD DUP1 SWAP2 SUB SWAP1 RETURN JUMPDEST CALLVALUE DUP1 ISZERO PUSH2 0x4AE JUMPI PUSH1 0x0 DUP1 REVERT JUMPDEST POP PUSH2 0x4C9 PUSH1 0x4 DUP1 CALLDATASIZE SUB DUP2 ADD SWAP1 PUSH2 0x4C4 SWAP2 SWAP1 PUSH2 0x2D4F JUMP JUMPDEST PUSH2 0x1404 JUMP JUMPDEST PUSH1 0x40 MLOAD PUSH2 0x4D6 SWAP2 SWAP1 PUSH2 0x32E4 JUMP JUMPDEST PUSH1 0x40 MLOAD DUP1 SWAP2 SUB SWAP1 RETURN JUMPDEST CALLVALUE DUP1 ISZERO PUSH2 0x4EB JUMPI PUSH1 0x0 DUP1 REVERT JUMPDEST POP PUSH2 0x506 PUSH1 0x4 DUP1 CALLDATASIZE SUB DUP2 ADD SWAP1 PUSH2 0x501 SWAP2 SWAP1 PUSH2 0x2D4F JUMP JUMPDEST PUSH2 0x141C JUMP JUMPDEST STOP JUMPDEST CALLVALUE DUP1 ISZERO PUSH2 0x514 JUMPI PUSH1 0x0 DUP1 REVERT JUMPDEST POP PUSH2 0x51D PUSH2 0x149B JUMP JUMPDEST PUSH1 0x40 MLOAD PUSH2 0x52A SWAP2 SWAP1 PUSH2 0x32E4 JUMP JUMPDEST PUSH1 0x40 MLOAD DUP1 SWAP2 SUB SWAP1 RETURN JUMPDEST CALLVALUE DUP1 ISZERO PUSH2 0x53F JUMPI PUSH1 0x0 DUP1 REVERT JUMPDEST POP PUSH2 0x548 PUSH2 0x14A1 JUMP JUMPDEST PUSH1 0x40 MLOAD PUSH2 0x555 SWAP2 SWAP1 PUSH2 0x32E4 JUMP JUMPDEST PUSH1 0x40 MLOAD DUP1 SWAP2 SUB SWAP1 RETURN JUMPDEST CALLVALUE DUP1 ISZERO PUSH2 0x56A JUMPI PUSH1 0x0 DUP1 REVERT JUMPDEST POP PUSH2 0x573 PUSH2 0x15BF JUMP JUMPDEST PUSH1 0x40 MLOAD PUSH2 0x580 SWAP2 SWAP1 PUSH2 0x32E4 JUMP JUMPDEST PUSH1 0x40 MLOAD DUP1 SWAP2 SUB SWAP1 RETURN JUMPDEST CALLVALUE DUP1 ISZERO PUSH2 0x595 JUMPI PUSH1 0x0 DUP1 REVERT JUMPDEST POP PUSH2 0x59E PUSH2 0x15C5 JUMP JUMPDEST PUSH1 0x40 MLOAD PUSH2 0x5AB SWAP2 SWAP1 PUSH2 0x32E4 JUMP JUMPDEST PUSH1 0x40 MLOAD DUP1 SWAP2 SUB SWAP1 RETURN JUMPDEST CALLVALUE DUP1 ISZERO PUSH2 0x5C0 JUMPI PUSH1 0x0 DUP1 REVERT JUMPDEST POP PUSH2 0x5DB PUSH1 0x4 DUP1 CALLDATASIZE SUB DUP2 ADD SWAP1 PUSH2 0x5D6 SWAP2 SWAP1 PUSH2 0x2D4F JUMP JUMPDEST PUSH2 0x15CB JUMP JUMPDEST STOP JUMPDEST CALLVALUE DUP1 ISZERO PUSH2 0x5E9 JUMPI PUSH1 0x0 DUP1 REVERT JUMPDEST POP PUSH2 0x5F2 PUSH2 0x167C JUMP JUMPDEST PUSH1 0x40 MLOAD PUSH2 0x5FF SWAP2 SWAP1 PUSH2 0x31A9 JUMP JUMPDEST PUSH1 0x40 MLOAD DUP1 SWAP2 SUB SWAP1 RETURN JUMPDEST CALLVALUE DUP1 ISZERO PUSH2 0x614 JUMPI PUSH1 0x0 DUP1 REVERT JUMPDEST POP PUSH2 0x61D PUSH2 0x168F JUMP JUMPDEST PUSH1 0x40 MLOAD PUSH2 0x62A SWAP2 SWAP1 PUSH2 0x318E JUMP JUMPDEST PUSH1 0x40 MLOAD DUP1 SWAP2 SUB SWAP1 RETURN JUMPDEST CALLVALUE DUP1 ISZERO PUSH2 0x63F JUMPI PUSH1 0x0 DUP1 REVERT JUMPDEST POP PUSH2 0x648 PUSH2 0x16B5 JUMP JUMPDEST STOP JUMPDEST CALLVALUE DUP1 ISZERO PUSH2 0x656 JUMPI PUSH1 0x0 DUP1 REVERT JUMPDEST POP PUSH2 0x65F PUSH2 0x173D JUMP JUMPDEST PUSH1 0x40 MLOAD PUSH2 0x66C SWAP2 SWAP1 PUSH2 0x32E4 JUMP JUMPDEST PUSH1 0x40 MLOAD DUP1 SWAP2 SUB SWAP1 RETURN JUMPDEST CALLVALUE DUP1 ISZERO PUSH2 0x681 JUMPI PUSH1 0x0 DUP1 REVERT JUMPDEST POP PUSH2 0x69C PUSH1 0x4 DUP1 CALLDATASIZE SUB DUP2 ADD SWAP1 PUSH2 0x697 SWAP2 SWAP1 PUSH2 0x2DA9 JUMP JUMPDEST PUSH2 0x17F4 JUMP JUMPDEST STOP JUMPDEST CALLVALUE DUP1 ISZERO PUSH2 0x6AA JUMPI PUSH1 0x0 DUP1 REVERT JUMPDEST POP PUSH2 0x6B3 PUSH2 0x1CF5 JUMP JUMPDEST PUSH1 0x40 MLOAD PUSH2 0x6C0 SWAP2 SWAP1 PUSH2 0x3098 JUMP JUMPDEST PUSH1 0x40 MLOAD DUP1 SWAP2 SUB SWAP1 RETURN JUMPDEST CALLVALUE DUP1 ISZERO PUSH2 0x6D5 JUMPI PUSH1 0x0 DUP1 REVERT JUMPDEST POP PUSH2 0x6DE PUSH2 0x1D1F JUMP JUMPDEST PUSH1 0x40 MLOAD PUSH2 0x6EB SWAP2 SWAP1 PUSH2 0x32E4 JUMP JUMPDEST PUSH1 0x40 MLOAD DUP1 SWAP2 SUB SWAP1 RETURN JUMPDEST CALLVALUE DUP1 ISZERO PUSH2 0x700 JUMPI PUSH1 0x0 DUP1 REVERT JUMPDEST POP PUSH2 0x71B PUSH1 0x4 DUP1 CALLDATASIZE SUB DUP2 ADD SWAP1 PUSH2 0x716 SWAP2 SWAP1 PUSH2 0x2BE1 JUMP JUMPDEST PUSH2 0x1E79 JUMP JUMPDEST STOP JUMPDEST CALLVALUE DUP1 ISZERO PUSH2 0x729 JUMPI PUSH1 0x0 DUP1 REVERT JUMPDEST POP PUSH2 0x744 PUSH1 0x4 DUP1 CALLDATASIZE SUB DUP2 ADD SWAP1 PUSH2 0x73F SWAP2 SWAP1 PUSH2 0x2C97 JUMP JUMPDEST PUSH2 0x1EF8 JUMP JUMPDEST PUSH1 0x40 MLOAD PUSH2 0x752 SWAP3 SWAP2 SWAP1 PUSH2 0x3165 JUMP JUMPDEST PUSH1 0x40 MLOAD DUP1 SWAP2 SUB SWAP1 RETURN JUMPDEST CALLVALUE DUP1 ISZERO PUSH2 0x767 JUMPI PUSH1 0x0 DUP1 REVERT JUMPDEST POP PUSH2 0x770 PUSH2 0x1F52 JUMP JUMPDEST STOP JUMPDEST CALLVALUE DUP1 ISZERO PUSH2 0x77E JUMPI PUSH1 0x0 DUP1 REVERT JUMPDEST POP PUSH2 0x799 PUSH1 0x4 DUP1 CALLDATASIZE SUB DUP2 ADD SWAP1 PUSH2 0x794 SWAP2 SWAP1 PUSH2 0x2C0E JUMP JUMPDEST PUSH2 0x1FD4 JUMP JUMPDEST STOP JUMPDEST CALLVALUE DUP1 ISZERO PUSH2 0x7A7 JUMPI PUSH1 0x0 DUP1 REVERT JUMPDEST POP PUSH2 0x7B0 PUSH2 0x2155 JUMP JUMPDEST PUSH1 0x40 MLOAD PUSH2 0x7BD SWAP2 SWAP1 PUSH2 0x3098 JUMP JUMPDEST PUSH1 0x40 MLOAD DUP1 SWAP2 SUB SWAP1 RETURN JUMPDEST CALLVALUE DUP1 ISZERO PUSH2 0x7D2 JUMPI PUSH1 0x0 DUP1 REVERT JUMPDEST POP PUSH2 0x7DB PUSH2 0x217B JUMP JUMPDEST PUSH1 0x40 MLOAD PUSH2 0x7E8 SWAP2 SWAP1 PUSH2 0x318E JUMP JUMPDEST PUSH1 0x40 MLOAD DUP1 SWAP2 SUB SWAP1 RETURN JUMPDEST PUSH2 0x80B PUSH1 0x4 DUP1 CALLDATASIZE SUB DUP2 ADD SWAP1 PUSH2 0x806 SWAP2 SWAP1 PUSH2 0x2E05 JUMP JUMPDEST PUSH2 0x21A1 JUMP JUMPDEST STOP JUMPDEST CALLVALUE DUP1 ISZERO PUSH2 0x819 JUMPI PUSH1 0x0 DUP1 REVERT JUMPDEST POP PUSH2 0x822 PUSH2 0x251A JUMP JUMPDEST PUSH1 0x40 MLOAD PUSH2 0x82F SWAP2 SWAP1 PUSH2 0x32E4 JUMP JUMPDEST PUSH1 0x40 MLOAD DUP1 SWAP2 SUB SWAP1 RETURN JUMPDEST CALLVALUE DUP1 ISZERO PUSH2 0x844 JUMPI PUSH1 0x0 DUP1 REVERT JUMPDEST POP PUSH2 0x84D PUSH2 0x2520 JUMP JUMPDEST PUSH1 0x40 MLOAD PUSH2 0x85A SWAP2 SWAP1 PUSH2 0x318E JUMP JUMPDEST PUSH1 0x40 MLOAD DUP1 SWAP2 SUB SWAP1 RETURN JUMPDEST CALLVALUE DUP1 ISZERO PUSH2 0x86F JUMPI PUSH1 0x0 DUP1 REVERT JUMPDEST POP PUSH2 0x878 PUSH2 0x2546 JUMP JUMPDEST PUSH1 0x40 MLOAD PUSH2 0x885 SWAP2 SWAP1 PUSH2 0x32E4 JUMP JUMPDEST PUSH1 0x40 MLOAD DUP1 SWAP2 SUB SWAP1 RETURN JUMPDEST CALLVALUE DUP1 ISZERO PUSH2 0x89A JUMPI PUSH1 0x0 DUP1 REVERT JUMPDEST POP PUSH2 0x8B5 PUSH1 0x4 DUP1 CALLDATASIZE SUB DUP2 ADD SWAP1 PUSH2 0x8B0 SWAP2 SWAP1 PUSH2 0x2CE0 JUMP JUMPDEST PUSH2 0x25A9 JUMP JUMPDEST STOP JUMPDEST CALLVALUE DUP1 ISZERO PUSH2 0x8C3 JUMPI PUSH1 0x0 DUP1 REVERT JUMPDEST POP PUSH2 0x8CC PUSH2 0x26B0 JUMP JUMPDEST PUSH1 0x40 MLOAD PUSH2 0x8D9 SWAP2 SWAP1 PUSH2 0x32E4 JUMP JUMPDEST PUSH1 0x40 MLOAD DUP1 SWAP2 SUB SWAP1 RETURN JUMPDEST CALLVALUE DUP1 ISZERO PUSH2 0x8EE JUMPI PUSH1 0x0 DUP1 REVERT JUMPDEST POP PUSH2 0x8F7 PUSH2 0x26B6 JUMP JUMPDEST PUSH1 0x40 MLOAD PUSH2 0x904 SWAP2 SWAP1 PUSH2 0x3098 JUMP JUMPDEST PUSH1 0x40 MLOAD DUP1 SWAP2 SUB SWAP1 RETURN JUMPDEST CALLVALUE DUP1 ISZERO PUSH2 0x919 JUMPI PUSH1 0x0 DUP1 REVERT JUMPDEST POP PUSH2 0x934 PUSH1 0x4 DUP1 CALLDATASIZE SUB DUP2 ADD SWAP1 PUSH2 0x92F SWAP2 SWAP1 PUSH2 0x2BE1 JUMP JUMPDEST PUSH2 0x26DC JUMP JUMPDEST STOP JUMPDEST CALLVALUE DUP1 ISZERO PUSH2 0x942 JUMPI PUSH1 0x0 DUP1 REVERT JUMPDEST POP PUSH2 0x94B PUSH2 0x27D4 JUMP JUMPDEST PUSH1 0x40 MLOAD PUSH2 0x958 SWAP2 SWAP1 PUSH2 0x3098 JUMP JUMPDEST PUSH1 0x40 MLOAD DUP1 SWAP2 SUB SWAP1 RETURN JUMPDEST CALLVALUE DUP1 ISZERO PUSH2 0x96D JUMPI PUSH1 0x0 DUP1 REVERT JUMPDEST POP PUSH2 0x988 PUSH1 0x4 DUP1 CALLDATASIZE SUB DUP2 ADD SWAP1 PUSH2 0x983 SWAP2 SWAP1 PUSH2 0x2D4F JUMP JUMPDEST PUSH2 0x27FA JUMP JUMPDEST STOP JUMPDEST PUSH1 0x0 PUSH2 0xAA3 ADDRESS PUSH20 0xFFFFFFFFFFFFFFFFFFFFFFFFFFFFFFFFFFFFFFFF AND PUSH4 0x1F564A06 PUSH1 0x40 MLOAD DUP2 PUSH4 0xFFFFFFFF AND PUSH1 0xE0 SHL DUP2 MSTORE PUSH1 0x4 ADD PUSH1 0x20 PUSH1 0x40 MLOAD DUP1 DUP4 SUB DUP2 DUP7 DUP1 EXTCODESIZE ISZERO DUP1 ISZERO PUSH2 0x9D5 JUMPI PUSH1 0x0 DUP1 REVERT JUMPDEST POP GAS STATICCALL ISZERO DUP1 ISZERO PUSH2 0x9E9 JUMPI RETURNDATASIZE PUSH1 0x0 DUP1 RETURNDATACOPY RETURNDATASIZE PUSH1 0x0 REVERT JUMPDEST POP POP POP POP PUSH1 0x40 MLOAD RETURNDATASIZE PUSH1 0x1F NOT PUSH1 0x1F DUP3 ADD AND DUP3 ADD DUP1 PUSH1 0x40 MSTORE POP DUP2 ADD SWAP1 PUSH2 0xA0D SWAP2 SWAP1 PUSH2 0x2D7C JUMP JUMPDEST ADDRESS PUSH20 0xFFFFFFFFFFFFFFFFFFFFFFFFFFFFFFFFFFFFFFFF AND PUSH4 0x93F7B711 PUSH1 0x40 MLOAD DUP2 PUSH4 0xFFFFFFFF AND PUSH1 0xE0 SHL DUP2 MSTORE PUSH1 0x4 ADD PUSH1 0x20 PUSH1 0x40 MLOAD DUP1 DUP4 SUB DUP2 DUP7 DUP1 EXTCODESIZE ISZERO DUP1 ISZERO PUSH2 0xA53 JUMPI PUSH1 0x0 DUP1 REVERT JUMPDEST POP GAS STATICCALL ISZERO DUP1 ISZERO PUSH2 0xA67 JUMPI RETURNDATASIZE PUSH1 0x0 DUP1 RETURNDATACOPY RETURNDATASIZE PUSH1 0x0 REVERT JUMPDEST POP POP POP POP PUSH1 0x40 MLOAD RETURNDATASIZE PUSH1 0x1F NOT PUSH1 0x1F DUP3 ADD AND DUP3 ADD DUP1 PUSH1 0x40 MSTORE POP DUP2 ADD SWAP1 PUSH2 0xA8B SWAP2 SWAP1 PUSH2 0x2D7C JUMP JUMPDEST PUSH8 0x10A741A462780000 PUSH2 0xA9E SWAP2 SWAP1 PUSH2 0x33A5 JUMP JUMPDEST PUSH2 0x2812 JUMP JUMPDEST SWAP1 POP SWAP1 JUMP JUMPDEST PUSH2 0xAB0 PUSH2 0x285B JUMP JUMPDEST PUSH20 0xFFFFFFFFFFFFFFFFFFFFFFFFFFFFFFFFFFFFFFFF AND PUSH2 0xACE PUSH2 0x1CF5 JUMP JUMPDEST PUSH20 0xFFFFFFFFFFFFFFFFFFFFFFFFFFFFFFFFFFFFFFFF AND EQ PUSH2 0xB24 JUMPI PUSH1 0x40 MLOAD PUSH32 0x8C379A000000000000000000000000000000000000000000000000000000000 DUP2 MSTORE PUSH1 0x4 ADD PUSH2 0xB1B SWAP1 PUSH2 0x3224 JUMP JUMPDEST PUSH1 0x40 MLOAD DUP1 SWAP2 SUB SWAP1 REVERT JUMPDEST PUSH1 0x14 PUSH1 0x0 SWAP1 SLOAD SWAP1 PUSH2 0x100 EXP SWAP1 DIV PUSH20 0xFFFFFFFFFFFFFFFFFFFFFFFFFFFFFFFFFFFFFFFF AND PUSH20 0xFFFFFFFFFFFFFFFFFFFFFFFFFFFFFFFFFFFFFFFF AND PUSH4 0x40C10F19 PUSH20 0x617F2E2FD72FD9D5503197092AC168C91465E7F2 PUSH10 0x1FE36793670C0C82000 PUSH1 0x40 MLOAD DUP4 PUSH4 0xFFFFFFFF AND PUSH1 0xE0 SHL DUP2 MSTORE PUSH1 0x4 ADD PUSH2 0xB9F SWAP3 SWAP2 SWAP1 PUSH2 0x313C JUMP JUMPDEST PUSH1 0x0 PUSH1 0x40 MLOAD DUP1 DUP4 SUB DUP2 PUSH1 0x0 DUP8 DUP1 EXTCODESIZE ISZERO DUP1 ISZERO PUSH2 0xBB9 JUMPI PUSH1 0x0 DUP1 REVERT JUMPDEST POP GAS CALL ISZERO DUP1 ISZERO PUSH2 0xBCD JUMPI RETURNDATASIZE PUSH1 0x0 DUP1 RETURNDATACOPY RETURNDATASIZE PUSH1 0x0 REVERT JUMPDEST POP POP POP POP PUSH1 0x14 PUSH1 0x0 SWAP1 SLOAD SWAP1 PUSH2 0x100 EXP SWAP1 DIV PUSH20 0xFFFFFFFFFFFFFFFFFFFFFFFFFFFFFFFFFFFFFFFF AND PUSH20 0xFFFFFFFFFFFFFFFFFFFFFFFFFFFFFFFFFFFFFFFF AND PUSH4 0x40C10F19 PUSH20 0x17F6AD8EF982297579C203069C1DBFFE4348C372 PUSH10 0x97782BFBF68AB74E000 PUSH1 0x40 MLOAD DUP4 PUSH4 0xFFFFFFFF AND PUSH1 0xE0 SHL DUP2 MSTORE PUSH1 0x4 ADD PUSH2 0xC4C SWAP3 SWAP2 SWAP1 PUSH2 0x30EA JUMP JUMPDEST PUSH1 0x0 PUSH1 0x40 MLOAD DUP1 DUP4 SUB DUP2 PUSH1 0x0 DUP8 DUP1 EXTCODESIZE ISZERO DUP1 ISZERO PUSH2 0xC66 JUMPI PUSH1 0x0 DUP1 REVERT JUMPDEST POP GAS CALL ISZERO DUP1 ISZERO PUSH2 0xC7A JUMPI RETURNDATASIZE PUSH1 0x0 DUP1 RETURNDATACOPY RETURNDATASIZE PUSH1 0x0 REVERT JUMPDEST POP POP POP POP PUSH1 0x14 PUSH1 0x0 SWAP1 SLOAD SWAP1 PUSH2 0x100 EXP SWAP1 DIV PUSH20 0xFFFFFFFFFFFFFFFFFFFFFFFFFFFFFFFFFFFFFFFF AND PUSH20 0xFFFFFFFFFFFFFFFFFFFFFFFFFFFFFFFFFFFFFFFF AND PUSH4 0x40C10F19 PUSH20 0x5C6B0F7BF3E7CE046039BD8FABDFD3F9F5021678 PUSH10 0x9F7105E1033C3E8A000 PUSH1 0x40 MLOAD DUP4 PUSH4 0xFFFFFFFF AND PUSH1 0xE0 SHL DUP2 MSTORE PUSH1 0x4 ADD PUSH2 0xCF9 SWAP3 SWAP2 SWAP1 PUSH2 0x3113 JUMP JUMPDEST PUSH1 0x0 PUSH1 0x40 MLOAD DUP1 DUP4 SUB DUP2 PUSH1 0x0 DUP8 DUP1 EXTCODESIZE ISZERO DUP1 ISZERO PUSH2 0xD13 JUMPI PUSH1 0x0 DUP1 REVERT JUMPDEST POP GAS CALL ISZERO DUP1 ISZERO PUSH2 0xD27 JUMPI RETURNDATASIZE PUSH1 0x0 DUP1 RETURNDATACOPY RETURNDATASIZE PUSH1 0x0 REVERT JUMPDEST POP POP POP POP PUSH10 0x156CC997060D3025A000 PUSH1 0x18 PUSH1 0x0 DUP1 DUP2 MSTORE PUSH1 0x20 ADD SWAP1 DUP2 MSTORE PUSH1 0x20 ADD PUSH1 0x0 KECCAK256 DUP2 SWAP1 SSTORE POP PUSH10 0x156CC997060D3025A000 PUSH1 0x1A PUSH1 0x0 DUP1 DUP2 MSTORE PUSH1 0x20 ADD SWAP1 DUP2 MSTORE PUSH1 0x20 ADD PUSH1 0x0 KECCAK256 DUP2 SWAP1 SSTORE POP PUSH3 0x8B290 PUSH1 0xC DUP2 SWAP1 SSTORE POP JUMP JUMPDEST PUSH1 0xA PUSH1 0x0 SWAP1 SLOAD SWAP1 PUSH2 0x100 EXP SWAP1 DIV PUSH20 0xFFFFFFFFFFFFFFFFFFFFFFFFFFFFFFFFFFFFFFFF AND DUP2 JUMP JUMPDEST PUSH1 0x0 DUP1 PUSH1 0x0 DUP1 PUSH3 0x15180 PUSH1 0xE SLOAD PUSH2 0xDB8 SWAP2 SWAP1 PUSH2 0x33FB JUMP JUMPDEST SWAP1 POP PUSH1 0x0 PUSH3 0x15180 PUSH1 0xD SLOAD TIMESTAMP PUSH2 0xDCE SWAP2 SWAP1 PUSH2 0x3486 JUMP JUMPDEST PUSH2 0xDD8 SWAP2 SWAP1 PUSH2 0x33FB JUMP JUMPDEST SWAP1 POP PUSH1 0x0 DUP1 DUP3 EQ ISZERO PUSH2 0xDFF JUMPI PUSH1 0x1A PUSH1 0x0 DUP1 DUP2 MSTORE PUSH1 0x20 ADD SWAP1 DUP2 MSTORE PUSH1 0x20 ADD PUSH1 0x0 KECCAK256 SLOAD SWAP4 POP PUSH2 0xE4B JUMP JUMPDEST DUP3 DUP3 PUSH2 0xE0B SWAP2 SWAP1 PUSH2 0x3486 JUMP JUMPDEST SWAP1 POP JUMPDEST DUP2 DUP2 LT ISZERO PUSH2 0xE4A JUMPI PUSH1 0x1A PUSH1 0x0 DUP3 DUP2 MSTORE PUSH1 0x20 ADD SWAP1 DUP2 MSTORE PUSH1 0x20 ADD PUSH1 0x0 KECCAK256 SLOAD DUP5 PUSH2 0xE35 SWAP2 SWAP1 PUSH2 0x33A5 JUMP JUMPDEST SWAP4 POP DUP1 DUP1 PUSH2 0xE42 SWAP1 PUSH2 0x35EE JUMP JUMPDEST SWAP2 POP POP PUSH2 0xE0E JUMP JUMPDEST JUMPDEST PUSH2 0xED2 ADDRESS PUSH20 0xFFFFFFFFFFFFFFFFFFFFFFFFFFFFFFFFFFFFFFFF AND PUSH4 0xD82EDDF2 PUSH1 0x40 MLOAD DUP2 PUSH4 0xFFFFFFFF AND PUSH1 0xE0 SHL DUP2 MSTORE PUSH1 0x4 ADD PUSH1 0x20 PUSH1 0x40 MLOAD DUP1 DUP4 SUB DUP2 DUP7 DUP1 EXTCODESIZE ISZERO DUP1 ISZERO PUSH2 0xE94 JUMPI PUSH1 0x0 DUP1 REVERT JUMPDEST POP GAS STATICCALL ISZERO DUP1 ISZERO PUSH2 0xEA8 JUMPI RETURNDATASIZE PUSH1 0x0 DUP1 RETURNDATACOPY RETURNDATASIZE PUSH1 0x0 REVERT JUMPDEST POP POP POP POP PUSH1 0x40 MLOAD RETURNDATASIZE PUSH1 0x1F NOT PUSH1 0x1F DUP3 ADD AND DUP3 ADD DUP1 PUSH1 0x40 MSTORE POP DUP2 ADD SWAP1 PUSH2 0xECC SWAP2 SWAP1 PUSH2 0x2D7C JUMP JUMPDEST DUP6 PUSH2 0x2863 JUMP JUMPDEST SWAP5 POP PUSH8 0x429D069189E0000 DUP6 GT ISZERO PUSH2 0xEF0 JUMPI PUSH8 0x429D069189E0000 SWAP5 POP JUMPDEST DUP5 SWAP6 POP POP POP POP POP POP SWAP1 JUMP JUMPDEST PUSH1 0x0 DUP1 PUSH3 0x15180 PUSH1 0xD SLOAD TIMESTAMP PUSH2 0xF10 SWAP2 SWAP1 PUSH2 0x3486 JUMP JUMPDEST PUSH2 0xF1A SWAP2 SWAP1 PUSH2 0x33FB JUMP JUMPDEST SWAP1 POP PUSH1 0x0 DUP1 PUSH3 0x15180 PUSH1 0xE SLOAD PUSH2 0xF30 SWAP2 SWAP1 PUSH2 0x33FB JUMP JUMPDEST SWAP1 POP PUSH1 0x0 DUP2 DUP5 PUSH2 0xF40 SWAP2 SWAP1 PUSH2 0x3486 JUMP JUMPDEST SWAP1 POP JUMPDEST DUP4 DUP2 LT ISZERO PUSH2 0xF7F JUMPI PUSH1 0x1A PUSH1 0x0 DUP3 DUP2 MSTORE PUSH1 0x20 ADD SWAP1 DUP2 MSTORE PUSH1 0x20 ADD PUSH1 0x0 KECCAK256 SLOAD DUP4 PUSH2 0xF6A SWAP2 SWAP1 PUSH2 0x33A5 JUMP JUMPDEST SWAP3 POP DUP1 DUP1 PUSH2 0xF77 SWAP1 PUSH2 0x35EE JUMP JUMPDEST SWAP2 POP POP PUSH2 0xF43 JUMP JUMPDEST DUP3 SWAP5 POP POP POP POP POP SWAP1 JUMP JUMPDEST PUSH1 0x1C PUSH1 0x20 MSTORE DUP1 PUSH1 0x0 MSTORE PUSH1 0x40 PUSH1 0x0 KECCAK256 PUSH1 0x0 SWAP2 POP SWAP1 POP DUP1 PUSH1 0x0 ADD SLOAD SWAP1 DUP1 PUSH1 0x1 ADD SLOAD SWAP1 POP DUP3 JUMP JUMPDEST PUSH1 0x19 PUSH1 0x20 MSTORE DUP1 PUSH1 0x0 MSTORE PUSH1 0x40 PUSH1 0x0 KECCAK256 PUSH1 0x0 SWAP2 POP SWAP1 POP SLOAD DUP2 JUMP JUMPDEST PUSH1 0x1C PUSH1 0x0 CALLER PUSH20 0xFFFFFFFFFFFFFFFFFFFFFFFFFFFFFFFFFFFFFFFF AND PUSH20 0xFFFFFFFFFFFFFFFFFFFFFFFFFFFFFFFFFFFFFFFF AND DUP2 MSTORE PUSH1 0x20 ADD SWAP1 DUP2 MSTORE PUSH1 0x20 ADD PUSH1 0x0 KECCAK256 PUSH1 0x1 ADD SLOAD DUP2 LT PUSH2 0x1049 JUMPI PUSH1 0x40 MLOAD PUSH32 0x8C379A000000000000000000000000000000000000000000000000000000000 DUP2 MSTORE PUSH1 0x4 ADD PUSH2 0x1040 SWAP1 PUSH2 0x31C4 JUMP JUMPDEST PUSH1 0x40 MLOAD DUP1 SWAP2 SUB SWAP1 REVERT JUMPDEST DUP1 PUSH1 0x1C PUSH1 0x0 CALLER PUSH20 0xFFFFFFFFFFFFFFFFFFFFFFFFFFFFFFFFFFFFFFFF AND PUSH20 0xFFFFFFFFFFFFFFFFFFFFFFFFFFFFFFFFFFFFFFFF AND DUP2 MSTORE PUSH1 0x20 ADD SWAP1 DUP2 MSTORE PUSH1 0x20 ADD PUSH1 0x0 KECCAK256 PUSH1 0x1 ADD PUSH1 0x0 DUP3 DUP3 SLOAD PUSH2 0x109B SWAP2 SWAP1 PUSH2 0x3486 JUMP JUMPDEST SWAP3 POP POP DUP2 SWAP1 SSTORE POP PUSH1 0x0 PUSH1 0x1C PUSH1 0x0 CALLER PUSH20 0xFFFFFFFFFFFFFFFFFFFFFFFFFFFFFFFFFFFFFFFF AND PUSH20 0xFFFFFFFFFFFFFFFFFFFFFFFFFFFFFFFFFFFFFFFF AND DUP2 MSTORE PUSH1 0x20 ADD SWAP1 DUP2 MSTORE PUSH1 0x20 ADD PUSH1 0x0 KECCAK256 PUSH1 0x1 ADD SLOAD EQ ISZERO PUSH2 0x1140 JUMPI PUSH1 0x1C PUSH1 0x0 CALLER PUSH20 0xFFFFFFFFFFFFFFFFFFFFFFFFFFFFFFFFFFFFFFFF AND PUSH20 0xFFFFFFFFFFFFFFFFFFFFFFFFFFFFFFFFFFFFFFFF AND DUP2 MSTORE PUSH1 0x20 ADD SWAP1 DUP2 MSTORE PUSH1 0x20 ADD PUSH1 0x0 KECCAK256 PUSH1 0x0 DUP1 DUP3 ADD PUSH1 0x0 SWAP1 SSTORE PUSH1 0x1 DUP3 ADD PUSH1 0x0 SWAP1 SSTORE POP POP JUMPDEST POP JUMP JUMPDEST PUSH1 0x1A PUSH1 0x20 MSTORE DUP1 PUSH1 0x0 MSTORE PUSH1 0x40 PUSH1 0x0 KECCAK256 PUSH1 0x0 SWAP2 POP SWAP1 POP SLOAD DUP2 JUMP JUMPDEST PUSH1 0x0 PUSH1 0x14 PUSH1 0x0 SWAP1 SLOAD SWAP1 PUSH2 0x100 EXP SWAP1 DIV PUSH20 0xFFFFFFFFFFFFFFFFFFFFFFFFFFFFFFFFFFFFFFFF AND PUSH20 0xFFFFFFFFFFFFFFFFFFFFFFFFFFFFFFFFFFFFFFFF AND PUSH4 0x70A08231 CALLER PUSH1 0x40 MLOAD DUP3 PUSH4 0xFFFFFFFF AND PUSH1 0xE0 SHL DUP2 MSTORE PUSH1 0x4 ADD PUSH2 0x11B8 SWAP2 SWAP1 PUSH2 0x3098 JUMP JUMPDEST PUSH1 0x20 PUSH1 0x40 MLOAD DUP1 DUP4 SUB DUP2 DUP7 DUP1 EXTCODESIZE ISZERO DUP1 ISZERO PUSH2 0x11D0 JUMPI PUSH1 0x0 DUP1 REVERT JUMPDEST POP GAS STATICCALL ISZERO DUP1 ISZERO PUSH2 0x11E4 JUMPI RETURNDATASIZE PUSH1 0x0 DUP1 RETURNDATACOPY RETURNDATASIZE PUSH1 0x0 REVERT JUMPDEST POP POP POP POP PUSH1 0x40 MLOAD RETURNDATASIZE PUSH1 0x1F NOT PUSH1 0x1F DUP3 ADD AND DUP3 ADD DUP1 PUSH1 0x40 MSTORE POP DUP2 ADD SWAP1 PUSH2 0x1208 SWAP2 SWAP1 PUSH2 0x2D7C JUMP JUMPDEST SWAP1 POP DUP2 DUP2 GT PUSH2 0x124C JUMPI PUSH1 0x40 MLOAD PUSH32 0x8C379A000000000000000000000000000000000000000000000000000000000 DUP2 MSTORE PUSH1 0x4 ADD PUSH2 0x1243 SWAP1 PUSH2 0x3244 JUMP JUMPDEST PUSH1 0x40 MLOAD DUP1 SWAP2 SUB SWAP1 REVERT JUMPDEST PUSH2 0x127A PUSH1 0x14 PUSH1 0x0 SWAP1 SLOAD SWAP1 PUSH2 0x100 EXP SWAP1 DIV PUSH20 0xFFFFFFFFFFFFFFFFFFFFFFFFFFFFFFFFFFFFFFFF AND CALLER ADDRESS DUP6 PUSH2 0x28A4 JUMP JUMPDEST PUSH1 0x0 PUSH3 0x15180 PUSH1 0xD SLOAD TIMESTAMP PUSH2 0x128E SWAP2 SWAP1 PUSH2 0x3486 JUMP JUMPDEST PUSH2 0x1298 SWAP2 SWAP1 PUSH2 0x33FB JUMP JUMPDEST SWAP1 POP DUP3 PUSH1 0x19 PUSH1 0x0 DUP4 DUP2 MSTORE PUSH1 0x20 ADD SWAP1 DUP2 MSTORE PUSH1 0x20 ADD PUSH1 0x0 KECCAK256 PUSH1 0x0 DUP3 DUP3 SLOAD PUSH2 0x12BD SWAP2 SWAP1 PUSH2 0x33A5 JUMP JUMPDEST SWAP3 POP POP DUP2 SWAP1 SSTORE POP DUP3 PUSH1 0x1A PUSH1 0x0 DUP4 DUP2 MSTORE PUSH1 0x20 ADD SWAP1 DUP2 MSTORE PUSH1 0x20 ADD PUSH1 0x0 KECCAK256 PUSH1 0x0 DUP3 DUP3 SLOAD PUSH2 0x12E7 SWAP2 SWAP1 PUSH2 0x3486 JUMP JUMPDEST SWAP3 POP POP DUP2 SWAP1 SSTORE POP POP POP POP JUMP JUMPDEST PUSH1 0x0 PUSH2 0x13B3 PUSH8 0xDE0B6B3A7640000 PUSH1 0xC SLOAD PUSH2 0x130E SWAP2 SWAP1 PUSH2 0x342C JUMP JUMPDEST PUSH1 0x14 PUSH1 0x0 SWAP1 SLOAD SWAP1 PUSH2 0x100 EXP SWAP1 DIV PUSH20 0xFFFFFFFFFFFFFFFFFFFFFFFFFFFFFFFFFFFFFFFF AND PUSH20 0xFFFFFFFFFFFFFFFFFFFFFFFFFFFFFFFFFFFFFFFF AND PUSH4 0x18160DDD PUSH1 0x40 MLOAD DUP2 PUSH4 0xFFFFFFFF AND PUSH1 0xE0 SHL DUP2 MSTORE PUSH1 0x4 ADD PUSH1 0x20 PUSH1 0x40 MLOAD DUP1 DUP4 SUB DUP2 DUP7 DUP1 EXTCODESIZE ISZERO DUP1 ISZERO PUSH2 0x1376 JUMPI PUSH1 0x0 DUP1 REVERT JUMPDEST POP GAS STATICCALL ISZERO DUP1 ISZERO PUSH2 0x138A JUMPI RETURNDATASIZE PUSH1 0x0 DUP1 RETURNDATACOPY RETURNDATASIZE PUSH1 0x0 REVERT JUMPDEST POP POP POP POP PUSH1 0x40 MLOAD RETURNDATASIZE PUSH1 0x1F NOT PUSH1 0x1F DUP3 ADD AND DUP3 ADD DUP1 PUSH1 0x40 MSTORE POP DUP2 ADD SWAP1 PUSH2 0x13AE SWAP2 SWAP1 PUSH2 0x2D7C JUMP JUMPDEST PUSH2 0x2863 JUMP JUMPDEST SWAP1 POP SWAP1 JUMP JUMPDEST PUSH1 0x14 PUSH1 0x0 SWAP1 SLOAD SWAP1 PUSH2 0x100 EXP SWAP1 DIV PUSH20 0xFFFFFFFFFFFFFFFFFFFFFFFFFFFFFFFFFFFFFFFF AND DUP2 JUMP JUMPDEST PUSH1 0xB PUSH1 0x0 SWAP1 SLOAD SWAP1 PUSH2 0x100 EXP SWAP1 DIV PUSH20 0xFFFFFFFFFFFFFFFFFFFFFFFFFFFFFFFFFFFFFFFF AND DUP2 JUMP JUMPDEST PUSH1 0x18 PUSH1 0x20 MSTORE DUP1 PUSH1 0x0 MSTORE PUSH1 0x40 PUSH1 0x0 KECCAK256 PUSH1 0x0 SWAP2 POP SWAP1 POP SLOAD DUP2 JUMP JUMPDEST PUSH2 0x1424 PUSH2 0x285B JUMP JUMPDEST PUSH20 0xFFFFFFFFFFFFFFFFFFFFFFFFFFFFFFFFFFFFFFFF AND PUSH2 0x1442 PUSH2 0x1CF5 JUMP JUMPDEST PUSH20 0xFFFFFFFFFFFFFFFFFFFFFFFFFFFFFFFFFFFFFFFF AND EQ PUSH2 0x1498 JUMPI PUSH1 0x40 MLOAD PUSH32 0x8C379A000000000000000000000000000000000000000000000000000000000 DUP2 MSTORE PUSH1 0x4 ADD PUSH2 0x148F SWAP1 PUSH2 0x3224 JUMP JUMPDEST PUSH1 0x40 MLOAD DUP1 SWAP2 SUB SWAP1 REVERT JUMPDEST POP JUMP JUMPDEST PUSH1 0xD SLOAD DUP2 JUMP JUMPDEST PUSH1 0x0 PUSH2 0x15BA ADDRESS PUSH20 0xFFFFFFFFFFFFFFFFFFFFFFFFFFFFFFFFFFFFFFFF AND PUSH4 0x1F564A06 PUSH1 0x40 MLOAD DUP2 PUSH4 0xFFFFFFFF AND PUSH1 0xE0 SHL DUP2 MSTORE PUSH1 0x4 ADD PUSH1 0x20 PUSH1 0x40 MLOAD DUP1 DUP4 SUB DUP2 DUP7 DUP1 EXTCODESIZE ISZERO DUP1 ISZERO PUSH2 0x14EC JUMPI PUSH1 0x0 DUP1 REVERT JUMPDEST POP GAS STATICCALL ISZERO DUP1 ISZERO PUSH2 0x1500 JUMPI RETURNDATASIZE PUSH1 0x0 DUP1 RETURNDATACOPY RETURNDATASIZE PUSH1 0x0 REVERT JUMPDEST POP POP POP POP PUSH1 0x40 MLOAD RETURNDATASIZE PUSH1 0x1F NOT PUSH1 0x1F DUP3 ADD AND DUP3 ADD DUP1 PUSH1 0x40 MSTORE POP DUP2 ADD SWAP1 PUSH2 0x1524 SWAP2 SWAP1 PUSH2 0x2D7C JUMP JUMPDEST ADDRESS PUSH20 0xFFFFFFFFFFFFFFFFFFFFFFFFFFFFFFFFFFFFFFFF AND PUSH4 0xCCAF04F PUSH1 0x40 MLOAD DUP2 PUSH4 0xFFFFFFFF AND PUSH1 0xE0 SHL DUP2 MSTORE PUSH1 0x4 ADD PUSH1 0x20 PUSH1 0x40 MLOAD DUP1 DUP4 SUB DUP2 DUP7 DUP1 EXTCODESIZE ISZERO DUP1 ISZERO PUSH2 0x156A JUMPI PUSH1 0x0 DUP1 REVERT JUMPDEST POP GAS STATICCALL ISZERO DUP1 ISZERO PUSH2 0x157E JUMPI RETURNDATASIZE PUSH1 0x0 DUP1 RETURNDATACOPY RETURNDATASIZE PUSH1 0x0 REVERT JUMPDEST POP POP POP POP PUSH1 0x40 MLOAD RETURNDATASIZE PUSH1 0x1F NOT PUSH1 0x1F DUP3 ADD AND DUP3 ADD DUP1 PUSH1 0x40 MSTORE POP DUP2 ADD SWAP1 PUSH2 0x15A2 SWAP2 SWAP1 PUSH2 0x2D7C JUMP JUMPDEST PUSH8 0xC7D713B49DA0000 PUSH2 0x15B5 SWAP2 SWAP1 PUSH2 0x3486 JUMP JUMPDEST PUSH2 0x2812 JUMP JUMPDEST SWAP1 POP SWAP1 JUMP JUMPDEST PUSH1 0xC SLOAD DUP2 JUMP JUMPDEST PUSH1 0xE SLOAD DUP2 JUMP JUMPDEST PUSH3 0xD2F00 TIMESTAMP PUSH2 0x15DA SWAP2 SWAP1 PUSH2 0x33A5 JUMP JUMPDEST PUSH1 0x1C PUSH1 0x0 CALLER PUSH20 0xFFFFFFFFFFFFFFFFFFFFFFFFFFFFFFFFFFFFFFFF AND PUSH20 0xFFFFFFFFFFFFFFFFFFFFFFFFFFFFFFFFFFFFFFFF AND DUP2 MSTORE PUSH1 0x20 ADD SWAP1 DUP2 MSTORE PUSH1 0x20 ADD PUSH1 0x0 KECCAK256 PUSH1 0x0 ADD DUP2 SWAP1 SSTORE POP DUP1 PUSH1 0x1C PUSH1 0x0 CALLER PUSH20 0xFFFFFFFFFFFFFFFFFFFFFFFFFFFFFFFFFFFFFFFF AND PUSH20 0xFFFFFFFFFFFFFFFFFFFFFFFFFFFFFFFFFFFFFFFF AND DUP2 MSTORE PUSH1 0x20 ADD SWAP1 DUP2 MSTORE PUSH1 0x20 ADD PUSH1 0x0 KECCAK256 PUSH1 0x1 ADD PUSH1 0x0 DUP3 DUP3 SLOAD PUSH2 0x1672 SWAP2 SWAP1 PUSH2 0x33A5 JUMP JUMPDEST SWAP3 POP POP DUP2 SWAP1 SSTORE POP POP JUMP JUMPDEST PUSH1 0x12 PUSH1 0x0 SWAP1 SLOAD SWAP1 PUSH2 0x100 EXP SWAP1 DIV PUSH1 0xF SIGNEXTEND DUP2 JUMP JUMPDEST PUSH1 0x17 PUSH1 0x0 SWAP1 SLOAD SWAP1 PUSH2 0x100 EXP SWAP1 DIV PUSH20 0xFFFFFFFFFFFFFFFFFFFFFFFFFFFFFFFFFFFFFFFF AND DUP2 JUMP JUMPDEST PUSH2 0x16BD PUSH2 0x285B JUMP JUMPDEST PUSH20 0xFFFFFFFFFFFFFFFFFFFFFFFFFFFFFFFFFFFFFFFF AND PUSH2 0x16DB PUSH2 0x1CF5 JUMP JUMPDEST PUSH20 0xFFFFFFFFFFFFFFFFFFFFFFFFFFFFFFFFFFFFFFFF AND EQ PUSH2 0x1731 JUMPI PUSH1 0x40 MLOAD PUSH32 0x8C379A000000000000000000000000000000000000000000000000000000000 DUP2 MSTORE PUSH1 0x4 ADD PUSH2 0x1728 SWAP1 PUSH2 0x3224 JUMP JUMPDEST PUSH1 0x40 MLOAD DUP1 SWAP2 SUB SWAP1 REVERT JUMPDEST PUSH2 0x173B PUSH1 0x0 PUSH2 0x297E JUMP JUMPDEST JUMP JUMPDEST PUSH1 0x0 DUP1 PUSH1 0x0 DUP1 PUSH3 0x15180 PUSH1 0xE SLOAD PUSH2 0x1754 SWAP2 SWAP1 PUSH2 0x33FB JUMP JUMPDEST SWAP1 POP PUSH1 0x0 PUSH3 0x15180 PUSH1 0xD SLOAD TIMESTAMP PUSH2 0x176A SWAP2 SWAP1 PUSH2 0x3486 JUMP JUMPDEST PUSH2 0x1774 SWAP2 SWAP1 PUSH2 0x33FB JUMP JUMPDEST SWAP1 POP PUSH1 0x0 DUP2 EQ ISZERO PUSH2 0x179E JUMPI PUSH1 0x18 PUSH1 0x0 DUP1 DUP2 MSTORE PUSH1 0x20 ADD SWAP1 DUP2 MSTORE PUSH1 0x20 ADD PUSH1 0x0 KECCAK256 SLOAD SWAP5 POP POP POP POP POP PUSH2 0x17F1 JUMP JUMPDEST DUP2 DUP2 PUSH2 0x17AA SWAP2 SWAP1 PUSH2 0x3486 JUMP JUMPDEST SWAP3 POP JUMPDEST DUP1 DUP4 LT ISZERO PUSH2 0x17E9 JUMPI PUSH1 0x18 PUSH1 0x0 DUP5 DUP2 MSTORE PUSH1 0x20 ADD SWAP1 DUP2 MSTORE PUSH1 0x20 ADD PUSH1 0x0 KECCAK256 SLOAD DUP5 PUSH2 0x17D4 SWAP2 SWAP1 PUSH2 0x33A5 JUMP JUMPDEST SWAP4 POP DUP3 DUP1 PUSH2 0x17E1 SWAP1 PUSH2 0x35EE JUMP JUMPDEST SWAP4 POP POP PUSH2 0x17AD JUMP JUMPDEST DUP4 SWAP5 POP POP POP POP POP JUMPDEST SWAP1 JUMP JUMPDEST PUSH1 0x2 PUSH1 0x0 SLOAD EQ ISZERO PUSH2 0x183A JUMPI PUSH1 0x40 MLOAD PUSH32 0x8C379A000000000000000000000000000000000000000000000000000000000 DUP2 MSTORE PUSH1 0x4 ADD PUSH2 0x1831 SWAP1 PUSH2 0x32A4 JUMP JUMPDEST PUSH1 0x40 MLOAD DUP1 SWAP2 SUB SWAP1 REVERT JUMPDEST PUSH1 0x2 PUSH1 0x0 DUP2 SWAP1 SSTORE POP PUSH1 0x1B DUP2 PUSH1 0x40 MLOAD PUSH2 0x1852 SWAP2 SWAP1 PUSH2 0x306C JUMP JUMPDEST SWAP1 DUP2 MSTORE PUSH1 0x20 ADD PUSH1 0x40 MLOAD DUP1 SWAP2 SUB SWAP1 KECCAK256 PUSH1 0x0 ADD PUSH1 0x0 SWAP1 SLOAD SWAP1 PUSH2 0x100 EXP SWAP1 DIV PUSH20 0xFFFFFFFFFFFFFFFFFFFFFFFFFFFFFFFFFFFFFFFF AND PUSH1 0x17 PUSH1 0x0 PUSH2 0x100 EXP DUP2 SLOAD DUP2 PUSH20 0xFFFFFFFFFFFFFFFFFFFFFFFFFFFFFFFFFFFFFFFF MUL NOT AND SWAP1 DUP4 PUSH20 0xFFFFFFFFFFFFFFFFFFFFFFFFFFFFFFFFFFFFFFFF AND MUL OR SWAP1 SSTORE POP PUSH3 0x3D090 DUP3 GT ISZERO PUSH2 0x190A JUMPI PUSH1 0x40 MLOAD PUSH32 0x8C379A000000000000000000000000000000000000000000000000000000000 DUP2 MSTORE PUSH1 0x4 ADD PUSH2 0x1901 SWAP1 PUSH2 0x3264 JUMP JUMPDEST PUSH1 0x40 MLOAD DUP1 SWAP2 SUB SWAP1 REVERT JUMPDEST PUSH1 0x0 PUSH1 0x17 PUSH1 0x0 SWAP1 SLOAD SWAP1 PUSH2 0x100 EXP SWAP1 DIV PUSH20 0xFFFFFFFFFFFFFFFFFFFFFFFFFFFFFFFFFFFFFFFF AND PUSH20 0xFFFFFFFFFFFFFFFFFFFFFFFFFFFFFFFFFFFFFFFF AND PUSH4 0x70A08231 CALLER PUSH1 0x40 MLOAD DUP3 PUSH4 0xFFFFFFFF AND PUSH1 0xE0 SHL DUP2 MSTORE PUSH1 0x4 ADD PUSH2 0x1967 SWAP2 SWAP1 PUSH2 0x3098 JUMP JUMPDEST PUSH1 0x20 PUSH1 0x40 MLOAD DUP1 DUP4 SUB DUP2 DUP7 DUP1 EXTCODESIZE ISZERO DUP1 ISZERO PUSH2 0x197F JUMPI PUSH1 0x0 DUP1 REVERT JUMPDEST POP GAS STATICCALL ISZERO DUP1 ISZERO PUSH2 0x1993 JUMPI RETURNDATASIZE PUSH1 0x0 DUP1 RETURNDATACOPY RETURNDATASIZE PUSH1 0x0 REVERT JUMPDEST POP POP POP POP PUSH1 0x40 MLOAD RETURNDATASIZE PUSH1 0x1F NOT PUSH1 0x1F DUP3 ADD AND DUP3 ADD DUP1 PUSH1 0x40 MSTORE POP DUP2 ADD SWAP1 PUSH2 0x19B7 SWAP2 SWAP1 PUSH2 0x2D7C JUMP JUMPDEST SWAP1 POP DUP3 DUP2 GT PUSH2 0x19FB JUMPI PUSH1 0x40 MLOAD PUSH32 0x8C379A000000000000000000000000000000000000000000000000000000000 DUP2 MSTORE PUSH1 0x4 ADD PUSH2 0x19F2 SWAP1 PUSH2 0x3244 JUMP JUMPDEST PUSH1 0x40 MLOAD DUP1 SWAP2 SUB SWAP1 REVERT JUMPDEST PUSH1 0x0 PUSH1 0x1B DUP4 PUSH1 0x40 MLOAD PUSH2 0x1A0D SWAP2 SWAP1 PUSH2 0x306C JUMP JUMPDEST SWAP1 DUP2 MSTORE PUSH1 0x20 ADD PUSH1 0x40 MLOAD DUP1 SWAP2 SUB SWAP1 KECCAK256 PUSH1 0x1 ADD SLOAD PUSH2 0x1AA6 DUP6 ADDRESS PUSH20 0xFFFFFFFFFFFFFFFFFFFFFFFFFFFFFFFFFFFFFFFF AND PUSH4 0x18A25E8 PUSH1 0x40 MLOAD DUP2 PUSH4 0xFFFFFFFF AND PUSH1 0xE0 SHL DUP2 MSTORE PUSH1 0x4 ADD PUSH1 0x20 PUSH1 0x40 MLOAD DUP1 DUP4 SUB DUP2 DUP7 DUP1 EXTCODESIZE ISZERO DUP1 ISZERO PUSH2 0x1A69 JUMPI PUSH1 0x0 DUP1 REVERT JUMPDEST POP GAS STATICCALL ISZERO DUP1 ISZERO PUSH2 0x1A7D JUMPI RETURNDATASIZE PUSH1 0x0 DUP1 RETURNDATACOPY RETURNDATASIZE PUSH1 0x0 REVERT JUMPDEST POP POP POP POP PUSH1 0x40 MLOAD RETURNDATASIZE PUSH1 0x1F NOT PUSH1 0x1F DUP3 ADD AND DUP3 ADD DUP1 PUSH1 0x40 MSTORE POP DUP2 ADD SWAP1 PUSH2 0x1AA1 SWAP2 SWAP1 PUSH2 0x2D7C JUMP JUMPDEST PUSH2 0x2812 JUMP JUMPDEST PUSH2 0x1AB0 SWAP2 SWAP1 PUSH2 0x342C JUMP JUMPDEST SWAP1 POP PUSH2 0x1AE0 PUSH1 0x17 PUSH1 0x0 SWAP1 SLOAD SWAP1 PUSH2 0x100 EXP SWAP1 DIV PUSH20 0xFFFFFFFFFFFFFFFFFFFFFFFFFFFFFFFFFFFFFFFF AND CALLER ADDRESS DUP5 PUSH2 0x28A4 JUMP JUMPDEST PUSH1 0x14 PUSH1 0x0 SWAP1 SLOAD SWAP1 PUSH2 0x100 EXP SWAP1 DIV PUSH20 0xFFFFFFFFFFFFFFFFFFFFFFFFFFFFFFFFFFFFFFFF AND PUSH20 0xFFFFFFFFFFFFFFFFFFFFFFFFFFFFFFFFFFFFFFFF AND PUSH4 0x40C10F19 CALLER PUSH8 0xDE0B6B3A7640000 DUP8 PUSH2 0x1B33 SWAP2 SWAP1 PUSH2 0x342C JUMP JUMPDEST PUSH1 0x40 MLOAD DUP4 PUSH4 0xFFFFFFFF AND PUSH1 0xE0 SHL DUP2 MSTORE PUSH1 0x4 ADD PUSH2 0x1B50 SWAP3 SWAP2 SWAP1 PUSH2 0x3165 JUMP JUMPDEST PUSH1 0x0 PUSH1 0x40 MLOAD DUP1 DUP4 SUB DUP2 PUSH1 0x0 DUP8 DUP1 EXTCODESIZE ISZERO DUP1 ISZERO PUSH2 0x1B6A JUMPI PUSH1 0x0 DUP1 REVERT JUMPDEST POP GAS CALL ISZERO DUP1 ISZERO PUSH2 0x1B7E JUMPI RETURNDATASIZE PUSH1 0x0 DUP1 RETURNDATACOPY RETURNDATASIZE PUSH1 0x0 REVERT JUMPDEST POP POP POP POP PUSH1 0x15 PUSH1 0x0 SWAP1 SLOAD SWAP1 PUSH2 0x100 EXP SWAP1 DIV PUSH20 0xFFFFFFFFFFFFFFFFFFFFFFFFFFFFFFFFFFFFFFFF AND PUSH20 0xFFFFFFFFFFFFFFFFFFFFFFFFFFFFFFFFFFFFFFFF AND PUSH4 0x40C10F19 ADDRESS PUSH8 0xDE0B6B3A7640000 DUP8 PUSH2 0x1BD5 SWAP2 SWAP1 PUSH2 0x342C JUMP JUMPDEST PUSH1 0x40 MLOAD DUP4 PUSH4 0xFFFFFFFF AND PUSH1 0xE0 SHL DUP2 MSTORE PUSH1 0x4 ADD PUSH2 0x1BF2 SWAP3 SWAP2 SWAP1 PUSH2 0x3165 JUMP JUMPDEST PUSH1 0x0 PUSH1 0x40 MLOAD DUP1 DUP4 SUB DUP2 PUSH1 0x0 DUP8 DUP1 EXTCODESIZE ISZERO DUP1 ISZERO PUSH2 0x1C0C JUMPI PUSH1 0x0 DUP1 REVERT JUMPDEST POP GAS CALL ISZERO DUP1 ISZERO PUSH2 0x1C20 JUMPI RETURNDATASIZE PUSH1 0x0 DUP1 RETURNDATACOPY RETURNDATASIZE PUSH1 0x0 REVERT JUMPDEST POP POP POP POP PUSH1 0x0 PUSH3 0x15180 PUSH1 0xD SLOAD TIMESTAMP PUSH2 0x1C38 SWAP2 SWAP1 PUSH2 0x3486 JUMP JUMPDEST PUSH2 0x1C42 SWAP2 SWAP1 PUSH2 0x33FB JUMP JUMPDEST SWAP1 POP DUP5 PUSH1 0x18 PUSH1 0x0 DUP4 DUP2 MSTORE PUSH1 0x20 ADD SWAP1 DUP2 MSTORE PUSH1 0x20 ADD PUSH1 0x0 KECCAK256 PUSH1 0x0 DUP3 DUP3 SLOAD PUSH2 0x1C67 SWAP2 SWAP1 PUSH2 0x33A5 JUMP JUMPDEST SWAP3 POP POP DUP2 SWAP1 SSTORE POP DUP5 PUSH1 0x1A PUSH1 0x0 DUP4 DUP2 MSTORE PUSH1 0x20 ADD SWAP1 DUP2 MSTORE PUSH1 0x20 ADD PUSH1 0x0 KECCAK256 PUSH1 0x0 DUP3 DUP3 SLOAD PUSH2 0x1C91 SWAP2 SWAP1 PUSH2 0x33A5 JUMP JUMPDEST SWAP3 POP POP DUP2 SWAP1 SSTORE POP CALLER PUSH20 0xFFFFFFFFFFFFFFFFFFFFFFFFFFFFFFFFFFFFFFFF AND PUSH32 0xF633443B01504D269657083D48BB6DE98E089CFFF672B47FEFBED21608B5C779 DUP7 PUSH1 0x40 MLOAD PUSH2 0x1CDE SWAP2 SWAP1 PUSH2 0x32E4 JUMP JUMPDEST PUSH1 0x40 MLOAD DUP1 SWAP2 SUB SWAP1 LOG2 POP POP POP PUSH1 0x1 PUSH1 0x0 DUP2 SWAP1 SSTORE POP POP POP JUMP JUMPDEST PUSH1 0x0 PUSH1 0x1 PUSH1 0x0 SWAP1 SLOAD SWAP1 PUSH2 0x100 EXP SWAP1 DIV PUSH20 0xFFFFFFFFFFFFFFFFFFFFFFFFFFFFFFFFFFFFFFFF AND SWAP1 POP SWAP1 JUMP JUMPDEST PUSH1 0x0 DUP1 PUSH1 0x0 DUP1 PUSH3 0x15180 PUSH1 0xE SLOAD PUSH2 0x1D36 SWAP2 SWAP1 PUSH2 0x33FB JUMP JUMPDEST SWAP1 POP PUSH1 0x0 PUSH3 0x15180 PUSH1 0xD SLOAD TIMESTAMP PUSH2 0x1D4C SWAP2 SWAP1 PUSH2 0x3486 JUMP JUMPDEST PUSH2 0x1D56 SWAP2 SWAP1 PUSH2 0x33FB JUMP JUMPDEST SWAP1 POP PUSH1 0x0 DUP1 DUP3 EQ ISZERO PUSH2 0x1D7D JUMPI PUSH1 0x1A PUSH1 0x0 DUP1 DUP2 MSTORE PUSH1 0x20 ADD SWAP1 DUP2 MSTORE PUSH1 0x20 ADD PUSH1 0x0 KECCAK256 SLOAD SWAP4 POP PUSH2 0x1DC9 JUMP JUMPDEST DUP3 DUP3 PUSH2 0x1D89 SWAP2 SWAP1 PUSH2 0x3486 JUMP JUMPDEST SWAP1 POP JUMPDEST DUP2 DUP2 LT ISZERO PUSH2 0x1DC8 JUMPI PUSH1 0x1A PUSH1 0x0 DUP3 DUP2 MSTORE PUSH1 0x20 ADD SWAP1 DUP2 MSTORE PUSH1 0x20 ADD PUSH1 0x0 KECCAK256 SLOAD DUP5 PUSH2 0x1DB3 SWAP2 SWAP1 PUSH2 0x33A5 JUMP JUMPDEST SWAP4 POP DUP1 DUP1 PUSH2 0x1DC0 SWAP1 PUSH2 0x35EE JUMP JUMPDEST SWAP2 POP POP PUSH2 0x1D8C JUMP JUMPDEST JUMPDEST PUSH2 0x1E50 ADDRESS PUSH20 0xFFFFFFFFFFFFFFFFFFFFFFFFFFFFFFFFFFFFFFFF AND PUSH4 0x71CD58F9 PUSH1 0x40 MLOAD DUP2 PUSH4 0xFFFFFFFF AND PUSH1 0xE0 SHL DUP2 MSTORE PUSH1 0x4 ADD PUSH1 0x20 PUSH1 0x40 MLOAD DUP1 DUP4 SUB DUP2 DUP7 DUP1 EXTCODESIZE ISZERO DUP1 ISZERO PUSH2 0x1E12 JUMPI PUSH1 0x0 DUP1 REVERT JUMPDEST POP GAS STATICCALL ISZERO DUP1 ISZERO PUSH2 0x1E26 JUMPI RETURNDATASIZE PUSH1 0x0 DUP1 RETURNDATACOPY RETURNDATASIZE PUSH1 0x0 REVERT JUMPDEST POP POP POP POP PUSH1 0x40 MLOAD RETURNDATASIZE PUSH1 0x1F NOT PUSH1 0x1F DUP3 ADD AND DUP3 ADD DUP1 PUSH1 0x40 MSTORE POP DUP2 ADD SWAP1 PUSH2 0x1E4A SWAP2 SWAP1 PUSH2 0x2D7C JUMP JUMPDEST DUP6 PUSH2 0x2863 JUMP JUMPDEST SWAP5 POP PUSH8 0x429D069189E0000 DUP6 GT ISZERO PUSH2 0x1E6E JUMPI PUSH8 0x429D069189E0000 SWAP5 POP JUMPDEST DUP5 SWAP6 POP POP POP POP POP POP SWAP1 JUMP JUMPDEST PUSH2 0x1E81 PUSH2 0x285B JUMP JUMPDEST PUSH20 0xFFFFFFFFFFFFFFFFFFFFFFFFFFFFFFFFFFFFFFFF AND PUSH2 0x1E9F PUSH2 0x1CF5 JUMP JUMPDEST PUSH20 0xFFFFFFFFFFFFFFFFFFFFFFFFFFFFFFFFFFFFFFFF AND EQ PUSH2 0x1EF5 JUMPI PUSH1 0x40 MLOAD PUSH32 0x8C379A000000000000000000000000000000000000000000000000000000000 DUP2 MSTORE PUSH1 0x4 ADD PUSH2 0x1EEC SWAP1 PUSH2 0x3224 JUMP JUMPDEST PUSH1 0x40 MLOAD DUP1 SWAP2 SUB SWAP1 REVERT JUMPDEST POP JUMP JUMPDEST PUSH1 0x1B DUP2 DUP1 MLOAD PUSH1 0x20 DUP2 ADD DUP3 ADD DUP1 MLOAD DUP5 DUP3 MSTORE PUSH1 0x20 DUP4 ADD PUSH1 0x20 DUP6 ADD KECCAK256 DUP2 DUP4 MSTORE DUP1 SWAP6 POP POP POP POP POP POP PUSH1 0x0 SWAP2 POP SWAP1 POP DUP1 PUSH1 0x0 ADD PUSH1 0x0 SWAP1 SLOAD SWAP1 PUSH2 0x100 EXP SWAP1 DIV PUSH20 0xFFFFFFFFFFFFFFFFFFFFFFFFFFFFFFFFFFFFFFFF AND SWAP1 DUP1 PUSH1 0x1 ADD SLOAD SWAP1 POP DUP3 JUMP JUMPDEST PUSH1 0x1B PUSH1 0x40 MLOAD PUSH2 0x1F60 SWAP1 PUSH2 0x3083 JUMP JUMPDEST SWAP1 DUP2 MSTORE PUSH1 0x20 ADD PUSH1 0x40 MLOAD DUP1 SWAP2 SUB SWAP1 KECCAK256 PUSH1 0x0 ADD PUSH1 0x0 SWAP1 SLOAD SWAP1 PUSH2 0x100 EXP SWAP1 DIV PUSH20 0xFFFFFFFFFFFFFFFFFFFFFFFFFFFFFFFFFFFFFFFF AND PUSH1 0x17 PUSH1 0x0 PUSH2 0x100 EXP DUP2 SLOAD DUP2 PUSH20 0xFFFFFFFFFFFFFFFFFFFFFFFFFFFFFFFFFFFFFFFF MUL NOT AND SWAP1 DUP4 PUSH20 0xFFFFFFFFFFFFFFFFFFFFFFFFFFFFFFFFFFFFFFFF AND MUL OR SWAP1 SSTORE POP JUMP JUMPDEST PUSH1 0x1C PUSH1 0x0 DUP4 PUSH20 0xFFFFFFFFFFFFFFFFFFFFFFFFFFFFFFFFFFFFFFFF AND PUSH20 0xFFFFFFFFFFFFFFFFFFFFFFFFFFFFFFFFFFFFFFFF AND DUP2 MSTORE PUSH1 0x20 ADD SWAP1 DUP2 MSTORE PUSH1 0x20 ADD PUSH1 0x0 KECCAK256 PUSH1 0x0 ADD SLOAD TIMESTAMP LT ISZERO PUSH2 0x2059 JUMPI PUSH1 0x40 MLOAD PUSH32 0x8C379A000000000000000000000000000000000000000000000000000000000 DUP2 MSTORE PUSH1 0x4 ADD PUSH2 0x2050 SWAP1 PUSH2 0x3284 JUMP JUMPDEST PUSH1 0x40 MLOAD DUP1 SWAP2 SUB SWAP1 REVERT JUMPDEST PUSH1 0x1B DUP2 PUSH1 0x40 MLOAD PUSH2 0x2069 SWAP2 SWAP1 PUSH2 0x306C JUMP JUMPDEST SWAP1 DUP2 MSTORE PUSH1 0x20 ADD PUSH1 0x40 MLOAD DUP1 SWAP2 SUB SWAP1 KECCAK256 PUSH1 0x0 ADD PUSH1 0x0 SWAP1 SLOAD SWAP1 PUSH2 0x100 EXP SWAP1 DIV PUSH20 0xFFFFFFFFFFFFFFFFFFFFFFFFFFFFFFFFFFFFFFFF AND PUSH1 0x17 PUSH1 0x0 PUSH2 0x100 EXP DUP2 SLOAD DUP2 PUSH20 0xFFFFFFFFFFFFFFFFFFFFFFFFFFFFFFFFFFFFFFFF MUL NOT AND SWAP1 DUP4 PUSH20 0xFFFFFFFFFFFFFFFFFFFFFFFFFFFFFFFFFFFFFFFF AND MUL OR SWAP1 SSTORE POP PUSH1 0x0 PUSH1 0x1C PUSH1 0x0 DUP5 PUSH20 0xFFFFFFFFFFFFFFFFFFFFFFFFFFFFFFFFFFFFFFFF AND PUSH20 0xFFFFFFFFFFFFFFFFFFFFFFFFFFFFFFFFFFFFFFFF AND DUP2 MSTORE PUSH1 0x20 ADD SWAP1 DUP2 MSTORE PUSH1 0x20 ADD PUSH1 0x0 KECCAK256 PUSH1 0x1 ADD SLOAD SWAP1 POP PUSH2 0x2150 PUSH1 0x17 PUSH1 0x0 SWAP1 SLOAD SWAP1 PUSH2 0x100 EXP SWAP1 DIV PUSH20 0xFFFFFFFFFFFFFFFFFFFFFFFFFFFFFFFFFFFFFFFF AND ADDRESS CALLER DUP5 PUSH2 0x28A4 JUMP JUMPDEST POP POP POP JUMP JUMPDEST PUSH1 0x9 PUSH1 0x0 SWAP1 SLOAD SWAP1 PUSH2 0x100 EXP SWAP1 DIV PUSH20 0xFFFFFFFFFFFFFFFFFFFFFFFFFFFFFFFFFFFFFFFF AND DUP2 JUMP JUMPDEST PUSH1 0x16 PUSH1 0x0 SWAP1 SLOAD SWAP1 PUSH2 0x100 EXP SWAP1 DIV PUSH20 0xFFFFFFFFFFFFFFFFFFFFFFFFFFFFFFFFFFFFFFFF AND DUP2 JUMP JUMPDEST PUSH1 0x1B DUP2 PUSH1 0x40 MLOAD PUSH2 0x21B1 SWAP2 SWAP1 PUSH2 0x306C JUMP JUMPDEST SWAP1 DUP2 MSTORE PUSH1 0x20 ADD PUSH1 0x40 MLOAD DUP1 SWAP2 SUB SWAP1 KECCAK256 PUSH1 0x0 ADD PUSH1 0x0 SWAP1 SLOAD SWAP1 PUSH2 0x100 EXP SWAP1 DIV PUSH20 0xFFFFFFFFFFFFFFFFFFFFFFFFFFFFFFFFFFFFFFFF AND PUSH1 0x17 PUSH1 0x0 PUSH2 0x100 EXP DUP2 SLOAD DUP2 PUSH20 0xFFFFFFFFFFFFFFFFFFFFFFFFFFFFFFFFFFFFFFFF MUL NOT AND SWAP1 DUP4 PUSH20 0xFFFFFFFFFFFFFFFFFFFFFFFFFFFFFFFFFFFFFFFF AND MUL OR SWAP1 SSTORE POP PUSH1 0x0 PUSH1 0x14 PUSH1 0x0 SWAP1 SLOAD SWAP1 PUSH2 0x100 EXP SWAP1 DIV PUSH20 0xFFFFFFFFFFFFFFFFFFFFFFFFFFFFFFFFFFFFFFFF AND PUSH20 0xFFFFFFFFFFFFFFFFFFFFFFFFFFFFFFFFFFFFFFFF AND PUSH4 0x70A08231 CALLER PUSH1 0x40 MLOAD DUP3 PUSH4 0xFFFFFFFF AND PUSH1 0xE0 SHL DUP2 MSTORE PUSH1 0x4 ADD PUSH2 0x2280 SWAP2 SWAP1 PUSH2 0x3098 JUMP JUMPDEST PUSH1 0x20 PUSH1 0x40 MLOAD DUP1 DUP4 SUB DUP2 DUP7 DUP1 EXTCODESIZE ISZERO DUP1 ISZERO PUSH2 0x2298 JUMPI PUSH1 0x0 DUP1 REVERT JUMPDEST POP GAS STATICCALL ISZERO DUP1 ISZERO PUSH2 0x22AC JUMPI RETURNDATASIZE PUSH1 0x0 DUP1 RETURNDATACOPY RETURNDATASIZE PUSH1 0x0 REVERT JUMPDEST POP POP POP POP PUSH1 0x40 MLOAD RETURNDATASIZE PUSH1 0x1F NOT PUSH1 0x1F DUP3 ADD AND DUP3 ADD DUP1 PUSH1 0x40 MSTORE POP DUP2 ADD SWAP1 PUSH2 0x22D0 SWAP2 SWAP1 PUSH2 0x2D7C JUMP JUMPDEST SWAP1 POP DUP4 DUP2 GT PUSH2 0x2314 JUMPI PUSH1 0x40 MLOAD PUSH32 0x8C379A000000000000000000000000000000000000000000000000000000000 DUP2 MSTORE PUSH1 0x4 ADD PUSH2 0x230B SWAP1 PUSH2 0x3244 JUMP JUMPDEST PUSH1 0x40 MLOAD DUP1 SWAP2 SUB SWAP1 REVERT JUMPDEST PUSH1 0x17 PUSH1 0x0 SWAP1 SLOAD SWAP1 PUSH2 0x100 EXP SWAP1 DIV PUSH20 0xFFFFFFFFFFFFFFFFFFFFFFFFFFFFFFFFFFFFFFFF AND PUSH20 0xFFFFFFFFFFFFFFFFFFFFFFFFFFFFFFFFFFFFFFFF AND PUSH4 0xA9059CBB CALLER PUSH8 0xDE0B6B3A7640000 PUSH1 0x1 PUSH2 0x2368 SWAP2 SWAP1 PUSH2 0x342C JUMP JUMPDEST DUP8 PUSH2 0x2373 SWAP2 SWAP1 PUSH2 0x33A5 JUMP JUMPDEST PUSH1 0x40 MLOAD DUP4 PUSH4 0xFFFFFFFF AND PUSH1 0xE0 SHL DUP2 MSTORE PUSH1 0x4 ADD PUSH2 0x2390 SWAP3 SWAP2 SWAP1 PUSH2 0x3165 JUMP JUMPDEST PUSH1 0x20 PUSH1 0x40 MLOAD DUP1 DUP4 SUB DUP2 PUSH1 0x0 DUP8 DUP1 EXTCODESIZE ISZERO DUP1 ISZERO PUSH2 0x23AA JUMPI PUSH1 0x0 DUP1 REVERT JUMPDEST POP GAS CALL ISZERO DUP1 ISZERO PUSH2 0x23BE JUMPI RETURNDATASIZE PUSH1 0x0 DUP1 RETURNDATACOPY RETURNDATASIZE PUSH1 0x0 REVERT JUMPDEST POP POP POP POP PUSH1 0x40 MLOAD RETURNDATASIZE PUSH1 0x1F NOT PUSH1 0x1F DUP3 ADD AND DUP3 ADD DUP1 PUSH1 0x40 MSTORE POP DUP2 ADD SWAP1 PUSH2 0x23E2 SWAP2 SWAP1 PUSH2 0x2C6A JUMP JUMPDEST POP PUSH2 0x2411 PUSH1 0x14 PUSH1 0x0 SWAP1 SLOAD SWAP1 PUSH2 0x100 EXP SWAP1 DIV PUSH20 0xFFFFFFFFFFFFFFFFFFFFFFFFFFFFFFFFFFFFFFFF AND CALLER ADDRESS DUP8 PUSH2 0x28A4 JUMP JUMPDEST PUSH1 0x0 DUP5 ADDRESS PUSH20 0xFFFFFFFFFFFFFFFFFFFFFFFFFFFFFFFFFFFFFFFF AND PUSH4 0x43D32E9C PUSH1 0x40 MLOAD DUP2 PUSH4 0xFFFFFFFF AND PUSH1 0xE0 SHL DUP2 MSTORE PUSH1 0x4 ADD PUSH1 0x20 PUSH1 0x40 MLOAD DUP1 DUP4 SUB DUP2 DUP7 DUP1 EXTCODESIZE ISZERO DUP1 ISZERO PUSH2 0x245A JUMPI PUSH1 0x0 DUP1 REVERT JUMPDEST POP GAS STATICCALL ISZERO DUP1 ISZERO PUSH2 0x246E JUMPI RETURNDATASIZE PUSH1 0x0 DUP1 RETURNDATACOPY RETURNDATASIZE PUSH1 0x0 REVERT JUMPDEST POP POP POP POP PUSH1 0x40 MLOAD RETURNDATASIZE PUSH1 0x1F NOT PUSH1 0x1F DUP3 ADD AND DUP3 ADD DUP1 PUSH1 0x40 MSTORE POP DUP2 ADD SWAP1 PUSH2 0x2492 SWAP2 SWAP1 PUSH2 0x2D7C JUMP JUMPDEST PUSH2 0x249C SWAP2 SWAP1 PUSH2 0x342C JUMP JUMPDEST SWAP1 POP PUSH1 0x0 PUSH3 0x15180 PUSH1 0xD SLOAD TIMESTAMP PUSH2 0x24B2 SWAP2 SWAP1 PUSH2 0x3486 JUMP JUMPDEST PUSH2 0x24BC SWAP2 SWAP1 PUSH2 0x33FB JUMP JUMPDEST SWAP1 POP DUP6 PUSH1 0x19 PUSH1 0x0 DUP4 DUP2 MSTORE PUSH1 0x20 ADD SWAP1 DUP2 MSTORE PUSH1 0x20 ADD PUSH1 0x0 KECCAK256 PUSH1 0x0 DUP3 DUP3 SLOAD PUSH2 0x24E1 SWAP2 SWAP1 PUSH2 0x33A5 JUMP JUMPDEST SWAP3 POP POP DUP2 SWAP1 SSTORE POP DUP6 PUSH1 0x1A PUSH1 0x0 DUP4 DUP2 MSTORE PUSH1 0x20 ADD SWAP1 DUP2 MSTORE PUSH1 0x20 ADD PUSH1 0x0 KECCAK256 PUSH1 0x0 DUP3 DUP3 SLOAD PUSH2 0x250B SWAP2 SWAP1 PUSH2 0x3486 JUMP JUMPDEST SWAP3 POP POP DUP2 SWAP1 SSTORE POP POP POP POP POP POP POP JUMP JUMPDEST PUSH1 0x3 SLOAD DUP2 JUMP JUMPDEST PUSH1 0x15 PUSH1 0x0 SWAP1 SLOAD SWAP1 PUSH2 0x100 EXP SWAP1 DIV PUSH20 0xFFFFFFFFFFFFFFFFFFFFFFFFFFFFFFFFFFFFFFFF AND DUP2 JUMP JUMPDEST PUSH1 0x0 DUP1 PUSH1 0x0 DUP1 PUSH3 0x15180 PUSH1 0xE SLOAD PUSH2 0x255D SWAP2 SWAP1 PUSH2 0x33FB JUMP JUMPDEST SWAP1 POP PUSH1 0x0 SWAP2 POP JUMPDEST DUP1 DUP3 LT ISZERO PUSH2 0x25A0 JUMPI PUSH1 0x19 PUSH1 0x0 DUP4 DUP2 MSTORE PUSH1 0x20 ADD SWAP1 DUP2 MSTORE PUSH1 0x20 ADD PUSH1 0x0 KECCAK256 SLOAD DUP4 PUSH2 0x258B SWAP2 SWAP1 PUSH2 0x33A5 JUMP JUMPDEST SWAP3 POP DUP2 DUP1 PUSH2 0x2598 SWAP1 PUSH2 0x35EE JUMP JUMPDEST SWAP3 POP POP PUSH2 0x2564 JUMP JUMPDEST DUP3 SWAP4 POP POP POP POP SWAP1 JUMP JUMPDEST PUSH2 0x25B1 PUSH2 0x285B JUMP JUMPDEST PUSH20 0xFFFFFFFFFFFFFFFFFFFFFFFFFFFFFFFFFFFFFFFF AND PUSH2 0x25CF PUSH2 0x1CF5 JUMP JUMPDEST PUSH20 0xFFFFFFFFFFFFFFFFFFFFFFFFFFFFFFFFFFFFFFFF AND EQ PUSH2 0x2625 JUMPI PUSH1 0x40 MLOAD PUSH32 0x8C379A000000000000000000000000000000000000000000000000000000000 DUP2 MSTORE PUSH1 0x4 ADD PUSH2 0x261C SWAP1 PUSH2 0x3224 JUMP JUMPDEST PUSH1 0x40 MLOAD DUP1 SWAP2 SUB SWAP1 REVERT JUMPDEST DUP2 PUSH1 0x1B DUP5 PUSH1 0x40 MLOAD PUSH2 0x2636 SWAP2 SWAP1 PUSH2 0x306C JUMP JUMPDEST SWAP1 DUP2 MSTORE PUSH1 0x20 ADD PUSH1 0x40 MLOAD DUP1 SWAP2 SUB SWAP1 KECCAK256 PUSH1 0x0 ADD PUSH1 0x0 PUSH2 0x100 EXP DUP2 SLOAD DUP2 PUSH20 0xFFFFFFFFFFFFFFFFFFFFFFFFFFFFFFFFFFFFFFFF MUL NOT AND SWAP1 DUP4 PUSH20 0xFFFFFFFFFFFFFFFFFFFFFFFFFFFFFFFFFFFFFFFF AND MUL OR SWAP1 SSTORE POP DUP1 PUSH1 0x1B DUP5 PUSH1 0x40 MLOAD PUSH2 0x2696 SWAP2 SWAP1 PUSH2 0x306C JUMP JUMPDEST SWAP1 DUP2 MSTORE PUSH1 0x20 ADD PUSH1 0x40 MLOAD DUP1 SWAP2 SUB SWAP1 KECCAK256 PUSH1 0x1 ADD DUP2 SWAP1 SSTORE POP POP POP POP JUMP JUMPDEST PUSH1 0x2 SLOAD DUP2 JUMP JUMPDEST PUSH1 0x13 PUSH1 0x0 SWAP1 SLOAD SWAP1 PUSH2 0x100 EXP SWAP1 DIV PUSH20 0xFFFFFFFFFFFFFFFFFFFFFFFFFFFFFFFFFFFFFFFF AND DUP2 JUMP JUMPDEST PUSH2 0x26E4 PUSH2 0x285B JUMP JUMPDEST PUSH20 0xFFFFFFFFFFFFFFFFFFFFFFFFFFFFFFFFFFFFFFFF AND PUSH2 0x2702 PUSH2 0x1CF5 JUMP JUMPDEST PUSH20 0xFFFFFFFFFFFFFFFFFFFFFFFFFFFFFFFFFFFFFFFF AND EQ PUSH2 0x2758 JUMPI PUSH1 0x40 MLOAD PUSH32 0x8C379A000000000000000000000000000000000000000000000000000000000 DUP2 MSTORE PUSH1 0x4 ADD PUSH2 0x274F SWAP1 PUSH2 0x3224 JUMP JUMPDEST PUSH1 0x40 MLOAD DUP1 SWAP2 SUB SWAP1 REVERT JUMPDEST PUSH1 0x0 PUSH20 0xFFFFFFFFFFFFFFFFFFFFFFFFFFFFFFFFFFFFFFFF AND DUP2 PUSH20 0xFFFFFFFFFFFFFFFFFFFFFFFFFFFFFFFFFFFFFFFF AND EQ ISZERO PUSH2 0x27C8 JUMPI PUSH1 0x40 MLOAD PUSH32 0x8C379A000000000000000000000000000000000000000000000000000000000 DUP2 MSTORE PUSH1 0x4 ADD PUSH2 0x27BF SWAP1 PUSH2 0x31E4 JUMP JUMPDEST PUSH1 0x40 MLOAD DUP1 SWAP2 SUB SWAP1 REVERT JUMPDEST PUSH2 0x27D1 DUP2 PUSH2 0x297E JUMP JUMPDEST POP JUMP JUMPDEST PUSH1 0x8 PUSH1 0x0 SWAP1 SLOAD SWAP1 PUSH2 0x100 EXP SWAP1 DIV PUSH20 0xFFFFFFFFFFFFFFFFFFFFFFFFFFFFFFFFFFFFFFFF AND DUP2 JUMP JUMPDEST PUSH3 0x15180 DUP2 PUSH2 0x2809 SWAP2 SWAP1 PUSH2 0x342C JUMP JUMPDEST PUSH1 0xE DUP2 SWAP1 SSTORE POP POP JUMP JUMPDEST PUSH1 0x0 DUP1 PUSH2 0x281F DUP5 DUP5 PUSH2 0x2A44 JUMP JUMPDEST SWAP1 POP PUSH8 0xDE0B6B3A7640000 PUSH2 0x2848 DUP3 PUSH1 0x2 PUSH8 0xDE0B6B3A7640000 PUSH2 0x2843 SWAP2 SWAP1 PUSH2 0x33FB JUMP JUMPDEST PUSH2 0x2ABF JUMP JUMPDEST PUSH2 0x2852 SWAP2 SWAP1 PUSH2 0x33FB JUMP JUMPDEST SWAP2 POP POP SWAP3 SWAP2 POP POP JUMP JUMPDEST PUSH1 0x0 CALLER SWAP1 POP SWAP1 JUMP JUMPDEST PUSH1 0x0 DUP1 PUSH2 0x2878 DUP5 PUSH8 0xDE0B6B3A7640000 PUSH2 0x2A44 JUMP JUMPDEST SWAP1 POP DUP3 PUSH2 0x2891 DUP3 PUSH1 0x2 DUP7 PUSH2 0x288C SWAP2 SWAP1 PUSH2 0x33FB JUMP JUMPDEST PUSH2 0x2ABF JUMP JUMPDEST PUSH2 0x289B SWAP2 SWAP1 PUSH2 0x33FB JUMP JUMPDEST SWAP2 POP POP SWAP3 SWAP2 POP POP JUMP JUMPDEST PUSH1 0x0 DUP5 PUSH20 0xFFFFFFFFFFFFFFFFFFFFFFFFFFFFFFFFFFFFFFFF AND PUSH4 0x23B872DD DUP6 DUP6 DUP6 PUSH1 0x40 MLOAD DUP5 PUSH4 0xFFFFFFFF AND PUSH1 0xE0 SHL DUP2 MSTORE PUSH1 0x4 ADD PUSH2 0x28E3 SWAP4 SWAP3 SWAP2 SWAP1 PUSH2 0x30B3 JUMP JUMPDEST PUSH1 0x20 PUSH1 0x40 MLOAD DUP1 DUP4 SUB DUP2 PUSH1 0x0 DUP8 DUP1 EXTCODESIZE ISZERO DUP1 ISZERO PUSH2 0x28FD JUMPI PUSH1 0x0 DUP1 REVERT JUMPDEST POP GAS CALL ISZERO DUP1 ISZERO PUSH2 0x2911 JUMPI RETURNDATASIZE PUSH1 0x0 DUP1 RETURNDATACOPY RETURNDATASIZE PUSH1 0x0 REVERT JUMPDEST POP POP POP POP PUSH1 0x40 MLOAD RETURNDATASIZE PUSH1 0x1F NOT PUSH1 0x1F DUP3 ADD AND DUP3 ADD DUP1 PUSH1 0x40 MSTORE POP DUP2 ADD SWAP1 PUSH2 0x2935 SWAP2 SWAP1 PUSH2 0x2C6A JUMP JUMPDEST SWAP1 POP DUP1 PUSH2 0x2977 JUMPI PUSH1 0x40 MLOAD PUSH32 0x8C379A000000000000000000000000000000000000000000000000000000000 DUP2 MSTORE PUSH1 0x4 ADD PUSH2 0x296E SWAP1 PUSH2 0x3204 JUMP JUMPDEST PUSH1 0x40 MLOAD DUP1 SWAP2 SUB SWAP1 REVERT JUMPDEST POP POP POP POP POP JUMP JUMPDEST PUSH1 0x0 PUSH1 0x1 PUSH1 0x0 SWAP1 SLOAD SWAP1 PUSH2 0x100 EXP SWAP1 DIV PUSH20 0xFFFFFFFFFFFFFFFFFFFFFFFFFFFFFFFFFFFFFFFF AND SWAP1 POP DUP2 PUSH1 0x1 PUSH1 0x0 PUSH2 0x100 EXP DUP2 SLOAD DUP2 PUSH20 0xFFFFFFFFFFFFFFFFFFFFFFFFFFFFFFFFFFFFFFFF MUL NOT AND SWAP1 DUP4 PUSH20 0xFFFFFFFFFFFFFFFFFFFFFFFFFFFFFFFFFFFFFFFF AND MUL OR SWAP1 SSTORE POP DUP2 PUSH20 0xFFFFFFFFFFFFFFFFFFFFFFFFFFFFFFFFFFFFFFFF AND DUP2 PUSH20 0xFFFFFFFFFFFFFFFFFFFFFFFFFFFFFFFFFFFFFFFF AND PUSH32 0x8BE0079C531659141344CD1FD0A4F28419497F9722A3DAAFE3B4186F6B6457E0 PUSH1 0x40 MLOAD PUSH1 0x40 MLOAD DUP1 SWAP2 SUB SWAP1 LOG3 POP POP JUMP JUMPDEST PUSH1 0x0 DUP1 DUP4 EQ ISZERO PUSH2 0x2A57 JUMPI PUSH1 0x0 SWAP1 POP PUSH2 0x2AB9 JUMP JUMPDEST PUSH1 0x0 DUP3 DUP5 PUSH2 0x2A65 SWAP2 SWAP1 PUSH2 0x342C JUMP JUMPDEST SWAP1 POP DUP3 DUP5 DUP3 PUSH2 0x2A74 SWAP2 SWAP1 PUSH2 0x33FB JUMP JUMPDEST EQ PUSH2 0x2AB4 JUMPI PUSH1 0x40 MLOAD PUSH32 0x8C379A000000000000000000000000000000000000000000000000000000000 DUP2 MSTORE PUSH1 0x4 ADD PUSH2 0x2AAB SWAP1 PUSH2 0x32C4 JUMP JUMPDEST PUSH1 0x40 MLOAD DUP1 SWAP2 SUB SWAP1 REVERT JUMPDEST DUP1 SWAP2 POP POP JUMPDEST SWAP3 SWAP2 POP POP JUMP JUMPDEST PUSH1 0x0 DUP1 DUP3 DUP5 PUSH2 0x2ACE SWAP2 SWAP1 PUSH2 0x33A5 JUMP JUMPDEST SWAP1 POP DUP4 DUP2 LT ISZERO PUSH2 0x2B13 JUMPI PUSH1 0x40 MLOAD PUSH32 0x8C379A000000000000000000000000000000000000000000000000000000000 DUP2 MSTORE PUSH1 0x4 ADD PUSH2 0x2B0A SWAP1 PUSH2 0x32C4 JUMP JUMPDEST PUSH1 0x40 MLOAD DUP1 SWAP2 SUB SWAP1 REVERT JUMPDEST DUP1 SWAP2 POP POP SWAP3 SWAP2 POP POP JUMP JUMPDEST PUSH1 0x0 PUSH2 0x2B30 PUSH2 0x2B2B DUP5 PUSH2 0x334D JUMP JUMPDEST PUSH2 0x3328 JUMP JUMPDEST SWAP1 POP DUP3 DUP2 MSTORE PUSH1 0x20 DUP2 ADD DUP5 DUP5 DUP5 ADD GT ISZERO PUSH2 0x2B4C JUMPI PUSH2 0x2B4B PUSH2 0x36C9 JUMP JUMPDEST JUMPDEST PUSH2 0x2B57 DUP5 DUP3 DUP6 PUSH2 0x357B JUMP JUMPDEST POP SWAP4 SWAP3 POP POP POP JUMP JUMPDEST PUSH1 0x0 DUP2 CALLDATALOAD SWAP1 POP PUSH2 0x2B6E DUP2 PUSH2 0x38F5 JUMP JUMPDEST SWAP3 SWAP2 POP POP JUMP JUMPDEST PUSH1 0x0 DUP2 MLOAD SWAP1 POP PUSH2 0x2B83 DUP2 PUSH2 0x390C JUMP JUMPDEST SWAP3 SWAP2 POP POP JUMP JUMPDEST PUSH1 0x0 DUP3 PUSH1 0x1F DUP4 ADD SLT PUSH2 0x2B9E JUMPI PUSH2 0x2B9D PUSH2 0x36C4 JUMP JUMPDEST JUMPDEST DUP2 CALLDATALOAD PUSH2 0x2BAE DUP5 DUP3 PUSH1 0x20 DUP7 ADD PUSH2 0x2B1D JUMP JUMPDEST SWAP2 POP POP SWAP3 SWAP2 POP POP JUMP JUMPDEST PUSH1 0x0 DUP2 CALLDATALOAD SWAP1 POP PUSH2 0x2BC6 DUP2 PUSH2 0x3923 JUMP JUMPDEST SWAP3 SWAP2 POP POP JUMP JUMPDEST PUSH1 0x0 DUP2 MLOAD SWAP1 POP PUSH2 0x2BDB DUP2 PUSH2 0x3923 JUMP JUMPDEST SWAP3 SWAP2 POP POP JUMP JUMPDEST PUSH1 0x0 PUSH1 0x20 DUP3 DUP5 SUB SLT ISZERO PUSH2 0x2BF7 JUMPI PUSH2 0x2BF6 PUSH2 0x36D3 JUMP JUMPDEST JUMPDEST PUSH1 0x0 PUSH2 0x2C05 DUP5 DUP3 DUP6 ADD PUSH2 0x2B5F JUMP JUMPDEST SWAP2 POP POP SWAP3 SWAP2 POP POP JUMP JUMPDEST PUSH1 0x0 DUP1 PUSH1 0x40 DUP4 DUP6 SUB SLT ISZERO PUSH2 0x2C25 JUMPI PUSH2 0x2C24 PUSH2 0x36D3 JUMP JUMPDEST JUMPDEST PUSH1 0x0 PUSH2 0x2C33 DUP6 DUP3 DUP7 ADD PUSH2 0x2B5F JUMP JUMPDEST SWAP3 POP POP PUSH1 0x20 DUP4 ADD CALLDATALOAD PUSH8 0xFFFFFFFFFFFFFFFF DUP2 GT ISZERO PUSH2 0x2C54 JUMPI PUSH2 0x2C53 PUSH2 0x36CE JUMP JUMPDEST JUMPDEST PUSH2 0x2C60 DUP6 DUP3 DUP7 ADD PUSH2 0x2B89 JUMP JUMPDEST SWAP2 POP POP SWAP3 POP SWAP3 SWAP1 POP JUMP JUMPDEST PUSH1 0x0 PUSH1 0x20 DUP3 DUP5 SUB SLT ISZERO PUSH2 0x2C80 JUMPI PUSH2 0x2C7F PUSH2 0x36D3 JUMP JUMPDEST JUMPDEST PUSH1 0x0 PUSH2 0x2C8E DUP5 DUP3 DUP6 ADD PUSH2 0x2B74 JUMP JUMPDEST SWAP2 POP POP SWAP3 SWAP2 POP POP JUMP JUMPDEST PUSH1 0x0 PUSH1 0x20 DUP3 DUP5 SUB SLT ISZERO PUSH2 0x2CAD JUMPI PUSH2 0x2CAC PUSH2 0x36D3 JUMP JUMPDEST JUMPDEST PUSH1 0x0 DUP3 ADD CALLDATALOAD PUSH8 0xFFFFFFFFFFFFFFFF DUP2 GT ISZERO PUSH2 0x2CCB JUMPI PUSH2 0x2CCA PUSH2 0x36CE JUMP JUMPDEST JUMPDEST PUSH2 0x2CD7 DUP5 DUP3 DUP6 ADD PUSH2 0x2B89 JUMP JUMPDEST SWAP2 POP POP SWAP3 SWAP2 POP POP JUMP JUMPDEST PUSH1 0x0 DUP1 PUSH1 0x0 PUSH1 0x60 DUP5 DUP7 SUB SLT ISZERO PUSH2 0x2CF9 JUMPI PUSH2 0x2CF8 PUSH2 0x36D3 JUMP JUMPDEST JUMPDEST PUSH1 0x0 DUP5 ADD CALLDATALOAD PUSH8 0xFFFFFFFFFFFFFFFF DUP2 GT ISZERO PUSH2 0x2D17 JUMPI PUSH2 0x2D16 PUSH2 0x36CE JUMP JUMPDEST JUMPDEST PUSH2 0x2D23 DUP7 DUP3 DUP8 ADD PUSH2 0x2B89 JUMP JUMPDEST SWAP4 POP POP PUSH1 0x20 PUSH2 0x2D34 DUP7 DUP3 DUP8 ADD PUSH2 0x2B5F JUMP JUMPDEST SWAP3 POP POP PUSH1 0x40 PUSH2 0x2D45 DUP7 DUP3 DUP8 ADD PUSH2 0x2BB7 JUMP JUMPDEST SWAP2 POP POP SWAP3 POP SWAP3 POP SWAP3 JUMP JUMPDEST PUSH1 0x0 PUSH1 0x20 DUP3 DUP5 SUB SLT ISZERO PUSH2 0x2D65 JUMPI PUSH2 0x2D64 PUSH2 0x36D3 JUMP JUMPDEST JUMPDEST PUSH1 0x0 PUSH2 0x2D73 DUP5 DUP3 DUP6 ADD PUSH2 0x2BB7 JUMP JUMPDEST SWAP2 POP POP SWAP3 SWAP2 POP POP JUMP JUMPDEST PUSH1 0x0 PUSH1 0x20 DUP3 DUP5 SUB SLT ISZERO PUSH2 0x2D92 JUMPI PUSH2 0x2D91 PUSH2 0x36D3 JUMP JUMPDEST JUMPDEST PUSH1 0x0 PUSH2 0x2DA0 DUP5 DUP3 DUP6 ADD PUSH2 0x2BCC JUMP JUMPDEST SWAP2 POP POP SWAP3 SWAP2 POP POP JUMP JUMPDEST PUSH1 0x0 DUP1 PUSH1 0x40 DUP4 DUP6 SUB SLT ISZERO PUSH2 0x2DC0 JUMPI PUSH2 0x2DBF PUSH2 0x36D3 JUMP JUMPDEST JUMPDEST PUSH1 0x0 PUSH2 0x2DCE DUP6 DUP3 DUP7 ADD PUSH2 0x2BB7 JUMP JUMPDEST SWAP3 POP POP PUSH1 0x20 DUP4 ADD CALLDATALOAD PUSH8 0xFFFFFFFFFFFFFFFF DUP2 GT ISZERO PUSH2 0x2DEF JUMPI PUSH2 0x2DEE PUSH2 0x36CE JUMP JUMPDEST JUMPDEST PUSH2 0x2DFB DUP6 DUP3 DUP7 ADD PUSH2 0x2B89 JUMP JUMPDEST SWAP2 POP POP SWAP3 POP SWAP3 SWAP1 POP JUMP JUMPDEST PUSH1 0x0 DUP1 PUSH1 0x0 PUSH1 0x60 DUP5 DUP7 SUB SLT ISZERO PUSH2 0x2E1E JUMPI PUSH2 0x2E1D PUSH2 0x36D3 JUMP JUMPDEST JUMPDEST PUSH1 0x0 PUSH2 0x2E2C DUP7 DUP3 DUP8 ADD PUSH2 0x2BB7 JUMP JUMPDEST SWAP4 POP POP PUSH1 0x20 PUSH2 0x2E3D DUP7 DUP3 DUP8 ADD PUSH2 0x2BB7 JUMP JUMPDEST SWAP3 POP POP PUSH1 0x40 DUP5 ADD CALLDATALOAD PUSH8 0xFFFFFFFFFFFFFFFF DUP2 GT ISZERO PUSH2 0x2E5E JUMPI PUSH2 0x2E5D PUSH2 0x36CE JUMP JUMPDEST JUMPDEST PUSH2 0x2E6A DUP7 DUP3 DUP8 ADD PUSH2 0x2B89 JUMP JUMPDEST SWAP2 POP POP SWAP3 POP SWAP3 POP SWAP3 JUMP JUMPDEST PUSH2 0x2E7D DUP2 PUSH2 0x34BA JUMP JUMPDEST DUP3 MSTORE POP POP JUMP JUMPDEST PUSH2 0x2E8C DUP2 PUSH2 0x350F JUMP JUMPDEST DUP3 MSTORE POP POP JUMP JUMPDEST PUSH2 0x2E9B DUP2 PUSH2 0x34D8 JUMP JUMPDEST DUP3 MSTORE POP POP JUMP JUMPDEST PUSH2 0x2EAA DUP2 PUSH2 0x3521 JUMP JUMPDEST DUP3 MSTORE POP POP JUMP JUMPDEST PUSH2 0x2EB9 DUP2 PUSH2 0x3533 JUMP JUMPDEST DUP3 MSTORE POP POP JUMP JUMPDEST PUSH2 0x2EC8 DUP2 PUSH2 0x3545 JUMP JUMPDEST DUP3 MSTORE POP POP JUMP JUMPDEST PUSH1 0x0 PUSH2 0x2ED9 DUP3 PUSH2 0x337E JUMP JUMPDEST PUSH2 0x2EE3 DUP2 DUP6 PUSH2 0x339A JUMP JUMPDEST SWAP4 POP PUSH2 0x2EF3 DUP2 DUP6 PUSH1 0x20 DUP7 ADD PUSH2 0x358A JUMP JUMPDEST DUP1 DUP5 ADD SWAP2 POP POP SWAP3 SWAP2 POP POP JUMP JUMPDEST PUSH1 0x0 PUSH2 0x2F0C PUSH1 0x24 DUP4 PUSH2 0x3389 JUMP JUMPDEST SWAP2 POP PUSH2 0x2F17 DUP3 PUSH2 0x36E9 JUMP JUMPDEST PUSH1 0x40 DUP3 ADD SWAP1 POP SWAP2 SWAP1 POP JUMP JUMPDEST PUSH1 0x0 PUSH2 0x2F2F PUSH1 0x26 DUP4 PUSH2 0x3389 JUMP JUMPDEST SWAP2 POP PUSH2 0x2F3A DUP3 PUSH2 0x3738 JUMP JUMPDEST PUSH1 0x40 DUP3 ADD SWAP1 POP SWAP2 SWAP1 POP JUMP JUMPDEST PUSH1 0x0 PUSH2 0x2F52 PUSH1 0x15 DUP4 PUSH2 0x3389 JUMP JUMPDEST SWAP2 POP PUSH2 0x2F5D DUP3 PUSH2 0x3787 JUMP JUMPDEST PUSH1 0x20 DUP3 ADD SWAP1 POP SWAP2 SWAP1 POP JUMP JUMPDEST PUSH1 0x0 PUSH2 0x2F75 PUSH1 0x20 DUP4 PUSH2 0x3389 JUMP JUMPDEST SWAP2 POP PUSH2 0x2F80 DUP3 PUSH2 0x37B0 JUMP JUMPDEST PUSH1 0x20 DUP3 ADD SWAP1 POP SWAP2 SWAP1 POP JUMP JUMPDEST PUSH1 0x0 PUSH2 0x2F98 PUSH1 0x1A DUP4 PUSH2 0x3389 JUMP JUMPDEST SWAP2 POP PUSH2 0x2FA3 DUP3 PUSH2 0x37D9 JUMP JUMPDEST PUSH1 0x20 DUP3 ADD SWAP1 POP SWAP2 SWAP1 POP JUMP JUMPDEST PUSH1 0x0 PUSH2 0x2FBB PUSH1 0x15 DUP4 PUSH2 0x3389 JUMP JUMPDEST SWAP2 POP PUSH2 0x2FC6 DUP3 PUSH2 0x3802 JUMP JUMPDEST PUSH1 0x20 DUP3 ADD SWAP1 POP SWAP2 SWAP1 POP JUMP JUMPDEST PUSH1 0x0 PUSH2 0x2FDE PUSH1 0x4 DUP4 PUSH2 0x339A JUMP JUMPDEST SWAP2 POP PUSH2 0x2FE9 DUP3 PUSH2 0x382B JUMP JUMPDEST PUSH1 0x4 DUP3 ADD SWAP1 POP SWAP2 SWAP1 POP JUMP JUMPDEST PUSH1 0x0 PUSH2 0x3001 PUSH1 0xC DUP4 PUSH2 0x3389 JUMP JUMPDEST SWAP2 POP PUSH2 0x300C DUP3 PUSH2 0x3854 JUMP JUMPDEST PUSH1 0x20 DUP3 ADD SWAP1 POP SWAP2 SWAP1 POP JUMP JUMPDEST PUSH1 0x0 PUSH2 0x3024 PUSH1 0x1F DUP4 PUSH2 0x3389 JUMP JUMPDEST SWAP2 POP PUSH2 0x302F DUP3 PUSH2 0x387D JUMP JUMPDEST PUSH1 0x20 DUP3 ADD SWAP1 POP SWAP2 SWAP1 POP JUMP JUMPDEST PUSH1 0x0 PUSH2 0x3047 PUSH1 0x21 DUP4 PUSH2 0x3389 JUMP JUMPDEST SWAP2 POP PUSH2 0x3052 DUP3 PUSH2 0x38A6 JUMP JUMPDEST PUSH1 0x40 DUP3 ADD SWAP1 POP SWAP2 SWAP1 POP JUMP JUMPDEST PUSH2 0x3066 DUP2 PUSH2 0x3505 JUMP JUMPDEST DUP3 MSTORE POP POP JUMP JUMPDEST PUSH1 0x0 PUSH2 0x3078 DUP3 DUP5 PUSH2 0x2ECE JUMP JUMPDEST SWAP2 POP DUP2 SWAP1 POP SWAP3 SWAP2 POP POP JUMP JUMPDEST PUSH1 0x0 PUSH2 0x308E DUP3 PUSH2 0x2FD1 JUMP JUMPDEST SWAP2 POP DUP2 SWAP1 POP SWAP2 SWAP1 POP JUMP JUMPDEST PUSH1 0x0 PUSH1 0x20 DUP3 ADD SWAP1 POP PUSH2 0x30AD PUSH1 0x0 DUP4 ADD DUP5 PUSH2 0x2E74 JUMP JUMPDEST SWAP3 SWAP2 POP POP JUMP JUMPDEST PUSH1 0x0 PUSH1 0x60 DUP3 ADD SWAP1 POP PUSH2 0x30C8 PUSH1 0x0 DUP4 ADD DUP7 PUSH2 0x2E74 JUMP JUMPDEST PUSH2 0x30D5 PUSH1 0x20 DUP4 ADD DUP6 PUSH2 0x2E74 JUMP JUMPDEST PUSH2 0x30E2 PUSH1 0x40 DUP4 ADD DUP5 PUSH2 0x305D JUMP JUMPDEST SWAP5 SWAP4 POP POP POP POP JUMP JUMPDEST PUSH1 0x0 PUSH1 0x40 DUP3 ADD SWAP1 POP PUSH2 0x30FF PUSH1 0x0 DUP4 ADD DUP6 PUSH2 0x2E74 JUMP JUMPDEST PUSH2 0x310C PUSH1 0x20 DUP4 ADD DUP5 PUSH2 0x2EA1 JUMP JUMPDEST SWAP4 SWAP3 POP POP POP JUMP JUMPDEST PUSH1 0x0 PUSH1 0x40 DUP3 ADD SWAP1 POP PUSH2 0x3128 PUSH1 0x0 DUP4 ADD DUP6 PUSH2 0x2E74 JUMP JUMPDEST PUSH2 0x3135 PUSH1 0x20 DUP4 ADD DUP5 PUSH2 0x2EB0 JUMP JUMPDEST SWAP4 SWAP3 POP POP POP JUMP JUMPDEST PUSH1 0x0 PUSH1 0x40 DUP3 ADD SWAP1 POP PUSH2 0x3151 PUSH1 0x0 DUP4 ADD DUP6 PUSH2 0x2E74 JUMP JUMPDEST PUSH2 0x315E PUSH1 0x20 DUP4 ADD DUP5 PUSH2 0x2EBF JUMP JUMPDEST SWAP4 SWAP3 POP POP POP JUMP JUMPDEST PUSH1 0x0 PUSH1 0x40 DUP3 ADD SWAP1 POP PUSH2 0x317A PUSH1 0x0 DUP4 ADD DUP6 PUSH2 0x2E74 JUMP JUMPDEST PUSH2 0x3187 PUSH1 0x20 DUP4 ADD DUP5 PUSH2 0x305D JUMP JUMPDEST SWAP4 SWAP3 POP POP POP JUMP JUMPDEST PUSH1 0x0 PUSH1 0x20 DUP3 ADD SWAP1 POP PUSH2 0x31A3 PUSH1 0x0 DUP4 ADD DUP5 PUSH2 0x2E83 JUMP JUMPDEST SWAP3 SWAP2 POP POP JUMP JUMPDEST PUSH1 0x0 PUSH1 0x20 DUP3 ADD SWAP1 POP PUSH2 0x31BE PUSH1 0x0 DUP4 ADD DUP5 PUSH2 0x2E92 JUMP JUMPDEST SWAP3 SWAP2 POP POP JUMP JUMPDEST PUSH1 0x0 PUSH1 0x20 DUP3 ADD SWAP1 POP DUP2 DUP2 SUB PUSH1 0x0 DUP4 ADD MSTORE PUSH2 0x31DD DUP2 PUSH2 0x2EFF JUMP JUMPDEST SWAP1 POP SWAP2 SWAP1 POP JUMP JUMPDEST PUSH1 0x0 PUSH1 0x20 DUP3 ADD SWAP1 POP DUP2 DUP2 SUB PUSH1 0x0 DUP4 ADD MSTORE PUSH2 0x31FD DUP2 PUSH2 0x2F22 JUMP JUMPDEST SWAP1 POP SWAP2 SWAP1 POP JUMP JUMPDEST PUSH1 0x0 PUSH1 0x20 DUP3 ADD SWAP1 POP DUP2 DUP2 SUB PUSH1 0x0 DUP4 ADD MSTORE PUSH2 0x321D DUP2 PUSH2 0x2F45 JUMP JUMPDEST SWAP1 POP SWAP2 SWAP1 POP JUMP JUMPDEST PUSH1 0x0 PUSH1 0x20 DUP3 ADD SWAP1 POP DUP2 DUP2 SUB PUSH1 0x0 DUP4 ADD MSTORE PUSH2 0x323D DUP2 PUSH2 0x2F68 JUMP JUMPDEST SWAP1 POP SWAP2 SWAP1 POP JUMP JUMPDEST PUSH1 0x0 PUSH1 0x20 DUP3 ADD SWAP1 POP DUP2 DUP2 SUB PUSH1 0x0 DUP4 ADD MSTORE PUSH2 0x325D DUP2 PUSH2 0x2F8B JUMP JUMPDEST SWAP1 POP SWAP2 SWAP1 POP JUMP JUMPDEST PUSH1 0x0 PUSH1 0x20 DUP3 ADD SWAP1 POP DUP2 DUP2 SUB PUSH1 0x0 DUP4 ADD MSTORE PUSH2 0x327D DUP2 PUSH2 0x2FAE JUMP JUMPDEST SWAP1 POP SWAP2 SWAP1 POP JUMP JUMPDEST PUSH1 0x0 PUSH1 0x20 DUP3 ADD SWAP1 POP DUP2 DUP2 SUB PUSH1 0x0 DUP4 ADD MSTORE PUSH2 0x329D DUP2 PUSH2 0x2FF4 JUMP JUMPDEST SWAP1 POP SWAP2 SWAP1 POP JUMP JUMPDEST PUSH1 0x0 PUSH1 0x20 DUP3 ADD SWAP1 POP DUP2 DUP2 SUB PUSH1 0x0 DUP4 ADD MSTORE PUSH2 0x32BD DUP2 PUSH2 0x3017 JUMP JUMPDEST SWAP1 POP SWAP2 SWAP1 POP JUMP JUMPDEST PUSH1 0x0 PUSH1 0x20 DUP3 ADD SWAP1 POP DUP2 DUP2 SUB PUSH1 0x0 DUP4 ADD MSTORE PUSH2 0x32DD DUP2 PUSH2 0x303A JUMP JUMPDEST SWAP1 POP SWAP2 SWAP1 POP JUMP JUMPDEST PUSH1 0x0 PUSH1 0x20 DUP3 ADD SWAP1 POP PUSH2 0x32F9 PUSH1 0x0 DUP4 ADD DUP5 PUSH2 0x305D JUMP JUMPDEST SWAP3 SWAP2 POP POP JUMP JUMPDEST PUSH1 0x0 PUSH1 0x40 DUP3 ADD SWAP1 POP PUSH2 0x3314 PUSH1 0x0 DUP4 ADD DUP6 PUSH2 0x305D JUMP JUMPDEST PUSH2 0x3321 PUSH1 0x20 DUP4 ADD DUP5 PUSH2 0x305D JUMP JUMPDEST SWAP4 SWAP3 POP POP POP JUMP JUMPDEST PUSH1 0x0 PUSH2 0x3332 PUSH2 0x3343 JUMP JUMPDEST SWAP1 POP PUSH2 0x333E DUP3 DUP3 PUSH2 0x35BD JUMP JUMPDEST SWAP2 SWAP1 POP JUMP JUMPDEST PUSH1 0x0 PUSH1 0x40 MLOAD SWAP1 POP SWAP1 JUMP JUMPDEST PUSH1 0x0 PUSH8 0xFFFFFFFFFFFFFFFF DUP3 GT ISZERO PUSH2 0x3368 JUMPI PUSH2 0x3367 PUSH2 0x3695 JUMP JUMPDEST JUMPDEST PUSH2 0x3371 DUP3 PUSH2 0x36D8 JUMP JUMPDEST SWAP1 POP PUSH1 0x20 DUP2 ADD SWAP1 POP SWAP2 SWAP1 POP JUMP JUMPDEST PUSH1 0x0 DUP2 MLOAD SWAP1 POP SWAP2 SWAP1 POP JUMP JUMPDEST PUSH1 0x0 DUP3 DUP3 MSTORE PUSH1 0x20 DUP3 ADD SWAP1 POP SWAP3 SWAP2 POP POP JUMP JUMPDEST PUSH1 0x0 DUP2 SWAP1 POP SWAP3 SWAP2 POP POP JUMP JUMPDEST PUSH1 0x0 PUSH2 0x33B0 DUP3 PUSH2 0x3505 JUMP JUMPDEST SWAP2 POP PUSH2 0x33BB DUP4 PUSH2 0x3505 JUMP JUMPDEST SWAP3 POP DUP3 PUSH32 0xFFFFFFFFFFFFFFFFFFFFFFFFFFFFFFFFFFFFFFFFFFFFFFFFFFFFFFFFFFFFFFFF SUB DUP3 GT ISZERO PUSH2 0x33F0 JUMPI PUSH2 0x33EF PUSH2 0x3637 JUMP JUMPDEST JUMPDEST DUP3 DUP3 ADD SWAP1 POP SWAP3 SWAP2 POP POP JUMP JUMPDEST PUSH1 0x0 PUSH2 0x3406 DUP3 PUSH2 0x3505 JUMP JUMPDEST SWAP2 POP PUSH2 0x3411 DUP4 PUSH2 0x3505 JUMP JUMPDEST SWAP3 POP DUP3 PUSH2 0x3421 JUMPI PUSH2 0x3420 PUSH2 0x3666 JUMP JUMPDEST JUMPDEST DUP3 DUP3 DIV SWAP1 POP SWAP3 SWAP2 POP POP JUMP JUMPDEST PUSH1 0x0 PUSH2 0x3437 DUP3 PUSH2 0x3505 JUMP JUMPDEST SWAP2 POP PUSH2 0x3442 DUP4 PUSH2 0x3505 JUMP JUMPDEST SWAP3 POP DUP2 PUSH32 0xFFFFFFFFFFFFFFFFFFFFFFFFFFFFFFFFFFFFFFFFFFFFFFFFFFFFFFFFFFFFFFFF DIV DUP4 GT DUP3 ISZERO ISZERO AND ISZERO PUSH2 0x347B JUMPI PUSH2 0x347A PUSH2 0x3637 JUMP JUMPDEST JUMPDEST DUP3 DUP3 MUL SWAP1 POP SWAP3 SWAP2 POP POP JUMP JUMPDEST PUSH1 0x0 PUSH2 0x3491 DUP3 PUSH2 0x3505 JUMP JUMPDEST SWAP2 POP PUSH2 0x349C DUP4 PUSH2 0x3505 JUMP JUMPDEST SWAP3 POP DUP3 DUP3 LT ISZERO PUSH2 0x34AF JUMPI PUSH2 0x34AE PUSH2 0x3637 JUMP JUMPDEST JUMPDEST DUP3 DUP3 SUB SWAP1 POP SWAP3 SWAP2 POP POP JUMP JUMPDEST PUSH1 0x0 PUSH2 0x34C5 DUP3 PUSH2 0x34E5 JUMP JUMPDEST SWAP1 POP SWAP2 SWAP1 POP JUMP JUMPDEST PUSH1 0x0 DUP2 ISZERO ISZERO SWAP1 POP SWAP2 SWAP1 POP JUMP JUMPDEST PUSH1 0x0 DUP2 PUSH1 0xF SIGNEXTEND SWAP1 POP SWAP2 SWAP1 POP JUMP JUMPDEST PUSH1 0x0 PUSH20 0xFFFFFFFFFFFFFFFFFFFFFFFFFFFFFFFFFFFFFFFF DUP3 AND SWAP1 POP SWAP2 SWAP1 POP JUMP JUMPDEST PUSH1 0x0 DUP2 SWAP1 POP SWAP2 SWAP1 POP JUMP JUMPDEST PUSH1 0x0 PUSH2 0x351A DUP3 PUSH2 0x3557 JUMP JUMPDEST SWAP1 POP SWAP2 SWAP1 POP JUMP JUMPDEST PUSH1 0x0 PUSH2 0x352C DUP3 PUSH2 0x3505 JUMP JUMPDEST SWAP1 POP SWAP2 SWAP1 POP JUMP JUMPDEST PUSH1 0x0 PUSH2 0x353E DUP3 PUSH2 0x3505 JUMP JUMPDEST SWAP1 POP SWAP2 SWAP1 POP JUMP JUMPDEST PUSH1 0x0 PUSH2 0x3550 DUP3 PUSH2 0x3505 JUMP JUMPDEST SWAP1 POP SWAP2 SWAP1 POP JUMP JUMPDEST PUSH1 0x0 PUSH2 0x3562 DUP3 PUSH2 0x3569 JUMP JUMPDEST SWAP1 POP SWAP2 SWAP1 POP JUMP JUMPDEST PUSH1 0x0 PUSH2 0x3574 DUP3 PUSH2 0x34E5 JUMP JUMPDEST SWAP1 POP SWAP2 SWAP1 POP JUMP JUMPDEST DUP3 DUP2 DUP4 CALLDATACOPY PUSH1 0x0 DUP4 DUP4 ADD MSTORE POP POP POP JUMP JUMPDEST PUSH1 0x0 JUMPDEST DUP4 DUP2 LT ISZERO PUSH2 0x35A8 JUMPI DUP1 DUP3 ADD MLOAD DUP2 DUP5 ADD MSTORE PUSH1 0x20 DUP2 ADD SWAP1 POP PUSH2 0x358D JUMP JUMPDEST DUP4 DUP2 GT ISZERO PUSH2 0x35B7 JUMPI PUSH1 0x0 DUP5 DUP5 ADD MSTORE JUMPDEST POP POP POP POP JUMP JUMPDEST PUSH2 0x35C6 DUP3 PUSH2 0x36D8 JUMP JUMPDEST DUP2 ADD DUP2 DUP2 LT PUSH8 0xFFFFFFFFFFFFFFFF DUP3 GT OR ISZERO PUSH2 0x35E5 JUMPI PUSH2 0x35E4 PUSH2 0x3695 JUMP JUMPDEST JUMPDEST DUP1 PUSH1 0x40 MSTORE POP POP POP JUMP JUMPDEST PUSH1 0x0 PUSH2 0x35F9 DUP3 PUSH2 0x3505 JUMP JUMPDEST SWAP2 POP PUSH32 0xFFFFFFFFFFFFFFFFFFFFFFFFFFFFFFFFFFFFFFFFFFFFFFFFFFFFFFFFFFFFFFFF DUP3 EQ ISZERO PUSH2 0x362C JUMPI PUSH2 0x362B PUSH2 0x3637 JUMP JUMPDEST JUMPDEST PUSH1 0x1 DUP3 ADD SWAP1 POP SWAP2 SWAP1 POP JUMP JUMPDEST PUSH32 0x4E487B7100000000000000000000000000000000000000000000000000000000 PUSH1 0x0 MSTORE PUSH1 0x11 PUSH1 0x4 MSTORE PUSH1 0x24 PUSH1 0x0 REVERT JUMPDEST PUSH32 0x4E487B7100000000000000000000000000000000000000000000000000000000 PUSH1 0x0 MSTORE PUSH1 0x12 PUSH1 0x4 MSTORE PUSH1 0x24 PUSH1 0x0 REVERT JUMPDEST PUSH32 0x4E487B7100000000000000000000000000000000000000000000000000000000 PUSH1 0x0 MSTORE PUSH1 0x41 PUSH1 0x4 MSTORE PUSH1 0x24 PUSH1 0x0 REVERT JUMPDEST PUSH1 0x0 DUP1 REVERT JUMPDEST PUSH1 0x0 DUP1 REVERT JUMPDEST PUSH1 0x0 DUP1 REVERT JUMPDEST PUSH1 0x0 DUP1 REVERT JUMPDEST PUSH1 0x0 PUSH1 0x1F NOT PUSH1 0x1F DUP4 ADD AND SWAP1 POP SWAP2 SWAP1 POP JUMP JUMPDEST PUSH32 0x596F7520646F6E7420686176652074686174206D75636820746F207769746864 PUSH1 0x0 DUP3 ADD MSTORE PUSH32 0x7261772100000000000000000000000000000000000000000000000000000000 PUSH1 0x20 DUP3 ADD MSTORE POP JUMP JUMPDEST PUSH32 0x4F776E61626C653A206E6577206F776E657220697320746865207A65726F2061 PUSH1 0x0 DUP3 ADD MSTORE PUSH32 0x6464726573730000000000000000000000000000000000000000000000000000 PUSH1 0x20 DUP3 ADD MSTORE POP JUMP JUMPDEST PUSH32 0x546F6B656E207472616E73666572206661696C65640000000000000000000000 PUSH1 0x0 DUP3 ADD MSTORE POP JUMP JUMPDEST PUSH32 0x4F776E61626C653A2063616C6C6572206973206E6F7420746865206F776E6572 PUSH1 0x0 DUP3 ADD MSTORE POP JUMP JUMPDEST PUSH32 0x596F7520646F6E742068617665207468617420616D6F756E7421000000000000 PUSH1 0x0 DUP3 ADD MSTORE POP JUMP JUMPDEST PUSH32 0x506572207472616E73616374696F6E206C696D69740000000000000000000000 PUSH1 0x0 DUP3 ADD MSTORE POP JUMP JUMPDEST PUSH32 0x5553444300000000000000000000000000000000000000000000000000000000 PUSH1 0x0 DUP3 ADD MSTORE POP JUMP JUMPDEST PUSH32 0x4E6F7420756E6C6F636B65640000000000000000000000000000000000000000 PUSH1 0x0 DUP3 ADD MSTORE POP JUMP JUMPDEST PUSH32 0x5265656E7472616E637947756172643A207265656E7472616E742063616C6C00 PUSH1 0x0 DUP3 ADD MSTORE POP JUMP JUMPDEST PUSH32 0x75696E74206F766572666C6F772066726F6D206D756C7469706C69636174696F PUSH1 0x0 DUP3 ADD MSTORE PUSH32 0x6E00000000000000000000000000000000000000000000000000000000000000 PUSH1 0x20 DUP3 ADD MSTORE POP JUMP JUMPDEST PUSH2 0x38FE DUP2 PUSH2 0x34BA JUMP JUMPDEST DUP2 EQ PUSH2 0x3909 JUMPI PUSH1 0x0 DUP1 REVERT JUMPDEST POP JUMP JUMPDEST PUSH2 0x3915 DUP2 PUSH2 0x34CC JUMP JUMPDEST DUP2 EQ PUSH2 0x3920 JUMPI PUSH1 0x0 DUP1 REVERT JUMPDEST POP JUMP JUMPDEST PUSH2 0x392C DUP2 PUSH2 0x3505 JUMP JUMPDEST DUP2 EQ PUSH2 0x3937 JUMPI PUSH1 0x0 DUP1 REVERT JUMPDEST POP JUMP INVALID LOG2 PUSH5 0x6970667358 0x22 SLT KECCAK256 OR ADD 0xB4 CALLCODE 0xE7 0xAE 0x1F ADDRESS MLOAD GASPRICE PUSH30 0xF5BA8C96CC4ED9AE5D29BE6E30DE9400C7C854AE0064736F6C6343000807 STOP CALLER "
				},
				"gasEstimates": {
					"creation": {
						"codeDepositCost": "2940800",
						"executionCost": "infinite",
						"totalCost": "infinite"
					},
					"external": {
						"BTON()": "2645",
						"Launch()": "infinite",
						"SPTR()": "2668",
						"WAND()": "2711",
						"addStable(string,address,uint256)": "infinite",
						"buyScepter(uint256,string)": "infinite",
						"cashOutScepter(uint256,uint256,string)": "infinite",
						"circulatingSupplyXDays(uint256)": "infinite",
						"claimLockedUSDC(address,string)": "infinite",
						"daysInCalculation()": "2540",
						"devWalletAddr()": "2604",
						"getBackingPrice()": "infinite",
						"getBuyPrice()": "infinite",
						"getCircSupplyXDays()": "infinite",
						"getGrowthFactor()": "infinite",
						"getSellFactor()": "infinite",
						"getSellPrice()": "infinite",
						"getTokensBoughtXDays()": "infinite",
						"getTokensSoldXDays()": "infinite",
						"growthFactor()": "2495",
						"owner()": "2656",
						"renounceOwnership()": "30442",
						"res()": "2630",
						"riskTreasuryAddr()": "2605",
						"scepterTreasuryAddr()": "2669",
						"sellFactor()": "2518",
						"setDaysUsedInFactors(uint256)": "infinite",
						"sptrTreasuryBal()": "2518",
						"stableERC20Info(string)": "infinite",
						"testUpdatetimeLockedminus(uint256)": "infinite",
						"testUpdatetimeLockedplus(uint256)": "infinite",
						"testwallet()": "2602",
						"timeLaunched()": "2474",
						"tokenStable()": "2646",
						"tokensBoughtXDays(uint256)": "infinite",
						"tokensSoldXDays(uint256)": "infinite",
						"transferOwnership(address)": "30833",
						"transformScepterToBaton(uint256)": "infinite",
						"treasury1Addr()": "2646",
						"updateSPTRTreasuryBal()": "26957",
						"whitelist(address)": "3049",
						"withdrawStables(uint256)": "3067",
						"withheldWithdrawals(address)": "infinite"
					},
					"internal": {
						"_safeTransferFrom(contract IERC20,address,address,uint256)": "infinite",
						"add(uint256,uint256)": "infinite",
						"decDiv18(uint256,uint256)": "infinite",
						"decMul18(uint256,uint256)": "infinite",
						"div(uint256,uint256)": "infinite",
						"mintBaton(uint256)": "infinite",
						"mul(uint256,uint256)": "infinite",
						"sub(uint256,uint256)": "infinite"
					}
				},
				"methodIdentifiers": {
					"BTON()": "c0ca6fb4",
					"Launch()": "02ac8168",
					"SPTR()": "26ae486e",
					"WAND()": "d04d7908",
					"addStable(string,address,uint256)": "e5d98082",
					"buyScepter(uint256,string)": "862d1b35",
					"cashOutScepter(uint256,uint256,string)": "c0ce5889",
					"circulatingSupplyXDays(uint256)": "1a30e872",
					"claimLockedUSDC(address,string)": "bdad7f02",
					"daysInCalculation()": "67b48c91",
					"devWalletAddr()": "29982a32",
					"getBackingPrice()": "1f564a06",
					"getBuyPrice()": "018a25e8",
					"getCircSupplyXDays()": "0f65de3e",
					"getGrowthFactor()": "93f7b711",
					"getSellFactor()": "0ccaf04f",
					"getSellPrice()": "43d32e9c",
					"getTokensBoughtXDays()": "71cd58f9",
					"getTokensSoldXDays()": "d82eddf2",
					"growthFactor()": "ee620868",
					"owner()": "8da5cb5b",
					"renounceOwnership()": "715018a6",
					"res()": "6f10e285",
					"riskTreasuryAddr()": "047729b0",
					"scepterTreasuryAddr()": "c079d7f6",
					"sellFactor()": "cbff4617",
					"setDaysUsedInFactors(uint256)": "fc361443",
					"sptrTreasuryBal()": "66763319",
					"stableERC20Info(string)": "a475bf48",
					"testUpdatetimeLockedminus(uint256)": "164c8501",
					"testUpdatetimeLockedplus(uint256)": "67e927a8",
					"testwallet()": "eee05f5e",
					"timeLaunched()": "3c6eb17a",
					"tokenStable()": "7087a7a5",
					"tokensBoughtXDays(uint256)": "2a9f0fb1",
					"tokensSoldXDays(uint256)": "1514c976",
					"transferOwnership(address)": "f2fde38b",
					"transformScepterToBaton(uint256)": "1bc9cc45",
					"treasury1Addr()": "fbbb4589",
					"updateSPTRTreasuryBal()": "bcb3de54",
					"whitelist(address)": "9b19251a",
					"withdrawStables(uint256)": "39ad95d6",
					"withheldWithdrawals(address)": "12b2ed94"
				}
			},
			"storageLayout": {
				"storage": [
					{
						"astId": 137,
						"contract": "WandInstruments.sol:testSticks",
						"label": "_status",
						"offset": 0,
						"slot": "0",
						"type": "t_uint256"
					},
					{
						"astId": 29,
						"contract": "WandInstruments.sol:testSticks",
						"label": "_owner",
						"offset": 0,
						"slot": "1",
						"type": "t_address"
					},
					{
						"astId": 182,
						"contract": "WandInstruments.sol:testSticks",
						"label": "growthFactor",
						"offset": 0,
						"slot": "2",
						"type": "t_uint256"
					},
					{
						"astId": 184,
						"contract": "WandInstruments.sol:testSticks",
						"label": "sellFactor",
						"offset": 0,
						"slot": "3",
						"type": "t_uint256"
					},
					{
						"astId": 186,
						"contract": "WandInstruments.sol:testSticks",
						"label": "backingPrice",
						"offset": 0,
						"slot": "4",
						"type": "t_uint256"
					},
					{
						"astId": 188,
						"contract": "WandInstruments.sol:testSticks",
						"label": "scepterBuyPrice",
						"offset": 0,
						"slot": "5",
						"type": "t_uint256"
					},
					{
						"astId": 190,
						"contract": "WandInstruments.sol:testSticks",
						"label": "scepterSellPrice",
						"offset": 0,
						"slot": "6",
						"type": "t_uint256"
					},
					{
						"astId": 192,
						"contract": "WandInstruments.sol:testSticks",
						"label": "treasuryUSDC",
						"offset": 0,
						"slot": "7",
						"type": "t_uint256"
					},
					{
						"astId": 194,
						"contract": "WandInstruments.sol:testSticks",
						"label": "treasury1Addr",
						"offset": 0,
						"slot": "8",
						"type": "t_address"
					},
					{
						"astId": 196,
						"contract": "WandInstruments.sol:testSticks",
						"label": "scepterTreasuryAddr",
						"offset": 0,
						"slot": "9",
						"type": "t_address"
					},
					{
						"astId": 198,
						"contract": "WandInstruments.sol:testSticks",
						"label": "riskTreasuryAddr",
						"offset": 0,
						"slot": "10",
						"type": "t_address"
					},
					{
						"astId": 200,
						"contract": "WandInstruments.sol:testSticks",
						"label": "devWalletAddr",
						"offset": 0,
						"slot": "11",
						"type": "t_address"
					},
					{
						"astId": 202,
						"contract": "WandInstruments.sol:testSticks",
						"label": "sptrTreasuryBal",
						"offset": 0,
						"slot": "12",
						"type": "t_uint256"
					},
					{
						"astId": 204,
						"contract": "WandInstruments.sol:testSticks",
						"label": "timeLaunched",
						"offset": 0,
						"slot": "13",
						"type": "t_uint256"
					},
					{
						"astId": 206,
						"contract": "WandInstruments.sol:testSticks",
						"label": "daysInCalculation",
						"offset": 0,
						"slot": "14",
						"type": "t_uint256"
					},
					{
						"astId": 209,
						"contract": "WandInstruments.sol:testSticks",
						"label": "ft5daybought",
						"offset": 0,
						"slot": "15",
						"type": "t_uint256"
					},
					{
						"astId": 212,
						"contract": "WandInstruments.sol:testSticks",
						"label": "ft5daysold",
						"offset": 0,
						"slot": "16",
						"type": "t_uint256"
					},
					{
						"astId": 215,
						"contract": "WandInstruments.sol:testSticks",
						"label": "double5daytokens",
						"offset": 0,
						"slot": "17",
						"type": "t_uint256"
					},
					{
						"astId": 217,
						"contract": "WandInstruments.sol:testSticks",
						"label": "res",
						"offset": 0,
						"slot": "18",
						"type": "t_int128"
					},
					{
						"astId": 220,
						"contract": "WandInstruments.sol:testSticks",
						"label": "testwallet",
						"offset": 0,
						"slot": "19",
						"type": "t_address"
					},
					{
						"astId": 223,
						"contract": "WandInstruments.sol:testSticks",
						"label": "SPTR",
						"offset": 0,
						"slot": "20",
						"type": "t_contract(IERC20)1550"
					},
					{
						"astId": 226,
						"contract": "WandInstruments.sol:testSticks",
						"label": "WAND",
						"offset": 0,
						"slot": "21",
						"type": "t_contract(IERC20)1550"
					},
					{
						"astId": 229,
						"contract": "WandInstruments.sol:testSticks",
						"label": "BTON",
						"offset": 0,
						"slot": "22",
						"type": "t_contract(IERC20)1550"
					},
					{
						"astId": 232,
						"contract": "WandInstruments.sol:testSticks",
						"label": "tokenStable",
						"offset": 0,
						"slot": "23",
						"type": "t_contract(IERC20)1550"
					},
					{
						"astId": 236,
						"contract": "WandInstruments.sol:testSticks",
						"label": "tokensBoughtXDays",
						"offset": 0,
						"slot": "24",
						"type": "t_mapping(t_uint256,t_uint256)"
					},
					{
						"astId": 240,
						"contract": "WandInstruments.sol:testSticks",
						"label": "tokensSoldXDays",
						"offset": 0,
						"slot": "25",
						"type": "t_mapping(t_uint256,t_uint256)"
					},
					{
						"astId": 244,
						"contract": "WandInstruments.sol:testSticks",
						"label": "circulatingSupplyXDays",
						"offset": 0,
						"slot": "26",
						"type": "t_mapping(t_uint256,t_uint256)"
					},
					{
						"astId": 254,
						"contract": "WandInstruments.sol:testSticks",
						"label": "stableERC20Info",
						"offset": 0,
						"slot": "27",
						"type": "t_mapping(t_string_memory_ptr,t_struct(stableTokensParams)249_storage)"
					},
					{
						"astId": 264,
						"contract": "WandInstruments.sol:testSticks",
						"label": "withheldWithdrawals",
						"offset": 0,
						"slot": "28",
						"type": "t_mapping(t_address,t_struct(lockedamounts)259_storage)"
					}
				],
				"types": {
					"t_address": {
						"encoding": "inplace",
						"label": "address",
						"numberOfBytes": "20"
					},
					"t_contract(IERC20)1550": {
						"encoding": "inplace",
						"label": "contract IERC20",
						"numberOfBytes": "20"
					},
					"t_int128": {
						"encoding": "inplace",
						"label": "int128",
						"numberOfBytes": "16"
					},
					"t_mapping(t_address,t_struct(lockedamounts)259_storage)": {
						"encoding": "mapping",
						"key": "t_address",
						"label": "mapping(address => struct testSticks.lockedamounts)",
						"numberOfBytes": "32",
						"value": "t_struct(lockedamounts)259_storage"
					},
					"t_mapping(t_string_memory_ptr,t_struct(stableTokensParams)249_storage)": {
						"encoding": "mapping",
						"key": "t_string_memory_ptr",
						"label": "mapping(string => struct testSticks.stableTokensParams)",
						"numberOfBytes": "32",
						"value": "t_struct(stableTokensParams)249_storage"
					},
					"t_mapping(t_uint256,t_uint256)": {
						"encoding": "mapping",
						"key": "t_uint256",
						"label": "mapping(uint256 => uint256)",
						"numberOfBytes": "32",
						"value": "t_uint256"
					},
					"t_string_memory_ptr": {
						"encoding": "bytes",
						"label": "string",
						"numberOfBytes": "32"
					},
					"t_struct(lockedamounts)259_storage": {
						"encoding": "inplace",
						"label": "struct testSticks.lockedamounts",
						"members": [
							{
								"astId": 256,
								"contract": "WandInstruments.sol:testSticks",
								"label": "timeUnlocked",
								"offset": 0,
								"slot": "0",
								"type": "t_uint256"
							},
							{
								"astId": 258,
								"contract": "WandInstruments.sol:testSticks",
								"label": "amounts",
								"offset": 0,
								"slot": "1",
								"type": "t_uint256"
							}
						],
						"numberOfBytes": "64"
					},
					"t_struct(stableTokensParams)249_storage": {
						"encoding": "inplace",
						"label": "struct testSticks.stableTokensParams",
						"members": [
							{
								"astId": 246,
								"contract": "WandInstruments.sol:testSticks",
								"label": "contractAddress",
								"offset": 0,
								"slot": "0",
								"type": "t_address"
							},
							{
								"astId": 248,
								"contract": "WandInstruments.sol:testSticks",
								"label": "tokenDecimals",
								"offset": 0,
								"slot": "1",
								"type": "t_uint256"
							}
						],
						"numberOfBytes": "64"
					},
					"t_uint256": {
						"encoding": "inplace",
						"label": "uint256",
						"numberOfBytes": "32"
					}
				}
			},
			"userdoc": {
				"events": {
					"sceptersBought(address,uint256)": {
						"notice": "Events*"
					}
				},
				"kind": "user",
				"methods": {},
				"version": 1
			}
		}
	}
}