{
	"Wand.sol": {
		"WAND": {
			"abi": [
				{
					"inputs": [],
					"stateMutability": "nonpayable",
					"type": "constructor"
				},
				{
					"anonymous": false,
					"inputs": [
						{
							"indexed": true,
							"internalType": "address",
							"name": "owner",
							"type": "address"
						},
						{
							"indexed": true,
							"internalType": "address",
							"name": "spender",
							"type": "address"
						},
						{
							"indexed": false,
							"internalType": "uint256",
							"name": "value",
							"type": "uint256"
						}
					],
					"name": "Approval",
					"type": "event"
				},
				{
					"anonymous": false,
					"inputs": [
						{
							"indexed": true,
							"internalType": "address",
							"name": "previousOwner",
							"type": "address"
						},
						{
							"indexed": true,
							"internalType": "address",
							"name": "newOwner",
							"type": "address"
						}
					],
					"name": "OwnershipTransferred",
					"type": "event"
				},
				{
					"anonymous": false,
					"inputs": [
						{
							"indexed": true,
							"internalType": "address",
							"name": "from",
							"type": "address"
						},
						{
							"indexed": true,
							"internalType": "address",
							"name": "to",
							"type": "address"
						},
						{
							"indexed": false,
							"internalType": "uint256",
							"name": "value",
							"type": "uint256"
						}
					],
					"name": "Transfer",
					"type": "event"
				},
				{
					"inputs": [
						{
							"internalType": "address",
							"name": "controller",
							"type": "address"
						}
					],
					"name": "addController",
					"outputs": [],
					"stateMutability": "nonpayable",
					"type": "function"
				},
				{
					"inputs": [
						{
							"internalType": "address",
							"name": "owner",
							"type": "address"
						},
						{
							"internalType": "address",
							"name": "spender",
							"type": "address"
						}
					],
					"name": "allowance",
					"outputs": [
						{
							"internalType": "uint256",
							"name": "",
							"type": "uint256"
						}
					],
					"stateMutability": "view",
					"type": "function"
				},
				{
					"inputs": [
						{
							"internalType": "address",
							"name": "spender",
							"type": "address"
						},
						{
							"internalType": "uint256",
							"name": "amount",
							"type": "uint256"
						}
					],
					"name": "approve",
					"outputs": [
						{
							"internalType": "bool",
							"name": "",
							"type": "bool"
						}
					],
					"stateMutability": "nonpayable",
					"type": "function"
				},
				{
					"inputs": [
						{
							"internalType": "address",
							"name": "account",
							"type": "address"
						}
					],
					"name": "balanceOf",
					"outputs": [
						{
							"internalType": "uint256",
							"name": "",
							"type": "uint256"
						}
					],
					"stateMutability": "view",
					"type": "function"
				},
				{
					"inputs": [
						{
							"internalType": "address",
							"name": "from",
							"type": "address"
						},
						{
							"internalType": "uint256",
							"name": "amount",
							"type": "uint256"
						}
					],
					"name": "burn",
					"outputs": [],
					"stateMutability": "nonpayable",
					"type": "function"
				},
				{
					"inputs": [],
					"name": "decimals",
					"outputs": [
						{
							"internalType": "uint8",
							"name": "",
							"type": "uint8"
						}
					],
					"stateMutability": "view",
					"type": "function"
				},
				{
					"inputs": [
						{
							"internalType": "address",
							"name": "spender",
							"type": "address"
						},
						{
							"internalType": "uint256",
							"name": "subtractedValue",
							"type": "uint256"
						}
					],
					"name": "decreaseAllowance",
					"outputs": [
						{
							"internalType": "bool",
							"name": "",
							"type": "bool"
						}
					],
					"stateMutability": "nonpayable",
					"type": "function"
				},
				{
					"inputs": [
						{
							"internalType": "address",
							"name": "spender",
							"type": "address"
						},
						{
							"internalType": "uint256",
							"name": "addedValue",
							"type": "uint256"
						}
					],
					"name": "increaseAllowance",
					"outputs": [
						{
							"internalType": "bool",
							"name": "",
							"type": "bool"
						}
					],
					"stateMutability": "nonpayable",
					"type": "function"
				},
				{
					"inputs": [],
					"name": "name",
					"outputs": [
						{
							"internalType": "string",
							"name": "",
							"type": "string"
						}
					],
					"stateMutability": "view",
					"type": "function"
				},
				{
					"inputs": [],
					"name": "owner",
					"outputs": [
						{
							"internalType": "address",
							"name": "",
							"type": "address"
						}
					],
					"stateMutability": "view",
					"type": "function"
				},
				{
					"inputs": [
						{
							"internalType": "address",
							"name": "controller",
							"type": "address"
						}
					],
					"name": "removeController",
					"outputs": [],
					"stateMutability": "nonpayable",
					"type": "function"
				},
				{
					"inputs": [],
					"name": "renounceOwnership",
					"outputs": [],
					"stateMutability": "nonpayable",
					"type": "function"
				},
				{
					"inputs": [],
					"name": "symbol",
					"outputs": [
						{
							"internalType": "string",
							"name": "",
							"type": "string"
						}
					],
					"stateMutability": "view",
					"type": "function"
				},
				{
					"inputs": [],
					"name": "totalSupply",
					"outputs": [
						{
							"internalType": "uint256",
							"name": "",
							"type": "uint256"
						}
					],
					"stateMutability": "view",
					"type": "function"
				},
				{
					"inputs": [
						{
							"internalType": "address",
							"name": "recipient",
							"type": "address"
						},
						{
							"internalType": "uint256",
							"name": "amount",
							"type": "uint256"
						}
					],
					"name": "transfer",
					"outputs": [
						{
							"internalType": "bool",
							"name": "",
							"type": "bool"
						}
					],
					"stateMutability": "nonpayable",
					"type": "function"
				},
				{
					"inputs": [
						{
							"internalType": "address",
							"name": "sender",
							"type": "address"
						},
						{
							"internalType": "address",
							"name": "recipient",
							"type": "address"
						},
						{
							"internalType": "uint256",
							"name": "amount",
							"type": "uint256"
						}
					],
					"name": "transferFrom",
					"outputs": [
						{
							"internalType": "bool",
							"name": "",
							"type": "bool"
						}
					],
					"stateMutability": "nonpayable",
					"type": "function"
				},
				{
					"inputs": [
						{
							"internalType": "address",
							"name": "newOwner",
							"type": "address"
						}
					],
					"name": "transferOwnership",
					"outputs": [],
					"stateMutability": "nonpayable",
					"type": "function"
				},
				{
					"inputs": [],
					"name": "wandTotalSupply",
					"outputs": [
						{
							"internalType": "uint256",
							"name": "",
							"type": "uint256"
						}
					],
					"stateMutability": "view",
					"type": "function"
				}
			],
			"devdoc": {
				"kind": "dev",
				"methods": {
					"addController(address)": {
						"params": {
							"controller": "the address to enable"
						}
					},
					"allowance(address,address)": {
						"details": "See {IERC20-allowance}."
					},
					"approve(address,uint256)": {
						"details": "See {IERC20-approve}. Requirements: - `spender` cannot be the zero address."
					},
					"balanceOf(address)": {
						"details": "See {IERC20-balanceOf}."
					},
					"burn(address,uint256)": {
						"params": {
							"amount": "the amount of $Scepter to burn TODO: Each time a call is sent to burn $Scepter, the same call is sent to burn same amount of $Wand and mint the same amount of $Baton ",
							"from": "the holder of the $Scepter"
						}
					},
					"decimals()": {
						"details": "Returns the number of decimals used to get its user representation. For example, if `decimals` equals `2`, a balance of `505` tokens should be displayed to a user as `5.05` (`505 / 10 ** 2`). Tokens usually opt for a value of 18, imitating the relationship between Ether and Wei. This is the value {ERC20} uses, unless this function is overridden; NOTE: This information is only used for _display_ purposes: it in no way affects any of the arithmetic of the contract, including {IERC20-balanceOf} and {IERC20-transfer}."
					},
					"decreaseAllowance(address,uint256)": {
						"details": "Atomically decreases the allowance granted to `spender` by the caller. This is an alternative to {approve} that can be used as a mitigation for problems described in {IERC20-approve}. Emits an {Approval} event indicating the updated allowance. Requirements: - `spender` cannot be the zero address. - `spender` must have allowance for the caller of at least `subtractedValue`."
					},
					"increaseAllowance(address,uint256)": {
						"details": "Atomically increases the allowance granted to `spender` by the caller. This is an alternative to {approve} that can be used as a mitigation for problems described in {IERC20-approve}. Emits an {Approval} event indicating the updated allowance. Requirements: - `spender` cannot be the zero address."
					},
					"name()": {
						"details": "Returns the name of the token."
					},
					"owner()": {
						"details": "Returns the address of the current owner."
					},
					"removeController(address)": {
						"params": {
							"controller": "the address to disbale"
						}
					},
					"renounceOwnership()": {
						"details": "Leaves the contract without owner. It will not be possible to call `onlyOwner` functions anymore. Can only be called by the current owner. NOTE: Renouncing ownership will leave the contract without an owner, thereby removing any functionality that is only available to the owner."
					},
					"symbol()": {
						"details": "Returns the symbol of the token, usually a shorter version of the name."
					},
					"totalSupply()": {
						"details": "See {IERC20-totalSupply}."
					},
					"transfer(address,uint256)": {
						"details": "See {IERC20-transfer}. Requirements: - `recipient` cannot be the zero address. - the caller must have a balance of at least `amount`."
					},
					"transferFrom(address,address,uint256)": {
						"details": "See {IERC20-transferFrom}. Emits an {Approval} event indicating the updated allowance. This is not required by the EIP. See the note at the beginning of {ERC20}. Requirements: - `sender` and `recipient` cannot be the zero address. - `sender` must have a balance of at least `amount`. - the caller must have allowance for ``sender``'s tokens of at least `amount`."
					},
					"transferOwnership(address)": {
						"details": "Transfers ownership of the contract to a new account (`newOwner`). Can only be called by the current owner."
					}
				},
				"version": 1
			},
			"evm": {
				"assembly": "    /* \"Wand.sol\":10921:12612  contract WAND is ERC20, Ownable {\r... */\n  mstore(0x40, 0x80)\n    /* \"Wand.sol\":11080:11139  constructor() ERC20(\"Wand-Wand\", \"TWND\") {\r... */\n  callvalue\n  dup1\n  iszero\n  tag_1\n  jumpi\n  0x00\n  dup1\n  revert\ntag_1:\n  pop\n    /* \"Wand.sol\":772:888  constructor(string memory name_, string memory symbol_) {\r... */\n  mload(0x40)\n  dup1\n  0x40\n  add\n  0x40\n  mstore\n  dup1\n  0x09\n  dup2\n  mstore\n  0x20\n  add\n  0x57616e642d57616e640000000000000000000000000000000000000000000000\n  dup2\n  mstore\n  pop\n  mload(0x40)\n  dup1\n  0x40\n  add\n  0x40\n  mstore\n  dup1\n  0x04\n  dup2\n  mstore\n  0x20\n  add\n  0x54574e4400000000000000000000000000000000000000000000000000000000\n  dup2\n  mstore\n  pop\n    /* \"Wand.sol\":847:852  name_ */\n  dup2\n    /* \"Wand.sol\":839:844  _name */\n  0x03\n    /* \"Wand.sol\":839:852  _name = name_ */\n  swap1\n  dup1\n  mload\n  swap1\n  0x20\n  add\n  swap1\n  tag_6\n  swap3\n  swap2\n  swap1\n  tag_7\n  jump\t// in\ntag_6:\n  pop\n    /* \"Wand.sol\":873:880  symbol_ */\n  dup1\n    /* \"Wand.sol\":863:870  _symbol */\n  0x04\n    /* \"Wand.sol\":863:880  _symbol = symbol_ */\n  swap1\n  dup1\n  mload\n  swap1\n  0x20\n  add\n  swap1\n  tag_8\n  swap3\n  swap2\n  swap1\n  tag_7\n  jump\t// in\ntag_8:\n  pop\n    /* \"Wand.sol\":772:888  constructor(string memory name_, string memory symbol_) {\r... */\n  pop\n  pop\n    /* \"Ownable.sol\":914:946  _transferOwnership(_msgSender()) */\n  tag_10\n    /* \"Ownable.sol\":933:945  _msgSender() */\n  tag_11\n    /* \"Ownable.sol\":933:943  _msgSender */\n  shl(0x20, tag_12)\n    /* \"Ownable.sol\":933:945  _msgSender() */\n  0x20\n  shr\n  jump\t// in\ntag_11:\n    /* \"Ownable.sol\":914:932  _transferOwnership */\n  shl(0x20, tag_13)\n    /* \"Ownable.sol\":914:946  _transferOwnership(_msgSender()) */\n  0x20\n  shr\n  jump\t// in\ntag_10:\n    /* \"Wand.sol\":10921:12612  contract WAND is ERC20, Ownable {\r... */\n  jump(tag_15)\n    /* \"Context.sol\":640:736  function _msgSender() internal view virtual returns (address) {... */\ntag_12:\n    /* \"Context.sol\":693:700  address */\n  0x00\n    /* \"Context.sol\":719:729  msg.sender */\n  caller\n    /* \"Context.sol\":712:729  return msg.sender */\n  swap1\n  pop\n    /* \"Context.sol\":640:736  function _msgSender() internal view virtual returns (address) {... */\n  swap1\n  jump\t// out\n    /* \"Ownable.sol\":2263:2450  function _transferOwnership(address newOwner) internal virtual {... */\ntag_13:\n    /* \"Ownable.sol\":2336:2352  address oldOwner */\n  0x00\n    /* \"Ownable.sol\":2355:2361  _owner */\n  0x05\n  0x00\n  swap1\n  sload\n  swap1\n  0x0100\n  exp\n  swap1\n  div\n  0xffffffffffffffffffffffffffffffffffffffff\n  and\n    /* \"Ownable.sol\":2336:2361  address oldOwner = _owner */\n  swap1\n  pop\n    /* \"Ownable.sol\":2380:2388  newOwner */\n  dup2\n    /* \"Ownable.sol\":2371:2377  _owner */\n  0x05\n  0x00\n    /* \"Ownable.sol\":2371:2388  _owner = newOwner */\n  0x0100\n  exp\n  dup2\n  sload\n  dup2\n  0xffffffffffffffffffffffffffffffffffffffff\n  mul\n  not\n  and\n  swap1\n  dup4\n  0xffffffffffffffffffffffffffffffffffffffff\n  and\n  mul\n  or\n  swap1\n  sstore\n  pop\n    /* \"Ownable.sol\":2434:2442  newOwner */\n  dup2\n    /* \"Ownable.sol\":2403:2443  OwnershipTransferred(oldOwner, newOwner) */\n  0xffffffffffffffffffffffffffffffffffffffff\n  and\n    /* \"Ownable.sol\":2424:2432  oldOwner */\n  dup2\n    /* \"Ownable.sol\":2403:2443  OwnershipTransferred(oldOwner, newOwner) */\n  0xffffffffffffffffffffffffffffffffffffffff\n  and\n  0x8be0079c531659141344cd1fd0a4f28419497f9722a3daafe3b4186f6b6457e0\n  mload(0x40)\n  mload(0x40)\n  dup1\n  swap2\n  sub\n  swap1\n  log3\n    /* \"Ownable.sol\":2326:2450  {... */\n  pop\n    /* \"Ownable.sol\":2263:2450  function _transferOwnership(address newOwner) internal virtual {... */\n  pop\n  jump\t// out\n    /* \"Wand.sol\":10921:12612  contract WAND is ERC20, Ownable {\r... */\ntag_7:\n  dup3\n  dup1\n  sload\n  tag_18\n  swap1\n  tag_19\n  jump\t// in\ntag_18:\n  swap1\n  0x00\n  mstore\n  keccak256(0x00, 0x20)\n  swap1\n  0x1f\n  add\n  0x20\n  swap1\n  div\n  dup2\n  add\n  swap3\n  dup3\n  tag_21\n  jumpi\n  0x00\n  dup6\n  sstore\n  jump(tag_20)\ntag_21:\n  dup3\n  0x1f\n  lt\n  tag_22\n  jumpi\n  dup1\n  mload\n  not(0xff)\n  and\n  dup4\n  dup1\n  add\n  or\n  dup6\n  sstore\n  jump(tag_20)\ntag_22:\n  dup3\n  dup1\n  add\n  0x01\n  add\n  dup6\n  sstore\n  dup3\n  iszero\n  tag_20\n  jumpi\n  swap2\n  dup3\n  add\ntag_23:\n  dup3\n  dup2\n  gt\n  iszero\n  tag_24\n  jumpi\n  dup3\n  mload\n  dup3\n  sstore\n  swap2\n  0x20\n  add\n  swap2\n  swap1\n  0x01\n  add\n  swap1\n  jump(tag_23)\ntag_24:\ntag_20:\n  pop\n  swap1\n  pop\n  tag_25\n  swap2\n  swap1\n  tag_26\n  jump\t// in\ntag_25:\n  pop\n  swap1\n  jump\t// out\ntag_26:\ntag_27:\n  dup1\n  dup3\n  gt\n  iszero\n  tag_28\n  jumpi\n  0x00\n  dup2\n  0x00\n  swap1\n  sstore\n  pop\n  0x01\n  add\n  jump(tag_27)\ntag_28:\n  pop\n  swap1\n  jump\t// out\n    /* \"#utility.yul\":7:327   */\ntag_19:\n    /* \"#utility.yul\":51:57   */\n  0x00\n    /* \"#utility.yul\":88:89   */\n  0x02\n    /* \"#utility.yul\":82:86   */\n  dup3\n    /* \"#utility.yul\":78:90   */\n  div\n    /* \"#utility.yul\":68:90   */\n  swap1\n  pop\n    /* \"#utility.yul\":135:136   */\n  0x01\n    /* \"#utility.yul\":129:133   */\n  dup3\n    /* \"#utility.yul\":125:137   */\n  and\n    /* \"#utility.yul\":156:174   */\n  dup1\n    /* \"#utility.yul\":146:227   */\n  tag_31\n  jumpi\n    /* \"#utility.yul\":212:216   */\n  0x7f\n    /* \"#utility.yul\":204:210   */\n  dup3\n    /* \"#utility.yul\":200:217   */\n  and\n    /* \"#utility.yul\":190:217   */\n  swap2\n  pop\n    /* \"#utility.yul\":146:227   */\ntag_31:\n    /* \"#utility.yul\":274:276   */\n  0x20\n    /* \"#utility.yul\":266:272   */\n  dup3\n    /* \"#utility.yul\":263:277   */\n  lt\n    /* \"#utility.yul\":243:261   */\n  dup2\n    /* \"#utility.yul\":240:278   */\n  eq\n    /* \"#utility.yul\":237:321   */\n  iszero\n  tag_32\n  jumpi\n    /* \"#utility.yul\":293:311   */\n  tag_33\n  tag_34\n  jump\t// in\ntag_33:\n    /* \"#utility.yul\":237:321   */\ntag_32:\n    /* \"#utility.yul\":58:327   */\n  pop\n    /* \"#utility.yul\":7:327   */\n  swap2\n  swap1\n  pop\n  jump\t// out\n    /* \"#utility.yul\":333:513   */\ntag_34:\n    /* \"#utility.yul\":381:458   */\n  0x4e487b7100000000000000000000000000000000000000000000000000000000\n    /* \"#utility.yul\":378:379   */\n  0x00\n    /* \"#utility.yul\":371:459   */\n  mstore\n    /* \"#utility.yul\":478:482   */\n  0x22\n    /* \"#utility.yul\":475:476   */\n  0x04\n    /* \"#utility.yul\":468:483   */\n  mstore\n    /* \"#utility.yul\":502:506   */\n  0x24\n    /* \"#utility.yul\":499:500   */\n  0x00\n    /* \"#utility.yul\":492:507   */\n  revert\n    /* \"Wand.sol\":10921:12612  contract WAND is ERC20, Ownable {\r... */\ntag_15:\n  dataSize(sub_0)\n  dup1\n  dataOffset(sub_0)\n  0x00\n  codecopy\n  0x00\n  return\nstop\n\nsub_0: assembly {\n        /* \"Wand.sol\":10921:12612  contract WAND is ERC20, Ownable {\r... */\n      mstore(0x40, 0x80)\n      callvalue\n      dup1\n      iszero\n      tag_1\n      jumpi\n      0x00\n      dup1\n      revert\n    tag_1:\n      pop\n      jumpi(tag_2, lt(calldatasize, 0x04))\n      shr(0xe0, calldataload(0x00))\n      dup1\n      0x95d89b41\n      gt\n      tag_21\n      jumpi\n      dup1\n      0xa9059cbb\n      gt\n      tag_22\n      jumpi\n      dup1\n      0xa9059cbb\n      eq\n      tag_16\n      jumpi\n      dup1\n      0xdd62ed3e\n      eq\n      tag_17\n      jumpi\n      dup1\n      0xf2fde38b\n      eq\n      tag_18\n      jumpi\n      dup1\n      0xf6a74ed7\n      eq\n      tag_19\n      jumpi\n      dup1\n      0xf7425e4e\n      eq\n      tag_20\n      jumpi\n      jump(tag_2)\n    tag_22:\n      dup1\n      0x95d89b41\n      eq\n      tag_12\n      jumpi\n      dup1\n      0x9dc29fac\n      eq\n      tag_13\n      jumpi\n      dup1\n      0xa457c2d7\n      eq\n      tag_14\n      jumpi\n      dup1\n      0xa7fc7a07\n      eq\n      tag_15\n      jumpi\n      jump(tag_2)\n    tag_21:\n      dup1\n      0x313ce567\n      gt\n      tag_23\n      jumpi\n      dup1\n      0x313ce567\n      eq\n      tag_7\n      jumpi\n      dup1\n      0x39509351\n      eq\n      tag_8\n      jumpi\n      dup1\n      0x70a08231\n      eq\n      tag_9\n      jumpi\n      dup1\n      0x715018a6\n      eq\n      tag_10\n      jumpi\n      dup1\n      0x8da5cb5b\n      eq\n      tag_11\n      jumpi\n      jump(tag_2)\n    tag_23:\n      dup1\n      0x06fdde03\n      eq\n      tag_3\n      jumpi\n      dup1\n      0x095ea7b3\n      eq\n      tag_4\n      jumpi\n      dup1\n      0x18160ddd\n      eq\n      tag_5\n      jumpi\n      dup1\n      0x23b872dd\n      eq\n      tag_6\n      jumpi\n    tag_2:\n      0x00\n      dup1\n      revert\n        /* \"Wand.sol\":958:1058  function name() public view virtual override returns (string memory) {\r... */\n    tag_3:\n      tag_24\n      tag_25\n      jump\t// in\n    tag_24:\n      mload(0x40)\n      tag_26\n      swap2\n      swap1\n      tag_27\n      jump\t// in\n    tag_26:\n      mload(0x40)\n      dup1\n      swap2\n      sub\n      swap1\n      return\n        /* \"Wand.sol\":3125:3294  function approve(address spender, uint256 amount) public virtual override returns (bool) {\r... */\n    tag_4:\n      tag_28\n      0x04\n      dup1\n      calldatasize\n      sub\n      dup2\n      add\n      swap1\n      tag_29\n      swap2\n      swap1\n      tag_30\n      jump\t// in\n    tag_29:\n      tag_31\n      jump\t// in\n    tag_28:\n      mload(0x40)\n      tag_32\n      swap2\n      swap1\n      tag_33\n      jump\t// in\n    tag_32:\n      mload(0x40)\n      dup1\n      swap2\n      sub\n      swap1\n      return\n        /* \"Wand.sol\":2078:2186  function totalSupply() public view virtual override returns (uint256) {\r... */\n    tag_5:\n      tag_34\n      tag_35\n      jump\t// in\n    tag_34:\n      mload(0x40)\n      tag_36\n      swap2\n      swap1\n      tag_37\n      jump\t// in\n    tag_36:\n      mload(0x40)\n      dup1\n      swap2\n      sub\n      swap1\n      return\n        /* \"Wand.sol\":3776:4268  function transferFrom(\r... */\n    tag_6:\n      tag_38\n      0x04\n      dup1\n      calldatasize\n      sub\n      dup2\n      add\n      swap1\n      tag_39\n      swap2\n      swap1\n      tag_40\n      jump\t// in\n    tag_39:\n      tag_41\n      jump\t// in\n    tag_38:\n      mload(0x40)\n      tag_42\n      swap2\n      swap1\n      tag_33\n      jump\t// in\n    tag_42:\n      mload(0x40)\n      dup1\n      swap2\n      sub\n      swap1\n      return\n        /* \"Wand.sol\":1920:2013  function decimals() public view virtual override returns (uint8) {\r... */\n    tag_7:\n      tag_43\n      tag_44\n      jump\t// in\n    tag_43:\n      mload(0x40)\n      tag_45\n      swap2\n      swap1\n      tag_46\n      jump\t// in\n    tag_45:\n      mload(0x40)\n      dup1\n      swap2\n      sub\n      swap1\n      return\n        /* \"Wand.sol\":4677:4892  function increaseAllowance(address spender, uint256 addedValue) public virtual returns (bool) {\r... */\n    tag_8:\n      tag_47\n      0x04\n      dup1\n      calldatasize\n      sub\n      dup2\n      add\n      swap1\n      tag_48\n      swap2\n      swap1\n      tag_30\n      jump\t// in\n    tag_48:\n      tag_49\n      jump\t// in\n    tag_47:\n      mload(0x40)\n      tag_50\n      swap2\n      swap1\n      tag_33\n      jump\t// in\n    tag_50:\n      mload(0x40)\n      dup1\n      swap2\n      sub\n      swap1\n      return\n        /* \"Wand.sol\":2249:2376  function balanceOf(address account) public view virtual override returns (uint256) {\r... */\n    tag_9:\n      tag_51\n      0x04\n      dup1\n      calldatasize\n      sub\n      dup2\n      add\n      swap1\n      tag_52\n      swap2\n      swap1\n      tag_53\n      jump\t// in\n    tag_52:\n      tag_54\n      jump\t// in\n    tag_51:\n      mload(0x40)\n      tag_55\n      swap2\n      swap1\n      tag_37\n      jump\t// in\n    tag_55:\n      mload(0x40)\n      dup1\n      swap2\n      sub\n      swap1\n      return\n        /* \"Ownable.sol\":1661:1762  function renounceOwnership() public virtual onlyOwner {... */\n    tag_10:\n      tag_56\n      tag_57\n      jump\t// in\n    tag_56:\n      stop\n        /* \"Ownable.sol\":1029:1114  function owner() public view virtual returns (address) {... */\n    tag_11:\n      tag_58\n      tag_59\n      jump\t// in\n    tag_58:\n      mload(0x40)\n      tag_60\n      swap2\n      swap1\n      tag_61\n      jump\t// in\n    tag_60:\n      mload(0x40)\n      dup1\n      swap2\n      sub\n      swap1\n      return\n        /* \"Wand.sol\":1177:1281  function symbol() public view virtual override returns (string memory) {\r... */\n    tag_12:\n      tag_62\n      tag_63\n      jump\t// in\n    tag_62:\n      mload(0x40)\n      tag_64\n      swap2\n      swap1\n      tag_27\n      jump\t// in\n    tag_64:\n      mload(0x40)\n      dup1\n      swap2\n      sub\n      swap1\n      return\n        /* \"Wand.sol\":11856:12019  function burn(address from, uint256 amount) external {\r... */\n    tag_13:\n      tag_65\n      0x04\n      dup1\n      calldatasize\n      sub\n      dup2\n      add\n      swap1\n      tag_66\n      swap2\n      swap1\n      tag_30\n      jump\t// in\n    tag_66:\n      tag_67\n      jump\t// in\n    tag_65:\n      stop\n        /* \"Wand.sol\":5395:5808  function decreaseAllowance(address spender, uint256 subtractedValue) public virtual returns (bool) {\r... */\n    tag_14:\n      tag_68\n      0x04\n      dup1\n      calldatasize\n      sub\n      dup2\n      add\n      swap1\n      tag_69\n      swap2\n      swap1\n      tag_30\n      jump\t// in\n    tag_69:\n      tag_70\n      jump\t// in\n    tag_68:\n      mload(0x40)\n      tag_71\n      swap2\n      swap1\n      tag_33\n      jump\t// in\n    tag_71:\n      mload(0x40)\n      dup1\n      swap2\n      sub\n      swap1\n      return\n        /* \"Wand.sol\":12133:12244  function addController(address controller) external onlyOwner {\r... */\n    tag_15:\n      tag_72\n      0x04\n      dup1\n      calldatasize\n      sub\n      dup2\n      add\n      swap1\n      tag_73\n      swap2\n      swap1\n      tag_53\n      jump\t// in\n    tag_73:\n      tag_74\n      jump\t// in\n    tag_72:\n      stop\n        /* \"Wand.sol\":2589:2764  function transfer(address recipient, uint256 amount) public virtual override returns (bool) {\r... */\n    tag_16:\n      tag_75\n      0x04\n      dup1\n      calldatasize\n      sub\n      dup2\n      add\n      swap1\n      tag_76\n      swap2\n      swap1\n      tag_30\n      jump\t// in\n    tag_76:\n      tag_77\n      jump\t// in\n    tag_75:\n      mload(0x40)\n      tag_78\n      swap2\n      swap1\n      tag_33\n      jump\t// in\n    tag_78:\n      mload(0x40)\n      dup1\n      swap2\n      sub\n      swap1\n      return\n        /* \"Wand.sol\":2827:2978  function allowance(address owner, address spender) public view virtual override returns (uint256) {\r... */\n    tag_17:\n      tag_79\n      0x04\n      dup1\n      calldatasize\n      sub\n      dup2\n      add\n      swap1\n      tag_80\n      swap2\n      swap1\n      tag_81\n      jump\t// in\n    tag_80:\n      tag_82\n      jump\t// in\n    tag_79:\n      mload(0x40)\n      tag_83\n      swap2\n      swap1\n      tag_37\n      jump\t// in\n    tag_83:\n      mload(0x40)\n      dup1\n      swap2\n      sub\n      swap1\n      return\n        /* \"Ownable.sol\":1911:2109  function transferOwnership(address newOwner) public virtual onlyOwner {... */\n    tag_18:\n      tag_84\n      0x04\n      dup1\n      calldatasize\n      sub\n      dup2\n      add\n      swap1\n      tag_85\n      swap2\n      swap1\n      tag_53\n      jump\t// in\n    tag_85:\n      tag_86\n      jump\t// in\n    tag_84:\n      stop\n        /* \"Wand.sol\":12368:12483  function removeController(address controller) external onlyOwner {\r... */\n    tag_19:\n      tag_87\n      0x04\n      dup1\n      calldatasize\n      sub\n      dup2\n      add\n      swap1\n      tag_88\n      swap2\n      swap1\n      tag_53\n      jump\t// in\n    tag_88:\n      tag_89\n      jump\t// in\n    tag_87:\n      stop\n        /* \"Wand.sol\":12489:12590  function wandTotalSupply() external view returns (uint256){\r... */\n    tag_20:\n      tag_90\n      tag_91\n      jump\t// in\n    tag_90:\n      mload(0x40)\n      tag_92\n      swap2\n      swap1\n      tag_37\n      jump\t// in\n    tag_92:\n      mload(0x40)\n      dup1\n      swap2\n      sub\n      swap1\n      return\n        /* \"Wand.sol\":958:1058  function name() public view virtual override returns (string memory) {\r... */\n    tag_25:\n        /* \"Wand.sol\":1012:1025  string memory */\n      0x60\n        /* \"Wand.sol\":1045:1050  _name */\n      0x03\n        /* \"Wand.sol\":1038:1050  return _name */\n      dup1\n      sload\n      tag_94\n      swap1\n      tag_95\n      jump\t// in\n    tag_94:\n      dup1\n      0x1f\n      add\n      0x20\n      dup1\n      swap2\n      div\n      mul\n      0x20\n      add\n      mload(0x40)\n      swap1\n      dup2\n      add\n      0x40\n      mstore\n      dup1\n      swap3\n      swap2\n      swap1\n      dup2\n      dup2\n      mstore\n      0x20\n      add\n      dup3\n      dup1\n      sload\n      tag_96\n      swap1\n      tag_95\n      jump\t// in\n    tag_96:\n      dup1\n      iszero\n      tag_97\n      jumpi\n      dup1\n      0x1f\n      lt\n      tag_98\n      jumpi\n      0x0100\n      dup1\n      dup4\n      sload\n      div\n      mul\n      dup4\n      mstore\n      swap2\n      0x20\n      add\n      swap2\n      jump(tag_97)\n    tag_98:\n      dup3\n      add\n      swap2\n      swap1\n      0x00\n      mstore\n      keccak256(0x00, 0x20)\n      swap1\n    tag_99:\n      dup2\n      sload\n      dup2\n      mstore\n      swap1\n      0x01\n      add\n      swap1\n      0x20\n      add\n      dup1\n      dup4\n      gt\n      tag_99\n      jumpi\n      dup3\n      swap1\n      sub\n      0x1f\n      and\n      dup3\n      add\n      swap2\n    tag_97:\n      pop\n      pop\n      pop\n      pop\n      pop\n      swap1\n      pop\n        /* \"Wand.sol\":958:1058  function name() public view virtual override returns (string memory) {\r... */\n      swap1\n      jump\t// out\n        /* \"Wand.sol\":3125:3294  function approve(address spender, uint256 amount) public virtual override returns (bool) {\r... */\n    tag_31:\n        /* \"Wand.sol\":3208:3212  bool */\n      0x00\n        /* \"Wand.sol\":3225:3264  _approve(_msgSender(), spender, amount) */\n      tag_101\n        /* \"Wand.sol\":3234:3246  _msgSender() */\n      tag_102\n        /* \"Wand.sol\":3234:3244  _msgSender */\n      tag_103\n        /* \"Wand.sol\":3234:3246  _msgSender() */\n      jump\t// in\n    tag_102:\n        /* \"Wand.sol\":3248:3255  spender */\n      dup5\n        /* \"Wand.sol\":3257:3263  amount */\n      dup5\n        /* \"Wand.sol\":3225:3233  _approve */\n      tag_104\n        /* \"Wand.sol\":3225:3264  _approve(_msgSender(), spender, amount) */\n      jump\t// in\n    tag_101:\n        /* \"Wand.sol\":3282:3286  true */\n      0x01\n        /* \"Wand.sol\":3275:3286  return true */\n      swap1\n      pop\n        /* \"Wand.sol\":3125:3294  function approve(address spender, uint256 amount) public virtual override returns (bool) {\r... */\n      swap3\n      swap2\n      pop\n      pop\n      jump\t// out\n        /* \"Wand.sol\":2078:2186  function totalSupply() public view virtual override returns (uint256) {\r... */\n    tag_35:\n        /* \"Wand.sol\":2139:2146  uint256 */\n      0x00\n        /* \"Wand.sol\":2166:2178  _totalSupply */\n      sload(0x02)\n        /* \"Wand.sol\":2159:2178  return _totalSupply */\n      swap1\n      pop\n        /* \"Wand.sol\":2078:2186  function totalSupply() public view virtual override returns (uint256) {\r... */\n      swap1\n      jump\t// out\n        /* \"Wand.sol\":3776:4268  function transferFrom(\r... */\n    tag_41:\n        /* \"Wand.sol\":3916:3920  bool */\n      0x00\n        /* \"Wand.sol\":3933:3969  _transfer(sender, recipient, amount) */\n      tag_107\n        /* \"Wand.sol\":3943:3949  sender */\n      dup5\n        /* \"Wand.sol\":3951:3960  recipient */\n      dup5\n        /* \"Wand.sol\":3962:3968  amount */\n      dup5\n        /* \"Wand.sol\":3933:3942  _transfer */\n      tag_108\n        /* \"Wand.sol\":3933:3969  _transfer(sender, recipient, amount) */\n      jump\t// in\n    tag_107:\n        /* \"Wand.sol\":3982:4006  uint256 currentAllowance */\n      0x00\n        /* \"Wand.sol\":4009:4020  _allowances */\n      0x01\n        /* \"Wand.sol\":4009:4028  _allowances[sender] */\n      0x00\n        /* \"Wand.sol\":4021:4027  sender */\n      dup7\n        /* \"Wand.sol\":4009:4028  _allowances[sender] */\n      0xffffffffffffffffffffffffffffffffffffffff\n      and\n      0xffffffffffffffffffffffffffffffffffffffff\n      and\n      dup2\n      mstore\n      0x20\n      add\n      swap1\n      dup2\n      mstore\n      0x20\n      add\n      0x00\n      keccak256\n        /* \"Wand.sol\":4009:4042  _allowances[sender][_msgSender()] */\n      0x00\n        /* \"Wand.sol\":4029:4041  _msgSender() */\n      tag_109\n        /* \"Wand.sol\":4029:4039  _msgSender */\n      tag_103\n        /* \"Wand.sol\":4029:4041  _msgSender() */\n      jump\t// in\n    tag_109:\n        /* \"Wand.sol\":4009:4042  _allowances[sender][_msgSender()] */\n      0xffffffffffffffffffffffffffffffffffffffff\n      and\n      0xffffffffffffffffffffffffffffffffffffffff\n      and\n      dup2\n      mstore\n      0x20\n      add\n      swap1\n      dup2\n      mstore\n      0x20\n      add\n      0x00\n      keccak256\n      sload\n        /* \"Wand.sol\":3982:4042  uint256 currentAllowance = _allowances[sender][_msgSender()] */\n      swap1\n      pop\n        /* \"Wand.sol\":4081:4087  amount */\n      dup3\n        /* \"Wand.sol\":4061:4077  currentAllowance */\n      dup2\n        /* \"Wand.sol\":4061:4087  currentAllowance >= amount */\n      lt\n      iszero\n        /* \"Wand.sol\":4053:4132  require(currentAllowance >= amount, \"ERC20: transfer amount exceeds allowance\") */\n      tag_110\n      jumpi\n      mload(0x40)\n      0x08c379a000000000000000000000000000000000000000000000000000000000\n      dup2\n      mstore\n      0x04\n      add\n      tag_111\n      swap1\n      tag_112\n      jump\t// in\n    tag_111:\n      mload(0x40)\n      dup1\n      swap2\n      sub\n      swap1\n      revert\n    tag_110:\n        /* \"Wand.sol\":4168:4225  _approve(sender, _msgSender(), currentAllowance - amount) */\n      tag_113\n        /* \"Wand.sol\":4177:4183  sender */\n      dup6\n        /* \"Wand.sol\":4185:4197  _msgSender() */\n      tag_114\n        /* \"Wand.sol\":4185:4195  _msgSender */\n      tag_103\n        /* \"Wand.sol\":4185:4197  _msgSender() */\n      jump\t// in\n    tag_114:\n        /* \"Wand.sol\":4218:4224  amount */\n      dup6\n        /* \"Wand.sol\":4199:4215  currentAllowance */\n      dup5\n        /* \"Wand.sol\":4199:4224  currentAllowance - amount */\n      sub\n        /* \"Wand.sol\":4168:4176  _approve */\n      tag_104\n        /* \"Wand.sol\":4168:4225  _approve(sender, _msgSender(), currentAllowance - amount) */\n      jump\t// in\n    tag_113:\n        /* \"Wand.sol\":4256:4260  true */\n      0x01\n        /* \"Wand.sol\":4249:4260  return true */\n      swap2\n      pop\n      pop\n        /* \"Wand.sol\":3776:4268  function transferFrom(\r... */\n      swap4\n      swap3\n      pop\n      pop\n      pop\n      jump\t// out\n        /* \"Wand.sol\":1920:2013  function decimals() public view virtual override returns (uint8) {\r... */\n    tag_44:\n        /* \"Wand.sol\":1978:1983  uint8 */\n      0x00\n        /* \"Wand.sol\":2003:2005  18 */\n      0x12\n        /* \"Wand.sol\":1996:2005  return 18 */\n      swap1\n      pop\n        /* \"Wand.sol\":1920:2013  function decimals() public view virtual override returns (uint8) {\r... */\n      swap1\n      jump\t// out\n        /* \"Wand.sol\":4677:4892  function increaseAllowance(address spender, uint256 addedValue) public virtual returns (bool) {\r... */\n    tag_49:\n        /* \"Wand.sol\":4765:4769  bool */\n      0x00\n        /* \"Wand.sol\":4782:4862  _approve(_msgSender(), spender, _allowances[_msgSender()][spender] + addedValue) */\n      tag_117\n        /* \"Wand.sol\":4791:4803  _msgSender() */\n      tag_118\n        /* \"Wand.sol\":4791:4801  _msgSender */\n      tag_103\n        /* \"Wand.sol\":4791:4803  _msgSender() */\n      jump\t// in\n    tag_118:\n        /* \"Wand.sol\":4805:4812  spender */\n      dup5\n        /* \"Wand.sol\":4851:4861  addedValue */\n      dup5\n        /* \"Wand.sol\":4814:4825  _allowances */\n      0x01\n        /* \"Wand.sol\":4814:4839  _allowances[_msgSender()] */\n      0x00\n        /* \"Wand.sol\":4826:4838  _msgSender() */\n      tag_119\n        /* \"Wand.sol\":4826:4836  _msgSender */\n      tag_103\n        /* \"Wand.sol\":4826:4838  _msgSender() */\n      jump\t// in\n    tag_119:\n        /* \"Wand.sol\":4814:4839  _allowances[_msgSender()] */\n      0xffffffffffffffffffffffffffffffffffffffff\n      and\n      0xffffffffffffffffffffffffffffffffffffffff\n      and\n      dup2\n      mstore\n      0x20\n      add\n      swap1\n      dup2\n      mstore\n      0x20\n      add\n      0x00\n      keccak256\n        /* \"Wand.sol\":4814:4848  _allowances[_msgSender()][spender] */\n      0x00\n        /* \"Wand.sol\":4840:4847  spender */\n      dup9\n        /* \"Wand.sol\":4814:4848  _allowances[_msgSender()][spender] */\n      0xffffffffffffffffffffffffffffffffffffffff\n      and\n      0xffffffffffffffffffffffffffffffffffffffff\n      and\n      dup2\n      mstore\n      0x20\n      add\n      swap1\n      dup2\n      mstore\n      0x20\n      add\n      0x00\n      keccak256\n      sload\n        /* \"Wand.sol\":4814:4861  _allowances[_msgSender()][spender] + addedValue */\n      tag_120\n      swap2\n      swap1\n      tag_121\n      jump\t// in\n    tag_120:\n        /* \"Wand.sol\":4782:4790  _approve */\n      tag_104\n        /* \"Wand.sol\":4782:4862  _approve(_msgSender(), spender, _allowances[_msgSender()][spender] + addedValue) */\n      jump\t// in\n    tag_117:\n        /* \"Wand.sol\":4880:4884  true */\n      0x01\n        /* \"Wand.sol\":4873:4884  return true */\n      swap1\n      pop\n        /* \"Wand.sol\":4677:4892  function increaseAllowance(address spender, uint256 addedValue) public virtual returns (bool) {\r... */\n      swap3\n      swap2\n      pop\n      pop\n      jump\t// out\n        /* \"Wand.sol\":2249:2376  function balanceOf(address account) public view virtual override returns (uint256) {\r... */\n    tag_54:\n        /* \"Wand.sol\":2323:2330  uint256 */\n      0x00\n        /* \"Wand.sol\":2350:2359  _balances */\n      dup1\n        /* \"Wand.sol\":2350:2368  _balances[account] */\n      0x00\n        /* \"Wand.sol\":2360:2367  account */\n      dup4\n        /* \"Wand.sol\":2350:2368  _balances[account] */\n      0xffffffffffffffffffffffffffffffffffffffff\n      and\n      0xffffffffffffffffffffffffffffffffffffffff\n      and\n      dup2\n      mstore\n      0x20\n      add\n      swap1\n      dup2\n      mstore\n      0x20\n      add\n      0x00\n      keccak256\n      sload\n        /* \"Wand.sol\":2343:2368  return _balances[account] */\n      swap1\n      pop\n        /* \"Wand.sol\":2249:2376  function balanceOf(address account) public view virtual override returns (uint256) {\r... */\n      swap2\n      swap1\n      pop\n      jump\t// out\n        /* \"Ownable.sol\":1661:1762  function renounceOwnership() public virtual onlyOwner {... */\n    tag_57:\n        /* \"Ownable.sol\":1252:1264  _msgSender() */\n      tag_124\n        /* \"Ownable.sol\":1252:1262  _msgSender */\n      tag_103\n        /* \"Ownable.sol\":1252:1264  _msgSender() */\n      jump\t// in\n    tag_124:\n        /* \"Ownable.sol\":1241:1264  owner() == _msgSender() */\n      0xffffffffffffffffffffffffffffffffffffffff\n      and\n        /* \"Ownable.sol\":1241:1248  owner() */\n      tag_125\n        /* \"Ownable.sol\":1241:1246  owner */\n      tag_59\n        /* \"Ownable.sol\":1241:1248  owner() */\n      jump\t// in\n    tag_125:\n        /* \"Ownable.sol\":1241:1264  owner() == _msgSender() */\n      0xffffffffffffffffffffffffffffffffffffffff\n      and\n      eq\n        /* \"Ownable.sol\":1233:1301  require(owner() == _msgSender(), \"Ownable: caller is not the owner\") */\n      tag_126\n      jumpi\n      mload(0x40)\n      0x08c379a000000000000000000000000000000000000000000000000000000000\n      dup2\n      mstore\n      0x04\n      add\n      tag_127\n      swap1\n      tag_128\n      jump\t// in\n    tag_127:\n      mload(0x40)\n      dup1\n      swap2\n      sub\n      swap1\n      revert\n    tag_126:\n        /* \"Ownable.sol\":1725:1755  _transferOwnership(address(0)) */\n      tag_130\n        /* \"Ownable.sol\":1752:1753  0 */\n      0x00\n        /* \"Ownable.sol\":1725:1743  _transferOwnership */\n      tag_131\n        /* \"Ownable.sol\":1725:1755  _transferOwnership(address(0)) */\n      jump\t// in\n    tag_130:\n        /* \"Ownable.sol\":1661:1762  function renounceOwnership() public virtual onlyOwner {... */\n      jump\t// out\n        /* \"Ownable.sol\":1029:1114  function owner() public view virtual returns (address) {... */\n    tag_59:\n        /* \"Ownable.sol\":1075:1082  address */\n      0x00\n        /* \"Ownable.sol\":1101:1107  _owner */\n      0x05\n      0x00\n      swap1\n      sload\n      swap1\n      0x0100\n      exp\n      swap1\n      div\n      0xffffffffffffffffffffffffffffffffffffffff\n      and\n        /* \"Ownable.sol\":1094:1107  return _owner */\n      swap1\n      pop\n        /* \"Ownable.sol\":1029:1114  function owner() public view virtual returns (address) {... */\n      swap1\n      jump\t// out\n        /* \"Wand.sol\":1177:1281  function symbol() public view virtual override returns (string memory) {\r... */\n    tag_63:\n        /* \"Wand.sol\":1233:1246  string memory */\n      0x60\n        /* \"Wand.sol\":1266:1273  _symbol */\n      0x04\n        /* \"Wand.sol\":1259:1273  return _symbol */\n      dup1\n      sload\n      tag_134\n      swap1\n      tag_95\n      jump\t// in\n    tag_134:\n      dup1\n      0x1f\n      add\n      0x20\n      dup1\n      swap2\n      div\n      mul\n      0x20\n      add\n      mload(0x40)\n      swap1\n      dup2\n      add\n      0x40\n      mstore\n      dup1\n      swap3\n      swap2\n      swap1\n      dup2\n      dup2\n      mstore\n      0x20\n      add\n      dup3\n      dup1\n      sload\n      tag_135\n      swap1\n      tag_95\n      jump\t// in\n    tag_135:\n      dup1\n      iszero\n      tag_136\n      jumpi\n      dup1\n      0x1f\n      lt\n      tag_137\n      jumpi\n      0x0100\n      dup1\n      dup4\n      sload\n      div\n      mul\n      dup4\n      mstore\n      swap2\n      0x20\n      add\n      swap2\n      jump(tag_136)\n    tag_137:\n      dup3\n      add\n      swap2\n      swap1\n      0x00\n      mstore\n      keccak256(0x00, 0x20)\n      swap1\n    tag_138:\n      dup2\n      sload\n      dup2\n      mstore\n      swap1\n      0x01\n      add\n      swap1\n      0x20\n      add\n      dup1\n      dup4\n      gt\n      tag_138\n      jumpi\n      dup3\n      swap1\n      sub\n      0x1f\n      and\n      dup3\n      add\n      swap2\n    tag_136:\n      pop\n      pop\n      pop\n      pop\n      pop\n      swap1\n      pop\n        /* \"Wand.sol\":1177:1281  function symbol() public view virtual override returns (string memory) {\r... */\n      swap1\n      jump\t// out\n        /* \"Wand.sol\":11856:12019  function burn(address from, uint256 amount) external {\r... */\n    tag_67:\n        /* \"Wand.sol\":11928:11939  controllers */\n      0x06\n        /* \"Wand.sol\":11928:11951  controllers[msg.sender] */\n      0x00\n        /* \"Wand.sol\":11940:11950  msg.sender */\n      caller\n        /* \"Wand.sol\":11928:11951  controllers[msg.sender] */\n      0xffffffffffffffffffffffffffffffffffffffff\n      and\n      0xffffffffffffffffffffffffffffffffffffffff\n      and\n      dup2\n      mstore\n      0x20\n      add\n      swap1\n      dup2\n      mstore\n      0x20\n      add\n      0x00\n      keccak256\n      0x00\n      swap1\n      sload\n      swap1\n      0x0100\n      exp\n      swap1\n      div\n      0xff\n      and\n        /* \"Wand.sol\":11920:11981  require(controllers[msg.sender], \"Only controllers can burn\") */\n      tag_140\n      jumpi\n      mload(0x40)\n      0x08c379a000000000000000000000000000000000000000000000000000000000\n      dup2\n      mstore\n      0x04\n      add\n      tag_141\n      swap1\n      tag_142\n      jump\t// in\n    tag_141:\n      mload(0x40)\n      dup1\n      swap2\n      sub\n      swap1\n      revert\n    tag_140:\n        /* \"Wand.sol\":11992:12011  _burn(from, amount) */\n      tag_143\n        /* \"Wand.sol\":11998:12002  from */\n      dup3\n        /* \"Wand.sol\":12004:12010  amount */\n      dup3\n        /* \"Wand.sol\":11992:11997  _burn */\n      tag_144\n        /* \"Wand.sol\":11992:12011  _burn(from, amount) */\n      jump\t// in\n    tag_143:\n        /* \"Wand.sol\":11856:12019  function burn(address from, uint256 amount) external {\r... */\n      pop\n      pop\n      jump\t// out\n        /* \"Wand.sol\":5395:5808  function decreaseAllowance(address spender, uint256 subtractedValue) public virtual returns (bool) {\r... */\n    tag_70:\n        /* \"Wand.sol\":5488:5492  bool */\n      0x00\n        /* \"Wand.sol\":5505:5529  uint256 currentAllowance */\n      dup1\n        /* \"Wand.sol\":5532:5543  _allowances */\n      0x01\n        /* \"Wand.sol\":5532:5557  _allowances[_msgSender()] */\n      0x00\n        /* \"Wand.sol\":5544:5556  _msgSender() */\n      tag_146\n        /* \"Wand.sol\":5544:5554  _msgSender */\n      tag_103\n        /* \"Wand.sol\":5544:5556  _msgSender() */\n      jump\t// in\n    tag_146:\n        /* \"Wand.sol\":5532:5557  _allowances[_msgSender()] */\n      0xffffffffffffffffffffffffffffffffffffffff\n      and\n      0xffffffffffffffffffffffffffffffffffffffff\n      and\n      dup2\n      mstore\n      0x20\n      add\n      swap1\n      dup2\n      mstore\n      0x20\n      add\n      0x00\n      keccak256\n        /* \"Wand.sol\":5532:5566  _allowances[_msgSender()][spender] */\n      0x00\n        /* \"Wand.sol\":5558:5565  spender */\n      dup6\n        /* \"Wand.sol\":5532:5566  _allowances[_msgSender()][spender] */\n      0xffffffffffffffffffffffffffffffffffffffff\n      and\n      0xffffffffffffffffffffffffffffffffffffffff\n      and\n      dup2\n      mstore\n      0x20\n      add\n      swap1\n      dup2\n      mstore\n      0x20\n      add\n      0x00\n      keccak256\n      sload\n        /* \"Wand.sol\":5505:5566  uint256 currentAllowance = _allowances[_msgSender()][spender] */\n      swap1\n      pop\n        /* \"Wand.sol\":5605:5620  subtractedValue */\n      dup3\n        /* \"Wand.sol\":5585:5601  currentAllowance */\n      dup2\n        /* \"Wand.sol\":5585:5620  currentAllowance >= subtractedValue */\n      lt\n      iszero\n        /* \"Wand.sol\":5577:5662  require(currentAllowance >= subtractedValue, \"ERC20: decreased allowance below zero\") */\n      tag_147\n      jumpi\n      mload(0x40)\n      0x08c379a000000000000000000000000000000000000000000000000000000000\n      dup2\n      mstore\n      0x04\n      add\n      tag_148\n      swap1\n      tag_149\n      jump\t// in\n    tag_148:\n      mload(0x40)\n      dup1\n      swap2\n      sub\n      swap1\n      revert\n    tag_147:\n        /* \"Wand.sol\":5698:5765  _approve(_msgSender(), spender, currentAllowance - subtractedValue) */\n      tag_150\n        /* \"Wand.sol\":5707:5719  _msgSender() */\n      tag_151\n        /* \"Wand.sol\":5707:5717  _msgSender */\n      tag_103\n        /* \"Wand.sol\":5707:5719  _msgSender() */\n      jump\t// in\n    tag_151:\n        /* \"Wand.sol\":5721:5728  spender */\n      dup6\n        /* \"Wand.sol\":5749:5764  subtractedValue */\n      dup6\n        /* \"Wand.sol\":5730:5746  currentAllowance */\n      dup5\n        /* \"Wand.sol\":5730:5764  currentAllowance - subtractedValue */\n      sub\n        /* \"Wand.sol\":5698:5706  _approve */\n      tag_104\n        /* \"Wand.sol\":5698:5765  _approve(_msgSender(), spender, currentAllowance - subtractedValue) */\n      jump\t// in\n    tag_150:\n        /* \"Wand.sol\":5796:5800  true */\n      0x01\n        /* \"Wand.sol\":5789:5800  return true */\n      swap2\n      pop\n      pop\n        /* \"Wand.sol\":5395:5808  function decreaseAllowance(address spender, uint256 subtractedValue) public virtual returns (bool) {\r... */\n      swap3\n      swap2\n      pop\n      pop\n      jump\t// out\n        /* \"Wand.sol\":12133:12244  function addController(address controller) external onlyOwner {\r... */\n    tag_74:\n        /* \"Ownable.sol\":1252:1264  _msgSender() */\n      tag_153\n        /* \"Ownable.sol\":1252:1262  _msgSender */\n      tag_103\n        /* \"Ownable.sol\":1252:1264  _msgSender() */\n      jump\t// in\n    tag_153:\n        /* \"Ownable.sol\":1241:1264  owner() == _msgSender() */\n      0xffffffffffffffffffffffffffffffffffffffff\n      and\n        /* \"Ownable.sol\":1241:1248  owner() */\n      tag_154\n        /* \"Ownable.sol\":1241:1246  owner */\n      tag_59\n        /* \"Ownable.sol\":1241:1248  owner() */\n      jump\t// in\n    tag_154:\n        /* \"Ownable.sol\":1241:1264  owner() == _msgSender() */\n      0xffffffffffffffffffffffffffffffffffffffff\n      and\n      eq\n        /* \"Ownable.sol\":1233:1301  require(owner() == _msgSender(), \"Ownable: caller is not the owner\") */\n      tag_155\n      jumpi\n      mload(0x40)\n      0x08c379a000000000000000000000000000000000000000000000000000000000\n      dup2\n      mstore\n      0x04\n      add\n      tag_156\n      swap1\n      tag_128\n      jump\t// in\n    tag_156:\n      mload(0x40)\n      dup1\n      swap2\n      sub\n      swap1\n      revert\n    tag_155:\n        /* \"Wand.sol\":12232:12236  true */\n      0x01\n        /* \"Wand.sol\":12206:12217  controllers */\n      0x06\n        /* \"Wand.sol\":12206:12229  controllers[controller] */\n      0x00\n        /* \"Wand.sol\":12218:12228  controller */\n      dup4\n        /* \"Wand.sol\":12206:12229  controllers[controller] */\n      0xffffffffffffffffffffffffffffffffffffffff\n      and\n      0xffffffffffffffffffffffffffffffffffffffff\n      and\n      dup2\n      mstore\n      0x20\n      add\n      swap1\n      dup2\n      mstore\n      0x20\n      add\n      0x00\n      keccak256\n      0x00\n        /* \"Wand.sol\":12206:12236  controllers[controller] = true */\n      0x0100\n      exp\n      dup2\n      sload\n      dup2\n      0xff\n      mul\n      not\n      and\n      swap1\n      dup4\n      iszero\n      iszero\n      mul\n      or\n      swap1\n      sstore\n      pop\n        /* \"Wand.sol\":12133:12244  function addController(address controller) external onlyOwner {\r... */\n      pop\n      jump\t// out\n        /* \"Wand.sol\":2589:2764  function transfer(address recipient, uint256 amount) public virtual override returns (bool) {\r... */\n    tag_77:\n        /* \"Wand.sol\":2675:2679  bool */\n      0x00\n        /* \"Wand.sol\":2692:2734  _transfer(_msgSender(), recipient, amount) */\n      tag_159\n        /* \"Wand.sol\":2702:2714  _msgSender() */\n      tag_160\n        /* \"Wand.sol\":2702:2712  _msgSender */\n      tag_103\n        /* \"Wand.sol\":2702:2714  _msgSender() */\n      jump\t// in\n    tag_160:\n        /* \"Wand.sol\":2716:2725  recipient */\n      dup5\n        /* \"Wand.sol\":2727:2733  amount */\n      dup5\n        /* \"Wand.sol\":2692:2701  _transfer */\n      tag_108\n        /* \"Wand.sol\":2692:2734  _transfer(_msgSender(), recipient, amount) */\n      jump\t// in\n    tag_159:\n        /* \"Wand.sol\":2752:2756  true */\n      0x01\n        /* \"Wand.sol\":2745:2756  return true */\n      swap1\n      pop\n        /* \"Wand.sol\":2589:2764  function transfer(address recipient, uint256 amount) public virtual override returns (bool) {\r... */\n      swap3\n      swap2\n      pop\n      pop\n      jump\t// out\n        /* \"Wand.sol\":2827:2978  function allowance(address owner, address spender) public view virtual override returns (uint256) {\r... */\n    tag_82:\n        /* \"Wand.sol\":2916:2923  uint256 */\n      0x00\n        /* \"Wand.sol\":2943:2954  _allowances */\n      0x01\n        /* \"Wand.sol\":2943:2961  _allowances[owner] */\n      0x00\n        /* \"Wand.sol\":2955:2960  owner */\n      dup5\n        /* \"Wand.sol\":2943:2961  _allowances[owner] */\n      0xffffffffffffffffffffffffffffffffffffffff\n      and\n      0xffffffffffffffffffffffffffffffffffffffff\n      and\n      dup2\n      mstore\n      0x20\n      add\n      swap1\n      dup2\n      mstore\n      0x20\n      add\n      0x00\n      keccak256\n        /* \"Wand.sol\":2943:2970  _allowances[owner][spender] */\n      0x00\n        /* \"Wand.sol\":2962:2969  spender */\n      dup4\n        /* \"Wand.sol\":2943:2970  _allowances[owner][spender] */\n      0xffffffffffffffffffffffffffffffffffffffff\n      and\n      0xffffffffffffffffffffffffffffffffffffffff\n      and\n      dup2\n      mstore\n      0x20\n      add\n      swap1\n      dup2\n      mstore\n      0x20\n      add\n      0x00\n      keccak256\n      sload\n        /* \"Wand.sol\":2936:2970  return _allowances[owner][spender] */\n      swap1\n      pop\n        /* \"Wand.sol\":2827:2978  function allowance(address owner, address spender) public view virtual override returns (uint256) {\r... */\n      swap3\n      swap2\n      pop\n      pop\n      jump\t// out\n        /* \"Ownable.sol\":1911:2109  function transferOwnership(address newOwner) public virtual onlyOwner {... */\n    tag_86:\n        /* \"Ownable.sol\":1252:1264  _msgSender() */\n      tag_163\n        /* \"Ownable.sol\":1252:1262  _msgSender */\n      tag_103\n        /* \"Ownable.sol\":1252:1264  _msgSender() */\n      jump\t// in\n    tag_163:\n        /* \"Ownable.sol\":1241:1264  owner() == _msgSender() */\n      0xffffffffffffffffffffffffffffffffffffffff\n      and\n        /* \"Ownable.sol\":1241:1248  owner() */\n      tag_164\n        /* \"Ownable.sol\":1241:1246  owner */\n      tag_59\n        /* \"Ownable.sol\":1241:1248  owner() */\n      jump\t// in\n    tag_164:\n        /* \"Ownable.sol\":1241:1264  owner() == _msgSender() */\n      0xffffffffffffffffffffffffffffffffffffffff\n      and\n      eq\n        /* \"Ownable.sol\":1233:1301  require(owner() == _msgSender(), \"Ownable: caller is not the owner\") */\n      tag_165\n      jumpi\n      mload(0x40)\n      0x08c379a000000000000000000000000000000000000000000000000000000000\n      dup2\n      mstore\n      0x04\n      add\n      tag_166\n      swap1\n      tag_128\n      jump\t// in\n    tag_166:\n      mload(0x40)\n      dup1\n      swap2\n      sub\n      swap1\n      revert\n    tag_165:\n        /* \"Ownable.sol\":2019:2020  0 */\n      0x00\n        /* \"Ownable.sol\":1999:2021  newOwner != address(0) */\n      0xffffffffffffffffffffffffffffffffffffffff\n      and\n        /* \"Ownable.sol\":1999:2007  newOwner */\n      dup2\n        /* \"Ownable.sol\":1999:2021  newOwner != address(0) */\n      0xffffffffffffffffffffffffffffffffffffffff\n      and\n      eq\n      iszero\n        /* \"Ownable.sol\":1991:2064  require(newOwner != address(0), \"Ownable: new owner is the zero address\") */\n      tag_168\n      jumpi\n      mload(0x40)\n      0x08c379a000000000000000000000000000000000000000000000000000000000\n      dup2\n      mstore\n      0x04\n      add\n      tag_169\n      swap1\n      tag_170\n      jump\t// in\n    tag_169:\n      mload(0x40)\n      dup1\n      swap2\n      sub\n      swap1\n      revert\n    tag_168:\n        /* \"Ownable.sol\":2074:2102  _transferOwnership(newOwner) */\n      tag_171\n        /* \"Ownable.sol\":2093:2101  newOwner */\n      dup2\n        /* \"Ownable.sol\":2074:2092  _transferOwnership */\n      tag_131\n        /* \"Ownable.sol\":2074:2102  _transferOwnership(newOwner) */\n      jump\t// in\n    tag_171:\n        /* \"Ownable.sol\":1911:2109  function transferOwnership(address newOwner) public virtual onlyOwner {... */\n      pop\n      jump\t// out\n        /* \"Wand.sol\":12368:12483  function removeController(address controller) external onlyOwner {\r... */\n    tag_89:\n        /* \"Ownable.sol\":1252:1264  _msgSender() */\n      tag_173\n        /* \"Ownable.sol\":1252:1262  _msgSender */\n      tag_103\n        /* \"Ownable.sol\":1252:1264  _msgSender() */\n      jump\t// in\n    tag_173:\n        /* \"Ownable.sol\":1241:1264  owner() == _msgSender() */\n      0xffffffffffffffffffffffffffffffffffffffff\n      and\n        /* \"Ownable.sol\":1241:1248  owner() */\n      tag_174\n        /* \"Ownable.sol\":1241:1246  owner */\n      tag_59\n        /* \"Ownable.sol\":1241:1248  owner() */\n      jump\t// in\n    tag_174:\n        /* \"Ownable.sol\":1241:1264  owner() == _msgSender() */\n      0xffffffffffffffffffffffffffffffffffffffff\n      and\n      eq\n        /* \"Ownable.sol\":1233:1301  require(owner() == _msgSender(), \"Ownable: caller is not the owner\") */\n      tag_175\n      jumpi\n      mload(0x40)\n      0x08c379a000000000000000000000000000000000000000000000000000000000\n      dup2\n      mstore\n      0x04\n      add\n      tag_176\n      swap1\n      tag_128\n      jump\t// in\n    tag_176:\n      mload(0x40)\n      dup1\n      swap2\n      sub\n      swap1\n      revert\n    tag_175:\n        /* \"Wand.sol\":12470:12475  false */\n      0x00\n        /* \"Wand.sol\":12444:12455  controllers */\n      0x06\n        /* \"Wand.sol\":12444:12467  controllers[controller] */\n      0x00\n        /* \"Wand.sol\":12456:12466  controller */\n      dup4\n        /* \"Wand.sol\":12444:12467  controllers[controller] */\n      0xffffffffffffffffffffffffffffffffffffffff\n      and\n      0xffffffffffffffffffffffffffffffffffffffff\n      and\n      dup2\n      mstore\n      0x20\n      add\n      swap1\n      dup2\n      mstore\n      0x20\n      add\n      0x00\n      keccak256\n      0x00\n        /* \"Wand.sol\":12444:12475  controllers[controller] = false */\n      0x0100\n      exp\n      dup2\n      sload\n      dup2\n      0xff\n      mul\n      not\n      and\n      swap1\n      dup4\n      iszero\n      iszero\n      mul\n      or\n      swap1\n      sstore\n      pop\n        /* \"Wand.sol\":12368:12483  function removeController(address controller) external onlyOwner {\r... */\n      pop\n      jump\t// out\n        /* \"Wand.sol\":12489:12590  function wandTotalSupply() external view returns (uint256){\r... */\n    tag_91:\n        /* \"Wand.sol\":12539:12546  uint256 */\n      0x00\n        /* \"Wand.sol\":12564:12568  this */\n      address\n        /* \"Wand.sol\":12564:12580  this.totalSupply */\n      0xffffffffffffffffffffffffffffffffffffffff\n      and\n      0x18160ddd\n        /* \"Wand.sol\":12564:12582  this.totalSupply() */\n      mload(0x40)\n      dup2\n      0xffffffff\n      and\n      0xe0\n      shl\n      dup2\n      mstore\n      0x04\n      add\n      0x20\n      mload(0x40)\n      dup1\n      dup4\n      sub\n      dup2\n      dup7\n      dup1\n      extcodesize\n      iszero\n      dup1\n      iszero\n      tag_179\n      jumpi\n      0x00\n      dup1\n      revert\n    tag_179:\n      pop\n      gas\n      staticcall\n      iszero\n      dup1\n      iszero\n      tag_181\n      jumpi\n      returndatasize\n      0x00\n      dup1\n      returndatacopy\n      revert(0x00, returndatasize)\n    tag_181:\n      pop\n      pop\n      pop\n      pop\n      mload(0x40)\n      returndatasize\n      not(0x1f)\n      0x1f\n      dup3\n      add\n      and\n      dup3\n      add\n      dup1\n      0x40\n      mstore\n      pop\n      dup2\n      add\n      swap1\n      tag_182\n      swap2\n      swap1\n      tag_183\n      jump\t// in\n    tag_182:\n        /* \"Wand.sol\":12557:12582  return this.totalSupply() */\n      swap1\n      pop\n        /* \"Wand.sol\":12489:12590  function wandTotalSupply() external view returns (uint256){\r... */\n      swap1\n      jump\t// out\n        /* \"Context.sol\":640:736  function _msgSender() internal view virtual returns (address) {... */\n    tag_103:\n        /* \"Context.sol\":693:700  address */\n      0x00\n        /* \"Context.sol\":719:729  msg.sender */\n      caller\n        /* \"Context.sol\":712:729  return msg.sender */\n      swap1\n      pop\n        /* \"Context.sol\":640:736  function _msgSender() internal view virtual returns (address) {... */\n      swap1\n      jump\t// out\n        /* \"Wand.sol\":9079:9459  function _approve(\r... */\n    tag_104:\n        /* \"Wand.sol\":9232:9233  0 */\n      0x00\n        /* \"Wand.sol\":9215:9234  owner != address(0) */\n      0xffffffffffffffffffffffffffffffffffffffff\n      and\n        /* \"Wand.sol\":9215:9220  owner */\n      dup4\n        /* \"Wand.sol\":9215:9234  owner != address(0) */\n      0xffffffffffffffffffffffffffffffffffffffff\n      and\n      eq\n      iszero\n        /* \"Wand.sol\":9207:9275  require(owner != address(0), \"ERC20: approve from the zero address\") */\n      tag_186\n      jumpi\n      mload(0x40)\n      0x08c379a000000000000000000000000000000000000000000000000000000000\n      dup2\n      mstore\n      0x04\n      add\n      tag_187\n      swap1\n      tag_188\n      jump\t// in\n    tag_187:\n      mload(0x40)\n      dup1\n      swap2\n      sub\n      swap1\n      revert\n    tag_186:\n        /* \"Wand.sol\":9313:9314  0 */\n      0x00\n        /* \"Wand.sol\":9294:9315  spender != address(0) */\n      0xffffffffffffffffffffffffffffffffffffffff\n      and\n        /* \"Wand.sol\":9294:9301  spender */\n      dup3\n        /* \"Wand.sol\":9294:9315  spender != address(0) */\n      0xffffffffffffffffffffffffffffffffffffffff\n      and\n      eq\n      iszero\n        /* \"Wand.sol\":9286:9354  require(spender != address(0), \"ERC20: approve to the zero address\") */\n      tag_189\n      jumpi\n      mload(0x40)\n      0x08c379a000000000000000000000000000000000000000000000000000000000\n      dup2\n      mstore\n      0x04\n      add\n      tag_190\n      swap1\n      tag_191\n      jump\t// in\n    tag_190:\n      mload(0x40)\n      dup1\n      swap2\n      sub\n      swap1\n      revert\n    tag_189:\n        /* \"Wand.sol\":9397:9403  amount */\n      dup1\n        /* \"Wand.sol\":9367:9378  _allowances */\n      0x01\n        /* \"Wand.sol\":9367:9385  _allowances[owner] */\n      0x00\n        /* \"Wand.sol\":9379:9384  owner */\n      dup6\n        /* \"Wand.sol\":9367:9385  _allowances[owner] */\n      0xffffffffffffffffffffffffffffffffffffffff\n      and\n      0xffffffffffffffffffffffffffffffffffffffff\n      and\n      dup2\n      mstore\n      0x20\n      add\n      swap1\n      dup2\n      mstore\n      0x20\n      add\n      0x00\n      keccak256\n        /* \"Wand.sol\":9367:9394  _allowances[owner][spender] */\n      0x00\n        /* \"Wand.sol\":9386:9393  spender */\n      dup5\n        /* \"Wand.sol\":9367:9394  _allowances[owner][spender] */\n      0xffffffffffffffffffffffffffffffffffffffff\n      and\n      0xffffffffffffffffffffffffffffffffffffffff\n      and\n      dup2\n      mstore\n      0x20\n      add\n      swap1\n      dup2\n      mstore\n      0x20\n      add\n      0x00\n      keccak256\n        /* \"Wand.sol\":9367:9403  _allowances[owner][spender] = amount */\n      dup2\n      swap1\n      sstore\n      pop\n        /* \"Wand.sol\":9435:9442  spender */\n      dup2\n        /* \"Wand.sol\":9419:9451  Approval(owner, spender, amount) */\n      0xffffffffffffffffffffffffffffffffffffffff\n      and\n        /* \"Wand.sol\":9428:9433  owner */\n      dup4\n        /* \"Wand.sol\":9419:9451  Approval(owner, spender, amount) */\n      0xffffffffffffffffffffffffffffffffffffffff\n      and\n      0x8c5be1e5ebec7d5bd14f71427d1e84f3dd0314c0f7b2291e5b200ac8c7c3b925\n        /* \"Wand.sol\":9444:9450  amount */\n      dup4\n        /* \"Wand.sol\":9419:9451  Approval(owner, spender, amount) */\n      mload(0x40)\n      tag_192\n      swap2\n      swap1\n      tag_37\n      jump\t// in\n    tag_192:\n      mload(0x40)\n      dup1\n      swap2\n      sub\n      swap1\n      log3\n        /* \"Wand.sol\":9079:9459  function _approve(\r... */\n      pop\n      pop\n      pop\n      jump\t// out\n        /* \"Wand.sol\":6298:7031  function _transfer(\r... */\n    tag_108:\n        /* \"Wand.sol\":6456:6457  0 */\n      0x00\n        /* \"Wand.sol\":6438:6458  sender != address(0) */\n      0xffffffffffffffffffffffffffffffffffffffff\n      and\n        /* \"Wand.sol\":6438:6444  sender */\n      dup4\n        /* \"Wand.sol\":6438:6458  sender != address(0) */\n      0xffffffffffffffffffffffffffffffffffffffff\n      and\n      eq\n      iszero\n        /* \"Wand.sol\":6430:6500  require(sender != address(0), \"ERC20: transfer from the zero address\") */\n      tag_194\n      jumpi\n      mload(0x40)\n      0x08c379a000000000000000000000000000000000000000000000000000000000\n      dup2\n      mstore\n      0x04\n      add\n      tag_195\n      swap1\n      tag_196\n      jump\t// in\n    tag_195:\n      mload(0x40)\n      dup1\n      swap2\n      sub\n      swap1\n      revert\n    tag_194:\n        /* \"Wand.sol\":6540:6541  0 */\n      0x00\n        /* \"Wand.sol\":6519:6542  recipient != address(0) */\n      0xffffffffffffffffffffffffffffffffffffffff\n      and\n        /* \"Wand.sol\":6519:6528  recipient */\n      dup3\n        /* \"Wand.sol\":6519:6542  recipient != address(0) */\n      0xffffffffffffffffffffffffffffffffffffffff\n      and\n      eq\n      iszero\n        /* \"Wand.sol\":6511:6582  require(recipient != address(0), \"ERC20: transfer to the zero address\") */\n      tag_197\n      jumpi\n      mload(0x40)\n      0x08c379a000000000000000000000000000000000000000000000000000000000\n      dup2\n      mstore\n      0x04\n      add\n      tag_198\n      swap1\n      tag_199\n      jump\t// in\n    tag_198:\n      mload(0x40)\n      dup1\n      swap2\n      sub\n      swap1\n      revert\n    tag_197:\n        /* \"Wand.sol\":6595:6642  _beforeTokenTransfer(sender, recipient, amount) */\n      tag_200\n        /* \"Wand.sol\":6616:6622  sender */\n      dup4\n        /* \"Wand.sol\":6624:6633  recipient */\n      dup4\n        /* \"Wand.sol\":6635:6641  amount */\n      dup4\n        /* \"Wand.sol\":6595:6615  _beforeTokenTransfer */\n      tag_201\n        /* \"Wand.sol\":6595:6642  _beforeTokenTransfer(sender, recipient, amount) */\n      jump\t// in\n    tag_200:\n        /* \"Wand.sol\":6655:6676  uint256 senderBalance */\n      0x00\n        /* \"Wand.sol\":6679:6688  _balances */\n      dup1\n        /* \"Wand.sol\":6679:6696  _balances[sender] */\n      0x00\n        /* \"Wand.sol\":6689:6695  sender */\n      dup6\n        /* \"Wand.sol\":6679:6696  _balances[sender] */\n      0xffffffffffffffffffffffffffffffffffffffff\n      and\n      0xffffffffffffffffffffffffffffffffffffffff\n      and\n      dup2\n      mstore\n      0x20\n      add\n      swap1\n      dup2\n      mstore\n      0x20\n      add\n      0x00\n      keccak256\n      sload\n        /* \"Wand.sol\":6655:6696  uint256 senderBalance = _balances[sender] */\n      swap1\n      pop\n        /* \"Wand.sol\":6732:6738  amount */\n      dup2\n        /* \"Wand.sol\":6715:6728  senderBalance */\n      dup2\n        /* \"Wand.sol\":6715:6738  senderBalance >= amount */\n      lt\n      iszero\n        /* \"Wand.sol\":6707:6781  require(senderBalance >= amount, \"ERC20: transfer amount exceeds balance\") */\n      tag_202\n      jumpi\n      mload(0x40)\n      0x08c379a000000000000000000000000000000000000000000000000000000000\n      dup2\n      mstore\n      0x04\n      add\n      tag_203\n      swap1\n      tag_204\n      jump\t// in\n    tag_203:\n      mload(0x40)\n      dup1\n      swap2\n      sub\n      swap1\n      revert\n    tag_202:\n        /* \"Wand.sol\":6853:6859  amount */\n      dup2\n        /* \"Wand.sol\":6837:6850  senderBalance */\n      dup2\n        /* \"Wand.sol\":6837:6859  senderBalance - amount */\n      sub\n        /* \"Wand.sol\":6817:6826  _balances */\n      0x00\n        /* \"Wand.sol\":6817:6834  _balances[sender] */\n      dup1\n        /* \"Wand.sol\":6827:6833  sender */\n      dup7\n        /* \"Wand.sol\":6817:6834  _balances[sender] */\n      0xffffffffffffffffffffffffffffffffffffffff\n      and\n      0xffffffffffffffffffffffffffffffffffffffff\n      and\n      dup2\n      mstore\n      0x20\n      add\n      swap1\n      dup2\n      mstore\n      0x20\n      add\n      0x00\n      keccak256\n        /* \"Wand.sol\":6817:6859  _balances[sender] = senderBalance - amount */\n      dup2\n      swap1\n      sstore\n      pop\n        /* \"Wand.sol\":6905:6911  amount */\n      dup2\n        /* \"Wand.sol\":6881:6890  _balances */\n      0x00\n        /* \"Wand.sol\":6881:6901  _balances[recipient] */\n      dup1\n        /* \"Wand.sol\":6891:6900  recipient */\n      dup6\n        /* \"Wand.sol\":6881:6901  _balances[recipient] */\n      0xffffffffffffffffffffffffffffffffffffffff\n      and\n      0xffffffffffffffffffffffffffffffffffffffff\n      and\n      dup2\n      mstore\n      0x20\n      add\n      swap1\n      dup2\n      mstore\n      0x20\n      add\n      0x00\n      keccak256\n      0x00\n        /* \"Wand.sol\":6881:6911  _balances[recipient] += amount */\n      dup3\n      dup3\n      sload\n      tag_205\n      swap2\n      swap1\n      tag_121\n      jump\t// in\n    tag_205:\n      swap3\n      pop\n      pop\n      dup2\n      swap1\n      sstore\n      pop\n        /* \"Wand.sol\":6946:6955  recipient */\n      dup3\n        /* \"Wand.sol\":6929:6964  Transfer(sender, recipient, amount) */\n      0xffffffffffffffffffffffffffffffffffffffff\n      and\n        /* \"Wand.sol\":6938:6944  sender */\n      dup5\n        /* \"Wand.sol\":6929:6964  Transfer(sender, recipient, amount) */\n      0xffffffffffffffffffffffffffffffffffffffff\n      and\n      0xddf252ad1be2c89b69c2b068fc378daa952ba7f163c4a11628f55a4df523b3ef\n        /* \"Wand.sol\":6957:6963  amount */\n      dup5\n        /* \"Wand.sol\":6929:6964  Transfer(sender, recipient, amount) */\n      mload(0x40)\n      tag_206\n      swap2\n      swap1\n      tag_37\n      jump\t// in\n    tag_206:\n      mload(0x40)\n      dup1\n      swap2\n      sub\n      swap1\n      log3\n        /* \"Wand.sol\":6977:7023  _afterTokenTransfer(sender, recipient, amount) */\n      tag_207\n        /* \"Wand.sol\":6997:7003  sender */\n      dup5\n        /* \"Wand.sol\":7005:7014  recipient */\n      dup5\n        /* \"Wand.sol\":7016:7022  amount */\n      dup5\n        /* \"Wand.sol\":6977:6996  _afterTokenTransfer */\n      tag_208\n        /* \"Wand.sol\":6977:7023  _afterTokenTransfer(sender, recipient, amount) */\n      jump\t// in\n    tag_207:\n        /* \"Wand.sol\":6419:7031  {\r... */\n      pop\n        /* \"Wand.sol\":6298:7031  function _transfer(\r... */\n      pop\n      pop\n      pop\n      jump\t// out\n        /* \"Ownable.sol\":2263:2450  function _transferOwnership(address newOwner) internal virtual {... */\n    tag_131:\n        /* \"Ownable.sol\":2336:2352  address oldOwner */\n      0x00\n        /* \"Ownable.sol\":2355:2361  _owner */\n      0x05\n      0x00\n      swap1\n      sload\n      swap1\n      0x0100\n      exp\n      swap1\n      div\n      0xffffffffffffffffffffffffffffffffffffffff\n      and\n        /* \"Ownable.sol\":2336:2361  address oldOwner = _owner */\n      swap1\n      pop\n        /* \"Ownable.sol\":2380:2388  newOwner */\n      dup2\n        /* \"Ownable.sol\":2371:2377  _owner */\n      0x05\n      0x00\n        /* \"Ownable.sol\":2371:2388  _owner = newOwner */\n      0x0100\n      exp\n      dup2\n      sload\n      dup2\n      0xffffffffffffffffffffffffffffffffffffffff\n      mul\n      not\n      and\n      swap1\n      dup4\n      0xffffffffffffffffffffffffffffffffffffffff\n      and\n      mul\n      or\n      swap1\n      sstore\n      pop\n        /* \"Ownable.sol\":2434:2442  newOwner */\n      dup2\n        /* \"Ownable.sol\":2403:2443  OwnershipTransferred(oldOwner, newOwner) */\n      0xffffffffffffffffffffffffffffffffffffffff\n      and\n        /* \"Ownable.sol\":2424:2432  oldOwner */\n      dup2\n        /* \"Ownable.sol\":2403:2443  OwnershipTransferred(oldOwner, newOwner) */\n      0xffffffffffffffffffffffffffffffffffffffff\n      and\n      0x8be0079c531659141344cd1fd0a4f28419497f9722a3daafe3b4186f6b6457e0\n      mload(0x40)\n      mload(0x40)\n      dup1\n      swap2\n      sub\n      swap1\n      log3\n        /* \"Ownable.sol\":2326:2450  {... */\n      pop\n        /* \"Ownable.sol\":2263:2450  function _transferOwnership(address newOwner) internal virtual {... */\n      pop\n      jump\t// out\n        /* \"Wand.sol\":8050:8641  function _burn(address account, uint256 amount) internal virtual {\r... */\n    tag_144:\n        /* \"Wand.sol\":8153:8154  0 */\n      0x00\n        /* \"Wand.sol\":8134:8155  account != address(0) */\n      0xffffffffffffffffffffffffffffffffffffffff\n      and\n        /* \"Wand.sol\":8134:8141  account */\n      dup3\n        /* \"Wand.sol\":8134:8155  account != address(0) */\n      0xffffffffffffffffffffffffffffffffffffffff\n      and\n      eq\n      iszero\n        /* \"Wand.sol\":8126:8193  require(account != address(0), \"ERC20: burn from the zero address\") */\n      tag_211\n      jumpi\n      mload(0x40)\n      0x08c379a000000000000000000000000000000000000000000000000000000000\n      dup2\n      mstore\n      0x04\n      add\n      tag_212\n      swap1\n      tag_213\n      jump\t// in\n    tag_212:\n      mload(0x40)\n      dup1\n      swap2\n      sub\n      swap1\n      revert\n    tag_211:\n        /* \"Wand.sol\":8206:8255  _beforeTokenTransfer(account, address(0), amount) */\n      tag_214\n        /* \"Wand.sol\":8227:8234  account */\n      dup3\n        /* \"Wand.sol\":8244:8245  0 */\n      0x00\n        /* \"Wand.sol\":8248:8254  amount */\n      dup4\n        /* \"Wand.sol\":8206:8226  _beforeTokenTransfer */\n      tag_201\n        /* \"Wand.sol\":8206:8255  _beforeTokenTransfer(account, address(0), amount) */\n      jump\t// in\n    tag_214:\n        /* \"Wand.sol\":8268:8290  uint256 accountBalance */\n      0x00\n        /* \"Wand.sol\":8293:8302  _balances */\n      dup1\n        /* \"Wand.sol\":8293:8311  _balances[account] */\n      0x00\n        /* \"Wand.sol\":8303:8310  account */\n      dup5\n        /* \"Wand.sol\":8293:8311  _balances[account] */\n      0xffffffffffffffffffffffffffffffffffffffff\n      and\n      0xffffffffffffffffffffffffffffffffffffffff\n      and\n      dup2\n      mstore\n      0x20\n      add\n      swap1\n      dup2\n      mstore\n      0x20\n      add\n      0x00\n      keccak256\n      sload\n        /* \"Wand.sol\":8268:8311  uint256 accountBalance = _balances[account] */\n      swap1\n      pop\n        /* \"Wand.sol\":8348:8354  amount */\n      dup2\n        /* \"Wand.sol\":8330:8344  accountBalance */\n      dup2\n        /* \"Wand.sol\":8330:8354  accountBalance >= amount */\n      lt\n      iszero\n        /* \"Wand.sol\":8322:8393  require(accountBalance >= amount, \"ERC20: burn amount exceeds balance\") */\n      tag_215\n      jumpi\n      mload(0x40)\n      0x08c379a000000000000000000000000000000000000000000000000000000000\n      dup2\n      mstore\n      0x04\n      add\n      tag_216\n      swap1\n      tag_217\n      jump\t// in\n    tag_216:\n      mload(0x40)\n      dup1\n      swap2\n      sub\n      swap1\n      revert\n    tag_215:\n        /* \"Wand.sol\":8467:8473  amount */\n      dup2\n        /* \"Wand.sol\":8450:8464  accountBalance */\n      dup2\n        /* \"Wand.sol\":8450:8473  accountBalance - amount */\n      sub\n        /* \"Wand.sol\":8429:8438  _balances */\n      0x00\n        /* \"Wand.sol\":8429:8447  _balances[account] */\n      dup1\n        /* \"Wand.sol\":8439:8446  account */\n      dup6\n        /* \"Wand.sol\":8429:8447  _balances[account] */\n      0xffffffffffffffffffffffffffffffffffffffff\n      and\n      0xffffffffffffffffffffffffffffffffffffffff\n      and\n      dup2\n      mstore\n      0x20\n      add\n      swap1\n      dup2\n      mstore\n      0x20\n      add\n      0x00\n      keccak256\n        /* \"Wand.sol\":8429:8473  _balances[account] = accountBalance - amount */\n      dup2\n      swap1\n      sstore\n      pop\n        /* \"Wand.sol\":8511:8517  amount */\n      dup2\n        /* \"Wand.sol\":8495:8507  _totalSupply */\n      0x02\n      0x00\n        /* \"Wand.sol\":8495:8517  _totalSupply -= amount */\n      dup3\n      dup3\n      sload\n      tag_218\n      swap2\n      swap1\n      tag_219\n      jump\t// in\n    tag_218:\n      swap3\n      pop\n      pop\n      dup2\n      swap1\n      sstore\n      pop\n        /* \"Wand.sol\":8561:8562  0 */\n      0x00\n        /* \"Wand.sol\":8535:8572  Transfer(account, address(0), amount) */\n      0xffffffffffffffffffffffffffffffffffffffff\n      and\n        /* \"Wand.sol\":8544:8551  account */\n      dup4\n        /* \"Wand.sol\":8535:8572  Transfer(account, address(0), amount) */\n      0xffffffffffffffffffffffffffffffffffffffff\n      and\n      0xddf252ad1be2c89b69c2b068fc378daa952ba7f163c4a11628f55a4df523b3ef\n        /* \"Wand.sol\":8565:8571  amount */\n      dup5\n        /* \"Wand.sol\":8535:8572  Transfer(account, address(0), amount) */\n      mload(0x40)\n      tag_220\n      swap2\n      swap1\n      tag_37\n      jump\t// in\n    tag_220:\n      mload(0x40)\n      dup1\n      swap2\n      sub\n      swap1\n      log3\n        /* \"Wand.sol\":8585:8633  _afterTokenTransfer(account, address(0), amount) */\n      tag_221\n        /* \"Wand.sol\":8605:8612  account */\n      dup4\n        /* \"Wand.sol\":8622:8623  0 */\n      0x00\n        /* \"Wand.sol\":8626:8632  amount */\n      dup5\n        /* \"Wand.sol\":8585:8604  _afterTokenTransfer */\n      tag_208\n        /* \"Wand.sol\":8585:8633  _afterTokenTransfer(account, address(0), amount) */\n      jump\t// in\n    tag_221:\n        /* \"Wand.sol\":8115:8641  {\r... */\n      pop\n        /* \"Wand.sol\":8050:8641  function _burn(address account, uint256 amount) internal virtual {\r... */\n      pop\n      pop\n      jump\t// out\n        /* \"Wand.sol\":10059:10184  function _beforeTokenTransfer(\r... */\n    tag_201:\n      pop\n      pop\n      pop\n      jump\t// out\n        /* \"Wand.sol\":10788:10912  function _afterTokenTransfer(\r... */\n    tag_208:\n      pop\n      pop\n      pop\n      jump\t// out\n        /* \"#utility.yul\":7:146   */\n    tag_225:\n        /* \"#utility.yul\":53:58   */\n      0x00\n        /* \"#utility.yul\":91:97   */\n      dup2\n        /* \"#utility.yul\":78:98   */\n      calldataload\n        /* \"#utility.yul\":69:98   */\n      swap1\n      pop\n        /* \"#utility.yul\":107:140   */\n      tag_227\n        /* \"#utility.yul\":134:139   */\n      dup2\n        /* \"#utility.yul\":107:140   */\n      tag_228\n      jump\t// in\n    tag_227:\n        /* \"#utility.yul\":7:146   */\n      swap3\n      swap2\n      pop\n      pop\n      jump\t// out\n        /* \"#utility.yul\":152:291   */\n    tag_229:\n        /* \"#utility.yul\":198:203   */\n      0x00\n        /* \"#utility.yul\":236:242   */\n      dup2\n        /* \"#utility.yul\":223:243   */\n      calldataload\n        /* \"#utility.yul\":214:243   */\n      swap1\n      pop\n        /* \"#utility.yul\":252:285   */\n      tag_231\n        /* \"#utility.yul\":279:284   */\n      dup2\n        /* \"#utility.yul\":252:285   */\n      tag_232\n      jump\t// in\n    tag_231:\n        /* \"#utility.yul\":152:291   */\n      swap3\n      swap2\n      pop\n      pop\n      jump\t// out\n        /* \"#utility.yul\":297:440   */\n    tag_233:\n        /* \"#utility.yul\":354:359   */\n      0x00\n        /* \"#utility.yul\":385:391   */\n      dup2\n        /* \"#utility.yul\":379:392   */\n      mload\n        /* \"#utility.yul\":370:392   */\n      swap1\n      pop\n        /* \"#utility.yul\":401:434   */\n      tag_235\n        /* \"#utility.yul\":428:433   */\n      dup2\n        /* \"#utility.yul\":401:434   */\n      tag_232\n      jump\t// in\n    tag_235:\n        /* \"#utility.yul\":297:440   */\n      swap3\n      swap2\n      pop\n      pop\n      jump\t// out\n        /* \"#utility.yul\":446:775   */\n    tag_53:\n        /* \"#utility.yul\":505:511   */\n      0x00\n        /* \"#utility.yul\":554:556   */\n      0x20\n        /* \"#utility.yul\":542:551   */\n      dup3\n        /* \"#utility.yul\":533:540   */\n      dup5\n        /* \"#utility.yul\":529:552   */\n      sub\n        /* \"#utility.yul\":525:557   */\n      slt\n        /* \"#utility.yul\":522:641   */\n      iszero\n      tag_237\n      jumpi\n        /* \"#utility.yul\":560:639   */\n      tag_238\n      tag_239\n      jump\t// in\n    tag_238:\n        /* \"#utility.yul\":522:641   */\n    tag_237:\n        /* \"#utility.yul\":680:681   */\n      0x00\n        /* \"#utility.yul\":705:758   */\n      tag_240\n        /* \"#utility.yul\":750:757   */\n      dup5\n        /* \"#utility.yul\":741:747   */\n      dup3\n        /* \"#utility.yul\":730:739   */\n      dup6\n        /* \"#utility.yul\":726:748   */\n      add\n        /* \"#utility.yul\":705:758   */\n      tag_225\n      jump\t// in\n    tag_240:\n        /* \"#utility.yul\":695:758   */\n      swap2\n      pop\n        /* \"#utility.yul\":651:768   */\n      pop\n        /* \"#utility.yul\":446:775   */\n      swap3\n      swap2\n      pop\n      pop\n      jump\t// out\n        /* \"#utility.yul\":781:1255   */\n    tag_81:\n        /* \"#utility.yul\":849:855   */\n      0x00\n        /* \"#utility.yul\":857:863   */\n      dup1\n        /* \"#utility.yul\":906:908   */\n      0x40\n        /* \"#utility.yul\":894:903   */\n      dup4\n        /* \"#utility.yul\":885:892   */\n      dup6\n        /* \"#utility.yul\":881:904   */\n      sub\n        /* \"#utility.yul\":877:909   */\n      slt\n        /* \"#utility.yul\":874:993   */\n      iszero\n      tag_242\n      jumpi\n        /* \"#utility.yul\":912:991   */\n      tag_243\n      tag_239\n      jump\t// in\n    tag_243:\n        /* \"#utility.yul\":874:993   */\n    tag_242:\n        /* \"#utility.yul\":1032:1033   */\n      0x00\n        /* \"#utility.yul\":1057:1110   */\n      tag_244\n        /* \"#utility.yul\":1102:1109   */\n      dup6\n        /* \"#utility.yul\":1093:1099   */\n      dup3\n        /* \"#utility.yul\":1082:1091   */\n      dup7\n        /* \"#utility.yul\":1078:1100   */\n      add\n        /* \"#utility.yul\":1057:1110   */\n      tag_225\n      jump\t// in\n    tag_244:\n        /* \"#utility.yul\":1047:1110   */\n      swap3\n      pop\n        /* \"#utility.yul\":1003:1120   */\n      pop\n        /* \"#utility.yul\":1159:1161   */\n      0x20\n        /* \"#utility.yul\":1185:1238   */\n      tag_245\n        /* \"#utility.yul\":1230:1237   */\n      dup6\n        /* \"#utility.yul\":1221:1227   */\n      dup3\n        /* \"#utility.yul\":1210:1219   */\n      dup7\n        /* \"#utility.yul\":1206:1228   */\n      add\n        /* \"#utility.yul\":1185:1238   */\n      tag_225\n      jump\t// in\n    tag_245:\n        /* \"#utility.yul\":1175:1238   */\n      swap2\n      pop\n        /* \"#utility.yul\":1130:1248   */\n      pop\n        /* \"#utility.yul\":781:1255   */\n      swap3\n      pop\n      swap3\n      swap1\n      pop\n      jump\t// out\n        /* \"#utility.yul\":1261:1880   */\n    tag_40:\n        /* \"#utility.yul\":1338:1344   */\n      0x00\n        /* \"#utility.yul\":1346:1352   */\n      dup1\n        /* \"#utility.yul\":1354:1360   */\n      0x00\n        /* \"#utility.yul\":1403:1405   */\n      0x60\n        /* \"#utility.yul\":1391:1400   */\n      dup5\n        /* \"#utility.yul\":1382:1389   */\n      dup7\n        /* \"#utility.yul\":1378:1401   */\n      sub\n        /* \"#utility.yul\":1374:1406   */\n      slt\n        /* \"#utility.yul\":1371:1490   */\n      iszero\n      tag_247\n      jumpi\n        /* \"#utility.yul\":1409:1488   */\n      tag_248\n      tag_239\n      jump\t// in\n    tag_248:\n        /* \"#utility.yul\":1371:1490   */\n    tag_247:\n        /* \"#utility.yul\":1529:1530   */\n      0x00\n        /* \"#utility.yul\":1554:1607   */\n      tag_249\n        /* \"#utility.yul\":1599:1606   */\n      dup7\n        /* \"#utility.yul\":1590:1596   */\n      dup3\n        /* \"#utility.yul\":1579:1588   */\n      dup8\n        /* \"#utility.yul\":1575:1597   */\n      add\n        /* \"#utility.yul\":1554:1607   */\n      tag_225\n      jump\t// in\n    tag_249:\n        /* \"#utility.yul\":1544:1607   */\n      swap4\n      pop\n        /* \"#utility.yul\":1500:1617   */\n      pop\n        /* \"#utility.yul\":1656:1658   */\n      0x20\n        /* \"#utility.yul\":1682:1735   */\n      tag_250\n        /* \"#utility.yul\":1727:1734   */\n      dup7\n        /* \"#utility.yul\":1718:1724   */\n      dup3\n        /* \"#utility.yul\":1707:1716   */\n      dup8\n        /* \"#utility.yul\":1703:1725   */\n      add\n        /* \"#utility.yul\":1682:1735   */\n      tag_225\n      jump\t// in\n    tag_250:\n        /* \"#utility.yul\":1672:1735   */\n      swap3\n      pop\n        /* \"#utility.yul\":1627:1745   */\n      pop\n        /* \"#utility.yul\":1784:1786   */\n      0x40\n        /* \"#utility.yul\":1810:1863   */\n      tag_251\n        /* \"#utility.yul\":1855:1862   */\n      dup7\n        /* \"#utility.yul\":1846:1852   */\n      dup3\n        /* \"#utility.yul\":1835:1844   */\n      dup8\n        /* \"#utility.yul\":1831:1853   */\n      add\n        /* \"#utility.yul\":1810:1863   */\n      tag_229\n      jump\t// in\n    tag_251:\n        /* \"#utility.yul\":1800:1863   */\n      swap2\n      pop\n        /* \"#utility.yul\":1755:1873   */\n      pop\n        /* \"#utility.yul\":1261:1880   */\n      swap3\n      pop\n      swap3\n      pop\n      swap3\n      jump\t// out\n        /* \"#utility.yul\":1886:2360   */\n    tag_30:\n        /* \"#utility.yul\":1954:1960   */\n      0x00\n        /* \"#utility.yul\":1962:1968   */\n      dup1\n        /* \"#utility.yul\":2011:2013   */\n      0x40\n        /* \"#utility.yul\":1999:2008   */\n      dup4\n        /* \"#utility.yul\":1990:1997   */\n      dup6\n        /* \"#utility.yul\":1986:2009   */\n      sub\n        /* \"#utility.yul\":1982:2014   */\n      slt\n        /* \"#utility.yul\":1979:2098   */\n      iszero\n      tag_253\n      jumpi\n        /* \"#utility.yul\":2017:2096   */\n      tag_254\n      tag_239\n      jump\t// in\n    tag_254:\n        /* \"#utility.yul\":1979:2098   */\n    tag_253:\n        /* \"#utility.yul\":2137:2138   */\n      0x00\n        /* \"#utility.yul\":2162:2215   */\n      tag_255\n        /* \"#utility.yul\":2207:2214   */\n      dup6\n        /* \"#utility.yul\":2198:2204   */\n      dup3\n        /* \"#utility.yul\":2187:2196   */\n      dup7\n        /* \"#utility.yul\":2183:2205   */\n      add\n        /* \"#utility.yul\":2162:2215   */\n      tag_225\n      jump\t// in\n    tag_255:\n        /* \"#utility.yul\":2152:2215   */\n      swap3\n      pop\n        /* \"#utility.yul\":2108:2225   */\n      pop\n        /* \"#utility.yul\":2264:2266   */\n      0x20\n        /* \"#utility.yul\":2290:2343   */\n      tag_256\n        /* \"#utility.yul\":2335:2342   */\n      dup6\n        /* \"#utility.yul\":2326:2332   */\n      dup3\n        /* \"#utility.yul\":2315:2324   */\n      dup7\n        /* \"#utility.yul\":2311:2333   */\n      add\n        /* \"#utility.yul\":2290:2343   */\n      tag_229\n      jump\t// in\n    tag_256:\n        /* \"#utility.yul\":2280:2343   */\n      swap2\n      pop\n        /* \"#utility.yul\":2235:2353   */\n      pop\n        /* \"#utility.yul\":1886:2360   */\n      swap3\n      pop\n      swap3\n      swap1\n      pop\n      jump\t// out\n        /* \"#utility.yul\":2366:2717   */\n    tag_183:\n        /* \"#utility.yul\":2436:2442   */\n      0x00\n        /* \"#utility.yul\":2485:2487   */\n      0x20\n        /* \"#utility.yul\":2473:2482   */\n      dup3\n        /* \"#utility.yul\":2464:2471   */\n      dup5\n        /* \"#utility.yul\":2460:2483   */\n      sub\n        /* \"#utility.yul\":2456:2488   */\n      slt\n        /* \"#utility.yul\":2453:2572   */\n      iszero\n      tag_258\n      jumpi\n        /* \"#utility.yul\":2491:2570   */\n      tag_259\n      tag_239\n      jump\t// in\n    tag_259:\n        /* \"#utility.yul\":2453:2572   */\n    tag_258:\n        /* \"#utility.yul\":2611:2612   */\n      0x00\n        /* \"#utility.yul\":2636:2700   */\n      tag_260\n        /* \"#utility.yul\":2692:2699   */\n      dup5\n        /* \"#utility.yul\":2683:2689   */\n      dup3\n        /* \"#utility.yul\":2672:2681   */\n      dup6\n        /* \"#utility.yul\":2668:2690   */\n      add\n        /* \"#utility.yul\":2636:2700   */\n      tag_233\n      jump\t// in\n    tag_260:\n        /* \"#utility.yul\":2626:2700   */\n      swap2\n      pop\n        /* \"#utility.yul\":2582:2710   */\n      pop\n        /* \"#utility.yul\":2366:2717   */\n      swap3\n      swap2\n      pop\n      pop\n      jump\t// out\n        /* \"#utility.yul\":2723:2841   */\n    tag_261:\n        /* \"#utility.yul\":2810:2834   */\n      tag_263\n        /* \"#utility.yul\":2828:2833   */\n      dup2\n        /* \"#utility.yul\":2810:2834   */\n      tag_264\n      jump\t// in\n    tag_263:\n        /* \"#utility.yul\":2805:2808   */\n      dup3\n        /* \"#utility.yul\":2798:2835   */\n      mstore\n        /* \"#utility.yul\":2723:2841   */\n      pop\n      pop\n      jump\t// out\n        /* \"#utility.yul\":2847:2956   */\n    tag_265:\n        /* \"#utility.yul\":2928:2949   */\n      tag_267\n        /* \"#utility.yul\":2943:2948   */\n      dup2\n        /* \"#utility.yul\":2928:2949   */\n      tag_268\n      jump\t// in\n    tag_267:\n        /* \"#utility.yul\":2923:2926   */\n      dup3\n        /* \"#utility.yul\":2916:2950   */\n      mstore\n        /* \"#utility.yul\":2847:2956   */\n      pop\n      pop\n      jump\t// out\n        /* \"#utility.yul\":2962:3326   */\n    tag_269:\n        /* \"#utility.yul\":3050:3053   */\n      0x00\n        /* \"#utility.yul\":3078:3117   */\n      tag_271\n        /* \"#utility.yul\":3111:3116   */\n      dup3\n        /* \"#utility.yul\":3078:3117   */\n      tag_272\n      jump\t// in\n    tag_271:\n        /* \"#utility.yul\":3133:3204   */\n      tag_273\n        /* \"#utility.yul\":3197:3203   */\n      dup2\n        /* \"#utility.yul\":3192:3195   */\n      dup6\n        /* \"#utility.yul\":3133:3204   */\n      tag_274\n      jump\t// in\n    tag_273:\n        /* \"#utility.yul\":3126:3204   */\n      swap4\n      pop\n        /* \"#utility.yul\":3213:3265   */\n      tag_275\n        /* \"#utility.yul\":3258:3264   */\n      dup2\n        /* \"#utility.yul\":3253:3256   */\n      dup6\n        /* \"#utility.yul\":3246:3250   */\n      0x20\n        /* \"#utility.yul\":3239:3244   */\n      dup7\n        /* \"#utility.yul\":3235:3251   */\n      add\n        /* \"#utility.yul\":3213:3265   */\n      tag_276\n      jump\t// in\n    tag_275:\n        /* \"#utility.yul\":3290:3319   */\n      tag_277\n        /* \"#utility.yul\":3312:3318   */\n      dup2\n        /* \"#utility.yul\":3290:3319   */\n      tag_278\n      jump\t// in\n    tag_277:\n        /* \"#utility.yul\":3285:3288   */\n      dup5\n        /* \"#utility.yul\":3281:3320   */\n      add\n        /* \"#utility.yul\":3274:3320   */\n      swap2\n      pop\n        /* \"#utility.yul\":3054:3326   */\n      pop\n        /* \"#utility.yul\":2962:3326   */\n      swap3\n      swap2\n      pop\n      pop\n      jump\t// out\n        /* \"#utility.yul\":3332:3698   */\n    tag_279:\n        /* \"#utility.yul\":3474:3477   */\n      0x00\n        /* \"#utility.yul\":3495:3562   */\n      tag_281\n        /* \"#utility.yul\":3559:3561   */\n      0x23\n        /* \"#utility.yul\":3554:3557   */\n      dup4\n        /* \"#utility.yul\":3495:3562   */\n      tag_274\n      jump\t// in\n    tag_281:\n        /* \"#utility.yul\":3488:3562   */\n      swap2\n      pop\n        /* \"#utility.yul\":3571:3664   */\n      tag_282\n        /* \"#utility.yul\":3660:3663   */\n      dup3\n        /* \"#utility.yul\":3571:3664   */\n      tag_283\n      jump\t// in\n    tag_282:\n        /* \"#utility.yul\":3689:3691   */\n      0x40\n        /* \"#utility.yul\":3684:3687   */\n      dup3\n        /* \"#utility.yul\":3680:3692   */\n      add\n        /* \"#utility.yul\":3673:3692   */\n      swap1\n      pop\n        /* \"#utility.yul\":3332:3698   */\n      swap2\n      swap1\n      pop\n      jump\t// out\n        /* \"#utility.yul\":3704:4070   */\n    tag_284:\n        /* \"#utility.yul\":3846:3849   */\n      0x00\n        /* \"#utility.yul\":3867:3934   */\n      tag_286\n        /* \"#utility.yul\":3931:3933   */\n      0x22\n        /* \"#utility.yul\":3926:3929   */\n      dup4\n        /* \"#utility.yul\":3867:3934   */\n      tag_274\n      jump\t// in\n    tag_286:\n        /* \"#utility.yul\":3860:3934   */\n      swap2\n      pop\n        /* \"#utility.yul\":3943:4036   */\n      tag_287\n        /* \"#utility.yul\":4032:4035   */\n      dup3\n        /* \"#utility.yul\":3943:4036   */\n      tag_288\n      jump\t// in\n    tag_287:\n        /* \"#utility.yul\":4061:4063   */\n      0x40\n        /* \"#utility.yul\":4056:4059   */\n      dup3\n        /* \"#utility.yul\":4052:4064   */\n      add\n        /* \"#utility.yul\":4045:4064   */\n      swap1\n      pop\n        /* \"#utility.yul\":3704:4070   */\n      swap2\n      swap1\n      pop\n      jump\t// out\n        /* \"#utility.yul\":4076:4442   */\n    tag_289:\n        /* \"#utility.yul\":4218:4221   */\n      0x00\n        /* \"#utility.yul\":4239:4306   */\n      tag_291\n        /* \"#utility.yul\":4303:4305   */\n      0x26\n        /* \"#utility.yul\":4298:4301   */\n      dup4\n        /* \"#utility.yul\":4239:4306   */\n      tag_274\n      jump\t// in\n    tag_291:\n        /* \"#utility.yul\":4232:4306   */\n      swap2\n      pop\n        /* \"#utility.yul\":4315:4408   */\n      tag_292\n        /* \"#utility.yul\":4404:4407   */\n      dup3\n        /* \"#utility.yul\":4315:4408   */\n      tag_293\n      jump\t// in\n    tag_292:\n        /* \"#utility.yul\":4433:4435   */\n      0x40\n        /* \"#utility.yul\":4428:4431   */\n      dup3\n        /* \"#utility.yul\":4424:4436   */\n      add\n        /* \"#utility.yul\":4417:4436   */\n      swap1\n      pop\n        /* \"#utility.yul\":4076:4442   */\n      swap2\n      swap1\n      pop\n      jump\t// out\n        /* \"#utility.yul\":4448:4814   */\n    tag_294:\n        /* \"#utility.yul\":4590:4593   */\n      0x00\n        /* \"#utility.yul\":4611:4678   */\n      tag_296\n        /* \"#utility.yul\":4675:4677   */\n      0x22\n        /* \"#utility.yul\":4670:4673   */\n      dup4\n        /* \"#utility.yul\":4611:4678   */\n      tag_274\n      jump\t// in\n    tag_296:\n        /* \"#utility.yul\":4604:4678   */\n      swap2\n      pop\n        /* \"#utility.yul\":4687:4780   */\n      tag_297\n        /* \"#utility.yul\":4776:4779   */\n      dup3\n        /* \"#utility.yul\":4687:4780   */\n      tag_298\n      jump\t// in\n    tag_297:\n        /* \"#utility.yul\":4805:4807   */\n      0x40\n        /* \"#utility.yul\":4800:4803   */\n      dup3\n        /* \"#utility.yul\":4796:4808   */\n      add\n        /* \"#utility.yul\":4789:4808   */\n      swap1\n      pop\n        /* \"#utility.yul\":4448:4814   */\n      swap2\n      swap1\n      pop\n      jump\t// out\n        /* \"#utility.yul\":4820:5186   */\n    tag_299:\n        /* \"#utility.yul\":4962:4965   */\n      0x00\n        /* \"#utility.yul\":4983:5050   */\n      tag_301\n        /* \"#utility.yul\":5047:5049   */\n      0x26\n        /* \"#utility.yul\":5042:5045   */\n      dup4\n        /* \"#utility.yul\":4983:5050   */\n      tag_274\n      jump\t// in\n    tag_301:\n        /* \"#utility.yul\":4976:5050   */\n      swap2\n      pop\n        /* \"#utility.yul\":5059:5152   */\n      tag_302\n        /* \"#utility.yul\":5148:5151   */\n      dup3\n        /* \"#utility.yul\":5059:5152   */\n      tag_303\n      jump\t// in\n    tag_302:\n        /* \"#utility.yul\":5177:5179   */\n      0x40\n        /* \"#utility.yul\":5172:5175   */\n      dup3\n        /* \"#utility.yul\":5168:5180   */\n      add\n        /* \"#utility.yul\":5161:5180   */\n      swap1\n      pop\n        /* \"#utility.yul\":4820:5186   */\n      swap2\n      swap1\n      pop\n      jump\t// out\n        /* \"#utility.yul\":5192:5558   */\n    tag_304:\n        /* \"#utility.yul\":5334:5337   */\n      0x00\n        /* \"#utility.yul\":5355:5422   */\n      tag_306\n        /* \"#utility.yul\":5419:5421   */\n      0x19\n        /* \"#utility.yul\":5414:5417   */\n      dup4\n        /* \"#utility.yul\":5355:5422   */\n      tag_274\n      jump\t// in\n    tag_306:\n        /* \"#utility.yul\":5348:5422   */\n      swap2\n      pop\n        /* \"#utility.yul\":5431:5524   */\n      tag_307\n        /* \"#utility.yul\":5520:5523   */\n      dup3\n        /* \"#utility.yul\":5431:5524   */\n      tag_308\n      jump\t// in\n    tag_307:\n        /* \"#utility.yul\":5549:5551   */\n      0x20\n        /* \"#utility.yul\":5544:5547   */\n      dup3\n        /* \"#utility.yul\":5540:5552   */\n      add\n        /* \"#utility.yul\":5533:5552   */\n      swap1\n      pop\n        /* \"#utility.yul\":5192:5558   */\n      swap2\n      swap1\n      pop\n      jump\t// out\n        /* \"#utility.yul\":5564:5930   */\n    tag_309:\n        /* \"#utility.yul\":5706:5709   */\n      0x00\n        /* \"#utility.yul\":5727:5794   */\n      tag_311\n        /* \"#utility.yul\":5791:5793   */\n      0x28\n        /* \"#utility.yul\":5786:5789   */\n      dup4\n        /* \"#utility.yul\":5727:5794   */\n      tag_274\n      jump\t// in\n    tag_311:\n        /* \"#utility.yul\":5720:5794   */\n      swap2\n      pop\n        /* \"#utility.yul\":5803:5896   */\n      tag_312\n        /* \"#utility.yul\":5892:5895   */\n      dup3\n        /* \"#utility.yul\":5803:5896   */\n      tag_313\n      jump\t// in\n    tag_312:\n        /* \"#utility.yul\":5921:5923   */\n      0x40\n        /* \"#utility.yul\":5916:5919   */\n      dup3\n        /* \"#utility.yul\":5912:5924   */\n      add\n        /* \"#utility.yul\":5905:5924   */\n      swap1\n      pop\n        /* \"#utility.yul\":5564:5930   */\n      swap2\n      swap1\n      pop\n      jump\t// out\n        /* \"#utility.yul\":5936:6302   */\n    tag_314:\n        /* \"#utility.yul\":6078:6081   */\n      0x00\n        /* \"#utility.yul\":6099:6166   */\n      tag_316\n        /* \"#utility.yul\":6163:6165   */\n      0x20\n        /* \"#utility.yul\":6158:6161   */\n      dup4\n        /* \"#utility.yul\":6099:6166   */\n      tag_274\n      jump\t// in\n    tag_316:\n        /* \"#utility.yul\":6092:6166   */\n      swap2\n      pop\n        /* \"#utility.yul\":6175:6268   */\n      tag_317\n        /* \"#utility.yul\":6264:6267   */\n      dup3\n        /* \"#utility.yul\":6175:6268   */\n      tag_318\n      jump\t// in\n    tag_317:\n        /* \"#utility.yul\":6293:6295   */\n      0x20\n        /* \"#utility.yul\":6288:6291   */\n      dup3\n        /* \"#utility.yul\":6284:6296   */\n      add\n        /* \"#utility.yul\":6277:6296   */\n      swap1\n      pop\n        /* \"#utility.yul\":5936:6302   */\n      swap2\n      swap1\n      pop\n      jump\t// out\n        /* \"#utility.yul\":6308:6674   */\n    tag_319:\n        /* \"#utility.yul\":6450:6453   */\n      0x00\n        /* \"#utility.yul\":6471:6538   */\n      tag_321\n        /* \"#utility.yul\":6535:6537   */\n      0x21\n        /* \"#utility.yul\":6530:6533   */\n      dup4\n        /* \"#utility.yul\":6471:6538   */\n      tag_274\n      jump\t// in\n    tag_321:\n        /* \"#utility.yul\":6464:6538   */\n      swap2\n      pop\n        /* \"#utility.yul\":6547:6640   */\n      tag_322\n        /* \"#utility.yul\":6636:6639   */\n      dup3\n        /* \"#utility.yul\":6547:6640   */\n      tag_323\n      jump\t// in\n    tag_322:\n        /* \"#utility.yul\":6665:6667   */\n      0x40\n        /* \"#utility.yul\":6660:6663   */\n      dup3\n        /* \"#utility.yul\":6656:6668   */\n      add\n        /* \"#utility.yul\":6649:6668   */\n      swap1\n      pop\n        /* \"#utility.yul\":6308:6674   */\n      swap2\n      swap1\n      pop\n      jump\t// out\n        /* \"#utility.yul\":6680:7046   */\n    tag_324:\n        /* \"#utility.yul\":6822:6825   */\n      0x00\n        /* \"#utility.yul\":6843:6910   */\n      tag_326\n        /* \"#utility.yul\":6907:6909   */\n      0x25\n        /* \"#utility.yul\":6902:6905   */\n      dup4\n        /* \"#utility.yul\":6843:6910   */\n      tag_274\n      jump\t// in\n    tag_326:\n        /* \"#utility.yul\":6836:6910   */\n      swap2\n      pop\n        /* \"#utility.yul\":6919:7012   */\n      tag_327\n        /* \"#utility.yul\":7008:7011   */\n      dup3\n        /* \"#utility.yul\":6919:7012   */\n      tag_328\n      jump\t// in\n    tag_327:\n        /* \"#utility.yul\":7037:7039   */\n      0x40\n        /* \"#utility.yul\":7032:7035   */\n      dup3\n        /* \"#utility.yul\":7028:7040   */\n      add\n        /* \"#utility.yul\":7021:7040   */\n      swap1\n      pop\n        /* \"#utility.yul\":6680:7046   */\n      swap2\n      swap1\n      pop\n      jump\t// out\n        /* \"#utility.yul\":7052:7418   */\n    tag_329:\n        /* \"#utility.yul\":7194:7197   */\n      0x00\n        /* \"#utility.yul\":7215:7282   */\n      tag_331\n        /* \"#utility.yul\":7279:7281   */\n      0x24\n        /* \"#utility.yul\":7274:7277   */\n      dup4\n        /* \"#utility.yul\":7215:7282   */\n      tag_274\n      jump\t// in\n    tag_331:\n        /* \"#utility.yul\":7208:7282   */\n      swap2\n      pop\n        /* \"#utility.yul\":7291:7384   */\n      tag_332\n        /* \"#utility.yul\":7380:7383   */\n      dup3\n        /* \"#utility.yul\":7291:7384   */\n      tag_333\n      jump\t// in\n    tag_332:\n        /* \"#utility.yul\":7409:7411   */\n      0x40\n        /* \"#utility.yul\":7404:7407   */\n      dup3\n        /* \"#utility.yul\":7400:7412   */\n      add\n        /* \"#utility.yul\":7393:7412   */\n      swap1\n      pop\n        /* \"#utility.yul\":7052:7418   */\n      swap2\n      swap1\n      pop\n      jump\t// out\n        /* \"#utility.yul\":7424:7790   */\n    tag_334:\n        /* \"#utility.yul\":7566:7569   */\n      0x00\n        /* \"#utility.yul\":7587:7654   */\n      tag_336\n        /* \"#utility.yul\":7651:7653   */\n      0x25\n        /* \"#utility.yul\":7646:7649   */\n      dup4\n        /* \"#utility.yul\":7587:7654   */\n      tag_274\n      jump\t// in\n    tag_336:\n        /* \"#utility.yul\":7580:7654   */\n      swap2\n      pop\n        /* \"#utility.yul\":7663:7756   */\n      tag_337\n        /* \"#utility.yul\":7752:7755   */\n      dup3\n        /* \"#utility.yul\":7663:7756   */\n      tag_338\n      jump\t// in\n    tag_337:\n        /* \"#utility.yul\":7781:7783   */\n      0x40\n        /* \"#utility.yul\":7776:7779   */\n      dup3\n        /* \"#utility.yul\":7772:7784   */\n      add\n        /* \"#utility.yul\":7765:7784   */\n      swap1\n      pop\n        /* \"#utility.yul\":7424:7790   */\n      swap2\n      swap1\n      pop\n      jump\t// out\n        /* \"#utility.yul\":7796:7914   */\n    tag_339:\n        /* \"#utility.yul\":7883:7907   */\n      tag_341\n        /* \"#utility.yul\":7901:7906   */\n      dup2\n        /* \"#utility.yul\":7883:7907   */\n      tag_342\n      jump\t// in\n    tag_341:\n        /* \"#utility.yul\":7878:7881   */\n      dup3\n        /* \"#utility.yul\":7871:7908   */\n      mstore\n        /* \"#utility.yul\":7796:7914   */\n      pop\n      pop\n      jump\t// out\n        /* \"#utility.yul\":7920:8032   */\n    tag_343:\n        /* \"#utility.yul\":8003:8025   */\n      tag_345\n        /* \"#utility.yul\":8019:8024   */\n      dup2\n        /* \"#utility.yul\":8003:8025   */\n      tag_346\n      jump\t// in\n    tag_345:\n        /* \"#utility.yul\":7998:8001   */\n      dup3\n        /* \"#utility.yul\":7991:8026   */\n      mstore\n        /* \"#utility.yul\":7920:8032   */\n      pop\n      pop\n      jump\t// out\n        /* \"#utility.yul\":8038:8260   */\n    tag_61:\n        /* \"#utility.yul\":8131:8135   */\n      0x00\n        /* \"#utility.yul\":8169:8171   */\n      0x20\n        /* \"#utility.yul\":8158:8167   */\n      dup3\n        /* \"#utility.yul\":8154:8172   */\n      add\n        /* \"#utility.yul\":8146:8172   */\n      swap1\n      pop\n        /* \"#utility.yul\":8182:8253   */\n      tag_348\n        /* \"#utility.yul\":8250:8251   */\n      0x00\n        /* \"#utility.yul\":8239:8248   */\n      dup4\n        /* \"#utility.yul\":8235:8252   */\n      add\n        /* \"#utility.yul\":8226:8232   */\n      dup5\n        /* \"#utility.yul\":8182:8253   */\n      tag_261\n      jump\t// in\n    tag_348:\n        /* \"#utility.yul\":8038:8260   */\n      swap3\n      swap2\n      pop\n      pop\n      jump\t// out\n        /* \"#utility.yul\":8266:8476   */\n    tag_33:\n        /* \"#utility.yul\":8353:8357   */\n      0x00\n        /* \"#utility.yul\":8391:8393   */\n      0x20\n        /* \"#utility.yul\":8380:8389   */\n      dup3\n        /* \"#utility.yul\":8376:8394   */\n      add\n        /* \"#utility.yul\":8368:8394   */\n      swap1\n      pop\n        /* \"#utility.yul\":8404:8469   */\n      tag_350\n        /* \"#utility.yul\":8466:8467   */\n      0x00\n        /* \"#utility.yul\":8455:8464   */\n      dup4\n        /* \"#utility.yul\":8451:8468   */\n      add\n        /* \"#utility.yul\":8442:8448   */\n      dup5\n        /* \"#utility.yul\":8404:8469   */\n      tag_265\n      jump\t// in\n    tag_350:\n        /* \"#utility.yul\":8266:8476   */\n      swap3\n      swap2\n      pop\n      pop\n      jump\t// out\n        /* \"#utility.yul\":8482:8795   */\n    tag_27:\n        /* \"#utility.yul\":8595:8599   */\n      0x00\n        /* \"#utility.yul\":8633:8635   */\n      0x20\n        /* \"#utility.yul\":8622:8631   */\n      dup3\n        /* \"#utility.yul\":8618:8636   */\n      add\n        /* \"#utility.yul\":8610:8636   */\n      swap1\n      pop\n        /* \"#utility.yul\":8682:8691   */\n      dup2\n        /* \"#utility.yul\":8676:8680   */\n      dup2\n        /* \"#utility.yul\":8672:8692   */\n      sub\n        /* \"#utility.yul\":8668:8669   */\n      0x00\n        /* \"#utility.yul\":8657:8666   */\n      dup4\n        /* \"#utility.yul\":8653:8670   */\n      add\n        /* \"#utility.yul\":8646:8693   */\n      mstore\n        /* \"#utility.yul\":8710:8788   */\n      tag_352\n        /* \"#utility.yul\":8783:8787   */\n      dup2\n        /* \"#utility.yul\":8774:8780   */\n      dup5\n        /* \"#utility.yul\":8710:8788   */\n      tag_269\n      jump\t// in\n    tag_352:\n        /* \"#utility.yul\":8702:8788   */\n      swap1\n      pop\n        /* \"#utility.yul\":8482:8795   */\n      swap3\n      swap2\n      pop\n      pop\n      jump\t// out\n        /* \"#utility.yul\":8801:9220   */\n    tag_199:\n        /* \"#utility.yul\":8967:8971   */\n      0x00\n        /* \"#utility.yul\":9005:9007   */\n      0x20\n        /* \"#utility.yul\":8994:9003   */\n      dup3\n        /* \"#utility.yul\":8990:9008   */\n      add\n        /* \"#utility.yul\":8982:9008   */\n      swap1\n      pop\n        /* \"#utility.yul\":9054:9063   */\n      dup2\n        /* \"#utility.yul\":9048:9052   */\n      dup2\n        /* \"#utility.yul\":9044:9064   */\n      sub\n        /* \"#utility.yul\":9040:9041   */\n      0x00\n        /* \"#utility.yul\":9029:9038   */\n      dup4\n        /* \"#utility.yul\":9025:9042   */\n      add\n        /* \"#utility.yul\":9018:9065   */\n      mstore\n        /* \"#utility.yul\":9082:9213   */\n      tag_354\n        /* \"#utility.yul\":9208:9212   */\n      dup2\n        /* \"#utility.yul\":9082:9213   */\n      tag_279\n      jump\t// in\n    tag_354:\n        /* \"#utility.yul\":9074:9213   */\n      swap1\n      pop\n        /* \"#utility.yul\":8801:9220   */\n      swap2\n      swap1\n      pop\n      jump\t// out\n        /* \"#utility.yul\":9226:9645   */\n    tag_217:\n        /* \"#utility.yul\":9392:9396   */\n      0x00\n        /* \"#utility.yul\":9430:9432   */\n      0x20\n        /* \"#utility.yul\":9419:9428   */\n      dup3\n        /* \"#utility.yul\":9415:9433   */\n      add\n        /* \"#utility.yul\":9407:9433   */\n      swap1\n      pop\n        /* \"#utility.yul\":9479:9488   */\n      dup2\n        /* \"#utility.yul\":9473:9477   */\n      dup2\n        /* \"#utility.yul\":9469:9489   */\n      sub\n        /* \"#utility.yul\":9465:9466   */\n      0x00\n        /* \"#utility.yul\":9454:9463   */\n      dup4\n        /* \"#utility.yul\":9450:9467   */\n      add\n        /* \"#utility.yul\":9443:9490   */\n      mstore\n        /* \"#utility.yul\":9507:9638   */\n      tag_356\n        /* \"#utility.yul\":9633:9637   */\n      dup2\n        /* \"#utility.yul\":9507:9638   */\n      tag_284\n      jump\t// in\n    tag_356:\n        /* \"#utility.yul\":9499:9638   */\n      swap1\n      pop\n        /* \"#utility.yul\":9226:9645   */\n      swap2\n      swap1\n      pop\n      jump\t// out\n        /* \"#utility.yul\":9651:10070   */\n    tag_170:\n        /* \"#utility.yul\":9817:9821   */\n      0x00\n        /* \"#utility.yul\":9855:9857   */\n      0x20\n        /* \"#utility.yul\":9844:9853   */\n      dup3\n        /* \"#utility.yul\":9840:9858   */\n      add\n        /* \"#utility.yul\":9832:9858   */\n      swap1\n      pop\n        /* \"#utility.yul\":9904:9913   */\n      dup2\n        /* \"#utility.yul\":9898:9902   */\n      dup2\n        /* \"#utility.yul\":9894:9914   */\n      sub\n        /* \"#utility.yul\":9890:9891   */\n      0x00\n        /* \"#utility.yul\":9879:9888   */\n      dup4\n        /* \"#utility.yul\":9875:9892   */\n      add\n        /* \"#utility.yul\":9868:9915   */\n      mstore\n        /* \"#utility.yul\":9932:10063   */\n      tag_358\n        /* \"#utility.yul\":10058:10062   */\n      dup2\n        /* \"#utility.yul\":9932:10063   */\n      tag_289\n      jump\t// in\n    tag_358:\n        /* \"#utility.yul\":9924:10063   */\n      swap1\n      pop\n        /* \"#utility.yul\":9651:10070   */\n      swap2\n      swap1\n      pop\n      jump\t// out\n        /* \"#utility.yul\":10076:10495   */\n    tag_191:\n        /* \"#utility.yul\":10242:10246   */\n      0x00\n        /* \"#utility.yul\":10280:10282   */\n      0x20\n        /* \"#utility.yul\":10269:10278   */\n      dup3\n        /* \"#utility.yul\":10265:10283   */\n      add\n        /* \"#utility.yul\":10257:10283   */\n      swap1\n      pop\n        /* \"#utility.yul\":10329:10338   */\n      dup2\n        /* \"#utility.yul\":10323:10327   */\n      dup2\n        /* \"#utility.yul\":10319:10339   */\n      sub\n        /* \"#utility.yul\":10315:10316   */\n      0x00\n        /* \"#utility.yul\":10304:10313   */\n      dup4\n        /* \"#utility.yul\":10300:10317   */\n      add\n        /* \"#utility.yul\":10293:10340   */\n      mstore\n        /* \"#utility.yul\":10357:10488   */\n      tag_360\n        /* \"#utility.yul\":10483:10487   */\n      dup2\n        /* \"#utility.yul\":10357:10488   */\n      tag_294\n      jump\t// in\n    tag_360:\n        /* \"#utility.yul\":10349:10488   */\n      swap1\n      pop\n        /* \"#utility.yul\":10076:10495   */\n      swap2\n      swap1\n      pop\n      jump\t// out\n        /* \"#utility.yul\":10501:10920   */\n    tag_204:\n        /* \"#utility.yul\":10667:10671   */\n      0x00\n        /* \"#utility.yul\":10705:10707   */\n      0x20\n        /* \"#utility.yul\":10694:10703   */\n      dup3\n        /* \"#utility.yul\":10690:10708   */\n      add\n        /* \"#utility.yul\":10682:10708   */\n      swap1\n      pop\n        /* \"#utility.yul\":10754:10763   */\n      dup2\n        /* \"#utility.yul\":10748:10752   */\n      dup2\n        /* \"#utility.yul\":10744:10764   */\n      sub\n        /* \"#utility.yul\":10740:10741   */\n      0x00\n        /* \"#utility.yul\":10729:10738   */\n      dup4\n        /* \"#utility.yul\":10725:10742   */\n      add\n        /* \"#utility.yul\":10718:10765   */\n      mstore\n        /* \"#utility.yul\":10782:10913   */\n      tag_362\n        /* \"#utility.yul\":10908:10912   */\n      dup2\n        /* \"#utility.yul\":10782:10913   */\n      tag_299\n      jump\t// in\n    tag_362:\n        /* \"#utility.yul\":10774:10913   */\n      swap1\n      pop\n        /* \"#utility.yul\":10501:10920   */\n      swap2\n      swap1\n      pop\n      jump\t// out\n        /* \"#utility.yul\":10926:11345   */\n    tag_142:\n        /* \"#utility.yul\":11092:11096   */\n      0x00\n        /* \"#utility.yul\":11130:11132   */\n      0x20\n        /* \"#utility.yul\":11119:11128   */\n      dup3\n        /* \"#utility.yul\":11115:11133   */\n      add\n        /* \"#utility.yul\":11107:11133   */\n      swap1\n      pop\n        /* \"#utility.yul\":11179:11188   */\n      dup2\n        /* \"#utility.yul\":11173:11177   */\n      dup2\n        /* \"#utility.yul\":11169:11189   */\n      sub\n        /* \"#utility.yul\":11165:11166   */\n      0x00\n        /* \"#utility.yul\":11154:11163   */\n      dup4\n        /* \"#utility.yul\":11150:11167   */\n      add\n        /* \"#utility.yul\":11143:11190   */\n      mstore\n        /* \"#utility.yul\":11207:11338   */\n      tag_364\n        /* \"#utility.yul\":11333:11337   */\n      dup2\n        /* \"#utility.yul\":11207:11338   */\n      tag_304\n      jump\t// in\n    tag_364:\n        /* \"#utility.yul\":11199:11338   */\n      swap1\n      pop\n        /* \"#utility.yul\":10926:11345   */\n      swap2\n      swap1\n      pop\n      jump\t// out\n        /* \"#utility.yul\":11351:11770   */\n    tag_112:\n        /* \"#utility.yul\":11517:11521   */\n      0x00\n        /* \"#utility.yul\":11555:11557   */\n      0x20\n        /* \"#utility.yul\":11544:11553   */\n      dup3\n        /* \"#utility.yul\":11540:11558   */\n      add\n        /* \"#utility.yul\":11532:11558   */\n      swap1\n      pop\n        /* \"#utility.yul\":11604:11613   */\n      dup2\n        /* \"#utility.yul\":11598:11602   */\n      dup2\n        /* \"#utility.yul\":11594:11614   */\n      sub\n        /* \"#utility.yul\":11590:11591   */\n      0x00\n        /* \"#utility.yul\":11579:11588   */\n      dup4\n        /* \"#utility.yul\":11575:11592   */\n      add\n        /* \"#utility.yul\":11568:11615   */\n      mstore\n        /* \"#utility.yul\":11632:11763   */\n      tag_366\n        /* \"#utility.yul\":11758:11762   */\n      dup2\n        /* \"#utility.yul\":11632:11763   */\n      tag_309\n      jump\t// in\n    tag_366:\n        /* \"#utility.yul\":11624:11763   */\n      swap1\n      pop\n        /* \"#utility.yul\":11351:11770   */\n      swap2\n      swap1\n      pop\n      jump\t// out\n        /* \"#utility.yul\":11776:12195   */\n    tag_128:\n        /* \"#utility.yul\":11942:11946   */\n      0x00\n        /* \"#utility.yul\":11980:11982   */\n      0x20\n        /* \"#utility.yul\":11969:11978   */\n      dup3\n        /* \"#utility.yul\":11965:11983   */\n      add\n        /* \"#utility.yul\":11957:11983   */\n      swap1\n      pop\n        /* \"#utility.yul\":12029:12038   */\n      dup2\n        /* \"#utility.yul\":12023:12027   */\n      dup2\n        /* \"#utility.yul\":12019:12039   */\n      sub\n        /* \"#utility.yul\":12015:12016   */\n      0x00\n        /* \"#utility.yul\":12004:12013   */\n      dup4\n        /* \"#utility.yul\":12000:12017   */\n      add\n        /* \"#utility.yul\":11993:12040   */\n      mstore\n        /* \"#utility.yul\":12057:12188   */\n      tag_368\n        /* \"#utility.yul\":12183:12187   */\n      dup2\n        /* \"#utility.yul\":12057:12188   */\n      tag_314\n      jump\t// in\n    tag_368:\n        /* \"#utility.yul\":12049:12188   */\n      swap1\n      pop\n        /* \"#utility.yul\":11776:12195   */\n      swap2\n      swap1\n      pop\n      jump\t// out\n        /* \"#utility.yul\":12201:12620   */\n    tag_213:\n        /* \"#utility.yul\":12367:12371   */\n      0x00\n        /* \"#utility.yul\":12405:12407   */\n      0x20\n        /* \"#utility.yul\":12394:12403   */\n      dup3\n        /* \"#utility.yul\":12390:12408   */\n      add\n        /* \"#utility.yul\":12382:12408   */\n      swap1\n      pop\n        /* \"#utility.yul\":12454:12463   */\n      dup2\n        /* \"#utility.yul\":12448:12452   */\n      dup2\n        /* \"#utility.yul\":12444:12464   */\n      sub\n        /* \"#utility.yul\":12440:12441   */\n      0x00\n        /* \"#utility.yul\":12429:12438   */\n      dup4\n        /* \"#utility.yul\":12425:12442   */\n      add\n        /* \"#utility.yul\":12418:12465   */\n      mstore\n        /* \"#utility.yul\":12482:12613   */\n      tag_370\n        /* \"#utility.yul\":12608:12612   */\n      dup2\n        /* \"#utility.yul\":12482:12613   */\n      tag_319\n      jump\t// in\n    tag_370:\n        /* \"#utility.yul\":12474:12613   */\n      swap1\n      pop\n        /* \"#utility.yul\":12201:12620   */\n      swap2\n      swap1\n      pop\n      jump\t// out\n        /* \"#utility.yul\":12626:13045   */\n    tag_196:\n        /* \"#utility.yul\":12792:12796   */\n      0x00\n        /* \"#utility.yul\":12830:12832   */\n      0x20\n        /* \"#utility.yul\":12819:12828   */\n      dup3\n        /* \"#utility.yul\":12815:12833   */\n      add\n        /* \"#utility.yul\":12807:12833   */\n      swap1\n      pop\n        /* \"#utility.yul\":12879:12888   */\n      dup2\n        /* \"#utility.yul\":12873:12877   */\n      dup2\n        /* \"#utility.yul\":12869:12889   */\n      sub\n        /* \"#utility.yul\":12865:12866   */\n      0x00\n        /* \"#utility.yul\":12854:12863   */\n      dup4\n        /* \"#utility.yul\":12850:12867   */\n      add\n        /* \"#utility.yul\":12843:12890   */\n      mstore\n        /* \"#utility.yul\":12907:13038   */\n      tag_372\n        /* \"#utility.yul\":13033:13037   */\n      dup2\n        /* \"#utility.yul\":12907:13038   */\n      tag_324\n      jump\t// in\n    tag_372:\n        /* \"#utility.yul\":12899:13038   */\n      swap1\n      pop\n        /* \"#utility.yul\":12626:13045   */\n      swap2\n      swap1\n      pop\n      jump\t// out\n        /* \"#utility.yul\":13051:13470   */\n    tag_188:\n        /* \"#utility.yul\":13217:13221   */\n      0x00\n        /* \"#utility.yul\":13255:13257   */\n      0x20\n        /* \"#utility.yul\":13244:13253   */\n      dup3\n        /* \"#utility.yul\":13240:13258   */\n      add\n        /* \"#utility.yul\":13232:13258   */\n      swap1\n      pop\n        /* \"#utility.yul\":13304:13313   */\n      dup2\n        /* \"#utility.yul\":13298:13302   */\n      dup2\n        /* \"#utility.yul\":13294:13314   */\n      sub\n        /* \"#utility.yul\":13290:13291   */\n      0x00\n        /* \"#utility.yul\":13279:13288   */\n      dup4\n        /* \"#utility.yul\":13275:13292   */\n      add\n        /* \"#utility.yul\":13268:13315   */\n      mstore\n        /* \"#utility.yul\":13332:13463   */\n      tag_374\n        /* \"#utility.yul\":13458:13462   */\n      dup2\n        /* \"#utility.yul\":13332:13463   */\n      tag_329\n      jump\t// in\n    tag_374:\n        /* \"#utility.yul\":13324:13463   */\n      swap1\n      pop\n        /* \"#utility.yul\":13051:13470   */\n      swap2\n      swap1\n      pop\n      jump\t// out\n        /* \"#utility.yul\":13476:13895   */\n    tag_149:\n        /* \"#utility.yul\":13642:13646   */\n      0x00\n        /* \"#utility.yul\":13680:13682   */\n      0x20\n        /* \"#utility.yul\":13669:13678   */\n      dup3\n        /* \"#utility.yul\":13665:13683   */\n      add\n        /* \"#utility.yul\":13657:13683   */\n      swap1\n      pop\n        /* \"#utility.yul\":13729:13738   */\n      dup2\n        /* \"#utility.yul\":13723:13727   */\n      dup2\n        /* \"#utility.yul\":13719:13739   */\n      sub\n        /* \"#utility.yul\":13715:13716   */\n      0x00\n        /* \"#utility.yul\":13704:13713   */\n      dup4\n        /* \"#utility.yul\":13700:13717   */\n      add\n        /* \"#utility.yul\":13693:13740   */\n      mstore\n        /* \"#utility.yul\":13757:13888   */\n      tag_376\n        /* \"#utility.yul\":13883:13887   */\n      dup2\n        /* \"#utility.yul\":13757:13888   */\n      tag_334\n      jump\t// in\n    tag_376:\n        /* \"#utility.yul\":13749:13888   */\n      swap1\n      pop\n        /* \"#utility.yul\":13476:13895   */\n      swap2\n      swap1\n      pop\n      jump\t// out\n        /* \"#utility.yul\":13901:14123   */\n    tag_37:\n        /* \"#utility.yul\":13994:13998   */\n      0x00\n        /* \"#utility.yul\":14032:14034   */\n      0x20\n        /* \"#utility.yul\":14021:14030   */\n      dup3\n        /* \"#utility.yul\":14017:14035   */\n      add\n        /* \"#utility.yul\":14009:14035   */\n      swap1\n      pop\n        /* \"#utility.yul\":14045:14116   */\n      tag_378\n        /* \"#utility.yul\":14113:14114   */\n      0x00\n        /* \"#utility.yul\":14102:14111   */\n      dup4\n        /* \"#utility.yul\":14098:14115   */\n      add\n        /* \"#utility.yul\":14089:14095   */\n      dup5\n        /* \"#utility.yul\":14045:14116   */\n      tag_339\n      jump\t// in\n    tag_378:\n        /* \"#utility.yul\":13901:14123   */\n      swap3\n      swap2\n      pop\n      pop\n      jump\t// out\n        /* \"#utility.yul\":14129:14343   */\n    tag_46:\n        /* \"#utility.yul\":14218:14222   */\n      0x00\n        /* \"#utility.yul\":14256:14258   */\n      0x20\n        /* \"#utility.yul\":14245:14254   */\n      dup3\n        /* \"#utility.yul\":14241:14259   */\n      add\n        /* \"#utility.yul\":14233:14259   */\n      swap1\n      pop\n        /* \"#utility.yul\":14269:14336   */\n      tag_380\n        /* \"#utility.yul\":14333:14334   */\n      0x00\n        /* \"#utility.yul\":14322:14331   */\n      dup4\n        /* \"#utility.yul\":14318:14335   */\n      add\n        /* \"#utility.yul\":14309:14315   */\n      dup5\n        /* \"#utility.yul\":14269:14336   */\n      tag_343\n      jump\t// in\n    tag_380:\n        /* \"#utility.yul\":14129:14343   */\n      swap3\n      swap2\n      pop\n      pop\n      jump\t// out\n        /* \"#utility.yul\":14430:14529   */\n    tag_272:\n        /* \"#utility.yul\":14482:14488   */\n      0x00\n        /* \"#utility.yul\":14516:14521   */\n      dup2\n        /* \"#utility.yul\":14510:14522   */\n      mload\n        /* \"#utility.yul\":14500:14522   */\n      swap1\n      pop\n        /* \"#utility.yul\":14430:14529   */\n      swap2\n      swap1\n      pop\n      jump\t// out\n        /* \"#utility.yul\":14535:14704   */\n    tag_274:\n        /* \"#utility.yul\":14619:14630   */\n      0x00\n        /* \"#utility.yul\":14653:14659   */\n      dup3\n        /* \"#utility.yul\":14648:14651   */\n      dup3\n        /* \"#utility.yul\":14641:14660   */\n      mstore\n        /* \"#utility.yul\":14693:14697   */\n      0x20\n        /* \"#utility.yul\":14688:14691   */\n      dup3\n        /* \"#utility.yul\":14684:14698   */\n      add\n        /* \"#utility.yul\":14669:14698   */\n      swap1\n      pop\n        /* \"#utility.yul\":14535:14704   */\n      swap3\n      swap2\n      pop\n      pop\n      jump\t// out\n        /* \"#utility.yul\":14710:15015   */\n    tag_121:\n        /* \"#utility.yul\":14750:14753   */\n      0x00\n        /* \"#utility.yul\":14769:14789   */\n      tag_386\n        /* \"#utility.yul\":14787:14788   */\n      dup3\n        /* \"#utility.yul\":14769:14789   */\n      tag_342\n      jump\t// in\n    tag_386:\n        /* \"#utility.yul\":14764:14789   */\n      swap2\n      pop\n        /* \"#utility.yul\":14803:14823   */\n      tag_387\n        /* \"#utility.yul\":14821:14822   */\n      dup4\n        /* \"#utility.yul\":14803:14823   */\n      tag_342\n      jump\t// in\n    tag_387:\n        /* \"#utility.yul\":14798:14823   */\n      swap3\n      pop\n        /* \"#utility.yul\":14957:14958   */\n      dup3\n        /* \"#utility.yul\":14889:14955   */\n      0xffffffffffffffffffffffffffffffffffffffffffffffffffffffffffffffff\n        /* \"#utility.yul\":14885:14959   */\n      sub\n        /* \"#utility.yul\":14882:14883   */\n      dup3\n        /* \"#utility.yul\":14879:14960   */\n      gt\n        /* \"#utility.yul\":14876:14983   */\n      iszero\n      tag_388\n      jumpi\n        /* \"#utility.yul\":14963:14981   */\n      tag_389\n      tag_390\n      jump\t// in\n    tag_389:\n        /* \"#utility.yul\":14876:14983   */\n    tag_388:\n        /* \"#utility.yul\":15007:15008   */\n      dup3\n        /* \"#utility.yul\":15004:15005   */\n      dup3\n        /* \"#utility.yul\":15000:15009   */\n      add\n        /* \"#utility.yul\":14993:15009   */\n      swap1\n      pop\n        /* \"#utility.yul\":14710:15015   */\n      swap3\n      swap2\n      pop\n      pop\n      jump\t// out\n        /* \"#utility.yul\":15021:15212   */\n    tag_219:\n        /* \"#utility.yul\":15061:15065   */\n      0x00\n        /* \"#utility.yul\":15081:15101   */\n      tag_392\n        /* \"#utility.yul\":15099:15100   */\n      dup3\n        /* \"#utility.yul\":15081:15101   */\n      tag_342\n      jump\t// in\n    tag_392:\n        /* \"#utility.yul\":15076:15101   */\n      swap2\n      pop\n        /* \"#utility.yul\":15115:15135   */\n      tag_393\n        /* \"#utility.yul\":15133:15134   */\n      dup4\n        /* \"#utility.yul\":15115:15135   */\n      tag_342\n      jump\t// in\n    tag_393:\n        /* \"#utility.yul\":15110:15135   */\n      swap3\n      pop\n        /* \"#utility.yul\":15154:15155   */\n      dup3\n        /* \"#utility.yul\":15151:15152   */\n      dup3\n        /* \"#utility.yul\":15148:15156   */\n      lt\n        /* \"#utility.yul\":15145:15179   */\n      iszero\n      tag_394\n      jumpi\n        /* \"#utility.yul\":15159:15177   */\n      tag_395\n      tag_390\n      jump\t// in\n    tag_395:\n        /* \"#utility.yul\":15145:15179   */\n    tag_394:\n        /* \"#utility.yul\":15204:15205   */\n      dup3\n        /* \"#utility.yul\":15201:15202   */\n      dup3\n        /* \"#utility.yul\":15197:15206   */\n      sub\n        /* \"#utility.yul\":15189:15206   */\n      swap1\n      pop\n        /* \"#utility.yul\":15021:15212   */\n      swap3\n      swap2\n      pop\n      pop\n      jump\t// out\n        /* \"#utility.yul\":15218:15314   */\n    tag_264:\n        /* \"#utility.yul\":15255:15262   */\n      0x00\n        /* \"#utility.yul\":15284:15308   */\n      tag_397\n        /* \"#utility.yul\":15302:15307   */\n      dup3\n        /* \"#utility.yul\":15284:15308   */\n      tag_398\n      jump\t// in\n    tag_397:\n        /* \"#utility.yul\":15273:15308   */\n      swap1\n      pop\n        /* \"#utility.yul\":15218:15314   */\n      swap2\n      swap1\n      pop\n      jump\t// out\n        /* \"#utility.yul\":15320:15410   */\n    tag_268:\n        /* \"#utility.yul\":15354:15361   */\n      0x00\n        /* \"#utility.yul\":15397:15402   */\n      dup2\n        /* \"#utility.yul\":15390:15403   */\n      iszero\n        /* \"#utility.yul\":15383:15404   */\n      iszero\n        /* \"#utility.yul\":15372:15404   */\n      swap1\n      pop\n        /* \"#utility.yul\":15320:15410   */\n      swap2\n      swap1\n      pop\n      jump\t// out\n        /* \"#utility.yul\":15416:15542   */\n    tag_398:\n        /* \"#utility.yul\":15453:15460   */\n      0x00\n        /* \"#utility.yul\":15493:15535   */\n      0xffffffffffffffffffffffffffffffffffffffff\n        /* \"#utility.yul\":15486:15491   */\n      dup3\n        /* \"#utility.yul\":15482:15536   */\n      and\n        /* \"#utility.yul\":15471:15536   */\n      swap1\n      pop\n        /* \"#utility.yul\":15416:15542   */\n      swap2\n      swap1\n      pop\n      jump\t// out\n        /* \"#utility.yul\":15548:15625   */\n    tag_342:\n        /* \"#utility.yul\":15585:15592   */\n      0x00\n        /* \"#utility.yul\":15614:15619   */\n      dup2\n        /* \"#utility.yul\":15603:15619   */\n      swap1\n      pop\n        /* \"#utility.yul\":15548:15625   */\n      swap2\n      swap1\n      pop\n      jump\t// out\n        /* \"#utility.yul\":15631:15717   */\n    tag_346:\n        /* \"#utility.yul\":15666:15673   */\n      0x00\n        /* \"#utility.yul\":15706:15710   */\n      0xff\n        /* \"#utility.yul\":15699:15704   */\n      dup3\n        /* \"#utility.yul\":15695:15711   */\n      and\n        /* \"#utility.yul\":15684:15711   */\n      swap1\n      pop\n        /* \"#utility.yul\":15631:15717   */\n      swap2\n      swap1\n      pop\n      jump\t// out\n        /* \"#utility.yul\":15723:16030   */\n    tag_276:\n        /* \"#utility.yul\":15791:15792   */\n      0x00\n        /* \"#utility.yul\":15801:15914   */\n    tag_404:\n        /* \"#utility.yul\":15815:15821   */\n      dup4\n        /* \"#utility.yul\":15812:15813   */\n      dup2\n        /* \"#utility.yul\":15809:15822   */\n      lt\n        /* \"#utility.yul\":15801:15914   */\n      iszero\n      tag_406\n      jumpi\n        /* \"#utility.yul\":15900:15901   */\n      dup1\n        /* \"#utility.yul\":15895:15898   */\n      dup3\n        /* \"#utility.yul\":15891:15902   */\n      add\n        /* \"#utility.yul\":15885:15903   */\n      mload\n        /* \"#utility.yul\":15881:15882   */\n      dup2\n        /* \"#utility.yul\":15876:15879   */\n      dup5\n        /* \"#utility.yul\":15872:15883   */\n      add\n        /* \"#utility.yul\":15865:15904   */\n      mstore\n        /* \"#utility.yul\":15837:15839   */\n      0x20\n        /* \"#utility.yul\":15834:15835   */\n      dup2\n        /* \"#utility.yul\":15830:15840   */\n      add\n        /* \"#utility.yul\":15825:15840   */\n      swap1\n      pop\n        /* \"#utility.yul\":15801:15914   */\n      jump(tag_404)\n    tag_406:\n        /* \"#utility.yul\":15932:15938   */\n      dup4\n        /* \"#utility.yul\":15929:15930   */\n      dup2\n        /* \"#utility.yul\":15926:15939   */\n      gt\n        /* \"#utility.yul\":15923:16024   */\n      iszero\n      tag_407\n      jumpi\n        /* \"#utility.yul\":16012:16013   */\n      0x00\n        /* \"#utility.yul\":16003:16009   */\n      dup5\n        /* \"#utility.yul\":15998:16001   */\n      dup5\n        /* \"#utility.yul\":15994:16010   */\n      add\n        /* \"#utility.yul\":15987:16014   */\n      mstore\n        /* \"#utility.yul\":15923:16024   */\n    tag_407:\n        /* \"#utility.yul\":15772:16030   */\n      pop\n        /* \"#utility.yul\":15723:16030   */\n      pop\n      pop\n      pop\n      jump\t// out\n        /* \"#utility.yul\":16036:16356   */\n    tag_95:\n        /* \"#utility.yul\":16080:16086   */\n      0x00\n        /* \"#utility.yul\":16117:16118   */\n      0x02\n        /* \"#utility.yul\":16111:16115   */\n      dup3\n        /* \"#utility.yul\":16107:16119   */\n      div\n        /* \"#utility.yul\":16097:16119   */\n      swap1\n      pop\n        /* \"#utility.yul\":16164:16165   */\n      0x01\n        /* \"#utility.yul\":16158:16162   */\n      dup3\n        /* \"#utility.yul\":16154:16166   */\n      and\n        /* \"#utility.yul\":16185:16203   */\n      dup1\n        /* \"#utility.yul\":16175:16256   */\n      tag_409\n      jumpi\n        /* \"#utility.yul\":16241:16245   */\n      0x7f\n        /* \"#utility.yul\":16233:16239   */\n      dup3\n        /* \"#utility.yul\":16229:16246   */\n      and\n        /* \"#utility.yul\":16219:16246   */\n      swap2\n      pop\n        /* \"#utility.yul\":16175:16256   */\n    tag_409:\n        /* \"#utility.yul\":16303:16305   */\n      0x20\n        /* \"#utility.yul\":16295:16301   */\n      dup3\n        /* \"#utility.yul\":16292:16306   */\n      lt\n        /* \"#utility.yul\":16272:16290   */\n      dup2\n        /* \"#utility.yul\":16269:16307   */\n      eq\n        /* \"#utility.yul\":16266:16350   */\n      iszero\n      tag_410\n      jumpi\n        /* \"#utility.yul\":16322:16340   */\n      tag_411\n      tag_412\n      jump\t// in\n    tag_411:\n        /* \"#utility.yul\":16266:16350   */\n    tag_410:\n        /* \"#utility.yul\":16087:16356   */\n      pop\n        /* \"#utility.yul\":16036:16356   */\n      swap2\n      swap1\n      pop\n      jump\t// out\n        /* \"#utility.yul\":16362:16542   */\n    tag_390:\n        /* \"#utility.yul\":16410:16487   */\n      0x4e487b7100000000000000000000000000000000000000000000000000000000\n        /* \"#utility.yul\":16407:16408   */\n      0x00\n        /* \"#utility.yul\":16400:16488   */\n      mstore\n        /* \"#utility.yul\":16507:16511   */\n      0x11\n        /* \"#utility.yul\":16504:16505   */\n      0x04\n        /* \"#utility.yul\":16497:16512   */\n      mstore\n        /* \"#utility.yul\":16531:16535   */\n      0x24\n        /* \"#utility.yul\":16528:16529   */\n      0x00\n        /* \"#utility.yul\":16521:16536   */\n      revert\n        /* \"#utility.yul\":16548:16728   */\n    tag_412:\n        /* \"#utility.yul\":16596:16673   */\n      0x4e487b7100000000000000000000000000000000000000000000000000000000\n        /* \"#utility.yul\":16593:16594   */\n      0x00\n        /* \"#utility.yul\":16586:16674   */\n      mstore\n        /* \"#utility.yul\":16693:16697   */\n      0x22\n        /* \"#utility.yul\":16690:16691   */\n      0x04\n        /* \"#utility.yul\":16683:16698   */\n      mstore\n        /* \"#utility.yul\":16717:16721   */\n      0x24\n        /* \"#utility.yul\":16714:16715   */\n      0x00\n        /* \"#utility.yul\":16707:16722   */\n      revert\n        /* \"#utility.yul\":16857:16974   */\n    tag_239:\n        /* \"#utility.yul\":16966:16967   */\n      0x00\n        /* \"#utility.yul\":16963:16964   */\n      dup1\n        /* \"#utility.yul\":16956:16968   */\n      revert\n        /* \"#utility.yul\":16980:17082   */\n    tag_278:\n        /* \"#utility.yul\":17021:17027   */\n      0x00\n        /* \"#utility.yul\":17072:17074   */\n      0x1f\n        /* \"#utility.yul\":17068:17075   */\n      not\n        /* \"#utility.yul\":17063:17065   */\n      0x1f\n        /* \"#utility.yul\":17056:17061   */\n      dup4\n        /* \"#utility.yul\":17052:17066   */\n      add\n        /* \"#utility.yul\":17048:17076   */\n      and\n        /* \"#utility.yul\":17038:17076   */\n      swap1\n      pop\n        /* \"#utility.yul\":16980:17082   */\n      swap2\n      swap1\n      pop\n      jump\t// out\n        /* \"#utility.yul\":17088:17310   */\n    tag_283:\n        /* \"#utility.yul\":17228:17262   */\n      0x45524332303a207472616e7366657220746f20746865207a65726f2061646472\n        /* \"#utility.yul\":17224:17225   */\n      0x00\n        /* \"#utility.yul\":17216:17222   */\n      dup3\n        /* \"#utility.yul\":17212:17226   */\n      add\n        /* \"#utility.yul\":17205:17263   */\n      mstore\n        /* \"#utility.yul\":17297:17302   */\n      0x6573730000000000000000000000000000000000000000000000000000000000\n        /* \"#utility.yul\":17292:17294   */\n      0x20\n        /* \"#utility.yul\":17284:17290   */\n      dup3\n        /* \"#utility.yul\":17280:17295   */\n      add\n        /* \"#utility.yul\":17273:17303   */\n      mstore\n        /* \"#utility.yul\":17088:17310   */\n      pop\n      jump\t// out\n        /* \"#utility.yul\":17316:17537   */\n    tag_288:\n        /* \"#utility.yul\":17456:17490   */\n      0x45524332303a206275726e20616d6f756e7420657863656564732062616c616e\n        /* \"#utility.yul\":17452:17453   */\n      0x00\n        /* \"#utility.yul\":17444:17450   */\n      dup3\n        /* \"#utility.yul\":17440:17454   */\n      add\n        /* \"#utility.yul\":17433:17491   */\n      mstore\n        /* \"#utility.yul\":17525:17529   */\n      0x6365000000000000000000000000000000000000000000000000000000000000\n        /* \"#utility.yul\":17520:17522   */\n      0x20\n        /* \"#utility.yul\":17512:17518   */\n      dup3\n        /* \"#utility.yul\":17508:17523   */\n      add\n        /* \"#utility.yul\":17501:17530   */\n      mstore\n        /* \"#utility.yul\":17316:17537   */\n      pop\n      jump\t// out\n        /* \"#utility.yul\":17543:17768   */\n    tag_293:\n        /* \"#utility.yul\":17683:17717   */\n      0x4f776e61626c653a206e6577206f776e657220697320746865207a65726f2061\n        /* \"#utility.yul\":17679:17680   */\n      0x00\n        /* \"#utility.yul\":17671:17677   */\n      dup3\n        /* \"#utility.yul\":17667:17681   */\n      add\n        /* \"#utility.yul\":17660:17718   */\n      mstore\n        /* \"#utility.yul\":17752:17760   */\n      0x6464726573730000000000000000000000000000000000000000000000000000\n        /* \"#utility.yul\":17747:17749   */\n      0x20\n        /* \"#utility.yul\":17739:17745   */\n      dup3\n        /* \"#utility.yul\":17735:17750   */\n      add\n        /* \"#utility.yul\":17728:17761   */\n      mstore\n        /* \"#utility.yul\":17543:17768   */\n      pop\n      jump\t// out\n        /* \"#utility.yul\":17774:17995   */\n    tag_298:\n        /* \"#utility.yul\":17914:17948   */\n      0x45524332303a20617070726f766520746f20746865207a65726f206164647265\n        /* \"#utility.yul\":17910:17911   */\n      0x00\n        /* \"#utility.yul\":17902:17908   */\n      dup3\n        /* \"#utility.yul\":17898:17912   */\n      add\n        /* \"#utility.yul\":17891:17949   */\n      mstore\n        /* \"#utility.yul\":17983:17987   */\n      0x7373000000000000000000000000000000000000000000000000000000000000\n        /* \"#utility.yul\":17978:17980   */\n      0x20\n        /* \"#utility.yul\":17970:17976   */\n      dup3\n        /* \"#utility.yul\":17966:17981   */\n      add\n        /* \"#utility.yul\":17959:17988   */\n      mstore\n        /* \"#utility.yul\":17774:17995   */\n      pop\n      jump\t// out\n        /* \"#utility.yul\":18001:18226   */\n    tag_303:\n        /* \"#utility.yul\":18141:18175   */\n      0x45524332303a207472616e7366657220616d6f756e7420657863656564732062\n        /* \"#utility.yul\":18137:18138   */\n      0x00\n        /* \"#utility.yul\":18129:18135   */\n      dup3\n        /* \"#utility.yul\":18125:18139   */\n      add\n        /* \"#utility.yul\":18118:18176   */\n      mstore\n        /* \"#utility.yul\":18210:18218   */\n      0x616c616e63650000000000000000000000000000000000000000000000000000\n        /* \"#utility.yul\":18205:18207   */\n      0x20\n        /* \"#utility.yul\":18197:18203   */\n      dup3\n        /* \"#utility.yul\":18193:18208   */\n      add\n        /* \"#utility.yul\":18186:18219   */\n      mstore\n        /* \"#utility.yul\":18001:18226   */\n      pop\n      jump\t// out\n        /* \"#utility.yul\":18232:18407   */\n    tag_308:\n        /* \"#utility.yul\":18372:18399   */\n      0x4f6e6c7920636f6e74726f6c6c6572732063616e206275726e00000000000000\n        /* \"#utility.yul\":18368:18369   */\n      0x00\n        /* \"#utility.yul\":18360:18366   */\n      dup3\n        /* \"#utility.yul\":18356:18370   */\n      add\n        /* \"#utility.yul\":18349:18400   */\n      mstore\n        /* \"#utility.yul\":18232:18407   */\n      pop\n      jump\t// out\n        /* \"#utility.yul\":18413:18640   */\n    tag_313:\n        /* \"#utility.yul\":18553:18587   */\n      0x45524332303a207472616e7366657220616d6f756e7420657863656564732061\n        /* \"#utility.yul\":18549:18550   */\n      0x00\n        /* \"#utility.yul\":18541:18547   */\n      dup3\n        /* \"#utility.yul\":18537:18551   */\n      add\n        /* \"#utility.yul\":18530:18588   */\n      mstore\n        /* \"#utility.yul\":18622:18632   */\n      0x6c6c6f77616e6365000000000000000000000000000000000000000000000000\n        /* \"#utility.yul\":18617:18619   */\n      0x20\n        /* \"#utility.yul\":18609:18615   */\n      dup3\n        /* \"#utility.yul\":18605:18620   */\n      add\n        /* \"#utility.yul\":18598:18633   */\n      mstore\n        /* \"#utility.yul\":18413:18640   */\n      pop\n      jump\t// out\n        /* \"#utility.yul\":18646:18828   */\n    tag_318:\n        /* \"#utility.yul\":18786:18820   */\n      0x4f776e61626c653a2063616c6c6572206973206e6f7420746865206f776e6572\n        /* \"#utility.yul\":18782:18783   */\n      0x00\n        /* \"#utility.yul\":18774:18780   */\n      dup3\n        /* \"#utility.yul\":18770:18784   */\n      add\n        /* \"#utility.yul\":18763:18821   */\n      mstore\n        /* \"#utility.yul\":18646:18828   */\n      pop\n      jump\t// out\n        /* \"#utility.yul\":18834:19054   */\n    tag_323:\n        /* \"#utility.yul\":18974:19008   */\n      0x45524332303a206275726e2066726f6d20746865207a65726f20616464726573\n        /* \"#utility.yul\":18970:18971   */\n      0x00\n        /* \"#utility.yul\":18962:18968   */\n      dup3\n        /* \"#utility.yul\":18958:18972   */\n      add\n        /* \"#utility.yul\":18951:19009   */\n      mstore\n        /* \"#utility.yul\":19043:19046   */\n      0x7300000000000000000000000000000000000000000000000000000000000000\n        /* \"#utility.yul\":19038:19040   */\n      0x20\n        /* \"#utility.yul\":19030:19036   */\n      dup3\n        /* \"#utility.yul\":19026:19041   */\n      add\n        /* \"#utility.yul\":19019:19047   */\n      mstore\n        /* \"#utility.yul\":18834:19054   */\n      pop\n      jump\t// out\n        /* \"#utility.yul\":19060:19284   */\n    tag_328:\n        /* \"#utility.yul\":19200:19234   */\n      0x45524332303a207472616e736665722066726f6d20746865207a65726f206164\n        /* \"#utility.yul\":19196:19197   */\n      0x00\n        /* \"#utility.yul\":19188:19194   */\n      dup3\n        /* \"#utility.yul\":19184:19198   */\n      add\n        /* \"#utility.yul\":19177:19235   */\n      mstore\n        /* \"#utility.yul\":19269:19276   */\n      0x6472657373000000000000000000000000000000000000000000000000000000\n        /* \"#utility.yul\":19264:19266   */\n      0x20\n        /* \"#utility.yul\":19256:19262   */\n      dup3\n        /* \"#utility.yul\":19252:19267   */\n      add\n        /* \"#utility.yul\":19245:19277   */\n      mstore\n        /* \"#utility.yul\":19060:19284   */\n      pop\n      jump\t// out\n        /* \"#utility.yul\":19290:19513   */\n    tag_333:\n        /* \"#utility.yul\":19430:19464   */\n      0x45524332303a20617070726f76652066726f6d20746865207a65726f20616464\n        /* \"#utility.yul\":19426:19427   */\n      0x00\n        /* \"#utility.yul\":19418:19424   */\n      dup3\n        /* \"#utility.yul\":19414:19428   */\n      add\n        /* \"#utility.yul\":19407:19465   */\n      mstore\n        /* \"#utility.yul\":19499:19505   */\n      0x7265737300000000000000000000000000000000000000000000000000000000\n        /* \"#utility.yul\":19494:19496   */\n      0x20\n        /* \"#utility.yul\":19486:19492   */\n      dup3\n        /* \"#utility.yul\":19482:19497   */\n      add\n        /* \"#utility.yul\":19475:19506   */\n      mstore\n        /* \"#utility.yul\":19290:19513   */\n      pop\n      jump\t// out\n        /* \"#utility.yul\":19519:19743   */\n    tag_338:\n        /* \"#utility.yul\":19659:19693   */\n      0x45524332303a2064656372656173656420616c6c6f77616e63652062656c6f77\n        /* \"#utility.yul\":19655:19656   */\n      0x00\n        /* \"#utility.yul\":19647:19653   */\n      dup3\n        /* \"#utility.yul\":19643:19657   */\n      add\n        /* \"#utility.yul\":19636:19694   */\n      mstore\n        /* \"#utility.yul\":19728:19735   */\n      0x207a65726f000000000000000000000000000000000000000000000000000000\n        /* \"#utility.yul\":19723:19725   */\n      0x20\n        /* \"#utility.yul\":19715:19721   */\n      dup3\n        /* \"#utility.yul\":19711:19726   */\n      add\n        /* \"#utility.yul\":19704:19736   */\n      mstore\n        /* \"#utility.yul\":19519:19743   */\n      pop\n      jump\t// out\n        /* \"#utility.yul\":19749:19871   */\n    tag_228:\n        /* \"#utility.yul\":19822:19846   */\n      tag_432\n        /* \"#utility.yul\":19840:19845   */\n      dup2\n        /* \"#utility.yul\":19822:19846   */\n      tag_264\n      jump\t// in\n    tag_432:\n        /* \"#utility.yul\":19815:19820   */\n      dup2\n        /* \"#utility.yul\":19812:19847   */\n      eq\n        /* \"#utility.yul\":19802:19865   */\n      tag_433\n      jumpi\n        /* \"#utility.yul\":19861:19862   */\n      0x00\n        /* \"#utility.yul\":19858:19859   */\n      dup1\n        /* \"#utility.yul\":19851:19863   */\n      revert\n        /* \"#utility.yul\":19802:19865   */\n    tag_433:\n        /* \"#utility.yul\":19749:19871   */\n      pop\n      jump\t// out\n        /* \"#utility.yul\":19877:19999   */\n    tag_232:\n        /* \"#utility.yul\":19950:19974   */\n      tag_435\n        /* \"#utility.yul\":19968:19973   */\n      dup2\n        /* \"#utility.yul\":19950:19974   */\n      tag_342\n      jump\t// in\n    tag_435:\n        /* \"#utility.yul\":19943:19948   */\n      dup2\n        /* \"#utility.yul\":19940:19975   */\n      eq\n        /* \"#utility.yul\":19930:19993   */\n      tag_436\n      jumpi\n        /* \"#utility.yul\":19989:19990   */\n      0x00\n        /* \"#utility.yul\":19986:19987   */\n      dup1\n        /* \"#utility.yul\":19979:19991   */\n      revert\n        /* \"#utility.yul\":19930:19993   */\n    tag_436:\n        /* \"#utility.yul\":19877:19999   */\n      pop\n      jump\t// out\n\n    auxdata: 0xa26469706673582212205bfa7c9387f7bb0bf9bde3a2a661479d61679505ca968f439af69eaf0b47b2e064736f6c63430008070033\n}\n",
				"bytecode": {
					"linkReferences": {},
					"object": "60806040523480156200001157600080fd5b506040518060400160405280600981526020017f57616e642d57616e6400000000000000000000000000000000000000000000008152506040518060400160405280600481526020017f54574e4400000000000000000000000000000000000000000000000000000000815250816003908051906020019062000096929190620001a6565b508060049080519060200190620000af929190620001a6565b505050620000d2620000c6620000d860201b60201c565b620000e060201b60201c565b620002bb565b600033905090565b6000600560009054906101000a900473ffffffffffffffffffffffffffffffffffffffff16905081600560006101000a81548173ffffffffffffffffffffffffffffffffffffffff021916908373ffffffffffffffffffffffffffffffffffffffff1602179055508173ffffffffffffffffffffffffffffffffffffffff168173ffffffffffffffffffffffffffffffffffffffff167f8be0079c531659141344cd1fd0a4f28419497f9722a3daafe3b4186f6b6457e060405160405180910390a35050565b828054620001b49062000256565b90600052602060002090601f016020900481019282620001d8576000855562000224565b82601f10620001f357805160ff191683800117855562000224565b8280016001018555821562000224579182015b828111156200022357825182559160200191906001019062000206565b5b50905062000233919062000237565b5090565b5b808211156200025257600081600090555060010162000238565b5090565b600060028204905060018216806200026f57607f821691505b602082108114156200028657620002856200028c565b5b50919050565b7f4e487b7100000000000000000000000000000000000000000000000000000000600052602260045260246000fd5b611f0f80620002cb6000396000f3fe608060405234801561001057600080fd5b50600436106101165760003560e01c806395d89b41116100a2578063a9059cbb11610071578063a9059cbb146102e3578063dd62ed3e14610313578063f2fde38b14610343578063f6a74ed71461035f578063f7425e4e1461037b57610116565b806395d89b411461025d5780639dc29fac1461027b578063a457c2d714610297578063a7fc7a07146102c757610116565b8063313ce567116100e9578063313ce567146101b757806339509351146101d557806370a0823114610205578063715018a6146102355780638da5cb5b1461023f57610116565b806306fdde031461011b578063095ea7b31461013957806318160ddd1461016957806323b872dd14610187575b600080fd5b610123610399565b6040516101309190611797565b60405180910390f35b610153600480360381019061014e91906114db565b61042b565b604051610160919061177c565b60405180910390f35b610171610449565b60405161017e9190611939565b60405180910390f35b6101a1600480360381019061019c9190611488565b610453565b6040516101ae919061177c565b60405180910390f35b6101bf61054b565b6040516101cc9190611954565b60405180910390f35b6101ef60048036038101906101ea91906114db565b610554565b6040516101fc919061177c565b60405180910390f35b61021f600480360381019061021a919061141b565b610600565b60405161022c9190611939565b60405180910390f35b61023d610648565b005b6102476106d0565b6040516102549190611761565b60405180910390f35b6102656106fa565b6040516102729190611797565b60405180910390f35b610295600480360381019061029091906114db565b61078c565b005b6102b160048036038101906102ac91906114db565b610826565b6040516102be919061177c565b60405180910390f35b6102e160048036038101906102dc919061141b565b610911565b005b6102fd60048036038101906102f891906114db565b6109e8565b60405161030a919061177c565b60405180910390f35b61032d60048036038101906103289190611448565b610a06565b60405161033a9190611939565b60405180910390f35b61035d6004803603810190610358919061141b565b610a8d565b005b6103796004803603810190610374919061141b565b610b85565b005b610383610c5c565b6040516103909190611939565b60405180910390f35b6060600380546103a890611a9d565b80601f01602080910402602001604051908101604052809291908181526020018280546103d490611a9d565b80156104215780601f106103f657610100808354040283529160200191610421565b820191906000526020600020905b81548152906001019060200180831161040457829003601f168201915b5050505050905090565b600061043f610438610ce1565b8484610ce9565b6001905092915050565b6000600254905090565b6000610460848484610eb4565b6000600160008673ffffffffffffffffffffffffffffffffffffffff1673ffffffffffffffffffffffffffffffffffffffff16815260200190815260200160002060006104ab610ce1565b73ffffffffffffffffffffffffffffffffffffffff1673ffffffffffffffffffffffffffffffffffffffff1681526020019081526020016000205490508281101561052b576040517f08c379a000000000000000000000000000000000000000000000000000000000815260040161052290611879565b60405180910390fd5b61053f85610537610ce1565b858403610ce9565b60019150509392505050565b60006012905090565b60006105f6610561610ce1565b84846001600061056f610ce1565b73ffffffffffffffffffffffffffffffffffffffff1673ffffffffffffffffffffffffffffffffffffffff16815260200190815260200160002060008873ffffffffffffffffffffffffffffffffffffffff1673ffffffffffffffffffffffffffffffffffffffff168152602001908152602001600020546105f1919061198b565b610ce9565b6001905092915050565b60008060008373ffffffffffffffffffffffffffffffffffffffff1673ffffffffffffffffffffffffffffffffffffffff168152602001908152602001600020549050919050565b610650610ce1565b73ffffffffffffffffffffffffffffffffffffffff1661066e6106d0565b73ffffffffffffffffffffffffffffffffffffffff16146106c4576040517f08c379a00000000000000000000000000000000000000000000000000000000081526004016106bb90611899565b60405180910390fd5b6106ce6000611135565b565b6000600560009054906101000a900473ffffffffffffffffffffffffffffffffffffffff16905090565b60606004805461070990611a9d565b80601f016020809104026020016040519081016040528092919081815260200182805461073590611a9d565b80156107825780601f1061075757610100808354040283529160200191610782565b820191906000526020600020905b81548152906001019060200180831161076557829003601f168201915b5050505050905090565b600660003373ffffffffffffffffffffffffffffffffffffffff1673ffffffffffffffffffffffffffffffffffffffff16815260200190815260200160002060009054906101000a900460ff16610818576040517f08c379a000000000000000000000000000000000000000000000000000000000815260040161080f90611859565b60405180910390fd5b61082282826111fb565b5050565b60008060016000610835610ce1565b73ffffffffffffffffffffffffffffffffffffffff1673ffffffffffffffffffffffffffffffffffffffff16815260200190815260200160002060008573ffffffffffffffffffffffffffffffffffffffff1673ffffffffffffffffffffffffffffffffffffffff168152602001908152602001600020549050828110156108f2576040517f08c379a00000000000000000000000000000000000000000000000000000000081526004016108e990611919565b60405180910390fd5b6109066108fd610ce1565b85858403610ce9565b600191505092915050565b610919610ce1565b73ffffffffffffffffffffffffffffffffffffffff166109376106d0565b73ffffffffffffffffffffffffffffffffffffffff161461098d576040517f08c379a000000000000000000000000000000000000000000000000000000000815260040161098490611899565b60405180910390fd5b6001600660008373ffffffffffffffffffffffffffffffffffffffff1673ffffffffffffffffffffffffffffffffffffffff16815260200190815260200160002060006101000a81548160ff02191690831515021790555050565b60006109fc6109f5610ce1565b8484610eb4565b6001905092915050565b6000600160008473ffffffffffffffffffffffffffffffffffffffff1673ffffffffffffffffffffffffffffffffffffffff16815260200190815260200160002060008373ffffffffffffffffffffffffffffffffffffffff1673ffffffffffffffffffffffffffffffffffffffff16815260200190815260200160002054905092915050565b610a95610ce1565b73ffffffffffffffffffffffffffffffffffffffff16610ab36106d0565b73ffffffffffffffffffffffffffffffffffffffff1614610b09576040517f08c379a0000000000000000000000000000000000000000000000000000000008152600401610b0090611899565b60405180910390fd5b600073ffffffffffffffffffffffffffffffffffffffff168173ffffffffffffffffffffffffffffffffffffffff161415610b79576040517f08c379a0000000000000000000000000000000000000000000000000000000008152600401610b70906117f9565b60405180910390fd5b610b8281611135565b50565b610b8d610ce1565b73ffffffffffffffffffffffffffffffffffffffff16610bab6106d0565b73ffffffffffffffffffffffffffffffffffffffff1614610c01576040517f08c379a0000000000000000000000000000000000000000000000000000000008152600401610bf890611899565b60405180910390fd5b6000600660008373ffffffffffffffffffffffffffffffffffffffff1673ffffffffffffffffffffffffffffffffffffffff16815260200190815260200160002060006101000a81548160ff02191690831515021790555050565b60003073ffffffffffffffffffffffffffffffffffffffff166318160ddd6040518163ffffffff1660e01b815260040160206040518083038186803b158015610ca457600080fd5b505afa158015610cb8573d6000803e3d6000fd5b505050506040513d601f19601f82011682018060405250810190610cdc919061151b565b905090565b600033905090565b600073ffffffffffffffffffffffffffffffffffffffff168373ffffffffffffffffffffffffffffffffffffffff161415610d59576040517f08c379a0000000000000000000000000000000000000000000000000000000008152600401610d50906118f9565b60405180910390fd5b600073ffffffffffffffffffffffffffffffffffffffff168273ffffffffffffffffffffffffffffffffffffffff161415610dc9576040517f08c379a0000000000000000000000000000000000000000000000000000000008152600401610dc090611819565b60405180910390fd5b80600160008573ffffffffffffffffffffffffffffffffffffffff1673ffffffffffffffffffffffffffffffffffffffff16815260200190815260200160002060008473ffffffffffffffffffffffffffffffffffffffff1673ffffffffffffffffffffffffffffffffffffffff168152602001908152602001600020819055508173ffffffffffffffffffffffffffffffffffffffff168373ffffffffffffffffffffffffffffffffffffffff167f8c5be1e5ebec7d5bd14f71427d1e84f3dd0314c0f7b2291e5b200ac8c7c3b92583604051610ea79190611939565b60405180910390a3505050565b600073ffffffffffffffffffffffffffffffffffffffff168373ffffffffffffffffffffffffffffffffffffffff161415610f24576040517f08c379a0000000000000000000000000000000000000000000000000000000008152600401610f1b906118d9565b60405180910390fd5b600073ffffffffffffffffffffffffffffffffffffffff168273ffffffffffffffffffffffffffffffffffffffff161415610f94576040517f08c379a0000000000000000000000000000000000000000000000000000000008152600401610f8b906117b9565b60405180910390fd5b610f9f8383836113d2565b60008060008573ffffffffffffffffffffffffffffffffffffffff1673ffffffffffffffffffffffffffffffffffffffff16815260200190815260200160002054905081811015611025576040517f08c379a000000000000000000000000000000000000000000000000000000000815260040161101c90611839565b60405180910390fd5b8181036000808673ffffffffffffffffffffffffffffffffffffffff1673ffffffffffffffffffffffffffffffffffffffff16815260200190815260200160002081905550816000808573ffffffffffffffffffffffffffffffffffffffff1673ffffffffffffffffffffffffffffffffffffffff16815260200190815260200160002060008282546110b8919061198b565b925050819055508273ffffffffffffffffffffffffffffffffffffffff168473ffffffffffffffffffffffffffffffffffffffff167fddf252ad1be2c89b69c2b068fc378daa952ba7f163c4a11628f55a4df523b3ef8460405161111c9190611939565b60405180910390a361112f8484846113d7565b50505050565b6000600560009054906101000a900473ffffffffffffffffffffffffffffffffffffffff16905081600560006101000a81548173ffffffffffffffffffffffffffffffffffffffff021916908373ffffffffffffffffffffffffffffffffffffffff1602179055508173ffffffffffffffffffffffffffffffffffffffff168173ffffffffffffffffffffffffffffffffffffffff167f8be0079c531659141344cd1fd0a4f28419497f9722a3daafe3b4186f6b6457e060405160405180910390a35050565b600073ffffffffffffffffffffffffffffffffffffffff168273ffffffffffffffffffffffffffffffffffffffff16141561126b576040517f08c379a0000000000000000000000000000000000000000000000000000000008152600401611262906118b9565b60405180910390fd5b611277826000836113d2565b60008060008473ffffffffffffffffffffffffffffffffffffffff1673ffffffffffffffffffffffffffffffffffffffff168152602001908152602001600020549050818110156112fd576040517f08c379a00000000000000000000000000000000000000000000000000000000081526004016112f4906117d9565b60405180910390fd5b8181036000808573ffffffffffffffffffffffffffffffffffffffff1673ffffffffffffffffffffffffffffffffffffffff16815260200190815260200160002081905550816002600082825461135491906119e1565b92505081905550600073ffffffffffffffffffffffffffffffffffffffff168373ffffffffffffffffffffffffffffffffffffffff167fddf252ad1be2c89b69c2b068fc378daa952ba7f163c4a11628f55a4df523b3ef846040516113b99190611939565b60405180910390a36113cd836000846113d7565b505050565b505050565b505050565b6000813590506113eb81611eab565b92915050565b60008135905061140081611ec2565b92915050565b60008151905061141581611ec2565b92915050565b60006020828403121561143157611430611b2d565b5b600061143f848285016113dc565b91505092915050565b6000806040838503121561145f5761145e611b2d565b5b600061146d858286016113dc565b925050602061147e858286016113dc565b9150509250929050565b6000806000606084860312156114a1576114a0611b2d565b5b60006114af868287016113dc565b93505060206114c0868287016113dc565b92505060406114d1868287016113f1565b9150509250925092565b600080604083850312156114f2576114f1611b2d565b5b6000611500858286016113dc565b9250506020611511858286016113f1565b9150509250929050565b60006020828403121561153157611530611b2d565b5b600061153f84828501611406565b91505092915050565b61155181611a15565b82525050565b61156081611a27565b82525050565b60006115718261196f565b61157b818561197a565b935061158b818560208601611a6a565b61159481611b32565b840191505092915050565b60006115ac60238361197a565b91506115b782611b43565b604082019050919050565b60006115cf60228361197a565b91506115da82611b92565b604082019050919050565b60006115f260268361197a565b91506115fd82611be1565b604082019050919050565b600061161560228361197a565b915061162082611c30565b604082019050919050565b600061163860268361197a565b915061164382611c7f565b604082019050919050565b600061165b60198361197a565b915061166682611cce565b602082019050919050565b600061167e60288361197a565b915061168982611cf7565b604082019050919050565b60006116a160208361197a565b91506116ac82611d46565b602082019050919050565b60006116c460218361197a565b91506116cf82611d6f565b604082019050919050565b60006116e760258361197a565b91506116f282611dbe565b604082019050919050565b600061170a60248361197a565b915061171582611e0d565b604082019050919050565b600061172d60258361197a565b915061173882611e5c565b604082019050919050565b61174c81611a53565b82525050565b61175b81611a5d565b82525050565b60006020820190506117766000830184611548565b92915050565b60006020820190506117916000830184611557565b92915050565b600060208201905081810360008301526117b18184611566565b905092915050565b600060208201905081810360008301526117d28161159f565b9050919050565b600060208201905081810360008301526117f2816115c2565b9050919050565b60006020820190508181036000830152611812816115e5565b9050919050565b6000602082019050818103600083015261183281611608565b9050919050565b600060208201905081810360008301526118528161162b565b9050919050565b600060208201905081810360008301526118728161164e565b9050919050565b6000602082019050818103600083015261189281611671565b9050919050565b600060208201905081810360008301526118b281611694565b9050919050565b600060208201905081810360008301526118d2816116b7565b9050919050565b600060208201905081810360008301526118f2816116da565b9050919050565b60006020820190508181036000830152611912816116fd565b9050919050565b6000602082019050818103600083015261193281611720565b9050919050565b600060208201905061194e6000830184611743565b92915050565b60006020820190506119696000830184611752565b92915050565b600081519050919050565b600082825260208201905092915050565b600061199682611a53565b91506119a183611a53565b9250827fffffffffffffffffffffffffffffffffffffffffffffffffffffffffffffffff038211156119d6576119d5611acf565b5b828201905092915050565b60006119ec82611a53565b91506119f783611a53565b925082821015611a0a57611a09611acf565b5b828203905092915050565b6000611a2082611a33565b9050919050565b60008115159050919050565b600073ffffffffffffffffffffffffffffffffffffffff82169050919050565b6000819050919050565b600060ff82169050919050565b60005b83811015611a88578082015181840152602081019050611a6d565b83811115611a97576000848401525b50505050565b60006002820490506001821680611ab557607f821691505b60208210811415611ac957611ac8611afe565b5b50919050565b7f4e487b7100000000000000000000000000000000000000000000000000000000600052601160045260246000fd5b7f4e487b7100000000000000000000000000000000000000000000000000000000600052602260045260246000fd5b600080fd5b6000601f19601f8301169050919050565b7f45524332303a207472616e7366657220746f20746865207a65726f206164647260008201527f6573730000000000000000000000000000000000000000000000000000000000602082015250565b7f45524332303a206275726e20616d6f756e7420657863656564732062616c616e60008201527f6365000000000000000000000000000000000000000000000000000000000000602082015250565b7f4f776e61626c653a206e6577206f776e657220697320746865207a65726f206160008201527f6464726573730000000000000000000000000000000000000000000000000000602082015250565b7f45524332303a20617070726f766520746f20746865207a65726f20616464726560008201527f7373000000000000000000000000000000000000000000000000000000000000602082015250565b7f45524332303a207472616e7366657220616d6f756e742065786365656473206260008201527f616c616e63650000000000000000000000000000000000000000000000000000602082015250565b7f4f6e6c7920636f6e74726f6c6c6572732063616e206275726e00000000000000600082015250565b7f45524332303a207472616e7366657220616d6f756e742065786365656473206160008201527f6c6c6f77616e6365000000000000000000000000000000000000000000000000602082015250565b7f4f776e61626c653a2063616c6c6572206973206e6f7420746865206f776e6572600082015250565b7f45524332303a206275726e2066726f6d20746865207a65726f2061646472657360008201527f7300000000000000000000000000000000000000000000000000000000000000602082015250565b7f45524332303a207472616e736665722066726f6d20746865207a65726f20616460008201527f6472657373000000000000000000000000000000000000000000000000000000602082015250565b7f45524332303a20617070726f76652066726f6d20746865207a65726f2061646460008201527f7265737300000000000000000000000000000000000000000000000000000000602082015250565b7f45524332303a2064656372656173656420616c6c6f77616e63652062656c6f7760008201527f207a65726f000000000000000000000000000000000000000000000000000000602082015250565b611eb481611a15565b8114611ebf57600080fd5b50565b611ecb81611a53565b8114611ed657600080fd5b5056fea26469706673582212205bfa7c9387f7bb0bf9bde3a2a661479d61679505ca968f439af69eaf0b47b2e064736f6c63430008070033",
					"opcodes": "PUSH1 0x80 PUSH1 0x40 MSTORE CALLVALUE DUP1 ISZERO PUSH3 0x11 JUMPI PUSH1 0x0 DUP1 REVERT JUMPDEST POP PUSH1 0x40 MLOAD DUP1 PUSH1 0x40 ADD PUSH1 0x40 MSTORE DUP1 PUSH1 0x9 DUP2 MSTORE PUSH1 0x20 ADD PUSH32 0x57616E642D57616E640000000000000000000000000000000000000000000000 DUP2 MSTORE POP PUSH1 0x40 MLOAD DUP1 PUSH1 0x40 ADD PUSH1 0x40 MSTORE DUP1 PUSH1 0x4 DUP2 MSTORE PUSH1 0x20 ADD PUSH32 0x54574E4400000000000000000000000000000000000000000000000000000000 DUP2 MSTORE POP DUP2 PUSH1 0x3 SWAP1 DUP1 MLOAD SWAP1 PUSH1 0x20 ADD SWAP1 PUSH3 0x96 SWAP3 SWAP2 SWAP1 PUSH3 0x1A6 JUMP JUMPDEST POP DUP1 PUSH1 0x4 SWAP1 DUP1 MLOAD SWAP1 PUSH1 0x20 ADD SWAP1 PUSH3 0xAF SWAP3 SWAP2 SWAP1 PUSH3 0x1A6 JUMP JUMPDEST POP POP POP PUSH3 0xD2 PUSH3 0xC6 PUSH3 0xD8 PUSH1 0x20 SHL PUSH1 0x20 SHR JUMP JUMPDEST PUSH3 0xE0 PUSH1 0x20 SHL PUSH1 0x20 SHR JUMP JUMPDEST PUSH3 0x2BB JUMP JUMPDEST PUSH1 0x0 CALLER SWAP1 POP SWAP1 JUMP JUMPDEST PUSH1 0x0 PUSH1 0x5 PUSH1 0x0 SWAP1 SLOAD SWAP1 PUSH2 0x100 EXP SWAP1 DIV PUSH20 0xFFFFFFFFFFFFFFFFFFFFFFFFFFFFFFFFFFFFFFFF AND SWAP1 POP DUP2 PUSH1 0x5 PUSH1 0x0 PUSH2 0x100 EXP DUP2 SLOAD DUP2 PUSH20 0xFFFFFFFFFFFFFFFFFFFFFFFFFFFFFFFFFFFFFFFF MUL NOT AND SWAP1 DUP4 PUSH20 0xFFFFFFFFFFFFFFFFFFFFFFFFFFFFFFFFFFFFFFFF AND MUL OR SWAP1 SSTORE POP DUP2 PUSH20 0xFFFFFFFFFFFFFFFFFFFFFFFFFFFFFFFFFFFFFFFF AND DUP2 PUSH20 0xFFFFFFFFFFFFFFFFFFFFFFFFFFFFFFFFFFFFFFFF AND PUSH32 0x8BE0079C531659141344CD1FD0A4F28419497F9722A3DAAFE3B4186F6B6457E0 PUSH1 0x40 MLOAD PUSH1 0x40 MLOAD DUP1 SWAP2 SUB SWAP1 LOG3 POP POP JUMP JUMPDEST DUP3 DUP1 SLOAD PUSH3 0x1B4 SWAP1 PUSH3 0x256 JUMP JUMPDEST SWAP1 PUSH1 0x0 MSTORE PUSH1 0x20 PUSH1 0x0 KECCAK256 SWAP1 PUSH1 0x1F ADD PUSH1 0x20 SWAP1 DIV DUP2 ADD SWAP3 DUP3 PUSH3 0x1D8 JUMPI PUSH1 0x0 DUP6 SSTORE PUSH3 0x224 JUMP JUMPDEST DUP3 PUSH1 0x1F LT PUSH3 0x1F3 JUMPI DUP1 MLOAD PUSH1 0xFF NOT AND DUP4 DUP1 ADD OR DUP6 SSTORE PUSH3 0x224 JUMP JUMPDEST DUP3 DUP1 ADD PUSH1 0x1 ADD DUP6 SSTORE DUP3 ISZERO PUSH3 0x224 JUMPI SWAP2 DUP3 ADD JUMPDEST DUP3 DUP2 GT ISZERO PUSH3 0x223 JUMPI DUP3 MLOAD DUP3 SSTORE SWAP2 PUSH1 0x20 ADD SWAP2 SWAP1 PUSH1 0x1 ADD SWAP1 PUSH3 0x206 JUMP JUMPDEST JUMPDEST POP SWAP1 POP PUSH3 0x233 SWAP2 SWAP1 PUSH3 0x237 JUMP JUMPDEST POP SWAP1 JUMP JUMPDEST JUMPDEST DUP1 DUP3 GT ISZERO PUSH3 0x252 JUMPI PUSH1 0x0 DUP2 PUSH1 0x0 SWAP1 SSTORE POP PUSH1 0x1 ADD PUSH3 0x238 JUMP JUMPDEST POP SWAP1 JUMP JUMPDEST PUSH1 0x0 PUSH1 0x2 DUP3 DIV SWAP1 POP PUSH1 0x1 DUP3 AND DUP1 PUSH3 0x26F JUMPI PUSH1 0x7F DUP3 AND SWAP2 POP JUMPDEST PUSH1 0x20 DUP3 LT DUP2 EQ ISZERO PUSH3 0x286 JUMPI PUSH3 0x285 PUSH3 0x28C JUMP JUMPDEST JUMPDEST POP SWAP2 SWAP1 POP JUMP JUMPDEST PUSH32 0x4E487B7100000000000000000000000000000000000000000000000000000000 PUSH1 0x0 MSTORE PUSH1 0x22 PUSH1 0x4 MSTORE PUSH1 0x24 PUSH1 0x0 REVERT JUMPDEST PUSH2 0x1F0F DUP1 PUSH3 0x2CB PUSH1 0x0 CODECOPY PUSH1 0x0 RETURN INVALID PUSH1 0x80 PUSH1 0x40 MSTORE CALLVALUE DUP1 ISZERO PUSH2 0x10 JUMPI PUSH1 0x0 DUP1 REVERT JUMPDEST POP PUSH1 0x4 CALLDATASIZE LT PUSH2 0x116 JUMPI PUSH1 0x0 CALLDATALOAD PUSH1 0xE0 SHR DUP1 PUSH4 0x95D89B41 GT PUSH2 0xA2 JUMPI DUP1 PUSH4 0xA9059CBB GT PUSH2 0x71 JUMPI DUP1 PUSH4 0xA9059CBB EQ PUSH2 0x2E3 JUMPI DUP1 PUSH4 0xDD62ED3E EQ PUSH2 0x313 JUMPI DUP1 PUSH4 0xF2FDE38B EQ PUSH2 0x343 JUMPI DUP1 PUSH4 0xF6A74ED7 EQ PUSH2 0x35F JUMPI DUP1 PUSH4 0xF7425E4E EQ PUSH2 0x37B JUMPI PUSH2 0x116 JUMP JUMPDEST DUP1 PUSH4 0x95D89B41 EQ PUSH2 0x25D JUMPI DUP1 PUSH4 0x9DC29FAC EQ PUSH2 0x27B JUMPI DUP1 PUSH4 0xA457C2D7 EQ PUSH2 0x297 JUMPI DUP1 PUSH4 0xA7FC7A07 EQ PUSH2 0x2C7 JUMPI PUSH2 0x116 JUMP JUMPDEST DUP1 PUSH4 0x313CE567 GT PUSH2 0xE9 JUMPI DUP1 PUSH4 0x313CE567 EQ PUSH2 0x1B7 JUMPI DUP1 PUSH4 0x39509351 EQ PUSH2 0x1D5 JUMPI DUP1 PUSH4 0x70A08231 EQ PUSH2 0x205 JUMPI DUP1 PUSH4 0x715018A6 EQ PUSH2 0x235 JUMPI DUP1 PUSH4 0x8DA5CB5B EQ PUSH2 0x23F JUMPI PUSH2 0x116 JUMP JUMPDEST DUP1 PUSH4 0x6FDDE03 EQ PUSH2 0x11B JUMPI DUP1 PUSH4 0x95EA7B3 EQ PUSH2 0x139 JUMPI DUP1 PUSH4 0x18160DDD EQ PUSH2 0x169 JUMPI DUP1 PUSH4 0x23B872DD EQ PUSH2 0x187 JUMPI JUMPDEST PUSH1 0x0 DUP1 REVERT JUMPDEST PUSH2 0x123 PUSH2 0x399 JUMP JUMPDEST PUSH1 0x40 MLOAD PUSH2 0x130 SWAP2 SWAP1 PUSH2 0x1797 JUMP JUMPDEST PUSH1 0x40 MLOAD DUP1 SWAP2 SUB SWAP1 RETURN JUMPDEST PUSH2 0x153 PUSH1 0x4 DUP1 CALLDATASIZE SUB DUP2 ADD SWAP1 PUSH2 0x14E SWAP2 SWAP1 PUSH2 0x14DB JUMP JUMPDEST PUSH2 0x42B JUMP JUMPDEST PUSH1 0x40 MLOAD PUSH2 0x160 SWAP2 SWAP1 PUSH2 0x177C JUMP JUMPDEST PUSH1 0x40 MLOAD DUP1 SWAP2 SUB SWAP1 RETURN JUMPDEST PUSH2 0x171 PUSH2 0x449 JUMP JUMPDEST PUSH1 0x40 MLOAD PUSH2 0x17E SWAP2 SWAP1 PUSH2 0x1939 JUMP JUMPDEST PUSH1 0x40 MLOAD DUP1 SWAP2 SUB SWAP1 RETURN JUMPDEST PUSH2 0x1A1 PUSH1 0x4 DUP1 CALLDATASIZE SUB DUP2 ADD SWAP1 PUSH2 0x19C SWAP2 SWAP1 PUSH2 0x1488 JUMP JUMPDEST PUSH2 0x453 JUMP JUMPDEST PUSH1 0x40 MLOAD PUSH2 0x1AE SWAP2 SWAP1 PUSH2 0x177C JUMP JUMPDEST PUSH1 0x40 MLOAD DUP1 SWAP2 SUB SWAP1 RETURN JUMPDEST PUSH2 0x1BF PUSH2 0x54B JUMP JUMPDEST PUSH1 0x40 MLOAD PUSH2 0x1CC SWAP2 SWAP1 PUSH2 0x1954 JUMP JUMPDEST PUSH1 0x40 MLOAD DUP1 SWAP2 SUB SWAP1 RETURN JUMPDEST PUSH2 0x1EF PUSH1 0x4 DUP1 CALLDATASIZE SUB DUP2 ADD SWAP1 PUSH2 0x1EA SWAP2 SWAP1 PUSH2 0x14DB JUMP JUMPDEST PUSH2 0x554 JUMP JUMPDEST PUSH1 0x40 MLOAD PUSH2 0x1FC SWAP2 SWAP1 PUSH2 0x177C JUMP JUMPDEST PUSH1 0x40 MLOAD DUP1 SWAP2 SUB SWAP1 RETURN JUMPDEST PUSH2 0x21F PUSH1 0x4 DUP1 CALLDATASIZE SUB DUP2 ADD SWAP1 PUSH2 0x21A SWAP2 SWAP1 PUSH2 0x141B JUMP JUMPDEST PUSH2 0x600 JUMP JUMPDEST PUSH1 0x40 MLOAD PUSH2 0x22C SWAP2 SWAP1 PUSH2 0x1939 JUMP JUMPDEST PUSH1 0x40 MLOAD DUP1 SWAP2 SUB SWAP1 RETURN JUMPDEST PUSH2 0x23D PUSH2 0x648 JUMP JUMPDEST STOP JUMPDEST PUSH2 0x247 PUSH2 0x6D0 JUMP JUMPDEST PUSH1 0x40 MLOAD PUSH2 0x254 SWAP2 SWAP1 PUSH2 0x1761 JUMP JUMPDEST PUSH1 0x40 MLOAD DUP1 SWAP2 SUB SWAP1 RETURN JUMPDEST PUSH2 0x265 PUSH2 0x6FA JUMP JUMPDEST PUSH1 0x40 MLOAD PUSH2 0x272 SWAP2 SWAP1 PUSH2 0x1797 JUMP JUMPDEST PUSH1 0x40 MLOAD DUP1 SWAP2 SUB SWAP1 RETURN JUMPDEST PUSH2 0x295 PUSH1 0x4 DUP1 CALLDATASIZE SUB DUP2 ADD SWAP1 PUSH2 0x290 SWAP2 SWAP1 PUSH2 0x14DB JUMP JUMPDEST PUSH2 0x78C JUMP JUMPDEST STOP JUMPDEST PUSH2 0x2B1 PUSH1 0x4 DUP1 CALLDATASIZE SUB DUP2 ADD SWAP1 PUSH2 0x2AC SWAP2 SWAP1 PUSH2 0x14DB JUMP JUMPDEST PUSH2 0x826 JUMP JUMPDEST PUSH1 0x40 MLOAD PUSH2 0x2BE SWAP2 SWAP1 PUSH2 0x177C JUMP JUMPDEST PUSH1 0x40 MLOAD DUP1 SWAP2 SUB SWAP1 RETURN JUMPDEST PUSH2 0x2E1 PUSH1 0x4 DUP1 CALLDATASIZE SUB DUP2 ADD SWAP1 PUSH2 0x2DC SWAP2 SWAP1 PUSH2 0x141B JUMP JUMPDEST PUSH2 0x911 JUMP JUMPDEST STOP JUMPDEST PUSH2 0x2FD PUSH1 0x4 DUP1 CALLDATASIZE SUB DUP2 ADD SWAP1 PUSH2 0x2F8 SWAP2 SWAP1 PUSH2 0x14DB JUMP JUMPDEST PUSH2 0x9E8 JUMP JUMPDEST PUSH1 0x40 MLOAD PUSH2 0x30A SWAP2 SWAP1 PUSH2 0x177C JUMP JUMPDEST PUSH1 0x40 MLOAD DUP1 SWAP2 SUB SWAP1 RETURN JUMPDEST PUSH2 0x32D PUSH1 0x4 DUP1 CALLDATASIZE SUB DUP2 ADD SWAP1 PUSH2 0x328 SWAP2 SWAP1 PUSH2 0x1448 JUMP JUMPDEST PUSH2 0xA06 JUMP JUMPDEST PUSH1 0x40 MLOAD PUSH2 0x33A SWAP2 SWAP1 PUSH2 0x1939 JUMP JUMPDEST PUSH1 0x40 MLOAD DUP1 SWAP2 SUB SWAP1 RETURN JUMPDEST PUSH2 0x35D PUSH1 0x4 DUP1 CALLDATASIZE SUB DUP2 ADD SWAP1 PUSH2 0x358 SWAP2 SWAP1 PUSH2 0x141B JUMP JUMPDEST PUSH2 0xA8D JUMP JUMPDEST STOP JUMPDEST PUSH2 0x379 PUSH1 0x4 DUP1 CALLDATASIZE SUB DUP2 ADD SWAP1 PUSH2 0x374 SWAP2 SWAP1 PUSH2 0x141B JUMP JUMPDEST PUSH2 0xB85 JUMP JUMPDEST STOP JUMPDEST PUSH2 0x383 PUSH2 0xC5C JUMP JUMPDEST PUSH1 0x40 MLOAD PUSH2 0x390 SWAP2 SWAP1 PUSH2 0x1939 JUMP JUMPDEST PUSH1 0x40 MLOAD DUP1 SWAP2 SUB SWAP1 RETURN JUMPDEST PUSH1 0x60 PUSH1 0x3 DUP1 SLOAD PUSH2 0x3A8 SWAP1 PUSH2 0x1A9D JUMP JUMPDEST DUP1 PUSH1 0x1F ADD PUSH1 0x20 DUP1 SWAP2 DIV MUL PUSH1 0x20 ADD PUSH1 0x40 MLOAD SWAP1 DUP2 ADD PUSH1 0x40 MSTORE DUP1 SWAP3 SWAP2 SWAP1 DUP2 DUP2 MSTORE PUSH1 0x20 ADD DUP3 DUP1 SLOAD PUSH2 0x3D4 SWAP1 PUSH2 0x1A9D JUMP JUMPDEST DUP1 ISZERO PUSH2 0x421 JUMPI DUP1 PUSH1 0x1F LT PUSH2 0x3F6 JUMPI PUSH2 0x100 DUP1 DUP4 SLOAD DIV MUL DUP4 MSTORE SWAP2 PUSH1 0x20 ADD SWAP2 PUSH2 0x421 JUMP JUMPDEST DUP3 ADD SWAP2 SWAP1 PUSH1 0x0 MSTORE PUSH1 0x20 PUSH1 0x0 KECCAK256 SWAP1 JUMPDEST DUP2 SLOAD DUP2 MSTORE SWAP1 PUSH1 0x1 ADD SWAP1 PUSH1 0x20 ADD DUP1 DUP4 GT PUSH2 0x404 JUMPI DUP3 SWAP1 SUB PUSH1 0x1F AND DUP3 ADD SWAP2 JUMPDEST POP POP POP POP POP SWAP1 POP SWAP1 JUMP JUMPDEST PUSH1 0x0 PUSH2 0x43F PUSH2 0x438 PUSH2 0xCE1 JUMP JUMPDEST DUP5 DUP5 PUSH2 0xCE9 JUMP JUMPDEST PUSH1 0x1 SWAP1 POP SWAP3 SWAP2 POP POP JUMP JUMPDEST PUSH1 0x0 PUSH1 0x2 SLOAD SWAP1 POP SWAP1 JUMP JUMPDEST PUSH1 0x0 PUSH2 0x460 DUP5 DUP5 DUP5 PUSH2 0xEB4 JUMP JUMPDEST PUSH1 0x0 PUSH1 0x1 PUSH1 0x0 DUP7 PUSH20 0xFFFFFFFFFFFFFFFFFFFFFFFFFFFFFFFFFFFFFFFF AND PUSH20 0xFFFFFFFFFFFFFFFFFFFFFFFFFFFFFFFFFFFFFFFF AND DUP2 MSTORE PUSH1 0x20 ADD SWAP1 DUP2 MSTORE PUSH1 0x20 ADD PUSH1 0x0 KECCAK256 PUSH1 0x0 PUSH2 0x4AB PUSH2 0xCE1 JUMP JUMPDEST PUSH20 0xFFFFFFFFFFFFFFFFFFFFFFFFFFFFFFFFFFFFFFFF AND PUSH20 0xFFFFFFFFFFFFFFFFFFFFFFFFFFFFFFFFFFFFFFFF AND DUP2 MSTORE PUSH1 0x20 ADD SWAP1 DUP2 MSTORE PUSH1 0x20 ADD PUSH1 0x0 KECCAK256 SLOAD SWAP1 POP DUP3 DUP2 LT ISZERO PUSH2 0x52B JUMPI PUSH1 0x40 MLOAD PUSH32 0x8C379A000000000000000000000000000000000000000000000000000000000 DUP2 MSTORE PUSH1 0x4 ADD PUSH2 0x522 SWAP1 PUSH2 0x1879 JUMP JUMPDEST PUSH1 0x40 MLOAD DUP1 SWAP2 SUB SWAP1 REVERT JUMPDEST PUSH2 0x53F DUP6 PUSH2 0x537 PUSH2 0xCE1 JUMP JUMPDEST DUP6 DUP5 SUB PUSH2 0xCE9 JUMP JUMPDEST PUSH1 0x1 SWAP2 POP POP SWAP4 SWAP3 POP POP POP JUMP JUMPDEST PUSH1 0x0 PUSH1 0x12 SWAP1 POP SWAP1 JUMP JUMPDEST PUSH1 0x0 PUSH2 0x5F6 PUSH2 0x561 PUSH2 0xCE1 JUMP JUMPDEST DUP5 DUP5 PUSH1 0x1 PUSH1 0x0 PUSH2 0x56F PUSH2 0xCE1 JUMP JUMPDEST PUSH20 0xFFFFFFFFFFFFFFFFFFFFFFFFFFFFFFFFFFFFFFFF AND PUSH20 0xFFFFFFFFFFFFFFFFFFFFFFFFFFFFFFFFFFFFFFFF AND DUP2 MSTORE PUSH1 0x20 ADD SWAP1 DUP2 MSTORE PUSH1 0x20 ADD PUSH1 0x0 KECCAK256 PUSH1 0x0 DUP9 PUSH20 0xFFFFFFFFFFFFFFFFFFFFFFFFFFFFFFFFFFFFFFFF AND PUSH20 0xFFFFFFFFFFFFFFFFFFFFFFFFFFFFFFFFFFFFFFFF AND DUP2 MSTORE PUSH1 0x20 ADD SWAP1 DUP2 MSTORE PUSH1 0x20 ADD PUSH1 0x0 KECCAK256 SLOAD PUSH2 0x5F1 SWAP2 SWAP1 PUSH2 0x198B JUMP JUMPDEST PUSH2 0xCE9 JUMP JUMPDEST PUSH1 0x1 SWAP1 POP SWAP3 SWAP2 POP POP JUMP JUMPDEST PUSH1 0x0 DUP1 PUSH1 0x0 DUP4 PUSH20 0xFFFFFFFFFFFFFFFFFFFFFFFFFFFFFFFFFFFFFFFF AND PUSH20 0xFFFFFFFFFFFFFFFFFFFFFFFFFFFFFFFFFFFFFFFF AND DUP2 MSTORE PUSH1 0x20 ADD SWAP1 DUP2 MSTORE PUSH1 0x20 ADD PUSH1 0x0 KECCAK256 SLOAD SWAP1 POP SWAP2 SWAP1 POP JUMP JUMPDEST PUSH2 0x650 PUSH2 0xCE1 JUMP JUMPDEST PUSH20 0xFFFFFFFFFFFFFFFFFFFFFFFFFFFFFFFFFFFFFFFF AND PUSH2 0x66E PUSH2 0x6D0 JUMP JUMPDEST PUSH20 0xFFFFFFFFFFFFFFFFFFFFFFFFFFFFFFFFFFFFFFFF AND EQ PUSH2 0x6C4 JUMPI PUSH1 0x40 MLOAD PUSH32 0x8C379A000000000000000000000000000000000000000000000000000000000 DUP2 MSTORE PUSH1 0x4 ADD PUSH2 0x6BB SWAP1 PUSH2 0x1899 JUMP JUMPDEST PUSH1 0x40 MLOAD DUP1 SWAP2 SUB SWAP1 REVERT JUMPDEST PUSH2 0x6CE PUSH1 0x0 PUSH2 0x1135 JUMP JUMPDEST JUMP JUMPDEST PUSH1 0x0 PUSH1 0x5 PUSH1 0x0 SWAP1 SLOAD SWAP1 PUSH2 0x100 EXP SWAP1 DIV PUSH20 0xFFFFFFFFFFFFFFFFFFFFFFFFFFFFFFFFFFFFFFFF AND SWAP1 POP SWAP1 JUMP JUMPDEST PUSH1 0x60 PUSH1 0x4 DUP1 SLOAD PUSH2 0x709 SWAP1 PUSH2 0x1A9D JUMP JUMPDEST DUP1 PUSH1 0x1F ADD PUSH1 0x20 DUP1 SWAP2 DIV MUL PUSH1 0x20 ADD PUSH1 0x40 MLOAD SWAP1 DUP2 ADD PUSH1 0x40 MSTORE DUP1 SWAP3 SWAP2 SWAP1 DUP2 DUP2 MSTORE PUSH1 0x20 ADD DUP3 DUP1 SLOAD PUSH2 0x735 SWAP1 PUSH2 0x1A9D JUMP JUMPDEST DUP1 ISZERO PUSH2 0x782 JUMPI DUP1 PUSH1 0x1F LT PUSH2 0x757 JUMPI PUSH2 0x100 DUP1 DUP4 SLOAD DIV MUL DUP4 MSTORE SWAP2 PUSH1 0x20 ADD SWAP2 PUSH2 0x782 JUMP JUMPDEST DUP3 ADD SWAP2 SWAP1 PUSH1 0x0 MSTORE PUSH1 0x20 PUSH1 0x0 KECCAK256 SWAP1 JUMPDEST DUP2 SLOAD DUP2 MSTORE SWAP1 PUSH1 0x1 ADD SWAP1 PUSH1 0x20 ADD DUP1 DUP4 GT PUSH2 0x765 JUMPI DUP3 SWAP1 SUB PUSH1 0x1F AND DUP3 ADD SWAP2 JUMPDEST POP POP POP POP POP SWAP1 POP SWAP1 JUMP JUMPDEST PUSH1 0x6 PUSH1 0x0 CALLER PUSH20 0xFFFFFFFFFFFFFFFFFFFFFFFFFFFFFFFFFFFFFFFF AND PUSH20 0xFFFFFFFFFFFFFFFFFFFFFFFFFFFFFFFFFFFFFFFF AND DUP2 MSTORE PUSH1 0x20 ADD SWAP1 DUP2 MSTORE PUSH1 0x20 ADD PUSH1 0x0 KECCAK256 PUSH1 0x0 SWAP1 SLOAD SWAP1 PUSH2 0x100 EXP SWAP1 DIV PUSH1 0xFF AND PUSH2 0x818 JUMPI PUSH1 0x40 MLOAD PUSH32 0x8C379A000000000000000000000000000000000000000000000000000000000 DUP2 MSTORE PUSH1 0x4 ADD PUSH2 0x80F SWAP1 PUSH2 0x1859 JUMP JUMPDEST PUSH1 0x40 MLOAD DUP1 SWAP2 SUB SWAP1 REVERT JUMPDEST PUSH2 0x822 DUP3 DUP3 PUSH2 0x11FB JUMP JUMPDEST POP POP JUMP JUMPDEST PUSH1 0x0 DUP1 PUSH1 0x1 PUSH1 0x0 PUSH2 0x835 PUSH2 0xCE1 JUMP JUMPDEST PUSH20 0xFFFFFFFFFFFFFFFFFFFFFFFFFFFFFFFFFFFFFFFF AND PUSH20 0xFFFFFFFFFFFFFFFFFFFFFFFFFFFFFFFFFFFFFFFF AND DUP2 MSTORE PUSH1 0x20 ADD SWAP1 DUP2 MSTORE PUSH1 0x20 ADD PUSH1 0x0 KECCAK256 PUSH1 0x0 DUP6 PUSH20 0xFFFFFFFFFFFFFFFFFFFFFFFFFFFFFFFFFFFFFFFF AND PUSH20 0xFFFFFFFFFFFFFFFFFFFFFFFFFFFFFFFFFFFFFFFF AND DUP2 MSTORE PUSH1 0x20 ADD SWAP1 DUP2 MSTORE PUSH1 0x20 ADD PUSH1 0x0 KECCAK256 SLOAD SWAP1 POP DUP3 DUP2 LT ISZERO PUSH2 0x8F2 JUMPI PUSH1 0x40 MLOAD PUSH32 0x8C379A000000000000000000000000000000000000000000000000000000000 DUP2 MSTORE PUSH1 0x4 ADD PUSH2 0x8E9 SWAP1 PUSH2 0x1919 JUMP JUMPDEST PUSH1 0x40 MLOAD DUP1 SWAP2 SUB SWAP1 REVERT JUMPDEST PUSH2 0x906 PUSH2 0x8FD PUSH2 0xCE1 JUMP JUMPDEST DUP6 DUP6 DUP5 SUB PUSH2 0xCE9 JUMP JUMPDEST PUSH1 0x1 SWAP2 POP POP SWAP3 SWAP2 POP POP JUMP JUMPDEST PUSH2 0x919 PUSH2 0xCE1 JUMP JUMPDEST PUSH20 0xFFFFFFFFFFFFFFFFFFFFFFFFFFFFFFFFFFFFFFFF AND PUSH2 0x937 PUSH2 0x6D0 JUMP JUMPDEST PUSH20 0xFFFFFFFFFFFFFFFFFFFFFFFFFFFFFFFFFFFFFFFF AND EQ PUSH2 0x98D JUMPI PUSH1 0x40 MLOAD PUSH32 0x8C379A000000000000000000000000000000000000000000000000000000000 DUP2 MSTORE PUSH1 0x4 ADD PUSH2 0x984 SWAP1 PUSH2 0x1899 JUMP JUMPDEST PUSH1 0x40 MLOAD DUP1 SWAP2 SUB SWAP1 REVERT JUMPDEST PUSH1 0x1 PUSH1 0x6 PUSH1 0x0 DUP4 PUSH20 0xFFFFFFFFFFFFFFFFFFFFFFFFFFFFFFFFFFFFFFFF AND PUSH20 0xFFFFFFFFFFFFFFFFFFFFFFFFFFFFFFFFFFFFFFFF AND DUP2 MSTORE PUSH1 0x20 ADD SWAP1 DUP2 MSTORE PUSH1 0x20 ADD PUSH1 0x0 KECCAK256 PUSH1 0x0 PUSH2 0x100 EXP DUP2 SLOAD DUP2 PUSH1 0xFF MUL NOT AND SWAP1 DUP4 ISZERO ISZERO MUL OR SWAP1 SSTORE POP POP JUMP JUMPDEST PUSH1 0x0 PUSH2 0x9FC PUSH2 0x9F5 PUSH2 0xCE1 JUMP JUMPDEST DUP5 DUP5 PUSH2 0xEB4 JUMP JUMPDEST PUSH1 0x1 SWAP1 POP SWAP3 SWAP2 POP POP JUMP JUMPDEST PUSH1 0x0 PUSH1 0x1 PUSH1 0x0 DUP5 PUSH20 0xFFFFFFFFFFFFFFFFFFFFFFFFFFFFFFFFFFFFFFFF AND PUSH20 0xFFFFFFFFFFFFFFFFFFFFFFFFFFFFFFFFFFFFFFFF AND DUP2 MSTORE PUSH1 0x20 ADD SWAP1 DUP2 MSTORE PUSH1 0x20 ADD PUSH1 0x0 KECCAK256 PUSH1 0x0 DUP4 PUSH20 0xFFFFFFFFFFFFFFFFFFFFFFFFFFFFFFFFFFFFFFFF AND PUSH20 0xFFFFFFFFFFFFFFFFFFFFFFFFFFFFFFFFFFFFFFFF AND DUP2 MSTORE PUSH1 0x20 ADD SWAP1 DUP2 MSTORE PUSH1 0x20 ADD PUSH1 0x0 KECCAK256 SLOAD SWAP1 POP SWAP3 SWAP2 POP POP JUMP JUMPDEST PUSH2 0xA95 PUSH2 0xCE1 JUMP JUMPDEST PUSH20 0xFFFFFFFFFFFFFFFFFFFFFFFFFFFFFFFFFFFFFFFF AND PUSH2 0xAB3 PUSH2 0x6D0 JUMP JUMPDEST PUSH20 0xFFFFFFFFFFFFFFFFFFFFFFFFFFFFFFFFFFFFFFFF AND EQ PUSH2 0xB09 JUMPI PUSH1 0x40 MLOAD PUSH32 0x8C379A000000000000000000000000000000000000000000000000000000000 DUP2 MSTORE PUSH1 0x4 ADD PUSH2 0xB00 SWAP1 PUSH2 0x1899 JUMP JUMPDEST PUSH1 0x40 MLOAD DUP1 SWAP2 SUB SWAP1 REVERT JUMPDEST PUSH1 0x0 PUSH20 0xFFFFFFFFFFFFFFFFFFFFFFFFFFFFFFFFFFFFFFFF AND DUP2 PUSH20 0xFFFFFFFFFFFFFFFFFFFFFFFFFFFFFFFFFFFFFFFF AND EQ ISZERO PUSH2 0xB79 JUMPI PUSH1 0x40 MLOAD PUSH32 0x8C379A000000000000000000000000000000000000000000000000000000000 DUP2 MSTORE PUSH1 0x4 ADD PUSH2 0xB70 SWAP1 PUSH2 0x17F9 JUMP JUMPDEST PUSH1 0x40 MLOAD DUP1 SWAP2 SUB SWAP1 REVERT JUMPDEST PUSH2 0xB82 DUP2 PUSH2 0x1135 JUMP JUMPDEST POP JUMP JUMPDEST PUSH2 0xB8D PUSH2 0xCE1 JUMP JUMPDEST PUSH20 0xFFFFFFFFFFFFFFFFFFFFFFFFFFFFFFFFFFFFFFFF AND PUSH2 0xBAB PUSH2 0x6D0 JUMP JUMPDEST PUSH20 0xFFFFFFFFFFFFFFFFFFFFFFFFFFFFFFFFFFFFFFFF AND EQ PUSH2 0xC01 JUMPI PUSH1 0x40 MLOAD PUSH32 0x8C379A000000000000000000000000000000000000000000000000000000000 DUP2 MSTORE PUSH1 0x4 ADD PUSH2 0xBF8 SWAP1 PUSH2 0x1899 JUMP JUMPDEST PUSH1 0x40 MLOAD DUP1 SWAP2 SUB SWAP1 REVERT JUMPDEST PUSH1 0x0 PUSH1 0x6 PUSH1 0x0 DUP4 PUSH20 0xFFFFFFFFFFFFFFFFFFFFFFFFFFFFFFFFFFFFFFFF AND PUSH20 0xFFFFFFFFFFFFFFFFFFFFFFFFFFFFFFFFFFFFFFFF AND DUP2 MSTORE PUSH1 0x20 ADD SWAP1 DUP2 MSTORE PUSH1 0x20 ADD PUSH1 0x0 KECCAK256 PUSH1 0x0 PUSH2 0x100 EXP DUP2 SLOAD DUP2 PUSH1 0xFF MUL NOT AND SWAP1 DUP4 ISZERO ISZERO MUL OR SWAP1 SSTORE POP POP JUMP JUMPDEST PUSH1 0x0 ADDRESS PUSH20 0xFFFFFFFFFFFFFFFFFFFFFFFFFFFFFFFFFFFFFFFF AND PUSH4 0x18160DDD PUSH1 0x40 MLOAD DUP2 PUSH4 0xFFFFFFFF AND PUSH1 0xE0 SHL DUP2 MSTORE PUSH1 0x4 ADD PUSH1 0x20 PUSH1 0x40 MLOAD DUP1 DUP4 SUB DUP2 DUP7 DUP1 EXTCODESIZE ISZERO DUP1 ISZERO PUSH2 0xCA4 JUMPI PUSH1 0x0 DUP1 REVERT JUMPDEST POP GAS STATICCALL ISZERO DUP1 ISZERO PUSH2 0xCB8 JUMPI RETURNDATASIZE PUSH1 0x0 DUP1 RETURNDATACOPY RETURNDATASIZE PUSH1 0x0 REVERT JUMPDEST POP POP POP POP PUSH1 0x40 MLOAD RETURNDATASIZE PUSH1 0x1F NOT PUSH1 0x1F DUP3 ADD AND DUP3 ADD DUP1 PUSH1 0x40 MSTORE POP DUP2 ADD SWAP1 PUSH2 0xCDC SWAP2 SWAP1 PUSH2 0x151B JUMP JUMPDEST SWAP1 POP SWAP1 JUMP JUMPDEST PUSH1 0x0 CALLER SWAP1 POP SWAP1 JUMP JUMPDEST PUSH1 0x0 PUSH20 0xFFFFFFFFFFFFFFFFFFFFFFFFFFFFFFFFFFFFFFFF AND DUP4 PUSH20 0xFFFFFFFFFFFFFFFFFFFFFFFFFFFFFFFFFFFFFFFF AND EQ ISZERO PUSH2 0xD59 JUMPI PUSH1 0x40 MLOAD PUSH32 0x8C379A000000000000000000000000000000000000000000000000000000000 DUP2 MSTORE PUSH1 0x4 ADD PUSH2 0xD50 SWAP1 PUSH2 0x18F9 JUMP JUMPDEST PUSH1 0x40 MLOAD DUP1 SWAP2 SUB SWAP1 REVERT JUMPDEST PUSH1 0x0 PUSH20 0xFFFFFFFFFFFFFFFFFFFFFFFFFFFFFFFFFFFFFFFF AND DUP3 PUSH20 0xFFFFFFFFFFFFFFFFFFFFFFFFFFFFFFFFFFFFFFFF AND EQ ISZERO PUSH2 0xDC9 JUMPI PUSH1 0x40 MLOAD PUSH32 0x8C379A000000000000000000000000000000000000000000000000000000000 DUP2 MSTORE PUSH1 0x4 ADD PUSH2 0xDC0 SWAP1 PUSH2 0x1819 JUMP JUMPDEST PUSH1 0x40 MLOAD DUP1 SWAP2 SUB SWAP1 REVERT JUMPDEST DUP1 PUSH1 0x1 PUSH1 0x0 DUP6 PUSH20 0xFFFFFFFFFFFFFFFFFFFFFFFFFFFFFFFFFFFFFFFF AND PUSH20 0xFFFFFFFFFFFFFFFFFFFFFFFFFFFFFFFFFFFFFFFF AND DUP2 MSTORE PUSH1 0x20 ADD SWAP1 DUP2 MSTORE PUSH1 0x20 ADD PUSH1 0x0 KECCAK256 PUSH1 0x0 DUP5 PUSH20 0xFFFFFFFFFFFFFFFFFFFFFFFFFFFFFFFFFFFFFFFF AND PUSH20 0xFFFFFFFFFFFFFFFFFFFFFFFFFFFFFFFFFFFFFFFF AND DUP2 MSTORE PUSH1 0x20 ADD SWAP1 DUP2 MSTORE PUSH1 0x20 ADD PUSH1 0x0 KECCAK256 DUP2 SWAP1 SSTORE POP DUP2 PUSH20 0xFFFFFFFFFFFFFFFFFFFFFFFFFFFFFFFFFFFFFFFF AND DUP4 PUSH20 0xFFFFFFFFFFFFFFFFFFFFFFFFFFFFFFFFFFFFFFFF AND PUSH32 0x8C5BE1E5EBEC7D5BD14F71427D1E84F3DD0314C0F7B2291E5B200AC8C7C3B925 DUP4 PUSH1 0x40 MLOAD PUSH2 0xEA7 SWAP2 SWAP1 PUSH2 0x1939 JUMP JUMPDEST PUSH1 0x40 MLOAD DUP1 SWAP2 SUB SWAP1 LOG3 POP POP POP JUMP JUMPDEST PUSH1 0x0 PUSH20 0xFFFFFFFFFFFFFFFFFFFFFFFFFFFFFFFFFFFFFFFF AND DUP4 PUSH20 0xFFFFFFFFFFFFFFFFFFFFFFFFFFFFFFFFFFFFFFFF AND EQ ISZERO PUSH2 0xF24 JUMPI PUSH1 0x40 MLOAD PUSH32 0x8C379A000000000000000000000000000000000000000000000000000000000 DUP2 MSTORE PUSH1 0x4 ADD PUSH2 0xF1B SWAP1 PUSH2 0x18D9 JUMP JUMPDEST PUSH1 0x40 MLOAD DUP1 SWAP2 SUB SWAP1 REVERT JUMPDEST PUSH1 0x0 PUSH20 0xFFFFFFFFFFFFFFFFFFFFFFFFFFFFFFFFFFFFFFFF AND DUP3 PUSH20 0xFFFFFFFFFFFFFFFFFFFFFFFFFFFFFFFFFFFFFFFF AND EQ ISZERO PUSH2 0xF94 JUMPI PUSH1 0x40 MLOAD PUSH32 0x8C379A000000000000000000000000000000000000000000000000000000000 DUP2 MSTORE PUSH1 0x4 ADD PUSH2 0xF8B SWAP1 PUSH2 0x17B9 JUMP JUMPDEST PUSH1 0x40 MLOAD DUP1 SWAP2 SUB SWAP1 REVERT JUMPDEST PUSH2 0xF9F DUP4 DUP4 DUP4 PUSH2 0x13D2 JUMP JUMPDEST PUSH1 0x0 DUP1 PUSH1 0x0 DUP6 PUSH20 0xFFFFFFFFFFFFFFFFFFFFFFFFFFFFFFFFFFFFFFFF AND PUSH20 0xFFFFFFFFFFFFFFFFFFFFFFFFFFFFFFFFFFFFFFFF AND DUP2 MSTORE PUSH1 0x20 ADD SWAP1 DUP2 MSTORE PUSH1 0x20 ADD PUSH1 0x0 KECCAK256 SLOAD SWAP1 POP DUP2 DUP2 LT ISZERO PUSH2 0x1025 JUMPI PUSH1 0x40 MLOAD PUSH32 0x8C379A000000000000000000000000000000000000000000000000000000000 DUP2 MSTORE PUSH1 0x4 ADD PUSH2 0x101C SWAP1 PUSH2 0x1839 JUMP JUMPDEST PUSH1 0x40 MLOAD DUP1 SWAP2 SUB SWAP1 REVERT JUMPDEST DUP2 DUP2 SUB PUSH1 0x0 DUP1 DUP7 PUSH20 0xFFFFFFFFFFFFFFFFFFFFFFFFFFFFFFFFFFFFFFFF AND PUSH20 0xFFFFFFFFFFFFFFFFFFFFFFFFFFFFFFFFFFFFFFFF AND DUP2 MSTORE PUSH1 0x20 ADD SWAP1 DUP2 MSTORE PUSH1 0x20 ADD PUSH1 0x0 KECCAK256 DUP2 SWAP1 SSTORE POP DUP2 PUSH1 0x0 DUP1 DUP6 PUSH20 0xFFFFFFFFFFFFFFFFFFFFFFFFFFFFFFFFFFFFFFFF AND PUSH20 0xFFFFFFFFFFFFFFFFFFFFFFFFFFFFFFFFFFFFFFFF AND DUP2 MSTORE PUSH1 0x20 ADD SWAP1 DUP2 MSTORE PUSH1 0x20 ADD PUSH1 0x0 KECCAK256 PUSH1 0x0 DUP3 DUP3 SLOAD PUSH2 0x10B8 SWAP2 SWAP1 PUSH2 0x198B JUMP JUMPDEST SWAP3 POP POP DUP2 SWAP1 SSTORE POP DUP3 PUSH20 0xFFFFFFFFFFFFFFFFFFFFFFFFFFFFFFFFFFFFFFFF AND DUP5 PUSH20 0xFFFFFFFFFFFFFFFFFFFFFFFFFFFFFFFFFFFFFFFF AND PUSH32 0xDDF252AD1BE2C89B69C2B068FC378DAA952BA7F163C4A11628F55A4DF523B3EF DUP5 PUSH1 0x40 MLOAD PUSH2 0x111C SWAP2 SWAP1 PUSH2 0x1939 JUMP JUMPDEST PUSH1 0x40 MLOAD DUP1 SWAP2 SUB SWAP1 LOG3 PUSH2 0x112F DUP5 DUP5 DUP5 PUSH2 0x13D7 JUMP JUMPDEST POP POP POP POP JUMP JUMPDEST PUSH1 0x0 PUSH1 0x5 PUSH1 0x0 SWAP1 SLOAD SWAP1 PUSH2 0x100 EXP SWAP1 DIV PUSH20 0xFFFFFFFFFFFFFFFFFFFFFFFFFFFFFFFFFFFFFFFF AND SWAP1 POP DUP2 PUSH1 0x5 PUSH1 0x0 PUSH2 0x100 EXP DUP2 SLOAD DUP2 PUSH20 0xFFFFFFFFFFFFFFFFFFFFFFFFFFFFFFFFFFFFFFFF MUL NOT AND SWAP1 DUP4 PUSH20 0xFFFFFFFFFFFFFFFFFFFFFFFFFFFFFFFFFFFFFFFF AND MUL OR SWAP1 SSTORE POP DUP2 PUSH20 0xFFFFFFFFFFFFFFFFFFFFFFFFFFFFFFFFFFFFFFFF AND DUP2 PUSH20 0xFFFFFFFFFFFFFFFFFFFFFFFFFFFFFFFFFFFFFFFF AND PUSH32 0x8BE0079C531659141344CD1FD0A4F28419497F9722A3DAAFE3B4186F6B6457E0 PUSH1 0x40 MLOAD PUSH1 0x40 MLOAD DUP1 SWAP2 SUB SWAP1 LOG3 POP POP JUMP JUMPDEST PUSH1 0x0 PUSH20 0xFFFFFFFFFFFFFFFFFFFFFFFFFFFFFFFFFFFFFFFF AND DUP3 PUSH20 0xFFFFFFFFFFFFFFFFFFFFFFFFFFFFFFFFFFFFFFFF AND EQ ISZERO PUSH2 0x126B JUMPI PUSH1 0x40 MLOAD PUSH32 0x8C379A000000000000000000000000000000000000000000000000000000000 DUP2 MSTORE PUSH1 0x4 ADD PUSH2 0x1262 SWAP1 PUSH2 0x18B9 JUMP JUMPDEST PUSH1 0x40 MLOAD DUP1 SWAP2 SUB SWAP1 REVERT JUMPDEST PUSH2 0x1277 DUP3 PUSH1 0x0 DUP4 PUSH2 0x13D2 JUMP JUMPDEST PUSH1 0x0 DUP1 PUSH1 0x0 DUP5 PUSH20 0xFFFFFFFFFFFFFFFFFFFFFFFFFFFFFFFFFFFFFFFF AND PUSH20 0xFFFFFFFFFFFFFFFFFFFFFFFFFFFFFFFFFFFFFFFF AND DUP2 MSTORE PUSH1 0x20 ADD SWAP1 DUP2 MSTORE PUSH1 0x20 ADD PUSH1 0x0 KECCAK256 SLOAD SWAP1 POP DUP2 DUP2 LT ISZERO PUSH2 0x12FD JUMPI PUSH1 0x40 MLOAD PUSH32 0x8C379A000000000000000000000000000000000000000000000000000000000 DUP2 MSTORE PUSH1 0x4 ADD PUSH2 0x12F4 SWAP1 PUSH2 0x17D9 JUMP JUMPDEST PUSH1 0x40 MLOAD DUP1 SWAP2 SUB SWAP1 REVERT JUMPDEST DUP2 DUP2 SUB PUSH1 0x0 DUP1 DUP6 PUSH20 0xFFFFFFFFFFFFFFFFFFFFFFFFFFFFFFFFFFFFFFFF AND PUSH20 0xFFFFFFFFFFFFFFFFFFFFFFFFFFFFFFFFFFFFFFFF AND DUP2 MSTORE PUSH1 0x20 ADD SWAP1 DUP2 MSTORE PUSH1 0x20 ADD PUSH1 0x0 KECCAK256 DUP2 SWAP1 SSTORE POP DUP2 PUSH1 0x2 PUSH1 0x0 DUP3 DUP3 SLOAD PUSH2 0x1354 SWAP2 SWAP1 PUSH2 0x19E1 JUMP JUMPDEST SWAP3 POP POP DUP2 SWAP1 SSTORE POP PUSH1 0x0 PUSH20 0xFFFFFFFFFFFFFFFFFFFFFFFFFFFFFFFFFFFFFFFF AND DUP4 PUSH20 0xFFFFFFFFFFFFFFFFFFFFFFFFFFFFFFFFFFFFFFFF AND PUSH32 0xDDF252AD1BE2C89B69C2B068FC378DAA952BA7F163C4A11628F55A4DF523B3EF DUP5 PUSH1 0x40 MLOAD PUSH2 0x13B9 SWAP2 SWAP1 PUSH2 0x1939 JUMP JUMPDEST PUSH1 0x40 MLOAD DUP1 SWAP2 SUB SWAP1 LOG3 PUSH2 0x13CD DUP4 PUSH1 0x0 DUP5 PUSH2 0x13D7 JUMP JUMPDEST POP POP POP JUMP JUMPDEST POP POP POP JUMP JUMPDEST POP POP POP JUMP JUMPDEST PUSH1 0x0 DUP2 CALLDATALOAD SWAP1 POP PUSH2 0x13EB DUP2 PUSH2 0x1EAB JUMP JUMPDEST SWAP3 SWAP2 POP POP JUMP JUMPDEST PUSH1 0x0 DUP2 CALLDATALOAD SWAP1 POP PUSH2 0x1400 DUP2 PUSH2 0x1EC2 JUMP JUMPDEST SWAP3 SWAP2 POP POP JUMP JUMPDEST PUSH1 0x0 DUP2 MLOAD SWAP1 POP PUSH2 0x1415 DUP2 PUSH2 0x1EC2 JUMP JUMPDEST SWAP3 SWAP2 POP POP JUMP JUMPDEST PUSH1 0x0 PUSH1 0x20 DUP3 DUP5 SUB SLT ISZERO PUSH2 0x1431 JUMPI PUSH2 0x1430 PUSH2 0x1B2D JUMP JUMPDEST JUMPDEST PUSH1 0x0 PUSH2 0x143F DUP5 DUP3 DUP6 ADD PUSH2 0x13DC JUMP JUMPDEST SWAP2 POP POP SWAP3 SWAP2 POP POP JUMP JUMPDEST PUSH1 0x0 DUP1 PUSH1 0x40 DUP4 DUP6 SUB SLT ISZERO PUSH2 0x145F JUMPI PUSH2 0x145E PUSH2 0x1B2D JUMP JUMPDEST JUMPDEST PUSH1 0x0 PUSH2 0x146D DUP6 DUP3 DUP7 ADD PUSH2 0x13DC JUMP JUMPDEST SWAP3 POP POP PUSH1 0x20 PUSH2 0x147E DUP6 DUP3 DUP7 ADD PUSH2 0x13DC JUMP JUMPDEST SWAP2 POP POP SWAP3 POP SWAP3 SWAP1 POP JUMP JUMPDEST PUSH1 0x0 DUP1 PUSH1 0x0 PUSH1 0x60 DUP5 DUP7 SUB SLT ISZERO PUSH2 0x14A1 JUMPI PUSH2 0x14A0 PUSH2 0x1B2D JUMP JUMPDEST JUMPDEST PUSH1 0x0 PUSH2 0x14AF DUP7 DUP3 DUP8 ADD PUSH2 0x13DC JUMP JUMPDEST SWAP4 POP POP PUSH1 0x20 PUSH2 0x14C0 DUP7 DUP3 DUP8 ADD PUSH2 0x13DC JUMP JUMPDEST SWAP3 POP POP PUSH1 0x40 PUSH2 0x14D1 DUP7 DUP3 DUP8 ADD PUSH2 0x13F1 JUMP JUMPDEST SWAP2 POP POP SWAP3 POP SWAP3 POP SWAP3 JUMP JUMPDEST PUSH1 0x0 DUP1 PUSH1 0x40 DUP4 DUP6 SUB SLT ISZERO PUSH2 0x14F2 JUMPI PUSH2 0x14F1 PUSH2 0x1B2D JUMP JUMPDEST JUMPDEST PUSH1 0x0 PUSH2 0x1500 DUP6 DUP3 DUP7 ADD PUSH2 0x13DC JUMP JUMPDEST SWAP3 POP POP PUSH1 0x20 PUSH2 0x1511 DUP6 DUP3 DUP7 ADD PUSH2 0x13F1 JUMP JUMPDEST SWAP2 POP POP SWAP3 POP SWAP3 SWAP1 POP JUMP JUMPDEST PUSH1 0x0 PUSH1 0x20 DUP3 DUP5 SUB SLT ISZERO PUSH2 0x1531 JUMPI PUSH2 0x1530 PUSH2 0x1B2D JUMP JUMPDEST JUMPDEST PUSH1 0x0 PUSH2 0x153F DUP5 DUP3 DUP6 ADD PUSH2 0x1406 JUMP JUMPDEST SWAP2 POP POP SWAP3 SWAP2 POP POP JUMP JUMPDEST PUSH2 0x1551 DUP2 PUSH2 0x1A15 JUMP JUMPDEST DUP3 MSTORE POP POP JUMP JUMPDEST PUSH2 0x1560 DUP2 PUSH2 0x1A27 JUMP JUMPDEST DUP3 MSTORE POP POP JUMP JUMPDEST PUSH1 0x0 PUSH2 0x1571 DUP3 PUSH2 0x196F JUMP JUMPDEST PUSH2 0x157B DUP2 DUP6 PUSH2 0x197A JUMP JUMPDEST SWAP4 POP PUSH2 0x158B DUP2 DUP6 PUSH1 0x20 DUP7 ADD PUSH2 0x1A6A JUMP JUMPDEST PUSH2 0x1594 DUP2 PUSH2 0x1B32 JUMP JUMPDEST DUP5 ADD SWAP2 POP POP SWAP3 SWAP2 POP POP JUMP JUMPDEST PUSH1 0x0 PUSH2 0x15AC PUSH1 0x23 DUP4 PUSH2 0x197A JUMP JUMPDEST SWAP2 POP PUSH2 0x15B7 DUP3 PUSH2 0x1B43 JUMP JUMPDEST PUSH1 0x40 DUP3 ADD SWAP1 POP SWAP2 SWAP1 POP JUMP JUMPDEST PUSH1 0x0 PUSH2 0x15CF PUSH1 0x22 DUP4 PUSH2 0x197A JUMP JUMPDEST SWAP2 POP PUSH2 0x15DA DUP3 PUSH2 0x1B92 JUMP JUMPDEST PUSH1 0x40 DUP3 ADD SWAP1 POP SWAP2 SWAP1 POP JUMP JUMPDEST PUSH1 0x0 PUSH2 0x15F2 PUSH1 0x26 DUP4 PUSH2 0x197A JUMP JUMPDEST SWAP2 POP PUSH2 0x15FD DUP3 PUSH2 0x1BE1 JUMP JUMPDEST PUSH1 0x40 DUP3 ADD SWAP1 POP SWAP2 SWAP1 POP JUMP JUMPDEST PUSH1 0x0 PUSH2 0x1615 PUSH1 0x22 DUP4 PUSH2 0x197A JUMP JUMPDEST SWAP2 POP PUSH2 0x1620 DUP3 PUSH2 0x1C30 JUMP JUMPDEST PUSH1 0x40 DUP3 ADD SWAP1 POP SWAP2 SWAP1 POP JUMP JUMPDEST PUSH1 0x0 PUSH2 0x1638 PUSH1 0x26 DUP4 PUSH2 0x197A JUMP JUMPDEST SWAP2 POP PUSH2 0x1643 DUP3 PUSH2 0x1C7F JUMP JUMPDEST PUSH1 0x40 DUP3 ADD SWAP1 POP SWAP2 SWAP1 POP JUMP JUMPDEST PUSH1 0x0 PUSH2 0x165B PUSH1 0x19 DUP4 PUSH2 0x197A JUMP JUMPDEST SWAP2 POP PUSH2 0x1666 DUP3 PUSH2 0x1CCE JUMP JUMPDEST PUSH1 0x20 DUP3 ADD SWAP1 POP SWAP2 SWAP1 POP JUMP JUMPDEST PUSH1 0x0 PUSH2 0x167E PUSH1 0x28 DUP4 PUSH2 0x197A JUMP JUMPDEST SWAP2 POP PUSH2 0x1689 DUP3 PUSH2 0x1CF7 JUMP JUMPDEST PUSH1 0x40 DUP3 ADD SWAP1 POP SWAP2 SWAP1 POP JUMP JUMPDEST PUSH1 0x0 PUSH2 0x16A1 PUSH1 0x20 DUP4 PUSH2 0x197A JUMP JUMPDEST SWAP2 POP PUSH2 0x16AC DUP3 PUSH2 0x1D46 JUMP JUMPDEST PUSH1 0x20 DUP3 ADD SWAP1 POP SWAP2 SWAP1 POP JUMP JUMPDEST PUSH1 0x0 PUSH2 0x16C4 PUSH1 0x21 DUP4 PUSH2 0x197A JUMP JUMPDEST SWAP2 POP PUSH2 0x16CF DUP3 PUSH2 0x1D6F JUMP JUMPDEST PUSH1 0x40 DUP3 ADD SWAP1 POP SWAP2 SWAP1 POP JUMP JUMPDEST PUSH1 0x0 PUSH2 0x16E7 PUSH1 0x25 DUP4 PUSH2 0x197A JUMP JUMPDEST SWAP2 POP PUSH2 0x16F2 DUP3 PUSH2 0x1DBE JUMP JUMPDEST PUSH1 0x40 DUP3 ADD SWAP1 POP SWAP2 SWAP1 POP JUMP JUMPDEST PUSH1 0x0 PUSH2 0x170A PUSH1 0x24 DUP4 PUSH2 0x197A JUMP JUMPDEST SWAP2 POP PUSH2 0x1715 DUP3 PUSH2 0x1E0D JUMP JUMPDEST PUSH1 0x40 DUP3 ADD SWAP1 POP SWAP2 SWAP1 POP JUMP JUMPDEST PUSH1 0x0 PUSH2 0x172D PUSH1 0x25 DUP4 PUSH2 0x197A JUMP JUMPDEST SWAP2 POP PUSH2 0x1738 DUP3 PUSH2 0x1E5C JUMP JUMPDEST PUSH1 0x40 DUP3 ADD SWAP1 POP SWAP2 SWAP1 POP JUMP JUMPDEST PUSH2 0x174C DUP2 PUSH2 0x1A53 JUMP JUMPDEST DUP3 MSTORE POP POP JUMP JUMPDEST PUSH2 0x175B DUP2 PUSH2 0x1A5D JUMP JUMPDEST DUP3 MSTORE POP POP JUMP JUMPDEST PUSH1 0x0 PUSH1 0x20 DUP3 ADD SWAP1 POP PUSH2 0x1776 PUSH1 0x0 DUP4 ADD DUP5 PUSH2 0x1548 JUMP JUMPDEST SWAP3 SWAP2 POP POP JUMP JUMPDEST PUSH1 0x0 PUSH1 0x20 DUP3 ADD SWAP1 POP PUSH2 0x1791 PUSH1 0x0 DUP4 ADD DUP5 PUSH2 0x1557 JUMP JUMPDEST SWAP3 SWAP2 POP POP JUMP JUMPDEST PUSH1 0x0 PUSH1 0x20 DUP3 ADD SWAP1 POP DUP2 DUP2 SUB PUSH1 0x0 DUP4 ADD MSTORE PUSH2 0x17B1 DUP2 DUP5 PUSH2 0x1566 JUMP JUMPDEST SWAP1 POP SWAP3 SWAP2 POP POP JUMP JUMPDEST PUSH1 0x0 PUSH1 0x20 DUP3 ADD SWAP1 POP DUP2 DUP2 SUB PUSH1 0x0 DUP4 ADD MSTORE PUSH2 0x17D2 DUP2 PUSH2 0x159F JUMP JUMPDEST SWAP1 POP SWAP2 SWAP1 POP JUMP JUMPDEST PUSH1 0x0 PUSH1 0x20 DUP3 ADD SWAP1 POP DUP2 DUP2 SUB PUSH1 0x0 DUP4 ADD MSTORE PUSH2 0x17F2 DUP2 PUSH2 0x15C2 JUMP JUMPDEST SWAP1 POP SWAP2 SWAP1 POP JUMP JUMPDEST PUSH1 0x0 PUSH1 0x20 DUP3 ADD SWAP1 POP DUP2 DUP2 SUB PUSH1 0x0 DUP4 ADD MSTORE PUSH2 0x1812 DUP2 PUSH2 0x15E5 JUMP JUMPDEST SWAP1 POP SWAP2 SWAP1 POP JUMP JUMPDEST PUSH1 0x0 PUSH1 0x20 DUP3 ADD SWAP1 POP DUP2 DUP2 SUB PUSH1 0x0 DUP4 ADD MSTORE PUSH2 0x1832 DUP2 PUSH2 0x1608 JUMP JUMPDEST SWAP1 POP SWAP2 SWAP1 POP JUMP JUMPDEST PUSH1 0x0 PUSH1 0x20 DUP3 ADD SWAP1 POP DUP2 DUP2 SUB PUSH1 0x0 DUP4 ADD MSTORE PUSH2 0x1852 DUP2 PUSH2 0x162B JUMP JUMPDEST SWAP1 POP SWAP2 SWAP1 POP JUMP JUMPDEST PUSH1 0x0 PUSH1 0x20 DUP3 ADD SWAP1 POP DUP2 DUP2 SUB PUSH1 0x0 DUP4 ADD MSTORE PUSH2 0x1872 DUP2 PUSH2 0x164E JUMP JUMPDEST SWAP1 POP SWAP2 SWAP1 POP JUMP JUMPDEST PUSH1 0x0 PUSH1 0x20 DUP3 ADD SWAP1 POP DUP2 DUP2 SUB PUSH1 0x0 DUP4 ADD MSTORE PUSH2 0x1892 DUP2 PUSH2 0x1671 JUMP JUMPDEST SWAP1 POP SWAP2 SWAP1 POP JUMP JUMPDEST PUSH1 0x0 PUSH1 0x20 DUP3 ADD SWAP1 POP DUP2 DUP2 SUB PUSH1 0x0 DUP4 ADD MSTORE PUSH2 0x18B2 DUP2 PUSH2 0x1694 JUMP JUMPDEST SWAP1 POP SWAP2 SWAP1 POP JUMP JUMPDEST PUSH1 0x0 PUSH1 0x20 DUP3 ADD SWAP1 POP DUP2 DUP2 SUB PUSH1 0x0 DUP4 ADD MSTORE PUSH2 0x18D2 DUP2 PUSH2 0x16B7 JUMP JUMPDEST SWAP1 POP SWAP2 SWAP1 POP JUMP JUMPDEST PUSH1 0x0 PUSH1 0x20 DUP3 ADD SWAP1 POP DUP2 DUP2 SUB PUSH1 0x0 DUP4 ADD MSTORE PUSH2 0x18F2 DUP2 PUSH2 0x16DA JUMP JUMPDEST SWAP1 POP SWAP2 SWAP1 POP JUMP JUMPDEST PUSH1 0x0 PUSH1 0x20 DUP3 ADD SWAP1 POP DUP2 DUP2 SUB PUSH1 0x0 DUP4 ADD MSTORE PUSH2 0x1912 DUP2 PUSH2 0x16FD JUMP JUMPDEST SWAP1 POP SWAP2 SWAP1 POP JUMP JUMPDEST PUSH1 0x0 PUSH1 0x20 DUP3 ADD SWAP1 POP DUP2 DUP2 SUB PUSH1 0x0 DUP4 ADD MSTORE PUSH2 0x1932 DUP2 PUSH2 0x1720 JUMP JUMPDEST SWAP1 POP SWAP2 SWAP1 POP JUMP JUMPDEST PUSH1 0x0 PUSH1 0x20 DUP3 ADD SWAP1 POP PUSH2 0x194E PUSH1 0x0 DUP4 ADD DUP5 PUSH2 0x1743 JUMP JUMPDEST SWAP3 SWAP2 POP POP JUMP JUMPDEST PUSH1 0x0 PUSH1 0x20 DUP3 ADD SWAP1 POP PUSH2 0x1969 PUSH1 0x0 DUP4 ADD DUP5 PUSH2 0x1752 JUMP JUMPDEST SWAP3 SWAP2 POP POP JUMP JUMPDEST PUSH1 0x0 DUP2 MLOAD SWAP1 POP SWAP2 SWAP1 POP JUMP JUMPDEST PUSH1 0x0 DUP3 DUP3 MSTORE PUSH1 0x20 DUP3 ADD SWAP1 POP SWAP3 SWAP2 POP POP JUMP JUMPDEST PUSH1 0x0 PUSH2 0x1996 DUP3 PUSH2 0x1A53 JUMP JUMPDEST SWAP2 POP PUSH2 0x19A1 DUP4 PUSH2 0x1A53 JUMP JUMPDEST SWAP3 POP DUP3 PUSH32 0xFFFFFFFFFFFFFFFFFFFFFFFFFFFFFFFFFFFFFFFFFFFFFFFFFFFFFFFFFFFFFFFF SUB DUP3 GT ISZERO PUSH2 0x19D6 JUMPI PUSH2 0x19D5 PUSH2 0x1ACF JUMP JUMPDEST JUMPDEST DUP3 DUP3 ADD SWAP1 POP SWAP3 SWAP2 POP POP JUMP JUMPDEST PUSH1 0x0 PUSH2 0x19EC DUP3 PUSH2 0x1A53 JUMP JUMPDEST SWAP2 POP PUSH2 0x19F7 DUP4 PUSH2 0x1A53 JUMP JUMPDEST SWAP3 POP DUP3 DUP3 LT ISZERO PUSH2 0x1A0A JUMPI PUSH2 0x1A09 PUSH2 0x1ACF JUMP JUMPDEST JUMPDEST DUP3 DUP3 SUB SWAP1 POP SWAP3 SWAP2 POP POP JUMP JUMPDEST PUSH1 0x0 PUSH2 0x1A20 DUP3 PUSH2 0x1A33 JUMP JUMPDEST SWAP1 POP SWAP2 SWAP1 POP JUMP JUMPDEST PUSH1 0x0 DUP2 ISZERO ISZERO SWAP1 POP SWAP2 SWAP1 POP JUMP JUMPDEST PUSH1 0x0 PUSH20 0xFFFFFFFFFFFFFFFFFFFFFFFFFFFFFFFFFFFFFFFF DUP3 AND SWAP1 POP SWAP2 SWAP1 POP JUMP JUMPDEST PUSH1 0x0 DUP2 SWAP1 POP SWAP2 SWAP1 POP JUMP JUMPDEST PUSH1 0x0 PUSH1 0xFF DUP3 AND SWAP1 POP SWAP2 SWAP1 POP JUMP JUMPDEST PUSH1 0x0 JUMPDEST DUP4 DUP2 LT ISZERO PUSH2 0x1A88 JUMPI DUP1 DUP3 ADD MLOAD DUP2 DUP5 ADD MSTORE PUSH1 0x20 DUP2 ADD SWAP1 POP PUSH2 0x1A6D JUMP JUMPDEST DUP4 DUP2 GT ISZERO PUSH2 0x1A97 JUMPI PUSH1 0x0 DUP5 DUP5 ADD MSTORE JUMPDEST POP POP POP POP JUMP JUMPDEST PUSH1 0x0 PUSH1 0x2 DUP3 DIV SWAP1 POP PUSH1 0x1 DUP3 AND DUP1 PUSH2 0x1AB5 JUMPI PUSH1 0x7F DUP3 AND SWAP2 POP JUMPDEST PUSH1 0x20 DUP3 LT DUP2 EQ ISZERO PUSH2 0x1AC9 JUMPI PUSH2 0x1AC8 PUSH2 0x1AFE JUMP JUMPDEST JUMPDEST POP SWAP2 SWAP1 POP JUMP JUMPDEST PUSH32 0x4E487B7100000000000000000000000000000000000000000000000000000000 PUSH1 0x0 MSTORE PUSH1 0x11 PUSH1 0x4 MSTORE PUSH1 0x24 PUSH1 0x0 REVERT JUMPDEST PUSH32 0x4E487B7100000000000000000000000000000000000000000000000000000000 PUSH1 0x0 MSTORE PUSH1 0x22 PUSH1 0x4 MSTORE PUSH1 0x24 PUSH1 0x0 REVERT JUMPDEST PUSH1 0x0 DUP1 REVERT JUMPDEST PUSH1 0x0 PUSH1 0x1F NOT PUSH1 0x1F DUP4 ADD AND SWAP1 POP SWAP2 SWAP1 POP JUMP JUMPDEST PUSH32 0x45524332303A207472616E7366657220746F20746865207A65726F2061646472 PUSH1 0x0 DUP3 ADD MSTORE PUSH32 0x6573730000000000000000000000000000000000000000000000000000000000 PUSH1 0x20 DUP3 ADD MSTORE POP JUMP JUMPDEST PUSH32 0x45524332303A206275726E20616D6F756E7420657863656564732062616C616E PUSH1 0x0 DUP3 ADD MSTORE PUSH32 0x6365000000000000000000000000000000000000000000000000000000000000 PUSH1 0x20 DUP3 ADD MSTORE POP JUMP JUMPDEST PUSH32 0x4F776E61626C653A206E6577206F776E657220697320746865207A65726F2061 PUSH1 0x0 DUP3 ADD MSTORE PUSH32 0x6464726573730000000000000000000000000000000000000000000000000000 PUSH1 0x20 DUP3 ADD MSTORE POP JUMP JUMPDEST PUSH32 0x45524332303A20617070726F766520746F20746865207A65726F206164647265 PUSH1 0x0 DUP3 ADD MSTORE PUSH32 0x7373000000000000000000000000000000000000000000000000000000000000 PUSH1 0x20 DUP3 ADD MSTORE POP JUMP JUMPDEST PUSH32 0x45524332303A207472616E7366657220616D6F756E7420657863656564732062 PUSH1 0x0 DUP3 ADD MSTORE PUSH32 0x616C616E63650000000000000000000000000000000000000000000000000000 PUSH1 0x20 DUP3 ADD MSTORE POP JUMP JUMPDEST PUSH32 0x4F6E6C7920636F6E74726F6C6C6572732063616E206275726E00000000000000 PUSH1 0x0 DUP3 ADD MSTORE POP JUMP JUMPDEST PUSH32 0x45524332303A207472616E7366657220616D6F756E7420657863656564732061 PUSH1 0x0 DUP3 ADD MSTORE PUSH32 0x6C6C6F77616E6365000000000000000000000000000000000000000000000000 PUSH1 0x20 DUP3 ADD MSTORE POP JUMP JUMPDEST PUSH32 0x4F776E61626C653A2063616C6C6572206973206E6F7420746865206F776E6572 PUSH1 0x0 DUP3 ADD MSTORE POP JUMP JUMPDEST PUSH32 0x45524332303A206275726E2066726F6D20746865207A65726F20616464726573 PUSH1 0x0 DUP3 ADD MSTORE PUSH32 0x7300000000000000000000000000000000000000000000000000000000000000 PUSH1 0x20 DUP3 ADD MSTORE POP JUMP JUMPDEST PUSH32 0x45524332303A207472616E736665722066726F6D20746865207A65726F206164 PUSH1 0x0 DUP3 ADD MSTORE PUSH32 0x6472657373000000000000000000000000000000000000000000000000000000 PUSH1 0x20 DUP3 ADD MSTORE POP JUMP JUMPDEST PUSH32 0x45524332303A20617070726F76652066726F6D20746865207A65726F20616464 PUSH1 0x0 DUP3 ADD MSTORE PUSH32 0x7265737300000000000000000000000000000000000000000000000000000000 PUSH1 0x20 DUP3 ADD MSTORE POP JUMP JUMPDEST PUSH32 0x45524332303A2064656372656173656420616C6C6F77616E63652062656C6F77 PUSH1 0x0 DUP3 ADD MSTORE PUSH32 0x207A65726F000000000000000000000000000000000000000000000000000000 PUSH1 0x20 DUP3 ADD MSTORE POP JUMP JUMPDEST PUSH2 0x1EB4 DUP2 PUSH2 0x1A15 JUMP JUMPDEST DUP2 EQ PUSH2 0x1EBF JUMPI PUSH1 0x0 DUP1 REVERT JUMPDEST POP JUMP JUMPDEST PUSH2 0x1ECB DUP2 PUSH2 0x1A53 JUMP JUMPDEST DUP2 EQ PUSH2 0x1ED6 JUMPI PUSH1 0x0 DUP1 REVERT JUMPDEST POP JUMP INVALID LOG2 PUSH5 0x6970667358 0x22 SLT KECCAK256 JUMPDEST STATICCALL PUSH29 0x9387F7BB0BF9BDE3A2A661479D61679505CA968F439AF69EAF0B47B2E0 PUSH5 0x736F6C6343 STOP ADDMOD SMOD STOP CALLER "
				},
				"gasEstimates": {
					"creation": {
						"codeDepositCost": "1590200",
						"executionCost": "infinite",
						"totalCost": "infinite"
					},
					"external": {
						"addController(address)": "27141",
						"allowance(address,address)": "infinite",
						"approve(address,uint256)": "infinite",
						"balanceOf(address)": "2908",
						"burn(address,uint256)": "infinite",
						"decimals()": "366",
						"decreaseAllowance(address,uint256)": "infinite",
						"increaseAllowance(address,uint256)": "infinite",
						"name()": "infinite",
						"owner()": "2633",
						"removeController(address)": "27140",
						"renounceOwnership()": "30463",
						"symbol()": "infinite",
						"totalSupply()": "2505",
						"transfer(address,uint256)": "infinite",
						"transferFrom(address,address,uint256)": "infinite",
						"transferOwnership(address)": "30789",
						"wandTotalSupply()": "infinite"
					},
					"internal": {
						"mint(address,uint256)": "infinite"
					}
				},
				"methodIdentifiers": {
					"addController(address)": "a7fc7a07",
					"allowance(address,address)": "dd62ed3e",
					"approve(address,uint256)": "095ea7b3",
					"balanceOf(address)": "70a08231",
					"burn(address,uint256)": "9dc29fac",
					"decimals()": "313ce567",
					"decreaseAllowance(address,uint256)": "a457c2d7",
					"increaseAllowance(address,uint256)": "39509351",
					"name()": "06fdde03",
					"owner()": "8da5cb5b",
					"removeController(address)": "f6a74ed7",
					"renounceOwnership()": "715018a6",
					"symbol()": "95d89b41",
					"totalSupply()": "18160ddd",
					"transfer(address,uint256)": "a9059cbb",
					"transferFrom(address,address,uint256)": "23b872dd",
					"transferOwnership(address)": "f2fde38b",
					"wandTotalSupply()": "f7425e4e"
				}
			},
			"userdoc": {
				"kind": "user",
				"methods": {
					"addController(address)": {
						"notice": "enables an address to mint / burn"
					},
					"burn(address,uint256)": {
						"notice": "burns $Scepter from a holder"
					},
					"removeController(address)": {
						"notice": "disables an address from minting / burning"
					}
				},
				"version": 1
			}
		}
	}
}