{
	"sis.sol": {
		"personalSafuuTrader": {
			"abi": [
				{
					"inputs": [],
					"stateMutability": "nonpayable",
					"type": "constructor"
				},
				{
					"inputs": [],
					"name": "BnbToSafuu",
					"outputs": [
						{
							"internalType": "uint256",
							"name": "",
							"type": "uint256"
						}
					],
					"stateMutability": "view",
					"type": "function"
				},
				{
					"inputs": [
						{
							"internalType": "uint256",
							"name": "amttobuy",
							"type": "uint256"
						}
					],
					"name": "buySafuu",
					"outputs": [],
					"stateMutability": "payable",
					"type": "function"
				},
				{
					"inputs": [],
					"name": "nativeInContract",
					"outputs": [
						{
							"internalType": "uint256",
							"name": "",
							"type": "uint256"
						}
					],
					"stateMutability": "view",
					"type": "function"
				},
				{
					"inputs": [],
					"name": "owner",
					"outputs": [
						{
							"internalType": "address payable",
							"name": "",
							"type": "address"
						}
					],
					"stateMutability": "view",
					"type": "function"
				},
				{
					"inputs": [],
					"name": "safuu",
					"outputs": [
						{
							"internalType": "contract IERC20",
							"name": "",
							"type": "address"
						}
					],
					"stateMutability": "view",
					"type": "function"
				},
				{
					"inputs": [
						{
							"internalType": "uint256",
							"name": "amttosell",
							"type": "uint256"
						}
					],
					"name": "sellSafuu",
					"outputs": [],
					"stateMutability": "nonpayable",
					"type": "function"
				},
				{
					"inputs": [
						{
							"internalType": "uint256",
							"name": "_newfactor",
							"type": "uint256"
						}
					],
					"name": "setFactor",
					"outputs": [],
					"stateMutability": "nonpayable",
					"type": "function"
				},
				{
					"inputs": [],
					"name": "taxFactor",
					"outputs": [
						{
							"internalType": "uint256",
							"name": "",
							"type": "uint256"
						}
					],
					"stateMutability": "view",
					"type": "function"
				},
				{
					"inputs": [],
					"name": "withdrawToOwner",
					"outputs": [],
					"stateMutability": "nonpayable",
					"type": "function"
				}
			],
			"devdoc": {
				"kind": "dev",
				"methods": {},
				"version": 1
			},
			"evm": {
				"assembly": "    /* \"sis.sol\":84:2287  contract personalSafuuTrader\r... */\n  mstore(0x40, 0x80)\n    /* \"sis.sol\":283:304  address(this).balance */\n  selfbalance\n    /* \"sis.sol\":249:304  uint256 public nativeInContract = address(this).balance */\n  0x04\n  sstore\n    /* \"sis.sol\":309:525  constructor () {\r... */\n  callvalue\n  dup1\n  iszero\n  tag_1\n  jumpi\n  0x00\n  dup1\n  revert\ntag_1:\n  pop\n    /* \"sis.sol\":345:355  msg.sender */\n  caller\n    /* \"sis.sol\":329:334  owner */\n  0x00\n  dup1\n    /* \"sis.sol\":329:356  owner = payable(msg.sender) */\n  0x0100\n  exp\n  dup2\n  sload\n  dup2\n  0xffffffffffffffffffffffffffffffffffffffff\n  mul\n  not\n  and\n  swap1\n  dup4\n  0xffffffffffffffffffffffffffffffffffffffff\n  and\n  mul\n  or\n  swap1\n  sstore\n  pop\n    /* \"sis.sol\":374:380  200000 */\n  0x030d40\n    /* \"sis.sol\":361:371  BnbToSafuu */\n  0x01\n    /* \"sis.sol\":361:380  BnbToSafuu = 200000 */\n  dup2\n  swap1\n  sstore\n  pop\n    /* \"sis.sol\":465:507  0x358AA13c52544ECCEF6B0ADD0f801012ADAD5eE3 */\n  0x358aa13c52544eccef6b0add0f801012adad5ee3\n    /* \"sis.sol\":450:455  safuu */\n  0x03\n  0x00\n    /* \"sis.sol\":450:508  safuu = IERC20(0x358AA13c52544ECCEF6B0ADD0f801012ADAD5eE3) */\n  0x0100\n  exp\n  dup2\n  sload\n  dup2\n  0xffffffffffffffffffffffffffffffffffffffff\n  mul\n  not\n  and\n  swap1\n  dup4\n  0xffffffffffffffffffffffffffffffffffffffff\n  and\n  mul\n  or\n  swap1\n  sstore\n  pop\n    /* \"sis.sol\":84:2287  contract personalSafuuTrader\r... */\n  dataSize(sub_0)\n  dup1\n  dataOffset(sub_0)\n  0x00\n  codecopy\n  0x00\n  return\nstop\n\nsub_0: assembly {\n        /* \"sis.sol\":84:2287  contract personalSafuuTrader\r... */\n      mstore(0x40, 0x80)\n      jumpi(tag_1, lt(calldatasize, 0x04))\n      shr(0xe0, calldataload(0x00))\n      dup1\n      0x83a6128f\n      gt\n      tag_11\n      jumpi\n      dup1\n      0x83a6128f\n      eq\n      tag_6\n      jumpi\n      dup1\n      0x8da5cb5b\n      eq\n      tag_7\n      jumpi\n      dup1\n      0xade87ecc\n      eq\n      tag_8\n      jumpi\n      dup1\n      0xd63cf1da\n      eq\n      tag_9\n      jumpi\n      dup1\n      0xebc4197c\n      eq\n      tag_10\n      jumpi\n      jump(tag_1)\n    tag_11:\n      dup1\n      0x23b160ac\n      eq\n      tag_2\n      jumpi\n      dup1\n      0x3cb40e16\n      eq\n      tag_3\n      jumpi\n      dup1\n      0x80c31426\n      eq\n      tag_4\n      jumpi\n      dup1\n      0x817e9d31\n      eq\n      tag_5\n      jumpi\n    tag_1:\n      0x00\n      dup1\n      revert\n        /* \"sis.sol\":223:242  IERC20 public safuu */\n    tag_2:\n      callvalue\n      dup1\n      iszero\n      tag_12\n      jumpi\n      0x00\n      dup1\n      revert\n    tag_12:\n      pop\n      tag_13\n      tag_14\n      jump\t// in\n    tag_13:\n      mload(0x40)\n      tag_15\n      swap2\n      swap1\n      tag_16\n      jump\t// in\n    tag_15:\n      mload(0x40)\n      dup1\n      swap2\n      sub\n      swap1\n      return\n        /* \"sis.sol\":1656:2010  function withdrawToOwner()\r... */\n    tag_3:\n      callvalue\n      dup1\n      iszero\n      tag_17\n      jumpi\n      0x00\n      dup1\n      revert\n    tag_17:\n      pop\n      tag_18\n      tag_19\n      jump\t// in\n    tag_18:\n      stop\n        /* \"sis.sol\":531:1032  function buySafuu(uint256 amttobuy) public payable \r... */\n    tag_4:\n      tag_20\n      0x04\n      dup1\n      calldatasize\n      sub\n      dup2\n      add\n      swap1\n      tag_21\n      swap2\n      swap1\n      tag_22\n      jump\t// in\n    tag_21:\n      tag_23\n      jump\t// in\n    tag_20:\n      stop\n        /* \"sis.sol\":1508:1650  function setFactor(uint256 _newfactor) public {\r... */\n    tag_5:\n      callvalue\n      dup1\n      iszero\n      tag_24\n      jumpi\n      0x00\n      dup1\n      revert\n    tag_24:\n      pop\n      tag_25\n      0x04\n      dup1\n      calldatasize\n      sub\n      dup2\n      add\n      swap1\n      tag_26\n      swap2\n      swap1\n      tag_22\n      jump\t// in\n    tag_26:\n      tag_27\n      jump\t// in\n    tag_25:\n      stop\n        /* \"sis.sol\":249:304  uint256 public nativeInContract = address(this).balance */\n    tag_6:\n      callvalue\n      dup1\n      iszero\n      tag_28\n      jumpi\n      0x00\n      dup1\n      revert\n    tag_28:\n      pop\n      tag_29\n      tag_30\n      jump\t// in\n    tag_29:\n      mload(0x40)\n      tag_31\n      swap2\n      swap1\n      tag_32\n      jump\t// in\n    tag_31:\n      mload(0x40)\n      dup1\n      swap2\n      sub\n      swap1\n      return\n        /* \"sis.sol\":121:149  address payable public owner */\n    tag_7:\n      callvalue\n      dup1\n      iszero\n      tag_33\n      jumpi\n      0x00\n      dup1\n      revert\n    tag_33:\n      pop\n      tag_34\n      tag_35\n      jump\t// in\n    tag_34:\n      mload(0x40)\n      tag_36\n      swap2\n      swap1\n      tag_37\n      jump\t// in\n    tag_36:\n      mload(0x40)\n      dup1\n      swap2\n      sub\n      swap1\n      return\n        /* \"sis.sol\":1042:1502  function sellSafuu(uint256 amttosell) public \r... */\n    tag_8:\n      callvalue\n      dup1\n      iszero\n      tag_38\n      jumpi\n      0x00\n      dup1\n      revert\n    tag_38:\n      pop\n      tag_39\n      0x04\n      dup1\n      calldatasize\n      sub\n      dup2\n      add\n      swap1\n      tag_40\n      swap2\n      swap1\n      tag_22\n      jump\t// in\n    tag_40:\n      tag_41\n      jump\t// in\n    tag_39:\n      stop\n        /* \"sis.sol\":192:216  uint256 public taxFactor */\n    tag_9:\n      callvalue\n      dup1\n      iszero\n      tag_42\n      jumpi\n      0x00\n      dup1\n      revert\n    tag_42:\n      pop\n      tag_43\n      tag_44\n      jump\t// in\n    tag_43:\n      mload(0x40)\n      tag_45\n      swap2\n      swap1\n      tag_32\n      jump\t// in\n    tag_45:\n      mload(0x40)\n      dup1\n      swap2\n      sub\n      swap1\n      return\n        /* \"sis.sol\":156:182  uint256  public BnbToSafuu */\n    tag_10:\n      callvalue\n      dup1\n      iszero\n      tag_46\n      jumpi\n      0x00\n      dup1\n      revert\n    tag_46:\n      pop\n      tag_47\n      tag_48\n      jump\t// in\n    tag_47:\n      mload(0x40)\n      tag_49\n      swap2\n      swap1\n      tag_32\n      jump\t// in\n    tag_49:\n      mload(0x40)\n      dup1\n      swap2\n      sub\n      swap1\n      return\n        /* \"sis.sol\":223:242  IERC20 public safuu */\n    tag_14:\n      0x03\n      0x00\n      swap1\n      sload\n      swap1\n      0x0100\n      exp\n      swap1\n      div\n      0xffffffffffffffffffffffffffffffffffffffff\n      and\n      dup2\n      jump\t// out\n        /* \"sis.sol\":1656:2010  function withdrawToOwner()\r... */\n    tag_19:\n        /* \"sis.sol\":1894:1906  bool success */\n      0x00\n        /* \"sis.sol\":1912:1917  owner */\n      dup1\n      0x00\n      swap1\n      sload\n      swap1\n      0x0100\n      exp\n      swap1\n      div\n      0xffffffffffffffffffffffffffffffffffffffff\n      and\n        /* \"sis.sol\":1912:1922  owner.call */\n      0xffffffffffffffffffffffffffffffffffffffff\n      and\n        /* \"sis.sol\":1930:1946  nativeInContract */\n      sload(0x04)\n        /* \"sis.sol\":1912:1951  owner.call{value: nativeInContract}(\"\") */\n      mload(0x40)\n      tag_51\n      swap1\n      tag_52\n      jump\t// in\n    tag_51:\n      0x00\n      mload(0x40)\n      dup1\n      dup4\n      sub\n      dup2\n      dup6\n      dup8\n      gas\n      call\n      swap3\n      pop\n      pop\n      pop\n      returndatasize\n      dup1\n      0x00\n      dup2\n      eq\n      tag_55\n      jumpi\n      mload(0x40)\n      swap2\n      pop\n      and(add(returndatasize, 0x3f), not(0x1f))\n      dup3\n      add\n      0x40\n      mstore\n      returndatasize\n      dup3\n      mstore\n      returndatasize\n      0x00\n      0x20\n      dup5\n      add\n      returndatacopy\n      jump(tag_54)\n    tag_55:\n      0x60\n      swap2\n      pop\n    tag_54:\n      pop\n        /* \"sis.sol\":1893:1951  (bool success, ) = owner.call{value: nativeInContract}(\"\") */\n      pop\n      swap1\n      pop\n        /* \"sis.sol\":1970:1977  success */\n      dup1\n        /* \"sis.sol\":1962:2002  require(success, \"Failed to send Ether\") */\n      tag_56\n      jumpi\n      mload(0x40)\n      0x08c379a000000000000000000000000000000000000000000000000000000000\n      dup2\n      mstore\n      0x04\n      add\n      tag_57\n      swap1\n      tag_58\n      jump\t// in\n    tag_57:\n      mload(0x40)\n      dup1\n      swap2\n      sub\n      swap1\n      revert\n    tag_56:\n        /* \"sis.sol\":1656:2010  function withdrawToOwner()\r... */\n      pop\n      jump\t// out\n        /* \"sis.sol\":531:1032  function buySafuu(uint256 amttobuy) public payable \r... */\n    tag_23:\n        /* \"sis.sol\":619:624  10000 */\n      0x2710\n        /* \"sis.sol\":607:615  amttobuy */\n      dup2\n        /* \"sis.sol\":607:624  amttobuy >= 10000 */\n      lt\n      iszero\n        /* \"sis.sol\":599:642  require(amttobuy >= 10000, \"Minimum buy 1\") */\n      tag_60\n      jumpi\n      mload(0x40)\n      0x08c379a000000000000000000000000000000000000000000000000000000000\n      dup2\n      mstore\n      0x04\n      add\n      tag_61\n      swap1\n      tag_62\n      jump\t// in\n    tag_61:\n      mload(0x40)\n      dup1\n      swap2\n      sub\n      swap1\n      revert\n    tag_60:\n        /* \"sis.sol\":653:671  uint256 payableAmt */\n      0x00\n        /* \"sis.sol\":732:738  10**18 */\n      0x0de0b6b3a7640000\n        /* \"sis.sol\":718:728  BnbToSafuu */\n      sload(0x01)\n        /* \"sis.sol\":709:717  amttobuy */\n      dup4\n        /* \"sis.sol\":709:728  amttobuy/BnbToSafuu */\n      tag_63\n      swap2\n      swap1\n      tag_64\n      jump\t// in\n    tag_63:\n        /* \"sis.sol\":708:739  (amttobuy/BnbToSafuu) *(10**18) */\n      tag_65\n      swap2\n      swap1\n      tag_66\n      jump\t// in\n    tag_65:\n        /* \"sis.sol\":695:739  payableAmt = (amttobuy/BnbToSafuu) *(10**18) */\n      swap1\n      pop\n        /* \"sis.sol\":771:781  payableAmt */\n      dup1\n        /* \"sis.sol\":758:767  msg.value */\n      callvalue\n        /* \"sis.sol\":758:781  msg.value >= payableAmt */\n      lt\n      iszero\n        /* \"sis.sol\":750:796  require(msg.value >= payableAmt,\"Not enough\" ) */\n      tag_67\n      jumpi\n      mload(0x40)\n      0x08c379a000000000000000000000000000000000000000000000000000000000\n      dup2\n      mstore\n      0x04\n      add\n      tag_68\n      swap1\n      tag_69\n      jump\t// in\n    tag_68:\n      mload(0x40)\n      dup1\n      swap2\n      sub\n      swap1\n      revert\n    tag_67:\n        /* \"sis.sol\":963:1024  _safeTransferFrom(safuu, address(this), msg.sender, amttobuy) */\n      tag_70\n        /* \"sis.sol\":981:986  safuu */\n      0x03\n      0x00\n      swap1\n      sload\n      swap1\n      0x0100\n      exp\n      swap1\n      div\n      0xffffffffffffffffffffffffffffffffffffffff\n      and\n        /* \"sis.sol\":996:1000  this */\n      address\n        /* \"sis.sol\":1003:1013  msg.sender */\n      caller\n        /* \"sis.sol\":1015:1023  amttobuy */\n      dup6\n        /* \"sis.sol\":963:980  _safeTransferFrom */\n      tag_71\n        /* \"sis.sol\":963:1024  _safeTransferFrom(safuu, address(this), msg.sender, amttobuy) */\n      jump\t// in\n    tag_70:\n        /* \"sis.sol\":531:1032  function buySafuu(uint256 amttobuy) public payable \r... */\n      pop\n      pop\n      jump\t// out\n        /* \"sis.sol\":1508:1650  function setFactor(uint256 _newfactor) public {\r... */\n    tag_27:\n        /* \"sis.sol\":1587:1592  owner */\n      0x00\n      dup1\n      sload\n      swap1\n      0x0100\n      exp\n      swap1\n      div\n      0xffffffffffffffffffffffffffffffffffffffff\n      and\n        /* \"sis.sol\":1573:1592  msg.sender == owner */\n      0xffffffffffffffffffffffffffffffffffffffff\n      and\n        /* \"sis.sol\":1573:1583  msg.sender */\n      caller\n        /* \"sis.sol\":1573:1592  msg.sender == owner */\n      0xffffffffffffffffffffffffffffffffffffffff\n      and\n      eq\n        /* \"sis.sol\":1565:1606  require(msg.sender == owner , \"notowner\") */\n      tag_73\n      jumpi\n      mload(0x40)\n      0x08c379a000000000000000000000000000000000000000000000000000000000\n      dup2\n      mstore\n      0x04\n      add\n      tag_74\n      swap1\n      tag_75\n      jump\t// in\n    tag_74:\n      mload(0x40)\n      dup1\n      swap2\n      sub\n      swap1\n      revert\n    tag_73:\n        /* \"sis.sol\":1630:1640  _newfactor */\n      dup1\n        /* \"sis.sol\":1617:1627  BnbToSafuu */\n      0x01\n        /* \"sis.sol\":1617:1640  BnbToSafuu = _newfactor */\n      dup2\n      swap1\n      sstore\n      pop\n        /* \"sis.sol\":1508:1650  function setFactor(uint256 _newfactor) public {\r... */\n      pop\n      jump\t// out\n        /* \"sis.sol\":249:304  uint256 public nativeInContract = address(this).balance */\n    tag_30:\n      sload(0x04)\n      dup2\n      jump\t// out\n        /* \"sis.sol\":121:149  address payable public owner */\n    tag_35:\n      0x00\n      dup1\n      sload\n      swap1\n      0x0100\n      exp\n      swap1\n      div\n      0xffffffffffffffffffffffffffffffffffffffff\n      and\n      dup2\n      jump\t// out\n        /* \"sis.sol\":1042:1502  function sellSafuu(uint256 amttosell) public \r... */\n    tag_41:\n        /* \"sis.sol\":1125:1130  10000 */\n      0x2710\n        /* \"sis.sol\":1112:1121  amttosell */\n      dup2\n        /* \"sis.sol\":1112:1130  amttosell >= 10000 */\n      lt\n      iszero\n        /* \"sis.sol\":1104:1149  require(amttosell >= 10000, \"Minimum sell 1\") */\n      tag_77\n      jumpi\n      mload(0x40)\n      0x08c379a000000000000000000000000000000000000000000000000000000000\n      dup2\n      mstore\n      0x04\n      add\n      tag_78\n      swap1\n      tag_79\n      jump\t// in\n    tag_78:\n      mload(0x40)\n      dup1\n      swap2\n      sub\n      swap1\n      revert\n    tag_77:\n        /* \"sis.sol\":1156:1218  _safeTransferFrom(safuu, msg.sender, address(this), amttosell) */\n      tag_80\n        /* \"sis.sol\":1174:1179  safuu */\n      0x03\n      0x00\n      swap1\n      sload\n      swap1\n      0x0100\n      exp\n      swap1\n      div\n      0xffffffffffffffffffffffffffffffffffffffff\n      and\n        /* \"sis.sol\":1181:1191  msg.sender */\n      caller\n        /* \"sis.sol\":1201:1205  this */\n      address\n        /* \"sis.sol\":1208:1217  amttosell */\n      dup5\n        /* \"sis.sol\":1156:1173  _safeTransferFrom */\n      tag_71\n        /* \"sis.sol\":1156:1218  _safeTransferFrom(safuu, msg.sender, address(this), amttosell) */\n      jump\t// in\n    tag_80:\n        /* \"sis.sol\":1253:1271  uint256 payableBNB */\n      0x00\n        /* \"sis.sol\":1329:1335  10**18 */\n      0x0de0b6b3a7640000\n        /* \"sis.sol\":1315:1325  BnbToSafuu */\n      sload(0x01)\n        /* \"sis.sol\":1305:1314  amttosell */\n      dup4\n        /* \"sis.sol\":1305:1325  amttosell/BnbToSafuu */\n      tag_81\n      swap2\n      swap1\n      tag_64\n      jump\t// in\n    tag_81:\n        /* \"sis.sol\":1304:1336  (amttosell/BnbToSafuu) *(10**18) */\n      tag_82\n      swap2\n      swap1\n      tag_66\n      jump\t// in\n    tag_82:\n        /* \"sis.sol\":1291:1336  payableBNB = (amttosell/BnbToSafuu) *(10**18) */\n      swap1\n      pop\n        /* \"sis.sol\":1351:1361  msg.sender */\n      caller\n        /* \"sis.sol\":1343:1371  payable(msg.sender).transfer */\n      0xffffffffffffffffffffffffffffffffffffffff\n      and\n        /* \"sis.sol\":1343:1383  payable(msg.sender).transfer(payableBNB) */\n      0x08fc\n        /* \"sis.sol\":1372:1382  payableBNB */\n      dup3\n        /* \"sis.sol\":1343:1383  payable(msg.sender).transfer(payableBNB) */\n      swap1\n      dup2\n      iszero\n      mul\n      swap1\n      mload(0x40)\n      0x00\n      mload(0x40)\n      dup1\n      dup4\n      sub\n      dup2\n      dup6\n      dup9\n      dup9\n      call\n      swap4\n      pop\n      pop\n      pop\n      pop\n      iszero\n      dup1\n      iszero\n      tag_84\n      jumpi\n      returndatasize\n      0x00\n      dup1\n      returndatacopy\n      revert(0x00, returndatasize)\n    tag_84:\n      pop\n        /* \"sis.sol\":1391:1403  bool success */\n      0x00\n        /* \"sis.sol\":1409:1419  msg.sender */\n      caller\n        /* \"sis.sol\":1409:1424  msg.sender.call */\n      0xffffffffffffffffffffffffffffffffffffffff\n      and\n        /* \"sis.sol\":1432:1442  payableBNB */\n      dup3\n        /* \"sis.sol\":1409:1447  msg.sender.call{value: payableBNB}(\"\") */\n      mload(0x40)\n      tag_85\n      swap1\n      tag_52\n      jump\t// in\n    tag_85:\n      0x00\n      mload(0x40)\n      dup1\n      dup4\n      sub\n      dup2\n      dup6\n      dup8\n      gas\n      call\n      swap3\n      pop\n      pop\n      pop\n      returndatasize\n      dup1\n      0x00\n      dup2\n      eq\n      tag_88\n      jumpi\n      mload(0x40)\n      swap2\n      pop\n      and(add(returndatasize, 0x3f), not(0x1f))\n      dup3\n      add\n      0x40\n      mstore\n      returndatasize\n      dup3\n      mstore\n      returndatasize\n      0x00\n      0x20\n      dup5\n      add\n      returndatacopy\n      jump(tag_87)\n    tag_88:\n      0x60\n      swap2\n      pop\n    tag_87:\n      pop\n        /* \"sis.sol\":1390:1447  (bool success, ) = msg.sender.call{value: payableBNB}(\"\") */\n      pop\n      swap1\n      pop\n        /* \"sis.sol\":1466:1473  success */\n      dup1\n        /* \"sis.sol\":1458:1494  require(success, \"Transfer failed!\") */\n      tag_89\n      jumpi\n      mload(0x40)\n      0x08c379a000000000000000000000000000000000000000000000000000000000\n      dup2\n      mstore\n      0x04\n      add\n      tag_90\n      swap1\n      tag_91\n      jump\t// in\n    tag_90:\n      mload(0x40)\n      dup1\n      swap2\n      sub\n      swap1\n      revert\n    tag_89:\n        /* \"sis.sol\":1042:1502  function sellSafuu(uint256 amttosell) public \r... */\n      pop\n      pop\n      pop\n      jump\t// out\n        /* \"sis.sol\":192:216  uint256 public taxFactor */\n    tag_44:\n      sload(0x02)\n      dup2\n      jump\t// out\n        /* \"sis.sol\":156:182  uint256  public BnbToSafuu */\n    tag_48:\n      sload(0x01)\n      dup2\n      jump\t// out\n        /* \"sis.sol\":2016:2284  function _safeTransferFrom(\r... */\n    tag_71:\n        /* \"sis.sol\":2170:2179  bool sent */\n      0x00\n        /* \"sis.sol\":2182:2187  token */\n      dup5\n        /* \"sis.sol\":2182:2200  token.transferFrom */\n      0xffffffffffffffffffffffffffffffffffffffff\n      and\n      0x23b872dd\n        /* \"sis.sol\":2201:2207  sender */\n      dup6\n        /* \"sis.sol\":2209:2218  recipient */\n      dup6\n        /* \"sis.sol\":2220:2226  amount */\n      dup6\n        /* \"sis.sol\":2182:2227  token.transferFrom(sender, recipient, amount) */\n      mload(0x40)\n      dup5\n      0xffffffff\n      and\n      0xe0\n      shl\n      dup2\n      mstore\n      0x04\n      add\n      tag_93\n      swap4\n      swap3\n      swap2\n      swap1\n      tag_94\n      jump\t// in\n    tag_93:\n      0x20\n      mload(0x40)\n      dup1\n      dup4\n      sub\n      dup2\n      0x00\n      dup8\n      dup1\n      extcodesize\n      iszero\n      dup1\n      iszero\n      tag_95\n      jumpi\n      0x00\n      dup1\n      revert\n    tag_95:\n      pop\n      gas\n      call\n      iszero\n      dup1\n      iszero\n      tag_97\n      jumpi\n      returndatasize\n      0x00\n      dup1\n      returndatacopy\n      revert(0x00, returndatasize)\n    tag_97:\n      pop\n      pop\n      pop\n      pop\n      mload(0x40)\n      returndatasize\n      not(0x1f)\n      0x1f\n      dup3\n      add\n      and\n      dup3\n      add\n      dup1\n      0x40\n      mstore\n      pop\n      dup2\n      add\n      swap1\n      tag_98\n      swap2\n      swap1\n      tag_99\n      jump\t// in\n    tag_98:\n        /* \"sis.sol\":2170:2227  bool sent = token.transferFrom(sender, recipient, amount) */\n      swap1\n      pop\n        /* \"sis.sol\":2246:2250  sent */\n      dup1\n        /* \"sis.sol\":2238:2276  require(sent, \"Token transfer failed\") */\n      tag_100\n      jumpi\n      mload(0x40)\n      0x08c379a000000000000000000000000000000000000000000000000000000000\n      dup2\n      mstore\n      0x04\n      add\n      tag_101\n      swap1\n      tag_102\n      jump\t// in\n    tag_101:\n      mload(0x40)\n      dup1\n      swap2\n      sub\n      swap1\n      revert\n    tag_100:\n        /* \"sis.sol\":2016:2284  function _safeTransferFrom(\r... */\n      pop\n      pop\n      pop\n      pop\n      pop\n      jump\t// out\n        /* \"#utility.yul\":7:144   */\n    tag_104:\n        /* \"#utility.yul\":61:66   */\n      0x00\n        /* \"#utility.yul\":92:98   */\n      dup2\n        /* \"#utility.yul\":86:99   */\n      mload\n        /* \"#utility.yul\":77:99   */\n      swap1\n      pop\n        /* \"#utility.yul\":108:138   */\n      tag_106\n        /* \"#utility.yul\":132:137   */\n      dup2\n        /* \"#utility.yul\":108:138   */\n      tag_107\n      jump\t// in\n    tag_106:\n        /* \"#utility.yul\":67:144   */\n      swap3\n      swap2\n      pop\n      pop\n      jump\t// out\n        /* \"#utility.yul\":150:289   */\n    tag_108:\n        /* \"#utility.yul\":196:201   */\n      0x00\n        /* \"#utility.yul\":234:240   */\n      dup2\n        /* \"#utility.yul\":221:241   */\n      calldataload\n        /* \"#utility.yul\":212:241   */\n      swap1\n      pop\n        /* \"#utility.yul\":250:283   */\n      tag_110\n        /* \"#utility.yul\":277:282   */\n      dup2\n        /* \"#utility.yul\":250:283   */\n      tag_111\n      jump\t// in\n    tag_110:\n        /* \"#utility.yul\":202:289   */\n      swap3\n      swap2\n      pop\n      pop\n      jump\t// out\n        /* \"#utility.yul\":295:573   */\n    tag_99:\n        /* \"#utility.yul\":362:368   */\n      0x00\n        /* \"#utility.yul\":411:413   */\n      0x20\n        /* \"#utility.yul\":399:408   */\n      dup3\n        /* \"#utility.yul\":390:397   */\n      dup5\n        /* \"#utility.yul\":386:409   */\n      sub\n        /* \"#utility.yul\":382:414   */\n      slt\n        /* \"#utility.yul\":379:381   */\n      iszero\n      tag_113\n      jumpi\n        /* \"#utility.yul\":427:428   */\n      0x00\n        /* \"#utility.yul\":424:425   */\n      dup1\n        /* \"#utility.yul\":417:429   */\n      revert\n        /* \"#utility.yul\":379:381   */\n    tag_113:\n        /* \"#utility.yul\":470:471   */\n      0x00\n        /* \"#utility.yul\":495:556   */\n      tag_114\n        /* \"#utility.yul\":548:555   */\n      dup5\n        /* \"#utility.yul\":539:545   */\n      dup3\n        /* \"#utility.yul\":528:537   */\n      dup6\n        /* \"#utility.yul\":524:546   */\n      add\n        /* \"#utility.yul\":495:556   */\n      tag_104\n      jump\t// in\n    tag_114:\n        /* \"#utility.yul\":485:556   */\n      swap2\n      pop\n        /* \"#utility.yul\":441:566   */\n      pop\n        /* \"#utility.yul\":369:573   */\n      swap3\n      swap2\n      pop\n      pop\n      jump\t// out\n        /* \"#utility.yul\":579:841   */\n    tag_22:\n        /* \"#utility.yul\":638:644   */\n      0x00\n        /* \"#utility.yul\":687:689   */\n      0x20\n        /* \"#utility.yul\":675:684   */\n      dup3\n        /* \"#utility.yul\":666:673   */\n      dup5\n        /* \"#utility.yul\":662:685   */\n      sub\n        /* \"#utility.yul\":658:690   */\n      slt\n        /* \"#utility.yul\":655:657   */\n      iszero\n      tag_116\n      jumpi\n        /* \"#utility.yul\":703:704   */\n      0x00\n        /* \"#utility.yul\":700:701   */\n      dup1\n        /* \"#utility.yul\":693:705   */\n      revert\n        /* \"#utility.yul\":655:657   */\n    tag_116:\n        /* \"#utility.yul\":746:747   */\n      0x00\n        /* \"#utility.yul\":771:824   */\n      tag_117\n        /* \"#utility.yul\":816:823   */\n      dup5\n        /* \"#utility.yul\":807:813   */\n      dup3\n        /* \"#utility.yul\":796:805   */\n      dup6\n        /* \"#utility.yul\":792:814   */\n      add\n        /* \"#utility.yul\":771:824   */\n      tag_108\n      jump\t// in\n    tag_117:\n        /* \"#utility.yul\":761:824   */\n      swap2\n      pop\n        /* \"#utility.yul\":717:834   */\n      pop\n        /* \"#utility.yul\":645:841   */\n      swap3\n      swap2\n      pop\n      pop\n      jump\t// out\n        /* \"#utility.yul\":847:989   */\n    tag_118:\n        /* \"#utility.yul\":950:982   */\n      tag_120\n        /* \"#utility.yul\":976:981   */\n      dup2\n        /* \"#utility.yul\":950:982   */\n      tag_121\n      jump\t// in\n    tag_120:\n        /* \"#utility.yul\":945:948   */\n      dup3\n        /* \"#utility.yul\":938:983   */\n      mstore\n        /* \"#utility.yul\":928:989   */\n      pop\n      pop\n      jump\t// out\n        /* \"#utility.yul\":995:1113   */\n    tag_122:\n        /* \"#utility.yul\":1082:1106   */\n      tag_124\n        /* \"#utility.yul\":1100:1105   */\n      dup2\n        /* \"#utility.yul\":1082:1106   */\n      tag_125\n      jump\t// in\n    tag_124:\n        /* \"#utility.yul\":1077:1080   */\n      dup3\n        /* \"#utility.yul\":1070:1107   */\n      mstore\n        /* \"#utility.yul\":1060:1113   */\n      pop\n      pop\n      jump\t// out\n        /* \"#utility.yul\":1119:1276   */\n    tag_126:\n        /* \"#utility.yul\":1219:1269   */\n      tag_128\n        /* \"#utility.yul\":1263:1268   */\n      dup2\n        /* \"#utility.yul\":1219:1269   */\n      tag_129\n      jump\t// in\n    tag_128:\n        /* \"#utility.yul\":1214:1217   */\n      dup3\n        /* \"#utility.yul\":1207:1270   */\n      mstore\n        /* \"#utility.yul\":1197:1276   */\n      pop\n      pop\n      jump\t// out\n        /* \"#utility.yul\":1282:1648   */\n    tag_130:\n        /* \"#utility.yul\":1424:1427   */\n      0x00\n        /* \"#utility.yul\":1445:1512   */\n      tag_132\n        /* \"#utility.yul\":1509:1511   */\n      0x14\n        /* \"#utility.yul\":1504:1507   */\n      dup4\n        /* \"#utility.yul\":1445:1512   */\n      tag_133\n      jump\t// in\n    tag_132:\n        /* \"#utility.yul\":1438:1512   */\n      swap2\n      pop\n        /* \"#utility.yul\":1521:1614   */\n      tag_134\n        /* \"#utility.yul\":1610:1613   */\n      dup3\n        /* \"#utility.yul\":1521:1614   */\n      tag_135\n      jump\t// in\n    tag_134:\n        /* \"#utility.yul\":1639:1641   */\n      0x20\n        /* \"#utility.yul\":1634:1637   */\n      dup3\n        /* \"#utility.yul\":1630:1642   */\n      add\n        /* \"#utility.yul\":1623:1642   */\n      swap1\n      pop\n        /* \"#utility.yul\":1428:1648   */\n      swap2\n      swap1\n      pop\n      jump\t// out\n        /* \"#utility.yul\":1654:2020   */\n    tag_136:\n        /* \"#utility.yul\":1796:1799   */\n      0x00\n        /* \"#utility.yul\":1817:1884   */\n      tag_138\n        /* \"#utility.yul\":1881:1883   */\n      0x0a\n        /* \"#utility.yul\":1876:1879   */\n      dup4\n        /* \"#utility.yul\":1817:1884   */\n      tag_133\n      jump\t// in\n    tag_138:\n        /* \"#utility.yul\":1810:1884   */\n      swap2\n      pop\n        /* \"#utility.yul\":1893:1986   */\n      tag_139\n        /* \"#utility.yul\":1982:1985   */\n      dup3\n        /* \"#utility.yul\":1893:1986   */\n      tag_140\n      jump\t// in\n    tag_139:\n        /* \"#utility.yul\":2011:2013   */\n      0x20\n        /* \"#utility.yul\":2006:2009   */\n      dup3\n        /* \"#utility.yul\":2002:2014   */\n      add\n        /* \"#utility.yul\":1995:2014   */\n      swap1\n      pop\n        /* \"#utility.yul\":1800:2020   */\n      swap2\n      swap1\n      pop\n      jump\t// out\n        /* \"#utility.yul\":2026:2391   */\n    tag_141:\n        /* \"#utility.yul\":2168:2171   */\n      0x00\n        /* \"#utility.yul\":2189:2255   */\n      tag_143\n        /* \"#utility.yul\":2253:2254   */\n      0x08\n        /* \"#utility.yul\":2248:2251   */\n      dup4\n        /* \"#utility.yul\":2189:2255   */\n      tag_133\n      jump\t// in\n    tag_143:\n        /* \"#utility.yul\":2182:2255   */\n      swap2\n      pop\n        /* \"#utility.yul\":2264:2357   */\n      tag_144\n        /* \"#utility.yul\":2353:2356   */\n      dup3\n        /* \"#utility.yul\":2264:2357   */\n      tag_145\n      jump\t// in\n    tag_144:\n        /* \"#utility.yul\":2382:2384   */\n      0x20\n        /* \"#utility.yul\":2377:2380   */\n      dup3\n        /* \"#utility.yul\":2373:2385   */\n      add\n        /* \"#utility.yul\":2366:2385   */\n      swap1\n      pop\n        /* \"#utility.yul\":2172:2391   */\n      swap2\n      swap1\n      pop\n      jump\t// out\n        /* \"#utility.yul\":2397:2763   */\n    tag_146:\n        /* \"#utility.yul\":2539:2542   */\n      0x00\n        /* \"#utility.yul\":2560:2627   */\n      tag_148\n        /* \"#utility.yul\":2624:2626   */\n      0x15\n        /* \"#utility.yul\":2619:2622   */\n      dup4\n        /* \"#utility.yul\":2560:2627   */\n      tag_133\n      jump\t// in\n    tag_148:\n        /* \"#utility.yul\":2553:2627   */\n      swap2\n      pop\n        /* \"#utility.yul\":2636:2729   */\n      tag_149\n        /* \"#utility.yul\":2725:2728   */\n      dup3\n        /* \"#utility.yul\":2636:2729   */\n      tag_150\n      jump\t// in\n    tag_149:\n        /* \"#utility.yul\":2754:2756   */\n      0x20\n        /* \"#utility.yul\":2749:2752   */\n      dup3\n        /* \"#utility.yul\":2745:2757   */\n      add\n        /* \"#utility.yul\":2738:2757   */\n      swap1\n      pop\n        /* \"#utility.yul\":2543:2763   */\n      swap2\n      swap1\n      pop\n      jump\t// out\n        /* \"#utility.yul\":2769:3135   */\n    tag_151:\n        /* \"#utility.yul\":2911:2914   */\n      0x00\n        /* \"#utility.yul\":2932:2999   */\n      tag_153\n        /* \"#utility.yul\":2996:2998   */\n      0x0e\n        /* \"#utility.yul\":2991:2994   */\n      dup4\n        /* \"#utility.yul\":2932:2999   */\n      tag_133\n      jump\t// in\n    tag_153:\n        /* \"#utility.yul\":2925:2999   */\n      swap2\n      pop\n        /* \"#utility.yul\":3008:3101   */\n      tag_154\n        /* \"#utility.yul\":3097:3100   */\n      dup3\n        /* \"#utility.yul\":3008:3101   */\n      tag_155\n      jump\t// in\n    tag_154:\n        /* \"#utility.yul\":3126:3128   */\n      0x20\n        /* \"#utility.yul\":3121:3124   */\n      dup3\n        /* \"#utility.yul\":3117:3129   */\n      add\n        /* \"#utility.yul\":3110:3129   */\n      swap1\n      pop\n        /* \"#utility.yul\":2915:3135   */\n      swap2\n      swap1\n      pop\n      jump\t// out\n        /* \"#utility.yul\":3141:3507   */\n    tag_156:\n        /* \"#utility.yul\":3283:3286   */\n      0x00\n        /* \"#utility.yul\":3304:3371   */\n      tag_158\n        /* \"#utility.yul\":3368:3370   */\n      0x0d\n        /* \"#utility.yul\":3363:3366   */\n      dup4\n        /* \"#utility.yul\":3304:3371   */\n      tag_133\n      jump\t// in\n    tag_158:\n        /* \"#utility.yul\":3297:3371   */\n      swap2\n      pop\n        /* \"#utility.yul\":3380:3473   */\n      tag_159\n        /* \"#utility.yul\":3469:3472   */\n      dup3\n        /* \"#utility.yul\":3380:3473   */\n      tag_160\n      jump\t// in\n    tag_159:\n        /* \"#utility.yul\":3498:3500   */\n      0x20\n        /* \"#utility.yul\":3493:3496   */\n      dup3\n        /* \"#utility.yul\":3489:3501   */\n      add\n        /* \"#utility.yul\":3482:3501   */\n      swap1\n      pop\n        /* \"#utility.yul\":3287:3507   */\n      swap2\n      swap1\n      pop\n      jump\t// out\n        /* \"#utility.yul\":3513:3879   */\n    tag_161:\n        /* \"#utility.yul\":3655:3658   */\n      0x00\n        /* \"#utility.yul\":3676:3743   */\n      tag_163\n        /* \"#utility.yul\":3740:3742   */\n      0x10\n        /* \"#utility.yul\":3735:3738   */\n      dup4\n        /* \"#utility.yul\":3676:3743   */\n      tag_133\n      jump\t// in\n    tag_163:\n        /* \"#utility.yul\":3669:3743   */\n      swap2\n      pop\n        /* \"#utility.yul\":3752:3845   */\n      tag_164\n        /* \"#utility.yul\":3841:3844   */\n      dup3\n        /* \"#utility.yul\":3752:3845   */\n      tag_165\n      jump\t// in\n    tag_164:\n        /* \"#utility.yul\":3870:3872   */\n      0x20\n        /* \"#utility.yul\":3865:3868   */\n      dup3\n        /* \"#utility.yul\":3861:3873   */\n      add\n        /* \"#utility.yul\":3854:3873   */\n      swap1\n      pop\n        /* \"#utility.yul\":3659:3879   */\n      swap2\n      swap1\n      pop\n      jump\t// out\n        /* \"#utility.yul\":3885:4283   */\n    tag_166:\n        /* \"#utility.yul\":4044:4047   */\n      0x00\n        /* \"#utility.yul\":4065:4148   */\n      tag_168\n        /* \"#utility.yul\":4146:4147   */\n      0x00\n        /* \"#utility.yul\":4141:4144   */\n      dup4\n        /* \"#utility.yul\":4065:4148   */\n      tag_169\n      jump\t// in\n    tag_168:\n        /* \"#utility.yul\":4058:4148   */\n      swap2\n      pop\n        /* \"#utility.yul\":4157:4250   */\n      tag_170\n        /* \"#utility.yul\":4246:4249   */\n      dup3\n        /* \"#utility.yul\":4157:4250   */\n      tag_171\n      jump\t// in\n    tag_170:\n        /* \"#utility.yul\":4275:4276   */\n      0x00\n        /* \"#utility.yul\":4270:4273   */\n      dup3\n        /* \"#utility.yul\":4266:4277   */\n      add\n        /* \"#utility.yul\":4259:4277   */\n      swap1\n      pop\n        /* \"#utility.yul\":4048:4283   */\n      swap2\n      swap1\n      pop\n      jump\t// out\n        /* \"#utility.yul\":4289:4407   */\n    tag_172:\n        /* \"#utility.yul\":4376:4400   */\n      tag_174\n        /* \"#utility.yul\":4394:4399   */\n      dup2\n        /* \"#utility.yul\":4376:4400   */\n      tag_175\n      jump\t// in\n    tag_174:\n        /* \"#utility.yul\":4371:4374   */\n      dup3\n        /* \"#utility.yul\":4364:4401   */\n      mstore\n        /* \"#utility.yul\":4354:4407   */\n      pop\n      pop\n      jump\t// out\n        /* \"#utility.yul\":4413:4792   */\n    tag_52:\n        /* \"#utility.yul\":4597:4600   */\n      0x00\n        /* \"#utility.yul\":4619:4766   */\n      tag_177\n        /* \"#utility.yul\":4762:4765   */\n      dup3\n        /* \"#utility.yul\":4619:4766   */\n      tag_166\n      jump\t// in\n    tag_177:\n        /* \"#utility.yul\":4612:4766   */\n      swap2\n      pop\n        /* \"#utility.yul\":4783:4786   */\n      dup2\n        /* \"#utility.yul\":4776:4786   */\n      swap1\n      pop\n        /* \"#utility.yul\":4601:4792   */\n      swap2\n      swap1\n      pop\n      jump\t// out\n        /* \"#utility.yul\":4798:5052   */\n    tag_37:\n        /* \"#utility.yul\":4907:4911   */\n      0x00\n        /* \"#utility.yul\":4945:4947   */\n      0x20\n        /* \"#utility.yul\":4934:4943   */\n      dup3\n        /* \"#utility.yul\":4930:4948   */\n      add\n        /* \"#utility.yul\":4922:4948   */\n      swap1\n      pop\n        /* \"#utility.yul\":4958:5045   */\n      tag_179\n        /* \"#utility.yul\":5042:5043   */\n      0x00\n        /* \"#utility.yul\":5031:5040   */\n      dup4\n        /* \"#utility.yul\":5027:5044   */\n      add\n        /* \"#utility.yul\":5018:5024   */\n      dup5\n        /* \"#utility.yul\":4958:5045   */\n      tag_118\n      jump\t// in\n    tag_179:\n        /* \"#utility.yul\":4912:5052   */\n      swap3\n      swap2\n      pop\n      pop\n      jump\t// out\n        /* \"#utility.yul\":5058:5500   */\n    tag_94:\n        /* \"#utility.yul\":5207:5211   */\n      0x00\n        /* \"#utility.yul\":5245:5247   */\n      0x60\n        /* \"#utility.yul\":5234:5243   */\n      dup3\n        /* \"#utility.yul\":5230:5248   */\n      add\n        /* \"#utility.yul\":5222:5248   */\n      swap1\n      pop\n        /* \"#utility.yul\":5258:5329   */\n      tag_181\n        /* \"#utility.yul\":5326:5327   */\n      0x00\n        /* \"#utility.yul\":5315:5324   */\n      dup4\n        /* \"#utility.yul\":5311:5328   */\n      add\n        /* \"#utility.yul\":5302:5308   */\n      dup7\n        /* \"#utility.yul\":5258:5329   */\n      tag_122\n      jump\t// in\n    tag_181:\n        /* \"#utility.yul\":5339:5411   */\n      tag_182\n        /* \"#utility.yul\":5407:5409   */\n      0x20\n        /* \"#utility.yul\":5396:5405   */\n      dup4\n        /* \"#utility.yul\":5392:5410   */\n      add\n        /* \"#utility.yul\":5383:5389   */\n      dup6\n        /* \"#utility.yul\":5339:5411   */\n      tag_122\n      jump\t// in\n    tag_182:\n        /* \"#utility.yul\":5421:5493   */\n      tag_183\n        /* \"#utility.yul\":5489:5491   */\n      0x40\n        /* \"#utility.yul\":5478:5487   */\n      dup4\n        /* \"#utility.yul\":5474:5492   */\n      add\n        /* \"#utility.yul\":5465:5471   */\n      dup5\n        /* \"#utility.yul\":5421:5493   */\n      tag_172\n      jump\t// in\n    tag_183:\n        /* \"#utility.yul\":5212:5500   */\n      swap5\n      swap4\n      pop\n      pop\n      pop\n      pop\n      jump\t// out\n        /* \"#utility.yul\":5506:5754   */\n    tag_16:\n        /* \"#utility.yul\":5612:5616   */\n      0x00\n        /* \"#utility.yul\":5650:5652   */\n      0x20\n        /* \"#utility.yul\":5639:5648   */\n      dup3\n        /* \"#utility.yul\":5635:5653   */\n      add\n        /* \"#utility.yul\":5627:5653   */\n      swap1\n      pop\n        /* \"#utility.yul\":5663:5747   */\n      tag_185\n        /* \"#utility.yul\":5744:5745   */\n      0x00\n        /* \"#utility.yul\":5733:5742   */\n      dup4\n        /* \"#utility.yul\":5729:5746   */\n      add\n        /* \"#utility.yul\":5720:5726   */\n      dup5\n        /* \"#utility.yul\":5663:5747   */\n      tag_126\n      jump\t// in\n    tag_185:\n        /* \"#utility.yul\":5617:5754   */\n      swap3\n      swap2\n      pop\n      pop\n      jump\t// out\n        /* \"#utility.yul\":5760:6179   */\n    tag_58:\n        /* \"#utility.yul\":5926:5930   */\n      0x00\n        /* \"#utility.yul\":5964:5966   */\n      0x20\n        /* \"#utility.yul\":5953:5962   */\n      dup3\n        /* \"#utility.yul\":5949:5967   */\n      add\n        /* \"#utility.yul\":5941:5967   */\n      swap1\n      pop\n        /* \"#utility.yul\":6013:6022   */\n      dup2\n        /* \"#utility.yul\":6007:6011   */\n      dup2\n        /* \"#utility.yul\":6003:6023   */\n      sub\n        /* \"#utility.yul\":5999:6000   */\n      0x00\n        /* \"#utility.yul\":5988:5997   */\n      dup4\n        /* \"#utility.yul\":5984:6001   */\n      add\n        /* \"#utility.yul\":5977:6024   */\n      mstore\n        /* \"#utility.yul\":6041:6172   */\n      tag_187\n        /* \"#utility.yul\":6167:6171   */\n      dup2\n        /* \"#utility.yul\":6041:6172   */\n      tag_130\n      jump\t// in\n    tag_187:\n        /* \"#utility.yul\":6033:6172   */\n      swap1\n      pop\n        /* \"#utility.yul\":5931:6179   */\n      swap2\n      swap1\n      pop\n      jump\t// out\n        /* \"#utility.yul\":6185:6604   */\n    tag_69:\n        /* \"#utility.yul\":6351:6355   */\n      0x00\n        /* \"#utility.yul\":6389:6391   */\n      0x20\n        /* \"#utility.yul\":6378:6387   */\n      dup3\n        /* \"#utility.yul\":6374:6392   */\n      add\n        /* \"#utility.yul\":6366:6392   */\n      swap1\n      pop\n        /* \"#utility.yul\":6438:6447   */\n      dup2\n        /* \"#utility.yul\":6432:6436   */\n      dup2\n        /* \"#utility.yul\":6428:6448   */\n      sub\n        /* \"#utility.yul\":6424:6425   */\n      0x00\n        /* \"#utility.yul\":6413:6422   */\n      dup4\n        /* \"#utility.yul\":6409:6426   */\n      add\n        /* \"#utility.yul\":6402:6449   */\n      mstore\n        /* \"#utility.yul\":6466:6597   */\n      tag_189\n        /* \"#utility.yul\":6592:6596   */\n      dup2\n        /* \"#utility.yul\":6466:6597   */\n      tag_136\n      jump\t// in\n    tag_189:\n        /* \"#utility.yul\":6458:6597   */\n      swap1\n      pop\n        /* \"#utility.yul\":6356:6604   */\n      swap2\n      swap1\n      pop\n      jump\t// out\n        /* \"#utility.yul\":6610:7029   */\n    tag_75:\n        /* \"#utility.yul\":6776:6780   */\n      0x00\n        /* \"#utility.yul\":6814:6816   */\n      0x20\n        /* \"#utility.yul\":6803:6812   */\n      dup3\n        /* \"#utility.yul\":6799:6817   */\n      add\n        /* \"#utility.yul\":6791:6817   */\n      swap1\n      pop\n        /* \"#utility.yul\":6863:6872   */\n      dup2\n        /* \"#utility.yul\":6857:6861   */\n      dup2\n        /* \"#utility.yul\":6853:6873   */\n      sub\n        /* \"#utility.yul\":6849:6850   */\n      0x00\n        /* \"#utility.yul\":6838:6847   */\n      dup4\n        /* \"#utility.yul\":6834:6851   */\n      add\n        /* \"#utility.yul\":6827:6874   */\n      mstore\n        /* \"#utility.yul\":6891:7022   */\n      tag_191\n        /* \"#utility.yul\":7017:7021   */\n      dup2\n        /* \"#utility.yul\":6891:7022   */\n      tag_141\n      jump\t// in\n    tag_191:\n        /* \"#utility.yul\":6883:7022   */\n      swap1\n      pop\n        /* \"#utility.yul\":6781:7029   */\n      swap2\n      swap1\n      pop\n      jump\t// out\n        /* \"#utility.yul\":7035:7454   */\n    tag_102:\n        /* \"#utility.yul\":7201:7205   */\n      0x00\n        /* \"#utility.yul\":7239:7241   */\n      0x20\n        /* \"#utility.yul\":7228:7237   */\n      dup3\n        /* \"#utility.yul\":7224:7242   */\n      add\n        /* \"#utility.yul\":7216:7242   */\n      swap1\n      pop\n        /* \"#utility.yul\":7288:7297   */\n      dup2\n        /* \"#utility.yul\":7282:7286   */\n      dup2\n        /* \"#utility.yul\":7278:7298   */\n      sub\n        /* \"#utility.yul\":7274:7275   */\n      0x00\n        /* \"#utility.yul\":7263:7272   */\n      dup4\n        /* \"#utility.yul\":7259:7276   */\n      add\n        /* \"#utility.yul\":7252:7299   */\n      mstore\n        /* \"#utility.yul\":7316:7447   */\n      tag_193\n        /* \"#utility.yul\":7442:7446   */\n      dup2\n        /* \"#utility.yul\":7316:7447   */\n      tag_146\n      jump\t// in\n    tag_193:\n        /* \"#utility.yul\":7308:7447   */\n      swap1\n      pop\n        /* \"#utility.yul\":7206:7454   */\n      swap2\n      swap1\n      pop\n      jump\t// out\n        /* \"#utility.yul\":7460:7879   */\n    tag_79:\n        /* \"#utility.yul\":7626:7630   */\n      0x00\n        /* \"#utility.yul\":7664:7666   */\n      0x20\n        /* \"#utility.yul\":7653:7662   */\n      dup3\n        /* \"#utility.yul\":7649:7667   */\n      add\n        /* \"#utility.yul\":7641:7667   */\n      swap1\n      pop\n        /* \"#utility.yul\":7713:7722   */\n      dup2\n        /* \"#utility.yul\":7707:7711   */\n      dup2\n        /* \"#utility.yul\":7703:7723   */\n      sub\n        /* \"#utility.yul\":7699:7700   */\n      0x00\n        /* \"#utility.yul\":7688:7697   */\n      dup4\n        /* \"#utility.yul\":7684:7701   */\n      add\n        /* \"#utility.yul\":7677:7724   */\n      mstore\n        /* \"#utility.yul\":7741:7872   */\n      tag_195\n        /* \"#utility.yul\":7867:7871   */\n      dup2\n        /* \"#utility.yul\":7741:7872   */\n      tag_151\n      jump\t// in\n    tag_195:\n        /* \"#utility.yul\":7733:7872   */\n      swap1\n      pop\n        /* \"#utility.yul\":7631:7879   */\n      swap2\n      swap1\n      pop\n      jump\t// out\n        /* \"#utility.yul\":7885:8304   */\n    tag_62:\n        /* \"#utility.yul\":8051:8055   */\n      0x00\n        /* \"#utility.yul\":8089:8091   */\n      0x20\n        /* \"#utility.yul\":8078:8087   */\n      dup3\n        /* \"#utility.yul\":8074:8092   */\n      add\n        /* \"#utility.yul\":8066:8092   */\n      swap1\n      pop\n        /* \"#utility.yul\":8138:8147   */\n      dup2\n        /* \"#utility.yul\":8132:8136   */\n      dup2\n        /* \"#utility.yul\":8128:8148   */\n      sub\n        /* \"#utility.yul\":8124:8125   */\n      0x00\n        /* \"#utility.yul\":8113:8122   */\n      dup4\n        /* \"#utility.yul\":8109:8126   */\n      add\n        /* \"#utility.yul\":8102:8149   */\n      mstore\n        /* \"#utility.yul\":8166:8297   */\n      tag_197\n        /* \"#utility.yul\":8292:8296   */\n      dup2\n        /* \"#utility.yul\":8166:8297   */\n      tag_156\n      jump\t// in\n    tag_197:\n        /* \"#utility.yul\":8158:8297   */\n      swap1\n      pop\n        /* \"#utility.yul\":8056:8304   */\n      swap2\n      swap1\n      pop\n      jump\t// out\n        /* \"#utility.yul\":8310:8729   */\n    tag_91:\n        /* \"#utility.yul\":8476:8480   */\n      0x00\n        /* \"#utility.yul\":8514:8516   */\n      0x20\n        /* \"#utility.yul\":8503:8512   */\n      dup3\n        /* \"#utility.yul\":8499:8517   */\n      add\n        /* \"#utility.yul\":8491:8517   */\n      swap1\n      pop\n        /* \"#utility.yul\":8563:8572   */\n      dup2\n        /* \"#utility.yul\":8557:8561   */\n      dup2\n        /* \"#utility.yul\":8553:8573   */\n      sub\n        /* \"#utility.yul\":8549:8550   */\n      0x00\n        /* \"#utility.yul\":8538:8547   */\n      dup4\n        /* \"#utility.yul\":8534:8551   */\n      add\n        /* \"#utility.yul\":8527:8574   */\n      mstore\n        /* \"#utility.yul\":8591:8722   */\n      tag_199\n        /* \"#utility.yul\":8717:8721   */\n      dup2\n        /* \"#utility.yul\":8591:8722   */\n      tag_161\n      jump\t// in\n    tag_199:\n        /* \"#utility.yul\":8583:8722   */\n      swap1\n      pop\n        /* \"#utility.yul\":8481:8729   */\n      swap2\n      swap1\n      pop\n      jump\t// out\n        /* \"#utility.yul\":8735:8957   */\n    tag_32:\n        /* \"#utility.yul\":8828:8832   */\n      0x00\n        /* \"#utility.yul\":8866:8868   */\n      0x20\n        /* \"#utility.yul\":8855:8864   */\n      dup3\n        /* \"#utility.yul\":8851:8869   */\n      add\n        /* \"#utility.yul\":8843:8869   */\n      swap1\n      pop\n        /* \"#utility.yul\":8879:8950   */\n      tag_201\n        /* \"#utility.yul\":8947:8948   */\n      0x00\n        /* \"#utility.yul\":8936:8945   */\n      dup4\n        /* \"#utility.yul\":8932:8949   */\n      add\n        /* \"#utility.yul\":8923:8929   */\n      dup5\n        /* \"#utility.yul\":8879:8950   */\n      tag_172\n      jump\t// in\n    tag_201:\n        /* \"#utility.yul\":8833:8957   */\n      swap3\n      swap2\n      pop\n      pop\n      jump\t// out\n        /* \"#utility.yul\":8963:9110   */\n    tag_169:\n        /* \"#utility.yul\":9064:9075   */\n      0x00\n        /* \"#utility.yul\":9101:9104   */\n      dup2\n        /* \"#utility.yul\":9086:9104   */\n      swap1\n      pop\n        /* \"#utility.yul\":9076:9110   */\n      swap3\n      swap2\n      pop\n      pop\n      jump\t// out\n        /* \"#utility.yul\":9116:9285   */\n    tag_133:\n        /* \"#utility.yul\":9200:9211   */\n      0x00\n        /* \"#utility.yul\":9234:9240   */\n      dup3\n        /* \"#utility.yul\":9229:9232   */\n      dup3\n        /* \"#utility.yul\":9222:9241   */\n      mstore\n        /* \"#utility.yul\":9274:9278   */\n      0x20\n        /* \"#utility.yul\":9269:9272   */\n      dup3\n        /* \"#utility.yul\":9265:9279   */\n      add\n        /* \"#utility.yul\":9250:9279   */\n      swap1\n      pop\n        /* \"#utility.yul\":9212:9285   */\n      swap3\n      swap2\n      pop\n      pop\n      jump\t// out\n        /* \"#utility.yul\":9291:9476   */\n    tag_64:\n        /* \"#utility.yul\":9331:9332   */\n      0x00\n        /* \"#utility.yul\":9348:9368   */\n      tag_205\n        /* \"#utility.yul\":9366:9367   */\n      dup3\n        /* \"#utility.yul\":9348:9368   */\n      tag_175\n      jump\t// in\n    tag_205:\n        /* \"#utility.yul\":9343:9368   */\n      swap2\n      pop\n        /* \"#utility.yul\":9382:9402   */\n      tag_206\n        /* \"#utility.yul\":9400:9401   */\n      dup4\n        /* \"#utility.yul\":9382:9402   */\n      tag_175\n      jump\t// in\n    tag_206:\n        /* \"#utility.yul\":9377:9402   */\n      swap3\n      pop\n        /* \"#utility.yul\":9421:9422   */\n      dup3\n        /* \"#utility.yul\":9411:9413   */\n      tag_207\n      jumpi\n        /* \"#utility.yul\":9426:9444   */\n      tag_208\n      tag_209\n      jump\t// in\n    tag_208:\n        /* \"#utility.yul\":9411:9413   */\n    tag_207:\n        /* \"#utility.yul\":9468:9469   */\n      dup3\n        /* \"#utility.yul\":9465:9466   */\n      dup3\n        /* \"#utility.yul\":9461:9470   */\n      div\n        /* \"#utility.yul\":9456:9470   */\n      swap1\n      pop\n        /* \"#utility.yul\":9333:9476   */\n      swap3\n      swap2\n      pop\n      pop\n      jump\t// out\n        /* \"#utility.yul\":9482:9830   */\n    tag_66:\n        /* \"#utility.yul\":9522:9529   */\n      0x00\n        /* \"#utility.yul\":9545:9565   */\n      tag_211\n        /* \"#utility.yul\":9563:9564   */\n      dup3\n        /* \"#utility.yul\":9545:9565   */\n      tag_175\n      jump\t// in\n    tag_211:\n        /* \"#utility.yul\":9540:9565   */\n      swap2\n      pop\n        /* \"#utility.yul\":9579:9599   */\n      tag_212\n        /* \"#utility.yul\":9597:9598   */\n      dup4\n        /* \"#utility.yul\":9579:9599   */\n      tag_175\n      jump\t// in\n    tag_212:\n        /* \"#utility.yul\":9574:9599   */\n      swap3\n      pop\n        /* \"#utility.yul\":9767:9768   */\n      dup2\n        /* \"#utility.yul\":9699:9765   */\n      0xffffffffffffffffffffffffffffffffffffffffffffffffffffffffffffffff\n        /* \"#utility.yul\":9695:9769   */\n      div\n        /* \"#utility.yul\":9692:9693   */\n      dup4\n        /* \"#utility.yul\":9689:9770   */\n      gt\n        /* \"#utility.yul\":9684:9685   */\n      dup3\n        /* \"#utility.yul\":9677:9686   */\n      iszero\n        /* \"#utility.yul\":9670:9687   */\n      iszero\n        /* \"#utility.yul\":9666:9771   */\n      and\n        /* \"#utility.yul\":9663:9665   */\n      iszero\n      tag_213\n      jumpi\n        /* \"#utility.yul\":9774:9792   */\n      tag_214\n      tag_215\n      jump\t// in\n    tag_214:\n        /* \"#utility.yul\":9663:9665   */\n    tag_213:\n        /* \"#utility.yul\":9822:9823   */\n      dup3\n        /* \"#utility.yul\":9819:9820   */\n      dup3\n        /* \"#utility.yul\":9815:9824   */\n      mul\n        /* \"#utility.yul\":9804:9824   */\n      swap1\n      pop\n        /* \"#utility.yul\":9530:9830   */\n      swap3\n      swap2\n      pop\n      pop\n      jump\t// out\n        /* \"#utility.yul\":9836:9932   */\n    tag_125:\n        /* \"#utility.yul\":9873:9880   */\n      0x00\n        /* \"#utility.yul\":9902:9926   */\n      tag_217\n        /* \"#utility.yul\":9920:9925   */\n      dup3\n        /* \"#utility.yul\":9902:9926   */\n      tag_218\n      jump\t// in\n    tag_217:\n        /* \"#utility.yul\":9891:9926   */\n      swap1\n      pop\n        /* \"#utility.yul\":9881:9932   */\n      swap2\n      swap1\n      pop\n      jump\t// out\n        /* \"#utility.yul\":9938:10042   */\n    tag_121:\n        /* \"#utility.yul\":9983:9990   */\n      0x00\n        /* \"#utility.yul\":10012:10036   */\n      tag_220\n        /* \"#utility.yul\":10030:10035   */\n      dup3\n        /* \"#utility.yul\":10012:10036   */\n      tag_218\n      jump\t// in\n    tag_220:\n        /* \"#utility.yul\":10001:10036   */\n      swap1\n      pop\n        /* \"#utility.yul\":9991:10042   */\n      swap2\n      swap1\n      pop\n      jump\t// out\n        /* \"#utility.yul\":10048:10138   */\n    tag_221:\n        /* \"#utility.yul\":10082:10089   */\n      0x00\n        /* \"#utility.yul\":10125:10130   */\n      dup2\n        /* \"#utility.yul\":10118:10131   */\n      iszero\n        /* \"#utility.yul\":10111:10132   */\n      iszero\n        /* \"#utility.yul\":10100:10132   */\n      swap1\n      pop\n        /* \"#utility.yul\":10090:10138   */\n      swap2\n      swap1\n      pop\n      jump\t// out\n        /* \"#utility.yul\":10144:10270   */\n    tag_218:\n        /* \"#utility.yul\":10181:10188   */\n      0x00\n        /* \"#utility.yul\":10221:10263   */\n      0xffffffffffffffffffffffffffffffffffffffff\n        /* \"#utility.yul\":10214:10219   */\n      dup3\n        /* \"#utility.yul\":10210:10264   */\n      and\n        /* \"#utility.yul\":10199:10264   */\n      swap1\n      pop\n        /* \"#utility.yul\":10189:10270   */\n      swap2\n      swap1\n      pop\n      jump\t// out\n        /* \"#utility.yul\":10276:10353   */\n    tag_175:\n        /* \"#utility.yul\":10313:10320   */\n      0x00\n        /* \"#utility.yul\":10342:10347   */\n      dup2\n        /* \"#utility.yul\":10331:10347   */\n      swap1\n      pop\n        /* \"#utility.yul\":10321:10353   */\n      swap2\n      swap1\n      pop\n      jump\t// out\n        /* \"#utility.yul\":10359:10511   */\n    tag_129:\n        /* \"#utility.yul\":10422:10431   */\n      0x00\n        /* \"#utility.yul\":10455:10505   */\n      tag_226\n        /* \"#utility.yul\":10499:10504   */\n      dup3\n        /* \"#utility.yul\":10455:10505   */\n      tag_227\n      jump\t// in\n    tag_226:\n        /* \"#utility.yul\":10442:10505   */\n      swap1\n      pop\n        /* \"#utility.yul\":10432:10511   */\n      swap2\n      swap1\n      pop\n      jump\t// out\n        /* \"#utility.yul\":10517:10643   */\n    tag_227:\n        /* \"#utility.yul\":10580:10589   */\n      0x00\n        /* \"#utility.yul\":10613:10637   */\n      tag_229\n        /* \"#utility.yul\":10631:10636   */\n      dup3\n        /* \"#utility.yul\":10613:10637   */\n      tag_218\n      jump\t// in\n    tag_229:\n        /* \"#utility.yul\":10600:10637   */\n      swap1\n      pop\n        /* \"#utility.yul\":10590:10643   */\n      swap2\n      swap1\n      pop\n      jump\t// out\n        /* \"#utility.yul\":10649:10829   */\n    tag_215:\n        /* \"#utility.yul\":10697:10774   */\n      0x4e487b7100000000000000000000000000000000000000000000000000000000\n        /* \"#utility.yul\":10694:10695   */\n      0x00\n        /* \"#utility.yul\":10687:10775   */\n      mstore\n        /* \"#utility.yul\":10794:10798   */\n      0x11\n        /* \"#utility.yul\":10791:10792   */\n      0x04\n        /* \"#utility.yul\":10784:10799   */\n      mstore\n        /* \"#utility.yul\":10818:10822   */\n      0x24\n        /* \"#utility.yul\":10815:10816   */\n      0x00\n        /* \"#utility.yul\":10808:10823   */\n      revert\n        /* \"#utility.yul\":10835:11015   */\n    tag_209:\n        /* \"#utility.yul\":10883:10960   */\n      0x4e487b7100000000000000000000000000000000000000000000000000000000\n        /* \"#utility.yul\":10880:10881   */\n      0x00\n        /* \"#utility.yul\":10873:10961   */\n      mstore\n        /* \"#utility.yul\":10980:10984   */\n      0x12\n        /* \"#utility.yul\":10977:10978   */\n      0x04\n        /* \"#utility.yul\":10970:10985   */\n      mstore\n        /* \"#utility.yul\":11004:11008   */\n      0x24\n        /* \"#utility.yul\":11001:11002   */\n      0x00\n        /* \"#utility.yul\":10994:11009   */\n      revert\n        /* \"#utility.yul\":11021:11191   */\n    tag_135:\n        /* \"#utility.yul\":11161:11183   */\n      0x4661696c656420746f2073656e64204574686572000000000000000000000000\n        /* \"#utility.yul\":11157:11158   */\n      0x00\n        /* \"#utility.yul\":11149:11155   */\n      dup3\n        /* \"#utility.yul\":11145:11159   */\n      add\n        /* \"#utility.yul\":11138:11184   */\n      mstore\n        /* \"#utility.yul\":11127:11191   */\n      pop\n      jump\t// out\n        /* \"#utility.yul\":11197:11357   */\n    tag_140:\n        /* \"#utility.yul\":11337:11349   */\n      0x4e6f7420656e6f75676800000000000000000000000000000000000000000000\n        /* \"#utility.yul\":11333:11334   */\n      0x00\n        /* \"#utility.yul\":11325:11331   */\n      dup3\n        /* \"#utility.yul\":11321:11335   */\n      add\n        /* \"#utility.yul\":11314:11350   */\n      mstore\n        /* \"#utility.yul\":11303:11357   */\n      pop\n      jump\t// out\n        /* \"#utility.yul\":11363:11521   */\n    tag_145:\n        /* \"#utility.yul\":11503:11513   */\n      0x6e6f746f776e6572000000000000000000000000000000000000000000000000\n        /* \"#utility.yul\":11499:11500   */\n      0x00\n        /* \"#utility.yul\":11491:11497   */\n      dup3\n        /* \"#utility.yul\":11487:11501   */\n      add\n        /* \"#utility.yul\":11480:11514   */\n      mstore\n        /* \"#utility.yul\":11469:11521   */\n      pop\n      jump\t// out\n        /* \"#utility.yul\":11527:11698   */\n    tag_150:\n        /* \"#utility.yul\":11667:11690   */\n      0x546f6b656e207472616e73666572206661696c65640000000000000000000000\n        /* \"#utility.yul\":11663:11664   */\n      0x00\n        /* \"#utility.yul\":11655:11661   */\n      dup3\n        /* \"#utility.yul\":11651:11665   */\n      add\n        /* \"#utility.yul\":11644:11691   */\n      mstore\n        /* \"#utility.yul\":11633:11698   */\n      pop\n      jump\t// out\n        /* \"#utility.yul\":11704:11868   */\n    tag_155:\n        /* \"#utility.yul\":11844:11860   */\n      0x4d696e696d756d2073656c6c2031000000000000000000000000000000000000\n        /* \"#utility.yul\":11840:11841   */\n      0x00\n        /* \"#utility.yul\":11832:11838   */\n      dup3\n        /* \"#utility.yul\":11828:11842   */\n      add\n        /* \"#utility.yul\":11821:11861   */\n      mstore\n        /* \"#utility.yul\":11810:11868   */\n      pop\n      jump\t// out\n        /* \"#utility.yul\":11874:12037   */\n    tag_160:\n        /* \"#utility.yul\":12014:12029   */\n      0x4d696e696d756d20627579203100000000000000000000000000000000000000\n        /* \"#utility.yul\":12010:12011   */\n      0x00\n        /* \"#utility.yul\":12002:12008   */\n      dup3\n        /* \"#utility.yul\":11998:12012   */\n      add\n        /* \"#utility.yul\":11991:12030   */\n      mstore\n        /* \"#utility.yul\":11980:12037   */\n      pop\n      jump\t// out\n        /* \"#utility.yul\":12043:12209   */\n    tag_165:\n        /* \"#utility.yul\":12183:12201   */\n      0x5472616e73666572206661696c65642100000000000000000000000000000000\n        /* \"#utility.yul\":12179:12180   */\n      0x00\n        /* \"#utility.yul\":12171:12177   */\n      dup3\n        /* \"#utility.yul\":12167:12181   */\n      add\n        /* \"#utility.yul\":12160:12202   */\n      mstore\n        /* \"#utility.yul\":12149:12209   */\n      pop\n      jump\t// out\n        /* \"#utility.yul\":12215:12329   */\n    tag_171:\n        /* \"#utility.yul\":12321:12329   */\n      pop\n      jump\t// out\n        /* \"#utility.yul\":12335:12451   */\n    tag_107:\n        /* \"#utility.yul\":12405:12426   */\n      tag_241\n        /* \"#utility.yul\":12420:12425   */\n      dup2\n        /* \"#utility.yul\":12405:12426   */\n      tag_221\n      jump\t// in\n    tag_241:\n        /* \"#utility.yul\":12398:12403   */\n      dup2\n        /* \"#utility.yul\":12395:12427   */\n      eq\n        /* \"#utility.yul\":12385:12387   */\n      tag_242\n      jumpi\n        /* \"#utility.yul\":12441:12442   */\n      0x00\n        /* \"#utility.yul\":12438:12439   */\n      dup1\n        /* \"#utility.yul\":12431:12443   */\n      revert\n        /* \"#utility.yul\":12385:12387   */\n    tag_242:\n        /* \"#utility.yul\":12375:12451   */\n      pop\n      jump\t// out\n        /* \"#utility.yul\":12457:12579   */\n    tag_111:\n        /* \"#utility.yul\":12530:12554   */\n      tag_244\n        /* \"#utility.yul\":12548:12553   */\n      dup2\n        /* \"#utility.yul\":12530:12554   */\n      tag_175\n      jump\t// in\n    tag_244:\n        /* \"#utility.yul\":12523:12528   */\n      dup2\n        /* \"#utility.yul\":12520:12555   */\n      eq\n        /* \"#utility.yul\":12510:12512   */\n      tag_245\n      jumpi\n        /* \"#utility.yul\":12569:12570   */\n      0x00\n        /* \"#utility.yul\":12566:12567   */\n      dup1\n        /* \"#utility.yul\":12559:12571   */\n      revert\n        /* \"#utility.yul\":12510:12512   */\n    tag_245:\n        /* \"#utility.yul\":12500:12579   */\n      pop\n      jump\t// out\n\n    auxdata: 0xa2646970667358221220a0156da6f02e276c9c75b124b6bc39444bcd64804552f94c7784c1a635acd53f64736f6c63430008040033\n}\n",
				"bytecode": {
					"linkReferences": {},
					"object": "60806040524760045534801561001457600080fd5b50336000806101000a81548173ffffffffffffffffffffffffffffffffffffffff021916908373ffffffffffffffffffffffffffffffffffffffff16021790555062030d4060018190555073358aa13c52544eccef6b0add0f801012adad5ee3600360006101000a81548173ffffffffffffffffffffffffffffffffffffffff021916908373ffffffffffffffffffffffffffffffffffffffff160217905550610d4c806100c36000396000f3fe6080604052600436106100865760003560e01c806383a6128f1161005957806383a6128f146101125780638da5cb5b1461013d578063ade87ecc14610168578063d63cf1da14610191578063ebc4197c146101bc57610086565b806323b160ac1461008b5780633cb40e16146100b657806380c31426146100cd578063817e9d31146100e9575b600080fd5b34801561009757600080fd5b506100a06101e7565b6040516100ad919061092d565b60405180910390f35b3480156100c257600080fd5b506100cb61020d565b005b6100e760048036038101906100e29190610749565b6102df565b005b3480156100f557600080fd5b50610110600480360381019061010b9190610749565b6103be565b005b34801561011e57600080fd5b50610127610456565b6040516101349190610a28565b60405180910390f35b34801561014957600080fd5b5061015261045c565b60405161015f91906108db565b60405180910390f35b34801561017457600080fd5b5061018f600480360381019061018a9190610749565b610480565b005b34801561019d57600080fd5b506101a6610610565b6040516101b39190610a28565b60405180910390f35b3480156101c857600080fd5b506101d1610616565b6040516101de9190610a28565b60405180910390f35b600360009054906101000a900473ffffffffffffffffffffffffffffffffffffffff1681565b60008060009054906101000a900473ffffffffffffffffffffffffffffffffffffffff1673ffffffffffffffffffffffffffffffffffffffff16600454604051610256906108c6565b60006040518083038185875af1925050503d8060008114610293576040519150601f19603f3d011682016040523d82523d6000602084013e610298565b606091505b50509050806102dc576040517f08c379a00000000000000000000000000000000000000000000000000000000081526004016102d390610948565b60405180910390fd5b50565b612710811015610324576040517f08c379a000000000000000000000000000000000000000000000000000000000815260040161031b906109e8565b60405180910390fd5b6000670de0b6b3a76400006001548361033d9190610a5f565b6103479190610a90565b90508034101561038c576040517f08c379a000000000000000000000000000000000000000000000000000000000815260040161038390610968565b60405180910390fd5b6103ba600360009054906101000a900473ffffffffffffffffffffffffffffffffffffffff1630338561061c565b5050565b60008054906101000a900473ffffffffffffffffffffffffffffffffffffffff1673ffffffffffffffffffffffffffffffffffffffff163373ffffffffffffffffffffffffffffffffffffffff161461044c576040517f08c379a000000000000000000000000000000000000000000000000000000000815260040161044390610988565b60405180910390fd5b8060018190555050565b60045481565b60008054906101000a900473ffffffffffffffffffffffffffffffffffffffff1681565b6127108110156104c5576040517f08c379a00000000000000000000000000000000000000000000000000000000081526004016104bc906109c8565b60405180910390fd5b6104f3600360009054906101000a900473ffffffffffffffffffffffffffffffffffffffff1633308461061c565b6000670de0b6b3a76400006001548361050c9190610a5f565b6105169190610a90565b90503373ffffffffffffffffffffffffffffffffffffffff166108fc829081150290604051600060405180830381858888f1935050505015801561055e573d6000803e3d6000fd5b5060003373ffffffffffffffffffffffffffffffffffffffff1682604051610585906108c6565b60006040518083038185875af1925050503d80600081146105c2576040519150601f19603f3d011682016040523d82523d6000602084013e6105c7565b606091505b505090508061060b576040517f08c379a000000000000000000000000000000000000000000000000000000000815260040161060290610a08565b60405180910390fd5b505050565b60025481565b60015481565b60008473ffffffffffffffffffffffffffffffffffffffff166323b872dd8585856040518463ffffffff1660e01b815260040161065b939291906108f6565b602060405180830381600087803b15801561067557600080fd5b505af1158015610689573d6000803e3d6000fd5b505050506040513d601f19601f820116820180604052508101906106ad9190610720565b9050806106ef576040517f08c379a00000000000000000000000000000000000000000000000000000000081526004016106e6906109a8565b60405180910390fd5b5050505050565b60008151905061070581610ce8565b92915050565b60008135905061071a81610cff565b92915050565b60006020828403121561073257600080fd5b6000610740848285016106f6565b91505092915050565b60006020828403121561075b57600080fd5b60006107698482850161070b565b91505092915050565b61077b81610afc565b82525050565b61078a81610aea565b82525050565b61079981610b44565b82525050565b60006107ac601483610a4e565b91506107b782610bc6565b602082019050919050565b60006107cf600a83610a4e565b91506107da82610bef565b602082019050919050565b60006107f2600883610a4e565b91506107fd82610c18565b602082019050919050565b6000610815601583610a4e565b915061082082610c41565b602082019050919050565b6000610838600e83610a4e565b915061084382610c6a565b602082019050919050565b600061085b600d83610a4e565b915061086682610c93565b602082019050919050565b600061087e601083610a4e565b915061088982610cbc565b602082019050919050565b60006108a1600083610a43565b91506108ac82610ce5565b600082019050919050565b6108c081610b3a565b82525050565b60006108d182610894565b9150819050919050565b60006020820190506108f06000830184610772565b92915050565b600060608201905061090b6000830186610781565b6109186020830185610781565b61092560408301846108b7565b949350505050565b60006020820190506109426000830184610790565b92915050565b600060208201905081810360008301526109618161079f565b9050919050565b60006020820190508181036000830152610981816107c2565b9050919050565b600060208201905081810360008301526109a1816107e5565b9050919050565b600060208201905081810360008301526109c181610808565b9050919050565b600060208201905081810360008301526109e18161082b565b9050919050565b60006020820190508181036000830152610a018161084e565b9050919050565b60006020820190508181036000830152610a2181610871565b9050919050565b6000602082019050610a3d60008301846108b7565b92915050565b600081905092915050565b600082825260208201905092915050565b6000610a6a82610b3a565b9150610a7583610b3a565b925082610a8557610a84610b97565b5b828204905092915050565b6000610a9b82610b3a565b9150610aa683610b3a565b9250817fffffffffffffffffffffffffffffffffffffffffffffffffffffffffffffffff0483118215151615610adf57610ade610b68565b5b828202905092915050565b6000610af582610b1a565b9050919050565b6000610b0782610b1a565b9050919050565b60008115159050919050565b600073ffffffffffffffffffffffffffffffffffffffff82169050919050565b6000819050919050565b6000610b4f82610b56565b9050919050565b6000610b6182610b1a565b9050919050565b7f4e487b7100000000000000000000000000000000000000000000000000000000600052601160045260246000fd5b7f4e487b7100000000000000000000000000000000000000000000000000000000600052601260045260246000fd5b7f4661696c656420746f2073656e64204574686572000000000000000000000000600082015250565b7f4e6f7420656e6f75676800000000000000000000000000000000000000000000600082015250565b7f6e6f746f776e6572000000000000000000000000000000000000000000000000600082015250565b7f546f6b656e207472616e73666572206661696c65640000000000000000000000600082015250565b7f4d696e696d756d2073656c6c2031000000000000000000000000000000000000600082015250565b7f4d696e696d756d20627579203100000000000000000000000000000000000000600082015250565b7f5472616e73666572206661696c65642100000000000000000000000000000000600082015250565b50565b610cf181610b0e565b8114610cfc57600080fd5b50565b610d0881610b3a565b8114610d1357600080fd5b5056fea2646970667358221220a0156da6f02e276c9c75b124b6bc39444bcd64804552f94c7784c1a635acd53f64736f6c63430008040033",
					"opcodes": "PUSH1 0x80 PUSH1 0x40 MSTORE SELFBALANCE PUSH1 0x4 SSTORE CALLVALUE DUP1 ISZERO PUSH2 0x14 JUMPI PUSH1 0x0 DUP1 REVERT JUMPDEST POP CALLER PUSH1 0x0 DUP1 PUSH2 0x100 EXP DUP2 SLOAD DUP2 PUSH20 0xFFFFFFFFFFFFFFFFFFFFFFFFFFFFFFFFFFFFFFFF MUL NOT AND SWAP1 DUP4 PUSH20 0xFFFFFFFFFFFFFFFFFFFFFFFFFFFFFFFFFFFFFFFF AND MUL OR SWAP1 SSTORE POP PUSH3 0x30D40 PUSH1 0x1 DUP2 SWAP1 SSTORE POP PUSH20 0x358AA13C52544ECCEF6B0ADD0F801012ADAD5EE3 PUSH1 0x3 PUSH1 0x0 PUSH2 0x100 EXP DUP2 SLOAD DUP2 PUSH20 0xFFFFFFFFFFFFFFFFFFFFFFFFFFFFFFFFFFFFFFFF MUL NOT AND SWAP1 DUP4 PUSH20 0xFFFFFFFFFFFFFFFFFFFFFFFFFFFFFFFFFFFFFFFF AND MUL OR SWAP1 SSTORE POP PUSH2 0xD4C DUP1 PUSH2 0xC3 PUSH1 0x0 CODECOPY PUSH1 0x0 RETURN INVALID PUSH1 0x80 PUSH1 0x40 MSTORE PUSH1 0x4 CALLDATASIZE LT PUSH2 0x86 JUMPI PUSH1 0x0 CALLDATALOAD PUSH1 0xE0 SHR DUP1 PUSH4 0x83A6128F GT PUSH2 0x59 JUMPI DUP1 PUSH4 0x83A6128F EQ PUSH2 0x112 JUMPI DUP1 PUSH4 0x8DA5CB5B EQ PUSH2 0x13D JUMPI DUP1 PUSH4 0xADE87ECC EQ PUSH2 0x168 JUMPI DUP1 PUSH4 0xD63CF1DA EQ PUSH2 0x191 JUMPI DUP1 PUSH4 0xEBC4197C EQ PUSH2 0x1BC JUMPI PUSH2 0x86 JUMP JUMPDEST DUP1 PUSH4 0x23B160AC EQ PUSH2 0x8B JUMPI DUP1 PUSH4 0x3CB40E16 EQ PUSH2 0xB6 JUMPI DUP1 PUSH4 0x80C31426 EQ PUSH2 0xCD JUMPI DUP1 PUSH4 0x817E9D31 EQ PUSH2 0xE9 JUMPI JUMPDEST PUSH1 0x0 DUP1 REVERT JUMPDEST CALLVALUE DUP1 ISZERO PUSH2 0x97 JUMPI PUSH1 0x0 DUP1 REVERT JUMPDEST POP PUSH2 0xA0 PUSH2 0x1E7 JUMP JUMPDEST PUSH1 0x40 MLOAD PUSH2 0xAD SWAP2 SWAP1 PUSH2 0x92D JUMP JUMPDEST PUSH1 0x40 MLOAD DUP1 SWAP2 SUB SWAP1 RETURN JUMPDEST CALLVALUE DUP1 ISZERO PUSH2 0xC2 JUMPI PUSH1 0x0 DUP1 REVERT JUMPDEST POP PUSH2 0xCB PUSH2 0x20D JUMP JUMPDEST STOP JUMPDEST PUSH2 0xE7 PUSH1 0x4 DUP1 CALLDATASIZE SUB DUP2 ADD SWAP1 PUSH2 0xE2 SWAP2 SWAP1 PUSH2 0x749 JUMP JUMPDEST PUSH2 0x2DF JUMP JUMPDEST STOP JUMPDEST CALLVALUE DUP1 ISZERO PUSH2 0xF5 JUMPI PUSH1 0x0 DUP1 REVERT JUMPDEST POP PUSH2 0x110 PUSH1 0x4 DUP1 CALLDATASIZE SUB DUP2 ADD SWAP1 PUSH2 0x10B SWAP2 SWAP1 PUSH2 0x749 JUMP JUMPDEST PUSH2 0x3BE JUMP JUMPDEST STOP JUMPDEST CALLVALUE DUP1 ISZERO PUSH2 0x11E JUMPI PUSH1 0x0 DUP1 REVERT JUMPDEST POP PUSH2 0x127 PUSH2 0x456 JUMP JUMPDEST PUSH1 0x40 MLOAD PUSH2 0x134 SWAP2 SWAP1 PUSH2 0xA28 JUMP JUMPDEST PUSH1 0x40 MLOAD DUP1 SWAP2 SUB SWAP1 RETURN JUMPDEST CALLVALUE DUP1 ISZERO PUSH2 0x149 JUMPI PUSH1 0x0 DUP1 REVERT JUMPDEST POP PUSH2 0x152 PUSH2 0x45C JUMP JUMPDEST PUSH1 0x40 MLOAD PUSH2 0x15F SWAP2 SWAP1 PUSH2 0x8DB JUMP JUMPDEST PUSH1 0x40 MLOAD DUP1 SWAP2 SUB SWAP1 RETURN JUMPDEST CALLVALUE DUP1 ISZERO PUSH2 0x174 JUMPI PUSH1 0x0 DUP1 REVERT JUMPDEST POP PUSH2 0x18F PUSH1 0x4 DUP1 CALLDATASIZE SUB DUP2 ADD SWAP1 PUSH2 0x18A SWAP2 SWAP1 PUSH2 0x749 JUMP JUMPDEST PUSH2 0x480 JUMP JUMPDEST STOP JUMPDEST CALLVALUE DUP1 ISZERO PUSH2 0x19D JUMPI PUSH1 0x0 DUP1 REVERT JUMPDEST POP PUSH2 0x1A6 PUSH2 0x610 JUMP JUMPDEST PUSH1 0x40 MLOAD PUSH2 0x1B3 SWAP2 SWAP1 PUSH2 0xA28 JUMP JUMPDEST PUSH1 0x40 MLOAD DUP1 SWAP2 SUB SWAP1 RETURN JUMPDEST CALLVALUE DUP1 ISZERO PUSH2 0x1C8 JUMPI PUSH1 0x0 DUP1 REVERT JUMPDEST POP PUSH2 0x1D1 PUSH2 0x616 JUMP JUMPDEST PUSH1 0x40 MLOAD PUSH2 0x1DE SWAP2 SWAP1 PUSH2 0xA28 JUMP JUMPDEST PUSH1 0x40 MLOAD DUP1 SWAP2 SUB SWAP1 RETURN JUMPDEST PUSH1 0x3 PUSH1 0x0 SWAP1 SLOAD SWAP1 PUSH2 0x100 EXP SWAP1 DIV PUSH20 0xFFFFFFFFFFFFFFFFFFFFFFFFFFFFFFFFFFFFFFFF AND DUP2 JUMP JUMPDEST PUSH1 0x0 DUP1 PUSH1 0x0 SWAP1 SLOAD SWAP1 PUSH2 0x100 EXP SWAP1 DIV PUSH20 0xFFFFFFFFFFFFFFFFFFFFFFFFFFFFFFFFFFFFFFFF AND PUSH20 0xFFFFFFFFFFFFFFFFFFFFFFFFFFFFFFFFFFFFFFFF AND PUSH1 0x4 SLOAD PUSH1 0x40 MLOAD PUSH2 0x256 SWAP1 PUSH2 0x8C6 JUMP JUMPDEST PUSH1 0x0 PUSH1 0x40 MLOAD DUP1 DUP4 SUB DUP2 DUP6 DUP8 GAS CALL SWAP3 POP POP POP RETURNDATASIZE DUP1 PUSH1 0x0 DUP2 EQ PUSH2 0x293 JUMPI PUSH1 0x40 MLOAD SWAP2 POP PUSH1 0x1F NOT PUSH1 0x3F RETURNDATASIZE ADD AND DUP3 ADD PUSH1 0x40 MSTORE RETURNDATASIZE DUP3 MSTORE RETURNDATASIZE PUSH1 0x0 PUSH1 0x20 DUP5 ADD RETURNDATACOPY PUSH2 0x298 JUMP JUMPDEST PUSH1 0x60 SWAP2 POP JUMPDEST POP POP SWAP1 POP DUP1 PUSH2 0x2DC JUMPI PUSH1 0x40 MLOAD PUSH32 0x8C379A000000000000000000000000000000000000000000000000000000000 DUP2 MSTORE PUSH1 0x4 ADD PUSH2 0x2D3 SWAP1 PUSH2 0x948 JUMP JUMPDEST PUSH1 0x40 MLOAD DUP1 SWAP2 SUB SWAP1 REVERT JUMPDEST POP JUMP JUMPDEST PUSH2 0x2710 DUP2 LT ISZERO PUSH2 0x324 JUMPI PUSH1 0x40 MLOAD PUSH32 0x8C379A000000000000000000000000000000000000000000000000000000000 DUP2 MSTORE PUSH1 0x4 ADD PUSH2 0x31B SWAP1 PUSH2 0x9E8 JUMP JUMPDEST PUSH1 0x40 MLOAD DUP1 SWAP2 SUB SWAP1 REVERT JUMPDEST PUSH1 0x0 PUSH8 0xDE0B6B3A7640000 PUSH1 0x1 SLOAD DUP4 PUSH2 0x33D SWAP2 SWAP1 PUSH2 0xA5F JUMP JUMPDEST PUSH2 0x347 SWAP2 SWAP1 PUSH2 0xA90 JUMP JUMPDEST SWAP1 POP DUP1 CALLVALUE LT ISZERO PUSH2 0x38C JUMPI PUSH1 0x40 MLOAD PUSH32 0x8C379A000000000000000000000000000000000000000000000000000000000 DUP2 MSTORE PUSH1 0x4 ADD PUSH2 0x383 SWAP1 PUSH2 0x968 JUMP JUMPDEST PUSH1 0x40 MLOAD DUP1 SWAP2 SUB SWAP1 REVERT JUMPDEST PUSH2 0x3BA PUSH1 0x3 PUSH1 0x0 SWAP1 SLOAD SWAP1 PUSH2 0x100 EXP SWAP1 DIV PUSH20 0xFFFFFFFFFFFFFFFFFFFFFFFFFFFFFFFFFFFFFFFF AND ADDRESS CALLER DUP6 PUSH2 0x61C JUMP JUMPDEST POP POP JUMP JUMPDEST PUSH1 0x0 DUP1 SLOAD SWAP1 PUSH2 0x100 EXP SWAP1 DIV PUSH20 0xFFFFFFFFFFFFFFFFFFFFFFFFFFFFFFFFFFFFFFFF AND PUSH20 0xFFFFFFFFFFFFFFFFFFFFFFFFFFFFFFFFFFFFFFFF AND CALLER PUSH20 0xFFFFFFFFFFFFFFFFFFFFFFFFFFFFFFFFFFFFFFFF AND EQ PUSH2 0x44C JUMPI PUSH1 0x40 MLOAD PUSH32 0x8C379A000000000000000000000000000000000000000000000000000000000 DUP2 MSTORE PUSH1 0x4 ADD PUSH2 0x443 SWAP1 PUSH2 0x988 JUMP JUMPDEST PUSH1 0x40 MLOAD DUP1 SWAP2 SUB SWAP1 REVERT JUMPDEST DUP1 PUSH1 0x1 DUP2 SWAP1 SSTORE POP POP JUMP JUMPDEST PUSH1 0x4 SLOAD DUP2 JUMP JUMPDEST PUSH1 0x0 DUP1 SLOAD SWAP1 PUSH2 0x100 EXP SWAP1 DIV PUSH20 0xFFFFFFFFFFFFFFFFFFFFFFFFFFFFFFFFFFFFFFFF AND DUP2 JUMP JUMPDEST PUSH2 0x2710 DUP2 LT ISZERO PUSH2 0x4C5 JUMPI PUSH1 0x40 MLOAD PUSH32 0x8C379A000000000000000000000000000000000000000000000000000000000 DUP2 MSTORE PUSH1 0x4 ADD PUSH2 0x4BC SWAP1 PUSH2 0x9C8 JUMP JUMPDEST PUSH1 0x40 MLOAD DUP1 SWAP2 SUB SWAP1 REVERT JUMPDEST PUSH2 0x4F3 PUSH1 0x3 PUSH1 0x0 SWAP1 SLOAD SWAP1 PUSH2 0x100 EXP SWAP1 DIV PUSH20 0xFFFFFFFFFFFFFFFFFFFFFFFFFFFFFFFFFFFFFFFF AND CALLER ADDRESS DUP5 PUSH2 0x61C JUMP JUMPDEST PUSH1 0x0 PUSH8 0xDE0B6B3A7640000 PUSH1 0x1 SLOAD DUP4 PUSH2 0x50C SWAP2 SWAP1 PUSH2 0xA5F JUMP JUMPDEST PUSH2 0x516 SWAP2 SWAP1 PUSH2 0xA90 JUMP JUMPDEST SWAP1 POP CALLER PUSH20 0xFFFFFFFFFFFFFFFFFFFFFFFFFFFFFFFFFFFFFFFF AND PUSH2 0x8FC DUP3 SWAP1 DUP2 ISZERO MUL SWAP1 PUSH1 0x40 MLOAD PUSH1 0x0 PUSH1 0x40 MLOAD DUP1 DUP4 SUB DUP2 DUP6 DUP9 DUP9 CALL SWAP4 POP POP POP POP ISZERO DUP1 ISZERO PUSH2 0x55E JUMPI RETURNDATASIZE PUSH1 0x0 DUP1 RETURNDATACOPY RETURNDATASIZE PUSH1 0x0 REVERT JUMPDEST POP PUSH1 0x0 CALLER PUSH20 0xFFFFFFFFFFFFFFFFFFFFFFFFFFFFFFFFFFFFFFFF AND DUP3 PUSH1 0x40 MLOAD PUSH2 0x585 SWAP1 PUSH2 0x8C6 JUMP JUMPDEST PUSH1 0x0 PUSH1 0x40 MLOAD DUP1 DUP4 SUB DUP2 DUP6 DUP8 GAS CALL SWAP3 POP POP POP RETURNDATASIZE DUP1 PUSH1 0x0 DUP2 EQ PUSH2 0x5C2 JUMPI PUSH1 0x40 MLOAD SWAP2 POP PUSH1 0x1F NOT PUSH1 0x3F RETURNDATASIZE ADD AND DUP3 ADD PUSH1 0x40 MSTORE RETURNDATASIZE DUP3 MSTORE RETURNDATASIZE PUSH1 0x0 PUSH1 0x20 DUP5 ADD RETURNDATACOPY PUSH2 0x5C7 JUMP JUMPDEST PUSH1 0x60 SWAP2 POP JUMPDEST POP POP SWAP1 POP DUP1 PUSH2 0x60B JUMPI PUSH1 0x40 MLOAD PUSH32 0x8C379A000000000000000000000000000000000000000000000000000000000 DUP2 MSTORE PUSH1 0x4 ADD PUSH2 0x602 SWAP1 PUSH2 0xA08 JUMP JUMPDEST PUSH1 0x40 MLOAD DUP1 SWAP2 SUB SWAP1 REVERT JUMPDEST POP POP POP JUMP JUMPDEST PUSH1 0x2 SLOAD DUP2 JUMP JUMPDEST PUSH1 0x1 SLOAD DUP2 JUMP JUMPDEST PUSH1 0x0 DUP5 PUSH20 0xFFFFFFFFFFFFFFFFFFFFFFFFFFFFFFFFFFFFFFFF AND PUSH4 0x23B872DD DUP6 DUP6 DUP6 PUSH1 0x40 MLOAD DUP5 PUSH4 0xFFFFFFFF AND PUSH1 0xE0 SHL DUP2 MSTORE PUSH1 0x4 ADD PUSH2 0x65B SWAP4 SWAP3 SWAP2 SWAP1 PUSH2 0x8F6 JUMP JUMPDEST PUSH1 0x20 PUSH1 0x40 MLOAD DUP1 DUP4 SUB DUP2 PUSH1 0x0 DUP8 DUP1 EXTCODESIZE ISZERO DUP1 ISZERO PUSH2 0x675 JUMPI PUSH1 0x0 DUP1 REVERT JUMPDEST POP GAS CALL ISZERO DUP1 ISZERO PUSH2 0x689 JUMPI RETURNDATASIZE PUSH1 0x0 DUP1 RETURNDATACOPY RETURNDATASIZE PUSH1 0x0 REVERT JUMPDEST POP POP POP POP PUSH1 0x40 MLOAD RETURNDATASIZE PUSH1 0x1F NOT PUSH1 0x1F DUP3 ADD AND DUP3 ADD DUP1 PUSH1 0x40 MSTORE POP DUP2 ADD SWAP1 PUSH2 0x6AD SWAP2 SWAP1 PUSH2 0x720 JUMP JUMPDEST SWAP1 POP DUP1 PUSH2 0x6EF JUMPI PUSH1 0x40 MLOAD PUSH32 0x8C379A000000000000000000000000000000000000000000000000000000000 DUP2 MSTORE PUSH1 0x4 ADD PUSH2 0x6E6 SWAP1 PUSH2 0x9A8 JUMP JUMPDEST PUSH1 0x40 MLOAD DUP1 SWAP2 SUB SWAP1 REVERT JUMPDEST POP POP POP POP POP JUMP JUMPDEST PUSH1 0x0 DUP2 MLOAD SWAP1 POP PUSH2 0x705 DUP2 PUSH2 0xCE8 JUMP JUMPDEST SWAP3 SWAP2 POP POP JUMP JUMPDEST PUSH1 0x0 DUP2 CALLDATALOAD SWAP1 POP PUSH2 0x71A DUP2 PUSH2 0xCFF JUMP JUMPDEST SWAP3 SWAP2 POP POP JUMP JUMPDEST PUSH1 0x0 PUSH1 0x20 DUP3 DUP5 SUB SLT ISZERO PUSH2 0x732 JUMPI PUSH1 0x0 DUP1 REVERT JUMPDEST PUSH1 0x0 PUSH2 0x740 DUP5 DUP3 DUP6 ADD PUSH2 0x6F6 JUMP JUMPDEST SWAP2 POP POP SWAP3 SWAP2 POP POP JUMP JUMPDEST PUSH1 0x0 PUSH1 0x20 DUP3 DUP5 SUB SLT ISZERO PUSH2 0x75B JUMPI PUSH1 0x0 DUP1 REVERT JUMPDEST PUSH1 0x0 PUSH2 0x769 DUP5 DUP3 DUP6 ADD PUSH2 0x70B JUMP JUMPDEST SWAP2 POP POP SWAP3 SWAP2 POP POP JUMP JUMPDEST PUSH2 0x77B DUP2 PUSH2 0xAFC JUMP JUMPDEST DUP3 MSTORE POP POP JUMP JUMPDEST PUSH2 0x78A DUP2 PUSH2 0xAEA JUMP JUMPDEST DUP3 MSTORE POP POP JUMP JUMPDEST PUSH2 0x799 DUP2 PUSH2 0xB44 JUMP JUMPDEST DUP3 MSTORE POP POP JUMP JUMPDEST PUSH1 0x0 PUSH2 0x7AC PUSH1 0x14 DUP4 PUSH2 0xA4E JUMP JUMPDEST SWAP2 POP PUSH2 0x7B7 DUP3 PUSH2 0xBC6 JUMP JUMPDEST PUSH1 0x20 DUP3 ADD SWAP1 POP SWAP2 SWAP1 POP JUMP JUMPDEST PUSH1 0x0 PUSH2 0x7CF PUSH1 0xA DUP4 PUSH2 0xA4E JUMP JUMPDEST SWAP2 POP PUSH2 0x7DA DUP3 PUSH2 0xBEF JUMP JUMPDEST PUSH1 0x20 DUP3 ADD SWAP1 POP SWAP2 SWAP1 POP JUMP JUMPDEST PUSH1 0x0 PUSH2 0x7F2 PUSH1 0x8 DUP4 PUSH2 0xA4E JUMP JUMPDEST SWAP2 POP PUSH2 0x7FD DUP3 PUSH2 0xC18 JUMP JUMPDEST PUSH1 0x20 DUP3 ADD SWAP1 POP SWAP2 SWAP1 POP JUMP JUMPDEST PUSH1 0x0 PUSH2 0x815 PUSH1 0x15 DUP4 PUSH2 0xA4E JUMP JUMPDEST SWAP2 POP PUSH2 0x820 DUP3 PUSH2 0xC41 JUMP JUMPDEST PUSH1 0x20 DUP3 ADD SWAP1 POP SWAP2 SWAP1 POP JUMP JUMPDEST PUSH1 0x0 PUSH2 0x838 PUSH1 0xE DUP4 PUSH2 0xA4E JUMP JUMPDEST SWAP2 POP PUSH2 0x843 DUP3 PUSH2 0xC6A JUMP JUMPDEST PUSH1 0x20 DUP3 ADD SWAP1 POP SWAP2 SWAP1 POP JUMP JUMPDEST PUSH1 0x0 PUSH2 0x85B PUSH1 0xD DUP4 PUSH2 0xA4E JUMP JUMPDEST SWAP2 POP PUSH2 0x866 DUP3 PUSH2 0xC93 JUMP JUMPDEST PUSH1 0x20 DUP3 ADD SWAP1 POP SWAP2 SWAP1 POP JUMP JUMPDEST PUSH1 0x0 PUSH2 0x87E PUSH1 0x10 DUP4 PUSH2 0xA4E JUMP JUMPDEST SWAP2 POP PUSH2 0x889 DUP3 PUSH2 0xCBC JUMP JUMPDEST PUSH1 0x20 DUP3 ADD SWAP1 POP SWAP2 SWAP1 POP JUMP JUMPDEST PUSH1 0x0 PUSH2 0x8A1 PUSH1 0x0 DUP4 PUSH2 0xA43 JUMP JUMPDEST SWAP2 POP PUSH2 0x8AC DUP3 PUSH2 0xCE5 JUMP JUMPDEST PUSH1 0x0 DUP3 ADD SWAP1 POP SWAP2 SWAP1 POP JUMP JUMPDEST PUSH2 0x8C0 DUP2 PUSH2 0xB3A JUMP JUMPDEST DUP3 MSTORE POP POP JUMP JUMPDEST PUSH1 0x0 PUSH2 0x8D1 DUP3 PUSH2 0x894 JUMP JUMPDEST SWAP2 POP DUP2 SWAP1 POP SWAP2 SWAP1 POP JUMP JUMPDEST PUSH1 0x0 PUSH1 0x20 DUP3 ADD SWAP1 POP PUSH2 0x8F0 PUSH1 0x0 DUP4 ADD DUP5 PUSH2 0x772 JUMP JUMPDEST SWAP3 SWAP2 POP POP JUMP JUMPDEST PUSH1 0x0 PUSH1 0x60 DUP3 ADD SWAP1 POP PUSH2 0x90B PUSH1 0x0 DUP4 ADD DUP7 PUSH2 0x781 JUMP JUMPDEST PUSH2 0x918 PUSH1 0x20 DUP4 ADD DUP6 PUSH2 0x781 JUMP JUMPDEST PUSH2 0x925 PUSH1 0x40 DUP4 ADD DUP5 PUSH2 0x8B7 JUMP JUMPDEST SWAP5 SWAP4 POP POP POP POP JUMP JUMPDEST PUSH1 0x0 PUSH1 0x20 DUP3 ADD SWAP1 POP PUSH2 0x942 PUSH1 0x0 DUP4 ADD DUP5 PUSH2 0x790 JUMP JUMPDEST SWAP3 SWAP2 POP POP JUMP JUMPDEST PUSH1 0x0 PUSH1 0x20 DUP3 ADD SWAP1 POP DUP2 DUP2 SUB PUSH1 0x0 DUP4 ADD MSTORE PUSH2 0x961 DUP2 PUSH2 0x79F JUMP JUMPDEST SWAP1 POP SWAP2 SWAP1 POP JUMP JUMPDEST PUSH1 0x0 PUSH1 0x20 DUP3 ADD SWAP1 POP DUP2 DUP2 SUB PUSH1 0x0 DUP4 ADD MSTORE PUSH2 0x981 DUP2 PUSH2 0x7C2 JUMP JUMPDEST SWAP1 POP SWAP2 SWAP1 POP JUMP JUMPDEST PUSH1 0x0 PUSH1 0x20 DUP3 ADD SWAP1 POP DUP2 DUP2 SUB PUSH1 0x0 DUP4 ADD MSTORE PUSH2 0x9A1 DUP2 PUSH2 0x7E5 JUMP JUMPDEST SWAP1 POP SWAP2 SWAP1 POP JUMP JUMPDEST PUSH1 0x0 PUSH1 0x20 DUP3 ADD SWAP1 POP DUP2 DUP2 SUB PUSH1 0x0 DUP4 ADD MSTORE PUSH2 0x9C1 DUP2 PUSH2 0x808 JUMP JUMPDEST SWAP1 POP SWAP2 SWAP1 POP JUMP JUMPDEST PUSH1 0x0 PUSH1 0x20 DUP3 ADD SWAP1 POP DUP2 DUP2 SUB PUSH1 0x0 DUP4 ADD MSTORE PUSH2 0x9E1 DUP2 PUSH2 0x82B JUMP JUMPDEST SWAP1 POP SWAP2 SWAP1 POP JUMP JUMPDEST PUSH1 0x0 PUSH1 0x20 DUP3 ADD SWAP1 POP DUP2 DUP2 SUB PUSH1 0x0 DUP4 ADD MSTORE PUSH2 0xA01 DUP2 PUSH2 0x84E JUMP JUMPDEST SWAP1 POP SWAP2 SWAP1 POP JUMP JUMPDEST PUSH1 0x0 PUSH1 0x20 DUP3 ADD SWAP1 POP DUP2 DUP2 SUB PUSH1 0x0 DUP4 ADD MSTORE PUSH2 0xA21 DUP2 PUSH2 0x871 JUMP JUMPDEST SWAP1 POP SWAP2 SWAP1 POP JUMP JUMPDEST PUSH1 0x0 PUSH1 0x20 DUP3 ADD SWAP1 POP PUSH2 0xA3D PUSH1 0x0 DUP4 ADD DUP5 PUSH2 0x8B7 JUMP JUMPDEST SWAP3 SWAP2 POP POP JUMP JUMPDEST PUSH1 0x0 DUP2 SWAP1 POP SWAP3 SWAP2 POP POP JUMP JUMPDEST PUSH1 0x0 DUP3 DUP3 MSTORE PUSH1 0x20 DUP3 ADD SWAP1 POP SWAP3 SWAP2 POP POP JUMP JUMPDEST PUSH1 0x0 PUSH2 0xA6A DUP3 PUSH2 0xB3A JUMP JUMPDEST SWAP2 POP PUSH2 0xA75 DUP4 PUSH2 0xB3A JUMP JUMPDEST SWAP3 POP DUP3 PUSH2 0xA85 JUMPI PUSH2 0xA84 PUSH2 0xB97 JUMP JUMPDEST JUMPDEST DUP3 DUP3 DIV SWAP1 POP SWAP3 SWAP2 POP POP JUMP JUMPDEST PUSH1 0x0 PUSH2 0xA9B DUP3 PUSH2 0xB3A JUMP JUMPDEST SWAP2 POP PUSH2 0xAA6 DUP4 PUSH2 0xB3A JUMP JUMPDEST SWAP3 POP DUP2 PUSH32 0xFFFFFFFFFFFFFFFFFFFFFFFFFFFFFFFFFFFFFFFFFFFFFFFFFFFFFFFFFFFFFFFF DIV DUP4 GT DUP3 ISZERO ISZERO AND ISZERO PUSH2 0xADF JUMPI PUSH2 0xADE PUSH2 0xB68 JUMP JUMPDEST JUMPDEST DUP3 DUP3 MUL SWAP1 POP SWAP3 SWAP2 POP POP JUMP JUMPDEST PUSH1 0x0 PUSH2 0xAF5 DUP3 PUSH2 0xB1A JUMP JUMPDEST SWAP1 POP SWAP2 SWAP1 POP JUMP JUMPDEST PUSH1 0x0 PUSH2 0xB07 DUP3 PUSH2 0xB1A JUMP JUMPDEST SWAP1 POP SWAP2 SWAP1 POP JUMP JUMPDEST PUSH1 0x0 DUP2 ISZERO ISZERO SWAP1 POP SWAP2 SWAP1 POP JUMP JUMPDEST PUSH1 0x0 PUSH20 0xFFFFFFFFFFFFFFFFFFFFFFFFFFFFFFFFFFFFFFFF DUP3 AND SWAP1 POP SWAP2 SWAP1 POP JUMP JUMPDEST PUSH1 0x0 DUP2 SWAP1 POP SWAP2 SWAP1 POP JUMP JUMPDEST PUSH1 0x0 PUSH2 0xB4F DUP3 PUSH2 0xB56 JUMP JUMPDEST SWAP1 POP SWAP2 SWAP1 POP JUMP JUMPDEST PUSH1 0x0 PUSH2 0xB61 DUP3 PUSH2 0xB1A JUMP JUMPDEST SWAP1 POP SWAP2 SWAP1 POP JUMP JUMPDEST PUSH32 0x4E487B7100000000000000000000000000000000000000000000000000000000 PUSH1 0x0 MSTORE PUSH1 0x11 PUSH1 0x4 MSTORE PUSH1 0x24 PUSH1 0x0 REVERT JUMPDEST PUSH32 0x4E487B7100000000000000000000000000000000000000000000000000000000 PUSH1 0x0 MSTORE PUSH1 0x12 PUSH1 0x4 MSTORE PUSH1 0x24 PUSH1 0x0 REVERT JUMPDEST PUSH32 0x4661696C656420746F2073656E64204574686572000000000000000000000000 PUSH1 0x0 DUP3 ADD MSTORE POP JUMP JUMPDEST PUSH32 0x4E6F7420656E6F75676800000000000000000000000000000000000000000000 PUSH1 0x0 DUP3 ADD MSTORE POP JUMP JUMPDEST PUSH32 0x6E6F746F776E6572000000000000000000000000000000000000000000000000 PUSH1 0x0 DUP3 ADD MSTORE POP JUMP JUMPDEST PUSH32 0x546F6B656E207472616E73666572206661696C65640000000000000000000000 PUSH1 0x0 DUP3 ADD MSTORE POP JUMP JUMPDEST PUSH32 0x4D696E696D756D2073656C6C2031000000000000000000000000000000000000 PUSH1 0x0 DUP3 ADD MSTORE POP JUMP JUMPDEST PUSH32 0x4D696E696D756D20627579203100000000000000000000000000000000000000 PUSH1 0x0 DUP3 ADD MSTORE POP JUMP JUMPDEST PUSH32 0x5472616E73666572206661696C65642100000000000000000000000000000000 PUSH1 0x0 DUP3 ADD MSTORE POP JUMP JUMPDEST POP JUMP JUMPDEST PUSH2 0xCF1 DUP2 PUSH2 0xB0E JUMP JUMPDEST DUP2 EQ PUSH2 0xCFC JUMPI PUSH1 0x0 DUP1 REVERT JUMPDEST POP JUMP JUMPDEST PUSH2 0xD08 DUP2 PUSH2 0xB3A JUMP JUMPDEST DUP2 EQ PUSH2 0xD13 JUMPI PUSH1 0x0 DUP1 REVERT JUMPDEST POP JUMP INVALID LOG2 PUSH5 0x6970667358 0x22 SLT KECCAK256 LOG0 ISZERO PUSH14 0xA6F02E276C9C75B124B6BC39444B 0xCD PUSH5 0x804552F94C PUSH24 0x84C1A635ACD53F64736F6C63430008040033000000000000 "
				},
				"gasEstimates": {
					"creation": {
						"codeDepositCost": "680800",
						"executionCost": "82470",
						"totalCost": "763270"
					},
					"external": {
						"BnbToSafuu()": "1217",
						"buySafuu(uint256)": "infinite",
						"nativeInContract()": "1129",
						"owner()": "1233",
						"safuu()": "1258",
						"sellSafuu(uint256)": "infinite",
						"setFactor(uint256)": "21354",
						"taxFactor()": "1195",
						"withdrawToOwner()": "infinite"
					},
					"internal": {
						"_safeTransferFrom(contract IERC20,address,address,uint256)": "infinite"
					}
				},
				"methodIdentifiers": {
					"BnbToSafuu()": "ebc4197c",
					"buySafuu(uint256)": "80c31426",
					"nativeInContract()": "83a6128f",
					"owner()": "8da5cb5b",
					"safuu()": "23b160ac",
					"sellSafuu(uint256)": "ade87ecc",
					"setFactor(uint256)": "817e9d31",
					"taxFactor()": "d63cf1da",
					"withdrawToOwner()": "3cb40e16"
				}
			},
			"userdoc": {
				"kind": "user",
				"methods": {},
				"version": 1
			}
		}
	}
}