{
	"Baton.sol": {
		"Baton": {
			"abi": [
				{
					"inputs": [],
					"stateMutability": "nonpayable",
					"type": "constructor"
				},
				{
					"anonymous": false,
					"inputs": [
						{
							"indexed": true,
							"internalType": "address",
							"name": "owner",
							"type": "address"
						},
						{
							"indexed": true,
							"internalType": "address",
							"name": "spender",
							"type": "address"
						},
						{
							"indexed": false,
							"internalType": "uint256",
							"name": "value",
							"type": "uint256"
						}
					],
					"name": "Approval",
					"type": "event"
				},
				{
					"anonymous": false,
					"inputs": [
						{
							"indexed": true,
							"internalType": "address",
							"name": "previousOwner",
							"type": "address"
						},
						{
							"indexed": true,
							"internalType": "address",
							"name": "newOwner",
							"type": "address"
						}
					],
					"name": "OwnershipTransferred",
					"type": "event"
				},
				{
					"anonymous": false,
					"inputs": [
						{
							"indexed": true,
							"internalType": "address",
							"name": "from",
							"type": "address"
						},
						{
							"indexed": true,
							"internalType": "address",
							"name": "to",
							"type": "address"
						},
						{
							"indexed": false,
							"internalType": "uint256",
							"name": "value",
							"type": "uint256"
						}
					],
					"name": "Transfer",
					"type": "event"
				},
				{
					"inputs": [
						{
							"internalType": "address",
							"name": "controller",
							"type": "address"
						}
					],
					"name": "addController",
					"outputs": [],
					"stateMutability": "nonpayable",
					"type": "function"
				},
				{
					"inputs": [
						{
							"internalType": "address",
							"name": "owner",
							"type": "address"
						},
						{
							"internalType": "address",
							"name": "spender",
							"type": "address"
						}
					],
					"name": "allowance",
					"outputs": [
						{
							"internalType": "uint256",
							"name": "",
							"type": "uint256"
						}
					],
					"stateMutability": "view",
					"type": "function"
				},
				{
					"inputs": [
						{
							"internalType": "address",
							"name": "spender",
							"type": "address"
						},
						{
							"internalType": "uint256",
							"name": "amount",
							"type": "uint256"
						}
					],
					"name": "approve",
					"outputs": [
						{
							"internalType": "bool",
							"name": "",
							"type": "bool"
						}
					],
					"stateMutability": "nonpayable",
					"type": "function"
				},
				{
					"inputs": [
						{
							"internalType": "address",
							"name": "account",
							"type": "address"
						}
					],
					"name": "balanceOf",
					"outputs": [
						{
							"internalType": "uint256",
							"name": "",
							"type": "uint256"
						}
					],
					"stateMutability": "view",
					"type": "function"
				},
				{
					"inputs": [
						{
							"internalType": "address",
							"name": "from",
							"type": "address"
						},
						{
							"internalType": "uint256",
							"name": "amount",
							"type": "uint256"
						}
					],
					"name": "burn",
					"outputs": [],
					"stateMutability": "nonpayable",
					"type": "function"
				},
				{
					"inputs": [],
					"name": "decimals",
					"outputs": [
						{
							"internalType": "uint8",
							"name": "",
							"type": "uint8"
						}
					],
					"stateMutability": "view",
					"type": "function"
				},
				{
					"inputs": [
						{
							"internalType": "address",
							"name": "spender",
							"type": "address"
						},
						{
							"internalType": "uint256",
							"name": "subtractedValue",
							"type": "uint256"
						}
					],
					"name": "decreaseAllowance",
					"outputs": [
						{
							"internalType": "bool",
							"name": "",
							"type": "bool"
						}
					],
					"stateMutability": "nonpayable",
					"type": "function"
				},
				{
					"inputs": [
						{
							"internalType": "address",
							"name": "spender",
							"type": "address"
						},
						{
							"internalType": "uint256",
							"name": "addedValue",
							"type": "uint256"
						}
					],
					"name": "increaseAllowance",
					"outputs": [
						{
							"internalType": "bool",
							"name": "",
							"type": "bool"
						}
					],
					"stateMutability": "nonpayable",
					"type": "function"
				},
				{
					"inputs": [
						{
							"internalType": "address",
							"name": "to",
							"type": "address"
						},
						{
							"internalType": "uint256",
							"name": "amount",
							"type": "uint256"
						}
					],
					"name": "mint",
					"outputs": [],
					"stateMutability": "nonpayable",
					"type": "function"
				},
				{
					"inputs": [],
					"name": "name",
					"outputs": [
						{
							"internalType": "string",
							"name": "",
							"type": "string"
						}
					],
					"stateMutability": "view",
					"type": "function"
				},
				{
					"inputs": [],
					"name": "owner",
					"outputs": [
						{
							"internalType": "address",
							"name": "",
							"type": "address"
						}
					],
					"stateMutability": "view",
					"type": "function"
				},
				{
					"inputs": [
						{
							"internalType": "address",
							"name": "controller",
							"type": "address"
						}
					],
					"name": "removeController",
					"outputs": [],
					"stateMutability": "nonpayable",
					"type": "function"
				},
				{
					"inputs": [],
					"name": "renounceOwnership",
					"outputs": [],
					"stateMutability": "nonpayable",
					"type": "function"
				},
				{
					"inputs": [],
					"name": "scepterTotalSupply",
					"outputs": [
						{
							"internalType": "uint256",
							"name": "",
							"type": "uint256"
						}
					],
					"stateMutability": "view",
					"type": "function"
				},
				{
					"inputs": [],
					"name": "symbol",
					"outputs": [
						{
							"internalType": "string",
							"name": "",
							"type": "string"
						}
					],
					"stateMutability": "view",
					"type": "function"
				},
				{
					"inputs": [],
					"name": "totalSupply",
					"outputs": [
						{
							"internalType": "uint256",
							"name": "",
							"type": "uint256"
						}
					],
					"stateMutability": "view",
					"type": "function"
				},
				{
					"inputs": [
						{
							"internalType": "address",
							"name": "recipient",
							"type": "address"
						},
						{
							"internalType": "uint256",
							"name": "amount",
							"type": "uint256"
						}
					],
					"name": "transfer",
					"outputs": [
						{
							"internalType": "bool",
							"name": "",
							"type": "bool"
						}
					],
					"stateMutability": "nonpayable",
					"type": "function"
				},
				{
					"inputs": [
						{
							"internalType": "address",
							"name": "sender",
							"type": "address"
						},
						{
							"internalType": "address",
							"name": "recipient",
							"type": "address"
						},
						{
							"internalType": "uint256",
							"name": "amount",
							"type": "uint256"
						}
					],
					"name": "transferFrom",
					"outputs": [
						{
							"internalType": "bool",
							"name": "",
							"type": "bool"
						}
					],
					"stateMutability": "nonpayable",
					"type": "function"
				},
				{
					"inputs": [
						{
							"internalType": "address",
							"name": "newOwner",
							"type": "address"
						}
					],
					"name": "transferOwnership",
					"outputs": [],
					"stateMutability": "nonpayable",
					"type": "function"
				}
			],
			"devdoc": {
				"kind": "dev",
				"methods": {
					"addController(address)": {
						"params": {
							"controller": "the address to enable"
						}
					},
					"allowance(address,address)": {
						"details": "See {IERC20-allowance}."
					},
					"approve(address,uint256)": {
						"details": "See {IERC20-approve}. Requirements: - `spender` cannot be the zero address."
					},
					"balanceOf(address)": {
						"details": "See {IERC20-balanceOf}."
					},
					"burn(address,uint256)": {
						"params": {
							"amount": "the amount of $Scepter to burn TODO: Each time a call is sent to burn $Scepter, the same call is sent to burn same amount of $Wand and mint the same amount of $Baton ",
							"from": "the holder of the $Scepter"
						}
					},
					"decimals()": {
						"details": "Returns the number of decimals used to get its user representation. For example, if `decimals` equals `2`, a balance of `505` tokens should be displayed to a user as `5.05` (`505 / 10 ** 2`). Tokens usually opt for a value of 18, imitating the relationship between Ether and Wei. This is the value {ERC20} uses, unless this function is overridden; NOTE: This information is only used for _display_ purposes: it in no way affects any of the arithmetic of the contract, including {IERC20-balanceOf} and {IERC20-transfer}."
					},
					"decreaseAllowance(address,uint256)": {
						"details": "Atomically decreases the allowance granted to `spender` by the caller. This is an alternative to {approve} that can be used as a mitigation for problems described in {IERC20-approve}. Emits an {Approval} event indicating the updated allowance. Requirements: - `spender` cannot be the zero address. - `spender` must have allowance for the caller of at least `subtractedValue`."
					},
					"increaseAllowance(address,uint256)": {
						"details": "Atomically increases the allowance granted to `spender` by the caller. This is an alternative to {approve} that can be used as a mitigation for problems described in {IERC20-approve}. Emits an {Approval} event indicating the updated allowance. Requirements: - `spender` cannot be the zero address."
					},
					"mint(address,uint256)": {
						"params": {
							"amount": "the amount of $Scepter to mint TODO: Each time a call is sent to mint $Scepter, the same call is sent to mint $Wand",
							"to": "the recipient of the $Scepter"
						}
					},
					"name()": {
						"details": "Returns the name of the token."
					},
					"owner()": {
						"details": "Returns the address of the current owner."
					},
					"removeController(address)": {
						"params": {
							"controller": "the address to disbale"
						}
					},
					"renounceOwnership()": {
						"details": "Leaves the contract without owner. It will not be possible to call `onlyOwner` functions anymore. Can only be called by the current owner. NOTE: Renouncing ownership will leave the contract without an owner, thereby removing any functionality that is only available to the owner."
					},
					"symbol()": {
						"details": "Returns the symbol of the token, usually a shorter version of the name."
					},
					"totalSupply()": {
						"details": "See {IERC20-totalSupply}."
					},
					"transfer(address,uint256)": {
						"details": "See {IERC20-transfer}. Requirements: - `recipient` cannot be the zero address. - the caller must have a balance of at least `amount`."
					},
					"transferFrom(address,address,uint256)": {
						"details": "See {IERC20-transferFrom}. Emits an {Approval} event indicating the updated allowance. This is not required by the EIP. See the note at the beginning of {ERC20}. Requirements: - `sender` and `recipient` cannot be the zero address. - `sender` must have a balance of at least `amount`. - the caller must have allowance for ``sender``'s tokens of at least `amount`."
					},
					"transferOwnership(address)": {
						"details": "Transfers ownership of the contract to a new account (`newOwner`). Can only be called by the current owner."
					}
				},
				"version": 1
			},
			"evm": {
				"assembly": "    /* \"Baton.sol\":118:1814  contract Baton is ERC20, Ownable {\r... */\n  mstore(0x40, 0x80)\n    /* \"Baton.sol\":278:338  constructor() ERC20(\"Wand-Baton\", \"BTON\") {\r... */\n  callvalue\n  dup1\n  iszero\n  tag_1\n  jumpi\n  0x00\n  dup1\n  revert\ntag_1:\n  pop\n    /* \"ERC20.sol\":1984:2106  constructor(string memory name_, string memory symbol_) {... */\n  mload(0x40)\n  dup1\n  0x40\n  add\n  0x40\n  mstore\n  dup1\n  0x0a\n  dup2\n  mstore\n  0x20\n  add\n  0x57616e642d4261746f6e00000000000000000000000000000000000000000000\n  dup2\n  mstore\n  pop\n  mload(0x40)\n  dup1\n  0x40\n  add\n  0x40\n  mstore\n  dup1\n  0x04\n  dup2\n  mstore\n  0x20\n  add\n  0x42544f4e00000000000000000000000000000000000000000000000000000000\n  dup2\n  mstore\n  pop\n    /* \"ERC20.sol\":2058:2063  name_ */\n  dup2\n    /* \"ERC20.sol\":2050:2055  _name */\n  0x03\n    /* \"ERC20.sol\":2050:2063  _name = name_ */\n  swap1\n  dup1\n  mload\n  swap1\n  0x20\n  add\n  swap1\n  tag_6\n  swap3\n  swap2\n  swap1\n  tag_7\n  jump\t// in\ntag_6:\n  pop\n    /* \"ERC20.sol\":2083:2090  symbol_ */\n  dup1\n    /* \"ERC20.sol\":2073:2080  _symbol */\n  0x04\n    /* \"ERC20.sol\":2073:2090  _symbol = symbol_ */\n  swap1\n  dup1\n  mload\n  swap1\n  0x20\n  add\n  swap1\n  tag_8\n  swap3\n  swap2\n  swap1\n  tag_7\n  jump\t// in\ntag_8:\n  pop\n    /* \"ERC20.sol\":1984:2106  constructor(string memory name_, string memory symbol_) {... */\n  pop\n  pop\n    /* \"Ownable.sol\":914:946  _transferOwnership(_msgSender()) */\n  tag_10\n    /* \"Ownable.sol\":933:945  _msgSender() */\n  tag_11\n    /* \"Ownable.sol\":933:943  _msgSender */\n  shl(0x20, tag_12)\n    /* \"Ownable.sol\":933:945  _msgSender() */\n  0x20\n  shr\n  jump\t// in\ntag_11:\n    /* \"Ownable.sol\":914:932  _transferOwnership */\n  shl(0x20, tag_13)\n    /* \"Ownable.sol\":914:946  _transferOwnership(_msgSender()) */\n  0x20\n  shr\n  jump\t// in\ntag_10:\n    /* \"Baton.sol\":118:1814  contract Baton is ERC20, Ownable {\r... */\n  jump(tag_15)\n    /* \"Context.sol\":640:736  function _msgSender() internal view virtual returns (address) {... */\ntag_12:\n    /* \"Context.sol\":693:700  address */\n  0x00\n    /* \"Context.sol\":719:729  msg.sender */\n  caller\n    /* \"Context.sol\":712:729  return msg.sender */\n  swap1\n  pop\n    /* \"Context.sol\":640:736  function _msgSender() internal view virtual returns (address) {... */\n  swap1\n  jump\t// out\n    /* \"Ownable.sol\":2263:2450  function _transferOwnership(address newOwner) internal virtual {... */\ntag_13:\n    /* \"Ownable.sol\":2336:2352  address oldOwner */\n  0x00\n    /* \"Ownable.sol\":2355:2361  _owner */\n  0x06\n  0x00\n  swap1\n  sload\n  swap1\n  0x0100\n  exp\n  swap1\n  div\n  0xffffffffffffffffffffffffffffffffffffffff\n  and\n    /* \"Ownable.sol\":2336:2361  address oldOwner = _owner */\n  swap1\n  pop\n    /* \"Ownable.sol\":2380:2388  newOwner */\n  dup2\n    /* \"Ownable.sol\":2371:2377  _owner */\n  0x06\n  0x00\n    /* \"Ownable.sol\":2371:2388  _owner = newOwner */\n  0x0100\n  exp\n  dup2\n  sload\n  dup2\n  0xffffffffffffffffffffffffffffffffffffffff\n  mul\n  not\n  and\n  swap1\n  dup4\n  0xffffffffffffffffffffffffffffffffffffffff\n  and\n  mul\n  or\n  swap1\n  sstore\n  pop\n    /* \"Ownable.sol\":2434:2442  newOwner */\n  dup2\n    /* \"Ownable.sol\":2403:2443  OwnershipTransferred(oldOwner, newOwner) */\n  0xffffffffffffffffffffffffffffffffffffffff\n  and\n    /* \"Ownable.sol\":2424:2432  oldOwner */\n  dup2\n    /* \"Ownable.sol\":2403:2443  OwnershipTransferred(oldOwner, newOwner) */\n  0xffffffffffffffffffffffffffffffffffffffff\n  and\n  0x8be0079c531659141344cd1fd0a4f28419497f9722a3daafe3b4186f6b6457e0\n  mload(0x40)\n  mload(0x40)\n  dup1\n  swap2\n  sub\n  swap1\n  log3\n    /* \"Ownable.sol\":2326:2450  {... */\n  pop\n    /* \"Ownable.sol\":2263:2450  function _transferOwnership(address newOwner) internal virtual {... */\n  pop\n  jump\t// out\n    /* \"Baton.sol\":118:1814  contract Baton is ERC20, Ownable {\r... */\ntag_7:\n  dup3\n  dup1\n  sload\n  tag_18\n  swap1\n  tag_19\n  jump\t// in\ntag_18:\n  swap1\n  0x00\n  mstore\n  keccak256(0x00, 0x20)\n  swap1\n  0x1f\n  add\n  0x20\n  swap1\n  div\n  dup2\n  add\n  swap3\n  dup3\n  tag_21\n  jumpi\n  0x00\n  dup6\n  sstore\n  jump(tag_20)\ntag_21:\n  dup3\n  0x1f\n  lt\n  tag_22\n  jumpi\n  dup1\n  mload\n  not(0xff)\n  and\n  dup4\n  dup1\n  add\n  or\n  dup6\n  sstore\n  jump(tag_20)\ntag_22:\n  dup3\n  dup1\n  add\n  0x01\n  add\n  dup6\n  sstore\n  dup3\n  iszero\n  tag_20\n  jumpi\n  swap2\n  dup3\n  add\ntag_23:\n  dup3\n  dup2\n  gt\n  iszero\n  tag_24\n  jumpi\n  dup3\n  mload\n  dup3\n  sstore\n  swap2\n  0x20\n  add\n  swap2\n  swap1\n  0x01\n  add\n  swap1\n  jump(tag_23)\ntag_24:\ntag_20:\n  pop\n  swap1\n  pop\n  tag_25\n  swap2\n  swap1\n  tag_26\n  jump\t// in\ntag_25:\n  pop\n  swap1\n  jump\t// out\ntag_26:\ntag_27:\n  dup1\n  dup3\n  gt\n  iszero\n  tag_28\n  jumpi\n  0x00\n  dup2\n  0x00\n  swap1\n  sstore\n  pop\n  0x01\n  add\n  jump(tag_27)\ntag_28:\n  pop\n  swap1\n  jump\t// out\n    /* \"#utility.yul\":7:327   */\ntag_19:\n    /* \"#utility.yul\":51:57   */\n  0x00\n    /* \"#utility.yul\":88:89   */\n  0x02\n    /* \"#utility.yul\":82:86   */\n  dup3\n    /* \"#utility.yul\":78:90   */\n  div\n    /* \"#utility.yul\":68:90   */\n  swap1\n  pop\n    /* \"#utility.yul\":135:136   */\n  0x01\n    /* \"#utility.yul\":129:133   */\n  dup3\n    /* \"#utility.yul\":125:137   */\n  and\n    /* \"#utility.yul\":156:174   */\n  dup1\n    /* \"#utility.yul\":146:227   */\n  tag_31\n  jumpi\n    /* \"#utility.yul\":212:216   */\n  0x7f\n    /* \"#utility.yul\":204:210   */\n  dup3\n    /* \"#utility.yul\":200:217   */\n  and\n    /* \"#utility.yul\":190:217   */\n  swap2\n  pop\n    /* \"#utility.yul\":146:227   */\ntag_31:\n    /* \"#utility.yul\":274:276   */\n  0x20\n    /* \"#utility.yul\":266:272   */\n  dup3\n    /* \"#utility.yul\":263:277   */\n  lt\n    /* \"#utility.yul\":243:261   */\n  dup2\n    /* \"#utility.yul\":240:278   */\n  eq\n    /* \"#utility.yul\":237:321   */\n  iszero\n  tag_32\n  jumpi\n    /* \"#utility.yul\":293:311   */\n  tag_33\n  tag_34\n  jump\t// in\ntag_33:\n    /* \"#utility.yul\":237:321   */\ntag_32:\n    /* \"#utility.yul\":58:327   */\n  pop\n    /* \"#utility.yul\":7:327   */\n  swap2\n  swap1\n  pop\n  jump\t// out\n    /* \"#utility.yul\":333:513   */\ntag_34:\n    /* \"#utility.yul\":381:458   */\n  0x4e487b7100000000000000000000000000000000000000000000000000000000\n    /* \"#utility.yul\":378:379   */\n  0x00\n    /* \"#utility.yul\":371:459   */\n  mstore\n    /* \"#utility.yul\":478:482   */\n  0x22\n    /* \"#utility.yul\":475:476   */\n  0x04\n    /* \"#utility.yul\":468:483   */\n  mstore\n    /* \"#utility.yul\":502:506   */\n  0x24\n    /* \"#utility.yul\":499:500   */\n  0x00\n    /* \"#utility.yul\":492:507   */\n  revert\n    /* \"Baton.sol\":118:1814  contract Baton is ERC20, Ownable {\r... */\ntag_15:\n  dataSize(sub_0)\n  dup1\n  dataOffset(sub_0)\n  0x00\n  codecopy\n  0x00\n  return\nstop\n\nsub_0: assembly {\n        /* \"Baton.sol\":118:1814  contract Baton is ERC20, Ownable {\r... */\n      mstore(0x40, 0x80)\n      callvalue\n      dup1\n      iszero\n      tag_1\n      jumpi\n      0x00\n      dup1\n      revert\n    tag_1:\n      pop\n      jumpi(tag_2, lt(calldatasize, 0x04))\n      shr(0xe0, calldataload(0x00))\n      dup1\n      0x715018a6\n      gt\n      tag_22\n      jumpi\n      dup1\n      0xa7fc7a07\n      gt\n      tag_23\n      jumpi\n      dup1\n      0xa7fc7a07\n      eq\n      tag_17\n      jumpi\n      dup1\n      0xa9059cbb\n      eq\n      tag_18\n      jumpi\n      dup1\n      0xdd62ed3e\n      eq\n      tag_19\n      jumpi\n      dup1\n      0xf2fde38b\n      eq\n      tag_20\n      jumpi\n      dup1\n      0xf6a74ed7\n      eq\n      tag_21\n      jumpi\n      jump(tag_2)\n    tag_23:\n      dup1\n      0x715018a6\n      eq\n      tag_12\n      jumpi\n      dup1\n      0x8da5cb5b\n      eq\n      tag_13\n      jumpi\n      dup1\n      0x95d89b41\n      eq\n      tag_14\n      jumpi\n      dup1\n      0x9dc29fac\n      eq\n      tag_15\n      jumpi\n      dup1\n      0xa457c2d7\n      eq\n      tag_16\n      jumpi\n      jump(tag_2)\n    tag_22:\n      dup1\n      0x2e54606a\n      gt\n      tag_24\n      jumpi\n      dup1\n      0x2e54606a\n      eq\n      tag_7\n      jumpi\n      dup1\n      0x313ce567\n      eq\n      tag_8\n      jumpi\n      dup1\n      0x39509351\n      eq\n      tag_9\n      jumpi\n      dup1\n      0x40c10f19\n      eq\n      tag_10\n      jumpi\n      dup1\n      0x70a08231\n      eq\n      tag_11\n      jumpi\n      jump(tag_2)\n    tag_24:\n      dup1\n      0x06fdde03\n      eq\n      tag_3\n      jumpi\n      dup1\n      0x095ea7b3\n      eq\n      tag_4\n      jumpi\n      dup1\n      0x18160ddd\n      eq\n      tag_5\n      jumpi\n      dup1\n      0x23b872dd\n      eq\n      tag_6\n      jumpi\n    tag_2:\n      0x00\n      dup1\n      revert\n        /* \"ERC20.sol\":2288:2386  function name() public view virtual override returns (string memory) {... */\n    tag_3:\n      tag_25\n      tag_26\n      jump\t// in\n    tag_25:\n      mload(0x40)\n      tag_27\n      swap2\n      swap1\n      tag_28\n      jump\t// in\n    tag_27:\n      mload(0x40)\n      dup1\n      swap2\n      sub\n      swap1\n      return\n        /* \"ERC20.sol\":4398:4564  function approve(address spender, uint256 amount) public virtual override returns (bool) {... */\n    tag_4:\n      tag_29\n      0x04\n      dup1\n      calldatasize\n      sub\n      dup2\n      add\n      swap1\n      tag_30\n      swap2\n      swap1\n      tag_31\n      jump\t// in\n    tag_30:\n      tag_32\n      jump\t// in\n    tag_29:\n      mload(0x40)\n      tag_33\n      swap2\n      swap1\n      tag_34\n      jump\t// in\n    tag_33:\n      mload(0x40)\n      dup1\n      swap2\n      sub\n      swap1\n      return\n        /* \"ERC20.sol\":3376:3482  function totalSupply() public view virtual override returns (uint256) {... */\n    tag_5:\n      tag_35\n      tag_36\n      jump\t// in\n    tag_35:\n      mload(0x40)\n      tag_37\n      swap2\n      swap1\n      tag_38\n      jump\t// in\n    tag_37:\n      mload(0x40)\n      dup1\n      swap2\n      sub\n      swap1\n      return\n        /* \"ERC20.sol\":5031:5522  function transferFrom(... */\n    tag_6:\n      tag_39\n      0x04\n      dup1\n      calldatasize\n      sub\n      dup2\n      add\n      swap1\n      tag_40\n      swap2\n      swap1\n      tag_41\n      jump\t// in\n    tag_40:\n      tag_42\n      jump\t// in\n    tag_39:\n      mload(0x40)\n      tag_43\n      swap2\n      swap1\n      tag_34\n      jump\t// in\n    tag_43:\n      mload(0x40)\n      dup1\n      swap2\n      sub\n      swap1\n      return\n        /* \"Baton.sol\":1688:1792  function scepterTotalSupply() external view returns (uint256){\r... */\n    tag_7:\n      tag_44\n      tag_45\n      jump\t// in\n    tag_44:\n      mload(0x40)\n      tag_46\n      swap2\n      swap1\n      tag_38\n      jump\t// in\n    tag_46:\n      mload(0x40)\n      dup1\n      swap2\n      sub\n      swap1\n      return\n        /* \"ERC20.sol\":3225:3316  function decimals() public view virtual override returns (uint8) {... */\n    tag_8:\n      tag_47\n      tag_48\n      jump\t// in\n    tag_47:\n      mload(0x40)\n      tag_49\n      swap2\n      swap1\n      tag_50\n      jump\t// in\n    tag_49:\n      mload(0x40)\n      dup1\n      swap2\n      sub\n      swap1\n      return\n        /* \"ERC20.sol\":5917:6129  function increaseAllowance(address spender, uint256 addedValue) public virtual returns (bool) {... */\n    tag_9:\n      tag_51\n      0x04\n      dup1\n      calldatasize\n      sub\n      dup2\n      add\n      swap1\n      tag_52\n      swap2\n      swap1\n      tag_31\n      jump\t// in\n    tag_52:\n      tag_53\n      jump\t// in\n    tag_51:\n      mload(0x40)\n      tag_54\n      swap2\n      swap1\n      tag_34\n      jump\t// in\n    tag_54:\n      mload(0x40)\n      dup1\n      swap2\n      sub\n      swap1\n      return\n        /* \"Baton.sol\":592:751  function mint(address to, uint256 amount) external {\r... */\n    tag_10:\n      tag_55\n      0x04\n      dup1\n      calldatasize\n      sub\n      dup2\n      add\n      swap1\n      tag_56\n      swap2\n      swap1\n      tag_31\n      jump\t// in\n    tag_56:\n      tag_57\n      jump\t// in\n    tag_55:\n      stop\n        /* \"ERC20.sol\":3540:3665  function balanceOf(address account) public view virtual override returns (uint256) {... */\n    tag_11:\n      tag_58\n      0x04\n      dup1\n      calldatasize\n      sub\n      dup2\n      add\n      swap1\n      tag_59\n      swap2\n      swap1\n      tag_60\n      jump\t// in\n    tag_59:\n      tag_61\n      jump\t// in\n    tag_58:\n      mload(0x40)\n      tag_62\n      swap2\n      swap1\n      tag_38\n      jump\t// in\n    tag_62:\n      mload(0x40)\n      dup1\n      swap2\n      sub\n      swap1\n      return\n        /* \"Ownable.sol\":1661:1762  function renounceOwnership() public virtual onlyOwner {... */\n    tag_12:\n      tag_63\n      tag_64\n      jump\t// in\n    tag_63:\n      stop\n        /* \"Ownable.sol\":1029:1114  function owner() public view virtual returns (address) {... */\n    tag_13:\n      tag_65\n      tag_66\n      jump\t// in\n    tag_65:\n      mload(0x40)\n      tag_67\n      swap2\n      swap1\n      tag_68\n      jump\t// in\n    tag_67:\n      mload(0x40)\n      dup1\n      swap2\n      sub\n      swap1\n      return\n        /* \"ERC20.sol\":2499:2601  function symbol() public view virtual override returns (string memory) {... */\n    tag_14:\n      tag_69\n      tag_70\n      jump\t// in\n    tag_69:\n      mload(0x40)\n      tag_71\n      swap2\n      swap1\n      tag_28\n      jump\t// in\n    tag_71:\n      mload(0x40)\n      dup1\n      swap2\n      sub\n      swap1\n      return\n        /* \"Baton.sol\":1055:1218  function burn(address from, uint256 amount) external {\r... */\n    tag_15:\n      tag_72\n      0x04\n      dup1\n      calldatasize\n      sub\n      dup2\n      add\n      swap1\n      tag_73\n      swap2\n      swap1\n      tag_31\n      jump\t// in\n    tag_73:\n      tag_74\n      jump\t// in\n    tag_72:\n      stop\n        /* \"ERC20.sol\":6616:7021  function decreaseAllowance(address spender, uint256 subtractedValue) public virtual returns (bool) {... */\n    tag_16:\n      tag_75\n      0x04\n      dup1\n      calldatasize\n      sub\n      dup2\n      add\n      swap1\n      tag_76\n      swap2\n      swap1\n      tag_31\n      jump\t// in\n    tag_76:\n      tag_77\n      jump\t// in\n    tag_75:\n      mload(0x40)\n      tag_78\n      swap2\n      swap1\n      tag_34\n      jump\t// in\n    tag_78:\n      mload(0x40)\n      dup1\n      swap2\n      sub\n      swap1\n      return\n        /* \"Baton.sol\":1332:1443  function addController(address controller) external onlyOwner {\r... */\n    tag_17:\n      tag_79\n      0x04\n      dup1\n      calldatasize\n      sub\n      dup2\n      add\n      swap1\n      tag_80\n      swap2\n      swap1\n      tag_60\n      jump\t// in\n    tag_80:\n      tag_81\n      jump\t// in\n    tag_79:\n      stop\n        /* \"ERC20.sol\":3868:4053  function transfer(address recipient, uint256 amount) public virtual override onlyApproved returns (bool) {... */\n    tag_18:\n      tag_82\n      0x04\n      dup1\n      calldatasize\n      sub\n      dup2\n      add\n      swap1\n      tag_83\n      swap2\n      swap1\n      tag_31\n      jump\t// in\n    tag_83:\n      tag_84\n      jump\t// in\n    tag_82:\n      mload(0x40)\n      tag_85\n      swap2\n      swap1\n      tag_34\n      jump\t// in\n    tag_85:\n      mload(0x40)\n      dup1\n      swap2\n      sub\n      swap1\n      return\n        /* \"ERC20.sol\":4111:4260  function allowance(address owner, address spender) public view virtual override returns (uint256) {... */\n    tag_19:\n      tag_86\n      0x04\n      dup1\n      calldatasize\n      sub\n      dup2\n      add\n      swap1\n      tag_87\n      swap2\n      swap1\n      tag_88\n      jump\t// in\n    tag_87:\n      tag_89\n      jump\t// in\n    tag_86:\n      mload(0x40)\n      tag_90\n      swap2\n      swap1\n      tag_38\n      jump\t// in\n    tag_90:\n      mload(0x40)\n      dup1\n      swap2\n      sub\n      swap1\n      return\n        /* \"Ownable.sol\":1911:2109  function transferOwnership(address newOwner) public virtual onlyOwner {... */\n    tag_20:\n      tag_91\n      0x04\n      dup1\n      calldatasize\n      sub\n      dup2\n      add\n      swap1\n      tag_92\n      swap2\n      swap1\n      tag_60\n      jump\t// in\n    tag_92:\n      tag_93\n      jump\t// in\n    tag_91:\n      stop\n        /* \"Baton.sol\":1567:1682  function removeController(address controller) external onlyOwner {\r... */\n    tag_21:\n      tag_94\n      0x04\n      dup1\n      calldatasize\n      sub\n      dup2\n      add\n      swap1\n      tag_95\n      swap2\n      swap1\n      tag_60\n      jump\t// in\n    tag_95:\n      tag_96\n      jump\t// in\n    tag_94:\n      stop\n        /* \"ERC20.sol\":2288:2386  function name() public view virtual override returns (string memory) {... */\n    tag_26:\n        /* \"ERC20.sol\":2342:2355  string memory */\n      0x60\n        /* \"ERC20.sol\":2374:2379  _name */\n      0x03\n        /* \"ERC20.sol\":2367:2379  return _name */\n      dup1\n      sload\n      tag_98\n      swap1\n      tag_99\n      jump\t// in\n    tag_98:\n      dup1\n      0x1f\n      add\n      0x20\n      dup1\n      swap2\n      div\n      mul\n      0x20\n      add\n      mload(0x40)\n      swap1\n      dup2\n      add\n      0x40\n      mstore\n      dup1\n      swap3\n      swap2\n      swap1\n      dup2\n      dup2\n      mstore\n      0x20\n      add\n      dup3\n      dup1\n      sload\n      tag_100\n      swap1\n      tag_99\n      jump\t// in\n    tag_100:\n      dup1\n      iszero\n      tag_101\n      jumpi\n      dup1\n      0x1f\n      lt\n      tag_102\n      jumpi\n      0x0100\n      dup1\n      dup4\n      sload\n      div\n      mul\n      dup4\n      mstore\n      swap2\n      0x20\n      add\n      swap2\n      jump(tag_101)\n    tag_102:\n      dup3\n      add\n      swap2\n      swap1\n      0x00\n      mstore\n      keccak256(0x00, 0x20)\n      swap1\n    tag_103:\n      dup2\n      sload\n      dup2\n      mstore\n      swap1\n      0x01\n      add\n      swap1\n      0x20\n      add\n      dup1\n      dup4\n      gt\n      tag_103\n      jumpi\n      dup3\n      swap1\n      sub\n      0x1f\n      and\n      dup3\n      add\n      swap2\n    tag_101:\n      pop\n      pop\n      pop\n      pop\n      pop\n      swap1\n      pop\n        /* \"ERC20.sol\":2288:2386  function name() public view virtual override returns (string memory) {... */\n      swap1\n      jump\t// out\n        /* \"ERC20.sol\":4398:4564  function approve(address spender, uint256 amount) public virtual override returns (bool) {... */\n    tag_32:\n        /* \"ERC20.sol\":4481:4485  bool */\n      0x00\n        /* \"ERC20.sol\":4497:4536  _approve(_msgSender(), spender, amount) */\n      tag_105\n        /* \"ERC20.sol\":4506:4518  _msgSender() */\n      tag_106\n        /* \"ERC20.sol\":4506:4516  _msgSender */\n      tag_107\n        /* \"ERC20.sol\":4506:4518  _msgSender() */\n      jump\t// in\n    tag_106:\n        /* \"ERC20.sol\":4520:4527  spender */\n      dup5\n        /* \"ERC20.sol\":4529:4535  amount */\n      dup5\n        /* \"ERC20.sol\":4497:4505  _approve */\n      tag_108\n        /* \"ERC20.sol\":4497:4536  _approve(_msgSender(), spender, amount) */\n      jump\t// in\n    tag_105:\n        /* \"ERC20.sol\":4553:4557  true */\n      0x01\n        /* \"ERC20.sol\":4546:4557  return true */\n      swap1\n      pop\n        /* \"ERC20.sol\":4398:4564  function approve(address spender, uint256 amount) public virtual override returns (bool) {... */\n      swap3\n      swap2\n      pop\n      pop\n      jump\t// out\n        /* \"ERC20.sol\":3376:3482  function totalSupply() public view virtual override returns (uint256) {... */\n    tag_36:\n        /* \"ERC20.sol\":3437:3444  uint256 */\n      0x00\n        /* \"ERC20.sol\":3463:3475  _totalSupply */\n      sload(0x02)\n        /* \"ERC20.sol\":3456:3475  return _totalSupply */\n      swap1\n      pop\n        /* \"ERC20.sol\":3376:3482  function totalSupply() public view virtual override returns (uint256) {... */\n      swap1\n      jump\t// out\n        /* \"ERC20.sol\":5031:5522  function transferFrom(... */\n    tag_42:\n        /* \"ERC20.sol\":5180:5184  bool */\n      0x00\n        /* \"ERC20.sol\":2164:2182  approvedTransferor */\n      0x05\n      0x00\n      swap1\n      sload\n      swap1\n      0x0100\n      exp\n      swap1\n      div\n      0xffffffffffffffffffffffffffffffffffffffff\n      and\n        /* \"ERC20.sol\":2150:2182  msg.sender == approvedTransferor */\n      0xffffffffffffffffffffffffffffffffffffffff\n      and\n        /* \"ERC20.sol\":2150:2160  msg.sender */\n      caller\n        /* \"ERC20.sol\":2150:2182  msg.sender == approvedTransferor */\n      0xffffffffffffffffffffffffffffffffffffffff\n      and\n      eq\n        /* \"ERC20.sol\":2142:2208  require(msg.sender == approvedTransferor, \"Not Approved to do so\") */\n      tag_111\n      jumpi\n      mload(0x40)\n      0x08c379a000000000000000000000000000000000000000000000000000000000\n      dup2\n      mstore\n      0x04\n      add\n      tag_112\n      swap1\n      tag_113\n      jump\t// in\n    tag_112:\n      mload(0x40)\n      dup1\n      swap2\n      sub\n      swap1\n      revert\n    tag_111:\n        /* \"ERC20.sol\":5196:5232  _transfer(sender, recipient, amount) */\n      tag_115\n        /* \"ERC20.sol\":5206:5212  sender */\n      dup5\n        /* \"ERC20.sol\":5214:5223  recipient */\n      dup5\n        /* \"ERC20.sol\":5225:5231  amount */\n      dup5\n        /* \"ERC20.sol\":5196:5205  _transfer */\n      tag_116\n        /* \"ERC20.sol\":5196:5232  _transfer(sender, recipient, amount) */\n      jump\t// in\n    tag_115:\n        /* \"ERC20.sol\":5243:5267  uint256 currentAllowance */\n      0x00\n        /* \"ERC20.sol\":5270:5281  _allowances */\n      0x01\n        /* \"ERC20.sol\":5270:5289  _allowances[sender] */\n      0x00\n        /* \"ERC20.sol\":5282:5288  sender */\n      dup7\n        /* \"ERC20.sol\":5270:5289  _allowances[sender] */\n      0xffffffffffffffffffffffffffffffffffffffff\n      and\n      0xffffffffffffffffffffffffffffffffffffffff\n      and\n      dup2\n      mstore\n      0x20\n      add\n      swap1\n      dup2\n      mstore\n      0x20\n      add\n      0x00\n      keccak256\n        /* \"ERC20.sol\":5270:5303  _allowances[sender][_msgSender()] */\n      0x00\n        /* \"ERC20.sol\":5290:5302  _msgSender() */\n      tag_117\n        /* \"ERC20.sol\":5290:5300  _msgSender */\n      tag_107\n        /* \"ERC20.sol\":5290:5302  _msgSender() */\n      jump\t// in\n    tag_117:\n        /* \"ERC20.sol\":5270:5303  _allowances[sender][_msgSender()] */\n      0xffffffffffffffffffffffffffffffffffffffff\n      and\n      0xffffffffffffffffffffffffffffffffffffffff\n      and\n      dup2\n      mstore\n      0x20\n      add\n      swap1\n      dup2\n      mstore\n      0x20\n      add\n      0x00\n      keccak256\n      sload\n        /* \"ERC20.sol\":5243:5303  uint256 currentAllowance = _allowances[sender][_msgSender()] */\n      swap1\n      pop\n        /* \"ERC20.sol\":5341:5347  amount */\n      dup3\n        /* \"ERC20.sol\":5321:5337  currentAllowance */\n      dup2\n        /* \"ERC20.sol\":5321:5347  currentAllowance >= amount */\n      lt\n      iszero\n        /* \"ERC20.sol\":5313:5392  require(currentAllowance >= amount, \"ERC20: transfer amount exceeds allowance\") */\n      tag_118\n      jumpi\n      mload(0x40)\n      0x08c379a000000000000000000000000000000000000000000000000000000000\n      dup2\n      mstore\n      0x04\n      add\n      tag_119\n      swap1\n      tag_120\n      jump\t// in\n    tag_119:\n      mload(0x40)\n      dup1\n      swap2\n      sub\n      swap1\n      revert\n    tag_118:\n        /* \"ERC20.sol\":5426:5483  _approve(sender, _msgSender(), currentAllowance - amount) */\n      tag_121\n        /* \"ERC20.sol\":5435:5441  sender */\n      dup6\n        /* \"ERC20.sol\":5443:5455  _msgSender() */\n      tag_122\n        /* \"ERC20.sol\":5443:5453  _msgSender */\n      tag_107\n        /* \"ERC20.sol\":5443:5455  _msgSender() */\n      jump\t// in\n    tag_122:\n        /* \"ERC20.sol\":5476:5482  amount */\n      dup6\n        /* \"ERC20.sol\":5457:5473  currentAllowance */\n      dup5\n        /* \"ERC20.sol\":5457:5482  currentAllowance - amount */\n      sub\n        /* \"ERC20.sol\":5426:5434  _approve */\n      tag_108\n        /* \"ERC20.sol\":5426:5483  _approve(sender, _msgSender(), currentAllowance - amount) */\n      jump\t// in\n    tag_121:\n        /* \"ERC20.sol\":5511:5515  true */\n      0x01\n        /* \"ERC20.sol\":5504:5515  return true */\n      swap2\n      pop\n      pop\n        /* \"ERC20.sol\":5031:5522  function transferFrom(... */\n      swap4\n      swap3\n      pop\n      pop\n      pop\n      jump\t// out\n        /* \"Baton.sol\":1688:1792  function scepterTotalSupply() external view returns (uint256){\r... */\n    tag_45:\n        /* \"Baton.sol\":1741:1748  uint256 */\n      0x00\n        /* \"Baton.sol\":1766:1770  this */\n      address\n        /* \"Baton.sol\":1766:1782  this.totalSupply */\n      0xffffffffffffffffffffffffffffffffffffffff\n      and\n      0x18160ddd\n        /* \"Baton.sol\":1766:1784  this.totalSupply() */\n      mload(0x40)\n      dup2\n      0xffffffff\n      and\n      0xe0\n      shl\n      dup2\n      mstore\n      0x04\n      add\n      0x20\n      mload(0x40)\n      dup1\n      dup4\n      sub\n      dup2\n      dup7\n      dup1\n      extcodesize\n      iszero\n      dup1\n      iszero\n      tag_124\n      jumpi\n      0x00\n      dup1\n      revert\n    tag_124:\n      pop\n      gas\n      staticcall\n      iszero\n      dup1\n      iszero\n      tag_126\n      jumpi\n      returndatasize\n      0x00\n      dup1\n      returndatacopy\n      revert(0x00, returndatasize)\n    tag_126:\n      pop\n      pop\n      pop\n      pop\n      mload(0x40)\n      returndatasize\n      not(0x1f)\n      0x1f\n      dup3\n      add\n      and\n      dup3\n      add\n      dup1\n      0x40\n      mstore\n      pop\n      dup2\n      add\n      swap1\n      tag_127\n      swap2\n      swap1\n      tag_128\n      jump\t// in\n    tag_127:\n        /* \"Baton.sol\":1759:1784  return this.totalSupply() */\n      swap1\n      pop\n        /* \"Baton.sol\":1688:1792  function scepterTotalSupply() external view returns (uint256){\r... */\n      swap1\n      jump\t// out\n        /* \"ERC20.sol\":3225:3316  function decimals() public view virtual override returns (uint8) {... */\n    tag_48:\n        /* \"ERC20.sol\":3283:3288  uint8 */\n      0x00\n        /* \"ERC20.sol\":3307:3309  18 */\n      0x12\n        /* \"ERC20.sol\":3300:3309  return 18 */\n      swap1\n      pop\n        /* \"ERC20.sol\":3225:3316  function decimals() public view virtual override returns (uint8) {... */\n      swap1\n      jump\t// out\n        /* \"ERC20.sol\":5917:6129  function increaseAllowance(address spender, uint256 addedValue) public virtual returns (bool) {... */\n    tag_53:\n        /* \"ERC20.sol\":6005:6009  bool */\n      0x00\n        /* \"ERC20.sol\":6021:6101  _approve(_msgSender(), spender, _allowances[_msgSender()][spender] + addedValue) */\n      tag_131\n        /* \"ERC20.sol\":6030:6042  _msgSender() */\n      tag_132\n        /* \"ERC20.sol\":6030:6040  _msgSender */\n      tag_107\n        /* \"ERC20.sol\":6030:6042  _msgSender() */\n      jump\t// in\n    tag_132:\n        /* \"ERC20.sol\":6044:6051  spender */\n      dup5\n        /* \"ERC20.sol\":6090:6100  addedValue */\n      dup5\n        /* \"ERC20.sol\":6053:6064  _allowances */\n      0x01\n        /* \"ERC20.sol\":6053:6078  _allowances[_msgSender()] */\n      0x00\n        /* \"ERC20.sol\":6065:6077  _msgSender() */\n      tag_133\n        /* \"ERC20.sol\":6065:6075  _msgSender */\n      tag_107\n        /* \"ERC20.sol\":6065:6077  _msgSender() */\n      jump\t// in\n    tag_133:\n        /* \"ERC20.sol\":6053:6078  _allowances[_msgSender()] */\n      0xffffffffffffffffffffffffffffffffffffffff\n      and\n      0xffffffffffffffffffffffffffffffffffffffff\n      and\n      dup2\n      mstore\n      0x20\n      add\n      swap1\n      dup2\n      mstore\n      0x20\n      add\n      0x00\n      keccak256\n        /* \"ERC20.sol\":6053:6087  _allowances[_msgSender()][spender] */\n      0x00\n        /* \"ERC20.sol\":6079:6086  spender */\n      dup9\n        /* \"ERC20.sol\":6053:6087  _allowances[_msgSender()][spender] */\n      0xffffffffffffffffffffffffffffffffffffffff\n      and\n      0xffffffffffffffffffffffffffffffffffffffff\n      and\n      dup2\n      mstore\n      0x20\n      add\n      swap1\n      dup2\n      mstore\n      0x20\n      add\n      0x00\n      keccak256\n      sload\n        /* \"ERC20.sol\":6053:6100  _allowances[_msgSender()][spender] + addedValue */\n      tag_134\n      swap2\n      swap1\n      tag_135\n      jump\t// in\n    tag_134:\n        /* \"ERC20.sol\":6021:6029  _approve */\n      tag_108\n        /* \"ERC20.sol\":6021:6101  _approve(_msgSender(), spender, _allowances[_msgSender()][spender] + addedValue) */\n      jump\t// in\n    tag_131:\n        /* \"ERC20.sol\":6118:6122  true */\n      0x01\n        /* \"ERC20.sol\":6111:6122  return true */\n      swap1\n      pop\n        /* \"ERC20.sol\":5917:6129  function increaseAllowance(address spender, uint256 addedValue) public virtual returns (bool) {... */\n      swap3\n      swap2\n      pop\n      pop\n      jump\t// out\n        /* \"Baton.sol\":592:751  function mint(address to, uint256 amount) external {\r... */\n    tag_57:\n        /* \"Baton.sol\":662:673  controllers */\n      0x07\n        /* \"Baton.sol\":662:685  controllers[msg.sender] */\n      0x00\n        /* \"Baton.sol\":674:684  msg.sender */\n      caller\n        /* \"Baton.sol\":662:685  controllers[msg.sender] */\n      0xffffffffffffffffffffffffffffffffffffffff\n      and\n      0xffffffffffffffffffffffffffffffffffffffff\n      and\n      dup2\n      mstore\n      0x20\n      add\n      swap1\n      dup2\n      mstore\n      0x20\n      add\n      0x00\n      keccak256\n      0x00\n      swap1\n      sload\n      swap1\n      0x0100\n      exp\n      swap1\n      div\n      0xff\n      and\n        /* \"Baton.sol\":654:715  require(controllers[msg.sender], \"Only controllers can mint\") */\n      tag_137\n      jumpi\n      mload(0x40)\n      0x08c379a000000000000000000000000000000000000000000000000000000000\n      dup2\n      mstore\n      0x04\n      add\n      tag_138\n      swap1\n      tag_139\n      jump\t// in\n    tag_138:\n      mload(0x40)\n      dup1\n      swap2\n      sub\n      swap1\n      revert\n    tag_137:\n        /* \"Baton.sol\":726:743  _mint(to, amount) */\n      tag_140\n        /* \"Baton.sol\":732:734  to */\n      dup3\n        /* \"Baton.sol\":736:742  amount */\n      dup3\n        /* \"Baton.sol\":726:731  _mint */\n      tag_141\n        /* \"Baton.sol\":726:743  _mint(to, amount) */\n      jump\t// in\n    tag_140:\n        /* \"Baton.sol\":592:751  function mint(address to, uint256 amount) external {\r... */\n      pop\n      pop\n      jump\t// out\n        /* \"ERC20.sol\":3540:3665  function balanceOf(address account) public view virtual override returns (uint256) {... */\n    tag_61:\n        /* \"ERC20.sol\":3614:3621  uint256 */\n      0x00\n        /* \"ERC20.sol\":3640:3649  _balances */\n      dup1\n        /* \"ERC20.sol\":3640:3658  _balances[account] */\n      0x00\n        /* \"ERC20.sol\":3650:3657  account */\n      dup4\n        /* \"ERC20.sol\":3640:3658  _balances[account] */\n      0xffffffffffffffffffffffffffffffffffffffff\n      and\n      0xffffffffffffffffffffffffffffffffffffffff\n      and\n      dup2\n      mstore\n      0x20\n      add\n      swap1\n      dup2\n      mstore\n      0x20\n      add\n      0x00\n      keccak256\n      sload\n        /* \"ERC20.sol\":3633:3658  return _balances[account] */\n      swap1\n      pop\n        /* \"ERC20.sol\":3540:3665  function balanceOf(address account) public view virtual override returns (uint256) {... */\n      swap2\n      swap1\n      pop\n      jump\t// out\n        /* \"Ownable.sol\":1661:1762  function renounceOwnership() public virtual onlyOwner {... */\n    tag_64:\n        /* \"Ownable.sol\":1252:1264  _msgSender() */\n      tag_144\n        /* \"Ownable.sol\":1252:1262  _msgSender */\n      tag_107\n        /* \"Ownable.sol\":1252:1264  _msgSender() */\n      jump\t// in\n    tag_144:\n        /* \"Ownable.sol\":1241:1264  owner() == _msgSender() */\n      0xffffffffffffffffffffffffffffffffffffffff\n      and\n        /* \"Ownable.sol\":1241:1248  owner() */\n      tag_145\n        /* \"Ownable.sol\":1241:1246  owner */\n      tag_66\n        /* \"Ownable.sol\":1241:1248  owner() */\n      jump\t// in\n    tag_145:\n        /* \"Ownable.sol\":1241:1264  owner() == _msgSender() */\n      0xffffffffffffffffffffffffffffffffffffffff\n      and\n      eq\n        /* \"Ownable.sol\":1233:1301  require(owner() == _msgSender(), \"Ownable: caller is not the owner\") */\n      tag_146\n      jumpi\n      mload(0x40)\n      0x08c379a000000000000000000000000000000000000000000000000000000000\n      dup2\n      mstore\n      0x04\n      add\n      tag_147\n      swap1\n      tag_148\n      jump\t// in\n    tag_147:\n      mload(0x40)\n      dup1\n      swap2\n      sub\n      swap1\n      revert\n    tag_146:\n        /* \"Ownable.sol\":1725:1755  _transferOwnership(address(0)) */\n      tag_150\n        /* \"Ownable.sol\":1752:1753  0 */\n      0x00\n        /* \"Ownable.sol\":1725:1743  _transferOwnership */\n      tag_151\n        /* \"Ownable.sol\":1725:1755  _transferOwnership(address(0)) */\n      jump\t// in\n    tag_150:\n        /* \"Ownable.sol\":1661:1762  function renounceOwnership() public virtual onlyOwner {... */\n      jump\t// out\n        /* \"Ownable.sol\":1029:1114  function owner() public view virtual returns (address) {... */\n    tag_66:\n        /* \"Ownable.sol\":1075:1082  address */\n      0x00\n        /* \"Ownable.sol\":1101:1107  _owner */\n      0x06\n      0x00\n      swap1\n      sload\n      swap1\n      0x0100\n      exp\n      swap1\n      div\n      0xffffffffffffffffffffffffffffffffffffffff\n      and\n        /* \"Ownable.sol\":1094:1107  return _owner */\n      swap1\n      pop\n        /* \"Ownable.sol\":1029:1114  function owner() public view virtual returns (address) {... */\n      swap1\n      jump\t// out\n        /* \"ERC20.sol\":2499:2601  function symbol() public view virtual override returns (string memory) {... */\n    tag_70:\n        /* \"ERC20.sol\":2555:2568  string memory */\n      0x60\n        /* \"ERC20.sol\":2587:2594  _symbol */\n      0x04\n        /* \"ERC20.sol\":2580:2594  return _symbol */\n      dup1\n      sload\n      tag_154\n      swap1\n      tag_99\n      jump\t// in\n    tag_154:\n      dup1\n      0x1f\n      add\n      0x20\n      dup1\n      swap2\n      div\n      mul\n      0x20\n      add\n      mload(0x40)\n      swap1\n      dup2\n      add\n      0x40\n      mstore\n      dup1\n      swap3\n      swap2\n      swap1\n      dup2\n      dup2\n      mstore\n      0x20\n      add\n      dup3\n      dup1\n      sload\n      tag_155\n      swap1\n      tag_99\n      jump\t// in\n    tag_155:\n      dup1\n      iszero\n      tag_156\n      jumpi\n      dup1\n      0x1f\n      lt\n      tag_157\n      jumpi\n      0x0100\n      dup1\n      dup4\n      sload\n      div\n      mul\n      dup4\n      mstore\n      swap2\n      0x20\n      add\n      swap2\n      jump(tag_156)\n    tag_157:\n      dup3\n      add\n      swap2\n      swap1\n      0x00\n      mstore\n      keccak256(0x00, 0x20)\n      swap1\n    tag_158:\n      dup2\n      sload\n      dup2\n      mstore\n      swap1\n      0x01\n      add\n      swap1\n      0x20\n      add\n      dup1\n      dup4\n      gt\n      tag_158\n      jumpi\n      dup3\n      swap1\n      sub\n      0x1f\n      and\n      dup3\n      add\n      swap2\n    tag_156:\n      pop\n      pop\n      pop\n      pop\n      pop\n      swap1\n      pop\n        /* \"ERC20.sol\":2499:2601  function symbol() public view virtual override returns (string memory) {... */\n      swap1\n      jump\t// out\n        /* \"Baton.sol\":1055:1218  function burn(address from, uint256 amount) external {\r... */\n    tag_74:\n        /* \"Baton.sol\":1127:1138  controllers */\n      0x07\n        /* \"Baton.sol\":1127:1150  controllers[msg.sender] */\n      0x00\n        /* \"Baton.sol\":1139:1149  msg.sender */\n      caller\n        /* \"Baton.sol\":1127:1150  controllers[msg.sender] */\n      0xffffffffffffffffffffffffffffffffffffffff\n      and\n      0xffffffffffffffffffffffffffffffffffffffff\n      and\n      dup2\n      mstore\n      0x20\n      add\n      swap1\n      dup2\n      mstore\n      0x20\n      add\n      0x00\n      keccak256\n      0x00\n      swap1\n      sload\n      swap1\n      0x0100\n      exp\n      swap1\n      div\n      0xff\n      and\n        /* \"Baton.sol\":1119:1180  require(controllers[msg.sender], \"Only controllers can burn\") */\n      tag_160\n      jumpi\n      mload(0x40)\n      0x08c379a000000000000000000000000000000000000000000000000000000000\n      dup2\n      mstore\n      0x04\n      add\n      tag_161\n      swap1\n      tag_162\n      jump\t// in\n    tag_161:\n      mload(0x40)\n      dup1\n      swap2\n      sub\n      swap1\n      revert\n    tag_160:\n        /* \"Baton.sol\":1191:1210  _burn(from, amount) */\n      tag_163\n        /* \"Baton.sol\":1197:1201  from */\n      dup3\n        /* \"Baton.sol\":1203:1209  amount */\n      dup3\n        /* \"Baton.sol\":1191:1196  _burn */\n      tag_164\n        /* \"Baton.sol\":1191:1210  _burn(from, amount) */\n      jump\t// in\n    tag_163:\n        /* \"Baton.sol\":1055:1218  function burn(address from, uint256 amount) external {\r... */\n      pop\n      pop\n      jump\t// out\n        /* \"ERC20.sol\":6616:7021  function decreaseAllowance(address spender, uint256 subtractedValue) public virtual returns (bool) {... */\n    tag_77:\n        /* \"ERC20.sol\":6709:6713  bool */\n      0x00\n        /* \"ERC20.sol\":6725:6749  uint256 currentAllowance */\n      dup1\n        /* \"ERC20.sol\":6752:6763  _allowances */\n      0x01\n        /* \"ERC20.sol\":6752:6777  _allowances[_msgSender()] */\n      0x00\n        /* \"ERC20.sol\":6764:6776  _msgSender() */\n      tag_166\n        /* \"ERC20.sol\":6764:6774  _msgSender */\n      tag_107\n        /* \"ERC20.sol\":6764:6776  _msgSender() */\n      jump\t// in\n    tag_166:\n        /* \"ERC20.sol\":6752:6777  _allowances[_msgSender()] */\n      0xffffffffffffffffffffffffffffffffffffffff\n      and\n      0xffffffffffffffffffffffffffffffffffffffff\n      and\n      dup2\n      mstore\n      0x20\n      add\n      swap1\n      dup2\n      mstore\n      0x20\n      add\n      0x00\n      keccak256\n        /* \"ERC20.sol\":6752:6786  _allowances[_msgSender()][spender] */\n      0x00\n        /* \"ERC20.sol\":6778:6785  spender */\n      dup6\n        /* \"ERC20.sol\":6752:6786  _allowances[_msgSender()][spender] */\n      0xffffffffffffffffffffffffffffffffffffffff\n      and\n      0xffffffffffffffffffffffffffffffffffffffff\n      and\n      dup2\n      mstore\n      0x20\n      add\n      swap1\n      dup2\n      mstore\n      0x20\n      add\n      0x00\n      keccak256\n      sload\n        /* \"ERC20.sol\":6725:6786  uint256 currentAllowance = _allowances[_msgSender()][spender] */\n      swap1\n      pop\n        /* \"ERC20.sol\":6824:6839  subtractedValue */\n      dup3\n        /* \"ERC20.sol\":6804:6820  currentAllowance */\n      dup2\n        /* \"ERC20.sol\":6804:6839  currentAllowance >= subtractedValue */\n      lt\n      iszero\n        /* \"ERC20.sol\":6796:6881  require(currentAllowance >= subtractedValue, \"ERC20: decreased allowance below zero\") */\n      tag_167\n      jumpi\n      mload(0x40)\n      0x08c379a000000000000000000000000000000000000000000000000000000000\n      dup2\n      mstore\n      0x04\n      add\n      tag_168\n      swap1\n      tag_169\n      jump\t// in\n    tag_168:\n      mload(0x40)\n      dup1\n      swap2\n      sub\n      swap1\n      revert\n    tag_167:\n        /* \"ERC20.sol\":6915:6982  _approve(_msgSender(), spender, currentAllowance - subtractedValue) */\n      tag_170\n        /* \"ERC20.sol\":6924:6936  _msgSender() */\n      tag_171\n        /* \"ERC20.sol\":6924:6934  _msgSender */\n      tag_107\n        /* \"ERC20.sol\":6924:6936  _msgSender() */\n      jump\t// in\n    tag_171:\n        /* \"ERC20.sol\":6938:6945  spender */\n      dup6\n        /* \"ERC20.sol\":6966:6981  subtractedValue */\n      dup6\n        /* \"ERC20.sol\":6947:6963  currentAllowance */\n      dup5\n        /* \"ERC20.sol\":6947:6981  currentAllowance - subtractedValue */\n      sub\n        /* \"ERC20.sol\":6915:6923  _approve */\n      tag_108\n        /* \"ERC20.sol\":6915:6982  _approve(_msgSender(), spender, currentAllowance - subtractedValue) */\n      jump\t// in\n    tag_170:\n        /* \"ERC20.sol\":7010:7014  true */\n      0x01\n        /* \"ERC20.sol\":7003:7014  return true */\n      swap2\n      pop\n      pop\n        /* \"ERC20.sol\":6616:7021  function decreaseAllowance(address spender, uint256 subtractedValue) public virtual returns (bool) {... */\n      swap3\n      swap2\n      pop\n      pop\n      jump\t// out\n        /* \"Baton.sol\":1332:1443  function addController(address controller) external onlyOwner {\r... */\n    tag_81:\n        /* \"Ownable.sol\":1252:1264  _msgSender() */\n      tag_173\n        /* \"Ownable.sol\":1252:1262  _msgSender */\n      tag_107\n        /* \"Ownable.sol\":1252:1264  _msgSender() */\n      jump\t// in\n    tag_173:\n        /* \"Ownable.sol\":1241:1264  owner() == _msgSender() */\n      0xffffffffffffffffffffffffffffffffffffffff\n      and\n        /* \"Ownable.sol\":1241:1248  owner() */\n      tag_174\n        /* \"Ownable.sol\":1241:1246  owner */\n      tag_66\n        /* \"Ownable.sol\":1241:1248  owner() */\n      jump\t// in\n    tag_174:\n        /* \"Ownable.sol\":1241:1264  owner() == _msgSender() */\n      0xffffffffffffffffffffffffffffffffffffffff\n      and\n      eq\n        /* \"Ownable.sol\":1233:1301  require(owner() == _msgSender(), \"Ownable: caller is not the owner\") */\n      tag_175\n      jumpi\n      mload(0x40)\n      0x08c379a000000000000000000000000000000000000000000000000000000000\n      dup2\n      mstore\n      0x04\n      add\n      tag_176\n      swap1\n      tag_148\n      jump\t// in\n    tag_176:\n      mload(0x40)\n      dup1\n      swap2\n      sub\n      swap1\n      revert\n    tag_175:\n        /* \"Baton.sol\":1431:1435  true */\n      0x01\n        /* \"Baton.sol\":1405:1416  controllers */\n      0x07\n        /* \"Baton.sol\":1405:1428  controllers[controller] */\n      0x00\n        /* \"Baton.sol\":1417:1427  controller */\n      dup4\n        /* \"Baton.sol\":1405:1428  controllers[controller] */\n      0xffffffffffffffffffffffffffffffffffffffff\n      and\n      0xffffffffffffffffffffffffffffffffffffffff\n      and\n      dup2\n      mstore\n      0x20\n      add\n      swap1\n      dup2\n      mstore\n      0x20\n      add\n      0x00\n      keccak256\n      0x00\n        /* \"Baton.sol\":1405:1435  controllers[controller] = true */\n      0x0100\n      exp\n      dup2\n      sload\n      dup2\n      0xff\n      mul\n      not\n      and\n      swap1\n      dup4\n      iszero\n      iszero\n      mul\n      or\n      swap1\n      sstore\n      pop\n        /* \"Baton.sol\":1332:1443  function addController(address controller) external onlyOwner {\r... */\n      pop\n      jump\t// out\n        /* \"ERC20.sol\":3868:4053  function transfer(address recipient, uint256 amount) public virtual override onlyApproved returns (bool) {... */\n    tag_84:\n        /* \"ERC20.sol\":3967:3971  bool */\n      0x00\n        /* \"ERC20.sol\":2164:2182  approvedTransferor */\n      0x05\n      0x00\n      swap1\n      sload\n      swap1\n      0x0100\n      exp\n      swap1\n      div\n      0xffffffffffffffffffffffffffffffffffffffff\n      and\n        /* \"ERC20.sol\":2150:2182  msg.sender == approvedTransferor */\n      0xffffffffffffffffffffffffffffffffffffffff\n      and\n        /* \"ERC20.sol\":2150:2160  msg.sender */\n      caller\n        /* \"ERC20.sol\":2150:2182  msg.sender == approvedTransferor */\n      0xffffffffffffffffffffffffffffffffffffffff\n      and\n      eq\n        /* \"ERC20.sol\":2142:2208  require(msg.sender == approvedTransferor, \"Not Approved to do so\") */\n      tag_179\n      jumpi\n      mload(0x40)\n      0x08c379a000000000000000000000000000000000000000000000000000000000\n      dup2\n      mstore\n      0x04\n      add\n      tag_180\n      swap1\n      tag_113\n      jump\t// in\n    tag_180:\n      mload(0x40)\n      dup1\n      swap2\n      sub\n      swap1\n      revert\n    tag_179:\n        /* \"ERC20.sol\":3983:4025  _transfer(_msgSender(), recipient, amount) */\n      tag_182\n        /* \"ERC20.sol\":3993:4005  _msgSender() */\n      tag_183\n        /* \"ERC20.sol\":3993:4003  _msgSender */\n      tag_107\n        /* \"ERC20.sol\":3993:4005  _msgSender() */\n      jump\t// in\n    tag_183:\n        /* \"ERC20.sol\":4007:4016  recipient */\n      dup5\n        /* \"ERC20.sol\":4018:4024  amount */\n      dup5\n        /* \"ERC20.sol\":3983:3992  _transfer */\n      tag_116\n        /* \"ERC20.sol\":3983:4025  _transfer(_msgSender(), recipient, amount) */\n      jump\t// in\n    tag_182:\n        /* \"ERC20.sol\":4042:4046  true */\n      0x01\n        /* \"ERC20.sol\":4035:4046  return true */\n      swap1\n      pop\n        /* \"ERC20.sol\":3868:4053  function transfer(address recipient, uint256 amount) public virtual override onlyApproved returns (bool) {... */\n      swap3\n      swap2\n      pop\n      pop\n      jump\t// out\n        /* \"ERC20.sol\":4111:4260  function allowance(address owner, address spender) public view virtual override returns (uint256) {... */\n    tag_89:\n        /* \"ERC20.sol\":4200:4207  uint256 */\n      0x00\n        /* \"ERC20.sol\":4226:4237  _allowances */\n      0x01\n        /* \"ERC20.sol\":4226:4244  _allowances[owner] */\n      0x00\n        /* \"ERC20.sol\":4238:4243  owner */\n      dup5\n        /* \"ERC20.sol\":4226:4244  _allowances[owner] */\n      0xffffffffffffffffffffffffffffffffffffffff\n      and\n      0xffffffffffffffffffffffffffffffffffffffff\n      and\n      dup2\n      mstore\n      0x20\n      add\n      swap1\n      dup2\n      mstore\n      0x20\n      add\n      0x00\n      keccak256\n        /* \"ERC20.sol\":4226:4253  _allowances[owner][spender] */\n      0x00\n        /* \"ERC20.sol\":4245:4252  spender */\n      dup4\n        /* \"ERC20.sol\":4226:4253  _allowances[owner][spender] */\n      0xffffffffffffffffffffffffffffffffffffffff\n      and\n      0xffffffffffffffffffffffffffffffffffffffff\n      and\n      dup2\n      mstore\n      0x20\n      add\n      swap1\n      dup2\n      mstore\n      0x20\n      add\n      0x00\n      keccak256\n      sload\n        /* \"ERC20.sol\":4219:4253  return _allowances[owner][spender] */\n      swap1\n      pop\n        /* \"ERC20.sol\":4111:4260  function allowance(address owner, address spender) public view virtual override returns (uint256) {... */\n      swap3\n      swap2\n      pop\n      pop\n      jump\t// out\n        /* \"Ownable.sol\":1911:2109  function transferOwnership(address newOwner) public virtual onlyOwner {... */\n    tag_93:\n        /* \"Ownable.sol\":1252:1264  _msgSender() */\n      tag_186\n        /* \"Ownable.sol\":1252:1262  _msgSender */\n      tag_107\n        /* \"Ownable.sol\":1252:1264  _msgSender() */\n      jump\t// in\n    tag_186:\n        /* \"Ownable.sol\":1241:1264  owner() == _msgSender() */\n      0xffffffffffffffffffffffffffffffffffffffff\n      and\n        /* \"Ownable.sol\":1241:1248  owner() */\n      tag_187\n        /* \"Ownable.sol\":1241:1246  owner */\n      tag_66\n        /* \"Ownable.sol\":1241:1248  owner() */\n      jump\t// in\n    tag_187:\n        /* \"Ownable.sol\":1241:1264  owner() == _msgSender() */\n      0xffffffffffffffffffffffffffffffffffffffff\n      and\n      eq\n        /* \"Ownable.sol\":1233:1301  require(owner() == _msgSender(), \"Ownable: caller is not the owner\") */\n      tag_188\n      jumpi\n      mload(0x40)\n      0x08c379a000000000000000000000000000000000000000000000000000000000\n      dup2\n      mstore\n      0x04\n      add\n      tag_189\n      swap1\n      tag_148\n      jump\t// in\n    tag_189:\n      mload(0x40)\n      dup1\n      swap2\n      sub\n      swap1\n      revert\n    tag_188:\n        /* \"Ownable.sol\":2019:2020  0 */\n      0x00\n        /* \"Ownable.sol\":1999:2021  newOwner != address(0) */\n      0xffffffffffffffffffffffffffffffffffffffff\n      and\n        /* \"Ownable.sol\":1999:2007  newOwner */\n      dup2\n        /* \"Ownable.sol\":1999:2021  newOwner != address(0) */\n      0xffffffffffffffffffffffffffffffffffffffff\n      and\n      eq\n      iszero\n        /* \"Ownable.sol\":1991:2064  require(newOwner != address(0), \"Ownable: new owner is the zero address\") */\n      tag_191\n      jumpi\n      mload(0x40)\n      0x08c379a000000000000000000000000000000000000000000000000000000000\n      dup2\n      mstore\n      0x04\n      add\n      tag_192\n      swap1\n      tag_193\n      jump\t// in\n    tag_192:\n      mload(0x40)\n      dup1\n      swap2\n      sub\n      swap1\n      revert\n    tag_191:\n        /* \"Ownable.sol\":2074:2102  _transferOwnership(newOwner) */\n      tag_194\n        /* \"Ownable.sol\":2093:2101  newOwner */\n      dup2\n        /* \"Ownable.sol\":2074:2092  _transferOwnership */\n      tag_151\n        /* \"Ownable.sol\":2074:2102  _transferOwnership(newOwner) */\n      jump\t// in\n    tag_194:\n        /* \"Ownable.sol\":1911:2109  function transferOwnership(address newOwner) public virtual onlyOwner {... */\n      pop\n      jump\t// out\n        /* \"Baton.sol\":1567:1682  function removeController(address controller) external onlyOwner {\r... */\n    tag_96:\n        /* \"Ownable.sol\":1252:1264  _msgSender() */\n      tag_196\n        /* \"Ownable.sol\":1252:1262  _msgSender */\n      tag_107\n        /* \"Ownable.sol\":1252:1264  _msgSender() */\n      jump\t// in\n    tag_196:\n        /* \"Ownable.sol\":1241:1264  owner() == _msgSender() */\n      0xffffffffffffffffffffffffffffffffffffffff\n      and\n        /* \"Ownable.sol\":1241:1248  owner() */\n      tag_197\n        /* \"Ownable.sol\":1241:1246  owner */\n      tag_66\n        /* \"Ownable.sol\":1241:1248  owner() */\n      jump\t// in\n    tag_197:\n        /* \"Ownable.sol\":1241:1264  owner() == _msgSender() */\n      0xffffffffffffffffffffffffffffffffffffffff\n      and\n      eq\n        /* \"Ownable.sol\":1233:1301  require(owner() == _msgSender(), \"Ownable: caller is not the owner\") */\n      tag_198\n      jumpi\n      mload(0x40)\n      0x08c379a000000000000000000000000000000000000000000000000000000000\n      dup2\n      mstore\n      0x04\n      add\n      tag_199\n      swap1\n      tag_148\n      jump\t// in\n    tag_199:\n      mload(0x40)\n      dup1\n      swap2\n      sub\n      swap1\n      revert\n    tag_198:\n        /* \"Baton.sol\":1669:1674  false */\n      0x00\n        /* \"Baton.sol\":1643:1654  controllers */\n      0x07\n        /* \"Baton.sol\":1643:1666  controllers[controller] */\n      0x00\n        /* \"Baton.sol\":1655:1665  controller */\n      dup4\n        /* \"Baton.sol\":1643:1666  controllers[controller] */\n      0xffffffffffffffffffffffffffffffffffffffff\n      and\n      0xffffffffffffffffffffffffffffffffffffffff\n      and\n      dup2\n      mstore\n      0x20\n      add\n      swap1\n      dup2\n      mstore\n      0x20\n      add\n      0x00\n      keccak256\n      0x00\n        /* \"Baton.sol\":1643:1674  controllers[controller] = false */\n      0x0100\n      exp\n      dup2\n      sload\n      dup2\n      0xff\n      mul\n      not\n      and\n      swap1\n      dup4\n      iszero\n      iszero\n      mul\n      or\n      swap1\n      sstore\n      pop\n        /* \"Baton.sol\":1567:1682  function removeController(address controller) external onlyOwner {\r... */\n      pop\n      jump\t// out\n        /* \"Context.sol\":640:736  function _msgSender() internal view virtual returns (address) {... */\n    tag_107:\n        /* \"Context.sol\":693:700  address */\n      0x00\n        /* \"Context.sol\":719:729  msg.sender */\n      caller\n        /* \"Context.sol\":712:729  return msg.sender */\n      swap1\n      pop\n        /* \"Context.sol\":640:736  function _msgSender() internal view virtual returns (address) {... */\n      swap1\n      jump\t// out\n        /* \"ERC20.sol\":10192:10562  function _approve(... */\n    tag_108:\n        /* \"ERC20.sol\":10340:10341  0 */\n      0x00\n        /* \"ERC20.sol\":10323:10342  owner != address(0) */\n      0xffffffffffffffffffffffffffffffffffffffff\n      and\n        /* \"ERC20.sol\":10323:10328  owner */\n      dup4\n        /* \"ERC20.sol\":10323:10342  owner != address(0) */\n      0xffffffffffffffffffffffffffffffffffffffff\n      and\n      eq\n      iszero\n        /* \"ERC20.sol\":10315:10383  require(owner != address(0), \"ERC20: approve from the zero address\") */\n      tag_203\n      jumpi\n      mload(0x40)\n      0x08c379a000000000000000000000000000000000000000000000000000000000\n      dup2\n      mstore\n      0x04\n      add\n      tag_204\n      swap1\n      tag_205\n      jump\t// in\n    tag_204:\n      mload(0x40)\n      dup1\n      swap2\n      sub\n      swap1\n      revert\n    tag_203:\n        /* \"ERC20.sol\":10420:10421  0 */\n      0x00\n        /* \"ERC20.sol\":10401:10422  spender != address(0) */\n      0xffffffffffffffffffffffffffffffffffffffff\n      and\n        /* \"ERC20.sol\":10401:10408  spender */\n      dup3\n        /* \"ERC20.sol\":10401:10422  spender != address(0) */\n      0xffffffffffffffffffffffffffffffffffffffff\n      and\n      eq\n      iszero\n        /* \"ERC20.sol\":10393:10461  require(spender != address(0), \"ERC20: approve to the zero address\") */\n      tag_206\n      jumpi\n      mload(0x40)\n      0x08c379a000000000000000000000000000000000000000000000000000000000\n      dup2\n      mstore\n      0x04\n      add\n      tag_207\n      swap1\n      tag_208\n      jump\t// in\n    tag_207:\n      mload(0x40)\n      dup1\n      swap2\n      sub\n      swap1\n      revert\n    tag_206:\n        /* \"ERC20.sol\":10502:10508  amount */\n      dup1\n        /* \"ERC20.sol\":10472:10483  _allowances */\n      0x01\n        /* \"ERC20.sol\":10472:10490  _allowances[owner] */\n      0x00\n        /* \"ERC20.sol\":10484:10489  owner */\n      dup6\n        /* \"ERC20.sol\":10472:10490  _allowances[owner] */\n      0xffffffffffffffffffffffffffffffffffffffff\n      and\n      0xffffffffffffffffffffffffffffffffffffffff\n      and\n      dup2\n      mstore\n      0x20\n      add\n      swap1\n      dup2\n      mstore\n      0x20\n      add\n      0x00\n      keccak256\n        /* \"ERC20.sol\":10472:10499  _allowances[owner][spender] */\n      0x00\n        /* \"ERC20.sol\":10491:10498  spender */\n      dup5\n        /* \"ERC20.sol\":10472:10499  _allowances[owner][spender] */\n      0xffffffffffffffffffffffffffffffffffffffff\n      and\n      0xffffffffffffffffffffffffffffffffffffffff\n      and\n      dup2\n      mstore\n      0x20\n      add\n      swap1\n      dup2\n      mstore\n      0x20\n      add\n      0x00\n      keccak256\n        /* \"ERC20.sol\":10472:10508  _allowances[owner][spender] = amount */\n      dup2\n      swap1\n      sstore\n      pop\n        /* \"ERC20.sol\":10539:10546  spender */\n      dup2\n        /* \"ERC20.sol\":10523:10555  Approval(owner, spender, amount) */\n      0xffffffffffffffffffffffffffffffffffffffff\n      and\n        /* \"ERC20.sol\":10532:10537  owner */\n      dup4\n        /* \"ERC20.sol\":10523:10555  Approval(owner, spender, amount) */\n      0xffffffffffffffffffffffffffffffffffffffff\n      and\n      0x8c5be1e5ebec7d5bd14f71427d1e84f3dd0314c0f7b2291e5b200ac8c7c3b925\n        /* \"ERC20.sol\":10548:10554  amount */\n      dup4\n        /* \"ERC20.sol\":10523:10555  Approval(owner, spender, amount) */\n      mload(0x40)\n      tag_209\n      swap2\n      swap1\n      tag_38\n      jump\t// in\n    tag_209:\n      mload(0x40)\n      dup1\n      swap2\n      sub\n      swap1\n      log3\n        /* \"ERC20.sol\":10192:10562  function _approve(... */\n      pop\n      pop\n      pop\n      jump\t// out\n        /* \"ERC20.sol\":7495:8208  function _transfer(... */\n    tag_116:\n        /* \"ERC20.sol\":7648:7649  0 */\n      0x00\n        /* \"ERC20.sol\":7630:7650  sender != address(0) */\n      0xffffffffffffffffffffffffffffffffffffffff\n      and\n        /* \"ERC20.sol\":7630:7636  sender */\n      dup4\n        /* \"ERC20.sol\":7630:7650  sender != address(0) */\n      0xffffffffffffffffffffffffffffffffffffffff\n      and\n      eq\n      iszero\n        /* \"ERC20.sol\":7622:7692  require(sender != address(0), \"ERC20: transfer from the zero address\") */\n      tag_211\n      jumpi\n      mload(0x40)\n      0x08c379a000000000000000000000000000000000000000000000000000000000\n      dup2\n      mstore\n      0x04\n      add\n      tag_212\n      swap1\n      tag_213\n      jump\t// in\n    tag_212:\n      mload(0x40)\n      dup1\n      swap2\n      sub\n      swap1\n      revert\n    tag_211:\n        /* \"ERC20.sol\":7731:7732  0 */\n      0x00\n        /* \"ERC20.sol\":7710:7733  recipient != address(0) */\n      0xffffffffffffffffffffffffffffffffffffffff\n      and\n        /* \"ERC20.sol\":7710:7719  recipient */\n      dup3\n        /* \"ERC20.sol\":7710:7733  recipient != address(0) */\n      0xffffffffffffffffffffffffffffffffffffffff\n      and\n      eq\n      iszero\n        /* \"ERC20.sol\":7702:7773  require(recipient != address(0), \"ERC20: transfer to the zero address\") */\n      tag_214\n      jumpi\n      mload(0x40)\n      0x08c379a000000000000000000000000000000000000000000000000000000000\n      dup2\n      mstore\n      0x04\n      add\n      tag_215\n      swap1\n      tag_216\n      jump\t// in\n    tag_215:\n      mload(0x40)\n      dup1\n      swap2\n      sub\n      swap1\n      revert\n    tag_214:\n        /* \"ERC20.sol\":7784:7831  _beforeTokenTransfer(sender, recipient, amount) */\n      tag_217\n        /* \"ERC20.sol\":7805:7811  sender */\n      dup4\n        /* \"ERC20.sol\":7813:7822  recipient */\n      dup4\n        /* \"ERC20.sol\":7824:7830  amount */\n      dup4\n        /* \"ERC20.sol\":7784:7804  _beforeTokenTransfer */\n      tag_218\n        /* \"ERC20.sol\":7784:7831  _beforeTokenTransfer(sender, recipient, amount) */\n      jump\t// in\n    tag_217:\n        /* \"ERC20.sol\":7842:7863  uint256 senderBalance */\n      0x00\n        /* \"ERC20.sol\":7866:7875  _balances */\n      dup1\n        /* \"ERC20.sol\":7866:7883  _balances[sender] */\n      0x00\n        /* \"ERC20.sol\":7876:7882  sender */\n      dup6\n        /* \"ERC20.sol\":7866:7883  _balances[sender] */\n      0xffffffffffffffffffffffffffffffffffffffff\n      and\n      0xffffffffffffffffffffffffffffffffffffffff\n      and\n      dup2\n      mstore\n      0x20\n      add\n      swap1\n      dup2\n      mstore\n      0x20\n      add\n      0x00\n      keccak256\n      sload\n        /* \"ERC20.sol\":7842:7883  uint256 senderBalance = _balances[sender] */\n      swap1\n      pop\n        /* \"ERC20.sol\":7918:7924  amount */\n      dup2\n        /* \"ERC20.sol\":7901:7914  senderBalance */\n      dup2\n        /* \"ERC20.sol\":7901:7924  senderBalance >= amount */\n      lt\n      iszero\n        /* \"ERC20.sol\":7893:7967  require(senderBalance >= amount, \"ERC20: transfer amount exceeds balance\") */\n      tag_219\n      jumpi\n      mload(0x40)\n      0x08c379a000000000000000000000000000000000000000000000000000000000\n      dup2\n      mstore\n      0x04\n      add\n      tag_220\n      swap1\n      tag_221\n      jump\t// in\n    tag_220:\n      mload(0x40)\n      dup1\n      swap2\n      sub\n      swap1\n      revert\n    tag_219:\n        /* \"ERC20.sol\":8037:8043  amount */\n      dup2\n        /* \"ERC20.sol\":8021:8034  senderBalance */\n      dup2\n        /* \"ERC20.sol\":8021:8043  senderBalance - amount */\n      sub\n        /* \"ERC20.sol\":8001:8010  _balances */\n      0x00\n        /* \"ERC20.sol\":8001:8018  _balances[sender] */\n      dup1\n        /* \"ERC20.sol\":8011:8017  sender */\n      dup7\n        /* \"ERC20.sol\":8001:8018  _balances[sender] */\n      0xffffffffffffffffffffffffffffffffffffffff\n      and\n      0xffffffffffffffffffffffffffffffffffffffff\n      and\n      dup2\n      mstore\n      0x20\n      add\n      swap1\n      dup2\n      mstore\n      0x20\n      add\n      0x00\n      keccak256\n        /* \"ERC20.sol\":8001:8043  _balances[sender] = senderBalance - amount */\n      dup2\n      swap1\n      sstore\n      pop\n        /* \"ERC20.sol\":8087:8093  amount */\n      dup2\n        /* \"ERC20.sol\":8063:8072  _balances */\n      0x00\n        /* \"ERC20.sol\":8063:8083  _balances[recipient] */\n      dup1\n        /* \"ERC20.sol\":8073:8082  recipient */\n      dup6\n        /* \"ERC20.sol\":8063:8083  _balances[recipient] */\n      0xffffffffffffffffffffffffffffffffffffffff\n      and\n      0xffffffffffffffffffffffffffffffffffffffff\n      and\n      dup2\n      mstore\n      0x20\n      add\n      swap1\n      dup2\n      mstore\n      0x20\n      add\n      0x00\n      keccak256\n      0x00\n        /* \"ERC20.sol\":8063:8093  _balances[recipient] += amount */\n      dup3\n      dup3\n      sload\n      tag_222\n      swap2\n      swap1\n      tag_135\n      jump\t// in\n    tag_222:\n      swap3\n      pop\n      pop\n      dup2\n      swap1\n      sstore\n      pop\n        /* \"ERC20.sol\":8126:8135  recipient */\n      dup3\n        /* \"ERC20.sol\":8109:8144  Transfer(sender, recipient, amount) */\n      0xffffffffffffffffffffffffffffffffffffffff\n      and\n        /* \"ERC20.sol\":8118:8124  sender */\n      dup5\n        /* \"ERC20.sol\":8109:8144  Transfer(sender, recipient, amount) */\n      0xffffffffffffffffffffffffffffffffffffffff\n      and\n      0xddf252ad1be2c89b69c2b068fc378daa952ba7f163c4a11628f55a4df523b3ef\n        /* \"ERC20.sol\":8137:8143  amount */\n      dup5\n        /* \"ERC20.sol\":8109:8144  Transfer(sender, recipient, amount) */\n      mload(0x40)\n      tag_223\n      swap2\n      swap1\n      tag_38\n      jump\t// in\n    tag_223:\n      mload(0x40)\n      dup1\n      swap2\n      sub\n      swap1\n      log3\n        /* \"ERC20.sol\":8155:8201  _afterTokenTransfer(sender, recipient, amount) */\n      tag_224\n        /* \"ERC20.sol\":8175:8181  sender */\n      dup5\n        /* \"ERC20.sol\":8183:8192  recipient */\n      dup5\n        /* \"ERC20.sol\":8194:8200  amount */\n      dup5\n        /* \"ERC20.sol\":8155:8174  _afterTokenTransfer */\n      tag_225\n        /* \"ERC20.sol\":8155:8201  _afterTokenTransfer(sender, recipient, amount) */\n      jump\t// in\n    tag_224:\n        /* \"ERC20.sol\":7612:8208  {... */\n      pop\n        /* \"ERC20.sol\":7495:8208  function _transfer(... */\n      pop\n      pop\n      pop\n      jump\t// out\n        /* \"ERC20.sol\":8484:8873  function _mint(address account, uint256 amount) internal virtual {... */\n    tag_141:\n        /* \"ERC20.sol\":8586:8587  0 */\n      0x00\n        /* \"ERC20.sol\":8567:8588  account != address(0) */\n      0xffffffffffffffffffffffffffffffffffffffff\n      and\n        /* \"ERC20.sol\":8567:8574  account */\n      dup3\n        /* \"ERC20.sol\":8567:8588  account != address(0) */\n      0xffffffffffffffffffffffffffffffffffffffff\n      and\n      eq\n      iszero\n        /* \"ERC20.sol\":8559:8624  require(account != address(0), \"ERC20: mint to the zero address\") */\n      tag_227\n      jumpi\n      mload(0x40)\n      0x08c379a000000000000000000000000000000000000000000000000000000000\n      dup2\n      mstore\n      0x04\n      add\n      tag_228\n      swap1\n      tag_229\n      jump\t// in\n    tag_228:\n      mload(0x40)\n      dup1\n      swap2\n      sub\n      swap1\n      revert\n    tag_227:\n        /* \"ERC20.sol\":8635:8684  _beforeTokenTransfer(address(0), account, amount) */\n      tag_230\n        /* \"ERC20.sol\":8664:8665  0 */\n      0x00\n        /* \"ERC20.sol\":8668:8675  account */\n      dup4\n        /* \"ERC20.sol\":8677:8683  amount */\n      dup4\n        /* \"ERC20.sol\":8635:8655  _beforeTokenTransfer */\n      tag_218\n        /* \"ERC20.sol\":8635:8684  _beforeTokenTransfer(address(0), account, amount) */\n      jump\t// in\n    tag_230:\n        /* \"ERC20.sol\":8711:8717  amount */\n      dup1\n        /* \"ERC20.sol\":8695:8707  _totalSupply */\n      0x02\n      0x00\n        /* \"ERC20.sol\":8695:8717  _totalSupply += amount */\n      dup3\n      dup3\n      sload\n      tag_231\n      swap2\n      swap1\n      tag_135\n      jump\t// in\n    tag_231:\n      swap3\n      pop\n      pop\n      dup2\n      swap1\n      sstore\n      pop\n        /* \"ERC20.sol\":8749:8755  amount */\n      dup1\n        /* \"ERC20.sol\":8727:8736  _balances */\n      0x00\n        /* \"ERC20.sol\":8727:8745  _balances[account] */\n      dup1\n        /* \"ERC20.sol\":8737:8744  account */\n      dup5\n        /* \"ERC20.sol\":8727:8745  _balances[account] */\n      0xffffffffffffffffffffffffffffffffffffffff\n      and\n      0xffffffffffffffffffffffffffffffffffffffff\n      and\n      dup2\n      mstore\n      0x20\n      add\n      swap1\n      dup2\n      mstore\n      0x20\n      add\n      0x00\n      keccak256\n      0x00\n        /* \"ERC20.sol\":8727:8755  _balances[account] += amount */\n      dup3\n      dup3\n      sload\n      tag_232\n      swap2\n      swap1\n      tag_135\n      jump\t// in\n    tag_232:\n      swap3\n      pop\n      pop\n      dup2\n      swap1\n      sstore\n      pop\n        /* \"ERC20.sol\":8791:8798  account */\n      dup2\n        /* \"ERC20.sol\":8770:8807  Transfer(address(0), account, amount) */\n      0xffffffffffffffffffffffffffffffffffffffff\n      and\n        /* \"ERC20.sol\":8787:8788  0 */\n      0x00\n        /* \"ERC20.sol\":8770:8807  Transfer(address(0), account, amount) */\n      0xffffffffffffffffffffffffffffffffffffffff\n      and\n      0xddf252ad1be2c89b69c2b068fc378daa952ba7f163c4a11628f55a4df523b3ef\n        /* \"ERC20.sol\":8800:8806  amount */\n      dup4\n        /* \"ERC20.sol\":8770:8807  Transfer(address(0), account, amount) */\n      mload(0x40)\n      tag_233\n      swap2\n      swap1\n      tag_38\n      jump\t// in\n    tag_233:\n      mload(0x40)\n      dup1\n      swap2\n      sub\n      swap1\n      log3\n        /* \"ERC20.sol\":8818:8866  _afterTokenTransfer(address(0), account, amount) */\n      tag_234\n        /* \"ERC20.sol\":8846:8847  0 */\n      0x00\n        /* \"ERC20.sol\":8850:8857  account */\n      dup4\n        /* \"ERC20.sol\":8859:8865  amount */\n      dup4\n        /* \"ERC20.sol\":8818:8837  _afterTokenTransfer */\n      tag_225\n        /* \"ERC20.sol\":8818:8866  _afterTokenTransfer(address(0), account, amount) */\n      jump\t// in\n    tag_234:\n        /* \"ERC20.sol\":8484:8873  function _mint(address account, uint256 amount) internal virtual {... */\n      pop\n      pop\n      jump\t// out\n        /* \"Ownable.sol\":2263:2450  function _transferOwnership(address newOwner) internal virtual {... */\n    tag_151:\n        /* \"Ownable.sol\":2336:2352  address oldOwner */\n      0x00\n        /* \"Ownable.sol\":2355:2361  _owner */\n      0x06\n      0x00\n      swap1\n      sload\n      swap1\n      0x0100\n      exp\n      swap1\n      div\n      0xffffffffffffffffffffffffffffffffffffffff\n      and\n        /* \"Ownable.sol\":2336:2361  address oldOwner = _owner */\n      swap1\n      pop\n        /* \"Ownable.sol\":2380:2388  newOwner */\n      dup2\n        /* \"Ownable.sol\":2371:2377  _owner */\n      0x06\n      0x00\n        /* \"Ownable.sol\":2371:2388  _owner = newOwner */\n      0x0100\n      exp\n      dup2\n      sload\n      dup2\n      0xffffffffffffffffffffffffffffffffffffffff\n      mul\n      not\n      and\n      swap1\n      dup4\n      0xffffffffffffffffffffffffffffffffffffffff\n      and\n      mul\n      or\n      swap1\n      sstore\n      pop\n        /* \"Ownable.sol\":2434:2442  newOwner */\n      dup2\n        /* \"Ownable.sol\":2403:2443  OwnershipTransferred(oldOwner, newOwner) */\n      0xffffffffffffffffffffffffffffffffffffffff\n      and\n        /* \"Ownable.sol\":2424:2432  oldOwner */\n      dup2\n        /* \"Ownable.sol\":2403:2443  OwnershipTransferred(oldOwner, newOwner) */\n      0xffffffffffffffffffffffffffffffffffffffff\n      and\n      0x8be0079c531659141344cd1fd0a4f28419497f9722a3daafe3b4186f6b6457e0\n      mload(0x40)\n      mload(0x40)\n      dup1\n      swap2\n      sub\n      swap1\n      log3\n        /* \"Ownable.sol\":2326:2450  {... */\n      pop\n        /* \"Ownable.sol\":2263:2450  function _transferOwnership(address newOwner) internal virtual {... */\n      pop\n      jump\t// out\n        /* \"ERC20.sol\":9193:9769  function _burn(address account, uint256 amount) internal virtual {... */\n    tag_164:\n        /* \"ERC20.sol\":9295:9296  0 */\n      0x00\n        /* \"ERC20.sol\":9276:9297  account != address(0) */\n      0xffffffffffffffffffffffffffffffffffffffff\n      and\n        /* \"ERC20.sol\":9276:9283  account */\n      dup3\n        /* \"ERC20.sol\":9276:9297  account != address(0) */\n      0xffffffffffffffffffffffffffffffffffffffff\n      and\n      eq\n      iszero\n        /* \"ERC20.sol\":9268:9335  require(account != address(0), \"ERC20: burn from the zero address\") */\n      tag_237\n      jumpi\n      mload(0x40)\n      0x08c379a000000000000000000000000000000000000000000000000000000000\n      dup2\n      mstore\n      0x04\n      add\n      tag_238\n      swap1\n      tag_239\n      jump\t// in\n    tag_238:\n      mload(0x40)\n      dup1\n      swap2\n      sub\n      swap1\n      revert\n    tag_237:\n        /* \"ERC20.sol\":9346:9395  _beforeTokenTransfer(account, address(0), amount) */\n      tag_240\n        /* \"ERC20.sol\":9367:9374  account */\n      dup3\n        /* \"ERC20.sol\":9384:9385  0 */\n      0x00\n        /* \"ERC20.sol\":9388:9394  amount */\n      dup4\n        /* \"ERC20.sol\":9346:9366  _beforeTokenTransfer */\n      tag_218\n        /* \"ERC20.sol\":9346:9395  _beforeTokenTransfer(account, address(0), amount) */\n      jump\t// in\n    tag_240:\n        /* \"ERC20.sol\":9406:9428  uint256 accountBalance */\n      0x00\n        /* \"ERC20.sol\":9431:9440  _balances */\n      dup1\n        /* \"ERC20.sol\":9431:9449  _balances[account] */\n      0x00\n        /* \"ERC20.sol\":9441:9448  account */\n      dup5\n        /* \"ERC20.sol\":9431:9449  _balances[account] */\n      0xffffffffffffffffffffffffffffffffffffffff\n      and\n      0xffffffffffffffffffffffffffffffffffffffff\n      and\n      dup2\n      mstore\n      0x20\n      add\n      swap1\n      dup2\n      mstore\n      0x20\n      add\n      0x00\n      keccak256\n      sload\n        /* \"ERC20.sol\":9406:9449  uint256 accountBalance = _balances[account] */\n      swap1\n      pop\n        /* \"ERC20.sol\":9485:9491  amount */\n      dup2\n        /* \"ERC20.sol\":9467:9481  accountBalance */\n      dup2\n        /* \"ERC20.sol\":9467:9491  accountBalance >= amount */\n      lt\n      iszero\n        /* \"ERC20.sol\":9459:9530  require(accountBalance >= amount, \"ERC20: burn amount exceeds balance\") */\n      tag_241\n      jumpi\n      mload(0x40)\n      0x08c379a000000000000000000000000000000000000000000000000000000000\n      dup2\n      mstore\n      0x04\n      add\n      tag_242\n      swap1\n      tag_243\n      jump\t// in\n    tag_242:\n      mload(0x40)\n      dup1\n      swap2\n      sub\n      swap1\n      revert\n    tag_241:\n        /* \"ERC20.sol\":9602:9608  amount */\n      dup2\n        /* \"ERC20.sol\":9585:9599  accountBalance */\n      dup2\n        /* \"ERC20.sol\":9585:9608  accountBalance - amount */\n      sub\n        /* \"ERC20.sol\":9564:9573  _balances */\n      0x00\n        /* \"ERC20.sol\":9564:9582  _balances[account] */\n      dup1\n        /* \"ERC20.sol\":9574:9581  account */\n      dup6\n        /* \"ERC20.sol\":9564:9582  _balances[account] */\n      0xffffffffffffffffffffffffffffffffffffffff\n      and\n      0xffffffffffffffffffffffffffffffffffffffff\n      and\n      dup2\n      mstore\n      0x20\n      add\n      swap1\n      dup2\n      mstore\n      0x20\n      add\n      0x00\n      keccak256\n        /* \"ERC20.sol\":9564:9608  _balances[account] = accountBalance - amount */\n      dup2\n      swap1\n      sstore\n      pop\n        /* \"ERC20.sol\":9644:9650  amount */\n      dup2\n        /* \"ERC20.sol\":9628:9640  _totalSupply */\n      0x02\n      0x00\n        /* \"ERC20.sol\":9628:9650  _totalSupply -= amount */\n      dup3\n      dup3\n      sload\n      tag_244\n      swap2\n      swap1\n      tag_245\n      jump\t// in\n    tag_244:\n      swap3\n      pop\n      pop\n      dup2\n      swap1\n      sstore\n      pop\n        /* \"ERC20.sol\":9692:9693  0 */\n      0x00\n        /* \"ERC20.sol\":9666:9703  Transfer(account, address(0), amount) */\n      0xffffffffffffffffffffffffffffffffffffffff\n      and\n        /* \"ERC20.sol\":9675:9682  account */\n      dup4\n        /* \"ERC20.sol\":9666:9703  Transfer(account, address(0), amount) */\n      0xffffffffffffffffffffffffffffffffffffffff\n      and\n      0xddf252ad1be2c89b69c2b068fc378daa952ba7f163c4a11628f55a4df523b3ef\n        /* \"ERC20.sol\":9696:9702  amount */\n      dup5\n        /* \"ERC20.sol\":9666:9703  Transfer(account, address(0), amount) */\n      mload(0x40)\n      tag_246\n      swap2\n      swap1\n      tag_38\n      jump\t// in\n    tag_246:\n      mload(0x40)\n      dup1\n      swap2\n      sub\n      swap1\n      log3\n        /* \"ERC20.sol\":9714:9762  _afterTokenTransfer(account, address(0), amount) */\n      tag_247\n        /* \"ERC20.sol\":9734:9741  account */\n      dup4\n        /* \"ERC20.sol\":9751:9752  0 */\n      0x00\n        /* \"ERC20.sol\":9755:9761  amount */\n      dup5\n        /* \"ERC20.sol\":9714:9733  _afterTokenTransfer */\n      tag_225\n        /* \"ERC20.sol\":9714:9762  _afterTokenTransfer(account, address(0), amount) */\n      jump\t// in\n    tag_247:\n        /* \"ERC20.sol\":9258:9769  {... */\n      pop\n        /* \"ERC20.sol\":9193:9769  function _burn(address account, uint256 amount) internal virtual {... */\n      pop\n      pop\n      jump\t// out\n        /* \"ERC20.sol\":11146:11267  function _beforeTokenTransfer(... */\n    tag_218:\n      pop\n      pop\n      pop\n      jump\t// out\n        /* \"ERC20.sol\":11855:11975  function _afterTokenTransfer(... */\n    tag_225:\n      pop\n      pop\n      pop\n      jump\t// out\n        /* \"#utility.yul\":7:146   */\n    tag_251:\n        /* \"#utility.yul\":53:58   */\n      0x00\n        /* \"#utility.yul\":91:97   */\n      dup2\n        /* \"#utility.yul\":78:98   */\n      calldataload\n        /* \"#utility.yul\":69:98   */\n      swap1\n      pop\n        /* \"#utility.yul\":107:140   */\n      tag_253\n        /* \"#utility.yul\":134:139   */\n      dup2\n        /* \"#utility.yul\":107:140   */\n      tag_254\n      jump\t// in\n    tag_253:\n        /* \"#utility.yul\":7:146   */\n      swap3\n      swap2\n      pop\n      pop\n      jump\t// out\n        /* \"#utility.yul\":152:291   */\n    tag_255:\n        /* \"#utility.yul\":198:203   */\n      0x00\n        /* \"#utility.yul\":236:242   */\n      dup2\n        /* \"#utility.yul\":223:243   */\n      calldataload\n        /* \"#utility.yul\":214:243   */\n      swap1\n      pop\n        /* \"#utility.yul\":252:285   */\n      tag_257\n        /* \"#utility.yul\":279:284   */\n      dup2\n        /* \"#utility.yul\":252:285   */\n      tag_258\n      jump\t// in\n    tag_257:\n        /* \"#utility.yul\":152:291   */\n      swap3\n      swap2\n      pop\n      pop\n      jump\t// out\n        /* \"#utility.yul\":297:440   */\n    tag_259:\n        /* \"#utility.yul\":354:359   */\n      0x00\n        /* \"#utility.yul\":385:391   */\n      dup2\n        /* \"#utility.yul\":379:392   */\n      mload\n        /* \"#utility.yul\":370:392   */\n      swap1\n      pop\n        /* \"#utility.yul\":401:434   */\n      tag_261\n        /* \"#utility.yul\":428:433   */\n      dup2\n        /* \"#utility.yul\":401:434   */\n      tag_258\n      jump\t// in\n    tag_261:\n        /* \"#utility.yul\":297:440   */\n      swap3\n      swap2\n      pop\n      pop\n      jump\t// out\n        /* \"#utility.yul\":446:775   */\n    tag_60:\n        /* \"#utility.yul\":505:511   */\n      0x00\n        /* \"#utility.yul\":554:556   */\n      0x20\n        /* \"#utility.yul\":542:551   */\n      dup3\n        /* \"#utility.yul\":533:540   */\n      dup5\n        /* \"#utility.yul\":529:552   */\n      sub\n        /* \"#utility.yul\":525:557   */\n      slt\n        /* \"#utility.yul\":522:641   */\n      iszero\n      tag_263\n      jumpi\n        /* \"#utility.yul\":560:639   */\n      tag_264\n      tag_265\n      jump\t// in\n    tag_264:\n        /* \"#utility.yul\":522:641   */\n    tag_263:\n        /* \"#utility.yul\":680:681   */\n      0x00\n        /* \"#utility.yul\":705:758   */\n      tag_266\n        /* \"#utility.yul\":750:757   */\n      dup5\n        /* \"#utility.yul\":741:747   */\n      dup3\n        /* \"#utility.yul\":730:739   */\n      dup6\n        /* \"#utility.yul\":726:748   */\n      add\n        /* \"#utility.yul\":705:758   */\n      tag_251\n      jump\t// in\n    tag_266:\n        /* \"#utility.yul\":695:758   */\n      swap2\n      pop\n        /* \"#utility.yul\":651:768   */\n      pop\n        /* \"#utility.yul\":446:775   */\n      swap3\n      swap2\n      pop\n      pop\n      jump\t// out\n        /* \"#utility.yul\":781:1255   */\n    tag_88:\n        /* \"#utility.yul\":849:855   */\n      0x00\n        /* \"#utility.yul\":857:863   */\n      dup1\n        /* \"#utility.yul\":906:908   */\n      0x40\n        /* \"#utility.yul\":894:903   */\n      dup4\n        /* \"#utility.yul\":885:892   */\n      dup6\n        /* \"#utility.yul\":881:904   */\n      sub\n        /* \"#utility.yul\":877:909   */\n      slt\n        /* \"#utility.yul\":874:993   */\n      iszero\n      tag_268\n      jumpi\n        /* \"#utility.yul\":912:991   */\n      tag_269\n      tag_265\n      jump\t// in\n    tag_269:\n        /* \"#utility.yul\":874:993   */\n    tag_268:\n        /* \"#utility.yul\":1032:1033   */\n      0x00\n        /* \"#utility.yul\":1057:1110   */\n      tag_270\n        /* \"#utility.yul\":1102:1109   */\n      dup6\n        /* \"#utility.yul\":1093:1099   */\n      dup3\n        /* \"#utility.yul\":1082:1091   */\n      dup7\n        /* \"#utility.yul\":1078:1100   */\n      add\n        /* \"#utility.yul\":1057:1110   */\n      tag_251\n      jump\t// in\n    tag_270:\n        /* \"#utility.yul\":1047:1110   */\n      swap3\n      pop\n        /* \"#utility.yul\":1003:1120   */\n      pop\n        /* \"#utility.yul\":1159:1161   */\n      0x20\n        /* \"#utility.yul\":1185:1238   */\n      tag_271\n        /* \"#utility.yul\":1230:1237   */\n      dup6\n        /* \"#utility.yul\":1221:1227   */\n      dup3\n        /* \"#utility.yul\":1210:1219   */\n      dup7\n        /* \"#utility.yul\":1206:1228   */\n      add\n        /* \"#utility.yul\":1185:1238   */\n      tag_251\n      jump\t// in\n    tag_271:\n        /* \"#utility.yul\":1175:1238   */\n      swap2\n      pop\n        /* \"#utility.yul\":1130:1248   */\n      pop\n        /* \"#utility.yul\":781:1255   */\n      swap3\n      pop\n      swap3\n      swap1\n      pop\n      jump\t// out\n        /* \"#utility.yul\":1261:1880   */\n    tag_41:\n        /* \"#utility.yul\":1338:1344   */\n      0x00\n        /* \"#utility.yul\":1346:1352   */\n      dup1\n        /* \"#utility.yul\":1354:1360   */\n      0x00\n        /* \"#utility.yul\":1403:1405   */\n      0x60\n        /* \"#utility.yul\":1391:1400   */\n      dup5\n        /* \"#utility.yul\":1382:1389   */\n      dup7\n        /* \"#utility.yul\":1378:1401   */\n      sub\n        /* \"#utility.yul\":1374:1406   */\n      slt\n        /* \"#utility.yul\":1371:1490   */\n      iszero\n      tag_273\n      jumpi\n        /* \"#utility.yul\":1409:1488   */\n      tag_274\n      tag_265\n      jump\t// in\n    tag_274:\n        /* \"#utility.yul\":1371:1490   */\n    tag_273:\n        /* \"#utility.yul\":1529:1530   */\n      0x00\n        /* \"#utility.yul\":1554:1607   */\n      tag_275\n        /* \"#utility.yul\":1599:1606   */\n      dup7\n        /* \"#utility.yul\":1590:1596   */\n      dup3\n        /* \"#utility.yul\":1579:1588   */\n      dup8\n        /* \"#utility.yul\":1575:1597   */\n      add\n        /* \"#utility.yul\":1554:1607   */\n      tag_251\n      jump\t// in\n    tag_275:\n        /* \"#utility.yul\":1544:1607   */\n      swap4\n      pop\n        /* \"#utility.yul\":1500:1617   */\n      pop\n        /* \"#utility.yul\":1656:1658   */\n      0x20\n        /* \"#utility.yul\":1682:1735   */\n      tag_276\n        /* \"#utility.yul\":1727:1734   */\n      dup7\n        /* \"#utility.yul\":1718:1724   */\n      dup3\n        /* \"#utility.yul\":1707:1716   */\n      dup8\n        /* \"#utility.yul\":1703:1725   */\n      add\n        /* \"#utility.yul\":1682:1735   */\n      tag_251\n      jump\t// in\n    tag_276:\n        /* \"#utility.yul\":1672:1735   */\n      swap3\n      pop\n        /* \"#utility.yul\":1627:1745   */\n      pop\n        /* \"#utility.yul\":1784:1786   */\n      0x40\n        /* \"#utility.yul\":1810:1863   */\n      tag_277\n        /* \"#utility.yul\":1855:1862   */\n      dup7\n        /* \"#utility.yul\":1846:1852   */\n      dup3\n        /* \"#utility.yul\":1835:1844   */\n      dup8\n        /* \"#utility.yul\":1831:1853   */\n      add\n        /* \"#utility.yul\":1810:1863   */\n      tag_255\n      jump\t// in\n    tag_277:\n        /* \"#utility.yul\":1800:1863   */\n      swap2\n      pop\n        /* \"#utility.yul\":1755:1873   */\n      pop\n        /* \"#utility.yul\":1261:1880   */\n      swap3\n      pop\n      swap3\n      pop\n      swap3\n      jump\t// out\n        /* \"#utility.yul\":1886:2360   */\n    tag_31:\n        /* \"#utility.yul\":1954:1960   */\n      0x00\n        /* \"#utility.yul\":1962:1968   */\n      dup1\n        /* \"#utility.yul\":2011:2013   */\n      0x40\n        /* \"#utility.yul\":1999:2008   */\n      dup4\n        /* \"#utility.yul\":1990:1997   */\n      dup6\n        /* \"#utility.yul\":1986:2009   */\n      sub\n        /* \"#utility.yul\":1982:2014   */\n      slt\n        /* \"#utility.yul\":1979:2098   */\n      iszero\n      tag_279\n      jumpi\n        /* \"#utility.yul\":2017:2096   */\n      tag_280\n      tag_265\n      jump\t// in\n    tag_280:\n        /* \"#utility.yul\":1979:2098   */\n    tag_279:\n        /* \"#utility.yul\":2137:2138   */\n      0x00\n        /* \"#utility.yul\":2162:2215   */\n      tag_281\n        /* \"#utility.yul\":2207:2214   */\n      dup6\n        /* \"#utility.yul\":2198:2204   */\n      dup3\n        /* \"#utility.yul\":2187:2196   */\n      dup7\n        /* \"#utility.yul\":2183:2205   */\n      add\n        /* \"#utility.yul\":2162:2215   */\n      tag_251\n      jump\t// in\n    tag_281:\n        /* \"#utility.yul\":2152:2215   */\n      swap3\n      pop\n        /* \"#utility.yul\":2108:2225   */\n      pop\n        /* \"#utility.yul\":2264:2266   */\n      0x20\n        /* \"#utility.yul\":2290:2343   */\n      tag_282\n        /* \"#utility.yul\":2335:2342   */\n      dup6\n        /* \"#utility.yul\":2326:2332   */\n      dup3\n        /* \"#utility.yul\":2315:2324   */\n      dup7\n        /* \"#utility.yul\":2311:2333   */\n      add\n        /* \"#utility.yul\":2290:2343   */\n      tag_255\n      jump\t// in\n    tag_282:\n        /* \"#utility.yul\":2280:2343   */\n      swap2\n      pop\n        /* \"#utility.yul\":2235:2353   */\n      pop\n        /* \"#utility.yul\":1886:2360   */\n      swap3\n      pop\n      swap3\n      swap1\n      pop\n      jump\t// out\n        /* \"#utility.yul\":2366:2717   */\n    tag_128:\n        /* \"#utility.yul\":2436:2442   */\n      0x00\n        /* \"#utility.yul\":2485:2487   */\n      0x20\n        /* \"#utility.yul\":2473:2482   */\n      dup3\n        /* \"#utility.yul\":2464:2471   */\n      dup5\n        /* \"#utility.yul\":2460:2483   */\n      sub\n        /* \"#utility.yul\":2456:2488   */\n      slt\n        /* \"#utility.yul\":2453:2572   */\n      iszero\n      tag_284\n      jumpi\n        /* \"#utility.yul\":2491:2570   */\n      tag_285\n      tag_265\n      jump\t// in\n    tag_285:\n        /* \"#utility.yul\":2453:2572   */\n    tag_284:\n        /* \"#utility.yul\":2611:2612   */\n      0x00\n        /* \"#utility.yul\":2636:2700   */\n      tag_286\n        /* \"#utility.yul\":2692:2699   */\n      dup5\n        /* \"#utility.yul\":2683:2689   */\n      dup3\n        /* \"#utility.yul\":2672:2681   */\n      dup6\n        /* \"#utility.yul\":2668:2690   */\n      add\n        /* \"#utility.yul\":2636:2700   */\n      tag_259\n      jump\t// in\n    tag_286:\n        /* \"#utility.yul\":2626:2700   */\n      swap2\n      pop\n        /* \"#utility.yul\":2582:2710   */\n      pop\n        /* \"#utility.yul\":2366:2717   */\n      swap3\n      swap2\n      pop\n      pop\n      jump\t// out\n        /* \"#utility.yul\":2723:2841   */\n    tag_287:\n        /* \"#utility.yul\":2810:2834   */\n      tag_289\n        /* \"#utility.yul\":2828:2833   */\n      dup2\n        /* \"#utility.yul\":2810:2834   */\n      tag_290\n      jump\t// in\n    tag_289:\n        /* \"#utility.yul\":2805:2808   */\n      dup3\n        /* \"#utility.yul\":2798:2835   */\n      mstore\n        /* \"#utility.yul\":2723:2841   */\n      pop\n      pop\n      jump\t// out\n        /* \"#utility.yul\":2847:2956   */\n    tag_291:\n        /* \"#utility.yul\":2928:2949   */\n      tag_293\n        /* \"#utility.yul\":2943:2948   */\n      dup2\n        /* \"#utility.yul\":2928:2949   */\n      tag_294\n      jump\t// in\n    tag_293:\n        /* \"#utility.yul\":2923:2926   */\n      dup3\n        /* \"#utility.yul\":2916:2950   */\n      mstore\n        /* \"#utility.yul\":2847:2956   */\n      pop\n      pop\n      jump\t// out\n        /* \"#utility.yul\":2962:3326   */\n    tag_295:\n        /* \"#utility.yul\":3050:3053   */\n      0x00\n        /* \"#utility.yul\":3078:3117   */\n      tag_297\n        /* \"#utility.yul\":3111:3116   */\n      dup3\n        /* \"#utility.yul\":3078:3117   */\n      tag_298\n      jump\t// in\n    tag_297:\n        /* \"#utility.yul\":3133:3204   */\n      tag_299\n        /* \"#utility.yul\":3197:3203   */\n      dup2\n        /* \"#utility.yul\":3192:3195   */\n      dup6\n        /* \"#utility.yul\":3133:3204   */\n      tag_300\n      jump\t// in\n    tag_299:\n        /* \"#utility.yul\":3126:3204   */\n      swap4\n      pop\n        /* \"#utility.yul\":3213:3265   */\n      tag_301\n        /* \"#utility.yul\":3258:3264   */\n      dup2\n        /* \"#utility.yul\":3253:3256   */\n      dup6\n        /* \"#utility.yul\":3246:3250   */\n      0x20\n        /* \"#utility.yul\":3239:3244   */\n      dup7\n        /* \"#utility.yul\":3235:3251   */\n      add\n        /* \"#utility.yul\":3213:3265   */\n      tag_302\n      jump\t// in\n    tag_301:\n        /* \"#utility.yul\":3290:3319   */\n      tag_303\n        /* \"#utility.yul\":3312:3318   */\n      dup2\n        /* \"#utility.yul\":3290:3319   */\n      tag_304\n      jump\t// in\n    tag_303:\n        /* \"#utility.yul\":3285:3288   */\n      dup5\n        /* \"#utility.yul\":3281:3320   */\n      add\n        /* \"#utility.yul\":3274:3320   */\n      swap2\n      pop\n        /* \"#utility.yul\":3054:3326   */\n      pop\n        /* \"#utility.yul\":2962:3326   */\n      swap3\n      swap2\n      pop\n      pop\n      jump\t// out\n        /* \"#utility.yul\":3332:3698   */\n    tag_305:\n        /* \"#utility.yul\":3474:3477   */\n      0x00\n        /* \"#utility.yul\":3495:3562   */\n      tag_307\n        /* \"#utility.yul\":3559:3561   */\n      0x23\n        /* \"#utility.yul\":3554:3557   */\n      dup4\n        /* \"#utility.yul\":3495:3562   */\n      tag_300\n      jump\t// in\n    tag_307:\n        /* \"#utility.yul\":3488:3562   */\n      swap2\n      pop\n        /* \"#utility.yul\":3571:3664   */\n      tag_308\n        /* \"#utility.yul\":3660:3663   */\n      dup3\n        /* \"#utility.yul\":3571:3664   */\n      tag_309\n      jump\t// in\n    tag_308:\n        /* \"#utility.yul\":3689:3691   */\n      0x40\n        /* \"#utility.yul\":3684:3687   */\n      dup3\n        /* \"#utility.yul\":3680:3692   */\n      add\n        /* \"#utility.yul\":3673:3692   */\n      swap1\n      pop\n        /* \"#utility.yul\":3332:3698   */\n      swap2\n      swap1\n      pop\n      jump\t// out\n        /* \"#utility.yul\":3704:4070   */\n    tag_310:\n        /* \"#utility.yul\":3846:3849   */\n      0x00\n        /* \"#utility.yul\":3867:3934   */\n      tag_312\n        /* \"#utility.yul\":3931:3933   */\n      0x22\n        /* \"#utility.yul\":3926:3929   */\n      dup4\n        /* \"#utility.yul\":3867:3934   */\n      tag_300\n      jump\t// in\n    tag_312:\n        /* \"#utility.yul\":3860:3934   */\n      swap2\n      pop\n        /* \"#utility.yul\":3943:4036   */\n      tag_313\n        /* \"#utility.yul\":4032:4035   */\n      dup3\n        /* \"#utility.yul\":3943:4036   */\n      tag_314\n      jump\t// in\n    tag_313:\n        /* \"#utility.yul\":4061:4063   */\n      0x40\n        /* \"#utility.yul\":4056:4059   */\n      dup3\n        /* \"#utility.yul\":4052:4064   */\n      add\n        /* \"#utility.yul\":4045:4064   */\n      swap1\n      pop\n        /* \"#utility.yul\":3704:4070   */\n      swap2\n      swap1\n      pop\n      jump\t// out\n        /* \"#utility.yul\":4076:4442   */\n    tag_315:\n        /* \"#utility.yul\":4218:4221   */\n      0x00\n        /* \"#utility.yul\":4239:4306   */\n      tag_317\n        /* \"#utility.yul\":4303:4305   */\n      0x26\n        /* \"#utility.yul\":4298:4301   */\n      dup4\n        /* \"#utility.yul\":4239:4306   */\n      tag_300\n      jump\t// in\n    tag_317:\n        /* \"#utility.yul\":4232:4306   */\n      swap2\n      pop\n        /* \"#utility.yul\":4315:4408   */\n      tag_318\n        /* \"#utility.yul\":4404:4407   */\n      dup3\n        /* \"#utility.yul\":4315:4408   */\n      tag_319\n      jump\t// in\n    tag_318:\n        /* \"#utility.yul\":4433:4435   */\n      0x40\n        /* \"#utility.yul\":4428:4431   */\n      dup3\n        /* \"#utility.yul\":4424:4436   */\n      add\n        /* \"#utility.yul\":4417:4436   */\n      swap1\n      pop\n        /* \"#utility.yul\":4076:4442   */\n      swap2\n      swap1\n      pop\n      jump\t// out\n        /* \"#utility.yul\":4448:4814   */\n    tag_320:\n        /* \"#utility.yul\":4590:4593   */\n      0x00\n        /* \"#utility.yul\":4611:4678   */\n      tag_322\n        /* \"#utility.yul\":4675:4677   */\n      0x22\n        /* \"#utility.yul\":4670:4673   */\n      dup4\n        /* \"#utility.yul\":4611:4678   */\n      tag_300\n      jump\t// in\n    tag_322:\n        /* \"#utility.yul\":4604:4678   */\n      swap2\n      pop\n        /* \"#utility.yul\":4687:4780   */\n      tag_323\n        /* \"#utility.yul\":4776:4779   */\n      dup3\n        /* \"#utility.yul\":4687:4780   */\n      tag_324\n      jump\t// in\n    tag_323:\n        /* \"#utility.yul\":4805:4807   */\n      0x40\n        /* \"#utility.yul\":4800:4803   */\n      dup3\n        /* \"#utility.yul\":4796:4808   */\n      add\n        /* \"#utility.yul\":4789:4808   */\n      swap1\n      pop\n        /* \"#utility.yul\":4448:4814   */\n      swap2\n      swap1\n      pop\n      jump\t// out\n        /* \"#utility.yul\":4820:5186   */\n    tag_325:\n        /* \"#utility.yul\":4962:4965   */\n      0x00\n        /* \"#utility.yul\":4983:5050   */\n      tag_327\n        /* \"#utility.yul\":5047:5049   */\n      0x15\n        /* \"#utility.yul\":5042:5045   */\n      dup4\n        /* \"#utility.yul\":4983:5050   */\n      tag_300\n      jump\t// in\n    tag_327:\n        /* \"#utility.yul\":4976:5050   */\n      swap2\n      pop\n        /* \"#utility.yul\":5059:5152   */\n      tag_328\n        /* \"#utility.yul\":5148:5151   */\n      dup3\n        /* \"#utility.yul\":5059:5152   */\n      tag_329\n      jump\t// in\n    tag_328:\n        /* \"#utility.yul\":5177:5179   */\n      0x20\n        /* \"#utility.yul\":5172:5175   */\n      dup3\n        /* \"#utility.yul\":5168:5180   */\n      add\n        /* \"#utility.yul\":5161:5180   */\n      swap1\n      pop\n        /* \"#utility.yul\":4820:5186   */\n      swap2\n      swap1\n      pop\n      jump\t// out\n        /* \"#utility.yul\":5192:5558   */\n    tag_330:\n        /* \"#utility.yul\":5334:5337   */\n      0x00\n        /* \"#utility.yul\":5355:5422   */\n      tag_332\n        /* \"#utility.yul\":5419:5421   */\n      0x26\n        /* \"#utility.yul\":5414:5417   */\n      dup4\n        /* \"#utility.yul\":5355:5422   */\n      tag_300\n      jump\t// in\n    tag_332:\n        /* \"#utility.yul\":5348:5422   */\n      swap2\n      pop\n        /* \"#utility.yul\":5431:5524   */\n      tag_333\n        /* \"#utility.yul\":5520:5523   */\n      dup3\n        /* \"#utility.yul\":5431:5524   */\n      tag_334\n      jump\t// in\n    tag_333:\n        /* \"#utility.yul\":5549:5551   */\n      0x40\n        /* \"#utility.yul\":5544:5547   */\n      dup3\n        /* \"#utility.yul\":5540:5552   */\n      add\n        /* \"#utility.yul\":5533:5552   */\n      swap1\n      pop\n        /* \"#utility.yul\":5192:5558   */\n      swap2\n      swap1\n      pop\n      jump\t// out\n        /* \"#utility.yul\":5564:5930   */\n    tag_335:\n        /* \"#utility.yul\":5706:5709   */\n      0x00\n        /* \"#utility.yul\":5727:5794   */\n      tag_337\n        /* \"#utility.yul\":5791:5793   */\n      0x19\n        /* \"#utility.yul\":5786:5789   */\n      dup4\n        /* \"#utility.yul\":5727:5794   */\n      tag_300\n      jump\t// in\n    tag_337:\n        /* \"#utility.yul\":5720:5794   */\n      swap2\n      pop\n        /* \"#utility.yul\":5803:5896   */\n      tag_338\n        /* \"#utility.yul\":5892:5895   */\n      dup3\n        /* \"#utility.yul\":5803:5896   */\n      tag_339\n      jump\t// in\n    tag_338:\n        /* \"#utility.yul\":5921:5923   */\n      0x20\n        /* \"#utility.yul\":5916:5919   */\n      dup3\n        /* \"#utility.yul\":5912:5924   */\n      add\n        /* \"#utility.yul\":5905:5924   */\n      swap1\n      pop\n        /* \"#utility.yul\":5564:5930   */\n      swap2\n      swap1\n      pop\n      jump\t// out\n        /* \"#utility.yul\":5936:6302   */\n    tag_340:\n        /* \"#utility.yul\":6078:6081   */\n      0x00\n        /* \"#utility.yul\":6099:6166   */\n      tag_342\n        /* \"#utility.yul\":6163:6165   */\n      0x19\n        /* \"#utility.yul\":6158:6161   */\n      dup4\n        /* \"#utility.yul\":6099:6166   */\n      tag_300\n      jump\t// in\n    tag_342:\n        /* \"#utility.yul\":6092:6166   */\n      swap2\n      pop\n        /* \"#utility.yul\":6175:6268   */\n      tag_343\n        /* \"#utility.yul\":6264:6267   */\n      dup3\n        /* \"#utility.yul\":6175:6268   */\n      tag_344\n      jump\t// in\n    tag_343:\n        /* \"#utility.yul\":6293:6295   */\n      0x20\n        /* \"#utility.yul\":6288:6291   */\n      dup3\n        /* \"#utility.yul\":6284:6296   */\n      add\n        /* \"#utility.yul\":6277:6296   */\n      swap1\n      pop\n        /* \"#utility.yul\":5936:6302   */\n      swap2\n      swap1\n      pop\n      jump\t// out\n        /* \"#utility.yul\":6308:6674   */\n    tag_345:\n        /* \"#utility.yul\":6450:6453   */\n      0x00\n        /* \"#utility.yul\":6471:6538   */\n      tag_347\n        /* \"#utility.yul\":6535:6537   */\n      0x28\n        /* \"#utility.yul\":6530:6533   */\n      dup4\n        /* \"#utility.yul\":6471:6538   */\n      tag_300\n      jump\t// in\n    tag_347:\n        /* \"#utility.yul\":6464:6538   */\n      swap2\n      pop\n        /* \"#utility.yul\":6547:6640   */\n      tag_348\n        /* \"#utility.yul\":6636:6639   */\n      dup3\n        /* \"#utility.yul\":6547:6640   */\n      tag_349\n      jump\t// in\n    tag_348:\n        /* \"#utility.yul\":6665:6667   */\n      0x40\n        /* \"#utility.yul\":6660:6663   */\n      dup3\n        /* \"#utility.yul\":6656:6668   */\n      add\n        /* \"#utility.yul\":6649:6668   */\n      swap1\n      pop\n        /* \"#utility.yul\":6308:6674   */\n      swap2\n      swap1\n      pop\n      jump\t// out\n        /* \"#utility.yul\":6680:7046   */\n    tag_350:\n        /* \"#utility.yul\":6822:6825   */\n      0x00\n        /* \"#utility.yul\":6843:6910   */\n      tag_352\n        /* \"#utility.yul\":6907:6909   */\n      0x20\n        /* \"#utility.yul\":6902:6905   */\n      dup4\n        /* \"#utility.yul\":6843:6910   */\n      tag_300\n      jump\t// in\n    tag_352:\n        /* \"#utility.yul\":6836:6910   */\n      swap2\n      pop\n        /* \"#utility.yul\":6919:7012   */\n      tag_353\n        /* \"#utility.yul\":7008:7011   */\n      dup3\n        /* \"#utility.yul\":6919:7012   */\n      tag_354\n      jump\t// in\n    tag_353:\n        /* \"#utility.yul\":7037:7039   */\n      0x20\n        /* \"#utility.yul\":7032:7035   */\n      dup3\n        /* \"#utility.yul\":7028:7040   */\n      add\n        /* \"#utility.yul\":7021:7040   */\n      swap1\n      pop\n        /* \"#utility.yul\":6680:7046   */\n      swap2\n      swap1\n      pop\n      jump\t// out\n        /* \"#utility.yul\":7052:7418   */\n    tag_355:\n        /* \"#utility.yul\":7194:7197   */\n      0x00\n        /* \"#utility.yul\":7215:7282   */\n      tag_357\n        /* \"#utility.yul\":7279:7281   */\n      0x21\n        /* \"#utility.yul\":7274:7277   */\n      dup4\n        /* \"#utility.yul\":7215:7282   */\n      tag_300\n      jump\t// in\n    tag_357:\n        /* \"#utility.yul\":7208:7282   */\n      swap2\n      pop\n        /* \"#utility.yul\":7291:7384   */\n      tag_358\n        /* \"#utility.yul\":7380:7383   */\n      dup3\n        /* \"#utility.yul\":7291:7384   */\n      tag_359\n      jump\t// in\n    tag_358:\n        /* \"#utility.yul\":7409:7411   */\n      0x40\n        /* \"#utility.yul\":7404:7407   */\n      dup3\n        /* \"#utility.yul\":7400:7412   */\n      add\n        /* \"#utility.yul\":7393:7412   */\n      swap1\n      pop\n        /* \"#utility.yul\":7052:7418   */\n      swap2\n      swap1\n      pop\n      jump\t// out\n        /* \"#utility.yul\":7424:7790   */\n    tag_360:\n        /* \"#utility.yul\":7566:7569   */\n      0x00\n        /* \"#utility.yul\":7587:7654   */\n      tag_362\n        /* \"#utility.yul\":7651:7653   */\n      0x25\n        /* \"#utility.yul\":7646:7649   */\n      dup4\n        /* \"#utility.yul\":7587:7654   */\n      tag_300\n      jump\t// in\n    tag_362:\n        /* \"#utility.yul\":7580:7654   */\n      swap2\n      pop\n        /* \"#utility.yul\":7663:7756   */\n      tag_363\n        /* \"#utility.yul\":7752:7755   */\n      dup3\n        /* \"#utility.yul\":7663:7756   */\n      tag_364\n      jump\t// in\n    tag_363:\n        /* \"#utility.yul\":7781:7783   */\n      0x40\n        /* \"#utility.yul\":7776:7779   */\n      dup3\n        /* \"#utility.yul\":7772:7784   */\n      add\n        /* \"#utility.yul\":7765:7784   */\n      swap1\n      pop\n        /* \"#utility.yul\":7424:7790   */\n      swap2\n      swap1\n      pop\n      jump\t// out\n        /* \"#utility.yul\":7796:8162   */\n    tag_365:\n        /* \"#utility.yul\":7938:7941   */\n      0x00\n        /* \"#utility.yul\":7959:8026   */\n      tag_367\n        /* \"#utility.yul\":8023:8025   */\n      0x24\n        /* \"#utility.yul\":8018:8021   */\n      dup4\n        /* \"#utility.yul\":7959:8026   */\n      tag_300\n      jump\t// in\n    tag_367:\n        /* \"#utility.yul\":7952:8026   */\n      swap2\n      pop\n        /* \"#utility.yul\":8035:8128   */\n      tag_368\n        /* \"#utility.yul\":8124:8127   */\n      dup3\n        /* \"#utility.yul\":8035:8128   */\n      tag_369\n      jump\t// in\n    tag_368:\n        /* \"#utility.yul\":8153:8155   */\n      0x40\n        /* \"#utility.yul\":8148:8151   */\n      dup3\n        /* \"#utility.yul\":8144:8156   */\n      add\n        /* \"#utility.yul\":8137:8156   */\n      swap1\n      pop\n        /* \"#utility.yul\":7796:8162   */\n      swap2\n      swap1\n      pop\n      jump\t// out\n        /* \"#utility.yul\":8168:8534   */\n    tag_370:\n        /* \"#utility.yul\":8310:8313   */\n      0x00\n        /* \"#utility.yul\":8331:8398   */\n      tag_372\n        /* \"#utility.yul\":8395:8397   */\n      0x25\n        /* \"#utility.yul\":8390:8393   */\n      dup4\n        /* \"#utility.yul\":8331:8398   */\n      tag_300\n      jump\t// in\n    tag_372:\n        /* \"#utility.yul\":8324:8398   */\n      swap2\n      pop\n        /* \"#utility.yul\":8407:8500   */\n      tag_373\n        /* \"#utility.yul\":8496:8499   */\n      dup3\n        /* \"#utility.yul\":8407:8500   */\n      tag_374\n      jump\t// in\n    tag_373:\n        /* \"#utility.yul\":8525:8527   */\n      0x40\n        /* \"#utility.yul\":8520:8523   */\n      dup3\n        /* \"#utility.yul\":8516:8528   */\n      add\n        /* \"#utility.yul\":8509:8528   */\n      swap1\n      pop\n        /* \"#utility.yul\":8168:8534   */\n      swap2\n      swap1\n      pop\n      jump\t// out\n        /* \"#utility.yul\":8540:8906   */\n    tag_375:\n        /* \"#utility.yul\":8682:8685   */\n      0x00\n        /* \"#utility.yul\":8703:8770   */\n      tag_377\n        /* \"#utility.yul\":8767:8769   */\n      0x1f\n        /* \"#utility.yul\":8762:8765   */\n      dup4\n        /* \"#utility.yul\":8703:8770   */\n      tag_300\n      jump\t// in\n    tag_377:\n        /* \"#utility.yul\":8696:8770   */\n      swap2\n      pop\n        /* \"#utility.yul\":8779:8872   */\n      tag_378\n        /* \"#utility.yul\":8868:8871   */\n      dup3\n        /* \"#utility.yul\":8779:8872   */\n      tag_379\n      jump\t// in\n    tag_378:\n        /* \"#utility.yul\":8897:8899   */\n      0x20\n        /* \"#utility.yul\":8892:8895   */\n      dup3\n        /* \"#utility.yul\":8888:8900   */\n      add\n        /* \"#utility.yul\":8881:8900   */\n      swap1\n      pop\n        /* \"#utility.yul\":8540:8906   */\n      swap2\n      swap1\n      pop\n      jump\t// out\n        /* \"#utility.yul\":8912:9030   */\n    tag_380:\n        /* \"#utility.yul\":8999:9023   */\n      tag_382\n        /* \"#utility.yul\":9017:9022   */\n      dup2\n        /* \"#utility.yul\":8999:9023   */\n      tag_383\n      jump\t// in\n    tag_382:\n        /* \"#utility.yul\":8994:8997   */\n      dup3\n        /* \"#utility.yul\":8987:9024   */\n      mstore\n        /* \"#utility.yul\":8912:9030   */\n      pop\n      pop\n      jump\t// out\n        /* \"#utility.yul\":9036:9148   */\n    tag_384:\n        /* \"#utility.yul\":9119:9141   */\n      tag_386\n        /* \"#utility.yul\":9135:9140   */\n      dup2\n        /* \"#utility.yul\":9119:9141   */\n      tag_387\n      jump\t// in\n    tag_386:\n        /* \"#utility.yul\":9114:9117   */\n      dup3\n        /* \"#utility.yul\":9107:9142   */\n      mstore\n        /* \"#utility.yul\":9036:9148   */\n      pop\n      pop\n      jump\t// out\n        /* \"#utility.yul\":9154:9376   */\n    tag_68:\n        /* \"#utility.yul\":9247:9251   */\n      0x00\n        /* \"#utility.yul\":9285:9287   */\n      0x20\n        /* \"#utility.yul\":9274:9283   */\n      dup3\n        /* \"#utility.yul\":9270:9288   */\n      add\n        /* \"#utility.yul\":9262:9288   */\n      swap1\n      pop\n        /* \"#utility.yul\":9298:9369   */\n      tag_389\n        /* \"#utility.yul\":9366:9367   */\n      0x00\n        /* \"#utility.yul\":9355:9364   */\n      dup4\n        /* \"#utility.yul\":9351:9368   */\n      add\n        /* \"#utility.yul\":9342:9348   */\n      dup5\n        /* \"#utility.yul\":9298:9369   */\n      tag_287\n      jump\t// in\n    tag_389:\n        /* \"#utility.yul\":9154:9376   */\n      swap3\n      swap2\n      pop\n      pop\n      jump\t// out\n        /* \"#utility.yul\":9382:9592   */\n    tag_34:\n        /* \"#utility.yul\":9469:9473   */\n      0x00\n        /* \"#utility.yul\":9507:9509   */\n      0x20\n        /* \"#utility.yul\":9496:9505   */\n      dup3\n        /* \"#utility.yul\":9492:9510   */\n      add\n        /* \"#utility.yul\":9484:9510   */\n      swap1\n      pop\n        /* \"#utility.yul\":9520:9585   */\n      tag_391\n        /* \"#utility.yul\":9582:9583   */\n      0x00\n        /* \"#utility.yul\":9571:9580   */\n      dup4\n        /* \"#utility.yul\":9567:9584   */\n      add\n        /* \"#utility.yul\":9558:9564   */\n      dup5\n        /* \"#utility.yul\":9520:9585   */\n      tag_291\n      jump\t// in\n    tag_391:\n        /* \"#utility.yul\":9382:9592   */\n      swap3\n      swap2\n      pop\n      pop\n      jump\t// out\n        /* \"#utility.yul\":9598:9911   */\n    tag_28:\n        /* \"#utility.yul\":9711:9715   */\n      0x00\n        /* \"#utility.yul\":9749:9751   */\n      0x20\n        /* \"#utility.yul\":9738:9747   */\n      dup3\n        /* \"#utility.yul\":9734:9752   */\n      add\n        /* \"#utility.yul\":9726:9752   */\n      swap1\n      pop\n        /* \"#utility.yul\":9798:9807   */\n      dup2\n        /* \"#utility.yul\":9792:9796   */\n      dup2\n        /* \"#utility.yul\":9788:9808   */\n      sub\n        /* \"#utility.yul\":9784:9785   */\n      0x00\n        /* \"#utility.yul\":9773:9782   */\n      dup4\n        /* \"#utility.yul\":9769:9786   */\n      add\n        /* \"#utility.yul\":9762:9809   */\n      mstore\n        /* \"#utility.yul\":9826:9904   */\n      tag_393\n        /* \"#utility.yul\":9899:9903   */\n      dup2\n        /* \"#utility.yul\":9890:9896   */\n      dup5\n        /* \"#utility.yul\":9826:9904   */\n      tag_295\n      jump\t// in\n    tag_393:\n        /* \"#utility.yul\":9818:9904   */\n      swap1\n      pop\n        /* \"#utility.yul\":9598:9911   */\n      swap3\n      swap2\n      pop\n      pop\n      jump\t// out\n        /* \"#utility.yul\":9917:10336   */\n    tag_216:\n        /* \"#utility.yul\":10083:10087   */\n      0x00\n        /* \"#utility.yul\":10121:10123   */\n      0x20\n        /* \"#utility.yul\":10110:10119   */\n      dup3\n        /* \"#utility.yul\":10106:10124   */\n      add\n        /* \"#utility.yul\":10098:10124   */\n      swap1\n      pop\n        /* \"#utility.yul\":10170:10179   */\n      dup2\n        /* \"#utility.yul\":10164:10168   */\n      dup2\n        /* \"#utility.yul\":10160:10180   */\n      sub\n        /* \"#utility.yul\":10156:10157   */\n      0x00\n        /* \"#utility.yul\":10145:10154   */\n      dup4\n        /* \"#utility.yul\":10141:10158   */\n      add\n        /* \"#utility.yul\":10134:10181   */\n      mstore\n        /* \"#utility.yul\":10198:10329   */\n      tag_395\n        /* \"#utility.yul\":10324:10328   */\n      dup2\n        /* \"#utility.yul\":10198:10329   */\n      tag_305\n      jump\t// in\n    tag_395:\n        /* \"#utility.yul\":10190:10329   */\n      swap1\n      pop\n        /* \"#utility.yul\":9917:10336   */\n      swap2\n      swap1\n      pop\n      jump\t// out\n        /* \"#utility.yul\":10342:10761   */\n    tag_243:\n        /* \"#utility.yul\":10508:10512   */\n      0x00\n        /* \"#utility.yul\":10546:10548   */\n      0x20\n        /* \"#utility.yul\":10535:10544   */\n      dup3\n        /* \"#utility.yul\":10531:10549   */\n      add\n        /* \"#utility.yul\":10523:10549   */\n      swap1\n      pop\n        /* \"#utility.yul\":10595:10604   */\n      dup2\n        /* \"#utility.yul\":10589:10593   */\n      dup2\n        /* \"#utility.yul\":10585:10605   */\n      sub\n        /* \"#utility.yul\":10581:10582   */\n      0x00\n        /* \"#utility.yul\":10570:10579   */\n      dup4\n        /* \"#utility.yul\":10566:10583   */\n      add\n        /* \"#utility.yul\":10559:10606   */\n      mstore\n        /* \"#utility.yul\":10623:10754   */\n      tag_397\n        /* \"#utility.yul\":10749:10753   */\n      dup2\n        /* \"#utility.yul\":10623:10754   */\n      tag_310\n      jump\t// in\n    tag_397:\n        /* \"#utility.yul\":10615:10754   */\n      swap1\n      pop\n        /* \"#utility.yul\":10342:10761   */\n      swap2\n      swap1\n      pop\n      jump\t// out\n        /* \"#utility.yul\":10767:11186   */\n    tag_193:\n        /* \"#utility.yul\":10933:10937   */\n      0x00\n        /* \"#utility.yul\":10971:10973   */\n      0x20\n        /* \"#utility.yul\":10960:10969   */\n      dup3\n        /* \"#utility.yul\":10956:10974   */\n      add\n        /* \"#utility.yul\":10948:10974   */\n      swap1\n      pop\n        /* \"#utility.yul\":11020:11029   */\n      dup2\n        /* \"#utility.yul\":11014:11018   */\n      dup2\n        /* \"#utility.yul\":11010:11030   */\n      sub\n        /* \"#utility.yul\":11006:11007   */\n      0x00\n        /* \"#utility.yul\":10995:11004   */\n      dup4\n        /* \"#utility.yul\":10991:11008   */\n      add\n        /* \"#utility.yul\":10984:11031   */\n      mstore\n        /* \"#utility.yul\":11048:11179   */\n      tag_399\n        /* \"#utility.yul\":11174:11178   */\n      dup2\n        /* \"#utility.yul\":11048:11179   */\n      tag_315\n      jump\t// in\n    tag_399:\n        /* \"#utility.yul\":11040:11179   */\n      swap1\n      pop\n        /* \"#utility.yul\":10767:11186   */\n      swap2\n      swap1\n      pop\n      jump\t// out\n        /* \"#utility.yul\":11192:11611   */\n    tag_208:\n        /* \"#utility.yul\":11358:11362   */\n      0x00\n        /* \"#utility.yul\":11396:11398   */\n      0x20\n        /* \"#utility.yul\":11385:11394   */\n      dup3\n        /* \"#utility.yul\":11381:11399   */\n      add\n        /* \"#utility.yul\":11373:11399   */\n      swap1\n      pop\n        /* \"#utility.yul\":11445:11454   */\n      dup2\n        /* \"#utility.yul\":11439:11443   */\n      dup2\n        /* \"#utility.yul\":11435:11455   */\n      sub\n        /* \"#utility.yul\":11431:11432   */\n      0x00\n        /* \"#utility.yul\":11420:11429   */\n      dup4\n        /* \"#utility.yul\":11416:11433   */\n      add\n        /* \"#utility.yul\":11409:11456   */\n      mstore\n        /* \"#utility.yul\":11473:11604   */\n      tag_401\n        /* \"#utility.yul\":11599:11603   */\n      dup2\n        /* \"#utility.yul\":11473:11604   */\n      tag_320\n      jump\t// in\n    tag_401:\n        /* \"#utility.yul\":11465:11604   */\n      swap1\n      pop\n        /* \"#utility.yul\":11192:11611   */\n      swap2\n      swap1\n      pop\n      jump\t// out\n        /* \"#utility.yul\":11617:12036   */\n    tag_113:\n        /* \"#utility.yul\":11783:11787   */\n      0x00\n        /* \"#utility.yul\":11821:11823   */\n      0x20\n        /* \"#utility.yul\":11810:11819   */\n      dup3\n        /* \"#utility.yul\":11806:11824   */\n      add\n        /* \"#utility.yul\":11798:11824   */\n      swap1\n      pop\n        /* \"#utility.yul\":11870:11879   */\n      dup2\n        /* \"#utility.yul\":11864:11868   */\n      dup2\n        /* \"#utility.yul\":11860:11880   */\n      sub\n        /* \"#utility.yul\":11856:11857   */\n      0x00\n        /* \"#utility.yul\":11845:11854   */\n      dup4\n        /* \"#utility.yul\":11841:11858   */\n      add\n        /* \"#utility.yul\":11834:11881   */\n      mstore\n        /* \"#utility.yul\":11898:12029   */\n      tag_403\n        /* \"#utility.yul\":12024:12028   */\n      dup2\n        /* \"#utility.yul\":11898:12029   */\n      tag_325\n      jump\t// in\n    tag_403:\n        /* \"#utility.yul\":11890:12029   */\n      swap1\n      pop\n        /* \"#utility.yul\":11617:12036   */\n      swap2\n      swap1\n      pop\n      jump\t// out\n        /* \"#utility.yul\":12042:12461   */\n    tag_221:\n        /* \"#utility.yul\":12208:12212   */\n      0x00\n        /* \"#utility.yul\":12246:12248   */\n      0x20\n        /* \"#utility.yul\":12235:12244   */\n      dup3\n        /* \"#utility.yul\":12231:12249   */\n      add\n        /* \"#utility.yul\":12223:12249   */\n      swap1\n      pop\n        /* \"#utility.yul\":12295:12304   */\n      dup2\n        /* \"#utility.yul\":12289:12293   */\n      dup2\n        /* \"#utility.yul\":12285:12305   */\n      sub\n        /* \"#utility.yul\":12281:12282   */\n      0x00\n        /* \"#utility.yul\":12270:12279   */\n      dup4\n        /* \"#utility.yul\":12266:12283   */\n      add\n        /* \"#utility.yul\":12259:12306   */\n      mstore\n        /* \"#utility.yul\":12323:12454   */\n      tag_405\n        /* \"#utility.yul\":12449:12453   */\n      dup2\n        /* \"#utility.yul\":12323:12454   */\n      tag_330\n      jump\t// in\n    tag_405:\n        /* \"#utility.yul\":12315:12454   */\n      swap1\n      pop\n        /* \"#utility.yul\":12042:12461   */\n      swap2\n      swap1\n      pop\n      jump\t// out\n        /* \"#utility.yul\":12467:12886   */\n    tag_139:\n        /* \"#utility.yul\":12633:12637   */\n      0x00\n        /* \"#utility.yul\":12671:12673   */\n      0x20\n        /* \"#utility.yul\":12660:12669   */\n      dup3\n        /* \"#utility.yul\":12656:12674   */\n      add\n        /* \"#utility.yul\":12648:12674   */\n      swap1\n      pop\n        /* \"#utility.yul\":12720:12729   */\n      dup2\n        /* \"#utility.yul\":12714:12718   */\n      dup2\n        /* \"#utility.yul\":12710:12730   */\n      sub\n        /* \"#utility.yul\":12706:12707   */\n      0x00\n        /* \"#utility.yul\":12695:12704   */\n      dup4\n        /* \"#utility.yul\":12691:12708   */\n      add\n        /* \"#utility.yul\":12684:12731   */\n      mstore\n        /* \"#utility.yul\":12748:12879   */\n      tag_407\n        /* \"#utility.yul\":12874:12878   */\n      dup2\n        /* \"#utility.yul\":12748:12879   */\n      tag_335\n      jump\t// in\n    tag_407:\n        /* \"#utility.yul\":12740:12879   */\n      swap1\n      pop\n        /* \"#utility.yul\":12467:12886   */\n      swap2\n      swap1\n      pop\n      jump\t// out\n        /* \"#utility.yul\":12892:13311   */\n    tag_162:\n        /* \"#utility.yul\":13058:13062   */\n      0x00\n        /* \"#utility.yul\":13096:13098   */\n      0x20\n        /* \"#utility.yul\":13085:13094   */\n      dup3\n        /* \"#utility.yul\":13081:13099   */\n      add\n        /* \"#utility.yul\":13073:13099   */\n      swap1\n      pop\n        /* \"#utility.yul\":13145:13154   */\n      dup2\n        /* \"#utility.yul\":13139:13143   */\n      dup2\n        /* \"#utility.yul\":13135:13155   */\n      sub\n        /* \"#utility.yul\":13131:13132   */\n      0x00\n        /* \"#utility.yul\":13120:13129   */\n      dup4\n        /* \"#utility.yul\":13116:13133   */\n      add\n        /* \"#utility.yul\":13109:13156   */\n      mstore\n        /* \"#utility.yul\":13173:13304   */\n      tag_409\n        /* \"#utility.yul\":13299:13303   */\n      dup2\n        /* \"#utility.yul\":13173:13304   */\n      tag_340\n      jump\t// in\n    tag_409:\n        /* \"#utility.yul\":13165:13304   */\n      swap1\n      pop\n        /* \"#utility.yul\":12892:13311   */\n      swap2\n      swap1\n      pop\n      jump\t// out\n        /* \"#utility.yul\":13317:13736   */\n    tag_120:\n        /* \"#utility.yul\":13483:13487   */\n      0x00\n        /* \"#utility.yul\":13521:13523   */\n      0x20\n        /* \"#utility.yul\":13510:13519   */\n      dup3\n        /* \"#utility.yul\":13506:13524   */\n      add\n        /* \"#utility.yul\":13498:13524   */\n      swap1\n      pop\n        /* \"#utility.yul\":13570:13579   */\n      dup2\n        /* \"#utility.yul\":13564:13568   */\n      dup2\n        /* \"#utility.yul\":13560:13580   */\n      sub\n        /* \"#utility.yul\":13556:13557   */\n      0x00\n        /* \"#utility.yul\":13545:13554   */\n      dup4\n        /* \"#utility.yul\":13541:13558   */\n      add\n        /* \"#utility.yul\":13534:13581   */\n      mstore\n        /* \"#utility.yul\":13598:13729   */\n      tag_411\n        /* \"#utility.yul\":13724:13728   */\n      dup2\n        /* \"#utility.yul\":13598:13729   */\n      tag_345\n      jump\t// in\n    tag_411:\n        /* \"#utility.yul\":13590:13729   */\n      swap1\n      pop\n        /* \"#utility.yul\":13317:13736   */\n      swap2\n      swap1\n      pop\n      jump\t// out\n        /* \"#utility.yul\":13742:14161   */\n    tag_148:\n        /* \"#utility.yul\":13908:13912   */\n      0x00\n        /* \"#utility.yul\":13946:13948   */\n      0x20\n        /* \"#utility.yul\":13935:13944   */\n      dup3\n        /* \"#utility.yul\":13931:13949   */\n      add\n        /* \"#utility.yul\":13923:13949   */\n      swap1\n      pop\n        /* \"#utility.yul\":13995:14004   */\n      dup2\n        /* \"#utility.yul\":13989:13993   */\n      dup2\n        /* \"#utility.yul\":13985:14005   */\n      sub\n        /* \"#utility.yul\":13981:13982   */\n      0x00\n        /* \"#utility.yul\":13970:13979   */\n      dup4\n        /* \"#utility.yul\":13966:13983   */\n      add\n        /* \"#utility.yul\":13959:14006   */\n      mstore\n        /* \"#utility.yul\":14023:14154   */\n      tag_413\n        /* \"#utility.yul\":14149:14153   */\n      dup2\n        /* \"#utility.yul\":14023:14154   */\n      tag_350\n      jump\t// in\n    tag_413:\n        /* \"#utility.yul\":14015:14154   */\n      swap1\n      pop\n        /* \"#utility.yul\":13742:14161   */\n      swap2\n      swap1\n      pop\n      jump\t// out\n        /* \"#utility.yul\":14167:14586   */\n    tag_239:\n        /* \"#utility.yul\":14333:14337   */\n      0x00\n        /* \"#utility.yul\":14371:14373   */\n      0x20\n        /* \"#utility.yul\":14360:14369   */\n      dup3\n        /* \"#utility.yul\":14356:14374   */\n      add\n        /* \"#utility.yul\":14348:14374   */\n      swap1\n      pop\n        /* \"#utility.yul\":14420:14429   */\n      dup2\n        /* \"#utility.yul\":14414:14418   */\n      dup2\n        /* \"#utility.yul\":14410:14430   */\n      sub\n        /* \"#utility.yul\":14406:14407   */\n      0x00\n        /* \"#utility.yul\":14395:14404   */\n      dup4\n        /* \"#utility.yul\":14391:14408   */\n      add\n        /* \"#utility.yul\":14384:14431   */\n      mstore\n        /* \"#utility.yul\":14448:14579   */\n      tag_415\n        /* \"#utility.yul\":14574:14578   */\n      dup2\n        /* \"#utility.yul\":14448:14579   */\n      tag_355\n      jump\t// in\n    tag_415:\n        /* \"#utility.yul\":14440:14579   */\n      swap1\n      pop\n        /* \"#utility.yul\":14167:14586   */\n      swap2\n      swap1\n      pop\n      jump\t// out\n        /* \"#utility.yul\":14592:15011   */\n    tag_213:\n        /* \"#utility.yul\":14758:14762   */\n      0x00\n        /* \"#utility.yul\":14796:14798   */\n      0x20\n        /* \"#utility.yul\":14785:14794   */\n      dup3\n        /* \"#utility.yul\":14781:14799   */\n      add\n        /* \"#utility.yul\":14773:14799   */\n      swap1\n      pop\n        /* \"#utility.yul\":14845:14854   */\n      dup2\n        /* \"#utility.yul\":14839:14843   */\n      dup2\n        /* \"#utility.yul\":14835:14855   */\n      sub\n        /* \"#utility.yul\":14831:14832   */\n      0x00\n        /* \"#utility.yul\":14820:14829   */\n      dup4\n        /* \"#utility.yul\":14816:14833   */\n      add\n        /* \"#utility.yul\":14809:14856   */\n      mstore\n        /* \"#utility.yul\":14873:15004   */\n      tag_417\n        /* \"#utility.yul\":14999:15003   */\n      dup2\n        /* \"#utility.yul\":14873:15004   */\n      tag_360\n      jump\t// in\n    tag_417:\n        /* \"#utility.yul\":14865:15004   */\n      swap1\n      pop\n        /* \"#utility.yul\":14592:15011   */\n      swap2\n      swap1\n      pop\n      jump\t// out\n        /* \"#utility.yul\":15017:15436   */\n    tag_205:\n        /* \"#utility.yul\":15183:15187   */\n      0x00\n        /* \"#utility.yul\":15221:15223   */\n      0x20\n        /* \"#utility.yul\":15210:15219   */\n      dup3\n        /* \"#utility.yul\":15206:15224   */\n      add\n        /* \"#utility.yul\":15198:15224   */\n      swap1\n      pop\n        /* \"#utility.yul\":15270:15279   */\n      dup2\n        /* \"#utility.yul\":15264:15268   */\n      dup2\n        /* \"#utility.yul\":15260:15280   */\n      sub\n        /* \"#utility.yul\":15256:15257   */\n      0x00\n        /* \"#utility.yul\":15245:15254   */\n      dup4\n        /* \"#utility.yul\":15241:15258   */\n      add\n        /* \"#utility.yul\":15234:15281   */\n      mstore\n        /* \"#utility.yul\":15298:15429   */\n      tag_419\n        /* \"#utility.yul\":15424:15428   */\n      dup2\n        /* \"#utility.yul\":15298:15429   */\n      tag_365\n      jump\t// in\n    tag_419:\n        /* \"#utility.yul\":15290:15429   */\n      swap1\n      pop\n        /* \"#utility.yul\":15017:15436   */\n      swap2\n      swap1\n      pop\n      jump\t// out\n        /* \"#utility.yul\":15442:15861   */\n    tag_169:\n        /* \"#utility.yul\":15608:15612   */\n      0x00\n        /* \"#utility.yul\":15646:15648   */\n      0x20\n        /* \"#utility.yul\":15635:15644   */\n      dup3\n        /* \"#utility.yul\":15631:15649   */\n      add\n        /* \"#utility.yul\":15623:15649   */\n      swap1\n      pop\n        /* \"#utility.yul\":15695:15704   */\n      dup2\n        /* \"#utility.yul\":15689:15693   */\n      dup2\n        /* \"#utility.yul\":15685:15705   */\n      sub\n        /* \"#utility.yul\":15681:15682   */\n      0x00\n        /* \"#utility.yul\":15670:15679   */\n      dup4\n        /* \"#utility.yul\":15666:15683   */\n      add\n        /* \"#utility.yul\":15659:15706   */\n      mstore\n        /* \"#utility.yul\":15723:15854   */\n      tag_421\n        /* \"#utility.yul\":15849:15853   */\n      dup2\n        /* \"#utility.yul\":15723:15854   */\n      tag_370\n      jump\t// in\n    tag_421:\n        /* \"#utility.yul\":15715:15854   */\n      swap1\n      pop\n        /* \"#utility.yul\":15442:15861   */\n      swap2\n      swap1\n      pop\n      jump\t// out\n        /* \"#utility.yul\":15867:16286   */\n    tag_229:\n        /* \"#utility.yul\":16033:16037   */\n      0x00\n        /* \"#utility.yul\":16071:16073   */\n      0x20\n        /* \"#utility.yul\":16060:16069   */\n      dup3\n        /* \"#utility.yul\":16056:16074   */\n      add\n        /* \"#utility.yul\":16048:16074   */\n      swap1\n      pop\n        /* \"#utility.yul\":16120:16129   */\n      dup2\n        /* \"#utility.yul\":16114:16118   */\n      dup2\n        /* \"#utility.yul\":16110:16130   */\n      sub\n        /* \"#utility.yul\":16106:16107   */\n      0x00\n        /* \"#utility.yul\":16095:16104   */\n      dup4\n        /* \"#utility.yul\":16091:16108   */\n      add\n        /* \"#utility.yul\":16084:16131   */\n      mstore\n        /* \"#utility.yul\":16148:16279   */\n      tag_423\n        /* \"#utility.yul\":16274:16278   */\n      dup2\n        /* \"#utility.yul\":16148:16279   */\n      tag_375\n      jump\t// in\n    tag_423:\n        /* \"#utility.yul\":16140:16279   */\n      swap1\n      pop\n        /* \"#utility.yul\":15867:16286   */\n      swap2\n      swap1\n      pop\n      jump\t// out\n        /* \"#utility.yul\":16292:16514   */\n    tag_38:\n        /* \"#utility.yul\":16385:16389   */\n      0x00\n        /* \"#utility.yul\":16423:16425   */\n      0x20\n        /* \"#utility.yul\":16412:16421   */\n      dup3\n        /* \"#utility.yul\":16408:16426   */\n      add\n        /* \"#utility.yul\":16400:16426   */\n      swap1\n      pop\n        /* \"#utility.yul\":16436:16507   */\n      tag_425\n        /* \"#utility.yul\":16504:16505   */\n      0x00\n        /* \"#utility.yul\":16493:16502   */\n      dup4\n        /* \"#utility.yul\":16489:16506   */\n      add\n        /* \"#utility.yul\":16480:16486   */\n      dup5\n        /* \"#utility.yul\":16436:16507   */\n      tag_380\n      jump\t// in\n    tag_425:\n        /* \"#utility.yul\":16292:16514   */\n      swap3\n      swap2\n      pop\n      pop\n      jump\t// out\n        /* \"#utility.yul\":16520:16734   */\n    tag_50:\n        /* \"#utility.yul\":16609:16613   */\n      0x00\n        /* \"#utility.yul\":16647:16649   */\n      0x20\n        /* \"#utility.yul\":16636:16645   */\n      dup3\n        /* \"#utility.yul\":16632:16650   */\n      add\n        /* \"#utility.yul\":16624:16650   */\n      swap1\n      pop\n        /* \"#utility.yul\":16660:16727   */\n      tag_427\n        /* \"#utility.yul\":16724:16725   */\n      0x00\n        /* \"#utility.yul\":16713:16722   */\n      dup4\n        /* \"#utility.yul\":16709:16726   */\n      add\n        /* \"#utility.yul\":16700:16706   */\n      dup5\n        /* \"#utility.yul\":16660:16727   */\n      tag_384\n      jump\t// in\n    tag_427:\n        /* \"#utility.yul\":16520:16734   */\n      swap3\n      swap2\n      pop\n      pop\n      jump\t// out\n        /* \"#utility.yul\":16821:16920   */\n    tag_298:\n        /* \"#utility.yul\":16873:16879   */\n      0x00\n        /* \"#utility.yul\":16907:16912   */\n      dup2\n        /* \"#utility.yul\":16901:16913   */\n      mload\n        /* \"#utility.yul\":16891:16913   */\n      swap1\n      pop\n        /* \"#utility.yul\":16821:16920   */\n      swap2\n      swap1\n      pop\n      jump\t// out\n        /* \"#utility.yul\":16926:17095   */\n    tag_300:\n        /* \"#utility.yul\":17010:17021   */\n      0x00\n        /* \"#utility.yul\":17044:17050   */\n      dup3\n        /* \"#utility.yul\":17039:17042   */\n      dup3\n        /* \"#utility.yul\":17032:17051   */\n      mstore\n        /* \"#utility.yul\":17084:17088   */\n      0x20\n        /* \"#utility.yul\":17079:17082   */\n      dup3\n        /* \"#utility.yul\":17075:17089   */\n      add\n        /* \"#utility.yul\":17060:17089   */\n      swap1\n      pop\n        /* \"#utility.yul\":16926:17095   */\n      swap3\n      swap2\n      pop\n      pop\n      jump\t// out\n        /* \"#utility.yul\":17101:17406   */\n    tag_135:\n        /* \"#utility.yul\":17141:17144   */\n      0x00\n        /* \"#utility.yul\":17160:17180   */\n      tag_433\n        /* \"#utility.yul\":17178:17179   */\n      dup3\n        /* \"#utility.yul\":17160:17180   */\n      tag_383\n      jump\t// in\n    tag_433:\n        /* \"#utility.yul\":17155:17180   */\n      swap2\n      pop\n        /* \"#utility.yul\":17194:17214   */\n      tag_434\n        /* \"#utility.yul\":17212:17213   */\n      dup4\n        /* \"#utility.yul\":17194:17214   */\n      tag_383\n      jump\t// in\n    tag_434:\n        /* \"#utility.yul\":17189:17214   */\n      swap3\n      pop\n        /* \"#utility.yul\":17348:17349   */\n      dup3\n        /* \"#utility.yul\":17280:17346   */\n      0xffffffffffffffffffffffffffffffffffffffffffffffffffffffffffffffff\n        /* \"#utility.yul\":17276:17350   */\n      sub\n        /* \"#utility.yul\":17273:17274   */\n      dup3\n        /* \"#utility.yul\":17270:17351   */\n      gt\n        /* \"#utility.yul\":17267:17374   */\n      iszero\n      tag_435\n      jumpi\n        /* \"#utility.yul\":17354:17372   */\n      tag_436\n      tag_437\n      jump\t// in\n    tag_436:\n        /* \"#utility.yul\":17267:17374   */\n    tag_435:\n        /* \"#utility.yul\":17398:17399   */\n      dup3\n        /* \"#utility.yul\":17395:17396   */\n      dup3\n        /* \"#utility.yul\":17391:17400   */\n      add\n        /* \"#utility.yul\":17384:17400   */\n      swap1\n      pop\n        /* \"#utility.yul\":17101:17406   */\n      swap3\n      swap2\n      pop\n      pop\n      jump\t// out\n        /* \"#utility.yul\":17412:17603   */\n    tag_245:\n        /* \"#utility.yul\":17452:17456   */\n      0x00\n        /* \"#utility.yul\":17472:17492   */\n      tag_439\n        /* \"#utility.yul\":17490:17491   */\n      dup3\n        /* \"#utility.yul\":17472:17492   */\n      tag_383\n      jump\t// in\n    tag_439:\n        /* \"#utility.yul\":17467:17492   */\n      swap2\n      pop\n        /* \"#utility.yul\":17506:17526   */\n      tag_440\n        /* \"#utility.yul\":17524:17525   */\n      dup4\n        /* \"#utility.yul\":17506:17526   */\n      tag_383\n      jump\t// in\n    tag_440:\n        /* \"#utility.yul\":17501:17526   */\n      swap3\n      pop\n        /* \"#utility.yul\":17545:17546   */\n      dup3\n        /* \"#utility.yul\":17542:17543   */\n      dup3\n        /* \"#utility.yul\":17539:17547   */\n      lt\n        /* \"#utility.yul\":17536:17570   */\n      iszero\n      tag_441\n      jumpi\n        /* \"#utility.yul\":17550:17568   */\n      tag_442\n      tag_437\n      jump\t// in\n    tag_442:\n        /* \"#utility.yul\":17536:17570   */\n    tag_441:\n        /* \"#utility.yul\":17595:17596   */\n      dup3\n        /* \"#utility.yul\":17592:17593   */\n      dup3\n        /* \"#utility.yul\":17588:17597   */\n      sub\n        /* \"#utility.yul\":17580:17597   */\n      swap1\n      pop\n        /* \"#utility.yul\":17412:17603   */\n      swap3\n      swap2\n      pop\n      pop\n      jump\t// out\n        /* \"#utility.yul\":17609:17705   */\n    tag_290:\n        /* \"#utility.yul\":17646:17653   */\n      0x00\n        /* \"#utility.yul\":17675:17699   */\n      tag_444\n        /* \"#utility.yul\":17693:17698   */\n      dup3\n        /* \"#utility.yul\":17675:17699   */\n      tag_445\n      jump\t// in\n    tag_444:\n        /* \"#utility.yul\":17664:17699   */\n      swap1\n      pop\n        /* \"#utility.yul\":17609:17705   */\n      swap2\n      swap1\n      pop\n      jump\t// out\n        /* \"#utility.yul\":17711:17801   */\n    tag_294:\n        /* \"#utility.yul\":17745:17752   */\n      0x00\n        /* \"#utility.yul\":17788:17793   */\n      dup2\n        /* \"#utility.yul\":17781:17794   */\n      iszero\n        /* \"#utility.yul\":17774:17795   */\n      iszero\n        /* \"#utility.yul\":17763:17795   */\n      swap1\n      pop\n        /* \"#utility.yul\":17711:17801   */\n      swap2\n      swap1\n      pop\n      jump\t// out\n        /* \"#utility.yul\":17807:17933   */\n    tag_445:\n        /* \"#utility.yul\":17844:17851   */\n      0x00\n        /* \"#utility.yul\":17884:17926   */\n      0xffffffffffffffffffffffffffffffffffffffff\n        /* \"#utility.yul\":17877:17882   */\n      dup3\n        /* \"#utility.yul\":17873:17927   */\n      and\n        /* \"#utility.yul\":17862:17927   */\n      swap1\n      pop\n        /* \"#utility.yul\":17807:17933   */\n      swap2\n      swap1\n      pop\n      jump\t// out\n        /* \"#utility.yul\":17939:18016   */\n    tag_383:\n        /* \"#utility.yul\":17976:17983   */\n      0x00\n        /* \"#utility.yul\":18005:18010   */\n      dup2\n        /* \"#utility.yul\":17994:18010   */\n      swap1\n      pop\n        /* \"#utility.yul\":17939:18016   */\n      swap2\n      swap1\n      pop\n      jump\t// out\n        /* \"#utility.yul\":18022:18108   */\n    tag_387:\n        /* \"#utility.yul\":18057:18064   */\n      0x00\n        /* \"#utility.yul\":18097:18101   */\n      0xff\n        /* \"#utility.yul\":18090:18095   */\n      dup3\n        /* \"#utility.yul\":18086:18102   */\n      and\n        /* \"#utility.yul\":18075:18102   */\n      swap1\n      pop\n        /* \"#utility.yul\":18022:18108   */\n      swap2\n      swap1\n      pop\n      jump\t// out\n        /* \"#utility.yul\":18114:18421   */\n    tag_302:\n        /* \"#utility.yul\":18182:18183   */\n      0x00\n        /* \"#utility.yul\":18192:18305   */\n    tag_451:\n        /* \"#utility.yul\":18206:18212   */\n      dup4\n        /* \"#utility.yul\":18203:18204   */\n      dup2\n        /* \"#utility.yul\":18200:18213   */\n      lt\n        /* \"#utility.yul\":18192:18305   */\n      iszero\n      tag_453\n      jumpi\n        /* \"#utility.yul\":18291:18292   */\n      dup1\n        /* \"#utility.yul\":18286:18289   */\n      dup3\n        /* \"#utility.yul\":18282:18293   */\n      add\n        /* \"#utility.yul\":18276:18294   */\n      mload\n        /* \"#utility.yul\":18272:18273   */\n      dup2\n        /* \"#utility.yul\":18267:18270   */\n      dup5\n        /* \"#utility.yul\":18263:18274   */\n      add\n        /* \"#utility.yul\":18256:18295   */\n      mstore\n        /* \"#utility.yul\":18228:18230   */\n      0x20\n        /* \"#utility.yul\":18225:18226   */\n      dup2\n        /* \"#utility.yul\":18221:18231   */\n      add\n        /* \"#utility.yul\":18216:18231   */\n      swap1\n      pop\n        /* \"#utility.yul\":18192:18305   */\n      jump(tag_451)\n    tag_453:\n        /* \"#utility.yul\":18323:18329   */\n      dup4\n        /* \"#utility.yul\":18320:18321   */\n      dup2\n        /* \"#utility.yul\":18317:18330   */\n      gt\n        /* \"#utility.yul\":18314:18415   */\n      iszero\n      tag_454\n      jumpi\n        /* \"#utility.yul\":18403:18404   */\n      0x00\n        /* \"#utility.yul\":18394:18400   */\n      dup5\n        /* \"#utility.yul\":18389:18392   */\n      dup5\n        /* \"#utility.yul\":18385:18401   */\n      add\n        /* \"#utility.yul\":18378:18405   */\n      mstore\n        /* \"#utility.yul\":18314:18415   */\n    tag_454:\n        /* \"#utility.yul\":18163:18421   */\n      pop\n        /* \"#utility.yul\":18114:18421   */\n      pop\n      pop\n      pop\n      jump\t// out\n        /* \"#utility.yul\":18427:18747   */\n    tag_99:\n        /* \"#utility.yul\":18471:18477   */\n      0x00\n        /* \"#utility.yul\":18508:18509   */\n      0x02\n        /* \"#utility.yul\":18502:18506   */\n      dup3\n        /* \"#utility.yul\":18498:18510   */\n      div\n        /* \"#utility.yul\":18488:18510   */\n      swap1\n      pop\n        /* \"#utility.yul\":18555:18556   */\n      0x01\n        /* \"#utility.yul\":18549:18553   */\n      dup3\n        /* \"#utility.yul\":18545:18557   */\n      and\n        /* \"#utility.yul\":18576:18594   */\n      dup1\n        /* \"#utility.yul\":18566:18647   */\n      tag_456\n      jumpi\n        /* \"#utility.yul\":18632:18636   */\n      0x7f\n        /* \"#utility.yul\":18624:18630   */\n      dup3\n        /* \"#utility.yul\":18620:18637   */\n      and\n        /* \"#utility.yul\":18610:18637   */\n      swap2\n      pop\n        /* \"#utility.yul\":18566:18647   */\n    tag_456:\n        /* \"#utility.yul\":18694:18696   */\n      0x20\n        /* \"#utility.yul\":18686:18692   */\n      dup3\n        /* \"#utility.yul\":18683:18697   */\n      lt\n        /* \"#utility.yul\":18663:18681   */\n      dup2\n        /* \"#utility.yul\":18660:18698   */\n      eq\n        /* \"#utility.yul\":18657:18741   */\n      iszero\n      tag_457\n      jumpi\n        /* \"#utility.yul\":18713:18731   */\n      tag_458\n      tag_459\n      jump\t// in\n    tag_458:\n        /* \"#utility.yul\":18657:18741   */\n    tag_457:\n        /* \"#utility.yul\":18478:18747   */\n      pop\n        /* \"#utility.yul\":18427:18747   */\n      swap2\n      swap1\n      pop\n      jump\t// out\n        /* \"#utility.yul\":18753:18933   */\n    tag_437:\n        /* \"#utility.yul\":18801:18878   */\n      0x4e487b7100000000000000000000000000000000000000000000000000000000\n        /* \"#utility.yul\":18798:18799   */\n      0x00\n        /* \"#utility.yul\":18791:18879   */\n      mstore\n        /* \"#utility.yul\":18898:18902   */\n      0x11\n        /* \"#utility.yul\":18895:18896   */\n      0x04\n        /* \"#utility.yul\":18888:18903   */\n      mstore\n        /* \"#utility.yul\":18922:18926   */\n      0x24\n        /* \"#utility.yul\":18919:18920   */\n      0x00\n        /* \"#utility.yul\":18912:18927   */\n      revert\n        /* \"#utility.yul\":18939:19119   */\n    tag_459:\n        /* \"#utility.yul\":18987:19064   */\n      0x4e487b7100000000000000000000000000000000000000000000000000000000\n        /* \"#utility.yul\":18984:18985   */\n      0x00\n        /* \"#utility.yul\":18977:19065   */\n      mstore\n        /* \"#utility.yul\":19084:19088   */\n      0x22\n        /* \"#utility.yul\":19081:19082   */\n      0x04\n        /* \"#utility.yul\":19074:19089   */\n      mstore\n        /* \"#utility.yul\":19108:19112   */\n      0x24\n        /* \"#utility.yul\":19105:19106   */\n      0x00\n        /* \"#utility.yul\":19098:19113   */\n      revert\n        /* \"#utility.yul\":19248:19365   */\n    tag_265:\n        /* \"#utility.yul\":19357:19358   */\n      0x00\n        /* \"#utility.yul\":19354:19355   */\n      dup1\n        /* \"#utility.yul\":19347:19359   */\n      revert\n        /* \"#utility.yul\":19371:19473   */\n    tag_304:\n        /* \"#utility.yul\":19412:19418   */\n      0x00\n        /* \"#utility.yul\":19463:19465   */\n      0x1f\n        /* \"#utility.yul\":19459:19466   */\n      not\n        /* \"#utility.yul\":19454:19456   */\n      0x1f\n        /* \"#utility.yul\":19447:19452   */\n      dup4\n        /* \"#utility.yul\":19443:19457   */\n      add\n        /* \"#utility.yul\":19439:19467   */\n      and\n        /* \"#utility.yul\":19429:19467   */\n      swap1\n      pop\n        /* \"#utility.yul\":19371:19473   */\n      swap2\n      swap1\n      pop\n      jump\t// out\n        /* \"#utility.yul\":19479:19701   */\n    tag_309:\n        /* \"#utility.yul\":19619:19653   */\n      0x45524332303a207472616e7366657220746f20746865207a65726f2061646472\n        /* \"#utility.yul\":19615:19616   */\n      0x00\n        /* \"#utility.yul\":19607:19613   */\n      dup3\n        /* \"#utility.yul\":19603:19617   */\n      add\n        /* \"#utility.yul\":19596:19654   */\n      mstore\n        /* \"#utility.yul\":19688:19693   */\n      0x6573730000000000000000000000000000000000000000000000000000000000\n        /* \"#utility.yul\":19683:19685   */\n      0x20\n        /* \"#utility.yul\":19675:19681   */\n      dup3\n        /* \"#utility.yul\":19671:19686   */\n      add\n        /* \"#utility.yul\":19664:19694   */\n      mstore\n        /* \"#utility.yul\":19479:19701   */\n      pop\n      jump\t// out\n        /* \"#utility.yul\":19707:19928   */\n    tag_314:\n        /* \"#utility.yul\":19847:19881   */\n      0x45524332303a206275726e20616d6f756e7420657863656564732062616c616e\n        /* \"#utility.yul\":19843:19844   */\n      0x00\n        /* \"#utility.yul\":19835:19841   */\n      dup3\n        /* \"#utility.yul\":19831:19845   */\n      add\n        /* \"#utility.yul\":19824:19882   */\n      mstore\n        /* \"#utility.yul\":19916:19920   */\n      0x6365000000000000000000000000000000000000000000000000000000000000\n        /* \"#utility.yul\":19911:19913   */\n      0x20\n        /* \"#utility.yul\":19903:19909   */\n      dup3\n        /* \"#utility.yul\":19899:19914   */\n      add\n        /* \"#utility.yul\":19892:19921   */\n      mstore\n        /* \"#utility.yul\":19707:19928   */\n      pop\n      jump\t// out\n        /* \"#utility.yul\":19934:20159   */\n    tag_319:\n        /* \"#utility.yul\":20074:20108   */\n      0x4f776e61626c653a206e6577206f776e657220697320746865207a65726f2061\n        /* \"#utility.yul\":20070:20071   */\n      0x00\n        /* \"#utility.yul\":20062:20068   */\n      dup3\n        /* \"#utility.yul\":20058:20072   */\n      add\n        /* \"#utility.yul\":20051:20109   */\n      mstore\n        /* \"#utility.yul\":20143:20151   */\n      0x6464726573730000000000000000000000000000000000000000000000000000\n        /* \"#utility.yul\":20138:20140   */\n      0x20\n        /* \"#utility.yul\":20130:20136   */\n      dup3\n        /* \"#utility.yul\":20126:20141   */\n      add\n        /* \"#utility.yul\":20119:20152   */\n      mstore\n        /* \"#utility.yul\":19934:20159   */\n      pop\n      jump\t// out\n        /* \"#utility.yul\":20165:20386   */\n    tag_324:\n        /* \"#utility.yul\":20305:20339   */\n      0x45524332303a20617070726f766520746f20746865207a65726f206164647265\n        /* \"#utility.yul\":20301:20302   */\n      0x00\n        /* \"#utility.yul\":20293:20299   */\n      dup3\n        /* \"#utility.yul\":20289:20303   */\n      add\n        /* \"#utility.yul\":20282:20340   */\n      mstore\n        /* \"#utility.yul\":20374:20378   */\n      0x7373000000000000000000000000000000000000000000000000000000000000\n        /* \"#utility.yul\":20369:20371   */\n      0x20\n        /* \"#utility.yul\":20361:20367   */\n      dup3\n        /* \"#utility.yul\":20357:20372   */\n      add\n        /* \"#utility.yul\":20350:20379   */\n      mstore\n        /* \"#utility.yul\":20165:20386   */\n      pop\n      jump\t// out\n        /* \"#utility.yul\":20392:20563   */\n    tag_329:\n        /* \"#utility.yul\":20532:20555   */\n      0x4e6f7420417070726f76656420746f20646f20736f0000000000000000000000\n        /* \"#utility.yul\":20528:20529   */\n      0x00\n        /* \"#utility.yul\":20520:20526   */\n      dup3\n        /* \"#utility.yul\":20516:20530   */\n      add\n        /* \"#utility.yul\":20509:20556   */\n      mstore\n        /* \"#utility.yul\":20392:20563   */\n      pop\n      jump\t// out\n        /* \"#utility.yul\":20569:20794   */\n    tag_334:\n        /* \"#utility.yul\":20709:20743   */\n      0x45524332303a207472616e7366657220616d6f756e7420657863656564732062\n        /* \"#utility.yul\":20705:20706   */\n      0x00\n        /* \"#utility.yul\":20697:20703   */\n      dup3\n        /* \"#utility.yul\":20693:20707   */\n      add\n        /* \"#utility.yul\":20686:20744   */\n      mstore\n        /* \"#utility.yul\":20778:20786   */\n      0x616c616e63650000000000000000000000000000000000000000000000000000\n        /* \"#utility.yul\":20773:20775   */\n      0x20\n        /* \"#utility.yul\":20765:20771   */\n      dup3\n        /* \"#utility.yul\":20761:20776   */\n      add\n        /* \"#utility.yul\":20754:20787   */\n      mstore\n        /* \"#utility.yul\":20569:20794   */\n      pop\n      jump\t// out\n        /* \"#utility.yul\":20800:20975   */\n    tag_339:\n        /* \"#utility.yul\":20940:20967   */\n      0x4f6e6c7920636f6e74726f6c6c6572732063616e206d696e7400000000000000\n        /* \"#utility.yul\":20936:20937   */\n      0x00\n        /* \"#utility.yul\":20928:20934   */\n      dup3\n        /* \"#utility.yul\":20924:20938   */\n      add\n        /* \"#utility.yul\":20917:20968   */\n      mstore\n        /* \"#utility.yul\":20800:20975   */\n      pop\n      jump\t// out\n        /* \"#utility.yul\":20981:21156   */\n    tag_344:\n        /* \"#utility.yul\":21121:21148   */\n      0x4f6e6c7920636f6e74726f6c6c6572732063616e206275726e00000000000000\n        /* \"#utility.yul\":21117:21118   */\n      0x00\n        /* \"#utility.yul\":21109:21115   */\n      dup3\n        /* \"#utility.yul\":21105:21119   */\n      add\n        /* \"#utility.yul\":21098:21149   */\n      mstore\n        /* \"#utility.yul\":20981:21156   */\n      pop\n      jump\t// out\n        /* \"#utility.yul\":21162:21389   */\n    tag_349:\n        /* \"#utility.yul\":21302:21336   */\n      0x45524332303a207472616e7366657220616d6f756e7420657863656564732061\n        /* \"#utility.yul\":21298:21299   */\n      0x00\n        /* \"#utility.yul\":21290:21296   */\n      dup3\n        /* \"#utility.yul\":21286:21300   */\n      add\n        /* \"#utility.yul\":21279:21337   */\n      mstore\n        /* \"#utility.yul\":21371:21381   */\n      0x6c6c6f77616e6365000000000000000000000000000000000000000000000000\n        /* \"#utility.yul\":21366:21368   */\n      0x20\n        /* \"#utility.yul\":21358:21364   */\n      dup3\n        /* \"#utility.yul\":21354:21369   */\n      add\n        /* \"#utility.yul\":21347:21382   */\n      mstore\n        /* \"#utility.yul\":21162:21389   */\n      pop\n      jump\t// out\n        /* \"#utility.yul\":21395:21577   */\n    tag_354:\n        /* \"#utility.yul\":21535:21569   */\n      0x4f776e61626c653a2063616c6c6572206973206e6f7420746865206f776e6572\n        /* \"#utility.yul\":21531:21532   */\n      0x00\n        /* \"#utility.yul\":21523:21529   */\n      dup3\n        /* \"#utility.yul\":21519:21533   */\n      add\n        /* \"#utility.yul\":21512:21570   */\n      mstore\n        /* \"#utility.yul\":21395:21577   */\n      pop\n      jump\t// out\n        /* \"#utility.yul\":21583:21803   */\n    tag_359:\n        /* \"#utility.yul\":21723:21757   */\n      0x45524332303a206275726e2066726f6d20746865207a65726f20616464726573\n        /* \"#utility.yul\":21719:21720   */\n      0x00\n        /* \"#utility.yul\":21711:21717   */\n      dup3\n        /* \"#utility.yul\":21707:21721   */\n      add\n        /* \"#utility.yul\":21700:21758   */\n      mstore\n        /* \"#utility.yul\":21792:21795   */\n      0x7300000000000000000000000000000000000000000000000000000000000000\n        /* \"#utility.yul\":21787:21789   */\n      0x20\n        /* \"#utility.yul\":21779:21785   */\n      dup3\n        /* \"#utility.yul\":21775:21790   */\n      add\n        /* \"#utility.yul\":21768:21796   */\n      mstore\n        /* \"#utility.yul\":21583:21803   */\n      pop\n      jump\t// out\n        /* \"#utility.yul\":21809:22033   */\n    tag_364:\n        /* \"#utility.yul\":21949:21983   */\n      0x45524332303a207472616e736665722066726f6d20746865207a65726f206164\n        /* \"#utility.yul\":21945:21946   */\n      0x00\n        /* \"#utility.yul\":21937:21943   */\n      dup3\n        /* \"#utility.yul\":21933:21947   */\n      add\n        /* \"#utility.yul\":21926:21984   */\n      mstore\n        /* \"#utility.yul\":22018:22025   */\n      0x6472657373000000000000000000000000000000000000000000000000000000\n        /* \"#utility.yul\":22013:22015   */\n      0x20\n        /* \"#utility.yul\":22005:22011   */\n      dup3\n        /* \"#utility.yul\":22001:22016   */\n      add\n        /* \"#utility.yul\":21994:22026   */\n      mstore\n        /* \"#utility.yul\":21809:22033   */\n      pop\n      jump\t// out\n        /* \"#utility.yul\":22039:22262   */\n    tag_369:\n        /* \"#utility.yul\":22179:22213   */\n      0x45524332303a20617070726f76652066726f6d20746865207a65726f20616464\n        /* \"#utility.yul\":22175:22176   */\n      0x00\n        /* \"#utility.yul\":22167:22173   */\n      dup3\n        /* \"#utility.yul\":22163:22177   */\n      add\n        /* \"#utility.yul\":22156:22214   */\n      mstore\n        /* \"#utility.yul\":22248:22254   */\n      0x7265737300000000000000000000000000000000000000000000000000000000\n        /* \"#utility.yul\":22243:22245   */\n      0x20\n        /* \"#utility.yul\":22235:22241   */\n      dup3\n        /* \"#utility.yul\":22231:22246   */\n      add\n        /* \"#utility.yul\":22224:22255   */\n      mstore\n        /* \"#utility.yul\":22039:22262   */\n      pop\n      jump\t// out\n        /* \"#utility.yul\":22268:22492   */\n    tag_374:\n        /* \"#utility.yul\":22408:22442   */\n      0x45524332303a2064656372656173656420616c6c6f77616e63652062656c6f77\n        /* \"#utility.yul\":22404:22405   */\n      0x00\n        /* \"#utility.yul\":22396:22402   */\n      dup3\n        /* \"#utility.yul\":22392:22406   */\n      add\n        /* \"#utility.yul\":22385:22443   */\n      mstore\n        /* \"#utility.yul\":22477:22484   */\n      0x207a65726f000000000000000000000000000000000000000000000000000000\n        /* \"#utility.yul\":22472:22474   */\n      0x20\n        /* \"#utility.yul\":22464:22470   */\n      dup3\n        /* \"#utility.yul\":22460:22475   */\n      add\n        /* \"#utility.yul\":22453:22485   */\n      mstore\n        /* \"#utility.yul\":22268:22492   */\n      pop\n      jump\t// out\n        /* \"#utility.yul\":22498:22679   */\n    tag_379:\n        /* \"#utility.yul\":22638:22671   */\n      0x45524332303a206d696e7420746f20746865207a65726f206164647265737300\n        /* \"#utility.yul\":22634:22635   */\n      0x00\n        /* \"#utility.yul\":22626:22632   */\n      dup3\n        /* \"#utility.yul\":22622:22636   */\n      add\n        /* \"#utility.yul\":22615:22672   */\n      mstore\n        /* \"#utility.yul\":22498:22679   */\n      pop\n      jump\t// out\n        /* \"#utility.yul\":22685:22807   */\n    tag_254:\n        /* \"#utility.yul\":22758:22782   */\n      tag_482\n        /* \"#utility.yul\":22776:22781   */\n      dup2\n        /* \"#utility.yul\":22758:22782   */\n      tag_290\n      jump\t// in\n    tag_482:\n        /* \"#utility.yul\":22751:22756   */\n      dup2\n        /* \"#utility.yul\":22748:22783   */\n      eq\n        /* \"#utility.yul\":22738:22801   */\n      tag_483\n      jumpi\n        /* \"#utility.yul\":22797:22798   */\n      0x00\n        /* \"#utility.yul\":22794:22795   */\n      dup1\n        /* \"#utility.yul\":22787:22799   */\n      revert\n        /* \"#utility.yul\":22738:22801   */\n    tag_483:\n        /* \"#utility.yul\":22685:22807   */\n      pop\n      jump\t// out\n        /* \"#utility.yul\":22813:22935   */\n    tag_258:\n        /* \"#utility.yul\":22886:22910   */\n      tag_485\n        /* \"#utility.yul\":22904:22909   */\n      dup2\n        /* \"#utility.yul\":22886:22910   */\n      tag_383\n      jump\t// in\n    tag_485:\n        /* \"#utility.yul\":22879:22884   */\n      dup2\n        /* \"#utility.yul\":22876:22911   */\n      eq\n        /* \"#utility.yul\":22866:22929   */\n      tag_486\n      jumpi\n        /* \"#utility.yul\":22925:22926   */\n      0x00\n        /* \"#utility.yul\":22922:22923   */\n      dup1\n        /* \"#utility.yul\":22915:22927   */\n      revert\n        /* \"#utility.yul\":22866:22929   */\n    tag_486:\n        /* \"#utility.yul\":22813:22935   */\n      pop\n      jump\t// out\n\n    auxdata: 0xa26469706673582212202ee4f016b3f4044f6acf4c9ec857f4d12d3817885bfee4a5862ac4e25cb4a4d964736f6c63430008070033\n}\n",
				"bytecode": {
					"linkReferences": {},
					"object": "60806040523480156200001157600080fd5b506040518060400160405280600a81526020017f57616e642d4261746f6e000000000000000000000000000000000000000000008152506040518060400160405280600481526020017f42544f4e00000000000000000000000000000000000000000000000000000000815250816003908051906020019062000096929190620001a6565b508060049080519060200190620000af929190620001a6565b505050620000d2620000c6620000d860201b60201c565b620000e060201b60201c565b620002bb565b600033905090565b6000600660009054906101000a900473ffffffffffffffffffffffffffffffffffffffff16905081600660006101000a81548173ffffffffffffffffffffffffffffffffffffffff021916908373ffffffffffffffffffffffffffffffffffffffff1602179055508173ffffffffffffffffffffffffffffffffffffffff168173ffffffffffffffffffffffffffffffffffffffff167f8be0079c531659141344cd1fd0a4f28419497f9722a3daafe3b4186f6b6457e060405160405180910390a35050565b828054620001b49062000256565b90600052602060002090601f016020900481019282620001d8576000855562000224565b82601f10620001f357805160ff191683800117855562000224565b8280016001018555821562000224579182015b828111156200022357825182559160200191906001019062000206565b5b50905062000233919062000237565b5090565b5b808211156200025257600081600090555060010162000238565b5090565b600060028204905060018216806200026f57607f821691505b602082108114156200028657620002856200028c565b5b50919050565b7f4e487b7100000000000000000000000000000000000000000000000000000000600052602260045260246000fd5b61239480620002cb6000396000f3fe608060405234801561001057600080fd5b50600436106101215760003560e01c8063715018a6116100ad578063a7fc7a0711610071578063a7fc7a071461030c578063a9059cbb14610328578063dd62ed3e14610358578063f2fde38b14610388578063f6a74ed7146103a457610121565b8063715018a61461027a5780638da5cb5b1461028457806395d89b41146102a25780639dc29fac146102c0578063a457c2d7146102dc57610121565b80632e54606a116100f45780632e54606a146101c2578063313ce567146101e057806339509351146101fe57806340c10f191461022e57806370a082311461024a57610121565b806306fdde0314610126578063095ea7b31461014457806318160ddd1461017457806323b872dd14610192575b600080fd5b61012e6103c0565b60405161013b9190611b41565b60405180910390f35b61015e6004803603810190610159919061181c565b610452565b60405161016b9190611b26565b60405180910390f35b61017c610470565b6040516101899190611d43565b60405180910390f35b6101ac60048036038101906101a791906117c9565b61047a565b6040516101b99190611b26565b60405180910390f35b6101ca610602565b6040516101d79190611d43565b60405180910390f35b6101e8610687565b6040516101f59190611d5e565b60405180910390f35b6102186004803603810190610213919061181c565b610690565b6040516102259190611b26565b60405180910390f35b6102486004803603810190610243919061181c565b61073c565b005b610264600480360381019061025f919061175c565b6107d6565b6040516102719190611d43565b60405180910390f35b61028261081e565b005b61028c6108a6565b6040516102999190611b0b565b60405180910390f35b6102aa6108d0565b6040516102b79190611b41565b60405180910390f35b6102da60048036038101906102d5919061181c565b610962565b005b6102f660048036038101906102f1919061181c565b6109fc565b6040516103039190611b26565b60405180910390f35b6103266004803603810190610321919061175c565b610ae7565b005b610342600480360381019061033d919061181c565b610bbe565b60405161034f9190611b26565b60405180910390f35b610372600480360381019061036d9190611789565b610c6c565b60405161037f9190611d43565b60405180910390f35b6103a2600480360381019061039d919061175c565b610cf3565b005b6103be60048036038101906103b9919061175c565b610deb565b005b6060600380546103cf90611ea7565b80601f01602080910402602001604051908101604052809291908181526020018280546103fb90611ea7565b80156104485780601f1061041d57610100808354040283529160200191610448565b820191906000526020600020905b81548152906001019060200180831161042b57829003601f168201915b5050505050905090565b600061046661045f610ec2565b8484610eca565b6001905092915050565b6000600254905090565b6000600560009054906101000a900473ffffffffffffffffffffffffffffffffffffffff1673ffffffffffffffffffffffffffffffffffffffff163373ffffffffffffffffffffffffffffffffffffffff161461050c576040517f08c379a000000000000000000000000000000000000000000000000000000000815260040161050390611be3565b60405180910390fd5b610517848484611095565b6000600160008673ffffffffffffffffffffffffffffffffffffffff1673ffffffffffffffffffffffffffffffffffffffff1681526020019081526020016000206000610562610ec2565b73ffffffffffffffffffffffffffffffffffffffff1673ffffffffffffffffffffffffffffffffffffffff168152602001908152602001600020549050828110156105e2576040517f08c379a00000000000000000000000000000000000000000000000000000000081526004016105d990611c63565b60405180910390fd5b6105f6856105ee610ec2565b858403610eca565b60019150509392505050565b60003073ffffffffffffffffffffffffffffffffffffffff166318160ddd6040518163ffffffff1660e01b815260040160206040518083038186803b15801561064a57600080fd5b505afa15801561065e573d6000803e3d6000fd5b505050506040513d601f19601f82011682018060405250810190610682919061185c565b905090565b60006012905090565b600061073261069d610ec2565b8484600160006106ab610ec2565b73ffffffffffffffffffffffffffffffffffffffff1673ffffffffffffffffffffffffffffffffffffffff16815260200190815260200160002060008873ffffffffffffffffffffffffffffffffffffffff1673ffffffffffffffffffffffffffffffffffffffff1681526020019081526020016000205461072d9190611d95565b610eca565b6001905092915050565b600760003373ffffffffffffffffffffffffffffffffffffffff1673ffffffffffffffffffffffffffffffffffffffff16815260200190815260200160002060009054906101000a900460ff166107c8576040517f08c379a00000000000000000000000000000000000000000000000000000000081526004016107bf90611c23565b60405180910390fd5b6107d28282611316565b5050565b60008060008373ffffffffffffffffffffffffffffffffffffffff1673ffffffffffffffffffffffffffffffffffffffff168152602001908152602001600020549050919050565b610826610ec2565b73ffffffffffffffffffffffffffffffffffffffff166108446108a6565b73ffffffffffffffffffffffffffffffffffffffff161461089a576040517f08c379a000000000000000000000000000000000000000000000000000000000815260040161089190611c83565b60405180910390fd5b6108a46000611476565b565b6000600660009054906101000a900473ffffffffffffffffffffffffffffffffffffffff16905090565b6060600480546108df90611ea7565b80601f016020809104026020016040519081016040528092919081815260200182805461090b90611ea7565b80156109585780601f1061092d57610100808354040283529160200191610958565b820191906000526020600020905b81548152906001019060200180831161093b57829003601f168201915b5050505050905090565b600760003373ffffffffffffffffffffffffffffffffffffffff1673ffffffffffffffffffffffffffffffffffffffff16815260200190815260200160002060009054906101000a900460ff166109ee576040517f08c379a00000000000000000000000000000000000000000000000000000000081526004016109e590611c43565b60405180910390fd5b6109f8828261153c565b5050565b60008060016000610a0b610ec2565b73ffffffffffffffffffffffffffffffffffffffff1673ffffffffffffffffffffffffffffffffffffffff16815260200190815260200160002060008573ffffffffffffffffffffffffffffffffffffffff1673ffffffffffffffffffffffffffffffffffffffff16815260200190815260200160002054905082811015610ac8576040517f08c379a0000000000000000000000000000000000000000000000000000000008152600401610abf90611d03565b60405180910390fd5b610adc610ad3610ec2565b85858403610eca565b600191505092915050565b610aef610ec2565b73ffffffffffffffffffffffffffffffffffffffff16610b0d6108a6565b73ffffffffffffffffffffffffffffffffffffffff1614610b63576040517f08c379a0000000000000000000000000000000000000000000000000000000008152600401610b5a90611c83565b60405180910390fd5b6001600760008373ffffffffffffffffffffffffffffffffffffffff1673ffffffffffffffffffffffffffffffffffffffff16815260200190815260200160002060006101000a81548160ff02191690831515021790555050565b6000600560009054906101000a900473ffffffffffffffffffffffffffffffffffffffff1673ffffffffffffffffffffffffffffffffffffffff163373ffffffffffffffffffffffffffffffffffffffff1614610c50576040517f08c379a0000000000000000000000000000000000000000000000000000000008152600401610c4790611be3565b60405180910390fd5b610c62610c5b610ec2565b8484611095565b6001905092915050565b6000600160008473ffffffffffffffffffffffffffffffffffffffff1673ffffffffffffffffffffffffffffffffffffffff16815260200190815260200160002060008373ffffffffffffffffffffffffffffffffffffffff1673ffffffffffffffffffffffffffffffffffffffff16815260200190815260200160002054905092915050565b610cfb610ec2565b73ffffffffffffffffffffffffffffffffffffffff16610d196108a6565b73ffffffffffffffffffffffffffffffffffffffff1614610d6f576040517f08c379a0000000000000000000000000000000000000000000000000000000008152600401610d6690611c83565b60405180910390fd5b600073ffffffffffffffffffffffffffffffffffffffff168173ffffffffffffffffffffffffffffffffffffffff161415610ddf576040517f08c379a0000000000000000000000000000000000000000000000000000000008152600401610dd690611ba3565b60405180910390fd5b610de881611476565b50565b610df3610ec2565b73ffffffffffffffffffffffffffffffffffffffff16610e116108a6565b73ffffffffffffffffffffffffffffffffffffffff1614610e67576040517f08c379a0000000000000000000000000000000000000000000000000000000008152600401610e5e90611c83565b60405180910390fd5b6000600760008373ffffffffffffffffffffffffffffffffffffffff1673ffffffffffffffffffffffffffffffffffffffff16815260200190815260200160002060006101000a81548160ff02191690831515021790555050565b600033905090565b600073ffffffffffffffffffffffffffffffffffffffff168373ffffffffffffffffffffffffffffffffffffffff161415610f3a576040517f08c379a0000000000000000000000000000000000000000000000000000000008152600401610f3190611ce3565b60405180910390fd5b600073ffffffffffffffffffffffffffffffffffffffff168273ffffffffffffffffffffffffffffffffffffffff161415610faa576040517f08c379a0000000000000000000000000000000000000000000000000000000008152600401610fa190611bc3565b60405180910390fd5b80600160008573ffffffffffffffffffffffffffffffffffffffff1673ffffffffffffffffffffffffffffffffffffffff16815260200190815260200160002060008473ffffffffffffffffffffffffffffffffffffffff1673ffffffffffffffffffffffffffffffffffffffff168152602001908152602001600020819055508173ffffffffffffffffffffffffffffffffffffffff168373ffffffffffffffffffffffffffffffffffffffff167f8c5be1e5ebec7d5bd14f71427d1e84f3dd0314c0f7b2291e5b200ac8c7c3b925836040516110889190611d43565b60405180910390a3505050565b600073ffffffffffffffffffffffffffffffffffffffff168373ffffffffffffffffffffffffffffffffffffffff161415611105576040517f08c379a00000000000000000000000000000000000000000000000000000000081526004016110fc90611cc3565b60405180910390fd5b600073ffffffffffffffffffffffffffffffffffffffff168273ffffffffffffffffffffffffffffffffffffffff161415611175576040517f08c379a000000000000000000000000000000000000000000000000000000000815260040161116c90611b63565b60405180910390fd5b611180838383611713565b60008060008573ffffffffffffffffffffffffffffffffffffffff1673ffffffffffffffffffffffffffffffffffffffff16815260200190815260200160002054905081811015611206576040517f08c379a00000000000000000000000000000000000000000000000000000000081526004016111fd90611c03565b60405180910390fd5b8181036000808673ffffffffffffffffffffffffffffffffffffffff1673ffffffffffffffffffffffffffffffffffffffff16815260200190815260200160002081905550816000808573ffffffffffffffffffffffffffffffffffffffff1673ffffffffffffffffffffffffffffffffffffffff16815260200190815260200160002060008282546112999190611d95565b925050819055508273ffffffffffffffffffffffffffffffffffffffff168473ffffffffffffffffffffffffffffffffffffffff167fddf252ad1be2c89b69c2b068fc378daa952ba7f163c4a11628f55a4df523b3ef846040516112fd9190611d43565b60405180910390a3611310848484611718565b50505050565b600073ffffffffffffffffffffffffffffffffffffffff168273ffffffffffffffffffffffffffffffffffffffff161415611386576040517f08c379a000000000000000000000000000000000000000000000000000000000815260040161137d90611d23565b60405180910390fd5b61139260008383611713565b80600260008282546113a49190611d95565b92505081905550806000808473ffffffffffffffffffffffffffffffffffffffff1673ffffffffffffffffffffffffffffffffffffffff16815260200190815260200160002060008282546113f99190611d95565b925050819055508173ffffffffffffffffffffffffffffffffffffffff16600073ffffffffffffffffffffffffffffffffffffffff167fddf252ad1be2c89b69c2b068fc378daa952ba7f163c4a11628f55a4df523b3ef8360405161145e9190611d43565b60405180910390a361147260008383611718565b5050565b6000600660009054906101000a900473ffffffffffffffffffffffffffffffffffffffff16905081600660006101000a81548173ffffffffffffffffffffffffffffffffffffffff021916908373ffffffffffffffffffffffffffffffffffffffff1602179055508173ffffffffffffffffffffffffffffffffffffffff168173ffffffffffffffffffffffffffffffffffffffff167f8be0079c531659141344cd1fd0a4f28419497f9722a3daafe3b4186f6b6457e060405160405180910390a35050565b600073ffffffffffffffffffffffffffffffffffffffff168273ffffffffffffffffffffffffffffffffffffffff1614156115ac576040517f08c379a00000000000000000000000000000000000000000000000000000000081526004016115a390611ca3565b60405180910390fd5b6115b882600083611713565b60008060008473ffffffffffffffffffffffffffffffffffffffff1673ffffffffffffffffffffffffffffffffffffffff1681526020019081526020016000205490508181101561163e576040517f08c379a000000000000000000000000000000000000000000000000000000000815260040161163590611b83565b60405180910390fd5b8181036000808573ffffffffffffffffffffffffffffffffffffffff1673ffffffffffffffffffffffffffffffffffffffff1681526020019081526020016000208190555081600260008282546116959190611deb565b92505081905550600073ffffffffffffffffffffffffffffffffffffffff168373ffffffffffffffffffffffffffffffffffffffff167fddf252ad1be2c89b69c2b068fc378daa952ba7f163c4a11628f55a4df523b3ef846040516116fa9190611d43565b60405180910390a361170e83600084611718565b505050565b505050565b505050565b60008135905061172c81612330565b92915050565b60008135905061174181612347565b92915050565b60008151905061175681612347565b92915050565b60006020828403121561177257611771611f37565b5b60006117808482850161171d565b91505092915050565b600080604083850312156117a05761179f611f37565b5b60006117ae8582860161171d565b92505060206117bf8582860161171d565b9150509250929050565b6000806000606084860312156117e2576117e1611f37565b5b60006117f08682870161171d565b93505060206118018682870161171d565b925050604061181286828701611732565b9150509250925092565b6000806040838503121561183357611832611f37565b5b60006118418582860161171d565b925050602061185285828601611732565b9150509250929050565b60006020828403121561187257611871611f37565b5b600061188084828501611747565b91505092915050565b61189281611e1f565b82525050565b6118a181611e31565b82525050565b60006118b282611d79565b6118bc8185611d84565b93506118cc818560208601611e74565b6118d581611f3c565b840191505092915050565b60006118ed602383611d84565b91506118f882611f4d565b604082019050919050565b6000611910602283611d84565b915061191b82611f9c565b604082019050919050565b6000611933602683611d84565b915061193e82611feb565b604082019050919050565b6000611956602283611d84565b91506119618261203a565b604082019050919050565b6000611979601583611d84565b915061198482612089565b602082019050919050565b600061199c602683611d84565b91506119a7826120b2565b604082019050919050565b60006119bf601983611d84565b91506119ca82612101565b602082019050919050565b60006119e2601983611d84565b91506119ed8261212a565b602082019050919050565b6000611a05602883611d84565b9150611a1082612153565b604082019050919050565b6000611a28602083611d84565b9150611a33826121a2565b602082019050919050565b6000611a4b602183611d84565b9150611a56826121cb565b604082019050919050565b6000611a6e602583611d84565b9150611a798261221a565b604082019050919050565b6000611a91602483611d84565b9150611a9c82612269565b604082019050919050565b6000611ab4602583611d84565b9150611abf826122b8565b604082019050919050565b6000611ad7601f83611d84565b9150611ae282612307565b602082019050919050565b611af681611e5d565b82525050565b611b0581611e67565b82525050565b6000602082019050611b206000830184611889565b92915050565b6000602082019050611b3b6000830184611898565b92915050565b60006020820190508181036000830152611b5b81846118a7565b905092915050565b60006020820190508181036000830152611b7c816118e0565b9050919050565b60006020820190508181036000830152611b9c81611903565b9050919050565b60006020820190508181036000830152611bbc81611926565b9050919050565b60006020820190508181036000830152611bdc81611949565b9050919050565b60006020820190508181036000830152611bfc8161196c565b9050919050565b60006020820190508181036000830152611c1c8161198f565b9050919050565b60006020820190508181036000830152611c3c816119b2565b9050919050565b60006020820190508181036000830152611c5c816119d5565b9050919050565b60006020820190508181036000830152611c7c816119f8565b9050919050565b60006020820190508181036000830152611c9c81611a1b565b9050919050565b60006020820190508181036000830152611cbc81611a3e565b9050919050565b60006020820190508181036000830152611cdc81611a61565b9050919050565b60006020820190508181036000830152611cfc81611a84565b9050919050565b60006020820190508181036000830152611d1c81611aa7565b9050919050565b60006020820190508181036000830152611d3c81611aca565b9050919050565b6000602082019050611d586000830184611aed565b92915050565b6000602082019050611d736000830184611afc565b92915050565b600081519050919050565b600082825260208201905092915050565b6000611da082611e5d565b9150611dab83611e5d565b9250827fffffffffffffffffffffffffffffffffffffffffffffffffffffffffffffffff03821115611de057611ddf611ed9565b5b828201905092915050565b6000611df682611e5d565b9150611e0183611e5d565b925082821015611e1457611e13611ed9565b5b828203905092915050565b6000611e2a82611e3d565b9050919050565b60008115159050919050565b600073ffffffffffffffffffffffffffffffffffffffff82169050919050565b6000819050919050565b600060ff82169050919050565b60005b83811015611e92578082015181840152602081019050611e77565b83811115611ea1576000848401525b50505050565b60006002820490506001821680611ebf57607f821691505b60208210811415611ed357611ed2611f08565b5b50919050565b7f4e487b7100000000000000000000000000000000000000000000000000000000600052601160045260246000fd5b7f4e487b7100000000000000000000000000000000000000000000000000000000600052602260045260246000fd5b600080fd5b6000601f19601f8301169050919050565b7f45524332303a207472616e7366657220746f20746865207a65726f206164647260008201527f6573730000000000000000000000000000000000000000000000000000000000602082015250565b7f45524332303a206275726e20616d6f756e7420657863656564732062616c616e60008201527f6365000000000000000000000000000000000000000000000000000000000000602082015250565b7f4f776e61626c653a206e6577206f776e657220697320746865207a65726f206160008201527f6464726573730000000000000000000000000000000000000000000000000000602082015250565b7f45524332303a20617070726f766520746f20746865207a65726f20616464726560008201527f7373000000000000000000000000000000000000000000000000000000000000602082015250565b7f4e6f7420417070726f76656420746f20646f20736f0000000000000000000000600082015250565b7f45524332303a207472616e7366657220616d6f756e742065786365656473206260008201527f616c616e63650000000000000000000000000000000000000000000000000000602082015250565b7f4f6e6c7920636f6e74726f6c6c6572732063616e206d696e7400000000000000600082015250565b7f4f6e6c7920636f6e74726f6c6c6572732063616e206275726e00000000000000600082015250565b7f45524332303a207472616e7366657220616d6f756e742065786365656473206160008201527f6c6c6f77616e6365000000000000000000000000000000000000000000000000602082015250565b7f4f776e61626c653a2063616c6c6572206973206e6f7420746865206f776e6572600082015250565b7f45524332303a206275726e2066726f6d20746865207a65726f2061646472657360008201527f7300000000000000000000000000000000000000000000000000000000000000602082015250565b7f45524332303a207472616e736665722066726f6d20746865207a65726f20616460008201527f6472657373000000000000000000000000000000000000000000000000000000602082015250565b7f45524332303a20617070726f76652066726f6d20746865207a65726f2061646460008201527f7265737300000000000000000000000000000000000000000000000000000000602082015250565b7f45524332303a2064656372656173656420616c6c6f77616e63652062656c6f7760008201527f207a65726f000000000000000000000000000000000000000000000000000000602082015250565b7f45524332303a206d696e7420746f20746865207a65726f206164647265737300600082015250565b61233981611e1f565b811461234457600080fd5b50565b61235081611e5d565b811461235b57600080fd5b5056fea26469706673582212202ee4f016b3f4044f6acf4c9ec857f4d12d3817885bfee4a5862ac4e25cb4a4d964736f6c63430008070033",
					"opcodes": "PUSH1 0x80 PUSH1 0x40 MSTORE CALLVALUE DUP1 ISZERO PUSH3 0x11 JUMPI PUSH1 0x0 DUP1 REVERT JUMPDEST POP PUSH1 0x40 MLOAD DUP1 PUSH1 0x40 ADD PUSH1 0x40 MSTORE DUP1 PUSH1 0xA DUP2 MSTORE PUSH1 0x20 ADD PUSH32 0x57616E642D4261746F6E00000000000000000000000000000000000000000000 DUP2 MSTORE POP PUSH1 0x40 MLOAD DUP1 PUSH1 0x40 ADD PUSH1 0x40 MSTORE DUP1 PUSH1 0x4 DUP2 MSTORE PUSH1 0x20 ADD PUSH32 0x42544F4E00000000000000000000000000000000000000000000000000000000 DUP2 MSTORE POP DUP2 PUSH1 0x3 SWAP1 DUP1 MLOAD SWAP1 PUSH1 0x20 ADD SWAP1 PUSH3 0x96 SWAP3 SWAP2 SWAP1 PUSH3 0x1A6 JUMP JUMPDEST POP DUP1 PUSH1 0x4 SWAP1 DUP1 MLOAD SWAP1 PUSH1 0x20 ADD SWAP1 PUSH3 0xAF SWAP3 SWAP2 SWAP1 PUSH3 0x1A6 JUMP JUMPDEST POP POP POP PUSH3 0xD2 PUSH3 0xC6 PUSH3 0xD8 PUSH1 0x20 SHL PUSH1 0x20 SHR JUMP JUMPDEST PUSH3 0xE0 PUSH1 0x20 SHL PUSH1 0x20 SHR JUMP JUMPDEST PUSH3 0x2BB JUMP JUMPDEST PUSH1 0x0 CALLER SWAP1 POP SWAP1 JUMP JUMPDEST PUSH1 0x0 PUSH1 0x6 PUSH1 0x0 SWAP1 SLOAD SWAP1 PUSH2 0x100 EXP SWAP1 DIV PUSH20 0xFFFFFFFFFFFFFFFFFFFFFFFFFFFFFFFFFFFFFFFF AND SWAP1 POP DUP2 PUSH1 0x6 PUSH1 0x0 PUSH2 0x100 EXP DUP2 SLOAD DUP2 PUSH20 0xFFFFFFFFFFFFFFFFFFFFFFFFFFFFFFFFFFFFFFFF MUL NOT AND SWAP1 DUP4 PUSH20 0xFFFFFFFFFFFFFFFFFFFFFFFFFFFFFFFFFFFFFFFF AND MUL OR SWAP1 SSTORE POP DUP2 PUSH20 0xFFFFFFFFFFFFFFFFFFFFFFFFFFFFFFFFFFFFFFFF AND DUP2 PUSH20 0xFFFFFFFFFFFFFFFFFFFFFFFFFFFFFFFFFFFFFFFF AND PUSH32 0x8BE0079C531659141344CD1FD0A4F28419497F9722A3DAAFE3B4186F6B6457E0 PUSH1 0x40 MLOAD PUSH1 0x40 MLOAD DUP1 SWAP2 SUB SWAP1 LOG3 POP POP JUMP JUMPDEST DUP3 DUP1 SLOAD PUSH3 0x1B4 SWAP1 PUSH3 0x256 JUMP JUMPDEST SWAP1 PUSH1 0x0 MSTORE PUSH1 0x20 PUSH1 0x0 KECCAK256 SWAP1 PUSH1 0x1F ADD PUSH1 0x20 SWAP1 DIV DUP2 ADD SWAP3 DUP3 PUSH3 0x1D8 JUMPI PUSH1 0x0 DUP6 SSTORE PUSH3 0x224 JUMP JUMPDEST DUP3 PUSH1 0x1F LT PUSH3 0x1F3 JUMPI DUP1 MLOAD PUSH1 0xFF NOT AND DUP4 DUP1 ADD OR DUP6 SSTORE PUSH3 0x224 JUMP JUMPDEST DUP3 DUP1 ADD PUSH1 0x1 ADD DUP6 SSTORE DUP3 ISZERO PUSH3 0x224 JUMPI SWAP2 DUP3 ADD JUMPDEST DUP3 DUP2 GT ISZERO PUSH3 0x223 JUMPI DUP3 MLOAD DUP3 SSTORE SWAP2 PUSH1 0x20 ADD SWAP2 SWAP1 PUSH1 0x1 ADD SWAP1 PUSH3 0x206 JUMP JUMPDEST JUMPDEST POP SWAP1 POP PUSH3 0x233 SWAP2 SWAP1 PUSH3 0x237 JUMP JUMPDEST POP SWAP1 JUMP JUMPDEST JUMPDEST DUP1 DUP3 GT ISZERO PUSH3 0x252 JUMPI PUSH1 0x0 DUP2 PUSH1 0x0 SWAP1 SSTORE POP PUSH1 0x1 ADD PUSH3 0x238 JUMP JUMPDEST POP SWAP1 JUMP JUMPDEST PUSH1 0x0 PUSH1 0x2 DUP3 DIV SWAP1 POP PUSH1 0x1 DUP3 AND DUP1 PUSH3 0x26F JUMPI PUSH1 0x7F DUP3 AND SWAP2 POP JUMPDEST PUSH1 0x20 DUP3 LT DUP2 EQ ISZERO PUSH3 0x286 JUMPI PUSH3 0x285 PUSH3 0x28C JUMP JUMPDEST JUMPDEST POP SWAP2 SWAP1 POP JUMP JUMPDEST PUSH32 0x4E487B7100000000000000000000000000000000000000000000000000000000 PUSH1 0x0 MSTORE PUSH1 0x22 PUSH1 0x4 MSTORE PUSH1 0x24 PUSH1 0x0 REVERT JUMPDEST PUSH2 0x2394 DUP1 PUSH3 0x2CB PUSH1 0x0 CODECOPY PUSH1 0x0 RETURN INVALID PUSH1 0x80 PUSH1 0x40 MSTORE CALLVALUE DUP1 ISZERO PUSH2 0x10 JUMPI PUSH1 0x0 DUP1 REVERT JUMPDEST POP PUSH1 0x4 CALLDATASIZE LT PUSH2 0x121 JUMPI PUSH1 0x0 CALLDATALOAD PUSH1 0xE0 SHR DUP1 PUSH4 0x715018A6 GT PUSH2 0xAD JUMPI DUP1 PUSH4 0xA7FC7A07 GT PUSH2 0x71 JUMPI DUP1 PUSH4 0xA7FC7A07 EQ PUSH2 0x30C JUMPI DUP1 PUSH4 0xA9059CBB EQ PUSH2 0x328 JUMPI DUP1 PUSH4 0xDD62ED3E EQ PUSH2 0x358 JUMPI DUP1 PUSH4 0xF2FDE38B EQ PUSH2 0x388 JUMPI DUP1 PUSH4 0xF6A74ED7 EQ PUSH2 0x3A4 JUMPI PUSH2 0x121 JUMP JUMPDEST DUP1 PUSH4 0x715018A6 EQ PUSH2 0x27A JUMPI DUP1 PUSH4 0x8DA5CB5B EQ PUSH2 0x284 JUMPI DUP1 PUSH4 0x95D89B41 EQ PUSH2 0x2A2 JUMPI DUP1 PUSH4 0x9DC29FAC EQ PUSH2 0x2C0 JUMPI DUP1 PUSH4 0xA457C2D7 EQ PUSH2 0x2DC JUMPI PUSH2 0x121 JUMP JUMPDEST DUP1 PUSH4 0x2E54606A GT PUSH2 0xF4 JUMPI DUP1 PUSH4 0x2E54606A EQ PUSH2 0x1C2 JUMPI DUP1 PUSH4 0x313CE567 EQ PUSH2 0x1E0 JUMPI DUP1 PUSH4 0x39509351 EQ PUSH2 0x1FE JUMPI DUP1 PUSH4 0x40C10F19 EQ PUSH2 0x22E JUMPI DUP1 PUSH4 0x70A08231 EQ PUSH2 0x24A JUMPI PUSH2 0x121 JUMP JUMPDEST DUP1 PUSH4 0x6FDDE03 EQ PUSH2 0x126 JUMPI DUP1 PUSH4 0x95EA7B3 EQ PUSH2 0x144 JUMPI DUP1 PUSH4 0x18160DDD EQ PUSH2 0x174 JUMPI DUP1 PUSH4 0x23B872DD EQ PUSH2 0x192 JUMPI JUMPDEST PUSH1 0x0 DUP1 REVERT JUMPDEST PUSH2 0x12E PUSH2 0x3C0 JUMP JUMPDEST PUSH1 0x40 MLOAD PUSH2 0x13B SWAP2 SWAP1 PUSH2 0x1B41 JUMP JUMPDEST PUSH1 0x40 MLOAD DUP1 SWAP2 SUB SWAP1 RETURN JUMPDEST PUSH2 0x15E PUSH1 0x4 DUP1 CALLDATASIZE SUB DUP2 ADD SWAP1 PUSH2 0x159 SWAP2 SWAP1 PUSH2 0x181C JUMP JUMPDEST PUSH2 0x452 JUMP JUMPDEST PUSH1 0x40 MLOAD PUSH2 0x16B SWAP2 SWAP1 PUSH2 0x1B26 JUMP JUMPDEST PUSH1 0x40 MLOAD DUP1 SWAP2 SUB SWAP1 RETURN JUMPDEST PUSH2 0x17C PUSH2 0x470 JUMP JUMPDEST PUSH1 0x40 MLOAD PUSH2 0x189 SWAP2 SWAP1 PUSH2 0x1D43 JUMP JUMPDEST PUSH1 0x40 MLOAD DUP1 SWAP2 SUB SWAP1 RETURN JUMPDEST PUSH2 0x1AC PUSH1 0x4 DUP1 CALLDATASIZE SUB DUP2 ADD SWAP1 PUSH2 0x1A7 SWAP2 SWAP1 PUSH2 0x17C9 JUMP JUMPDEST PUSH2 0x47A JUMP JUMPDEST PUSH1 0x40 MLOAD PUSH2 0x1B9 SWAP2 SWAP1 PUSH2 0x1B26 JUMP JUMPDEST PUSH1 0x40 MLOAD DUP1 SWAP2 SUB SWAP1 RETURN JUMPDEST PUSH2 0x1CA PUSH2 0x602 JUMP JUMPDEST PUSH1 0x40 MLOAD PUSH2 0x1D7 SWAP2 SWAP1 PUSH2 0x1D43 JUMP JUMPDEST PUSH1 0x40 MLOAD DUP1 SWAP2 SUB SWAP1 RETURN JUMPDEST PUSH2 0x1E8 PUSH2 0x687 JUMP JUMPDEST PUSH1 0x40 MLOAD PUSH2 0x1F5 SWAP2 SWAP1 PUSH2 0x1D5E JUMP JUMPDEST PUSH1 0x40 MLOAD DUP1 SWAP2 SUB SWAP1 RETURN JUMPDEST PUSH2 0x218 PUSH1 0x4 DUP1 CALLDATASIZE SUB DUP2 ADD SWAP1 PUSH2 0x213 SWAP2 SWAP1 PUSH2 0x181C JUMP JUMPDEST PUSH2 0x690 JUMP JUMPDEST PUSH1 0x40 MLOAD PUSH2 0x225 SWAP2 SWAP1 PUSH2 0x1B26 JUMP JUMPDEST PUSH1 0x40 MLOAD DUP1 SWAP2 SUB SWAP1 RETURN JUMPDEST PUSH2 0x248 PUSH1 0x4 DUP1 CALLDATASIZE SUB DUP2 ADD SWAP1 PUSH2 0x243 SWAP2 SWAP1 PUSH2 0x181C JUMP JUMPDEST PUSH2 0x73C JUMP JUMPDEST STOP JUMPDEST PUSH2 0x264 PUSH1 0x4 DUP1 CALLDATASIZE SUB DUP2 ADD SWAP1 PUSH2 0x25F SWAP2 SWAP1 PUSH2 0x175C JUMP JUMPDEST PUSH2 0x7D6 JUMP JUMPDEST PUSH1 0x40 MLOAD PUSH2 0x271 SWAP2 SWAP1 PUSH2 0x1D43 JUMP JUMPDEST PUSH1 0x40 MLOAD DUP1 SWAP2 SUB SWAP1 RETURN JUMPDEST PUSH2 0x282 PUSH2 0x81E JUMP JUMPDEST STOP JUMPDEST PUSH2 0x28C PUSH2 0x8A6 JUMP JUMPDEST PUSH1 0x40 MLOAD PUSH2 0x299 SWAP2 SWAP1 PUSH2 0x1B0B JUMP JUMPDEST PUSH1 0x40 MLOAD DUP1 SWAP2 SUB SWAP1 RETURN JUMPDEST PUSH2 0x2AA PUSH2 0x8D0 JUMP JUMPDEST PUSH1 0x40 MLOAD PUSH2 0x2B7 SWAP2 SWAP1 PUSH2 0x1B41 JUMP JUMPDEST PUSH1 0x40 MLOAD DUP1 SWAP2 SUB SWAP1 RETURN JUMPDEST PUSH2 0x2DA PUSH1 0x4 DUP1 CALLDATASIZE SUB DUP2 ADD SWAP1 PUSH2 0x2D5 SWAP2 SWAP1 PUSH2 0x181C JUMP JUMPDEST PUSH2 0x962 JUMP JUMPDEST STOP JUMPDEST PUSH2 0x2F6 PUSH1 0x4 DUP1 CALLDATASIZE SUB DUP2 ADD SWAP1 PUSH2 0x2F1 SWAP2 SWAP1 PUSH2 0x181C JUMP JUMPDEST PUSH2 0x9FC JUMP JUMPDEST PUSH1 0x40 MLOAD PUSH2 0x303 SWAP2 SWAP1 PUSH2 0x1B26 JUMP JUMPDEST PUSH1 0x40 MLOAD DUP1 SWAP2 SUB SWAP1 RETURN JUMPDEST PUSH2 0x326 PUSH1 0x4 DUP1 CALLDATASIZE SUB DUP2 ADD SWAP1 PUSH2 0x321 SWAP2 SWAP1 PUSH2 0x175C JUMP JUMPDEST PUSH2 0xAE7 JUMP JUMPDEST STOP JUMPDEST PUSH2 0x342 PUSH1 0x4 DUP1 CALLDATASIZE SUB DUP2 ADD SWAP1 PUSH2 0x33D SWAP2 SWAP1 PUSH2 0x181C JUMP JUMPDEST PUSH2 0xBBE JUMP JUMPDEST PUSH1 0x40 MLOAD PUSH2 0x34F SWAP2 SWAP1 PUSH2 0x1B26 JUMP JUMPDEST PUSH1 0x40 MLOAD DUP1 SWAP2 SUB SWAP1 RETURN JUMPDEST PUSH2 0x372 PUSH1 0x4 DUP1 CALLDATASIZE SUB DUP2 ADD SWAP1 PUSH2 0x36D SWAP2 SWAP1 PUSH2 0x1789 JUMP JUMPDEST PUSH2 0xC6C JUMP JUMPDEST PUSH1 0x40 MLOAD PUSH2 0x37F SWAP2 SWAP1 PUSH2 0x1D43 JUMP JUMPDEST PUSH1 0x40 MLOAD DUP1 SWAP2 SUB SWAP1 RETURN JUMPDEST PUSH2 0x3A2 PUSH1 0x4 DUP1 CALLDATASIZE SUB DUP2 ADD SWAP1 PUSH2 0x39D SWAP2 SWAP1 PUSH2 0x175C JUMP JUMPDEST PUSH2 0xCF3 JUMP JUMPDEST STOP JUMPDEST PUSH2 0x3BE PUSH1 0x4 DUP1 CALLDATASIZE SUB DUP2 ADD SWAP1 PUSH2 0x3B9 SWAP2 SWAP1 PUSH2 0x175C JUMP JUMPDEST PUSH2 0xDEB JUMP JUMPDEST STOP JUMPDEST PUSH1 0x60 PUSH1 0x3 DUP1 SLOAD PUSH2 0x3CF SWAP1 PUSH2 0x1EA7 JUMP JUMPDEST DUP1 PUSH1 0x1F ADD PUSH1 0x20 DUP1 SWAP2 DIV MUL PUSH1 0x20 ADD PUSH1 0x40 MLOAD SWAP1 DUP2 ADD PUSH1 0x40 MSTORE DUP1 SWAP3 SWAP2 SWAP1 DUP2 DUP2 MSTORE PUSH1 0x20 ADD DUP3 DUP1 SLOAD PUSH2 0x3FB SWAP1 PUSH2 0x1EA7 JUMP JUMPDEST DUP1 ISZERO PUSH2 0x448 JUMPI DUP1 PUSH1 0x1F LT PUSH2 0x41D JUMPI PUSH2 0x100 DUP1 DUP4 SLOAD DIV MUL DUP4 MSTORE SWAP2 PUSH1 0x20 ADD SWAP2 PUSH2 0x448 JUMP JUMPDEST DUP3 ADD SWAP2 SWAP1 PUSH1 0x0 MSTORE PUSH1 0x20 PUSH1 0x0 KECCAK256 SWAP1 JUMPDEST DUP2 SLOAD DUP2 MSTORE SWAP1 PUSH1 0x1 ADD SWAP1 PUSH1 0x20 ADD DUP1 DUP4 GT PUSH2 0x42B JUMPI DUP3 SWAP1 SUB PUSH1 0x1F AND DUP3 ADD SWAP2 JUMPDEST POP POP POP POP POP SWAP1 POP SWAP1 JUMP JUMPDEST PUSH1 0x0 PUSH2 0x466 PUSH2 0x45F PUSH2 0xEC2 JUMP JUMPDEST DUP5 DUP5 PUSH2 0xECA JUMP JUMPDEST PUSH1 0x1 SWAP1 POP SWAP3 SWAP2 POP POP JUMP JUMPDEST PUSH1 0x0 PUSH1 0x2 SLOAD SWAP1 POP SWAP1 JUMP JUMPDEST PUSH1 0x0 PUSH1 0x5 PUSH1 0x0 SWAP1 SLOAD SWAP1 PUSH2 0x100 EXP SWAP1 DIV PUSH20 0xFFFFFFFFFFFFFFFFFFFFFFFFFFFFFFFFFFFFFFFF AND PUSH20 0xFFFFFFFFFFFFFFFFFFFFFFFFFFFFFFFFFFFFFFFF AND CALLER PUSH20 0xFFFFFFFFFFFFFFFFFFFFFFFFFFFFFFFFFFFFFFFF AND EQ PUSH2 0x50C JUMPI PUSH1 0x40 MLOAD PUSH32 0x8C379A000000000000000000000000000000000000000000000000000000000 DUP2 MSTORE PUSH1 0x4 ADD PUSH2 0x503 SWAP1 PUSH2 0x1BE3 JUMP JUMPDEST PUSH1 0x40 MLOAD DUP1 SWAP2 SUB SWAP1 REVERT JUMPDEST PUSH2 0x517 DUP5 DUP5 DUP5 PUSH2 0x1095 JUMP JUMPDEST PUSH1 0x0 PUSH1 0x1 PUSH1 0x0 DUP7 PUSH20 0xFFFFFFFFFFFFFFFFFFFFFFFFFFFFFFFFFFFFFFFF AND PUSH20 0xFFFFFFFFFFFFFFFFFFFFFFFFFFFFFFFFFFFFFFFF AND DUP2 MSTORE PUSH1 0x20 ADD SWAP1 DUP2 MSTORE PUSH1 0x20 ADD PUSH1 0x0 KECCAK256 PUSH1 0x0 PUSH2 0x562 PUSH2 0xEC2 JUMP JUMPDEST PUSH20 0xFFFFFFFFFFFFFFFFFFFFFFFFFFFFFFFFFFFFFFFF AND PUSH20 0xFFFFFFFFFFFFFFFFFFFFFFFFFFFFFFFFFFFFFFFF AND DUP2 MSTORE PUSH1 0x20 ADD SWAP1 DUP2 MSTORE PUSH1 0x20 ADD PUSH1 0x0 KECCAK256 SLOAD SWAP1 POP DUP3 DUP2 LT ISZERO PUSH2 0x5E2 JUMPI PUSH1 0x40 MLOAD PUSH32 0x8C379A000000000000000000000000000000000000000000000000000000000 DUP2 MSTORE PUSH1 0x4 ADD PUSH2 0x5D9 SWAP1 PUSH2 0x1C63 JUMP JUMPDEST PUSH1 0x40 MLOAD DUP1 SWAP2 SUB SWAP1 REVERT JUMPDEST PUSH2 0x5F6 DUP6 PUSH2 0x5EE PUSH2 0xEC2 JUMP JUMPDEST DUP6 DUP5 SUB PUSH2 0xECA JUMP JUMPDEST PUSH1 0x1 SWAP2 POP POP SWAP4 SWAP3 POP POP POP JUMP JUMPDEST PUSH1 0x0 ADDRESS PUSH20 0xFFFFFFFFFFFFFFFFFFFFFFFFFFFFFFFFFFFFFFFF AND PUSH4 0x18160DDD PUSH1 0x40 MLOAD DUP2 PUSH4 0xFFFFFFFF AND PUSH1 0xE0 SHL DUP2 MSTORE PUSH1 0x4 ADD PUSH1 0x20 PUSH1 0x40 MLOAD DUP1 DUP4 SUB DUP2 DUP7 DUP1 EXTCODESIZE ISZERO DUP1 ISZERO PUSH2 0x64A JUMPI PUSH1 0x0 DUP1 REVERT JUMPDEST POP GAS STATICCALL ISZERO DUP1 ISZERO PUSH2 0x65E JUMPI RETURNDATASIZE PUSH1 0x0 DUP1 RETURNDATACOPY RETURNDATASIZE PUSH1 0x0 REVERT JUMPDEST POP POP POP POP PUSH1 0x40 MLOAD RETURNDATASIZE PUSH1 0x1F NOT PUSH1 0x1F DUP3 ADD AND DUP3 ADD DUP1 PUSH1 0x40 MSTORE POP DUP2 ADD SWAP1 PUSH2 0x682 SWAP2 SWAP1 PUSH2 0x185C JUMP JUMPDEST SWAP1 POP SWAP1 JUMP JUMPDEST PUSH1 0x0 PUSH1 0x12 SWAP1 POP SWAP1 JUMP JUMPDEST PUSH1 0x0 PUSH2 0x732 PUSH2 0x69D PUSH2 0xEC2 JUMP JUMPDEST DUP5 DUP5 PUSH1 0x1 PUSH1 0x0 PUSH2 0x6AB PUSH2 0xEC2 JUMP JUMPDEST PUSH20 0xFFFFFFFFFFFFFFFFFFFFFFFFFFFFFFFFFFFFFFFF AND PUSH20 0xFFFFFFFFFFFFFFFFFFFFFFFFFFFFFFFFFFFFFFFF AND DUP2 MSTORE PUSH1 0x20 ADD SWAP1 DUP2 MSTORE PUSH1 0x20 ADD PUSH1 0x0 KECCAK256 PUSH1 0x0 DUP9 PUSH20 0xFFFFFFFFFFFFFFFFFFFFFFFFFFFFFFFFFFFFFFFF AND PUSH20 0xFFFFFFFFFFFFFFFFFFFFFFFFFFFFFFFFFFFFFFFF AND DUP2 MSTORE PUSH1 0x20 ADD SWAP1 DUP2 MSTORE PUSH1 0x20 ADD PUSH1 0x0 KECCAK256 SLOAD PUSH2 0x72D SWAP2 SWAP1 PUSH2 0x1D95 JUMP JUMPDEST PUSH2 0xECA JUMP JUMPDEST PUSH1 0x1 SWAP1 POP SWAP3 SWAP2 POP POP JUMP JUMPDEST PUSH1 0x7 PUSH1 0x0 CALLER PUSH20 0xFFFFFFFFFFFFFFFFFFFFFFFFFFFFFFFFFFFFFFFF AND PUSH20 0xFFFFFFFFFFFFFFFFFFFFFFFFFFFFFFFFFFFFFFFF AND DUP2 MSTORE PUSH1 0x20 ADD SWAP1 DUP2 MSTORE PUSH1 0x20 ADD PUSH1 0x0 KECCAK256 PUSH1 0x0 SWAP1 SLOAD SWAP1 PUSH2 0x100 EXP SWAP1 DIV PUSH1 0xFF AND PUSH2 0x7C8 JUMPI PUSH1 0x40 MLOAD PUSH32 0x8C379A000000000000000000000000000000000000000000000000000000000 DUP2 MSTORE PUSH1 0x4 ADD PUSH2 0x7BF SWAP1 PUSH2 0x1C23 JUMP JUMPDEST PUSH1 0x40 MLOAD DUP1 SWAP2 SUB SWAP1 REVERT JUMPDEST PUSH2 0x7D2 DUP3 DUP3 PUSH2 0x1316 JUMP JUMPDEST POP POP JUMP JUMPDEST PUSH1 0x0 DUP1 PUSH1 0x0 DUP4 PUSH20 0xFFFFFFFFFFFFFFFFFFFFFFFFFFFFFFFFFFFFFFFF AND PUSH20 0xFFFFFFFFFFFFFFFFFFFFFFFFFFFFFFFFFFFFFFFF AND DUP2 MSTORE PUSH1 0x20 ADD SWAP1 DUP2 MSTORE PUSH1 0x20 ADD PUSH1 0x0 KECCAK256 SLOAD SWAP1 POP SWAP2 SWAP1 POP JUMP JUMPDEST PUSH2 0x826 PUSH2 0xEC2 JUMP JUMPDEST PUSH20 0xFFFFFFFFFFFFFFFFFFFFFFFFFFFFFFFFFFFFFFFF AND PUSH2 0x844 PUSH2 0x8A6 JUMP JUMPDEST PUSH20 0xFFFFFFFFFFFFFFFFFFFFFFFFFFFFFFFFFFFFFFFF AND EQ PUSH2 0x89A JUMPI PUSH1 0x40 MLOAD PUSH32 0x8C379A000000000000000000000000000000000000000000000000000000000 DUP2 MSTORE PUSH1 0x4 ADD PUSH2 0x891 SWAP1 PUSH2 0x1C83 JUMP JUMPDEST PUSH1 0x40 MLOAD DUP1 SWAP2 SUB SWAP1 REVERT JUMPDEST PUSH2 0x8A4 PUSH1 0x0 PUSH2 0x1476 JUMP JUMPDEST JUMP JUMPDEST PUSH1 0x0 PUSH1 0x6 PUSH1 0x0 SWAP1 SLOAD SWAP1 PUSH2 0x100 EXP SWAP1 DIV PUSH20 0xFFFFFFFFFFFFFFFFFFFFFFFFFFFFFFFFFFFFFFFF AND SWAP1 POP SWAP1 JUMP JUMPDEST PUSH1 0x60 PUSH1 0x4 DUP1 SLOAD PUSH2 0x8DF SWAP1 PUSH2 0x1EA7 JUMP JUMPDEST DUP1 PUSH1 0x1F ADD PUSH1 0x20 DUP1 SWAP2 DIV MUL PUSH1 0x20 ADD PUSH1 0x40 MLOAD SWAP1 DUP2 ADD PUSH1 0x40 MSTORE DUP1 SWAP3 SWAP2 SWAP1 DUP2 DUP2 MSTORE PUSH1 0x20 ADD DUP3 DUP1 SLOAD PUSH2 0x90B SWAP1 PUSH2 0x1EA7 JUMP JUMPDEST DUP1 ISZERO PUSH2 0x958 JUMPI DUP1 PUSH1 0x1F LT PUSH2 0x92D JUMPI PUSH2 0x100 DUP1 DUP4 SLOAD DIV MUL DUP4 MSTORE SWAP2 PUSH1 0x20 ADD SWAP2 PUSH2 0x958 JUMP JUMPDEST DUP3 ADD SWAP2 SWAP1 PUSH1 0x0 MSTORE PUSH1 0x20 PUSH1 0x0 KECCAK256 SWAP1 JUMPDEST DUP2 SLOAD DUP2 MSTORE SWAP1 PUSH1 0x1 ADD SWAP1 PUSH1 0x20 ADD DUP1 DUP4 GT PUSH2 0x93B JUMPI DUP3 SWAP1 SUB PUSH1 0x1F AND DUP3 ADD SWAP2 JUMPDEST POP POP POP POP POP SWAP1 POP SWAP1 JUMP JUMPDEST PUSH1 0x7 PUSH1 0x0 CALLER PUSH20 0xFFFFFFFFFFFFFFFFFFFFFFFFFFFFFFFFFFFFFFFF AND PUSH20 0xFFFFFFFFFFFFFFFFFFFFFFFFFFFFFFFFFFFFFFFF AND DUP2 MSTORE PUSH1 0x20 ADD SWAP1 DUP2 MSTORE PUSH1 0x20 ADD PUSH1 0x0 KECCAK256 PUSH1 0x0 SWAP1 SLOAD SWAP1 PUSH2 0x100 EXP SWAP1 DIV PUSH1 0xFF AND PUSH2 0x9EE JUMPI PUSH1 0x40 MLOAD PUSH32 0x8C379A000000000000000000000000000000000000000000000000000000000 DUP2 MSTORE PUSH1 0x4 ADD PUSH2 0x9E5 SWAP1 PUSH2 0x1C43 JUMP JUMPDEST PUSH1 0x40 MLOAD DUP1 SWAP2 SUB SWAP1 REVERT JUMPDEST PUSH2 0x9F8 DUP3 DUP3 PUSH2 0x153C JUMP JUMPDEST POP POP JUMP JUMPDEST PUSH1 0x0 DUP1 PUSH1 0x1 PUSH1 0x0 PUSH2 0xA0B PUSH2 0xEC2 JUMP JUMPDEST PUSH20 0xFFFFFFFFFFFFFFFFFFFFFFFFFFFFFFFFFFFFFFFF AND PUSH20 0xFFFFFFFFFFFFFFFFFFFFFFFFFFFFFFFFFFFFFFFF AND DUP2 MSTORE PUSH1 0x20 ADD SWAP1 DUP2 MSTORE PUSH1 0x20 ADD PUSH1 0x0 KECCAK256 PUSH1 0x0 DUP6 PUSH20 0xFFFFFFFFFFFFFFFFFFFFFFFFFFFFFFFFFFFFFFFF AND PUSH20 0xFFFFFFFFFFFFFFFFFFFFFFFFFFFFFFFFFFFFFFFF AND DUP2 MSTORE PUSH1 0x20 ADD SWAP1 DUP2 MSTORE PUSH1 0x20 ADD PUSH1 0x0 KECCAK256 SLOAD SWAP1 POP DUP3 DUP2 LT ISZERO PUSH2 0xAC8 JUMPI PUSH1 0x40 MLOAD PUSH32 0x8C379A000000000000000000000000000000000000000000000000000000000 DUP2 MSTORE PUSH1 0x4 ADD PUSH2 0xABF SWAP1 PUSH2 0x1D03 JUMP JUMPDEST PUSH1 0x40 MLOAD DUP1 SWAP2 SUB SWAP1 REVERT JUMPDEST PUSH2 0xADC PUSH2 0xAD3 PUSH2 0xEC2 JUMP JUMPDEST DUP6 DUP6 DUP5 SUB PUSH2 0xECA JUMP JUMPDEST PUSH1 0x1 SWAP2 POP POP SWAP3 SWAP2 POP POP JUMP JUMPDEST PUSH2 0xAEF PUSH2 0xEC2 JUMP JUMPDEST PUSH20 0xFFFFFFFFFFFFFFFFFFFFFFFFFFFFFFFFFFFFFFFF AND PUSH2 0xB0D PUSH2 0x8A6 JUMP JUMPDEST PUSH20 0xFFFFFFFFFFFFFFFFFFFFFFFFFFFFFFFFFFFFFFFF AND EQ PUSH2 0xB63 JUMPI PUSH1 0x40 MLOAD PUSH32 0x8C379A000000000000000000000000000000000000000000000000000000000 DUP2 MSTORE PUSH1 0x4 ADD PUSH2 0xB5A SWAP1 PUSH2 0x1C83 JUMP JUMPDEST PUSH1 0x40 MLOAD DUP1 SWAP2 SUB SWAP1 REVERT JUMPDEST PUSH1 0x1 PUSH1 0x7 PUSH1 0x0 DUP4 PUSH20 0xFFFFFFFFFFFFFFFFFFFFFFFFFFFFFFFFFFFFFFFF AND PUSH20 0xFFFFFFFFFFFFFFFFFFFFFFFFFFFFFFFFFFFFFFFF AND DUP2 MSTORE PUSH1 0x20 ADD SWAP1 DUP2 MSTORE PUSH1 0x20 ADD PUSH1 0x0 KECCAK256 PUSH1 0x0 PUSH2 0x100 EXP DUP2 SLOAD DUP2 PUSH1 0xFF MUL NOT AND SWAP1 DUP4 ISZERO ISZERO MUL OR SWAP1 SSTORE POP POP JUMP JUMPDEST PUSH1 0x0 PUSH1 0x5 PUSH1 0x0 SWAP1 SLOAD SWAP1 PUSH2 0x100 EXP SWAP1 DIV PUSH20 0xFFFFFFFFFFFFFFFFFFFFFFFFFFFFFFFFFFFFFFFF AND PUSH20 0xFFFFFFFFFFFFFFFFFFFFFFFFFFFFFFFFFFFFFFFF AND CALLER PUSH20 0xFFFFFFFFFFFFFFFFFFFFFFFFFFFFFFFFFFFFFFFF AND EQ PUSH2 0xC50 JUMPI PUSH1 0x40 MLOAD PUSH32 0x8C379A000000000000000000000000000000000000000000000000000000000 DUP2 MSTORE PUSH1 0x4 ADD PUSH2 0xC47 SWAP1 PUSH2 0x1BE3 JUMP JUMPDEST PUSH1 0x40 MLOAD DUP1 SWAP2 SUB SWAP1 REVERT JUMPDEST PUSH2 0xC62 PUSH2 0xC5B PUSH2 0xEC2 JUMP JUMPDEST DUP5 DUP5 PUSH2 0x1095 JUMP JUMPDEST PUSH1 0x1 SWAP1 POP SWAP3 SWAP2 POP POP JUMP JUMPDEST PUSH1 0x0 PUSH1 0x1 PUSH1 0x0 DUP5 PUSH20 0xFFFFFFFFFFFFFFFFFFFFFFFFFFFFFFFFFFFFFFFF AND PUSH20 0xFFFFFFFFFFFFFFFFFFFFFFFFFFFFFFFFFFFFFFFF AND DUP2 MSTORE PUSH1 0x20 ADD SWAP1 DUP2 MSTORE PUSH1 0x20 ADD PUSH1 0x0 KECCAK256 PUSH1 0x0 DUP4 PUSH20 0xFFFFFFFFFFFFFFFFFFFFFFFFFFFFFFFFFFFFFFFF AND PUSH20 0xFFFFFFFFFFFFFFFFFFFFFFFFFFFFFFFFFFFFFFFF AND DUP2 MSTORE PUSH1 0x20 ADD SWAP1 DUP2 MSTORE PUSH1 0x20 ADD PUSH1 0x0 KECCAK256 SLOAD SWAP1 POP SWAP3 SWAP2 POP POP JUMP JUMPDEST PUSH2 0xCFB PUSH2 0xEC2 JUMP JUMPDEST PUSH20 0xFFFFFFFFFFFFFFFFFFFFFFFFFFFFFFFFFFFFFFFF AND PUSH2 0xD19 PUSH2 0x8A6 JUMP JUMPDEST PUSH20 0xFFFFFFFFFFFFFFFFFFFFFFFFFFFFFFFFFFFFFFFF AND EQ PUSH2 0xD6F JUMPI PUSH1 0x40 MLOAD PUSH32 0x8C379A000000000000000000000000000000000000000000000000000000000 DUP2 MSTORE PUSH1 0x4 ADD PUSH2 0xD66 SWAP1 PUSH2 0x1C83 JUMP JUMPDEST PUSH1 0x40 MLOAD DUP1 SWAP2 SUB SWAP1 REVERT JUMPDEST PUSH1 0x0 PUSH20 0xFFFFFFFFFFFFFFFFFFFFFFFFFFFFFFFFFFFFFFFF AND DUP2 PUSH20 0xFFFFFFFFFFFFFFFFFFFFFFFFFFFFFFFFFFFFFFFF AND EQ ISZERO PUSH2 0xDDF JUMPI PUSH1 0x40 MLOAD PUSH32 0x8C379A000000000000000000000000000000000000000000000000000000000 DUP2 MSTORE PUSH1 0x4 ADD PUSH2 0xDD6 SWAP1 PUSH2 0x1BA3 JUMP JUMPDEST PUSH1 0x40 MLOAD DUP1 SWAP2 SUB SWAP1 REVERT JUMPDEST PUSH2 0xDE8 DUP2 PUSH2 0x1476 JUMP JUMPDEST POP JUMP JUMPDEST PUSH2 0xDF3 PUSH2 0xEC2 JUMP JUMPDEST PUSH20 0xFFFFFFFFFFFFFFFFFFFFFFFFFFFFFFFFFFFFFFFF AND PUSH2 0xE11 PUSH2 0x8A6 JUMP JUMPDEST PUSH20 0xFFFFFFFFFFFFFFFFFFFFFFFFFFFFFFFFFFFFFFFF AND EQ PUSH2 0xE67 JUMPI PUSH1 0x40 MLOAD PUSH32 0x8C379A000000000000000000000000000000000000000000000000000000000 DUP2 MSTORE PUSH1 0x4 ADD PUSH2 0xE5E SWAP1 PUSH2 0x1C83 JUMP JUMPDEST PUSH1 0x40 MLOAD DUP1 SWAP2 SUB SWAP1 REVERT JUMPDEST PUSH1 0x0 PUSH1 0x7 PUSH1 0x0 DUP4 PUSH20 0xFFFFFFFFFFFFFFFFFFFFFFFFFFFFFFFFFFFFFFFF AND PUSH20 0xFFFFFFFFFFFFFFFFFFFFFFFFFFFFFFFFFFFFFFFF AND DUP2 MSTORE PUSH1 0x20 ADD SWAP1 DUP2 MSTORE PUSH1 0x20 ADD PUSH1 0x0 KECCAK256 PUSH1 0x0 PUSH2 0x100 EXP DUP2 SLOAD DUP2 PUSH1 0xFF MUL NOT AND SWAP1 DUP4 ISZERO ISZERO MUL OR SWAP1 SSTORE POP POP JUMP JUMPDEST PUSH1 0x0 CALLER SWAP1 POP SWAP1 JUMP JUMPDEST PUSH1 0x0 PUSH20 0xFFFFFFFFFFFFFFFFFFFFFFFFFFFFFFFFFFFFFFFF AND DUP4 PUSH20 0xFFFFFFFFFFFFFFFFFFFFFFFFFFFFFFFFFFFFFFFF AND EQ ISZERO PUSH2 0xF3A JUMPI PUSH1 0x40 MLOAD PUSH32 0x8C379A000000000000000000000000000000000000000000000000000000000 DUP2 MSTORE PUSH1 0x4 ADD PUSH2 0xF31 SWAP1 PUSH2 0x1CE3 JUMP JUMPDEST PUSH1 0x40 MLOAD DUP1 SWAP2 SUB SWAP1 REVERT JUMPDEST PUSH1 0x0 PUSH20 0xFFFFFFFFFFFFFFFFFFFFFFFFFFFFFFFFFFFFFFFF AND DUP3 PUSH20 0xFFFFFFFFFFFFFFFFFFFFFFFFFFFFFFFFFFFFFFFF AND EQ ISZERO PUSH2 0xFAA JUMPI PUSH1 0x40 MLOAD PUSH32 0x8C379A000000000000000000000000000000000000000000000000000000000 DUP2 MSTORE PUSH1 0x4 ADD PUSH2 0xFA1 SWAP1 PUSH2 0x1BC3 JUMP JUMPDEST PUSH1 0x40 MLOAD DUP1 SWAP2 SUB SWAP1 REVERT JUMPDEST DUP1 PUSH1 0x1 PUSH1 0x0 DUP6 PUSH20 0xFFFFFFFFFFFFFFFFFFFFFFFFFFFFFFFFFFFFFFFF AND PUSH20 0xFFFFFFFFFFFFFFFFFFFFFFFFFFFFFFFFFFFFFFFF AND DUP2 MSTORE PUSH1 0x20 ADD SWAP1 DUP2 MSTORE PUSH1 0x20 ADD PUSH1 0x0 KECCAK256 PUSH1 0x0 DUP5 PUSH20 0xFFFFFFFFFFFFFFFFFFFFFFFFFFFFFFFFFFFFFFFF AND PUSH20 0xFFFFFFFFFFFFFFFFFFFFFFFFFFFFFFFFFFFFFFFF AND DUP2 MSTORE PUSH1 0x20 ADD SWAP1 DUP2 MSTORE PUSH1 0x20 ADD PUSH1 0x0 KECCAK256 DUP2 SWAP1 SSTORE POP DUP2 PUSH20 0xFFFFFFFFFFFFFFFFFFFFFFFFFFFFFFFFFFFFFFFF AND DUP4 PUSH20 0xFFFFFFFFFFFFFFFFFFFFFFFFFFFFFFFFFFFFFFFF AND PUSH32 0x8C5BE1E5EBEC7D5BD14F71427D1E84F3DD0314C0F7B2291E5B200AC8C7C3B925 DUP4 PUSH1 0x40 MLOAD PUSH2 0x1088 SWAP2 SWAP1 PUSH2 0x1D43 JUMP JUMPDEST PUSH1 0x40 MLOAD DUP1 SWAP2 SUB SWAP1 LOG3 POP POP POP JUMP JUMPDEST PUSH1 0x0 PUSH20 0xFFFFFFFFFFFFFFFFFFFFFFFFFFFFFFFFFFFFFFFF AND DUP4 PUSH20 0xFFFFFFFFFFFFFFFFFFFFFFFFFFFFFFFFFFFFFFFF AND EQ ISZERO PUSH2 0x1105 JUMPI PUSH1 0x40 MLOAD PUSH32 0x8C379A000000000000000000000000000000000000000000000000000000000 DUP2 MSTORE PUSH1 0x4 ADD PUSH2 0x10FC SWAP1 PUSH2 0x1CC3 JUMP JUMPDEST PUSH1 0x40 MLOAD DUP1 SWAP2 SUB SWAP1 REVERT JUMPDEST PUSH1 0x0 PUSH20 0xFFFFFFFFFFFFFFFFFFFFFFFFFFFFFFFFFFFFFFFF AND DUP3 PUSH20 0xFFFFFFFFFFFFFFFFFFFFFFFFFFFFFFFFFFFFFFFF AND EQ ISZERO PUSH2 0x1175 JUMPI PUSH1 0x40 MLOAD PUSH32 0x8C379A000000000000000000000000000000000000000000000000000000000 DUP2 MSTORE PUSH1 0x4 ADD PUSH2 0x116C SWAP1 PUSH2 0x1B63 JUMP JUMPDEST PUSH1 0x40 MLOAD DUP1 SWAP2 SUB SWAP1 REVERT JUMPDEST PUSH2 0x1180 DUP4 DUP4 DUP4 PUSH2 0x1713 JUMP JUMPDEST PUSH1 0x0 DUP1 PUSH1 0x0 DUP6 PUSH20 0xFFFFFFFFFFFFFFFFFFFFFFFFFFFFFFFFFFFFFFFF AND PUSH20 0xFFFFFFFFFFFFFFFFFFFFFFFFFFFFFFFFFFFFFFFF AND DUP2 MSTORE PUSH1 0x20 ADD SWAP1 DUP2 MSTORE PUSH1 0x20 ADD PUSH1 0x0 KECCAK256 SLOAD SWAP1 POP DUP2 DUP2 LT ISZERO PUSH2 0x1206 JUMPI PUSH1 0x40 MLOAD PUSH32 0x8C379A000000000000000000000000000000000000000000000000000000000 DUP2 MSTORE PUSH1 0x4 ADD PUSH2 0x11FD SWAP1 PUSH2 0x1C03 JUMP JUMPDEST PUSH1 0x40 MLOAD DUP1 SWAP2 SUB SWAP1 REVERT JUMPDEST DUP2 DUP2 SUB PUSH1 0x0 DUP1 DUP7 PUSH20 0xFFFFFFFFFFFFFFFFFFFFFFFFFFFFFFFFFFFFFFFF AND PUSH20 0xFFFFFFFFFFFFFFFFFFFFFFFFFFFFFFFFFFFFFFFF AND DUP2 MSTORE PUSH1 0x20 ADD SWAP1 DUP2 MSTORE PUSH1 0x20 ADD PUSH1 0x0 KECCAK256 DUP2 SWAP1 SSTORE POP DUP2 PUSH1 0x0 DUP1 DUP6 PUSH20 0xFFFFFFFFFFFFFFFFFFFFFFFFFFFFFFFFFFFFFFFF AND PUSH20 0xFFFFFFFFFFFFFFFFFFFFFFFFFFFFFFFFFFFFFFFF AND DUP2 MSTORE PUSH1 0x20 ADD SWAP1 DUP2 MSTORE PUSH1 0x20 ADD PUSH1 0x0 KECCAK256 PUSH1 0x0 DUP3 DUP3 SLOAD PUSH2 0x1299 SWAP2 SWAP1 PUSH2 0x1D95 JUMP JUMPDEST SWAP3 POP POP DUP2 SWAP1 SSTORE POP DUP3 PUSH20 0xFFFFFFFFFFFFFFFFFFFFFFFFFFFFFFFFFFFFFFFF AND DUP5 PUSH20 0xFFFFFFFFFFFFFFFFFFFFFFFFFFFFFFFFFFFFFFFF AND PUSH32 0xDDF252AD1BE2C89B69C2B068FC378DAA952BA7F163C4A11628F55A4DF523B3EF DUP5 PUSH1 0x40 MLOAD PUSH2 0x12FD SWAP2 SWAP1 PUSH2 0x1D43 JUMP JUMPDEST PUSH1 0x40 MLOAD DUP1 SWAP2 SUB SWAP1 LOG3 PUSH2 0x1310 DUP5 DUP5 DUP5 PUSH2 0x1718 JUMP JUMPDEST POP POP POP POP JUMP JUMPDEST PUSH1 0x0 PUSH20 0xFFFFFFFFFFFFFFFFFFFFFFFFFFFFFFFFFFFFFFFF AND DUP3 PUSH20 0xFFFFFFFFFFFFFFFFFFFFFFFFFFFFFFFFFFFFFFFF AND EQ ISZERO PUSH2 0x1386 JUMPI PUSH1 0x40 MLOAD PUSH32 0x8C379A000000000000000000000000000000000000000000000000000000000 DUP2 MSTORE PUSH1 0x4 ADD PUSH2 0x137D SWAP1 PUSH2 0x1D23 JUMP JUMPDEST PUSH1 0x40 MLOAD DUP1 SWAP2 SUB SWAP1 REVERT JUMPDEST PUSH2 0x1392 PUSH1 0x0 DUP4 DUP4 PUSH2 0x1713 JUMP JUMPDEST DUP1 PUSH1 0x2 PUSH1 0x0 DUP3 DUP3 SLOAD PUSH2 0x13A4 SWAP2 SWAP1 PUSH2 0x1D95 JUMP JUMPDEST SWAP3 POP POP DUP2 SWAP1 SSTORE POP DUP1 PUSH1 0x0 DUP1 DUP5 PUSH20 0xFFFFFFFFFFFFFFFFFFFFFFFFFFFFFFFFFFFFFFFF AND PUSH20 0xFFFFFFFFFFFFFFFFFFFFFFFFFFFFFFFFFFFFFFFF AND DUP2 MSTORE PUSH1 0x20 ADD SWAP1 DUP2 MSTORE PUSH1 0x20 ADD PUSH1 0x0 KECCAK256 PUSH1 0x0 DUP3 DUP3 SLOAD PUSH2 0x13F9 SWAP2 SWAP1 PUSH2 0x1D95 JUMP JUMPDEST SWAP3 POP POP DUP2 SWAP1 SSTORE POP DUP2 PUSH20 0xFFFFFFFFFFFFFFFFFFFFFFFFFFFFFFFFFFFFFFFF AND PUSH1 0x0 PUSH20 0xFFFFFFFFFFFFFFFFFFFFFFFFFFFFFFFFFFFFFFFF AND PUSH32 0xDDF252AD1BE2C89B69C2B068FC378DAA952BA7F163C4A11628F55A4DF523B3EF DUP4 PUSH1 0x40 MLOAD PUSH2 0x145E SWAP2 SWAP1 PUSH2 0x1D43 JUMP JUMPDEST PUSH1 0x40 MLOAD DUP1 SWAP2 SUB SWAP1 LOG3 PUSH2 0x1472 PUSH1 0x0 DUP4 DUP4 PUSH2 0x1718 JUMP JUMPDEST POP POP JUMP JUMPDEST PUSH1 0x0 PUSH1 0x6 PUSH1 0x0 SWAP1 SLOAD SWAP1 PUSH2 0x100 EXP SWAP1 DIV PUSH20 0xFFFFFFFFFFFFFFFFFFFFFFFFFFFFFFFFFFFFFFFF AND SWAP1 POP DUP2 PUSH1 0x6 PUSH1 0x0 PUSH2 0x100 EXP DUP2 SLOAD DUP2 PUSH20 0xFFFFFFFFFFFFFFFFFFFFFFFFFFFFFFFFFFFFFFFF MUL NOT AND SWAP1 DUP4 PUSH20 0xFFFFFFFFFFFFFFFFFFFFFFFFFFFFFFFFFFFFFFFF AND MUL OR SWAP1 SSTORE POP DUP2 PUSH20 0xFFFFFFFFFFFFFFFFFFFFFFFFFFFFFFFFFFFFFFFF AND DUP2 PUSH20 0xFFFFFFFFFFFFFFFFFFFFFFFFFFFFFFFFFFFFFFFF AND PUSH32 0x8BE0079C531659141344CD1FD0A4F28419497F9722A3DAAFE3B4186F6B6457E0 PUSH1 0x40 MLOAD PUSH1 0x40 MLOAD DUP1 SWAP2 SUB SWAP1 LOG3 POP POP JUMP JUMPDEST PUSH1 0x0 PUSH20 0xFFFFFFFFFFFFFFFFFFFFFFFFFFFFFFFFFFFFFFFF AND DUP3 PUSH20 0xFFFFFFFFFFFFFFFFFFFFFFFFFFFFFFFFFFFFFFFF AND EQ ISZERO PUSH2 0x15AC JUMPI PUSH1 0x40 MLOAD PUSH32 0x8C379A000000000000000000000000000000000000000000000000000000000 DUP2 MSTORE PUSH1 0x4 ADD PUSH2 0x15A3 SWAP1 PUSH2 0x1CA3 JUMP JUMPDEST PUSH1 0x40 MLOAD DUP1 SWAP2 SUB SWAP1 REVERT JUMPDEST PUSH2 0x15B8 DUP3 PUSH1 0x0 DUP4 PUSH2 0x1713 JUMP JUMPDEST PUSH1 0x0 DUP1 PUSH1 0x0 DUP5 PUSH20 0xFFFFFFFFFFFFFFFFFFFFFFFFFFFFFFFFFFFFFFFF AND PUSH20 0xFFFFFFFFFFFFFFFFFFFFFFFFFFFFFFFFFFFFFFFF AND DUP2 MSTORE PUSH1 0x20 ADD SWAP1 DUP2 MSTORE PUSH1 0x20 ADD PUSH1 0x0 KECCAK256 SLOAD SWAP1 POP DUP2 DUP2 LT ISZERO PUSH2 0x163E JUMPI PUSH1 0x40 MLOAD PUSH32 0x8C379A000000000000000000000000000000000000000000000000000000000 DUP2 MSTORE PUSH1 0x4 ADD PUSH2 0x1635 SWAP1 PUSH2 0x1B83 JUMP JUMPDEST PUSH1 0x40 MLOAD DUP1 SWAP2 SUB SWAP1 REVERT JUMPDEST DUP2 DUP2 SUB PUSH1 0x0 DUP1 DUP6 PUSH20 0xFFFFFFFFFFFFFFFFFFFFFFFFFFFFFFFFFFFFFFFF AND PUSH20 0xFFFFFFFFFFFFFFFFFFFFFFFFFFFFFFFFFFFFFFFF AND DUP2 MSTORE PUSH1 0x20 ADD SWAP1 DUP2 MSTORE PUSH1 0x20 ADD PUSH1 0x0 KECCAK256 DUP2 SWAP1 SSTORE POP DUP2 PUSH1 0x2 PUSH1 0x0 DUP3 DUP3 SLOAD PUSH2 0x1695 SWAP2 SWAP1 PUSH2 0x1DEB JUMP JUMPDEST SWAP3 POP POP DUP2 SWAP1 SSTORE POP PUSH1 0x0 PUSH20 0xFFFFFFFFFFFFFFFFFFFFFFFFFFFFFFFFFFFFFFFF AND DUP4 PUSH20 0xFFFFFFFFFFFFFFFFFFFFFFFFFFFFFFFFFFFFFFFF AND PUSH32 0xDDF252AD1BE2C89B69C2B068FC378DAA952BA7F163C4A11628F55A4DF523B3EF DUP5 PUSH1 0x40 MLOAD PUSH2 0x16FA SWAP2 SWAP1 PUSH2 0x1D43 JUMP JUMPDEST PUSH1 0x40 MLOAD DUP1 SWAP2 SUB SWAP1 LOG3 PUSH2 0x170E DUP4 PUSH1 0x0 DUP5 PUSH2 0x1718 JUMP JUMPDEST POP POP POP JUMP JUMPDEST POP POP POP JUMP JUMPDEST POP POP POP JUMP JUMPDEST PUSH1 0x0 DUP2 CALLDATALOAD SWAP1 POP PUSH2 0x172C DUP2 PUSH2 0x2330 JUMP JUMPDEST SWAP3 SWAP2 POP POP JUMP JUMPDEST PUSH1 0x0 DUP2 CALLDATALOAD SWAP1 POP PUSH2 0x1741 DUP2 PUSH2 0x2347 JUMP JUMPDEST SWAP3 SWAP2 POP POP JUMP JUMPDEST PUSH1 0x0 DUP2 MLOAD SWAP1 POP PUSH2 0x1756 DUP2 PUSH2 0x2347 JUMP JUMPDEST SWAP3 SWAP2 POP POP JUMP JUMPDEST PUSH1 0x0 PUSH1 0x20 DUP3 DUP5 SUB SLT ISZERO PUSH2 0x1772 JUMPI PUSH2 0x1771 PUSH2 0x1F37 JUMP JUMPDEST JUMPDEST PUSH1 0x0 PUSH2 0x1780 DUP5 DUP3 DUP6 ADD PUSH2 0x171D JUMP JUMPDEST SWAP2 POP POP SWAP3 SWAP2 POP POP JUMP JUMPDEST PUSH1 0x0 DUP1 PUSH1 0x40 DUP4 DUP6 SUB SLT ISZERO PUSH2 0x17A0 JUMPI PUSH2 0x179F PUSH2 0x1F37 JUMP JUMPDEST JUMPDEST PUSH1 0x0 PUSH2 0x17AE DUP6 DUP3 DUP7 ADD PUSH2 0x171D JUMP JUMPDEST SWAP3 POP POP PUSH1 0x20 PUSH2 0x17BF DUP6 DUP3 DUP7 ADD PUSH2 0x171D JUMP JUMPDEST SWAP2 POP POP SWAP3 POP SWAP3 SWAP1 POP JUMP JUMPDEST PUSH1 0x0 DUP1 PUSH1 0x0 PUSH1 0x60 DUP5 DUP7 SUB SLT ISZERO PUSH2 0x17E2 JUMPI PUSH2 0x17E1 PUSH2 0x1F37 JUMP JUMPDEST JUMPDEST PUSH1 0x0 PUSH2 0x17F0 DUP7 DUP3 DUP8 ADD PUSH2 0x171D JUMP JUMPDEST SWAP4 POP POP PUSH1 0x20 PUSH2 0x1801 DUP7 DUP3 DUP8 ADD PUSH2 0x171D JUMP JUMPDEST SWAP3 POP POP PUSH1 0x40 PUSH2 0x1812 DUP7 DUP3 DUP8 ADD PUSH2 0x1732 JUMP JUMPDEST SWAP2 POP POP SWAP3 POP SWAP3 POP SWAP3 JUMP JUMPDEST PUSH1 0x0 DUP1 PUSH1 0x40 DUP4 DUP6 SUB SLT ISZERO PUSH2 0x1833 JUMPI PUSH2 0x1832 PUSH2 0x1F37 JUMP JUMPDEST JUMPDEST PUSH1 0x0 PUSH2 0x1841 DUP6 DUP3 DUP7 ADD PUSH2 0x171D JUMP JUMPDEST SWAP3 POP POP PUSH1 0x20 PUSH2 0x1852 DUP6 DUP3 DUP7 ADD PUSH2 0x1732 JUMP JUMPDEST SWAP2 POP POP SWAP3 POP SWAP3 SWAP1 POP JUMP JUMPDEST PUSH1 0x0 PUSH1 0x20 DUP3 DUP5 SUB SLT ISZERO PUSH2 0x1872 JUMPI PUSH2 0x1871 PUSH2 0x1F37 JUMP JUMPDEST JUMPDEST PUSH1 0x0 PUSH2 0x1880 DUP5 DUP3 DUP6 ADD PUSH2 0x1747 JUMP JUMPDEST SWAP2 POP POP SWAP3 SWAP2 POP POP JUMP JUMPDEST PUSH2 0x1892 DUP2 PUSH2 0x1E1F JUMP JUMPDEST DUP3 MSTORE POP POP JUMP JUMPDEST PUSH2 0x18A1 DUP2 PUSH2 0x1E31 JUMP JUMPDEST DUP3 MSTORE POP POP JUMP JUMPDEST PUSH1 0x0 PUSH2 0x18B2 DUP3 PUSH2 0x1D79 JUMP JUMPDEST PUSH2 0x18BC DUP2 DUP6 PUSH2 0x1D84 JUMP JUMPDEST SWAP4 POP PUSH2 0x18CC DUP2 DUP6 PUSH1 0x20 DUP7 ADD PUSH2 0x1E74 JUMP JUMPDEST PUSH2 0x18D5 DUP2 PUSH2 0x1F3C JUMP JUMPDEST DUP5 ADD SWAP2 POP POP SWAP3 SWAP2 POP POP JUMP JUMPDEST PUSH1 0x0 PUSH2 0x18ED PUSH1 0x23 DUP4 PUSH2 0x1D84 JUMP JUMPDEST SWAP2 POP PUSH2 0x18F8 DUP3 PUSH2 0x1F4D JUMP JUMPDEST PUSH1 0x40 DUP3 ADD SWAP1 POP SWAP2 SWAP1 POP JUMP JUMPDEST PUSH1 0x0 PUSH2 0x1910 PUSH1 0x22 DUP4 PUSH2 0x1D84 JUMP JUMPDEST SWAP2 POP PUSH2 0x191B DUP3 PUSH2 0x1F9C JUMP JUMPDEST PUSH1 0x40 DUP3 ADD SWAP1 POP SWAP2 SWAP1 POP JUMP JUMPDEST PUSH1 0x0 PUSH2 0x1933 PUSH1 0x26 DUP4 PUSH2 0x1D84 JUMP JUMPDEST SWAP2 POP PUSH2 0x193E DUP3 PUSH2 0x1FEB JUMP JUMPDEST PUSH1 0x40 DUP3 ADD SWAP1 POP SWAP2 SWAP1 POP JUMP JUMPDEST PUSH1 0x0 PUSH2 0x1956 PUSH1 0x22 DUP4 PUSH2 0x1D84 JUMP JUMPDEST SWAP2 POP PUSH2 0x1961 DUP3 PUSH2 0x203A JUMP JUMPDEST PUSH1 0x40 DUP3 ADD SWAP1 POP SWAP2 SWAP1 POP JUMP JUMPDEST PUSH1 0x0 PUSH2 0x1979 PUSH1 0x15 DUP4 PUSH2 0x1D84 JUMP JUMPDEST SWAP2 POP PUSH2 0x1984 DUP3 PUSH2 0x2089 JUMP JUMPDEST PUSH1 0x20 DUP3 ADD SWAP1 POP SWAP2 SWAP1 POP JUMP JUMPDEST PUSH1 0x0 PUSH2 0x199C PUSH1 0x26 DUP4 PUSH2 0x1D84 JUMP JUMPDEST SWAP2 POP PUSH2 0x19A7 DUP3 PUSH2 0x20B2 JUMP JUMPDEST PUSH1 0x40 DUP3 ADD SWAP1 POP SWAP2 SWAP1 POP JUMP JUMPDEST PUSH1 0x0 PUSH2 0x19BF PUSH1 0x19 DUP4 PUSH2 0x1D84 JUMP JUMPDEST SWAP2 POP PUSH2 0x19CA DUP3 PUSH2 0x2101 JUMP JUMPDEST PUSH1 0x20 DUP3 ADD SWAP1 POP SWAP2 SWAP1 POP JUMP JUMPDEST PUSH1 0x0 PUSH2 0x19E2 PUSH1 0x19 DUP4 PUSH2 0x1D84 JUMP JUMPDEST SWAP2 POP PUSH2 0x19ED DUP3 PUSH2 0x212A JUMP JUMPDEST PUSH1 0x20 DUP3 ADD SWAP1 POP SWAP2 SWAP1 POP JUMP JUMPDEST PUSH1 0x0 PUSH2 0x1A05 PUSH1 0x28 DUP4 PUSH2 0x1D84 JUMP JUMPDEST SWAP2 POP PUSH2 0x1A10 DUP3 PUSH2 0x2153 JUMP JUMPDEST PUSH1 0x40 DUP3 ADD SWAP1 POP SWAP2 SWAP1 POP JUMP JUMPDEST PUSH1 0x0 PUSH2 0x1A28 PUSH1 0x20 DUP4 PUSH2 0x1D84 JUMP JUMPDEST SWAP2 POP PUSH2 0x1A33 DUP3 PUSH2 0x21A2 JUMP JUMPDEST PUSH1 0x20 DUP3 ADD SWAP1 POP SWAP2 SWAP1 POP JUMP JUMPDEST PUSH1 0x0 PUSH2 0x1A4B PUSH1 0x21 DUP4 PUSH2 0x1D84 JUMP JUMPDEST SWAP2 POP PUSH2 0x1A56 DUP3 PUSH2 0x21CB JUMP JUMPDEST PUSH1 0x40 DUP3 ADD SWAP1 POP SWAP2 SWAP1 POP JUMP JUMPDEST PUSH1 0x0 PUSH2 0x1A6E PUSH1 0x25 DUP4 PUSH2 0x1D84 JUMP JUMPDEST SWAP2 POP PUSH2 0x1A79 DUP3 PUSH2 0x221A JUMP JUMPDEST PUSH1 0x40 DUP3 ADD SWAP1 POP SWAP2 SWAP1 POP JUMP JUMPDEST PUSH1 0x0 PUSH2 0x1A91 PUSH1 0x24 DUP4 PUSH2 0x1D84 JUMP JUMPDEST SWAP2 POP PUSH2 0x1A9C DUP3 PUSH2 0x2269 JUMP JUMPDEST PUSH1 0x40 DUP3 ADD SWAP1 POP SWAP2 SWAP1 POP JUMP JUMPDEST PUSH1 0x0 PUSH2 0x1AB4 PUSH1 0x25 DUP4 PUSH2 0x1D84 JUMP JUMPDEST SWAP2 POP PUSH2 0x1ABF DUP3 PUSH2 0x22B8 JUMP JUMPDEST PUSH1 0x40 DUP3 ADD SWAP1 POP SWAP2 SWAP1 POP JUMP JUMPDEST PUSH1 0x0 PUSH2 0x1AD7 PUSH1 0x1F DUP4 PUSH2 0x1D84 JUMP JUMPDEST SWAP2 POP PUSH2 0x1AE2 DUP3 PUSH2 0x2307 JUMP JUMPDEST PUSH1 0x20 DUP3 ADD SWAP1 POP SWAP2 SWAP1 POP JUMP JUMPDEST PUSH2 0x1AF6 DUP2 PUSH2 0x1E5D JUMP JUMPDEST DUP3 MSTORE POP POP JUMP JUMPDEST PUSH2 0x1B05 DUP2 PUSH2 0x1E67 JUMP JUMPDEST DUP3 MSTORE POP POP JUMP JUMPDEST PUSH1 0x0 PUSH1 0x20 DUP3 ADD SWAP1 POP PUSH2 0x1B20 PUSH1 0x0 DUP4 ADD DUP5 PUSH2 0x1889 JUMP JUMPDEST SWAP3 SWAP2 POP POP JUMP JUMPDEST PUSH1 0x0 PUSH1 0x20 DUP3 ADD SWAP1 POP PUSH2 0x1B3B PUSH1 0x0 DUP4 ADD DUP5 PUSH2 0x1898 JUMP JUMPDEST SWAP3 SWAP2 POP POP JUMP JUMPDEST PUSH1 0x0 PUSH1 0x20 DUP3 ADD SWAP1 POP DUP2 DUP2 SUB PUSH1 0x0 DUP4 ADD MSTORE PUSH2 0x1B5B DUP2 DUP5 PUSH2 0x18A7 JUMP JUMPDEST SWAP1 POP SWAP3 SWAP2 POP POP JUMP JUMPDEST PUSH1 0x0 PUSH1 0x20 DUP3 ADD SWAP1 POP DUP2 DUP2 SUB PUSH1 0x0 DUP4 ADD MSTORE PUSH2 0x1B7C DUP2 PUSH2 0x18E0 JUMP JUMPDEST SWAP1 POP SWAP2 SWAP1 POP JUMP JUMPDEST PUSH1 0x0 PUSH1 0x20 DUP3 ADD SWAP1 POP DUP2 DUP2 SUB PUSH1 0x0 DUP4 ADD MSTORE PUSH2 0x1B9C DUP2 PUSH2 0x1903 JUMP JUMPDEST SWAP1 POP SWAP2 SWAP1 POP JUMP JUMPDEST PUSH1 0x0 PUSH1 0x20 DUP3 ADD SWAP1 POP DUP2 DUP2 SUB PUSH1 0x0 DUP4 ADD MSTORE PUSH2 0x1BBC DUP2 PUSH2 0x1926 JUMP JUMPDEST SWAP1 POP SWAP2 SWAP1 POP JUMP JUMPDEST PUSH1 0x0 PUSH1 0x20 DUP3 ADD SWAP1 POP DUP2 DUP2 SUB PUSH1 0x0 DUP4 ADD MSTORE PUSH2 0x1BDC DUP2 PUSH2 0x1949 JUMP JUMPDEST SWAP1 POP SWAP2 SWAP1 POP JUMP JUMPDEST PUSH1 0x0 PUSH1 0x20 DUP3 ADD SWAP1 POP DUP2 DUP2 SUB PUSH1 0x0 DUP4 ADD MSTORE PUSH2 0x1BFC DUP2 PUSH2 0x196C JUMP JUMPDEST SWAP1 POP SWAP2 SWAP1 POP JUMP JUMPDEST PUSH1 0x0 PUSH1 0x20 DUP3 ADD SWAP1 POP DUP2 DUP2 SUB PUSH1 0x0 DUP4 ADD MSTORE PUSH2 0x1C1C DUP2 PUSH2 0x198F JUMP JUMPDEST SWAP1 POP SWAP2 SWAP1 POP JUMP JUMPDEST PUSH1 0x0 PUSH1 0x20 DUP3 ADD SWAP1 POP DUP2 DUP2 SUB PUSH1 0x0 DUP4 ADD MSTORE PUSH2 0x1C3C DUP2 PUSH2 0x19B2 JUMP JUMPDEST SWAP1 POP SWAP2 SWAP1 POP JUMP JUMPDEST PUSH1 0x0 PUSH1 0x20 DUP3 ADD SWAP1 POP DUP2 DUP2 SUB PUSH1 0x0 DUP4 ADD MSTORE PUSH2 0x1C5C DUP2 PUSH2 0x19D5 JUMP JUMPDEST SWAP1 POP SWAP2 SWAP1 POP JUMP JUMPDEST PUSH1 0x0 PUSH1 0x20 DUP3 ADD SWAP1 POP DUP2 DUP2 SUB PUSH1 0x0 DUP4 ADD MSTORE PUSH2 0x1C7C DUP2 PUSH2 0x19F8 JUMP JUMPDEST SWAP1 POP SWAP2 SWAP1 POP JUMP JUMPDEST PUSH1 0x0 PUSH1 0x20 DUP3 ADD SWAP1 POP DUP2 DUP2 SUB PUSH1 0x0 DUP4 ADD MSTORE PUSH2 0x1C9C DUP2 PUSH2 0x1A1B JUMP JUMPDEST SWAP1 POP SWAP2 SWAP1 POP JUMP JUMPDEST PUSH1 0x0 PUSH1 0x20 DUP3 ADD SWAP1 POP DUP2 DUP2 SUB PUSH1 0x0 DUP4 ADD MSTORE PUSH2 0x1CBC DUP2 PUSH2 0x1A3E JUMP JUMPDEST SWAP1 POP SWAP2 SWAP1 POP JUMP JUMPDEST PUSH1 0x0 PUSH1 0x20 DUP3 ADD SWAP1 POP DUP2 DUP2 SUB PUSH1 0x0 DUP4 ADD MSTORE PUSH2 0x1CDC DUP2 PUSH2 0x1A61 JUMP JUMPDEST SWAP1 POP SWAP2 SWAP1 POP JUMP JUMPDEST PUSH1 0x0 PUSH1 0x20 DUP3 ADD SWAP1 POP DUP2 DUP2 SUB PUSH1 0x0 DUP4 ADD MSTORE PUSH2 0x1CFC DUP2 PUSH2 0x1A84 JUMP JUMPDEST SWAP1 POP SWAP2 SWAP1 POP JUMP JUMPDEST PUSH1 0x0 PUSH1 0x20 DUP3 ADD SWAP1 POP DUP2 DUP2 SUB PUSH1 0x0 DUP4 ADD MSTORE PUSH2 0x1D1C DUP2 PUSH2 0x1AA7 JUMP JUMPDEST SWAP1 POP SWAP2 SWAP1 POP JUMP JUMPDEST PUSH1 0x0 PUSH1 0x20 DUP3 ADD SWAP1 POP DUP2 DUP2 SUB PUSH1 0x0 DUP4 ADD MSTORE PUSH2 0x1D3C DUP2 PUSH2 0x1ACA JUMP JUMPDEST SWAP1 POP SWAP2 SWAP1 POP JUMP JUMPDEST PUSH1 0x0 PUSH1 0x20 DUP3 ADD SWAP1 POP PUSH2 0x1D58 PUSH1 0x0 DUP4 ADD DUP5 PUSH2 0x1AED JUMP JUMPDEST SWAP3 SWAP2 POP POP JUMP JUMPDEST PUSH1 0x0 PUSH1 0x20 DUP3 ADD SWAP1 POP PUSH2 0x1D73 PUSH1 0x0 DUP4 ADD DUP5 PUSH2 0x1AFC JUMP JUMPDEST SWAP3 SWAP2 POP POP JUMP JUMPDEST PUSH1 0x0 DUP2 MLOAD SWAP1 POP SWAP2 SWAP1 POP JUMP JUMPDEST PUSH1 0x0 DUP3 DUP3 MSTORE PUSH1 0x20 DUP3 ADD SWAP1 POP SWAP3 SWAP2 POP POP JUMP JUMPDEST PUSH1 0x0 PUSH2 0x1DA0 DUP3 PUSH2 0x1E5D JUMP JUMPDEST SWAP2 POP PUSH2 0x1DAB DUP4 PUSH2 0x1E5D JUMP JUMPDEST SWAP3 POP DUP3 PUSH32 0xFFFFFFFFFFFFFFFFFFFFFFFFFFFFFFFFFFFFFFFFFFFFFFFFFFFFFFFFFFFFFFFF SUB DUP3 GT ISZERO PUSH2 0x1DE0 JUMPI PUSH2 0x1DDF PUSH2 0x1ED9 JUMP JUMPDEST JUMPDEST DUP3 DUP3 ADD SWAP1 POP SWAP3 SWAP2 POP POP JUMP JUMPDEST PUSH1 0x0 PUSH2 0x1DF6 DUP3 PUSH2 0x1E5D JUMP JUMPDEST SWAP2 POP PUSH2 0x1E01 DUP4 PUSH2 0x1E5D JUMP JUMPDEST SWAP3 POP DUP3 DUP3 LT ISZERO PUSH2 0x1E14 JUMPI PUSH2 0x1E13 PUSH2 0x1ED9 JUMP JUMPDEST JUMPDEST DUP3 DUP3 SUB SWAP1 POP SWAP3 SWAP2 POP POP JUMP JUMPDEST PUSH1 0x0 PUSH2 0x1E2A DUP3 PUSH2 0x1E3D JUMP JUMPDEST SWAP1 POP SWAP2 SWAP1 POP JUMP JUMPDEST PUSH1 0x0 DUP2 ISZERO ISZERO SWAP1 POP SWAP2 SWAP1 POP JUMP JUMPDEST PUSH1 0x0 PUSH20 0xFFFFFFFFFFFFFFFFFFFFFFFFFFFFFFFFFFFFFFFF DUP3 AND SWAP1 POP SWAP2 SWAP1 POP JUMP JUMPDEST PUSH1 0x0 DUP2 SWAP1 POP SWAP2 SWAP1 POP JUMP JUMPDEST PUSH1 0x0 PUSH1 0xFF DUP3 AND SWAP1 POP SWAP2 SWAP1 POP JUMP JUMPDEST PUSH1 0x0 JUMPDEST DUP4 DUP2 LT ISZERO PUSH2 0x1E92 JUMPI DUP1 DUP3 ADD MLOAD DUP2 DUP5 ADD MSTORE PUSH1 0x20 DUP2 ADD SWAP1 POP PUSH2 0x1E77 JUMP JUMPDEST DUP4 DUP2 GT ISZERO PUSH2 0x1EA1 JUMPI PUSH1 0x0 DUP5 DUP5 ADD MSTORE JUMPDEST POP POP POP POP JUMP JUMPDEST PUSH1 0x0 PUSH1 0x2 DUP3 DIV SWAP1 POP PUSH1 0x1 DUP3 AND DUP1 PUSH2 0x1EBF JUMPI PUSH1 0x7F DUP3 AND SWAP2 POP JUMPDEST PUSH1 0x20 DUP3 LT DUP2 EQ ISZERO PUSH2 0x1ED3 JUMPI PUSH2 0x1ED2 PUSH2 0x1F08 JUMP JUMPDEST JUMPDEST POP SWAP2 SWAP1 POP JUMP JUMPDEST PUSH32 0x4E487B7100000000000000000000000000000000000000000000000000000000 PUSH1 0x0 MSTORE PUSH1 0x11 PUSH1 0x4 MSTORE PUSH1 0x24 PUSH1 0x0 REVERT JUMPDEST PUSH32 0x4E487B7100000000000000000000000000000000000000000000000000000000 PUSH1 0x0 MSTORE PUSH1 0x22 PUSH1 0x4 MSTORE PUSH1 0x24 PUSH1 0x0 REVERT JUMPDEST PUSH1 0x0 DUP1 REVERT JUMPDEST PUSH1 0x0 PUSH1 0x1F NOT PUSH1 0x1F DUP4 ADD AND SWAP1 POP SWAP2 SWAP1 POP JUMP JUMPDEST PUSH32 0x45524332303A207472616E7366657220746F20746865207A65726F2061646472 PUSH1 0x0 DUP3 ADD MSTORE PUSH32 0x6573730000000000000000000000000000000000000000000000000000000000 PUSH1 0x20 DUP3 ADD MSTORE POP JUMP JUMPDEST PUSH32 0x45524332303A206275726E20616D6F756E7420657863656564732062616C616E PUSH1 0x0 DUP3 ADD MSTORE PUSH32 0x6365000000000000000000000000000000000000000000000000000000000000 PUSH1 0x20 DUP3 ADD MSTORE POP JUMP JUMPDEST PUSH32 0x4F776E61626C653A206E6577206F776E657220697320746865207A65726F2061 PUSH1 0x0 DUP3 ADD MSTORE PUSH32 0x6464726573730000000000000000000000000000000000000000000000000000 PUSH1 0x20 DUP3 ADD MSTORE POP JUMP JUMPDEST PUSH32 0x45524332303A20617070726F766520746F20746865207A65726F206164647265 PUSH1 0x0 DUP3 ADD MSTORE PUSH32 0x7373000000000000000000000000000000000000000000000000000000000000 PUSH1 0x20 DUP3 ADD MSTORE POP JUMP JUMPDEST PUSH32 0x4E6F7420417070726F76656420746F20646F20736F0000000000000000000000 PUSH1 0x0 DUP3 ADD MSTORE POP JUMP JUMPDEST PUSH32 0x45524332303A207472616E7366657220616D6F756E7420657863656564732062 PUSH1 0x0 DUP3 ADD MSTORE PUSH32 0x616C616E63650000000000000000000000000000000000000000000000000000 PUSH1 0x20 DUP3 ADD MSTORE POP JUMP JUMPDEST PUSH32 0x4F6E6C7920636F6E74726F6C6C6572732063616E206D696E7400000000000000 PUSH1 0x0 DUP3 ADD MSTORE POP JUMP JUMPDEST PUSH32 0x4F6E6C7920636F6E74726F6C6C6572732063616E206275726E00000000000000 PUSH1 0x0 DUP3 ADD MSTORE POP JUMP JUMPDEST PUSH32 0x45524332303A207472616E7366657220616D6F756E7420657863656564732061 PUSH1 0x0 DUP3 ADD MSTORE PUSH32 0x6C6C6F77616E6365000000000000000000000000000000000000000000000000 PUSH1 0x20 DUP3 ADD MSTORE POP JUMP JUMPDEST PUSH32 0x4F776E61626C653A2063616C6C6572206973206E6F7420746865206F776E6572 PUSH1 0x0 DUP3 ADD MSTORE POP JUMP JUMPDEST PUSH32 0x45524332303A206275726E2066726F6D20746865207A65726F20616464726573 PUSH1 0x0 DUP3 ADD MSTORE PUSH32 0x7300000000000000000000000000000000000000000000000000000000000000 PUSH1 0x20 DUP3 ADD MSTORE POP JUMP JUMPDEST PUSH32 0x45524332303A207472616E736665722066726F6D20746865207A65726F206164 PUSH1 0x0 DUP3 ADD MSTORE PUSH32 0x6472657373000000000000000000000000000000000000000000000000000000 PUSH1 0x20 DUP3 ADD MSTORE POP JUMP JUMPDEST PUSH32 0x45524332303A20617070726F76652066726F6D20746865207A65726F20616464 PUSH1 0x0 DUP3 ADD MSTORE PUSH32 0x7265737300000000000000000000000000000000000000000000000000000000 PUSH1 0x20 DUP3 ADD MSTORE POP JUMP JUMPDEST PUSH32 0x45524332303A2064656372656173656420616C6C6F77616E63652062656C6F77 PUSH1 0x0 DUP3 ADD MSTORE PUSH32 0x207A65726F000000000000000000000000000000000000000000000000000000 PUSH1 0x20 DUP3 ADD MSTORE POP JUMP JUMPDEST PUSH32 0x45524332303A206D696E7420746F20746865207A65726F206164647265737300 PUSH1 0x0 DUP3 ADD MSTORE POP JUMP JUMPDEST PUSH2 0x2339 DUP2 PUSH2 0x1E1F JUMP JUMPDEST DUP2 EQ PUSH2 0x2344 JUMPI PUSH1 0x0 DUP1 REVERT JUMPDEST POP JUMP JUMPDEST PUSH2 0x2350 DUP2 PUSH2 0x1E5D JUMP JUMPDEST DUP2 EQ PUSH2 0x235B JUMPI PUSH1 0x0 DUP1 REVERT JUMPDEST POP JUMP INVALID LOG2 PUSH5 0x6970667358 0x22 SLT KECCAK256 0x2E 0xE4 CREATE AND 0xB3 DELEGATECALL DIV 0x4F PUSH11 0xCF4C9EC857F4D12D381788 JUMPDEST INVALID 0xE4 0xA5 DUP7 0x2A 0xC4 0xE2 0x5C 0xB4 LOG4 0xD9 PUSH5 0x736F6C6343 STOP ADDMOD SMOD STOP CALLER "
				},
				"gasEstimates": {
					"creation": {
						"codeDepositCost": "1821600",
						"executionCost": "infinite",
						"totalCost": "infinite"
					},
					"external": {
						"addController(address)": "27074",
						"allowance(address,address)": "infinite",
						"approve(address,uint256)": "infinite",
						"balanceOf(address)": "2952",
						"burn(address,uint256)": "infinite",
						"decimals()": "388",
						"decreaseAllowance(address,uint256)": "infinite",
						"increaseAllowance(address,uint256)": "infinite",
						"mint(address,uint256)": "infinite",
						"name()": "infinite",
						"owner()": "2567",
						"removeController(address)": "27162",
						"renounceOwnership()": "30397",
						"scepterTotalSupply()": "infinite",
						"symbol()": "infinite",
						"totalSupply()": "2505",
						"transfer(address,uint256)": "infinite",
						"transferFrom(address,address,uint256)": "infinite",
						"transferOwnership(address)": "30811"
					}
				},
				"methodIdentifiers": {
					"addController(address)": "a7fc7a07",
					"allowance(address,address)": "dd62ed3e",
					"approve(address,uint256)": "095ea7b3",
					"balanceOf(address)": "70a08231",
					"burn(address,uint256)": "9dc29fac",
					"decimals()": "313ce567",
					"decreaseAllowance(address,uint256)": "a457c2d7",
					"increaseAllowance(address,uint256)": "39509351",
					"mint(address,uint256)": "40c10f19",
					"name()": "06fdde03",
					"owner()": "8da5cb5b",
					"removeController(address)": "f6a74ed7",
					"renounceOwnership()": "715018a6",
					"scepterTotalSupply()": "2e54606a",
					"symbol()": "95d89b41",
					"totalSupply()": "18160ddd",
					"transfer(address,uint256)": "a9059cbb",
					"transferFrom(address,address,uint256)": "23b872dd",
					"transferOwnership(address)": "f2fde38b"
				}
			},
			"storageLayout": {
				"storage": [
					{
						"astId": 142,
						"contract": "Baton.sol:Baton",
						"label": "_balances",
						"offset": 0,
						"slot": "0",
						"type": "t_mapping(t_address,t_uint256)"
					},
					{
						"astId": 148,
						"contract": "Baton.sol:Baton",
						"label": "_allowances",
						"offset": 0,
						"slot": "1",
						"type": "t_mapping(t_address,t_mapping(t_address,t_uint256))"
					},
					{
						"astId": 150,
						"contract": "Baton.sol:Baton",
						"label": "_totalSupply",
						"offset": 0,
						"slot": "2",
						"type": "t_uint256"
					},
					{
						"astId": 152,
						"contract": "Baton.sol:Baton",
						"label": "_name",
						"offset": 0,
						"slot": "3",
						"type": "t_string_storage"
					},
					{
						"astId": 154,
						"contract": "Baton.sol:Baton",
						"label": "_symbol",
						"offset": 0,
						"slot": "4",
						"type": "t_string_storage"
					},
					{
						"astId": 156,
						"contract": "Baton.sol:Baton",
						"label": "approvedTransferor",
						"offset": 0,
						"slot": "5",
						"type": "t_address"
					},
					{
						"astId": 811,
						"contract": "Baton.sol:Baton",
						"label": "_owner",
						"offset": 0,
						"slot": "6",
						"type": "t_address"
					},
					{
						"astId": 11,
						"contract": "Baton.sol:Baton",
						"label": "controllers",
						"offset": 0,
						"slot": "7",
						"type": "t_mapping(t_address,t_bool)"
					}
				],
				"types": {
					"t_address": {
						"encoding": "inplace",
						"label": "address",
						"numberOfBytes": "20"
					},
					"t_bool": {
						"encoding": "inplace",
						"label": "bool",
						"numberOfBytes": "1"
					},
					"t_mapping(t_address,t_bool)": {
						"encoding": "mapping",
						"key": "t_address",
						"label": "mapping(address => bool)",
						"numberOfBytes": "32",
						"value": "t_bool"
					},
					"t_mapping(t_address,t_mapping(t_address,t_uint256))": {
						"encoding": "mapping",
						"key": "t_address",
						"label": "mapping(address => mapping(address => uint256))",
						"numberOfBytes": "32",
						"value": "t_mapping(t_address,t_uint256)"
					},
					"t_mapping(t_address,t_uint256)": {
						"encoding": "mapping",
						"key": "t_address",
						"label": "mapping(address => uint256)",
						"numberOfBytes": "32",
						"value": "t_uint256"
					},
					"t_string_storage": {
						"encoding": "bytes",
						"label": "string",
						"numberOfBytes": "32"
					},
					"t_uint256": {
						"encoding": "inplace",
						"label": "uint256",
						"numberOfBytes": "32"
					}
				}
			},
			"userdoc": {
				"kind": "user",
				"methods": {
					"addController(address)": {
						"notice": "enables an address to mint / burn"
					},
					"burn(address,uint256)": {
						"notice": "burns $Scepter from a holder"
					},
					"mint(address,uint256)": {
						"notice": "mints $Scepter to a recipient"
					},
					"removeController(address)": {
						"notice": "disables an address from minting / burning"
					}
				},
				"version": 1
			}
		}
	}
}