{
	"WandInstruments.sol": {
		"testSticks": {
			"abi": [
				{
					"inputs": [],
					"stateMutability": "nonpayable",
					"type": "constructor"
				},
				{
					"anonymous": false,
					"inputs": [
						{
							"indexed": true,
							"internalType": "address",
							"name": "previousOwner",
							"type": "address"
						},
						{
							"indexed": true,
							"internalType": "address",
							"name": "newOwner",
							"type": "address"
						}
					],
					"name": "OwnershipTransferred",
					"type": "event"
				},
				{
					"anonymous": false,
					"inputs": [
						{
							"indexed": true,
							"internalType": "address",
							"name": "_from",
							"type": "address"
						},
						{
							"indexed": false,
							"internalType": "uint256",
							"name": "_amount",
							"type": "uint256"
						}
					],
					"name": "sceptersBought",
					"type": "event"
				},
				{
					"anonymous": false,
					"inputs": [
						{
							"indexed": true,
							"internalType": "address",
							"name": "_from",
							"type": "address"
						},
						{
							"indexed": false,
							"internalType": "uint256",
							"name": "_amount",
							"type": "uint256"
						}
					],
					"name": "sceptersSold",
					"type": "event"
				},
				{
					"inputs": [],
					"name": "BTON",
					"outputs": [
						{
							"internalType": "contract IERC20",
							"name": "",
							"type": "address"
						}
					],
					"stateMutability": "view",
					"type": "function"
				},
				{
					"inputs": [],
					"name": "Launch",
					"outputs": [],
					"stateMutability": "nonpayable",
					"type": "function"
				},
				{
					"inputs": [],
					"name": "SPTR",
					"outputs": [
						{
							"internalType": "contract IERC20",
							"name": "",
							"type": "address"
						}
					],
					"stateMutability": "view",
					"type": "function"
				},
				{
					"inputs": [],
					"name": "WAND",
					"outputs": [
						{
							"internalType": "contract IERC20",
							"name": "",
							"type": "address"
						}
					],
					"stateMutability": "view",
					"type": "function"
				},
				{
					"inputs": [
						{
							"internalType": "string",
							"name": "_ticker",
							"type": "string"
						},
						{
							"internalType": "address",
							"name": "_addr",
							"type": "address"
						},
						{
							"internalType": "uint256",
							"name": "_dec",
							"type": "uint256"
						}
					],
					"name": "addStable",
					"outputs": [],
					"stateMutability": "nonpayable",
					"type": "function"
				},
				{
					"inputs": [
						{
							"internalType": "uint256",
							"name": "amountSCPtoBuy",
							"type": "uint256"
						},
						{
							"internalType": "string",
							"name": "_stableChosen",
							"type": "string"
						}
					],
					"name": "buyScepter",
					"outputs": [],
					"stateMutability": "nonpayable",
					"type": "function"
				},
				{
					"inputs": [
						{
							"internalType": "uint256",
							"name": "amountSCPtoSell",
							"type": "uint256"
						},
						{
							"internalType": "uint256",
							"name": "timeChosenLocked",
							"type": "uint256"
						},
						{
							"internalType": "string",
							"name": "_stableChosen",
							"type": "string"
						}
					],
					"name": "cashOutScepter",
					"outputs": [],
					"stateMutability": "payable",
					"type": "function"
				},
				{
					"inputs": [
						{
							"internalType": "uint256",
							"name": "",
							"type": "uint256"
						}
					],
					"name": "circulatingSupplyXDays",
					"outputs": [
						{
							"internalType": "uint256",
							"name": "",
							"type": "uint256"
						}
					],
					"stateMutability": "view",
					"type": "function"
				},
				{
					"inputs": [
						{
							"internalType": "address",
							"name": "_claimant",
							"type": "address"
						},
						{
							"internalType": "string",
							"name": "_stableChosen",
							"type": "string"
						}
					],
					"name": "claimLockedUSDC",
					"outputs": [],
					"stateMutability": "nonpayable",
					"type": "function"
				},
				{
					"inputs": [],
					"name": "daysInCalculation",
					"outputs": [
						{
							"internalType": "uint256",
							"name": "",
							"type": "uint256"
						}
					],
					"stateMutability": "view",
					"type": "function"
				},
				{
					"inputs": [],
					"name": "devWalletAddr",
					"outputs": [
						{
							"internalType": "address",
							"name": "",
							"type": "address"
						}
					],
					"stateMutability": "view",
					"type": "function"
				},
				{
					"inputs": [],
					"name": "getBackingPrice",
					"outputs": [
						{
							"internalType": "uint256",
							"name": "",
							"type": "uint256"
						}
					],
					"stateMutability": "view",
					"type": "function"
				},
				{
					"inputs": [],
					"name": "getBuyPrice",
					"outputs": [
						{
							"internalType": "uint256",
							"name": "",
							"type": "uint256"
						}
					],
					"stateMutability": "view",
					"type": "function"
				},
				{
					"inputs": [],
					"name": "getCircSupplyXDays",
					"outputs": [
						{
							"internalType": "uint256",
							"name": "",
							"type": "uint256"
						}
					],
					"stateMutability": "view",
					"type": "function"
				},
				{
					"inputs": [],
					"name": "getGrowthFactor",
					"outputs": [
						{
							"internalType": "uint256",
							"name": "",
							"type": "uint256"
						}
					],
					"stateMutability": "view",
					"type": "function"
				},
				{
					"inputs": [],
					"name": "getSellFactor",
					"outputs": [
						{
							"internalType": "uint256",
							"name": "",
							"type": "uint256"
						}
					],
					"stateMutability": "view",
					"type": "function"
				},
				{
					"inputs": [],
					"name": "getSellPrice",
					"outputs": [
						{
							"internalType": "uint256",
							"name": "",
							"type": "uint256"
						}
					],
					"stateMutability": "view",
					"type": "function"
				},
				{
					"inputs": [],
					"name": "getTokensBoughtXDays",
					"outputs": [
						{
							"internalType": "uint256",
							"name": "",
							"type": "uint256"
						}
					],
					"stateMutability": "view",
					"type": "function"
				},
				{
					"inputs": [],
					"name": "getTokensSoldXDays",
					"outputs": [
						{
							"internalType": "uint256",
							"name": "",
							"type": "uint256"
						}
					],
					"stateMutability": "view",
					"type": "function"
				},
				{
					"inputs": [],
					"name": "growthFactor",
					"outputs": [
						{
							"internalType": "uint256",
							"name": "",
							"type": "uint256"
						}
					],
					"stateMutability": "view",
					"type": "function"
				},
				{
					"inputs": [],
					"name": "owner",
					"outputs": [
						{
							"internalType": "address",
							"name": "",
							"type": "address"
						}
					],
					"stateMutability": "view",
					"type": "function"
				},
				{
					"inputs": [],
					"name": "renounceOwnership",
					"outputs": [],
					"stateMutability": "nonpayable",
					"type": "function"
				},
				{
					"inputs": [],
					"name": "res",
					"outputs": [
						{
							"internalType": "int128",
							"name": "",
							"type": "int128"
						}
					],
					"stateMutability": "view",
					"type": "function"
				},
				{
					"inputs": [],
					"name": "riskTreasuryAddr",
					"outputs": [
						{
							"internalType": "address",
							"name": "",
							"type": "address"
						}
					],
					"stateMutability": "view",
					"type": "function"
				},
				{
					"inputs": [],
					"name": "scepterTreasuryAddr",
					"outputs": [
						{
							"internalType": "address",
							"name": "",
							"type": "address"
						}
					],
					"stateMutability": "view",
					"type": "function"
				},
				{
					"inputs": [],
					"name": "sellFactor",
					"outputs": [
						{
							"internalType": "uint256",
							"name": "",
							"type": "uint256"
						}
					],
					"stateMutability": "view",
					"type": "function"
				},
				{
					"inputs": [
						{
							"internalType": "uint256",
							"name": "numDays",
							"type": "uint256"
						}
					],
					"name": "setDaysUsedInFactors",
					"outputs": [],
					"stateMutability": "nonpayable",
					"type": "function"
				},
				{
					"inputs": [],
					"name": "sptrTreasuryBal",
					"outputs": [
						{
							"internalType": "uint256",
							"name": "",
							"type": "uint256"
						}
					],
					"stateMutability": "view",
					"type": "function"
				},
				{
					"inputs": [
						{
							"internalType": "string",
							"name": "",
							"type": "string"
						}
					],
					"name": "stableERC20Info",
					"outputs": [
						{
							"internalType": "address",
							"name": "contractAddress",
							"type": "address"
						},
						{
							"internalType": "uint256",
							"name": "tokenDecimals",
							"type": "uint256"
						}
					],
					"stateMutability": "view",
					"type": "function"
				},
				{
					"inputs": [
						{
							"internalType": "uint256",
							"name": "amt",
							"type": "uint256"
						}
					],
					"name": "testUpdatetimeLockedminus",
					"outputs": [],
					"stateMutability": "nonpayable",
					"type": "function"
				},
				{
					"inputs": [
						{
							"internalType": "uint256",
							"name": "amt",
							"type": "uint256"
						}
					],
					"name": "testUpdatetimeLockedplus",
					"outputs": [],
					"stateMutability": "nonpayable",
					"type": "function"
				},
				{
					"inputs": [],
					"name": "testwallet",
					"outputs": [
						{
							"internalType": "address",
							"name": "",
							"type": "address"
						}
					],
					"stateMutability": "view",
					"type": "function"
				},
				{
					"inputs": [],
					"name": "timeLaunched",
					"outputs": [
						{
							"internalType": "uint256",
							"name": "",
							"type": "uint256"
						}
					],
					"stateMutability": "view",
					"type": "function"
				},
				{
					"inputs": [],
					"name": "tokenStable",
					"outputs": [
						{
							"internalType": "contract IERC20",
							"name": "",
							"type": "address"
						}
					],
					"stateMutability": "view",
					"type": "function"
				},
				{
					"inputs": [
						{
							"internalType": "uint256",
							"name": "",
							"type": "uint256"
						}
					],
					"name": "tokensBoughtXDays",
					"outputs": [
						{
							"internalType": "uint256",
							"name": "",
							"type": "uint256"
						}
					],
					"stateMutability": "view",
					"type": "function"
				},
				{
					"inputs": [
						{
							"internalType": "uint256",
							"name": "",
							"type": "uint256"
						}
					],
					"name": "tokensSoldXDays",
					"outputs": [
						{
							"internalType": "uint256",
							"name": "",
							"type": "uint256"
						}
					],
					"stateMutability": "view",
					"type": "function"
				},
				{
					"inputs": [
						{
							"internalType": "address",
							"name": "newOwner",
							"type": "address"
						}
					],
					"name": "transferOwnership",
					"outputs": [],
					"stateMutability": "nonpayable",
					"type": "function"
				},
				{
					"inputs": [
						{
							"internalType": "uint256",
							"name": "amountSCPtoSwap",
							"type": "uint256"
						}
					],
					"name": "transformScepterToBaton",
					"outputs": [],
					"stateMutability": "payable",
					"type": "function"
				},
				{
					"inputs": [],
					"name": "treasury1Addr",
					"outputs": [
						{
							"internalType": "address",
							"name": "",
							"type": "address"
						}
					],
					"stateMutability": "view",
					"type": "function"
				},
				{
					"inputs": [],
					"name": "updateSPTRTreasuryBal",
					"outputs": [],
					"stateMutability": "nonpayable",
					"type": "function"
				},
				{
					"inputs": [
						{
							"internalType": "address",
							"name": "_addr",
							"type": "address"
						}
					],
					"name": "whitelist",
					"outputs": [],
					"stateMutability": "nonpayable",
					"type": "function"
				},
				{
					"inputs": [
						{
							"internalType": "address",
							"name": "",
							"type": "address"
						}
					],
					"name": "withheldWithdrawals",
					"outputs": [
						{
							"internalType": "uint256",
							"name": "timeUnlocked",
							"type": "uint256"
						},
						{
							"internalType": "uint256",
							"name": "amounts",
							"type": "uint256"
						}
					],
					"stateMutability": "view",
					"type": "function"
				}
			],
			"devdoc": {
				"kind": "dev",
				"methods": {
					"owner()": {
						"details": "Returns the address of the current owner."
					},
					"renounceOwnership()": {
						"details": "Leaves the contract without owner. It will not be possible to call `onlyOwner` functions anymore. Can only be called by the current owner. NOTE: Renouncing ownership will leave the contract without an owner, thereby removing any functionality that is only available to the owner."
					},
					"transferOwnership(address)": {
						"details": "Transfers ownership of the contract to a new account (`newOwner`). Can only be called by the current owner."
					}
				},
				"version": 1
			},
			"evm": {
				"assembly": "    /* \"WandInstruments.sol\":156:16088  contract testSticks is ReentrancyGuard, Ownable{\r... */\n  mstore(0x40, 0x80)\n    /* \"WandInstruments.sol\":996:1002  100000 */\n  0x0186a0\n    /* \"WandInstruments.sol\":965:1002  uint256 private ft5daybought = 100000 */\n  0x0f\n  sstore\n    /* \"WandInstruments.sol\":1038:1043  90000 */\n  0x015f90\n    /* \"WandInstruments.sol\":1009:1043  uint256 private ft5daysold = 90000 */\n  0x10\n  sstore\n    /* \"WandInstruments.sol\":1085:1091  600000 */\n  0x0927c0\n    /* \"WandInstruments.sol\":1050:1091  uint256 private double5daytokens = 600000 */\n  0x11\n  sstore\n    /* \"WandInstruments.sol\":1212:1254  0x617F2E2fD72FD9D5503197092aC168c91465E7f2 */\n  0x617f2e2fd72fd9d5503197092ac168c91465e7f2\n    /* \"WandInstruments.sol\":1184:1254  address public testwallet = 0x617F2E2fD72FD9D5503197092aC168c91465E7f2 */\n  0x13\n  exp(0x0100, 0x00)\n  dup2\n  sload\n  dup2\n  0xffffffffffffffffffffffffffffffffffffffff\n  mul\n  not\n  and\n  swap1\n  dup4\n  0xffffffffffffffffffffffffffffffffffffffff\n  and\n  mul\n  or\n  swap1\n  sstore\n  pop\n    /* \"WandInstruments.sol\":2383:3630  constructor() {   \r... */\n  callvalue\n  dup1\n  iszero\n  tag_1\n  jumpi\n  0x00\n  dup1\n  revert\ntag_1:\n  pop\n    /* \"ReentrancyGuard.sol\":1734:1735  1 */\n  0x01\n    /* \"ReentrancyGuard.sol\":1845:1852  _status */\n  0x00\n    /* \"ReentrancyGuard.sol\":1845:1867  _status = _NOT_ENTERED */\n  dup2\n  swap1\n  sstore\n  pop\n    /* \"Ownable.sol\":914:946  _transferOwnership(_msgSender()) */\n  tag_7\n    /* \"Ownable.sol\":933:945  _msgSender() */\n  tag_8\n    /* \"Ownable.sol\":933:943  _msgSender */\n  shl(0x20, tag_9)\n    /* \"Ownable.sol\":933:945  _msgSender() */\n  0x20\n  shr\n  jump\t// in\ntag_8:\n    /* \"Ownable.sol\":914:932  _transferOwnership */\n  shl(0x20, tag_10)\n    /* \"Ownable.sol\":914:946  _transferOwnership(_msgSender()) */\n  0x20\n  shr\n  jump\t// in\ntag_7:\n    /* \"WandInstruments.sol\":2480:2522  0x358AA13c52544ECCEF6B0ADD0f801012ADAD5eE3 */\n  0x358aa13c52544eccef6b0add0f801012adad5ee3\n    /* \"WandInstruments.sol\":2466:2470  SPTR */\n  0x14\n  0x00\n    /* \"WandInstruments.sol\":2466:2523  SPTR = IERC20(0x358AA13c52544ECCEF6B0ADD0f801012ADAD5eE3) */\n  0x0100\n  exp\n  dup2\n  sload\n  dup2\n  0xffffffffffffffffffffffffffffffffffffffff\n  mul\n  not\n  and\n  swap1\n  dup4\n  0xffffffffffffffffffffffffffffffffffffffff\n  and\n  mul\n  or\n  swap1\n  sstore\n  pop\n    /* \"WandInstruments.sol\":2548:2590  0x9D7f74d0C41E726EC95884E0e97Fa6129e3b5E99 */\n  0x9d7f74d0c41e726ec95884e0e97fa6129e3b5e99\n    /* \"WandInstruments.sol\":2534:2538  WAND */\n  0x15\n  0x00\n    /* \"WandInstruments.sol\":2534:2591  WAND = IERC20(0x9D7f74d0C41E726EC95884E0e97Fa6129e3b5E99) */\n  0x0100\n  exp\n  dup2\n  sload\n  dup2\n  0xffffffffffffffffffffffffffffffffffffffff\n  mul\n  not\n  and\n  swap1\n  dup4\n  0xffffffffffffffffffffffffffffffffffffffff\n  and\n  mul\n  or\n  swap1\n  sstore\n  pop\n    /* \"WandInstruments.sol\":2616:2658  0x2557F4c8Ba4BE59eDDAbfd26dF4ECd7F2e678f1d */\n  0x2557f4c8ba4be59eddabfd26df4ecd7f2e678f1d\n    /* \"WandInstruments.sol\":2602:2606  BTON */\n  0x16\n  0x00\n    /* \"WandInstruments.sol\":2602:2659  BTON = IERC20(0x2557F4c8Ba4BE59eDDAbfd26dF4ECd7F2e678f1d) */\n  0x0100\n  exp\n  dup2\n  sload\n  dup2\n  0xffffffffffffffffffffffffffffffffffffffff\n  mul\n  not\n  and\n  swap1\n  dup4\n  0xffffffffffffffffffffffffffffffffffffffff\n  and\n  mul\n  or\n  swap1\n  sstore\n  pop\n    /* \"WandInstruments.sol\":2771:2813  0x85F05208B6C3613f42366dE27BAFBd4df40a8ceb */\n  0x85f05208b6c3613f42366de27bafbd4df40a8ceb\n    /* \"WandInstruments.sol\":2729:2744  stableERC20Info */\n  0x1b\n    /* \"WandInstruments.sol\":2729:2752  stableERC20Info[\"USDC\"] */\n  mload(0x40)\n  tag_12\n  swap1\n  tag_13\n  jump\t// in\ntag_12:\n  swap1\n  dup2\n  mstore\n  0x20\n  add\n  mload(0x40)\n  dup1\n  swap2\n  sub\n  swap1\n  keccak256\n    /* \"WandInstruments.sol\":2729:2768  stableERC20Info[\"USDC\"].contractAddress */\n  0x00\n  add\n  0x00\n    /* \"WandInstruments.sol\":2729:2813  stableERC20Info[\"USDC\"].contractAddress = 0x85F05208B6C3613f42366dE27BAFBd4df40a8ceb */\n  0x0100\n  exp\n  dup2\n  sload\n  dup2\n  0xffffffffffffffffffffffffffffffffffffffff\n  mul\n  not\n  and\n  swap1\n  dup4\n  0xffffffffffffffffffffffffffffffffffffffff\n  and\n  mul\n  or\n  swap1\n  sstore\n  pop\n    /* \"WandInstruments.sol\":2864:2865  6 */\n  0x06\n    /* \"WandInstruments.sol\":2824:2839  stableERC20Info */\n  0x1b\n    /* \"WandInstruments.sol\":2824:2847  stableERC20Info[\"USDC\"] */\n  mload(0x40)\n  tag_14\n  swap1\n  tag_13\n  jump\t// in\ntag_14:\n  swap1\n  dup2\n  mstore\n  0x20\n  add\n  mload(0x40)\n  dup1\n  swap2\n  sub\n  swap1\n  keccak256\n    /* \"WandInstruments.sol\":2824:2861  stableERC20Info[\"USDC\"].tokenDecimals */\n  0x01\n  add\n    /* \"WandInstruments.sol\":2824:2865  stableERC20Info[\"USDC\"].tokenDecimals = 6 */\n  dup2\n  swap1\n  sstore\n  pop\n    /* \"WandInstruments.sol\":2937:2979  0x2A4a8Ab6A0Bc0d377098F8688F77003833BC1C9d */\n  0x2a4a8ab6a0bc0d377098f8688f77003833bc1c9d\n    /* \"WandInstruments.sol\":2896:2911  stableERC20Info */\n  0x1b\n    /* \"WandInstruments.sol\":2896:2918  stableERC20Info[\"DAI\"] */\n  mload(0x40)\n  tag_15\n  swap1\n  tag_16\n  jump\t// in\ntag_15:\n  swap1\n  dup2\n  mstore\n  0x20\n  add\n  mload(0x40)\n  dup1\n  swap2\n  sub\n  swap1\n  keccak256\n    /* \"WandInstruments.sol\":2896:2934  stableERC20Info[\"DAI\"].contractAddress */\n  0x00\n  add\n  0x00\n    /* \"WandInstruments.sol\":2896:2979  stableERC20Info[\"DAI\"].contractAddress = 0x2A4a8Ab6A0Bc0d377098F8688F77003833BC1C9d */\n  0x0100\n  exp\n  dup2\n  sload\n  dup2\n  0xffffffffffffffffffffffffffffffffffffffff\n  mul\n  not\n  and\n  swap1\n  dup4\n  0xffffffffffffffffffffffffffffffffffffffff\n  and\n  mul\n  or\n  swap1\n  sstore\n  pop\n    /* \"WandInstruments.sol\":3029:3031  18 */\n  0x12\n    /* \"WandInstruments.sol\":2990:3005  stableERC20Info */\n  0x1b\n    /* \"WandInstruments.sol\":2990:3012  stableERC20Info[\"DAI\"] */\n  mload(0x40)\n  tag_17\n  swap1\n  tag_16\n  jump\t// in\ntag_17:\n  swap1\n  dup2\n  mstore\n  0x20\n  add\n  mload(0x40)\n  dup1\n  swap2\n  sub\n  swap1\n  keccak256\n    /* \"WandInstruments.sol\":2990:3026  stableERC20Info[\"DAI\"].tokenDecimals */\n  0x01\n  add\n    /* \"WandInstruments.sol\":2990:3031  stableERC20Info[\"DAI\"].tokenDecimals = 18 */\n  dup2\n  swap1\n  sstore\n  pop\n    /* \"WandInstruments.sol\":3105:3147  0xdc301622e621166BD8E82f2cA0A26c13Ad0BE355 */\n  0xdc301622e621166bd8e82f2ca0a26c13ad0be355\n    /* \"WandInstruments.sol\":3063:3078  stableERC20Info */\n  0x1b\n    /* \"WandInstruments.sol\":3063:3086  stableERC20Info[\"FRAX\"] */\n  mload(0x40)\n  tag_18\n  swap1\n  tag_19\n  jump\t// in\ntag_18:\n  swap1\n  dup2\n  mstore\n  0x20\n  add\n  mload(0x40)\n  dup1\n  swap2\n  sub\n  swap1\n  keccak256\n    /* \"WandInstruments.sol\":3063:3102  stableERC20Info[\"FRAX\"].contractAddress */\n  0x00\n  add\n  0x00\n    /* \"WandInstruments.sol\":3063:3147  stableERC20Info[\"FRAX\"].contractAddress = 0xdc301622e621166BD8E82f2cA0A26c13Ad0BE355 */\n  0x0100\n  exp\n  dup2\n  sload\n  dup2\n  0xffffffffffffffffffffffffffffffffffffffff\n  mul\n  not\n  and\n  swap1\n  dup4\n  0xffffffffffffffffffffffffffffffffffffffff\n  and\n  mul\n  or\n  swap1\n  sstore\n  pop\n    /* \"WandInstruments.sol\":3198:3200  18 */\n  0x12\n    /* \"WandInstruments.sol\":3158:3173  stableERC20Info */\n  0x1b\n    /* \"WandInstruments.sol\":3158:3181  stableERC20Info[\"FRAX\"] */\n  mload(0x40)\n  tag_20\n  swap1\n  tag_19\n  jump\t// in\ntag_20:\n  swap1\n  dup2\n  mstore\n  0x20\n  add\n  mload(0x40)\n  dup1\n  swap2\n  sub\n  swap1\n  keccak256\n    /* \"WandInstruments.sol\":3158:3195  stableERC20Info[\"FRAX\"].tokenDecimals */\n  0x01\n  add\n    /* \"WandInstruments.sol\":3158:3200  stableERC20Info[\"FRAX\"].tokenDecimals = 18 */\n  dup2\n  swap1\n  sstore\n  pop\n    /* \"WandInstruments.sol\":3229:3271  0x617F2E2fD72FD9D5503197092aC168c91465E7f2 */\n  0x617f2e2fd72fd9d5503197092ac168c91465e7f2\n    /* \"WandInstruments.sol\":3213:3226  treasury1Addr */\n  0x08\n  0x00\n    /* \"WandInstruments.sol\":3213:3271  treasury1Addr = 0x617F2E2fD72FD9D5503197092aC168c91465E7f2 */\n  0x0100\n  exp\n  dup2\n  sload\n  dup2\n  0xffffffffffffffffffffffffffffffffffffffff\n  mul\n  not\n  and\n  swap1\n  dup4\n  0xffffffffffffffffffffffffffffffffffffffff\n  and\n  mul\n  or\n  swap1\n  sstore\n  pop\n    /* \"WandInstruments.sol\":3470:3485  block.timestamp */\n  timestamp\n    /* \"WandInstruments.sol\":3455:3467  timeLaunched */\n  0x0d\n    /* \"WandInstruments.sol\":3455:3485  timeLaunched = block.timestamp */\n  dup2\n  swap1\n  sstore\n  pop\n    /* \"WandInstruments.sol\":3516:3522  5 days */\n  0x069780\n    /* \"WandInstruments.sol\":3496:3513  daysInCalculation */\n  0x0e\n    /* \"WandInstruments.sol\":3496:3522  daysInCalculation = 5 days */\n  dup2\n  swap1\n  sstore\n  pop\n    /* \"WandInstruments.sol\":156:16088  contract testSticks is ReentrancyGuard, Ownable{\r... */\n  jump(tag_21)\n    /* \"Context.sol\":640:736  function _msgSender() internal view virtual returns (address) {... */\ntag_9:\n    /* \"Context.sol\":693:700  address */\n  0x00\n    /* \"Context.sol\":719:729  msg.sender */\n  caller\n    /* \"Context.sol\":712:729  return msg.sender */\n  swap1\n  pop\n    /* \"Context.sol\":640:736  function _msgSender() internal view virtual returns (address) {... */\n  swap1\n  jump\t// out\n    /* \"Ownable.sol\":2263:2450  function _transferOwnership(address newOwner) internal virtual {... */\ntag_10:\n    /* \"Ownable.sol\":2336:2352  address oldOwner */\n  0x00\n    /* \"Ownable.sol\":2355:2361  _owner */\n  0x01\n  0x00\n  swap1\n  sload\n  swap1\n  0x0100\n  exp\n  swap1\n  div\n  0xffffffffffffffffffffffffffffffffffffffff\n  and\n    /* \"Ownable.sol\":2336:2361  address oldOwner = _owner */\n  swap1\n  pop\n    /* \"Ownable.sol\":2380:2388  newOwner */\n  dup2\n    /* \"Ownable.sol\":2371:2377  _owner */\n  0x01\n  0x00\n    /* \"Ownable.sol\":2371:2388  _owner = newOwner */\n  0x0100\n  exp\n  dup2\n  sload\n  dup2\n  0xffffffffffffffffffffffffffffffffffffffff\n  mul\n  not\n  and\n  swap1\n  dup4\n  0xffffffffffffffffffffffffffffffffffffffff\n  and\n  mul\n  or\n  swap1\n  sstore\n  pop\n    /* \"Ownable.sol\":2434:2442  newOwner */\n  dup2\n    /* \"Ownable.sol\":2403:2443  OwnershipTransferred(oldOwner, newOwner) */\n  0xffffffffffffffffffffffffffffffffffffffff\n  and\n    /* \"Ownable.sol\":2424:2432  oldOwner */\n  dup2\n    /* \"Ownable.sol\":2403:2443  OwnershipTransferred(oldOwner, newOwner) */\n  0xffffffffffffffffffffffffffffffffffffffff\n  and\n  0x8be0079c531659141344cd1fd0a4f28419497f9722a3daafe3b4186f6b6457e0\n  mload(0x40)\n  mload(0x40)\n  dup1\n  swap2\n  sub\n  swap1\n  log3\n    /* \"Ownable.sol\":2326:2450  {... */\n  pop\n    /* \"Ownable.sol\":2263:2450  function _transferOwnership(address newOwner) internal virtual {... */\n  pop\n  jump\t// out\n    /* \"#utility.yul\":7:407   */\ntag_25:\n    /* \"#utility.yul\":167:170   */\n  0x00\n    /* \"#utility.yul\":188:272   */\n  tag_27\n    /* \"#utility.yul\":270:271   */\n  0x04\n    /* \"#utility.yul\":265:268   */\n  dup4\n    /* \"#utility.yul\":188:272   */\n  tag_28\n  jump\t// in\ntag_27:\n    /* \"#utility.yul\":181:272   */\n  swap2\n  pop\n    /* \"#utility.yul\":281:374   */\n  tag_29\n    /* \"#utility.yul\":370:373   */\n  dup3\n    /* \"#utility.yul\":281:374   */\n  tag_30\n  jump\t// in\ntag_29:\n    /* \"#utility.yul\":399:400   */\n  0x04\n    /* \"#utility.yul\":394:397   */\n  dup3\n    /* \"#utility.yul\":390:401   */\n  add\n    /* \"#utility.yul\":383:401   */\n  swap1\n  pop\n    /* \"#utility.yul\":7:407   */\n  swap2\n  swap1\n  pop\n  jump\t// out\n    /* \"#utility.yul\":413:813   */\ntag_31:\n    /* \"#utility.yul\":573:576   */\n  0x00\n    /* \"#utility.yul\":594:678   */\n  tag_33\n    /* \"#utility.yul\":676:677   */\n  0x03\n    /* \"#utility.yul\":671:674   */\n  dup4\n    /* \"#utility.yul\":594:678   */\n  tag_28\n  jump\t// in\ntag_33:\n    /* \"#utility.yul\":587:678   */\n  swap2\n  pop\n    /* \"#utility.yul\":687:780   */\n  tag_34\n    /* \"#utility.yul\":776:779   */\n  dup3\n    /* \"#utility.yul\":687:780   */\n  tag_35\n  jump\t// in\ntag_34:\n    /* \"#utility.yul\":805:806   */\n  0x03\n    /* \"#utility.yul\":800:803   */\n  dup3\n    /* \"#utility.yul\":796:807   */\n  add\n    /* \"#utility.yul\":789:807   */\n  swap1\n  pop\n    /* \"#utility.yul\":413:813   */\n  swap2\n  swap1\n  pop\n  jump\t// out\n    /* \"#utility.yul\":819:1219   */\ntag_36:\n    /* \"#utility.yul\":979:982   */\n  0x00\n    /* \"#utility.yul\":1000:1084   */\n  tag_38\n    /* \"#utility.yul\":1082:1083   */\n  0x04\n    /* \"#utility.yul\":1077:1080   */\n  dup4\n    /* \"#utility.yul\":1000:1084   */\n  tag_28\n  jump\t// in\ntag_38:\n    /* \"#utility.yul\":993:1084   */\n  swap2\n  pop\n    /* \"#utility.yul\":1093:1186   */\n  tag_39\n    /* \"#utility.yul\":1182:1185   */\n  dup3\n    /* \"#utility.yul\":1093:1186   */\n  tag_40\n  jump\t// in\ntag_39:\n    /* \"#utility.yul\":1211:1212   */\n  0x04\n    /* \"#utility.yul\":1206:1209   */\n  dup3\n    /* \"#utility.yul\":1202:1213   */\n  add\n    /* \"#utility.yul\":1195:1213   */\n  swap1\n  pop\n    /* \"#utility.yul\":819:1219   */\n  swap2\n  swap1\n  pop\n  jump\t// out\n    /* \"#utility.yul\":1225:1606   */\ntag_19:\n    /* \"#utility.yul\":1410:1413   */\n  0x00\n    /* \"#utility.yul\":1432:1580   */\n  tag_42\n    /* \"#utility.yul\":1576:1579   */\n  dup3\n    /* \"#utility.yul\":1432:1580   */\n  tag_25\n  jump\t// in\ntag_42:\n    /* \"#utility.yul\":1425:1580   */\n  swap2\n  pop\n    /* \"#utility.yul\":1597:1600   */\n  dup2\n    /* \"#utility.yul\":1590:1600   */\n  swap1\n  pop\n    /* \"#utility.yul\":1225:1606   */\n  swap2\n  swap1\n  pop\n  jump\t// out\n    /* \"#utility.yul\":1612:1993   */\ntag_16:\n    /* \"#utility.yul\":1797:1800   */\n  0x00\n    /* \"#utility.yul\":1819:1967   */\n  tag_44\n    /* \"#utility.yul\":1963:1966   */\n  dup3\n    /* \"#utility.yul\":1819:1967   */\n  tag_31\n  jump\t// in\ntag_44:\n    /* \"#utility.yul\":1812:1967   */\n  swap2\n  pop\n    /* \"#utility.yul\":1984:1987   */\n  dup2\n    /* \"#utility.yul\":1977:1987   */\n  swap1\n  pop\n    /* \"#utility.yul\":1612:1993   */\n  swap2\n  swap1\n  pop\n  jump\t// out\n    /* \"#utility.yul\":1999:2380   */\ntag_13:\n    /* \"#utility.yul\":2184:2187   */\n  0x00\n    /* \"#utility.yul\":2206:2354   */\n  tag_46\n    /* \"#utility.yul\":2350:2353   */\n  dup3\n    /* \"#utility.yul\":2206:2354   */\n  tag_36\n  jump\t// in\ntag_46:\n    /* \"#utility.yul\":2199:2354   */\n  swap2\n  pop\n    /* \"#utility.yul\":2371:2374   */\n  dup2\n    /* \"#utility.yul\":2364:2374   */\n  swap1\n  pop\n    /* \"#utility.yul\":1999:2380   */\n  swap2\n  swap1\n  pop\n  jump\t// out\n    /* \"#utility.yul\":2386:2534   */\ntag_28:\n    /* \"#utility.yul\":2488:2499   */\n  0x00\n    /* \"#utility.yul\":2525:2528   */\n  dup2\n    /* \"#utility.yul\":2510:2528   */\n  swap1\n  pop\n    /* \"#utility.yul\":2386:2534   */\n  swap3\n  swap2\n  pop\n  pop\n  jump\t// out\n    /* \"#utility.yul\":2540:2694   */\ntag_30:\n    /* \"#utility.yul\":2680:2686   */\n  0x4652415800000000000000000000000000000000000000000000000000000000\n    /* \"#utility.yul\":2676:2677   */\n  0x00\n    /* \"#utility.yul\":2668:2674   */\n  dup3\n    /* \"#utility.yul\":2664:2678   */\n  add\n    /* \"#utility.yul\":2657:2687   */\n  mstore\n    /* \"#utility.yul\":2540:2694   */\n  pop\n  jump\t// out\n    /* \"#utility.yul\":2700:2853   */\ntag_35:\n    /* \"#utility.yul\":2840:2845   */\n  0x4441490000000000000000000000000000000000000000000000000000000000\n    /* \"#utility.yul\":2836:2837   */\n  0x00\n    /* \"#utility.yul\":2828:2834   */\n  dup3\n    /* \"#utility.yul\":2824:2838   */\n  add\n    /* \"#utility.yul\":2817:2846   */\n  mstore\n    /* \"#utility.yul\":2700:2853   */\n  pop\n  jump\t// out\n    /* \"#utility.yul\":2859:3013   */\ntag_40:\n    /* \"#utility.yul\":2999:3005   */\n  0x5553444300000000000000000000000000000000000000000000000000000000\n    /* \"#utility.yul\":2995:2996   */\n  0x00\n    /* \"#utility.yul\":2987:2993   */\n  dup3\n    /* \"#utility.yul\":2983:2997   */\n  add\n    /* \"#utility.yul\":2976:3006   */\n  mstore\n    /* \"#utility.yul\":2859:3013   */\n  pop\n  jump\t// out\n    /* \"WandInstruments.sol\":156:16088  contract testSticks is ReentrancyGuard, Ownable{\r... */\ntag_21:\n  dataSize(sub_0)\n  dup1\n  dataOffset(sub_0)\n  0x00\n  codecopy\n  0x00\n  return\nstop\n\nsub_0: assembly {\n        /* \"WandInstruments.sol\":156:16088  contract testSticks is ReentrancyGuard, Ownable{\r... */\n      mstore(0x40, 0x80)\n      jumpi(tag_1, lt(calldatasize, 0x04))\n      shr(0xe0, calldataload(0x00))\n      dup1\n      0x715018a6\n      gt\n      tag_44\n      jumpi\n      dup1\n      0xc0ca6fb4\n      gt\n      tag_45\n      jumpi\n      dup1\n      0xe5d98082\n      gt\n      tag_46\n      jumpi\n      dup1\n      0xe5d98082\n      eq\n      tag_38\n      jumpi\n      dup1\n      0xee620868\n      eq\n      tag_39\n      jumpi\n      dup1\n      0xeee05f5e\n      eq\n      tag_40\n      jumpi\n      dup1\n      0xf2fde38b\n      eq\n      tag_41\n      jumpi\n      dup1\n      0xfbbb4589\n      eq\n      tag_42\n      jumpi\n      dup1\n      0xfc361443\n      eq\n      tag_43\n      jumpi\n      jump(tag_1)\n    tag_46:\n      dup1\n      0xc0ca6fb4\n      eq\n      tag_33\n      jumpi\n      dup1\n      0xc0ce5889\n      eq\n      tag_34\n      jumpi\n      dup1\n      0xcbff4617\n      eq\n      tag_35\n      jumpi\n      dup1\n      0xd04d7908\n      eq\n      tag_36\n      jumpi\n      dup1\n      0xd82eddf2\n      eq\n      tag_37\n      jumpi\n      jump(tag_1)\n    tag_45:\n      dup1\n      0x9b19251a\n      gt\n      tag_47\n      jumpi\n      dup1\n      0x9b19251a\n      eq\n      tag_28\n      jumpi\n      dup1\n      0xa475bf48\n      eq\n      tag_29\n      jumpi\n      dup1\n      0xbcb3de54\n      eq\n      tag_30\n      jumpi\n      dup1\n      0xbdad7f02\n      eq\n      tag_31\n      jumpi\n      dup1\n      0xc079d7f6\n      eq\n      tag_32\n      jumpi\n      jump(tag_1)\n    tag_47:\n      dup1\n      0x715018a6\n      eq\n      tag_23\n      jumpi\n      dup1\n      0x71cd58f9\n      eq\n      tag_24\n      jumpi\n      dup1\n      0x862d1b35\n      eq\n      tag_25\n      jumpi\n      dup1\n      0x8da5cb5b\n      eq\n      tag_26\n      jumpi\n      dup1\n      0x93f7b711\n      eq\n      tag_27\n      jumpi\n      jump(tag_1)\n    tag_44:\n      dup1\n      0x1f564a06\n      gt\n      tag_48\n      jumpi\n      dup1\n      0x43d32e9c\n      gt\n      tag_49\n      jumpi\n      dup1\n      0x43d32e9c\n      eq\n      tag_17\n      jumpi\n      dup1\n      0x66763319\n      eq\n      tag_18\n      jumpi\n      dup1\n      0x67b48c91\n      eq\n      tag_19\n      jumpi\n      dup1\n      0x67e927a8\n      eq\n      tag_20\n      jumpi\n      dup1\n      0x6f10e285\n      eq\n      tag_21\n      jumpi\n      dup1\n      0x7087a7a5\n      eq\n      tag_22\n      jumpi\n      jump(tag_1)\n    tag_49:\n      dup1\n      0x1f564a06\n      eq\n      tag_12\n      jumpi\n      dup1\n      0x26ae486e\n      eq\n      tag_13\n      jumpi\n      dup1\n      0x29982a32\n      eq\n      tag_14\n      jumpi\n      dup1\n      0x2a9f0fb1\n      eq\n      tag_15\n      jumpi\n      dup1\n      0x3c6eb17a\n      eq\n      tag_16\n      jumpi\n      jump(tag_1)\n    tag_48:\n      dup1\n      0x12b2ed94\n      gt\n      tag_50\n      jumpi\n      dup1\n      0x12b2ed94\n      eq\n      tag_7\n      jumpi\n      dup1\n      0x1514c976\n      eq\n      tag_8\n      jumpi\n      dup1\n      0x164c8501\n      eq\n      tag_9\n      jumpi\n      dup1\n      0x1a30e872\n      eq\n      tag_10\n      jumpi\n      dup1\n      0x1bc9cc45\n      eq\n      tag_11\n      jumpi\n      jump(tag_1)\n    tag_50:\n      dup1\n      0x018a25e8\n      eq\n      tag_2\n      jumpi\n      dup1\n      0x02ac8168\n      eq\n      tag_3\n      jumpi\n      dup1\n      0x047729b0\n      eq\n      tag_4\n      jumpi\n      dup1\n      0x0ccaf04f\n      eq\n      tag_5\n      jumpi\n      dup1\n      0x0f65de3e\n      eq\n      tag_6\n      jumpi\n    tag_1:\n      0x00\n      dup1\n      revert\n        /* \"WandInstruments.sol\":11529:11803  function getBuyPrice() external view returns (uint256){\r... */\n    tag_2:\n      callvalue\n      dup1\n      iszero\n      tag_51\n      jumpi\n      0x00\n      dup1\n      revert\n    tag_51:\n      pop\n      tag_52\n      tag_53\n      jump\t// in\n    tag_52:\n      mload(0x40)\n      tag_54\n      swap2\n      swap1\n      tag_55\n      jump\t// in\n    tag_54:\n      mload(0x40)\n      dup1\n      swap2\n      sub\n      swap1\n      return\n        /* \"WandInstruments.sol\":12362:13086  function Launch() public onlyOwner{\r... */\n    tag_3:\n      callvalue\n      dup1\n      iszero\n      tag_56\n      jumpi\n      0x00\n      dup1\n      revert\n    tag_56:\n      pop\n      tag_57\n      tag_58\n      jump\t// in\n    tag_57:\n      stop\n        /* \"WandInstruments.sol\":709:740  address public riskTreasuryAddr */\n    tag_4:\n      callvalue\n      dup1\n      iszero\n      tag_59\n      jumpi\n      0x00\n      dup1\n      revert\n    tag_59:\n      pop\n      tag_60\n      tag_61\n      jump\t// in\n    tag_60:\n      mload(0x40)\n      tag_62\n      swap2\n      swap1\n      tag_63\n      jump\t// in\n    tag_62:\n      mload(0x40)\n      dup1\n      swap2\n      sub\n      swap1\n      return\n        /* \"WandInstruments.sol\":10402:11297  function getSellFactor() external view returns (uint256){\r... */\n    tag_5:\n      callvalue\n      dup1\n      iszero\n      tag_64\n      jumpi\n      0x00\n      dup1\n      revert\n    tag_64:\n      pop\n      tag_65\n      tag_66\n      jump\t// in\n    tag_65:\n      mload(0x40)\n      tag_67\n      swap2\n      swap1\n      tag_55\n      jump\t// in\n    tag_67:\n      mload(0x40)\n      dup1\n      swap2\n      sub\n      swap1\n      return\n        /* \"WandInstruments.sol\":15050:15485  function getCircSupplyXDays() external view returns (uint256){\r... */\n    tag_6:\n      callvalue\n      dup1\n      iszero\n      tag_68\n      jumpi\n      0x00\n      dup1\n      revert\n    tag_68:\n      pop\n      tag_69\n      tag_70\n      jump\t// in\n    tag_69:\n      mload(0x40)\n      tag_71\n      swap2\n      swap1\n      tag_55\n      jump\t// in\n    tag_71:\n      mload(0x40)\n      dup1\n      swap2\n      sub\n      swap1\n      return\n        /* \"WandInstruments.sol\":2066:2126  mapping(address => lockedamounts) public withheldWithdrawals */\n    tag_7:\n      callvalue\n      dup1\n      iszero\n      tag_72\n      jumpi\n      0x00\n      dup1\n      revert\n    tag_72:\n      pop\n      tag_73\n      0x04\n      dup1\n      calldatasize\n      sub\n      dup2\n      add\n      swap1\n      tag_74\n      swap2\n      swap1\n      tag_75\n      jump\t// in\n    tag_74:\n      tag_76\n      jump\t// in\n    tag_73:\n      mload(0x40)\n      tag_77\n      swap3\n      swap2\n      swap1\n      tag_78\n      jump\t// in\n    tag_77:\n      mload(0x40)\n      dup1\n      swap2\n      sub\n      swap1\n      return\n        /* \"WandInstruments.sol\":1649:1699  mapping(uint256 => uint256) public tokensSoldXDays */\n    tag_8:\n      callvalue\n      dup1\n      iszero\n      tag_79\n      jumpi\n      0x00\n      dup1\n      revert\n    tag_79:\n      pop\n      tag_80\n      0x04\n      dup1\n      calldatasize\n      sub\n      dup2\n      add\n      swap1\n      tag_81\n      swap2\n      swap1\n      tag_82\n      jump\t// in\n    tag_81:\n      tag_83\n      jump\t// in\n    tag_80:\n      mload(0x40)\n      tag_84\n      swap2\n      swap1\n      tag_55\n      jump\t// in\n    tag_84:\n      mload(0x40)\n      dup1\n      swap2\n      sub\n      swap1\n      return\n        /* \"WandInstruments.sol\":13712:14214  function testUpdatetimeLockedminus(uint256 amt) public  {\r... */\n    tag_9:\n      callvalue\n      dup1\n      iszero\n      tag_85\n      jumpi\n      0x00\n      dup1\n      revert\n    tag_85:\n      pop\n      tag_86\n      0x04\n      dup1\n      calldatasize\n      sub\n      dup2\n      add\n      swap1\n      tag_87\n      swap2\n      swap1\n      tag_82\n      jump\t// in\n    tag_87:\n      tag_88\n      jump\t// in\n    tag_86:\n      stop\n        /* \"WandInstruments.sol\":1706:1763  mapping(uint256 => uint256) public circulatingSupplyXDays */\n    tag_10:\n      callvalue\n      dup1\n      iszero\n      tag_89\n      jumpi\n      0x00\n      dup1\n      revert\n    tag_89:\n      pop\n      tag_90\n      0x04\n      dup1\n      calldatasize\n      sub\n      dup2\n      add\n      swap1\n      tag_91\n      swap2\n      swap1\n      tag_82\n      jump\t// in\n    tag_91:\n      tag_92\n      jump\t// in\n    tag_90:\n      mload(0x40)\n      tag_93\n      swap2\n      swap1\n      tag_55\n      jump\t// in\n    tag_93:\n      mload(0x40)\n      dup1\n      swap2\n      sub\n      swap1\n      return\n        /* \"WandInstruments.sol\":6936:7683  function transformScepterToBaton(uint256 amountSCPtoSwap) public payable{\r... */\n    tag_11:\n      tag_94\n      0x04\n      dup1\n      calldatasize\n      sub\n      dup2\n      add\n      swap1\n      tag_95\n      swap2\n      swap1\n      tag_82\n      jump\t// in\n    tag_95:\n      tag_96\n      jump\t// in\n    tag_94:\n      stop\n        /* \"WandInstruments.sol\":11303:11523  function getBackingPrice() external view returns (uint256){\r... */\n    tag_12:\n      callvalue\n      dup1\n      iszero\n      tag_97\n      jumpi\n      0x00\n      dup1\n      revert\n    tag_97:\n      pop\n      tag_98\n      tag_99\n      jump\t// in\n    tag_98:\n      mload(0x40)\n      tag_100\n      swap2\n      swap1\n      tag_55\n      jump\t// in\n    tag_100:\n      mload(0x40)\n      dup1\n      swap2\n      sub\n      swap1\n      return\n        /* \"WandInstruments.sol\":1430:1448  IERC20 public SPTR */\n    tag_13:\n      callvalue\n      dup1\n      iszero\n      tag_101\n      jumpi\n      0x00\n      dup1\n      revert\n    tag_101:\n      pop\n      tag_102\n      tag_103\n      jump\t// in\n    tag_102:\n      mload(0x40)\n      tag_104\n      swap2\n      swap1\n      tag_105\n      jump\t// in\n    tag_104:\n      mload(0x40)\n      dup1\n      swap2\n      sub\n      swap1\n      return\n        /* \"WandInstruments.sol\":747:775  address public devWalletAddr */\n    tag_14:\n      callvalue\n      dup1\n      iszero\n      tag_106\n      jumpi\n      0x00\n      dup1\n      revert\n    tag_106:\n      pop\n      tag_107\n      tag_108\n      jump\t// in\n    tag_107:\n      mload(0x40)\n      tag_109\n      swap2\n      swap1\n      tag_63\n      jump\t// in\n    tag_109:\n      mload(0x40)\n      dup1\n      swap2\n      sub\n      swap1\n      return\n        /* \"WandInstruments.sol\":1590:1642  mapping(uint256 => uint256) public tokensBoughtXDays */\n    tag_15:\n      callvalue\n      dup1\n      iszero\n      tag_110\n      jumpi\n      0x00\n      dup1\n      revert\n    tag_110:\n      pop\n      tag_111\n      0x04\n      dup1\n      calldatasize\n      sub\n      dup2\n      add\n      swap1\n      tag_112\n      swap2\n      swap1\n      tag_82\n      jump\t// in\n    tag_112:\n      tag_113\n      jump\t// in\n    tag_111:\n      mload(0x40)\n      tag_114\n      swap2\n      swap1\n      tag_55\n      jump\t// in\n    tag_114:\n      mload(0x40)\n      dup1\n      swap2\n      sub\n      swap1\n      return\n        /* \"WandInstruments.sol\":875:902  uint256 public timeLaunched */\n    tag_16:\n      callvalue\n      dup1\n      iszero\n      tag_115\n      jumpi\n      0x00\n      dup1\n      revert\n    tag_115:\n      pop\n      tag_116\n      tag_117\n      jump\t// in\n    tag_116:\n      mload(0x40)\n      tag_118\n      swap2\n      swap1\n      tag_55\n      jump\t// in\n    tag_118:\n      mload(0x40)\n      dup1\n      swap2\n      sub\n      swap1\n      return\n        /* \"WandInstruments.sol\":11809:12082  function getSellPrice() external view returns (uint256){\r... */\n    tag_17:\n      callvalue\n      dup1\n      iszero\n      tag_119\n      jumpi\n      0x00\n      dup1\n      revert\n    tag_119:\n      pop\n      tag_120\n      tag_121\n      jump\t// in\n    tag_120:\n      mload(0x40)\n      tag_122\n      swap2\n      swap1\n      tag_55\n      jump\t// in\n    tag_122:\n      mload(0x40)\n      dup1\n      swap2\n      sub\n      swap1\n      return\n        /* \"WandInstruments.sol\":816:846  uint256 public sptrTreasuryBal */\n    tag_18:\n      callvalue\n      dup1\n      iszero\n      tag_123\n      jumpi\n      0x00\n      dup1\n      revert\n    tag_123:\n      pop\n      tag_124\n      tag_125\n      jump\t// in\n    tag_124:\n      mload(0x40)\n      tag_126\n      swap2\n      swap1\n      tag_55\n      jump\t// in\n    tag_126:\n      mload(0x40)\n      dup1\n      swap2\n      sub\n      swap1\n      return\n        /* \"WandInstruments.sol\":909:941  uint256 public daysInCalculation */\n    tag_19:\n      callvalue\n      dup1\n      iszero\n      tag_127\n      jumpi\n      0x00\n      dup1\n      revert\n    tag_127:\n      pop\n      tag_128\n      tag_129\n      jump\t// in\n    tag_128:\n      mload(0x40)\n      tag_130\n      swap2\n      swap1\n      tag_55\n      jump\t// in\n    tag_130:\n      mload(0x40)\n      dup1\n      swap2\n      sub\n      swap1\n      return\n        /* \"WandInstruments.sol\":13228:13700  function testUpdatetimeLockedplus(uint256 amt) public  {\r... */\n    tag_20:\n      callvalue\n      dup1\n      iszero\n      tag_131\n      jumpi\n      0x00\n      dup1\n      revert\n    tag_131:\n      pop\n      tag_132\n      0x04\n      dup1\n      calldatasize\n      sub\n      dup2\n      add\n      swap1\n      tag_133\n      swap2\n      swap1\n      tag_82\n      jump\t// in\n    tag_133:\n      tag_134\n      jump\t// in\n    tag_132:\n      stop\n        /* \"WandInstruments.sol\":1160:1177  int128 public res */\n    tag_21:\n      callvalue\n      dup1\n      iszero\n      tag_135\n      jumpi\n      0x00\n      dup1\n      revert\n    tag_135:\n      pop\n      tag_136\n      tag_137\n      jump\t// in\n    tag_136:\n      mload(0x40)\n      tag_138\n      swap2\n      swap1\n      tag_139\n      jump\t// in\n    tag_138:\n      mload(0x40)\n      dup1\n      swap2\n      sub\n      swap1\n      return\n        /* \"WandInstruments.sol\":1507:1532  IERC20 public tokenStable */\n    tag_22:\n      callvalue\n      dup1\n      iszero\n      tag_140\n      jumpi\n      0x00\n      dup1\n      revert\n    tag_140:\n      pop\n      tag_141\n      tag_142\n      jump\t// in\n    tag_141:\n      mload(0x40)\n      tag_143\n      swap2\n      swap1\n      tag_105\n      jump\t// in\n    tag_143:\n      mload(0x40)\n      dup1\n      swap2\n      sub\n      swap1\n      return\n        /* \"Ownable.sol\":1661:1762  function renounceOwnership() public virtual onlyOwner {... */\n    tag_23:\n      callvalue\n      dup1\n      iszero\n      tag_144\n      jumpi\n      0x00\n      dup1\n      revert\n    tag_144:\n      pop\n      tag_145\n      tag_146\n      jump\t// in\n    tag_145:\n      stop\n        /* \"WandInstruments.sol\":14224:14752  function getTokensBoughtXDays() external view returns (uint256){\r... */\n    tag_24:\n      callvalue\n      dup1\n      iszero\n      tag_147\n      jumpi\n      0x00\n      dup1\n      revert\n    tag_147:\n      pop\n      tag_148\n      tag_149\n      jump\t// in\n    tag_148:\n      mload(0x40)\n      tag_150\n      swap2\n      swap1\n      tag_55\n      jump\t// in\n    tag_150:\n      mload(0x40)\n      dup1\n      swap2\n      sub\n      swap1\n      return\n        /* \"WandInstruments.sol\":7698:8945  function buyScepter(uint256 amountSCPtoBuy, string memory _stableChosen) public nonReentrant{\r... */\n    tag_25:\n      callvalue\n      dup1\n      iszero\n      tag_151\n      jumpi\n      0x00\n      dup1\n      revert\n    tag_151:\n      pop\n      tag_152\n      0x04\n      dup1\n      calldatasize\n      sub\n      dup2\n      add\n      swap1\n      tag_153\n      swap2\n      swap1\n      tag_154\n      jump\t// in\n    tag_153:\n      tag_155\n      jump\t// in\n    tag_152:\n      stop\n        /* \"Ownable.sol\":1029:1114  function owner() public view virtual returns (address) {... */\n    tag_26:\n      callvalue\n      dup1\n      iszero\n      tag_156\n      jumpi\n      0x00\n      dup1\n      revert\n    tag_156:\n      pop\n      tag_157\n      tag_158\n      jump\t// in\n    tag_157:\n      mload(0x40)\n      tag_159\n      swap2\n      swap1\n      tag_63\n      jump\t// in\n    tag_159:\n      mload(0x40)\n      dup1\n      swap2\n      sub\n      swap1\n      return\n        /* \"WandInstruments.sol\":9493:10396  function getGrowthFactor() external view returns (uint256){\r... */\n    tag_27:\n      callvalue\n      dup1\n      iszero\n      tag_160\n      jumpi\n      0x00\n      dup1\n      revert\n    tag_160:\n      pop\n      tag_161\n      tag_162\n      jump\t// in\n    tag_161:\n      mload(0x40)\n      tag_163\n      swap2\n      swap1\n      tag_55\n      jump\t// in\n    tag_163:\n      mload(0x40)\n      dup1\n      swap2\n      sub\n      swap1\n      return\n        /* \"WandInstruments.sol\":15493:15582  function whitelist(address _addr) public onlyOwner {  \r... */\n    tag_28:\n      callvalue\n      dup1\n      iszero\n      tag_164\n      jumpi\n      0x00\n      dup1\n      revert\n    tag_164:\n      pop\n      tag_165\n      0x04\n      dup1\n      calldatasize\n      sub\n      dup2\n      add\n      swap1\n      tag_166\n      swap2\n      swap1\n      tag_75\n      jump\t// in\n    tag_166:\n      tag_167\n      jump\t// in\n    tag_165:\n      stop\n        /* \"WandInstruments.sol\":1894:1955  mapping (string => stableTokensParams) public stableERC20Info */\n    tag_29:\n      callvalue\n      dup1\n      iszero\n      tag_168\n      jumpi\n      0x00\n      dup1\n      revert\n    tag_168:\n      pop\n      tag_169\n      0x04\n      dup1\n      calldatasize\n      sub\n      dup2\n      add\n      swap1\n      tag_170\n      swap2\n      swap1\n      tag_171\n      jump\t// in\n    tag_170:\n      tag_172\n      jump\t// in\n    tag_169:\n      mload(0x40)\n      tag_173\n      swap3\n      swap2\n      swap1\n      tag_174\n      jump\t// in\n    tag_173:\n      mload(0x40)\n      dup1\n      swap2\n      sub\n      swap1\n      return\n        /* \"WandInstruments.sol\":12090:12320  function updateSPTRTreasuryBal() external onlyOwner {\r... */\n    tag_30:\n      callvalue\n      dup1\n      iszero\n      tag_175\n      jumpi\n      0x00\n      dup1\n      revert\n    tag_175:\n      pop\n      tag_176\n      tag_177\n      jump\t// in\n    tag_176:\n      stop\n        /* \"WandInstruments.sol\":8953:9460  function claimLockedUSDC(address _claimant, string memory _stableChosen) public {\r... */\n    tag_31:\n      callvalue\n      dup1\n      iszero\n      tag_178\n      jumpi\n      0x00\n      dup1\n      revert\n    tag_178:\n      pop\n      tag_179\n      0x04\n      dup1\n      calldatasize\n      sub\n      dup2\n      add\n      swap1\n      tag_180\n      swap2\n      swap1\n      tag_181\n      jump\t// in\n    tag_180:\n      tag_182\n      jump\t// in\n    tag_179:\n      stop\n        /* \"WandInstruments.sol\":668:702  address public scepterTreasuryAddr */\n    tag_32:\n      callvalue\n      dup1\n      iszero\n      tag_183\n      jumpi\n      0x00\n      dup1\n      revert\n    tag_183:\n      pop\n      tag_184\n      tag_185\n      jump\t// in\n    tag_184:\n      mload(0x40)\n      tag_186\n      swap2\n      swap1\n      tag_63\n      jump\t// in\n    tag_186:\n      mload(0x40)\n      dup1\n      swap2\n      sub\n      swap1\n      return\n        /* \"WandInstruments.sol\":1480:1498  IERC20 public BTON */\n    tag_33:\n      callvalue\n      dup1\n      iszero\n      tag_187\n      jumpi\n      0x00\n      dup1\n      revert\n    tag_187:\n      pop\n      tag_188\n      tag_189\n      jump\t// in\n    tag_188:\n      mload(0x40)\n      tag_190\n      swap2\n      swap1\n      tag_105\n      jump\t// in\n    tag_190:\n      mload(0x40)\n      dup1\n      swap2\n      sub\n      swap1\n      return\n        /* \"WandInstruments.sol\":5202:6928  function cashOutScepter(uint256 amountSCPtoSell, uint256 timeChosenLocked, string memory _stableChosen) public payable{\r... */\n    tag_34:\n      tag_191\n      0x04\n      dup1\n      calldatasize\n      sub\n      dup2\n      add\n      swap1\n      tag_192\n      swap2\n      swap1\n      tag_193\n      jump\t// in\n    tag_192:\n      tag_194\n      jump\t// in\n    tag_191:\n      stop\n        /* \"WandInstruments.sol\":419:444  uint256 public sellFactor */\n    tag_35:\n      callvalue\n      dup1\n      iszero\n      tag_195\n      jumpi\n      0x00\n      dup1\n      revert\n    tag_195:\n      pop\n      tag_196\n      tag_197\n      jump\t// in\n    tag_196:\n      mload(0x40)\n      tag_198\n      swap2\n      swap1\n      tag_55\n      jump\t// in\n    tag_198:\n      mload(0x40)\n      dup1\n      swap2\n      sub\n      swap1\n      return\n        /* \"WandInstruments.sol\":1455:1473  IERC20 public WAND */\n    tag_36:\n      callvalue\n      dup1\n      iszero\n      tag_199\n      jumpi\n      0x00\n      dup1\n      revert\n    tag_199:\n      pop\n      tag_200\n      tag_201\n      jump\t// in\n    tag_200:\n      mload(0x40)\n      tag_202\n      swap2\n      swap1\n      tag_105\n      jump\t// in\n    tag_202:\n      mload(0x40)\n      dup1\n      swap2\n      sub\n      swap1\n      return\n        /* \"WandInstruments.sol\":14758:15044  function getTokensSoldXDays() external view returns (uint256){\r... */\n    tag_37:\n      callvalue\n      dup1\n      iszero\n      tag_203\n      jumpi\n      0x00\n      dup1\n      revert\n    tag_203:\n      pop\n      tag_204\n      tag_205\n      jump\t// in\n    tag_204:\n      mload(0x40)\n      tag_206\n      swap2\n      swap1\n      tag_55\n      jump\t// in\n    tag_206:\n      mload(0x40)\n      dup1\n      swap2\n      sub\n      swap1\n      return\n        /* \"WandInstruments.sol\":15590:15809  function addStable(string memory _ticker, address _addr, uint256 _dec) public onlyOwner {\r... */\n    tag_38:\n      callvalue\n      dup1\n      iszero\n      tag_207\n      jumpi\n      0x00\n      dup1\n      revert\n    tag_207:\n      pop\n      tag_208\n      0x04\n      dup1\n      calldatasize\n      sub\n      dup2\n      add\n      swap1\n      tag_209\n      swap2\n      swap1\n      tag_210\n      jump\t// in\n    tag_209:\n      tag_211\n      jump\t// in\n    tag_208:\n      stop\n        /* \"WandInstruments.sol\":385:412  uint256 public growthFactor */\n    tag_39:\n      callvalue\n      dup1\n      iszero\n      tag_212\n      jumpi\n      0x00\n      dup1\n      revert\n    tag_212:\n      pop\n      tag_213\n      tag_214\n      jump\t// in\n    tag_213:\n      mload(0x40)\n      tag_215\n      swap2\n      swap1\n      tag_55\n      jump\t// in\n    tag_215:\n      mload(0x40)\n      dup1\n      swap2\n      sub\n      swap1\n      return\n        /* \"WandInstruments.sol\":1184:1254  address public testwallet = 0x617F2E2fD72FD9D5503197092aC168c91465E7f2 */\n    tag_40:\n      callvalue\n      dup1\n      iszero\n      tag_216\n      jumpi\n      0x00\n      dup1\n      revert\n    tag_216:\n      pop\n      tag_217\n      tag_218\n      jump\t// in\n    tag_217:\n      mload(0x40)\n      tag_219\n      swap2\n      swap1\n      tag_63\n      jump\t// in\n    tag_219:\n      mload(0x40)\n      dup1\n      swap2\n      sub\n      swap1\n      return\n        /* \"Ownable.sol\":1911:2109  function transferOwnership(address newOwner) public virtual onlyOwner {... */\n    tag_41:\n      callvalue\n      dup1\n      iszero\n      tag_220\n      jumpi\n      0x00\n      dup1\n      revert\n    tag_220:\n      pop\n      tag_221\n      0x04\n      dup1\n      calldatasize\n      sub\n      dup2\n      add\n      swap1\n      tag_222\n      swap2\n      swap1\n      tag_75\n      jump\t// in\n    tag_222:\n      tag_223\n      jump\t// in\n    tag_221:\n      stop\n        /* \"WandInstruments.sol\":633:661  address public treasury1Addr */\n    tag_42:\n      callvalue\n      dup1\n      iszero\n      tag_224\n      jumpi\n      0x00\n      dup1\n      revert\n    tag_224:\n      pop\n      tag_225\n      tag_226\n      jump\t// in\n    tag_225:\n      mload(0x40)\n      tag_227\n      swap2\n      swap1\n      tag_63\n      jump\t// in\n    tag_227:\n      mload(0x40)\n      dup1\n      swap2\n      sub\n      swap1\n      return\n        /* \"WandInstruments.sol\":13094:13218  function setDaysUsedInFactors(uint256 numDays) public onlyOwner{  \r... */\n    tag_43:\n      callvalue\n      dup1\n      iszero\n      tag_228\n      jumpi\n      0x00\n      dup1\n      revert\n    tag_228:\n      pop\n      tag_229\n      0x04\n      dup1\n      calldatasize\n      sub\n      dup2\n      add\n      swap1\n      tag_230\n      swap2\n      swap1\n      tag_82\n      jump\t// in\n    tag_230:\n      tag_231\n      jump\t// in\n    tag_229:\n      stop\n        /* \"WandInstruments.sol\":11529:11803  function getBuyPrice() external view returns (uint256){\r... */\n    tag_53:\n        /* \"WandInstruments.sol\":11575:11582  uint256 */\n      0x00\n        /* \"WandInstruments.sol\":11712:11793  decMul18(this.getBackingPrice() , (1200000000000000000 + this.getGrowthFactor())) */\n      tag_233\n        /* \"WandInstruments.sol\":11721:11725  this */\n      address\n        /* \"WandInstruments.sol\":11721:11741  this.getBackingPrice */\n      0xffffffffffffffffffffffffffffffffffffffff\n      and\n      0x1f564a06\n        /* \"WandInstruments.sol\":11721:11743  this.getBackingPrice() */\n      mload(0x40)\n      dup2\n      0xffffffff\n      and\n      0xe0\n      shl\n      dup2\n      mstore\n      0x04\n      add\n      0x20\n      mload(0x40)\n      dup1\n      dup4\n      sub\n      dup2\n      dup7\n      dup1\n      extcodesize\n      iszero\n      dup1\n      iszero\n      tag_234\n      jumpi\n      0x00\n      dup1\n      revert\n    tag_234:\n      pop\n      gas\n      staticcall\n      iszero\n      dup1\n      iszero\n      tag_236\n      jumpi\n      returndatasize\n      0x00\n      dup1\n      returndatacopy\n      revert(0x00, returndatasize)\n    tag_236:\n      pop\n      pop\n      pop\n      pop\n      mload(0x40)\n      returndatasize\n      not(0x1f)\n      0x1f\n      dup3\n      add\n      and\n      dup3\n      add\n      dup1\n      0x40\n      mstore\n      pop\n      dup2\n      add\n      swap1\n      tag_237\n      swap2\n      swap1\n      tag_238\n      jump\t// in\n    tag_237:\n        /* \"WandInstruments.sol\":11769:11773  this */\n      address\n        /* \"WandInstruments.sol\":11769:11789  this.getGrowthFactor */\n      0xffffffffffffffffffffffffffffffffffffffff\n      and\n      0x93f7b711\n        /* \"WandInstruments.sol\":11769:11791  this.getGrowthFactor() */\n      mload(0x40)\n      dup2\n      0xffffffff\n      and\n      0xe0\n      shl\n      dup2\n      mstore\n      0x04\n      add\n      0x20\n      mload(0x40)\n      dup1\n      dup4\n      sub\n      dup2\n      dup7\n      dup1\n      extcodesize\n      iszero\n      dup1\n      iszero\n      tag_239\n      jumpi\n      0x00\n      dup1\n      revert\n    tag_239:\n      pop\n      gas\n      staticcall\n      iszero\n      dup1\n      iszero\n      tag_241\n      jumpi\n      returndatasize\n      0x00\n      dup1\n      returndatacopy\n      revert(0x00, returndatasize)\n    tag_241:\n      pop\n      pop\n      pop\n      pop\n      mload(0x40)\n      returndatasize\n      not(0x1f)\n      0x1f\n      dup3\n      add\n      and\n      dup3\n      add\n      dup1\n      0x40\n      mstore\n      pop\n      dup2\n      add\n      swap1\n      tag_242\n      swap2\n      swap1\n      tag_238\n      jump\t// in\n    tag_242:\n        /* \"WandInstruments.sol\":11747:11766  1200000000000000000 */\n      0x10a741a462780000\n        /* \"WandInstruments.sol\":11747:11791  1200000000000000000 + this.getGrowthFactor() */\n      tag_243\n      swap2\n      swap1\n      tag_244\n      jump\t// in\n    tag_243:\n        /* \"WandInstruments.sol\":11712:11720  decMul18 */\n      tag_245\n        /* \"WandInstruments.sol\":11712:11793  decMul18(this.getBackingPrice() , (1200000000000000000 + this.getGrowthFactor())) */\n      jump\t// in\n    tag_233:\n        /* \"WandInstruments.sol\":11705:11793  return decMul18(this.getBackingPrice() , (1200000000000000000 + this.getGrowthFactor())) */\n      swap1\n      pop\n        /* \"WandInstruments.sol\":11529:11803  function getBuyPrice() external view returns (uint256){\r... */\n      swap1\n      jump\t// out\n        /* \"WandInstruments.sol\":12362:13086  function Launch() public onlyOwner{\r... */\n    tag_58:\n        /* \"Ownable.sol\":1252:1264  _msgSender() */\n      tag_247\n        /* \"Ownable.sol\":1252:1262  _msgSender */\n      tag_248\n        /* \"Ownable.sol\":1252:1264  _msgSender() */\n      jump\t// in\n    tag_247:\n        /* \"Ownable.sol\":1241:1264  owner() == _msgSender() */\n      0xffffffffffffffffffffffffffffffffffffffff\n      and\n        /* \"Ownable.sol\":1241:1248  owner() */\n      tag_249\n        /* \"Ownable.sol\":1241:1246  owner */\n      tag_158\n        /* \"Ownable.sol\":1241:1248  owner() */\n      jump\t// in\n    tag_249:\n        /* \"Ownable.sol\":1241:1264  owner() == _msgSender() */\n      0xffffffffffffffffffffffffffffffffffffffff\n      and\n      eq\n        /* \"Ownable.sol\":1233:1301  require(owner() == _msgSender(), \"Ownable: caller is not the owner\") */\n      tag_250\n      jumpi\n      mload(0x40)\n      0x08c379a000000000000000000000000000000000000000000000000000000000\n      dup2\n      mstore\n      0x04\n      add\n      tag_251\n      swap1\n      tag_252\n      jump\t// in\n    tag_251:\n      mload(0x40)\n      dup1\n      swap2\n      sub\n      swap1\n      revert\n    tag_250:\n        /* \"WandInstruments.sol\":12441:12445  SPTR */\n      0x14\n      0x00\n      swap1\n      sload\n      swap1\n      0x0100\n      exp\n      swap1\n      div\n      0xffffffffffffffffffffffffffffffffffffffff\n      and\n        /* \"WandInstruments.sol\":12441:12450  SPTR.mint */\n      0xffffffffffffffffffffffffffffffffffffffff\n      and\n      0x40c10f19\n        /* \"WandInstruments.sol\":12451:12493  0x617F2E2fD72FD9D5503197092aC168c91465E7f2 */\n      0x617f2e2fd72fd9d5503197092ac168c91465e7f2\n        /* \"WandInstruments.sol\":12495:12514  9411764706 * 10**12 */\n      0x01fe36793670c0c82000\n        /* \"WandInstruments.sol\":12441:12515  SPTR.mint(0x617F2E2fD72FD9D5503197092aC168c91465E7f2, 9411764706 * 10**12) */\n      mload(0x40)\n      dup4\n      0xffffffff\n      and\n      0xe0\n      shl\n      dup2\n      mstore\n      0x04\n      add\n      tag_254\n      swap3\n      swap2\n      swap1\n      tag_255\n      jump\t// in\n    tag_254:\n      0x00\n      mload(0x40)\n      dup1\n      dup4\n      sub\n      dup2\n      0x00\n      dup8\n      dup1\n      extcodesize\n      iszero\n      dup1\n      iszero\n      tag_256\n      jumpi\n      0x00\n      dup1\n      revert\n    tag_256:\n      pop\n      gas\n      call\n      iszero\n      dup1\n      iszero\n      tag_258\n      jumpi\n      returndatasize\n      0x00\n      dup1\n      returndatacopy\n      revert(0x00, returndatasize)\n    tag_258:\n      pop\n      pop\n      pop\n      pop\n        /* \"WandInstruments.sol\":12535:12539  SPTR */\n      0x14\n      0x00\n      swap1\n      sload\n      swap1\n      0x0100\n      exp\n      swap1\n      div\n      0xffffffffffffffffffffffffffffffffffffffff\n      and\n        /* \"WandInstruments.sol\":12535:12544  SPTR.mint */\n      0xffffffffffffffffffffffffffffffffffffffff\n      and\n      0x40c10f19\n        /* \"WandInstruments.sol\":12545:12587  0x17F6AD8Ef982297579C203069C1DbfFE4348c372 */\n      0x17f6ad8ef982297579c203069c1dbffe4348c372\n        /* \"WandInstruments.sol\":12589:12608  4470588235 * 10**13 */\n      0x097782bfbf68ab74e000\n        /* \"WandInstruments.sol\":12535:12609  SPTR.mint(0x17F6AD8Ef982297579C203069C1DbfFE4348c372, 4470588235 * 10**13) */\n      mload(0x40)\n      dup4\n      0xffffffff\n      and\n      0xe0\n      shl\n      dup2\n      mstore\n      0x04\n      add\n      tag_259\n      swap3\n      swap2\n      swap1\n      tag_260\n      jump\t// in\n    tag_259:\n      0x00\n      mload(0x40)\n      dup1\n      dup4\n      sub\n      dup2\n      0x00\n      dup8\n      dup1\n      extcodesize\n      iszero\n      dup1\n      iszero\n      tag_261\n      jumpi\n      0x00\n      dup1\n      revert\n    tag_261:\n      pop\n      gas\n      call\n      iszero\n      dup1\n      iszero\n      tag_263\n      jumpi\n      returndatasize\n      0x00\n      dup1\n      returndatacopy\n      revert(0x00, returndatasize)\n    tag_263:\n      pop\n      pop\n      pop\n      pop\n        /* \"WandInstruments.sol\":12629:12633  SPTR */\n      0x14\n      0x00\n      swap1\n      sload\n      swap1\n      0x0100\n      exp\n      swap1\n      div\n      0xffffffffffffffffffffffffffffffffffffffff\n      and\n        /* \"WandInstruments.sol\":12629:12638  SPTR.mint */\n      0xffffffffffffffffffffffffffffffffffffffff\n      and\n      0x40c10f19\n        /* \"WandInstruments.sol\":12639:12681  0x5c6B0f7Bf3E7ce046039Bd8FABdfD3f9F5021678 */\n      0x5c6b0f7bf3e7ce046039bd8fabdfd3f9f5021678\n        /* \"WandInstruments.sol\":12683:12702  4705882353 * 10**13 */\n      0x09f7105e1033c3e8a000\n        /* \"WandInstruments.sol\":12629:12703  SPTR.mint(0x5c6B0f7Bf3E7ce046039Bd8FABdfD3f9F5021678, 4705882353 * 10**13) */\n      mload(0x40)\n      dup4\n      0xffffffff\n      and\n      0xe0\n      shl\n      dup2\n      mstore\n      0x04\n      add\n      tag_264\n      swap3\n      swap2\n      swap1\n      tag_265\n      jump\t// in\n    tag_264:\n      0x00\n      mload(0x40)\n      dup1\n      dup4\n      sub\n      dup2\n      0x00\n      dup8\n      dup1\n      extcodesize\n      iszero\n      dup1\n      iszero\n      tag_266\n      jumpi\n      0x00\n      dup1\n      revert\n    tag_266:\n      pop\n      gas\n      call\n      iszero\n      dup1\n      iszero\n      tag_268\n      jumpi\n      returndatasize\n      0x00\n      dup1\n      returndatacopy\n      revert(0x00, returndatasize)\n    tag_268:\n      pop\n      pop\n      pop\n      pop\n        /* \"WandInstruments.sol\":12725:12729  WAND */\n      0x15\n      0x00\n      swap1\n      sload\n      swap1\n      0x0100\n      exp\n      swap1\n      div\n      0xffffffffffffffffffffffffffffffffffffffff\n      and\n        /* \"WandInstruments.sol\":12725:12734  WAND.mint */\n      0xffffffffffffffffffffffffffffffffffffffff\n      and\n      0x40c10f19\n        /* \"WandInstruments.sol\":12743:12747  this */\n      address\n        /* \"WandInstruments.sol\":12750:12819  (9411764706 * 10**12) + (4470588235 * 10**13) + (4705882353 * 10**13) */\n      0x156cc997060d3025a000\n        /* \"WandInstruments.sol\":12725:12820  WAND.mint(address(this), (9411764706 * 10**12) + (4470588235 * 10**13) + (4705882353 * 10**13)) */\n      mload(0x40)\n      dup4\n      0xffffffff\n      and\n      0xe0\n      shl\n      dup2\n      mstore\n      0x04\n      add\n      tag_269\n      swap3\n      swap2\n      swap1\n      tag_270\n      jump\t// in\n    tag_269:\n      0x00\n      mload(0x40)\n      dup1\n      dup4\n      sub\n      dup2\n      0x00\n      dup8\n      dup1\n      extcodesize\n      iszero\n      dup1\n      iszero\n      tag_271\n      jumpi\n      0x00\n      dup1\n      revert\n    tag_271:\n      pop\n      gas\n      call\n      iszero\n      dup1\n      iszero\n      tag_273\n      jumpi\n      returndatasize\n      0x00\n      dup1\n      returndatacopy\n      revert(0x00, returndatasize)\n    tag_273:\n      pop\n      pop\n      pop\n      pop\n        /* \"WandInstruments.sol\":12864:12933  (9411764706 * 10**12) + (4470588235 * 10**13) + (4705882353 * 10**13) */\n      0x156cc997060d3025a000\n        /* \"WandInstruments.sol\":12841:12858  tokensBoughtXDays */\n      0x18\n        /* \"WandInstruments.sol\":12841:12861  tokensBoughtXDays[0] */\n      0x00\n        /* \"WandInstruments.sol\":12859:12860  0 */\n      dup1\n        /* \"WandInstruments.sol\":12841:12861  tokensBoughtXDays[0] */\n      dup2\n      mstore\n      0x20\n      add\n      swap1\n      dup2\n      mstore\n      0x20\n      add\n      0x00\n      keccak256\n        /* \"WandInstruments.sol\":12841:12933  tokensBoughtXDays[0] = (9411764706 * 10**12) + (4470588235 * 10**13) + (4705882353 * 10**13) */\n      dup2\n      swap1\n      sstore\n      pop\n        /* \"WandInstruments.sol\":12972:13041  (9411764706 * 10**12) + (4470588235 * 10**13) + (4705882353 * 10**13) */\n      0x156cc997060d3025a000\n        /* \"WandInstruments.sol\":12944:12966  circulatingSupplyXDays */\n      0x1a\n        /* \"WandInstruments.sol\":12944:12969  circulatingSupplyXDays[0] */\n      0x00\n        /* \"WandInstruments.sol\":12967:12968  0 */\n      dup1\n        /* \"WandInstruments.sol\":12944:12969  circulatingSupplyXDays[0] */\n      dup2\n      mstore\n      0x20\n      add\n      swap1\n      dup2\n      mstore\n      0x20\n      add\n      0x00\n      keccak256\n        /* \"WandInstruments.sol\":12944:13041  circulatingSupplyXDays[0] = (9411764706 * 10**12) + (4470588235 * 10**13) + (4705882353 * 10**13) */\n      dup2\n      swap1\n      sstore\n      pop\n        /* \"WandInstruments.sol\":13072:13078  570000 */\n      0x08b290\n        /* \"WandInstruments.sol\":13054:13069  sptrTreasuryBal */\n      0x0c\n        /* \"WandInstruments.sol\":13054:13078  sptrTreasuryBal = 570000 */\n      dup2\n      swap1\n      sstore\n      pop\n        /* \"WandInstruments.sol\":12362:13086  function Launch() public onlyOwner{\r... */\n      jump\t// out\n        /* \"WandInstruments.sol\":709:740  address public riskTreasuryAddr */\n    tag_61:\n      0x0a\n      0x00\n      swap1\n      sload\n      swap1\n      0x0100\n      exp\n      swap1\n      div\n      0xffffffffffffffffffffffffffffffffffffffff\n      and\n      dup2\n      jump\t// out\n        /* \"WandInstruments.sol\":10402:11297  function getSellFactor() external view returns (uint256){\r... */\n    tag_66:\n        /* \"WandInstruments.sol\":10450:10457  uint256 */\n      0x00\n        /* \"WandInstruments.sol\":10603:10614  uint256 _sF */\n      dup1\n        /* \"WandInstruments.sol\":10626:10649  uint256 xDaysCircSupply */\n      0x00\n        /* \"WandInstruments.sol\":10660:10675  uint256 numdays */\n      dup1\n        /* \"WandInstruments.sol\":10696:10701  86400 */\n      0x015180\n        /* \"WandInstruments.sol\":10678:10695  daysInCalculation */\n      sload(0x0e)\n        /* \"WandInstruments.sol\":10678:10701  daysInCalculation/86400 */\n      tag_275\n      swap2\n      swap1\n      tag_276\n      jump\t// in\n    tag_275:\n        /* \"WandInstruments.sol\":10660:10701  uint256 numdays = daysInCalculation/86400 */\n      swap1\n      pop\n        /* \"WandInstruments.sol\":10712:10736  uint256 daySinceLaunched */\n      0x00\n        /* \"WandInstruments.sol\":10774:10779  86400 */\n      0x015180\n        /* \"WandInstruments.sol\":10758:10770  timeLaunched */\n      sload(0x0d)\n        /* \"WandInstruments.sol\":10740:10755  block.timestamp */\n      timestamp\n        /* \"WandInstruments.sol\":10740:10770  block.timestamp - timeLaunched */\n      tag_277\n      swap2\n      swap1\n      tag_278\n      jump\t// in\n    tag_277:\n        /* \"WandInstruments.sol\":10739:10779  (block.timestamp - timeLaunched) / 86400 */\n      tag_279\n      swap2\n      swap1\n      tag_276\n      jump\t// in\n    tag_279:\n        /* \"WandInstruments.sol\":10712:10779  uint256 daySinceLaunched = (block.timestamp - timeLaunched) / 86400 */\n      swap1\n      pop\n        /* \"WandInstruments.sol\":10790:10799  uint256 d */\n      0x00\n        /* \"WandInstruments.sol\":10836:10837  0 */\n      dup1\n        /* \"WandInstruments.sol\":10816:10832  daySinceLaunched */\n      dup3\n        /* \"WandInstruments.sol\":10816:10837  daySinceLaunched == 0 */\n      eq\n        /* \"WandInstruments.sol\":10812:11104  if (daySinceLaunched == 0) {\r... */\n      iszero\n      tag_280\n      jumpi\n        /* \"WandInstruments.sol\":10868:10890  circulatingSupplyXDays */\n      0x1a\n        /* \"WandInstruments.sol\":10868:10893  circulatingSupplyXDays[0] */\n      0x00\n        /* \"WandInstruments.sol\":10891:10892  0 */\n      dup1\n        /* \"WandInstruments.sol\":10868:10893  circulatingSupplyXDays[0] */\n      dup2\n      mstore\n      0x20\n      add\n      swap1\n      dup2\n      mstore\n      0x20\n      add\n      0x00\n      keccak256\n      sload\n        /* \"WandInstruments.sol\":10850:10893  xDaysCircSupply = circulatingSupplyXDays[0] */\n      swap4\n      pop\n        /* \"WandInstruments.sol\":10812:11104  if (daySinceLaunched == 0) {\r... */\n      jump(tag_281)\n    tag_280:\n        /* \"WandInstruments.sol\":10962:10969  numdays */\n      dup3\n        /* \"WandInstruments.sol\":10943:10959  daySinceLaunched */\n      dup3\n        /* \"WandInstruments.sol\":10943:10969  daySinceLaunched - numdays */\n      tag_285\n      swap2\n      swap1\n      tag_278\n      jump\t// in\n    tag_285:\n        /* \"WandInstruments.sol\":10939:10969  d = daySinceLaunched - numdays */\n      swap1\n      pop\n        /* \"WandInstruments.sol\":10934:11093  for (d = daySinceLaunched - numdays; d < daySinceLaunched; d++) {  //for loop example\r... */\n    tag_282:\n        /* \"WandInstruments.sol\":10975:10991  daySinceLaunched */\n      dup2\n        /* \"WandInstruments.sol\":10971:10972  d */\n      dup2\n        /* \"WandInstruments.sol\":10971:10991  d < daySinceLaunched */\n      lt\n        /* \"WandInstruments.sol\":10934:11093  for (d = daySinceLaunched - numdays; d < daySinceLaunched; d++) {  //for loop example\r... */\n      iszero\n      tag_283\n      jumpi\n        /* \"WandInstruments.sol\":11052:11074  circulatingSupplyXDays */\n      0x1a\n        /* \"WandInstruments.sol\":11052:11077  circulatingSupplyXDays[d] */\n      0x00\n        /* \"WandInstruments.sol\":11075:11076  d */\n      dup3\n        /* \"WandInstruments.sol\":11052:11077  circulatingSupplyXDays[d] */\n      dup2\n      mstore\n      0x20\n      add\n      swap1\n      dup2\n      mstore\n      0x20\n      add\n      0x00\n      keccak256\n      sload\n        /* \"WandInstruments.sol\":11033:11077  xDaysCircSupply += circulatingSupplyXDays[d] */\n      dup5\n      tag_286\n      swap2\n      swap1\n      tag_244\n      jump\t// in\n    tag_286:\n      swap4\n      pop\n        /* \"WandInstruments.sol\":10993:10996  d++ */\n      dup1\n      dup1\n      tag_287\n      swap1\n      tag_288\n      jump\t// in\n    tag_287:\n      swap2\n      pop\n      pop\n        /* \"WandInstruments.sol\":10934:11093  for (d = daySinceLaunched - numdays; d < daySinceLaunched; d++) {  //for loop example\r... */\n      jump(tag_282)\n    tag_283:\n        /* \"WandInstruments.sol\":10812:11104  if (daySinceLaunched == 0) {\r... */\n    tag_281:\n        /* \"WandInstruments.sol\":11121:11172  decDiv18(this.getTokensSoldXDays(),xDaysCircSupply) */\n      tag_289\n        /* \"WandInstruments.sol\":11130:11134  this */\n      address\n        /* \"WandInstruments.sol\":11130:11153  this.getTokensSoldXDays */\n      0xffffffffffffffffffffffffffffffffffffffff\n      and\n      0xd82eddf2\n        /* \"WandInstruments.sol\":11130:11155  this.getTokensSoldXDays() */\n      mload(0x40)\n      dup2\n      0xffffffff\n      and\n      0xe0\n      shl\n      dup2\n      mstore\n      0x04\n      add\n      0x20\n      mload(0x40)\n      dup1\n      dup4\n      sub\n      dup2\n      dup7\n      dup1\n      extcodesize\n      iszero\n      dup1\n      iszero\n      tag_290\n      jumpi\n      0x00\n      dup1\n      revert\n    tag_290:\n      pop\n      gas\n      staticcall\n      iszero\n      dup1\n      iszero\n      tag_292\n      jumpi\n      returndatasize\n      0x00\n      dup1\n      returndatacopy\n      revert(0x00, returndatasize)\n    tag_292:\n      pop\n      pop\n      pop\n      pop\n      mload(0x40)\n      returndatasize\n      not(0x1f)\n      0x1f\n      dup3\n      add\n      and\n      dup3\n      add\n      dup1\n      0x40\n      mstore\n      pop\n      dup2\n      add\n      swap1\n      tag_293\n      swap2\n      swap1\n      tag_238\n      jump\t// in\n    tag_293:\n        /* \"WandInstruments.sol\":11156:11171  xDaysCircSupply */\n      dup6\n        /* \"WandInstruments.sol\":11121:11129  decDiv18 */\n      tag_294\n        /* \"WandInstruments.sol\":11121:11172  decDiv18(this.getTokensSoldXDays(),xDaysCircSupply) */\n      jump\t// in\n    tag_289:\n        /* \"WandInstruments.sol\":11115:11172  _sF = decDiv18(this.getTokensSoldXDays(),xDaysCircSupply) */\n      swap5\n      pop\n        /* \"WandInstruments.sol\":11192:11210  300000000000000000 */\n      0x0429d069189e0000\n        /* \"WandInstruments.sol\":11186:11189  _sF */\n      dup6\n        /* \"WandInstruments.sol\":11186:11210  _sF > 300000000000000000 */\n      gt\n        /* \"WandInstruments.sol\":11182:11269  if (_sF > 300000000000000000)\r... */\n      iszero\n      tag_295\n      jumpi\n        /* \"WandInstruments.sol\":11240:11258  300000000000000000 */\n      0x0429d069189e0000\n        /* \"WandInstruments.sol\":11234:11258  _sF = 300000000000000000 */\n      swap5\n      pop\n        /* \"WandInstruments.sol\":11182:11269  if (_sF > 300000000000000000)\r... */\n    tag_295:\n        /* \"WandInstruments.sol\":11285:11288  _sF */\n      dup5\n        /* \"WandInstruments.sol\":11278:11288  return _sF */\n      swap6\n      pop\n      pop\n      pop\n      pop\n      pop\n      pop\n        /* \"WandInstruments.sol\":10402:11297  function getSellFactor() external view returns (uint256){\r... */\n      swap1\n      jump\t// out\n        /* \"WandInstruments.sol\":15050:15485  function getCircSupplyXDays() external view returns (uint256){\r... */\n    tag_70:\n        /* \"WandInstruments.sol\":15103:15110  uint256 */\n      0x00\n        /* \"WandInstruments.sol\":15116:15140  uint256 daySinceLaunched */\n      dup1\n        /* \"WandInstruments.sol\":15178:15183  86400 */\n      0x015180\n        /* \"WandInstruments.sol\":15162:15174  timeLaunched */\n      sload(0x0d)\n        /* \"WandInstruments.sol\":15144:15159  block.timestamp */\n      timestamp\n        /* \"WandInstruments.sol\":15144:15174  block.timestamp - timeLaunched */\n      tag_297\n      swap2\n      swap1\n      tag_278\n      jump\t// in\n    tag_297:\n        /* \"WandInstruments.sol\":15143:15183  (block.timestamp - timeLaunched) / 86400 */\n      tag_298\n      swap2\n      swap1\n      tag_276\n      jump\t// in\n    tag_298:\n        /* \"WandInstruments.sol\":15116:15183  uint256 daySinceLaunched = (block.timestamp - timeLaunched) / 86400 */\n      swap1\n      pop\n        /* \"WandInstruments.sol\":15194:15217  uint256 CircSupplyXDays */\n      0x00\n        /* \"WandInstruments.sol\":15232:15247  uint256 numdays */\n      dup1\n        /* \"WandInstruments.sol\":15268:15273  86400 */\n      0x015180\n        /* \"WandInstruments.sol\":15250:15267  daysInCalculation */\n      sload(0x0e)\n        /* \"WandInstruments.sol\":15250:15273  daysInCalculation/86400 */\n      tag_299\n      swap2\n      swap1\n      tag_276\n      jump\t// in\n    tag_299:\n        /* \"WandInstruments.sol\":15232:15273  uint256 numdays = daysInCalculation/86400 */\n      swap1\n      pop\n        /* \"WandInstruments.sol\":15284:15293  uint256 d */\n      0x00\n        /* \"WandInstruments.sol\":15342:15349  numdays */\n      dup2\n        /* \"WandInstruments.sol\":15323:15339  daySinceLaunched */\n      dup5\n        /* \"WandInstruments.sol\":15323:15349  daySinceLaunched - numdays */\n      tag_303\n      swap2\n      swap1\n      tag_278\n      jump\t// in\n    tag_303:\n        /* \"WandInstruments.sol\":15319:15349  d = daySinceLaunched - numdays */\n      swap1\n      pop\n        /* \"WandInstruments.sol\":15314:15445  for (d = daySinceLaunched - numdays; d < daySinceLaunched; d++) {\r... */\n    tag_300:\n        /* \"WandInstruments.sol\":15355:15371  daySinceLaunched */\n      dup4\n        /* \"WandInstruments.sol\":15351:15352  d */\n      dup2\n        /* \"WandInstruments.sol\":15351:15371  d < daySinceLaunched */\n      lt\n        /* \"WandInstruments.sol\":15314:15445  for (d = daySinceLaunched - numdays; d < daySinceLaunched; d++) {\r... */\n      iszero\n      tag_301\n      jumpi\n        /* \"WandInstruments.sol\":15408:15430  circulatingSupplyXDays */\n      0x1a\n        /* \"WandInstruments.sol\":15408:15433  circulatingSupplyXDays[d] */\n      0x00\n        /* \"WandInstruments.sol\":15431:15432  d */\n      dup3\n        /* \"WandInstruments.sol\":15408:15433  circulatingSupplyXDays[d] */\n      dup2\n      mstore\n      0x20\n      add\n      swap1\n      dup2\n      mstore\n      0x20\n      add\n      0x00\n      keccak256\n      sload\n        /* \"WandInstruments.sol\":15389:15433  CircSupplyXDays += circulatingSupplyXDays[d] */\n      dup4\n      tag_304\n      swap2\n      swap1\n      tag_244\n      jump\t// in\n    tag_304:\n      swap3\n      pop\n        /* \"WandInstruments.sol\":15373:15376  d++ */\n      dup1\n      dup1\n      tag_305\n      swap1\n      tag_288\n      jump\t// in\n    tag_305:\n      swap2\n      pop\n      pop\n        /* \"WandInstruments.sol\":15314:15445  for (d = daySinceLaunched - numdays; d < daySinceLaunched; d++) {\r... */\n      jump(tag_300)\n    tag_301:\n        /* \"WandInstruments.sol\":15462:15477  CircSupplyXDays */\n      dup3\n        /* \"WandInstruments.sol\":15455:15477  return CircSupplyXDays */\n      swap5\n      pop\n      pop\n      pop\n      pop\n      pop\n        /* \"WandInstruments.sol\":15050:15485  function getCircSupplyXDays() external view returns (uint256){\r... */\n      swap1\n      jump\t// out\n        /* \"WandInstruments.sol\":2066:2126  mapping(address => lockedamounts) public withheldWithdrawals */\n    tag_76:\n      mstore(0x20, 0x1c)\n      dup1\n      0x00\n      mstore\n      keccak256(0x00, 0x40)\n      0x00\n      swap2\n      pop\n      swap1\n      pop\n      dup1\n      0x00\n      add\n      sload\n      swap1\n      dup1\n      0x01\n      add\n      sload\n      swap1\n      pop\n      dup3\n      jump\t// out\n        /* \"WandInstruments.sol\":1649:1699  mapping(uint256 => uint256) public tokensSoldXDays */\n    tag_83:\n      mstore(0x20, 0x19)\n      dup1\n      0x00\n      mstore\n      keccak256(0x00, 0x40)\n      0x00\n      swap2\n      pop\n      swap1\n      pop\n      sload\n      dup2\n      jump\t// out\n        /* \"WandInstruments.sol\":13712:14214  function testUpdatetimeLockedminus(uint256 amt) public  {\r... */\n    tag_88:\n        /* \"WandInstruments.sol\":13793:13812  withheldWithdrawals */\n      0x1c\n        /* \"WandInstruments.sol\":13793:13824  withheldWithdrawals[msg.sender] */\n      0x00\n        /* \"WandInstruments.sol\":13813:13823  msg.sender */\n      caller\n        /* \"WandInstruments.sol\":13793:13824  withheldWithdrawals[msg.sender] */\n      0xffffffffffffffffffffffffffffffffffffffff\n      and\n      0xffffffffffffffffffffffffffffffffffffffff\n      and\n      dup2\n      mstore\n      0x20\n      add\n      swap1\n      dup2\n      mstore\n      0x20\n      add\n      0x00\n      keccak256\n        /* \"WandInstruments.sol\":13793:13832  withheldWithdrawals[msg.sender].amounts */\n      0x01\n      add\n      sload\n        /* \"WandInstruments.sol\":13787:13790  amt */\n      dup2\n        /* \"WandInstruments.sol\":13787:13832  amt < withheldWithdrawals[msg.sender].amounts */\n      lt\n        /* \"WandInstruments.sol\":13779:13873  require(amt < withheldWithdrawals[msg.sender].amounts, \"You dont have that much to withdraw!\") */\n      tag_307\n      jumpi\n      mload(0x40)\n      0x08c379a000000000000000000000000000000000000000000000000000000000\n      dup2\n      mstore\n      0x04\n      add\n      tag_308\n      swap1\n      tag_309\n      jump\t// in\n    tag_308:\n      mload(0x40)\n      dup1\n      swap2\n      sub\n      swap1\n      revert\n    tag_307:\n        /* \"WandInstruments.sol\":14078:14081  amt */\n      dup1\n        /* \"WandInstruments.sol\":14035:14054  withheldWithdrawals */\n      0x1c\n        /* \"WandInstruments.sol\":14035:14066  withheldWithdrawals[msg.sender] */\n      0x00\n        /* \"WandInstruments.sol\":14055:14065  msg.sender */\n      caller\n        /* \"WandInstruments.sol\":14035:14066  withheldWithdrawals[msg.sender] */\n      0xffffffffffffffffffffffffffffffffffffffff\n      and\n      0xffffffffffffffffffffffffffffffffffffffff\n      and\n      dup2\n      mstore\n      0x20\n      add\n      swap1\n      dup2\n      mstore\n      0x20\n      add\n      0x00\n      keccak256\n        /* \"WandInstruments.sol\":14035:14074  withheldWithdrawals[msg.sender].amounts */\n      0x01\n      add\n      0x00\n        /* \"WandInstruments.sol\":14035:14081  withheldWithdrawals[msg.sender].amounts -= amt */\n      dup3\n      dup3\n      sload\n      tag_310\n      swap2\n      swap1\n      tag_278\n      jump\t// in\n    tag_310:\n      swap3\n      pop\n      pop\n      dup2\n      swap1\n      sstore\n      pop\n        /* \"WandInstruments.sol\":14138:14139  0 */\n      0x00\n        /* \"WandInstruments.sol\":14096:14115  withheldWithdrawals */\n      0x1c\n        /* \"WandInstruments.sol\":14096:14127  withheldWithdrawals[msg.sender] */\n      0x00\n        /* \"WandInstruments.sol\":14116:14126  msg.sender */\n      caller\n        /* \"WandInstruments.sol\":14096:14127  withheldWithdrawals[msg.sender] */\n      0xffffffffffffffffffffffffffffffffffffffff\n      and\n      0xffffffffffffffffffffffffffffffffffffffff\n      and\n      dup2\n      mstore\n      0x20\n      add\n      swap1\n      dup2\n      mstore\n      0x20\n      add\n      0x00\n      keccak256\n        /* \"WandInstruments.sol\":14096:14135  withheldWithdrawals[msg.sender].amounts */\n      0x01\n      add\n      sload\n        /* \"WandInstruments.sol\":14096:14139  withheldWithdrawals[msg.sender].amounts ==0 */\n      eq\n        /* \"WandInstruments.sol\":14092:14207  if (withheldWithdrawals[msg.sender].amounts ==0 ){\r... */\n      iszero\n      tag_311\n      jumpi\n        /* \"WandInstruments.sol\":14163:14182  withheldWithdrawals */\n      0x1c\n        /* \"WandInstruments.sol\":14163:14194  withheldWithdrawals[msg.sender] */\n      0x00\n        /* \"WandInstruments.sol\":14183:14193  msg.sender */\n      caller\n        /* \"WandInstruments.sol\":14163:14194  withheldWithdrawals[msg.sender] */\n      0xffffffffffffffffffffffffffffffffffffffff\n      and\n      0xffffffffffffffffffffffffffffffffffffffff\n      and\n      dup2\n      mstore\n      0x20\n      add\n      swap1\n      dup2\n      mstore\n      0x20\n      add\n      0x00\n      keccak256\n      0x00\n        /* \"WandInstruments.sol\":14156:14195  delete(withheldWithdrawals[msg.sender]) */\n      dup1\n      dup3\n      add\n      0x00\n      swap1\n      sstore\n      0x01\n      dup3\n      add\n      0x00\n      swap1\n      sstore\n      pop\n      pop\n        /* \"WandInstruments.sol\":14092:14207  if (withheldWithdrawals[msg.sender].amounts ==0 ){\r... */\n    tag_311:\n        /* \"WandInstruments.sol\":13712:14214  function testUpdatetimeLockedminus(uint256 amt) public  {\r... */\n      pop\n      jump\t// out\n        /* \"WandInstruments.sol\":1706:1763  mapping(uint256 => uint256) public circulatingSupplyXDays */\n    tag_92:\n      mstore(0x20, 0x1a)\n      dup1\n      0x00\n      mstore\n      keccak256(0x00, 0x40)\n      0x00\n      swap2\n      pop\n      swap1\n      pop\n      sload\n      dup2\n      jump\t// out\n        /* \"WandInstruments.sol\":6936:7683  function transformScepterToBaton(uint256 amountSCPtoSwap) public payable{\r... */\n    tag_96:\n        /* \"WandInstruments.sol\":7080:7106  uint256 trader_tsc_balance */\n      0x00\n        /* \"WandInstruments.sol\":7109:7113  SPTR */\n      0x14\n      0x00\n      swap1\n      sload\n      swap1\n      0x0100\n      exp\n      swap1\n      div\n      0xffffffffffffffffffffffffffffffffffffffff\n      and\n        /* \"WandInstruments.sol\":7109:7123  SPTR.balanceOf */\n      0xffffffffffffffffffffffffffffffffffffffff\n      and\n      0x70a08231\n        /* \"WandInstruments.sol\":7124:7134  msg.sender */\n      caller\n        /* \"WandInstruments.sol\":7109:7135  SPTR.balanceOf(msg.sender) */\n      mload(0x40)\n      dup3\n      0xffffffff\n      and\n      0xe0\n      shl\n      dup2\n      mstore\n      0x04\n      add\n      tag_313\n      swap2\n      swap1\n      tag_63\n      jump\t// in\n    tag_313:\n      0x20\n      mload(0x40)\n      dup1\n      dup4\n      sub\n      dup2\n      dup7\n      dup1\n      extcodesize\n      iszero\n      dup1\n      iszero\n      tag_314\n      jumpi\n      0x00\n      dup1\n      revert\n    tag_314:\n      pop\n      gas\n      staticcall\n      iszero\n      dup1\n      iszero\n      tag_316\n      jumpi\n      returndatasize\n      0x00\n      dup1\n      returndatacopy\n      revert(0x00, returndatasize)\n    tag_316:\n      pop\n      pop\n      pop\n      pop\n      mload(0x40)\n      returndatasize\n      not(0x1f)\n      0x1f\n      dup3\n      add\n      and\n      dup3\n      add\n      dup1\n      0x40\n      mstore\n      pop\n      dup2\n      add\n      swap1\n      tag_317\n      swap2\n      swap1\n      tag_238\n      jump\t// in\n    tag_317:\n        /* \"WandInstruments.sol\":7080:7135  uint256 trader_tsc_balance = SPTR.balanceOf(msg.sender) */\n      swap1\n      pop\n        /* \"WandInstruments.sol\":7175:7190  amountSCPtoSwap */\n      dup2\n        /* \"WandInstruments.sol\":7154:7172  trader_tsc_balance */\n      dup2\n        /* \"WandInstruments.sol\":7154:7190  trader_tsc_balance > amountSCPtoSwap */\n      gt\n        /* \"WandInstruments.sol\":7146:7221  require(trader_tsc_balance > amountSCPtoSwap, \"You dont have that amount!\") */\n      tag_318\n      jumpi\n      mload(0x40)\n      0x08c379a000000000000000000000000000000000000000000000000000000000\n      dup2\n      mstore\n      0x04\n      add\n      tag_319\n      swap1\n      tag_320\n      jump\t// in\n    tag_319:\n      mload(0x40)\n      dup1\n      swap2\n      sub\n      swap1\n      revert\n    tag_318:\n        /* \"WandInstruments.sol\":7275:7342  _safeTransferFrom(SPTR, msg.sender, address(this), amountSCPtoSwap) */\n      tag_321\n        /* \"WandInstruments.sol\":7293:7297  SPTR */\n      0x14\n      0x00\n      swap1\n      sload\n      swap1\n      0x0100\n      exp\n      swap1\n      div\n      0xffffffffffffffffffffffffffffffffffffffff\n      and\n        /* \"WandInstruments.sol\":7299:7309  msg.sender */\n      caller\n        /* \"WandInstruments.sol\":7319:7323  this */\n      address\n        /* \"WandInstruments.sol\":7326:7341  amountSCPtoSwap */\n      dup6\n        /* \"WandInstruments.sol\":7275:7292  _safeTransferFrom */\n      tag_322\n        /* \"WandInstruments.sol\":7275:7342  _safeTransferFrom(SPTR, msg.sender, address(this), amountSCPtoSwap) */\n      jump\t// in\n    tag_321:\n        /* \"WandInstruments.sol\":7403:7419  uint256 dInArray */\n      0x00\n        /* \"WandInstruments.sol\":7453:7458  86400 */\n      0x015180\n        /* \"WandInstruments.sol\":7439:7451  timeLaunched */\n      sload(0x0d)\n        /* \"WandInstruments.sol\":7422:7437  block.timestamp */\n      timestamp\n        /* \"WandInstruments.sol\":7422:7451  block.timestamp- timeLaunched */\n      tag_323\n      swap2\n      swap1\n      tag_278\n      jump\t// in\n    tag_323:\n        /* \"WandInstruments.sol\":7421:7458  (block.timestamp- timeLaunched)/86400 */\n      tag_324\n      swap2\n      swap1\n      tag_276\n      jump\t// in\n    tag_324:\n        /* \"WandInstruments.sol\":7403:7458  uint256 dInArray =(block.timestamp- timeLaunched)/86400 */\n      swap1\n      pop\n        /* \"WandInstruments.sol\":7499:7514  amountSCPtoSwap */\n      dup3\n        /* \"WandInstruments.sol\":7470:7485  tokensSoldXDays */\n      0x19\n        /* \"WandInstruments.sol\":7470:7495  tokensSoldXDays[dInArray] */\n      0x00\n        /* \"WandInstruments.sol\":7486:7494  dInArray */\n      dup4\n        /* \"WandInstruments.sol\":7470:7495  tokensSoldXDays[dInArray] */\n      dup2\n      mstore\n      0x20\n      add\n      swap1\n      dup2\n      mstore\n      0x20\n      add\n      0x00\n      keccak256\n      0x00\n        /* \"WandInstruments.sol\":7470:7514  tokensSoldXDays[dInArray] += amountSCPtoSwap */\n      dup3\n      dup3\n      sload\n      tag_325\n      swap2\n      swap1\n      tag_244\n      jump\t// in\n    tag_325:\n      swap3\n      pop\n      pop\n      dup2\n      swap1\n      sstore\n      pop\n        /* \"WandInstruments.sol\":7561:7576  amountSCPtoSwap */\n      dup3\n        /* \"WandInstruments.sol\":7525:7547  circulatingSupplyXDays */\n      0x1a\n        /* \"WandInstruments.sol\":7525:7557  circulatingSupplyXDays[dInArray] */\n      0x00\n        /* \"WandInstruments.sol\":7548:7556  dInArray */\n      dup4\n        /* \"WandInstruments.sol\":7525:7557  circulatingSupplyXDays[dInArray] */\n      dup2\n      mstore\n      0x20\n      add\n      swap1\n      dup2\n      mstore\n      0x20\n      add\n      0x00\n      keccak256\n      0x00\n        /* \"WandInstruments.sol\":7525:7576  circulatingSupplyXDays[dInArray] -= amountSCPtoSwap */\n      dup3\n      dup3\n      sload\n      tag_326\n      swap2\n      swap1\n      tag_278\n      jump\t// in\n    tag_326:\n      swap3\n      pop\n      pop\n      dup2\n      swap1\n      sstore\n      pop\n        /* \"WandInstruments.sol\":7008:7683  {\r... */\n      pop\n      pop\n        /* \"WandInstruments.sol\":6936:7683  function transformScepterToBaton(uint256 amountSCPtoSwap) public payable{\r... */\n      pop\n      jump\t// out\n        /* \"WandInstruments.sol\":11303:11523  function getBackingPrice() external view returns (uint256){\r... */\n    tag_99:\n        /* \"WandInstruments.sol\":11353:11360  uint256 */\n      0x00\n        /* \"WandInstruments.sol\":11460:11515  decDiv18(sptrTreasuryBal * DECIMALS,SPTR.totalSupply()) */\n      tag_328\n        /* \"WandInstruments.sol\":370:376  10**18 */\n      0x0de0b6b3a7640000\n        /* \"WandInstruments.sol\":11469:11484  sptrTreasuryBal */\n      sload(0x0c)\n        /* \"WandInstruments.sol\":11469:11495  sptrTreasuryBal * DECIMALS */\n      tag_329\n      swap2\n      swap1\n      tag_330\n      jump\t// in\n    tag_329:\n        /* \"WandInstruments.sol\":11496:11500  SPTR */\n      0x14\n      0x00\n      swap1\n      sload\n      swap1\n      0x0100\n      exp\n      swap1\n      div\n      0xffffffffffffffffffffffffffffffffffffffff\n      and\n        /* \"WandInstruments.sol\":11496:11512  SPTR.totalSupply */\n      0xffffffffffffffffffffffffffffffffffffffff\n      and\n      0x18160ddd\n        /* \"WandInstruments.sol\":11496:11514  SPTR.totalSupply() */\n      mload(0x40)\n      dup2\n      0xffffffff\n      and\n      0xe0\n      shl\n      dup2\n      mstore\n      0x04\n      add\n      0x20\n      mload(0x40)\n      dup1\n      dup4\n      sub\n      dup2\n      dup7\n      dup1\n      extcodesize\n      iszero\n      dup1\n      iszero\n      tag_331\n      jumpi\n      0x00\n      dup1\n      revert\n    tag_331:\n      pop\n      gas\n      staticcall\n      iszero\n      dup1\n      iszero\n      tag_333\n      jumpi\n      returndatasize\n      0x00\n      dup1\n      returndatacopy\n      revert(0x00, returndatasize)\n    tag_333:\n      pop\n      pop\n      pop\n      pop\n      mload(0x40)\n      returndatasize\n      not(0x1f)\n      0x1f\n      dup3\n      add\n      and\n      dup3\n      add\n      dup1\n      0x40\n      mstore\n      pop\n      dup2\n      add\n      swap1\n      tag_334\n      swap2\n      swap1\n      tag_238\n      jump\t// in\n    tag_334:\n        /* \"WandInstruments.sol\":11460:11468  decDiv18 */\n      tag_294\n        /* \"WandInstruments.sol\":11460:11515  decDiv18(sptrTreasuryBal * DECIMALS,SPTR.totalSupply()) */\n      jump\t// in\n    tag_328:\n        /* \"WandInstruments.sol\":11453:11515  return decDiv18(sptrTreasuryBal * DECIMALS,SPTR.totalSupply()) */\n      swap1\n      pop\n        /* \"WandInstruments.sol\":11303:11523  function getBackingPrice() external view returns (uint256){\r... */\n      swap1\n      jump\t// out\n        /* \"WandInstruments.sol\":1430:1448  IERC20 public SPTR */\n    tag_103:\n      0x14\n      0x00\n      swap1\n      sload\n      swap1\n      0x0100\n      exp\n      swap1\n      div\n      0xffffffffffffffffffffffffffffffffffffffff\n      and\n      dup2\n      jump\t// out\n        /* \"WandInstruments.sol\":747:775  address public devWalletAddr */\n    tag_108:\n      0x0b\n      0x00\n      swap1\n      sload\n      swap1\n      0x0100\n      exp\n      swap1\n      div\n      0xffffffffffffffffffffffffffffffffffffffff\n      and\n      dup2\n      jump\t// out\n        /* \"WandInstruments.sol\":1590:1642  mapping(uint256 => uint256) public tokensBoughtXDays */\n    tag_113:\n      mstore(0x20, 0x18)\n      dup1\n      0x00\n      mstore\n      keccak256(0x00, 0x40)\n      0x00\n      swap2\n      pop\n      swap1\n      pop\n      sload\n      dup2\n      jump\t// out\n        /* \"WandInstruments.sol\":875:902  uint256 public timeLaunched */\n    tag_117:\n      sload(0x0d)\n      dup2\n      jump\t// out\n        /* \"WandInstruments.sol\":11809:12082  function getSellPrice() external view returns (uint256){\r... */\n    tag_121:\n        /* \"WandInstruments.sol\":11856:11863  uint256 */\n      0x00\n        /* \"WandInstruments.sol\":11996:12074  decMul18(this.getBackingPrice() , (900000000000000000 - this.getSellFactor())) */\n      tag_336\n        /* \"WandInstruments.sol\":12005:12009  this */\n      address\n        /* \"WandInstruments.sol\":12005:12025  this.getBackingPrice */\n      0xffffffffffffffffffffffffffffffffffffffff\n      and\n      0x1f564a06\n        /* \"WandInstruments.sol\":12005:12027  this.getBackingPrice() */\n      mload(0x40)\n      dup2\n      0xffffffff\n      and\n      0xe0\n      shl\n      dup2\n      mstore\n      0x04\n      add\n      0x20\n      mload(0x40)\n      dup1\n      dup4\n      sub\n      dup2\n      dup7\n      dup1\n      extcodesize\n      iszero\n      dup1\n      iszero\n      tag_337\n      jumpi\n      0x00\n      dup1\n      revert\n    tag_337:\n      pop\n      gas\n      staticcall\n      iszero\n      dup1\n      iszero\n      tag_339\n      jumpi\n      returndatasize\n      0x00\n      dup1\n      returndatacopy\n      revert(0x00, returndatasize)\n    tag_339:\n      pop\n      pop\n      pop\n      pop\n      mload(0x40)\n      returndatasize\n      not(0x1f)\n      0x1f\n      dup3\n      add\n      and\n      dup3\n      add\n      dup1\n      0x40\n      mstore\n      pop\n      dup2\n      add\n      swap1\n      tag_340\n      swap2\n      swap1\n      tag_238\n      jump\t// in\n    tag_340:\n        /* \"WandInstruments.sol\":12052:12056  this */\n      address\n        /* \"WandInstruments.sol\":12052:12070  this.getSellFactor */\n      0xffffffffffffffffffffffffffffffffffffffff\n      and\n      0x0ccaf04f\n        /* \"WandInstruments.sol\":12052:12072  this.getSellFactor() */\n      mload(0x40)\n      dup2\n      0xffffffff\n      and\n      0xe0\n      shl\n      dup2\n      mstore\n      0x04\n      add\n      0x20\n      mload(0x40)\n      dup1\n      dup4\n      sub\n      dup2\n      dup7\n      dup1\n      extcodesize\n      iszero\n      dup1\n      iszero\n      tag_341\n      jumpi\n      0x00\n      dup1\n      revert\n    tag_341:\n      pop\n      gas\n      staticcall\n      iszero\n      dup1\n      iszero\n      tag_343\n      jumpi\n      returndatasize\n      0x00\n      dup1\n      returndatacopy\n      revert(0x00, returndatasize)\n    tag_343:\n      pop\n      pop\n      pop\n      pop\n      mload(0x40)\n      returndatasize\n      not(0x1f)\n      0x1f\n      dup3\n      add\n      and\n      dup3\n      add\n      dup1\n      0x40\n      mstore\n      pop\n      dup2\n      add\n      swap1\n      tag_344\n      swap2\n      swap1\n      tag_238\n      jump\t// in\n    tag_344:\n        /* \"WandInstruments.sol\":12031:12049  900000000000000000 */\n      0x0c7d713b49da0000\n        /* \"WandInstruments.sol\":12031:12072  900000000000000000 - this.getSellFactor() */\n      tag_345\n      swap2\n      swap1\n      tag_278\n      jump\t// in\n    tag_345:\n        /* \"WandInstruments.sol\":11996:12004  decMul18 */\n      tag_245\n        /* \"WandInstruments.sol\":11996:12074  decMul18(this.getBackingPrice() , (900000000000000000 - this.getSellFactor())) */\n      jump\t// in\n    tag_336:\n        /* \"WandInstruments.sol\":11989:12074  return decMul18(this.getBackingPrice() , (900000000000000000 - this.getSellFactor())) */\n      swap1\n      pop\n        /* \"WandInstruments.sol\":11809:12082  function getSellPrice() external view returns (uint256){\r... */\n      swap1\n      jump\t// out\n        /* \"WandInstruments.sol\":816:846  uint256 public sptrTreasuryBal */\n    tag_125:\n      sload(0x0c)\n      dup2\n      jump\t// out\n        /* \"WandInstruments.sol\":909:941  uint256 public daysInCalculation */\n    tag_129:\n      sload(0x0e)\n      dup2\n      jump\t// out\n        /* \"WandInstruments.sol\":13228:13700  function testUpdatetimeLockedplus(uint256 amt) public  {\r... */\n    tag_134:\n        /* \"WandInstruments.sol\":13623:13629  864000 */\n      0x0d2f00\n        /* \"WandInstruments.sol\":13605:13620  block.timestamp */\n      timestamp\n        /* \"WandInstruments.sol\":13605:13629  block.timestamp + 864000 */\n      tag_347\n      swap2\n      swap1\n      tag_244\n      jump\t// in\n    tag_347:\n        /* \"WandInstruments.sol\":13558:13577  withheldWithdrawals */\n      0x1c\n        /* \"WandInstruments.sol\":13558:13589  withheldWithdrawals[msg.sender] */\n      0x00\n        /* \"WandInstruments.sol\":13578:13588  msg.sender */\n      caller\n        /* \"WandInstruments.sol\":13558:13589  withheldWithdrawals[msg.sender] */\n      0xffffffffffffffffffffffffffffffffffffffff\n      and\n      0xffffffffffffffffffffffffffffffffffffffff\n      and\n      dup2\n      mstore\n      0x20\n      add\n      swap1\n      dup2\n      mstore\n      0x20\n      add\n      0x00\n      keccak256\n        /* \"WandInstruments.sol\":13558:13602  withheldWithdrawals[msg.sender].timeUnlocked */\n      0x00\n      add\n        /* \"WandInstruments.sol\":13558:13629  withheldWithdrawals[msg.sender].timeUnlocked = block.timestamp + 864000 */\n      dup2\n      swap1\n      sstore\n      pop\n        /* \"WandInstruments.sol\":13683:13686  amt */\n      dup1\n        /* \"WandInstruments.sol\":13640:13659  withheldWithdrawals */\n      0x1c\n        /* \"WandInstruments.sol\":13640:13671  withheldWithdrawals[msg.sender] */\n      0x00\n        /* \"WandInstruments.sol\":13660:13670  msg.sender */\n      caller\n        /* \"WandInstruments.sol\":13640:13671  withheldWithdrawals[msg.sender] */\n      0xffffffffffffffffffffffffffffffffffffffff\n      and\n      0xffffffffffffffffffffffffffffffffffffffff\n      and\n      dup2\n      mstore\n      0x20\n      add\n      swap1\n      dup2\n      mstore\n      0x20\n      add\n      0x00\n      keccak256\n        /* \"WandInstruments.sol\":13640:13679  withheldWithdrawals[msg.sender].amounts */\n      0x01\n      add\n      0x00\n        /* \"WandInstruments.sol\":13640:13686  withheldWithdrawals[msg.sender].amounts += amt */\n      dup3\n      dup3\n      sload\n      tag_348\n      swap2\n      swap1\n      tag_244\n      jump\t// in\n    tag_348:\n      swap3\n      pop\n      pop\n      dup2\n      swap1\n      sstore\n      pop\n        /* \"WandInstruments.sol\":13228:13700  function testUpdatetimeLockedplus(uint256 amt) public  {\r... */\n      pop\n      jump\t// out\n        /* \"WandInstruments.sol\":1160:1177  int128 public res */\n    tag_137:\n      0x12\n      0x00\n      swap1\n      sload\n      swap1\n      0x0100\n      exp\n      swap1\n      div\n      0x0f\n      signextend\n      dup2\n      jump\t// out\n        /* \"WandInstruments.sol\":1507:1532  IERC20 public tokenStable */\n    tag_142:\n      0x17\n      0x00\n      swap1\n      sload\n      swap1\n      0x0100\n      exp\n      swap1\n      div\n      0xffffffffffffffffffffffffffffffffffffffff\n      and\n      dup2\n      jump\t// out\n        /* \"Ownable.sol\":1661:1762  function renounceOwnership() public virtual onlyOwner {... */\n    tag_146:\n        /* \"Ownable.sol\":1252:1264  _msgSender() */\n      tag_350\n        /* \"Ownable.sol\":1252:1262  _msgSender */\n      tag_248\n        /* \"Ownable.sol\":1252:1264  _msgSender() */\n      jump\t// in\n    tag_350:\n        /* \"Ownable.sol\":1241:1264  owner() == _msgSender() */\n      0xffffffffffffffffffffffffffffffffffffffff\n      and\n        /* \"Ownable.sol\":1241:1248  owner() */\n      tag_351\n        /* \"Ownable.sol\":1241:1246  owner */\n      tag_158\n        /* \"Ownable.sol\":1241:1248  owner() */\n      jump\t// in\n    tag_351:\n        /* \"Ownable.sol\":1241:1264  owner() == _msgSender() */\n      0xffffffffffffffffffffffffffffffffffffffff\n      and\n      eq\n        /* \"Ownable.sol\":1233:1301  require(owner() == _msgSender(), \"Ownable: caller is not the owner\") */\n      tag_352\n      jumpi\n      mload(0x40)\n      0x08c379a000000000000000000000000000000000000000000000000000000000\n      dup2\n      mstore\n      0x04\n      add\n      tag_353\n      swap1\n      tag_252\n      jump\t// in\n    tag_353:\n      mload(0x40)\n      dup1\n      swap2\n      sub\n      swap1\n      revert\n    tag_352:\n        /* \"Ownable.sol\":1725:1755  _transferOwnership(address(0)) */\n      tag_355\n        /* \"Ownable.sol\":1752:1753  0 */\n      0x00\n        /* \"Ownable.sol\":1725:1743  _transferOwnership */\n      tag_356\n        /* \"Ownable.sol\":1725:1755  _transferOwnership(address(0)) */\n      jump\t// in\n    tag_355:\n        /* \"Ownable.sol\":1661:1762  function renounceOwnership() public virtual onlyOwner {... */\n      jump\t// out\n        /* \"WandInstruments.sol\":14224:14752  function getTokensBoughtXDays() external view returns (uint256){\r... */\n    tag_149:\n        /* \"WandInstruments.sol\":14279:14286  uint256 */\n      0x00\n        /* \"WandInstruments.sol\":14298:14315  uint256 boughtnum */\n      dup1\n        /* \"WandInstruments.sol\":14326:14335  uint256 d */\n      0x00\n        /* \"WandInstruments.sol\":14346:14361  uint256 numdays */\n      dup1\n        /* \"WandInstruments.sol\":14382:14387  86400 */\n      0x015180\n        /* \"WandInstruments.sol\":14364:14381  daysInCalculation */\n      sload(0x0e)\n        /* \"WandInstruments.sol\":14364:14387  daysInCalculation/86400 */\n      tag_358\n      swap2\n      swap1\n      tag_276\n      jump\t// in\n    tag_358:\n        /* \"WandInstruments.sol\":14346:14387  uint256 numdays = daysInCalculation/86400 */\n      swap1\n      pop\n        /* \"WandInstruments.sol\":14398:14422  uint256 daySinceLaunched */\n      0x00\n        /* \"WandInstruments.sol\":14460:14465  86400 */\n      0x015180\n        /* \"WandInstruments.sol\":14444:14456  timeLaunched */\n      sload(0x0d)\n        /* \"WandInstruments.sol\":14426:14441  block.timestamp */\n      timestamp\n        /* \"WandInstruments.sol\":14426:14456  block.timestamp - timeLaunched */\n      tag_359\n      swap2\n      swap1\n      tag_278\n      jump\t// in\n    tag_359:\n        /* \"WandInstruments.sol\":14425:14465  (block.timestamp - timeLaunched) / 86400 */\n      tag_360\n      swap2\n      swap1\n      tag_276\n      jump\t// in\n    tag_360:\n        /* \"WandInstruments.sol\":14398:14465  uint256 daySinceLaunched = (block.timestamp - timeLaunched) / 86400 */\n      swap1\n      pop\n        /* \"WandInstruments.sol\":14500:14501  0 */\n      0x00\n        /* \"WandInstruments.sol\":14480:14496  daySinceLaunched */\n      dup2\n        /* \"WandInstruments.sol\":14480:14501  daySinceLaunched == 0 */\n      eq\n        /* \"WandInstruments.sol\":14476:14553  if (daySinceLaunched == 0) {\r... */\n      iszero\n      tag_361\n      jumpi\n        /* \"WandInstruments.sol\":14521:14538  tokensBoughtXDays */\n      0x18\n        /* \"WandInstruments.sol\":14521:14541  tokensBoughtXDays[0] */\n      0x00\n        /* \"WandInstruments.sol\":14539:14540  0 */\n      dup1\n        /* \"WandInstruments.sol\":14521:14541  tokensBoughtXDays[0] */\n      dup2\n      mstore\n      0x20\n      add\n      swap1\n      dup2\n      mstore\n      0x20\n      add\n      0x00\n      keccak256\n      sload\n        /* \"WandInstruments.sol\":14514:14541  return tokensBoughtXDays[0] */\n      swap5\n      pop\n      pop\n      pop\n      pop\n      pop\n      jump(tag_357)\n        /* \"WandInstruments.sol\":14476:14553  if (daySinceLaunched == 0) {\r... */\n    tag_361:\n        /* \"WandInstruments.sol\":14591:14598  numdays */\n      dup2\n        /* \"WandInstruments.sol\":14572:14588  daySinceLaunched */\n      dup2\n        /* \"WandInstruments.sol\":14572:14598  daySinceLaunched - numdays */\n      tag_365\n      swap2\n      swap1\n      tag_278\n      jump\t// in\n    tag_365:\n        /* \"WandInstruments.sol\":14568:14598  d = daySinceLaunched - numdays */\n      swap3\n      pop\n        /* \"WandInstruments.sol\":14563:14709  for (d = daySinceLaunched - numdays; d < daySinceLaunched; d++) {  //for loop example\r... */\n    tag_362:\n        /* \"WandInstruments.sol\":14604:14620  daySinceLaunched */\n      dup1\n        /* \"WandInstruments.sol\":14600:14601  d */\n      dup4\n        /* \"WandInstruments.sol\":14600:14620  d < daySinceLaunched */\n      lt\n        /* \"WandInstruments.sol\":14563:14709  for (d = daySinceLaunched - numdays; d < daySinceLaunched; d++) {  //for loop example\r... */\n      iszero\n      tag_363\n      jumpi\n        /* \"WandInstruments.sol\":14673:14690  tokensBoughtXDays */\n      0x18\n        /* \"WandInstruments.sol\":14673:14693  tokensBoughtXDays[d] */\n      0x00\n        /* \"WandInstruments.sol\":14691:14692  d */\n      dup5\n        /* \"WandInstruments.sol\":14673:14693  tokensBoughtXDays[d] */\n      dup2\n      mstore\n      0x20\n      add\n      swap1\n      dup2\n      mstore\n      0x20\n      add\n      0x00\n      keccak256\n      sload\n        /* \"WandInstruments.sol\":14660:14693  boughtnum += tokensBoughtXDays[d] */\n      dup5\n      tag_366\n      swap2\n      swap1\n      tag_244\n      jump\t// in\n    tag_366:\n      swap4\n      pop\n        /* \"WandInstruments.sol\":14622:14625  d++ */\n      dup3\n      dup1\n      tag_367\n      swap1\n      tag_288\n      jump\t// in\n    tag_367:\n      swap4\n      pop\n      pop\n        /* \"WandInstruments.sol\":14563:14709  for (d = daySinceLaunched - numdays; d < daySinceLaunched; d++) {  //for loop example\r... */\n      jump(tag_362)\n    tag_363:\n        /* \"WandInstruments.sol\":14735:14744  boughtnum */\n      dup4\n        /* \"WandInstruments.sol\":14728:14744  return boughtnum */\n      swap5\n      pop\n      pop\n      pop\n      pop\n      pop\n        /* \"WandInstruments.sol\":14224:14752  function getTokensBoughtXDays() external view returns (uint256){\r... */\n    tag_357:\n      swap1\n      jump\t// out\n        /* \"WandInstruments.sol\":7698:8945  function buyScepter(uint256 amountSCPtoBuy, string memory _stableChosen) public nonReentrant{\r... */\n    tag_155:\n        /* \"ReentrancyGuard.sol\":1778:1779  2 */\n      0x02\n        /* \"ReentrancyGuard.sol\":2376:2383  _status */\n      sload(0x00)\n        /* \"ReentrancyGuard.sol\":2376:2395  _status != _ENTERED */\n      eq\n      iszero\n        /* \"ReentrancyGuard.sol\":2368:2431  require(_status != _ENTERED, \"ReentrancyGuard: reentrant call\") */\n      tag_369\n      jumpi\n      mload(0x40)\n      0x08c379a000000000000000000000000000000000000000000000000000000000\n      dup2\n      mstore\n      0x04\n      add\n      tag_370\n      swap1\n      tag_371\n      jump\t// in\n    tag_370:\n      mload(0x40)\n      dup1\n      swap2\n      sub\n      swap1\n      revert\n    tag_369:\n        /* \"ReentrancyGuard.sol\":1778:1779  2 */\n      0x02\n        /* \"ReentrancyGuard.sol\":2509:2516  _status */\n      0x00\n        /* \"ReentrancyGuard.sol\":2509:2527  _status = _ENTERED */\n      dup2\n      swap1\n      sstore\n      pop\n        /* \"WandInstruments.sol\":7883:7898  stableERC20Info */\n      0x1b\n        /* \"WandInstruments.sol\":7899:7912  _stableChosen */\n      dup2\n        /* \"WandInstruments.sol\":7883:7913  stableERC20Info[_stableChosen] */\n      mload(0x40)\n      tag_373\n      swap2\n      swap1\n      tag_374\n      jump\t// in\n    tag_373:\n      swap1\n      dup2\n      mstore\n      0x20\n      add\n      mload(0x40)\n      dup1\n      swap2\n      sub\n      swap1\n      keccak256\n        /* \"WandInstruments.sol\":7883:7929  stableERC20Info[_stableChosen].contractAddress */\n      0x00\n      add\n      0x00\n      swap1\n      sload\n      swap1\n      0x0100\n      exp\n      swap1\n      div\n      0xffffffffffffffffffffffffffffffffffffffff\n      and\n        /* \"WandInstruments.sol\":7862:7873  tokenStable */\n      0x17\n      0x00\n        /* \"WandInstruments.sol\":7862:7930  tokenStable = IERC20(stableERC20Info[_stableChosen].contractAddress) */\n      0x0100\n      exp\n      dup2\n      sload\n      dup2\n      0xffffffffffffffffffffffffffffffffffffffff\n      mul\n      not\n      and\n      swap1\n      dup4\n      0xffffffffffffffffffffffffffffffffffffffff\n      and\n      mul\n      or\n      swap1\n      sstore\n      pop\n        /* \"WandInstruments.sol\":7967:7973  250000 */\n      0x03d090\n        /* \"WandInstruments.sol\":7949:7963  amountSCPtoBuy */\n      dup3\n        /* \"WandInstruments.sol\":7949:7973  amountSCPtoBuy <= 250000 */\n      gt\n      iszero\n        /* \"WandInstruments.sol\":7941:8000  require(amountSCPtoBuy <= 250000 , \"Per transaction limit\") */\n      tag_375\n      jumpi\n      mload(0x40)\n      0x08c379a000000000000000000000000000000000000000000000000000000000\n      dup2\n      mstore\n      0x04\n      add\n      tag_376\n      swap1\n      tag_377\n      jump\t// in\n    tag_376:\n      mload(0x40)\n      dup1\n      swap2\n      sub\n      swap1\n      revert\n    tag_375:\n        /* \"WandInstruments.sol\":8011:8038  uint256 trader_usdc_balance */\n      0x00\n        /* \"WandInstruments.sol\":8041:8052  tokenStable */\n      0x17\n      0x00\n      swap1\n      sload\n      swap1\n      0x0100\n      exp\n      swap1\n      div\n      0xffffffffffffffffffffffffffffffffffffffff\n      and\n        /* \"WandInstruments.sol\":8041:8062  tokenStable.balanceOf */\n      0xffffffffffffffffffffffffffffffffffffffff\n      and\n      0x70a08231\n        /* \"WandInstruments.sol\":8063:8073  msg.sender */\n      caller\n        /* \"WandInstruments.sol\":8041:8074  tokenStable.balanceOf(msg.sender) */\n      mload(0x40)\n      dup3\n      0xffffffff\n      and\n      0xe0\n      shl\n      dup2\n      mstore\n      0x04\n      add\n      tag_378\n      swap2\n      swap1\n      tag_63\n      jump\t// in\n    tag_378:\n      0x20\n      mload(0x40)\n      dup1\n      dup4\n      sub\n      dup2\n      dup7\n      dup1\n      extcodesize\n      iszero\n      dup1\n      iszero\n      tag_379\n      jumpi\n      0x00\n      dup1\n      revert\n    tag_379:\n      pop\n      gas\n      staticcall\n      iszero\n      dup1\n      iszero\n      tag_381\n      jumpi\n      returndatasize\n      0x00\n      dup1\n      returndatacopy\n      revert(0x00, returndatasize)\n    tag_381:\n      pop\n      pop\n      pop\n      pop\n      mload(0x40)\n      returndatasize\n      not(0x1f)\n      0x1f\n      dup3\n      add\n      and\n      dup3\n      add\n      dup1\n      0x40\n      mstore\n      pop\n      dup2\n      add\n      swap1\n      tag_382\n      swap2\n      swap1\n      tag_238\n      jump\t// in\n    tag_382:\n        /* \"WandInstruments.sol\":8011:8074  uint256 trader_usdc_balance = tokenStable.balanceOf(msg.sender) */\n      swap1\n      pop\n        /* \"WandInstruments.sol\":8115:8129  amountSCPtoBuy */\n      dup3\n        /* \"WandInstruments.sol\":8093:8112  trader_usdc_balance */\n      dup2\n        /* \"WandInstruments.sol\":8093:8129  trader_usdc_balance > amountSCPtoBuy */\n      gt\n        /* \"WandInstruments.sol\":8085:8160  require(trader_usdc_balance > amountSCPtoBuy, \"You dont have that amount!\") */\n      tag_383\n      jumpi\n      mload(0x40)\n      0x08c379a000000000000000000000000000000000000000000000000000000000\n      dup2\n      mstore\n      0x04\n      add\n      tag_384\n      swap1\n      tag_320\n      jump\t// in\n    tag_384:\n      mload(0x40)\n      dup1\n      swap2\n      sub\n      swap1\n      revert\n    tag_383:\n        /* \"WandInstruments.sol\":8227:8246  uint256 usdAmtToPay */\n      0x00\n        /* \"WandInstruments.sol\":8318:8333  stableERC20Info */\n      0x1b\n        /* \"WandInstruments.sol\":8334:8347  _stableChosen */\n      dup4\n        /* \"WandInstruments.sol\":8318:8348  stableERC20Info[_stableChosen] */\n      mload(0x40)\n      tag_385\n      swap2\n      swap1\n      tag_374\n      jump\t// in\n    tag_385:\n      swap1\n      dup2\n      mstore\n      0x20\n      add\n      mload(0x40)\n      dup1\n      swap2\n      sub\n      swap1\n      keccak256\n        /* \"WandInstruments.sol\":8318:8362  stableERC20Info[_stableChosen].tokenDecimals */\n      0x01\n      add\n      sload\n        /* \"WandInstruments.sol\":8271:8315  decMul18(amountSCPtoBuy, this.getBuyPrice()) */\n      tag_386\n        /* \"WandInstruments.sol\":8280:8294  amountSCPtoBuy */\n      dup6\n        /* \"WandInstruments.sol\":8296:8300  this */\n      address\n        /* \"WandInstruments.sol\":8296:8312  this.getBuyPrice */\n      0xffffffffffffffffffffffffffffffffffffffff\n      and\n      0x018a25e8\n        /* \"WandInstruments.sol\":8296:8314  this.getBuyPrice() */\n      mload(0x40)\n      dup2\n      0xffffffff\n      and\n      0xe0\n      shl\n      dup2\n      mstore\n      0x04\n      add\n      0x20\n      mload(0x40)\n      dup1\n      dup4\n      sub\n      dup2\n      dup7\n      dup1\n      extcodesize\n      iszero\n      dup1\n      iszero\n      tag_387\n      jumpi\n      0x00\n      dup1\n      revert\n    tag_387:\n      pop\n      gas\n      staticcall\n      iszero\n      dup1\n      iszero\n      tag_389\n      jumpi\n      returndatasize\n      0x00\n      dup1\n      returndatacopy\n      revert(0x00, returndatasize)\n    tag_389:\n      pop\n      pop\n      pop\n      pop\n      mload(0x40)\n      returndatasize\n      not(0x1f)\n      0x1f\n      dup3\n      add\n      and\n      dup3\n      add\n      dup1\n      0x40\n      mstore\n      pop\n      dup2\n      add\n      swap1\n      tag_390\n      swap2\n      swap1\n      tag_238\n      jump\t// in\n    tag_390:\n        /* \"WandInstruments.sol\":8271:8279  decMul18 */\n      tag_245\n        /* \"WandInstruments.sol\":8271:8315  decMul18(amountSCPtoBuy, this.getBuyPrice()) */\n      jump\t// in\n    tag_386:\n        /* \"WandInstruments.sol\":8271:8362  decMul18(amountSCPtoBuy, this.getBuyPrice()) * stableERC20Info[_stableChosen].tokenDecimals */\n      tag_391\n      swap2\n      swap1\n      tag_330\n      jump\t// in\n    tag_391:\n        /* \"WandInstruments.sol\":8257:8362  usdAmtToPay = decMul18(amountSCPtoBuy, this.getBuyPrice()) * stableERC20Info[_stableChosen].tokenDecimals */\n      swap1\n      pop\n        /* \"WandInstruments.sol\":8418:8488  _safeTransferFrom(tokenStable, msg.sender, address(this), usdAmtToPay) */\n      tag_392\n        /* \"WandInstruments.sol\":8436:8447  tokenStable */\n      0x17\n      0x00\n      swap1\n      sload\n      swap1\n      0x0100\n      exp\n      swap1\n      div\n      0xffffffffffffffffffffffffffffffffffffffff\n      and\n        /* \"WandInstruments.sol\":8449:8459  msg.sender */\n      caller\n        /* \"WandInstruments.sol\":8469:8473  this */\n      address\n        /* \"WandInstruments.sol\":8476:8487  usdAmtToPay */\n      dup5\n        /* \"WandInstruments.sol\":8418:8435  _safeTransferFrom */\n      tag_322\n        /* \"WandInstruments.sol\":8418:8488  _safeTransferFrom(tokenStable, msg.sender, address(this), usdAmtToPay) */\n      jump\t// in\n    tag_392:\n        /* \"WandInstruments.sol\":8507:8511  SPTR */\n      0x14\n      0x00\n      swap1\n      sload\n      swap1\n      0x0100\n      exp\n      swap1\n      div\n      0xffffffffffffffffffffffffffffffffffffffff\n      and\n        /* \"WandInstruments.sol\":8507:8516  SPTR.mint */\n      0xffffffffffffffffffffffffffffffffffffffff\n      and\n      0x40c10f19\n        /* \"WandInstruments.sol\":8517:8527  msg.sender */\n      caller\n        /* \"WandInstruments.sol\":370:376  10**18 */\n      0x0de0b6b3a7640000\n        /* \"WandInstruments.sol\":8528:8542  amountSCPtoBuy */\n      dup8\n        /* \"WandInstruments.sol\":8528:8553  amountSCPtoBuy * DECIMALS */\n      tag_393\n      swap2\n      swap1\n      tag_330\n      jump\t// in\n    tag_393:\n        /* \"WandInstruments.sol\":8507:8554  SPTR.mint(msg.sender,amountSCPtoBuy * DECIMALS) */\n      mload(0x40)\n      dup4\n      0xffffffff\n      and\n      0xe0\n      shl\n      dup2\n      mstore\n      0x04\n      add\n      tag_394\n      swap3\n      swap2\n      swap1\n      tag_174\n      jump\t// in\n    tag_394:\n      0x00\n      mload(0x40)\n      dup1\n      dup4\n      sub\n      dup2\n      0x00\n      dup8\n      dup1\n      extcodesize\n      iszero\n      dup1\n      iszero\n      tag_395\n      jumpi\n      0x00\n      dup1\n      revert\n    tag_395:\n      pop\n      gas\n      call\n      iszero\n      dup1\n      iszero\n      tag_397\n      jumpi\n      returndatasize\n      0x00\n      dup1\n      returndatacopy\n      revert(0x00, returndatasize)\n    tag_397:\n      pop\n      pop\n      pop\n      pop\n        /* \"WandInstruments.sol\":8565:8569  WAND */\n      0x15\n      0x00\n      swap1\n      sload\n      swap1\n      0x0100\n      exp\n      swap1\n      div\n      0xffffffffffffffffffffffffffffffffffffffff\n      and\n        /* \"WandInstruments.sol\":8565:8574  WAND.mint */\n      0xffffffffffffffffffffffffffffffffffffffff\n      and\n      0x40c10f19\n        /* \"WandInstruments.sol\":8583:8587  this */\n      address\n        /* \"WandInstruments.sol\":370:376  10**18 */\n      0x0de0b6b3a7640000\n        /* \"WandInstruments.sol\":8589:8603  amountSCPtoBuy */\n      dup8\n        /* \"WandInstruments.sol\":8589:8614  amountSCPtoBuy * DECIMALS */\n      tag_398\n      swap2\n      swap1\n      tag_330\n      jump\t// in\n    tag_398:\n        /* \"WandInstruments.sol\":8565:8615  WAND.mint(address(this),amountSCPtoBuy * DECIMALS) */\n      mload(0x40)\n      dup4\n      0xffffffff\n      and\n      0xe0\n      shl\n      dup2\n      mstore\n      0x04\n      add\n      tag_399\n      swap3\n      swap2\n      swap1\n      tag_174\n      jump\t// in\n    tag_399:\n      0x00\n      mload(0x40)\n      dup1\n      dup4\n      sub\n      dup2\n      0x00\n      dup8\n      dup1\n      extcodesize\n      iszero\n      dup1\n      iszero\n      tag_400\n      jumpi\n      0x00\n      dup1\n      revert\n    tag_400:\n      pop\n      gas\n      call\n      iszero\n      dup1\n      iszero\n      tag_402\n      jumpi\n      returndatasize\n      0x00\n      dup1\n      returndatacopy\n      revert(0x00, returndatasize)\n    tag_402:\n      pop\n      pop\n      pop\n      pop\n        /* \"WandInstruments.sol\":8704:8720  uint256 dInArray */\n      0x00\n        /* \"WandInstruments.sol\":8754:8759  86400 */\n      0x015180\n        /* \"WandInstruments.sol\":8740:8752  timeLaunched */\n      sload(0x0d)\n        /* \"WandInstruments.sol\":8723:8738  block.timestamp */\n      timestamp\n        /* \"WandInstruments.sol\":8723:8752  block.timestamp- timeLaunched */\n      tag_403\n      swap2\n      swap1\n      tag_278\n      jump\t// in\n    tag_403:\n        /* \"WandInstruments.sol\":8722:8759  (block.timestamp- timeLaunched)/86400 */\n      tag_404\n      swap2\n      swap1\n      tag_276\n      jump\t// in\n    tag_404:\n        /* \"WandInstruments.sol\":8704:8759  uint256 dInArray =(block.timestamp- timeLaunched)/86400 */\n      swap1\n      pop\n        /* \"WandInstruments.sol\":8802:8816  amountSCPtoBuy */\n      dup5\n        /* \"WandInstruments.sol\":8771:8788  tokensBoughtXDays */\n      0x18\n        /* \"WandInstruments.sol\":8771:8798  tokensBoughtXDays[dInArray] */\n      0x00\n        /* \"WandInstruments.sol\":8789:8797  dInArray */\n      dup4\n        /* \"WandInstruments.sol\":8771:8798  tokensBoughtXDays[dInArray] */\n      dup2\n      mstore\n      0x20\n      add\n      swap1\n      dup2\n      mstore\n      0x20\n      add\n      0x00\n      keccak256\n      0x00\n        /* \"WandInstruments.sol\":8771:8816  tokensBoughtXDays[dInArray] += amountSCPtoBuy */\n      dup3\n      dup3\n      sload\n      tag_405\n      swap2\n      swap1\n      tag_244\n      jump\t// in\n    tag_405:\n      swap3\n      pop\n      pop\n      dup2\n      swap1\n      sstore\n      pop\n        /* \"WandInstruments.sol\":8863:8877  amountSCPtoBuy */\n      dup5\n        /* \"WandInstruments.sol\":8827:8849  circulatingSupplyXDays */\n      0x1a\n        /* \"WandInstruments.sol\":8827:8859  circulatingSupplyXDays[dInArray] */\n      0x00\n        /* \"WandInstruments.sol\":8850:8858  dInArray */\n      dup4\n        /* \"WandInstruments.sol\":8827:8859  circulatingSupplyXDays[dInArray] */\n      dup2\n      mstore\n      0x20\n      add\n      swap1\n      dup2\n      mstore\n      0x20\n      add\n      0x00\n      keccak256\n      0x00\n        /* \"WandInstruments.sol\":8827:8877  circulatingSupplyXDays[dInArray] += amountSCPtoBuy */\n      dup3\n      dup3\n      sload\n      tag_406\n      swap2\n      swap1\n      tag_244\n      jump\t// in\n    tag_406:\n      swap3\n      pop\n      pop\n      dup2\n      swap1\n      sstore\n      pop\n        /* \"WandInstruments.sol\":8910:8920  msg.sender */\n      caller\n        /* \"WandInstruments.sol\":8895:8937  sceptersBought(msg.sender, amountSCPtoBuy) */\n      0xffffffffffffffffffffffffffffffffffffffff\n      and\n      0xf633443b01504d269657083d48bb6de98e089cfff672b47fefbed21608b5c779\n        /* \"WandInstruments.sol\":8922:8936  amountSCPtoBuy */\n      dup7\n        /* \"WandInstruments.sol\":8895:8937  sceptersBought(msg.sender, amountSCPtoBuy) */\n      mload(0x40)\n      tag_407\n      swap2\n      swap1\n      tag_55\n      jump\t// in\n    tag_407:\n      mload(0x40)\n      dup1\n      swap2\n      sub\n      swap1\n      log2\n        /* \"WandInstruments.sol\":7790:8945  {\r... */\n      pop\n      pop\n      pop\n        /* \"ReentrancyGuard.sol\":1734:1735  1 */\n      0x01\n        /* \"ReentrancyGuard.sol\":2688:2695  _status */\n      0x00\n        /* \"ReentrancyGuard.sol\":2688:2710  _status = _NOT_ENTERED */\n      dup2\n      swap1\n      sstore\n      pop\n        /* \"WandInstruments.sol\":7698:8945  function buyScepter(uint256 amountSCPtoBuy, string memory _stableChosen) public nonReentrant{\r... */\n      pop\n      pop\n      jump\t// out\n        /* \"Ownable.sol\":1029:1114  function owner() public view virtual returns (address) {... */\n    tag_158:\n        /* \"Ownable.sol\":1075:1082  address */\n      0x00\n        /* \"Ownable.sol\":1101:1107  _owner */\n      0x01\n      0x00\n      swap1\n      sload\n      swap1\n      0x0100\n      exp\n      swap1\n      div\n      0xffffffffffffffffffffffffffffffffffffffff\n      and\n        /* \"Ownable.sol\":1094:1107  return _owner */\n      swap1\n      pop\n        /* \"Ownable.sol\":1029:1114  function owner() public view virtual returns (address) {... */\n      swap1\n      jump\t// out\n        /* \"WandInstruments.sol\":9493:10396  function getGrowthFactor() external view returns (uint256){\r... */\n    tag_162:\n        /* \"WandInstruments.sol\":9543:9550  uint256 */\n      0x00\n        /* \"WandInstruments.sol\":9695:9706  uint256 _gF */\n      dup1\n        /* \"WandInstruments.sol\":9717:9740  uint256 xDaysCircSupply */\n      0x00\n        /* \"WandInstruments.sol\":9751:9766  uint256 numdays */\n      dup1\n        /* \"WandInstruments.sol\":9787:9792  86400 */\n      0x015180\n        /* \"WandInstruments.sol\":9769:9786  daysInCalculation */\n      sload(0x0e)\n        /* \"WandInstruments.sol\":9769:9792  daysInCalculation/86400 */\n      tag_410\n      swap2\n      swap1\n      tag_276\n      jump\t// in\n    tag_410:\n        /* \"WandInstruments.sol\":9751:9792  uint256 numdays = daysInCalculation/86400 */\n      swap1\n      pop\n        /* \"WandInstruments.sol\":9803:9827  uint256 daySinceLaunched */\n      0x00\n        /* \"WandInstruments.sol\":9865:9870  86400 */\n      0x015180\n        /* \"WandInstruments.sol\":9849:9861  timeLaunched */\n      sload(0x0d)\n        /* \"WandInstruments.sol\":9831:9846  block.timestamp */\n      timestamp\n        /* \"WandInstruments.sol\":9831:9861  block.timestamp - timeLaunched */\n      tag_411\n      swap2\n      swap1\n      tag_278\n      jump\t// in\n    tag_411:\n        /* \"WandInstruments.sol\":9830:9870  (block.timestamp - timeLaunched) / 86400 */\n      tag_412\n      swap2\n      swap1\n      tag_276\n      jump\t// in\n    tag_412:\n        /* \"WandInstruments.sol\":9803:9870  uint256 daySinceLaunched = (block.timestamp - timeLaunched) / 86400 */\n      swap1\n      pop\n        /* \"WandInstruments.sol\":9881:9890  uint256 d */\n      0x00\n        /* \"WandInstruments.sol\":9935:9936  0 */\n      dup1\n        /* \"WandInstruments.sol\":9915:9931  daySinceLaunched */\n      dup3\n        /* \"WandInstruments.sol\":9915:9936  daySinceLaunched == 0 */\n      eq\n        /* \"WandInstruments.sol\":9911:10203  if (daySinceLaunched == 0) {\r... */\n      iszero\n      tag_413\n      jumpi\n        /* \"WandInstruments.sol\":9967:9989  circulatingSupplyXDays */\n      0x1a\n        /* \"WandInstruments.sol\":9967:9992  circulatingSupplyXDays[0] */\n      0x00\n        /* \"WandInstruments.sol\":9990:9991  0 */\n      dup1\n        /* \"WandInstruments.sol\":9967:9992  circulatingSupplyXDays[0] */\n      dup2\n      mstore\n      0x20\n      add\n      swap1\n      dup2\n      mstore\n      0x20\n      add\n      0x00\n      keccak256\n      sload\n        /* \"WandInstruments.sol\":9949:9992  xDaysCircSupply = circulatingSupplyXDays[0] */\n      swap4\n      pop\n        /* \"WandInstruments.sol\":9911:10203  if (daySinceLaunched == 0) {\r... */\n      jump(tag_414)\n    tag_413:\n        /* \"WandInstruments.sol\":10061:10068  numdays */\n      dup3\n        /* \"WandInstruments.sol\":10042:10058  daySinceLaunched */\n      dup3\n        /* \"WandInstruments.sol\":10042:10068  daySinceLaunched - numdays */\n      tag_418\n      swap2\n      swap1\n      tag_278\n      jump\t// in\n    tag_418:\n        /* \"WandInstruments.sol\":10038:10068  d = daySinceLaunched - numdays */\n      swap1\n      pop\n        /* \"WandInstruments.sol\":10033:10192  for (d = daySinceLaunched - numdays; d < daySinceLaunched; d++) {  //for loop example\r... */\n    tag_415:\n        /* \"WandInstruments.sol\":10074:10090  daySinceLaunched */\n      dup2\n        /* \"WandInstruments.sol\":10070:10071  d */\n      dup2\n        /* \"WandInstruments.sol\":10070:10090  d < daySinceLaunched */\n      lt\n        /* \"WandInstruments.sol\":10033:10192  for (d = daySinceLaunched - numdays; d < daySinceLaunched; d++) {  //for loop example\r... */\n      iszero\n      tag_416\n      jumpi\n        /* \"WandInstruments.sol\":10151:10173  circulatingSupplyXDays */\n      0x1a\n        /* \"WandInstruments.sol\":10151:10176  circulatingSupplyXDays[d] */\n      0x00\n        /* \"WandInstruments.sol\":10174:10175  d */\n      dup3\n        /* \"WandInstruments.sol\":10151:10176  circulatingSupplyXDays[d] */\n      dup2\n      mstore\n      0x20\n      add\n      swap1\n      dup2\n      mstore\n      0x20\n      add\n      0x00\n      keccak256\n      sload\n        /* \"WandInstruments.sol\":10132:10176  xDaysCircSupply += circulatingSupplyXDays[d] */\n      dup5\n      tag_419\n      swap2\n      swap1\n      tag_244\n      jump\t// in\n    tag_419:\n      swap4\n      pop\n        /* \"WandInstruments.sol\":10092:10095  d++ */\n      dup1\n      dup1\n      tag_420\n      swap1\n      tag_288\n      jump\t// in\n    tag_420:\n      swap2\n      pop\n      pop\n        /* \"WandInstruments.sol\":10033:10192  for (d = daySinceLaunched - numdays; d < daySinceLaunched; d++) {  //for loop example\r... */\n      jump(tag_415)\n    tag_416:\n        /* \"WandInstruments.sol\":9911:10203  if (daySinceLaunched == 0) {\r... */\n    tag_414:\n        /* \"WandInstruments.sol\":10218:10271  decDiv18(this.getTokensBoughtXDays(),xDaysCircSupply) */\n      tag_421\n        /* \"WandInstruments.sol\":10227:10231  this */\n      address\n        /* \"WandInstruments.sol\":10227:10252  this.getTokensBoughtXDays */\n      0xffffffffffffffffffffffffffffffffffffffff\n      and\n      0x71cd58f9\n        /* \"WandInstruments.sol\":10227:10254  this.getTokensBoughtXDays() */\n      mload(0x40)\n      dup2\n      0xffffffff\n      and\n      0xe0\n      shl\n      dup2\n      mstore\n      0x04\n      add\n      0x20\n      mload(0x40)\n      dup1\n      dup4\n      sub\n      dup2\n      dup7\n      dup1\n      extcodesize\n      iszero\n      dup1\n      iszero\n      tag_422\n      jumpi\n      0x00\n      dup1\n      revert\n    tag_422:\n      pop\n      gas\n      staticcall\n      iszero\n      dup1\n      iszero\n      tag_424\n      jumpi\n      returndatasize\n      0x00\n      dup1\n      returndatacopy\n      revert(0x00, returndatasize)\n    tag_424:\n      pop\n      pop\n      pop\n      pop\n      mload(0x40)\n      returndatasize\n      not(0x1f)\n      0x1f\n      dup3\n      add\n      and\n      dup3\n      add\n      dup1\n      0x40\n      mstore\n      pop\n      dup2\n      add\n      swap1\n      tag_425\n      swap2\n      swap1\n      tag_238\n      jump\t// in\n    tag_425:\n        /* \"WandInstruments.sol\":10255:10270  xDaysCircSupply */\n      dup6\n        /* \"WandInstruments.sol\":10218:10226  decDiv18 */\n      tag_294\n        /* \"WandInstruments.sol\":10218:10271  decDiv18(this.getTokensBoughtXDays(),xDaysCircSupply) */\n      jump\t// in\n    tag_421:\n        /* \"WandInstruments.sol\":10212:10271  _gF = decDiv18(this.getTokensBoughtXDays(),xDaysCircSupply) */\n      swap5\n      pop\n        /* \"WandInstruments.sol\":10291:10309  300000000000000000 */\n      0x0429d069189e0000\n        /* \"WandInstruments.sol\":10285:10288  _gF */\n      dup6\n        /* \"WandInstruments.sol\":10285:10309  _gF > 300000000000000000 */\n      gt\n        /* \"WandInstruments.sol\":10281:10368  if (_gF > 300000000000000000)\r... */\n      iszero\n      tag_426\n      jumpi\n        /* \"WandInstruments.sol\":10339:10357  300000000000000000 */\n      0x0429d069189e0000\n        /* \"WandInstruments.sol\":10333:10357  _gF = 300000000000000000 */\n      swap5\n      pop\n        /* \"WandInstruments.sol\":10281:10368  if (_gF > 300000000000000000)\r... */\n    tag_426:\n        /* \"WandInstruments.sol\":10384:10387  _gF */\n      dup5\n        /* \"WandInstruments.sol\":10377:10387  return _gF */\n      swap6\n      pop\n      pop\n      pop\n      pop\n      pop\n      pop\n        /* \"WandInstruments.sol\":9493:10396  function getGrowthFactor() external view returns (uint256){\r... */\n      swap1\n      jump\t// out\n        /* \"WandInstruments.sol\":15493:15582  function whitelist(address _addr) public onlyOwner {  \r... */\n    tag_167:\n        /* \"Ownable.sol\":1252:1264  _msgSender() */\n      tag_428\n        /* \"Ownable.sol\":1252:1262  _msgSender */\n      tag_248\n        /* \"Ownable.sol\":1252:1264  _msgSender() */\n      jump\t// in\n    tag_428:\n        /* \"Ownable.sol\":1241:1264  owner() == _msgSender() */\n      0xffffffffffffffffffffffffffffffffffffffff\n      and\n        /* \"Ownable.sol\":1241:1248  owner() */\n      tag_429\n        /* \"Ownable.sol\":1241:1246  owner */\n      tag_158\n        /* \"Ownable.sol\":1241:1248  owner() */\n      jump\t// in\n    tag_429:\n        /* \"Ownable.sol\":1241:1264  owner() == _msgSender() */\n      0xffffffffffffffffffffffffffffffffffffffff\n      and\n      eq\n        /* \"Ownable.sol\":1233:1301  require(owner() == _msgSender(), \"Ownable: caller is not the owner\") */\n      tag_430\n      jumpi\n      mload(0x40)\n      0x08c379a000000000000000000000000000000000000000000000000000000000\n      dup2\n      mstore\n      0x04\n      add\n      tag_431\n      swap1\n      tag_252\n      jump\t// in\n    tag_431:\n      mload(0x40)\n      dup1\n      swap2\n      sub\n      swap1\n      revert\n    tag_430:\n        /* \"WandInstruments.sol\":15493:15582  function whitelist(address _addr) public onlyOwner {  \r... */\n      pop\n      jump\t// out\n        /* \"WandInstruments.sol\":1894:1955  mapping (string => stableTokensParams) public stableERC20Info */\n    tag_172:\n      0x1b\n      dup2\n      dup1\n      mload\n      0x20\n      dup2\n      add\n      dup3\n      add\n      dup1\n      mload\n      dup5\n      dup3\n      mstore\n      0x20\n      dup4\n      add\n      0x20\n      dup6\n      add\n      keccak256\n      dup2\n      dup4\n      mstore\n      dup1\n      swap6\n      pop\n      pop\n      pop\n      pop\n      pop\n      pop\n      0x00\n      swap2\n      pop\n      swap1\n      pop\n      dup1\n      0x00\n      add\n      0x00\n      swap1\n      sload\n      swap1\n      0x0100\n      exp\n      swap1\n      div\n      0xffffffffffffffffffffffffffffffffffffffff\n      and\n      swap1\n      dup1\n      0x01\n      add\n      sload\n      swap1\n      pop\n      dup3\n      jump\t// out\n        /* \"WandInstruments.sol\":12090:12320  function updateSPTRTreasuryBal() external onlyOwner {\r... */\n    tag_177:\n        /* \"Ownable.sol\":1252:1264  _msgSender() */\n      tag_434\n        /* \"Ownable.sol\":1252:1262  _msgSender */\n      tag_248\n        /* \"Ownable.sol\":1252:1264  _msgSender() */\n      jump\t// in\n    tag_434:\n        /* \"Ownable.sol\":1241:1264  owner() == _msgSender() */\n      0xffffffffffffffffffffffffffffffffffffffff\n      and\n        /* \"Ownable.sol\":1241:1248  owner() */\n      tag_435\n        /* \"Ownable.sol\":1241:1246  owner */\n      tag_158\n        /* \"Ownable.sol\":1241:1248  owner() */\n      jump\t// in\n    tag_435:\n        /* \"Ownable.sol\":1241:1264  owner() == _msgSender() */\n      0xffffffffffffffffffffffffffffffffffffffff\n      and\n      eq\n        /* \"Ownable.sol\":1233:1301  require(owner() == _msgSender(), \"Ownable: caller is not the owner\") */\n      tag_436\n      jumpi\n      mload(0x40)\n      0x08c379a000000000000000000000000000000000000000000000000000000000\n      dup2\n      mstore\n      0x04\n      add\n      tag_437\n      swap1\n      tag_252\n      jump\t// in\n    tag_437:\n      mload(0x40)\n      dup1\n      swap2\n      sub\n      swap1\n      revert\n    tag_436:\n        /* \"WandInstruments.sol\":12174:12189  stableERC20Info */\n      0x1b\n        /* \"WandInstruments.sol\":12174:12197  stableERC20Info[\"USDC\"] */\n      mload(0x40)\n      tag_439\n      swap1\n      tag_440\n      jump\t// in\n    tag_439:\n      swap1\n      dup2\n      mstore\n      0x20\n      add\n      mload(0x40)\n      dup1\n      swap2\n      sub\n      swap1\n      keccak256\n        /* \"WandInstruments.sol\":12174:12213  stableERC20Info[\"USDC\"].contractAddress */\n      0x00\n      add\n      0x00\n      swap1\n      sload\n      swap1\n      0x0100\n      exp\n      swap1\n      div\n      0xffffffffffffffffffffffffffffffffffffffff\n      and\n        /* \"WandInstruments.sol\":12153:12164  tokenStable */\n      0x17\n      0x00\n        /* \"WandInstruments.sol\":12153:12214  tokenStable = IERC20(stableERC20Info[\"USDC\"].contractAddress) */\n      0x0100\n      exp\n      dup2\n      sload\n      dup2\n      0xffffffffffffffffffffffffffffffffffffffff\n      mul\n      not\n      and\n      swap1\n      dup4\n      0xffffffffffffffffffffffffffffffffffffffff\n      and\n      mul\n      or\n      swap1\n      sstore\n      pop\n        /* \"WandInstruments.sol\":12090:12320  function updateSPTRTreasuryBal() external onlyOwner {\r... */\n      jump\t// out\n        /* \"WandInstruments.sol\":8953:9460  function claimLockedUSDC(address _claimant, string memory _stableChosen) public {\r... */\n    tag_182:\n        /* \"WandInstruments.sol\":9072:9091  withheldWithdrawals */\n      0x1c\n        /* \"WandInstruments.sol\":9072:9102  withheldWithdrawals[_claimant] */\n      0x00\n        /* \"WandInstruments.sol\":9092:9101  _claimant */\n      dup4\n        /* \"WandInstruments.sol\":9072:9102  withheldWithdrawals[_claimant] */\n      0xffffffffffffffffffffffffffffffffffffffff\n      and\n      0xffffffffffffffffffffffffffffffffffffffff\n      and\n      dup2\n      mstore\n      0x20\n      add\n      swap1\n      dup2\n      mstore\n      0x20\n      add\n      0x00\n      keccak256\n        /* \"WandInstruments.sol\":9072:9115  withheldWithdrawals[_claimant].timeUnlocked */\n      0x00\n      add\n      sload\n        /* \"WandInstruments.sol\":9053:9068  block.timestamp */\n      timestamp\n        /* \"WandInstruments.sol\":9053:9115  block.timestamp >= withheldWithdrawals[_claimant].timeUnlocked */\n      lt\n      iszero\n        /* \"WandInstruments.sol\":9044:9132  require (block.timestamp >= withheldWithdrawals[_claimant].timeUnlocked, \"Not unlocked\") */\n      tag_442\n      jumpi\n      mload(0x40)\n      0x08c379a000000000000000000000000000000000000000000000000000000000\n      dup2\n      mstore\n      0x04\n      add\n      tag_443\n      swap1\n      tag_444\n      jump\t// in\n    tag_443:\n      mload(0x40)\n      dup1\n      swap2\n      sub\n      swap1\n      revert\n    tag_442:\n        /* \"WandInstruments.sol\":9164:9179  stableERC20Info */\n      0x1b\n        /* \"WandInstruments.sol\":9180:9193  _stableChosen */\n      dup2\n        /* \"WandInstruments.sol\":9164:9194  stableERC20Info[_stableChosen] */\n      mload(0x40)\n      tag_445\n      swap2\n      swap1\n      tag_374\n      jump\t// in\n    tag_445:\n      swap1\n      dup2\n      mstore\n      0x20\n      add\n      mload(0x40)\n      dup1\n      swap2\n      sub\n      swap1\n      keccak256\n        /* \"WandInstruments.sol\":9164:9210  stableERC20Info[_stableChosen].contractAddress */\n      0x00\n      add\n      0x00\n      swap1\n      sload\n      swap1\n      0x0100\n      exp\n      swap1\n      div\n      0xffffffffffffffffffffffffffffffffffffffff\n      and\n        /* \"WandInstruments.sol\":9143:9154  tokenStable */\n      0x17\n      0x00\n        /* \"WandInstruments.sol\":9143:9211  tokenStable = IERC20(stableERC20Info[_stableChosen].contractAddress) */\n      0x0100\n      exp\n      dup2\n      sload\n      dup2\n      0xffffffffffffffffffffffffffffffffffffffff\n      mul\n      not\n      and\n      swap1\n      dup4\n      0xffffffffffffffffffffffffffffffffffffffff\n      and\n      mul\n      or\n      swap1\n      sstore\n      pop\n        /* \"WandInstruments.sol\":9293:9310  uint256 claimAmts */\n      0x00\n        /* \"WandInstruments.sol\":9333:9352  withheldWithdrawals */\n      0x1c\n        /* \"WandInstruments.sol\":9333:9363  withheldWithdrawals[_claimant] */\n      0x00\n        /* \"WandInstruments.sol\":9353:9362  _claimant */\n      dup5\n        /* \"WandInstruments.sol\":9333:9363  withheldWithdrawals[_claimant] */\n      0xffffffffffffffffffffffffffffffffffffffff\n      and\n      0xffffffffffffffffffffffffffffffffffffffff\n      and\n      dup2\n      mstore\n      0x20\n      add\n      swap1\n      dup2\n      mstore\n      0x20\n      add\n      0x00\n      keccak256\n        /* \"WandInstruments.sol\":9333:9371  withheldWithdrawals[_claimant].amounts */\n      0x01\n      add\n      sload\n        /* \"WandInstruments.sol\":9321:9371  claimAmts = withheldWithdrawals[_claimant].amounts */\n      swap1\n      pop\n        /* \"WandInstruments.sol\":9382:9450  _safeTransferFrom(tokenStable, address(this), msg.sender, claimAmts) */\n      tag_446\n        /* \"WandInstruments.sol\":9400:9411  tokenStable */\n      0x17\n      0x00\n      swap1\n      sload\n      swap1\n      0x0100\n      exp\n      swap1\n      div\n      0xffffffffffffffffffffffffffffffffffffffff\n      and\n        /* \"WandInstruments.sol\":9421:9425  this */\n      address\n        /* \"WandInstruments.sol\":9428:9438  msg.sender */\n      caller\n        /* \"WandInstruments.sol\":9440:9449  claimAmts */\n      dup5\n        /* \"WandInstruments.sol\":9382:9399  _safeTransferFrom */\n      tag_322\n        /* \"WandInstruments.sol\":9382:9450  _safeTransferFrom(tokenStable, address(this), msg.sender, claimAmts) */\n      jump\t// in\n    tag_446:\n        /* \"WandInstruments.sol\":9033:9460  {\r... */\n      pop\n        /* \"WandInstruments.sol\":8953:9460  function claimLockedUSDC(address _claimant, string memory _stableChosen) public {\r... */\n      pop\n      pop\n      jump\t// out\n        /* \"WandInstruments.sol\":668:702  address public scepterTreasuryAddr */\n    tag_185:\n      0x09\n      0x00\n      swap1\n      sload\n      swap1\n      0x0100\n      exp\n      swap1\n      div\n      0xffffffffffffffffffffffffffffffffffffffff\n      and\n      dup2\n      jump\t// out\n        /* \"WandInstruments.sol\":1480:1498  IERC20 public BTON */\n    tag_189:\n      0x16\n      0x00\n      swap1\n      sload\n      swap1\n      0x0100\n      exp\n      swap1\n      div\n      0xffffffffffffffffffffffffffffffffffffffff\n      and\n      dup2\n      jump\t// out\n        /* \"WandInstruments.sol\":5202:6928  function cashOutScepter(uint256 amountSCPtoSell, uint256 timeChosenLocked, string memory _stableChosen) public payable{\r... */\n    tag_194:\n        /* \"WandInstruments.sol\":5413:5428  stableERC20Info */\n      0x1b\n        /* \"WandInstruments.sol\":5429:5442  _stableChosen */\n      dup2\n        /* \"WandInstruments.sol\":5413:5443  stableERC20Info[_stableChosen] */\n      mload(0x40)\n      tag_448\n      swap2\n      swap1\n      tag_374\n      jump\t// in\n    tag_448:\n      swap1\n      dup2\n      mstore\n      0x20\n      add\n      mload(0x40)\n      dup1\n      swap2\n      sub\n      swap1\n      keccak256\n        /* \"WandInstruments.sol\":5413:5459  stableERC20Info[_stableChosen].contractAddress */\n      0x00\n      add\n      0x00\n      swap1\n      sload\n      swap1\n      0x0100\n      exp\n      swap1\n      div\n      0xffffffffffffffffffffffffffffffffffffffff\n      and\n        /* \"WandInstruments.sol\":5392:5403  tokenStable */\n      0x17\n      0x00\n        /* \"WandInstruments.sol\":5392:5460  tokenStable = IERC20(stableERC20Info[_stableChosen].contractAddress) */\n      0x0100\n      exp\n      dup2\n      sload\n      dup2\n      0xffffffffffffffffffffffffffffffffffffffff\n      mul\n      not\n      and\n      swap1\n      dup4\n      0xffffffffffffffffffffffffffffffffffffffff\n      and\n      mul\n      or\n      swap1\n      sstore\n      pop\n        /* \"WandInstruments.sol\":5471:5497  uint256 trader_tsc_balance */\n      0x00\n        /* \"WandInstruments.sol\":5500:5504  SPTR */\n      0x14\n      0x00\n      swap1\n      sload\n      swap1\n      0x0100\n      exp\n      swap1\n      div\n      0xffffffffffffffffffffffffffffffffffffffff\n      and\n        /* \"WandInstruments.sol\":5500:5514  SPTR.balanceOf */\n      0xffffffffffffffffffffffffffffffffffffffff\n      and\n      0x70a08231\n        /* \"WandInstruments.sol\":5515:5525  msg.sender */\n      caller\n        /* \"WandInstruments.sol\":5500:5526  SPTR.balanceOf(msg.sender) */\n      mload(0x40)\n      dup3\n      0xffffffff\n      and\n      0xe0\n      shl\n      dup2\n      mstore\n      0x04\n      add\n      tag_449\n      swap2\n      swap1\n      tag_63\n      jump\t// in\n    tag_449:\n      0x20\n      mload(0x40)\n      dup1\n      dup4\n      sub\n      dup2\n      dup7\n      dup1\n      extcodesize\n      iszero\n      dup1\n      iszero\n      tag_450\n      jumpi\n      0x00\n      dup1\n      revert\n    tag_450:\n      pop\n      gas\n      staticcall\n      iszero\n      dup1\n      iszero\n      tag_452\n      jumpi\n      returndatasize\n      0x00\n      dup1\n      returndatacopy\n      revert(0x00, returndatasize)\n    tag_452:\n      pop\n      pop\n      pop\n      pop\n      mload(0x40)\n      returndatasize\n      not(0x1f)\n      0x1f\n      dup3\n      add\n      and\n      dup3\n      add\n      dup1\n      0x40\n      mstore\n      pop\n      dup2\n      add\n      swap1\n      tag_453\n      swap2\n      swap1\n      tag_238\n      jump\t// in\n    tag_453:\n        /* \"WandInstruments.sol\":5471:5526  uint256 trader_tsc_balance = SPTR.balanceOf(msg.sender) */\n      swap1\n      pop\n        /* \"WandInstruments.sol\":5566:5581  amountSCPtoSell */\n      dup4\n        /* \"WandInstruments.sol\":5545:5563  trader_tsc_balance */\n      dup2\n        /* \"WandInstruments.sol\":5545:5581  trader_tsc_balance > amountSCPtoSell */\n      gt\n        /* \"WandInstruments.sol\":5537:5612  require(trader_tsc_balance > amountSCPtoSell, \"You dont have that amount!\") */\n      tag_454\n      jumpi\n      mload(0x40)\n      0x08c379a000000000000000000000000000000000000000000000000000000000\n      dup2\n      mstore\n      0x04\n      add\n      tag_455\n      swap1\n      tag_320\n      jump\t// in\n    tag_455:\n      mload(0x40)\n      dup1\n      swap2\n      sub\n      swap1\n      revert\n    tag_454:\n        /* \"WandInstruments.sol\":5814:5825  tokenStable */\n      0x17\n      0x00\n      swap1\n      sload\n      swap1\n      0x0100\n      exp\n      swap1\n      div\n      0xffffffffffffffffffffffffffffffffffffffff\n      and\n        /* \"WandInstruments.sol\":5814:5834  tokenStable.transfer */\n      0xffffffffffffffffffffffffffffffffffffffff\n      and\n      0xa9059cbb\n        /* \"WandInstruments.sol\":5835:5845  msg.sender */\n      caller\n        /* \"WandInstruments.sol\":370:376  10**18 */\n      0x0de0b6b3a7640000\n        /* \"WandInstruments.sol\":5866:5867  1 */\n      0x01\n        /* \"WandInstruments.sol\":5866:5878  1*(DECIMALS) */\n      tag_456\n      swap2\n      swap1\n      tag_330\n      jump\t// in\n    tag_456:\n        /* \"WandInstruments.sol\":5847:5862  amountSCPtoSell */\n      dup8\n        /* \"WandInstruments.sol\":5847:5879  amountSCPtoSell + (1*(DECIMALS)) */\n      tag_457\n      swap2\n      swap1\n      tag_244\n      jump\t// in\n    tag_457:\n        /* \"WandInstruments.sol\":5814:5880  tokenStable.transfer(msg.sender, amountSCPtoSell + (1*(DECIMALS))) */\n      mload(0x40)\n      dup4\n      0xffffffff\n      and\n      0xe0\n      shl\n      dup2\n      mstore\n      0x04\n      add\n      tag_458\n      swap3\n      swap2\n      swap1\n      tag_174\n      jump\t// in\n    tag_458:\n      0x20\n      mload(0x40)\n      dup1\n      dup4\n      sub\n      dup2\n      0x00\n      dup8\n      dup1\n      extcodesize\n      iszero\n      dup1\n      iszero\n      tag_459\n      jumpi\n      0x00\n      dup1\n      revert\n    tag_459:\n      pop\n      gas\n      call\n      iszero\n      dup1\n      iszero\n      tag_461\n      jumpi\n      returndatasize\n      0x00\n      dup1\n      returndatacopy\n      revert(0x00, returndatasize)\n    tag_461:\n      pop\n      pop\n      pop\n      pop\n      mload(0x40)\n      returndatasize\n      not(0x1f)\n      0x1f\n      dup3\n      add\n      and\n      dup3\n      add\n      dup1\n      0x40\n      mstore\n      pop\n      dup2\n      add\n      swap1\n      tag_462\n      swap2\n      swap1\n      tag_463\n      jump\t// in\n    tag_462:\n      pop\n        /* \"WandInstruments.sol\":5983:6050  _safeTransferFrom(SPTR, msg.sender, address(this), amountSCPtoSell) */\n      tag_464\n        /* \"WandInstruments.sol\":6001:6005  SPTR */\n      0x14\n      0x00\n      swap1\n      sload\n      swap1\n      0x0100\n      exp\n      swap1\n      div\n      0xffffffffffffffffffffffffffffffffffffffff\n      and\n        /* \"WandInstruments.sol\":6007:6017  msg.sender */\n      caller\n        /* \"WandInstruments.sol\":6027:6031  this */\n      address\n        /* \"WandInstruments.sol\":6034:6049  amountSCPtoSell */\n      dup8\n        /* \"WandInstruments.sol\":5983:6000  _safeTransferFrom */\n      tag_322\n        /* \"WandInstruments.sol\":5983:6050  _safeTransferFrom(SPTR, msg.sender, address(this), amountSCPtoSell) */\n      jump\t// in\n    tag_464:\n        /* \"WandInstruments.sol\":6064:6079  uint256 usdcAmt */\n      0x00\n        /* \"WandInstruments.sol\":6126:6141  amountSCPtoSell */\n      dup5\n        /* \"WandInstruments.sol\":6104:6108  this */\n      address\n        /* \"WandInstruments.sol\":6104:6121  this.getSellPrice */\n      0xffffffffffffffffffffffffffffffffffffffff\n      and\n      0x43d32e9c\n        /* \"WandInstruments.sol\":6104:6123  this.getSellPrice() */\n      mload(0x40)\n      dup2\n      0xffffffff\n      and\n      0xe0\n      shl\n      dup2\n      mstore\n      0x04\n      add\n      0x20\n      mload(0x40)\n      dup1\n      dup4\n      sub\n      dup2\n      dup7\n      dup1\n      extcodesize\n      iszero\n      dup1\n      iszero\n      tag_465\n      jumpi\n      0x00\n      dup1\n      revert\n    tag_465:\n      pop\n      gas\n      staticcall\n      iszero\n      dup1\n      iszero\n      tag_467\n      jumpi\n      returndatasize\n      0x00\n      dup1\n      returndatacopy\n      revert(0x00, returndatasize)\n    tag_467:\n      pop\n      pop\n      pop\n      pop\n      mload(0x40)\n      returndatasize\n      not(0x1f)\n      0x1f\n      dup3\n      add\n      and\n      dup3\n      add\n      dup1\n      0x40\n      mstore\n      pop\n      dup2\n      add\n      swap1\n      tag_468\n      swap2\n      swap1\n      tag_238\n      jump\t// in\n    tag_468:\n        /* \"WandInstruments.sol\":6104:6141  this.getSellPrice() * amountSCPtoSell */\n      tag_469\n      swap2\n      swap1\n      tag_330\n      jump\t// in\n    tag_469:\n        /* \"WandInstruments.sol\":6094:6141  usdcAmt = this.getSellPrice() * amountSCPtoSell */\n      swap1\n      pop\n        /* \"WandInstruments.sol\":6416:6432  uint256 dInArray */\n      0x00\n        /* \"WandInstruments.sol\":6466:6471  86400 */\n      0x015180\n        /* \"WandInstruments.sol\":6452:6464  timeLaunched */\n      sload(0x0d)\n        /* \"WandInstruments.sol\":6435:6450  block.timestamp */\n      timestamp\n        /* \"WandInstruments.sol\":6435:6464  block.timestamp- timeLaunched */\n      tag_470\n      swap2\n      swap1\n      tag_278\n      jump\t// in\n    tag_470:\n        /* \"WandInstruments.sol\":6434:6471  (block.timestamp- timeLaunched)/86400 */\n      tag_471\n      swap2\n      swap1\n      tag_276\n      jump\t// in\n    tag_471:\n        /* \"WandInstruments.sol\":6416:6471  uint256 dInArray =(block.timestamp- timeLaunched)/86400 */\n      swap1\n      pop\n        /* \"WandInstruments.sol\":6512:6527  amountSCPtoSell */\n      dup6\n        /* \"WandInstruments.sol\":6483:6498  tokensSoldXDays */\n      0x19\n        /* \"WandInstruments.sol\":6483:6508  tokensSoldXDays[dInArray] */\n      0x00\n        /* \"WandInstruments.sol\":6499:6507  dInArray */\n      dup4\n        /* \"WandInstruments.sol\":6483:6508  tokensSoldXDays[dInArray] */\n      dup2\n      mstore\n      0x20\n      add\n      swap1\n      dup2\n      mstore\n      0x20\n      add\n      0x00\n      keccak256\n      0x00\n        /* \"WandInstruments.sol\":6483:6527  tokensSoldXDays[dInArray] += amountSCPtoSell */\n      dup3\n      dup3\n      sload\n      tag_472\n      swap2\n      swap1\n      tag_244\n      jump\t// in\n    tag_472:\n      swap3\n      pop\n      pop\n      dup2\n      swap1\n      sstore\n      pop\n        /* \"WandInstruments.sol\":6574:6589  amountSCPtoSell */\n      dup6\n        /* \"WandInstruments.sol\":6538:6560  circulatingSupplyXDays */\n      0x1a\n        /* \"WandInstruments.sol\":6538:6570  circulatingSupplyXDays[dInArray] */\n      0x00\n        /* \"WandInstruments.sol\":6561:6569  dInArray */\n      dup4\n        /* \"WandInstruments.sol\":6538:6570  circulatingSupplyXDays[dInArray] */\n      dup2\n      mstore\n      0x20\n      add\n      swap1\n      dup2\n      mstore\n      0x20\n      add\n      0x00\n      keccak256\n      0x00\n        /* \"WandInstruments.sol\":6538:6589  circulatingSupplyXDays[dInArray] -= amountSCPtoSell */\n      dup3\n      dup3\n      sload\n      tag_473\n      swap2\n      swap1\n      tag_278\n      jump\t// in\n    tag_473:\n      swap3\n      pop\n      pop\n      dup2\n      swap1\n      sstore\n      pop\n        /* \"WandInstruments.sol\":5320:6928  {\r... */\n      pop\n      pop\n      pop\n        /* \"WandInstruments.sol\":5202:6928  function cashOutScepter(uint256 amountSCPtoSell, uint256 timeChosenLocked, string memory _stableChosen) public payable{\r... */\n      pop\n      pop\n      pop\n      jump\t// out\n        /* \"WandInstruments.sol\":419:444  uint256 public sellFactor */\n    tag_197:\n      sload(0x03)\n      dup2\n      jump\t// out\n        /* \"WandInstruments.sol\":1455:1473  IERC20 public WAND */\n    tag_201:\n      0x15\n      0x00\n      swap1\n      sload\n      swap1\n      0x0100\n      exp\n      swap1\n      div\n      0xffffffffffffffffffffffffffffffffffffffff\n      and\n      dup2\n      jump\t// out\n        /* \"WandInstruments.sol\":14758:15044  function getTokensSoldXDays() external view returns (uint256){\r... */\n    tag_205:\n        /* \"WandInstruments.sol\":14811:14818  uint256 */\n      0x00\n        /* \"WandInstruments.sol\":14830:14845  uint256 soldNum */\n      dup1\n        /* \"WandInstruments.sol\":14856:14865  uint256 d */\n      0x00\n        /* \"WandInstruments.sol\":14876:14891  uint256 numdays */\n      dup1\n        /* \"WandInstruments.sol\":14912:14917  86400 */\n      0x015180\n        /* \"WandInstruments.sol\":14894:14911  daysInCalculation */\n      sload(0x0e)\n        /* \"WandInstruments.sol\":14894:14917  daysInCalculation/86400 */\n      tag_475\n      swap2\n      swap1\n      tag_276\n      jump\t// in\n    tag_475:\n        /* \"WandInstruments.sol\":14876:14917  uint256 numdays = daysInCalculation/86400 */\n      swap1\n      pop\n        /* \"WandInstruments.sol\":14939:14940  0 */\n      0x00\n        /* \"WandInstruments.sol\":14935:14940  d = 0 */\n      swap2\n      pop\n        /* \"WandInstruments.sol\":14930:15013  for (d = 0; d < numdays; d++) { \r... */\n    tag_476:\n        /* \"WandInstruments.sol\":14946:14953  numdays */\n      dup1\n        /* \"WandInstruments.sol\":14942:14943  d */\n      dup3\n        /* \"WandInstruments.sol\":14942:14953  d < numdays */\n      lt\n        /* \"WandInstruments.sol\":14930:15013  for (d = 0; d < numdays; d++) { \r... */\n      iszero\n      tag_477\n      jumpi\n        /* \"WandInstruments.sol\":14985:15000  tokensSoldXDays */\n      0x19\n        /* \"WandInstruments.sol\":14985:15003  tokensSoldXDays[d] */\n      0x00\n        /* \"WandInstruments.sol\":15001:15002  d */\n      dup4\n        /* \"WandInstruments.sol\":14985:15003  tokensSoldXDays[d] */\n      dup2\n      mstore\n      0x20\n      add\n      swap1\n      dup2\n      mstore\n      0x20\n      add\n      0x00\n      keccak256\n      sload\n        /* \"WandInstruments.sol\":14974:15003  soldNum += tokensSoldXDays[d] */\n      dup4\n      tag_479\n      swap2\n      swap1\n      tag_244\n      jump\t// in\n    tag_479:\n      swap3\n      pop\n        /* \"WandInstruments.sol\":14955:14958  d++ */\n      dup2\n      dup1\n      tag_480\n      swap1\n      tag_288\n      jump\t// in\n    tag_480:\n      swap3\n      pop\n      pop\n        /* \"WandInstruments.sol\":14930:15013  for (d = 0; d < numdays; d++) { \r... */\n      jump(tag_476)\n    tag_477:\n        /* \"WandInstruments.sol\":15029:15036  soldNum */\n      dup3\n        /* \"WandInstruments.sol\":15022:15036  return soldNum */\n      swap4\n      pop\n      pop\n      pop\n      pop\n        /* \"WandInstruments.sol\":14758:15044  function getTokensSoldXDays() external view returns (uint256){\r... */\n      swap1\n      jump\t// out\n        /* \"WandInstruments.sol\":15590:15809  function addStable(string memory _ticker, address _addr, uint256 _dec) public onlyOwner {\r... */\n    tag_211:\n        /* \"Ownable.sol\":1252:1264  _msgSender() */\n      tag_482\n        /* \"Ownable.sol\":1252:1262  _msgSender */\n      tag_248\n        /* \"Ownable.sol\":1252:1264  _msgSender() */\n      jump\t// in\n    tag_482:\n        /* \"Ownable.sol\":1241:1264  owner() == _msgSender() */\n      0xffffffffffffffffffffffffffffffffffffffff\n      and\n        /* \"Ownable.sol\":1241:1248  owner() */\n      tag_483\n        /* \"Ownable.sol\":1241:1246  owner */\n      tag_158\n        /* \"Ownable.sol\":1241:1248  owner() */\n      jump\t// in\n    tag_483:\n        /* \"Ownable.sol\":1241:1264  owner() == _msgSender() */\n      0xffffffffffffffffffffffffffffffffffffffff\n      and\n      eq\n        /* \"Ownable.sol\":1233:1301  require(owner() == _msgSender(), \"Ownable: caller is not the owner\") */\n      tag_484\n      jumpi\n      mload(0x40)\n      0x08c379a000000000000000000000000000000000000000000000000000000000\n      dup2\n      mstore\n      0x04\n      add\n      tag_485\n      swap1\n      tag_252\n      jump\t// in\n    tag_485:\n      mload(0x40)\n      dup1\n      swap2\n      sub\n      swap1\n      revert\n    tag_484:\n        /* \"WandInstruments.sol\":15738:15743  _addr */\n      dup2\n        /* \"WandInstruments.sol\":15695:15710  stableERC20Info */\n      0x1b\n        /* \"WandInstruments.sol\":15711:15718  _ticker */\n      dup5\n        /* \"WandInstruments.sol\":15695:15719  stableERC20Info[_ticker] */\n      mload(0x40)\n      tag_487\n      swap2\n      swap1\n      tag_374\n      jump\t// in\n    tag_487:\n      swap1\n      dup2\n      mstore\n      0x20\n      add\n      mload(0x40)\n      dup1\n      swap2\n      sub\n      swap1\n      keccak256\n        /* \"WandInstruments.sol\":15695:15735  stableERC20Info[_ticker].contractAddress */\n      0x00\n      add\n      0x00\n        /* \"WandInstruments.sol\":15695:15743  stableERC20Info[_ticker].contractAddress = _addr */\n      0x0100\n      exp\n      dup2\n      sload\n      dup2\n      0xffffffffffffffffffffffffffffffffffffffff\n      mul\n      not\n      and\n      swap1\n      dup4\n      0xffffffffffffffffffffffffffffffffffffffff\n      and\n      mul\n      or\n      swap1\n      sstore\n      pop\n        /* \"WandInstruments.sol\":15795:15799  _dec */\n      dup1\n        /* \"WandInstruments.sol\":15754:15769  stableERC20Info */\n      0x1b\n        /* \"WandInstruments.sol\":15770:15777  _ticker */\n      dup5\n        /* \"WandInstruments.sol\":15754:15778  stableERC20Info[_ticker] */\n      mload(0x40)\n      tag_488\n      swap2\n      swap1\n      tag_374\n      jump\t// in\n    tag_488:\n      swap1\n      dup2\n      mstore\n      0x20\n      add\n      mload(0x40)\n      dup1\n      swap2\n      sub\n      swap1\n      keccak256\n        /* \"WandInstruments.sol\":15754:15792  stableERC20Info[_ticker].tokenDecimals */\n      0x01\n      add\n        /* \"WandInstruments.sol\":15754:15799  stableERC20Info[_ticker].tokenDecimals = _dec */\n      dup2\n      swap1\n      sstore\n      pop\n        /* \"WandInstruments.sol\":15590:15809  function addStable(string memory _ticker, address _addr, uint256 _dec) public onlyOwner {\r... */\n      pop\n      pop\n      pop\n      jump\t// out\n        /* \"WandInstruments.sol\":385:412  uint256 public growthFactor */\n    tag_214:\n      sload(0x02)\n      dup2\n      jump\t// out\n        /* \"WandInstruments.sol\":1184:1254  address public testwallet = 0x617F2E2fD72FD9D5503197092aC168c91465E7f2 */\n    tag_218:\n      0x13\n      0x00\n      swap1\n      sload\n      swap1\n      0x0100\n      exp\n      swap1\n      div\n      0xffffffffffffffffffffffffffffffffffffffff\n      and\n      dup2\n      jump\t// out\n        /* \"Ownable.sol\":1911:2109  function transferOwnership(address newOwner) public virtual onlyOwner {... */\n    tag_223:\n        /* \"Ownable.sol\":1252:1264  _msgSender() */\n      tag_490\n        /* \"Ownable.sol\":1252:1262  _msgSender */\n      tag_248\n        /* \"Ownable.sol\":1252:1264  _msgSender() */\n      jump\t// in\n    tag_490:\n        /* \"Ownable.sol\":1241:1264  owner() == _msgSender() */\n      0xffffffffffffffffffffffffffffffffffffffff\n      and\n        /* \"Ownable.sol\":1241:1248  owner() */\n      tag_491\n        /* \"Ownable.sol\":1241:1246  owner */\n      tag_158\n        /* \"Ownable.sol\":1241:1248  owner() */\n      jump\t// in\n    tag_491:\n        /* \"Ownable.sol\":1241:1264  owner() == _msgSender() */\n      0xffffffffffffffffffffffffffffffffffffffff\n      and\n      eq\n        /* \"Ownable.sol\":1233:1301  require(owner() == _msgSender(), \"Ownable: caller is not the owner\") */\n      tag_492\n      jumpi\n      mload(0x40)\n      0x08c379a000000000000000000000000000000000000000000000000000000000\n      dup2\n      mstore\n      0x04\n      add\n      tag_493\n      swap1\n      tag_252\n      jump\t// in\n    tag_493:\n      mload(0x40)\n      dup1\n      swap2\n      sub\n      swap1\n      revert\n    tag_492:\n        /* \"Ownable.sol\":2019:2020  0 */\n      0x00\n        /* \"Ownable.sol\":1999:2021  newOwner != address(0) */\n      0xffffffffffffffffffffffffffffffffffffffff\n      and\n        /* \"Ownable.sol\":1999:2007  newOwner */\n      dup2\n        /* \"Ownable.sol\":1999:2021  newOwner != address(0) */\n      0xffffffffffffffffffffffffffffffffffffffff\n      and\n      eq\n      iszero\n        /* \"Ownable.sol\":1991:2064  require(newOwner != address(0), \"Ownable: new owner is the zero address\") */\n      tag_495\n      jumpi\n      mload(0x40)\n      0x08c379a000000000000000000000000000000000000000000000000000000000\n      dup2\n      mstore\n      0x04\n      add\n      tag_496\n      swap1\n      tag_497\n      jump\t// in\n    tag_496:\n      mload(0x40)\n      dup1\n      swap2\n      sub\n      swap1\n      revert\n    tag_495:\n        /* \"Ownable.sol\":2074:2102  _transferOwnership(newOwner) */\n      tag_498\n        /* \"Ownable.sol\":2093:2101  newOwner */\n      dup2\n        /* \"Ownable.sol\":2074:2092  _transferOwnership */\n      tag_356\n        /* \"Ownable.sol\":2074:2102  _transferOwnership(newOwner) */\n      jump\t// in\n    tag_498:\n        /* \"Ownable.sol\":1911:2109  function transferOwnership(address newOwner) public virtual onlyOwner {... */\n      pop\n      jump\t// out\n        /* \"WandInstruments.sol\":633:661  address public treasury1Addr */\n    tag_226:\n      0x08\n      0x00\n      swap1\n      sload\n      swap1\n      0x0100\n      exp\n      swap1\n      div\n      0xffffffffffffffffffffffffffffffffffffffff\n      and\n      dup2\n      jump\t// out\n        /* \"WandInstruments.sol\":13094:13218  function setDaysUsedInFactors(uint256 numDays) public onlyOwner{  \r... */\n    tag_231:\n        /* \"Ownable.sol\":1252:1264  _msgSender() */\n      tag_500\n        /* \"Ownable.sol\":1252:1262  _msgSender */\n      tag_248\n        /* \"Ownable.sol\":1252:1264  _msgSender() */\n      jump\t// in\n    tag_500:\n        /* \"Ownable.sol\":1241:1264  owner() == _msgSender() */\n      0xffffffffffffffffffffffffffffffffffffffff\n      and\n        /* \"Ownable.sol\":1241:1248  owner() */\n      tag_501\n        /* \"Ownable.sol\":1241:1246  owner */\n      tag_158\n        /* \"Ownable.sol\":1241:1248  owner() */\n      jump\t// in\n    tag_501:\n        /* \"Ownable.sol\":1241:1264  owner() == _msgSender() */\n      0xffffffffffffffffffffffffffffffffffffffff\n      and\n      eq\n        /* \"Ownable.sol\":1233:1301  require(owner() == _msgSender(), \"Ownable: caller is not the owner\") */\n      tag_502\n      jumpi\n      mload(0x40)\n      0x08c379a000000000000000000000000000000000000000000000000000000000\n      dup2\n      mstore\n      0x04\n      add\n      tag_503\n      swap1\n      tag_252\n      jump\t// in\n    tag_503:\n      mload(0x40)\n      dup1\n      swap2\n      sub\n      swap1\n      revert\n    tag_502:\n        /* \"WandInstruments.sol\":13200:13205  86400 */\n      0x015180\n        /* \"WandInstruments.sol\":13190:13197  numDays */\n      dup2\n        /* \"WandInstruments.sol\":13190:13205  numDays * 86400 */\n      tag_505\n      swap2\n      swap1\n      tag_330\n      jump\t// in\n    tag_505:\n        /* \"WandInstruments.sol\":13170:13187  daysInCalculation */\n      0x0e\n        /* \"WandInstruments.sol\":13170:13205  daysInCalculation = numDays * 86400 */\n      dup2\n      swap1\n      sstore\n      pop\n        /* \"WandInstruments.sol\":13094:13218  function setDaysUsedInFactors(uint256 numDays) public onlyOwner{  \r... */\n      pop\n      jump\t// out\n        /* \"WandInstruments.sol\":4484:4656  function decMul18(uint x, uint y) internal pure returns (uint decProd) {\r... */\n    tag_245:\n        /* \"WandInstruments.sol\":4541:4553  uint decProd */\n      0x00\n        /* \"WandInstruments.sol\":4566:4578  uint prod_xy */\n      dup1\n        /* \"WandInstruments.sol\":4581:4590  mul(x, y) */\n      tag_507\n        /* \"WandInstruments.sol\":4585:4586  x */\n      dup5\n        /* \"WandInstruments.sol\":4588:4589  y */\n      dup5\n        /* \"WandInstruments.sol\":4581:4584  mul */\n      tag_508\n        /* \"WandInstruments.sol\":4581:4590  mul(x, y) */\n      jump\t// in\n    tag_507:\n        /* \"WandInstruments.sol\":4566:4590  uint prod_xy = mul(x, y) */\n      swap1\n      pop\n        /* \"WandInstruments.sol\":370:376  10**18 */\n      0x0de0b6b3a7640000\n        /* \"WandInstruments.sol\":4611:4637  add(prod_xy, DECIMALS / 2) */\n      tag_509\n        /* \"WandInstruments.sol\":4615:4622  prod_xy */\n      dup3\n        /* \"WandInstruments.sol\":4635:4636  2 */\n      0x02\n        /* \"WandInstruments.sol\":370:376  10**18 */\n      0x0de0b6b3a7640000\n        /* \"WandInstruments.sol\":4624:4636  DECIMALS / 2 */\n      tag_510\n      swap2\n      swap1\n      tag_276\n      jump\t// in\n    tag_510:\n        /* \"WandInstruments.sol\":4611:4614  add */\n      tag_511\n        /* \"WandInstruments.sol\":4611:4637  add(prod_xy, DECIMALS / 2) */\n      jump\t// in\n    tag_509:\n        /* \"WandInstruments.sol\":4611:4648  add(prod_xy, DECIMALS / 2) / DECIMALS */\n      tag_512\n      swap2\n      swap1\n      tag_276\n      jump\t// in\n    tag_512:\n        /* \"WandInstruments.sol\":4601:4648  decProd = add(prod_xy, DECIMALS / 2) / DECIMALS */\n      swap2\n      pop\n        /* \"WandInstruments.sol\":4555:4656  {\r... */\n      pop\n        /* \"WandInstruments.sol\":4484:4656  function decMul18(uint x, uint y) internal pure returns (uint decProd) {\r... */\n      swap3\n      swap2\n      pop\n      pop\n      jump\t// out\n        /* \"Context.sol\":640:736  function _msgSender() internal view virtual returns (address) {... */\n    tag_248:\n        /* \"Context.sol\":693:700  address */\n      0x00\n        /* \"Context.sol\":719:729  msg.sender */\n      caller\n        /* \"Context.sol\":712:729  return msg.sender */\n      swap1\n      pop\n        /* \"Context.sol\":640:736  function _msgSender() internal view virtual returns (address) {... */\n      swap1\n      jump\t// out\n        /* \"WandInstruments.sol\":4664:4845  function decDiv18(uint x, uint y) internal pure returns (uint decQuotient) {\r... */\n    tag_294:\n        /* \"WandInstruments.sol\":4721:4737  uint decQuotient */\n      0x00\n        /* \"WandInstruments.sol\":4750:4766  uint prod_xTEN18 */\n      dup1\n        /* \"WandInstruments.sol\":4769:4785  mul(x, DECIMALS) */\n      tag_515\n        /* \"WandInstruments.sol\":4773:4774  x */\n      dup5\n        /* \"WandInstruments.sol\":370:376  10**18 */\n      0x0de0b6b3a7640000\n        /* \"WandInstruments.sol\":4769:4772  mul */\n      tag_508\n        /* \"WandInstruments.sol\":4769:4785  mul(x, DECIMALS) */\n      jump\t// in\n    tag_515:\n        /* \"WandInstruments.sol\":4750:4785  uint prod_xTEN18 = mul(x, DECIMALS) */\n      swap1\n      pop\n        /* \"WandInstruments.sol\":4836:4837  y */\n      dup3\n        /* \"WandInstruments.sol\":4810:4833  add(prod_xTEN18, y / 2) */\n      tag_516\n        /* \"WandInstruments.sol\":4814:4825  prod_xTEN18 */\n      dup3\n        /* \"WandInstruments.sol\":4831:4832  2 */\n      0x02\n        /* \"WandInstruments.sol\":4827:4828  y */\n      dup7\n        /* \"WandInstruments.sol\":4827:4832  y / 2 */\n      tag_517\n      swap2\n      swap1\n      tag_276\n      jump\t// in\n    tag_517:\n        /* \"WandInstruments.sol\":4810:4813  add */\n      tag_511\n        /* \"WandInstruments.sol\":4810:4833  add(prod_xTEN18, y / 2) */\n      jump\t// in\n    tag_516:\n        /* \"WandInstruments.sol\":4810:4837  add(prod_xTEN18, y / 2) / y */\n      tag_518\n      swap2\n      swap1\n      tag_276\n      jump\t// in\n    tag_518:\n        /* \"WandInstruments.sol\":4796:4837  decQuotient = add(prod_xTEN18, y / 2) / y */\n      swap2\n      pop\n        /* \"WandInstruments.sol\":4739:4845  {\r... */\n      pop\n        /* \"WandInstruments.sol\":4664:4845  function decDiv18(uint x, uint y) internal pure returns (uint decQuotient) {\r... */\n      swap3\n      swap2\n      pop\n      pop\n      jump\t// out\n        /* \"WandInstruments.sol\":15821:16083  function _safeTransferFrom(\r... */\n    tag_322:\n        /* \"WandInstruments.sol\":15969:15978  bool sent */\n      0x00\n        /* \"WandInstruments.sol\":15981:15986  token */\n      dup5\n        /* \"WandInstruments.sol\":15981:15999  token.transferFrom */\n      0xffffffffffffffffffffffffffffffffffffffff\n      and\n      0x23b872dd\n        /* \"WandInstruments.sol\":16000:16006  sender */\n      dup6\n        /* \"WandInstruments.sol\":16008:16017  recipient */\n      dup6\n        /* \"WandInstruments.sol\":16019:16025  amount */\n      dup6\n        /* \"WandInstruments.sol\":15981:16026  token.transferFrom(sender, recipient, amount) */\n      mload(0x40)\n      dup5\n      0xffffffff\n      and\n      0xe0\n      shl\n      dup2\n      mstore\n      0x04\n      add\n      tag_520\n      swap4\n      swap3\n      swap2\n      swap1\n      tag_521\n      jump\t// in\n    tag_520:\n      0x20\n      mload(0x40)\n      dup1\n      dup4\n      sub\n      dup2\n      0x00\n      dup8\n      dup1\n      extcodesize\n      iszero\n      dup1\n      iszero\n      tag_522\n      jumpi\n      0x00\n      dup1\n      revert\n    tag_522:\n      pop\n      gas\n      call\n      iszero\n      dup1\n      iszero\n      tag_524\n      jumpi\n      returndatasize\n      0x00\n      dup1\n      returndatacopy\n      revert(0x00, returndatasize)\n    tag_524:\n      pop\n      pop\n      pop\n      pop\n      mload(0x40)\n      returndatasize\n      not(0x1f)\n      0x1f\n      dup3\n      add\n      and\n      dup3\n      add\n      dup1\n      0x40\n      mstore\n      pop\n      dup2\n      add\n      swap1\n      tag_525\n      swap2\n      swap1\n      tag_463\n      jump\t// in\n    tag_525:\n        /* \"WandInstruments.sol\":15969:16026  bool sent = token.transferFrom(sender, recipient, amount) */\n      swap1\n      pop\n        /* \"WandInstruments.sol\":16045:16049  sent */\n      dup1\n        /* \"WandInstruments.sol\":16037:16075  require(sent, \"Token transfer failed\") */\n      tag_526\n      jumpi\n      mload(0x40)\n      0x08c379a000000000000000000000000000000000000000000000000000000000\n      dup2\n      mstore\n      0x04\n      add\n      tag_527\n      swap1\n      tag_528\n      jump\t// in\n    tag_527:\n      mload(0x40)\n      dup1\n      swap2\n      sub\n      swap1\n      revert\n    tag_526:\n        /* \"WandInstruments.sol\":15958:16083  {\r... */\n      pop\n        /* \"WandInstruments.sol\":15821:16083  function _safeTransferFrom(\r... */\n      pop\n      pop\n      pop\n      pop\n      jump\t// out\n        /* \"Ownable.sol\":2263:2450  function _transferOwnership(address newOwner) internal virtual {... */\n    tag_356:\n        /* \"Ownable.sol\":2336:2352  address oldOwner */\n      0x00\n        /* \"Ownable.sol\":2355:2361  _owner */\n      0x01\n      0x00\n      swap1\n      sload\n      swap1\n      0x0100\n      exp\n      swap1\n      div\n      0xffffffffffffffffffffffffffffffffffffffff\n      and\n        /* \"Ownable.sol\":2336:2361  address oldOwner = _owner */\n      swap1\n      pop\n        /* \"Ownable.sol\":2380:2388  newOwner */\n      dup2\n        /* \"Ownable.sol\":2371:2377  _owner */\n      0x01\n      0x00\n        /* \"Ownable.sol\":2371:2388  _owner = newOwner */\n      0x0100\n      exp\n      dup2\n      sload\n      dup2\n      0xffffffffffffffffffffffffffffffffffffffff\n      mul\n      not\n      and\n      swap1\n      dup4\n      0xffffffffffffffffffffffffffffffffffffffff\n      and\n      mul\n      or\n      swap1\n      sstore\n      pop\n        /* \"Ownable.sol\":2434:2442  newOwner */\n      dup2\n        /* \"Ownable.sol\":2403:2443  OwnershipTransferred(oldOwner, newOwner) */\n      0xffffffffffffffffffffffffffffffffffffffff\n      and\n        /* \"Ownable.sol\":2424:2432  oldOwner */\n      dup2\n        /* \"Ownable.sol\":2403:2443  OwnershipTransferred(oldOwner, newOwner) */\n      0xffffffffffffffffffffffffffffffffffffffff\n      and\n      0x8be0079c531659141344cd1fd0a4f28419497f9722a3daafe3b4186f6b6457e0\n      mload(0x40)\n      mload(0x40)\n      dup1\n      swap2\n      sub\n      swap1\n      log3\n        /* \"Ownable.sol\":2326:2450  {... */\n      pop\n        /* \"Ownable.sol\":2263:2450  function _transferOwnership(address newOwner) internal virtual {... */\n      pop\n      jump\t// out\n        /* \"WandInstruments.sol\":3669:3911  function mul(uint256 a, uint256 b) internal pure returns (uint256) {\r... */\n    tag_508:\n        /* \"WandInstruments.sol\":3727:3734  uint256 */\n      0x00\n        /* \"WandInstruments.sol\":3756:3757  0 */\n      dup1\n        /* \"WandInstruments.sol\":3751:3752  a */\n      dup4\n        /* \"WandInstruments.sol\":3751:3757  a == 0 */\n      eq\n        /* \"WandInstruments.sol\":3747:3790  if (a == 0) {\r... */\n      iszero\n      tag_531\n      jumpi\n        /* \"WandInstruments.sol\":3777:3778  0 */\n      0x00\n        /* \"WandInstruments.sol\":3770:3778  return 0 */\n      swap1\n      pop\n      jump(tag_530)\n        /* \"WandInstruments.sol\":3747:3790  if (a == 0) {\r... */\n    tag_531:\n        /* \"WandInstruments.sol\":3800:3809  uint256 c */\n      0x00\n        /* \"WandInstruments.sol\":3816:3817  b */\n      dup3\n        /* \"WandInstruments.sol\":3812:3813  a */\n      dup5\n        /* \"WandInstruments.sol\":3812:3817  a * b */\n      tag_532\n      swap2\n      swap1\n      tag_330\n      jump\t// in\n    tag_532:\n        /* \"WandInstruments.sol\":3800:3817  uint256 c = a * b */\n      swap1\n      pop\n        /* \"WandInstruments.sol\":3845:3846  b */\n      dup3\n        /* \"WandInstruments.sol\":3840:3841  a */\n      dup5\n        /* \"WandInstruments.sol\":3836:3837  c */\n      dup3\n        /* \"WandInstruments.sol\":3836:3841  c / a */\n      tag_533\n      swap2\n      swap1\n      tag_276\n      jump\t// in\n    tag_533:\n        /* \"WandInstruments.sol\":3836:3846  c / a == b */\n      eq\n        /* \"WandInstruments.sol\":3828:3884  require(c / a == b, \"uint overflow from multiplication\") */\n      tag_534\n      jumpi\n      mload(0x40)\n      0x08c379a000000000000000000000000000000000000000000000000000000000\n      dup2\n      mstore\n      0x04\n      add\n      tag_535\n      swap1\n      tag_536\n      jump\t// in\n    tag_535:\n      mload(0x40)\n      dup1\n      swap2\n      sub\n      swap1\n      revert\n    tag_534:\n        /* \"WandInstruments.sol\":3902:3903  c */\n      dup1\n        /* \"WandInstruments.sol\":3895:3903  return c */\n      swap2\n      pop\n      pop\n        /* \"WandInstruments.sol\":3669:3911  function mul(uint256 a, uint256 b) internal pure returns (uint256) {\r... */\n    tag_530:\n      swap3\n      swap2\n      pop\n      pop\n      jump\t// out\n        /* \"WandInstruments.sol\":4287:4472  function add(uint256 a, uint256 b) internal pure returns (uint256) {\r... */\n    tag_511:\n        /* \"WandInstruments.sol\":4345:4352  uint256 */\n      0x00\n        /* \"WandInstruments.sol\":4365:4374  uint256 c */\n      dup1\n        /* \"WandInstruments.sol\":4381:4382  b */\n      dup3\n        /* \"WandInstruments.sol\":4377:4378  a */\n      dup5\n        /* \"WandInstruments.sol\":4377:4382  a + b */\n      tag_538\n      swap2\n      swap1\n      tag_244\n      jump\t// in\n    tag_538:\n        /* \"WandInstruments.sol\":4365:4382  uint256 c = a + b */\n      swap1\n      pop\n        /* \"WandInstruments.sol\":4406:4407  a */\n      dup4\n        /* \"WandInstruments.sol\":4401:4402  c */\n      dup2\n        /* \"WandInstruments.sol\":4401:4407  c >= a */\n      lt\n      iszero\n        /* \"WandInstruments.sol\":4393:4445  require(c >= a, \"uint overflow from multiplication\") */\n      tag_539\n      jumpi\n      mload(0x40)\n      0x08c379a000000000000000000000000000000000000000000000000000000000\n      dup2\n      mstore\n      0x04\n      add\n      tag_540\n      swap1\n      tag_536\n      jump\t// in\n    tag_540:\n      mload(0x40)\n      dup1\n      swap2\n      sub\n      swap1\n      revert\n    tag_539:\n        /* \"WandInstruments.sol\":4463:4464  c */\n      dup1\n        /* \"WandInstruments.sol\":4456:4464  return c */\n      swap2\n      pop\n      pop\n        /* \"WandInstruments.sol\":4287:4472  function add(uint256 a, uint256 b) internal pure returns (uint256) {\r... */\n      swap3\n      swap2\n      pop\n      pop\n      jump\t// out\n        /* \"#utility.yul\":7:419   */\n    tag_542:\n        /* \"#utility.yul\":85:90   */\n      0x00\n        /* \"#utility.yul\":110:176   */\n      tag_544\n        /* \"#utility.yul\":126:175   */\n      tag_545\n        /* \"#utility.yul\":168:174   */\n      dup5\n        /* \"#utility.yul\":126:175   */\n      tag_546\n      jump\t// in\n    tag_545:\n        /* \"#utility.yul\":110:176   */\n      tag_547\n      jump\t// in\n    tag_544:\n        /* \"#utility.yul\":101:176   */\n      swap1\n      pop\n        /* \"#utility.yul\":199:205   */\n      dup3\n        /* \"#utility.yul\":192:197   */\n      dup2\n        /* \"#utility.yul\":185:206   */\n      mstore\n        /* \"#utility.yul\":237:241   */\n      0x20\n        /* \"#utility.yul\":230:235   */\n      dup2\n        /* \"#utility.yul\":226:242   */\n      add\n        /* \"#utility.yul\":275:278   */\n      dup5\n        /* \"#utility.yul\":266:272   */\n      dup5\n        /* \"#utility.yul\":261:264   */\n      dup5\n        /* \"#utility.yul\":257:273   */\n      add\n        /* \"#utility.yul\":254:279   */\n      gt\n        /* \"#utility.yul\":251:363   */\n      iszero\n      tag_548\n      jumpi\n        /* \"#utility.yul\":282:361   */\n      tag_549\n      tag_550\n      jump\t// in\n    tag_549:\n        /* \"#utility.yul\":251:363   */\n    tag_548:\n        /* \"#utility.yul\":372:413   */\n      tag_551\n        /* \"#utility.yul\":406:412   */\n      dup5\n        /* \"#utility.yul\":401:404   */\n      dup3\n        /* \"#utility.yul\":396:399   */\n      dup6\n        /* \"#utility.yul\":372:413   */\n      tag_552\n      jump\t// in\n    tag_551:\n        /* \"#utility.yul\":91:419   */\n      pop\n        /* \"#utility.yul\":7:419   */\n      swap4\n      swap3\n      pop\n      pop\n      pop\n      jump\t// out\n        /* \"#utility.yul\":425:564   */\n    tag_553:\n        /* \"#utility.yul\":471:476   */\n      0x00\n        /* \"#utility.yul\":509:515   */\n      dup2\n        /* \"#utility.yul\":496:516   */\n      calldataload\n        /* \"#utility.yul\":487:516   */\n      swap1\n      pop\n        /* \"#utility.yul\":525:558   */\n      tag_555\n        /* \"#utility.yul\":552:557   */\n      dup2\n        /* \"#utility.yul\":525:558   */\n      tag_556\n      jump\t// in\n    tag_555:\n        /* \"#utility.yul\":425:564   */\n      swap3\n      swap2\n      pop\n      pop\n      jump\t// out\n        /* \"#utility.yul\":570:707   */\n    tag_557:\n        /* \"#utility.yul\":624:629   */\n      0x00\n        /* \"#utility.yul\":655:661   */\n      dup2\n        /* \"#utility.yul\":649:662   */\n      mload\n        /* \"#utility.yul\":640:662   */\n      swap1\n      pop\n        /* \"#utility.yul\":671:701   */\n      tag_559\n        /* \"#utility.yul\":695:700   */\n      dup2\n        /* \"#utility.yul\":671:701   */\n      tag_560\n      jump\t// in\n    tag_559:\n        /* \"#utility.yul\":570:707   */\n      swap3\n      swap2\n      pop\n      pop\n      jump\t// out\n        /* \"#utility.yul\":727:1067   */\n    tag_561:\n        /* \"#utility.yul\":783:788   */\n      0x00\n        /* \"#utility.yul\":832:835   */\n      dup3\n        /* \"#utility.yul\":825:829   */\n      0x1f\n        /* \"#utility.yul\":817:823   */\n      dup4\n        /* \"#utility.yul\":813:830   */\n      add\n        /* \"#utility.yul\":809:836   */\n      slt\n        /* \"#utility.yul\":799:921   */\n      tag_563\n      jumpi\n        /* \"#utility.yul\":840:919   */\n      tag_564\n      tag_565\n      jump\t// in\n    tag_564:\n        /* \"#utility.yul\":799:921   */\n    tag_563:\n        /* \"#utility.yul\":957:963   */\n      dup2\n        /* \"#utility.yul\":944:964   */\n      calldataload\n        /* \"#utility.yul\":982:1061   */\n      tag_566\n        /* \"#utility.yul\":1057:1060   */\n      dup5\n        /* \"#utility.yul\":1049:1055   */\n      dup3\n        /* \"#utility.yul\":1042:1046   */\n      0x20\n        /* \"#utility.yul\":1034:1040   */\n      dup7\n        /* \"#utility.yul\":1030:1047   */\n      add\n        /* \"#utility.yul\":982:1061   */\n      tag_542\n      jump\t// in\n    tag_566:\n        /* \"#utility.yul\":973:1061   */\n      swap2\n      pop\n        /* \"#utility.yul\":789:1067   */\n      pop\n        /* \"#utility.yul\":727:1067   */\n      swap3\n      swap2\n      pop\n      pop\n      jump\t// out\n        /* \"#utility.yul\":1073:1212   */\n    tag_567:\n        /* \"#utility.yul\":1119:1124   */\n      0x00\n        /* \"#utility.yul\":1157:1163   */\n      dup2\n        /* \"#utility.yul\":1144:1164   */\n      calldataload\n        /* \"#utility.yul\":1135:1164   */\n      swap1\n      pop\n        /* \"#utility.yul\":1173:1206   */\n      tag_569\n        /* \"#utility.yul\":1200:1205   */\n      dup2\n        /* \"#utility.yul\":1173:1206   */\n      tag_570\n      jump\t// in\n    tag_569:\n        /* \"#utility.yul\":1073:1212   */\n      swap3\n      swap2\n      pop\n      pop\n      jump\t// out\n        /* \"#utility.yul\":1218:1361   */\n    tag_571:\n        /* \"#utility.yul\":1275:1280   */\n      0x00\n        /* \"#utility.yul\":1306:1312   */\n      dup2\n        /* \"#utility.yul\":1300:1313   */\n      mload\n        /* \"#utility.yul\":1291:1313   */\n      swap1\n      pop\n        /* \"#utility.yul\":1322:1355   */\n      tag_573\n        /* \"#utility.yul\":1349:1354   */\n      dup2\n        /* \"#utility.yul\":1322:1355   */\n      tag_570\n      jump\t// in\n    tag_573:\n        /* \"#utility.yul\":1218:1361   */\n      swap3\n      swap2\n      pop\n      pop\n      jump\t// out\n        /* \"#utility.yul\":1367:1696   */\n    tag_75:\n        /* \"#utility.yul\":1426:1432   */\n      0x00\n        /* \"#utility.yul\":1475:1477   */\n      0x20\n        /* \"#utility.yul\":1463:1472   */\n      dup3\n        /* \"#utility.yul\":1454:1461   */\n      dup5\n        /* \"#utility.yul\":1450:1473   */\n      sub\n        /* \"#utility.yul\":1446:1478   */\n      slt\n        /* \"#utility.yul\":1443:1562   */\n      iszero\n      tag_575\n      jumpi\n        /* \"#utility.yul\":1481:1560   */\n      tag_576\n      tag_577\n      jump\t// in\n    tag_576:\n        /* \"#utility.yul\":1443:1562   */\n    tag_575:\n        /* \"#utility.yul\":1601:1602   */\n      0x00\n        /* \"#utility.yul\":1626:1679   */\n      tag_578\n        /* \"#utility.yul\":1671:1678   */\n      dup5\n        /* \"#utility.yul\":1662:1668   */\n      dup3\n        /* \"#utility.yul\":1651:1660   */\n      dup6\n        /* \"#utility.yul\":1647:1669   */\n      add\n        /* \"#utility.yul\":1626:1679   */\n      tag_553\n      jump\t// in\n    tag_578:\n        /* \"#utility.yul\":1616:1679   */\n      swap2\n      pop\n        /* \"#utility.yul\":1572:1689   */\n      pop\n        /* \"#utility.yul\":1367:1696   */\n      swap3\n      swap2\n      pop\n      pop\n      jump\t// out\n        /* \"#utility.yul\":1702:2356   */\n    tag_181:\n        /* \"#utility.yul\":1780:1786   */\n      0x00\n        /* \"#utility.yul\":1788:1794   */\n      dup1\n        /* \"#utility.yul\":1837:1839   */\n      0x40\n        /* \"#utility.yul\":1825:1834   */\n      dup4\n        /* \"#utility.yul\":1816:1823   */\n      dup6\n        /* \"#utility.yul\":1812:1835   */\n      sub\n        /* \"#utility.yul\":1808:1840   */\n      slt\n        /* \"#utility.yul\":1805:1924   */\n      iszero\n      tag_580\n      jumpi\n        /* \"#utility.yul\":1843:1922   */\n      tag_581\n      tag_577\n      jump\t// in\n    tag_581:\n        /* \"#utility.yul\":1805:1924   */\n    tag_580:\n        /* \"#utility.yul\":1963:1964   */\n      0x00\n        /* \"#utility.yul\":1988:2041   */\n      tag_582\n        /* \"#utility.yul\":2033:2040   */\n      dup6\n        /* \"#utility.yul\":2024:2030   */\n      dup3\n        /* \"#utility.yul\":2013:2022   */\n      dup7\n        /* \"#utility.yul\":2009:2031   */\n      add\n        /* \"#utility.yul\":1988:2041   */\n      tag_553\n      jump\t// in\n    tag_582:\n        /* \"#utility.yul\":1978:2041   */\n      swap3\n      pop\n        /* \"#utility.yul\":1934:2051   */\n      pop\n        /* \"#utility.yul\":2118:2120   */\n      0x20\n        /* \"#utility.yul\":2107:2116   */\n      dup4\n        /* \"#utility.yul\":2103:2121   */\n      add\n        /* \"#utility.yul\":2090:2122   */\n      calldataload\n        /* \"#utility.yul\":2149:2167   */\n      0xffffffffffffffff\n        /* \"#utility.yul\":2141:2147   */\n      dup2\n        /* \"#utility.yul\":2138:2168   */\n      gt\n        /* \"#utility.yul\":2135:2252   */\n      iszero\n      tag_583\n      jumpi\n        /* \"#utility.yul\":2171:2250   */\n      tag_584\n      tag_585\n      jump\t// in\n    tag_584:\n        /* \"#utility.yul\":2135:2252   */\n    tag_583:\n        /* \"#utility.yul\":2276:2339   */\n      tag_586\n        /* \"#utility.yul\":2331:2338   */\n      dup6\n        /* \"#utility.yul\":2322:2328   */\n      dup3\n        /* \"#utility.yul\":2311:2320   */\n      dup7\n        /* \"#utility.yul\":2307:2329   */\n      add\n        /* \"#utility.yul\":2276:2339   */\n      tag_561\n      jump\t// in\n    tag_586:\n        /* \"#utility.yul\":2266:2339   */\n      swap2\n      pop\n        /* \"#utility.yul\":2061:2349   */\n      pop\n        /* \"#utility.yul\":1702:2356   */\n      swap3\n      pop\n      swap3\n      swap1\n      pop\n      jump\t// out\n        /* \"#utility.yul\":2362:2707   */\n    tag_463:\n        /* \"#utility.yul\":2429:2435   */\n      0x00\n        /* \"#utility.yul\":2478:2480   */\n      0x20\n        /* \"#utility.yul\":2466:2475   */\n      dup3\n        /* \"#utility.yul\":2457:2464   */\n      dup5\n        /* \"#utility.yul\":2453:2476   */\n      sub\n        /* \"#utility.yul\":2449:2481   */\n      slt\n        /* \"#utility.yul\":2446:2565   */\n      iszero\n      tag_588\n      jumpi\n        /* \"#utility.yul\":2484:2563   */\n      tag_589\n      tag_577\n      jump\t// in\n    tag_589:\n        /* \"#utility.yul\":2446:2565   */\n    tag_588:\n        /* \"#utility.yul\":2604:2605   */\n      0x00\n        /* \"#utility.yul\":2629:2690   */\n      tag_590\n        /* \"#utility.yul\":2682:2689   */\n      dup5\n        /* \"#utility.yul\":2673:2679   */\n      dup3\n        /* \"#utility.yul\":2662:2671   */\n      dup6\n        /* \"#utility.yul\":2658:2680   */\n      add\n        /* \"#utility.yul\":2629:2690   */\n      tag_557\n      jump\t// in\n    tag_590:\n        /* \"#utility.yul\":2619:2690   */\n      swap2\n      pop\n        /* \"#utility.yul\":2575:2700   */\n      pop\n        /* \"#utility.yul\":2362:2707   */\n      swap3\n      swap2\n      pop\n      pop\n      jump\t// out\n        /* \"#utility.yul\":2713:3222   */\n    tag_171:\n        /* \"#utility.yul\":2782:2788   */\n      0x00\n        /* \"#utility.yul\":2831:2833   */\n      0x20\n        /* \"#utility.yul\":2819:2828   */\n      dup3\n        /* \"#utility.yul\":2810:2817   */\n      dup5\n        /* \"#utility.yul\":2806:2829   */\n      sub\n        /* \"#utility.yul\":2802:2834   */\n      slt\n        /* \"#utility.yul\":2799:2918   */\n      iszero\n      tag_592\n      jumpi\n        /* \"#utility.yul\":2837:2916   */\n      tag_593\n      tag_577\n      jump\t// in\n    tag_593:\n        /* \"#utility.yul\":2799:2918   */\n    tag_592:\n        /* \"#utility.yul\":2985:2986   */\n      0x00\n        /* \"#utility.yul\":2974:2983   */\n      dup3\n        /* \"#utility.yul\":2970:2987   */\n      add\n        /* \"#utility.yul\":2957:2988   */\n      calldataload\n        /* \"#utility.yul\":3015:3033   */\n      0xffffffffffffffff\n        /* \"#utility.yul\":3007:3013   */\n      dup2\n        /* \"#utility.yul\":3004:3034   */\n      gt\n        /* \"#utility.yul\":3001:3118   */\n      iszero\n      tag_594\n      jumpi\n        /* \"#utility.yul\":3037:3116   */\n      tag_595\n      tag_585\n      jump\t// in\n    tag_595:\n        /* \"#utility.yul\":3001:3118   */\n    tag_594:\n        /* \"#utility.yul\":3142:3205   */\n      tag_596\n        /* \"#utility.yul\":3197:3204   */\n      dup5\n        /* \"#utility.yul\":3188:3194   */\n      dup3\n        /* \"#utility.yul\":3177:3186   */\n      dup6\n        /* \"#utility.yul\":3173:3195   */\n      add\n        /* \"#utility.yul\":3142:3205   */\n      tag_561\n      jump\t// in\n    tag_596:\n        /* \"#utility.yul\":3132:3205   */\n      swap2\n      pop\n        /* \"#utility.yul\":2928:3215   */\n      pop\n        /* \"#utility.yul\":2713:3222   */\n      swap3\n      swap2\n      pop\n      pop\n      jump\t// out\n        /* \"#utility.yul\":3228:4027   */\n    tag_210:\n        /* \"#utility.yul\":3315:3321   */\n      0x00\n        /* \"#utility.yul\":3323:3329   */\n      dup1\n        /* \"#utility.yul\":3331:3337   */\n      0x00\n        /* \"#utility.yul\":3380:3382   */\n      0x60\n        /* \"#utility.yul\":3368:3377   */\n      dup5\n        /* \"#utility.yul\":3359:3366   */\n      dup7\n        /* \"#utility.yul\":3355:3378   */\n      sub\n        /* \"#utility.yul\":3351:3383   */\n      slt\n        /* \"#utility.yul\":3348:3467   */\n      iszero\n      tag_598\n      jumpi\n        /* \"#utility.yul\":3386:3465   */\n      tag_599\n      tag_577\n      jump\t// in\n    tag_599:\n        /* \"#utility.yul\":3348:3467   */\n    tag_598:\n        /* \"#utility.yul\":3534:3535   */\n      0x00\n        /* \"#utility.yul\":3523:3532   */\n      dup5\n        /* \"#utility.yul\":3519:3536   */\n      add\n        /* \"#utility.yul\":3506:3537   */\n      calldataload\n        /* \"#utility.yul\":3564:3582   */\n      0xffffffffffffffff\n        /* \"#utility.yul\":3556:3562   */\n      dup2\n        /* \"#utility.yul\":3553:3583   */\n      gt\n        /* \"#utility.yul\":3550:3667   */\n      iszero\n      tag_600\n      jumpi\n        /* \"#utility.yul\":3586:3665   */\n      tag_601\n      tag_585\n      jump\t// in\n    tag_601:\n        /* \"#utility.yul\":3550:3667   */\n    tag_600:\n        /* \"#utility.yul\":3691:3754   */\n      tag_602\n        /* \"#utility.yul\":3746:3753   */\n      dup7\n        /* \"#utility.yul\":3737:3743   */\n      dup3\n        /* \"#utility.yul\":3726:3735   */\n      dup8\n        /* \"#utility.yul\":3722:3744   */\n      add\n        /* \"#utility.yul\":3691:3754   */\n      tag_561\n      jump\t// in\n    tag_602:\n        /* \"#utility.yul\":3681:3754   */\n      swap4\n      pop\n        /* \"#utility.yul\":3477:3764   */\n      pop\n        /* \"#utility.yul\":3803:3805   */\n      0x20\n        /* \"#utility.yul\":3829:3882   */\n      tag_603\n        /* \"#utility.yul\":3874:3881   */\n      dup7\n        /* \"#utility.yul\":3865:3871   */\n      dup3\n        /* \"#utility.yul\":3854:3863   */\n      dup8\n        /* \"#utility.yul\":3850:3872   */\n      add\n        /* \"#utility.yul\":3829:3882   */\n      tag_553\n      jump\t// in\n    tag_603:\n        /* \"#utility.yul\":3819:3882   */\n      swap3\n      pop\n        /* \"#utility.yul\":3774:3892   */\n      pop\n        /* \"#utility.yul\":3931:3933   */\n      0x40\n        /* \"#utility.yul\":3957:4010   */\n      tag_604\n        /* \"#utility.yul\":4002:4009   */\n      dup7\n        /* \"#utility.yul\":3993:3999   */\n      dup3\n        /* \"#utility.yul\":3982:3991   */\n      dup8\n        /* \"#utility.yul\":3978:4000   */\n      add\n        /* \"#utility.yul\":3957:4010   */\n      tag_567\n      jump\t// in\n    tag_604:\n        /* \"#utility.yul\":3947:4010   */\n      swap2\n      pop\n        /* \"#utility.yul\":3902:4020   */\n      pop\n        /* \"#utility.yul\":3228:4027   */\n      swap3\n      pop\n      swap3\n      pop\n      swap3\n      jump\t// out\n        /* \"#utility.yul\":4033:4362   */\n    tag_82:\n        /* \"#utility.yul\":4092:4098   */\n      0x00\n        /* \"#utility.yul\":4141:4143   */\n      0x20\n        /* \"#utility.yul\":4129:4138   */\n      dup3\n        /* \"#utility.yul\":4120:4127   */\n      dup5\n        /* \"#utility.yul\":4116:4139   */\n      sub\n        /* \"#utility.yul\":4112:4144   */\n      slt\n        /* \"#utility.yul\":4109:4228   */\n      iszero\n      tag_606\n      jumpi\n        /* \"#utility.yul\":4147:4226   */\n      tag_607\n      tag_577\n      jump\t// in\n    tag_607:\n        /* \"#utility.yul\":4109:4228   */\n    tag_606:\n        /* \"#utility.yul\":4267:4268   */\n      0x00\n        /* \"#utility.yul\":4292:4345   */\n      tag_608\n        /* \"#utility.yul\":4337:4344   */\n      dup5\n        /* \"#utility.yul\":4328:4334   */\n      dup3\n        /* \"#utility.yul\":4317:4326   */\n      dup6\n        /* \"#utility.yul\":4313:4335   */\n      add\n        /* \"#utility.yul\":4292:4345   */\n      tag_567\n      jump\t// in\n    tag_608:\n        /* \"#utility.yul\":4282:4345   */\n      swap2\n      pop\n        /* \"#utility.yul\":4238:4355   */\n      pop\n        /* \"#utility.yul\":4033:4362   */\n      swap3\n      swap2\n      pop\n      pop\n      jump\t// out\n        /* \"#utility.yul\":4368:4719   */\n    tag_238:\n        /* \"#utility.yul\":4438:4444   */\n      0x00\n        /* \"#utility.yul\":4487:4489   */\n      0x20\n        /* \"#utility.yul\":4475:4484   */\n      dup3\n        /* \"#utility.yul\":4466:4473   */\n      dup5\n        /* \"#utility.yul\":4462:4485   */\n      sub\n        /* \"#utility.yul\":4458:4490   */\n      slt\n        /* \"#utility.yul\":4455:4574   */\n      iszero\n      tag_610\n      jumpi\n        /* \"#utility.yul\":4493:4572   */\n      tag_611\n      tag_577\n      jump\t// in\n    tag_611:\n        /* \"#utility.yul\":4455:4574   */\n    tag_610:\n        /* \"#utility.yul\":4613:4614   */\n      0x00\n        /* \"#utility.yul\":4638:4702   */\n      tag_612\n        /* \"#utility.yul\":4694:4701   */\n      dup5\n        /* \"#utility.yul\":4685:4691   */\n      dup3\n        /* \"#utility.yul\":4674:4683   */\n      dup6\n        /* \"#utility.yul\":4670:4692   */\n      add\n        /* \"#utility.yul\":4638:4702   */\n      tag_571\n      jump\t// in\n    tag_612:\n        /* \"#utility.yul\":4628:4702   */\n      swap2\n      pop\n        /* \"#utility.yul\":4584:4712   */\n      pop\n        /* \"#utility.yul\":4368:4719   */\n      swap3\n      swap2\n      pop\n      pop\n      jump\t// out\n        /* \"#utility.yul\":4725:5379   */\n    tag_154:\n        /* \"#utility.yul\":4803:4809   */\n      0x00\n        /* \"#utility.yul\":4811:4817   */\n      dup1\n        /* \"#utility.yul\":4860:4862   */\n      0x40\n        /* \"#utility.yul\":4848:4857   */\n      dup4\n        /* \"#utility.yul\":4839:4846   */\n      dup6\n        /* \"#utility.yul\":4835:4858   */\n      sub\n        /* \"#utility.yul\":4831:4863   */\n      slt\n        /* \"#utility.yul\":4828:4947   */\n      iszero\n      tag_614\n      jumpi\n        /* \"#utility.yul\":4866:4945   */\n      tag_615\n      tag_577\n      jump\t// in\n    tag_615:\n        /* \"#utility.yul\":4828:4947   */\n    tag_614:\n        /* \"#utility.yul\":4986:4987   */\n      0x00\n        /* \"#utility.yul\":5011:5064   */\n      tag_616\n        /* \"#utility.yul\":5056:5063   */\n      dup6\n        /* \"#utility.yul\":5047:5053   */\n      dup3\n        /* \"#utility.yul\":5036:5045   */\n      dup7\n        /* \"#utility.yul\":5032:5054   */\n      add\n        /* \"#utility.yul\":5011:5064   */\n      tag_567\n      jump\t// in\n    tag_616:\n        /* \"#utility.yul\":5001:5064   */\n      swap3\n      pop\n        /* \"#utility.yul\":4957:5074   */\n      pop\n        /* \"#utility.yul\":5141:5143   */\n      0x20\n        /* \"#utility.yul\":5130:5139   */\n      dup4\n        /* \"#utility.yul\":5126:5144   */\n      add\n        /* \"#utility.yul\":5113:5145   */\n      calldataload\n        /* \"#utility.yul\":5172:5190   */\n      0xffffffffffffffff\n        /* \"#utility.yul\":5164:5170   */\n      dup2\n        /* \"#utility.yul\":5161:5191   */\n      gt\n        /* \"#utility.yul\":5158:5275   */\n      iszero\n      tag_617\n      jumpi\n        /* \"#utility.yul\":5194:5273   */\n      tag_618\n      tag_585\n      jump\t// in\n    tag_618:\n        /* \"#utility.yul\":5158:5275   */\n    tag_617:\n        /* \"#utility.yul\":5299:5362   */\n      tag_619\n        /* \"#utility.yul\":5354:5361   */\n      dup6\n        /* \"#utility.yul\":5345:5351   */\n      dup3\n        /* \"#utility.yul\":5334:5343   */\n      dup7\n        /* \"#utility.yul\":5330:5352   */\n      add\n        /* \"#utility.yul\":5299:5362   */\n      tag_561\n      jump\t// in\n    tag_619:\n        /* \"#utility.yul\":5289:5362   */\n      swap2\n      pop\n        /* \"#utility.yul\":5084:5372   */\n      pop\n        /* \"#utility.yul\":4725:5379   */\n      swap3\n      pop\n      swap3\n      swap1\n      pop\n      jump\t// out\n        /* \"#utility.yul\":5385:6184   */\n    tag_193:\n        /* \"#utility.yul\":5472:5478   */\n      0x00\n        /* \"#utility.yul\":5480:5486   */\n      dup1\n        /* \"#utility.yul\":5488:5494   */\n      0x00\n        /* \"#utility.yul\":5537:5539   */\n      0x60\n        /* \"#utility.yul\":5525:5534   */\n      dup5\n        /* \"#utility.yul\":5516:5523   */\n      dup7\n        /* \"#utility.yul\":5512:5535   */\n      sub\n        /* \"#utility.yul\":5508:5540   */\n      slt\n        /* \"#utility.yul\":5505:5624   */\n      iszero\n      tag_621\n      jumpi\n        /* \"#utility.yul\":5543:5622   */\n      tag_622\n      tag_577\n      jump\t// in\n    tag_622:\n        /* \"#utility.yul\":5505:5624   */\n    tag_621:\n        /* \"#utility.yul\":5663:5664   */\n      0x00\n        /* \"#utility.yul\":5688:5741   */\n      tag_623\n        /* \"#utility.yul\":5733:5740   */\n      dup7\n        /* \"#utility.yul\":5724:5730   */\n      dup3\n        /* \"#utility.yul\":5713:5722   */\n      dup8\n        /* \"#utility.yul\":5709:5731   */\n      add\n        /* \"#utility.yul\":5688:5741   */\n      tag_567\n      jump\t// in\n    tag_623:\n        /* \"#utility.yul\":5678:5741   */\n      swap4\n      pop\n        /* \"#utility.yul\":5634:5751   */\n      pop\n        /* \"#utility.yul\":5790:5792   */\n      0x20\n        /* \"#utility.yul\":5816:5869   */\n      tag_624\n        /* \"#utility.yul\":5861:5868   */\n      dup7\n        /* \"#utility.yul\":5852:5858   */\n      dup3\n        /* \"#utility.yul\":5841:5850   */\n      dup8\n        /* \"#utility.yul\":5837:5859   */\n      add\n        /* \"#utility.yul\":5816:5869   */\n      tag_567\n      jump\t// in\n    tag_624:\n        /* \"#utility.yul\":5806:5869   */\n      swap3\n      pop\n        /* \"#utility.yul\":5761:5879   */\n      pop\n        /* \"#utility.yul\":5946:5948   */\n      0x40\n        /* \"#utility.yul\":5935:5944   */\n      dup5\n        /* \"#utility.yul\":5931:5949   */\n      add\n        /* \"#utility.yul\":5918:5950   */\n      calldataload\n        /* \"#utility.yul\":5977:5995   */\n      0xffffffffffffffff\n        /* \"#utility.yul\":5969:5975   */\n      dup2\n        /* \"#utility.yul\":5966:5996   */\n      gt\n        /* \"#utility.yul\":5963:6080   */\n      iszero\n      tag_625\n      jumpi\n        /* \"#utility.yul\":5999:6078   */\n      tag_626\n      tag_585\n      jump\t// in\n    tag_626:\n        /* \"#utility.yul\":5963:6080   */\n    tag_625:\n        /* \"#utility.yul\":6104:6167   */\n      tag_627\n        /* \"#utility.yul\":6159:6166   */\n      dup7\n        /* \"#utility.yul\":6150:6156   */\n      dup3\n        /* \"#utility.yul\":6139:6148   */\n      dup8\n        /* \"#utility.yul\":6135:6157   */\n      add\n        /* \"#utility.yul\":6104:6167   */\n      tag_561\n      jump\t// in\n    tag_627:\n        /* \"#utility.yul\":6094:6167   */\n      swap2\n      pop\n        /* \"#utility.yul\":5889:6177   */\n      pop\n        /* \"#utility.yul\":5385:6184   */\n      swap3\n      pop\n      swap3\n      pop\n      swap3\n      jump\t// out\n        /* \"#utility.yul\":6190:6308   */\n    tag_628:\n        /* \"#utility.yul\":6277:6301   */\n      tag_630\n        /* \"#utility.yul\":6295:6300   */\n      dup2\n        /* \"#utility.yul\":6277:6301   */\n      tag_631\n      jump\t// in\n    tag_630:\n        /* \"#utility.yul\":6272:6275   */\n      dup3\n        /* \"#utility.yul\":6265:6302   */\n      mstore\n        /* \"#utility.yul\":6190:6308   */\n      pop\n      pop\n      jump\t// out\n        /* \"#utility.yul\":6314:6475   */\n    tag_632:\n        /* \"#utility.yul\":6416:6468   */\n      tag_634\n        /* \"#utility.yul\":6462:6467   */\n      dup2\n        /* \"#utility.yul\":6416:6468   */\n      tag_635\n      jump\t// in\n    tag_634:\n        /* \"#utility.yul\":6411:6414   */\n      dup3\n        /* \"#utility.yul\":6404:6469   */\n      mstore\n        /* \"#utility.yul\":6314:6475   */\n      pop\n      pop\n      jump\t// out\n        /* \"#utility.yul\":6481:6596   */\n    tag_636:\n        /* \"#utility.yul\":6566:6589   */\n      tag_638\n        /* \"#utility.yul\":6583:6588   */\n      dup2\n        /* \"#utility.yul\":6566:6589   */\n      tag_639\n      jump\t// in\n    tag_638:\n        /* \"#utility.yul\":6561:6564   */\n      dup3\n        /* \"#utility.yul\":6554:6590   */\n      mstore\n        /* \"#utility.yul\":6481:6596   */\n      pop\n      pop\n      jump\t// out\n        /* \"#utility.yul\":6602:6795   */\n    tag_640:\n        /* \"#utility.yul\":6720:6788   */\n      tag_642\n        /* \"#utility.yul\":6782:6787   */\n      dup2\n        /* \"#utility.yul\":6720:6788   */\n      tag_643\n      jump\t// in\n    tag_642:\n        /* \"#utility.yul\":6715:6718   */\n      dup3\n        /* \"#utility.yul\":6708:6789   */\n      mstore\n        /* \"#utility.yul\":6602:6795   */\n      pop\n      pop\n      jump\t// out\n        /* \"#utility.yul\":6801:6992   */\n    tag_644:\n        /* \"#utility.yul\":6918:6985   */\n      tag_646\n        /* \"#utility.yul\":6979:6984   */\n      dup2\n        /* \"#utility.yul\":6918:6985   */\n      tag_647\n      jump\t// in\n    tag_646:\n        /* \"#utility.yul\":6913:6916   */\n      dup3\n        /* \"#utility.yul\":6906:6986   */\n      mstore\n        /* \"#utility.yul\":6801:6992   */\n      pop\n      pop\n      jump\t// out\n        /* \"#utility.yul\":6998:7189   */\n    tag_648:\n        /* \"#utility.yul\":7115:7182   */\n      tag_650\n        /* \"#utility.yul\":7176:7181   */\n      dup2\n        /* \"#utility.yul\":7115:7182   */\n      tag_651\n      jump\t// in\n    tag_650:\n        /* \"#utility.yul\":7110:7113   */\n      dup3\n        /* \"#utility.yul\":7103:7183   */\n      mstore\n        /* \"#utility.yul\":6998:7189   */\n      pop\n      pop\n      jump\t// out\n        /* \"#utility.yul\":7195:7384   */\n    tag_652:\n        /* \"#utility.yul\":7311:7377   */\n      tag_654\n        /* \"#utility.yul\":7371:7376   */\n      dup2\n        /* \"#utility.yul\":7311:7377   */\n      tag_655\n      jump\t// in\n    tag_654:\n        /* \"#utility.yul\":7306:7309   */\n      dup3\n        /* \"#utility.yul\":7299:7378   */\n      mstore\n        /* \"#utility.yul\":7195:7384   */\n      pop\n      pop\n      jump\t// out\n        /* \"#utility.yul\":7390:7767   */\n    tag_656:\n        /* \"#utility.yul\":7496:7499   */\n      0x00\n        /* \"#utility.yul\":7524:7563   */\n      tag_658\n        /* \"#utility.yul\":7557:7562   */\n      dup3\n        /* \"#utility.yul\":7524:7563   */\n      tag_659\n      jump\t// in\n    tag_658:\n        /* \"#utility.yul\":7579:7668   */\n      tag_660\n        /* \"#utility.yul\":7661:7667   */\n      dup2\n        /* \"#utility.yul\":7656:7659   */\n      dup6\n        /* \"#utility.yul\":7579:7668   */\n      tag_661\n      jump\t// in\n    tag_660:\n        /* \"#utility.yul\":7572:7668   */\n      swap4\n      pop\n        /* \"#utility.yul\":7677:7729   */\n      tag_662\n        /* \"#utility.yul\":7722:7728   */\n      dup2\n        /* \"#utility.yul\":7717:7720   */\n      dup6\n        /* \"#utility.yul\":7710:7714   */\n      0x20\n        /* \"#utility.yul\":7703:7708   */\n      dup7\n        /* \"#utility.yul\":7699:7715   */\n      add\n        /* \"#utility.yul\":7677:7729   */\n      tag_663\n      jump\t// in\n    tag_662:\n        /* \"#utility.yul\":7754:7760   */\n      dup1\n        /* \"#utility.yul\":7749:7752   */\n      dup5\n        /* \"#utility.yul\":7745:7761   */\n      add\n        /* \"#utility.yul\":7738:7761   */\n      swap2\n      pop\n        /* \"#utility.yul\":7500:7767   */\n      pop\n        /* \"#utility.yul\":7390:7767   */\n      swap3\n      swap2\n      pop\n      pop\n      jump\t// out\n        /* \"#utility.yul\":7773:8139   */\n    tag_664:\n        /* \"#utility.yul\":7915:7918   */\n      0x00\n        /* \"#utility.yul\":7936:8003   */\n      tag_666\n        /* \"#utility.yul\":8000:8002   */\n      0x24\n        /* \"#utility.yul\":7995:7998   */\n      dup4\n        /* \"#utility.yul\":7936:8003   */\n      tag_667\n      jump\t// in\n    tag_666:\n        /* \"#utility.yul\":7929:8003   */\n      swap2\n      pop\n        /* \"#utility.yul\":8012:8105   */\n      tag_668\n        /* \"#utility.yul\":8101:8104   */\n      dup3\n        /* \"#utility.yul\":8012:8105   */\n      tag_669\n      jump\t// in\n    tag_668:\n        /* \"#utility.yul\":8130:8132   */\n      0x40\n        /* \"#utility.yul\":8125:8128   */\n      dup3\n        /* \"#utility.yul\":8121:8133   */\n      add\n        /* \"#utility.yul\":8114:8133   */\n      swap1\n      pop\n        /* \"#utility.yul\":7773:8139   */\n      swap2\n      swap1\n      pop\n      jump\t// out\n        /* \"#utility.yul\":8145:8511   */\n    tag_670:\n        /* \"#utility.yul\":8287:8290   */\n      0x00\n        /* \"#utility.yul\":8308:8375   */\n      tag_672\n        /* \"#utility.yul\":8372:8374   */\n      0x26\n        /* \"#utility.yul\":8367:8370   */\n      dup4\n        /* \"#utility.yul\":8308:8375   */\n      tag_667\n      jump\t// in\n    tag_672:\n        /* \"#utility.yul\":8301:8375   */\n      swap2\n      pop\n        /* \"#utility.yul\":8384:8477   */\n      tag_673\n        /* \"#utility.yul\":8473:8476   */\n      dup3\n        /* \"#utility.yul\":8384:8477   */\n      tag_674\n      jump\t// in\n    tag_673:\n        /* \"#utility.yul\":8502:8504   */\n      0x40\n        /* \"#utility.yul\":8497:8500   */\n      dup3\n        /* \"#utility.yul\":8493:8505   */\n      add\n        /* \"#utility.yul\":8486:8505   */\n      swap1\n      pop\n        /* \"#utility.yul\":8145:8511   */\n      swap2\n      swap1\n      pop\n      jump\t// out\n        /* \"#utility.yul\":8517:8883   */\n    tag_675:\n        /* \"#utility.yul\":8659:8662   */\n      0x00\n        /* \"#utility.yul\":8680:8747   */\n      tag_677\n        /* \"#utility.yul\":8744:8746   */\n      0x15\n        /* \"#utility.yul\":8739:8742   */\n      dup4\n        /* \"#utility.yul\":8680:8747   */\n      tag_667\n      jump\t// in\n    tag_677:\n        /* \"#utility.yul\":8673:8747   */\n      swap2\n      pop\n        /* \"#utility.yul\":8756:8849   */\n      tag_678\n        /* \"#utility.yul\":8845:8848   */\n      dup3\n        /* \"#utility.yul\":8756:8849   */\n      tag_679\n      jump\t// in\n    tag_678:\n        /* \"#utility.yul\":8874:8876   */\n      0x20\n        /* \"#utility.yul\":8869:8872   */\n      dup3\n        /* \"#utility.yul\":8865:8877   */\n      add\n        /* \"#utility.yul\":8858:8877   */\n      swap1\n      pop\n        /* \"#utility.yul\":8517:8883   */\n      swap2\n      swap1\n      pop\n      jump\t// out\n        /* \"#utility.yul\":8889:9255   */\n    tag_680:\n        /* \"#utility.yul\":9031:9034   */\n      0x00\n        /* \"#utility.yul\":9052:9119   */\n      tag_682\n        /* \"#utility.yul\":9116:9118   */\n      0x20\n        /* \"#utility.yul\":9111:9114   */\n      dup4\n        /* \"#utility.yul\":9052:9119   */\n      tag_667\n      jump\t// in\n    tag_682:\n        /* \"#utility.yul\":9045:9119   */\n      swap2\n      pop\n        /* \"#utility.yul\":9128:9221   */\n      tag_683\n        /* \"#utility.yul\":9217:9220   */\n      dup3\n        /* \"#utility.yul\":9128:9221   */\n      tag_684\n      jump\t// in\n    tag_683:\n        /* \"#utility.yul\":9246:9248   */\n      0x20\n        /* \"#utility.yul\":9241:9244   */\n      dup3\n        /* \"#utility.yul\":9237:9249   */\n      add\n        /* \"#utility.yul\":9230:9249   */\n      swap1\n      pop\n        /* \"#utility.yul\":8889:9255   */\n      swap2\n      swap1\n      pop\n      jump\t// out\n        /* \"#utility.yul\":9261:9627   */\n    tag_685:\n        /* \"#utility.yul\":9403:9406   */\n      0x00\n        /* \"#utility.yul\":9424:9491   */\n      tag_687\n        /* \"#utility.yul\":9488:9490   */\n      0x1a\n        /* \"#utility.yul\":9483:9486   */\n      dup4\n        /* \"#utility.yul\":9424:9491   */\n      tag_667\n      jump\t// in\n    tag_687:\n        /* \"#utility.yul\":9417:9491   */\n      swap2\n      pop\n        /* \"#utility.yul\":9500:9593   */\n      tag_688\n        /* \"#utility.yul\":9589:9592   */\n      dup3\n        /* \"#utility.yul\":9500:9593   */\n      tag_689\n      jump\t// in\n    tag_688:\n        /* \"#utility.yul\":9618:9620   */\n      0x20\n        /* \"#utility.yul\":9613:9616   */\n      dup3\n        /* \"#utility.yul\":9609:9621   */\n      add\n        /* \"#utility.yul\":9602:9621   */\n      swap1\n      pop\n        /* \"#utility.yul\":9261:9627   */\n      swap2\n      swap1\n      pop\n      jump\t// out\n        /* \"#utility.yul\":9633:9999   */\n    tag_690:\n        /* \"#utility.yul\":9775:9778   */\n      0x00\n        /* \"#utility.yul\":9796:9863   */\n      tag_692\n        /* \"#utility.yul\":9860:9862   */\n      0x15\n        /* \"#utility.yul\":9855:9858   */\n      dup4\n        /* \"#utility.yul\":9796:9863   */\n      tag_667\n      jump\t// in\n    tag_692:\n        /* \"#utility.yul\":9789:9863   */\n      swap2\n      pop\n        /* \"#utility.yul\":9872:9965   */\n      tag_693\n        /* \"#utility.yul\":9961:9964   */\n      dup3\n        /* \"#utility.yul\":9872:9965   */\n      tag_694\n      jump\t// in\n    tag_693:\n        /* \"#utility.yul\":9990:9992   */\n      0x20\n        /* \"#utility.yul\":9985:9988   */\n      dup3\n        /* \"#utility.yul\":9981:9993   */\n      add\n        /* \"#utility.yul\":9974:9993   */\n      swap1\n      pop\n        /* \"#utility.yul\":9633:9999   */\n      swap2\n      swap1\n      pop\n      jump\t// out\n        /* \"#utility.yul\":10005:10405   */\n    tag_695:\n        /* \"#utility.yul\":10165:10168   */\n      0x00\n        /* \"#utility.yul\":10186:10270   */\n      tag_697\n        /* \"#utility.yul\":10268:10269   */\n      0x04\n        /* \"#utility.yul\":10263:10266   */\n      dup4\n        /* \"#utility.yul\":10186:10270   */\n      tag_661\n      jump\t// in\n    tag_697:\n        /* \"#utility.yul\":10179:10270   */\n      swap2\n      pop\n        /* \"#utility.yul\":10279:10372   */\n      tag_698\n        /* \"#utility.yul\":10368:10371   */\n      dup3\n        /* \"#utility.yul\":10279:10372   */\n      tag_699\n      jump\t// in\n    tag_698:\n        /* \"#utility.yul\":10397:10398   */\n      0x04\n        /* \"#utility.yul\":10392:10395   */\n      dup3\n        /* \"#utility.yul\":10388:10399   */\n      add\n        /* \"#utility.yul\":10381:10399   */\n      swap1\n      pop\n        /* \"#utility.yul\":10005:10405   */\n      swap2\n      swap1\n      pop\n      jump\t// out\n        /* \"#utility.yul\":10411:10777   */\n    tag_700:\n        /* \"#utility.yul\":10553:10556   */\n      0x00\n        /* \"#utility.yul\":10574:10641   */\n      tag_702\n        /* \"#utility.yul\":10638:10640   */\n      0x0c\n        /* \"#utility.yul\":10633:10636   */\n      dup4\n        /* \"#utility.yul\":10574:10641   */\n      tag_667\n      jump\t// in\n    tag_702:\n        /* \"#utility.yul\":10567:10641   */\n      swap2\n      pop\n        /* \"#utility.yul\":10650:10743   */\n      tag_703\n        /* \"#utility.yul\":10739:10742   */\n      dup3\n        /* \"#utility.yul\":10650:10743   */\n      tag_704\n      jump\t// in\n    tag_703:\n        /* \"#utility.yul\":10768:10770   */\n      0x20\n        /* \"#utility.yul\":10763:10766   */\n      dup3\n        /* \"#utility.yul\":10759:10771   */\n      add\n        /* \"#utility.yul\":10752:10771   */\n      swap1\n      pop\n        /* \"#utility.yul\":10411:10777   */\n      swap2\n      swap1\n      pop\n      jump\t// out\n        /* \"#utility.yul\":10783:11149   */\n    tag_705:\n        /* \"#utility.yul\":10925:10928   */\n      0x00\n        /* \"#utility.yul\":10946:11013   */\n      tag_707\n        /* \"#utility.yul\":11010:11012   */\n      0x1f\n        /* \"#utility.yul\":11005:11008   */\n      dup4\n        /* \"#utility.yul\":10946:11013   */\n      tag_667\n      jump\t// in\n    tag_707:\n        /* \"#utility.yul\":10939:11013   */\n      swap2\n      pop\n        /* \"#utility.yul\":11022:11115   */\n      tag_708\n        /* \"#utility.yul\":11111:11114   */\n      dup3\n        /* \"#utility.yul\":11022:11115   */\n      tag_709\n      jump\t// in\n    tag_708:\n        /* \"#utility.yul\":11140:11142   */\n      0x20\n        /* \"#utility.yul\":11135:11138   */\n      dup3\n        /* \"#utility.yul\":11131:11143   */\n      add\n        /* \"#utility.yul\":11124:11143   */\n      swap1\n      pop\n        /* \"#utility.yul\":10783:11149   */\n      swap2\n      swap1\n      pop\n      jump\t// out\n        /* \"#utility.yul\":11155:11521   */\n    tag_710:\n        /* \"#utility.yul\":11297:11300   */\n      0x00\n        /* \"#utility.yul\":11318:11385   */\n      tag_712\n        /* \"#utility.yul\":11382:11384   */\n      0x21\n        /* \"#utility.yul\":11377:11380   */\n      dup4\n        /* \"#utility.yul\":11318:11385   */\n      tag_667\n      jump\t// in\n    tag_712:\n        /* \"#utility.yul\":11311:11385   */\n      swap2\n      pop\n        /* \"#utility.yul\":11394:11487   */\n      tag_713\n        /* \"#utility.yul\":11483:11486   */\n      dup3\n        /* \"#utility.yul\":11394:11487   */\n      tag_714\n      jump\t// in\n    tag_713:\n        /* \"#utility.yul\":11512:11514   */\n      0x40\n        /* \"#utility.yul\":11507:11510   */\n      dup3\n        /* \"#utility.yul\":11503:11515   */\n      add\n        /* \"#utility.yul\":11496:11515   */\n      swap1\n      pop\n        /* \"#utility.yul\":11155:11521   */\n      swap2\n      swap1\n      pop\n      jump\t// out\n        /* \"#utility.yul\":11527:11645   */\n    tag_715:\n        /* \"#utility.yul\":11614:11638   */\n      tag_717\n        /* \"#utility.yul\":11632:11637   */\n      dup2\n        /* \"#utility.yul\":11614:11638   */\n      tag_718\n      jump\t// in\n    tag_717:\n        /* \"#utility.yul\":11609:11612   */\n      dup3\n        /* \"#utility.yul\":11602:11639   */\n      mstore\n        /* \"#utility.yul\":11527:11645   */\n      pop\n      pop\n      jump\t// out\n        /* \"#utility.yul\":11651:11926   */\n    tag_374:\n        /* \"#utility.yul\":11783:11786   */\n      0x00\n        /* \"#utility.yul\":11805:11900   */\n      tag_720\n        /* \"#utility.yul\":11896:11899   */\n      dup3\n        /* \"#utility.yul\":11887:11893   */\n      dup5\n        /* \"#utility.yul\":11805:11900   */\n      tag_656\n      jump\t// in\n    tag_720:\n        /* \"#utility.yul\":11798:11900   */\n      swap2\n      pop\n        /* \"#utility.yul\":11917:11920   */\n      dup2\n        /* \"#utility.yul\":11910:11920   */\n      swap1\n      pop\n        /* \"#utility.yul\":11651:11926   */\n      swap3\n      swap2\n      pop\n      pop\n      jump\t// out\n        /* \"#utility.yul\":11932:12313   */\n    tag_440:\n        /* \"#utility.yul\":12117:12120   */\n      0x00\n        /* \"#utility.yul\":12139:12287   */\n      tag_722\n        /* \"#utility.yul\":12283:12286   */\n      dup3\n        /* \"#utility.yul\":12139:12287   */\n      tag_695\n      jump\t// in\n    tag_722:\n        /* \"#utility.yul\":12132:12287   */\n      swap2\n      pop\n        /* \"#utility.yul\":12304:12307   */\n      dup2\n        /* \"#utility.yul\":12297:12307   */\n      swap1\n      pop\n        /* \"#utility.yul\":11932:12313   */\n      swap2\n      swap1\n      pop\n      jump\t// out\n        /* \"#utility.yul\":12319:12541   */\n    tag_63:\n        /* \"#utility.yul\":12412:12416   */\n      0x00\n        /* \"#utility.yul\":12450:12452   */\n      0x20\n        /* \"#utility.yul\":12439:12448   */\n      dup3\n        /* \"#utility.yul\":12435:12453   */\n      add\n        /* \"#utility.yul\":12427:12453   */\n      swap1\n      pop\n        /* \"#utility.yul\":12463:12534   */\n      tag_724\n        /* \"#utility.yul\":12531:12532   */\n      0x00\n        /* \"#utility.yul\":12520:12529   */\n      dup4\n        /* \"#utility.yul\":12516:12533   */\n      add\n        /* \"#utility.yul\":12507:12513   */\n      dup5\n        /* \"#utility.yul\":12463:12534   */\n      tag_628\n      jump\t// in\n    tag_724:\n        /* \"#utility.yul\":12319:12541   */\n      swap3\n      swap2\n      pop\n      pop\n      jump\t// out\n        /* \"#utility.yul\":12547:12989   */\n    tag_521:\n        /* \"#utility.yul\":12696:12700   */\n      0x00\n        /* \"#utility.yul\":12734:12736   */\n      0x60\n        /* \"#utility.yul\":12723:12732   */\n      dup3\n        /* \"#utility.yul\":12719:12737   */\n      add\n        /* \"#utility.yul\":12711:12737   */\n      swap1\n      pop\n        /* \"#utility.yul\":12747:12818   */\n      tag_726\n        /* \"#utility.yul\":12815:12816   */\n      0x00\n        /* \"#utility.yul\":12804:12813   */\n      dup4\n        /* \"#utility.yul\":12800:12817   */\n      add\n        /* \"#utility.yul\":12791:12797   */\n      dup7\n        /* \"#utility.yul\":12747:12818   */\n      tag_628\n      jump\t// in\n    tag_726:\n        /* \"#utility.yul\":12828:12900   */\n      tag_727\n        /* \"#utility.yul\":12896:12898   */\n      0x20\n        /* \"#utility.yul\":12885:12894   */\n      dup4\n        /* \"#utility.yul\":12881:12899   */\n      add\n        /* \"#utility.yul\":12872:12878   */\n      dup6\n        /* \"#utility.yul\":12828:12900   */\n      tag_628\n      jump\t// in\n    tag_727:\n        /* \"#utility.yul\":12910:12982   */\n      tag_728\n        /* \"#utility.yul\":12978:12980   */\n      0x40\n        /* \"#utility.yul\":12967:12976   */\n      dup4\n        /* \"#utility.yul\":12963:12981   */\n      add\n        /* \"#utility.yul\":12954:12960   */\n      dup5\n        /* \"#utility.yul\":12910:12982   */\n      tag_715\n      jump\t// in\n    tag_728:\n        /* \"#utility.yul\":12547:12989   */\n      swap5\n      swap4\n      pop\n      pop\n      pop\n      pop\n      jump\t// out\n        /* \"#utility.yul\":12995:13389   */\n    tag_270:\n        /* \"#utility.yul\":13147:13151   */\n      0x00\n        /* \"#utility.yul\":13185:13187   */\n      0x40\n        /* \"#utility.yul\":13174:13183   */\n      dup3\n        /* \"#utility.yul\":13170:13188   */\n      add\n        /* \"#utility.yul\":13162:13188   */\n      swap1\n      pop\n        /* \"#utility.yul\":13198:13269   */\n      tag_730\n        /* \"#utility.yul\":13266:13267   */\n      0x00\n        /* \"#utility.yul\":13255:13264   */\n      dup4\n        /* \"#utility.yul\":13251:13268   */\n      add\n        /* \"#utility.yul\":13242:13248   */\n      dup6\n        /* \"#utility.yul\":13198:13269   */\n      tag_628\n      jump\t// in\n    tag_730:\n        /* \"#utility.yul\":13279:13382   */\n      tag_731\n        /* \"#utility.yul\":13378:13380   */\n      0x20\n        /* \"#utility.yul\":13367:13376   */\n      dup4\n        /* \"#utility.yul\":13363:13381   */\n      add\n        /* \"#utility.yul\":13354:13360   */\n      dup5\n        /* \"#utility.yul\":13279:13382   */\n      tag_640\n      jump\t// in\n    tag_731:\n        /* \"#utility.yul\":12995:13389   */\n      swap4\n      swap3\n      pop\n      pop\n      pop\n      jump\t// out\n        /* \"#utility.yul\":13395:13787   */\n    tag_260:\n        /* \"#utility.yul\":13546:13550   */\n      0x00\n        /* \"#utility.yul\":13584:13586   */\n      0x40\n        /* \"#utility.yul\":13573:13582   */\n      dup3\n        /* \"#utility.yul\":13569:13587   */\n      add\n        /* \"#utility.yul\":13561:13587   */\n      swap1\n      pop\n        /* \"#utility.yul\":13597:13668   */\n      tag_733\n        /* \"#utility.yul\":13665:13666   */\n      0x00\n        /* \"#utility.yul\":13654:13663   */\n      dup4\n        /* \"#utility.yul\":13650:13667   */\n      add\n        /* \"#utility.yul\":13641:13647   */\n      dup6\n        /* \"#utility.yul\":13597:13668   */\n      tag_628\n      jump\t// in\n    tag_733:\n        /* \"#utility.yul\":13678:13780   */\n      tag_734\n        /* \"#utility.yul\":13776:13778   */\n      0x20\n        /* \"#utility.yul\":13765:13774   */\n      dup4\n        /* \"#utility.yul\":13761:13779   */\n      add\n        /* \"#utility.yul\":13752:13758   */\n      dup5\n        /* \"#utility.yul\":13678:13780   */\n      tag_644\n      jump\t// in\n    tag_734:\n        /* \"#utility.yul\":13395:13787   */\n      swap4\n      swap3\n      pop\n      pop\n      pop\n      jump\t// out\n        /* \"#utility.yul\":13793:14185   */\n    tag_265:\n        /* \"#utility.yul\":13944:13948   */\n      0x00\n        /* \"#utility.yul\":13982:13984   */\n      0x40\n        /* \"#utility.yul\":13971:13980   */\n      dup3\n        /* \"#utility.yul\":13967:13985   */\n      add\n        /* \"#utility.yul\":13959:13985   */\n      swap1\n      pop\n        /* \"#utility.yul\":13995:14066   */\n      tag_736\n        /* \"#utility.yul\":14063:14064   */\n      0x00\n        /* \"#utility.yul\":14052:14061   */\n      dup4\n        /* \"#utility.yul\":14048:14065   */\n      add\n        /* \"#utility.yul\":14039:14045   */\n      dup6\n        /* \"#utility.yul\":13995:14066   */\n      tag_628\n      jump\t// in\n    tag_736:\n        /* \"#utility.yul\":14076:14178   */\n      tag_737\n        /* \"#utility.yul\":14174:14176   */\n      0x20\n        /* \"#utility.yul\":14163:14172   */\n      dup4\n        /* \"#utility.yul\":14159:14177   */\n      add\n        /* \"#utility.yul\":14150:14156   */\n      dup5\n        /* \"#utility.yul\":14076:14178   */\n      tag_648\n      jump\t// in\n    tag_737:\n        /* \"#utility.yul\":13793:14185   */\n      swap4\n      swap3\n      pop\n      pop\n      pop\n      jump\t// out\n        /* \"#utility.yul\":14191:14581   */\n    tag_255:\n        /* \"#utility.yul\":14341:14345   */\n      0x00\n        /* \"#utility.yul\":14379:14381   */\n      0x40\n        /* \"#utility.yul\":14368:14377   */\n      dup3\n        /* \"#utility.yul\":14364:14382   */\n      add\n        /* \"#utility.yul\":14356:14382   */\n      swap1\n      pop\n        /* \"#utility.yul\":14392:14463   */\n      tag_739\n        /* \"#utility.yul\":14460:14461   */\n      0x00\n        /* \"#utility.yul\":14449:14458   */\n      dup4\n        /* \"#utility.yul\":14445:14462   */\n      add\n        /* \"#utility.yul\":14436:14442   */\n      dup6\n        /* \"#utility.yul\":14392:14463   */\n      tag_628\n      jump\t// in\n    tag_739:\n        /* \"#utility.yul\":14473:14574   */\n      tag_740\n        /* \"#utility.yul\":14570:14572   */\n      0x20\n        /* \"#utility.yul\":14559:14568   */\n      dup4\n        /* \"#utility.yul\":14555:14573   */\n      add\n        /* \"#utility.yul\":14546:14552   */\n      dup5\n        /* \"#utility.yul\":14473:14574   */\n      tag_652\n      jump\t// in\n    tag_740:\n        /* \"#utility.yul\":14191:14581   */\n      swap4\n      swap3\n      pop\n      pop\n      pop\n      jump\t// out\n        /* \"#utility.yul\":14587:14919   */\n    tag_174:\n        /* \"#utility.yul\":14708:14712   */\n      0x00\n        /* \"#utility.yul\":14746:14748   */\n      0x40\n        /* \"#utility.yul\":14735:14744   */\n      dup3\n        /* \"#utility.yul\":14731:14749   */\n      add\n        /* \"#utility.yul\":14723:14749   */\n      swap1\n      pop\n        /* \"#utility.yul\":14759:14830   */\n      tag_742\n        /* \"#utility.yul\":14827:14828   */\n      0x00\n        /* \"#utility.yul\":14816:14825   */\n      dup4\n        /* \"#utility.yul\":14812:14829   */\n      add\n        /* \"#utility.yul\":14803:14809   */\n      dup6\n        /* \"#utility.yul\":14759:14830   */\n      tag_628\n      jump\t// in\n    tag_742:\n        /* \"#utility.yul\":14840:14912   */\n      tag_743\n        /* \"#utility.yul\":14908:14910   */\n      0x20\n        /* \"#utility.yul\":14897:14906   */\n      dup4\n        /* \"#utility.yul\":14893:14911   */\n      add\n        /* \"#utility.yul\":14884:14890   */\n      dup5\n        /* \"#utility.yul\":14840:14912   */\n      tag_715\n      jump\t// in\n    tag_743:\n        /* \"#utility.yul\":14587:14919   */\n      swap4\n      swap3\n      pop\n      pop\n      pop\n      jump\t// out\n        /* \"#utility.yul\":14925:15177   */\n    tag_105:\n        /* \"#utility.yul\":15033:15037   */\n      0x00\n        /* \"#utility.yul\":15071:15073   */\n      0x20\n        /* \"#utility.yul\":15060:15069   */\n      dup3\n        /* \"#utility.yul\":15056:15074   */\n      add\n        /* \"#utility.yul\":15048:15074   */\n      swap1\n      pop\n        /* \"#utility.yul\":15084:15170   */\n      tag_745\n        /* \"#utility.yul\":15167:15168   */\n      0x00\n        /* \"#utility.yul\":15156:15165   */\n      dup4\n        /* \"#utility.yul\":15152:15169   */\n      add\n        /* \"#utility.yul\":15143:15149   */\n      dup5\n        /* \"#utility.yul\":15084:15170   */\n      tag_632\n      jump\t// in\n    tag_745:\n        /* \"#utility.yul\":14925:15177   */\n      swap3\n      swap2\n      pop\n      pop\n      jump\t// out\n        /* \"#utility.yul\":15183:15401   */\n    tag_139:\n        /* \"#utility.yul\":15274:15278   */\n      0x00\n        /* \"#utility.yul\":15312:15314   */\n      0x20\n        /* \"#utility.yul\":15301:15310   */\n      dup3\n        /* \"#utility.yul\":15297:15315   */\n      add\n        /* \"#utility.yul\":15289:15315   */\n      swap1\n      pop\n        /* \"#utility.yul\":15325:15394   */\n      tag_747\n        /* \"#utility.yul\":15391:15392   */\n      0x00\n        /* \"#utility.yul\":15380:15389   */\n      dup4\n        /* \"#utility.yul\":15376:15393   */\n      add\n        /* \"#utility.yul\":15367:15373   */\n      dup5\n        /* \"#utility.yul\":15325:15394   */\n      tag_636\n      jump\t// in\n    tag_747:\n        /* \"#utility.yul\":15183:15401   */\n      swap3\n      swap2\n      pop\n      pop\n      jump\t// out\n        /* \"#utility.yul\":15407:15826   */\n    tag_309:\n        /* \"#utility.yul\":15573:15577   */\n      0x00\n        /* \"#utility.yul\":15611:15613   */\n      0x20\n        /* \"#utility.yul\":15600:15609   */\n      dup3\n        /* \"#utility.yul\":15596:15614   */\n      add\n        /* \"#utility.yul\":15588:15614   */\n      swap1\n      pop\n        /* \"#utility.yul\":15660:15669   */\n      dup2\n        /* \"#utility.yul\":15654:15658   */\n      dup2\n        /* \"#utility.yul\":15650:15670   */\n      sub\n        /* \"#utility.yul\":15646:15647   */\n      0x00\n        /* \"#utility.yul\":15635:15644   */\n      dup4\n        /* \"#utility.yul\":15631:15648   */\n      add\n        /* \"#utility.yul\":15624:15671   */\n      mstore\n        /* \"#utility.yul\":15688:15819   */\n      tag_749\n        /* \"#utility.yul\":15814:15818   */\n      dup2\n        /* \"#utility.yul\":15688:15819   */\n      tag_664\n      jump\t// in\n    tag_749:\n        /* \"#utility.yul\":15680:15819   */\n      swap1\n      pop\n        /* \"#utility.yul\":15407:15826   */\n      swap2\n      swap1\n      pop\n      jump\t// out\n        /* \"#utility.yul\":15832:16251   */\n    tag_497:\n        /* \"#utility.yul\":15998:16002   */\n      0x00\n        /* \"#utility.yul\":16036:16038   */\n      0x20\n        /* \"#utility.yul\":16025:16034   */\n      dup3\n        /* \"#utility.yul\":16021:16039   */\n      add\n        /* \"#utility.yul\":16013:16039   */\n      swap1\n      pop\n        /* \"#utility.yul\":16085:16094   */\n      dup2\n        /* \"#utility.yul\":16079:16083   */\n      dup2\n        /* \"#utility.yul\":16075:16095   */\n      sub\n        /* \"#utility.yul\":16071:16072   */\n      0x00\n        /* \"#utility.yul\":16060:16069   */\n      dup4\n        /* \"#utility.yul\":16056:16073   */\n      add\n        /* \"#utility.yul\":16049:16096   */\n      mstore\n        /* \"#utility.yul\":16113:16244   */\n      tag_751\n        /* \"#utility.yul\":16239:16243   */\n      dup2\n        /* \"#utility.yul\":16113:16244   */\n      tag_670\n      jump\t// in\n    tag_751:\n        /* \"#utility.yul\":16105:16244   */\n      swap1\n      pop\n        /* \"#utility.yul\":15832:16251   */\n      swap2\n      swap1\n      pop\n      jump\t// out\n        /* \"#utility.yul\":16257:16676   */\n    tag_528:\n        /* \"#utility.yul\":16423:16427   */\n      0x00\n        /* \"#utility.yul\":16461:16463   */\n      0x20\n        /* \"#utility.yul\":16450:16459   */\n      dup3\n        /* \"#utility.yul\":16446:16464   */\n      add\n        /* \"#utility.yul\":16438:16464   */\n      swap1\n      pop\n        /* \"#utility.yul\":16510:16519   */\n      dup2\n        /* \"#utility.yul\":16504:16508   */\n      dup2\n        /* \"#utility.yul\":16500:16520   */\n      sub\n        /* \"#utility.yul\":16496:16497   */\n      0x00\n        /* \"#utility.yul\":16485:16494   */\n      dup4\n        /* \"#utility.yul\":16481:16498   */\n      add\n        /* \"#utility.yul\":16474:16521   */\n      mstore\n        /* \"#utility.yul\":16538:16669   */\n      tag_753\n        /* \"#utility.yul\":16664:16668   */\n      dup2\n        /* \"#utility.yul\":16538:16669   */\n      tag_675\n      jump\t// in\n    tag_753:\n        /* \"#utility.yul\":16530:16669   */\n      swap1\n      pop\n        /* \"#utility.yul\":16257:16676   */\n      swap2\n      swap1\n      pop\n      jump\t// out\n        /* \"#utility.yul\":16682:17101   */\n    tag_252:\n        /* \"#utility.yul\":16848:16852   */\n      0x00\n        /* \"#utility.yul\":16886:16888   */\n      0x20\n        /* \"#utility.yul\":16875:16884   */\n      dup3\n        /* \"#utility.yul\":16871:16889   */\n      add\n        /* \"#utility.yul\":16863:16889   */\n      swap1\n      pop\n        /* \"#utility.yul\":16935:16944   */\n      dup2\n        /* \"#utility.yul\":16929:16933   */\n      dup2\n        /* \"#utility.yul\":16925:16945   */\n      sub\n        /* \"#utility.yul\":16921:16922   */\n      0x00\n        /* \"#utility.yul\":16910:16919   */\n      dup4\n        /* \"#utility.yul\":16906:16923   */\n      add\n        /* \"#utility.yul\":16899:16946   */\n      mstore\n        /* \"#utility.yul\":16963:17094   */\n      tag_755\n        /* \"#utility.yul\":17089:17093   */\n      dup2\n        /* \"#utility.yul\":16963:17094   */\n      tag_680\n      jump\t// in\n    tag_755:\n        /* \"#utility.yul\":16955:17094   */\n      swap1\n      pop\n        /* \"#utility.yul\":16682:17101   */\n      swap2\n      swap1\n      pop\n      jump\t// out\n        /* \"#utility.yul\":17107:17526   */\n    tag_320:\n        /* \"#utility.yul\":17273:17277   */\n      0x00\n        /* \"#utility.yul\":17311:17313   */\n      0x20\n        /* \"#utility.yul\":17300:17309   */\n      dup3\n        /* \"#utility.yul\":17296:17314   */\n      add\n        /* \"#utility.yul\":17288:17314   */\n      swap1\n      pop\n        /* \"#utility.yul\":17360:17369   */\n      dup2\n        /* \"#utility.yul\":17354:17358   */\n      dup2\n        /* \"#utility.yul\":17350:17370   */\n      sub\n        /* \"#utility.yul\":17346:17347   */\n      0x00\n        /* \"#utility.yul\":17335:17344   */\n      dup4\n        /* \"#utility.yul\":17331:17348   */\n      add\n        /* \"#utility.yul\":17324:17371   */\n      mstore\n        /* \"#utility.yul\":17388:17519   */\n      tag_757\n        /* \"#utility.yul\":17514:17518   */\n      dup2\n        /* \"#utility.yul\":17388:17519   */\n      tag_685\n      jump\t// in\n    tag_757:\n        /* \"#utility.yul\":17380:17519   */\n      swap1\n      pop\n        /* \"#utility.yul\":17107:17526   */\n      swap2\n      swap1\n      pop\n      jump\t// out\n        /* \"#utility.yul\":17532:17951   */\n    tag_377:\n        /* \"#utility.yul\":17698:17702   */\n      0x00\n        /* \"#utility.yul\":17736:17738   */\n      0x20\n        /* \"#utility.yul\":17725:17734   */\n      dup3\n        /* \"#utility.yul\":17721:17739   */\n      add\n        /* \"#utility.yul\":17713:17739   */\n      swap1\n      pop\n        /* \"#utility.yul\":17785:17794   */\n      dup2\n        /* \"#utility.yul\":17779:17783   */\n      dup2\n        /* \"#utility.yul\":17775:17795   */\n      sub\n        /* \"#utility.yul\":17771:17772   */\n      0x00\n        /* \"#utility.yul\":17760:17769   */\n      dup4\n        /* \"#utility.yul\":17756:17773   */\n      add\n        /* \"#utility.yul\":17749:17796   */\n      mstore\n        /* \"#utility.yul\":17813:17944   */\n      tag_759\n        /* \"#utility.yul\":17939:17943   */\n      dup2\n        /* \"#utility.yul\":17813:17944   */\n      tag_690\n      jump\t// in\n    tag_759:\n        /* \"#utility.yul\":17805:17944   */\n      swap1\n      pop\n        /* \"#utility.yul\":17532:17951   */\n      swap2\n      swap1\n      pop\n      jump\t// out\n        /* \"#utility.yul\":17957:18376   */\n    tag_444:\n        /* \"#utility.yul\":18123:18127   */\n      0x00\n        /* \"#utility.yul\":18161:18163   */\n      0x20\n        /* \"#utility.yul\":18150:18159   */\n      dup3\n        /* \"#utility.yul\":18146:18164   */\n      add\n        /* \"#utility.yul\":18138:18164   */\n      swap1\n      pop\n        /* \"#utility.yul\":18210:18219   */\n      dup2\n        /* \"#utility.yul\":18204:18208   */\n      dup2\n        /* \"#utility.yul\":18200:18220   */\n      sub\n        /* \"#utility.yul\":18196:18197   */\n      0x00\n        /* \"#utility.yul\":18185:18194   */\n      dup4\n        /* \"#utility.yul\":18181:18198   */\n      add\n        /* \"#utility.yul\":18174:18221   */\n      mstore\n        /* \"#utility.yul\":18238:18369   */\n      tag_761\n        /* \"#utility.yul\":18364:18368   */\n      dup2\n        /* \"#utility.yul\":18238:18369   */\n      tag_700\n      jump\t// in\n    tag_761:\n        /* \"#utility.yul\":18230:18369   */\n      swap1\n      pop\n        /* \"#utility.yul\":17957:18376   */\n      swap2\n      swap1\n      pop\n      jump\t// out\n        /* \"#utility.yul\":18382:18801   */\n    tag_371:\n        /* \"#utility.yul\":18548:18552   */\n      0x00\n        /* \"#utility.yul\":18586:18588   */\n      0x20\n        /* \"#utility.yul\":18575:18584   */\n      dup3\n        /* \"#utility.yul\":18571:18589   */\n      add\n        /* \"#utility.yul\":18563:18589   */\n      swap1\n      pop\n        /* \"#utility.yul\":18635:18644   */\n      dup2\n        /* \"#utility.yul\":18629:18633   */\n      dup2\n        /* \"#utility.yul\":18625:18645   */\n      sub\n        /* \"#utility.yul\":18621:18622   */\n      0x00\n        /* \"#utility.yul\":18610:18619   */\n      dup4\n        /* \"#utility.yul\":18606:18623   */\n      add\n        /* \"#utility.yul\":18599:18646   */\n      mstore\n        /* \"#utility.yul\":18663:18794   */\n      tag_763\n        /* \"#utility.yul\":18789:18793   */\n      dup2\n        /* \"#utility.yul\":18663:18794   */\n      tag_705\n      jump\t// in\n    tag_763:\n        /* \"#utility.yul\":18655:18794   */\n      swap1\n      pop\n        /* \"#utility.yul\":18382:18801   */\n      swap2\n      swap1\n      pop\n      jump\t// out\n        /* \"#utility.yul\":18807:19226   */\n    tag_536:\n        /* \"#utility.yul\":18973:18977   */\n      0x00\n        /* \"#utility.yul\":19011:19013   */\n      0x20\n        /* \"#utility.yul\":19000:19009   */\n      dup3\n        /* \"#utility.yul\":18996:19014   */\n      add\n        /* \"#utility.yul\":18988:19014   */\n      swap1\n      pop\n        /* \"#utility.yul\":19060:19069   */\n      dup2\n        /* \"#utility.yul\":19054:19058   */\n      dup2\n        /* \"#utility.yul\":19050:19070   */\n      sub\n        /* \"#utility.yul\":19046:19047   */\n      0x00\n        /* \"#utility.yul\":19035:19044   */\n      dup4\n        /* \"#utility.yul\":19031:19048   */\n      add\n        /* \"#utility.yul\":19024:19071   */\n      mstore\n        /* \"#utility.yul\":19088:19219   */\n      tag_765\n        /* \"#utility.yul\":19214:19218   */\n      dup2\n        /* \"#utility.yul\":19088:19219   */\n      tag_710\n      jump\t// in\n    tag_765:\n        /* \"#utility.yul\":19080:19219   */\n      swap1\n      pop\n        /* \"#utility.yul\":18807:19226   */\n      swap2\n      swap1\n      pop\n      jump\t// out\n        /* \"#utility.yul\":19232:19454   */\n    tag_55:\n        /* \"#utility.yul\":19325:19329   */\n      0x00\n        /* \"#utility.yul\":19363:19365   */\n      0x20\n        /* \"#utility.yul\":19352:19361   */\n      dup3\n        /* \"#utility.yul\":19348:19366   */\n      add\n        /* \"#utility.yul\":19340:19366   */\n      swap1\n      pop\n        /* \"#utility.yul\":19376:19447   */\n      tag_767\n        /* \"#utility.yul\":19444:19445   */\n      0x00\n        /* \"#utility.yul\":19433:19442   */\n      dup4\n        /* \"#utility.yul\":19429:19446   */\n      add\n        /* \"#utility.yul\":19420:19426   */\n      dup5\n        /* \"#utility.yul\":19376:19447   */\n      tag_715\n      jump\t// in\n    tag_767:\n        /* \"#utility.yul\":19232:19454   */\n      swap3\n      swap2\n      pop\n      pop\n      jump\t// out\n        /* \"#utility.yul\":19460:19792   */\n    tag_78:\n        /* \"#utility.yul\":19581:19585   */\n      0x00\n        /* \"#utility.yul\":19619:19621   */\n      0x40\n        /* \"#utility.yul\":19608:19617   */\n      dup3\n        /* \"#utility.yul\":19604:19622   */\n      add\n        /* \"#utility.yul\":19596:19622   */\n      swap1\n      pop\n        /* \"#utility.yul\":19632:19703   */\n      tag_769\n        /* \"#utility.yul\":19700:19701   */\n      0x00\n        /* \"#utility.yul\":19689:19698   */\n      dup4\n        /* \"#utility.yul\":19685:19702   */\n      add\n        /* \"#utility.yul\":19676:19682   */\n      dup6\n        /* \"#utility.yul\":19632:19703   */\n      tag_715\n      jump\t// in\n    tag_769:\n        /* \"#utility.yul\":19713:19785   */\n      tag_770\n        /* \"#utility.yul\":19781:19783   */\n      0x20\n        /* \"#utility.yul\":19770:19779   */\n      dup4\n        /* \"#utility.yul\":19766:19784   */\n      add\n        /* \"#utility.yul\":19757:19763   */\n      dup5\n        /* \"#utility.yul\":19713:19785   */\n      tag_715\n      jump\t// in\n    tag_770:\n        /* \"#utility.yul\":19460:19792   */\n      swap4\n      swap3\n      pop\n      pop\n      pop\n      jump\t// out\n        /* \"#utility.yul\":19798:19927   */\n    tag_547:\n        /* \"#utility.yul\":19832:19838   */\n      0x00\n        /* \"#utility.yul\":19859:19879   */\n      tag_772\n      tag_773\n      jump\t// in\n    tag_772:\n        /* \"#utility.yul\":19849:19879   */\n      swap1\n      pop\n        /* \"#utility.yul\":19888:19921   */\n      tag_774\n        /* \"#utility.yul\":19916:19920   */\n      dup3\n        /* \"#utility.yul\":19908:19914   */\n      dup3\n        /* \"#utility.yul\":19888:19921   */\n      tag_775\n      jump\t// in\n    tag_774:\n        /* \"#utility.yul\":19798:19927   */\n      swap2\n      swap1\n      pop\n      jump\t// out\n        /* \"#utility.yul\":19933:20008   */\n    tag_773:\n        /* \"#utility.yul\":19966:19972   */\n      0x00\n        /* \"#utility.yul\":19999:20001   */\n      0x40\n        /* \"#utility.yul\":19993:20002   */\n      mload\n        /* \"#utility.yul\":19983:20002   */\n      swap1\n      pop\n        /* \"#utility.yul\":19933:20008   */\n      swap1\n      jump\t// out\n        /* \"#utility.yul\":20014:20322   */\n    tag_546:\n        /* \"#utility.yul\":20076:20080   */\n      0x00\n        /* \"#utility.yul\":20166:20184   */\n      0xffffffffffffffff\n        /* \"#utility.yul\":20158:20164   */\n      dup3\n        /* \"#utility.yul\":20155:20185   */\n      gt\n        /* \"#utility.yul\":20152:20208   */\n      iszero\n      tag_778\n      jumpi\n        /* \"#utility.yul\":20188:20206   */\n      tag_779\n      tag_780\n      jump\t// in\n    tag_779:\n        /* \"#utility.yul\":20152:20208   */\n    tag_778:\n        /* \"#utility.yul\":20226:20255   */\n      tag_781\n        /* \"#utility.yul\":20248:20254   */\n      dup3\n        /* \"#utility.yul\":20226:20255   */\n      tag_782\n      jump\t// in\n    tag_781:\n        /* \"#utility.yul\":20218:20255   */\n      swap1\n      pop\n        /* \"#utility.yul\":20310:20314   */\n      0x20\n        /* \"#utility.yul\":20304:20308   */\n      dup2\n        /* \"#utility.yul\":20300:20315   */\n      add\n        /* \"#utility.yul\":20292:20315   */\n      swap1\n      pop\n        /* \"#utility.yul\":20014:20322   */\n      swap2\n      swap1\n      pop\n      jump\t// out\n        /* \"#utility.yul\":20328:20427   */\n    tag_659:\n        /* \"#utility.yul\":20380:20386   */\n      0x00\n        /* \"#utility.yul\":20414:20419   */\n      dup2\n        /* \"#utility.yul\":20408:20420   */\n      mload\n        /* \"#utility.yul\":20398:20420   */\n      swap1\n      pop\n        /* \"#utility.yul\":20328:20427   */\n      swap2\n      swap1\n      pop\n      jump\t// out\n        /* \"#utility.yul\":20433:20602   */\n    tag_667:\n        /* \"#utility.yul\":20517:20528   */\n      0x00\n        /* \"#utility.yul\":20551:20557   */\n      dup3\n        /* \"#utility.yul\":20546:20549   */\n      dup3\n        /* \"#utility.yul\":20539:20558   */\n      mstore\n        /* \"#utility.yul\":20591:20595   */\n      0x20\n        /* \"#utility.yul\":20586:20589   */\n      dup3\n        /* \"#utility.yul\":20582:20596   */\n      add\n        /* \"#utility.yul\":20567:20596   */\n      swap1\n      pop\n        /* \"#utility.yul\":20433:20602   */\n      swap3\n      swap2\n      pop\n      pop\n      jump\t// out\n        /* \"#utility.yul\":20608:20756   */\n    tag_661:\n        /* \"#utility.yul\":20710:20721   */\n      0x00\n        /* \"#utility.yul\":20747:20750   */\n      dup2\n        /* \"#utility.yul\":20732:20750   */\n      swap1\n      pop\n        /* \"#utility.yul\":20608:20756   */\n      swap3\n      swap2\n      pop\n      pop\n      jump\t// out\n        /* \"#utility.yul\":20762:21067   */\n    tag_244:\n        /* \"#utility.yul\":20802:20805   */\n      0x00\n        /* \"#utility.yul\":20821:20841   */\n      tag_787\n        /* \"#utility.yul\":20839:20840   */\n      dup3\n        /* \"#utility.yul\":20821:20841   */\n      tag_718\n      jump\t// in\n    tag_787:\n        /* \"#utility.yul\":20816:20841   */\n      swap2\n      pop\n        /* \"#utility.yul\":20855:20875   */\n      tag_788\n        /* \"#utility.yul\":20873:20874   */\n      dup4\n        /* \"#utility.yul\":20855:20875   */\n      tag_718\n      jump\t// in\n    tag_788:\n        /* \"#utility.yul\":20850:20875   */\n      swap3\n      pop\n        /* \"#utility.yul\":21009:21010   */\n      dup3\n        /* \"#utility.yul\":20941:21007   */\n      0xffffffffffffffffffffffffffffffffffffffffffffffffffffffffffffffff\n        /* \"#utility.yul\":20937:21011   */\n      sub\n        /* \"#utility.yul\":20934:20935   */\n      dup3\n        /* \"#utility.yul\":20931:21012   */\n      gt\n        /* \"#utility.yul\":20928:21035   */\n      iszero\n      tag_789\n      jumpi\n        /* \"#utility.yul\":21015:21033   */\n      tag_790\n      tag_791\n      jump\t// in\n    tag_790:\n        /* \"#utility.yul\":20928:21035   */\n    tag_789:\n        /* \"#utility.yul\":21059:21060   */\n      dup3\n        /* \"#utility.yul\":21056:21057   */\n      dup3\n        /* \"#utility.yul\":21052:21061   */\n      add\n        /* \"#utility.yul\":21045:21061   */\n      swap1\n      pop\n        /* \"#utility.yul\":20762:21067   */\n      swap3\n      swap2\n      pop\n      pop\n      jump\t// out\n        /* \"#utility.yul\":21073:21258   */\n    tag_276:\n        /* \"#utility.yul\":21113:21114   */\n      0x00\n        /* \"#utility.yul\":21130:21150   */\n      tag_793\n        /* \"#utility.yul\":21148:21149   */\n      dup3\n        /* \"#utility.yul\":21130:21150   */\n      tag_718\n      jump\t// in\n    tag_793:\n        /* \"#utility.yul\":21125:21150   */\n      swap2\n      pop\n        /* \"#utility.yul\":21164:21184   */\n      tag_794\n        /* \"#utility.yul\":21182:21183   */\n      dup4\n        /* \"#utility.yul\":21164:21184   */\n      tag_718\n      jump\t// in\n    tag_794:\n        /* \"#utility.yul\":21159:21184   */\n      swap3\n      pop\n        /* \"#utility.yul\":21203:21204   */\n      dup3\n        /* \"#utility.yul\":21193:21228   */\n      tag_795\n      jumpi\n        /* \"#utility.yul\":21208:21226   */\n      tag_796\n      tag_797\n      jump\t// in\n    tag_796:\n        /* \"#utility.yul\":21193:21228   */\n    tag_795:\n        /* \"#utility.yul\":21250:21251   */\n      dup3\n        /* \"#utility.yul\":21247:21248   */\n      dup3\n        /* \"#utility.yul\":21243:21252   */\n      div\n        /* \"#utility.yul\":21238:21252   */\n      swap1\n      pop\n        /* \"#utility.yul\":21073:21258   */\n      swap3\n      swap2\n      pop\n      pop\n      jump\t// out\n        /* \"#utility.yul\":21264:21612   */\n    tag_330:\n        /* \"#utility.yul\":21304:21311   */\n      0x00\n        /* \"#utility.yul\":21327:21347   */\n      tag_799\n        /* \"#utility.yul\":21345:21346   */\n      dup3\n        /* \"#utility.yul\":21327:21347   */\n      tag_718\n      jump\t// in\n    tag_799:\n        /* \"#utility.yul\":21322:21347   */\n      swap2\n      pop\n        /* \"#utility.yul\":21361:21381   */\n      tag_800\n        /* \"#utility.yul\":21379:21380   */\n      dup4\n        /* \"#utility.yul\":21361:21381   */\n      tag_718\n      jump\t// in\n    tag_800:\n        /* \"#utility.yul\":21356:21381   */\n      swap3\n      pop\n        /* \"#utility.yul\":21549:21550   */\n      dup2\n        /* \"#utility.yul\":21481:21547   */\n      0xffffffffffffffffffffffffffffffffffffffffffffffffffffffffffffffff\n        /* \"#utility.yul\":21477:21551   */\n      div\n        /* \"#utility.yul\":21474:21475   */\n      dup4\n        /* \"#utility.yul\":21471:21552   */\n      gt\n        /* \"#utility.yul\":21466:21467   */\n      dup3\n        /* \"#utility.yul\":21459:21468   */\n      iszero\n        /* \"#utility.yul\":21452:21469   */\n      iszero\n        /* \"#utility.yul\":21448:21553   */\n      and\n        /* \"#utility.yul\":21445:21576   */\n      iszero\n      tag_801\n      jumpi\n        /* \"#utility.yul\":21556:21574   */\n      tag_802\n      tag_791\n      jump\t// in\n    tag_802:\n        /* \"#utility.yul\":21445:21576   */\n    tag_801:\n        /* \"#utility.yul\":21604:21605   */\n      dup3\n        /* \"#utility.yul\":21601:21602   */\n      dup3\n        /* \"#utility.yul\":21597:21606   */\n      mul\n        /* \"#utility.yul\":21586:21606   */\n      swap1\n      pop\n        /* \"#utility.yul\":21264:21612   */\n      swap3\n      swap2\n      pop\n      pop\n      jump\t// out\n        /* \"#utility.yul\":21618:21809   */\n    tag_278:\n        /* \"#utility.yul\":21658:21662   */\n      0x00\n        /* \"#utility.yul\":21678:21698   */\n      tag_804\n        /* \"#utility.yul\":21696:21697   */\n      dup3\n        /* \"#utility.yul\":21678:21698   */\n      tag_718\n      jump\t// in\n    tag_804:\n        /* \"#utility.yul\":21673:21698   */\n      swap2\n      pop\n        /* \"#utility.yul\":21712:21732   */\n      tag_805\n        /* \"#utility.yul\":21730:21731   */\n      dup4\n        /* \"#utility.yul\":21712:21732   */\n      tag_718\n      jump\t// in\n    tag_805:\n        /* \"#utility.yul\":21707:21732   */\n      swap3\n      pop\n        /* \"#utility.yul\":21751:21752   */\n      dup3\n        /* \"#utility.yul\":21748:21749   */\n      dup3\n        /* \"#utility.yul\":21745:21753   */\n      lt\n        /* \"#utility.yul\":21742:21776   */\n      iszero\n      tag_806\n      jumpi\n        /* \"#utility.yul\":21756:21774   */\n      tag_807\n      tag_791\n      jump\t// in\n    tag_807:\n        /* \"#utility.yul\":21742:21776   */\n    tag_806:\n        /* \"#utility.yul\":21801:21802   */\n      dup3\n        /* \"#utility.yul\":21798:21799   */\n      dup3\n        /* \"#utility.yul\":21794:21803   */\n      sub\n        /* \"#utility.yul\":21786:21803   */\n      swap1\n      pop\n        /* \"#utility.yul\":21618:21809   */\n      swap3\n      swap2\n      pop\n      pop\n      jump\t// out\n        /* \"#utility.yul\":21815:21911   */\n    tag_631:\n        /* \"#utility.yul\":21852:21859   */\n      0x00\n        /* \"#utility.yul\":21881:21905   */\n      tag_809\n        /* \"#utility.yul\":21899:21904   */\n      dup3\n        /* \"#utility.yul\":21881:21905   */\n      tag_810\n      jump\t// in\n    tag_809:\n        /* \"#utility.yul\":21870:21905   */\n      swap1\n      pop\n        /* \"#utility.yul\":21815:21911   */\n      swap2\n      swap1\n      pop\n      jump\t// out\n        /* \"#utility.yul\":21917:22007   */\n    tag_811:\n        /* \"#utility.yul\":21951:21958   */\n      0x00\n        /* \"#utility.yul\":21994:21999   */\n      dup2\n        /* \"#utility.yul\":21987:22000   */\n      iszero\n        /* \"#utility.yul\":21980:22001   */\n      iszero\n        /* \"#utility.yul\":21969:22001   */\n      swap1\n      pop\n        /* \"#utility.yul\":21917:22007   */\n      swap2\n      swap1\n      pop\n      jump\t// out\n        /* \"#utility.yul\":22013:22105   */\n    tag_639:\n        /* \"#utility.yul\":22049:22056   */\n      0x00\n        /* \"#utility.yul\":22093:22098   */\n      dup2\n        /* \"#utility.yul\":22089:22091   */\n      0x0f\n        /* \"#utility.yul\":22078:22099   */\n      signextend\n        /* \"#utility.yul\":22067:22099   */\n      swap1\n      pop\n        /* \"#utility.yul\":22013:22105   */\n      swap2\n      swap1\n      pop\n      jump\t// out\n        /* \"#utility.yul\":22111:22237   */\n    tag_810:\n        /* \"#utility.yul\":22148:22155   */\n      0x00\n        /* \"#utility.yul\":22188:22230   */\n      0xffffffffffffffffffffffffffffffffffffffff\n        /* \"#utility.yul\":22181:22186   */\n      dup3\n        /* \"#utility.yul\":22177:22231   */\n      and\n        /* \"#utility.yul\":22166:22231   */\n      swap1\n      pop\n        /* \"#utility.yul\":22111:22237   */\n      swap2\n      swap1\n      pop\n      jump\t// out\n        /* \"#utility.yul\":22243:22320   */\n    tag_718:\n        /* \"#utility.yul\":22280:22287   */\n      0x00\n        /* \"#utility.yul\":22309:22314   */\n      dup2\n        /* \"#utility.yul\":22298:22314   */\n      swap1\n      pop\n        /* \"#utility.yul\":22243:22320   */\n      swap2\n      swap1\n      pop\n      jump\t// out\n        /* \"#utility.yul\":22326:22467   */\n    tag_635:\n        /* \"#utility.yul\":22391:22400   */\n      0x00\n        /* \"#utility.yul\":22424:22461   */\n      tag_817\n        /* \"#utility.yul\":22455:22460   */\n      dup3\n        /* \"#utility.yul\":22424:22461   */\n      tag_818\n      jump\t// in\n    tag_817:\n        /* \"#utility.yul\":22411:22461   */\n      swap1\n      pop\n        /* \"#utility.yul\":22326:22467   */\n      swap2\n      swap1\n      pop\n      jump\t// out\n        /* \"#utility.yul\":22473:22617   */\n    tag_643:\n        /* \"#utility.yul\":22554:22563   */\n      0x00\n        /* \"#utility.yul\":22587:22611   */\n      tag_820\n        /* \"#utility.yul\":22605:22610   */\n      dup3\n        /* \"#utility.yul\":22587:22611   */\n      tag_718\n      jump\t// in\n    tag_820:\n        /* \"#utility.yul\":22574:22611   */\n      swap1\n      pop\n        /* \"#utility.yul\":22473:22617   */\n      swap2\n      swap1\n      pop\n      jump\t// out\n        /* \"#utility.yul\":22623:22766   */\n    tag_647:\n        /* \"#utility.yul\":22703:22712   */\n      0x00\n        /* \"#utility.yul\":22736:22760   */\n      tag_822\n        /* \"#utility.yul\":22754:22759   */\n      dup3\n        /* \"#utility.yul\":22736:22760   */\n      tag_718\n      jump\t// in\n    tag_822:\n        /* \"#utility.yul\":22723:22760   */\n      swap1\n      pop\n        /* \"#utility.yul\":22623:22766   */\n      swap2\n      swap1\n      pop\n      jump\t// out\n        /* \"#utility.yul\":22772:22915   */\n    tag_651:\n        /* \"#utility.yul\":22852:22861   */\n      0x00\n        /* \"#utility.yul\":22885:22909   */\n      tag_824\n        /* \"#utility.yul\":22903:22908   */\n      dup3\n        /* \"#utility.yul\":22885:22909   */\n      tag_718\n      jump\t// in\n    tag_824:\n        /* \"#utility.yul\":22872:22909   */\n      swap1\n      pop\n        /* \"#utility.yul\":22772:22915   */\n      swap2\n      swap1\n      pop\n      jump\t// out\n        /* \"#utility.yul\":22921:23063   */\n    tag_655:\n        /* \"#utility.yul\":23000:23009   */\n      0x00\n        /* \"#utility.yul\":23033:23057   */\n      tag_826\n        /* \"#utility.yul\":23051:23056   */\n      dup3\n        /* \"#utility.yul\":23033:23057   */\n      tag_718\n      jump\t// in\n    tag_826:\n        /* \"#utility.yul\":23020:23057   */\n      swap1\n      pop\n        /* \"#utility.yul\":22921:23063   */\n      swap2\n      swap1\n      pop\n      jump\t// out\n        /* \"#utility.yul\":23069:23195   */\n    tag_818:\n        /* \"#utility.yul\":23119:23128   */\n      0x00\n        /* \"#utility.yul\":23152:23189   */\n      tag_828\n        /* \"#utility.yul\":23183:23188   */\n      dup3\n        /* \"#utility.yul\":23152:23189   */\n      tag_829\n      jump\t// in\n    tag_828:\n        /* \"#utility.yul\":23139:23189   */\n      swap1\n      pop\n        /* \"#utility.yul\":23069:23195   */\n      swap2\n      swap1\n      pop\n      jump\t// out\n        /* \"#utility.yul\":23201:23314   */\n    tag_829:\n        /* \"#utility.yul\":23251:23260   */\n      0x00\n        /* \"#utility.yul\":23284:23308   */\n      tag_831\n        /* \"#utility.yul\":23302:23307   */\n      dup3\n        /* \"#utility.yul\":23284:23308   */\n      tag_810\n      jump\t// in\n    tag_831:\n        /* \"#utility.yul\":23271:23308   */\n      swap1\n      pop\n        /* \"#utility.yul\":23201:23314   */\n      swap2\n      swap1\n      pop\n      jump\t// out\n        /* \"#utility.yul\":23320:23474   */\n    tag_552:\n        /* \"#utility.yul\":23404:23410   */\n      dup3\n        /* \"#utility.yul\":23399:23402   */\n      dup2\n        /* \"#utility.yul\":23394:23397   */\n      dup4\n        /* \"#utility.yul\":23381:23411   */\n      calldatacopy\n        /* \"#utility.yul\":23466:23467   */\n      0x00\n        /* \"#utility.yul\":23457:23463   */\n      dup4\n        /* \"#utility.yul\":23452:23455   */\n      dup4\n        /* \"#utility.yul\":23448:23464   */\n      add\n        /* \"#utility.yul\":23441:23468   */\n      mstore\n        /* \"#utility.yul\":23320:23474   */\n      pop\n      pop\n      pop\n      jump\t// out\n        /* \"#utility.yul\":23480:23787   */\n    tag_663:\n        /* \"#utility.yul\":23548:23549   */\n      0x00\n        /* \"#utility.yul\":23558:23671   */\n    tag_834:\n        /* \"#utility.yul\":23572:23578   */\n      dup4\n        /* \"#utility.yul\":23569:23570   */\n      dup2\n        /* \"#utility.yul\":23566:23579   */\n      lt\n        /* \"#utility.yul\":23558:23671   */\n      iszero\n      tag_836\n      jumpi\n        /* \"#utility.yul\":23657:23658   */\n      dup1\n        /* \"#utility.yul\":23652:23655   */\n      dup3\n        /* \"#utility.yul\":23648:23659   */\n      add\n        /* \"#utility.yul\":23642:23660   */\n      mload\n        /* \"#utility.yul\":23638:23639   */\n      dup2\n        /* \"#utility.yul\":23633:23636   */\n      dup5\n        /* \"#utility.yul\":23629:23640   */\n      add\n        /* \"#utility.yul\":23622:23661   */\n      mstore\n        /* \"#utility.yul\":23594:23596   */\n      0x20\n        /* \"#utility.yul\":23591:23592   */\n      dup2\n        /* \"#utility.yul\":23587:23597   */\n      add\n        /* \"#utility.yul\":23582:23597   */\n      swap1\n      pop\n        /* \"#utility.yul\":23558:23671   */\n      jump(tag_834)\n    tag_836:\n        /* \"#utility.yul\":23689:23695   */\n      dup4\n        /* \"#utility.yul\":23686:23687   */\n      dup2\n        /* \"#utility.yul\":23683:23696   */\n      gt\n        /* \"#utility.yul\":23680:23781   */\n      iszero\n      tag_837\n      jumpi\n        /* \"#utility.yul\":23769:23770   */\n      0x00\n        /* \"#utility.yul\":23760:23766   */\n      dup5\n        /* \"#utility.yul\":23755:23758   */\n      dup5\n        /* \"#utility.yul\":23751:23767   */\n      add\n        /* \"#utility.yul\":23744:23771   */\n      mstore\n        /* \"#utility.yul\":23680:23781   */\n    tag_837:\n        /* \"#utility.yul\":23529:23787   */\n      pop\n        /* \"#utility.yul\":23480:23787   */\n      pop\n      pop\n      pop\n      jump\t// out\n        /* \"#utility.yul\":23793:24074   */\n    tag_775:\n        /* \"#utility.yul\":23876:23903   */\n      tag_839\n        /* \"#utility.yul\":23898:23902   */\n      dup3\n        /* \"#utility.yul\":23876:23903   */\n      tag_782\n      jump\t// in\n    tag_839:\n        /* \"#utility.yul\":23868:23874   */\n      dup2\n        /* \"#utility.yul\":23864:23904   */\n      add\n        /* \"#utility.yul\":24006:24012   */\n      dup2\n        /* \"#utility.yul\":23994:24004   */\n      dup2\n        /* \"#utility.yul\":23991:24013   */\n      lt\n        /* \"#utility.yul\":23970:23988   */\n      0xffffffffffffffff\n        /* \"#utility.yul\":23958:23968   */\n      dup3\n        /* \"#utility.yul\":23955:23989   */\n      gt\n        /* \"#utility.yul\":23952:24014   */\n      or\n        /* \"#utility.yul\":23949:24037   */\n      iszero\n      tag_840\n      jumpi\n        /* \"#utility.yul\":24017:24035   */\n      tag_841\n      tag_780\n      jump\t// in\n    tag_841:\n        /* \"#utility.yul\":23949:24037   */\n    tag_840:\n        /* \"#utility.yul\":24057:24067   */\n      dup1\n        /* \"#utility.yul\":24053:24055   */\n      0x40\n        /* \"#utility.yul\":24046:24068   */\n      mstore\n        /* \"#utility.yul\":23836:24074   */\n      pop\n        /* \"#utility.yul\":23793:24074   */\n      pop\n      pop\n      jump\t// out\n        /* \"#utility.yul\":24080:24313   */\n    tag_288:\n        /* \"#utility.yul\":24119:24122   */\n      0x00\n        /* \"#utility.yul\":24142:24166   */\n      tag_843\n        /* \"#utility.yul\":24160:24165   */\n      dup3\n        /* \"#utility.yul\":24142:24166   */\n      tag_718\n      jump\t// in\n    tag_843:\n        /* \"#utility.yul\":24133:24166   */\n      swap2\n      pop\n        /* \"#utility.yul\":24188:24254   */\n      0xffffffffffffffffffffffffffffffffffffffffffffffffffffffffffffffff\n        /* \"#utility.yul\":24181:24186   */\n      dup3\n        /* \"#utility.yul\":24178:24255   */\n      eq\n        /* \"#utility.yul\":24175:24278   */\n      iszero\n      tag_844\n      jumpi\n        /* \"#utility.yul\":24258:24276   */\n      tag_845\n      tag_791\n      jump\t// in\n    tag_845:\n        /* \"#utility.yul\":24175:24278   */\n    tag_844:\n        /* \"#utility.yul\":24305:24306   */\n      0x01\n        /* \"#utility.yul\":24298:24303   */\n      dup3\n        /* \"#utility.yul\":24294:24307   */\n      add\n        /* \"#utility.yul\":24287:24307   */\n      swap1\n      pop\n        /* \"#utility.yul\":24080:24313   */\n      swap2\n      swap1\n      pop\n      jump\t// out\n        /* \"#utility.yul\":24319:24499   */\n    tag_791:\n        /* \"#utility.yul\":24367:24444   */\n      0x4e487b7100000000000000000000000000000000000000000000000000000000\n        /* \"#utility.yul\":24364:24365   */\n      0x00\n        /* \"#utility.yul\":24357:24445   */\n      mstore\n        /* \"#utility.yul\":24464:24468   */\n      0x11\n        /* \"#utility.yul\":24461:24462   */\n      0x04\n        /* \"#utility.yul\":24454:24469   */\n      mstore\n        /* \"#utility.yul\":24488:24492   */\n      0x24\n        /* \"#utility.yul\":24485:24486   */\n      0x00\n        /* \"#utility.yul\":24478:24493   */\n      revert\n        /* \"#utility.yul\":24505:24685   */\n    tag_797:\n        /* \"#utility.yul\":24553:24630   */\n      0x4e487b7100000000000000000000000000000000000000000000000000000000\n        /* \"#utility.yul\":24550:24551   */\n      0x00\n        /* \"#utility.yul\":24543:24631   */\n      mstore\n        /* \"#utility.yul\":24650:24654   */\n      0x12\n        /* \"#utility.yul\":24647:24648   */\n      0x04\n        /* \"#utility.yul\":24640:24655   */\n      mstore\n        /* \"#utility.yul\":24674:24678   */\n      0x24\n        /* \"#utility.yul\":24671:24672   */\n      0x00\n        /* \"#utility.yul\":24664:24679   */\n      revert\n        /* \"#utility.yul\":24691:24871   */\n    tag_780:\n        /* \"#utility.yul\":24739:24816   */\n      0x4e487b7100000000000000000000000000000000000000000000000000000000\n        /* \"#utility.yul\":24736:24737   */\n      0x00\n        /* \"#utility.yul\":24729:24817   */\n      mstore\n        /* \"#utility.yul\":24836:24840   */\n      0x41\n        /* \"#utility.yul\":24833:24834   */\n      0x04\n        /* \"#utility.yul\":24826:24841   */\n      mstore\n        /* \"#utility.yul\":24860:24864   */\n      0x24\n        /* \"#utility.yul\":24857:24858   */\n      0x00\n        /* \"#utility.yul\":24850:24865   */\n      revert\n        /* \"#utility.yul\":24877:24994   */\n    tag_565:\n        /* \"#utility.yul\":24986:24987   */\n      0x00\n        /* \"#utility.yul\":24983:24984   */\n      dup1\n        /* \"#utility.yul\":24976:24988   */\n      revert\n        /* \"#utility.yul\":25000:25117   */\n    tag_550:\n        /* \"#utility.yul\":25109:25110   */\n      0x00\n        /* \"#utility.yul\":25106:25107   */\n      dup1\n        /* \"#utility.yul\":25099:25111   */\n      revert\n        /* \"#utility.yul\":25123:25240   */\n    tag_585:\n        /* \"#utility.yul\":25232:25233   */\n      0x00\n        /* \"#utility.yul\":25229:25230   */\n      dup1\n        /* \"#utility.yul\":25222:25234   */\n      revert\n        /* \"#utility.yul\":25246:25363   */\n    tag_577:\n        /* \"#utility.yul\":25355:25356   */\n      0x00\n        /* \"#utility.yul\":25352:25353   */\n      dup1\n        /* \"#utility.yul\":25345:25357   */\n      revert\n        /* \"#utility.yul\":25369:25471   */\n    tag_782:\n        /* \"#utility.yul\":25410:25416   */\n      0x00\n        /* \"#utility.yul\":25461:25463   */\n      0x1f\n        /* \"#utility.yul\":25457:25464   */\n      not\n        /* \"#utility.yul\":25452:25454   */\n      0x1f\n        /* \"#utility.yul\":25445:25450   */\n      dup4\n        /* \"#utility.yul\":25441:25455   */\n      add\n        /* \"#utility.yul\":25437:25465   */\n      and\n        /* \"#utility.yul\":25427:25465   */\n      swap1\n      pop\n        /* \"#utility.yul\":25369:25471   */\n      swap2\n      swap1\n      pop\n      jump\t// out\n        /* \"#utility.yul\":25477:25700   */\n    tag_669:\n        /* \"#utility.yul\":25617:25651   */\n      0x596f7520646f6e7420686176652074686174206d75636820746f207769746864\n        /* \"#utility.yul\":25613:25614   */\n      0x00\n        /* \"#utility.yul\":25605:25611   */\n      dup3\n        /* \"#utility.yul\":25601:25615   */\n      add\n        /* \"#utility.yul\":25594:25652   */\n      mstore\n        /* \"#utility.yul\":25686:25692   */\n      0x7261772100000000000000000000000000000000000000000000000000000000\n        /* \"#utility.yul\":25681:25683   */\n      0x20\n        /* \"#utility.yul\":25673:25679   */\n      dup3\n        /* \"#utility.yul\":25669:25684   */\n      add\n        /* \"#utility.yul\":25662:25693   */\n      mstore\n        /* \"#utility.yul\":25477:25700   */\n      pop\n      jump\t// out\n        /* \"#utility.yul\":25706:25931   */\n    tag_674:\n        /* \"#utility.yul\":25846:25880   */\n      0x4f776e61626c653a206e6577206f776e657220697320746865207a65726f2061\n        /* \"#utility.yul\":25842:25843   */\n      0x00\n        /* \"#utility.yul\":25834:25840   */\n      dup3\n        /* \"#utility.yul\":25830:25844   */\n      add\n        /* \"#utility.yul\":25823:25881   */\n      mstore\n        /* \"#utility.yul\":25915:25923   */\n      0x6464726573730000000000000000000000000000000000000000000000000000\n        /* \"#utility.yul\":25910:25912   */\n      0x20\n        /* \"#utility.yul\":25902:25908   */\n      dup3\n        /* \"#utility.yul\":25898:25913   */\n      add\n        /* \"#utility.yul\":25891:25924   */\n      mstore\n        /* \"#utility.yul\":25706:25931   */\n      pop\n      jump\t// out\n        /* \"#utility.yul\":25937:26108   */\n    tag_679:\n        /* \"#utility.yul\":26077:26100   */\n      0x546f6b656e207472616e73666572206661696c65640000000000000000000000\n        /* \"#utility.yul\":26073:26074   */\n      0x00\n        /* \"#utility.yul\":26065:26071   */\n      dup3\n        /* \"#utility.yul\":26061:26075   */\n      add\n        /* \"#utility.yul\":26054:26101   */\n      mstore\n        /* \"#utility.yul\":25937:26108   */\n      pop\n      jump\t// out\n        /* \"#utility.yul\":26114:26296   */\n    tag_684:\n        /* \"#utility.yul\":26254:26288   */\n      0x4f776e61626c653a2063616c6c6572206973206e6f7420746865206f776e6572\n        /* \"#utility.yul\":26250:26251   */\n      0x00\n        /* \"#utility.yul\":26242:26248   */\n      dup3\n        /* \"#utility.yul\":26238:26252   */\n      add\n        /* \"#utility.yul\":26231:26289   */\n      mstore\n        /* \"#utility.yul\":26114:26296   */\n      pop\n      jump\t// out\n        /* \"#utility.yul\":26302:26478   */\n    tag_689:\n        /* \"#utility.yul\":26442:26470   */\n      0x596f7520646f6e742068617665207468617420616d6f756e7421000000000000\n        /* \"#utility.yul\":26438:26439   */\n      0x00\n        /* \"#utility.yul\":26430:26436   */\n      dup3\n        /* \"#utility.yul\":26426:26440   */\n      add\n        /* \"#utility.yul\":26419:26471   */\n      mstore\n        /* \"#utility.yul\":26302:26478   */\n      pop\n      jump\t// out\n        /* \"#utility.yul\":26484:26655   */\n    tag_694:\n        /* \"#utility.yul\":26624:26647   */\n      0x506572207472616e73616374696f6e206c696d69740000000000000000000000\n        /* \"#utility.yul\":26620:26621   */\n      0x00\n        /* \"#utility.yul\":26612:26618   */\n      dup3\n        /* \"#utility.yul\":26608:26622   */\n      add\n        /* \"#utility.yul\":26601:26648   */\n      mstore\n        /* \"#utility.yul\":26484:26655   */\n      pop\n      jump\t// out\n        /* \"#utility.yul\":26661:26815   */\n    tag_699:\n        /* \"#utility.yul\":26801:26807   */\n      0x5553444300000000000000000000000000000000000000000000000000000000\n        /* \"#utility.yul\":26797:26798   */\n      0x00\n        /* \"#utility.yul\":26789:26795   */\n      dup3\n        /* \"#utility.yul\":26785:26799   */\n      add\n        /* \"#utility.yul\":26778:26808   */\n      mstore\n        /* \"#utility.yul\":26661:26815   */\n      pop\n      jump\t// out\n        /* \"#utility.yul\":26821:26983   */\n    tag_704:\n        /* \"#utility.yul\":26961:26975   */\n      0x4e6f7420756e6c6f636b65640000000000000000000000000000000000000000\n        /* \"#utility.yul\":26957:26958   */\n      0x00\n        /* \"#utility.yul\":26949:26955   */\n      dup3\n        /* \"#utility.yul\":26945:26959   */\n      add\n        /* \"#utility.yul\":26938:26976   */\n      mstore\n        /* \"#utility.yul\":26821:26983   */\n      pop\n      jump\t// out\n        /* \"#utility.yul\":26989:27170   */\n    tag_709:\n        /* \"#utility.yul\":27129:27162   */\n      0x5265656e7472616e637947756172643a207265656e7472616e742063616c6c00\n        /* \"#utility.yul\":27125:27126   */\n      0x00\n        /* \"#utility.yul\":27117:27123   */\n      dup3\n        /* \"#utility.yul\":27113:27127   */\n      add\n        /* \"#utility.yul\":27106:27163   */\n      mstore\n        /* \"#utility.yul\":26989:27170   */\n      pop\n      jump\t// out\n        /* \"#utility.yul\":27176:27396   */\n    tag_714:\n        /* \"#utility.yul\":27316:27350   */\n      0x75696e74206f766572666c6f772066726f6d206d756c7469706c69636174696f\n        /* \"#utility.yul\":27312:27313   */\n      0x00\n        /* \"#utility.yul\":27304:27310   */\n      dup3\n        /* \"#utility.yul\":27300:27314   */\n      add\n        /* \"#utility.yul\":27293:27351   */\n      mstore\n        /* \"#utility.yul\":27385:27388   */\n      0x6e00000000000000000000000000000000000000000000000000000000000000\n        /* \"#utility.yul\":27380:27382   */\n      0x20\n        /* \"#utility.yul\":27372:27378   */\n      dup3\n        /* \"#utility.yul\":27368:27383   */\n      add\n        /* \"#utility.yul\":27361:27389   */\n      mstore\n        /* \"#utility.yul\":27176:27396   */\n      pop\n      jump\t// out\n        /* \"#utility.yul\":27402:27524   */\n    tag_556:\n        /* \"#utility.yul\":27475:27499   */\n      tag_865\n        /* \"#utility.yul\":27493:27498   */\n      dup2\n        /* \"#utility.yul\":27475:27499   */\n      tag_631\n      jump\t// in\n    tag_865:\n        /* \"#utility.yul\":27468:27473   */\n      dup2\n        /* \"#utility.yul\":27465:27500   */\n      eq\n        /* \"#utility.yul\":27455:27518   */\n      tag_866\n      jumpi\n        /* \"#utility.yul\":27514:27515   */\n      0x00\n        /* \"#utility.yul\":27511:27512   */\n      dup1\n        /* \"#utility.yul\":27504:27516   */\n      revert\n        /* \"#utility.yul\":27455:27518   */\n    tag_866:\n        /* \"#utility.yul\":27402:27524   */\n      pop\n      jump\t// out\n        /* \"#utility.yul\":27530:27646   */\n    tag_560:\n        /* \"#utility.yul\":27600:27621   */\n      tag_868\n        /* \"#utility.yul\":27615:27620   */\n      dup2\n        /* \"#utility.yul\":27600:27621   */\n      tag_811\n      jump\t// in\n    tag_868:\n        /* \"#utility.yul\":27593:27598   */\n      dup2\n        /* \"#utility.yul\":27590:27622   */\n      eq\n        /* \"#utility.yul\":27580:27640   */\n      tag_869\n      jumpi\n        /* \"#utility.yul\":27636:27637   */\n      0x00\n        /* \"#utility.yul\":27633:27634   */\n      dup1\n        /* \"#utility.yul\":27626:27638   */\n      revert\n        /* \"#utility.yul\":27580:27640   */\n    tag_869:\n        /* \"#utility.yul\":27530:27646   */\n      pop\n      jump\t// out\n        /* \"#utility.yul\":27652:27774   */\n    tag_570:\n        /* \"#utility.yul\":27725:27749   */\n      tag_871\n        /* \"#utility.yul\":27743:27748   */\n      dup2\n        /* \"#utility.yul\":27725:27749   */\n      tag_718\n      jump\t// in\n    tag_871:\n        /* \"#utility.yul\":27718:27723   */\n      dup2\n        /* \"#utility.yul\":27715:27750   */\n      eq\n        /* \"#utility.yul\":27705:27768   */\n      tag_872\n      jumpi\n        /* \"#utility.yul\":27764:27765   */\n      0x00\n        /* \"#utility.yul\":27761:27762   */\n      dup1\n        /* \"#utility.yul\":27754:27766   */\n      revert\n        /* \"#utility.yul\":27705:27768   */\n    tag_872:\n        /* \"#utility.yul\":27652:27774   */\n      pop\n      jump\t// out\n\n    auxdata: 0xa26469706673582212205f0a4da71532ca7104a9d5d5b2b6b77d7156a5108f6bfed804f8adf14698b8ef64736f6c63430008070033\n}\n",
				"bytecode": {
					"linkReferences": {},
					"object": "6080604052620186a0600f5562015f90601055620927c060115573617f2e2fd72fd9d5503197092ac168c91465e7f2601360006101000a81548173ffffffffffffffffffffffffffffffffffffffff021916908373ffffffffffffffffffffffffffffffffffffffff1602179055503480156200007b57600080fd5b506001600081905550620000a462000098620003e060201b60201c565b620003e860201b60201c565b73358aa13c52544eccef6b0add0f801012adad5ee3601460006101000a81548173ffffffffffffffffffffffffffffffffffffffff021916908373ffffffffffffffffffffffffffffffffffffffff160217905550739d7f74d0c41e726ec95884e0e97fa6129e3b5e99601560006101000a81548173ffffffffffffffffffffffffffffffffffffffff021916908373ffffffffffffffffffffffffffffffffffffffff160217905550732557f4c8ba4be59eddabfd26df4ecd7f2e678f1d601660006101000a81548173ffffffffffffffffffffffffffffffffffffffff021916908373ffffffffffffffffffffffffffffffffffffffff1602179055507385f05208b6c3613f42366de27bafbd4df40a8ceb601b604051620001c89062000551565b908152602001604051809103902060000160006101000a81548173ffffffffffffffffffffffffffffffffffffffff021916908373ffffffffffffffffffffffffffffffffffffffff1602179055506006601b604051620002299062000551565b908152602001604051809103902060010181905550732a4a8ab6a0bc0d377098f8688f77003833bc1c9d601b60405162000263906200053a565b908152602001604051809103902060000160006101000a81548173ffffffffffffffffffffffffffffffffffffffff021916908373ffffffffffffffffffffffffffffffffffffffff1602179055506012601b604051620002c4906200053a565b90815260200160405180910390206001018190555073dc301622e621166bd8e82f2ca0a26c13ad0be355601b604051620002fe9062000523565b908152602001604051809103902060000160006101000a81548173ffffffffffffffffffffffffffffffffffffffff021916908373ffffffffffffffffffffffffffffffffffffffff1602179055506012601b6040516200035f9062000523565b90815260200160405180910390206001018190555073617f2e2fd72fd9d5503197092ac168c91465e7f2600860006101000a81548173ffffffffffffffffffffffffffffffffffffffff021916908373ffffffffffffffffffffffffffffffffffffffff16021790555042600d8190555062069780600e81905550620005ee565b600033905090565b6000600160009054906101000a900473ffffffffffffffffffffffffffffffffffffffff16905081600160006101000a81548173ffffffffffffffffffffffffffffffffffffffff021916908373ffffffffffffffffffffffffffffffffffffffff1602179055508173ffffffffffffffffffffffffffffffffffffffff168173ffffffffffffffffffffffffffffffffffffffff167f8be0079c531659141344cd1fd0a4f28419497f9722a3daafe3b4186f6b6457e060405160405180910390a35050565b6000620004bd60048362000568565b9150620004ca8262000573565b600482019050919050565b6000620004e460038362000568565b9150620004f1826200059c565b600382019050919050565b60006200050b60048362000568565b91506200051882620005c5565b600482019050919050565b60006200053082620004ae565b9150819050919050565b60006200054782620004d5565b9150819050919050565b60006200055e82620004fc565b9150819050919050565b600081905092915050565b7f4652415800000000000000000000000000000000000000000000000000000000600082015250565b7f4441490000000000000000000000000000000000000000000000000000000000600082015250565b7f5553444300000000000000000000000000000000000000000000000000000000600082015250565b613a9880620005fe6000396000f3fe6080604052600436106102515760003560e01c8063715018a611610139578063c0ca6fb4116100b6578063e5d980821161007a578063e5d980821461085a578063ee62086814610883578063eee05f5e146108ae578063f2fde38b146108d9578063fbbb458914610902578063fc3614431461092d57610251565b8063c0ca6fb414610792578063c0ce5889146107bd578063cbff4617146107d9578063d04d790814610804578063d82eddf21461082f57610251565b80639b19251a116100fd5780639b19251a146106c0578063a475bf48146106e9578063bcb3de5414610727578063bdad7f021461073e578063c079d7f61461076757610251565b8063715018a6146105ff57806371cd58f914610616578063862d1b35146106415780638da5cb5b1461066a57806393f7b7111461069557610251565b80631f564a06116101d257806343d32e9c1161019657806343d32e9c146104ff578063667633191461052a57806367b48c911461055557806367e927a8146105805780636f10e285146105a95780637087a7a5146105d457610251565b80631f564a061461041657806326ae486e1461044157806329982a321461046c5780632a9f0fb1146104975780633c6eb17a146104d457610251565b806312b2ed941161021957806312b2ed94146103195780631514c97614610357578063164c8501146103945780631a30e872146103bd5780631bc9cc45146103fa57610251565b8063018a25e81461025657806302ac816814610281578063047729b0146102985780630ccaf04f146102c35780630f65de3e146102ee575b600080fd5b34801561026257600080fd5b5061026b610956565b60405161027891906133fa565b60405180910390f35b34801561028d57600080fd5b50610296610a74565b005b3480156102a457600080fd5b506102ad610de0565b6040516102ba9190613185565b60405180910390f35b3480156102cf57600080fd5b506102d8610e06565b6040516102e591906133fa565b60405180910390f35b3480156102fa57600080fd5b50610303610f60565b60405161031091906133fa565b60405180910390f35b34801561032557600080fd5b50610340600480360381019061033b9190612cbf565b610fee565b60405161034e929190613415565b60405180910390f35b34801561036357600080fd5b5061037e60048036038101906103799190612e2d565b611012565b60405161038b91906133fa565b60405180910390f35b3480156103a057600080fd5b506103bb60048036038101906103b69190612e2d565b61102a565b005b3480156103c957600080fd5b506103e460048036038101906103df9190612e2d565b6111a8565b6040516103f191906133fa565b60405180910390f35b610414600480360381019061040f9190612e2d565b6111c0565b005b34801561042257600080fd5b5061042b611358565b60405161043891906133fa565b60405180910390f35b34801561044d57600080fd5b5061045661141d565b60405161046391906132a4565b60405180910390f35b34801561047857600080fd5b50610481611443565b60405161048e9190613185565b60405180910390f35b3480156104a357600080fd5b506104be60048036038101906104b99190612e2d565b611469565b6040516104cb91906133fa565b60405180910390f35b3480156104e057600080fd5b506104e9611481565b6040516104f691906133fa565b60405180910390f35b34801561050b57600080fd5b50610514611487565b60405161052191906133fa565b60405180910390f35b34801561053657600080fd5b5061053f6115a5565b60405161054c91906133fa565b60405180910390f35b34801561056157600080fd5b5061056a6115ab565b60405161057791906133fa565b60405180910390f35b34801561058c57600080fd5b506105a760048036038101906105a29190612e2d565b6115b1565b005b3480156105b557600080fd5b506105be611662565b6040516105cb91906132bf565b60405180910390f35b3480156105e057600080fd5b506105e9611675565b6040516105f691906132a4565b60405180910390f35b34801561060b57600080fd5b5061061461169b565b005b34801561062257600080fd5b5061062b611723565b60405161063891906133fa565b60405180910390f35b34801561064d57600080fd5b5061066860048036038101906106639190612e87565b6117da565b005b34801561067657600080fd5b5061067f611cdb565b60405161068c9190613185565b60405180910390f35b3480156106a157600080fd5b506106aa611d05565b6040516106b791906133fa565b60405180910390f35b3480156106cc57600080fd5b506106e760048036038101906106e29190612cbf565b611e5f565b005b3480156106f557600080fd5b50610710600480360381019061070b9190612d75565b611ede565b60405161071e92919061327b565b60405180910390f35b34801561073357600080fd5b5061073c611f38565b005b34801561074a57600080fd5b5061076560048036038101906107609190612cec565b612036565b005b34801561077357600080fd5b5061077c6121b7565b6040516107899190613185565b60405180910390f35b34801561079e57600080fd5b506107a76121dd565b6040516107b491906132a4565b60405180910390f35b6107d760048036038101906107d29190612ee3565b612203565b005b3480156107e557600080fd5b506107ee61257c565b6040516107fb91906133fa565b60405180910390f35b34801561081057600080fd5b50610819612582565b60405161082691906132a4565b60405180910390f35b34801561083b57600080fd5b506108446125a8565b60405161085191906133fa565b60405180910390f35b34801561086657600080fd5b50610881600480360381019061087c9190612dbe565b61260b565b005b34801561088f57600080fd5b50610898612712565b6040516108a591906133fa565b60405180910390f35b3480156108ba57600080fd5b506108c3612718565b6040516108d09190613185565b60405180910390f35b3480156108e557600080fd5b5061090060048036038101906108fb9190612cbf565b61273e565b005b34801561090e57600080fd5b50610917612836565b6040516109249190613185565b60405180910390f35b34801561093957600080fd5b50610954600480360381019061094f9190612e2d565b61285c565b005b6000610a6f3073ffffffffffffffffffffffffffffffffffffffff16631f564a066040518163ffffffff1660e01b815260040160206040518083038186803b1580156109a157600080fd5b505afa1580156109b5573d6000803e3d6000fd5b505050506040513d601f19601f820116820180604052508101906109d99190612e5a565b3073ffffffffffffffffffffffffffffffffffffffff166393f7b7116040518163ffffffff1660e01b815260040160206040518083038186803b158015610a1f57600080fd5b505afa158015610a33573d6000803e3d6000fd5b505050506040513d601f19601f82011682018060405250810190610a579190612e5a565b6710a741a462780000610a6a91906134bb565b6128f0565b905090565b610a7c612939565b73ffffffffffffffffffffffffffffffffffffffff16610a9a611cdb565b73ffffffffffffffffffffffffffffffffffffffff1614610af0576040517f08c379a0000000000000000000000000000000000000000000000000000000008152600401610ae79061333a565b60405180910390fd5b601460009054906101000a900473ffffffffffffffffffffffffffffffffffffffff1673ffffffffffffffffffffffffffffffffffffffff166340c10f1973617f2e2fd72fd9d5503197092ac168c91465e7f26901fe36793670c0c820006040518363ffffffff1660e01b8152600401610b6b929190613252565b600060405180830381600087803b158015610b8557600080fd5b505af1158015610b99573d6000803e3d6000fd5b50505050601460009054906101000a900473ffffffffffffffffffffffffffffffffffffffff1673ffffffffffffffffffffffffffffffffffffffff166340c10f197317f6ad8ef982297579c203069c1dbffe4348c37269097782bfbf68ab74e0006040518363ffffffff1660e01b8152600401610c18929190613200565b600060405180830381600087803b158015610c3257600080fd5b505af1158015610c46573d6000803e3d6000fd5b50505050601460009054906101000a900473ffffffffffffffffffffffffffffffffffffffff1673ffffffffffffffffffffffffffffffffffffffff166340c10f19735c6b0f7bf3e7ce046039bd8fabdfd3f9f50216786909f7105e1033c3e8a0006040518363ffffffff1660e01b8152600401610cc5929190613229565b600060405180830381600087803b158015610cdf57600080fd5b505af1158015610cf3573d6000803e3d6000fd5b50505050601560009054906101000a900473ffffffffffffffffffffffffffffffffffffffff1673ffffffffffffffffffffffffffffffffffffffff166340c10f193069156cc997060d3025a0006040518363ffffffff1660e01b8152600401610d5e9291906131d7565b600060405180830381600087803b158015610d7857600080fd5b505af1158015610d8c573d6000803e3d6000fd5b5050505069156cc997060d3025a000601860008081526020019081526020016000208190555069156cc997060d3025a000601a6000808152602001908152602001600020819055506208b290600c81905550565b600a60009054906101000a900473ffffffffffffffffffffffffffffffffffffffff1681565b60008060008062015180600e54610e1d9190613511565b9050600062015180600d5442610e33919061359c565b610e3d9190613511565b9050600080821415610e6457601a6000808152602001908152602001600020549350610eb0565b8282610e70919061359c565b90505b81811015610eaf57601a60008281526020019081526020016000205484610e9a91906134bb565b93508080610ea790613716565b915050610e73565b5b610f373073ffffffffffffffffffffffffffffffffffffffff1663d82eddf26040518163ffffffff1660e01b815260040160206040518083038186803b158015610ef957600080fd5b505afa158015610f0d573d6000803e3d6000fd5b505050506040513d601f19601f82011682018060405250810190610f319190612e5a565b85612941565b9450670429d069189e0000851115610f5557670429d069189e000094505b849550505050505090565b60008062015180600d5442610f75919061359c565b610f7f9190613511565b905060008062015180600e54610f959190613511565b905060008184610fa5919061359c565b90505b83811015610fe457601a60008281526020019081526020016000205483610fcf91906134bb565b92508080610fdc90613716565b915050610fa8565b8294505050505090565b601c6020528060005260406000206000915090508060000154908060010154905082565b60196020528060005260406000206000915090505481565b601c60003373ffffffffffffffffffffffffffffffffffffffff1673ffffffffffffffffffffffffffffffffffffffff1681526020019081526020016000206001015481106110ae576040517f08c379a00000000000000000000000000000000000000000000000000000000081526004016110a5906132da565b60405180910390fd5b80601c60003373ffffffffffffffffffffffffffffffffffffffff1673ffffffffffffffffffffffffffffffffffffffff1681526020019081526020016000206001016000828254611100919061359c565b925050819055506000601c60003373ffffffffffffffffffffffffffffffffffffffff1673ffffffffffffffffffffffffffffffffffffffff1681526020019081526020016000206001015414156111a557601c60003373ffffffffffffffffffffffffffffffffffffffff1673ffffffffffffffffffffffffffffffffffffffff168152602001908152602001600020600080820160009055600182016000905550505b50565b601a6020528060005260406000206000915090505481565b6000601460009054906101000a900473ffffffffffffffffffffffffffffffffffffffff1673ffffffffffffffffffffffffffffffffffffffff166370a08231336040518263ffffffff1660e01b815260040161121d9190613185565b60206040518083038186803b15801561123557600080fd5b505afa158015611249573d6000803e3d6000fd5b505050506040513d601f19601f8201168201806040525081019061126d9190612e5a565b90508181116112b1576040517f08c379a00000000000000000000000000000000000000000000000000000000081526004016112a89061335a565b60405180910390fd5b6112df601460009054906101000a900473ffffffffffffffffffffffffffffffffffffffff16333085612982565b600062015180600d54426112f3919061359c565b6112fd9190613511565b90508260196000838152602001908152602001600020600082825461132291906134bb565b9250508190555082601a6000838152602001908152602001600020600082825461134c919061359c565b92505081905550505050565b6000611418670de0b6b3a7640000600c546113739190613542565b601460009054906101000a900473ffffffffffffffffffffffffffffffffffffffff1673ffffffffffffffffffffffffffffffffffffffff166318160ddd6040518163ffffffff1660e01b815260040160206040518083038186803b1580156113db57600080fd5b505afa1580156113ef573d6000803e3d6000fd5b505050506040513d601f19601f820116820180604052508101906114139190612e5a565b612941565b905090565b601460009054906101000a900473ffffffffffffffffffffffffffffffffffffffff1681565b600b60009054906101000a900473ffffffffffffffffffffffffffffffffffffffff1681565b60186020528060005260406000206000915090505481565b600d5481565b60006115a03073ffffffffffffffffffffffffffffffffffffffff16631f564a066040518163ffffffff1660e01b815260040160206040518083038186803b1580156114d257600080fd5b505afa1580156114e6573d6000803e3d6000fd5b505050506040513d601f19601f8201168201806040525081019061150a9190612e5a565b3073ffffffffffffffffffffffffffffffffffffffff16630ccaf04f6040518163ffffffff1660e01b815260040160206040518083038186803b15801561155057600080fd5b505afa158015611564573d6000803e3d6000fd5b505050506040513d601f19601f820116820180604052508101906115889190612e5a565b670c7d713b49da000061159b919061359c565b6128f0565b905090565b600c5481565b600e5481565b620d2f00426115c091906134bb565b601c60003373ffffffffffffffffffffffffffffffffffffffff1673ffffffffffffffffffffffffffffffffffffffff1681526020019081526020016000206000018190555080601c60003373ffffffffffffffffffffffffffffffffffffffff1673ffffffffffffffffffffffffffffffffffffffff168152602001908152602001600020600101600082825461165891906134bb565b9250508190555050565b601260009054906101000a9004600f0b81565b601760009054906101000a900473ffffffffffffffffffffffffffffffffffffffff1681565b6116a3612939565b73ffffffffffffffffffffffffffffffffffffffff166116c1611cdb565b73ffffffffffffffffffffffffffffffffffffffff1614611717576040517f08c379a000000000000000000000000000000000000000000000000000000000815260040161170e9061333a565b60405180910390fd5b6117216000612a5c565b565b60008060008062015180600e5461173a9190613511565b9050600062015180600d5442611750919061359c565b61175a9190613511565b905060008114156117845760186000808152602001908152602001600020549450505050506117d7565b8181611790919061359c565b92505b808310156117cf576018600084815260200190815260200160002054846117ba91906134bb565b935082806117c790613716565b935050611793565b839450505050505b90565b60026000541415611820576040517f08c379a0000000000000000000000000000000000000000000000000000000008152600401611817906133ba565b60405180910390fd5b6002600081905550601b816040516118389190613159565b908152602001604051809103902060000160009054906101000a900473ffffffffffffffffffffffffffffffffffffffff16601760006101000a81548173ffffffffffffffffffffffffffffffffffffffff021916908373ffffffffffffffffffffffffffffffffffffffff1602179055506203d0908211156118f0576040517f08c379a00000000000000000000000000000000000000000000000000000000081526004016118e79061337a565b60405180910390fd5b6000601760009054906101000a900473ffffffffffffffffffffffffffffffffffffffff1673ffffffffffffffffffffffffffffffffffffffff166370a08231336040518263ffffffff1660e01b815260040161194d9190613185565b60206040518083038186803b15801561196557600080fd5b505afa158015611979573d6000803e3d6000fd5b505050506040513d601f19601f8201168201806040525081019061199d9190612e5a565b90508281116119e1576040517f08c379a00000000000000000000000000000000000000000000000000000000081526004016119d89061335a565b60405180910390fd5b6000601b836040516119f39190613159565b908152602001604051809103902060010154611a8c853073ffffffffffffffffffffffffffffffffffffffff1663018a25e86040518163ffffffff1660e01b815260040160206040518083038186803b158015611a4f57600080fd5b505afa158015611a63573d6000803e3d6000fd5b505050506040513d601f19601f82011682018060405250810190611a879190612e5a565b6128f0565b611a969190613542565b9050611ac6601760009054906101000a900473ffffffffffffffffffffffffffffffffffffffff16333084612982565b601460009054906101000a900473ffffffffffffffffffffffffffffffffffffffff1673ffffffffffffffffffffffffffffffffffffffff166340c10f1933670de0b6b3a764000087611b199190613542565b6040518363ffffffff1660e01b8152600401611b3692919061327b565b600060405180830381600087803b158015611b5057600080fd5b505af1158015611b64573d6000803e3d6000fd5b50505050601560009054906101000a900473ffffffffffffffffffffffffffffffffffffffff1673ffffffffffffffffffffffffffffffffffffffff166340c10f1930670de0b6b3a764000087611bbb9190613542565b6040518363ffffffff1660e01b8152600401611bd892919061327b565b600060405180830381600087803b158015611bf257600080fd5b505af1158015611c06573d6000803e3d6000fd5b50505050600062015180600d5442611c1e919061359c565b611c289190613511565b905084601860008381526020019081526020016000206000828254611c4d91906134bb565b9250508190555084601a60008381526020019081526020016000206000828254611c7791906134bb565b925050819055503373ffffffffffffffffffffffffffffffffffffffff167ff633443b01504d269657083d48bb6de98e089cfff672b47fefbed21608b5c77986604051611cc491906133fa565b60405180910390a250505060016000819055505050565b6000600160009054906101000a900473ffffffffffffffffffffffffffffffffffffffff16905090565b60008060008062015180600e54611d1c9190613511565b9050600062015180600d5442611d32919061359c565b611d3c9190613511565b9050600080821415611d6357601a6000808152602001908152602001600020549350611daf565b8282611d6f919061359c565b90505b81811015611dae57601a60008281526020019081526020016000205484611d9991906134bb565b93508080611da690613716565b915050611d72565b5b611e363073ffffffffffffffffffffffffffffffffffffffff166371cd58f96040518163ffffffff1660e01b815260040160206040518083038186803b158015611df857600080fd5b505afa158015611e0c573d6000803e3d6000fd5b505050506040513d601f19601f82011682018060405250810190611e309190612e5a565b85612941565b9450670429d069189e0000851115611e5457670429d069189e000094505b849550505050505090565b611e67612939565b73ffffffffffffffffffffffffffffffffffffffff16611e85611cdb565b73ffffffffffffffffffffffffffffffffffffffff1614611edb576040517f08c379a0000000000000000000000000000000000000000000000000000000008152600401611ed29061333a565b60405180910390fd5b50565b601b818051602081018201805184825260208301602085012081835280955050505050506000915090508060000160009054906101000a900473ffffffffffffffffffffffffffffffffffffffff16908060010154905082565b611f40612939565b73ffffffffffffffffffffffffffffffffffffffff16611f5e611cdb565b73ffffffffffffffffffffffffffffffffffffffff1614611fb4576040517f08c379a0000000000000000000000000000000000000000000000000000000008152600401611fab9061333a565b60405180910390fd5b601b604051611fc290613170565b908152602001604051809103902060000160009054906101000a900473ffffffffffffffffffffffffffffffffffffffff16601760006101000a81548173ffffffffffffffffffffffffffffffffffffffff021916908373ffffffffffffffffffffffffffffffffffffffff160217905550565b601c60008373ffffffffffffffffffffffffffffffffffffffff1673ffffffffffffffffffffffffffffffffffffffff168152602001908152602001600020600001544210156120bb576040517f08c379a00000000000000000000000000000000000000000000000000000000081526004016120b29061339a565b60405180910390fd5b601b816040516120cb9190613159565b908152602001604051809103902060000160009054906101000a900473ffffffffffffffffffffffffffffffffffffffff16601760006101000a81548173ffffffffffffffffffffffffffffffffffffffff021916908373ffffffffffffffffffffffffffffffffffffffff1602179055506000601c60008473ffffffffffffffffffffffffffffffffffffffff1673ffffffffffffffffffffffffffffffffffffffff1681526020019081526020016000206001015490506121b2601760009054906101000a900473ffffffffffffffffffffffffffffffffffffffff16303384612982565b505050565b600960009054906101000a900473ffffffffffffffffffffffffffffffffffffffff1681565b601660009054906101000a900473ffffffffffffffffffffffffffffffffffffffff1681565b601b816040516122139190613159565b908152602001604051809103902060000160009054906101000a900473ffffffffffffffffffffffffffffffffffffffff16601760006101000a81548173ffffffffffffffffffffffffffffffffffffffff021916908373ffffffffffffffffffffffffffffffffffffffff1602179055506000601460009054906101000a900473ffffffffffffffffffffffffffffffffffffffff1673ffffffffffffffffffffffffffffffffffffffff166370a08231336040518263ffffffff1660e01b81526004016122e29190613185565b60206040518083038186803b1580156122fa57600080fd5b505afa15801561230e573d6000803e3d6000fd5b505050506040513d601f19601f820116820180604052508101906123329190612e5a565b9050838111612376576040517f08c379a000000000000000000000000000000000000000000000000000000000815260040161236d9061335a565b60405180910390fd5b601760009054906101000a900473ffffffffffffffffffffffffffffffffffffffff1673ffffffffffffffffffffffffffffffffffffffff1663a9059cbb33670de0b6b3a764000060016123ca9190613542565b876123d591906134bb565b6040518363ffffffff1660e01b81526004016123f292919061327b565b602060405180830381600087803b15801561240c57600080fd5b505af1158015612420573d6000803e3d6000fd5b505050506040513d601f19601f820116820180604052508101906124449190612d48565b50612473601460009054906101000a900473ffffffffffffffffffffffffffffffffffffffff16333087612982565b6000843073ffffffffffffffffffffffffffffffffffffffff166343d32e9c6040518163ffffffff1660e01b815260040160206040518083038186803b1580156124bc57600080fd5b505afa1580156124d0573d6000803e3d6000fd5b505050506040513d601f19601f820116820180604052508101906124f49190612e5a565b6124fe9190613542565b9050600062015180600d5442612514919061359c565b61251e9190613511565b90508560196000838152602001908152602001600020600082825461254391906134bb565b9250508190555085601a6000838152602001908152602001600020600082825461256d919061359c565b92505081905550505050505050565b60035481565b601560009054906101000a900473ffffffffffffffffffffffffffffffffffffffff1681565b60008060008062015180600e546125bf9190613511565b9050600091505b80821015612602576019600083815260200190815260200160002054836125ed91906134bb565b925081806125fa90613716565b9250506125c6565b82935050505090565b612613612939565b73ffffffffffffffffffffffffffffffffffffffff16612631611cdb565b73ffffffffffffffffffffffffffffffffffffffff1614612687576040517f08c379a000000000000000000000000000000000000000000000000000000000815260040161267e9061333a565b60405180910390fd5b81601b846040516126989190613159565b908152602001604051809103902060000160006101000a81548173ffffffffffffffffffffffffffffffffffffffff021916908373ffffffffffffffffffffffffffffffffffffffff16021790555080601b846040516126f89190613159565b908152602001604051809103902060010181905550505050565b60025481565b601360009054906101000a900473ffffffffffffffffffffffffffffffffffffffff1681565b612746612939565b73ffffffffffffffffffffffffffffffffffffffff16612764611cdb565b73ffffffffffffffffffffffffffffffffffffffff16146127ba576040517f08c379a00000000000000000000000000000000000000000000000000000000081526004016127b19061333a565b60405180910390fd5b600073ffffffffffffffffffffffffffffffffffffffff168173ffffffffffffffffffffffffffffffffffffffff16141561282a576040517f08c379a0000000000000000000000000000000000000000000000000000000008152600401612821906132fa565b60405180910390fd5b61283381612a5c565b50565b600860009054906101000a900473ffffffffffffffffffffffffffffffffffffffff1681565b612864612939565b73ffffffffffffffffffffffffffffffffffffffff16612882611cdb565b73ffffffffffffffffffffffffffffffffffffffff16146128d8576040517f08c379a00000000000000000000000000000000000000000000000000000000081526004016128cf9061333a565b60405180910390fd5b62015180816128e79190613542565b600e8190555050565b6000806128fd8484612b22565b9050670de0b6b3a7640000612926826002670de0b6b3a76400006129219190613511565b612b9d565b6129309190613511565b91505092915050565b600033905090565b60008061295684670de0b6b3a7640000612b22565b90508261296f8260028661296a9190613511565b612b9d565b6129799190613511565b91505092915050565b60008473ffffffffffffffffffffffffffffffffffffffff166323b872dd8585856040518463ffffffff1660e01b81526004016129c1939291906131a0565b602060405180830381600087803b1580156129db57600080fd5b505af11580156129ef573d6000803e3d6000fd5b505050506040513d601f19601f82011682018060405250810190612a139190612d48565b905080612a55576040517f08c379a0000000000000000000000000000000000000000000000000000000008152600401612a4c9061331a565b60405180910390fd5b5050505050565b6000600160009054906101000a900473ffffffffffffffffffffffffffffffffffffffff16905081600160006101000a81548173ffffffffffffffffffffffffffffffffffffffff021916908373ffffffffffffffffffffffffffffffffffffffff1602179055508173ffffffffffffffffffffffffffffffffffffffff168173ffffffffffffffffffffffffffffffffffffffff167f8be0079c531659141344cd1fd0a4f28419497f9722a3daafe3b4186f6b6457e060405160405180910390a35050565b600080831415612b355760009050612b97565b60008284612b439190613542565b9050828482612b529190613511565b14612b92576040517f08c379a0000000000000000000000000000000000000000000000000000000008152600401612b89906133da565b60405180910390fd5b809150505b92915050565b6000808284612bac91906134bb565b905083811015612bf1576040517f08c379a0000000000000000000000000000000000000000000000000000000008152600401612be8906133da565b60405180910390fd5b8091505092915050565b6000612c0e612c0984613463565b61343e565b905082815260208101848484011115612c2a57612c296137f1565b5b612c358482856136a3565b509392505050565b600081359050612c4c81613a1d565b92915050565b600081519050612c6181613a34565b92915050565b600082601f830112612c7c57612c7b6137ec565b5b8135612c8c848260208601612bfb565b91505092915050565b600081359050612ca481613a4b565b92915050565b600081519050612cb981613a4b565b92915050565b600060208284031215612cd557612cd46137fb565b5b6000612ce384828501612c3d565b91505092915050565b60008060408385031215612d0357612d026137fb565b5b6000612d1185828601612c3d565b925050602083013567ffffffffffffffff811115612d3257612d316137f6565b5b612d3e85828601612c67565b9150509250929050565b600060208284031215612d5e57612d5d6137fb565b5b6000612d6c84828501612c52565b91505092915050565b600060208284031215612d8b57612d8a6137fb565b5b600082013567ffffffffffffffff811115612da957612da86137f6565b5b612db584828501612c67565b91505092915050565b600080600060608486031215612dd757612dd66137fb565b5b600084013567ffffffffffffffff811115612df557612df46137f6565b5b612e0186828701612c67565b9350506020612e1286828701612c3d565b9250506040612e2386828701612c95565b9150509250925092565b600060208284031215612e4357612e426137fb565b5b6000612e5184828501612c95565b91505092915050565b600060208284031215612e7057612e6f6137fb565b5b6000612e7e84828501612caa565b91505092915050565b60008060408385031215612e9e57612e9d6137fb565b5b6000612eac85828601612c95565b925050602083013567ffffffffffffffff811115612ecd57612ecc6137f6565b5b612ed985828601612c67565b9150509250929050565b600080600060608486031215612efc57612efb6137fb565b5b6000612f0a86828701612c95565b9350506020612f1b86828701612c95565b925050604084013567ffffffffffffffff811115612f3c57612f3b6137f6565b5b612f4886828701612c67565b9150509250925092565b612f5b816135d0565b82525050565b612f6a81613625565b82525050565b612f79816135ee565b82525050565b612f8881613637565b82525050565b612f9781613649565b82525050565b612fa68161365b565b82525050565b612fb58161366d565b82525050565b6000612fc682613494565b612fd081856134b0565b9350612fe08185602086016136b2565b80840191505092915050565b6000612ff960248361349f565b915061300482613811565b604082019050919050565b600061301c60268361349f565b915061302782613860565b604082019050919050565b600061303f60158361349f565b915061304a826138af565b602082019050919050565b600061306260208361349f565b915061306d826138d8565b602082019050919050565b6000613085601a8361349f565b915061309082613901565b602082019050919050565b60006130a860158361349f565b91506130b38261392a565b602082019050919050565b60006130cb6004836134b0565b91506130d682613953565b600482019050919050565b60006130ee600c8361349f565b91506130f98261397c565b602082019050919050565b6000613111601f8361349f565b915061311c826139a5565b602082019050919050565b600061313460218361349f565b915061313f826139ce565b604082019050919050565b6131538161361b565b82525050565b60006131658284612fbb565b915081905092915050565b600061317b826130be565b9150819050919050565b600060208201905061319a6000830184612f52565b92915050565b60006060820190506131b56000830186612f52565b6131c26020830185612f52565b6131cf604083018461314a565b949350505050565b60006040820190506131ec6000830185612f52565b6131f96020830184612f7f565b9392505050565b60006040820190506132156000830185612f52565b6132226020830184612f8e565b9392505050565b600060408201905061323e6000830185612f52565b61324b6020830184612f9d565b9392505050565b60006040820190506132676000830185612f52565b6132746020830184612fac565b9392505050565b60006040820190506132906000830185612f52565b61329d602083018461314a565b9392505050565b60006020820190506132b96000830184612f61565b92915050565b60006020820190506132d46000830184612f70565b92915050565b600060208201905081810360008301526132f381612fec565b9050919050565b600060208201905081810360008301526133138161300f565b9050919050565b6000602082019050818103600083015261333381613032565b9050919050565b6000602082019050818103600083015261335381613055565b9050919050565b6000602082019050818103600083015261337381613078565b9050919050565b600060208201905081810360008301526133938161309b565b9050919050565b600060208201905081810360008301526133b3816130e1565b9050919050565b600060208201905081810360008301526133d381613104565b9050919050565b600060208201905081810360008301526133f381613127565b9050919050565b600060208201905061340f600083018461314a565b92915050565b600060408201905061342a600083018561314a565b613437602083018461314a565b9392505050565b6000613448613459565b905061345482826136e5565b919050565b6000604051905090565b600067ffffffffffffffff82111561347e5761347d6137bd565b5b61348782613800565b9050602081019050919050565b600081519050919050565b600082825260208201905092915050565b600081905092915050565b60006134c68261361b565b91506134d18361361b565b9250827fffffffffffffffffffffffffffffffffffffffffffffffffffffffffffffffff038211156135065761350561375f565b5b828201905092915050565b600061351c8261361b565b91506135278361361b565b9250826135375761353661378e565b5b828204905092915050565b600061354d8261361b565b91506135588361361b565b9250817fffffffffffffffffffffffffffffffffffffffffffffffffffffffffffffffff04831182151516156135915761359061375f565b5b828202905092915050565b60006135a78261361b565b91506135b28361361b565b9250828210156135c5576135c461375f565b5b828203905092915050565b60006135db826135fb565b9050919050565b60008115159050919050565b600081600f0b9050919050565b600073ffffffffffffffffffffffffffffffffffffffff82169050919050565b6000819050919050565b60006136308261367f565b9050919050565b60006136428261361b565b9050919050565b60006136548261361b565b9050919050565b60006136668261361b565b9050919050565b60006136788261361b565b9050919050565b600061368a82613691565b9050919050565b600061369c826135fb565b9050919050565b82818337600083830152505050565b60005b838110156136d05780820151818401526020810190506136b5565b838111156136df576000848401525b50505050565b6136ee82613800565b810181811067ffffffffffffffff8211171561370d5761370c6137bd565b5b80604052505050565b60006137218261361b565b91507fffffffffffffffffffffffffffffffffffffffffffffffffffffffffffffffff8214156137545761375361375f565b5b600182019050919050565b7f4e487b7100000000000000000000000000000000000000000000000000000000600052601160045260246000fd5b7f4e487b7100000000000000000000000000000000000000000000000000000000600052601260045260246000fd5b7f4e487b7100000000000000000000000000000000000000000000000000000000600052604160045260246000fd5b600080fd5b600080fd5b600080fd5b600080fd5b6000601f19601f8301169050919050565b7f596f7520646f6e7420686176652074686174206d75636820746f20776974686460008201527f7261772100000000000000000000000000000000000000000000000000000000602082015250565b7f4f776e61626c653a206e6577206f776e657220697320746865207a65726f206160008201527f6464726573730000000000000000000000000000000000000000000000000000602082015250565b7f546f6b656e207472616e73666572206661696c65640000000000000000000000600082015250565b7f4f776e61626c653a2063616c6c6572206973206e6f7420746865206f776e6572600082015250565b7f596f7520646f6e742068617665207468617420616d6f756e7421000000000000600082015250565b7f506572207472616e73616374696f6e206c696d69740000000000000000000000600082015250565b7f5553444300000000000000000000000000000000000000000000000000000000600082015250565b7f4e6f7420756e6c6f636b65640000000000000000000000000000000000000000600082015250565b7f5265656e7472616e637947756172643a207265656e7472616e742063616c6c00600082015250565b7f75696e74206f766572666c6f772066726f6d206d756c7469706c69636174696f60008201527f6e00000000000000000000000000000000000000000000000000000000000000602082015250565b613a26816135d0565b8114613a3157600080fd5b50565b613a3d816135e2565b8114613a4857600080fd5b50565b613a548161361b565b8114613a5f57600080fd5b5056fea26469706673582212205f0a4da71532ca7104a9d5d5b2b6b77d7156a5108f6bfed804f8adf14698b8ef64736f6c63430008070033",
					"opcodes": "PUSH1 0x80 PUSH1 0x40 MSTORE PUSH3 0x186A0 PUSH1 0xF SSTORE PUSH3 0x15F90 PUSH1 0x10 SSTORE PUSH3 0x927C0 PUSH1 0x11 SSTORE PUSH20 0x617F2E2FD72FD9D5503197092AC168C91465E7F2 PUSH1 0x13 PUSH1 0x0 PUSH2 0x100 EXP DUP2 SLOAD DUP2 PUSH20 0xFFFFFFFFFFFFFFFFFFFFFFFFFFFFFFFFFFFFFFFF MUL NOT AND SWAP1 DUP4 PUSH20 0xFFFFFFFFFFFFFFFFFFFFFFFFFFFFFFFFFFFFFFFF AND MUL OR SWAP1 SSTORE POP CALLVALUE DUP1 ISZERO PUSH3 0x7B JUMPI PUSH1 0x0 DUP1 REVERT JUMPDEST POP PUSH1 0x1 PUSH1 0x0 DUP2 SWAP1 SSTORE POP PUSH3 0xA4 PUSH3 0x98 PUSH3 0x3E0 PUSH1 0x20 SHL PUSH1 0x20 SHR JUMP JUMPDEST PUSH3 0x3E8 PUSH1 0x20 SHL PUSH1 0x20 SHR JUMP JUMPDEST PUSH20 0x358AA13C52544ECCEF6B0ADD0F801012ADAD5EE3 PUSH1 0x14 PUSH1 0x0 PUSH2 0x100 EXP DUP2 SLOAD DUP2 PUSH20 0xFFFFFFFFFFFFFFFFFFFFFFFFFFFFFFFFFFFFFFFF MUL NOT AND SWAP1 DUP4 PUSH20 0xFFFFFFFFFFFFFFFFFFFFFFFFFFFFFFFFFFFFFFFF AND MUL OR SWAP1 SSTORE POP PUSH20 0x9D7F74D0C41E726EC95884E0E97FA6129E3B5E99 PUSH1 0x15 PUSH1 0x0 PUSH2 0x100 EXP DUP2 SLOAD DUP2 PUSH20 0xFFFFFFFFFFFFFFFFFFFFFFFFFFFFFFFFFFFFFFFF MUL NOT AND SWAP1 DUP4 PUSH20 0xFFFFFFFFFFFFFFFFFFFFFFFFFFFFFFFFFFFFFFFF AND MUL OR SWAP1 SSTORE POP PUSH20 0x2557F4C8BA4BE59EDDABFD26DF4ECD7F2E678F1D PUSH1 0x16 PUSH1 0x0 PUSH2 0x100 EXP DUP2 SLOAD DUP2 PUSH20 0xFFFFFFFFFFFFFFFFFFFFFFFFFFFFFFFFFFFFFFFF MUL NOT AND SWAP1 DUP4 PUSH20 0xFFFFFFFFFFFFFFFFFFFFFFFFFFFFFFFFFFFFFFFF AND MUL OR SWAP1 SSTORE POP PUSH20 0x85F05208B6C3613F42366DE27BAFBD4DF40A8CEB PUSH1 0x1B PUSH1 0x40 MLOAD PUSH3 0x1C8 SWAP1 PUSH3 0x551 JUMP JUMPDEST SWAP1 DUP2 MSTORE PUSH1 0x20 ADD PUSH1 0x40 MLOAD DUP1 SWAP2 SUB SWAP1 KECCAK256 PUSH1 0x0 ADD PUSH1 0x0 PUSH2 0x100 EXP DUP2 SLOAD DUP2 PUSH20 0xFFFFFFFFFFFFFFFFFFFFFFFFFFFFFFFFFFFFFFFF MUL NOT AND SWAP1 DUP4 PUSH20 0xFFFFFFFFFFFFFFFFFFFFFFFFFFFFFFFFFFFFFFFF AND MUL OR SWAP1 SSTORE POP PUSH1 0x6 PUSH1 0x1B PUSH1 0x40 MLOAD PUSH3 0x229 SWAP1 PUSH3 0x551 JUMP JUMPDEST SWAP1 DUP2 MSTORE PUSH1 0x20 ADD PUSH1 0x40 MLOAD DUP1 SWAP2 SUB SWAP1 KECCAK256 PUSH1 0x1 ADD DUP2 SWAP1 SSTORE POP PUSH20 0x2A4A8AB6A0BC0D377098F8688F77003833BC1C9D PUSH1 0x1B PUSH1 0x40 MLOAD PUSH3 0x263 SWAP1 PUSH3 0x53A JUMP JUMPDEST SWAP1 DUP2 MSTORE PUSH1 0x20 ADD PUSH1 0x40 MLOAD DUP1 SWAP2 SUB SWAP1 KECCAK256 PUSH1 0x0 ADD PUSH1 0x0 PUSH2 0x100 EXP DUP2 SLOAD DUP2 PUSH20 0xFFFFFFFFFFFFFFFFFFFFFFFFFFFFFFFFFFFFFFFF MUL NOT AND SWAP1 DUP4 PUSH20 0xFFFFFFFFFFFFFFFFFFFFFFFFFFFFFFFFFFFFFFFF AND MUL OR SWAP1 SSTORE POP PUSH1 0x12 PUSH1 0x1B PUSH1 0x40 MLOAD PUSH3 0x2C4 SWAP1 PUSH3 0x53A JUMP JUMPDEST SWAP1 DUP2 MSTORE PUSH1 0x20 ADD PUSH1 0x40 MLOAD DUP1 SWAP2 SUB SWAP1 KECCAK256 PUSH1 0x1 ADD DUP2 SWAP1 SSTORE POP PUSH20 0xDC301622E621166BD8E82F2CA0A26C13AD0BE355 PUSH1 0x1B PUSH1 0x40 MLOAD PUSH3 0x2FE SWAP1 PUSH3 0x523 JUMP JUMPDEST SWAP1 DUP2 MSTORE PUSH1 0x20 ADD PUSH1 0x40 MLOAD DUP1 SWAP2 SUB SWAP1 KECCAK256 PUSH1 0x0 ADD PUSH1 0x0 PUSH2 0x100 EXP DUP2 SLOAD DUP2 PUSH20 0xFFFFFFFFFFFFFFFFFFFFFFFFFFFFFFFFFFFFFFFF MUL NOT AND SWAP1 DUP4 PUSH20 0xFFFFFFFFFFFFFFFFFFFFFFFFFFFFFFFFFFFFFFFF AND MUL OR SWAP1 SSTORE POP PUSH1 0x12 PUSH1 0x1B PUSH1 0x40 MLOAD PUSH3 0x35F SWAP1 PUSH3 0x523 JUMP JUMPDEST SWAP1 DUP2 MSTORE PUSH1 0x20 ADD PUSH1 0x40 MLOAD DUP1 SWAP2 SUB SWAP1 KECCAK256 PUSH1 0x1 ADD DUP2 SWAP1 SSTORE POP PUSH20 0x617F2E2FD72FD9D5503197092AC168C91465E7F2 PUSH1 0x8 PUSH1 0x0 PUSH2 0x100 EXP DUP2 SLOAD DUP2 PUSH20 0xFFFFFFFFFFFFFFFFFFFFFFFFFFFFFFFFFFFFFFFF MUL NOT AND SWAP1 DUP4 PUSH20 0xFFFFFFFFFFFFFFFFFFFFFFFFFFFFFFFFFFFFFFFF AND MUL OR SWAP1 SSTORE POP TIMESTAMP PUSH1 0xD DUP2 SWAP1 SSTORE POP PUSH3 0x69780 PUSH1 0xE DUP2 SWAP1 SSTORE POP PUSH3 0x5EE JUMP JUMPDEST PUSH1 0x0 CALLER SWAP1 POP SWAP1 JUMP JUMPDEST PUSH1 0x0 PUSH1 0x1 PUSH1 0x0 SWAP1 SLOAD SWAP1 PUSH2 0x100 EXP SWAP1 DIV PUSH20 0xFFFFFFFFFFFFFFFFFFFFFFFFFFFFFFFFFFFFFFFF AND SWAP1 POP DUP2 PUSH1 0x1 PUSH1 0x0 PUSH2 0x100 EXP DUP2 SLOAD DUP2 PUSH20 0xFFFFFFFFFFFFFFFFFFFFFFFFFFFFFFFFFFFFFFFF MUL NOT AND SWAP1 DUP4 PUSH20 0xFFFFFFFFFFFFFFFFFFFFFFFFFFFFFFFFFFFFFFFF AND MUL OR SWAP1 SSTORE POP DUP2 PUSH20 0xFFFFFFFFFFFFFFFFFFFFFFFFFFFFFFFFFFFFFFFF AND DUP2 PUSH20 0xFFFFFFFFFFFFFFFFFFFFFFFFFFFFFFFFFFFFFFFF AND PUSH32 0x8BE0079C531659141344CD1FD0A4F28419497F9722A3DAAFE3B4186F6B6457E0 PUSH1 0x40 MLOAD PUSH1 0x40 MLOAD DUP1 SWAP2 SUB SWAP1 LOG3 POP POP JUMP JUMPDEST PUSH1 0x0 PUSH3 0x4BD PUSH1 0x4 DUP4 PUSH3 0x568 JUMP JUMPDEST SWAP2 POP PUSH3 0x4CA DUP3 PUSH3 0x573 JUMP JUMPDEST PUSH1 0x4 DUP3 ADD SWAP1 POP SWAP2 SWAP1 POP JUMP JUMPDEST PUSH1 0x0 PUSH3 0x4E4 PUSH1 0x3 DUP4 PUSH3 0x568 JUMP JUMPDEST SWAP2 POP PUSH3 0x4F1 DUP3 PUSH3 0x59C JUMP JUMPDEST PUSH1 0x3 DUP3 ADD SWAP1 POP SWAP2 SWAP1 POP JUMP JUMPDEST PUSH1 0x0 PUSH3 0x50B PUSH1 0x4 DUP4 PUSH3 0x568 JUMP JUMPDEST SWAP2 POP PUSH3 0x518 DUP3 PUSH3 0x5C5 JUMP JUMPDEST PUSH1 0x4 DUP3 ADD SWAP1 POP SWAP2 SWAP1 POP JUMP JUMPDEST PUSH1 0x0 PUSH3 0x530 DUP3 PUSH3 0x4AE JUMP JUMPDEST SWAP2 POP DUP2 SWAP1 POP SWAP2 SWAP1 POP JUMP JUMPDEST PUSH1 0x0 PUSH3 0x547 DUP3 PUSH3 0x4D5 JUMP JUMPDEST SWAP2 POP DUP2 SWAP1 POP SWAP2 SWAP1 POP JUMP JUMPDEST PUSH1 0x0 PUSH3 0x55E DUP3 PUSH3 0x4FC JUMP JUMPDEST SWAP2 POP DUP2 SWAP1 POP SWAP2 SWAP1 POP JUMP JUMPDEST PUSH1 0x0 DUP2 SWAP1 POP SWAP3 SWAP2 POP POP JUMP JUMPDEST PUSH32 0x4652415800000000000000000000000000000000000000000000000000000000 PUSH1 0x0 DUP3 ADD MSTORE POP JUMP JUMPDEST PUSH32 0x4441490000000000000000000000000000000000000000000000000000000000 PUSH1 0x0 DUP3 ADD MSTORE POP JUMP JUMPDEST PUSH32 0x5553444300000000000000000000000000000000000000000000000000000000 PUSH1 0x0 DUP3 ADD MSTORE POP JUMP JUMPDEST PUSH2 0x3A98 DUP1 PUSH3 0x5FE PUSH1 0x0 CODECOPY PUSH1 0x0 RETURN INVALID PUSH1 0x80 PUSH1 0x40 MSTORE PUSH1 0x4 CALLDATASIZE LT PUSH2 0x251 JUMPI PUSH1 0x0 CALLDATALOAD PUSH1 0xE0 SHR DUP1 PUSH4 0x715018A6 GT PUSH2 0x139 JUMPI DUP1 PUSH4 0xC0CA6FB4 GT PUSH2 0xB6 JUMPI DUP1 PUSH4 0xE5D98082 GT PUSH2 0x7A JUMPI DUP1 PUSH4 0xE5D98082 EQ PUSH2 0x85A JUMPI DUP1 PUSH4 0xEE620868 EQ PUSH2 0x883 JUMPI DUP1 PUSH4 0xEEE05F5E EQ PUSH2 0x8AE JUMPI DUP1 PUSH4 0xF2FDE38B EQ PUSH2 0x8D9 JUMPI DUP1 PUSH4 0xFBBB4589 EQ PUSH2 0x902 JUMPI DUP1 PUSH4 0xFC361443 EQ PUSH2 0x92D JUMPI PUSH2 0x251 JUMP JUMPDEST DUP1 PUSH4 0xC0CA6FB4 EQ PUSH2 0x792 JUMPI DUP1 PUSH4 0xC0CE5889 EQ PUSH2 0x7BD JUMPI DUP1 PUSH4 0xCBFF4617 EQ PUSH2 0x7D9 JUMPI DUP1 PUSH4 0xD04D7908 EQ PUSH2 0x804 JUMPI DUP1 PUSH4 0xD82EDDF2 EQ PUSH2 0x82F JUMPI PUSH2 0x251 JUMP JUMPDEST DUP1 PUSH4 0x9B19251A GT PUSH2 0xFD JUMPI DUP1 PUSH4 0x9B19251A EQ PUSH2 0x6C0 JUMPI DUP1 PUSH4 0xA475BF48 EQ PUSH2 0x6E9 JUMPI DUP1 PUSH4 0xBCB3DE54 EQ PUSH2 0x727 JUMPI DUP1 PUSH4 0xBDAD7F02 EQ PUSH2 0x73E JUMPI DUP1 PUSH4 0xC079D7F6 EQ PUSH2 0x767 JUMPI PUSH2 0x251 JUMP JUMPDEST DUP1 PUSH4 0x715018A6 EQ PUSH2 0x5FF JUMPI DUP1 PUSH4 0x71CD58F9 EQ PUSH2 0x616 JUMPI DUP1 PUSH4 0x862D1B35 EQ PUSH2 0x641 JUMPI DUP1 PUSH4 0x8DA5CB5B EQ PUSH2 0x66A JUMPI DUP1 PUSH4 0x93F7B711 EQ PUSH2 0x695 JUMPI PUSH2 0x251 JUMP JUMPDEST DUP1 PUSH4 0x1F564A06 GT PUSH2 0x1D2 JUMPI DUP1 PUSH4 0x43D32E9C GT PUSH2 0x196 JUMPI DUP1 PUSH4 0x43D32E9C EQ PUSH2 0x4FF JUMPI DUP1 PUSH4 0x66763319 EQ PUSH2 0x52A JUMPI DUP1 PUSH4 0x67B48C91 EQ PUSH2 0x555 JUMPI DUP1 PUSH4 0x67E927A8 EQ PUSH2 0x580 JUMPI DUP1 PUSH4 0x6F10E285 EQ PUSH2 0x5A9 JUMPI DUP1 PUSH4 0x7087A7A5 EQ PUSH2 0x5D4 JUMPI PUSH2 0x251 JUMP JUMPDEST DUP1 PUSH4 0x1F564A06 EQ PUSH2 0x416 JUMPI DUP1 PUSH4 0x26AE486E EQ PUSH2 0x441 JUMPI DUP1 PUSH4 0x29982A32 EQ PUSH2 0x46C JUMPI DUP1 PUSH4 0x2A9F0FB1 EQ PUSH2 0x497 JUMPI DUP1 PUSH4 0x3C6EB17A EQ PUSH2 0x4D4 JUMPI PUSH2 0x251 JUMP JUMPDEST DUP1 PUSH4 0x12B2ED94 GT PUSH2 0x219 JUMPI DUP1 PUSH4 0x12B2ED94 EQ PUSH2 0x319 JUMPI DUP1 PUSH4 0x1514C976 EQ PUSH2 0x357 JUMPI DUP1 PUSH4 0x164C8501 EQ PUSH2 0x394 JUMPI DUP1 PUSH4 0x1A30E872 EQ PUSH2 0x3BD JUMPI DUP1 PUSH4 0x1BC9CC45 EQ PUSH2 0x3FA JUMPI PUSH2 0x251 JUMP JUMPDEST DUP1 PUSH4 0x18A25E8 EQ PUSH2 0x256 JUMPI DUP1 PUSH4 0x2AC8168 EQ PUSH2 0x281 JUMPI DUP1 PUSH4 0x47729B0 EQ PUSH2 0x298 JUMPI DUP1 PUSH4 0xCCAF04F EQ PUSH2 0x2C3 JUMPI DUP1 PUSH4 0xF65DE3E EQ PUSH2 0x2EE JUMPI JUMPDEST PUSH1 0x0 DUP1 REVERT JUMPDEST CALLVALUE DUP1 ISZERO PUSH2 0x262 JUMPI PUSH1 0x0 DUP1 REVERT JUMPDEST POP PUSH2 0x26B PUSH2 0x956 JUMP JUMPDEST PUSH1 0x40 MLOAD PUSH2 0x278 SWAP2 SWAP1 PUSH2 0x33FA JUMP JUMPDEST PUSH1 0x40 MLOAD DUP1 SWAP2 SUB SWAP1 RETURN JUMPDEST CALLVALUE DUP1 ISZERO PUSH2 0x28D JUMPI PUSH1 0x0 DUP1 REVERT JUMPDEST POP PUSH2 0x296 PUSH2 0xA74 JUMP JUMPDEST STOP JUMPDEST CALLVALUE DUP1 ISZERO PUSH2 0x2A4 JUMPI PUSH1 0x0 DUP1 REVERT JUMPDEST POP PUSH2 0x2AD PUSH2 0xDE0 JUMP JUMPDEST PUSH1 0x40 MLOAD PUSH2 0x2BA SWAP2 SWAP1 PUSH2 0x3185 JUMP JUMPDEST PUSH1 0x40 MLOAD DUP1 SWAP2 SUB SWAP1 RETURN JUMPDEST CALLVALUE DUP1 ISZERO PUSH2 0x2CF JUMPI PUSH1 0x0 DUP1 REVERT JUMPDEST POP PUSH2 0x2D8 PUSH2 0xE06 JUMP JUMPDEST PUSH1 0x40 MLOAD PUSH2 0x2E5 SWAP2 SWAP1 PUSH2 0x33FA JUMP JUMPDEST PUSH1 0x40 MLOAD DUP1 SWAP2 SUB SWAP1 RETURN JUMPDEST CALLVALUE DUP1 ISZERO PUSH2 0x2FA JUMPI PUSH1 0x0 DUP1 REVERT JUMPDEST POP PUSH2 0x303 PUSH2 0xF60 JUMP JUMPDEST PUSH1 0x40 MLOAD PUSH2 0x310 SWAP2 SWAP1 PUSH2 0x33FA JUMP JUMPDEST PUSH1 0x40 MLOAD DUP1 SWAP2 SUB SWAP1 RETURN JUMPDEST CALLVALUE DUP1 ISZERO PUSH2 0x325 JUMPI PUSH1 0x0 DUP1 REVERT JUMPDEST POP PUSH2 0x340 PUSH1 0x4 DUP1 CALLDATASIZE SUB DUP2 ADD SWAP1 PUSH2 0x33B SWAP2 SWAP1 PUSH2 0x2CBF JUMP JUMPDEST PUSH2 0xFEE JUMP JUMPDEST PUSH1 0x40 MLOAD PUSH2 0x34E SWAP3 SWAP2 SWAP1 PUSH2 0x3415 JUMP JUMPDEST PUSH1 0x40 MLOAD DUP1 SWAP2 SUB SWAP1 RETURN JUMPDEST CALLVALUE DUP1 ISZERO PUSH2 0x363 JUMPI PUSH1 0x0 DUP1 REVERT JUMPDEST POP PUSH2 0x37E PUSH1 0x4 DUP1 CALLDATASIZE SUB DUP2 ADD SWAP1 PUSH2 0x379 SWAP2 SWAP1 PUSH2 0x2E2D JUMP JUMPDEST PUSH2 0x1012 JUMP JUMPDEST PUSH1 0x40 MLOAD PUSH2 0x38B SWAP2 SWAP1 PUSH2 0x33FA JUMP JUMPDEST PUSH1 0x40 MLOAD DUP1 SWAP2 SUB SWAP1 RETURN JUMPDEST CALLVALUE DUP1 ISZERO PUSH2 0x3A0 JUMPI PUSH1 0x0 DUP1 REVERT JUMPDEST POP PUSH2 0x3BB PUSH1 0x4 DUP1 CALLDATASIZE SUB DUP2 ADD SWAP1 PUSH2 0x3B6 SWAP2 SWAP1 PUSH2 0x2E2D JUMP JUMPDEST PUSH2 0x102A JUMP JUMPDEST STOP JUMPDEST CALLVALUE DUP1 ISZERO PUSH2 0x3C9 JUMPI PUSH1 0x0 DUP1 REVERT JUMPDEST POP PUSH2 0x3E4 PUSH1 0x4 DUP1 CALLDATASIZE SUB DUP2 ADD SWAP1 PUSH2 0x3DF SWAP2 SWAP1 PUSH2 0x2E2D JUMP JUMPDEST PUSH2 0x11A8 JUMP JUMPDEST PUSH1 0x40 MLOAD PUSH2 0x3F1 SWAP2 SWAP1 PUSH2 0x33FA JUMP JUMPDEST PUSH1 0x40 MLOAD DUP1 SWAP2 SUB SWAP1 RETURN JUMPDEST PUSH2 0x414 PUSH1 0x4 DUP1 CALLDATASIZE SUB DUP2 ADD SWAP1 PUSH2 0x40F SWAP2 SWAP1 PUSH2 0x2E2D JUMP JUMPDEST PUSH2 0x11C0 JUMP JUMPDEST STOP JUMPDEST CALLVALUE DUP1 ISZERO PUSH2 0x422 JUMPI PUSH1 0x0 DUP1 REVERT JUMPDEST POP PUSH2 0x42B PUSH2 0x1358 JUMP JUMPDEST PUSH1 0x40 MLOAD PUSH2 0x438 SWAP2 SWAP1 PUSH2 0x33FA JUMP JUMPDEST PUSH1 0x40 MLOAD DUP1 SWAP2 SUB SWAP1 RETURN JUMPDEST CALLVALUE DUP1 ISZERO PUSH2 0x44D JUMPI PUSH1 0x0 DUP1 REVERT JUMPDEST POP PUSH2 0x456 PUSH2 0x141D JUMP JUMPDEST PUSH1 0x40 MLOAD PUSH2 0x463 SWAP2 SWAP1 PUSH2 0x32A4 JUMP JUMPDEST PUSH1 0x40 MLOAD DUP1 SWAP2 SUB SWAP1 RETURN JUMPDEST CALLVALUE DUP1 ISZERO PUSH2 0x478 JUMPI PUSH1 0x0 DUP1 REVERT JUMPDEST POP PUSH2 0x481 PUSH2 0x1443 JUMP JUMPDEST PUSH1 0x40 MLOAD PUSH2 0x48E SWAP2 SWAP1 PUSH2 0x3185 JUMP JUMPDEST PUSH1 0x40 MLOAD DUP1 SWAP2 SUB SWAP1 RETURN JUMPDEST CALLVALUE DUP1 ISZERO PUSH2 0x4A3 JUMPI PUSH1 0x0 DUP1 REVERT JUMPDEST POP PUSH2 0x4BE PUSH1 0x4 DUP1 CALLDATASIZE SUB DUP2 ADD SWAP1 PUSH2 0x4B9 SWAP2 SWAP1 PUSH2 0x2E2D JUMP JUMPDEST PUSH2 0x1469 JUMP JUMPDEST PUSH1 0x40 MLOAD PUSH2 0x4CB SWAP2 SWAP1 PUSH2 0x33FA JUMP JUMPDEST PUSH1 0x40 MLOAD DUP1 SWAP2 SUB SWAP1 RETURN JUMPDEST CALLVALUE DUP1 ISZERO PUSH2 0x4E0 JUMPI PUSH1 0x0 DUP1 REVERT JUMPDEST POP PUSH2 0x4E9 PUSH2 0x1481 JUMP JUMPDEST PUSH1 0x40 MLOAD PUSH2 0x4F6 SWAP2 SWAP1 PUSH2 0x33FA JUMP JUMPDEST PUSH1 0x40 MLOAD DUP1 SWAP2 SUB SWAP1 RETURN JUMPDEST CALLVALUE DUP1 ISZERO PUSH2 0x50B JUMPI PUSH1 0x0 DUP1 REVERT JUMPDEST POP PUSH2 0x514 PUSH2 0x1487 JUMP JUMPDEST PUSH1 0x40 MLOAD PUSH2 0x521 SWAP2 SWAP1 PUSH2 0x33FA JUMP JUMPDEST PUSH1 0x40 MLOAD DUP1 SWAP2 SUB SWAP1 RETURN JUMPDEST CALLVALUE DUP1 ISZERO PUSH2 0x536 JUMPI PUSH1 0x0 DUP1 REVERT JUMPDEST POP PUSH2 0x53F PUSH2 0x15A5 JUMP JUMPDEST PUSH1 0x40 MLOAD PUSH2 0x54C SWAP2 SWAP1 PUSH2 0x33FA JUMP JUMPDEST PUSH1 0x40 MLOAD DUP1 SWAP2 SUB SWAP1 RETURN JUMPDEST CALLVALUE DUP1 ISZERO PUSH2 0x561 JUMPI PUSH1 0x0 DUP1 REVERT JUMPDEST POP PUSH2 0x56A PUSH2 0x15AB JUMP JUMPDEST PUSH1 0x40 MLOAD PUSH2 0x577 SWAP2 SWAP1 PUSH2 0x33FA JUMP JUMPDEST PUSH1 0x40 MLOAD DUP1 SWAP2 SUB SWAP1 RETURN JUMPDEST CALLVALUE DUP1 ISZERO PUSH2 0x58C JUMPI PUSH1 0x0 DUP1 REVERT JUMPDEST POP PUSH2 0x5A7 PUSH1 0x4 DUP1 CALLDATASIZE SUB DUP2 ADD SWAP1 PUSH2 0x5A2 SWAP2 SWAP1 PUSH2 0x2E2D JUMP JUMPDEST PUSH2 0x15B1 JUMP JUMPDEST STOP JUMPDEST CALLVALUE DUP1 ISZERO PUSH2 0x5B5 JUMPI PUSH1 0x0 DUP1 REVERT JUMPDEST POP PUSH2 0x5BE PUSH2 0x1662 JUMP JUMPDEST PUSH1 0x40 MLOAD PUSH2 0x5CB SWAP2 SWAP1 PUSH2 0x32BF JUMP JUMPDEST PUSH1 0x40 MLOAD DUP1 SWAP2 SUB SWAP1 RETURN JUMPDEST CALLVALUE DUP1 ISZERO PUSH2 0x5E0 JUMPI PUSH1 0x0 DUP1 REVERT JUMPDEST POP PUSH2 0x5E9 PUSH2 0x1675 JUMP JUMPDEST PUSH1 0x40 MLOAD PUSH2 0x5F6 SWAP2 SWAP1 PUSH2 0x32A4 JUMP JUMPDEST PUSH1 0x40 MLOAD DUP1 SWAP2 SUB SWAP1 RETURN JUMPDEST CALLVALUE DUP1 ISZERO PUSH2 0x60B JUMPI PUSH1 0x0 DUP1 REVERT JUMPDEST POP PUSH2 0x614 PUSH2 0x169B JUMP JUMPDEST STOP JUMPDEST CALLVALUE DUP1 ISZERO PUSH2 0x622 JUMPI PUSH1 0x0 DUP1 REVERT JUMPDEST POP PUSH2 0x62B PUSH2 0x1723 JUMP JUMPDEST PUSH1 0x40 MLOAD PUSH2 0x638 SWAP2 SWAP1 PUSH2 0x33FA JUMP JUMPDEST PUSH1 0x40 MLOAD DUP1 SWAP2 SUB SWAP1 RETURN JUMPDEST CALLVALUE DUP1 ISZERO PUSH2 0x64D JUMPI PUSH1 0x0 DUP1 REVERT JUMPDEST POP PUSH2 0x668 PUSH1 0x4 DUP1 CALLDATASIZE SUB DUP2 ADD SWAP1 PUSH2 0x663 SWAP2 SWAP1 PUSH2 0x2E87 JUMP JUMPDEST PUSH2 0x17DA JUMP JUMPDEST STOP JUMPDEST CALLVALUE DUP1 ISZERO PUSH2 0x676 JUMPI PUSH1 0x0 DUP1 REVERT JUMPDEST POP PUSH2 0x67F PUSH2 0x1CDB JUMP JUMPDEST PUSH1 0x40 MLOAD PUSH2 0x68C SWAP2 SWAP1 PUSH2 0x3185 JUMP JUMPDEST PUSH1 0x40 MLOAD DUP1 SWAP2 SUB SWAP1 RETURN JUMPDEST CALLVALUE DUP1 ISZERO PUSH2 0x6A1 JUMPI PUSH1 0x0 DUP1 REVERT JUMPDEST POP PUSH2 0x6AA PUSH2 0x1D05 JUMP JUMPDEST PUSH1 0x40 MLOAD PUSH2 0x6B7 SWAP2 SWAP1 PUSH2 0x33FA JUMP JUMPDEST PUSH1 0x40 MLOAD DUP1 SWAP2 SUB SWAP1 RETURN JUMPDEST CALLVALUE DUP1 ISZERO PUSH2 0x6CC JUMPI PUSH1 0x0 DUP1 REVERT JUMPDEST POP PUSH2 0x6E7 PUSH1 0x4 DUP1 CALLDATASIZE SUB DUP2 ADD SWAP1 PUSH2 0x6E2 SWAP2 SWAP1 PUSH2 0x2CBF JUMP JUMPDEST PUSH2 0x1E5F JUMP JUMPDEST STOP JUMPDEST CALLVALUE DUP1 ISZERO PUSH2 0x6F5 JUMPI PUSH1 0x0 DUP1 REVERT JUMPDEST POP PUSH2 0x710 PUSH1 0x4 DUP1 CALLDATASIZE SUB DUP2 ADD SWAP1 PUSH2 0x70B SWAP2 SWAP1 PUSH2 0x2D75 JUMP JUMPDEST PUSH2 0x1EDE JUMP JUMPDEST PUSH1 0x40 MLOAD PUSH2 0x71E SWAP3 SWAP2 SWAP1 PUSH2 0x327B JUMP JUMPDEST PUSH1 0x40 MLOAD DUP1 SWAP2 SUB SWAP1 RETURN JUMPDEST CALLVALUE DUP1 ISZERO PUSH2 0x733 JUMPI PUSH1 0x0 DUP1 REVERT JUMPDEST POP PUSH2 0x73C PUSH2 0x1F38 JUMP JUMPDEST STOP JUMPDEST CALLVALUE DUP1 ISZERO PUSH2 0x74A JUMPI PUSH1 0x0 DUP1 REVERT JUMPDEST POP PUSH2 0x765 PUSH1 0x4 DUP1 CALLDATASIZE SUB DUP2 ADD SWAP1 PUSH2 0x760 SWAP2 SWAP1 PUSH2 0x2CEC JUMP JUMPDEST PUSH2 0x2036 JUMP JUMPDEST STOP JUMPDEST CALLVALUE DUP1 ISZERO PUSH2 0x773 JUMPI PUSH1 0x0 DUP1 REVERT JUMPDEST POP PUSH2 0x77C PUSH2 0x21B7 JUMP JUMPDEST PUSH1 0x40 MLOAD PUSH2 0x789 SWAP2 SWAP1 PUSH2 0x3185 JUMP JUMPDEST PUSH1 0x40 MLOAD DUP1 SWAP2 SUB SWAP1 RETURN JUMPDEST CALLVALUE DUP1 ISZERO PUSH2 0x79E JUMPI PUSH1 0x0 DUP1 REVERT JUMPDEST POP PUSH2 0x7A7 PUSH2 0x21DD JUMP JUMPDEST PUSH1 0x40 MLOAD PUSH2 0x7B4 SWAP2 SWAP1 PUSH2 0x32A4 JUMP JUMPDEST PUSH1 0x40 MLOAD DUP1 SWAP2 SUB SWAP1 RETURN JUMPDEST PUSH2 0x7D7 PUSH1 0x4 DUP1 CALLDATASIZE SUB DUP2 ADD SWAP1 PUSH2 0x7D2 SWAP2 SWAP1 PUSH2 0x2EE3 JUMP JUMPDEST PUSH2 0x2203 JUMP JUMPDEST STOP JUMPDEST CALLVALUE DUP1 ISZERO PUSH2 0x7E5 JUMPI PUSH1 0x0 DUP1 REVERT JUMPDEST POP PUSH2 0x7EE PUSH2 0x257C JUMP JUMPDEST PUSH1 0x40 MLOAD PUSH2 0x7FB SWAP2 SWAP1 PUSH2 0x33FA JUMP JUMPDEST PUSH1 0x40 MLOAD DUP1 SWAP2 SUB SWAP1 RETURN JUMPDEST CALLVALUE DUP1 ISZERO PUSH2 0x810 JUMPI PUSH1 0x0 DUP1 REVERT JUMPDEST POP PUSH2 0x819 PUSH2 0x2582 JUMP JUMPDEST PUSH1 0x40 MLOAD PUSH2 0x826 SWAP2 SWAP1 PUSH2 0x32A4 JUMP JUMPDEST PUSH1 0x40 MLOAD DUP1 SWAP2 SUB SWAP1 RETURN JUMPDEST CALLVALUE DUP1 ISZERO PUSH2 0x83B JUMPI PUSH1 0x0 DUP1 REVERT JUMPDEST POP PUSH2 0x844 PUSH2 0x25A8 JUMP JUMPDEST PUSH1 0x40 MLOAD PUSH2 0x851 SWAP2 SWAP1 PUSH2 0x33FA JUMP JUMPDEST PUSH1 0x40 MLOAD DUP1 SWAP2 SUB SWAP1 RETURN JUMPDEST CALLVALUE DUP1 ISZERO PUSH2 0x866 JUMPI PUSH1 0x0 DUP1 REVERT JUMPDEST POP PUSH2 0x881 PUSH1 0x4 DUP1 CALLDATASIZE SUB DUP2 ADD SWAP1 PUSH2 0x87C SWAP2 SWAP1 PUSH2 0x2DBE JUMP JUMPDEST PUSH2 0x260B JUMP JUMPDEST STOP JUMPDEST CALLVALUE DUP1 ISZERO PUSH2 0x88F JUMPI PUSH1 0x0 DUP1 REVERT JUMPDEST POP PUSH2 0x898 PUSH2 0x2712 JUMP JUMPDEST PUSH1 0x40 MLOAD PUSH2 0x8A5 SWAP2 SWAP1 PUSH2 0x33FA JUMP JUMPDEST PUSH1 0x40 MLOAD DUP1 SWAP2 SUB SWAP1 RETURN JUMPDEST CALLVALUE DUP1 ISZERO PUSH2 0x8BA JUMPI PUSH1 0x0 DUP1 REVERT JUMPDEST POP PUSH2 0x8C3 PUSH2 0x2718 JUMP JUMPDEST PUSH1 0x40 MLOAD PUSH2 0x8D0 SWAP2 SWAP1 PUSH2 0x3185 JUMP JUMPDEST PUSH1 0x40 MLOAD DUP1 SWAP2 SUB SWAP1 RETURN JUMPDEST CALLVALUE DUP1 ISZERO PUSH2 0x8E5 JUMPI PUSH1 0x0 DUP1 REVERT JUMPDEST POP PUSH2 0x900 PUSH1 0x4 DUP1 CALLDATASIZE SUB DUP2 ADD SWAP1 PUSH2 0x8FB SWAP2 SWAP1 PUSH2 0x2CBF JUMP JUMPDEST PUSH2 0x273E JUMP JUMPDEST STOP JUMPDEST CALLVALUE DUP1 ISZERO PUSH2 0x90E JUMPI PUSH1 0x0 DUP1 REVERT JUMPDEST POP PUSH2 0x917 PUSH2 0x2836 JUMP JUMPDEST PUSH1 0x40 MLOAD PUSH2 0x924 SWAP2 SWAP1 PUSH2 0x3185 JUMP JUMPDEST PUSH1 0x40 MLOAD DUP1 SWAP2 SUB SWAP1 RETURN JUMPDEST CALLVALUE DUP1 ISZERO PUSH2 0x939 JUMPI PUSH1 0x0 DUP1 REVERT JUMPDEST POP PUSH2 0x954 PUSH1 0x4 DUP1 CALLDATASIZE SUB DUP2 ADD SWAP1 PUSH2 0x94F SWAP2 SWAP1 PUSH2 0x2E2D JUMP JUMPDEST PUSH2 0x285C JUMP JUMPDEST STOP JUMPDEST PUSH1 0x0 PUSH2 0xA6F ADDRESS PUSH20 0xFFFFFFFFFFFFFFFFFFFFFFFFFFFFFFFFFFFFFFFF AND PUSH4 0x1F564A06 PUSH1 0x40 MLOAD DUP2 PUSH4 0xFFFFFFFF AND PUSH1 0xE0 SHL DUP2 MSTORE PUSH1 0x4 ADD PUSH1 0x20 PUSH1 0x40 MLOAD DUP1 DUP4 SUB DUP2 DUP7 DUP1 EXTCODESIZE ISZERO DUP1 ISZERO PUSH2 0x9A1 JUMPI PUSH1 0x0 DUP1 REVERT JUMPDEST POP GAS STATICCALL ISZERO DUP1 ISZERO PUSH2 0x9B5 JUMPI RETURNDATASIZE PUSH1 0x0 DUP1 RETURNDATACOPY RETURNDATASIZE PUSH1 0x0 REVERT JUMPDEST POP POP POP POP PUSH1 0x40 MLOAD RETURNDATASIZE PUSH1 0x1F NOT PUSH1 0x1F DUP3 ADD AND DUP3 ADD DUP1 PUSH1 0x40 MSTORE POP DUP2 ADD SWAP1 PUSH2 0x9D9 SWAP2 SWAP1 PUSH2 0x2E5A JUMP JUMPDEST ADDRESS PUSH20 0xFFFFFFFFFFFFFFFFFFFFFFFFFFFFFFFFFFFFFFFF AND PUSH4 0x93F7B711 PUSH1 0x40 MLOAD DUP2 PUSH4 0xFFFFFFFF AND PUSH1 0xE0 SHL DUP2 MSTORE PUSH1 0x4 ADD PUSH1 0x20 PUSH1 0x40 MLOAD DUP1 DUP4 SUB DUP2 DUP7 DUP1 EXTCODESIZE ISZERO DUP1 ISZERO PUSH2 0xA1F JUMPI PUSH1 0x0 DUP1 REVERT JUMPDEST POP GAS STATICCALL ISZERO DUP1 ISZERO PUSH2 0xA33 JUMPI RETURNDATASIZE PUSH1 0x0 DUP1 RETURNDATACOPY RETURNDATASIZE PUSH1 0x0 REVERT JUMPDEST POP POP POP POP PUSH1 0x40 MLOAD RETURNDATASIZE PUSH1 0x1F NOT PUSH1 0x1F DUP3 ADD AND DUP3 ADD DUP1 PUSH1 0x40 MSTORE POP DUP2 ADD SWAP1 PUSH2 0xA57 SWAP2 SWAP1 PUSH2 0x2E5A JUMP JUMPDEST PUSH8 0x10A741A462780000 PUSH2 0xA6A SWAP2 SWAP1 PUSH2 0x34BB JUMP JUMPDEST PUSH2 0x28F0 JUMP JUMPDEST SWAP1 POP SWAP1 JUMP JUMPDEST PUSH2 0xA7C PUSH2 0x2939 JUMP JUMPDEST PUSH20 0xFFFFFFFFFFFFFFFFFFFFFFFFFFFFFFFFFFFFFFFF AND PUSH2 0xA9A PUSH2 0x1CDB JUMP JUMPDEST PUSH20 0xFFFFFFFFFFFFFFFFFFFFFFFFFFFFFFFFFFFFFFFF AND EQ PUSH2 0xAF0 JUMPI PUSH1 0x40 MLOAD PUSH32 0x8C379A000000000000000000000000000000000000000000000000000000000 DUP2 MSTORE PUSH1 0x4 ADD PUSH2 0xAE7 SWAP1 PUSH2 0x333A JUMP JUMPDEST PUSH1 0x40 MLOAD DUP1 SWAP2 SUB SWAP1 REVERT JUMPDEST PUSH1 0x14 PUSH1 0x0 SWAP1 SLOAD SWAP1 PUSH2 0x100 EXP SWAP1 DIV PUSH20 0xFFFFFFFFFFFFFFFFFFFFFFFFFFFFFFFFFFFFFFFF AND PUSH20 0xFFFFFFFFFFFFFFFFFFFFFFFFFFFFFFFFFFFFFFFF AND PUSH4 0x40C10F19 PUSH20 0x617F2E2FD72FD9D5503197092AC168C91465E7F2 PUSH10 0x1FE36793670C0C82000 PUSH1 0x40 MLOAD DUP4 PUSH4 0xFFFFFFFF AND PUSH1 0xE0 SHL DUP2 MSTORE PUSH1 0x4 ADD PUSH2 0xB6B SWAP3 SWAP2 SWAP1 PUSH2 0x3252 JUMP JUMPDEST PUSH1 0x0 PUSH1 0x40 MLOAD DUP1 DUP4 SUB DUP2 PUSH1 0x0 DUP8 DUP1 EXTCODESIZE ISZERO DUP1 ISZERO PUSH2 0xB85 JUMPI PUSH1 0x0 DUP1 REVERT JUMPDEST POP GAS CALL ISZERO DUP1 ISZERO PUSH2 0xB99 JUMPI RETURNDATASIZE PUSH1 0x0 DUP1 RETURNDATACOPY RETURNDATASIZE PUSH1 0x0 REVERT JUMPDEST POP POP POP POP PUSH1 0x14 PUSH1 0x0 SWAP1 SLOAD SWAP1 PUSH2 0x100 EXP SWAP1 DIV PUSH20 0xFFFFFFFFFFFFFFFFFFFFFFFFFFFFFFFFFFFFFFFF AND PUSH20 0xFFFFFFFFFFFFFFFFFFFFFFFFFFFFFFFFFFFFFFFF AND PUSH4 0x40C10F19 PUSH20 0x17F6AD8EF982297579C203069C1DBFFE4348C372 PUSH10 0x97782BFBF68AB74E000 PUSH1 0x40 MLOAD DUP4 PUSH4 0xFFFFFFFF AND PUSH1 0xE0 SHL DUP2 MSTORE PUSH1 0x4 ADD PUSH2 0xC18 SWAP3 SWAP2 SWAP1 PUSH2 0x3200 JUMP JUMPDEST PUSH1 0x0 PUSH1 0x40 MLOAD DUP1 DUP4 SUB DUP2 PUSH1 0x0 DUP8 DUP1 EXTCODESIZE ISZERO DUP1 ISZERO PUSH2 0xC32 JUMPI PUSH1 0x0 DUP1 REVERT JUMPDEST POP GAS CALL ISZERO DUP1 ISZERO PUSH2 0xC46 JUMPI RETURNDATASIZE PUSH1 0x0 DUP1 RETURNDATACOPY RETURNDATASIZE PUSH1 0x0 REVERT JUMPDEST POP POP POP POP PUSH1 0x14 PUSH1 0x0 SWAP1 SLOAD SWAP1 PUSH2 0x100 EXP SWAP1 DIV PUSH20 0xFFFFFFFFFFFFFFFFFFFFFFFFFFFFFFFFFFFFFFFF AND PUSH20 0xFFFFFFFFFFFFFFFFFFFFFFFFFFFFFFFFFFFFFFFF AND PUSH4 0x40C10F19 PUSH20 0x5C6B0F7BF3E7CE046039BD8FABDFD3F9F5021678 PUSH10 0x9F7105E1033C3E8A000 PUSH1 0x40 MLOAD DUP4 PUSH4 0xFFFFFFFF AND PUSH1 0xE0 SHL DUP2 MSTORE PUSH1 0x4 ADD PUSH2 0xCC5 SWAP3 SWAP2 SWAP1 PUSH2 0x3229 JUMP JUMPDEST PUSH1 0x0 PUSH1 0x40 MLOAD DUP1 DUP4 SUB DUP2 PUSH1 0x0 DUP8 DUP1 EXTCODESIZE ISZERO DUP1 ISZERO PUSH2 0xCDF JUMPI PUSH1 0x0 DUP1 REVERT JUMPDEST POP GAS CALL ISZERO DUP1 ISZERO PUSH2 0xCF3 JUMPI RETURNDATASIZE PUSH1 0x0 DUP1 RETURNDATACOPY RETURNDATASIZE PUSH1 0x0 REVERT JUMPDEST POP POP POP POP PUSH1 0x15 PUSH1 0x0 SWAP1 SLOAD SWAP1 PUSH2 0x100 EXP SWAP1 DIV PUSH20 0xFFFFFFFFFFFFFFFFFFFFFFFFFFFFFFFFFFFFFFFF AND PUSH20 0xFFFFFFFFFFFFFFFFFFFFFFFFFFFFFFFFFFFFFFFF AND PUSH4 0x40C10F19 ADDRESS PUSH10 0x156CC997060D3025A000 PUSH1 0x40 MLOAD DUP4 PUSH4 0xFFFFFFFF AND PUSH1 0xE0 SHL DUP2 MSTORE PUSH1 0x4 ADD PUSH2 0xD5E SWAP3 SWAP2 SWAP1 PUSH2 0x31D7 JUMP JUMPDEST PUSH1 0x0 PUSH1 0x40 MLOAD DUP1 DUP4 SUB DUP2 PUSH1 0x0 DUP8 DUP1 EXTCODESIZE ISZERO DUP1 ISZERO PUSH2 0xD78 JUMPI PUSH1 0x0 DUP1 REVERT JUMPDEST POP GAS CALL ISZERO DUP1 ISZERO PUSH2 0xD8C JUMPI RETURNDATASIZE PUSH1 0x0 DUP1 RETURNDATACOPY RETURNDATASIZE PUSH1 0x0 REVERT JUMPDEST POP POP POP POP PUSH10 0x156CC997060D3025A000 PUSH1 0x18 PUSH1 0x0 DUP1 DUP2 MSTORE PUSH1 0x20 ADD SWAP1 DUP2 MSTORE PUSH1 0x20 ADD PUSH1 0x0 KECCAK256 DUP2 SWAP1 SSTORE POP PUSH10 0x156CC997060D3025A000 PUSH1 0x1A PUSH1 0x0 DUP1 DUP2 MSTORE PUSH1 0x20 ADD SWAP1 DUP2 MSTORE PUSH1 0x20 ADD PUSH1 0x0 KECCAK256 DUP2 SWAP1 SSTORE POP PUSH3 0x8B290 PUSH1 0xC DUP2 SWAP1 SSTORE POP JUMP JUMPDEST PUSH1 0xA PUSH1 0x0 SWAP1 SLOAD SWAP1 PUSH2 0x100 EXP SWAP1 DIV PUSH20 0xFFFFFFFFFFFFFFFFFFFFFFFFFFFFFFFFFFFFFFFF AND DUP2 JUMP JUMPDEST PUSH1 0x0 DUP1 PUSH1 0x0 DUP1 PUSH3 0x15180 PUSH1 0xE SLOAD PUSH2 0xE1D SWAP2 SWAP1 PUSH2 0x3511 JUMP JUMPDEST SWAP1 POP PUSH1 0x0 PUSH3 0x15180 PUSH1 0xD SLOAD TIMESTAMP PUSH2 0xE33 SWAP2 SWAP1 PUSH2 0x359C JUMP JUMPDEST PUSH2 0xE3D SWAP2 SWAP1 PUSH2 0x3511 JUMP JUMPDEST SWAP1 POP PUSH1 0x0 DUP1 DUP3 EQ ISZERO PUSH2 0xE64 JUMPI PUSH1 0x1A PUSH1 0x0 DUP1 DUP2 MSTORE PUSH1 0x20 ADD SWAP1 DUP2 MSTORE PUSH1 0x20 ADD PUSH1 0x0 KECCAK256 SLOAD SWAP4 POP PUSH2 0xEB0 JUMP JUMPDEST DUP3 DUP3 PUSH2 0xE70 SWAP2 SWAP1 PUSH2 0x359C JUMP JUMPDEST SWAP1 POP JUMPDEST DUP2 DUP2 LT ISZERO PUSH2 0xEAF JUMPI PUSH1 0x1A PUSH1 0x0 DUP3 DUP2 MSTORE PUSH1 0x20 ADD SWAP1 DUP2 MSTORE PUSH1 0x20 ADD PUSH1 0x0 KECCAK256 SLOAD DUP5 PUSH2 0xE9A SWAP2 SWAP1 PUSH2 0x34BB JUMP JUMPDEST SWAP4 POP DUP1 DUP1 PUSH2 0xEA7 SWAP1 PUSH2 0x3716 JUMP JUMPDEST SWAP2 POP POP PUSH2 0xE73 JUMP JUMPDEST JUMPDEST PUSH2 0xF37 ADDRESS PUSH20 0xFFFFFFFFFFFFFFFFFFFFFFFFFFFFFFFFFFFFFFFF AND PUSH4 0xD82EDDF2 PUSH1 0x40 MLOAD DUP2 PUSH4 0xFFFFFFFF AND PUSH1 0xE0 SHL DUP2 MSTORE PUSH1 0x4 ADD PUSH1 0x20 PUSH1 0x40 MLOAD DUP1 DUP4 SUB DUP2 DUP7 DUP1 EXTCODESIZE ISZERO DUP1 ISZERO PUSH2 0xEF9 JUMPI PUSH1 0x0 DUP1 REVERT JUMPDEST POP GAS STATICCALL ISZERO DUP1 ISZERO PUSH2 0xF0D JUMPI RETURNDATASIZE PUSH1 0x0 DUP1 RETURNDATACOPY RETURNDATASIZE PUSH1 0x0 REVERT JUMPDEST POP POP POP POP PUSH1 0x40 MLOAD RETURNDATASIZE PUSH1 0x1F NOT PUSH1 0x1F DUP3 ADD AND DUP3 ADD DUP1 PUSH1 0x40 MSTORE POP DUP2 ADD SWAP1 PUSH2 0xF31 SWAP2 SWAP1 PUSH2 0x2E5A JUMP JUMPDEST DUP6 PUSH2 0x2941 JUMP JUMPDEST SWAP5 POP PUSH8 0x429D069189E0000 DUP6 GT ISZERO PUSH2 0xF55 JUMPI PUSH8 0x429D069189E0000 SWAP5 POP JUMPDEST DUP5 SWAP6 POP POP POP POP POP POP SWAP1 JUMP JUMPDEST PUSH1 0x0 DUP1 PUSH3 0x15180 PUSH1 0xD SLOAD TIMESTAMP PUSH2 0xF75 SWAP2 SWAP1 PUSH2 0x359C JUMP JUMPDEST PUSH2 0xF7F SWAP2 SWAP1 PUSH2 0x3511 JUMP JUMPDEST SWAP1 POP PUSH1 0x0 DUP1 PUSH3 0x15180 PUSH1 0xE SLOAD PUSH2 0xF95 SWAP2 SWAP1 PUSH2 0x3511 JUMP JUMPDEST SWAP1 POP PUSH1 0x0 DUP2 DUP5 PUSH2 0xFA5 SWAP2 SWAP1 PUSH2 0x359C JUMP JUMPDEST SWAP1 POP JUMPDEST DUP4 DUP2 LT ISZERO PUSH2 0xFE4 JUMPI PUSH1 0x1A PUSH1 0x0 DUP3 DUP2 MSTORE PUSH1 0x20 ADD SWAP1 DUP2 MSTORE PUSH1 0x20 ADD PUSH1 0x0 KECCAK256 SLOAD DUP4 PUSH2 0xFCF SWAP2 SWAP1 PUSH2 0x34BB JUMP JUMPDEST SWAP3 POP DUP1 DUP1 PUSH2 0xFDC SWAP1 PUSH2 0x3716 JUMP JUMPDEST SWAP2 POP POP PUSH2 0xFA8 JUMP JUMPDEST DUP3 SWAP5 POP POP POP POP POP SWAP1 JUMP JUMPDEST PUSH1 0x1C PUSH1 0x20 MSTORE DUP1 PUSH1 0x0 MSTORE PUSH1 0x40 PUSH1 0x0 KECCAK256 PUSH1 0x0 SWAP2 POP SWAP1 POP DUP1 PUSH1 0x0 ADD SLOAD SWAP1 DUP1 PUSH1 0x1 ADD SLOAD SWAP1 POP DUP3 JUMP JUMPDEST PUSH1 0x19 PUSH1 0x20 MSTORE DUP1 PUSH1 0x0 MSTORE PUSH1 0x40 PUSH1 0x0 KECCAK256 PUSH1 0x0 SWAP2 POP SWAP1 POP SLOAD DUP2 JUMP JUMPDEST PUSH1 0x1C PUSH1 0x0 CALLER PUSH20 0xFFFFFFFFFFFFFFFFFFFFFFFFFFFFFFFFFFFFFFFF AND PUSH20 0xFFFFFFFFFFFFFFFFFFFFFFFFFFFFFFFFFFFFFFFF AND DUP2 MSTORE PUSH1 0x20 ADD SWAP1 DUP2 MSTORE PUSH1 0x20 ADD PUSH1 0x0 KECCAK256 PUSH1 0x1 ADD SLOAD DUP2 LT PUSH2 0x10AE JUMPI PUSH1 0x40 MLOAD PUSH32 0x8C379A000000000000000000000000000000000000000000000000000000000 DUP2 MSTORE PUSH1 0x4 ADD PUSH2 0x10A5 SWAP1 PUSH2 0x32DA JUMP JUMPDEST PUSH1 0x40 MLOAD DUP1 SWAP2 SUB SWAP1 REVERT JUMPDEST DUP1 PUSH1 0x1C PUSH1 0x0 CALLER PUSH20 0xFFFFFFFFFFFFFFFFFFFFFFFFFFFFFFFFFFFFFFFF AND PUSH20 0xFFFFFFFFFFFFFFFFFFFFFFFFFFFFFFFFFFFFFFFF AND DUP2 MSTORE PUSH1 0x20 ADD SWAP1 DUP2 MSTORE PUSH1 0x20 ADD PUSH1 0x0 KECCAK256 PUSH1 0x1 ADD PUSH1 0x0 DUP3 DUP3 SLOAD PUSH2 0x1100 SWAP2 SWAP1 PUSH2 0x359C JUMP JUMPDEST SWAP3 POP POP DUP2 SWAP1 SSTORE POP PUSH1 0x0 PUSH1 0x1C PUSH1 0x0 CALLER PUSH20 0xFFFFFFFFFFFFFFFFFFFFFFFFFFFFFFFFFFFFFFFF AND PUSH20 0xFFFFFFFFFFFFFFFFFFFFFFFFFFFFFFFFFFFFFFFF AND DUP2 MSTORE PUSH1 0x20 ADD SWAP1 DUP2 MSTORE PUSH1 0x20 ADD PUSH1 0x0 KECCAK256 PUSH1 0x1 ADD SLOAD EQ ISZERO PUSH2 0x11A5 JUMPI PUSH1 0x1C PUSH1 0x0 CALLER PUSH20 0xFFFFFFFFFFFFFFFFFFFFFFFFFFFFFFFFFFFFFFFF AND PUSH20 0xFFFFFFFFFFFFFFFFFFFFFFFFFFFFFFFFFFFFFFFF AND DUP2 MSTORE PUSH1 0x20 ADD SWAP1 DUP2 MSTORE PUSH1 0x20 ADD PUSH1 0x0 KECCAK256 PUSH1 0x0 DUP1 DUP3 ADD PUSH1 0x0 SWAP1 SSTORE PUSH1 0x1 DUP3 ADD PUSH1 0x0 SWAP1 SSTORE POP POP JUMPDEST POP JUMP JUMPDEST PUSH1 0x1A PUSH1 0x20 MSTORE DUP1 PUSH1 0x0 MSTORE PUSH1 0x40 PUSH1 0x0 KECCAK256 PUSH1 0x0 SWAP2 POP SWAP1 POP SLOAD DUP2 JUMP JUMPDEST PUSH1 0x0 PUSH1 0x14 PUSH1 0x0 SWAP1 SLOAD SWAP1 PUSH2 0x100 EXP SWAP1 DIV PUSH20 0xFFFFFFFFFFFFFFFFFFFFFFFFFFFFFFFFFFFFFFFF AND PUSH20 0xFFFFFFFFFFFFFFFFFFFFFFFFFFFFFFFFFFFFFFFF AND PUSH4 0x70A08231 CALLER PUSH1 0x40 MLOAD DUP3 PUSH4 0xFFFFFFFF AND PUSH1 0xE0 SHL DUP2 MSTORE PUSH1 0x4 ADD PUSH2 0x121D SWAP2 SWAP1 PUSH2 0x3185 JUMP JUMPDEST PUSH1 0x20 PUSH1 0x40 MLOAD DUP1 DUP4 SUB DUP2 DUP7 DUP1 EXTCODESIZE ISZERO DUP1 ISZERO PUSH2 0x1235 JUMPI PUSH1 0x0 DUP1 REVERT JUMPDEST POP GAS STATICCALL ISZERO DUP1 ISZERO PUSH2 0x1249 JUMPI RETURNDATASIZE PUSH1 0x0 DUP1 RETURNDATACOPY RETURNDATASIZE PUSH1 0x0 REVERT JUMPDEST POP POP POP POP PUSH1 0x40 MLOAD RETURNDATASIZE PUSH1 0x1F NOT PUSH1 0x1F DUP3 ADD AND DUP3 ADD DUP1 PUSH1 0x40 MSTORE POP DUP2 ADD SWAP1 PUSH2 0x126D SWAP2 SWAP1 PUSH2 0x2E5A JUMP JUMPDEST SWAP1 POP DUP2 DUP2 GT PUSH2 0x12B1 JUMPI PUSH1 0x40 MLOAD PUSH32 0x8C379A000000000000000000000000000000000000000000000000000000000 DUP2 MSTORE PUSH1 0x4 ADD PUSH2 0x12A8 SWAP1 PUSH2 0x335A JUMP JUMPDEST PUSH1 0x40 MLOAD DUP1 SWAP2 SUB SWAP1 REVERT JUMPDEST PUSH2 0x12DF PUSH1 0x14 PUSH1 0x0 SWAP1 SLOAD SWAP1 PUSH2 0x100 EXP SWAP1 DIV PUSH20 0xFFFFFFFFFFFFFFFFFFFFFFFFFFFFFFFFFFFFFFFF AND CALLER ADDRESS DUP6 PUSH2 0x2982 JUMP JUMPDEST PUSH1 0x0 PUSH3 0x15180 PUSH1 0xD SLOAD TIMESTAMP PUSH2 0x12F3 SWAP2 SWAP1 PUSH2 0x359C JUMP JUMPDEST PUSH2 0x12FD SWAP2 SWAP1 PUSH2 0x3511 JUMP JUMPDEST SWAP1 POP DUP3 PUSH1 0x19 PUSH1 0x0 DUP4 DUP2 MSTORE PUSH1 0x20 ADD SWAP1 DUP2 MSTORE PUSH1 0x20 ADD PUSH1 0x0 KECCAK256 PUSH1 0x0 DUP3 DUP3 SLOAD PUSH2 0x1322 SWAP2 SWAP1 PUSH2 0x34BB JUMP JUMPDEST SWAP3 POP POP DUP2 SWAP1 SSTORE POP DUP3 PUSH1 0x1A PUSH1 0x0 DUP4 DUP2 MSTORE PUSH1 0x20 ADD SWAP1 DUP2 MSTORE PUSH1 0x20 ADD PUSH1 0x0 KECCAK256 PUSH1 0x0 DUP3 DUP3 SLOAD PUSH2 0x134C SWAP2 SWAP1 PUSH2 0x359C JUMP JUMPDEST SWAP3 POP POP DUP2 SWAP1 SSTORE POP POP POP POP JUMP JUMPDEST PUSH1 0x0 PUSH2 0x1418 PUSH8 0xDE0B6B3A7640000 PUSH1 0xC SLOAD PUSH2 0x1373 SWAP2 SWAP1 PUSH2 0x3542 JUMP JUMPDEST PUSH1 0x14 PUSH1 0x0 SWAP1 SLOAD SWAP1 PUSH2 0x100 EXP SWAP1 DIV PUSH20 0xFFFFFFFFFFFFFFFFFFFFFFFFFFFFFFFFFFFFFFFF AND PUSH20 0xFFFFFFFFFFFFFFFFFFFFFFFFFFFFFFFFFFFFFFFF AND PUSH4 0x18160DDD PUSH1 0x40 MLOAD DUP2 PUSH4 0xFFFFFFFF AND PUSH1 0xE0 SHL DUP2 MSTORE PUSH1 0x4 ADD PUSH1 0x20 PUSH1 0x40 MLOAD DUP1 DUP4 SUB DUP2 DUP7 DUP1 EXTCODESIZE ISZERO DUP1 ISZERO PUSH2 0x13DB JUMPI PUSH1 0x0 DUP1 REVERT JUMPDEST POP GAS STATICCALL ISZERO DUP1 ISZERO PUSH2 0x13EF JUMPI RETURNDATASIZE PUSH1 0x0 DUP1 RETURNDATACOPY RETURNDATASIZE PUSH1 0x0 REVERT JUMPDEST POP POP POP POP PUSH1 0x40 MLOAD RETURNDATASIZE PUSH1 0x1F NOT PUSH1 0x1F DUP3 ADD AND DUP3 ADD DUP1 PUSH1 0x40 MSTORE POP DUP2 ADD SWAP1 PUSH2 0x1413 SWAP2 SWAP1 PUSH2 0x2E5A JUMP JUMPDEST PUSH2 0x2941 JUMP JUMPDEST SWAP1 POP SWAP1 JUMP JUMPDEST PUSH1 0x14 PUSH1 0x0 SWAP1 SLOAD SWAP1 PUSH2 0x100 EXP SWAP1 DIV PUSH20 0xFFFFFFFFFFFFFFFFFFFFFFFFFFFFFFFFFFFFFFFF AND DUP2 JUMP JUMPDEST PUSH1 0xB PUSH1 0x0 SWAP1 SLOAD SWAP1 PUSH2 0x100 EXP SWAP1 DIV PUSH20 0xFFFFFFFFFFFFFFFFFFFFFFFFFFFFFFFFFFFFFFFF AND DUP2 JUMP JUMPDEST PUSH1 0x18 PUSH1 0x20 MSTORE DUP1 PUSH1 0x0 MSTORE PUSH1 0x40 PUSH1 0x0 KECCAK256 PUSH1 0x0 SWAP2 POP SWAP1 POP SLOAD DUP2 JUMP JUMPDEST PUSH1 0xD SLOAD DUP2 JUMP JUMPDEST PUSH1 0x0 PUSH2 0x15A0 ADDRESS PUSH20 0xFFFFFFFFFFFFFFFFFFFFFFFFFFFFFFFFFFFFFFFF AND PUSH4 0x1F564A06 PUSH1 0x40 MLOAD DUP2 PUSH4 0xFFFFFFFF AND PUSH1 0xE0 SHL DUP2 MSTORE PUSH1 0x4 ADD PUSH1 0x20 PUSH1 0x40 MLOAD DUP1 DUP4 SUB DUP2 DUP7 DUP1 EXTCODESIZE ISZERO DUP1 ISZERO PUSH2 0x14D2 JUMPI PUSH1 0x0 DUP1 REVERT JUMPDEST POP GAS STATICCALL ISZERO DUP1 ISZERO PUSH2 0x14E6 JUMPI RETURNDATASIZE PUSH1 0x0 DUP1 RETURNDATACOPY RETURNDATASIZE PUSH1 0x0 REVERT JUMPDEST POP POP POP POP PUSH1 0x40 MLOAD RETURNDATASIZE PUSH1 0x1F NOT PUSH1 0x1F DUP3 ADD AND DUP3 ADD DUP1 PUSH1 0x40 MSTORE POP DUP2 ADD SWAP1 PUSH2 0x150A SWAP2 SWAP1 PUSH2 0x2E5A JUMP JUMPDEST ADDRESS PUSH20 0xFFFFFFFFFFFFFFFFFFFFFFFFFFFFFFFFFFFFFFFF AND PUSH4 0xCCAF04F PUSH1 0x40 MLOAD DUP2 PUSH4 0xFFFFFFFF AND PUSH1 0xE0 SHL DUP2 MSTORE PUSH1 0x4 ADD PUSH1 0x20 PUSH1 0x40 MLOAD DUP1 DUP4 SUB DUP2 DUP7 DUP1 EXTCODESIZE ISZERO DUP1 ISZERO PUSH2 0x1550 JUMPI PUSH1 0x0 DUP1 REVERT JUMPDEST POP GAS STATICCALL ISZERO DUP1 ISZERO PUSH2 0x1564 JUMPI RETURNDATASIZE PUSH1 0x0 DUP1 RETURNDATACOPY RETURNDATASIZE PUSH1 0x0 REVERT JUMPDEST POP POP POP POP PUSH1 0x40 MLOAD RETURNDATASIZE PUSH1 0x1F NOT PUSH1 0x1F DUP3 ADD AND DUP3 ADD DUP1 PUSH1 0x40 MSTORE POP DUP2 ADD SWAP1 PUSH2 0x1588 SWAP2 SWAP1 PUSH2 0x2E5A JUMP JUMPDEST PUSH8 0xC7D713B49DA0000 PUSH2 0x159B SWAP2 SWAP1 PUSH2 0x359C JUMP JUMPDEST PUSH2 0x28F0 JUMP JUMPDEST SWAP1 POP SWAP1 JUMP JUMPDEST PUSH1 0xC SLOAD DUP2 JUMP JUMPDEST PUSH1 0xE SLOAD DUP2 JUMP JUMPDEST PUSH3 0xD2F00 TIMESTAMP PUSH2 0x15C0 SWAP2 SWAP1 PUSH2 0x34BB JUMP JUMPDEST PUSH1 0x1C PUSH1 0x0 CALLER PUSH20 0xFFFFFFFFFFFFFFFFFFFFFFFFFFFFFFFFFFFFFFFF AND PUSH20 0xFFFFFFFFFFFFFFFFFFFFFFFFFFFFFFFFFFFFFFFF AND DUP2 MSTORE PUSH1 0x20 ADD SWAP1 DUP2 MSTORE PUSH1 0x20 ADD PUSH1 0x0 KECCAK256 PUSH1 0x0 ADD DUP2 SWAP1 SSTORE POP DUP1 PUSH1 0x1C PUSH1 0x0 CALLER PUSH20 0xFFFFFFFFFFFFFFFFFFFFFFFFFFFFFFFFFFFFFFFF AND PUSH20 0xFFFFFFFFFFFFFFFFFFFFFFFFFFFFFFFFFFFFFFFF AND DUP2 MSTORE PUSH1 0x20 ADD SWAP1 DUP2 MSTORE PUSH1 0x20 ADD PUSH1 0x0 KECCAK256 PUSH1 0x1 ADD PUSH1 0x0 DUP3 DUP3 SLOAD PUSH2 0x1658 SWAP2 SWAP1 PUSH2 0x34BB JUMP JUMPDEST SWAP3 POP POP DUP2 SWAP1 SSTORE POP POP JUMP JUMPDEST PUSH1 0x12 PUSH1 0x0 SWAP1 SLOAD SWAP1 PUSH2 0x100 EXP SWAP1 DIV PUSH1 0xF SIGNEXTEND DUP2 JUMP JUMPDEST PUSH1 0x17 PUSH1 0x0 SWAP1 SLOAD SWAP1 PUSH2 0x100 EXP SWAP1 DIV PUSH20 0xFFFFFFFFFFFFFFFFFFFFFFFFFFFFFFFFFFFFFFFF AND DUP2 JUMP JUMPDEST PUSH2 0x16A3 PUSH2 0x2939 JUMP JUMPDEST PUSH20 0xFFFFFFFFFFFFFFFFFFFFFFFFFFFFFFFFFFFFFFFF AND PUSH2 0x16C1 PUSH2 0x1CDB JUMP JUMPDEST PUSH20 0xFFFFFFFFFFFFFFFFFFFFFFFFFFFFFFFFFFFFFFFF AND EQ PUSH2 0x1717 JUMPI PUSH1 0x40 MLOAD PUSH32 0x8C379A000000000000000000000000000000000000000000000000000000000 DUP2 MSTORE PUSH1 0x4 ADD PUSH2 0x170E SWAP1 PUSH2 0x333A JUMP JUMPDEST PUSH1 0x40 MLOAD DUP1 SWAP2 SUB SWAP1 REVERT JUMPDEST PUSH2 0x1721 PUSH1 0x0 PUSH2 0x2A5C JUMP JUMPDEST JUMP JUMPDEST PUSH1 0x0 DUP1 PUSH1 0x0 DUP1 PUSH3 0x15180 PUSH1 0xE SLOAD PUSH2 0x173A SWAP2 SWAP1 PUSH2 0x3511 JUMP JUMPDEST SWAP1 POP PUSH1 0x0 PUSH3 0x15180 PUSH1 0xD SLOAD TIMESTAMP PUSH2 0x1750 SWAP2 SWAP1 PUSH2 0x359C JUMP JUMPDEST PUSH2 0x175A SWAP2 SWAP1 PUSH2 0x3511 JUMP JUMPDEST SWAP1 POP PUSH1 0x0 DUP2 EQ ISZERO PUSH2 0x1784 JUMPI PUSH1 0x18 PUSH1 0x0 DUP1 DUP2 MSTORE PUSH1 0x20 ADD SWAP1 DUP2 MSTORE PUSH1 0x20 ADD PUSH1 0x0 KECCAK256 SLOAD SWAP5 POP POP POP POP POP PUSH2 0x17D7 JUMP JUMPDEST DUP2 DUP2 PUSH2 0x1790 SWAP2 SWAP1 PUSH2 0x359C JUMP JUMPDEST SWAP3 POP JUMPDEST DUP1 DUP4 LT ISZERO PUSH2 0x17CF JUMPI PUSH1 0x18 PUSH1 0x0 DUP5 DUP2 MSTORE PUSH1 0x20 ADD SWAP1 DUP2 MSTORE PUSH1 0x20 ADD PUSH1 0x0 KECCAK256 SLOAD DUP5 PUSH2 0x17BA SWAP2 SWAP1 PUSH2 0x34BB JUMP JUMPDEST SWAP4 POP DUP3 DUP1 PUSH2 0x17C7 SWAP1 PUSH2 0x3716 JUMP JUMPDEST SWAP4 POP POP PUSH2 0x1793 JUMP JUMPDEST DUP4 SWAP5 POP POP POP POP POP JUMPDEST SWAP1 JUMP JUMPDEST PUSH1 0x2 PUSH1 0x0 SLOAD EQ ISZERO PUSH2 0x1820 JUMPI PUSH1 0x40 MLOAD PUSH32 0x8C379A000000000000000000000000000000000000000000000000000000000 DUP2 MSTORE PUSH1 0x4 ADD PUSH2 0x1817 SWAP1 PUSH2 0x33BA JUMP JUMPDEST PUSH1 0x40 MLOAD DUP1 SWAP2 SUB SWAP1 REVERT JUMPDEST PUSH1 0x2 PUSH1 0x0 DUP2 SWAP1 SSTORE POP PUSH1 0x1B DUP2 PUSH1 0x40 MLOAD PUSH2 0x1838 SWAP2 SWAP1 PUSH2 0x3159 JUMP JUMPDEST SWAP1 DUP2 MSTORE PUSH1 0x20 ADD PUSH1 0x40 MLOAD DUP1 SWAP2 SUB SWAP1 KECCAK256 PUSH1 0x0 ADD PUSH1 0x0 SWAP1 SLOAD SWAP1 PUSH2 0x100 EXP SWAP1 DIV PUSH20 0xFFFFFFFFFFFFFFFFFFFFFFFFFFFFFFFFFFFFFFFF AND PUSH1 0x17 PUSH1 0x0 PUSH2 0x100 EXP DUP2 SLOAD DUP2 PUSH20 0xFFFFFFFFFFFFFFFFFFFFFFFFFFFFFFFFFFFFFFFF MUL NOT AND SWAP1 DUP4 PUSH20 0xFFFFFFFFFFFFFFFFFFFFFFFFFFFFFFFFFFFFFFFF AND MUL OR SWAP1 SSTORE POP PUSH3 0x3D090 DUP3 GT ISZERO PUSH2 0x18F0 JUMPI PUSH1 0x40 MLOAD PUSH32 0x8C379A000000000000000000000000000000000000000000000000000000000 DUP2 MSTORE PUSH1 0x4 ADD PUSH2 0x18E7 SWAP1 PUSH2 0x337A JUMP JUMPDEST PUSH1 0x40 MLOAD DUP1 SWAP2 SUB SWAP1 REVERT JUMPDEST PUSH1 0x0 PUSH1 0x17 PUSH1 0x0 SWAP1 SLOAD SWAP1 PUSH2 0x100 EXP SWAP1 DIV PUSH20 0xFFFFFFFFFFFFFFFFFFFFFFFFFFFFFFFFFFFFFFFF AND PUSH20 0xFFFFFFFFFFFFFFFFFFFFFFFFFFFFFFFFFFFFFFFF AND PUSH4 0x70A08231 CALLER PUSH1 0x40 MLOAD DUP3 PUSH4 0xFFFFFFFF AND PUSH1 0xE0 SHL DUP2 MSTORE PUSH1 0x4 ADD PUSH2 0x194D SWAP2 SWAP1 PUSH2 0x3185 JUMP JUMPDEST PUSH1 0x20 PUSH1 0x40 MLOAD DUP1 DUP4 SUB DUP2 DUP7 DUP1 EXTCODESIZE ISZERO DUP1 ISZERO PUSH2 0x1965 JUMPI PUSH1 0x0 DUP1 REVERT JUMPDEST POP GAS STATICCALL ISZERO DUP1 ISZERO PUSH2 0x1979 JUMPI RETURNDATASIZE PUSH1 0x0 DUP1 RETURNDATACOPY RETURNDATASIZE PUSH1 0x0 REVERT JUMPDEST POP POP POP POP PUSH1 0x40 MLOAD RETURNDATASIZE PUSH1 0x1F NOT PUSH1 0x1F DUP3 ADD AND DUP3 ADD DUP1 PUSH1 0x40 MSTORE POP DUP2 ADD SWAP1 PUSH2 0x199D SWAP2 SWAP1 PUSH2 0x2E5A JUMP JUMPDEST SWAP1 POP DUP3 DUP2 GT PUSH2 0x19E1 JUMPI PUSH1 0x40 MLOAD PUSH32 0x8C379A000000000000000000000000000000000000000000000000000000000 DUP2 MSTORE PUSH1 0x4 ADD PUSH2 0x19D8 SWAP1 PUSH2 0x335A JUMP JUMPDEST PUSH1 0x40 MLOAD DUP1 SWAP2 SUB SWAP1 REVERT JUMPDEST PUSH1 0x0 PUSH1 0x1B DUP4 PUSH1 0x40 MLOAD PUSH2 0x19F3 SWAP2 SWAP1 PUSH2 0x3159 JUMP JUMPDEST SWAP1 DUP2 MSTORE PUSH1 0x20 ADD PUSH1 0x40 MLOAD DUP1 SWAP2 SUB SWAP1 KECCAK256 PUSH1 0x1 ADD SLOAD PUSH2 0x1A8C DUP6 ADDRESS PUSH20 0xFFFFFFFFFFFFFFFFFFFFFFFFFFFFFFFFFFFFFFFF AND PUSH4 0x18A25E8 PUSH1 0x40 MLOAD DUP2 PUSH4 0xFFFFFFFF AND PUSH1 0xE0 SHL DUP2 MSTORE PUSH1 0x4 ADD PUSH1 0x20 PUSH1 0x40 MLOAD DUP1 DUP4 SUB DUP2 DUP7 DUP1 EXTCODESIZE ISZERO DUP1 ISZERO PUSH2 0x1A4F JUMPI PUSH1 0x0 DUP1 REVERT JUMPDEST POP GAS STATICCALL ISZERO DUP1 ISZERO PUSH2 0x1A63 JUMPI RETURNDATASIZE PUSH1 0x0 DUP1 RETURNDATACOPY RETURNDATASIZE PUSH1 0x0 REVERT JUMPDEST POP POP POP POP PUSH1 0x40 MLOAD RETURNDATASIZE PUSH1 0x1F NOT PUSH1 0x1F DUP3 ADD AND DUP3 ADD DUP1 PUSH1 0x40 MSTORE POP DUP2 ADD SWAP1 PUSH2 0x1A87 SWAP2 SWAP1 PUSH2 0x2E5A JUMP JUMPDEST PUSH2 0x28F0 JUMP JUMPDEST PUSH2 0x1A96 SWAP2 SWAP1 PUSH2 0x3542 JUMP JUMPDEST SWAP1 POP PUSH2 0x1AC6 PUSH1 0x17 PUSH1 0x0 SWAP1 SLOAD SWAP1 PUSH2 0x100 EXP SWAP1 DIV PUSH20 0xFFFFFFFFFFFFFFFFFFFFFFFFFFFFFFFFFFFFFFFF AND CALLER ADDRESS DUP5 PUSH2 0x2982 JUMP JUMPDEST PUSH1 0x14 PUSH1 0x0 SWAP1 SLOAD SWAP1 PUSH2 0x100 EXP SWAP1 DIV PUSH20 0xFFFFFFFFFFFFFFFFFFFFFFFFFFFFFFFFFFFFFFFF AND PUSH20 0xFFFFFFFFFFFFFFFFFFFFFFFFFFFFFFFFFFFFFFFF AND PUSH4 0x40C10F19 CALLER PUSH8 0xDE0B6B3A7640000 DUP8 PUSH2 0x1B19 SWAP2 SWAP1 PUSH2 0x3542 JUMP JUMPDEST PUSH1 0x40 MLOAD DUP4 PUSH4 0xFFFFFFFF AND PUSH1 0xE0 SHL DUP2 MSTORE PUSH1 0x4 ADD PUSH2 0x1B36 SWAP3 SWAP2 SWAP1 PUSH2 0x327B JUMP JUMPDEST PUSH1 0x0 PUSH1 0x40 MLOAD DUP1 DUP4 SUB DUP2 PUSH1 0x0 DUP8 DUP1 EXTCODESIZE ISZERO DUP1 ISZERO PUSH2 0x1B50 JUMPI PUSH1 0x0 DUP1 REVERT JUMPDEST POP GAS CALL ISZERO DUP1 ISZERO PUSH2 0x1B64 JUMPI RETURNDATASIZE PUSH1 0x0 DUP1 RETURNDATACOPY RETURNDATASIZE PUSH1 0x0 REVERT JUMPDEST POP POP POP POP PUSH1 0x15 PUSH1 0x0 SWAP1 SLOAD SWAP1 PUSH2 0x100 EXP SWAP1 DIV PUSH20 0xFFFFFFFFFFFFFFFFFFFFFFFFFFFFFFFFFFFFFFFF AND PUSH20 0xFFFFFFFFFFFFFFFFFFFFFFFFFFFFFFFFFFFFFFFF AND PUSH4 0x40C10F19 ADDRESS PUSH8 0xDE0B6B3A7640000 DUP8 PUSH2 0x1BBB SWAP2 SWAP1 PUSH2 0x3542 JUMP JUMPDEST PUSH1 0x40 MLOAD DUP4 PUSH4 0xFFFFFFFF AND PUSH1 0xE0 SHL DUP2 MSTORE PUSH1 0x4 ADD PUSH2 0x1BD8 SWAP3 SWAP2 SWAP1 PUSH2 0x327B JUMP JUMPDEST PUSH1 0x0 PUSH1 0x40 MLOAD DUP1 DUP4 SUB DUP2 PUSH1 0x0 DUP8 DUP1 EXTCODESIZE ISZERO DUP1 ISZERO PUSH2 0x1BF2 JUMPI PUSH1 0x0 DUP1 REVERT JUMPDEST POP GAS CALL ISZERO DUP1 ISZERO PUSH2 0x1C06 JUMPI RETURNDATASIZE PUSH1 0x0 DUP1 RETURNDATACOPY RETURNDATASIZE PUSH1 0x0 REVERT JUMPDEST POP POP POP POP PUSH1 0x0 PUSH3 0x15180 PUSH1 0xD SLOAD TIMESTAMP PUSH2 0x1C1E SWAP2 SWAP1 PUSH2 0x359C JUMP JUMPDEST PUSH2 0x1C28 SWAP2 SWAP1 PUSH2 0x3511 JUMP JUMPDEST SWAP1 POP DUP5 PUSH1 0x18 PUSH1 0x0 DUP4 DUP2 MSTORE PUSH1 0x20 ADD SWAP1 DUP2 MSTORE PUSH1 0x20 ADD PUSH1 0x0 KECCAK256 PUSH1 0x0 DUP3 DUP3 SLOAD PUSH2 0x1C4D SWAP2 SWAP1 PUSH2 0x34BB JUMP JUMPDEST SWAP3 POP POP DUP2 SWAP1 SSTORE POP DUP5 PUSH1 0x1A PUSH1 0x0 DUP4 DUP2 MSTORE PUSH1 0x20 ADD SWAP1 DUP2 MSTORE PUSH1 0x20 ADD PUSH1 0x0 KECCAK256 PUSH1 0x0 DUP3 DUP3 SLOAD PUSH2 0x1C77 SWAP2 SWAP1 PUSH2 0x34BB JUMP JUMPDEST SWAP3 POP POP DUP2 SWAP1 SSTORE POP CALLER PUSH20 0xFFFFFFFFFFFFFFFFFFFFFFFFFFFFFFFFFFFFFFFF AND PUSH32 0xF633443B01504D269657083D48BB6DE98E089CFFF672B47FEFBED21608B5C779 DUP7 PUSH1 0x40 MLOAD PUSH2 0x1CC4 SWAP2 SWAP1 PUSH2 0x33FA JUMP JUMPDEST PUSH1 0x40 MLOAD DUP1 SWAP2 SUB SWAP1 LOG2 POP POP POP PUSH1 0x1 PUSH1 0x0 DUP2 SWAP1 SSTORE POP POP POP JUMP JUMPDEST PUSH1 0x0 PUSH1 0x1 PUSH1 0x0 SWAP1 SLOAD SWAP1 PUSH2 0x100 EXP SWAP1 DIV PUSH20 0xFFFFFFFFFFFFFFFFFFFFFFFFFFFFFFFFFFFFFFFF AND SWAP1 POP SWAP1 JUMP JUMPDEST PUSH1 0x0 DUP1 PUSH1 0x0 DUP1 PUSH3 0x15180 PUSH1 0xE SLOAD PUSH2 0x1D1C SWAP2 SWAP1 PUSH2 0x3511 JUMP JUMPDEST SWAP1 POP PUSH1 0x0 PUSH3 0x15180 PUSH1 0xD SLOAD TIMESTAMP PUSH2 0x1D32 SWAP2 SWAP1 PUSH2 0x359C JUMP JUMPDEST PUSH2 0x1D3C SWAP2 SWAP1 PUSH2 0x3511 JUMP JUMPDEST SWAP1 POP PUSH1 0x0 DUP1 DUP3 EQ ISZERO PUSH2 0x1D63 JUMPI PUSH1 0x1A PUSH1 0x0 DUP1 DUP2 MSTORE PUSH1 0x20 ADD SWAP1 DUP2 MSTORE PUSH1 0x20 ADD PUSH1 0x0 KECCAK256 SLOAD SWAP4 POP PUSH2 0x1DAF JUMP JUMPDEST DUP3 DUP3 PUSH2 0x1D6F SWAP2 SWAP1 PUSH2 0x359C JUMP JUMPDEST SWAP1 POP JUMPDEST DUP2 DUP2 LT ISZERO PUSH2 0x1DAE JUMPI PUSH1 0x1A PUSH1 0x0 DUP3 DUP2 MSTORE PUSH1 0x20 ADD SWAP1 DUP2 MSTORE PUSH1 0x20 ADD PUSH1 0x0 KECCAK256 SLOAD DUP5 PUSH2 0x1D99 SWAP2 SWAP1 PUSH2 0x34BB JUMP JUMPDEST SWAP4 POP DUP1 DUP1 PUSH2 0x1DA6 SWAP1 PUSH2 0x3716 JUMP JUMPDEST SWAP2 POP POP PUSH2 0x1D72 JUMP JUMPDEST JUMPDEST PUSH2 0x1E36 ADDRESS PUSH20 0xFFFFFFFFFFFFFFFFFFFFFFFFFFFFFFFFFFFFFFFF AND PUSH4 0x71CD58F9 PUSH1 0x40 MLOAD DUP2 PUSH4 0xFFFFFFFF AND PUSH1 0xE0 SHL DUP2 MSTORE PUSH1 0x4 ADD PUSH1 0x20 PUSH1 0x40 MLOAD DUP1 DUP4 SUB DUP2 DUP7 DUP1 EXTCODESIZE ISZERO DUP1 ISZERO PUSH2 0x1DF8 JUMPI PUSH1 0x0 DUP1 REVERT JUMPDEST POP GAS STATICCALL ISZERO DUP1 ISZERO PUSH2 0x1E0C JUMPI RETURNDATASIZE PUSH1 0x0 DUP1 RETURNDATACOPY RETURNDATASIZE PUSH1 0x0 REVERT JUMPDEST POP POP POP POP PUSH1 0x40 MLOAD RETURNDATASIZE PUSH1 0x1F NOT PUSH1 0x1F DUP3 ADD AND DUP3 ADD DUP1 PUSH1 0x40 MSTORE POP DUP2 ADD SWAP1 PUSH2 0x1E30 SWAP2 SWAP1 PUSH2 0x2E5A JUMP JUMPDEST DUP6 PUSH2 0x2941 JUMP JUMPDEST SWAP5 POP PUSH8 0x429D069189E0000 DUP6 GT ISZERO PUSH2 0x1E54 JUMPI PUSH8 0x429D069189E0000 SWAP5 POP JUMPDEST DUP5 SWAP6 POP POP POP POP POP POP SWAP1 JUMP JUMPDEST PUSH2 0x1E67 PUSH2 0x2939 JUMP JUMPDEST PUSH20 0xFFFFFFFFFFFFFFFFFFFFFFFFFFFFFFFFFFFFFFFF AND PUSH2 0x1E85 PUSH2 0x1CDB JUMP JUMPDEST PUSH20 0xFFFFFFFFFFFFFFFFFFFFFFFFFFFFFFFFFFFFFFFF AND EQ PUSH2 0x1EDB JUMPI PUSH1 0x40 MLOAD PUSH32 0x8C379A000000000000000000000000000000000000000000000000000000000 DUP2 MSTORE PUSH1 0x4 ADD PUSH2 0x1ED2 SWAP1 PUSH2 0x333A JUMP JUMPDEST PUSH1 0x40 MLOAD DUP1 SWAP2 SUB SWAP1 REVERT JUMPDEST POP JUMP JUMPDEST PUSH1 0x1B DUP2 DUP1 MLOAD PUSH1 0x20 DUP2 ADD DUP3 ADD DUP1 MLOAD DUP5 DUP3 MSTORE PUSH1 0x20 DUP4 ADD PUSH1 0x20 DUP6 ADD KECCAK256 DUP2 DUP4 MSTORE DUP1 SWAP6 POP POP POP POP POP POP PUSH1 0x0 SWAP2 POP SWAP1 POP DUP1 PUSH1 0x0 ADD PUSH1 0x0 SWAP1 SLOAD SWAP1 PUSH2 0x100 EXP SWAP1 DIV PUSH20 0xFFFFFFFFFFFFFFFFFFFFFFFFFFFFFFFFFFFFFFFF AND SWAP1 DUP1 PUSH1 0x1 ADD SLOAD SWAP1 POP DUP3 JUMP JUMPDEST PUSH2 0x1F40 PUSH2 0x2939 JUMP JUMPDEST PUSH20 0xFFFFFFFFFFFFFFFFFFFFFFFFFFFFFFFFFFFFFFFF AND PUSH2 0x1F5E PUSH2 0x1CDB JUMP JUMPDEST PUSH20 0xFFFFFFFFFFFFFFFFFFFFFFFFFFFFFFFFFFFFFFFF AND EQ PUSH2 0x1FB4 JUMPI PUSH1 0x40 MLOAD PUSH32 0x8C379A000000000000000000000000000000000000000000000000000000000 DUP2 MSTORE PUSH1 0x4 ADD PUSH2 0x1FAB SWAP1 PUSH2 0x333A JUMP JUMPDEST PUSH1 0x40 MLOAD DUP1 SWAP2 SUB SWAP1 REVERT JUMPDEST PUSH1 0x1B PUSH1 0x40 MLOAD PUSH2 0x1FC2 SWAP1 PUSH2 0x3170 JUMP JUMPDEST SWAP1 DUP2 MSTORE PUSH1 0x20 ADD PUSH1 0x40 MLOAD DUP1 SWAP2 SUB SWAP1 KECCAK256 PUSH1 0x0 ADD PUSH1 0x0 SWAP1 SLOAD SWAP1 PUSH2 0x100 EXP SWAP1 DIV PUSH20 0xFFFFFFFFFFFFFFFFFFFFFFFFFFFFFFFFFFFFFFFF AND PUSH1 0x17 PUSH1 0x0 PUSH2 0x100 EXP DUP2 SLOAD DUP2 PUSH20 0xFFFFFFFFFFFFFFFFFFFFFFFFFFFFFFFFFFFFFFFF MUL NOT AND SWAP1 DUP4 PUSH20 0xFFFFFFFFFFFFFFFFFFFFFFFFFFFFFFFFFFFFFFFF AND MUL OR SWAP1 SSTORE POP JUMP JUMPDEST PUSH1 0x1C PUSH1 0x0 DUP4 PUSH20 0xFFFFFFFFFFFFFFFFFFFFFFFFFFFFFFFFFFFFFFFF AND PUSH20 0xFFFFFFFFFFFFFFFFFFFFFFFFFFFFFFFFFFFFFFFF AND DUP2 MSTORE PUSH1 0x20 ADD SWAP1 DUP2 MSTORE PUSH1 0x20 ADD PUSH1 0x0 KECCAK256 PUSH1 0x0 ADD SLOAD TIMESTAMP LT ISZERO PUSH2 0x20BB JUMPI PUSH1 0x40 MLOAD PUSH32 0x8C379A000000000000000000000000000000000000000000000000000000000 DUP2 MSTORE PUSH1 0x4 ADD PUSH2 0x20B2 SWAP1 PUSH2 0x339A JUMP JUMPDEST PUSH1 0x40 MLOAD DUP1 SWAP2 SUB SWAP1 REVERT JUMPDEST PUSH1 0x1B DUP2 PUSH1 0x40 MLOAD PUSH2 0x20CB SWAP2 SWAP1 PUSH2 0x3159 JUMP JUMPDEST SWAP1 DUP2 MSTORE PUSH1 0x20 ADD PUSH1 0x40 MLOAD DUP1 SWAP2 SUB SWAP1 KECCAK256 PUSH1 0x0 ADD PUSH1 0x0 SWAP1 SLOAD SWAP1 PUSH2 0x100 EXP SWAP1 DIV PUSH20 0xFFFFFFFFFFFFFFFFFFFFFFFFFFFFFFFFFFFFFFFF AND PUSH1 0x17 PUSH1 0x0 PUSH2 0x100 EXP DUP2 SLOAD DUP2 PUSH20 0xFFFFFFFFFFFFFFFFFFFFFFFFFFFFFFFFFFFFFFFF MUL NOT AND SWAP1 DUP4 PUSH20 0xFFFFFFFFFFFFFFFFFFFFFFFFFFFFFFFFFFFFFFFF AND MUL OR SWAP1 SSTORE POP PUSH1 0x0 PUSH1 0x1C PUSH1 0x0 DUP5 PUSH20 0xFFFFFFFFFFFFFFFFFFFFFFFFFFFFFFFFFFFFFFFF AND PUSH20 0xFFFFFFFFFFFFFFFFFFFFFFFFFFFFFFFFFFFFFFFF AND DUP2 MSTORE PUSH1 0x20 ADD SWAP1 DUP2 MSTORE PUSH1 0x20 ADD PUSH1 0x0 KECCAK256 PUSH1 0x1 ADD SLOAD SWAP1 POP PUSH2 0x21B2 PUSH1 0x17 PUSH1 0x0 SWAP1 SLOAD SWAP1 PUSH2 0x100 EXP SWAP1 DIV PUSH20 0xFFFFFFFFFFFFFFFFFFFFFFFFFFFFFFFFFFFFFFFF AND ADDRESS CALLER DUP5 PUSH2 0x2982 JUMP JUMPDEST POP POP POP JUMP JUMPDEST PUSH1 0x9 PUSH1 0x0 SWAP1 SLOAD SWAP1 PUSH2 0x100 EXP SWAP1 DIV PUSH20 0xFFFFFFFFFFFFFFFFFFFFFFFFFFFFFFFFFFFFFFFF AND DUP2 JUMP JUMPDEST PUSH1 0x16 PUSH1 0x0 SWAP1 SLOAD SWAP1 PUSH2 0x100 EXP SWAP1 DIV PUSH20 0xFFFFFFFFFFFFFFFFFFFFFFFFFFFFFFFFFFFFFFFF AND DUP2 JUMP JUMPDEST PUSH1 0x1B DUP2 PUSH1 0x40 MLOAD PUSH2 0x2213 SWAP2 SWAP1 PUSH2 0x3159 JUMP JUMPDEST SWAP1 DUP2 MSTORE PUSH1 0x20 ADD PUSH1 0x40 MLOAD DUP1 SWAP2 SUB SWAP1 KECCAK256 PUSH1 0x0 ADD PUSH1 0x0 SWAP1 SLOAD SWAP1 PUSH2 0x100 EXP SWAP1 DIV PUSH20 0xFFFFFFFFFFFFFFFFFFFFFFFFFFFFFFFFFFFFFFFF AND PUSH1 0x17 PUSH1 0x0 PUSH2 0x100 EXP DUP2 SLOAD DUP2 PUSH20 0xFFFFFFFFFFFFFFFFFFFFFFFFFFFFFFFFFFFFFFFF MUL NOT AND SWAP1 DUP4 PUSH20 0xFFFFFFFFFFFFFFFFFFFFFFFFFFFFFFFFFFFFFFFF AND MUL OR SWAP1 SSTORE POP PUSH1 0x0 PUSH1 0x14 PUSH1 0x0 SWAP1 SLOAD SWAP1 PUSH2 0x100 EXP SWAP1 DIV PUSH20 0xFFFFFFFFFFFFFFFFFFFFFFFFFFFFFFFFFFFFFFFF AND PUSH20 0xFFFFFFFFFFFFFFFFFFFFFFFFFFFFFFFFFFFFFFFF AND PUSH4 0x70A08231 CALLER PUSH1 0x40 MLOAD DUP3 PUSH4 0xFFFFFFFF AND PUSH1 0xE0 SHL DUP2 MSTORE PUSH1 0x4 ADD PUSH2 0x22E2 SWAP2 SWAP1 PUSH2 0x3185 JUMP JUMPDEST PUSH1 0x20 PUSH1 0x40 MLOAD DUP1 DUP4 SUB DUP2 DUP7 DUP1 EXTCODESIZE ISZERO DUP1 ISZERO PUSH2 0x22FA JUMPI PUSH1 0x0 DUP1 REVERT JUMPDEST POP GAS STATICCALL ISZERO DUP1 ISZERO PUSH2 0x230E JUMPI RETURNDATASIZE PUSH1 0x0 DUP1 RETURNDATACOPY RETURNDATASIZE PUSH1 0x0 REVERT JUMPDEST POP POP POP POP PUSH1 0x40 MLOAD RETURNDATASIZE PUSH1 0x1F NOT PUSH1 0x1F DUP3 ADD AND DUP3 ADD DUP1 PUSH1 0x40 MSTORE POP DUP2 ADD SWAP1 PUSH2 0x2332 SWAP2 SWAP1 PUSH2 0x2E5A JUMP JUMPDEST SWAP1 POP DUP4 DUP2 GT PUSH2 0x2376 JUMPI PUSH1 0x40 MLOAD PUSH32 0x8C379A000000000000000000000000000000000000000000000000000000000 DUP2 MSTORE PUSH1 0x4 ADD PUSH2 0x236D SWAP1 PUSH2 0x335A JUMP JUMPDEST PUSH1 0x40 MLOAD DUP1 SWAP2 SUB SWAP1 REVERT JUMPDEST PUSH1 0x17 PUSH1 0x0 SWAP1 SLOAD SWAP1 PUSH2 0x100 EXP SWAP1 DIV PUSH20 0xFFFFFFFFFFFFFFFFFFFFFFFFFFFFFFFFFFFFFFFF AND PUSH20 0xFFFFFFFFFFFFFFFFFFFFFFFFFFFFFFFFFFFFFFFF AND PUSH4 0xA9059CBB CALLER PUSH8 0xDE0B6B3A7640000 PUSH1 0x1 PUSH2 0x23CA SWAP2 SWAP1 PUSH2 0x3542 JUMP JUMPDEST DUP8 PUSH2 0x23D5 SWAP2 SWAP1 PUSH2 0x34BB JUMP JUMPDEST PUSH1 0x40 MLOAD DUP4 PUSH4 0xFFFFFFFF AND PUSH1 0xE0 SHL DUP2 MSTORE PUSH1 0x4 ADD PUSH2 0x23F2 SWAP3 SWAP2 SWAP1 PUSH2 0x327B JUMP JUMPDEST PUSH1 0x20 PUSH1 0x40 MLOAD DUP1 DUP4 SUB DUP2 PUSH1 0x0 DUP8 DUP1 EXTCODESIZE ISZERO DUP1 ISZERO PUSH2 0x240C JUMPI PUSH1 0x0 DUP1 REVERT JUMPDEST POP GAS CALL ISZERO DUP1 ISZERO PUSH2 0x2420 JUMPI RETURNDATASIZE PUSH1 0x0 DUP1 RETURNDATACOPY RETURNDATASIZE PUSH1 0x0 REVERT JUMPDEST POP POP POP POP PUSH1 0x40 MLOAD RETURNDATASIZE PUSH1 0x1F NOT PUSH1 0x1F DUP3 ADD AND DUP3 ADD DUP1 PUSH1 0x40 MSTORE POP DUP2 ADD SWAP1 PUSH2 0x2444 SWAP2 SWAP1 PUSH2 0x2D48 JUMP JUMPDEST POP PUSH2 0x2473 PUSH1 0x14 PUSH1 0x0 SWAP1 SLOAD SWAP1 PUSH2 0x100 EXP SWAP1 DIV PUSH20 0xFFFFFFFFFFFFFFFFFFFFFFFFFFFFFFFFFFFFFFFF AND CALLER ADDRESS DUP8 PUSH2 0x2982 JUMP JUMPDEST PUSH1 0x0 DUP5 ADDRESS PUSH20 0xFFFFFFFFFFFFFFFFFFFFFFFFFFFFFFFFFFFFFFFF AND PUSH4 0x43D32E9C PUSH1 0x40 MLOAD DUP2 PUSH4 0xFFFFFFFF AND PUSH1 0xE0 SHL DUP2 MSTORE PUSH1 0x4 ADD PUSH1 0x20 PUSH1 0x40 MLOAD DUP1 DUP4 SUB DUP2 DUP7 DUP1 EXTCODESIZE ISZERO DUP1 ISZERO PUSH2 0x24BC JUMPI PUSH1 0x0 DUP1 REVERT JUMPDEST POP GAS STATICCALL ISZERO DUP1 ISZERO PUSH2 0x24D0 JUMPI RETURNDATASIZE PUSH1 0x0 DUP1 RETURNDATACOPY RETURNDATASIZE PUSH1 0x0 REVERT JUMPDEST POP POP POP POP PUSH1 0x40 MLOAD RETURNDATASIZE PUSH1 0x1F NOT PUSH1 0x1F DUP3 ADD AND DUP3 ADD DUP1 PUSH1 0x40 MSTORE POP DUP2 ADD SWAP1 PUSH2 0x24F4 SWAP2 SWAP1 PUSH2 0x2E5A JUMP JUMPDEST PUSH2 0x24FE SWAP2 SWAP1 PUSH2 0x3542 JUMP JUMPDEST SWAP1 POP PUSH1 0x0 PUSH3 0x15180 PUSH1 0xD SLOAD TIMESTAMP PUSH2 0x2514 SWAP2 SWAP1 PUSH2 0x359C JUMP JUMPDEST PUSH2 0x251E SWAP2 SWAP1 PUSH2 0x3511 JUMP JUMPDEST SWAP1 POP DUP6 PUSH1 0x19 PUSH1 0x0 DUP4 DUP2 MSTORE PUSH1 0x20 ADD SWAP1 DUP2 MSTORE PUSH1 0x20 ADD PUSH1 0x0 KECCAK256 PUSH1 0x0 DUP3 DUP3 SLOAD PUSH2 0x2543 SWAP2 SWAP1 PUSH2 0x34BB JUMP JUMPDEST SWAP3 POP POP DUP2 SWAP1 SSTORE POP DUP6 PUSH1 0x1A PUSH1 0x0 DUP4 DUP2 MSTORE PUSH1 0x20 ADD SWAP1 DUP2 MSTORE PUSH1 0x20 ADD PUSH1 0x0 KECCAK256 PUSH1 0x0 DUP3 DUP3 SLOAD PUSH2 0x256D SWAP2 SWAP1 PUSH2 0x359C JUMP JUMPDEST SWAP3 POP POP DUP2 SWAP1 SSTORE POP POP POP POP POP POP POP JUMP JUMPDEST PUSH1 0x3 SLOAD DUP2 JUMP JUMPDEST PUSH1 0x15 PUSH1 0x0 SWAP1 SLOAD SWAP1 PUSH2 0x100 EXP SWAP1 DIV PUSH20 0xFFFFFFFFFFFFFFFFFFFFFFFFFFFFFFFFFFFFFFFF AND DUP2 JUMP JUMPDEST PUSH1 0x0 DUP1 PUSH1 0x0 DUP1 PUSH3 0x15180 PUSH1 0xE SLOAD PUSH2 0x25BF SWAP2 SWAP1 PUSH2 0x3511 JUMP JUMPDEST SWAP1 POP PUSH1 0x0 SWAP2 POP JUMPDEST DUP1 DUP3 LT ISZERO PUSH2 0x2602 JUMPI PUSH1 0x19 PUSH1 0x0 DUP4 DUP2 MSTORE PUSH1 0x20 ADD SWAP1 DUP2 MSTORE PUSH1 0x20 ADD PUSH1 0x0 KECCAK256 SLOAD DUP4 PUSH2 0x25ED SWAP2 SWAP1 PUSH2 0x34BB JUMP JUMPDEST SWAP3 POP DUP2 DUP1 PUSH2 0x25FA SWAP1 PUSH2 0x3716 JUMP JUMPDEST SWAP3 POP POP PUSH2 0x25C6 JUMP JUMPDEST DUP3 SWAP4 POP POP POP POP SWAP1 JUMP JUMPDEST PUSH2 0x2613 PUSH2 0x2939 JUMP JUMPDEST PUSH20 0xFFFFFFFFFFFFFFFFFFFFFFFFFFFFFFFFFFFFFFFF AND PUSH2 0x2631 PUSH2 0x1CDB JUMP JUMPDEST PUSH20 0xFFFFFFFFFFFFFFFFFFFFFFFFFFFFFFFFFFFFFFFF AND EQ PUSH2 0x2687 JUMPI PUSH1 0x40 MLOAD PUSH32 0x8C379A000000000000000000000000000000000000000000000000000000000 DUP2 MSTORE PUSH1 0x4 ADD PUSH2 0x267E SWAP1 PUSH2 0x333A JUMP JUMPDEST PUSH1 0x40 MLOAD DUP1 SWAP2 SUB SWAP1 REVERT JUMPDEST DUP2 PUSH1 0x1B DUP5 PUSH1 0x40 MLOAD PUSH2 0x2698 SWAP2 SWAP1 PUSH2 0x3159 JUMP JUMPDEST SWAP1 DUP2 MSTORE PUSH1 0x20 ADD PUSH1 0x40 MLOAD DUP1 SWAP2 SUB SWAP1 KECCAK256 PUSH1 0x0 ADD PUSH1 0x0 PUSH2 0x100 EXP DUP2 SLOAD DUP2 PUSH20 0xFFFFFFFFFFFFFFFFFFFFFFFFFFFFFFFFFFFFFFFF MUL NOT AND SWAP1 DUP4 PUSH20 0xFFFFFFFFFFFFFFFFFFFFFFFFFFFFFFFFFFFFFFFF AND MUL OR SWAP1 SSTORE POP DUP1 PUSH1 0x1B DUP5 PUSH1 0x40 MLOAD PUSH2 0x26F8 SWAP2 SWAP1 PUSH2 0x3159 JUMP JUMPDEST SWAP1 DUP2 MSTORE PUSH1 0x20 ADD PUSH1 0x40 MLOAD DUP1 SWAP2 SUB SWAP1 KECCAK256 PUSH1 0x1 ADD DUP2 SWAP1 SSTORE POP POP POP POP JUMP JUMPDEST PUSH1 0x2 SLOAD DUP2 JUMP JUMPDEST PUSH1 0x13 PUSH1 0x0 SWAP1 SLOAD SWAP1 PUSH2 0x100 EXP SWAP1 DIV PUSH20 0xFFFFFFFFFFFFFFFFFFFFFFFFFFFFFFFFFFFFFFFF AND DUP2 JUMP JUMPDEST PUSH2 0x2746 PUSH2 0x2939 JUMP JUMPDEST PUSH20 0xFFFFFFFFFFFFFFFFFFFFFFFFFFFFFFFFFFFFFFFF AND PUSH2 0x2764 PUSH2 0x1CDB JUMP JUMPDEST PUSH20 0xFFFFFFFFFFFFFFFFFFFFFFFFFFFFFFFFFFFFFFFF AND EQ PUSH2 0x27BA JUMPI PUSH1 0x40 MLOAD PUSH32 0x8C379A000000000000000000000000000000000000000000000000000000000 DUP2 MSTORE PUSH1 0x4 ADD PUSH2 0x27B1 SWAP1 PUSH2 0x333A JUMP JUMPDEST PUSH1 0x40 MLOAD DUP1 SWAP2 SUB SWAP1 REVERT JUMPDEST PUSH1 0x0 PUSH20 0xFFFFFFFFFFFFFFFFFFFFFFFFFFFFFFFFFFFFFFFF AND DUP2 PUSH20 0xFFFFFFFFFFFFFFFFFFFFFFFFFFFFFFFFFFFFFFFF AND EQ ISZERO PUSH2 0x282A JUMPI PUSH1 0x40 MLOAD PUSH32 0x8C379A000000000000000000000000000000000000000000000000000000000 DUP2 MSTORE PUSH1 0x4 ADD PUSH2 0x2821 SWAP1 PUSH2 0x32FA JUMP JUMPDEST PUSH1 0x40 MLOAD DUP1 SWAP2 SUB SWAP1 REVERT JUMPDEST PUSH2 0x2833 DUP2 PUSH2 0x2A5C JUMP JUMPDEST POP JUMP JUMPDEST PUSH1 0x8 PUSH1 0x0 SWAP1 SLOAD SWAP1 PUSH2 0x100 EXP SWAP1 DIV PUSH20 0xFFFFFFFFFFFFFFFFFFFFFFFFFFFFFFFFFFFFFFFF AND DUP2 JUMP JUMPDEST PUSH2 0x2864 PUSH2 0x2939 JUMP JUMPDEST PUSH20 0xFFFFFFFFFFFFFFFFFFFFFFFFFFFFFFFFFFFFFFFF AND PUSH2 0x2882 PUSH2 0x1CDB JUMP JUMPDEST PUSH20 0xFFFFFFFFFFFFFFFFFFFFFFFFFFFFFFFFFFFFFFFF AND EQ PUSH2 0x28D8 JUMPI PUSH1 0x40 MLOAD PUSH32 0x8C379A000000000000000000000000000000000000000000000000000000000 DUP2 MSTORE PUSH1 0x4 ADD PUSH2 0x28CF SWAP1 PUSH2 0x333A JUMP JUMPDEST PUSH1 0x40 MLOAD DUP1 SWAP2 SUB SWAP1 REVERT JUMPDEST PUSH3 0x15180 DUP2 PUSH2 0x28E7 SWAP2 SWAP1 PUSH2 0x3542 JUMP JUMPDEST PUSH1 0xE DUP2 SWAP1 SSTORE POP POP JUMP JUMPDEST PUSH1 0x0 DUP1 PUSH2 0x28FD DUP5 DUP5 PUSH2 0x2B22 JUMP JUMPDEST SWAP1 POP PUSH8 0xDE0B6B3A7640000 PUSH2 0x2926 DUP3 PUSH1 0x2 PUSH8 0xDE0B6B3A7640000 PUSH2 0x2921 SWAP2 SWAP1 PUSH2 0x3511 JUMP JUMPDEST PUSH2 0x2B9D JUMP JUMPDEST PUSH2 0x2930 SWAP2 SWAP1 PUSH2 0x3511 JUMP JUMPDEST SWAP2 POP POP SWAP3 SWAP2 POP POP JUMP JUMPDEST PUSH1 0x0 CALLER SWAP1 POP SWAP1 JUMP JUMPDEST PUSH1 0x0 DUP1 PUSH2 0x2956 DUP5 PUSH8 0xDE0B6B3A7640000 PUSH2 0x2B22 JUMP JUMPDEST SWAP1 POP DUP3 PUSH2 0x296F DUP3 PUSH1 0x2 DUP7 PUSH2 0x296A SWAP2 SWAP1 PUSH2 0x3511 JUMP JUMPDEST PUSH2 0x2B9D JUMP JUMPDEST PUSH2 0x2979 SWAP2 SWAP1 PUSH2 0x3511 JUMP JUMPDEST SWAP2 POP POP SWAP3 SWAP2 POP POP JUMP JUMPDEST PUSH1 0x0 DUP5 PUSH20 0xFFFFFFFFFFFFFFFFFFFFFFFFFFFFFFFFFFFFFFFF AND PUSH4 0x23B872DD DUP6 DUP6 DUP6 PUSH1 0x40 MLOAD DUP5 PUSH4 0xFFFFFFFF AND PUSH1 0xE0 SHL DUP2 MSTORE PUSH1 0x4 ADD PUSH2 0x29C1 SWAP4 SWAP3 SWAP2 SWAP1 PUSH2 0x31A0 JUMP JUMPDEST PUSH1 0x20 PUSH1 0x40 MLOAD DUP1 DUP4 SUB DUP2 PUSH1 0x0 DUP8 DUP1 EXTCODESIZE ISZERO DUP1 ISZERO PUSH2 0x29DB JUMPI PUSH1 0x0 DUP1 REVERT JUMPDEST POP GAS CALL ISZERO DUP1 ISZERO PUSH2 0x29EF JUMPI RETURNDATASIZE PUSH1 0x0 DUP1 RETURNDATACOPY RETURNDATASIZE PUSH1 0x0 REVERT JUMPDEST POP POP POP POP PUSH1 0x40 MLOAD RETURNDATASIZE PUSH1 0x1F NOT PUSH1 0x1F DUP3 ADD AND DUP3 ADD DUP1 PUSH1 0x40 MSTORE POP DUP2 ADD SWAP1 PUSH2 0x2A13 SWAP2 SWAP1 PUSH2 0x2D48 JUMP JUMPDEST SWAP1 POP DUP1 PUSH2 0x2A55 JUMPI PUSH1 0x40 MLOAD PUSH32 0x8C379A000000000000000000000000000000000000000000000000000000000 DUP2 MSTORE PUSH1 0x4 ADD PUSH2 0x2A4C SWAP1 PUSH2 0x331A JUMP JUMPDEST PUSH1 0x40 MLOAD DUP1 SWAP2 SUB SWAP1 REVERT JUMPDEST POP POP POP POP POP JUMP JUMPDEST PUSH1 0x0 PUSH1 0x1 PUSH1 0x0 SWAP1 SLOAD SWAP1 PUSH2 0x100 EXP SWAP1 DIV PUSH20 0xFFFFFFFFFFFFFFFFFFFFFFFFFFFFFFFFFFFFFFFF AND SWAP1 POP DUP2 PUSH1 0x1 PUSH1 0x0 PUSH2 0x100 EXP DUP2 SLOAD DUP2 PUSH20 0xFFFFFFFFFFFFFFFFFFFFFFFFFFFFFFFFFFFFFFFF MUL NOT AND SWAP1 DUP4 PUSH20 0xFFFFFFFFFFFFFFFFFFFFFFFFFFFFFFFFFFFFFFFF AND MUL OR SWAP1 SSTORE POP DUP2 PUSH20 0xFFFFFFFFFFFFFFFFFFFFFFFFFFFFFFFFFFFFFFFF AND DUP2 PUSH20 0xFFFFFFFFFFFFFFFFFFFFFFFFFFFFFFFFFFFFFFFF AND PUSH32 0x8BE0079C531659141344CD1FD0A4F28419497F9722A3DAAFE3B4186F6B6457E0 PUSH1 0x40 MLOAD PUSH1 0x40 MLOAD DUP1 SWAP2 SUB SWAP1 LOG3 POP POP JUMP JUMPDEST PUSH1 0x0 DUP1 DUP4 EQ ISZERO PUSH2 0x2B35 JUMPI PUSH1 0x0 SWAP1 POP PUSH2 0x2B97 JUMP JUMPDEST PUSH1 0x0 DUP3 DUP5 PUSH2 0x2B43 SWAP2 SWAP1 PUSH2 0x3542 JUMP JUMPDEST SWAP1 POP DUP3 DUP5 DUP3 PUSH2 0x2B52 SWAP2 SWAP1 PUSH2 0x3511 JUMP JUMPDEST EQ PUSH2 0x2B92 JUMPI PUSH1 0x40 MLOAD PUSH32 0x8C379A000000000000000000000000000000000000000000000000000000000 DUP2 MSTORE PUSH1 0x4 ADD PUSH2 0x2B89 SWAP1 PUSH2 0x33DA JUMP JUMPDEST PUSH1 0x40 MLOAD DUP1 SWAP2 SUB SWAP1 REVERT JUMPDEST DUP1 SWAP2 POP POP JUMPDEST SWAP3 SWAP2 POP POP JUMP JUMPDEST PUSH1 0x0 DUP1 DUP3 DUP5 PUSH2 0x2BAC SWAP2 SWAP1 PUSH2 0x34BB JUMP JUMPDEST SWAP1 POP DUP4 DUP2 LT ISZERO PUSH2 0x2BF1 JUMPI PUSH1 0x40 MLOAD PUSH32 0x8C379A000000000000000000000000000000000000000000000000000000000 DUP2 MSTORE PUSH1 0x4 ADD PUSH2 0x2BE8 SWAP1 PUSH2 0x33DA JUMP JUMPDEST PUSH1 0x40 MLOAD DUP1 SWAP2 SUB SWAP1 REVERT JUMPDEST DUP1 SWAP2 POP POP SWAP3 SWAP2 POP POP JUMP JUMPDEST PUSH1 0x0 PUSH2 0x2C0E PUSH2 0x2C09 DUP5 PUSH2 0x3463 JUMP JUMPDEST PUSH2 0x343E JUMP JUMPDEST SWAP1 POP DUP3 DUP2 MSTORE PUSH1 0x20 DUP2 ADD DUP5 DUP5 DUP5 ADD GT ISZERO PUSH2 0x2C2A JUMPI PUSH2 0x2C29 PUSH2 0x37F1 JUMP JUMPDEST JUMPDEST PUSH2 0x2C35 DUP5 DUP3 DUP6 PUSH2 0x36A3 JUMP JUMPDEST POP SWAP4 SWAP3 POP POP POP JUMP JUMPDEST PUSH1 0x0 DUP2 CALLDATALOAD SWAP1 POP PUSH2 0x2C4C DUP2 PUSH2 0x3A1D JUMP JUMPDEST SWAP3 SWAP2 POP POP JUMP JUMPDEST PUSH1 0x0 DUP2 MLOAD SWAP1 POP PUSH2 0x2C61 DUP2 PUSH2 0x3A34 JUMP JUMPDEST SWAP3 SWAP2 POP POP JUMP JUMPDEST PUSH1 0x0 DUP3 PUSH1 0x1F DUP4 ADD SLT PUSH2 0x2C7C JUMPI PUSH2 0x2C7B PUSH2 0x37EC JUMP JUMPDEST JUMPDEST DUP2 CALLDATALOAD PUSH2 0x2C8C DUP5 DUP3 PUSH1 0x20 DUP7 ADD PUSH2 0x2BFB JUMP JUMPDEST SWAP2 POP POP SWAP3 SWAP2 POP POP JUMP JUMPDEST PUSH1 0x0 DUP2 CALLDATALOAD SWAP1 POP PUSH2 0x2CA4 DUP2 PUSH2 0x3A4B JUMP JUMPDEST SWAP3 SWAP2 POP POP JUMP JUMPDEST PUSH1 0x0 DUP2 MLOAD SWAP1 POP PUSH2 0x2CB9 DUP2 PUSH2 0x3A4B JUMP JUMPDEST SWAP3 SWAP2 POP POP JUMP JUMPDEST PUSH1 0x0 PUSH1 0x20 DUP3 DUP5 SUB SLT ISZERO PUSH2 0x2CD5 JUMPI PUSH2 0x2CD4 PUSH2 0x37FB JUMP JUMPDEST JUMPDEST PUSH1 0x0 PUSH2 0x2CE3 DUP5 DUP3 DUP6 ADD PUSH2 0x2C3D JUMP JUMPDEST SWAP2 POP POP SWAP3 SWAP2 POP POP JUMP JUMPDEST PUSH1 0x0 DUP1 PUSH1 0x40 DUP4 DUP6 SUB SLT ISZERO PUSH2 0x2D03 JUMPI PUSH2 0x2D02 PUSH2 0x37FB JUMP JUMPDEST JUMPDEST PUSH1 0x0 PUSH2 0x2D11 DUP6 DUP3 DUP7 ADD PUSH2 0x2C3D JUMP JUMPDEST SWAP3 POP POP PUSH1 0x20 DUP4 ADD CALLDATALOAD PUSH8 0xFFFFFFFFFFFFFFFF DUP2 GT ISZERO PUSH2 0x2D32 JUMPI PUSH2 0x2D31 PUSH2 0x37F6 JUMP JUMPDEST JUMPDEST PUSH2 0x2D3E DUP6 DUP3 DUP7 ADD PUSH2 0x2C67 JUMP JUMPDEST SWAP2 POP POP SWAP3 POP SWAP3 SWAP1 POP JUMP JUMPDEST PUSH1 0x0 PUSH1 0x20 DUP3 DUP5 SUB SLT ISZERO PUSH2 0x2D5E JUMPI PUSH2 0x2D5D PUSH2 0x37FB JUMP JUMPDEST JUMPDEST PUSH1 0x0 PUSH2 0x2D6C DUP5 DUP3 DUP6 ADD PUSH2 0x2C52 JUMP JUMPDEST SWAP2 POP POP SWAP3 SWAP2 POP POP JUMP JUMPDEST PUSH1 0x0 PUSH1 0x20 DUP3 DUP5 SUB SLT ISZERO PUSH2 0x2D8B JUMPI PUSH2 0x2D8A PUSH2 0x37FB JUMP JUMPDEST JUMPDEST PUSH1 0x0 DUP3 ADD CALLDATALOAD PUSH8 0xFFFFFFFFFFFFFFFF DUP2 GT ISZERO PUSH2 0x2DA9 JUMPI PUSH2 0x2DA8 PUSH2 0x37F6 JUMP JUMPDEST JUMPDEST PUSH2 0x2DB5 DUP5 DUP3 DUP6 ADD PUSH2 0x2C67 JUMP JUMPDEST SWAP2 POP POP SWAP3 SWAP2 POP POP JUMP JUMPDEST PUSH1 0x0 DUP1 PUSH1 0x0 PUSH1 0x60 DUP5 DUP7 SUB SLT ISZERO PUSH2 0x2DD7 JUMPI PUSH2 0x2DD6 PUSH2 0x37FB JUMP JUMPDEST JUMPDEST PUSH1 0x0 DUP5 ADD CALLDATALOAD PUSH8 0xFFFFFFFFFFFFFFFF DUP2 GT ISZERO PUSH2 0x2DF5 JUMPI PUSH2 0x2DF4 PUSH2 0x37F6 JUMP JUMPDEST JUMPDEST PUSH2 0x2E01 DUP7 DUP3 DUP8 ADD PUSH2 0x2C67 JUMP JUMPDEST SWAP4 POP POP PUSH1 0x20 PUSH2 0x2E12 DUP7 DUP3 DUP8 ADD PUSH2 0x2C3D JUMP JUMPDEST SWAP3 POP POP PUSH1 0x40 PUSH2 0x2E23 DUP7 DUP3 DUP8 ADD PUSH2 0x2C95 JUMP JUMPDEST SWAP2 POP POP SWAP3 POP SWAP3 POP SWAP3 JUMP JUMPDEST PUSH1 0x0 PUSH1 0x20 DUP3 DUP5 SUB SLT ISZERO PUSH2 0x2E43 JUMPI PUSH2 0x2E42 PUSH2 0x37FB JUMP JUMPDEST JUMPDEST PUSH1 0x0 PUSH2 0x2E51 DUP5 DUP3 DUP6 ADD PUSH2 0x2C95 JUMP JUMPDEST SWAP2 POP POP SWAP3 SWAP2 POP POP JUMP JUMPDEST PUSH1 0x0 PUSH1 0x20 DUP3 DUP5 SUB SLT ISZERO PUSH2 0x2E70 JUMPI PUSH2 0x2E6F PUSH2 0x37FB JUMP JUMPDEST JUMPDEST PUSH1 0x0 PUSH2 0x2E7E DUP5 DUP3 DUP6 ADD PUSH2 0x2CAA JUMP JUMPDEST SWAP2 POP POP SWAP3 SWAP2 POP POP JUMP JUMPDEST PUSH1 0x0 DUP1 PUSH1 0x40 DUP4 DUP6 SUB SLT ISZERO PUSH2 0x2E9E JUMPI PUSH2 0x2E9D PUSH2 0x37FB JUMP JUMPDEST JUMPDEST PUSH1 0x0 PUSH2 0x2EAC DUP6 DUP3 DUP7 ADD PUSH2 0x2C95 JUMP JUMPDEST SWAP3 POP POP PUSH1 0x20 DUP4 ADD CALLDATALOAD PUSH8 0xFFFFFFFFFFFFFFFF DUP2 GT ISZERO PUSH2 0x2ECD JUMPI PUSH2 0x2ECC PUSH2 0x37F6 JUMP JUMPDEST JUMPDEST PUSH2 0x2ED9 DUP6 DUP3 DUP7 ADD PUSH2 0x2C67 JUMP JUMPDEST SWAP2 POP POP SWAP3 POP SWAP3 SWAP1 POP JUMP JUMPDEST PUSH1 0x0 DUP1 PUSH1 0x0 PUSH1 0x60 DUP5 DUP7 SUB SLT ISZERO PUSH2 0x2EFC JUMPI PUSH2 0x2EFB PUSH2 0x37FB JUMP JUMPDEST JUMPDEST PUSH1 0x0 PUSH2 0x2F0A DUP7 DUP3 DUP8 ADD PUSH2 0x2C95 JUMP JUMPDEST SWAP4 POP POP PUSH1 0x20 PUSH2 0x2F1B DUP7 DUP3 DUP8 ADD PUSH2 0x2C95 JUMP JUMPDEST SWAP3 POP POP PUSH1 0x40 DUP5 ADD CALLDATALOAD PUSH8 0xFFFFFFFFFFFFFFFF DUP2 GT ISZERO PUSH2 0x2F3C JUMPI PUSH2 0x2F3B PUSH2 0x37F6 JUMP JUMPDEST JUMPDEST PUSH2 0x2F48 DUP7 DUP3 DUP8 ADD PUSH2 0x2C67 JUMP JUMPDEST SWAP2 POP POP SWAP3 POP SWAP3 POP SWAP3 JUMP JUMPDEST PUSH2 0x2F5B DUP2 PUSH2 0x35D0 JUMP JUMPDEST DUP3 MSTORE POP POP JUMP JUMPDEST PUSH2 0x2F6A DUP2 PUSH2 0x3625 JUMP JUMPDEST DUP3 MSTORE POP POP JUMP JUMPDEST PUSH2 0x2F79 DUP2 PUSH2 0x35EE JUMP JUMPDEST DUP3 MSTORE POP POP JUMP JUMPDEST PUSH2 0x2F88 DUP2 PUSH2 0x3637 JUMP JUMPDEST DUP3 MSTORE POP POP JUMP JUMPDEST PUSH2 0x2F97 DUP2 PUSH2 0x3649 JUMP JUMPDEST DUP3 MSTORE POP POP JUMP JUMPDEST PUSH2 0x2FA6 DUP2 PUSH2 0x365B JUMP JUMPDEST DUP3 MSTORE POP POP JUMP JUMPDEST PUSH2 0x2FB5 DUP2 PUSH2 0x366D JUMP JUMPDEST DUP3 MSTORE POP POP JUMP JUMPDEST PUSH1 0x0 PUSH2 0x2FC6 DUP3 PUSH2 0x3494 JUMP JUMPDEST PUSH2 0x2FD0 DUP2 DUP6 PUSH2 0x34B0 JUMP JUMPDEST SWAP4 POP PUSH2 0x2FE0 DUP2 DUP6 PUSH1 0x20 DUP7 ADD PUSH2 0x36B2 JUMP JUMPDEST DUP1 DUP5 ADD SWAP2 POP POP SWAP3 SWAP2 POP POP JUMP JUMPDEST PUSH1 0x0 PUSH2 0x2FF9 PUSH1 0x24 DUP4 PUSH2 0x349F JUMP JUMPDEST SWAP2 POP PUSH2 0x3004 DUP3 PUSH2 0x3811 JUMP JUMPDEST PUSH1 0x40 DUP3 ADD SWAP1 POP SWAP2 SWAP1 POP JUMP JUMPDEST PUSH1 0x0 PUSH2 0x301C PUSH1 0x26 DUP4 PUSH2 0x349F JUMP JUMPDEST SWAP2 POP PUSH2 0x3027 DUP3 PUSH2 0x3860 JUMP JUMPDEST PUSH1 0x40 DUP3 ADD SWAP1 POP SWAP2 SWAP1 POP JUMP JUMPDEST PUSH1 0x0 PUSH2 0x303F PUSH1 0x15 DUP4 PUSH2 0x349F JUMP JUMPDEST SWAP2 POP PUSH2 0x304A DUP3 PUSH2 0x38AF JUMP JUMPDEST PUSH1 0x20 DUP3 ADD SWAP1 POP SWAP2 SWAP1 POP JUMP JUMPDEST PUSH1 0x0 PUSH2 0x3062 PUSH1 0x20 DUP4 PUSH2 0x349F JUMP JUMPDEST SWAP2 POP PUSH2 0x306D DUP3 PUSH2 0x38D8 JUMP JUMPDEST PUSH1 0x20 DUP3 ADD SWAP1 POP SWAP2 SWAP1 POP JUMP JUMPDEST PUSH1 0x0 PUSH2 0x3085 PUSH1 0x1A DUP4 PUSH2 0x349F JUMP JUMPDEST SWAP2 POP PUSH2 0x3090 DUP3 PUSH2 0x3901 JUMP JUMPDEST PUSH1 0x20 DUP3 ADD SWAP1 POP SWAP2 SWAP1 POP JUMP JUMPDEST PUSH1 0x0 PUSH2 0x30A8 PUSH1 0x15 DUP4 PUSH2 0x349F JUMP JUMPDEST SWAP2 POP PUSH2 0x30B3 DUP3 PUSH2 0x392A JUMP JUMPDEST PUSH1 0x20 DUP3 ADD SWAP1 POP SWAP2 SWAP1 POP JUMP JUMPDEST PUSH1 0x0 PUSH2 0x30CB PUSH1 0x4 DUP4 PUSH2 0x34B0 JUMP JUMPDEST SWAP2 POP PUSH2 0x30D6 DUP3 PUSH2 0x3953 JUMP JUMPDEST PUSH1 0x4 DUP3 ADD SWAP1 POP SWAP2 SWAP1 POP JUMP JUMPDEST PUSH1 0x0 PUSH2 0x30EE PUSH1 0xC DUP4 PUSH2 0x349F JUMP JUMPDEST SWAP2 POP PUSH2 0x30F9 DUP3 PUSH2 0x397C JUMP JUMPDEST PUSH1 0x20 DUP3 ADD SWAP1 POP SWAP2 SWAP1 POP JUMP JUMPDEST PUSH1 0x0 PUSH2 0x3111 PUSH1 0x1F DUP4 PUSH2 0x349F JUMP JUMPDEST SWAP2 POP PUSH2 0x311C DUP3 PUSH2 0x39A5 JUMP JUMPDEST PUSH1 0x20 DUP3 ADD SWAP1 POP SWAP2 SWAP1 POP JUMP JUMPDEST PUSH1 0x0 PUSH2 0x3134 PUSH1 0x21 DUP4 PUSH2 0x349F JUMP JUMPDEST SWAP2 POP PUSH2 0x313F DUP3 PUSH2 0x39CE JUMP JUMPDEST PUSH1 0x40 DUP3 ADD SWAP1 POP SWAP2 SWAP1 POP JUMP JUMPDEST PUSH2 0x3153 DUP2 PUSH2 0x361B JUMP JUMPDEST DUP3 MSTORE POP POP JUMP JUMPDEST PUSH1 0x0 PUSH2 0x3165 DUP3 DUP5 PUSH2 0x2FBB JUMP JUMPDEST SWAP2 POP DUP2 SWAP1 POP SWAP3 SWAP2 POP POP JUMP JUMPDEST PUSH1 0x0 PUSH2 0x317B DUP3 PUSH2 0x30BE JUMP JUMPDEST SWAP2 POP DUP2 SWAP1 POP SWAP2 SWAP1 POP JUMP JUMPDEST PUSH1 0x0 PUSH1 0x20 DUP3 ADD SWAP1 POP PUSH2 0x319A PUSH1 0x0 DUP4 ADD DUP5 PUSH2 0x2F52 JUMP JUMPDEST SWAP3 SWAP2 POP POP JUMP JUMPDEST PUSH1 0x0 PUSH1 0x60 DUP3 ADD SWAP1 POP PUSH2 0x31B5 PUSH1 0x0 DUP4 ADD DUP7 PUSH2 0x2F52 JUMP JUMPDEST PUSH2 0x31C2 PUSH1 0x20 DUP4 ADD DUP6 PUSH2 0x2F52 JUMP JUMPDEST PUSH2 0x31CF PUSH1 0x40 DUP4 ADD DUP5 PUSH2 0x314A JUMP JUMPDEST SWAP5 SWAP4 POP POP POP POP JUMP JUMPDEST PUSH1 0x0 PUSH1 0x40 DUP3 ADD SWAP1 POP PUSH2 0x31EC PUSH1 0x0 DUP4 ADD DUP6 PUSH2 0x2F52 JUMP JUMPDEST PUSH2 0x31F9 PUSH1 0x20 DUP4 ADD DUP5 PUSH2 0x2F7F JUMP JUMPDEST SWAP4 SWAP3 POP POP POP JUMP JUMPDEST PUSH1 0x0 PUSH1 0x40 DUP3 ADD SWAP1 POP PUSH2 0x3215 PUSH1 0x0 DUP4 ADD DUP6 PUSH2 0x2F52 JUMP JUMPDEST PUSH2 0x3222 PUSH1 0x20 DUP4 ADD DUP5 PUSH2 0x2F8E JUMP JUMPDEST SWAP4 SWAP3 POP POP POP JUMP JUMPDEST PUSH1 0x0 PUSH1 0x40 DUP3 ADD SWAP1 POP PUSH2 0x323E PUSH1 0x0 DUP4 ADD DUP6 PUSH2 0x2F52 JUMP JUMPDEST PUSH2 0x324B PUSH1 0x20 DUP4 ADD DUP5 PUSH2 0x2F9D JUMP JUMPDEST SWAP4 SWAP3 POP POP POP JUMP JUMPDEST PUSH1 0x0 PUSH1 0x40 DUP3 ADD SWAP1 POP PUSH2 0x3267 PUSH1 0x0 DUP4 ADD DUP6 PUSH2 0x2F52 JUMP JUMPDEST PUSH2 0x3274 PUSH1 0x20 DUP4 ADD DUP5 PUSH2 0x2FAC JUMP JUMPDEST SWAP4 SWAP3 POP POP POP JUMP JUMPDEST PUSH1 0x0 PUSH1 0x40 DUP3 ADD SWAP1 POP PUSH2 0x3290 PUSH1 0x0 DUP4 ADD DUP6 PUSH2 0x2F52 JUMP JUMPDEST PUSH2 0x329D PUSH1 0x20 DUP4 ADD DUP5 PUSH2 0x314A JUMP JUMPDEST SWAP4 SWAP3 POP POP POP JUMP JUMPDEST PUSH1 0x0 PUSH1 0x20 DUP3 ADD SWAP1 POP PUSH2 0x32B9 PUSH1 0x0 DUP4 ADD DUP5 PUSH2 0x2F61 JUMP JUMPDEST SWAP3 SWAP2 POP POP JUMP JUMPDEST PUSH1 0x0 PUSH1 0x20 DUP3 ADD SWAP1 POP PUSH2 0x32D4 PUSH1 0x0 DUP4 ADD DUP5 PUSH2 0x2F70 JUMP JUMPDEST SWAP3 SWAP2 POP POP JUMP JUMPDEST PUSH1 0x0 PUSH1 0x20 DUP3 ADD SWAP1 POP DUP2 DUP2 SUB PUSH1 0x0 DUP4 ADD MSTORE PUSH2 0x32F3 DUP2 PUSH2 0x2FEC JUMP JUMPDEST SWAP1 POP SWAP2 SWAP1 POP JUMP JUMPDEST PUSH1 0x0 PUSH1 0x20 DUP3 ADD SWAP1 POP DUP2 DUP2 SUB PUSH1 0x0 DUP4 ADD MSTORE PUSH2 0x3313 DUP2 PUSH2 0x300F JUMP JUMPDEST SWAP1 POP SWAP2 SWAP1 POP JUMP JUMPDEST PUSH1 0x0 PUSH1 0x20 DUP3 ADD SWAP1 POP DUP2 DUP2 SUB PUSH1 0x0 DUP4 ADD MSTORE PUSH2 0x3333 DUP2 PUSH2 0x3032 JUMP JUMPDEST SWAP1 POP SWAP2 SWAP1 POP JUMP JUMPDEST PUSH1 0x0 PUSH1 0x20 DUP3 ADD SWAP1 POP DUP2 DUP2 SUB PUSH1 0x0 DUP4 ADD MSTORE PUSH2 0x3353 DUP2 PUSH2 0x3055 JUMP JUMPDEST SWAP1 POP SWAP2 SWAP1 POP JUMP JUMPDEST PUSH1 0x0 PUSH1 0x20 DUP3 ADD SWAP1 POP DUP2 DUP2 SUB PUSH1 0x0 DUP4 ADD MSTORE PUSH2 0x3373 DUP2 PUSH2 0x3078 JUMP JUMPDEST SWAP1 POP SWAP2 SWAP1 POP JUMP JUMPDEST PUSH1 0x0 PUSH1 0x20 DUP3 ADD SWAP1 POP DUP2 DUP2 SUB PUSH1 0x0 DUP4 ADD MSTORE PUSH2 0x3393 DUP2 PUSH2 0x309B JUMP JUMPDEST SWAP1 POP SWAP2 SWAP1 POP JUMP JUMPDEST PUSH1 0x0 PUSH1 0x20 DUP3 ADD SWAP1 POP DUP2 DUP2 SUB PUSH1 0x0 DUP4 ADD MSTORE PUSH2 0x33B3 DUP2 PUSH2 0x30E1 JUMP JUMPDEST SWAP1 POP SWAP2 SWAP1 POP JUMP JUMPDEST PUSH1 0x0 PUSH1 0x20 DUP3 ADD SWAP1 POP DUP2 DUP2 SUB PUSH1 0x0 DUP4 ADD MSTORE PUSH2 0x33D3 DUP2 PUSH2 0x3104 JUMP JUMPDEST SWAP1 POP SWAP2 SWAP1 POP JUMP JUMPDEST PUSH1 0x0 PUSH1 0x20 DUP3 ADD SWAP1 POP DUP2 DUP2 SUB PUSH1 0x0 DUP4 ADD MSTORE PUSH2 0x33F3 DUP2 PUSH2 0x3127 JUMP JUMPDEST SWAP1 POP SWAP2 SWAP1 POP JUMP JUMPDEST PUSH1 0x0 PUSH1 0x20 DUP3 ADD SWAP1 POP PUSH2 0x340F PUSH1 0x0 DUP4 ADD DUP5 PUSH2 0x314A JUMP JUMPDEST SWAP3 SWAP2 POP POP JUMP JUMPDEST PUSH1 0x0 PUSH1 0x40 DUP3 ADD SWAP1 POP PUSH2 0x342A PUSH1 0x0 DUP4 ADD DUP6 PUSH2 0x314A JUMP JUMPDEST PUSH2 0x3437 PUSH1 0x20 DUP4 ADD DUP5 PUSH2 0x314A JUMP JUMPDEST SWAP4 SWAP3 POP POP POP JUMP JUMPDEST PUSH1 0x0 PUSH2 0x3448 PUSH2 0x3459 JUMP JUMPDEST SWAP1 POP PUSH2 0x3454 DUP3 DUP3 PUSH2 0x36E5 JUMP JUMPDEST SWAP2 SWAP1 POP JUMP JUMPDEST PUSH1 0x0 PUSH1 0x40 MLOAD SWAP1 POP SWAP1 JUMP JUMPDEST PUSH1 0x0 PUSH8 0xFFFFFFFFFFFFFFFF DUP3 GT ISZERO PUSH2 0x347E JUMPI PUSH2 0x347D PUSH2 0x37BD JUMP JUMPDEST JUMPDEST PUSH2 0x3487 DUP3 PUSH2 0x3800 JUMP JUMPDEST SWAP1 POP PUSH1 0x20 DUP2 ADD SWAP1 POP SWAP2 SWAP1 POP JUMP JUMPDEST PUSH1 0x0 DUP2 MLOAD SWAP1 POP SWAP2 SWAP1 POP JUMP JUMPDEST PUSH1 0x0 DUP3 DUP3 MSTORE PUSH1 0x20 DUP3 ADD SWAP1 POP SWAP3 SWAP2 POP POP JUMP JUMPDEST PUSH1 0x0 DUP2 SWAP1 POP SWAP3 SWAP2 POP POP JUMP JUMPDEST PUSH1 0x0 PUSH2 0x34C6 DUP3 PUSH2 0x361B JUMP JUMPDEST SWAP2 POP PUSH2 0x34D1 DUP4 PUSH2 0x361B JUMP JUMPDEST SWAP3 POP DUP3 PUSH32 0xFFFFFFFFFFFFFFFFFFFFFFFFFFFFFFFFFFFFFFFFFFFFFFFFFFFFFFFFFFFFFFFF SUB DUP3 GT ISZERO PUSH2 0x3506 JUMPI PUSH2 0x3505 PUSH2 0x375F JUMP JUMPDEST JUMPDEST DUP3 DUP3 ADD SWAP1 POP SWAP3 SWAP2 POP POP JUMP JUMPDEST PUSH1 0x0 PUSH2 0x351C DUP3 PUSH2 0x361B JUMP JUMPDEST SWAP2 POP PUSH2 0x3527 DUP4 PUSH2 0x361B JUMP JUMPDEST SWAP3 POP DUP3 PUSH2 0x3537 JUMPI PUSH2 0x3536 PUSH2 0x378E JUMP JUMPDEST JUMPDEST DUP3 DUP3 DIV SWAP1 POP SWAP3 SWAP2 POP POP JUMP JUMPDEST PUSH1 0x0 PUSH2 0x354D DUP3 PUSH2 0x361B JUMP JUMPDEST SWAP2 POP PUSH2 0x3558 DUP4 PUSH2 0x361B JUMP JUMPDEST SWAP3 POP DUP2 PUSH32 0xFFFFFFFFFFFFFFFFFFFFFFFFFFFFFFFFFFFFFFFFFFFFFFFFFFFFFFFFFFFFFFFF DIV DUP4 GT DUP3 ISZERO ISZERO AND ISZERO PUSH2 0x3591 JUMPI PUSH2 0x3590 PUSH2 0x375F JUMP JUMPDEST JUMPDEST DUP3 DUP3 MUL SWAP1 POP SWAP3 SWAP2 POP POP JUMP JUMPDEST PUSH1 0x0 PUSH2 0x35A7 DUP3 PUSH2 0x361B JUMP JUMPDEST SWAP2 POP PUSH2 0x35B2 DUP4 PUSH2 0x361B JUMP JUMPDEST SWAP3 POP DUP3 DUP3 LT ISZERO PUSH2 0x35C5 JUMPI PUSH2 0x35C4 PUSH2 0x375F JUMP JUMPDEST JUMPDEST DUP3 DUP3 SUB SWAP1 POP SWAP3 SWAP2 POP POP JUMP JUMPDEST PUSH1 0x0 PUSH2 0x35DB DUP3 PUSH2 0x35FB JUMP JUMPDEST SWAP1 POP SWAP2 SWAP1 POP JUMP JUMPDEST PUSH1 0x0 DUP2 ISZERO ISZERO SWAP1 POP SWAP2 SWAP1 POP JUMP JUMPDEST PUSH1 0x0 DUP2 PUSH1 0xF SIGNEXTEND SWAP1 POP SWAP2 SWAP1 POP JUMP JUMPDEST PUSH1 0x0 PUSH20 0xFFFFFFFFFFFFFFFFFFFFFFFFFFFFFFFFFFFFFFFF DUP3 AND SWAP1 POP SWAP2 SWAP1 POP JUMP JUMPDEST PUSH1 0x0 DUP2 SWAP1 POP SWAP2 SWAP1 POP JUMP JUMPDEST PUSH1 0x0 PUSH2 0x3630 DUP3 PUSH2 0x367F JUMP JUMPDEST SWAP1 POP SWAP2 SWAP1 POP JUMP JUMPDEST PUSH1 0x0 PUSH2 0x3642 DUP3 PUSH2 0x361B JUMP JUMPDEST SWAP1 POP SWAP2 SWAP1 POP JUMP JUMPDEST PUSH1 0x0 PUSH2 0x3654 DUP3 PUSH2 0x361B JUMP JUMPDEST SWAP1 POP SWAP2 SWAP1 POP JUMP JUMPDEST PUSH1 0x0 PUSH2 0x3666 DUP3 PUSH2 0x361B JUMP JUMPDEST SWAP1 POP SWAP2 SWAP1 POP JUMP JUMPDEST PUSH1 0x0 PUSH2 0x3678 DUP3 PUSH2 0x361B JUMP JUMPDEST SWAP1 POP SWAP2 SWAP1 POP JUMP JUMPDEST PUSH1 0x0 PUSH2 0x368A DUP3 PUSH2 0x3691 JUMP JUMPDEST SWAP1 POP SWAP2 SWAP1 POP JUMP JUMPDEST PUSH1 0x0 PUSH2 0x369C DUP3 PUSH2 0x35FB JUMP JUMPDEST SWAP1 POP SWAP2 SWAP1 POP JUMP JUMPDEST DUP3 DUP2 DUP4 CALLDATACOPY PUSH1 0x0 DUP4 DUP4 ADD MSTORE POP POP POP JUMP JUMPDEST PUSH1 0x0 JUMPDEST DUP4 DUP2 LT ISZERO PUSH2 0x36D0 JUMPI DUP1 DUP3 ADD MLOAD DUP2 DUP5 ADD MSTORE PUSH1 0x20 DUP2 ADD SWAP1 POP PUSH2 0x36B5 JUMP JUMPDEST DUP4 DUP2 GT ISZERO PUSH2 0x36DF JUMPI PUSH1 0x0 DUP5 DUP5 ADD MSTORE JUMPDEST POP POP POP POP JUMP JUMPDEST PUSH2 0x36EE DUP3 PUSH2 0x3800 JUMP JUMPDEST DUP2 ADD DUP2 DUP2 LT PUSH8 0xFFFFFFFFFFFFFFFF DUP3 GT OR ISZERO PUSH2 0x370D JUMPI PUSH2 0x370C PUSH2 0x37BD JUMP JUMPDEST JUMPDEST DUP1 PUSH1 0x40 MSTORE POP POP POP JUMP JUMPDEST PUSH1 0x0 PUSH2 0x3721 DUP3 PUSH2 0x361B JUMP JUMPDEST SWAP2 POP PUSH32 0xFFFFFFFFFFFFFFFFFFFFFFFFFFFFFFFFFFFFFFFFFFFFFFFFFFFFFFFFFFFFFFFF DUP3 EQ ISZERO PUSH2 0x3754 JUMPI PUSH2 0x3753 PUSH2 0x375F JUMP JUMPDEST JUMPDEST PUSH1 0x1 DUP3 ADD SWAP1 POP SWAP2 SWAP1 POP JUMP JUMPDEST PUSH32 0x4E487B7100000000000000000000000000000000000000000000000000000000 PUSH1 0x0 MSTORE PUSH1 0x11 PUSH1 0x4 MSTORE PUSH1 0x24 PUSH1 0x0 REVERT JUMPDEST PUSH32 0x4E487B7100000000000000000000000000000000000000000000000000000000 PUSH1 0x0 MSTORE PUSH1 0x12 PUSH1 0x4 MSTORE PUSH1 0x24 PUSH1 0x0 REVERT JUMPDEST PUSH32 0x4E487B7100000000000000000000000000000000000000000000000000000000 PUSH1 0x0 MSTORE PUSH1 0x41 PUSH1 0x4 MSTORE PUSH1 0x24 PUSH1 0x0 REVERT JUMPDEST PUSH1 0x0 DUP1 REVERT JUMPDEST PUSH1 0x0 DUP1 REVERT JUMPDEST PUSH1 0x0 DUP1 REVERT JUMPDEST PUSH1 0x0 DUP1 REVERT JUMPDEST PUSH1 0x0 PUSH1 0x1F NOT PUSH1 0x1F DUP4 ADD AND SWAP1 POP SWAP2 SWAP1 POP JUMP JUMPDEST PUSH32 0x596F7520646F6E7420686176652074686174206D75636820746F207769746864 PUSH1 0x0 DUP3 ADD MSTORE PUSH32 0x7261772100000000000000000000000000000000000000000000000000000000 PUSH1 0x20 DUP3 ADD MSTORE POP JUMP JUMPDEST PUSH32 0x4F776E61626C653A206E6577206F776E657220697320746865207A65726F2061 PUSH1 0x0 DUP3 ADD MSTORE PUSH32 0x6464726573730000000000000000000000000000000000000000000000000000 PUSH1 0x20 DUP3 ADD MSTORE POP JUMP JUMPDEST PUSH32 0x546F6B656E207472616E73666572206661696C65640000000000000000000000 PUSH1 0x0 DUP3 ADD MSTORE POP JUMP JUMPDEST PUSH32 0x4F776E61626C653A2063616C6C6572206973206E6F7420746865206F776E6572 PUSH1 0x0 DUP3 ADD MSTORE POP JUMP JUMPDEST PUSH32 0x596F7520646F6E742068617665207468617420616D6F756E7421000000000000 PUSH1 0x0 DUP3 ADD MSTORE POP JUMP JUMPDEST PUSH32 0x506572207472616E73616374696F6E206C696D69740000000000000000000000 PUSH1 0x0 DUP3 ADD MSTORE POP JUMP JUMPDEST PUSH32 0x5553444300000000000000000000000000000000000000000000000000000000 PUSH1 0x0 DUP3 ADD MSTORE POP JUMP JUMPDEST PUSH32 0x4E6F7420756E6C6F636B65640000000000000000000000000000000000000000 PUSH1 0x0 DUP3 ADD MSTORE POP JUMP JUMPDEST PUSH32 0x5265656E7472616E637947756172643A207265656E7472616E742063616C6C00 PUSH1 0x0 DUP3 ADD MSTORE POP JUMP JUMPDEST PUSH32 0x75696E74206F766572666C6F772066726F6D206D756C7469706C69636174696F PUSH1 0x0 DUP3 ADD MSTORE PUSH32 0x6E00000000000000000000000000000000000000000000000000000000000000 PUSH1 0x20 DUP3 ADD MSTORE POP JUMP JUMPDEST PUSH2 0x3A26 DUP2 PUSH2 0x35D0 JUMP JUMPDEST DUP2 EQ PUSH2 0x3A31 JUMPI PUSH1 0x0 DUP1 REVERT JUMPDEST POP JUMP JUMPDEST PUSH2 0x3A3D DUP2 PUSH2 0x35E2 JUMP JUMPDEST DUP2 EQ PUSH2 0x3A48 JUMPI PUSH1 0x0 DUP1 REVERT JUMPDEST POP JUMP JUMPDEST PUSH2 0x3A54 DUP2 PUSH2 0x361B JUMP JUMPDEST DUP2 EQ PUSH2 0x3A5F JUMPI PUSH1 0x0 DUP1 REVERT JUMPDEST POP JUMP INVALID LOG2 PUSH5 0x6970667358 0x22 SLT KECCAK256 0x5F EXP 0x4D 0xA7 ISZERO ORIGIN 0xCA PUSH18 0x4A9D5D5B2B6B77D7156A5108F6BFED804F8 0xAD CALL CHAINID SWAP9 0xB8 0xEF PUSH5 0x736F6C6343 STOP ADDMOD SMOD STOP CALLER "
				},
				"gasEstimates": {
					"creation": {
						"codeDepositCost": "3000000",
						"executionCost": "infinite",
						"totalCost": "infinite"
					},
					"external": {
						"BTON()": "2645",
						"Launch()": "infinite",
						"SPTR()": "2668",
						"WAND()": "2711",
						"addStable(string,address,uint256)": "infinite",
						"buyScepter(uint256,string)": "infinite",
						"cashOutScepter(uint256,uint256,string)": "infinite",
						"circulatingSupplyXDays(uint256)": "infinite",
						"claimLockedUSDC(address,string)": "infinite",
						"daysInCalculation()": "2518",
						"devWalletAddr()": "2604",
						"getBackingPrice()": "infinite",
						"getBuyPrice()": "infinite",
						"getCircSupplyXDays()": "infinite",
						"getGrowthFactor()": "infinite",
						"getSellFactor()": "infinite",
						"getSellPrice()": "infinite",
						"getTokensBoughtXDays()": "infinite",
						"getTokensSoldXDays()": "infinite",
						"growthFactor()": "2495",
						"owner()": "2634",
						"renounceOwnership()": "30420",
						"res()": "2608",
						"riskTreasuryAddr()": "2605",
						"scepterTreasuryAddr()": "2647",
						"sellFactor()": "2518",
						"setDaysUsedInFactors(uint256)": "infinite",
						"sptrTreasuryBal()": "2496",
						"stableERC20Info(string)": "infinite",
						"testUpdatetimeLockedminus(uint256)": "infinite",
						"testUpdatetimeLockedplus(uint256)": "infinite",
						"testwallet()": "2602",
						"timeLaunched()": "2563",
						"tokenStable()": "2755",
						"tokensBoughtXDays(uint256)": "infinite",
						"tokensSoldXDays(uint256)": "infinite",
						"transferOwnership(address)": "30833",
						"transformScepterToBaton(uint256)": "infinite",
						"treasury1Addr()": "2646",
						"updateSPTRTreasuryBal()": "29175",
						"whitelist(address)": "3027",
						"withheldWithdrawals(address)": "infinite"
					},
					"internal": {
						"_safeTransferFrom(contract IERC20,address,address,uint256)": "infinite",
						"add(uint256,uint256)": "infinite",
						"decDiv18(uint256,uint256)": "infinite",
						"decMul18(uint256,uint256)": "infinite",
						"div(uint256,uint256)": "infinite",
						"mul(uint256,uint256)": "infinite",
						"sub(uint256,uint256)": "infinite"
					}
				},
				"methodIdentifiers": {
					"BTON()": "c0ca6fb4",
					"Launch()": "02ac8168",
					"SPTR()": "26ae486e",
					"WAND()": "d04d7908",
					"addStable(string,address,uint256)": "e5d98082",
					"buyScepter(uint256,string)": "862d1b35",
					"cashOutScepter(uint256,uint256,string)": "c0ce5889",
					"circulatingSupplyXDays(uint256)": "1a30e872",
					"claimLockedUSDC(address,string)": "bdad7f02",
					"daysInCalculation()": "67b48c91",
					"devWalletAddr()": "29982a32",
					"getBackingPrice()": "1f564a06",
					"getBuyPrice()": "018a25e8",
					"getCircSupplyXDays()": "0f65de3e",
					"getGrowthFactor()": "93f7b711",
					"getSellFactor()": "0ccaf04f",
					"getSellPrice()": "43d32e9c",
					"getTokensBoughtXDays()": "71cd58f9",
					"getTokensSoldXDays()": "d82eddf2",
					"growthFactor()": "ee620868",
					"owner()": "8da5cb5b",
					"renounceOwnership()": "715018a6",
					"res()": "6f10e285",
					"riskTreasuryAddr()": "047729b0",
					"scepterTreasuryAddr()": "c079d7f6",
					"sellFactor()": "cbff4617",
					"setDaysUsedInFactors(uint256)": "fc361443",
					"sptrTreasuryBal()": "66763319",
					"stableERC20Info(string)": "a475bf48",
					"testUpdatetimeLockedminus(uint256)": "164c8501",
					"testUpdatetimeLockedplus(uint256)": "67e927a8",
					"testwallet()": "eee05f5e",
					"timeLaunched()": "3c6eb17a",
					"tokenStable()": "7087a7a5",
					"tokensBoughtXDays(uint256)": "2a9f0fb1",
					"tokensSoldXDays(uint256)": "1514c976",
					"transferOwnership(address)": "f2fde38b",
					"transformScepterToBaton(uint256)": "1bc9cc45",
					"treasury1Addr()": "fbbb4589",
					"updateSPTRTreasuryBal()": "bcb3de54",
					"whitelist(address)": "9b19251a",
					"withheldWithdrawals(address)": "12b2ed94"
				}
			},
			"storageLayout": {
				"storage": [
					{
						"astId": 137,
						"contract": "WandInstruments.sol:testSticks",
						"label": "_status",
						"offset": 0,
						"slot": "0",
						"type": "t_uint256"
					},
					{
						"astId": 29,
						"contract": "WandInstruments.sol:testSticks",
						"label": "_owner",
						"offset": 0,
						"slot": "1",
						"type": "t_address"
					},
					{
						"astId": 182,
						"contract": "WandInstruments.sol:testSticks",
						"label": "growthFactor",
						"offset": 0,
						"slot": "2",
						"type": "t_uint256"
					},
					{
						"astId": 184,
						"contract": "WandInstruments.sol:testSticks",
						"label": "sellFactor",
						"offset": 0,
						"slot": "3",
						"type": "t_uint256"
					},
					{
						"astId": 186,
						"contract": "WandInstruments.sol:testSticks",
						"label": "backingPrice",
						"offset": 0,
						"slot": "4",
						"type": "t_uint256"
					},
					{
						"astId": 188,
						"contract": "WandInstruments.sol:testSticks",
						"label": "scepterBuyPrice",
						"offset": 0,
						"slot": "5",
						"type": "t_uint256"
					},
					{
						"astId": 190,
						"contract": "WandInstruments.sol:testSticks",
						"label": "scepterSellPrice",
						"offset": 0,
						"slot": "6",
						"type": "t_uint256"
					},
					{
						"astId": 192,
						"contract": "WandInstruments.sol:testSticks",
						"label": "treasuryUSDC",
						"offset": 0,
						"slot": "7",
						"type": "t_uint256"
					},
					{
						"astId": 194,
						"contract": "WandInstruments.sol:testSticks",
						"label": "treasury1Addr",
						"offset": 0,
						"slot": "8",
						"type": "t_address"
					},
					{
						"astId": 196,
						"contract": "WandInstruments.sol:testSticks",
						"label": "scepterTreasuryAddr",
						"offset": 0,
						"slot": "9",
						"type": "t_address"
					},
					{
						"astId": 198,
						"contract": "WandInstruments.sol:testSticks",
						"label": "riskTreasuryAddr",
						"offset": 0,
						"slot": "10",
						"type": "t_address"
					},
					{
						"astId": 200,
						"contract": "WandInstruments.sol:testSticks",
						"label": "devWalletAddr",
						"offset": 0,
						"slot": "11",
						"type": "t_address"
					},
					{
						"astId": 202,
						"contract": "WandInstruments.sol:testSticks",
						"label": "sptrTreasuryBal",
						"offset": 0,
						"slot": "12",
						"type": "t_uint256"
					},
					{
						"astId": 204,
						"contract": "WandInstruments.sol:testSticks",
						"label": "timeLaunched",
						"offset": 0,
						"slot": "13",
						"type": "t_uint256"
					},
					{
						"astId": 206,
						"contract": "WandInstruments.sol:testSticks",
						"label": "daysInCalculation",
						"offset": 0,
						"slot": "14",
						"type": "t_uint256"
					},
					{
						"astId": 209,
						"contract": "WandInstruments.sol:testSticks",
						"label": "ft5daybought",
						"offset": 0,
						"slot": "15",
						"type": "t_uint256"
					},
					{
						"astId": 212,
						"contract": "WandInstruments.sol:testSticks",
						"label": "ft5daysold",
						"offset": 0,
						"slot": "16",
						"type": "t_uint256"
					},
					{
						"astId": 215,
						"contract": "WandInstruments.sol:testSticks",
						"label": "double5daytokens",
						"offset": 0,
						"slot": "17",
						"type": "t_uint256"
					},
					{
						"astId": 217,
						"contract": "WandInstruments.sol:testSticks",
						"label": "res",
						"offset": 0,
						"slot": "18",
						"type": "t_int128"
					},
					{
						"astId": 220,
						"contract": "WandInstruments.sol:testSticks",
						"label": "testwallet",
						"offset": 0,
						"slot": "19",
						"type": "t_address"
					},
					{
						"astId": 223,
						"contract": "WandInstruments.sol:testSticks",
						"label": "SPTR",
						"offset": 0,
						"slot": "20",
						"type": "t_contract(IERC20)1569"
					},
					{
						"astId": 226,
						"contract": "WandInstruments.sol:testSticks",
						"label": "WAND",
						"offset": 0,
						"slot": "21",
						"type": "t_contract(IERC20)1569"
					},
					{
						"astId": 229,
						"contract": "WandInstruments.sol:testSticks",
						"label": "BTON",
						"offset": 0,
						"slot": "22",
						"type": "t_contract(IERC20)1569"
					},
					{
						"astId": 232,
						"contract": "WandInstruments.sol:testSticks",
						"label": "tokenStable",
						"offset": 0,
						"slot": "23",
						"type": "t_contract(IERC20)1569"
					},
					{
						"astId": 236,
						"contract": "WandInstruments.sol:testSticks",
						"label": "tokensBoughtXDays",
						"offset": 0,
						"slot": "24",
						"type": "t_mapping(t_uint256,t_uint256)"
					},
					{
						"astId": 240,
						"contract": "WandInstruments.sol:testSticks",
						"label": "tokensSoldXDays",
						"offset": 0,
						"slot": "25",
						"type": "t_mapping(t_uint256,t_uint256)"
					},
					{
						"astId": 244,
						"contract": "WandInstruments.sol:testSticks",
						"label": "circulatingSupplyXDays",
						"offset": 0,
						"slot": "26",
						"type": "t_mapping(t_uint256,t_uint256)"
					},
					{
						"astId": 254,
						"contract": "WandInstruments.sol:testSticks",
						"label": "stableERC20Info",
						"offset": 0,
						"slot": "27",
						"type": "t_mapping(t_string_memory_ptr,t_struct(stableTokensParams)249_storage)"
					},
					{
						"astId": 264,
						"contract": "WandInstruments.sol:testSticks",
						"label": "withheldWithdrawals",
						"offset": 0,
						"slot": "28",
						"type": "t_mapping(t_address,t_struct(lockedamounts)259_storage)"
					}
				],
				"types": {
					"t_address": {
						"encoding": "inplace",
						"label": "address",
						"numberOfBytes": "20"
					},
					"t_contract(IERC20)1569": {
						"encoding": "inplace",
						"label": "contract IERC20",
						"numberOfBytes": "20"
					},
					"t_int128": {
						"encoding": "inplace",
						"label": "int128",
						"numberOfBytes": "16"
					},
					"t_mapping(t_address,t_struct(lockedamounts)259_storage)": {
						"encoding": "mapping",
						"key": "t_address",
						"label": "mapping(address => struct testSticks.lockedamounts)",
						"numberOfBytes": "32",
						"value": "t_struct(lockedamounts)259_storage"
					},
					"t_mapping(t_string_memory_ptr,t_struct(stableTokensParams)249_storage)": {
						"encoding": "mapping",
						"key": "t_string_memory_ptr",
						"label": "mapping(string => struct testSticks.stableTokensParams)",
						"numberOfBytes": "32",
						"value": "t_struct(stableTokensParams)249_storage"
					},
					"t_mapping(t_uint256,t_uint256)": {
						"encoding": "mapping",
						"key": "t_uint256",
						"label": "mapping(uint256 => uint256)",
						"numberOfBytes": "32",
						"value": "t_uint256"
					},
					"t_string_memory_ptr": {
						"encoding": "bytes",
						"label": "string",
						"numberOfBytes": "32"
					},
					"t_struct(lockedamounts)259_storage": {
						"encoding": "inplace",
						"label": "struct testSticks.lockedamounts",
						"members": [
							{
								"astId": 256,
								"contract": "WandInstruments.sol:testSticks",
								"label": "timeUnlocked",
								"offset": 0,
								"slot": "0",
								"type": "t_uint256"
							},
							{
								"astId": 258,
								"contract": "WandInstruments.sol:testSticks",
								"label": "amounts",
								"offset": 0,
								"slot": "1",
								"type": "t_uint256"
							}
						],
						"numberOfBytes": "64"
					},
					"t_struct(stableTokensParams)249_storage": {
						"encoding": "inplace",
						"label": "struct testSticks.stableTokensParams",
						"members": [
							{
								"astId": 246,
								"contract": "WandInstruments.sol:testSticks",
								"label": "contractAddress",
								"offset": 0,
								"slot": "0",
								"type": "t_address"
							},
							{
								"astId": 248,
								"contract": "WandInstruments.sol:testSticks",
								"label": "tokenDecimals",
								"offset": 0,
								"slot": "1",
								"type": "t_uint256"
							}
						],
						"numberOfBytes": "64"
					},
					"t_uint256": {
						"encoding": "inplace",
						"label": "uint256",
						"numberOfBytes": "32"
					}
				}
			},
			"userdoc": {
				"events": {
					"sceptersBought(address,uint256)": {
						"notice": "Events*"
					}
				},
				"kind": "user",
				"methods": {},
				"version": 1
			}
		}
	}
}