{
	"WandInstruments.sol": {
		"testSticks": {
			"abi": [
				{
					"inputs": [
						{
							"internalType": "address",
							"name": "scepterAddr",
							"type": "address"
						},
						{
							"internalType": "address",
							"name": "batonAddr",
							"type": "address"
						}
					],
					"stateMutability": "nonpayable",
					"type": "constructor"
				},
				{
					"anonymous": false,
					"inputs": [
						{
							"indexed": true,
							"internalType": "address",
							"name": "_from",
							"type": "address"
						},
						{
							"indexed": false,
							"internalType": "uint256",
							"name": "_amount",
							"type": "uint256"
						}
					],
					"name": "sceptersBought",
					"type": "event"
				},
				{
					"anonymous": false,
					"inputs": [
						{
							"indexed": true,
							"internalType": "address",
							"name": "_from",
							"type": "address"
						},
						{
							"indexed": false,
							"internalType": "uint256",
							"name": "_amount",
							"type": "uint256"
						}
					],
					"name": "sceptersSold",
					"type": "event"
				},
				{
					"inputs": [],
					"name": "BTON",
					"outputs": [
						{
							"internalType": "contract IERC20",
							"name": "",
							"type": "address"
						}
					],
					"stateMutability": "view",
					"type": "function"
				},
				{
					"inputs": [],
					"name": "SPTR",
					"outputs": [
						{
							"internalType": "contract IERC20",
							"name": "",
							"type": "address"
						}
					],
					"stateMutability": "view",
					"type": "function"
				},
				{
					"inputs": [],
					"name": "WAND",
					"outputs": [
						{
							"internalType": "contract IERC20",
							"name": "",
							"type": "address"
						}
					],
					"stateMutability": "view",
					"type": "function"
				},
				{
					"inputs": [
						{
							"internalType": "string",
							"name": "_ticker",
							"type": "string"
						},
						{
							"internalType": "address",
							"name": "_addr",
							"type": "address"
						},
						{
							"internalType": "uint256",
							"name": "_dec",
							"type": "uint256"
						}
					],
					"name": "addStable",
					"outputs": [],
					"stateMutability": "nonpayable",
					"type": "function"
				},
				{
					"inputs": [
						{
							"internalType": "uint256",
							"name": "amountSCPtoBuy",
							"type": "uint256"
						},
						{
							"internalType": "string",
							"name": "_stableChosen",
							"type": "string"
						}
					],
					"name": "buyScepter",
					"outputs": [],
					"stateMutability": "nonpayable",
					"type": "function"
				},
				{
					"inputs": [
						{
							"internalType": "uint256",
							"name": "amountSCPtoSell",
							"type": "uint256"
						},
						{
							"internalType": "uint256",
							"name": "timeChosenLocked",
							"type": "uint256"
						},
						{
							"internalType": "string",
							"name": "_stableChosen",
							"type": "string"
						}
					],
					"name": "cashOutScepter",
					"outputs": [],
					"stateMutability": "payable",
					"type": "function"
				},
				{
					"inputs": [
						{
							"internalType": "uint256",
							"name": "",
							"type": "uint256"
						}
					],
					"name": "circulatingSupplyXDays",
					"outputs": [
						{
							"internalType": "uint256",
							"name": "",
							"type": "uint256"
						}
					],
					"stateMutability": "view",
					"type": "function"
				},
				{
					"inputs": [
						{
							"internalType": "address",
							"name": "_claimant",
							"type": "address"
						},
						{
							"internalType": "string",
							"name": "_stableChosen",
							"type": "string"
						}
					],
					"name": "claimLockedUSDC",
					"outputs": [],
					"stateMutability": "nonpayable",
					"type": "function"
				},
				{
					"inputs": [],
					"name": "daysInCalculation",
					"outputs": [
						{
							"internalType": "uint256",
							"name": "",
							"type": "uint256"
						}
					],
					"stateMutability": "view",
					"type": "function"
				},
				{
					"inputs": [
						{
							"internalType": "uint256",
							"name": "x",
							"type": "uint256"
						},
						{
							"internalType": "uint256",
							"name": "y",
							"type": "uint256"
						}
					],
					"name": "decDiv18",
					"outputs": [
						{
							"internalType": "uint256",
							"name": "decQuotient",
							"type": "uint256"
						}
					],
					"stateMutability": "pure",
					"type": "function"
				},
				{
					"inputs": [
						{
							"internalType": "uint256",
							"name": "x",
							"type": "uint256"
						},
						{
							"internalType": "uint256",
							"name": "y",
							"type": "uint256"
						}
					],
					"name": "decMul18",
					"outputs": [
						{
							"internalType": "uint256",
							"name": "decProd",
							"type": "uint256"
						}
					],
					"stateMutability": "pure",
					"type": "function"
				},
				{
					"inputs": [],
					"name": "devWalletAddr",
					"outputs": [
						{
							"internalType": "address",
							"name": "",
							"type": "address"
						}
					],
					"stateMutability": "view",
					"type": "function"
				},
				{
					"inputs": [],
					"name": "getBackingPrice",
					"outputs": [
						{
							"internalType": "uint256",
							"name": "",
							"type": "uint256"
						}
					],
					"stateMutability": "view",
					"type": "function"
				},
				{
					"inputs": [],
					"name": "getBuyPrice",
					"outputs": [
						{
							"internalType": "uint256",
							"name": "",
							"type": "uint256"
						}
					],
					"stateMutability": "view",
					"type": "function"
				},
				{
					"inputs": [],
					"name": "getCircSupplyXDays",
					"outputs": [
						{
							"internalType": "uint256",
							"name": "",
							"type": "uint256"
						}
					],
					"stateMutability": "view",
					"type": "function"
				},
				{
					"inputs": [],
					"name": "getGrowthFactor",
					"outputs": [
						{
							"internalType": "uint256",
							"name": "",
							"type": "uint256"
						}
					],
					"stateMutability": "view",
					"type": "function"
				},
				{
					"inputs": [],
					"name": "getSellFactor",
					"outputs": [
						{
							"internalType": "uint256",
							"name": "",
							"type": "uint256"
						}
					],
					"stateMutability": "view",
					"type": "function"
				},
				{
					"inputs": [],
					"name": "getSellPrice",
					"outputs": [
						{
							"internalType": "uint256",
							"name": "",
							"type": "uint256"
						}
					],
					"stateMutability": "view",
					"type": "function"
				},
				{
					"inputs": [],
					"name": "getTokensBoughtXDays",
					"outputs": [
						{
							"internalType": "uint256",
							"name": "",
							"type": "uint256"
						}
					],
					"stateMutability": "view",
					"type": "function"
				},
				{
					"inputs": [],
					"name": "getTokensSoldXDays",
					"outputs": [
						{
							"internalType": "uint256",
							"name": "",
							"type": "uint256"
						}
					],
					"stateMutability": "view",
					"type": "function"
				},
				{
					"inputs": [],
					"name": "growthFactor",
					"outputs": [
						{
							"internalType": "uint256",
							"name": "",
							"type": "uint256"
						}
					],
					"stateMutability": "view",
					"type": "function"
				},
				{
					"inputs": [],
					"name": "res",
					"outputs": [
						{
							"internalType": "int128",
							"name": "",
							"type": "int128"
						}
					],
					"stateMutability": "view",
					"type": "function"
				},
				{
					"inputs": [],
					"name": "riskTreasuryAddr",
					"outputs": [
						{
							"internalType": "address",
							"name": "",
							"type": "address"
						}
					],
					"stateMutability": "view",
					"type": "function"
				},
				{
					"inputs": [],
					"name": "scepterTreasuryAddr",
					"outputs": [
						{
							"internalType": "address",
							"name": "",
							"type": "address"
						}
					],
					"stateMutability": "view",
					"type": "function"
				},
				{
					"inputs": [],
					"name": "sellFactor",
					"outputs": [
						{
							"internalType": "uint256",
							"name": "",
							"type": "uint256"
						}
					],
					"stateMutability": "view",
					"type": "function"
				},
				{
					"inputs": [
						{
							"internalType": "uint256",
							"name": "numDays",
							"type": "uint256"
						}
					],
					"name": "setDaysUsedInFactors",
					"outputs": [],
					"stateMutability": "nonpayable",
					"type": "function"
				},
				{
					"inputs": [
						{
							"internalType": "string",
							"name": "",
							"type": "string"
						}
					],
					"name": "stableERC20Info",
					"outputs": [
						{
							"internalType": "address",
							"name": "contractAddress",
							"type": "address"
						},
						{
							"internalType": "uint256",
							"name": "tokenDecimals",
							"type": "uint256"
						}
					],
					"stateMutability": "view",
					"type": "function"
				},
				{
					"inputs": [],
					"name": "tSC",
					"outputs": [
						{
							"internalType": "contract IERC20",
							"name": "",
							"type": "address"
						}
					],
					"stateMutability": "view",
					"type": "function"
				},
				{
					"inputs": [
						{
							"internalType": "uint256",
							"name": "amt",
							"type": "uint256"
						}
					],
					"name": "testUpdatetimeLockedminus",
					"outputs": [],
					"stateMutability": "nonpayable",
					"type": "function"
				},
				{
					"inputs": [
						{
							"internalType": "uint256",
							"name": "amt",
							"type": "uint256"
						}
					],
					"name": "testUpdatetimeLockedplus",
					"outputs": [],
					"stateMutability": "nonpayable",
					"type": "function"
				},
				{
					"inputs": [],
					"name": "testwallet",
					"outputs": [
						{
							"internalType": "address",
							"name": "",
							"type": "address"
						}
					],
					"stateMutability": "view",
					"type": "function"
				},
				{
					"inputs": [],
					"name": "timeLaunched",
					"outputs": [
						{
							"internalType": "uint256",
							"name": "",
							"type": "uint256"
						}
					],
					"stateMutability": "view",
					"type": "function"
				},
				{
					"inputs": [],
					"name": "tokenStable",
					"outputs": [
						{
							"internalType": "contract IERC20",
							"name": "",
							"type": "address"
						}
					],
					"stateMutability": "view",
					"type": "function"
				},
				{
					"inputs": [
						{
							"internalType": "uint256",
							"name": "",
							"type": "uint256"
						}
					],
					"name": "tokensBoughtXDays",
					"outputs": [
						{
							"internalType": "uint256",
							"name": "",
							"type": "uint256"
						}
					],
					"stateMutability": "view",
					"type": "function"
				},
				{
					"inputs": [
						{
							"internalType": "uint256",
							"name": "",
							"type": "uint256"
						}
					],
					"name": "tokensSoldXDays",
					"outputs": [
						{
							"internalType": "uint256",
							"name": "",
							"type": "uint256"
						}
					],
					"stateMutability": "view",
					"type": "function"
				},
				{
					"inputs": [
						{
							"internalType": "uint256",
							"name": "amountSCPtoSwap",
							"type": "uint256"
						}
					],
					"name": "transformScepterToBaton",
					"outputs": [],
					"stateMutability": "payable",
					"type": "function"
				},
				{
					"inputs": [],
					"name": "treasury1Addr",
					"outputs": [
						{
							"internalType": "address",
							"name": "",
							"type": "address"
						}
					],
					"stateMutability": "view",
					"type": "function"
				},
				{
					"inputs": [],
					"name": "treasury1bal",
					"outputs": [
						{
							"internalType": "uint256",
							"name": "",
							"type": "uint256"
						}
					],
					"stateMutability": "view",
					"type": "function"
				},
				{
					"inputs": [
						{
							"internalType": "address",
							"name": "_addr",
							"type": "address"
						}
					],
					"name": "whitelist",
					"outputs": [],
					"stateMutability": "nonpayable",
					"type": "function"
				},
				{
					"inputs": [
						{
							"internalType": "uint256",
							"name": "_amtToWithdraw",
							"type": "uint256"
						}
					],
					"name": "withdrawStables",
					"outputs": [],
					"stateMutability": "nonpayable",
					"type": "function"
				},
				{
					"inputs": [
						{
							"internalType": "address",
							"name": "",
							"type": "address"
						}
					],
					"name": "withheldWithdrawals",
					"outputs": [
						{
							"internalType": "uint256",
							"name": "timeUnlocked",
							"type": "uint256"
						},
						{
							"internalType": "uint256",
							"name": "amounts",
							"type": "uint256"
						}
					],
					"stateMutability": "view",
					"type": "function"
				}
			],
			"devdoc": {
				"kind": "dev",
				"methods": {},
				"version": 1
			},
			"evm": {
				"assembly": "    /* \"WandInstruments.sol\":96:14811  contract testSticks {\r... */\n  mstore(0x40, 0x80)\n    /* \"WandInstruments.sol\":283:289  10**18 */\n  0x0de0b6b3a7640000\n    /* \"WandInstruments.sol\":759:764  50000 */\n  0xc350\n    /* \"WandInstruments.sol\":759:775  50000*(DECIMALS) */\n  tag_1\n  swap2\n  swap1\n  tag_2\n  jump\t// in\ntag_1:\n    /* \"WandInstruments.sol\":729:775  uint256 public treasury1bal = 50000*(DECIMALS) */\n  0x0a\n  sstore\n    /* \"WandInstruments.sol\":925:931  100000 */\n  0x0186a0\n    /* \"WandInstruments.sol\":894:931  uint256 private ft5daybought = 100000 */\n  0x0d\n  sstore\n    /* \"WandInstruments.sol\":967:972  90000 */\n  0x015f90\n    /* \"WandInstruments.sol\":938:972  uint256 private ft5daysold = 90000 */\n  0x0e\n  sstore\n    /* \"WandInstruments.sol\":1014:1020  600000 */\n  0x0927c0\n    /* \"WandInstruments.sol\":979:1020  uint256 private double5daytokens = 600000 */\n  0x0f\n  sstore\n    /* \"WandInstruments.sol\":1141:1183  0x617F2E2fD72FD9D5503197092aC168c91465E7f2 */\n  0x617f2e2fd72fd9d5503197092ac168c91465e7f2\n    /* \"WandInstruments.sol\":1113:1183  address public testwallet = 0x617F2E2fD72FD9D5503197092aC168c91465E7f2 */\n  0x11\n  exp(0x0100, 0x00)\n  dup2\n  sload\n  dup2\n  0xffffffffffffffffffffffffffffffffffffffff\n  mul\n  not\n  and\n  swap1\n  dup4\n  0xffffffffffffffffffffffffffffffffffffffff\n  and\n  mul\n  or\n  swap1\n  sstore\n  pop\n    /* \"WandInstruments.sol\":2371:3527  constructor(address scepterAddr, address batonAddr) {   \r... */\n  callvalue\n  dup1\n  iszero\n  tag_3\n  jumpi\n  0x00\n  dup1\n  revert\ntag_3:\n  pop\n  mload(0x40)\n  sub(codesize, bytecodeSize)\n  dup1\n  bytecodeSize\n  dup4\n  codecopy\n  dup2\n  dup2\n  add\n  0x40\n  mstore\n  dup2\n  add\n  swap1\n  tag_4\n  swap2\n  swap1\n  tag_5\n  jump\t// in\ntag_4:\n    /* \"WandInstruments.sol\":2507:2518  scepterAddr */\n  dup2\n    /* \"WandInstruments.sol\":2492:2496  sptr */\n  0x1c\n  0x00\n    /* \"WandInstruments.sol\":2492:2519  sptr = Scepter(scepterAddr) */\n  0x0100\n  exp\n  dup2\n  sload\n  dup2\n  0xffffffffffffffffffffffffffffffffffffffff\n  mul\n  not\n  and\n  swap1\n  dup4\n  0xffffffffffffffffffffffffffffffffffffffff\n  and\n  mul\n  or\n  swap1\n  sstore\n  pop\n    /* \"WandInstruments.sol\":2542:2551  batonAddr */\n  dup1\n    /* \"WandInstruments.sol\":2530:2533  btn */\n  0x1d\n  0x00\n    /* \"WandInstruments.sol\":2530:2552  btn = Baton(batonAddr) */\n  0x0100\n  exp\n  dup2\n  sload\n  dup2\n  0xffffffffffffffffffffffffffffffffffffffff\n  mul\n  not\n  and\n  swap1\n  dup4\n  0xffffffffffffffffffffffffffffffffffffffff\n  and\n  mul\n  or\n  swap1\n  sstore\n  pop\n    /* \"WandInstruments.sol\":2576:2587  scepterAddr */\n  dup2\n    /* \"WandInstruments.sol\":2563:2566  tSC */\n  0x12\n  0x00\n    /* \"WandInstruments.sol\":2563:2588  tSC = IERC20(scepterAddr) */\n  0x0100\n  exp\n  dup2\n  sload\n  dup2\n  0xffffffffffffffffffffffffffffffffffffffff\n  mul\n  not\n  and\n  swap1\n  dup4\n  0xffffffffffffffffffffffffffffffffffffffff\n  and\n  mul\n  or\n  swap1\n  sstore\n  pop\n    /* \"WandInstruments.sol\":2662:2704  0x2F8895b08D8F226b19895d46154faB7096fB2593 */\n  0x2f8895b08d8f226b19895d46154fab7096fb2593\n    /* \"WandInstruments.sol\":2620:2635  stableERC20Info */\n  0x1a\n    /* \"WandInstruments.sol\":2620:2643  stableERC20Info[\"USDC\"] */\n  mload(0x40)\n  tag_8\n  swap1\n  tag_9\n  jump\t// in\ntag_8:\n  swap1\n  dup2\n  mstore\n  0x20\n  add\n  mload(0x40)\n  dup1\n  swap2\n  sub\n  swap1\n  keccak256\n    /* \"WandInstruments.sol\":2620:2659  stableERC20Info[\"USDC\"].contractAddress */\n  0x00\n  add\n  0x00\n    /* \"WandInstruments.sol\":2620:2704  stableERC20Info[\"USDC\"].contractAddress = 0x2F8895b08D8F226b19895d46154faB7096fB2593 */\n  0x0100\n  exp\n  dup2\n  sload\n  dup2\n  0xffffffffffffffffffffffffffffffffffffffff\n  mul\n  not\n  and\n  swap1\n  dup4\n  0xffffffffffffffffffffffffffffffffffffffff\n  and\n  mul\n  or\n  swap1\n  sstore\n  pop\n    /* \"WandInstruments.sol\":2755:2756  5 */\n  0x05\n    /* \"WandInstruments.sol\":2715:2730  stableERC20Info */\n  0x1a\n    /* \"WandInstruments.sol\":2715:2738  stableERC20Info[\"USDC\"] */\n  mload(0x40)\n  tag_10\n  swap1\n  tag_9\n  jump\t// in\ntag_10:\n  swap1\n  dup2\n  mstore\n  0x20\n  add\n  mload(0x40)\n  dup1\n  swap2\n  sub\n  swap1\n  keccak256\n    /* \"WandInstruments.sol\":2715:2752  stableERC20Info[\"USDC\"].tokenDecimals */\n  0x01\n  add\n    /* \"WandInstruments.sol\":2715:2756  stableERC20Info[\"USDC\"].tokenDecimals = 5 */\n  dup2\n  swap1\n  sstore\n  pop\n    /* \"WandInstruments.sol\":2828:2870  0x8D11eC38a3EB5E956B052f67Da8Bdc9bef8Abf3E */\n  0x8d11ec38a3eb5e956b052f67da8bdc9bef8abf3e\n    /* \"WandInstruments.sol\":2787:2802  stableERC20Info */\n  0x1a\n    /* \"WandInstruments.sol\":2787:2809  stableERC20Info[\"DAI\"] */\n  mload(0x40)\n  tag_11\n  swap1\n  tag_12\n  jump\t// in\ntag_11:\n  swap1\n  dup2\n  mstore\n  0x20\n  add\n  mload(0x40)\n  dup1\n  swap2\n  sub\n  swap1\n  keccak256\n    /* \"WandInstruments.sol\":2787:2825  stableERC20Info[\"DAI\"].contractAddress */\n  0x00\n  add\n  0x00\n    /* \"WandInstruments.sol\":2787:2870  stableERC20Info[\"DAI\"].contractAddress = 0x8D11eC38a3EB5E956B052f67Da8Bdc9bef8Abf3E */\n  0x0100\n  exp\n  dup2\n  sload\n  dup2\n  0xffffffffffffffffffffffffffffffffffffffff\n  mul\n  not\n  and\n  swap1\n  dup4\n  0xffffffffffffffffffffffffffffffffffffffff\n  and\n  mul\n  or\n  swap1\n  sstore\n  pop\n    /* \"WandInstruments.sol\":2920:2922  18 */\n  0x12\n    /* \"WandInstruments.sol\":2881:2896  stableERC20Info */\n  0x1a\n    /* \"WandInstruments.sol\":2881:2903  stableERC20Info[\"DAI\"] */\n  mload(0x40)\n  tag_13\n  swap1\n  tag_12\n  jump\t// in\ntag_13:\n  swap1\n  dup2\n  mstore\n  0x20\n  add\n  mload(0x40)\n  dup1\n  swap2\n  sub\n  swap1\n  keccak256\n    /* \"WandInstruments.sol\":2881:2917  stableERC20Info[\"DAI\"].tokenDecimals */\n  0x01\n  add\n    /* \"WandInstruments.sol\":2881:2922  stableERC20Info[\"DAI\"].tokenDecimals = 18 */\n  dup2\n  swap1\n  sstore\n  pop\n    /* \"WandInstruments.sol\":2996:3038  0xdc301622e621166BD8E82f2cA0A26c13Ad0BE355 */\n  0xdc301622e621166bd8e82f2ca0a26c13ad0be355\n    /* \"WandInstruments.sol\":2954:2969  stableERC20Info */\n  0x1a\n    /* \"WandInstruments.sol\":2954:2977  stableERC20Info[\"FRAX\"] */\n  mload(0x40)\n  tag_14\n  swap1\n  tag_15\n  jump\t// in\ntag_14:\n  swap1\n  dup2\n  mstore\n  0x20\n  add\n  mload(0x40)\n  dup1\n  swap2\n  sub\n  swap1\n  keccak256\n    /* \"WandInstruments.sol\":2954:2993  stableERC20Info[\"FRAX\"].contractAddress */\n  0x00\n  add\n  0x00\n    /* \"WandInstruments.sol\":2954:3038  stableERC20Info[\"FRAX\"].contractAddress = 0xdc301622e621166BD8E82f2cA0A26c13Ad0BE355 */\n  0x0100\n  exp\n  dup2\n  sload\n  dup2\n  0xffffffffffffffffffffffffffffffffffffffff\n  mul\n  not\n  and\n  swap1\n  dup4\n  0xffffffffffffffffffffffffffffffffffffffff\n  and\n  mul\n  or\n  swap1\n  sstore\n  pop\n    /* \"WandInstruments.sol\":3089:3091  18 */\n  0x12\n    /* \"WandInstruments.sol\":3049:3064  stableERC20Info */\n  0x1a\n    /* \"WandInstruments.sol\":3049:3072  stableERC20Info[\"FRAX\"] */\n  mload(0x40)\n  tag_16\n  swap1\n  tag_15\n  jump\t// in\ntag_16:\n  swap1\n  dup2\n  mstore\n  0x20\n  add\n  mload(0x40)\n  dup1\n  swap2\n  sub\n  swap1\n  keccak256\n    /* \"WandInstruments.sol\":3049:3086  stableERC20Info[\"FRAX\"].tokenDecimals */\n  0x01\n  add\n    /* \"WandInstruments.sol\":3049:3091  stableERC20Info[\"FRAX\"].tokenDecimals = 18 */\n  dup2\n  swap1\n  sstore\n  pop\n    /* \"WandInstruments.sol\":3130:3172  0x617F2E2fD72FD9D5503197092aC168c91465E7f2 */\n  0x617f2e2fd72fd9d5503197092ac168c91465e7f2\n    /* \"WandInstruments.sol\":3114:3127  treasury1Addr */\n  0x06\n  0x00\n    /* \"WandInstruments.sol\":3114:3172  treasury1Addr = 0x617F2E2fD72FD9D5503197092aC168c91465E7f2 */\n  0x0100\n  exp\n  dup2\n  sload\n  dup2\n  0xffffffffffffffffffffffffffffffffffffffff\n  mul\n  not\n  and\n  swap1\n  dup4\n  0xffffffffffffffffffffffffffffffffffffffff\n  and\n  mul\n  or\n  swap1\n  sstore\n  pop\n    /* \"WandInstruments.sol\":3371:3386  block.timestamp */\n  timestamp\n    /* \"WandInstruments.sol\":3356:3368  timeLaunched */\n  0x0b\n    /* \"WandInstruments.sol\":3356:3386  timeLaunched = block.timestamp */\n  dup2\n  swap1\n  sstore\n  pop\n    /* \"WandInstruments.sol\":3417:3423  5 days */\n  0x069780\n    /* \"WandInstruments.sol\":3397:3414  daysInCalculation */\n  0x0c\n    /* \"WandInstruments.sol\":3397:3423  daysInCalculation = 5 days */\n  dup2\n  swap1\n  sstore\n  pop\n    /* \"WandInstruments.sol\":2371:3527  constructor(address scepterAddr, address batonAddr) {   \r... */\n  pop\n  pop\n    /* \"WandInstruments.sol\":96:14811  contract testSticks {\r... */\n  jump(tag_17)\n    /* \"#utility.yul\":7:150   */\ntag_19:\n    /* \"#utility.yul\":64:69   */\n  0x00\n    /* \"#utility.yul\":95:101   */\n  dup2\n    /* \"#utility.yul\":89:102   */\n  mload\n    /* \"#utility.yul\":80:102   */\n  swap1\n  pop\n    /* \"#utility.yul\":111:144   */\n  tag_21\n    /* \"#utility.yul\":138:143   */\n  dup2\n    /* \"#utility.yul\":111:144   */\n  tag_22\n  jump\t// in\ntag_21:\n    /* \"#utility.yul\":7:150   */\n  swap3\n  swap2\n  pop\n  pop\n  jump\t// out\n    /* \"#utility.yul\":156:663   */\ntag_5:\n    /* \"#utility.yul\":235:241   */\n  0x00\n    /* \"#utility.yul\":243:249   */\n  dup1\n    /* \"#utility.yul\":292:294   */\n  0x40\n    /* \"#utility.yul\":280:289   */\n  dup4\n    /* \"#utility.yul\":271:278   */\n  dup6\n    /* \"#utility.yul\":267:290   */\n  sub\n    /* \"#utility.yul\":263:295   */\n  slt\n    /* \"#utility.yul\":260:379   */\n  iszero\n  tag_24\n  jumpi\n    /* \"#utility.yul\":298:377   */\n  tag_25\n  tag_26\n  jump\t// in\ntag_25:\n    /* \"#utility.yul\":260:379   */\ntag_24:\n    /* \"#utility.yul\":418:419   */\n  0x00\n    /* \"#utility.yul\":443:507   */\n  tag_27\n    /* \"#utility.yul\":499:506   */\n  dup6\n    /* \"#utility.yul\":490:496   */\n  dup3\n    /* \"#utility.yul\":479:488   */\n  dup7\n    /* \"#utility.yul\":475:497   */\n  add\n    /* \"#utility.yul\":443:507   */\n  tag_19\n  jump\t// in\ntag_27:\n    /* \"#utility.yul\":433:507   */\n  swap3\n  pop\n    /* \"#utility.yul\":389:517   */\n  pop\n    /* \"#utility.yul\":556:558   */\n  0x20\n    /* \"#utility.yul\":582:646   */\n  tag_28\n    /* \"#utility.yul\":638:645   */\n  dup6\n    /* \"#utility.yul\":629:635   */\n  dup3\n    /* \"#utility.yul\":618:627   */\n  dup7\n    /* \"#utility.yul\":614:636   */\n  add\n    /* \"#utility.yul\":582:646   */\n  tag_19\n  jump\t// in\ntag_28:\n    /* \"#utility.yul\":572:646   */\n  swap2\n  pop\n    /* \"#utility.yul\":527:656   */\n  pop\n    /* \"#utility.yul\":156:663   */\n  swap3\n  pop\n  swap3\n  swap1\n  pop\n  jump\t// out\n    /* \"#utility.yul\":669:1069   */\ntag_29:\n    /* \"#utility.yul\":829:832   */\n  0x00\n    /* \"#utility.yul\":850:934   */\n  tag_31\n    /* \"#utility.yul\":932:933   */\n  0x04\n    /* \"#utility.yul\":927:930   */\n  dup4\n    /* \"#utility.yul\":850:934   */\n  tag_32\n  jump\t// in\ntag_31:\n    /* \"#utility.yul\":843:934   */\n  swap2\n  pop\n    /* \"#utility.yul\":943:1036   */\n  tag_33\n    /* \"#utility.yul\":1032:1035   */\n  dup3\n    /* \"#utility.yul\":943:1036   */\n  tag_34\n  jump\t// in\ntag_33:\n    /* \"#utility.yul\":1061:1062   */\n  0x04\n    /* \"#utility.yul\":1056:1059   */\n  dup3\n    /* \"#utility.yul\":1052:1063   */\n  add\n    /* \"#utility.yul\":1045:1063   */\n  swap1\n  pop\n    /* \"#utility.yul\":669:1069   */\n  swap2\n  swap1\n  pop\n  jump\t// out\n    /* \"#utility.yul\":1075:1475   */\ntag_35:\n    /* \"#utility.yul\":1235:1238   */\n  0x00\n    /* \"#utility.yul\":1256:1340   */\n  tag_37\n    /* \"#utility.yul\":1338:1339   */\n  0x03\n    /* \"#utility.yul\":1333:1336   */\n  dup4\n    /* \"#utility.yul\":1256:1340   */\n  tag_32\n  jump\t// in\ntag_37:\n    /* \"#utility.yul\":1249:1340   */\n  swap2\n  pop\n    /* \"#utility.yul\":1349:1442   */\n  tag_38\n    /* \"#utility.yul\":1438:1441   */\n  dup3\n    /* \"#utility.yul\":1349:1442   */\n  tag_39\n  jump\t// in\ntag_38:\n    /* \"#utility.yul\":1467:1468   */\n  0x03\n    /* \"#utility.yul\":1462:1465   */\n  dup3\n    /* \"#utility.yul\":1458:1469   */\n  add\n    /* \"#utility.yul\":1451:1469   */\n  swap1\n  pop\n    /* \"#utility.yul\":1075:1475   */\n  swap2\n  swap1\n  pop\n  jump\t// out\n    /* \"#utility.yul\":1481:1881   */\ntag_40:\n    /* \"#utility.yul\":1641:1644   */\n  0x00\n    /* \"#utility.yul\":1662:1746   */\n  tag_42\n    /* \"#utility.yul\":1744:1745   */\n  0x04\n    /* \"#utility.yul\":1739:1742   */\n  dup4\n    /* \"#utility.yul\":1662:1746   */\n  tag_32\n  jump\t// in\ntag_42:\n    /* \"#utility.yul\":1655:1746   */\n  swap2\n  pop\n    /* \"#utility.yul\":1755:1848   */\n  tag_43\n    /* \"#utility.yul\":1844:1847   */\n  dup3\n    /* \"#utility.yul\":1755:1848   */\n  tag_44\n  jump\t// in\ntag_43:\n    /* \"#utility.yul\":1873:1874   */\n  0x04\n    /* \"#utility.yul\":1868:1871   */\n  dup3\n    /* \"#utility.yul\":1864:1875   */\n  add\n    /* \"#utility.yul\":1857:1875   */\n  swap1\n  pop\n    /* \"#utility.yul\":1481:1881   */\n  swap2\n  swap1\n  pop\n  jump\t// out\n    /* \"#utility.yul\":1887:2268   */\ntag_15:\n    /* \"#utility.yul\":2072:2075   */\n  0x00\n    /* \"#utility.yul\":2094:2242   */\n  tag_46\n    /* \"#utility.yul\":2238:2241   */\n  dup3\n    /* \"#utility.yul\":2094:2242   */\n  tag_29\n  jump\t// in\ntag_46:\n    /* \"#utility.yul\":2087:2242   */\n  swap2\n  pop\n    /* \"#utility.yul\":2259:2262   */\n  dup2\n    /* \"#utility.yul\":2252:2262   */\n  swap1\n  pop\n    /* \"#utility.yul\":1887:2268   */\n  swap2\n  swap1\n  pop\n  jump\t// out\n    /* \"#utility.yul\":2274:2655   */\ntag_12:\n    /* \"#utility.yul\":2459:2462   */\n  0x00\n    /* \"#utility.yul\":2481:2629   */\n  tag_48\n    /* \"#utility.yul\":2625:2628   */\n  dup3\n    /* \"#utility.yul\":2481:2629   */\n  tag_35\n  jump\t// in\ntag_48:\n    /* \"#utility.yul\":2474:2629   */\n  swap2\n  pop\n    /* \"#utility.yul\":2646:2649   */\n  dup2\n    /* \"#utility.yul\":2639:2649   */\n  swap1\n  pop\n    /* \"#utility.yul\":2274:2655   */\n  swap2\n  swap1\n  pop\n  jump\t// out\n    /* \"#utility.yul\":2661:3042   */\ntag_9:\n    /* \"#utility.yul\":2846:2849   */\n  0x00\n    /* \"#utility.yul\":2868:3016   */\n  tag_50\n    /* \"#utility.yul\":3012:3015   */\n  dup3\n    /* \"#utility.yul\":2868:3016   */\n  tag_40\n  jump\t// in\ntag_50:\n    /* \"#utility.yul\":2861:3016   */\n  swap2\n  pop\n    /* \"#utility.yul\":3033:3036   */\n  dup2\n    /* \"#utility.yul\":3026:3036   */\n  swap1\n  pop\n    /* \"#utility.yul\":2661:3042   */\n  swap2\n  swap1\n  pop\n  jump\t// out\n    /* \"#utility.yul\":3129:3277   */\ntag_32:\n    /* \"#utility.yul\":3231:3242   */\n  0x00\n    /* \"#utility.yul\":3268:3271   */\n  dup2\n    /* \"#utility.yul\":3253:3271   */\n  swap1\n  pop\n    /* \"#utility.yul\":3129:3277   */\n  swap3\n  swap2\n  pop\n  pop\n  jump\t// out\n    /* \"#utility.yul\":3283:3631   */\ntag_2:\n    /* \"#utility.yul\":3323:3330   */\n  0x00\n    /* \"#utility.yul\":3346:3366   */\n  tag_55\n    /* \"#utility.yul\":3364:3365   */\n  dup3\n    /* \"#utility.yul\":3346:3366   */\n  tag_56\n  jump\t// in\ntag_55:\n    /* \"#utility.yul\":3341:3366   */\n  swap2\n  pop\n    /* \"#utility.yul\":3380:3400   */\n  tag_57\n    /* \"#utility.yul\":3398:3399   */\n  dup4\n    /* \"#utility.yul\":3380:3400   */\n  tag_56\n  jump\t// in\ntag_57:\n    /* \"#utility.yul\":3375:3400   */\n  swap3\n  pop\n    /* \"#utility.yul\":3568:3569   */\n  dup2\n    /* \"#utility.yul\":3500:3566   */\n  0xffffffffffffffffffffffffffffffffffffffffffffffffffffffffffffffff\n    /* \"#utility.yul\":3496:3570   */\n  div\n    /* \"#utility.yul\":3493:3494   */\n  dup4\n    /* \"#utility.yul\":3490:3571   */\n  gt\n    /* \"#utility.yul\":3485:3486   */\n  dup3\n    /* \"#utility.yul\":3478:3487   */\n  iszero\n    /* \"#utility.yul\":3471:3488   */\n  iszero\n    /* \"#utility.yul\":3467:3572   */\n  and\n    /* \"#utility.yul\":3464:3595   */\n  iszero\n  tag_58\n  jumpi\n    /* \"#utility.yul\":3575:3593   */\n  tag_59\n  tag_60\n  jump\t// in\ntag_59:\n    /* \"#utility.yul\":3464:3595   */\ntag_58:\n    /* \"#utility.yul\":3623:3624   */\n  dup3\n    /* \"#utility.yul\":3620:3621   */\n  dup3\n    /* \"#utility.yul\":3616:3625   */\n  mul\n    /* \"#utility.yul\":3605:3625   */\n  swap1\n  pop\n    /* \"#utility.yul\":3283:3631   */\n  swap3\n  swap2\n  pop\n  pop\n  jump\t// out\n    /* \"#utility.yul\":3637:3733   */\ntag_61:\n    /* \"#utility.yul\":3674:3681   */\n  0x00\n    /* \"#utility.yul\":3703:3727   */\n  tag_63\n    /* \"#utility.yul\":3721:3726   */\n  dup3\n    /* \"#utility.yul\":3703:3727   */\n  tag_64\n  jump\t// in\ntag_63:\n    /* \"#utility.yul\":3692:3727   */\n  swap1\n  pop\n    /* \"#utility.yul\":3637:3733   */\n  swap2\n  swap1\n  pop\n  jump\t// out\n    /* \"#utility.yul\":3739:3865   */\ntag_64:\n    /* \"#utility.yul\":3776:3783   */\n  0x00\n    /* \"#utility.yul\":3816:3858   */\n  0xffffffffffffffffffffffffffffffffffffffff\n    /* \"#utility.yul\":3809:3814   */\n  dup3\n    /* \"#utility.yul\":3805:3859   */\n  and\n    /* \"#utility.yul\":3794:3859   */\n  swap1\n  pop\n    /* \"#utility.yul\":3739:3865   */\n  swap2\n  swap1\n  pop\n  jump\t// out\n    /* \"#utility.yul\":3871:3948   */\ntag_56:\n    /* \"#utility.yul\":3908:3915   */\n  0x00\n    /* \"#utility.yul\":3937:3942   */\n  dup2\n    /* \"#utility.yul\":3926:3942   */\n  swap1\n  pop\n    /* \"#utility.yul\":3871:3948   */\n  swap2\n  swap1\n  pop\n  jump\t// out\n    /* \"#utility.yul\":3954:4134   */\ntag_60:\n    /* \"#utility.yul\":4002:4079   */\n  0x4e487b7100000000000000000000000000000000000000000000000000000000\n    /* \"#utility.yul\":3999:4000   */\n  0x00\n    /* \"#utility.yul\":3992:4080   */\n  mstore\n    /* \"#utility.yul\":4099:4103   */\n  0x11\n    /* \"#utility.yul\":4096:4097   */\n  0x04\n    /* \"#utility.yul\":4089:4104   */\n  mstore\n    /* \"#utility.yul\":4123:4127   */\n  0x24\n    /* \"#utility.yul\":4120:4121   */\n  0x00\n    /* \"#utility.yul\":4113:4128   */\n  revert\n    /* \"#utility.yul\":4263:4380   */\ntag_26:\n    /* \"#utility.yul\":4372:4373   */\n  0x00\n    /* \"#utility.yul\":4369:4370   */\n  dup1\n    /* \"#utility.yul\":4362:4374   */\n  revert\n    /* \"#utility.yul\":4386:4540   */\ntag_34:\n    /* \"#utility.yul\":4526:4532   */\n  0x4652415800000000000000000000000000000000000000000000000000000000\n    /* \"#utility.yul\":4522:4523   */\n  0x00\n    /* \"#utility.yul\":4514:4520   */\n  dup3\n    /* \"#utility.yul\":4510:4524   */\n  add\n    /* \"#utility.yul\":4503:4533   */\n  mstore\n    /* \"#utility.yul\":4386:4540   */\n  pop\n  jump\t// out\n    /* \"#utility.yul\":4546:4699   */\ntag_39:\n    /* \"#utility.yul\":4686:4691   */\n  0x4441490000000000000000000000000000000000000000000000000000000000\n    /* \"#utility.yul\":4682:4683   */\n  0x00\n    /* \"#utility.yul\":4674:4680   */\n  dup3\n    /* \"#utility.yul\":4670:4684   */\n  add\n    /* \"#utility.yul\":4663:4692   */\n  mstore\n    /* \"#utility.yul\":4546:4699   */\n  pop\n  jump\t// out\n    /* \"#utility.yul\":4705:4859   */\ntag_44:\n    /* \"#utility.yul\":4845:4851   */\n  0x5553444300000000000000000000000000000000000000000000000000000000\n    /* \"#utility.yul\":4841:4842   */\n  0x00\n    /* \"#utility.yul\":4833:4839   */\n  dup3\n    /* \"#utility.yul\":4829:4843   */\n  add\n    /* \"#utility.yul\":4822:4852   */\n  mstore\n    /* \"#utility.yul\":4705:4859   */\n  pop\n  jump\t// out\n    /* \"#utility.yul\":4865:4987   */\ntag_22:\n    /* \"#utility.yul\":4938:4962   */\n  tag_75\n    /* \"#utility.yul\":4956:4961   */\n  dup2\n    /* \"#utility.yul\":4938:4962   */\n  tag_61\n  jump\t// in\ntag_75:\n    /* \"#utility.yul\":4931:4936   */\n  dup2\n    /* \"#utility.yul\":4928:4963   */\n  eq\n    /* \"#utility.yul\":4918:4981   */\n  tag_76\n  jumpi\n    /* \"#utility.yul\":4977:4978   */\n  0x00\n    /* \"#utility.yul\":4974:4975   */\n  dup1\n    /* \"#utility.yul\":4967:4979   */\n  revert\n    /* \"#utility.yul\":4918:4981   */\ntag_76:\n    /* \"#utility.yul\":4865:4987   */\n  pop\n  jump\t// out\n    /* \"WandInstruments.sol\":96:14811  contract testSticks {\r... */\ntag_17:\n  dataSize(sub_0)\n  dup1\n  dataOffset(sub_0)\n  0x00\n  codecopy\n  0x00\n  return\nstop\n\nsub_0: assembly {\n        /* \"WandInstruments.sol\":96:14811  contract testSticks {\r... */\n      mstore(0x40, 0x80)\n      jumpi(tag_1, lt(calldatasize, 0x04))\n      shr(0xe0, calldataload(0x00))\n      dup1\n      0x6e05c1b9\n      gt\n      tag_43\n      jumpi\n      dup1\n      0xc0ca6fb4\n      gt\n      tag_44\n      jumpi\n      dup1\n      0xe5d98082\n      gt\n      tag_45\n      jumpi\n      dup1\n      0xe5d98082\n      eq\n      tag_37\n      jumpi\n      dup1\n      0xee620868\n      eq\n      tag_38\n      jumpi\n      dup1\n      0xeee05f5e\n      eq\n      tag_39\n      jumpi\n      dup1\n      0xf7523c52\n      eq\n      tag_40\n      jumpi\n      dup1\n      0xfbbb4589\n      eq\n      tag_41\n      jumpi\n      dup1\n      0xfc361443\n      eq\n      tag_42\n      jumpi\n      jump(tag_1)\n    tag_45:\n      dup1\n      0xc0ca6fb4\n      eq\n      tag_32\n      jumpi\n      dup1\n      0xc0ce5889\n      eq\n      tag_33\n      jumpi\n      dup1\n      0xcbff4617\n      eq\n      tag_34\n      jumpi\n      dup1\n      0xd04d7908\n      eq\n      tag_35\n      jumpi\n      dup1\n      0xd82eddf2\n      eq\n      tag_36\n      jumpi\n      jump(tag_1)\n    tag_44:\n      dup1\n      0x93f7b711\n      gt\n      tag_46\n      jumpi\n      dup1\n      0x93f7b711\n      eq\n      tag_27\n      jumpi\n      dup1\n      0x9b19251a\n      eq\n      tag_28\n      jumpi\n      dup1\n      0xa475bf48\n      eq\n      tag_29\n      jumpi\n      dup1\n      0xbdad7f02\n      eq\n      tag_30\n      jumpi\n      dup1\n      0xc079d7f6\n      eq\n      tag_31\n      jumpi\n      jump(tag_1)\n    tag_46:\n      dup1\n      0x6e05c1b9\n      eq\n      tag_22\n      jumpi\n      dup1\n      0x6f10e285\n      eq\n      tag_23\n      jumpi\n      dup1\n      0x7087a7a5\n      eq\n      tag_24\n      jumpi\n      dup1\n      0x71cd58f9\n      eq\n      tag_25\n      jumpi\n      dup1\n      0x862d1b35\n      eq\n      tag_26\n      jumpi\n      jump(tag_1)\n    tag_43:\n      dup1\n      0x26ae486e\n      gt\n      tag_47\n      jumpi\n      dup1\n      0x3c6eb17a\n      gt\n      tag_48\n      jumpi\n      dup1\n      0x3c6eb17a\n      eq\n      tag_17\n      jumpi\n      dup1\n      0x43d32e9c\n      eq\n      tag_18\n      jumpi\n      dup1\n      0x64ce07d8\n      eq\n      tag_19\n      jumpi\n      dup1\n      0x67b48c91\n      eq\n      tag_20\n      jumpi\n      dup1\n      0x67e927a8\n      eq\n      tag_21\n      jumpi\n      jump(tag_1)\n    tag_48:\n      dup1\n      0x26ae486e\n      eq\n      tag_12\n      jumpi\n      dup1\n      0x29982a32\n      eq\n      tag_13\n      jumpi\n      dup1\n      0x2a9f0fb1\n      eq\n      tag_14\n      jumpi\n      dup1\n      0x35453307\n      eq\n      tag_15\n      jumpi\n      dup1\n      0x39ad95d6\n      eq\n      tag_16\n      jumpi\n      jump(tag_1)\n    tag_47:\n      dup1\n      0x1514c976\n      gt\n      tag_49\n      jumpi\n      dup1\n      0x1514c976\n      eq\n      tag_7\n      jumpi\n      dup1\n      0x164c8501\n      eq\n      tag_8\n      jumpi\n      dup1\n      0x1a30e872\n      eq\n      tag_9\n      jumpi\n      dup1\n      0x1bc9cc45\n      eq\n      tag_10\n      jumpi\n      dup1\n      0x1f564a06\n      eq\n      tag_11\n      jumpi\n      jump(tag_1)\n    tag_49:\n      dup1\n      0x018a25e8\n      eq\n      tag_2\n      jumpi\n      dup1\n      0x047729b0\n      eq\n      tag_3\n      jumpi\n      dup1\n      0x0ccaf04f\n      eq\n      tag_4\n      jumpi\n      dup1\n      0x0f65de3e\n      eq\n      tag_5\n      jumpi\n      dup1\n      0x12b2ed94\n      eq\n      tag_6\n      jumpi\n    tag_1:\n      0x00\n      dup1\n      revert\n        /* \"WandInstruments.sol\":11380:11654  function getBuyPrice() external view returns (uint256){\r... */\n    tag_2:\n      callvalue\n      dup1\n      iszero\n      tag_50\n      jumpi\n      0x00\n      dup1\n      revert\n    tag_50:\n      pop\n      tag_51\n      tag_52\n      jump\t// in\n    tag_51:\n      mload(0x40)\n      tag_53\n      swap2\n      swap1\n      tag_54\n      jump\t// in\n    tag_53:\n      mload(0x40)\n      dup1\n      swap2\n      sub\n      swap1\n      return\n        /* \"WandInstruments.sol\":622:653  address public riskTreasuryAddr */\n    tag_3:\n      callvalue\n      dup1\n      iszero\n      tag_55\n      jumpi\n      0x00\n      dup1\n      revert\n    tag_55:\n      pop\n      tag_56\n      tag_57\n      jump\t// in\n    tag_56:\n      mload(0x40)\n      tag_58\n      swap2\n      swap1\n      tag_59\n      jump\t// in\n    tag_58:\n      mload(0x40)\n      dup1\n      swap2\n      sub\n      swap1\n      return\n        /* \"WandInstruments.sol\":10261:11156  function getSellFactor() external view returns (uint256){\r... */\n    tag_4:\n      callvalue\n      dup1\n      iszero\n      tag_60\n      jumpi\n      0x00\n      dup1\n      revert\n    tag_60:\n      pop\n      tag_61\n      tag_62\n      jump\t// in\n    tag_61:\n      mload(0x40)\n      tag_63\n      swap2\n      swap1\n      tag_54\n      jump\t// in\n    tag_63:\n      mload(0x40)\n      dup1\n      swap2\n      sub\n      swap1\n      return\n        /* \"WandInstruments.sol\":14139:14208  function getCircSupplyXDays() external view returns (uint256){\r... */\n    tag_5:\n      callvalue\n      dup1\n      iszero\n      tag_64\n      jumpi\n      0x00\n      dup1\n      revert\n    tag_64:\n      pop\n      tag_65\n      tag_66\n      jump\t// in\n    tag_65:\n      mload(0x40)\n      tag_67\n      swap2\n      swap1\n      tag_54\n      jump\t// in\n    tag_67:\n      mload(0x40)\n      dup1\n      swap2\n      sub\n      swap1\n      return\n        /* \"WandInstruments.sol\":1993:2053  mapping(address => lockedamounts) public withheldWithdrawals */\n    tag_6:\n      callvalue\n      dup1\n      iszero\n      tag_68\n      jumpi\n      0x00\n      dup1\n      revert\n    tag_68:\n      pop\n      tag_69\n      0x04\n      dup1\n      calldatasize\n      sub\n      dup2\n      add\n      swap1\n      tag_70\n      swap2\n      swap1\n      tag_71\n      jump\t// in\n    tag_70:\n      tag_72\n      jump\t// in\n    tag_69:\n      mload(0x40)\n      tag_73\n      swap3\n      swap2\n      swap1\n      tag_74\n      jump\t// in\n    tag_73:\n      mload(0x40)\n      dup1\n      swap2\n      sub\n      swap1\n      return\n        /* \"WandInstruments.sol\":1576:1626  mapping(uint256 => uint256) public tokensSoldXDays */\n    tag_7:\n      callvalue\n      dup1\n      iszero\n      tag_75\n      jumpi\n      0x00\n      dup1\n      revert\n    tag_75:\n      pop\n      tag_76\n      0x04\n      dup1\n      calldatasize\n      sub\n      dup2\n      add\n      swap1\n      tag_77\n      swap2\n      swap1\n      tag_78\n      jump\t// in\n    tag_77:\n      tag_79\n      jump\t// in\n    tag_76:\n      mload(0x40)\n      tag_80\n      swap2\n      swap1\n      tag_54\n      jump\t// in\n    tag_80:\n      mload(0x40)\n      dup1\n      swap2\n      sub\n      swap1\n      return\n        /* \"WandInstruments.sol\":12700:13202  function testUpdatetimeLockedminus(uint256 amt) public  {\r... */\n    tag_8:\n      callvalue\n      dup1\n      iszero\n      tag_81\n      jumpi\n      0x00\n      dup1\n      revert\n    tag_81:\n      pop\n      tag_82\n      0x04\n      dup1\n      calldatasize\n      sub\n      dup2\n      add\n      swap1\n      tag_83\n      swap2\n      swap1\n      tag_78\n      jump\t// in\n    tag_83:\n      tag_84\n      jump\t// in\n    tag_82:\n      stop\n        /* \"WandInstruments.sol\":1633:1690  mapping(uint256 => uint256) public circulatingSupplyXDays */\n    tag_9:\n      callvalue\n      dup1\n      iszero\n      tag_85\n      jumpi\n      0x00\n      dup1\n      revert\n    tag_85:\n      pop\n      tag_86\n      0x04\n      dup1\n      calldatasize\n      sub\n      dup2\n      add\n      swap1\n      tag_87\n      swap2\n      swap1\n      tag_78\n      jump\t// in\n    tag_87:\n      tag_88\n      jump\t// in\n    tag_86:\n      mload(0x40)\n      tag_89\n      swap2\n      swap1\n      tag_54\n      jump\t// in\n    tag_89:\n      mload(0x40)\n      dup1\n      swap2\n      sub\n      swap1\n      return\n        /* \"WandInstruments.sol\":6827:7572  function transformScepterToBaton(uint256 amountSCPtoSwap) public payable{\r... */\n    tag_10:\n      tag_90\n      0x04\n      dup1\n      calldatasize\n      sub\n      dup2\n      add\n      swap1\n      tag_91\n      swap2\n      swap1\n      tag_78\n      jump\t// in\n    tag_91:\n      tag_92\n      jump\t// in\n    tag_90:\n      stop\n        /* \"WandInstruments.sol\":11162:11374  function getBackingPrice() external view returns (uint256){\r... */\n    tag_11:\n      callvalue\n      dup1\n      iszero\n      tag_93\n      jumpi\n      0x00\n      dup1\n      revert\n    tag_93:\n      pop\n      tag_94\n      tag_95\n      jump\t// in\n    tag_94:\n      mload(0x40)\n      tag_96\n      swap2\n      swap1\n      tag_54\n      jump\t// in\n    tag_96:\n      mload(0x40)\n      dup1\n      swap2\n      sub\n      swap1\n      return\n        /* \"WandInstruments.sol\":1357:1375  IERC20 public SPTR */\n    tag_12:\n      callvalue\n      dup1\n      iszero\n      tag_97\n      jumpi\n      0x00\n      dup1\n      revert\n    tag_97:\n      pop\n      tag_98\n      tag_99\n      jump\t// in\n    tag_98:\n      mload(0x40)\n      tag_100\n      swap2\n      swap1\n      tag_101\n      jump\t// in\n    tag_100:\n      mload(0x40)\n      dup1\n      swap2\n      sub\n      swap1\n      return\n        /* \"WandInstruments.sol\":660:688  address public devWalletAddr */\n    tag_13:\n      callvalue\n      dup1\n      iszero\n      tag_102\n      jumpi\n      0x00\n      dup1\n      revert\n    tag_102:\n      pop\n      tag_103\n      tag_104\n      jump\t// in\n    tag_103:\n      mload(0x40)\n      tag_105\n      swap2\n      swap1\n      tag_59\n      jump\t// in\n    tag_105:\n      mload(0x40)\n      dup1\n      swap2\n      sub\n      swap1\n      return\n        /* \"WandInstruments.sol\":1517:1569  mapping(uint256 => uint256) public tokensBoughtXDays */\n    tag_14:\n      callvalue\n      dup1\n      iszero\n      tag_106\n      jumpi\n      0x00\n      dup1\n      revert\n    tag_106:\n      pop\n      tag_107\n      0x04\n      dup1\n      calldatasize\n      sub\n      dup2\n      add\n      swap1\n      tag_108\n      swap2\n      swap1\n      tag_78\n      jump\t// in\n    tag_108:\n      tag_109\n      jump\t// in\n    tag_107:\n      mload(0x40)\n      tag_110\n      swap2\n      swap1\n      tag_54\n      jump\t// in\n    tag_110:\n      mload(0x40)\n      dup1\n      swap2\n      sub\n      swap1\n      return\n        /* \"WandInstruments.sol\":729:775  uint256 public treasury1bal = 50000*(DECIMALS) */\n    tag_15:\n      callvalue\n      dup1\n      iszero\n      tag_111\n      jumpi\n      0x00\n      dup1\n      revert\n    tag_111:\n      pop\n      tag_112\n      tag_113\n      jump\t// in\n    tag_112:\n      mload(0x40)\n      tag_114\n      swap2\n      swap1\n      tag_54\n      jump\t// in\n    tag_114:\n      mload(0x40)\n      dup1\n      swap2\n      sub\n      swap1\n      return\n        /* \"WandInstruments.sol\":12132:12208  function withdrawStables(uint256 _amtToWithdraw) public onlyOwner {\r... */\n    tag_16:\n      callvalue\n      dup1\n      iszero\n      tag_115\n      jumpi\n      0x00\n      dup1\n      revert\n    tag_115:\n      pop\n      tag_116\n      0x04\n      dup1\n      calldatasize\n      sub\n      dup2\n      add\n      swap1\n      tag_117\n      swap2\n      swap1\n      tag_78\n      jump\t// in\n    tag_117:\n      tag_118\n      jump\t// in\n    tag_116:\n      stop\n        /* \"WandInstruments.sol\":804:831  uint256 public timeLaunched */\n    tag_17:\n      callvalue\n      dup1\n      iszero\n      tag_119\n      jumpi\n      0x00\n      dup1\n      revert\n    tag_119:\n      pop\n      tag_120\n      tag_121\n      jump\t// in\n    tag_120:\n      mload(0x40)\n      tag_122\n      swap2\n      swap1\n      tag_54\n      jump\t// in\n    tag_122:\n      mload(0x40)\n      dup1\n      swap2\n      sub\n      swap1\n      return\n        /* \"WandInstruments.sol\":11660:11933  function getSellPrice() external view returns (uint256){\r... */\n    tag_18:\n      callvalue\n      dup1\n      iszero\n      tag_123\n      jumpi\n      0x00\n      dup1\n      revert\n    tag_123:\n      pop\n      tag_124\n      tag_125\n      jump\t// in\n    tag_124:\n      mload(0x40)\n      tag_126\n      swap2\n      swap1\n      tag_54\n      jump\t// in\n    tag_126:\n      mload(0x40)\n      dup1\n      swap2\n      sub\n      swap1\n      return\n        /* \"WandInstruments.sol\":4559:4738  function decDiv18(uint x, uint y) public pure returns (uint decQuotient) {\r... */\n    tag_19:\n      callvalue\n      dup1\n      iszero\n      tag_127\n      jumpi\n      0x00\n      dup1\n      revert\n    tag_127:\n      pop\n      tag_128\n      0x04\n      dup1\n      calldatasize\n      sub\n      dup2\n      add\n      swap1\n      tag_129\n      swap2\n      swap1\n      tag_130\n      jump\t// in\n    tag_129:\n      tag_131\n      jump\t// in\n    tag_128:\n      mload(0x40)\n      tag_132\n      swap2\n      swap1\n      tag_54\n      jump\t// in\n    tag_132:\n      mload(0x40)\n      dup1\n      swap2\n      sub\n      swap1\n      return\n        /* \"WandInstruments.sol\":838:870  uint256 public daysInCalculation */\n    tag_20:\n      callvalue\n      dup1\n      iszero\n      tag_133\n      jumpi\n      0x00\n      dup1\n      revert\n    tag_133:\n      pop\n      tag_134\n      tag_135\n      jump\t// in\n    tag_134:\n      mload(0x40)\n      tag_136\n      swap2\n      swap1\n      tag_54\n      jump\t// in\n    tag_136:\n      mload(0x40)\n      dup1\n      swap2\n      sub\n      swap1\n      return\n        /* \"WandInstruments.sol\":12216:12688  function testUpdatetimeLockedplus(uint256 amt) public  {\r... */\n    tag_21:\n      callvalue\n      dup1\n      iszero\n      tag_137\n      jumpi\n      0x00\n      dup1\n      revert\n    tag_137:\n      pop\n      tag_138\n      0x04\n      dup1\n      calldatasize\n      sub\n      dup2\n      add\n      swap1\n      tag_139\n      swap2\n      swap1\n      tag_78\n      jump\t// in\n    tag_139:\n      tag_140\n      jump\t// in\n    tag_138:\n      stop\n        /* \"WandInstruments.sol\":1311:1328  IERC20 public tSC */\n    tag_22:\n      callvalue\n      dup1\n      iszero\n      tag_141\n      jumpi\n      0x00\n      dup1\n      revert\n    tag_141:\n      pop\n      tag_142\n      tag_143\n      jump\t// in\n    tag_142:\n      mload(0x40)\n      tag_144\n      swap2\n      swap1\n      tag_101\n      jump\t// in\n    tag_144:\n      mload(0x40)\n      dup1\n      swap2\n      sub\n      swap1\n      return\n        /* \"WandInstruments.sol\":1089:1106  int128 public res */\n    tag_23:\n      callvalue\n      dup1\n      iszero\n      tag_145\n      jumpi\n      0x00\n      dup1\n      revert\n    tag_145:\n      pop\n      tag_146\n      tag_147\n      jump\t// in\n    tag_146:\n      mload(0x40)\n      tag_148\n      swap2\n      swap1\n      tag_149\n      jump\t// in\n    tag_148:\n      mload(0x40)\n      dup1\n      swap2\n      sub\n      swap1\n      return\n        /* \"WandInstruments.sol\":1434:1459  IERC20 public tokenStable */\n    tag_24:\n      callvalue\n      dup1\n      iszero\n      tag_150\n      jumpi\n      0x00\n      dup1\n      revert\n    tag_150:\n      pop\n      tag_151\n      tag_152\n      jump\t// in\n    tag_151:\n      mload(0x40)\n      tag_153\n      swap2\n      swap1\n      tag_101\n      jump\t// in\n    tag_153:\n      mload(0x40)\n      dup1\n      swap2\n      sub\n      swap1\n      return\n        /* \"WandInstruments.sol\":13313:13841  function getTokensBoughtXDays() external view returns (uint256){\r... */\n    tag_25:\n      callvalue\n      dup1\n      iszero\n      tag_154\n      jumpi\n      0x00\n      dup1\n      revert\n    tag_154:\n      pop\n      tag_155\n      tag_156\n      jump\t// in\n    tag_155:\n      mload(0x40)\n      tag_157\n      swap2\n      swap1\n      tag_54\n      jump\t// in\n    tag_157:\n      mload(0x40)\n      dup1\n      swap2\n      sub\n      swap1\n      return\n        /* \"WandInstruments.sol\":7587:8804  function buyScepter(uint256 amountSCPtoBuy, string memory _stableChosen) public {\r... */\n    tag_26:\n      callvalue\n      dup1\n      iszero\n      tag_158\n      jumpi\n      0x00\n      dup1\n      revert\n    tag_158:\n      pop\n      tag_159\n      0x04\n      dup1\n      calldatasize\n      sub\n      dup2\n      add\n      swap1\n      tag_160\n      swap2\n      swap1\n      tag_161\n      jump\t// in\n    tag_160:\n      tag_162\n      jump\t// in\n    tag_159:\n      stop\n        /* \"WandInstruments.sol\":9352:10255  function getGrowthFactor() external view returns (uint256){\r... */\n    tag_27:\n      callvalue\n      dup1\n      iszero\n      tag_163\n      jumpi\n      0x00\n      dup1\n      revert\n    tag_163:\n      pop\n      tag_164\n      tag_165\n      jump\t// in\n    tag_164:\n      mload(0x40)\n      tag_166\n      swap2\n      swap1\n      tag_54\n      jump\t// in\n    tag_166:\n      mload(0x40)\n      dup1\n      swap2\n      sub\n      swap1\n      return\n        /* \"WandInstruments.sol\":14216:14305  function whitelist(address _addr) public onlyOwner {  \r... */\n    tag_28:\n      callvalue\n      dup1\n      iszero\n      tag_167\n      jumpi\n      0x00\n      dup1\n      revert\n    tag_167:\n      pop\n      tag_168\n      0x04\n      dup1\n      calldatasize\n      sub\n      dup2\n      add\n      swap1\n      tag_169\n      swap2\n      swap1\n      tag_71\n      jump\t// in\n    tag_169:\n      tag_170\n      jump\t// in\n    tag_168:\n      stop\n        /* \"WandInstruments.sol\":1821:1882  mapping (string => stableTokensParams) public stableERC20Info */\n    tag_29:\n      callvalue\n      dup1\n      iszero\n      tag_171\n      jumpi\n      0x00\n      dup1\n      revert\n    tag_171:\n      pop\n      tag_172\n      0x04\n      dup1\n      calldatasize\n      sub\n      dup2\n      add\n      swap1\n      tag_173\n      swap2\n      swap1\n      tag_174\n      jump\t// in\n    tag_173:\n      tag_175\n      jump\t// in\n    tag_172:\n      mload(0x40)\n      tag_176\n      swap3\n      swap2\n      swap1\n      tag_177\n      jump\t// in\n    tag_176:\n      mload(0x40)\n      dup1\n      swap2\n      sub\n      swap1\n      return\n        /* \"WandInstruments.sol\":8812:9319  function claimLockedUSDC(address _claimant, string memory _stableChosen) public {\r... */\n    tag_30:\n      callvalue\n      dup1\n      iszero\n      tag_178\n      jumpi\n      0x00\n      dup1\n      revert\n    tag_178:\n      pop\n      tag_179\n      0x04\n      dup1\n      calldatasize\n      sub\n      dup2\n      add\n      swap1\n      tag_180\n      swap2\n      swap1\n      tag_181\n      jump\t// in\n    tag_180:\n      tag_182\n      jump\t// in\n    tag_179:\n      stop\n        /* \"WandInstruments.sol\":581:615  address public scepterTreasuryAddr */\n    tag_31:\n      callvalue\n      dup1\n      iszero\n      tag_183\n      jumpi\n      0x00\n      dup1\n      revert\n    tag_183:\n      pop\n      tag_184\n      tag_185\n      jump\t// in\n    tag_184:\n      mload(0x40)\n      tag_186\n      swap2\n      swap1\n      tag_59\n      jump\t// in\n    tag_186:\n      mload(0x40)\n      dup1\n      swap2\n      sub\n      swap1\n      return\n        /* \"WandInstruments.sol\":1407:1425  IERC20 public BTON */\n    tag_32:\n      callvalue\n      dup1\n      iszero\n      tag_187\n      jumpi\n      0x00\n      dup1\n      revert\n    tag_187:\n      pop\n      tag_188\n      tag_189\n      jump\t// in\n    tag_188:\n      mload(0x40)\n      tag_190\n      swap2\n      swap1\n      tag_101\n      jump\t// in\n    tag_190:\n      mload(0x40)\n      dup1\n      swap2\n      sub\n      swap1\n      return\n        /* \"WandInstruments.sol\":5095:6819  function cashOutScepter(uint256 amountSCPtoSell, uint256 timeChosenLocked, string memory _stableChosen) public payable{\r... */\n    tag_33:\n      tag_191\n      0x04\n      dup1\n      calldatasize\n      sub\n      dup2\n      add\n      swap1\n      tag_192\n      swap2\n      swap1\n      tag_193\n      jump\t// in\n    tag_192:\n      tag_194\n      jump\t// in\n    tag_191:\n      stop\n        /* \"WandInstruments.sol\":332:357  uint256 public sellFactor */\n    tag_34:\n      callvalue\n      dup1\n      iszero\n      tag_195\n      jumpi\n      0x00\n      dup1\n      revert\n    tag_195:\n      pop\n      tag_196\n      tag_197\n      jump\t// in\n    tag_196:\n      mload(0x40)\n      tag_198\n      swap2\n      swap1\n      tag_54\n      jump\t// in\n    tag_198:\n      mload(0x40)\n      dup1\n      swap2\n      sub\n      swap1\n      return\n        /* \"WandInstruments.sol\":1382:1400  IERC20 public WAND */\n    tag_35:\n      callvalue\n      dup1\n      iszero\n      tag_199\n      jumpi\n      0x00\n      dup1\n      revert\n    tag_199:\n      pop\n      tag_200\n      tag_201\n      jump\t// in\n    tag_200:\n      mload(0x40)\n      tag_202\n      swap2\n      swap1\n      tag_101\n      jump\t// in\n    tag_202:\n      mload(0x40)\n      dup1\n      swap2\n      sub\n      swap1\n      return\n        /* \"WandInstruments.sol\":13847:14133  function getTokensSoldXDays() external view returns (uint256){\r... */\n    tag_36:\n      callvalue\n      dup1\n      iszero\n      tag_203\n      jumpi\n      0x00\n      dup1\n      revert\n    tag_203:\n      pop\n      tag_204\n      tag_205\n      jump\t// in\n    tag_204:\n      mload(0x40)\n      tag_206\n      swap2\n      swap1\n      tag_54\n      jump\t// in\n    tag_206:\n      mload(0x40)\n      dup1\n      swap2\n      sub\n      swap1\n      return\n        /* \"WandInstruments.sol\":14313:14532  function addStable(string memory _ticker, address _addr, uint256 _dec) public onlyOwner {\r... */\n    tag_37:\n      callvalue\n      dup1\n      iszero\n      tag_207\n      jumpi\n      0x00\n      dup1\n      revert\n    tag_207:\n      pop\n      tag_208\n      0x04\n      dup1\n      calldatasize\n      sub\n      dup2\n      add\n      swap1\n      tag_209\n      swap2\n      swap1\n      tag_210\n      jump\t// in\n    tag_209:\n      tag_211\n      jump\t// in\n    tag_208:\n      stop\n        /* \"WandInstruments.sol\":298:325  uint256 public growthFactor */\n    tag_38:\n      callvalue\n      dup1\n      iszero\n      tag_212\n      jumpi\n      0x00\n      dup1\n      revert\n    tag_212:\n      pop\n      tag_213\n      tag_214\n      jump\t// in\n    tag_213:\n      mload(0x40)\n      tag_215\n      swap2\n      swap1\n      tag_54\n      jump\t// in\n    tag_215:\n      mload(0x40)\n      dup1\n      swap2\n      sub\n      swap1\n      return\n        /* \"WandInstruments.sol\":1113:1183  address public testwallet = 0x617F2E2fD72FD9D5503197092aC168c91465E7f2 */\n    tag_39:\n      callvalue\n      dup1\n      iszero\n      tag_216\n      jumpi\n      0x00\n      dup1\n      revert\n    tag_216:\n      pop\n      tag_217\n      tag_218\n      jump\t// in\n    tag_217:\n      mload(0x40)\n      tag_219\n      swap2\n      swap1\n      tag_59\n      jump\t// in\n    tag_219:\n      mload(0x40)\n      dup1\n      swap2\n      sub\n      swap1\n      return\n        /* \"WandInstruments.sol\":4381:4551  function decMul18(uint x, uint y) public pure returns (uint decProd) {\r... */\n    tag_40:\n      callvalue\n      dup1\n      iszero\n      tag_220\n      jumpi\n      0x00\n      dup1\n      revert\n    tag_220:\n      pop\n      tag_221\n      0x04\n      dup1\n      calldatasize\n      sub\n      dup2\n      add\n      swap1\n      tag_222\n      swap2\n      swap1\n      tag_130\n      jump\t// in\n    tag_222:\n      tag_223\n      jump\t// in\n    tag_221:\n      mload(0x40)\n      tag_224\n      swap2\n      swap1\n      tag_54\n      jump\t// in\n    tag_224:\n      mload(0x40)\n      dup1\n      swap2\n      sub\n      swap1\n      return\n        /* \"WandInstruments.sol\":546:574  address public treasury1Addr */\n    tag_41:\n      callvalue\n      dup1\n      iszero\n      tag_225\n      jumpi\n      0x00\n      dup1\n      revert\n    tag_225:\n      pop\n      tag_226\n      tag_227\n      jump\t// in\n    tag_226:\n      mload(0x40)\n      tag_228\n      swap2\n      swap1\n      tag_59\n      jump\t// in\n    tag_228:\n      mload(0x40)\n      dup1\n      swap2\n      sub\n      swap1\n      return\n        /* \"WandInstruments.sol\":11964:12120  function setDaysUsedInFactors(uint256 numDays) public {  \r... */\n    tag_42:\n      callvalue\n      dup1\n      iszero\n      tag_229\n      jumpi\n      0x00\n      dup1\n      revert\n    tag_229:\n      pop\n      tag_230\n      0x04\n      dup1\n      calldatasize\n      sub\n      dup2\n      add\n      swap1\n      tag_231\n      swap2\n      swap1\n      tag_78\n      jump\t// in\n    tag_231:\n      tag_232\n      jump\t// in\n    tag_230:\n      stop\n        /* \"WandInstruments.sol\":11380:11654  function getBuyPrice() external view returns (uint256){\r... */\n    tag_52:\n        /* \"WandInstruments.sol\":11426:11433  uint256 */\n      0x00\n        /* \"WandInstruments.sol\":11563:11644  decMul18(this.getBackingPrice() , (1200000000000000000 + this.getGrowthFactor())) */\n      tag_234\n        /* \"WandInstruments.sol\":11572:11576  this */\n      address\n        /* \"WandInstruments.sol\":11572:11592  this.getBackingPrice */\n      0xffffffffffffffffffffffffffffffffffffffff\n      and\n      0x1f564a06\n        /* \"WandInstruments.sol\":11572:11594  this.getBackingPrice() */\n      mload(0x40)\n      dup2\n      0xffffffff\n      and\n      0xe0\n      shl\n      dup2\n      mstore\n      0x04\n      add\n      0x20\n      mload(0x40)\n      dup1\n      dup4\n      sub\n      dup2\n      dup7\n      dup1\n      extcodesize\n      iszero\n      dup1\n      iszero\n      tag_235\n      jumpi\n      0x00\n      dup1\n      revert\n    tag_235:\n      pop\n      gas\n      staticcall\n      iszero\n      dup1\n      iszero\n      tag_237\n      jumpi\n      returndatasize\n      0x00\n      dup1\n      returndatacopy\n      revert(0x00, returndatasize)\n    tag_237:\n      pop\n      pop\n      pop\n      pop\n      mload(0x40)\n      returndatasize\n      not(0x1f)\n      0x1f\n      dup3\n      add\n      and\n      dup3\n      add\n      dup1\n      0x40\n      mstore\n      pop\n      dup2\n      add\n      swap1\n      tag_238\n      swap2\n      swap1\n      tag_239\n      jump\t// in\n    tag_238:\n        /* \"WandInstruments.sol\":11620:11624  this */\n      address\n        /* \"WandInstruments.sol\":11620:11640  this.getGrowthFactor */\n      0xffffffffffffffffffffffffffffffffffffffff\n      and\n      0x93f7b711\n        /* \"WandInstruments.sol\":11620:11642  this.getGrowthFactor() */\n      mload(0x40)\n      dup2\n      0xffffffff\n      and\n      0xe0\n      shl\n      dup2\n      mstore\n      0x04\n      add\n      0x20\n      mload(0x40)\n      dup1\n      dup4\n      sub\n      dup2\n      dup7\n      dup1\n      extcodesize\n      iszero\n      dup1\n      iszero\n      tag_240\n      jumpi\n      0x00\n      dup1\n      revert\n    tag_240:\n      pop\n      gas\n      staticcall\n      iszero\n      dup1\n      iszero\n      tag_242\n      jumpi\n      returndatasize\n      0x00\n      dup1\n      returndatacopy\n      revert(0x00, returndatasize)\n    tag_242:\n      pop\n      pop\n      pop\n      pop\n      mload(0x40)\n      returndatasize\n      not(0x1f)\n      0x1f\n      dup3\n      add\n      and\n      dup3\n      add\n      dup1\n      0x40\n      mstore\n      pop\n      dup2\n      add\n      swap1\n      tag_243\n      swap2\n      swap1\n      tag_239\n      jump\t// in\n    tag_243:\n        /* \"WandInstruments.sol\":11598:11617  1200000000000000000 */\n      0x10a741a462780000\n        /* \"WandInstruments.sol\":11598:11642  1200000000000000000 + this.getGrowthFactor() */\n      tag_244\n      swap2\n      swap1\n      tag_245\n      jump\t// in\n    tag_244:\n        /* \"WandInstruments.sol\":11563:11571  decMul18 */\n      tag_223\n        /* \"WandInstruments.sol\":11563:11644  decMul18(this.getBackingPrice() , (1200000000000000000 + this.getGrowthFactor())) */\n      jump\t// in\n    tag_234:\n        /* \"WandInstruments.sol\":11556:11644  return decMul18(this.getBackingPrice() , (1200000000000000000 + this.getGrowthFactor())) */\n      swap1\n      pop\n        /* \"WandInstruments.sol\":11380:11654  function getBuyPrice() external view returns (uint256){\r... */\n      swap1\n      jump\t// out\n        /* \"WandInstruments.sol\":622:653  address public riskTreasuryAddr */\n    tag_57:\n      0x08\n      0x00\n      swap1\n      sload\n      swap1\n      0x0100\n      exp\n      swap1\n      div\n      0xffffffffffffffffffffffffffffffffffffffff\n      and\n      dup2\n      jump\t// out\n        /* \"WandInstruments.sol\":10261:11156  function getSellFactor() external view returns (uint256){\r... */\n    tag_62:\n        /* \"WandInstruments.sol\":10309:10316  uint256 */\n      0x00\n        /* \"WandInstruments.sol\":10462:10473  uint256 _sF */\n      dup1\n        /* \"WandInstruments.sol\":10485:10508  uint256 xDaysCircSupply */\n      0x00\n        /* \"WandInstruments.sol\":10519:10534  uint256 numdays */\n      dup1\n        /* \"WandInstruments.sol\":10555:10560  86400 */\n      0x015180\n        /* \"WandInstruments.sol\":10537:10554  daysInCalculation */\n      sload(0x0c)\n        /* \"WandInstruments.sol\":10537:10560  daysInCalculation/86400 */\n      tag_247\n      swap2\n      swap1\n      tag_248\n      jump\t// in\n    tag_247:\n        /* \"WandInstruments.sol\":10519:10560  uint256 numdays = daysInCalculation/86400 */\n      swap1\n      pop\n        /* \"WandInstruments.sol\":10571:10595  uint256 daySinceLaunched */\n      0x00\n        /* \"WandInstruments.sol\":10633:10638  86400 */\n      0x015180\n        /* \"WandInstruments.sol\":10617:10629  timeLaunched */\n      sload(0x0b)\n        /* \"WandInstruments.sol\":10599:10614  block.timestamp */\n      timestamp\n        /* \"WandInstruments.sol\":10599:10629  block.timestamp - timeLaunched */\n      tag_249\n      swap2\n      swap1\n      tag_250\n      jump\t// in\n    tag_249:\n        /* \"WandInstruments.sol\":10598:10638  (block.timestamp - timeLaunched) / 86400 */\n      tag_251\n      swap2\n      swap1\n      tag_248\n      jump\t// in\n    tag_251:\n        /* \"WandInstruments.sol\":10571:10638  uint256 daySinceLaunched = (block.timestamp - timeLaunched) / 86400 */\n      swap1\n      pop\n        /* \"WandInstruments.sol\":10649:10658  uint256 d */\n      0x00\n        /* \"WandInstruments.sol\":10695:10696  0 */\n      dup1\n        /* \"WandInstruments.sol\":10675:10691  daySinceLaunched */\n      dup3\n        /* \"WandInstruments.sol\":10675:10696  daySinceLaunched == 0 */\n      eq\n        /* \"WandInstruments.sol\":10671:10963  if (daySinceLaunched == 0) {\r... */\n      iszero\n      tag_252\n      jumpi\n        /* \"WandInstruments.sol\":10727:10749  circulatingSupplyXDays */\n      0x19\n        /* \"WandInstruments.sol\":10727:10752  circulatingSupplyXDays[0] */\n      0x00\n        /* \"WandInstruments.sol\":10750:10751  0 */\n      dup1\n        /* \"WandInstruments.sol\":10727:10752  circulatingSupplyXDays[0] */\n      dup2\n      mstore\n      0x20\n      add\n      swap1\n      dup2\n      mstore\n      0x20\n      add\n      0x00\n      keccak256\n      sload\n        /* \"WandInstruments.sol\":10709:10752  xDaysCircSupply = circulatingSupplyXDays[0] */\n      swap4\n      pop\n        /* \"WandInstruments.sol\":10671:10963  if (daySinceLaunched == 0) {\r... */\n      jump(tag_253)\n    tag_252:\n        /* \"WandInstruments.sol\":10821:10828  numdays */\n      dup3\n        /* \"WandInstruments.sol\":10802:10818  daySinceLaunched */\n      dup3\n        /* \"WandInstruments.sol\":10802:10828  daySinceLaunched - numdays */\n      tag_257\n      swap2\n      swap1\n      tag_250\n      jump\t// in\n    tag_257:\n        /* \"WandInstruments.sol\":10798:10828  d = daySinceLaunched - numdays */\n      swap1\n      pop\n        /* \"WandInstruments.sol\":10793:10952  for (d = daySinceLaunched - numdays; d < daySinceLaunched; d++) {  //for loop example\r... */\n    tag_254:\n        /* \"WandInstruments.sol\":10834:10850  daySinceLaunched */\n      dup2\n        /* \"WandInstruments.sol\":10830:10831  d */\n      dup2\n        /* \"WandInstruments.sol\":10830:10850  d < daySinceLaunched */\n      lt\n        /* \"WandInstruments.sol\":10793:10952  for (d = daySinceLaunched - numdays; d < daySinceLaunched; d++) {  //for loop example\r... */\n      iszero\n      tag_255\n      jumpi\n        /* \"WandInstruments.sol\":10911:10933  circulatingSupplyXDays */\n      0x19\n        /* \"WandInstruments.sol\":10911:10936  circulatingSupplyXDays[d] */\n      0x00\n        /* \"WandInstruments.sol\":10934:10935  d */\n      dup3\n        /* \"WandInstruments.sol\":10911:10936  circulatingSupplyXDays[d] */\n      dup2\n      mstore\n      0x20\n      add\n      swap1\n      dup2\n      mstore\n      0x20\n      add\n      0x00\n      keccak256\n      sload\n        /* \"WandInstruments.sol\":10892:10936  xDaysCircSupply += circulatingSupplyXDays[d] */\n      dup5\n      tag_258\n      swap2\n      swap1\n      tag_245\n      jump\t// in\n    tag_258:\n      swap4\n      pop\n        /* \"WandInstruments.sol\":10852:10855  d++ */\n      dup1\n      dup1\n      tag_259\n      swap1\n      tag_260\n      jump\t// in\n    tag_259:\n      swap2\n      pop\n      pop\n        /* \"WandInstruments.sol\":10793:10952  for (d = daySinceLaunched - numdays; d < daySinceLaunched; d++) {  //for loop example\r... */\n      jump(tag_254)\n    tag_255:\n        /* \"WandInstruments.sol\":10671:10963  if (daySinceLaunched == 0) {\r... */\n    tag_253:\n        /* \"WandInstruments.sol\":10980:11031  decDiv18(this.getTokensSoldXDays(),xDaysCircSupply) */\n      tag_261\n        /* \"WandInstruments.sol\":10989:10993  this */\n      address\n        /* \"WandInstruments.sol\":10989:11012  this.getTokensSoldXDays */\n      0xffffffffffffffffffffffffffffffffffffffff\n      and\n      0xd82eddf2\n        /* \"WandInstruments.sol\":10989:11014  this.getTokensSoldXDays() */\n      mload(0x40)\n      dup2\n      0xffffffff\n      and\n      0xe0\n      shl\n      dup2\n      mstore\n      0x04\n      add\n      0x20\n      mload(0x40)\n      dup1\n      dup4\n      sub\n      dup2\n      dup7\n      dup1\n      extcodesize\n      iszero\n      dup1\n      iszero\n      tag_262\n      jumpi\n      0x00\n      dup1\n      revert\n    tag_262:\n      pop\n      gas\n      staticcall\n      iszero\n      dup1\n      iszero\n      tag_264\n      jumpi\n      returndatasize\n      0x00\n      dup1\n      returndatacopy\n      revert(0x00, returndatasize)\n    tag_264:\n      pop\n      pop\n      pop\n      pop\n      mload(0x40)\n      returndatasize\n      not(0x1f)\n      0x1f\n      dup3\n      add\n      and\n      dup3\n      add\n      dup1\n      0x40\n      mstore\n      pop\n      dup2\n      add\n      swap1\n      tag_265\n      swap2\n      swap1\n      tag_239\n      jump\t// in\n    tag_265:\n        /* \"WandInstruments.sol\":11015:11030  xDaysCircSupply */\n      dup6\n        /* \"WandInstruments.sol\":10980:10988  decDiv18 */\n      tag_131\n        /* \"WandInstruments.sol\":10980:11031  decDiv18(this.getTokensSoldXDays(),xDaysCircSupply) */\n      jump\t// in\n    tag_261:\n        /* \"WandInstruments.sol\":10974:11031  _sF = decDiv18(this.getTokensSoldXDays(),xDaysCircSupply) */\n      swap5\n      pop\n        /* \"WandInstruments.sol\":11051:11069  300000000000000000 */\n      0x0429d069189e0000\n        /* \"WandInstruments.sol\":11045:11048  _sF */\n      dup6\n        /* \"WandInstruments.sol\":11045:11069  _sF > 300000000000000000 */\n      gt\n        /* \"WandInstruments.sol\":11041:11128  if (_sF > 300000000000000000)\r... */\n      iszero\n      tag_266\n      jumpi\n        /* \"WandInstruments.sol\":11099:11117  300000000000000000 */\n      0x0429d069189e0000\n        /* \"WandInstruments.sol\":11093:11117  _sF = 300000000000000000 */\n      swap5\n      pop\n        /* \"WandInstruments.sol\":11041:11128  if (_sF > 300000000000000000)\r... */\n    tag_266:\n        /* \"WandInstruments.sol\":11144:11147  _sF */\n      dup5\n        /* \"WandInstruments.sol\":11137:11147  return _sF */\n      swap6\n      pop\n      pop\n      pop\n      pop\n      pop\n      pop\n        /* \"WandInstruments.sol\":10261:11156  function getSellFactor() external view returns (uint256){\r... */\n      swap1\n      jump\t// out\n        /* \"WandInstruments.sol\":14139:14208  function getCircSupplyXDays() external view returns (uint256){\r... */\n    tag_66:\n        /* \"WandInstruments.sol\":14192:14199  uint256 */\n      0x00\n        /* \"WandInstruments.sol\":14139:14208  function getCircSupplyXDays() external view returns (uint256){\r... */\n      swap1\n      jump\t// out\n        /* \"WandInstruments.sol\":1993:2053  mapping(address => lockedamounts) public withheldWithdrawals */\n    tag_72:\n      mstore(0x20, 0x1b)\n      dup1\n      0x00\n      mstore\n      keccak256(0x00, 0x40)\n      0x00\n      swap2\n      pop\n      swap1\n      pop\n      dup1\n      0x00\n      add\n      sload\n      swap1\n      dup1\n      0x01\n      add\n      sload\n      swap1\n      pop\n      dup3\n      jump\t// out\n        /* \"WandInstruments.sol\":1576:1626  mapping(uint256 => uint256) public tokensSoldXDays */\n    tag_79:\n      mstore(0x20, 0x18)\n      dup1\n      0x00\n      mstore\n      keccak256(0x00, 0x40)\n      0x00\n      swap2\n      pop\n      swap1\n      pop\n      sload\n      dup2\n      jump\t// out\n        /* \"WandInstruments.sol\":12700:13202  function testUpdatetimeLockedminus(uint256 amt) public  {\r... */\n    tag_84:\n        /* \"WandInstruments.sol\":12781:12800  withheldWithdrawals */\n      0x1b\n        /* \"WandInstruments.sol\":12781:12812  withheldWithdrawals[msg.sender] */\n      0x00\n        /* \"WandInstruments.sol\":12801:12811  msg.sender */\n      caller\n        /* \"WandInstruments.sol\":12781:12812  withheldWithdrawals[msg.sender] */\n      0xffffffffffffffffffffffffffffffffffffffff\n      and\n      0xffffffffffffffffffffffffffffffffffffffff\n      and\n      dup2\n      mstore\n      0x20\n      add\n      swap1\n      dup2\n      mstore\n      0x20\n      add\n      0x00\n      keccak256\n        /* \"WandInstruments.sol\":12781:12820  withheldWithdrawals[msg.sender].amounts */\n      0x01\n      add\n      sload\n        /* \"WandInstruments.sol\":12775:12778  amt */\n      dup2\n        /* \"WandInstruments.sol\":12775:12820  amt < withheldWithdrawals[msg.sender].amounts */\n      lt\n        /* \"WandInstruments.sol\":12767:12861  require(amt < withheldWithdrawals[msg.sender].amounts, \"You dont have that much to withdraw!\") */\n      tag_269\n      jumpi\n      mload(0x40)\n      0x08c379a000000000000000000000000000000000000000000000000000000000\n      dup2\n      mstore\n      0x04\n      add\n      tag_270\n      swap1\n      tag_271\n      jump\t// in\n    tag_270:\n      mload(0x40)\n      dup1\n      swap2\n      sub\n      swap1\n      revert\n    tag_269:\n        /* \"WandInstruments.sol\":13066:13069  amt */\n      dup1\n        /* \"WandInstruments.sol\":13023:13042  withheldWithdrawals */\n      0x1b\n        /* \"WandInstruments.sol\":13023:13054  withheldWithdrawals[msg.sender] */\n      0x00\n        /* \"WandInstruments.sol\":13043:13053  msg.sender */\n      caller\n        /* \"WandInstruments.sol\":13023:13054  withheldWithdrawals[msg.sender] */\n      0xffffffffffffffffffffffffffffffffffffffff\n      and\n      0xffffffffffffffffffffffffffffffffffffffff\n      and\n      dup2\n      mstore\n      0x20\n      add\n      swap1\n      dup2\n      mstore\n      0x20\n      add\n      0x00\n      keccak256\n        /* \"WandInstruments.sol\":13023:13062  withheldWithdrawals[msg.sender].amounts */\n      0x01\n      add\n      0x00\n        /* \"WandInstruments.sol\":13023:13069  withheldWithdrawals[msg.sender].amounts -= amt */\n      dup3\n      dup3\n      sload\n      tag_272\n      swap2\n      swap1\n      tag_250\n      jump\t// in\n    tag_272:\n      swap3\n      pop\n      pop\n      dup2\n      swap1\n      sstore\n      pop\n        /* \"WandInstruments.sol\":13126:13127  0 */\n      0x00\n        /* \"WandInstruments.sol\":13084:13103  withheldWithdrawals */\n      0x1b\n        /* \"WandInstruments.sol\":13084:13115  withheldWithdrawals[msg.sender] */\n      0x00\n        /* \"WandInstruments.sol\":13104:13114  msg.sender */\n      caller\n        /* \"WandInstruments.sol\":13084:13115  withheldWithdrawals[msg.sender] */\n      0xffffffffffffffffffffffffffffffffffffffff\n      and\n      0xffffffffffffffffffffffffffffffffffffffff\n      and\n      dup2\n      mstore\n      0x20\n      add\n      swap1\n      dup2\n      mstore\n      0x20\n      add\n      0x00\n      keccak256\n        /* \"WandInstruments.sol\":13084:13123  withheldWithdrawals[msg.sender].amounts */\n      0x01\n      add\n      sload\n        /* \"WandInstruments.sol\":13084:13127  withheldWithdrawals[msg.sender].amounts ==0 */\n      eq\n        /* \"WandInstruments.sol\":13080:13195  if (withheldWithdrawals[msg.sender].amounts ==0 ){\r... */\n      iszero\n      tag_273\n      jumpi\n        /* \"WandInstruments.sol\":13151:13170  withheldWithdrawals */\n      0x1b\n        /* \"WandInstruments.sol\":13151:13182  withheldWithdrawals[msg.sender] */\n      0x00\n        /* \"WandInstruments.sol\":13171:13181  msg.sender */\n      caller\n        /* \"WandInstruments.sol\":13151:13182  withheldWithdrawals[msg.sender] */\n      0xffffffffffffffffffffffffffffffffffffffff\n      and\n      0xffffffffffffffffffffffffffffffffffffffff\n      and\n      dup2\n      mstore\n      0x20\n      add\n      swap1\n      dup2\n      mstore\n      0x20\n      add\n      0x00\n      keccak256\n      0x00\n        /* \"WandInstruments.sol\":13144:13183  delete(withheldWithdrawals[msg.sender]) */\n      dup1\n      dup3\n      add\n      0x00\n      swap1\n      sstore\n      0x01\n      dup3\n      add\n      0x00\n      swap1\n      sstore\n      pop\n      pop\n        /* \"WandInstruments.sol\":13080:13195  if (withheldWithdrawals[msg.sender].amounts ==0 ){\r... */\n    tag_273:\n        /* \"WandInstruments.sol\":12700:13202  function testUpdatetimeLockedminus(uint256 amt) public  {\r... */\n      pop\n      jump\t// out\n        /* \"WandInstruments.sol\":1633:1690  mapping(uint256 => uint256) public circulatingSupplyXDays */\n    tag_88:\n      mstore(0x20, 0x19)\n      dup1\n      0x00\n      mstore\n      keccak256(0x00, 0x40)\n      0x00\n      swap2\n      pop\n      swap1\n      pop\n      sload\n      dup2\n      jump\t// out\n        /* \"WandInstruments.sol\":6827:7572  function transformScepterToBaton(uint256 amountSCPtoSwap) public payable{\r... */\n    tag_92:\n        /* \"WandInstruments.sol\":6971:6997  uint256 trader_tsc_balance */\n      0x00\n        /* \"WandInstruments.sol\":7000:7003  tSC */\n      0x12\n      0x00\n      swap1\n      sload\n      swap1\n      0x0100\n      exp\n      swap1\n      div\n      0xffffffffffffffffffffffffffffffffffffffff\n      and\n        /* \"WandInstruments.sol\":7000:7013  tSC.balanceOf */\n      0xffffffffffffffffffffffffffffffffffffffff\n      and\n      0x70a08231\n        /* \"WandInstruments.sol\":7014:7024  msg.sender */\n      caller\n        /* \"WandInstruments.sol\":7000:7025  tSC.balanceOf(msg.sender) */\n      mload(0x40)\n      dup3\n      0xffffffff\n      and\n      0xe0\n      shl\n      dup2\n      mstore\n      0x04\n      add\n      tag_275\n      swap2\n      swap1\n      tag_59\n      jump\t// in\n    tag_275:\n      0x20\n      mload(0x40)\n      dup1\n      dup4\n      sub\n      dup2\n      dup7\n      dup1\n      extcodesize\n      iszero\n      dup1\n      iszero\n      tag_276\n      jumpi\n      0x00\n      dup1\n      revert\n    tag_276:\n      pop\n      gas\n      staticcall\n      iszero\n      dup1\n      iszero\n      tag_278\n      jumpi\n      returndatasize\n      0x00\n      dup1\n      returndatacopy\n      revert(0x00, returndatasize)\n    tag_278:\n      pop\n      pop\n      pop\n      pop\n      mload(0x40)\n      returndatasize\n      not(0x1f)\n      0x1f\n      dup3\n      add\n      and\n      dup3\n      add\n      dup1\n      0x40\n      mstore\n      pop\n      dup2\n      add\n      swap1\n      tag_279\n      swap2\n      swap1\n      tag_239\n      jump\t// in\n    tag_279:\n        /* \"WandInstruments.sol\":6971:7025  uint256 trader_tsc_balance = tSC.balanceOf(msg.sender) */\n      swap1\n      pop\n        /* \"WandInstruments.sol\":7065:7080  amountSCPtoSwap */\n      dup2\n        /* \"WandInstruments.sol\":7044:7062  trader_tsc_balance */\n      dup2\n        /* \"WandInstruments.sol\":7044:7080  trader_tsc_balance > amountSCPtoSwap */\n      gt\n        /* \"WandInstruments.sol\":7036:7111  require(trader_tsc_balance > amountSCPtoSwap, \"You dont have that amount!\") */\n      tag_280\n      jumpi\n      mload(0x40)\n      0x08c379a000000000000000000000000000000000000000000000000000000000\n      dup2\n      mstore\n      0x04\n      add\n      tag_281\n      swap1\n      tag_282\n      jump\t// in\n    tag_281:\n      mload(0x40)\n      dup1\n      swap2\n      sub\n      swap1\n      revert\n    tag_280:\n        /* \"WandInstruments.sol\":7165:7231  _safeTransferFrom(tSC, msg.sender, address(this), amountSCPtoSwap) */\n      tag_283\n        /* \"WandInstruments.sol\":7183:7186  tSC */\n      0x12\n      0x00\n      swap1\n      sload\n      swap1\n      0x0100\n      exp\n      swap1\n      div\n      0xffffffffffffffffffffffffffffffffffffffff\n      and\n        /* \"WandInstruments.sol\":7188:7198  msg.sender */\n      caller\n        /* \"WandInstruments.sol\":7208:7212  this */\n      address\n        /* \"WandInstruments.sol\":7215:7230  amountSCPtoSwap */\n      dup6\n        /* \"WandInstruments.sol\":7165:7182  _safeTransferFrom */\n      tag_284\n        /* \"WandInstruments.sol\":7165:7231  _safeTransferFrom(tSC, msg.sender, address(this), amountSCPtoSwap) */\n      jump\t// in\n    tag_283:\n        /* \"WandInstruments.sol\":7292:7308  uint256 dInArray */\n      0x00\n        /* \"WandInstruments.sol\":7342:7347  86400 */\n      0x015180\n        /* \"WandInstruments.sol\":7328:7340  timeLaunched */\n      sload(0x0b)\n        /* \"WandInstruments.sol\":7311:7326  block.timestamp */\n      timestamp\n        /* \"WandInstruments.sol\":7311:7340  block.timestamp- timeLaunched */\n      tag_285\n      swap2\n      swap1\n      tag_250\n      jump\t// in\n    tag_285:\n        /* \"WandInstruments.sol\":7310:7347  (block.timestamp- timeLaunched)/86400 */\n      tag_286\n      swap2\n      swap1\n      tag_248\n      jump\t// in\n    tag_286:\n        /* \"WandInstruments.sol\":7292:7347  uint256 dInArray =(block.timestamp- timeLaunched)/86400 */\n      swap1\n      pop\n        /* \"WandInstruments.sol\":7388:7403  amountSCPtoSwap */\n      dup3\n        /* \"WandInstruments.sol\":7359:7374  tokensSoldXDays */\n      0x18\n        /* \"WandInstruments.sol\":7359:7384  tokensSoldXDays[dInArray] */\n      0x00\n        /* \"WandInstruments.sol\":7375:7383  dInArray */\n      dup4\n        /* \"WandInstruments.sol\":7359:7384  tokensSoldXDays[dInArray] */\n      dup2\n      mstore\n      0x20\n      add\n      swap1\n      dup2\n      mstore\n      0x20\n      add\n      0x00\n      keccak256\n      0x00\n        /* \"WandInstruments.sol\":7359:7403  tokensSoldXDays[dInArray] += amountSCPtoSwap */\n      dup3\n      dup3\n      sload\n      tag_287\n      swap2\n      swap1\n      tag_245\n      jump\t// in\n    tag_287:\n      swap3\n      pop\n      pop\n      dup2\n      swap1\n      sstore\n      pop\n        /* \"WandInstruments.sol\":7450:7465  amountSCPtoSwap */\n      dup3\n        /* \"WandInstruments.sol\":7414:7436  circulatingSupplyXDays */\n      0x19\n        /* \"WandInstruments.sol\":7414:7446  circulatingSupplyXDays[dInArray] */\n      0x00\n        /* \"WandInstruments.sol\":7437:7445  dInArray */\n      dup4\n        /* \"WandInstruments.sol\":7414:7446  circulatingSupplyXDays[dInArray] */\n      dup2\n      mstore\n      0x20\n      add\n      swap1\n      dup2\n      mstore\n      0x20\n      add\n      0x00\n      keccak256\n      0x00\n        /* \"WandInstruments.sol\":7414:7465  circulatingSupplyXDays[dInArray] -= amountSCPtoSwap */\n      dup3\n      dup3\n      sload\n      tag_288\n      swap2\n      swap1\n      tag_250\n      jump\t// in\n    tag_288:\n      swap3\n      pop\n      pop\n      dup2\n      swap1\n      sstore\n      pop\n        /* \"WandInstruments.sol\":6899:7572  {\r... */\n      pop\n      pop\n        /* \"WandInstruments.sol\":6827:7572  function transformScepterToBaton(uint256 amountSCPtoSwap) public payable{\r... */\n      pop\n      jump\t// out\n        /* \"WandInstruments.sol\":11162:11374  function getBackingPrice() external view returns (uint256){\r... */\n    tag_95:\n        /* \"WandInstruments.sol\":11212:11219  uint256 */\n      0x00\n        /* \"WandInstruments.sol\":11326:11366  decDiv18(treasury1bal,tSC.totalSupply()) */\n      tag_290\n        /* \"WandInstruments.sol\":11335:11347  treasury1bal */\n      sload(0x0a)\n        /* \"WandInstruments.sol\":11348:11351  tSC */\n      0x12\n      0x00\n      swap1\n      sload\n      swap1\n      0x0100\n      exp\n      swap1\n      div\n      0xffffffffffffffffffffffffffffffffffffffff\n      and\n        /* \"WandInstruments.sol\":11348:11363  tSC.totalSupply */\n      0xffffffffffffffffffffffffffffffffffffffff\n      and\n      0x18160ddd\n        /* \"WandInstruments.sol\":11348:11365  tSC.totalSupply() */\n      mload(0x40)\n      dup2\n      0xffffffff\n      and\n      0xe0\n      shl\n      dup2\n      mstore\n      0x04\n      add\n      0x20\n      mload(0x40)\n      dup1\n      dup4\n      sub\n      dup2\n      dup7\n      dup1\n      extcodesize\n      iszero\n      dup1\n      iszero\n      tag_291\n      jumpi\n      0x00\n      dup1\n      revert\n    tag_291:\n      pop\n      gas\n      staticcall\n      iszero\n      dup1\n      iszero\n      tag_293\n      jumpi\n      returndatasize\n      0x00\n      dup1\n      returndatacopy\n      revert(0x00, returndatasize)\n    tag_293:\n      pop\n      pop\n      pop\n      pop\n      mload(0x40)\n      returndatasize\n      not(0x1f)\n      0x1f\n      dup3\n      add\n      and\n      dup3\n      add\n      dup1\n      0x40\n      mstore\n      pop\n      dup2\n      add\n      swap1\n      tag_294\n      swap2\n      swap1\n      tag_239\n      jump\t// in\n    tag_294:\n        /* \"WandInstruments.sol\":11326:11334  decDiv18 */\n      tag_131\n        /* \"WandInstruments.sol\":11326:11366  decDiv18(treasury1bal,tSC.totalSupply()) */\n      jump\t// in\n    tag_290:\n        /* \"WandInstruments.sol\":11319:11366  return decDiv18(treasury1bal,tSC.totalSupply()) */\n      swap1\n      pop\n        /* \"WandInstruments.sol\":11162:11374  function getBackingPrice() external view returns (uint256){\r... */\n      swap1\n      jump\t// out\n        /* \"WandInstruments.sol\":1357:1375  IERC20 public SPTR */\n    tag_99:\n      0x13\n      0x00\n      swap1\n      sload\n      swap1\n      0x0100\n      exp\n      swap1\n      div\n      0xffffffffffffffffffffffffffffffffffffffff\n      and\n      dup2\n      jump\t// out\n        /* \"WandInstruments.sol\":660:688  address public devWalletAddr */\n    tag_104:\n      0x09\n      0x00\n      swap1\n      sload\n      swap1\n      0x0100\n      exp\n      swap1\n      div\n      0xffffffffffffffffffffffffffffffffffffffff\n      and\n      dup2\n      jump\t// out\n        /* \"WandInstruments.sol\":1517:1569  mapping(uint256 => uint256) public tokensBoughtXDays */\n    tag_109:\n      mstore(0x20, 0x17)\n      dup1\n      0x00\n      mstore\n      keccak256(0x00, 0x40)\n      0x00\n      swap2\n      pop\n      swap1\n      pop\n      sload\n      dup2\n      jump\t// out\n        /* \"WandInstruments.sol\":729:775  uint256 public treasury1bal = 50000*(DECIMALS) */\n    tag_113:\n      sload(0x0a)\n      dup2\n      jump\t// out\n        /* \"WandInstruments.sol\":12132:12208  function withdrawStables(uint256 _amtToWithdraw) public onlyOwner {\r... */\n    tag_118:\n      pop\n      jump\t// out\n        /* \"WandInstruments.sol\":804:831  uint256 public timeLaunched */\n    tag_121:\n      sload(0x0b)\n      dup2\n      jump\t// out\n        /* \"WandInstruments.sol\":11660:11933  function getSellPrice() external view returns (uint256){\r... */\n    tag_125:\n        /* \"WandInstruments.sol\":11707:11714  uint256 */\n      0x00\n        /* \"WandInstruments.sol\":11847:11925  decMul18(this.getBackingPrice() , (900000000000000000 - this.getSellFactor())) */\n      tag_298\n        /* \"WandInstruments.sol\":11856:11860  this */\n      address\n        /* \"WandInstruments.sol\":11856:11876  this.getBackingPrice */\n      0xffffffffffffffffffffffffffffffffffffffff\n      and\n      0x1f564a06\n        /* \"WandInstruments.sol\":11856:11878  this.getBackingPrice() */\n      mload(0x40)\n      dup2\n      0xffffffff\n      and\n      0xe0\n      shl\n      dup2\n      mstore\n      0x04\n      add\n      0x20\n      mload(0x40)\n      dup1\n      dup4\n      sub\n      dup2\n      dup7\n      dup1\n      extcodesize\n      iszero\n      dup1\n      iszero\n      tag_299\n      jumpi\n      0x00\n      dup1\n      revert\n    tag_299:\n      pop\n      gas\n      staticcall\n      iszero\n      dup1\n      iszero\n      tag_301\n      jumpi\n      returndatasize\n      0x00\n      dup1\n      returndatacopy\n      revert(0x00, returndatasize)\n    tag_301:\n      pop\n      pop\n      pop\n      pop\n      mload(0x40)\n      returndatasize\n      not(0x1f)\n      0x1f\n      dup3\n      add\n      and\n      dup3\n      add\n      dup1\n      0x40\n      mstore\n      pop\n      dup2\n      add\n      swap1\n      tag_302\n      swap2\n      swap1\n      tag_239\n      jump\t// in\n    tag_302:\n        /* \"WandInstruments.sol\":11903:11907  this */\n      address\n        /* \"WandInstruments.sol\":11903:11921  this.getSellFactor */\n      0xffffffffffffffffffffffffffffffffffffffff\n      and\n      0x0ccaf04f\n        /* \"WandInstruments.sol\":11903:11923  this.getSellFactor() */\n      mload(0x40)\n      dup2\n      0xffffffff\n      and\n      0xe0\n      shl\n      dup2\n      mstore\n      0x04\n      add\n      0x20\n      mload(0x40)\n      dup1\n      dup4\n      sub\n      dup2\n      dup7\n      dup1\n      extcodesize\n      iszero\n      dup1\n      iszero\n      tag_303\n      jumpi\n      0x00\n      dup1\n      revert\n    tag_303:\n      pop\n      gas\n      staticcall\n      iszero\n      dup1\n      iszero\n      tag_305\n      jumpi\n      returndatasize\n      0x00\n      dup1\n      returndatacopy\n      revert(0x00, returndatasize)\n    tag_305:\n      pop\n      pop\n      pop\n      pop\n      mload(0x40)\n      returndatasize\n      not(0x1f)\n      0x1f\n      dup3\n      add\n      and\n      dup3\n      add\n      dup1\n      0x40\n      mstore\n      pop\n      dup2\n      add\n      swap1\n      tag_306\n      swap2\n      swap1\n      tag_239\n      jump\t// in\n    tag_306:\n        /* \"WandInstruments.sol\":11882:11900  900000000000000000 */\n      0x0c7d713b49da0000\n        /* \"WandInstruments.sol\":11882:11923  900000000000000000 - this.getSellFactor() */\n      tag_307\n      swap2\n      swap1\n      tag_250\n      jump\t// in\n    tag_307:\n        /* \"WandInstruments.sol\":11847:11855  decMul18 */\n      tag_223\n        /* \"WandInstruments.sol\":11847:11925  decMul18(this.getBackingPrice() , (900000000000000000 - this.getSellFactor())) */\n      jump\t// in\n    tag_298:\n        /* \"WandInstruments.sol\":11840:11925  return decMul18(this.getBackingPrice() , (900000000000000000 - this.getSellFactor())) */\n      swap1\n      pop\n        /* \"WandInstruments.sol\":11660:11933  function getSellPrice() external view returns (uint256){\r... */\n      swap1\n      jump\t// out\n        /* \"WandInstruments.sol\":4559:4738  function decDiv18(uint x, uint y) public pure returns (uint decQuotient) {\r... */\n    tag_131:\n        /* \"WandInstruments.sol\":4614:4630  uint decQuotient */\n      0x00\n        /* \"WandInstruments.sol\":4643:4659  uint prod_xTEN18 */\n      dup1\n        /* \"WandInstruments.sol\":4662:4678  mul(x, DECIMALS) */\n      tag_309\n        /* \"WandInstruments.sol\":4666:4667  x */\n      dup5\n        /* \"WandInstruments.sol\":283:289  10**18 */\n      0x0de0b6b3a7640000\n        /* \"WandInstruments.sol\":4662:4665  mul */\n      tag_310\n        /* \"WandInstruments.sol\":4662:4678  mul(x, DECIMALS) */\n      jump\t// in\n    tag_309:\n        /* \"WandInstruments.sol\":4643:4678  uint prod_xTEN18 = mul(x, DECIMALS) */\n      swap1\n      pop\n        /* \"WandInstruments.sol\":4729:4730  y */\n      dup3\n        /* \"WandInstruments.sol\":4703:4726  add(prod_xTEN18, y / 2) */\n      tag_311\n        /* \"WandInstruments.sol\":4707:4718  prod_xTEN18 */\n      dup3\n        /* \"WandInstruments.sol\":4724:4725  2 */\n      0x02\n        /* \"WandInstruments.sol\":4720:4721  y */\n      dup7\n        /* \"WandInstruments.sol\":4720:4725  y / 2 */\n      tag_312\n      swap2\n      swap1\n      tag_248\n      jump\t// in\n    tag_312:\n        /* \"WandInstruments.sol\":4703:4706  add */\n      tag_313\n        /* \"WandInstruments.sol\":4703:4726  add(prod_xTEN18, y / 2) */\n      jump\t// in\n    tag_311:\n        /* \"WandInstruments.sol\":4703:4730  add(prod_xTEN18, y / 2) / y */\n      tag_314\n      swap2\n      swap1\n      tag_248\n      jump\t// in\n    tag_314:\n        /* \"WandInstruments.sol\":4689:4730  decQuotient = add(prod_xTEN18, y / 2) / y */\n      swap2\n      pop\n        /* \"WandInstruments.sol\":4632:4738  {\r... */\n      pop\n        /* \"WandInstruments.sol\":4559:4738  function decDiv18(uint x, uint y) public pure returns (uint decQuotient) {\r... */\n      swap3\n      swap2\n      pop\n      pop\n      jump\t// out\n        /* \"WandInstruments.sol\":838:870  uint256 public daysInCalculation */\n    tag_135:\n      sload(0x0c)\n      dup2\n      jump\t// out\n        /* \"WandInstruments.sol\":12216:12688  function testUpdatetimeLockedplus(uint256 amt) public  {\r... */\n    tag_140:\n        /* \"WandInstruments.sol\":12611:12617  864000 */\n      0x0d2f00\n        /* \"WandInstruments.sol\":12593:12608  block.timestamp */\n      timestamp\n        /* \"WandInstruments.sol\":12593:12617  block.timestamp + 864000 */\n      tag_316\n      swap2\n      swap1\n      tag_245\n      jump\t// in\n    tag_316:\n        /* \"WandInstruments.sol\":12546:12565  withheldWithdrawals */\n      0x1b\n        /* \"WandInstruments.sol\":12546:12577  withheldWithdrawals[msg.sender] */\n      0x00\n        /* \"WandInstruments.sol\":12566:12576  msg.sender */\n      caller\n        /* \"WandInstruments.sol\":12546:12577  withheldWithdrawals[msg.sender] */\n      0xffffffffffffffffffffffffffffffffffffffff\n      and\n      0xffffffffffffffffffffffffffffffffffffffff\n      and\n      dup2\n      mstore\n      0x20\n      add\n      swap1\n      dup2\n      mstore\n      0x20\n      add\n      0x00\n      keccak256\n        /* \"WandInstruments.sol\":12546:12590  withheldWithdrawals[msg.sender].timeUnlocked */\n      0x00\n      add\n        /* \"WandInstruments.sol\":12546:12617  withheldWithdrawals[msg.sender].timeUnlocked = block.timestamp + 864000 */\n      dup2\n      swap1\n      sstore\n      pop\n        /* \"WandInstruments.sol\":12671:12674  amt */\n      dup1\n        /* \"WandInstruments.sol\":12628:12647  withheldWithdrawals */\n      0x1b\n        /* \"WandInstruments.sol\":12628:12659  withheldWithdrawals[msg.sender] */\n      0x00\n        /* \"WandInstruments.sol\":12648:12658  msg.sender */\n      caller\n        /* \"WandInstruments.sol\":12628:12659  withheldWithdrawals[msg.sender] */\n      0xffffffffffffffffffffffffffffffffffffffff\n      and\n      0xffffffffffffffffffffffffffffffffffffffff\n      and\n      dup2\n      mstore\n      0x20\n      add\n      swap1\n      dup2\n      mstore\n      0x20\n      add\n      0x00\n      keccak256\n        /* \"WandInstruments.sol\":12628:12667  withheldWithdrawals[msg.sender].amounts */\n      0x01\n      add\n      0x00\n        /* \"WandInstruments.sol\":12628:12674  withheldWithdrawals[msg.sender].amounts += amt */\n      dup3\n      dup3\n      sload\n      tag_317\n      swap2\n      swap1\n      tag_245\n      jump\t// in\n    tag_317:\n      swap3\n      pop\n      pop\n      dup2\n      swap1\n      sstore\n      pop\n        /* \"WandInstruments.sol\":12216:12688  function testUpdatetimeLockedplus(uint256 amt) public  {\r... */\n      pop\n      jump\t// out\n        /* \"WandInstruments.sol\":1311:1328  IERC20 public tSC */\n    tag_143:\n      0x12\n      0x00\n      swap1\n      sload\n      swap1\n      0x0100\n      exp\n      swap1\n      div\n      0xffffffffffffffffffffffffffffffffffffffff\n      and\n      dup2\n      jump\t// out\n        /* \"WandInstruments.sol\":1089:1106  int128 public res */\n    tag_147:\n      0x10\n      0x00\n      swap1\n      sload\n      swap1\n      0x0100\n      exp\n      swap1\n      div\n      0x0f\n      signextend\n      dup2\n      jump\t// out\n        /* \"WandInstruments.sol\":1434:1459  IERC20 public tokenStable */\n    tag_152:\n      0x16\n      0x00\n      swap1\n      sload\n      swap1\n      0x0100\n      exp\n      swap1\n      div\n      0xffffffffffffffffffffffffffffffffffffffff\n      and\n      dup2\n      jump\t// out\n        /* \"WandInstruments.sol\":13313:13841  function getTokensBoughtXDays() external view returns (uint256){\r... */\n    tag_156:\n        /* \"WandInstruments.sol\":13368:13375  uint256 */\n      0x00\n        /* \"WandInstruments.sol\":13387:13404  uint256 boughtnum */\n      dup1\n        /* \"WandInstruments.sol\":13415:13424  uint256 d */\n      0x00\n        /* \"WandInstruments.sol\":13435:13450  uint256 numdays */\n      dup1\n        /* \"WandInstruments.sol\":13471:13476  86400 */\n      0x015180\n        /* \"WandInstruments.sol\":13453:13470  daysInCalculation */\n      sload(0x0c)\n        /* \"WandInstruments.sol\":13453:13476  daysInCalculation/86400 */\n      tag_319\n      swap2\n      swap1\n      tag_248\n      jump\t// in\n    tag_319:\n        /* \"WandInstruments.sol\":13435:13476  uint256 numdays = daysInCalculation/86400 */\n      swap1\n      pop\n        /* \"WandInstruments.sol\":13487:13511  uint256 daySinceLaunched */\n      0x00\n        /* \"WandInstruments.sol\":13549:13554  86400 */\n      0x015180\n        /* \"WandInstruments.sol\":13533:13545  timeLaunched */\n      sload(0x0b)\n        /* \"WandInstruments.sol\":13515:13530  block.timestamp */\n      timestamp\n        /* \"WandInstruments.sol\":13515:13545  block.timestamp - timeLaunched */\n      tag_320\n      swap2\n      swap1\n      tag_250\n      jump\t// in\n    tag_320:\n        /* \"WandInstruments.sol\":13514:13554  (block.timestamp - timeLaunched) / 86400 */\n      tag_321\n      swap2\n      swap1\n      tag_248\n      jump\t// in\n    tag_321:\n        /* \"WandInstruments.sol\":13487:13554  uint256 daySinceLaunched = (block.timestamp - timeLaunched) / 86400 */\n      swap1\n      pop\n        /* \"WandInstruments.sol\":13589:13590  0 */\n      0x00\n        /* \"WandInstruments.sol\":13569:13585  daySinceLaunched */\n      dup2\n        /* \"WandInstruments.sol\":13569:13590  daySinceLaunched == 0 */\n      eq\n        /* \"WandInstruments.sol\":13565:13642  if (daySinceLaunched == 0) {\r... */\n      iszero\n      tag_322\n      jumpi\n        /* \"WandInstruments.sol\":13610:13627  tokensBoughtXDays */\n      0x17\n        /* \"WandInstruments.sol\":13610:13630  tokensBoughtXDays[0] */\n      0x00\n        /* \"WandInstruments.sol\":13628:13629  0 */\n      dup1\n        /* \"WandInstruments.sol\":13610:13630  tokensBoughtXDays[0] */\n      dup2\n      mstore\n      0x20\n      add\n      swap1\n      dup2\n      mstore\n      0x20\n      add\n      0x00\n      keccak256\n      sload\n        /* \"WandInstruments.sol\":13603:13630  return tokensBoughtXDays[0] */\n      swap5\n      pop\n      pop\n      pop\n      pop\n      pop\n      jump(tag_318)\n        /* \"WandInstruments.sol\":13565:13642  if (daySinceLaunched == 0) {\r... */\n    tag_322:\n        /* \"WandInstruments.sol\":13680:13687  numdays */\n      dup2\n        /* \"WandInstruments.sol\":13661:13677  daySinceLaunched */\n      dup2\n        /* \"WandInstruments.sol\":13661:13687  daySinceLaunched - numdays */\n      tag_326\n      swap2\n      swap1\n      tag_250\n      jump\t// in\n    tag_326:\n        /* \"WandInstruments.sol\":13657:13687  d = daySinceLaunched - numdays */\n      swap3\n      pop\n        /* \"WandInstruments.sol\":13652:13798  for (d = daySinceLaunched - numdays; d < daySinceLaunched; d++) {  //for loop example\r... */\n    tag_323:\n        /* \"WandInstruments.sol\":13693:13709  daySinceLaunched */\n      dup1\n        /* \"WandInstruments.sol\":13689:13690  d */\n      dup4\n        /* \"WandInstruments.sol\":13689:13709  d < daySinceLaunched */\n      lt\n        /* \"WandInstruments.sol\":13652:13798  for (d = daySinceLaunched - numdays; d < daySinceLaunched; d++) {  //for loop example\r... */\n      iszero\n      tag_324\n      jumpi\n        /* \"WandInstruments.sol\":13762:13779  tokensBoughtXDays */\n      0x17\n        /* \"WandInstruments.sol\":13762:13782  tokensBoughtXDays[d] */\n      0x00\n        /* \"WandInstruments.sol\":13780:13781  d */\n      dup5\n        /* \"WandInstruments.sol\":13762:13782  tokensBoughtXDays[d] */\n      dup2\n      mstore\n      0x20\n      add\n      swap1\n      dup2\n      mstore\n      0x20\n      add\n      0x00\n      keccak256\n      sload\n        /* \"WandInstruments.sol\":13749:13782  boughtnum += tokensBoughtXDays[d] */\n      dup5\n      tag_327\n      swap2\n      swap1\n      tag_245\n      jump\t// in\n    tag_327:\n      swap4\n      pop\n        /* \"WandInstruments.sol\":13711:13714  d++ */\n      dup3\n      dup1\n      tag_328\n      swap1\n      tag_260\n      jump\t// in\n    tag_328:\n      swap4\n      pop\n      pop\n        /* \"WandInstruments.sol\":13652:13798  for (d = daySinceLaunched - numdays; d < daySinceLaunched; d++) {  //for loop example\r... */\n      jump(tag_323)\n    tag_324:\n        /* \"WandInstruments.sol\":13824:13833  boughtnum */\n      dup4\n        /* \"WandInstruments.sol\":13817:13833  return boughtnum */\n      swap5\n      pop\n      pop\n      pop\n      pop\n      pop\n        /* \"WandInstruments.sol\":13313:13841  function getTokensBoughtXDays() external view returns (uint256){\r... */\n    tag_318:\n      swap1\n      jump\t// out\n        /* \"WandInstruments.sol\":7587:8804  function buyScepter(uint256 amountSCPtoBuy, string memory _stableChosen) public {\r... */\n    tag_162:\n        /* \"WandInstruments.sol\":7760:7775  stableERC20Info */\n      0x1a\n        /* \"WandInstruments.sol\":7776:7789  _stableChosen */\n      dup2\n        /* \"WandInstruments.sol\":7760:7790  stableERC20Info[_stableChosen] */\n      mload(0x40)\n      tag_330\n      swap2\n      swap1\n      tag_331\n      jump\t// in\n    tag_330:\n      swap1\n      dup2\n      mstore\n      0x20\n      add\n      mload(0x40)\n      dup1\n      swap2\n      sub\n      swap1\n      keccak256\n        /* \"WandInstruments.sol\":7760:7806  stableERC20Info[_stableChosen].contractAddress */\n      0x00\n      add\n      0x00\n      swap1\n      sload\n      swap1\n      0x0100\n      exp\n      swap1\n      div\n      0xffffffffffffffffffffffffffffffffffffffff\n      and\n        /* \"WandInstruments.sol\":7739:7750  tokenStable */\n      0x16\n      0x00\n        /* \"WandInstruments.sol\":7739:7807  tokenStable = IERC20(stableERC20Info[_stableChosen].contractAddress) */\n      0x0100\n      exp\n      dup2\n      sload\n      dup2\n      0xffffffffffffffffffffffffffffffffffffffff\n      mul\n      not\n      and\n      swap1\n      dup4\n      0xffffffffffffffffffffffffffffffffffffffff\n      and\n      mul\n      or\n      swap1\n      sstore\n      pop\n        /* \"WandInstruments.sol\":7844:7850  250000 */\n      0x03d090\n        /* \"WandInstruments.sol\":7826:7840  amountSCPtoBuy */\n      dup3\n        /* \"WandInstruments.sol\":7826:7850  amountSCPtoBuy <= 250000 */\n      gt\n      iszero\n        /* \"WandInstruments.sol\":7818:7877  require(amountSCPtoBuy <= 250000 , \"Per transaction limit\") */\n      tag_332\n      jumpi\n      mload(0x40)\n      0x08c379a000000000000000000000000000000000000000000000000000000000\n      dup2\n      mstore\n      0x04\n      add\n      tag_333\n      swap1\n      tag_334\n      jump\t// in\n    tag_333:\n      mload(0x40)\n      dup1\n      swap2\n      sub\n      swap1\n      revert\n    tag_332:\n        /* \"WandInstruments.sol\":7888:7915  uint256 trader_usdc_balance */\n      0x00\n        /* \"WandInstruments.sol\":7918:7929  tokenStable */\n      0x16\n      0x00\n      swap1\n      sload\n      swap1\n      0x0100\n      exp\n      swap1\n      div\n      0xffffffffffffffffffffffffffffffffffffffff\n      and\n        /* \"WandInstruments.sol\":7918:7939  tokenStable.balanceOf */\n      0xffffffffffffffffffffffffffffffffffffffff\n      and\n      0x70a08231\n        /* \"WandInstruments.sol\":7940:7950  msg.sender */\n      caller\n        /* \"WandInstruments.sol\":7918:7951  tokenStable.balanceOf(msg.sender) */\n      mload(0x40)\n      dup3\n      0xffffffff\n      and\n      0xe0\n      shl\n      dup2\n      mstore\n      0x04\n      add\n      tag_335\n      swap2\n      swap1\n      tag_59\n      jump\t// in\n    tag_335:\n      0x20\n      mload(0x40)\n      dup1\n      dup4\n      sub\n      dup2\n      dup7\n      dup1\n      extcodesize\n      iszero\n      dup1\n      iszero\n      tag_336\n      jumpi\n      0x00\n      dup1\n      revert\n    tag_336:\n      pop\n      gas\n      staticcall\n      iszero\n      dup1\n      iszero\n      tag_338\n      jumpi\n      returndatasize\n      0x00\n      dup1\n      returndatacopy\n      revert(0x00, returndatasize)\n    tag_338:\n      pop\n      pop\n      pop\n      pop\n      mload(0x40)\n      returndatasize\n      not(0x1f)\n      0x1f\n      dup3\n      add\n      and\n      dup3\n      add\n      dup1\n      0x40\n      mstore\n      pop\n      dup2\n      add\n      swap1\n      tag_339\n      swap2\n      swap1\n      tag_239\n      jump\t// in\n    tag_339:\n        /* \"WandInstruments.sol\":7888:7951  uint256 trader_usdc_balance = tokenStable.balanceOf(msg.sender) */\n      swap1\n      pop\n        /* \"WandInstruments.sol\":7992:8006  amountSCPtoBuy */\n      dup3\n        /* \"WandInstruments.sol\":7970:7989  trader_usdc_balance */\n      dup2\n        /* \"WandInstruments.sol\":7970:8006  trader_usdc_balance > amountSCPtoBuy */\n      gt\n        /* \"WandInstruments.sol\":7962:8037  require(trader_usdc_balance > amountSCPtoBuy, \"You dont have that amount!\") */\n      tag_340\n      jumpi\n      mload(0x40)\n      0x08c379a000000000000000000000000000000000000000000000000000000000\n      dup2\n      mstore\n      0x04\n      add\n      tag_341\n      swap1\n      tag_282\n      jump\t// in\n    tag_341:\n      mload(0x40)\n      dup1\n      swap2\n      sub\n      swap1\n      revert\n    tag_340:\n        /* \"WandInstruments.sol\":8104:8123  uint256 usdAmtToPay */\n      0x00\n        /* \"WandInstruments.sol\":8186:8201  stableERC20Info */\n      0x1a\n        /* \"WandInstruments.sol\":8202:8215  _stableChosen */\n      dup4\n        /* \"WandInstruments.sol\":8186:8216  stableERC20Info[_stableChosen] */\n      mload(0x40)\n      tag_342\n      swap2\n      swap1\n      tag_331\n      jump\t// in\n    tag_342:\n      swap1\n      dup2\n      mstore\n      0x20\n      add\n      mload(0x40)\n      dup1\n      swap2\n      sub\n      swap1\n      keccak256\n        /* \"WandInstruments.sol\":8186:8230  stableERC20Info[_stableChosen].tokenDecimals */\n      0x01\n      add\n      sload\n        /* \"WandInstruments.sol\":8165:8169  this */\n      address\n        /* \"WandInstruments.sol\":8165:8181  this.getBuyPrice */\n      0xffffffffffffffffffffffffffffffffffffffff\n      and\n      0x018a25e8\n        /* \"WandInstruments.sol\":8165:8183  this.getBuyPrice() */\n      mload(0x40)\n      dup2\n      0xffffffff\n      and\n      0xe0\n      shl\n      dup2\n      mstore\n      0x04\n      add\n      0x20\n      mload(0x40)\n      dup1\n      dup4\n      sub\n      dup2\n      dup7\n      dup1\n      extcodesize\n      iszero\n      dup1\n      iszero\n      tag_343\n      jumpi\n      0x00\n      dup1\n      revert\n    tag_343:\n      pop\n      gas\n      staticcall\n      iszero\n      dup1\n      iszero\n      tag_345\n      jumpi\n      returndatasize\n      0x00\n      dup1\n      returndatacopy\n      revert(0x00, returndatasize)\n    tag_345:\n      pop\n      pop\n      pop\n      pop\n      mload(0x40)\n      returndatasize\n      not(0x1f)\n      0x1f\n      dup3\n      add\n      and\n      dup3\n      add\n      dup1\n      0x40\n      mstore\n      pop\n      dup2\n      add\n      swap1\n      tag_346\n      swap2\n      swap1\n      tag_239\n      jump\t// in\n    tag_346:\n        /* \"WandInstruments.sol\":8148:8162  amountSCPtoBuy */\n      dup6\n        /* \"WandInstruments.sol\":8148:8183  amountSCPtoBuy * this.getBuyPrice() */\n      tag_347\n      swap2\n      swap1\n      tag_348\n      jump\t// in\n    tag_347:\n        /* \"WandInstruments.sol\":8148:8230  amountSCPtoBuy * this.getBuyPrice() * stableERC20Info[_stableChosen].tokenDecimals */\n      tag_349\n      swap2\n      swap1\n      tag_348\n      jump\t// in\n    tag_349:\n        /* \"WandInstruments.sol\":8134:8230  usdAmtToPay = amountSCPtoBuy * this.getBuyPrice() * stableERC20Info[_stableChosen].tokenDecimals */\n      swap1\n      pop\n        /* \"WandInstruments.sol\":8286:8356  _safeTransferFrom(tokenStable, msg.sender, address(this), usdAmtToPay) */\n      tag_350\n        /* \"WandInstruments.sol\":8304:8315  tokenStable */\n      0x16\n      0x00\n      swap1\n      sload\n      swap1\n      0x0100\n      exp\n      swap1\n      div\n      0xffffffffffffffffffffffffffffffffffffffff\n      and\n        /* \"WandInstruments.sol\":8317:8327  msg.sender */\n      caller\n        /* \"WandInstruments.sol\":8337:8341  this */\n      address\n        /* \"WandInstruments.sol\":8344:8355  usdAmtToPay */\n      dup5\n        /* \"WandInstruments.sol\":8286:8303  _safeTransferFrom */\n      tag_284\n        /* \"WandInstruments.sol\":8286:8356  _safeTransferFrom(tokenStable, msg.sender, address(this), usdAmtToPay) */\n      jump\t// in\n    tag_350:\n        /* \"WandInstruments.sol\":8375:8379  sptr */\n      0x1c\n      0x00\n      swap1\n      sload\n      swap1\n      0x0100\n      exp\n      swap1\n      div\n      0xffffffffffffffffffffffffffffffffffffffff\n      and\n        /* \"WandInstruments.sol\":8375:8384  sptr.mint */\n      0xffffffffffffffffffffffffffffffffffffffff\n      and\n      0x40c10f19\n        /* \"WandInstruments.sol\":8385:8395  msg.sender */\n      caller\n        /* \"WandInstruments.sol\":283:289  10**18 */\n      0x0de0b6b3a7640000\n        /* \"WandInstruments.sol\":8396:8410  amountSCPtoBuy */\n      dup8\n        /* \"WandInstruments.sol\":8396:8421  amountSCPtoBuy * DECIMALS */\n      tag_351\n      swap2\n      swap1\n      tag_348\n      jump\t// in\n    tag_351:\n        /* \"WandInstruments.sol\":8375:8422  sptr.mint(msg.sender,amountSCPtoBuy * DECIMALS) */\n      mload(0x40)\n      dup4\n      0xffffffff\n      and\n      0xe0\n      shl\n      dup2\n      mstore\n      0x04\n      add\n      tag_352\n      swap3\n      swap2\n      swap1\n      tag_177\n      jump\t// in\n    tag_352:\n      0x00\n      mload(0x40)\n      dup1\n      dup4\n      sub\n      dup2\n      0x00\n      dup8\n      dup1\n      extcodesize\n      iszero\n      dup1\n      iszero\n      tag_353\n      jumpi\n      0x00\n      dup1\n      revert\n    tag_353:\n      pop\n      gas\n      call\n      iszero\n      dup1\n      iszero\n      tag_355\n      jumpi\n      returndatasize\n      0x00\n      dup1\n      returndatacopy\n      revert(0x00, returndatasize)\n    tag_355:\n      pop\n      pop\n      pop\n      pop\n        /* \"WandInstruments.sol\":8563:8579  uint256 dInArray */\n      0x00\n        /* \"WandInstruments.sol\":8613:8618  86400 */\n      0x015180\n        /* \"WandInstruments.sol\":8599:8611  timeLaunched */\n      sload(0x0b)\n        /* \"WandInstruments.sol\":8582:8597  block.timestamp */\n      timestamp\n        /* \"WandInstruments.sol\":8582:8611  block.timestamp- timeLaunched */\n      tag_356\n      swap2\n      swap1\n      tag_250\n      jump\t// in\n    tag_356:\n        /* \"WandInstruments.sol\":8581:8618  (block.timestamp- timeLaunched)/86400 */\n      tag_357\n      swap2\n      swap1\n      tag_248\n      jump\t// in\n    tag_357:\n        /* \"WandInstruments.sol\":8563:8618  uint256 dInArray =(block.timestamp- timeLaunched)/86400 */\n      swap1\n      pop\n        /* \"WandInstruments.sol\":8661:8675  amountSCPtoBuy */\n      dup5\n        /* \"WandInstruments.sol\":8630:8647  tokensBoughtXDays */\n      0x17\n        /* \"WandInstruments.sol\":8630:8657  tokensBoughtXDays[dInArray] */\n      0x00\n        /* \"WandInstruments.sol\":8648:8656  dInArray */\n      dup4\n        /* \"WandInstruments.sol\":8630:8657  tokensBoughtXDays[dInArray] */\n      dup2\n      mstore\n      0x20\n      add\n      swap1\n      dup2\n      mstore\n      0x20\n      add\n      0x00\n      keccak256\n      0x00\n        /* \"WandInstruments.sol\":8630:8675  tokensBoughtXDays[dInArray] += amountSCPtoBuy */\n      dup3\n      dup3\n      sload\n      tag_358\n      swap2\n      swap1\n      tag_245\n      jump\t// in\n    tag_358:\n      swap3\n      pop\n      pop\n      dup2\n      swap1\n      sstore\n      pop\n        /* \"WandInstruments.sol\":8722:8736  amountSCPtoBuy */\n      dup5\n        /* \"WandInstruments.sol\":8686:8708  circulatingSupplyXDays */\n      0x19\n        /* \"WandInstruments.sol\":8686:8718  circulatingSupplyXDays[dInArray] */\n      0x00\n        /* \"WandInstruments.sol\":8709:8717  dInArray */\n      dup4\n        /* \"WandInstruments.sol\":8686:8718  circulatingSupplyXDays[dInArray] */\n      dup2\n      mstore\n      0x20\n      add\n      swap1\n      dup2\n      mstore\n      0x20\n      add\n      0x00\n      keccak256\n      0x00\n        /* \"WandInstruments.sol\":8686:8736  circulatingSupplyXDays[dInArray] += amountSCPtoBuy */\n      dup3\n      dup3\n      sload\n      tag_359\n      swap2\n      swap1\n      tag_245\n      jump\t// in\n    tag_359:\n      swap3\n      pop\n      pop\n      dup2\n      swap1\n      sstore\n      pop\n        /* \"WandInstruments.sol\":8769:8779  msg.sender */\n      caller\n        /* \"WandInstruments.sol\":8754:8796  sceptersBought(msg.sender, amountSCPtoBuy) */\n      0xffffffffffffffffffffffffffffffffffffffff\n      and\n      0xf633443b01504d269657083d48bb6de98e089cfff672b47fefbed21608b5c779\n        /* \"WandInstruments.sol\":8781:8795  amountSCPtoBuy */\n      dup7\n        /* \"WandInstruments.sol\":8754:8796  sceptersBought(msg.sender, amountSCPtoBuy) */\n      mload(0x40)\n      tag_360\n      swap2\n      swap1\n      tag_54\n      jump\t// in\n    tag_360:\n      mload(0x40)\n      dup1\n      swap2\n      sub\n      swap1\n      log2\n        /* \"WandInstruments.sol\":7667:8804  {\r... */\n      pop\n      pop\n      pop\n        /* \"WandInstruments.sol\":7587:8804  function buyScepter(uint256 amountSCPtoBuy, string memory _stableChosen) public {\r... */\n      pop\n      pop\n      jump\t// out\n        /* \"WandInstruments.sol\":9352:10255  function getGrowthFactor() external view returns (uint256){\r... */\n    tag_165:\n        /* \"WandInstruments.sol\":9402:9409  uint256 */\n      0x00\n        /* \"WandInstruments.sol\":9554:9565  uint256 _gF */\n      dup1\n        /* \"WandInstruments.sol\":9576:9599  uint256 xDaysCircSupply */\n      0x00\n        /* \"WandInstruments.sol\":9610:9625  uint256 numdays */\n      dup1\n        /* \"WandInstruments.sol\":9646:9651  86400 */\n      0x015180\n        /* \"WandInstruments.sol\":9628:9645  daysInCalculation */\n      sload(0x0c)\n        /* \"WandInstruments.sol\":9628:9651  daysInCalculation/86400 */\n      tag_362\n      swap2\n      swap1\n      tag_248\n      jump\t// in\n    tag_362:\n        /* \"WandInstruments.sol\":9610:9651  uint256 numdays = daysInCalculation/86400 */\n      swap1\n      pop\n        /* \"WandInstruments.sol\":9662:9686  uint256 daySinceLaunched */\n      0x00\n        /* \"WandInstruments.sol\":9724:9729  86400 */\n      0x015180\n        /* \"WandInstruments.sol\":9708:9720  timeLaunched */\n      sload(0x0b)\n        /* \"WandInstruments.sol\":9690:9705  block.timestamp */\n      timestamp\n        /* \"WandInstruments.sol\":9690:9720  block.timestamp - timeLaunched */\n      tag_363\n      swap2\n      swap1\n      tag_250\n      jump\t// in\n    tag_363:\n        /* \"WandInstruments.sol\":9689:9729  (block.timestamp - timeLaunched) / 86400 */\n      tag_364\n      swap2\n      swap1\n      tag_248\n      jump\t// in\n    tag_364:\n        /* \"WandInstruments.sol\":9662:9729  uint256 daySinceLaunched = (block.timestamp - timeLaunched) / 86400 */\n      swap1\n      pop\n        /* \"WandInstruments.sol\":9740:9749  uint256 d */\n      0x00\n        /* \"WandInstruments.sol\":9794:9795  0 */\n      dup1\n        /* \"WandInstruments.sol\":9774:9790  daySinceLaunched */\n      dup3\n        /* \"WandInstruments.sol\":9774:9795  daySinceLaunched == 0 */\n      eq\n        /* \"WandInstruments.sol\":9770:10062  if (daySinceLaunched == 0) {\r... */\n      iszero\n      tag_365\n      jumpi\n        /* \"WandInstruments.sol\":9826:9848  circulatingSupplyXDays */\n      0x19\n        /* \"WandInstruments.sol\":9826:9851  circulatingSupplyXDays[0] */\n      0x00\n        /* \"WandInstruments.sol\":9849:9850  0 */\n      dup1\n        /* \"WandInstruments.sol\":9826:9851  circulatingSupplyXDays[0] */\n      dup2\n      mstore\n      0x20\n      add\n      swap1\n      dup2\n      mstore\n      0x20\n      add\n      0x00\n      keccak256\n      sload\n        /* \"WandInstruments.sol\":9808:9851  xDaysCircSupply = circulatingSupplyXDays[0] */\n      swap4\n      pop\n        /* \"WandInstruments.sol\":9770:10062  if (daySinceLaunched == 0) {\r... */\n      jump(tag_366)\n    tag_365:\n        /* \"WandInstruments.sol\":9920:9927  numdays */\n      dup3\n        /* \"WandInstruments.sol\":9901:9917  daySinceLaunched */\n      dup3\n        /* \"WandInstruments.sol\":9901:9927  daySinceLaunched - numdays */\n      tag_370\n      swap2\n      swap1\n      tag_250\n      jump\t// in\n    tag_370:\n        /* \"WandInstruments.sol\":9897:9927  d = daySinceLaunched - numdays */\n      swap1\n      pop\n        /* \"WandInstruments.sol\":9892:10051  for (d = daySinceLaunched - numdays; d < daySinceLaunched; d++) {  //for loop example\r... */\n    tag_367:\n        /* \"WandInstruments.sol\":9933:9949  daySinceLaunched */\n      dup2\n        /* \"WandInstruments.sol\":9929:9930  d */\n      dup2\n        /* \"WandInstruments.sol\":9929:9949  d < daySinceLaunched */\n      lt\n        /* \"WandInstruments.sol\":9892:10051  for (d = daySinceLaunched - numdays; d < daySinceLaunched; d++) {  //for loop example\r... */\n      iszero\n      tag_368\n      jumpi\n        /* \"WandInstruments.sol\":10010:10032  circulatingSupplyXDays */\n      0x19\n        /* \"WandInstruments.sol\":10010:10035  circulatingSupplyXDays[d] */\n      0x00\n        /* \"WandInstruments.sol\":10033:10034  d */\n      dup3\n        /* \"WandInstruments.sol\":10010:10035  circulatingSupplyXDays[d] */\n      dup2\n      mstore\n      0x20\n      add\n      swap1\n      dup2\n      mstore\n      0x20\n      add\n      0x00\n      keccak256\n      sload\n        /* \"WandInstruments.sol\":9991:10035  xDaysCircSupply += circulatingSupplyXDays[d] */\n      dup5\n      tag_371\n      swap2\n      swap1\n      tag_245\n      jump\t// in\n    tag_371:\n      swap4\n      pop\n        /* \"WandInstruments.sol\":9951:9954  d++ */\n      dup1\n      dup1\n      tag_372\n      swap1\n      tag_260\n      jump\t// in\n    tag_372:\n      swap2\n      pop\n      pop\n        /* \"WandInstruments.sol\":9892:10051  for (d = daySinceLaunched - numdays; d < daySinceLaunched; d++) {  //for loop example\r... */\n      jump(tag_367)\n    tag_368:\n        /* \"WandInstruments.sol\":9770:10062  if (daySinceLaunched == 0) {\r... */\n    tag_366:\n        /* \"WandInstruments.sol\":10077:10130  decDiv18(this.getTokensBoughtXDays(),xDaysCircSupply) */\n      tag_373\n        /* \"WandInstruments.sol\":10086:10090  this */\n      address\n        /* \"WandInstruments.sol\":10086:10111  this.getTokensBoughtXDays */\n      0xffffffffffffffffffffffffffffffffffffffff\n      and\n      0x71cd58f9\n        /* \"WandInstruments.sol\":10086:10113  this.getTokensBoughtXDays() */\n      mload(0x40)\n      dup2\n      0xffffffff\n      and\n      0xe0\n      shl\n      dup2\n      mstore\n      0x04\n      add\n      0x20\n      mload(0x40)\n      dup1\n      dup4\n      sub\n      dup2\n      dup7\n      dup1\n      extcodesize\n      iszero\n      dup1\n      iszero\n      tag_374\n      jumpi\n      0x00\n      dup1\n      revert\n    tag_374:\n      pop\n      gas\n      staticcall\n      iszero\n      dup1\n      iszero\n      tag_376\n      jumpi\n      returndatasize\n      0x00\n      dup1\n      returndatacopy\n      revert(0x00, returndatasize)\n    tag_376:\n      pop\n      pop\n      pop\n      pop\n      mload(0x40)\n      returndatasize\n      not(0x1f)\n      0x1f\n      dup3\n      add\n      and\n      dup3\n      add\n      dup1\n      0x40\n      mstore\n      pop\n      dup2\n      add\n      swap1\n      tag_377\n      swap2\n      swap1\n      tag_239\n      jump\t// in\n    tag_377:\n        /* \"WandInstruments.sol\":10114:10129  xDaysCircSupply */\n      dup6\n        /* \"WandInstruments.sol\":10077:10085  decDiv18 */\n      tag_131\n        /* \"WandInstruments.sol\":10077:10130  decDiv18(this.getTokensBoughtXDays(),xDaysCircSupply) */\n      jump\t// in\n    tag_373:\n        /* \"WandInstruments.sol\":10071:10130  _gF = decDiv18(this.getTokensBoughtXDays(),xDaysCircSupply) */\n      swap5\n      pop\n        /* \"WandInstruments.sol\":10150:10168  300000000000000000 */\n      0x0429d069189e0000\n        /* \"WandInstruments.sol\":10144:10147  _gF */\n      dup6\n        /* \"WandInstruments.sol\":10144:10168  _gF > 300000000000000000 */\n      gt\n        /* \"WandInstruments.sol\":10140:10227  if (_gF > 300000000000000000)\r... */\n      iszero\n      tag_378\n      jumpi\n        /* \"WandInstruments.sol\":10198:10216  300000000000000000 */\n      0x0429d069189e0000\n        /* \"WandInstruments.sol\":10192:10216  _gF = 300000000000000000 */\n      swap5\n      pop\n        /* \"WandInstruments.sol\":10140:10227  if (_gF > 300000000000000000)\r... */\n    tag_378:\n        /* \"WandInstruments.sol\":10243:10246  _gF */\n      dup5\n        /* \"WandInstruments.sol\":10236:10246  return _gF */\n      swap6\n      pop\n      pop\n      pop\n      pop\n      pop\n      pop\n        /* \"WandInstruments.sol\":9352:10255  function getGrowthFactor() external view returns (uint256){\r... */\n      swap1\n      jump\t// out\n        /* \"WandInstruments.sol\":14216:14305  function whitelist(address _addr) public onlyOwner {  \r... */\n    tag_170:\n      pop\n      jump\t// out\n        /* \"WandInstruments.sol\":1821:1882  mapping (string => stableTokensParams) public stableERC20Info */\n    tag_175:\n      0x1a\n      dup2\n      dup1\n      mload\n      0x20\n      dup2\n      add\n      dup3\n      add\n      dup1\n      mload\n      dup5\n      dup3\n      mstore\n      0x20\n      dup4\n      add\n      0x20\n      dup6\n      add\n      keccak256\n      dup2\n      dup4\n      mstore\n      dup1\n      swap6\n      pop\n      pop\n      pop\n      pop\n      pop\n      pop\n      0x00\n      swap2\n      pop\n      swap1\n      pop\n      dup1\n      0x00\n      add\n      0x00\n      swap1\n      sload\n      swap1\n      0x0100\n      exp\n      swap1\n      div\n      0xffffffffffffffffffffffffffffffffffffffff\n      and\n      swap1\n      dup1\n      0x01\n      add\n      sload\n      swap1\n      pop\n      dup3\n      jump\t// out\n        /* \"WandInstruments.sol\":8812:9319  function claimLockedUSDC(address _claimant, string memory _stableChosen) public {\r... */\n    tag_182:\n        /* \"WandInstruments.sol\":8931:8950  withheldWithdrawals */\n      0x1b\n        /* \"WandInstruments.sol\":8931:8961  withheldWithdrawals[_claimant] */\n      0x00\n        /* \"WandInstruments.sol\":8951:8960  _claimant */\n      dup4\n        /* \"WandInstruments.sol\":8931:8961  withheldWithdrawals[_claimant] */\n      0xffffffffffffffffffffffffffffffffffffffff\n      and\n      0xffffffffffffffffffffffffffffffffffffffff\n      and\n      dup2\n      mstore\n      0x20\n      add\n      swap1\n      dup2\n      mstore\n      0x20\n      add\n      0x00\n      keccak256\n        /* \"WandInstruments.sol\":8931:8974  withheldWithdrawals[_claimant].timeUnlocked */\n      0x00\n      add\n      sload\n        /* \"WandInstruments.sol\":8912:8927  block.timestamp */\n      timestamp\n        /* \"WandInstruments.sol\":8912:8974  block.timestamp >= withheldWithdrawals[_claimant].timeUnlocked */\n      lt\n      iszero\n        /* \"WandInstruments.sol\":8903:8991  require (block.timestamp >= withheldWithdrawals[_claimant].timeUnlocked, \"Not unlocked\") */\n      tag_382\n      jumpi\n      mload(0x40)\n      0x08c379a000000000000000000000000000000000000000000000000000000000\n      dup2\n      mstore\n      0x04\n      add\n      tag_383\n      swap1\n      tag_384\n      jump\t// in\n    tag_383:\n      mload(0x40)\n      dup1\n      swap2\n      sub\n      swap1\n      revert\n    tag_382:\n        /* \"WandInstruments.sol\":9023:9038  stableERC20Info */\n      0x1a\n        /* \"WandInstruments.sol\":9039:9052  _stableChosen */\n      dup2\n        /* \"WandInstruments.sol\":9023:9053  stableERC20Info[_stableChosen] */\n      mload(0x40)\n      tag_385\n      swap2\n      swap1\n      tag_331\n      jump\t// in\n    tag_385:\n      swap1\n      dup2\n      mstore\n      0x20\n      add\n      mload(0x40)\n      dup1\n      swap2\n      sub\n      swap1\n      keccak256\n        /* \"WandInstruments.sol\":9023:9069  stableERC20Info[_stableChosen].contractAddress */\n      0x00\n      add\n      0x00\n      swap1\n      sload\n      swap1\n      0x0100\n      exp\n      swap1\n      div\n      0xffffffffffffffffffffffffffffffffffffffff\n      and\n        /* \"WandInstruments.sol\":9002:9013  tokenStable */\n      0x16\n      0x00\n        /* \"WandInstruments.sol\":9002:9070  tokenStable = IERC20(stableERC20Info[_stableChosen].contractAddress) */\n      0x0100\n      exp\n      dup2\n      sload\n      dup2\n      0xffffffffffffffffffffffffffffffffffffffff\n      mul\n      not\n      and\n      swap1\n      dup4\n      0xffffffffffffffffffffffffffffffffffffffff\n      and\n      mul\n      or\n      swap1\n      sstore\n      pop\n        /* \"WandInstruments.sol\":9152:9169  uint256 claimAmts */\n      0x00\n        /* \"WandInstruments.sol\":9192:9211  withheldWithdrawals */\n      0x1b\n        /* \"WandInstruments.sol\":9192:9222  withheldWithdrawals[_claimant] */\n      0x00\n        /* \"WandInstruments.sol\":9212:9221  _claimant */\n      dup5\n        /* \"WandInstruments.sol\":9192:9222  withheldWithdrawals[_claimant] */\n      0xffffffffffffffffffffffffffffffffffffffff\n      and\n      0xffffffffffffffffffffffffffffffffffffffff\n      and\n      dup2\n      mstore\n      0x20\n      add\n      swap1\n      dup2\n      mstore\n      0x20\n      add\n      0x00\n      keccak256\n        /* \"WandInstruments.sol\":9192:9230  withheldWithdrawals[_claimant].amounts */\n      0x01\n      add\n      sload\n        /* \"WandInstruments.sol\":9180:9230  claimAmts = withheldWithdrawals[_claimant].amounts */\n      swap1\n      pop\n        /* \"WandInstruments.sol\":9241:9309  _safeTransferFrom(tokenStable, address(this), msg.sender, claimAmts) */\n      tag_386\n        /* \"WandInstruments.sol\":9259:9270  tokenStable */\n      0x16\n      0x00\n      swap1\n      sload\n      swap1\n      0x0100\n      exp\n      swap1\n      div\n      0xffffffffffffffffffffffffffffffffffffffff\n      and\n        /* \"WandInstruments.sol\":9280:9284  this */\n      address\n        /* \"WandInstruments.sol\":9287:9297  msg.sender */\n      caller\n        /* \"WandInstruments.sol\":9299:9308  claimAmts */\n      dup5\n        /* \"WandInstruments.sol\":9241:9258  _safeTransferFrom */\n      tag_284\n        /* \"WandInstruments.sol\":9241:9309  _safeTransferFrom(tokenStable, address(this), msg.sender, claimAmts) */\n      jump\t// in\n    tag_386:\n        /* \"WandInstruments.sol\":8892:9319  {\r... */\n      pop\n        /* \"WandInstruments.sol\":8812:9319  function claimLockedUSDC(address _claimant, string memory _stableChosen) public {\r... */\n      pop\n      pop\n      jump\t// out\n        /* \"WandInstruments.sol\":581:615  address public scepterTreasuryAddr */\n    tag_185:\n      0x07\n      0x00\n      swap1\n      sload\n      swap1\n      0x0100\n      exp\n      swap1\n      div\n      0xffffffffffffffffffffffffffffffffffffffff\n      and\n      dup2\n      jump\t// out\n        /* \"WandInstruments.sol\":1407:1425  IERC20 public BTON */\n    tag_189:\n      0x15\n      0x00\n      swap1\n      sload\n      swap1\n      0x0100\n      exp\n      swap1\n      div\n      0xffffffffffffffffffffffffffffffffffffffff\n      and\n      dup2\n      jump\t// out\n        /* \"WandInstruments.sol\":5095:6819  function cashOutScepter(uint256 amountSCPtoSell, uint256 timeChosenLocked, string memory _stableChosen) public payable{\r... */\n    tag_194:\n        /* \"WandInstruments.sol\":5306:5321  stableERC20Info */\n      0x1a\n        /* \"WandInstruments.sol\":5322:5335  _stableChosen */\n      dup2\n        /* \"WandInstruments.sol\":5306:5336  stableERC20Info[_stableChosen] */\n      mload(0x40)\n      tag_388\n      swap2\n      swap1\n      tag_331\n      jump\t// in\n    tag_388:\n      swap1\n      dup2\n      mstore\n      0x20\n      add\n      mload(0x40)\n      dup1\n      swap2\n      sub\n      swap1\n      keccak256\n        /* \"WandInstruments.sol\":5306:5352  stableERC20Info[_stableChosen].contractAddress */\n      0x00\n      add\n      0x00\n      swap1\n      sload\n      swap1\n      0x0100\n      exp\n      swap1\n      div\n      0xffffffffffffffffffffffffffffffffffffffff\n      and\n        /* \"WandInstruments.sol\":5285:5296  tokenStable */\n      0x16\n      0x00\n        /* \"WandInstruments.sol\":5285:5353  tokenStable = IERC20(stableERC20Info[_stableChosen].contractAddress) */\n      0x0100\n      exp\n      dup2\n      sload\n      dup2\n      0xffffffffffffffffffffffffffffffffffffffff\n      mul\n      not\n      and\n      swap1\n      dup4\n      0xffffffffffffffffffffffffffffffffffffffff\n      and\n      mul\n      or\n      swap1\n      sstore\n      pop\n        /* \"WandInstruments.sol\":5364:5390  uint256 trader_tsc_balance */\n      0x00\n        /* \"WandInstruments.sol\":5393:5396  tSC */\n      0x12\n      0x00\n      swap1\n      sload\n      swap1\n      0x0100\n      exp\n      swap1\n      div\n      0xffffffffffffffffffffffffffffffffffffffff\n      and\n        /* \"WandInstruments.sol\":5393:5406  tSC.balanceOf */\n      0xffffffffffffffffffffffffffffffffffffffff\n      and\n      0x70a08231\n        /* \"WandInstruments.sol\":5407:5417  msg.sender */\n      caller\n        /* \"WandInstruments.sol\":5393:5418  tSC.balanceOf(msg.sender) */\n      mload(0x40)\n      dup3\n      0xffffffff\n      and\n      0xe0\n      shl\n      dup2\n      mstore\n      0x04\n      add\n      tag_389\n      swap2\n      swap1\n      tag_59\n      jump\t// in\n    tag_389:\n      0x20\n      mload(0x40)\n      dup1\n      dup4\n      sub\n      dup2\n      dup7\n      dup1\n      extcodesize\n      iszero\n      dup1\n      iszero\n      tag_390\n      jumpi\n      0x00\n      dup1\n      revert\n    tag_390:\n      pop\n      gas\n      staticcall\n      iszero\n      dup1\n      iszero\n      tag_392\n      jumpi\n      returndatasize\n      0x00\n      dup1\n      returndatacopy\n      revert(0x00, returndatasize)\n    tag_392:\n      pop\n      pop\n      pop\n      pop\n      mload(0x40)\n      returndatasize\n      not(0x1f)\n      0x1f\n      dup3\n      add\n      and\n      dup3\n      add\n      dup1\n      0x40\n      mstore\n      pop\n      dup2\n      add\n      swap1\n      tag_393\n      swap2\n      swap1\n      tag_239\n      jump\t// in\n    tag_393:\n        /* \"WandInstruments.sol\":5364:5418  uint256 trader_tsc_balance = tSC.balanceOf(msg.sender) */\n      swap1\n      pop\n        /* \"WandInstruments.sol\":5458:5473  amountSCPtoSell */\n      dup4\n        /* \"WandInstruments.sol\":5437:5455  trader_tsc_balance */\n      dup2\n        /* \"WandInstruments.sol\":5437:5473  trader_tsc_balance > amountSCPtoSell */\n      gt\n        /* \"WandInstruments.sol\":5429:5504  require(trader_tsc_balance > amountSCPtoSell, \"You dont have that amount!\") */\n      tag_394\n      jumpi\n      mload(0x40)\n      0x08c379a000000000000000000000000000000000000000000000000000000000\n      dup2\n      mstore\n      0x04\n      add\n      tag_395\n      swap1\n      tag_282\n      jump\t// in\n    tag_395:\n      mload(0x40)\n      dup1\n      swap2\n      sub\n      swap1\n      revert\n    tag_394:\n        /* \"WandInstruments.sol\":5706:5717  tokenStable */\n      0x16\n      0x00\n      swap1\n      sload\n      swap1\n      0x0100\n      exp\n      swap1\n      div\n      0xffffffffffffffffffffffffffffffffffffffff\n      and\n        /* \"WandInstruments.sol\":5706:5726  tokenStable.transfer */\n      0xffffffffffffffffffffffffffffffffffffffff\n      and\n      0xa9059cbb\n        /* \"WandInstruments.sol\":5727:5737  msg.sender */\n      caller\n        /* \"WandInstruments.sol\":283:289  10**18 */\n      0x0de0b6b3a7640000\n        /* \"WandInstruments.sol\":5758:5759  1 */\n      0x01\n        /* \"WandInstruments.sol\":5758:5770  1*(DECIMALS) */\n      tag_396\n      swap2\n      swap1\n      tag_348\n      jump\t// in\n    tag_396:\n        /* \"WandInstruments.sol\":5739:5754  amountSCPtoSell */\n      dup8\n        /* \"WandInstruments.sol\":5739:5771  amountSCPtoSell + (1*(DECIMALS)) */\n      tag_397\n      swap2\n      swap1\n      tag_245\n      jump\t// in\n    tag_397:\n        /* \"WandInstruments.sol\":5706:5772  tokenStable.transfer(msg.sender, amountSCPtoSell + (1*(DECIMALS))) */\n      mload(0x40)\n      dup4\n      0xffffffff\n      and\n      0xe0\n      shl\n      dup2\n      mstore\n      0x04\n      add\n      tag_398\n      swap3\n      swap2\n      swap1\n      tag_177\n      jump\t// in\n    tag_398:\n      0x20\n      mload(0x40)\n      dup1\n      dup4\n      sub\n      dup2\n      0x00\n      dup8\n      dup1\n      extcodesize\n      iszero\n      dup1\n      iszero\n      tag_399\n      jumpi\n      0x00\n      dup1\n      revert\n    tag_399:\n      pop\n      gas\n      call\n      iszero\n      dup1\n      iszero\n      tag_401\n      jumpi\n      returndatasize\n      0x00\n      dup1\n      returndatacopy\n      revert(0x00, returndatasize)\n    tag_401:\n      pop\n      pop\n      pop\n      pop\n      mload(0x40)\n      returndatasize\n      not(0x1f)\n      0x1f\n      dup3\n      add\n      and\n      dup3\n      add\n      dup1\n      0x40\n      mstore\n      pop\n      dup2\n      add\n      swap1\n      tag_402\n      swap2\n      swap1\n      tag_403\n      jump\t// in\n    tag_402:\n      pop\n        /* \"WandInstruments.sol\":5875:5941  _safeTransferFrom(tSC, msg.sender, address(this), amountSCPtoSell) */\n      tag_404\n        /* \"WandInstruments.sol\":5893:5896  tSC */\n      0x12\n      0x00\n      swap1\n      sload\n      swap1\n      0x0100\n      exp\n      swap1\n      div\n      0xffffffffffffffffffffffffffffffffffffffff\n      and\n        /* \"WandInstruments.sol\":5898:5908  msg.sender */\n      caller\n        /* \"WandInstruments.sol\":5918:5922  this */\n      address\n        /* \"WandInstruments.sol\":5925:5940  amountSCPtoSell */\n      dup8\n        /* \"WandInstruments.sol\":5875:5892  _safeTransferFrom */\n      tag_284\n        /* \"WandInstruments.sol\":5875:5941  _safeTransferFrom(tSC, msg.sender, address(this), amountSCPtoSell) */\n      jump\t// in\n    tag_404:\n        /* \"WandInstruments.sol\":5955:5970  uint256 usdcAmt */\n      0x00\n        /* \"WandInstruments.sol\":6017:6032  amountSCPtoSell */\n      dup5\n        /* \"WandInstruments.sol\":5995:5999  this */\n      address\n        /* \"WandInstruments.sol\":5995:6012  this.getSellPrice */\n      0xffffffffffffffffffffffffffffffffffffffff\n      and\n      0x43d32e9c\n        /* \"WandInstruments.sol\":5995:6014  this.getSellPrice() */\n      mload(0x40)\n      dup2\n      0xffffffff\n      and\n      0xe0\n      shl\n      dup2\n      mstore\n      0x04\n      add\n      0x20\n      mload(0x40)\n      dup1\n      dup4\n      sub\n      dup2\n      dup7\n      dup1\n      extcodesize\n      iszero\n      dup1\n      iszero\n      tag_405\n      jumpi\n      0x00\n      dup1\n      revert\n    tag_405:\n      pop\n      gas\n      staticcall\n      iszero\n      dup1\n      iszero\n      tag_407\n      jumpi\n      returndatasize\n      0x00\n      dup1\n      returndatacopy\n      revert(0x00, returndatasize)\n    tag_407:\n      pop\n      pop\n      pop\n      pop\n      mload(0x40)\n      returndatasize\n      not(0x1f)\n      0x1f\n      dup3\n      add\n      and\n      dup3\n      add\n      dup1\n      0x40\n      mstore\n      pop\n      dup2\n      add\n      swap1\n      tag_408\n      swap2\n      swap1\n      tag_239\n      jump\t// in\n    tag_408:\n        /* \"WandInstruments.sol\":5995:6032  this.getSellPrice() * amountSCPtoSell */\n      tag_409\n      swap2\n      swap1\n      tag_348\n      jump\t// in\n    tag_409:\n        /* \"WandInstruments.sol\":5985:6032  usdcAmt = this.getSellPrice() * amountSCPtoSell */\n      swap1\n      pop\n        /* \"WandInstruments.sol\":6307:6323  uint256 dInArray */\n      0x00\n        /* \"WandInstruments.sol\":6357:6362  86400 */\n      0x015180\n        /* \"WandInstruments.sol\":6343:6355  timeLaunched */\n      sload(0x0b)\n        /* \"WandInstruments.sol\":6326:6341  block.timestamp */\n      timestamp\n        /* \"WandInstruments.sol\":6326:6355  block.timestamp- timeLaunched */\n      tag_410\n      swap2\n      swap1\n      tag_250\n      jump\t// in\n    tag_410:\n        /* \"WandInstruments.sol\":6325:6362  (block.timestamp- timeLaunched)/86400 */\n      tag_411\n      swap2\n      swap1\n      tag_248\n      jump\t// in\n    tag_411:\n        /* \"WandInstruments.sol\":6307:6362  uint256 dInArray =(block.timestamp- timeLaunched)/86400 */\n      swap1\n      pop\n        /* \"WandInstruments.sol\":6403:6418  amountSCPtoSell */\n      dup6\n        /* \"WandInstruments.sol\":6374:6389  tokensSoldXDays */\n      0x18\n        /* \"WandInstruments.sol\":6374:6399  tokensSoldXDays[dInArray] */\n      0x00\n        /* \"WandInstruments.sol\":6390:6398  dInArray */\n      dup4\n        /* \"WandInstruments.sol\":6374:6399  tokensSoldXDays[dInArray] */\n      dup2\n      mstore\n      0x20\n      add\n      swap1\n      dup2\n      mstore\n      0x20\n      add\n      0x00\n      keccak256\n      0x00\n        /* \"WandInstruments.sol\":6374:6418  tokensSoldXDays[dInArray] += amountSCPtoSell */\n      dup3\n      dup3\n      sload\n      tag_412\n      swap2\n      swap1\n      tag_245\n      jump\t// in\n    tag_412:\n      swap3\n      pop\n      pop\n      dup2\n      swap1\n      sstore\n      pop\n        /* \"WandInstruments.sol\":6465:6480  amountSCPtoSell */\n      dup6\n        /* \"WandInstruments.sol\":6429:6451  circulatingSupplyXDays */\n      0x19\n        /* \"WandInstruments.sol\":6429:6461  circulatingSupplyXDays[dInArray] */\n      0x00\n        /* \"WandInstruments.sol\":6452:6460  dInArray */\n      dup4\n        /* \"WandInstruments.sol\":6429:6461  circulatingSupplyXDays[dInArray] */\n      dup2\n      mstore\n      0x20\n      add\n      swap1\n      dup2\n      mstore\n      0x20\n      add\n      0x00\n      keccak256\n      0x00\n        /* \"WandInstruments.sol\":6429:6480  circulatingSupplyXDays[dInArray] -= amountSCPtoSell */\n      dup3\n      dup3\n      sload\n      tag_413\n      swap2\n      swap1\n      tag_250\n      jump\t// in\n    tag_413:\n      swap3\n      pop\n      pop\n      dup2\n      swap1\n      sstore\n      pop\n        /* \"WandInstruments.sol\":5213:6819  {\r... */\n      pop\n      pop\n      pop\n        /* \"WandInstruments.sol\":5095:6819  function cashOutScepter(uint256 amountSCPtoSell, uint256 timeChosenLocked, string memory _stableChosen) public payable{\r... */\n      pop\n      pop\n      pop\n      jump\t// out\n        /* \"WandInstruments.sol\":332:357  uint256 public sellFactor */\n    tag_197:\n      sload(0x01)\n      dup2\n      jump\t// out\n        /* \"WandInstruments.sol\":1382:1400  IERC20 public WAND */\n    tag_201:\n      0x14\n      0x00\n      swap1\n      sload\n      swap1\n      0x0100\n      exp\n      swap1\n      div\n      0xffffffffffffffffffffffffffffffffffffffff\n      and\n      dup2\n      jump\t// out\n        /* \"WandInstruments.sol\":13847:14133  function getTokensSoldXDays() external view returns (uint256){\r... */\n    tag_205:\n        /* \"WandInstruments.sol\":13900:13907  uint256 */\n      0x00\n        /* \"WandInstruments.sol\":13919:13934  uint256 soldNum */\n      dup1\n        /* \"WandInstruments.sol\":13945:13954  uint256 d */\n      0x00\n        /* \"WandInstruments.sol\":13965:13980  uint256 numdays */\n      dup1\n        /* \"WandInstruments.sol\":14001:14006  86400 */\n      0x015180\n        /* \"WandInstruments.sol\":13983:14000  daysInCalculation */\n      sload(0x0c)\n        /* \"WandInstruments.sol\":13983:14006  daysInCalculation/86400 */\n      tag_415\n      swap2\n      swap1\n      tag_248\n      jump\t// in\n    tag_415:\n        /* \"WandInstruments.sol\":13965:14006  uint256 numdays = daysInCalculation/86400 */\n      swap1\n      pop\n        /* \"WandInstruments.sol\":14028:14029  0 */\n      0x00\n        /* \"WandInstruments.sol\":14024:14029  d = 0 */\n      swap2\n      pop\n        /* \"WandInstruments.sol\":14019:14102  for (d = 0; d < numdays; d++) { \r... */\n    tag_416:\n        /* \"WandInstruments.sol\":14035:14042  numdays */\n      dup1\n        /* \"WandInstruments.sol\":14031:14032  d */\n      dup3\n        /* \"WandInstruments.sol\":14031:14042  d < numdays */\n      lt\n        /* \"WandInstruments.sol\":14019:14102  for (d = 0; d < numdays; d++) { \r... */\n      iszero\n      tag_417\n      jumpi\n        /* \"WandInstruments.sol\":14074:14089  tokensSoldXDays */\n      0x18\n        /* \"WandInstruments.sol\":14074:14092  tokensSoldXDays[d] */\n      0x00\n        /* \"WandInstruments.sol\":14090:14091  d */\n      dup4\n        /* \"WandInstruments.sol\":14074:14092  tokensSoldXDays[d] */\n      dup2\n      mstore\n      0x20\n      add\n      swap1\n      dup2\n      mstore\n      0x20\n      add\n      0x00\n      keccak256\n      sload\n        /* \"WandInstruments.sol\":14063:14092  soldNum += tokensSoldXDays[d] */\n      dup4\n      tag_419\n      swap2\n      swap1\n      tag_245\n      jump\t// in\n    tag_419:\n      swap3\n      pop\n        /* \"WandInstruments.sol\":14044:14047  d++ */\n      dup2\n      dup1\n      tag_420\n      swap1\n      tag_260\n      jump\t// in\n    tag_420:\n      swap3\n      pop\n      pop\n        /* \"WandInstruments.sol\":14019:14102  for (d = 0; d < numdays; d++) { \r... */\n      jump(tag_416)\n    tag_417:\n        /* \"WandInstruments.sol\":14118:14125  soldNum */\n      dup3\n        /* \"WandInstruments.sol\":14111:14125  return soldNum */\n      swap4\n      pop\n      pop\n      pop\n      pop\n        /* \"WandInstruments.sol\":13847:14133  function getTokensSoldXDays() external view returns (uint256){\r... */\n      swap1\n      jump\t// out\n        /* \"WandInstruments.sol\":14313:14532  function addStable(string memory _ticker, address _addr, uint256 _dec) public onlyOwner {\r... */\n    tag_211:\n        /* \"WandInstruments.sol\":14461:14466  _addr */\n      dup2\n        /* \"WandInstruments.sol\":14418:14433  stableERC20Info */\n      0x1a\n        /* \"WandInstruments.sol\":14434:14441  _ticker */\n      dup5\n        /* \"WandInstruments.sol\":14418:14442  stableERC20Info[_ticker] */\n      mload(0x40)\n      tag_423\n      swap2\n      swap1\n      tag_331\n      jump\t// in\n    tag_423:\n      swap1\n      dup2\n      mstore\n      0x20\n      add\n      mload(0x40)\n      dup1\n      swap2\n      sub\n      swap1\n      keccak256\n        /* \"WandInstruments.sol\":14418:14458  stableERC20Info[_ticker].contractAddress */\n      0x00\n      add\n      0x00\n        /* \"WandInstruments.sol\":14418:14466  stableERC20Info[_ticker].contractAddress = _addr */\n      0x0100\n      exp\n      dup2\n      sload\n      dup2\n      0xffffffffffffffffffffffffffffffffffffffff\n      mul\n      not\n      and\n      swap1\n      dup4\n      0xffffffffffffffffffffffffffffffffffffffff\n      and\n      mul\n      or\n      swap1\n      sstore\n      pop\n        /* \"WandInstruments.sol\":14518:14522  _dec */\n      dup1\n        /* \"WandInstruments.sol\":14477:14492  stableERC20Info */\n      0x1a\n        /* \"WandInstruments.sol\":14493:14500  _ticker */\n      dup5\n        /* \"WandInstruments.sol\":14477:14501  stableERC20Info[_ticker] */\n      mload(0x40)\n      tag_424\n      swap2\n      swap1\n      tag_331\n      jump\t// in\n    tag_424:\n      swap1\n      dup2\n      mstore\n      0x20\n      add\n      mload(0x40)\n      dup1\n      swap2\n      sub\n      swap1\n      keccak256\n        /* \"WandInstruments.sol\":14477:14515  stableERC20Info[_ticker].tokenDecimals */\n      0x01\n      add\n        /* \"WandInstruments.sol\":14477:14522  stableERC20Info[_ticker].tokenDecimals = _dec */\n      dup2\n      swap1\n      sstore\n      pop\n        /* \"WandInstruments.sol\":14313:14532  function addStable(string memory _ticker, address _addr, uint256 _dec) public onlyOwner {\r... */\n      pop\n      pop\n      pop\n      jump\t// out\n        /* \"WandInstruments.sol\":298:325  uint256 public growthFactor */\n    tag_214:\n      sload(0x00)\n      dup2\n      jump\t// out\n        /* \"WandInstruments.sol\":1113:1183  address public testwallet = 0x617F2E2fD72FD9D5503197092aC168c91465E7f2 */\n    tag_218:\n      0x11\n      0x00\n      swap1\n      sload\n      swap1\n      0x0100\n      exp\n      swap1\n      div\n      0xffffffffffffffffffffffffffffffffffffffff\n      and\n      dup2\n      jump\t// out\n        /* \"WandInstruments.sol\":4381:4551  function decMul18(uint x, uint y) public pure returns (uint decProd) {\r... */\n    tag_223:\n        /* \"WandInstruments.sol\":4436:4448  uint decProd */\n      0x00\n        /* \"WandInstruments.sol\":4461:4473  uint prod_xy */\n      dup1\n        /* \"WandInstruments.sol\":4476:4485  mul(x, y) */\n      tag_426\n        /* \"WandInstruments.sol\":4480:4481  x */\n      dup5\n        /* \"WandInstruments.sol\":4483:4484  y */\n      dup5\n        /* \"WandInstruments.sol\":4476:4479  mul */\n      tag_310\n        /* \"WandInstruments.sol\":4476:4485  mul(x, y) */\n      jump\t// in\n    tag_426:\n        /* \"WandInstruments.sol\":4461:4485  uint prod_xy = mul(x, y) */\n      swap1\n      pop\n        /* \"WandInstruments.sol\":283:289  10**18 */\n      0x0de0b6b3a7640000\n        /* \"WandInstruments.sol\":4506:4532  add(prod_xy, DECIMALS / 2) */\n      tag_427\n        /* \"WandInstruments.sol\":4510:4517  prod_xy */\n      dup3\n        /* \"WandInstruments.sol\":4530:4531  2 */\n      0x02\n        /* \"WandInstruments.sol\":283:289  10**18 */\n      0x0de0b6b3a7640000\n        /* \"WandInstruments.sol\":4519:4531  DECIMALS / 2 */\n      tag_428\n      swap2\n      swap1\n      tag_248\n      jump\t// in\n    tag_428:\n        /* \"WandInstruments.sol\":4506:4509  add */\n      tag_313\n        /* \"WandInstruments.sol\":4506:4532  add(prod_xy, DECIMALS / 2) */\n      jump\t// in\n    tag_427:\n        /* \"WandInstruments.sol\":4506:4543  add(prod_xy, DECIMALS / 2) / DECIMALS */\n      tag_429\n      swap2\n      swap1\n      tag_248\n      jump\t// in\n    tag_429:\n        /* \"WandInstruments.sol\":4496:4543  decProd = add(prod_xy, DECIMALS / 2) / DECIMALS */\n      swap2\n      pop\n        /* \"WandInstruments.sol\":4450:4551  {\r... */\n      pop\n        /* \"WandInstruments.sol\":4381:4551  function decMul18(uint x, uint y) public pure returns (uint decProd) {\r... */\n      swap3\n      swap2\n      pop\n      pop\n      jump\t// out\n        /* \"WandInstruments.sol\":546:574  address public treasury1Addr */\n    tag_227:\n      0x06\n      0x00\n      swap1\n      sload\n      swap1\n      0x0100\n      exp\n      swap1\n      div\n      0xffffffffffffffffffffffffffffffffffffffff\n      and\n      dup2\n      jump\t// out\n        /* \"WandInstruments.sol\":11964:12120  function setDaysUsedInFactors(uint256 numDays) public {  \r... */\n    tag_232:\n        /* \"WandInstruments.sol\":12097:12102  86400 */\n      0x015180\n        /* \"WandInstruments.sol\":12087:12094  numDays */\n      dup2\n        /* \"WandInstruments.sol\":12087:12102  numDays * 86400 */\n      tag_431\n      swap2\n      swap1\n      tag_348\n      jump\t// in\n    tag_431:\n        /* \"WandInstruments.sol\":12067:12084  daysInCalculation */\n      0x0c\n        /* \"WandInstruments.sol\":12067:12102  daysInCalculation = numDays * 86400 */\n      dup2\n      swap1\n      sstore\n      pop\n        /* \"WandInstruments.sol\":11964:12120  function setDaysUsedInFactors(uint256 numDays) public {  \r... */\n      pop\n      jump\t// out\n        /* \"WandInstruments.sol\":14544:14806  function _safeTransferFrom(\r... */\n    tag_284:\n        /* \"WandInstruments.sol\":14692:14701  bool sent */\n      0x00\n        /* \"WandInstruments.sol\":14704:14709  token */\n      dup5\n        /* \"WandInstruments.sol\":14704:14722  token.transferFrom */\n      0xffffffffffffffffffffffffffffffffffffffff\n      and\n      0x23b872dd\n        /* \"WandInstruments.sol\":14723:14729  sender */\n      dup6\n        /* \"WandInstruments.sol\":14731:14740  recipient */\n      dup6\n        /* \"WandInstruments.sol\":14742:14748  amount */\n      dup6\n        /* \"WandInstruments.sol\":14704:14749  token.transferFrom(sender, recipient, amount) */\n      mload(0x40)\n      dup5\n      0xffffffff\n      and\n      0xe0\n      shl\n      dup2\n      mstore\n      0x04\n      add\n      tag_433\n      swap4\n      swap3\n      swap2\n      swap1\n      tag_434\n      jump\t// in\n    tag_433:\n      0x20\n      mload(0x40)\n      dup1\n      dup4\n      sub\n      dup2\n      0x00\n      dup8\n      dup1\n      extcodesize\n      iszero\n      dup1\n      iszero\n      tag_435\n      jumpi\n      0x00\n      dup1\n      revert\n    tag_435:\n      pop\n      gas\n      call\n      iszero\n      dup1\n      iszero\n      tag_437\n      jumpi\n      returndatasize\n      0x00\n      dup1\n      returndatacopy\n      revert(0x00, returndatasize)\n    tag_437:\n      pop\n      pop\n      pop\n      pop\n      mload(0x40)\n      returndatasize\n      not(0x1f)\n      0x1f\n      dup3\n      add\n      and\n      dup3\n      add\n      dup1\n      0x40\n      mstore\n      pop\n      dup2\n      add\n      swap1\n      tag_438\n      swap2\n      swap1\n      tag_403\n      jump\t// in\n    tag_438:\n        /* \"WandInstruments.sol\":14692:14749  bool sent = token.transferFrom(sender, recipient, amount) */\n      swap1\n      pop\n        /* \"WandInstruments.sol\":14768:14772  sent */\n      dup1\n        /* \"WandInstruments.sol\":14760:14798  require(sent, \"Token transfer failed\") */\n      tag_439\n      jumpi\n      mload(0x40)\n      0x08c379a000000000000000000000000000000000000000000000000000000000\n      dup2\n      mstore\n      0x04\n      add\n      tag_440\n      swap1\n      tag_441\n      jump\t// in\n    tag_440:\n      mload(0x40)\n      dup1\n      swap2\n      sub\n      swap1\n      revert\n    tag_439:\n        /* \"WandInstruments.sol\":14681:14806  {\r... */\n      pop\n        /* \"WandInstruments.sol\":14544:14806  function _safeTransferFrom(\r... */\n      pop\n      pop\n      pop\n      pop\n      jump\t// out\n        /* \"WandInstruments.sol\":3566:3808  function mul(uint256 a, uint256 b) internal pure returns (uint256) {\r... */\n    tag_310:\n        /* \"WandInstruments.sol\":3624:3631  uint256 */\n      0x00\n        /* \"WandInstruments.sol\":3653:3654  0 */\n      dup1\n        /* \"WandInstruments.sol\":3648:3649  a */\n      dup4\n        /* \"WandInstruments.sol\":3648:3654  a == 0 */\n      eq\n        /* \"WandInstruments.sol\":3644:3687  if (a == 0) {\r... */\n      iszero\n      tag_443\n      jumpi\n        /* \"WandInstruments.sol\":3674:3675  0 */\n      0x00\n        /* \"WandInstruments.sol\":3667:3675  return 0 */\n      swap1\n      pop\n      jump(tag_442)\n        /* \"WandInstruments.sol\":3644:3687  if (a == 0) {\r... */\n    tag_443:\n        /* \"WandInstruments.sol\":3697:3706  uint256 c */\n      0x00\n        /* \"WandInstruments.sol\":3713:3714  b */\n      dup3\n        /* \"WandInstruments.sol\":3709:3710  a */\n      dup5\n        /* \"WandInstruments.sol\":3709:3714  a * b */\n      tag_444\n      swap2\n      swap1\n      tag_348\n      jump\t// in\n    tag_444:\n        /* \"WandInstruments.sol\":3697:3714  uint256 c = a * b */\n      swap1\n      pop\n        /* \"WandInstruments.sol\":3742:3743  b */\n      dup3\n        /* \"WandInstruments.sol\":3737:3738  a */\n      dup5\n        /* \"WandInstruments.sol\":3733:3734  c */\n      dup3\n        /* \"WandInstruments.sol\":3733:3738  c / a */\n      tag_445\n      swap2\n      swap1\n      tag_248\n      jump\t// in\n    tag_445:\n        /* \"WandInstruments.sol\":3733:3743  c / a == b */\n      eq\n        /* \"WandInstruments.sol\":3725:3781  require(c / a == b, \"uint overflow from multiplication\") */\n      tag_446\n      jumpi\n      mload(0x40)\n      0x08c379a000000000000000000000000000000000000000000000000000000000\n      dup2\n      mstore\n      0x04\n      add\n      tag_447\n      swap1\n      tag_448\n      jump\t// in\n    tag_447:\n      mload(0x40)\n      dup1\n      swap2\n      sub\n      swap1\n      revert\n    tag_446:\n        /* \"WandInstruments.sol\":3799:3800  c */\n      dup1\n        /* \"WandInstruments.sol\":3792:3800  return c */\n      swap2\n      pop\n      pop\n        /* \"WandInstruments.sol\":3566:3808  function mul(uint256 a, uint256 b) internal pure returns (uint256) {\r... */\n    tag_442:\n      swap3\n      swap2\n      pop\n      pop\n      jump\t// out\n        /* \"WandInstruments.sol\":4184:4369  function add(uint256 a, uint256 b) internal pure returns (uint256) {\r... */\n    tag_313:\n        /* \"WandInstruments.sol\":4242:4249  uint256 */\n      0x00\n        /* \"WandInstruments.sol\":4262:4271  uint256 c */\n      dup1\n        /* \"WandInstruments.sol\":4278:4279  b */\n      dup3\n        /* \"WandInstruments.sol\":4274:4275  a */\n      dup5\n        /* \"WandInstruments.sol\":4274:4279  a + b */\n      tag_450\n      swap2\n      swap1\n      tag_245\n      jump\t// in\n    tag_450:\n        /* \"WandInstruments.sol\":4262:4279  uint256 c = a + b */\n      swap1\n      pop\n        /* \"WandInstruments.sol\":4303:4304  a */\n      dup4\n        /* \"WandInstruments.sol\":4298:4299  c */\n      dup2\n        /* \"WandInstruments.sol\":4298:4304  c >= a */\n      lt\n      iszero\n        /* \"WandInstruments.sol\":4290:4342  require(c >= a, \"uint overflow from multiplication\") */\n      tag_451\n      jumpi\n      mload(0x40)\n      0x08c379a000000000000000000000000000000000000000000000000000000000\n      dup2\n      mstore\n      0x04\n      add\n      tag_452\n      swap1\n      tag_448\n      jump\t// in\n    tag_452:\n      mload(0x40)\n      dup1\n      swap2\n      sub\n      swap1\n      revert\n    tag_451:\n        /* \"WandInstruments.sol\":4360:4361  c */\n      dup1\n        /* \"WandInstruments.sol\":4353:4361  return c */\n      swap2\n      pop\n      pop\n        /* \"WandInstruments.sol\":4184:4369  function add(uint256 a, uint256 b) internal pure returns (uint256) {\r... */\n      swap3\n      swap2\n      pop\n      pop\n      jump\t// out\n        /* \"#utility.yul\":7:419   */\n    tag_454:\n        /* \"#utility.yul\":85:90   */\n      0x00\n        /* \"#utility.yul\":110:176   */\n      tag_456\n        /* \"#utility.yul\":126:175   */\n      tag_457\n        /* \"#utility.yul\":168:174   */\n      dup5\n        /* \"#utility.yul\":126:175   */\n      tag_458\n      jump\t// in\n    tag_457:\n        /* \"#utility.yul\":110:176   */\n      tag_459\n      jump\t// in\n    tag_456:\n        /* \"#utility.yul\":101:176   */\n      swap1\n      pop\n        /* \"#utility.yul\":199:205   */\n      dup3\n        /* \"#utility.yul\":192:197   */\n      dup2\n        /* \"#utility.yul\":185:206   */\n      mstore\n        /* \"#utility.yul\":237:241   */\n      0x20\n        /* \"#utility.yul\":230:235   */\n      dup2\n        /* \"#utility.yul\":226:242   */\n      add\n        /* \"#utility.yul\":275:278   */\n      dup5\n        /* \"#utility.yul\":266:272   */\n      dup5\n        /* \"#utility.yul\":261:264   */\n      dup5\n        /* \"#utility.yul\":257:273   */\n      add\n        /* \"#utility.yul\":254:279   */\n      gt\n        /* \"#utility.yul\":251:363   */\n      iszero\n      tag_460\n      jumpi\n        /* \"#utility.yul\":282:361   */\n      tag_461\n      tag_462\n      jump\t// in\n    tag_461:\n        /* \"#utility.yul\":251:363   */\n    tag_460:\n        /* \"#utility.yul\":372:413   */\n      tag_463\n        /* \"#utility.yul\":406:412   */\n      dup5\n        /* \"#utility.yul\":401:404   */\n      dup3\n        /* \"#utility.yul\":396:399   */\n      dup6\n        /* \"#utility.yul\":372:413   */\n      tag_464\n      jump\t// in\n    tag_463:\n        /* \"#utility.yul\":91:419   */\n      pop\n        /* \"#utility.yul\":7:419   */\n      swap4\n      swap3\n      pop\n      pop\n      pop\n      jump\t// out\n        /* \"#utility.yul\":425:564   */\n    tag_465:\n        /* \"#utility.yul\":471:476   */\n      0x00\n        /* \"#utility.yul\":509:515   */\n      dup2\n        /* \"#utility.yul\":496:516   */\n      calldataload\n        /* \"#utility.yul\":487:516   */\n      swap1\n      pop\n        /* \"#utility.yul\":525:558   */\n      tag_467\n        /* \"#utility.yul\":552:557   */\n      dup2\n        /* \"#utility.yul\":525:558   */\n      tag_468\n      jump\t// in\n    tag_467:\n        /* \"#utility.yul\":425:564   */\n      swap3\n      swap2\n      pop\n      pop\n      jump\t// out\n        /* \"#utility.yul\":570:707   */\n    tag_469:\n        /* \"#utility.yul\":624:629   */\n      0x00\n        /* \"#utility.yul\":655:661   */\n      dup2\n        /* \"#utility.yul\":649:662   */\n      mload\n        /* \"#utility.yul\":640:662   */\n      swap1\n      pop\n        /* \"#utility.yul\":671:701   */\n      tag_471\n        /* \"#utility.yul\":695:700   */\n      dup2\n        /* \"#utility.yul\":671:701   */\n      tag_472\n      jump\t// in\n    tag_471:\n        /* \"#utility.yul\":570:707   */\n      swap3\n      swap2\n      pop\n      pop\n      jump\t// out\n        /* \"#utility.yul\":727:1067   */\n    tag_473:\n        /* \"#utility.yul\":783:788   */\n      0x00\n        /* \"#utility.yul\":832:835   */\n      dup3\n        /* \"#utility.yul\":825:829   */\n      0x1f\n        /* \"#utility.yul\":817:823   */\n      dup4\n        /* \"#utility.yul\":813:830   */\n      add\n        /* \"#utility.yul\":809:836   */\n      slt\n        /* \"#utility.yul\":799:921   */\n      tag_475\n      jumpi\n        /* \"#utility.yul\":840:919   */\n      tag_476\n      tag_477\n      jump\t// in\n    tag_476:\n        /* \"#utility.yul\":799:921   */\n    tag_475:\n        /* \"#utility.yul\":957:963   */\n      dup2\n        /* \"#utility.yul\":944:964   */\n      calldataload\n        /* \"#utility.yul\":982:1061   */\n      tag_478\n        /* \"#utility.yul\":1057:1060   */\n      dup5\n        /* \"#utility.yul\":1049:1055   */\n      dup3\n        /* \"#utility.yul\":1042:1046   */\n      0x20\n        /* \"#utility.yul\":1034:1040   */\n      dup7\n        /* \"#utility.yul\":1030:1047   */\n      add\n        /* \"#utility.yul\":982:1061   */\n      tag_454\n      jump\t// in\n    tag_478:\n        /* \"#utility.yul\":973:1061   */\n      swap2\n      pop\n        /* \"#utility.yul\":789:1067   */\n      pop\n        /* \"#utility.yul\":727:1067   */\n      swap3\n      swap2\n      pop\n      pop\n      jump\t// out\n        /* \"#utility.yul\":1073:1212   */\n    tag_479:\n        /* \"#utility.yul\":1119:1124   */\n      0x00\n        /* \"#utility.yul\":1157:1163   */\n      dup2\n        /* \"#utility.yul\":1144:1164   */\n      calldataload\n        /* \"#utility.yul\":1135:1164   */\n      swap1\n      pop\n        /* \"#utility.yul\":1173:1206   */\n      tag_481\n        /* \"#utility.yul\":1200:1205   */\n      dup2\n        /* \"#utility.yul\":1173:1206   */\n      tag_482\n      jump\t// in\n    tag_481:\n        /* \"#utility.yul\":1073:1212   */\n      swap3\n      swap2\n      pop\n      pop\n      jump\t// out\n        /* \"#utility.yul\":1218:1361   */\n    tag_483:\n        /* \"#utility.yul\":1275:1280   */\n      0x00\n        /* \"#utility.yul\":1306:1312   */\n      dup2\n        /* \"#utility.yul\":1300:1313   */\n      mload\n        /* \"#utility.yul\":1291:1313   */\n      swap1\n      pop\n        /* \"#utility.yul\":1322:1355   */\n      tag_485\n        /* \"#utility.yul\":1349:1354   */\n      dup2\n        /* \"#utility.yul\":1322:1355   */\n      tag_482\n      jump\t// in\n    tag_485:\n        /* \"#utility.yul\":1218:1361   */\n      swap3\n      swap2\n      pop\n      pop\n      jump\t// out\n        /* \"#utility.yul\":1367:1696   */\n    tag_71:\n        /* \"#utility.yul\":1426:1432   */\n      0x00\n        /* \"#utility.yul\":1475:1477   */\n      0x20\n        /* \"#utility.yul\":1463:1472   */\n      dup3\n        /* \"#utility.yul\":1454:1461   */\n      dup5\n        /* \"#utility.yul\":1450:1473   */\n      sub\n        /* \"#utility.yul\":1446:1478   */\n      slt\n        /* \"#utility.yul\":1443:1562   */\n      iszero\n      tag_487\n      jumpi\n        /* \"#utility.yul\":1481:1560   */\n      tag_488\n      tag_489\n      jump\t// in\n    tag_488:\n        /* \"#utility.yul\":1443:1562   */\n    tag_487:\n        /* \"#utility.yul\":1601:1602   */\n      0x00\n        /* \"#utility.yul\":1626:1679   */\n      tag_490\n        /* \"#utility.yul\":1671:1678   */\n      dup5\n        /* \"#utility.yul\":1662:1668   */\n      dup3\n        /* \"#utility.yul\":1651:1660   */\n      dup6\n        /* \"#utility.yul\":1647:1669   */\n      add\n        /* \"#utility.yul\":1626:1679   */\n      tag_465\n      jump\t// in\n    tag_490:\n        /* \"#utility.yul\":1616:1679   */\n      swap2\n      pop\n        /* \"#utility.yul\":1572:1689   */\n      pop\n        /* \"#utility.yul\":1367:1696   */\n      swap3\n      swap2\n      pop\n      pop\n      jump\t// out\n        /* \"#utility.yul\":1702:2356   */\n    tag_181:\n        /* \"#utility.yul\":1780:1786   */\n      0x00\n        /* \"#utility.yul\":1788:1794   */\n      dup1\n        /* \"#utility.yul\":1837:1839   */\n      0x40\n        /* \"#utility.yul\":1825:1834   */\n      dup4\n        /* \"#utility.yul\":1816:1823   */\n      dup6\n        /* \"#utility.yul\":1812:1835   */\n      sub\n        /* \"#utility.yul\":1808:1840   */\n      slt\n        /* \"#utility.yul\":1805:1924   */\n      iszero\n      tag_492\n      jumpi\n        /* \"#utility.yul\":1843:1922   */\n      tag_493\n      tag_489\n      jump\t// in\n    tag_493:\n        /* \"#utility.yul\":1805:1924   */\n    tag_492:\n        /* \"#utility.yul\":1963:1964   */\n      0x00\n        /* \"#utility.yul\":1988:2041   */\n      tag_494\n        /* \"#utility.yul\":2033:2040   */\n      dup6\n        /* \"#utility.yul\":2024:2030   */\n      dup3\n        /* \"#utility.yul\":2013:2022   */\n      dup7\n        /* \"#utility.yul\":2009:2031   */\n      add\n        /* \"#utility.yul\":1988:2041   */\n      tag_465\n      jump\t// in\n    tag_494:\n        /* \"#utility.yul\":1978:2041   */\n      swap3\n      pop\n        /* \"#utility.yul\":1934:2051   */\n      pop\n        /* \"#utility.yul\":2118:2120   */\n      0x20\n        /* \"#utility.yul\":2107:2116   */\n      dup4\n        /* \"#utility.yul\":2103:2121   */\n      add\n        /* \"#utility.yul\":2090:2122   */\n      calldataload\n        /* \"#utility.yul\":2149:2167   */\n      0xffffffffffffffff\n        /* \"#utility.yul\":2141:2147   */\n      dup2\n        /* \"#utility.yul\":2138:2168   */\n      gt\n        /* \"#utility.yul\":2135:2252   */\n      iszero\n      tag_495\n      jumpi\n        /* \"#utility.yul\":2171:2250   */\n      tag_496\n      tag_497\n      jump\t// in\n    tag_496:\n        /* \"#utility.yul\":2135:2252   */\n    tag_495:\n        /* \"#utility.yul\":2276:2339   */\n      tag_498\n        /* \"#utility.yul\":2331:2338   */\n      dup6\n        /* \"#utility.yul\":2322:2328   */\n      dup3\n        /* \"#utility.yul\":2311:2320   */\n      dup7\n        /* \"#utility.yul\":2307:2329   */\n      add\n        /* \"#utility.yul\":2276:2339   */\n      tag_473\n      jump\t// in\n    tag_498:\n        /* \"#utility.yul\":2266:2339   */\n      swap2\n      pop\n        /* \"#utility.yul\":2061:2349   */\n      pop\n        /* \"#utility.yul\":1702:2356   */\n      swap3\n      pop\n      swap3\n      swap1\n      pop\n      jump\t// out\n        /* \"#utility.yul\":2362:2707   */\n    tag_403:\n        /* \"#utility.yul\":2429:2435   */\n      0x00\n        /* \"#utility.yul\":2478:2480   */\n      0x20\n        /* \"#utility.yul\":2466:2475   */\n      dup3\n        /* \"#utility.yul\":2457:2464   */\n      dup5\n        /* \"#utility.yul\":2453:2476   */\n      sub\n        /* \"#utility.yul\":2449:2481   */\n      slt\n        /* \"#utility.yul\":2446:2565   */\n      iszero\n      tag_500\n      jumpi\n        /* \"#utility.yul\":2484:2563   */\n      tag_501\n      tag_489\n      jump\t// in\n    tag_501:\n        /* \"#utility.yul\":2446:2565   */\n    tag_500:\n        /* \"#utility.yul\":2604:2605   */\n      0x00\n        /* \"#utility.yul\":2629:2690   */\n      tag_502\n        /* \"#utility.yul\":2682:2689   */\n      dup5\n        /* \"#utility.yul\":2673:2679   */\n      dup3\n        /* \"#utility.yul\":2662:2671   */\n      dup6\n        /* \"#utility.yul\":2658:2680   */\n      add\n        /* \"#utility.yul\":2629:2690   */\n      tag_469\n      jump\t// in\n    tag_502:\n        /* \"#utility.yul\":2619:2690   */\n      swap2\n      pop\n        /* \"#utility.yul\":2575:2700   */\n      pop\n        /* \"#utility.yul\":2362:2707   */\n      swap3\n      swap2\n      pop\n      pop\n      jump\t// out\n        /* \"#utility.yul\":2713:3222   */\n    tag_174:\n        /* \"#utility.yul\":2782:2788   */\n      0x00\n        /* \"#utility.yul\":2831:2833   */\n      0x20\n        /* \"#utility.yul\":2819:2828   */\n      dup3\n        /* \"#utility.yul\":2810:2817   */\n      dup5\n        /* \"#utility.yul\":2806:2829   */\n      sub\n        /* \"#utility.yul\":2802:2834   */\n      slt\n        /* \"#utility.yul\":2799:2918   */\n      iszero\n      tag_504\n      jumpi\n        /* \"#utility.yul\":2837:2916   */\n      tag_505\n      tag_489\n      jump\t// in\n    tag_505:\n        /* \"#utility.yul\":2799:2918   */\n    tag_504:\n        /* \"#utility.yul\":2985:2986   */\n      0x00\n        /* \"#utility.yul\":2974:2983   */\n      dup3\n        /* \"#utility.yul\":2970:2987   */\n      add\n        /* \"#utility.yul\":2957:2988   */\n      calldataload\n        /* \"#utility.yul\":3015:3033   */\n      0xffffffffffffffff\n        /* \"#utility.yul\":3007:3013   */\n      dup2\n        /* \"#utility.yul\":3004:3034   */\n      gt\n        /* \"#utility.yul\":3001:3118   */\n      iszero\n      tag_506\n      jumpi\n        /* \"#utility.yul\":3037:3116   */\n      tag_507\n      tag_497\n      jump\t// in\n    tag_507:\n        /* \"#utility.yul\":3001:3118   */\n    tag_506:\n        /* \"#utility.yul\":3142:3205   */\n      tag_508\n        /* \"#utility.yul\":3197:3204   */\n      dup5\n        /* \"#utility.yul\":3188:3194   */\n      dup3\n        /* \"#utility.yul\":3177:3186   */\n      dup6\n        /* \"#utility.yul\":3173:3195   */\n      add\n        /* \"#utility.yul\":3142:3205   */\n      tag_473\n      jump\t// in\n    tag_508:\n        /* \"#utility.yul\":3132:3205   */\n      swap2\n      pop\n        /* \"#utility.yul\":2928:3215   */\n      pop\n        /* \"#utility.yul\":2713:3222   */\n      swap3\n      swap2\n      pop\n      pop\n      jump\t// out\n        /* \"#utility.yul\":3228:4027   */\n    tag_210:\n        /* \"#utility.yul\":3315:3321   */\n      0x00\n        /* \"#utility.yul\":3323:3329   */\n      dup1\n        /* \"#utility.yul\":3331:3337   */\n      0x00\n        /* \"#utility.yul\":3380:3382   */\n      0x60\n        /* \"#utility.yul\":3368:3377   */\n      dup5\n        /* \"#utility.yul\":3359:3366   */\n      dup7\n        /* \"#utility.yul\":3355:3378   */\n      sub\n        /* \"#utility.yul\":3351:3383   */\n      slt\n        /* \"#utility.yul\":3348:3467   */\n      iszero\n      tag_510\n      jumpi\n        /* \"#utility.yul\":3386:3465   */\n      tag_511\n      tag_489\n      jump\t// in\n    tag_511:\n        /* \"#utility.yul\":3348:3467   */\n    tag_510:\n        /* \"#utility.yul\":3534:3535   */\n      0x00\n        /* \"#utility.yul\":3523:3532   */\n      dup5\n        /* \"#utility.yul\":3519:3536   */\n      add\n        /* \"#utility.yul\":3506:3537   */\n      calldataload\n        /* \"#utility.yul\":3564:3582   */\n      0xffffffffffffffff\n        /* \"#utility.yul\":3556:3562   */\n      dup2\n        /* \"#utility.yul\":3553:3583   */\n      gt\n        /* \"#utility.yul\":3550:3667   */\n      iszero\n      tag_512\n      jumpi\n        /* \"#utility.yul\":3586:3665   */\n      tag_513\n      tag_497\n      jump\t// in\n    tag_513:\n        /* \"#utility.yul\":3550:3667   */\n    tag_512:\n        /* \"#utility.yul\":3691:3754   */\n      tag_514\n        /* \"#utility.yul\":3746:3753   */\n      dup7\n        /* \"#utility.yul\":3737:3743   */\n      dup3\n        /* \"#utility.yul\":3726:3735   */\n      dup8\n        /* \"#utility.yul\":3722:3744   */\n      add\n        /* \"#utility.yul\":3691:3754   */\n      tag_473\n      jump\t// in\n    tag_514:\n        /* \"#utility.yul\":3681:3754   */\n      swap4\n      pop\n        /* \"#utility.yul\":3477:3764   */\n      pop\n        /* \"#utility.yul\":3803:3805   */\n      0x20\n        /* \"#utility.yul\":3829:3882   */\n      tag_515\n        /* \"#utility.yul\":3874:3881   */\n      dup7\n        /* \"#utility.yul\":3865:3871   */\n      dup3\n        /* \"#utility.yul\":3854:3863   */\n      dup8\n        /* \"#utility.yul\":3850:3872   */\n      add\n        /* \"#utility.yul\":3829:3882   */\n      tag_465\n      jump\t// in\n    tag_515:\n        /* \"#utility.yul\":3819:3882   */\n      swap3\n      pop\n        /* \"#utility.yul\":3774:3892   */\n      pop\n        /* \"#utility.yul\":3931:3933   */\n      0x40\n        /* \"#utility.yul\":3957:4010   */\n      tag_516\n        /* \"#utility.yul\":4002:4009   */\n      dup7\n        /* \"#utility.yul\":3993:3999   */\n      dup3\n        /* \"#utility.yul\":3982:3991   */\n      dup8\n        /* \"#utility.yul\":3978:4000   */\n      add\n        /* \"#utility.yul\":3957:4010   */\n      tag_479\n      jump\t// in\n    tag_516:\n        /* \"#utility.yul\":3947:4010   */\n      swap2\n      pop\n        /* \"#utility.yul\":3902:4020   */\n      pop\n        /* \"#utility.yul\":3228:4027   */\n      swap3\n      pop\n      swap3\n      pop\n      swap3\n      jump\t// out\n        /* \"#utility.yul\":4033:4362   */\n    tag_78:\n        /* \"#utility.yul\":4092:4098   */\n      0x00\n        /* \"#utility.yul\":4141:4143   */\n      0x20\n        /* \"#utility.yul\":4129:4138   */\n      dup3\n        /* \"#utility.yul\":4120:4127   */\n      dup5\n        /* \"#utility.yul\":4116:4139   */\n      sub\n        /* \"#utility.yul\":4112:4144   */\n      slt\n        /* \"#utility.yul\":4109:4228   */\n      iszero\n      tag_518\n      jumpi\n        /* \"#utility.yul\":4147:4226   */\n      tag_519\n      tag_489\n      jump\t// in\n    tag_519:\n        /* \"#utility.yul\":4109:4228   */\n    tag_518:\n        /* \"#utility.yul\":4267:4268   */\n      0x00\n        /* \"#utility.yul\":4292:4345   */\n      tag_520\n        /* \"#utility.yul\":4337:4344   */\n      dup5\n        /* \"#utility.yul\":4328:4334   */\n      dup3\n        /* \"#utility.yul\":4317:4326   */\n      dup6\n        /* \"#utility.yul\":4313:4335   */\n      add\n        /* \"#utility.yul\":4292:4345   */\n      tag_479\n      jump\t// in\n    tag_520:\n        /* \"#utility.yul\":4282:4345   */\n      swap2\n      pop\n        /* \"#utility.yul\":4238:4355   */\n      pop\n        /* \"#utility.yul\":4033:4362   */\n      swap3\n      swap2\n      pop\n      pop\n      jump\t// out\n        /* \"#utility.yul\":4368:4719   */\n    tag_239:\n        /* \"#utility.yul\":4438:4444   */\n      0x00\n        /* \"#utility.yul\":4487:4489   */\n      0x20\n        /* \"#utility.yul\":4475:4484   */\n      dup3\n        /* \"#utility.yul\":4466:4473   */\n      dup5\n        /* \"#utility.yul\":4462:4485   */\n      sub\n        /* \"#utility.yul\":4458:4490   */\n      slt\n        /* \"#utility.yul\":4455:4574   */\n      iszero\n      tag_522\n      jumpi\n        /* \"#utility.yul\":4493:4572   */\n      tag_523\n      tag_489\n      jump\t// in\n    tag_523:\n        /* \"#utility.yul\":4455:4574   */\n    tag_522:\n        /* \"#utility.yul\":4613:4614   */\n      0x00\n        /* \"#utility.yul\":4638:4702   */\n      tag_524\n        /* \"#utility.yul\":4694:4701   */\n      dup5\n        /* \"#utility.yul\":4685:4691   */\n      dup3\n        /* \"#utility.yul\":4674:4683   */\n      dup6\n        /* \"#utility.yul\":4670:4692   */\n      add\n        /* \"#utility.yul\":4638:4702   */\n      tag_483\n      jump\t// in\n    tag_524:\n        /* \"#utility.yul\":4628:4702   */\n      swap2\n      pop\n        /* \"#utility.yul\":4584:4712   */\n      pop\n        /* \"#utility.yul\":4368:4719   */\n      swap3\n      swap2\n      pop\n      pop\n      jump\t// out\n        /* \"#utility.yul\":4725:5379   */\n    tag_161:\n        /* \"#utility.yul\":4803:4809   */\n      0x00\n        /* \"#utility.yul\":4811:4817   */\n      dup1\n        /* \"#utility.yul\":4860:4862   */\n      0x40\n        /* \"#utility.yul\":4848:4857   */\n      dup4\n        /* \"#utility.yul\":4839:4846   */\n      dup6\n        /* \"#utility.yul\":4835:4858   */\n      sub\n        /* \"#utility.yul\":4831:4863   */\n      slt\n        /* \"#utility.yul\":4828:4947   */\n      iszero\n      tag_526\n      jumpi\n        /* \"#utility.yul\":4866:4945   */\n      tag_527\n      tag_489\n      jump\t// in\n    tag_527:\n        /* \"#utility.yul\":4828:4947   */\n    tag_526:\n        /* \"#utility.yul\":4986:4987   */\n      0x00\n        /* \"#utility.yul\":5011:5064   */\n      tag_528\n        /* \"#utility.yul\":5056:5063   */\n      dup6\n        /* \"#utility.yul\":5047:5053   */\n      dup3\n        /* \"#utility.yul\":5036:5045   */\n      dup7\n        /* \"#utility.yul\":5032:5054   */\n      add\n        /* \"#utility.yul\":5011:5064   */\n      tag_479\n      jump\t// in\n    tag_528:\n        /* \"#utility.yul\":5001:5064   */\n      swap3\n      pop\n        /* \"#utility.yul\":4957:5074   */\n      pop\n        /* \"#utility.yul\":5141:5143   */\n      0x20\n        /* \"#utility.yul\":5130:5139   */\n      dup4\n        /* \"#utility.yul\":5126:5144   */\n      add\n        /* \"#utility.yul\":5113:5145   */\n      calldataload\n        /* \"#utility.yul\":5172:5190   */\n      0xffffffffffffffff\n        /* \"#utility.yul\":5164:5170   */\n      dup2\n        /* \"#utility.yul\":5161:5191   */\n      gt\n        /* \"#utility.yul\":5158:5275   */\n      iszero\n      tag_529\n      jumpi\n        /* \"#utility.yul\":5194:5273   */\n      tag_530\n      tag_497\n      jump\t// in\n    tag_530:\n        /* \"#utility.yul\":5158:5275   */\n    tag_529:\n        /* \"#utility.yul\":5299:5362   */\n      tag_531\n        /* \"#utility.yul\":5354:5361   */\n      dup6\n        /* \"#utility.yul\":5345:5351   */\n      dup3\n        /* \"#utility.yul\":5334:5343   */\n      dup7\n        /* \"#utility.yul\":5330:5352   */\n      add\n        /* \"#utility.yul\":5299:5362   */\n      tag_473\n      jump\t// in\n    tag_531:\n        /* \"#utility.yul\":5289:5362   */\n      swap2\n      pop\n        /* \"#utility.yul\":5084:5372   */\n      pop\n        /* \"#utility.yul\":4725:5379   */\n      swap3\n      pop\n      swap3\n      swap1\n      pop\n      jump\t// out\n        /* \"#utility.yul\":5385:5859   */\n    tag_130:\n        /* \"#utility.yul\":5453:5459   */\n      0x00\n        /* \"#utility.yul\":5461:5467   */\n      dup1\n        /* \"#utility.yul\":5510:5512   */\n      0x40\n        /* \"#utility.yul\":5498:5507   */\n      dup4\n        /* \"#utility.yul\":5489:5496   */\n      dup6\n        /* \"#utility.yul\":5485:5508   */\n      sub\n        /* \"#utility.yul\":5481:5513   */\n      slt\n        /* \"#utility.yul\":5478:5597   */\n      iszero\n      tag_533\n      jumpi\n        /* \"#utility.yul\":5516:5595   */\n      tag_534\n      tag_489\n      jump\t// in\n    tag_534:\n        /* \"#utility.yul\":5478:5597   */\n    tag_533:\n        /* \"#utility.yul\":5636:5637   */\n      0x00\n        /* \"#utility.yul\":5661:5714   */\n      tag_535\n        /* \"#utility.yul\":5706:5713   */\n      dup6\n        /* \"#utility.yul\":5697:5703   */\n      dup3\n        /* \"#utility.yul\":5686:5695   */\n      dup7\n        /* \"#utility.yul\":5682:5704   */\n      add\n        /* \"#utility.yul\":5661:5714   */\n      tag_479\n      jump\t// in\n    tag_535:\n        /* \"#utility.yul\":5651:5714   */\n      swap3\n      pop\n        /* \"#utility.yul\":5607:5724   */\n      pop\n        /* \"#utility.yul\":5763:5765   */\n      0x20\n        /* \"#utility.yul\":5789:5842   */\n      tag_536\n        /* \"#utility.yul\":5834:5841   */\n      dup6\n        /* \"#utility.yul\":5825:5831   */\n      dup3\n        /* \"#utility.yul\":5814:5823   */\n      dup7\n        /* \"#utility.yul\":5810:5832   */\n      add\n        /* \"#utility.yul\":5789:5842   */\n      tag_479\n      jump\t// in\n    tag_536:\n        /* \"#utility.yul\":5779:5842   */\n      swap2\n      pop\n        /* \"#utility.yul\":5734:5852   */\n      pop\n        /* \"#utility.yul\":5385:5859   */\n      swap3\n      pop\n      swap3\n      swap1\n      pop\n      jump\t// out\n        /* \"#utility.yul\":5865:6664   */\n    tag_193:\n        /* \"#utility.yul\":5952:5958   */\n      0x00\n        /* \"#utility.yul\":5960:5966   */\n      dup1\n        /* \"#utility.yul\":5968:5974   */\n      0x00\n        /* \"#utility.yul\":6017:6019   */\n      0x60\n        /* \"#utility.yul\":6005:6014   */\n      dup5\n        /* \"#utility.yul\":5996:6003   */\n      dup7\n        /* \"#utility.yul\":5992:6015   */\n      sub\n        /* \"#utility.yul\":5988:6020   */\n      slt\n        /* \"#utility.yul\":5985:6104   */\n      iszero\n      tag_538\n      jumpi\n        /* \"#utility.yul\":6023:6102   */\n      tag_539\n      tag_489\n      jump\t// in\n    tag_539:\n        /* \"#utility.yul\":5985:6104   */\n    tag_538:\n        /* \"#utility.yul\":6143:6144   */\n      0x00\n        /* \"#utility.yul\":6168:6221   */\n      tag_540\n        /* \"#utility.yul\":6213:6220   */\n      dup7\n        /* \"#utility.yul\":6204:6210   */\n      dup3\n        /* \"#utility.yul\":6193:6202   */\n      dup8\n        /* \"#utility.yul\":6189:6211   */\n      add\n        /* \"#utility.yul\":6168:6221   */\n      tag_479\n      jump\t// in\n    tag_540:\n        /* \"#utility.yul\":6158:6221   */\n      swap4\n      pop\n        /* \"#utility.yul\":6114:6231   */\n      pop\n        /* \"#utility.yul\":6270:6272   */\n      0x20\n        /* \"#utility.yul\":6296:6349   */\n      tag_541\n        /* \"#utility.yul\":6341:6348   */\n      dup7\n        /* \"#utility.yul\":6332:6338   */\n      dup3\n        /* \"#utility.yul\":6321:6330   */\n      dup8\n        /* \"#utility.yul\":6317:6339   */\n      add\n        /* \"#utility.yul\":6296:6349   */\n      tag_479\n      jump\t// in\n    tag_541:\n        /* \"#utility.yul\":6286:6349   */\n      swap3\n      pop\n        /* \"#utility.yul\":6241:6359   */\n      pop\n        /* \"#utility.yul\":6426:6428   */\n      0x40\n        /* \"#utility.yul\":6415:6424   */\n      dup5\n        /* \"#utility.yul\":6411:6429   */\n      add\n        /* \"#utility.yul\":6398:6430   */\n      calldataload\n        /* \"#utility.yul\":6457:6475   */\n      0xffffffffffffffff\n        /* \"#utility.yul\":6449:6455   */\n      dup2\n        /* \"#utility.yul\":6446:6476   */\n      gt\n        /* \"#utility.yul\":6443:6560   */\n      iszero\n      tag_542\n      jumpi\n        /* \"#utility.yul\":6479:6558   */\n      tag_543\n      tag_497\n      jump\t// in\n    tag_543:\n        /* \"#utility.yul\":6443:6560   */\n    tag_542:\n        /* \"#utility.yul\":6584:6647   */\n      tag_544\n        /* \"#utility.yul\":6639:6646   */\n      dup7\n        /* \"#utility.yul\":6630:6636   */\n      dup3\n        /* \"#utility.yul\":6619:6628   */\n      dup8\n        /* \"#utility.yul\":6615:6637   */\n      add\n        /* \"#utility.yul\":6584:6647   */\n      tag_473\n      jump\t// in\n    tag_544:\n        /* \"#utility.yul\":6574:6647   */\n      swap2\n      pop\n        /* \"#utility.yul\":6369:6657   */\n      pop\n        /* \"#utility.yul\":5865:6664   */\n      swap3\n      pop\n      swap3\n      pop\n      swap3\n      jump\t// out\n        /* \"#utility.yul\":6670:6788   */\n    tag_545:\n        /* \"#utility.yul\":6757:6781   */\n      tag_547\n        /* \"#utility.yul\":6775:6780   */\n      dup2\n        /* \"#utility.yul\":6757:6781   */\n      tag_548\n      jump\t// in\n    tag_547:\n        /* \"#utility.yul\":6752:6755   */\n      dup3\n        /* \"#utility.yul\":6745:6782   */\n      mstore\n        /* \"#utility.yul\":6670:6788   */\n      pop\n      pop\n      jump\t// out\n        /* \"#utility.yul\":6794:6951   */\n    tag_549:\n        /* \"#utility.yul\":6894:6944   */\n      tag_551\n        /* \"#utility.yul\":6938:6943   */\n      dup2\n        /* \"#utility.yul\":6894:6944   */\n      tag_552\n      jump\t// in\n    tag_551:\n        /* \"#utility.yul\":6889:6892   */\n      dup3\n        /* \"#utility.yul\":6882:6945   */\n      mstore\n        /* \"#utility.yul\":6794:6951   */\n      pop\n      pop\n      jump\t// out\n        /* \"#utility.yul\":6957:7072   */\n    tag_553:\n        /* \"#utility.yul\":7042:7065   */\n      tag_555\n        /* \"#utility.yul\":7059:7064   */\n      dup2\n        /* \"#utility.yul\":7042:7065   */\n      tag_556\n      jump\t// in\n    tag_555:\n        /* \"#utility.yul\":7037:7040   */\n      dup3\n        /* \"#utility.yul\":7030:7066   */\n      mstore\n        /* \"#utility.yul\":6957:7072   */\n      pop\n      pop\n      jump\t// out\n        /* \"#utility.yul\":7078:7455   */\n    tag_557:\n        /* \"#utility.yul\":7184:7187   */\n      0x00\n        /* \"#utility.yul\":7212:7251   */\n      tag_559\n        /* \"#utility.yul\":7245:7250   */\n      dup3\n        /* \"#utility.yul\":7212:7251   */\n      tag_560\n      jump\t// in\n    tag_559:\n        /* \"#utility.yul\":7267:7356   */\n      tag_561\n        /* \"#utility.yul\":7349:7355   */\n      dup2\n        /* \"#utility.yul\":7344:7347   */\n      dup6\n        /* \"#utility.yul\":7267:7356   */\n      tag_562\n      jump\t// in\n    tag_561:\n        /* \"#utility.yul\":7260:7356   */\n      swap4\n      pop\n        /* \"#utility.yul\":7365:7417   */\n      tag_563\n        /* \"#utility.yul\":7410:7416   */\n      dup2\n        /* \"#utility.yul\":7405:7408   */\n      dup6\n        /* \"#utility.yul\":7398:7402   */\n      0x20\n        /* \"#utility.yul\":7391:7396   */\n      dup7\n        /* \"#utility.yul\":7387:7403   */\n      add\n        /* \"#utility.yul\":7365:7417   */\n      tag_564\n      jump\t// in\n    tag_563:\n        /* \"#utility.yul\":7442:7448   */\n      dup1\n        /* \"#utility.yul\":7437:7440   */\n      dup5\n        /* \"#utility.yul\":7433:7449   */\n      add\n        /* \"#utility.yul\":7426:7449   */\n      swap2\n      pop\n        /* \"#utility.yul\":7188:7455   */\n      pop\n        /* \"#utility.yul\":7078:7455   */\n      swap3\n      swap2\n      pop\n      pop\n      jump\t// out\n        /* \"#utility.yul\":7461:7827   */\n    tag_565:\n        /* \"#utility.yul\":7603:7606   */\n      0x00\n        /* \"#utility.yul\":7624:7691   */\n      tag_567\n        /* \"#utility.yul\":7688:7690   */\n      0x24\n        /* \"#utility.yul\":7683:7686   */\n      dup4\n        /* \"#utility.yul\":7624:7691   */\n      tag_568\n      jump\t// in\n    tag_567:\n        /* \"#utility.yul\":7617:7691   */\n      swap2\n      pop\n        /* \"#utility.yul\":7700:7793   */\n      tag_569\n        /* \"#utility.yul\":7789:7792   */\n      dup3\n        /* \"#utility.yul\":7700:7793   */\n      tag_570\n      jump\t// in\n    tag_569:\n        /* \"#utility.yul\":7818:7820   */\n      0x40\n        /* \"#utility.yul\":7813:7816   */\n      dup3\n        /* \"#utility.yul\":7809:7821   */\n      add\n        /* \"#utility.yul\":7802:7821   */\n      swap1\n      pop\n        /* \"#utility.yul\":7461:7827   */\n      swap2\n      swap1\n      pop\n      jump\t// out\n        /* \"#utility.yul\":7833:8199   */\n    tag_571:\n        /* \"#utility.yul\":7975:7978   */\n      0x00\n        /* \"#utility.yul\":7996:8063   */\n      tag_573\n        /* \"#utility.yul\":8060:8062   */\n      0x15\n        /* \"#utility.yul\":8055:8058   */\n      dup4\n        /* \"#utility.yul\":7996:8063   */\n      tag_568\n      jump\t// in\n    tag_573:\n        /* \"#utility.yul\":7989:8063   */\n      swap2\n      pop\n        /* \"#utility.yul\":8072:8165   */\n      tag_574\n        /* \"#utility.yul\":8161:8164   */\n      dup3\n        /* \"#utility.yul\":8072:8165   */\n      tag_575\n      jump\t// in\n    tag_574:\n        /* \"#utility.yul\":8190:8192   */\n      0x20\n        /* \"#utility.yul\":8185:8188   */\n      dup3\n        /* \"#utility.yul\":8181:8193   */\n      add\n        /* \"#utility.yul\":8174:8193   */\n      swap1\n      pop\n        /* \"#utility.yul\":7833:8199   */\n      swap2\n      swap1\n      pop\n      jump\t// out\n        /* \"#utility.yul\":8205:8571   */\n    tag_576:\n        /* \"#utility.yul\":8347:8350   */\n      0x00\n        /* \"#utility.yul\":8368:8435   */\n      tag_578\n        /* \"#utility.yul\":8432:8434   */\n      0x1a\n        /* \"#utility.yul\":8427:8430   */\n      dup4\n        /* \"#utility.yul\":8368:8435   */\n      tag_568\n      jump\t// in\n    tag_578:\n        /* \"#utility.yul\":8361:8435   */\n      swap2\n      pop\n        /* \"#utility.yul\":8444:8537   */\n      tag_579\n        /* \"#utility.yul\":8533:8536   */\n      dup3\n        /* \"#utility.yul\":8444:8537   */\n      tag_580\n      jump\t// in\n    tag_579:\n        /* \"#utility.yul\":8562:8564   */\n      0x20\n        /* \"#utility.yul\":8557:8560   */\n      dup3\n        /* \"#utility.yul\":8553:8565   */\n      add\n        /* \"#utility.yul\":8546:8565   */\n      swap1\n      pop\n        /* \"#utility.yul\":8205:8571   */\n      swap2\n      swap1\n      pop\n      jump\t// out\n        /* \"#utility.yul\":8577:8943   */\n    tag_581:\n        /* \"#utility.yul\":8719:8722   */\n      0x00\n        /* \"#utility.yul\":8740:8807   */\n      tag_583\n        /* \"#utility.yul\":8804:8806   */\n      0x15\n        /* \"#utility.yul\":8799:8802   */\n      dup4\n        /* \"#utility.yul\":8740:8807   */\n      tag_568\n      jump\t// in\n    tag_583:\n        /* \"#utility.yul\":8733:8807   */\n      swap2\n      pop\n        /* \"#utility.yul\":8816:8909   */\n      tag_584\n        /* \"#utility.yul\":8905:8908   */\n      dup3\n        /* \"#utility.yul\":8816:8909   */\n      tag_585\n      jump\t// in\n    tag_584:\n        /* \"#utility.yul\":8934:8936   */\n      0x20\n        /* \"#utility.yul\":8929:8932   */\n      dup3\n        /* \"#utility.yul\":8925:8937   */\n      add\n        /* \"#utility.yul\":8918:8937   */\n      swap1\n      pop\n        /* \"#utility.yul\":8577:8943   */\n      swap2\n      swap1\n      pop\n      jump\t// out\n        /* \"#utility.yul\":8949:9315   */\n    tag_586:\n        /* \"#utility.yul\":9091:9094   */\n      0x00\n        /* \"#utility.yul\":9112:9179   */\n      tag_588\n        /* \"#utility.yul\":9176:9178   */\n      0x0c\n        /* \"#utility.yul\":9171:9174   */\n      dup4\n        /* \"#utility.yul\":9112:9179   */\n      tag_568\n      jump\t// in\n    tag_588:\n        /* \"#utility.yul\":9105:9179   */\n      swap2\n      pop\n        /* \"#utility.yul\":9188:9281   */\n      tag_589\n        /* \"#utility.yul\":9277:9280   */\n      dup3\n        /* \"#utility.yul\":9188:9281   */\n      tag_590\n      jump\t// in\n    tag_589:\n        /* \"#utility.yul\":9306:9308   */\n      0x20\n        /* \"#utility.yul\":9301:9304   */\n      dup3\n        /* \"#utility.yul\":9297:9309   */\n      add\n        /* \"#utility.yul\":9290:9309   */\n      swap1\n      pop\n        /* \"#utility.yul\":8949:9315   */\n      swap2\n      swap1\n      pop\n      jump\t// out\n        /* \"#utility.yul\":9321:9687   */\n    tag_591:\n        /* \"#utility.yul\":9463:9466   */\n      0x00\n        /* \"#utility.yul\":9484:9551   */\n      tag_593\n        /* \"#utility.yul\":9548:9550   */\n      0x21\n        /* \"#utility.yul\":9543:9546   */\n      dup4\n        /* \"#utility.yul\":9484:9551   */\n      tag_568\n      jump\t// in\n    tag_593:\n        /* \"#utility.yul\":9477:9551   */\n      swap2\n      pop\n        /* \"#utility.yul\":9560:9653   */\n      tag_594\n        /* \"#utility.yul\":9649:9652   */\n      dup3\n        /* \"#utility.yul\":9560:9653   */\n      tag_595\n      jump\t// in\n    tag_594:\n        /* \"#utility.yul\":9678:9680   */\n      0x40\n        /* \"#utility.yul\":9673:9676   */\n      dup3\n        /* \"#utility.yul\":9669:9681   */\n      add\n        /* \"#utility.yul\":9662:9681   */\n      swap1\n      pop\n        /* \"#utility.yul\":9321:9687   */\n      swap2\n      swap1\n      pop\n      jump\t// out\n        /* \"#utility.yul\":9693:9811   */\n    tag_596:\n        /* \"#utility.yul\":9780:9804   */\n      tag_598\n        /* \"#utility.yul\":9798:9803   */\n      dup2\n        /* \"#utility.yul\":9780:9804   */\n      tag_599\n      jump\t// in\n    tag_598:\n        /* \"#utility.yul\":9775:9778   */\n      dup3\n        /* \"#utility.yul\":9768:9805   */\n      mstore\n        /* \"#utility.yul\":9693:9811   */\n      pop\n      pop\n      jump\t// out\n        /* \"#utility.yul\":9817:10092   */\n    tag_331:\n        /* \"#utility.yul\":9949:9952   */\n      0x00\n        /* \"#utility.yul\":9971:10066   */\n      tag_601\n        /* \"#utility.yul\":10062:10065   */\n      dup3\n        /* \"#utility.yul\":10053:10059   */\n      dup5\n        /* \"#utility.yul\":9971:10066   */\n      tag_557\n      jump\t// in\n    tag_601:\n        /* \"#utility.yul\":9964:10066   */\n      swap2\n      pop\n        /* \"#utility.yul\":10083:10086   */\n      dup2\n        /* \"#utility.yul\":10076:10086   */\n      swap1\n      pop\n        /* \"#utility.yul\":9817:10092   */\n      swap3\n      swap2\n      pop\n      pop\n      jump\t// out\n        /* \"#utility.yul\":10098:10320   */\n    tag_59:\n        /* \"#utility.yul\":10191:10195   */\n      0x00\n        /* \"#utility.yul\":10229:10231   */\n      0x20\n        /* \"#utility.yul\":10218:10227   */\n      dup3\n        /* \"#utility.yul\":10214:10232   */\n      add\n        /* \"#utility.yul\":10206:10232   */\n      swap1\n      pop\n        /* \"#utility.yul\":10242:10313   */\n      tag_603\n        /* \"#utility.yul\":10310:10311   */\n      0x00\n        /* \"#utility.yul\":10299:10308   */\n      dup4\n        /* \"#utility.yul\":10295:10312   */\n      add\n        /* \"#utility.yul\":10286:10292   */\n      dup5\n        /* \"#utility.yul\":10242:10313   */\n      tag_545\n      jump\t// in\n    tag_603:\n        /* \"#utility.yul\":10098:10320   */\n      swap3\n      swap2\n      pop\n      pop\n      jump\t// out\n        /* \"#utility.yul\":10326:10768   */\n    tag_434:\n        /* \"#utility.yul\":10475:10479   */\n      0x00\n        /* \"#utility.yul\":10513:10515   */\n      0x60\n        /* \"#utility.yul\":10502:10511   */\n      dup3\n        /* \"#utility.yul\":10498:10516   */\n      add\n        /* \"#utility.yul\":10490:10516   */\n      swap1\n      pop\n        /* \"#utility.yul\":10526:10597   */\n      tag_605\n        /* \"#utility.yul\":10594:10595   */\n      0x00\n        /* \"#utility.yul\":10583:10592   */\n      dup4\n        /* \"#utility.yul\":10579:10596   */\n      add\n        /* \"#utility.yul\":10570:10576   */\n      dup7\n        /* \"#utility.yul\":10526:10597   */\n      tag_545\n      jump\t// in\n    tag_605:\n        /* \"#utility.yul\":10607:10679   */\n      tag_606\n        /* \"#utility.yul\":10675:10677   */\n      0x20\n        /* \"#utility.yul\":10664:10673   */\n      dup4\n        /* \"#utility.yul\":10660:10678   */\n      add\n        /* \"#utility.yul\":10651:10657   */\n      dup6\n        /* \"#utility.yul\":10607:10679   */\n      tag_545\n      jump\t// in\n    tag_606:\n        /* \"#utility.yul\":10689:10761   */\n      tag_607\n        /* \"#utility.yul\":10757:10759   */\n      0x40\n        /* \"#utility.yul\":10746:10755   */\n      dup4\n        /* \"#utility.yul\":10742:10760   */\n      add\n        /* \"#utility.yul\":10733:10739   */\n      dup5\n        /* \"#utility.yul\":10689:10761   */\n      tag_596\n      jump\t// in\n    tag_607:\n        /* \"#utility.yul\":10326:10768   */\n      swap5\n      swap4\n      pop\n      pop\n      pop\n      pop\n      jump\t// out\n        /* \"#utility.yul\":10774:11106   */\n    tag_177:\n        /* \"#utility.yul\":10895:10899   */\n      0x00\n        /* \"#utility.yul\":10933:10935   */\n      0x40\n        /* \"#utility.yul\":10922:10931   */\n      dup3\n        /* \"#utility.yul\":10918:10936   */\n      add\n        /* \"#utility.yul\":10910:10936   */\n      swap1\n      pop\n        /* \"#utility.yul\":10946:11017   */\n      tag_609\n        /* \"#utility.yul\":11014:11015   */\n      0x00\n        /* \"#utility.yul\":11003:11012   */\n      dup4\n        /* \"#utility.yul\":10999:11016   */\n      add\n        /* \"#utility.yul\":10990:10996   */\n      dup6\n        /* \"#utility.yul\":10946:11017   */\n      tag_545\n      jump\t// in\n    tag_609:\n        /* \"#utility.yul\":11027:11099   */\n      tag_610\n        /* \"#utility.yul\":11095:11097   */\n      0x20\n        /* \"#utility.yul\":11084:11093   */\n      dup4\n        /* \"#utility.yul\":11080:11098   */\n      add\n        /* \"#utility.yul\":11071:11077   */\n      dup5\n        /* \"#utility.yul\":11027:11099   */\n      tag_596\n      jump\t// in\n    tag_610:\n        /* \"#utility.yul\":10774:11106   */\n      swap4\n      swap3\n      pop\n      pop\n      pop\n      jump\t// out\n        /* \"#utility.yul\":11112:11360   */\n    tag_101:\n        /* \"#utility.yul\":11218:11222   */\n      0x00\n        /* \"#utility.yul\":11256:11258   */\n      0x20\n        /* \"#utility.yul\":11245:11254   */\n      dup3\n        /* \"#utility.yul\":11241:11259   */\n      add\n        /* \"#utility.yul\":11233:11259   */\n      swap1\n      pop\n        /* \"#utility.yul\":11269:11353   */\n      tag_612\n        /* \"#utility.yul\":11350:11351   */\n      0x00\n        /* \"#utility.yul\":11339:11348   */\n      dup4\n        /* \"#utility.yul\":11335:11352   */\n      add\n        /* \"#utility.yul\":11326:11332   */\n      dup5\n        /* \"#utility.yul\":11269:11353   */\n      tag_549\n      jump\t// in\n    tag_612:\n        /* \"#utility.yul\":11112:11360   */\n      swap3\n      swap2\n      pop\n      pop\n      jump\t// out\n        /* \"#utility.yul\":11366:11584   */\n    tag_149:\n        /* \"#utility.yul\":11457:11461   */\n      0x00\n        /* \"#utility.yul\":11495:11497   */\n      0x20\n        /* \"#utility.yul\":11484:11493   */\n      dup3\n        /* \"#utility.yul\":11480:11498   */\n      add\n        /* \"#utility.yul\":11472:11498   */\n      swap1\n      pop\n        /* \"#utility.yul\":11508:11577   */\n      tag_614\n        /* \"#utility.yul\":11574:11575   */\n      0x00\n        /* \"#utility.yul\":11563:11572   */\n      dup4\n        /* \"#utility.yul\":11559:11576   */\n      add\n        /* \"#utility.yul\":11550:11556   */\n      dup5\n        /* \"#utility.yul\":11508:11577   */\n      tag_553\n      jump\t// in\n    tag_614:\n        /* \"#utility.yul\":11366:11584   */\n      swap3\n      swap2\n      pop\n      pop\n      jump\t// out\n        /* \"#utility.yul\":11590:12009   */\n    tag_271:\n        /* \"#utility.yul\":11756:11760   */\n      0x00\n        /* \"#utility.yul\":11794:11796   */\n      0x20\n        /* \"#utility.yul\":11783:11792   */\n      dup3\n        /* \"#utility.yul\":11779:11797   */\n      add\n        /* \"#utility.yul\":11771:11797   */\n      swap1\n      pop\n        /* \"#utility.yul\":11843:11852   */\n      dup2\n        /* \"#utility.yul\":11837:11841   */\n      dup2\n        /* \"#utility.yul\":11833:11853   */\n      sub\n        /* \"#utility.yul\":11829:11830   */\n      0x00\n        /* \"#utility.yul\":11818:11827   */\n      dup4\n        /* \"#utility.yul\":11814:11831   */\n      add\n        /* \"#utility.yul\":11807:11854   */\n      mstore\n        /* \"#utility.yul\":11871:12002   */\n      tag_616\n        /* \"#utility.yul\":11997:12001   */\n      dup2\n        /* \"#utility.yul\":11871:12002   */\n      tag_565\n      jump\t// in\n    tag_616:\n        /* \"#utility.yul\":11863:12002   */\n      swap1\n      pop\n        /* \"#utility.yul\":11590:12009   */\n      swap2\n      swap1\n      pop\n      jump\t// out\n        /* \"#utility.yul\":12015:12434   */\n    tag_441:\n        /* \"#utility.yul\":12181:12185   */\n      0x00\n        /* \"#utility.yul\":12219:12221   */\n      0x20\n        /* \"#utility.yul\":12208:12217   */\n      dup3\n        /* \"#utility.yul\":12204:12222   */\n      add\n        /* \"#utility.yul\":12196:12222   */\n      swap1\n      pop\n        /* \"#utility.yul\":12268:12277   */\n      dup2\n        /* \"#utility.yul\":12262:12266   */\n      dup2\n        /* \"#utility.yul\":12258:12278   */\n      sub\n        /* \"#utility.yul\":12254:12255   */\n      0x00\n        /* \"#utility.yul\":12243:12252   */\n      dup4\n        /* \"#utility.yul\":12239:12256   */\n      add\n        /* \"#utility.yul\":12232:12279   */\n      mstore\n        /* \"#utility.yul\":12296:12427   */\n      tag_618\n        /* \"#utility.yul\":12422:12426   */\n      dup2\n        /* \"#utility.yul\":12296:12427   */\n      tag_571\n      jump\t// in\n    tag_618:\n        /* \"#utility.yul\":12288:12427   */\n      swap1\n      pop\n        /* \"#utility.yul\":12015:12434   */\n      swap2\n      swap1\n      pop\n      jump\t// out\n        /* \"#utility.yul\":12440:12859   */\n    tag_282:\n        /* \"#utility.yul\":12606:12610   */\n      0x00\n        /* \"#utility.yul\":12644:12646   */\n      0x20\n        /* \"#utility.yul\":12633:12642   */\n      dup3\n        /* \"#utility.yul\":12629:12647   */\n      add\n        /* \"#utility.yul\":12621:12647   */\n      swap1\n      pop\n        /* \"#utility.yul\":12693:12702   */\n      dup2\n        /* \"#utility.yul\":12687:12691   */\n      dup2\n        /* \"#utility.yul\":12683:12703   */\n      sub\n        /* \"#utility.yul\":12679:12680   */\n      0x00\n        /* \"#utility.yul\":12668:12677   */\n      dup4\n        /* \"#utility.yul\":12664:12681   */\n      add\n        /* \"#utility.yul\":12657:12704   */\n      mstore\n        /* \"#utility.yul\":12721:12852   */\n      tag_620\n        /* \"#utility.yul\":12847:12851   */\n      dup2\n        /* \"#utility.yul\":12721:12852   */\n      tag_576\n      jump\t// in\n    tag_620:\n        /* \"#utility.yul\":12713:12852   */\n      swap1\n      pop\n        /* \"#utility.yul\":12440:12859   */\n      swap2\n      swap1\n      pop\n      jump\t// out\n        /* \"#utility.yul\":12865:13284   */\n    tag_334:\n        /* \"#utility.yul\":13031:13035   */\n      0x00\n        /* \"#utility.yul\":13069:13071   */\n      0x20\n        /* \"#utility.yul\":13058:13067   */\n      dup3\n        /* \"#utility.yul\":13054:13072   */\n      add\n        /* \"#utility.yul\":13046:13072   */\n      swap1\n      pop\n        /* \"#utility.yul\":13118:13127   */\n      dup2\n        /* \"#utility.yul\":13112:13116   */\n      dup2\n        /* \"#utility.yul\":13108:13128   */\n      sub\n        /* \"#utility.yul\":13104:13105   */\n      0x00\n        /* \"#utility.yul\":13093:13102   */\n      dup4\n        /* \"#utility.yul\":13089:13106   */\n      add\n        /* \"#utility.yul\":13082:13129   */\n      mstore\n        /* \"#utility.yul\":13146:13277   */\n      tag_622\n        /* \"#utility.yul\":13272:13276   */\n      dup2\n        /* \"#utility.yul\":13146:13277   */\n      tag_581\n      jump\t// in\n    tag_622:\n        /* \"#utility.yul\":13138:13277   */\n      swap1\n      pop\n        /* \"#utility.yul\":12865:13284   */\n      swap2\n      swap1\n      pop\n      jump\t// out\n        /* \"#utility.yul\":13290:13709   */\n    tag_384:\n        /* \"#utility.yul\":13456:13460   */\n      0x00\n        /* \"#utility.yul\":13494:13496   */\n      0x20\n        /* \"#utility.yul\":13483:13492   */\n      dup3\n        /* \"#utility.yul\":13479:13497   */\n      add\n        /* \"#utility.yul\":13471:13497   */\n      swap1\n      pop\n        /* \"#utility.yul\":13543:13552   */\n      dup2\n        /* \"#utility.yul\":13537:13541   */\n      dup2\n        /* \"#utility.yul\":13533:13553   */\n      sub\n        /* \"#utility.yul\":13529:13530   */\n      0x00\n        /* \"#utility.yul\":13518:13527   */\n      dup4\n        /* \"#utility.yul\":13514:13531   */\n      add\n        /* \"#utility.yul\":13507:13554   */\n      mstore\n        /* \"#utility.yul\":13571:13702   */\n      tag_624\n        /* \"#utility.yul\":13697:13701   */\n      dup2\n        /* \"#utility.yul\":13571:13702   */\n      tag_586\n      jump\t// in\n    tag_624:\n        /* \"#utility.yul\":13563:13702   */\n      swap1\n      pop\n        /* \"#utility.yul\":13290:13709   */\n      swap2\n      swap1\n      pop\n      jump\t// out\n        /* \"#utility.yul\":13715:14134   */\n    tag_448:\n        /* \"#utility.yul\":13881:13885   */\n      0x00\n        /* \"#utility.yul\":13919:13921   */\n      0x20\n        /* \"#utility.yul\":13908:13917   */\n      dup3\n        /* \"#utility.yul\":13904:13922   */\n      add\n        /* \"#utility.yul\":13896:13922   */\n      swap1\n      pop\n        /* \"#utility.yul\":13968:13977   */\n      dup2\n        /* \"#utility.yul\":13962:13966   */\n      dup2\n        /* \"#utility.yul\":13958:13978   */\n      sub\n        /* \"#utility.yul\":13954:13955   */\n      0x00\n        /* \"#utility.yul\":13943:13952   */\n      dup4\n        /* \"#utility.yul\":13939:13956   */\n      add\n        /* \"#utility.yul\":13932:13979   */\n      mstore\n        /* \"#utility.yul\":13996:14127   */\n      tag_626\n        /* \"#utility.yul\":14122:14126   */\n      dup2\n        /* \"#utility.yul\":13996:14127   */\n      tag_591\n      jump\t// in\n    tag_626:\n        /* \"#utility.yul\":13988:14127   */\n      swap1\n      pop\n        /* \"#utility.yul\":13715:14134   */\n      swap2\n      swap1\n      pop\n      jump\t// out\n        /* \"#utility.yul\":14140:14362   */\n    tag_54:\n        /* \"#utility.yul\":14233:14237   */\n      0x00\n        /* \"#utility.yul\":14271:14273   */\n      0x20\n        /* \"#utility.yul\":14260:14269   */\n      dup3\n        /* \"#utility.yul\":14256:14274   */\n      add\n        /* \"#utility.yul\":14248:14274   */\n      swap1\n      pop\n        /* \"#utility.yul\":14284:14355   */\n      tag_628\n        /* \"#utility.yul\":14352:14353   */\n      0x00\n        /* \"#utility.yul\":14341:14350   */\n      dup4\n        /* \"#utility.yul\":14337:14354   */\n      add\n        /* \"#utility.yul\":14328:14334   */\n      dup5\n        /* \"#utility.yul\":14284:14355   */\n      tag_596\n      jump\t// in\n    tag_628:\n        /* \"#utility.yul\":14140:14362   */\n      swap3\n      swap2\n      pop\n      pop\n      jump\t// out\n        /* \"#utility.yul\":14368:14700   */\n    tag_74:\n        /* \"#utility.yul\":14489:14493   */\n      0x00\n        /* \"#utility.yul\":14527:14529   */\n      0x40\n        /* \"#utility.yul\":14516:14525   */\n      dup3\n        /* \"#utility.yul\":14512:14530   */\n      add\n        /* \"#utility.yul\":14504:14530   */\n      swap1\n      pop\n        /* \"#utility.yul\":14540:14611   */\n      tag_630\n        /* \"#utility.yul\":14608:14609   */\n      0x00\n        /* \"#utility.yul\":14597:14606   */\n      dup4\n        /* \"#utility.yul\":14593:14610   */\n      add\n        /* \"#utility.yul\":14584:14590   */\n      dup6\n        /* \"#utility.yul\":14540:14611   */\n      tag_596\n      jump\t// in\n    tag_630:\n        /* \"#utility.yul\":14621:14693   */\n      tag_631\n        /* \"#utility.yul\":14689:14691   */\n      0x20\n        /* \"#utility.yul\":14678:14687   */\n      dup4\n        /* \"#utility.yul\":14674:14692   */\n      add\n        /* \"#utility.yul\":14665:14671   */\n      dup5\n        /* \"#utility.yul\":14621:14693   */\n      tag_596\n      jump\t// in\n    tag_631:\n        /* \"#utility.yul\":14368:14700   */\n      swap4\n      swap3\n      pop\n      pop\n      pop\n      jump\t// out\n        /* \"#utility.yul\":14706:14835   */\n    tag_459:\n        /* \"#utility.yul\":14740:14746   */\n      0x00\n        /* \"#utility.yul\":14767:14787   */\n      tag_633\n      tag_634\n      jump\t// in\n    tag_633:\n        /* \"#utility.yul\":14757:14787   */\n      swap1\n      pop\n        /* \"#utility.yul\":14796:14829   */\n      tag_635\n        /* \"#utility.yul\":14824:14828   */\n      dup3\n        /* \"#utility.yul\":14816:14822   */\n      dup3\n        /* \"#utility.yul\":14796:14829   */\n      tag_636\n      jump\t// in\n    tag_635:\n        /* \"#utility.yul\":14706:14835   */\n      swap2\n      swap1\n      pop\n      jump\t// out\n        /* \"#utility.yul\":14841:14916   */\n    tag_634:\n        /* \"#utility.yul\":14874:14880   */\n      0x00\n        /* \"#utility.yul\":14907:14909   */\n      0x40\n        /* \"#utility.yul\":14901:14910   */\n      mload\n        /* \"#utility.yul\":14891:14910   */\n      swap1\n      pop\n        /* \"#utility.yul\":14841:14916   */\n      swap1\n      jump\t// out\n        /* \"#utility.yul\":14922:15230   */\n    tag_458:\n        /* \"#utility.yul\":14984:14988   */\n      0x00\n        /* \"#utility.yul\":15074:15092   */\n      0xffffffffffffffff\n        /* \"#utility.yul\":15066:15072   */\n      dup3\n        /* \"#utility.yul\":15063:15093   */\n      gt\n        /* \"#utility.yul\":15060:15116   */\n      iszero\n      tag_639\n      jumpi\n        /* \"#utility.yul\":15096:15114   */\n      tag_640\n      tag_641\n      jump\t// in\n    tag_640:\n        /* \"#utility.yul\":15060:15116   */\n    tag_639:\n        /* \"#utility.yul\":15134:15163   */\n      tag_642\n        /* \"#utility.yul\":15156:15162   */\n      dup3\n        /* \"#utility.yul\":15134:15163   */\n      tag_643\n      jump\t// in\n    tag_642:\n        /* \"#utility.yul\":15126:15163   */\n      swap1\n      pop\n        /* \"#utility.yul\":15218:15222   */\n      0x20\n        /* \"#utility.yul\":15212:15216   */\n      dup2\n        /* \"#utility.yul\":15208:15223   */\n      add\n        /* \"#utility.yul\":15200:15223   */\n      swap1\n      pop\n        /* \"#utility.yul\":14922:15230   */\n      swap2\n      swap1\n      pop\n      jump\t// out\n        /* \"#utility.yul\":15236:15335   */\n    tag_560:\n        /* \"#utility.yul\":15288:15294   */\n      0x00\n        /* \"#utility.yul\":15322:15327   */\n      dup2\n        /* \"#utility.yul\":15316:15328   */\n      mload\n        /* \"#utility.yul\":15306:15328   */\n      swap1\n      pop\n        /* \"#utility.yul\":15236:15335   */\n      swap2\n      swap1\n      pop\n      jump\t// out\n        /* \"#utility.yul\":15341:15510   */\n    tag_568:\n        /* \"#utility.yul\":15425:15436   */\n      0x00\n        /* \"#utility.yul\":15459:15465   */\n      dup3\n        /* \"#utility.yul\":15454:15457   */\n      dup3\n        /* \"#utility.yul\":15447:15466   */\n      mstore\n        /* \"#utility.yul\":15499:15503   */\n      0x20\n        /* \"#utility.yul\":15494:15497   */\n      dup3\n        /* \"#utility.yul\":15490:15504   */\n      add\n        /* \"#utility.yul\":15475:15504   */\n      swap1\n      pop\n        /* \"#utility.yul\":15341:15510   */\n      swap3\n      swap2\n      pop\n      pop\n      jump\t// out\n        /* \"#utility.yul\":15516:15664   */\n    tag_562:\n        /* \"#utility.yul\":15618:15629   */\n      0x00\n        /* \"#utility.yul\":15655:15658   */\n      dup2\n        /* \"#utility.yul\":15640:15658   */\n      swap1\n      pop\n        /* \"#utility.yul\":15516:15664   */\n      swap3\n      swap2\n      pop\n      pop\n      jump\t// out\n        /* \"#utility.yul\":15670:15975   */\n    tag_245:\n        /* \"#utility.yul\":15710:15713   */\n      0x00\n        /* \"#utility.yul\":15729:15749   */\n      tag_648\n        /* \"#utility.yul\":15747:15748   */\n      dup3\n        /* \"#utility.yul\":15729:15749   */\n      tag_599\n      jump\t// in\n    tag_648:\n        /* \"#utility.yul\":15724:15749   */\n      swap2\n      pop\n        /* \"#utility.yul\":15763:15783   */\n      tag_649\n        /* \"#utility.yul\":15781:15782   */\n      dup4\n        /* \"#utility.yul\":15763:15783   */\n      tag_599\n      jump\t// in\n    tag_649:\n        /* \"#utility.yul\":15758:15783   */\n      swap3\n      pop\n        /* \"#utility.yul\":15917:15918   */\n      dup3\n        /* \"#utility.yul\":15849:15915   */\n      0xffffffffffffffffffffffffffffffffffffffffffffffffffffffffffffffff\n        /* \"#utility.yul\":15845:15919   */\n      sub\n        /* \"#utility.yul\":15842:15843   */\n      dup3\n        /* \"#utility.yul\":15839:15920   */\n      gt\n        /* \"#utility.yul\":15836:15943   */\n      iszero\n      tag_650\n      jumpi\n        /* \"#utility.yul\":15923:15941   */\n      tag_651\n      tag_652\n      jump\t// in\n    tag_651:\n        /* \"#utility.yul\":15836:15943   */\n    tag_650:\n        /* \"#utility.yul\":15967:15968   */\n      dup3\n        /* \"#utility.yul\":15964:15965   */\n      dup3\n        /* \"#utility.yul\":15960:15969   */\n      add\n        /* \"#utility.yul\":15953:15969   */\n      swap1\n      pop\n        /* \"#utility.yul\":15670:15975   */\n      swap3\n      swap2\n      pop\n      pop\n      jump\t// out\n        /* \"#utility.yul\":15981:16166   */\n    tag_248:\n        /* \"#utility.yul\":16021:16022   */\n      0x00\n        /* \"#utility.yul\":16038:16058   */\n      tag_654\n        /* \"#utility.yul\":16056:16057   */\n      dup3\n        /* \"#utility.yul\":16038:16058   */\n      tag_599\n      jump\t// in\n    tag_654:\n        /* \"#utility.yul\":16033:16058   */\n      swap2\n      pop\n        /* \"#utility.yul\":16072:16092   */\n      tag_655\n        /* \"#utility.yul\":16090:16091   */\n      dup4\n        /* \"#utility.yul\":16072:16092   */\n      tag_599\n      jump\t// in\n    tag_655:\n        /* \"#utility.yul\":16067:16092   */\n      swap3\n      pop\n        /* \"#utility.yul\":16111:16112   */\n      dup3\n        /* \"#utility.yul\":16101:16136   */\n      tag_656\n      jumpi\n        /* \"#utility.yul\":16116:16134   */\n      tag_657\n      tag_658\n      jump\t// in\n    tag_657:\n        /* \"#utility.yul\":16101:16136   */\n    tag_656:\n        /* \"#utility.yul\":16158:16159   */\n      dup3\n        /* \"#utility.yul\":16155:16156   */\n      dup3\n        /* \"#utility.yul\":16151:16160   */\n      div\n        /* \"#utility.yul\":16146:16160   */\n      swap1\n      pop\n        /* \"#utility.yul\":15981:16166   */\n      swap3\n      swap2\n      pop\n      pop\n      jump\t// out\n        /* \"#utility.yul\":16172:16520   */\n    tag_348:\n        /* \"#utility.yul\":16212:16219   */\n      0x00\n        /* \"#utility.yul\":16235:16255   */\n      tag_660\n        /* \"#utility.yul\":16253:16254   */\n      dup3\n        /* \"#utility.yul\":16235:16255   */\n      tag_599\n      jump\t// in\n    tag_660:\n        /* \"#utility.yul\":16230:16255   */\n      swap2\n      pop\n        /* \"#utility.yul\":16269:16289   */\n      tag_661\n        /* \"#utility.yul\":16287:16288   */\n      dup4\n        /* \"#utility.yul\":16269:16289   */\n      tag_599\n      jump\t// in\n    tag_661:\n        /* \"#utility.yul\":16264:16289   */\n      swap3\n      pop\n        /* \"#utility.yul\":16457:16458   */\n      dup2\n        /* \"#utility.yul\":16389:16455   */\n      0xffffffffffffffffffffffffffffffffffffffffffffffffffffffffffffffff\n        /* \"#utility.yul\":16385:16459   */\n      div\n        /* \"#utility.yul\":16382:16383   */\n      dup4\n        /* \"#utility.yul\":16379:16460   */\n      gt\n        /* \"#utility.yul\":16374:16375   */\n      dup3\n        /* \"#utility.yul\":16367:16376   */\n      iszero\n        /* \"#utility.yul\":16360:16377   */\n      iszero\n        /* \"#utility.yul\":16356:16461   */\n      and\n        /* \"#utility.yul\":16353:16484   */\n      iszero\n      tag_662\n      jumpi\n        /* \"#utility.yul\":16464:16482   */\n      tag_663\n      tag_652\n      jump\t// in\n    tag_663:\n        /* \"#utility.yul\":16353:16484   */\n    tag_662:\n        /* \"#utility.yul\":16512:16513   */\n      dup3\n        /* \"#utility.yul\":16509:16510   */\n      dup3\n        /* \"#utility.yul\":16505:16514   */\n      mul\n        /* \"#utility.yul\":16494:16514   */\n      swap1\n      pop\n        /* \"#utility.yul\":16172:16520   */\n      swap3\n      swap2\n      pop\n      pop\n      jump\t// out\n        /* \"#utility.yul\":16526:16717   */\n    tag_250:\n        /* \"#utility.yul\":16566:16570   */\n      0x00\n        /* \"#utility.yul\":16586:16606   */\n      tag_665\n        /* \"#utility.yul\":16604:16605   */\n      dup3\n        /* \"#utility.yul\":16586:16606   */\n      tag_599\n      jump\t// in\n    tag_665:\n        /* \"#utility.yul\":16581:16606   */\n      swap2\n      pop\n        /* \"#utility.yul\":16620:16640   */\n      tag_666\n        /* \"#utility.yul\":16638:16639   */\n      dup4\n        /* \"#utility.yul\":16620:16640   */\n      tag_599\n      jump\t// in\n    tag_666:\n        /* \"#utility.yul\":16615:16640   */\n      swap3\n      pop\n        /* \"#utility.yul\":16659:16660   */\n      dup3\n        /* \"#utility.yul\":16656:16657   */\n      dup3\n        /* \"#utility.yul\":16653:16661   */\n      lt\n        /* \"#utility.yul\":16650:16684   */\n      iszero\n      tag_667\n      jumpi\n        /* \"#utility.yul\":16664:16682   */\n      tag_668\n      tag_652\n      jump\t// in\n    tag_668:\n        /* \"#utility.yul\":16650:16684   */\n    tag_667:\n        /* \"#utility.yul\":16709:16710   */\n      dup3\n        /* \"#utility.yul\":16706:16707   */\n      dup3\n        /* \"#utility.yul\":16702:16711   */\n      sub\n        /* \"#utility.yul\":16694:16711   */\n      swap1\n      pop\n        /* \"#utility.yul\":16526:16717   */\n      swap3\n      swap2\n      pop\n      pop\n      jump\t// out\n        /* \"#utility.yul\":16723:16819   */\n    tag_548:\n        /* \"#utility.yul\":16760:16767   */\n      0x00\n        /* \"#utility.yul\":16789:16813   */\n      tag_670\n        /* \"#utility.yul\":16807:16812   */\n      dup3\n        /* \"#utility.yul\":16789:16813   */\n      tag_671\n      jump\t// in\n    tag_670:\n        /* \"#utility.yul\":16778:16813   */\n      swap1\n      pop\n        /* \"#utility.yul\":16723:16819   */\n      swap2\n      swap1\n      pop\n      jump\t// out\n        /* \"#utility.yul\":16825:16915   */\n    tag_672:\n        /* \"#utility.yul\":16859:16866   */\n      0x00\n        /* \"#utility.yul\":16902:16907   */\n      dup2\n        /* \"#utility.yul\":16895:16908   */\n      iszero\n        /* \"#utility.yul\":16888:16909   */\n      iszero\n        /* \"#utility.yul\":16877:16909   */\n      swap1\n      pop\n        /* \"#utility.yul\":16825:16915   */\n      swap2\n      swap1\n      pop\n      jump\t// out\n        /* \"#utility.yul\":16921:17013   */\n    tag_556:\n        /* \"#utility.yul\":16957:16964   */\n      0x00\n        /* \"#utility.yul\":17001:17006   */\n      dup2\n        /* \"#utility.yul\":16997:16999   */\n      0x0f\n        /* \"#utility.yul\":16986:17007   */\n      signextend\n        /* \"#utility.yul\":16975:17007   */\n      swap1\n      pop\n        /* \"#utility.yul\":16921:17013   */\n      swap2\n      swap1\n      pop\n      jump\t// out\n        /* \"#utility.yul\":17019:17145   */\n    tag_671:\n        /* \"#utility.yul\":17056:17063   */\n      0x00\n        /* \"#utility.yul\":17096:17138   */\n      0xffffffffffffffffffffffffffffffffffffffff\n        /* \"#utility.yul\":17089:17094   */\n      dup3\n        /* \"#utility.yul\":17085:17139   */\n      and\n        /* \"#utility.yul\":17074:17139   */\n      swap1\n      pop\n        /* \"#utility.yul\":17019:17145   */\n      swap2\n      swap1\n      pop\n      jump\t// out\n        /* \"#utility.yul\":17151:17228   */\n    tag_599:\n        /* \"#utility.yul\":17188:17195   */\n      0x00\n        /* \"#utility.yul\":17217:17222   */\n      dup2\n        /* \"#utility.yul\":17206:17222   */\n      swap1\n      pop\n        /* \"#utility.yul\":17151:17228   */\n      swap2\n      swap1\n      pop\n      jump\t// out\n        /* \"#utility.yul\":17234:17373   */\n    tag_552:\n        /* \"#utility.yul\":17297:17306   */\n      0x00\n        /* \"#utility.yul\":17330:17367   */\n      tag_678\n        /* \"#utility.yul\":17361:17366   */\n      dup3\n        /* \"#utility.yul\":17330:17367   */\n      tag_679\n      jump\t// in\n    tag_678:\n        /* \"#utility.yul\":17317:17367   */\n      swap1\n      pop\n        /* \"#utility.yul\":17234:17373   */\n      swap2\n      swap1\n      pop\n      jump\t// out\n        /* \"#utility.yul\":17379:17505   */\n    tag_679:\n        /* \"#utility.yul\":17429:17438   */\n      0x00\n        /* \"#utility.yul\":17462:17499   */\n      tag_681\n        /* \"#utility.yul\":17493:17498   */\n      dup3\n        /* \"#utility.yul\":17462:17499   */\n      tag_682\n      jump\t// in\n    tag_681:\n        /* \"#utility.yul\":17449:17499   */\n      swap1\n      pop\n        /* \"#utility.yul\":17379:17505   */\n      swap2\n      swap1\n      pop\n      jump\t// out\n        /* \"#utility.yul\":17511:17624   */\n    tag_682:\n        /* \"#utility.yul\":17561:17570   */\n      0x00\n        /* \"#utility.yul\":17594:17618   */\n      tag_684\n        /* \"#utility.yul\":17612:17617   */\n      dup3\n        /* \"#utility.yul\":17594:17618   */\n      tag_671\n      jump\t// in\n    tag_684:\n        /* \"#utility.yul\":17581:17618   */\n      swap1\n      pop\n        /* \"#utility.yul\":17511:17624   */\n      swap2\n      swap1\n      pop\n      jump\t// out\n        /* \"#utility.yul\":17630:17784   */\n    tag_464:\n        /* \"#utility.yul\":17714:17720   */\n      dup3\n        /* \"#utility.yul\":17709:17712   */\n      dup2\n        /* \"#utility.yul\":17704:17707   */\n      dup4\n        /* \"#utility.yul\":17691:17721   */\n      calldatacopy\n        /* \"#utility.yul\":17776:17777   */\n      0x00\n        /* \"#utility.yul\":17767:17773   */\n      dup4\n        /* \"#utility.yul\":17762:17765   */\n      dup4\n        /* \"#utility.yul\":17758:17774   */\n      add\n        /* \"#utility.yul\":17751:17778   */\n      mstore\n        /* \"#utility.yul\":17630:17784   */\n      pop\n      pop\n      pop\n      jump\t// out\n        /* \"#utility.yul\":17790:18097   */\n    tag_564:\n        /* \"#utility.yul\":17858:17859   */\n      0x00\n        /* \"#utility.yul\":17868:17981   */\n    tag_687:\n        /* \"#utility.yul\":17882:17888   */\n      dup4\n        /* \"#utility.yul\":17879:17880   */\n      dup2\n        /* \"#utility.yul\":17876:17889   */\n      lt\n        /* \"#utility.yul\":17868:17981   */\n      iszero\n      tag_689\n      jumpi\n        /* \"#utility.yul\":17967:17968   */\n      dup1\n        /* \"#utility.yul\":17962:17965   */\n      dup3\n        /* \"#utility.yul\":17958:17969   */\n      add\n        /* \"#utility.yul\":17952:17970   */\n      mload\n        /* \"#utility.yul\":17948:17949   */\n      dup2\n        /* \"#utility.yul\":17943:17946   */\n      dup5\n        /* \"#utility.yul\":17939:17950   */\n      add\n        /* \"#utility.yul\":17932:17971   */\n      mstore\n        /* \"#utility.yul\":17904:17906   */\n      0x20\n        /* \"#utility.yul\":17901:17902   */\n      dup2\n        /* \"#utility.yul\":17897:17907   */\n      add\n        /* \"#utility.yul\":17892:17907   */\n      swap1\n      pop\n        /* \"#utility.yul\":17868:17981   */\n      jump(tag_687)\n    tag_689:\n        /* \"#utility.yul\":17999:18005   */\n      dup4\n        /* \"#utility.yul\":17996:17997   */\n      dup2\n        /* \"#utility.yul\":17993:18006   */\n      gt\n        /* \"#utility.yul\":17990:18091   */\n      iszero\n      tag_690\n      jumpi\n        /* \"#utility.yul\":18079:18080   */\n      0x00\n        /* \"#utility.yul\":18070:18076   */\n      dup5\n        /* \"#utility.yul\":18065:18068   */\n      dup5\n        /* \"#utility.yul\":18061:18077   */\n      add\n        /* \"#utility.yul\":18054:18081   */\n      mstore\n        /* \"#utility.yul\":17990:18091   */\n    tag_690:\n        /* \"#utility.yul\":17839:18097   */\n      pop\n        /* \"#utility.yul\":17790:18097   */\n      pop\n      pop\n      pop\n      jump\t// out\n        /* \"#utility.yul\":18103:18384   */\n    tag_636:\n        /* \"#utility.yul\":18186:18213   */\n      tag_692\n        /* \"#utility.yul\":18208:18212   */\n      dup3\n        /* \"#utility.yul\":18186:18213   */\n      tag_643\n      jump\t// in\n    tag_692:\n        /* \"#utility.yul\":18178:18184   */\n      dup2\n        /* \"#utility.yul\":18174:18214   */\n      add\n        /* \"#utility.yul\":18316:18322   */\n      dup2\n        /* \"#utility.yul\":18304:18314   */\n      dup2\n        /* \"#utility.yul\":18301:18323   */\n      lt\n        /* \"#utility.yul\":18280:18298   */\n      0xffffffffffffffff\n        /* \"#utility.yul\":18268:18278   */\n      dup3\n        /* \"#utility.yul\":18265:18299   */\n      gt\n        /* \"#utility.yul\":18262:18324   */\n      or\n        /* \"#utility.yul\":18259:18347   */\n      iszero\n      tag_693\n      jumpi\n        /* \"#utility.yul\":18327:18345   */\n      tag_694\n      tag_641\n      jump\t// in\n    tag_694:\n        /* \"#utility.yul\":18259:18347   */\n    tag_693:\n        /* \"#utility.yul\":18367:18377   */\n      dup1\n        /* \"#utility.yul\":18363:18365   */\n      0x40\n        /* \"#utility.yul\":18356:18378   */\n      mstore\n        /* \"#utility.yul\":18146:18384   */\n      pop\n        /* \"#utility.yul\":18103:18384   */\n      pop\n      pop\n      jump\t// out\n        /* \"#utility.yul\":18390:18623   */\n    tag_260:\n        /* \"#utility.yul\":18429:18432   */\n      0x00\n        /* \"#utility.yul\":18452:18476   */\n      tag_696\n        /* \"#utility.yul\":18470:18475   */\n      dup3\n        /* \"#utility.yul\":18452:18476   */\n      tag_599\n      jump\t// in\n    tag_696:\n        /* \"#utility.yul\":18443:18476   */\n      swap2\n      pop\n        /* \"#utility.yul\":18498:18564   */\n      0xffffffffffffffffffffffffffffffffffffffffffffffffffffffffffffffff\n        /* \"#utility.yul\":18491:18496   */\n      dup3\n        /* \"#utility.yul\":18488:18565   */\n      eq\n        /* \"#utility.yul\":18485:18588   */\n      iszero\n      tag_697\n      jumpi\n        /* \"#utility.yul\":18568:18586   */\n      tag_698\n      tag_652\n      jump\t// in\n    tag_698:\n        /* \"#utility.yul\":18485:18588   */\n    tag_697:\n        /* \"#utility.yul\":18615:18616   */\n      0x01\n        /* \"#utility.yul\":18608:18613   */\n      dup3\n        /* \"#utility.yul\":18604:18617   */\n      add\n        /* \"#utility.yul\":18597:18617   */\n      swap1\n      pop\n        /* \"#utility.yul\":18390:18623   */\n      swap2\n      swap1\n      pop\n      jump\t// out\n        /* \"#utility.yul\":18629:18809   */\n    tag_652:\n        /* \"#utility.yul\":18677:18754   */\n      0x4e487b7100000000000000000000000000000000000000000000000000000000\n        /* \"#utility.yul\":18674:18675   */\n      0x00\n        /* \"#utility.yul\":18667:18755   */\n      mstore\n        /* \"#utility.yul\":18774:18778   */\n      0x11\n        /* \"#utility.yul\":18771:18772   */\n      0x04\n        /* \"#utility.yul\":18764:18779   */\n      mstore\n        /* \"#utility.yul\":18798:18802   */\n      0x24\n        /* \"#utility.yul\":18795:18796   */\n      0x00\n        /* \"#utility.yul\":18788:18803   */\n      revert\n        /* \"#utility.yul\":18815:18995   */\n    tag_658:\n        /* \"#utility.yul\":18863:18940   */\n      0x4e487b7100000000000000000000000000000000000000000000000000000000\n        /* \"#utility.yul\":18860:18861   */\n      0x00\n        /* \"#utility.yul\":18853:18941   */\n      mstore\n        /* \"#utility.yul\":18960:18964   */\n      0x12\n        /* \"#utility.yul\":18957:18958   */\n      0x04\n        /* \"#utility.yul\":18950:18965   */\n      mstore\n        /* \"#utility.yul\":18984:18988   */\n      0x24\n        /* \"#utility.yul\":18981:18982   */\n      0x00\n        /* \"#utility.yul\":18974:18989   */\n      revert\n        /* \"#utility.yul\":19001:19181   */\n    tag_641:\n        /* \"#utility.yul\":19049:19126   */\n      0x4e487b7100000000000000000000000000000000000000000000000000000000\n        /* \"#utility.yul\":19046:19047   */\n      0x00\n        /* \"#utility.yul\":19039:19127   */\n      mstore\n        /* \"#utility.yul\":19146:19150   */\n      0x41\n        /* \"#utility.yul\":19143:19144   */\n      0x04\n        /* \"#utility.yul\":19136:19151   */\n      mstore\n        /* \"#utility.yul\":19170:19174   */\n      0x24\n        /* \"#utility.yul\":19167:19168   */\n      0x00\n        /* \"#utility.yul\":19160:19175   */\n      revert\n        /* \"#utility.yul\":19187:19304   */\n    tag_477:\n        /* \"#utility.yul\":19296:19297   */\n      0x00\n        /* \"#utility.yul\":19293:19294   */\n      dup1\n        /* \"#utility.yul\":19286:19298   */\n      revert\n        /* \"#utility.yul\":19310:19427   */\n    tag_462:\n        /* \"#utility.yul\":19419:19420   */\n      0x00\n        /* \"#utility.yul\":19416:19417   */\n      dup1\n        /* \"#utility.yul\":19409:19421   */\n      revert\n        /* \"#utility.yul\":19433:19550   */\n    tag_497:\n        /* \"#utility.yul\":19542:19543   */\n      0x00\n        /* \"#utility.yul\":19539:19540   */\n      dup1\n        /* \"#utility.yul\":19532:19544   */\n      revert\n        /* \"#utility.yul\":19556:19673   */\n    tag_489:\n        /* \"#utility.yul\":19665:19666   */\n      0x00\n        /* \"#utility.yul\":19662:19663   */\n      dup1\n        /* \"#utility.yul\":19655:19667   */\n      revert\n        /* \"#utility.yul\":19679:19781   */\n    tag_643:\n        /* \"#utility.yul\":19720:19726   */\n      0x00\n        /* \"#utility.yul\":19771:19773   */\n      0x1f\n        /* \"#utility.yul\":19767:19774   */\n      not\n        /* \"#utility.yul\":19762:19764   */\n      0x1f\n        /* \"#utility.yul\":19755:19760   */\n      dup4\n        /* \"#utility.yul\":19751:19765   */\n      add\n        /* \"#utility.yul\":19747:19775   */\n      and\n        /* \"#utility.yul\":19737:19775   */\n      swap1\n      pop\n        /* \"#utility.yul\":19679:19781   */\n      swap2\n      swap1\n      pop\n      jump\t// out\n        /* \"#utility.yul\":19787:20010   */\n    tag_570:\n        /* \"#utility.yul\":19927:19961   */\n      0x596f7520646f6e7420686176652074686174206d75636820746f207769746864\n        /* \"#utility.yul\":19923:19924   */\n      0x00\n        /* \"#utility.yul\":19915:19921   */\n      dup3\n        /* \"#utility.yul\":19911:19925   */\n      add\n        /* \"#utility.yul\":19904:19962   */\n      mstore\n        /* \"#utility.yul\":19996:20002   */\n      0x7261772100000000000000000000000000000000000000000000000000000000\n        /* \"#utility.yul\":19991:19993   */\n      0x20\n        /* \"#utility.yul\":19983:19989   */\n      dup3\n        /* \"#utility.yul\":19979:19994   */\n      add\n        /* \"#utility.yul\":19972:20003   */\n      mstore\n        /* \"#utility.yul\":19787:20010   */\n      pop\n      jump\t// out\n        /* \"#utility.yul\":20016:20187   */\n    tag_575:\n        /* \"#utility.yul\":20156:20179   */\n      0x546f6b656e207472616e73666572206661696c65640000000000000000000000\n        /* \"#utility.yul\":20152:20153   */\n      0x00\n        /* \"#utility.yul\":20144:20150   */\n      dup3\n        /* \"#utility.yul\":20140:20154   */\n      add\n        /* \"#utility.yul\":20133:20180   */\n      mstore\n        /* \"#utility.yul\":20016:20187   */\n      pop\n      jump\t// out\n        /* \"#utility.yul\":20193:20369   */\n    tag_580:\n        /* \"#utility.yul\":20333:20361   */\n      0x596f7520646f6e742068617665207468617420616d6f756e7421000000000000\n        /* \"#utility.yul\":20329:20330   */\n      0x00\n        /* \"#utility.yul\":20321:20327   */\n      dup3\n        /* \"#utility.yul\":20317:20331   */\n      add\n        /* \"#utility.yul\":20310:20362   */\n      mstore\n        /* \"#utility.yul\":20193:20369   */\n      pop\n      jump\t// out\n        /* \"#utility.yul\":20375:20546   */\n    tag_585:\n        /* \"#utility.yul\":20515:20538   */\n      0x506572207472616e73616374696f6e206c696d69740000000000000000000000\n        /* \"#utility.yul\":20511:20512   */\n      0x00\n        /* \"#utility.yul\":20503:20509   */\n      dup3\n        /* \"#utility.yul\":20499:20513   */\n      add\n        /* \"#utility.yul\":20492:20539   */\n      mstore\n        /* \"#utility.yul\":20375:20546   */\n      pop\n      jump\t// out\n        /* \"#utility.yul\":20552:20714   */\n    tag_590:\n        /* \"#utility.yul\":20692:20706   */\n      0x4e6f7420756e6c6f636b65640000000000000000000000000000000000000000\n        /* \"#utility.yul\":20688:20689   */\n      0x00\n        /* \"#utility.yul\":20680:20686   */\n      dup3\n        /* \"#utility.yul\":20676:20690   */\n      add\n        /* \"#utility.yul\":20669:20707   */\n      mstore\n        /* \"#utility.yul\":20552:20714   */\n      pop\n      jump\t// out\n        /* \"#utility.yul\":20720:20940   */\n    tag_595:\n        /* \"#utility.yul\":20860:20894   */\n      0x75696e74206f766572666c6f772066726f6d206d756c7469706c69636174696f\n        /* \"#utility.yul\":20856:20857   */\n      0x00\n        /* \"#utility.yul\":20848:20854   */\n      dup3\n        /* \"#utility.yul\":20844:20858   */\n      add\n        /* \"#utility.yul\":20837:20895   */\n      mstore\n        /* \"#utility.yul\":20929:20932   */\n      0x6e00000000000000000000000000000000000000000000000000000000000000\n        /* \"#utility.yul\":20924:20926   */\n      0x20\n        /* \"#utility.yul\":20916:20922   */\n      dup3\n        /* \"#utility.yul\":20912:20927   */\n      add\n        /* \"#utility.yul\":20905:20933   */\n      mstore\n        /* \"#utility.yul\":20720:20940   */\n      pop\n      jump\t// out\n        /* \"#utility.yul\":20946:21068   */\n    tag_468:\n        /* \"#utility.yul\":21019:21043   */\n      tag_714\n        /* \"#utility.yul\":21037:21042   */\n      dup2\n        /* \"#utility.yul\":21019:21043   */\n      tag_548\n      jump\t// in\n    tag_714:\n        /* \"#utility.yul\":21012:21017   */\n      dup2\n        /* \"#utility.yul\":21009:21044   */\n      eq\n        /* \"#utility.yul\":20999:21062   */\n      tag_715\n      jumpi\n        /* \"#utility.yul\":21058:21059   */\n      0x00\n        /* \"#utility.yul\":21055:21056   */\n      dup1\n        /* \"#utility.yul\":21048:21060   */\n      revert\n        /* \"#utility.yul\":20999:21062   */\n    tag_715:\n        /* \"#utility.yul\":20946:21068   */\n      pop\n      jump\t// out\n        /* \"#utility.yul\":21074:21190   */\n    tag_472:\n        /* \"#utility.yul\":21144:21165   */\n      tag_717\n        /* \"#utility.yul\":21159:21164   */\n      dup2\n        /* \"#utility.yul\":21144:21165   */\n      tag_672\n      jump\t// in\n    tag_717:\n        /* \"#utility.yul\":21137:21142   */\n      dup2\n        /* \"#utility.yul\":21134:21166   */\n      eq\n        /* \"#utility.yul\":21124:21184   */\n      tag_718\n      jumpi\n        /* \"#utility.yul\":21180:21181   */\n      0x00\n        /* \"#utility.yul\":21177:21178   */\n      dup1\n        /* \"#utility.yul\":21170:21182   */\n      revert\n        /* \"#utility.yul\":21124:21184   */\n    tag_718:\n        /* \"#utility.yul\":21074:21190   */\n      pop\n      jump\t// out\n        /* \"#utility.yul\":21196:21318   */\n    tag_482:\n        /* \"#utility.yul\":21269:21293   */\n      tag_720\n        /* \"#utility.yul\":21287:21292   */\n      dup2\n        /* \"#utility.yul\":21269:21293   */\n      tag_599\n      jump\t// in\n    tag_720:\n        /* \"#utility.yul\":21262:21267   */\n      dup2\n        /* \"#utility.yul\":21259:21294   */\n      eq\n        /* \"#utility.yul\":21249:21312   */\n      tag_721\n      jumpi\n        /* \"#utility.yul\":21308:21309   */\n      0x00\n        /* \"#utility.yul\":21305:21306   */\n      dup1\n        /* \"#utility.yul\":21298:21310   */\n      revert\n        /* \"#utility.yul\":21249:21312   */\n    tag_721:\n        /* \"#utility.yul\":21196:21318   */\n      pop\n      jump\t// out\n\n    auxdata: 0xa26469706673582212200dfc8a760f5e9f90bebe004bd2c705773d460d550aef9eca7a7ab8124993791b64736f6c63430008070033\n}\n",
				"bytecode": {
					"linkReferences": {},
					"object": "6080604052670de0b6b3a764000061c3506200001c9190620004e1565b600a55620186a0600d5562015f90600e55620927c0600f5573617f2e2fd72fd9d5503197092ac168c91465e7f2601160006101000a81548173ffffffffffffffffffffffffffffffffffffffff021916908373ffffffffffffffffffffffffffffffffffffffff1602179055503480156200009657600080fd5b50604051620034a9380380620034a98339818101604052810190620000bc9190620003d5565b81601c60006101000a81548173ffffffffffffffffffffffffffffffffffffffff021916908373ffffffffffffffffffffffffffffffffffffffff16021790555080601d60006101000a81548173ffffffffffffffffffffffffffffffffffffffff021916908373ffffffffffffffffffffffffffffffffffffffff16021790555081601260006101000a81548173ffffffffffffffffffffffffffffffffffffffff021916908373ffffffffffffffffffffffffffffffffffffffff160217905550732f8895b08d8f226b19895d46154fab7096fb2593601a604051620001a490620004bf565b908152602001604051809103902060000160006101000a81548173ffffffffffffffffffffffffffffffffffffffff021916908373ffffffffffffffffffffffffffffffffffffffff1602179055506005601a6040516200020590620004bf565b908152602001604051809103902060010181905550738d11ec38a3eb5e956b052f67da8bdc9bef8abf3e601a6040516200023f90620004a8565b908152602001604051809103902060000160006101000a81548173ffffffffffffffffffffffffffffffffffffffff021916908373ffffffffffffffffffffffffffffffffffffffff1602179055506012601a604051620002a090620004a8565b90815260200160405180910390206001018190555073dc301622e621166bd8e82f2ca0a26c13ad0be355601a604051620002da9062000491565b908152602001604051809103902060000160006101000a81548173ffffffffffffffffffffffffffffffffffffffff021916908373ffffffffffffffffffffffffffffffffffffffff1602179055506012601a6040516200033b9062000491565b90815260200160405180910390206001018190555073617f2e2fd72fd9d5503197092ac168c91465e7f2600660006101000a81548173ffffffffffffffffffffffffffffffffffffffff021916908373ffffffffffffffffffffffffffffffffffffffff16021790555042600b8190555062069780600c81905550505062000649565b600081519050620003cf816200062f565b92915050565b60008060408385031215620003ef57620003ee620005af565b5b6000620003ff85828601620003be565b92505060206200041285828601620003be565b9150509250929050565b60006200042b600483620004d6565b91506200043882620005b4565b600482019050919050565b600062000452600383620004d6565b91506200045f82620005dd565b600382019050919050565b600062000479600483620004d6565b9150620004868262000606565b600482019050919050565b60006200049e826200041c565b9150819050919050565b6000620004b58262000443565b9150819050919050565b6000620004cc826200046a565b9150819050919050565b600081905092915050565b6000620004ee8262000576565b9150620004fb8362000576565b9250817fffffffffffffffffffffffffffffffffffffffffffffffffffffffffffffffff048311821515161562000537576200053662000580565b5b828202905092915050565b60006200054f8262000556565b9050919050565b600073ffffffffffffffffffffffffffffffffffffffff82169050919050565b6000819050919050565b7f4e487b7100000000000000000000000000000000000000000000000000000000600052601160045260246000fd5b600080fd5b7f4652415800000000000000000000000000000000000000000000000000000000600082015250565b7f4441490000000000000000000000000000000000000000000000000000000000600082015250565b7f5553444300000000000000000000000000000000000000000000000000000000600082015250565b6200063a8162000542565b81146200064657600080fd5b50565b612e5080620006596000396000f3fe6080604052600436106102465760003560e01c80636e05c1b911610139578063c0ca6fb4116100b6578063e5d980821161007a578063e5d9808214610870578063ee62086814610899578063eee05f5e146108c4578063f7523c52146108ef578063fbbb45891461092c578063fc3614431461095757610246565b8063c0ca6fb4146107a8578063c0ce5889146107d3578063cbff4617146107ef578063d04d79081461081a578063d82eddf21461084557610246565b806393f7b711116100fd57806393f7b711146106c25780639b19251a146106ed578063a475bf4814610716578063bdad7f0214610754578063c079d7f61461077d57610246565b80636e05c1b9146105ed5780636f10e285146106185780637087a7a51461064357806371cd58f91461066e578063862d1b351461069957610246565b806326ae486e116101c75780633c6eb17a1161018b5780633c6eb17a1461050657806343d32e9c1461053157806364ce07d81461055c57806367b48c911461059957806367e927a8146105c457610246565b806326ae486e1461041f57806329982a321461044a5780632a9f0fb11461047557806335453307146104b257806339ad95d6146104dd57610246565b80631514c9761161020e5780631514c97614610335578063164c8501146103725780631a30e8721461039b5780631bc9cc45146103d85780631f564a06146103f457610246565b8063018a25e81461024b578063047729b0146102765780630ccaf04f146102a15780630f65de3e146102cc57806312b2ed94146102f7575b600080fd5b34801561025757600080fd5b50610260610980565b60405161026d91906128c4565b60405180910390f35b34801561028257600080fd5b5061028b610a9e565b6040516102989190612753565b60405180910390f35b3480156102ad57600080fd5b506102b6610ac4565b6040516102c391906128c4565b60405180910390f35b3480156102d857600080fd5b506102e1610c1e565b6040516102ee91906128c4565b60405180910390f35b34801561030357600080fd5b5061031e6004803603810190610319919061232a565b610c23565b60405161032c9291906128df565b60405180910390f35b34801561034157600080fd5b5061035c60048036038101906103579190612498565b610c47565b60405161036991906128c4565b60405180910390f35b34801561037e57600080fd5b5061039960048036038101906103949190612498565b610c5f565b005b3480156103a757600080fd5b506103c260048036038101906103bd9190612498565b610ddd565b6040516103cf91906128c4565b60405180910390f35b6103f260048036038101906103ed9190612498565b610df5565b005b34801561040057600080fd5b50610409610f8d565b60405161041691906128c4565b60405180910390f35b34801561042b57600080fd5b5061043461103f565b60405161044191906127ce565b60405180910390f35b34801561045657600080fd5b5061045f611065565b60405161046c9190612753565b60405180910390f35b34801561048157600080fd5b5061049c60048036038101906104979190612498565b61108b565b6040516104a991906128c4565b60405180910390f35b3480156104be57600080fd5b506104c76110a3565b6040516104d491906128c4565b60405180910390f35b3480156104e957600080fd5b5061050460048036038101906104ff9190612498565b6110a9565b005b34801561051257600080fd5b5061051b6110ac565b60405161052891906128c4565b60405180910390f35b34801561053d57600080fd5b506105466110b2565b60405161055391906128c4565b60405180910390f35b34801561056857600080fd5b50610583600480360381019061057e919061254e565b6111d0565b60405161059091906128c4565b60405180910390f35b3480156105a557600080fd5b506105ae611211565b6040516105bb91906128c4565b60405180910390f35b3480156105d057600080fd5b506105eb60048036038101906105e69190612498565b611217565b005b3480156105f957600080fd5b506106026112c8565b60405161060f91906127ce565b60405180910390f35b34801561062457600080fd5b5061062d6112ee565b60405161063a91906127e9565b60405180910390f35b34801561064f57600080fd5b50610658611301565b60405161066591906127ce565b60405180910390f35b34801561067a57600080fd5b50610683611327565b60405161069091906128c4565b60405180910390f35b3480156106a557600080fd5b506106c060048036038101906106bb91906124f2565b6113de565b005b3480156106ce57600080fd5b506106d76117e9565b6040516106e491906128c4565b60405180910390f35b3480156106f957600080fd5b50610714600480360381019061070f919061232a565b611943565b005b34801561072257600080fd5b5061073d600480360381019061073891906123e0565b611946565b60405161074b9291906127a5565b60405180910390f35b34801561076057600080fd5b5061077b60048036038101906107769190612357565b6119a0565b005b34801561078957600080fd5b50610792611b21565b60405161079f9190612753565b60405180910390f35b3480156107b457600080fd5b506107bd611b47565b6040516107ca91906127ce565b60405180910390f35b6107ed60048036038101906107e8919061258e565b611b6d565b005b3480156107fb57600080fd5b50610804611ee6565b60405161081191906128c4565b60405180910390f35b34801561082657600080fd5b5061082f611eec565b60405161083c91906127ce565b60405180910390f35b34801561085157600080fd5b5061085a611f12565b60405161086791906128c4565b60405180910390f35b34801561087c57600080fd5b5061089760048036038101906108929190612429565b611f75565b005b3480156108a557600080fd5b506108ae612000565b6040516108bb91906128c4565b60405180910390f35b3480156108d057600080fd5b506108d9612006565b6040516108e69190612753565b60405180910390f35b3480156108fb57600080fd5b506109166004803603810190610911919061254e565b61202c565b60405161092391906128c4565b60405180910390f35b34801561093857600080fd5b50610941612075565b60405161094e9190612753565b60405180910390f35b34801561096357600080fd5b5061097e60048036038101906109799190612498565b61209b565b005b6000610a993073ffffffffffffffffffffffffffffffffffffffff16631f564a066040518163ffffffff1660e01b815260040160206040518083038186803b1580156109cb57600080fd5b505afa1580156109df573d6000803e3d6000fd5b505050506040513d601f19601f82011682018060405250810190610a0391906124c5565b3073ffffffffffffffffffffffffffffffffffffffff166393f7b7116040518163ffffffff1660e01b815260040160206040518083038186803b158015610a4957600080fd5b505afa158015610a5d573d6000803e3d6000fd5b505050506040513d601f19601f82011682018060405250810190610a8191906124c5565b6710a741a462780000610a949190612985565b61202c565b905090565b600860009054906101000a900473ffffffffffffffffffffffffffffffffffffffff1681565b60008060008062015180600c54610adb91906129db565b9050600062015180600b5442610af19190612a66565b610afb91906129db565b9050600080821415610b225760196000808152602001908152602001600020549350610b6e565b8282610b2e9190612a66565b90505b81811015610b6d57601960008281526020019081526020016000205484610b589190612985565b93508080610b6590612b98565b915050610b31565b5b610bf53073ffffffffffffffffffffffffffffffffffffffff1663d82eddf26040518163ffffffff1660e01b815260040160206040518083038186803b158015610bb757600080fd5b505afa158015610bcb573d6000803e3d6000fd5b505050506040513d601f19601f82011682018060405250810190610bef91906124c5565b856111d0565b9450670429d069189e0000851115610c1357670429d069189e000094505b849550505050505090565b600090565b601b6020528060005260406000206000915090508060000154908060010154905082565b60186020528060005260406000206000915090505481565b601b60003373ffffffffffffffffffffffffffffffffffffffff1673ffffffffffffffffffffffffffffffffffffffff168152602001908152602001600020600101548110610ce3576040517f08c379a0000000000000000000000000000000000000000000000000000000008152600401610cda90612804565b60405180910390fd5b80601b60003373ffffffffffffffffffffffffffffffffffffffff1673ffffffffffffffffffffffffffffffffffffffff1681526020019081526020016000206001016000828254610d359190612a66565b925050819055506000601b60003373ffffffffffffffffffffffffffffffffffffffff1673ffffffffffffffffffffffffffffffffffffffff168152602001908152602001600020600101541415610dda57601b60003373ffffffffffffffffffffffffffffffffffffffff1673ffffffffffffffffffffffffffffffffffffffff168152602001908152602001600020600080820160009055600182016000905550505b50565b60196020528060005260406000206000915090505481565b6000601260009054906101000a900473ffffffffffffffffffffffffffffffffffffffff1673ffffffffffffffffffffffffffffffffffffffff166370a08231336040518263ffffffff1660e01b8152600401610e529190612753565b60206040518083038186803b158015610e6a57600080fd5b505afa158015610e7e573d6000803e3d6000fd5b505050506040513d601f19601f82011682018060405250810190610ea291906124c5565b9050818111610ee6576040517f08c379a0000000000000000000000000000000000000000000000000000000008152600401610edd90612844565b60405180910390fd5b610f14601260009054906101000a900473ffffffffffffffffffffffffffffffffffffffff163330856120b3565b600062015180600b5442610f289190612a66565b610f3291906129db565b905082601860008381526020019081526020016000206000828254610f579190612985565b9250508190555082601960008381526020019081526020016000206000828254610f819190612a66565b92505081905550505050565b600061103a600a54601260009054906101000a900473ffffffffffffffffffffffffffffffffffffffff1673ffffffffffffffffffffffffffffffffffffffff166318160ddd6040518163ffffffff1660e01b815260040160206040518083038186803b158015610ffd57600080fd5b505afa158015611011573d6000803e3d6000fd5b505050506040513d601f19601f8201168201806040525081019061103591906124c5565b6111d0565b905090565b601360009054906101000a900473ffffffffffffffffffffffffffffffffffffffff1681565b600960009054906101000a900473ffffffffffffffffffffffffffffffffffffffff1681565b60176020528060005260406000206000915090505481565b600a5481565b50565b600b5481565b60006111cb3073ffffffffffffffffffffffffffffffffffffffff16631f564a066040518163ffffffff1660e01b815260040160206040518083038186803b1580156110fd57600080fd5b505afa158015611111573d6000803e3d6000fd5b505050506040513d601f19601f8201168201806040525081019061113591906124c5565b3073ffffffffffffffffffffffffffffffffffffffff16630ccaf04f6040518163ffffffff1660e01b815260040160206040518083038186803b15801561117b57600080fd5b505afa15801561118f573d6000803e3d6000fd5b505050506040513d601f19601f820116820180604052508101906111b391906124c5565b670c7d713b49da00006111c69190612a66565b61202c565b905090565b6000806111e584670de0b6b3a764000061218d565b9050826111fe826002866111f991906129db565b612208565b61120891906129db565b91505092915050565b600c5481565b620d2f00426112269190612985565b601b60003373ffffffffffffffffffffffffffffffffffffffff1673ffffffffffffffffffffffffffffffffffffffff1681526020019081526020016000206000018190555080601b60003373ffffffffffffffffffffffffffffffffffffffff1673ffffffffffffffffffffffffffffffffffffffff16815260200190815260200160002060010160008282546112be9190612985565b9250508190555050565b601260009054906101000a900473ffffffffffffffffffffffffffffffffffffffff1681565b601060009054906101000a9004600f0b81565b601660009054906101000a900473ffffffffffffffffffffffffffffffffffffffff1681565b60008060008062015180600c5461133e91906129db565b9050600062015180600b54426113549190612a66565b61135e91906129db565b905060008114156113885760176000808152602001908152602001600020549450505050506113db565b81816113949190612a66565b92505b808310156113d3576017600084815260200190815260200160002054846113be9190612985565b935082806113cb90612b98565b935050611397565b839450505050505b90565b601a816040516113ee919061273c565b908152602001604051809103902060000160009054906101000a900473ffffffffffffffffffffffffffffffffffffffff16601660006101000a81548173ffffffffffffffffffffffffffffffffffffffff021916908373ffffffffffffffffffffffffffffffffffffffff1602179055506203d0908211156114a6576040517f08c379a000000000000000000000000000000000000000000000000000000000815260040161149d90612864565b60405180910390fd5b6000601660009054906101000a900473ffffffffffffffffffffffffffffffffffffffff1673ffffffffffffffffffffffffffffffffffffffff166370a08231336040518263ffffffff1660e01b81526004016115039190612753565b60206040518083038186803b15801561151b57600080fd5b505afa15801561152f573d6000803e3d6000fd5b505050506040513d601f19601f8201168201806040525081019061155391906124c5565b9050828111611597576040517f08c379a000000000000000000000000000000000000000000000000000000000815260040161158e90612844565b60405180910390fd5b6000601a836040516115a9919061273c565b9081526020016040518091039020600101543073ffffffffffffffffffffffffffffffffffffffff1663018a25e86040518163ffffffff1660e01b815260040160206040518083038186803b15801561160157600080fd5b505afa158015611615573d6000803e3d6000fd5b505050506040513d601f19601f8201168201806040525081019061163991906124c5565b856116449190612a0c565b61164e9190612a0c565b905061167e601660009054906101000a900473ffffffffffffffffffffffffffffffffffffffff163330846120b3565b601c60009054906101000a900473ffffffffffffffffffffffffffffffffffffffff1673ffffffffffffffffffffffffffffffffffffffff166340c10f1933670de0b6b3a7640000876116d19190612a0c565b6040518363ffffffff1660e01b81526004016116ee9291906127a5565b600060405180830381600087803b15801561170857600080fd5b505af115801561171c573d6000803e3d6000fd5b50505050600062015180600b54426117349190612a66565b61173e91906129db565b9050846017600083815260200190815260200160002060008282546117639190612985565b925050819055508460196000838152602001908152602001600020600082825461178d9190612985565b925050819055503373ffffffffffffffffffffffffffffffffffffffff167ff633443b01504d269657083d48bb6de98e089cfff672b47fefbed21608b5c779866040516117da91906128c4565b60405180910390a25050505050565b60008060008062015180600c5461180091906129db565b9050600062015180600b54426118169190612a66565b61182091906129db565b90506000808214156118475760196000808152602001908152602001600020549350611893565b82826118539190612a66565b90505b818110156118925760196000828152602001908152602001600020548461187d9190612985565b9350808061188a90612b98565b915050611856565b5b61191a3073ffffffffffffffffffffffffffffffffffffffff166371cd58f96040518163ffffffff1660e01b815260040160206040518083038186803b1580156118dc57600080fd5b505afa1580156118f0573d6000803e3d6000fd5b505050506040513d601f19601f8201168201806040525081019061191491906124c5565b856111d0565b9450670429d069189e000085111561193857670429d069189e000094505b849550505050505090565b50565b601a818051602081018201805184825260208301602085012081835280955050505050506000915090508060000160009054906101000a900473ffffffffffffffffffffffffffffffffffffffff16908060010154905082565b601b60008373ffffffffffffffffffffffffffffffffffffffff1673ffffffffffffffffffffffffffffffffffffffff16815260200190815260200160002060000154421015611a25576040517f08c379a0000000000000000000000000000000000000000000000000000000008152600401611a1c90612884565b60405180910390fd5b601a81604051611a35919061273c565b908152602001604051809103902060000160009054906101000a900473ffffffffffffffffffffffffffffffffffffffff16601660006101000a81548173ffffffffffffffffffffffffffffffffffffffff021916908373ffffffffffffffffffffffffffffffffffffffff1602179055506000601b60008473ffffffffffffffffffffffffffffffffffffffff1673ffffffffffffffffffffffffffffffffffffffff168152602001908152602001600020600101549050611b1c601660009054906101000a900473ffffffffffffffffffffffffffffffffffffffff163033846120b3565b505050565b600760009054906101000a900473ffffffffffffffffffffffffffffffffffffffff1681565b601560009054906101000a900473ffffffffffffffffffffffffffffffffffffffff1681565b601a81604051611b7d919061273c565b908152602001604051809103902060000160009054906101000a900473ffffffffffffffffffffffffffffffffffffffff16601660006101000a81548173ffffffffffffffffffffffffffffffffffffffff021916908373ffffffffffffffffffffffffffffffffffffffff1602179055506000601260009054906101000a900473ffffffffffffffffffffffffffffffffffffffff1673ffffffffffffffffffffffffffffffffffffffff166370a08231336040518263ffffffff1660e01b8152600401611c4c9190612753565b60206040518083038186803b158015611c6457600080fd5b505afa158015611c78573d6000803e3d6000fd5b505050506040513d601f19601f82011682018060405250810190611c9c91906124c5565b9050838111611ce0576040517f08c379a0000000000000000000000000000000000000000000000000000000008152600401611cd790612844565b60405180910390fd5b601660009054906101000a900473ffffffffffffffffffffffffffffffffffffffff1673ffffffffffffffffffffffffffffffffffffffff1663a9059cbb33670de0b6b3a76400006001611d349190612a0c565b87611d3f9190612985565b6040518363ffffffff1660e01b8152600401611d5c9291906127a5565b602060405180830381600087803b158015611d7657600080fd5b505af1158015611d8a573d6000803e3d6000fd5b505050506040513d601f19601f82011682018060405250810190611dae91906123b3565b50611ddd601260009054906101000a900473ffffffffffffffffffffffffffffffffffffffff163330876120b3565b6000843073ffffffffffffffffffffffffffffffffffffffff166343d32e9c6040518163ffffffff1660e01b815260040160206040518083038186803b158015611e2657600080fd5b505afa158015611e3a573d6000803e3d6000fd5b505050506040513d601f19601f82011682018060405250810190611e5e91906124c5565b611e689190612a0c565b9050600062015180600b5442611e7e9190612a66565b611e8891906129db565b905085601860008381526020019081526020016000206000828254611ead9190612985565b9250508190555085601960008381526020019081526020016000206000828254611ed79190612a66565b92505081905550505050505050565b60015481565b601460009054906101000a900473ffffffffffffffffffffffffffffffffffffffff1681565b60008060008062015180600c54611f2991906129db565b9050600091505b80821015611f6c57601860008381526020019081526020016000205483611f579190612985565b92508180611f6490612b98565b925050611f30565b82935050505090565b81601a84604051611f86919061273c565b908152602001604051809103902060000160006101000a81548173ffffffffffffffffffffffffffffffffffffffff021916908373ffffffffffffffffffffffffffffffffffffffff16021790555080601a84604051611fe6919061273c565b908152602001604051809103902060010181905550505050565b60005481565b601160009054906101000a900473ffffffffffffffffffffffffffffffffffffffff1681565b600080612039848461218d565b9050670de0b6b3a7640000612062826002670de0b6b3a764000061205d91906129db565b612208565b61206c91906129db565b91505092915050565b600660009054906101000a900473ffffffffffffffffffffffffffffffffffffffff1681565b62015180816120aa9190612a0c565b600c8190555050565b60008473ffffffffffffffffffffffffffffffffffffffff166323b872dd8585856040518463ffffffff1660e01b81526004016120f29392919061276e565b602060405180830381600087803b15801561210c57600080fd5b505af1158015612120573d6000803e3d6000fd5b505050506040513d601f19601f8201168201806040525081019061214491906123b3565b905080612186576040517f08c379a000000000000000000000000000000000000000000000000000000000815260040161217d90612824565b60405180910390fd5b5050505050565b6000808314156121a05760009050612202565b600082846121ae9190612a0c565b90508284826121bd91906129db565b146121fd576040517f08c379a00000000000000000000000000000000000000000000000000000000081526004016121f4906128a4565b60405180910390fd5b809150505b92915050565b60008082846122179190612985565b90508381101561225c576040517f08c379a0000000000000000000000000000000000000000000000000000000008152600401612253906128a4565b60405180910390fd5b8091505092915050565b60006122796122748461292d565b612908565b90508281526020810184848401111561229557612294612c73565b5b6122a0848285612b25565b509392505050565b6000813590506122b781612dd5565b92915050565b6000815190506122cc81612dec565b92915050565b600082601f8301126122e7576122e6612c6e565b5b81356122f7848260208601612266565b91505092915050565b60008135905061230f81612e03565b92915050565b60008151905061232481612e03565b92915050565b6000602082840312156123405761233f612c7d565b5b600061234e848285016122a8565b91505092915050565b6000806040838503121561236e5761236d612c7d565b5b600061237c858286016122a8565b925050602083013567ffffffffffffffff81111561239d5761239c612c78565b5b6123a9858286016122d2565b9150509250929050565b6000602082840312156123c9576123c8612c7d565b5b60006123d7848285016122bd565b91505092915050565b6000602082840312156123f6576123f5612c7d565b5b600082013567ffffffffffffffff81111561241457612413612c78565b5b612420848285016122d2565b91505092915050565b60008060006060848603121561244257612441612c7d565b5b600084013567ffffffffffffffff8111156124605761245f612c78565b5b61246c868287016122d2565b935050602061247d868287016122a8565b925050604061248e86828701612300565b9150509250925092565b6000602082840312156124ae576124ad612c7d565b5b60006124bc84828501612300565b91505092915050565b6000602082840312156124db576124da612c7d565b5b60006124e984828501612315565b91505092915050565b6000806040838503121561250957612508612c7d565b5b600061251785828601612300565b925050602083013567ffffffffffffffff81111561253857612537612c78565b5b612544858286016122d2565b9150509250929050565b6000806040838503121561256557612564612c7d565b5b600061257385828601612300565b925050602061258485828601612300565b9150509250929050565b6000806000606084860312156125a7576125a6612c7d565b5b60006125b586828701612300565b93505060206125c686828701612300565b925050604084013567ffffffffffffffff8111156125e7576125e6612c78565b5b6125f3868287016122d2565b9150509250925092565b61260681612a9a565b82525050565b61261581612aef565b82525050565b61262481612ab8565b82525050565b60006126358261295e565b61263f818561297a565b935061264f818560208601612b34565b80840191505092915050565b6000612668602483612969565b915061267382612c93565b604082019050919050565b600061268b601583612969565b915061269682612ce2565b602082019050919050565b60006126ae601a83612969565b91506126b982612d0b565b602082019050919050565b60006126d1601583612969565b91506126dc82612d34565b602082019050919050565b60006126f4600c83612969565b91506126ff82612d5d565b602082019050919050565b6000612717602183612969565b915061272282612d86565b604082019050919050565b61273681612ae5565b82525050565b6000612748828461262a565b915081905092915050565b600060208201905061276860008301846125fd565b92915050565b600060608201905061278360008301866125fd565b61279060208301856125fd565b61279d604083018461272d565b949350505050565b60006040820190506127ba60008301856125fd565b6127c7602083018461272d565b9392505050565b60006020820190506127e3600083018461260c565b92915050565b60006020820190506127fe600083018461261b565b92915050565b6000602082019050818103600083015261281d8161265b565b9050919050565b6000602082019050818103600083015261283d8161267e565b9050919050565b6000602082019050818103600083015261285d816126a1565b9050919050565b6000602082019050818103600083015261287d816126c4565b9050919050565b6000602082019050818103600083015261289d816126e7565b9050919050565b600060208201905081810360008301526128bd8161270a565b9050919050565b60006020820190506128d9600083018461272d565b92915050565b60006040820190506128f4600083018561272d565b612901602083018461272d565b9392505050565b6000612912612923565b905061291e8282612b67565b919050565b6000604051905090565b600067ffffffffffffffff82111561294857612947612c3f565b5b61295182612c82565b9050602081019050919050565b600081519050919050565b600082825260208201905092915050565b600081905092915050565b600061299082612ae5565b915061299b83612ae5565b9250827fffffffffffffffffffffffffffffffffffffffffffffffffffffffffffffffff038211156129d0576129cf612be1565b5b828201905092915050565b60006129e682612ae5565b91506129f183612ae5565b925082612a0157612a00612c10565b5b828204905092915050565b6000612a1782612ae5565b9150612a2283612ae5565b9250817fffffffffffffffffffffffffffffffffffffffffffffffffffffffffffffffff0483118215151615612a5b57612a5a612be1565b5b828202905092915050565b6000612a7182612ae5565b9150612a7c83612ae5565b925082821015612a8f57612a8e612be1565b5b828203905092915050565b6000612aa582612ac5565b9050919050565b60008115159050919050565b600081600f0b9050919050565b600073ffffffffffffffffffffffffffffffffffffffff82169050919050565b6000819050919050565b6000612afa82612b01565b9050919050565b6000612b0c82612b13565b9050919050565b6000612b1e82612ac5565b9050919050565b82818337600083830152505050565b60005b83811015612b52578082015181840152602081019050612b37565b83811115612b61576000848401525b50505050565b612b7082612c82565b810181811067ffffffffffffffff82111715612b8f57612b8e612c3f565b5b80604052505050565b6000612ba382612ae5565b91507fffffffffffffffffffffffffffffffffffffffffffffffffffffffffffffffff821415612bd657612bd5612be1565b5b600182019050919050565b7f4e487b7100000000000000000000000000000000000000000000000000000000600052601160045260246000fd5b7f4e487b7100000000000000000000000000000000000000000000000000000000600052601260045260246000fd5b7f4e487b7100000000000000000000000000000000000000000000000000000000600052604160045260246000fd5b600080fd5b600080fd5b600080fd5b600080fd5b6000601f19601f8301169050919050565b7f596f7520646f6e7420686176652074686174206d75636820746f20776974686460008201527f7261772100000000000000000000000000000000000000000000000000000000602082015250565b7f546f6b656e207472616e73666572206661696c65640000000000000000000000600082015250565b7f596f7520646f6e742068617665207468617420616d6f756e7421000000000000600082015250565b7f506572207472616e73616374696f6e206c696d69740000000000000000000000600082015250565b7f4e6f7420756e6c6f636b65640000000000000000000000000000000000000000600082015250565b7f75696e74206f766572666c6f772066726f6d206d756c7469706c69636174696f60008201527f6e00000000000000000000000000000000000000000000000000000000000000602082015250565b612dde81612a9a565b8114612de957600080fd5b50565b612df581612aac565b8114612e0057600080fd5b50565b612e0c81612ae5565b8114612e1757600080fd5b5056fea26469706673582212200dfc8a760f5e9f90bebe004bd2c705773d460d550aef9eca7a7ab8124993791b64736f6c63430008070033",
					"opcodes": "PUSH1 0x80 PUSH1 0x40 MSTORE PUSH8 0xDE0B6B3A7640000 PUSH2 0xC350 PUSH3 0x1C SWAP2 SWAP1 PUSH3 0x4E1 JUMP JUMPDEST PUSH1 0xA SSTORE PUSH3 0x186A0 PUSH1 0xD SSTORE PUSH3 0x15F90 PUSH1 0xE SSTORE PUSH3 0x927C0 PUSH1 0xF SSTORE PUSH20 0x617F2E2FD72FD9D5503197092AC168C91465E7F2 PUSH1 0x11 PUSH1 0x0 PUSH2 0x100 EXP DUP2 SLOAD DUP2 PUSH20 0xFFFFFFFFFFFFFFFFFFFFFFFFFFFFFFFFFFFFFFFF MUL NOT AND SWAP1 DUP4 PUSH20 0xFFFFFFFFFFFFFFFFFFFFFFFFFFFFFFFFFFFFFFFF AND MUL OR SWAP1 SSTORE POP CALLVALUE DUP1 ISZERO PUSH3 0x96 JUMPI PUSH1 0x0 DUP1 REVERT JUMPDEST POP PUSH1 0x40 MLOAD PUSH3 0x34A9 CODESIZE SUB DUP1 PUSH3 0x34A9 DUP4 CODECOPY DUP2 DUP2 ADD PUSH1 0x40 MSTORE DUP2 ADD SWAP1 PUSH3 0xBC SWAP2 SWAP1 PUSH3 0x3D5 JUMP JUMPDEST DUP2 PUSH1 0x1C PUSH1 0x0 PUSH2 0x100 EXP DUP2 SLOAD DUP2 PUSH20 0xFFFFFFFFFFFFFFFFFFFFFFFFFFFFFFFFFFFFFFFF MUL NOT AND SWAP1 DUP4 PUSH20 0xFFFFFFFFFFFFFFFFFFFFFFFFFFFFFFFFFFFFFFFF AND MUL OR SWAP1 SSTORE POP DUP1 PUSH1 0x1D PUSH1 0x0 PUSH2 0x100 EXP DUP2 SLOAD DUP2 PUSH20 0xFFFFFFFFFFFFFFFFFFFFFFFFFFFFFFFFFFFFFFFF MUL NOT AND SWAP1 DUP4 PUSH20 0xFFFFFFFFFFFFFFFFFFFFFFFFFFFFFFFFFFFFFFFF AND MUL OR SWAP1 SSTORE POP DUP2 PUSH1 0x12 PUSH1 0x0 PUSH2 0x100 EXP DUP2 SLOAD DUP2 PUSH20 0xFFFFFFFFFFFFFFFFFFFFFFFFFFFFFFFFFFFFFFFF MUL NOT AND SWAP1 DUP4 PUSH20 0xFFFFFFFFFFFFFFFFFFFFFFFFFFFFFFFFFFFFFFFF AND MUL OR SWAP1 SSTORE POP PUSH20 0x2F8895B08D8F226B19895D46154FAB7096FB2593 PUSH1 0x1A PUSH1 0x40 MLOAD PUSH3 0x1A4 SWAP1 PUSH3 0x4BF JUMP JUMPDEST SWAP1 DUP2 MSTORE PUSH1 0x20 ADD PUSH1 0x40 MLOAD DUP1 SWAP2 SUB SWAP1 KECCAK256 PUSH1 0x0 ADD PUSH1 0x0 PUSH2 0x100 EXP DUP2 SLOAD DUP2 PUSH20 0xFFFFFFFFFFFFFFFFFFFFFFFFFFFFFFFFFFFFFFFF MUL NOT AND SWAP1 DUP4 PUSH20 0xFFFFFFFFFFFFFFFFFFFFFFFFFFFFFFFFFFFFFFFF AND MUL OR SWAP1 SSTORE POP PUSH1 0x5 PUSH1 0x1A PUSH1 0x40 MLOAD PUSH3 0x205 SWAP1 PUSH3 0x4BF JUMP JUMPDEST SWAP1 DUP2 MSTORE PUSH1 0x20 ADD PUSH1 0x40 MLOAD DUP1 SWAP2 SUB SWAP1 KECCAK256 PUSH1 0x1 ADD DUP2 SWAP1 SSTORE POP PUSH20 0x8D11EC38A3EB5E956B052F67DA8BDC9BEF8ABF3E PUSH1 0x1A PUSH1 0x40 MLOAD PUSH3 0x23F SWAP1 PUSH3 0x4A8 JUMP JUMPDEST SWAP1 DUP2 MSTORE PUSH1 0x20 ADD PUSH1 0x40 MLOAD DUP1 SWAP2 SUB SWAP1 KECCAK256 PUSH1 0x0 ADD PUSH1 0x0 PUSH2 0x100 EXP DUP2 SLOAD DUP2 PUSH20 0xFFFFFFFFFFFFFFFFFFFFFFFFFFFFFFFFFFFFFFFF MUL NOT AND SWAP1 DUP4 PUSH20 0xFFFFFFFFFFFFFFFFFFFFFFFFFFFFFFFFFFFFFFFF AND MUL OR SWAP1 SSTORE POP PUSH1 0x12 PUSH1 0x1A PUSH1 0x40 MLOAD PUSH3 0x2A0 SWAP1 PUSH3 0x4A8 JUMP JUMPDEST SWAP1 DUP2 MSTORE PUSH1 0x20 ADD PUSH1 0x40 MLOAD DUP1 SWAP2 SUB SWAP1 KECCAK256 PUSH1 0x1 ADD DUP2 SWAP1 SSTORE POP PUSH20 0xDC301622E621166BD8E82F2CA0A26C13AD0BE355 PUSH1 0x1A PUSH1 0x40 MLOAD PUSH3 0x2DA SWAP1 PUSH3 0x491 JUMP JUMPDEST SWAP1 DUP2 MSTORE PUSH1 0x20 ADD PUSH1 0x40 MLOAD DUP1 SWAP2 SUB SWAP1 KECCAK256 PUSH1 0x0 ADD PUSH1 0x0 PUSH2 0x100 EXP DUP2 SLOAD DUP2 PUSH20 0xFFFFFFFFFFFFFFFFFFFFFFFFFFFFFFFFFFFFFFFF MUL NOT AND SWAP1 DUP4 PUSH20 0xFFFFFFFFFFFFFFFFFFFFFFFFFFFFFFFFFFFFFFFF AND MUL OR SWAP1 SSTORE POP PUSH1 0x12 PUSH1 0x1A PUSH1 0x40 MLOAD PUSH3 0x33B SWAP1 PUSH3 0x491 JUMP JUMPDEST SWAP1 DUP2 MSTORE PUSH1 0x20 ADD PUSH1 0x40 MLOAD DUP1 SWAP2 SUB SWAP1 KECCAK256 PUSH1 0x1 ADD DUP2 SWAP1 SSTORE POP PUSH20 0x617F2E2FD72FD9D5503197092AC168C91465E7F2 PUSH1 0x6 PUSH1 0x0 PUSH2 0x100 EXP DUP2 SLOAD DUP2 PUSH20 0xFFFFFFFFFFFFFFFFFFFFFFFFFFFFFFFFFFFFFFFF MUL NOT AND SWAP1 DUP4 PUSH20 0xFFFFFFFFFFFFFFFFFFFFFFFFFFFFFFFFFFFFFFFF AND MUL OR SWAP1 SSTORE POP TIMESTAMP PUSH1 0xB DUP2 SWAP1 SSTORE POP PUSH3 0x69780 PUSH1 0xC DUP2 SWAP1 SSTORE POP POP POP PUSH3 0x649 JUMP JUMPDEST PUSH1 0x0 DUP2 MLOAD SWAP1 POP PUSH3 0x3CF DUP2 PUSH3 0x62F JUMP JUMPDEST SWAP3 SWAP2 POP POP JUMP JUMPDEST PUSH1 0x0 DUP1 PUSH1 0x40 DUP4 DUP6 SUB SLT ISZERO PUSH3 0x3EF JUMPI PUSH3 0x3EE PUSH3 0x5AF JUMP JUMPDEST JUMPDEST PUSH1 0x0 PUSH3 0x3FF DUP6 DUP3 DUP7 ADD PUSH3 0x3BE JUMP JUMPDEST SWAP3 POP POP PUSH1 0x20 PUSH3 0x412 DUP6 DUP3 DUP7 ADD PUSH3 0x3BE JUMP JUMPDEST SWAP2 POP POP SWAP3 POP SWAP3 SWAP1 POP JUMP JUMPDEST PUSH1 0x0 PUSH3 0x42B PUSH1 0x4 DUP4 PUSH3 0x4D6 JUMP JUMPDEST SWAP2 POP PUSH3 0x438 DUP3 PUSH3 0x5B4 JUMP JUMPDEST PUSH1 0x4 DUP3 ADD SWAP1 POP SWAP2 SWAP1 POP JUMP JUMPDEST PUSH1 0x0 PUSH3 0x452 PUSH1 0x3 DUP4 PUSH3 0x4D6 JUMP JUMPDEST SWAP2 POP PUSH3 0x45F DUP3 PUSH3 0x5DD JUMP JUMPDEST PUSH1 0x3 DUP3 ADD SWAP1 POP SWAP2 SWAP1 POP JUMP JUMPDEST PUSH1 0x0 PUSH3 0x479 PUSH1 0x4 DUP4 PUSH3 0x4D6 JUMP JUMPDEST SWAP2 POP PUSH3 0x486 DUP3 PUSH3 0x606 JUMP JUMPDEST PUSH1 0x4 DUP3 ADD SWAP1 POP SWAP2 SWAP1 POP JUMP JUMPDEST PUSH1 0x0 PUSH3 0x49E DUP3 PUSH3 0x41C JUMP JUMPDEST SWAP2 POP DUP2 SWAP1 POP SWAP2 SWAP1 POP JUMP JUMPDEST PUSH1 0x0 PUSH3 0x4B5 DUP3 PUSH3 0x443 JUMP JUMPDEST SWAP2 POP DUP2 SWAP1 POP SWAP2 SWAP1 POP JUMP JUMPDEST PUSH1 0x0 PUSH3 0x4CC DUP3 PUSH3 0x46A JUMP JUMPDEST SWAP2 POP DUP2 SWAP1 POP SWAP2 SWAP1 POP JUMP JUMPDEST PUSH1 0x0 DUP2 SWAP1 POP SWAP3 SWAP2 POP POP JUMP JUMPDEST PUSH1 0x0 PUSH3 0x4EE DUP3 PUSH3 0x576 JUMP JUMPDEST SWAP2 POP PUSH3 0x4FB DUP4 PUSH3 0x576 JUMP JUMPDEST SWAP3 POP DUP2 PUSH32 0xFFFFFFFFFFFFFFFFFFFFFFFFFFFFFFFFFFFFFFFFFFFFFFFFFFFFFFFFFFFFFFFF DIV DUP4 GT DUP3 ISZERO ISZERO AND ISZERO PUSH3 0x537 JUMPI PUSH3 0x536 PUSH3 0x580 JUMP JUMPDEST JUMPDEST DUP3 DUP3 MUL SWAP1 POP SWAP3 SWAP2 POP POP JUMP JUMPDEST PUSH1 0x0 PUSH3 0x54F DUP3 PUSH3 0x556 JUMP JUMPDEST SWAP1 POP SWAP2 SWAP1 POP JUMP JUMPDEST PUSH1 0x0 PUSH20 0xFFFFFFFFFFFFFFFFFFFFFFFFFFFFFFFFFFFFFFFF DUP3 AND SWAP1 POP SWAP2 SWAP1 POP JUMP JUMPDEST PUSH1 0x0 DUP2 SWAP1 POP SWAP2 SWAP1 POP JUMP JUMPDEST PUSH32 0x4E487B7100000000000000000000000000000000000000000000000000000000 PUSH1 0x0 MSTORE PUSH1 0x11 PUSH1 0x4 MSTORE PUSH1 0x24 PUSH1 0x0 REVERT JUMPDEST PUSH1 0x0 DUP1 REVERT JUMPDEST PUSH32 0x4652415800000000000000000000000000000000000000000000000000000000 PUSH1 0x0 DUP3 ADD MSTORE POP JUMP JUMPDEST PUSH32 0x4441490000000000000000000000000000000000000000000000000000000000 PUSH1 0x0 DUP3 ADD MSTORE POP JUMP JUMPDEST PUSH32 0x5553444300000000000000000000000000000000000000000000000000000000 PUSH1 0x0 DUP3 ADD MSTORE POP JUMP JUMPDEST PUSH3 0x63A DUP2 PUSH3 0x542 JUMP JUMPDEST DUP2 EQ PUSH3 0x646 JUMPI PUSH1 0x0 DUP1 REVERT JUMPDEST POP JUMP JUMPDEST PUSH2 0x2E50 DUP1 PUSH3 0x659 PUSH1 0x0 CODECOPY PUSH1 0x0 RETURN INVALID PUSH1 0x80 PUSH1 0x40 MSTORE PUSH1 0x4 CALLDATASIZE LT PUSH2 0x246 JUMPI PUSH1 0x0 CALLDATALOAD PUSH1 0xE0 SHR DUP1 PUSH4 0x6E05C1B9 GT PUSH2 0x139 JUMPI DUP1 PUSH4 0xC0CA6FB4 GT PUSH2 0xB6 JUMPI DUP1 PUSH4 0xE5D98082 GT PUSH2 0x7A JUMPI DUP1 PUSH4 0xE5D98082 EQ PUSH2 0x870 JUMPI DUP1 PUSH4 0xEE620868 EQ PUSH2 0x899 JUMPI DUP1 PUSH4 0xEEE05F5E EQ PUSH2 0x8C4 JUMPI DUP1 PUSH4 0xF7523C52 EQ PUSH2 0x8EF JUMPI DUP1 PUSH4 0xFBBB4589 EQ PUSH2 0x92C JUMPI DUP1 PUSH4 0xFC361443 EQ PUSH2 0x957 JUMPI PUSH2 0x246 JUMP JUMPDEST DUP1 PUSH4 0xC0CA6FB4 EQ PUSH2 0x7A8 JUMPI DUP1 PUSH4 0xC0CE5889 EQ PUSH2 0x7D3 JUMPI DUP1 PUSH4 0xCBFF4617 EQ PUSH2 0x7EF JUMPI DUP1 PUSH4 0xD04D7908 EQ PUSH2 0x81A JUMPI DUP1 PUSH4 0xD82EDDF2 EQ PUSH2 0x845 JUMPI PUSH2 0x246 JUMP JUMPDEST DUP1 PUSH4 0x93F7B711 GT PUSH2 0xFD JUMPI DUP1 PUSH4 0x93F7B711 EQ PUSH2 0x6C2 JUMPI DUP1 PUSH4 0x9B19251A EQ PUSH2 0x6ED JUMPI DUP1 PUSH4 0xA475BF48 EQ PUSH2 0x716 JUMPI DUP1 PUSH4 0xBDAD7F02 EQ PUSH2 0x754 JUMPI DUP1 PUSH4 0xC079D7F6 EQ PUSH2 0x77D JUMPI PUSH2 0x246 JUMP JUMPDEST DUP1 PUSH4 0x6E05C1B9 EQ PUSH2 0x5ED JUMPI DUP1 PUSH4 0x6F10E285 EQ PUSH2 0x618 JUMPI DUP1 PUSH4 0x7087A7A5 EQ PUSH2 0x643 JUMPI DUP1 PUSH4 0x71CD58F9 EQ PUSH2 0x66E JUMPI DUP1 PUSH4 0x862D1B35 EQ PUSH2 0x699 JUMPI PUSH2 0x246 JUMP JUMPDEST DUP1 PUSH4 0x26AE486E GT PUSH2 0x1C7 JUMPI DUP1 PUSH4 0x3C6EB17A GT PUSH2 0x18B JUMPI DUP1 PUSH4 0x3C6EB17A EQ PUSH2 0x506 JUMPI DUP1 PUSH4 0x43D32E9C EQ PUSH2 0x531 JUMPI DUP1 PUSH4 0x64CE07D8 EQ PUSH2 0x55C JUMPI DUP1 PUSH4 0x67B48C91 EQ PUSH2 0x599 JUMPI DUP1 PUSH4 0x67E927A8 EQ PUSH2 0x5C4 JUMPI PUSH2 0x246 JUMP JUMPDEST DUP1 PUSH4 0x26AE486E EQ PUSH2 0x41F JUMPI DUP1 PUSH4 0x29982A32 EQ PUSH2 0x44A JUMPI DUP1 PUSH4 0x2A9F0FB1 EQ PUSH2 0x475 JUMPI DUP1 PUSH4 0x35453307 EQ PUSH2 0x4B2 JUMPI DUP1 PUSH4 0x39AD95D6 EQ PUSH2 0x4DD JUMPI PUSH2 0x246 JUMP JUMPDEST DUP1 PUSH4 0x1514C976 GT PUSH2 0x20E JUMPI DUP1 PUSH4 0x1514C976 EQ PUSH2 0x335 JUMPI DUP1 PUSH4 0x164C8501 EQ PUSH2 0x372 JUMPI DUP1 PUSH4 0x1A30E872 EQ PUSH2 0x39B JUMPI DUP1 PUSH4 0x1BC9CC45 EQ PUSH2 0x3D8 JUMPI DUP1 PUSH4 0x1F564A06 EQ PUSH2 0x3F4 JUMPI PUSH2 0x246 JUMP JUMPDEST DUP1 PUSH4 0x18A25E8 EQ PUSH2 0x24B JUMPI DUP1 PUSH4 0x47729B0 EQ PUSH2 0x276 JUMPI DUP1 PUSH4 0xCCAF04F EQ PUSH2 0x2A1 JUMPI DUP1 PUSH4 0xF65DE3E EQ PUSH2 0x2CC JUMPI DUP1 PUSH4 0x12B2ED94 EQ PUSH2 0x2F7 JUMPI JUMPDEST PUSH1 0x0 DUP1 REVERT JUMPDEST CALLVALUE DUP1 ISZERO PUSH2 0x257 JUMPI PUSH1 0x0 DUP1 REVERT JUMPDEST POP PUSH2 0x260 PUSH2 0x980 JUMP JUMPDEST PUSH1 0x40 MLOAD PUSH2 0x26D SWAP2 SWAP1 PUSH2 0x28C4 JUMP JUMPDEST PUSH1 0x40 MLOAD DUP1 SWAP2 SUB SWAP1 RETURN JUMPDEST CALLVALUE DUP1 ISZERO PUSH2 0x282 JUMPI PUSH1 0x0 DUP1 REVERT JUMPDEST POP PUSH2 0x28B PUSH2 0xA9E JUMP JUMPDEST PUSH1 0x40 MLOAD PUSH2 0x298 SWAP2 SWAP1 PUSH2 0x2753 JUMP JUMPDEST PUSH1 0x40 MLOAD DUP1 SWAP2 SUB SWAP1 RETURN JUMPDEST CALLVALUE DUP1 ISZERO PUSH2 0x2AD JUMPI PUSH1 0x0 DUP1 REVERT JUMPDEST POP PUSH2 0x2B6 PUSH2 0xAC4 JUMP JUMPDEST PUSH1 0x40 MLOAD PUSH2 0x2C3 SWAP2 SWAP1 PUSH2 0x28C4 JUMP JUMPDEST PUSH1 0x40 MLOAD DUP1 SWAP2 SUB SWAP1 RETURN JUMPDEST CALLVALUE DUP1 ISZERO PUSH2 0x2D8 JUMPI PUSH1 0x0 DUP1 REVERT JUMPDEST POP PUSH2 0x2E1 PUSH2 0xC1E JUMP JUMPDEST PUSH1 0x40 MLOAD PUSH2 0x2EE SWAP2 SWAP1 PUSH2 0x28C4 JUMP JUMPDEST PUSH1 0x40 MLOAD DUP1 SWAP2 SUB SWAP1 RETURN JUMPDEST CALLVALUE DUP1 ISZERO PUSH2 0x303 JUMPI PUSH1 0x0 DUP1 REVERT JUMPDEST POP PUSH2 0x31E PUSH1 0x4 DUP1 CALLDATASIZE SUB DUP2 ADD SWAP1 PUSH2 0x319 SWAP2 SWAP1 PUSH2 0x232A JUMP JUMPDEST PUSH2 0xC23 JUMP JUMPDEST PUSH1 0x40 MLOAD PUSH2 0x32C SWAP3 SWAP2 SWAP1 PUSH2 0x28DF JUMP JUMPDEST PUSH1 0x40 MLOAD DUP1 SWAP2 SUB SWAP1 RETURN JUMPDEST CALLVALUE DUP1 ISZERO PUSH2 0x341 JUMPI PUSH1 0x0 DUP1 REVERT JUMPDEST POP PUSH2 0x35C PUSH1 0x4 DUP1 CALLDATASIZE SUB DUP2 ADD SWAP1 PUSH2 0x357 SWAP2 SWAP1 PUSH2 0x2498 JUMP JUMPDEST PUSH2 0xC47 JUMP JUMPDEST PUSH1 0x40 MLOAD PUSH2 0x369 SWAP2 SWAP1 PUSH2 0x28C4 JUMP JUMPDEST PUSH1 0x40 MLOAD DUP1 SWAP2 SUB SWAP1 RETURN JUMPDEST CALLVALUE DUP1 ISZERO PUSH2 0x37E JUMPI PUSH1 0x0 DUP1 REVERT JUMPDEST POP PUSH2 0x399 PUSH1 0x4 DUP1 CALLDATASIZE SUB DUP2 ADD SWAP1 PUSH2 0x394 SWAP2 SWAP1 PUSH2 0x2498 JUMP JUMPDEST PUSH2 0xC5F JUMP JUMPDEST STOP JUMPDEST CALLVALUE DUP1 ISZERO PUSH2 0x3A7 JUMPI PUSH1 0x0 DUP1 REVERT JUMPDEST POP PUSH2 0x3C2 PUSH1 0x4 DUP1 CALLDATASIZE SUB DUP2 ADD SWAP1 PUSH2 0x3BD SWAP2 SWAP1 PUSH2 0x2498 JUMP JUMPDEST PUSH2 0xDDD JUMP JUMPDEST PUSH1 0x40 MLOAD PUSH2 0x3CF SWAP2 SWAP1 PUSH2 0x28C4 JUMP JUMPDEST PUSH1 0x40 MLOAD DUP1 SWAP2 SUB SWAP1 RETURN JUMPDEST PUSH2 0x3F2 PUSH1 0x4 DUP1 CALLDATASIZE SUB DUP2 ADD SWAP1 PUSH2 0x3ED SWAP2 SWAP1 PUSH2 0x2498 JUMP JUMPDEST PUSH2 0xDF5 JUMP JUMPDEST STOP JUMPDEST CALLVALUE DUP1 ISZERO PUSH2 0x400 JUMPI PUSH1 0x0 DUP1 REVERT JUMPDEST POP PUSH2 0x409 PUSH2 0xF8D JUMP JUMPDEST PUSH1 0x40 MLOAD PUSH2 0x416 SWAP2 SWAP1 PUSH2 0x28C4 JUMP JUMPDEST PUSH1 0x40 MLOAD DUP1 SWAP2 SUB SWAP1 RETURN JUMPDEST CALLVALUE DUP1 ISZERO PUSH2 0x42B JUMPI PUSH1 0x0 DUP1 REVERT JUMPDEST POP PUSH2 0x434 PUSH2 0x103F JUMP JUMPDEST PUSH1 0x40 MLOAD PUSH2 0x441 SWAP2 SWAP1 PUSH2 0x27CE JUMP JUMPDEST PUSH1 0x40 MLOAD DUP1 SWAP2 SUB SWAP1 RETURN JUMPDEST CALLVALUE DUP1 ISZERO PUSH2 0x456 JUMPI PUSH1 0x0 DUP1 REVERT JUMPDEST POP PUSH2 0x45F PUSH2 0x1065 JUMP JUMPDEST PUSH1 0x40 MLOAD PUSH2 0x46C SWAP2 SWAP1 PUSH2 0x2753 JUMP JUMPDEST PUSH1 0x40 MLOAD DUP1 SWAP2 SUB SWAP1 RETURN JUMPDEST CALLVALUE DUP1 ISZERO PUSH2 0x481 JUMPI PUSH1 0x0 DUP1 REVERT JUMPDEST POP PUSH2 0x49C PUSH1 0x4 DUP1 CALLDATASIZE SUB DUP2 ADD SWAP1 PUSH2 0x497 SWAP2 SWAP1 PUSH2 0x2498 JUMP JUMPDEST PUSH2 0x108B JUMP JUMPDEST PUSH1 0x40 MLOAD PUSH2 0x4A9 SWAP2 SWAP1 PUSH2 0x28C4 JUMP JUMPDEST PUSH1 0x40 MLOAD DUP1 SWAP2 SUB SWAP1 RETURN JUMPDEST CALLVALUE DUP1 ISZERO PUSH2 0x4BE JUMPI PUSH1 0x0 DUP1 REVERT JUMPDEST POP PUSH2 0x4C7 PUSH2 0x10A3 JUMP JUMPDEST PUSH1 0x40 MLOAD PUSH2 0x4D4 SWAP2 SWAP1 PUSH2 0x28C4 JUMP JUMPDEST PUSH1 0x40 MLOAD DUP1 SWAP2 SUB SWAP1 RETURN JUMPDEST CALLVALUE DUP1 ISZERO PUSH2 0x4E9 JUMPI PUSH1 0x0 DUP1 REVERT JUMPDEST POP PUSH2 0x504 PUSH1 0x4 DUP1 CALLDATASIZE SUB DUP2 ADD SWAP1 PUSH2 0x4FF SWAP2 SWAP1 PUSH2 0x2498 JUMP JUMPDEST PUSH2 0x10A9 JUMP JUMPDEST STOP JUMPDEST CALLVALUE DUP1 ISZERO PUSH2 0x512 JUMPI PUSH1 0x0 DUP1 REVERT JUMPDEST POP PUSH2 0x51B PUSH2 0x10AC JUMP JUMPDEST PUSH1 0x40 MLOAD PUSH2 0x528 SWAP2 SWAP1 PUSH2 0x28C4 JUMP JUMPDEST PUSH1 0x40 MLOAD DUP1 SWAP2 SUB SWAP1 RETURN JUMPDEST CALLVALUE DUP1 ISZERO PUSH2 0x53D JUMPI PUSH1 0x0 DUP1 REVERT JUMPDEST POP PUSH2 0x546 PUSH2 0x10B2 JUMP JUMPDEST PUSH1 0x40 MLOAD PUSH2 0x553 SWAP2 SWAP1 PUSH2 0x28C4 JUMP JUMPDEST PUSH1 0x40 MLOAD DUP1 SWAP2 SUB SWAP1 RETURN JUMPDEST CALLVALUE DUP1 ISZERO PUSH2 0x568 JUMPI PUSH1 0x0 DUP1 REVERT JUMPDEST POP PUSH2 0x583 PUSH1 0x4 DUP1 CALLDATASIZE SUB DUP2 ADD SWAP1 PUSH2 0x57E SWAP2 SWAP1 PUSH2 0x254E JUMP JUMPDEST PUSH2 0x11D0 JUMP JUMPDEST PUSH1 0x40 MLOAD PUSH2 0x590 SWAP2 SWAP1 PUSH2 0x28C4 JUMP JUMPDEST PUSH1 0x40 MLOAD DUP1 SWAP2 SUB SWAP1 RETURN JUMPDEST CALLVALUE DUP1 ISZERO PUSH2 0x5A5 JUMPI PUSH1 0x0 DUP1 REVERT JUMPDEST POP PUSH2 0x5AE PUSH2 0x1211 JUMP JUMPDEST PUSH1 0x40 MLOAD PUSH2 0x5BB SWAP2 SWAP1 PUSH2 0x28C4 JUMP JUMPDEST PUSH1 0x40 MLOAD DUP1 SWAP2 SUB SWAP1 RETURN JUMPDEST CALLVALUE DUP1 ISZERO PUSH2 0x5D0 JUMPI PUSH1 0x0 DUP1 REVERT JUMPDEST POP PUSH2 0x5EB PUSH1 0x4 DUP1 CALLDATASIZE SUB DUP2 ADD SWAP1 PUSH2 0x5E6 SWAP2 SWAP1 PUSH2 0x2498 JUMP JUMPDEST PUSH2 0x1217 JUMP JUMPDEST STOP JUMPDEST CALLVALUE DUP1 ISZERO PUSH2 0x5F9 JUMPI PUSH1 0x0 DUP1 REVERT JUMPDEST POP PUSH2 0x602 PUSH2 0x12C8 JUMP JUMPDEST PUSH1 0x40 MLOAD PUSH2 0x60F SWAP2 SWAP1 PUSH2 0x27CE JUMP JUMPDEST PUSH1 0x40 MLOAD DUP1 SWAP2 SUB SWAP1 RETURN JUMPDEST CALLVALUE DUP1 ISZERO PUSH2 0x624 JUMPI PUSH1 0x0 DUP1 REVERT JUMPDEST POP PUSH2 0x62D PUSH2 0x12EE JUMP JUMPDEST PUSH1 0x40 MLOAD PUSH2 0x63A SWAP2 SWAP1 PUSH2 0x27E9 JUMP JUMPDEST PUSH1 0x40 MLOAD DUP1 SWAP2 SUB SWAP1 RETURN JUMPDEST CALLVALUE DUP1 ISZERO PUSH2 0x64F JUMPI PUSH1 0x0 DUP1 REVERT JUMPDEST POP PUSH2 0x658 PUSH2 0x1301 JUMP JUMPDEST PUSH1 0x40 MLOAD PUSH2 0x665 SWAP2 SWAP1 PUSH2 0x27CE JUMP JUMPDEST PUSH1 0x40 MLOAD DUP1 SWAP2 SUB SWAP1 RETURN JUMPDEST CALLVALUE DUP1 ISZERO PUSH2 0x67A JUMPI PUSH1 0x0 DUP1 REVERT JUMPDEST POP PUSH2 0x683 PUSH2 0x1327 JUMP JUMPDEST PUSH1 0x40 MLOAD PUSH2 0x690 SWAP2 SWAP1 PUSH2 0x28C4 JUMP JUMPDEST PUSH1 0x40 MLOAD DUP1 SWAP2 SUB SWAP1 RETURN JUMPDEST CALLVALUE DUP1 ISZERO PUSH2 0x6A5 JUMPI PUSH1 0x0 DUP1 REVERT JUMPDEST POP PUSH2 0x6C0 PUSH1 0x4 DUP1 CALLDATASIZE SUB DUP2 ADD SWAP1 PUSH2 0x6BB SWAP2 SWAP1 PUSH2 0x24F2 JUMP JUMPDEST PUSH2 0x13DE JUMP JUMPDEST STOP JUMPDEST CALLVALUE DUP1 ISZERO PUSH2 0x6CE JUMPI PUSH1 0x0 DUP1 REVERT JUMPDEST POP PUSH2 0x6D7 PUSH2 0x17E9 JUMP JUMPDEST PUSH1 0x40 MLOAD PUSH2 0x6E4 SWAP2 SWAP1 PUSH2 0x28C4 JUMP JUMPDEST PUSH1 0x40 MLOAD DUP1 SWAP2 SUB SWAP1 RETURN JUMPDEST CALLVALUE DUP1 ISZERO PUSH2 0x6F9 JUMPI PUSH1 0x0 DUP1 REVERT JUMPDEST POP PUSH2 0x714 PUSH1 0x4 DUP1 CALLDATASIZE SUB DUP2 ADD SWAP1 PUSH2 0x70F SWAP2 SWAP1 PUSH2 0x232A JUMP JUMPDEST PUSH2 0x1943 JUMP JUMPDEST STOP JUMPDEST CALLVALUE DUP1 ISZERO PUSH2 0x722 JUMPI PUSH1 0x0 DUP1 REVERT JUMPDEST POP PUSH2 0x73D PUSH1 0x4 DUP1 CALLDATASIZE SUB DUP2 ADD SWAP1 PUSH2 0x738 SWAP2 SWAP1 PUSH2 0x23E0 JUMP JUMPDEST PUSH2 0x1946 JUMP JUMPDEST PUSH1 0x40 MLOAD PUSH2 0x74B SWAP3 SWAP2 SWAP1 PUSH2 0x27A5 JUMP JUMPDEST PUSH1 0x40 MLOAD DUP1 SWAP2 SUB SWAP1 RETURN JUMPDEST CALLVALUE DUP1 ISZERO PUSH2 0x760 JUMPI PUSH1 0x0 DUP1 REVERT JUMPDEST POP PUSH2 0x77B PUSH1 0x4 DUP1 CALLDATASIZE SUB DUP2 ADD SWAP1 PUSH2 0x776 SWAP2 SWAP1 PUSH2 0x2357 JUMP JUMPDEST PUSH2 0x19A0 JUMP JUMPDEST STOP JUMPDEST CALLVALUE DUP1 ISZERO PUSH2 0x789 JUMPI PUSH1 0x0 DUP1 REVERT JUMPDEST POP PUSH2 0x792 PUSH2 0x1B21 JUMP JUMPDEST PUSH1 0x40 MLOAD PUSH2 0x79F SWAP2 SWAP1 PUSH2 0x2753 JUMP JUMPDEST PUSH1 0x40 MLOAD DUP1 SWAP2 SUB SWAP1 RETURN JUMPDEST CALLVALUE DUP1 ISZERO PUSH2 0x7B4 JUMPI PUSH1 0x0 DUP1 REVERT JUMPDEST POP PUSH2 0x7BD PUSH2 0x1B47 JUMP JUMPDEST PUSH1 0x40 MLOAD PUSH2 0x7CA SWAP2 SWAP1 PUSH2 0x27CE JUMP JUMPDEST PUSH1 0x40 MLOAD DUP1 SWAP2 SUB SWAP1 RETURN JUMPDEST PUSH2 0x7ED PUSH1 0x4 DUP1 CALLDATASIZE SUB DUP2 ADD SWAP1 PUSH2 0x7E8 SWAP2 SWAP1 PUSH2 0x258E JUMP JUMPDEST PUSH2 0x1B6D JUMP JUMPDEST STOP JUMPDEST CALLVALUE DUP1 ISZERO PUSH2 0x7FB JUMPI PUSH1 0x0 DUP1 REVERT JUMPDEST POP PUSH2 0x804 PUSH2 0x1EE6 JUMP JUMPDEST PUSH1 0x40 MLOAD PUSH2 0x811 SWAP2 SWAP1 PUSH2 0x28C4 JUMP JUMPDEST PUSH1 0x40 MLOAD DUP1 SWAP2 SUB SWAP1 RETURN JUMPDEST CALLVALUE DUP1 ISZERO PUSH2 0x826 JUMPI PUSH1 0x0 DUP1 REVERT JUMPDEST POP PUSH2 0x82F PUSH2 0x1EEC JUMP JUMPDEST PUSH1 0x40 MLOAD PUSH2 0x83C SWAP2 SWAP1 PUSH2 0x27CE JUMP JUMPDEST PUSH1 0x40 MLOAD DUP1 SWAP2 SUB SWAP1 RETURN JUMPDEST CALLVALUE DUP1 ISZERO PUSH2 0x851 JUMPI PUSH1 0x0 DUP1 REVERT JUMPDEST POP PUSH2 0x85A PUSH2 0x1F12 JUMP JUMPDEST PUSH1 0x40 MLOAD PUSH2 0x867 SWAP2 SWAP1 PUSH2 0x28C4 JUMP JUMPDEST PUSH1 0x40 MLOAD DUP1 SWAP2 SUB SWAP1 RETURN JUMPDEST CALLVALUE DUP1 ISZERO PUSH2 0x87C JUMPI PUSH1 0x0 DUP1 REVERT JUMPDEST POP PUSH2 0x897 PUSH1 0x4 DUP1 CALLDATASIZE SUB DUP2 ADD SWAP1 PUSH2 0x892 SWAP2 SWAP1 PUSH2 0x2429 JUMP JUMPDEST PUSH2 0x1F75 JUMP JUMPDEST STOP JUMPDEST CALLVALUE DUP1 ISZERO PUSH2 0x8A5 JUMPI PUSH1 0x0 DUP1 REVERT JUMPDEST POP PUSH2 0x8AE PUSH2 0x2000 JUMP JUMPDEST PUSH1 0x40 MLOAD PUSH2 0x8BB SWAP2 SWAP1 PUSH2 0x28C4 JUMP JUMPDEST PUSH1 0x40 MLOAD DUP1 SWAP2 SUB SWAP1 RETURN JUMPDEST CALLVALUE DUP1 ISZERO PUSH2 0x8D0 JUMPI PUSH1 0x0 DUP1 REVERT JUMPDEST POP PUSH2 0x8D9 PUSH2 0x2006 JUMP JUMPDEST PUSH1 0x40 MLOAD PUSH2 0x8E6 SWAP2 SWAP1 PUSH2 0x2753 JUMP JUMPDEST PUSH1 0x40 MLOAD DUP1 SWAP2 SUB SWAP1 RETURN JUMPDEST CALLVALUE DUP1 ISZERO PUSH2 0x8FB JUMPI PUSH1 0x0 DUP1 REVERT JUMPDEST POP PUSH2 0x916 PUSH1 0x4 DUP1 CALLDATASIZE SUB DUP2 ADD SWAP1 PUSH2 0x911 SWAP2 SWAP1 PUSH2 0x254E JUMP JUMPDEST PUSH2 0x202C JUMP JUMPDEST PUSH1 0x40 MLOAD PUSH2 0x923 SWAP2 SWAP1 PUSH2 0x28C4 JUMP JUMPDEST PUSH1 0x40 MLOAD DUP1 SWAP2 SUB SWAP1 RETURN JUMPDEST CALLVALUE DUP1 ISZERO PUSH2 0x938 JUMPI PUSH1 0x0 DUP1 REVERT JUMPDEST POP PUSH2 0x941 PUSH2 0x2075 JUMP JUMPDEST PUSH1 0x40 MLOAD PUSH2 0x94E SWAP2 SWAP1 PUSH2 0x2753 JUMP JUMPDEST PUSH1 0x40 MLOAD DUP1 SWAP2 SUB SWAP1 RETURN JUMPDEST CALLVALUE DUP1 ISZERO PUSH2 0x963 JUMPI PUSH1 0x0 DUP1 REVERT JUMPDEST POP PUSH2 0x97E PUSH1 0x4 DUP1 CALLDATASIZE SUB DUP2 ADD SWAP1 PUSH2 0x979 SWAP2 SWAP1 PUSH2 0x2498 JUMP JUMPDEST PUSH2 0x209B JUMP JUMPDEST STOP JUMPDEST PUSH1 0x0 PUSH2 0xA99 ADDRESS PUSH20 0xFFFFFFFFFFFFFFFFFFFFFFFFFFFFFFFFFFFFFFFF AND PUSH4 0x1F564A06 PUSH1 0x40 MLOAD DUP2 PUSH4 0xFFFFFFFF AND PUSH1 0xE0 SHL DUP2 MSTORE PUSH1 0x4 ADD PUSH1 0x20 PUSH1 0x40 MLOAD DUP1 DUP4 SUB DUP2 DUP7 DUP1 EXTCODESIZE ISZERO DUP1 ISZERO PUSH2 0x9CB JUMPI PUSH1 0x0 DUP1 REVERT JUMPDEST POP GAS STATICCALL ISZERO DUP1 ISZERO PUSH2 0x9DF JUMPI RETURNDATASIZE PUSH1 0x0 DUP1 RETURNDATACOPY RETURNDATASIZE PUSH1 0x0 REVERT JUMPDEST POP POP POP POP PUSH1 0x40 MLOAD RETURNDATASIZE PUSH1 0x1F NOT PUSH1 0x1F DUP3 ADD AND DUP3 ADD DUP1 PUSH1 0x40 MSTORE POP DUP2 ADD SWAP1 PUSH2 0xA03 SWAP2 SWAP1 PUSH2 0x24C5 JUMP JUMPDEST ADDRESS PUSH20 0xFFFFFFFFFFFFFFFFFFFFFFFFFFFFFFFFFFFFFFFF AND PUSH4 0x93F7B711 PUSH1 0x40 MLOAD DUP2 PUSH4 0xFFFFFFFF AND PUSH1 0xE0 SHL DUP2 MSTORE PUSH1 0x4 ADD PUSH1 0x20 PUSH1 0x40 MLOAD DUP1 DUP4 SUB DUP2 DUP7 DUP1 EXTCODESIZE ISZERO DUP1 ISZERO PUSH2 0xA49 JUMPI PUSH1 0x0 DUP1 REVERT JUMPDEST POP GAS STATICCALL ISZERO DUP1 ISZERO PUSH2 0xA5D JUMPI RETURNDATASIZE PUSH1 0x0 DUP1 RETURNDATACOPY RETURNDATASIZE PUSH1 0x0 REVERT JUMPDEST POP POP POP POP PUSH1 0x40 MLOAD RETURNDATASIZE PUSH1 0x1F NOT PUSH1 0x1F DUP3 ADD AND DUP3 ADD DUP1 PUSH1 0x40 MSTORE POP DUP2 ADD SWAP1 PUSH2 0xA81 SWAP2 SWAP1 PUSH2 0x24C5 JUMP JUMPDEST PUSH8 0x10A741A462780000 PUSH2 0xA94 SWAP2 SWAP1 PUSH2 0x2985 JUMP JUMPDEST PUSH2 0x202C JUMP JUMPDEST SWAP1 POP SWAP1 JUMP JUMPDEST PUSH1 0x8 PUSH1 0x0 SWAP1 SLOAD SWAP1 PUSH2 0x100 EXP SWAP1 DIV PUSH20 0xFFFFFFFFFFFFFFFFFFFFFFFFFFFFFFFFFFFFFFFF AND DUP2 JUMP JUMPDEST PUSH1 0x0 DUP1 PUSH1 0x0 DUP1 PUSH3 0x15180 PUSH1 0xC SLOAD PUSH2 0xADB SWAP2 SWAP1 PUSH2 0x29DB JUMP JUMPDEST SWAP1 POP PUSH1 0x0 PUSH3 0x15180 PUSH1 0xB SLOAD TIMESTAMP PUSH2 0xAF1 SWAP2 SWAP1 PUSH2 0x2A66 JUMP JUMPDEST PUSH2 0xAFB SWAP2 SWAP1 PUSH2 0x29DB JUMP JUMPDEST SWAP1 POP PUSH1 0x0 DUP1 DUP3 EQ ISZERO PUSH2 0xB22 JUMPI PUSH1 0x19 PUSH1 0x0 DUP1 DUP2 MSTORE PUSH1 0x20 ADD SWAP1 DUP2 MSTORE PUSH1 0x20 ADD PUSH1 0x0 KECCAK256 SLOAD SWAP4 POP PUSH2 0xB6E JUMP JUMPDEST DUP3 DUP3 PUSH2 0xB2E SWAP2 SWAP1 PUSH2 0x2A66 JUMP JUMPDEST SWAP1 POP JUMPDEST DUP2 DUP2 LT ISZERO PUSH2 0xB6D JUMPI PUSH1 0x19 PUSH1 0x0 DUP3 DUP2 MSTORE PUSH1 0x20 ADD SWAP1 DUP2 MSTORE PUSH1 0x20 ADD PUSH1 0x0 KECCAK256 SLOAD DUP5 PUSH2 0xB58 SWAP2 SWAP1 PUSH2 0x2985 JUMP JUMPDEST SWAP4 POP DUP1 DUP1 PUSH2 0xB65 SWAP1 PUSH2 0x2B98 JUMP JUMPDEST SWAP2 POP POP PUSH2 0xB31 JUMP JUMPDEST JUMPDEST PUSH2 0xBF5 ADDRESS PUSH20 0xFFFFFFFFFFFFFFFFFFFFFFFFFFFFFFFFFFFFFFFF AND PUSH4 0xD82EDDF2 PUSH1 0x40 MLOAD DUP2 PUSH4 0xFFFFFFFF AND PUSH1 0xE0 SHL DUP2 MSTORE PUSH1 0x4 ADD PUSH1 0x20 PUSH1 0x40 MLOAD DUP1 DUP4 SUB DUP2 DUP7 DUP1 EXTCODESIZE ISZERO DUP1 ISZERO PUSH2 0xBB7 JUMPI PUSH1 0x0 DUP1 REVERT JUMPDEST POP GAS STATICCALL ISZERO DUP1 ISZERO PUSH2 0xBCB JUMPI RETURNDATASIZE PUSH1 0x0 DUP1 RETURNDATACOPY RETURNDATASIZE PUSH1 0x0 REVERT JUMPDEST POP POP POP POP PUSH1 0x40 MLOAD RETURNDATASIZE PUSH1 0x1F NOT PUSH1 0x1F DUP3 ADD AND DUP3 ADD DUP1 PUSH1 0x40 MSTORE POP DUP2 ADD SWAP1 PUSH2 0xBEF SWAP2 SWAP1 PUSH2 0x24C5 JUMP JUMPDEST DUP6 PUSH2 0x11D0 JUMP JUMPDEST SWAP5 POP PUSH8 0x429D069189E0000 DUP6 GT ISZERO PUSH2 0xC13 JUMPI PUSH8 0x429D069189E0000 SWAP5 POP JUMPDEST DUP5 SWAP6 POP POP POP POP POP POP SWAP1 JUMP JUMPDEST PUSH1 0x0 SWAP1 JUMP JUMPDEST PUSH1 0x1B PUSH1 0x20 MSTORE DUP1 PUSH1 0x0 MSTORE PUSH1 0x40 PUSH1 0x0 KECCAK256 PUSH1 0x0 SWAP2 POP SWAP1 POP DUP1 PUSH1 0x0 ADD SLOAD SWAP1 DUP1 PUSH1 0x1 ADD SLOAD SWAP1 POP DUP3 JUMP JUMPDEST PUSH1 0x18 PUSH1 0x20 MSTORE DUP1 PUSH1 0x0 MSTORE PUSH1 0x40 PUSH1 0x0 KECCAK256 PUSH1 0x0 SWAP2 POP SWAP1 POP SLOAD DUP2 JUMP JUMPDEST PUSH1 0x1B PUSH1 0x0 CALLER PUSH20 0xFFFFFFFFFFFFFFFFFFFFFFFFFFFFFFFFFFFFFFFF AND PUSH20 0xFFFFFFFFFFFFFFFFFFFFFFFFFFFFFFFFFFFFFFFF AND DUP2 MSTORE PUSH1 0x20 ADD SWAP1 DUP2 MSTORE PUSH1 0x20 ADD PUSH1 0x0 KECCAK256 PUSH1 0x1 ADD SLOAD DUP2 LT PUSH2 0xCE3 JUMPI PUSH1 0x40 MLOAD PUSH32 0x8C379A000000000000000000000000000000000000000000000000000000000 DUP2 MSTORE PUSH1 0x4 ADD PUSH2 0xCDA SWAP1 PUSH2 0x2804 JUMP JUMPDEST PUSH1 0x40 MLOAD DUP1 SWAP2 SUB SWAP1 REVERT JUMPDEST DUP1 PUSH1 0x1B PUSH1 0x0 CALLER PUSH20 0xFFFFFFFFFFFFFFFFFFFFFFFFFFFFFFFFFFFFFFFF AND PUSH20 0xFFFFFFFFFFFFFFFFFFFFFFFFFFFFFFFFFFFFFFFF AND DUP2 MSTORE PUSH1 0x20 ADD SWAP1 DUP2 MSTORE PUSH1 0x20 ADD PUSH1 0x0 KECCAK256 PUSH1 0x1 ADD PUSH1 0x0 DUP3 DUP3 SLOAD PUSH2 0xD35 SWAP2 SWAP1 PUSH2 0x2A66 JUMP JUMPDEST SWAP3 POP POP DUP2 SWAP1 SSTORE POP PUSH1 0x0 PUSH1 0x1B PUSH1 0x0 CALLER PUSH20 0xFFFFFFFFFFFFFFFFFFFFFFFFFFFFFFFFFFFFFFFF AND PUSH20 0xFFFFFFFFFFFFFFFFFFFFFFFFFFFFFFFFFFFFFFFF AND DUP2 MSTORE PUSH1 0x20 ADD SWAP1 DUP2 MSTORE PUSH1 0x20 ADD PUSH1 0x0 KECCAK256 PUSH1 0x1 ADD SLOAD EQ ISZERO PUSH2 0xDDA JUMPI PUSH1 0x1B PUSH1 0x0 CALLER PUSH20 0xFFFFFFFFFFFFFFFFFFFFFFFFFFFFFFFFFFFFFFFF AND PUSH20 0xFFFFFFFFFFFFFFFFFFFFFFFFFFFFFFFFFFFFFFFF AND DUP2 MSTORE PUSH1 0x20 ADD SWAP1 DUP2 MSTORE PUSH1 0x20 ADD PUSH1 0x0 KECCAK256 PUSH1 0x0 DUP1 DUP3 ADD PUSH1 0x0 SWAP1 SSTORE PUSH1 0x1 DUP3 ADD PUSH1 0x0 SWAP1 SSTORE POP POP JUMPDEST POP JUMP JUMPDEST PUSH1 0x19 PUSH1 0x20 MSTORE DUP1 PUSH1 0x0 MSTORE PUSH1 0x40 PUSH1 0x0 KECCAK256 PUSH1 0x0 SWAP2 POP SWAP1 POP SLOAD DUP2 JUMP JUMPDEST PUSH1 0x0 PUSH1 0x12 PUSH1 0x0 SWAP1 SLOAD SWAP1 PUSH2 0x100 EXP SWAP1 DIV PUSH20 0xFFFFFFFFFFFFFFFFFFFFFFFFFFFFFFFFFFFFFFFF AND PUSH20 0xFFFFFFFFFFFFFFFFFFFFFFFFFFFFFFFFFFFFFFFF AND PUSH4 0x70A08231 CALLER PUSH1 0x40 MLOAD DUP3 PUSH4 0xFFFFFFFF AND PUSH1 0xE0 SHL DUP2 MSTORE PUSH1 0x4 ADD PUSH2 0xE52 SWAP2 SWAP1 PUSH2 0x2753 JUMP JUMPDEST PUSH1 0x20 PUSH1 0x40 MLOAD DUP1 DUP4 SUB DUP2 DUP7 DUP1 EXTCODESIZE ISZERO DUP1 ISZERO PUSH2 0xE6A JUMPI PUSH1 0x0 DUP1 REVERT JUMPDEST POP GAS STATICCALL ISZERO DUP1 ISZERO PUSH2 0xE7E JUMPI RETURNDATASIZE PUSH1 0x0 DUP1 RETURNDATACOPY RETURNDATASIZE PUSH1 0x0 REVERT JUMPDEST POP POP POP POP PUSH1 0x40 MLOAD RETURNDATASIZE PUSH1 0x1F NOT PUSH1 0x1F DUP3 ADD AND DUP3 ADD DUP1 PUSH1 0x40 MSTORE POP DUP2 ADD SWAP1 PUSH2 0xEA2 SWAP2 SWAP1 PUSH2 0x24C5 JUMP JUMPDEST SWAP1 POP DUP2 DUP2 GT PUSH2 0xEE6 JUMPI PUSH1 0x40 MLOAD PUSH32 0x8C379A000000000000000000000000000000000000000000000000000000000 DUP2 MSTORE PUSH1 0x4 ADD PUSH2 0xEDD SWAP1 PUSH2 0x2844 JUMP JUMPDEST PUSH1 0x40 MLOAD DUP1 SWAP2 SUB SWAP1 REVERT JUMPDEST PUSH2 0xF14 PUSH1 0x12 PUSH1 0x0 SWAP1 SLOAD SWAP1 PUSH2 0x100 EXP SWAP1 DIV PUSH20 0xFFFFFFFFFFFFFFFFFFFFFFFFFFFFFFFFFFFFFFFF AND CALLER ADDRESS DUP6 PUSH2 0x20B3 JUMP JUMPDEST PUSH1 0x0 PUSH3 0x15180 PUSH1 0xB SLOAD TIMESTAMP PUSH2 0xF28 SWAP2 SWAP1 PUSH2 0x2A66 JUMP JUMPDEST PUSH2 0xF32 SWAP2 SWAP1 PUSH2 0x29DB JUMP JUMPDEST SWAP1 POP DUP3 PUSH1 0x18 PUSH1 0x0 DUP4 DUP2 MSTORE PUSH1 0x20 ADD SWAP1 DUP2 MSTORE PUSH1 0x20 ADD PUSH1 0x0 KECCAK256 PUSH1 0x0 DUP3 DUP3 SLOAD PUSH2 0xF57 SWAP2 SWAP1 PUSH2 0x2985 JUMP JUMPDEST SWAP3 POP POP DUP2 SWAP1 SSTORE POP DUP3 PUSH1 0x19 PUSH1 0x0 DUP4 DUP2 MSTORE PUSH1 0x20 ADD SWAP1 DUP2 MSTORE PUSH1 0x20 ADD PUSH1 0x0 KECCAK256 PUSH1 0x0 DUP3 DUP3 SLOAD PUSH2 0xF81 SWAP2 SWAP1 PUSH2 0x2A66 JUMP JUMPDEST SWAP3 POP POP DUP2 SWAP1 SSTORE POP POP POP POP JUMP JUMPDEST PUSH1 0x0 PUSH2 0x103A PUSH1 0xA SLOAD PUSH1 0x12 PUSH1 0x0 SWAP1 SLOAD SWAP1 PUSH2 0x100 EXP SWAP1 DIV PUSH20 0xFFFFFFFFFFFFFFFFFFFFFFFFFFFFFFFFFFFFFFFF AND PUSH20 0xFFFFFFFFFFFFFFFFFFFFFFFFFFFFFFFFFFFFFFFF AND PUSH4 0x18160DDD PUSH1 0x40 MLOAD DUP2 PUSH4 0xFFFFFFFF AND PUSH1 0xE0 SHL DUP2 MSTORE PUSH1 0x4 ADD PUSH1 0x20 PUSH1 0x40 MLOAD DUP1 DUP4 SUB DUP2 DUP7 DUP1 EXTCODESIZE ISZERO DUP1 ISZERO PUSH2 0xFFD JUMPI PUSH1 0x0 DUP1 REVERT JUMPDEST POP GAS STATICCALL ISZERO DUP1 ISZERO PUSH2 0x1011 JUMPI RETURNDATASIZE PUSH1 0x0 DUP1 RETURNDATACOPY RETURNDATASIZE PUSH1 0x0 REVERT JUMPDEST POP POP POP POP PUSH1 0x40 MLOAD RETURNDATASIZE PUSH1 0x1F NOT PUSH1 0x1F DUP3 ADD AND DUP3 ADD DUP1 PUSH1 0x40 MSTORE POP DUP2 ADD SWAP1 PUSH2 0x1035 SWAP2 SWAP1 PUSH2 0x24C5 JUMP JUMPDEST PUSH2 0x11D0 JUMP JUMPDEST SWAP1 POP SWAP1 JUMP JUMPDEST PUSH1 0x13 PUSH1 0x0 SWAP1 SLOAD SWAP1 PUSH2 0x100 EXP SWAP1 DIV PUSH20 0xFFFFFFFFFFFFFFFFFFFFFFFFFFFFFFFFFFFFFFFF AND DUP2 JUMP JUMPDEST PUSH1 0x9 PUSH1 0x0 SWAP1 SLOAD SWAP1 PUSH2 0x100 EXP SWAP1 DIV PUSH20 0xFFFFFFFFFFFFFFFFFFFFFFFFFFFFFFFFFFFFFFFF AND DUP2 JUMP JUMPDEST PUSH1 0x17 PUSH1 0x20 MSTORE DUP1 PUSH1 0x0 MSTORE PUSH1 0x40 PUSH1 0x0 KECCAK256 PUSH1 0x0 SWAP2 POP SWAP1 POP SLOAD DUP2 JUMP JUMPDEST PUSH1 0xA SLOAD DUP2 JUMP JUMPDEST POP JUMP JUMPDEST PUSH1 0xB SLOAD DUP2 JUMP JUMPDEST PUSH1 0x0 PUSH2 0x11CB ADDRESS PUSH20 0xFFFFFFFFFFFFFFFFFFFFFFFFFFFFFFFFFFFFFFFF AND PUSH4 0x1F564A06 PUSH1 0x40 MLOAD DUP2 PUSH4 0xFFFFFFFF AND PUSH1 0xE0 SHL DUP2 MSTORE PUSH1 0x4 ADD PUSH1 0x20 PUSH1 0x40 MLOAD DUP1 DUP4 SUB DUP2 DUP7 DUP1 EXTCODESIZE ISZERO DUP1 ISZERO PUSH2 0x10FD JUMPI PUSH1 0x0 DUP1 REVERT JUMPDEST POP GAS STATICCALL ISZERO DUP1 ISZERO PUSH2 0x1111 JUMPI RETURNDATASIZE PUSH1 0x0 DUP1 RETURNDATACOPY RETURNDATASIZE PUSH1 0x0 REVERT JUMPDEST POP POP POP POP PUSH1 0x40 MLOAD RETURNDATASIZE PUSH1 0x1F NOT PUSH1 0x1F DUP3 ADD AND DUP3 ADD DUP1 PUSH1 0x40 MSTORE POP DUP2 ADD SWAP1 PUSH2 0x1135 SWAP2 SWAP1 PUSH2 0x24C5 JUMP JUMPDEST ADDRESS PUSH20 0xFFFFFFFFFFFFFFFFFFFFFFFFFFFFFFFFFFFFFFFF AND PUSH4 0xCCAF04F PUSH1 0x40 MLOAD DUP2 PUSH4 0xFFFFFFFF AND PUSH1 0xE0 SHL DUP2 MSTORE PUSH1 0x4 ADD PUSH1 0x20 PUSH1 0x40 MLOAD DUP1 DUP4 SUB DUP2 DUP7 DUP1 EXTCODESIZE ISZERO DUP1 ISZERO PUSH2 0x117B JUMPI PUSH1 0x0 DUP1 REVERT JUMPDEST POP GAS STATICCALL ISZERO DUP1 ISZERO PUSH2 0x118F JUMPI RETURNDATASIZE PUSH1 0x0 DUP1 RETURNDATACOPY RETURNDATASIZE PUSH1 0x0 REVERT JUMPDEST POP POP POP POP PUSH1 0x40 MLOAD RETURNDATASIZE PUSH1 0x1F NOT PUSH1 0x1F DUP3 ADD AND DUP3 ADD DUP1 PUSH1 0x40 MSTORE POP DUP2 ADD SWAP1 PUSH2 0x11B3 SWAP2 SWAP1 PUSH2 0x24C5 JUMP JUMPDEST PUSH8 0xC7D713B49DA0000 PUSH2 0x11C6 SWAP2 SWAP1 PUSH2 0x2A66 JUMP JUMPDEST PUSH2 0x202C JUMP JUMPDEST SWAP1 POP SWAP1 JUMP JUMPDEST PUSH1 0x0 DUP1 PUSH2 0x11E5 DUP5 PUSH8 0xDE0B6B3A7640000 PUSH2 0x218D JUMP JUMPDEST SWAP1 POP DUP3 PUSH2 0x11FE DUP3 PUSH1 0x2 DUP7 PUSH2 0x11F9 SWAP2 SWAP1 PUSH2 0x29DB JUMP JUMPDEST PUSH2 0x2208 JUMP JUMPDEST PUSH2 0x1208 SWAP2 SWAP1 PUSH2 0x29DB JUMP JUMPDEST SWAP2 POP POP SWAP3 SWAP2 POP POP JUMP JUMPDEST PUSH1 0xC SLOAD DUP2 JUMP JUMPDEST PUSH3 0xD2F00 TIMESTAMP PUSH2 0x1226 SWAP2 SWAP1 PUSH2 0x2985 JUMP JUMPDEST PUSH1 0x1B PUSH1 0x0 CALLER PUSH20 0xFFFFFFFFFFFFFFFFFFFFFFFFFFFFFFFFFFFFFFFF AND PUSH20 0xFFFFFFFFFFFFFFFFFFFFFFFFFFFFFFFFFFFFFFFF AND DUP2 MSTORE PUSH1 0x20 ADD SWAP1 DUP2 MSTORE PUSH1 0x20 ADD PUSH1 0x0 KECCAK256 PUSH1 0x0 ADD DUP2 SWAP1 SSTORE POP DUP1 PUSH1 0x1B PUSH1 0x0 CALLER PUSH20 0xFFFFFFFFFFFFFFFFFFFFFFFFFFFFFFFFFFFFFFFF AND PUSH20 0xFFFFFFFFFFFFFFFFFFFFFFFFFFFFFFFFFFFFFFFF AND DUP2 MSTORE PUSH1 0x20 ADD SWAP1 DUP2 MSTORE PUSH1 0x20 ADD PUSH1 0x0 KECCAK256 PUSH1 0x1 ADD PUSH1 0x0 DUP3 DUP3 SLOAD PUSH2 0x12BE SWAP2 SWAP1 PUSH2 0x2985 JUMP JUMPDEST SWAP3 POP POP DUP2 SWAP1 SSTORE POP POP JUMP JUMPDEST PUSH1 0x12 PUSH1 0x0 SWAP1 SLOAD SWAP1 PUSH2 0x100 EXP SWAP1 DIV PUSH20 0xFFFFFFFFFFFFFFFFFFFFFFFFFFFFFFFFFFFFFFFF AND DUP2 JUMP JUMPDEST PUSH1 0x10 PUSH1 0x0 SWAP1 SLOAD SWAP1 PUSH2 0x100 EXP SWAP1 DIV PUSH1 0xF SIGNEXTEND DUP2 JUMP JUMPDEST PUSH1 0x16 PUSH1 0x0 SWAP1 SLOAD SWAP1 PUSH2 0x100 EXP SWAP1 DIV PUSH20 0xFFFFFFFFFFFFFFFFFFFFFFFFFFFFFFFFFFFFFFFF AND DUP2 JUMP JUMPDEST PUSH1 0x0 DUP1 PUSH1 0x0 DUP1 PUSH3 0x15180 PUSH1 0xC SLOAD PUSH2 0x133E SWAP2 SWAP1 PUSH2 0x29DB JUMP JUMPDEST SWAP1 POP PUSH1 0x0 PUSH3 0x15180 PUSH1 0xB SLOAD TIMESTAMP PUSH2 0x1354 SWAP2 SWAP1 PUSH2 0x2A66 JUMP JUMPDEST PUSH2 0x135E SWAP2 SWAP1 PUSH2 0x29DB JUMP JUMPDEST SWAP1 POP PUSH1 0x0 DUP2 EQ ISZERO PUSH2 0x1388 JUMPI PUSH1 0x17 PUSH1 0x0 DUP1 DUP2 MSTORE PUSH1 0x20 ADD SWAP1 DUP2 MSTORE PUSH1 0x20 ADD PUSH1 0x0 KECCAK256 SLOAD SWAP5 POP POP POP POP POP PUSH2 0x13DB JUMP JUMPDEST DUP2 DUP2 PUSH2 0x1394 SWAP2 SWAP1 PUSH2 0x2A66 JUMP JUMPDEST SWAP3 POP JUMPDEST DUP1 DUP4 LT ISZERO PUSH2 0x13D3 JUMPI PUSH1 0x17 PUSH1 0x0 DUP5 DUP2 MSTORE PUSH1 0x20 ADD SWAP1 DUP2 MSTORE PUSH1 0x20 ADD PUSH1 0x0 KECCAK256 SLOAD DUP5 PUSH2 0x13BE SWAP2 SWAP1 PUSH2 0x2985 JUMP JUMPDEST SWAP4 POP DUP3 DUP1 PUSH2 0x13CB SWAP1 PUSH2 0x2B98 JUMP JUMPDEST SWAP4 POP POP PUSH2 0x1397 JUMP JUMPDEST DUP4 SWAP5 POP POP POP POP POP JUMPDEST SWAP1 JUMP JUMPDEST PUSH1 0x1A DUP2 PUSH1 0x40 MLOAD PUSH2 0x13EE SWAP2 SWAP1 PUSH2 0x273C JUMP JUMPDEST SWAP1 DUP2 MSTORE PUSH1 0x20 ADD PUSH1 0x40 MLOAD DUP1 SWAP2 SUB SWAP1 KECCAK256 PUSH1 0x0 ADD PUSH1 0x0 SWAP1 SLOAD SWAP1 PUSH2 0x100 EXP SWAP1 DIV PUSH20 0xFFFFFFFFFFFFFFFFFFFFFFFFFFFFFFFFFFFFFFFF AND PUSH1 0x16 PUSH1 0x0 PUSH2 0x100 EXP DUP2 SLOAD DUP2 PUSH20 0xFFFFFFFFFFFFFFFFFFFFFFFFFFFFFFFFFFFFFFFF MUL NOT AND SWAP1 DUP4 PUSH20 0xFFFFFFFFFFFFFFFFFFFFFFFFFFFFFFFFFFFFFFFF AND MUL OR SWAP1 SSTORE POP PUSH3 0x3D090 DUP3 GT ISZERO PUSH2 0x14A6 JUMPI PUSH1 0x40 MLOAD PUSH32 0x8C379A000000000000000000000000000000000000000000000000000000000 DUP2 MSTORE PUSH1 0x4 ADD PUSH2 0x149D SWAP1 PUSH2 0x2864 JUMP JUMPDEST PUSH1 0x40 MLOAD DUP1 SWAP2 SUB SWAP1 REVERT JUMPDEST PUSH1 0x0 PUSH1 0x16 PUSH1 0x0 SWAP1 SLOAD SWAP1 PUSH2 0x100 EXP SWAP1 DIV PUSH20 0xFFFFFFFFFFFFFFFFFFFFFFFFFFFFFFFFFFFFFFFF AND PUSH20 0xFFFFFFFFFFFFFFFFFFFFFFFFFFFFFFFFFFFFFFFF AND PUSH4 0x70A08231 CALLER PUSH1 0x40 MLOAD DUP3 PUSH4 0xFFFFFFFF AND PUSH1 0xE0 SHL DUP2 MSTORE PUSH1 0x4 ADD PUSH2 0x1503 SWAP2 SWAP1 PUSH2 0x2753 JUMP JUMPDEST PUSH1 0x20 PUSH1 0x40 MLOAD DUP1 DUP4 SUB DUP2 DUP7 DUP1 EXTCODESIZE ISZERO DUP1 ISZERO PUSH2 0x151B JUMPI PUSH1 0x0 DUP1 REVERT JUMPDEST POP GAS STATICCALL ISZERO DUP1 ISZERO PUSH2 0x152F JUMPI RETURNDATASIZE PUSH1 0x0 DUP1 RETURNDATACOPY RETURNDATASIZE PUSH1 0x0 REVERT JUMPDEST POP POP POP POP PUSH1 0x40 MLOAD RETURNDATASIZE PUSH1 0x1F NOT PUSH1 0x1F DUP3 ADD AND DUP3 ADD DUP1 PUSH1 0x40 MSTORE POP DUP2 ADD SWAP1 PUSH2 0x1553 SWAP2 SWAP1 PUSH2 0x24C5 JUMP JUMPDEST SWAP1 POP DUP3 DUP2 GT PUSH2 0x1597 JUMPI PUSH1 0x40 MLOAD PUSH32 0x8C379A000000000000000000000000000000000000000000000000000000000 DUP2 MSTORE PUSH1 0x4 ADD PUSH2 0x158E SWAP1 PUSH2 0x2844 JUMP JUMPDEST PUSH1 0x40 MLOAD DUP1 SWAP2 SUB SWAP1 REVERT JUMPDEST PUSH1 0x0 PUSH1 0x1A DUP4 PUSH1 0x40 MLOAD PUSH2 0x15A9 SWAP2 SWAP1 PUSH2 0x273C JUMP JUMPDEST SWAP1 DUP2 MSTORE PUSH1 0x20 ADD PUSH1 0x40 MLOAD DUP1 SWAP2 SUB SWAP1 KECCAK256 PUSH1 0x1 ADD SLOAD ADDRESS PUSH20 0xFFFFFFFFFFFFFFFFFFFFFFFFFFFFFFFFFFFFFFFF AND PUSH4 0x18A25E8 PUSH1 0x40 MLOAD DUP2 PUSH4 0xFFFFFFFF AND PUSH1 0xE0 SHL DUP2 MSTORE PUSH1 0x4 ADD PUSH1 0x20 PUSH1 0x40 MLOAD DUP1 DUP4 SUB DUP2 DUP7 DUP1 EXTCODESIZE ISZERO DUP1 ISZERO PUSH2 0x1601 JUMPI PUSH1 0x0 DUP1 REVERT JUMPDEST POP GAS STATICCALL ISZERO DUP1 ISZERO PUSH2 0x1615 JUMPI RETURNDATASIZE PUSH1 0x0 DUP1 RETURNDATACOPY RETURNDATASIZE PUSH1 0x0 REVERT JUMPDEST POP POP POP POP PUSH1 0x40 MLOAD RETURNDATASIZE PUSH1 0x1F NOT PUSH1 0x1F DUP3 ADD AND DUP3 ADD DUP1 PUSH1 0x40 MSTORE POP DUP2 ADD SWAP1 PUSH2 0x1639 SWAP2 SWAP1 PUSH2 0x24C5 JUMP JUMPDEST DUP6 PUSH2 0x1644 SWAP2 SWAP1 PUSH2 0x2A0C JUMP JUMPDEST PUSH2 0x164E SWAP2 SWAP1 PUSH2 0x2A0C JUMP JUMPDEST SWAP1 POP PUSH2 0x167E PUSH1 0x16 PUSH1 0x0 SWAP1 SLOAD SWAP1 PUSH2 0x100 EXP SWAP1 DIV PUSH20 0xFFFFFFFFFFFFFFFFFFFFFFFFFFFFFFFFFFFFFFFF AND CALLER ADDRESS DUP5 PUSH2 0x20B3 JUMP JUMPDEST PUSH1 0x1C PUSH1 0x0 SWAP1 SLOAD SWAP1 PUSH2 0x100 EXP SWAP1 DIV PUSH20 0xFFFFFFFFFFFFFFFFFFFFFFFFFFFFFFFFFFFFFFFF AND PUSH20 0xFFFFFFFFFFFFFFFFFFFFFFFFFFFFFFFFFFFFFFFF AND PUSH4 0x40C10F19 CALLER PUSH8 0xDE0B6B3A7640000 DUP8 PUSH2 0x16D1 SWAP2 SWAP1 PUSH2 0x2A0C JUMP JUMPDEST PUSH1 0x40 MLOAD DUP4 PUSH4 0xFFFFFFFF AND PUSH1 0xE0 SHL DUP2 MSTORE PUSH1 0x4 ADD PUSH2 0x16EE SWAP3 SWAP2 SWAP1 PUSH2 0x27A5 JUMP JUMPDEST PUSH1 0x0 PUSH1 0x40 MLOAD DUP1 DUP4 SUB DUP2 PUSH1 0x0 DUP8 DUP1 EXTCODESIZE ISZERO DUP1 ISZERO PUSH2 0x1708 JUMPI PUSH1 0x0 DUP1 REVERT JUMPDEST POP GAS CALL ISZERO DUP1 ISZERO PUSH2 0x171C JUMPI RETURNDATASIZE PUSH1 0x0 DUP1 RETURNDATACOPY RETURNDATASIZE PUSH1 0x0 REVERT JUMPDEST POP POP POP POP PUSH1 0x0 PUSH3 0x15180 PUSH1 0xB SLOAD TIMESTAMP PUSH2 0x1734 SWAP2 SWAP1 PUSH2 0x2A66 JUMP JUMPDEST PUSH2 0x173E SWAP2 SWAP1 PUSH2 0x29DB JUMP JUMPDEST SWAP1 POP DUP5 PUSH1 0x17 PUSH1 0x0 DUP4 DUP2 MSTORE PUSH1 0x20 ADD SWAP1 DUP2 MSTORE PUSH1 0x20 ADD PUSH1 0x0 KECCAK256 PUSH1 0x0 DUP3 DUP3 SLOAD PUSH2 0x1763 SWAP2 SWAP1 PUSH2 0x2985 JUMP JUMPDEST SWAP3 POP POP DUP2 SWAP1 SSTORE POP DUP5 PUSH1 0x19 PUSH1 0x0 DUP4 DUP2 MSTORE PUSH1 0x20 ADD SWAP1 DUP2 MSTORE PUSH1 0x20 ADD PUSH1 0x0 KECCAK256 PUSH1 0x0 DUP3 DUP3 SLOAD PUSH2 0x178D SWAP2 SWAP1 PUSH2 0x2985 JUMP JUMPDEST SWAP3 POP POP DUP2 SWAP1 SSTORE POP CALLER PUSH20 0xFFFFFFFFFFFFFFFFFFFFFFFFFFFFFFFFFFFFFFFF AND PUSH32 0xF633443B01504D269657083D48BB6DE98E089CFFF672B47FEFBED21608B5C779 DUP7 PUSH1 0x40 MLOAD PUSH2 0x17DA SWAP2 SWAP1 PUSH2 0x28C4 JUMP JUMPDEST PUSH1 0x40 MLOAD DUP1 SWAP2 SUB SWAP1 LOG2 POP POP POP POP POP JUMP JUMPDEST PUSH1 0x0 DUP1 PUSH1 0x0 DUP1 PUSH3 0x15180 PUSH1 0xC SLOAD PUSH2 0x1800 SWAP2 SWAP1 PUSH2 0x29DB JUMP JUMPDEST SWAP1 POP PUSH1 0x0 PUSH3 0x15180 PUSH1 0xB SLOAD TIMESTAMP PUSH2 0x1816 SWAP2 SWAP1 PUSH2 0x2A66 JUMP JUMPDEST PUSH2 0x1820 SWAP2 SWAP1 PUSH2 0x29DB JUMP JUMPDEST SWAP1 POP PUSH1 0x0 DUP1 DUP3 EQ ISZERO PUSH2 0x1847 JUMPI PUSH1 0x19 PUSH1 0x0 DUP1 DUP2 MSTORE PUSH1 0x20 ADD SWAP1 DUP2 MSTORE PUSH1 0x20 ADD PUSH1 0x0 KECCAK256 SLOAD SWAP4 POP PUSH2 0x1893 JUMP JUMPDEST DUP3 DUP3 PUSH2 0x1853 SWAP2 SWAP1 PUSH2 0x2A66 JUMP JUMPDEST SWAP1 POP JUMPDEST DUP2 DUP2 LT ISZERO PUSH2 0x1892 JUMPI PUSH1 0x19 PUSH1 0x0 DUP3 DUP2 MSTORE PUSH1 0x20 ADD SWAP1 DUP2 MSTORE PUSH1 0x20 ADD PUSH1 0x0 KECCAK256 SLOAD DUP5 PUSH2 0x187D SWAP2 SWAP1 PUSH2 0x2985 JUMP JUMPDEST SWAP4 POP DUP1 DUP1 PUSH2 0x188A SWAP1 PUSH2 0x2B98 JUMP JUMPDEST SWAP2 POP POP PUSH2 0x1856 JUMP JUMPDEST JUMPDEST PUSH2 0x191A ADDRESS PUSH20 0xFFFFFFFFFFFFFFFFFFFFFFFFFFFFFFFFFFFFFFFF AND PUSH4 0x71CD58F9 PUSH1 0x40 MLOAD DUP2 PUSH4 0xFFFFFFFF AND PUSH1 0xE0 SHL DUP2 MSTORE PUSH1 0x4 ADD PUSH1 0x20 PUSH1 0x40 MLOAD DUP1 DUP4 SUB DUP2 DUP7 DUP1 EXTCODESIZE ISZERO DUP1 ISZERO PUSH2 0x18DC JUMPI PUSH1 0x0 DUP1 REVERT JUMPDEST POP GAS STATICCALL ISZERO DUP1 ISZERO PUSH2 0x18F0 JUMPI RETURNDATASIZE PUSH1 0x0 DUP1 RETURNDATACOPY RETURNDATASIZE PUSH1 0x0 REVERT JUMPDEST POP POP POP POP PUSH1 0x40 MLOAD RETURNDATASIZE PUSH1 0x1F NOT PUSH1 0x1F DUP3 ADD AND DUP3 ADD DUP1 PUSH1 0x40 MSTORE POP DUP2 ADD SWAP1 PUSH2 0x1914 SWAP2 SWAP1 PUSH2 0x24C5 JUMP JUMPDEST DUP6 PUSH2 0x11D0 JUMP JUMPDEST SWAP5 POP PUSH8 0x429D069189E0000 DUP6 GT ISZERO PUSH2 0x1938 JUMPI PUSH8 0x429D069189E0000 SWAP5 POP JUMPDEST DUP5 SWAP6 POP POP POP POP POP POP SWAP1 JUMP JUMPDEST POP JUMP JUMPDEST PUSH1 0x1A DUP2 DUP1 MLOAD PUSH1 0x20 DUP2 ADD DUP3 ADD DUP1 MLOAD DUP5 DUP3 MSTORE PUSH1 0x20 DUP4 ADD PUSH1 0x20 DUP6 ADD KECCAK256 DUP2 DUP4 MSTORE DUP1 SWAP6 POP POP POP POP POP POP PUSH1 0x0 SWAP2 POP SWAP1 POP DUP1 PUSH1 0x0 ADD PUSH1 0x0 SWAP1 SLOAD SWAP1 PUSH2 0x100 EXP SWAP1 DIV PUSH20 0xFFFFFFFFFFFFFFFFFFFFFFFFFFFFFFFFFFFFFFFF AND SWAP1 DUP1 PUSH1 0x1 ADD SLOAD SWAP1 POP DUP3 JUMP JUMPDEST PUSH1 0x1B PUSH1 0x0 DUP4 PUSH20 0xFFFFFFFFFFFFFFFFFFFFFFFFFFFFFFFFFFFFFFFF AND PUSH20 0xFFFFFFFFFFFFFFFFFFFFFFFFFFFFFFFFFFFFFFFF AND DUP2 MSTORE PUSH1 0x20 ADD SWAP1 DUP2 MSTORE PUSH1 0x20 ADD PUSH1 0x0 KECCAK256 PUSH1 0x0 ADD SLOAD TIMESTAMP LT ISZERO PUSH2 0x1A25 JUMPI PUSH1 0x40 MLOAD PUSH32 0x8C379A000000000000000000000000000000000000000000000000000000000 DUP2 MSTORE PUSH1 0x4 ADD PUSH2 0x1A1C SWAP1 PUSH2 0x2884 JUMP JUMPDEST PUSH1 0x40 MLOAD DUP1 SWAP2 SUB SWAP1 REVERT JUMPDEST PUSH1 0x1A DUP2 PUSH1 0x40 MLOAD PUSH2 0x1A35 SWAP2 SWAP1 PUSH2 0x273C JUMP JUMPDEST SWAP1 DUP2 MSTORE PUSH1 0x20 ADD PUSH1 0x40 MLOAD DUP1 SWAP2 SUB SWAP1 KECCAK256 PUSH1 0x0 ADD PUSH1 0x0 SWAP1 SLOAD SWAP1 PUSH2 0x100 EXP SWAP1 DIV PUSH20 0xFFFFFFFFFFFFFFFFFFFFFFFFFFFFFFFFFFFFFFFF AND PUSH1 0x16 PUSH1 0x0 PUSH2 0x100 EXP DUP2 SLOAD DUP2 PUSH20 0xFFFFFFFFFFFFFFFFFFFFFFFFFFFFFFFFFFFFFFFF MUL NOT AND SWAP1 DUP4 PUSH20 0xFFFFFFFFFFFFFFFFFFFFFFFFFFFFFFFFFFFFFFFF AND MUL OR SWAP1 SSTORE POP PUSH1 0x0 PUSH1 0x1B PUSH1 0x0 DUP5 PUSH20 0xFFFFFFFFFFFFFFFFFFFFFFFFFFFFFFFFFFFFFFFF AND PUSH20 0xFFFFFFFFFFFFFFFFFFFFFFFFFFFFFFFFFFFFFFFF AND DUP2 MSTORE PUSH1 0x20 ADD SWAP1 DUP2 MSTORE PUSH1 0x20 ADD PUSH1 0x0 KECCAK256 PUSH1 0x1 ADD SLOAD SWAP1 POP PUSH2 0x1B1C PUSH1 0x16 PUSH1 0x0 SWAP1 SLOAD SWAP1 PUSH2 0x100 EXP SWAP1 DIV PUSH20 0xFFFFFFFFFFFFFFFFFFFFFFFFFFFFFFFFFFFFFFFF AND ADDRESS CALLER DUP5 PUSH2 0x20B3 JUMP JUMPDEST POP POP POP JUMP JUMPDEST PUSH1 0x7 PUSH1 0x0 SWAP1 SLOAD SWAP1 PUSH2 0x100 EXP SWAP1 DIV PUSH20 0xFFFFFFFFFFFFFFFFFFFFFFFFFFFFFFFFFFFFFFFF AND DUP2 JUMP JUMPDEST PUSH1 0x15 PUSH1 0x0 SWAP1 SLOAD SWAP1 PUSH2 0x100 EXP SWAP1 DIV PUSH20 0xFFFFFFFFFFFFFFFFFFFFFFFFFFFFFFFFFFFFFFFF AND DUP2 JUMP JUMPDEST PUSH1 0x1A DUP2 PUSH1 0x40 MLOAD PUSH2 0x1B7D SWAP2 SWAP1 PUSH2 0x273C JUMP JUMPDEST SWAP1 DUP2 MSTORE PUSH1 0x20 ADD PUSH1 0x40 MLOAD DUP1 SWAP2 SUB SWAP1 KECCAK256 PUSH1 0x0 ADD PUSH1 0x0 SWAP1 SLOAD SWAP1 PUSH2 0x100 EXP SWAP1 DIV PUSH20 0xFFFFFFFFFFFFFFFFFFFFFFFFFFFFFFFFFFFFFFFF AND PUSH1 0x16 PUSH1 0x0 PUSH2 0x100 EXP DUP2 SLOAD DUP2 PUSH20 0xFFFFFFFFFFFFFFFFFFFFFFFFFFFFFFFFFFFFFFFF MUL NOT AND SWAP1 DUP4 PUSH20 0xFFFFFFFFFFFFFFFFFFFFFFFFFFFFFFFFFFFFFFFF AND MUL OR SWAP1 SSTORE POP PUSH1 0x0 PUSH1 0x12 PUSH1 0x0 SWAP1 SLOAD SWAP1 PUSH2 0x100 EXP SWAP1 DIV PUSH20 0xFFFFFFFFFFFFFFFFFFFFFFFFFFFFFFFFFFFFFFFF AND PUSH20 0xFFFFFFFFFFFFFFFFFFFFFFFFFFFFFFFFFFFFFFFF AND PUSH4 0x70A08231 CALLER PUSH1 0x40 MLOAD DUP3 PUSH4 0xFFFFFFFF AND PUSH1 0xE0 SHL DUP2 MSTORE PUSH1 0x4 ADD PUSH2 0x1C4C SWAP2 SWAP1 PUSH2 0x2753 JUMP JUMPDEST PUSH1 0x20 PUSH1 0x40 MLOAD DUP1 DUP4 SUB DUP2 DUP7 DUP1 EXTCODESIZE ISZERO DUP1 ISZERO PUSH2 0x1C64 JUMPI PUSH1 0x0 DUP1 REVERT JUMPDEST POP GAS STATICCALL ISZERO DUP1 ISZERO PUSH2 0x1C78 JUMPI RETURNDATASIZE PUSH1 0x0 DUP1 RETURNDATACOPY RETURNDATASIZE PUSH1 0x0 REVERT JUMPDEST POP POP POP POP PUSH1 0x40 MLOAD RETURNDATASIZE PUSH1 0x1F NOT PUSH1 0x1F DUP3 ADD AND DUP3 ADD DUP1 PUSH1 0x40 MSTORE POP DUP2 ADD SWAP1 PUSH2 0x1C9C SWAP2 SWAP1 PUSH2 0x24C5 JUMP JUMPDEST SWAP1 POP DUP4 DUP2 GT PUSH2 0x1CE0 JUMPI PUSH1 0x40 MLOAD PUSH32 0x8C379A000000000000000000000000000000000000000000000000000000000 DUP2 MSTORE PUSH1 0x4 ADD PUSH2 0x1CD7 SWAP1 PUSH2 0x2844 JUMP JUMPDEST PUSH1 0x40 MLOAD DUP1 SWAP2 SUB SWAP1 REVERT JUMPDEST PUSH1 0x16 PUSH1 0x0 SWAP1 SLOAD SWAP1 PUSH2 0x100 EXP SWAP1 DIV PUSH20 0xFFFFFFFFFFFFFFFFFFFFFFFFFFFFFFFFFFFFFFFF AND PUSH20 0xFFFFFFFFFFFFFFFFFFFFFFFFFFFFFFFFFFFFFFFF AND PUSH4 0xA9059CBB CALLER PUSH8 0xDE0B6B3A7640000 PUSH1 0x1 PUSH2 0x1D34 SWAP2 SWAP1 PUSH2 0x2A0C JUMP JUMPDEST DUP8 PUSH2 0x1D3F SWAP2 SWAP1 PUSH2 0x2985 JUMP JUMPDEST PUSH1 0x40 MLOAD DUP4 PUSH4 0xFFFFFFFF AND PUSH1 0xE0 SHL DUP2 MSTORE PUSH1 0x4 ADD PUSH2 0x1D5C SWAP3 SWAP2 SWAP1 PUSH2 0x27A5 JUMP JUMPDEST PUSH1 0x20 PUSH1 0x40 MLOAD DUP1 DUP4 SUB DUP2 PUSH1 0x0 DUP8 DUP1 EXTCODESIZE ISZERO DUP1 ISZERO PUSH2 0x1D76 JUMPI PUSH1 0x0 DUP1 REVERT JUMPDEST POP GAS CALL ISZERO DUP1 ISZERO PUSH2 0x1D8A JUMPI RETURNDATASIZE PUSH1 0x0 DUP1 RETURNDATACOPY RETURNDATASIZE PUSH1 0x0 REVERT JUMPDEST POP POP POP POP PUSH1 0x40 MLOAD RETURNDATASIZE PUSH1 0x1F NOT PUSH1 0x1F DUP3 ADD AND DUP3 ADD DUP1 PUSH1 0x40 MSTORE POP DUP2 ADD SWAP1 PUSH2 0x1DAE SWAP2 SWAP1 PUSH2 0x23B3 JUMP JUMPDEST POP PUSH2 0x1DDD PUSH1 0x12 PUSH1 0x0 SWAP1 SLOAD SWAP1 PUSH2 0x100 EXP SWAP1 DIV PUSH20 0xFFFFFFFFFFFFFFFFFFFFFFFFFFFFFFFFFFFFFFFF AND CALLER ADDRESS DUP8 PUSH2 0x20B3 JUMP JUMPDEST PUSH1 0x0 DUP5 ADDRESS PUSH20 0xFFFFFFFFFFFFFFFFFFFFFFFFFFFFFFFFFFFFFFFF AND PUSH4 0x43D32E9C PUSH1 0x40 MLOAD DUP2 PUSH4 0xFFFFFFFF AND PUSH1 0xE0 SHL DUP2 MSTORE PUSH1 0x4 ADD PUSH1 0x20 PUSH1 0x40 MLOAD DUP1 DUP4 SUB DUP2 DUP7 DUP1 EXTCODESIZE ISZERO DUP1 ISZERO PUSH2 0x1E26 JUMPI PUSH1 0x0 DUP1 REVERT JUMPDEST POP GAS STATICCALL ISZERO DUP1 ISZERO PUSH2 0x1E3A JUMPI RETURNDATASIZE PUSH1 0x0 DUP1 RETURNDATACOPY RETURNDATASIZE PUSH1 0x0 REVERT JUMPDEST POP POP POP POP PUSH1 0x40 MLOAD RETURNDATASIZE PUSH1 0x1F NOT PUSH1 0x1F DUP3 ADD AND DUP3 ADD DUP1 PUSH1 0x40 MSTORE POP DUP2 ADD SWAP1 PUSH2 0x1E5E SWAP2 SWAP1 PUSH2 0x24C5 JUMP JUMPDEST PUSH2 0x1E68 SWAP2 SWAP1 PUSH2 0x2A0C JUMP JUMPDEST SWAP1 POP PUSH1 0x0 PUSH3 0x15180 PUSH1 0xB SLOAD TIMESTAMP PUSH2 0x1E7E SWAP2 SWAP1 PUSH2 0x2A66 JUMP JUMPDEST PUSH2 0x1E88 SWAP2 SWAP1 PUSH2 0x29DB JUMP JUMPDEST SWAP1 POP DUP6 PUSH1 0x18 PUSH1 0x0 DUP4 DUP2 MSTORE PUSH1 0x20 ADD SWAP1 DUP2 MSTORE PUSH1 0x20 ADD PUSH1 0x0 KECCAK256 PUSH1 0x0 DUP3 DUP3 SLOAD PUSH2 0x1EAD SWAP2 SWAP1 PUSH2 0x2985 JUMP JUMPDEST SWAP3 POP POP DUP2 SWAP1 SSTORE POP DUP6 PUSH1 0x19 PUSH1 0x0 DUP4 DUP2 MSTORE PUSH1 0x20 ADD SWAP1 DUP2 MSTORE PUSH1 0x20 ADD PUSH1 0x0 KECCAK256 PUSH1 0x0 DUP3 DUP3 SLOAD PUSH2 0x1ED7 SWAP2 SWAP1 PUSH2 0x2A66 JUMP JUMPDEST SWAP3 POP POP DUP2 SWAP1 SSTORE POP POP POP POP POP POP POP JUMP JUMPDEST PUSH1 0x1 SLOAD DUP2 JUMP JUMPDEST PUSH1 0x14 PUSH1 0x0 SWAP1 SLOAD SWAP1 PUSH2 0x100 EXP SWAP1 DIV PUSH20 0xFFFFFFFFFFFFFFFFFFFFFFFFFFFFFFFFFFFFFFFF AND DUP2 JUMP JUMPDEST PUSH1 0x0 DUP1 PUSH1 0x0 DUP1 PUSH3 0x15180 PUSH1 0xC SLOAD PUSH2 0x1F29 SWAP2 SWAP1 PUSH2 0x29DB JUMP JUMPDEST SWAP1 POP PUSH1 0x0 SWAP2 POP JUMPDEST DUP1 DUP3 LT ISZERO PUSH2 0x1F6C JUMPI PUSH1 0x18 PUSH1 0x0 DUP4 DUP2 MSTORE PUSH1 0x20 ADD SWAP1 DUP2 MSTORE PUSH1 0x20 ADD PUSH1 0x0 KECCAK256 SLOAD DUP4 PUSH2 0x1F57 SWAP2 SWAP1 PUSH2 0x2985 JUMP JUMPDEST SWAP3 POP DUP2 DUP1 PUSH2 0x1F64 SWAP1 PUSH2 0x2B98 JUMP JUMPDEST SWAP3 POP POP PUSH2 0x1F30 JUMP JUMPDEST DUP3 SWAP4 POP POP POP POP SWAP1 JUMP JUMPDEST DUP2 PUSH1 0x1A DUP5 PUSH1 0x40 MLOAD PUSH2 0x1F86 SWAP2 SWAP1 PUSH2 0x273C JUMP JUMPDEST SWAP1 DUP2 MSTORE PUSH1 0x20 ADD PUSH1 0x40 MLOAD DUP1 SWAP2 SUB SWAP1 KECCAK256 PUSH1 0x0 ADD PUSH1 0x0 PUSH2 0x100 EXP DUP2 SLOAD DUP2 PUSH20 0xFFFFFFFFFFFFFFFFFFFFFFFFFFFFFFFFFFFFFFFF MUL NOT AND SWAP1 DUP4 PUSH20 0xFFFFFFFFFFFFFFFFFFFFFFFFFFFFFFFFFFFFFFFF AND MUL OR SWAP1 SSTORE POP DUP1 PUSH1 0x1A DUP5 PUSH1 0x40 MLOAD PUSH2 0x1FE6 SWAP2 SWAP1 PUSH2 0x273C JUMP JUMPDEST SWAP1 DUP2 MSTORE PUSH1 0x20 ADD PUSH1 0x40 MLOAD DUP1 SWAP2 SUB SWAP1 KECCAK256 PUSH1 0x1 ADD DUP2 SWAP1 SSTORE POP POP POP POP JUMP JUMPDEST PUSH1 0x0 SLOAD DUP2 JUMP JUMPDEST PUSH1 0x11 PUSH1 0x0 SWAP1 SLOAD SWAP1 PUSH2 0x100 EXP SWAP1 DIV PUSH20 0xFFFFFFFFFFFFFFFFFFFFFFFFFFFFFFFFFFFFFFFF AND DUP2 JUMP JUMPDEST PUSH1 0x0 DUP1 PUSH2 0x2039 DUP5 DUP5 PUSH2 0x218D JUMP JUMPDEST SWAP1 POP PUSH8 0xDE0B6B3A7640000 PUSH2 0x2062 DUP3 PUSH1 0x2 PUSH8 0xDE0B6B3A7640000 PUSH2 0x205D SWAP2 SWAP1 PUSH2 0x29DB JUMP JUMPDEST PUSH2 0x2208 JUMP JUMPDEST PUSH2 0x206C SWAP2 SWAP1 PUSH2 0x29DB JUMP JUMPDEST SWAP2 POP POP SWAP3 SWAP2 POP POP JUMP JUMPDEST PUSH1 0x6 PUSH1 0x0 SWAP1 SLOAD SWAP1 PUSH2 0x100 EXP SWAP1 DIV PUSH20 0xFFFFFFFFFFFFFFFFFFFFFFFFFFFFFFFFFFFFFFFF AND DUP2 JUMP JUMPDEST PUSH3 0x15180 DUP2 PUSH2 0x20AA SWAP2 SWAP1 PUSH2 0x2A0C JUMP JUMPDEST PUSH1 0xC DUP2 SWAP1 SSTORE POP POP JUMP JUMPDEST PUSH1 0x0 DUP5 PUSH20 0xFFFFFFFFFFFFFFFFFFFFFFFFFFFFFFFFFFFFFFFF AND PUSH4 0x23B872DD DUP6 DUP6 DUP6 PUSH1 0x40 MLOAD DUP5 PUSH4 0xFFFFFFFF AND PUSH1 0xE0 SHL DUP2 MSTORE PUSH1 0x4 ADD PUSH2 0x20F2 SWAP4 SWAP3 SWAP2 SWAP1 PUSH2 0x276E JUMP JUMPDEST PUSH1 0x20 PUSH1 0x40 MLOAD DUP1 DUP4 SUB DUP2 PUSH1 0x0 DUP8 DUP1 EXTCODESIZE ISZERO DUP1 ISZERO PUSH2 0x210C JUMPI PUSH1 0x0 DUP1 REVERT JUMPDEST POP GAS CALL ISZERO DUP1 ISZERO PUSH2 0x2120 JUMPI RETURNDATASIZE PUSH1 0x0 DUP1 RETURNDATACOPY RETURNDATASIZE PUSH1 0x0 REVERT JUMPDEST POP POP POP POP PUSH1 0x40 MLOAD RETURNDATASIZE PUSH1 0x1F NOT PUSH1 0x1F DUP3 ADD AND DUP3 ADD DUP1 PUSH1 0x40 MSTORE POP DUP2 ADD SWAP1 PUSH2 0x2144 SWAP2 SWAP1 PUSH2 0x23B3 JUMP JUMPDEST SWAP1 POP DUP1 PUSH2 0x2186 JUMPI PUSH1 0x40 MLOAD PUSH32 0x8C379A000000000000000000000000000000000000000000000000000000000 DUP2 MSTORE PUSH1 0x4 ADD PUSH2 0x217D SWAP1 PUSH2 0x2824 JUMP JUMPDEST PUSH1 0x40 MLOAD DUP1 SWAP2 SUB SWAP1 REVERT JUMPDEST POP POP POP POP POP JUMP JUMPDEST PUSH1 0x0 DUP1 DUP4 EQ ISZERO PUSH2 0x21A0 JUMPI PUSH1 0x0 SWAP1 POP PUSH2 0x2202 JUMP JUMPDEST PUSH1 0x0 DUP3 DUP5 PUSH2 0x21AE SWAP2 SWAP1 PUSH2 0x2A0C JUMP JUMPDEST SWAP1 POP DUP3 DUP5 DUP3 PUSH2 0x21BD SWAP2 SWAP1 PUSH2 0x29DB JUMP JUMPDEST EQ PUSH2 0x21FD JUMPI PUSH1 0x40 MLOAD PUSH32 0x8C379A000000000000000000000000000000000000000000000000000000000 DUP2 MSTORE PUSH1 0x4 ADD PUSH2 0x21F4 SWAP1 PUSH2 0x28A4 JUMP JUMPDEST PUSH1 0x40 MLOAD DUP1 SWAP2 SUB SWAP1 REVERT JUMPDEST DUP1 SWAP2 POP POP JUMPDEST SWAP3 SWAP2 POP POP JUMP JUMPDEST PUSH1 0x0 DUP1 DUP3 DUP5 PUSH2 0x2217 SWAP2 SWAP1 PUSH2 0x2985 JUMP JUMPDEST SWAP1 POP DUP4 DUP2 LT ISZERO PUSH2 0x225C JUMPI PUSH1 0x40 MLOAD PUSH32 0x8C379A000000000000000000000000000000000000000000000000000000000 DUP2 MSTORE PUSH1 0x4 ADD PUSH2 0x2253 SWAP1 PUSH2 0x28A4 JUMP JUMPDEST PUSH1 0x40 MLOAD DUP1 SWAP2 SUB SWAP1 REVERT JUMPDEST DUP1 SWAP2 POP POP SWAP3 SWAP2 POP POP JUMP JUMPDEST PUSH1 0x0 PUSH2 0x2279 PUSH2 0x2274 DUP5 PUSH2 0x292D JUMP JUMPDEST PUSH2 0x2908 JUMP JUMPDEST SWAP1 POP DUP3 DUP2 MSTORE PUSH1 0x20 DUP2 ADD DUP5 DUP5 DUP5 ADD GT ISZERO PUSH2 0x2295 JUMPI PUSH2 0x2294 PUSH2 0x2C73 JUMP JUMPDEST JUMPDEST PUSH2 0x22A0 DUP5 DUP3 DUP6 PUSH2 0x2B25 JUMP JUMPDEST POP SWAP4 SWAP3 POP POP POP JUMP JUMPDEST PUSH1 0x0 DUP2 CALLDATALOAD SWAP1 POP PUSH2 0x22B7 DUP2 PUSH2 0x2DD5 JUMP JUMPDEST SWAP3 SWAP2 POP POP JUMP JUMPDEST PUSH1 0x0 DUP2 MLOAD SWAP1 POP PUSH2 0x22CC DUP2 PUSH2 0x2DEC JUMP JUMPDEST SWAP3 SWAP2 POP POP JUMP JUMPDEST PUSH1 0x0 DUP3 PUSH1 0x1F DUP4 ADD SLT PUSH2 0x22E7 JUMPI PUSH2 0x22E6 PUSH2 0x2C6E JUMP JUMPDEST JUMPDEST DUP2 CALLDATALOAD PUSH2 0x22F7 DUP5 DUP3 PUSH1 0x20 DUP7 ADD PUSH2 0x2266 JUMP JUMPDEST SWAP2 POP POP SWAP3 SWAP2 POP POP JUMP JUMPDEST PUSH1 0x0 DUP2 CALLDATALOAD SWAP1 POP PUSH2 0x230F DUP2 PUSH2 0x2E03 JUMP JUMPDEST SWAP3 SWAP2 POP POP JUMP JUMPDEST PUSH1 0x0 DUP2 MLOAD SWAP1 POP PUSH2 0x2324 DUP2 PUSH2 0x2E03 JUMP JUMPDEST SWAP3 SWAP2 POP POP JUMP JUMPDEST PUSH1 0x0 PUSH1 0x20 DUP3 DUP5 SUB SLT ISZERO PUSH2 0x2340 JUMPI PUSH2 0x233F PUSH2 0x2C7D JUMP JUMPDEST JUMPDEST PUSH1 0x0 PUSH2 0x234E DUP5 DUP3 DUP6 ADD PUSH2 0x22A8 JUMP JUMPDEST SWAP2 POP POP SWAP3 SWAP2 POP POP JUMP JUMPDEST PUSH1 0x0 DUP1 PUSH1 0x40 DUP4 DUP6 SUB SLT ISZERO PUSH2 0x236E JUMPI PUSH2 0x236D PUSH2 0x2C7D JUMP JUMPDEST JUMPDEST PUSH1 0x0 PUSH2 0x237C DUP6 DUP3 DUP7 ADD PUSH2 0x22A8 JUMP JUMPDEST SWAP3 POP POP PUSH1 0x20 DUP4 ADD CALLDATALOAD PUSH8 0xFFFFFFFFFFFFFFFF DUP2 GT ISZERO PUSH2 0x239D JUMPI PUSH2 0x239C PUSH2 0x2C78 JUMP JUMPDEST JUMPDEST PUSH2 0x23A9 DUP6 DUP3 DUP7 ADD PUSH2 0x22D2 JUMP JUMPDEST SWAP2 POP POP SWAP3 POP SWAP3 SWAP1 POP JUMP JUMPDEST PUSH1 0x0 PUSH1 0x20 DUP3 DUP5 SUB SLT ISZERO PUSH2 0x23C9 JUMPI PUSH2 0x23C8 PUSH2 0x2C7D JUMP JUMPDEST JUMPDEST PUSH1 0x0 PUSH2 0x23D7 DUP5 DUP3 DUP6 ADD PUSH2 0x22BD JUMP JUMPDEST SWAP2 POP POP SWAP3 SWAP2 POP POP JUMP JUMPDEST PUSH1 0x0 PUSH1 0x20 DUP3 DUP5 SUB SLT ISZERO PUSH2 0x23F6 JUMPI PUSH2 0x23F5 PUSH2 0x2C7D JUMP JUMPDEST JUMPDEST PUSH1 0x0 DUP3 ADD CALLDATALOAD PUSH8 0xFFFFFFFFFFFFFFFF DUP2 GT ISZERO PUSH2 0x2414 JUMPI PUSH2 0x2413 PUSH2 0x2C78 JUMP JUMPDEST JUMPDEST PUSH2 0x2420 DUP5 DUP3 DUP6 ADD PUSH2 0x22D2 JUMP JUMPDEST SWAP2 POP POP SWAP3 SWAP2 POP POP JUMP JUMPDEST PUSH1 0x0 DUP1 PUSH1 0x0 PUSH1 0x60 DUP5 DUP7 SUB SLT ISZERO PUSH2 0x2442 JUMPI PUSH2 0x2441 PUSH2 0x2C7D JUMP JUMPDEST JUMPDEST PUSH1 0x0 DUP5 ADD CALLDATALOAD PUSH8 0xFFFFFFFFFFFFFFFF DUP2 GT ISZERO PUSH2 0x2460 JUMPI PUSH2 0x245F PUSH2 0x2C78 JUMP JUMPDEST JUMPDEST PUSH2 0x246C DUP7 DUP3 DUP8 ADD PUSH2 0x22D2 JUMP JUMPDEST SWAP4 POP POP PUSH1 0x20 PUSH2 0x247D DUP7 DUP3 DUP8 ADD PUSH2 0x22A8 JUMP JUMPDEST SWAP3 POP POP PUSH1 0x40 PUSH2 0x248E DUP7 DUP3 DUP8 ADD PUSH2 0x2300 JUMP JUMPDEST SWAP2 POP POP SWAP3 POP SWAP3 POP SWAP3 JUMP JUMPDEST PUSH1 0x0 PUSH1 0x20 DUP3 DUP5 SUB SLT ISZERO PUSH2 0x24AE JUMPI PUSH2 0x24AD PUSH2 0x2C7D JUMP JUMPDEST JUMPDEST PUSH1 0x0 PUSH2 0x24BC DUP5 DUP3 DUP6 ADD PUSH2 0x2300 JUMP JUMPDEST SWAP2 POP POP SWAP3 SWAP2 POP POP JUMP JUMPDEST PUSH1 0x0 PUSH1 0x20 DUP3 DUP5 SUB SLT ISZERO PUSH2 0x24DB JUMPI PUSH2 0x24DA PUSH2 0x2C7D JUMP JUMPDEST JUMPDEST PUSH1 0x0 PUSH2 0x24E9 DUP5 DUP3 DUP6 ADD PUSH2 0x2315 JUMP JUMPDEST SWAP2 POP POP SWAP3 SWAP2 POP POP JUMP JUMPDEST PUSH1 0x0 DUP1 PUSH1 0x40 DUP4 DUP6 SUB SLT ISZERO PUSH2 0x2509 JUMPI PUSH2 0x2508 PUSH2 0x2C7D JUMP JUMPDEST JUMPDEST PUSH1 0x0 PUSH2 0x2517 DUP6 DUP3 DUP7 ADD PUSH2 0x2300 JUMP JUMPDEST SWAP3 POP POP PUSH1 0x20 DUP4 ADD CALLDATALOAD PUSH8 0xFFFFFFFFFFFFFFFF DUP2 GT ISZERO PUSH2 0x2538 JUMPI PUSH2 0x2537 PUSH2 0x2C78 JUMP JUMPDEST JUMPDEST PUSH2 0x2544 DUP6 DUP3 DUP7 ADD PUSH2 0x22D2 JUMP JUMPDEST SWAP2 POP POP SWAP3 POP SWAP3 SWAP1 POP JUMP JUMPDEST PUSH1 0x0 DUP1 PUSH1 0x40 DUP4 DUP6 SUB SLT ISZERO PUSH2 0x2565 JUMPI PUSH2 0x2564 PUSH2 0x2C7D JUMP JUMPDEST JUMPDEST PUSH1 0x0 PUSH2 0x2573 DUP6 DUP3 DUP7 ADD PUSH2 0x2300 JUMP JUMPDEST SWAP3 POP POP PUSH1 0x20 PUSH2 0x2584 DUP6 DUP3 DUP7 ADD PUSH2 0x2300 JUMP JUMPDEST SWAP2 POP POP SWAP3 POP SWAP3 SWAP1 POP JUMP JUMPDEST PUSH1 0x0 DUP1 PUSH1 0x0 PUSH1 0x60 DUP5 DUP7 SUB SLT ISZERO PUSH2 0x25A7 JUMPI PUSH2 0x25A6 PUSH2 0x2C7D JUMP JUMPDEST JUMPDEST PUSH1 0x0 PUSH2 0x25B5 DUP7 DUP3 DUP8 ADD PUSH2 0x2300 JUMP JUMPDEST SWAP4 POP POP PUSH1 0x20 PUSH2 0x25C6 DUP7 DUP3 DUP8 ADD PUSH2 0x2300 JUMP JUMPDEST SWAP3 POP POP PUSH1 0x40 DUP5 ADD CALLDATALOAD PUSH8 0xFFFFFFFFFFFFFFFF DUP2 GT ISZERO PUSH2 0x25E7 JUMPI PUSH2 0x25E6 PUSH2 0x2C78 JUMP JUMPDEST JUMPDEST PUSH2 0x25F3 DUP7 DUP3 DUP8 ADD PUSH2 0x22D2 JUMP JUMPDEST SWAP2 POP POP SWAP3 POP SWAP3 POP SWAP3 JUMP JUMPDEST PUSH2 0x2606 DUP2 PUSH2 0x2A9A JUMP JUMPDEST DUP3 MSTORE POP POP JUMP JUMPDEST PUSH2 0x2615 DUP2 PUSH2 0x2AEF JUMP JUMPDEST DUP3 MSTORE POP POP JUMP JUMPDEST PUSH2 0x2624 DUP2 PUSH2 0x2AB8 JUMP JUMPDEST DUP3 MSTORE POP POP JUMP JUMPDEST PUSH1 0x0 PUSH2 0x2635 DUP3 PUSH2 0x295E JUMP JUMPDEST PUSH2 0x263F DUP2 DUP6 PUSH2 0x297A JUMP JUMPDEST SWAP4 POP PUSH2 0x264F DUP2 DUP6 PUSH1 0x20 DUP7 ADD PUSH2 0x2B34 JUMP JUMPDEST DUP1 DUP5 ADD SWAP2 POP POP SWAP3 SWAP2 POP POP JUMP JUMPDEST PUSH1 0x0 PUSH2 0x2668 PUSH1 0x24 DUP4 PUSH2 0x2969 JUMP JUMPDEST SWAP2 POP PUSH2 0x2673 DUP3 PUSH2 0x2C93 JUMP JUMPDEST PUSH1 0x40 DUP3 ADD SWAP1 POP SWAP2 SWAP1 POP JUMP JUMPDEST PUSH1 0x0 PUSH2 0x268B PUSH1 0x15 DUP4 PUSH2 0x2969 JUMP JUMPDEST SWAP2 POP PUSH2 0x2696 DUP3 PUSH2 0x2CE2 JUMP JUMPDEST PUSH1 0x20 DUP3 ADD SWAP1 POP SWAP2 SWAP1 POP JUMP JUMPDEST PUSH1 0x0 PUSH2 0x26AE PUSH1 0x1A DUP4 PUSH2 0x2969 JUMP JUMPDEST SWAP2 POP PUSH2 0x26B9 DUP3 PUSH2 0x2D0B JUMP JUMPDEST PUSH1 0x20 DUP3 ADD SWAP1 POP SWAP2 SWAP1 POP JUMP JUMPDEST PUSH1 0x0 PUSH2 0x26D1 PUSH1 0x15 DUP4 PUSH2 0x2969 JUMP JUMPDEST SWAP2 POP PUSH2 0x26DC DUP3 PUSH2 0x2D34 JUMP JUMPDEST PUSH1 0x20 DUP3 ADD SWAP1 POP SWAP2 SWAP1 POP JUMP JUMPDEST PUSH1 0x0 PUSH2 0x26F4 PUSH1 0xC DUP4 PUSH2 0x2969 JUMP JUMPDEST SWAP2 POP PUSH2 0x26FF DUP3 PUSH2 0x2D5D JUMP JUMPDEST PUSH1 0x20 DUP3 ADD SWAP1 POP SWAP2 SWAP1 POP JUMP JUMPDEST PUSH1 0x0 PUSH2 0x2717 PUSH1 0x21 DUP4 PUSH2 0x2969 JUMP JUMPDEST SWAP2 POP PUSH2 0x2722 DUP3 PUSH2 0x2D86 JUMP JUMPDEST PUSH1 0x40 DUP3 ADD SWAP1 POP SWAP2 SWAP1 POP JUMP JUMPDEST PUSH2 0x2736 DUP2 PUSH2 0x2AE5 JUMP JUMPDEST DUP3 MSTORE POP POP JUMP JUMPDEST PUSH1 0x0 PUSH2 0x2748 DUP3 DUP5 PUSH2 0x262A JUMP JUMPDEST SWAP2 POP DUP2 SWAP1 POP SWAP3 SWAP2 POP POP JUMP JUMPDEST PUSH1 0x0 PUSH1 0x20 DUP3 ADD SWAP1 POP PUSH2 0x2768 PUSH1 0x0 DUP4 ADD DUP5 PUSH2 0x25FD JUMP JUMPDEST SWAP3 SWAP2 POP POP JUMP JUMPDEST PUSH1 0x0 PUSH1 0x60 DUP3 ADD SWAP1 POP PUSH2 0x2783 PUSH1 0x0 DUP4 ADD DUP7 PUSH2 0x25FD JUMP JUMPDEST PUSH2 0x2790 PUSH1 0x20 DUP4 ADD DUP6 PUSH2 0x25FD JUMP JUMPDEST PUSH2 0x279D PUSH1 0x40 DUP4 ADD DUP5 PUSH2 0x272D JUMP JUMPDEST SWAP5 SWAP4 POP POP POP POP JUMP JUMPDEST PUSH1 0x0 PUSH1 0x40 DUP3 ADD SWAP1 POP PUSH2 0x27BA PUSH1 0x0 DUP4 ADD DUP6 PUSH2 0x25FD JUMP JUMPDEST PUSH2 0x27C7 PUSH1 0x20 DUP4 ADD DUP5 PUSH2 0x272D JUMP JUMPDEST SWAP4 SWAP3 POP POP POP JUMP JUMPDEST PUSH1 0x0 PUSH1 0x20 DUP3 ADD SWAP1 POP PUSH2 0x27E3 PUSH1 0x0 DUP4 ADD DUP5 PUSH2 0x260C JUMP JUMPDEST SWAP3 SWAP2 POP POP JUMP JUMPDEST PUSH1 0x0 PUSH1 0x20 DUP3 ADD SWAP1 POP PUSH2 0x27FE PUSH1 0x0 DUP4 ADD DUP5 PUSH2 0x261B JUMP JUMPDEST SWAP3 SWAP2 POP POP JUMP JUMPDEST PUSH1 0x0 PUSH1 0x20 DUP3 ADD SWAP1 POP DUP2 DUP2 SUB PUSH1 0x0 DUP4 ADD MSTORE PUSH2 0x281D DUP2 PUSH2 0x265B JUMP JUMPDEST SWAP1 POP SWAP2 SWAP1 POP JUMP JUMPDEST PUSH1 0x0 PUSH1 0x20 DUP3 ADD SWAP1 POP DUP2 DUP2 SUB PUSH1 0x0 DUP4 ADD MSTORE PUSH2 0x283D DUP2 PUSH2 0x267E JUMP JUMPDEST SWAP1 POP SWAP2 SWAP1 POP JUMP JUMPDEST PUSH1 0x0 PUSH1 0x20 DUP3 ADD SWAP1 POP DUP2 DUP2 SUB PUSH1 0x0 DUP4 ADD MSTORE PUSH2 0x285D DUP2 PUSH2 0x26A1 JUMP JUMPDEST SWAP1 POP SWAP2 SWAP1 POP JUMP JUMPDEST PUSH1 0x0 PUSH1 0x20 DUP3 ADD SWAP1 POP DUP2 DUP2 SUB PUSH1 0x0 DUP4 ADD MSTORE PUSH2 0x287D DUP2 PUSH2 0x26C4 JUMP JUMPDEST SWAP1 POP SWAP2 SWAP1 POP JUMP JUMPDEST PUSH1 0x0 PUSH1 0x20 DUP3 ADD SWAP1 POP DUP2 DUP2 SUB PUSH1 0x0 DUP4 ADD MSTORE PUSH2 0x289D DUP2 PUSH2 0x26E7 JUMP JUMPDEST SWAP1 POP SWAP2 SWAP1 POP JUMP JUMPDEST PUSH1 0x0 PUSH1 0x20 DUP3 ADD SWAP1 POP DUP2 DUP2 SUB PUSH1 0x0 DUP4 ADD MSTORE PUSH2 0x28BD DUP2 PUSH2 0x270A JUMP JUMPDEST SWAP1 POP SWAP2 SWAP1 POP JUMP JUMPDEST PUSH1 0x0 PUSH1 0x20 DUP3 ADD SWAP1 POP PUSH2 0x28D9 PUSH1 0x0 DUP4 ADD DUP5 PUSH2 0x272D JUMP JUMPDEST SWAP3 SWAP2 POP POP JUMP JUMPDEST PUSH1 0x0 PUSH1 0x40 DUP3 ADD SWAP1 POP PUSH2 0x28F4 PUSH1 0x0 DUP4 ADD DUP6 PUSH2 0x272D JUMP JUMPDEST PUSH2 0x2901 PUSH1 0x20 DUP4 ADD DUP5 PUSH2 0x272D JUMP JUMPDEST SWAP4 SWAP3 POP POP POP JUMP JUMPDEST PUSH1 0x0 PUSH2 0x2912 PUSH2 0x2923 JUMP JUMPDEST SWAP1 POP PUSH2 0x291E DUP3 DUP3 PUSH2 0x2B67 JUMP JUMPDEST SWAP2 SWAP1 POP JUMP JUMPDEST PUSH1 0x0 PUSH1 0x40 MLOAD SWAP1 POP SWAP1 JUMP JUMPDEST PUSH1 0x0 PUSH8 0xFFFFFFFFFFFFFFFF DUP3 GT ISZERO PUSH2 0x2948 JUMPI PUSH2 0x2947 PUSH2 0x2C3F JUMP JUMPDEST JUMPDEST PUSH2 0x2951 DUP3 PUSH2 0x2C82 JUMP JUMPDEST SWAP1 POP PUSH1 0x20 DUP2 ADD SWAP1 POP SWAP2 SWAP1 POP JUMP JUMPDEST PUSH1 0x0 DUP2 MLOAD SWAP1 POP SWAP2 SWAP1 POP JUMP JUMPDEST PUSH1 0x0 DUP3 DUP3 MSTORE PUSH1 0x20 DUP3 ADD SWAP1 POP SWAP3 SWAP2 POP POP JUMP JUMPDEST PUSH1 0x0 DUP2 SWAP1 POP SWAP3 SWAP2 POP POP JUMP JUMPDEST PUSH1 0x0 PUSH2 0x2990 DUP3 PUSH2 0x2AE5 JUMP JUMPDEST SWAP2 POP PUSH2 0x299B DUP4 PUSH2 0x2AE5 JUMP JUMPDEST SWAP3 POP DUP3 PUSH32 0xFFFFFFFFFFFFFFFFFFFFFFFFFFFFFFFFFFFFFFFFFFFFFFFFFFFFFFFFFFFFFFFF SUB DUP3 GT ISZERO PUSH2 0x29D0 JUMPI PUSH2 0x29CF PUSH2 0x2BE1 JUMP JUMPDEST JUMPDEST DUP3 DUP3 ADD SWAP1 POP SWAP3 SWAP2 POP POP JUMP JUMPDEST PUSH1 0x0 PUSH2 0x29E6 DUP3 PUSH2 0x2AE5 JUMP JUMPDEST SWAP2 POP PUSH2 0x29F1 DUP4 PUSH2 0x2AE5 JUMP JUMPDEST SWAP3 POP DUP3 PUSH2 0x2A01 JUMPI PUSH2 0x2A00 PUSH2 0x2C10 JUMP JUMPDEST JUMPDEST DUP3 DUP3 DIV SWAP1 POP SWAP3 SWAP2 POP POP JUMP JUMPDEST PUSH1 0x0 PUSH2 0x2A17 DUP3 PUSH2 0x2AE5 JUMP JUMPDEST SWAP2 POP PUSH2 0x2A22 DUP4 PUSH2 0x2AE5 JUMP JUMPDEST SWAP3 POP DUP2 PUSH32 0xFFFFFFFFFFFFFFFFFFFFFFFFFFFFFFFFFFFFFFFFFFFFFFFFFFFFFFFFFFFFFFFF DIV DUP4 GT DUP3 ISZERO ISZERO AND ISZERO PUSH2 0x2A5B JUMPI PUSH2 0x2A5A PUSH2 0x2BE1 JUMP JUMPDEST JUMPDEST DUP3 DUP3 MUL SWAP1 POP SWAP3 SWAP2 POP POP JUMP JUMPDEST PUSH1 0x0 PUSH2 0x2A71 DUP3 PUSH2 0x2AE5 JUMP JUMPDEST SWAP2 POP PUSH2 0x2A7C DUP4 PUSH2 0x2AE5 JUMP JUMPDEST SWAP3 POP DUP3 DUP3 LT ISZERO PUSH2 0x2A8F JUMPI PUSH2 0x2A8E PUSH2 0x2BE1 JUMP JUMPDEST JUMPDEST DUP3 DUP3 SUB SWAP1 POP SWAP3 SWAP2 POP POP JUMP JUMPDEST PUSH1 0x0 PUSH2 0x2AA5 DUP3 PUSH2 0x2AC5 JUMP JUMPDEST SWAP1 POP SWAP2 SWAP1 POP JUMP JUMPDEST PUSH1 0x0 DUP2 ISZERO ISZERO SWAP1 POP SWAP2 SWAP1 POP JUMP JUMPDEST PUSH1 0x0 DUP2 PUSH1 0xF SIGNEXTEND SWAP1 POP SWAP2 SWAP1 POP JUMP JUMPDEST PUSH1 0x0 PUSH20 0xFFFFFFFFFFFFFFFFFFFFFFFFFFFFFFFFFFFFFFFF DUP3 AND SWAP1 POP SWAP2 SWAP1 POP JUMP JUMPDEST PUSH1 0x0 DUP2 SWAP1 POP SWAP2 SWAP1 POP JUMP JUMPDEST PUSH1 0x0 PUSH2 0x2AFA DUP3 PUSH2 0x2B01 JUMP JUMPDEST SWAP1 POP SWAP2 SWAP1 POP JUMP JUMPDEST PUSH1 0x0 PUSH2 0x2B0C DUP3 PUSH2 0x2B13 JUMP JUMPDEST SWAP1 POP SWAP2 SWAP1 POP JUMP JUMPDEST PUSH1 0x0 PUSH2 0x2B1E DUP3 PUSH2 0x2AC5 JUMP JUMPDEST SWAP1 POP SWAP2 SWAP1 POP JUMP JUMPDEST DUP3 DUP2 DUP4 CALLDATACOPY PUSH1 0x0 DUP4 DUP4 ADD MSTORE POP POP POP JUMP JUMPDEST PUSH1 0x0 JUMPDEST DUP4 DUP2 LT ISZERO PUSH2 0x2B52 JUMPI DUP1 DUP3 ADD MLOAD DUP2 DUP5 ADD MSTORE PUSH1 0x20 DUP2 ADD SWAP1 POP PUSH2 0x2B37 JUMP JUMPDEST DUP4 DUP2 GT ISZERO PUSH2 0x2B61 JUMPI PUSH1 0x0 DUP5 DUP5 ADD MSTORE JUMPDEST POP POP POP POP JUMP JUMPDEST PUSH2 0x2B70 DUP3 PUSH2 0x2C82 JUMP JUMPDEST DUP2 ADD DUP2 DUP2 LT PUSH8 0xFFFFFFFFFFFFFFFF DUP3 GT OR ISZERO PUSH2 0x2B8F JUMPI PUSH2 0x2B8E PUSH2 0x2C3F JUMP JUMPDEST JUMPDEST DUP1 PUSH1 0x40 MSTORE POP POP POP JUMP JUMPDEST PUSH1 0x0 PUSH2 0x2BA3 DUP3 PUSH2 0x2AE5 JUMP JUMPDEST SWAP2 POP PUSH32 0xFFFFFFFFFFFFFFFFFFFFFFFFFFFFFFFFFFFFFFFFFFFFFFFFFFFFFFFFFFFFFFFF DUP3 EQ ISZERO PUSH2 0x2BD6 JUMPI PUSH2 0x2BD5 PUSH2 0x2BE1 JUMP JUMPDEST JUMPDEST PUSH1 0x1 DUP3 ADD SWAP1 POP SWAP2 SWAP1 POP JUMP JUMPDEST PUSH32 0x4E487B7100000000000000000000000000000000000000000000000000000000 PUSH1 0x0 MSTORE PUSH1 0x11 PUSH1 0x4 MSTORE PUSH1 0x24 PUSH1 0x0 REVERT JUMPDEST PUSH32 0x4E487B7100000000000000000000000000000000000000000000000000000000 PUSH1 0x0 MSTORE PUSH1 0x12 PUSH1 0x4 MSTORE PUSH1 0x24 PUSH1 0x0 REVERT JUMPDEST PUSH32 0x4E487B7100000000000000000000000000000000000000000000000000000000 PUSH1 0x0 MSTORE PUSH1 0x41 PUSH1 0x4 MSTORE PUSH1 0x24 PUSH1 0x0 REVERT JUMPDEST PUSH1 0x0 DUP1 REVERT JUMPDEST PUSH1 0x0 DUP1 REVERT JUMPDEST PUSH1 0x0 DUP1 REVERT JUMPDEST PUSH1 0x0 DUP1 REVERT JUMPDEST PUSH1 0x0 PUSH1 0x1F NOT PUSH1 0x1F DUP4 ADD AND SWAP1 POP SWAP2 SWAP1 POP JUMP JUMPDEST PUSH32 0x596F7520646F6E7420686176652074686174206D75636820746F207769746864 PUSH1 0x0 DUP3 ADD MSTORE PUSH32 0x7261772100000000000000000000000000000000000000000000000000000000 PUSH1 0x20 DUP3 ADD MSTORE POP JUMP JUMPDEST PUSH32 0x546F6B656E207472616E73666572206661696C65640000000000000000000000 PUSH1 0x0 DUP3 ADD MSTORE POP JUMP JUMPDEST PUSH32 0x596F7520646F6E742068617665207468617420616D6F756E7421000000000000 PUSH1 0x0 DUP3 ADD MSTORE POP JUMP JUMPDEST PUSH32 0x506572207472616E73616374696F6E206C696D69740000000000000000000000 PUSH1 0x0 DUP3 ADD MSTORE POP JUMP JUMPDEST PUSH32 0x4E6F7420756E6C6F636B65640000000000000000000000000000000000000000 PUSH1 0x0 DUP3 ADD MSTORE POP JUMP JUMPDEST PUSH32 0x75696E74206F766572666C6F772066726F6D206D756C7469706C69636174696F PUSH1 0x0 DUP3 ADD MSTORE PUSH32 0x6E00000000000000000000000000000000000000000000000000000000000000 PUSH1 0x20 DUP3 ADD MSTORE POP JUMP JUMPDEST PUSH2 0x2DDE DUP2 PUSH2 0x2A9A JUMP JUMPDEST DUP2 EQ PUSH2 0x2DE9 JUMPI PUSH1 0x0 DUP1 REVERT JUMPDEST POP JUMP JUMPDEST PUSH2 0x2DF5 DUP2 PUSH2 0x2AAC JUMP JUMPDEST DUP2 EQ PUSH2 0x2E00 JUMPI PUSH1 0x0 DUP1 REVERT JUMPDEST POP JUMP JUMPDEST PUSH2 0x2E0C DUP2 PUSH2 0x2AE5 JUMP JUMPDEST DUP2 EQ PUSH2 0x2E17 JUMPI PUSH1 0x0 DUP1 REVERT JUMPDEST POP JUMP INVALID LOG2 PUSH5 0x6970667358 0x22 SLT KECCAK256 0xD 0xFC DUP11 PUSH23 0xF5E9F90BEBE004BD2C705773D460D550AEF9ECA7A7AB8 SLT 0x49 SWAP4 PUSH26 0x1B64736F6C634300080700330000000000000000000000000000 "
				},
				"gasEstimates": {
					"creation": {
						"codeDepositCost": "2371200",
						"executionCost": "infinite",
						"totalCost": "infinite"
					},
					"external": {
						"BTON()": "2645",
						"SPTR()": "2646",
						"WAND()": "2711",
						"addStable(string,address,uint256)": "infinite",
						"buyScepter(uint256,string)": "infinite",
						"cashOutScepter(uint256,uint256,string)": "infinite",
						"circulatingSupplyXDays(uint256)": "infinite",
						"claimLockedUSDC(address,string)": "infinite",
						"daysInCalculation()": "2540",
						"decDiv18(uint256,uint256)": "infinite",
						"decMul18(uint256,uint256)": "infinite",
						"devWalletAddr()": "2582",
						"getBackingPrice()": "infinite",
						"getBuyPrice()": "infinite",
						"getCircSupplyXDays()": "442",
						"getGrowthFactor()": "infinite",
						"getSellFactor()": "infinite",
						"getSellPrice()": "infinite",
						"getTokensBoughtXDays()": "infinite",
						"getTokensSoldXDays()": "infinite",
						"growthFactor()": "2495",
						"res()": "2543",
						"riskTreasuryAddr()": "2583",
						"scepterTreasuryAddr()": "2647",
						"sellFactor()": "2518",
						"setDaysUsedInFactors(uint256)": "infinite",
						"stableERC20Info(string)": "infinite",
						"tSC()": "2646",
						"testUpdatetimeLockedminus(uint256)": "infinite",
						"testUpdatetimeLockedplus(uint256)": "infinite",
						"testwallet()": "2602",
						"timeLaunched()": "2474",
						"tokenStable()": "2690",
						"tokensBoughtXDays(uint256)": "infinite",
						"tokensSoldXDays(uint256)": "infinite",
						"transformScepterToBaton(uint256)": "infinite",
						"treasury1Addr()": "2646",
						"treasury1bal()": "2541",
						"whitelist(address)": "522",
						"withdrawStables(uint256)": "540",
						"withheldWithdrawals(address)": "infinite"
					},
					"internal": {
						"_safeTransferFrom(contract IERC20,address,address,uint256)": "infinite",
						"add(uint256,uint256)": "infinite",
						"div(uint256,uint256)": "infinite",
						"mintBaton(uint256)": "infinite",
						"mul(uint256,uint256)": "infinite",
						"sub(uint256,uint256)": "infinite"
					}
				},
				"methodIdentifiers": {
					"BTON()": "c0ca6fb4",
					"SPTR()": "26ae486e",
					"WAND()": "d04d7908",
					"addStable(string,address,uint256)": "e5d98082",
					"buyScepter(uint256,string)": "862d1b35",
					"cashOutScepter(uint256,uint256,string)": "c0ce5889",
					"circulatingSupplyXDays(uint256)": "1a30e872",
					"claimLockedUSDC(address,string)": "bdad7f02",
					"daysInCalculation()": "67b48c91",
					"decDiv18(uint256,uint256)": "64ce07d8",
					"decMul18(uint256,uint256)": "f7523c52",
					"devWalletAddr()": "29982a32",
					"getBackingPrice()": "1f564a06",
					"getBuyPrice()": "018a25e8",
					"getCircSupplyXDays()": "0f65de3e",
					"getGrowthFactor()": "93f7b711",
					"getSellFactor()": "0ccaf04f",
					"getSellPrice()": "43d32e9c",
					"getTokensBoughtXDays()": "71cd58f9",
					"getTokensSoldXDays()": "d82eddf2",
					"growthFactor()": "ee620868",
					"res()": "6f10e285",
					"riskTreasuryAddr()": "047729b0",
					"scepterTreasuryAddr()": "c079d7f6",
					"sellFactor()": "cbff4617",
					"setDaysUsedInFactors(uint256)": "fc361443",
					"stableERC20Info(string)": "a475bf48",
					"tSC()": "6e05c1b9",
					"testUpdatetimeLockedminus(uint256)": "164c8501",
					"testUpdatetimeLockedplus(uint256)": "67e927a8",
					"testwallet()": "eee05f5e",
					"timeLaunched()": "3c6eb17a",
					"tokenStable()": "7087a7a5",
					"tokensBoughtXDays(uint256)": "2a9f0fb1",
					"tokensSoldXDays(uint256)": "1514c976",
					"transformScepterToBaton(uint256)": "1bc9cc45",
					"treasury1Addr()": "fbbb4589",
					"treasury1bal()": "35453307",
					"whitelist(address)": "9b19251a",
					"withdrawStables(uint256)": "39ad95d6",
					"withheldWithdrawals(address)": "12b2ed94"
				}
			},
			"storageLayout": {
				"storage": [
					{
						"astId": 87,
						"contract": "WandInstruments.sol:testSticks",
						"label": "growthFactor",
						"offset": 0,
						"slot": "0",
						"type": "t_uint256"
					},
					{
						"astId": 89,
						"contract": "WandInstruments.sol:testSticks",
						"label": "sellFactor",
						"offset": 0,
						"slot": "1",
						"type": "t_uint256"
					},
					{
						"astId": 91,
						"contract": "WandInstruments.sol:testSticks",
						"label": "backingPrice",
						"offset": 0,
						"slot": "2",
						"type": "t_uint256"
					},
					{
						"astId": 93,
						"contract": "WandInstruments.sol:testSticks",
						"label": "scepterBuyPrice",
						"offset": 0,
						"slot": "3",
						"type": "t_uint256"
					},
					{
						"astId": 95,
						"contract": "WandInstruments.sol:testSticks",
						"label": "scepterSellPrice",
						"offset": 0,
						"slot": "4",
						"type": "t_uint256"
					},
					{
						"astId": 97,
						"contract": "WandInstruments.sol:testSticks",
						"label": "treasuryUSDC",
						"offset": 0,
						"slot": "5",
						"type": "t_uint256"
					},
					{
						"astId": 99,
						"contract": "WandInstruments.sol:testSticks",
						"label": "treasury1Addr",
						"offset": 0,
						"slot": "6",
						"type": "t_address"
					},
					{
						"astId": 101,
						"contract": "WandInstruments.sol:testSticks",
						"label": "scepterTreasuryAddr",
						"offset": 0,
						"slot": "7",
						"type": "t_address"
					},
					{
						"astId": 103,
						"contract": "WandInstruments.sol:testSticks",
						"label": "riskTreasuryAddr",
						"offset": 0,
						"slot": "8",
						"type": "t_address"
					},
					{
						"astId": 105,
						"contract": "WandInstruments.sol:testSticks",
						"label": "devWalletAddr",
						"offset": 0,
						"slot": "9",
						"type": "t_address"
					},
					{
						"astId": 111,
						"contract": "WandInstruments.sol:testSticks",
						"label": "treasury1bal",
						"offset": 0,
						"slot": "10",
						"type": "t_uint256"
					},
					{
						"astId": 113,
						"contract": "WandInstruments.sol:testSticks",
						"label": "timeLaunched",
						"offset": 0,
						"slot": "11",
						"type": "t_uint256"
					},
					{
						"astId": 115,
						"contract": "WandInstruments.sol:testSticks",
						"label": "daysInCalculation",
						"offset": 0,
						"slot": "12",
						"type": "t_uint256"
					},
					{
						"astId": 118,
						"contract": "WandInstruments.sol:testSticks",
						"label": "ft5daybought",
						"offset": 0,
						"slot": "13",
						"type": "t_uint256"
					},
					{
						"astId": 121,
						"contract": "WandInstruments.sol:testSticks",
						"label": "ft5daysold",
						"offset": 0,
						"slot": "14",
						"type": "t_uint256"
					},
					{
						"astId": 124,
						"contract": "WandInstruments.sol:testSticks",
						"label": "double5daytokens",
						"offset": 0,
						"slot": "15",
						"type": "t_uint256"
					},
					{
						"astId": 126,
						"contract": "WandInstruments.sol:testSticks",
						"label": "res",
						"offset": 0,
						"slot": "16",
						"type": "t_int128"
					},
					{
						"astId": 129,
						"contract": "WandInstruments.sol:testSticks",
						"label": "testwallet",
						"offset": 0,
						"slot": "17",
						"type": "t_address"
					},
					{
						"astId": 132,
						"contract": "WandInstruments.sol:testSticks",
						"label": "tSC",
						"offset": 0,
						"slot": "18",
						"type": "t_contract(IERC20)77"
					},
					{
						"astId": 135,
						"contract": "WandInstruments.sol:testSticks",
						"label": "SPTR",
						"offset": 0,
						"slot": "19",
						"type": "t_contract(IERC20)77"
					},
					{
						"astId": 138,
						"contract": "WandInstruments.sol:testSticks",
						"label": "WAND",
						"offset": 0,
						"slot": "20",
						"type": "t_contract(IERC20)77"
					},
					{
						"astId": 141,
						"contract": "WandInstruments.sol:testSticks",
						"label": "BTON",
						"offset": 0,
						"slot": "21",
						"type": "t_contract(IERC20)77"
					},
					{
						"astId": 144,
						"contract": "WandInstruments.sol:testSticks",
						"label": "tokenStable",
						"offset": 0,
						"slot": "22",
						"type": "t_contract(IERC20)77"
					},
					{
						"astId": 148,
						"contract": "WandInstruments.sol:testSticks",
						"label": "tokensBoughtXDays",
						"offset": 0,
						"slot": "23",
						"type": "t_mapping(t_uint256,t_uint256)"
					},
					{
						"astId": 152,
						"contract": "WandInstruments.sol:testSticks",
						"label": "tokensSoldXDays",
						"offset": 0,
						"slot": "24",
						"type": "t_mapping(t_uint256,t_uint256)"
					},
					{
						"astId": 156,
						"contract": "WandInstruments.sol:testSticks",
						"label": "circulatingSupplyXDays",
						"offset": 0,
						"slot": "25",
						"type": "t_mapping(t_uint256,t_uint256)"
					},
					{
						"astId": 166,
						"contract": "WandInstruments.sol:testSticks",
						"label": "stableERC20Info",
						"offset": 0,
						"slot": "26",
						"type": "t_mapping(t_string_memory_ptr,t_struct(stableTokensParams)161_storage)"
					},
					{
						"astId": 176,
						"contract": "WandInstruments.sol:testSticks",
						"label": "withheldWithdrawals",
						"offset": 0,
						"slot": "27",
						"type": "t_mapping(t_address,t_struct(lockedamounts)171_storage)"
					},
					{
						"astId": 179,
						"contract": "WandInstruments.sol:testSticks",
						"label": "sptr",
						"offset": 0,
						"slot": "28",
						"type": "t_contract(Scepter)1240"
					},
					{
						"astId": 182,
						"contract": "WandInstruments.sol:testSticks",
						"label": "btn",
						"offset": 0,
						"slot": "29",
						"type": "t_contract(Baton)1248"
					}
				],
				"types": {
					"t_address": {
						"encoding": "inplace",
						"label": "address",
						"numberOfBytes": "20"
					},
					"t_contract(Baton)1248": {
						"encoding": "inplace",
						"label": "contract Baton",
						"numberOfBytes": "20"
					},
					"t_contract(IERC20)77": {
						"encoding": "inplace",
						"label": "contract IERC20",
						"numberOfBytes": "20"
					},
					"t_contract(Scepter)1240": {
						"encoding": "inplace",
						"label": "contract Scepter",
						"numberOfBytes": "20"
					},
					"t_int128": {
						"encoding": "inplace",
						"label": "int128",
						"numberOfBytes": "16"
					},
					"t_mapping(t_address,t_struct(lockedamounts)171_storage)": {
						"encoding": "mapping",
						"key": "t_address",
						"label": "mapping(address => struct testSticks.lockedamounts)",
						"numberOfBytes": "32",
						"value": "t_struct(lockedamounts)171_storage"
					},
					"t_mapping(t_string_memory_ptr,t_struct(stableTokensParams)161_storage)": {
						"encoding": "mapping",
						"key": "t_string_memory_ptr",
						"label": "mapping(string => struct testSticks.stableTokensParams)",
						"numberOfBytes": "32",
						"value": "t_struct(stableTokensParams)161_storage"
					},
					"t_mapping(t_uint256,t_uint256)": {
						"encoding": "mapping",
						"key": "t_uint256",
						"label": "mapping(uint256 => uint256)",
						"numberOfBytes": "32",
						"value": "t_uint256"
					},
					"t_string_memory_ptr": {
						"encoding": "bytes",
						"label": "string",
						"numberOfBytes": "32"
					},
					"t_struct(lockedamounts)171_storage": {
						"encoding": "inplace",
						"label": "struct testSticks.lockedamounts",
						"members": [
							{
								"astId": 168,
								"contract": "WandInstruments.sol:testSticks",
								"label": "timeUnlocked",
								"offset": 0,
								"slot": "0",
								"type": "t_uint256"
							},
							{
								"astId": 170,
								"contract": "WandInstruments.sol:testSticks",
								"label": "amounts",
								"offset": 0,
								"slot": "1",
								"type": "t_uint256"
							}
						],
						"numberOfBytes": "64"
					},
					"t_struct(stableTokensParams)161_storage": {
						"encoding": "inplace",
						"label": "struct testSticks.stableTokensParams",
						"members": [
							{
								"astId": 158,
								"contract": "WandInstruments.sol:testSticks",
								"label": "contractAddress",
								"offset": 0,
								"slot": "0",
								"type": "t_address"
							},
							{
								"astId": 160,
								"contract": "WandInstruments.sol:testSticks",
								"label": "tokenDecimals",
								"offset": 0,
								"slot": "1",
								"type": "t_uint256"
							}
						],
						"numberOfBytes": "64"
					},
					"t_uint256": {
						"encoding": "inplace",
						"label": "uint256",
						"numberOfBytes": "32"
					}
				}
			},
			"userdoc": {
				"events": {
					"sceptersBought(address,uint256)": {
						"notice": "Events*"
					}
				},
				"kind": "user",
				"methods": {},
				"version": 1
			}
		}
	}
}