{
	"WandInstruments.sol": {
		"WandInstruments": {
			"abi": [
				{
					"inputs": [
						{
							"internalType": "address",
							"name": "scepterAddr",
							"type": "address"
						},
						{
							"internalType": "address",
							"name": "batonAddr",
							"type": "address"
						}
					],
					"stateMutability": "nonpayable",
					"type": "constructor"
				},
				{
					"inputs": [
						{
							"internalType": "uint256",
							"name": "amountSCPtoBuy",
							"type": "uint256"
						}
					],
					"name": "buyScepter",
					"outputs": [],
					"stateMutability": "payable",
					"type": "function"
				},
				{
					"inputs": [
						{
							"internalType": "int256",
							"name": "a",
							"type": "int256"
						},
						{
							"internalType": "int256",
							"name": "b",
							"type": "int256"
						}
					],
					"name": "floorDiv",
					"outputs": [
						{
							"internalType": "int256",
							"name": "",
							"type": "int256"
						}
					],
					"stateMutability": "nonpayable",
					"type": "function"
				},
				{
					"inputs": [],
					"name": "getBackingPrice",
					"outputs": [
						{
							"internalType": "uint256",
							"name": "",
							"type": "uint256"
						}
					],
					"stateMutability": "view",
					"type": "function"
				},
				{
					"inputs": [],
					"name": "getBuyPrice",
					"outputs": [
						{
							"internalType": "uint256",
							"name": "",
							"type": "uint256"
						}
					],
					"stateMutability": "view",
					"type": "function"
				},
				{
					"inputs": [],
					"name": "getSellPrice",
					"outputs": [
						{
							"internalType": "uint256",
							"name": "",
							"type": "uint256"
						}
					],
					"stateMutability": "view",
					"type": "function"
				},
				{
					"inputs": [],
					"name": "growthFactor",
					"outputs": [
						{
							"internalType": "uint256",
							"name": "",
							"type": "uint256"
						}
					],
					"stateMutability": "view",
					"type": "function"
				},
				{
					"inputs": [
						{
							"internalType": "uint256",
							"name": "amount",
							"type": "uint256"
						}
					],
					"name": "mintBaton",
					"outputs": [],
					"stateMutability": "nonpayable",
					"type": "function"
				},
				{
					"inputs": [],
					"name": "mockUSDC",
					"outputs": [
						{
							"internalType": "contract IERC20",
							"name": "",
							"type": "address"
						}
					],
					"stateMutability": "view",
					"type": "function"
				},
				{
					"inputs": [
						{
							"internalType": "address",
							"name": "_tokenAddress",
							"type": "address"
						},
						{
							"internalType": "address",
							"name": "_addressToQuery",
							"type": "address"
						}
					],
					"name": "queryERC20Balance",
					"outputs": [
						{
							"internalType": "uint256",
							"name": "",
							"type": "uint256"
						}
					],
					"stateMutability": "view",
					"type": "function"
				},
				{
					"inputs": [],
					"name": "res",
					"outputs": [
						{
							"internalType": "int128",
							"name": "",
							"type": "int128"
						}
					],
					"stateMutability": "view",
					"type": "function"
				},
				{
					"inputs": [],
					"name": "sellFactor",
					"outputs": [
						{
							"internalType": "uint256",
							"name": "",
							"type": "uint256"
						}
					],
					"stateMutability": "view",
					"type": "function"
				},
				{
					"inputs": [
						{
							"internalType": "uint256",
							"name": "amountSCPtoSell",
							"type": "uint256"
						}
					],
					"name": "sellScepter",
					"outputs": [],
					"stateMutability": "payable",
					"type": "function"
				},
				{
					"inputs": [],
					"name": "tSC",
					"outputs": [
						{
							"internalType": "contract IERC20",
							"name": "",
							"type": "address"
						}
					],
					"stateMutability": "view",
					"type": "function"
				},
				{
					"inputs": [],
					"name": "testwallet",
					"outputs": [
						{
							"internalType": "address",
							"name": "",
							"type": "address"
						}
					],
					"stateMutability": "view",
					"type": "function"
				},
				{
					"inputs": [],
					"name": "treasury1Addr",
					"outputs": [
						{
							"internalType": "address",
							"name": "",
							"type": "address"
						}
					],
					"stateMutability": "view",
					"type": "function"
				},
				{
					"inputs": [],
					"name": "treasury1bal",
					"outputs": [
						{
							"internalType": "uint256",
							"name": "",
							"type": "uint256"
						}
					],
					"stateMutability": "view",
					"type": "function"
				},
				{
					"inputs": [],
					"name": "treasury2Addr",
					"outputs": [
						{
							"internalType": "address",
							"name": "",
							"type": "address"
						}
					],
					"stateMutability": "view",
					"type": "function"
				}
			],
			"devdoc": {
				"kind": "dev",
				"methods": {},
				"version": 1
			},
			"evm": {
				"assembly": "    /* \"WandInstruments.sol\":2709:7547  contract WandInstruments {\r... */\n  mstore(0x40, 0x80)\n    /* \"WandInstruments.sol\":3258:3273  500000*(10**18) */\n  0x69e10de76676d0800000\n    /* \"WandInstruments.sol\":3228:3273  uint256 public treasury1bal = 500000*(10**18) */\n  0x08\n  sstore\n    /* \"WandInstruments.sol\":3328:3334  100000 */\n  0x0186a0\n    /* \"WandInstruments.sol\":3297:3334  uint256 private ft5daybought = 100000 */\n  0x09\n  sstore\n    /* \"WandInstruments.sol\":3370:3375  90000 */\n  0x015f90\n    /* \"WandInstruments.sol\":3341:3375  uint256 private ft5daysold = 90000 */\n  0x0a\n  sstore\n    /* \"WandInstruments.sol\":3417:3423  600000 */\n  0x0927c0\n    /* \"WandInstruments.sol\":3382:3423  uint256 private double5daytokens = 600000 */\n  0x0b\n  sstore\n    /* \"WandInstruments.sol\":3450:3451  9 */\n  0x09\n    /* \"WandInstruments.sol\":3430:3451  uint256 private a = 9 */\n  0x0c\n  sstore\n    /* \"WandInstruments.sol\":3479:3481  10 */\n  0x0a\n    /* \"WandInstruments.sol\":3458:3481  uint256 private bc = 10 */\n  0x0d\n  sstore\n    /* \"WandInstruments.sol\":3540:3582  0x617F2E2fD72FD9D5503197092aC168c91465E7f2 */\n  0x617f2e2fd72fd9d5503197092ac168c91465e7f2\n    /* \"WandInstruments.sol\":3512:3582  address public testwallet = 0x617F2E2fD72FD9D5503197092aC168c91465E7f2 */\n  0x0f\n  exp(0x0100, 0x00)\n  dup2\n  sload\n  dup2\n  0xffffffffffffffffffffffffffffffffffffffff\n  mul\n  not\n  and\n  swap1\n  dup4\n  0xffffffffffffffffffffffffffffffffffffffff\n  and\n  mul\n  or\n  swap1\n  sstore\n  pop\n    /* \"WandInstruments.sol\":3813:4380  constructor(address scepterAddr, address batonAddr) {   \r... */\n  callvalue\n  dup1\n  iszero\n  tag_1\n  jumpi\n  0x00\n  dup1\n  revert\ntag_1:\n  pop\n  mload(0x40)\n  sub(codesize, bytecodeSize)\n  dup1\n  bytecodeSize\n  dup4\n  codecopy\n  dup2\n  dup2\n  add\n  0x40\n  mstore\n  dup2\n  add\n  swap1\n  tag_2\n  swap2\n  swap1\n  tag_3\n  jump\t// in\ntag_2:\n    /* \"WandInstruments.sol\":3928:3937  batonAddr */\n  dup1\n    /* \"WandInstruments.sol\":3918:3919  b */\n  0x12\n  0x00\n    /* \"WandInstruments.sol\":3918:3938  b = Baton(batonAddr) */\n  0x0100\n  exp\n  dup2\n  sload\n  dup2\n  0xffffffffffffffffffffffffffffffffffffffff\n  mul\n  not\n  and\n  swap1\n  dup4\n  0xffffffffffffffffffffffffffffffffffffffff\n  and\n  mul\n  or\n  swap1\n  sstore\n  pop\n    /* \"WandInstruments.sol\":3965:3976  scepterAddr */\n  dup2\n    /* \"WandInstruments.sol\":3952:3955  tSC */\n  0x10\n  0x00\n    /* \"WandInstruments.sol\":3952:3977  tSC = IERC20(scepterAddr) */\n  0x0100\n  exp\n  dup2\n  sload\n  dup2\n  0xffffffffffffffffffffffffffffffffffffffff\n  mul\n  not\n  and\n  swap1\n  dup4\n  0xffffffffffffffffffffffffffffffffffffffff\n  and\n  mul\n  or\n  swap1\n  sstore\n  pop\n    /* \"WandInstruments.sol\":4007:4049  0xD7ACd2a9FD159E69Bb102A1ca21C9a3e3A5F771B */\n  0xd7acd2a9fd159e69bb102a1ca21c9a3e3a5f771b\n    /* \"WandInstruments.sol\":3989:3997  mockUSDC */\n  0x11\n  0x00\n    /* \"WandInstruments.sol\":3989:4050  mockUSDC = IERC20(0xD7ACd2a9FD159E69Bb102A1ca21C9a3e3A5F771B) */\n  0x0100\n  exp\n  dup2\n  sload\n  dup2\n  0xffffffffffffffffffffffffffffffffffffffff\n  mul\n  not\n  and\n  swap1\n  dup4\n  0xffffffffffffffffffffffffffffffffffffffff\n  and\n  mul\n  or\n  swap1\n  sstore\n  pop\n    /* \"WandInstruments.sol\":4077:4119  0x617F2E2fD72FD9D5503197092aC168c91465E7f2 */\n  0x617f2e2fd72fd9d5503197092ac168c91465e7f2\n    /* \"WandInstruments.sol\":4061:4074  treasury1Addr */\n  0x06\n  0x00\n    /* \"WandInstruments.sol\":4061:4119  treasury1Addr = 0x617F2E2fD72FD9D5503197092aC168c91465E7f2 */\n  0x0100\n  exp\n  dup2\n  sload\n  dup2\n  0xffffffffffffffffffffffffffffffffffffffff\n  mul\n  not\n  and\n  swap1\n  dup4\n  0xffffffffffffffffffffffffffffffffffffffff\n  and\n  mul\n  or\n  swap1\n  sstore\n  pop\n    /* \"WandInstruments.sol\":4227:4233  10**18 */\n  0x0de0b6b3a7640000\n    /* \"WandInstruments.sol\":4206:4222  double5daytokens */\n  sload(0x0b)\n    /* \"WandInstruments.sol\":4193:4205  ft5daybought */\n  sload(0x09)\n    /* \"WandInstruments.sol\":4193:4222  ft5daybought/double5daytokens */\n  tag_6\n  swap2\n  swap1\n  tag_7\n  jump\t// in\ntag_6:\n    /* \"WandInstruments.sol\":4192:4234  (ft5daybought/double5daytokens) * (10**18) */\n  tag_8\n  swap2\n  swap1\n  tag_9\n  jump\t// in\ntag_8:\n    /* \"WandInstruments.sol\":4179:4191  growthFactor */\n  0x00\n    /* \"WandInstruments.sol\":4179:4234  growthFactor=(ft5daybought/double5daytokens) * (10**18) */\n  dup2\n  swap1\n  sstore\n  pop\n    /* \"WandInstruments.sol\":4349:4355  10**18 */\n  0x0de0b6b3a7640000\n    /* \"WandInstruments.sol\":4330:4346  double5daytokens */\n  sload(0x0b)\n    /* \"WandInstruments.sol\":4319:4329  ft5daysold */\n  sload(0x0a)\n    /* \"WandInstruments.sol\":4319:4346  ft5daysold/double5daytokens */\n  tag_10\n  swap2\n  swap1\n  tag_7\n  jump\t// in\ntag_10:\n    /* \"WandInstruments.sol\":4319:4356  ft5daysold/double5daytokens* (10**18) */\n  tag_11\n  swap2\n  swap1\n  tag_9\n  jump\t// in\ntag_11:\n    /* \"WandInstruments.sol\":4308:4318  sellFactor */\n  0x01\n    /* \"WandInstruments.sol\":4308:4356  sellFactor=ft5daysold/double5daytokens* (10**18) */\n  dup2\n  swap1\n  sstore\n  pop\n    /* \"WandInstruments.sol\":3813:4380  constructor(address scepterAddr, address batonAddr) {   \r... */\n  pop\n  pop\n    /* \"WandInstruments.sol\":2709:7547  contract WandInstruments {\r... */\n  jump(tag_12)\n    /* \"#utility.yul\":7:150   */\ntag_14:\n    /* \"#utility.yul\":64:69   */\n  0x00\n    /* \"#utility.yul\":95:101   */\n  dup2\n    /* \"#utility.yul\":89:102   */\n  mload\n    /* \"#utility.yul\":80:102   */\n  swap1\n  pop\n    /* \"#utility.yul\":111:144   */\n  tag_16\n    /* \"#utility.yul\":138:143   */\n  dup2\n    /* \"#utility.yul\":111:144   */\n  tag_17\n  jump\t// in\ntag_16:\n    /* \"#utility.yul\":7:150   */\n  swap3\n  swap2\n  pop\n  pop\n  jump\t// out\n    /* \"#utility.yul\":156:663   */\ntag_3:\n    /* \"#utility.yul\":235:241   */\n  0x00\n    /* \"#utility.yul\":243:249   */\n  dup1\n    /* \"#utility.yul\":292:294   */\n  0x40\n    /* \"#utility.yul\":280:289   */\n  dup4\n    /* \"#utility.yul\":271:278   */\n  dup6\n    /* \"#utility.yul\":267:290   */\n  sub\n    /* \"#utility.yul\":263:295   */\n  slt\n    /* \"#utility.yul\":260:379   */\n  iszero\n  tag_19\n  jumpi\n    /* \"#utility.yul\":298:377   */\n  tag_20\n  tag_21\n  jump\t// in\ntag_20:\n    /* \"#utility.yul\":260:379   */\ntag_19:\n    /* \"#utility.yul\":418:419   */\n  0x00\n    /* \"#utility.yul\":443:507   */\n  tag_22\n    /* \"#utility.yul\":499:506   */\n  dup6\n    /* \"#utility.yul\":490:496   */\n  dup3\n    /* \"#utility.yul\":479:488   */\n  dup7\n    /* \"#utility.yul\":475:497   */\n  add\n    /* \"#utility.yul\":443:507   */\n  tag_14\n  jump\t// in\ntag_22:\n    /* \"#utility.yul\":433:507   */\n  swap3\n  pop\n    /* \"#utility.yul\":389:517   */\n  pop\n    /* \"#utility.yul\":556:558   */\n  0x20\n    /* \"#utility.yul\":582:646   */\n  tag_23\n    /* \"#utility.yul\":638:645   */\n  dup6\n    /* \"#utility.yul\":629:635   */\n  dup3\n    /* \"#utility.yul\":618:627   */\n  dup7\n    /* \"#utility.yul\":614:636   */\n  add\n    /* \"#utility.yul\":582:646   */\n  tag_14\n  jump\t// in\ntag_23:\n    /* \"#utility.yul\":572:646   */\n  swap2\n  pop\n    /* \"#utility.yul\":527:656   */\n  pop\n    /* \"#utility.yul\":156:663   */\n  swap3\n  pop\n  swap3\n  swap1\n  pop\n  jump\t// out\n    /* \"#utility.yul\":750:935   */\ntag_7:\n    /* \"#utility.yul\":790:791   */\n  0x00\n    /* \"#utility.yul\":807:827   */\n  tag_27\n    /* \"#utility.yul\":825:826   */\n  dup3\n    /* \"#utility.yul\":807:827   */\n  tag_28\n  jump\t// in\ntag_27:\n    /* \"#utility.yul\":802:827   */\n  swap2\n  pop\n    /* \"#utility.yul\":841:861   */\n  tag_29\n    /* \"#utility.yul\":859:860   */\n  dup4\n    /* \"#utility.yul\":841:861   */\n  tag_28\n  jump\t// in\ntag_29:\n    /* \"#utility.yul\":836:861   */\n  swap3\n  pop\n    /* \"#utility.yul\":880:881   */\n  dup3\n    /* \"#utility.yul\":870:905   */\n  tag_30\n  jumpi\n    /* \"#utility.yul\":885:903   */\n  tag_31\n  tag_32\n  jump\t// in\ntag_31:\n    /* \"#utility.yul\":870:905   */\ntag_30:\n    /* \"#utility.yul\":927:928   */\n  dup3\n    /* \"#utility.yul\":924:925   */\n  dup3\n    /* \"#utility.yul\":920:929   */\n  div\n    /* \"#utility.yul\":915:929   */\n  swap1\n  pop\n    /* \"#utility.yul\":750:935   */\n  swap3\n  swap2\n  pop\n  pop\n  jump\t// out\n    /* \"#utility.yul\":941:1289   */\ntag_9:\n    /* \"#utility.yul\":981:988   */\n  0x00\n    /* \"#utility.yul\":1004:1024   */\n  tag_34\n    /* \"#utility.yul\":1022:1023   */\n  dup3\n    /* \"#utility.yul\":1004:1024   */\n  tag_28\n  jump\t// in\ntag_34:\n    /* \"#utility.yul\":999:1024   */\n  swap2\n  pop\n    /* \"#utility.yul\":1038:1058   */\n  tag_35\n    /* \"#utility.yul\":1056:1057   */\n  dup4\n    /* \"#utility.yul\":1038:1058   */\n  tag_28\n  jump\t// in\ntag_35:\n    /* \"#utility.yul\":1033:1058   */\n  swap3\n  pop\n    /* \"#utility.yul\":1226:1227   */\n  dup2\n    /* \"#utility.yul\":1158:1224   */\n  0xffffffffffffffffffffffffffffffffffffffffffffffffffffffffffffffff\n    /* \"#utility.yul\":1154:1228   */\n  div\n    /* \"#utility.yul\":1151:1152   */\n  dup4\n    /* \"#utility.yul\":1148:1229   */\n  gt\n    /* \"#utility.yul\":1143:1144   */\n  dup3\n    /* \"#utility.yul\":1136:1145   */\n  iszero\n    /* \"#utility.yul\":1129:1146   */\n  iszero\n    /* \"#utility.yul\":1125:1230   */\n  and\n    /* \"#utility.yul\":1122:1253   */\n  iszero\n  tag_36\n  jumpi\n    /* \"#utility.yul\":1233:1251   */\n  tag_37\n  tag_38\n  jump\t// in\ntag_37:\n    /* \"#utility.yul\":1122:1253   */\ntag_36:\n    /* \"#utility.yul\":1281:1282   */\n  dup3\n    /* \"#utility.yul\":1278:1279   */\n  dup3\n    /* \"#utility.yul\":1274:1283   */\n  mul\n    /* \"#utility.yul\":1263:1283   */\n  swap1\n  pop\n    /* \"#utility.yul\":941:1289   */\n  swap3\n  swap2\n  pop\n  pop\n  jump\t// out\n    /* \"#utility.yul\":1295:1391   */\ntag_39:\n    /* \"#utility.yul\":1332:1339   */\n  0x00\n    /* \"#utility.yul\":1361:1385   */\n  tag_41\n    /* \"#utility.yul\":1379:1384   */\n  dup3\n    /* \"#utility.yul\":1361:1385   */\n  tag_42\n  jump\t// in\ntag_41:\n    /* \"#utility.yul\":1350:1385   */\n  swap1\n  pop\n    /* \"#utility.yul\":1295:1391   */\n  swap2\n  swap1\n  pop\n  jump\t// out\n    /* \"#utility.yul\":1397:1523   */\ntag_42:\n    /* \"#utility.yul\":1434:1441   */\n  0x00\n    /* \"#utility.yul\":1474:1516   */\n  0xffffffffffffffffffffffffffffffffffffffff\n    /* \"#utility.yul\":1467:1472   */\n  dup3\n    /* \"#utility.yul\":1463:1517   */\n  and\n    /* \"#utility.yul\":1452:1517   */\n  swap1\n  pop\n    /* \"#utility.yul\":1397:1523   */\n  swap2\n  swap1\n  pop\n  jump\t// out\n    /* \"#utility.yul\":1529:1606   */\ntag_28:\n    /* \"#utility.yul\":1566:1573   */\n  0x00\n    /* \"#utility.yul\":1595:1600   */\n  dup2\n    /* \"#utility.yul\":1584:1600   */\n  swap1\n  pop\n    /* \"#utility.yul\":1529:1606   */\n  swap2\n  swap1\n  pop\n  jump\t// out\n    /* \"#utility.yul\":1612:1792   */\ntag_38:\n    /* \"#utility.yul\":1660:1737   */\n  0x4e487b7100000000000000000000000000000000000000000000000000000000\n    /* \"#utility.yul\":1657:1658   */\n  0x00\n    /* \"#utility.yul\":1650:1738   */\n  mstore\n    /* \"#utility.yul\":1757:1761   */\n  0x11\n    /* \"#utility.yul\":1754:1755   */\n  0x04\n    /* \"#utility.yul\":1747:1762   */\n  mstore\n    /* \"#utility.yul\":1781:1785   */\n  0x24\n    /* \"#utility.yul\":1778:1779   */\n  0x00\n    /* \"#utility.yul\":1771:1786   */\n  revert\n    /* \"#utility.yul\":1798:1978   */\ntag_32:\n    /* \"#utility.yul\":1846:1923   */\n  0x4e487b7100000000000000000000000000000000000000000000000000000000\n    /* \"#utility.yul\":1843:1844   */\n  0x00\n    /* \"#utility.yul\":1836:1924   */\n  mstore\n    /* \"#utility.yul\":1943:1947   */\n  0x12\n    /* \"#utility.yul\":1940:1941   */\n  0x04\n    /* \"#utility.yul\":1933:1948   */\n  mstore\n    /* \"#utility.yul\":1967:1971   */\n  0x24\n    /* \"#utility.yul\":1964:1965   */\n  0x00\n    /* \"#utility.yul\":1957:1972   */\n  revert\n    /* \"#utility.yul\":2107:2224   */\ntag_21:\n    /* \"#utility.yul\":2216:2217   */\n  0x00\n    /* \"#utility.yul\":2213:2214   */\n  dup1\n    /* \"#utility.yul\":2206:2218   */\n  revert\n    /* \"#utility.yul\":2230:2352   */\ntag_17:\n    /* \"#utility.yul\":2303:2327   */\n  tag_51\n    /* \"#utility.yul\":2321:2326   */\n  dup2\n    /* \"#utility.yul\":2303:2327   */\n  tag_39\n  jump\t// in\ntag_51:\n    /* \"#utility.yul\":2296:2301   */\n  dup2\n    /* \"#utility.yul\":2293:2328   */\n  eq\n    /* \"#utility.yul\":2283:2346   */\n  tag_52\n  jumpi\n    /* \"#utility.yul\":2342:2343   */\n  0x00\n    /* \"#utility.yul\":2339:2340   */\n  dup1\n    /* \"#utility.yul\":2332:2344   */\n  revert\n    /* \"#utility.yul\":2283:2346   */\ntag_52:\n    /* \"#utility.yul\":2230:2352   */\n  pop\n  jump\t// out\n    /* \"WandInstruments.sol\":2709:7547  contract WandInstruments {\r... */\ntag_12:\n  dataSize(sub_0)\n  dup1\n  dataOffset(sub_0)\n  0x00\n  codecopy\n  0x00\n  return\nstop\n\nsub_0: assembly {\n        /* \"WandInstruments.sol\":2709:7547  contract WandInstruments {\r... */\n      mstore(0x40, 0x80)\n      jumpi(tag_1, lt(calldatasize, 0x04))\n      shr(0xe0, calldataload(0x00))\n      dup1\n      0x6f10e285\n      gt\n      tag_19\n      jumpi\n      dup1\n      0xee467678\n      gt\n      tag_20\n      jumpi\n      dup1\n      0xee467678\n      eq\n      tag_14\n      jumpi\n      dup1\n      0xee546a51\n      eq\n      tag_15\n      jumpi\n      dup1\n      0xee620868\n      eq\n      tag_16\n      jumpi\n      dup1\n      0xeee05f5e\n      eq\n      tag_17\n      jumpi\n      dup1\n      0xfbbb4589\n      eq\n      tag_18\n      jumpi\n      jump(tag_1)\n    tag_20:\n      dup1\n      0x6f10e285\n      eq\n      tag_10\n      jumpi\n      dup1\n      0xcbff4617\n      eq\n      tag_11\n      jumpi\n      dup1\n      0xdaa3a4a4\n      eq\n      tag_12\n      jumpi\n      dup1\n      0xdd9b1d97\n      eq\n      tag_13\n      jumpi\n      jump(tag_1)\n    tag_19:\n      dup1\n      0x35453307\n      gt\n      tag_21\n      jumpi\n      dup1\n      0x35453307\n      eq\n      tag_6\n      jumpi\n      dup1\n      0x43d32e9c\n      eq\n      tag_7\n      jumpi\n      dup1\n      0x65819f7e\n      eq\n      tag_8\n      jumpi\n      dup1\n      0x6e05c1b9\n      eq\n      tag_9\n      jumpi\n      jump(tag_1)\n    tag_21:\n      dup1\n      0x018a25e8\n      eq\n      tag_2\n      jumpi\n      dup1\n      0x0e8a0f89\n      eq\n      tag_3\n      jumpi\n      dup1\n      0x1f564a06\n      eq\n      tag_4\n      jumpi\n      dup1\n      0x2934b237\n      eq\n      tag_5\n      jumpi\n    tag_1:\n      0x00\n      dup1\n      revert\n        /* \"WandInstruments.sol\":6888:7042  function getBuyPrice() external view returns (uint256){\r... */\n    tag_2:\n      callvalue\n      dup1\n      iszero\n      tag_22\n      jumpi\n      0x00\n      dup1\n      revert\n    tag_22:\n      pop\n      tag_23\n      tag_24\n      jump\t// in\n    tag_23:\n      mload(0x40)\n      tag_25\n      swap2\n      swap1\n      tag_26\n      jump\t// in\n    tag_25:\n      mload(0x40)\n      dup1\n      swap2\n      sub\n      swap1\n      return\n        /* \"WandInstruments.sol\":6510:6676  function floorDiv(int256 a, int256 b) public returns (int256) {\r... */\n    tag_3:\n      callvalue\n      dup1\n      iszero\n      tag_27\n      jumpi\n      0x00\n      dup1\n      revert\n    tag_27:\n      pop\n      tag_28\n      0x04\n      dup1\n      calldatasize\n      sub\n      dup2\n      add\n      swap1\n      tag_29\n      swap2\n      swap1\n      tag_30\n      jump\t// in\n    tag_29:\n      tag_31\n      jump\t// in\n    tag_28:\n      mload(0x40)\n      tag_32\n      swap2\n      swap1\n      tag_33\n      jump\t// in\n    tag_32:\n      mload(0x40)\n      dup1\n      swap2\n      sub\n      swap1\n      return\n        /* \"WandInstruments.sol\":6682:6882  function getBackingPrice() external view returns (uint256){\r... */\n    tag_4:\n      callvalue\n      dup1\n      iszero\n      tag_34\n      jumpi\n      0x00\n      dup1\n      revert\n    tag_34:\n      pop\n      tag_35\n      tag_36\n      jump\t// in\n    tag_35:\n      mload(0x40)\n      tag_37\n      swap2\n      swap1\n      tag_26\n      jump\t// in\n    tag_37:\n      mload(0x40)\n      dup1\n      swap2\n      sub\n      swap1\n      return\n        /* \"WandInstruments.sol\":6395:6502  function mintBaton(uint256 amount) public {\r... */\n    tag_5:\n      callvalue\n      dup1\n      iszero\n      tag_38\n      jumpi\n      0x00\n      dup1\n      revert\n    tag_38:\n      pop\n      tag_39\n      0x04\n      dup1\n      calldatasize\n      sub\n      dup2\n      add\n      swap1\n      tag_40\n      swap2\n      swap1\n      tag_41\n      jump\t// in\n    tag_40:\n      tag_42\n      jump\t// in\n    tag_39:\n      stop\n        /* \"WandInstruments.sol\":3228:3273  uint256 public treasury1bal = 500000*(10**18) */\n    tag_6:\n      callvalue\n      dup1\n      iszero\n      tag_43\n      jumpi\n      0x00\n      dup1\n      revert\n    tag_43:\n      pop\n      tag_44\n      tag_45\n      jump\t// in\n    tag_44:\n      mload(0x40)\n      tag_46\n      swap2\n      swap1\n      tag_26\n      jump\t// in\n    tag_46:\n      mload(0x40)\n      dup1\n      swap2\n      sub\n      swap1\n      return\n        /* \"WandInstruments.sol\":7048:7268  function getSellPrice() external view returns (uint256){\r... */\n    tag_7:\n      callvalue\n      dup1\n      iszero\n      tag_47\n      jumpi\n      0x00\n      dup1\n      revert\n    tag_47:\n      pop\n      tag_48\n      tag_49\n      jump\t// in\n    tag_48:\n      mload(0x40)\n      tag_50\n      swap2\n      swap1\n      tag_26\n      jump\t// in\n    tag_50:\n      mload(0x40)\n      dup1\n      swap2\n      sub\n      swap1\n      return\n        /* \"WandInstruments.sol\":5592:6389  function buyScepter(uint256 amountSCPtoBuy) public payable{\r... */\n    tag_8:\n      tag_51\n      0x04\n      dup1\n      calldatasize\n      sub\n      dup2\n      add\n      swap1\n      tag_52\n      swap2\n      swap1\n      tag_41\n      jump\t// in\n    tag_52:\n      tag_53\n      jump\t// in\n    tag_51:\n      stop\n        /* \"WandInstruments.sol\":3710:3727  IERC20 public tSC */\n    tag_9:\n      callvalue\n      dup1\n      iszero\n      tag_54\n      jumpi\n      0x00\n      dup1\n      revert\n    tag_54:\n      pop\n      tag_55\n      tag_56\n      jump\t// in\n    tag_55:\n      mload(0x40)\n      tag_57\n      swap2\n      swap1\n      tag_58\n      jump\t// in\n    tag_57:\n      mload(0x40)\n      dup1\n      swap2\n      sub\n      swap1\n      return\n        /* \"WandInstruments.sol\":3488:3505  int128 public res */\n    tag_10:\n      callvalue\n      dup1\n      iszero\n      tag_59\n      jumpi\n      0x00\n      dup1\n      revert\n    tag_59:\n      pop\n      tag_60\n      tag_61\n      jump\t// in\n    tag_60:\n      mload(0x40)\n      tag_62\n      swap2\n      swap1\n      tag_63\n      jump\t// in\n    tag_62:\n      mload(0x40)\n      dup1\n      swap2\n      sub\n      swap1\n      return\n        /* \"WandInstruments.sol\":2908:2933  uint256 public sellFactor */\n    tag_11:\n      callvalue\n      dup1\n      iszero\n      tag_64\n      jumpi\n      0x00\n      dup1\n      revert\n    tag_64:\n      pop\n      tag_65\n      tag_66\n      jump\t// in\n    tag_65:\n      mload(0x40)\n      tag_67\n      swap2\n      swap1\n      tag_26\n      jump\t// in\n    tag_67:\n      mload(0x40)\n      dup1\n      swap2\n      sub\n      swap1\n      return\n        /* \"WandInstruments.sol\":4705:5586  function sellScepter(uint256 amountSCPtoSell) public payable{\r... */\n    tag_12:\n      tag_68\n      0x04\n      dup1\n      calldatasize\n      sub\n      dup2\n      add\n      swap1\n      tag_69\n      swap2\n      swap1\n      tag_41\n      jump\t// in\n    tag_69:\n      tag_70\n      jump\t// in\n    tag_68:\n      stop\n        /* \"WandInstruments.sol\":3159:3187  address public treasury2Addr */\n    tag_13:\n      callvalue\n      dup1\n      iszero\n      tag_71\n      jumpi\n      0x00\n      dup1\n      revert\n    tag_71:\n      pop\n      tag_72\n      tag_73\n      jump\t// in\n    tag_72:\n      mload(0x40)\n      tag_74\n      swap2\n      swap1\n      tag_75\n      jump\t// in\n    tag_74:\n      mload(0x40)\n      dup1\n      swap2\n      sub\n      swap1\n      return\n        /* \"WandInstruments.sol\":3734:3756  IERC20 public mockUSDC */\n    tag_14:\n      callvalue\n      dup1\n      iszero\n      tag_76\n      jumpi\n      0x00\n      dup1\n      revert\n    tag_76:\n      pop\n      tag_77\n      tag_78\n      jump\t// in\n    tag_77:\n      mload(0x40)\n      tag_79\n      swap2\n      swap1\n      tag_58\n      jump\t// in\n    tag_79:\n      mload(0x40)\n      dup1\n      swap2\n      sub\n      swap1\n      return\n        /* \"WandInstruments.sol\":4388:4572  function queryERC20Balance(address _tokenAddress, address _addressToQuery) view public returns (uint) {\r... */\n    tag_15:\n      callvalue\n      dup1\n      iszero\n      tag_80\n      jumpi\n      0x00\n      dup1\n      revert\n    tag_80:\n      pop\n      tag_81\n      0x04\n      dup1\n      calldatasize\n      sub\n      dup2\n      add\n      swap1\n      tag_82\n      swap2\n      swap1\n      tag_83\n      jump\t// in\n    tag_82:\n      tag_84\n      jump\t// in\n    tag_81:\n      mload(0x40)\n      tag_85\n      swap2\n      swap1\n      tag_26\n      jump\t// in\n    tag_85:\n      mload(0x40)\n      dup1\n      swap2\n      sub\n      swap1\n      return\n        /* \"WandInstruments.sol\":2874:2901  uint256 public growthFactor */\n    tag_16:\n      callvalue\n      dup1\n      iszero\n      tag_86\n      jumpi\n      0x00\n      dup1\n      revert\n    tag_86:\n      pop\n      tag_87\n      tag_88\n      jump\t// in\n    tag_87:\n      mload(0x40)\n      tag_89\n      swap2\n      swap1\n      tag_26\n      jump\t// in\n    tag_89:\n      mload(0x40)\n      dup1\n      swap2\n      sub\n      swap1\n      return\n        /* \"WandInstruments.sol\":3512:3582  address public testwallet = 0x617F2E2fD72FD9D5503197092aC168c91465E7f2 */\n    tag_17:\n      callvalue\n      dup1\n      iszero\n      tag_90\n      jumpi\n      0x00\n      dup1\n      revert\n    tag_90:\n      pop\n      tag_91\n      tag_92\n      jump\t// in\n    tag_91:\n      mload(0x40)\n      tag_93\n      swap2\n      swap1\n      tag_75\n      jump\t// in\n    tag_93:\n      mload(0x40)\n      dup1\n      swap2\n      sub\n      swap1\n      return\n        /* \"WandInstruments.sol\":3124:3152  address public treasury1Addr */\n    tag_18:\n      callvalue\n      dup1\n      iszero\n      tag_94\n      jumpi\n      0x00\n      dup1\n      revert\n    tag_94:\n      pop\n      tag_95\n      tag_96\n      jump\t// in\n    tag_95:\n      mload(0x40)\n      tag_97\n      swap2\n      swap1\n      tag_75\n      jump\t// in\n    tag_97:\n      mload(0x40)\n      dup1\n      swap2\n      sub\n      swap1\n      return\n        /* \"WandInstruments.sol\":6888:7042  function getBuyPrice() external view returns (uint256){\r... */\n    tag_24:\n        /* \"WandInstruments.sol\":6934:6941  uint256 */\n      0x00\n        /* \"WandInstruments.sol\":7026:7032  10**18 */\n      0x0de0b6b3a7640000\n        /* \"WandInstruments.sol\":7011:7021  sellFactor */\n      sload(0x01)\n        /* \"WandInstruments.sol\":6992:7008  (9/10) *(10**18) */\n      0x0c7d713b49da0000\n        /* \"WandInstruments.sol\":6992:7021  (9/10) *(10**18) - sellFactor */\n      tag_99\n      swap2\n      swap1\n      tag_100\n      jump\t// in\n    tag_99:\n        /* \"WandInstruments.sol\":6966:6970  this */\n      address\n        /* \"WandInstruments.sol\":6966:6986  this.getBackingPrice */\n      0xffffffffffffffffffffffffffffffffffffffff\n      and\n      0x1f564a06\n        /* \"WandInstruments.sol\":6966:6988  this.getBackingPrice() */\n      mload(0x40)\n      dup2\n      0xffffffff\n      and\n      0xe0\n      shl\n      dup2\n      mstore\n      0x04\n      add\n      0x20\n      mload(0x40)\n      dup1\n      dup4\n      sub\n      dup2\n      dup7\n      dup1\n      extcodesize\n      iszero\n      dup1\n      iszero\n      tag_101\n      jumpi\n      0x00\n      dup1\n      revert\n    tag_101:\n      pop\n      gas\n      staticcall\n      iszero\n      dup1\n      iszero\n      tag_103\n      jumpi\n      returndatasize\n      0x00\n      dup1\n      returndatacopy\n      revert(0x00, returndatasize)\n    tag_103:\n      pop\n      pop\n      pop\n      pop\n      mload(0x40)\n      returndatasize\n      not(0x1f)\n      0x1f\n      dup3\n      add\n      and\n      dup3\n      add\n      dup1\n      0x40\n      mstore\n      pop\n      dup2\n      add\n      swap1\n      tag_104\n      swap2\n      swap1\n      tag_105\n      jump\t// in\n    tag_104:\n        /* \"WandInstruments.sol\":6966:7022  this.getBackingPrice() * ((9/10) *(10**18) - sellFactor) */\n      tag_106\n      swap2\n      swap1\n      tag_107\n      jump\t// in\n    tag_106:\n        /* \"WandInstruments.sol\":6966:7033  this.getBackingPrice() * ((9/10) *(10**18) - sellFactor) / (10**18) */\n      tag_108\n      swap2\n      swap1\n      tag_109\n      jump\t// in\n    tag_108:\n        /* \"WandInstruments.sol\":6958:7034  return (this.getBackingPrice() * ((9/10) *(10**18) - sellFactor) / (10**18)) */\n      swap1\n      pop\n        /* \"WandInstruments.sol\":6888:7042  function getBuyPrice() external view returns (uint256){\r... */\n      swap1\n      jump\t// out\n        /* \"WandInstruments.sol\":6510:6676  function floorDiv(int256 a, int256 b) public returns (int256) {\r... */\n    tag_31:\n        /* \"WandInstruments.sol\":6564:6570  int256 */\n      0x00\n        /* \"WandInstruments.sol\":6579:6587  int256 r */\n      dup1\n        /* \"WandInstruments.sol\":6590:6614  SignedSafeMath.div(a, b) */\n      tag_111\n        /* \"WandInstruments.sol\":6609:6610  a */\n      dup5\n        /* \"WandInstruments.sol\":6612:6613  b */\n      dup5\n        /* \"WandInstruments.sol\":6590:6608  SignedSafeMath.div */\n      tag_112\n        /* \"WandInstruments.sol\":6590:6614  SignedSafeMath.div(a, b) */\n      jump\t// in\n    tag_111:\n        /* \"WandInstruments.sol\":6579:6614  int256 r = SignedSafeMath.div(a, b) */\n      swap1\n      pop\n        /* \"WandInstruments.sol\":6635:6636  0 */\n      0x00\n        /* \"WandInstruments.sol\":6630:6631  b */\n      dup4\n        /* \"WandInstruments.sol\":6626:6627  a */\n      dup6\n        /* \"WandInstruments.sol\":6626:6631  a ^ b */\n      xor\n        /* \"WandInstruments.sol\":6625:6636  (a ^ b) < 0 */\n      slt\n        /* \"WandInstruments.sol\":6625:6652  (a ^ b) < 0 && (r * b != a) */\n      dup1\n      iszero\n      tag_113\n      jumpi\n      pop\n        /* \"WandInstruments.sol\":6650:6651  a */\n      dup4\n        /* \"WandInstruments.sol\":6645:6646  b */\n      dup4\n        /* \"WandInstruments.sol\":6641:6642  r */\n      dup3\n        /* \"WandInstruments.sol\":6641:6646  r * b */\n      tag_114\n      swap2\n      swap1\n      tag_115\n      jump\t// in\n    tag_114:\n        /* \"WandInstruments.sol\":6641:6651  r * b != a */\n      eq\n      iszero\n        /* \"WandInstruments.sol\":6625:6652  (a ^ b) < 0 && (r * b != a) */\n    tag_113:\n        /* \"WandInstruments.sol\":6621:6657  if ((a ^ b) < 0 && (r * b != a)) r-- */\n      iszero\n      tag_116\n      jumpi\n        /* \"WandInstruments.sol\":6654:6657  r-- */\n      dup1\n      dup1\n      tag_117\n      swap1\n      tag_118\n      jump\t// in\n    tag_117:\n      swap2\n      pop\n      pop\n        /* \"WandInstruments.sol\":6621:6657  if ((a ^ b) < 0 && (r * b != a)) r-- */\n    tag_116:\n        /* \"WandInstruments.sol\":6671:6672  r */\n      dup1\n        /* \"WandInstruments.sol\":6664:6672  return r */\n      swap2\n      pop\n      pop\n        /* \"WandInstruments.sol\":6510:6676  function floorDiv(int256 a, int256 b) public returns (int256) {\r... */\n      swap3\n      swap2\n      pop\n      pop\n      jump\t// out\n        /* \"WandInstruments.sol\":6682:6882  function getBackingPrice() external view returns (uint256){\r... */\n    tag_36:\n        /* \"WandInstruments.sol\":6732:6739  uint256 */\n      0x00\n        /* \"WandInstruments.sol\":6833:6836  tSC */\n      0x10\n      0x00\n      swap1\n      sload\n      swap1\n      0x0100\n      exp\n      swap1\n      div\n      0xffffffffffffffffffffffffffffffffffffffff\n      and\n        /* \"WandInstruments.sol\":6833:6848  tSC.totalSupply */\n      0xffffffffffffffffffffffffffffffffffffffff\n      and\n      0x18160ddd\n        /* \"WandInstruments.sol\":6833:6850  tSC.totalSupply() */\n      mload(0x40)\n      dup2\n      0xffffffff\n      and\n      0xe0\n      shl\n      dup2\n      mstore\n      0x04\n      add\n      0x20\n      mload(0x40)\n      dup1\n      dup4\n      sub\n      dup2\n      dup7\n      dup1\n      extcodesize\n      iszero\n      dup1\n      iszero\n      tag_120\n      jumpi\n      0x00\n      dup1\n      revert\n    tag_120:\n      pop\n      gas\n      staticcall\n      iszero\n      dup1\n      iszero\n      tag_122\n      jumpi\n      returndatasize\n      0x00\n      dup1\n      returndatacopy\n      revert(0x00, returndatasize)\n    tag_122:\n      pop\n      pop\n      pop\n      pop\n      mload(0x40)\n      returndatasize\n      not(0x1f)\n      0x1f\n      dup3\n      add\n      and\n      dup3\n      add\n      dup1\n      0x40\n      mstore\n      pop\n      dup2\n      add\n      swap1\n      tag_123\n      swap2\n      swap1\n      tag_105\n      jump\t// in\n    tag_123:\n        /* \"WandInstruments.sol\":6820:6832  treasury1bal */\n      sload(0x08)\n        /* \"WandInstruments.sol\":6820:6850  treasury1bal/tSC.totalSupply() */\n      tag_124\n      swap2\n      swap1\n      tag_109\n      jump\t// in\n    tag_124:\n        /* \"WandInstruments.sol\":6812:6851  return (treasury1bal/tSC.totalSupply()) */\n      swap1\n      pop\n        /* \"WandInstruments.sol\":6682:6882  function getBackingPrice() external view returns (uint256){\r... */\n      swap1\n      jump\t// out\n        /* \"WandInstruments.sol\":6395:6502  function mintBaton(uint256 amount) public {\r... */\n    tag_42:\n        /* \"WandInstruments.sol\":6458:6459  b */\n      0x12\n      0x00\n      swap1\n      sload\n      swap1\n      0x0100\n      exp\n      swap1\n      div\n      0xffffffffffffffffffffffffffffffffffffffff\n      and\n        /* \"WandInstruments.sol\":6458:6464  b.mint */\n      0xffffffffffffffffffffffffffffffffffffffff\n      and\n      0x40c10f19\n        /* \"WandInstruments.sol\":6465:6475  msg.sender */\n      caller\n        /* \"WandInstruments.sol\":6477:6483  amount */\n      dup4\n        /* \"WandInstruments.sol\":6458:6484  b.mint(msg.sender, amount) */\n      mload(0x40)\n      dup4\n      0xffffffff\n      and\n      0xe0\n      shl\n      dup2\n      mstore\n      0x04\n      add\n      tag_126\n      swap3\n      swap2\n      swap1\n      tag_127\n      jump\t// in\n    tag_126:\n      0x00\n      mload(0x40)\n      dup1\n      dup4\n      sub\n      dup2\n      0x00\n      dup8\n      dup1\n      extcodesize\n      iszero\n      dup1\n      iszero\n      tag_128\n      jumpi\n      0x00\n      dup1\n      revert\n    tag_128:\n      pop\n      gas\n      call\n      iszero\n      dup1\n      iszero\n      tag_130\n      jumpi\n      returndatasize\n      0x00\n      dup1\n      returndatacopy\n      revert(0x00, returndatasize)\n    tag_130:\n      pop\n      pop\n      pop\n      pop\n        /* \"WandInstruments.sol\":6395:6502  function mintBaton(uint256 amount) public {\r... */\n      pop\n      jump\t// out\n        /* \"WandInstruments.sol\":3228:3273  uint256 public treasury1bal = 500000*(10**18) */\n    tag_45:\n      sload(0x08)\n      dup2\n      jump\t// out\n        /* \"WandInstruments.sol\":7048:7268  function getSellPrice() external view returns (uint256){\r... */\n    tag_49:\n        /* \"WandInstruments.sol\":7095:7102  uint256 */\n      0x00\n        /* \"WandInstruments.sol\":7253:7259  10**18 */\n      0x0de0b6b3a7640000\n        /* \"WandInstruments.sol\":7235:7247  6*(10**18)/5 */\n      0x10a741a462780000\n        /* \"WandInstruments.sol\":7219:7231  growthFactor */\n      sload(0x00)\n        /* \"WandInstruments.sol\":7219:7248  growthFactor + (6*(10**18)/5) */\n      tag_132\n      swap2\n      swap1\n      tag_133\n      jump\t// in\n    tag_132:\n        /* \"WandInstruments.sol\":7193:7197  this */\n      address\n        /* \"WandInstruments.sol\":7193:7213  this.getBackingPrice */\n      0xffffffffffffffffffffffffffffffffffffffff\n      and\n      0x1f564a06\n        /* \"WandInstruments.sol\":7193:7215  this.getBackingPrice() */\n      mload(0x40)\n      dup2\n      0xffffffff\n      and\n      0xe0\n      shl\n      dup2\n      mstore\n      0x04\n      add\n      0x20\n      mload(0x40)\n      dup1\n      dup4\n      sub\n      dup2\n      dup7\n      dup1\n      extcodesize\n      iszero\n      dup1\n      iszero\n      tag_134\n      jumpi\n      0x00\n      dup1\n      revert\n    tag_134:\n      pop\n      gas\n      staticcall\n      iszero\n      dup1\n      iszero\n      tag_136\n      jumpi\n      returndatasize\n      0x00\n      dup1\n      returndatacopy\n      revert(0x00, returndatasize)\n    tag_136:\n      pop\n      pop\n      pop\n      pop\n      mload(0x40)\n      returndatasize\n      not(0x1f)\n      0x1f\n      dup3\n      add\n      and\n      dup3\n      add\n      dup1\n      0x40\n      mstore\n      pop\n      dup2\n      add\n      swap1\n      tag_137\n      swap2\n      swap1\n      tag_105\n      jump\t// in\n    tag_137:\n        /* \"WandInstruments.sol\":7193:7249  this.getBackingPrice() * (growthFactor + (6*(10**18)/5)) */\n      tag_138\n      swap2\n      swap1\n      tag_107\n      jump\t// in\n    tag_138:\n        /* \"WandInstruments.sol\":7192:7260  (this.getBackingPrice() * (growthFactor + (6*(10**18)/5)))/ (10**18) */\n      tag_139\n      swap2\n      swap1\n      tag_109\n      jump\t// in\n    tag_139:\n        /* \"WandInstruments.sol\":7185:7260  return (this.getBackingPrice() * (growthFactor + (6*(10**18)/5)))/ (10**18) */\n      swap1\n      pop\n        /* \"WandInstruments.sol\":7048:7268  function getSellPrice() external view returns (uint256){\r... */\n      swap1\n      jump\t// out\n        /* \"WandInstruments.sol\":5592:6389  function buyScepter(uint256 amountSCPtoBuy) public payable{\r... */\n    tag_53:\n        /* \"WandInstruments.sol\":5722:5749  uint256 trader_usdc_balance */\n      0x00\n        /* \"WandInstruments.sol\":5752:5760  mockUSDC */\n      0x11\n      0x00\n      swap1\n      sload\n      swap1\n      0x0100\n      exp\n      swap1\n      div\n      0xffffffffffffffffffffffffffffffffffffffff\n      and\n        /* \"WandInstruments.sol\":5752:5770  mockUSDC.balanceOf */\n      0xffffffffffffffffffffffffffffffffffffffff\n      and\n      0x70a08231\n        /* \"WandInstruments.sol\":5771:5781  msg.sender */\n      caller\n        /* \"WandInstruments.sol\":5752:5782  mockUSDC.balanceOf(msg.sender) */\n      mload(0x40)\n      dup3\n      0xffffffff\n      and\n      0xe0\n      shl\n      dup2\n      mstore\n      0x04\n      add\n      tag_141\n      swap2\n      swap1\n      tag_75\n      jump\t// in\n    tag_141:\n      0x20\n      mload(0x40)\n      dup1\n      dup4\n      sub\n      dup2\n      dup7\n      dup1\n      extcodesize\n      iszero\n      dup1\n      iszero\n      tag_142\n      jumpi\n      0x00\n      dup1\n      revert\n    tag_142:\n      pop\n      gas\n      staticcall\n      iszero\n      dup1\n      iszero\n      tag_144\n      jumpi\n      returndatasize\n      0x00\n      dup1\n      returndatacopy\n      revert(0x00, returndatasize)\n    tag_144:\n      pop\n      pop\n      pop\n      pop\n      mload(0x40)\n      returndatasize\n      not(0x1f)\n      0x1f\n      dup3\n      add\n      and\n      dup3\n      add\n      dup1\n      0x40\n      mstore\n      pop\n      dup2\n      add\n      swap1\n      tag_145\n      swap2\n      swap1\n      tag_105\n      jump\t// in\n    tag_145:\n        /* \"WandInstruments.sol\":5722:5782  uint256 trader_usdc_balance = mockUSDC.balanceOf(msg.sender) */\n      swap1\n      pop\n        /* \"WandInstruments.sol\":5823:5837  amountSCPtoBuy */\n      dup2\n        /* \"WandInstruments.sol\":5801:5820  trader_usdc_balance */\n      dup2\n        /* \"WandInstruments.sol\":5801:5837  trader_usdc_balance > amountSCPtoBuy */\n      gt\n        /* \"WandInstruments.sol\":5793:5868  require(trader_usdc_balance > amountSCPtoBuy, \"You dont have that amount!\") */\n      tag_146\n      jumpi\n      mload(0x40)\n      0x08c379a000000000000000000000000000000000000000000000000000000000\n      dup2\n      mstore\n      0x04\n      add\n      tag_147\n      swap1\n      tag_148\n      jump\t// in\n    tag_147:\n      mload(0x40)\n      dup1\n      swap2\n      sub\n      swap1\n      revert\n    tag_146:\n        /* \"WandInstruments.sol\":5919:5922  tSC */\n      0x10\n      0x00\n      swap1\n      sload\n      swap1\n      0x0100\n      exp\n      swap1\n      div\n      0xffffffffffffffffffffffffffffffffffffffff\n      and\n        /* \"WandInstruments.sol\":5919:5931  tSC.transfer */\n      0xffffffffffffffffffffffffffffffffffffffff\n      and\n      0xa9059cbb\n        /* \"WandInstruments.sol\":5932:5942  msg.sender */\n      caller\n        /* \"WandInstruments.sol\":5944:5958  amountSCPtoBuy */\n      dup5\n        /* \"WandInstruments.sol\":5919:5959  tSC.transfer(msg.sender, amountSCPtoBuy) */\n      mload(0x40)\n      dup4\n      0xffffffff\n      and\n      0xe0\n      shl\n      dup2\n      mstore\n      0x04\n      add\n      tag_149\n      swap3\n      swap2\n      swap1\n      tag_127\n      jump\t// in\n    tag_149:\n      0x20\n      mload(0x40)\n      dup1\n      dup4\n      sub\n      dup2\n      0x00\n      dup8\n      dup1\n      extcodesize\n      iszero\n      dup1\n      iszero\n      tag_150\n      jumpi\n      0x00\n      dup1\n      revert\n    tag_150:\n      pop\n      gas\n      call\n      iszero\n      dup1\n      iszero\n      tag_152\n      jumpi\n      returndatasize\n      0x00\n      dup1\n      returndatacopy\n      revert(0x00, returndatasize)\n    tag_152:\n      pop\n      pop\n      pop\n      pop\n      mload(0x40)\n      returndatasize\n      not(0x1f)\n      0x1f\n      dup3\n      add\n      and\n      dup3\n      add\n      dup1\n      0x40\n      mstore\n      pop\n      dup2\n      add\n      swap1\n      tag_153\n      swap2\n      swap1\n      tag_154\n      jump\t// in\n    tag_153:\n      pop\n        /* \"WandInstruments.sol\":6093:6163  _safeTransferFrom(mockUSDC, msg.sender, address(this), amountSCPtoBuy) */\n      tag_155\n        /* \"WandInstruments.sol\":6111:6119  mockUSDC */\n      0x11\n      0x00\n      swap1\n      sload\n      swap1\n      0x0100\n      exp\n      swap1\n      div\n      0xffffffffffffffffffffffffffffffffffffffff\n      and\n        /* \"WandInstruments.sol\":6121:6131  msg.sender */\n      caller\n        /* \"WandInstruments.sol\":6141:6145  this */\n      address\n        /* \"WandInstruments.sol\":6148:6162  amountSCPtoBuy */\n      dup6\n        /* \"WandInstruments.sol\":6093:6110  _safeTransferFrom */\n      tag_156\n        /* \"WandInstruments.sol\":6093:6163  _safeTransferFrom(mockUSDC, msg.sender, address(this), amountSCPtoBuy) */\n      jump\t// in\n    tag_155:\n        /* \"WandInstruments.sol\":5650:6389  {\r... */\n      pop\n        /* \"WandInstruments.sol\":5592:6389  function buyScepter(uint256 amountSCPtoBuy) public payable{\r... */\n      pop\n      jump\t// out\n        /* \"WandInstruments.sol\":3710:3727  IERC20 public tSC */\n    tag_56:\n      0x10\n      0x00\n      swap1\n      sload\n      swap1\n      0x0100\n      exp\n      swap1\n      div\n      0xffffffffffffffffffffffffffffffffffffffff\n      and\n      dup2\n      jump\t// out\n        /* \"WandInstruments.sol\":3488:3505  int128 public res */\n    tag_61:\n      0x0e\n      0x00\n      swap1\n      sload\n      swap1\n      0x0100\n      exp\n      swap1\n      div\n      0x0f\n      signextend\n      dup2\n      jump\t// out\n        /* \"WandInstruments.sol\":2908:2933  uint256 public sellFactor */\n    tag_66:\n      sload(0x01)\n      dup2\n      jump\t// out\n        /* \"WandInstruments.sol\":4705:5586  function sellScepter(uint256 amountSCPtoSell) public payable{\r... */\n    tag_70:\n        /* \"WandInstruments.sol\":4837:4863  uint256 trader_tsc_balance */\n      0x00\n        /* \"WandInstruments.sol\":4866:4869  tSC */\n      0x10\n      0x00\n      swap1\n      sload\n      swap1\n      0x0100\n      exp\n      swap1\n      div\n      0xffffffffffffffffffffffffffffffffffffffff\n      and\n        /* \"WandInstruments.sol\":4866:4879  tSC.balanceOf */\n      0xffffffffffffffffffffffffffffffffffffffff\n      and\n      0x70a08231\n        /* \"WandInstruments.sol\":4880:4890  msg.sender */\n      caller\n        /* \"WandInstruments.sol\":4866:4891  tSC.balanceOf(msg.sender) */\n      mload(0x40)\n      dup3\n      0xffffffff\n      and\n      0xe0\n      shl\n      dup2\n      mstore\n      0x04\n      add\n      tag_158\n      swap2\n      swap1\n      tag_75\n      jump\t// in\n    tag_158:\n      0x20\n      mload(0x40)\n      dup1\n      dup4\n      sub\n      dup2\n      dup7\n      dup1\n      extcodesize\n      iszero\n      dup1\n      iszero\n      tag_159\n      jumpi\n      0x00\n      dup1\n      revert\n    tag_159:\n      pop\n      gas\n      staticcall\n      iszero\n      dup1\n      iszero\n      tag_161\n      jumpi\n      returndatasize\n      0x00\n      dup1\n      returndatacopy\n      revert(0x00, returndatasize)\n    tag_161:\n      pop\n      pop\n      pop\n      pop\n      mload(0x40)\n      returndatasize\n      not(0x1f)\n      0x1f\n      dup3\n      add\n      and\n      dup3\n      add\n      dup1\n      0x40\n      mstore\n      pop\n      dup2\n      add\n      swap1\n      tag_162\n      swap2\n      swap1\n      tag_105\n      jump\t// in\n    tag_162:\n        /* \"WandInstruments.sol\":4837:4891  uint256 trader_tsc_balance = tSC.balanceOf(msg.sender) */\n      swap1\n      pop\n        /* \"WandInstruments.sol\":4931:4946  amountSCPtoSell */\n      dup2\n        /* \"WandInstruments.sol\":4910:4928  trader_tsc_balance */\n      dup2\n        /* \"WandInstruments.sol\":4910:4946  trader_tsc_balance > amountSCPtoSell */\n      gt\n        /* \"WandInstruments.sol\":4902:4977  require(trader_tsc_balance > amountSCPtoSell, \"You dont have that amount!\") */\n      tag_163\n      jumpi\n      mload(0x40)\n      0x08c379a000000000000000000000000000000000000000000000000000000000\n      dup2\n      mstore\n      0x04\n      add\n      tag_164\n      swap1\n      tag_148\n      jump\t// in\n    tag_164:\n      mload(0x40)\n      dup1\n      swap2\n      sub\n      swap1\n      revert\n    tag_163:\n        /* \"WandInstruments.sol\":5179:5187  mockUSDC */\n      0x11\n      0x00\n      swap1\n      sload\n      swap1\n      0x0100\n      exp\n      swap1\n      div\n      0xffffffffffffffffffffffffffffffffffffffff\n      and\n        /* \"WandInstruments.sol\":5179:5196  mockUSDC.transfer */\n      0xffffffffffffffffffffffffffffffffffffffff\n      and\n      0xa9059cbb\n        /* \"WandInstruments.sol\":5197:5207  msg.sender */\n      caller\n        /* \"WandInstruments.sol\":5228:5238  1*(10**18) */\n      0x0de0b6b3a7640000\n        /* \"WandInstruments.sol\":5209:5224  amountSCPtoSell */\n      dup6\n        /* \"WandInstruments.sol\":5209:5239  amountSCPtoSell + (1*(10**18)) */\n      tag_165\n      swap2\n      swap1\n      tag_133\n      jump\t// in\n    tag_165:\n        /* \"WandInstruments.sol\":5179:5240  mockUSDC.transfer(msg.sender, amountSCPtoSell + (1*(10**18))) */\n      mload(0x40)\n      dup4\n      0xffffffff\n      and\n      0xe0\n      shl\n      dup2\n      mstore\n      0x04\n      add\n      tag_166\n      swap3\n      swap2\n      swap1\n      tag_127\n      jump\t// in\n    tag_166:\n      0x20\n      mload(0x40)\n      dup1\n      dup4\n      sub\n      dup2\n      0x00\n      dup8\n      dup1\n      extcodesize\n      iszero\n      dup1\n      iszero\n      tag_167\n      jumpi\n      0x00\n      dup1\n      revert\n    tag_167:\n      pop\n      gas\n      call\n      iszero\n      dup1\n      iszero\n      tag_169\n      jumpi\n      returndatasize\n      0x00\n      dup1\n      returndatacopy\n      revert(0x00, returndatasize)\n    tag_169:\n      pop\n      pop\n      pop\n      pop\n      mload(0x40)\n      returndatasize\n      not(0x1f)\n      0x1f\n      dup3\n      add\n      and\n      dup3\n      add\n      dup1\n      0x40\n      mstore\n      pop\n      dup2\n      add\n      swap1\n      tag_170\n      swap2\n      swap1\n      tag_154\n      jump\t// in\n    tag_170:\n      pop\n        /* \"WandInstruments.sol\":5296:5362  _safeTransferFrom(tSC, msg.sender, address(this), amountSCPtoSell) */\n      tag_171\n        /* \"WandInstruments.sol\":5314:5317  tSC */\n      0x10\n      0x00\n      swap1\n      sload\n      swap1\n      0x0100\n      exp\n      swap1\n      div\n      0xffffffffffffffffffffffffffffffffffffffff\n      and\n        /* \"WandInstruments.sol\":5319:5329  msg.sender */\n      caller\n        /* \"WandInstruments.sol\":5339:5343  this */\n      address\n        /* \"WandInstruments.sol\":5346:5361  amountSCPtoSell */\n      dup6\n        /* \"WandInstruments.sol\":5296:5313  _safeTransferFrom */\n      tag_156\n        /* \"WandInstruments.sol\":5296:5362  _safeTransferFrom(tSC, msg.sender, address(this), amountSCPtoSell) */\n      jump\t// in\n    tag_171:\n        /* \"WandInstruments.sol\":4765:5586  {\r... */\n      pop\n        /* \"WandInstruments.sol\":4705:5586  function sellScepter(uint256 amountSCPtoSell) public payable{\r... */\n      pop\n      jump\t// out\n        /* \"WandInstruments.sol\":3159:3187  address public treasury2Addr */\n    tag_73:\n      0x07\n      0x00\n      swap1\n      sload\n      swap1\n      0x0100\n      exp\n      swap1\n      div\n      0xffffffffffffffffffffffffffffffffffffffff\n      and\n      dup2\n      jump\t// out\n        /* \"WandInstruments.sol\":3734:3756  IERC20 public mockUSDC */\n    tag_78:\n      0x11\n      0x00\n      swap1\n      sload\n      swap1\n      0x0100\n      exp\n      swap1\n      div\n      0xffffffffffffffffffffffffffffffffffffffff\n      and\n      dup2\n      jump\t// out\n        /* \"WandInstruments.sol\":4388:4572  function queryERC20Balance(address _tokenAddress, address _addressToQuery) view public returns (uint) {\r... */\n    tag_84:\n        /* \"WandInstruments.sol\":4484:4488  uint */\n      0x00\n        /* \"WandInstruments.sol\":4523:4536  _tokenAddress */\n      dup3\n        /* \"WandInstruments.sol\":4508:4547  ERC20Interface(_tokenAddress).balanceOf */\n      0xffffffffffffffffffffffffffffffffffffffff\n      and\n      0x70a08231\n        /* \"WandInstruments.sol\":4548:4563  _addressToQuery */\n      dup4\n        /* \"WandInstruments.sol\":4508:4564  ERC20Interface(_tokenAddress).balanceOf(_addressToQuery) */\n      mload(0x40)\n      dup3\n      0xffffffff\n      and\n      0xe0\n      shl\n      dup2\n      mstore\n      0x04\n      add\n      tag_173\n      swap2\n      swap1\n      tag_75\n      jump\t// in\n    tag_173:\n      0x20\n      mload(0x40)\n      dup1\n      dup4\n      sub\n      dup2\n      dup7\n      dup1\n      extcodesize\n      iszero\n      dup1\n      iszero\n      tag_174\n      jumpi\n      0x00\n      dup1\n      revert\n    tag_174:\n      pop\n      gas\n      staticcall\n      iszero\n      dup1\n      iszero\n      tag_176\n      jumpi\n      returndatasize\n      0x00\n      dup1\n      returndatacopy\n      revert(0x00, returndatasize)\n    tag_176:\n      pop\n      pop\n      pop\n      pop\n      mload(0x40)\n      returndatasize\n      not(0x1f)\n      0x1f\n      dup3\n      add\n      and\n      dup3\n      add\n      dup1\n      0x40\n      mstore\n      pop\n      dup2\n      add\n      swap1\n      tag_177\n      swap2\n      swap1\n      tag_105\n      jump\t// in\n    tag_177:\n        /* \"WandInstruments.sol\":4501:4564  return ERC20Interface(_tokenAddress).balanceOf(_addressToQuery) */\n      swap1\n      pop\n        /* \"WandInstruments.sol\":4388:4572  function queryERC20Balance(address _tokenAddress, address _addressToQuery) view public returns (uint) {\r... */\n      swap3\n      swap2\n      pop\n      pop\n      jump\t// out\n        /* \"WandInstruments.sol\":2874:2901  uint256 public growthFactor */\n    tag_88:\n      sload(0x00)\n      dup2\n      jump\t// out\n        /* \"WandInstruments.sol\":3512:3582  address public testwallet = 0x617F2E2fD72FD9D5503197092aC168c91465E7f2 */\n    tag_92:\n      0x0f\n      0x00\n      swap1\n      sload\n      swap1\n      0x0100\n      exp\n      swap1\n      div\n      0xffffffffffffffffffffffffffffffffffffffff\n      and\n      dup2\n      jump\t// out\n        /* \"WandInstruments.sol\":3124:3152  address public treasury1Addr */\n    tag_96:\n      0x06\n      0x00\n      swap1\n      sload\n      swap1\n      0x0100\n      exp\n      swap1\n      div\n      0xffffffffffffffffffffffffffffffffffffffff\n      and\n      dup2\n      jump\t// out\n        /* \"WandInstruments.sol\":1502:1773  function div(int256 a, int256 b) internal pure returns (int256) {\r... */\n    tag_112:\n        /* \"WandInstruments.sol\":1558:1564  int256 */\n      0x00\n        /* \"WandInstruments.sol\":1590:1591  0 */\n      dup1\n        /* \"WandInstruments.sol\":1585:1586  b */\n      dup3\n        /* \"WandInstruments.sol\":1585:1591  b != 0 */\n      eq\n      iszero\n        /* \"WandInstruments.sol\":1577:1628  require(b != 0, \"SignedSafeMath: division by zero\") */\n      tag_179\n      jumpi\n      mload(0x40)\n      0x08c379a000000000000000000000000000000000000000000000000000000000\n      dup2\n      mstore\n      0x04\n      add\n      tag_180\n      swap1\n      tag_181\n      jump\t// in\n    tag_180:\n      mload(0x40)\n      dup1\n      swap2\n      sub\n      swap1\n      revert\n    tag_179:\n        /* \"WandInstruments.sol\":1654:1656  -1 */\n      0xffffffffffffffffffffffffffffffffffffffffffffffffffffffffffffffff\n        /* \"WandInstruments.sol\":1649:1650  b */\n      dup3\n        /* \"WandInstruments.sol\":1649:1656  b == -1 */\n      eq\n        /* \"WandInstruments.sol\":1649:1676  b == -1 && a == _INT256_MIN */\n      dup1\n      iszero\n      tag_182\n      jumpi\n      pop\n        /* \"WandInstruments.sol\":195:202  -2**255 */\n      0x8000000000000000000000000000000000000000000000000000000000000000\n        /* \"WandInstruments.sol\":1660:1661  a */\n      dup4\n        /* \"WandInstruments.sol\":1660:1676  a == _INT256_MIN */\n      eq\n        /* \"WandInstruments.sol\":1649:1676  b == -1 && a == _INT256_MIN */\n    tag_182:\n        /* \"WandInstruments.sol\":1647:1677  !(b == -1 && a == _INT256_MIN) */\n      iszero\n        /* \"WandInstruments.sol\":1639:1715  require(!(b == -1 && a == _INT256_MIN), \"SignedSafeMath: division overflow\") */\n      tag_183\n      jumpi\n      mload(0x40)\n      0x08c379a000000000000000000000000000000000000000000000000000000000\n      dup2\n      mstore\n      0x04\n      add\n      tag_184\n      swap1\n      tag_185\n      jump\t// in\n    tag_184:\n      mload(0x40)\n      dup1\n      swap2\n      sub\n      swap1\n      revert\n    tag_183:\n        /* \"WandInstruments.sol\":1728:1736  int256 c */\n      0x00\n        /* \"WandInstruments.sol\":1743:1744  b */\n      dup3\n        /* \"WandInstruments.sol\":1739:1740  a */\n      dup5\n        /* \"WandInstruments.sol\":1739:1744  a / b */\n      tag_186\n      swap2\n      swap1\n      tag_187\n      jump\t// in\n    tag_186:\n        /* \"WandInstruments.sol\":1728:1744  int256 c = a / b */\n      swap1\n      pop\n        /* \"WandInstruments.sol\":1764:1765  c */\n      dup1\n        /* \"WandInstruments.sol\":1757:1765  return c */\n      swap2\n      pop\n      pop\n        /* \"WandInstruments.sol\":1502:1773  function div(int256 a, int256 b) internal pure returns (int256) {\r... */\n      swap3\n      swap2\n      pop\n      pop\n      jump\t// out\n        /* \"WandInstruments.sol\":7274:7542  function _safeTransferFrom(\r... */\n    tag_156:\n        /* \"WandInstruments.sol\":7428:7437  bool sent */\n      0x00\n        /* \"WandInstruments.sol\":7440:7445  token */\n      dup5\n        /* \"WandInstruments.sol\":7440:7458  token.transferFrom */\n      0xffffffffffffffffffffffffffffffffffffffff\n      and\n      0x23b872dd\n        /* \"WandInstruments.sol\":7459:7465  sender */\n      dup6\n        /* \"WandInstruments.sol\":7467:7476  recipient */\n      dup6\n        /* \"WandInstruments.sol\":7478:7484  amount */\n      dup6\n        /* \"WandInstruments.sol\":7440:7485  token.transferFrom(sender, recipient, amount) */\n      mload(0x40)\n      dup5\n      0xffffffff\n      and\n      0xe0\n      shl\n      dup2\n      mstore\n      0x04\n      add\n      tag_189\n      swap4\n      swap3\n      swap2\n      swap1\n      tag_190\n      jump\t// in\n    tag_189:\n      0x20\n      mload(0x40)\n      dup1\n      dup4\n      sub\n      dup2\n      0x00\n      dup8\n      dup1\n      extcodesize\n      iszero\n      dup1\n      iszero\n      tag_191\n      jumpi\n      0x00\n      dup1\n      revert\n    tag_191:\n      pop\n      gas\n      call\n      iszero\n      dup1\n      iszero\n      tag_193\n      jumpi\n      returndatasize\n      0x00\n      dup1\n      returndatacopy\n      revert(0x00, returndatasize)\n    tag_193:\n      pop\n      pop\n      pop\n      pop\n      mload(0x40)\n      returndatasize\n      not(0x1f)\n      0x1f\n      dup3\n      add\n      and\n      dup3\n      add\n      dup1\n      0x40\n      mstore\n      pop\n      dup2\n      add\n      swap1\n      tag_194\n      swap2\n      swap1\n      tag_154\n      jump\t// in\n    tag_194:\n        /* \"WandInstruments.sol\":7428:7485  bool sent = token.transferFrom(sender, recipient, amount) */\n      swap1\n      pop\n        /* \"WandInstruments.sol\":7504:7508  sent */\n      dup1\n        /* \"WandInstruments.sol\":7496:7534  require(sent, \"Token transfer failed\") */\n      tag_195\n      jumpi\n      mload(0x40)\n      0x08c379a000000000000000000000000000000000000000000000000000000000\n      dup2\n      mstore\n      0x04\n      add\n      tag_196\n      swap1\n      tag_197\n      jump\t// in\n    tag_196:\n      mload(0x40)\n      dup1\n      swap2\n      sub\n      swap1\n      revert\n    tag_195:\n        /* \"WandInstruments.sol\":7417:7542  {\r... */\n      pop\n        /* \"WandInstruments.sol\":7274:7542  function _safeTransferFrom(\r... */\n      pop\n      pop\n      pop\n      pop\n      jump\t// out\n        /* \"#utility.yul\":7:146   */\n    tag_199:\n        /* \"#utility.yul\":53:58   */\n      0x00\n        /* \"#utility.yul\":91:97   */\n      dup2\n        /* \"#utility.yul\":78:98   */\n      calldataload\n        /* \"#utility.yul\":69:98   */\n      swap1\n      pop\n        /* \"#utility.yul\":107:140   */\n      tag_201\n        /* \"#utility.yul\":134:139   */\n      dup2\n        /* \"#utility.yul\":107:140   */\n      tag_202\n      jump\t// in\n    tag_201:\n        /* \"#utility.yul\":7:146   */\n      swap3\n      swap2\n      pop\n      pop\n      jump\t// out\n        /* \"#utility.yul\":152:289   */\n    tag_203:\n        /* \"#utility.yul\":206:211   */\n      0x00\n        /* \"#utility.yul\":237:243   */\n      dup2\n        /* \"#utility.yul\":231:244   */\n      mload\n        /* \"#utility.yul\":222:244   */\n      swap1\n      pop\n        /* \"#utility.yul\":253:283   */\n      tag_205\n        /* \"#utility.yul\":277:282   */\n      dup2\n        /* \"#utility.yul\":253:283   */\n      tag_206\n      jump\t// in\n    tag_205:\n        /* \"#utility.yul\":152:289   */\n      swap3\n      swap2\n      pop\n      pop\n      jump\t// out\n        /* \"#utility.yul\":295:432   */\n    tag_207:\n        /* \"#utility.yul\":340:345   */\n      0x00\n        /* \"#utility.yul\":378:384   */\n      dup2\n        /* \"#utility.yul\":365:385   */\n      calldataload\n        /* \"#utility.yul\":356:385   */\n      swap1\n      pop\n        /* \"#utility.yul\":394:426   */\n      tag_209\n        /* \"#utility.yul\":420:425   */\n      dup2\n        /* \"#utility.yul\":394:426   */\n      tag_210\n      jump\t// in\n    tag_209:\n        /* \"#utility.yul\":295:432   */\n      swap3\n      swap2\n      pop\n      pop\n      jump\t// out\n        /* \"#utility.yul\":438:577   */\n    tag_211:\n        /* \"#utility.yul\":484:489   */\n      0x00\n        /* \"#utility.yul\":522:528   */\n      dup2\n        /* \"#utility.yul\":509:529   */\n      calldataload\n        /* \"#utility.yul\":500:529   */\n      swap1\n      pop\n        /* \"#utility.yul\":538:571   */\n      tag_213\n        /* \"#utility.yul\":565:570   */\n      dup2\n        /* \"#utility.yul\":538:571   */\n      tag_214\n      jump\t// in\n    tag_213:\n        /* \"#utility.yul\":438:577   */\n      swap3\n      swap2\n      pop\n      pop\n      jump\t// out\n        /* \"#utility.yul\":583:726   */\n    tag_215:\n        /* \"#utility.yul\":640:645   */\n      0x00\n        /* \"#utility.yul\":671:677   */\n      dup2\n        /* \"#utility.yul\":665:678   */\n      mload\n        /* \"#utility.yul\":656:678   */\n      swap1\n      pop\n        /* \"#utility.yul\":687:720   */\n      tag_217\n        /* \"#utility.yul\":714:719   */\n      dup2\n        /* \"#utility.yul\":687:720   */\n      tag_214\n      jump\t// in\n    tag_217:\n        /* \"#utility.yul\":583:726   */\n      swap3\n      swap2\n      pop\n      pop\n      jump\t// out\n        /* \"#utility.yul\":732:1206   */\n    tag_83:\n        /* \"#utility.yul\":800:806   */\n      0x00\n        /* \"#utility.yul\":808:814   */\n      dup1\n        /* \"#utility.yul\":857:859   */\n      0x40\n        /* \"#utility.yul\":845:854   */\n      dup4\n        /* \"#utility.yul\":836:843   */\n      dup6\n        /* \"#utility.yul\":832:855   */\n      sub\n        /* \"#utility.yul\":828:860   */\n      slt\n        /* \"#utility.yul\":825:944   */\n      iszero\n      tag_219\n      jumpi\n        /* \"#utility.yul\":863:942   */\n      tag_220\n      tag_221\n      jump\t// in\n    tag_220:\n        /* \"#utility.yul\":825:944   */\n    tag_219:\n        /* \"#utility.yul\":983:984   */\n      0x00\n        /* \"#utility.yul\":1008:1061   */\n      tag_222\n        /* \"#utility.yul\":1053:1060   */\n      dup6\n        /* \"#utility.yul\":1044:1050   */\n      dup3\n        /* \"#utility.yul\":1033:1042   */\n      dup7\n        /* \"#utility.yul\":1029:1051   */\n      add\n        /* \"#utility.yul\":1008:1061   */\n      tag_199\n      jump\t// in\n    tag_222:\n        /* \"#utility.yul\":998:1061   */\n      swap3\n      pop\n        /* \"#utility.yul\":954:1071   */\n      pop\n        /* \"#utility.yul\":1110:1112   */\n      0x20\n        /* \"#utility.yul\":1136:1189   */\n      tag_223\n        /* \"#utility.yul\":1181:1188   */\n      dup6\n        /* \"#utility.yul\":1172:1178   */\n      dup3\n        /* \"#utility.yul\":1161:1170   */\n      dup7\n        /* \"#utility.yul\":1157:1179   */\n      add\n        /* \"#utility.yul\":1136:1189   */\n      tag_199\n      jump\t// in\n    tag_223:\n        /* \"#utility.yul\":1126:1189   */\n      swap2\n      pop\n        /* \"#utility.yul\":1081:1199   */\n      pop\n        /* \"#utility.yul\":732:1206   */\n      swap3\n      pop\n      swap3\n      swap1\n      pop\n      jump\t// out\n        /* \"#utility.yul\":1212:1557   */\n    tag_154:\n        /* \"#utility.yul\":1279:1285   */\n      0x00\n        /* \"#utility.yul\":1328:1330   */\n      0x20\n        /* \"#utility.yul\":1316:1325   */\n      dup3\n        /* \"#utility.yul\":1307:1314   */\n      dup5\n        /* \"#utility.yul\":1303:1326   */\n      sub\n        /* \"#utility.yul\":1299:1331   */\n      slt\n        /* \"#utility.yul\":1296:1415   */\n      iszero\n      tag_225\n      jumpi\n        /* \"#utility.yul\":1334:1413   */\n      tag_226\n      tag_221\n      jump\t// in\n    tag_226:\n        /* \"#utility.yul\":1296:1415   */\n    tag_225:\n        /* \"#utility.yul\":1454:1455   */\n      0x00\n        /* \"#utility.yul\":1479:1540   */\n      tag_227\n        /* \"#utility.yul\":1532:1539   */\n      dup5\n        /* \"#utility.yul\":1523:1529   */\n      dup3\n        /* \"#utility.yul\":1512:1521   */\n      dup6\n        /* \"#utility.yul\":1508:1530   */\n      add\n        /* \"#utility.yul\":1479:1540   */\n      tag_203\n      jump\t// in\n    tag_227:\n        /* \"#utility.yul\":1469:1540   */\n      swap2\n      pop\n        /* \"#utility.yul\":1425:1550   */\n      pop\n        /* \"#utility.yul\":1212:1557   */\n      swap3\n      swap2\n      pop\n      pop\n      jump\t// out\n        /* \"#utility.yul\":1563:2033   */\n    tag_30:\n        /* \"#utility.yul\":1629:1635   */\n      0x00\n        /* \"#utility.yul\":1637:1643   */\n      dup1\n        /* \"#utility.yul\":1686:1688   */\n      0x40\n        /* \"#utility.yul\":1674:1683   */\n      dup4\n        /* \"#utility.yul\":1665:1672   */\n      dup6\n        /* \"#utility.yul\":1661:1684   */\n      sub\n        /* \"#utility.yul\":1657:1689   */\n      slt\n        /* \"#utility.yul\":1654:1773   */\n      iszero\n      tag_229\n      jumpi\n        /* \"#utility.yul\":1692:1771   */\n      tag_230\n      tag_221\n      jump\t// in\n    tag_230:\n        /* \"#utility.yul\":1654:1773   */\n    tag_229:\n        /* \"#utility.yul\":1812:1813   */\n      0x00\n        /* \"#utility.yul\":1837:1889   */\n      tag_231\n        /* \"#utility.yul\":1881:1888   */\n      dup6\n        /* \"#utility.yul\":1872:1878   */\n      dup3\n        /* \"#utility.yul\":1861:1870   */\n      dup7\n        /* \"#utility.yul\":1857:1879   */\n      add\n        /* \"#utility.yul\":1837:1889   */\n      tag_207\n      jump\t// in\n    tag_231:\n        /* \"#utility.yul\":1827:1889   */\n      swap3\n      pop\n        /* \"#utility.yul\":1783:1899   */\n      pop\n        /* \"#utility.yul\":1938:1940   */\n      0x20\n        /* \"#utility.yul\":1964:2016   */\n      tag_232\n        /* \"#utility.yul\":2008:2015   */\n      dup6\n        /* \"#utility.yul\":1999:2005   */\n      dup3\n        /* \"#utility.yul\":1988:1997   */\n      dup7\n        /* \"#utility.yul\":1984:2006   */\n      add\n        /* \"#utility.yul\":1964:2016   */\n      tag_207\n      jump\t// in\n    tag_232:\n        /* \"#utility.yul\":1954:2016   */\n      swap2\n      pop\n        /* \"#utility.yul\":1909:2026   */\n      pop\n        /* \"#utility.yul\":1563:2033   */\n      swap3\n      pop\n      swap3\n      swap1\n      pop\n      jump\t// out\n        /* \"#utility.yul\":2039:2368   */\n    tag_41:\n        /* \"#utility.yul\":2098:2104   */\n      0x00\n        /* \"#utility.yul\":2147:2149   */\n      0x20\n        /* \"#utility.yul\":2135:2144   */\n      dup3\n        /* \"#utility.yul\":2126:2133   */\n      dup5\n        /* \"#utility.yul\":2122:2145   */\n      sub\n        /* \"#utility.yul\":2118:2150   */\n      slt\n        /* \"#utility.yul\":2115:2234   */\n      iszero\n      tag_234\n      jumpi\n        /* \"#utility.yul\":2153:2232   */\n      tag_235\n      tag_221\n      jump\t// in\n    tag_235:\n        /* \"#utility.yul\":2115:2234   */\n    tag_234:\n        /* \"#utility.yul\":2273:2274   */\n      0x00\n        /* \"#utility.yul\":2298:2351   */\n      tag_236\n        /* \"#utility.yul\":2343:2350   */\n      dup5\n        /* \"#utility.yul\":2334:2340   */\n      dup3\n        /* \"#utility.yul\":2323:2332   */\n      dup6\n        /* \"#utility.yul\":2319:2341   */\n      add\n        /* \"#utility.yul\":2298:2351   */\n      tag_211\n      jump\t// in\n    tag_236:\n        /* \"#utility.yul\":2288:2351   */\n      swap2\n      pop\n        /* \"#utility.yul\":2244:2361   */\n      pop\n        /* \"#utility.yul\":2039:2368   */\n      swap3\n      swap2\n      pop\n      pop\n      jump\t// out\n        /* \"#utility.yul\":2374:2725   */\n    tag_105:\n        /* \"#utility.yul\":2444:2450   */\n      0x00\n        /* \"#utility.yul\":2493:2495   */\n      0x20\n        /* \"#utility.yul\":2481:2490   */\n      dup3\n        /* \"#utility.yul\":2472:2479   */\n      dup5\n        /* \"#utility.yul\":2468:2491   */\n      sub\n        /* \"#utility.yul\":2464:2496   */\n      slt\n        /* \"#utility.yul\":2461:2580   */\n      iszero\n      tag_238\n      jumpi\n        /* \"#utility.yul\":2499:2578   */\n      tag_239\n      tag_221\n      jump\t// in\n    tag_239:\n        /* \"#utility.yul\":2461:2580   */\n    tag_238:\n        /* \"#utility.yul\":2619:2620   */\n      0x00\n        /* \"#utility.yul\":2644:2708   */\n      tag_240\n        /* \"#utility.yul\":2700:2707   */\n      dup5\n        /* \"#utility.yul\":2691:2697   */\n      dup3\n        /* \"#utility.yul\":2680:2689   */\n      dup6\n        /* \"#utility.yul\":2676:2698   */\n      add\n        /* \"#utility.yul\":2644:2708   */\n      tag_215\n      jump\t// in\n    tag_240:\n        /* \"#utility.yul\":2634:2708   */\n      swap2\n      pop\n        /* \"#utility.yul\":2590:2718   */\n      pop\n        /* \"#utility.yul\":2374:2725   */\n      swap3\n      swap2\n      pop\n      pop\n      jump\t// out\n        /* \"#utility.yul\":2731:2849   */\n    tag_241:\n        /* \"#utility.yul\":2818:2842   */\n      tag_243\n        /* \"#utility.yul\":2836:2841   */\n      dup2\n        /* \"#utility.yul\":2818:2842   */\n      tag_244\n      jump\t// in\n    tag_243:\n        /* \"#utility.yul\":2813:2816   */\n      dup3\n        /* \"#utility.yul\":2806:2843   */\n      mstore\n        /* \"#utility.yul\":2731:2849   */\n      pop\n      pop\n      jump\t// out\n        /* \"#utility.yul\":2855:3016   */\n    tag_245:\n        /* \"#utility.yul\":2957:3009   */\n      tag_247\n        /* \"#utility.yul\":3003:3008   */\n      dup2\n        /* \"#utility.yul\":2957:3009   */\n      tag_248\n      jump\t// in\n    tag_247:\n        /* \"#utility.yul\":2952:2955   */\n      dup3\n        /* \"#utility.yul\":2945:3010   */\n      mstore\n        /* \"#utility.yul\":2855:3016   */\n      pop\n      pop\n      jump\t// out\n        /* \"#utility.yul\":3022:3137   */\n    tag_249:\n        /* \"#utility.yul\":3107:3130   */\n      tag_251\n        /* \"#utility.yul\":3124:3129   */\n      dup2\n        /* \"#utility.yul\":3107:3130   */\n      tag_252\n      jump\t// in\n    tag_251:\n        /* \"#utility.yul\":3102:3105   */\n      dup3\n        /* \"#utility.yul\":3095:3131   */\n      mstore\n        /* \"#utility.yul\":3022:3137   */\n      pop\n      pop\n      jump\t// out\n        /* \"#utility.yul\":3143:3258   */\n    tag_253:\n        /* \"#utility.yul\":3228:3251   */\n      tag_255\n        /* \"#utility.yul\":3245:3250   */\n      dup2\n        /* \"#utility.yul\":3228:3251   */\n      tag_256\n      jump\t// in\n    tag_255:\n        /* \"#utility.yul\":3223:3226   */\n      dup3\n        /* \"#utility.yul\":3216:3252   */\n      mstore\n        /* \"#utility.yul\":3143:3258   */\n      pop\n      pop\n      jump\t// out\n        /* \"#utility.yul\":3264:3630   */\n    tag_257:\n        /* \"#utility.yul\":3406:3409   */\n      0x00\n        /* \"#utility.yul\":3427:3494   */\n      tag_259\n        /* \"#utility.yul\":3491:3493   */\n      0x15\n        /* \"#utility.yul\":3486:3489   */\n      dup4\n        /* \"#utility.yul\":3427:3494   */\n      tag_260\n      jump\t// in\n    tag_259:\n        /* \"#utility.yul\":3420:3494   */\n      swap2\n      pop\n        /* \"#utility.yul\":3503:3596   */\n      tag_261\n        /* \"#utility.yul\":3592:3595   */\n      dup3\n        /* \"#utility.yul\":3503:3596   */\n      tag_262\n      jump\t// in\n    tag_261:\n        /* \"#utility.yul\":3621:3623   */\n      0x20\n        /* \"#utility.yul\":3616:3619   */\n      dup3\n        /* \"#utility.yul\":3612:3624   */\n      add\n        /* \"#utility.yul\":3605:3624   */\n      swap1\n      pop\n        /* \"#utility.yul\":3264:3630   */\n      swap2\n      swap1\n      pop\n      jump\t// out\n        /* \"#utility.yul\":3636:4002   */\n    tag_263:\n        /* \"#utility.yul\":3778:3781   */\n      0x00\n        /* \"#utility.yul\":3799:3866   */\n      tag_265\n        /* \"#utility.yul\":3863:3865   */\n      0x21\n        /* \"#utility.yul\":3858:3861   */\n      dup4\n        /* \"#utility.yul\":3799:3866   */\n      tag_260\n      jump\t// in\n    tag_265:\n        /* \"#utility.yul\":3792:3866   */\n      swap2\n      pop\n        /* \"#utility.yul\":3875:3968   */\n      tag_266\n        /* \"#utility.yul\":3964:3967   */\n      dup3\n        /* \"#utility.yul\":3875:3968   */\n      tag_267\n      jump\t// in\n    tag_266:\n        /* \"#utility.yul\":3993:3995   */\n      0x40\n        /* \"#utility.yul\":3988:3991   */\n      dup3\n        /* \"#utility.yul\":3984:3996   */\n      add\n        /* \"#utility.yul\":3977:3996   */\n      swap1\n      pop\n        /* \"#utility.yul\":3636:4002   */\n      swap2\n      swap1\n      pop\n      jump\t// out\n        /* \"#utility.yul\":4008:4374   */\n    tag_268:\n        /* \"#utility.yul\":4150:4153   */\n      0x00\n        /* \"#utility.yul\":4171:4238   */\n      tag_270\n        /* \"#utility.yul\":4235:4237   */\n      0x1a\n        /* \"#utility.yul\":4230:4233   */\n      dup4\n        /* \"#utility.yul\":4171:4238   */\n      tag_260\n      jump\t// in\n    tag_270:\n        /* \"#utility.yul\":4164:4238   */\n      swap2\n      pop\n        /* \"#utility.yul\":4247:4340   */\n      tag_271\n        /* \"#utility.yul\":4336:4339   */\n      dup3\n        /* \"#utility.yul\":4247:4340   */\n      tag_272\n      jump\t// in\n    tag_271:\n        /* \"#utility.yul\":4365:4367   */\n      0x20\n        /* \"#utility.yul\":4360:4363   */\n      dup3\n        /* \"#utility.yul\":4356:4368   */\n      add\n        /* \"#utility.yul\":4349:4368   */\n      swap1\n      pop\n        /* \"#utility.yul\":4008:4374   */\n      swap2\n      swap1\n      pop\n      jump\t// out\n        /* \"#utility.yul\":4380:4746   */\n    tag_273:\n        /* \"#utility.yul\":4522:4525   */\n      0x00\n        /* \"#utility.yul\":4543:4610   */\n      tag_275\n        /* \"#utility.yul\":4607:4609   */\n      0x20\n        /* \"#utility.yul\":4602:4605   */\n      dup4\n        /* \"#utility.yul\":4543:4610   */\n      tag_260\n      jump\t// in\n    tag_275:\n        /* \"#utility.yul\":4536:4610   */\n      swap2\n      pop\n        /* \"#utility.yul\":4619:4712   */\n      tag_276\n        /* \"#utility.yul\":4708:4711   */\n      dup3\n        /* \"#utility.yul\":4619:4712   */\n      tag_277\n      jump\t// in\n    tag_276:\n        /* \"#utility.yul\":4737:4739   */\n      0x20\n        /* \"#utility.yul\":4732:4735   */\n      dup3\n        /* \"#utility.yul\":4728:4740   */\n      add\n        /* \"#utility.yul\":4721:4740   */\n      swap1\n      pop\n        /* \"#utility.yul\":4380:4746   */\n      swap2\n      swap1\n      pop\n      jump\t// out\n        /* \"#utility.yul\":4752:4870   */\n    tag_278:\n        /* \"#utility.yul\":4839:4863   */\n      tag_280\n        /* \"#utility.yul\":4857:4862   */\n      dup2\n        /* \"#utility.yul\":4839:4863   */\n      tag_281\n      jump\t// in\n    tag_280:\n        /* \"#utility.yul\":4834:4837   */\n      dup3\n        /* \"#utility.yul\":4827:4864   */\n      mstore\n        /* \"#utility.yul\":4752:4870   */\n      pop\n      pop\n      jump\t// out\n        /* \"#utility.yul\":4876:5098   */\n    tag_75:\n        /* \"#utility.yul\":4969:4973   */\n      0x00\n        /* \"#utility.yul\":5007:5009   */\n      0x20\n        /* \"#utility.yul\":4996:5005   */\n      dup3\n        /* \"#utility.yul\":4992:5010   */\n      add\n        /* \"#utility.yul\":4984:5010   */\n      swap1\n      pop\n        /* \"#utility.yul\":5020:5091   */\n      tag_283\n        /* \"#utility.yul\":5088:5089   */\n      0x00\n        /* \"#utility.yul\":5077:5086   */\n      dup4\n        /* \"#utility.yul\":5073:5090   */\n      add\n        /* \"#utility.yul\":5064:5070   */\n      dup5\n        /* \"#utility.yul\":5020:5091   */\n      tag_241\n      jump\t// in\n    tag_283:\n        /* \"#utility.yul\":4876:5098   */\n      swap3\n      swap2\n      pop\n      pop\n      jump\t// out\n        /* \"#utility.yul\":5104:5546   */\n    tag_190:\n        /* \"#utility.yul\":5253:5257   */\n      0x00\n        /* \"#utility.yul\":5291:5293   */\n      0x60\n        /* \"#utility.yul\":5280:5289   */\n      dup3\n        /* \"#utility.yul\":5276:5294   */\n      add\n        /* \"#utility.yul\":5268:5294   */\n      swap1\n      pop\n        /* \"#utility.yul\":5304:5375   */\n      tag_285\n        /* \"#utility.yul\":5372:5373   */\n      0x00\n        /* \"#utility.yul\":5361:5370   */\n      dup4\n        /* \"#utility.yul\":5357:5374   */\n      add\n        /* \"#utility.yul\":5348:5354   */\n      dup7\n        /* \"#utility.yul\":5304:5375   */\n      tag_241\n      jump\t// in\n    tag_285:\n        /* \"#utility.yul\":5385:5457   */\n      tag_286\n        /* \"#utility.yul\":5453:5455   */\n      0x20\n        /* \"#utility.yul\":5442:5451   */\n      dup4\n        /* \"#utility.yul\":5438:5456   */\n      add\n        /* \"#utility.yul\":5429:5435   */\n      dup6\n        /* \"#utility.yul\":5385:5457   */\n      tag_241\n      jump\t// in\n    tag_286:\n        /* \"#utility.yul\":5467:5539   */\n      tag_287\n        /* \"#utility.yul\":5535:5537   */\n      0x40\n        /* \"#utility.yul\":5524:5533   */\n      dup4\n        /* \"#utility.yul\":5520:5538   */\n      add\n        /* \"#utility.yul\":5511:5517   */\n      dup5\n        /* \"#utility.yul\":5467:5539   */\n      tag_278\n      jump\t// in\n    tag_287:\n        /* \"#utility.yul\":5104:5546   */\n      swap5\n      swap4\n      pop\n      pop\n      pop\n      pop\n      jump\t// out\n        /* \"#utility.yul\":5552:5884   */\n    tag_127:\n        /* \"#utility.yul\":5673:5677   */\n      0x00\n        /* \"#utility.yul\":5711:5713   */\n      0x40\n        /* \"#utility.yul\":5700:5709   */\n      dup3\n        /* \"#utility.yul\":5696:5714   */\n      add\n        /* \"#utility.yul\":5688:5714   */\n      swap1\n      pop\n        /* \"#utility.yul\":5724:5795   */\n      tag_289\n        /* \"#utility.yul\":5792:5793   */\n      0x00\n        /* \"#utility.yul\":5781:5790   */\n      dup4\n        /* \"#utility.yul\":5777:5794   */\n      add\n        /* \"#utility.yul\":5768:5774   */\n      dup6\n        /* \"#utility.yul\":5724:5795   */\n      tag_241\n      jump\t// in\n    tag_289:\n        /* \"#utility.yul\":5805:5877   */\n      tag_290\n        /* \"#utility.yul\":5873:5875   */\n      0x20\n        /* \"#utility.yul\":5862:5871   */\n      dup4\n        /* \"#utility.yul\":5858:5876   */\n      add\n        /* \"#utility.yul\":5849:5855   */\n      dup5\n        /* \"#utility.yul\":5805:5877   */\n      tag_278\n      jump\t// in\n    tag_290:\n        /* \"#utility.yul\":5552:5884   */\n      swap4\n      swap3\n      pop\n      pop\n      pop\n      jump\t// out\n        /* \"#utility.yul\":5890:6142   */\n    tag_58:\n        /* \"#utility.yul\":5998:6002   */\n      0x00\n        /* \"#utility.yul\":6036:6038   */\n      0x20\n        /* \"#utility.yul\":6025:6034   */\n      dup3\n        /* \"#utility.yul\":6021:6039   */\n      add\n        /* \"#utility.yul\":6013:6039   */\n      swap1\n      pop\n        /* \"#utility.yul\":6049:6135   */\n      tag_292\n        /* \"#utility.yul\":6132:6133   */\n      0x00\n        /* \"#utility.yul\":6121:6130   */\n      dup4\n        /* \"#utility.yul\":6117:6134   */\n      add\n        /* \"#utility.yul\":6108:6114   */\n      dup5\n        /* \"#utility.yul\":6049:6135   */\n      tag_245\n      jump\t// in\n    tag_292:\n        /* \"#utility.yul\":5890:6142   */\n      swap3\n      swap2\n      pop\n      pop\n      jump\t// out\n        /* \"#utility.yul\":6148:6366   */\n    tag_63:\n        /* \"#utility.yul\":6239:6243   */\n      0x00\n        /* \"#utility.yul\":6277:6279   */\n      0x20\n        /* \"#utility.yul\":6266:6275   */\n      dup3\n        /* \"#utility.yul\":6262:6280   */\n      add\n        /* \"#utility.yul\":6254:6280   */\n      swap1\n      pop\n        /* \"#utility.yul\":6290:6359   */\n      tag_294\n        /* \"#utility.yul\":6356:6357   */\n      0x00\n        /* \"#utility.yul\":6345:6354   */\n      dup4\n        /* \"#utility.yul\":6341:6358   */\n      add\n        /* \"#utility.yul\":6332:6338   */\n      dup5\n        /* \"#utility.yul\":6290:6359   */\n      tag_249\n      jump\t// in\n    tag_294:\n        /* \"#utility.yul\":6148:6366   */\n      swap3\n      swap2\n      pop\n      pop\n      jump\t// out\n        /* \"#utility.yul\":6372:6590   */\n    tag_33:\n        /* \"#utility.yul\":6463:6467   */\n      0x00\n        /* \"#utility.yul\":6501:6503   */\n      0x20\n        /* \"#utility.yul\":6490:6499   */\n      dup3\n        /* \"#utility.yul\":6486:6504   */\n      add\n        /* \"#utility.yul\":6478:6504   */\n      swap1\n      pop\n        /* \"#utility.yul\":6514:6583   */\n      tag_296\n        /* \"#utility.yul\":6580:6581   */\n      0x00\n        /* \"#utility.yul\":6569:6578   */\n      dup4\n        /* \"#utility.yul\":6565:6582   */\n      add\n        /* \"#utility.yul\":6556:6562   */\n      dup5\n        /* \"#utility.yul\":6514:6583   */\n      tag_253\n      jump\t// in\n    tag_296:\n        /* \"#utility.yul\":6372:6590   */\n      swap3\n      swap2\n      pop\n      pop\n      jump\t// out\n        /* \"#utility.yul\":6596:7015   */\n    tag_197:\n        /* \"#utility.yul\":6762:6766   */\n      0x00\n        /* \"#utility.yul\":6800:6802   */\n      0x20\n        /* \"#utility.yul\":6789:6798   */\n      dup3\n        /* \"#utility.yul\":6785:6803   */\n      add\n        /* \"#utility.yul\":6777:6803   */\n      swap1\n      pop\n        /* \"#utility.yul\":6849:6858   */\n      dup2\n        /* \"#utility.yul\":6843:6847   */\n      dup2\n        /* \"#utility.yul\":6839:6859   */\n      sub\n        /* \"#utility.yul\":6835:6836   */\n      0x00\n        /* \"#utility.yul\":6824:6833   */\n      dup4\n        /* \"#utility.yul\":6820:6837   */\n      add\n        /* \"#utility.yul\":6813:6860   */\n      mstore\n        /* \"#utility.yul\":6877:7008   */\n      tag_298\n        /* \"#utility.yul\":7003:7007   */\n      dup2\n        /* \"#utility.yul\":6877:7008   */\n      tag_257\n      jump\t// in\n    tag_298:\n        /* \"#utility.yul\":6869:7008   */\n      swap1\n      pop\n        /* \"#utility.yul\":6596:7015   */\n      swap2\n      swap1\n      pop\n      jump\t// out\n        /* \"#utility.yul\":7021:7440   */\n    tag_185:\n        /* \"#utility.yul\":7187:7191   */\n      0x00\n        /* \"#utility.yul\":7225:7227   */\n      0x20\n        /* \"#utility.yul\":7214:7223   */\n      dup3\n        /* \"#utility.yul\":7210:7228   */\n      add\n        /* \"#utility.yul\":7202:7228   */\n      swap1\n      pop\n        /* \"#utility.yul\":7274:7283   */\n      dup2\n        /* \"#utility.yul\":7268:7272   */\n      dup2\n        /* \"#utility.yul\":7264:7284   */\n      sub\n        /* \"#utility.yul\":7260:7261   */\n      0x00\n        /* \"#utility.yul\":7249:7258   */\n      dup4\n        /* \"#utility.yul\":7245:7262   */\n      add\n        /* \"#utility.yul\":7238:7285   */\n      mstore\n        /* \"#utility.yul\":7302:7433   */\n      tag_300\n        /* \"#utility.yul\":7428:7432   */\n      dup2\n        /* \"#utility.yul\":7302:7433   */\n      tag_263\n      jump\t// in\n    tag_300:\n        /* \"#utility.yul\":7294:7433   */\n      swap1\n      pop\n        /* \"#utility.yul\":7021:7440   */\n      swap2\n      swap1\n      pop\n      jump\t// out\n        /* \"#utility.yul\":7446:7865   */\n    tag_148:\n        /* \"#utility.yul\":7612:7616   */\n      0x00\n        /* \"#utility.yul\":7650:7652   */\n      0x20\n        /* \"#utility.yul\":7639:7648   */\n      dup3\n        /* \"#utility.yul\":7635:7653   */\n      add\n        /* \"#utility.yul\":7627:7653   */\n      swap1\n      pop\n        /* \"#utility.yul\":7699:7708   */\n      dup2\n        /* \"#utility.yul\":7693:7697   */\n      dup2\n        /* \"#utility.yul\":7689:7709   */\n      sub\n        /* \"#utility.yul\":7685:7686   */\n      0x00\n        /* \"#utility.yul\":7674:7683   */\n      dup4\n        /* \"#utility.yul\":7670:7687   */\n      add\n        /* \"#utility.yul\":7663:7710   */\n      mstore\n        /* \"#utility.yul\":7727:7858   */\n      tag_302\n        /* \"#utility.yul\":7853:7857   */\n      dup2\n        /* \"#utility.yul\":7727:7858   */\n      tag_268\n      jump\t// in\n    tag_302:\n        /* \"#utility.yul\":7719:7858   */\n      swap1\n      pop\n        /* \"#utility.yul\":7446:7865   */\n      swap2\n      swap1\n      pop\n      jump\t// out\n        /* \"#utility.yul\":7871:8290   */\n    tag_181:\n        /* \"#utility.yul\":8037:8041   */\n      0x00\n        /* \"#utility.yul\":8075:8077   */\n      0x20\n        /* \"#utility.yul\":8064:8073   */\n      dup3\n        /* \"#utility.yul\":8060:8078   */\n      add\n        /* \"#utility.yul\":8052:8078   */\n      swap1\n      pop\n        /* \"#utility.yul\":8124:8133   */\n      dup2\n        /* \"#utility.yul\":8118:8122   */\n      dup2\n        /* \"#utility.yul\":8114:8134   */\n      sub\n        /* \"#utility.yul\":8110:8111   */\n      0x00\n        /* \"#utility.yul\":8099:8108   */\n      dup4\n        /* \"#utility.yul\":8095:8112   */\n      add\n        /* \"#utility.yul\":8088:8135   */\n      mstore\n        /* \"#utility.yul\":8152:8283   */\n      tag_304\n        /* \"#utility.yul\":8278:8282   */\n      dup2\n        /* \"#utility.yul\":8152:8283   */\n      tag_273\n      jump\t// in\n    tag_304:\n        /* \"#utility.yul\":8144:8283   */\n      swap1\n      pop\n        /* \"#utility.yul\":7871:8290   */\n      swap2\n      swap1\n      pop\n      jump\t// out\n        /* \"#utility.yul\":8296:8518   */\n    tag_26:\n        /* \"#utility.yul\":8389:8393   */\n      0x00\n        /* \"#utility.yul\":8427:8429   */\n      0x20\n        /* \"#utility.yul\":8416:8425   */\n      dup3\n        /* \"#utility.yul\":8412:8430   */\n      add\n        /* \"#utility.yul\":8404:8430   */\n      swap1\n      pop\n        /* \"#utility.yul\":8440:8511   */\n      tag_306\n        /* \"#utility.yul\":8508:8509   */\n      0x00\n        /* \"#utility.yul\":8497:8506   */\n      dup4\n        /* \"#utility.yul\":8493:8510   */\n      add\n        /* \"#utility.yul\":8484:8490   */\n      dup5\n        /* \"#utility.yul\":8440:8511   */\n      tag_278\n      jump\t// in\n    tag_306:\n        /* \"#utility.yul\":8296:8518   */\n      swap3\n      swap2\n      pop\n      pop\n      jump\t// out\n        /* \"#utility.yul\":8605:8774   */\n    tag_260:\n        /* \"#utility.yul\":8689:8700   */\n      0x00\n        /* \"#utility.yul\":8723:8729   */\n      dup3\n        /* \"#utility.yul\":8718:8721   */\n      dup3\n        /* \"#utility.yul\":8711:8730   */\n      mstore\n        /* \"#utility.yul\":8763:8767   */\n      0x20\n        /* \"#utility.yul\":8758:8761   */\n      dup3\n        /* \"#utility.yul\":8754:8768   */\n      add\n        /* \"#utility.yul\":8739:8768   */\n      swap1\n      pop\n        /* \"#utility.yul\":8605:8774   */\n      swap3\n      swap2\n      pop\n      pop\n      jump\t// out\n        /* \"#utility.yul\":8780:9085   */\n    tag_133:\n        /* \"#utility.yul\":8820:8823   */\n      0x00\n        /* \"#utility.yul\":8839:8859   */\n      tag_311\n        /* \"#utility.yul\":8857:8858   */\n      dup3\n        /* \"#utility.yul\":8839:8859   */\n      tag_281\n      jump\t// in\n    tag_311:\n        /* \"#utility.yul\":8834:8859   */\n      swap2\n      pop\n        /* \"#utility.yul\":8873:8893   */\n      tag_312\n        /* \"#utility.yul\":8891:8892   */\n      dup4\n        /* \"#utility.yul\":8873:8893   */\n      tag_281\n      jump\t// in\n    tag_312:\n        /* \"#utility.yul\":8868:8893   */\n      swap3\n      pop\n        /* \"#utility.yul\":9027:9028   */\n      dup3\n        /* \"#utility.yul\":8959:9025   */\n      0xffffffffffffffffffffffffffffffffffffffffffffffffffffffffffffffff\n        /* \"#utility.yul\":8955:9029   */\n      sub\n        /* \"#utility.yul\":8952:8953   */\n      dup3\n        /* \"#utility.yul\":8949:9030   */\n      gt\n        /* \"#utility.yul\":8946:9053   */\n      iszero\n      tag_313\n      jumpi\n        /* \"#utility.yul\":9033:9051   */\n      tag_314\n      tag_315\n      jump\t// in\n    tag_314:\n        /* \"#utility.yul\":8946:9053   */\n    tag_313:\n        /* \"#utility.yul\":9077:9078   */\n      dup3\n        /* \"#utility.yul\":9074:9075   */\n      dup3\n        /* \"#utility.yul\":9070:9079   */\n      add\n        /* \"#utility.yul\":9063:9079   */\n      swap1\n      pop\n        /* \"#utility.yul\":8780:9085   */\n      swap3\n      swap2\n      pop\n      pop\n      jump\t// out\n        /* \"#utility.yul\":9091:9476   */\n    tag_187:\n        /* \"#utility.yul\":9130:9131   */\n      0x00\n        /* \"#utility.yul\":9147:9166   */\n      tag_317\n        /* \"#utility.yul\":9164:9165   */\n      dup3\n        /* \"#utility.yul\":9147:9166   */\n      tag_256\n      jump\t// in\n    tag_317:\n        /* \"#utility.yul\":9142:9166   */\n      swap2\n      pop\n        /* \"#utility.yul\":9180:9199   */\n      tag_318\n        /* \"#utility.yul\":9197:9198   */\n      dup4\n        /* \"#utility.yul\":9180:9199   */\n      tag_256\n      jump\t// in\n    tag_318:\n        /* \"#utility.yul\":9175:9199   */\n      swap3\n      pop\n        /* \"#utility.yul\":9218:9219   */\n      dup3\n        /* \"#utility.yul\":9208:9243   */\n      tag_319\n      jumpi\n        /* \"#utility.yul\":9223:9241   */\n      tag_320\n      tag_321\n      jump\t// in\n    tag_320:\n        /* \"#utility.yul\":9208:9243   */\n    tag_319:\n        /* \"#utility.yul\":9409:9410   */\n      0x01\n        /* \"#utility.yul\":9406:9407   */\n      0x00\n        /* \"#utility.yul\":9402:9411   */\n      sub\n        /* \"#utility.yul\":9399:9400   */\n      dup4\n        /* \"#utility.yul\":9396:9412   */\n      eq\n        /* \"#utility.yul\":9315:9381   */\n      0x8000000000000000000000000000000000000000000000000000000000000000\n        /* \"#utility.yul\":9312:9313   */\n      dup4\n        /* \"#utility.yul\":9309:9382   */\n      eq\n        /* \"#utility.yul\":9292:9422   */\n      and\n        /* \"#utility.yul\":9289:9445   */\n      iszero\n      tag_322\n      jumpi\n        /* \"#utility.yul\":9425:9443   */\n      tag_323\n      tag_315\n      jump\t// in\n    tag_323:\n        /* \"#utility.yul\":9289:9445   */\n    tag_322:\n        /* \"#utility.yul\":9468:9469   */\n      dup3\n        /* \"#utility.yul\":9465:9466   */\n      dup3\n        /* \"#utility.yul\":9460:9470   */\n      sdiv\n        /* \"#utility.yul\":9455:9470   */\n      swap1\n      pop\n        /* \"#utility.yul\":9091:9476   */\n      swap3\n      swap2\n      pop\n      pop\n      jump\t// out\n        /* \"#utility.yul\":9482:9667   */\n    tag_109:\n        /* \"#utility.yul\":9522:9523   */\n      0x00\n        /* \"#utility.yul\":9539:9559   */\n      tag_325\n        /* \"#utility.yul\":9557:9558   */\n      dup3\n        /* \"#utility.yul\":9539:9559   */\n      tag_281\n      jump\t// in\n    tag_325:\n        /* \"#utility.yul\":9534:9559   */\n      swap2\n      pop\n        /* \"#utility.yul\":9573:9593   */\n      tag_326\n        /* \"#utility.yul\":9591:9592   */\n      dup4\n        /* \"#utility.yul\":9573:9593   */\n      tag_281\n      jump\t// in\n    tag_326:\n        /* \"#utility.yul\":9568:9593   */\n      swap3\n      pop\n        /* \"#utility.yul\":9612:9613   */\n      dup3\n        /* \"#utility.yul\":9602:9637   */\n      tag_327\n      jumpi\n        /* \"#utility.yul\":9617:9635   */\n      tag_328\n      tag_321\n      jump\t// in\n    tag_328:\n        /* \"#utility.yul\":9602:9637   */\n    tag_327:\n        /* \"#utility.yul\":9659:9660   */\n      dup3\n        /* \"#utility.yul\":9656:9657   */\n      dup3\n        /* \"#utility.yul\":9652:9661   */\n      div\n        /* \"#utility.yul\":9647:9661   */\n      swap1\n      pop\n        /* \"#utility.yul\":9482:9667   */\n      swap3\n      swap2\n      pop\n      pop\n      jump\t// out\n        /* \"#utility.yul\":9673:10664   */\n    tag_115:\n        /* \"#utility.yul\":9712:9719   */\n      0x00\n        /* \"#utility.yul\":9735:9754   */\n      tag_330\n        /* \"#utility.yul\":9752:9753   */\n      dup3\n        /* \"#utility.yul\":9735:9754   */\n      tag_256\n      jump\t// in\n    tag_330:\n        /* \"#utility.yul\":9730:9754   */\n      swap2\n      pop\n        /* \"#utility.yul\":9768:9787   */\n      tag_331\n        /* \"#utility.yul\":9785:9786   */\n      dup4\n        /* \"#utility.yul\":9768:9787   */\n      tag_256\n      jump\t// in\n    tag_331:\n        /* \"#utility.yul\":9763:9787   */\n      swap3\n      pop\n        /* \"#utility.yul\":9969:9970   */\n      dup3\n        /* \"#utility.yul\":9901:9967   */\n      0x7fffffffffffffffffffffffffffffffffffffffffffffffffffffffffffffff\n        /* \"#utility.yul\":9897:9971   */\n      div\n        /* \"#utility.yul\":9894:9895   */\n      dup3\n        /* \"#utility.yul\":9891:9972   */\n      gt\n        /* \"#utility.yul\":9886:9887   */\n      0x00\n        /* \"#utility.yul\":9883:9884   */\n      dup5\n        /* \"#utility.yul\":9879:9888   */\n      sgt\n        /* \"#utility.yul\":9875:9876   */\n      0x00\n        /* \"#utility.yul\":9872:9873   */\n      dup5\n        /* \"#utility.yul\":9868:9877   */\n      sgt\n        /* \"#utility.yul\":9864:9889   */\n      and\n        /* \"#utility.yul\":9860:9973   */\n      and\n        /* \"#utility.yul\":9857:9996   */\n      iszero\n      tag_332\n      jumpi\n        /* \"#utility.yul\":9976:9994   */\n      tag_333\n      tag_315\n      jump\t// in\n    tag_333:\n        /* \"#utility.yul\":9857:9996   */\n    tag_332:\n        /* \"#utility.yul\":10180:10181   */\n      dup2\n        /* \"#utility.yul\":10112:10178   */\n      0x8000000000000000000000000000000000000000000000000000000000000000\n        /* \"#utility.yul\":10107:10182   */\n      sdiv\n        /* \"#utility.yul\":10104:10105   */\n      dup4\n        /* \"#utility.yul\":10100:10183   */\n      slt\n        /* \"#utility.yul\":10095:10096   */\n      0x00\n        /* \"#utility.yul\":10092:10093   */\n      dup5\n        /* \"#utility.yul\":10088:10097   */\n      slt\n        /* \"#utility.yul\":10084:10085   */\n      0x00\n        /* \"#utility.yul\":10081:10082   */\n      dup5\n        /* \"#utility.yul\":10077:10086   */\n      sgt\n        /* \"#utility.yul\":10073:10098   */\n      and\n        /* \"#utility.yul\":10069:10184   */\n      and\n        /* \"#utility.yul\":10066:10207   */\n      iszero\n      tag_334\n      jumpi\n        /* \"#utility.yul\":10187:10205   */\n      tag_335\n      tag_315\n      jump\t// in\n    tag_335:\n        /* \"#utility.yul\":10066:10207   */\n    tag_334:\n        /* \"#utility.yul\":10391:10392   */\n      dup3\n        /* \"#utility.yul\":10323:10389   */\n      0x8000000000000000000000000000000000000000000000000000000000000000\n        /* \"#utility.yul\":10318:10393   */\n      sdiv\n        /* \"#utility.yul\":10315:10316   */\n      dup3\n        /* \"#utility.yul\":10311:10394   */\n      slt\n        /* \"#utility.yul\":10306:10307   */\n      0x00\n        /* \"#utility.yul\":10303:10304   */\n      dup5\n        /* \"#utility.yul\":10299:10308   */\n      sgt\n        /* \"#utility.yul\":10295:10296   */\n      0x00\n        /* \"#utility.yul\":10292:10293   */\n      dup5\n        /* \"#utility.yul\":10288:10297   */\n      slt\n        /* \"#utility.yul\":10284:10309   */\n      and\n        /* \"#utility.yul\":10280:10395   */\n      and\n        /* \"#utility.yul\":10277:10418   */\n      iszero\n      tag_336\n      jumpi\n        /* \"#utility.yul\":10398:10416   */\n      tag_337\n      tag_315\n      jump\t// in\n    tag_337:\n        /* \"#utility.yul\":10277:10418   */\n    tag_336:\n        /* \"#utility.yul\":10601:10602   */\n      dup3\n        /* \"#utility.yul\":10533:10599   */\n      0x7fffffffffffffffffffffffffffffffffffffffffffffffffffffffffffffff\n        /* \"#utility.yul\":10528:10603   */\n      sdiv\n        /* \"#utility.yul\":10525:10526   */\n      dup3\n        /* \"#utility.yul\":10521:10604   */\n      slt\n        /* \"#utility.yul\":10516:10517   */\n      0x00\n        /* \"#utility.yul\":10513:10514   */\n      dup5\n        /* \"#utility.yul\":10509:10518   */\n      slt\n        /* \"#utility.yul\":10505:10506   */\n      0x00\n        /* \"#utility.yul\":10502:10503   */\n      dup5\n        /* \"#utility.yul\":10498:10507   */\n      slt\n        /* \"#utility.yul\":10494:10519   */\n      and\n        /* \"#utility.yul\":10490:10605   */\n      and\n        /* \"#utility.yul\":10487:10628   */\n      iszero\n      tag_338\n      jumpi\n        /* \"#utility.yul\":10608:10626   */\n      tag_339\n      tag_315\n      jump\t// in\n    tag_339:\n        /* \"#utility.yul\":10487:10628   */\n    tag_338:\n        /* \"#utility.yul\":10656:10657   */\n      dup3\n        /* \"#utility.yul\":10653:10654   */\n      dup3\n        /* \"#utility.yul\":10649:10658   */\n      mul\n        /* \"#utility.yul\":10638:10658   */\n      swap1\n      pop\n        /* \"#utility.yul\":9673:10664   */\n      swap3\n      swap2\n      pop\n      pop\n      jump\t// out\n        /* \"#utility.yul\":10670:11018   */\n    tag_107:\n        /* \"#utility.yul\":10710:10717   */\n      0x00\n        /* \"#utility.yul\":10733:10753   */\n      tag_341\n        /* \"#utility.yul\":10751:10752   */\n      dup3\n        /* \"#utility.yul\":10733:10753   */\n      tag_281\n      jump\t// in\n    tag_341:\n        /* \"#utility.yul\":10728:10753   */\n      swap2\n      pop\n        /* \"#utility.yul\":10767:10787   */\n      tag_342\n        /* \"#utility.yul\":10785:10786   */\n      dup4\n        /* \"#utility.yul\":10767:10787   */\n      tag_281\n      jump\t// in\n    tag_342:\n        /* \"#utility.yul\":10762:10787   */\n      swap3\n      pop\n        /* \"#utility.yul\":10955:10956   */\n      dup2\n        /* \"#utility.yul\":10887:10953   */\n      0xffffffffffffffffffffffffffffffffffffffffffffffffffffffffffffffff\n        /* \"#utility.yul\":10883:10957   */\n      div\n        /* \"#utility.yul\":10880:10881   */\n      dup4\n        /* \"#utility.yul\":10877:10958   */\n      gt\n        /* \"#utility.yul\":10872:10873   */\n      dup3\n        /* \"#utility.yul\":10865:10874   */\n      iszero\n        /* \"#utility.yul\":10858:10875   */\n      iszero\n        /* \"#utility.yul\":10854:10959   */\n      and\n        /* \"#utility.yul\":10851:10982   */\n      iszero\n      tag_343\n      jumpi\n        /* \"#utility.yul\":10962:10980   */\n      tag_344\n      tag_315\n      jump\t// in\n    tag_344:\n        /* \"#utility.yul\":10851:10982   */\n    tag_343:\n        /* \"#utility.yul\":11010:11011   */\n      dup3\n        /* \"#utility.yul\":11007:11008   */\n      dup3\n        /* \"#utility.yul\":11003:11012   */\n      mul\n        /* \"#utility.yul\":10992:11012   */\n      swap1\n      pop\n        /* \"#utility.yul\":10670:11018   */\n      swap3\n      swap2\n      pop\n      pop\n      jump\t// out\n        /* \"#utility.yul\":11024:11215   */\n    tag_100:\n        /* \"#utility.yul\":11064:11068   */\n      0x00\n        /* \"#utility.yul\":11084:11104   */\n      tag_346\n        /* \"#utility.yul\":11102:11103   */\n      dup3\n        /* \"#utility.yul\":11084:11104   */\n      tag_281\n      jump\t// in\n    tag_346:\n        /* \"#utility.yul\":11079:11104   */\n      swap2\n      pop\n        /* \"#utility.yul\":11118:11138   */\n      tag_347\n        /* \"#utility.yul\":11136:11137   */\n      dup4\n        /* \"#utility.yul\":11118:11138   */\n      tag_281\n      jump\t// in\n    tag_347:\n        /* \"#utility.yul\":11113:11138   */\n      swap3\n      pop\n        /* \"#utility.yul\":11157:11158   */\n      dup3\n        /* \"#utility.yul\":11154:11155   */\n      dup3\n        /* \"#utility.yul\":11151:11159   */\n      lt\n        /* \"#utility.yul\":11148:11182   */\n      iszero\n      tag_348\n      jumpi\n        /* \"#utility.yul\":11162:11180   */\n      tag_349\n      tag_315\n      jump\t// in\n    tag_349:\n        /* \"#utility.yul\":11148:11182   */\n    tag_348:\n        /* \"#utility.yul\":11207:11208   */\n      dup3\n        /* \"#utility.yul\":11204:11205   */\n      dup3\n        /* \"#utility.yul\":11200:11209   */\n      sub\n        /* \"#utility.yul\":11192:11209   */\n      swap1\n      pop\n        /* \"#utility.yul\":11024:11215   */\n      swap3\n      swap2\n      pop\n      pop\n      jump\t// out\n        /* \"#utility.yul\":11221:11317   */\n    tag_244:\n        /* \"#utility.yul\":11258:11265   */\n      0x00\n        /* \"#utility.yul\":11287:11311   */\n      tag_351\n        /* \"#utility.yul\":11305:11310   */\n      dup3\n        /* \"#utility.yul\":11287:11311   */\n      tag_352\n      jump\t// in\n    tag_351:\n        /* \"#utility.yul\":11276:11311   */\n      swap1\n      pop\n        /* \"#utility.yul\":11221:11317   */\n      swap2\n      swap1\n      pop\n      jump\t// out\n        /* \"#utility.yul\":11323:11413   */\n    tag_353:\n        /* \"#utility.yul\":11357:11364   */\n      0x00\n        /* \"#utility.yul\":11400:11405   */\n      dup2\n        /* \"#utility.yul\":11393:11406   */\n      iszero\n        /* \"#utility.yul\":11386:11407   */\n      iszero\n        /* \"#utility.yul\":11375:11407   */\n      swap1\n      pop\n        /* \"#utility.yul\":11323:11413   */\n      swap2\n      swap1\n      pop\n      jump\t// out\n        /* \"#utility.yul\":11419:11511   */\n    tag_252:\n        /* \"#utility.yul\":11455:11462   */\n      0x00\n        /* \"#utility.yul\":11499:11504   */\n      dup2\n        /* \"#utility.yul\":11495:11497   */\n      0x0f\n        /* \"#utility.yul\":11484:11505   */\n      signextend\n        /* \"#utility.yul\":11473:11505   */\n      swap1\n      pop\n        /* \"#utility.yul\":11419:11511   */\n      swap2\n      swap1\n      pop\n      jump\t// out\n        /* \"#utility.yul\":11517:11593   */\n    tag_256:\n        /* \"#utility.yul\":11553:11560   */\n      0x00\n        /* \"#utility.yul\":11582:11587   */\n      dup2\n        /* \"#utility.yul\":11571:11587   */\n      swap1\n      pop\n        /* \"#utility.yul\":11517:11593   */\n      swap2\n      swap1\n      pop\n      jump\t// out\n        /* \"#utility.yul\":11599:11725   */\n    tag_352:\n        /* \"#utility.yul\":11636:11643   */\n      0x00\n        /* \"#utility.yul\":11676:11718   */\n      0xffffffffffffffffffffffffffffffffffffffff\n        /* \"#utility.yul\":11669:11674   */\n      dup3\n        /* \"#utility.yul\":11665:11719   */\n      and\n        /* \"#utility.yul\":11654:11719   */\n      swap1\n      pop\n        /* \"#utility.yul\":11599:11725   */\n      swap2\n      swap1\n      pop\n      jump\t// out\n        /* \"#utility.yul\":11731:11808   */\n    tag_281:\n        /* \"#utility.yul\":11768:11775   */\n      0x00\n        /* \"#utility.yul\":11797:11802   */\n      dup2\n        /* \"#utility.yul\":11786:11802   */\n      swap1\n      pop\n        /* \"#utility.yul\":11731:11808   */\n      swap2\n      swap1\n      pop\n      jump\t// out\n        /* \"#utility.yul\":11814:11955   */\n    tag_248:\n        /* \"#utility.yul\":11879:11888   */\n      0x00\n        /* \"#utility.yul\":11912:11949   */\n      tag_360\n        /* \"#utility.yul\":11943:11948   */\n      dup3\n        /* \"#utility.yul\":11912:11949   */\n      tag_361\n      jump\t// in\n    tag_360:\n        /* \"#utility.yul\":11899:11949   */\n      swap1\n      pop\n        /* \"#utility.yul\":11814:11955   */\n      swap2\n      swap1\n      pop\n      jump\t// out\n        /* \"#utility.yul\":11961:12087   */\n    tag_361:\n        /* \"#utility.yul\":12011:12020   */\n      0x00\n        /* \"#utility.yul\":12044:12081   */\n      tag_363\n        /* \"#utility.yul\":12075:12080   */\n      dup3\n        /* \"#utility.yul\":12044:12081   */\n      tag_364\n      jump\t// in\n    tag_363:\n        /* \"#utility.yul\":12031:12081   */\n      swap1\n      pop\n        /* \"#utility.yul\":11961:12087   */\n      swap2\n      swap1\n      pop\n      jump\t// out\n        /* \"#utility.yul\":12093:12206   */\n    tag_364:\n        /* \"#utility.yul\":12143:12152   */\n      0x00\n        /* \"#utility.yul\":12176:12200   */\n      tag_366\n        /* \"#utility.yul\":12194:12199   */\n      dup3\n        /* \"#utility.yul\":12176:12200   */\n      tag_352\n      jump\t// in\n    tag_366:\n        /* \"#utility.yul\":12163:12200   */\n      swap1\n      pop\n        /* \"#utility.yul\":12093:12206   */\n      swap2\n      swap1\n      pop\n      jump\t// out\n        /* \"#utility.yul\":12212:12443   */\n    tag_118:\n        /* \"#utility.yul\":12250:12253   */\n      0x00\n        /* \"#utility.yul\":12273:12296   */\n      tag_368\n        /* \"#utility.yul\":12290:12295   */\n      dup3\n        /* \"#utility.yul\":12273:12296   */\n      tag_256\n      jump\t// in\n    tag_368:\n        /* \"#utility.yul\":12264:12296   */\n      swap2\n      pop\n        /* \"#utility.yul\":12318:12384   */\n      0x8000000000000000000000000000000000000000000000000000000000000000\n        /* \"#utility.yul\":12311:12316   */\n      dup3\n        /* \"#utility.yul\":12308:12385   */\n      eq\n        /* \"#utility.yul\":12305:12408   */\n      iszero\n      tag_369\n      jumpi\n        /* \"#utility.yul\":12388:12406   */\n      tag_370\n      tag_315\n      jump\t// in\n    tag_370:\n        /* \"#utility.yul\":12305:12408   */\n    tag_369:\n        /* \"#utility.yul\":12435:12436   */\n      0x01\n        /* \"#utility.yul\":12428:12433   */\n      dup3\n        /* \"#utility.yul\":12424:12437   */\n      sub\n        /* \"#utility.yul\":12417:12437   */\n      swap1\n      pop\n        /* \"#utility.yul\":12212:12443   */\n      swap2\n      swap1\n      pop\n      jump\t// out\n        /* \"#utility.yul\":12449:12629   */\n    tag_315:\n        /* \"#utility.yul\":12497:12574   */\n      0x4e487b7100000000000000000000000000000000000000000000000000000000\n        /* \"#utility.yul\":12494:12495   */\n      0x00\n        /* \"#utility.yul\":12487:12575   */\n      mstore\n        /* \"#utility.yul\":12594:12598   */\n      0x11\n        /* \"#utility.yul\":12591:12592   */\n      0x04\n        /* \"#utility.yul\":12584:12599   */\n      mstore\n        /* \"#utility.yul\":12618:12622   */\n      0x24\n        /* \"#utility.yul\":12615:12616   */\n      0x00\n        /* \"#utility.yul\":12608:12623   */\n      revert\n        /* \"#utility.yul\":12635:12815   */\n    tag_321:\n        /* \"#utility.yul\":12683:12760   */\n      0x4e487b7100000000000000000000000000000000000000000000000000000000\n        /* \"#utility.yul\":12680:12681   */\n      0x00\n        /* \"#utility.yul\":12673:12761   */\n      mstore\n        /* \"#utility.yul\":12780:12784   */\n      0x12\n        /* \"#utility.yul\":12777:12778   */\n      0x04\n        /* \"#utility.yul\":12770:12785   */\n      mstore\n        /* \"#utility.yul\":12804:12808   */\n      0x24\n        /* \"#utility.yul\":12801:12802   */\n      0x00\n        /* \"#utility.yul\":12794:12809   */\n      revert\n        /* \"#utility.yul\":12944:13061   */\n    tag_221:\n        /* \"#utility.yul\":13053:13054   */\n      0x00\n        /* \"#utility.yul\":13050:13051   */\n      dup1\n        /* \"#utility.yul\":13043:13055   */\n      revert\n        /* \"#utility.yul\":13067:13238   */\n    tag_262:\n        /* \"#utility.yul\":13207:13230   */\n      0x546f6b656e207472616e73666572206661696c65640000000000000000000000\n        /* \"#utility.yul\":13203:13204   */\n      0x00\n        /* \"#utility.yul\":13195:13201   */\n      dup3\n        /* \"#utility.yul\":13191:13205   */\n      add\n        /* \"#utility.yul\":13184:13231   */\n      mstore\n        /* \"#utility.yul\":13067:13238   */\n      pop\n      jump\t// out\n        /* \"#utility.yul\":13244:13464   */\n    tag_267:\n        /* \"#utility.yul\":13384:13418   */\n      0x5369676e6564536166654d6174683a206469766973696f6e206f766572666c6f\n        /* \"#utility.yul\":13380:13381   */\n      0x00\n        /* \"#utility.yul\":13372:13378   */\n      dup3\n        /* \"#utility.yul\":13368:13382   */\n      add\n        /* \"#utility.yul\":13361:13419   */\n      mstore\n        /* \"#utility.yul\":13453:13456   */\n      0x7700000000000000000000000000000000000000000000000000000000000000\n        /* \"#utility.yul\":13448:13450   */\n      0x20\n        /* \"#utility.yul\":13440:13446   */\n      dup3\n        /* \"#utility.yul\":13436:13451   */\n      add\n        /* \"#utility.yul\":13429:13457   */\n      mstore\n        /* \"#utility.yul\":13244:13464   */\n      pop\n      jump\t// out\n        /* \"#utility.yul\":13470:13646   */\n    tag_272:\n        /* \"#utility.yul\":13610:13638   */\n      0x596f7520646f6e742068617665207468617420616d6f756e7421000000000000\n        /* \"#utility.yul\":13606:13607   */\n      0x00\n        /* \"#utility.yul\":13598:13604   */\n      dup3\n        /* \"#utility.yul\":13594:13608   */\n      add\n        /* \"#utility.yul\":13587:13639   */\n      mstore\n        /* \"#utility.yul\":13470:13646   */\n      pop\n      jump\t// out\n        /* \"#utility.yul\":13652:13834   */\n    tag_277:\n        /* \"#utility.yul\":13792:13826   */\n      0x5369676e6564536166654d6174683a206469766973696f6e206279207a65726f\n        /* \"#utility.yul\":13788:13789   */\n      0x00\n        /* \"#utility.yul\":13780:13786   */\n      dup3\n        /* \"#utility.yul\":13776:13790   */\n      add\n        /* \"#utility.yul\":13769:13827   */\n      mstore\n        /* \"#utility.yul\":13652:13834   */\n      pop\n      jump\t// out\n        /* \"#utility.yul\":13840:13962   */\n    tag_202:\n        /* \"#utility.yul\":13913:13937   */\n      tag_381\n        /* \"#utility.yul\":13931:13936   */\n      dup2\n        /* \"#utility.yul\":13913:13937   */\n      tag_244\n      jump\t// in\n    tag_381:\n        /* \"#utility.yul\":13906:13911   */\n      dup2\n        /* \"#utility.yul\":13903:13938   */\n      eq\n        /* \"#utility.yul\":13893:13956   */\n      tag_382\n      jumpi\n        /* \"#utility.yul\":13952:13953   */\n      0x00\n        /* \"#utility.yul\":13949:13950   */\n      dup1\n        /* \"#utility.yul\":13942:13954   */\n      revert\n        /* \"#utility.yul\":13893:13956   */\n    tag_382:\n        /* \"#utility.yul\":13840:13962   */\n      pop\n      jump\t// out\n        /* \"#utility.yul\":13968:14084   */\n    tag_206:\n        /* \"#utility.yul\":14038:14059   */\n      tag_384\n        /* \"#utility.yul\":14053:14058   */\n      dup2\n        /* \"#utility.yul\":14038:14059   */\n      tag_353\n      jump\t// in\n    tag_384:\n        /* \"#utility.yul\":14031:14036   */\n      dup2\n        /* \"#utility.yul\":14028:14060   */\n      eq\n        /* \"#utility.yul\":14018:14078   */\n      tag_385\n      jumpi\n        /* \"#utility.yul\":14074:14075   */\n      0x00\n        /* \"#utility.yul\":14071:14072   */\n      dup1\n        /* \"#utility.yul\":14064:14076   */\n      revert\n        /* \"#utility.yul\":14018:14078   */\n    tag_385:\n        /* \"#utility.yul\":13968:14084   */\n      pop\n      jump\t// out\n        /* \"#utility.yul\":14090:14210   */\n    tag_210:\n        /* \"#utility.yul\":14162:14185   */\n      tag_387\n        /* \"#utility.yul\":14179:14184   */\n      dup2\n        /* \"#utility.yul\":14162:14185   */\n      tag_256\n      jump\t// in\n    tag_387:\n        /* \"#utility.yul\":14155:14160   */\n      dup2\n        /* \"#utility.yul\":14152:14186   */\n      eq\n        /* \"#utility.yul\":14142:14204   */\n      tag_388\n      jumpi\n        /* \"#utility.yul\":14200:14201   */\n      0x00\n        /* \"#utility.yul\":14197:14198   */\n      dup1\n        /* \"#utility.yul\":14190:14202   */\n      revert\n        /* \"#utility.yul\":14142:14204   */\n    tag_388:\n        /* \"#utility.yul\":14090:14210   */\n      pop\n      jump\t// out\n        /* \"#utility.yul\":14216:14338   */\n    tag_214:\n        /* \"#utility.yul\":14289:14313   */\n      tag_390\n        /* \"#utility.yul\":14307:14312   */\n      dup2\n        /* \"#utility.yul\":14289:14313   */\n      tag_281\n      jump\t// in\n    tag_390:\n        /* \"#utility.yul\":14282:14287   */\n      dup2\n        /* \"#utility.yul\":14279:14314   */\n      eq\n        /* \"#utility.yul\":14269:14332   */\n      tag_391\n      jumpi\n        /* \"#utility.yul\":14328:14329   */\n      0x00\n        /* \"#utility.yul\":14325:14326   */\n      dup1\n        /* \"#utility.yul\":14318:14330   */\n      revert\n        /* \"#utility.yul\":14269:14332   */\n    tag_391:\n        /* \"#utility.yul\":14216:14338   */\n      pop\n      jump\t// out\n\n    auxdata: 0xa264697066735822122001e7fdadd516f9528184746996e8277c1afaa51d29312c61eacdfdb42c79936864736f6c63430008070033\n}\n",
				"bytecode": {
					"linkReferences": {},
					"object": "60806040526969e10de76676d0800000600855620186a060095562015f90600a55620927c0600b556009600c55600a600d5573617f2e2fd72fd9d5503197092ac168c91465e7f2600f60006101000a81548173ffffffffffffffffffffffffffffffffffffffff021916908373ffffffffffffffffffffffffffffffffffffffff1602179055503480156200009357600080fd5b5060405162001ad338038062001ad38339818101604052810190620000b991906200025e565b80601260006101000a81548173ffffffffffffffffffffffffffffffffffffffff021916908373ffffffffffffffffffffffffffffffffffffffff16021790555081601060006101000a81548173ffffffffffffffffffffffffffffffffffffffff021916908373ffffffffffffffffffffffffffffffffffffffff16021790555073d7acd2a9fd159e69bb102a1ca21c9a3e3a5f771b601160006101000a81548173ffffffffffffffffffffffffffffffffffffffff021916908373ffffffffffffffffffffffffffffffffffffffff16021790555073617f2e2fd72fd9d5503197092ac168c91465e7f2600660006101000a81548173ffffffffffffffffffffffffffffffffffffffff021916908373ffffffffffffffffffffffffffffffffffffffff160217905550670de0b6b3a7640000600b54600954620002009190620002a5565b6200020c9190620002dd565b600081905550670de0b6b3a7640000600b54600a546200022d9190620002a5565b620002399190620002dd565b6001819055505050620003f9565b6000815190506200025881620003df565b92915050565b60008060408385031215620002785762000277620003da565b5b6000620002888582860162000247565b92505060206200029b8582860162000247565b9150509250929050565b6000620002b28262000372565b9150620002bf8362000372565b925082620002d257620002d1620003ab565b5b828204905092915050565b6000620002ea8262000372565b9150620002f78362000372565b9250817fffffffffffffffffffffffffffffffffffffffffffffffffffffffffffffffff04831182151516156200033357620003326200037c565b5b828202905092915050565b60006200034b8262000352565b9050919050565b600073ffffffffffffffffffffffffffffffffffffffff82169050919050565b6000819050919050565b7f4e487b7100000000000000000000000000000000000000000000000000000000600052601160045260246000fd5b7f4e487b7100000000000000000000000000000000000000000000000000000000600052601260045260246000fd5b600080fd5b620003ea816200033e565b8114620003f657600080fd5b50565b6116ca80620004096000396000f3fe6080604052600436106100fe5760003560e01c80636f10e28511610095578063ee46767811610064578063ee467678146102f9578063ee546a5114610324578063ee62086814610361578063eee05f5e1461038c578063fbbb4589146103b7576100fe565b80636f10e2851461025c578063cbff461714610287578063daa3a4a4146102b2578063dd9b1d97146102ce576100fe565b806335453307116100d157806335453307146101bf57806343d32e9c146101ea57806365819f7e146102155780636e05c1b914610231576100fe565b8063018a25e8146101035780630e8a0f891461012e5780631f564a061461016b5780632934b23714610196575b600080fd5b34801561010f57600080fd5b506101186103e2565b604051610125919061116b565b60405180910390f35b34801561013a57600080fd5b5061015560048036038101906101509190610eae565b61049a565b60405161016291906110d0565b60405180910390f35b34801561017757600080fd5b506101806104e4565b60405161018d919061116b565b60405180910390f35b3480156101a257600080fd5b506101bd60048036038101906101b89190610eee565b610598565b005b3480156101cb57600080fd5b506101d461062a565b6040516101e1919061116b565b60405180910390f35b3480156101f657600080fd5b506101ff610630565b60405161020c919061116b565b60405180910390f35b61022f600480360381019061022a9190610eee565b6106e8565b005b34801561023d57600080fd5b506102466108bb565b604051610253919061109a565b60405180910390f35b34801561026857600080fd5b506102716108e1565b60405161027e91906110b5565b60405180910390f35b34801561029357600080fd5b5061029c6108f4565b6040516102a9919061116b565b60405180910390f35b6102cc60048036038101906102c79190610eee565b6108fa565b005b3480156102da57600080fd5b506102e3610ae0565b6040516102f0919061101f565b60405180910390f35b34801561030557600080fd5b5061030e610b06565b60405161031b919061109a565b60405180910390f35b34801561033057600080fd5b5061034b60048036038101906103469190610e41565b610b2c565b604051610358919061116b565b60405180910390f35b34801561036d57600080fd5b50610376610bbf565b604051610383919061116b565b60405180910390f35b34801561039857600080fd5b506103a1610bc5565b6040516103ae919061101f565b60405180910390f35b3480156103c357600080fd5b506103cc610beb565b6040516103d9919061101f565b60405180910390f35b6000670de0b6b3a7640000600154670c7d713b49da000061040391906113f9565b3073ffffffffffffffffffffffffffffffffffffffff16631f564a066040518163ffffffff1660e01b815260040160206040518083038186803b15801561044957600080fd5b505afa15801561045d573d6000803e3d6000fd5b505050506040513d601f19601f820116820180604052508101906104819190610f1b565b61048b919061139f565b6104959190611257565b905090565b6000806104a78484610c11565b905060008385181280156104c657508383826104c39190611288565b14155b156104da5780806104d6906114c2565b9150505b8091505092915050565b6000601060009054906101000a900473ffffffffffffffffffffffffffffffffffffffff1673ffffffffffffffffffffffffffffffffffffffff166318160ddd6040518163ffffffff1660e01b815260040160206040518083038186803b15801561054e57600080fd5b505afa158015610562573d6000803e3d6000fd5b505050506040513d601f19601f820116820180604052508101906105869190610f1b565b6008546105939190611257565b905090565b601260009054906101000a900473ffffffffffffffffffffffffffffffffffffffff1673ffffffffffffffffffffffffffffffffffffffff166340c10f1933836040518363ffffffff1660e01b81526004016105f5929190611071565b600060405180830381600087803b15801561060f57600080fd5b505af1158015610623573d6000803e3d6000fd5b5050505050565b60085481565b6000670de0b6b3a76400006710a741a4627800006000546106519190611197565b3073ffffffffffffffffffffffffffffffffffffffff16631f564a066040518163ffffffff1660e01b815260040160206040518083038186803b15801561069757600080fd5b505afa1580156106ab573d6000803e3d6000fd5b505050506040513d601f19601f820116820180604052508101906106cf9190610f1b565b6106d9919061139f565b6106e39190611257565b905090565b6000601160009054906101000a900473ffffffffffffffffffffffffffffffffffffffff1673ffffffffffffffffffffffffffffffffffffffff166370a08231336040518263ffffffff1660e01b8152600401610745919061101f565b60206040518083038186803b15801561075d57600080fd5b505afa158015610771573d6000803e3d6000fd5b505050506040513d601f19601f820116820180604052508101906107959190610f1b565b90508181116107d9576040517f08c379a00000000000000000000000000000000000000000000000000000000081526004016107d09061112b565b60405180910390fd5b601060009054906101000a900473ffffffffffffffffffffffffffffffffffffffff1673ffffffffffffffffffffffffffffffffffffffff1663a9059cbb33846040518363ffffffff1660e01b8152600401610836929190611071565b602060405180830381600087803b15801561085057600080fd5b505af1158015610864573d6000803e3d6000fd5b505050506040513d601f19601f820116820180604052508101906108889190610e81565b506108b7601160009054906101000a900473ffffffffffffffffffffffffffffffffffffffff16333085610cfe565b5050565b601060009054906101000a900473ffffffffffffffffffffffffffffffffffffffff1681565b600e60009054906101000a9004600f0b81565b60015481565b6000601060009054906101000a900473ffffffffffffffffffffffffffffffffffffffff1673ffffffffffffffffffffffffffffffffffffffff166370a08231336040518263ffffffff1660e01b8152600401610957919061101f565b60206040518083038186803b15801561096f57600080fd5b505afa158015610983573d6000803e3d6000fd5b505050506040513d601f19601f820116820180604052508101906109a79190610f1b565b90508181116109eb576040517f08c379a00000000000000000000000000000000000000000000000000000000081526004016109e29061112b565b60405180910390fd5b601160009054906101000a900473ffffffffffffffffffffffffffffffffffffffff1673ffffffffffffffffffffffffffffffffffffffff1663a9059cbb33670de0b6b3a764000085610a3e9190611197565b6040518363ffffffff1660e01b8152600401610a5b929190611071565b602060405180830381600087803b158015610a7557600080fd5b505af1158015610a89573d6000803e3d6000fd5b505050506040513d601f19601f82011682018060405250810190610aad9190610e81565b50610adc601060009054906101000a900473ffffffffffffffffffffffffffffffffffffffff16333085610cfe565b5050565b600760009054906101000a900473ffffffffffffffffffffffffffffffffffffffff1681565b601160009054906101000a900473ffffffffffffffffffffffffffffffffffffffff1681565b60008273ffffffffffffffffffffffffffffffffffffffff166370a08231836040518263ffffffff1660e01b8152600401610b67919061101f565b60206040518083038186803b158015610b7f57600080fd5b505afa158015610b93573d6000803e3d6000fd5b505050506040513d601f19601f82011682018060405250810190610bb79190610f1b565b905092915050565b60005481565b600f60009054906101000a900473ffffffffffffffffffffffffffffffffffffffff1681565b600660009054906101000a900473ffffffffffffffffffffffffffffffffffffffff1681565b600080821415610c56576040517f08c379a0000000000000000000000000000000000000000000000000000000008152600401610c4d9061114b565b60405180910390fd5b7fffffffffffffffffffffffffffffffffffffffffffffffffffffffffffffffff82148015610ca457507f800000000000000000000000000000000000000000000000000000000000000083145b15610ce4576040517f08c379a0000000000000000000000000000000000000000000000000000000008152600401610cdb9061110b565b60405180910390fd5b60008284610cf291906111ed565b90508091505092915050565b60008473ffffffffffffffffffffffffffffffffffffffff166323b872dd8585856040518463ffffffff1660e01b8152600401610d3d9392919061103a565b602060405180830381600087803b158015610d5757600080fd5b505af1158015610d6b573d6000803e3d6000fd5b505050506040513d601f19601f82011682018060405250810190610d8f9190610e81565b905080610dd1576040517f08c379a0000000000000000000000000000000000000000000000000000000008152600401610dc8906110eb565b60405180910390fd5b5050505050565b600081359050610de781611638565b92915050565b600081519050610dfc8161164f565b92915050565b600081359050610e1181611666565b92915050565b600081359050610e268161167d565b92915050565b600081519050610e3b8161167d565b92915050565b60008060408385031215610e5857610e57611569565b5b6000610e6685828601610dd8565b9250506020610e7785828601610dd8565b9150509250929050565b600060208284031215610e9757610e96611569565b5b6000610ea584828501610ded565b91505092915050565b60008060408385031215610ec557610ec4611569565b5b6000610ed385828601610e02565b9250506020610ee485828601610e02565b9150509250929050565b600060208284031215610f0457610f03611569565b5b6000610f1284828501610e17565b91505092915050565b600060208284031215610f3157610f30611569565b5b6000610f3f84828501610e2c565b91505092915050565b610f518161142d565b82525050565b610f608161148c565b82525050565b610f6f8161144b565b82525050565b610f7e81611458565b82525050565b6000610f91601583611186565b9150610f9c8261156e565b602082019050919050565b6000610fb4602183611186565b9150610fbf82611597565b604082019050919050565b6000610fd7601a83611186565b9150610fe2826115e6565b602082019050919050565b6000610ffa602083611186565b91506110058261160f565b602082019050919050565b61101981611482565b82525050565b60006020820190506110346000830184610f48565b92915050565b600060608201905061104f6000830186610f48565b61105c6020830185610f48565b6110696040830184611010565b949350505050565b60006040820190506110866000830185610f48565b6110936020830184611010565b9392505050565b60006020820190506110af6000830184610f57565b92915050565b60006020820190506110ca6000830184610f66565b92915050565b60006020820190506110e56000830184610f75565b92915050565b6000602082019050818103600083015261110481610f84565b9050919050565b6000602082019050818103600083015261112481610fa7565b9050919050565b6000602082019050818103600083015261114481610fca565b9050919050565b6000602082019050818103600083015261116481610fed565b9050919050565b60006020820190506111806000830184611010565b92915050565b600082825260208201905092915050565b60006111a282611482565b91506111ad83611482565b9250827fffffffffffffffffffffffffffffffffffffffffffffffffffffffffffffffff038211156111e2576111e161150b565b5b828201905092915050565b60006111f882611458565b915061120383611458565b9250826112135761121261153a565b5b600160000383147f80000000000000000000000000000000000000000000000000000000000000008314161561124c5761124b61150b565b5b828205905092915050565b600061126282611482565b915061126d83611482565b92508261127d5761127c61153a565b5b828204905092915050565b600061129382611458565b915061129e83611458565b9250827f7fffffffffffffffffffffffffffffffffffffffffffffffffffffffffffffff04821160008413600084131616156112dd576112dc61150b565b5b817f8000000000000000000000000000000000000000000000000000000000000000058312600084126000841316161561131a5761131961150b565b5b827f800000000000000000000000000000000000000000000000000000000000000005821260008413600084121616156113575761135661150b565b5b827f7fffffffffffffffffffffffffffffffffffffffffffffffffffffffffffffff05821260008412600084121616156113945761139361150b565b5b828202905092915050565b60006113aa82611482565b91506113b583611482565b9250817fffffffffffffffffffffffffffffffffffffffffffffffffffffffffffffffff04831182151516156113ee576113ed61150b565b5b828202905092915050565b600061140482611482565b915061140f83611482565b9250828210156114225761142161150b565b5b828203905092915050565b600061143882611462565b9050919050565b60008115159050919050565b600081600f0b9050919050565b6000819050919050565b600073ffffffffffffffffffffffffffffffffffffffff82169050919050565b6000819050919050565b60006114978261149e565b9050919050565b60006114a9826114b0565b9050919050565b60006114bb82611462565b9050919050565b60006114cd82611458565b91507f8000000000000000000000000000000000000000000000000000000000000000821415611500576114ff61150b565b5b600182039050919050565b7f4e487b7100000000000000000000000000000000000000000000000000000000600052601160045260246000fd5b7f4e487b7100000000000000000000000000000000000000000000000000000000600052601260045260246000fd5b600080fd5b7f546f6b656e207472616e73666572206661696c65640000000000000000000000600082015250565b7f5369676e6564536166654d6174683a206469766973696f6e206f766572666c6f60008201527f7700000000000000000000000000000000000000000000000000000000000000602082015250565b7f596f7520646f6e742068617665207468617420616d6f756e7421000000000000600082015250565b7f5369676e6564536166654d6174683a206469766973696f6e206279207a65726f600082015250565b6116418161142d565b811461164c57600080fd5b50565b6116588161143f565b811461166357600080fd5b50565b61166f81611458565b811461167a57600080fd5b50565b61168681611482565b811461169157600080fd5b5056fea264697066735822122001e7fdadd516f9528184746996e8277c1afaa51d29312c61eacdfdb42c79936864736f6c63430008070033",
					"opcodes": "PUSH1 0x80 PUSH1 0x40 MSTORE PUSH10 0x69E10DE76676D0800000 PUSH1 0x8 SSTORE PUSH3 0x186A0 PUSH1 0x9 SSTORE PUSH3 0x15F90 PUSH1 0xA SSTORE PUSH3 0x927C0 PUSH1 0xB SSTORE PUSH1 0x9 PUSH1 0xC SSTORE PUSH1 0xA PUSH1 0xD SSTORE PUSH20 0x617F2E2FD72FD9D5503197092AC168C91465E7F2 PUSH1 0xF PUSH1 0x0 PUSH2 0x100 EXP DUP2 SLOAD DUP2 PUSH20 0xFFFFFFFFFFFFFFFFFFFFFFFFFFFFFFFFFFFFFFFF MUL NOT AND SWAP1 DUP4 PUSH20 0xFFFFFFFFFFFFFFFFFFFFFFFFFFFFFFFFFFFFFFFF AND MUL OR SWAP1 SSTORE POP CALLVALUE DUP1 ISZERO PUSH3 0x93 JUMPI PUSH1 0x0 DUP1 REVERT JUMPDEST POP PUSH1 0x40 MLOAD PUSH3 0x1AD3 CODESIZE SUB DUP1 PUSH3 0x1AD3 DUP4 CODECOPY DUP2 DUP2 ADD PUSH1 0x40 MSTORE DUP2 ADD SWAP1 PUSH3 0xB9 SWAP2 SWAP1 PUSH3 0x25E JUMP JUMPDEST DUP1 PUSH1 0x12 PUSH1 0x0 PUSH2 0x100 EXP DUP2 SLOAD DUP2 PUSH20 0xFFFFFFFFFFFFFFFFFFFFFFFFFFFFFFFFFFFFFFFF MUL NOT AND SWAP1 DUP4 PUSH20 0xFFFFFFFFFFFFFFFFFFFFFFFFFFFFFFFFFFFFFFFF AND MUL OR SWAP1 SSTORE POP DUP2 PUSH1 0x10 PUSH1 0x0 PUSH2 0x100 EXP DUP2 SLOAD DUP2 PUSH20 0xFFFFFFFFFFFFFFFFFFFFFFFFFFFFFFFFFFFFFFFF MUL NOT AND SWAP1 DUP4 PUSH20 0xFFFFFFFFFFFFFFFFFFFFFFFFFFFFFFFFFFFFFFFF AND MUL OR SWAP1 SSTORE POP PUSH20 0xD7ACD2A9FD159E69BB102A1CA21C9A3E3A5F771B PUSH1 0x11 PUSH1 0x0 PUSH2 0x100 EXP DUP2 SLOAD DUP2 PUSH20 0xFFFFFFFFFFFFFFFFFFFFFFFFFFFFFFFFFFFFFFFF MUL NOT AND SWAP1 DUP4 PUSH20 0xFFFFFFFFFFFFFFFFFFFFFFFFFFFFFFFFFFFFFFFF AND MUL OR SWAP1 SSTORE POP PUSH20 0x617F2E2FD72FD9D5503197092AC168C91465E7F2 PUSH1 0x6 PUSH1 0x0 PUSH2 0x100 EXP DUP2 SLOAD DUP2 PUSH20 0xFFFFFFFFFFFFFFFFFFFFFFFFFFFFFFFFFFFFFFFF MUL NOT AND SWAP1 DUP4 PUSH20 0xFFFFFFFFFFFFFFFFFFFFFFFFFFFFFFFFFFFFFFFF AND MUL OR SWAP1 SSTORE POP PUSH8 0xDE0B6B3A7640000 PUSH1 0xB SLOAD PUSH1 0x9 SLOAD PUSH3 0x200 SWAP2 SWAP1 PUSH3 0x2A5 JUMP JUMPDEST PUSH3 0x20C SWAP2 SWAP1 PUSH3 0x2DD JUMP JUMPDEST PUSH1 0x0 DUP2 SWAP1 SSTORE POP PUSH8 0xDE0B6B3A7640000 PUSH1 0xB SLOAD PUSH1 0xA SLOAD PUSH3 0x22D SWAP2 SWAP1 PUSH3 0x2A5 JUMP JUMPDEST PUSH3 0x239 SWAP2 SWAP1 PUSH3 0x2DD JUMP JUMPDEST PUSH1 0x1 DUP2 SWAP1 SSTORE POP POP POP PUSH3 0x3F9 JUMP JUMPDEST PUSH1 0x0 DUP2 MLOAD SWAP1 POP PUSH3 0x258 DUP2 PUSH3 0x3DF JUMP JUMPDEST SWAP3 SWAP2 POP POP JUMP JUMPDEST PUSH1 0x0 DUP1 PUSH1 0x40 DUP4 DUP6 SUB SLT ISZERO PUSH3 0x278 JUMPI PUSH3 0x277 PUSH3 0x3DA JUMP JUMPDEST JUMPDEST PUSH1 0x0 PUSH3 0x288 DUP6 DUP3 DUP7 ADD PUSH3 0x247 JUMP JUMPDEST SWAP3 POP POP PUSH1 0x20 PUSH3 0x29B DUP6 DUP3 DUP7 ADD PUSH3 0x247 JUMP JUMPDEST SWAP2 POP POP SWAP3 POP SWAP3 SWAP1 POP JUMP JUMPDEST PUSH1 0x0 PUSH3 0x2B2 DUP3 PUSH3 0x372 JUMP JUMPDEST SWAP2 POP PUSH3 0x2BF DUP4 PUSH3 0x372 JUMP JUMPDEST SWAP3 POP DUP3 PUSH3 0x2D2 JUMPI PUSH3 0x2D1 PUSH3 0x3AB JUMP JUMPDEST JUMPDEST DUP3 DUP3 DIV SWAP1 POP SWAP3 SWAP2 POP POP JUMP JUMPDEST PUSH1 0x0 PUSH3 0x2EA DUP3 PUSH3 0x372 JUMP JUMPDEST SWAP2 POP PUSH3 0x2F7 DUP4 PUSH3 0x372 JUMP JUMPDEST SWAP3 POP DUP2 PUSH32 0xFFFFFFFFFFFFFFFFFFFFFFFFFFFFFFFFFFFFFFFFFFFFFFFFFFFFFFFFFFFFFFFF DIV DUP4 GT DUP3 ISZERO ISZERO AND ISZERO PUSH3 0x333 JUMPI PUSH3 0x332 PUSH3 0x37C JUMP JUMPDEST JUMPDEST DUP3 DUP3 MUL SWAP1 POP SWAP3 SWAP2 POP POP JUMP JUMPDEST PUSH1 0x0 PUSH3 0x34B DUP3 PUSH3 0x352 JUMP JUMPDEST SWAP1 POP SWAP2 SWAP1 POP JUMP JUMPDEST PUSH1 0x0 PUSH20 0xFFFFFFFFFFFFFFFFFFFFFFFFFFFFFFFFFFFFFFFF DUP3 AND SWAP1 POP SWAP2 SWAP1 POP JUMP JUMPDEST PUSH1 0x0 DUP2 SWAP1 POP SWAP2 SWAP1 POP JUMP JUMPDEST PUSH32 0x4E487B7100000000000000000000000000000000000000000000000000000000 PUSH1 0x0 MSTORE PUSH1 0x11 PUSH1 0x4 MSTORE PUSH1 0x24 PUSH1 0x0 REVERT JUMPDEST PUSH32 0x4E487B7100000000000000000000000000000000000000000000000000000000 PUSH1 0x0 MSTORE PUSH1 0x12 PUSH1 0x4 MSTORE PUSH1 0x24 PUSH1 0x0 REVERT JUMPDEST PUSH1 0x0 DUP1 REVERT JUMPDEST PUSH3 0x3EA DUP2 PUSH3 0x33E JUMP JUMPDEST DUP2 EQ PUSH3 0x3F6 JUMPI PUSH1 0x0 DUP1 REVERT JUMPDEST POP JUMP JUMPDEST PUSH2 0x16CA DUP1 PUSH3 0x409 PUSH1 0x0 CODECOPY PUSH1 0x0 RETURN INVALID PUSH1 0x80 PUSH1 0x40 MSTORE PUSH1 0x4 CALLDATASIZE LT PUSH2 0xFE JUMPI PUSH1 0x0 CALLDATALOAD PUSH1 0xE0 SHR DUP1 PUSH4 0x6F10E285 GT PUSH2 0x95 JUMPI DUP1 PUSH4 0xEE467678 GT PUSH2 0x64 JUMPI DUP1 PUSH4 0xEE467678 EQ PUSH2 0x2F9 JUMPI DUP1 PUSH4 0xEE546A51 EQ PUSH2 0x324 JUMPI DUP1 PUSH4 0xEE620868 EQ PUSH2 0x361 JUMPI DUP1 PUSH4 0xEEE05F5E EQ PUSH2 0x38C JUMPI DUP1 PUSH4 0xFBBB4589 EQ PUSH2 0x3B7 JUMPI PUSH2 0xFE JUMP JUMPDEST DUP1 PUSH4 0x6F10E285 EQ PUSH2 0x25C JUMPI DUP1 PUSH4 0xCBFF4617 EQ PUSH2 0x287 JUMPI DUP1 PUSH4 0xDAA3A4A4 EQ PUSH2 0x2B2 JUMPI DUP1 PUSH4 0xDD9B1D97 EQ PUSH2 0x2CE JUMPI PUSH2 0xFE JUMP JUMPDEST DUP1 PUSH4 0x35453307 GT PUSH2 0xD1 JUMPI DUP1 PUSH4 0x35453307 EQ PUSH2 0x1BF JUMPI DUP1 PUSH4 0x43D32E9C EQ PUSH2 0x1EA JUMPI DUP1 PUSH4 0x65819F7E EQ PUSH2 0x215 JUMPI DUP1 PUSH4 0x6E05C1B9 EQ PUSH2 0x231 JUMPI PUSH2 0xFE JUMP JUMPDEST DUP1 PUSH4 0x18A25E8 EQ PUSH2 0x103 JUMPI DUP1 PUSH4 0xE8A0F89 EQ PUSH2 0x12E JUMPI DUP1 PUSH4 0x1F564A06 EQ PUSH2 0x16B JUMPI DUP1 PUSH4 0x2934B237 EQ PUSH2 0x196 JUMPI JUMPDEST PUSH1 0x0 DUP1 REVERT JUMPDEST CALLVALUE DUP1 ISZERO PUSH2 0x10F JUMPI PUSH1 0x0 DUP1 REVERT JUMPDEST POP PUSH2 0x118 PUSH2 0x3E2 JUMP JUMPDEST PUSH1 0x40 MLOAD PUSH2 0x125 SWAP2 SWAP1 PUSH2 0x116B JUMP JUMPDEST PUSH1 0x40 MLOAD DUP1 SWAP2 SUB SWAP1 RETURN JUMPDEST CALLVALUE DUP1 ISZERO PUSH2 0x13A JUMPI PUSH1 0x0 DUP1 REVERT JUMPDEST POP PUSH2 0x155 PUSH1 0x4 DUP1 CALLDATASIZE SUB DUP2 ADD SWAP1 PUSH2 0x150 SWAP2 SWAP1 PUSH2 0xEAE JUMP JUMPDEST PUSH2 0x49A JUMP JUMPDEST PUSH1 0x40 MLOAD PUSH2 0x162 SWAP2 SWAP1 PUSH2 0x10D0 JUMP JUMPDEST PUSH1 0x40 MLOAD DUP1 SWAP2 SUB SWAP1 RETURN JUMPDEST CALLVALUE DUP1 ISZERO PUSH2 0x177 JUMPI PUSH1 0x0 DUP1 REVERT JUMPDEST POP PUSH2 0x180 PUSH2 0x4E4 JUMP JUMPDEST PUSH1 0x40 MLOAD PUSH2 0x18D SWAP2 SWAP1 PUSH2 0x116B JUMP JUMPDEST PUSH1 0x40 MLOAD DUP1 SWAP2 SUB SWAP1 RETURN JUMPDEST CALLVALUE DUP1 ISZERO PUSH2 0x1A2 JUMPI PUSH1 0x0 DUP1 REVERT JUMPDEST POP PUSH2 0x1BD PUSH1 0x4 DUP1 CALLDATASIZE SUB DUP2 ADD SWAP1 PUSH2 0x1B8 SWAP2 SWAP1 PUSH2 0xEEE JUMP JUMPDEST PUSH2 0x598 JUMP JUMPDEST STOP JUMPDEST CALLVALUE DUP1 ISZERO PUSH2 0x1CB JUMPI PUSH1 0x0 DUP1 REVERT JUMPDEST POP PUSH2 0x1D4 PUSH2 0x62A JUMP JUMPDEST PUSH1 0x40 MLOAD PUSH2 0x1E1 SWAP2 SWAP1 PUSH2 0x116B JUMP JUMPDEST PUSH1 0x40 MLOAD DUP1 SWAP2 SUB SWAP1 RETURN JUMPDEST CALLVALUE DUP1 ISZERO PUSH2 0x1F6 JUMPI PUSH1 0x0 DUP1 REVERT JUMPDEST POP PUSH2 0x1FF PUSH2 0x630 JUMP JUMPDEST PUSH1 0x40 MLOAD PUSH2 0x20C SWAP2 SWAP1 PUSH2 0x116B JUMP JUMPDEST PUSH1 0x40 MLOAD DUP1 SWAP2 SUB SWAP1 RETURN JUMPDEST PUSH2 0x22F PUSH1 0x4 DUP1 CALLDATASIZE SUB DUP2 ADD SWAP1 PUSH2 0x22A SWAP2 SWAP1 PUSH2 0xEEE JUMP JUMPDEST PUSH2 0x6E8 JUMP JUMPDEST STOP JUMPDEST CALLVALUE DUP1 ISZERO PUSH2 0x23D JUMPI PUSH1 0x0 DUP1 REVERT JUMPDEST POP PUSH2 0x246 PUSH2 0x8BB JUMP JUMPDEST PUSH1 0x40 MLOAD PUSH2 0x253 SWAP2 SWAP1 PUSH2 0x109A JUMP JUMPDEST PUSH1 0x40 MLOAD DUP1 SWAP2 SUB SWAP1 RETURN JUMPDEST CALLVALUE DUP1 ISZERO PUSH2 0x268 JUMPI PUSH1 0x0 DUP1 REVERT JUMPDEST POP PUSH2 0x271 PUSH2 0x8E1 JUMP JUMPDEST PUSH1 0x40 MLOAD PUSH2 0x27E SWAP2 SWAP1 PUSH2 0x10B5 JUMP JUMPDEST PUSH1 0x40 MLOAD DUP1 SWAP2 SUB SWAP1 RETURN JUMPDEST CALLVALUE DUP1 ISZERO PUSH2 0x293 JUMPI PUSH1 0x0 DUP1 REVERT JUMPDEST POP PUSH2 0x29C PUSH2 0x8F4 JUMP JUMPDEST PUSH1 0x40 MLOAD PUSH2 0x2A9 SWAP2 SWAP1 PUSH2 0x116B JUMP JUMPDEST PUSH1 0x40 MLOAD DUP1 SWAP2 SUB SWAP1 RETURN JUMPDEST PUSH2 0x2CC PUSH1 0x4 DUP1 CALLDATASIZE SUB DUP2 ADD SWAP1 PUSH2 0x2C7 SWAP2 SWAP1 PUSH2 0xEEE JUMP JUMPDEST PUSH2 0x8FA JUMP JUMPDEST STOP JUMPDEST CALLVALUE DUP1 ISZERO PUSH2 0x2DA JUMPI PUSH1 0x0 DUP1 REVERT JUMPDEST POP PUSH2 0x2E3 PUSH2 0xAE0 JUMP JUMPDEST PUSH1 0x40 MLOAD PUSH2 0x2F0 SWAP2 SWAP1 PUSH2 0x101F JUMP JUMPDEST PUSH1 0x40 MLOAD DUP1 SWAP2 SUB SWAP1 RETURN JUMPDEST CALLVALUE DUP1 ISZERO PUSH2 0x305 JUMPI PUSH1 0x0 DUP1 REVERT JUMPDEST POP PUSH2 0x30E PUSH2 0xB06 JUMP JUMPDEST PUSH1 0x40 MLOAD PUSH2 0x31B SWAP2 SWAP1 PUSH2 0x109A JUMP JUMPDEST PUSH1 0x40 MLOAD DUP1 SWAP2 SUB SWAP1 RETURN JUMPDEST CALLVALUE DUP1 ISZERO PUSH2 0x330 JUMPI PUSH1 0x0 DUP1 REVERT JUMPDEST POP PUSH2 0x34B PUSH1 0x4 DUP1 CALLDATASIZE SUB DUP2 ADD SWAP1 PUSH2 0x346 SWAP2 SWAP1 PUSH2 0xE41 JUMP JUMPDEST PUSH2 0xB2C JUMP JUMPDEST PUSH1 0x40 MLOAD PUSH2 0x358 SWAP2 SWAP1 PUSH2 0x116B JUMP JUMPDEST PUSH1 0x40 MLOAD DUP1 SWAP2 SUB SWAP1 RETURN JUMPDEST CALLVALUE DUP1 ISZERO PUSH2 0x36D JUMPI PUSH1 0x0 DUP1 REVERT JUMPDEST POP PUSH2 0x376 PUSH2 0xBBF JUMP JUMPDEST PUSH1 0x40 MLOAD PUSH2 0x383 SWAP2 SWAP1 PUSH2 0x116B JUMP JUMPDEST PUSH1 0x40 MLOAD DUP1 SWAP2 SUB SWAP1 RETURN JUMPDEST CALLVALUE DUP1 ISZERO PUSH2 0x398 JUMPI PUSH1 0x0 DUP1 REVERT JUMPDEST POP PUSH2 0x3A1 PUSH2 0xBC5 JUMP JUMPDEST PUSH1 0x40 MLOAD PUSH2 0x3AE SWAP2 SWAP1 PUSH2 0x101F JUMP JUMPDEST PUSH1 0x40 MLOAD DUP1 SWAP2 SUB SWAP1 RETURN JUMPDEST CALLVALUE DUP1 ISZERO PUSH2 0x3C3 JUMPI PUSH1 0x0 DUP1 REVERT JUMPDEST POP PUSH2 0x3CC PUSH2 0xBEB JUMP JUMPDEST PUSH1 0x40 MLOAD PUSH2 0x3D9 SWAP2 SWAP1 PUSH2 0x101F JUMP JUMPDEST PUSH1 0x40 MLOAD DUP1 SWAP2 SUB SWAP1 RETURN JUMPDEST PUSH1 0x0 PUSH8 0xDE0B6B3A7640000 PUSH1 0x1 SLOAD PUSH8 0xC7D713B49DA0000 PUSH2 0x403 SWAP2 SWAP1 PUSH2 0x13F9 JUMP JUMPDEST ADDRESS PUSH20 0xFFFFFFFFFFFFFFFFFFFFFFFFFFFFFFFFFFFFFFFF AND PUSH4 0x1F564A06 PUSH1 0x40 MLOAD DUP2 PUSH4 0xFFFFFFFF AND PUSH1 0xE0 SHL DUP2 MSTORE PUSH1 0x4 ADD PUSH1 0x20 PUSH1 0x40 MLOAD DUP1 DUP4 SUB DUP2 DUP7 DUP1 EXTCODESIZE ISZERO DUP1 ISZERO PUSH2 0x449 JUMPI PUSH1 0x0 DUP1 REVERT JUMPDEST POP GAS STATICCALL ISZERO DUP1 ISZERO PUSH2 0x45D JUMPI RETURNDATASIZE PUSH1 0x0 DUP1 RETURNDATACOPY RETURNDATASIZE PUSH1 0x0 REVERT JUMPDEST POP POP POP POP PUSH1 0x40 MLOAD RETURNDATASIZE PUSH1 0x1F NOT PUSH1 0x1F DUP3 ADD AND DUP3 ADD DUP1 PUSH1 0x40 MSTORE POP DUP2 ADD SWAP1 PUSH2 0x481 SWAP2 SWAP1 PUSH2 0xF1B JUMP JUMPDEST PUSH2 0x48B SWAP2 SWAP1 PUSH2 0x139F JUMP JUMPDEST PUSH2 0x495 SWAP2 SWAP1 PUSH2 0x1257 JUMP JUMPDEST SWAP1 POP SWAP1 JUMP JUMPDEST PUSH1 0x0 DUP1 PUSH2 0x4A7 DUP5 DUP5 PUSH2 0xC11 JUMP JUMPDEST SWAP1 POP PUSH1 0x0 DUP4 DUP6 XOR SLT DUP1 ISZERO PUSH2 0x4C6 JUMPI POP DUP4 DUP4 DUP3 PUSH2 0x4C3 SWAP2 SWAP1 PUSH2 0x1288 JUMP JUMPDEST EQ ISZERO JUMPDEST ISZERO PUSH2 0x4DA JUMPI DUP1 DUP1 PUSH2 0x4D6 SWAP1 PUSH2 0x14C2 JUMP JUMPDEST SWAP2 POP POP JUMPDEST DUP1 SWAP2 POP POP SWAP3 SWAP2 POP POP JUMP JUMPDEST PUSH1 0x0 PUSH1 0x10 PUSH1 0x0 SWAP1 SLOAD SWAP1 PUSH2 0x100 EXP SWAP1 DIV PUSH20 0xFFFFFFFFFFFFFFFFFFFFFFFFFFFFFFFFFFFFFFFF AND PUSH20 0xFFFFFFFFFFFFFFFFFFFFFFFFFFFFFFFFFFFFFFFF AND PUSH4 0x18160DDD PUSH1 0x40 MLOAD DUP2 PUSH4 0xFFFFFFFF AND PUSH1 0xE0 SHL DUP2 MSTORE PUSH1 0x4 ADD PUSH1 0x20 PUSH1 0x40 MLOAD DUP1 DUP4 SUB DUP2 DUP7 DUP1 EXTCODESIZE ISZERO DUP1 ISZERO PUSH2 0x54E JUMPI PUSH1 0x0 DUP1 REVERT JUMPDEST POP GAS STATICCALL ISZERO DUP1 ISZERO PUSH2 0x562 JUMPI RETURNDATASIZE PUSH1 0x0 DUP1 RETURNDATACOPY RETURNDATASIZE PUSH1 0x0 REVERT JUMPDEST POP POP POP POP PUSH1 0x40 MLOAD RETURNDATASIZE PUSH1 0x1F NOT PUSH1 0x1F DUP3 ADD AND DUP3 ADD DUP1 PUSH1 0x40 MSTORE POP DUP2 ADD SWAP1 PUSH2 0x586 SWAP2 SWAP1 PUSH2 0xF1B JUMP JUMPDEST PUSH1 0x8 SLOAD PUSH2 0x593 SWAP2 SWAP1 PUSH2 0x1257 JUMP JUMPDEST SWAP1 POP SWAP1 JUMP JUMPDEST PUSH1 0x12 PUSH1 0x0 SWAP1 SLOAD SWAP1 PUSH2 0x100 EXP SWAP1 DIV PUSH20 0xFFFFFFFFFFFFFFFFFFFFFFFFFFFFFFFFFFFFFFFF AND PUSH20 0xFFFFFFFFFFFFFFFFFFFFFFFFFFFFFFFFFFFFFFFF AND PUSH4 0x40C10F19 CALLER DUP4 PUSH1 0x40 MLOAD DUP4 PUSH4 0xFFFFFFFF AND PUSH1 0xE0 SHL DUP2 MSTORE PUSH1 0x4 ADD PUSH2 0x5F5 SWAP3 SWAP2 SWAP1 PUSH2 0x1071 JUMP JUMPDEST PUSH1 0x0 PUSH1 0x40 MLOAD DUP1 DUP4 SUB DUP2 PUSH1 0x0 DUP8 DUP1 EXTCODESIZE ISZERO DUP1 ISZERO PUSH2 0x60F JUMPI PUSH1 0x0 DUP1 REVERT JUMPDEST POP GAS CALL ISZERO DUP1 ISZERO PUSH2 0x623 JUMPI RETURNDATASIZE PUSH1 0x0 DUP1 RETURNDATACOPY RETURNDATASIZE PUSH1 0x0 REVERT JUMPDEST POP POP POP POP POP JUMP JUMPDEST PUSH1 0x8 SLOAD DUP2 JUMP JUMPDEST PUSH1 0x0 PUSH8 0xDE0B6B3A7640000 PUSH8 0x10A741A462780000 PUSH1 0x0 SLOAD PUSH2 0x651 SWAP2 SWAP1 PUSH2 0x1197 JUMP JUMPDEST ADDRESS PUSH20 0xFFFFFFFFFFFFFFFFFFFFFFFFFFFFFFFFFFFFFFFF AND PUSH4 0x1F564A06 PUSH1 0x40 MLOAD DUP2 PUSH4 0xFFFFFFFF AND PUSH1 0xE0 SHL DUP2 MSTORE PUSH1 0x4 ADD PUSH1 0x20 PUSH1 0x40 MLOAD DUP1 DUP4 SUB DUP2 DUP7 DUP1 EXTCODESIZE ISZERO DUP1 ISZERO PUSH2 0x697 JUMPI PUSH1 0x0 DUP1 REVERT JUMPDEST POP GAS STATICCALL ISZERO DUP1 ISZERO PUSH2 0x6AB JUMPI RETURNDATASIZE PUSH1 0x0 DUP1 RETURNDATACOPY RETURNDATASIZE PUSH1 0x0 REVERT JUMPDEST POP POP POP POP PUSH1 0x40 MLOAD RETURNDATASIZE PUSH1 0x1F NOT PUSH1 0x1F DUP3 ADD AND DUP3 ADD DUP1 PUSH1 0x40 MSTORE POP DUP2 ADD SWAP1 PUSH2 0x6CF SWAP2 SWAP1 PUSH2 0xF1B JUMP JUMPDEST PUSH2 0x6D9 SWAP2 SWAP1 PUSH2 0x139F JUMP JUMPDEST PUSH2 0x6E3 SWAP2 SWAP1 PUSH2 0x1257 JUMP JUMPDEST SWAP1 POP SWAP1 JUMP JUMPDEST PUSH1 0x0 PUSH1 0x11 PUSH1 0x0 SWAP1 SLOAD SWAP1 PUSH2 0x100 EXP SWAP1 DIV PUSH20 0xFFFFFFFFFFFFFFFFFFFFFFFFFFFFFFFFFFFFFFFF AND PUSH20 0xFFFFFFFFFFFFFFFFFFFFFFFFFFFFFFFFFFFFFFFF AND PUSH4 0x70A08231 CALLER PUSH1 0x40 MLOAD DUP3 PUSH4 0xFFFFFFFF AND PUSH1 0xE0 SHL DUP2 MSTORE PUSH1 0x4 ADD PUSH2 0x745 SWAP2 SWAP1 PUSH2 0x101F JUMP JUMPDEST PUSH1 0x20 PUSH1 0x40 MLOAD DUP1 DUP4 SUB DUP2 DUP7 DUP1 EXTCODESIZE ISZERO DUP1 ISZERO PUSH2 0x75D JUMPI PUSH1 0x0 DUP1 REVERT JUMPDEST POP GAS STATICCALL ISZERO DUP1 ISZERO PUSH2 0x771 JUMPI RETURNDATASIZE PUSH1 0x0 DUP1 RETURNDATACOPY RETURNDATASIZE PUSH1 0x0 REVERT JUMPDEST POP POP POP POP PUSH1 0x40 MLOAD RETURNDATASIZE PUSH1 0x1F NOT PUSH1 0x1F DUP3 ADD AND DUP3 ADD DUP1 PUSH1 0x40 MSTORE POP DUP2 ADD SWAP1 PUSH2 0x795 SWAP2 SWAP1 PUSH2 0xF1B JUMP JUMPDEST SWAP1 POP DUP2 DUP2 GT PUSH2 0x7D9 JUMPI PUSH1 0x40 MLOAD PUSH32 0x8C379A000000000000000000000000000000000000000000000000000000000 DUP2 MSTORE PUSH1 0x4 ADD PUSH2 0x7D0 SWAP1 PUSH2 0x112B JUMP JUMPDEST PUSH1 0x40 MLOAD DUP1 SWAP2 SUB SWAP1 REVERT JUMPDEST PUSH1 0x10 PUSH1 0x0 SWAP1 SLOAD SWAP1 PUSH2 0x100 EXP SWAP1 DIV PUSH20 0xFFFFFFFFFFFFFFFFFFFFFFFFFFFFFFFFFFFFFFFF AND PUSH20 0xFFFFFFFFFFFFFFFFFFFFFFFFFFFFFFFFFFFFFFFF AND PUSH4 0xA9059CBB CALLER DUP5 PUSH1 0x40 MLOAD DUP4 PUSH4 0xFFFFFFFF AND PUSH1 0xE0 SHL DUP2 MSTORE PUSH1 0x4 ADD PUSH2 0x836 SWAP3 SWAP2 SWAP1 PUSH2 0x1071 JUMP JUMPDEST PUSH1 0x20 PUSH1 0x40 MLOAD DUP1 DUP4 SUB DUP2 PUSH1 0x0 DUP8 DUP1 EXTCODESIZE ISZERO DUP1 ISZERO PUSH2 0x850 JUMPI PUSH1 0x0 DUP1 REVERT JUMPDEST POP GAS CALL ISZERO DUP1 ISZERO PUSH2 0x864 JUMPI RETURNDATASIZE PUSH1 0x0 DUP1 RETURNDATACOPY RETURNDATASIZE PUSH1 0x0 REVERT JUMPDEST POP POP POP POP PUSH1 0x40 MLOAD RETURNDATASIZE PUSH1 0x1F NOT PUSH1 0x1F DUP3 ADD AND DUP3 ADD DUP1 PUSH1 0x40 MSTORE POP DUP2 ADD SWAP1 PUSH2 0x888 SWAP2 SWAP1 PUSH2 0xE81 JUMP JUMPDEST POP PUSH2 0x8B7 PUSH1 0x11 PUSH1 0x0 SWAP1 SLOAD SWAP1 PUSH2 0x100 EXP SWAP1 DIV PUSH20 0xFFFFFFFFFFFFFFFFFFFFFFFFFFFFFFFFFFFFFFFF AND CALLER ADDRESS DUP6 PUSH2 0xCFE JUMP JUMPDEST POP POP JUMP JUMPDEST PUSH1 0x10 PUSH1 0x0 SWAP1 SLOAD SWAP1 PUSH2 0x100 EXP SWAP1 DIV PUSH20 0xFFFFFFFFFFFFFFFFFFFFFFFFFFFFFFFFFFFFFFFF AND DUP2 JUMP JUMPDEST PUSH1 0xE PUSH1 0x0 SWAP1 SLOAD SWAP1 PUSH2 0x100 EXP SWAP1 DIV PUSH1 0xF SIGNEXTEND DUP2 JUMP JUMPDEST PUSH1 0x1 SLOAD DUP2 JUMP JUMPDEST PUSH1 0x0 PUSH1 0x10 PUSH1 0x0 SWAP1 SLOAD SWAP1 PUSH2 0x100 EXP SWAP1 DIV PUSH20 0xFFFFFFFFFFFFFFFFFFFFFFFFFFFFFFFFFFFFFFFF AND PUSH20 0xFFFFFFFFFFFFFFFFFFFFFFFFFFFFFFFFFFFFFFFF AND PUSH4 0x70A08231 CALLER PUSH1 0x40 MLOAD DUP3 PUSH4 0xFFFFFFFF AND PUSH1 0xE0 SHL DUP2 MSTORE PUSH1 0x4 ADD PUSH2 0x957 SWAP2 SWAP1 PUSH2 0x101F JUMP JUMPDEST PUSH1 0x20 PUSH1 0x40 MLOAD DUP1 DUP4 SUB DUP2 DUP7 DUP1 EXTCODESIZE ISZERO DUP1 ISZERO PUSH2 0x96F JUMPI PUSH1 0x0 DUP1 REVERT JUMPDEST POP GAS STATICCALL ISZERO DUP1 ISZERO PUSH2 0x983 JUMPI RETURNDATASIZE PUSH1 0x0 DUP1 RETURNDATACOPY RETURNDATASIZE PUSH1 0x0 REVERT JUMPDEST POP POP POP POP PUSH1 0x40 MLOAD RETURNDATASIZE PUSH1 0x1F NOT PUSH1 0x1F DUP3 ADD AND DUP3 ADD DUP1 PUSH1 0x40 MSTORE POP DUP2 ADD SWAP1 PUSH2 0x9A7 SWAP2 SWAP1 PUSH2 0xF1B JUMP JUMPDEST SWAP1 POP DUP2 DUP2 GT PUSH2 0x9EB JUMPI PUSH1 0x40 MLOAD PUSH32 0x8C379A000000000000000000000000000000000000000000000000000000000 DUP2 MSTORE PUSH1 0x4 ADD PUSH2 0x9E2 SWAP1 PUSH2 0x112B JUMP JUMPDEST PUSH1 0x40 MLOAD DUP1 SWAP2 SUB SWAP1 REVERT JUMPDEST PUSH1 0x11 PUSH1 0x0 SWAP1 SLOAD SWAP1 PUSH2 0x100 EXP SWAP1 DIV PUSH20 0xFFFFFFFFFFFFFFFFFFFFFFFFFFFFFFFFFFFFFFFF AND PUSH20 0xFFFFFFFFFFFFFFFFFFFFFFFFFFFFFFFFFFFFFFFF AND PUSH4 0xA9059CBB CALLER PUSH8 0xDE0B6B3A7640000 DUP6 PUSH2 0xA3E SWAP2 SWAP1 PUSH2 0x1197 JUMP JUMPDEST PUSH1 0x40 MLOAD DUP4 PUSH4 0xFFFFFFFF AND PUSH1 0xE0 SHL DUP2 MSTORE PUSH1 0x4 ADD PUSH2 0xA5B SWAP3 SWAP2 SWAP1 PUSH2 0x1071 JUMP JUMPDEST PUSH1 0x20 PUSH1 0x40 MLOAD DUP1 DUP4 SUB DUP2 PUSH1 0x0 DUP8 DUP1 EXTCODESIZE ISZERO DUP1 ISZERO PUSH2 0xA75 JUMPI PUSH1 0x0 DUP1 REVERT JUMPDEST POP GAS CALL ISZERO DUP1 ISZERO PUSH2 0xA89 JUMPI RETURNDATASIZE PUSH1 0x0 DUP1 RETURNDATACOPY RETURNDATASIZE PUSH1 0x0 REVERT JUMPDEST POP POP POP POP PUSH1 0x40 MLOAD RETURNDATASIZE PUSH1 0x1F NOT PUSH1 0x1F DUP3 ADD AND DUP3 ADD DUP1 PUSH1 0x40 MSTORE POP DUP2 ADD SWAP1 PUSH2 0xAAD SWAP2 SWAP1 PUSH2 0xE81 JUMP JUMPDEST POP PUSH2 0xADC PUSH1 0x10 PUSH1 0x0 SWAP1 SLOAD SWAP1 PUSH2 0x100 EXP SWAP1 DIV PUSH20 0xFFFFFFFFFFFFFFFFFFFFFFFFFFFFFFFFFFFFFFFF AND CALLER ADDRESS DUP6 PUSH2 0xCFE JUMP JUMPDEST POP POP JUMP JUMPDEST PUSH1 0x7 PUSH1 0x0 SWAP1 SLOAD SWAP1 PUSH2 0x100 EXP SWAP1 DIV PUSH20 0xFFFFFFFFFFFFFFFFFFFFFFFFFFFFFFFFFFFFFFFF AND DUP2 JUMP JUMPDEST PUSH1 0x11 PUSH1 0x0 SWAP1 SLOAD SWAP1 PUSH2 0x100 EXP SWAP1 DIV PUSH20 0xFFFFFFFFFFFFFFFFFFFFFFFFFFFFFFFFFFFFFFFF AND DUP2 JUMP JUMPDEST PUSH1 0x0 DUP3 PUSH20 0xFFFFFFFFFFFFFFFFFFFFFFFFFFFFFFFFFFFFFFFF AND PUSH4 0x70A08231 DUP4 PUSH1 0x40 MLOAD DUP3 PUSH4 0xFFFFFFFF AND PUSH1 0xE0 SHL DUP2 MSTORE PUSH1 0x4 ADD PUSH2 0xB67 SWAP2 SWAP1 PUSH2 0x101F JUMP JUMPDEST PUSH1 0x20 PUSH1 0x40 MLOAD DUP1 DUP4 SUB DUP2 DUP7 DUP1 EXTCODESIZE ISZERO DUP1 ISZERO PUSH2 0xB7F JUMPI PUSH1 0x0 DUP1 REVERT JUMPDEST POP GAS STATICCALL ISZERO DUP1 ISZERO PUSH2 0xB93 JUMPI RETURNDATASIZE PUSH1 0x0 DUP1 RETURNDATACOPY RETURNDATASIZE PUSH1 0x0 REVERT JUMPDEST POP POP POP POP PUSH1 0x40 MLOAD RETURNDATASIZE PUSH1 0x1F NOT PUSH1 0x1F DUP3 ADD AND DUP3 ADD DUP1 PUSH1 0x40 MSTORE POP DUP2 ADD SWAP1 PUSH2 0xBB7 SWAP2 SWAP1 PUSH2 0xF1B JUMP JUMPDEST SWAP1 POP SWAP3 SWAP2 POP POP JUMP JUMPDEST PUSH1 0x0 SLOAD DUP2 JUMP JUMPDEST PUSH1 0xF PUSH1 0x0 SWAP1 SLOAD SWAP1 PUSH2 0x100 EXP SWAP1 DIV PUSH20 0xFFFFFFFFFFFFFFFFFFFFFFFFFFFFFFFFFFFFFFFF AND DUP2 JUMP JUMPDEST PUSH1 0x6 PUSH1 0x0 SWAP1 SLOAD SWAP1 PUSH2 0x100 EXP SWAP1 DIV PUSH20 0xFFFFFFFFFFFFFFFFFFFFFFFFFFFFFFFFFFFFFFFF AND DUP2 JUMP JUMPDEST PUSH1 0x0 DUP1 DUP3 EQ ISZERO PUSH2 0xC56 JUMPI PUSH1 0x40 MLOAD PUSH32 0x8C379A000000000000000000000000000000000000000000000000000000000 DUP2 MSTORE PUSH1 0x4 ADD PUSH2 0xC4D SWAP1 PUSH2 0x114B JUMP JUMPDEST PUSH1 0x40 MLOAD DUP1 SWAP2 SUB SWAP1 REVERT JUMPDEST PUSH32 0xFFFFFFFFFFFFFFFFFFFFFFFFFFFFFFFFFFFFFFFFFFFFFFFFFFFFFFFFFFFFFFFF DUP3 EQ DUP1 ISZERO PUSH2 0xCA4 JUMPI POP PUSH32 0x8000000000000000000000000000000000000000000000000000000000000000 DUP4 EQ JUMPDEST ISZERO PUSH2 0xCE4 JUMPI PUSH1 0x40 MLOAD PUSH32 0x8C379A000000000000000000000000000000000000000000000000000000000 DUP2 MSTORE PUSH1 0x4 ADD PUSH2 0xCDB SWAP1 PUSH2 0x110B JUMP JUMPDEST PUSH1 0x40 MLOAD DUP1 SWAP2 SUB SWAP1 REVERT JUMPDEST PUSH1 0x0 DUP3 DUP5 PUSH2 0xCF2 SWAP2 SWAP1 PUSH2 0x11ED JUMP JUMPDEST SWAP1 POP DUP1 SWAP2 POP POP SWAP3 SWAP2 POP POP JUMP JUMPDEST PUSH1 0x0 DUP5 PUSH20 0xFFFFFFFFFFFFFFFFFFFFFFFFFFFFFFFFFFFFFFFF AND PUSH4 0x23B872DD DUP6 DUP6 DUP6 PUSH1 0x40 MLOAD DUP5 PUSH4 0xFFFFFFFF AND PUSH1 0xE0 SHL DUP2 MSTORE PUSH1 0x4 ADD PUSH2 0xD3D SWAP4 SWAP3 SWAP2 SWAP1 PUSH2 0x103A JUMP JUMPDEST PUSH1 0x20 PUSH1 0x40 MLOAD DUP1 DUP4 SUB DUP2 PUSH1 0x0 DUP8 DUP1 EXTCODESIZE ISZERO DUP1 ISZERO PUSH2 0xD57 JUMPI PUSH1 0x0 DUP1 REVERT JUMPDEST POP GAS CALL ISZERO DUP1 ISZERO PUSH2 0xD6B JUMPI RETURNDATASIZE PUSH1 0x0 DUP1 RETURNDATACOPY RETURNDATASIZE PUSH1 0x0 REVERT JUMPDEST POP POP POP POP PUSH1 0x40 MLOAD RETURNDATASIZE PUSH1 0x1F NOT PUSH1 0x1F DUP3 ADD AND DUP3 ADD DUP1 PUSH1 0x40 MSTORE POP DUP2 ADD SWAP1 PUSH2 0xD8F SWAP2 SWAP1 PUSH2 0xE81 JUMP JUMPDEST SWAP1 POP DUP1 PUSH2 0xDD1 JUMPI PUSH1 0x40 MLOAD PUSH32 0x8C379A000000000000000000000000000000000000000000000000000000000 DUP2 MSTORE PUSH1 0x4 ADD PUSH2 0xDC8 SWAP1 PUSH2 0x10EB JUMP JUMPDEST PUSH1 0x40 MLOAD DUP1 SWAP2 SUB SWAP1 REVERT JUMPDEST POP POP POP POP POP JUMP JUMPDEST PUSH1 0x0 DUP2 CALLDATALOAD SWAP1 POP PUSH2 0xDE7 DUP2 PUSH2 0x1638 JUMP JUMPDEST SWAP3 SWAP2 POP POP JUMP JUMPDEST PUSH1 0x0 DUP2 MLOAD SWAP1 POP PUSH2 0xDFC DUP2 PUSH2 0x164F JUMP JUMPDEST SWAP3 SWAP2 POP POP JUMP JUMPDEST PUSH1 0x0 DUP2 CALLDATALOAD SWAP1 POP PUSH2 0xE11 DUP2 PUSH2 0x1666 JUMP JUMPDEST SWAP3 SWAP2 POP POP JUMP JUMPDEST PUSH1 0x0 DUP2 CALLDATALOAD SWAP1 POP PUSH2 0xE26 DUP2 PUSH2 0x167D JUMP JUMPDEST SWAP3 SWAP2 POP POP JUMP JUMPDEST PUSH1 0x0 DUP2 MLOAD SWAP1 POP PUSH2 0xE3B DUP2 PUSH2 0x167D JUMP JUMPDEST SWAP3 SWAP2 POP POP JUMP JUMPDEST PUSH1 0x0 DUP1 PUSH1 0x40 DUP4 DUP6 SUB SLT ISZERO PUSH2 0xE58 JUMPI PUSH2 0xE57 PUSH2 0x1569 JUMP JUMPDEST JUMPDEST PUSH1 0x0 PUSH2 0xE66 DUP6 DUP3 DUP7 ADD PUSH2 0xDD8 JUMP JUMPDEST SWAP3 POP POP PUSH1 0x20 PUSH2 0xE77 DUP6 DUP3 DUP7 ADD PUSH2 0xDD8 JUMP JUMPDEST SWAP2 POP POP SWAP3 POP SWAP3 SWAP1 POP JUMP JUMPDEST PUSH1 0x0 PUSH1 0x20 DUP3 DUP5 SUB SLT ISZERO PUSH2 0xE97 JUMPI PUSH2 0xE96 PUSH2 0x1569 JUMP JUMPDEST JUMPDEST PUSH1 0x0 PUSH2 0xEA5 DUP5 DUP3 DUP6 ADD PUSH2 0xDED JUMP JUMPDEST SWAP2 POP POP SWAP3 SWAP2 POP POP JUMP JUMPDEST PUSH1 0x0 DUP1 PUSH1 0x40 DUP4 DUP6 SUB SLT ISZERO PUSH2 0xEC5 JUMPI PUSH2 0xEC4 PUSH2 0x1569 JUMP JUMPDEST JUMPDEST PUSH1 0x0 PUSH2 0xED3 DUP6 DUP3 DUP7 ADD PUSH2 0xE02 JUMP JUMPDEST SWAP3 POP POP PUSH1 0x20 PUSH2 0xEE4 DUP6 DUP3 DUP7 ADD PUSH2 0xE02 JUMP JUMPDEST SWAP2 POP POP SWAP3 POP SWAP3 SWAP1 POP JUMP JUMPDEST PUSH1 0x0 PUSH1 0x20 DUP3 DUP5 SUB SLT ISZERO PUSH2 0xF04 JUMPI PUSH2 0xF03 PUSH2 0x1569 JUMP JUMPDEST JUMPDEST PUSH1 0x0 PUSH2 0xF12 DUP5 DUP3 DUP6 ADD PUSH2 0xE17 JUMP JUMPDEST SWAP2 POP POP SWAP3 SWAP2 POP POP JUMP JUMPDEST PUSH1 0x0 PUSH1 0x20 DUP3 DUP5 SUB SLT ISZERO PUSH2 0xF31 JUMPI PUSH2 0xF30 PUSH2 0x1569 JUMP JUMPDEST JUMPDEST PUSH1 0x0 PUSH2 0xF3F DUP5 DUP3 DUP6 ADD PUSH2 0xE2C JUMP JUMPDEST SWAP2 POP POP SWAP3 SWAP2 POP POP JUMP JUMPDEST PUSH2 0xF51 DUP2 PUSH2 0x142D JUMP JUMPDEST DUP3 MSTORE POP POP JUMP JUMPDEST PUSH2 0xF60 DUP2 PUSH2 0x148C JUMP JUMPDEST DUP3 MSTORE POP POP JUMP JUMPDEST PUSH2 0xF6F DUP2 PUSH2 0x144B JUMP JUMPDEST DUP3 MSTORE POP POP JUMP JUMPDEST PUSH2 0xF7E DUP2 PUSH2 0x1458 JUMP JUMPDEST DUP3 MSTORE POP POP JUMP JUMPDEST PUSH1 0x0 PUSH2 0xF91 PUSH1 0x15 DUP4 PUSH2 0x1186 JUMP JUMPDEST SWAP2 POP PUSH2 0xF9C DUP3 PUSH2 0x156E JUMP JUMPDEST PUSH1 0x20 DUP3 ADD SWAP1 POP SWAP2 SWAP1 POP JUMP JUMPDEST PUSH1 0x0 PUSH2 0xFB4 PUSH1 0x21 DUP4 PUSH2 0x1186 JUMP JUMPDEST SWAP2 POP PUSH2 0xFBF DUP3 PUSH2 0x1597 JUMP JUMPDEST PUSH1 0x40 DUP3 ADD SWAP1 POP SWAP2 SWAP1 POP JUMP JUMPDEST PUSH1 0x0 PUSH2 0xFD7 PUSH1 0x1A DUP4 PUSH2 0x1186 JUMP JUMPDEST SWAP2 POP PUSH2 0xFE2 DUP3 PUSH2 0x15E6 JUMP JUMPDEST PUSH1 0x20 DUP3 ADD SWAP1 POP SWAP2 SWAP1 POP JUMP JUMPDEST PUSH1 0x0 PUSH2 0xFFA PUSH1 0x20 DUP4 PUSH2 0x1186 JUMP JUMPDEST SWAP2 POP PUSH2 0x1005 DUP3 PUSH2 0x160F JUMP JUMPDEST PUSH1 0x20 DUP3 ADD SWAP1 POP SWAP2 SWAP1 POP JUMP JUMPDEST PUSH2 0x1019 DUP2 PUSH2 0x1482 JUMP JUMPDEST DUP3 MSTORE POP POP JUMP JUMPDEST PUSH1 0x0 PUSH1 0x20 DUP3 ADD SWAP1 POP PUSH2 0x1034 PUSH1 0x0 DUP4 ADD DUP5 PUSH2 0xF48 JUMP JUMPDEST SWAP3 SWAP2 POP POP JUMP JUMPDEST PUSH1 0x0 PUSH1 0x60 DUP3 ADD SWAP1 POP PUSH2 0x104F PUSH1 0x0 DUP4 ADD DUP7 PUSH2 0xF48 JUMP JUMPDEST PUSH2 0x105C PUSH1 0x20 DUP4 ADD DUP6 PUSH2 0xF48 JUMP JUMPDEST PUSH2 0x1069 PUSH1 0x40 DUP4 ADD DUP5 PUSH2 0x1010 JUMP JUMPDEST SWAP5 SWAP4 POP POP POP POP JUMP JUMPDEST PUSH1 0x0 PUSH1 0x40 DUP3 ADD SWAP1 POP PUSH2 0x1086 PUSH1 0x0 DUP4 ADD DUP6 PUSH2 0xF48 JUMP JUMPDEST PUSH2 0x1093 PUSH1 0x20 DUP4 ADD DUP5 PUSH2 0x1010 JUMP JUMPDEST SWAP4 SWAP3 POP POP POP JUMP JUMPDEST PUSH1 0x0 PUSH1 0x20 DUP3 ADD SWAP1 POP PUSH2 0x10AF PUSH1 0x0 DUP4 ADD DUP5 PUSH2 0xF57 JUMP JUMPDEST SWAP3 SWAP2 POP POP JUMP JUMPDEST PUSH1 0x0 PUSH1 0x20 DUP3 ADD SWAP1 POP PUSH2 0x10CA PUSH1 0x0 DUP4 ADD DUP5 PUSH2 0xF66 JUMP JUMPDEST SWAP3 SWAP2 POP POP JUMP JUMPDEST PUSH1 0x0 PUSH1 0x20 DUP3 ADD SWAP1 POP PUSH2 0x10E5 PUSH1 0x0 DUP4 ADD DUP5 PUSH2 0xF75 JUMP JUMPDEST SWAP3 SWAP2 POP POP JUMP JUMPDEST PUSH1 0x0 PUSH1 0x20 DUP3 ADD SWAP1 POP DUP2 DUP2 SUB PUSH1 0x0 DUP4 ADD MSTORE PUSH2 0x1104 DUP2 PUSH2 0xF84 JUMP JUMPDEST SWAP1 POP SWAP2 SWAP1 POP JUMP JUMPDEST PUSH1 0x0 PUSH1 0x20 DUP3 ADD SWAP1 POP DUP2 DUP2 SUB PUSH1 0x0 DUP4 ADD MSTORE PUSH2 0x1124 DUP2 PUSH2 0xFA7 JUMP JUMPDEST SWAP1 POP SWAP2 SWAP1 POP JUMP JUMPDEST PUSH1 0x0 PUSH1 0x20 DUP3 ADD SWAP1 POP DUP2 DUP2 SUB PUSH1 0x0 DUP4 ADD MSTORE PUSH2 0x1144 DUP2 PUSH2 0xFCA JUMP JUMPDEST SWAP1 POP SWAP2 SWAP1 POP JUMP JUMPDEST PUSH1 0x0 PUSH1 0x20 DUP3 ADD SWAP1 POP DUP2 DUP2 SUB PUSH1 0x0 DUP4 ADD MSTORE PUSH2 0x1164 DUP2 PUSH2 0xFED JUMP JUMPDEST SWAP1 POP SWAP2 SWAP1 POP JUMP JUMPDEST PUSH1 0x0 PUSH1 0x20 DUP3 ADD SWAP1 POP PUSH2 0x1180 PUSH1 0x0 DUP4 ADD DUP5 PUSH2 0x1010 JUMP JUMPDEST SWAP3 SWAP2 POP POP JUMP JUMPDEST PUSH1 0x0 DUP3 DUP3 MSTORE PUSH1 0x20 DUP3 ADD SWAP1 POP SWAP3 SWAP2 POP POP JUMP JUMPDEST PUSH1 0x0 PUSH2 0x11A2 DUP3 PUSH2 0x1482 JUMP JUMPDEST SWAP2 POP PUSH2 0x11AD DUP4 PUSH2 0x1482 JUMP JUMPDEST SWAP3 POP DUP3 PUSH32 0xFFFFFFFFFFFFFFFFFFFFFFFFFFFFFFFFFFFFFFFFFFFFFFFFFFFFFFFFFFFFFFFF SUB DUP3 GT ISZERO PUSH2 0x11E2 JUMPI PUSH2 0x11E1 PUSH2 0x150B JUMP JUMPDEST JUMPDEST DUP3 DUP3 ADD SWAP1 POP SWAP3 SWAP2 POP POP JUMP JUMPDEST PUSH1 0x0 PUSH2 0x11F8 DUP3 PUSH2 0x1458 JUMP JUMPDEST SWAP2 POP PUSH2 0x1203 DUP4 PUSH2 0x1458 JUMP JUMPDEST SWAP3 POP DUP3 PUSH2 0x1213 JUMPI PUSH2 0x1212 PUSH2 0x153A JUMP JUMPDEST JUMPDEST PUSH1 0x1 PUSH1 0x0 SUB DUP4 EQ PUSH32 0x8000000000000000000000000000000000000000000000000000000000000000 DUP4 EQ AND ISZERO PUSH2 0x124C JUMPI PUSH2 0x124B PUSH2 0x150B JUMP JUMPDEST JUMPDEST DUP3 DUP3 SDIV SWAP1 POP SWAP3 SWAP2 POP POP JUMP JUMPDEST PUSH1 0x0 PUSH2 0x1262 DUP3 PUSH2 0x1482 JUMP JUMPDEST SWAP2 POP PUSH2 0x126D DUP4 PUSH2 0x1482 JUMP JUMPDEST SWAP3 POP DUP3 PUSH2 0x127D JUMPI PUSH2 0x127C PUSH2 0x153A JUMP JUMPDEST JUMPDEST DUP3 DUP3 DIV SWAP1 POP SWAP3 SWAP2 POP POP JUMP JUMPDEST PUSH1 0x0 PUSH2 0x1293 DUP3 PUSH2 0x1458 JUMP JUMPDEST SWAP2 POP PUSH2 0x129E DUP4 PUSH2 0x1458 JUMP JUMPDEST SWAP3 POP DUP3 PUSH32 0x7FFFFFFFFFFFFFFFFFFFFFFFFFFFFFFFFFFFFFFFFFFFFFFFFFFFFFFFFFFFFFFF DIV DUP3 GT PUSH1 0x0 DUP5 SGT PUSH1 0x0 DUP5 SGT AND AND ISZERO PUSH2 0x12DD JUMPI PUSH2 0x12DC PUSH2 0x150B JUMP JUMPDEST JUMPDEST DUP2 PUSH32 0x8000000000000000000000000000000000000000000000000000000000000000 SDIV DUP4 SLT PUSH1 0x0 DUP5 SLT PUSH1 0x0 DUP5 SGT AND AND ISZERO PUSH2 0x131A JUMPI PUSH2 0x1319 PUSH2 0x150B JUMP JUMPDEST JUMPDEST DUP3 PUSH32 0x8000000000000000000000000000000000000000000000000000000000000000 SDIV DUP3 SLT PUSH1 0x0 DUP5 SGT PUSH1 0x0 DUP5 SLT AND AND ISZERO PUSH2 0x1357 JUMPI PUSH2 0x1356 PUSH2 0x150B JUMP JUMPDEST JUMPDEST DUP3 PUSH32 0x7FFFFFFFFFFFFFFFFFFFFFFFFFFFFFFFFFFFFFFFFFFFFFFFFFFFFFFFFFFFFFFF SDIV DUP3 SLT PUSH1 0x0 DUP5 SLT PUSH1 0x0 DUP5 SLT AND AND ISZERO PUSH2 0x1394 JUMPI PUSH2 0x1393 PUSH2 0x150B JUMP JUMPDEST JUMPDEST DUP3 DUP3 MUL SWAP1 POP SWAP3 SWAP2 POP POP JUMP JUMPDEST PUSH1 0x0 PUSH2 0x13AA DUP3 PUSH2 0x1482 JUMP JUMPDEST SWAP2 POP PUSH2 0x13B5 DUP4 PUSH2 0x1482 JUMP JUMPDEST SWAP3 POP DUP2 PUSH32 0xFFFFFFFFFFFFFFFFFFFFFFFFFFFFFFFFFFFFFFFFFFFFFFFFFFFFFFFFFFFFFFFF DIV DUP4 GT DUP3 ISZERO ISZERO AND ISZERO PUSH2 0x13EE JUMPI PUSH2 0x13ED PUSH2 0x150B JUMP JUMPDEST JUMPDEST DUP3 DUP3 MUL SWAP1 POP SWAP3 SWAP2 POP POP JUMP JUMPDEST PUSH1 0x0 PUSH2 0x1404 DUP3 PUSH2 0x1482 JUMP JUMPDEST SWAP2 POP PUSH2 0x140F DUP4 PUSH2 0x1482 JUMP JUMPDEST SWAP3 POP DUP3 DUP3 LT ISZERO PUSH2 0x1422 JUMPI PUSH2 0x1421 PUSH2 0x150B JUMP JUMPDEST JUMPDEST DUP3 DUP3 SUB SWAP1 POP SWAP3 SWAP2 POP POP JUMP JUMPDEST PUSH1 0x0 PUSH2 0x1438 DUP3 PUSH2 0x1462 JUMP JUMPDEST SWAP1 POP SWAP2 SWAP1 POP JUMP JUMPDEST PUSH1 0x0 DUP2 ISZERO ISZERO SWAP1 POP SWAP2 SWAP1 POP JUMP JUMPDEST PUSH1 0x0 DUP2 PUSH1 0xF SIGNEXTEND SWAP1 POP SWAP2 SWAP1 POP JUMP JUMPDEST PUSH1 0x0 DUP2 SWAP1 POP SWAP2 SWAP1 POP JUMP JUMPDEST PUSH1 0x0 PUSH20 0xFFFFFFFFFFFFFFFFFFFFFFFFFFFFFFFFFFFFFFFF DUP3 AND SWAP1 POP SWAP2 SWAP1 POP JUMP JUMPDEST PUSH1 0x0 DUP2 SWAP1 POP SWAP2 SWAP1 POP JUMP JUMPDEST PUSH1 0x0 PUSH2 0x1497 DUP3 PUSH2 0x149E JUMP JUMPDEST SWAP1 POP SWAP2 SWAP1 POP JUMP JUMPDEST PUSH1 0x0 PUSH2 0x14A9 DUP3 PUSH2 0x14B0 JUMP JUMPDEST SWAP1 POP SWAP2 SWAP1 POP JUMP JUMPDEST PUSH1 0x0 PUSH2 0x14BB DUP3 PUSH2 0x1462 JUMP JUMPDEST SWAP1 POP SWAP2 SWAP1 POP JUMP JUMPDEST PUSH1 0x0 PUSH2 0x14CD DUP3 PUSH2 0x1458 JUMP JUMPDEST SWAP2 POP PUSH32 0x8000000000000000000000000000000000000000000000000000000000000000 DUP3 EQ ISZERO PUSH2 0x1500 JUMPI PUSH2 0x14FF PUSH2 0x150B JUMP JUMPDEST JUMPDEST PUSH1 0x1 DUP3 SUB SWAP1 POP SWAP2 SWAP1 POP JUMP JUMPDEST PUSH32 0x4E487B7100000000000000000000000000000000000000000000000000000000 PUSH1 0x0 MSTORE PUSH1 0x11 PUSH1 0x4 MSTORE PUSH1 0x24 PUSH1 0x0 REVERT JUMPDEST PUSH32 0x4E487B7100000000000000000000000000000000000000000000000000000000 PUSH1 0x0 MSTORE PUSH1 0x12 PUSH1 0x4 MSTORE PUSH1 0x24 PUSH1 0x0 REVERT JUMPDEST PUSH1 0x0 DUP1 REVERT JUMPDEST PUSH32 0x546F6B656E207472616E73666572206661696C65640000000000000000000000 PUSH1 0x0 DUP3 ADD MSTORE POP JUMP JUMPDEST PUSH32 0x5369676E6564536166654D6174683A206469766973696F6E206F766572666C6F PUSH1 0x0 DUP3 ADD MSTORE PUSH32 0x7700000000000000000000000000000000000000000000000000000000000000 PUSH1 0x20 DUP3 ADD MSTORE POP JUMP JUMPDEST PUSH32 0x596F7520646F6E742068617665207468617420616D6F756E7421000000000000 PUSH1 0x0 DUP3 ADD MSTORE POP JUMP JUMPDEST PUSH32 0x5369676E6564536166654D6174683A206469766973696F6E206279207A65726F PUSH1 0x0 DUP3 ADD MSTORE POP JUMP JUMPDEST PUSH2 0x1641 DUP2 PUSH2 0x142D JUMP JUMPDEST DUP2 EQ PUSH2 0x164C JUMPI PUSH1 0x0 DUP1 REVERT JUMPDEST POP JUMP JUMPDEST PUSH2 0x1658 DUP2 PUSH2 0x143F JUMP JUMPDEST DUP2 EQ PUSH2 0x1663 JUMPI PUSH1 0x0 DUP1 REVERT JUMPDEST POP JUMP JUMPDEST PUSH2 0x166F DUP2 PUSH2 0x1458 JUMP JUMPDEST DUP2 EQ PUSH2 0x167A JUMPI PUSH1 0x0 DUP1 REVERT JUMPDEST POP JUMP JUMPDEST PUSH2 0x1686 DUP2 PUSH2 0x1482 JUMP JUMPDEST DUP2 EQ PUSH2 0x1691 JUMPI PUSH1 0x0 DUP1 REVERT JUMPDEST POP JUMP INVALID LOG2 PUSH5 0x6970667358 0x22 SLT KECCAK256 ADD 0xE7 REVERT 0xAD 0xD5 AND 0xF9 MSTORE DUP2 DUP5 PUSH21 0x6996E8277C1AFAA51D29312C61EACDFDB42C799368 PUSH5 0x736F6C6343 STOP ADDMOD SMOD STOP CALLER "
				},
				"gasEstimates": {
					"creation": {
						"codeDepositCost": "1166800",
						"executionCost": "infinite",
						"totalCost": "infinite"
					},
					"external": {
						"buyScepter(uint256)": "infinite",
						"floorDiv(int256,int256)": "infinite",
						"getBackingPrice()": "infinite",
						"getBuyPrice()": "infinite",
						"getSellPrice()": "infinite",
						"growthFactor()": "2495",
						"mintBaton(uint256)": "infinite",
						"mockUSDC()": "2622",
						"queryERC20Balance(address,address)": "infinite",
						"res()": "2498",
						"sellFactor()": "2474",
						"sellScepter(uint256)": "infinite",
						"tSC()": "2689",
						"testwallet()": "2602",
						"treasury1Addr()": "2624",
						"treasury1bal()": "2452",
						"treasury2Addr()": "2603"
					},
					"internal": {
						"_safeTransferFrom(contract IERC20,address,address,uint256)": "infinite"
					}
				},
				"methodIdentifiers": {
					"buyScepter(uint256)": "65819f7e",
					"floorDiv(int256,int256)": "0e8a0f89",
					"getBackingPrice()": "1f564a06",
					"getBuyPrice()": "018a25e8",
					"getSellPrice()": "43d32e9c",
					"growthFactor()": "ee620868",
					"mintBaton(uint256)": "2934b237",
					"mockUSDC()": "ee467678",
					"queryERC20Balance(address,address)": "ee546a51",
					"res()": "6f10e285",
					"sellFactor()": "cbff4617",
					"sellScepter(uint256)": "daa3a4a4",
					"tSC()": "6e05c1b9",
					"testwallet()": "eee05f5e",
					"treasury1Addr()": "fbbb4589",
					"treasury1bal()": "35453307",
					"treasury2Addr()": "dd9b1d97"
				}
			},
			"userdoc": {
				"kind": "user",
				"methods": {},
				"version": 1
			}
		}
	}
}