{
	"saf.sol": {
		"Safuu": {
			"abi": [
				{
					"inputs": [],
					"stateMutability": "nonpayable",
					"type": "constructor"
				},
				{
					"anonymous": false,
					"inputs": [
						{
							"indexed": true,
							"internalType": "address",
							"name": "owner",
							"type": "address"
						},
						{
							"indexed": true,
							"internalType": "address",
							"name": "spender",
							"type": "address"
						},
						{
							"indexed": false,
							"internalType": "uint256",
							"name": "value",
							"type": "uint256"
						}
					],
					"name": "Approval",
					"type": "event"
				},
				{
					"anonymous": false,
					"inputs": [
						{
							"indexed": true,
							"internalType": "uint256",
							"name": "epoch",
							"type": "uint256"
						},
						{
							"indexed": false,
							"internalType": "uint256",
							"name": "totalSupply",
							"type": "uint256"
						}
					],
					"name": "LogRebase",
					"type": "event"
				},
				{
					"anonymous": false,
					"inputs": [
						{
							"indexed": true,
							"internalType": "address",
							"name": "previousOwner",
							"type": "address"
						}
					],
					"name": "OwnershipRenounced",
					"type": "event"
				},
				{
					"anonymous": false,
					"inputs": [
						{
							"indexed": true,
							"internalType": "address",
							"name": "previousOwner",
							"type": "address"
						},
						{
							"indexed": true,
							"internalType": "address",
							"name": "newOwner",
							"type": "address"
						}
					],
					"name": "OwnershipTransferred",
					"type": "event"
				},
				{
					"anonymous": false,
					"inputs": [
						{
							"indexed": true,
							"internalType": "address",
							"name": "from",
							"type": "address"
						},
						{
							"indexed": true,
							"internalType": "address",
							"name": "to",
							"type": "address"
						},
						{
							"indexed": false,
							"internalType": "uint256",
							"name": "value",
							"type": "uint256"
						}
					],
					"name": "Transfer",
					"type": "event"
				},
				{
					"inputs": [],
					"name": "DECIMALS",
					"outputs": [
						{
							"internalType": "uint256",
							"name": "",
							"type": "uint256"
						}
					],
					"stateMutability": "view",
					"type": "function"
				},
				{
					"inputs": [],
					"name": "MAX_UINT256",
					"outputs": [
						{
							"internalType": "uint256",
							"name": "",
							"type": "uint256"
						}
					],
					"stateMutability": "view",
					"type": "function"
				},
				{
					"inputs": [],
					"name": "RATE_DECIMALS",
					"outputs": [
						{
							"internalType": "uint8",
							"name": "",
							"type": "uint8"
						}
					],
					"stateMutability": "view",
					"type": "function"
				},
				{
					"inputs": [],
					"name": "_autoAddLiquidity",
					"outputs": [
						{
							"internalType": "bool",
							"name": "",
							"type": "bool"
						}
					],
					"stateMutability": "view",
					"type": "function"
				},
				{
					"inputs": [],
					"name": "_autoRebase",
					"outputs": [
						{
							"internalType": "bool",
							"name": "",
							"type": "bool"
						}
					],
					"stateMutability": "view",
					"type": "function"
				},
				{
					"inputs": [],
					"name": "_decimals",
					"outputs": [
						{
							"internalType": "uint8",
							"name": "",
							"type": "uint8"
						}
					],
					"stateMutability": "view",
					"type": "function"
				},
				{
					"inputs": [],
					"name": "_initRebaseStartTime",
					"outputs": [
						{
							"internalType": "uint256",
							"name": "",
							"type": "uint256"
						}
					],
					"stateMutability": "view",
					"type": "function"
				},
				{
					"inputs": [],
					"name": "_lastAddLiquidityTime",
					"outputs": [
						{
							"internalType": "uint256",
							"name": "",
							"type": "uint256"
						}
					],
					"stateMutability": "view",
					"type": "function"
				},
				{
					"inputs": [],
					"name": "_lastRebasedTime",
					"outputs": [
						{
							"internalType": "uint256",
							"name": "",
							"type": "uint256"
						}
					],
					"stateMutability": "view",
					"type": "function"
				},
				{
					"inputs": [],
					"name": "_name",
					"outputs": [
						{
							"internalType": "string",
							"name": "",
							"type": "string"
						}
					],
					"stateMutability": "view",
					"type": "function"
				},
				{
					"inputs": [],
					"name": "_symbol",
					"outputs": [
						{
							"internalType": "string",
							"name": "",
							"type": "string"
						}
					],
					"stateMutability": "view",
					"type": "function"
				},
				{
					"inputs": [],
					"name": "_totalSupply",
					"outputs": [
						{
							"internalType": "uint256",
							"name": "",
							"type": "uint256"
						}
					],
					"stateMutability": "view",
					"type": "function"
				},
				{
					"inputs": [
						{
							"internalType": "address",
							"name": "owner_",
							"type": "address"
						},
						{
							"internalType": "address",
							"name": "spender",
							"type": "address"
						}
					],
					"name": "allowance",
					"outputs": [
						{
							"internalType": "uint256",
							"name": "",
							"type": "uint256"
						}
					],
					"stateMutability": "view",
					"type": "function"
				},
				{
					"inputs": [
						{
							"internalType": "address",
							"name": "spender",
							"type": "address"
						},
						{
							"internalType": "uint256",
							"name": "value",
							"type": "uint256"
						}
					],
					"name": "approve",
					"outputs": [
						{
							"internalType": "bool",
							"name": "",
							"type": "bool"
						}
					],
					"stateMutability": "nonpayable",
					"type": "function"
				},
				{
					"inputs": [],
					"name": "autoLiquidityReceiver",
					"outputs": [
						{
							"internalType": "address",
							"name": "",
							"type": "address"
						}
					],
					"stateMutability": "view",
					"type": "function"
				},
				{
					"inputs": [
						{
							"internalType": "address",
							"name": "who",
							"type": "address"
						}
					],
					"name": "balanceOf",
					"outputs": [
						{
							"internalType": "uint256",
							"name": "",
							"type": "uint256"
						}
					],
					"stateMutability": "view",
					"type": "function"
				},
				{
					"inputs": [
						{
							"internalType": "address",
							"name": "",
							"type": "address"
						}
					],
					"name": "blacklist",
					"outputs": [
						{
							"internalType": "bool",
							"name": "",
							"type": "bool"
						}
					],
					"stateMutability": "view",
					"type": "function"
				},
				{
					"inputs": [
						{
							"internalType": "address",
							"name": "_addr",
							"type": "address"
						}
					],
					"name": "checkFeeExempt",
					"outputs": [
						{
							"internalType": "bool",
							"name": "",
							"type": "bool"
						}
					],
					"stateMutability": "view",
					"type": "function"
				},
				{
					"inputs": [],
					"name": "decimals",
					"outputs": [
						{
							"internalType": "uint8",
							"name": "",
							"type": "uint8"
						}
					],
					"stateMutability": "view",
					"type": "function"
				},
				{
					"inputs": [
						{
							"internalType": "address",
							"name": "spender",
							"type": "address"
						},
						{
							"internalType": "uint256",
							"name": "subtractedValue",
							"type": "uint256"
						}
					],
					"name": "decreaseAllowance",
					"outputs": [
						{
							"internalType": "bool",
							"name": "",
							"type": "bool"
						}
					],
					"stateMutability": "nonpayable",
					"type": "function"
				},
				{
					"inputs": [],
					"name": "feeDenominator",
					"outputs": [
						{
							"internalType": "uint256",
							"name": "",
							"type": "uint256"
						}
					],
					"stateMutability": "view",
					"type": "function"
				},
				{
					"inputs": [],
					"name": "firePit",
					"outputs": [
						{
							"internalType": "address",
							"name": "",
							"type": "address"
						}
					],
					"stateMutability": "view",
					"type": "function"
				},
				{
					"inputs": [],
					"name": "firePitFee",
					"outputs": [
						{
							"internalType": "uint256",
							"name": "",
							"type": "uint256"
						}
					],
					"stateMutability": "view",
					"type": "function"
				},
				{
					"inputs": [],
					"name": "getCirculatingSupply",
					"outputs": [
						{
							"internalType": "uint256",
							"name": "",
							"type": "uint256"
						}
					],
					"stateMutability": "view",
					"type": "function"
				},
				{
					"inputs": [
						{
							"internalType": "uint256",
							"name": "accuracy",
							"type": "uint256"
						}
					],
					"name": "getLiquidityBacking",
					"outputs": [
						{
							"internalType": "uint256",
							"name": "",
							"type": "uint256"
						}
					],
					"stateMutability": "view",
					"type": "function"
				},
				{
					"inputs": [
						{
							"internalType": "address",
							"name": "spender",
							"type": "address"
						},
						{
							"internalType": "uint256",
							"name": "addedValue",
							"type": "uint256"
						}
					],
					"name": "increaseAllowance",
					"outputs": [
						{
							"internalType": "bool",
							"name": "",
							"type": "bool"
						}
					],
					"stateMutability": "nonpayable",
					"type": "function"
				},
				{
					"inputs": [],
					"name": "isNotInSwap",
					"outputs": [
						{
							"internalType": "bool",
							"name": "",
							"type": "bool"
						}
					],
					"stateMutability": "view",
					"type": "function"
				},
				{
					"inputs": [],
					"name": "isOwner",
					"outputs": [
						{
							"internalType": "bool",
							"name": "",
							"type": "bool"
						}
					],
					"stateMutability": "view",
					"type": "function"
				},
				{
					"inputs": [],
					"name": "liquidityFee",
					"outputs": [
						{
							"internalType": "uint256",
							"name": "",
							"type": "uint256"
						}
					],
					"stateMutability": "view",
					"type": "function"
				},
				{
					"inputs": [],
					"name": "manualSync",
					"outputs": [],
					"stateMutability": "nonpayable",
					"type": "function"
				},
				{
					"inputs": [],
					"name": "name",
					"outputs": [
						{
							"internalType": "string",
							"name": "",
							"type": "string"
						}
					],
					"stateMutability": "view",
					"type": "function"
				},
				{
					"inputs": [],
					"name": "owner",
					"outputs": [
						{
							"internalType": "address",
							"name": "",
							"type": "address"
						}
					],
					"stateMutability": "view",
					"type": "function"
				},
				{
					"inputs": [],
					"name": "pair",
					"outputs": [
						{
							"internalType": "address",
							"name": "",
							"type": "address"
						}
					],
					"stateMutability": "view",
					"type": "function"
				},
				{
					"inputs": [],
					"name": "pairAddress",
					"outputs": [
						{
							"internalType": "address",
							"name": "",
							"type": "address"
						}
					],
					"stateMutability": "view",
					"type": "function"
				},
				{
					"inputs": [],
					"name": "pairContract",
					"outputs": [
						{
							"internalType": "contract IPancakeSwapPair",
							"name": "",
							"type": "address"
						}
					],
					"stateMutability": "view",
					"type": "function"
				},
				{
					"inputs": [],
					"name": "renounceOwnership",
					"outputs": [],
					"stateMutability": "nonpayable",
					"type": "function"
				},
				{
					"inputs": [],
					"name": "router",
					"outputs": [
						{
							"internalType": "contract IPancakeSwapRouter",
							"name": "",
							"type": "address"
						}
					],
					"stateMutability": "view",
					"type": "function"
				},
				{
					"inputs": [],
					"name": "safuuInsuranceFundFee",
					"outputs": [
						{
							"internalType": "uint256",
							"name": "",
							"type": "uint256"
						}
					],
					"stateMutability": "view",
					"type": "function"
				},
				{
					"inputs": [],
					"name": "safuuInsuranceFundReceiver",
					"outputs": [
						{
							"internalType": "address",
							"name": "",
							"type": "address"
						}
					],
					"stateMutability": "view",
					"type": "function"
				},
				{
					"inputs": [],
					"name": "sellFee",
					"outputs": [
						{
							"internalType": "uint256",
							"name": "",
							"type": "uint256"
						}
					],
					"stateMutability": "view",
					"type": "function"
				},
				{
					"inputs": [
						{
							"internalType": "bool",
							"name": "_flag",
							"type": "bool"
						}
					],
					"name": "setAutoAddLiquidity",
					"outputs": [],
					"stateMutability": "nonpayable",
					"type": "function"
				},
				{
					"inputs": [
						{
							"internalType": "bool",
							"name": "_flag",
							"type": "bool"
						}
					],
					"name": "setAutoRebase",
					"outputs": [],
					"stateMutability": "nonpayable",
					"type": "function"
				},
				{
					"inputs": [
						{
							"internalType": "address",
							"name": "_botAddress",
							"type": "address"
						},
						{
							"internalType": "bool",
							"name": "_flag",
							"type": "bool"
						}
					],
					"name": "setBotBlacklist",
					"outputs": [],
					"stateMutability": "nonpayable",
					"type": "function"
				},
				{
					"inputs": [
						{
							"internalType": "address",
							"name": "_autoLiquidityReceiver",
							"type": "address"
						},
						{
							"internalType": "address",
							"name": "_treasuryReceiver",
							"type": "address"
						},
						{
							"internalType": "address",
							"name": "_safuuInsuranceFundReceiver",
							"type": "address"
						},
						{
							"internalType": "address",
							"name": "_firePit",
							"type": "address"
						}
					],
					"name": "setFeeReceivers",
					"outputs": [],
					"stateMutability": "nonpayable",
					"type": "function"
				},
				{
					"inputs": [
						{
							"internalType": "address",
							"name": "_address",
							"type": "address"
						}
					],
					"name": "setLP",
					"outputs": [],
					"stateMutability": "nonpayable",
					"type": "function"
				},
				{
					"inputs": [
						{
							"internalType": "address",
							"name": "_pairAddress",
							"type": "address"
						}
					],
					"name": "setPairAddress",
					"outputs": [],
					"stateMutability": "nonpayable",
					"type": "function"
				},
				{
					"inputs": [
						{
							"internalType": "address",
							"name": "_addr",
							"type": "address"
						}
					],
					"name": "setWhitelist",
					"outputs": [],
					"stateMutability": "nonpayable",
					"type": "function"
				},
				{
					"inputs": [],
					"name": "swapEnabled",
					"outputs": [
						{
							"internalType": "bool",
							"name": "",
							"type": "bool"
						}
					],
					"stateMutability": "view",
					"type": "function"
				},
				{
					"inputs": [],
					"name": "symbol",
					"outputs": [
						{
							"internalType": "string",
							"name": "",
							"type": "string"
						}
					],
					"stateMutability": "view",
					"type": "function"
				},
				{
					"inputs": [],
					"name": "totalFee",
					"outputs": [
						{
							"internalType": "uint256",
							"name": "",
							"type": "uint256"
						}
					],
					"stateMutability": "view",
					"type": "function"
				},
				{
					"inputs": [],
					"name": "totalSupply",
					"outputs": [
						{
							"internalType": "uint256",
							"name": "",
							"type": "uint256"
						}
					],
					"stateMutability": "view",
					"type": "function"
				},
				{
					"inputs": [
						{
							"internalType": "address",
							"name": "to",
							"type": "address"
						},
						{
							"internalType": "uint256",
							"name": "value",
							"type": "uint256"
						}
					],
					"name": "transfer",
					"outputs": [
						{
							"internalType": "bool",
							"name": "",
							"type": "bool"
						}
					],
					"stateMutability": "nonpayable",
					"type": "function"
				},
				{
					"inputs": [
						{
							"internalType": "address",
							"name": "from",
							"type": "address"
						},
						{
							"internalType": "address",
							"name": "to",
							"type": "address"
						},
						{
							"internalType": "uint256",
							"name": "value",
							"type": "uint256"
						}
					],
					"name": "transferFrom",
					"outputs": [
						{
							"internalType": "bool",
							"name": "",
							"type": "bool"
						}
					],
					"stateMutability": "nonpayable",
					"type": "function"
				},
				{
					"inputs": [
						{
							"internalType": "address",
							"name": "newOwner",
							"type": "address"
						}
					],
					"name": "transferOwnership",
					"outputs": [],
					"stateMutability": "nonpayable",
					"type": "function"
				},
				{
					"inputs": [],
					"name": "treasuryFee",
					"outputs": [
						{
							"internalType": "uint256",
							"name": "",
							"type": "uint256"
						}
					],
					"stateMutability": "view",
					"type": "function"
				},
				{
					"inputs": [],
					"name": "treasuryReceiver",
					"outputs": [
						{
							"internalType": "address",
							"name": "",
							"type": "address"
						}
					],
					"stateMutability": "view",
					"type": "function"
				},
				{
					"inputs": [],
					"name": "withdrawAllToTreasury",
					"outputs": [],
					"stateMutability": "nonpayable",
					"type": "function"
				},
				{
					"stateMutability": "payable",
					"type": "receive"
				}
			],
			"devdoc": {
				"kind": "dev",
				"methods": {},
				"version": 1
			},
			"evm": {
				"assembly": "    /* \"saf.sol\":12319:28600  contract Safuu is ERC20Detailed, Ownable {\r... */\n  mstore(0x40, 0x80)\n    /* \"saf.sol\":12507:12536  string public _name = \"Safuu\" */\n  mload(0x40)\n  dup1\n  0x40\n  add\n  0x40\n  mstore\n  dup1\n  0x05\n  dup2\n  mstore\n  0x20\n  add\n  0x5361667575000000000000000000000000000000000000000000000000000000\n  dup2\n  mstore\n  pop\n  0x03\n  swap1\n  dup1\n  mload\n  swap1\n  0x20\n  add\n  swap1\n  tag_1\n  swap3\n  swap2\n  swap1\n  tag_2\n  jump\t// in\ntag_1:\n  pop\n    /* \"saf.sol\":12543:12574  string public _symbol = \"SAFUU\" */\n  mload(0x40)\n  dup1\n  0x40\n  add\n  0x40\n  mstore\n  dup1\n  0x05\n  dup2\n  mstore\n  0x20\n  add\n  0x5341465555000000000000000000000000000000000000000000000000000000\n  dup2\n  mstore\n  pop\n  0x04\n  swap1\n  dup1\n  mload\n  swap1\n  0x20\n  add\n  swap1\n  tag_3\n  swap3\n  swap2\n  swap1\n  tag_2\n  jump\t// in\ntag_3:\n  pop\n    /* \"saf.sol\":12606:12607  5 */\n  0x05\n    /* \"saf.sol\":12581:12607  uint8 public _decimals = 5 */\n  dup1\n  exp(0x0100, 0x00)\n  dup2\n  sload\n  dup2\n  0xff\n  mul\n  not\n  and\n  swap1\n  dup4\n  0xff\n  and\n  mul\n  or\n  swap1\n  sstore\n  pop\n    /* \"saf.sol\":13080:13082  40 */\n  0x28\n    /* \"saf.sol\":13050:13082  uint256 public liquidityFee = 40 */\n  0x07\n  sstore\n    /* \"saf.sol\":13118:13120  25 */\n  0x19\n    /* \"saf.sol\":13089:13120  uint256 public treasuryFee = 25 */\n  0x08\n  sstore\n    /* \"saf.sol\":13166:13168  50 */\n  0x32\n    /* \"saf.sol\":13127:13168  uint256 public safuuInsuranceFundFee = 50 */\n  0x09\n  sstore\n    /* \"saf.sol\":13200:13202  20 */\n  0x14\n    /* \"saf.sol\":13175:13202  uint256 public sellFee = 20 */\n  0x0a\n  sstore\n    /* \"saf.sol\":13237:13239  25 */\n  0x19\n    /* \"saf.sol\":13209:13239  uint256 public firePitFee = 25 */\n  0x0b\n  sstore\n    /* \"saf.sol\":13281:13377  liquidityFee.add(treasuryFee).add(safuuInsuranceFundFee).add(\r... */\n  tag_4\n    /* \"saf.sol\":13356:13366  firePitFee */\n  sload(0x0b)\n    /* \"saf.sol\":13281:13337  liquidityFee.add(treasuryFee).add(safuuInsuranceFundFee) */\n  tag_5\n    /* \"saf.sol\":13315:13336  safuuInsuranceFundFee */\n  sload(0x09)\n    /* \"saf.sol\":13281:13310  liquidityFee.add(treasuryFee) */\n  tag_6\n    /* \"saf.sol\":13298:13309  treasuryFee */\n  sload(0x08)\n    /* \"saf.sol\":13281:13293  liquidityFee */\n  sload(0x07)\n    /* \"saf.sol\":13281:13297  liquidityFee.add */\n  or(tag_0_282, shl(0x20, tag_7))\n  swap1\n    /* \"saf.sol\":13281:13310  liquidityFee.add(treasuryFee) */\n  swap2\n  swap1\n  0x20\n  shr\n  jump\t// in\ntag_6:\n    /* \"saf.sol\":13281:13314  liquidityFee.add(treasuryFee).add */\n  or(tag_0_282, shl(0x20, tag_7))\n  swap1\n    /* \"saf.sol\":13281:13337  liquidityFee.add(treasuryFee).add(safuuInsuranceFundFee) */\n  swap2\n  swap1\n  0x20\n  shr\n  jump\t// in\ntag_5:\n    /* \"saf.sol\":13281:13341  liquidityFee.add(treasuryFee).add(safuuInsuranceFundFee).add */\n  or(tag_0_282, shl(0x20, tag_7))\n  swap1\n    /* \"saf.sol\":13281:13377  liquidityFee.add(treasuryFee).add(safuuInsuranceFundFee).add(\r... */\n  swap2\n  swap1\n  0x20\n  shr\n  jump\t// in\ntag_4:\n    /* \"saf.sol\":13246:13377  uint256 public totalFee =\r... */\n  0x0c\n  sstore\n    /* \"saf.sol\":13416:13420  1000 */\n  0x03e8\n    /* \"saf.sol\":13384:13420  uint256 public feeDenominator = 1000 */\n  0x0d\n  sstore\n    /* \"saf.sol\":13444:13486  0x000000000000000000000000000000000000dEaD */\n  0xdead\n    /* \"saf.sol\":13429:13486  address DEAD = 0x000000000000000000000000000000000000dEaD */\n  0x0e\n  exp(0x0100, 0x00)\n  dup2\n  sload\n  dup2\n  0xffffffffffffffffffffffffffffffffffffffff\n  mul\n  not\n  and\n  swap1\n  dup4\n  0xffffffffffffffffffffffffffffffffffffffff\n  and\n  mul\n  or\n  swap1\n  sstore\n  pop\n    /* \"saf.sol\":13508:13550  0x0000000000000000000000000000000000000000 */\n  0x00\n    /* \"saf.sol\":13493:13550  address ZERO = 0x0000000000000000000000000000000000000000 */\n  0x0f\n  exp(0x0100, 0x00)\n  dup2\n  sload\n  dup2\n  0xffffffffffffffffffffffffffffffffffffffff\n  mul\n  not\n  and\n  swap1\n  dup4\n  0xffffffffffffffffffffffffffffffffffffffff\n  and\n  mul\n  or\n  swap1\n  sstore\n  pop\n    /* \"saf.sol\":13776:13780  true */\n  0x01\n    /* \"saf.sol\":13750:13780  bool public swapEnabled = true */\n  0x14\n  dup1\n  0x0100\n  exp\n  dup2\n  sload\n  dup2\n  0xff\n  mul\n  not\n  and\n  swap1\n  dup4\n  iszero\n  iszero\n  mul\n  or\n  swap1\n  sstore\n  pop\n    /* \"saf.sol\":13866:13871  false */\n  0x00\n    /* \"saf.sol\":13852:13871  bool inSwap = false */\n  0x16\n  exp(0x0100, 0x14)\n  dup2\n  sload\n  dup2\n  0xff\n  mul\n  not\n  and\n  swap1\n  dup4\n  iszero\n  iszero\n  mul\n  or\n  swap1\n  sstore\n  pop\n    /* \"saf.sol\":14607:15896  constructor() ERC20Detailed(\"Safuu\", \"SAFUU\", uint8(DECIMALS)) Ownable() {\r... */\n  callvalue\n  dup1\n  iszero\n  tag_8\n  jumpi\n  0x00\n  dup1\n  revert\ntag_8:\n  pop\n    /* \"saf.sol\":11836:12035  constructor(\r... */\n  mload(0x40)\n  dup1\n  0x40\n  add\n  0x40\n  mstore\n  dup1\n  0x05\n  dup2\n  mstore\n  0x20\n  add\n  0x5361667575000000000000000000000000000000000000000000000000000000\n  dup2\n  mstore\n  pop\n  mload(0x40)\n  dup1\n  0x40\n  add\n  0x40\n  mstore\n  dup1\n  0x05\n  dup2\n  mstore\n  0x20\n  add\n  0x5341465555000000000000000000000000000000000000000000000000000000\n  dup2\n  mstore\n  pop\n    /* \"saf.sol\":12842:12843  5 */\n  0x05\n    /* \"saf.sol\":11962:11967  name_ */\n  dup3\n    /* \"saf.sol\":11954:11959  _name */\n  0x00\n    /* \"saf.sol\":11954:11967  _name = name_ */\n  swap1\n  dup1\n  mload\n  swap1\n  0x20\n  add\n  swap1\n  tag_13\n  swap3\n  swap2\n  swap1\n  tag_2\n  jump\t// in\ntag_13:\n  pop\n    /* \"saf.sol\":11988:11995  symbol_ */\n  dup2\n    /* \"saf.sol\":11978:11985  _symbol */\n  0x01\n    /* \"saf.sol\":11978:11995  _symbol = symbol_ */\n  swap1\n  dup1\n  mload\n  swap1\n  0x20\n  add\n  swap1\n  tag_14\n  swap3\n  swap2\n  swap1\n  tag_2\n  jump\t// in\ntag_14:\n  pop\n    /* \"saf.sol\":12018:12027  decimals_ */\n  dup1\n    /* \"saf.sol\":12006:12015  _decimals */\n  0x02\n  0x00\n    /* \"saf.sol\":12006:12027  _decimals = decimals_ */\n  0x0100\n  exp\n  dup2\n  sload\n  dup2\n  0xff\n  mul\n  not\n  and\n  swap1\n  dup4\n  0xff\n  and\n  mul\n  or\n  swap1\n  sstore\n  pop\n    /* \"saf.sol\":11836:12035  constructor(\r... */\n  pop\n  pop\n  pop\n    /* \"saf.sol\":10963:10973  msg.sender */\n  caller\n    /* \"saf.sol\":10954:10960  _owner */\n  0x02\n  0x01\n    /* \"saf.sol\":10954:10973  _owner = msg.sender */\n  0x0100\n  exp\n  dup2\n  sload\n  dup2\n  0xffffffffffffffffffffffffffffffffffffffff\n  mul\n  not\n  and\n  swap1\n  dup4\n  0xffffffffffffffffffffffffffffffffffffffff\n  and\n  mul\n  or\n  swap1\n  sstore\n  pop\n    /* \"saf.sol\":14721:14763  0x10ED43C718714eb63d5aA57B78B54704E256024E */\n  0x10ed43c718714eb63d5aa57b78b54704e256024e\n    /* \"saf.sol\":14693:14699  router */\n  0x15\n  0x00\n    /* \"saf.sol\":14693:14764  router = IPancakeSwapRouter(0x10ED43C718714eb63d5aA57B78B54704E256024E) */\n  0x0100\n  exp\n  dup2\n  sload\n  dup2\n  0xffffffffffffffffffffffffffffffffffffffff\n  mul\n  not\n  and\n  swap1\n  dup4\n  0xffffffffffffffffffffffffffffffffffffffff\n  and\n  mul\n  or\n  swap1\n  sstore\n  pop\n    /* \"saf.sol\":14803:14809  router */\n  0x15\n  0x00\n  swap1\n  sload\n  swap1\n  0x0100\n  exp\n  swap1\n  div\n  0xffffffffffffffffffffffffffffffffffffffff\n  and\n    /* \"saf.sol\":14803:14817  router.factory */\n  0xffffffffffffffffffffffffffffffffffffffff\n  and\n  0xc45a0155\n    /* \"saf.sol\":14803:14819  router.factory() */\n  mload(0x40)\n  dup2\n  0xffffffff\n  and\n  0xe0\n  shl\n  dup2\n  mstore\n  0x04\n  add\n  0x20\n  mload(0x40)\n  dup1\n  dup4\n  sub\n  dup2\n  dup7\n  dup1\n  extcodesize\n  iszero\n  dup1\n  iszero\n  tag_17\n  jumpi\n  0x00\n  dup1\n  revert\ntag_17:\n  pop\n  gas\n  staticcall\n  iszero\n  dup1\n  iszero\n  tag_19\n  jumpi\n  returndatasize\n  0x00\n  dup1\n  returndatacopy\n  revert(0x00, returndatasize)\ntag_19:\n  pop\n  pop\n  pop\n  pop\n  mload(0x40)\n  returndatasize\n  0x20\n  dup2\n  lt\n  iszero\n  tag_20\n  jumpi\n  0x00\n  dup1\n  revert\ntag_20:\n  dup2\n  add\n  swap1\n  dup1\n  dup1\n  mload\n  swap1\n  0x20\n  add\n  swap1\n  swap3\n  swap2\n  swap1\n  pop\n  pop\n  pop\n    /* \"saf.sol\":14783:14831  IPancakeSwapFactory(router.factory()).createPair */\n  0xffffffffffffffffffffffffffffffffffffffff\n  and\n  0xc9c65396\n    /* \"saf.sol\":14846:14852  router */\n  0x15\n  0x00\n  swap1\n  sload\n  swap1\n  0x0100\n  exp\n  swap1\n  div\n  0xffffffffffffffffffffffffffffffffffffffff\n  and\n    /* \"saf.sol\":14846:14857  router.WETH */\n  0xffffffffffffffffffffffffffffffffffffffff\n  and\n  0xad5c4648\n    /* \"saf.sol\":14846:14859  router.WETH() */\n  mload(0x40)\n  dup2\n  0xffffffff\n  and\n  0xe0\n  shl\n  dup2\n  mstore\n  0x04\n  add\n  0x20\n  mload(0x40)\n  dup1\n  dup4\n  sub\n  dup2\n  dup7\n  dup1\n  extcodesize\n  iszero\n  dup1\n  iszero\n  tag_21\n  jumpi\n  0x00\n  dup1\n  revert\ntag_21:\n  pop\n  gas\n  staticcall\n  iszero\n  dup1\n  iszero\n  tag_23\n  jumpi\n  returndatasize\n  0x00\n  dup1\n  returndatacopy\n  revert(0x00, returndatasize)\ntag_23:\n  pop\n  pop\n  pop\n  pop\n  mload(0x40)\n  returndatasize\n  0x20\n  dup2\n  lt\n  iszero\n  tag_24\n  jumpi\n  0x00\n  dup1\n  revert\ntag_24:\n  dup2\n  add\n  swap1\n  dup1\n  dup1\n  mload\n  swap1\n  0x20\n  add\n  swap1\n  swap3\n  swap2\n  swap1\n  pop\n  pop\n  pop\n    /* \"saf.sol\":14882:14886  this */\n  address\n    /* \"saf.sol\":14783:14898  IPancakeSwapFactory(router.factory()).createPair(\r... */\n  mload(0x40)\n  dup4\n  0xffffffff\n  and\n  0xe0\n  shl\n  dup2\n  mstore\n  0x04\n  add\n  dup1\n  dup4\n  0xffffffffffffffffffffffffffffffffffffffff\n  and\n  dup2\n  mstore\n  0x20\n  add\n  dup3\n  0xffffffffffffffffffffffffffffffffffffffff\n  and\n  dup2\n  mstore\n  0x20\n  add\n  swap3\n  pop\n  pop\n  pop\n  0x20\n  mload(0x40)\n  dup1\n  dup4\n  sub\n  dup2\n  0x00\n  dup8\n  dup1\n  extcodesize\n  iszero\n  dup1\n  iszero\n  tag_25\n  jumpi\n  0x00\n  dup1\n  revert\ntag_25:\n  pop\n  gas\n  call\n  iszero\n  dup1\n  iszero\n  tag_27\n  jumpi\n  returndatasize\n  0x00\n  dup1\n  returndatacopy\n  revert(0x00, returndatasize)\ntag_27:\n  pop\n  pop\n  pop\n  pop\n  mload(0x40)\n  returndatasize\n  0x20\n  dup2\n  lt\n  iszero\n  tag_28\n  jumpi\n  0x00\n  dup1\n  revert\ntag_28:\n  dup2\n  add\n  swap1\n  dup1\n  dup1\n  mload\n  swap1\n  0x20\n  add\n  swap1\n  swap3\n  swap2\n  swap1\n  pop\n  pop\n  pop\n    /* \"saf.sol\":14776:14780  pair */\n  0x16\n  0x00\n    /* \"saf.sol\":14776:14898  pair = IPancakeSwapFactory(router.factory()).createPair(\r... */\n  0x0100\n  exp\n  dup2\n  sload\n  dup2\n  0xffffffffffffffffffffffffffffffffffffffff\n  mul\n  not\n  and\n  swap1\n  dup4\n  0xffffffffffffffffffffffffffffffffffffffff\n  and\n  mul\n  or\n  swap1\n  sstore\n  pop\n    /* \"saf.sol\":14941:14983  0x5562640B953b6c2f79a655E930aFa68b2a65C627 */\n  0x5562640b953b6c2f79a655e930afa68b2a65c627\n    /* \"saf.sol\":14917:14938  autoLiquidityReceiver */\n  0x10\n  0x00\n    /* \"saf.sol\":14917:14983  autoLiquidityReceiver = 0x5562640B953b6c2f79a655E930aFa68b2a65C627 */\n  0x0100\n  exp\n  dup2\n  sload\n  dup2\n  0xffffffffffffffffffffffffffffffffffffffff\n  mul\n  not\n  and\n  swap1\n  dup4\n  0xffffffffffffffffffffffffffffffffffffffff\n  and\n  mul\n  or\n  swap1\n  sstore\n  pop\n    /* \"saf.sol\":15013:15055  0x78731D3Ca6b7E34aC0F824c42a7cC18A495cabaB */\n  0x78731d3ca6b7e34ac0f824c42a7cc18a495cabab\n    /* \"saf.sol\":14994:15010  treasuryReceiver */\n  0x11\n  0x00\n    /* \"saf.sol\":14994:15055  treasuryReceiver = 0x78731D3Ca6b7E34aC0F824c42a7cC18A495cabaB */\n  0x0100\n  exp\n  dup2\n  sload\n  dup2\n  0xffffffffffffffffffffffffffffffffffffffff\n  mul\n  not\n  and\n  swap1\n  dup4\n  0xffffffffffffffffffffffffffffffffffffffff\n  and\n  mul\n  or\n  swap1\n  sstore\n  pop\n    /* \"saf.sol\":15096:15138  0x082D0FbCA3D80b2d4A05E20bFc227523bE8EFEF3 */\n  0x082d0fbca3d80b2d4a05e20bfc227523be8efef3\n    /* \"saf.sol\":15067:15093  safuuInsuranceFundReceiver */\n  0x12\n  0x00\n    /* \"saf.sol\":15067:15138  safuuInsuranceFundReceiver = 0x082D0FbCA3D80b2d4A05E20bFc227523bE8EFEF3 */\n  0x0100\n  exp\n  dup2\n  sload\n  dup2\n  0xffffffffffffffffffffffffffffffffffffffff\n  mul\n  not\n  and\n  swap1\n  dup4\n  0xffffffffffffffffffffffffffffffffffffffff\n  and\n  mul\n  or\n  swap1\n  sstore\n  pop\n    /* \"saf.sol\":15159:15201  0xaA32C984AfDfa6B95e88B8aB7faBfa65De89b98C */\n  0xaa32c984afdfa6b95e88b8ab7fabfa65de89b98c\n    /* \"saf.sol\":15149:15156  firePit */\n  0x13\n  0x00\n    /* \"saf.sol\":15149:15201  firePit = 0xaA32C984AfDfa6B95e88B8aB7faBfa65De89b98C */\n  0x0100\n  exp\n  dup2\n  sload\n  dup2\n  0xffffffffffffffffffffffffffffffffffffffff\n  mul\n  not\n  and\n  swap1\n  dup4\n  0xffffffffffffffffffffffffffffffffffffffff\n  and\n  mul\n  or\n  swap1\n  sstore\n  pop\n    /* \"saf.sol\":15274:15276  -1 */\n  0xffffffffffffffffffffffffffffffffffffffffffffffffffffffffffffffff\n    /* \"saf.sol\":15214:15231  _allowedFragments */\n  0x1d\n    /* \"saf.sol\":15214:15246  _allowedFragments[address(this)] */\n  0x00\n    /* \"saf.sol\":15240:15244  this */\n  address\n    /* \"saf.sol\":15214:15246  _allowedFragments[address(this)] */\n  0xffffffffffffffffffffffffffffffffffffffff\n  and\n  0xffffffffffffffffffffffffffffffffffffffff\n  and\n  dup2\n  mstore\n  0x20\n  add\n  swap1\n  dup2\n  mstore\n  0x20\n  add\n  0x00\n  keccak256\n    /* \"saf.sol\":15214:15263  _allowedFragments[address(this)][address(router)] */\n  0x00\n    /* \"saf.sol\":15255:15261  router */\n  0x15\n  0x00\n  swap1\n  sload\n  swap1\n  0x0100\n  exp\n  swap1\n  div\n  0xffffffffffffffffffffffffffffffffffffffff\n  and\n    /* \"saf.sol\":15214:15263  _allowedFragments[address(this)][address(router)] */\n  0xffffffffffffffffffffffffffffffffffffffff\n  and\n  0xffffffffffffffffffffffffffffffffffffffff\n  and\n  dup2\n  mstore\n  0x20\n  add\n  swap1\n  dup2\n  mstore\n  0x20\n  add\n  0x00\n  keccak256\n    /* \"saf.sol\":15214:15277  _allowedFragments[address(this)][address(router)] = uint256(-1) */\n  dup2\n  swap1\n  sstore\n  pop\n    /* \"saf.sol\":15302:15306  pair */\n  0x16\n  0x00\n  swap1\n  sload\n  swap1\n  0x0100\n  exp\n  swap1\n  div\n  0xffffffffffffffffffffffffffffffffffffffff\n  and\n    /* \"saf.sol\":15288:15299  pairAddress */\n  0x14\n  0x00\n    /* \"saf.sol\":15288:15306  pairAddress = pair */\n  0x0100\n  exp\n  dup2\n  sload\n  dup2\n  0xffffffffffffffffffffffffffffffffffffffff\n  mul\n  not\n  and\n  swap1\n  dup4\n  0xffffffffffffffffffffffffffffffffffffffff\n  and\n  mul\n  or\n  swap1\n  sstore\n  pop\n    /* \"saf.sol\":15349:15353  pair */\n  0x16\n  0x00\n  swap1\n  sload\n  swap1\n  0x0100\n  exp\n  swap1\n  div\n  0xffffffffffffffffffffffffffffffffffffffff\n  and\n    /* \"saf.sol\":15317:15329  pairContract */\n  0x05\n  0x01\n    /* \"saf.sol\":15317:15354  pairContract = IPancakeSwapPair(pair) */\n  0x0100\n  exp\n  dup2\n  sload\n  dup2\n  0xffffffffffffffffffffffffffffffffffffffff\n  mul\n  not\n  and\n  swap1\n  dup4\n  0xffffffffffffffffffffffffffffffffffffffff\n  and\n  mul\n  or\n  swap1\n  sstore\n  pop\n    /* \"saf.sol\":12842:12843  5 */\n  0x05\n    /* \"saf.sol\":13029:13031  10 */\n  0x0a\n    /* \"saf.sol\":13029:13041  10**DECIMALS */\n  exp\n    /* \"saf.sol\":13015:13026  325 * 10**3 */\n  0x04f588\n    /* \"saf.sol\":13015:13041  325 * 10**3 * 10**DECIMALS */\n  mul\n    /* \"saf.sol\":15367:15379  _totalSupply */\n  0x1a\n    /* \"saf.sol\":15367:15406  _totalSupply = INITIAL_FRAGMENTS_SUPPLY */\n  dup2\n  swap1\n  sstore\n  pop\n    /* \"saf.sol\":12842:12843  5 */\n  0x05\n    /* \"saf.sol\":13029:13031  10 */\n  0x0a\n    /* \"saf.sol\":13029:13041  10**DECIMALS */\n  exp\n    /* \"saf.sol\":13015:13026  325 * 10**3 */\n  0x04f588\n    /* \"saf.sol\":13015:13041  325 * 10**3 * 10**DECIMALS */\n  mul\n    /* \"saf.sol\":12897:12898  0 */\n  0x00\n    /* \"saf.sol\":12888:12899  ~uint256(0) */\n  not\n    /* \"saf.sol\":14037:14075  MAX_UINT256 % INITIAL_FRAGMENTS_SUPPLY */\n  dup2\n  tag_29\n  jumpi\n  invalid\ntag_29:\n  mod\n    /* \"saf.sol\":12897:12898  0 */\n  0x00\n    /* \"saf.sol\":12888:12899  ~uint256(0) */\n  not\n    /* \"saf.sol\":14022:14076  MAX_UINT256 - (MAX_UINT256 % INITIAL_FRAGMENTS_SUPPLY) */\n  sub\n    /* \"saf.sol\":15417:15429  _gonBalances */\n  0x1c\n    /* \"saf.sol\":15417:15447  _gonBalances[treasuryReceiver] */\n  0x00\n    /* \"saf.sol\":15430:15446  treasuryReceiver */\n  0x11\n  0x00\n  swap1\n  sload\n  swap1\n  0x0100\n  exp\n  swap1\n  div\n  0xffffffffffffffffffffffffffffffffffffffff\n  and\n    /* \"saf.sol\":15417:15447  _gonBalances[treasuryReceiver] */\n  0xffffffffffffffffffffffffffffffffffffffff\n  and\n  0xffffffffffffffffffffffffffffffffffffffff\n  and\n  dup2\n  mstore\n  0x20\n  add\n  swap1\n  dup2\n  mstore\n  0x20\n  add\n  0x00\n  keccak256\n    /* \"saf.sol\":15417:15460  _gonBalances[treasuryReceiver] = TOTAL_GONS */\n  dup2\n  swap1\n  sstore\n  pop\n    /* \"saf.sol\":15490:15518  TOTAL_GONS.div(_totalSupply) */\n  tag_30\n    /* \"saf.sol\":15505:15517  _totalSupply */\n  sload(0x1a)\n    /* \"saf.sol\":12842:12843  5 */\n  0x05\n    /* \"saf.sol\":13029:13031  10 */\n  0x0a\n    /* \"saf.sol\":13029:13041  10**DECIMALS */\n  exp\n    /* \"saf.sol\":13015:13026  325 * 10**3 */\n  0x04f588\n    /* \"saf.sol\":13015:13041  325 * 10**3 * 10**DECIMALS */\n  mul\n    /* \"saf.sol\":12897:12898  0 */\n  0x00\n    /* \"saf.sol\":12888:12899  ~uint256(0) */\n  not\n    /* \"saf.sol\":14037:14075  MAX_UINT256 % INITIAL_FRAGMENTS_SUPPLY */\n  dup2\n  tag_31\n  jumpi\n  invalid\ntag_31:\n  mod\n    /* \"saf.sol\":12897:12898  0 */\n  0x00\n    /* \"saf.sol\":12888:12899  ~uint256(0) */\n  not\n    /* \"saf.sol\":14022:14076  MAX_UINT256 - (MAX_UINT256 % INITIAL_FRAGMENTS_SUPPLY) */\n  sub\n    /* \"saf.sol\":15490:15504  TOTAL_GONS.div */\n  or(tag_0_283, shl(0x20, tag_32))\n  swap1\n    /* \"saf.sol\":15490:15518  TOTAL_GONS.div(_totalSupply) */\n  swap2\n  swap1\n  0x20\n  shr\n  jump\t// in\ntag_30:\n    /* \"saf.sol\":15471:15487  _gonsPerFragment */\n  0x1b\n    /* \"saf.sol\":15471:15518  _gonsPerFragment = TOTAL_GONS.div(_totalSupply) */\n  dup2\n  swap1\n  sstore\n  pop\n    /* \"saf.sol\":15552:15567  block.timestamp */\n  timestamp\n    /* \"saf.sol\":15529:15549  _initRebaseStartTime */\n  0x17\n    /* \"saf.sol\":15529:15567  _initRebaseStartTime = block.timestamp */\n  dup2\n  swap1\n  sstore\n  pop\n    /* \"saf.sol\":15597:15612  block.timestamp */\n  timestamp\n    /* \"saf.sol\":15578:15594  _lastRebasedTime */\n  0x18\n    /* \"saf.sol\":15578:15612  _lastRebasedTime = block.timestamp */\n  dup2\n  swap1\n  sstore\n  pop\n    /* \"saf.sol\":15637:15641  true */\n  0x01\n    /* \"saf.sol\":15623:15634  _autoRebase */\n  0x16\n  0x15\n    /* \"saf.sol\":15623:15641  _autoRebase = true */\n  0x0100\n  exp\n  dup2\n  sload\n  dup2\n  0xff\n  mul\n  not\n  and\n  swap1\n  dup4\n  iszero\n  iszero\n  mul\n  or\n  swap1\n  sstore\n  pop\n    /* \"saf.sol\":15672:15676  true */\n  0x01\n    /* \"saf.sol\":15652:15669  _autoAddLiquidity */\n  0x16\n  dup1\n    /* \"saf.sol\":15652:15676  _autoAddLiquidity = true */\n  0x0100\n  exp\n  dup2\n  sload\n  dup2\n  0xff\n  mul\n  not\n  and\n  swap1\n  dup4\n  iszero\n  iszero\n  mul\n  or\n  swap1\n  sstore\n  pop\n    /* \"saf.sol\":15720:15724  true */\n  0x01\n    /* \"saf.sol\":15687:15699  _isFeeExempt */\n  0x06\n    /* \"saf.sol\":15687:15717  _isFeeExempt[treasuryReceiver] */\n  0x00\n    /* \"saf.sol\":15700:15716  treasuryReceiver */\n  0x11\n  0x00\n  swap1\n  sload\n  swap1\n  0x0100\n  exp\n  swap1\n  div\n  0xffffffffffffffffffffffffffffffffffffffff\n  and\n    /* \"saf.sol\":15687:15717  _isFeeExempt[treasuryReceiver] */\n  0xffffffffffffffffffffffffffffffffffffffff\n  and\n  0xffffffffffffffffffffffffffffffffffffffff\n  and\n  dup2\n  mstore\n  0x20\n  add\n  swap1\n  dup2\n  mstore\n  0x20\n  add\n  0x00\n  keccak256\n  0x00\n    /* \"saf.sol\":15687:15724  _isFeeExempt[treasuryReceiver] = true */\n  0x0100\n  exp\n  dup2\n  sload\n  dup2\n  0xff\n  mul\n  not\n  and\n  swap1\n  dup4\n  iszero\n  iszero\n  mul\n  or\n  swap1\n  sstore\n  pop\n    /* \"saf.sol\":15765:15769  true */\n  0x01\n    /* \"saf.sol\":15735:15747  _isFeeExempt */\n  0x06\n    /* \"saf.sol\":15735:15762  _isFeeExempt[address(this)] */\n  0x00\n    /* \"saf.sol\":15756:15760  this */\n  address\n    /* \"saf.sol\":15735:15762  _isFeeExempt[address(this)] */\n  0xffffffffffffffffffffffffffffffffffffffff\n  and\n  0xffffffffffffffffffffffffffffffffffffffff\n  and\n  dup2\n  mstore\n  0x20\n  add\n  swap1\n  dup2\n  mstore\n  0x20\n  add\n  0x00\n  keccak256\n  0x00\n    /* \"saf.sol\":15735:15769  _isFeeExempt[address(this)] = true */\n  0x0100\n  exp\n  dup2\n  sload\n  dup2\n  0xff\n  mul\n  not\n  and\n  swap1\n  dup4\n  iszero\n  iszero\n  mul\n  or\n  swap1\n  sstore\n  pop\n    /* \"saf.sol\":15782:15818  _transferOwnership(treasuryReceiver) */\n  tag_33\n    /* \"saf.sol\":15801:15817  treasuryReceiver */\n  0x11\n  0x00\n  swap1\n  sload\n  swap1\n  0x0100\n  exp\n  swap1\n  div\n  0xffffffffffffffffffffffffffffffffffffffff\n  and\n    /* \"saf.sol\":15782:15800  _transferOwnership */\n  shl(0x20, tag_34)\n    /* \"saf.sol\":15782:15818  _transferOwnership(treasuryReceiver) */\n  0x20\n  shr\n  jump\t// in\ntag_33:\n    /* \"saf.sol\":15857:15873  treasuryReceiver */\n  0x11\n  0x00\n  swap1\n  sload\n  swap1\n  0x0100\n  exp\n  swap1\n  div\n  0xffffffffffffffffffffffffffffffffffffffff\n  and\n    /* \"saf.sol\":15834:15888  Transfer(address(0x0), treasuryReceiver, _totalSupply) */\n  0xffffffffffffffffffffffffffffffffffffffff\n  and\n    /* \"saf.sol\":15851:15854  0x0 */\n  0x00\n    /* \"saf.sol\":15834:15888  Transfer(address(0x0), treasuryReceiver, _totalSupply) */\n  0xffffffffffffffffffffffffffffffffffffffff\n  and\n  0xddf252ad1be2c89b69c2b068fc378daa952ba7f163c4a11628f55a4df523b3ef\n    /* \"saf.sol\":15875:15887  _totalSupply */\n  sload(0x1a)\n    /* \"saf.sol\":15834:15888  Transfer(address(0x0), treasuryReceiver, _totalSupply) */\n  mload(0x40)\n  dup1\n  dup3\n  dup2\n  mstore\n  0x20\n  add\n  swap2\n  pop\n  pop\n  mload(0x40)\n  dup1\n  swap2\n  sub\n  swap1\n  log3\n    /* \"saf.sol\":12319:28600  contract Safuu is ERC20Detailed, Ownable {\r... */\n  jump(tag_35)\n    /* \"saf.sol\":1260:1441  function add(uint256 a, uint256 b) internal pure returns (uint256) {\r... */\ntag_7:\n    /* \"saf.sol\":1318:1325  uint256 */\n  0x00\n    /* \"saf.sol\":1338:1347  uint256 c */\n  dup1\n    /* \"saf.sol\":1354:1355  b */\n  dup3\n    /* \"saf.sol\":1350:1351  a */\n  dup5\n    /* \"saf.sol\":1350:1355  a + b */\n  add\n    /* \"saf.sol\":1338:1355  uint256 c = a + b */\n  swap1\n  pop\n    /* \"saf.sol\":1379:1380  a */\n  dup4\n    /* \"saf.sol\":1374:1375  c */\n  dup2\n    /* \"saf.sol\":1374:1380  c >= a */\n  lt\n  iszero\n    /* \"saf.sol\":1366:1412  require(c >= a, \"SafeMath: addition overflow\") */\n  tag_37\n  jumpi\n  mload(0x40)\n  0x08c379a000000000000000000000000000000000000000000000000000000000\n  dup2\n  mstore\n  0x04\n  add\n  dup1\n  dup1\n  0x20\n  add\n  dup3\n  dup2\n  sub\n  dup3\n  mstore\n  0x1b\n  dup2\n  mstore\n  0x20\n  add\n  dup1\n  0x536166654d6174683a206164646974696f6e206f766572666c6f770000000000\n  dup2\n  mstore\n  pop\n  0x20\n  add\n  swap2\n  pop\n  pop\n  mload(0x40)\n  dup1\n  swap2\n  sub\n  swap1\n  revert\ntag_37:\n    /* \"saf.sol\":1432:1433  c */\n  dup1\n    /* \"saf.sol\":1425:1433  return c */\n  swap2\n  pop\n  pop\n    /* \"saf.sol\":1260:1441  function add(uint256 a, uint256 b) internal pure returns (uint256) {\r... */\n  swap3\n  swap2\n  pop\n  pop\n  jump\t// out\n    /* \"saf.sol\":2085:2217  function div(uint256 a, uint256 b) internal pure returns (uint256) {\r... */\ntag_32:\n    /* \"saf.sol\":2143:2150  uint256 */\n  0x00\n    /* \"saf.sol\":2170:2209  div(a, b, \"SafeMath: division by zero\") */\n  tag_39\n    /* \"saf.sol\":2174:2175  a */\n  dup4\n    /* \"saf.sol\":2177:2178  b */\n  dup4\n    /* \"saf.sol\":2170:2209  div(a, b, \"SafeMath: division by zero\") */\n  mload(0x40)\n  dup1\n  0x40\n  add\n  0x40\n  mstore\n  dup1\n  0x1a\n  dup2\n  mstore\n  0x20\n  add\n  0x536166654d6174683a206469766973696f6e206279207a65726f000000000000\n  dup2\n  mstore\n  pop\n    /* \"saf.sol\":2170:2173  div */\n  shl(0x20, tag_40)\n    /* \"saf.sol\":2170:2209  div(a, b, \"SafeMath: division by zero\") */\n  0x20\n  shr\n  jump\t// in\ntag_39:\n    /* \"saf.sol\":2163:2209  return div(a, b, \"SafeMath: division by zero\") */\n  swap1\n  pop\n    /* \"saf.sol\":2085:2217  function div(uint256 a, uint256 b) internal pure returns (uint256) {\r... */\n  swap3\n  swap2\n  pop\n  pop\n  jump\t// out\n    /* \"saf.sol\":11505:11692  function _transferOwnership(address newOwner) internal {\r... */\ntag_34:\n    /* \"saf.sol\":11599:11600  0 */\n  0x00\n    /* \"saf.sol\":11579:11601  newOwner != address(0) */\n  0xffffffffffffffffffffffffffffffffffffffff\n  and\n    /* \"saf.sol\":11579:11587  newOwner */\n  dup2\n    /* \"saf.sol\":11579:11601  newOwner != address(0) */\n  0xffffffffffffffffffffffffffffffffffffffff\n  and\n  eq\n  iszero\n    /* \"saf.sol\":11571:11602  require(newOwner != address(0)) */\n  tag_42\n  jumpi\n  0x00\n  dup1\n  revert\ntag_42:\n    /* \"saf.sol\":11647:11655  newOwner */\n  dup1\n    /* \"saf.sol\":11618:11656  OwnershipTransferred(_owner, newOwner) */\n  0xffffffffffffffffffffffffffffffffffffffff\n  and\n    /* \"saf.sol\":11639:11645  _owner */\n  0x02\n  0x01\n  swap1\n  sload\n  swap1\n  0x0100\n  exp\n  swap1\n  div\n  0xffffffffffffffffffffffffffffffffffffffff\n  and\n    /* \"saf.sol\":11618:11656  OwnershipTransferred(_owner, newOwner) */\n  0xffffffffffffffffffffffffffffffffffffffff\n  and\n  0x8be0079c531659141344cd1fd0a4f28419497f9722a3daafe3b4186f6b6457e0\n  mload(0x40)\n  mload(0x40)\n  dup1\n  swap2\n  sub\n  swap1\n  log3\n    /* \"saf.sol\":11676:11684  newOwner */\n  dup1\n    /* \"saf.sol\":11667:11673  _owner */\n  0x02\n  0x01\n    /* \"saf.sol\":11667:11684  _owner = newOwner */\n  0x0100\n  exp\n  dup2\n  sload\n  dup2\n  0xffffffffffffffffffffffffffffffffffffffff\n  mul\n  not\n  and\n  swap1\n  dup4\n  0xffffffffffffffffffffffffffffffffffffffff\n  and\n  mul\n  or\n  swap1\n  sstore\n  pop\n    /* \"saf.sol\":11505:11692  function _transferOwnership(address newOwner) internal {\r... */\n  pop\n  jump\t// out\n    /* \"saf.sol\":2225:2450  function div(\r... */\ntag_40:\n    /* \"saf.sol\":2345:2352  uint256 */\n  0x00\n    /* \"saf.sol\":2377:2378  0 */\n  dup1\n    /* \"saf.sol\":2373:2374  b */\n  dup4\n    /* \"saf.sol\":2373:2378  b > 0 */\n  gt\n    /* \"saf.sol\":2380:2392  errorMessage */\n  dup3\n    /* \"saf.sol\":2365:2393  require(b > 0, errorMessage) */\n  swap1\n  tag_44\n  jumpi\n  mload(0x40)\n  0x08c379a000000000000000000000000000000000000000000000000000000000\n  dup2\n  mstore\n  0x04\n  add\n  dup1\n  dup1\n  0x20\n  add\n  dup3\n  dup2\n  sub\n  dup3\n  mstore\n  dup4\n  dup2\n  dup2\n  mload\n  dup2\n  mstore\n  0x20\n  add\n  swap2\n  pop\n  dup1\n  mload\n  swap1\n  0x20\n  add\n  swap1\n  dup1\n  dup4\n  dup4\n  0x00\ntag_45:\n  dup4\n  dup2\n  lt\n  iszero\n  tag_47\n  jumpi\n  dup1\n  dup3\n  add\n  mload\n  dup2\n  dup5\n  add\n  mstore\n  0x20\n  dup2\n  add\n  swap1\n  pop\n  jump(tag_45)\ntag_47:\n  pop\n  pop\n  pop\n  pop\n  swap1\n  pop\n  swap1\n  dup2\n  add\n  swap1\n  0x1f\n  and\n  dup1\n  iszero\n  tag_48\n  jumpi\n  dup1\n  dup3\n  sub\n  dup1\n  mload\n  0x01\n  dup4\n  0x20\n  sub\n  0x0100\n  exp\n  sub\n  not\n  and\n  dup2\n  mstore\n  0x20\n  add\n  swap2\n  pop\ntag_48:\n  pop\n  swap3\n  pop\n  pop\n  pop\n  mload(0x40)\n  dup1\n  swap2\n  sub\n  swap1\n  revert\ntag_44:\n  pop\n    /* \"saf.sol\":2404:2413  uint256 c */\n  0x00\n    /* \"saf.sol\":2420:2421  b */\n  dup4\n    /* \"saf.sol\":2416:2417  a */\n  dup6\n    /* \"saf.sol\":2416:2421  a / b */\n  dup2\n  tag_49\n  jumpi\n  invalid\ntag_49:\n  div\n    /* \"saf.sol\":2404:2421  uint256 c = a / b */\n  swap1\n  pop\n    /* \"saf.sol\":2441:2442  c */\n  dup1\n    /* \"saf.sol\":2434:2442  return c */\n  swap2\n  pop\n  pop\n    /* \"saf.sol\":2225:2450  function div(\r... */\n  swap4\n  swap3\n  pop\n  pop\n  pop\n  jump\t// out\n    /* \"saf.sol\":12319:28600  contract Safuu is ERC20Detailed, Ownable {\r... */\ntag_2:\n  dup3\n  dup1\n  sload\n  0x01\n  dup2\n  0x01\n  and\n  iszero\n  0x0100\n  mul\n  sub\n  and\n  0x02\n  swap1\n  div\n  swap1\n  0x00\n  mstore\n  keccak256(0x00, 0x20)\n  swap1\n  0x1f\n  add\n  0x20\n  swap1\n  div\n  dup2\n  add\n  swap3\n  dup3\n  tag_51\n  jumpi\n  0x00\n  dup6\n  sstore\n  jump(tag_50)\ntag_51:\n  dup3\n  0x1f\n  lt\n  tag_52\n  jumpi\n  dup1\n  mload\n  not(0xff)\n  and\n  dup4\n  dup1\n  add\n  or\n  dup6\n  sstore\n  jump(tag_50)\ntag_52:\n  dup3\n  dup1\n  add\n  0x01\n  add\n  dup6\n  sstore\n  dup3\n  iszero\n  tag_50\n  jumpi\n  swap2\n  dup3\n  add\ntag_53:\n  dup3\n  dup2\n  gt\n  iszero\n  tag_54\n  jumpi\n  dup3\n  mload\n  dup3\n  sstore\n  swap2\n  0x20\n  add\n  swap2\n  swap1\n  0x01\n  add\n  swap1\n  jump(tag_53)\ntag_54:\ntag_50:\n  pop\n  swap1\n  pop\n  tag_55\n  swap2\n  swap1\n  tag_56\n  jump\t// in\ntag_55:\n  pop\n  swap1\n  jump\t// out\ntag_56:\ntag_57:\n  dup1\n  dup3\n  gt\n  iszero\n  tag_58\n  jumpi\n  0x00\n  dup2\n  0x00\n  swap1\n  sstore\n  pop\n  0x01\n  add\n  jump(tag_57)\ntag_58:\n  pop\n  swap1\n  jump\t// out\ntag_35:\n  dataSize(sub_0)\n  dup1\n  dataOffset(sub_0)\n  0x00\n  codecopy\n  0x00\n  return\nstop\n\nsub_0: assembly {\n        /* \"saf.sol\":12319:28600  contract Safuu is ERC20Detailed, Ownable {\r... */\n      mstore(0x40, 0x80)\n      jumpi(tag_1, lt(calldatasize, 0x04))\n      shr(0xe0, calldataload(0x00))\n      dup1\n      0x753d02a1\n      gt\n      tag_60\n      jumpi\n      dup1\n      0xa9059cbb\n      gt\n      tag_61\n      jumpi\n      dup1\n      0xd28d8852\n      gt\n      tag_62\n      jumpi\n      dup1\n      0xe15beb80\n      gt\n      tag_63\n      jumpi\n      dup1\n      0xe15beb80\n      eq\n      tag_56\n      jumpi\n      dup1\n      0xf2fde38b\n      eq\n      tag_57\n      jumpi\n      dup1\n      0xf887ea40\n      eq\n      tag_58\n      jumpi\n      dup1\n      0xf9f92be4\n      eq\n      tag_59\n      jumpi\n      jump(tag_2)\n    tag_63:\n      dup1\n      0xd28d8852\n      eq\n      tag_52\n      jumpi\n      dup1\n      0xd4399790\n      eq\n      tag_53\n      jumpi\n      dup1\n      0xd51ed1c8\n      eq\n      tag_54\n      jumpi\n      dup1\n      0xdd62ed3e\n      eq\n      tag_55\n      jumpi\n      jump(tag_2)\n    tag_62:\n      dup1\n      0xbd595581\n      gt\n      tag_64\n      jumpi\n      dup1\n      0xbd595581\n      eq\n      tag_48\n      jumpi\n      dup1\n      0xca33e64c\n      eq\n      tag_49\n      jumpi\n      dup1\n      0xcc32d176\n      eq\n      tag_50\n      jumpi\n      dup1\n      0xcfbac92f\n      eq\n      tag_51\n      jumpi\n      jump(tag_2)\n    tag_64:\n      dup1\n      0xa9059cbb\n      eq\n      tag_45\n      jumpi\n      dup1\n      0xafb9cf6d\n      eq\n      tag_46\n      jumpi\n      dup1\n      0xb09f1266\n      eq\n      tag_47\n      jumpi\n      jump(tag_2)\n    tag_61:\n      dup1\n      0x9b2912cc\n      gt\n      tag_65\n      jumpi\n      dup1\n      0xa457c2d7\n      gt\n      tag_66\n      jumpi\n      dup1\n      0xa457c2d7\n      eq\n      tag_41\n      jumpi\n      dup1\n      0xa6cf7293\n      eq\n      tag_42\n      jumpi\n      dup1\n      0xa8aa1b31\n      eq\n      tag_43\n      jumpi\n      dup1\n      0xa8b08982\n      eq\n      tag_44\n      jumpi\n      jump(tag_2)\n    tag_66:\n      dup1\n      0x9b2912cc\n      eq\n      tag_38\n      jumpi\n      dup1\n      0x9b87676c\n      eq\n      tag_39\n      jumpi\n      dup1\n      0xa22d4832\n      eq\n      tag_40\n      jumpi\n      jump(tag_2)\n    tag_65:\n      dup1\n      0x8da5cb5b\n      gt\n      tag_67\n      jumpi\n      dup1\n      0x8da5cb5b\n      eq\n      tag_34\n      jumpi\n      dup1\n      0x8f32d59b\n      eq\n      tag_35\n      jumpi\n      dup1\n      0x95d89b41\n      eq\n      tag_36\n      jumpi\n      dup1\n      0x98118cb4\n      eq\n      tag_37\n      jumpi\n      jump(tag_2)\n    tag_67:\n      dup1\n      0x753d02a1\n      eq\n      tag_31\n      jumpi\n      dup1\n      0x83b4ac68\n      eq\n      tag_32\n      jumpi\n      dup1\n      0x854cff2f\n      eq\n      tag_33\n      jumpi\n      jump(tag_2)\n    tag_60:\n      dup1\n      0x33a581d2\n      gt\n      tag_68\n      jumpi\n      dup1\n      0x4d709adf\n      gt\n      tag_69\n      jumpi\n      dup1\n      0x6912652c\n      gt\n      tag_70\n      jumpi\n      dup1\n      0x6912652c\n      eq\n      tag_27\n      jumpi\n      dup1\n      0x6ddd1713\n      eq\n      tag_28\n      jumpi\n      dup1\n      0x70a08231\n      eq\n      tag_29\n      jumpi\n      dup1\n      0x715018a6\n      eq\n      tag_30\n      jumpi\n      jump(tag_2)\n    tag_70:\n      dup1\n      0x4d709adf\n      eq\n      tag_24\n      jumpi\n      dup1\n      0x4de41e83\n      eq\n      tag_25\n      jumpi\n      dup1\n      0x5a604c52\n      eq\n      tag_26\n      jumpi\n      jump(tag_2)\n    tag_69:\n      dup1\n      0x3b91aca9\n      gt\n      tag_71\n      jumpi\n      dup1\n      0x3b91aca9\n      eq\n      tag_20\n      jumpi\n      dup1\n      0x3c8e556d\n      eq\n      tag_21\n      jumpi\n      dup1\n      0x3eaaf86b\n      eq\n      tag_22\n      jumpi\n      dup1\n      0x49d98142\n      eq\n      tag_23\n      jumpi\n      jump(tag_2)\n    tag_71:\n      dup1\n      0x33a581d2\n      eq\n      tag_17\n      jumpi\n      dup1\n      0x37c9be87\n      eq\n      tag_18\n      jumpi\n      dup1\n      0x39509351\n      eq\n      tag_19\n      jumpi\n      jump(tag_2)\n    tag_68:\n      dup1\n      0x2b112e49\n      gt\n      tag_72\n      jumpi\n      dup1\n      0x2f34d282\n      gt\n      tag_73\n      jumpi\n      dup1\n      0x2f34d282\n      eq\n      tag_13\n      jumpi\n      dup1\n      0x313ce567\n      eq\n      tag_14\n      jumpi\n      dup1\n      0x32424aa3\n      eq\n      tag_15\n      jumpi\n      dup1\n      0x32b75683\n      eq\n      tag_16\n      jumpi\n      jump(tag_2)\n    tag_73:\n      dup1\n      0x2b112e49\n      eq\n      tag_10\n      jumpi\n      dup1\n      0x2b14ca56\n      eq\n      tag_11\n      jumpi\n      dup1\n      0x2e0f2625\n      eq\n      tag_12\n      jumpi\n      jump(tag_2)\n    tag_72:\n      dup1\n      0x180b0d7e\n      gt\n      tag_74\n      jumpi\n      dup1\n      0x180b0d7e\n      eq\n      tag_6\n      jumpi\n      dup1\n      0x18160ddd\n      eq\n      tag_7\n      jumpi\n      dup1\n      0x1df4ccfc\n      eq\n      tag_8\n      jumpi\n      dup1\n      0x23b872dd\n      eq\n      tag_9\n      jumpi\n      jump(tag_2)\n    tag_74:\n      dup1\n      0x06fdde03\n      eq\n      tag_3\n      jumpi\n      dup1\n      0x08b1fd8f\n      eq\n      tag_4\n      jumpi\n      dup1\n      0x095ea7b3\n      eq\n      tag_5\n      jumpi\n      jump(tag_2)\n    tag_1:\n      jumpi(tag_2, calldatasize)\n      stop\n    tag_2:\n      0x00\n      dup1\n      revert\n        /* \"saf.sol\":12043:12126  function name() public view returns (string memory) {\r... */\n    tag_3:\n      callvalue\n      dup1\n      iszero\n      tag_77\n      jumpi\n      0x00\n      dup1\n      revert\n    tag_77:\n      pop\n      tag_78\n      tag_79\n      jump\t// in\n    tag_78:\n      mload(0x40)\n      dup1\n      dup1\n      0x20\n      add\n      dup3\n      dup2\n      sub\n      dup3\n      mstore\n      dup4\n      dup2\n      dup2\n      mload\n      dup2\n      mstore\n      0x20\n      add\n      swap2\n      pop\n      dup1\n      mload\n      swap1\n      0x20\n      add\n      swap1\n      dup1\n      dup4\n      dup4\n      0x00\n    tag_80:\n      dup4\n      dup2\n      lt\n      iszero\n      tag_82\n      jumpi\n      dup1\n      dup3\n      add\n      mload\n      dup2\n      dup5\n      add\n      mstore\n      0x20\n      dup2\n      add\n      swap1\n      pop\n      jump(tag_80)\n    tag_82:\n      pop\n      pop\n      pop\n      pop\n      swap1\n      pop\n      swap1\n      dup2\n      add\n      swap1\n      0x1f\n      and\n      dup1\n      iszero\n      tag_83\n      jumpi\n      dup1\n      dup3\n      sub\n      dup1\n      mload\n      0x01\n      dup4\n      0x20\n      sub\n      0x0100\n      exp\n      sub\n      not\n      and\n      dup2\n      mstore\n      0x20\n      add\n      swap2\n      pop\n    tag_83:\n      pop\n      swap3\n      pop\n      pop\n      pop\n      mload(0x40)\n      dup1\n      swap2\n      sub\n      swap1\n      return\n        /* \"saf.sol\":13602:13633  address public treasuryReceiver */\n    tag_4:\n      callvalue\n      dup1\n      iszero\n      tag_84\n      jumpi\n      0x00\n      dup1\n      revert\n    tag_84:\n      pop\n      tag_85\n      tag_86\n      jump\t// in\n    tag_85:\n      mload(0x40)\n      dup1\n      dup3\n      0xffffffffffffffffffffffffffffffffffffffff\n      and\n      dup2\n      mstore\n      0x20\n      add\n      swap2\n      pop\n      pop\n      mload(0x40)\n      dup1\n      swap2\n      sub\n      swap1\n      return\n        /* \"saf.sol\":26038:26291  function approve(address spender, uint256 value)\r... */\n    tag_5:\n      callvalue\n      dup1\n      iszero\n      tag_87\n      jumpi\n      0x00\n      dup1\n      revert\n    tag_87:\n      pop\n      tag_88\n      0x04\n      dup1\n      calldatasize\n      sub\n      0x40\n      dup2\n      lt\n      iszero\n      tag_89\n      jumpi\n      0x00\n      dup1\n      revert\n    tag_89:\n      dup2\n      add\n      swap1\n      dup1\n      dup1\n      calldataload\n      0xffffffffffffffffffffffffffffffffffffffff\n      and\n      swap1\n      0x20\n      add\n      swap1\n      swap3\n      swap2\n      swap1\n      dup1\n      calldataload\n      swap1\n      0x20\n      add\n      swap1\n      swap3\n      swap2\n      swap1\n      pop\n      pop\n      pop\n      tag_90\n      jump\t// in\n    tag_88:\n      mload(0x40)\n      dup1\n      dup3\n      iszero\n      iszero\n      dup2\n      mstore\n      0x20\n      add\n      swap2\n      pop\n      pop\n      mload(0x40)\n      dup1\n      swap2\n      sub\n      swap1\n      return\n        /* \"saf.sol\":13384:13420  uint256 public feeDenominator = 1000 */\n    tag_6:\n      callvalue\n      dup1\n      iszero\n      tag_91\n      jumpi\n      0x00\n      dup1\n      revert\n    tag_91:\n      pop\n      tag_92\n      tag_93\n      jump\t// in\n    tag_92:\n      mload(0x40)\n      dup1\n      dup3\n      dup2\n      mstore\n      0x20\n      add\n      swap2\n      pop\n      pop\n      mload(0x40)\n      dup1\n      swap2\n      sub\n      swap1\n      return\n        /* \"saf.sol\":28136:28238  function totalSupply() external view override returns (uint256) {\r... */\n    tag_7:\n      callvalue\n      dup1\n      iszero\n      tag_94\n      jumpi\n      0x00\n      dup1\n      revert\n    tag_94:\n      pop\n      tag_95\n      tag_96\n      jump\t// in\n    tag_95:\n      mload(0x40)\n      dup1\n      dup3\n      dup2\n      mstore\n      0x20\n      add\n      swap2\n      pop\n      pop\n      mload(0x40)\n      dup1\n      swap2\n      sub\n      swap1\n      return\n        /* \"saf.sol\":13246:13377  uint256 public totalFee =\r... */\n    tag_8:\n      callvalue\n      dup1\n      iszero\n      tag_97\n      jumpi\n      0x00\n      dup1\n      revert\n    tag_97:\n      pop\n      tag_98\n      tag_99\n      jump\t// in\n    tag_98:\n      mload(0x40)\n      dup1\n      dup3\n      dup2\n      mstore\n      0x20\n      add\n      swap2\n      pop\n      pop\n      mload(0x40)\n      dup1\n      swap2\n      sub\n      swap1\n      return\n        /* \"saf.sol\":17252:17717  function transferFrom(\r... */\n    tag_9:\n      callvalue\n      dup1\n      iszero\n      tag_100\n      jumpi\n      0x00\n      dup1\n      revert\n    tag_100:\n      pop\n      tag_101\n      0x04\n      dup1\n      calldatasize\n      sub\n      0x60\n      dup2\n      lt\n      iszero\n      tag_102\n      jumpi\n      0x00\n      dup1\n      revert\n    tag_102:\n      dup2\n      add\n      swap1\n      dup1\n      dup1\n      calldataload\n      0xffffffffffffffffffffffffffffffffffffffff\n      and\n      swap1\n      0x20\n      add\n      swap1\n      swap3\n      swap2\n      swap1\n      dup1\n      calldataload\n      0xffffffffffffffffffffffffffffffffffffffff\n      and\n      swap1\n      0x20\n      add\n      swap1\n      swap3\n      swap2\n      swap1\n      dup1\n      calldataload\n      swap1\n      0x20\n      add\n      swap1\n      swap3\n      swap2\n      swap1\n      pop\n      pop\n      pop\n      tag_103\n      jump\t// in\n    tag_101:\n      mload(0x40)\n      dup1\n      dup3\n      iszero\n      iszero\n      dup2\n      mstore\n      0x20\n      add\n      swap2\n      pop\n      pop\n      mload(0x40)\n      dup1\n      swap2\n      sub\n      swap1\n      return\n        /* \"saf.sol\":26420:26635  function getCirculatingSupply() public view returns (uint256) {\r... */\n    tag_10:\n      callvalue\n      dup1\n      iszero\n      tag_104\n      jumpi\n      0x00\n      dup1\n      revert\n    tag_104:\n      pop\n      tag_105\n      tag_106\n      jump\t// in\n    tag_105:\n      mload(0x40)\n      dup1\n      dup3\n      dup2\n      mstore\n      0x20\n      add\n      swap2\n      pop\n      pop\n      mload(0x40)\n      dup1\n      swap2\n      sub\n      swap1\n      return\n        /* \"saf.sol\":13175:13202  uint256 public sellFee = 20 */\n    tag_11:\n      callvalue\n      dup1\n      iszero\n      tag_107\n      jumpi\n      0x00\n      dup1\n      revert\n    tag_107:\n      pop\n      tag_108\n      tag_109\n      jump\t// in\n    tag_108:\n      mload(0x40)\n      dup1\n      dup3\n      dup2\n      mstore\n      0x20\n      add\n      swap2\n      pop\n      pop\n      mload(0x40)\n      dup1\n      swap2\n      sub\n      swap1\n      return\n        /* \"saf.sol\":12807:12843  uint256 public constant DECIMALS = 5 */\n    tag_12:\n      callvalue\n      dup1\n      iszero\n      tag_110\n      jumpi\n      0x00\n      dup1\n      revert\n    tag_110:\n      pop\n      tag_111\n      tag_112\n      jump\t// in\n    tag_111:\n      mload(0x40)\n      dup1\n      dup3\n      dup2\n      mstore\n      0x20\n      add\n      swap2\n      pop\n      pop\n      mload(0x40)\n      dup1\n      swap2\n      sub\n      swap1\n      return\n        /* \"saf.sol\":28012:28124  function setLP(address _address) external onlyOwner {\r... */\n    tag_13:\n      callvalue\n      dup1\n      iszero\n      tag_113\n      jumpi\n      0x00\n      dup1\n      revert\n    tag_113:\n      pop\n      tag_114\n      0x04\n      dup1\n      calldatasize\n      sub\n      0x20\n      dup2\n      lt\n      iszero\n      tag_115\n      jumpi\n      0x00\n      dup1\n      revert\n    tag_115:\n      dup2\n      add\n      swap1\n      dup1\n      dup1\n      calldataload\n      0xffffffffffffffffffffffffffffffffffffffff\n      and\n      swap1\n      0x20\n      add\n      swap1\n      swap3\n      swap2\n      swap1\n      pop\n      pop\n      pop\n      tag_116\n      jump\t// in\n    tag_114:\n      stop\n        /* \"saf.sol\":12229:12312  function decimals() public view returns (uint8) {\r... */\n    tag_14:\n      callvalue\n      dup1\n      iszero\n      tag_117\n      jumpi\n      0x00\n      dup1\n      revert\n    tag_117:\n      pop\n      tag_118\n      tag_119\n      jump\t// in\n    tag_118:\n      mload(0x40)\n      dup1\n      dup3\n      0xff\n      and\n      dup2\n      mstore\n      0x20\n      add\n      swap2\n      pop\n      pop\n      mload(0x40)\n      dup1\n      swap2\n      sub\n      swap1\n      return\n        /* \"saf.sol\":12581:12607  uint8 public _decimals = 5 */\n    tag_15:\n      callvalue\n      dup1\n      iszero\n      tag_120\n      jumpi\n      0x00\n      dup1\n      revert\n    tag_120:\n      pop\n      tag_121\n      tag_122\n      jump\t// in\n    tag_121:\n      mload(0x40)\n      dup1\n      dup3\n      0xff\n      and\n      dup2\n      mstore\n      0x20\n      add\n      swap2\n      pop\n      pop\n      mload(0x40)\n      dup1\n      swap2\n      sub\n      swap1\n      return\n        /* \"saf.sol\":14266:14297  uint256 public _lastRebasedTime */\n    tag_16:\n      callvalue\n      dup1\n      iszero\n      tag_123\n      jumpi\n      0x00\n      dup1\n      revert\n    tag_123:\n      pop\n      tag_124\n      tag_125\n      jump\t// in\n    tag_124:\n      mload(0x40)\n      dup1\n      dup3\n      dup2\n      mstore\n      0x20\n      add\n      swap2\n      pop\n      pop\n      mload(0x40)\n      dup1\n      swap2\n      sub\n      swap1\n      return\n        /* \"saf.sol\":12850:12899  uint256 public constant MAX_UINT256 = ~uint256(0) */\n    tag_17:\n      callvalue\n      dup1\n      iszero\n      tag_126\n      jumpi\n      0x00\n      dup1\n      revert\n    tag_126:\n      pop\n      tag_127\n      tag_128\n      jump\t// in\n    tag_127:\n      mload(0x40)\n      dup1\n      dup3\n      dup2\n      mstore\n      0x20\n      add\n      swap2\n      pop\n      pop\n      mload(0x40)\n      dup1\n      swap2\n      sub\n      swap1\n      return\n        /* \"saf.sol\":27648:27884  function setBotBlacklist(address _botAddress, bool _flag) external onlyOwner {\r... */\n    tag_18:\n      callvalue\n      dup1\n      iszero\n      tag_129\n      jumpi\n      0x00\n      dup1\n      revert\n    tag_129:\n      pop\n      tag_130\n      0x04\n      dup1\n      calldatasize\n      sub\n      0x40\n      dup2\n      lt\n      iszero\n      tag_131\n      jumpi\n      0x00\n      dup1\n      revert\n    tag_131:\n      dup2\n      add\n      swap1\n      dup1\n      dup1\n      calldataload\n      0xffffffffffffffffffffffffffffffffffffffff\n      and\n      swap1\n      0x20\n      add\n      swap1\n      swap3\n      swap2\n      swap1\n      dup1\n      calldataload\n      iszero\n      iszero\n      swap1\n      0x20\n      add\n      swap1\n      swap3\n      swap2\n      swap1\n      pop\n      pop\n      pop\n      tag_132\n      jump\t// in\n    tag_130:\n      stop\n        /* \"saf.sol\":25624:26030  function increaseAllowance(address spender, uint256 addedValue)\r... */\n    tag_19:\n      callvalue\n      dup1\n      iszero\n      tag_133\n      jumpi\n      0x00\n      dup1\n      revert\n    tag_133:\n      pop\n      tag_134\n      0x04\n      dup1\n      calldatasize\n      sub\n      0x40\n      dup2\n      lt\n      iszero\n      tag_135\n      jumpi\n      0x00\n      dup1\n      revert\n    tag_135:\n      dup2\n      add\n      swap1\n      dup1\n      dup1\n      calldataload\n      0xffffffffffffffffffffffffffffffffffffffff\n      and\n      swap1\n      0x20\n      add\n      swap1\n      swap3\n      swap2\n      swap1\n      dup1\n      calldataload\n      swap1\n      0x20\n      add\n      swap1\n      swap3\n      swap2\n      swap1\n      pop\n      pop\n      pop\n      tag_136\n      jump\t// in\n    tag_134:\n      mload(0x40)\n      dup1\n      dup3\n      iszero\n      iszero\n      dup2\n      mstore\n      0x20\n      add\n      swap2\n      pop\n      pop\n      mload(0x40)\n      dup1\n      swap2\n      sub\n      swap1\n      return\n        /* \"saf.sol\":13640:13681  address public safuuInsuranceFundReceiver */\n    tag_20:\n      callvalue\n      dup1\n      iszero\n      tag_137\n      jumpi\n      0x00\n      dup1\n      revert\n    tag_137:\n      pop\n      tag_138\n      tag_139\n      jump\t// in\n    tag_138:\n      mload(0x40)\n      dup1\n      dup3\n      0xffffffffffffffffffffffffffffffffffffffff\n      and\n      dup2\n      mstore\n      0x20\n      add\n      swap2\n      pop\n      pop\n      mload(0x40)\n      dup1\n      swap2\n      sub\n      swap1\n      return\n        /* \"saf.sol\":26823:27232  function setFeeReceivers(\r... */\n    tag_21:\n      callvalue\n      dup1\n      iszero\n      tag_140\n      jumpi\n      0x00\n      dup1\n      revert\n    tag_140:\n      pop\n      tag_141\n      0x04\n      dup1\n      calldatasize\n      sub\n      0x80\n      dup2\n      lt\n      iszero\n      tag_142\n      jumpi\n      0x00\n      dup1\n      revert\n    tag_142:\n      dup2\n      add\n      swap1\n      dup1\n      dup1\n      calldataload\n      0xffffffffffffffffffffffffffffffffffffffff\n      and\n      swap1\n      0x20\n      add\n      swap1\n      swap3\n      swap2\n      swap1\n      dup1\n      calldataload\n      0xffffffffffffffffffffffffffffffffffffffff\n      and\n      swap1\n      0x20\n      add\n      swap1\n      swap3\n      swap2\n      swap1\n      dup1\n      calldataload\n      0xffffffffffffffffffffffffffffffffffffffff\n      and\n      swap1\n      0x20\n      add\n      swap1\n      swap3\n      swap2\n      swap1\n      dup1\n      calldataload\n      0xffffffffffffffffffffffffffffffffffffffff\n      and\n      swap1\n      0x20\n      add\n      swap1\n      swap3\n      swap2\n      swap1\n      pop\n      pop\n      pop\n      tag_143\n      jump\t// in\n    tag_141:\n      stop\n        /* \"saf.sol\":14347:14374  uint256 public _totalSupply */\n    tag_22:\n      callvalue\n      dup1\n      iszero\n      tag_144\n      jumpi\n      0x00\n      dup1\n      revert\n    tag_144:\n      pop\n      tag_145\n      tag_146\n      jump\t// in\n    tag_145:\n      mload(0x40)\n      dup1\n      dup3\n      dup2\n      mstore\n      0x20\n      add\n      swap2\n      pop\n      pop\n      mload(0x40)\n      dup1\n      swap2\n      sub\n      swap1\n      return\n        /* \"saf.sol\":13688:13710  address public firePit */\n    tag_23:\n      callvalue\n      dup1\n      iszero\n      tag_147\n      jumpi\n      0x00\n      dup1\n      revert\n    tag_147:\n      pop\n      tag_148\n      tag_149\n      jump\t// in\n    tag_148:\n      mload(0x40)\n      dup1\n      dup3\n      0xffffffffffffffffffffffffffffffffffffffff\n      and\n      dup2\n      mstore\n      0x20\n      add\n      swap2\n      pop\n      pop\n      mload(0x40)\n      dup1\n      swap2\n      sub\n      swap1\n      return\n        /* \"saf.sol\":12616:12652  IPancakeSwapPair public pairContract */\n    tag_24:\n      callvalue\n      dup1\n      iszero\n      tag_150\n      jumpi\n      0x00\n      dup1\n      revert\n    tag_150:\n      pop\n      tag_151\n      tag_152\n      jump\t// in\n    tag_151:\n      mload(0x40)\n      dup1\n      dup3\n      0xffffffffffffffffffffffffffffffffffffffff\n      and\n      dup2\n      mstore\n      0x20\n      add\n      swap2\n      pop\n      pop\n      mload(0x40)\n      dup1\n      swap2\n      sub\n      swap1\n      return\n        /* \"saf.sol\":13127:13168  uint256 public safuuInsuranceFundFee = 50 */\n    tag_25:\n      callvalue\n      dup1\n      iszero\n      tag_153\n      jumpi\n      0x00\n      dup1\n      revert\n    tag_153:\n      pop\n      tag_154\n      tag_155\n      jump\t// in\n    tag_154:\n      mload(0x40)\n      dup1\n      dup3\n      dup2\n      mstore\n      0x20\n      add\n      swap2\n      pop\n      pop\n      mload(0x40)\n      dup1\n      swap2\n      sub\n      swap1\n      return\n        /* \"saf.sol\":12906:12945  uint8 public constant RATE_DECIMALS = 7 */\n    tag_26:\n      callvalue\n      dup1\n      iszero\n      tag_156\n      jumpi\n      0x00\n      dup1\n      revert\n    tag_156:\n      pop\n      tag_157\n      tag_158\n      jump\t// in\n    tag_157:\n      mload(0x40)\n      dup1\n      dup3\n      0xff\n      and\n      dup2\n      mstore\n      0x20\n      add\n      swap2\n      pop\n      pop\n      mload(0x40)\n      dup1\n      swap2\n      sub\n      swap1\n      return\n        /* \"saf.sol\":14188:14217  bool public _autoAddLiquidity */\n    tag_27:\n      callvalue\n      dup1\n      iszero\n      tag_159\n      jumpi\n      0x00\n      dup1\n      revert\n    tag_159:\n      pop\n      tag_160\n      tag_161\n      jump\t// in\n    tag_160:\n      mload(0x40)\n      dup1\n      dup3\n      iszero\n      iszero\n      dup2\n      mstore\n      0x20\n      add\n      swap2\n      pop\n      pop\n      mload(0x40)\n      dup1\n      swap2\n      sub\n      swap1\n      return\n        /* \"saf.sol\":13750:13780  bool public swapEnabled = true */\n    tag_28:\n      callvalue\n      dup1\n      iszero\n      tag_162\n      jumpi\n      0x00\n      dup1\n      revert\n    tag_162:\n      pop\n      tag_163\n      tag_164\n      jump\t// in\n    tag_163:\n      mload(0x40)\n      dup1\n      dup3\n      iszero\n      iszero\n      dup2\n      mstore\n      0x20\n      add\n      swap2\n      pop\n      pop\n      mload(0x40)\n      dup1\n      swap2\n      sub\n      swap1\n      return\n        /* \"saf.sol\":28249:28387  function balanceOf(address who) external view override returns (uint256) {\r... */\n    tag_29:\n      callvalue\n      dup1\n      iszero\n      tag_165\n      jumpi\n      0x00\n      dup1\n      revert\n    tag_165:\n      pop\n      tag_166\n      0x04\n      dup1\n      calldatasize\n      sub\n      0x20\n      dup2\n      lt\n      iszero\n      tag_167\n      jumpi\n      0x00\n      dup1\n      revert\n    tag_167:\n      dup2\n      add\n      swap1\n      dup1\n      dup1\n      calldataload\n      0xffffffffffffffffffffffffffffffffffffffff\n      and\n      swap1\n      0x20\n      add\n      swap1\n      swap3\n      swap2\n      swap1\n      pop\n      pop\n      pop\n      tag_168\n      jump\t// in\n    tag_166:\n      mload(0x40)\n      dup1\n      dup3\n      dup2\n      mstore\n      0x20\n      add\n      swap2\n      pop\n      pop\n      mload(0x40)\n      dup1\n      swap2\n      sub\n      swap1\n      return\n        /* \"saf.sol\":11254:11380  function renounceOwnership() public onlyOwner {\r... */\n    tag_30:\n      callvalue\n      dup1\n      iszero\n      tag_169\n      jumpi\n      0x00\n      dup1\n      revert\n    tag_169:\n      pop\n      tag_170\n      tag_171\n      jump\t// in\n    tag_170:\n      stop\n        /* \"saf.sol\":26736:26815  function manualSync() external {\r... */\n    tag_31:\n      callvalue\n      dup1\n      iszero\n      tag_172\n      jumpi\n      0x00\n      dup1\n      revert\n    tag_172:\n      pop\n      tag_173\n      tag_174\n      jump\t// in\n    tag_173:\n      stop\n        /* \"saf.sol\":26643:26728  function isNotInSwap() external view returns (bool) {\r... */\n    tag_32:\n      callvalue\n      dup1\n      iszero\n      tag_175\n      jumpi\n      0x00\n      dup1\n      revert\n    tag_175:\n      pop\n      tag_176\n      tag_177\n      jump\t// in\n    tag_176:\n      mload(0x40)\n      dup1\n      dup3\n      iszero\n      iszero\n      dup2\n      mstore\n      0x20\n      add\n      swap2\n      pop\n      pop\n      mload(0x40)\n      dup1\n      swap2\n      sub\n      swap1\n      return\n        /* \"saf.sol\":27539:27640  function setWhitelist(address _addr) external onlyOwner {\r... */\n    tag_33:\n      callvalue\n      dup1\n      iszero\n      tag_178\n      jumpi\n      0x00\n      dup1\n      revert\n    tag_178:\n      pop\n      tag_179\n      0x04\n      dup1\n      calldatasize\n      sub\n      0x20\n      dup2\n      lt\n      iszero\n      tag_180\n      jumpi\n      0x00\n      dup1\n      revert\n    tag_180:\n      dup2\n      add\n      swap1\n      dup1\n      dup1\n      calldataload\n      0xffffffffffffffffffffffffffffffffffffffff\n      and\n      swap1\n      0x20\n      add\n      swap1\n      swap3\n      swap2\n      swap1\n      pop\n      pop\n      pop\n      tag_181\n      jump\t// in\n    tag_179:\n      stop\n        /* \"saf.sol\":10989:11068  function owner() public view returns (address) {\r... */\n    tag_34:\n      callvalue\n      dup1\n      iszero\n      tag_182\n      jumpi\n      0x00\n      dup1\n      revert\n    tag_182:\n      pop\n      tag_183\n      tag_184\n      jump\t// in\n    tag_183:\n      mload(0x40)\n      dup1\n      dup3\n      0xffffffffffffffffffffffffffffffffffffffff\n      and\n      dup2\n      mstore\n      0x20\n      add\n      swap2\n      pop\n      pop\n      mload(0x40)\n      dup1\n      swap2\n      sub\n      swap1\n      return\n        /* \"saf.sol\":11154:11246  function isOwner() public view returns (bool) {\r... */\n    tag_35:\n      callvalue\n      dup1\n      iszero\n      tag_185\n      jumpi\n      0x00\n      dup1\n      revert\n    tag_185:\n      pop\n      tag_186\n      tag_187\n      jump\t// in\n    tag_186:\n      mload(0x40)\n      dup1\n      dup3\n      iszero\n      iszero\n      dup2\n      mstore\n      0x20\n      add\n      swap2\n      pop\n      pop\n      mload(0x40)\n      dup1\n      swap2\n      sub\n      swap1\n      return\n        /* \"saf.sol\":12134:12221  function symbol() public view returns (string memory) {\r... */\n    tag_36:\n      callvalue\n      dup1\n      iszero\n      tag_188\n      jumpi\n      0x00\n      dup1\n      revert\n    tag_188:\n      pop\n      tag_189\n      tag_190\n      jump\t// in\n    tag_189:\n      mload(0x40)\n      dup1\n      dup1\n      0x20\n      add\n      dup3\n      dup2\n      sub\n      dup3\n      mstore\n      dup4\n      dup2\n      dup2\n      mload\n      dup2\n      mstore\n      0x20\n      add\n      swap2\n      pop\n      dup1\n      mload\n      swap1\n      0x20\n      add\n      swap1\n      dup1\n      dup4\n      dup4\n      0x00\n    tag_191:\n      dup4\n      dup2\n      lt\n      iszero\n      tag_193\n      jumpi\n      dup1\n      dup3\n      add\n      mload\n      dup2\n      dup5\n      add\n      mstore\n      0x20\n      dup2\n      add\n      swap1\n      pop\n      jump(tag_191)\n    tag_193:\n      pop\n      pop\n      pop\n      pop\n      swap1\n      pop\n      swap1\n      dup2\n      add\n      swap1\n      0x1f\n      and\n      dup1\n      iszero\n      tag_194\n      jumpi\n      dup1\n      dup3\n      sub\n      dup1\n      mload\n      0x01\n      dup4\n      0x20\n      sub\n      0x0100\n      exp\n      sub\n      not\n      and\n      dup2\n      mstore\n      0x20\n      add\n      swap2\n      pop\n    tag_194:\n      pop\n      swap3\n      pop\n      pop\n      pop\n      mload(0x40)\n      dup1\n      swap2\n      sub\n      swap1\n      return\n        /* \"saf.sol\":13050:13082  uint256 public liquidityFee = 40 */\n    tag_37:\n      callvalue\n      dup1\n      iszero\n      tag_195\n      jumpi\n      0x00\n      dup1\n      revert\n    tag_195:\n      pop\n      tag_196\n      tag_197\n      jump\t// in\n    tag_196:\n      mload(0x40)\n      dup1\n      dup3\n      dup2\n      mstore\n      0x20\n      add\n      swap2\n      pop\n      pop\n      mload(0x40)\n      dup1\n      swap2\n      sub\n      swap1\n      return\n        /* \"saf.sol\":14304:14340  uint256 public _lastAddLiquidityTime */\n    tag_38:\n      callvalue\n      dup1\n      iszero\n      tag_198\n      jumpi\n      0x00\n      dup1\n      revert\n    tag_198:\n      pop\n      tag_199\n      tag_200\n      jump\t// in\n    tag_199:\n      mload(0x40)\n      dup1\n      dup3\n      dup2\n      mstore\n      0x20\n      add\n      swap2\n      pop\n      pop\n      mload(0x40)\n      dup1\n      swap2\n      sub\n      swap1\n      return\n        /* \"saf.sol\":14224:14259  uint256 public _initRebaseStartTime */\n    tag_39:\n      callvalue\n      dup1\n      iszero\n      tag_201\n      jumpi\n      0x00\n      dup1\n      revert\n    tag_201:\n      pop\n      tag_202\n      tag_203\n      jump\t// in\n    tag_202:\n      mload(0x40)\n      dup1\n      dup3\n      dup2\n      mstore\n      0x20\n      add\n      swap2\n      pop\n      pop\n      mload(0x40)\n      dup1\n      swap2\n      sub\n      swap1\n      return\n        /* \"saf.sol\":27896:28004  function setPairAddress(address _pairAddress) public onlyOwner {\r... */\n    tag_40:\n      callvalue\n      dup1\n      iszero\n      tag_204\n      jumpi\n      0x00\n      dup1\n      revert\n    tag_204:\n      pop\n      tag_205\n      0x04\n      dup1\n      calldatasize\n      sub\n      0x20\n      dup2\n      lt\n      iszero\n      tag_206\n      jumpi\n      0x00\n      dup1\n      revert\n    tag_206:\n      dup2\n      add\n      swap1\n      dup1\n      dup1\n      calldataload\n      0xffffffffffffffffffffffffffffffffffffffff\n      and\n      swap1\n      0x20\n      add\n      swap1\n      swap3\n      swap2\n      swap1\n      pop\n      pop\n      pop\n      tag_207\n      jump\t// in\n    tag_205:\n      stop\n        /* \"saf.sol\":25020:25616  function decreaseAllowance(address spender, uint256 subtractedValue)\r... */\n    tag_41:\n      callvalue\n      dup1\n      iszero\n      tag_208\n      jumpi\n      0x00\n      dup1\n      revert\n    tag_208:\n      pop\n      tag_209\n      0x04\n      dup1\n      calldatasize\n      sub\n      0x40\n      dup2\n      lt\n      iszero\n      tag_210\n      jumpi\n      0x00\n      dup1\n      revert\n    tag_210:\n      dup2\n      add\n      swap1\n      dup1\n      dup1\n      calldataload\n      0xffffffffffffffffffffffffffffffffffffffff\n      and\n      swap1\n      0x20\n      add\n      swap1\n      swap3\n      swap2\n      swap1\n      dup1\n      calldataload\n      swap1\n      0x20\n      add\n      swap1\n      swap3\n      swap2\n      swap1\n      pop\n      pop\n      pop\n      tag_211\n      jump\t// in\n    tag_209:\n      mload(0x40)\n      dup1\n      dup3\n      iszero\n      iszero\n      dup2\n      mstore\n      0x20\n      add\n      swap2\n      pop\n      pop\n      mload(0x40)\n      dup1\n      swap2\n      sub\n      swap1\n      return\n        /* \"saf.sol\":13209:13239  uint256 public firePitFee = 25 */\n    tag_42:\n      callvalue\n      dup1\n      iszero\n      tag_212\n      jumpi\n      0x00\n      dup1\n      revert\n    tag_212:\n      pop\n      tag_213\n      tag_214\n      jump\t// in\n    tag_213:\n      mload(0x40)\n      dup1\n      dup3\n      dup2\n      mstore\n      0x20\n      add\n      swap2\n      pop\n      pop\n      mload(0x40)\n      dup1\n      swap2\n      sub\n      swap1\n      return\n        /* \"saf.sol\":13826:13845  address public pair */\n    tag_43:\n      callvalue\n      dup1\n      iszero\n      tag_215\n      jumpi\n      0x00\n      dup1\n      revert\n    tag_215:\n      pop\n      tag_216\n      tag_217\n      jump\t// in\n    tag_216:\n      mload(0x40)\n      dup1\n      dup3\n      0xffffffffffffffffffffffffffffffffffffffff\n      and\n      dup2\n      mstore\n      0x20\n      add\n      swap2\n      pop\n      pop\n      mload(0x40)\n      dup1\n      swap2\n      sub\n      swap1\n      return\n        /* \"saf.sol\":13717:13743  address public pairAddress */\n    tag_44:\n      callvalue\n      dup1\n      iszero\n      tag_218\n      jumpi\n      0x00\n      dup1\n      revert\n    tag_218:\n      pop\n      tag_219\n      tag_220\n      jump\t// in\n    tag_219:\n      mload(0x40)\n      dup1\n      dup3\n      0xffffffffffffffffffffffffffffffffffffffff\n      and\n      dup2\n      mstore\n      0x20\n      add\n      swap2\n      pop\n      pop\n      mload(0x40)\n      dup1\n      swap2\n      sub\n      swap1\n      return\n        /* \"saf.sol\":17029:17244  function transfer(address to, uint256 value)\r... */\n    tag_45:\n      callvalue\n      dup1\n      iszero\n      tag_221\n      jumpi\n      0x00\n      dup1\n      revert\n    tag_221:\n      pop\n      tag_222\n      0x04\n      dup1\n      calldatasize\n      sub\n      0x40\n      dup2\n      lt\n      iszero\n      tag_223\n      jumpi\n      0x00\n      dup1\n      revert\n    tag_223:\n      dup2\n      add\n      swap1\n      dup1\n      dup1\n      calldataload\n      0xffffffffffffffffffffffffffffffffffffffff\n      and\n      swap1\n      0x20\n      add\n      swap1\n      swap3\n      swap2\n      swap1\n      dup1\n      calldataload\n      swap1\n      0x20\n      add\n      swap1\n      swap3\n      swap2\n      swap1\n      pop\n      pop\n      pop\n      tag_224\n      jump\t// in\n    tag_222:\n      mload(0x40)\n      dup1\n      dup3\n      iszero\n      iszero\n      dup2\n      mstore\n      0x20\n      add\n      swap2\n      pop\n      pop\n      mload(0x40)\n      dup1\n      swap2\n      sub\n      swap1\n      return\n        /* \"saf.sol\":14158:14181  bool public _autoRebase */\n    tag_46:\n      callvalue\n      dup1\n      iszero\n      tag_225\n      jumpi\n      0x00\n      dup1\n      revert\n    tag_225:\n      pop\n      tag_226\n      tag_227\n      jump\t// in\n    tag_226:\n      mload(0x40)\n      dup1\n      dup3\n      iszero\n      iszero\n      dup2\n      mstore\n      0x20\n      add\n      swap2\n      pop\n      pop\n      mload(0x40)\n      dup1\n      swap2\n      sub\n      swap1\n      return\n        /* \"saf.sol\":12543:12574  string public _symbol = \"SAFUU\" */\n    tag_47:\n      callvalue\n      dup1\n      iszero\n      tag_228\n      jumpi\n      0x00\n      dup1\n      revert\n    tag_228:\n      pop\n      tag_229\n      tag_230\n      jump\t// in\n    tag_229:\n      mload(0x40)\n      dup1\n      dup1\n      0x20\n      add\n      dup3\n      dup2\n      sub\n      dup3\n      mstore\n      dup4\n      dup2\n      dup2\n      mload\n      dup2\n      mstore\n      0x20\n      add\n      swap2\n      pop\n      dup1\n      mload\n      swap1\n      0x20\n      add\n      swap1\n      dup1\n      dup4\n      dup4\n      0x00\n    tag_231:\n      dup4\n      dup2\n      lt\n      iszero\n      tag_233\n      jumpi\n      dup1\n      dup3\n      add\n      mload\n      dup2\n      dup5\n      add\n      mstore\n      0x20\n      dup2\n      add\n      swap1\n      pop\n      jump(tag_231)\n    tag_233:\n      pop\n      pop\n      pop\n      pop\n      swap1\n      pop\n      swap1\n      dup2\n      add\n      swap1\n      0x1f\n      and\n      dup1\n      iszero\n      tag_234\n      jumpi\n      dup1\n      dup3\n      sub\n      dup1\n      mload\n      0x01\n      dup4\n      0x20\n      sub\n      0x0100\n      exp\n      sub\n      not\n      and\n      dup2\n      mstore\n      0x20\n      add\n      swap2\n      pop\n    tag_234:\n      pop\n      swap3\n      pop\n      pop\n      pop\n      mload(0x40)\n      dup1\n      swap2\n      sub\n      swap1\n      return\n        /* \"saf.sol\":22842:23408  function withdrawAllToTreasury() external swapping onlyOwner {\r... */\n    tag_48:\n      callvalue\n      dup1\n      iszero\n      tag_235\n      jumpi\n      0x00\n      dup1\n      revert\n    tag_235:\n      pop\n      tag_236\n      tag_237\n      jump\t// in\n    tag_236:\n      stop\n        /* \"saf.sol\":13559:13595  address public autoLiquidityReceiver */\n    tag_49:\n      callvalue\n      dup1\n      iszero\n      tag_238\n      jumpi\n      0x00\n      dup1\n      revert\n    tag_238:\n      pop\n      tag_239\n      tag_240\n      jump\t// in\n    tag_239:\n      mload(0x40)\n      dup1\n      dup3\n      0xffffffffffffffffffffffffffffffffffffffff\n      and\n      dup2\n      mstore\n      0x20\n      add\n      swap2\n      pop\n      pop\n      mload(0x40)\n      dup1\n      swap2\n      sub\n      swap1\n      return\n        /* \"saf.sol\":13089:13120  uint256 public treasuryFee = 25 */\n    tag_50:\n      callvalue\n      dup1\n      iszero\n      tag_241\n      jumpi\n      0x00\n      dup1\n      revert\n    tag_241:\n      pop\n      tag_242\n      tag_243\n      jump\t// in\n    tag_242:\n      mload(0x40)\n      dup1\n      dup3\n      dup2\n      mstore\n      0x20\n      add\n      swap2\n      pop\n      pop\n      mload(0x40)\n      dup1\n      swap2\n      sub\n      swap1\n      return\n        /* \"saf.sol\":24558:24810  function setAutoAddLiquidity(bool _flag) external onlyOwner {\r... */\n    tag_51:\n      callvalue\n      dup1\n      iszero\n      tag_244\n      jumpi\n      0x00\n      dup1\n      revert\n    tag_244:\n      pop\n      tag_245\n      0x04\n      dup1\n      calldatasize\n      sub\n      0x20\n      dup2\n      lt\n      iszero\n      tag_246\n      jumpi\n      0x00\n      dup1\n      revert\n    tag_246:\n      dup2\n      add\n      swap1\n      dup1\n      dup1\n      calldataload\n      iszero\n      iszero\n      swap1\n      0x20\n      add\n      swap1\n      swap3\n      swap2\n      swap1\n      pop\n      pop\n      pop\n      tag_247\n      jump\t// in\n    tag_245:\n      stop\n        /* \"saf.sol\":12507:12536  string public _name = \"Safuu\" */\n    tag_52:\n      callvalue\n      dup1\n      iszero\n      tag_248\n      jumpi\n      0x00\n      dup1\n      revert\n    tag_248:\n      pop\n      tag_249\n      tag_250\n      jump\t// in\n    tag_249:\n      mload(0x40)\n      dup1\n      dup1\n      0x20\n      add\n      dup3\n      dup2\n      sub\n      dup3\n      mstore\n      dup4\n      dup2\n      dup2\n      mload\n      dup2\n      mstore\n      0x20\n      add\n      swap2\n      pop\n      dup1\n      mload\n      swap1\n      0x20\n      add\n      swap1\n      dup1\n      dup4\n      dup4\n      0x00\n    tag_251:\n      dup4\n      dup2\n      lt\n      iszero\n      tag_253\n      jumpi\n      dup1\n      dup3\n      add\n      mload\n      dup2\n      dup5\n      add\n      mstore\n      0x20\n      dup2\n      add\n      swap1\n      pop\n      jump(tag_251)\n    tag_253:\n      pop\n      pop\n      pop\n      pop\n      swap1\n      pop\n      swap1\n      dup2\n      add\n      swap1\n      0x1f\n      and\n      dup1\n      iszero\n      tag_254\n      jumpi\n      dup1\n      dup3\n      sub\n      dup1\n      mload\n      0x01\n      dup4\n      0x20\n      sub\n      0x0100\n      exp\n      sub\n      not\n      and\n      dup2\n      mstore\n      0x20\n      add\n      swap2\n      pop\n    tag_254:\n      pop\n      swap3\n      pop\n      pop\n      pop\n      mload(0x40)\n      dup1\n      swap2\n      sub\n      swap1\n      return\n        /* \"saf.sol\":26299:26412  function checkFeeExempt(address _addr) external view returns (bool) {\r... */\n    tag_53:\n      callvalue\n      dup1\n      iszero\n      tag_255\n      jumpi\n      0x00\n      dup1\n      revert\n    tag_255:\n      pop\n      tag_256\n      0x04\n      dup1\n      calldatasize\n      sub\n      0x20\n      dup2\n      lt\n      iszero\n      tag_257\n      jumpi\n      0x00\n      dup1\n      revert\n    tag_257:\n      dup2\n      add\n      swap1\n      dup1\n      dup1\n      calldataload\n      0xffffffffffffffffffffffffffffffffffffffff\n      and\n      swap1\n      0x20\n      add\n      swap1\n      swap3\n      swap2\n      swap1\n      pop\n      pop\n      pop\n      tag_258\n      jump\t// in\n    tag_256:\n      mload(0x40)\n      dup1\n      dup3\n      iszero\n      iszero\n      dup2\n      mstore\n      0x20\n      add\n      swap2\n      pop\n      pop\n      mload(0x40)\n      dup1\n      swap2\n      sub\n      swap1\n      return\n        /* \"saf.sol\":27240:27531  function getLiquidityBacking(uint256 accuracy)\r... */\n    tag_54:\n      callvalue\n      dup1\n      iszero\n      tag_259\n      jumpi\n      0x00\n      dup1\n      revert\n    tag_259:\n      pop\n      tag_260\n      0x04\n      dup1\n      calldatasize\n      sub\n      0x20\n      dup2\n      lt\n      iszero\n      tag_261\n      jumpi\n      0x00\n      dup1\n      revert\n    tag_261:\n      dup2\n      add\n      swap1\n      dup1\n      dup1\n      calldataload\n      swap1\n      0x20\n      add\n      swap1\n      swap3\n      swap2\n      swap1\n      pop\n      pop\n      pop\n      tag_262\n      jump\t// in\n    tag_260:\n      mload(0x40)\n      dup1\n      dup3\n      dup2\n      mstore\n      0x20\n      add\n      swap2\n      pop\n      pop\n      mload(0x40)\n      dup1\n      swap2\n      sub\n      swap1\n      return\n        /* \"saf.sol\":24818:25012  function allowance(address owner_, address spender)\r... */\n    tag_55:\n      callvalue\n      dup1\n      iszero\n      tag_263\n      jumpi\n      0x00\n      dup1\n      revert\n    tag_263:\n      pop\n      tag_264\n      0x04\n      dup1\n      calldatasize\n      sub\n      0x40\n      dup2\n      lt\n      iszero\n      tag_265\n      jumpi\n      0x00\n      dup1\n      revert\n    tag_265:\n      dup2\n      add\n      swap1\n      dup1\n      dup1\n      calldataload\n      0xffffffffffffffffffffffffffffffffffffffff\n      and\n      swap1\n      0x20\n      add\n      swap1\n      swap3\n      swap2\n      swap1\n      dup1\n      calldataload\n      0xffffffffffffffffffffffffffffffffffffffff\n      and\n      swap1\n      0x20\n      add\n      swap1\n      swap3\n      swap2\n      swap1\n      pop\n      pop\n      pop\n      tag_266\n      jump\t// in\n    tag_264:\n      mload(0x40)\n      dup1\n      dup3\n      dup2\n      mstore\n      0x20\n      add\n      swap2\n      pop\n      pop\n      mload(0x40)\n      dup1\n      swap2\n      sub\n      swap1\n      return\n        /* \"saf.sol\":24320:24550  function setAutoRebase(bool _flag) external onlyOwner {\r... */\n    tag_56:\n      callvalue\n      dup1\n      iszero\n      tag_267\n      jumpi\n      0x00\n      dup1\n      revert\n    tag_267:\n      pop\n      tag_268\n      0x04\n      dup1\n      calldatasize\n      sub\n      0x20\n      dup2\n      lt\n      iszero\n      tag_269\n      jumpi\n      0x00\n      dup1\n      revert\n    tag_269:\n      dup2\n      add\n      swap1\n      dup1\n      dup1\n      calldataload\n      iszero\n      iszero\n      swap1\n      0x20\n      add\n      swap1\n      swap3\n      swap2\n      swap1\n      pop\n      pop\n      pop\n      tag_270\n      jump\t// in\n    tag_268:\n      stop\n        /* \"saf.sol\":11388:11497  function transferOwnership(address newOwner) public onlyOwner {\r... */\n    tag_57:\n      callvalue\n      dup1\n      iszero\n      tag_271\n      jumpi\n      0x00\n      dup1\n      revert\n    tag_271:\n      pop\n      tag_272\n      0x04\n      dup1\n      calldatasize\n      sub\n      0x20\n      dup2\n      lt\n      iszero\n      tag_273\n      jumpi\n      0x00\n      dup1\n      revert\n    tag_273:\n      dup2\n      add\n      swap1\n      dup1\n      dup1\n      calldataload\n      0xffffffffffffffffffffffffffffffffffffffff\n      and\n      swap1\n      0x20\n      add\n      swap1\n      swap3\n      swap2\n      swap1\n      pop\n      pop\n      pop\n      tag_274\n      jump\t// in\n    tag_272:\n      stop\n        /* \"saf.sol\":13787:13819  IPancakeSwapRouter public router */\n    tag_58:\n      callvalue\n      dup1\n      iszero\n      tag_275\n      jumpi\n      0x00\n      dup1\n      revert\n    tag_275:\n      pop\n      tag_276\n      tag_277\n      jump\t// in\n    tag_276:\n      mload(0x40)\n      dup1\n      dup3\n      0xffffffffffffffffffffffffffffffffffffffff\n      and\n      dup2\n      mstore\n      0x20\n      add\n      swap2\n      pop\n      pop\n      mload(0x40)\n      dup1\n      swap2\n      sub\n      swap1\n      return\n        /* \"saf.sol\":14557:14598  mapping(address => bool) public blacklist */\n    tag_59:\n      callvalue\n      dup1\n      iszero\n      tag_278\n      jumpi\n      0x00\n      dup1\n      revert\n    tag_278:\n      pop\n      tag_279\n      0x04\n      dup1\n      calldatasize\n      sub\n      0x20\n      dup2\n      lt\n      iszero\n      tag_280\n      jumpi\n      0x00\n      dup1\n      revert\n    tag_280:\n      dup2\n      add\n      swap1\n      dup1\n      dup1\n      calldataload\n      0xffffffffffffffffffffffffffffffffffffffff\n      and\n      swap1\n      0x20\n      add\n      swap1\n      swap3\n      swap2\n      swap1\n      pop\n      pop\n      pop\n      tag_281\n      jump\t// in\n    tag_279:\n      mload(0x40)\n      dup1\n      dup3\n      iszero\n      iszero\n      dup2\n      mstore\n      0x20\n      add\n      swap2\n      pop\n      pop\n      mload(0x40)\n      dup1\n      swap2\n      sub\n      swap1\n      return\n        /* \"saf.sol\":12043:12126  function name() public view returns (string memory) {\r... */\n    tag_79:\n        /* \"saf.sol\":12080:12093  string memory */\n      0x60\n        /* \"saf.sol\":12113:12118  _name */\n      0x00\n        /* \"saf.sol\":12106:12118  return _name */\n      dup1\n      sload\n      0x01\n      dup2\n      0x01\n      and\n      iszero\n      0x0100\n      mul\n      sub\n      and\n      0x02\n      swap1\n      div\n      dup1\n      0x1f\n      add\n      0x20\n      dup1\n      swap2\n      div\n      mul\n      0x20\n      add\n      mload(0x40)\n      swap1\n      dup2\n      add\n      0x40\n      mstore\n      dup1\n      swap3\n      swap2\n      swap1\n      dup2\n      dup2\n      mstore\n      0x20\n      add\n      dup3\n      dup1\n      sload\n      0x01\n      dup2\n      0x01\n      and\n      iszero\n      0x0100\n      mul\n      sub\n      and\n      0x02\n      swap1\n      div\n      dup1\n      iszero\n      tag_285\n      jumpi\n      dup1\n      0x1f\n      lt\n      tag_286\n      jumpi\n      0x0100\n      dup1\n      dup4\n      sload\n      div\n      mul\n      dup4\n      mstore\n      swap2\n      0x20\n      add\n      swap2\n      jump(tag_285)\n    tag_286:\n      dup3\n      add\n      swap2\n      swap1\n      0x00\n      mstore\n      keccak256(0x00, 0x20)\n      swap1\n    tag_287:\n      dup2\n      sload\n      dup2\n      mstore\n      swap1\n      0x01\n      add\n      swap1\n      0x20\n      add\n      dup1\n      dup4\n      gt\n      tag_287\n      jumpi\n      dup3\n      swap1\n      sub\n      0x1f\n      and\n      dup3\n      add\n      swap2\n    tag_285:\n      pop\n      pop\n      pop\n      pop\n      pop\n      swap1\n      pop\n        /* \"saf.sol\":12043:12126  function name() public view returns (string memory) {\r... */\n      swap1\n      jump\t// out\n        /* \"saf.sol\":13602:13633  address public treasuryReceiver */\n    tag_86:\n      0x11\n      0x00\n      swap1\n      sload\n      swap1\n      0x0100\n      exp\n      swap1\n      div\n      0xffffffffffffffffffffffffffffffffffffffff\n      and\n      dup2\n      jump\t// out\n        /* \"saf.sol\":26038:26291  function approve(address spender, uint256 value)\r... */\n    tag_90:\n        /* \"saf.sol\":26141:26145  bool */\n      0x00\n        /* \"saf.sol\":26204:26209  value */\n      dup2\n        /* \"saf.sol\":26163:26180  _allowedFragments */\n      0x1d\n        /* \"saf.sol\":26163:26192  _allowedFragments[msg.sender] */\n      0x00\n        /* \"saf.sol\":26181:26191  msg.sender */\n      caller\n        /* \"saf.sol\":26163:26192  _allowedFragments[msg.sender] */\n      0xffffffffffffffffffffffffffffffffffffffff\n      and\n      0xffffffffffffffffffffffffffffffffffffffff\n      and\n      dup2\n      mstore\n      0x20\n      add\n      swap1\n      dup2\n      mstore\n      0x20\n      add\n      0x00\n      keccak256\n        /* \"saf.sol\":26163:26201  _allowedFragments[msg.sender][spender] */\n      0x00\n        /* \"saf.sol\":26193:26200  spender */\n      dup6\n        /* \"saf.sol\":26163:26201  _allowedFragments[msg.sender][spender] */\n      0xffffffffffffffffffffffffffffffffffffffff\n      and\n      0xffffffffffffffffffffffffffffffffffffffff\n      and\n      dup2\n      mstore\n      0x20\n      add\n      swap1\n      dup2\n      mstore\n      0x20\n      add\n      0x00\n      keccak256\n        /* \"saf.sol\":26163:26209  _allowedFragments[msg.sender][spender] = value */\n      dup2\n      swap1\n      sstore\n      pop\n        /* \"saf.sol\":26246:26253  spender */\n      dup3\n        /* \"saf.sol\":26225:26261  Approval(msg.sender, spender, value) */\n      0xffffffffffffffffffffffffffffffffffffffff\n      and\n        /* \"saf.sol\":26234:26244  msg.sender */\n      caller\n        /* \"saf.sol\":26225:26261  Approval(msg.sender, spender, value) */\n      0xffffffffffffffffffffffffffffffffffffffff\n      and\n      0x8c5be1e5ebec7d5bd14f71427d1e84f3dd0314c0f7b2291e5b200ac8c7c3b925\n        /* \"saf.sol\":26255:26260  value */\n      dup5\n        /* \"saf.sol\":26225:26261  Approval(msg.sender, spender, value) */\n      mload(0x40)\n      dup1\n      dup3\n      dup2\n      mstore\n      0x20\n      add\n      swap2\n      pop\n      pop\n      mload(0x40)\n      dup1\n      swap2\n      sub\n      swap1\n      log3\n        /* \"saf.sol\":26279:26283  true */\n      0x01\n        /* \"saf.sol\":26272:26283  return true */\n      swap1\n      pop\n        /* \"saf.sol\":26038:26291  function approve(address spender, uint256 value)\r... */\n      swap3\n      swap2\n      pop\n      pop\n      jump\t// out\n        /* \"saf.sol\":13384:13420  uint256 public feeDenominator = 1000 */\n    tag_93:\n      sload(0x0d)\n      dup2\n      jump\t// out\n        /* \"saf.sol\":28136:28238  function totalSupply() external view override returns (uint256) {\r... */\n    tag_96:\n        /* \"saf.sol\":28191:28198  uint256 */\n      0x00\n        /* \"saf.sol\":28218:28230  _totalSupply */\n      sload(0x1a)\n        /* \"saf.sol\":28211:28230  return _totalSupply */\n      swap1\n      pop\n        /* \"saf.sol\":28136:28238  function totalSupply() external view override returns (uint256) {\r... */\n      swap1\n      jump\t// out\n        /* \"saf.sol\":13246:13377  uint256 public totalFee =\r... */\n    tag_99:\n      sload(0x0c)\n      dup2\n      jump\t// out\n        /* \"saf.sol\":17252:17717  function transferFrom(\r... */\n    tag_103:\n        /* \"saf.sol\":17395:17399  bool */\n      0x00\n        /* \"saf.sol\":17382:17384  to */\n      dup3\n        /* \"saf.sol\":12774:12777  0x0 */\n      0x00\n        /* \"saf.sol\":12760:12778  to != address(0x0) */\n      0xffffffffffffffffffffffffffffffffffffffff\n      and\n        /* \"saf.sol\":12760:12762  to */\n      dup2\n        /* \"saf.sol\":12760:12778  to != address(0x0) */\n      0xffffffffffffffffffffffffffffffffffffffff\n      and\n      eq\n      iszero\n        /* \"saf.sol\":12752:12779  require(to != address(0x0)) */\n      tag_291\n      jumpi\n      0x00\n      dup1\n      revert\n    tag_291:\n        /* \"saf.sol\":17473:17475  -1 */\n      0xffffffffffffffffffffffffffffffffffffffffffffffffffffffffffffffff\n        /* \"saf.sol\":17426:17443  _allowedFragments */\n      0x1d\n        /* \"saf.sol\":17426:17449  _allowedFragments[from] */\n      0x00\n        /* \"saf.sol\":17444:17448  from */\n      dup8\n        /* \"saf.sol\":17426:17449  _allowedFragments[from] */\n      0xffffffffffffffffffffffffffffffffffffffff\n      and\n      0xffffffffffffffffffffffffffffffffffffffff\n      and\n      dup2\n      mstore\n      0x20\n      add\n      swap1\n      dup2\n      mstore\n      0x20\n      add\n      0x00\n      keccak256\n        /* \"saf.sol\":17426:17461  _allowedFragments[from][msg.sender] */\n      0x00\n        /* \"saf.sol\":17450:17460  msg.sender */\n      caller\n        /* \"saf.sol\":17426:17461  _allowedFragments[from][msg.sender] */\n      0xffffffffffffffffffffffffffffffffffffffff\n      and\n      0xffffffffffffffffffffffffffffffffffffffff\n      and\n      dup2\n      mstore\n      0x20\n      add\n      swap1\n      dup2\n      mstore\n      0x20\n      add\n      0x00\n      keccak256\n      sload\n        /* \"saf.sol\":17426:17476  _allowedFragments[from][msg.sender] != uint256(-1) */\n      eq\n        /* \"saf.sol\":17422:17647  if (_allowedFragments[from][msg.sender] != uint256(-1)) {\r... */\n      tag_293\n      jumpi\n        /* \"saf.sol\":17531:17635  _allowedFragments[from][\r... */\n      tag_294\n        /* \"saf.sol\":17603:17608  value */\n      dup4\n        /* \"saf.sol\":17531:17635  _allowedFragments[from][\r... */\n      mload(0x40)\n      dup1\n      0x40\n      add\n      0x40\n      mstore\n      dup1\n      0x16\n      dup2\n      mstore\n      0x20\n      add\n      0x496e73756666696369656e7420416c6c6f77616e636500000000000000000000\n      dup2\n      mstore\n      pop\n        /* \"saf.sol\":17531:17548  _allowedFragments */\n      0x1d\n        /* \"saf.sol\":17531:17554  _allowedFragments[from] */\n      0x00\n        /* \"saf.sol\":17549:17553  from */\n      dup10\n        /* \"saf.sol\":17531:17554  _allowedFragments[from] */\n      0xffffffffffffffffffffffffffffffffffffffff\n      and\n      0xffffffffffffffffffffffffffffffffffffffff\n      and\n      dup2\n      mstore\n      0x20\n      add\n      swap1\n      dup2\n      mstore\n      0x20\n      add\n      0x00\n      keccak256\n        /* \"saf.sol\":17531:17598  _allowedFragments[from][\r... */\n      0x00\n        /* \"saf.sol\":17573:17583  msg.sender */\n      caller\n        /* \"saf.sol\":17531:17598  _allowedFragments[from][\r... */\n      0xffffffffffffffffffffffffffffffffffffffff\n      and\n      0xffffffffffffffffffffffffffffffffffffffff\n      and\n      dup2\n      mstore\n      0x20\n      add\n      swap1\n      dup2\n      mstore\n      0x20\n      add\n      0x00\n      keccak256\n      sload\n        /* \"saf.sol\":17531:17602  _allowedFragments[from][\r... */\n      tag_295\n      swap1\n        /* \"saf.sol\":17531:17635  _allowedFragments[from][\r... */\n      swap3\n      swap2\n      swap1\n      0xffffffff\n      and\n      jump\t// in\n    tag_294:\n        /* \"saf.sol\":17493:17510  _allowedFragments */\n      0x1d\n        /* \"saf.sol\":17493:17516  _allowedFragments[from] */\n      0x00\n        /* \"saf.sol\":17511:17515  from */\n      dup8\n        /* \"saf.sol\":17493:17516  _allowedFragments[from] */\n      0xffffffffffffffffffffffffffffffffffffffff\n      and\n      0xffffffffffffffffffffffffffffffffffffffff\n      and\n      dup2\n      mstore\n      0x20\n      add\n      swap1\n      dup2\n      mstore\n      0x20\n      add\n      0x00\n      keccak256\n        /* \"saf.sol\":17493:17528  _allowedFragments[from][msg.sender] */\n      0x00\n        /* \"saf.sol\":17517:17527  msg.sender */\n      caller\n        /* \"saf.sol\":17493:17528  _allowedFragments[from][msg.sender] */\n      0xffffffffffffffffffffffffffffffffffffffff\n      and\n      0xffffffffffffffffffffffffffffffffffffffff\n      and\n      dup2\n      mstore\n      0x20\n      add\n      swap1\n      dup2\n      mstore\n      0x20\n      add\n      0x00\n      keccak256\n        /* \"saf.sol\":17493:17635  _allowedFragments[from][msg.sender] = _allowedFragments[from][\r... */\n      dup2\n      swap1\n      sstore\n      pop\n        /* \"saf.sol\":17422:17647  if (_allowedFragments[from][msg.sender] != uint256(-1)) {\r... */\n    tag_293:\n        /* \"saf.sol\":17657:17687  _transferFrom(from, to, value) */\n      tag_296\n        /* \"saf.sol\":17671:17675  from */\n      dup6\n        /* \"saf.sol\":17677:17679  to */\n      dup6\n        /* \"saf.sol\":17681:17686  value */\n      dup6\n        /* \"saf.sol\":17657:17670  _transferFrom */\n      tag_297\n        /* \"saf.sol\":17657:17687  _transferFrom(from, to, value) */\n      jump\t// in\n    tag_296:\n      pop\n        /* \"saf.sol\":17705:17709  true */\n      0x01\n        /* \"saf.sol\":17698:17709  return true */\n      swap2\n      pop\n        /* \"saf.sol\":17252:17717  function transferFrom(\r... */\n      pop\n      swap4\n      swap3\n      pop\n      pop\n      pop\n      jump\t// out\n        /* \"saf.sol\":26420:26635  function getCirculatingSupply() public view returns (uint256) {\r... */\n    tag_106:\n        /* \"saf.sol\":26473:26480  uint256 */\n      0x00\n        /* \"saf.sol\":26513:26627  (TOTAL_GONS.sub(_gonBalances[DEAD]).sub(_gonBalances[ZERO])).div(\r... */\n      tag_299\n        /* \"saf.sol\":26596:26612  _gonsPerFragment */\n      sload(0x1b)\n        /* \"saf.sol\":26514:26572  TOTAL_GONS.sub(_gonBalances[DEAD]).sub(_gonBalances[ZERO]) */\n      tag_300\n        /* \"saf.sol\":26553:26565  _gonBalances */\n      0x1c\n        /* \"saf.sol\":26553:26571  _gonBalances[ZERO] */\n      0x00\n        /* \"saf.sol\":26566:26570  ZERO */\n      0x0f\n      0x00\n      swap1\n      sload\n      swap1\n      0x0100\n      exp\n      swap1\n      div\n      0xffffffffffffffffffffffffffffffffffffffff\n      and\n        /* \"saf.sol\":26553:26571  _gonBalances[ZERO] */\n      0xffffffffffffffffffffffffffffffffffffffff\n      and\n      0xffffffffffffffffffffffffffffffffffffffff\n      and\n      dup2\n      mstore\n      0x20\n      add\n      swap1\n      dup2\n      mstore\n      0x20\n      add\n      0x00\n      keccak256\n      sload\n        /* \"saf.sol\":26514:26548  TOTAL_GONS.sub(_gonBalances[DEAD]) */\n      tag_301\n        /* \"saf.sol\":26529:26541  _gonBalances */\n      0x1c\n        /* \"saf.sol\":26529:26547  _gonBalances[DEAD] */\n      0x00\n        /* \"saf.sol\":26542:26546  DEAD */\n      0x0e\n      0x00\n      swap1\n      sload\n      swap1\n      0x0100\n      exp\n      swap1\n      div\n      0xffffffffffffffffffffffffffffffffffffffff\n      and\n        /* \"saf.sol\":26529:26547  _gonBalances[DEAD] */\n      0xffffffffffffffffffffffffffffffffffffffff\n      and\n      0xffffffffffffffffffffffffffffffffffffffff\n      and\n      dup2\n      mstore\n      0x20\n      add\n      swap1\n      dup2\n      mstore\n      0x20\n      add\n      0x00\n      keccak256\n      sload\n        /* \"saf.sol\":12842:12843  5 */\n      0x05\n        /* \"saf.sol\":13029:13031  10 */\n      0x0a\n        /* \"saf.sol\":13029:13041  10**DECIMALS */\n      exp\n        /* \"saf.sol\":13015:13026  325 * 10**3 */\n      0x04f588\n        /* \"saf.sol\":13015:13041  325 * 10**3 * 10**DECIMALS */\n      mul\n        /* \"saf.sol\":12897:12898  0 */\n      0x00\n        /* \"saf.sol\":12888:12899  ~uint256(0) */\n      not\n        /* \"saf.sol\":14037:14075  MAX_UINT256 % INITIAL_FRAGMENTS_SUPPLY */\n      dup2\n      tag_302\n      jumpi\n      invalid\n    tag_302:\n      mod\n        /* \"saf.sol\":12897:12898  0 */\n      0x00\n        /* \"saf.sol\":12888:12899  ~uint256(0) */\n      not\n        /* \"saf.sol\":14022:14076  MAX_UINT256 - (MAX_UINT256 % INITIAL_FRAGMENTS_SUPPLY) */\n      sub\n        /* \"saf.sol\":26514:26528  TOTAL_GONS.sub */\n      tag_303\n      swap1\n        /* \"saf.sol\":26514:26548  TOTAL_GONS.sub(_gonBalances[DEAD]) */\n      swap2\n      swap1\n      0xffffffff\n      and\n      jump\t// in\n    tag_301:\n        /* \"saf.sol\":26514:26552  TOTAL_GONS.sub(_gonBalances[DEAD]).sub */\n      tag_303\n      swap1\n        /* \"saf.sol\":26514:26572  TOTAL_GONS.sub(_gonBalances[DEAD]).sub(_gonBalances[ZERO]) */\n      swap2\n      swap1\n      0xffffffff\n      and\n      jump\t// in\n    tag_300:\n        /* \"saf.sol\":26513:26577  (TOTAL_GONS.sub(_gonBalances[DEAD]).sub(_gonBalances[ZERO])).div */\n      tag_283\n      swap1\n        /* \"saf.sol\":26513:26627  (TOTAL_GONS.sub(_gonBalances[DEAD]).sub(_gonBalances[ZERO])).div(\r... */\n      swap2\n      swap1\n      0xffffffff\n      and\n      jump\t// in\n    tag_299:\n        /* \"saf.sol\":26493:26627  return\r... */\n      swap1\n      pop\n        /* \"saf.sol\":26420:26635  function getCirculatingSupply() public view returns (uint256) {\r... */\n      swap1\n      jump\t// out\n        /* \"saf.sol\":13175:13202  uint256 public sellFee = 20 */\n    tag_109:\n      sload(0x0a)\n      dup2\n      jump\t// out\n        /* \"saf.sol\":12807:12843  uint256 public constant DECIMALS = 5 */\n    tag_112:\n        /* \"saf.sol\":12842:12843  5 */\n      0x05\n        /* \"saf.sol\":12807:12843  uint256 public constant DECIMALS = 5 */\n      dup2\n      jump\t// out\n        /* \"saf.sol\":28012:28124  function setLP(address _address) external onlyOwner {\r... */\n    tag_116:\n        /* \"saf.sol\":11116:11125  isOwner() */\n      tag_305\n        /* \"saf.sol\":11116:11123  isOwner */\n      tag_187\n        /* \"saf.sol\":11116:11125  isOwner() */\n      jump\t// in\n    tag_305:\n        /* \"saf.sol\":11108:11126  require(isOwner()) */\n      tag_306\n      jumpi\n      0x00\n      dup1\n      revert\n    tag_306:\n        /* \"saf.sol\":28107:28115  _address */\n      dup1\n        /* \"saf.sol\":28075:28087  pairContract */\n      0x05\n      0x01\n        /* \"saf.sol\":28075:28116  pairContract = IPancakeSwapPair(_address) */\n      0x0100\n      exp\n      dup2\n      sload\n      dup2\n      0xffffffffffffffffffffffffffffffffffffffff\n      mul\n      not\n      and\n      swap1\n      dup4\n      0xffffffffffffffffffffffffffffffffffffffff\n      and\n      mul\n      or\n      swap1\n      sstore\n      pop\n        /* \"saf.sol\":28012:28124  function setLP(address _address) external onlyOwner {\r... */\n      pop\n      jump\t// out\n        /* \"saf.sol\":12229:12312  function decimals() public view returns (uint8) {\r... */\n    tag_119:\n        /* \"saf.sol\":12270:12275  uint8 */\n      0x00\n        /* \"saf.sol\":12295:12304  _decimals */\n      0x02\n      0x00\n      swap1\n      sload\n      swap1\n      0x0100\n      exp\n      swap1\n      div\n      0xff\n      and\n        /* \"saf.sol\":12288:12304  return _decimals */\n      swap1\n      pop\n        /* \"saf.sol\":12229:12312  function decimals() public view returns (uint8) {\r... */\n      swap1\n      jump\t// out\n        /* \"saf.sol\":12581:12607  uint8 public _decimals = 5 */\n    tag_122:\n      0x05\n      0x00\n      swap1\n      sload\n      swap1\n      0x0100\n      exp\n      swap1\n      div\n      0xff\n      and\n      dup2\n      jump\t// out\n        /* \"saf.sol\":14266:14297  uint256 public _lastRebasedTime */\n    tag_125:\n      sload(0x18)\n      dup2\n      jump\t// out\n        /* \"saf.sol\":12850:12899  uint256 public constant MAX_UINT256 = ~uint256(0) */\n    tag_128:\n        /* \"saf.sol\":12897:12898  0 */\n      0x00\n        /* \"saf.sol\":12888:12899  ~uint256(0) */\n      not\n        /* \"saf.sol\":12850:12899  uint256 public constant MAX_UINT256 = ~uint256(0) */\n      dup2\n      jump\t// out\n        /* \"saf.sol\":27648:27884  function setBotBlacklist(address _botAddress, bool _flag) external onlyOwner {\r... */\n    tag_132:\n        /* \"saf.sol\":11116:11125  isOwner() */\n      tag_310\n        /* \"saf.sol\":11116:11123  isOwner */\n      tag_187\n        /* \"saf.sol\":11116:11125  isOwner() */\n      jump\t// in\n    tag_310:\n        /* \"saf.sol\":11108:11126  require(isOwner()) */\n      tag_311\n      jumpi\n      0x00\n      dup1\n      revert\n    tag_311:\n        /* \"saf.sol\":27744:27767  isContract(_botAddress) */\n      tag_313\n        /* \"saf.sol\":27755:27766  _botAddress */\n      dup3\n        /* \"saf.sol\":27744:27754  isContract */\n      tag_314\n        /* \"saf.sol\":27744:27767  isContract(_botAddress) */\n      jump\t// in\n    tag_313:\n        /* \"saf.sol\":27736:27831  require(isContract(_botAddress), \"only contract address, not allowed exteranlly owned account\") */\n      tag_315\n      jumpi\n      mload(0x40)\n      0x08c379a000000000000000000000000000000000000000000000000000000000\n      dup2\n      mstore\n      0x04\n      add\n      dup1\n      dup1\n      0x20\n      add\n      dup3\n      dup2\n      sub\n      dup3\n      mstore\n      0x3b\n      dup2\n      mstore\n      0x20\n      add\n      dup1\n      data_a9fc452bf136d05a2ea42cd97645774b862952c28b211935b1074bbb4b1bbfcc\n      0x3b\n      swap2\n      codecopy\n      0x40\n      add\n      swap2\n      pop\n      pop\n      mload(0x40)\n      dup1\n      swap2\n      sub\n      swap1\n      revert\n    tag_315:\n        /* \"saf.sol\":27867:27872  _flag */\n      dup1\n        /* \"saf.sol\":27842:27851  blacklist */\n      0x1e\n        /* \"saf.sol\":27842:27864  blacklist[_botAddress] */\n      0x00\n        /* \"saf.sol\":27852:27863  _botAddress */\n      dup5\n        /* \"saf.sol\":27842:27864  blacklist[_botAddress] */\n      0xffffffffffffffffffffffffffffffffffffffff\n      and\n      0xffffffffffffffffffffffffffffffffffffffff\n      and\n      dup2\n      mstore\n      0x20\n      add\n      swap1\n      dup2\n      mstore\n      0x20\n      add\n      0x00\n      keccak256\n      0x00\n        /* \"saf.sol\":27842:27872  blacklist[_botAddress] = _flag */\n      0x0100\n      exp\n      dup2\n      sload\n      dup2\n      0xff\n      mul\n      not\n      and\n      swap1\n      dup4\n      iszero\n      iszero\n      mul\n      or\n      swap1\n      sstore\n      pop\n        /* \"saf.sol\":27648:27884  function setBotBlacklist(address _botAddress, bool _flag) external onlyOwner {\r... */\n      pop\n      pop\n      jump\t// out\n        /* \"saf.sol\":25624:26030  function increaseAllowance(address spender, uint256 addedValue)\r... */\n    tag_136:\n        /* \"saf.sol\":25724:25728  bool */\n      0x00\n        /* \"saf.sol\":25787:25865  _allowedFragments[msg.sender][\r... */\n      tag_317\n        /* \"saf.sol\":25854:25864  addedValue */\n      dup3\n        /* \"saf.sol\":25787:25804  _allowedFragments */\n      0x1d\n        /* \"saf.sol\":25787:25816  _allowedFragments[msg.sender] */\n      0x00\n        /* \"saf.sol\":25805:25815  msg.sender */\n      caller\n        /* \"saf.sol\":25787:25816  _allowedFragments[msg.sender] */\n      0xffffffffffffffffffffffffffffffffffffffff\n      and\n      0xffffffffffffffffffffffffffffffffffffffff\n      and\n      dup2\n      mstore\n      0x20\n      add\n      swap1\n      dup2\n      mstore\n      0x20\n      add\n      0x00\n      keccak256\n        /* \"saf.sol\":25787:25849  _allowedFragments[msg.sender][\r... */\n      0x00\n        /* \"saf.sol\":25831:25838  spender */\n      dup7\n        /* \"saf.sol\":25787:25849  _allowedFragments[msg.sender][\r... */\n      0xffffffffffffffffffffffffffffffffffffffff\n      and\n      0xffffffffffffffffffffffffffffffffffffffff\n      and\n      dup2\n      mstore\n      0x20\n      add\n      swap1\n      dup2\n      mstore\n      0x20\n      add\n      0x00\n      keccak256\n      sload\n        /* \"saf.sol\":25787:25853  _allowedFragments[msg.sender][\r... */\n      tag_282\n      swap1\n        /* \"saf.sol\":25787:25865  _allowedFragments[msg.sender][\r... */\n      swap2\n      swap1\n      0xffffffff\n      and\n      jump\t// in\n    tag_317:\n        /* \"saf.sol\":25746:25763  _allowedFragments */\n      0x1d\n        /* \"saf.sol\":25746:25775  _allowedFragments[msg.sender] */\n      0x00\n        /* \"saf.sol\":25764:25774  msg.sender */\n      caller\n        /* \"saf.sol\":25746:25775  _allowedFragments[msg.sender] */\n      0xffffffffffffffffffffffffffffffffffffffff\n      and\n      0xffffffffffffffffffffffffffffffffffffffff\n      and\n      dup2\n      mstore\n      0x20\n      add\n      swap1\n      dup2\n      mstore\n      0x20\n      add\n      0x00\n      keccak256\n        /* \"saf.sol\":25746:25784  _allowedFragments[msg.sender][spender] */\n      0x00\n        /* \"saf.sol\":25776:25783  spender */\n      dup6\n        /* \"saf.sol\":25746:25784  _allowedFragments[msg.sender][spender] */\n      0xffffffffffffffffffffffffffffffffffffffff\n      and\n      0xffffffffffffffffffffffffffffffffffffffff\n      and\n      dup2\n      mstore\n      0x20\n      add\n      swap1\n      dup2\n      mstore\n      0x20\n      add\n      0x00\n      keccak256\n        /* \"saf.sol\":25746:25865  _allowedFragments[msg.sender][spender] = _allowedFragments[msg.sender][\r... */\n      dup2\n      swap1\n      sstore\n      pop\n        /* \"saf.sol\":25929:25936  spender */\n      dup3\n        /* \"saf.sol\":25881:26000  Approval(\r... */\n      0xffffffffffffffffffffffffffffffffffffffff\n      and\n        /* \"saf.sol\":25904:25914  msg.sender */\n      caller\n        /* \"saf.sol\":25881:26000  Approval(\r... */\n      0xffffffffffffffffffffffffffffffffffffffff\n      and\n      0x8c5be1e5ebec7d5bd14f71427d1e84f3dd0314c0f7b2291e5b200ac8c7c3b925\n        /* \"saf.sol\":25951:25968  _allowedFragments */\n      0x1d\n        /* \"saf.sol\":25951:25980  _allowedFragments[msg.sender] */\n      0x00\n        /* \"saf.sol\":25969:25979  msg.sender */\n      caller\n        /* \"saf.sol\":25951:25980  _allowedFragments[msg.sender] */\n      0xffffffffffffffffffffffffffffffffffffffff\n      and\n      0xffffffffffffffffffffffffffffffffffffffff\n      and\n      dup2\n      mstore\n      0x20\n      add\n      swap1\n      dup2\n      mstore\n      0x20\n      add\n      0x00\n      keccak256\n        /* \"saf.sol\":25951:25989  _allowedFragments[msg.sender][spender] */\n      0x00\n        /* \"saf.sol\":25981:25988  spender */\n      dup8\n        /* \"saf.sol\":25951:25989  _allowedFragments[msg.sender][spender] */\n      0xffffffffffffffffffffffffffffffffffffffff\n      and\n      0xffffffffffffffffffffffffffffffffffffffff\n      and\n      dup2\n      mstore\n      0x20\n      add\n      swap1\n      dup2\n      mstore\n      0x20\n      add\n      0x00\n      keccak256\n      sload\n        /* \"saf.sol\":25881:26000  Approval(\r... */\n      mload(0x40)\n      dup1\n      dup3\n      dup2\n      mstore\n      0x20\n      add\n      swap2\n      pop\n      pop\n      mload(0x40)\n      dup1\n      swap2\n      sub\n      swap1\n      log3\n        /* \"saf.sol\":26018:26022  true */\n      0x01\n        /* \"saf.sol\":26011:26022  return true */\n      swap1\n      pop\n        /* \"saf.sol\":25624:26030  function increaseAllowance(address spender, uint256 addedValue)\r... */\n      swap3\n      swap2\n      pop\n      pop\n      jump\t// out\n        /* \"saf.sol\":13640:13681  address public safuuInsuranceFundReceiver */\n    tag_139:\n      0x12\n      0x00\n      swap1\n      sload\n      swap1\n      0x0100\n      exp\n      swap1\n      div\n      0xffffffffffffffffffffffffffffffffffffffff\n      and\n      dup2\n      jump\t// out\n        /* \"saf.sol\":26823:27232  function setFeeReceivers(\r... */\n    tag_143:\n        /* \"saf.sol\":11116:11125  isOwner() */\n      tag_319\n        /* \"saf.sol\":11116:11123  isOwner */\n      tag_187\n        /* \"saf.sol\":11116:11125  isOwner() */\n      jump\t// in\n    tag_319:\n        /* \"saf.sol\":11108:11126  require(isOwner()) */\n      tag_320\n      jumpi\n      0x00\n      dup1\n      revert\n    tag_320:\n        /* \"saf.sol\":27059:27081  _autoLiquidityReceiver */\n      dup4\n        /* \"saf.sol\":27035:27056  autoLiquidityReceiver */\n      0x10\n      0x00\n        /* \"saf.sol\":27035:27081  autoLiquidityReceiver = _autoLiquidityReceiver */\n      0x0100\n      exp\n      dup2\n      sload\n      dup2\n      0xffffffffffffffffffffffffffffffffffffffff\n      mul\n      not\n      and\n      swap1\n      dup4\n      0xffffffffffffffffffffffffffffffffffffffff\n      and\n      mul\n      or\n      swap1\n      sstore\n      pop\n        /* \"saf.sol\":27111:27128  _treasuryReceiver */\n      dup3\n        /* \"saf.sol\":27092:27108  treasuryReceiver */\n      0x11\n      0x00\n        /* \"saf.sol\":27092:27128  treasuryReceiver = _treasuryReceiver */\n      0x0100\n      exp\n      dup2\n      sload\n      dup2\n      0xffffffffffffffffffffffffffffffffffffffff\n      mul\n      not\n      and\n      swap1\n      dup4\n      0xffffffffffffffffffffffffffffffffffffffff\n      and\n      mul\n      or\n      swap1\n      sstore\n      pop\n        /* \"saf.sol\":27168:27195  _safuuInsuranceFundReceiver */\n      dup2\n        /* \"saf.sol\":27139:27165  safuuInsuranceFundReceiver */\n      0x12\n      0x00\n        /* \"saf.sol\":27139:27195  safuuInsuranceFundReceiver = _safuuInsuranceFundReceiver */\n      0x0100\n      exp\n      dup2\n      sload\n      dup2\n      0xffffffffffffffffffffffffffffffffffffffff\n      mul\n      not\n      and\n      swap1\n      dup4\n      0xffffffffffffffffffffffffffffffffffffffff\n      and\n      mul\n      or\n      swap1\n      sstore\n      pop\n        /* \"saf.sol\":27216:27224  _firePit */\n      dup1\n        /* \"saf.sol\":27206:27213  firePit */\n      0x13\n      0x00\n        /* \"saf.sol\":27206:27224  firePit = _firePit */\n      0x0100\n      exp\n      dup2\n      sload\n      dup2\n      0xffffffffffffffffffffffffffffffffffffffff\n      mul\n      not\n      and\n      swap1\n      dup4\n      0xffffffffffffffffffffffffffffffffffffffff\n      and\n      mul\n      or\n      swap1\n      sstore\n      pop\n        /* \"saf.sol\":26823:27232  function setFeeReceivers(\r... */\n      pop\n      pop\n      pop\n      pop\n      jump\t// out\n        /* \"saf.sol\":14347:14374  uint256 public _totalSupply */\n    tag_146:\n      sload(0x1a)\n      dup2\n      jump\t// out\n        /* \"saf.sol\":13688:13710  address public firePit */\n    tag_149:\n      0x13\n      0x00\n      swap1\n      sload\n      swap1\n      0x0100\n      exp\n      swap1\n      div\n      0xffffffffffffffffffffffffffffffffffffffff\n      and\n      dup2\n      jump\t// out\n        /* \"saf.sol\":12616:12652  IPancakeSwapPair public pairContract */\n    tag_152:\n      0x05\n      0x01\n      swap1\n      sload\n      swap1\n      0x0100\n      exp\n      swap1\n      div\n      0xffffffffffffffffffffffffffffffffffffffff\n      and\n      dup2\n      jump\t// out\n        /* \"saf.sol\":13127:13168  uint256 public safuuInsuranceFundFee = 50 */\n    tag_155:\n      sload(0x09)\n      dup2\n      jump\t// out\n        /* \"saf.sol\":12906:12945  uint8 public constant RATE_DECIMALS = 7 */\n    tag_158:\n        /* \"saf.sol\":12944:12945  7 */\n      0x07\n        /* \"saf.sol\":12906:12945  uint8 public constant RATE_DECIMALS = 7 */\n      dup2\n      jump\t// out\n        /* \"saf.sol\":14188:14217  bool public _autoAddLiquidity */\n    tag_161:\n      0x16\n      dup1\n      sload\n      swap1\n      0x0100\n      exp\n      swap1\n      div\n      0xff\n      and\n      dup2\n      jump\t// out\n        /* \"saf.sol\":13750:13780  bool public swapEnabled = true */\n    tag_164:\n      0x14\n      dup1\n      sload\n      swap1\n      0x0100\n      exp\n      swap1\n      div\n      0xff\n      and\n      dup2\n      jump\t// out\n        /* \"saf.sol\":28249:28387  function balanceOf(address who) external view override returns (uint256) {\r... */\n    tag_168:\n        /* \"saf.sol\":28313:28320  uint256 */\n      0x00\n        /* \"saf.sol\":28340:28379  _gonBalances[who].div(_gonsPerFragment) */\n      tag_323\n        /* \"saf.sol\":28362:28378  _gonsPerFragment */\n      sload(0x1b)\n        /* \"saf.sol\":28340:28352  _gonBalances */\n      0x1c\n        /* \"saf.sol\":28340:28357  _gonBalances[who] */\n      0x00\n        /* \"saf.sol\":28353:28356  who */\n      dup6\n        /* \"saf.sol\":28340:28357  _gonBalances[who] */\n      0xffffffffffffffffffffffffffffffffffffffff\n      and\n      0xffffffffffffffffffffffffffffffffffffffff\n      and\n      dup2\n      mstore\n      0x20\n      add\n      swap1\n      dup2\n      mstore\n      0x20\n      add\n      0x00\n      keccak256\n      sload\n        /* \"saf.sol\":28340:28361  _gonBalances[who].div */\n      tag_283\n      swap1\n        /* \"saf.sol\":28340:28379  _gonBalances[who].div(_gonsPerFragment) */\n      swap2\n      swap1\n      0xffffffff\n      and\n      jump\t// in\n    tag_323:\n        /* \"saf.sol\":28333:28379  return _gonBalances[who].div(_gonsPerFragment) */\n      swap1\n      pop\n        /* \"saf.sol\":28249:28387  function balanceOf(address who) external view override returns (uint256) {\r... */\n      swap2\n      swap1\n      pop\n      jump\t// out\n        /* \"saf.sol\":11254:11380  function renounceOwnership() public onlyOwner {\r... */\n    tag_171:\n        /* \"saf.sol\":11116:11125  isOwner() */\n      tag_325\n        /* \"saf.sol\":11116:11123  isOwner */\n      tag_187\n        /* \"saf.sol\":11116:11125  isOwner() */\n      jump\t// in\n    tag_325:\n        /* \"saf.sol\":11108:11126  require(isOwner()) */\n      tag_326\n      jumpi\n      0x00\n      dup1\n      revert\n    tag_326:\n        /* \"saf.sol\":11335:11341  _owner */\n      0x02\n      0x01\n      swap1\n      sload\n      swap1\n      0x0100\n      exp\n      swap1\n      div\n      0xffffffffffffffffffffffffffffffffffffffff\n      and\n        /* \"saf.sol\":11316:11342  OwnershipRenounced(_owner) */\n      0xffffffffffffffffffffffffffffffffffffffff\n      and\n      0xf8df31144d9c2f0f6b59d69b8b98abd5459d07f2742c4df920b25aae33c64820\n      mload(0x40)\n      mload(0x40)\n      dup1\n      swap2\n      sub\n      swap1\n      log2\n        /* \"saf.sol\":11370:11371  0 */\n      0x00\n        /* \"saf.sol\":11353:11359  _owner */\n      0x02\n      0x01\n        /* \"saf.sol\":11353:11372  _owner = address(0) */\n      0x0100\n      exp\n      dup2\n      sload\n      dup2\n      0xffffffffffffffffffffffffffffffffffffffff\n      mul\n      not\n      and\n      swap1\n      dup4\n      0xffffffffffffffffffffffffffffffffffffffff\n      and\n      mul\n      or\n      swap1\n      sstore\n      pop\n        /* \"saf.sol\":11254:11380  function renounceOwnership() public onlyOwner {\r... */\n      jump\t// out\n        /* \"saf.sol\":26736:26815  function manualSync() external {\r... */\n    tag_174:\n        /* \"saf.sol\":26795:26799  pair */\n      0x16\n      0x00\n      swap1\n      sload\n      swap1\n      0x0100\n      exp\n      swap1\n      div\n      0xffffffffffffffffffffffffffffffffffffffff\n      and\n        /* \"saf.sol\":26778:26805  IPancakeSwapPair(pair).sync */\n      0xffffffffffffffffffffffffffffffffffffffff\n      and\n      0xfff6cae9\n        /* \"saf.sol\":26778:26807  IPancakeSwapPair(pair).sync() */\n      mload(0x40)\n      dup2\n      0xffffffff\n      and\n      0xe0\n      shl\n      dup2\n      mstore\n      0x04\n      add\n      0x00\n      mload(0x40)\n      dup1\n      dup4\n      sub\n      dup2\n      0x00\n      dup8\n      dup1\n      extcodesize\n      iszero\n      dup1\n      iszero\n      tag_329\n      jumpi\n      0x00\n      dup1\n      revert\n    tag_329:\n      pop\n      gas\n      call\n      iszero\n      dup1\n      iszero\n      tag_331\n      jumpi\n      returndatasize\n      0x00\n      dup1\n      returndatacopy\n      revert(0x00, returndatasize)\n    tag_331:\n      pop\n      pop\n      pop\n      pop\n        /* \"saf.sol\":26736:26815  function manualSync() external {\r... */\n      jump\t// out\n        /* \"saf.sol\":26643:26728  function isNotInSwap() external view returns (bool) {\r... */\n    tag_177:\n        /* \"saf.sol\":26689:26693  bool */\n      0x00\n        /* \"saf.sol\":26714:26720  inSwap */\n      0x16\n      0x14\n      swap1\n      sload\n      swap1\n      0x0100\n      exp\n      swap1\n      div\n      0xff\n      and\n        /* \"saf.sol\":26713:26720  !inSwap */\n      iszero\n        /* \"saf.sol\":26706:26720  return !inSwap */\n      swap1\n      pop\n        /* \"saf.sol\":26643:26728  function isNotInSwap() external view returns (bool) {\r... */\n      swap1\n      jump\t// out\n        /* \"saf.sol\":27539:27640  function setWhitelist(address _addr) external onlyOwner {\r... */\n    tag_181:\n        /* \"saf.sol\":11116:11125  isOwner() */\n      tag_334\n        /* \"saf.sol\":11116:11123  isOwner */\n      tag_187\n        /* \"saf.sol\":11116:11125  isOwner() */\n      jump\t// in\n    tag_334:\n        /* \"saf.sol\":11108:11126  require(isOwner()) */\n      tag_335\n      jumpi\n      0x00\n      dup1\n      revert\n    tag_335:\n        /* \"saf.sol\":27628:27632  true */\n      0x01\n        /* \"saf.sol\":27606:27618  _isFeeExempt */\n      0x06\n        /* \"saf.sol\":27606:27625  _isFeeExempt[_addr] */\n      0x00\n        /* \"saf.sol\":27619:27624  _addr */\n      dup4\n        /* \"saf.sol\":27606:27625  _isFeeExempt[_addr] */\n      0xffffffffffffffffffffffffffffffffffffffff\n      and\n      0xffffffffffffffffffffffffffffffffffffffff\n      and\n      dup2\n      mstore\n      0x20\n      add\n      swap1\n      dup2\n      mstore\n      0x20\n      add\n      0x00\n      keccak256\n      0x00\n        /* \"saf.sol\":27606:27632  _isFeeExempt[_addr] = true */\n      0x0100\n      exp\n      dup2\n      sload\n      dup2\n      0xff\n      mul\n      not\n      and\n      swap1\n      dup4\n      iszero\n      iszero\n      mul\n      or\n      swap1\n      sstore\n      pop\n        /* \"saf.sol\":27539:27640  function setWhitelist(address _addr) external onlyOwner {\r... */\n      pop\n      jump\t// out\n        /* \"saf.sol\":10989:11068  function owner() public view returns (address) {\r... */\n    tag_184:\n        /* \"saf.sol\":11027:11034  address */\n      0x00\n        /* \"saf.sol\":11054:11060  _owner */\n      0x02\n      0x01\n      swap1\n      sload\n      swap1\n      0x0100\n      exp\n      swap1\n      div\n      0xffffffffffffffffffffffffffffffffffffffff\n      and\n        /* \"saf.sol\":11047:11060  return _owner */\n      swap1\n      pop\n        /* \"saf.sol\":10989:11068  function owner() public view returns (address) {\r... */\n      swap1\n      jump\t// out\n        /* \"saf.sol\":11154:11246  function isOwner() public view returns (bool) {\r... */\n    tag_187:\n        /* \"saf.sol\":11194:11198  bool */\n      0x00\n        /* \"saf.sol\":11232:11238  _owner */\n      0x02\n      0x01\n      swap1\n      sload\n      swap1\n      0x0100\n      exp\n      swap1\n      div\n      0xffffffffffffffffffffffffffffffffffffffff\n      and\n        /* \"saf.sol\":11218:11238  msg.sender == _owner */\n      0xffffffffffffffffffffffffffffffffffffffff\n      and\n        /* \"saf.sol\":11218:11228  msg.sender */\n      caller\n        /* \"saf.sol\":11218:11238  msg.sender == _owner */\n      0xffffffffffffffffffffffffffffffffffffffff\n      and\n      eq\n        /* \"saf.sol\":11211:11238  return msg.sender == _owner */\n      swap1\n      pop\n        /* \"saf.sol\":11154:11246  function isOwner() public view returns (bool) {\r... */\n      swap1\n      jump\t// out\n        /* \"saf.sol\":12134:12221  function symbol() public view returns (string memory) {\r... */\n    tag_190:\n        /* \"saf.sol\":12173:12186  string memory */\n      0x60\n        /* \"saf.sol\":12206:12213  _symbol */\n      0x01\n        /* \"saf.sol\":12199:12213  return _symbol */\n      dup1\n      sload\n      0x01\n      dup2\n      0x01\n      and\n      iszero\n      0x0100\n      mul\n      sub\n      and\n      0x02\n      swap1\n      div\n      dup1\n      0x1f\n      add\n      0x20\n      dup1\n      swap2\n      div\n      mul\n      0x20\n      add\n      mload(0x40)\n      swap1\n      dup2\n      add\n      0x40\n      mstore\n      dup1\n      swap3\n      swap2\n      swap1\n      dup2\n      dup2\n      mstore\n      0x20\n      add\n      dup3\n      dup1\n      sload\n      0x01\n      dup2\n      0x01\n      and\n      iszero\n      0x0100\n      mul\n      sub\n      and\n      0x02\n      swap1\n      div\n      dup1\n      iszero\n      tag_340\n      jumpi\n      dup1\n      0x1f\n      lt\n      tag_341\n      jumpi\n      0x0100\n      dup1\n      dup4\n      sload\n      div\n      mul\n      dup4\n      mstore\n      swap2\n      0x20\n      add\n      swap2\n      jump(tag_340)\n    tag_341:\n      dup3\n      add\n      swap2\n      swap1\n      0x00\n      mstore\n      keccak256(0x00, 0x20)\n      swap1\n    tag_342:\n      dup2\n      sload\n      dup2\n      mstore\n      swap1\n      0x01\n      add\n      swap1\n      0x20\n      add\n      dup1\n      dup4\n      gt\n      tag_342\n      jumpi\n      dup3\n      swap1\n      sub\n      0x1f\n      and\n      dup3\n      add\n      swap2\n    tag_340:\n      pop\n      pop\n      pop\n      pop\n      pop\n      swap1\n      pop\n        /* \"saf.sol\":12134:12221  function symbol() public view returns (string memory) {\r... */\n      swap1\n      jump\t// out\n        /* \"saf.sol\":13050:13082  uint256 public liquidityFee = 40 */\n    tag_197:\n      sload(0x07)\n      dup2\n      jump\t// out\n        /* \"saf.sol\":14304:14340  uint256 public _lastAddLiquidityTime */\n    tag_200:\n      sload(0x19)\n      dup2\n      jump\t// out\n        /* \"saf.sol\":14224:14259  uint256 public _initRebaseStartTime */\n    tag_203:\n      sload(0x17)\n      dup2\n      jump\t// out\n        /* \"saf.sol\":27896:28004  function setPairAddress(address _pairAddress) public onlyOwner {\r... */\n    tag_207:\n        /* \"saf.sol\":11116:11125  isOwner() */\n      tag_344\n        /* \"saf.sol\":11116:11123  isOwner */\n      tag_187\n        /* \"saf.sol\":11116:11125  isOwner() */\n      jump\t// in\n    tag_344:\n        /* \"saf.sol\":11108:11126  require(isOwner()) */\n      tag_345\n      jumpi\n      0x00\n      dup1\n      revert\n    tag_345:\n        /* \"saf.sol\":27984:27996  _pairAddress */\n      dup1\n        /* \"saf.sol\":27970:27981  pairAddress */\n      0x14\n      0x00\n        /* \"saf.sol\":27970:27996  pairAddress = _pairAddress */\n      0x0100\n      exp\n      dup2\n      sload\n      dup2\n      0xffffffffffffffffffffffffffffffffffffffff\n      mul\n      not\n      and\n      swap1\n      dup4\n      0xffffffffffffffffffffffffffffffffffffffff\n      and\n      mul\n      or\n      swap1\n      sstore\n      pop\n        /* \"saf.sol\":27896:28004  function setPairAddress(address _pairAddress) public onlyOwner {\r... */\n      pop\n      jump\t// out\n        /* \"saf.sol\":25020:25616  function decreaseAllowance(address spender, uint256 subtractedValue)\r... */\n    tag_211:\n        /* \"saf.sol\":25125:25129  bool */\n      0x00\n        /* \"saf.sol\":25147:25163  uint256 oldValue */\n      dup1\n        /* \"saf.sol\":25166:25183  _allowedFragments */\n      0x1d\n        /* \"saf.sol\":25166:25195  _allowedFragments[msg.sender] */\n      0x00\n        /* \"saf.sol\":25184:25194  msg.sender */\n      caller\n        /* \"saf.sol\":25166:25195  _allowedFragments[msg.sender] */\n      0xffffffffffffffffffffffffffffffffffffffff\n      and\n      0xffffffffffffffffffffffffffffffffffffffff\n      and\n      dup2\n      mstore\n      0x20\n      add\n      swap1\n      dup2\n      mstore\n      0x20\n      add\n      0x00\n      keccak256\n        /* \"saf.sol\":25166:25204  _allowedFragments[msg.sender][spender] */\n      0x00\n        /* \"saf.sol\":25196:25203  spender */\n      dup6\n        /* \"saf.sol\":25166:25204  _allowedFragments[msg.sender][spender] */\n      0xffffffffffffffffffffffffffffffffffffffff\n      and\n      0xffffffffffffffffffffffffffffffffffffffff\n      and\n      dup2\n      mstore\n      0x20\n      add\n      swap1\n      dup2\n      mstore\n      0x20\n      add\n      0x00\n      keccak256\n      sload\n        /* \"saf.sol\":25147:25204  uint256 oldValue = _allowedFragments[msg.sender][spender] */\n      swap1\n      pop\n        /* \"saf.sol\":25238:25246  oldValue */\n      dup1\n        /* \"saf.sol\":25219:25234  subtractedValue */\n      dup4\n        /* \"saf.sol\":25219:25246  subtractedValue >= oldValue */\n      lt\n        /* \"saf.sol\":25215:25452  if (subtractedValue >= oldValue) {\r... */\n      tag_348\n      jumpi\n        /* \"saf.sol\":25304:25305  0 */\n      0x00\n        /* \"saf.sol\":25263:25280  _allowedFragments */\n      0x1d\n        /* \"saf.sol\":25263:25292  _allowedFragments[msg.sender] */\n      0x00\n        /* \"saf.sol\":25281:25291  msg.sender */\n      caller\n        /* \"saf.sol\":25263:25292  _allowedFragments[msg.sender] */\n      0xffffffffffffffffffffffffffffffffffffffff\n      and\n      0xffffffffffffffffffffffffffffffffffffffff\n      and\n      dup2\n      mstore\n      0x20\n      add\n      swap1\n      dup2\n      mstore\n      0x20\n      add\n      0x00\n      keccak256\n        /* \"saf.sol\":25263:25301  _allowedFragments[msg.sender][spender] */\n      0x00\n        /* \"saf.sol\":25293:25300  spender */\n      dup7\n        /* \"saf.sol\":25263:25301  _allowedFragments[msg.sender][spender] */\n      0xffffffffffffffffffffffffffffffffffffffff\n      and\n      0xffffffffffffffffffffffffffffffffffffffff\n      and\n      dup2\n      mstore\n      0x20\n      add\n      swap1\n      dup2\n      mstore\n      0x20\n      add\n      0x00\n      keccak256\n        /* \"saf.sol\":25263:25305  _allowedFragments[msg.sender][spender] = 0 */\n      dup2\n      swap1\n      sstore\n      pop\n        /* \"saf.sol\":25215:25452  if (subtractedValue >= oldValue) {\r... */\n      jump(tag_349)\n    tag_348:\n        /* \"saf.sol\":25379:25440  oldValue.sub(\r... */\n      tag_350\n        /* \"saf.sol\":25410:25425  subtractedValue */\n      dup4\n        /* \"saf.sol\":25379:25387  oldValue */\n      dup3\n        /* \"saf.sol\":25379:25391  oldValue.sub */\n      tag_303\n      swap1\n        /* \"saf.sol\":25379:25440  oldValue.sub(\r... */\n      swap2\n      swap1\n      0xffffffff\n      and\n      jump\t// in\n    tag_350:\n        /* \"saf.sol\":25338:25355  _allowedFragments */\n      0x1d\n        /* \"saf.sol\":25338:25367  _allowedFragments[msg.sender] */\n      0x00\n        /* \"saf.sol\":25356:25366  msg.sender */\n      caller\n        /* \"saf.sol\":25338:25367  _allowedFragments[msg.sender] */\n      0xffffffffffffffffffffffffffffffffffffffff\n      and\n      0xffffffffffffffffffffffffffffffffffffffff\n      and\n      dup2\n      mstore\n      0x20\n      add\n      swap1\n      dup2\n      mstore\n      0x20\n      add\n      0x00\n      keccak256\n        /* \"saf.sol\":25338:25376  _allowedFragments[msg.sender][spender] */\n      0x00\n        /* \"saf.sol\":25368:25375  spender */\n      dup7\n        /* \"saf.sol\":25338:25376  _allowedFragments[msg.sender][spender] */\n      0xffffffffffffffffffffffffffffffffffffffff\n      and\n      0xffffffffffffffffffffffffffffffffffffffff\n      and\n      dup2\n      mstore\n      0x20\n      add\n      swap1\n      dup2\n      mstore\n      0x20\n      add\n      0x00\n      keccak256\n        /* \"saf.sol\":25338:25440  _allowedFragments[msg.sender][spender] = oldValue.sub(\r... */\n      dup2\n      swap1\n      sstore\n      pop\n        /* \"saf.sol\":25215:25452  if (subtractedValue >= oldValue) {\r... */\n    tag_349:\n        /* \"saf.sol\":25515:25522  spender */\n      dup4\n        /* \"saf.sol\":25467:25586  Approval(\r... */\n      0xffffffffffffffffffffffffffffffffffffffff\n      and\n        /* \"saf.sol\":25490:25500  msg.sender */\n      caller\n        /* \"saf.sol\":25467:25586  Approval(\r... */\n      0xffffffffffffffffffffffffffffffffffffffff\n      and\n      0x8c5be1e5ebec7d5bd14f71427d1e84f3dd0314c0f7b2291e5b200ac8c7c3b925\n        /* \"saf.sol\":25537:25554  _allowedFragments */\n      0x1d\n        /* \"saf.sol\":25537:25566  _allowedFragments[msg.sender] */\n      0x00\n        /* \"saf.sol\":25555:25565  msg.sender */\n      caller\n        /* \"saf.sol\":25537:25566  _allowedFragments[msg.sender] */\n      0xffffffffffffffffffffffffffffffffffffffff\n      and\n      0xffffffffffffffffffffffffffffffffffffffff\n      and\n      dup2\n      mstore\n      0x20\n      add\n      swap1\n      dup2\n      mstore\n      0x20\n      add\n      0x00\n      keccak256\n        /* \"saf.sol\":25537:25575  _allowedFragments[msg.sender][spender] */\n      0x00\n        /* \"saf.sol\":25567:25574  spender */\n      dup9\n        /* \"saf.sol\":25537:25575  _allowedFragments[msg.sender][spender] */\n      0xffffffffffffffffffffffffffffffffffffffff\n      and\n      0xffffffffffffffffffffffffffffffffffffffff\n      and\n      dup2\n      mstore\n      0x20\n      add\n      swap1\n      dup2\n      mstore\n      0x20\n      add\n      0x00\n      keccak256\n      sload\n        /* \"saf.sol\":25467:25586  Approval(\r... */\n      mload(0x40)\n      dup1\n      dup3\n      dup2\n      mstore\n      0x20\n      add\n      swap2\n      pop\n      pop\n      mload(0x40)\n      dup1\n      swap2\n      sub\n      swap1\n      log3\n        /* \"saf.sol\":25604:25608  true */\n      0x01\n        /* \"saf.sol\":25597:25608  return true */\n      swap2\n      pop\n      pop\n        /* \"saf.sol\":25020:25616  function decreaseAllowance(address spender, uint256 subtractedValue)\r... */\n      swap3\n      swap2\n      pop\n      pop\n      jump\t// out\n        /* \"saf.sol\":13209:13239  uint256 public firePitFee = 25 */\n    tag_214:\n      sload(0x0b)\n      dup2\n      jump\t// out\n        /* \"saf.sol\":13826:13845  address public pair */\n    tag_217:\n      0x16\n      0x00\n      swap1\n      sload\n      swap1\n      0x0100\n      exp\n      swap1\n      div\n      0xffffffffffffffffffffffffffffffffffffffff\n      and\n      dup2\n      jump\t// out\n        /* \"saf.sol\":13717:13743  address public pairAddress */\n    tag_220:\n      0x14\n      0x00\n      swap1\n      sload\n      swap1\n      0x0100\n      exp\n      swap1\n      div\n      0xffffffffffffffffffffffffffffffffffffffff\n      and\n      dup2\n      jump\t// out\n        /* \"saf.sol\":17029:17244  function transfer(address to, uint256 value)\r... */\n    tag_224:\n        /* \"saf.sol\":17156:17160  bool */\n      0x00\n        /* \"saf.sol\":17134:17136  to */\n      dup3\n        /* \"saf.sol\":12774:12777  0x0 */\n      0x00\n        /* \"saf.sol\":12760:12778  to != address(0x0) */\n      0xffffffffffffffffffffffffffffffffffffffff\n      and\n        /* \"saf.sol\":12760:12762  to */\n      dup2\n        /* \"saf.sol\":12760:12778  to != address(0x0) */\n      0xffffffffffffffffffffffffffffffffffffffff\n      and\n      eq\n      iszero\n        /* \"saf.sol\":12752:12779  require(to != address(0x0)) */\n      tag_352\n      jumpi\n      0x00\n      dup1\n      revert\n    tag_352:\n        /* \"saf.sol\":17178:17214  _transferFrom(msg.sender, to, value) */\n      tag_354\n        /* \"saf.sol\":17192:17202  msg.sender */\n      caller\n        /* \"saf.sol\":17204:17206  to */\n      dup6\n        /* \"saf.sol\":17208:17213  value */\n      dup6\n        /* \"saf.sol\":17178:17191  _transferFrom */\n      tag_297\n        /* \"saf.sol\":17178:17214  _transferFrom(msg.sender, to, value) */\n      jump\t// in\n    tag_354:\n      pop\n        /* \"saf.sol\":17232:17236  true */\n      0x01\n        /* \"saf.sol\":17225:17236  return true */\n      swap2\n      pop\n        /* \"saf.sol\":17029:17244  function transfer(address to, uint256 value)\r... */\n      pop\n      swap3\n      swap2\n      pop\n      pop\n      jump\t// out\n        /* \"saf.sol\":14158:14181  bool public _autoRebase */\n    tag_227:\n      0x16\n      0x15\n      swap1\n      sload\n      swap1\n      0x0100\n      exp\n      swap1\n      div\n      0xff\n      and\n      dup2\n      jump\t// out\n        /* \"saf.sol\":12543:12574  string public _symbol = \"SAFUU\" */\n    tag_230:\n      0x04\n      dup1\n      sload\n      0x01\n      dup2\n      0x01\n      and\n      iszero\n      0x0100\n      mul\n      sub\n      and\n      0x02\n      swap1\n      div\n      dup1\n      0x1f\n      add\n      0x20\n      dup1\n      swap2\n      div\n      mul\n      0x20\n      add\n      mload(0x40)\n      swap1\n      dup2\n      add\n      0x40\n      mstore\n      dup1\n      swap3\n      swap2\n      swap1\n      dup2\n      dup2\n      mstore\n      0x20\n      add\n      dup3\n      dup1\n      sload\n      0x01\n      dup2\n      0x01\n      and\n      iszero\n      0x0100\n      mul\n      sub\n      and\n      0x02\n      swap1\n      div\n      dup1\n      iszero\n      tag_355\n      jumpi\n      dup1\n      0x1f\n      lt\n      tag_356\n      jumpi\n      0x0100\n      dup1\n      dup4\n      sload\n      div\n      mul\n      dup4\n      mstore\n      swap2\n      0x20\n      add\n      swap2\n      jump(tag_355)\n    tag_356:\n      dup3\n      add\n      swap2\n      swap1\n      0x00\n      mstore\n      keccak256(0x00, 0x20)\n      swap1\n    tag_357:\n      dup2\n      sload\n      dup2\n      mstore\n      swap1\n      0x01\n      add\n      swap1\n      0x20\n      add\n      dup1\n      dup4\n      gt\n      tag_357\n      jumpi\n      dup3\n      swap1\n      sub\n      0x1f\n      and\n      dup3\n      add\n      swap2\n    tag_355:\n      pop\n      pop\n      pop\n      pop\n      pop\n      dup2\n      jump\t// out\n        /* \"saf.sol\":22842:23408  function withdrawAllToTreasury() external swapping onlyOwner {\r... */\n    tag_237:\n        /* \"saf.sol\":13918:13922  true */\n      0x01\n        /* \"saf.sol\":13909:13915  inSwap */\n      0x16\n      0x14\n        /* \"saf.sol\":13909:13922  inSwap = true */\n      0x0100\n      exp\n      dup2\n      sload\n      dup2\n      0xff\n      mul\n      not\n      and\n      swap1\n      dup4\n      iszero\n      iszero\n      mul\n      or\n      swap1\n      sstore\n      pop\n        /* \"saf.sol\":11116:11125  isOwner() */\n      tag_360\n        /* \"saf.sol\":11116:11123  isOwner */\n      tag_187\n        /* \"saf.sol\":11116:11125  isOwner() */\n      jump\t// in\n    tag_360:\n        /* \"saf.sol\":11108:11126  require(isOwner()) */\n      tag_361\n      jumpi\n      0x00\n      dup1\n      revert\n    tag_361:\n        /* \"saf.sol\":22916:22936  uint256 amountToSwap */\n      0x00\n        /* \"saf.sol\":22939:22988  _gonBalances[address(this)].div(_gonsPerFragment) */\n      tag_363\n        /* \"saf.sol\":22971:22987  _gonsPerFragment */\n      sload(0x1b)\n        /* \"saf.sol\":22939:22951  _gonBalances */\n      0x1c\n        /* \"saf.sol\":22939:22966  _gonBalances[address(this)] */\n      0x00\n        /* \"saf.sol\":22960:22964  this */\n      address\n        /* \"saf.sol\":22939:22966  _gonBalances[address(this)] */\n      0xffffffffffffffffffffffffffffffffffffffff\n      and\n      0xffffffffffffffffffffffffffffffffffffffff\n      and\n      dup2\n      mstore\n      0x20\n      add\n      swap1\n      dup2\n      mstore\n      0x20\n      add\n      0x00\n      keccak256\n      sload\n        /* \"saf.sol\":22939:22970  _gonBalances[address(this)].div */\n      tag_283\n      swap1\n        /* \"saf.sol\":22939:22988  _gonBalances[address(this)].div(_gonsPerFragment) */\n      swap2\n      swap1\n      0xffffffff\n      and\n      jump\t// in\n    tag_363:\n        /* \"saf.sol\":22916:22988  uint256 amountToSwap = _gonBalances[address(this)].div(_gonsPerFragment) */\n      swap1\n      pop\n        /* \"saf.sol\":23023:23024  0 */\n      0x00\n        /* \"saf.sol\":23008:23020  amountToSwap */\n      dup2\n        /* \"saf.sol\":23008:23024  amountToSwap > 0 */\n      gt\n        /* \"saf.sol\":22999:23079  require( amountToSwap > 0,\"There is no Safuu token deposited in token contract\") */\n      tag_364\n      jumpi\n      mload(0x40)\n      0x08c379a000000000000000000000000000000000000000000000000000000000\n      dup2\n      mstore\n      0x04\n      add\n      dup1\n      dup1\n      0x20\n      add\n      dup3\n      dup2\n      sub\n      dup3\n      mstore\n      0x33\n      dup2\n      mstore\n      0x20\n      add\n      dup1\n      data_02b80227d7ee5be30ffaddd176f79d825f278320e9e030ccf3d6dcded5203c3c\n      0x33\n      swap2\n      codecopy\n      0x40\n      add\n      swap2\n      pop\n      pop\n      mload(0x40)\n      dup1\n      swap2\n      sub\n      swap1\n      revert\n    tag_364:\n        /* \"saf.sol\":23090:23111  address[] memory path */\n      0x60\n        /* \"saf.sol\":23128:23129  2 */\n      0x02\n        /* \"saf.sol\":23114:23130  new address[](2) */\n      0xffffffffffffffff\n      dup2\n      gt\n      dup1\n      iszero\n      tag_365\n      jumpi\n      0x00\n      dup1\n      revert\n    tag_365:\n      pop\n      mload(0x40)\n      swap1\n      dup1\n      dup3\n      mstore\n      dup1\n      0x20\n      mul\n      0x20\n      add\n      dup3\n      add\n      0x40\n      mstore\n      dup1\n      iszero\n      tag_366\n      jumpi\n      dup2\n      0x20\n      add\n      0x20\n      dup3\n      mul\n      dup1\n      calldatasize\n      dup4\n      calldatacopy\n      dup1\n      dup3\n      add\n      swap2\n      pop\n      pop\n      swap1\n      pop\n    tag_366:\n      pop\n        /* \"saf.sol\":23090:23130  address[] memory path = new address[](2) */\n      swap1\n      pop\n        /* \"saf.sol\":23159:23163  this */\n      address\n        /* \"saf.sol\":23141:23145  path */\n      dup2\n        /* \"saf.sol\":23146:23147  0 */\n      0x00\n        /* \"saf.sol\":23141:23148  path[0] */\n      dup2\n      mload\n      dup2\n      lt\n      tag_367\n      jumpi\n      invalid\n    tag_367:\n      0x20\n      mul\n      0x20\n      add\n      add\n        /* \"saf.sol\":23141:23164  path[0] = address(this) */\n      swap1\n      0xffffffffffffffffffffffffffffffffffffffff\n      and\n      swap1\n      dup2\n      0xffffffffffffffffffffffffffffffffffffffff\n      and\n      dup2\n      mstore\n      pop\n      pop\n        /* \"saf.sol\":23185:23191  router */\n      0x15\n      0x00\n      swap1\n      sload\n      swap1\n      0x0100\n      exp\n      swap1\n      div\n      0xffffffffffffffffffffffffffffffffffffffff\n      and\n        /* \"saf.sol\":23185:23196  router.WETH */\n      0xffffffffffffffffffffffffffffffffffffffff\n      and\n      0xad5c4648\n        /* \"saf.sol\":23185:23198  router.WETH() */\n      mload(0x40)\n      dup2\n      0xffffffff\n      and\n      0xe0\n      shl\n      dup2\n      mstore\n      0x04\n      add\n      0x20\n      mload(0x40)\n      dup1\n      dup4\n      sub\n      dup2\n      dup7\n      dup1\n      extcodesize\n      iszero\n      dup1\n      iszero\n      tag_368\n      jumpi\n      0x00\n      dup1\n      revert\n    tag_368:\n      pop\n      gas\n      staticcall\n      iszero\n      dup1\n      iszero\n      tag_370\n      jumpi\n      returndatasize\n      0x00\n      dup1\n      returndatacopy\n      revert(0x00, returndatasize)\n    tag_370:\n      pop\n      pop\n      pop\n      pop\n      mload(0x40)\n      returndatasize\n      0x20\n      dup2\n      lt\n      iszero\n      tag_371\n      jumpi\n      0x00\n      dup1\n      revert\n    tag_371:\n      dup2\n      add\n      swap1\n      dup1\n      dup1\n      mload\n      swap1\n      0x20\n      add\n      swap1\n      swap3\n      swap2\n      swap1\n      pop\n      pop\n      pop\n        /* \"saf.sol\":23175:23179  path */\n      dup2\n        /* \"saf.sol\":23180:23181  1 */\n      0x01\n        /* \"saf.sol\":23175:23182  path[1] */\n      dup2\n      mload\n      dup2\n      lt\n      tag_372\n      jumpi\n      invalid\n    tag_372:\n      0x20\n      mul\n      0x20\n      add\n      add\n        /* \"saf.sol\":23175:23198  path[1] = router.WETH() */\n      swap1\n      0xffffffffffffffffffffffffffffffffffffffff\n      and\n      swap1\n      dup2\n      0xffffffffffffffffffffffffffffffffffffffff\n      and\n      dup2\n      mstore\n      pop\n      pop\n        /* \"saf.sol\":23209:23215  router */\n      0x15\n      0x00\n      swap1\n      sload\n      swap1\n      0x0100\n      exp\n      swap1\n      div\n      0xffffffffffffffffffffffffffffffffffffffff\n      and\n        /* \"saf.sol\":23209:23266  router.swapExactTokensForETHSupportingFeeOnTransferTokens */\n      0xffffffffffffffffffffffffffffffffffffffff\n      and\n      0x791ac947\n        /* \"saf.sol\":23281:23293  amountToSwap */\n      dup4\n        /* \"saf.sol\":23308:23309  0 */\n      0x00\n        /* \"saf.sol\":23324:23328  path */\n      dup5\n        /* \"saf.sol\":23343:23359  treasuryReceiver */\n      0x11\n      0x00\n      swap1\n      sload\n      swap1\n      0x0100\n      exp\n      swap1\n      div\n      0xffffffffffffffffffffffffffffffffffffffff\n      and\n        /* \"saf.sol\":23374:23389  block.timestamp */\n      timestamp\n        /* \"saf.sol\":23209:23400  router.swapExactTokensForETHSupportingFeeOnTransferTokens(\r... */\n      mload(0x40)\n      dup7\n      0xffffffff\n      and\n      0xe0\n      shl\n      dup2\n      mstore\n      0x04\n      add\n      dup1\n      dup7\n      dup2\n      mstore\n      0x20\n      add\n      dup6\n      dup2\n      mstore\n      0x20\n      add\n      dup1\n      0x20\n      add\n      dup5\n      0xffffffffffffffffffffffffffffffffffffffff\n      and\n      dup2\n      mstore\n      0x20\n      add\n      dup4\n      dup2\n      mstore\n      0x20\n      add\n      dup3\n      dup2\n      sub\n      dup3\n      mstore\n      dup6\n      dup2\n      dup2\n      mload\n      dup2\n      mstore\n      0x20\n      add\n      swap2\n      pop\n      dup1\n      mload\n      swap1\n      0x20\n      add\n      swap1\n      0x20\n      mul\n      dup1\n      dup4\n      dup4\n      0x00\n    tag_373:\n      dup4\n      dup2\n      lt\n      iszero\n      tag_375\n      jumpi\n      dup1\n      dup3\n      add\n      mload\n      dup2\n      dup5\n      add\n      mstore\n      0x20\n      dup2\n      add\n      swap1\n      pop\n      jump(tag_373)\n    tag_375:\n      pop\n      pop\n      pop\n      pop\n      swap1\n      pop\n      add\n      swap7\n      pop\n      pop\n      pop\n      pop\n      pop\n      pop\n      pop\n      0x00\n      mload(0x40)\n      dup1\n      dup4\n      sub\n      dup2\n      0x00\n      dup8\n      dup1\n      extcodesize\n      iszero\n      dup1\n      iszero\n      tag_376\n      jumpi\n      0x00\n      dup1\n      revert\n    tag_376:\n      pop\n      gas\n      call\n      iszero\n      dup1\n      iszero\n      tag_378\n      jumpi\n      returndatasize\n      0x00\n      dup1\n      returndatacopy\n      revert(0x00, returndatasize)\n    tag_378:\n      pop\n      pop\n      pop\n      pop\n        /* \"saf.sol\":11137:11138  _ */\n      pop\n      pop\n        /* \"saf.sol\":13954:13959  false */\n      0x00\n        /* \"saf.sol\":13945:13951  inSwap */\n      0x16\n      0x14\n        /* \"saf.sol\":13945:13959  inSwap = false */\n      0x0100\n      exp\n      dup2\n      sload\n      dup2\n      0xff\n      mul\n      not\n      and\n      swap1\n      dup4\n      iszero\n      iszero\n      mul\n      or\n      swap1\n      sstore\n      pop\n        /* \"saf.sol\":22842:23408  function withdrawAllToTreasury() external swapping onlyOwner {\r... */\n      jump\t// out\n        /* \"saf.sol\":13559:13595  address public autoLiquidityReceiver */\n    tag_240:\n      0x10\n      0x00\n      swap1\n      sload\n      swap1\n      0x0100\n      exp\n      swap1\n      div\n      0xffffffffffffffffffffffffffffffffffffffff\n      and\n      dup2\n      jump\t// out\n        /* \"saf.sol\":13089:13120  uint256 public treasuryFee = 25 */\n    tag_243:\n      sload(0x08)\n      dup2\n      jump\t// out\n        /* \"saf.sol\":24558:24810  function setAutoAddLiquidity(bool _flag) external onlyOwner {\r... */\n    tag_247:\n        /* \"saf.sol\":11116:11125  isOwner() */\n      tag_380\n        /* \"saf.sol\":11116:11123  isOwner */\n      tag_187\n        /* \"saf.sol\":11116:11125  isOwner() */\n      jump\t// in\n    tag_380:\n        /* \"saf.sol\":11108:11126  require(isOwner()) */\n      tag_381\n      jumpi\n      0x00\n      dup1\n      revert\n    tag_381:\n        /* \"saf.sol\":24632:24637  _flag */\n      dup1\n        /* \"saf.sol\":24629:24803  if(_flag) {\r... */\n      iszero\n      tag_383\n      jumpi\n        /* \"saf.sol\":24674:24679  _flag */\n      dup1\n        /* \"saf.sol\":24654:24671  _autoAddLiquidity */\n      0x16\n      dup1\n        /* \"saf.sol\":24654:24679  _autoAddLiquidity = _flag */\n      0x0100\n      exp\n      dup2\n      sload\n      dup2\n      0xff\n      mul\n      not\n      and\n      swap1\n      dup4\n      iszero\n      iszero\n      mul\n      or\n      swap1\n      sstore\n      pop\n        /* \"saf.sol\":24718:24733  block.timestamp */\n      timestamp\n        /* \"saf.sol\":24694:24715  _lastAddLiquidityTime */\n      0x19\n        /* \"saf.sol\":24694:24733  _lastAddLiquidityTime = block.timestamp */\n      dup2\n      swap1\n      sstore\n      pop\n        /* \"saf.sol\":24629:24803  if(_flag) {\r... */\n      jump(tag_384)\n    tag_383:\n        /* \"saf.sol\":24786:24791  _flag */\n      dup1\n        /* \"saf.sol\":24766:24783  _autoAddLiquidity */\n      0x16\n      dup1\n        /* \"saf.sol\":24766:24791  _autoAddLiquidity = _flag */\n      0x0100\n      exp\n      dup2\n      sload\n      dup2\n      0xff\n      mul\n      not\n      and\n      swap1\n      dup4\n      iszero\n      iszero\n      mul\n      or\n      swap1\n      sstore\n      pop\n        /* \"saf.sol\":24629:24803  if(_flag) {\r... */\n    tag_384:\n        /* \"saf.sol\":24558:24810  function setAutoAddLiquidity(bool _flag) external onlyOwner {\r... */\n      pop\n      jump\t// out\n        /* \"saf.sol\":12507:12536  string public _name = \"Safuu\" */\n    tag_250:\n      0x03\n      dup1\n      sload\n      0x01\n      dup2\n      0x01\n      and\n      iszero\n      0x0100\n      mul\n      sub\n      and\n      0x02\n      swap1\n      div\n      dup1\n      0x1f\n      add\n      0x20\n      dup1\n      swap2\n      div\n      mul\n      0x20\n      add\n      mload(0x40)\n      swap1\n      dup2\n      add\n      0x40\n      mstore\n      dup1\n      swap3\n      swap2\n      swap1\n      dup2\n      dup2\n      mstore\n      0x20\n      add\n      dup3\n      dup1\n      sload\n      0x01\n      dup2\n      0x01\n      and\n      iszero\n      0x0100\n      mul\n      sub\n      and\n      0x02\n      swap1\n      div\n      dup1\n      iszero\n      tag_385\n      jumpi\n      dup1\n      0x1f\n      lt\n      tag_386\n      jumpi\n      0x0100\n      dup1\n      dup4\n      sload\n      div\n      mul\n      dup4\n      mstore\n      swap2\n      0x20\n      add\n      swap2\n      jump(tag_385)\n    tag_386:\n      dup3\n      add\n      swap2\n      swap1\n      0x00\n      mstore\n      keccak256(0x00, 0x20)\n      swap1\n    tag_387:\n      dup2\n      sload\n      dup2\n      mstore\n      swap1\n      0x01\n      add\n      swap1\n      0x20\n      add\n      dup1\n      dup4\n      gt\n      tag_387\n      jumpi\n      dup3\n      swap1\n      sub\n      0x1f\n      and\n      dup3\n      add\n      swap2\n    tag_385:\n      pop\n      pop\n      pop\n      pop\n      pop\n      dup2\n      jump\t// out\n        /* \"saf.sol\":26299:26412  function checkFeeExempt(address _addr) external view returns (bool) {\r... */\n    tag_258:\n        /* \"saf.sol\":26361:26365  bool */\n      0x00\n        /* \"saf.sol\":26385:26397  _isFeeExempt */\n      0x06\n        /* \"saf.sol\":26385:26404  _isFeeExempt[_addr] */\n      0x00\n        /* \"saf.sol\":26398:26403  _addr */\n      dup4\n        /* \"saf.sol\":26385:26404  _isFeeExempt[_addr] */\n      0xffffffffffffffffffffffffffffffffffffffff\n      and\n      0xffffffffffffffffffffffffffffffffffffffff\n      and\n      dup2\n      mstore\n      0x20\n      add\n      swap1\n      dup2\n      mstore\n      0x20\n      add\n      0x00\n      keccak256\n      0x00\n      swap1\n      sload\n      swap1\n      0x0100\n      exp\n      swap1\n      div\n      0xff\n      and\n        /* \"saf.sol\":26378:26404  return _isFeeExempt[_addr] */\n      swap1\n      pop\n        /* \"saf.sol\":26299:26412  function checkFeeExempt(address _addr) external view returns (bool) {\r... */\n      swap2\n      swap1\n      pop\n      jump\t// out\n        /* \"saf.sol\":27240:27531  function getLiquidityBacking(uint256 accuracy)\r... */\n    tag_262:\n        /* \"saf.sol\":27335:27342  uint256 */\n      0x00\n        /* \"saf.sol\":27360:27384  uint256 liquidityBalance */\n      dup1\n        /* \"saf.sol\":27387:27427  _gonBalances[pair].div(_gonsPerFragment) */\n      tag_390\n        /* \"saf.sol\":27410:27426  _gonsPerFragment */\n      sload(0x1b)\n        /* \"saf.sol\":27387:27399  _gonBalances */\n      0x1c\n        /* \"saf.sol\":27387:27405  _gonBalances[pair] */\n      0x00\n        /* \"saf.sol\":27400:27404  pair */\n      0x16\n      0x00\n      swap1\n      sload\n      swap1\n      0x0100\n      exp\n      swap1\n      div\n      0xffffffffffffffffffffffffffffffffffffffff\n      and\n        /* \"saf.sol\":27387:27405  _gonBalances[pair] */\n      0xffffffffffffffffffffffffffffffffffffffff\n      and\n      0xffffffffffffffffffffffffffffffffffffffff\n      and\n      dup2\n      mstore\n      0x20\n      add\n      swap1\n      dup2\n      mstore\n      0x20\n      add\n      0x00\n      keccak256\n      sload\n        /* \"saf.sol\":27387:27409  _gonBalances[pair].div */\n      tag_283\n      swap1\n        /* \"saf.sol\":27387:27427  _gonBalances[pair].div(_gonsPerFragment) */\n      swap2\n      swap1\n      0xffffffff\n      and\n      jump\t// in\n    tag_390:\n        /* \"saf.sol\":27360:27427  uint256 liquidityBalance = _gonBalances[pair].div(_gonsPerFragment) */\n      swap1\n      pop\n        /* \"saf.sol\":27458:27523  accuracy.mul(liquidityBalance.mul(2)).div(getCirculatingSupply()) */\n      tag_391\n        /* \"saf.sol\":27500:27522  getCirculatingSupply() */\n      tag_392\n        /* \"saf.sol\":27500:27520  getCirculatingSupply */\n      tag_106\n        /* \"saf.sol\":27500:27522  getCirculatingSupply() */\n      jump\t// in\n    tag_392:\n        /* \"saf.sol\":27458:27495  accuracy.mul(liquidityBalance.mul(2)) */\n      tag_393\n        /* \"saf.sol\":27471:27494  liquidityBalance.mul(2) */\n      tag_394\n        /* \"saf.sol\":27492:27493  2 */\n      0x02\n        /* \"saf.sol\":27471:27487  liquidityBalance */\n      dup6\n        /* \"saf.sol\":27471:27491  liquidityBalance.mul */\n      tag_395\n      swap1\n        /* \"saf.sol\":27471:27494  liquidityBalance.mul(2) */\n      swap2\n      swap1\n      0xffffffff\n      and\n      jump\t// in\n    tag_394:\n        /* \"saf.sol\":27458:27466  accuracy */\n      dup7\n        /* \"saf.sol\":27458:27470  accuracy.mul */\n      tag_395\n      swap1\n        /* \"saf.sol\":27458:27495  accuracy.mul(liquidityBalance.mul(2)) */\n      swap2\n      swap1\n      0xffffffff\n      and\n      jump\t// in\n    tag_393:\n        /* \"saf.sol\":27458:27499  accuracy.mul(liquidityBalance.mul(2)).div */\n      tag_283\n      swap1\n        /* \"saf.sol\":27458:27523  accuracy.mul(liquidityBalance.mul(2)).div(getCirculatingSupply()) */\n      swap2\n      swap1\n      0xffffffff\n      and\n      jump\t// in\n    tag_391:\n        /* \"saf.sol\":27438:27523  return\r... */\n      swap2\n      pop\n      pop\n        /* \"saf.sol\":27240:27531  function getLiquidityBacking(uint256 accuracy)\r... */\n      swap2\n      swap1\n      pop\n      jump\t// out\n        /* \"saf.sol\":24818:25012  function allowance(address owner_, address spender)\r... */\n    tag_266:\n        /* \"saf.sol\":24938:24945  uint256 */\n      0x00\n        /* \"saf.sol\":24970:24987  _allowedFragments */\n      0x1d\n        /* \"saf.sol\":24970:24995  _allowedFragments[owner_] */\n      0x00\n        /* \"saf.sol\":24988:24994  owner_ */\n      dup5\n        /* \"saf.sol\":24970:24995  _allowedFragments[owner_] */\n      0xffffffffffffffffffffffffffffffffffffffff\n      and\n      0xffffffffffffffffffffffffffffffffffffffff\n      and\n      dup2\n      mstore\n      0x20\n      add\n      swap1\n      dup2\n      mstore\n      0x20\n      add\n      0x00\n      keccak256\n        /* \"saf.sol\":24970:25004  _allowedFragments[owner_][spender] */\n      0x00\n        /* \"saf.sol\":24996:25003  spender */\n      dup4\n        /* \"saf.sol\":24970:25004  _allowedFragments[owner_][spender] */\n      0xffffffffffffffffffffffffffffffffffffffff\n      and\n      0xffffffffffffffffffffffffffffffffffffffff\n      and\n      dup2\n      mstore\n      0x20\n      add\n      swap1\n      dup2\n      mstore\n      0x20\n      add\n      0x00\n      keccak256\n      sload\n        /* \"saf.sol\":24963:25004  return _allowedFragments[owner_][spender] */\n      swap1\n      pop\n        /* \"saf.sol\":24818:25012  function allowance(address owner_, address spender)\r... */\n      swap3\n      swap2\n      pop\n      pop\n      jump\t// out\n        /* \"saf.sol\":24320:24550  function setAutoRebase(bool _flag) external onlyOwner {\r... */\n    tag_270:\n        /* \"saf.sol\":11116:11125  isOwner() */\n      tag_398\n        /* \"saf.sol\":11116:11123  isOwner */\n      tag_187\n        /* \"saf.sol\":11116:11125  isOwner() */\n      jump\t// in\n    tag_398:\n        /* \"saf.sol\":11108:11126  require(isOwner()) */\n      tag_399\n      jumpi\n      0x00\n      dup1\n      revert\n    tag_399:\n        /* \"saf.sol\":24389:24394  _flag */\n      dup1\n        /* \"saf.sol\":24385:24543  if (_flag) {\r... */\n      iszero\n      tag_401\n      jumpi\n        /* \"saf.sol\":24425:24430  _flag */\n      dup1\n        /* \"saf.sol\":24411:24422  _autoRebase */\n      0x16\n      0x15\n        /* \"saf.sol\":24411:24430  _autoRebase = _flag */\n      0x0100\n      exp\n      dup2\n      sload\n      dup2\n      0xff\n      mul\n      not\n      and\n      swap1\n      dup4\n      iszero\n      iszero\n      mul\n      or\n      swap1\n      sstore\n      pop\n        /* \"saf.sol\":24464:24479  block.timestamp */\n      timestamp\n        /* \"saf.sol\":24445:24461  _lastRebasedTime */\n      0x18\n        /* \"saf.sol\":24445:24479  _lastRebasedTime = block.timestamp */\n      dup2\n      swap1\n      sstore\n      pop\n        /* \"saf.sol\":24385:24543  if (_flag) {\r... */\n      jump(tag_402)\n    tag_401:\n        /* \"saf.sol\":24526:24531  _flag */\n      dup1\n        /* \"saf.sol\":24512:24523  _autoRebase */\n      0x16\n      0x15\n        /* \"saf.sol\":24512:24531  _autoRebase = _flag */\n      0x0100\n      exp\n      dup2\n      sload\n      dup2\n      0xff\n      mul\n      not\n      and\n      swap1\n      dup4\n      iszero\n      iszero\n      mul\n      or\n      swap1\n      sstore\n      pop\n        /* \"saf.sol\":24385:24543  if (_flag) {\r... */\n    tag_402:\n        /* \"saf.sol\":24320:24550  function setAutoRebase(bool _flag) external onlyOwner {\r... */\n      pop\n      jump\t// out\n        /* \"saf.sol\":11388:11497  function transferOwnership(address newOwner) public onlyOwner {\r... */\n    tag_274:\n        /* \"saf.sol\":11116:11125  isOwner() */\n      tag_404\n        /* \"saf.sol\":11116:11123  isOwner */\n      tag_187\n        /* \"saf.sol\":11116:11125  isOwner() */\n      jump\t// in\n    tag_404:\n        /* \"saf.sol\":11108:11126  require(isOwner()) */\n      tag_405\n      jumpi\n      0x00\n      dup1\n      revert\n    tag_405:\n        /* \"saf.sol\":11461:11489  _transferOwnership(newOwner) */\n      tag_407\n        /* \"saf.sol\":11480:11488  newOwner */\n      dup2\n        /* \"saf.sol\":11461:11479  _transferOwnership */\n      tag_408\n        /* \"saf.sol\":11461:11489  _transferOwnership(newOwner) */\n      jump\t// in\n    tag_407:\n        /* \"saf.sol\":11388:11497  function transferOwnership(address newOwner) public onlyOwner {\r... */\n      pop\n      jump\t// out\n        /* \"saf.sol\":13787:13819  IPancakeSwapRouter public router */\n    tag_277:\n      0x15\n      0x00\n      swap1\n      sload\n      swap1\n      0x0100\n      exp\n      swap1\n      div\n      0xffffffffffffffffffffffffffffffffffffffff\n      and\n      dup2\n      jump\t// out\n        /* \"saf.sol\":14557:14598  mapping(address => bool) public blacklist */\n    tag_281:\n      mstore(0x20, 0x1e)\n      dup1\n      0x00\n      mstore\n      keccak256(0x00, 0x40)\n      0x00\n      swap2\n      pop\n      sload\n      swap1\n      0x0100\n      exp\n      swap1\n      div\n      0xff\n      and\n      dup2\n      jump\t// out\n        /* \"saf.sol\":1260:1441  function add(uint256 a, uint256 b) internal pure returns (uint256) {\r... */\n    tag_282:\n        /* \"saf.sol\":1318:1325  uint256 */\n      0x00\n        /* \"saf.sol\":1338:1347  uint256 c */\n      dup1\n        /* \"saf.sol\":1354:1355  b */\n      dup3\n        /* \"saf.sol\":1350:1351  a */\n      dup5\n        /* \"saf.sol\":1350:1355  a + b */\n      add\n        /* \"saf.sol\":1338:1355  uint256 c = a + b */\n      swap1\n      pop\n        /* \"saf.sol\":1379:1380  a */\n      dup4\n        /* \"saf.sol\":1374:1375  c */\n      dup2\n        /* \"saf.sol\":1374:1380  c >= a */\n      lt\n      iszero\n        /* \"saf.sol\":1366:1412  require(c >= a, \"SafeMath: addition overflow\") */\n      tag_410\n      jumpi\n      mload(0x40)\n      0x08c379a000000000000000000000000000000000000000000000000000000000\n      dup2\n      mstore\n      0x04\n      add\n      dup1\n      dup1\n      0x20\n      add\n      dup3\n      dup2\n      sub\n      dup3\n      mstore\n      0x1b\n      dup2\n      mstore\n      0x20\n      add\n      dup1\n      0x536166654d6174683a206164646974696f6e206f766572666c6f770000000000\n      dup2\n      mstore\n      pop\n      0x20\n      add\n      swap2\n      pop\n      pop\n      mload(0x40)\n      dup1\n      swap2\n      sub\n      swap1\n      revert\n    tag_410:\n        /* \"saf.sol\":1432:1433  c */\n      dup1\n        /* \"saf.sol\":1425:1433  return c */\n      swap2\n      pop\n      pop\n        /* \"saf.sol\":1260:1441  function add(uint256 a, uint256 b) internal pure returns (uint256) {\r... */\n      swap3\n      swap2\n      pop\n      pop\n      jump\t// out\n        /* \"saf.sol\":2085:2217  function div(uint256 a, uint256 b) internal pure returns (uint256) {\r... */\n    tag_283:\n        /* \"saf.sol\":2143:2150  uint256 */\n      0x00\n        /* \"saf.sol\":2170:2209  div(a, b, \"SafeMath: division by zero\") */\n      tag_412\n        /* \"saf.sol\":2174:2175  a */\n      dup4\n        /* \"saf.sol\":2177:2178  b */\n      dup4\n        /* \"saf.sol\":2170:2209  div(a, b, \"SafeMath: division by zero\") */\n      mload(0x40)\n      dup1\n      0x40\n      add\n      0x40\n      mstore\n      dup1\n      0x1a\n      dup2\n      mstore\n      0x20\n      add\n      0x536166654d6174683a206469766973696f6e206279207a65726f000000000000\n      dup2\n      mstore\n      pop\n        /* \"saf.sol\":2170:2173  div */\n      tag_413\n        /* \"saf.sol\":2170:2209  div(a, b, \"SafeMath: division by zero\") */\n      jump\t// in\n    tag_412:\n        /* \"saf.sol\":2163:2209  return div(a, b, \"SafeMath: division by zero\") */\n      swap1\n      pop\n        /* \"saf.sol\":2085:2217  function div(uint256 a, uint256 b) internal pure returns (uint256) {\r... */\n      swap3\n      swap2\n      pop\n      pop\n      jump\t// out\n        /* \"saf.sol\":1593:1819  function sub(\r... */\n    tag_295:\n        /* \"saf.sol\":1713:1720  uint256 */\n      0x00\n        /* \"saf.sol\":1746:1747  a */\n      dup4\n        /* \"saf.sol\":1741:1742  b */\n      dup4\n        /* \"saf.sol\":1741:1747  b <= a */\n      gt\n      iszero\n        /* \"saf.sol\":1749:1761  errorMessage */\n      dup3\n        /* \"saf.sol\":1733:1762  require(b <= a, errorMessage) */\n      swap1\n      tag_415\n      jumpi\n      mload(0x40)\n      0x08c379a000000000000000000000000000000000000000000000000000000000\n      dup2\n      mstore\n      0x04\n      add\n      dup1\n      dup1\n      0x20\n      add\n      dup3\n      dup2\n      sub\n      dup3\n      mstore\n      dup4\n      dup2\n      dup2\n      mload\n      dup2\n      mstore\n      0x20\n      add\n      swap2\n      pop\n      dup1\n      mload\n      swap1\n      0x20\n      add\n      swap1\n      dup1\n      dup4\n      dup4\n      0x00\n    tag_416:\n      dup4\n      dup2\n      lt\n      iszero\n      tag_418\n      jumpi\n      dup1\n      dup3\n      add\n      mload\n      dup2\n      dup5\n      add\n      mstore\n      0x20\n      dup2\n      add\n      swap1\n      pop\n      jump(tag_416)\n    tag_418:\n      pop\n      pop\n      pop\n      pop\n      swap1\n      pop\n      swap1\n      dup2\n      add\n      swap1\n      0x1f\n      and\n      dup1\n      iszero\n      tag_419\n      jumpi\n      dup1\n      dup3\n      sub\n      dup1\n      mload\n      0x01\n      dup4\n      0x20\n      sub\n      0x0100\n      exp\n      sub\n      not\n      and\n      dup2\n      mstore\n      0x20\n      add\n      swap2\n      pop\n    tag_419:\n      pop\n      swap3\n      pop\n      pop\n      pop\n      mload(0x40)\n      dup1\n      swap2\n      sub\n      swap1\n      revert\n    tag_415:\n      pop\n        /* \"saf.sol\":1773:1782  uint256 c */\n      0x00\n        /* \"saf.sol\":1789:1790  b */\n      dup4\n        /* \"saf.sol\":1785:1786  a */\n      dup6\n        /* \"saf.sol\":1785:1790  a - b */\n      sub\n        /* \"saf.sol\":1773:1790  uint256 c = a - b */\n      swap1\n      pop\n        /* \"saf.sol\":1810:1811  c */\n      dup1\n        /* \"saf.sol\":1803:1811  return c */\n      swap2\n      pop\n      pop\n        /* \"saf.sol\":1593:1819  function sub(\r... */\n      swap4\n      swap3\n      pop\n      pop\n      pop\n      jump\t// out\n        /* \"saf.sol\":18072:19152  function _transferFrom(\r... */\n    tag_297:\n        /* \"saf.sol\":18198:18202  bool */\n      0x00\n        /* \"saf.sol\":18226:18235  blacklist */\n      0x1e\n        /* \"saf.sol\":18226:18243  blacklist[sender] */\n      0x00\n        /* \"saf.sol\":18236:18242  sender */\n      dup6\n        /* \"saf.sol\":18226:18243  blacklist[sender] */\n      0xffffffffffffffffffffffffffffffffffffffff\n      and\n      0xffffffffffffffffffffffffffffffffffffffff\n      and\n      dup2\n      mstore\n      0x20\n      add\n      swap1\n      dup2\n      mstore\n      0x20\n      add\n      0x00\n      keccak256\n      0x00\n      swap1\n      sload\n      swap1\n      0x0100\n      exp\n      swap1\n      div\n      0xff\n      and\n        /* \"saf.sol\":18225:18243  !blacklist[sender] */\n      iszero\n        /* \"saf.sol\":18225:18268  !blacklist[sender] && !blacklist[recipient] */\n      dup1\n      iszero\n      tag_421\n      jumpi\n      pop\n        /* \"saf.sol\":18248:18257  blacklist */\n      0x1e\n        /* \"saf.sol\":18248:18268  blacklist[recipient] */\n      0x00\n        /* \"saf.sol\":18258:18267  recipient */\n      dup5\n        /* \"saf.sol\":18248:18268  blacklist[recipient] */\n      0xffffffffffffffffffffffffffffffffffffffff\n      and\n      0xffffffffffffffffffffffffffffffffffffffff\n      and\n      dup2\n      mstore\n      0x20\n      add\n      swap1\n      dup2\n      mstore\n      0x20\n      add\n      0x00\n      keccak256\n      0x00\n      swap1\n      sload\n      swap1\n      0x0100\n      exp\n      swap1\n      div\n      0xff\n      and\n        /* \"saf.sol\":18247:18268  !blacklist[recipient] */\n      iszero\n        /* \"saf.sol\":18225:18268  !blacklist[sender] && !blacklist[recipient] */\n    tag_421:\n        /* \"saf.sol\":18217:18285  require(!blacklist[sender] && !blacklist[recipient], \"in_blacklist\") */\n      tag_422\n      jumpi\n      mload(0x40)\n      0x08c379a000000000000000000000000000000000000000000000000000000000\n      dup2\n      mstore\n      0x04\n      add\n      dup1\n      dup1\n      0x20\n      add\n      dup3\n      dup2\n      sub\n      dup3\n      mstore\n      0x0c\n      dup2\n      mstore\n      0x20\n      add\n      dup1\n      0x696e5f626c61636b6c6973740000000000000000000000000000000000000000\n      dup2\n      mstore\n      pop\n      0x20\n      add\n      swap2\n      pop\n      pop\n      mload(0x40)\n      dup1\n      swap2\n      sub\n      swap1\n      revert\n    tag_422:\n        /* \"saf.sol\":18302:18308  inSwap */\n      0x16\n      0x14\n      swap1\n      sload\n      swap1\n      0x0100\n      exp\n      swap1\n      div\n      0xff\n      and\n        /* \"saf.sol\":18298:18385  if (inSwap) {\r... */\n      iszero\n      tag_423\n      jumpi\n        /* \"saf.sol\":18332:18373  _basicTransfer(sender, recipient, amount) */\n      tag_424\n        /* \"saf.sol\":18347:18353  sender */\n      dup5\n        /* \"saf.sol\":18355:18364  recipient */\n      dup5\n        /* \"saf.sol\":18366:18372  amount */\n      dup5\n        /* \"saf.sol\":18332:18346  _basicTransfer */\n      tag_425\n        /* \"saf.sol\":18332:18373  _basicTransfer(sender, recipient, amount) */\n      jump\t// in\n    tag_424:\n        /* \"saf.sol\":18325:18373  return _basicTransfer(sender, recipient, amount) */\n      swap1\n      pop\n      jump(tag_420)\n        /* \"saf.sol\":18298:18385  if (inSwap) {\r... */\n    tag_423:\n        /* \"saf.sol\":18399:18413  shouldRebase() */\n      tag_426\n        /* \"saf.sol\":18399:18411  shouldRebase */\n      tag_427\n        /* \"saf.sol\":18399:18413  shouldRebase() */\n      jump\t// in\n    tag_426:\n        /* \"saf.sol\":18395:18449  if (shouldRebase()) {\r... */\n      iszero\n      tag_428\n      jumpi\n        /* \"saf.sol\":18429:18437  rebase() */\n      tag_429\n        /* \"saf.sol\":18429:18435  rebase */\n      tag_430\n        /* \"saf.sol\":18429:18437  rebase() */\n      jump\t// in\n    tag_429:\n        /* \"saf.sol\":18395:18449  if (shouldRebase()) {\r... */\n    tag_428:\n        /* \"saf.sol\":18465:18485  shouldAddLiquidity() */\n      tag_431\n        /* \"saf.sol\":18465:18483  shouldAddLiquidity */\n      tag_432\n        /* \"saf.sol\":18465:18485  shouldAddLiquidity() */\n      jump\t// in\n    tag_431:\n        /* \"saf.sol\":18461:18528  if (shouldAddLiquidity()) {\r... */\n      iszero\n      tag_433\n      jumpi\n        /* \"saf.sol\":18502:18516  addLiquidity() */\n      tag_434\n        /* \"saf.sol\":18502:18514  addLiquidity */\n      tag_435\n        /* \"saf.sol\":18502:18516  addLiquidity() */\n      jump\t// in\n    tag_434:\n        /* \"saf.sol\":18461:18528  if (shouldAddLiquidity()) {\r... */\n    tag_433:\n        /* \"saf.sol\":18544:18560  shouldSwapBack() */\n      tag_436\n        /* \"saf.sol\":18544:18558  shouldSwapBack */\n      tag_437\n        /* \"saf.sol\":18544:18560  shouldSwapBack() */\n      jump\t// in\n    tag_436:\n        /* \"saf.sol\":18540:18599  if (shouldSwapBack()) {\r... */\n      iszero\n      tag_438\n      jumpi\n        /* \"saf.sol\":18577:18587  swapBack() */\n      tag_439\n        /* \"saf.sol\":18577:18585  swapBack */\n      tag_440\n        /* \"saf.sol\":18577:18587  swapBack() */\n      jump\t// in\n    tag_439:\n        /* \"saf.sol\":18540:18599  if (shouldSwapBack()) {\r... */\n    tag_438:\n        /* \"saf.sol\":18611:18628  uint256 gonAmount */\n      0x00\n        /* \"saf.sol\":18631:18659  amount.mul(_gonsPerFragment) */\n      tag_441\n        /* \"saf.sol\":18642:18658  _gonsPerFragment */\n      sload(0x1b)\n        /* \"saf.sol\":18631:18637  amount */\n      dup5\n        /* \"saf.sol\":18631:18641  amount.mul */\n      tag_395\n      swap1\n        /* \"saf.sol\":18631:18659  amount.mul(_gonsPerFragment) */\n      swap2\n      swap1\n      0xffffffff\n      and\n      jump\t// in\n    tag_441:\n        /* \"saf.sol\":18611:18659  uint256 gonAmount = amount.mul(_gonsPerFragment) */\n      swap1\n      pop\n        /* \"saf.sol\":18693:18728  _gonBalances[sender].sub(gonAmount) */\n      tag_442\n        /* \"saf.sol\":18718:18727  gonAmount */\n      dup2\n        /* \"saf.sol\":18693:18705  _gonBalances */\n      0x1c\n        /* \"saf.sol\":18693:18713  _gonBalances[sender] */\n      0x00\n        /* \"saf.sol\":18706:18712  sender */\n      dup9\n        /* \"saf.sol\":18693:18713  _gonBalances[sender] */\n      0xffffffffffffffffffffffffffffffffffffffff\n      and\n      0xffffffffffffffffffffffffffffffffffffffff\n      and\n      dup2\n      mstore\n      0x20\n      add\n      swap1\n      dup2\n      mstore\n      0x20\n      add\n      0x00\n      keccak256\n      sload\n        /* \"saf.sol\":18693:18717  _gonBalances[sender].sub */\n      tag_303\n      swap1\n        /* \"saf.sol\":18693:18728  _gonBalances[sender].sub(gonAmount) */\n      swap2\n      swap1\n      0xffffffff\n      and\n      jump\t// in\n    tag_442:\n        /* \"saf.sol\":18670:18682  _gonBalances */\n      0x1c\n        /* \"saf.sol\":18670:18690  _gonBalances[sender] */\n      0x00\n        /* \"saf.sol\":18683:18689  sender */\n      dup8\n        /* \"saf.sol\":18670:18690  _gonBalances[sender] */\n      0xffffffffffffffffffffffffffffffffffffffff\n      and\n      0xffffffffffffffffffffffffffffffffffffffff\n      and\n      dup2\n      mstore\n      0x20\n      add\n      swap1\n      dup2\n      mstore\n      0x20\n      add\n      0x00\n      keccak256\n        /* \"saf.sol\":18670:18728  _gonBalances[sender] = _gonBalances[sender].sub(gonAmount) */\n      dup2\n      swap1\n      sstore\n      pop\n        /* \"saf.sol\":18739:18764  uint256 gonAmountReceived */\n      0x00\n        /* \"saf.sol\":18767:18799  shouldTakeFee(sender, recipient) */\n      tag_443\n        /* \"saf.sol\":18781:18787  sender */\n      dup7\n        /* \"saf.sol\":18789:18798  recipient */\n      dup7\n        /* \"saf.sol\":18767:18780  shouldTakeFee */\n      tag_444\n        /* \"saf.sol\":18767:18799  shouldTakeFee(sender, recipient) */\n      jump\t// in\n    tag_443:\n        /* \"saf.sol\":18767:18877  shouldTakeFee(sender, recipient)\r... */\n      tag_445\n      jumpi\n        /* \"saf.sol\":18868:18877  gonAmount */\n      dup2\n        /* \"saf.sol\":18767:18877  shouldTakeFee(sender, recipient)\r... */\n      jump(tag_446)\n    tag_445:\n        /* \"saf.sol\":18815:18852  takeFee(sender, recipient, gonAmount) */\n      tag_447\n        /* \"saf.sol\":18823:18829  sender */\n      dup7\n        /* \"saf.sol\":18831:18840  recipient */\n      dup7\n        /* \"saf.sol\":18842:18851  gonAmount */\n      dup5\n        /* \"saf.sol\":18815:18822  takeFee */\n      tag_448\n        /* \"saf.sol\":18815:18852  takeFee(sender, recipient, gonAmount) */\n      jump\t// in\n    tag_447:\n        /* \"saf.sol\":18767:18877  shouldTakeFee(sender, recipient)\r... */\n    tag_446:\n        /* \"saf.sol\":18739:18877  uint256 gonAmountReceived = shouldTakeFee(sender, recipient)\r... */\n      swap1\n      pop\n        /* \"saf.sol\":18914:18984  _gonBalances[recipient].add(\r... */\n      tag_449\n        /* \"saf.sol\":18956:18973  gonAmountReceived */\n      dup2\n        /* \"saf.sol\":18914:18926  _gonBalances */\n      0x1c\n        /* \"saf.sol\":18914:18937  _gonBalances[recipient] */\n      0x00\n        /* \"saf.sol\":18927:18936  recipient */\n      dup9\n        /* \"saf.sol\":18914:18937  _gonBalances[recipient] */\n      0xffffffffffffffffffffffffffffffffffffffff\n      and\n      0xffffffffffffffffffffffffffffffffffffffff\n      and\n      dup2\n      mstore\n      0x20\n      add\n      swap1\n      dup2\n      mstore\n      0x20\n      add\n      0x00\n      keccak256\n      sload\n        /* \"saf.sol\":18914:18941  _gonBalances[recipient].add */\n      tag_282\n      swap1\n        /* \"saf.sol\":18914:18984  _gonBalances[recipient].add(\r... */\n      swap2\n      swap1\n      0xffffffff\n      and\n      jump\t// in\n    tag_449:\n        /* \"saf.sol\":18888:18900  _gonBalances */\n      0x1c\n        /* \"saf.sol\":18888:18911  _gonBalances[recipient] */\n      0x00\n        /* \"saf.sol\":18901:18910  recipient */\n      dup8\n        /* \"saf.sol\":18888:18911  _gonBalances[recipient] */\n      0xffffffffffffffffffffffffffffffffffffffff\n      and\n      0xffffffffffffffffffffffffffffffffffffffff\n      and\n      dup2\n      mstore\n      0x20\n      add\n      swap1\n      dup2\n      mstore\n      0x20\n      add\n      0x00\n      keccak256\n        /* \"saf.sol\":18888:18984  _gonBalances[recipient] = _gonBalances[recipient].add(\r... */\n      dup2\n      swap1\n      sstore\n      pop\n        /* \"saf.sol\":19048:19057  recipient */\n      dup5\n        /* \"saf.sol\":19004:19122  Transfer(\r... */\n      0xffffffffffffffffffffffffffffffffffffffff\n      and\n        /* \"saf.sol\":19027:19033  sender */\n      dup7\n        /* \"saf.sol\":19004:19122  Transfer(\r... */\n      0xffffffffffffffffffffffffffffffffffffffff\n      and\n      0xddf252ad1be2c89b69c2b068fc378daa952ba7f163c4a11628f55a4df523b3ef\n        /* \"saf.sol\":19072:19111  gonAmountReceived.div(_gonsPerFragment) */\n      tag_450\n        /* \"saf.sol\":19094:19110  _gonsPerFragment */\n      sload(0x1b)\n        /* \"saf.sol\":19072:19089  gonAmountReceived */\n      dup6\n        /* \"saf.sol\":19072:19093  gonAmountReceived.div */\n      tag_283\n      swap1\n        /* \"saf.sol\":19072:19111  gonAmountReceived.div(_gonsPerFragment) */\n      swap2\n      swap1\n      0xffffffff\n      and\n      jump\t// in\n    tag_450:\n        /* \"saf.sol\":19004:19122  Transfer(\r... */\n      mload(0x40)\n      dup1\n      dup3\n      dup2\n      mstore\n      0x20\n      add\n      swap2\n      pop\n      pop\n      mload(0x40)\n      dup1\n      swap2\n      sub\n      swap1\n      log3\n        /* \"saf.sol\":19140:19144  true */\n      0x01\n        /* \"saf.sol\":19133:19144  return true */\n      swap3\n      pop\n      pop\n      pop\n        /* \"saf.sol\":18072:19152  function _transferFrom(\r... */\n    tag_420:\n      swap4\n      swap3\n      pop\n      pop\n      pop\n      jump\t// out\n        /* \"saf.sol\":1449:1585  function sub(uint256 a, uint256 b) internal pure returns (uint256) {\r... */\n    tag_303:\n        /* \"saf.sol\":1507:1514  uint256 */\n      0x00\n        /* \"saf.sol\":1534:1577  sub(a, b, \"SafeMath: subtraction overflow\") */\n      tag_452\n        /* \"saf.sol\":1538:1539  a */\n      dup4\n        /* \"saf.sol\":1541:1542  b */\n      dup4\n        /* \"saf.sol\":1534:1577  sub(a, b, \"SafeMath: subtraction overflow\") */\n      mload(0x40)\n      dup1\n      0x40\n      add\n      0x40\n      mstore\n      dup1\n      0x1e\n      dup2\n      mstore\n      0x20\n      add\n      0x536166654d6174683a207375627472616374696f6e206f766572666c6f770000\n      dup2\n      mstore\n      pop\n        /* \"saf.sol\":1534:1537  sub */\n      tag_295\n        /* \"saf.sol\":1534:1577  sub(a, b, \"SafeMath: subtraction overflow\") */\n      jump\t// in\n    tag_452:\n        /* \"saf.sol\":1527:1577  return sub(a, b, \"SafeMath: subtraction overflow\") */\n      swap1\n      pop\n        /* \"saf.sol\":1449:1585  function sub(uint256 a, uint256 b) internal pure returns (uint256) {\r... */\n      swap3\n      swap2\n      pop\n      pop\n      jump\t// out\n        /* \"saf.sol\":28395:28560  function isContract(address addr) internal view returns (bool) {\r... */\n    tag_314:\n        /* \"saf.sol\":28452:28456  bool */\n      0x00\n        /* \"saf.sol\":28469:28478  uint size */\n      dup1\n        /* \"saf.sol\":28520:28524  addr */\n      dup3\n        /* \"saf.sol\":28508:28525  extcodesize(addr) */\n      extcodesize\n        /* \"saf.sol\":28500:28525  size := extcodesize(addr) */\n      swap1\n      pop\n        /* \"saf.sol\":28551:28552  0 */\n      0x00\n        /* \"saf.sol\":28544:28548  size */\n      dup2\n        /* \"saf.sol\":28544:28552  size > 0 */\n      gt\n        /* \"saf.sol\":28537:28552  return size > 0 */\n      swap2\n      pop\n      pop\n        /* \"saf.sol\":28395:28560  function isContract(address addr) internal view returns (bool) {\r... */\n      swap2\n      swap1\n      pop\n      jump\t// out\n        /* \"saf.sol\":1827:2077  function mul(uint256 a, uint256 b) internal pure returns (uint256) {\r... */\n    tag_395:\n        /* \"saf.sol\":1885:1892  uint256 */\n      0x00\n        /* \"saf.sol\":1914:1915  0 */\n      dup1\n        /* \"saf.sol\":1909:1910  a */\n      dup4\n        /* \"saf.sol\":1909:1915  a == 0 */\n      eq\n        /* \"saf.sol\":1905:1952  if (a == 0) {\r... */\n      iszero\n      tag_455\n      jumpi\n        /* \"saf.sol\":1939:1940  0 */\n      0x00\n        /* \"saf.sol\":1932:1940  return 0 */\n      swap1\n      pop\n      jump(tag_454)\n        /* \"saf.sol\":1905:1952  if (a == 0) {\r... */\n    tag_455:\n        /* \"saf.sol\":1964:1973  uint256 c */\n      0x00\n        /* \"saf.sol\":1980:1981  b */\n      dup3\n        /* \"saf.sol\":1976:1977  a */\n      dup5\n        /* \"saf.sol\":1976:1981  a * b */\n      mul\n        /* \"saf.sol\":1964:1981  uint256 c = a * b */\n      swap1\n      pop\n        /* \"saf.sol\":2009:2010  b */\n      dup3\n        /* \"saf.sol\":2004:2005  a */\n      dup5\n        /* \"saf.sol\":2000:2001  c */\n      dup3\n        /* \"saf.sol\":2000:2005  c / a */\n      dup2\n      tag_456\n      jumpi\n      invalid\n    tag_456:\n      div\n        /* \"saf.sol\":2000:2010  c / a == b */\n      eq\n        /* \"saf.sol\":1992:2048  require(c / a == b, \"SafeMath: multiplication overflow\") */\n      tag_457\n      jumpi\n      mload(0x40)\n      0x08c379a000000000000000000000000000000000000000000000000000000000\n      dup2\n      mstore\n      0x04\n      add\n      dup1\n      dup1\n      0x20\n      add\n      dup3\n      dup2\n      sub\n      dup3\n      mstore\n      0x21\n      dup2\n      mstore\n      0x20\n      add\n      dup1\n      data_9113bb53c2876a3805b2c9242029423fc540a728243ce887ab24c82cf119fba3\n      0x21\n      swap2\n      codecopy\n      0x40\n      add\n      swap2\n      pop\n      pop\n      mload(0x40)\n      dup1\n      swap2\n      sub\n      swap1\n      revert\n    tag_457:\n        /* \"saf.sol\":2068:2069  c */\n      dup1\n        /* \"saf.sol\":2061:2069  return c */\n      swap2\n      pop\n      pop\n        /* \"saf.sol\":1827:2077  function mul(uint256 a, uint256 b) internal pure returns (uint256) {\r... */\n    tag_454:\n      swap3\n      swap2\n      pop\n      pop\n      jump\t// out\n        /* \"saf.sol\":11505:11692  function _transferOwnership(address newOwner) internal {\r... */\n    tag_408:\n        /* \"saf.sol\":11599:11600  0 */\n      0x00\n        /* \"saf.sol\":11579:11601  newOwner != address(0) */\n      0xffffffffffffffffffffffffffffffffffffffff\n      and\n        /* \"saf.sol\":11579:11587  newOwner */\n      dup2\n        /* \"saf.sol\":11579:11601  newOwner != address(0) */\n      0xffffffffffffffffffffffffffffffffffffffff\n      and\n      eq\n      iszero\n        /* \"saf.sol\":11571:11602  require(newOwner != address(0)) */\n      tag_459\n      jumpi\n      0x00\n      dup1\n      revert\n    tag_459:\n        /* \"saf.sol\":11647:11655  newOwner */\n      dup1\n        /* \"saf.sol\":11618:11656  OwnershipTransferred(_owner, newOwner) */\n      0xffffffffffffffffffffffffffffffffffffffff\n      and\n        /* \"saf.sol\":11639:11645  _owner */\n      0x02\n      0x01\n      swap1\n      sload\n      swap1\n      0x0100\n      exp\n      swap1\n      div\n      0xffffffffffffffffffffffffffffffffffffffff\n      and\n        /* \"saf.sol\":11618:11656  OwnershipTransferred(_owner, newOwner) */\n      0xffffffffffffffffffffffffffffffffffffffff\n      and\n      0x8be0079c531659141344cd1fd0a4f28419497f9722a3daafe3b4186f6b6457e0\n      mload(0x40)\n      mload(0x40)\n      dup1\n      swap2\n      sub\n      swap1\n      log3\n        /* \"saf.sol\":11676:11684  newOwner */\n      dup1\n        /* \"saf.sol\":11667:11673  _owner */\n      0x02\n      0x01\n        /* \"saf.sol\":11667:11684  _owner = newOwner */\n      0x0100\n      exp\n      dup2\n      sload\n      dup2\n      0xffffffffffffffffffffffffffffffffffffffff\n      mul\n      not\n      and\n      swap1\n      dup4\n      0xffffffffffffffffffffffffffffffffffffffff\n      and\n      mul\n      or\n      swap1\n      sstore\n      pop\n        /* \"saf.sol\":11505:11692  function _transferOwnership(address newOwner) internal {\r... */\n      pop\n      jump\t// out\n        /* \"saf.sol\":2225:2450  function div(\r... */\n    tag_413:\n        /* \"saf.sol\":2345:2352  uint256 */\n      0x00\n        /* \"saf.sol\":2377:2378  0 */\n      dup1\n        /* \"saf.sol\":2373:2374  b */\n      dup4\n        /* \"saf.sol\":2373:2378  b > 0 */\n      gt\n        /* \"saf.sol\":2380:2392  errorMessage */\n      dup3\n        /* \"saf.sol\":2365:2393  require(b > 0, errorMessage) */\n      swap1\n      tag_461\n      jumpi\n      mload(0x40)\n      0x08c379a000000000000000000000000000000000000000000000000000000000\n      dup2\n      mstore\n      0x04\n      add\n      dup1\n      dup1\n      0x20\n      add\n      dup3\n      dup2\n      sub\n      dup3\n      mstore\n      dup4\n      dup2\n      dup2\n      mload\n      dup2\n      mstore\n      0x20\n      add\n      swap2\n      pop\n      dup1\n      mload\n      swap1\n      0x20\n      add\n      swap1\n      dup1\n      dup4\n      dup4\n      0x00\n    tag_462:\n      dup4\n      dup2\n      lt\n      iszero\n      tag_464\n      jumpi\n      dup1\n      dup3\n      add\n      mload\n      dup2\n      dup5\n      add\n      mstore\n      0x20\n      dup2\n      add\n      swap1\n      pop\n      jump(tag_462)\n    tag_464:\n      pop\n      pop\n      pop\n      pop\n      swap1\n      pop\n      swap1\n      dup2\n      add\n      swap1\n      0x1f\n      and\n      dup1\n      iszero\n      tag_465\n      jumpi\n      dup1\n      dup3\n      sub\n      dup1\n      mload\n      0x01\n      dup4\n      0x20\n      sub\n      0x0100\n      exp\n      sub\n      not\n      and\n      dup2\n      mstore\n      0x20\n      add\n      swap2\n      pop\n    tag_465:\n      pop\n      swap3\n      pop\n      pop\n      pop\n      mload(0x40)\n      dup1\n      swap2\n      sub\n      swap1\n      revert\n    tag_461:\n      pop\n        /* \"saf.sol\":2404:2413  uint256 c */\n      0x00\n        /* \"saf.sol\":2420:2421  b */\n      dup4\n        /* \"saf.sol\":2416:2417  a */\n      dup6\n        /* \"saf.sol\":2416:2421  a / b */\n      dup2\n      tag_466\n      jumpi\n      invalid\n    tag_466:\n      div\n        /* \"saf.sol\":2404:2421  uint256 c = a / b */\n      swap1\n      pop\n        /* \"saf.sol\":2441:2442  c */\n      dup1\n        /* \"saf.sol\":2434:2442  return c */\n      swap2\n      pop\n      pop\n        /* \"saf.sol\":2225:2450  function div(\r... */\n      swap4\n      swap3\n      pop\n      pop\n      pop\n      jump\t// out\n        /* \"saf.sol\":17725:18064  function _basicTransfer(\r... */\n    tag_425:\n        /* \"saf.sol\":17843:17847  bool */\n      0x00\n        /* \"saf.sol\":17860:17877  uint256 gonAmount */\n      dup1\n        /* \"saf.sol\":17880:17908  amount.mul(_gonsPerFragment) */\n      tag_468\n        /* \"saf.sol\":17891:17907  _gonsPerFragment */\n      sload(0x1b)\n        /* \"saf.sol\":17880:17886  amount */\n      dup5\n        /* \"saf.sol\":17880:17890  amount.mul */\n      tag_395\n      swap1\n        /* \"saf.sol\":17880:17908  amount.mul(_gonsPerFragment) */\n      swap2\n      swap1\n      0xffffffff\n      and\n      jump\t// in\n    tag_468:\n        /* \"saf.sol\":17860:17908  uint256 gonAmount = amount.mul(_gonsPerFragment) */\n      swap1\n      pop\n        /* \"saf.sol\":17940:17973  _gonBalances[from].sub(gonAmount) */\n      tag_469\n        /* \"saf.sol\":17963:17972  gonAmount */\n      dup2\n        /* \"saf.sol\":17940:17952  _gonBalances */\n      0x1c\n        /* \"saf.sol\":17940:17958  _gonBalances[from] */\n      0x00\n        /* \"saf.sol\":17953:17957  from */\n      dup9\n        /* \"saf.sol\":17940:17958  _gonBalances[from] */\n      0xffffffffffffffffffffffffffffffffffffffff\n      and\n      0xffffffffffffffffffffffffffffffffffffffff\n      and\n      dup2\n      mstore\n      0x20\n      add\n      swap1\n      dup2\n      mstore\n      0x20\n      add\n      0x00\n      keccak256\n      sload\n        /* \"saf.sol\":17940:17962  _gonBalances[from].sub */\n      tag_303\n      swap1\n        /* \"saf.sol\":17940:17973  _gonBalances[from].sub(gonAmount) */\n      swap2\n      swap1\n      0xffffffff\n      and\n      jump\t// in\n    tag_469:\n        /* \"saf.sol\":17919:17931  _gonBalances */\n      0x1c\n        /* \"saf.sol\":17919:17937  _gonBalances[from] */\n      0x00\n        /* \"saf.sol\":17932:17936  from */\n      dup8\n        /* \"saf.sol\":17919:17937  _gonBalances[from] */\n      0xffffffffffffffffffffffffffffffffffffffff\n      and\n      0xffffffffffffffffffffffffffffffffffffffff\n      and\n      dup2\n      mstore\n      0x20\n      add\n      swap1\n      dup2\n      mstore\n      0x20\n      add\n      0x00\n      keccak256\n        /* \"saf.sol\":17919:17973  _gonBalances[from] = _gonBalances[from].sub(gonAmount) */\n      dup2\n      swap1\n      sstore\n      pop\n        /* \"saf.sol\":18003:18034  _gonBalances[to].add(gonAmount) */\n      tag_470\n        /* \"saf.sol\":18024:18033  gonAmount */\n      dup2\n        /* \"saf.sol\":18003:18015  _gonBalances */\n      0x1c\n        /* \"saf.sol\":18003:18019  _gonBalances[to] */\n      0x00\n        /* \"saf.sol\":18016:18018  to */\n      dup8\n        /* \"saf.sol\":18003:18019  _gonBalances[to] */\n      0xffffffffffffffffffffffffffffffffffffffff\n      and\n      0xffffffffffffffffffffffffffffffffffffffff\n      and\n      dup2\n      mstore\n      0x20\n      add\n      swap1\n      dup2\n      mstore\n      0x20\n      add\n      0x00\n      keccak256\n      sload\n        /* \"saf.sol\":18003:18023  _gonBalances[to].add */\n      tag_282\n      swap1\n        /* \"saf.sol\":18003:18034  _gonBalances[to].add(gonAmount) */\n      swap2\n      swap1\n      0xffffffff\n      and\n      jump\t// in\n    tag_470:\n        /* \"saf.sol\":17984:17996  _gonBalances */\n      0x1c\n        /* \"saf.sol\":17984:18000  _gonBalances[to] */\n      0x00\n        /* \"saf.sol\":17997:17999  to */\n      dup7\n        /* \"saf.sol\":17984:18000  _gonBalances[to] */\n      0xffffffffffffffffffffffffffffffffffffffff\n      and\n      0xffffffffffffffffffffffffffffffffffffffff\n      and\n      dup2\n      mstore\n      0x20\n      add\n      swap1\n      dup2\n      mstore\n      0x20\n      add\n      0x00\n      keccak256\n        /* \"saf.sol\":17984:18034  _gonBalances[to] = _gonBalances[to].add(gonAmount) */\n      dup2\n      swap1\n      sstore\n      pop\n        /* \"saf.sol\":18052:18056  true */\n      0x01\n        /* \"saf.sol\":18045:18056  return true */\n      swap2\n      pop\n      pop\n        /* \"saf.sol\":17725:18064  function _basicTransfer(\r... */\n      swap4\n      swap3\n      pop\n      pop\n      pop\n      jump\t// out\n        /* \"saf.sol\":23638:23912  function shouldRebase() internal view returns (bool) {\r... */\n    tag_427:\n        /* \"saf.sol\":23685:23689  bool */\n      0x00\n        /* \"saf.sol\":23722:23733  _autoRebase */\n      0x16\n      0x15\n      swap1\n      sload\n      swap1\n      0x0100\n      exp\n      swap1\n      div\n      0xff\n      and\n        /* \"saf.sol\":23722:23777  _autoRebase &&\r... */\n      dup1\n      iszero\n      tag_472\n      jumpi\n      pop\n        /* \"saf.sol\":12842:12843  5 */\n      0x05\n        /* \"saf.sol\":14137:14139  10 */\n      0x0a\n        /* \"saf.sol\":14137:14149  10**DECIMALS */\n      exp\n        /* \"saf.sol\":14123:14134  325 * 10**7 */\n      0xc1b71080\n        /* \"saf.sol\":14123:14149  325 * 10**7 * 10**DECIMALS */\n      mul\n        /* \"saf.sol\":23751:23763  _totalSupply */\n      sload(0x1a)\n        /* \"saf.sol\":23751:23776  _totalSupply < MAX_SUPPLY */\n      lt\n        /* \"saf.sol\":23722:23777  _autoRebase &&\r... */\n    tag_472:\n        /* \"saf.sol\":23722:23812  _autoRebase &&\r... */\n      dup1\n      iszero\n      tag_473\n      jumpi\n      pop\n        /* \"saf.sol\":23808:23812  pair */\n      0x16\n      0x00\n      swap1\n      sload\n      swap1\n      0x0100\n      exp\n      swap1\n      div\n      0xffffffffffffffffffffffffffffffffffffffff\n      and\n        /* \"saf.sol\":23794:23812  msg.sender != pair */\n      0xffffffffffffffffffffffffffffffffffffffff\n      and\n        /* \"saf.sol\":23794:23804  msg.sender */\n      caller\n        /* \"saf.sol\":23794:23812  msg.sender != pair */\n      0xffffffffffffffffffffffffffffffffffffffff\n      and\n      eq\n      iszero\n        /* \"saf.sol\":23722:23812  _autoRebase &&\r... */\n    tag_473:\n        /* \"saf.sol\":23722:23837  _autoRebase &&\r... */\n      dup1\n      iszero\n      tag_474\n      jumpi\n      pop\n        /* \"saf.sol\":23831:23837  inSwap */\n      0x16\n      0x14\n      swap1\n      sload\n      swap1\n      0x0100\n      exp\n      swap1\n      div\n      0xff\n      and\n        /* \"saf.sol\":23830:23837  !inSwap */\n      iszero\n        /* \"saf.sol\":23722:23837  _autoRebase &&\r... */\n    tag_474:\n        /* \"saf.sol\":23722:23904  _autoRebase &&\r... */\n      dup1\n      iszero\n      tag_475\n      jumpi\n      pop\n        /* \"saf.sol\":23893:23903  15 minutes */\n      0x0384\n        /* \"saf.sol\":23874:23890  _lastRebasedTime */\n      sload(0x18)\n        /* \"saf.sol\":23874:23903  _lastRebasedTime + 15 minutes */\n      add\n        /* \"saf.sol\":23854:23869  block.timestamp */\n      timestamp\n        /* \"saf.sol\":23854:23904  block.timestamp >= (_lastRebasedTime + 15 minutes) */\n      lt\n      iszero\n        /* \"saf.sol\":23722:23904  _autoRebase &&\r... */\n    tag_475:\n        /* \"saf.sol\":23702:23904  return\r... */\n      swap1\n      pop\n        /* \"saf.sol\":23638:23912  function shouldRebase() internal view returns (bool) {\r... */\n      swap1\n      jump\t// out\n        /* \"saf.sol\":15904:17021  function rebase() internal {\r... */\n    tag_430:\n        /* \"saf.sol\":15957:15963  inSwap */\n      0x16\n      0x14\n      swap1\n      sload\n      swap1\n      0x0100\n      exp\n      swap1\n      div\n      0xff\n      and\n        /* \"saf.sol\":15952:15973  if ( inSwap ) return; */\n      iszero\n      tag_477\n      jumpi\n        /* \"saf.sol\":15966:15973  return; */\n      jump(tag_476)\n        /* \"saf.sol\":15952:15973  if ( inSwap ) return; */\n    tag_477:\n        /* \"saf.sol\":15983:16001  uint256 rebaseRate */\n      0x00\n        /* \"saf.sol\":16012:16037  uint256 deltaTimeFromInit */\n      dup1\n        /* \"saf.sol\":16058:16078  _initRebaseStartTime */\n      sload(0x17)\n        /* \"saf.sol\":16040:16055  block.timestamp */\n      timestamp\n        /* \"saf.sol\":16040:16078  block.timestamp - _initRebaseStartTime */\n      sub\n        /* \"saf.sol\":16012:16078  uint256 deltaTimeFromInit = block.timestamp - _initRebaseStartTime */\n      swap1\n      pop\n        /* \"saf.sol\":16089:16106  uint256 deltaTime */\n      0x00\n        /* \"saf.sol\":16127:16143  _lastRebasedTime */\n      sload(0x18)\n        /* \"saf.sol\":16109:16124  block.timestamp */\n      timestamp\n        /* \"saf.sol\":16109:16143  block.timestamp - _lastRebasedTime */\n      sub\n        /* \"saf.sol\":16089:16143  uint256 deltaTime = block.timestamp - _lastRebasedTime */\n      swap1\n      pop\n        /* \"saf.sol\":16154:16167  uint256 times */\n      0x00\n        /* \"saf.sol\":16170:16195  deltaTime.div(15 minutes) */\n      tag_478\n        /* \"saf.sol\":16184:16194  15 minutes */\n      0x0384\n        /* \"saf.sol\":16170:16179  deltaTime */\n      dup4\n        /* \"saf.sol\":16170:16183  deltaTime.div */\n      tag_283\n      swap1\n        /* \"saf.sol\":16170:16195  deltaTime.div(15 minutes) */\n      swap2\n      swap1\n      0xffffffff\n      and\n      jump\t// in\n    tag_478:\n        /* \"saf.sol\":16154:16195  uint256 times = deltaTime.div(15 minutes) */\n      swap1\n      pop\n        /* \"saf.sol\":16206:16219  uint256 epoch */\n      0x00\n        /* \"saf.sol\":16222:16235  times.mul(15) */\n      tag_479\n        /* \"saf.sol\":16232:16234  15 */\n      0x0f\n        /* \"saf.sol\":16222:16227  times */\n      dup4\n        /* \"saf.sol\":16222:16231  times.mul */\n      tag_395\n      swap1\n        /* \"saf.sol\":16222:16235  times.mul(15) */\n      swap2\n      swap1\n      0xffffffff\n      and\n      jump\t// in\n    tag_479:\n        /* \"saf.sol\":16206:16235  uint256 epoch = times.mul(15) */\n      swap1\n      pop\n        /* \"saf.sol\":16273:16281  365 days */\n      0x01e13380\n        /* \"saf.sol\":16252:16269  deltaTimeFromInit */\n      dup5\n        /* \"saf.sol\":16252:16282  deltaTimeFromInit < (365 days) */\n      lt\n        /* \"saf.sol\":16248:16599  if (deltaTimeFromInit < (365 days)) {\r... */\n      iszero\n      tag_480\n      jumpi\n        /* \"saf.sol\":16312:16316  2355 */\n      0x0933\n        /* \"saf.sol\":16299:16316  rebaseRate = 2355 */\n      swap5\n      pop\n        /* \"saf.sol\":16248:16599  if (deltaTimeFromInit < (365 days)) {\r... */\n      jump(tag_481)\n    tag_480:\n        /* \"saf.sol\":16360:16368  365 days */\n      0x01e13380\n        /* \"saf.sol\":16338:16355  deltaTimeFromInit */\n      dup5\n        /* \"saf.sol\":16338:16369  deltaTimeFromInit >= (365 days) */\n      lt\n        /* \"saf.sol\":16334:16599  if (deltaTimeFromInit >= (365 days)) {\r... */\n      tag_482\n      jumpi\n        /* \"saf.sol\":16399:16402  211 */\n      0xd3\n        /* \"saf.sol\":16386:16402  rebaseRate = 211 */\n      swap5\n      pop\n        /* \"saf.sol\":16334:16599  if (deltaTimeFromInit >= (365 days)) {\r... */\n      jump(tag_483)\n    tag_482:\n        /* \"saf.sol\":16446:16466  (15 * 365 days) / 10 */\n      0x02d1cd40\n        /* \"saf.sol\":16424:16441  deltaTimeFromInit */\n      dup5\n        /* \"saf.sol\":16424:16467  deltaTimeFromInit >= ((15 * 365 days) / 10) */\n      lt\n        /* \"saf.sol\":16420:16599  if (deltaTimeFromInit >= ((15 * 365 days) / 10)) {\r... */\n      tag_484\n      jumpi\n        /* \"saf.sol\":16497:16499  14 */\n      0x0e\n        /* \"saf.sol\":16484:16499  rebaseRate = 14 */\n      swap5\n      pop\n        /* \"saf.sol\":16420:16599  if (deltaTimeFromInit >= ((15 * 365 days) / 10)) {\r... */\n      jump(tag_485)\n    tag_484:\n        /* \"saf.sol\":16543:16555  7 * 365 days */\n      0x0d286880\n        /* \"saf.sol\":16521:16538  deltaTimeFromInit */\n      dup5\n        /* \"saf.sol\":16521:16556  deltaTimeFromInit >= (7 * 365 days) */\n      lt\n        /* \"saf.sol\":16517:16599  if (deltaTimeFromInit >= (7 * 365 days)) {\r... */\n      tag_486\n      jumpi\n        /* \"saf.sol\":16586:16587  2 */\n      0x02\n        /* \"saf.sol\":16573:16587  rebaseRate = 2 */\n      swap5\n      pop\n        /* \"saf.sol\":16517:16599  if (deltaTimeFromInit >= (7 * 365 days)) {\r... */\n    tag_486:\n        /* \"saf.sol\":16420:16599  if (deltaTimeFromInit >= ((15 * 365 days) / 10)) {\r... */\n    tag_485:\n        /* \"saf.sol\":16334:16599  if (deltaTimeFromInit >= (365 days)) {\r... */\n    tag_483:\n        /* \"saf.sol\":16248:16599  if (deltaTimeFromInit < (365 days)) {\r... */\n    tag_481:\n        /* \"saf.sol\":16616:16625  uint256 i */\n      0x00\n        /* \"saf.sol\":16611:16801  for (uint256 i = 0; i < times; i++) {\r... */\n    tag_487:\n        /* \"saf.sol\":16635:16640  times */\n      dup3\n        /* \"saf.sol\":16631:16632  i */\n      dup2\n        /* \"saf.sol\":16631:16640  i < times */\n      lt\n        /* \"saf.sol\":16611:16801  for (uint256 i = 0; i < times; i++) {\r... */\n      iszero\n      tag_488\n      jumpi\n        /* \"saf.sol\":16677:16789  _totalSupply\r... */\n      tag_490\n        /* \"saf.sol\":12944:12945  7 */\n      0x07\n        /* \"saf.sol\":16771:16788  10**RATE_DECIMALS */\n      0xff\n      and\n        /* \"saf.sol\":16771:16773  10 */\n      0x0a\n        /* \"saf.sol\":16771:16788  10**RATE_DECIMALS */\n      exp\n        /* \"saf.sol\":16677:16748  _totalSupply\r... */\n      tag_491\n        /* \"saf.sol\":16712:16747  (10**RATE_DECIMALS).add(rebaseRate) */\n      tag_492\n        /* \"saf.sol\":16736:16746  rebaseRate */\n      dup10\n        /* \"saf.sol\":12944:12945  7 */\n      0x07\n        /* \"saf.sol\":16713:16730  10**RATE_DECIMALS */\n      0xff\n      and\n        /* \"saf.sol\":16713:16715  10 */\n      0x0a\n        /* \"saf.sol\":16713:16730  10**RATE_DECIMALS */\n      exp\n        /* \"saf.sol\":16712:16735  (10**RATE_DECIMALS).add */\n      tag_282\n      swap1\n        /* \"saf.sol\":16712:16747  (10**RATE_DECIMALS).add(rebaseRate) */\n      swap2\n      swap1\n      0xffffffff\n      and\n      jump\t// in\n    tag_492:\n        /* \"saf.sol\":16677:16689  _totalSupply */\n      sload(0x1a)\n        /* \"saf.sol\":16677:16711  _totalSupply\r... */\n      tag_395\n      swap1\n        /* \"saf.sol\":16677:16748  _totalSupply\r... */\n      swap2\n      swap1\n      0xffffffff\n      and\n      jump\t// in\n    tag_491:\n        /* \"saf.sol\":16677:16770  _totalSupply\r... */\n      tag_283\n      swap1\n        /* \"saf.sol\":16677:16789  _totalSupply\r... */\n      swap2\n      swap1\n      0xffffffff\n      and\n      jump\t// in\n    tag_490:\n        /* \"saf.sol\":16662:16674  _totalSupply */\n      0x1a\n        /* \"saf.sol\":16662:16789  _totalSupply = _totalSupply\r... */\n      dup2\n      swap1\n      sstore\n      pop\n        /* \"saf.sol\":16642:16645  i++ */\n      dup1\n      dup1\n      0x01\n      add\n      swap2\n      pop\n      pop\n        /* \"saf.sol\":16611:16801  for (uint256 i = 0; i < times; i++) {\r... */\n      jump(tag_487)\n    tag_488:\n      pop\n        /* \"saf.sol\":16832:16860  TOTAL_GONS.div(_totalSupply) */\n      tag_493\n        /* \"saf.sol\":16847:16859  _totalSupply */\n      sload(0x1a)\n        /* \"saf.sol\":12842:12843  5 */\n      0x05\n        /* \"saf.sol\":13029:13031  10 */\n      0x0a\n        /* \"saf.sol\":13029:13041  10**DECIMALS */\n      exp\n        /* \"saf.sol\":13015:13026  325 * 10**3 */\n      0x04f588\n        /* \"saf.sol\":13015:13041  325 * 10**3 * 10**DECIMALS */\n      mul\n        /* \"saf.sol\":12897:12898  0 */\n      0x00\n        /* \"saf.sol\":12888:12899  ~uint256(0) */\n      not\n        /* \"saf.sol\":14037:14075  MAX_UINT256 % INITIAL_FRAGMENTS_SUPPLY */\n      dup2\n      tag_494\n      jumpi\n      invalid\n    tag_494:\n      mod\n        /* \"saf.sol\":12897:12898  0 */\n      0x00\n        /* \"saf.sol\":12888:12899  ~uint256(0) */\n      not\n        /* \"saf.sol\":14022:14076  MAX_UINT256 - (MAX_UINT256 % INITIAL_FRAGMENTS_SUPPLY) */\n      sub\n        /* \"saf.sol\":16832:16846  TOTAL_GONS.div */\n      tag_283\n      swap1\n        /* \"saf.sol\":16832:16860  TOTAL_GONS.div(_totalSupply) */\n      swap2\n      swap1\n      0xffffffff\n      and\n      jump\t// in\n    tag_493:\n        /* \"saf.sol\":16813:16829  _gonsPerFragment */\n      0x1b\n        /* \"saf.sol\":16813:16860  _gonsPerFragment = TOTAL_GONS.div(_totalSupply) */\n      dup2\n      swap1\n      sstore\n      pop\n        /* \"saf.sol\":16890:16933  _lastRebasedTime.add(times.mul(15 minutes)) */\n      tag_495\n        /* \"saf.sol\":16911:16932  times.mul(15 minutes) */\n      tag_496\n        /* \"saf.sol\":16921:16931  15 minutes */\n      0x0384\n        /* \"saf.sol\":16911:16916  times */\n      dup5\n        /* \"saf.sol\":16911:16920  times.mul */\n      tag_395\n      swap1\n        /* \"saf.sol\":16911:16932  times.mul(15 minutes) */\n      swap2\n      swap1\n      0xffffffff\n      and\n      jump\t// in\n    tag_496:\n        /* \"saf.sol\":16890:16906  _lastRebasedTime */\n      sload(0x18)\n        /* \"saf.sol\":16890:16910  _lastRebasedTime.add */\n      tag_282\n      swap1\n        /* \"saf.sol\":16890:16933  _lastRebasedTime.add(times.mul(15 minutes)) */\n      swap2\n      swap1\n      0xffffffff\n      and\n      jump\t// in\n    tag_495:\n        /* \"saf.sol\":16871:16887  _lastRebasedTime */\n      0x18\n        /* \"saf.sol\":16871:16933  _lastRebasedTime = _lastRebasedTime.add(times.mul(15 minutes)) */\n      dup2\n      swap1\n      sstore\n      pop\n        /* \"saf.sol\":16946:16958  pairContract */\n      0x05\n      0x01\n      swap1\n      sload\n      swap1\n      0x0100\n      exp\n      swap1\n      div\n      0xffffffffffffffffffffffffffffffffffffffff\n      and\n        /* \"saf.sol\":16946:16963  pairContract.sync */\n      0xffffffffffffffffffffffffffffffffffffffff\n      and\n      0xfff6cae9\n        /* \"saf.sol\":16946:16965  pairContract.sync() */\n      mload(0x40)\n      dup2\n      0xffffffff\n      and\n      0xe0\n      shl\n      dup2\n      mstore\n      0x04\n      add\n      0x00\n      mload(0x40)\n      dup1\n      dup4\n      sub\n      dup2\n      0x00\n      dup8\n      dup1\n      extcodesize\n      iszero\n      dup1\n      iszero\n      tag_497\n      jumpi\n      0x00\n      dup1\n      revert\n    tag_497:\n      pop\n      gas\n      call\n      iszero\n      dup1\n      iszero\n      tag_499\n      jumpi\n      returndatasize\n      0x00\n      dup1\n      returndatacopy\n      revert(0x00, returndatasize)\n    tag_499:\n      pop\n      pop\n      pop\n      pop\n        /* \"saf.sol\":16993:16998  epoch */\n      dup1\n        /* \"saf.sol\":16983:17013  LogRebase(epoch, _totalSupply) */\n      0x72725a3b1e5bd622d6bcd1339bb31279c351abe8f541ac7fd320f24e1b1641f2\n        /* \"saf.sol\":17000:17012  _totalSupply */\n      sload(0x1a)\n        /* \"saf.sol\":16983:17013  LogRebase(epoch, _totalSupply) */\n      mload(0x40)\n      dup1\n      dup3\n      dup2\n      mstore\n      0x20\n      add\n      swap2\n      pop\n      pop\n      mload(0x40)\n      dup1\n      swap2\n      sub\n      swap1\n      log2\n        /* \"saf.sol\":15904:17021  function rebase() internal {\r... */\n      pop\n      pop\n      pop\n      pop\n      pop\n    tag_476:\n      jump\t// out\n        /* \"saf.sol\":23920:24164  function shouldAddLiquidity() internal view returns (bool) {\r... */\n    tag_432:\n        /* \"saf.sol\":23973:23977  bool */\n      0x00\n        /* \"saf.sol\":24010:24027  _autoAddLiquidity */\n      0x16\n      dup1\n      sload\n      swap1\n      0x0100\n      exp\n      swap1\n      div\n      0xff\n      and\n        /* \"saf.sol\":24010:24052  _autoAddLiquidity && \r... */\n      dup1\n      iszero\n      tag_501\n      jumpi\n      pop\n        /* \"saf.sol\":24046:24052  inSwap */\n      0x16\n      0x14\n      swap1\n      sload\n      swap1\n      0x0100\n      exp\n      swap1\n      div\n      0xff\n      and\n        /* \"saf.sol\":24045:24052  !inSwap */\n      iszero\n        /* \"saf.sol\":24010:24052  _autoAddLiquidity && \r... */\n    tag_501:\n        /* \"saf.sol\":24010:24088  _autoAddLiquidity && \r... */\n      dup1\n      iszero\n      tag_502\n      jumpi\n      pop\n        /* \"saf.sol\":24084:24088  pair */\n      0x16\n      0x00\n      swap1\n      sload\n      swap1\n      0x0100\n      exp\n      swap1\n      div\n      0xffffffffffffffffffffffffffffffffffffffff\n      and\n        /* \"saf.sol\":24070:24088  msg.sender != pair */\n      0xffffffffffffffffffffffffffffffffffffffff\n      and\n        /* \"saf.sol\":24070:24080  msg.sender */\n      caller\n        /* \"saf.sol\":24070:24088  msg.sender != pair */\n      0xffffffffffffffffffffffffffffffffffffffff\n      and\n      eq\n      iszero\n        /* \"saf.sol\":24010:24088  _autoAddLiquidity && \r... */\n    tag_502:\n        /* \"saf.sol\":24010:24156  _autoAddLiquidity && \r... */\n      dup1\n      iszero\n      tag_503\n      jumpi\n      pop\n        /* \"saf.sol\":24149:24155  2 days */\n      0x02a300\n        /* \"saf.sol\":24125:24146  _lastAddLiquidityTime */\n      sload(0x19)\n        /* \"saf.sol\":24125:24155  _lastAddLiquidityTime + 2 days */\n      add\n        /* \"saf.sol\":24105:24120  block.timestamp */\n      timestamp\n        /* \"saf.sol\":24105:24156  block.timestamp >= (_lastAddLiquidityTime + 2 days) */\n      lt\n      iszero\n        /* \"saf.sol\":24010:24156  _autoAddLiquidity && \r... */\n    tag_503:\n        /* \"saf.sol\":23990:24156  return\r... */\n      swap1\n      pop\n        /* \"saf.sol\":23920:24164  function shouldAddLiquidity() internal view returns (bool) {\r... */\n      swap1\n      jump\t// out\n        /* \"saf.sol\":20224:21629  function addLiquidity() internal swapping {\r... */\n    tag_435:\n        /* \"saf.sol\":13918:13922  true */\n      0x01\n        /* \"saf.sol\":13909:13915  inSwap */\n      0x16\n      0x14\n        /* \"saf.sol\":13909:13922  inSwap = true */\n      0x0100\n      exp\n      dup2\n      sload\n      dup2\n      0xff\n      mul\n      not\n      and\n      swap1\n      dup4\n      iszero\n      iszero\n      mul\n      or\n      swap1\n      sstore\n      pop\n        /* \"saf.sol\":20277:20304  uint256 autoLiquidityAmount */\n      0x00\n        /* \"saf.sol\":20307:20388  _gonBalances[autoLiquidityReceiver].div(\r... */\n      tag_506\n        /* \"saf.sol\":20361:20377  _gonsPerFragment */\n      sload(0x1b)\n        /* \"saf.sol\":20307:20319  _gonBalances */\n      0x1c\n        /* \"saf.sol\":20307:20342  _gonBalances[autoLiquidityReceiver] */\n      0x00\n        /* \"saf.sol\":20320:20341  autoLiquidityReceiver */\n      0x10\n      0x00\n      swap1\n      sload\n      swap1\n      0x0100\n      exp\n      swap1\n      div\n      0xffffffffffffffffffffffffffffffffffffffff\n      and\n        /* \"saf.sol\":20307:20342  _gonBalances[autoLiquidityReceiver] */\n      0xffffffffffffffffffffffffffffffffffffffff\n      and\n      0xffffffffffffffffffffffffffffffffffffffff\n      and\n      dup2\n      mstore\n      0x20\n      add\n      swap1\n      dup2\n      mstore\n      0x20\n      add\n      0x00\n      keccak256\n      sload\n        /* \"saf.sol\":20307:20346  _gonBalances[autoLiquidityReceiver].div */\n      tag_283\n      swap1\n        /* \"saf.sol\":20307:20388  _gonBalances[autoLiquidityReceiver].div(\r... */\n      swap2\n      swap1\n      0xffffffff\n      and\n      jump\t// in\n    tag_506:\n        /* \"saf.sol\":20277:20388  uint256 autoLiquidityAmount = _gonBalances[autoLiquidityReceiver].div(\r... */\n      swap1\n      pop\n        /* \"saf.sol\":20429:20521  _gonBalances[address(this)].add(\r... */\n      tag_507\n        /* \"saf.sol\":20475:20487  _gonBalances */\n      0x1c\n        /* \"saf.sol\":20475:20510  _gonBalances[autoLiquidityReceiver] */\n      0x00\n        /* \"saf.sol\":20488:20509  autoLiquidityReceiver */\n      0x10\n      0x00\n      swap1\n      sload\n      swap1\n      0x0100\n      exp\n      swap1\n      div\n      0xffffffffffffffffffffffffffffffffffffffff\n      and\n        /* \"saf.sol\":20475:20510  _gonBalances[autoLiquidityReceiver] */\n      0xffffffffffffffffffffffffffffffffffffffff\n      and\n      0xffffffffffffffffffffffffffffffffffffffff\n      and\n      dup2\n      mstore\n      0x20\n      add\n      swap1\n      dup2\n      mstore\n      0x20\n      add\n      0x00\n      keccak256\n      sload\n        /* \"saf.sol\":20429:20441  _gonBalances */\n      0x1c\n        /* \"saf.sol\":20429:20456  _gonBalances[address(this)] */\n      0x00\n        /* \"saf.sol\":20450:20454  this */\n      address\n        /* \"saf.sol\":20429:20456  _gonBalances[address(this)] */\n      0xffffffffffffffffffffffffffffffffffffffff\n      and\n      0xffffffffffffffffffffffffffffffffffffffff\n      and\n      dup2\n      mstore\n      0x20\n      add\n      swap1\n      dup2\n      mstore\n      0x20\n      add\n      0x00\n      keccak256\n      sload\n        /* \"saf.sol\":20429:20460  _gonBalances[address(this)].add */\n      tag_282\n      swap1\n        /* \"saf.sol\":20429:20521  _gonBalances[address(this)].add(\r... */\n      swap2\n      swap1\n      0xffffffff\n      and\n      jump\t// in\n    tag_507:\n        /* \"saf.sol\":20399:20411  _gonBalances */\n      0x1c\n        /* \"saf.sol\":20399:20426  _gonBalances[address(this)] */\n      0x00\n        /* \"saf.sol\":20420:20424  this */\n      address\n        /* \"saf.sol\":20399:20426  _gonBalances[address(this)] */\n      0xffffffffffffffffffffffffffffffffffffffff\n      and\n      0xffffffffffffffffffffffffffffffffffffffff\n      and\n      dup2\n      mstore\n      0x20\n      add\n      swap1\n      dup2\n      mstore\n      0x20\n      add\n      0x00\n      keccak256\n        /* \"saf.sol\":20399:20521  _gonBalances[address(this)] = _gonBalances[address(this)].add(\r... */\n      dup2\n      swap1\n      sstore\n      pop\n        /* \"saf.sol\":20570:20571  0 */\n      0x00\n        /* \"saf.sol\":20532:20544  _gonBalances */\n      0x1c\n        /* \"saf.sol\":20532:20567  _gonBalances[autoLiquidityReceiver] */\n      0x00\n        /* \"saf.sol\":20545:20566  autoLiquidityReceiver */\n      0x10\n      0x00\n      swap1\n      sload\n      swap1\n      0x0100\n      exp\n      swap1\n      div\n      0xffffffffffffffffffffffffffffffffffffffff\n      and\n        /* \"saf.sol\":20532:20567  _gonBalances[autoLiquidityReceiver] */\n      0xffffffffffffffffffffffffffffffffffffffff\n      and\n      0xffffffffffffffffffffffffffffffffffffffff\n      and\n      dup2\n      mstore\n      0x20\n      add\n      swap1\n      dup2\n      mstore\n      0x20\n      add\n      0x00\n      keccak256\n        /* \"saf.sol\":20532:20571  _gonBalances[autoLiquidityReceiver] = 0 */\n      dup2\n      swap1\n      sstore\n      pop\n        /* \"saf.sol\":20582:20605  uint256 amountToLiquify */\n      0x00\n        /* \"saf.sol\":20608:20634  autoLiquidityAmount.div(2) */\n      tag_508\n        /* \"saf.sol\":20632:20633  2 */\n      0x02\n        /* \"saf.sol\":20608:20627  autoLiquidityAmount */\n      dup4\n        /* \"saf.sol\":20608:20631  autoLiquidityAmount.div */\n      tag_283\n      swap1\n        /* \"saf.sol\":20608:20634  autoLiquidityAmount.div(2) */\n      swap2\n      swap1\n      0xffffffff\n      and\n      jump\t// in\n    tag_508:\n        /* \"saf.sol\":20582:20634  uint256 amountToLiquify = autoLiquidityAmount.div(2) */\n      swap1\n      pop\n        /* \"saf.sol\":20645:20665  uint256 amountToSwap */\n      0x00\n        /* \"saf.sol\":20668:20708  autoLiquidityAmount.sub(amountToLiquify) */\n      tag_509\n        /* \"saf.sol\":20692:20707  amountToLiquify */\n      dup3\n        /* \"saf.sol\":20668:20687  autoLiquidityAmount */\n      dup5\n        /* \"saf.sol\":20668:20691  autoLiquidityAmount.sub */\n      tag_303\n      swap1\n        /* \"saf.sol\":20668:20708  autoLiquidityAmount.sub(amountToLiquify) */\n      swap2\n      swap1\n      0xffffffff\n      and\n      jump\t// in\n    tag_509:\n        /* \"saf.sol\":20645:20708  uint256 amountToSwap = autoLiquidityAmount.sub(amountToLiquify) */\n      swap1\n      pop\n        /* \"saf.sol\":20741:20742  0 */\n      0x00\n        /* \"saf.sol\":20725:20737  amountToSwap */\n      dup2\n        /* \"saf.sol\":20725:20742  amountToSwap == 0 */\n      eq\n        /* \"saf.sol\":20721:20778  if( amountToSwap == 0 ) {\r... */\n      iszero\n      tag_510\n      jumpi\n        /* \"saf.sol\":20760:20767  return; */\n      pop\n      pop\n      pop\n      jump(tag_505)\n        /* \"saf.sol\":20721:20778  if( amountToSwap == 0 ) {\r... */\n    tag_510:\n        /* \"saf.sol\":20788:20809  address[] memory path */\n      0x60\n        /* \"saf.sol\":20826:20827  2 */\n      0x02\n        /* \"saf.sol\":20812:20828  new address[](2) */\n      0xffffffffffffffff\n      dup2\n      gt\n      dup1\n      iszero\n      tag_511\n      jumpi\n      0x00\n      dup1\n      revert\n    tag_511:\n      pop\n      mload(0x40)\n      swap1\n      dup1\n      dup3\n      mstore\n      dup1\n      0x20\n      mul\n      0x20\n      add\n      dup3\n      add\n      0x40\n      mstore\n      dup1\n      iszero\n      tag_512\n      jumpi\n      dup2\n      0x20\n      add\n      0x20\n      dup3\n      mul\n      dup1\n      calldatasize\n      dup4\n      calldatacopy\n      dup1\n      dup3\n      add\n      swap2\n      pop\n      pop\n      swap1\n      pop\n    tag_512:\n      pop\n        /* \"saf.sol\":20788:20828  address[] memory path = new address[](2) */\n      swap1\n      pop\n        /* \"saf.sol\":20857:20861  this */\n      address\n        /* \"saf.sol\":20839:20843  path */\n      dup2\n        /* \"saf.sol\":20844:20845  0 */\n      0x00\n        /* \"saf.sol\":20839:20846  path[0] */\n      dup2\n      mload\n      dup2\n      lt\n      tag_513\n      jumpi\n      invalid\n    tag_513:\n      0x20\n      mul\n      0x20\n      add\n      add\n        /* \"saf.sol\":20839:20862  path[0] = address(this) */\n      swap1\n      0xffffffffffffffffffffffffffffffffffffffff\n      and\n      swap1\n      dup2\n      0xffffffffffffffffffffffffffffffffffffffff\n      and\n      dup2\n      mstore\n      pop\n      pop\n        /* \"saf.sol\":20883:20889  router */\n      0x15\n      0x00\n      swap1\n      sload\n      swap1\n      0x0100\n      exp\n      swap1\n      div\n      0xffffffffffffffffffffffffffffffffffffffff\n      and\n        /* \"saf.sol\":20883:20894  router.WETH */\n      0xffffffffffffffffffffffffffffffffffffffff\n      and\n      0xad5c4648\n        /* \"saf.sol\":20883:20896  router.WETH() */\n      mload(0x40)\n      dup2\n      0xffffffff\n      and\n      0xe0\n      shl\n      dup2\n      mstore\n      0x04\n      add\n      0x20\n      mload(0x40)\n      dup1\n      dup4\n      sub\n      dup2\n      dup7\n      dup1\n      extcodesize\n      iszero\n      dup1\n      iszero\n      tag_514\n      jumpi\n      0x00\n      dup1\n      revert\n    tag_514:\n      pop\n      gas\n      staticcall\n      iszero\n      dup1\n      iszero\n      tag_516\n      jumpi\n      returndatasize\n      0x00\n      dup1\n      returndatacopy\n      revert(0x00, returndatasize)\n    tag_516:\n      pop\n      pop\n      pop\n      pop\n      mload(0x40)\n      returndatasize\n      0x20\n      dup2\n      lt\n      iszero\n      tag_517\n      jumpi\n      0x00\n      dup1\n      revert\n    tag_517:\n      dup2\n      add\n      swap1\n      dup1\n      dup1\n      mload\n      swap1\n      0x20\n      add\n      swap1\n      swap3\n      swap2\n      swap1\n      pop\n      pop\n      pop\n        /* \"saf.sol\":20873:20877  path */\n      dup2\n        /* \"saf.sol\":20878:20879  1 */\n      0x01\n        /* \"saf.sol\":20873:20880  path[1] */\n      dup2\n      mload\n      dup2\n      lt\n      tag_518\n      jumpi\n      invalid\n    tag_518:\n      0x20\n      mul\n      0x20\n      add\n      add\n        /* \"saf.sol\":20873:20896  path[1] = router.WETH() */\n      swap1\n      0xffffffffffffffffffffffffffffffffffffffff\n      and\n      swap1\n      dup2\n      0xffffffffffffffffffffffffffffffffffffffff\n      and\n      dup2\n      mstore\n      pop\n      pop\n        /* \"saf.sol\":20909:20930  uint256 balanceBefore */\n      0x00\n        /* \"saf.sol\":20933:20954  address(this).balance */\n      selfbalance\n        /* \"saf.sol\":20909:20954  uint256 balanceBefore = address(this).balance */\n      swap1\n      pop\n        /* \"saf.sol\":20969:20975  router */\n      0x15\n      0x00\n      swap1\n      sload\n      swap1\n      0x0100\n      exp\n      swap1\n      div\n      0xffffffffffffffffffffffffffffffffffffffff\n      and\n        /* \"saf.sol\":20969:21026  router.swapExactTokensForETHSupportingFeeOnTransferTokens */\n      0xffffffffffffffffffffffffffffffffffffffff\n      and\n      0x791ac947\n        /* \"saf.sol\":21041:21053  amountToSwap */\n      dup5\n        /* \"saf.sol\":21068:21069  0 */\n      0x00\n        /* \"saf.sol\":21084:21088  path */\n      dup6\n        /* \"saf.sol\":21111:21115  this */\n      address\n        /* \"saf.sol\":21131:21146  block.timestamp */\n      timestamp\n        /* \"saf.sol\":20969:21157  router.swapExactTokensForETHSupportingFeeOnTransferTokens(\r... */\n      mload(0x40)\n      dup7\n      0xffffffff\n      and\n      0xe0\n      shl\n      dup2\n      mstore\n      0x04\n      add\n      dup1\n      dup7\n      dup2\n      mstore\n      0x20\n      add\n      dup6\n      dup2\n      mstore\n      0x20\n      add\n      dup1\n      0x20\n      add\n      dup5\n      0xffffffffffffffffffffffffffffffffffffffff\n      and\n      dup2\n      mstore\n      0x20\n      add\n      dup4\n      dup2\n      mstore\n      0x20\n      add\n      dup3\n      dup2\n      sub\n      dup3\n      mstore\n      dup6\n      dup2\n      dup2\n      mload\n      dup2\n      mstore\n      0x20\n      add\n      swap2\n      pop\n      dup1\n      mload\n      swap1\n      0x20\n      add\n      swap1\n      0x20\n      mul\n      dup1\n      dup4\n      dup4\n      0x00\n    tag_519:\n      dup4\n      dup2\n      lt\n      iszero\n      tag_521\n      jumpi\n      dup1\n      dup3\n      add\n      mload\n      dup2\n      dup5\n      add\n      mstore\n      0x20\n      dup2\n      add\n      swap1\n      pop\n      jump(tag_519)\n    tag_521:\n      pop\n      pop\n      pop\n      pop\n      swap1\n      pop\n      add\n      swap7\n      pop\n      pop\n      pop\n      pop\n      pop\n      pop\n      pop\n      0x00\n      mload(0x40)\n      dup1\n      dup4\n      sub\n      dup2\n      0x00\n      dup8\n      dup1\n      extcodesize\n      iszero\n      dup1\n      iszero\n      tag_522\n      jumpi\n      0x00\n      dup1\n      revert\n    tag_522:\n      pop\n      gas\n      call\n      iszero\n      dup1\n      iszero\n      tag_524\n      jumpi\n      returndatasize\n      0x00\n      dup1\n      returndatacopy\n      revert(0x00, returndatasize)\n    tag_524:\n      pop\n      pop\n      pop\n      pop\n        /* \"saf.sol\":21170:21196  uint256 amountETHLiquidity */\n      0x00\n        /* \"saf.sol\":21199:21239  address(this).balance.sub(balanceBefore) */\n      tag_525\n        /* \"saf.sol\":21225:21238  balanceBefore */\n      dup3\n        /* \"saf.sol\":21199:21220  address(this).balance */\n      selfbalance\n        /* \"saf.sol\":21199:21224  address(this).balance.sub */\n      tag_303\n      swap1\n        /* \"saf.sol\":21199:21239  address(this).balance.sub(balanceBefore) */\n      swap2\n      swap1\n      0xffffffff\n      and\n      jump\t// in\n    tag_525:\n        /* \"saf.sol\":21170:21239  uint256 amountETHLiquidity = address(this).balance.sub(balanceBefore) */\n      swap1\n      pop\n        /* \"saf.sol\":21274:21275  0 */\n      0x00\n        /* \"saf.sol\":21256:21271  amountToLiquify */\n      dup6\n        /* \"saf.sol\":21256:21275  amountToLiquify > 0 */\n      gt\n        /* \"saf.sol\":21256:21299  amountToLiquify > 0&&amountETHLiquidity > 0 */\n      dup1\n      iszero\n      tag_526\n      jumpi\n      pop\n        /* \"saf.sol\":21298:21299  0 */\n      0x00\n        /* \"saf.sol\":21277:21295  amountETHLiquidity */\n      dup2\n        /* \"saf.sol\":21277:21299  amountETHLiquidity > 0 */\n      gt\n        /* \"saf.sol\":21256:21299  amountToLiquify > 0&&amountETHLiquidity > 0 */\n    tag_526:\n        /* \"saf.sol\":21252:21572  if (amountToLiquify > 0&&amountETHLiquidity > 0) {\r... */\n      iszero\n      tag_527\n      jumpi\n        /* \"saf.sol\":21316:21322  router */\n      0x15\n      0x00\n      swap1\n      sload\n      swap1\n      0x0100\n      exp\n      swap1\n      div\n      0xffffffffffffffffffffffffffffffffffffffff\n      and\n        /* \"saf.sol\":21316:21338  router.addLiquidityETH */\n      0xffffffffffffffffffffffffffffffffffffffff\n      and\n      0xf305d719\n        /* \"saf.sol\":21346:21364  amountETHLiquidity */\n      dup3\n        /* \"saf.sol\":21392:21396  this */\n      address\n        /* \"saf.sol\":21416:21431  amountToLiquify */\n      dup9\n        /* \"saf.sol\":21450:21451  0 */\n      0x00\n        /* \"saf.sol\":21470:21471  0 */\n      dup1\n        /* \"saf.sol\":21490:21511  autoLiquidityReceiver */\n      0x10\n      0x00\n      swap1\n      sload\n      swap1\n      0x0100\n      exp\n      swap1\n      div\n      0xffffffffffffffffffffffffffffffffffffffff\n      and\n        /* \"saf.sol\":21530:21545  block.timestamp */\n      timestamp\n        /* \"saf.sol\":21316:21560  router.addLiquidityETH{value: amountETHLiquidity}(\r... */\n      mload(0x40)\n      dup9\n      0xffffffff\n      and\n      0xe0\n      shl\n      dup2\n      mstore\n      0x04\n      add\n      dup1\n      dup8\n      0xffffffffffffffffffffffffffffffffffffffff\n      and\n      dup2\n      mstore\n      0x20\n      add\n      dup7\n      dup2\n      mstore\n      0x20\n      add\n      dup6\n      dup2\n      mstore\n      0x20\n      add\n      dup5\n      dup2\n      mstore\n      0x20\n      add\n      dup4\n      0xffffffffffffffffffffffffffffffffffffffff\n      and\n      dup2\n      mstore\n      0x20\n      add\n      dup3\n      dup2\n      mstore\n      0x20\n      add\n      swap7\n      pop\n      pop\n      pop\n      pop\n      pop\n      pop\n      pop\n      0x60\n      mload(0x40)\n      dup1\n      dup4\n      sub\n      dup2\n      dup6\n      dup9\n      dup1\n      extcodesize\n      iszero\n      dup1\n      iszero\n      tag_528\n      jumpi\n      0x00\n      dup1\n      revert\n    tag_528:\n      pop\n      gas\n      call\n      iszero\n      dup1\n      iszero\n      tag_530\n      jumpi\n      returndatasize\n      0x00\n      dup1\n      returndatacopy\n      revert(0x00, returndatasize)\n    tag_530:\n      pop\n      pop\n      pop\n      pop\n      pop\n      mload(0x40)\n      returndatasize\n      0x60\n      dup2\n      lt\n      iszero\n      tag_531\n      jumpi\n      0x00\n      dup1\n      revert\n    tag_531:\n      dup2\n      add\n      swap1\n      dup1\n      dup1\n      mload\n      swap1\n      0x20\n      add\n      swap1\n      swap3\n      swap2\n      swap1\n      dup1\n      mload\n      swap1\n      0x20\n      add\n      swap1\n      swap3\n      swap2\n      swap1\n      dup1\n      mload\n      swap1\n      0x20\n      add\n      swap1\n      swap3\n      swap2\n      swap1\n      pop\n      pop\n      pop\n      pop\n      pop\n      pop\n        /* \"saf.sol\":21252:21572  if (amountToLiquify > 0&&amountETHLiquidity > 0) {\r... */\n    tag_527:\n        /* \"saf.sol\":21606:21621  block.timestamp */\n      timestamp\n        /* \"saf.sol\":21582:21603  _lastAddLiquidityTime */\n      0x19\n        /* \"saf.sol\":21582:21621  _lastAddLiquidityTime = block.timestamp */\n      dup2\n      swap1\n      sstore\n      pop\n        /* \"saf.sol\":13933:13934  _ */\n      pop\n      pop\n      pop\n      pop\n      pop\n      pop\n    tag_505:\n        /* \"saf.sol\":13954:13959  false */\n      0x00\n        /* \"saf.sol\":13945:13951  inSwap */\n      0x16\n      0x14\n        /* \"saf.sol\":13945:13959  inSwap = false */\n      0x0100\n      exp\n      dup2\n      sload\n      dup2\n      0xff\n      mul\n      not\n      and\n      swap1\n      dup4\n      iszero\n      iszero\n      mul\n      or\n      swap1\n      sstore\n      pop\n        /* \"saf.sol\":20224:21629  function addLiquidity() internal swapping {\r... */\n      jump\t// out\n        /* \"saf.sol\":24172:24312  function shouldSwapBack() internal view returns (bool) {\r... */\n    tag_437:\n        /* \"saf.sol\":24221:24225  bool */\n      0x00\n        /* \"saf.sol\":24260:24266  inSwap */\n      0x16\n      0x14\n      swap1\n      sload\n      swap1\n      0x0100\n      exp\n      swap1\n      div\n      0xff\n      and\n        /* \"saf.sol\":24259:24266  !inSwap */\n      iszero\n        /* \"saf.sol\":24259:24301  !inSwap &&\r... */\n      dup1\n      iszero\n      tag_533\n      jumpi\n      pop\n        /* \"saf.sol\":24297:24301  pair */\n      0x16\n      0x00\n      swap1\n      sload\n      swap1\n      0x0100\n      exp\n      swap1\n      div\n      0xffffffffffffffffffffffffffffffffffffffff\n      and\n        /* \"saf.sol\":24283:24301  msg.sender != pair */\n      0xffffffffffffffffffffffffffffffffffffffff\n      and\n        /* \"saf.sol\":24283:24293  msg.sender */\n      caller\n        /* \"saf.sol\":24283:24301  msg.sender != pair */\n      0xffffffffffffffffffffffffffffffffffffffff\n      and\n      eq\n      iszero\n        /* \"saf.sol\":24259:24301  !inSwap &&\r... */\n    tag_533:\n        /* \"saf.sol\":24238:24301  return \r... */\n      swap1\n      pop\n        /* \"saf.sol\":24172:24312  function shouldSwapBack() internal view returns (bool) {\r... */\n      swap1\n      jump\t// out\n        /* \"saf.sol\":21637:22834  function swapBack() internal swapping {\r... */\n    tag_440:\n        /* \"saf.sol\":13918:13922  true */\n      0x01\n        /* \"saf.sol\":13909:13915  inSwap */\n      0x16\n      0x14\n        /* \"saf.sol\":13909:13922  inSwap = true */\n      0x0100\n      exp\n      dup2\n      sload\n      dup2\n      0xff\n      mul\n      not\n      and\n      swap1\n      dup4\n      iszero\n      iszero\n      mul\n      or\n      swap1\n      sstore\n      pop\n        /* \"saf.sol\":21688:21708  uint256 amountToSwap */\n      0x00\n        /* \"saf.sol\":21711:21760  _gonBalances[address(this)].div(_gonsPerFragment) */\n      tag_536\n        /* \"saf.sol\":21743:21759  _gonsPerFragment */\n      sload(0x1b)\n        /* \"saf.sol\":21711:21723  _gonBalances */\n      0x1c\n        /* \"saf.sol\":21711:21738  _gonBalances[address(this)] */\n      0x00\n        /* \"saf.sol\":21732:21736  this */\n      address\n        /* \"saf.sol\":21711:21738  _gonBalances[address(this)] */\n      0xffffffffffffffffffffffffffffffffffffffff\n      and\n      0xffffffffffffffffffffffffffffffffffffffff\n      and\n      dup2\n      mstore\n      0x20\n      add\n      swap1\n      dup2\n      mstore\n      0x20\n      add\n      0x00\n      keccak256\n      sload\n        /* \"saf.sol\":21711:21742  _gonBalances[address(this)].div */\n      tag_283\n      swap1\n        /* \"saf.sol\":21711:21760  _gonBalances[address(this)].div(_gonsPerFragment) */\n      swap2\n      swap1\n      0xffffffff\n      and\n      jump\t// in\n    tag_536:\n        /* \"saf.sol\":21688:21760  uint256 amountToSwap = _gonBalances[address(this)].div(_gonsPerFragment) */\n      swap1\n      pop\n        /* \"saf.sol\":21793:21794  0 */\n      0x00\n        /* \"saf.sol\":21777:21789  amountToSwap */\n      dup2\n        /* \"saf.sol\":21777:21794  amountToSwap == 0 */\n      eq\n        /* \"saf.sol\":21773:21829  if( amountToSwap == 0) {\r... */\n      iszero\n      tag_537\n      jumpi\n        /* \"saf.sol\":21811:21818  return; */\n      pop\n      jump(tag_535)\n        /* \"saf.sol\":21773:21829  if( amountToSwap == 0) {\r... */\n    tag_537:\n        /* \"saf.sol\":21841:21862  uint256 balanceBefore */\n      0x00\n        /* \"saf.sol\":21865:21886  address(this).balance */\n      selfbalance\n        /* \"saf.sol\":21841:21886  uint256 balanceBefore = address(this).balance */\n      swap1\n      pop\n        /* \"saf.sol\":21897:21918  address[] memory path */\n      0x60\n        /* \"saf.sol\":21935:21936  2 */\n      0x02\n        /* \"saf.sol\":21921:21937  new address[](2) */\n      0xffffffffffffffff\n      dup2\n      gt\n      dup1\n      iszero\n      tag_538\n      jumpi\n      0x00\n      dup1\n      revert\n    tag_538:\n      pop\n      mload(0x40)\n      swap1\n      dup1\n      dup3\n      mstore\n      dup1\n      0x20\n      mul\n      0x20\n      add\n      dup3\n      add\n      0x40\n      mstore\n      dup1\n      iszero\n      tag_539\n      jumpi\n      dup2\n      0x20\n      add\n      0x20\n      dup3\n      mul\n      dup1\n      calldatasize\n      dup4\n      calldatacopy\n      dup1\n      dup3\n      add\n      swap2\n      pop\n      pop\n      swap1\n      pop\n    tag_539:\n      pop\n        /* \"saf.sol\":21897:21937  address[] memory path = new address[](2) */\n      swap1\n      pop\n        /* \"saf.sol\":21966:21970  this */\n      address\n        /* \"saf.sol\":21948:21952  path */\n      dup2\n        /* \"saf.sol\":21953:21954  0 */\n      0x00\n        /* \"saf.sol\":21948:21955  path[0] */\n      dup2\n      mload\n      dup2\n      lt\n      tag_540\n      jumpi\n      invalid\n    tag_540:\n      0x20\n      mul\n      0x20\n      add\n      add\n        /* \"saf.sol\":21948:21971  path[0] = address(this) */\n      swap1\n      0xffffffffffffffffffffffffffffffffffffffff\n      and\n      swap1\n      dup2\n      0xffffffffffffffffffffffffffffffffffffffff\n      and\n      dup2\n      mstore\n      pop\n      pop\n        /* \"saf.sol\":21992:21998  router */\n      0x15\n      0x00\n      swap1\n      sload\n      swap1\n      0x0100\n      exp\n      swap1\n      div\n      0xffffffffffffffffffffffffffffffffffffffff\n      and\n        /* \"saf.sol\":21992:22003  router.WETH */\n      0xffffffffffffffffffffffffffffffffffffffff\n      and\n      0xad5c4648\n        /* \"saf.sol\":21992:22005  router.WETH() */\n      mload(0x40)\n      dup2\n      0xffffffff\n      and\n      0xe0\n      shl\n      dup2\n      mstore\n      0x04\n      add\n      0x20\n      mload(0x40)\n      dup1\n      dup4\n      sub\n      dup2\n      dup7\n      dup1\n      extcodesize\n      iszero\n      dup1\n      iszero\n      tag_541\n      jumpi\n      0x00\n      dup1\n      revert\n    tag_541:\n      pop\n      gas\n      staticcall\n      iszero\n      dup1\n      iszero\n      tag_543\n      jumpi\n      returndatasize\n      0x00\n      dup1\n      returndatacopy\n      revert(0x00, returndatasize)\n    tag_543:\n      pop\n      pop\n      pop\n      pop\n      mload(0x40)\n      returndatasize\n      0x20\n      dup2\n      lt\n      iszero\n      tag_544\n      jumpi\n      0x00\n      dup1\n      revert\n    tag_544:\n      dup2\n      add\n      swap1\n      dup1\n      dup1\n      mload\n      swap1\n      0x20\n      add\n      swap1\n      swap3\n      swap2\n      swap1\n      pop\n      pop\n      pop\n        /* \"saf.sol\":21982:21986  path */\n      dup2\n        /* \"saf.sol\":21987:21988  1 */\n      0x01\n        /* \"saf.sol\":21982:21989  path[1] */\n      dup2\n      mload\n      dup2\n      lt\n      tag_545\n      jumpi\n      invalid\n    tag_545:\n      0x20\n      mul\n      0x20\n      add\n      add\n        /* \"saf.sol\":21982:22005  path[1] = router.WETH() */\n      swap1\n      0xffffffffffffffffffffffffffffffffffffffff\n      and\n      swap1\n      dup2\n      0xffffffffffffffffffffffffffffffffffffffff\n      and\n      dup2\n      mstore\n      pop\n      pop\n        /* \"saf.sol\":22028:22034  router */\n      0x15\n      0x00\n      swap1\n      sload\n      swap1\n      0x0100\n      exp\n      swap1\n      div\n      0xffffffffffffffffffffffffffffffffffffffff\n      and\n        /* \"saf.sol\":22028:22085  router.swapExactTokensForETHSupportingFeeOnTransferTokens */\n      0xffffffffffffffffffffffffffffffffffffffff\n      and\n      0x791ac947\n        /* \"saf.sol\":22100:22112  amountToSwap */\n      dup5\n        /* \"saf.sol\":22127:22128  0 */\n      0x00\n        /* \"saf.sol\":22143:22147  path */\n      dup5\n        /* \"saf.sol\":22170:22174  this */\n      address\n        /* \"saf.sol\":22190:22205  block.timestamp */\n      timestamp\n        /* \"saf.sol\":22028:22216  router.swapExactTokensForETHSupportingFeeOnTransferTokens(\r... */\n      mload(0x40)\n      dup7\n      0xffffffff\n      and\n      0xe0\n      shl\n      dup2\n      mstore\n      0x04\n      add\n      dup1\n      dup7\n      dup2\n      mstore\n      0x20\n      add\n      dup6\n      dup2\n      mstore\n      0x20\n      add\n      dup1\n      0x20\n      add\n      dup5\n      0xffffffffffffffffffffffffffffffffffffffff\n      and\n      dup2\n      mstore\n      0x20\n      add\n      dup4\n      dup2\n      mstore\n      0x20\n      add\n      dup3\n      dup2\n      sub\n      dup3\n      mstore\n      dup6\n      dup2\n      dup2\n      mload\n      dup2\n      mstore\n      0x20\n      add\n      swap2\n      pop\n      dup1\n      mload\n      swap1\n      0x20\n      add\n      swap1\n      0x20\n      mul\n      dup1\n      dup4\n      dup4\n      0x00\n    tag_546:\n      dup4\n      dup2\n      lt\n      iszero\n      tag_548\n      jumpi\n      dup1\n      dup3\n      add\n      mload\n      dup2\n      dup5\n      add\n      mstore\n      0x20\n      dup2\n      add\n      swap1\n      pop\n      jump(tag_546)\n    tag_548:\n      pop\n      pop\n      pop\n      pop\n      swap1\n      pop\n      add\n      swap7\n      pop\n      pop\n      pop\n      pop\n      pop\n      pop\n      pop\n      0x00\n      mload(0x40)\n      dup1\n      dup4\n      sub\n      dup2\n      0x00\n      dup8\n      dup1\n      extcodesize\n      iszero\n      dup1\n      iszero\n      tag_549\n      jumpi\n      0x00\n      dup1\n      revert\n    tag_549:\n      pop\n      gas\n      call\n      iszero\n      dup1\n      iszero\n      tag_551\n      jumpi\n      returndatasize\n      0x00\n      dup1\n      returndatacopy\n      revert(0x00, returndatasize)\n    tag_551:\n      pop\n      pop\n      pop\n      pop\n        /* \"saf.sol\":22229:22262  uint256 amountETHToTreasuryAndSIF */\n      0x00\n        /* \"saf.sol\":22265:22329  address(this).balance.sub(\r... */\n      tag_552\n        /* \"saf.sol\":22305:22318  balanceBefore */\n      dup4\n        /* \"saf.sol\":22265:22286  address(this).balance */\n      selfbalance\n        /* \"saf.sol\":22265:22290  address(this).balance.sub */\n      tag_303\n      swap1\n        /* \"saf.sol\":22265:22329  address(this).balance.sub(\r... */\n      swap2\n      swap1\n      0xffffffff\n      and\n      jump\t// in\n    tag_552:\n        /* \"saf.sol\":22229:22329  uint256 amountETHToTreasuryAndSIF = address(this).balance.sub(\r... */\n      swap1\n      pop\n        /* \"saf.sol\":22343:22355  bool success */\n      0x00\n        /* \"saf.sol\":22369:22385  treasuryReceiver */\n      0x11\n      0x00\n      swap1\n      sload\n      swap1\n      0x0100\n      exp\n      swap1\n      div\n      0xffffffffffffffffffffffffffffffffffffffff\n      and\n        /* \"saf.sol\":22361:22391  payable(treasuryReceiver).call */\n      0xffffffffffffffffffffffffffffffffffffffff\n      and\n        /* \"saf.sol\":22413:22531  amountETHToTreasuryAndSIF.mul(treasuryFee).div(\r... */\n      tag_553\n        /* \"saf.sol\":22478:22516  treasuryFee.add(safuuInsuranceFundFee) */\n      tag_554\n        /* \"saf.sol\":22494:22515  safuuInsuranceFundFee */\n      sload(0x09)\n        /* \"saf.sol\":22478:22489  treasuryFee */\n      sload(0x08)\n        /* \"saf.sol\":22478:22493  treasuryFee.add */\n      tag_282\n      swap1\n        /* \"saf.sol\":22478:22516  treasuryFee.add(safuuInsuranceFundFee) */\n      swap2\n      swap1\n      0xffffffff\n      and\n      jump\t// in\n    tag_554:\n        /* \"saf.sol\":22413:22455  amountETHToTreasuryAndSIF.mul(treasuryFee) */\n      tag_555\n        /* \"saf.sol\":22443:22454  treasuryFee */\n      sload(0x08)\n        /* \"saf.sol\":22413:22438  amountETHToTreasuryAndSIF */\n      dup7\n        /* \"saf.sol\":22413:22442  amountETHToTreasuryAndSIF.mul */\n      tag_395\n      swap1\n        /* \"saf.sol\":22413:22455  amountETHToTreasuryAndSIF.mul(treasuryFee) */\n      swap2\n      swap1\n      0xffffffff\n      and\n      jump\t// in\n    tag_555:\n        /* \"saf.sol\":22413:22459  amountETHToTreasuryAndSIF.mul(treasuryFee).div */\n      tag_283\n      swap1\n        /* \"saf.sol\":22413:22531  amountETHToTreasuryAndSIF.mul(treasuryFee).div(\r... */\n      swap2\n      swap1\n      0xffffffff\n      and\n      jump\t// in\n    tag_553:\n        /* \"saf.sol\":22551:22556  30000 */\n      0x7530\n        /* \"saf.sol\":22361:22571  payable(treasuryReceiver).call{\r... */\n      swap1\n      mload(0x40)\n      dup1\n      0x00\n      add\n      swap1\n      pop\n      0x00\n      mload(0x40)\n      dup1\n      dup4\n      sub\n      dup2\n      dup6\n      dup9\n      dup9\n      call\n      swap4\n      pop\n      pop\n      pop\n      pop\n      returndatasize\n      dup1\n      0x00\n      dup2\n      eq\n      tag_558\n      jumpi\n      mload(0x40)\n      swap2\n      pop\n      and(add(returndatasize, 0x3f), not(0x1f))\n      dup3\n      add\n      0x40\n      mstore\n      returndatasize\n      dup3\n      mstore\n      returndatasize\n      0x00\n      0x20\n      dup5\n      add\n      returndatacopy\n      jump(tag_557)\n    tag_558:\n      0x60\n      swap2\n      pop\n    tag_557:\n      pop\n        /* \"saf.sol\":22342:22571  (bool success, ) = payable(treasuryReceiver).call{\r... */\n      pop\n      swap1\n      pop\n        /* \"saf.sol\":22604:22630  safuuInsuranceFundReceiver */\n      0x12\n      0x00\n      swap1\n      sload\n      swap1\n      0x0100\n      exp\n      swap1\n      div\n      0xffffffffffffffffffffffffffffffffffffffff\n      and\n        /* \"saf.sol\":22596:22636  payable(safuuInsuranceFundReceiver).call */\n      0xffffffffffffffffffffffffffffffffffffffff\n      and\n        /* \"saf.sol\":22658:22786  amountETHToTreasuryAndSIF.mul(safuuInsuranceFundFee).div(\r... */\n      tag_559\n        /* \"saf.sol\":22733:22771  treasuryFee.add(safuuInsuranceFundFee) */\n      tag_560\n        /* \"saf.sol\":22749:22770  safuuInsuranceFundFee */\n      sload(0x09)\n        /* \"saf.sol\":22733:22744  treasuryFee */\n      sload(0x08)\n        /* \"saf.sol\":22733:22748  treasuryFee.add */\n      tag_282\n      swap1\n        /* \"saf.sol\":22733:22771  treasuryFee.add(safuuInsuranceFundFee) */\n      swap2\n      swap1\n      0xffffffff\n      and\n      jump\t// in\n    tag_560:\n        /* \"saf.sol\":22658:22710  amountETHToTreasuryAndSIF.mul(safuuInsuranceFundFee) */\n      tag_561\n        /* \"saf.sol\":22688:22709  safuuInsuranceFundFee */\n      sload(0x09)\n        /* \"saf.sol\":22658:22683  amountETHToTreasuryAndSIF */\n      dup7\n        /* \"saf.sol\":22658:22687  amountETHToTreasuryAndSIF.mul */\n      tag_395\n      swap1\n        /* \"saf.sol\":22658:22710  amountETHToTreasuryAndSIF.mul(safuuInsuranceFundFee) */\n      swap2\n      swap1\n      0xffffffff\n      and\n      jump\t// in\n    tag_561:\n        /* \"saf.sol\":22658:22714  amountETHToTreasuryAndSIF.mul(safuuInsuranceFundFee).div */\n      tag_283\n      swap1\n        /* \"saf.sol\":22658:22786  amountETHToTreasuryAndSIF.mul(safuuInsuranceFundFee).div(\r... */\n      swap2\n      swap1\n      0xffffffff\n      and\n      jump\t// in\n    tag_559:\n        /* \"saf.sol\":22806:22811  30000 */\n      0x7530\n        /* \"saf.sol\":22596:22826  payable(safuuInsuranceFundReceiver).call{\r... */\n      swap1\n      mload(0x40)\n      dup1\n      0x00\n      add\n      swap1\n      pop\n      0x00\n      mload(0x40)\n      dup1\n      dup4\n      sub\n      dup2\n      dup6\n      dup9\n      dup9\n      call\n      swap4\n      pop\n      pop\n      pop\n      pop\n      returndatasize\n      dup1\n      0x00\n      dup2\n      eq\n      tag_564\n      jumpi\n      mload(0x40)\n      swap2\n      pop\n      and(add(returndatasize, 0x3f), not(0x1f))\n      dup3\n      add\n      0x40\n      mstore\n      returndatasize\n      dup3\n      mstore\n      returndatasize\n      0x00\n      0x20\n      dup5\n      add\n      returndatacopy\n      jump(tag_563)\n    tag_564:\n      0x60\n      swap2\n      pop\n    tag_563:\n      pop\n        /* \"saf.sol\":22582:22826  (success, ) = payable(safuuInsuranceFundReceiver).call{\r... */\n      pop\n      dup1\n      swap2\n      pop\n      pop\n        /* \"saf.sol\":13933:13934  _ */\n      pop\n      pop\n      pop\n      pop\n      pop\n    tag_535:\n        /* \"saf.sol\":13954:13959  false */\n      0x00\n        /* \"saf.sol\":13945:13951  inSwap */\n      0x16\n      0x14\n        /* \"saf.sol\":13945:13959  inSwap = false */\n      0x0100\n      exp\n      dup2\n      sload\n      dup2\n      0xff\n      mul\n      not\n      and\n      swap1\n      dup4\n      iszero\n      iszero\n      mul\n      or\n      swap1\n      sstore\n      pop\n        /* \"saf.sol\":21637:22834  function swapBack() internal swapping {\r... */\n      jump\t// out\n        /* \"saf.sol\":23416:23630  function shouldTakeFee(address from, address to)\r... */\n    tag_444:\n        /* \"saf.sol\":23515:23519  bool */\n      0x00\n        /* \"saf.sol\":23567:23571  from */\n      dup3\n        /* \"saf.sol\":23559:23571  pair == from */\n      0xffffffffffffffffffffffffffffffffffffffff\n      and\n        /* \"saf.sol\":23559:23563  pair */\n      0x16\n      0x00\n      swap1\n      sload\n      swap1\n      0x0100\n      exp\n      swap1\n      div\n      0xffffffffffffffffffffffffffffffffffffffff\n      and\n        /* \"saf.sol\":23559:23571  pair == from */\n      0xffffffffffffffffffffffffffffffffffffffff\n      and\n      eq\n        /* \"saf.sol\":23559:23585  pair == from || pair == to */\n      dup1\n      tag_566\n      jumpi\n      pop\n        /* \"saf.sol\":23583:23585  to */\n      dup2\n        /* \"saf.sol\":23575:23585  pair == to */\n      0xffffffffffffffffffffffffffffffffffffffff\n      and\n        /* \"saf.sol\":23575:23579  pair */\n      0x16\n      0x00\n      swap1\n      sload\n      swap1\n      0x0100\n      exp\n      swap1\n      div\n      0xffffffffffffffffffffffffffffffffffffffff\n      and\n        /* \"saf.sol\":23575:23585  pair == to */\n      0xffffffffffffffffffffffffffffffffffffffff\n      and\n      eq\n        /* \"saf.sol\":23559:23585  pair == from || pair == to */\n    tag_566:\n        /* \"saf.sol\":23558:23622  (pair == from || pair == to) &&\r... */\n      dup1\n      iszero\n      tag_567\n      jumpi\n      pop\n        /* \"saf.sol\":23604:23616  _isFeeExempt */\n      0x06\n        /* \"saf.sol\":23604:23622  _isFeeExempt[from] */\n      0x00\n        /* \"saf.sol\":23617:23621  from */\n      dup5\n        /* \"saf.sol\":23604:23622  _isFeeExempt[from] */\n      0xffffffffffffffffffffffffffffffffffffffff\n      and\n      0xffffffffffffffffffffffffffffffffffffffff\n      and\n      dup2\n      mstore\n      0x20\n      add\n      swap1\n      dup2\n      mstore\n      0x20\n      add\n      0x00\n      keccak256\n      0x00\n      swap1\n      sload\n      swap1\n      0x0100\n      exp\n      swap1\n      div\n      0xff\n      and\n        /* \"saf.sol\":23603:23622  !_isFeeExempt[from] */\n      iszero\n        /* \"saf.sol\":23558:23622  (pair == from || pair == to) &&\r... */\n    tag_567:\n        /* \"saf.sol\":23537:23622  return \r... */\n      swap1\n      pop\n        /* \"saf.sol\":23416:23630  function shouldTakeFee(address from, address to)\r... */\n      swap3\n      swap2\n      pop\n      pop\n      jump\t// out\n        /* \"saf.sol\":19160:20216  function takeFee(\r... */\n    tag_448:\n        /* \"saf.sol\":19284:19291  uint256 */\n      0x00\n        /* \"saf.sol\":19304:19321  uint256 _totalFee */\n      dup1\n        /* \"saf.sol\":19324:19332  totalFee */\n      sload(0x0c)\n        /* \"saf.sol\":19304:19332  uint256 _totalFee = totalFee */\n      swap1\n      pop\n        /* \"saf.sol\":19343:19363  uint256 _treasuryFee */\n      0x00\n        /* \"saf.sol\":19366:19377  treasuryFee */\n      sload(0x08)\n        /* \"saf.sol\":19343:19377  uint256 _treasuryFee = treasuryFee */\n      swap1\n      pop\n        /* \"saf.sol\":19407:19411  pair */\n      0x16\n      0x00\n      swap1\n      sload\n      swap1\n      0x0100\n      exp\n      swap1\n      div\n      0xffffffffffffffffffffffffffffffffffffffff\n      and\n        /* \"saf.sol\":19394:19411  recipient == pair */\n      0xffffffffffffffffffffffffffffffffffffffff\n      and\n        /* \"saf.sol\":19394:19403  recipient */\n      dup6\n        /* \"saf.sol\":19394:19411  recipient == pair */\n      0xffffffffffffffffffffffffffffffffffffffff\n      and\n      eq\n        /* \"saf.sol\":19390:19527  if (recipient == pair) {\r... */\n      iszero\n      tag_569\n      jumpi\n        /* \"saf.sol\":19440:19461  totalFee.add(sellFee) */\n      tag_570\n        /* \"saf.sol\":19453:19460  sellFee */\n      sload(0x0a)\n        /* \"saf.sol\":19440:19448  totalFee */\n      sload(0x0c)\n        /* \"saf.sol\":19440:19452  totalFee.add */\n      tag_282\n      swap1\n        /* \"saf.sol\":19440:19461  totalFee.add(sellFee) */\n      swap2\n      swap1\n      0xffffffff\n      and\n      jump\t// in\n    tag_570:\n        /* \"saf.sol\":19428:19461  _totalFee = totalFee.add(sellFee) */\n      swap2\n      pop\n        /* \"saf.sol\":19491:19515  treasuryFee.add(sellFee) */\n      tag_571\n        /* \"saf.sol\":19507:19514  sellFee */\n      sload(0x0a)\n        /* \"saf.sol\":19491:19502  treasuryFee */\n      sload(0x08)\n        /* \"saf.sol\":19491:19506  treasuryFee.add */\n      tag_282\n      swap1\n        /* \"saf.sol\":19491:19515  treasuryFee.add(sellFee) */\n      swap2\n      swap1\n      0xffffffff\n      and\n      jump\t// in\n    tag_571:\n        /* \"saf.sol\":19476:19515  _treasuryFee = treasuryFee.add(sellFee) */\n      swap1\n      pop\n        /* \"saf.sol\":19390:19527  if (recipient == pair) {\r... */\n    tag_569:\n        /* \"saf.sol\":19539:19556  uint256 feeAmount */\n      0x00\n        /* \"saf.sol\":19559:19603  gonAmount.div(feeDenominator).mul(_totalFee) */\n      tag_572\n        /* \"saf.sol\":19593:19602  _totalFee */\n      dup4\n        /* \"saf.sol\":19559:19588  gonAmount.div(feeDenominator) */\n      tag_573\n        /* \"saf.sol\":19573:19587  feeDenominator */\n      sload(0x0d)\n        /* \"saf.sol\":19559:19568  gonAmount */\n      dup9\n        /* \"saf.sol\":19559:19572  gonAmount.div */\n      tag_283\n      swap1\n        /* \"saf.sol\":19559:19588  gonAmount.div(feeDenominator) */\n      swap2\n      swap1\n      0xffffffff\n      and\n      jump\t// in\n    tag_573:\n        /* \"saf.sol\":19559:19592  gonAmount.div(feeDenominator).mul */\n      tag_395\n      swap1\n        /* \"saf.sol\":19559:19603  gonAmount.div(feeDenominator).mul(_totalFee) */\n      swap2\n      swap1\n      0xffffffff\n      and\n      jump\t// in\n    tag_572:\n        /* \"saf.sol\":19539:19603  uint256 feeAmount = gonAmount.div(feeDenominator).mul(_totalFee) */\n      swap1\n      pop\n        /* \"saf.sol\":19647:19743  _gonBalances[firePit].add(\r... */\n      tag_574\n        /* \"saf.sol\":19687:19732  gonAmount.div(feeDenominator).mul(firePitFee) */\n      tag_575\n        /* \"saf.sol\":19721:19731  firePitFee */\n      sload(0x0b)\n        /* \"saf.sol\":19687:19716  gonAmount.div(feeDenominator) */\n      tag_576\n        /* \"saf.sol\":19701:19715  feeDenominator */\n      sload(0x0d)\n        /* \"saf.sol\":19687:19696  gonAmount */\n      dup10\n        /* \"saf.sol\":19687:19700  gonAmount.div */\n      tag_283\n      swap1\n        /* \"saf.sol\":19687:19716  gonAmount.div(feeDenominator) */\n      swap2\n      swap1\n      0xffffffff\n      and\n      jump\t// in\n    tag_576:\n        /* \"saf.sol\":19687:19720  gonAmount.div(feeDenominator).mul */\n      tag_395\n      swap1\n        /* \"saf.sol\":19687:19732  gonAmount.div(feeDenominator).mul(firePitFee) */\n      swap2\n      swap1\n      0xffffffff\n      and\n      jump\t// in\n    tag_575:\n        /* \"saf.sol\":19647:19659  _gonBalances */\n      0x1c\n        /* \"saf.sol\":19647:19668  _gonBalances[firePit] */\n      0x00\n        /* \"saf.sol\":19660:19667  firePit */\n      0x13\n      0x00\n      swap1\n      sload\n      swap1\n      0x0100\n      exp\n      swap1\n      div\n      0xffffffffffffffffffffffffffffffffffffffff\n      and\n        /* \"saf.sol\":19647:19668  _gonBalances[firePit] */\n      0xffffffffffffffffffffffffffffffffffffffff\n      and\n      0xffffffffffffffffffffffffffffffffffffffff\n      and\n      dup2\n      mstore\n      0x20\n      add\n      swap1\n      dup2\n      mstore\n      0x20\n      add\n      0x00\n      keccak256\n      sload\n        /* \"saf.sol\":19647:19672  _gonBalances[firePit].add */\n      tag_282\n      swap1\n        /* \"saf.sol\":19647:19743  _gonBalances[firePit].add(\r... */\n      swap2\n      swap1\n      0xffffffff\n      and\n      jump\t// in\n    tag_574:\n        /* \"saf.sol\":19623:19635  _gonBalances */\n      0x1c\n        /* \"saf.sol\":19623:19644  _gonBalances[firePit] */\n      0x00\n        /* \"saf.sol\":19636:19643  firePit */\n      0x13\n      0x00\n      swap1\n      sload\n      swap1\n      0x0100\n      exp\n      swap1\n      div\n      0xffffffffffffffffffffffffffffffffffffffff\n      and\n        /* \"saf.sol\":19623:19644  _gonBalances[firePit] */\n      0xffffffffffffffffffffffffffffffffffffffff\n      and\n      0xffffffffffffffffffffffffffffffffffffffff\n      and\n      dup2\n      mstore\n      0x20\n      add\n      swap1\n      dup2\n      mstore\n      0x20\n      add\n      0x00\n      keccak256\n        /* \"saf.sol\":19623:19743  _gonBalances[firePit] = _gonBalances[firePit].add(\r... */\n      dup2\n      swap1\n      sstore\n      pop\n        /* \"saf.sol\":19784:19915  _gonBalances[address(this)].add(\r... */\n      tag_577\n        /* \"saf.sol\":19830:19904  gonAmount.div(feeDenominator).mul(_treasuryFee.add(safuuInsuranceFundFee)) */\n      tag_578\n        /* \"saf.sol\":19864:19903  _treasuryFee.add(safuuInsuranceFundFee) */\n      tag_579\n        /* \"saf.sol\":19881:19902  safuuInsuranceFundFee */\n      sload(0x09)\n        /* \"saf.sol\":19864:19876  _treasuryFee */\n      dup6\n        /* \"saf.sol\":19864:19880  _treasuryFee.add */\n      tag_282\n      swap1\n        /* \"saf.sol\":19864:19903  _treasuryFee.add(safuuInsuranceFundFee) */\n      swap2\n      swap1\n      0xffffffff\n      and\n      jump\t// in\n    tag_579:\n        /* \"saf.sol\":19830:19859  gonAmount.div(feeDenominator) */\n      tag_580\n        /* \"saf.sol\":19844:19858  feeDenominator */\n      sload(0x0d)\n        /* \"saf.sol\":19830:19839  gonAmount */\n      dup10\n        /* \"saf.sol\":19830:19843  gonAmount.div */\n      tag_283\n      swap1\n        /* \"saf.sol\":19830:19859  gonAmount.div(feeDenominator) */\n      swap2\n      swap1\n      0xffffffff\n      and\n      jump\t// in\n    tag_580:\n        /* \"saf.sol\":19830:19863  gonAmount.div(feeDenominator).mul */\n      tag_395\n      swap1\n        /* \"saf.sol\":19830:19904  gonAmount.div(feeDenominator).mul(_treasuryFee.add(safuuInsuranceFundFee)) */\n      swap2\n      swap1\n      0xffffffff\n      and\n      jump\t// in\n    tag_578:\n        /* \"saf.sol\":19784:19796  _gonBalances */\n      0x1c\n        /* \"saf.sol\":19784:19811  _gonBalances[address(this)] */\n      0x00\n        /* \"saf.sol\":19805:19809  this */\n      address\n        /* \"saf.sol\":19784:19811  _gonBalances[address(this)] */\n      0xffffffffffffffffffffffffffffffffffffffff\n      and\n      0xffffffffffffffffffffffffffffffffffffffff\n      and\n      dup2\n      mstore\n      0x20\n      add\n      swap1\n      dup2\n      mstore\n      0x20\n      add\n      0x00\n      keccak256\n      sload\n        /* \"saf.sol\":19784:19815  _gonBalances[address(this)].add */\n      tag_282\n      swap1\n        /* \"saf.sol\":19784:19915  _gonBalances[address(this)].add(\r... */\n      swap2\n      swap1\n      0xffffffff\n      and\n      jump\t// in\n    tag_577:\n        /* \"saf.sol\":19754:19766  _gonBalances */\n      0x1c\n        /* \"saf.sol\":19754:19781  _gonBalances[address(this)] */\n      0x00\n        /* \"saf.sol\":19775:19779  this */\n      address\n        /* \"saf.sol\":19754:19781  _gonBalances[address(this)] */\n      0xffffffffffffffffffffffffffffffffffffffff\n      and\n      0xffffffffffffffffffffffffffffffffffffffff\n      and\n      dup2\n      mstore\n      0x20\n      add\n      swap1\n      dup2\n      mstore\n      0x20\n      add\n      0x00\n      keccak256\n        /* \"saf.sol\":19754:19915  _gonBalances[address(this)] = _gonBalances[address(this)].add(\r... */\n      dup2\n      swap1\n      sstore\n      pop\n        /* \"saf.sol\":19964:20076  _gonBalances[autoLiquidityReceiver].add(\r... */\n      tag_581\n        /* \"saf.sol\":20018:20065  gonAmount.div(feeDenominator).mul(liquidityFee) */\n      tag_582\n        /* \"saf.sol\":20052:20064  liquidityFee */\n      sload(0x07)\n        /* \"saf.sol\":20018:20047  gonAmount.div(feeDenominator) */\n      tag_583\n        /* \"saf.sol\":20032:20046  feeDenominator */\n      sload(0x0d)\n        /* \"saf.sol\":20018:20027  gonAmount */\n      dup10\n        /* \"saf.sol\":20018:20031  gonAmount.div */\n      tag_283\n      swap1\n        /* \"saf.sol\":20018:20047  gonAmount.div(feeDenominator) */\n      swap2\n      swap1\n      0xffffffff\n      and\n      jump\t// in\n    tag_583:\n        /* \"saf.sol\":20018:20051  gonAmount.div(feeDenominator).mul */\n      tag_395\n      swap1\n        /* \"saf.sol\":20018:20065  gonAmount.div(feeDenominator).mul(liquidityFee) */\n      swap2\n      swap1\n      0xffffffff\n      and\n      jump\t// in\n    tag_582:\n        /* \"saf.sol\":19964:19976  _gonBalances */\n      0x1c\n        /* \"saf.sol\":19964:19999  _gonBalances[autoLiquidityReceiver] */\n      0x00\n        /* \"saf.sol\":19977:19998  autoLiquidityReceiver */\n      0x10\n      0x00\n      swap1\n      sload\n      swap1\n      0x0100\n      exp\n      swap1\n      div\n      0xffffffffffffffffffffffffffffffffffffffff\n      and\n        /* \"saf.sol\":19964:19999  _gonBalances[autoLiquidityReceiver] */\n      0xffffffffffffffffffffffffffffffffffffffff\n      and\n      0xffffffffffffffffffffffffffffffffffffffff\n      and\n      dup2\n      mstore\n      0x20\n      add\n      swap1\n      dup2\n      mstore\n      0x20\n      add\n      0x00\n      keccak256\n      sload\n        /* \"saf.sol\":19964:20003  _gonBalances[autoLiquidityReceiver].add */\n      tag_282\n      swap1\n        /* \"saf.sol\":19964:20076  _gonBalances[autoLiquidityReceiver].add(\r... */\n      swap2\n      swap1\n      0xffffffff\n      and\n      jump\t// in\n    tag_581:\n        /* \"saf.sol\":19926:19938  _gonBalances */\n      0x1c\n        /* \"saf.sol\":19926:19961  _gonBalances[autoLiquidityReceiver] */\n      0x00\n        /* \"saf.sol\":19939:19960  autoLiquidityReceiver */\n      0x10\n      0x00\n      swap1\n      sload\n      swap1\n      0x0100\n      exp\n      swap1\n      div\n      0xffffffffffffffffffffffffffffffffffffffff\n      and\n        /* \"saf.sol\":19926:19961  _gonBalances[autoLiquidityReceiver] */\n      0xffffffffffffffffffffffffffffffffffffffff\n      and\n      0xffffffffffffffffffffffffffffffffffffffff\n      and\n      dup2\n      mstore\n      0x20\n      add\n      swap1\n      dup2\n      mstore\n      0x20\n      add\n      0x00\n      keccak256\n        /* \"saf.sol\":19926:20076  _gonBalances[autoLiquidityReceiver] = _gonBalances[autoLiquidityReceiver].add(\r... */\n      dup2\n      swap1\n      sstore\n      pop\n        /* \"saf.sol\":20127:20131  this */\n      address\n        /* \"saf.sol\":20102:20166  Transfer(sender, address(this), feeAmount.div(_gonsPerFragment)) */\n      0xffffffffffffffffffffffffffffffffffffffff\n      and\n        /* \"saf.sol\":20111:20117  sender */\n      dup8\n        /* \"saf.sol\":20102:20166  Transfer(sender, address(this), feeAmount.div(_gonsPerFragment)) */\n      0xffffffffffffffffffffffffffffffffffffffff\n      and\n      0xddf252ad1be2c89b69c2b068fc378daa952ba7f163c4a11628f55a4df523b3ef\n        /* \"saf.sol\":20134:20165  feeAmount.div(_gonsPerFragment) */\n      tag_584\n        /* \"saf.sol\":20148:20164  _gonsPerFragment */\n      sload(0x1b)\n        /* \"saf.sol\":20134:20143  feeAmount */\n      dup6\n        /* \"saf.sol\":20134:20147  feeAmount.div */\n      tag_283\n      swap1\n        /* \"saf.sol\":20134:20165  feeAmount.div(_gonsPerFragment) */\n      swap2\n      swap1\n      0xffffffff\n      and\n      jump\t// in\n    tag_584:\n        /* \"saf.sol\":20102:20166  Transfer(sender, address(this), feeAmount.div(_gonsPerFragment)) */\n      mload(0x40)\n      dup1\n      dup3\n      dup2\n      mstore\n      0x20\n      add\n      swap2\n      pop\n      pop\n      mload(0x40)\n      dup1\n      swap2\n      sub\n      swap1\n      log3\n        /* \"saf.sol\":20184:20208  gonAmount.sub(feeAmount) */\n      tag_585\n        /* \"saf.sol\":20198:20207  feeAmount */\n      dup2\n        /* \"saf.sol\":20184:20193  gonAmount */\n      dup7\n        /* \"saf.sol\":20184:20197  gonAmount.sub */\n      tag_303\n      swap1\n        /* \"saf.sol\":20184:20208  gonAmount.sub(feeAmount) */\n      swap2\n      swap1\n      0xffffffff\n      and\n      jump\t// in\n    tag_585:\n        /* \"saf.sol\":20177:20208  return gonAmount.sub(feeAmount) */\n      swap4\n      pop\n      pop\n      pop\n      pop\n        /* \"saf.sol\":19160:20216  function takeFee(\r... */\n      swap4\n      swap3\n      pop\n      pop\n      pop\n      jump\t// out\n    stop\n    data_02b80227d7ee5be30ffaddd176f79d825f278320e9e030ccf3d6dcded5203c3c 5468657265206973206e6f20536166757520746f6b656e206465706f736974656420696e20746f6b656e20636f6e7472616374\n    data_9113bb53c2876a3805b2c9242029423fc540a728243ce887ab24c82cf119fba3 536166654d6174683a206d756c7469706c69636174696f6e206f766572666c6f77\n    data_a9fc452bf136d05a2ea42cd97645774b862952c28b211935b1074bbb4b1bbfcc 6f6e6c7920636f6e747261637420616464726573732c206e6f7420616c6c6f776564206578746572616e6c6c79206f776e6564206163636f756e74\n\n    auxdata: 0xa2646970667358221220f53358c0c1655fd13f0a5015f187bab955ab076b5ee85708d351f9e90e429c9a64736f6c63430007040033\n}\n",
				"bytecode": {
					"linkReferences": {},
					"object": "60806040526040518060400160405280600581526020017f5361667575000000000000000000000000000000000000000000000000000000815250600390805190602001906200005192919062000dbc565b506040518060400160405280600581526020017f5341465555000000000000000000000000000000000000000000000000000000815250600490805190602001906200009f92919062000dbc565b5060058060006101000a81548160ff021916908360ff1602179055506028600755601960085560326009556014600a556019600b5562000128600b54620001146009546200010060085460075462000b1b60201b62002c631790919060201c565b62000b1b60201b62002c631790919060201c565b62000b1b60201b62002c631790919060201c565b600c556103e8600d5561dead600e60006101000a81548173ffffffffffffffffffffffffffffffffffffffff021916908373ffffffffffffffffffffffffffffffffffffffff1602179055506000600f60006101000a81548173ffffffffffffffffffffffffffffffffffffffff021916908373ffffffffffffffffffffffffffffffffffffffff16021790555060016014806101000a81548160ff0219169083151502179055506000601660146101000a81548160ff021916908315150217905550348015620001f857600080fd5b506040518060400160405280600581526020017f53616675750000000000000000000000000000000000000000000000000000008152506040518060400160405280600581526020017f5341465555000000000000000000000000000000000000000000000000000000815250600582600090805190602001906200027f92919062000dbc565b5081600190805190602001906200029892919062000dbc565b5080600260006101000a81548160ff021916908360ff16021790555050505033600260016101000a81548173ffffffffffffffffffffffffffffffffffffffff021916908373ffffffffffffffffffffffffffffffffffffffff1602179055507310ed43c718714eb63d5aa57b78b54704e256024e601560006101000a81548173ffffffffffffffffffffffffffffffffffffffff021916908373ffffffffffffffffffffffffffffffffffffffff160217905550601560009054906101000a900473ffffffffffffffffffffffffffffffffffffffff1673ffffffffffffffffffffffffffffffffffffffff1663c45a01556040518163ffffffff1660e01b815260040160206040518083038186803b158015620003b657600080fd5b505afa158015620003cb573d6000803e3d6000fd5b505050506040513d6020811015620003e257600080fd5b810190808051906020019092919050505073ffffffffffffffffffffffffffffffffffffffff1663c9c65396601560009054906101000a900473ffffffffffffffffffffffffffffffffffffffff1673ffffffffffffffffffffffffffffffffffffffff1663ad5c46486040518163ffffffff1660e01b815260040160206040518083038186803b1580156200047757600080fd5b505afa1580156200048c573d6000803e3d6000fd5b505050506040513d6020811015620004a357600080fd5b8101908080519060200190929190505050306040518363ffffffff1660e01b8152600401808373ffffffffffffffffffffffffffffffffffffffff1681526020018273ffffffffffffffffffffffffffffffffffffffff16815260200192505050602060405180830381600087803b1580156200051f57600080fd5b505af115801562000534573d6000803e3d6000fd5b505050506040513d60208110156200054b57600080fd5b8101908080519060200190929190505050601660006101000a81548173ffffffffffffffffffffffffffffffffffffffff021916908373ffffffffffffffffffffffffffffffffffffffff160217905550735562640b953b6c2f79a655e930afa68b2a65c627601060006101000a81548173ffffffffffffffffffffffffffffffffffffffff021916908373ffffffffffffffffffffffffffffffffffffffff1602179055507378731d3ca6b7e34ac0f824c42a7cc18a495cabab601160006101000a81548173ffffffffffffffffffffffffffffffffffffffff021916908373ffffffffffffffffffffffffffffffffffffffff16021790555073082d0fbca3d80b2d4a05e20bfc227523be8efef3601260006101000a81548173ffffffffffffffffffffffffffffffffffffffff021916908373ffffffffffffffffffffffffffffffffffffffff16021790555073aa32c984afdfa6b95e88b8ab7fabfa65de89b98c601360006101000a81548173ffffffffffffffffffffffffffffffffffffffff021916908373ffffffffffffffffffffffffffffffffffffffff1602179055507fffffffffffffffffffffffffffffffffffffffffffffffffffffffffffffffff601d60003073ffffffffffffffffffffffffffffffffffffffff1673ffffffffffffffffffffffffffffffffffffffff1681526020019081526020016000206000601560009054906101000a900473ffffffffffffffffffffffffffffffffffffffff1673ffffffffffffffffffffffffffffffffffffffff1673ffffffffffffffffffffffffffffffffffffffff16815260200190815260200160002081905550601660009054906101000a900473ffffffffffffffffffffffffffffffffffffffff16601460006101000a81548173ffffffffffffffffffffffffffffffffffffffff021916908373ffffffffffffffffffffffffffffffffffffffff160217905550601660009054906101000a900473ffffffffffffffffffffffffffffffffffffffff16600560016101000a81548173ffffffffffffffffffffffffffffffffffffffff021916908373ffffffffffffffffffffffffffffffffffffffff1602179055506005600a0a6204f58802601a819055506005600a0a6204f58802600019816200089e57fe5b0660001903601c6000601160009054906101000a900473ffffffffffffffffffffffffffffffffffffffff1673ffffffffffffffffffffffffffffffffffffffff1673ffffffffffffffffffffffffffffffffffffffff168152602001908152602001600020819055506200093d601a546005600a0a6204f58802600019816200092457fe5b066000190362000ba460201b62002ceb1790919060201c565b601b8190555042601781905550426018819055506001601660156101000a81548160ff02191690831515021790555060016016806101000a81548160ff021916908315150217905550600160066000601160009054906101000a900473ffffffffffffffffffffffffffffffffffffffff1673ffffffffffffffffffffffffffffffffffffffff1673ffffffffffffffffffffffffffffffffffffffff16815260200190815260200160002060006101000a81548160ff0219169083151502179055506001600660003073ffffffffffffffffffffffffffffffffffffffff1673ffffffffffffffffffffffffffffffffffffffff16815260200190815260200160002060006101000a81548160ff02191690831515021790555062000a8b601160009054906101000a900473ffffffffffffffffffffffffffffffffffffffff1662000bf660201b60201c565b601160009054906101000a900473ffffffffffffffffffffffffffffffffffffffff1673ffffffffffffffffffffffffffffffffffffffff16600073ffffffffffffffffffffffffffffffffffffffff167fddf252ad1be2c89b69c2b068fc378daa952ba7f163c4a11628f55a4df523b3ef601a546040518082815260200191505060405180910390a362000e72565b60008082840190508381101562000b9a576040517f08c379a000000000000000000000000000000000000000000000000000000000815260040180806020018281038252601b8152602001807f536166654d6174683a206164646974696f6e206f766572666c6f77000000000081525060200191505060405180910390fd5b8091505092915050565b600062000bee83836040518060400160405280601a81526020017f536166654d6174683a206469766973696f6e206279207a65726f00000000000081525062000cf160201b60201c565b905092915050565b600073ffffffffffffffffffffffffffffffffffffffff168173ffffffffffffffffffffffffffffffffffffffff16141562000c3157600080fd5b8073ffffffffffffffffffffffffffffffffffffffff16600260019054906101000a900473ffffffffffffffffffffffffffffffffffffffff1673ffffffffffffffffffffffffffffffffffffffff167f8be0079c531659141344cd1fd0a4f28419497f9722a3daafe3b4186f6b6457e060405160405180910390a380600260016101000a81548173ffffffffffffffffffffffffffffffffffffffff021916908373ffffffffffffffffffffffffffffffffffffffff16021790555050565b6000808311829062000da1576040517f08c379a00000000000000000000000000000000000000000000000000000000081526004018080602001828103825283818151815260200191508051906020019080838360005b8381101562000d6557808201518184015260208101905062000d48565b50505050905090810190601f16801562000d935780820380516001836020036101000a031916815260200191505b509250505060405180910390fd5b50600083858162000dae57fe5b049050809150509392505050565b828054600181600116156101000203166002900490600052602060002090601f01602090048101928262000df4576000855562000e40565b82601f1062000e0f57805160ff191683800117855562000e40565b8280016001018555821562000e40579182015b8281111562000e3f57825182559160200191906001019062000e22565b5b50905062000e4f919062000e53565b5090565b5b8082111562000e6e57600081600090555060010162000e54565b5090565b614a798062000e826000396000f3fe60806040526004361061037a5760003560e01c8063753d02a1116101d1578063a9059cbb11610102578063d28d8852116100a0578063e15beb801161006f578063e15beb8014611236578063f2fde38b14611273578063f887ea40146112c4578063f9f92be41461130557610381565b8063d28d88521461106b578063d4399790146110fb578063d51ed1c814611162578063dd62ed3e146111b157610381565b8063bd595581116100dc578063bd59558114610fab578063ca33e64c14610fc2578063cc32d17614611003578063cfbac92f1461102e57610381565b8063a9059cbb14610e7d578063afb9cf6d14610eee578063b09f126614610f1b57610381565b80639b2912cc1161016f578063a457c2d711610149578063a457c2d714610d5f578063a6cf729314610dd0578063a8aa1b3114610dfb578063a8b0898214610e3c57610381565b80639b2912cc14610cb85780639b87676c14610ce3578063a22d483214610d0e57610381565b80638da5cb5b116101ab5780638da5cb5b14610b8f5780638f32d59b14610bd057806395d89b4114610bfd57806398118cb414610c8d57610381565b8063753d02a114610afa57806383b4ac6814610b11578063854cff2f14610b3e57610381565b806333a581d2116102ab5780634d709adf116102495780636912652c116102235780636912652c14610a245780636ddd171314610a5157806370a0823114610a7e578063715018a614610ae357610381565b80634d709adf1461098a5780634de41e83146109cb5780635a604c52146109f657610381565b80633b91aca9116102855780633b91aca91461082c5780633c8e556d1461086d5780633eaaf86b1461091e57806349d981421461094957610381565b806333a581d21461073357806337c9be871461075e57806339509351146107bb57610381565b80632b112e49116103185780632f34d282116102f25780632f34d2821461065b578063313ce567146106ac57806332424aa3146106da57806332b756831461070857610381565b80632b112e49146105da5780632b14ca56146106055780632e0f26251461063057610381565b8063180b0d7e11610354578063180b0d7e146104c857806318160ddd146104f35780631df4ccfc1461051e57806323b872dd1461054957610381565b806306fdde031461038657806308b1fd8f14610416578063095ea7b31461045757610381565b3661038157005b600080fd5b34801561039257600080fd5b5061039b61136c565b6040518080602001828103825283818151815260200191508051906020019080838360005b838110156103db5780820151818401526020810190506103c0565b50505050905090810190601f1680156104085780820380516001836020036101000a031916815260200191505b509250505060405180910390f35b34801561042257600080fd5b5061042b61140e565b604051808273ffffffffffffffffffffffffffffffffffffffff16815260200191505060405180910390f35b34801561046357600080fd5b506104b06004803603604081101561047a57600080fd5b81019080803573ffffffffffffffffffffffffffffffffffffffff16906020019092919080359060200190929190505050611434565b60405180821515815260200191505060405180910390f35b3480156104d457600080fd5b506104dd611526565b6040518082815260200191505060405180910390f35b3480156104ff57600080fd5b5061050861152c565b6040518082815260200191505060405180910390f35b34801561052a57600080fd5b50610533611536565b6040518082815260200191505060405180910390f35b34801561055557600080fd5b506105c26004803603606081101561056c57600080fd5b81019080803573ffffffffffffffffffffffffffffffffffffffff169060200190929190803573ffffffffffffffffffffffffffffffffffffffff1690602001909291908035906020019092919050505061153c565b60405180821515815260200191505060405180910390f35b3480156105e657600080fd5b506105ef61177b565b6040518082815260200191505060405180910390f35b34801561061157600080fd5b5061061a611895565b6040518082815260200191505060405180910390f35b34801561063c57600080fd5b5061064561189b565b6040518082815260200191505060405180910390f35b34801561066757600080fd5b506106aa6004803603602081101561067e57600080fd5b81019080803573ffffffffffffffffffffffffffffffffffffffff1690602001909291905050506118a0565b005b3480156106b857600080fd5b506106c16118f5565b604051808260ff16815260200191505060405180910390f35b3480156106e657600080fd5b506106ef61190c565b604051808260ff16815260200191505060405180910390f35b34801561071457600080fd5b5061071d61191f565b6040518082815260200191505060405180910390f35b34801561073f57600080fd5b50610748611925565b6040518082815260200191505060405180910390f35b34801561076a57600080fd5b506107b96004803603604081101561078157600080fd5b81019080803573ffffffffffffffffffffffffffffffffffffffff16906020019092919080351515906020019092919050505061192b565b005b3480156107c757600080fd5b50610814600480360360408110156107de57600080fd5b81019080803573ffffffffffffffffffffffffffffffffffffffff169060200190929190803590602001909291905050506119f5565b60405180821515815260200191505060405180910390f35b34801561083857600080fd5b50610841611bf1565b604051808273ffffffffffffffffffffffffffffffffffffffff16815260200191505060405180910390f35b34801561087957600080fd5b5061091c6004803603608081101561089057600080fd5b81019080803573ffffffffffffffffffffffffffffffffffffffff169060200190929190803573ffffffffffffffffffffffffffffffffffffffff169060200190929190803573ffffffffffffffffffffffffffffffffffffffff169060200190929190803573ffffffffffffffffffffffffffffffffffffffff169060200190929190505050611c17565b005b34801561092a57600080fd5b50610933611d32565b6040518082815260200191505060405180910390f35b34801561095557600080fd5b5061095e611d38565b604051808273ffffffffffffffffffffffffffffffffffffffff16815260200191505060405180910390f35b34801561099657600080fd5b5061099f611d5e565b604051808273ffffffffffffffffffffffffffffffffffffffff16815260200191505060405180910390f35b3480156109d757600080fd5b506109e0611d84565b6040518082815260200191505060405180910390f35b348015610a0257600080fd5b50610a0b611d8a565b604051808260ff16815260200191505060405180910390f35b348015610a3057600080fd5b50610a39611d8f565b60405180821515815260200191505060405180910390f35b348015610a5d57600080fd5b50610a66611da0565b60405180821515815260200191505060405180910390f35b348015610a8a57600080fd5b50610acd60048036036020811015610aa157600080fd5b81019080803573ffffffffffffffffffffffffffffffffffffffff169060200190929190505050611db1565b6040518082815260200191505060405180910390f35b348015610aef57600080fd5b50610af8611e0e565b005b348015610b0657600080fd5b50610b0f611ec8565b005b348015610b1d57600080fd5b50610b26611f4c565b60405180821515815260200191505060405180910390f35b348015610b4a57600080fd5b50610b8d60048036036020811015610b6157600080fd5b81019080803573ffffffffffffffffffffffffffffffffffffffff169060200190929190505050611f64565b005b348015610b9b57600080fd5b50610ba4611fd0565b604051808273ffffffffffffffffffffffffffffffffffffffff16815260200191505060405180910390f35b348015610bdc57600080fd5b50610be5611ffa565b60405180821515815260200191505060405180910390f35b348015610c0957600080fd5b50610c12612052565b6040518080602001828103825283818151815260200191508051906020019080838360005b83811015610c52578082015181840152602081019050610c37565b50505050905090810190601f168015610c7f5780820380516001836020036101000a031916815260200191505b509250505060405180910390f35b348015610c9957600080fd5b50610ca26120f4565b6040518082815260200191505060405180910390f35b348015610cc457600080fd5b50610ccd6120fa565b6040518082815260200191505060405180910390f35b348015610cef57600080fd5b50610cf8612100565b6040518082815260200191505060405180910390f35b348015610d1a57600080fd5b50610d5d60048036036020811015610d3157600080fd5b81019080803573ffffffffffffffffffffffffffffffffffffffff169060200190929190505050612106565b005b348015610d6b57600080fd5b50610db860048036036040811015610d8257600080fd5b81019080803573ffffffffffffffffffffffffffffffffffffffff1690602001909291908035906020019092919050505061215b565b60405180821515815260200191505060405180910390f35b348015610ddc57600080fd5b50610de56123eb565b6040518082815260200191505060405180910390f35b348015610e0757600080fd5b50610e106123f1565b604051808273ffffffffffffffffffffffffffffffffffffffff16815260200191505060405180910390f35b348015610e4857600080fd5b50610e51612417565b604051808273ffffffffffffffffffffffffffffffffffffffff16815260200191505060405180910390f35b348015610e8957600080fd5b50610ed660048036036040811015610ea057600080fd5b81019080803573ffffffffffffffffffffffffffffffffffffffff1690602001909291908035906020019092919050505061243d565b60405180821515815260200191505060405180910390f35b348015610efa57600080fd5b50610f03612491565b60405180821515815260200191505060405180910390f35b348015610f2757600080fd5b50610f306124a4565b6040518080602001828103825283818151815260200191508051906020019080838360005b83811015610f70578082015181840152602081019050610f55565b50505050905090810190601f168015610f9d5780820380516001836020036101000a031916815260200191505b509250505060405180910390f35b348015610fb757600080fd5b50610fc0612542565b005b348015610fce57600080fd5b50610fd76128e3565b604051808273ffffffffffffffffffffffffffffffffffffffff16815260200191505060405180910390f35b34801561100f57600080fd5b50611018612909565b6040518082815260200191505060405180910390f35b34801561103a57600080fd5b506110696004803603602081101561105157600080fd5b8101908080351515906020019092919050505061290f565b005b34801561107757600080fd5b50611080612968565b6040518080602001828103825283818151815260200191508051906020019080838360005b838110156110c05780820151818401526020810190506110a5565b50505050905090810190601f1680156110ed5780820380516001836020036101000a031916815260200191505b509250505060405180910390f35b34801561110757600080fd5b5061114a6004803603602081101561111e57600080fd5b81019080803573ffffffffffffffffffffffffffffffffffffffff169060200190929190505050612a06565b60405180821515815260200191505060405180910390f35b34801561116e57600080fd5b5061119b6004803603602081101561118557600080fd5b8101908080359060200190929190505050612a5c565b6040518082815260200191505060405180910390f35b3480156111bd57600080fd5b50611220600480360360408110156111d457600080fd5b81019080803573ffffffffffffffffffffffffffffffffffffffff169060200190929190803573ffffffffffffffffffffffffffffffffffffffff169060200190929190505050612b1e565b6040518082815260200191505060405180910390f35b34801561124257600080fd5b506112716004803603602081101561125957600080fd5b81019080803515159060200190929190505050612ba5565b005b34801561127f57600080fd5b506112c26004803603602081101561129657600080fd5b81019080803573ffffffffffffffffffffffffffffffffffffffff169060200190929190505050612c00565b005b3480156112d057600080fd5b506112d9612c1d565b604051808273ffffffffffffffffffffffffffffffffffffffff16815260200191505060405180910390f35b34801561131157600080fd5b506113546004803603602081101561132857600080fd5b81019080803573ffffffffffffffffffffffffffffffffffffffff169060200190929190505050612c43565b60405180821515815260200191505060405180910390f35b606060008054600181600116156101000203166002900480601f0160208091040260200160405190810160405280929190818152602001828054600181600116156101000203166002900480156114045780601f106113d957610100808354040283529160200191611404565b820191906000526020600020905b8154815290600101906020018083116113e757829003601f168201915b5050505050905090565b601160009054906101000a900473ffffffffffffffffffffffffffffffffffffffff1681565b600081601d60003373ffffffffffffffffffffffffffffffffffffffff1673ffffffffffffffffffffffffffffffffffffffff16815260200190815260200160002060008573ffffffffffffffffffffffffffffffffffffffff1673ffffffffffffffffffffffffffffffffffffffff168152602001908152602001600020819055508273ffffffffffffffffffffffffffffffffffffffff163373ffffffffffffffffffffffffffffffffffffffff167f8c5be1e5ebec7d5bd14f71427d1e84f3dd0314c0f7b2291e5b200ac8c7c3b925846040518082815260200191505060405180910390a36001905092915050565b600d5481565b6000601a54905090565b600c5481565b600082600073ffffffffffffffffffffffffffffffffffffffff168173ffffffffffffffffffffffffffffffffffffffff16141561157957600080fd5b7fffffffffffffffffffffffffffffffffffffffffffffffffffffffffffffffff601d60008773ffffffffffffffffffffffffffffffffffffffff1673ffffffffffffffffffffffffffffffffffffffff16815260200190815260200160002060003373ffffffffffffffffffffffffffffffffffffffff1673ffffffffffffffffffffffffffffffffffffffff1681526020019081526020016000205414611763576116e2836040518060400160405280601681526020017f496e73756666696369656e7420416c6c6f77616e636500000000000000000000815250601d60008973ffffffffffffffffffffffffffffffffffffffff1673ffffffffffffffffffffffffffffffffffffffff16815260200190815260200160002060003373ffffffffffffffffffffffffffffffffffffffff1673ffffffffffffffffffffffffffffffffffffffff16815260200190815260200160002054612d359092919063ffffffff16565b601d60008773ffffffffffffffffffffffffffffffffffffffff1673ffffffffffffffffffffffffffffffffffffffff16815260200190815260200160002060003373ffffffffffffffffffffffffffffffffffffffff1673ffffffffffffffffffffffffffffffffffffffff168152602001908152602001600020819055505b61176e858585612df5565b5060019150509392505050565b6000611890601b54611882601c6000600f60009054906101000a900473ffffffffffffffffffffffffffffffffffffffff1673ffffffffffffffffffffffffffffffffffffffff1673ffffffffffffffffffffffffffffffffffffffff16815260200190815260200160002054611874601c6000600e60009054906101000a900473ffffffffffffffffffffffffffffffffffffffff1673ffffffffffffffffffffffffffffffffffffffff1673ffffffffffffffffffffffffffffffffffffffff168152602001908152602001600020546005600a0a6204f588026000198161186157fe5b066000190361316490919063ffffffff16565b61316490919063ffffffff16565b612ceb90919063ffffffff16565b905090565b600a5481565b600581565b6118a8611ffa565b6118b157600080fd5b80600560016101000a81548173ffffffffffffffffffffffffffffffffffffffff021916908373ffffffffffffffffffffffffffffffffffffffff16021790555050565b6000600260009054906101000a900460ff16905090565b600560009054906101000a900460ff1681565b60185481565b60001981565b611933611ffa565b61193c57600080fd5b611945826131ae565b61199a576040517f08c379a000000000000000000000000000000000000000000000000000000000815260040180806020018281038252603b815260200180614a09603b913960400191505060405180910390fd5b80601e60008473ffffffffffffffffffffffffffffffffffffffff1673ffffffffffffffffffffffffffffffffffffffff16815260200190815260200160002060006101000a81548160ff0219169083151502179055505050565b6000611a8682601d60003373ffffffffffffffffffffffffffffffffffffffff1673ffffffffffffffffffffffffffffffffffffffff16815260200190815260200160002060008673ffffffffffffffffffffffffffffffffffffffff1673ffffffffffffffffffffffffffffffffffffffff16815260200190815260200160002054612c6390919063ffffffff16565b601d60003373ffffffffffffffffffffffffffffffffffffffff1673ffffffffffffffffffffffffffffffffffffffff16815260200190815260200160002060008573ffffffffffffffffffffffffffffffffffffffff1673ffffffffffffffffffffffffffffffffffffffff168152602001908152602001600020819055508273ffffffffffffffffffffffffffffffffffffffff163373ffffffffffffffffffffffffffffffffffffffff167f8c5be1e5ebec7d5bd14f71427d1e84f3dd0314c0f7b2291e5b200ac8c7c3b925601d60003373ffffffffffffffffffffffffffffffffffffffff1673ffffffffffffffffffffffffffffffffffffffff16815260200190815260200160002060008773ffffffffffffffffffffffffffffffffffffffff1673ffffffffffffffffffffffffffffffffffffffff168152602001908152602001600020546040518082815260200191505060405180910390a36001905092915050565b601260009054906101000a900473ffffffffffffffffffffffffffffffffffffffff1681565b611c1f611ffa565b611c2857600080fd5b83601060006101000a81548173ffffffffffffffffffffffffffffffffffffffff021916908373ffffffffffffffffffffffffffffffffffffffff16021790555082601160006101000a81548173ffffffffffffffffffffffffffffffffffffffff021916908373ffffffffffffffffffffffffffffffffffffffff16021790555081601260006101000a81548173ffffffffffffffffffffffffffffffffffffffff021916908373ffffffffffffffffffffffffffffffffffffffff16021790555080601360006101000a81548173ffffffffffffffffffffffffffffffffffffffff021916908373ffffffffffffffffffffffffffffffffffffffff16021790555050505050565b601a5481565b601360009054906101000a900473ffffffffffffffffffffffffffffffffffffffff1681565b600560019054906101000a900473ffffffffffffffffffffffffffffffffffffffff1681565b60095481565b600781565b60168054906101000a900460ff1681565b60148054906101000a900460ff1681565b6000611e07601b54601c60008573ffffffffffffffffffffffffffffffffffffffff1673ffffffffffffffffffffffffffffffffffffffff16815260200190815260200160002054612ceb90919063ffffffff16565b9050919050565b611e16611ffa565b611e1f57600080fd5b600260019054906101000a900473ffffffffffffffffffffffffffffffffffffffff1673ffffffffffffffffffffffffffffffffffffffff167ff8df31144d9c2f0f6b59d69b8b98abd5459d07f2742c4df920b25aae33c6482060405160405180910390a26000600260016101000a81548173ffffffffffffffffffffffffffffffffffffffff021916908373ffffffffffffffffffffffffffffffffffffffff160217905550565b601660009054906101000a900473ffffffffffffffffffffffffffffffffffffffff1673ffffffffffffffffffffffffffffffffffffffff1663fff6cae96040518163ffffffff1660e01b8152600401600060405180830381600087803b158015611f3257600080fd5b505af1158015611f46573d6000803e3d6000fd5b50505050565b6000601660149054906101000a900460ff1615905090565b611f6c611ffa565b611f7557600080fd5b6001600660008373ffffffffffffffffffffffffffffffffffffffff1673ffffffffffffffffffffffffffffffffffffffff16815260200190815260200160002060006101000a81548160ff02191690831515021790555050565b6000600260019054906101000a900473ffffffffffffffffffffffffffffffffffffffff16905090565b6000600260019054906101000a900473ffffffffffffffffffffffffffffffffffffffff1673ffffffffffffffffffffffffffffffffffffffff163373ffffffffffffffffffffffffffffffffffffffff1614905090565b606060018054600181600116156101000203166002900480601f0160208091040260200160405190810160405280929190818152602001828054600181600116156101000203166002900480156120ea5780601f106120bf576101008083540402835291602001916120ea565b820191906000526020600020905b8154815290600101906020018083116120cd57829003601f168201915b5050505050905090565b60075481565b60195481565b60175481565b61210e611ffa565b61211757600080fd5b80601460006101000a81548173ffffffffffffffffffffffffffffffffffffffff021916908373ffffffffffffffffffffffffffffffffffffffff16021790555050565b600080601d60003373ffffffffffffffffffffffffffffffffffffffff1673ffffffffffffffffffffffffffffffffffffffff16815260200190815260200160002060008573ffffffffffffffffffffffffffffffffffffffff1673ffffffffffffffffffffffffffffffffffffffff16815260200190815260200160002054905080831061226b576000601d60003373ffffffffffffffffffffffffffffffffffffffff1673ffffffffffffffffffffffffffffffffffffffff16815260200190815260200160002060008673ffffffffffffffffffffffffffffffffffffffff1673ffffffffffffffffffffffffffffffffffffffff168152602001908152602001600020819055506122ff565b61227e838261316490919063ffffffff16565b601d60003373ffffffffffffffffffffffffffffffffffffffff1673ffffffffffffffffffffffffffffffffffffffff16815260200190815260200160002060008673ffffffffffffffffffffffffffffffffffffffff1673ffffffffffffffffffffffffffffffffffffffff168152602001908152602001600020819055505b8373ffffffffffffffffffffffffffffffffffffffff163373ffffffffffffffffffffffffffffffffffffffff167f8c5be1e5ebec7d5bd14f71427d1e84f3dd0314c0f7b2291e5b200ac8c7c3b925601d60003373ffffffffffffffffffffffffffffffffffffffff1673ffffffffffffffffffffffffffffffffffffffff16815260200190815260200160002060008873ffffffffffffffffffffffffffffffffffffffff1673ffffffffffffffffffffffffffffffffffffffff168152602001908152602001600020546040518082815260200191505060405180910390a3600191505092915050565b600b5481565b601660009054906101000a900473ffffffffffffffffffffffffffffffffffffffff1681565b601460009054906101000a900473ffffffffffffffffffffffffffffffffffffffff1681565b600082600073ffffffffffffffffffffffffffffffffffffffff168173ffffffffffffffffffffffffffffffffffffffff16141561247a57600080fd5b612485338585612df5565b50600191505092915050565b601660159054906101000a900460ff1681565b60048054600181600116156101000203166002900480601f01602080910402602001604051908101604052809291908181526020018280546001816001161561010002031660029004801561253a5780601f1061250f5761010080835404028352916020019161253a565b820191906000526020600020905b81548152906001019060200180831161251d57829003601f168201915b505050505081565b6001601660146101000a81548160ff021916908315150217905550612565611ffa565b61256e57600080fd5b60006125c4601b54601c60003073ffffffffffffffffffffffffffffffffffffffff1673ffffffffffffffffffffffffffffffffffffffff16815260200190815260200160002054612ceb90919063ffffffff16565b90506000811161261f576040517f08c379a00000000000000000000000000000000000000000000000000000000081526004018080602001828103825260338152602001806149b56033913960400191505060405180910390fd5b6060600267ffffffffffffffff8111801561263957600080fd5b506040519080825280602002602001820160405280156126685781602001602082028036833780820191505090505b509050308160008151811061267957fe5b602002602001019073ffffffffffffffffffffffffffffffffffffffff16908173ffffffffffffffffffffffffffffffffffffffff1681525050601560009054906101000a900473ffffffffffffffffffffffffffffffffffffffff1673ffffffffffffffffffffffffffffffffffffffff1663ad5c46486040518163ffffffff1660e01b815260040160206040518083038186803b15801561271b57600080fd5b505afa15801561272f573d6000803e3d6000fd5b505050506040513d602081101561274557600080fd5b81019080805190602001909291905050508160018151811061276357fe5b602002602001019073ffffffffffffffffffffffffffffffffffffffff16908173ffffffffffffffffffffffffffffffffffffffff1681525050601560009054906101000a900473ffffffffffffffffffffffffffffffffffffffff1673ffffffffffffffffffffffffffffffffffffffff1663791ac94783600084601160009054906101000a900473ffffffffffffffffffffffffffffffffffffffff16426040518663ffffffff1660e01b815260040180868152602001858152602001806020018473ffffffffffffffffffffffffffffffffffffffff168152602001838152602001828103825285818151815260200191508051906020019060200280838360005b83811015612883578082015181840152602081019050612868565b505050509050019650505050505050600060405180830381600087803b1580156128ac57600080fd5b505af11580156128c0573d6000803e3d6000fd5b5050505050506000601660146101000a81548160ff021916908315150217905550565b601060009054906101000a900473ffffffffffffffffffffffffffffffffffffffff1681565b60085481565b612917611ffa565b61292057600080fd5b801561294b57806016806101000a81548160ff02191690831515021790555042601981905550612965565b806016806101000a81548160ff0219169083151502179055505b50565b60038054600181600116156101000203166002900480601f0160208091040260200160405190810160405280929190818152602001828054600181600116156101000203166002900480156129fe5780601f106129d3576101008083540402835291602001916129fe565b820191906000526020600020905b8154815290600101906020018083116129e157829003601f168201915b505050505081565b6000600660008373ffffffffffffffffffffffffffffffffffffffff1673ffffffffffffffffffffffffffffffffffffffff16815260200190815260200160002060009054906101000a900460ff169050919050565b600080612ad5601b54601c6000601660009054906101000a900473ffffffffffffffffffffffffffffffffffffffff1673ffffffffffffffffffffffffffffffffffffffff1673ffffffffffffffffffffffffffffffffffffffff16815260200190815260200160002054612ceb90919063ffffffff16565b9050612b16612ae261177b565b612b08612af96002856131c190919063ffffffff16565b866131c190919063ffffffff16565b612ceb90919063ffffffff16565b915050919050565b6000601d60008473ffffffffffffffffffffffffffffffffffffffff1673ffffffffffffffffffffffffffffffffffffffff16815260200190815260200160002060008373ffffffffffffffffffffffffffffffffffffffff1673ffffffffffffffffffffffffffffffffffffffff16815260200190815260200160002054905092915050565b612bad611ffa565b612bb657600080fd5b8015612be25780601660156101000a81548160ff02191690831515021790555042601881905550612bfd565b80601660156101000a81548160ff0219169083151502179055505b50565b612c08611ffa565b612c1157600080fd5b612c1a81613247565b50565b601560009054906101000a900473ffffffffffffffffffffffffffffffffffffffff1681565b601e6020528060005260406000206000915054906101000a900460ff1681565b600080828401905083811015612ce1576040517f08c379a000000000000000000000000000000000000000000000000000000000815260040180806020018281038252601b8152602001807f536166654d6174683a206164646974696f6e206f766572666c6f77000000000081525060200191505060405180910390fd5b8091505092915050565b6000612d2d83836040518060400160405280601a81526020017f536166654d6174683a206469766973696f6e206279207a65726f000000000000815250613341565b905092915050565b6000838311158290612de2576040517f08c379a00000000000000000000000000000000000000000000000000000000081526004018080602001828103825283818151815260200191508051906020019080838360005b83811015612da7578082015181840152602081019050612d8c565b50505050905090810190601f168015612dd45780820380516001836020036101000a031916815260200191505b509250505060405180910390fd5b5060008385039050809150509392505050565b6000601e60008573ffffffffffffffffffffffffffffffffffffffff1673ffffffffffffffffffffffffffffffffffffffff16815260200190815260200160002060009054906101000a900460ff16158015612e9b5750601e60008473ffffffffffffffffffffffffffffffffffffffff1673ffffffffffffffffffffffffffffffffffffffff16815260200190815260200160002060009054906101000a900460ff16155b612f0d576040517f08c379a000000000000000000000000000000000000000000000000000000000815260040180806020018281038252600c8152602001807f696e5f626c61636b6c697374000000000000000000000000000000000000000081525060200191505060405180910390fd5b601660149054906101000a900460ff1615612f3457612f2d848484613407565b905061315d565b612f3c613557565b15612f4a57612f4961360a565b5b612f52613845565b15612f6057612f5f6138e0565b5b612f68613f31565b15612f7657612f75613fa3565b5b6000612f8d601b54846131c190919063ffffffff16565b9050612fe181601c60008873ffffffffffffffffffffffffffffffffffffffff1673ffffffffffffffffffffffffffffffffffffffff1681526020019081526020016000205461316490919063ffffffff16565b601c60008773ffffffffffffffffffffffffffffffffffffffff1673ffffffffffffffffffffffffffffffffffffffff168152602001908152602001600020819055506000613030868661447f565b61303a5781613046565b613045868684614588565b5b905061309a81601c60008873ffffffffffffffffffffffffffffffffffffffff1673ffffffffffffffffffffffffffffffffffffffff16815260200190815260200160002054612c6390919063ffffffff16565b601c60008773ffffffffffffffffffffffffffffffffffffffff1673ffffffffffffffffffffffffffffffffffffffff168152602001908152602001600020819055508473ffffffffffffffffffffffffffffffffffffffff168673ffffffffffffffffffffffffffffffffffffffff167fddf252ad1be2c89b69c2b068fc378daa952ba7f163c4a11628f55a4df523b3ef613141601b5485612ceb90919063ffffffff16565b6040518082815260200191505060405180910390a36001925050505b9392505050565b60006131a683836040518060400160405280601e81526020017f536166654d6174683a207375627472616374696f6e206f766572666c6f770000815250612d35565b905092915050565b600080823b905060008111915050919050565b6000808314156131d45760009050613241565b60008284029050828482816131e557fe5b041461323c576040517f08c379a00000000000000000000000000000000000000000000000000000000081526004018080602001828103825260218152602001806149e86021913960400191505060405180910390fd5b809150505b92915050565b600073ffffffffffffffffffffffffffffffffffffffff168173ffffffffffffffffffffffffffffffffffffffff16141561328157600080fd5b8073ffffffffffffffffffffffffffffffffffffffff16600260019054906101000a900473ffffffffffffffffffffffffffffffffffffffff1673ffffffffffffffffffffffffffffffffffffffff167f8be0079c531659141344cd1fd0a4f28419497f9722a3daafe3b4186f6b6457e060405160405180910390a380600260016101000a81548173ffffffffffffffffffffffffffffffffffffffff021916908373ffffffffffffffffffffffffffffffffffffffff16021790555050565b600080831182906133ed576040517f08c379a00000000000000000000000000000000000000000000000000000000081526004018080602001828103825283818151815260200191508051906020019080838360005b838110156133b2578082015181840152602081019050613397565b50505050905090810190601f1680156133df5780820380516001836020036101000a031916815260200191505b509250505060405180910390fd5b5060008385816133f957fe5b049050809150509392505050565b60008061341f601b54846131c190919063ffffffff16565b905061347381601c60008873ffffffffffffffffffffffffffffffffffffffff1673ffffffffffffffffffffffffffffffffffffffff1681526020019081526020016000205461316490919063ffffffff16565b601c60008773ffffffffffffffffffffffffffffffffffffffff1673ffffffffffffffffffffffffffffffffffffffff1681526020019081526020016000208190555061350881601c60008773ffffffffffffffffffffffffffffffffffffffff1673ffffffffffffffffffffffffffffffffffffffff16815260200190815260200160002054612c6390919063ffffffff16565b601c60008673ffffffffffffffffffffffffffffffffffffffff1673ffffffffffffffffffffffffffffffffffffffff1681526020019081526020016000208190555060019150509392505050565b6000601660159054906101000a900460ff16801561358057506005600a0a63c1b7108002601a54105b80156135da5750601660009054906101000a900473ffffffffffffffffffffffffffffffffffffffff1673ffffffffffffffffffffffffffffffffffffffff163373ffffffffffffffffffffffffffffffffffffffff1614155b80156135f35750601660149054906101000a900460ff16155b80156136055750610384601854014210155b905090565b601660149054906101000a900460ff161561362457613843565b60008060175442039050600060185442039050600061364e61038483612ceb90919063ffffffff16565b90506000613666600f836131c190919063ffffffff16565b90506301e1338084101561367e5761093394506136b9565b6301e1338084106136925760d394506136b8565b6302d1cd4084106136a657600e94506136b7565b630d28688084106136b657600294505b5b5b5b60005b8281101561371e5761370b600760ff16600a0a6136fd6136ec89600760ff16600a0a612c6390919063ffffffff16565b601a546131c190919063ffffffff16565b612ceb90919063ffffffff16565b601a8190555080806001019150506136bc565b5061374c601a546005600a0a6204f588026000198161373957fe5b0660001903612ceb90919063ffffffff16565b601b8190555061377b61376a610384846131c190919063ffffffff16565b601854612c6390919063ffffffff16565b601881905550600560019054906101000a900473ffffffffffffffffffffffffffffffffffffffff1673ffffffffffffffffffffffffffffffffffffffff1663fff6cae96040518163ffffffff1660e01b8152600401600060405180830381600087803b1580156137eb57600080fd5b505af11580156137ff573d6000803e3d6000fd5b50505050807f72725a3b1e5bd622d6bcd1339bb31279c351abe8f541ac7fd320f24e1b1641f2601a546040518082815260200191505060405180910390a250505050505b565b600060168054906101000a900460ff16801561386e5750601660149054906101000a900460ff16155b80156138c85750601660009054906101000a900473ffffffffffffffffffffffffffffffffffffffff1673ffffffffffffffffffffffffffffffffffffffff163373ffffffffffffffffffffffffffffffffffffffff1614155b80156138db57506202a300601954014210155b905090565b6001601660146101000a81548160ff0219169083151502179055506000613973601b54601c6000601060009054906101000a900473ffffffffffffffffffffffffffffffffffffffff1673ffffffffffffffffffffffffffffffffffffffff1673ffffffffffffffffffffffffffffffffffffffff16815260200190815260200160002054612ceb90919063ffffffff16565b9050613a28601c6000601060009054906101000a900473ffffffffffffffffffffffffffffffffffffffff1673ffffffffffffffffffffffffffffffffffffffff1673ffffffffffffffffffffffffffffffffffffffff16815260200190815260200160002054601c60003073ffffffffffffffffffffffffffffffffffffffff1673ffffffffffffffffffffffffffffffffffffffff16815260200190815260200160002054612c6390919063ffffffff16565b601c60003073ffffffffffffffffffffffffffffffffffffffff1673ffffffffffffffffffffffffffffffffffffffff168152602001908152602001600020819055506000601c6000601060009054906101000a900473ffffffffffffffffffffffffffffffffffffffff1673ffffffffffffffffffffffffffffffffffffffff1673ffffffffffffffffffffffffffffffffffffffff168152602001908152602001600020819055506000613ae8600283612ceb90919063ffffffff16565b90506000613aff828461316490919063ffffffff16565b90506000811415613b1257505050613f14565b6060600267ffffffffffffffff81118015613b2c57600080fd5b50604051908082528060200260200182016040528015613b5b5781602001602082028036833780820191505090505b5090503081600081518110613b6c57fe5b602002602001019073ffffffffffffffffffffffffffffffffffffffff16908173ffffffffffffffffffffffffffffffffffffffff1681525050601560009054906101000a900473ffffffffffffffffffffffffffffffffffffffff1673ffffffffffffffffffffffffffffffffffffffff1663ad5c46486040518163ffffffff1660e01b815260040160206040518083038186803b158015613c0e57600080fd5b505afa158015613c22573d6000803e3d6000fd5b505050506040513d6020811015613c3857600080fd5b810190808051906020019092919050505081600181518110613c5657fe5b602002602001019073ffffffffffffffffffffffffffffffffffffffff16908173ffffffffffffffffffffffffffffffffffffffff16815250506000479050601560009054906101000a900473ffffffffffffffffffffffffffffffffffffffff1673ffffffffffffffffffffffffffffffffffffffff1663791ac9478460008530426040518663ffffffff1660e01b815260040180868152602001858152602001806020018473ffffffffffffffffffffffffffffffffffffffff168152602001838152602001828103825285818151815260200191508051906020019060200280838360005b83811015613d59578082015181840152602081019050613d3e565b505050509050019650505050505050600060405180830381600087803b158015613d8257600080fd5b505af1158015613d96573d6000803e3d6000fd5b505050506000613daf824761316490919063ffffffff16565b9050600085118015613dc15750600081115b15613f0657601560009054906101000a900473ffffffffffffffffffffffffffffffffffffffff1673ffffffffffffffffffffffffffffffffffffffff1663f305d719823088600080601060009054906101000a900473ffffffffffffffffffffffffffffffffffffffff16426040518863ffffffff1660e01b8152600401808773ffffffffffffffffffffffffffffffffffffffff1681526020018681526020018581526020018481526020018373ffffffffffffffffffffffffffffffffffffffff16815260200182815260200196505050505050506060604051808303818588803b158015613eb257600080fd5b505af1158015613ec6573d6000803e3d6000fd5b50505050506040513d6060811015613edd57600080fd5b810190808051906020019092919080519060200190929190805190602001909291905050505050505b426019819055505050505050505b6000601660146101000a81548160ff021916908315150217905550565b6000601660149054906101000a900460ff16158015613f9e5750601660009054906101000a900473ffffffffffffffffffffffffffffffffffffffff1673ffffffffffffffffffffffffffffffffffffffff163373ffffffffffffffffffffffffffffffffffffffff1614155b905090565b6001601660146101000a81548160ff0219169083151502179055506000614014601b54601c60003073ffffffffffffffffffffffffffffffffffffffff1673ffffffffffffffffffffffffffffffffffffffff16815260200190815260200160002054612ceb90919063ffffffff16565b905060008114156140255750614462565b60004790506060600267ffffffffffffffff8111801561404457600080fd5b506040519080825280602002602001820160405280156140735781602001602082028036833780820191505090505b509050308160008151811061408457fe5b602002602001019073ffffffffffffffffffffffffffffffffffffffff16908173ffffffffffffffffffffffffffffffffffffffff1681525050601560009054906101000a900473ffffffffffffffffffffffffffffffffffffffff1673ffffffffffffffffffffffffffffffffffffffff1663ad5c46486040518163ffffffff1660e01b815260040160206040518083038186803b15801561412657600080fd5b505afa15801561413a573d6000803e3d6000fd5b505050506040513d602081101561415057600080fd5b81019080805190602001909291905050508160018151811061416e57fe5b602002602001019073ffffffffffffffffffffffffffffffffffffffff16908173ffffffffffffffffffffffffffffffffffffffff1681525050601560009054906101000a900473ffffffffffffffffffffffffffffffffffffffff1673ffffffffffffffffffffffffffffffffffffffff1663791ac9478460008430426040518663ffffffff1660e01b815260040180868152602001858152602001806020018473ffffffffffffffffffffffffffffffffffffffff168152602001838152602001828103825285818151815260200191508051906020019060200280838360005b8381101561426c578082015181840152602081019050614251565b505050509050019650505050505050600060405180830381600087803b15801561429557600080fd5b505af11580156142a9573d6000803e3d6000fd5b5050505060006142c2834761316490919063ffffffff16565b90506000601160009054906101000a900473ffffffffffffffffffffffffffffffffffffffff1673ffffffffffffffffffffffffffffffffffffffff1661433c614319600954600854612c6390919063ffffffff16565b61432e600854866131c190919063ffffffff16565b612ceb90919063ffffffff16565b61753090604051806000019050600060405180830381858888f193505050503d8060008114614387576040519150601f19603f3d011682016040523d82523d6000602084013e61438c565b606091505b50509050601260009054906101000a900473ffffffffffffffffffffffffffffffffffffffff1673ffffffffffffffffffffffffffffffffffffffff166144066143e3600954600854612c6390919063ffffffff16565b6143f8600954866131c190919063ffffffff16565b612ceb90919063ffffffff16565b61753090604051806000019050600060405180830381858888f193505050503d8060008114614451576040519150601f19603f3d011682016040523d82523d6000602084013e614456565b606091505b50508091505050505050505b6000601660146101000a81548160ff021916908315150217905550565b60008273ffffffffffffffffffffffffffffffffffffffff16601660009054906101000a900473ffffffffffffffffffffffffffffffffffffffff1673ffffffffffffffffffffffffffffffffffffffff16148061452a57508173ffffffffffffffffffffffffffffffffffffffff16601660009054906101000a900473ffffffffffffffffffffffffffffffffffffffff1673ffffffffffffffffffffffffffffffffffffffff16145b80156145805750600660008473ffffffffffffffffffffffffffffffffffffffff1673ffffffffffffffffffffffffffffffffffffffff16815260200190815260200160002060009054906101000a900460ff16155b905092915050565b600080600c54905060006008549050601660009054906101000a900473ffffffffffffffffffffffffffffffffffffffff1673ffffffffffffffffffffffffffffffffffffffff168573ffffffffffffffffffffffffffffffffffffffff16141561462057614604600a54600c54612c6390919063ffffffff16565b915061461d600a54600854612c6390919063ffffffff16565b90505b60006146498361463b600d5488612ceb90919063ffffffff16565b6131c190919063ffffffff16565b90506146e7614677600b54614669600d5489612ceb90919063ffffffff16565b6131c190919063ffffffff16565b601c6000601360009054906101000a900473ffffffffffffffffffffffffffffffffffffffff1673ffffffffffffffffffffffffffffffffffffffff1673ffffffffffffffffffffffffffffffffffffffff16815260200190815260200160002054612c6390919063ffffffff16565b601c6000601360009054906101000a900473ffffffffffffffffffffffffffffffffffffffff1673ffffffffffffffffffffffffffffffffffffffff1673ffffffffffffffffffffffffffffffffffffffff168152602001908152602001600020819055506147d861478a61476760095485612c6390919063ffffffff16565b61477c600d5489612ceb90919063ffffffff16565b6131c190919063ffffffff16565b601c60003073ffffffffffffffffffffffffffffffffffffffff1673ffffffffffffffffffffffffffffffffffffffff16815260200190815260200160002054612c6390919063ffffffff16565b601c60003073ffffffffffffffffffffffffffffffffffffffff1673ffffffffffffffffffffffffffffffffffffffff168152602001908152602001600020819055506148b7614847600754614839600d5489612ceb90919063ffffffff16565b6131c190919063ffffffff16565b601c6000601060009054906101000a900473ffffffffffffffffffffffffffffffffffffffff1673ffffffffffffffffffffffffffffffffffffffff1673ffffffffffffffffffffffffffffffffffffffff16815260200190815260200160002054612c6390919063ffffffff16565b601c6000601060009054906101000a900473ffffffffffffffffffffffffffffffffffffffff1673ffffffffffffffffffffffffffffffffffffffff1673ffffffffffffffffffffffffffffffffffffffff168152602001908152602001600020819055503073ffffffffffffffffffffffffffffffffffffffff168773ffffffffffffffffffffffffffffffffffffffff167fddf252ad1be2c89b69c2b068fc378daa952ba7f163c4a11628f55a4df523b3ef614980601b5485612ceb90919063ffffffff16565b6040518082815260200191505060405180910390a36149a8818661316490919063ffffffff16565b9350505050939250505056fe5468657265206973206e6f20536166757520746f6b656e206465706f736974656420696e20746f6b656e20636f6e7472616374536166654d6174683a206d756c7469706c69636174696f6e206f766572666c6f776f6e6c7920636f6e747261637420616464726573732c206e6f7420616c6c6f776564206578746572616e6c6c79206f776e6564206163636f756e74a2646970667358221220f53358c0c1655fd13f0a5015f187bab955ab076b5ee85708d351f9e90e429c9a64736f6c63430007040033",
					"opcodes": "PUSH1 0x80 PUSH1 0x40 MSTORE PUSH1 0x40 MLOAD DUP1 PUSH1 0x40 ADD PUSH1 0x40 MSTORE DUP1 PUSH1 0x5 DUP2 MSTORE PUSH1 0x20 ADD PUSH32 0x5361667575000000000000000000000000000000000000000000000000000000 DUP2 MSTORE POP PUSH1 0x3 SWAP1 DUP1 MLOAD SWAP1 PUSH1 0x20 ADD SWAP1 PUSH3 0x51 SWAP3 SWAP2 SWAP1 PUSH3 0xDBC JUMP JUMPDEST POP PUSH1 0x40 MLOAD DUP1 PUSH1 0x40 ADD PUSH1 0x40 MSTORE DUP1 PUSH1 0x5 DUP2 MSTORE PUSH1 0x20 ADD PUSH32 0x5341465555000000000000000000000000000000000000000000000000000000 DUP2 MSTORE POP PUSH1 0x4 SWAP1 DUP1 MLOAD SWAP1 PUSH1 0x20 ADD SWAP1 PUSH3 0x9F SWAP3 SWAP2 SWAP1 PUSH3 0xDBC JUMP JUMPDEST POP PUSH1 0x5 DUP1 PUSH1 0x0 PUSH2 0x100 EXP DUP2 SLOAD DUP2 PUSH1 0xFF MUL NOT AND SWAP1 DUP4 PUSH1 0xFF AND MUL OR SWAP1 SSTORE POP PUSH1 0x28 PUSH1 0x7 SSTORE PUSH1 0x19 PUSH1 0x8 SSTORE PUSH1 0x32 PUSH1 0x9 SSTORE PUSH1 0x14 PUSH1 0xA SSTORE PUSH1 0x19 PUSH1 0xB SSTORE PUSH3 0x128 PUSH1 0xB SLOAD PUSH3 0x114 PUSH1 0x9 SLOAD PUSH3 0x100 PUSH1 0x8 SLOAD PUSH1 0x7 SLOAD PUSH3 0xB1B PUSH1 0x20 SHL PUSH3 0x2C63 OR SWAP1 SWAP2 SWAP1 PUSH1 0x20 SHR JUMP JUMPDEST PUSH3 0xB1B PUSH1 0x20 SHL PUSH3 0x2C63 OR SWAP1 SWAP2 SWAP1 PUSH1 0x20 SHR JUMP JUMPDEST PUSH3 0xB1B PUSH1 0x20 SHL PUSH3 0x2C63 OR SWAP1 SWAP2 SWAP1 PUSH1 0x20 SHR JUMP JUMPDEST PUSH1 0xC SSTORE PUSH2 0x3E8 PUSH1 0xD SSTORE PUSH2 0xDEAD PUSH1 0xE PUSH1 0x0 PUSH2 0x100 EXP DUP2 SLOAD DUP2 PUSH20 0xFFFFFFFFFFFFFFFFFFFFFFFFFFFFFFFFFFFFFFFF MUL NOT AND SWAP1 DUP4 PUSH20 0xFFFFFFFFFFFFFFFFFFFFFFFFFFFFFFFFFFFFFFFF AND MUL OR SWAP1 SSTORE POP PUSH1 0x0 PUSH1 0xF PUSH1 0x0 PUSH2 0x100 EXP DUP2 SLOAD DUP2 PUSH20 0xFFFFFFFFFFFFFFFFFFFFFFFFFFFFFFFFFFFFFFFF MUL NOT AND SWAP1 DUP4 PUSH20 0xFFFFFFFFFFFFFFFFFFFFFFFFFFFFFFFFFFFFFFFF AND MUL OR SWAP1 SSTORE POP PUSH1 0x1 PUSH1 0x14 DUP1 PUSH2 0x100 EXP DUP2 SLOAD DUP2 PUSH1 0xFF MUL NOT AND SWAP1 DUP4 ISZERO ISZERO MUL OR SWAP1 SSTORE POP PUSH1 0x0 PUSH1 0x16 PUSH1 0x14 PUSH2 0x100 EXP DUP2 SLOAD DUP2 PUSH1 0xFF MUL NOT AND SWAP1 DUP4 ISZERO ISZERO MUL OR SWAP1 SSTORE POP CALLVALUE DUP1 ISZERO PUSH3 0x1F8 JUMPI PUSH1 0x0 DUP1 REVERT JUMPDEST POP PUSH1 0x40 MLOAD DUP1 PUSH1 0x40 ADD PUSH1 0x40 MSTORE DUP1 PUSH1 0x5 DUP2 MSTORE PUSH1 0x20 ADD PUSH32 0x5361667575000000000000000000000000000000000000000000000000000000 DUP2 MSTORE POP PUSH1 0x40 MLOAD DUP1 PUSH1 0x40 ADD PUSH1 0x40 MSTORE DUP1 PUSH1 0x5 DUP2 MSTORE PUSH1 0x20 ADD PUSH32 0x5341465555000000000000000000000000000000000000000000000000000000 DUP2 MSTORE POP PUSH1 0x5 DUP3 PUSH1 0x0 SWAP1 DUP1 MLOAD SWAP1 PUSH1 0x20 ADD SWAP1 PUSH3 0x27F SWAP3 SWAP2 SWAP1 PUSH3 0xDBC JUMP JUMPDEST POP DUP2 PUSH1 0x1 SWAP1 DUP1 MLOAD SWAP1 PUSH1 0x20 ADD SWAP1 PUSH3 0x298 SWAP3 SWAP2 SWAP1 PUSH3 0xDBC JUMP JUMPDEST POP DUP1 PUSH1 0x2 PUSH1 0x0 PUSH2 0x100 EXP DUP2 SLOAD DUP2 PUSH1 0xFF MUL NOT AND SWAP1 DUP4 PUSH1 0xFF AND MUL OR SWAP1 SSTORE POP POP POP POP CALLER PUSH1 0x2 PUSH1 0x1 PUSH2 0x100 EXP DUP2 SLOAD DUP2 PUSH20 0xFFFFFFFFFFFFFFFFFFFFFFFFFFFFFFFFFFFFFFFF MUL NOT AND SWAP1 DUP4 PUSH20 0xFFFFFFFFFFFFFFFFFFFFFFFFFFFFFFFFFFFFFFFF AND MUL OR SWAP1 SSTORE POP PUSH20 0x10ED43C718714EB63D5AA57B78B54704E256024E PUSH1 0x15 PUSH1 0x0 PUSH2 0x100 EXP DUP2 SLOAD DUP2 PUSH20 0xFFFFFFFFFFFFFFFFFFFFFFFFFFFFFFFFFFFFFFFF MUL NOT AND SWAP1 DUP4 PUSH20 0xFFFFFFFFFFFFFFFFFFFFFFFFFFFFFFFFFFFFFFFF AND MUL OR SWAP1 SSTORE POP PUSH1 0x15 PUSH1 0x0 SWAP1 SLOAD SWAP1 PUSH2 0x100 EXP SWAP1 DIV PUSH20 0xFFFFFFFFFFFFFFFFFFFFFFFFFFFFFFFFFFFFFFFF AND PUSH20 0xFFFFFFFFFFFFFFFFFFFFFFFFFFFFFFFFFFFFFFFF AND PUSH4 0xC45A0155 PUSH1 0x40 MLOAD DUP2 PUSH4 0xFFFFFFFF AND PUSH1 0xE0 SHL DUP2 MSTORE PUSH1 0x4 ADD PUSH1 0x20 PUSH1 0x40 MLOAD DUP1 DUP4 SUB DUP2 DUP7 DUP1 EXTCODESIZE ISZERO DUP1 ISZERO PUSH3 0x3B6 JUMPI PUSH1 0x0 DUP1 REVERT JUMPDEST POP GAS STATICCALL ISZERO DUP1 ISZERO PUSH3 0x3CB JUMPI RETURNDATASIZE PUSH1 0x0 DUP1 RETURNDATACOPY RETURNDATASIZE PUSH1 0x0 REVERT JUMPDEST POP POP POP POP PUSH1 0x40 MLOAD RETURNDATASIZE PUSH1 0x20 DUP2 LT ISZERO PUSH3 0x3E2 JUMPI PUSH1 0x0 DUP1 REVERT JUMPDEST DUP2 ADD SWAP1 DUP1 DUP1 MLOAD SWAP1 PUSH1 0x20 ADD SWAP1 SWAP3 SWAP2 SWAP1 POP POP POP PUSH20 0xFFFFFFFFFFFFFFFFFFFFFFFFFFFFFFFFFFFFFFFF AND PUSH4 0xC9C65396 PUSH1 0x15 PUSH1 0x0 SWAP1 SLOAD SWAP1 PUSH2 0x100 EXP SWAP1 DIV PUSH20 0xFFFFFFFFFFFFFFFFFFFFFFFFFFFFFFFFFFFFFFFF AND PUSH20 0xFFFFFFFFFFFFFFFFFFFFFFFFFFFFFFFFFFFFFFFF AND PUSH4 0xAD5C4648 PUSH1 0x40 MLOAD DUP2 PUSH4 0xFFFFFFFF AND PUSH1 0xE0 SHL DUP2 MSTORE PUSH1 0x4 ADD PUSH1 0x20 PUSH1 0x40 MLOAD DUP1 DUP4 SUB DUP2 DUP7 DUP1 EXTCODESIZE ISZERO DUP1 ISZERO PUSH3 0x477 JUMPI PUSH1 0x0 DUP1 REVERT JUMPDEST POP GAS STATICCALL ISZERO DUP1 ISZERO PUSH3 0x48C JUMPI RETURNDATASIZE PUSH1 0x0 DUP1 RETURNDATACOPY RETURNDATASIZE PUSH1 0x0 REVERT JUMPDEST POP POP POP POP PUSH1 0x40 MLOAD RETURNDATASIZE PUSH1 0x20 DUP2 LT ISZERO PUSH3 0x4A3 JUMPI PUSH1 0x0 DUP1 REVERT JUMPDEST DUP2 ADD SWAP1 DUP1 DUP1 MLOAD SWAP1 PUSH1 0x20 ADD SWAP1 SWAP3 SWAP2 SWAP1 POP POP POP ADDRESS PUSH1 0x40 MLOAD DUP4 PUSH4 0xFFFFFFFF AND PUSH1 0xE0 SHL DUP2 MSTORE PUSH1 0x4 ADD DUP1 DUP4 PUSH20 0xFFFFFFFFFFFFFFFFFFFFFFFFFFFFFFFFFFFFFFFF AND DUP2 MSTORE PUSH1 0x20 ADD DUP3 PUSH20 0xFFFFFFFFFFFFFFFFFFFFFFFFFFFFFFFFFFFFFFFF AND DUP2 MSTORE PUSH1 0x20 ADD SWAP3 POP POP POP PUSH1 0x20 PUSH1 0x40 MLOAD DUP1 DUP4 SUB DUP2 PUSH1 0x0 DUP8 DUP1 EXTCODESIZE ISZERO DUP1 ISZERO PUSH3 0x51F JUMPI PUSH1 0x0 DUP1 REVERT JUMPDEST POP GAS CALL ISZERO DUP1 ISZERO PUSH3 0x534 JUMPI RETURNDATASIZE PUSH1 0x0 DUP1 RETURNDATACOPY RETURNDATASIZE PUSH1 0x0 REVERT JUMPDEST POP POP POP POP PUSH1 0x40 MLOAD RETURNDATASIZE PUSH1 0x20 DUP2 LT ISZERO PUSH3 0x54B JUMPI PUSH1 0x0 DUP1 REVERT JUMPDEST DUP2 ADD SWAP1 DUP1 DUP1 MLOAD SWAP1 PUSH1 0x20 ADD SWAP1 SWAP3 SWAP2 SWAP1 POP POP POP PUSH1 0x16 PUSH1 0x0 PUSH2 0x100 EXP DUP2 SLOAD DUP2 PUSH20 0xFFFFFFFFFFFFFFFFFFFFFFFFFFFFFFFFFFFFFFFF MUL NOT AND SWAP1 DUP4 PUSH20 0xFFFFFFFFFFFFFFFFFFFFFFFFFFFFFFFFFFFFFFFF AND MUL OR SWAP1 SSTORE POP PUSH20 0x5562640B953B6C2F79A655E930AFA68B2A65C627 PUSH1 0x10 PUSH1 0x0 PUSH2 0x100 EXP DUP2 SLOAD DUP2 PUSH20 0xFFFFFFFFFFFFFFFFFFFFFFFFFFFFFFFFFFFFFFFF MUL NOT AND SWAP1 DUP4 PUSH20 0xFFFFFFFFFFFFFFFFFFFFFFFFFFFFFFFFFFFFFFFF AND MUL OR SWAP1 SSTORE POP PUSH20 0x78731D3CA6B7E34AC0F824C42A7CC18A495CABAB PUSH1 0x11 PUSH1 0x0 PUSH2 0x100 EXP DUP2 SLOAD DUP2 PUSH20 0xFFFFFFFFFFFFFFFFFFFFFFFFFFFFFFFFFFFFFFFF MUL NOT AND SWAP1 DUP4 PUSH20 0xFFFFFFFFFFFFFFFFFFFFFFFFFFFFFFFFFFFFFFFF AND MUL OR SWAP1 SSTORE POP PUSH20 0x82D0FBCA3D80B2D4A05E20BFC227523BE8EFEF3 PUSH1 0x12 PUSH1 0x0 PUSH2 0x100 EXP DUP2 SLOAD DUP2 PUSH20 0xFFFFFFFFFFFFFFFFFFFFFFFFFFFFFFFFFFFFFFFF MUL NOT AND SWAP1 DUP4 PUSH20 0xFFFFFFFFFFFFFFFFFFFFFFFFFFFFFFFFFFFFFFFF AND MUL OR SWAP1 SSTORE POP PUSH20 0xAA32C984AFDFA6B95E88B8AB7FABFA65DE89B98C PUSH1 0x13 PUSH1 0x0 PUSH2 0x100 EXP DUP2 SLOAD DUP2 PUSH20 0xFFFFFFFFFFFFFFFFFFFFFFFFFFFFFFFFFFFFFFFF MUL NOT AND SWAP1 DUP4 PUSH20 0xFFFFFFFFFFFFFFFFFFFFFFFFFFFFFFFFFFFFFFFF AND MUL OR SWAP1 SSTORE POP PUSH32 0xFFFFFFFFFFFFFFFFFFFFFFFFFFFFFFFFFFFFFFFFFFFFFFFFFFFFFFFFFFFFFFFF PUSH1 0x1D PUSH1 0x0 ADDRESS PUSH20 0xFFFFFFFFFFFFFFFFFFFFFFFFFFFFFFFFFFFFFFFF AND PUSH20 0xFFFFFFFFFFFFFFFFFFFFFFFFFFFFFFFFFFFFFFFF AND DUP2 MSTORE PUSH1 0x20 ADD SWAP1 DUP2 MSTORE PUSH1 0x20 ADD PUSH1 0x0 KECCAK256 PUSH1 0x0 PUSH1 0x15 PUSH1 0x0 SWAP1 SLOAD SWAP1 PUSH2 0x100 EXP SWAP1 DIV PUSH20 0xFFFFFFFFFFFFFFFFFFFFFFFFFFFFFFFFFFFFFFFF AND PUSH20 0xFFFFFFFFFFFFFFFFFFFFFFFFFFFFFFFFFFFFFFFF AND PUSH20 0xFFFFFFFFFFFFFFFFFFFFFFFFFFFFFFFFFFFFFFFF AND DUP2 MSTORE PUSH1 0x20 ADD SWAP1 DUP2 MSTORE PUSH1 0x20 ADD PUSH1 0x0 KECCAK256 DUP2 SWAP1 SSTORE POP PUSH1 0x16 PUSH1 0x0 SWAP1 SLOAD SWAP1 PUSH2 0x100 EXP SWAP1 DIV PUSH20 0xFFFFFFFFFFFFFFFFFFFFFFFFFFFFFFFFFFFFFFFF AND PUSH1 0x14 PUSH1 0x0 PUSH2 0x100 EXP DUP2 SLOAD DUP2 PUSH20 0xFFFFFFFFFFFFFFFFFFFFFFFFFFFFFFFFFFFFFFFF MUL NOT AND SWAP1 DUP4 PUSH20 0xFFFFFFFFFFFFFFFFFFFFFFFFFFFFFFFFFFFFFFFF AND MUL OR SWAP1 SSTORE POP PUSH1 0x16 PUSH1 0x0 SWAP1 SLOAD SWAP1 PUSH2 0x100 EXP SWAP1 DIV PUSH20 0xFFFFFFFFFFFFFFFFFFFFFFFFFFFFFFFFFFFFFFFF AND PUSH1 0x5 PUSH1 0x1 PUSH2 0x100 EXP DUP2 SLOAD DUP2 PUSH20 0xFFFFFFFFFFFFFFFFFFFFFFFFFFFFFFFFFFFFFFFF MUL NOT AND SWAP1 DUP4 PUSH20 0xFFFFFFFFFFFFFFFFFFFFFFFFFFFFFFFFFFFFFFFF AND MUL OR SWAP1 SSTORE POP PUSH1 0x5 PUSH1 0xA EXP PUSH3 0x4F588 MUL PUSH1 0x1A DUP2 SWAP1 SSTORE POP PUSH1 0x5 PUSH1 0xA EXP PUSH3 0x4F588 MUL PUSH1 0x0 NOT DUP2 PUSH3 0x89E JUMPI INVALID JUMPDEST MOD PUSH1 0x0 NOT SUB PUSH1 0x1C PUSH1 0x0 PUSH1 0x11 PUSH1 0x0 SWAP1 SLOAD SWAP1 PUSH2 0x100 EXP SWAP1 DIV PUSH20 0xFFFFFFFFFFFFFFFFFFFFFFFFFFFFFFFFFFFFFFFF AND PUSH20 0xFFFFFFFFFFFFFFFFFFFFFFFFFFFFFFFFFFFFFFFF AND PUSH20 0xFFFFFFFFFFFFFFFFFFFFFFFFFFFFFFFFFFFFFFFF AND DUP2 MSTORE PUSH1 0x20 ADD SWAP1 DUP2 MSTORE PUSH1 0x20 ADD PUSH1 0x0 KECCAK256 DUP2 SWAP1 SSTORE POP PUSH3 0x93D PUSH1 0x1A SLOAD PUSH1 0x5 PUSH1 0xA EXP PUSH3 0x4F588 MUL PUSH1 0x0 NOT DUP2 PUSH3 0x924 JUMPI INVALID JUMPDEST MOD PUSH1 0x0 NOT SUB PUSH3 0xBA4 PUSH1 0x20 SHL PUSH3 0x2CEB OR SWAP1 SWAP2 SWAP1 PUSH1 0x20 SHR JUMP JUMPDEST PUSH1 0x1B DUP2 SWAP1 SSTORE POP TIMESTAMP PUSH1 0x17 DUP2 SWAP1 SSTORE POP TIMESTAMP PUSH1 0x18 DUP2 SWAP1 SSTORE POP PUSH1 0x1 PUSH1 0x16 PUSH1 0x15 PUSH2 0x100 EXP DUP2 SLOAD DUP2 PUSH1 0xFF MUL NOT AND SWAP1 DUP4 ISZERO ISZERO MUL OR SWAP1 SSTORE POP PUSH1 0x1 PUSH1 0x16 DUP1 PUSH2 0x100 EXP DUP2 SLOAD DUP2 PUSH1 0xFF MUL NOT AND SWAP1 DUP4 ISZERO ISZERO MUL OR SWAP1 SSTORE POP PUSH1 0x1 PUSH1 0x6 PUSH1 0x0 PUSH1 0x11 PUSH1 0x0 SWAP1 SLOAD SWAP1 PUSH2 0x100 EXP SWAP1 DIV PUSH20 0xFFFFFFFFFFFFFFFFFFFFFFFFFFFFFFFFFFFFFFFF AND PUSH20 0xFFFFFFFFFFFFFFFFFFFFFFFFFFFFFFFFFFFFFFFF AND PUSH20 0xFFFFFFFFFFFFFFFFFFFFFFFFFFFFFFFFFFFFFFFF AND DUP2 MSTORE PUSH1 0x20 ADD SWAP1 DUP2 MSTORE PUSH1 0x20 ADD PUSH1 0x0 KECCAK256 PUSH1 0x0 PUSH2 0x100 EXP DUP2 SLOAD DUP2 PUSH1 0xFF MUL NOT AND SWAP1 DUP4 ISZERO ISZERO MUL OR SWAP1 SSTORE POP PUSH1 0x1 PUSH1 0x6 PUSH1 0x0 ADDRESS PUSH20 0xFFFFFFFFFFFFFFFFFFFFFFFFFFFFFFFFFFFFFFFF AND PUSH20 0xFFFFFFFFFFFFFFFFFFFFFFFFFFFFFFFFFFFFFFFF AND DUP2 MSTORE PUSH1 0x20 ADD SWAP1 DUP2 MSTORE PUSH1 0x20 ADD PUSH1 0x0 KECCAK256 PUSH1 0x0 PUSH2 0x100 EXP DUP2 SLOAD DUP2 PUSH1 0xFF MUL NOT AND SWAP1 DUP4 ISZERO ISZERO MUL OR SWAP1 SSTORE POP PUSH3 0xA8B PUSH1 0x11 PUSH1 0x0 SWAP1 SLOAD SWAP1 PUSH2 0x100 EXP SWAP1 DIV PUSH20 0xFFFFFFFFFFFFFFFFFFFFFFFFFFFFFFFFFFFFFFFF AND PUSH3 0xBF6 PUSH1 0x20 SHL PUSH1 0x20 SHR JUMP JUMPDEST PUSH1 0x11 PUSH1 0x0 SWAP1 SLOAD SWAP1 PUSH2 0x100 EXP SWAP1 DIV PUSH20 0xFFFFFFFFFFFFFFFFFFFFFFFFFFFFFFFFFFFFFFFF AND PUSH20 0xFFFFFFFFFFFFFFFFFFFFFFFFFFFFFFFFFFFFFFFF AND PUSH1 0x0 PUSH20 0xFFFFFFFFFFFFFFFFFFFFFFFFFFFFFFFFFFFFFFFF AND PUSH32 0xDDF252AD1BE2C89B69C2B068FC378DAA952BA7F163C4A11628F55A4DF523B3EF PUSH1 0x1A SLOAD PUSH1 0x40 MLOAD DUP1 DUP3 DUP2 MSTORE PUSH1 0x20 ADD SWAP2 POP POP PUSH1 0x40 MLOAD DUP1 SWAP2 SUB SWAP1 LOG3 PUSH3 0xE72 JUMP JUMPDEST PUSH1 0x0 DUP1 DUP3 DUP5 ADD SWAP1 POP DUP4 DUP2 LT ISZERO PUSH3 0xB9A JUMPI PUSH1 0x40 MLOAD PUSH32 0x8C379A000000000000000000000000000000000000000000000000000000000 DUP2 MSTORE PUSH1 0x4 ADD DUP1 DUP1 PUSH1 0x20 ADD DUP3 DUP2 SUB DUP3 MSTORE PUSH1 0x1B DUP2 MSTORE PUSH1 0x20 ADD DUP1 PUSH32 0x536166654D6174683A206164646974696F6E206F766572666C6F770000000000 DUP2 MSTORE POP PUSH1 0x20 ADD SWAP2 POP POP PUSH1 0x40 MLOAD DUP1 SWAP2 SUB SWAP1 REVERT JUMPDEST DUP1 SWAP2 POP POP SWAP3 SWAP2 POP POP JUMP JUMPDEST PUSH1 0x0 PUSH3 0xBEE DUP4 DUP4 PUSH1 0x40 MLOAD DUP1 PUSH1 0x40 ADD PUSH1 0x40 MSTORE DUP1 PUSH1 0x1A DUP2 MSTORE PUSH1 0x20 ADD PUSH32 0x536166654D6174683A206469766973696F6E206279207A65726F000000000000 DUP2 MSTORE POP PUSH3 0xCF1 PUSH1 0x20 SHL PUSH1 0x20 SHR JUMP JUMPDEST SWAP1 POP SWAP3 SWAP2 POP POP JUMP JUMPDEST PUSH1 0x0 PUSH20 0xFFFFFFFFFFFFFFFFFFFFFFFFFFFFFFFFFFFFFFFF AND DUP2 PUSH20 0xFFFFFFFFFFFFFFFFFFFFFFFFFFFFFFFFFFFFFFFF AND EQ ISZERO PUSH3 0xC31 JUMPI PUSH1 0x0 DUP1 REVERT JUMPDEST DUP1 PUSH20 0xFFFFFFFFFFFFFFFFFFFFFFFFFFFFFFFFFFFFFFFF AND PUSH1 0x2 PUSH1 0x1 SWAP1 SLOAD SWAP1 PUSH2 0x100 EXP SWAP1 DIV PUSH20 0xFFFFFFFFFFFFFFFFFFFFFFFFFFFFFFFFFFFFFFFF AND PUSH20 0xFFFFFFFFFFFFFFFFFFFFFFFFFFFFFFFFFFFFFFFF AND PUSH32 0x8BE0079C531659141344CD1FD0A4F28419497F9722A3DAAFE3B4186F6B6457E0 PUSH1 0x40 MLOAD PUSH1 0x40 MLOAD DUP1 SWAP2 SUB SWAP1 LOG3 DUP1 PUSH1 0x2 PUSH1 0x1 PUSH2 0x100 EXP DUP2 SLOAD DUP2 PUSH20 0xFFFFFFFFFFFFFFFFFFFFFFFFFFFFFFFFFFFFFFFF MUL NOT AND SWAP1 DUP4 PUSH20 0xFFFFFFFFFFFFFFFFFFFFFFFFFFFFFFFFFFFFFFFF AND MUL OR SWAP1 SSTORE POP POP JUMP JUMPDEST PUSH1 0x0 DUP1 DUP4 GT DUP3 SWAP1 PUSH3 0xDA1 JUMPI PUSH1 0x40 MLOAD PUSH32 0x8C379A000000000000000000000000000000000000000000000000000000000 DUP2 MSTORE PUSH1 0x4 ADD DUP1 DUP1 PUSH1 0x20 ADD DUP3 DUP2 SUB DUP3 MSTORE DUP4 DUP2 DUP2 MLOAD DUP2 MSTORE PUSH1 0x20 ADD SWAP2 POP DUP1 MLOAD SWAP1 PUSH1 0x20 ADD SWAP1 DUP1 DUP4 DUP4 PUSH1 0x0 JUMPDEST DUP4 DUP2 LT ISZERO PUSH3 0xD65 JUMPI DUP1 DUP3 ADD MLOAD DUP2 DUP5 ADD MSTORE PUSH1 0x20 DUP2 ADD SWAP1 POP PUSH3 0xD48 JUMP JUMPDEST POP POP POP POP SWAP1 POP SWAP1 DUP2 ADD SWAP1 PUSH1 0x1F AND DUP1 ISZERO PUSH3 0xD93 JUMPI DUP1 DUP3 SUB DUP1 MLOAD PUSH1 0x1 DUP4 PUSH1 0x20 SUB PUSH2 0x100 EXP SUB NOT AND DUP2 MSTORE PUSH1 0x20 ADD SWAP2 POP JUMPDEST POP SWAP3 POP POP POP PUSH1 0x40 MLOAD DUP1 SWAP2 SUB SWAP1 REVERT JUMPDEST POP PUSH1 0x0 DUP4 DUP6 DUP2 PUSH3 0xDAE JUMPI INVALID JUMPDEST DIV SWAP1 POP DUP1 SWAP2 POP POP SWAP4 SWAP3 POP POP POP JUMP JUMPDEST DUP3 DUP1 SLOAD PUSH1 0x1 DUP2 PUSH1 0x1 AND ISZERO PUSH2 0x100 MUL SUB AND PUSH1 0x2 SWAP1 DIV SWAP1 PUSH1 0x0 MSTORE PUSH1 0x20 PUSH1 0x0 KECCAK256 SWAP1 PUSH1 0x1F ADD PUSH1 0x20 SWAP1 DIV DUP2 ADD SWAP3 DUP3 PUSH3 0xDF4 JUMPI PUSH1 0x0 DUP6 SSTORE PUSH3 0xE40 JUMP JUMPDEST DUP3 PUSH1 0x1F LT PUSH3 0xE0F JUMPI DUP1 MLOAD PUSH1 0xFF NOT AND DUP4 DUP1 ADD OR DUP6 SSTORE PUSH3 0xE40 JUMP JUMPDEST DUP3 DUP1 ADD PUSH1 0x1 ADD DUP6 SSTORE DUP3 ISZERO PUSH3 0xE40 JUMPI SWAP2 DUP3 ADD JUMPDEST DUP3 DUP2 GT ISZERO PUSH3 0xE3F JUMPI DUP3 MLOAD DUP3 SSTORE SWAP2 PUSH1 0x20 ADD SWAP2 SWAP1 PUSH1 0x1 ADD SWAP1 PUSH3 0xE22 JUMP JUMPDEST JUMPDEST POP SWAP1 POP PUSH3 0xE4F SWAP2 SWAP1 PUSH3 0xE53 JUMP JUMPDEST POP SWAP1 JUMP JUMPDEST JUMPDEST DUP1 DUP3 GT ISZERO PUSH3 0xE6E JUMPI PUSH1 0x0 DUP2 PUSH1 0x0 SWAP1 SSTORE POP PUSH1 0x1 ADD PUSH3 0xE54 JUMP JUMPDEST POP SWAP1 JUMP JUMPDEST PUSH2 0x4A79 DUP1 PUSH3 0xE82 PUSH1 0x0 CODECOPY PUSH1 0x0 RETURN INVALID PUSH1 0x80 PUSH1 0x40 MSTORE PUSH1 0x4 CALLDATASIZE LT PUSH2 0x37A JUMPI PUSH1 0x0 CALLDATALOAD PUSH1 0xE0 SHR DUP1 PUSH4 0x753D02A1 GT PUSH2 0x1D1 JUMPI DUP1 PUSH4 0xA9059CBB GT PUSH2 0x102 JUMPI DUP1 PUSH4 0xD28D8852 GT PUSH2 0xA0 JUMPI DUP1 PUSH4 0xE15BEB80 GT PUSH2 0x6F JUMPI DUP1 PUSH4 0xE15BEB80 EQ PUSH2 0x1236 JUMPI DUP1 PUSH4 0xF2FDE38B EQ PUSH2 0x1273 JUMPI DUP1 PUSH4 0xF887EA40 EQ PUSH2 0x12C4 JUMPI DUP1 PUSH4 0xF9F92BE4 EQ PUSH2 0x1305 JUMPI PUSH2 0x381 JUMP JUMPDEST DUP1 PUSH4 0xD28D8852 EQ PUSH2 0x106B JUMPI DUP1 PUSH4 0xD4399790 EQ PUSH2 0x10FB JUMPI DUP1 PUSH4 0xD51ED1C8 EQ PUSH2 0x1162 JUMPI DUP1 PUSH4 0xDD62ED3E EQ PUSH2 0x11B1 JUMPI PUSH2 0x381 JUMP JUMPDEST DUP1 PUSH4 0xBD595581 GT PUSH2 0xDC JUMPI DUP1 PUSH4 0xBD595581 EQ PUSH2 0xFAB JUMPI DUP1 PUSH4 0xCA33E64C EQ PUSH2 0xFC2 JUMPI DUP1 PUSH4 0xCC32D176 EQ PUSH2 0x1003 JUMPI DUP1 PUSH4 0xCFBAC92F EQ PUSH2 0x102E JUMPI PUSH2 0x381 JUMP JUMPDEST DUP1 PUSH4 0xA9059CBB EQ PUSH2 0xE7D JUMPI DUP1 PUSH4 0xAFB9CF6D EQ PUSH2 0xEEE JUMPI DUP1 PUSH4 0xB09F1266 EQ PUSH2 0xF1B JUMPI PUSH2 0x381 JUMP JUMPDEST DUP1 PUSH4 0x9B2912CC GT PUSH2 0x16F JUMPI DUP1 PUSH4 0xA457C2D7 GT PUSH2 0x149 JUMPI DUP1 PUSH4 0xA457C2D7 EQ PUSH2 0xD5F JUMPI DUP1 PUSH4 0xA6CF7293 EQ PUSH2 0xDD0 JUMPI DUP1 PUSH4 0xA8AA1B31 EQ PUSH2 0xDFB JUMPI DUP1 PUSH4 0xA8B08982 EQ PUSH2 0xE3C JUMPI PUSH2 0x381 JUMP JUMPDEST DUP1 PUSH4 0x9B2912CC EQ PUSH2 0xCB8 JUMPI DUP1 PUSH4 0x9B87676C EQ PUSH2 0xCE3 JUMPI DUP1 PUSH4 0xA22D4832 EQ PUSH2 0xD0E JUMPI PUSH2 0x381 JUMP JUMPDEST DUP1 PUSH4 0x8DA5CB5B GT PUSH2 0x1AB JUMPI DUP1 PUSH4 0x8DA5CB5B EQ PUSH2 0xB8F JUMPI DUP1 PUSH4 0x8F32D59B EQ PUSH2 0xBD0 JUMPI DUP1 PUSH4 0x95D89B41 EQ PUSH2 0xBFD JUMPI DUP1 PUSH4 0x98118CB4 EQ PUSH2 0xC8D JUMPI PUSH2 0x381 JUMP JUMPDEST DUP1 PUSH4 0x753D02A1 EQ PUSH2 0xAFA JUMPI DUP1 PUSH4 0x83B4AC68 EQ PUSH2 0xB11 JUMPI DUP1 PUSH4 0x854CFF2F EQ PUSH2 0xB3E JUMPI PUSH2 0x381 JUMP JUMPDEST DUP1 PUSH4 0x33A581D2 GT PUSH2 0x2AB JUMPI DUP1 PUSH4 0x4D709ADF GT PUSH2 0x249 JUMPI DUP1 PUSH4 0x6912652C GT PUSH2 0x223 JUMPI DUP1 PUSH4 0x6912652C EQ PUSH2 0xA24 JUMPI DUP1 PUSH4 0x6DDD1713 EQ PUSH2 0xA51 JUMPI DUP1 PUSH4 0x70A08231 EQ PUSH2 0xA7E JUMPI DUP1 PUSH4 0x715018A6 EQ PUSH2 0xAE3 JUMPI PUSH2 0x381 JUMP JUMPDEST DUP1 PUSH4 0x4D709ADF EQ PUSH2 0x98A JUMPI DUP1 PUSH4 0x4DE41E83 EQ PUSH2 0x9CB JUMPI DUP1 PUSH4 0x5A604C52 EQ PUSH2 0x9F6 JUMPI PUSH2 0x381 JUMP JUMPDEST DUP1 PUSH4 0x3B91ACA9 GT PUSH2 0x285 JUMPI DUP1 PUSH4 0x3B91ACA9 EQ PUSH2 0x82C JUMPI DUP1 PUSH4 0x3C8E556D EQ PUSH2 0x86D JUMPI DUP1 PUSH4 0x3EAAF86B EQ PUSH2 0x91E JUMPI DUP1 PUSH4 0x49D98142 EQ PUSH2 0x949 JUMPI PUSH2 0x381 JUMP JUMPDEST DUP1 PUSH4 0x33A581D2 EQ PUSH2 0x733 JUMPI DUP1 PUSH4 0x37C9BE87 EQ PUSH2 0x75E JUMPI DUP1 PUSH4 0x39509351 EQ PUSH2 0x7BB JUMPI PUSH2 0x381 JUMP JUMPDEST DUP1 PUSH4 0x2B112E49 GT PUSH2 0x318 JUMPI DUP1 PUSH4 0x2F34D282 GT PUSH2 0x2F2 JUMPI DUP1 PUSH4 0x2F34D282 EQ PUSH2 0x65B JUMPI DUP1 PUSH4 0x313CE567 EQ PUSH2 0x6AC JUMPI DUP1 PUSH4 0x32424AA3 EQ PUSH2 0x6DA JUMPI DUP1 PUSH4 0x32B75683 EQ PUSH2 0x708 JUMPI PUSH2 0x381 JUMP JUMPDEST DUP1 PUSH4 0x2B112E49 EQ PUSH2 0x5DA JUMPI DUP1 PUSH4 0x2B14CA56 EQ PUSH2 0x605 JUMPI DUP1 PUSH4 0x2E0F2625 EQ PUSH2 0x630 JUMPI PUSH2 0x381 JUMP JUMPDEST DUP1 PUSH4 0x180B0D7E GT PUSH2 0x354 JUMPI DUP1 PUSH4 0x180B0D7E EQ PUSH2 0x4C8 JUMPI DUP1 PUSH4 0x18160DDD EQ PUSH2 0x4F3 JUMPI DUP1 PUSH4 0x1DF4CCFC EQ PUSH2 0x51E JUMPI DUP1 PUSH4 0x23B872DD EQ PUSH2 0x549 JUMPI PUSH2 0x381 JUMP JUMPDEST DUP1 PUSH4 0x6FDDE03 EQ PUSH2 0x386 JUMPI DUP1 PUSH4 0x8B1FD8F EQ PUSH2 0x416 JUMPI DUP1 PUSH4 0x95EA7B3 EQ PUSH2 0x457 JUMPI PUSH2 0x381 JUMP JUMPDEST CALLDATASIZE PUSH2 0x381 JUMPI STOP JUMPDEST PUSH1 0x0 DUP1 REVERT JUMPDEST CALLVALUE DUP1 ISZERO PUSH2 0x392 JUMPI PUSH1 0x0 DUP1 REVERT JUMPDEST POP PUSH2 0x39B PUSH2 0x136C JUMP JUMPDEST PUSH1 0x40 MLOAD DUP1 DUP1 PUSH1 0x20 ADD DUP3 DUP2 SUB DUP3 MSTORE DUP4 DUP2 DUP2 MLOAD DUP2 MSTORE PUSH1 0x20 ADD SWAP2 POP DUP1 MLOAD SWAP1 PUSH1 0x20 ADD SWAP1 DUP1 DUP4 DUP4 PUSH1 0x0 JUMPDEST DUP4 DUP2 LT ISZERO PUSH2 0x3DB JUMPI DUP1 DUP3 ADD MLOAD DUP2 DUP5 ADD MSTORE PUSH1 0x20 DUP2 ADD SWAP1 POP PUSH2 0x3C0 JUMP JUMPDEST POP POP POP POP SWAP1 POP SWAP1 DUP2 ADD SWAP1 PUSH1 0x1F AND DUP1 ISZERO PUSH2 0x408 JUMPI DUP1 DUP3 SUB DUP1 MLOAD PUSH1 0x1 DUP4 PUSH1 0x20 SUB PUSH2 0x100 EXP SUB NOT AND DUP2 MSTORE PUSH1 0x20 ADD SWAP2 POP JUMPDEST POP SWAP3 POP POP POP PUSH1 0x40 MLOAD DUP1 SWAP2 SUB SWAP1 RETURN JUMPDEST CALLVALUE DUP1 ISZERO PUSH2 0x422 JUMPI PUSH1 0x0 DUP1 REVERT JUMPDEST POP PUSH2 0x42B PUSH2 0x140E JUMP JUMPDEST PUSH1 0x40 MLOAD DUP1 DUP3 PUSH20 0xFFFFFFFFFFFFFFFFFFFFFFFFFFFFFFFFFFFFFFFF AND DUP2 MSTORE PUSH1 0x20 ADD SWAP2 POP POP PUSH1 0x40 MLOAD DUP1 SWAP2 SUB SWAP1 RETURN JUMPDEST CALLVALUE DUP1 ISZERO PUSH2 0x463 JUMPI PUSH1 0x0 DUP1 REVERT JUMPDEST POP PUSH2 0x4B0 PUSH1 0x4 DUP1 CALLDATASIZE SUB PUSH1 0x40 DUP2 LT ISZERO PUSH2 0x47A JUMPI PUSH1 0x0 DUP1 REVERT JUMPDEST DUP2 ADD SWAP1 DUP1 DUP1 CALLDATALOAD PUSH20 0xFFFFFFFFFFFFFFFFFFFFFFFFFFFFFFFFFFFFFFFF AND SWAP1 PUSH1 0x20 ADD SWAP1 SWAP3 SWAP2 SWAP1 DUP1 CALLDATALOAD SWAP1 PUSH1 0x20 ADD SWAP1 SWAP3 SWAP2 SWAP1 POP POP POP PUSH2 0x1434 JUMP JUMPDEST PUSH1 0x40 MLOAD DUP1 DUP3 ISZERO ISZERO DUP2 MSTORE PUSH1 0x20 ADD SWAP2 POP POP PUSH1 0x40 MLOAD DUP1 SWAP2 SUB SWAP1 RETURN JUMPDEST CALLVALUE DUP1 ISZERO PUSH2 0x4D4 JUMPI PUSH1 0x0 DUP1 REVERT JUMPDEST POP PUSH2 0x4DD PUSH2 0x1526 JUMP JUMPDEST PUSH1 0x40 MLOAD DUP1 DUP3 DUP2 MSTORE PUSH1 0x20 ADD SWAP2 POP POP PUSH1 0x40 MLOAD DUP1 SWAP2 SUB SWAP1 RETURN JUMPDEST CALLVALUE DUP1 ISZERO PUSH2 0x4FF JUMPI PUSH1 0x0 DUP1 REVERT JUMPDEST POP PUSH2 0x508 PUSH2 0x152C JUMP JUMPDEST PUSH1 0x40 MLOAD DUP1 DUP3 DUP2 MSTORE PUSH1 0x20 ADD SWAP2 POP POP PUSH1 0x40 MLOAD DUP1 SWAP2 SUB SWAP1 RETURN JUMPDEST CALLVALUE DUP1 ISZERO PUSH2 0x52A JUMPI PUSH1 0x0 DUP1 REVERT JUMPDEST POP PUSH2 0x533 PUSH2 0x1536 JUMP JUMPDEST PUSH1 0x40 MLOAD DUP1 DUP3 DUP2 MSTORE PUSH1 0x20 ADD SWAP2 POP POP PUSH1 0x40 MLOAD DUP1 SWAP2 SUB SWAP1 RETURN JUMPDEST CALLVALUE DUP1 ISZERO PUSH2 0x555 JUMPI PUSH1 0x0 DUP1 REVERT JUMPDEST POP PUSH2 0x5C2 PUSH1 0x4 DUP1 CALLDATASIZE SUB PUSH1 0x60 DUP2 LT ISZERO PUSH2 0x56C JUMPI PUSH1 0x0 DUP1 REVERT JUMPDEST DUP2 ADD SWAP1 DUP1 DUP1 CALLDATALOAD PUSH20 0xFFFFFFFFFFFFFFFFFFFFFFFFFFFFFFFFFFFFFFFF AND SWAP1 PUSH1 0x20 ADD SWAP1 SWAP3 SWAP2 SWAP1 DUP1 CALLDATALOAD PUSH20 0xFFFFFFFFFFFFFFFFFFFFFFFFFFFFFFFFFFFFFFFF AND SWAP1 PUSH1 0x20 ADD SWAP1 SWAP3 SWAP2 SWAP1 DUP1 CALLDATALOAD SWAP1 PUSH1 0x20 ADD SWAP1 SWAP3 SWAP2 SWAP1 POP POP POP PUSH2 0x153C JUMP JUMPDEST PUSH1 0x40 MLOAD DUP1 DUP3 ISZERO ISZERO DUP2 MSTORE PUSH1 0x20 ADD SWAP2 POP POP PUSH1 0x40 MLOAD DUP1 SWAP2 SUB SWAP1 RETURN JUMPDEST CALLVALUE DUP1 ISZERO PUSH2 0x5E6 JUMPI PUSH1 0x0 DUP1 REVERT JUMPDEST POP PUSH2 0x5EF PUSH2 0x177B JUMP JUMPDEST PUSH1 0x40 MLOAD DUP1 DUP3 DUP2 MSTORE PUSH1 0x20 ADD SWAP2 POP POP PUSH1 0x40 MLOAD DUP1 SWAP2 SUB SWAP1 RETURN JUMPDEST CALLVALUE DUP1 ISZERO PUSH2 0x611 JUMPI PUSH1 0x0 DUP1 REVERT JUMPDEST POP PUSH2 0x61A PUSH2 0x1895 JUMP JUMPDEST PUSH1 0x40 MLOAD DUP1 DUP3 DUP2 MSTORE PUSH1 0x20 ADD SWAP2 POP POP PUSH1 0x40 MLOAD DUP1 SWAP2 SUB SWAP1 RETURN JUMPDEST CALLVALUE DUP1 ISZERO PUSH2 0x63C JUMPI PUSH1 0x0 DUP1 REVERT JUMPDEST POP PUSH2 0x645 PUSH2 0x189B JUMP JUMPDEST PUSH1 0x40 MLOAD DUP1 DUP3 DUP2 MSTORE PUSH1 0x20 ADD SWAP2 POP POP PUSH1 0x40 MLOAD DUP1 SWAP2 SUB SWAP1 RETURN JUMPDEST CALLVALUE DUP1 ISZERO PUSH2 0x667 JUMPI PUSH1 0x0 DUP1 REVERT JUMPDEST POP PUSH2 0x6AA PUSH1 0x4 DUP1 CALLDATASIZE SUB PUSH1 0x20 DUP2 LT ISZERO PUSH2 0x67E JUMPI PUSH1 0x0 DUP1 REVERT JUMPDEST DUP2 ADD SWAP1 DUP1 DUP1 CALLDATALOAD PUSH20 0xFFFFFFFFFFFFFFFFFFFFFFFFFFFFFFFFFFFFFFFF AND SWAP1 PUSH1 0x20 ADD SWAP1 SWAP3 SWAP2 SWAP1 POP POP POP PUSH2 0x18A0 JUMP JUMPDEST STOP JUMPDEST CALLVALUE DUP1 ISZERO PUSH2 0x6B8 JUMPI PUSH1 0x0 DUP1 REVERT JUMPDEST POP PUSH2 0x6C1 PUSH2 0x18F5 JUMP JUMPDEST PUSH1 0x40 MLOAD DUP1 DUP3 PUSH1 0xFF AND DUP2 MSTORE PUSH1 0x20 ADD SWAP2 POP POP PUSH1 0x40 MLOAD DUP1 SWAP2 SUB SWAP1 RETURN JUMPDEST CALLVALUE DUP1 ISZERO PUSH2 0x6E6 JUMPI PUSH1 0x0 DUP1 REVERT JUMPDEST POP PUSH2 0x6EF PUSH2 0x190C JUMP JUMPDEST PUSH1 0x40 MLOAD DUP1 DUP3 PUSH1 0xFF AND DUP2 MSTORE PUSH1 0x20 ADD SWAP2 POP POP PUSH1 0x40 MLOAD DUP1 SWAP2 SUB SWAP1 RETURN JUMPDEST CALLVALUE DUP1 ISZERO PUSH2 0x714 JUMPI PUSH1 0x0 DUP1 REVERT JUMPDEST POP PUSH2 0x71D PUSH2 0x191F JUMP JUMPDEST PUSH1 0x40 MLOAD DUP1 DUP3 DUP2 MSTORE PUSH1 0x20 ADD SWAP2 POP POP PUSH1 0x40 MLOAD DUP1 SWAP2 SUB SWAP1 RETURN JUMPDEST CALLVALUE DUP1 ISZERO PUSH2 0x73F JUMPI PUSH1 0x0 DUP1 REVERT JUMPDEST POP PUSH2 0x748 PUSH2 0x1925 JUMP JUMPDEST PUSH1 0x40 MLOAD DUP1 DUP3 DUP2 MSTORE PUSH1 0x20 ADD SWAP2 POP POP PUSH1 0x40 MLOAD DUP1 SWAP2 SUB SWAP1 RETURN JUMPDEST CALLVALUE DUP1 ISZERO PUSH2 0x76A JUMPI PUSH1 0x0 DUP1 REVERT JUMPDEST POP PUSH2 0x7B9 PUSH1 0x4 DUP1 CALLDATASIZE SUB PUSH1 0x40 DUP2 LT ISZERO PUSH2 0x781 JUMPI PUSH1 0x0 DUP1 REVERT JUMPDEST DUP2 ADD SWAP1 DUP1 DUP1 CALLDATALOAD PUSH20 0xFFFFFFFFFFFFFFFFFFFFFFFFFFFFFFFFFFFFFFFF AND SWAP1 PUSH1 0x20 ADD SWAP1 SWAP3 SWAP2 SWAP1 DUP1 CALLDATALOAD ISZERO ISZERO SWAP1 PUSH1 0x20 ADD SWAP1 SWAP3 SWAP2 SWAP1 POP POP POP PUSH2 0x192B JUMP JUMPDEST STOP JUMPDEST CALLVALUE DUP1 ISZERO PUSH2 0x7C7 JUMPI PUSH1 0x0 DUP1 REVERT JUMPDEST POP PUSH2 0x814 PUSH1 0x4 DUP1 CALLDATASIZE SUB PUSH1 0x40 DUP2 LT ISZERO PUSH2 0x7DE JUMPI PUSH1 0x0 DUP1 REVERT JUMPDEST DUP2 ADD SWAP1 DUP1 DUP1 CALLDATALOAD PUSH20 0xFFFFFFFFFFFFFFFFFFFFFFFFFFFFFFFFFFFFFFFF AND SWAP1 PUSH1 0x20 ADD SWAP1 SWAP3 SWAP2 SWAP1 DUP1 CALLDATALOAD SWAP1 PUSH1 0x20 ADD SWAP1 SWAP3 SWAP2 SWAP1 POP POP POP PUSH2 0x19F5 JUMP JUMPDEST PUSH1 0x40 MLOAD DUP1 DUP3 ISZERO ISZERO DUP2 MSTORE PUSH1 0x20 ADD SWAP2 POP POP PUSH1 0x40 MLOAD DUP1 SWAP2 SUB SWAP1 RETURN JUMPDEST CALLVALUE DUP1 ISZERO PUSH2 0x838 JUMPI PUSH1 0x0 DUP1 REVERT JUMPDEST POP PUSH2 0x841 PUSH2 0x1BF1 JUMP JUMPDEST PUSH1 0x40 MLOAD DUP1 DUP3 PUSH20 0xFFFFFFFFFFFFFFFFFFFFFFFFFFFFFFFFFFFFFFFF AND DUP2 MSTORE PUSH1 0x20 ADD SWAP2 POP POP PUSH1 0x40 MLOAD DUP1 SWAP2 SUB SWAP1 RETURN JUMPDEST CALLVALUE DUP1 ISZERO PUSH2 0x879 JUMPI PUSH1 0x0 DUP1 REVERT JUMPDEST POP PUSH2 0x91C PUSH1 0x4 DUP1 CALLDATASIZE SUB PUSH1 0x80 DUP2 LT ISZERO PUSH2 0x890 JUMPI PUSH1 0x0 DUP1 REVERT JUMPDEST DUP2 ADD SWAP1 DUP1 DUP1 CALLDATALOAD PUSH20 0xFFFFFFFFFFFFFFFFFFFFFFFFFFFFFFFFFFFFFFFF AND SWAP1 PUSH1 0x20 ADD SWAP1 SWAP3 SWAP2 SWAP1 DUP1 CALLDATALOAD PUSH20 0xFFFFFFFFFFFFFFFFFFFFFFFFFFFFFFFFFFFFFFFF AND SWAP1 PUSH1 0x20 ADD SWAP1 SWAP3 SWAP2 SWAP1 DUP1 CALLDATALOAD PUSH20 0xFFFFFFFFFFFFFFFFFFFFFFFFFFFFFFFFFFFFFFFF AND SWAP1 PUSH1 0x20 ADD SWAP1 SWAP3 SWAP2 SWAP1 DUP1 CALLDATALOAD PUSH20 0xFFFFFFFFFFFFFFFFFFFFFFFFFFFFFFFFFFFFFFFF AND SWAP1 PUSH1 0x20 ADD SWAP1 SWAP3 SWAP2 SWAP1 POP POP POP PUSH2 0x1C17 JUMP JUMPDEST STOP JUMPDEST CALLVALUE DUP1 ISZERO PUSH2 0x92A JUMPI PUSH1 0x0 DUP1 REVERT JUMPDEST POP PUSH2 0x933 PUSH2 0x1D32 JUMP JUMPDEST PUSH1 0x40 MLOAD DUP1 DUP3 DUP2 MSTORE PUSH1 0x20 ADD SWAP2 POP POP PUSH1 0x40 MLOAD DUP1 SWAP2 SUB SWAP1 RETURN JUMPDEST CALLVALUE DUP1 ISZERO PUSH2 0x955 JUMPI PUSH1 0x0 DUP1 REVERT JUMPDEST POP PUSH2 0x95E PUSH2 0x1D38 JUMP JUMPDEST PUSH1 0x40 MLOAD DUP1 DUP3 PUSH20 0xFFFFFFFFFFFFFFFFFFFFFFFFFFFFFFFFFFFFFFFF AND DUP2 MSTORE PUSH1 0x20 ADD SWAP2 POP POP PUSH1 0x40 MLOAD DUP1 SWAP2 SUB SWAP1 RETURN JUMPDEST CALLVALUE DUP1 ISZERO PUSH2 0x996 JUMPI PUSH1 0x0 DUP1 REVERT JUMPDEST POP PUSH2 0x99F PUSH2 0x1D5E JUMP JUMPDEST PUSH1 0x40 MLOAD DUP1 DUP3 PUSH20 0xFFFFFFFFFFFFFFFFFFFFFFFFFFFFFFFFFFFFFFFF AND DUP2 MSTORE PUSH1 0x20 ADD SWAP2 POP POP PUSH1 0x40 MLOAD DUP1 SWAP2 SUB SWAP1 RETURN JUMPDEST CALLVALUE DUP1 ISZERO PUSH2 0x9D7 JUMPI PUSH1 0x0 DUP1 REVERT JUMPDEST POP PUSH2 0x9E0 PUSH2 0x1D84 JUMP JUMPDEST PUSH1 0x40 MLOAD DUP1 DUP3 DUP2 MSTORE PUSH1 0x20 ADD SWAP2 POP POP PUSH1 0x40 MLOAD DUP1 SWAP2 SUB SWAP1 RETURN JUMPDEST CALLVALUE DUP1 ISZERO PUSH2 0xA02 JUMPI PUSH1 0x0 DUP1 REVERT JUMPDEST POP PUSH2 0xA0B PUSH2 0x1D8A JUMP JUMPDEST PUSH1 0x40 MLOAD DUP1 DUP3 PUSH1 0xFF AND DUP2 MSTORE PUSH1 0x20 ADD SWAP2 POP POP PUSH1 0x40 MLOAD DUP1 SWAP2 SUB SWAP1 RETURN JUMPDEST CALLVALUE DUP1 ISZERO PUSH2 0xA30 JUMPI PUSH1 0x0 DUP1 REVERT JUMPDEST POP PUSH2 0xA39 PUSH2 0x1D8F JUMP JUMPDEST PUSH1 0x40 MLOAD DUP1 DUP3 ISZERO ISZERO DUP2 MSTORE PUSH1 0x20 ADD SWAP2 POP POP PUSH1 0x40 MLOAD DUP1 SWAP2 SUB SWAP1 RETURN JUMPDEST CALLVALUE DUP1 ISZERO PUSH2 0xA5D JUMPI PUSH1 0x0 DUP1 REVERT JUMPDEST POP PUSH2 0xA66 PUSH2 0x1DA0 JUMP JUMPDEST PUSH1 0x40 MLOAD DUP1 DUP3 ISZERO ISZERO DUP2 MSTORE PUSH1 0x20 ADD SWAP2 POP POP PUSH1 0x40 MLOAD DUP1 SWAP2 SUB SWAP1 RETURN JUMPDEST CALLVALUE DUP1 ISZERO PUSH2 0xA8A JUMPI PUSH1 0x0 DUP1 REVERT JUMPDEST POP PUSH2 0xACD PUSH1 0x4 DUP1 CALLDATASIZE SUB PUSH1 0x20 DUP2 LT ISZERO PUSH2 0xAA1 JUMPI PUSH1 0x0 DUP1 REVERT JUMPDEST DUP2 ADD SWAP1 DUP1 DUP1 CALLDATALOAD PUSH20 0xFFFFFFFFFFFFFFFFFFFFFFFFFFFFFFFFFFFFFFFF AND SWAP1 PUSH1 0x20 ADD SWAP1 SWAP3 SWAP2 SWAP1 POP POP POP PUSH2 0x1DB1 JUMP JUMPDEST PUSH1 0x40 MLOAD DUP1 DUP3 DUP2 MSTORE PUSH1 0x20 ADD SWAP2 POP POP PUSH1 0x40 MLOAD DUP1 SWAP2 SUB SWAP1 RETURN JUMPDEST CALLVALUE DUP1 ISZERO PUSH2 0xAEF JUMPI PUSH1 0x0 DUP1 REVERT JUMPDEST POP PUSH2 0xAF8 PUSH2 0x1E0E JUMP JUMPDEST STOP JUMPDEST CALLVALUE DUP1 ISZERO PUSH2 0xB06 JUMPI PUSH1 0x0 DUP1 REVERT JUMPDEST POP PUSH2 0xB0F PUSH2 0x1EC8 JUMP JUMPDEST STOP JUMPDEST CALLVALUE DUP1 ISZERO PUSH2 0xB1D JUMPI PUSH1 0x0 DUP1 REVERT JUMPDEST POP PUSH2 0xB26 PUSH2 0x1F4C JUMP JUMPDEST PUSH1 0x40 MLOAD DUP1 DUP3 ISZERO ISZERO DUP2 MSTORE PUSH1 0x20 ADD SWAP2 POP POP PUSH1 0x40 MLOAD DUP1 SWAP2 SUB SWAP1 RETURN JUMPDEST CALLVALUE DUP1 ISZERO PUSH2 0xB4A JUMPI PUSH1 0x0 DUP1 REVERT JUMPDEST POP PUSH2 0xB8D PUSH1 0x4 DUP1 CALLDATASIZE SUB PUSH1 0x20 DUP2 LT ISZERO PUSH2 0xB61 JUMPI PUSH1 0x0 DUP1 REVERT JUMPDEST DUP2 ADD SWAP1 DUP1 DUP1 CALLDATALOAD PUSH20 0xFFFFFFFFFFFFFFFFFFFFFFFFFFFFFFFFFFFFFFFF AND SWAP1 PUSH1 0x20 ADD SWAP1 SWAP3 SWAP2 SWAP1 POP POP POP PUSH2 0x1F64 JUMP JUMPDEST STOP JUMPDEST CALLVALUE DUP1 ISZERO PUSH2 0xB9B JUMPI PUSH1 0x0 DUP1 REVERT JUMPDEST POP PUSH2 0xBA4 PUSH2 0x1FD0 JUMP JUMPDEST PUSH1 0x40 MLOAD DUP1 DUP3 PUSH20 0xFFFFFFFFFFFFFFFFFFFFFFFFFFFFFFFFFFFFFFFF AND DUP2 MSTORE PUSH1 0x20 ADD SWAP2 POP POP PUSH1 0x40 MLOAD DUP1 SWAP2 SUB SWAP1 RETURN JUMPDEST CALLVALUE DUP1 ISZERO PUSH2 0xBDC JUMPI PUSH1 0x0 DUP1 REVERT JUMPDEST POP PUSH2 0xBE5 PUSH2 0x1FFA JUMP JUMPDEST PUSH1 0x40 MLOAD DUP1 DUP3 ISZERO ISZERO DUP2 MSTORE PUSH1 0x20 ADD SWAP2 POP POP PUSH1 0x40 MLOAD DUP1 SWAP2 SUB SWAP1 RETURN JUMPDEST CALLVALUE DUP1 ISZERO PUSH2 0xC09 JUMPI PUSH1 0x0 DUP1 REVERT JUMPDEST POP PUSH2 0xC12 PUSH2 0x2052 JUMP JUMPDEST PUSH1 0x40 MLOAD DUP1 DUP1 PUSH1 0x20 ADD DUP3 DUP2 SUB DUP3 MSTORE DUP4 DUP2 DUP2 MLOAD DUP2 MSTORE PUSH1 0x20 ADD SWAP2 POP DUP1 MLOAD SWAP1 PUSH1 0x20 ADD SWAP1 DUP1 DUP4 DUP4 PUSH1 0x0 JUMPDEST DUP4 DUP2 LT ISZERO PUSH2 0xC52 JUMPI DUP1 DUP3 ADD MLOAD DUP2 DUP5 ADD MSTORE PUSH1 0x20 DUP2 ADD SWAP1 POP PUSH2 0xC37 JUMP JUMPDEST POP POP POP POP SWAP1 POP SWAP1 DUP2 ADD SWAP1 PUSH1 0x1F AND DUP1 ISZERO PUSH2 0xC7F JUMPI DUP1 DUP3 SUB DUP1 MLOAD PUSH1 0x1 DUP4 PUSH1 0x20 SUB PUSH2 0x100 EXP SUB NOT AND DUP2 MSTORE PUSH1 0x20 ADD SWAP2 POP JUMPDEST POP SWAP3 POP POP POP PUSH1 0x40 MLOAD DUP1 SWAP2 SUB SWAP1 RETURN JUMPDEST CALLVALUE DUP1 ISZERO PUSH2 0xC99 JUMPI PUSH1 0x0 DUP1 REVERT JUMPDEST POP PUSH2 0xCA2 PUSH2 0x20F4 JUMP JUMPDEST PUSH1 0x40 MLOAD DUP1 DUP3 DUP2 MSTORE PUSH1 0x20 ADD SWAP2 POP POP PUSH1 0x40 MLOAD DUP1 SWAP2 SUB SWAP1 RETURN JUMPDEST CALLVALUE DUP1 ISZERO PUSH2 0xCC4 JUMPI PUSH1 0x0 DUP1 REVERT JUMPDEST POP PUSH2 0xCCD PUSH2 0x20FA JUMP JUMPDEST PUSH1 0x40 MLOAD DUP1 DUP3 DUP2 MSTORE PUSH1 0x20 ADD SWAP2 POP POP PUSH1 0x40 MLOAD DUP1 SWAP2 SUB SWAP1 RETURN JUMPDEST CALLVALUE DUP1 ISZERO PUSH2 0xCEF JUMPI PUSH1 0x0 DUP1 REVERT JUMPDEST POP PUSH2 0xCF8 PUSH2 0x2100 JUMP JUMPDEST PUSH1 0x40 MLOAD DUP1 DUP3 DUP2 MSTORE PUSH1 0x20 ADD SWAP2 POP POP PUSH1 0x40 MLOAD DUP1 SWAP2 SUB SWAP1 RETURN JUMPDEST CALLVALUE DUP1 ISZERO PUSH2 0xD1A JUMPI PUSH1 0x0 DUP1 REVERT JUMPDEST POP PUSH2 0xD5D PUSH1 0x4 DUP1 CALLDATASIZE SUB PUSH1 0x20 DUP2 LT ISZERO PUSH2 0xD31 JUMPI PUSH1 0x0 DUP1 REVERT JUMPDEST DUP2 ADD SWAP1 DUP1 DUP1 CALLDATALOAD PUSH20 0xFFFFFFFFFFFFFFFFFFFFFFFFFFFFFFFFFFFFFFFF AND SWAP1 PUSH1 0x20 ADD SWAP1 SWAP3 SWAP2 SWAP1 POP POP POP PUSH2 0x2106 JUMP JUMPDEST STOP JUMPDEST CALLVALUE DUP1 ISZERO PUSH2 0xD6B JUMPI PUSH1 0x0 DUP1 REVERT JUMPDEST POP PUSH2 0xDB8 PUSH1 0x4 DUP1 CALLDATASIZE SUB PUSH1 0x40 DUP2 LT ISZERO PUSH2 0xD82 JUMPI PUSH1 0x0 DUP1 REVERT JUMPDEST DUP2 ADD SWAP1 DUP1 DUP1 CALLDATALOAD PUSH20 0xFFFFFFFFFFFFFFFFFFFFFFFFFFFFFFFFFFFFFFFF AND SWAP1 PUSH1 0x20 ADD SWAP1 SWAP3 SWAP2 SWAP1 DUP1 CALLDATALOAD SWAP1 PUSH1 0x20 ADD SWAP1 SWAP3 SWAP2 SWAP1 POP POP POP PUSH2 0x215B JUMP JUMPDEST PUSH1 0x40 MLOAD DUP1 DUP3 ISZERO ISZERO DUP2 MSTORE PUSH1 0x20 ADD SWAP2 POP POP PUSH1 0x40 MLOAD DUP1 SWAP2 SUB SWAP1 RETURN JUMPDEST CALLVALUE DUP1 ISZERO PUSH2 0xDDC JUMPI PUSH1 0x0 DUP1 REVERT JUMPDEST POP PUSH2 0xDE5 PUSH2 0x23EB JUMP JUMPDEST PUSH1 0x40 MLOAD DUP1 DUP3 DUP2 MSTORE PUSH1 0x20 ADD SWAP2 POP POP PUSH1 0x40 MLOAD DUP1 SWAP2 SUB SWAP1 RETURN JUMPDEST CALLVALUE DUP1 ISZERO PUSH2 0xE07 JUMPI PUSH1 0x0 DUP1 REVERT JUMPDEST POP PUSH2 0xE10 PUSH2 0x23F1 JUMP JUMPDEST PUSH1 0x40 MLOAD DUP1 DUP3 PUSH20 0xFFFFFFFFFFFFFFFFFFFFFFFFFFFFFFFFFFFFFFFF AND DUP2 MSTORE PUSH1 0x20 ADD SWAP2 POP POP PUSH1 0x40 MLOAD DUP1 SWAP2 SUB SWAP1 RETURN JUMPDEST CALLVALUE DUP1 ISZERO PUSH2 0xE48 JUMPI PUSH1 0x0 DUP1 REVERT JUMPDEST POP PUSH2 0xE51 PUSH2 0x2417 JUMP JUMPDEST PUSH1 0x40 MLOAD DUP1 DUP3 PUSH20 0xFFFFFFFFFFFFFFFFFFFFFFFFFFFFFFFFFFFFFFFF AND DUP2 MSTORE PUSH1 0x20 ADD SWAP2 POP POP PUSH1 0x40 MLOAD DUP1 SWAP2 SUB SWAP1 RETURN JUMPDEST CALLVALUE DUP1 ISZERO PUSH2 0xE89 JUMPI PUSH1 0x0 DUP1 REVERT JUMPDEST POP PUSH2 0xED6 PUSH1 0x4 DUP1 CALLDATASIZE SUB PUSH1 0x40 DUP2 LT ISZERO PUSH2 0xEA0 JUMPI PUSH1 0x0 DUP1 REVERT JUMPDEST DUP2 ADD SWAP1 DUP1 DUP1 CALLDATALOAD PUSH20 0xFFFFFFFFFFFFFFFFFFFFFFFFFFFFFFFFFFFFFFFF AND SWAP1 PUSH1 0x20 ADD SWAP1 SWAP3 SWAP2 SWAP1 DUP1 CALLDATALOAD SWAP1 PUSH1 0x20 ADD SWAP1 SWAP3 SWAP2 SWAP1 POP POP POP PUSH2 0x243D JUMP JUMPDEST PUSH1 0x40 MLOAD DUP1 DUP3 ISZERO ISZERO DUP2 MSTORE PUSH1 0x20 ADD SWAP2 POP POP PUSH1 0x40 MLOAD DUP1 SWAP2 SUB SWAP1 RETURN JUMPDEST CALLVALUE DUP1 ISZERO PUSH2 0xEFA JUMPI PUSH1 0x0 DUP1 REVERT JUMPDEST POP PUSH2 0xF03 PUSH2 0x2491 JUMP JUMPDEST PUSH1 0x40 MLOAD DUP1 DUP3 ISZERO ISZERO DUP2 MSTORE PUSH1 0x20 ADD SWAP2 POP POP PUSH1 0x40 MLOAD DUP1 SWAP2 SUB SWAP1 RETURN JUMPDEST CALLVALUE DUP1 ISZERO PUSH2 0xF27 JUMPI PUSH1 0x0 DUP1 REVERT JUMPDEST POP PUSH2 0xF30 PUSH2 0x24A4 JUMP JUMPDEST PUSH1 0x40 MLOAD DUP1 DUP1 PUSH1 0x20 ADD DUP3 DUP2 SUB DUP3 MSTORE DUP4 DUP2 DUP2 MLOAD DUP2 MSTORE PUSH1 0x20 ADD SWAP2 POP DUP1 MLOAD SWAP1 PUSH1 0x20 ADD SWAP1 DUP1 DUP4 DUP4 PUSH1 0x0 JUMPDEST DUP4 DUP2 LT ISZERO PUSH2 0xF70 JUMPI DUP1 DUP3 ADD MLOAD DUP2 DUP5 ADD MSTORE PUSH1 0x20 DUP2 ADD SWAP1 POP PUSH2 0xF55 JUMP JUMPDEST POP POP POP POP SWAP1 POP SWAP1 DUP2 ADD SWAP1 PUSH1 0x1F AND DUP1 ISZERO PUSH2 0xF9D JUMPI DUP1 DUP3 SUB DUP1 MLOAD PUSH1 0x1 DUP4 PUSH1 0x20 SUB PUSH2 0x100 EXP SUB NOT AND DUP2 MSTORE PUSH1 0x20 ADD SWAP2 POP JUMPDEST POP SWAP3 POP POP POP PUSH1 0x40 MLOAD DUP1 SWAP2 SUB SWAP1 RETURN JUMPDEST CALLVALUE DUP1 ISZERO PUSH2 0xFB7 JUMPI PUSH1 0x0 DUP1 REVERT JUMPDEST POP PUSH2 0xFC0 PUSH2 0x2542 JUMP JUMPDEST STOP JUMPDEST CALLVALUE DUP1 ISZERO PUSH2 0xFCE JUMPI PUSH1 0x0 DUP1 REVERT JUMPDEST POP PUSH2 0xFD7 PUSH2 0x28E3 JUMP JUMPDEST PUSH1 0x40 MLOAD DUP1 DUP3 PUSH20 0xFFFFFFFFFFFFFFFFFFFFFFFFFFFFFFFFFFFFFFFF AND DUP2 MSTORE PUSH1 0x20 ADD SWAP2 POP POP PUSH1 0x40 MLOAD DUP1 SWAP2 SUB SWAP1 RETURN JUMPDEST CALLVALUE DUP1 ISZERO PUSH2 0x100F JUMPI PUSH1 0x0 DUP1 REVERT JUMPDEST POP PUSH2 0x1018 PUSH2 0x2909 JUMP JUMPDEST PUSH1 0x40 MLOAD DUP1 DUP3 DUP2 MSTORE PUSH1 0x20 ADD SWAP2 POP POP PUSH1 0x40 MLOAD DUP1 SWAP2 SUB SWAP1 RETURN JUMPDEST CALLVALUE DUP1 ISZERO PUSH2 0x103A JUMPI PUSH1 0x0 DUP1 REVERT JUMPDEST POP PUSH2 0x1069 PUSH1 0x4 DUP1 CALLDATASIZE SUB PUSH1 0x20 DUP2 LT ISZERO PUSH2 0x1051 JUMPI PUSH1 0x0 DUP1 REVERT JUMPDEST DUP2 ADD SWAP1 DUP1 DUP1 CALLDATALOAD ISZERO ISZERO SWAP1 PUSH1 0x20 ADD SWAP1 SWAP3 SWAP2 SWAP1 POP POP POP PUSH2 0x290F JUMP JUMPDEST STOP JUMPDEST CALLVALUE DUP1 ISZERO PUSH2 0x1077 JUMPI PUSH1 0x0 DUP1 REVERT JUMPDEST POP PUSH2 0x1080 PUSH2 0x2968 JUMP JUMPDEST PUSH1 0x40 MLOAD DUP1 DUP1 PUSH1 0x20 ADD DUP3 DUP2 SUB DUP3 MSTORE DUP4 DUP2 DUP2 MLOAD DUP2 MSTORE PUSH1 0x20 ADD SWAP2 POP DUP1 MLOAD SWAP1 PUSH1 0x20 ADD SWAP1 DUP1 DUP4 DUP4 PUSH1 0x0 JUMPDEST DUP4 DUP2 LT ISZERO PUSH2 0x10C0 JUMPI DUP1 DUP3 ADD MLOAD DUP2 DUP5 ADD MSTORE PUSH1 0x20 DUP2 ADD SWAP1 POP PUSH2 0x10A5 JUMP JUMPDEST POP POP POP POP SWAP1 POP SWAP1 DUP2 ADD SWAP1 PUSH1 0x1F AND DUP1 ISZERO PUSH2 0x10ED JUMPI DUP1 DUP3 SUB DUP1 MLOAD PUSH1 0x1 DUP4 PUSH1 0x20 SUB PUSH2 0x100 EXP SUB NOT AND DUP2 MSTORE PUSH1 0x20 ADD SWAP2 POP JUMPDEST POP SWAP3 POP POP POP PUSH1 0x40 MLOAD DUP1 SWAP2 SUB SWAP1 RETURN JUMPDEST CALLVALUE DUP1 ISZERO PUSH2 0x1107 JUMPI PUSH1 0x0 DUP1 REVERT JUMPDEST POP PUSH2 0x114A PUSH1 0x4 DUP1 CALLDATASIZE SUB PUSH1 0x20 DUP2 LT ISZERO PUSH2 0x111E JUMPI PUSH1 0x0 DUP1 REVERT JUMPDEST DUP2 ADD SWAP1 DUP1 DUP1 CALLDATALOAD PUSH20 0xFFFFFFFFFFFFFFFFFFFFFFFFFFFFFFFFFFFFFFFF AND SWAP1 PUSH1 0x20 ADD SWAP1 SWAP3 SWAP2 SWAP1 POP POP POP PUSH2 0x2A06 JUMP JUMPDEST PUSH1 0x40 MLOAD DUP1 DUP3 ISZERO ISZERO DUP2 MSTORE PUSH1 0x20 ADD SWAP2 POP POP PUSH1 0x40 MLOAD DUP1 SWAP2 SUB SWAP1 RETURN JUMPDEST CALLVALUE DUP1 ISZERO PUSH2 0x116E JUMPI PUSH1 0x0 DUP1 REVERT JUMPDEST POP PUSH2 0x119B PUSH1 0x4 DUP1 CALLDATASIZE SUB PUSH1 0x20 DUP2 LT ISZERO PUSH2 0x1185 JUMPI PUSH1 0x0 DUP1 REVERT JUMPDEST DUP2 ADD SWAP1 DUP1 DUP1 CALLDATALOAD SWAP1 PUSH1 0x20 ADD SWAP1 SWAP3 SWAP2 SWAP1 POP POP POP PUSH2 0x2A5C JUMP JUMPDEST PUSH1 0x40 MLOAD DUP1 DUP3 DUP2 MSTORE PUSH1 0x20 ADD SWAP2 POP POP PUSH1 0x40 MLOAD DUP1 SWAP2 SUB SWAP1 RETURN JUMPDEST CALLVALUE DUP1 ISZERO PUSH2 0x11BD JUMPI PUSH1 0x0 DUP1 REVERT JUMPDEST POP PUSH2 0x1220 PUSH1 0x4 DUP1 CALLDATASIZE SUB PUSH1 0x40 DUP2 LT ISZERO PUSH2 0x11D4 JUMPI PUSH1 0x0 DUP1 REVERT JUMPDEST DUP2 ADD SWAP1 DUP1 DUP1 CALLDATALOAD PUSH20 0xFFFFFFFFFFFFFFFFFFFFFFFFFFFFFFFFFFFFFFFF AND SWAP1 PUSH1 0x20 ADD SWAP1 SWAP3 SWAP2 SWAP1 DUP1 CALLDATALOAD PUSH20 0xFFFFFFFFFFFFFFFFFFFFFFFFFFFFFFFFFFFFFFFF AND SWAP1 PUSH1 0x20 ADD SWAP1 SWAP3 SWAP2 SWAP1 POP POP POP PUSH2 0x2B1E JUMP JUMPDEST PUSH1 0x40 MLOAD DUP1 DUP3 DUP2 MSTORE PUSH1 0x20 ADD SWAP2 POP POP PUSH1 0x40 MLOAD DUP1 SWAP2 SUB SWAP1 RETURN JUMPDEST CALLVALUE DUP1 ISZERO PUSH2 0x1242 JUMPI PUSH1 0x0 DUP1 REVERT JUMPDEST POP PUSH2 0x1271 PUSH1 0x4 DUP1 CALLDATASIZE SUB PUSH1 0x20 DUP2 LT ISZERO PUSH2 0x1259 JUMPI PUSH1 0x0 DUP1 REVERT JUMPDEST DUP2 ADD SWAP1 DUP1 DUP1 CALLDATALOAD ISZERO ISZERO SWAP1 PUSH1 0x20 ADD SWAP1 SWAP3 SWAP2 SWAP1 POP POP POP PUSH2 0x2BA5 JUMP JUMPDEST STOP JUMPDEST CALLVALUE DUP1 ISZERO PUSH2 0x127F JUMPI PUSH1 0x0 DUP1 REVERT JUMPDEST POP PUSH2 0x12C2 PUSH1 0x4 DUP1 CALLDATASIZE SUB PUSH1 0x20 DUP2 LT ISZERO PUSH2 0x1296 JUMPI PUSH1 0x0 DUP1 REVERT JUMPDEST DUP2 ADD SWAP1 DUP1 DUP1 CALLDATALOAD PUSH20 0xFFFFFFFFFFFFFFFFFFFFFFFFFFFFFFFFFFFFFFFF AND SWAP1 PUSH1 0x20 ADD SWAP1 SWAP3 SWAP2 SWAP1 POP POP POP PUSH2 0x2C00 JUMP JUMPDEST STOP JUMPDEST CALLVALUE DUP1 ISZERO PUSH2 0x12D0 JUMPI PUSH1 0x0 DUP1 REVERT JUMPDEST POP PUSH2 0x12D9 PUSH2 0x2C1D JUMP JUMPDEST PUSH1 0x40 MLOAD DUP1 DUP3 PUSH20 0xFFFFFFFFFFFFFFFFFFFFFFFFFFFFFFFFFFFFFFFF AND DUP2 MSTORE PUSH1 0x20 ADD SWAP2 POP POP PUSH1 0x40 MLOAD DUP1 SWAP2 SUB SWAP1 RETURN JUMPDEST CALLVALUE DUP1 ISZERO PUSH2 0x1311 JUMPI PUSH1 0x0 DUP1 REVERT JUMPDEST POP PUSH2 0x1354 PUSH1 0x4 DUP1 CALLDATASIZE SUB PUSH1 0x20 DUP2 LT ISZERO PUSH2 0x1328 JUMPI PUSH1 0x0 DUP1 REVERT JUMPDEST DUP2 ADD SWAP1 DUP1 DUP1 CALLDATALOAD PUSH20 0xFFFFFFFFFFFFFFFFFFFFFFFFFFFFFFFFFFFFFFFF AND SWAP1 PUSH1 0x20 ADD SWAP1 SWAP3 SWAP2 SWAP1 POP POP POP PUSH2 0x2C43 JUMP JUMPDEST PUSH1 0x40 MLOAD DUP1 DUP3 ISZERO ISZERO DUP2 MSTORE PUSH1 0x20 ADD SWAP2 POP POP PUSH1 0x40 MLOAD DUP1 SWAP2 SUB SWAP1 RETURN JUMPDEST PUSH1 0x60 PUSH1 0x0 DUP1 SLOAD PUSH1 0x1 DUP2 PUSH1 0x1 AND ISZERO PUSH2 0x100 MUL SUB AND PUSH1 0x2 SWAP1 DIV DUP1 PUSH1 0x1F ADD PUSH1 0x20 DUP1 SWAP2 DIV MUL PUSH1 0x20 ADD PUSH1 0x40 MLOAD SWAP1 DUP2 ADD PUSH1 0x40 MSTORE DUP1 SWAP3 SWAP2 SWAP1 DUP2 DUP2 MSTORE PUSH1 0x20 ADD DUP3 DUP1 SLOAD PUSH1 0x1 DUP2 PUSH1 0x1 AND ISZERO PUSH2 0x100 MUL SUB AND PUSH1 0x2 SWAP1 DIV DUP1 ISZERO PUSH2 0x1404 JUMPI DUP1 PUSH1 0x1F LT PUSH2 0x13D9 JUMPI PUSH2 0x100 DUP1 DUP4 SLOAD DIV MUL DUP4 MSTORE SWAP2 PUSH1 0x20 ADD SWAP2 PUSH2 0x1404 JUMP JUMPDEST DUP3 ADD SWAP2 SWAP1 PUSH1 0x0 MSTORE PUSH1 0x20 PUSH1 0x0 KECCAK256 SWAP1 JUMPDEST DUP2 SLOAD DUP2 MSTORE SWAP1 PUSH1 0x1 ADD SWAP1 PUSH1 0x20 ADD DUP1 DUP4 GT PUSH2 0x13E7 JUMPI DUP3 SWAP1 SUB PUSH1 0x1F AND DUP3 ADD SWAP2 JUMPDEST POP POP POP POP POP SWAP1 POP SWAP1 JUMP JUMPDEST PUSH1 0x11 PUSH1 0x0 SWAP1 SLOAD SWAP1 PUSH2 0x100 EXP SWAP1 DIV PUSH20 0xFFFFFFFFFFFFFFFFFFFFFFFFFFFFFFFFFFFFFFFF AND DUP2 JUMP JUMPDEST PUSH1 0x0 DUP2 PUSH1 0x1D PUSH1 0x0 CALLER PUSH20 0xFFFFFFFFFFFFFFFFFFFFFFFFFFFFFFFFFFFFFFFF AND PUSH20 0xFFFFFFFFFFFFFFFFFFFFFFFFFFFFFFFFFFFFFFFF AND DUP2 MSTORE PUSH1 0x20 ADD SWAP1 DUP2 MSTORE PUSH1 0x20 ADD PUSH1 0x0 KECCAK256 PUSH1 0x0 DUP6 PUSH20 0xFFFFFFFFFFFFFFFFFFFFFFFFFFFFFFFFFFFFFFFF AND PUSH20 0xFFFFFFFFFFFFFFFFFFFFFFFFFFFFFFFFFFFFFFFF AND DUP2 MSTORE PUSH1 0x20 ADD SWAP1 DUP2 MSTORE PUSH1 0x20 ADD PUSH1 0x0 KECCAK256 DUP2 SWAP1 SSTORE POP DUP3 PUSH20 0xFFFFFFFFFFFFFFFFFFFFFFFFFFFFFFFFFFFFFFFF AND CALLER PUSH20 0xFFFFFFFFFFFFFFFFFFFFFFFFFFFFFFFFFFFFFFFF AND PUSH32 0x8C5BE1E5EBEC7D5BD14F71427D1E84F3DD0314C0F7B2291E5B200AC8C7C3B925 DUP5 PUSH1 0x40 MLOAD DUP1 DUP3 DUP2 MSTORE PUSH1 0x20 ADD SWAP2 POP POP PUSH1 0x40 MLOAD DUP1 SWAP2 SUB SWAP1 LOG3 PUSH1 0x1 SWAP1 POP SWAP3 SWAP2 POP POP JUMP JUMPDEST PUSH1 0xD SLOAD DUP2 JUMP JUMPDEST PUSH1 0x0 PUSH1 0x1A SLOAD SWAP1 POP SWAP1 JUMP JUMPDEST PUSH1 0xC SLOAD DUP2 JUMP JUMPDEST PUSH1 0x0 DUP3 PUSH1 0x0 PUSH20 0xFFFFFFFFFFFFFFFFFFFFFFFFFFFFFFFFFFFFFFFF AND DUP2 PUSH20 0xFFFFFFFFFFFFFFFFFFFFFFFFFFFFFFFFFFFFFFFF AND EQ ISZERO PUSH2 0x1579 JUMPI PUSH1 0x0 DUP1 REVERT JUMPDEST PUSH32 0xFFFFFFFFFFFFFFFFFFFFFFFFFFFFFFFFFFFFFFFFFFFFFFFFFFFFFFFFFFFFFFFF PUSH1 0x1D PUSH1 0x0 DUP8 PUSH20 0xFFFFFFFFFFFFFFFFFFFFFFFFFFFFFFFFFFFFFFFF AND PUSH20 0xFFFFFFFFFFFFFFFFFFFFFFFFFFFFFFFFFFFFFFFF AND DUP2 MSTORE PUSH1 0x20 ADD SWAP1 DUP2 MSTORE PUSH1 0x20 ADD PUSH1 0x0 KECCAK256 PUSH1 0x0 CALLER PUSH20 0xFFFFFFFFFFFFFFFFFFFFFFFFFFFFFFFFFFFFFFFF AND PUSH20 0xFFFFFFFFFFFFFFFFFFFFFFFFFFFFFFFFFFFFFFFF AND DUP2 MSTORE PUSH1 0x20 ADD SWAP1 DUP2 MSTORE PUSH1 0x20 ADD PUSH1 0x0 KECCAK256 SLOAD EQ PUSH2 0x1763 JUMPI PUSH2 0x16E2 DUP4 PUSH1 0x40 MLOAD DUP1 PUSH1 0x40 ADD PUSH1 0x40 MSTORE DUP1 PUSH1 0x16 DUP2 MSTORE PUSH1 0x20 ADD PUSH32 0x496E73756666696369656E7420416C6C6F77616E636500000000000000000000 DUP2 MSTORE POP PUSH1 0x1D PUSH1 0x0 DUP10 PUSH20 0xFFFFFFFFFFFFFFFFFFFFFFFFFFFFFFFFFFFFFFFF AND PUSH20 0xFFFFFFFFFFFFFFFFFFFFFFFFFFFFFFFFFFFFFFFF AND DUP2 MSTORE PUSH1 0x20 ADD SWAP1 DUP2 MSTORE PUSH1 0x20 ADD PUSH1 0x0 KECCAK256 PUSH1 0x0 CALLER PUSH20 0xFFFFFFFFFFFFFFFFFFFFFFFFFFFFFFFFFFFFFFFF AND PUSH20 0xFFFFFFFFFFFFFFFFFFFFFFFFFFFFFFFFFFFFFFFF AND DUP2 MSTORE PUSH1 0x20 ADD SWAP1 DUP2 MSTORE PUSH1 0x20 ADD PUSH1 0x0 KECCAK256 SLOAD PUSH2 0x2D35 SWAP1 SWAP3 SWAP2 SWAP1 PUSH4 0xFFFFFFFF AND JUMP JUMPDEST PUSH1 0x1D PUSH1 0x0 DUP8 PUSH20 0xFFFFFFFFFFFFFFFFFFFFFFFFFFFFFFFFFFFFFFFF AND PUSH20 0xFFFFFFFFFFFFFFFFFFFFFFFFFFFFFFFFFFFFFFFF AND DUP2 MSTORE PUSH1 0x20 ADD SWAP1 DUP2 MSTORE PUSH1 0x20 ADD PUSH1 0x0 KECCAK256 PUSH1 0x0 CALLER PUSH20 0xFFFFFFFFFFFFFFFFFFFFFFFFFFFFFFFFFFFFFFFF AND PUSH20 0xFFFFFFFFFFFFFFFFFFFFFFFFFFFFFFFFFFFFFFFF AND DUP2 MSTORE PUSH1 0x20 ADD SWAP1 DUP2 MSTORE PUSH1 0x20 ADD PUSH1 0x0 KECCAK256 DUP2 SWAP1 SSTORE POP JUMPDEST PUSH2 0x176E DUP6 DUP6 DUP6 PUSH2 0x2DF5 JUMP JUMPDEST POP PUSH1 0x1 SWAP2 POP POP SWAP4 SWAP3 POP POP POP JUMP JUMPDEST PUSH1 0x0 PUSH2 0x1890 PUSH1 0x1B SLOAD PUSH2 0x1882 PUSH1 0x1C PUSH1 0x0 PUSH1 0xF PUSH1 0x0 SWAP1 SLOAD SWAP1 PUSH2 0x100 EXP SWAP1 DIV PUSH20 0xFFFFFFFFFFFFFFFFFFFFFFFFFFFFFFFFFFFFFFFF AND PUSH20 0xFFFFFFFFFFFFFFFFFFFFFFFFFFFFFFFFFFFFFFFF AND PUSH20 0xFFFFFFFFFFFFFFFFFFFFFFFFFFFFFFFFFFFFFFFF AND DUP2 MSTORE PUSH1 0x20 ADD SWAP1 DUP2 MSTORE PUSH1 0x20 ADD PUSH1 0x0 KECCAK256 SLOAD PUSH2 0x1874 PUSH1 0x1C PUSH1 0x0 PUSH1 0xE PUSH1 0x0 SWAP1 SLOAD SWAP1 PUSH2 0x100 EXP SWAP1 DIV PUSH20 0xFFFFFFFFFFFFFFFFFFFFFFFFFFFFFFFFFFFFFFFF AND PUSH20 0xFFFFFFFFFFFFFFFFFFFFFFFFFFFFFFFFFFFFFFFF AND PUSH20 0xFFFFFFFFFFFFFFFFFFFFFFFFFFFFFFFFFFFFFFFF AND DUP2 MSTORE PUSH1 0x20 ADD SWAP1 DUP2 MSTORE PUSH1 0x20 ADD PUSH1 0x0 KECCAK256 SLOAD PUSH1 0x5 PUSH1 0xA EXP PUSH3 0x4F588 MUL PUSH1 0x0 NOT DUP2 PUSH2 0x1861 JUMPI INVALID JUMPDEST MOD PUSH1 0x0 NOT SUB PUSH2 0x3164 SWAP1 SWAP2 SWAP1 PUSH4 0xFFFFFFFF AND JUMP JUMPDEST PUSH2 0x3164 SWAP1 SWAP2 SWAP1 PUSH4 0xFFFFFFFF AND JUMP JUMPDEST PUSH2 0x2CEB SWAP1 SWAP2 SWAP1 PUSH4 0xFFFFFFFF AND JUMP JUMPDEST SWAP1 POP SWAP1 JUMP JUMPDEST PUSH1 0xA SLOAD DUP2 JUMP JUMPDEST PUSH1 0x5 DUP2 JUMP JUMPDEST PUSH2 0x18A8 PUSH2 0x1FFA JUMP JUMPDEST PUSH2 0x18B1 JUMPI PUSH1 0x0 DUP1 REVERT JUMPDEST DUP1 PUSH1 0x5 PUSH1 0x1 PUSH2 0x100 EXP DUP2 SLOAD DUP2 PUSH20 0xFFFFFFFFFFFFFFFFFFFFFFFFFFFFFFFFFFFFFFFF MUL NOT AND SWAP1 DUP4 PUSH20 0xFFFFFFFFFFFFFFFFFFFFFFFFFFFFFFFFFFFFFFFF AND MUL OR SWAP1 SSTORE POP POP JUMP JUMPDEST PUSH1 0x0 PUSH1 0x2 PUSH1 0x0 SWAP1 SLOAD SWAP1 PUSH2 0x100 EXP SWAP1 DIV PUSH1 0xFF AND SWAP1 POP SWAP1 JUMP JUMPDEST PUSH1 0x5 PUSH1 0x0 SWAP1 SLOAD SWAP1 PUSH2 0x100 EXP SWAP1 DIV PUSH1 0xFF AND DUP2 JUMP JUMPDEST PUSH1 0x18 SLOAD DUP2 JUMP JUMPDEST PUSH1 0x0 NOT DUP2 JUMP JUMPDEST PUSH2 0x1933 PUSH2 0x1FFA JUMP JUMPDEST PUSH2 0x193C JUMPI PUSH1 0x0 DUP1 REVERT JUMPDEST PUSH2 0x1945 DUP3 PUSH2 0x31AE JUMP JUMPDEST PUSH2 0x199A JUMPI PUSH1 0x40 MLOAD PUSH32 0x8C379A000000000000000000000000000000000000000000000000000000000 DUP2 MSTORE PUSH1 0x4 ADD DUP1 DUP1 PUSH1 0x20 ADD DUP3 DUP2 SUB DUP3 MSTORE PUSH1 0x3B DUP2 MSTORE PUSH1 0x20 ADD DUP1 PUSH2 0x4A09 PUSH1 0x3B SWAP2 CODECOPY PUSH1 0x40 ADD SWAP2 POP POP PUSH1 0x40 MLOAD DUP1 SWAP2 SUB SWAP1 REVERT JUMPDEST DUP1 PUSH1 0x1E PUSH1 0x0 DUP5 PUSH20 0xFFFFFFFFFFFFFFFFFFFFFFFFFFFFFFFFFFFFFFFF AND PUSH20 0xFFFFFFFFFFFFFFFFFFFFFFFFFFFFFFFFFFFFFFFF AND DUP2 MSTORE PUSH1 0x20 ADD SWAP1 DUP2 MSTORE PUSH1 0x20 ADD PUSH1 0x0 KECCAK256 PUSH1 0x0 PUSH2 0x100 EXP DUP2 SLOAD DUP2 PUSH1 0xFF MUL NOT AND SWAP1 DUP4 ISZERO ISZERO MUL OR SWAP1 SSTORE POP POP POP JUMP JUMPDEST PUSH1 0x0 PUSH2 0x1A86 DUP3 PUSH1 0x1D PUSH1 0x0 CALLER PUSH20 0xFFFFFFFFFFFFFFFFFFFFFFFFFFFFFFFFFFFFFFFF AND PUSH20 0xFFFFFFFFFFFFFFFFFFFFFFFFFFFFFFFFFFFFFFFF AND DUP2 MSTORE PUSH1 0x20 ADD SWAP1 DUP2 MSTORE PUSH1 0x20 ADD PUSH1 0x0 KECCAK256 PUSH1 0x0 DUP7 PUSH20 0xFFFFFFFFFFFFFFFFFFFFFFFFFFFFFFFFFFFFFFFF AND PUSH20 0xFFFFFFFFFFFFFFFFFFFFFFFFFFFFFFFFFFFFFFFF AND DUP2 MSTORE PUSH1 0x20 ADD SWAP1 DUP2 MSTORE PUSH1 0x20 ADD PUSH1 0x0 KECCAK256 SLOAD PUSH2 0x2C63 SWAP1 SWAP2 SWAP1 PUSH4 0xFFFFFFFF AND JUMP JUMPDEST PUSH1 0x1D PUSH1 0x0 CALLER PUSH20 0xFFFFFFFFFFFFFFFFFFFFFFFFFFFFFFFFFFFFFFFF AND PUSH20 0xFFFFFFFFFFFFFFFFFFFFFFFFFFFFFFFFFFFFFFFF AND DUP2 MSTORE PUSH1 0x20 ADD SWAP1 DUP2 MSTORE PUSH1 0x20 ADD PUSH1 0x0 KECCAK256 PUSH1 0x0 DUP6 PUSH20 0xFFFFFFFFFFFFFFFFFFFFFFFFFFFFFFFFFFFFFFFF AND PUSH20 0xFFFFFFFFFFFFFFFFFFFFFFFFFFFFFFFFFFFFFFFF AND DUP2 MSTORE PUSH1 0x20 ADD SWAP1 DUP2 MSTORE PUSH1 0x20 ADD PUSH1 0x0 KECCAK256 DUP2 SWAP1 SSTORE POP DUP3 PUSH20 0xFFFFFFFFFFFFFFFFFFFFFFFFFFFFFFFFFFFFFFFF AND CALLER PUSH20 0xFFFFFFFFFFFFFFFFFFFFFFFFFFFFFFFFFFFFFFFF AND PUSH32 0x8C5BE1E5EBEC7D5BD14F71427D1E84F3DD0314C0F7B2291E5B200AC8C7C3B925 PUSH1 0x1D PUSH1 0x0 CALLER PUSH20 0xFFFFFFFFFFFFFFFFFFFFFFFFFFFFFFFFFFFFFFFF AND PUSH20 0xFFFFFFFFFFFFFFFFFFFFFFFFFFFFFFFFFFFFFFFF AND DUP2 MSTORE PUSH1 0x20 ADD SWAP1 DUP2 MSTORE PUSH1 0x20 ADD PUSH1 0x0 KECCAK256 PUSH1 0x0 DUP8 PUSH20 0xFFFFFFFFFFFFFFFFFFFFFFFFFFFFFFFFFFFFFFFF AND PUSH20 0xFFFFFFFFFFFFFFFFFFFFFFFFFFFFFFFFFFFFFFFF AND DUP2 MSTORE PUSH1 0x20 ADD SWAP1 DUP2 MSTORE PUSH1 0x20 ADD PUSH1 0x0 KECCAK256 SLOAD PUSH1 0x40 MLOAD DUP1 DUP3 DUP2 MSTORE PUSH1 0x20 ADD SWAP2 POP POP PUSH1 0x40 MLOAD DUP1 SWAP2 SUB SWAP1 LOG3 PUSH1 0x1 SWAP1 POP SWAP3 SWAP2 POP POP JUMP JUMPDEST PUSH1 0x12 PUSH1 0x0 SWAP1 SLOAD SWAP1 PUSH2 0x100 EXP SWAP1 DIV PUSH20 0xFFFFFFFFFFFFFFFFFFFFFFFFFFFFFFFFFFFFFFFF AND DUP2 JUMP JUMPDEST PUSH2 0x1C1F PUSH2 0x1FFA JUMP JUMPDEST PUSH2 0x1C28 JUMPI PUSH1 0x0 DUP1 REVERT JUMPDEST DUP4 PUSH1 0x10 PUSH1 0x0 PUSH2 0x100 EXP DUP2 SLOAD DUP2 PUSH20 0xFFFFFFFFFFFFFFFFFFFFFFFFFFFFFFFFFFFFFFFF MUL NOT AND SWAP1 DUP4 PUSH20 0xFFFFFFFFFFFFFFFFFFFFFFFFFFFFFFFFFFFFFFFF AND MUL OR SWAP1 SSTORE POP DUP3 PUSH1 0x11 PUSH1 0x0 PUSH2 0x100 EXP DUP2 SLOAD DUP2 PUSH20 0xFFFFFFFFFFFFFFFFFFFFFFFFFFFFFFFFFFFFFFFF MUL NOT AND SWAP1 DUP4 PUSH20 0xFFFFFFFFFFFFFFFFFFFFFFFFFFFFFFFFFFFFFFFF AND MUL OR SWAP1 SSTORE POP DUP2 PUSH1 0x12 PUSH1 0x0 PUSH2 0x100 EXP DUP2 SLOAD DUP2 PUSH20 0xFFFFFFFFFFFFFFFFFFFFFFFFFFFFFFFFFFFFFFFF MUL NOT AND SWAP1 DUP4 PUSH20 0xFFFFFFFFFFFFFFFFFFFFFFFFFFFFFFFFFFFFFFFF AND MUL OR SWAP1 SSTORE POP DUP1 PUSH1 0x13 PUSH1 0x0 PUSH2 0x100 EXP DUP2 SLOAD DUP2 PUSH20 0xFFFFFFFFFFFFFFFFFFFFFFFFFFFFFFFFFFFFFFFF MUL NOT AND SWAP1 DUP4 PUSH20 0xFFFFFFFFFFFFFFFFFFFFFFFFFFFFFFFFFFFFFFFF AND MUL OR SWAP1 SSTORE POP POP POP POP POP JUMP JUMPDEST PUSH1 0x1A SLOAD DUP2 JUMP JUMPDEST PUSH1 0x13 PUSH1 0x0 SWAP1 SLOAD SWAP1 PUSH2 0x100 EXP SWAP1 DIV PUSH20 0xFFFFFFFFFFFFFFFFFFFFFFFFFFFFFFFFFFFFFFFF AND DUP2 JUMP JUMPDEST PUSH1 0x5 PUSH1 0x1 SWAP1 SLOAD SWAP1 PUSH2 0x100 EXP SWAP1 DIV PUSH20 0xFFFFFFFFFFFFFFFFFFFFFFFFFFFFFFFFFFFFFFFF AND DUP2 JUMP JUMPDEST PUSH1 0x9 SLOAD DUP2 JUMP JUMPDEST PUSH1 0x7 DUP2 JUMP JUMPDEST PUSH1 0x16 DUP1 SLOAD SWAP1 PUSH2 0x100 EXP SWAP1 DIV PUSH1 0xFF AND DUP2 JUMP JUMPDEST PUSH1 0x14 DUP1 SLOAD SWAP1 PUSH2 0x100 EXP SWAP1 DIV PUSH1 0xFF AND DUP2 JUMP JUMPDEST PUSH1 0x0 PUSH2 0x1E07 PUSH1 0x1B SLOAD PUSH1 0x1C PUSH1 0x0 DUP6 PUSH20 0xFFFFFFFFFFFFFFFFFFFFFFFFFFFFFFFFFFFFFFFF AND PUSH20 0xFFFFFFFFFFFFFFFFFFFFFFFFFFFFFFFFFFFFFFFF AND DUP2 MSTORE PUSH1 0x20 ADD SWAP1 DUP2 MSTORE PUSH1 0x20 ADD PUSH1 0x0 KECCAK256 SLOAD PUSH2 0x2CEB SWAP1 SWAP2 SWAP1 PUSH4 0xFFFFFFFF AND JUMP JUMPDEST SWAP1 POP SWAP2 SWAP1 POP JUMP JUMPDEST PUSH2 0x1E16 PUSH2 0x1FFA JUMP JUMPDEST PUSH2 0x1E1F JUMPI PUSH1 0x0 DUP1 REVERT JUMPDEST PUSH1 0x2 PUSH1 0x1 SWAP1 SLOAD SWAP1 PUSH2 0x100 EXP SWAP1 DIV PUSH20 0xFFFFFFFFFFFFFFFFFFFFFFFFFFFFFFFFFFFFFFFF AND PUSH20 0xFFFFFFFFFFFFFFFFFFFFFFFFFFFFFFFFFFFFFFFF AND PUSH32 0xF8DF31144D9C2F0F6B59D69B8B98ABD5459D07F2742C4DF920B25AAE33C64820 PUSH1 0x40 MLOAD PUSH1 0x40 MLOAD DUP1 SWAP2 SUB SWAP1 LOG2 PUSH1 0x0 PUSH1 0x2 PUSH1 0x1 PUSH2 0x100 EXP DUP2 SLOAD DUP2 PUSH20 0xFFFFFFFFFFFFFFFFFFFFFFFFFFFFFFFFFFFFFFFF MUL NOT AND SWAP1 DUP4 PUSH20 0xFFFFFFFFFFFFFFFFFFFFFFFFFFFFFFFFFFFFFFFF AND MUL OR SWAP1 SSTORE POP JUMP JUMPDEST PUSH1 0x16 PUSH1 0x0 SWAP1 SLOAD SWAP1 PUSH2 0x100 EXP SWAP1 DIV PUSH20 0xFFFFFFFFFFFFFFFFFFFFFFFFFFFFFFFFFFFFFFFF AND PUSH20 0xFFFFFFFFFFFFFFFFFFFFFFFFFFFFFFFFFFFFFFFF AND PUSH4 0xFFF6CAE9 PUSH1 0x40 MLOAD DUP2 PUSH4 0xFFFFFFFF AND PUSH1 0xE0 SHL DUP2 MSTORE PUSH1 0x4 ADD PUSH1 0x0 PUSH1 0x40 MLOAD DUP1 DUP4 SUB DUP2 PUSH1 0x0 DUP8 DUP1 EXTCODESIZE ISZERO DUP1 ISZERO PUSH2 0x1F32 JUMPI PUSH1 0x0 DUP1 REVERT JUMPDEST POP GAS CALL ISZERO DUP1 ISZERO PUSH2 0x1F46 JUMPI RETURNDATASIZE PUSH1 0x0 DUP1 RETURNDATACOPY RETURNDATASIZE PUSH1 0x0 REVERT JUMPDEST POP POP POP POP JUMP JUMPDEST PUSH1 0x0 PUSH1 0x16 PUSH1 0x14 SWAP1 SLOAD SWAP1 PUSH2 0x100 EXP SWAP1 DIV PUSH1 0xFF AND ISZERO SWAP1 POP SWAP1 JUMP JUMPDEST PUSH2 0x1F6C PUSH2 0x1FFA JUMP JUMPDEST PUSH2 0x1F75 JUMPI PUSH1 0x0 DUP1 REVERT JUMPDEST PUSH1 0x1 PUSH1 0x6 PUSH1 0x0 DUP4 PUSH20 0xFFFFFFFFFFFFFFFFFFFFFFFFFFFFFFFFFFFFFFFF AND PUSH20 0xFFFFFFFFFFFFFFFFFFFFFFFFFFFFFFFFFFFFFFFF AND DUP2 MSTORE PUSH1 0x20 ADD SWAP1 DUP2 MSTORE PUSH1 0x20 ADD PUSH1 0x0 KECCAK256 PUSH1 0x0 PUSH2 0x100 EXP DUP2 SLOAD DUP2 PUSH1 0xFF MUL NOT AND SWAP1 DUP4 ISZERO ISZERO MUL OR SWAP1 SSTORE POP POP JUMP JUMPDEST PUSH1 0x0 PUSH1 0x2 PUSH1 0x1 SWAP1 SLOAD SWAP1 PUSH2 0x100 EXP SWAP1 DIV PUSH20 0xFFFFFFFFFFFFFFFFFFFFFFFFFFFFFFFFFFFFFFFF AND SWAP1 POP SWAP1 JUMP JUMPDEST PUSH1 0x0 PUSH1 0x2 PUSH1 0x1 SWAP1 SLOAD SWAP1 PUSH2 0x100 EXP SWAP1 DIV PUSH20 0xFFFFFFFFFFFFFFFFFFFFFFFFFFFFFFFFFFFFFFFF AND PUSH20 0xFFFFFFFFFFFFFFFFFFFFFFFFFFFFFFFFFFFFFFFF AND CALLER PUSH20 0xFFFFFFFFFFFFFFFFFFFFFFFFFFFFFFFFFFFFFFFF AND EQ SWAP1 POP SWAP1 JUMP JUMPDEST PUSH1 0x60 PUSH1 0x1 DUP1 SLOAD PUSH1 0x1 DUP2 PUSH1 0x1 AND ISZERO PUSH2 0x100 MUL SUB AND PUSH1 0x2 SWAP1 DIV DUP1 PUSH1 0x1F ADD PUSH1 0x20 DUP1 SWAP2 DIV MUL PUSH1 0x20 ADD PUSH1 0x40 MLOAD SWAP1 DUP2 ADD PUSH1 0x40 MSTORE DUP1 SWAP3 SWAP2 SWAP1 DUP2 DUP2 MSTORE PUSH1 0x20 ADD DUP3 DUP1 SLOAD PUSH1 0x1 DUP2 PUSH1 0x1 AND ISZERO PUSH2 0x100 MUL SUB AND PUSH1 0x2 SWAP1 DIV DUP1 ISZERO PUSH2 0x20EA JUMPI DUP1 PUSH1 0x1F LT PUSH2 0x20BF JUMPI PUSH2 0x100 DUP1 DUP4 SLOAD DIV MUL DUP4 MSTORE SWAP2 PUSH1 0x20 ADD SWAP2 PUSH2 0x20EA JUMP JUMPDEST DUP3 ADD SWAP2 SWAP1 PUSH1 0x0 MSTORE PUSH1 0x20 PUSH1 0x0 KECCAK256 SWAP1 JUMPDEST DUP2 SLOAD DUP2 MSTORE SWAP1 PUSH1 0x1 ADD SWAP1 PUSH1 0x20 ADD DUP1 DUP4 GT PUSH2 0x20CD JUMPI DUP3 SWAP1 SUB PUSH1 0x1F AND DUP3 ADD SWAP2 JUMPDEST POP POP POP POP POP SWAP1 POP SWAP1 JUMP JUMPDEST PUSH1 0x7 SLOAD DUP2 JUMP JUMPDEST PUSH1 0x19 SLOAD DUP2 JUMP JUMPDEST PUSH1 0x17 SLOAD DUP2 JUMP JUMPDEST PUSH2 0x210E PUSH2 0x1FFA JUMP JUMPDEST PUSH2 0x2117 JUMPI PUSH1 0x0 DUP1 REVERT JUMPDEST DUP1 PUSH1 0x14 PUSH1 0x0 PUSH2 0x100 EXP DUP2 SLOAD DUP2 PUSH20 0xFFFFFFFFFFFFFFFFFFFFFFFFFFFFFFFFFFFFFFFF MUL NOT AND SWAP1 DUP4 PUSH20 0xFFFFFFFFFFFFFFFFFFFFFFFFFFFFFFFFFFFFFFFF AND MUL OR SWAP1 SSTORE POP POP JUMP JUMPDEST PUSH1 0x0 DUP1 PUSH1 0x1D PUSH1 0x0 CALLER PUSH20 0xFFFFFFFFFFFFFFFFFFFFFFFFFFFFFFFFFFFFFFFF AND PUSH20 0xFFFFFFFFFFFFFFFFFFFFFFFFFFFFFFFFFFFFFFFF AND DUP2 MSTORE PUSH1 0x20 ADD SWAP1 DUP2 MSTORE PUSH1 0x20 ADD PUSH1 0x0 KECCAK256 PUSH1 0x0 DUP6 PUSH20 0xFFFFFFFFFFFFFFFFFFFFFFFFFFFFFFFFFFFFFFFF AND PUSH20 0xFFFFFFFFFFFFFFFFFFFFFFFFFFFFFFFFFFFFFFFF AND DUP2 MSTORE PUSH1 0x20 ADD SWAP1 DUP2 MSTORE PUSH1 0x20 ADD PUSH1 0x0 KECCAK256 SLOAD SWAP1 POP DUP1 DUP4 LT PUSH2 0x226B JUMPI PUSH1 0x0 PUSH1 0x1D PUSH1 0x0 CALLER PUSH20 0xFFFFFFFFFFFFFFFFFFFFFFFFFFFFFFFFFFFFFFFF AND PUSH20 0xFFFFFFFFFFFFFFFFFFFFFFFFFFFFFFFFFFFFFFFF AND DUP2 MSTORE PUSH1 0x20 ADD SWAP1 DUP2 MSTORE PUSH1 0x20 ADD PUSH1 0x0 KECCAK256 PUSH1 0x0 DUP7 PUSH20 0xFFFFFFFFFFFFFFFFFFFFFFFFFFFFFFFFFFFFFFFF AND PUSH20 0xFFFFFFFFFFFFFFFFFFFFFFFFFFFFFFFFFFFFFFFF AND DUP2 MSTORE PUSH1 0x20 ADD SWAP1 DUP2 MSTORE PUSH1 0x20 ADD PUSH1 0x0 KECCAK256 DUP2 SWAP1 SSTORE POP PUSH2 0x22FF JUMP JUMPDEST PUSH2 0x227E DUP4 DUP3 PUSH2 0x3164 SWAP1 SWAP2 SWAP1 PUSH4 0xFFFFFFFF AND JUMP JUMPDEST PUSH1 0x1D PUSH1 0x0 CALLER PUSH20 0xFFFFFFFFFFFFFFFFFFFFFFFFFFFFFFFFFFFFFFFF AND PUSH20 0xFFFFFFFFFFFFFFFFFFFFFFFFFFFFFFFFFFFFFFFF AND DUP2 MSTORE PUSH1 0x20 ADD SWAP1 DUP2 MSTORE PUSH1 0x20 ADD PUSH1 0x0 KECCAK256 PUSH1 0x0 DUP7 PUSH20 0xFFFFFFFFFFFFFFFFFFFFFFFFFFFFFFFFFFFFFFFF AND PUSH20 0xFFFFFFFFFFFFFFFFFFFFFFFFFFFFFFFFFFFFFFFF AND DUP2 MSTORE PUSH1 0x20 ADD SWAP1 DUP2 MSTORE PUSH1 0x20 ADD PUSH1 0x0 KECCAK256 DUP2 SWAP1 SSTORE POP JUMPDEST DUP4 PUSH20 0xFFFFFFFFFFFFFFFFFFFFFFFFFFFFFFFFFFFFFFFF AND CALLER PUSH20 0xFFFFFFFFFFFFFFFFFFFFFFFFFFFFFFFFFFFFFFFF AND PUSH32 0x8C5BE1E5EBEC7D5BD14F71427D1E84F3DD0314C0F7B2291E5B200AC8C7C3B925 PUSH1 0x1D PUSH1 0x0 CALLER PUSH20 0xFFFFFFFFFFFFFFFFFFFFFFFFFFFFFFFFFFFFFFFF AND PUSH20 0xFFFFFFFFFFFFFFFFFFFFFFFFFFFFFFFFFFFFFFFF AND DUP2 MSTORE PUSH1 0x20 ADD SWAP1 DUP2 MSTORE PUSH1 0x20 ADD PUSH1 0x0 KECCAK256 PUSH1 0x0 DUP9 PUSH20 0xFFFFFFFFFFFFFFFFFFFFFFFFFFFFFFFFFFFFFFFF AND PUSH20 0xFFFFFFFFFFFFFFFFFFFFFFFFFFFFFFFFFFFFFFFF AND DUP2 MSTORE PUSH1 0x20 ADD SWAP1 DUP2 MSTORE PUSH1 0x20 ADD PUSH1 0x0 KECCAK256 SLOAD PUSH1 0x40 MLOAD DUP1 DUP3 DUP2 MSTORE PUSH1 0x20 ADD SWAP2 POP POP PUSH1 0x40 MLOAD DUP1 SWAP2 SUB SWAP1 LOG3 PUSH1 0x1 SWAP2 POP POP SWAP3 SWAP2 POP POP JUMP JUMPDEST PUSH1 0xB SLOAD DUP2 JUMP JUMPDEST PUSH1 0x16 PUSH1 0x0 SWAP1 SLOAD SWAP1 PUSH2 0x100 EXP SWAP1 DIV PUSH20 0xFFFFFFFFFFFFFFFFFFFFFFFFFFFFFFFFFFFFFFFF AND DUP2 JUMP JUMPDEST PUSH1 0x14 PUSH1 0x0 SWAP1 SLOAD SWAP1 PUSH2 0x100 EXP SWAP1 DIV PUSH20 0xFFFFFFFFFFFFFFFFFFFFFFFFFFFFFFFFFFFFFFFF AND DUP2 JUMP JUMPDEST PUSH1 0x0 DUP3 PUSH1 0x0 PUSH20 0xFFFFFFFFFFFFFFFFFFFFFFFFFFFFFFFFFFFFFFFF AND DUP2 PUSH20 0xFFFFFFFFFFFFFFFFFFFFFFFFFFFFFFFFFFFFFFFF AND EQ ISZERO PUSH2 0x247A JUMPI PUSH1 0x0 DUP1 REVERT JUMPDEST PUSH2 0x2485 CALLER DUP6 DUP6 PUSH2 0x2DF5 JUMP JUMPDEST POP PUSH1 0x1 SWAP2 POP POP SWAP3 SWAP2 POP POP JUMP JUMPDEST PUSH1 0x16 PUSH1 0x15 SWAP1 SLOAD SWAP1 PUSH2 0x100 EXP SWAP1 DIV PUSH1 0xFF AND DUP2 JUMP JUMPDEST PUSH1 0x4 DUP1 SLOAD PUSH1 0x1 DUP2 PUSH1 0x1 AND ISZERO PUSH2 0x100 MUL SUB AND PUSH1 0x2 SWAP1 DIV DUP1 PUSH1 0x1F ADD PUSH1 0x20 DUP1 SWAP2 DIV MUL PUSH1 0x20 ADD PUSH1 0x40 MLOAD SWAP1 DUP2 ADD PUSH1 0x40 MSTORE DUP1 SWAP3 SWAP2 SWAP1 DUP2 DUP2 MSTORE PUSH1 0x20 ADD DUP3 DUP1 SLOAD PUSH1 0x1 DUP2 PUSH1 0x1 AND ISZERO PUSH2 0x100 MUL SUB AND PUSH1 0x2 SWAP1 DIV DUP1 ISZERO PUSH2 0x253A JUMPI DUP1 PUSH1 0x1F LT PUSH2 0x250F JUMPI PUSH2 0x100 DUP1 DUP4 SLOAD DIV MUL DUP4 MSTORE SWAP2 PUSH1 0x20 ADD SWAP2 PUSH2 0x253A JUMP JUMPDEST DUP3 ADD SWAP2 SWAP1 PUSH1 0x0 MSTORE PUSH1 0x20 PUSH1 0x0 KECCAK256 SWAP1 JUMPDEST DUP2 SLOAD DUP2 MSTORE SWAP1 PUSH1 0x1 ADD SWAP1 PUSH1 0x20 ADD DUP1 DUP4 GT PUSH2 0x251D JUMPI DUP3 SWAP1 SUB PUSH1 0x1F AND DUP3 ADD SWAP2 JUMPDEST POP POP POP POP POP DUP2 JUMP JUMPDEST PUSH1 0x1 PUSH1 0x16 PUSH1 0x14 PUSH2 0x100 EXP DUP2 SLOAD DUP2 PUSH1 0xFF MUL NOT AND SWAP1 DUP4 ISZERO ISZERO MUL OR SWAP1 SSTORE POP PUSH2 0x2565 PUSH2 0x1FFA JUMP JUMPDEST PUSH2 0x256E JUMPI PUSH1 0x0 DUP1 REVERT JUMPDEST PUSH1 0x0 PUSH2 0x25C4 PUSH1 0x1B SLOAD PUSH1 0x1C PUSH1 0x0 ADDRESS PUSH20 0xFFFFFFFFFFFFFFFFFFFFFFFFFFFFFFFFFFFFFFFF AND PUSH20 0xFFFFFFFFFFFFFFFFFFFFFFFFFFFFFFFFFFFFFFFF AND DUP2 MSTORE PUSH1 0x20 ADD SWAP1 DUP2 MSTORE PUSH1 0x20 ADD PUSH1 0x0 KECCAK256 SLOAD PUSH2 0x2CEB SWAP1 SWAP2 SWAP1 PUSH4 0xFFFFFFFF AND JUMP JUMPDEST SWAP1 POP PUSH1 0x0 DUP2 GT PUSH2 0x261F JUMPI PUSH1 0x40 MLOAD PUSH32 0x8C379A000000000000000000000000000000000000000000000000000000000 DUP2 MSTORE PUSH1 0x4 ADD DUP1 DUP1 PUSH1 0x20 ADD DUP3 DUP2 SUB DUP3 MSTORE PUSH1 0x33 DUP2 MSTORE PUSH1 0x20 ADD DUP1 PUSH2 0x49B5 PUSH1 0x33 SWAP2 CODECOPY PUSH1 0x40 ADD SWAP2 POP POP PUSH1 0x40 MLOAD DUP1 SWAP2 SUB SWAP1 REVERT JUMPDEST PUSH1 0x60 PUSH1 0x2 PUSH8 0xFFFFFFFFFFFFFFFF DUP2 GT DUP1 ISZERO PUSH2 0x2639 JUMPI PUSH1 0x0 DUP1 REVERT JUMPDEST POP PUSH1 0x40 MLOAD SWAP1 DUP1 DUP3 MSTORE DUP1 PUSH1 0x20 MUL PUSH1 0x20 ADD DUP3 ADD PUSH1 0x40 MSTORE DUP1 ISZERO PUSH2 0x2668 JUMPI DUP2 PUSH1 0x20 ADD PUSH1 0x20 DUP3 MUL DUP1 CALLDATASIZE DUP4 CALLDATACOPY DUP1 DUP3 ADD SWAP2 POP POP SWAP1 POP JUMPDEST POP SWAP1 POP ADDRESS DUP2 PUSH1 0x0 DUP2 MLOAD DUP2 LT PUSH2 0x2679 JUMPI INVALID JUMPDEST PUSH1 0x20 MUL PUSH1 0x20 ADD ADD SWAP1 PUSH20 0xFFFFFFFFFFFFFFFFFFFFFFFFFFFFFFFFFFFFFFFF AND SWAP1 DUP2 PUSH20 0xFFFFFFFFFFFFFFFFFFFFFFFFFFFFFFFFFFFFFFFF AND DUP2 MSTORE POP POP PUSH1 0x15 PUSH1 0x0 SWAP1 SLOAD SWAP1 PUSH2 0x100 EXP SWAP1 DIV PUSH20 0xFFFFFFFFFFFFFFFFFFFFFFFFFFFFFFFFFFFFFFFF AND PUSH20 0xFFFFFFFFFFFFFFFFFFFFFFFFFFFFFFFFFFFFFFFF AND PUSH4 0xAD5C4648 PUSH1 0x40 MLOAD DUP2 PUSH4 0xFFFFFFFF AND PUSH1 0xE0 SHL DUP2 MSTORE PUSH1 0x4 ADD PUSH1 0x20 PUSH1 0x40 MLOAD DUP1 DUP4 SUB DUP2 DUP7 DUP1 EXTCODESIZE ISZERO DUP1 ISZERO PUSH2 0x271B JUMPI PUSH1 0x0 DUP1 REVERT JUMPDEST POP GAS STATICCALL ISZERO DUP1 ISZERO PUSH2 0x272F JUMPI RETURNDATASIZE PUSH1 0x0 DUP1 RETURNDATACOPY RETURNDATASIZE PUSH1 0x0 REVERT JUMPDEST POP POP POP POP PUSH1 0x40 MLOAD RETURNDATASIZE PUSH1 0x20 DUP2 LT ISZERO PUSH2 0x2745 JUMPI PUSH1 0x0 DUP1 REVERT JUMPDEST DUP2 ADD SWAP1 DUP1 DUP1 MLOAD SWAP1 PUSH1 0x20 ADD SWAP1 SWAP3 SWAP2 SWAP1 POP POP POP DUP2 PUSH1 0x1 DUP2 MLOAD DUP2 LT PUSH2 0x2763 JUMPI INVALID JUMPDEST PUSH1 0x20 MUL PUSH1 0x20 ADD ADD SWAP1 PUSH20 0xFFFFFFFFFFFFFFFFFFFFFFFFFFFFFFFFFFFFFFFF AND SWAP1 DUP2 PUSH20 0xFFFFFFFFFFFFFFFFFFFFFFFFFFFFFFFFFFFFFFFF AND DUP2 MSTORE POP POP PUSH1 0x15 PUSH1 0x0 SWAP1 SLOAD SWAP1 PUSH2 0x100 EXP SWAP1 DIV PUSH20 0xFFFFFFFFFFFFFFFFFFFFFFFFFFFFFFFFFFFFFFFF AND PUSH20 0xFFFFFFFFFFFFFFFFFFFFFFFFFFFFFFFFFFFFFFFF AND PUSH4 0x791AC947 DUP4 PUSH1 0x0 DUP5 PUSH1 0x11 PUSH1 0x0 SWAP1 SLOAD SWAP1 PUSH2 0x100 EXP SWAP1 DIV PUSH20 0xFFFFFFFFFFFFFFFFFFFFFFFFFFFFFFFFFFFFFFFF AND TIMESTAMP PUSH1 0x40 MLOAD DUP7 PUSH4 0xFFFFFFFF AND PUSH1 0xE0 SHL DUP2 MSTORE PUSH1 0x4 ADD DUP1 DUP7 DUP2 MSTORE PUSH1 0x20 ADD DUP6 DUP2 MSTORE PUSH1 0x20 ADD DUP1 PUSH1 0x20 ADD DUP5 PUSH20 0xFFFFFFFFFFFFFFFFFFFFFFFFFFFFFFFFFFFFFFFF AND DUP2 MSTORE PUSH1 0x20 ADD DUP4 DUP2 MSTORE PUSH1 0x20 ADD DUP3 DUP2 SUB DUP3 MSTORE DUP6 DUP2 DUP2 MLOAD DUP2 MSTORE PUSH1 0x20 ADD SWAP2 POP DUP1 MLOAD SWAP1 PUSH1 0x20 ADD SWAP1 PUSH1 0x20 MUL DUP1 DUP4 DUP4 PUSH1 0x0 JUMPDEST DUP4 DUP2 LT ISZERO PUSH2 0x2883 JUMPI DUP1 DUP3 ADD MLOAD DUP2 DUP5 ADD MSTORE PUSH1 0x20 DUP2 ADD SWAP1 POP PUSH2 0x2868 JUMP JUMPDEST POP POP POP POP SWAP1 POP ADD SWAP7 POP POP POP POP POP POP POP PUSH1 0x0 PUSH1 0x40 MLOAD DUP1 DUP4 SUB DUP2 PUSH1 0x0 DUP8 DUP1 EXTCODESIZE ISZERO DUP1 ISZERO PUSH2 0x28AC JUMPI PUSH1 0x0 DUP1 REVERT JUMPDEST POP GAS CALL ISZERO DUP1 ISZERO PUSH2 0x28C0 JUMPI RETURNDATASIZE PUSH1 0x0 DUP1 RETURNDATACOPY RETURNDATASIZE PUSH1 0x0 REVERT JUMPDEST POP POP POP POP POP POP PUSH1 0x0 PUSH1 0x16 PUSH1 0x14 PUSH2 0x100 EXP DUP2 SLOAD DUP2 PUSH1 0xFF MUL NOT AND SWAP1 DUP4 ISZERO ISZERO MUL OR SWAP1 SSTORE POP JUMP JUMPDEST PUSH1 0x10 PUSH1 0x0 SWAP1 SLOAD SWAP1 PUSH2 0x100 EXP SWAP1 DIV PUSH20 0xFFFFFFFFFFFFFFFFFFFFFFFFFFFFFFFFFFFFFFFF AND DUP2 JUMP JUMPDEST PUSH1 0x8 SLOAD DUP2 JUMP JUMPDEST PUSH2 0x2917 PUSH2 0x1FFA JUMP JUMPDEST PUSH2 0x2920 JUMPI PUSH1 0x0 DUP1 REVERT JUMPDEST DUP1 ISZERO PUSH2 0x294B JUMPI DUP1 PUSH1 0x16 DUP1 PUSH2 0x100 EXP DUP2 SLOAD DUP2 PUSH1 0xFF MUL NOT AND SWAP1 DUP4 ISZERO ISZERO MUL OR SWAP1 SSTORE POP TIMESTAMP PUSH1 0x19 DUP2 SWAP1 SSTORE POP PUSH2 0x2965 JUMP JUMPDEST DUP1 PUSH1 0x16 DUP1 PUSH2 0x100 EXP DUP2 SLOAD DUP2 PUSH1 0xFF MUL NOT AND SWAP1 DUP4 ISZERO ISZERO MUL OR SWAP1 SSTORE POP JUMPDEST POP JUMP JUMPDEST PUSH1 0x3 DUP1 SLOAD PUSH1 0x1 DUP2 PUSH1 0x1 AND ISZERO PUSH2 0x100 MUL SUB AND PUSH1 0x2 SWAP1 DIV DUP1 PUSH1 0x1F ADD PUSH1 0x20 DUP1 SWAP2 DIV MUL PUSH1 0x20 ADD PUSH1 0x40 MLOAD SWAP1 DUP2 ADD PUSH1 0x40 MSTORE DUP1 SWAP3 SWAP2 SWAP1 DUP2 DUP2 MSTORE PUSH1 0x20 ADD DUP3 DUP1 SLOAD PUSH1 0x1 DUP2 PUSH1 0x1 AND ISZERO PUSH2 0x100 MUL SUB AND PUSH1 0x2 SWAP1 DIV DUP1 ISZERO PUSH2 0x29FE JUMPI DUP1 PUSH1 0x1F LT PUSH2 0x29D3 JUMPI PUSH2 0x100 DUP1 DUP4 SLOAD DIV MUL DUP4 MSTORE SWAP2 PUSH1 0x20 ADD SWAP2 PUSH2 0x29FE JUMP JUMPDEST DUP3 ADD SWAP2 SWAP1 PUSH1 0x0 MSTORE PUSH1 0x20 PUSH1 0x0 KECCAK256 SWAP1 JUMPDEST DUP2 SLOAD DUP2 MSTORE SWAP1 PUSH1 0x1 ADD SWAP1 PUSH1 0x20 ADD DUP1 DUP4 GT PUSH2 0x29E1 JUMPI DUP3 SWAP1 SUB PUSH1 0x1F AND DUP3 ADD SWAP2 JUMPDEST POP POP POP POP POP DUP2 JUMP JUMPDEST PUSH1 0x0 PUSH1 0x6 PUSH1 0x0 DUP4 PUSH20 0xFFFFFFFFFFFFFFFFFFFFFFFFFFFFFFFFFFFFFFFF AND PUSH20 0xFFFFFFFFFFFFFFFFFFFFFFFFFFFFFFFFFFFFFFFF AND DUP2 MSTORE PUSH1 0x20 ADD SWAP1 DUP2 MSTORE PUSH1 0x20 ADD PUSH1 0x0 KECCAK256 PUSH1 0x0 SWAP1 SLOAD SWAP1 PUSH2 0x100 EXP SWAP1 DIV PUSH1 0xFF AND SWAP1 POP SWAP2 SWAP1 POP JUMP JUMPDEST PUSH1 0x0 DUP1 PUSH2 0x2AD5 PUSH1 0x1B SLOAD PUSH1 0x1C PUSH1 0x0 PUSH1 0x16 PUSH1 0x0 SWAP1 SLOAD SWAP1 PUSH2 0x100 EXP SWAP1 DIV PUSH20 0xFFFFFFFFFFFFFFFFFFFFFFFFFFFFFFFFFFFFFFFF AND PUSH20 0xFFFFFFFFFFFFFFFFFFFFFFFFFFFFFFFFFFFFFFFF AND PUSH20 0xFFFFFFFFFFFFFFFFFFFFFFFFFFFFFFFFFFFFFFFF AND DUP2 MSTORE PUSH1 0x20 ADD SWAP1 DUP2 MSTORE PUSH1 0x20 ADD PUSH1 0x0 KECCAK256 SLOAD PUSH2 0x2CEB SWAP1 SWAP2 SWAP1 PUSH4 0xFFFFFFFF AND JUMP JUMPDEST SWAP1 POP PUSH2 0x2B16 PUSH2 0x2AE2 PUSH2 0x177B JUMP JUMPDEST PUSH2 0x2B08 PUSH2 0x2AF9 PUSH1 0x2 DUP6 PUSH2 0x31C1 SWAP1 SWAP2 SWAP1 PUSH4 0xFFFFFFFF AND JUMP JUMPDEST DUP7 PUSH2 0x31C1 SWAP1 SWAP2 SWAP1 PUSH4 0xFFFFFFFF AND JUMP JUMPDEST PUSH2 0x2CEB SWAP1 SWAP2 SWAP1 PUSH4 0xFFFFFFFF AND JUMP JUMPDEST SWAP2 POP POP SWAP2 SWAP1 POP JUMP JUMPDEST PUSH1 0x0 PUSH1 0x1D PUSH1 0x0 DUP5 PUSH20 0xFFFFFFFFFFFFFFFFFFFFFFFFFFFFFFFFFFFFFFFF AND PUSH20 0xFFFFFFFFFFFFFFFFFFFFFFFFFFFFFFFFFFFFFFFF AND DUP2 MSTORE PUSH1 0x20 ADD SWAP1 DUP2 MSTORE PUSH1 0x20 ADD PUSH1 0x0 KECCAK256 PUSH1 0x0 DUP4 PUSH20 0xFFFFFFFFFFFFFFFFFFFFFFFFFFFFFFFFFFFFFFFF AND PUSH20 0xFFFFFFFFFFFFFFFFFFFFFFFFFFFFFFFFFFFFFFFF AND DUP2 MSTORE PUSH1 0x20 ADD SWAP1 DUP2 MSTORE PUSH1 0x20 ADD PUSH1 0x0 KECCAK256 SLOAD SWAP1 POP SWAP3 SWAP2 POP POP JUMP JUMPDEST PUSH2 0x2BAD PUSH2 0x1FFA JUMP JUMPDEST PUSH2 0x2BB6 JUMPI PUSH1 0x0 DUP1 REVERT JUMPDEST DUP1 ISZERO PUSH2 0x2BE2 JUMPI DUP1 PUSH1 0x16 PUSH1 0x15 PUSH2 0x100 EXP DUP2 SLOAD DUP2 PUSH1 0xFF MUL NOT AND SWAP1 DUP4 ISZERO ISZERO MUL OR SWAP1 SSTORE POP TIMESTAMP PUSH1 0x18 DUP2 SWAP1 SSTORE POP PUSH2 0x2BFD JUMP JUMPDEST DUP1 PUSH1 0x16 PUSH1 0x15 PUSH2 0x100 EXP DUP2 SLOAD DUP2 PUSH1 0xFF MUL NOT AND SWAP1 DUP4 ISZERO ISZERO MUL OR SWAP1 SSTORE POP JUMPDEST POP JUMP JUMPDEST PUSH2 0x2C08 PUSH2 0x1FFA JUMP JUMPDEST PUSH2 0x2C11 JUMPI PUSH1 0x0 DUP1 REVERT JUMPDEST PUSH2 0x2C1A DUP2 PUSH2 0x3247 JUMP JUMPDEST POP JUMP JUMPDEST PUSH1 0x15 PUSH1 0x0 SWAP1 SLOAD SWAP1 PUSH2 0x100 EXP SWAP1 DIV PUSH20 0xFFFFFFFFFFFFFFFFFFFFFFFFFFFFFFFFFFFFFFFF AND DUP2 JUMP JUMPDEST PUSH1 0x1E PUSH1 0x20 MSTORE DUP1 PUSH1 0x0 MSTORE PUSH1 0x40 PUSH1 0x0 KECCAK256 PUSH1 0x0 SWAP2 POP SLOAD SWAP1 PUSH2 0x100 EXP SWAP1 DIV PUSH1 0xFF AND DUP2 JUMP JUMPDEST PUSH1 0x0 DUP1 DUP3 DUP5 ADD SWAP1 POP DUP4 DUP2 LT ISZERO PUSH2 0x2CE1 JUMPI PUSH1 0x40 MLOAD PUSH32 0x8C379A000000000000000000000000000000000000000000000000000000000 DUP2 MSTORE PUSH1 0x4 ADD DUP1 DUP1 PUSH1 0x20 ADD DUP3 DUP2 SUB DUP3 MSTORE PUSH1 0x1B DUP2 MSTORE PUSH1 0x20 ADD DUP1 PUSH32 0x536166654D6174683A206164646974696F6E206F766572666C6F770000000000 DUP2 MSTORE POP PUSH1 0x20 ADD SWAP2 POP POP PUSH1 0x40 MLOAD DUP1 SWAP2 SUB SWAP1 REVERT JUMPDEST DUP1 SWAP2 POP POP SWAP3 SWAP2 POP POP JUMP JUMPDEST PUSH1 0x0 PUSH2 0x2D2D DUP4 DUP4 PUSH1 0x40 MLOAD DUP1 PUSH1 0x40 ADD PUSH1 0x40 MSTORE DUP1 PUSH1 0x1A DUP2 MSTORE PUSH1 0x20 ADD PUSH32 0x536166654D6174683A206469766973696F6E206279207A65726F000000000000 DUP2 MSTORE POP PUSH2 0x3341 JUMP JUMPDEST SWAP1 POP SWAP3 SWAP2 POP POP JUMP JUMPDEST PUSH1 0x0 DUP4 DUP4 GT ISZERO DUP3 SWAP1 PUSH2 0x2DE2 JUMPI PUSH1 0x40 MLOAD PUSH32 0x8C379A000000000000000000000000000000000000000000000000000000000 DUP2 MSTORE PUSH1 0x4 ADD DUP1 DUP1 PUSH1 0x20 ADD DUP3 DUP2 SUB DUP3 MSTORE DUP4 DUP2 DUP2 MLOAD DUP2 MSTORE PUSH1 0x20 ADD SWAP2 POP DUP1 MLOAD SWAP1 PUSH1 0x20 ADD SWAP1 DUP1 DUP4 DUP4 PUSH1 0x0 JUMPDEST DUP4 DUP2 LT ISZERO PUSH2 0x2DA7 JUMPI DUP1 DUP3 ADD MLOAD DUP2 DUP5 ADD MSTORE PUSH1 0x20 DUP2 ADD SWAP1 POP PUSH2 0x2D8C JUMP JUMPDEST POP POP POP POP SWAP1 POP SWAP1 DUP2 ADD SWAP1 PUSH1 0x1F AND DUP1 ISZERO PUSH2 0x2DD4 JUMPI DUP1 DUP3 SUB DUP1 MLOAD PUSH1 0x1 DUP4 PUSH1 0x20 SUB PUSH2 0x100 EXP SUB NOT AND DUP2 MSTORE PUSH1 0x20 ADD SWAP2 POP JUMPDEST POP SWAP3 POP POP POP PUSH1 0x40 MLOAD DUP1 SWAP2 SUB SWAP1 REVERT JUMPDEST POP PUSH1 0x0 DUP4 DUP6 SUB SWAP1 POP DUP1 SWAP2 POP POP SWAP4 SWAP3 POP POP POP JUMP JUMPDEST PUSH1 0x0 PUSH1 0x1E PUSH1 0x0 DUP6 PUSH20 0xFFFFFFFFFFFFFFFFFFFFFFFFFFFFFFFFFFFFFFFF AND PUSH20 0xFFFFFFFFFFFFFFFFFFFFFFFFFFFFFFFFFFFFFFFF AND DUP2 MSTORE PUSH1 0x20 ADD SWAP1 DUP2 MSTORE PUSH1 0x20 ADD PUSH1 0x0 KECCAK256 PUSH1 0x0 SWAP1 SLOAD SWAP1 PUSH2 0x100 EXP SWAP1 DIV PUSH1 0xFF AND ISZERO DUP1 ISZERO PUSH2 0x2E9B JUMPI POP PUSH1 0x1E PUSH1 0x0 DUP5 PUSH20 0xFFFFFFFFFFFFFFFFFFFFFFFFFFFFFFFFFFFFFFFF AND PUSH20 0xFFFFFFFFFFFFFFFFFFFFFFFFFFFFFFFFFFFFFFFF AND DUP2 MSTORE PUSH1 0x20 ADD SWAP1 DUP2 MSTORE PUSH1 0x20 ADD PUSH1 0x0 KECCAK256 PUSH1 0x0 SWAP1 SLOAD SWAP1 PUSH2 0x100 EXP SWAP1 DIV PUSH1 0xFF AND ISZERO JUMPDEST PUSH2 0x2F0D JUMPI PUSH1 0x40 MLOAD PUSH32 0x8C379A000000000000000000000000000000000000000000000000000000000 DUP2 MSTORE PUSH1 0x4 ADD DUP1 DUP1 PUSH1 0x20 ADD DUP3 DUP2 SUB DUP3 MSTORE PUSH1 0xC DUP2 MSTORE PUSH1 0x20 ADD DUP1 PUSH32 0x696E5F626C61636B6C6973740000000000000000000000000000000000000000 DUP2 MSTORE POP PUSH1 0x20 ADD SWAP2 POP POP PUSH1 0x40 MLOAD DUP1 SWAP2 SUB SWAP1 REVERT JUMPDEST PUSH1 0x16 PUSH1 0x14 SWAP1 SLOAD SWAP1 PUSH2 0x100 EXP SWAP1 DIV PUSH1 0xFF AND ISZERO PUSH2 0x2F34 JUMPI PUSH2 0x2F2D DUP5 DUP5 DUP5 PUSH2 0x3407 JUMP JUMPDEST SWAP1 POP PUSH2 0x315D JUMP JUMPDEST PUSH2 0x2F3C PUSH2 0x3557 JUMP JUMPDEST ISZERO PUSH2 0x2F4A JUMPI PUSH2 0x2F49 PUSH2 0x360A JUMP JUMPDEST JUMPDEST PUSH2 0x2F52 PUSH2 0x3845 JUMP JUMPDEST ISZERO PUSH2 0x2F60 JUMPI PUSH2 0x2F5F PUSH2 0x38E0 JUMP JUMPDEST JUMPDEST PUSH2 0x2F68 PUSH2 0x3F31 JUMP JUMPDEST ISZERO PUSH2 0x2F76 JUMPI PUSH2 0x2F75 PUSH2 0x3FA3 JUMP JUMPDEST JUMPDEST PUSH1 0x0 PUSH2 0x2F8D PUSH1 0x1B SLOAD DUP5 PUSH2 0x31C1 SWAP1 SWAP2 SWAP1 PUSH4 0xFFFFFFFF AND JUMP JUMPDEST SWAP1 POP PUSH2 0x2FE1 DUP2 PUSH1 0x1C PUSH1 0x0 DUP9 PUSH20 0xFFFFFFFFFFFFFFFFFFFFFFFFFFFFFFFFFFFFFFFF AND PUSH20 0xFFFFFFFFFFFFFFFFFFFFFFFFFFFFFFFFFFFFFFFF AND DUP2 MSTORE PUSH1 0x20 ADD SWAP1 DUP2 MSTORE PUSH1 0x20 ADD PUSH1 0x0 KECCAK256 SLOAD PUSH2 0x3164 SWAP1 SWAP2 SWAP1 PUSH4 0xFFFFFFFF AND JUMP JUMPDEST PUSH1 0x1C PUSH1 0x0 DUP8 PUSH20 0xFFFFFFFFFFFFFFFFFFFFFFFFFFFFFFFFFFFFFFFF AND PUSH20 0xFFFFFFFFFFFFFFFFFFFFFFFFFFFFFFFFFFFFFFFF AND DUP2 MSTORE PUSH1 0x20 ADD SWAP1 DUP2 MSTORE PUSH1 0x20 ADD PUSH1 0x0 KECCAK256 DUP2 SWAP1 SSTORE POP PUSH1 0x0 PUSH2 0x3030 DUP7 DUP7 PUSH2 0x447F JUMP JUMPDEST PUSH2 0x303A JUMPI DUP2 PUSH2 0x3046 JUMP JUMPDEST PUSH2 0x3045 DUP7 DUP7 DUP5 PUSH2 0x4588 JUMP JUMPDEST JUMPDEST SWAP1 POP PUSH2 0x309A DUP2 PUSH1 0x1C PUSH1 0x0 DUP9 PUSH20 0xFFFFFFFFFFFFFFFFFFFFFFFFFFFFFFFFFFFFFFFF AND PUSH20 0xFFFFFFFFFFFFFFFFFFFFFFFFFFFFFFFFFFFFFFFF AND DUP2 MSTORE PUSH1 0x20 ADD SWAP1 DUP2 MSTORE PUSH1 0x20 ADD PUSH1 0x0 KECCAK256 SLOAD PUSH2 0x2C63 SWAP1 SWAP2 SWAP1 PUSH4 0xFFFFFFFF AND JUMP JUMPDEST PUSH1 0x1C PUSH1 0x0 DUP8 PUSH20 0xFFFFFFFFFFFFFFFFFFFFFFFFFFFFFFFFFFFFFFFF AND PUSH20 0xFFFFFFFFFFFFFFFFFFFFFFFFFFFFFFFFFFFFFFFF AND DUP2 MSTORE PUSH1 0x20 ADD SWAP1 DUP2 MSTORE PUSH1 0x20 ADD PUSH1 0x0 KECCAK256 DUP2 SWAP1 SSTORE POP DUP5 PUSH20 0xFFFFFFFFFFFFFFFFFFFFFFFFFFFFFFFFFFFFFFFF AND DUP7 PUSH20 0xFFFFFFFFFFFFFFFFFFFFFFFFFFFFFFFFFFFFFFFF AND PUSH32 0xDDF252AD1BE2C89B69C2B068FC378DAA952BA7F163C4A11628F55A4DF523B3EF PUSH2 0x3141 PUSH1 0x1B SLOAD DUP6 PUSH2 0x2CEB SWAP1 SWAP2 SWAP1 PUSH4 0xFFFFFFFF AND JUMP JUMPDEST PUSH1 0x40 MLOAD DUP1 DUP3 DUP2 MSTORE PUSH1 0x20 ADD SWAP2 POP POP PUSH1 0x40 MLOAD DUP1 SWAP2 SUB SWAP1 LOG3 PUSH1 0x1 SWAP3 POP POP POP JUMPDEST SWAP4 SWAP3 POP POP POP JUMP JUMPDEST PUSH1 0x0 PUSH2 0x31A6 DUP4 DUP4 PUSH1 0x40 MLOAD DUP1 PUSH1 0x40 ADD PUSH1 0x40 MSTORE DUP1 PUSH1 0x1E DUP2 MSTORE PUSH1 0x20 ADD PUSH32 0x536166654D6174683A207375627472616374696F6E206F766572666C6F770000 DUP2 MSTORE POP PUSH2 0x2D35 JUMP JUMPDEST SWAP1 POP SWAP3 SWAP2 POP POP JUMP JUMPDEST PUSH1 0x0 DUP1 DUP3 EXTCODESIZE SWAP1 POP PUSH1 0x0 DUP2 GT SWAP2 POP POP SWAP2 SWAP1 POP JUMP JUMPDEST PUSH1 0x0 DUP1 DUP4 EQ ISZERO PUSH2 0x31D4 JUMPI PUSH1 0x0 SWAP1 POP PUSH2 0x3241 JUMP JUMPDEST PUSH1 0x0 DUP3 DUP5 MUL SWAP1 POP DUP3 DUP5 DUP3 DUP2 PUSH2 0x31E5 JUMPI INVALID JUMPDEST DIV EQ PUSH2 0x323C JUMPI PUSH1 0x40 MLOAD PUSH32 0x8C379A000000000000000000000000000000000000000000000000000000000 DUP2 MSTORE PUSH1 0x4 ADD DUP1 DUP1 PUSH1 0x20 ADD DUP3 DUP2 SUB DUP3 MSTORE PUSH1 0x21 DUP2 MSTORE PUSH1 0x20 ADD DUP1 PUSH2 0x49E8 PUSH1 0x21 SWAP2 CODECOPY PUSH1 0x40 ADD SWAP2 POP POP PUSH1 0x40 MLOAD DUP1 SWAP2 SUB SWAP1 REVERT JUMPDEST DUP1 SWAP2 POP POP JUMPDEST SWAP3 SWAP2 POP POP JUMP JUMPDEST PUSH1 0x0 PUSH20 0xFFFFFFFFFFFFFFFFFFFFFFFFFFFFFFFFFFFFFFFF AND DUP2 PUSH20 0xFFFFFFFFFFFFFFFFFFFFFFFFFFFFFFFFFFFFFFFF AND EQ ISZERO PUSH2 0x3281 JUMPI PUSH1 0x0 DUP1 REVERT JUMPDEST DUP1 PUSH20 0xFFFFFFFFFFFFFFFFFFFFFFFFFFFFFFFFFFFFFFFF AND PUSH1 0x2 PUSH1 0x1 SWAP1 SLOAD SWAP1 PUSH2 0x100 EXP SWAP1 DIV PUSH20 0xFFFFFFFFFFFFFFFFFFFFFFFFFFFFFFFFFFFFFFFF AND PUSH20 0xFFFFFFFFFFFFFFFFFFFFFFFFFFFFFFFFFFFFFFFF AND PUSH32 0x8BE0079C531659141344CD1FD0A4F28419497F9722A3DAAFE3B4186F6B6457E0 PUSH1 0x40 MLOAD PUSH1 0x40 MLOAD DUP1 SWAP2 SUB SWAP1 LOG3 DUP1 PUSH1 0x2 PUSH1 0x1 PUSH2 0x100 EXP DUP2 SLOAD DUP2 PUSH20 0xFFFFFFFFFFFFFFFFFFFFFFFFFFFFFFFFFFFFFFFF MUL NOT AND SWAP1 DUP4 PUSH20 0xFFFFFFFFFFFFFFFFFFFFFFFFFFFFFFFFFFFFFFFF AND MUL OR SWAP1 SSTORE POP POP JUMP JUMPDEST PUSH1 0x0 DUP1 DUP4 GT DUP3 SWAP1 PUSH2 0x33ED JUMPI PUSH1 0x40 MLOAD PUSH32 0x8C379A000000000000000000000000000000000000000000000000000000000 DUP2 MSTORE PUSH1 0x4 ADD DUP1 DUP1 PUSH1 0x20 ADD DUP3 DUP2 SUB DUP3 MSTORE DUP4 DUP2 DUP2 MLOAD DUP2 MSTORE PUSH1 0x20 ADD SWAP2 POP DUP1 MLOAD SWAP1 PUSH1 0x20 ADD SWAP1 DUP1 DUP4 DUP4 PUSH1 0x0 JUMPDEST DUP4 DUP2 LT ISZERO PUSH2 0x33B2 JUMPI DUP1 DUP3 ADD MLOAD DUP2 DUP5 ADD MSTORE PUSH1 0x20 DUP2 ADD SWAP1 POP PUSH2 0x3397 JUMP JUMPDEST POP POP POP POP SWAP1 POP SWAP1 DUP2 ADD SWAP1 PUSH1 0x1F AND DUP1 ISZERO PUSH2 0x33DF JUMPI DUP1 DUP3 SUB DUP1 MLOAD PUSH1 0x1 DUP4 PUSH1 0x20 SUB PUSH2 0x100 EXP SUB NOT AND DUP2 MSTORE PUSH1 0x20 ADD SWAP2 POP JUMPDEST POP SWAP3 POP POP POP PUSH1 0x40 MLOAD DUP1 SWAP2 SUB SWAP1 REVERT JUMPDEST POP PUSH1 0x0 DUP4 DUP6 DUP2 PUSH2 0x33F9 JUMPI INVALID JUMPDEST DIV SWAP1 POP DUP1 SWAP2 POP POP SWAP4 SWAP3 POP POP POP JUMP JUMPDEST PUSH1 0x0 DUP1 PUSH2 0x341F PUSH1 0x1B SLOAD DUP5 PUSH2 0x31C1 SWAP1 SWAP2 SWAP1 PUSH4 0xFFFFFFFF AND JUMP JUMPDEST SWAP1 POP PUSH2 0x3473 DUP2 PUSH1 0x1C PUSH1 0x0 DUP9 PUSH20 0xFFFFFFFFFFFFFFFFFFFFFFFFFFFFFFFFFFFFFFFF AND PUSH20 0xFFFFFFFFFFFFFFFFFFFFFFFFFFFFFFFFFFFFFFFF AND DUP2 MSTORE PUSH1 0x20 ADD SWAP1 DUP2 MSTORE PUSH1 0x20 ADD PUSH1 0x0 KECCAK256 SLOAD PUSH2 0x3164 SWAP1 SWAP2 SWAP1 PUSH4 0xFFFFFFFF AND JUMP JUMPDEST PUSH1 0x1C PUSH1 0x0 DUP8 PUSH20 0xFFFFFFFFFFFFFFFFFFFFFFFFFFFFFFFFFFFFFFFF AND PUSH20 0xFFFFFFFFFFFFFFFFFFFFFFFFFFFFFFFFFFFFFFFF AND DUP2 MSTORE PUSH1 0x20 ADD SWAP1 DUP2 MSTORE PUSH1 0x20 ADD PUSH1 0x0 KECCAK256 DUP2 SWAP1 SSTORE POP PUSH2 0x3508 DUP2 PUSH1 0x1C PUSH1 0x0 DUP8 PUSH20 0xFFFFFFFFFFFFFFFFFFFFFFFFFFFFFFFFFFFFFFFF AND PUSH20 0xFFFFFFFFFFFFFFFFFFFFFFFFFFFFFFFFFFFFFFFF AND DUP2 MSTORE PUSH1 0x20 ADD SWAP1 DUP2 MSTORE PUSH1 0x20 ADD PUSH1 0x0 KECCAK256 SLOAD PUSH2 0x2C63 SWAP1 SWAP2 SWAP1 PUSH4 0xFFFFFFFF AND JUMP JUMPDEST PUSH1 0x1C PUSH1 0x0 DUP7 PUSH20 0xFFFFFFFFFFFFFFFFFFFFFFFFFFFFFFFFFFFFFFFF AND PUSH20 0xFFFFFFFFFFFFFFFFFFFFFFFFFFFFFFFFFFFFFFFF AND DUP2 MSTORE PUSH1 0x20 ADD SWAP1 DUP2 MSTORE PUSH1 0x20 ADD PUSH1 0x0 KECCAK256 DUP2 SWAP1 SSTORE POP PUSH1 0x1 SWAP2 POP POP SWAP4 SWAP3 POP POP POP JUMP JUMPDEST PUSH1 0x0 PUSH1 0x16 PUSH1 0x15 SWAP1 SLOAD SWAP1 PUSH2 0x100 EXP SWAP1 DIV PUSH1 0xFF AND DUP1 ISZERO PUSH2 0x3580 JUMPI POP PUSH1 0x5 PUSH1 0xA EXP PUSH4 0xC1B71080 MUL PUSH1 0x1A SLOAD LT JUMPDEST DUP1 ISZERO PUSH2 0x35DA JUMPI POP PUSH1 0x16 PUSH1 0x0 SWAP1 SLOAD SWAP1 PUSH2 0x100 EXP SWAP1 DIV PUSH20 0xFFFFFFFFFFFFFFFFFFFFFFFFFFFFFFFFFFFFFFFF AND PUSH20 0xFFFFFFFFFFFFFFFFFFFFFFFFFFFFFFFFFFFFFFFF AND CALLER PUSH20 0xFFFFFFFFFFFFFFFFFFFFFFFFFFFFFFFFFFFFFFFF AND EQ ISZERO JUMPDEST DUP1 ISZERO PUSH2 0x35F3 JUMPI POP PUSH1 0x16 PUSH1 0x14 SWAP1 SLOAD SWAP1 PUSH2 0x100 EXP SWAP1 DIV PUSH1 0xFF AND ISZERO JUMPDEST DUP1 ISZERO PUSH2 0x3605 JUMPI POP PUSH2 0x384 PUSH1 0x18 SLOAD ADD TIMESTAMP LT ISZERO JUMPDEST SWAP1 POP SWAP1 JUMP JUMPDEST PUSH1 0x16 PUSH1 0x14 SWAP1 SLOAD SWAP1 PUSH2 0x100 EXP SWAP1 DIV PUSH1 0xFF AND ISZERO PUSH2 0x3624 JUMPI PUSH2 0x3843 JUMP JUMPDEST PUSH1 0x0 DUP1 PUSH1 0x17 SLOAD TIMESTAMP SUB SWAP1 POP PUSH1 0x0 PUSH1 0x18 SLOAD TIMESTAMP SUB SWAP1 POP PUSH1 0x0 PUSH2 0x364E PUSH2 0x384 DUP4 PUSH2 0x2CEB SWAP1 SWAP2 SWAP1 PUSH4 0xFFFFFFFF AND JUMP JUMPDEST SWAP1 POP PUSH1 0x0 PUSH2 0x3666 PUSH1 0xF DUP4 PUSH2 0x31C1 SWAP1 SWAP2 SWAP1 PUSH4 0xFFFFFFFF AND JUMP JUMPDEST SWAP1 POP PUSH4 0x1E13380 DUP5 LT ISZERO PUSH2 0x367E JUMPI PUSH2 0x933 SWAP5 POP PUSH2 0x36B9 JUMP JUMPDEST PUSH4 0x1E13380 DUP5 LT PUSH2 0x3692 JUMPI PUSH1 0xD3 SWAP5 POP PUSH2 0x36B8 JUMP JUMPDEST PUSH4 0x2D1CD40 DUP5 LT PUSH2 0x36A6 JUMPI PUSH1 0xE SWAP5 POP PUSH2 0x36B7 JUMP JUMPDEST PUSH4 0xD286880 DUP5 LT PUSH2 0x36B6 JUMPI PUSH1 0x2 SWAP5 POP JUMPDEST JUMPDEST JUMPDEST JUMPDEST PUSH1 0x0 JUMPDEST DUP3 DUP2 LT ISZERO PUSH2 0x371E JUMPI PUSH2 0x370B PUSH1 0x7 PUSH1 0xFF AND PUSH1 0xA EXP PUSH2 0x36FD PUSH2 0x36EC DUP10 PUSH1 0x7 PUSH1 0xFF AND PUSH1 0xA EXP PUSH2 0x2C63 SWAP1 SWAP2 SWAP1 PUSH4 0xFFFFFFFF AND JUMP JUMPDEST PUSH1 0x1A SLOAD PUSH2 0x31C1 SWAP1 SWAP2 SWAP1 PUSH4 0xFFFFFFFF AND JUMP JUMPDEST PUSH2 0x2CEB SWAP1 SWAP2 SWAP1 PUSH4 0xFFFFFFFF AND JUMP JUMPDEST PUSH1 0x1A DUP2 SWAP1 SSTORE POP DUP1 DUP1 PUSH1 0x1 ADD SWAP2 POP POP PUSH2 0x36BC JUMP JUMPDEST POP PUSH2 0x374C PUSH1 0x1A SLOAD PUSH1 0x5 PUSH1 0xA EXP PUSH3 0x4F588 MUL PUSH1 0x0 NOT DUP2 PUSH2 0x3739 JUMPI INVALID JUMPDEST MOD PUSH1 0x0 NOT SUB PUSH2 0x2CEB SWAP1 SWAP2 SWAP1 PUSH4 0xFFFFFFFF AND JUMP JUMPDEST PUSH1 0x1B DUP2 SWAP1 SSTORE POP PUSH2 0x377B PUSH2 0x376A PUSH2 0x384 DUP5 PUSH2 0x31C1 SWAP1 SWAP2 SWAP1 PUSH4 0xFFFFFFFF AND JUMP JUMPDEST PUSH1 0x18 SLOAD PUSH2 0x2C63 SWAP1 SWAP2 SWAP1 PUSH4 0xFFFFFFFF AND JUMP JUMPDEST PUSH1 0x18 DUP2 SWAP1 SSTORE POP PUSH1 0x5 PUSH1 0x1 SWAP1 SLOAD SWAP1 PUSH2 0x100 EXP SWAP1 DIV PUSH20 0xFFFFFFFFFFFFFFFFFFFFFFFFFFFFFFFFFFFFFFFF AND PUSH20 0xFFFFFFFFFFFFFFFFFFFFFFFFFFFFFFFFFFFFFFFF AND PUSH4 0xFFF6CAE9 PUSH1 0x40 MLOAD DUP2 PUSH4 0xFFFFFFFF AND PUSH1 0xE0 SHL DUP2 MSTORE PUSH1 0x4 ADD PUSH1 0x0 PUSH1 0x40 MLOAD DUP1 DUP4 SUB DUP2 PUSH1 0x0 DUP8 DUP1 EXTCODESIZE ISZERO DUP1 ISZERO PUSH2 0x37EB JUMPI PUSH1 0x0 DUP1 REVERT JUMPDEST POP GAS CALL ISZERO DUP1 ISZERO PUSH2 0x37FF JUMPI RETURNDATASIZE PUSH1 0x0 DUP1 RETURNDATACOPY RETURNDATASIZE PUSH1 0x0 REVERT JUMPDEST POP POP POP POP DUP1 PUSH32 0x72725A3B1E5BD622D6BCD1339BB31279C351ABE8F541AC7FD320F24E1B1641F2 PUSH1 0x1A SLOAD PUSH1 0x40 MLOAD DUP1 DUP3 DUP2 MSTORE PUSH1 0x20 ADD SWAP2 POP POP PUSH1 0x40 MLOAD DUP1 SWAP2 SUB SWAP1 LOG2 POP POP POP POP POP JUMPDEST JUMP JUMPDEST PUSH1 0x0 PUSH1 0x16 DUP1 SLOAD SWAP1 PUSH2 0x100 EXP SWAP1 DIV PUSH1 0xFF AND DUP1 ISZERO PUSH2 0x386E JUMPI POP PUSH1 0x16 PUSH1 0x14 SWAP1 SLOAD SWAP1 PUSH2 0x100 EXP SWAP1 DIV PUSH1 0xFF AND ISZERO JUMPDEST DUP1 ISZERO PUSH2 0x38C8 JUMPI POP PUSH1 0x16 PUSH1 0x0 SWAP1 SLOAD SWAP1 PUSH2 0x100 EXP SWAP1 DIV PUSH20 0xFFFFFFFFFFFFFFFFFFFFFFFFFFFFFFFFFFFFFFFF AND PUSH20 0xFFFFFFFFFFFFFFFFFFFFFFFFFFFFFFFFFFFFFFFF AND CALLER PUSH20 0xFFFFFFFFFFFFFFFFFFFFFFFFFFFFFFFFFFFFFFFF AND EQ ISZERO JUMPDEST DUP1 ISZERO PUSH2 0x38DB JUMPI POP PUSH3 0x2A300 PUSH1 0x19 SLOAD ADD TIMESTAMP LT ISZERO JUMPDEST SWAP1 POP SWAP1 JUMP JUMPDEST PUSH1 0x1 PUSH1 0x16 PUSH1 0x14 PUSH2 0x100 EXP DUP2 SLOAD DUP2 PUSH1 0xFF MUL NOT AND SWAP1 DUP4 ISZERO ISZERO MUL OR SWAP1 SSTORE POP PUSH1 0x0 PUSH2 0x3973 PUSH1 0x1B SLOAD PUSH1 0x1C PUSH1 0x0 PUSH1 0x10 PUSH1 0x0 SWAP1 SLOAD SWAP1 PUSH2 0x100 EXP SWAP1 DIV PUSH20 0xFFFFFFFFFFFFFFFFFFFFFFFFFFFFFFFFFFFFFFFF AND PUSH20 0xFFFFFFFFFFFFFFFFFFFFFFFFFFFFFFFFFFFFFFFF AND PUSH20 0xFFFFFFFFFFFFFFFFFFFFFFFFFFFFFFFFFFFFFFFF AND DUP2 MSTORE PUSH1 0x20 ADD SWAP1 DUP2 MSTORE PUSH1 0x20 ADD PUSH1 0x0 KECCAK256 SLOAD PUSH2 0x2CEB SWAP1 SWAP2 SWAP1 PUSH4 0xFFFFFFFF AND JUMP JUMPDEST SWAP1 POP PUSH2 0x3A28 PUSH1 0x1C PUSH1 0x0 PUSH1 0x10 PUSH1 0x0 SWAP1 SLOAD SWAP1 PUSH2 0x100 EXP SWAP1 DIV PUSH20 0xFFFFFFFFFFFFFFFFFFFFFFFFFFFFFFFFFFFFFFFF AND PUSH20 0xFFFFFFFFFFFFFFFFFFFFFFFFFFFFFFFFFFFFFFFF AND PUSH20 0xFFFFFFFFFFFFFFFFFFFFFFFFFFFFFFFFFFFFFFFF AND DUP2 MSTORE PUSH1 0x20 ADD SWAP1 DUP2 MSTORE PUSH1 0x20 ADD PUSH1 0x0 KECCAK256 SLOAD PUSH1 0x1C PUSH1 0x0 ADDRESS PUSH20 0xFFFFFFFFFFFFFFFFFFFFFFFFFFFFFFFFFFFFFFFF AND PUSH20 0xFFFFFFFFFFFFFFFFFFFFFFFFFFFFFFFFFFFFFFFF AND DUP2 MSTORE PUSH1 0x20 ADD SWAP1 DUP2 MSTORE PUSH1 0x20 ADD PUSH1 0x0 KECCAK256 SLOAD PUSH2 0x2C63 SWAP1 SWAP2 SWAP1 PUSH4 0xFFFFFFFF AND JUMP JUMPDEST PUSH1 0x1C PUSH1 0x0 ADDRESS PUSH20 0xFFFFFFFFFFFFFFFFFFFFFFFFFFFFFFFFFFFFFFFF AND PUSH20 0xFFFFFFFFFFFFFFFFFFFFFFFFFFFFFFFFFFFFFFFF AND DUP2 MSTORE PUSH1 0x20 ADD SWAP1 DUP2 MSTORE PUSH1 0x20 ADD PUSH1 0x0 KECCAK256 DUP2 SWAP1 SSTORE POP PUSH1 0x0 PUSH1 0x1C PUSH1 0x0 PUSH1 0x10 PUSH1 0x0 SWAP1 SLOAD SWAP1 PUSH2 0x100 EXP SWAP1 DIV PUSH20 0xFFFFFFFFFFFFFFFFFFFFFFFFFFFFFFFFFFFFFFFF AND PUSH20 0xFFFFFFFFFFFFFFFFFFFFFFFFFFFFFFFFFFFFFFFF AND PUSH20 0xFFFFFFFFFFFFFFFFFFFFFFFFFFFFFFFFFFFFFFFF AND DUP2 MSTORE PUSH1 0x20 ADD SWAP1 DUP2 MSTORE PUSH1 0x20 ADD PUSH1 0x0 KECCAK256 DUP2 SWAP1 SSTORE POP PUSH1 0x0 PUSH2 0x3AE8 PUSH1 0x2 DUP4 PUSH2 0x2CEB SWAP1 SWAP2 SWAP1 PUSH4 0xFFFFFFFF AND JUMP JUMPDEST SWAP1 POP PUSH1 0x0 PUSH2 0x3AFF DUP3 DUP5 PUSH2 0x3164 SWAP1 SWAP2 SWAP1 PUSH4 0xFFFFFFFF AND JUMP JUMPDEST SWAP1 POP PUSH1 0x0 DUP2 EQ ISZERO PUSH2 0x3B12 JUMPI POP POP POP PUSH2 0x3F14 JUMP JUMPDEST PUSH1 0x60 PUSH1 0x2 PUSH8 0xFFFFFFFFFFFFFFFF DUP2 GT DUP1 ISZERO PUSH2 0x3B2C JUMPI PUSH1 0x0 DUP1 REVERT JUMPDEST POP PUSH1 0x40 MLOAD SWAP1 DUP1 DUP3 MSTORE DUP1 PUSH1 0x20 MUL PUSH1 0x20 ADD DUP3 ADD PUSH1 0x40 MSTORE DUP1 ISZERO PUSH2 0x3B5B JUMPI DUP2 PUSH1 0x20 ADD PUSH1 0x20 DUP3 MUL DUP1 CALLDATASIZE DUP4 CALLDATACOPY DUP1 DUP3 ADD SWAP2 POP POP SWAP1 POP JUMPDEST POP SWAP1 POP ADDRESS DUP2 PUSH1 0x0 DUP2 MLOAD DUP2 LT PUSH2 0x3B6C JUMPI INVALID JUMPDEST PUSH1 0x20 MUL PUSH1 0x20 ADD ADD SWAP1 PUSH20 0xFFFFFFFFFFFFFFFFFFFFFFFFFFFFFFFFFFFFFFFF AND SWAP1 DUP2 PUSH20 0xFFFFFFFFFFFFFFFFFFFFFFFFFFFFFFFFFFFFFFFF AND DUP2 MSTORE POP POP PUSH1 0x15 PUSH1 0x0 SWAP1 SLOAD SWAP1 PUSH2 0x100 EXP SWAP1 DIV PUSH20 0xFFFFFFFFFFFFFFFFFFFFFFFFFFFFFFFFFFFFFFFF AND PUSH20 0xFFFFFFFFFFFFFFFFFFFFFFFFFFFFFFFFFFFFFFFF AND PUSH4 0xAD5C4648 PUSH1 0x40 MLOAD DUP2 PUSH4 0xFFFFFFFF AND PUSH1 0xE0 SHL DUP2 MSTORE PUSH1 0x4 ADD PUSH1 0x20 PUSH1 0x40 MLOAD DUP1 DUP4 SUB DUP2 DUP7 DUP1 EXTCODESIZE ISZERO DUP1 ISZERO PUSH2 0x3C0E JUMPI PUSH1 0x0 DUP1 REVERT JUMPDEST POP GAS STATICCALL ISZERO DUP1 ISZERO PUSH2 0x3C22 JUMPI RETURNDATASIZE PUSH1 0x0 DUP1 RETURNDATACOPY RETURNDATASIZE PUSH1 0x0 REVERT JUMPDEST POP POP POP POP PUSH1 0x40 MLOAD RETURNDATASIZE PUSH1 0x20 DUP2 LT ISZERO PUSH2 0x3C38 JUMPI PUSH1 0x0 DUP1 REVERT JUMPDEST DUP2 ADD SWAP1 DUP1 DUP1 MLOAD SWAP1 PUSH1 0x20 ADD SWAP1 SWAP3 SWAP2 SWAP1 POP POP POP DUP2 PUSH1 0x1 DUP2 MLOAD DUP2 LT PUSH2 0x3C56 JUMPI INVALID JUMPDEST PUSH1 0x20 MUL PUSH1 0x20 ADD ADD SWAP1 PUSH20 0xFFFFFFFFFFFFFFFFFFFFFFFFFFFFFFFFFFFFFFFF AND SWAP1 DUP2 PUSH20 0xFFFFFFFFFFFFFFFFFFFFFFFFFFFFFFFFFFFFFFFF AND DUP2 MSTORE POP POP PUSH1 0x0 SELFBALANCE SWAP1 POP PUSH1 0x15 PUSH1 0x0 SWAP1 SLOAD SWAP1 PUSH2 0x100 EXP SWAP1 DIV PUSH20 0xFFFFFFFFFFFFFFFFFFFFFFFFFFFFFFFFFFFFFFFF AND PUSH20 0xFFFFFFFFFFFFFFFFFFFFFFFFFFFFFFFFFFFFFFFF AND PUSH4 0x791AC947 DUP5 PUSH1 0x0 DUP6 ADDRESS TIMESTAMP PUSH1 0x40 MLOAD DUP7 PUSH4 0xFFFFFFFF AND PUSH1 0xE0 SHL DUP2 MSTORE PUSH1 0x4 ADD DUP1 DUP7 DUP2 MSTORE PUSH1 0x20 ADD DUP6 DUP2 MSTORE PUSH1 0x20 ADD DUP1 PUSH1 0x20 ADD DUP5 PUSH20 0xFFFFFFFFFFFFFFFFFFFFFFFFFFFFFFFFFFFFFFFF AND DUP2 MSTORE PUSH1 0x20 ADD DUP4 DUP2 MSTORE PUSH1 0x20 ADD DUP3 DUP2 SUB DUP3 MSTORE DUP6 DUP2 DUP2 MLOAD DUP2 MSTORE PUSH1 0x20 ADD SWAP2 POP DUP1 MLOAD SWAP1 PUSH1 0x20 ADD SWAP1 PUSH1 0x20 MUL DUP1 DUP4 DUP4 PUSH1 0x0 JUMPDEST DUP4 DUP2 LT ISZERO PUSH2 0x3D59 JUMPI DUP1 DUP3 ADD MLOAD DUP2 DUP5 ADD MSTORE PUSH1 0x20 DUP2 ADD SWAP1 POP PUSH2 0x3D3E JUMP JUMPDEST POP POP POP POP SWAP1 POP ADD SWAP7 POP POP POP POP POP POP POP PUSH1 0x0 PUSH1 0x40 MLOAD DUP1 DUP4 SUB DUP2 PUSH1 0x0 DUP8 DUP1 EXTCODESIZE ISZERO DUP1 ISZERO PUSH2 0x3D82 JUMPI PUSH1 0x0 DUP1 REVERT JUMPDEST POP GAS CALL ISZERO DUP1 ISZERO PUSH2 0x3D96 JUMPI RETURNDATASIZE PUSH1 0x0 DUP1 RETURNDATACOPY RETURNDATASIZE PUSH1 0x0 REVERT JUMPDEST POP POP POP POP PUSH1 0x0 PUSH2 0x3DAF DUP3 SELFBALANCE PUSH2 0x3164 SWAP1 SWAP2 SWAP1 PUSH4 0xFFFFFFFF AND JUMP JUMPDEST SWAP1 POP PUSH1 0x0 DUP6 GT DUP1 ISZERO PUSH2 0x3DC1 JUMPI POP PUSH1 0x0 DUP2 GT JUMPDEST ISZERO PUSH2 0x3F06 JUMPI PUSH1 0x15 PUSH1 0x0 SWAP1 SLOAD SWAP1 PUSH2 0x100 EXP SWAP1 DIV PUSH20 0xFFFFFFFFFFFFFFFFFFFFFFFFFFFFFFFFFFFFFFFF AND PUSH20 0xFFFFFFFFFFFFFFFFFFFFFFFFFFFFFFFFFFFFFFFF AND PUSH4 0xF305D719 DUP3 ADDRESS DUP9 PUSH1 0x0 DUP1 PUSH1 0x10 PUSH1 0x0 SWAP1 SLOAD SWAP1 PUSH2 0x100 EXP SWAP1 DIV PUSH20 0xFFFFFFFFFFFFFFFFFFFFFFFFFFFFFFFFFFFFFFFF AND TIMESTAMP PUSH1 0x40 MLOAD DUP9 PUSH4 0xFFFFFFFF AND PUSH1 0xE0 SHL DUP2 MSTORE PUSH1 0x4 ADD DUP1 DUP8 PUSH20 0xFFFFFFFFFFFFFFFFFFFFFFFFFFFFFFFFFFFFFFFF AND DUP2 MSTORE PUSH1 0x20 ADD DUP7 DUP2 MSTORE PUSH1 0x20 ADD DUP6 DUP2 MSTORE PUSH1 0x20 ADD DUP5 DUP2 MSTORE PUSH1 0x20 ADD DUP4 PUSH20 0xFFFFFFFFFFFFFFFFFFFFFFFFFFFFFFFFFFFFFFFF AND DUP2 MSTORE PUSH1 0x20 ADD DUP3 DUP2 MSTORE PUSH1 0x20 ADD SWAP7 POP POP POP POP POP POP POP PUSH1 0x60 PUSH1 0x40 MLOAD DUP1 DUP4 SUB DUP2 DUP6 DUP9 DUP1 EXTCODESIZE ISZERO DUP1 ISZERO PUSH2 0x3EB2 JUMPI PUSH1 0x0 DUP1 REVERT JUMPDEST POP GAS CALL ISZERO DUP1 ISZERO PUSH2 0x3EC6 JUMPI RETURNDATASIZE PUSH1 0x0 DUP1 RETURNDATACOPY RETURNDATASIZE PUSH1 0x0 REVERT JUMPDEST POP POP POP POP POP PUSH1 0x40 MLOAD RETURNDATASIZE PUSH1 0x60 DUP2 LT ISZERO PUSH2 0x3EDD JUMPI PUSH1 0x0 DUP1 REVERT JUMPDEST DUP2 ADD SWAP1 DUP1 DUP1 MLOAD SWAP1 PUSH1 0x20 ADD SWAP1 SWAP3 SWAP2 SWAP1 DUP1 MLOAD SWAP1 PUSH1 0x20 ADD SWAP1 SWAP3 SWAP2 SWAP1 DUP1 MLOAD SWAP1 PUSH1 0x20 ADD SWAP1 SWAP3 SWAP2 SWAP1 POP POP POP POP POP POP JUMPDEST TIMESTAMP PUSH1 0x19 DUP2 SWAP1 SSTORE POP POP POP POP POP POP POP JUMPDEST PUSH1 0x0 PUSH1 0x16 PUSH1 0x14 PUSH2 0x100 EXP DUP2 SLOAD DUP2 PUSH1 0xFF MUL NOT AND SWAP1 DUP4 ISZERO ISZERO MUL OR SWAP1 SSTORE POP JUMP JUMPDEST PUSH1 0x0 PUSH1 0x16 PUSH1 0x14 SWAP1 SLOAD SWAP1 PUSH2 0x100 EXP SWAP1 DIV PUSH1 0xFF AND ISZERO DUP1 ISZERO PUSH2 0x3F9E JUMPI POP PUSH1 0x16 PUSH1 0x0 SWAP1 SLOAD SWAP1 PUSH2 0x100 EXP SWAP1 DIV PUSH20 0xFFFFFFFFFFFFFFFFFFFFFFFFFFFFFFFFFFFFFFFF AND PUSH20 0xFFFFFFFFFFFFFFFFFFFFFFFFFFFFFFFFFFFFFFFF AND CALLER PUSH20 0xFFFFFFFFFFFFFFFFFFFFFFFFFFFFFFFFFFFFFFFF AND EQ ISZERO JUMPDEST SWAP1 POP SWAP1 JUMP JUMPDEST PUSH1 0x1 PUSH1 0x16 PUSH1 0x14 PUSH2 0x100 EXP DUP2 SLOAD DUP2 PUSH1 0xFF MUL NOT AND SWAP1 DUP4 ISZERO ISZERO MUL OR SWAP1 SSTORE POP PUSH1 0x0 PUSH2 0x4014 PUSH1 0x1B SLOAD PUSH1 0x1C PUSH1 0x0 ADDRESS PUSH20 0xFFFFFFFFFFFFFFFFFFFFFFFFFFFFFFFFFFFFFFFF AND PUSH20 0xFFFFFFFFFFFFFFFFFFFFFFFFFFFFFFFFFFFFFFFF AND DUP2 MSTORE PUSH1 0x20 ADD SWAP1 DUP2 MSTORE PUSH1 0x20 ADD PUSH1 0x0 KECCAK256 SLOAD PUSH2 0x2CEB SWAP1 SWAP2 SWAP1 PUSH4 0xFFFFFFFF AND JUMP JUMPDEST SWAP1 POP PUSH1 0x0 DUP2 EQ ISZERO PUSH2 0x4025 JUMPI POP PUSH2 0x4462 JUMP JUMPDEST PUSH1 0x0 SELFBALANCE SWAP1 POP PUSH1 0x60 PUSH1 0x2 PUSH8 0xFFFFFFFFFFFFFFFF DUP2 GT DUP1 ISZERO PUSH2 0x4044 JUMPI PUSH1 0x0 DUP1 REVERT JUMPDEST POP PUSH1 0x40 MLOAD SWAP1 DUP1 DUP3 MSTORE DUP1 PUSH1 0x20 MUL PUSH1 0x20 ADD DUP3 ADD PUSH1 0x40 MSTORE DUP1 ISZERO PUSH2 0x4073 JUMPI DUP2 PUSH1 0x20 ADD PUSH1 0x20 DUP3 MUL DUP1 CALLDATASIZE DUP4 CALLDATACOPY DUP1 DUP3 ADD SWAP2 POP POP SWAP1 POP JUMPDEST POP SWAP1 POP ADDRESS DUP2 PUSH1 0x0 DUP2 MLOAD DUP2 LT PUSH2 0x4084 JUMPI INVALID JUMPDEST PUSH1 0x20 MUL PUSH1 0x20 ADD ADD SWAP1 PUSH20 0xFFFFFFFFFFFFFFFFFFFFFFFFFFFFFFFFFFFFFFFF AND SWAP1 DUP2 PUSH20 0xFFFFFFFFFFFFFFFFFFFFFFFFFFFFFFFFFFFFFFFF AND DUP2 MSTORE POP POP PUSH1 0x15 PUSH1 0x0 SWAP1 SLOAD SWAP1 PUSH2 0x100 EXP SWAP1 DIV PUSH20 0xFFFFFFFFFFFFFFFFFFFFFFFFFFFFFFFFFFFFFFFF AND PUSH20 0xFFFFFFFFFFFFFFFFFFFFFFFFFFFFFFFFFFFFFFFF AND PUSH4 0xAD5C4648 PUSH1 0x40 MLOAD DUP2 PUSH4 0xFFFFFFFF AND PUSH1 0xE0 SHL DUP2 MSTORE PUSH1 0x4 ADD PUSH1 0x20 PUSH1 0x40 MLOAD DUP1 DUP4 SUB DUP2 DUP7 DUP1 EXTCODESIZE ISZERO DUP1 ISZERO PUSH2 0x4126 JUMPI PUSH1 0x0 DUP1 REVERT JUMPDEST POP GAS STATICCALL ISZERO DUP1 ISZERO PUSH2 0x413A JUMPI RETURNDATASIZE PUSH1 0x0 DUP1 RETURNDATACOPY RETURNDATASIZE PUSH1 0x0 REVERT JUMPDEST POP POP POP POP PUSH1 0x40 MLOAD RETURNDATASIZE PUSH1 0x20 DUP2 LT ISZERO PUSH2 0x4150 JUMPI PUSH1 0x0 DUP1 REVERT JUMPDEST DUP2 ADD SWAP1 DUP1 DUP1 MLOAD SWAP1 PUSH1 0x20 ADD SWAP1 SWAP3 SWAP2 SWAP1 POP POP POP DUP2 PUSH1 0x1 DUP2 MLOAD DUP2 LT PUSH2 0x416E JUMPI INVALID JUMPDEST PUSH1 0x20 MUL PUSH1 0x20 ADD ADD SWAP1 PUSH20 0xFFFFFFFFFFFFFFFFFFFFFFFFFFFFFFFFFFFFFFFF AND SWAP1 DUP2 PUSH20 0xFFFFFFFFFFFFFFFFFFFFFFFFFFFFFFFFFFFFFFFF AND DUP2 MSTORE POP POP PUSH1 0x15 PUSH1 0x0 SWAP1 SLOAD SWAP1 PUSH2 0x100 EXP SWAP1 DIV PUSH20 0xFFFFFFFFFFFFFFFFFFFFFFFFFFFFFFFFFFFFFFFF AND PUSH20 0xFFFFFFFFFFFFFFFFFFFFFFFFFFFFFFFFFFFFFFFF AND PUSH4 0x791AC947 DUP5 PUSH1 0x0 DUP5 ADDRESS TIMESTAMP PUSH1 0x40 MLOAD DUP7 PUSH4 0xFFFFFFFF AND PUSH1 0xE0 SHL DUP2 MSTORE PUSH1 0x4 ADD DUP1 DUP7 DUP2 MSTORE PUSH1 0x20 ADD DUP6 DUP2 MSTORE PUSH1 0x20 ADD DUP1 PUSH1 0x20 ADD DUP5 PUSH20 0xFFFFFFFFFFFFFFFFFFFFFFFFFFFFFFFFFFFFFFFF AND DUP2 MSTORE PUSH1 0x20 ADD DUP4 DUP2 MSTORE PUSH1 0x20 ADD DUP3 DUP2 SUB DUP3 MSTORE DUP6 DUP2 DUP2 MLOAD DUP2 MSTORE PUSH1 0x20 ADD SWAP2 POP DUP1 MLOAD SWAP1 PUSH1 0x20 ADD SWAP1 PUSH1 0x20 MUL DUP1 DUP4 DUP4 PUSH1 0x0 JUMPDEST DUP4 DUP2 LT ISZERO PUSH2 0x426C JUMPI DUP1 DUP3 ADD MLOAD DUP2 DUP5 ADD MSTORE PUSH1 0x20 DUP2 ADD SWAP1 POP PUSH2 0x4251 JUMP JUMPDEST POP POP POP POP SWAP1 POP ADD SWAP7 POP POP POP POP POP POP POP PUSH1 0x0 PUSH1 0x40 MLOAD DUP1 DUP4 SUB DUP2 PUSH1 0x0 DUP8 DUP1 EXTCODESIZE ISZERO DUP1 ISZERO PUSH2 0x4295 JUMPI PUSH1 0x0 DUP1 REVERT JUMPDEST POP GAS CALL ISZERO DUP1 ISZERO PUSH2 0x42A9 JUMPI RETURNDATASIZE PUSH1 0x0 DUP1 RETURNDATACOPY RETURNDATASIZE PUSH1 0x0 REVERT JUMPDEST POP POP POP POP PUSH1 0x0 PUSH2 0x42C2 DUP4 SELFBALANCE PUSH2 0x3164 SWAP1 SWAP2 SWAP1 PUSH4 0xFFFFFFFF AND JUMP JUMPDEST SWAP1 POP PUSH1 0x0 PUSH1 0x11 PUSH1 0x0 SWAP1 SLOAD SWAP1 PUSH2 0x100 EXP SWAP1 DIV PUSH20 0xFFFFFFFFFFFFFFFFFFFFFFFFFFFFFFFFFFFFFFFF AND PUSH20 0xFFFFFFFFFFFFFFFFFFFFFFFFFFFFFFFFFFFFFFFF AND PUSH2 0x433C PUSH2 0x4319 PUSH1 0x9 SLOAD PUSH1 0x8 SLOAD PUSH2 0x2C63 SWAP1 SWAP2 SWAP1 PUSH4 0xFFFFFFFF AND JUMP JUMPDEST PUSH2 0x432E PUSH1 0x8 SLOAD DUP7 PUSH2 0x31C1 SWAP1 SWAP2 SWAP1 PUSH4 0xFFFFFFFF AND JUMP JUMPDEST PUSH2 0x2CEB SWAP1 SWAP2 SWAP1 PUSH4 0xFFFFFFFF AND JUMP JUMPDEST PUSH2 0x7530 SWAP1 PUSH1 0x40 MLOAD DUP1 PUSH1 0x0 ADD SWAP1 POP PUSH1 0x0 PUSH1 0x40 MLOAD DUP1 DUP4 SUB DUP2 DUP6 DUP9 DUP9 CALL SWAP4 POP POP POP POP RETURNDATASIZE DUP1 PUSH1 0x0 DUP2 EQ PUSH2 0x4387 JUMPI PUSH1 0x40 MLOAD SWAP2 POP PUSH1 0x1F NOT PUSH1 0x3F RETURNDATASIZE ADD AND DUP3 ADD PUSH1 0x40 MSTORE RETURNDATASIZE DUP3 MSTORE RETURNDATASIZE PUSH1 0x0 PUSH1 0x20 DUP5 ADD RETURNDATACOPY PUSH2 0x438C JUMP JUMPDEST PUSH1 0x60 SWAP2 POP JUMPDEST POP POP SWAP1 POP PUSH1 0x12 PUSH1 0x0 SWAP1 SLOAD SWAP1 PUSH2 0x100 EXP SWAP1 DIV PUSH20 0xFFFFFFFFFFFFFFFFFFFFFFFFFFFFFFFFFFFFFFFF AND PUSH20 0xFFFFFFFFFFFFFFFFFFFFFFFFFFFFFFFFFFFFFFFF AND PUSH2 0x4406 PUSH2 0x43E3 PUSH1 0x9 SLOAD PUSH1 0x8 SLOAD PUSH2 0x2C63 SWAP1 SWAP2 SWAP1 PUSH4 0xFFFFFFFF AND JUMP JUMPDEST PUSH2 0x43F8 PUSH1 0x9 SLOAD DUP7 PUSH2 0x31C1 SWAP1 SWAP2 SWAP1 PUSH4 0xFFFFFFFF AND JUMP JUMPDEST PUSH2 0x2CEB SWAP1 SWAP2 SWAP1 PUSH4 0xFFFFFFFF AND JUMP JUMPDEST PUSH2 0x7530 SWAP1 PUSH1 0x40 MLOAD DUP1 PUSH1 0x0 ADD SWAP1 POP PUSH1 0x0 PUSH1 0x40 MLOAD DUP1 DUP4 SUB DUP2 DUP6 DUP9 DUP9 CALL SWAP4 POP POP POP POP RETURNDATASIZE DUP1 PUSH1 0x0 DUP2 EQ PUSH2 0x4451 JUMPI PUSH1 0x40 MLOAD SWAP2 POP PUSH1 0x1F NOT PUSH1 0x3F RETURNDATASIZE ADD AND DUP3 ADD PUSH1 0x40 MSTORE RETURNDATASIZE DUP3 MSTORE RETURNDATASIZE PUSH1 0x0 PUSH1 0x20 DUP5 ADD RETURNDATACOPY PUSH2 0x4456 JUMP JUMPDEST PUSH1 0x60 SWAP2 POP JUMPDEST POP POP DUP1 SWAP2 POP POP POP POP POP POP POP JUMPDEST PUSH1 0x0 PUSH1 0x16 PUSH1 0x14 PUSH2 0x100 EXP DUP2 SLOAD DUP2 PUSH1 0xFF MUL NOT AND SWAP1 DUP4 ISZERO ISZERO MUL OR SWAP1 SSTORE POP JUMP JUMPDEST PUSH1 0x0 DUP3 PUSH20 0xFFFFFFFFFFFFFFFFFFFFFFFFFFFFFFFFFFFFFFFF AND PUSH1 0x16 PUSH1 0x0 SWAP1 SLOAD SWAP1 PUSH2 0x100 EXP SWAP1 DIV PUSH20 0xFFFFFFFFFFFFFFFFFFFFFFFFFFFFFFFFFFFFFFFF AND PUSH20 0xFFFFFFFFFFFFFFFFFFFFFFFFFFFFFFFFFFFFFFFF AND EQ DUP1 PUSH2 0x452A JUMPI POP DUP2 PUSH20 0xFFFFFFFFFFFFFFFFFFFFFFFFFFFFFFFFFFFFFFFF AND PUSH1 0x16 PUSH1 0x0 SWAP1 SLOAD SWAP1 PUSH2 0x100 EXP SWAP1 DIV PUSH20 0xFFFFFFFFFFFFFFFFFFFFFFFFFFFFFFFFFFFFFFFF AND PUSH20 0xFFFFFFFFFFFFFFFFFFFFFFFFFFFFFFFFFFFFFFFF AND EQ JUMPDEST DUP1 ISZERO PUSH2 0x4580 JUMPI POP PUSH1 0x6 PUSH1 0x0 DUP5 PUSH20 0xFFFFFFFFFFFFFFFFFFFFFFFFFFFFFFFFFFFFFFFF AND PUSH20 0xFFFFFFFFFFFFFFFFFFFFFFFFFFFFFFFFFFFFFFFF AND DUP2 MSTORE PUSH1 0x20 ADD SWAP1 DUP2 MSTORE PUSH1 0x20 ADD PUSH1 0x0 KECCAK256 PUSH1 0x0 SWAP1 SLOAD SWAP1 PUSH2 0x100 EXP SWAP1 DIV PUSH1 0xFF AND ISZERO JUMPDEST SWAP1 POP SWAP3 SWAP2 POP POP JUMP JUMPDEST PUSH1 0x0 DUP1 PUSH1 0xC SLOAD SWAP1 POP PUSH1 0x0 PUSH1 0x8 SLOAD SWAP1 POP PUSH1 0x16 PUSH1 0x0 SWAP1 SLOAD SWAP1 PUSH2 0x100 EXP SWAP1 DIV PUSH20 0xFFFFFFFFFFFFFFFFFFFFFFFFFFFFFFFFFFFFFFFF AND PUSH20 0xFFFFFFFFFFFFFFFFFFFFFFFFFFFFFFFFFFFFFFFF AND DUP6 PUSH20 0xFFFFFFFFFFFFFFFFFFFFFFFFFFFFFFFFFFFFFFFF AND EQ ISZERO PUSH2 0x4620 JUMPI PUSH2 0x4604 PUSH1 0xA SLOAD PUSH1 0xC SLOAD PUSH2 0x2C63 SWAP1 SWAP2 SWAP1 PUSH4 0xFFFFFFFF AND JUMP JUMPDEST SWAP2 POP PUSH2 0x461D PUSH1 0xA SLOAD PUSH1 0x8 SLOAD PUSH2 0x2C63 SWAP1 SWAP2 SWAP1 PUSH4 0xFFFFFFFF AND JUMP JUMPDEST SWAP1 POP JUMPDEST PUSH1 0x0 PUSH2 0x4649 DUP4 PUSH2 0x463B PUSH1 0xD SLOAD DUP9 PUSH2 0x2CEB SWAP1 SWAP2 SWAP1 PUSH4 0xFFFFFFFF AND JUMP JUMPDEST PUSH2 0x31C1 SWAP1 SWAP2 SWAP1 PUSH4 0xFFFFFFFF AND JUMP JUMPDEST SWAP1 POP PUSH2 0x46E7 PUSH2 0x4677 PUSH1 0xB SLOAD PUSH2 0x4669 PUSH1 0xD SLOAD DUP10 PUSH2 0x2CEB SWAP1 SWAP2 SWAP1 PUSH4 0xFFFFFFFF AND JUMP JUMPDEST PUSH2 0x31C1 SWAP1 SWAP2 SWAP1 PUSH4 0xFFFFFFFF AND JUMP JUMPDEST PUSH1 0x1C PUSH1 0x0 PUSH1 0x13 PUSH1 0x0 SWAP1 SLOAD SWAP1 PUSH2 0x100 EXP SWAP1 DIV PUSH20 0xFFFFFFFFFFFFFFFFFFFFFFFFFFFFFFFFFFFFFFFF AND PUSH20 0xFFFFFFFFFFFFFFFFFFFFFFFFFFFFFFFFFFFFFFFF AND PUSH20 0xFFFFFFFFFFFFFFFFFFFFFFFFFFFFFFFFFFFFFFFF AND DUP2 MSTORE PUSH1 0x20 ADD SWAP1 DUP2 MSTORE PUSH1 0x20 ADD PUSH1 0x0 KECCAK256 SLOAD PUSH2 0x2C63 SWAP1 SWAP2 SWAP1 PUSH4 0xFFFFFFFF AND JUMP JUMPDEST PUSH1 0x1C PUSH1 0x0 PUSH1 0x13 PUSH1 0x0 SWAP1 SLOAD SWAP1 PUSH2 0x100 EXP SWAP1 DIV PUSH20 0xFFFFFFFFFFFFFFFFFFFFFFFFFFFFFFFFFFFFFFFF AND PUSH20 0xFFFFFFFFFFFFFFFFFFFFFFFFFFFFFFFFFFFFFFFF AND PUSH20 0xFFFFFFFFFFFFFFFFFFFFFFFFFFFFFFFFFFFFFFFF AND DUP2 MSTORE PUSH1 0x20 ADD SWAP1 DUP2 MSTORE PUSH1 0x20 ADD PUSH1 0x0 KECCAK256 DUP2 SWAP1 SSTORE POP PUSH2 0x47D8 PUSH2 0x478A PUSH2 0x4767 PUSH1 0x9 SLOAD DUP6 PUSH2 0x2C63 SWAP1 SWAP2 SWAP1 PUSH4 0xFFFFFFFF AND JUMP JUMPDEST PUSH2 0x477C PUSH1 0xD SLOAD DUP10 PUSH2 0x2CEB SWAP1 SWAP2 SWAP1 PUSH4 0xFFFFFFFF AND JUMP JUMPDEST PUSH2 0x31C1 SWAP1 SWAP2 SWAP1 PUSH4 0xFFFFFFFF AND JUMP JUMPDEST PUSH1 0x1C PUSH1 0x0 ADDRESS PUSH20 0xFFFFFFFFFFFFFFFFFFFFFFFFFFFFFFFFFFFFFFFF AND PUSH20 0xFFFFFFFFFFFFFFFFFFFFFFFFFFFFFFFFFFFFFFFF AND DUP2 MSTORE PUSH1 0x20 ADD SWAP1 DUP2 MSTORE PUSH1 0x20 ADD PUSH1 0x0 KECCAK256 SLOAD PUSH2 0x2C63 SWAP1 SWAP2 SWAP1 PUSH4 0xFFFFFFFF AND JUMP JUMPDEST PUSH1 0x1C PUSH1 0x0 ADDRESS PUSH20 0xFFFFFFFFFFFFFFFFFFFFFFFFFFFFFFFFFFFFFFFF AND PUSH20 0xFFFFFFFFFFFFFFFFFFFFFFFFFFFFFFFFFFFFFFFF AND DUP2 MSTORE PUSH1 0x20 ADD SWAP1 DUP2 MSTORE PUSH1 0x20 ADD PUSH1 0x0 KECCAK256 DUP2 SWAP1 SSTORE POP PUSH2 0x48B7 PUSH2 0x4847 PUSH1 0x7 SLOAD PUSH2 0x4839 PUSH1 0xD SLOAD DUP10 PUSH2 0x2CEB SWAP1 SWAP2 SWAP1 PUSH4 0xFFFFFFFF AND JUMP JUMPDEST PUSH2 0x31C1 SWAP1 SWAP2 SWAP1 PUSH4 0xFFFFFFFF AND JUMP JUMPDEST PUSH1 0x1C PUSH1 0x0 PUSH1 0x10 PUSH1 0x0 SWAP1 SLOAD SWAP1 PUSH2 0x100 EXP SWAP1 DIV PUSH20 0xFFFFFFFFFFFFFFFFFFFFFFFFFFFFFFFFFFFFFFFF AND PUSH20 0xFFFFFFFFFFFFFFFFFFFFFFFFFFFFFFFFFFFFFFFF AND PUSH20 0xFFFFFFFFFFFFFFFFFFFFFFFFFFFFFFFFFFFFFFFF AND DUP2 MSTORE PUSH1 0x20 ADD SWAP1 DUP2 MSTORE PUSH1 0x20 ADD PUSH1 0x0 KECCAK256 SLOAD PUSH2 0x2C63 SWAP1 SWAP2 SWAP1 PUSH4 0xFFFFFFFF AND JUMP JUMPDEST PUSH1 0x1C PUSH1 0x0 PUSH1 0x10 PUSH1 0x0 SWAP1 SLOAD SWAP1 PUSH2 0x100 EXP SWAP1 DIV PUSH20 0xFFFFFFFFFFFFFFFFFFFFFFFFFFFFFFFFFFFFFFFF AND PUSH20 0xFFFFFFFFFFFFFFFFFFFFFFFFFFFFFFFFFFFFFFFF AND PUSH20 0xFFFFFFFFFFFFFFFFFFFFFFFFFFFFFFFFFFFFFFFF AND DUP2 MSTORE PUSH1 0x20 ADD SWAP1 DUP2 MSTORE PUSH1 0x20 ADD PUSH1 0x0 KECCAK256 DUP2 SWAP1 SSTORE POP ADDRESS PUSH20 0xFFFFFFFFFFFFFFFFFFFFFFFFFFFFFFFFFFFFFFFF AND DUP8 PUSH20 0xFFFFFFFFFFFFFFFFFFFFFFFFFFFFFFFFFFFFFFFF AND PUSH32 0xDDF252AD1BE2C89B69C2B068FC378DAA952BA7F163C4A11628F55A4DF523B3EF PUSH2 0x4980 PUSH1 0x1B SLOAD DUP6 PUSH2 0x2CEB SWAP1 SWAP2 SWAP1 PUSH4 0xFFFFFFFF AND JUMP JUMPDEST PUSH1 0x40 MLOAD DUP1 DUP3 DUP2 MSTORE PUSH1 0x20 ADD SWAP2 POP POP PUSH1 0x40 MLOAD DUP1 SWAP2 SUB SWAP1 LOG3 PUSH2 0x49A8 DUP2 DUP7 PUSH2 0x3164 SWAP1 SWAP2 SWAP1 PUSH4 0xFFFFFFFF AND JUMP JUMPDEST SWAP4 POP POP POP POP SWAP4 SWAP3 POP POP POP JUMP INVALID SLOAD PUSH9 0x657265206973206E6F KECCAK256 MSTORE8 PUSH2 0x6675 PUSH22 0x20746F6B656E206465706F736974656420696E20746F PUSH12 0x656E20636F6E747261637453 PUSH2 0x6665 0x4D PUSH2 0x7468 GASPRICE KECCAK256 PUSH14 0x756C7469706C69636174696F6E20 PUSH16 0x766572666C6F776F6E6C7920636F6E74 PUSH19 0x61637420616464726573732C206E6F7420616C PUSH13 0x6F776564206578746572616E6C PUSH13 0x79206F776E6564206163636F75 PUSH15 0x74A2646970667358221220F53358C0 0xC1 PUSH6 0x5FD13F0A5015 CALL DUP8 0xBA 0xB9 SSTORE 0xAB SMOD PUSH12 0x5EE85708D351F9E90E429C9A PUSH5 0x736F6C6343 STOP SMOD DIV STOP CALLER "
				},
				"gasEstimates": {
					"creation": {
						"codeDepositCost": "3813000",
						"executionCost": "infinite",
						"totalCost": "infinite"
					},
					"external": {
						"DECIMALS()": "318",
						"MAX_UINT256()": "277",
						"RATE_DECIMALS()": "323",
						"_autoAddLiquidity()": "1161",
						"_autoRebase()": "1187",
						"_decimals()": "1159",
						"_initRebaseStartTime()": "1095",
						"_lastAddLiquidityTime()": "1073",
						"_lastRebasedTime()": "1139",
						"_name()": "infinite",
						"_symbol()": "infinite",
						"_totalSupply()": "1117",
						"allowance(address,address)": "1454",
						"approve(address,uint256)": "22476",
						"autoLiquidityReceiver()": "1136",
						"balanceOf(address)": "infinite",
						"blacklist(address)": "1332",
						"checkFeeExempt(address)": "1327",
						"decimals()": "1145",
						"decreaseAllowance(address,uint256)": "infinite",
						"feeDenominator()": "1074",
						"firePit()": "1181",
						"firePitFee()": "1094",
						"getCirculatingSupply()": "infinite",
						"getLiquidityBacking(uint256)": "infinite",
						"increaseAllowance(address,uint256)": "infinite",
						"isNotInSwap()": "1199",
						"isOwner()": "1212",
						"liquidityFee()": "1139",
						"manualSync()": "infinite",
						"name()": "infinite",
						"owner()": "1173",
						"pair()": "1158",
						"pairAddress()": "1180",
						"pairContract()": "1165",
						"renounceOwnership()": "24196",
						"router()": "1157",
						"safuuInsuranceFundFee()": "1095",
						"safuuInsuranceFundReceiver()": "1115",
						"sellFee()": "1096",
						"setAutoAddLiquidity(bool)": "42283",
						"setAutoRebase(bool)": "42216",
						"setBotBlacklist(address,bool)": "infinite",
						"setFeeReceivers(address,address,address,address)": "84852",
						"setLP(address)": "22174",
						"setPairAddress(address)": "22168",
						"setWhitelist(address)": "22259",
						"swapEnabled()": "1183",
						"symbol()": "infinite",
						"totalFee()": "1118",
						"totalSupply()": "1104",
						"transfer(address,uint256)": "infinite",
						"transferFrom(address,address,uint256)": "infinite",
						"transferOwnership(address)": "24692",
						"treasuryFee()": "1116",
						"treasuryReceiver()": "1139",
						"withdrawAllToTreasury()": "infinite"
					},
					"internal": {
						"_basicTransfer(address,address,uint256)": "infinite",
						"_transferFrom(address,address,uint256)": "infinite",
						"addLiquidity()": "infinite",
						"isContract(address)": "747",
						"rebase()": "infinite",
						"shouldAddLiquidity()": "3540",
						"shouldRebase()": "4445",
						"shouldSwapBack()": "1793",
						"shouldTakeFee(address,address)": "2720",
						"swapBack()": "infinite",
						"takeFee(address,address,uint256)": "infinite"
					}
				},
				"methodIdentifiers": {
					"DECIMALS()": "2e0f2625",
					"MAX_UINT256()": "33a581d2",
					"RATE_DECIMALS()": "5a604c52",
					"_autoAddLiquidity()": "6912652c",
					"_autoRebase()": "afb9cf6d",
					"_decimals()": "32424aa3",
					"_initRebaseStartTime()": "9b87676c",
					"_lastAddLiquidityTime()": "9b2912cc",
					"_lastRebasedTime()": "32b75683",
					"_name()": "d28d8852",
					"_symbol()": "b09f1266",
					"_totalSupply()": "3eaaf86b",
					"allowance(address,address)": "dd62ed3e",
					"approve(address,uint256)": "095ea7b3",
					"autoLiquidityReceiver()": "ca33e64c",
					"balanceOf(address)": "70a08231",
					"blacklist(address)": "f9f92be4",
					"checkFeeExempt(address)": "d4399790",
					"decimals()": "313ce567",
					"decreaseAllowance(address,uint256)": "a457c2d7",
					"feeDenominator()": "180b0d7e",
					"firePit()": "49d98142",
					"firePitFee()": "a6cf7293",
					"getCirculatingSupply()": "2b112e49",
					"getLiquidityBacking(uint256)": "d51ed1c8",
					"increaseAllowance(address,uint256)": "39509351",
					"isNotInSwap()": "83b4ac68",
					"isOwner()": "8f32d59b",
					"liquidityFee()": "98118cb4",
					"manualSync()": "753d02a1",
					"name()": "06fdde03",
					"owner()": "8da5cb5b",
					"pair()": "a8aa1b31",
					"pairAddress()": "a8b08982",
					"pairContract()": "4d709adf",
					"renounceOwnership()": "715018a6",
					"router()": "f887ea40",
					"safuuInsuranceFundFee()": "4de41e83",
					"safuuInsuranceFundReceiver()": "3b91aca9",
					"sellFee()": "2b14ca56",
					"setAutoAddLiquidity(bool)": "cfbac92f",
					"setAutoRebase(bool)": "e15beb80",
					"setBotBlacklist(address,bool)": "37c9be87",
					"setFeeReceivers(address,address,address,address)": "3c8e556d",
					"setLP(address)": "2f34d282",
					"setPairAddress(address)": "a22d4832",
					"setWhitelist(address)": "854cff2f",
					"swapEnabled()": "6ddd1713",
					"symbol()": "95d89b41",
					"totalFee()": "1df4ccfc",
					"totalSupply()": "18160ddd",
					"transfer(address,uint256)": "a9059cbb",
					"transferFrom(address,address,uint256)": "23b872dd",
					"transferOwnership(address)": "f2fde38b",
					"treasuryFee()": "cc32d176",
					"treasuryReceiver()": "08b1fd8f",
					"withdrawAllToTreasury()": "bd595581"
				}
			},
			"userdoc": {
				"kind": "user",
				"methods": {},
				"version": 1
			}
		}
	}
}