{
	"sis.sol": {
		"personalSafuuTrader": {
			"abi": [
				{
					"inputs": [],
					"stateMutability": "nonpayable",
					"type": "constructor"
				},
				{
					"inputs": [],
					"name": "BnbToSafuu",
					"outputs": [
						{
							"internalType": "uint256",
							"name": "",
							"type": "uint256"
						}
					],
					"stateMutability": "view",
					"type": "function"
				},
				{
					"inputs": [],
					"name": "amtOfSafuu",
					"outputs": [
						{
							"internalType": "uint256",
							"name": "",
							"type": "uint256"
						}
					],
					"stateMutability": "view",
					"type": "function"
				},
				{
					"inputs": [
						{
							"internalType": "uint256",
							"name": "amttobuy",
							"type": "uint256"
						}
					],
					"name": "buySafuu",
					"outputs": [],
					"stateMutability": "payable",
					"type": "function"
				},
				{
					"inputs": [],
					"name": "safuu",
					"outputs": [
						{
							"internalType": "contract IERC20",
							"name": "",
							"type": "address"
						}
					],
					"stateMutability": "view",
					"type": "function"
				},
				{
					"inputs": [
						{
							"internalType": "uint256",
							"name": "amttosell",
							"type": "uint256"
						}
					],
					"name": "sellSafuu",
					"outputs": [],
					"stateMutability": "payable",
					"type": "function"
				},
				{
					"inputs": [
						{
							"internalType": "uint256",
							"name": "_newfactor",
							"type": "uint256"
						}
					],
					"name": "setFactor",
					"outputs": [],
					"stateMutability": "nonpayable",
					"type": "function"
				},
				{
					"inputs": [],
					"name": "withdrawToOwner",
					"outputs": [],
					"stateMutability": "nonpayable",
					"type": "function"
				}
			],
			"devdoc": {
				"kind": "dev",
				"methods": {},
				"version": 1
			},
			"evm": {
				"assembly": "    /* \"sis.sol\":84:2180  contract personalSafuuTrader\r... */\n  mstore(0x40, 0x80)\n    /* \"sis.sol\":304:561  constructor () {\r... */\n  callvalue\n  dup1\n  iszero\n  tag_1\n  jumpi\n  0x00\n  dup1\n  revert\ntag_1:\n  pop\n    /* \"sis.sol\":332:342  msg.sender */\n  caller\n    /* \"sis.sol\":324:329  owner */\n  0x00\n  dup1\n    /* \"sis.sol\":324:342  owner = msg.sender */\n  0x0100\n  exp\n  dup2\n  sload\n  dup2\n  0xffffffffffffffffffffffffffffffffffffffff\n  mul\n  not\n  and\n  swap1\n  dup4\n  0xffffffffffffffffffffffffffffffffffffffff\n  and\n  mul\n  or\n  swap1\n  sstore\n  pop\n    /* \"sis.sol\":360:366  200000 */\n  0x030d40\n    /* \"sis.sol\":347:357  BnbToSafuu */\n  0x01\n    /* \"sis.sol\":347:366  BnbToSafuu = 200000 */\n  dup2\n  swap1\n  sstore\n  pop\n    /* \"sis.sol\":451:493  0xd9145CCE52D386f254917e481eB44e9943F39138 */\n  0xd9145cce52d386f254917e481eb44e9943f39138\n    /* \"sis.sol\":436:441  safuu */\n  0x02\n  0x00\n    /* \"sis.sol\":436:494  safuu = IERC20(0xd9145CCE52D386f254917e481eB44e9943F39138) */\n  0x0100\n  exp\n  dup2\n  sload\n  dup2\n  0xffffffffffffffffffffffffffffffffffffffff\n  mul\n  not\n  and\n  swap1\n  dup4\n  0xffffffffffffffffffffffffffffffffffffffff\n  and\n  mul\n  or\n  swap1\n  sstore\n  pop\n    /* \"sis.sol\":525:530  safuu */\n  0x02\n  0x00\n  swap1\n  sload\n  swap1\n  0x0100\n  exp\n  swap1\n  div\n  0xffffffffffffffffffffffffffffffffffffffff\n  and\n    /* \"sis.sol\":525:540  safuu.balanceOf */\n  0xffffffffffffffffffffffffffffffffffffffff\n  and\n  0x70a08231\n    /* \"sis.sol\":549:553  this */\n  address\n    /* \"sis.sol\":525:555  safuu.balanceOf(address(this)) */\n  mload(0x40)\n  dup3\n  0xffffffff\n  and\n  0xe0\n  shl\n  dup2\n  mstore\n  0x04\n  add\n  tag_4\n  swap2\n  swap1\n  tag_5\n  jump\t// in\ntag_4:\n  0x20\n  mload(0x40)\n  dup1\n  dup4\n  sub\n  dup2\n  dup7\n  dup1\n  extcodesize\n  iszero\n  dup1\n  iszero\n  tag_6\n  jumpi\n  0x00\n  dup1\n  revert\ntag_6:\n  pop\n  gas\n  staticcall\n  iszero\n  dup1\n  iszero\n  tag_8\n  jumpi\n  returndatasize\n  0x00\n  dup1\n  returndatacopy\n  revert(0x00, returndatasize)\ntag_8:\n  pop\n  pop\n  pop\n  pop\n  mload(0x40)\n  returndatasize\n  not(0x1f)\n  0x1f\n  dup3\n  add\n  and\n  dup3\n  add\n  dup1\n  0x40\n  mstore\n  pop\n  dup2\n  add\n  swap1\n  tag_9\n  swap2\n  swap1\n  tag_10\n  jump\t// in\ntag_9:\n    /* \"sis.sol\":512:522  amtOfSafuu */\n  0x03\n    /* \"sis.sol\":512:555  amtOfSafuu = safuu.balanceOf(address(this)) */\n  dup2\n  swap1\n  sstore\n  pop\n    /* \"sis.sol\":84:2180  contract personalSafuuTrader\r... */\n  jump(tag_11)\n    /* \"#utility.yul\":7:150   */\ntag_13:\n    /* \"#utility.yul\":64:69   */\n  0x00\n    /* \"#utility.yul\":95:101   */\n  dup2\n    /* \"#utility.yul\":89:102   */\n  mload\n    /* \"#utility.yul\":80:102   */\n  swap1\n  pop\n    /* \"#utility.yul\":111:144   */\n  tag_15\n    /* \"#utility.yul\":138:143   */\n  dup2\n    /* \"#utility.yul\":111:144   */\n  tag_16\n  jump\t// in\ntag_15:\n    /* \"#utility.yul\":7:150   */\n  swap3\n  swap2\n  pop\n  pop\n  jump\t// out\n    /* \"#utility.yul\":156:507   */\ntag_10:\n    /* \"#utility.yul\":226:232   */\n  0x00\n    /* \"#utility.yul\":275:277   */\n  0x20\n    /* \"#utility.yul\":263:272   */\n  dup3\n    /* \"#utility.yul\":254:261   */\n  dup5\n    /* \"#utility.yul\":250:273   */\n  sub\n    /* \"#utility.yul\":246:278   */\n  slt\n    /* \"#utility.yul\":243:362   */\n  iszero\n  tag_18\n  jumpi\n    /* \"#utility.yul\":281:360   */\n  tag_19\n  tag_20\n  jump\t// in\ntag_19:\n    /* \"#utility.yul\":243:362   */\ntag_18:\n    /* \"#utility.yul\":401:402   */\n  0x00\n    /* \"#utility.yul\":426:490   */\n  tag_21\n    /* \"#utility.yul\":482:489   */\n  dup5\n    /* \"#utility.yul\":473:479   */\n  dup3\n    /* \"#utility.yul\":462:471   */\n  dup6\n    /* \"#utility.yul\":458:480   */\n  add\n    /* \"#utility.yul\":426:490   */\n  tag_13\n  jump\t// in\ntag_21:\n    /* \"#utility.yul\":416:490   */\n  swap2\n  pop\n    /* \"#utility.yul\":372:500   */\n  pop\n    /* \"#utility.yul\":156:507   */\n  swap3\n  swap2\n  pop\n  pop\n  jump\t// out\n    /* \"#utility.yul\":513:631   */\ntag_22:\n    /* \"#utility.yul\":600:624   */\n  tag_24\n    /* \"#utility.yul\":618:623   */\n  dup2\n    /* \"#utility.yul\":600:624   */\n  tag_25\n  jump\t// in\ntag_24:\n    /* \"#utility.yul\":595:598   */\n  dup3\n    /* \"#utility.yul\":588:625   */\n  mstore\n    /* \"#utility.yul\":513:631   */\n  pop\n  pop\n  jump\t// out\n    /* \"#utility.yul\":637:859   */\ntag_5:\n    /* \"#utility.yul\":730:734   */\n  0x00\n    /* \"#utility.yul\":768:770   */\n  0x20\n    /* \"#utility.yul\":757:766   */\n  dup3\n    /* \"#utility.yul\":753:771   */\n  add\n    /* \"#utility.yul\":745:771   */\n  swap1\n  pop\n    /* \"#utility.yul\":781:852   */\n  tag_27\n    /* \"#utility.yul\":849:850   */\n  0x00\n    /* \"#utility.yul\":838:847   */\n  dup4\n    /* \"#utility.yul\":834:851   */\n  add\n    /* \"#utility.yul\":825:831   */\n  dup5\n    /* \"#utility.yul\":781:852   */\n  tag_22\n  jump\t// in\ntag_27:\n    /* \"#utility.yul\":637:859   */\n  swap3\n  swap2\n  pop\n  pop\n  jump\t// out\n    /* \"#utility.yul\":946:1042   */\ntag_25:\n    /* \"#utility.yul\":983:990   */\n  0x00\n    /* \"#utility.yul\":1012:1036   */\n  tag_31\n    /* \"#utility.yul\":1030:1035   */\n  dup3\n    /* \"#utility.yul\":1012:1036   */\n  tag_32\n  jump\t// in\ntag_31:\n    /* \"#utility.yul\":1001:1036   */\n  swap1\n  pop\n    /* \"#utility.yul\":946:1042   */\n  swap2\n  swap1\n  pop\n  jump\t// out\n    /* \"#utility.yul\":1048:1174   */\ntag_32:\n    /* \"#utility.yul\":1085:1092   */\n  0x00\n    /* \"#utility.yul\":1125:1167   */\n  0xffffffffffffffffffffffffffffffffffffffff\n    /* \"#utility.yul\":1118:1123   */\n  dup3\n    /* \"#utility.yul\":1114:1168   */\n  and\n    /* \"#utility.yul\":1103:1168   */\n  swap1\n  pop\n    /* \"#utility.yul\":1048:1174   */\n  swap2\n  swap1\n  pop\n  jump\t// out\n    /* \"#utility.yul\":1180:1257   */\ntag_34:\n    /* \"#utility.yul\":1217:1224   */\n  0x00\n    /* \"#utility.yul\":1246:1251   */\n  dup2\n    /* \"#utility.yul\":1235:1251   */\n  swap1\n  pop\n    /* \"#utility.yul\":1180:1257   */\n  swap2\n  swap1\n  pop\n  jump\t// out\n    /* \"#utility.yul\":1386:1503   */\ntag_20:\n    /* \"#utility.yul\":1495:1496   */\n  0x00\n    /* \"#utility.yul\":1492:1493   */\n  dup1\n    /* \"#utility.yul\":1485:1497   */\n  revert\n    /* \"#utility.yul\":1509:1631   */\ntag_16:\n    /* \"#utility.yul\":1582:1606   */\n  tag_40\n    /* \"#utility.yul\":1600:1605   */\n  dup2\n    /* \"#utility.yul\":1582:1606   */\n  tag_34\n  jump\t// in\ntag_40:\n    /* \"#utility.yul\":1575:1580   */\n  dup2\n    /* \"#utility.yul\":1572:1607   */\n  eq\n    /* \"#utility.yul\":1562:1625   */\n  tag_41\n  jumpi\n    /* \"#utility.yul\":1621:1622   */\n  0x00\n    /* \"#utility.yul\":1618:1619   */\n  dup1\n    /* \"#utility.yul\":1611:1623   */\n  revert\n    /* \"#utility.yul\":1562:1625   */\ntag_41:\n    /* \"#utility.yul\":1509:1631   */\n  pop\n  jump\t// out\n    /* \"sis.sol\":84:2180  contract personalSafuuTrader\r... */\ntag_11:\n  dataSize(sub_0)\n  dup1\n  dataOffset(sub_0)\n  0x00\n  codecopy\n  0x00\n  return\nstop\n\nsub_0: assembly {\n        /* \"sis.sol\":84:2180  contract personalSafuuTrader\r... */\n      mstore(0x40, 0x80)\n      jumpi(tag_1, lt(calldatasize, 0x04))\n      shr(0xe0, calldataload(0x00))\n      dup1\n      0x80c31426\n      gt\n      tag_9\n      jumpi\n      dup1\n      0x80c31426\n      eq\n      tag_5\n      jumpi\n      dup1\n      0x817e9d31\n      eq\n      tag_6\n      jumpi\n      dup1\n      0xade87ecc\n      eq\n      tag_7\n      jumpi\n      dup1\n      0xebc4197c\n      eq\n      tag_8\n      jumpi\n      jump(tag_1)\n    tag_9:\n      dup1\n      0x213fbeb0\n      eq\n      tag_2\n      jumpi\n      dup1\n      0x23b160ac\n      eq\n      tag_3\n      jumpi\n      dup1\n      0x3cb40e16\n      eq\n      tag_4\n      jumpi\n    tag_1:\n      0x00\n      dup1\n      revert\n        /* \"sis.sol\":209:235  uint256  public amtOfSafuu */\n    tag_2:\n      callvalue\n      dup1\n      iszero\n      tag_10\n      jumpi\n      0x00\n      dup1\n      revert\n    tag_10:\n      pop\n      tag_11\n      tag_12\n      jump\t// in\n    tag_11:\n      mload(0x40)\n      tag_13\n      swap2\n      swap1\n      tag_14\n      jump\t// in\n    tag_13:\n      mload(0x40)\n      dup1\n      swap2\n      sub\n      swap1\n      return\n        /* \"sis.sol\":183:202  IERC20 public safuu */\n    tag_3:\n      callvalue\n      dup1\n      iszero\n      tag_15\n      jumpi\n      0x00\n      dup1\n      revert\n    tag_15:\n      pop\n      tag_16\n      tag_17\n      jump\t// in\n    tag_16:\n      mload(0x40)\n      tag_18\n      swap2\n      swap1\n      tag_19\n      jump\t// in\n    tag_18:\n      mload(0x40)\n      dup1\n      swap2\n      sub\n      swap1\n      return\n        /* \"sis.sol\":1574:1903  function withdrawToOwner()\r... */\n    tag_4:\n      callvalue\n      dup1\n      iszero\n      tag_20\n      jumpi\n      0x00\n      dup1\n      revert\n    tag_20:\n      pop\n      tag_21\n      tag_22\n      jump\t// in\n    tag_21:\n      stop\n        /* \"sis.sol\":567:970  function buySafuu(uint256 amttobuy) public payable \r... */\n    tag_5:\n      tag_23\n      0x04\n      dup1\n      calldatasize\n      sub\n      dup2\n      add\n      swap1\n      tag_24\n      swap2\n      swap1\n      tag_25\n      jump\t// in\n    tag_24:\n      tag_26\n      jump\t// in\n    tag_23:\n      stop\n        /* \"sis.sol\":1426:1568  function setFactor(uint256 _newfactor) public {\r... */\n    tag_6:\n      callvalue\n      dup1\n      iszero\n      tag_27\n      jumpi\n      0x00\n      dup1\n      revert\n    tag_27:\n      pop\n      tag_28\n      0x04\n      dup1\n      calldatasize\n      sub\n      dup2\n      add\n      swap1\n      tag_29\n      swap2\n      swap1\n      tag_25\n      jump\t// in\n    tag_29:\n      tag_30\n      jump\t// in\n    tag_28:\n      stop\n        /* \"sis.sol\":981:1418  function sellSafuu(uint256 amttosell) public payable\r... */\n    tag_7:\n      tag_31\n      0x04\n      dup1\n      calldatasize\n      sub\n      dup2\n      add\n      swap1\n      tag_32\n      swap2\n      swap1\n      tag_25\n      jump\t// in\n    tag_32:\n      tag_33\n      jump\t// in\n    tag_31:\n      stop\n        /* \"sis.sol\":149:175  uint256  public BnbToSafuu */\n    tag_8:\n      callvalue\n      dup1\n      iszero\n      tag_34\n      jumpi\n      0x00\n      dup1\n      revert\n    tag_34:\n      pop\n      tag_35\n      tag_36\n      jump\t// in\n    tag_35:\n      mload(0x40)\n      tag_37\n      swap2\n      swap1\n      tag_14\n      jump\t// in\n    tag_37:\n      mload(0x40)\n      dup1\n      swap2\n      sub\n      swap1\n      return\n        /* \"sis.sol\":209:235  uint256  public amtOfSafuu */\n    tag_12:\n      sload(0x03)\n      dup2\n      jump\t// out\n        /* \"sis.sol\":183:202  IERC20 public safuu */\n    tag_17:\n      0x02\n      0x00\n      swap1\n      sload\n      swap1\n      0x0100\n      exp\n      swap1\n      div\n      0xffffffffffffffffffffffffffffffffffffffff\n      and\n      dup2\n      jump\t// out\n        /* \"sis.sol\":1574:1903  function withdrawToOwner()\r... */\n    tag_22:\n        /* \"sis.sol\":1741:1753  bool success */\n      0x00\n        /* \"sis.sol\":1759:1764  owner */\n      dup1\n      0x00\n      swap1\n      sload\n      swap1\n      0x0100\n      exp\n      swap1\n      div\n      0xffffffffffffffffffffffffffffffffffffffff\n      and\n        /* \"sis.sol\":1759:1769  owner.call */\n      0xffffffffffffffffffffffffffffffffffffffff\n      and\n        /* \"sis.sol\":1777:1798  address(this).balance */\n      selfbalance\n        /* \"sis.sol\":1759:1803  owner.call{value: address(this).balance}(\"\") */\n      mload(0x40)\n      tag_39\n      swap1\n      tag_40\n      jump\t// in\n    tag_39:\n      0x00\n      mload(0x40)\n      dup1\n      dup4\n      sub\n      dup2\n      dup6\n      dup8\n      gas\n      call\n      swap3\n      pop\n      pop\n      pop\n      returndatasize\n      dup1\n      0x00\n      dup2\n      eq\n      tag_43\n      jumpi\n      mload(0x40)\n      swap2\n      pop\n      and(add(returndatasize, 0x3f), not(0x1f))\n      dup3\n      add\n      0x40\n      mstore\n      returndatasize\n      dup3\n      mstore\n      returndatasize\n      0x00\n      0x20\n      dup5\n      add\n      returndatacopy\n      jump(tag_42)\n    tag_43:\n      0x60\n      swap2\n      pop\n    tag_42:\n      pop\n        /* \"sis.sol\":1740:1803  (bool success, ) = owner.call{value: address(this).balance}(\"\") */\n      pop\n      swap1\n      pop\n        /* \"sis.sol\":1822:1829  success */\n      dup1\n        /* \"sis.sol\":1814:1854  require(success, \"Failed to send Ether\") */\n      tag_44\n      jumpi\n      mload(0x40)\n      0x08c379a000000000000000000000000000000000000000000000000000000000\n      dup2\n      mstore\n      0x04\n      add\n      tag_45\n      swap1\n      tag_46\n      jump\t// in\n    tag_45:\n      mload(0x40)\n      dup1\n      swap2\n      sub\n      swap1\n      revert\n    tag_44:\n        /* \"sis.sol\":1865:1870  safuu */\n      0x02\n      0x00\n      swap1\n      sload\n      swap1\n      0x0100\n      exp\n      swap1\n      div\n      0xffffffffffffffffffffffffffffffffffffffff\n      and\n        /* \"sis.sol\":1865:1879  safuu.transfer */\n      0xffffffffffffffffffffffffffffffffffffffff\n      and\n      0xa9059cbb\n        /* \"sis.sol\":1880:1885  owner */\n      0x00\n      dup1\n      sload\n      swap1\n      0x0100\n      exp\n      swap1\n      div\n      0xffffffffffffffffffffffffffffffffffffffff\n      and\n        /* \"sis.sol\":1887:1894  1000000 */\n      0x0f4240\n        /* \"sis.sol\":1865:1895  safuu.transfer(owner, 1000000) */\n      mload(0x40)\n      dup4\n      0xffffffff\n      and\n      0xe0\n      shl\n      dup2\n      mstore\n      0x04\n      add\n      tag_47\n      swap3\n      swap2\n      swap1\n      tag_48\n      jump\t// in\n    tag_47:\n      0x20\n      mload(0x40)\n      dup1\n      dup4\n      sub\n      dup2\n      0x00\n      dup8\n      dup1\n      extcodesize\n      iszero\n      dup1\n      iszero\n      tag_49\n      jumpi\n      0x00\n      dup1\n      revert\n    tag_49:\n      pop\n      gas\n      call\n      iszero\n      dup1\n      iszero\n      tag_51\n      jumpi\n      returndatasize\n      0x00\n      dup1\n      returndatacopy\n      revert(0x00, returndatasize)\n    tag_51:\n      pop\n      pop\n      pop\n      pop\n      mload(0x40)\n      returndatasize\n      not(0x1f)\n      0x1f\n      dup3\n      add\n      and\n      dup3\n      add\n      dup1\n      0x40\n      mstore\n      pop\n      dup2\n      add\n      swap1\n      tag_52\n      swap2\n      swap1\n      tag_53\n      jump\t// in\n    tag_52:\n      pop\n        /* \"sis.sol\":1619:1903  {\r... */\n      pop\n        /* \"sis.sol\":1574:1903  function withdrawToOwner()\r... */\n      jump\t// out\n        /* \"sis.sol\":567:970  function buySafuu(uint256 amttobuy) public payable \r... */\n    tag_26:\n        /* \"sis.sol\":655:665  BnbToSafuu */\n      sload(0x01)\n        /* \"sis.sol\":643:651  amttobuy */\n      dup2\n        /* \"sis.sol\":643:665  amttobuy >= BnbToSafuu */\n      lt\n      iszero\n        /* \"sis.sol\":635:696  require(amttobuy >= BnbToSafuu, \"Minimum trade amount 1 bnb\") */\n      tag_55\n      jumpi\n      mload(0x40)\n      0x08c379a000000000000000000000000000000000000000000000000000000000\n      dup2\n      mstore\n      0x04\n      add\n      tag_56\n      swap1\n      tag_57\n      jump\t// in\n    tag_56:\n      mload(0x40)\n      dup1\n      swap2\n      sub\n      swap1\n      revert\n    tag_55:\n        /* \"sis.sol\":707:725  uint256 payableAmt */\n      0x00\n        /* \"sis.sol\":786:792  10**18 */\n      0x0de0b6b3a7640000\n        /* \"sis.sol\":772:782  BnbToSafuu */\n      sload(0x01)\n        /* \"sis.sol\":763:771  amttobuy */\n      dup4\n        /* \"sis.sol\":763:782  amttobuy/BnbToSafuu */\n      tag_58\n      swap2\n      swap1\n      tag_59\n      jump\t// in\n    tag_58:\n        /* \"sis.sol\":762:793  (amttobuy/BnbToSafuu) *(10**18) */\n      tag_60\n      swap2\n      swap1\n      tag_61\n      jump\t// in\n    tag_60:\n        /* \"sis.sol\":749:793  payableAmt = (amttobuy/BnbToSafuu) *(10**18) */\n      swap1\n      pop\n        /* \"sis.sol\":825:835  payableAmt */\n      dup1\n        /* \"sis.sol\":812:821  msg.value */\n      callvalue\n        /* \"sis.sol\":812:835  msg.value >= payableAmt */\n      lt\n      iszero\n        /* \"sis.sol\":804:850  require(msg.value >= payableAmt,\"Not enough\" ) */\n      tag_62\n      jumpi\n      mload(0x40)\n      0x08c379a000000000000000000000000000000000000000000000000000000000\n      dup2\n      mstore\n      0x04\n      add\n      tag_63\n      swap1\n      tag_64\n      jump\t// in\n    tag_63:\n      mload(0x40)\n      dup1\n      swap2\n      sub\n      swap1\n      revert\n    tag_62:\n        /* \"sis.sol\":901:962  _safeTransferFrom(safuu, address(this), msg.sender, amttobuy) */\n      tag_65\n        /* \"sis.sol\":919:924  safuu */\n      0x02\n      0x00\n      swap1\n      sload\n      swap1\n      0x0100\n      exp\n      swap1\n      div\n      0xffffffffffffffffffffffffffffffffffffffff\n      and\n        /* \"sis.sol\":934:938  this */\n      address\n        /* \"sis.sol\":941:951  msg.sender */\n      caller\n        /* \"sis.sol\":953:961  amttobuy */\n      dup6\n        /* \"sis.sol\":901:918  _safeTransferFrom */\n      tag_66\n        /* \"sis.sol\":901:962  _safeTransferFrom(safuu, address(this), msg.sender, amttobuy) */\n      jump\t// in\n    tag_65:\n        /* \"sis.sol\":624:970  {\r... */\n      pop\n        /* \"sis.sol\":567:970  function buySafuu(uint256 amttobuy) public payable \r... */\n      pop\n      jump\t// out\n        /* \"sis.sol\":1426:1568  function setFactor(uint256 _newfactor) public {\r... */\n    tag_30:\n        /* \"sis.sol\":1505:1510  owner */\n      0x00\n      dup1\n      sload\n      swap1\n      0x0100\n      exp\n      swap1\n      div\n      0xffffffffffffffffffffffffffffffffffffffff\n      and\n        /* \"sis.sol\":1491:1510  msg.sender == owner */\n      0xffffffffffffffffffffffffffffffffffffffff\n      and\n        /* \"sis.sol\":1491:1501  msg.sender */\n      caller\n        /* \"sis.sol\":1491:1510  msg.sender == owner */\n      0xffffffffffffffffffffffffffffffffffffffff\n      and\n      eq\n        /* \"sis.sol\":1483:1524  require(msg.sender == owner , \"notowner\") */\n      tag_68\n      jumpi\n      mload(0x40)\n      0x08c379a000000000000000000000000000000000000000000000000000000000\n      dup2\n      mstore\n      0x04\n      add\n      tag_69\n      swap1\n      tag_70\n      jump\t// in\n    tag_69:\n      mload(0x40)\n      dup1\n      swap2\n      sub\n      swap1\n      revert\n    tag_68:\n        /* \"sis.sol\":1548:1558  _newfactor */\n      dup1\n        /* \"sis.sol\":1535:1545  BnbToSafuu */\n      0x01\n        /* \"sis.sol\":1535:1558  BnbToSafuu = _newfactor */\n      dup2\n      swap1\n      sstore\n      pop\n        /* \"sis.sol\":1426:1568  function setFactor(uint256 _newfactor) public {\r... */\n      pop\n      jump\t// out\n        /* \"sis.sol\":981:1418  function sellSafuu(uint256 amttosell) public payable\r... */\n    tag_33:\n        /* \"sis.sol\":1071:1081  BnbToSafuu */\n      sload(0x01)\n        /* \"sis.sol\":1058:1067  amttosell */\n      dup2\n        /* \"sis.sol\":1058:1081  amttosell >= BnbToSafuu */\n      lt\n      iszero\n        /* \"sis.sol\":1050:1112  require(amttosell >= BnbToSafuu, \"Minimum trade amount 1 bnb\") */\n      tag_72\n      jumpi\n      mload(0x40)\n      0x08c379a000000000000000000000000000000000000000000000000000000000\n      dup2\n      mstore\n      0x04\n      add\n      tag_73\n      swap1\n      tag_57\n      jump\t// in\n    tag_73:\n      mload(0x40)\n      dup1\n      swap2\n      sub\n      swap1\n      revert\n    tag_72:\n        /* \"sis.sol\":1119:1181  _safeTransferFrom(safuu, msg.sender, address(this), amttosell) */\n      tag_74\n        /* \"sis.sol\":1137:1142  safuu */\n      0x02\n      0x00\n      swap1\n      sload\n      swap1\n      0x0100\n      exp\n      swap1\n      div\n      0xffffffffffffffffffffffffffffffffffffffff\n      and\n        /* \"sis.sol\":1144:1154  msg.sender */\n      caller\n        /* \"sis.sol\":1164:1168  this */\n      address\n        /* \"sis.sol\":1171:1180  amttosell */\n      dup5\n        /* \"sis.sol\":1119:1136  _safeTransferFrom */\n      tag_66\n        /* \"sis.sol\":1119:1181  _safeTransferFrom(safuu, msg.sender, address(this), amttosell) */\n      jump\t// in\n    tag_74:\n        /* \"sis.sol\":1216:1234  uint256 payableBNB */\n      0x00\n        /* \"sis.sol\":1292:1298  10**18 */\n      0x0de0b6b3a7640000\n        /* \"sis.sol\":1278:1288  BnbToSafuu */\n      sload(0x01)\n        /* \"sis.sol\":1268:1277  amttosell */\n      dup4\n        /* \"sis.sol\":1268:1288  amttosell/BnbToSafuu */\n      tag_75\n      swap2\n      swap1\n      tag_59\n      jump\t// in\n    tag_75:\n        /* \"sis.sol\":1267:1299  (amttosell/BnbToSafuu) *(10**18) */\n      tag_76\n      swap2\n      swap1\n      tag_61\n      jump\t// in\n    tag_76:\n        /* \"sis.sol\":1254:1299  payableBNB = (amttosell/BnbToSafuu) *(10**18) */\n      swap1\n      pop\n        /* \"sis.sol\":1307:1319  bool success */\n      0x00\n        /* \"sis.sol\":1325:1335  msg.sender */\n      caller\n        /* \"sis.sol\":1325:1340  msg.sender.call */\n      0xffffffffffffffffffffffffffffffffffffffff\n      and\n        /* \"sis.sol\":1348:1358  payableBNB */\n      dup3\n        /* \"sis.sol\":1325:1363  msg.sender.call{value: payableBNB}(\"\") */\n      mload(0x40)\n      tag_77\n      swap1\n      tag_40\n      jump\t// in\n    tag_77:\n      0x00\n      mload(0x40)\n      dup1\n      dup4\n      sub\n      dup2\n      dup6\n      dup8\n      gas\n      call\n      swap3\n      pop\n      pop\n      pop\n      returndatasize\n      dup1\n      0x00\n      dup2\n      eq\n      tag_80\n      jumpi\n      mload(0x40)\n      swap2\n      pop\n      and(add(returndatasize, 0x3f), not(0x1f))\n      dup3\n      add\n      0x40\n      mstore\n      returndatasize\n      dup3\n      mstore\n      returndatasize\n      0x00\n      0x20\n      dup5\n      add\n      returndatacopy\n      jump(tag_79)\n    tag_80:\n      0x60\n      swap2\n      pop\n    tag_79:\n      pop\n        /* \"sis.sol\":1306:1363  (bool success, ) = msg.sender.call{value: payableBNB}(\"\") */\n      pop\n      swap1\n      pop\n        /* \"sis.sol\":1382:1389  success */\n      dup1\n        /* \"sis.sol\":1374:1410  require(success, \"Transfer failed!\") */\n      tag_81\n      jumpi\n      mload(0x40)\n      0x08c379a000000000000000000000000000000000000000000000000000000000\n      dup2\n      mstore\n      0x04\n      add\n      tag_82\n      swap1\n      tag_83\n      jump\t// in\n    tag_82:\n      mload(0x40)\n      dup1\n      swap2\n      sub\n      swap1\n      revert\n    tag_81:\n        /* \"sis.sol\":1039:1418  {\r... */\n      pop\n      pop\n        /* \"sis.sol\":981:1418  function sellSafuu(uint256 amttosell) public payable\r... */\n      pop\n      jump\t// out\n        /* \"sis.sol\":149:175  uint256  public BnbToSafuu */\n    tag_36:\n      sload(0x01)\n      dup2\n      jump\t// out\n        /* \"sis.sol\":1909:2177  function _safeTransferFrom(\r... */\n    tag_66:\n        /* \"sis.sol\":2063:2072  bool sent */\n      0x00\n        /* \"sis.sol\":2075:2080  token */\n      dup5\n        /* \"sis.sol\":2075:2093  token.transferFrom */\n      0xffffffffffffffffffffffffffffffffffffffff\n      and\n      0x23b872dd\n        /* \"sis.sol\":2094:2100  sender */\n      dup6\n        /* \"sis.sol\":2102:2111  recipient */\n      dup6\n        /* \"sis.sol\":2113:2119  amount */\n      dup6\n        /* \"sis.sol\":2075:2120  token.transferFrom(sender, recipient, amount) */\n      mload(0x40)\n      dup5\n      0xffffffff\n      and\n      0xe0\n      shl\n      dup2\n      mstore\n      0x04\n      add\n      tag_85\n      swap4\n      swap3\n      swap2\n      swap1\n      tag_86\n      jump\t// in\n    tag_85:\n      0x20\n      mload(0x40)\n      dup1\n      dup4\n      sub\n      dup2\n      0x00\n      dup8\n      dup1\n      extcodesize\n      iszero\n      dup1\n      iszero\n      tag_87\n      jumpi\n      0x00\n      dup1\n      revert\n    tag_87:\n      pop\n      gas\n      call\n      iszero\n      dup1\n      iszero\n      tag_89\n      jumpi\n      returndatasize\n      0x00\n      dup1\n      returndatacopy\n      revert(0x00, returndatasize)\n    tag_89:\n      pop\n      pop\n      pop\n      pop\n      mload(0x40)\n      returndatasize\n      not(0x1f)\n      0x1f\n      dup3\n      add\n      and\n      dup3\n      add\n      dup1\n      0x40\n      mstore\n      pop\n      dup2\n      add\n      swap1\n      tag_90\n      swap2\n      swap1\n      tag_53\n      jump\t// in\n    tag_90:\n        /* \"sis.sol\":2063:2120  bool sent = token.transferFrom(sender, recipient, amount) */\n      swap1\n      pop\n        /* \"sis.sol\":2139:2143  sent */\n      dup1\n        /* \"sis.sol\":2131:2169  require(sent, \"Token transfer failed\") */\n      tag_91\n      jumpi\n      mload(0x40)\n      0x08c379a000000000000000000000000000000000000000000000000000000000\n      dup2\n      mstore\n      0x04\n      add\n      tag_92\n      swap1\n      tag_93\n      jump\t// in\n    tag_92:\n      mload(0x40)\n      dup1\n      swap2\n      sub\n      swap1\n      revert\n    tag_91:\n        /* \"sis.sol\":2052:2177  {\r... */\n      pop\n        /* \"sis.sol\":1909:2177  function _safeTransferFrom(\r... */\n      pop\n      pop\n      pop\n      pop\n      jump\t// out\n        /* \"#utility.yul\":7:144   */\n    tag_95:\n        /* \"#utility.yul\":61:66   */\n      0x00\n        /* \"#utility.yul\":92:98   */\n      dup2\n        /* \"#utility.yul\":86:99   */\n      mload\n        /* \"#utility.yul\":77:99   */\n      swap1\n      pop\n        /* \"#utility.yul\":108:138   */\n      tag_97\n        /* \"#utility.yul\":132:137   */\n      dup2\n        /* \"#utility.yul\":108:138   */\n      tag_98\n      jump\t// in\n    tag_97:\n        /* \"#utility.yul\":7:144   */\n      swap3\n      swap2\n      pop\n      pop\n      jump\t// out\n        /* \"#utility.yul\":150:289   */\n    tag_99:\n        /* \"#utility.yul\":196:201   */\n      0x00\n        /* \"#utility.yul\":234:240   */\n      dup2\n        /* \"#utility.yul\":221:241   */\n      calldataload\n        /* \"#utility.yul\":212:241   */\n      swap1\n      pop\n        /* \"#utility.yul\":250:283   */\n      tag_101\n        /* \"#utility.yul\":277:282   */\n      dup2\n        /* \"#utility.yul\":250:283   */\n      tag_102\n      jump\t// in\n    tag_101:\n        /* \"#utility.yul\":150:289   */\n      swap3\n      swap2\n      pop\n      pop\n      jump\t// out\n        /* \"#utility.yul\":295:640   */\n    tag_53:\n        /* \"#utility.yul\":362:368   */\n      0x00\n        /* \"#utility.yul\":411:413   */\n      0x20\n        /* \"#utility.yul\":399:408   */\n      dup3\n        /* \"#utility.yul\":390:397   */\n      dup5\n        /* \"#utility.yul\":386:409   */\n      sub\n        /* \"#utility.yul\":382:414   */\n      slt\n        /* \"#utility.yul\":379:498   */\n      iszero\n      tag_104\n      jumpi\n        /* \"#utility.yul\":417:496   */\n      tag_105\n      tag_106\n      jump\t// in\n    tag_105:\n        /* \"#utility.yul\":379:498   */\n    tag_104:\n        /* \"#utility.yul\":537:538   */\n      0x00\n        /* \"#utility.yul\":562:623   */\n      tag_107\n        /* \"#utility.yul\":615:622   */\n      dup5\n        /* \"#utility.yul\":606:612   */\n      dup3\n        /* \"#utility.yul\":595:604   */\n      dup6\n        /* \"#utility.yul\":591:613   */\n      add\n        /* \"#utility.yul\":562:623   */\n      tag_95\n      jump\t// in\n    tag_107:\n        /* \"#utility.yul\":552:623   */\n      swap2\n      pop\n        /* \"#utility.yul\":508:633   */\n      pop\n        /* \"#utility.yul\":295:640   */\n      swap3\n      swap2\n      pop\n      pop\n      jump\t// out\n        /* \"#utility.yul\":646:975   */\n    tag_25:\n        /* \"#utility.yul\":705:711   */\n      0x00\n        /* \"#utility.yul\":754:756   */\n      0x20\n        /* \"#utility.yul\":742:751   */\n      dup3\n        /* \"#utility.yul\":733:740   */\n      dup5\n        /* \"#utility.yul\":729:752   */\n      sub\n        /* \"#utility.yul\":725:757   */\n      slt\n        /* \"#utility.yul\":722:841   */\n      iszero\n      tag_109\n      jumpi\n        /* \"#utility.yul\":760:839   */\n      tag_110\n      tag_106\n      jump\t// in\n    tag_110:\n        /* \"#utility.yul\":722:841   */\n    tag_109:\n        /* \"#utility.yul\":880:881   */\n      0x00\n        /* \"#utility.yul\":905:958   */\n      tag_111\n        /* \"#utility.yul\":950:957   */\n      dup5\n        /* \"#utility.yul\":941:947   */\n      dup3\n        /* \"#utility.yul\":930:939   */\n      dup6\n        /* \"#utility.yul\":926:948   */\n      add\n        /* \"#utility.yul\":905:958   */\n      tag_99\n      jump\t// in\n    tag_111:\n        /* \"#utility.yul\":895:958   */\n      swap2\n      pop\n        /* \"#utility.yul\":851:968   */\n      pop\n        /* \"#utility.yul\":646:975   */\n      swap3\n      swap2\n      pop\n      pop\n      jump\t// out\n        /* \"#utility.yul\":981:1099   */\n    tag_112:\n        /* \"#utility.yul\":1068:1092   */\n      tag_114\n        /* \"#utility.yul\":1086:1091   */\n      dup2\n        /* \"#utility.yul\":1068:1092   */\n      tag_115\n      jump\t// in\n    tag_114:\n        /* \"#utility.yul\":1063:1066   */\n      dup3\n        /* \"#utility.yul\":1056:1093   */\n      mstore\n        /* \"#utility.yul\":981:1099   */\n      pop\n      pop\n      jump\t// out\n        /* \"#utility.yul\":1105:1262   */\n    tag_116:\n        /* \"#utility.yul\":1205:1255   */\n      tag_118\n        /* \"#utility.yul\":1249:1254   */\n      dup2\n        /* \"#utility.yul\":1205:1255   */\n      tag_119\n      jump\t// in\n    tag_118:\n        /* \"#utility.yul\":1200:1203   */\n      dup3\n        /* \"#utility.yul\":1193:1256   */\n      mstore\n        /* \"#utility.yul\":1105:1262   */\n      pop\n      pop\n      jump\t// out\n        /* \"#utility.yul\":1268:1427   */\n    tag_120:\n        /* \"#utility.yul\":1369:1420   */\n      tag_122\n        /* \"#utility.yul\":1414:1419   */\n      dup2\n        /* \"#utility.yul\":1369:1420   */\n      tag_123\n      jump\t// in\n    tag_122:\n        /* \"#utility.yul\":1364:1367   */\n      dup3\n        /* \"#utility.yul\":1357:1421   */\n      mstore\n        /* \"#utility.yul\":1268:1427   */\n      pop\n      pop\n      jump\t// out\n        /* \"#utility.yul\":1433:1799   */\n    tag_124:\n        /* \"#utility.yul\":1575:1578   */\n      0x00\n        /* \"#utility.yul\":1596:1663   */\n      tag_126\n        /* \"#utility.yul\":1660:1662   */\n      0x14\n        /* \"#utility.yul\":1655:1658   */\n      dup4\n        /* \"#utility.yul\":1596:1663   */\n      tag_127\n      jump\t// in\n    tag_126:\n        /* \"#utility.yul\":1589:1663   */\n      swap2\n      pop\n        /* \"#utility.yul\":1672:1765   */\n      tag_128\n        /* \"#utility.yul\":1761:1764   */\n      dup3\n        /* \"#utility.yul\":1672:1765   */\n      tag_129\n      jump\t// in\n    tag_128:\n        /* \"#utility.yul\":1790:1792   */\n      0x20\n        /* \"#utility.yul\":1785:1788   */\n      dup3\n        /* \"#utility.yul\":1781:1793   */\n      add\n        /* \"#utility.yul\":1774:1793   */\n      swap1\n      pop\n        /* \"#utility.yul\":1433:1799   */\n      swap2\n      swap1\n      pop\n      jump\t// out\n        /* \"#utility.yul\":1805:2171   */\n    tag_130:\n        /* \"#utility.yul\":1947:1950   */\n      0x00\n        /* \"#utility.yul\":1968:2035   */\n      tag_132\n        /* \"#utility.yul\":2032:2034   */\n      0x0a\n        /* \"#utility.yul\":2027:2030   */\n      dup4\n        /* \"#utility.yul\":1968:2035   */\n      tag_127\n      jump\t// in\n    tag_132:\n        /* \"#utility.yul\":1961:2035   */\n      swap2\n      pop\n        /* \"#utility.yul\":2044:2137   */\n      tag_133\n        /* \"#utility.yul\":2133:2136   */\n      dup3\n        /* \"#utility.yul\":2044:2137   */\n      tag_134\n      jump\t// in\n    tag_133:\n        /* \"#utility.yul\":2162:2164   */\n      0x20\n        /* \"#utility.yul\":2157:2160   */\n      dup3\n        /* \"#utility.yul\":2153:2165   */\n      add\n        /* \"#utility.yul\":2146:2165   */\n      swap1\n      pop\n        /* \"#utility.yul\":1805:2171   */\n      swap2\n      swap1\n      pop\n      jump\t// out\n        /* \"#utility.yul\":2177:2542   */\n    tag_135:\n        /* \"#utility.yul\":2319:2322   */\n      0x00\n        /* \"#utility.yul\":2340:2406   */\n      tag_137\n        /* \"#utility.yul\":2404:2405   */\n      0x08\n        /* \"#utility.yul\":2399:2402   */\n      dup4\n        /* \"#utility.yul\":2340:2406   */\n      tag_127\n      jump\t// in\n    tag_137:\n        /* \"#utility.yul\":2333:2406   */\n      swap2\n      pop\n        /* \"#utility.yul\":2415:2508   */\n      tag_138\n        /* \"#utility.yul\":2504:2507   */\n      dup3\n        /* \"#utility.yul\":2415:2508   */\n      tag_139\n      jump\t// in\n    tag_138:\n        /* \"#utility.yul\":2533:2535   */\n      0x20\n        /* \"#utility.yul\":2528:2531   */\n      dup3\n        /* \"#utility.yul\":2524:2536   */\n      add\n        /* \"#utility.yul\":2517:2536   */\n      swap1\n      pop\n        /* \"#utility.yul\":2177:2542   */\n      swap2\n      swap1\n      pop\n      jump\t// out\n        /* \"#utility.yul\":2548:2914   */\n    tag_140:\n        /* \"#utility.yul\":2690:2693   */\n      0x00\n        /* \"#utility.yul\":2711:2778   */\n      tag_142\n        /* \"#utility.yul\":2775:2777   */\n      0x15\n        /* \"#utility.yul\":2770:2773   */\n      dup4\n        /* \"#utility.yul\":2711:2778   */\n      tag_127\n      jump\t// in\n    tag_142:\n        /* \"#utility.yul\":2704:2778   */\n      swap2\n      pop\n        /* \"#utility.yul\":2787:2880   */\n      tag_143\n        /* \"#utility.yul\":2876:2879   */\n      dup3\n        /* \"#utility.yul\":2787:2880   */\n      tag_144\n      jump\t// in\n    tag_143:\n        /* \"#utility.yul\":2905:2907   */\n      0x20\n        /* \"#utility.yul\":2900:2903   */\n      dup3\n        /* \"#utility.yul\":2896:2908   */\n      add\n        /* \"#utility.yul\":2889:2908   */\n      swap1\n      pop\n        /* \"#utility.yul\":2548:2914   */\n      swap2\n      swap1\n      pop\n      jump\t// out\n        /* \"#utility.yul\":2920:3286   */\n    tag_145:\n        /* \"#utility.yul\":3062:3065   */\n      0x00\n        /* \"#utility.yul\":3083:3150   */\n      tag_147\n        /* \"#utility.yul\":3147:3149   */\n      0x1a\n        /* \"#utility.yul\":3142:3145   */\n      dup4\n        /* \"#utility.yul\":3083:3150   */\n      tag_127\n      jump\t// in\n    tag_147:\n        /* \"#utility.yul\":3076:3150   */\n      swap2\n      pop\n        /* \"#utility.yul\":3159:3252   */\n      tag_148\n        /* \"#utility.yul\":3248:3251   */\n      dup3\n        /* \"#utility.yul\":3159:3252   */\n      tag_149\n      jump\t// in\n    tag_148:\n        /* \"#utility.yul\":3277:3279   */\n      0x20\n        /* \"#utility.yul\":3272:3275   */\n      dup3\n        /* \"#utility.yul\":3268:3280   */\n      add\n        /* \"#utility.yul\":3261:3280   */\n      swap1\n      pop\n        /* \"#utility.yul\":2920:3286   */\n      swap2\n      swap1\n      pop\n      jump\t// out\n        /* \"#utility.yul\":3292:3658   */\n    tag_150:\n        /* \"#utility.yul\":3434:3437   */\n      0x00\n        /* \"#utility.yul\":3455:3522   */\n      tag_152\n        /* \"#utility.yul\":3519:3521   */\n      0x10\n        /* \"#utility.yul\":3514:3517   */\n      dup4\n        /* \"#utility.yul\":3455:3522   */\n      tag_127\n      jump\t// in\n    tag_152:\n        /* \"#utility.yul\":3448:3522   */\n      swap2\n      pop\n        /* \"#utility.yul\":3531:3624   */\n      tag_153\n        /* \"#utility.yul\":3620:3623   */\n      dup3\n        /* \"#utility.yul\":3531:3624   */\n      tag_154\n      jump\t// in\n    tag_153:\n        /* \"#utility.yul\":3649:3651   */\n      0x20\n        /* \"#utility.yul\":3644:3647   */\n      dup3\n        /* \"#utility.yul\":3640:3652   */\n      add\n        /* \"#utility.yul\":3633:3652   */\n      swap1\n      pop\n        /* \"#utility.yul\":3292:3658   */\n      swap2\n      swap1\n      pop\n      jump\t// out\n        /* \"#utility.yul\":3664:4062   */\n    tag_155:\n        /* \"#utility.yul\":3823:3826   */\n      0x00\n        /* \"#utility.yul\":3844:3927   */\n      tag_157\n        /* \"#utility.yul\":3925:3926   */\n      0x00\n        /* \"#utility.yul\":3920:3923   */\n      dup4\n        /* \"#utility.yul\":3844:3927   */\n      tag_158\n      jump\t// in\n    tag_157:\n        /* \"#utility.yul\":3837:3927   */\n      swap2\n      pop\n        /* \"#utility.yul\":3936:4029   */\n      tag_159\n        /* \"#utility.yul\":4025:4028   */\n      dup3\n        /* \"#utility.yul\":3936:4029   */\n      tag_160\n      jump\t// in\n    tag_159:\n        /* \"#utility.yul\":4054:4055   */\n      0x00\n        /* \"#utility.yul\":4049:4052   */\n      dup3\n        /* \"#utility.yul\":4045:4056   */\n      add\n        /* \"#utility.yul\":4038:4056   */\n      swap1\n      pop\n        /* \"#utility.yul\":3664:4062   */\n      swap2\n      swap1\n      pop\n      jump\t// out\n        /* \"#utility.yul\":4068:4186   */\n    tag_161:\n        /* \"#utility.yul\":4155:4179   */\n      tag_163\n        /* \"#utility.yul\":4173:4178   */\n      dup2\n        /* \"#utility.yul\":4155:4179   */\n      tag_164\n      jump\t// in\n    tag_163:\n        /* \"#utility.yul\":4150:4153   */\n      dup3\n        /* \"#utility.yul\":4143:4180   */\n      mstore\n        /* \"#utility.yul\":4068:4186   */\n      pop\n      pop\n      jump\t// out\n        /* \"#utility.yul\":4192:4571   */\n    tag_40:\n        /* \"#utility.yul\":4376:4379   */\n      0x00\n        /* \"#utility.yul\":4398:4545   */\n      tag_166\n        /* \"#utility.yul\":4541:4544   */\n      dup3\n        /* \"#utility.yul\":4398:4545   */\n      tag_155\n      jump\t// in\n    tag_166:\n        /* \"#utility.yul\":4391:4545   */\n      swap2\n      pop\n        /* \"#utility.yul\":4562:4565   */\n      dup2\n        /* \"#utility.yul\":4555:4565   */\n      swap1\n      pop\n        /* \"#utility.yul\":4192:4571   */\n      swap2\n      swap1\n      pop\n      jump\t// out\n        /* \"#utility.yul\":4577:5019   */\n    tag_86:\n        /* \"#utility.yul\":4726:4730   */\n      0x00\n        /* \"#utility.yul\":4764:4766   */\n      0x60\n        /* \"#utility.yul\":4753:4762   */\n      dup3\n        /* \"#utility.yul\":4749:4767   */\n      add\n        /* \"#utility.yul\":4741:4767   */\n      swap1\n      pop\n        /* \"#utility.yul\":4777:4848   */\n      tag_168\n        /* \"#utility.yul\":4845:4846   */\n      0x00\n        /* \"#utility.yul\":4834:4843   */\n      dup4\n        /* \"#utility.yul\":4830:4847   */\n      add\n        /* \"#utility.yul\":4821:4827   */\n      dup7\n        /* \"#utility.yul\":4777:4848   */\n      tag_112\n      jump\t// in\n    tag_168:\n        /* \"#utility.yul\":4858:4930   */\n      tag_169\n        /* \"#utility.yul\":4926:4928   */\n      0x20\n        /* \"#utility.yul\":4915:4924   */\n      dup4\n        /* \"#utility.yul\":4911:4929   */\n      add\n        /* \"#utility.yul\":4902:4908   */\n      dup6\n        /* \"#utility.yul\":4858:4930   */\n      tag_112\n      jump\t// in\n    tag_169:\n        /* \"#utility.yul\":4940:5012   */\n      tag_170\n        /* \"#utility.yul\":5008:5010   */\n      0x40\n        /* \"#utility.yul\":4997:5006   */\n      dup4\n        /* \"#utility.yul\":4993:5011   */\n      add\n        /* \"#utility.yul\":4984:4990   */\n      dup5\n        /* \"#utility.yul\":4940:5012   */\n      tag_161\n      jump\t// in\n    tag_170:\n        /* \"#utility.yul\":4577:5019   */\n      swap5\n      swap4\n      pop\n      pop\n      pop\n      pop\n      jump\t// out\n        /* \"#utility.yul\":5025:5385   */\n    tag_48:\n        /* \"#utility.yul\":5160:5164   */\n      0x00\n        /* \"#utility.yul\":5198:5200   */\n      0x40\n        /* \"#utility.yul\":5187:5196   */\n      dup3\n        /* \"#utility.yul\":5183:5201   */\n      add\n        /* \"#utility.yul\":5175:5201   */\n      swap1\n      pop\n        /* \"#utility.yul\":5211:5282   */\n      tag_172\n        /* \"#utility.yul\":5279:5280   */\n      0x00\n        /* \"#utility.yul\":5268:5277   */\n      dup4\n        /* \"#utility.yul\":5264:5281   */\n      add\n        /* \"#utility.yul\":5255:5261   */\n      dup6\n        /* \"#utility.yul\":5211:5282   */\n      tag_112\n      jump\t// in\n    tag_172:\n        /* \"#utility.yul\":5292:5378   */\n      tag_173\n        /* \"#utility.yul\":5374:5376   */\n      0x20\n        /* \"#utility.yul\":5363:5372   */\n      dup4\n        /* \"#utility.yul\":5359:5377   */\n      add\n        /* \"#utility.yul\":5350:5356   */\n      dup5\n        /* \"#utility.yul\":5292:5378   */\n      tag_120\n      jump\t// in\n    tag_173:\n        /* \"#utility.yul\":5025:5385   */\n      swap4\n      swap3\n      pop\n      pop\n      pop\n      jump\t// out\n        /* \"#utility.yul\":5391:5639   */\n    tag_19:\n        /* \"#utility.yul\":5497:5501   */\n      0x00\n        /* \"#utility.yul\":5535:5537   */\n      0x20\n        /* \"#utility.yul\":5524:5533   */\n      dup3\n        /* \"#utility.yul\":5520:5538   */\n      add\n        /* \"#utility.yul\":5512:5538   */\n      swap1\n      pop\n        /* \"#utility.yul\":5548:5632   */\n      tag_175\n        /* \"#utility.yul\":5629:5630   */\n      0x00\n        /* \"#utility.yul\":5618:5627   */\n      dup4\n        /* \"#utility.yul\":5614:5631   */\n      add\n        /* \"#utility.yul\":5605:5611   */\n      dup5\n        /* \"#utility.yul\":5548:5632   */\n      tag_116\n      jump\t// in\n    tag_175:\n        /* \"#utility.yul\":5391:5639   */\n      swap3\n      swap2\n      pop\n      pop\n      jump\t// out\n        /* \"#utility.yul\":5645:6064   */\n    tag_46:\n        /* \"#utility.yul\":5811:5815   */\n      0x00\n        /* \"#utility.yul\":5849:5851   */\n      0x20\n        /* \"#utility.yul\":5838:5847   */\n      dup3\n        /* \"#utility.yul\":5834:5852   */\n      add\n        /* \"#utility.yul\":5826:5852   */\n      swap1\n      pop\n        /* \"#utility.yul\":5898:5907   */\n      dup2\n        /* \"#utility.yul\":5892:5896   */\n      dup2\n        /* \"#utility.yul\":5888:5908   */\n      sub\n        /* \"#utility.yul\":5884:5885   */\n      0x00\n        /* \"#utility.yul\":5873:5882   */\n      dup4\n        /* \"#utility.yul\":5869:5886   */\n      add\n        /* \"#utility.yul\":5862:5909   */\n      mstore\n        /* \"#utility.yul\":5926:6057   */\n      tag_177\n        /* \"#utility.yul\":6052:6056   */\n      dup2\n        /* \"#utility.yul\":5926:6057   */\n      tag_124\n      jump\t// in\n    tag_177:\n        /* \"#utility.yul\":5918:6057   */\n      swap1\n      pop\n        /* \"#utility.yul\":5645:6064   */\n      swap2\n      swap1\n      pop\n      jump\t// out\n        /* \"#utility.yul\":6070:6489   */\n    tag_64:\n        /* \"#utility.yul\":6236:6240   */\n      0x00\n        /* \"#utility.yul\":6274:6276   */\n      0x20\n        /* \"#utility.yul\":6263:6272   */\n      dup3\n        /* \"#utility.yul\":6259:6277   */\n      add\n        /* \"#utility.yul\":6251:6277   */\n      swap1\n      pop\n        /* \"#utility.yul\":6323:6332   */\n      dup2\n        /* \"#utility.yul\":6317:6321   */\n      dup2\n        /* \"#utility.yul\":6313:6333   */\n      sub\n        /* \"#utility.yul\":6309:6310   */\n      0x00\n        /* \"#utility.yul\":6298:6307   */\n      dup4\n        /* \"#utility.yul\":6294:6311   */\n      add\n        /* \"#utility.yul\":6287:6334   */\n      mstore\n        /* \"#utility.yul\":6351:6482   */\n      tag_179\n        /* \"#utility.yul\":6477:6481   */\n      dup2\n        /* \"#utility.yul\":6351:6482   */\n      tag_130\n      jump\t// in\n    tag_179:\n        /* \"#utility.yul\":6343:6482   */\n      swap1\n      pop\n        /* \"#utility.yul\":6070:6489   */\n      swap2\n      swap1\n      pop\n      jump\t// out\n        /* \"#utility.yul\":6495:6914   */\n    tag_70:\n        /* \"#utility.yul\":6661:6665   */\n      0x00\n        /* \"#utility.yul\":6699:6701   */\n      0x20\n        /* \"#utility.yul\":6688:6697   */\n      dup3\n        /* \"#utility.yul\":6684:6702   */\n      add\n        /* \"#utility.yul\":6676:6702   */\n      swap1\n      pop\n        /* \"#utility.yul\":6748:6757   */\n      dup2\n        /* \"#utility.yul\":6742:6746   */\n      dup2\n        /* \"#utility.yul\":6738:6758   */\n      sub\n        /* \"#utility.yul\":6734:6735   */\n      0x00\n        /* \"#utility.yul\":6723:6732   */\n      dup4\n        /* \"#utility.yul\":6719:6736   */\n      add\n        /* \"#utility.yul\":6712:6759   */\n      mstore\n        /* \"#utility.yul\":6776:6907   */\n      tag_181\n        /* \"#utility.yul\":6902:6906   */\n      dup2\n        /* \"#utility.yul\":6776:6907   */\n      tag_135\n      jump\t// in\n    tag_181:\n        /* \"#utility.yul\":6768:6907   */\n      swap1\n      pop\n        /* \"#utility.yul\":6495:6914   */\n      swap2\n      swap1\n      pop\n      jump\t// out\n        /* \"#utility.yul\":6920:7339   */\n    tag_93:\n        /* \"#utility.yul\":7086:7090   */\n      0x00\n        /* \"#utility.yul\":7124:7126   */\n      0x20\n        /* \"#utility.yul\":7113:7122   */\n      dup3\n        /* \"#utility.yul\":7109:7127   */\n      add\n        /* \"#utility.yul\":7101:7127   */\n      swap1\n      pop\n        /* \"#utility.yul\":7173:7182   */\n      dup2\n        /* \"#utility.yul\":7167:7171   */\n      dup2\n        /* \"#utility.yul\":7163:7183   */\n      sub\n        /* \"#utility.yul\":7159:7160   */\n      0x00\n        /* \"#utility.yul\":7148:7157   */\n      dup4\n        /* \"#utility.yul\":7144:7161   */\n      add\n        /* \"#utility.yul\":7137:7184   */\n      mstore\n        /* \"#utility.yul\":7201:7332   */\n      tag_183\n        /* \"#utility.yul\":7327:7331   */\n      dup2\n        /* \"#utility.yul\":7201:7332   */\n      tag_140\n      jump\t// in\n    tag_183:\n        /* \"#utility.yul\":7193:7332   */\n      swap1\n      pop\n        /* \"#utility.yul\":6920:7339   */\n      swap2\n      swap1\n      pop\n      jump\t// out\n        /* \"#utility.yul\":7345:7764   */\n    tag_57:\n        /* \"#utility.yul\":7511:7515   */\n      0x00\n        /* \"#utility.yul\":7549:7551   */\n      0x20\n        /* \"#utility.yul\":7538:7547   */\n      dup3\n        /* \"#utility.yul\":7534:7552   */\n      add\n        /* \"#utility.yul\":7526:7552   */\n      swap1\n      pop\n        /* \"#utility.yul\":7598:7607   */\n      dup2\n        /* \"#utility.yul\":7592:7596   */\n      dup2\n        /* \"#utility.yul\":7588:7608   */\n      sub\n        /* \"#utility.yul\":7584:7585   */\n      0x00\n        /* \"#utility.yul\":7573:7582   */\n      dup4\n        /* \"#utility.yul\":7569:7586   */\n      add\n        /* \"#utility.yul\":7562:7609   */\n      mstore\n        /* \"#utility.yul\":7626:7757   */\n      tag_185\n        /* \"#utility.yul\":7752:7756   */\n      dup2\n        /* \"#utility.yul\":7626:7757   */\n      tag_145\n      jump\t// in\n    tag_185:\n        /* \"#utility.yul\":7618:7757   */\n      swap1\n      pop\n        /* \"#utility.yul\":7345:7764   */\n      swap2\n      swap1\n      pop\n      jump\t// out\n        /* \"#utility.yul\":7770:8189   */\n    tag_83:\n        /* \"#utility.yul\":7936:7940   */\n      0x00\n        /* \"#utility.yul\":7974:7976   */\n      0x20\n        /* \"#utility.yul\":7963:7972   */\n      dup3\n        /* \"#utility.yul\":7959:7977   */\n      add\n        /* \"#utility.yul\":7951:7977   */\n      swap1\n      pop\n        /* \"#utility.yul\":8023:8032   */\n      dup2\n        /* \"#utility.yul\":8017:8021   */\n      dup2\n        /* \"#utility.yul\":8013:8033   */\n      sub\n        /* \"#utility.yul\":8009:8010   */\n      0x00\n        /* \"#utility.yul\":7998:8007   */\n      dup4\n        /* \"#utility.yul\":7994:8011   */\n      add\n        /* \"#utility.yul\":7987:8034   */\n      mstore\n        /* \"#utility.yul\":8051:8182   */\n      tag_187\n        /* \"#utility.yul\":8177:8181   */\n      dup2\n        /* \"#utility.yul\":8051:8182   */\n      tag_150\n      jump\t// in\n    tag_187:\n        /* \"#utility.yul\":8043:8182   */\n      swap1\n      pop\n        /* \"#utility.yul\":7770:8189   */\n      swap2\n      swap1\n      pop\n      jump\t// out\n        /* \"#utility.yul\":8195:8417   */\n    tag_14:\n        /* \"#utility.yul\":8288:8292   */\n      0x00\n        /* \"#utility.yul\":8326:8328   */\n      0x20\n        /* \"#utility.yul\":8315:8324   */\n      dup3\n        /* \"#utility.yul\":8311:8329   */\n      add\n        /* \"#utility.yul\":8303:8329   */\n      swap1\n      pop\n        /* \"#utility.yul\":8339:8410   */\n      tag_189\n        /* \"#utility.yul\":8407:8408   */\n      0x00\n        /* \"#utility.yul\":8396:8405   */\n      dup4\n        /* \"#utility.yul\":8392:8409   */\n      add\n        /* \"#utility.yul\":8383:8389   */\n      dup5\n        /* \"#utility.yul\":8339:8410   */\n      tag_161\n      jump\t// in\n    tag_189:\n        /* \"#utility.yul\":8195:8417   */\n      swap3\n      swap2\n      pop\n      pop\n      jump\t// out\n        /* \"#utility.yul\":8504:8651   */\n    tag_158:\n        /* \"#utility.yul\":8605:8616   */\n      0x00\n        /* \"#utility.yul\":8642:8645   */\n      dup2\n        /* \"#utility.yul\":8627:8645   */\n      swap1\n      pop\n        /* \"#utility.yul\":8504:8651   */\n      swap3\n      swap2\n      pop\n      pop\n      jump\t// out\n        /* \"#utility.yul\":8657:8826   */\n    tag_127:\n        /* \"#utility.yul\":8741:8752   */\n      0x00\n        /* \"#utility.yul\":8775:8781   */\n      dup3\n        /* \"#utility.yul\":8770:8773   */\n      dup3\n        /* \"#utility.yul\":8763:8782   */\n      mstore\n        /* \"#utility.yul\":8815:8819   */\n      0x20\n        /* \"#utility.yul\":8810:8813   */\n      dup3\n        /* \"#utility.yul\":8806:8820   */\n      add\n        /* \"#utility.yul\":8791:8820   */\n      swap1\n      pop\n        /* \"#utility.yul\":8657:8826   */\n      swap3\n      swap2\n      pop\n      pop\n      jump\t// out\n        /* \"#utility.yul\":8832:9017   */\n    tag_59:\n        /* \"#utility.yul\":8872:8873   */\n      0x00\n        /* \"#utility.yul\":8889:8909   */\n      tag_195\n        /* \"#utility.yul\":8907:8908   */\n      dup3\n        /* \"#utility.yul\":8889:8909   */\n      tag_164\n      jump\t// in\n    tag_195:\n        /* \"#utility.yul\":8884:8909   */\n      swap2\n      pop\n        /* \"#utility.yul\":8923:8943   */\n      tag_196\n        /* \"#utility.yul\":8941:8942   */\n      dup4\n        /* \"#utility.yul\":8923:8943   */\n      tag_164\n      jump\t// in\n    tag_196:\n        /* \"#utility.yul\":8918:8943   */\n      swap3\n      pop\n        /* \"#utility.yul\":8962:8963   */\n      dup3\n        /* \"#utility.yul\":8952:8987   */\n      tag_197\n      jumpi\n        /* \"#utility.yul\":8967:8985   */\n      tag_198\n      tag_199\n      jump\t// in\n    tag_198:\n        /* \"#utility.yul\":8952:8987   */\n    tag_197:\n        /* \"#utility.yul\":9009:9010   */\n      dup3\n        /* \"#utility.yul\":9006:9007   */\n      dup3\n        /* \"#utility.yul\":9002:9011   */\n      div\n        /* \"#utility.yul\":8997:9011   */\n      swap1\n      pop\n        /* \"#utility.yul\":8832:9017   */\n      swap3\n      swap2\n      pop\n      pop\n      jump\t// out\n        /* \"#utility.yul\":9023:9371   */\n    tag_61:\n        /* \"#utility.yul\":9063:9070   */\n      0x00\n        /* \"#utility.yul\":9086:9106   */\n      tag_201\n        /* \"#utility.yul\":9104:9105   */\n      dup3\n        /* \"#utility.yul\":9086:9106   */\n      tag_164\n      jump\t// in\n    tag_201:\n        /* \"#utility.yul\":9081:9106   */\n      swap2\n      pop\n        /* \"#utility.yul\":9120:9140   */\n      tag_202\n        /* \"#utility.yul\":9138:9139   */\n      dup4\n        /* \"#utility.yul\":9120:9140   */\n      tag_164\n      jump\t// in\n    tag_202:\n        /* \"#utility.yul\":9115:9140   */\n      swap3\n      pop\n        /* \"#utility.yul\":9308:9309   */\n      dup2\n        /* \"#utility.yul\":9240:9306   */\n      0xffffffffffffffffffffffffffffffffffffffffffffffffffffffffffffffff\n        /* \"#utility.yul\":9236:9310   */\n      div\n        /* \"#utility.yul\":9233:9234   */\n      dup4\n        /* \"#utility.yul\":9230:9311   */\n      gt\n        /* \"#utility.yul\":9225:9226   */\n      dup3\n        /* \"#utility.yul\":9218:9227   */\n      iszero\n        /* \"#utility.yul\":9211:9228   */\n      iszero\n        /* \"#utility.yul\":9207:9312   */\n      and\n        /* \"#utility.yul\":9204:9335   */\n      iszero\n      tag_203\n      jumpi\n        /* \"#utility.yul\":9315:9333   */\n      tag_204\n      tag_205\n      jump\t// in\n    tag_204:\n        /* \"#utility.yul\":9204:9335   */\n    tag_203:\n        /* \"#utility.yul\":9363:9364   */\n      dup3\n        /* \"#utility.yul\":9360:9361   */\n      dup3\n        /* \"#utility.yul\":9356:9365   */\n      mul\n        /* \"#utility.yul\":9345:9365   */\n      swap1\n      pop\n        /* \"#utility.yul\":9023:9371   */\n      swap3\n      swap2\n      pop\n      pop\n      jump\t// out\n        /* \"#utility.yul\":9377:9473   */\n    tag_115:\n        /* \"#utility.yul\":9414:9421   */\n      0x00\n        /* \"#utility.yul\":9443:9467   */\n      tag_207\n        /* \"#utility.yul\":9461:9466   */\n      dup3\n        /* \"#utility.yul\":9443:9467   */\n      tag_208\n      jump\t// in\n    tag_207:\n        /* \"#utility.yul\":9432:9467   */\n      swap1\n      pop\n        /* \"#utility.yul\":9377:9473   */\n      swap2\n      swap1\n      pop\n      jump\t// out\n        /* \"#utility.yul\":9479:9569   */\n    tag_209:\n        /* \"#utility.yul\":9513:9520   */\n      0x00\n        /* \"#utility.yul\":9556:9561   */\n      dup2\n        /* \"#utility.yul\":9549:9562   */\n      iszero\n        /* \"#utility.yul\":9542:9563   */\n      iszero\n        /* \"#utility.yul\":9531:9563   */\n      swap1\n      pop\n        /* \"#utility.yul\":9479:9569   */\n      swap2\n      swap1\n      pop\n      jump\t// out\n        /* \"#utility.yul\":9575:9701   */\n    tag_208:\n        /* \"#utility.yul\":9612:9619   */\n      0x00\n        /* \"#utility.yul\":9652:9694   */\n      0xffffffffffffffffffffffffffffffffffffffff\n        /* \"#utility.yul\":9645:9650   */\n      dup3\n        /* \"#utility.yul\":9641:9695   */\n      and\n        /* \"#utility.yul\":9630:9695   */\n      swap1\n      pop\n        /* \"#utility.yul\":9575:9701   */\n      swap2\n      swap1\n      pop\n      jump\t// out\n        /* \"#utility.yul\":9707:9784   */\n    tag_164:\n        /* \"#utility.yul\":9744:9751   */\n      0x00\n        /* \"#utility.yul\":9773:9778   */\n      dup2\n        /* \"#utility.yul\":9762:9778   */\n      swap1\n      pop\n        /* \"#utility.yul\":9707:9784   */\n      swap2\n      swap1\n      pop\n      jump\t// out\n        /* \"#utility.yul\":9790:9929   */\n    tag_119:\n        /* \"#utility.yul\":9853:9862   */\n      0x00\n        /* \"#utility.yul\":9886:9923   */\n      tag_214\n        /* \"#utility.yul\":9917:9922   */\n      dup3\n        /* \"#utility.yul\":9886:9923   */\n      tag_215\n      jump\t// in\n    tag_214:\n        /* \"#utility.yul\":9873:9923   */\n      swap1\n      pop\n        /* \"#utility.yul\":9790:9929   */\n      swap2\n      swap1\n      pop\n      jump\t// out\n        /* \"#utility.yul\":9935:10062   */\n    tag_123:\n        /* \"#utility.yul\":9999:10008   */\n      0x00\n        /* \"#utility.yul\":10032:10056   */\n      tag_217\n        /* \"#utility.yul\":10050:10055   */\n      dup3\n        /* \"#utility.yul\":10032:10056   */\n      tag_164\n      jump\t// in\n    tag_217:\n        /* \"#utility.yul\":10019:10056   */\n      swap1\n      pop\n        /* \"#utility.yul\":9935:10062   */\n      swap2\n      swap1\n      pop\n      jump\t// out\n        /* \"#utility.yul\":10068:10194   */\n    tag_215:\n        /* \"#utility.yul\":10118:10127   */\n      0x00\n        /* \"#utility.yul\":10151:10188   */\n      tag_219\n        /* \"#utility.yul\":10182:10187   */\n      dup3\n        /* \"#utility.yul\":10151:10188   */\n      tag_220\n      jump\t// in\n    tag_219:\n        /* \"#utility.yul\":10138:10188   */\n      swap1\n      pop\n        /* \"#utility.yul\":10068:10194   */\n      swap2\n      swap1\n      pop\n      jump\t// out\n        /* \"#utility.yul\":10200:10313   */\n    tag_220:\n        /* \"#utility.yul\":10250:10259   */\n      0x00\n        /* \"#utility.yul\":10283:10307   */\n      tag_222\n        /* \"#utility.yul\":10301:10306   */\n      dup3\n        /* \"#utility.yul\":10283:10307   */\n      tag_208\n      jump\t// in\n    tag_222:\n        /* \"#utility.yul\":10270:10307   */\n      swap1\n      pop\n        /* \"#utility.yul\":10200:10313   */\n      swap2\n      swap1\n      pop\n      jump\t// out\n        /* \"#utility.yul\":10319:10499   */\n    tag_205:\n        /* \"#utility.yul\":10367:10444   */\n      0x4e487b7100000000000000000000000000000000000000000000000000000000\n        /* \"#utility.yul\":10364:10365   */\n      0x00\n        /* \"#utility.yul\":10357:10445   */\n      mstore\n        /* \"#utility.yul\":10464:10468   */\n      0x11\n        /* \"#utility.yul\":10461:10462   */\n      0x04\n        /* \"#utility.yul\":10454:10469   */\n      mstore\n        /* \"#utility.yul\":10488:10492   */\n      0x24\n        /* \"#utility.yul\":10485:10486   */\n      0x00\n        /* \"#utility.yul\":10478:10493   */\n      revert\n        /* \"#utility.yul\":10505:10685   */\n    tag_199:\n        /* \"#utility.yul\":10553:10630   */\n      0x4e487b7100000000000000000000000000000000000000000000000000000000\n        /* \"#utility.yul\":10550:10551   */\n      0x00\n        /* \"#utility.yul\":10543:10631   */\n      mstore\n        /* \"#utility.yul\":10650:10654   */\n      0x12\n        /* \"#utility.yul\":10647:10648   */\n      0x04\n        /* \"#utility.yul\":10640:10655   */\n      mstore\n        /* \"#utility.yul\":10674:10678   */\n      0x24\n        /* \"#utility.yul\":10671:10672   */\n      0x00\n        /* \"#utility.yul\":10664:10679   */\n      revert\n        /* \"#utility.yul\":10814:10931   */\n    tag_106:\n        /* \"#utility.yul\":10923:10924   */\n      0x00\n        /* \"#utility.yul\":10920:10921   */\n      dup1\n        /* \"#utility.yul\":10913:10925   */\n      revert\n        /* \"#utility.yul\":10937:11107   */\n    tag_129:\n        /* \"#utility.yul\":11077:11099   */\n      0x4661696c656420746f2073656e64204574686572000000000000000000000000\n        /* \"#utility.yul\":11073:11074   */\n      0x00\n        /* \"#utility.yul\":11065:11071   */\n      dup3\n        /* \"#utility.yul\":11061:11075   */\n      add\n        /* \"#utility.yul\":11054:11100   */\n      mstore\n        /* \"#utility.yul\":10937:11107   */\n      pop\n      jump\t// out\n        /* \"#utility.yul\":11113:11273   */\n    tag_134:\n        /* \"#utility.yul\":11253:11265   */\n      0x4e6f7420656e6f75676800000000000000000000000000000000000000000000\n        /* \"#utility.yul\":11249:11250   */\n      0x00\n        /* \"#utility.yul\":11241:11247   */\n      dup3\n        /* \"#utility.yul\":11237:11251   */\n      add\n        /* \"#utility.yul\":11230:11266   */\n      mstore\n        /* \"#utility.yul\":11113:11273   */\n      pop\n      jump\t// out\n        /* \"#utility.yul\":11279:11437   */\n    tag_139:\n        /* \"#utility.yul\":11419:11429   */\n      0x6e6f746f776e6572000000000000000000000000000000000000000000000000\n        /* \"#utility.yul\":11415:11416   */\n      0x00\n        /* \"#utility.yul\":11407:11413   */\n      dup3\n        /* \"#utility.yul\":11403:11417   */\n      add\n        /* \"#utility.yul\":11396:11430   */\n      mstore\n        /* \"#utility.yul\":11279:11437   */\n      pop\n      jump\t// out\n        /* \"#utility.yul\":11443:11614   */\n    tag_144:\n        /* \"#utility.yul\":11583:11606   */\n      0x546f6b656e207472616e73666572206661696c65640000000000000000000000\n        /* \"#utility.yul\":11579:11580   */\n      0x00\n        /* \"#utility.yul\":11571:11577   */\n      dup3\n        /* \"#utility.yul\":11567:11581   */\n      add\n        /* \"#utility.yul\":11560:11607   */\n      mstore\n        /* \"#utility.yul\":11443:11614   */\n      pop\n      jump\t// out\n        /* \"#utility.yul\":11620:11796   */\n    tag_149:\n        /* \"#utility.yul\":11760:11788   */\n      0x4d696e696d756d20747261646520616d6f756e74203120626e62000000000000\n        /* \"#utility.yul\":11756:11757   */\n      0x00\n        /* \"#utility.yul\":11748:11754   */\n      dup3\n        /* \"#utility.yul\":11744:11758   */\n      add\n        /* \"#utility.yul\":11737:11789   */\n      mstore\n        /* \"#utility.yul\":11620:11796   */\n      pop\n      jump\t// out\n        /* \"#utility.yul\":11802:11968   */\n    tag_154:\n        /* \"#utility.yul\":11942:11960   */\n      0x5472616e73666572206661696c65642100000000000000000000000000000000\n        /* \"#utility.yul\":11938:11939   */\n      0x00\n        /* \"#utility.yul\":11930:11936   */\n      dup3\n        /* \"#utility.yul\":11926:11940   */\n      add\n        /* \"#utility.yul\":11919:11961   */\n      mstore\n        /* \"#utility.yul\":11802:11968   */\n      pop\n      jump\t// out\n        /* \"#utility.yul\":11974:12088   */\n    tag_160:\n      pop\n      jump\t// out\n        /* \"#utility.yul\":12094:12210   */\n    tag_98:\n        /* \"#utility.yul\":12164:12185   */\n      tag_236\n        /* \"#utility.yul\":12179:12184   */\n      dup2\n        /* \"#utility.yul\":12164:12185   */\n      tag_209\n      jump\t// in\n    tag_236:\n        /* \"#utility.yul\":12157:12162   */\n      dup2\n        /* \"#utility.yul\":12154:12186   */\n      eq\n        /* \"#utility.yul\":12144:12204   */\n      tag_237\n      jumpi\n        /* \"#utility.yul\":12200:12201   */\n      0x00\n        /* \"#utility.yul\":12197:12198   */\n      dup1\n        /* \"#utility.yul\":12190:12202   */\n      revert\n        /* \"#utility.yul\":12144:12204   */\n    tag_237:\n        /* \"#utility.yul\":12094:12210   */\n      pop\n      jump\t// out\n        /* \"#utility.yul\":12216:12338   */\n    tag_102:\n        /* \"#utility.yul\":12289:12313   */\n      tag_239\n        /* \"#utility.yul\":12307:12312   */\n      dup2\n        /* \"#utility.yul\":12289:12313   */\n      tag_164\n      jump\t// in\n    tag_239:\n        /* \"#utility.yul\":12282:12287   */\n      dup2\n        /* \"#utility.yul\":12279:12314   */\n      eq\n        /* \"#utility.yul\":12269:12332   */\n      tag_240\n      jumpi\n        /* \"#utility.yul\":12328:12329   */\n      0x00\n        /* \"#utility.yul\":12325:12326   */\n      dup1\n        /* \"#utility.yul\":12318:12330   */\n      revert\n        /* \"#utility.yul\":12269:12332   */\n    tag_240:\n        /* \"#utility.yul\":12216:12338   */\n      pop\n      jump\t// out\n\n    auxdata: 0xa2646970667358221220b4532987908b048d52dea8380947f2eb722911b810836321e7c3f8323b7e450364736f6c63430008070033\n}\n",
				"bytecode": {
					"linkReferences": {},
					"object": "60806040523480156200001157600080fd5b50336000806101000a81548173ffffffffffffffffffffffffffffffffffffffff021916908373ffffffffffffffffffffffffffffffffffffffff16021790555062030d4060018190555073d9145cce52d386f254917e481eb44e9943f39138600260006101000a81548173ffffffffffffffffffffffffffffffffffffffff021916908373ffffffffffffffffffffffffffffffffffffffff160217905550600260009054906101000a900473ffffffffffffffffffffffffffffffffffffffff1673ffffffffffffffffffffffffffffffffffffffff166370a08231306040518263ffffffff1660e01b81526004016200010e9190620001c8565b60206040518083038186803b1580156200012757600080fd5b505afa1580156200013c573d6000803e3d6000fd5b505050506040513d601f19601f8201168201806040525081019062000162919062000185565b60038190555062000242565b6000815190506200017f8162000228565b92915050565b6000602082840312156200019e576200019d62000223565b5b6000620001ae848285016200016e565b91505092915050565b620001c281620001e5565b82525050565b6000602082019050620001df6000830184620001b7565b92915050565b6000620001f282620001f9565b9050919050565b600073ffffffffffffffffffffffffffffffffffffffff82169050919050565b6000819050919050565b600080fd5b620002338162000219565b81146200023f57600080fd5b50565b610cf480620002526000396000f3fe6080604052600436106100705760003560e01c806380c314261161004e57806380c31426146100e2578063817e9d31146100fe578063ade87ecc14610127578063ebc4197c1461014357610070565b8063213fbeb01461007557806323b160ac146100a05780633cb40e16146100cb575b600080fd5b34801561008157600080fd5b5061008a61016e565b60405161009791906109e2565b60405180910390f35b3480156100ac57600080fd5b506100b5610174565b6040516100c29190610907565b60405180910390f35b3480156100d757600080fd5b506100e061019a565b005b6100fc60048036038101906100f79190610734565b61033d565b005b34801561010a57600080fd5b5061012560048036038101906101209190610734565b61041c565b005b610141600480360381019061013c9190610734565b6104b4565b005b34801561014f57600080fd5b506101586105fd565b60405161016591906109e2565b60405180910390f35b60035481565b600260009054906101000a900473ffffffffffffffffffffffffffffffffffffffff1681565b60008060009054906101000a900473ffffffffffffffffffffffffffffffffffffffff1673ffffffffffffffffffffffffffffffffffffffff16476040516101e190610892565b60006040518083038185875af1925050503d806000811461021e576040519150601f19603f3d011682016040523d82523d6000602084013e610223565b606091505b5050905080610267576040517f08c379a000000000000000000000000000000000000000000000000000000000815260040161025e90610922565b60405180910390fd5b600260009054906101000a900473ffffffffffffffffffffffffffffffffffffffff1673ffffffffffffffffffffffffffffffffffffffff1663a9059cbb60008054906101000a900473ffffffffffffffffffffffffffffffffffffffff16620f42406040518363ffffffff1660e01b81526004016102e79291906108de565b602060405180830381600087803b15801561030157600080fd5b505af1158015610315573d6000803e3d6000fd5b505050506040513d601f19601f820116820180604052508101906103399190610707565b5050565b600154811015610382576040517f08c379a0000000000000000000000000000000000000000000000000000000008152600401610379906109a2565b60405180910390fd5b6000670de0b6b3a76400006001548361039b9190610a19565b6103a59190610a4a565b9050803410156103ea576040517f08c379a00000000000000000000000000000000000000000000000000000000081526004016103e190610942565b60405180910390fd5b610418600260009054906101000a900473ffffffffffffffffffffffffffffffffffffffff16303385610603565b5050565b60008054906101000a900473ffffffffffffffffffffffffffffffffffffffff1673ffffffffffffffffffffffffffffffffffffffff163373ffffffffffffffffffffffffffffffffffffffff16146104aa576040517f08c379a00000000000000000000000000000000000000000000000000000000081526004016104a190610962565b60405180910390fd5b8060018190555050565b6001548110156104f9576040517f08c379a00000000000000000000000000000000000000000000000000000000081526004016104f0906109a2565b60405180910390fd5b610527600260009054906101000a900473ffffffffffffffffffffffffffffffffffffffff16333084610603565b6000670de0b6b3a7640000600154836105409190610a19565b61054a9190610a4a565b905060003373ffffffffffffffffffffffffffffffffffffffff168260405161057290610892565b60006040518083038185875af1925050503d80600081146105af576040519150601f19603f3d011682016040523d82523d6000602084013e6105b4565b606091505b50509050806105f8576040517f08c379a00000000000000000000000000000000000000000000000000000000081526004016105ef906109c2565b60405180910390fd5b505050565b60015481565b60008473ffffffffffffffffffffffffffffffffffffffff166323b872dd8585856040518463ffffffff1660e01b8152600401610642939291906108a7565b602060405180830381600087803b15801561065c57600080fd5b505af1158015610670573d6000803e3d6000fd5b505050506040513d601f19601f820116820180604052508101906106949190610707565b9050806106d6576040517f08c379a00000000000000000000000000000000000000000000000000000000081526004016106cd90610982565b60405180910390fd5b5050505050565b6000815190506106ec81610c90565b92915050565b60008135905061070181610ca7565b92915050565b60006020828403121561071d5761071c610b92565b5b600061072b848285016106dd565b91505092915050565b60006020828403121561074a57610749610b92565b5b6000610758848285016106f2565b91505092915050565b61076a81610aa4565b82525050565b61077981610aec565b82525050565b61078881610afe565b82525050565b600061079b601483610a08565b91506107a682610b97565b602082019050919050565b60006107be600a83610a08565b91506107c982610bc0565b602082019050919050565b60006107e1600883610a08565b91506107ec82610be9565b602082019050919050565b6000610804601583610a08565b915061080f82610c12565b602082019050919050565b6000610827601a83610a08565b915061083282610c3b565b602082019050919050565b600061084a601083610a08565b915061085582610c64565b602082019050919050565b600061086d6000836109fd565b915061087882610c8d565b600082019050919050565b61088c81610ae2565b82525050565b600061089d82610860565b9150819050919050565b60006060820190506108bc6000830186610761565b6108c96020830185610761565b6108d66040830184610883565b949350505050565b60006040820190506108f36000830185610761565b610900602083018461077f565b9392505050565b600060208201905061091c6000830184610770565b92915050565b6000602082019050818103600083015261093b8161078e565b9050919050565b6000602082019050818103600083015261095b816107b1565b9050919050565b6000602082019050818103600083015261097b816107d4565b9050919050565b6000602082019050818103600083015261099b816107f7565b9050919050565b600060208201905081810360008301526109bb8161081a565b9050919050565b600060208201905081810360008301526109db8161083d565b9050919050565b60006020820190506109f76000830184610883565b92915050565b600081905092915050565b600082825260208201905092915050565b6000610a2482610ae2565b9150610a2f83610ae2565b925082610a3f57610a3e610b63565b5b828204905092915050565b6000610a5582610ae2565b9150610a6083610ae2565b9250817fffffffffffffffffffffffffffffffffffffffffffffffffffffffffffffffff0483118215151615610a9957610a98610b34565b5b828202905092915050565b6000610aaf82610ac2565b9050919050565b60008115159050919050565b600073ffffffffffffffffffffffffffffffffffffffff82169050919050565b6000819050919050565b6000610af782610b10565b9050919050565b6000610b0982610ae2565b9050919050565b6000610b1b82610b22565b9050919050565b6000610b2d82610ac2565b9050919050565b7f4e487b7100000000000000000000000000000000000000000000000000000000600052601160045260246000fd5b7f4e487b7100000000000000000000000000000000000000000000000000000000600052601260045260246000fd5b600080fd5b7f4661696c656420746f2073656e64204574686572000000000000000000000000600082015250565b7f4e6f7420656e6f75676800000000000000000000000000000000000000000000600082015250565b7f6e6f746f776e6572000000000000000000000000000000000000000000000000600082015250565b7f546f6b656e207472616e73666572206661696c65640000000000000000000000600082015250565b7f4d696e696d756d20747261646520616d6f756e74203120626e62000000000000600082015250565b7f5472616e73666572206661696c65642100000000000000000000000000000000600082015250565b50565b610c9981610ab6565b8114610ca457600080fd5b50565b610cb081610ae2565b8114610cbb57600080fd5b5056fea2646970667358221220b4532987908b048d52dea8380947f2eb722911b810836321e7c3f8323b7e450364736f6c63430008070033",
					"opcodes": "PUSH1 0x80 PUSH1 0x40 MSTORE CALLVALUE DUP1 ISZERO PUSH3 0x11 JUMPI PUSH1 0x0 DUP1 REVERT JUMPDEST POP CALLER PUSH1 0x0 DUP1 PUSH2 0x100 EXP DUP2 SLOAD DUP2 PUSH20 0xFFFFFFFFFFFFFFFFFFFFFFFFFFFFFFFFFFFFFFFF MUL NOT AND SWAP1 DUP4 PUSH20 0xFFFFFFFFFFFFFFFFFFFFFFFFFFFFFFFFFFFFFFFF AND MUL OR SWAP1 SSTORE POP PUSH3 0x30D40 PUSH1 0x1 DUP2 SWAP1 SSTORE POP PUSH20 0xD9145CCE52D386F254917E481EB44E9943F39138 PUSH1 0x2 PUSH1 0x0 PUSH2 0x100 EXP DUP2 SLOAD DUP2 PUSH20 0xFFFFFFFFFFFFFFFFFFFFFFFFFFFFFFFFFFFFFFFF MUL NOT AND SWAP1 DUP4 PUSH20 0xFFFFFFFFFFFFFFFFFFFFFFFFFFFFFFFFFFFFFFFF AND MUL OR SWAP1 SSTORE POP PUSH1 0x2 PUSH1 0x0 SWAP1 SLOAD SWAP1 PUSH2 0x100 EXP SWAP1 DIV PUSH20 0xFFFFFFFFFFFFFFFFFFFFFFFFFFFFFFFFFFFFFFFF AND PUSH20 0xFFFFFFFFFFFFFFFFFFFFFFFFFFFFFFFFFFFFFFFF AND PUSH4 0x70A08231 ADDRESS PUSH1 0x40 MLOAD DUP3 PUSH4 0xFFFFFFFF AND PUSH1 0xE0 SHL DUP2 MSTORE PUSH1 0x4 ADD PUSH3 0x10E SWAP2 SWAP1 PUSH3 0x1C8 JUMP JUMPDEST PUSH1 0x20 PUSH1 0x40 MLOAD DUP1 DUP4 SUB DUP2 DUP7 DUP1 EXTCODESIZE ISZERO DUP1 ISZERO PUSH3 0x127 JUMPI PUSH1 0x0 DUP1 REVERT JUMPDEST POP GAS STATICCALL ISZERO DUP1 ISZERO PUSH3 0x13C JUMPI RETURNDATASIZE PUSH1 0x0 DUP1 RETURNDATACOPY RETURNDATASIZE PUSH1 0x0 REVERT JUMPDEST POP POP POP POP PUSH1 0x40 MLOAD RETURNDATASIZE PUSH1 0x1F NOT PUSH1 0x1F DUP3 ADD AND DUP3 ADD DUP1 PUSH1 0x40 MSTORE POP DUP2 ADD SWAP1 PUSH3 0x162 SWAP2 SWAP1 PUSH3 0x185 JUMP JUMPDEST PUSH1 0x3 DUP2 SWAP1 SSTORE POP PUSH3 0x242 JUMP JUMPDEST PUSH1 0x0 DUP2 MLOAD SWAP1 POP PUSH3 0x17F DUP2 PUSH3 0x228 JUMP JUMPDEST SWAP3 SWAP2 POP POP JUMP JUMPDEST PUSH1 0x0 PUSH1 0x20 DUP3 DUP5 SUB SLT ISZERO PUSH3 0x19E JUMPI PUSH3 0x19D PUSH3 0x223 JUMP JUMPDEST JUMPDEST PUSH1 0x0 PUSH3 0x1AE DUP5 DUP3 DUP6 ADD PUSH3 0x16E JUMP JUMPDEST SWAP2 POP POP SWAP3 SWAP2 POP POP JUMP JUMPDEST PUSH3 0x1C2 DUP2 PUSH3 0x1E5 JUMP JUMPDEST DUP3 MSTORE POP POP JUMP JUMPDEST PUSH1 0x0 PUSH1 0x20 DUP3 ADD SWAP1 POP PUSH3 0x1DF PUSH1 0x0 DUP4 ADD DUP5 PUSH3 0x1B7 JUMP JUMPDEST SWAP3 SWAP2 POP POP JUMP JUMPDEST PUSH1 0x0 PUSH3 0x1F2 DUP3 PUSH3 0x1F9 JUMP JUMPDEST SWAP1 POP SWAP2 SWAP1 POP JUMP JUMPDEST PUSH1 0x0 PUSH20 0xFFFFFFFFFFFFFFFFFFFFFFFFFFFFFFFFFFFFFFFF DUP3 AND SWAP1 POP SWAP2 SWAP1 POP JUMP JUMPDEST PUSH1 0x0 DUP2 SWAP1 POP SWAP2 SWAP1 POP JUMP JUMPDEST PUSH1 0x0 DUP1 REVERT JUMPDEST PUSH3 0x233 DUP2 PUSH3 0x219 JUMP JUMPDEST DUP2 EQ PUSH3 0x23F JUMPI PUSH1 0x0 DUP1 REVERT JUMPDEST POP JUMP JUMPDEST PUSH2 0xCF4 DUP1 PUSH3 0x252 PUSH1 0x0 CODECOPY PUSH1 0x0 RETURN INVALID PUSH1 0x80 PUSH1 0x40 MSTORE PUSH1 0x4 CALLDATASIZE LT PUSH2 0x70 JUMPI PUSH1 0x0 CALLDATALOAD PUSH1 0xE0 SHR DUP1 PUSH4 0x80C31426 GT PUSH2 0x4E JUMPI DUP1 PUSH4 0x80C31426 EQ PUSH2 0xE2 JUMPI DUP1 PUSH4 0x817E9D31 EQ PUSH2 0xFE JUMPI DUP1 PUSH4 0xADE87ECC EQ PUSH2 0x127 JUMPI DUP1 PUSH4 0xEBC4197C EQ PUSH2 0x143 JUMPI PUSH2 0x70 JUMP JUMPDEST DUP1 PUSH4 0x213FBEB0 EQ PUSH2 0x75 JUMPI DUP1 PUSH4 0x23B160AC EQ PUSH2 0xA0 JUMPI DUP1 PUSH4 0x3CB40E16 EQ PUSH2 0xCB JUMPI JUMPDEST PUSH1 0x0 DUP1 REVERT JUMPDEST CALLVALUE DUP1 ISZERO PUSH2 0x81 JUMPI PUSH1 0x0 DUP1 REVERT JUMPDEST POP PUSH2 0x8A PUSH2 0x16E JUMP JUMPDEST PUSH1 0x40 MLOAD PUSH2 0x97 SWAP2 SWAP1 PUSH2 0x9E2 JUMP JUMPDEST PUSH1 0x40 MLOAD DUP1 SWAP2 SUB SWAP1 RETURN JUMPDEST CALLVALUE DUP1 ISZERO PUSH2 0xAC JUMPI PUSH1 0x0 DUP1 REVERT JUMPDEST POP PUSH2 0xB5 PUSH2 0x174 JUMP JUMPDEST PUSH1 0x40 MLOAD PUSH2 0xC2 SWAP2 SWAP1 PUSH2 0x907 JUMP JUMPDEST PUSH1 0x40 MLOAD DUP1 SWAP2 SUB SWAP1 RETURN JUMPDEST CALLVALUE DUP1 ISZERO PUSH2 0xD7 JUMPI PUSH1 0x0 DUP1 REVERT JUMPDEST POP PUSH2 0xE0 PUSH2 0x19A JUMP JUMPDEST STOP JUMPDEST PUSH2 0xFC PUSH1 0x4 DUP1 CALLDATASIZE SUB DUP2 ADD SWAP1 PUSH2 0xF7 SWAP2 SWAP1 PUSH2 0x734 JUMP JUMPDEST PUSH2 0x33D JUMP JUMPDEST STOP JUMPDEST CALLVALUE DUP1 ISZERO PUSH2 0x10A JUMPI PUSH1 0x0 DUP1 REVERT JUMPDEST POP PUSH2 0x125 PUSH1 0x4 DUP1 CALLDATASIZE SUB DUP2 ADD SWAP1 PUSH2 0x120 SWAP2 SWAP1 PUSH2 0x734 JUMP JUMPDEST PUSH2 0x41C JUMP JUMPDEST STOP JUMPDEST PUSH2 0x141 PUSH1 0x4 DUP1 CALLDATASIZE SUB DUP2 ADD SWAP1 PUSH2 0x13C SWAP2 SWAP1 PUSH2 0x734 JUMP JUMPDEST PUSH2 0x4B4 JUMP JUMPDEST STOP JUMPDEST CALLVALUE DUP1 ISZERO PUSH2 0x14F JUMPI PUSH1 0x0 DUP1 REVERT JUMPDEST POP PUSH2 0x158 PUSH2 0x5FD JUMP JUMPDEST PUSH1 0x40 MLOAD PUSH2 0x165 SWAP2 SWAP1 PUSH2 0x9E2 JUMP JUMPDEST PUSH1 0x40 MLOAD DUP1 SWAP2 SUB SWAP1 RETURN JUMPDEST PUSH1 0x3 SLOAD DUP2 JUMP JUMPDEST PUSH1 0x2 PUSH1 0x0 SWAP1 SLOAD SWAP1 PUSH2 0x100 EXP SWAP1 DIV PUSH20 0xFFFFFFFFFFFFFFFFFFFFFFFFFFFFFFFFFFFFFFFF AND DUP2 JUMP JUMPDEST PUSH1 0x0 DUP1 PUSH1 0x0 SWAP1 SLOAD SWAP1 PUSH2 0x100 EXP SWAP1 DIV PUSH20 0xFFFFFFFFFFFFFFFFFFFFFFFFFFFFFFFFFFFFFFFF AND PUSH20 0xFFFFFFFFFFFFFFFFFFFFFFFFFFFFFFFFFFFFFFFF AND SELFBALANCE PUSH1 0x40 MLOAD PUSH2 0x1E1 SWAP1 PUSH2 0x892 JUMP JUMPDEST PUSH1 0x0 PUSH1 0x40 MLOAD DUP1 DUP4 SUB DUP2 DUP6 DUP8 GAS CALL SWAP3 POP POP POP RETURNDATASIZE DUP1 PUSH1 0x0 DUP2 EQ PUSH2 0x21E JUMPI PUSH1 0x40 MLOAD SWAP2 POP PUSH1 0x1F NOT PUSH1 0x3F RETURNDATASIZE ADD AND DUP3 ADD PUSH1 0x40 MSTORE RETURNDATASIZE DUP3 MSTORE RETURNDATASIZE PUSH1 0x0 PUSH1 0x20 DUP5 ADD RETURNDATACOPY PUSH2 0x223 JUMP JUMPDEST PUSH1 0x60 SWAP2 POP JUMPDEST POP POP SWAP1 POP DUP1 PUSH2 0x267 JUMPI PUSH1 0x40 MLOAD PUSH32 0x8C379A000000000000000000000000000000000000000000000000000000000 DUP2 MSTORE PUSH1 0x4 ADD PUSH2 0x25E SWAP1 PUSH2 0x922 JUMP JUMPDEST PUSH1 0x40 MLOAD DUP1 SWAP2 SUB SWAP1 REVERT JUMPDEST PUSH1 0x2 PUSH1 0x0 SWAP1 SLOAD SWAP1 PUSH2 0x100 EXP SWAP1 DIV PUSH20 0xFFFFFFFFFFFFFFFFFFFFFFFFFFFFFFFFFFFFFFFF AND PUSH20 0xFFFFFFFFFFFFFFFFFFFFFFFFFFFFFFFFFFFFFFFF AND PUSH4 0xA9059CBB PUSH1 0x0 DUP1 SLOAD SWAP1 PUSH2 0x100 EXP SWAP1 DIV PUSH20 0xFFFFFFFFFFFFFFFFFFFFFFFFFFFFFFFFFFFFFFFF AND PUSH3 0xF4240 PUSH1 0x40 MLOAD DUP4 PUSH4 0xFFFFFFFF AND PUSH1 0xE0 SHL DUP2 MSTORE PUSH1 0x4 ADD PUSH2 0x2E7 SWAP3 SWAP2 SWAP1 PUSH2 0x8DE JUMP JUMPDEST PUSH1 0x20 PUSH1 0x40 MLOAD DUP1 DUP4 SUB DUP2 PUSH1 0x0 DUP8 DUP1 EXTCODESIZE ISZERO DUP1 ISZERO PUSH2 0x301 JUMPI PUSH1 0x0 DUP1 REVERT JUMPDEST POP GAS CALL ISZERO DUP1 ISZERO PUSH2 0x315 JUMPI RETURNDATASIZE PUSH1 0x0 DUP1 RETURNDATACOPY RETURNDATASIZE PUSH1 0x0 REVERT JUMPDEST POP POP POP POP PUSH1 0x40 MLOAD RETURNDATASIZE PUSH1 0x1F NOT PUSH1 0x1F DUP3 ADD AND DUP3 ADD DUP1 PUSH1 0x40 MSTORE POP DUP2 ADD SWAP1 PUSH2 0x339 SWAP2 SWAP1 PUSH2 0x707 JUMP JUMPDEST POP POP JUMP JUMPDEST PUSH1 0x1 SLOAD DUP2 LT ISZERO PUSH2 0x382 JUMPI PUSH1 0x40 MLOAD PUSH32 0x8C379A000000000000000000000000000000000000000000000000000000000 DUP2 MSTORE PUSH1 0x4 ADD PUSH2 0x379 SWAP1 PUSH2 0x9A2 JUMP JUMPDEST PUSH1 0x40 MLOAD DUP1 SWAP2 SUB SWAP1 REVERT JUMPDEST PUSH1 0x0 PUSH8 0xDE0B6B3A7640000 PUSH1 0x1 SLOAD DUP4 PUSH2 0x39B SWAP2 SWAP1 PUSH2 0xA19 JUMP JUMPDEST PUSH2 0x3A5 SWAP2 SWAP1 PUSH2 0xA4A JUMP JUMPDEST SWAP1 POP DUP1 CALLVALUE LT ISZERO PUSH2 0x3EA JUMPI PUSH1 0x40 MLOAD PUSH32 0x8C379A000000000000000000000000000000000000000000000000000000000 DUP2 MSTORE PUSH1 0x4 ADD PUSH2 0x3E1 SWAP1 PUSH2 0x942 JUMP JUMPDEST PUSH1 0x40 MLOAD DUP1 SWAP2 SUB SWAP1 REVERT JUMPDEST PUSH2 0x418 PUSH1 0x2 PUSH1 0x0 SWAP1 SLOAD SWAP1 PUSH2 0x100 EXP SWAP1 DIV PUSH20 0xFFFFFFFFFFFFFFFFFFFFFFFFFFFFFFFFFFFFFFFF AND ADDRESS CALLER DUP6 PUSH2 0x603 JUMP JUMPDEST POP POP JUMP JUMPDEST PUSH1 0x0 DUP1 SLOAD SWAP1 PUSH2 0x100 EXP SWAP1 DIV PUSH20 0xFFFFFFFFFFFFFFFFFFFFFFFFFFFFFFFFFFFFFFFF AND PUSH20 0xFFFFFFFFFFFFFFFFFFFFFFFFFFFFFFFFFFFFFFFF AND CALLER PUSH20 0xFFFFFFFFFFFFFFFFFFFFFFFFFFFFFFFFFFFFFFFF AND EQ PUSH2 0x4AA JUMPI PUSH1 0x40 MLOAD PUSH32 0x8C379A000000000000000000000000000000000000000000000000000000000 DUP2 MSTORE PUSH1 0x4 ADD PUSH2 0x4A1 SWAP1 PUSH2 0x962 JUMP JUMPDEST PUSH1 0x40 MLOAD DUP1 SWAP2 SUB SWAP1 REVERT JUMPDEST DUP1 PUSH1 0x1 DUP2 SWAP1 SSTORE POP POP JUMP JUMPDEST PUSH1 0x1 SLOAD DUP2 LT ISZERO PUSH2 0x4F9 JUMPI PUSH1 0x40 MLOAD PUSH32 0x8C379A000000000000000000000000000000000000000000000000000000000 DUP2 MSTORE PUSH1 0x4 ADD PUSH2 0x4F0 SWAP1 PUSH2 0x9A2 JUMP JUMPDEST PUSH1 0x40 MLOAD DUP1 SWAP2 SUB SWAP1 REVERT JUMPDEST PUSH2 0x527 PUSH1 0x2 PUSH1 0x0 SWAP1 SLOAD SWAP1 PUSH2 0x100 EXP SWAP1 DIV PUSH20 0xFFFFFFFFFFFFFFFFFFFFFFFFFFFFFFFFFFFFFFFF AND CALLER ADDRESS DUP5 PUSH2 0x603 JUMP JUMPDEST PUSH1 0x0 PUSH8 0xDE0B6B3A7640000 PUSH1 0x1 SLOAD DUP4 PUSH2 0x540 SWAP2 SWAP1 PUSH2 0xA19 JUMP JUMPDEST PUSH2 0x54A SWAP2 SWAP1 PUSH2 0xA4A JUMP JUMPDEST SWAP1 POP PUSH1 0x0 CALLER PUSH20 0xFFFFFFFFFFFFFFFFFFFFFFFFFFFFFFFFFFFFFFFF AND DUP3 PUSH1 0x40 MLOAD PUSH2 0x572 SWAP1 PUSH2 0x892 JUMP JUMPDEST PUSH1 0x0 PUSH1 0x40 MLOAD DUP1 DUP4 SUB DUP2 DUP6 DUP8 GAS CALL SWAP3 POP POP POP RETURNDATASIZE DUP1 PUSH1 0x0 DUP2 EQ PUSH2 0x5AF JUMPI PUSH1 0x40 MLOAD SWAP2 POP PUSH1 0x1F NOT PUSH1 0x3F RETURNDATASIZE ADD AND DUP3 ADD PUSH1 0x40 MSTORE RETURNDATASIZE DUP3 MSTORE RETURNDATASIZE PUSH1 0x0 PUSH1 0x20 DUP5 ADD RETURNDATACOPY PUSH2 0x5B4 JUMP JUMPDEST PUSH1 0x60 SWAP2 POP JUMPDEST POP POP SWAP1 POP DUP1 PUSH2 0x5F8 JUMPI PUSH1 0x40 MLOAD PUSH32 0x8C379A000000000000000000000000000000000000000000000000000000000 DUP2 MSTORE PUSH1 0x4 ADD PUSH2 0x5EF SWAP1 PUSH2 0x9C2 JUMP JUMPDEST PUSH1 0x40 MLOAD DUP1 SWAP2 SUB SWAP1 REVERT JUMPDEST POP POP POP JUMP JUMPDEST PUSH1 0x1 SLOAD DUP2 JUMP JUMPDEST PUSH1 0x0 DUP5 PUSH20 0xFFFFFFFFFFFFFFFFFFFFFFFFFFFFFFFFFFFFFFFF AND PUSH4 0x23B872DD DUP6 DUP6 DUP6 PUSH1 0x40 MLOAD DUP5 PUSH4 0xFFFFFFFF AND PUSH1 0xE0 SHL DUP2 MSTORE PUSH1 0x4 ADD PUSH2 0x642 SWAP4 SWAP3 SWAP2 SWAP1 PUSH2 0x8A7 JUMP JUMPDEST PUSH1 0x20 PUSH1 0x40 MLOAD DUP1 DUP4 SUB DUP2 PUSH1 0x0 DUP8 DUP1 EXTCODESIZE ISZERO DUP1 ISZERO PUSH2 0x65C JUMPI PUSH1 0x0 DUP1 REVERT JUMPDEST POP GAS CALL ISZERO DUP1 ISZERO PUSH2 0x670 JUMPI RETURNDATASIZE PUSH1 0x0 DUP1 RETURNDATACOPY RETURNDATASIZE PUSH1 0x0 REVERT JUMPDEST POP POP POP POP PUSH1 0x40 MLOAD RETURNDATASIZE PUSH1 0x1F NOT PUSH1 0x1F DUP3 ADD AND DUP3 ADD DUP1 PUSH1 0x40 MSTORE POP DUP2 ADD SWAP1 PUSH2 0x694 SWAP2 SWAP1 PUSH2 0x707 JUMP JUMPDEST SWAP1 POP DUP1 PUSH2 0x6D6 JUMPI PUSH1 0x40 MLOAD PUSH32 0x8C379A000000000000000000000000000000000000000000000000000000000 DUP2 MSTORE PUSH1 0x4 ADD PUSH2 0x6CD SWAP1 PUSH2 0x982 JUMP JUMPDEST PUSH1 0x40 MLOAD DUP1 SWAP2 SUB SWAP1 REVERT JUMPDEST POP POP POP POP POP JUMP JUMPDEST PUSH1 0x0 DUP2 MLOAD SWAP1 POP PUSH2 0x6EC DUP2 PUSH2 0xC90 JUMP JUMPDEST SWAP3 SWAP2 POP POP JUMP JUMPDEST PUSH1 0x0 DUP2 CALLDATALOAD SWAP1 POP PUSH2 0x701 DUP2 PUSH2 0xCA7 JUMP JUMPDEST SWAP3 SWAP2 POP POP JUMP JUMPDEST PUSH1 0x0 PUSH1 0x20 DUP3 DUP5 SUB SLT ISZERO PUSH2 0x71D JUMPI PUSH2 0x71C PUSH2 0xB92 JUMP JUMPDEST JUMPDEST PUSH1 0x0 PUSH2 0x72B DUP5 DUP3 DUP6 ADD PUSH2 0x6DD JUMP JUMPDEST SWAP2 POP POP SWAP3 SWAP2 POP POP JUMP JUMPDEST PUSH1 0x0 PUSH1 0x20 DUP3 DUP5 SUB SLT ISZERO PUSH2 0x74A JUMPI PUSH2 0x749 PUSH2 0xB92 JUMP JUMPDEST JUMPDEST PUSH1 0x0 PUSH2 0x758 DUP5 DUP3 DUP6 ADD PUSH2 0x6F2 JUMP JUMPDEST SWAP2 POP POP SWAP3 SWAP2 POP POP JUMP JUMPDEST PUSH2 0x76A DUP2 PUSH2 0xAA4 JUMP JUMPDEST DUP3 MSTORE POP POP JUMP JUMPDEST PUSH2 0x779 DUP2 PUSH2 0xAEC JUMP JUMPDEST DUP3 MSTORE POP POP JUMP JUMPDEST PUSH2 0x788 DUP2 PUSH2 0xAFE JUMP JUMPDEST DUP3 MSTORE POP POP JUMP JUMPDEST PUSH1 0x0 PUSH2 0x79B PUSH1 0x14 DUP4 PUSH2 0xA08 JUMP JUMPDEST SWAP2 POP PUSH2 0x7A6 DUP3 PUSH2 0xB97 JUMP JUMPDEST PUSH1 0x20 DUP3 ADD SWAP1 POP SWAP2 SWAP1 POP JUMP JUMPDEST PUSH1 0x0 PUSH2 0x7BE PUSH1 0xA DUP4 PUSH2 0xA08 JUMP JUMPDEST SWAP2 POP PUSH2 0x7C9 DUP3 PUSH2 0xBC0 JUMP JUMPDEST PUSH1 0x20 DUP3 ADD SWAP1 POP SWAP2 SWAP1 POP JUMP JUMPDEST PUSH1 0x0 PUSH2 0x7E1 PUSH1 0x8 DUP4 PUSH2 0xA08 JUMP JUMPDEST SWAP2 POP PUSH2 0x7EC DUP3 PUSH2 0xBE9 JUMP JUMPDEST PUSH1 0x20 DUP3 ADD SWAP1 POP SWAP2 SWAP1 POP JUMP JUMPDEST PUSH1 0x0 PUSH2 0x804 PUSH1 0x15 DUP4 PUSH2 0xA08 JUMP JUMPDEST SWAP2 POP PUSH2 0x80F DUP3 PUSH2 0xC12 JUMP JUMPDEST PUSH1 0x20 DUP3 ADD SWAP1 POP SWAP2 SWAP1 POP JUMP JUMPDEST PUSH1 0x0 PUSH2 0x827 PUSH1 0x1A DUP4 PUSH2 0xA08 JUMP JUMPDEST SWAP2 POP PUSH2 0x832 DUP3 PUSH2 0xC3B JUMP JUMPDEST PUSH1 0x20 DUP3 ADD SWAP1 POP SWAP2 SWAP1 POP JUMP JUMPDEST PUSH1 0x0 PUSH2 0x84A PUSH1 0x10 DUP4 PUSH2 0xA08 JUMP JUMPDEST SWAP2 POP PUSH2 0x855 DUP3 PUSH2 0xC64 JUMP JUMPDEST PUSH1 0x20 DUP3 ADD SWAP1 POP SWAP2 SWAP1 POP JUMP JUMPDEST PUSH1 0x0 PUSH2 0x86D PUSH1 0x0 DUP4 PUSH2 0x9FD JUMP JUMPDEST SWAP2 POP PUSH2 0x878 DUP3 PUSH2 0xC8D JUMP JUMPDEST PUSH1 0x0 DUP3 ADD SWAP1 POP SWAP2 SWAP1 POP JUMP JUMPDEST PUSH2 0x88C DUP2 PUSH2 0xAE2 JUMP JUMPDEST DUP3 MSTORE POP POP JUMP JUMPDEST PUSH1 0x0 PUSH2 0x89D DUP3 PUSH2 0x860 JUMP JUMPDEST SWAP2 POP DUP2 SWAP1 POP SWAP2 SWAP1 POP JUMP JUMPDEST PUSH1 0x0 PUSH1 0x60 DUP3 ADD SWAP1 POP PUSH2 0x8BC PUSH1 0x0 DUP4 ADD DUP7 PUSH2 0x761 JUMP JUMPDEST PUSH2 0x8C9 PUSH1 0x20 DUP4 ADD DUP6 PUSH2 0x761 JUMP JUMPDEST PUSH2 0x8D6 PUSH1 0x40 DUP4 ADD DUP5 PUSH2 0x883 JUMP JUMPDEST SWAP5 SWAP4 POP POP POP POP JUMP JUMPDEST PUSH1 0x0 PUSH1 0x40 DUP3 ADD SWAP1 POP PUSH2 0x8F3 PUSH1 0x0 DUP4 ADD DUP6 PUSH2 0x761 JUMP JUMPDEST PUSH2 0x900 PUSH1 0x20 DUP4 ADD DUP5 PUSH2 0x77F JUMP JUMPDEST SWAP4 SWAP3 POP POP POP JUMP JUMPDEST PUSH1 0x0 PUSH1 0x20 DUP3 ADD SWAP1 POP PUSH2 0x91C PUSH1 0x0 DUP4 ADD DUP5 PUSH2 0x770 JUMP JUMPDEST SWAP3 SWAP2 POP POP JUMP JUMPDEST PUSH1 0x0 PUSH1 0x20 DUP3 ADD SWAP1 POP DUP2 DUP2 SUB PUSH1 0x0 DUP4 ADD MSTORE PUSH2 0x93B DUP2 PUSH2 0x78E JUMP JUMPDEST SWAP1 POP SWAP2 SWAP1 POP JUMP JUMPDEST PUSH1 0x0 PUSH1 0x20 DUP3 ADD SWAP1 POP DUP2 DUP2 SUB PUSH1 0x0 DUP4 ADD MSTORE PUSH2 0x95B DUP2 PUSH2 0x7B1 JUMP JUMPDEST SWAP1 POP SWAP2 SWAP1 POP JUMP JUMPDEST PUSH1 0x0 PUSH1 0x20 DUP3 ADD SWAP1 POP DUP2 DUP2 SUB PUSH1 0x0 DUP4 ADD MSTORE PUSH2 0x97B DUP2 PUSH2 0x7D4 JUMP JUMPDEST SWAP1 POP SWAP2 SWAP1 POP JUMP JUMPDEST PUSH1 0x0 PUSH1 0x20 DUP3 ADD SWAP1 POP DUP2 DUP2 SUB PUSH1 0x0 DUP4 ADD MSTORE PUSH2 0x99B DUP2 PUSH2 0x7F7 JUMP JUMPDEST SWAP1 POP SWAP2 SWAP1 POP JUMP JUMPDEST PUSH1 0x0 PUSH1 0x20 DUP3 ADD SWAP1 POP DUP2 DUP2 SUB PUSH1 0x0 DUP4 ADD MSTORE PUSH2 0x9BB DUP2 PUSH2 0x81A JUMP JUMPDEST SWAP1 POP SWAP2 SWAP1 POP JUMP JUMPDEST PUSH1 0x0 PUSH1 0x20 DUP3 ADD SWAP1 POP DUP2 DUP2 SUB PUSH1 0x0 DUP4 ADD MSTORE PUSH2 0x9DB DUP2 PUSH2 0x83D JUMP JUMPDEST SWAP1 POP SWAP2 SWAP1 POP JUMP JUMPDEST PUSH1 0x0 PUSH1 0x20 DUP3 ADD SWAP1 POP PUSH2 0x9F7 PUSH1 0x0 DUP4 ADD DUP5 PUSH2 0x883 JUMP JUMPDEST SWAP3 SWAP2 POP POP JUMP JUMPDEST PUSH1 0x0 DUP2 SWAP1 POP SWAP3 SWAP2 POP POP JUMP JUMPDEST PUSH1 0x0 DUP3 DUP3 MSTORE PUSH1 0x20 DUP3 ADD SWAP1 POP SWAP3 SWAP2 POP POP JUMP JUMPDEST PUSH1 0x0 PUSH2 0xA24 DUP3 PUSH2 0xAE2 JUMP JUMPDEST SWAP2 POP PUSH2 0xA2F DUP4 PUSH2 0xAE2 JUMP JUMPDEST SWAP3 POP DUP3 PUSH2 0xA3F JUMPI PUSH2 0xA3E PUSH2 0xB63 JUMP JUMPDEST JUMPDEST DUP3 DUP3 DIV SWAP1 POP SWAP3 SWAP2 POP POP JUMP JUMPDEST PUSH1 0x0 PUSH2 0xA55 DUP3 PUSH2 0xAE2 JUMP JUMPDEST SWAP2 POP PUSH2 0xA60 DUP4 PUSH2 0xAE2 JUMP JUMPDEST SWAP3 POP DUP2 PUSH32 0xFFFFFFFFFFFFFFFFFFFFFFFFFFFFFFFFFFFFFFFFFFFFFFFFFFFFFFFFFFFFFFFF DIV DUP4 GT DUP3 ISZERO ISZERO AND ISZERO PUSH2 0xA99 JUMPI PUSH2 0xA98 PUSH2 0xB34 JUMP JUMPDEST JUMPDEST DUP3 DUP3 MUL SWAP1 POP SWAP3 SWAP2 POP POP JUMP JUMPDEST PUSH1 0x0 PUSH2 0xAAF DUP3 PUSH2 0xAC2 JUMP JUMPDEST SWAP1 POP SWAP2 SWAP1 POP JUMP JUMPDEST PUSH1 0x0 DUP2 ISZERO ISZERO SWAP1 POP SWAP2 SWAP1 POP JUMP JUMPDEST PUSH1 0x0 PUSH20 0xFFFFFFFFFFFFFFFFFFFFFFFFFFFFFFFFFFFFFFFF DUP3 AND SWAP1 POP SWAP2 SWAP1 POP JUMP JUMPDEST PUSH1 0x0 DUP2 SWAP1 POP SWAP2 SWAP1 POP JUMP JUMPDEST PUSH1 0x0 PUSH2 0xAF7 DUP3 PUSH2 0xB10 JUMP JUMPDEST SWAP1 POP SWAP2 SWAP1 POP JUMP JUMPDEST PUSH1 0x0 PUSH2 0xB09 DUP3 PUSH2 0xAE2 JUMP JUMPDEST SWAP1 POP SWAP2 SWAP1 POP JUMP JUMPDEST PUSH1 0x0 PUSH2 0xB1B DUP3 PUSH2 0xB22 JUMP JUMPDEST SWAP1 POP SWAP2 SWAP1 POP JUMP JUMPDEST PUSH1 0x0 PUSH2 0xB2D DUP3 PUSH2 0xAC2 JUMP JUMPDEST SWAP1 POP SWAP2 SWAP1 POP JUMP JUMPDEST PUSH32 0x4E487B7100000000000000000000000000000000000000000000000000000000 PUSH1 0x0 MSTORE PUSH1 0x11 PUSH1 0x4 MSTORE PUSH1 0x24 PUSH1 0x0 REVERT JUMPDEST PUSH32 0x4E487B7100000000000000000000000000000000000000000000000000000000 PUSH1 0x0 MSTORE PUSH1 0x12 PUSH1 0x4 MSTORE PUSH1 0x24 PUSH1 0x0 REVERT JUMPDEST PUSH1 0x0 DUP1 REVERT JUMPDEST PUSH32 0x4661696C656420746F2073656E64204574686572000000000000000000000000 PUSH1 0x0 DUP3 ADD MSTORE POP JUMP JUMPDEST PUSH32 0x4E6F7420656E6F75676800000000000000000000000000000000000000000000 PUSH1 0x0 DUP3 ADD MSTORE POP JUMP JUMPDEST PUSH32 0x6E6F746F776E6572000000000000000000000000000000000000000000000000 PUSH1 0x0 DUP3 ADD MSTORE POP JUMP JUMPDEST PUSH32 0x546F6B656E207472616E73666572206661696C65640000000000000000000000 PUSH1 0x0 DUP3 ADD MSTORE POP JUMP JUMPDEST PUSH32 0x4D696E696D756D20747261646520616D6F756E74203120626E62000000000000 PUSH1 0x0 DUP3 ADD MSTORE POP JUMP JUMPDEST PUSH32 0x5472616E73666572206661696C65642100000000000000000000000000000000 PUSH1 0x0 DUP3 ADD MSTORE POP JUMP JUMPDEST POP JUMP JUMPDEST PUSH2 0xC99 DUP2 PUSH2 0xAB6 JUMP JUMPDEST DUP2 EQ PUSH2 0xCA4 JUMPI PUSH1 0x0 DUP1 REVERT JUMPDEST POP JUMP JUMPDEST PUSH2 0xCB0 DUP2 PUSH2 0xAE2 JUMP JUMPDEST DUP2 EQ PUSH2 0xCBB JUMPI PUSH1 0x0 DUP1 REVERT JUMPDEST POP JUMP INVALID LOG2 PUSH5 0x6970667358 0x22 SLT KECCAK256 0xB4 MSTORE8 0x29 DUP8 SWAP1 DUP12 DIV DUP14 MSTORE 0xDE 0xA8 CODESIZE MULMOD SELFBALANCE CALLCODE 0xEB PUSH19 0x2911B810836321E7C3F8323B7E450364736F6C PUSH4 0x43000807 STOP CALLER "
				},
				"gasEstimates": {
					"creation": {
						"codeDepositCost": "663200",
						"executionCost": "infinite",
						"totalCost": "infinite"
					},
					"external": {
						"BnbToSafuu()": "2495",
						"amtOfSafuu()": "2430",
						"buySafuu(uint256)": "infinite",
						"safuu()": "2623",
						"sellSafuu(uint256)": "infinite",
						"setFactor(uint256)": "24709",
						"withdrawToOwner()": "infinite"
					},
					"internal": {
						"_safeTransferFrom(contract IERC20,address,address,uint256)": "infinite"
					}
				},
				"methodIdentifiers": {
					"BnbToSafuu()": "ebc4197c",
					"amtOfSafuu()": "213fbeb0",
					"buySafuu(uint256)": "80c31426",
					"safuu()": "23b160ac",
					"sellSafuu(uint256)": "ade87ecc",
					"setFactor(uint256)": "817e9d31",
					"withdrawToOwner()": "3cb40e16"
				}
			},
			"userdoc": {
				"kind": "user",
				"methods": {},
				"version": 1
			}
		}
	}
}