{
	"WandInstruments.sol": {
		"testSticks": {
			"abi": [
				{
					"inputs": [
						{
							"internalType": "address",
							"name": "scepterAddr",
							"type": "address"
						},
						{
							"internalType": "address",
							"name": "batonAddr",
							"type": "address"
						}
					],
					"stateMutability": "nonpayable",
					"type": "constructor"
				},
				{
					"inputs": [
						{
							"internalType": "uint256",
							"name": "amountSCPtoBuy",
							"type": "uint256"
						}
					],
					"name": "buyScepter",
					"outputs": [],
					"stateMutability": "nonpayable",
					"type": "function"
				},
				{
					"inputs": [
						{
							"internalType": "uint256",
							"name": "amountSCPtoSell",
							"type": "uint256"
						},
						{
							"internalType": "uint256",
							"name": "timeChosenLocked",
							"type": "uint256"
						}
					],
					"name": "cashOutScepter",
					"outputs": [],
					"stateMutability": "payable",
					"type": "function"
				},
				{
					"inputs": [
						{
							"internalType": "uint256",
							"name": "",
							"type": "uint256"
						}
					],
					"name": "circulatingSupplyXDays",
					"outputs": [
						{
							"internalType": "uint256",
							"name": "",
							"type": "uint256"
						}
					],
					"stateMutability": "view",
					"type": "function"
				},
				{
					"inputs": [
						{
							"internalType": "address",
							"name": "_claimant",
							"type": "address"
						}
					],
					"name": "claimLockedUSDC",
					"outputs": [],
					"stateMutability": "nonpayable",
					"type": "function"
				},
				{
					"inputs": [],
					"name": "daysInCalculation",
					"outputs": [
						{
							"internalType": "uint256",
							"name": "",
							"type": "uint256"
						}
					],
					"stateMutability": "view",
					"type": "function"
				},
				{
					"inputs": [
						{
							"internalType": "uint256",
							"name": "x",
							"type": "uint256"
						},
						{
							"internalType": "uint256",
							"name": "y",
							"type": "uint256"
						}
					],
					"name": "decDiv18",
					"outputs": [
						{
							"internalType": "uint256",
							"name": "decQuotient",
							"type": "uint256"
						}
					],
					"stateMutability": "pure",
					"type": "function"
				},
				{
					"inputs": [
						{
							"internalType": "uint256",
							"name": "x",
							"type": "uint256"
						},
						{
							"internalType": "uint256",
							"name": "y",
							"type": "uint256"
						}
					],
					"name": "decMul18",
					"outputs": [
						{
							"internalType": "uint256",
							"name": "decProd",
							"type": "uint256"
						}
					],
					"stateMutability": "pure",
					"type": "function"
				},
				{
					"inputs": [],
					"name": "devWalletAddr",
					"outputs": [
						{
							"internalType": "address",
							"name": "",
							"type": "address"
						}
					],
					"stateMutability": "view",
					"type": "function"
				},
				{
					"inputs": [],
					"name": "getBackingPrice",
					"outputs": [
						{
							"internalType": "uint256",
							"name": "",
							"type": "uint256"
						}
					],
					"stateMutability": "view",
					"type": "function"
				},
				{
					"inputs": [],
					"name": "getBuyBackPrice",
					"outputs": [
						{
							"internalType": "uint256",
							"name": "",
							"type": "uint256"
						}
					],
					"stateMutability": "view",
					"type": "function"
				},
				{
					"inputs": [],
					"name": "getCircSupplyXDays",
					"outputs": [
						{
							"internalType": "uint256",
							"name": "",
							"type": "uint256"
						}
					],
					"stateMutability": "view",
					"type": "function"
				},
				{
					"inputs": [],
					"name": "getGrowthFactor",
					"outputs": [
						{
							"internalType": "uint256",
							"name": "",
							"type": "uint256"
						}
					],
					"stateMutability": "view",
					"type": "function"
				},
				{
					"inputs": [],
					"name": "getSellFactor",
					"outputs": [
						{
							"internalType": "uint256",
							"name": "",
							"type": "uint256"
						}
					],
					"stateMutability": "view",
					"type": "function"
				},
				{
					"inputs": [],
					"name": "getSellPrice",
					"outputs": [
						{
							"internalType": "uint256",
							"name": "",
							"type": "uint256"
						}
					],
					"stateMutability": "view",
					"type": "function"
				},
				{
					"inputs": [],
					"name": "getTokensBoughtXDays",
					"outputs": [
						{
							"internalType": "uint256",
							"name": "",
							"type": "uint256"
						}
					],
					"stateMutability": "view",
					"type": "function"
				},
				{
					"inputs": [],
					"name": "getTokensSoldXDays",
					"outputs": [
						{
							"internalType": "uint256",
							"name": "",
							"type": "uint256"
						}
					],
					"stateMutability": "view",
					"type": "function"
				},
				{
					"inputs": [],
					"name": "growthFactor",
					"outputs": [
						{
							"internalType": "uint256",
							"name": "",
							"type": "uint256"
						}
					],
					"stateMutability": "view",
					"type": "function"
				},
				{
					"inputs": [],
					"name": "mockUSDC",
					"outputs": [
						{
							"internalType": "contract IERC20",
							"name": "",
							"type": "address"
						}
					],
					"stateMutability": "view",
					"type": "function"
				},
				{
					"inputs": [
						{
							"internalType": "address",
							"name": "_tokenAddress",
							"type": "address"
						},
						{
							"internalType": "address",
							"name": "_addressToQuery",
							"type": "address"
						}
					],
					"name": "queryERC20Balance",
					"outputs": [
						{
							"internalType": "uint256",
							"name": "",
							"type": "uint256"
						}
					],
					"stateMutability": "view",
					"type": "function"
				},
				{
					"inputs": [],
					"name": "res",
					"outputs": [
						{
							"internalType": "int128",
							"name": "",
							"type": "int128"
						}
					],
					"stateMutability": "view",
					"type": "function"
				},
				{
					"inputs": [],
					"name": "riskTreasuryAddr",
					"outputs": [
						{
							"internalType": "address",
							"name": "",
							"type": "address"
						}
					],
					"stateMutability": "view",
					"type": "function"
				},
				{
					"inputs": [],
					"name": "scepterTreasuryAddr",
					"outputs": [
						{
							"internalType": "address",
							"name": "",
							"type": "address"
						}
					],
					"stateMutability": "view",
					"type": "function"
				},
				{
					"inputs": [],
					"name": "sellFactor",
					"outputs": [
						{
							"internalType": "uint256",
							"name": "",
							"type": "uint256"
						}
					],
					"stateMutability": "view",
					"type": "function"
				},
				{
					"inputs": [
						{
							"internalType": "uint256",
							"name": "numDays",
							"type": "uint256"
						}
					],
					"name": "setDaysUsedInFactors",
					"outputs": [],
					"stateMutability": "nonpayable",
					"type": "function"
				},
				{
					"inputs": [],
					"name": "tSC",
					"outputs": [
						{
							"internalType": "contract IERC20",
							"name": "",
							"type": "address"
						}
					],
					"stateMutability": "view",
					"type": "function"
				},
				{
					"inputs": [
						{
							"internalType": "uint256",
							"name": "amt",
							"type": "uint256"
						}
					],
					"name": "testUpdatetimeLockedminus",
					"outputs": [],
					"stateMutability": "nonpayable",
					"type": "function"
				},
				{
					"inputs": [
						{
							"internalType": "uint256",
							"name": "amt",
							"type": "uint256"
						}
					],
					"name": "testUpdatetimeLockedplus",
					"outputs": [],
					"stateMutability": "nonpayable",
					"type": "function"
				},
				{
					"inputs": [],
					"name": "testwallet",
					"outputs": [
						{
							"internalType": "address",
							"name": "",
							"type": "address"
						}
					],
					"stateMutability": "view",
					"type": "function"
				},
				{
					"inputs": [],
					"name": "timeLaunched",
					"outputs": [
						{
							"internalType": "uint256",
							"name": "",
							"type": "uint256"
						}
					],
					"stateMutability": "view",
					"type": "function"
				},
				{
					"inputs": [
						{
							"internalType": "uint256",
							"name": "",
							"type": "uint256"
						}
					],
					"name": "tokensBoughtXDays",
					"outputs": [
						{
							"internalType": "uint256",
							"name": "",
							"type": "uint256"
						}
					],
					"stateMutability": "view",
					"type": "function"
				},
				{
					"inputs": [
						{
							"internalType": "uint256",
							"name": "",
							"type": "uint256"
						}
					],
					"name": "tokensSoldXDays",
					"outputs": [
						{
							"internalType": "uint256",
							"name": "",
							"type": "uint256"
						}
					],
					"stateMutability": "view",
					"type": "function"
				},
				{
					"inputs": [
						{
							"internalType": "uint256",
							"name": "amountSCPtoSwap",
							"type": "uint256"
						}
					],
					"name": "transformScepterToBaton",
					"outputs": [],
					"stateMutability": "payable",
					"type": "function"
				},
				{
					"inputs": [],
					"name": "treasury1Addr",
					"outputs": [
						{
							"internalType": "address",
							"name": "",
							"type": "address"
						}
					],
					"stateMutability": "view",
					"type": "function"
				},
				{
					"inputs": [],
					"name": "treasury1bal",
					"outputs": [
						{
							"internalType": "uint256",
							"name": "",
							"type": "uint256"
						}
					],
					"stateMutability": "view",
					"type": "function"
				},
				{
					"inputs": [
						{
							"internalType": "address",
							"name": "_addr",
							"type": "address"
						}
					],
					"name": "whitelist",
					"outputs": [],
					"stateMutability": "nonpayable",
					"type": "function"
				},
				{
					"inputs": [
						{
							"internalType": "address",
							"name": "",
							"type": "address"
						}
					],
					"name": "withheldWithdrawals",
					"outputs": [
						{
							"internalType": "uint256",
							"name": "timeUnlocked",
							"type": "uint256"
						},
						{
							"internalType": "uint256",
							"name": "amounts",
							"type": "uint256"
						}
					],
					"stateMutability": "view",
					"type": "function"
				}
			],
			"devdoc": {
				"kind": "dev",
				"methods": {},
				"version": 1
			},
			"evm": {
				"assembly": "    /* \"WandInstruments.sol\":96:13364  contract testSticks {\r... */\n  mstore(0x40, 0x80)\n    /* \"WandInstruments.sol\":283:289  10**18 */\n  0x0de0b6b3a7640000\n    /* \"WandInstruments.sol\":759:764  50000 */\n  0xc350\n    /* \"WandInstruments.sol\":759:775  50000*(DECIMALS) */\n  tag_1\n  swap2\n  swap1\n  tag_2\n  jump\t// in\ntag_1:\n    /* \"WandInstruments.sol\":729:775  uint256 public treasury1bal = 50000*(DECIMALS) */\n  0x0a\n  sstore\n    /* \"WandInstruments.sol\":925:931  100000 */\n  0x0186a0\n    /* \"WandInstruments.sol\":894:931  uint256 private ft5daybought = 100000 */\n  0x0d\n  sstore\n    /* \"WandInstruments.sol\":967:972  90000 */\n  0x015f90\n    /* \"WandInstruments.sol\":938:972  uint256 private ft5daysold = 90000 */\n  0x0e\n  sstore\n    /* \"WandInstruments.sol\":1014:1020  600000 */\n  0x0927c0\n    /* \"WandInstruments.sol\":979:1020  uint256 private double5daytokens = 600000 */\n  0x0f\n  sstore\n    /* \"WandInstruments.sol\":1141:1183  0x617F2E2fD72FD9D5503197092aC168c91465E7f2 */\n  0x617f2e2fd72fd9d5503197092ac168c91465e7f2\n    /* \"WandInstruments.sol\":1113:1183  address public testwallet = 0x617F2E2fD72FD9D5503197092aC168c91465E7f2 */\n  0x11\n  exp(0x0100, 0x00)\n  dup2\n  sload\n  dup2\n  0xffffffffffffffffffffffffffffffffffffffff\n  mul\n  not\n  and\n  swap1\n  dup4\n  0xffffffffffffffffffffffffffffffffffffffff\n  and\n  mul\n  or\n  swap1\n  sstore\n  pop\n    /* \"WandInstruments.sol\":1938:2653  constructor(address scepterAddr, address batonAddr) {   \r... */\n  callvalue\n  dup1\n  iszero\n  tag_3\n  jumpi\n  0x00\n  dup1\n  revert\ntag_3:\n  pop\n  mload(0x40)\n  sub(codesize, bytecodeSize)\n  dup1\n  bytecodeSize\n  dup4\n  codecopy\n  dup2\n  dup2\n  add\n  0x40\n  mstore\n  dup2\n  add\n  swap1\n  tag_4\n  swap2\n  swap1\n  tag_5\n  jump\t// in\ntag_4:\n    /* \"WandInstruments.sol\":2074:2085  scepterAddr */\n  dup2\n    /* \"WandInstruments.sol\":2059:2063  sptr */\n  0x18\n  0x00\n    /* \"WandInstruments.sol\":2059:2086  sptr = Scepter(scepterAddr) */\n  0x0100\n  exp\n  dup2\n  sload\n  dup2\n  0xffffffffffffffffffffffffffffffffffffffff\n  mul\n  not\n  and\n  swap1\n  dup4\n  0xffffffffffffffffffffffffffffffffffffffff\n  and\n  mul\n  or\n  swap1\n  sstore\n  pop\n    /* \"WandInstruments.sol\":2109:2118  batonAddr */\n  dup1\n    /* \"WandInstruments.sol\":2097:2100  btn */\n  0x19\n  0x00\n    /* \"WandInstruments.sol\":2097:2119  btn = Baton(batonAddr) */\n  0x0100\n  exp\n  dup2\n  sload\n  dup2\n  0xffffffffffffffffffffffffffffffffffffffff\n  mul\n  not\n  and\n  swap1\n  dup4\n  0xffffffffffffffffffffffffffffffffffffffff\n  and\n  mul\n  or\n  swap1\n  sstore\n  pop\n    /* \"WandInstruments.sol\":2143:2154  scepterAddr */\n  dup2\n    /* \"WandInstruments.sol\":2130:2133  tSC */\n  0x12\n  0x00\n    /* \"WandInstruments.sol\":2130:2155  tSC = IERC20(scepterAddr) */\n  0x0100\n  exp\n  dup2\n  sload\n  dup2\n  0xffffffffffffffffffffffffffffffffffffffff\n  mul\n  not\n  and\n  swap1\n  dup4\n  0xffffffffffffffffffffffffffffffffffffffff\n  and\n  mul\n  or\n  swap1\n  sstore\n  pop\n    /* \"WandInstruments.sol\":2186:2228  0x2F8895b08D8F226b19895d46154faB7096fB2593 */\n  0x2f8895b08d8f226b19895d46154fab7096fb2593\n    /* \"WandInstruments.sol\":2168:2176  mockUSDC */\n  0x13\n  0x00\n    /* \"WandInstruments.sol\":2168:2229  mockUSDC = IERC20(0x2F8895b08D8F226b19895d46154faB7096fB2593) */\n  0x0100\n  exp\n  dup2\n  sload\n  dup2\n  0xffffffffffffffffffffffffffffffffffffffff\n  mul\n  not\n  and\n  swap1\n  dup4\n  0xffffffffffffffffffffffffffffffffffffffff\n  and\n  mul\n  or\n  swap1\n  sstore\n  pop\n    /* \"WandInstruments.sol\":2256:2298  0x617F2E2fD72FD9D5503197092aC168c91465E7f2 */\n  0x617f2e2fd72fd9d5503197092ac168c91465e7f2\n    /* \"WandInstruments.sol\":2240:2253  treasury1Addr */\n  0x06\n  0x00\n    /* \"WandInstruments.sol\":2240:2298  treasury1Addr = 0x617F2E2fD72FD9D5503197092aC168c91465E7f2 */\n  0x0100\n  exp\n  dup2\n  sload\n  dup2\n  0xffffffffffffffffffffffffffffffffffffffff\n  mul\n  not\n  and\n  swap1\n  dup4\n  0xffffffffffffffffffffffffffffffffffffffff\n  and\n  mul\n  or\n  swap1\n  sstore\n  pop\n    /* \"WandInstruments.sol\":2497:2512  block.timestamp */\n  timestamp\n    /* \"WandInstruments.sol\":2482:2494  timeLaunched */\n  0x0b\n    /* \"WandInstruments.sol\":2482:2512  timeLaunched = block.timestamp */\n  dup2\n  swap1\n  sstore\n  pop\n    /* \"WandInstruments.sol\":2543:2549  5 days */\n  0x069780\n    /* \"WandInstruments.sol\":2523:2540  daysInCalculation */\n  0x0c\n    /* \"WandInstruments.sol\":2523:2549  daysInCalculation = 5 days */\n  dup2\n  swap1\n  sstore\n  pop\n    /* \"WandInstruments.sol\":1938:2653  constructor(address scepterAddr, address batonAddr) {   \r... */\n  pop\n  pop\n    /* \"WandInstruments.sol\":96:13364  contract testSticks {\r... */\n  jump(tag_8)\n    /* \"#utility.yul\":7:150   */\ntag_10:\n    /* \"#utility.yul\":64:69   */\n  0x00\n    /* \"#utility.yul\":95:101   */\n  dup2\n    /* \"#utility.yul\":89:102   */\n  mload\n    /* \"#utility.yul\":80:102   */\n  swap1\n  pop\n    /* \"#utility.yul\":111:144   */\n  tag_12\n    /* \"#utility.yul\":138:143   */\n  dup2\n    /* \"#utility.yul\":111:144   */\n  tag_13\n  jump\t// in\ntag_12:\n    /* \"#utility.yul\":7:150   */\n  swap3\n  swap2\n  pop\n  pop\n  jump\t// out\n    /* \"#utility.yul\":156:663   */\ntag_5:\n    /* \"#utility.yul\":235:241   */\n  0x00\n    /* \"#utility.yul\":243:249   */\n  dup1\n    /* \"#utility.yul\":292:294   */\n  0x40\n    /* \"#utility.yul\":280:289   */\n  dup4\n    /* \"#utility.yul\":271:278   */\n  dup6\n    /* \"#utility.yul\":267:290   */\n  sub\n    /* \"#utility.yul\":263:295   */\n  slt\n    /* \"#utility.yul\":260:379   */\n  iszero\n  tag_15\n  jumpi\n    /* \"#utility.yul\":298:377   */\n  tag_16\n  tag_17\n  jump\t// in\ntag_16:\n    /* \"#utility.yul\":260:379   */\ntag_15:\n    /* \"#utility.yul\":418:419   */\n  0x00\n    /* \"#utility.yul\":443:507   */\n  tag_18\n    /* \"#utility.yul\":499:506   */\n  dup6\n    /* \"#utility.yul\":490:496   */\n  dup3\n    /* \"#utility.yul\":479:488   */\n  dup7\n    /* \"#utility.yul\":475:497   */\n  add\n    /* \"#utility.yul\":443:507   */\n  tag_10\n  jump\t// in\ntag_18:\n    /* \"#utility.yul\":433:507   */\n  swap3\n  pop\n    /* \"#utility.yul\":389:517   */\n  pop\n    /* \"#utility.yul\":556:558   */\n  0x20\n    /* \"#utility.yul\":582:646   */\n  tag_19\n    /* \"#utility.yul\":638:645   */\n  dup6\n    /* \"#utility.yul\":629:635   */\n  dup3\n    /* \"#utility.yul\":618:627   */\n  dup7\n    /* \"#utility.yul\":614:636   */\n  add\n    /* \"#utility.yul\":582:646   */\n  tag_10\n  jump\t// in\ntag_19:\n    /* \"#utility.yul\":572:646   */\n  swap2\n  pop\n    /* \"#utility.yul\":527:656   */\n  pop\n    /* \"#utility.yul\":156:663   */\n  swap3\n  pop\n  swap3\n  swap1\n  pop\n  jump\t// out\n    /* \"#utility.yul\":750:1098   */\ntag_2:\n    /* \"#utility.yul\":790:797   */\n  0x00\n    /* \"#utility.yul\":813:833   */\n  tag_23\n    /* \"#utility.yul\":831:832   */\n  dup3\n    /* \"#utility.yul\":813:833   */\n  tag_24\n  jump\t// in\ntag_23:\n    /* \"#utility.yul\":808:833   */\n  swap2\n  pop\n    /* \"#utility.yul\":847:867   */\n  tag_25\n    /* \"#utility.yul\":865:866   */\n  dup4\n    /* \"#utility.yul\":847:867   */\n  tag_24\n  jump\t// in\ntag_25:\n    /* \"#utility.yul\":842:867   */\n  swap3\n  pop\n    /* \"#utility.yul\":1035:1036   */\n  dup2\n    /* \"#utility.yul\":967:1033   */\n  0xffffffffffffffffffffffffffffffffffffffffffffffffffffffffffffffff\n    /* \"#utility.yul\":963:1037   */\n  div\n    /* \"#utility.yul\":960:961   */\n  dup4\n    /* \"#utility.yul\":957:1038   */\n  gt\n    /* \"#utility.yul\":952:953   */\n  dup3\n    /* \"#utility.yul\":945:954   */\n  iszero\n    /* \"#utility.yul\":938:955   */\n  iszero\n    /* \"#utility.yul\":934:1039   */\n  and\n    /* \"#utility.yul\":931:1062   */\n  iszero\n  tag_26\n  jumpi\n    /* \"#utility.yul\":1042:1060   */\n  tag_27\n  tag_28\n  jump\t// in\ntag_27:\n    /* \"#utility.yul\":931:1062   */\ntag_26:\n    /* \"#utility.yul\":1090:1091   */\n  dup3\n    /* \"#utility.yul\":1087:1088   */\n  dup3\n    /* \"#utility.yul\":1083:1092   */\n  mul\n    /* \"#utility.yul\":1072:1092   */\n  swap1\n  pop\n    /* \"#utility.yul\":750:1098   */\n  swap3\n  swap2\n  pop\n  pop\n  jump\t// out\n    /* \"#utility.yul\":1104:1200   */\ntag_29:\n    /* \"#utility.yul\":1141:1148   */\n  0x00\n    /* \"#utility.yul\":1170:1194   */\n  tag_31\n    /* \"#utility.yul\":1188:1193   */\n  dup3\n    /* \"#utility.yul\":1170:1194   */\n  tag_32\n  jump\t// in\ntag_31:\n    /* \"#utility.yul\":1159:1194   */\n  swap1\n  pop\n    /* \"#utility.yul\":1104:1200   */\n  swap2\n  swap1\n  pop\n  jump\t// out\n    /* \"#utility.yul\":1206:1332   */\ntag_32:\n    /* \"#utility.yul\":1243:1250   */\n  0x00\n    /* \"#utility.yul\":1283:1325   */\n  0xffffffffffffffffffffffffffffffffffffffff\n    /* \"#utility.yul\":1276:1281   */\n  dup3\n    /* \"#utility.yul\":1272:1326   */\n  and\n    /* \"#utility.yul\":1261:1326   */\n  swap1\n  pop\n    /* \"#utility.yul\":1206:1332   */\n  swap2\n  swap1\n  pop\n  jump\t// out\n    /* \"#utility.yul\":1338:1415   */\ntag_24:\n    /* \"#utility.yul\":1375:1382   */\n  0x00\n    /* \"#utility.yul\":1404:1409   */\n  dup2\n    /* \"#utility.yul\":1393:1409   */\n  swap1\n  pop\n    /* \"#utility.yul\":1338:1415   */\n  swap2\n  swap1\n  pop\n  jump\t// out\n    /* \"#utility.yul\":1421:1601   */\ntag_28:\n    /* \"#utility.yul\":1469:1546   */\n  0x4e487b7100000000000000000000000000000000000000000000000000000000\n    /* \"#utility.yul\":1466:1467   */\n  0x00\n    /* \"#utility.yul\":1459:1547   */\n  mstore\n    /* \"#utility.yul\":1566:1570   */\n  0x11\n    /* \"#utility.yul\":1563:1564   */\n  0x04\n    /* \"#utility.yul\":1556:1571   */\n  mstore\n    /* \"#utility.yul\":1590:1594   */\n  0x24\n    /* \"#utility.yul\":1587:1588   */\n  0x00\n    /* \"#utility.yul\":1580:1595   */\n  revert\n    /* \"#utility.yul\":1730:1847   */\ntag_17:\n    /* \"#utility.yul\":1839:1840   */\n  0x00\n    /* \"#utility.yul\":1836:1837   */\n  dup1\n    /* \"#utility.yul\":1829:1841   */\n  revert\n    /* \"#utility.yul\":1853:1975   */\ntag_13:\n    /* \"#utility.yul\":1926:1950   */\n  tag_40\n    /* \"#utility.yul\":1944:1949   */\n  dup2\n    /* \"#utility.yul\":1926:1950   */\n  tag_29\n  jump\t// in\ntag_40:\n    /* \"#utility.yul\":1919:1924   */\n  dup2\n    /* \"#utility.yul\":1916:1951   */\n  eq\n    /* \"#utility.yul\":1906:1969   */\n  tag_41\n  jumpi\n    /* \"#utility.yul\":1965:1966   */\n  0x00\n    /* \"#utility.yul\":1962:1963   */\n  dup1\n    /* \"#utility.yul\":1955:1967   */\n  revert\n    /* \"#utility.yul\":1906:1969   */\ntag_41:\n    /* \"#utility.yul\":1853:1975   */\n  pop\n  jump\t// out\n    /* \"WandInstruments.sol\":96:13364  contract testSticks {\r... */\ntag_8:\n  dataSize(sub_0)\n  dup1\n  dataOffset(sub_0)\n  0x00\n  codecopy\n  0x00\n  return\nstop\n\nsub_0: assembly {\n        /* \"WandInstruments.sol\":96:13364  contract testSticks {\r... */\n      mstore(0x40, 0x80)\n      jumpi(tag_1, lt(calldatasize, 0x04))\n      shr(0xe0, calldataload(0x00))\n      dup1\n      0x67b48c91\n      gt\n      tag_38\n      jumpi\n      dup1\n      0xcbff4617\n      gt\n      tag_39\n      jumpi\n      dup1\n      0xee620868\n      gt\n      tag_40\n      jumpi\n      dup1\n      0xee620868\n      eq\n      tag_33\n      jumpi\n      dup1\n      0xeee05f5e\n      eq\n      tag_34\n      jumpi\n      dup1\n      0xf7523c52\n      eq\n      tag_35\n      jumpi\n      dup1\n      0xfbbb4589\n      eq\n      tag_36\n      jumpi\n      dup1\n      0xfc361443\n      eq\n      tag_37\n      jumpi\n      jump(tag_1)\n    tag_40:\n      dup1\n      0xcbff4617\n      eq\n      tag_29\n      jumpi\n      dup1\n      0xd82eddf2\n      eq\n      tag_30\n      jumpi\n      dup1\n      0xee467678\n      eq\n      tag_31\n      jumpi\n      dup1\n      0xee546a51\n      eq\n      tag_32\n      jumpi\n      jump(tag_1)\n    tag_39:\n      dup1\n      0x71cd58f9\n      gt\n      tag_41\n      jumpi\n      dup1\n      0x71cd58f9\n      eq\n      tag_24\n      jumpi\n      dup1\n      0x93f7b711\n      eq\n      tag_25\n      jumpi\n      dup1\n      0x9b19251a\n      eq\n      tag_26\n      jumpi\n      dup1\n      0xbcd323cb\n      eq\n      tag_27\n      jumpi\n      dup1\n      0xc079d7f6\n      eq\n      tag_28\n      jumpi\n      jump(tag_1)\n    tag_41:\n      dup1\n      0x67b48c91\n      eq\n      tag_20\n      jumpi\n      dup1\n      0x67e927a8\n      eq\n      tag_21\n      jumpi\n      dup1\n      0x6e05c1b9\n      eq\n      tag_22\n      jumpi\n      dup1\n      0x6f10e285\n      eq\n      tag_23\n      jumpi\n      jump(tag_1)\n    tag_38:\n      dup1\n      0x29982a32\n      gt\n      tag_42\n      jumpi\n      dup1\n      0x3c6eb17a\n      gt\n      tag_43\n      jumpi\n      dup1\n      0x3c6eb17a\n      eq\n      tag_15\n      jumpi\n      dup1\n      0x43d32e9c\n      eq\n      tag_16\n      jumpi\n      dup1\n      0x63d03361\n      eq\n      tag_17\n      jumpi\n      dup1\n      0x64ce07d8\n      eq\n      tag_18\n      jumpi\n      dup1\n      0x65819f7e\n      eq\n      tag_19\n      jumpi\n      jump(tag_1)\n    tag_43:\n      dup1\n      0x29982a32\n      eq\n      tag_11\n      jumpi\n      dup1\n      0x2a9f0fb1\n      eq\n      tag_12\n      jumpi\n      dup1\n      0x308cdb88\n      eq\n      tag_13\n      jumpi\n      dup1\n      0x35453307\n      eq\n      tag_14\n      jumpi\n      jump(tag_1)\n    tag_42:\n      dup1\n      0x1514c976\n      gt\n      tag_44\n      jumpi\n      dup1\n      0x1514c976\n      eq\n      tag_6\n      jumpi\n      dup1\n      0x164c8501\n      eq\n      tag_7\n      jumpi\n      dup1\n      0x1a30e872\n      eq\n      tag_8\n      jumpi\n      dup1\n      0x1bc9cc45\n      eq\n      tag_9\n      jumpi\n      dup1\n      0x1f564a06\n      eq\n      tag_10\n      jumpi\n      jump(tag_1)\n    tag_44:\n      dup1\n      0x047729b0\n      eq\n      tag_2\n      jumpi\n      dup1\n      0x0ccaf04f\n      eq\n      tag_3\n      jumpi\n      dup1\n      0x0f65de3e\n      eq\n      tag_4\n      jumpi\n      dup1\n      0x12b2ed94\n      eq\n      tag_5\n      jumpi\n    tag_1:\n      0x00\n      dup1\n      revert\n        /* \"WandInstruments.sol\":622:653  address public riskTreasuryAddr */\n    tag_2:\n      callvalue\n      dup1\n      iszero\n      tag_45\n      jumpi\n      0x00\n      dup1\n      revert\n    tag_45:\n      pop\n      tag_46\n      tag_47\n      jump\t// in\n    tag_46:\n      mload(0x40)\n      tag_48\n      swap2\n      swap1\n      tag_49\n      jump\t// in\n    tag_48:\n      mload(0x40)\n      dup1\n      swap2\n      sub\n      swap1\n      return\n        /* \"WandInstruments.sol\":9119:10014  function getSellFactor() external view returns (uint256){\r... */\n    tag_3:\n      callvalue\n      dup1\n      iszero\n      tag_50\n      jumpi\n      0x00\n      dup1\n      revert\n    tag_50:\n      pop\n      tag_51\n      tag_52\n      jump\t// in\n    tag_51:\n      mload(0x40)\n      tag_53\n      swap2\n      swap1\n      tag_54\n      jump\t// in\n    tag_53:\n      mload(0x40)\n      dup1\n      swap2\n      sub\n      swap1\n      return\n        /* \"WandInstruments.sol\":12919:12988  function getCircSupplyXDays() external view returns (uint256){\r... */\n    tag_4:\n      callvalue\n      dup1\n      iszero\n      tag_55\n      jumpi\n      0x00\n      dup1\n      revert\n    tag_55:\n      pop\n      tag_56\n      tag_57\n      jump\t// in\n    tag_56:\n      mload(0x40)\n      tag_58\n      swap2\n      swap1\n      tag_54\n      jump\t// in\n    tag_58:\n      mload(0x40)\n      dup1\n      swap2\n      sub\n      swap1\n      return\n        /* \"WandInstruments.sol\":1724:1784  mapping(address => lockedamounts) public withheldWithdrawals */\n    tag_5:\n      callvalue\n      dup1\n      iszero\n      tag_59\n      jumpi\n      0x00\n      dup1\n      revert\n    tag_59:\n      pop\n      tag_60\n      0x04\n      dup1\n      calldatasize\n      sub\n      dup2\n      add\n      swap1\n      tag_61\n      swap2\n      swap1\n      tag_62\n      jump\t// in\n    tag_61:\n      tag_63\n      jump\t// in\n    tag_60:\n      mload(0x40)\n      tag_64\n      swap3\n      swap2\n      swap1\n      tag_65\n      jump\t// in\n    tag_64:\n      mload(0x40)\n      dup1\n      swap2\n      sub\n      swap1\n      return\n        /* \"WandInstruments.sol\":1496:1546  mapping(uint256 => uint256) public tokensSoldXDays */\n    tag_6:\n      callvalue\n      dup1\n      iszero\n      tag_66\n      jumpi\n      0x00\n      dup1\n      revert\n    tag_66:\n      pop\n      tag_67\n      0x04\n      dup1\n      calldatasize\n      sub\n      dup2\n      add\n      swap1\n      tag_68\n      swap2\n      swap1\n      tag_69\n      jump\t// in\n    tag_68:\n      tag_70\n      jump\t// in\n    tag_67:\n      mload(0x40)\n      tag_71\n      swap2\n      swap1\n      tag_54\n      jump\t// in\n    tag_71:\n      mload(0x40)\n      dup1\n      swap2\n      sub\n      swap1\n      return\n        /* \"WandInstruments.sol\":11480:11982  function testUpdatetimeLockedminus(uint256 amt) public  {\r... */\n    tag_7:\n      callvalue\n      dup1\n      iszero\n      tag_72\n      jumpi\n      0x00\n      dup1\n      revert\n    tag_72:\n      pop\n      tag_73\n      0x04\n      dup1\n      calldatasize\n      sub\n      dup2\n      add\n      swap1\n      tag_74\n      swap2\n      swap1\n      tag_69\n      jump\t// in\n    tag_74:\n      tag_75\n      jump\t// in\n    tag_73:\n      stop\n        /* \"WandInstruments.sol\":1553:1610  mapping(uint256 => uint256) public circulatingSupplyXDays */\n    tag_8:\n      callvalue\n      dup1\n      iszero\n      tag_76\n      jumpi\n      0x00\n      dup1\n      revert\n    tag_76:\n      pop\n      tag_77\n      0x04\n      dup1\n      calldatasize\n      sub\n      dup2\n      add\n      swap1\n      tag_78\n      swap2\n      swap1\n      tag_69\n      jump\t// in\n    tag_78:\n      tag_79\n      jump\t// in\n    tag_77:\n      mload(0x40)\n      tag_80\n      swap2\n      swap1\n      tag_54\n      jump\t// in\n    tag_80:\n      mload(0x40)\n      dup1\n      swap2\n      sub\n      swap1\n      return\n        /* \"WandInstruments.sol\":6033:6778  function transformScepterToBaton(uint256 amountSCPtoSwap) public payable{\r... */\n    tag_9:\n      tag_81\n      0x04\n      dup1\n      calldatasize\n      sub\n      dup2\n      add\n      swap1\n      tag_82\n      swap2\n      swap1\n      tag_69\n      jump\t// in\n    tag_82:\n      tag_83\n      jump\t// in\n    tag_81:\n      stop\n        /* \"WandInstruments.sol\":10020:10232  function getBackingPrice() external view returns (uint256){\r... */\n    tag_10:\n      callvalue\n      dup1\n      iszero\n      tag_84\n      jumpi\n      0x00\n      dup1\n      revert\n    tag_84:\n      pop\n      tag_85\n      tag_86\n      jump\t// in\n    tag_85:\n      mload(0x40)\n      tag_87\n      swap2\n      swap1\n      tag_54\n      jump\t// in\n    tag_87:\n      mload(0x40)\n      dup1\n      swap2\n      sub\n      swap1\n      return\n        /* \"WandInstruments.sol\":660:688  address public devWalletAddr */\n    tag_11:\n      callvalue\n      dup1\n      iszero\n      tag_88\n      jumpi\n      0x00\n      dup1\n      revert\n    tag_88:\n      pop\n      tag_89\n      tag_90\n      jump\t// in\n    tag_89:\n      mload(0x40)\n      tag_91\n      swap2\n      swap1\n      tag_49\n      jump\t// in\n    tag_91:\n      mload(0x40)\n      dup1\n      swap2\n      sub\n      swap1\n      return\n        /* \"WandInstruments.sol\":1437:1489  mapping(uint256 => uint256) public tokensBoughtXDays */\n    tag_12:\n      callvalue\n      dup1\n      iszero\n      tag_92\n      jumpi\n      0x00\n      dup1\n      revert\n    tag_92:\n      pop\n      tag_93\n      0x04\n      dup1\n      calldatasize\n      sub\n      dup2\n      add\n      swap1\n      tag_94\n      swap2\n      swap1\n      tag_69\n      jump\t// in\n    tag_94:\n      tag_95\n      jump\t// in\n    tag_93:\n      mload(0x40)\n      tag_96\n      swap2\n      swap1\n      tag_54\n      jump\t// in\n    tag_96:\n      mload(0x40)\n      dup1\n      swap2\n      sub\n      swap1\n      return\n        /* \"WandInstruments.sol\":10519:10795  function getBuyBackPrice() external view returns (uint256){\r... */\n    tag_13:\n      callvalue\n      dup1\n      iszero\n      tag_97\n      jumpi\n      0x00\n      dup1\n      revert\n    tag_97:\n      pop\n      tag_98\n      tag_99\n      jump\t// in\n    tag_98:\n      mload(0x40)\n      tag_100\n      swap2\n      swap1\n      tag_54\n      jump\t// in\n    tag_100:\n      mload(0x40)\n      dup1\n      swap2\n      sub\n      swap1\n      return\n        /* \"WandInstruments.sol\":729:775  uint256 public treasury1bal = 50000*(DECIMALS) */\n    tag_14:\n      callvalue\n      dup1\n      iszero\n      tag_101\n      jumpi\n      0x00\n      dup1\n      revert\n    tag_101:\n      pop\n      tag_102\n      tag_103\n      jump\t// in\n    tag_102:\n      mload(0x40)\n      tag_104\n      swap2\n      swap1\n      tag_54\n      jump\t// in\n    tag_104:\n      mload(0x40)\n      dup1\n      swap2\n      sub\n      swap1\n      return\n        /* \"WandInstruments.sol\":804:831  uint256 public timeLaunched */\n    tag_15:\n      callvalue\n      dup1\n      iszero\n      tag_105\n      jumpi\n      0x00\n      dup1\n      revert\n    tag_105:\n      pop\n      tag_106\n      tag_107\n      jump\t// in\n    tag_106:\n      mload(0x40)\n      tag_108\n      swap2\n      swap1\n      tag_54\n      jump\t// in\n    tag_108:\n      mload(0x40)\n      dup1\n      swap2\n      sub\n      swap1\n      return\n        /* \"WandInstruments.sol\":10238:10513  function getSellPrice() external view returns (uint256){\r... */\n    tag_16:\n      callvalue\n      dup1\n      iszero\n      tag_109\n      jumpi\n      0x00\n      dup1\n      revert\n    tag_109:\n      pop\n      tag_110\n      tag_111\n      jump\t// in\n    tag_110:\n      mload(0x40)\n      tag_112\n      swap2\n      swap1\n      tag_54\n      jump\t// in\n    tag_112:\n      mload(0x40)\n      dup1\n      swap2\n      sub\n      swap1\n      return\n        /* \"WandInstruments.sol\":4409:6025  function cashOutScepter(uint256 amountSCPtoSell, uint256 timeChosenLocked) public payable{\r... */\n    tag_17:\n      tag_113\n      0x04\n      dup1\n      calldatasize\n      sub\n      dup2\n      add\n      swap1\n      tag_114\n      swap2\n      swap1\n      tag_115\n      jump\t// in\n    tag_114:\n      tag_116\n      jump\t// in\n    tag_113:\n      stop\n        /* \"WandInstruments.sol\":3685:3864  function decDiv18(uint x, uint y) public pure returns (uint decQuotient) {\r... */\n    tag_18:\n      callvalue\n      dup1\n      iszero\n      tag_117\n      jumpi\n      0x00\n      dup1\n      revert\n    tag_117:\n      pop\n      tag_118\n      0x04\n      dup1\n      calldatasize\n      sub\n      dup2\n      add\n      swap1\n      tag_119\n      swap2\n      swap1\n      tag_115\n      jump\t// in\n    tag_119:\n      tag_120\n      jump\t// in\n    tag_118:\n      mload(0x40)\n      tag_121\n      swap2\n      swap1\n      tag_54\n      jump\t// in\n    tag_121:\n      mload(0x40)\n      dup1\n      swap2\n      sub\n      swap1\n      return\n        /* \"WandInstruments.sol\":6793:7771  function buyScepter(uint256 amountSCPtoBuy) public {\r... */\n    tag_19:\n      callvalue\n      dup1\n      iszero\n      tag_122\n      jumpi\n      0x00\n      dup1\n      revert\n    tag_122:\n      pop\n      tag_123\n      0x04\n      dup1\n      calldatasize\n      sub\n      dup2\n      add\n      swap1\n      tag_124\n      swap2\n      swap1\n      tag_69\n      jump\t// in\n    tag_124:\n      tag_125\n      jump\t// in\n    tag_123:\n      stop\n        /* \"WandInstruments.sol\":838:870  uint256 public daysInCalculation */\n    tag_20:\n      callvalue\n      dup1\n      iszero\n      tag_126\n      jumpi\n      0x00\n      dup1\n      revert\n    tag_126:\n      pop\n      tag_127\n      tag_128\n      jump\t// in\n    tag_127:\n      mload(0x40)\n      tag_129\n      swap2\n      swap1\n      tag_54\n      jump\t// in\n    tag_129:\n      mload(0x40)\n      dup1\n      swap2\n      sub\n      swap1\n      return\n        /* \"WandInstruments.sol\":10996:11468  function testUpdatetimeLockedplus(uint256 amt) public  {\r... */\n    tag_21:\n      callvalue\n      dup1\n      iszero\n      tag_130\n      jumpi\n      0x00\n      dup1\n      revert\n    tag_130:\n      pop\n      tag_131\n      0x04\n      dup1\n      calldatasize\n      sub\n      dup2\n      add\n      swap1\n      tag_132\n      swap2\n      swap1\n      tag_69\n      jump\t// in\n    tag_132:\n      tag_133\n      jump\t// in\n    tag_131:\n      stop\n        /* \"WandInstruments.sol\":1311:1328  IERC20 public tSC */\n    tag_22:\n      callvalue\n      dup1\n      iszero\n      tag_134\n      jumpi\n      0x00\n      dup1\n      revert\n    tag_134:\n      pop\n      tag_135\n      tag_136\n      jump\t// in\n    tag_135:\n      mload(0x40)\n      tag_137\n      swap2\n      swap1\n      tag_138\n      jump\t// in\n    tag_137:\n      mload(0x40)\n      dup1\n      swap2\n      sub\n      swap1\n      return\n        /* \"WandInstruments.sol\":1089:1106  int128 public res */\n    tag_23:\n      callvalue\n      dup1\n      iszero\n      tag_139\n      jumpi\n      0x00\n      dup1\n      revert\n    tag_139:\n      pop\n      tag_140\n      tag_141\n      jump\t// in\n    tag_140:\n      mload(0x40)\n      tag_142\n      swap2\n      swap1\n      tag_143\n      jump\t// in\n    tag_142:\n      mload(0x40)\n      dup1\n      swap2\n      sub\n      swap1\n      return\n        /* \"WandInstruments.sol\":12093:12621  function getTokensBoughtXDays() external view returns (uint256){\r... */\n    tag_24:\n      callvalue\n      dup1\n      iszero\n      tag_144\n      jumpi\n      0x00\n      dup1\n      revert\n    tag_144:\n      pop\n      tag_145\n      tag_146\n      jump\t// in\n    tag_145:\n      mload(0x40)\n      tag_147\n      swap2\n      swap1\n      tag_54\n      jump\t// in\n    tag_147:\n      mload(0x40)\n      dup1\n      swap2\n      sub\n      swap1\n      return\n        /* \"WandInstruments.sol\":8208:9113  function getGrowthFactor() external view returns (uint256){\r... */\n    tag_25:\n      callvalue\n      dup1\n      iszero\n      tag_148\n      jumpi\n      0x00\n      dup1\n      revert\n    tag_148:\n      pop\n      tag_149\n      tag_150\n      jump\t// in\n    tag_149:\n      mload(0x40)\n      tag_151\n      swap2\n      swap1\n      tag_54\n      jump\t// in\n    tag_151:\n      mload(0x40)\n      dup1\n      swap2\n      sub\n      swap1\n      return\n        /* \"WandInstruments.sol\":12996:13085  function whitelist(address _addr) public onlyOwner {  \r... */\n    tag_26:\n      callvalue\n      dup1\n      iszero\n      tag_152\n      jumpi\n      0x00\n      dup1\n      revert\n    tag_152:\n      pop\n      tag_153\n      0x04\n      dup1\n      calldatasize\n      sub\n      dup2\n      add\n      swap1\n      tag_154\n      swap2\n      swap1\n      tag_62\n      jump\t// in\n    tag_154:\n      tag_155\n      jump\t// in\n    tag_153:\n      stop\n        /* \"WandInstruments.sol\":7779:8175  function claimLockedUSDC(address _claimant) public {\r... */\n    tag_27:\n      callvalue\n      dup1\n      iszero\n      tag_156\n      jumpi\n      0x00\n      dup1\n      revert\n    tag_156:\n      pop\n      tag_157\n      0x04\n      dup1\n      calldatasize\n      sub\n      dup2\n      add\n      swap1\n      tag_158\n      swap2\n      swap1\n      tag_62\n      jump\t// in\n    tag_158:\n      tag_159\n      jump\t// in\n    tag_157:\n      stop\n        /* \"WandInstruments.sol\":581:615  address public scepterTreasuryAddr */\n    tag_28:\n      callvalue\n      dup1\n      iszero\n      tag_160\n      jumpi\n      0x00\n      dup1\n      revert\n    tag_160:\n      pop\n      tag_161\n      tag_162\n      jump\t// in\n    tag_161:\n      mload(0x40)\n      tag_163\n      swap2\n      swap1\n      tag_49\n      jump\t// in\n    tag_163:\n      mload(0x40)\n      dup1\n      swap2\n      sub\n      swap1\n      return\n        /* \"WandInstruments.sol\":332:357  uint256 public sellFactor */\n    tag_29:\n      callvalue\n      dup1\n      iszero\n      tag_164\n      jumpi\n      0x00\n      dup1\n      revert\n    tag_164:\n      pop\n      tag_165\n      tag_166\n      jump\t// in\n    tag_165:\n      mload(0x40)\n      tag_167\n      swap2\n      swap1\n      tag_54\n      jump\t// in\n    tag_167:\n      mload(0x40)\n      dup1\n      swap2\n      sub\n      swap1\n      return\n        /* \"WandInstruments.sol\":12627:12913  function getTokensSoldXDays() external view returns (uint256){\r... */\n    tag_30:\n      callvalue\n      dup1\n      iszero\n      tag_168\n      jumpi\n      0x00\n      dup1\n      revert\n    tag_168:\n      pop\n      tag_169\n      tag_170\n      jump\t// in\n    tag_169:\n      mload(0x40)\n      tag_171\n      swap2\n      swap1\n      tag_54\n      jump\t// in\n    tag_171:\n      mload(0x40)\n      dup1\n      swap2\n      sub\n      swap1\n      return\n        /* \"WandInstruments.sol\":1357:1379  IERC20 public mockUSDC */\n    tag_31:\n      callvalue\n      dup1\n      iszero\n      tag_172\n      jumpi\n      0x00\n      dup1\n      revert\n    tag_172:\n      pop\n      tag_173\n      tag_174\n      jump\t// in\n    tag_173:\n      mload(0x40)\n      tag_175\n      swap2\n      swap1\n      tag_138\n      jump\t// in\n    tag_175:\n      mload(0x40)\n      dup1\n      swap2\n      sub\n      swap1\n      return\n        /* \"WandInstruments.sol\":3872:4056  function queryERC20Balance(address _tokenAddress, address _addressToQuery) view public returns (uint) {\r... */\n    tag_32:\n      callvalue\n      dup1\n      iszero\n      tag_176\n      jumpi\n      0x00\n      dup1\n      revert\n    tag_176:\n      pop\n      tag_177\n      0x04\n      dup1\n      calldatasize\n      sub\n      dup2\n      add\n      swap1\n      tag_178\n      swap2\n      swap1\n      tag_179\n      jump\t// in\n    tag_178:\n      tag_180\n      jump\t// in\n    tag_177:\n      mload(0x40)\n      tag_181\n      swap2\n      swap1\n      tag_54\n      jump\t// in\n    tag_181:\n      mload(0x40)\n      dup1\n      swap2\n      sub\n      swap1\n      return\n        /* \"WandInstruments.sol\":298:325  uint256 public growthFactor */\n    tag_33:\n      callvalue\n      dup1\n      iszero\n      tag_182\n      jumpi\n      0x00\n      dup1\n      revert\n    tag_182:\n      pop\n      tag_183\n      tag_184\n      jump\t// in\n    tag_183:\n      mload(0x40)\n      tag_185\n      swap2\n      swap1\n      tag_54\n      jump\t// in\n    tag_185:\n      mload(0x40)\n      dup1\n      swap2\n      sub\n      swap1\n      return\n        /* \"WandInstruments.sol\":1113:1183  address public testwallet = 0x617F2E2fD72FD9D5503197092aC168c91465E7f2 */\n    tag_34:\n      callvalue\n      dup1\n      iszero\n      tag_186\n      jumpi\n      0x00\n      dup1\n      revert\n    tag_186:\n      pop\n      tag_187\n      tag_188\n      jump\t// in\n    tag_187:\n      mload(0x40)\n      tag_189\n      swap2\n      swap1\n      tag_49\n      jump\t// in\n    tag_189:\n      mload(0x40)\n      dup1\n      swap2\n      sub\n      swap1\n      return\n        /* \"WandInstruments.sol\":3507:3677  function decMul18(uint x, uint y) public pure returns (uint decProd) {\r... */\n    tag_35:\n      callvalue\n      dup1\n      iszero\n      tag_190\n      jumpi\n      0x00\n      dup1\n      revert\n    tag_190:\n      pop\n      tag_191\n      0x04\n      dup1\n      calldatasize\n      sub\n      dup2\n      add\n      swap1\n      tag_192\n      swap2\n      swap1\n      tag_115\n      jump\t// in\n    tag_192:\n      tag_193\n      jump\t// in\n    tag_191:\n      mload(0x40)\n      tag_194\n      swap2\n      swap1\n      tag_54\n      jump\t// in\n    tag_194:\n      mload(0x40)\n      dup1\n      swap2\n      sub\n      swap1\n      return\n        /* \"WandInstruments.sol\":546:574  address public treasury1Addr */\n    tag_36:\n      callvalue\n      dup1\n      iszero\n      tag_195\n      jumpi\n      0x00\n      dup1\n      revert\n    tag_195:\n      pop\n      tag_196\n      tag_197\n      jump\t// in\n    tag_196:\n      mload(0x40)\n      tag_198\n      swap2\n      swap1\n      tag_49\n      jump\t// in\n    tag_198:\n      mload(0x40)\n      dup1\n      swap2\n      sub\n      swap1\n      return\n        /* \"WandInstruments.sol\":10826:10982  function setDaysUsedInFactors(uint256 numDays) public {  \r... */\n    tag_37:\n      callvalue\n      dup1\n      iszero\n      tag_199\n      jumpi\n      0x00\n      dup1\n      revert\n    tag_199:\n      pop\n      tag_200\n      0x04\n      dup1\n      calldatasize\n      sub\n      dup2\n      add\n      swap1\n      tag_201\n      swap2\n      swap1\n      tag_69\n      jump\t// in\n    tag_201:\n      tag_202\n      jump\t// in\n    tag_200:\n      stop\n        /* \"WandInstruments.sol\":622:653  address public riskTreasuryAddr */\n    tag_47:\n      0x08\n      0x00\n      swap1\n      sload\n      swap1\n      0x0100\n      exp\n      swap1\n      div\n      0xffffffffffffffffffffffffffffffffffffffff\n      and\n      dup2\n      jump\t// out\n        /* \"WandInstruments.sol\":9119:10014  function getSellFactor() external view returns (uint256){\r... */\n    tag_52:\n        /* \"WandInstruments.sol\":9167:9174  uint256 */\n      0x00\n        /* \"WandInstruments.sol\":9320:9331  uint256 _sF */\n      dup1\n        /* \"WandInstruments.sol\":9343:9366  uint256 xDaysCircSupply */\n      0x00\n        /* \"WandInstruments.sol\":9377:9392  uint256 numdays */\n      dup1\n        /* \"WandInstruments.sol\":9413:9418  86400 */\n      0x015180\n        /* \"WandInstruments.sol\":9395:9412  daysInCalculation */\n      sload(0x0c)\n        /* \"WandInstruments.sol\":9395:9418  daysInCalculation/86400 */\n      tag_204\n      swap2\n      swap1\n      tag_205\n      jump\t// in\n    tag_204:\n        /* \"WandInstruments.sol\":9377:9418  uint256 numdays = daysInCalculation/86400 */\n      swap1\n      pop\n        /* \"WandInstruments.sol\":9429:9453  uint256 daySinceLaunched */\n      0x00\n        /* \"WandInstruments.sol\":9491:9496  86400 */\n      0x015180\n        /* \"WandInstruments.sol\":9475:9487  timeLaunched */\n      sload(0x0b)\n        /* \"WandInstruments.sol\":9457:9472  block.timestamp */\n      timestamp\n        /* \"WandInstruments.sol\":9457:9487  block.timestamp - timeLaunched */\n      tag_206\n      swap2\n      swap1\n      tag_207\n      jump\t// in\n    tag_206:\n        /* \"WandInstruments.sol\":9456:9496  (block.timestamp - timeLaunched) / 86400 */\n      tag_208\n      swap2\n      swap1\n      tag_205\n      jump\t// in\n    tag_208:\n        /* \"WandInstruments.sol\":9429:9496  uint256 daySinceLaunched = (block.timestamp - timeLaunched) / 86400 */\n      swap1\n      pop\n        /* \"WandInstruments.sol\":9507:9516  uint256 d */\n      0x00\n        /* \"WandInstruments.sol\":9553:9554  0 */\n      dup1\n        /* \"WandInstruments.sol\":9533:9549  daySinceLaunched */\n      dup3\n        /* \"WandInstruments.sol\":9533:9554  daySinceLaunched == 0 */\n      eq\n        /* \"WandInstruments.sol\":9529:9821  if (daySinceLaunched == 0) {\r... */\n      iszero\n      tag_209\n      jumpi\n        /* \"WandInstruments.sol\":9585:9607  circulatingSupplyXDays */\n      0x16\n        /* \"WandInstruments.sol\":9585:9610  circulatingSupplyXDays[0] */\n      0x00\n        /* \"WandInstruments.sol\":9608:9609  0 */\n      dup1\n        /* \"WandInstruments.sol\":9585:9610  circulatingSupplyXDays[0] */\n      dup2\n      mstore\n      0x20\n      add\n      swap1\n      dup2\n      mstore\n      0x20\n      add\n      0x00\n      keccak256\n      sload\n        /* \"WandInstruments.sol\":9567:9610  xDaysCircSupply = circulatingSupplyXDays[0] */\n      swap4\n      pop\n        /* \"WandInstruments.sol\":9529:9821  if (daySinceLaunched == 0) {\r... */\n      jump(tag_210)\n    tag_209:\n        /* \"WandInstruments.sol\":9679:9686  numdays */\n      dup3\n        /* \"WandInstruments.sol\":9660:9676  daySinceLaunched */\n      dup3\n        /* \"WandInstruments.sol\":9660:9686  daySinceLaunched - numdays */\n      tag_214\n      swap2\n      swap1\n      tag_207\n      jump\t// in\n    tag_214:\n        /* \"WandInstruments.sol\":9656:9686  d = daySinceLaunched - numdays */\n      swap1\n      pop\n        /* \"WandInstruments.sol\":9651:9810  for (d = daySinceLaunched - numdays; d < daySinceLaunched; d++) {  //for loop example\r... */\n    tag_211:\n        /* \"WandInstruments.sol\":9692:9708  daySinceLaunched */\n      dup2\n        /* \"WandInstruments.sol\":9688:9689  d */\n      dup2\n        /* \"WandInstruments.sol\":9688:9708  d < daySinceLaunched */\n      lt\n        /* \"WandInstruments.sol\":9651:9810  for (d = daySinceLaunched - numdays; d < daySinceLaunched; d++) {  //for loop example\r... */\n      iszero\n      tag_212\n      jumpi\n        /* \"WandInstruments.sol\":9769:9791  circulatingSupplyXDays */\n      0x16\n        /* \"WandInstruments.sol\":9769:9794  circulatingSupplyXDays[d] */\n      0x00\n        /* \"WandInstruments.sol\":9792:9793  d */\n      dup3\n        /* \"WandInstruments.sol\":9769:9794  circulatingSupplyXDays[d] */\n      dup2\n      mstore\n      0x20\n      add\n      swap1\n      dup2\n      mstore\n      0x20\n      add\n      0x00\n      keccak256\n      sload\n        /* \"WandInstruments.sol\":9750:9794  xDaysCircSupply += circulatingSupplyXDays[d] */\n      dup5\n      tag_215\n      swap2\n      swap1\n      tag_216\n      jump\t// in\n    tag_215:\n      swap4\n      pop\n        /* \"WandInstruments.sol\":9710:9713  d++ */\n      dup1\n      dup1\n      tag_217\n      swap1\n      tag_218\n      jump\t// in\n    tag_217:\n      swap2\n      pop\n      pop\n        /* \"WandInstruments.sol\":9651:9810  for (d = daySinceLaunched - numdays; d < daySinceLaunched; d++) {  //for loop example\r... */\n      jump(tag_211)\n    tag_212:\n        /* \"WandInstruments.sol\":9529:9821  if (daySinceLaunched == 0) {\r... */\n    tag_210:\n        /* \"WandInstruments.sol\":9838:9889  decDiv18(this.getTokensSoldXDays(),xDaysCircSupply) */\n      tag_219\n        /* \"WandInstruments.sol\":9847:9851  this */\n      address\n        /* \"WandInstruments.sol\":9847:9870  this.getTokensSoldXDays */\n      0xffffffffffffffffffffffffffffffffffffffff\n      and\n      0xd82eddf2\n        /* \"WandInstruments.sol\":9847:9872  this.getTokensSoldXDays() */\n      mload(0x40)\n      dup2\n      0xffffffff\n      and\n      0xe0\n      shl\n      dup2\n      mstore\n      0x04\n      add\n      0x20\n      mload(0x40)\n      dup1\n      dup4\n      sub\n      dup2\n      dup7\n      dup1\n      extcodesize\n      iszero\n      dup1\n      iszero\n      tag_220\n      jumpi\n      0x00\n      dup1\n      revert\n    tag_220:\n      pop\n      gas\n      staticcall\n      iszero\n      dup1\n      iszero\n      tag_222\n      jumpi\n      returndatasize\n      0x00\n      dup1\n      returndatacopy\n      revert(0x00, returndatasize)\n    tag_222:\n      pop\n      pop\n      pop\n      pop\n      mload(0x40)\n      returndatasize\n      not(0x1f)\n      0x1f\n      dup3\n      add\n      and\n      dup3\n      add\n      dup1\n      0x40\n      mstore\n      pop\n      dup2\n      add\n      swap1\n      tag_223\n      swap2\n      swap1\n      tag_224\n      jump\t// in\n    tag_223:\n        /* \"WandInstruments.sol\":9873:9888  xDaysCircSupply */\n      dup6\n        /* \"WandInstruments.sol\":9838:9846  decDiv18 */\n      tag_120\n        /* \"WandInstruments.sol\":9838:9889  decDiv18(this.getTokensSoldXDays(),xDaysCircSupply) */\n      jump\t// in\n    tag_219:\n        /* \"WandInstruments.sol\":9832:9889  _sF = decDiv18(this.getTokensSoldXDays(),xDaysCircSupply) */\n      swap5\n      pop\n        /* \"WandInstruments.sol\":9909:9927  300000000000000000 */\n      0x0429d069189e0000\n        /* \"WandInstruments.sol\":9903:9906  _sF */\n      dup6\n        /* \"WandInstruments.sol\":9903:9927  _sF > 300000000000000000 */\n      gt\n        /* \"WandInstruments.sol\":9899:9986  if (_sF > 300000000000000000)\r... */\n      iszero\n      tag_225\n      jumpi\n        /* \"WandInstruments.sol\":9957:9975  300000000000000000 */\n      0x0429d069189e0000\n        /* \"WandInstruments.sol\":9951:9975  _sF = 300000000000000000 */\n      swap5\n      pop\n        /* \"WandInstruments.sol\":9899:9986  if (_sF > 300000000000000000)\r... */\n    tag_225:\n        /* \"WandInstruments.sol\":10002:10005  _sF */\n      dup5\n        /* \"WandInstruments.sol\":9995:10005  return _sF */\n      swap6\n      pop\n      pop\n      pop\n      pop\n      pop\n      pop\n        /* \"WandInstruments.sol\":9119:10014  function getSellFactor() external view returns (uint256){\r... */\n      swap1\n      jump\t// out\n        /* \"WandInstruments.sol\":12919:12988  function getCircSupplyXDays() external view returns (uint256){\r... */\n    tag_57:\n        /* \"WandInstruments.sol\":12972:12979  uint256 */\n      0x00\n        /* \"WandInstruments.sol\":12919:12988  function getCircSupplyXDays() external view returns (uint256){\r... */\n      swap1\n      jump\t// out\n        /* \"WandInstruments.sol\":1724:1784  mapping(address => lockedamounts) public withheldWithdrawals */\n    tag_63:\n      mstore(0x20, 0x17)\n      dup1\n      0x00\n      mstore\n      keccak256(0x00, 0x40)\n      0x00\n      swap2\n      pop\n      swap1\n      pop\n      dup1\n      0x00\n      add\n      sload\n      swap1\n      dup1\n      0x01\n      add\n      sload\n      swap1\n      pop\n      dup3\n      jump\t// out\n        /* \"WandInstruments.sol\":1496:1546  mapping(uint256 => uint256) public tokensSoldXDays */\n    tag_70:\n      mstore(0x20, 0x15)\n      dup1\n      0x00\n      mstore\n      keccak256(0x00, 0x40)\n      0x00\n      swap2\n      pop\n      swap1\n      pop\n      sload\n      dup2\n      jump\t// out\n        /* \"WandInstruments.sol\":11480:11982  function testUpdatetimeLockedminus(uint256 amt) public  {\r... */\n    tag_75:\n        /* \"WandInstruments.sol\":11561:11580  withheldWithdrawals */\n      0x17\n        /* \"WandInstruments.sol\":11561:11592  withheldWithdrawals[msg.sender] */\n      0x00\n        /* \"WandInstruments.sol\":11581:11591  msg.sender */\n      caller\n        /* \"WandInstruments.sol\":11561:11592  withheldWithdrawals[msg.sender] */\n      0xffffffffffffffffffffffffffffffffffffffff\n      and\n      0xffffffffffffffffffffffffffffffffffffffff\n      and\n      dup2\n      mstore\n      0x20\n      add\n      swap1\n      dup2\n      mstore\n      0x20\n      add\n      0x00\n      keccak256\n        /* \"WandInstruments.sol\":11561:11600  withheldWithdrawals[msg.sender].amounts */\n      0x01\n      add\n      sload\n        /* \"WandInstruments.sol\":11555:11558  amt */\n      dup2\n        /* \"WandInstruments.sol\":11555:11600  amt < withheldWithdrawals[msg.sender].amounts */\n      lt\n        /* \"WandInstruments.sol\":11547:11641  require(amt < withheldWithdrawals[msg.sender].amounts, \"You dont have that much to withdraw!\") */\n      tag_228\n      jumpi\n      mload(0x40)\n      0x08c379a000000000000000000000000000000000000000000000000000000000\n      dup2\n      mstore\n      0x04\n      add\n      tag_229\n      swap1\n      tag_230\n      jump\t// in\n    tag_229:\n      mload(0x40)\n      dup1\n      swap2\n      sub\n      swap1\n      revert\n    tag_228:\n        /* \"WandInstruments.sol\":11846:11849  amt */\n      dup1\n        /* \"WandInstruments.sol\":11803:11822  withheldWithdrawals */\n      0x17\n        /* \"WandInstruments.sol\":11803:11834  withheldWithdrawals[msg.sender] */\n      0x00\n        /* \"WandInstruments.sol\":11823:11833  msg.sender */\n      caller\n        /* \"WandInstruments.sol\":11803:11834  withheldWithdrawals[msg.sender] */\n      0xffffffffffffffffffffffffffffffffffffffff\n      and\n      0xffffffffffffffffffffffffffffffffffffffff\n      and\n      dup2\n      mstore\n      0x20\n      add\n      swap1\n      dup2\n      mstore\n      0x20\n      add\n      0x00\n      keccak256\n        /* \"WandInstruments.sol\":11803:11842  withheldWithdrawals[msg.sender].amounts */\n      0x01\n      add\n      0x00\n        /* \"WandInstruments.sol\":11803:11849  withheldWithdrawals[msg.sender].amounts -= amt */\n      dup3\n      dup3\n      sload\n      tag_231\n      swap2\n      swap1\n      tag_207\n      jump\t// in\n    tag_231:\n      swap3\n      pop\n      pop\n      dup2\n      swap1\n      sstore\n      pop\n        /* \"WandInstruments.sol\":11906:11907  0 */\n      0x00\n        /* \"WandInstruments.sol\":11864:11883  withheldWithdrawals */\n      0x17\n        /* \"WandInstruments.sol\":11864:11895  withheldWithdrawals[msg.sender] */\n      0x00\n        /* \"WandInstruments.sol\":11884:11894  msg.sender */\n      caller\n        /* \"WandInstruments.sol\":11864:11895  withheldWithdrawals[msg.sender] */\n      0xffffffffffffffffffffffffffffffffffffffff\n      and\n      0xffffffffffffffffffffffffffffffffffffffff\n      and\n      dup2\n      mstore\n      0x20\n      add\n      swap1\n      dup2\n      mstore\n      0x20\n      add\n      0x00\n      keccak256\n        /* \"WandInstruments.sol\":11864:11903  withheldWithdrawals[msg.sender].amounts */\n      0x01\n      add\n      sload\n        /* \"WandInstruments.sol\":11864:11907  withheldWithdrawals[msg.sender].amounts ==0 */\n      eq\n        /* \"WandInstruments.sol\":11860:11975  if (withheldWithdrawals[msg.sender].amounts ==0 ){\r... */\n      iszero\n      tag_232\n      jumpi\n        /* \"WandInstruments.sol\":11931:11950  withheldWithdrawals */\n      0x17\n        /* \"WandInstruments.sol\":11931:11962  withheldWithdrawals[msg.sender] */\n      0x00\n        /* \"WandInstruments.sol\":11951:11961  msg.sender */\n      caller\n        /* \"WandInstruments.sol\":11931:11962  withheldWithdrawals[msg.sender] */\n      0xffffffffffffffffffffffffffffffffffffffff\n      and\n      0xffffffffffffffffffffffffffffffffffffffff\n      and\n      dup2\n      mstore\n      0x20\n      add\n      swap1\n      dup2\n      mstore\n      0x20\n      add\n      0x00\n      keccak256\n      0x00\n        /* \"WandInstruments.sol\":11924:11963  delete(withheldWithdrawals[msg.sender]) */\n      dup1\n      dup3\n      add\n      0x00\n      swap1\n      sstore\n      0x01\n      dup3\n      add\n      0x00\n      swap1\n      sstore\n      pop\n      pop\n        /* \"WandInstruments.sol\":11860:11975  if (withheldWithdrawals[msg.sender].amounts ==0 ){\r... */\n    tag_232:\n        /* \"WandInstruments.sol\":11480:11982  function testUpdatetimeLockedminus(uint256 amt) public  {\r... */\n      pop\n      jump\t// out\n        /* \"WandInstruments.sol\":1553:1610  mapping(uint256 => uint256) public circulatingSupplyXDays */\n    tag_79:\n      mstore(0x20, 0x16)\n      dup1\n      0x00\n      mstore\n      keccak256(0x00, 0x40)\n      0x00\n      swap2\n      pop\n      swap1\n      pop\n      sload\n      dup2\n      jump\t// out\n        /* \"WandInstruments.sol\":6033:6778  function transformScepterToBaton(uint256 amountSCPtoSwap) public payable{\r... */\n    tag_83:\n        /* \"WandInstruments.sol\":6177:6203  uint256 trader_tsc_balance */\n      0x00\n        /* \"WandInstruments.sol\":6206:6209  tSC */\n      0x12\n      0x00\n      swap1\n      sload\n      swap1\n      0x0100\n      exp\n      swap1\n      div\n      0xffffffffffffffffffffffffffffffffffffffff\n      and\n        /* \"WandInstruments.sol\":6206:6219  tSC.balanceOf */\n      0xffffffffffffffffffffffffffffffffffffffff\n      and\n      0x70a08231\n        /* \"WandInstruments.sol\":6220:6230  msg.sender */\n      caller\n        /* \"WandInstruments.sol\":6206:6231  tSC.balanceOf(msg.sender) */\n      mload(0x40)\n      dup3\n      0xffffffff\n      and\n      0xe0\n      shl\n      dup2\n      mstore\n      0x04\n      add\n      tag_234\n      swap2\n      swap1\n      tag_49\n      jump\t// in\n    tag_234:\n      0x20\n      mload(0x40)\n      dup1\n      dup4\n      sub\n      dup2\n      dup7\n      dup1\n      extcodesize\n      iszero\n      dup1\n      iszero\n      tag_235\n      jumpi\n      0x00\n      dup1\n      revert\n    tag_235:\n      pop\n      gas\n      staticcall\n      iszero\n      dup1\n      iszero\n      tag_237\n      jumpi\n      returndatasize\n      0x00\n      dup1\n      returndatacopy\n      revert(0x00, returndatasize)\n    tag_237:\n      pop\n      pop\n      pop\n      pop\n      mload(0x40)\n      returndatasize\n      not(0x1f)\n      0x1f\n      dup3\n      add\n      and\n      dup3\n      add\n      dup1\n      0x40\n      mstore\n      pop\n      dup2\n      add\n      swap1\n      tag_238\n      swap2\n      swap1\n      tag_224\n      jump\t// in\n    tag_238:\n        /* \"WandInstruments.sol\":6177:6231  uint256 trader_tsc_balance = tSC.balanceOf(msg.sender) */\n      swap1\n      pop\n        /* \"WandInstruments.sol\":6271:6286  amountSCPtoSwap */\n      dup2\n        /* \"WandInstruments.sol\":6250:6268  trader_tsc_balance */\n      dup2\n        /* \"WandInstruments.sol\":6250:6286  trader_tsc_balance > amountSCPtoSwap */\n      gt\n        /* \"WandInstruments.sol\":6242:6317  require(trader_tsc_balance > amountSCPtoSwap, \"You dont have that amount!\") */\n      tag_239\n      jumpi\n      mload(0x40)\n      0x08c379a000000000000000000000000000000000000000000000000000000000\n      dup2\n      mstore\n      0x04\n      add\n      tag_240\n      swap1\n      tag_241\n      jump\t// in\n    tag_240:\n      mload(0x40)\n      dup1\n      swap2\n      sub\n      swap1\n      revert\n    tag_239:\n        /* \"WandInstruments.sol\":6371:6437  _safeTransferFrom(tSC, msg.sender, address(this), amountSCPtoSwap) */\n      tag_242\n        /* \"WandInstruments.sol\":6389:6392  tSC */\n      0x12\n      0x00\n      swap1\n      sload\n      swap1\n      0x0100\n      exp\n      swap1\n      div\n      0xffffffffffffffffffffffffffffffffffffffff\n      and\n        /* \"WandInstruments.sol\":6394:6404  msg.sender */\n      caller\n        /* \"WandInstruments.sol\":6414:6418  this */\n      address\n        /* \"WandInstruments.sol\":6421:6436  amountSCPtoSwap */\n      dup6\n        /* \"WandInstruments.sol\":6371:6388  _safeTransferFrom */\n      tag_243\n        /* \"WandInstruments.sol\":6371:6437  _safeTransferFrom(tSC, msg.sender, address(this), amountSCPtoSwap) */\n      jump\t// in\n    tag_242:\n        /* \"WandInstruments.sol\":6498:6514  uint256 dInArray */\n      0x00\n        /* \"WandInstruments.sol\":6548:6553  86400 */\n      0x015180\n        /* \"WandInstruments.sol\":6534:6546  timeLaunched */\n      sload(0x0b)\n        /* \"WandInstruments.sol\":6517:6532  block.timestamp */\n      timestamp\n        /* \"WandInstruments.sol\":6517:6546  block.timestamp- timeLaunched */\n      tag_244\n      swap2\n      swap1\n      tag_207\n      jump\t// in\n    tag_244:\n        /* \"WandInstruments.sol\":6516:6553  (block.timestamp- timeLaunched)/86400 */\n      tag_245\n      swap2\n      swap1\n      tag_205\n      jump\t// in\n    tag_245:\n        /* \"WandInstruments.sol\":6498:6553  uint256 dInArray =(block.timestamp- timeLaunched)/86400 */\n      swap1\n      pop\n        /* \"WandInstruments.sol\":6594:6609  amountSCPtoSwap */\n      dup3\n        /* \"WandInstruments.sol\":6565:6580  tokensSoldXDays */\n      0x15\n        /* \"WandInstruments.sol\":6565:6590  tokensSoldXDays[dInArray] */\n      0x00\n        /* \"WandInstruments.sol\":6581:6589  dInArray */\n      dup4\n        /* \"WandInstruments.sol\":6565:6590  tokensSoldXDays[dInArray] */\n      dup2\n      mstore\n      0x20\n      add\n      swap1\n      dup2\n      mstore\n      0x20\n      add\n      0x00\n      keccak256\n      0x00\n        /* \"WandInstruments.sol\":6565:6609  tokensSoldXDays[dInArray] += amountSCPtoSwap */\n      dup3\n      dup3\n      sload\n      tag_246\n      swap2\n      swap1\n      tag_216\n      jump\t// in\n    tag_246:\n      swap3\n      pop\n      pop\n      dup2\n      swap1\n      sstore\n      pop\n        /* \"WandInstruments.sol\":6656:6671  amountSCPtoSwap */\n      dup3\n        /* \"WandInstruments.sol\":6620:6642  circulatingSupplyXDays */\n      0x16\n        /* \"WandInstruments.sol\":6620:6652  circulatingSupplyXDays[dInArray] */\n      0x00\n        /* \"WandInstruments.sol\":6643:6651  dInArray */\n      dup4\n        /* \"WandInstruments.sol\":6620:6652  circulatingSupplyXDays[dInArray] */\n      dup2\n      mstore\n      0x20\n      add\n      swap1\n      dup2\n      mstore\n      0x20\n      add\n      0x00\n      keccak256\n      0x00\n        /* \"WandInstruments.sol\":6620:6671  circulatingSupplyXDays[dInArray] -= amountSCPtoSwap */\n      dup3\n      dup3\n      sload\n      tag_247\n      swap2\n      swap1\n      tag_207\n      jump\t// in\n    tag_247:\n      swap3\n      pop\n      pop\n      dup2\n      swap1\n      sstore\n      pop\n        /* \"WandInstruments.sol\":6105:6778  {\r... */\n      pop\n      pop\n        /* \"WandInstruments.sol\":6033:6778  function transformScepterToBaton(uint256 amountSCPtoSwap) public payable{\r... */\n      pop\n      jump\t// out\n        /* \"WandInstruments.sol\":10020:10232  function getBackingPrice() external view returns (uint256){\r... */\n    tag_86:\n        /* \"WandInstruments.sol\":10070:10077  uint256 */\n      0x00\n        /* \"WandInstruments.sol\":10184:10224  decDiv18(treasury1bal,tSC.totalSupply()) */\n      tag_249\n        /* \"WandInstruments.sol\":10193:10205  treasury1bal */\n      sload(0x0a)\n        /* \"WandInstruments.sol\":10206:10209  tSC */\n      0x12\n      0x00\n      swap1\n      sload\n      swap1\n      0x0100\n      exp\n      swap1\n      div\n      0xffffffffffffffffffffffffffffffffffffffff\n      and\n        /* \"WandInstruments.sol\":10206:10221  tSC.totalSupply */\n      0xffffffffffffffffffffffffffffffffffffffff\n      and\n      0x18160ddd\n        /* \"WandInstruments.sol\":10206:10223  tSC.totalSupply() */\n      mload(0x40)\n      dup2\n      0xffffffff\n      and\n      0xe0\n      shl\n      dup2\n      mstore\n      0x04\n      add\n      0x20\n      mload(0x40)\n      dup1\n      dup4\n      sub\n      dup2\n      dup7\n      dup1\n      extcodesize\n      iszero\n      dup1\n      iszero\n      tag_250\n      jumpi\n      0x00\n      dup1\n      revert\n    tag_250:\n      pop\n      gas\n      staticcall\n      iszero\n      dup1\n      iszero\n      tag_252\n      jumpi\n      returndatasize\n      0x00\n      dup1\n      returndatacopy\n      revert(0x00, returndatasize)\n    tag_252:\n      pop\n      pop\n      pop\n      pop\n      mload(0x40)\n      returndatasize\n      not(0x1f)\n      0x1f\n      dup3\n      add\n      and\n      dup3\n      add\n      dup1\n      0x40\n      mstore\n      pop\n      dup2\n      add\n      swap1\n      tag_253\n      swap2\n      swap1\n      tag_224\n      jump\t// in\n    tag_253:\n        /* \"WandInstruments.sol\":10184:10192  decDiv18 */\n      tag_120\n        /* \"WandInstruments.sol\":10184:10224  decDiv18(treasury1bal,tSC.totalSupply()) */\n      jump\t// in\n    tag_249:\n        /* \"WandInstruments.sol\":10177:10224  return decDiv18(treasury1bal,tSC.totalSupply()) */\n      swap1\n      pop\n        /* \"WandInstruments.sol\":10020:10232  function getBackingPrice() external view returns (uint256){\r... */\n      swap1\n      jump\t// out\n        /* \"WandInstruments.sol\":660:688  address public devWalletAddr */\n    tag_90:\n      0x09\n      0x00\n      swap1\n      sload\n      swap1\n      0x0100\n      exp\n      swap1\n      div\n      0xffffffffffffffffffffffffffffffffffffffff\n      and\n      dup2\n      jump\t// out\n        /* \"WandInstruments.sol\":1437:1489  mapping(uint256 => uint256) public tokensBoughtXDays */\n    tag_95:\n      mstore(0x20, 0x14)\n      dup1\n      0x00\n      mstore\n      keccak256(0x00, 0x40)\n      0x00\n      swap2\n      pop\n      swap1\n      pop\n      sload\n      dup2\n      jump\t// out\n        /* \"WandInstruments.sol\":10519:10795  function getBuyBackPrice() external view returns (uint256){\r... */\n    tag_99:\n        /* \"WandInstruments.sol\":10569:10576  uint256 */\n      0x00\n        /* \"WandInstruments.sol\":10709:10787  decMul18(this.getBackingPrice() , (900000000000000000 - this.getSellFactor())) */\n      tag_255\n        /* \"WandInstruments.sol\":10718:10722  this */\n      address\n        /* \"WandInstruments.sol\":10718:10738  this.getBackingPrice */\n      0xffffffffffffffffffffffffffffffffffffffff\n      and\n      0x1f564a06\n        /* \"WandInstruments.sol\":10718:10740  this.getBackingPrice() */\n      mload(0x40)\n      dup2\n      0xffffffff\n      and\n      0xe0\n      shl\n      dup2\n      mstore\n      0x04\n      add\n      0x20\n      mload(0x40)\n      dup1\n      dup4\n      sub\n      dup2\n      dup7\n      dup1\n      extcodesize\n      iszero\n      dup1\n      iszero\n      tag_256\n      jumpi\n      0x00\n      dup1\n      revert\n    tag_256:\n      pop\n      gas\n      staticcall\n      iszero\n      dup1\n      iszero\n      tag_258\n      jumpi\n      returndatasize\n      0x00\n      dup1\n      returndatacopy\n      revert(0x00, returndatasize)\n    tag_258:\n      pop\n      pop\n      pop\n      pop\n      mload(0x40)\n      returndatasize\n      not(0x1f)\n      0x1f\n      dup3\n      add\n      and\n      dup3\n      add\n      dup1\n      0x40\n      mstore\n      pop\n      dup2\n      add\n      swap1\n      tag_259\n      swap2\n      swap1\n      tag_224\n      jump\t// in\n    tag_259:\n        /* \"WandInstruments.sol\":10765:10769  this */\n      address\n        /* \"WandInstruments.sol\":10765:10783  this.getSellFactor */\n      0xffffffffffffffffffffffffffffffffffffffff\n      and\n      0x0ccaf04f\n        /* \"WandInstruments.sol\":10765:10785  this.getSellFactor() */\n      mload(0x40)\n      dup2\n      0xffffffff\n      and\n      0xe0\n      shl\n      dup2\n      mstore\n      0x04\n      add\n      0x20\n      mload(0x40)\n      dup1\n      dup4\n      sub\n      dup2\n      dup7\n      dup1\n      extcodesize\n      iszero\n      dup1\n      iszero\n      tag_260\n      jumpi\n      0x00\n      dup1\n      revert\n    tag_260:\n      pop\n      gas\n      staticcall\n      iszero\n      dup1\n      iszero\n      tag_262\n      jumpi\n      returndatasize\n      0x00\n      dup1\n      returndatacopy\n      revert(0x00, returndatasize)\n    tag_262:\n      pop\n      pop\n      pop\n      pop\n      mload(0x40)\n      returndatasize\n      not(0x1f)\n      0x1f\n      dup3\n      add\n      and\n      dup3\n      add\n      dup1\n      0x40\n      mstore\n      pop\n      dup2\n      add\n      swap1\n      tag_263\n      swap2\n      swap1\n      tag_224\n      jump\t// in\n    tag_263:\n        /* \"WandInstruments.sol\":10744:10762  900000000000000000 */\n      0x0c7d713b49da0000\n        /* \"WandInstruments.sol\":10744:10785  900000000000000000 - this.getSellFactor() */\n      tag_264\n      swap2\n      swap1\n      tag_207\n      jump\t// in\n    tag_264:\n        /* \"WandInstruments.sol\":10709:10717  decMul18 */\n      tag_193\n        /* \"WandInstruments.sol\":10709:10787  decMul18(this.getBackingPrice() , (900000000000000000 - this.getSellFactor())) */\n      jump\t// in\n    tag_255:\n        /* \"WandInstruments.sol\":10702:10787  return decMul18(this.getBackingPrice() , (900000000000000000 - this.getSellFactor())) */\n      swap1\n      pop\n        /* \"WandInstruments.sol\":10519:10795  function getBuyBackPrice() external view returns (uint256){\r... */\n      swap1\n      jump\t// out\n        /* \"WandInstruments.sol\":729:775  uint256 public treasury1bal = 50000*(DECIMALS) */\n    tag_103:\n      sload(0x0a)\n      dup2\n      jump\t// out\n        /* \"WandInstruments.sol\":804:831  uint256 public timeLaunched */\n    tag_107:\n      sload(0x0b)\n      dup2\n      jump\t// out\n        /* \"WandInstruments.sol\":10238:10513  function getSellPrice() external view returns (uint256){\r... */\n    tag_111:\n        /* \"WandInstruments.sol\":10285:10292  uint256 */\n      0x00\n        /* \"WandInstruments.sol\":10422:10503  decMul18(this.getBackingPrice() , (1200000000000000000 + this.getGrowthFactor())) */\n      tag_266\n        /* \"WandInstruments.sol\":10431:10435  this */\n      address\n        /* \"WandInstruments.sol\":10431:10451  this.getBackingPrice */\n      0xffffffffffffffffffffffffffffffffffffffff\n      and\n      0x1f564a06\n        /* \"WandInstruments.sol\":10431:10453  this.getBackingPrice() */\n      mload(0x40)\n      dup2\n      0xffffffff\n      and\n      0xe0\n      shl\n      dup2\n      mstore\n      0x04\n      add\n      0x20\n      mload(0x40)\n      dup1\n      dup4\n      sub\n      dup2\n      dup7\n      dup1\n      extcodesize\n      iszero\n      dup1\n      iszero\n      tag_267\n      jumpi\n      0x00\n      dup1\n      revert\n    tag_267:\n      pop\n      gas\n      staticcall\n      iszero\n      dup1\n      iszero\n      tag_269\n      jumpi\n      returndatasize\n      0x00\n      dup1\n      returndatacopy\n      revert(0x00, returndatasize)\n    tag_269:\n      pop\n      pop\n      pop\n      pop\n      mload(0x40)\n      returndatasize\n      not(0x1f)\n      0x1f\n      dup3\n      add\n      and\n      dup3\n      add\n      dup1\n      0x40\n      mstore\n      pop\n      dup2\n      add\n      swap1\n      tag_270\n      swap2\n      swap1\n      tag_224\n      jump\t// in\n    tag_270:\n        /* \"WandInstruments.sol\":10479:10483  this */\n      address\n        /* \"WandInstruments.sol\":10479:10499  this.getGrowthFactor */\n      0xffffffffffffffffffffffffffffffffffffffff\n      and\n      0x93f7b711\n        /* \"WandInstruments.sol\":10479:10501  this.getGrowthFactor() */\n      mload(0x40)\n      dup2\n      0xffffffff\n      and\n      0xe0\n      shl\n      dup2\n      mstore\n      0x04\n      add\n      0x20\n      mload(0x40)\n      dup1\n      dup4\n      sub\n      dup2\n      dup7\n      dup1\n      extcodesize\n      iszero\n      dup1\n      iszero\n      tag_271\n      jumpi\n      0x00\n      dup1\n      revert\n    tag_271:\n      pop\n      gas\n      staticcall\n      iszero\n      dup1\n      iszero\n      tag_273\n      jumpi\n      returndatasize\n      0x00\n      dup1\n      returndatacopy\n      revert(0x00, returndatasize)\n    tag_273:\n      pop\n      pop\n      pop\n      pop\n      mload(0x40)\n      returndatasize\n      not(0x1f)\n      0x1f\n      dup3\n      add\n      and\n      dup3\n      add\n      dup1\n      0x40\n      mstore\n      pop\n      dup2\n      add\n      swap1\n      tag_274\n      swap2\n      swap1\n      tag_224\n      jump\t// in\n    tag_274:\n        /* \"WandInstruments.sol\":10457:10476  1200000000000000000 */\n      0x10a741a462780000\n        /* \"WandInstruments.sol\":10457:10501  1200000000000000000 + this.getGrowthFactor() */\n      tag_275\n      swap2\n      swap1\n      tag_216\n      jump\t// in\n    tag_275:\n        /* \"WandInstruments.sol\":10422:10430  decMul18 */\n      tag_193\n        /* \"WandInstruments.sol\":10422:10503  decMul18(this.getBackingPrice() , (1200000000000000000 + this.getGrowthFactor())) */\n      jump\t// in\n    tag_266:\n        /* \"WandInstruments.sol\":10415:10503  return decMul18(this.getBackingPrice() , (1200000000000000000 + this.getGrowthFactor())) */\n      swap1\n      pop\n        /* \"WandInstruments.sol\":10238:10513  function getSellPrice() external view returns (uint256){\r... */\n      swap1\n      jump\t// out\n        /* \"WandInstruments.sol\":4409:6025  function cashOutScepter(uint256 amountSCPtoSell, uint256 timeChosenLocked) public payable{\r... */\n    tag_116:\n        /* \"WandInstruments.sol\":4570:4596  uint256 trader_tsc_balance */\n      0x00\n        /* \"WandInstruments.sol\":4599:4602  tSC */\n      0x12\n      0x00\n      swap1\n      sload\n      swap1\n      0x0100\n      exp\n      swap1\n      div\n      0xffffffffffffffffffffffffffffffffffffffff\n      and\n        /* \"WandInstruments.sol\":4599:4612  tSC.balanceOf */\n      0xffffffffffffffffffffffffffffffffffffffff\n      and\n      0x70a08231\n        /* \"WandInstruments.sol\":4613:4623  msg.sender */\n      caller\n        /* \"WandInstruments.sol\":4599:4624  tSC.balanceOf(msg.sender) */\n      mload(0x40)\n      dup3\n      0xffffffff\n      and\n      0xe0\n      shl\n      dup2\n      mstore\n      0x04\n      add\n      tag_277\n      swap2\n      swap1\n      tag_49\n      jump\t// in\n    tag_277:\n      0x20\n      mload(0x40)\n      dup1\n      dup4\n      sub\n      dup2\n      dup7\n      dup1\n      extcodesize\n      iszero\n      dup1\n      iszero\n      tag_278\n      jumpi\n      0x00\n      dup1\n      revert\n    tag_278:\n      pop\n      gas\n      staticcall\n      iszero\n      dup1\n      iszero\n      tag_280\n      jumpi\n      returndatasize\n      0x00\n      dup1\n      returndatacopy\n      revert(0x00, returndatasize)\n    tag_280:\n      pop\n      pop\n      pop\n      pop\n      mload(0x40)\n      returndatasize\n      not(0x1f)\n      0x1f\n      dup3\n      add\n      and\n      dup3\n      add\n      dup1\n      0x40\n      mstore\n      pop\n      dup2\n      add\n      swap1\n      tag_281\n      swap2\n      swap1\n      tag_224\n      jump\t// in\n    tag_281:\n        /* \"WandInstruments.sol\":4570:4624  uint256 trader_tsc_balance = tSC.balanceOf(msg.sender) */\n      swap1\n      pop\n        /* \"WandInstruments.sol\":4664:4679  amountSCPtoSell */\n      dup3\n        /* \"WandInstruments.sol\":4643:4661  trader_tsc_balance */\n      dup2\n        /* \"WandInstruments.sol\":4643:4679  trader_tsc_balance > amountSCPtoSell */\n      gt\n        /* \"WandInstruments.sol\":4635:4710  require(trader_tsc_balance > amountSCPtoSell, \"You dont have that amount!\") */\n      tag_282\n      jumpi\n      mload(0x40)\n      0x08c379a000000000000000000000000000000000000000000000000000000000\n      dup2\n      mstore\n      0x04\n      add\n      tag_283\n      swap1\n      tag_241\n      jump\t// in\n    tag_283:\n      mload(0x40)\n      dup1\n      swap2\n      sub\n      swap1\n      revert\n    tag_282:\n        /* \"WandInstruments.sol\":4912:4920  mockUSDC */\n      0x13\n      0x00\n      swap1\n      sload\n      swap1\n      0x0100\n      exp\n      swap1\n      div\n      0xffffffffffffffffffffffffffffffffffffffff\n      and\n        /* \"WandInstruments.sol\":4912:4929  mockUSDC.transfer */\n      0xffffffffffffffffffffffffffffffffffffffff\n      and\n      0xa9059cbb\n        /* \"WandInstruments.sol\":4930:4940  msg.sender */\n      caller\n        /* \"WandInstruments.sol\":283:289  10**18 */\n      0x0de0b6b3a7640000\n        /* \"WandInstruments.sol\":4961:4962  1 */\n      0x01\n        /* \"WandInstruments.sol\":4961:4973  1*(DECIMALS) */\n      tag_284\n      swap2\n      swap1\n      tag_285\n      jump\t// in\n    tag_284:\n        /* \"WandInstruments.sol\":4942:4957  amountSCPtoSell */\n      dup7\n        /* \"WandInstruments.sol\":4942:4974  amountSCPtoSell + (1*(DECIMALS)) */\n      tag_286\n      swap2\n      swap1\n      tag_216\n      jump\t// in\n    tag_286:\n        /* \"WandInstruments.sol\":4912:4975  mockUSDC.transfer(msg.sender, amountSCPtoSell + (1*(DECIMALS))) */\n      mload(0x40)\n      dup4\n      0xffffffff\n      and\n      0xe0\n      shl\n      dup2\n      mstore\n      0x04\n      add\n      tag_287\n      swap3\n      swap2\n      swap1\n      tag_288\n      jump\t// in\n    tag_287:\n      0x20\n      mload(0x40)\n      dup1\n      dup4\n      sub\n      dup2\n      0x00\n      dup8\n      dup1\n      extcodesize\n      iszero\n      dup1\n      iszero\n      tag_289\n      jumpi\n      0x00\n      dup1\n      revert\n    tag_289:\n      pop\n      gas\n      call\n      iszero\n      dup1\n      iszero\n      tag_291\n      jumpi\n      returndatasize\n      0x00\n      dup1\n      returndatacopy\n      revert(0x00, returndatasize)\n    tag_291:\n      pop\n      pop\n      pop\n      pop\n      mload(0x40)\n      returndatasize\n      not(0x1f)\n      0x1f\n      dup3\n      add\n      and\n      dup3\n      add\n      dup1\n      0x40\n      mstore\n      pop\n      dup2\n      add\n      swap1\n      tag_292\n      swap2\n      swap1\n      tag_293\n      jump\t// in\n    tag_292:\n      pop\n        /* \"WandInstruments.sol\":5078:5144  _safeTransferFrom(tSC, msg.sender, address(this), amountSCPtoSell) */\n      tag_294\n        /* \"WandInstruments.sol\":5096:5099  tSC */\n      0x12\n      0x00\n      swap1\n      sload\n      swap1\n      0x0100\n      exp\n      swap1\n      div\n      0xffffffffffffffffffffffffffffffffffffffff\n      and\n        /* \"WandInstruments.sol\":5101:5111  msg.sender */\n      caller\n        /* \"WandInstruments.sol\":5121:5125  this */\n      address\n        /* \"WandInstruments.sol\":5128:5143  amountSCPtoSell */\n      dup7\n        /* \"WandInstruments.sol\":5078:5095  _safeTransferFrom */\n      tag_243\n        /* \"WandInstruments.sol\":5078:5144  _safeTransferFrom(tSC, msg.sender, address(this), amountSCPtoSell) */\n      jump\t// in\n    tag_294:\n        /* \"WandInstruments.sol\":5158:5173  uint256 usdcAmt */\n      0x00\n        /* \"WandInstruments.sol\":5223:5238  amountSCPtoSell */\n      dup4\n        /* \"WandInstruments.sol\":5198:5202  this */\n      address\n        /* \"WandInstruments.sol\":5198:5218  this.getBuyBackPrice */\n      0xffffffffffffffffffffffffffffffffffffffff\n      and\n      0x308cdb88\n        /* \"WandInstruments.sol\":5198:5220  this.getBuyBackPrice() */\n      mload(0x40)\n      dup2\n      0xffffffff\n      and\n      0xe0\n      shl\n      dup2\n      mstore\n      0x04\n      add\n      0x20\n      mload(0x40)\n      dup1\n      dup4\n      sub\n      dup2\n      dup7\n      dup1\n      extcodesize\n      iszero\n      dup1\n      iszero\n      tag_295\n      jumpi\n      0x00\n      dup1\n      revert\n    tag_295:\n      pop\n      gas\n      staticcall\n      iszero\n      dup1\n      iszero\n      tag_297\n      jumpi\n      returndatasize\n      0x00\n      dup1\n      returndatacopy\n      revert(0x00, returndatasize)\n    tag_297:\n      pop\n      pop\n      pop\n      pop\n      mload(0x40)\n      returndatasize\n      not(0x1f)\n      0x1f\n      dup3\n      add\n      and\n      dup3\n      add\n      dup1\n      0x40\n      mstore\n      pop\n      dup2\n      add\n      swap1\n      tag_298\n      swap2\n      swap1\n      tag_224\n      jump\t// in\n    tag_298:\n        /* \"WandInstruments.sol\":5198:5238  this.getBuyBackPrice() * amountSCPtoSell */\n      tag_299\n      swap2\n      swap1\n      tag_285\n      jump\t// in\n    tag_299:\n        /* \"WandInstruments.sol\":5188:5238  usdcAmt = this.getBuyBackPrice() * amountSCPtoSell */\n      swap1\n      pop\n        /* \"WandInstruments.sol\":5513:5529  uint256 dInArray */\n      0x00\n        /* \"WandInstruments.sol\":5563:5568  86400 */\n      0x015180\n        /* \"WandInstruments.sol\":5549:5561  timeLaunched */\n      sload(0x0b)\n        /* \"WandInstruments.sol\":5532:5547  block.timestamp */\n      timestamp\n        /* \"WandInstruments.sol\":5532:5561  block.timestamp- timeLaunched */\n      tag_300\n      swap2\n      swap1\n      tag_207\n      jump\t// in\n    tag_300:\n        /* \"WandInstruments.sol\":5531:5568  (block.timestamp- timeLaunched)/86400 */\n      tag_301\n      swap2\n      swap1\n      tag_205\n      jump\t// in\n    tag_301:\n        /* \"WandInstruments.sol\":5513:5568  uint256 dInArray =(block.timestamp- timeLaunched)/86400 */\n      swap1\n      pop\n        /* \"WandInstruments.sol\":5609:5624  amountSCPtoSell */\n      dup5\n        /* \"WandInstruments.sol\":5580:5595  tokensSoldXDays */\n      0x15\n        /* \"WandInstruments.sol\":5580:5605  tokensSoldXDays[dInArray] */\n      0x00\n        /* \"WandInstruments.sol\":5596:5604  dInArray */\n      dup4\n        /* \"WandInstruments.sol\":5580:5605  tokensSoldXDays[dInArray] */\n      dup2\n      mstore\n      0x20\n      add\n      swap1\n      dup2\n      mstore\n      0x20\n      add\n      0x00\n      keccak256\n      0x00\n        /* \"WandInstruments.sol\":5580:5624  tokensSoldXDays[dInArray] += amountSCPtoSell */\n      dup3\n      dup3\n      sload\n      tag_302\n      swap2\n      swap1\n      tag_216\n      jump\t// in\n    tag_302:\n      swap3\n      pop\n      pop\n      dup2\n      swap1\n      sstore\n      pop\n        /* \"WandInstruments.sol\":5671:5686  amountSCPtoSell */\n      dup5\n        /* \"WandInstruments.sol\":5635:5657  circulatingSupplyXDays */\n      0x16\n        /* \"WandInstruments.sol\":5635:5667  circulatingSupplyXDays[dInArray] */\n      0x00\n        /* \"WandInstruments.sol\":5658:5666  dInArray */\n      dup4\n        /* \"WandInstruments.sol\":5635:5667  circulatingSupplyXDays[dInArray] */\n      dup2\n      mstore\n      0x20\n      add\n      swap1\n      dup2\n      mstore\n      0x20\n      add\n      0x00\n      keccak256\n      0x00\n        /* \"WandInstruments.sol\":5635:5686  circulatingSupplyXDays[dInArray] -= amountSCPtoSell */\n      dup3\n      dup3\n      sload\n      tag_303\n      swap2\n      swap1\n      tag_207\n      jump\t// in\n    tag_303:\n      swap3\n      pop\n      pop\n      dup2\n      swap1\n      sstore\n      pop\n        /* \"WandInstruments.sol\":4498:6025  {\r... */\n      pop\n      pop\n      pop\n        /* \"WandInstruments.sol\":4409:6025  function cashOutScepter(uint256 amountSCPtoSell, uint256 timeChosenLocked) public payable{\r... */\n      pop\n      pop\n      jump\t// out\n        /* \"WandInstruments.sol\":3685:3864  function decDiv18(uint x, uint y) public pure returns (uint decQuotient) {\r... */\n    tag_120:\n        /* \"WandInstruments.sol\":3740:3756  uint decQuotient */\n      0x00\n        /* \"WandInstruments.sol\":3769:3785  uint prod_xTEN18 */\n      dup1\n        /* \"WandInstruments.sol\":3788:3804  mul(x, DECIMALS) */\n      tag_305\n        /* \"WandInstruments.sol\":3792:3793  x */\n      dup5\n        /* \"WandInstruments.sol\":283:289  10**18 */\n      0x0de0b6b3a7640000\n        /* \"WandInstruments.sol\":3788:3791  mul */\n      tag_306\n        /* \"WandInstruments.sol\":3788:3804  mul(x, DECIMALS) */\n      jump\t// in\n    tag_305:\n        /* \"WandInstruments.sol\":3769:3804  uint prod_xTEN18 = mul(x, DECIMALS) */\n      swap1\n      pop\n        /* \"WandInstruments.sol\":3855:3856  y */\n      dup3\n        /* \"WandInstruments.sol\":3829:3852  add(prod_xTEN18, y / 2) */\n      tag_307\n        /* \"WandInstruments.sol\":3833:3844  prod_xTEN18 */\n      dup3\n        /* \"WandInstruments.sol\":3850:3851  2 */\n      0x02\n        /* \"WandInstruments.sol\":3846:3847  y */\n      dup7\n        /* \"WandInstruments.sol\":3846:3851  y / 2 */\n      tag_308\n      swap2\n      swap1\n      tag_205\n      jump\t// in\n    tag_308:\n        /* \"WandInstruments.sol\":3829:3832  add */\n      tag_309\n        /* \"WandInstruments.sol\":3829:3852  add(prod_xTEN18, y / 2) */\n      jump\t// in\n    tag_307:\n        /* \"WandInstruments.sol\":3829:3856  add(prod_xTEN18, y / 2) / y */\n      tag_310\n      swap2\n      swap1\n      tag_205\n      jump\t// in\n    tag_310:\n        /* \"WandInstruments.sol\":3815:3856  decQuotient = add(prod_xTEN18, y / 2) / y */\n      swap2\n      pop\n        /* \"WandInstruments.sol\":3758:3864  {\r... */\n      pop\n        /* \"WandInstruments.sol\":3685:3864  function decDiv18(uint x, uint y) public pure returns (uint decQuotient) {\r... */\n      swap3\n      swap2\n      pop\n      pop\n      jump\t// out\n        /* \"WandInstruments.sol\":6793:7771  function buyScepter(uint256 amountSCPtoBuy) public {\r... */\n    tag_125:\n        /* \"WandInstruments.sol\":6942:6948  250000 */\n      0x03d090\n        /* \"WandInstruments.sol\":6924:6938  amountSCPtoBuy */\n      dup2\n        /* \"WandInstruments.sol\":6924:6948  amountSCPtoBuy <= 250000 */\n      gt\n      iszero\n        /* \"WandInstruments.sol\":6916:6975  require(amountSCPtoBuy <= 250000 , \"Per transaction limit\") */\n      tag_312\n      jumpi\n      mload(0x40)\n      0x08c379a000000000000000000000000000000000000000000000000000000000\n      dup2\n      mstore\n      0x04\n      add\n      tag_313\n      swap1\n      tag_314\n      jump\t// in\n    tag_313:\n      mload(0x40)\n      dup1\n      swap2\n      sub\n      swap1\n      revert\n    tag_312:\n        /* \"WandInstruments.sol\":6986:7013  uint256 trader_usdc_balance */\n      0x00\n        /* \"WandInstruments.sol\":7016:7024  mockUSDC */\n      0x13\n      0x00\n      swap1\n      sload\n      swap1\n      0x0100\n      exp\n      swap1\n      div\n      0xffffffffffffffffffffffffffffffffffffffff\n      and\n        /* \"WandInstruments.sol\":7016:7034  mockUSDC.balanceOf */\n      0xffffffffffffffffffffffffffffffffffffffff\n      and\n      0x70a08231\n        /* \"WandInstruments.sol\":7035:7045  msg.sender */\n      caller\n        /* \"WandInstruments.sol\":7016:7046  mockUSDC.balanceOf(msg.sender) */\n      mload(0x40)\n      dup3\n      0xffffffff\n      and\n      0xe0\n      shl\n      dup2\n      mstore\n      0x04\n      add\n      tag_315\n      swap2\n      swap1\n      tag_49\n      jump\t// in\n    tag_315:\n      0x20\n      mload(0x40)\n      dup1\n      dup4\n      sub\n      dup2\n      dup7\n      dup1\n      extcodesize\n      iszero\n      dup1\n      iszero\n      tag_316\n      jumpi\n      0x00\n      dup1\n      revert\n    tag_316:\n      pop\n      gas\n      staticcall\n      iszero\n      dup1\n      iszero\n      tag_318\n      jumpi\n      returndatasize\n      0x00\n      dup1\n      returndatacopy\n      revert(0x00, returndatasize)\n    tag_318:\n      pop\n      pop\n      pop\n      pop\n      mload(0x40)\n      returndatasize\n      not(0x1f)\n      0x1f\n      dup3\n      add\n      and\n      dup3\n      add\n      dup1\n      0x40\n      mstore\n      pop\n      dup2\n      add\n      swap1\n      tag_319\n      swap2\n      swap1\n      tag_224\n      jump\t// in\n    tag_319:\n        /* \"WandInstruments.sol\":6986:7046  uint256 trader_usdc_balance = mockUSDC.balanceOf(msg.sender) */\n      swap1\n      pop\n        /* \"WandInstruments.sol\":7087:7101  amountSCPtoBuy */\n      dup2\n        /* \"WandInstruments.sol\":7065:7084  trader_usdc_balance */\n      dup2\n        /* \"WandInstruments.sol\":7065:7101  trader_usdc_balance > amountSCPtoBuy */\n      gt\n        /* \"WandInstruments.sol\":7057:7132  require(trader_usdc_balance > amountSCPtoBuy, \"You dont have that amount!\") */\n      tag_320\n      jumpi\n      mload(0x40)\n      0x08c379a000000000000000000000000000000000000000000000000000000000\n      dup2\n      mstore\n      0x04\n      add\n      tag_321\n      swap1\n      tag_241\n      jump\t// in\n    tag_321:\n      mload(0x40)\n      dup1\n      swap2\n      sub\n      swap1\n      revert\n    tag_320:\n        /* \"WandInstruments.sol\":7186:7203  uint256 usdcToPay */\n      0x00\n        /* \"WandInstruments.sol\":7243:7247  this */\n      address\n        /* \"WandInstruments.sol\":7243:7260  this.getSellPrice */\n      0xffffffffffffffffffffffffffffffffffffffff\n      and\n      0x43d32e9c\n        /* \"WandInstruments.sol\":7243:7262  this.getSellPrice() */\n      mload(0x40)\n      dup2\n      0xffffffff\n      and\n      0xe0\n      shl\n      dup2\n      mstore\n      0x04\n      add\n      0x20\n      mload(0x40)\n      dup1\n      dup4\n      sub\n      dup2\n      dup7\n      dup1\n      extcodesize\n      iszero\n      dup1\n      iszero\n      tag_322\n      jumpi\n      0x00\n      dup1\n      revert\n    tag_322:\n      pop\n      gas\n      staticcall\n      iszero\n      dup1\n      iszero\n      tag_324\n      jumpi\n      returndatasize\n      0x00\n      dup1\n      returndatacopy\n      revert(0x00, returndatasize)\n    tag_324:\n      pop\n      pop\n      pop\n      pop\n      mload(0x40)\n      returndatasize\n      not(0x1f)\n      0x1f\n      dup3\n      add\n      and\n      dup3\n      add\n      dup1\n      0x40\n      mstore\n      pop\n      dup2\n      add\n      swap1\n      tag_325\n      swap2\n      swap1\n      tag_224\n      jump\t// in\n    tag_325:\n        /* \"WandInstruments.sol\":7226:7240  amountSCPtoBuy */\n      dup4\n        /* \"WandInstruments.sol\":7226:7262  amountSCPtoBuy * this.getSellPrice() */\n      tag_326\n      swap2\n      swap1\n      tag_285\n      jump\t// in\n    tag_326:\n        /* \"WandInstruments.sol\":7214:7262  usdcToPay = amountSCPtoBuy * this.getSellPrice() */\n      swap1\n      pop\n        /* \"WandInstruments.sol\":7318:7383  _safeTransferFrom(mockUSDC, msg.sender, address(this), usdcToPay) */\n      tag_327\n        /* \"WandInstruments.sol\":7336:7344  mockUSDC */\n      0x13\n      0x00\n      swap1\n      sload\n      swap1\n      0x0100\n      exp\n      swap1\n      div\n      0xffffffffffffffffffffffffffffffffffffffff\n      and\n        /* \"WandInstruments.sol\":7346:7356  msg.sender */\n      caller\n        /* \"WandInstruments.sol\":7366:7370  this */\n      address\n        /* \"WandInstruments.sol\":7373:7382  usdcToPay */\n      dup5\n        /* \"WandInstruments.sol\":7318:7335  _safeTransferFrom */\n      tag_243\n        /* \"WandInstruments.sol\":7318:7383  _safeTransferFrom(mockUSDC, msg.sender, address(this), usdcToPay) */\n      jump\t// in\n    tag_327:\n        /* \"WandInstruments.sol\":7402:7406  sptr */\n      0x18\n      0x00\n      swap1\n      sload\n      swap1\n      0x0100\n      exp\n      swap1\n      div\n      0xffffffffffffffffffffffffffffffffffffffff\n      and\n        /* \"WandInstruments.sol\":7402:7411  sptr.mint */\n      0xffffffffffffffffffffffffffffffffffffffff\n      and\n      0x40c10f19\n        /* \"WandInstruments.sol\":7412:7422  msg.sender */\n      caller\n        /* \"WandInstruments.sol\":283:289  10**18 */\n      0x0de0b6b3a7640000\n        /* \"WandInstruments.sol\":7423:7437  amountSCPtoBuy */\n      dup7\n        /* \"WandInstruments.sol\":7423:7448  amountSCPtoBuy * DECIMALS */\n      tag_328\n      swap2\n      swap1\n      tag_285\n      jump\t// in\n    tag_328:\n        /* \"WandInstruments.sol\":7402:7449  sptr.mint(msg.sender,amountSCPtoBuy * DECIMALS) */\n      mload(0x40)\n      dup4\n      0xffffffff\n      and\n      0xe0\n      shl\n      dup2\n      mstore\n      0x04\n      add\n      tag_329\n      swap3\n      swap2\n      swap1\n      tag_288\n      jump\t// in\n    tag_329:\n      0x00\n      mload(0x40)\n      dup1\n      dup4\n      sub\n      dup2\n      0x00\n      dup8\n      dup1\n      extcodesize\n      iszero\n      dup1\n      iszero\n      tag_330\n      jumpi\n      0x00\n      dup1\n      revert\n    tag_330:\n      pop\n      gas\n      call\n      iszero\n      dup1\n      iszero\n      tag_332\n      jumpi\n      returndatasize\n      0x00\n      dup1\n      returndatacopy\n      revert(0x00, returndatasize)\n    tag_332:\n      pop\n      pop\n      pop\n      pop\n        /* \"WandInstruments.sol\":7590:7606  uint256 dInArray */\n      0x00\n        /* \"WandInstruments.sol\":7640:7645  86400 */\n      0x015180\n        /* \"WandInstruments.sol\":7626:7638  timeLaunched */\n      sload(0x0b)\n        /* \"WandInstruments.sol\":7609:7624  block.timestamp */\n      timestamp\n        /* \"WandInstruments.sol\":7609:7638  block.timestamp- timeLaunched */\n      tag_333\n      swap2\n      swap1\n      tag_207\n      jump\t// in\n    tag_333:\n        /* \"WandInstruments.sol\":7608:7645  (block.timestamp- timeLaunched)/86400 */\n      tag_334\n      swap2\n      swap1\n      tag_205\n      jump\t// in\n    tag_334:\n        /* \"WandInstruments.sol\":7590:7645  uint256 dInArray =(block.timestamp- timeLaunched)/86400 */\n      swap1\n      pop\n        /* \"WandInstruments.sol\":7688:7702  amountSCPtoBuy */\n      dup4\n        /* \"WandInstruments.sol\":7657:7674  tokensBoughtXDays */\n      0x14\n        /* \"WandInstruments.sol\":7657:7684  tokensBoughtXDays[dInArray] */\n      0x00\n        /* \"WandInstruments.sol\":7675:7683  dInArray */\n      dup4\n        /* \"WandInstruments.sol\":7657:7684  tokensBoughtXDays[dInArray] */\n      dup2\n      mstore\n      0x20\n      add\n      swap1\n      dup2\n      mstore\n      0x20\n      add\n      0x00\n      keccak256\n      0x00\n        /* \"WandInstruments.sol\":7657:7702  tokensBoughtXDays[dInArray] += amountSCPtoBuy */\n      dup3\n      dup3\n      sload\n      tag_335\n      swap2\n      swap1\n      tag_216\n      jump\t// in\n    tag_335:\n      swap3\n      pop\n      pop\n      dup2\n      swap1\n      sstore\n      pop\n        /* \"WandInstruments.sol\":7749:7763  amountSCPtoBuy */\n      dup4\n        /* \"WandInstruments.sol\":7713:7735  circulatingSupplyXDays */\n      0x16\n        /* \"WandInstruments.sol\":7713:7745  circulatingSupplyXDays[dInArray] */\n      0x00\n        /* \"WandInstruments.sol\":7736:7744  dInArray */\n      dup4\n        /* \"WandInstruments.sol\":7713:7745  circulatingSupplyXDays[dInArray] */\n      dup2\n      mstore\n      0x20\n      add\n      swap1\n      dup2\n      mstore\n      0x20\n      add\n      0x00\n      keccak256\n      0x00\n        /* \"WandInstruments.sol\":7713:7763  circulatingSupplyXDays[dInArray] += amountSCPtoBuy */\n      dup3\n      dup3\n      sload\n      tag_336\n      swap2\n      swap1\n      tag_216\n      jump\t// in\n    tag_336:\n      swap3\n      pop\n      pop\n      dup2\n      swap1\n      sstore\n      pop\n        /* \"WandInstruments.sol\":6844:7771  {\r... */\n      pop\n      pop\n      pop\n        /* \"WandInstruments.sol\":6793:7771  function buyScepter(uint256 amountSCPtoBuy) public {\r... */\n      pop\n      jump\t// out\n        /* \"WandInstruments.sol\":838:870  uint256 public daysInCalculation */\n    tag_128:\n      sload(0x0c)\n      dup2\n      jump\t// out\n        /* \"WandInstruments.sol\":10996:11468  function testUpdatetimeLockedplus(uint256 amt) public  {\r... */\n    tag_133:\n        /* \"WandInstruments.sol\":11391:11397  864000 */\n      0x0d2f00\n        /* \"WandInstruments.sol\":11373:11388  block.timestamp */\n      timestamp\n        /* \"WandInstruments.sol\":11373:11397  block.timestamp + 864000 */\n      tag_338\n      swap2\n      swap1\n      tag_216\n      jump\t// in\n    tag_338:\n        /* \"WandInstruments.sol\":11326:11345  withheldWithdrawals */\n      0x17\n        /* \"WandInstruments.sol\":11326:11357  withheldWithdrawals[msg.sender] */\n      0x00\n        /* \"WandInstruments.sol\":11346:11356  msg.sender */\n      caller\n        /* \"WandInstruments.sol\":11326:11357  withheldWithdrawals[msg.sender] */\n      0xffffffffffffffffffffffffffffffffffffffff\n      and\n      0xffffffffffffffffffffffffffffffffffffffff\n      and\n      dup2\n      mstore\n      0x20\n      add\n      swap1\n      dup2\n      mstore\n      0x20\n      add\n      0x00\n      keccak256\n        /* \"WandInstruments.sol\":11326:11370  withheldWithdrawals[msg.sender].timeUnlocked */\n      0x00\n      add\n        /* \"WandInstruments.sol\":11326:11397  withheldWithdrawals[msg.sender].timeUnlocked = block.timestamp + 864000 */\n      dup2\n      swap1\n      sstore\n      pop\n        /* \"WandInstruments.sol\":11451:11454  amt */\n      dup1\n        /* \"WandInstruments.sol\":11408:11427  withheldWithdrawals */\n      0x17\n        /* \"WandInstruments.sol\":11408:11439  withheldWithdrawals[msg.sender] */\n      0x00\n        /* \"WandInstruments.sol\":11428:11438  msg.sender */\n      caller\n        /* \"WandInstruments.sol\":11408:11439  withheldWithdrawals[msg.sender] */\n      0xffffffffffffffffffffffffffffffffffffffff\n      and\n      0xffffffffffffffffffffffffffffffffffffffff\n      and\n      dup2\n      mstore\n      0x20\n      add\n      swap1\n      dup2\n      mstore\n      0x20\n      add\n      0x00\n      keccak256\n        /* \"WandInstruments.sol\":11408:11447  withheldWithdrawals[msg.sender].amounts */\n      0x01\n      add\n      0x00\n        /* \"WandInstruments.sol\":11408:11454  withheldWithdrawals[msg.sender].amounts += amt */\n      dup3\n      dup3\n      sload\n      tag_339\n      swap2\n      swap1\n      tag_216\n      jump\t// in\n    tag_339:\n      swap3\n      pop\n      pop\n      dup2\n      swap1\n      sstore\n      pop\n        /* \"WandInstruments.sol\":10996:11468  function testUpdatetimeLockedplus(uint256 amt) public  {\r... */\n      pop\n      jump\t// out\n        /* \"WandInstruments.sol\":1311:1328  IERC20 public tSC */\n    tag_136:\n      0x12\n      0x00\n      swap1\n      sload\n      swap1\n      0x0100\n      exp\n      swap1\n      div\n      0xffffffffffffffffffffffffffffffffffffffff\n      and\n      dup2\n      jump\t// out\n        /* \"WandInstruments.sol\":1089:1106  int128 public res */\n    tag_141:\n      0x10\n      0x00\n      swap1\n      sload\n      swap1\n      0x0100\n      exp\n      swap1\n      div\n      0x0f\n      signextend\n      dup2\n      jump\t// out\n        /* \"WandInstruments.sol\":12093:12621  function getTokensBoughtXDays() external view returns (uint256){\r... */\n    tag_146:\n        /* \"WandInstruments.sol\":12148:12155  uint256 */\n      0x00\n        /* \"WandInstruments.sol\":12167:12184  uint256 boughtnum */\n      dup1\n        /* \"WandInstruments.sol\":12195:12204  uint256 d */\n      0x00\n        /* \"WandInstruments.sol\":12215:12230  uint256 numdays */\n      dup1\n        /* \"WandInstruments.sol\":12251:12256  86400 */\n      0x015180\n        /* \"WandInstruments.sol\":12233:12250  daysInCalculation */\n      sload(0x0c)\n        /* \"WandInstruments.sol\":12233:12256  daysInCalculation/86400 */\n      tag_341\n      swap2\n      swap1\n      tag_205\n      jump\t// in\n    tag_341:\n        /* \"WandInstruments.sol\":12215:12256  uint256 numdays = daysInCalculation/86400 */\n      swap1\n      pop\n        /* \"WandInstruments.sol\":12267:12291  uint256 daySinceLaunched */\n      0x00\n        /* \"WandInstruments.sol\":12329:12334  86400 */\n      0x015180\n        /* \"WandInstruments.sol\":12313:12325  timeLaunched */\n      sload(0x0b)\n        /* \"WandInstruments.sol\":12295:12310  block.timestamp */\n      timestamp\n        /* \"WandInstruments.sol\":12295:12325  block.timestamp - timeLaunched */\n      tag_342\n      swap2\n      swap1\n      tag_207\n      jump\t// in\n    tag_342:\n        /* \"WandInstruments.sol\":12294:12334  (block.timestamp - timeLaunched) / 86400 */\n      tag_343\n      swap2\n      swap1\n      tag_205\n      jump\t// in\n    tag_343:\n        /* \"WandInstruments.sol\":12267:12334  uint256 daySinceLaunched = (block.timestamp - timeLaunched) / 86400 */\n      swap1\n      pop\n        /* \"WandInstruments.sol\":12369:12370  0 */\n      0x00\n        /* \"WandInstruments.sol\":12349:12365  daySinceLaunched */\n      dup2\n        /* \"WandInstruments.sol\":12349:12370  daySinceLaunched == 0 */\n      eq\n        /* \"WandInstruments.sol\":12345:12422  if (daySinceLaunched == 0) {\r... */\n      iszero\n      tag_344\n      jumpi\n        /* \"WandInstruments.sol\":12390:12407  tokensBoughtXDays */\n      0x14\n        /* \"WandInstruments.sol\":12390:12410  tokensBoughtXDays[0] */\n      0x00\n        /* \"WandInstruments.sol\":12408:12409  0 */\n      dup1\n        /* \"WandInstruments.sol\":12390:12410  tokensBoughtXDays[0] */\n      dup2\n      mstore\n      0x20\n      add\n      swap1\n      dup2\n      mstore\n      0x20\n      add\n      0x00\n      keccak256\n      sload\n        /* \"WandInstruments.sol\":12383:12410  return tokensBoughtXDays[0] */\n      swap5\n      pop\n      pop\n      pop\n      pop\n      pop\n      jump(tag_340)\n        /* \"WandInstruments.sol\":12345:12422  if (daySinceLaunched == 0) {\r... */\n    tag_344:\n        /* \"WandInstruments.sol\":12460:12467  numdays */\n      dup2\n        /* \"WandInstruments.sol\":12441:12457  daySinceLaunched */\n      dup2\n        /* \"WandInstruments.sol\":12441:12467  daySinceLaunched - numdays */\n      tag_348\n      swap2\n      swap1\n      tag_207\n      jump\t// in\n    tag_348:\n        /* \"WandInstruments.sol\":12437:12467  d = daySinceLaunched - numdays */\n      swap3\n      pop\n        /* \"WandInstruments.sol\":12432:12578  for (d = daySinceLaunched - numdays; d < daySinceLaunched; d++) {  //for loop example\r... */\n    tag_345:\n        /* \"WandInstruments.sol\":12473:12489  daySinceLaunched */\n      dup1\n        /* \"WandInstruments.sol\":12469:12470  d */\n      dup4\n        /* \"WandInstruments.sol\":12469:12489  d < daySinceLaunched */\n      lt\n        /* \"WandInstruments.sol\":12432:12578  for (d = daySinceLaunched - numdays; d < daySinceLaunched; d++) {  //for loop example\r... */\n      iszero\n      tag_346\n      jumpi\n        /* \"WandInstruments.sol\":12542:12559  tokensBoughtXDays */\n      0x14\n        /* \"WandInstruments.sol\":12542:12562  tokensBoughtXDays[d] */\n      0x00\n        /* \"WandInstruments.sol\":12560:12561  d */\n      dup5\n        /* \"WandInstruments.sol\":12542:12562  tokensBoughtXDays[d] */\n      dup2\n      mstore\n      0x20\n      add\n      swap1\n      dup2\n      mstore\n      0x20\n      add\n      0x00\n      keccak256\n      sload\n        /* \"WandInstruments.sol\":12529:12562  boughtnum += tokensBoughtXDays[d] */\n      dup5\n      tag_349\n      swap2\n      swap1\n      tag_216\n      jump\t// in\n    tag_349:\n      swap4\n      pop\n        /* \"WandInstruments.sol\":12491:12494  d++ */\n      dup3\n      dup1\n      tag_350\n      swap1\n      tag_218\n      jump\t// in\n    tag_350:\n      swap4\n      pop\n      pop\n        /* \"WandInstruments.sol\":12432:12578  for (d = daySinceLaunched - numdays; d < daySinceLaunched; d++) {  //for loop example\r... */\n      jump(tag_345)\n    tag_346:\n        /* \"WandInstruments.sol\":12604:12613  boughtnum */\n      dup4\n        /* \"WandInstruments.sol\":12597:12613  return boughtnum */\n      swap5\n      pop\n      pop\n      pop\n      pop\n      pop\n        /* \"WandInstruments.sol\":12093:12621  function getTokensBoughtXDays() external view returns (uint256){\r... */\n    tag_340:\n      swap1\n      jump\t// out\n        /* \"WandInstruments.sol\":8208:9113  function getGrowthFactor() external view returns (uint256){\r... */\n    tag_150:\n        /* \"WandInstruments.sol\":8258:8265  uint256 */\n      0x00\n        /* \"WandInstruments.sol\":8410:8421  uint256 _gF */\n      dup1\n        /* \"WandInstruments.sol\":8432:8455  uint256 xDaysCircSupply */\n      0x00\n        /* \"WandInstruments.sol\":8466:8481  uint256 numdays */\n      dup1\n        /* \"WandInstruments.sol\":8502:8507  86400 */\n      0x015180\n        /* \"WandInstruments.sol\":8484:8501  daysInCalculation */\n      sload(0x0c)\n        /* \"WandInstruments.sol\":8484:8507  daysInCalculation/86400 */\n      tag_352\n      swap2\n      swap1\n      tag_205\n      jump\t// in\n    tag_352:\n        /* \"WandInstruments.sol\":8466:8507  uint256 numdays = daysInCalculation/86400 */\n      swap1\n      pop\n        /* \"WandInstruments.sol\":8518:8542  uint256 daySinceLaunched */\n      0x00\n        /* \"WandInstruments.sol\":8580:8585  86400 */\n      0x015180\n        /* \"WandInstruments.sol\":8564:8576  timeLaunched */\n      sload(0x0b)\n        /* \"WandInstruments.sol\":8546:8561  block.timestamp */\n      timestamp\n        /* \"WandInstruments.sol\":8546:8576  block.timestamp - timeLaunched */\n      tag_353\n      swap2\n      swap1\n      tag_207\n      jump\t// in\n    tag_353:\n        /* \"WandInstruments.sol\":8545:8585  (block.timestamp - timeLaunched) / 86400 */\n      tag_354\n      swap2\n      swap1\n      tag_205\n      jump\t// in\n    tag_354:\n        /* \"WandInstruments.sol\":8518:8585  uint256 daySinceLaunched = (block.timestamp - timeLaunched) / 86400 */\n      swap1\n      pop\n        /* \"WandInstruments.sol\":8596:8605  uint256 d */\n      0x00\n        /* \"WandInstruments.sol\":8650:8651  0 */\n      dup1\n        /* \"WandInstruments.sol\":8630:8646  daySinceLaunched */\n      dup3\n        /* \"WandInstruments.sol\":8630:8651  daySinceLaunched == 0 */\n      eq\n        /* \"WandInstruments.sol\":8626:8918  if (daySinceLaunched == 0) {\r... */\n      iszero\n      tag_355\n      jumpi\n        /* \"WandInstruments.sol\":8682:8704  circulatingSupplyXDays */\n      0x16\n        /* \"WandInstruments.sol\":8682:8707  circulatingSupplyXDays[0] */\n      0x00\n        /* \"WandInstruments.sol\":8705:8706  0 */\n      dup1\n        /* \"WandInstruments.sol\":8682:8707  circulatingSupplyXDays[0] */\n      dup2\n      mstore\n      0x20\n      add\n      swap1\n      dup2\n      mstore\n      0x20\n      add\n      0x00\n      keccak256\n      sload\n        /* \"WandInstruments.sol\":8664:8707  xDaysCircSupply = circulatingSupplyXDays[0] */\n      swap4\n      pop\n        /* \"WandInstruments.sol\":8626:8918  if (daySinceLaunched == 0) {\r... */\n      jump(tag_356)\n    tag_355:\n        /* \"WandInstruments.sol\":8776:8783  numdays */\n      dup3\n        /* \"WandInstruments.sol\":8757:8773  daySinceLaunched */\n      dup3\n        /* \"WandInstruments.sol\":8757:8783  daySinceLaunched - numdays */\n      tag_360\n      swap2\n      swap1\n      tag_207\n      jump\t// in\n    tag_360:\n        /* \"WandInstruments.sol\":8753:8783  d = daySinceLaunched - numdays */\n      swap1\n      pop\n        /* \"WandInstruments.sol\":8748:8907  for (d = daySinceLaunched - numdays; d < daySinceLaunched; d++) {  //for loop example\r... */\n    tag_357:\n        /* \"WandInstruments.sol\":8789:8805  daySinceLaunched */\n      dup2\n        /* \"WandInstruments.sol\":8785:8786  d */\n      dup2\n        /* \"WandInstruments.sol\":8785:8805  d < daySinceLaunched */\n      lt\n        /* \"WandInstruments.sol\":8748:8907  for (d = daySinceLaunched - numdays; d < daySinceLaunched; d++) {  //for loop example\r... */\n      iszero\n      tag_358\n      jumpi\n        /* \"WandInstruments.sol\":8866:8888  circulatingSupplyXDays */\n      0x16\n        /* \"WandInstruments.sol\":8866:8891  circulatingSupplyXDays[d] */\n      0x00\n        /* \"WandInstruments.sol\":8889:8890  d */\n      dup3\n        /* \"WandInstruments.sol\":8866:8891  circulatingSupplyXDays[d] */\n      dup2\n      mstore\n      0x20\n      add\n      swap1\n      dup2\n      mstore\n      0x20\n      add\n      0x00\n      keccak256\n      sload\n        /* \"WandInstruments.sol\":8847:8891  xDaysCircSupply += circulatingSupplyXDays[d] */\n      dup5\n      tag_361\n      swap2\n      swap1\n      tag_216\n      jump\t// in\n    tag_361:\n      swap4\n      pop\n        /* \"WandInstruments.sol\":8807:8810  d++ */\n      dup1\n      dup1\n      tag_362\n      swap1\n      tag_218\n      jump\t// in\n    tag_362:\n      swap2\n      pop\n      pop\n        /* \"WandInstruments.sol\":8748:8907  for (d = daySinceLaunched - numdays; d < daySinceLaunched; d++) {  //for loop example\r... */\n      jump(tag_357)\n    tag_358:\n        /* \"WandInstruments.sol\":8626:8918  if (daySinceLaunched == 0) {\r... */\n    tag_356:\n        /* \"WandInstruments.sol\":8933:8986  decDiv18(this.getTokensBoughtXDays(),xDaysCircSupply) */\n      tag_363\n        /* \"WandInstruments.sol\":8942:8946  this */\n      address\n        /* \"WandInstruments.sol\":8942:8967  this.getTokensBoughtXDays */\n      0xffffffffffffffffffffffffffffffffffffffff\n      and\n      0x71cd58f9\n        /* \"WandInstruments.sol\":8942:8969  this.getTokensBoughtXDays() */\n      mload(0x40)\n      dup2\n      0xffffffff\n      and\n      0xe0\n      shl\n      dup2\n      mstore\n      0x04\n      add\n      0x20\n      mload(0x40)\n      dup1\n      dup4\n      sub\n      dup2\n      dup7\n      dup1\n      extcodesize\n      iszero\n      dup1\n      iszero\n      tag_364\n      jumpi\n      0x00\n      dup1\n      revert\n    tag_364:\n      pop\n      gas\n      staticcall\n      iszero\n      dup1\n      iszero\n      tag_366\n      jumpi\n      returndatasize\n      0x00\n      dup1\n      returndatacopy\n      revert(0x00, returndatasize)\n    tag_366:\n      pop\n      pop\n      pop\n      pop\n      mload(0x40)\n      returndatasize\n      not(0x1f)\n      0x1f\n      dup3\n      add\n      and\n      dup3\n      add\n      dup1\n      0x40\n      mstore\n      pop\n      dup2\n      add\n      swap1\n      tag_367\n      swap2\n      swap1\n      tag_224\n      jump\t// in\n    tag_367:\n        /* \"WandInstruments.sol\":8970:8985  xDaysCircSupply */\n      dup6\n        /* \"WandInstruments.sol\":8933:8941  decDiv18 */\n      tag_120\n        /* \"WandInstruments.sol\":8933:8986  decDiv18(this.getTokensBoughtXDays(),xDaysCircSupply) */\n      jump\t// in\n    tag_363:\n        /* \"WandInstruments.sol\":8927:8986  _gF = decDiv18(this.getTokensBoughtXDays(),xDaysCircSupply) */\n      swap5\n      pop\n        /* \"WandInstruments.sol\":9006:9025  1200000000000000000 */\n      0x10a741a462780000\n        /* \"WandInstruments.sol\":9000:9003  _gF */\n      dup6\n        /* \"WandInstruments.sol\":9000:9025  _gF > 1200000000000000000 */\n      gt\n        /* \"WandInstruments.sol\":8996:9085  if (_gF > 1200000000000000000)\r... */\n      iszero\n      tag_368\n      jumpi\n        /* \"WandInstruments.sol\":9055:9074  1200000000000000000 */\n      0x10a741a462780000\n        /* \"WandInstruments.sol\":9049:9074  _gF = 1200000000000000000 */\n      swap5\n      pop\n        /* \"WandInstruments.sol\":8996:9085  if (_gF > 1200000000000000000)\r... */\n    tag_368:\n        /* \"WandInstruments.sol\":9101:9104  _gF */\n      dup5\n        /* \"WandInstruments.sol\":9094:9104  return _gF */\n      swap6\n      pop\n      pop\n      pop\n      pop\n      pop\n      pop\n        /* \"WandInstruments.sol\":8208:9113  function getGrowthFactor() external view returns (uint256){\r... */\n      swap1\n      jump\t// out\n        /* \"WandInstruments.sol\":12996:13085  function whitelist(address _addr) public onlyOwner {  \r... */\n    tag_155:\n      pop\n      jump\t// out\n        /* \"WandInstruments.sol\":7779:8175  function claimLockedUSDC(address _claimant) public {\r... */\n    tag_159:\n        /* \"WandInstruments.sol\":7869:7888  withheldWithdrawals */\n      0x17\n        /* \"WandInstruments.sol\":7869:7899  withheldWithdrawals[_claimant] */\n      0x00\n        /* \"WandInstruments.sol\":7889:7898  _claimant */\n      dup3\n        /* \"WandInstruments.sol\":7869:7899  withheldWithdrawals[_claimant] */\n      0xffffffffffffffffffffffffffffffffffffffff\n      and\n      0xffffffffffffffffffffffffffffffffffffffff\n      and\n      dup2\n      mstore\n      0x20\n      add\n      swap1\n      dup2\n      mstore\n      0x20\n      add\n      0x00\n      keccak256\n        /* \"WandInstruments.sol\":7869:7912  withheldWithdrawals[_claimant].timeUnlocked */\n      0x00\n      add\n      sload\n        /* \"WandInstruments.sol\":7850:7865  block.timestamp */\n      timestamp\n        /* \"WandInstruments.sol\":7850:7912  block.timestamp >= withheldWithdrawals[_claimant].timeUnlocked */\n      lt\n      iszero\n        /* \"WandInstruments.sol\":7841:7929  require (block.timestamp >= withheldWithdrawals[_claimant].timeUnlocked, \"Not unlocked\") */\n      tag_372\n      jumpi\n      mload(0x40)\n      0x08c379a000000000000000000000000000000000000000000000000000000000\n      dup2\n      mstore\n      0x04\n      add\n      tag_373\n      swap1\n      tag_374\n      jump\t// in\n    tag_373:\n      mload(0x40)\n      dup1\n      swap2\n      sub\n      swap1\n      revert\n    tag_372:\n        /* \"WandInstruments.sol\":8011:8028  uint256 claimAmts */\n      0x00\n        /* \"WandInstruments.sol\":8051:8070  withheldWithdrawals */\n      0x17\n        /* \"WandInstruments.sol\":8051:8081  withheldWithdrawals[_claimant] */\n      0x00\n        /* \"WandInstruments.sol\":8071:8080  _claimant */\n      dup4\n        /* \"WandInstruments.sol\":8051:8081  withheldWithdrawals[_claimant] */\n      0xffffffffffffffffffffffffffffffffffffffff\n      and\n      0xffffffffffffffffffffffffffffffffffffffff\n      and\n      dup2\n      mstore\n      0x20\n      add\n      swap1\n      dup2\n      mstore\n      0x20\n      add\n      0x00\n      keccak256\n        /* \"WandInstruments.sol\":8051:8089  withheldWithdrawals[_claimant].amounts */\n      0x01\n      add\n      sload\n        /* \"WandInstruments.sol\":8039:8089  claimAmts = withheldWithdrawals[_claimant].amounts */\n      swap1\n      pop\n        /* \"WandInstruments.sol\":8100:8165  _safeTransferFrom(mockUSDC, address(this), msg.sender, claimAmts) */\n      tag_375\n        /* \"WandInstruments.sol\":8118:8126  mockUSDC */\n      0x13\n      0x00\n      swap1\n      sload\n      swap1\n      0x0100\n      exp\n      swap1\n      div\n      0xffffffffffffffffffffffffffffffffffffffff\n      and\n        /* \"WandInstruments.sol\":8136:8140  this */\n      address\n        /* \"WandInstruments.sol\":8143:8153  msg.sender */\n      caller\n        /* \"WandInstruments.sol\":8155:8164  claimAmts */\n      dup5\n        /* \"WandInstruments.sol\":8100:8117  _safeTransferFrom */\n      tag_243\n        /* \"WandInstruments.sol\":8100:8165  _safeTransferFrom(mockUSDC, address(this), msg.sender, claimAmts) */\n      jump\t// in\n    tag_375:\n        /* \"WandInstruments.sol\":7830:8175  {\r... */\n      pop\n        /* \"WandInstruments.sol\":7779:8175  function claimLockedUSDC(address _claimant) public {\r... */\n      pop\n      jump\t// out\n        /* \"WandInstruments.sol\":581:615  address public scepterTreasuryAddr */\n    tag_162:\n      0x07\n      0x00\n      swap1\n      sload\n      swap1\n      0x0100\n      exp\n      swap1\n      div\n      0xffffffffffffffffffffffffffffffffffffffff\n      and\n      dup2\n      jump\t// out\n        /* \"WandInstruments.sol\":332:357  uint256 public sellFactor */\n    tag_166:\n      sload(0x01)\n      dup2\n      jump\t// out\n        /* \"WandInstruments.sol\":12627:12913  function getTokensSoldXDays() external view returns (uint256){\r... */\n    tag_170:\n        /* \"WandInstruments.sol\":12680:12687  uint256 */\n      0x00\n        /* \"WandInstruments.sol\":12699:12714  uint256 soldNum */\n      dup1\n        /* \"WandInstruments.sol\":12725:12734  uint256 d */\n      0x00\n        /* \"WandInstruments.sol\":12745:12760  uint256 numdays */\n      dup1\n        /* \"WandInstruments.sol\":12781:12786  86400 */\n      0x015180\n        /* \"WandInstruments.sol\":12763:12780  daysInCalculation */\n      sload(0x0c)\n        /* \"WandInstruments.sol\":12763:12786  daysInCalculation/86400 */\n      tag_377\n      swap2\n      swap1\n      tag_205\n      jump\t// in\n    tag_377:\n        /* \"WandInstruments.sol\":12745:12786  uint256 numdays = daysInCalculation/86400 */\n      swap1\n      pop\n        /* \"WandInstruments.sol\":12808:12809  0 */\n      0x00\n        /* \"WandInstruments.sol\":12804:12809  d = 0 */\n      swap2\n      pop\n        /* \"WandInstruments.sol\":12799:12882  for (d = 0; d < numdays; d++) { \r... */\n    tag_378:\n        /* \"WandInstruments.sol\":12815:12822  numdays */\n      dup1\n        /* \"WandInstruments.sol\":12811:12812  d */\n      dup3\n        /* \"WandInstruments.sol\":12811:12822  d < numdays */\n      lt\n        /* \"WandInstruments.sol\":12799:12882  for (d = 0; d < numdays; d++) { \r... */\n      iszero\n      tag_379\n      jumpi\n        /* \"WandInstruments.sol\":12854:12869  tokensSoldXDays */\n      0x15\n        /* \"WandInstruments.sol\":12854:12872  tokensSoldXDays[d] */\n      0x00\n        /* \"WandInstruments.sol\":12870:12871  d */\n      dup4\n        /* \"WandInstruments.sol\":12854:12872  tokensSoldXDays[d] */\n      dup2\n      mstore\n      0x20\n      add\n      swap1\n      dup2\n      mstore\n      0x20\n      add\n      0x00\n      keccak256\n      sload\n        /* \"WandInstruments.sol\":12843:12872  soldNum += tokensSoldXDays[d] */\n      dup4\n      tag_381\n      swap2\n      swap1\n      tag_216\n      jump\t// in\n    tag_381:\n      swap3\n      pop\n        /* \"WandInstruments.sol\":12824:12827  d++ */\n      dup2\n      dup1\n      tag_382\n      swap1\n      tag_218\n      jump\t// in\n    tag_382:\n      swap3\n      pop\n      pop\n        /* \"WandInstruments.sol\":12799:12882  for (d = 0; d < numdays; d++) { \r... */\n      jump(tag_378)\n    tag_379:\n        /* \"WandInstruments.sol\":12898:12905  soldNum */\n      dup3\n        /* \"WandInstruments.sol\":12891:12905  return soldNum */\n      swap4\n      pop\n      pop\n      pop\n      pop\n        /* \"WandInstruments.sol\":12627:12913  function getTokensSoldXDays() external view returns (uint256){\r... */\n      swap1\n      jump\t// out\n        /* \"WandInstruments.sol\":1357:1379  IERC20 public mockUSDC */\n    tag_174:\n      0x13\n      0x00\n      swap1\n      sload\n      swap1\n      0x0100\n      exp\n      swap1\n      div\n      0xffffffffffffffffffffffffffffffffffffffff\n      and\n      dup2\n      jump\t// out\n        /* \"WandInstruments.sol\":3872:4056  function queryERC20Balance(address _tokenAddress, address _addressToQuery) view public returns (uint) {\r... */\n    tag_180:\n        /* \"WandInstruments.sol\":3968:3972  uint */\n      0x00\n        /* \"WandInstruments.sol\":4007:4020  _tokenAddress */\n      dup3\n        /* \"WandInstruments.sol\":3992:4031  ERC20Interface(_tokenAddress).balanceOf */\n      0xffffffffffffffffffffffffffffffffffffffff\n      and\n      0x70a08231\n        /* \"WandInstruments.sol\":4032:4047  _addressToQuery */\n      dup4\n        /* \"WandInstruments.sol\":3992:4048  ERC20Interface(_tokenAddress).balanceOf(_addressToQuery) */\n      mload(0x40)\n      dup3\n      0xffffffff\n      and\n      0xe0\n      shl\n      dup2\n      mstore\n      0x04\n      add\n      tag_384\n      swap2\n      swap1\n      tag_49\n      jump\t// in\n    tag_384:\n      0x20\n      mload(0x40)\n      dup1\n      dup4\n      sub\n      dup2\n      dup7\n      dup1\n      extcodesize\n      iszero\n      dup1\n      iszero\n      tag_385\n      jumpi\n      0x00\n      dup1\n      revert\n    tag_385:\n      pop\n      gas\n      staticcall\n      iszero\n      dup1\n      iszero\n      tag_387\n      jumpi\n      returndatasize\n      0x00\n      dup1\n      returndatacopy\n      revert(0x00, returndatasize)\n    tag_387:\n      pop\n      pop\n      pop\n      pop\n      mload(0x40)\n      returndatasize\n      not(0x1f)\n      0x1f\n      dup3\n      add\n      and\n      dup3\n      add\n      dup1\n      0x40\n      mstore\n      pop\n      dup2\n      add\n      swap1\n      tag_388\n      swap2\n      swap1\n      tag_224\n      jump\t// in\n    tag_388:\n        /* \"WandInstruments.sol\":3985:4048  return ERC20Interface(_tokenAddress).balanceOf(_addressToQuery) */\n      swap1\n      pop\n        /* \"WandInstruments.sol\":3872:4056  function queryERC20Balance(address _tokenAddress, address _addressToQuery) view public returns (uint) {\r... */\n      swap3\n      swap2\n      pop\n      pop\n      jump\t// out\n        /* \"WandInstruments.sol\":298:325  uint256 public growthFactor */\n    tag_184:\n      sload(0x00)\n      dup2\n      jump\t// out\n        /* \"WandInstruments.sol\":1113:1183  address public testwallet = 0x617F2E2fD72FD9D5503197092aC168c91465E7f2 */\n    tag_188:\n      0x11\n      0x00\n      swap1\n      sload\n      swap1\n      0x0100\n      exp\n      swap1\n      div\n      0xffffffffffffffffffffffffffffffffffffffff\n      and\n      dup2\n      jump\t// out\n        /* \"WandInstruments.sol\":3507:3677  function decMul18(uint x, uint y) public pure returns (uint decProd) {\r... */\n    tag_193:\n        /* \"WandInstruments.sol\":3562:3574  uint decProd */\n      0x00\n        /* \"WandInstruments.sol\":3587:3599  uint prod_xy */\n      dup1\n        /* \"WandInstruments.sol\":3602:3611  mul(x, y) */\n      tag_390\n        /* \"WandInstruments.sol\":3606:3607  x */\n      dup5\n        /* \"WandInstruments.sol\":3609:3610  y */\n      dup5\n        /* \"WandInstruments.sol\":3602:3605  mul */\n      tag_306\n        /* \"WandInstruments.sol\":3602:3611  mul(x, y) */\n      jump\t// in\n    tag_390:\n        /* \"WandInstruments.sol\":3587:3611  uint prod_xy = mul(x, y) */\n      swap1\n      pop\n        /* \"WandInstruments.sol\":283:289  10**18 */\n      0x0de0b6b3a7640000\n        /* \"WandInstruments.sol\":3632:3658  add(prod_xy, DECIMALS / 2) */\n      tag_391\n        /* \"WandInstruments.sol\":3636:3643  prod_xy */\n      dup3\n        /* \"WandInstruments.sol\":3656:3657  2 */\n      0x02\n        /* \"WandInstruments.sol\":283:289  10**18 */\n      0x0de0b6b3a7640000\n        /* \"WandInstruments.sol\":3645:3657  DECIMALS / 2 */\n      tag_392\n      swap2\n      swap1\n      tag_205\n      jump\t// in\n    tag_392:\n        /* \"WandInstruments.sol\":3632:3635  add */\n      tag_309\n        /* \"WandInstruments.sol\":3632:3658  add(prod_xy, DECIMALS / 2) */\n      jump\t// in\n    tag_391:\n        /* \"WandInstruments.sol\":3632:3669  add(prod_xy, DECIMALS / 2) / DECIMALS */\n      tag_393\n      swap2\n      swap1\n      tag_205\n      jump\t// in\n    tag_393:\n        /* \"WandInstruments.sol\":3622:3669  decProd = add(prod_xy, DECIMALS / 2) / DECIMALS */\n      swap2\n      pop\n        /* \"WandInstruments.sol\":3576:3677  {\r... */\n      pop\n        /* \"WandInstruments.sol\":3507:3677  function decMul18(uint x, uint y) public pure returns (uint decProd) {\r... */\n      swap3\n      swap2\n      pop\n      pop\n      jump\t// out\n        /* \"WandInstruments.sol\":546:574  address public treasury1Addr */\n    tag_197:\n      0x06\n      0x00\n      swap1\n      sload\n      swap1\n      0x0100\n      exp\n      swap1\n      div\n      0xffffffffffffffffffffffffffffffffffffffff\n      and\n      dup2\n      jump\t// out\n        /* \"WandInstruments.sol\":10826:10982  function setDaysUsedInFactors(uint256 numDays) public {  \r... */\n    tag_202:\n        /* \"WandInstruments.sol\":10959:10964  86400 */\n      0x015180\n        /* \"WandInstruments.sol\":10949:10956  numDays */\n      dup2\n        /* \"WandInstruments.sol\":10949:10964  numDays * 86400 */\n      tag_395\n      swap2\n      swap1\n      tag_285\n      jump\t// in\n    tag_395:\n        /* \"WandInstruments.sol\":10929:10946  daysInCalculation */\n      0x0c\n        /* \"WandInstruments.sol\":10929:10964  daysInCalculation = numDays * 86400 */\n      dup2\n      swap1\n      sstore\n      pop\n        /* \"WandInstruments.sol\":10826:10982  function setDaysUsedInFactors(uint256 numDays) public {  \r... */\n      pop\n      jump\t// out\n        /* \"WandInstruments.sol\":13097:13359  function _safeTransferFrom(\r... */\n    tag_243:\n        /* \"WandInstruments.sol\":13245:13254  bool sent */\n      0x00\n        /* \"WandInstruments.sol\":13257:13262  token */\n      dup5\n        /* \"WandInstruments.sol\":13257:13275  token.transferFrom */\n      0xffffffffffffffffffffffffffffffffffffffff\n      and\n      0x23b872dd\n        /* \"WandInstruments.sol\":13276:13282  sender */\n      dup6\n        /* \"WandInstruments.sol\":13284:13293  recipient */\n      dup6\n        /* \"WandInstruments.sol\":13295:13301  amount */\n      dup6\n        /* \"WandInstruments.sol\":13257:13302  token.transferFrom(sender, recipient, amount) */\n      mload(0x40)\n      dup5\n      0xffffffff\n      and\n      0xe0\n      shl\n      dup2\n      mstore\n      0x04\n      add\n      tag_397\n      swap4\n      swap3\n      swap2\n      swap1\n      tag_398\n      jump\t// in\n    tag_397:\n      0x20\n      mload(0x40)\n      dup1\n      dup4\n      sub\n      dup2\n      0x00\n      dup8\n      dup1\n      extcodesize\n      iszero\n      dup1\n      iszero\n      tag_399\n      jumpi\n      0x00\n      dup1\n      revert\n    tag_399:\n      pop\n      gas\n      call\n      iszero\n      dup1\n      iszero\n      tag_401\n      jumpi\n      returndatasize\n      0x00\n      dup1\n      returndatacopy\n      revert(0x00, returndatasize)\n    tag_401:\n      pop\n      pop\n      pop\n      pop\n      mload(0x40)\n      returndatasize\n      not(0x1f)\n      0x1f\n      dup3\n      add\n      and\n      dup3\n      add\n      dup1\n      0x40\n      mstore\n      pop\n      dup2\n      add\n      swap1\n      tag_402\n      swap2\n      swap1\n      tag_293\n      jump\t// in\n    tag_402:\n        /* \"WandInstruments.sol\":13245:13302  bool sent = token.transferFrom(sender, recipient, amount) */\n      swap1\n      pop\n        /* \"WandInstruments.sol\":13321:13325  sent */\n      dup1\n        /* \"WandInstruments.sol\":13313:13351  require(sent, \"Token transfer failed\") */\n      tag_403\n      jumpi\n      mload(0x40)\n      0x08c379a000000000000000000000000000000000000000000000000000000000\n      dup2\n      mstore\n      0x04\n      add\n      tag_404\n      swap1\n      tag_405\n      jump\t// in\n    tag_404:\n      mload(0x40)\n      dup1\n      swap2\n      sub\n      swap1\n      revert\n    tag_403:\n        /* \"WandInstruments.sol\":13234:13359  {\r... */\n      pop\n        /* \"WandInstruments.sol\":13097:13359  function _safeTransferFrom(\r... */\n      pop\n      pop\n      pop\n      pop\n      jump\t// out\n        /* \"WandInstruments.sol\":2692:2934  function mul(uint256 a, uint256 b) internal pure returns (uint256) {\r... */\n    tag_306:\n        /* \"WandInstruments.sol\":2750:2757  uint256 */\n      0x00\n        /* \"WandInstruments.sol\":2779:2780  0 */\n      dup1\n        /* \"WandInstruments.sol\":2774:2775  a */\n      dup4\n        /* \"WandInstruments.sol\":2774:2780  a == 0 */\n      eq\n        /* \"WandInstruments.sol\":2770:2813  if (a == 0) {\r... */\n      iszero\n      tag_407\n      jumpi\n        /* \"WandInstruments.sol\":2800:2801  0 */\n      0x00\n        /* \"WandInstruments.sol\":2793:2801  return 0 */\n      swap1\n      pop\n      jump(tag_406)\n        /* \"WandInstruments.sol\":2770:2813  if (a == 0) {\r... */\n    tag_407:\n        /* \"WandInstruments.sol\":2823:2832  uint256 c */\n      0x00\n        /* \"WandInstruments.sol\":2839:2840  b */\n      dup3\n        /* \"WandInstruments.sol\":2835:2836  a */\n      dup5\n        /* \"WandInstruments.sol\":2835:2840  a * b */\n      tag_408\n      swap2\n      swap1\n      tag_285\n      jump\t// in\n    tag_408:\n        /* \"WandInstruments.sol\":2823:2840  uint256 c = a * b */\n      swap1\n      pop\n        /* \"WandInstruments.sol\":2868:2869  b */\n      dup3\n        /* \"WandInstruments.sol\":2863:2864  a */\n      dup5\n        /* \"WandInstruments.sol\":2859:2860  c */\n      dup3\n        /* \"WandInstruments.sol\":2859:2864  c / a */\n      tag_409\n      swap2\n      swap1\n      tag_205\n      jump\t// in\n    tag_409:\n        /* \"WandInstruments.sol\":2859:2869  c / a == b */\n      eq\n        /* \"WandInstruments.sol\":2851:2907  require(c / a == b, \"uint overflow from multiplication\") */\n      tag_410\n      jumpi\n      mload(0x40)\n      0x08c379a000000000000000000000000000000000000000000000000000000000\n      dup2\n      mstore\n      0x04\n      add\n      tag_411\n      swap1\n      tag_412\n      jump\t// in\n    tag_411:\n      mload(0x40)\n      dup1\n      swap2\n      sub\n      swap1\n      revert\n    tag_410:\n        /* \"WandInstruments.sol\":2925:2926  c */\n      dup1\n        /* \"WandInstruments.sol\":2918:2926  return c */\n      swap2\n      pop\n      pop\n        /* \"WandInstruments.sol\":2692:2934  function mul(uint256 a, uint256 b) internal pure returns (uint256) {\r... */\n    tag_406:\n      swap3\n      swap2\n      pop\n      pop\n      jump\t// out\n        /* \"WandInstruments.sol\":3310:3495  function add(uint256 a, uint256 b) internal pure returns (uint256) {\r... */\n    tag_309:\n        /* \"WandInstruments.sol\":3368:3375  uint256 */\n      0x00\n        /* \"WandInstruments.sol\":3388:3397  uint256 c */\n      dup1\n        /* \"WandInstruments.sol\":3404:3405  b */\n      dup3\n        /* \"WandInstruments.sol\":3400:3401  a */\n      dup5\n        /* \"WandInstruments.sol\":3400:3405  a + b */\n      tag_414\n      swap2\n      swap1\n      tag_216\n      jump\t// in\n    tag_414:\n        /* \"WandInstruments.sol\":3388:3405  uint256 c = a + b */\n      swap1\n      pop\n        /* \"WandInstruments.sol\":3429:3430  a */\n      dup4\n        /* \"WandInstruments.sol\":3424:3425  c */\n      dup2\n        /* \"WandInstruments.sol\":3424:3430  c >= a */\n      lt\n      iszero\n        /* \"WandInstruments.sol\":3416:3468  require(c >= a, \"uint overflow from multiplication\") */\n      tag_415\n      jumpi\n      mload(0x40)\n      0x08c379a000000000000000000000000000000000000000000000000000000000\n      dup2\n      mstore\n      0x04\n      add\n      tag_416\n      swap1\n      tag_412\n      jump\t// in\n    tag_416:\n      mload(0x40)\n      dup1\n      swap2\n      sub\n      swap1\n      revert\n    tag_415:\n        /* \"WandInstruments.sol\":3486:3487  c */\n      dup1\n        /* \"WandInstruments.sol\":3479:3487  return c */\n      swap2\n      pop\n      pop\n        /* \"WandInstruments.sol\":3310:3495  function add(uint256 a, uint256 b) internal pure returns (uint256) {\r... */\n      swap3\n      swap2\n      pop\n      pop\n      jump\t// out\n        /* \"#utility.yul\":7:146   */\n    tag_418:\n        /* \"#utility.yul\":53:58   */\n      0x00\n        /* \"#utility.yul\":91:97   */\n      dup2\n        /* \"#utility.yul\":78:98   */\n      calldataload\n        /* \"#utility.yul\":69:98   */\n      swap1\n      pop\n        /* \"#utility.yul\":107:140   */\n      tag_420\n        /* \"#utility.yul\":134:139   */\n      dup2\n        /* \"#utility.yul\":107:140   */\n      tag_421\n      jump\t// in\n    tag_420:\n        /* \"#utility.yul\":7:146   */\n      swap3\n      swap2\n      pop\n      pop\n      jump\t// out\n        /* \"#utility.yul\":152:289   */\n    tag_422:\n        /* \"#utility.yul\":206:211   */\n      0x00\n        /* \"#utility.yul\":237:243   */\n      dup2\n        /* \"#utility.yul\":231:244   */\n      mload\n        /* \"#utility.yul\":222:244   */\n      swap1\n      pop\n        /* \"#utility.yul\":253:283   */\n      tag_424\n        /* \"#utility.yul\":277:282   */\n      dup2\n        /* \"#utility.yul\":253:283   */\n      tag_425\n      jump\t// in\n    tag_424:\n        /* \"#utility.yul\":152:289   */\n      swap3\n      swap2\n      pop\n      pop\n      jump\t// out\n        /* \"#utility.yul\":295:434   */\n    tag_426:\n        /* \"#utility.yul\":341:346   */\n      0x00\n        /* \"#utility.yul\":379:385   */\n      dup2\n        /* \"#utility.yul\":366:386   */\n      calldataload\n        /* \"#utility.yul\":357:386   */\n      swap1\n      pop\n        /* \"#utility.yul\":395:428   */\n      tag_428\n        /* \"#utility.yul\":422:427   */\n      dup2\n        /* \"#utility.yul\":395:428   */\n      tag_429\n      jump\t// in\n    tag_428:\n        /* \"#utility.yul\":295:434   */\n      swap3\n      swap2\n      pop\n      pop\n      jump\t// out\n        /* \"#utility.yul\":440:583   */\n    tag_430:\n        /* \"#utility.yul\":497:502   */\n      0x00\n        /* \"#utility.yul\":528:534   */\n      dup2\n        /* \"#utility.yul\":522:535   */\n      mload\n        /* \"#utility.yul\":513:535   */\n      swap1\n      pop\n        /* \"#utility.yul\":544:577   */\n      tag_432\n        /* \"#utility.yul\":571:576   */\n      dup2\n        /* \"#utility.yul\":544:577   */\n      tag_429\n      jump\t// in\n    tag_432:\n        /* \"#utility.yul\":440:583   */\n      swap3\n      swap2\n      pop\n      pop\n      jump\t// out\n        /* \"#utility.yul\":589:918   */\n    tag_62:\n        /* \"#utility.yul\":648:654   */\n      0x00\n        /* \"#utility.yul\":697:699   */\n      0x20\n        /* \"#utility.yul\":685:694   */\n      dup3\n        /* \"#utility.yul\":676:683   */\n      dup5\n        /* \"#utility.yul\":672:695   */\n      sub\n        /* \"#utility.yul\":668:700   */\n      slt\n        /* \"#utility.yul\":665:784   */\n      iszero\n      tag_434\n      jumpi\n        /* \"#utility.yul\":703:782   */\n      tag_435\n      tag_436\n      jump\t// in\n    tag_435:\n        /* \"#utility.yul\":665:784   */\n    tag_434:\n        /* \"#utility.yul\":823:824   */\n      0x00\n        /* \"#utility.yul\":848:901   */\n      tag_437\n        /* \"#utility.yul\":893:900   */\n      dup5\n        /* \"#utility.yul\":884:890   */\n      dup3\n        /* \"#utility.yul\":873:882   */\n      dup6\n        /* \"#utility.yul\":869:891   */\n      add\n        /* \"#utility.yul\":848:901   */\n      tag_418\n      jump\t// in\n    tag_437:\n        /* \"#utility.yul\":838:901   */\n      swap2\n      pop\n        /* \"#utility.yul\":794:911   */\n      pop\n        /* \"#utility.yul\":589:918   */\n      swap3\n      swap2\n      pop\n      pop\n      jump\t// out\n        /* \"#utility.yul\":924:1398   */\n    tag_179:\n        /* \"#utility.yul\":992:998   */\n      0x00\n        /* \"#utility.yul\":1000:1006   */\n      dup1\n        /* \"#utility.yul\":1049:1051   */\n      0x40\n        /* \"#utility.yul\":1037:1046   */\n      dup4\n        /* \"#utility.yul\":1028:1035   */\n      dup6\n        /* \"#utility.yul\":1024:1047   */\n      sub\n        /* \"#utility.yul\":1020:1052   */\n      slt\n        /* \"#utility.yul\":1017:1136   */\n      iszero\n      tag_439\n      jumpi\n        /* \"#utility.yul\":1055:1134   */\n      tag_440\n      tag_436\n      jump\t// in\n    tag_440:\n        /* \"#utility.yul\":1017:1136   */\n    tag_439:\n        /* \"#utility.yul\":1175:1176   */\n      0x00\n        /* \"#utility.yul\":1200:1253   */\n      tag_441\n        /* \"#utility.yul\":1245:1252   */\n      dup6\n        /* \"#utility.yul\":1236:1242   */\n      dup3\n        /* \"#utility.yul\":1225:1234   */\n      dup7\n        /* \"#utility.yul\":1221:1243   */\n      add\n        /* \"#utility.yul\":1200:1253   */\n      tag_418\n      jump\t// in\n    tag_441:\n        /* \"#utility.yul\":1190:1253   */\n      swap3\n      pop\n        /* \"#utility.yul\":1146:1263   */\n      pop\n        /* \"#utility.yul\":1302:1304   */\n      0x20\n        /* \"#utility.yul\":1328:1381   */\n      tag_442\n        /* \"#utility.yul\":1373:1380   */\n      dup6\n        /* \"#utility.yul\":1364:1370   */\n      dup3\n        /* \"#utility.yul\":1353:1362   */\n      dup7\n        /* \"#utility.yul\":1349:1371   */\n      add\n        /* \"#utility.yul\":1328:1381   */\n      tag_418\n      jump\t// in\n    tag_442:\n        /* \"#utility.yul\":1318:1381   */\n      swap2\n      pop\n        /* \"#utility.yul\":1273:1391   */\n      pop\n        /* \"#utility.yul\":924:1398   */\n      swap3\n      pop\n      swap3\n      swap1\n      pop\n      jump\t// out\n        /* \"#utility.yul\":1404:1749   */\n    tag_293:\n        /* \"#utility.yul\":1471:1477   */\n      0x00\n        /* \"#utility.yul\":1520:1522   */\n      0x20\n        /* \"#utility.yul\":1508:1517   */\n      dup3\n        /* \"#utility.yul\":1499:1506   */\n      dup5\n        /* \"#utility.yul\":1495:1518   */\n      sub\n        /* \"#utility.yul\":1491:1523   */\n      slt\n        /* \"#utility.yul\":1488:1607   */\n      iszero\n      tag_444\n      jumpi\n        /* \"#utility.yul\":1526:1605   */\n      tag_445\n      tag_436\n      jump\t// in\n    tag_445:\n        /* \"#utility.yul\":1488:1607   */\n    tag_444:\n        /* \"#utility.yul\":1646:1647   */\n      0x00\n        /* \"#utility.yul\":1671:1732   */\n      tag_446\n        /* \"#utility.yul\":1724:1731   */\n      dup5\n        /* \"#utility.yul\":1715:1721   */\n      dup3\n        /* \"#utility.yul\":1704:1713   */\n      dup6\n        /* \"#utility.yul\":1700:1722   */\n      add\n        /* \"#utility.yul\":1671:1732   */\n      tag_422\n      jump\t// in\n    tag_446:\n        /* \"#utility.yul\":1661:1732   */\n      swap2\n      pop\n        /* \"#utility.yul\":1617:1742   */\n      pop\n        /* \"#utility.yul\":1404:1749   */\n      swap3\n      swap2\n      pop\n      pop\n      jump\t// out\n        /* \"#utility.yul\":1755:2084   */\n    tag_69:\n        /* \"#utility.yul\":1814:1820   */\n      0x00\n        /* \"#utility.yul\":1863:1865   */\n      0x20\n        /* \"#utility.yul\":1851:1860   */\n      dup3\n        /* \"#utility.yul\":1842:1849   */\n      dup5\n        /* \"#utility.yul\":1838:1861   */\n      sub\n        /* \"#utility.yul\":1834:1866   */\n      slt\n        /* \"#utility.yul\":1831:1950   */\n      iszero\n      tag_448\n      jumpi\n        /* \"#utility.yul\":1869:1948   */\n      tag_449\n      tag_436\n      jump\t// in\n    tag_449:\n        /* \"#utility.yul\":1831:1950   */\n    tag_448:\n        /* \"#utility.yul\":1989:1990   */\n      0x00\n        /* \"#utility.yul\":2014:2067   */\n      tag_450\n        /* \"#utility.yul\":2059:2066   */\n      dup5\n        /* \"#utility.yul\":2050:2056   */\n      dup3\n        /* \"#utility.yul\":2039:2048   */\n      dup6\n        /* \"#utility.yul\":2035:2057   */\n      add\n        /* \"#utility.yul\":2014:2067   */\n      tag_426\n      jump\t// in\n    tag_450:\n        /* \"#utility.yul\":2004:2067   */\n      swap2\n      pop\n        /* \"#utility.yul\":1960:2077   */\n      pop\n        /* \"#utility.yul\":1755:2084   */\n      swap3\n      swap2\n      pop\n      pop\n      jump\t// out\n        /* \"#utility.yul\":2090:2441   */\n    tag_224:\n        /* \"#utility.yul\":2160:2166   */\n      0x00\n        /* \"#utility.yul\":2209:2211   */\n      0x20\n        /* \"#utility.yul\":2197:2206   */\n      dup3\n        /* \"#utility.yul\":2188:2195   */\n      dup5\n        /* \"#utility.yul\":2184:2207   */\n      sub\n        /* \"#utility.yul\":2180:2212   */\n      slt\n        /* \"#utility.yul\":2177:2296   */\n      iszero\n      tag_452\n      jumpi\n        /* \"#utility.yul\":2215:2294   */\n      tag_453\n      tag_436\n      jump\t// in\n    tag_453:\n        /* \"#utility.yul\":2177:2296   */\n    tag_452:\n        /* \"#utility.yul\":2335:2336   */\n      0x00\n        /* \"#utility.yul\":2360:2424   */\n      tag_454\n        /* \"#utility.yul\":2416:2423   */\n      dup5\n        /* \"#utility.yul\":2407:2413   */\n      dup3\n        /* \"#utility.yul\":2396:2405   */\n      dup6\n        /* \"#utility.yul\":2392:2414   */\n      add\n        /* \"#utility.yul\":2360:2424   */\n      tag_430\n      jump\t// in\n    tag_454:\n        /* \"#utility.yul\":2350:2424   */\n      swap2\n      pop\n        /* \"#utility.yul\":2306:2434   */\n      pop\n        /* \"#utility.yul\":2090:2441   */\n      swap3\n      swap2\n      pop\n      pop\n      jump\t// out\n        /* \"#utility.yul\":2447:2921   */\n    tag_115:\n        /* \"#utility.yul\":2515:2521   */\n      0x00\n        /* \"#utility.yul\":2523:2529   */\n      dup1\n        /* \"#utility.yul\":2572:2574   */\n      0x40\n        /* \"#utility.yul\":2560:2569   */\n      dup4\n        /* \"#utility.yul\":2551:2558   */\n      dup6\n        /* \"#utility.yul\":2547:2570   */\n      sub\n        /* \"#utility.yul\":2543:2575   */\n      slt\n        /* \"#utility.yul\":2540:2659   */\n      iszero\n      tag_456\n      jumpi\n        /* \"#utility.yul\":2578:2657   */\n      tag_457\n      tag_436\n      jump\t// in\n    tag_457:\n        /* \"#utility.yul\":2540:2659   */\n    tag_456:\n        /* \"#utility.yul\":2698:2699   */\n      0x00\n        /* \"#utility.yul\":2723:2776   */\n      tag_458\n        /* \"#utility.yul\":2768:2775   */\n      dup6\n        /* \"#utility.yul\":2759:2765   */\n      dup3\n        /* \"#utility.yul\":2748:2757   */\n      dup7\n        /* \"#utility.yul\":2744:2766   */\n      add\n        /* \"#utility.yul\":2723:2776   */\n      tag_426\n      jump\t// in\n    tag_458:\n        /* \"#utility.yul\":2713:2776   */\n      swap3\n      pop\n        /* \"#utility.yul\":2669:2786   */\n      pop\n        /* \"#utility.yul\":2825:2827   */\n      0x20\n        /* \"#utility.yul\":2851:2904   */\n      tag_459\n        /* \"#utility.yul\":2896:2903   */\n      dup6\n        /* \"#utility.yul\":2887:2893   */\n      dup3\n        /* \"#utility.yul\":2876:2885   */\n      dup7\n        /* \"#utility.yul\":2872:2894   */\n      add\n        /* \"#utility.yul\":2851:2904   */\n      tag_426\n      jump\t// in\n    tag_459:\n        /* \"#utility.yul\":2841:2904   */\n      swap2\n      pop\n        /* \"#utility.yul\":2796:2914   */\n      pop\n        /* \"#utility.yul\":2447:2921   */\n      swap3\n      pop\n      swap3\n      swap1\n      pop\n      jump\t// out\n        /* \"#utility.yul\":2927:3045   */\n    tag_460:\n        /* \"#utility.yul\":3014:3038   */\n      tag_462\n        /* \"#utility.yul\":3032:3037   */\n      dup2\n        /* \"#utility.yul\":3014:3038   */\n      tag_463\n      jump\t// in\n    tag_462:\n        /* \"#utility.yul\":3009:3012   */\n      dup3\n        /* \"#utility.yul\":3002:3039   */\n      mstore\n        /* \"#utility.yul\":2927:3045   */\n      pop\n      pop\n      jump\t// out\n        /* \"#utility.yul\":3051:3208   */\n    tag_464:\n        /* \"#utility.yul\":3151:3201   */\n      tag_466\n        /* \"#utility.yul\":3195:3200   */\n      dup2\n        /* \"#utility.yul\":3151:3201   */\n      tag_467\n      jump\t// in\n    tag_466:\n        /* \"#utility.yul\":3146:3149   */\n      dup3\n        /* \"#utility.yul\":3139:3202   */\n      mstore\n        /* \"#utility.yul\":3051:3208   */\n      pop\n      pop\n      jump\t// out\n        /* \"#utility.yul\":3214:3329   */\n    tag_468:\n        /* \"#utility.yul\":3299:3322   */\n      tag_470\n        /* \"#utility.yul\":3316:3321   */\n      dup2\n        /* \"#utility.yul\":3299:3322   */\n      tag_471\n      jump\t// in\n    tag_470:\n        /* \"#utility.yul\":3294:3297   */\n      dup3\n        /* \"#utility.yul\":3287:3323   */\n      mstore\n        /* \"#utility.yul\":3214:3329   */\n      pop\n      pop\n      jump\t// out\n        /* \"#utility.yul\":3335:3701   */\n    tag_472:\n        /* \"#utility.yul\":3477:3480   */\n      0x00\n        /* \"#utility.yul\":3498:3565   */\n      tag_474\n        /* \"#utility.yul\":3562:3564   */\n      0x24\n        /* \"#utility.yul\":3557:3560   */\n      dup4\n        /* \"#utility.yul\":3498:3565   */\n      tag_475\n      jump\t// in\n    tag_474:\n        /* \"#utility.yul\":3491:3565   */\n      swap2\n      pop\n        /* \"#utility.yul\":3574:3667   */\n      tag_476\n        /* \"#utility.yul\":3663:3666   */\n      dup3\n        /* \"#utility.yul\":3574:3667   */\n      tag_477\n      jump\t// in\n    tag_476:\n        /* \"#utility.yul\":3692:3694   */\n      0x40\n        /* \"#utility.yul\":3687:3690   */\n      dup3\n        /* \"#utility.yul\":3683:3695   */\n      add\n        /* \"#utility.yul\":3676:3695   */\n      swap1\n      pop\n        /* \"#utility.yul\":3335:3701   */\n      swap2\n      swap1\n      pop\n      jump\t// out\n        /* \"#utility.yul\":3707:4073   */\n    tag_478:\n        /* \"#utility.yul\":3849:3852   */\n      0x00\n        /* \"#utility.yul\":3870:3937   */\n      tag_480\n        /* \"#utility.yul\":3934:3936   */\n      0x15\n        /* \"#utility.yul\":3929:3932   */\n      dup4\n        /* \"#utility.yul\":3870:3937   */\n      tag_475\n      jump\t// in\n    tag_480:\n        /* \"#utility.yul\":3863:3937   */\n      swap2\n      pop\n        /* \"#utility.yul\":3946:4039   */\n      tag_481\n        /* \"#utility.yul\":4035:4038   */\n      dup3\n        /* \"#utility.yul\":3946:4039   */\n      tag_482\n      jump\t// in\n    tag_481:\n        /* \"#utility.yul\":4064:4066   */\n      0x20\n        /* \"#utility.yul\":4059:4062   */\n      dup3\n        /* \"#utility.yul\":4055:4067   */\n      add\n        /* \"#utility.yul\":4048:4067   */\n      swap1\n      pop\n        /* \"#utility.yul\":3707:4073   */\n      swap2\n      swap1\n      pop\n      jump\t// out\n        /* \"#utility.yul\":4079:4445   */\n    tag_483:\n        /* \"#utility.yul\":4221:4224   */\n      0x00\n        /* \"#utility.yul\":4242:4309   */\n      tag_485\n        /* \"#utility.yul\":4306:4308   */\n      0x1a\n        /* \"#utility.yul\":4301:4304   */\n      dup4\n        /* \"#utility.yul\":4242:4309   */\n      tag_475\n      jump\t// in\n    tag_485:\n        /* \"#utility.yul\":4235:4309   */\n      swap2\n      pop\n        /* \"#utility.yul\":4318:4411   */\n      tag_486\n        /* \"#utility.yul\":4407:4410   */\n      dup3\n        /* \"#utility.yul\":4318:4411   */\n      tag_487\n      jump\t// in\n    tag_486:\n        /* \"#utility.yul\":4436:4438   */\n      0x20\n        /* \"#utility.yul\":4431:4434   */\n      dup3\n        /* \"#utility.yul\":4427:4439   */\n      add\n        /* \"#utility.yul\":4420:4439   */\n      swap1\n      pop\n        /* \"#utility.yul\":4079:4445   */\n      swap2\n      swap1\n      pop\n      jump\t// out\n        /* \"#utility.yul\":4451:4817   */\n    tag_488:\n        /* \"#utility.yul\":4593:4596   */\n      0x00\n        /* \"#utility.yul\":4614:4681   */\n      tag_490\n        /* \"#utility.yul\":4678:4680   */\n      0x15\n        /* \"#utility.yul\":4673:4676   */\n      dup4\n        /* \"#utility.yul\":4614:4681   */\n      tag_475\n      jump\t// in\n    tag_490:\n        /* \"#utility.yul\":4607:4681   */\n      swap2\n      pop\n        /* \"#utility.yul\":4690:4783   */\n      tag_491\n        /* \"#utility.yul\":4779:4782   */\n      dup3\n        /* \"#utility.yul\":4690:4783   */\n      tag_492\n      jump\t// in\n    tag_491:\n        /* \"#utility.yul\":4808:4810   */\n      0x20\n        /* \"#utility.yul\":4803:4806   */\n      dup3\n        /* \"#utility.yul\":4799:4811   */\n      add\n        /* \"#utility.yul\":4792:4811   */\n      swap1\n      pop\n        /* \"#utility.yul\":4451:4817   */\n      swap2\n      swap1\n      pop\n      jump\t// out\n        /* \"#utility.yul\":4823:5189   */\n    tag_493:\n        /* \"#utility.yul\":4965:4968   */\n      0x00\n        /* \"#utility.yul\":4986:5053   */\n      tag_495\n        /* \"#utility.yul\":5050:5052   */\n      0x0c\n        /* \"#utility.yul\":5045:5048   */\n      dup4\n        /* \"#utility.yul\":4986:5053   */\n      tag_475\n      jump\t// in\n    tag_495:\n        /* \"#utility.yul\":4979:5053   */\n      swap2\n      pop\n        /* \"#utility.yul\":5062:5155   */\n      tag_496\n        /* \"#utility.yul\":5151:5154   */\n      dup3\n        /* \"#utility.yul\":5062:5155   */\n      tag_497\n      jump\t// in\n    tag_496:\n        /* \"#utility.yul\":5180:5182   */\n      0x20\n        /* \"#utility.yul\":5175:5178   */\n      dup3\n        /* \"#utility.yul\":5171:5183   */\n      add\n        /* \"#utility.yul\":5164:5183   */\n      swap1\n      pop\n        /* \"#utility.yul\":4823:5189   */\n      swap2\n      swap1\n      pop\n      jump\t// out\n        /* \"#utility.yul\":5195:5561   */\n    tag_498:\n        /* \"#utility.yul\":5337:5340   */\n      0x00\n        /* \"#utility.yul\":5358:5425   */\n      tag_500\n        /* \"#utility.yul\":5422:5424   */\n      0x21\n        /* \"#utility.yul\":5417:5420   */\n      dup4\n        /* \"#utility.yul\":5358:5425   */\n      tag_475\n      jump\t// in\n    tag_500:\n        /* \"#utility.yul\":5351:5425   */\n      swap2\n      pop\n        /* \"#utility.yul\":5434:5527   */\n      tag_501\n        /* \"#utility.yul\":5523:5526   */\n      dup3\n        /* \"#utility.yul\":5434:5527   */\n      tag_502\n      jump\t// in\n    tag_501:\n        /* \"#utility.yul\":5552:5554   */\n      0x40\n        /* \"#utility.yul\":5547:5550   */\n      dup3\n        /* \"#utility.yul\":5543:5555   */\n      add\n        /* \"#utility.yul\":5536:5555   */\n      swap1\n      pop\n        /* \"#utility.yul\":5195:5561   */\n      swap2\n      swap1\n      pop\n      jump\t// out\n        /* \"#utility.yul\":5567:5685   */\n    tag_503:\n        /* \"#utility.yul\":5654:5678   */\n      tag_505\n        /* \"#utility.yul\":5672:5677   */\n      dup2\n        /* \"#utility.yul\":5654:5678   */\n      tag_506\n      jump\t// in\n    tag_505:\n        /* \"#utility.yul\":5649:5652   */\n      dup3\n        /* \"#utility.yul\":5642:5679   */\n      mstore\n        /* \"#utility.yul\":5567:5685   */\n      pop\n      pop\n      jump\t// out\n        /* \"#utility.yul\":5691:5913   */\n    tag_49:\n        /* \"#utility.yul\":5784:5788   */\n      0x00\n        /* \"#utility.yul\":5822:5824   */\n      0x20\n        /* \"#utility.yul\":5811:5820   */\n      dup3\n        /* \"#utility.yul\":5807:5825   */\n      add\n        /* \"#utility.yul\":5799:5825   */\n      swap1\n      pop\n        /* \"#utility.yul\":5835:5906   */\n      tag_508\n        /* \"#utility.yul\":5903:5904   */\n      0x00\n        /* \"#utility.yul\":5892:5901   */\n      dup4\n        /* \"#utility.yul\":5888:5905   */\n      add\n        /* \"#utility.yul\":5879:5885   */\n      dup5\n        /* \"#utility.yul\":5835:5906   */\n      tag_460\n      jump\t// in\n    tag_508:\n        /* \"#utility.yul\":5691:5913   */\n      swap3\n      swap2\n      pop\n      pop\n      jump\t// out\n        /* \"#utility.yul\":5919:6361   */\n    tag_398:\n        /* \"#utility.yul\":6068:6072   */\n      0x00\n        /* \"#utility.yul\":6106:6108   */\n      0x60\n        /* \"#utility.yul\":6095:6104   */\n      dup3\n        /* \"#utility.yul\":6091:6109   */\n      add\n        /* \"#utility.yul\":6083:6109   */\n      swap1\n      pop\n        /* \"#utility.yul\":6119:6190   */\n      tag_510\n        /* \"#utility.yul\":6187:6188   */\n      0x00\n        /* \"#utility.yul\":6176:6185   */\n      dup4\n        /* \"#utility.yul\":6172:6189   */\n      add\n        /* \"#utility.yul\":6163:6169   */\n      dup7\n        /* \"#utility.yul\":6119:6190   */\n      tag_460\n      jump\t// in\n    tag_510:\n        /* \"#utility.yul\":6200:6272   */\n      tag_511\n        /* \"#utility.yul\":6268:6270   */\n      0x20\n        /* \"#utility.yul\":6257:6266   */\n      dup4\n        /* \"#utility.yul\":6253:6271   */\n      add\n        /* \"#utility.yul\":6244:6250   */\n      dup6\n        /* \"#utility.yul\":6200:6272   */\n      tag_460\n      jump\t// in\n    tag_511:\n        /* \"#utility.yul\":6282:6354   */\n      tag_512\n        /* \"#utility.yul\":6350:6352   */\n      0x40\n        /* \"#utility.yul\":6339:6348   */\n      dup4\n        /* \"#utility.yul\":6335:6353   */\n      add\n        /* \"#utility.yul\":6326:6332   */\n      dup5\n        /* \"#utility.yul\":6282:6354   */\n      tag_503\n      jump\t// in\n    tag_512:\n        /* \"#utility.yul\":5919:6361   */\n      swap5\n      swap4\n      pop\n      pop\n      pop\n      pop\n      jump\t// out\n        /* \"#utility.yul\":6367:6699   */\n    tag_288:\n        /* \"#utility.yul\":6488:6492   */\n      0x00\n        /* \"#utility.yul\":6526:6528   */\n      0x40\n        /* \"#utility.yul\":6515:6524   */\n      dup3\n        /* \"#utility.yul\":6511:6529   */\n      add\n        /* \"#utility.yul\":6503:6529   */\n      swap1\n      pop\n        /* \"#utility.yul\":6539:6610   */\n      tag_514\n        /* \"#utility.yul\":6607:6608   */\n      0x00\n        /* \"#utility.yul\":6596:6605   */\n      dup4\n        /* \"#utility.yul\":6592:6609   */\n      add\n        /* \"#utility.yul\":6583:6589   */\n      dup6\n        /* \"#utility.yul\":6539:6610   */\n      tag_460\n      jump\t// in\n    tag_514:\n        /* \"#utility.yul\":6620:6692   */\n      tag_515\n        /* \"#utility.yul\":6688:6690   */\n      0x20\n        /* \"#utility.yul\":6677:6686   */\n      dup4\n        /* \"#utility.yul\":6673:6691   */\n      add\n        /* \"#utility.yul\":6664:6670   */\n      dup5\n        /* \"#utility.yul\":6620:6692   */\n      tag_503\n      jump\t// in\n    tag_515:\n        /* \"#utility.yul\":6367:6699   */\n      swap4\n      swap3\n      pop\n      pop\n      pop\n      jump\t// out\n        /* \"#utility.yul\":6705:6953   */\n    tag_138:\n        /* \"#utility.yul\":6811:6815   */\n      0x00\n        /* \"#utility.yul\":6849:6851   */\n      0x20\n        /* \"#utility.yul\":6838:6847   */\n      dup3\n        /* \"#utility.yul\":6834:6852   */\n      add\n        /* \"#utility.yul\":6826:6852   */\n      swap1\n      pop\n        /* \"#utility.yul\":6862:6946   */\n      tag_517\n        /* \"#utility.yul\":6943:6944   */\n      0x00\n        /* \"#utility.yul\":6932:6941   */\n      dup4\n        /* \"#utility.yul\":6928:6945   */\n      add\n        /* \"#utility.yul\":6919:6925   */\n      dup5\n        /* \"#utility.yul\":6862:6946   */\n      tag_464\n      jump\t// in\n    tag_517:\n        /* \"#utility.yul\":6705:6953   */\n      swap3\n      swap2\n      pop\n      pop\n      jump\t// out\n        /* \"#utility.yul\":6959:7177   */\n    tag_143:\n        /* \"#utility.yul\":7050:7054   */\n      0x00\n        /* \"#utility.yul\":7088:7090   */\n      0x20\n        /* \"#utility.yul\":7077:7086   */\n      dup3\n        /* \"#utility.yul\":7073:7091   */\n      add\n        /* \"#utility.yul\":7065:7091   */\n      swap1\n      pop\n        /* \"#utility.yul\":7101:7170   */\n      tag_519\n        /* \"#utility.yul\":7167:7168   */\n      0x00\n        /* \"#utility.yul\":7156:7165   */\n      dup4\n        /* \"#utility.yul\":7152:7169   */\n      add\n        /* \"#utility.yul\":7143:7149   */\n      dup5\n        /* \"#utility.yul\":7101:7170   */\n      tag_468\n      jump\t// in\n    tag_519:\n        /* \"#utility.yul\":6959:7177   */\n      swap3\n      swap2\n      pop\n      pop\n      jump\t// out\n        /* \"#utility.yul\":7183:7602   */\n    tag_230:\n        /* \"#utility.yul\":7349:7353   */\n      0x00\n        /* \"#utility.yul\":7387:7389   */\n      0x20\n        /* \"#utility.yul\":7376:7385   */\n      dup3\n        /* \"#utility.yul\":7372:7390   */\n      add\n        /* \"#utility.yul\":7364:7390   */\n      swap1\n      pop\n        /* \"#utility.yul\":7436:7445   */\n      dup2\n        /* \"#utility.yul\":7430:7434   */\n      dup2\n        /* \"#utility.yul\":7426:7446   */\n      sub\n        /* \"#utility.yul\":7422:7423   */\n      0x00\n        /* \"#utility.yul\":7411:7420   */\n      dup4\n        /* \"#utility.yul\":7407:7424   */\n      add\n        /* \"#utility.yul\":7400:7447   */\n      mstore\n        /* \"#utility.yul\":7464:7595   */\n      tag_521\n        /* \"#utility.yul\":7590:7594   */\n      dup2\n        /* \"#utility.yul\":7464:7595   */\n      tag_472\n      jump\t// in\n    tag_521:\n        /* \"#utility.yul\":7456:7595   */\n      swap1\n      pop\n        /* \"#utility.yul\":7183:7602   */\n      swap2\n      swap1\n      pop\n      jump\t// out\n        /* \"#utility.yul\":7608:8027   */\n    tag_405:\n        /* \"#utility.yul\":7774:7778   */\n      0x00\n        /* \"#utility.yul\":7812:7814   */\n      0x20\n        /* \"#utility.yul\":7801:7810   */\n      dup3\n        /* \"#utility.yul\":7797:7815   */\n      add\n        /* \"#utility.yul\":7789:7815   */\n      swap1\n      pop\n        /* \"#utility.yul\":7861:7870   */\n      dup2\n        /* \"#utility.yul\":7855:7859   */\n      dup2\n        /* \"#utility.yul\":7851:7871   */\n      sub\n        /* \"#utility.yul\":7847:7848   */\n      0x00\n        /* \"#utility.yul\":7836:7845   */\n      dup4\n        /* \"#utility.yul\":7832:7849   */\n      add\n        /* \"#utility.yul\":7825:7872   */\n      mstore\n        /* \"#utility.yul\":7889:8020   */\n      tag_523\n        /* \"#utility.yul\":8015:8019   */\n      dup2\n        /* \"#utility.yul\":7889:8020   */\n      tag_478\n      jump\t// in\n    tag_523:\n        /* \"#utility.yul\":7881:8020   */\n      swap1\n      pop\n        /* \"#utility.yul\":7608:8027   */\n      swap2\n      swap1\n      pop\n      jump\t// out\n        /* \"#utility.yul\":8033:8452   */\n    tag_241:\n        /* \"#utility.yul\":8199:8203   */\n      0x00\n        /* \"#utility.yul\":8237:8239   */\n      0x20\n        /* \"#utility.yul\":8226:8235   */\n      dup3\n        /* \"#utility.yul\":8222:8240   */\n      add\n        /* \"#utility.yul\":8214:8240   */\n      swap1\n      pop\n        /* \"#utility.yul\":8286:8295   */\n      dup2\n        /* \"#utility.yul\":8280:8284   */\n      dup2\n        /* \"#utility.yul\":8276:8296   */\n      sub\n        /* \"#utility.yul\":8272:8273   */\n      0x00\n        /* \"#utility.yul\":8261:8270   */\n      dup4\n        /* \"#utility.yul\":8257:8274   */\n      add\n        /* \"#utility.yul\":8250:8297   */\n      mstore\n        /* \"#utility.yul\":8314:8445   */\n      tag_525\n        /* \"#utility.yul\":8440:8444   */\n      dup2\n        /* \"#utility.yul\":8314:8445   */\n      tag_483\n      jump\t// in\n    tag_525:\n        /* \"#utility.yul\":8306:8445   */\n      swap1\n      pop\n        /* \"#utility.yul\":8033:8452   */\n      swap2\n      swap1\n      pop\n      jump\t// out\n        /* \"#utility.yul\":8458:8877   */\n    tag_314:\n        /* \"#utility.yul\":8624:8628   */\n      0x00\n        /* \"#utility.yul\":8662:8664   */\n      0x20\n        /* \"#utility.yul\":8651:8660   */\n      dup3\n        /* \"#utility.yul\":8647:8665   */\n      add\n        /* \"#utility.yul\":8639:8665   */\n      swap1\n      pop\n        /* \"#utility.yul\":8711:8720   */\n      dup2\n        /* \"#utility.yul\":8705:8709   */\n      dup2\n        /* \"#utility.yul\":8701:8721   */\n      sub\n        /* \"#utility.yul\":8697:8698   */\n      0x00\n        /* \"#utility.yul\":8686:8695   */\n      dup4\n        /* \"#utility.yul\":8682:8699   */\n      add\n        /* \"#utility.yul\":8675:8722   */\n      mstore\n        /* \"#utility.yul\":8739:8870   */\n      tag_527\n        /* \"#utility.yul\":8865:8869   */\n      dup2\n        /* \"#utility.yul\":8739:8870   */\n      tag_488\n      jump\t// in\n    tag_527:\n        /* \"#utility.yul\":8731:8870   */\n      swap1\n      pop\n        /* \"#utility.yul\":8458:8877   */\n      swap2\n      swap1\n      pop\n      jump\t// out\n        /* \"#utility.yul\":8883:9302   */\n    tag_374:\n        /* \"#utility.yul\":9049:9053   */\n      0x00\n        /* \"#utility.yul\":9087:9089   */\n      0x20\n        /* \"#utility.yul\":9076:9085   */\n      dup3\n        /* \"#utility.yul\":9072:9090   */\n      add\n        /* \"#utility.yul\":9064:9090   */\n      swap1\n      pop\n        /* \"#utility.yul\":9136:9145   */\n      dup2\n        /* \"#utility.yul\":9130:9134   */\n      dup2\n        /* \"#utility.yul\":9126:9146   */\n      sub\n        /* \"#utility.yul\":9122:9123   */\n      0x00\n        /* \"#utility.yul\":9111:9120   */\n      dup4\n        /* \"#utility.yul\":9107:9124   */\n      add\n        /* \"#utility.yul\":9100:9147   */\n      mstore\n        /* \"#utility.yul\":9164:9295   */\n      tag_529\n        /* \"#utility.yul\":9290:9294   */\n      dup2\n        /* \"#utility.yul\":9164:9295   */\n      tag_493\n      jump\t// in\n    tag_529:\n        /* \"#utility.yul\":9156:9295   */\n      swap1\n      pop\n        /* \"#utility.yul\":8883:9302   */\n      swap2\n      swap1\n      pop\n      jump\t// out\n        /* \"#utility.yul\":9308:9727   */\n    tag_412:\n        /* \"#utility.yul\":9474:9478   */\n      0x00\n        /* \"#utility.yul\":9512:9514   */\n      0x20\n        /* \"#utility.yul\":9501:9510   */\n      dup3\n        /* \"#utility.yul\":9497:9515   */\n      add\n        /* \"#utility.yul\":9489:9515   */\n      swap1\n      pop\n        /* \"#utility.yul\":9561:9570   */\n      dup2\n        /* \"#utility.yul\":9555:9559   */\n      dup2\n        /* \"#utility.yul\":9551:9571   */\n      sub\n        /* \"#utility.yul\":9547:9548   */\n      0x00\n        /* \"#utility.yul\":9536:9545   */\n      dup4\n        /* \"#utility.yul\":9532:9549   */\n      add\n        /* \"#utility.yul\":9525:9572   */\n      mstore\n        /* \"#utility.yul\":9589:9720   */\n      tag_531\n        /* \"#utility.yul\":9715:9719   */\n      dup2\n        /* \"#utility.yul\":9589:9720   */\n      tag_498\n      jump\t// in\n    tag_531:\n        /* \"#utility.yul\":9581:9720   */\n      swap1\n      pop\n        /* \"#utility.yul\":9308:9727   */\n      swap2\n      swap1\n      pop\n      jump\t// out\n        /* \"#utility.yul\":9733:9955   */\n    tag_54:\n        /* \"#utility.yul\":9826:9830   */\n      0x00\n        /* \"#utility.yul\":9864:9866   */\n      0x20\n        /* \"#utility.yul\":9853:9862   */\n      dup3\n        /* \"#utility.yul\":9849:9867   */\n      add\n        /* \"#utility.yul\":9841:9867   */\n      swap1\n      pop\n        /* \"#utility.yul\":9877:9948   */\n      tag_533\n        /* \"#utility.yul\":9945:9946   */\n      0x00\n        /* \"#utility.yul\":9934:9943   */\n      dup4\n        /* \"#utility.yul\":9930:9947   */\n      add\n        /* \"#utility.yul\":9921:9927   */\n      dup5\n        /* \"#utility.yul\":9877:9948   */\n      tag_503\n      jump\t// in\n    tag_533:\n        /* \"#utility.yul\":9733:9955   */\n      swap3\n      swap2\n      pop\n      pop\n      jump\t// out\n        /* \"#utility.yul\":9961:10293   */\n    tag_65:\n        /* \"#utility.yul\":10082:10086   */\n      0x00\n        /* \"#utility.yul\":10120:10122   */\n      0x40\n        /* \"#utility.yul\":10109:10118   */\n      dup3\n        /* \"#utility.yul\":10105:10123   */\n      add\n        /* \"#utility.yul\":10097:10123   */\n      swap1\n      pop\n        /* \"#utility.yul\":10133:10204   */\n      tag_535\n        /* \"#utility.yul\":10201:10202   */\n      0x00\n        /* \"#utility.yul\":10190:10199   */\n      dup4\n        /* \"#utility.yul\":10186:10203   */\n      add\n        /* \"#utility.yul\":10177:10183   */\n      dup6\n        /* \"#utility.yul\":10133:10204   */\n      tag_503\n      jump\t// in\n    tag_535:\n        /* \"#utility.yul\":10214:10286   */\n      tag_536\n        /* \"#utility.yul\":10282:10284   */\n      0x20\n        /* \"#utility.yul\":10271:10280   */\n      dup4\n        /* \"#utility.yul\":10267:10285   */\n      add\n        /* \"#utility.yul\":10258:10264   */\n      dup5\n        /* \"#utility.yul\":10214:10286   */\n      tag_503\n      jump\t// in\n    tag_536:\n        /* \"#utility.yul\":9961:10293   */\n      swap4\n      swap3\n      pop\n      pop\n      pop\n      jump\t// out\n        /* \"#utility.yul\":10380:10549   */\n    tag_475:\n        /* \"#utility.yul\":10464:10475   */\n      0x00\n        /* \"#utility.yul\":10498:10504   */\n      dup3\n        /* \"#utility.yul\":10493:10496   */\n      dup3\n        /* \"#utility.yul\":10486:10505   */\n      mstore\n        /* \"#utility.yul\":10538:10542   */\n      0x20\n        /* \"#utility.yul\":10533:10536   */\n      dup3\n        /* \"#utility.yul\":10529:10543   */\n      add\n        /* \"#utility.yul\":10514:10543   */\n      swap1\n      pop\n        /* \"#utility.yul\":10380:10549   */\n      swap3\n      swap2\n      pop\n      pop\n      jump\t// out\n        /* \"#utility.yul\":10555:10860   */\n    tag_216:\n        /* \"#utility.yul\":10595:10598   */\n      0x00\n        /* \"#utility.yul\":10614:10634   */\n      tag_541\n        /* \"#utility.yul\":10632:10633   */\n      dup3\n        /* \"#utility.yul\":10614:10634   */\n      tag_506\n      jump\t// in\n    tag_541:\n        /* \"#utility.yul\":10609:10634   */\n      swap2\n      pop\n        /* \"#utility.yul\":10648:10668   */\n      tag_542\n        /* \"#utility.yul\":10666:10667   */\n      dup4\n        /* \"#utility.yul\":10648:10668   */\n      tag_506\n      jump\t// in\n    tag_542:\n        /* \"#utility.yul\":10643:10668   */\n      swap3\n      pop\n        /* \"#utility.yul\":10802:10803   */\n      dup3\n        /* \"#utility.yul\":10734:10800   */\n      0xffffffffffffffffffffffffffffffffffffffffffffffffffffffffffffffff\n        /* \"#utility.yul\":10730:10804   */\n      sub\n        /* \"#utility.yul\":10727:10728   */\n      dup3\n        /* \"#utility.yul\":10724:10805   */\n      gt\n        /* \"#utility.yul\":10721:10828   */\n      iszero\n      tag_543\n      jumpi\n        /* \"#utility.yul\":10808:10826   */\n      tag_544\n      tag_545\n      jump\t// in\n    tag_544:\n        /* \"#utility.yul\":10721:10828   */\n    tag_543:\n        /* \"#utility.yul\":10852:10853   */\n      dup3\n        /* \"#utility.yul\":10849:10850   */\n      dup3\n        /* \"#utility.yul\":10845:10854   */\n      add\n        /* \"#utility.yul\":10838:10854   */\n      swap1\n      pop\n        /* \"#utility.yul\":10555:10860   */\n      swap3\n      swap2\n      pop\n      pop\n      jump\t// out\n        /* \"#utility.yul\":10866:11051   */\n    tag_205:\n        /* \"#utility.yul\":10906:10907   */\n      0x00\n        /* \"#utility.yul\":10923:10943   */\n      tag_547\n        /* \"#utility.yul\":10941:10942   */\n      dup3\n        /* \"#utility.yul\":10923:10943   */\n      tag_506\n      jump\t// in\n    tag_547:\n        /* \"#utility.yul\":10918:10943   */\n      swap2\n      pop\n        /* \"#utility.yul\":10957:10977   */\n      tag_548\n        /* \"#utility.yul\":10975:10976   */\n      dup4\n        /* \"#utility.yul\":10957:10977   */\n      tag_506\n      jump\t// in\n    tag_548:\n        /* \"#utility.yul\":10952:10977   */\n      swap3\n      pop\n        /* \"#utility.yul\":10996:10997   */\n      dup3\n        /* \"#utility.yul\":10986:11021   */\n      tag_549\n      jumpi\n        /* \"#utility.yul\":11001:11019   */\n      tag_550\n      tag_551\n      jump\t// in\n    tag_550:\n        /* \"#utility.yul\":10986:11021   */\n    tag_549:\n        /* \"#utility.yul\":11043:11044   */\n      dup3\n        /* \"#utility.yul\":11040:11041   */\n      dup3\n        /* \"#utility.yul\":11036:11045   */\n      div\n        /* \"#utility.yul\":11031:11045   */\n      swap1\n      pop\n        /* \"#utility.yul\":10866:11051   */\n      swap3\n      swap2\n      pop\n      pop\n      jump\t// out\n        /* \"#utility.yul\":11057:11405   */\n    tag_285:\n        /* \"#utility.yul\":11097:11104   */\n      0x00\n        /* \"#utility.yul\":11120:11140   */\n      tag_553\n        /* \"#utility.yul\":11138:11139   */\n      dup3\n        /* \"#utility.yul\":11120:11140   */\n      tag_506\n      jump\t// in\n    tag_553:\n        /* \"#utility.yul\":11115:11140   */\n      swap2\n      pop\n        /* \"#utility.yul\":11154:11174   */\n      tag_554\n        /* \"#utility.yul\":11172:11173   */\n      dup4\n        /* \"#utility.yul\":11154:11174   */\n      tag_506\n      jump\t// in\n    tag_554:\n        /* \"#utility.yul\":11149:11174   */\n      swap3\n      pop\n        /* \"#utility.yul\":11342:11343   */\n      dup2\n        /* \"#utility.yul\":11274:11340   */\n      0xffffffffffffffffffffffffffffffffffffffffffffffffffffffffffffffff\n        /* \"#utility.yul\":11270:11344   */\n      div\n        /* \"#utility.yul\":11267:11268   */\n      dup4\n        /* \"#utility.yul\":11264:11345   */\n      gt\n        /* \"#utility.yul\":11259:11260   */\n      dup3\n        /* \"#utility.yul\":11252:11261   */\n      iszero\n        /* \"#utility.yul\":11245:11262   */\n      iszero\n        /* \"#utility.yul\":11241:11346   */\n      and\n        /* \"#utility.yul\":11238:11369   */\n      iszero\n      tag_555\n      jumpi\n        /* \"#utility.yul\":11349:11367   */\n      tag_556\n      tag_545\n      jump\t// in\n    tag_556:\n        /* \"#utility.yul\":11238:11369   */\n    tag_555:\n        /* \"#utility.yul\":11397:11398   */\n      dup3\n        /* \"#utility.yul\":11394:11395   */\n      dup3\n        /* \"#utility.yul\":11390:11399   */\n      mul\n        /* \"#utility.yul\":11379:11399   */\n      swap1\n      pop\n        /* \"#utility.yul\":11057:11405   */\n      swap3\n      swap2\n      pop\n      pop\n      jump\t// out\n        /* \"#utility.yul\":11411:11602   */\n    tag_207:\n        /* \"#utility.yul\":11451:11455   */\n      0x00\n        /* \"#utility.yul\":11471:11491   */\n      tag_558\n        /* \"#utility.yul\":11489:11490   */\n      dup3\n        /* \"#utility.yul\":11471:11491   */\n      tag_506\n      jump\t// in\n    tag_558:\n        /* \"#utility.yul\":11466:11491   */\n      swap2\n      pop\n        /* \"#utility.yul\":11505:11525   */\n      tag_559\n        /* \"#utility.yul\":11523:11524   */\n      dup4\n        /* \"#utility.yul\":11505:11525   */\n      tag_506\n      jump\t// in\n    tag_559:\n        /* \"#utility.yul\":11500:11525   */\n      swap3\n      pop\n        /* \"#utility.yul\":11544:11545   */\n      dup3\n        /* \"#utility.yul\":11541:11542   */\n      dup3\n        /* \"#utility.yul\":11538:11546   */\n      lt\n        /* \"#utility.yul\":11535:11569   */\n      iszero\n      tag_560\n      jumpi\n        /* \"#utility.yul\":11549:11567   */\n      tag_561\n      tag_545\n      jump\t// in\n    tag_561:\n        /* \"#utility.yul\":11535:11569   */\n    tag_560:\n        /* \"#utility.yul\":11594:11595   */\n      dup3\n        /* \"#utility.yul\":11591:11592   */\n      dup3\n        /* \"#utility.yul\":11587:11596   */\n      sub\n        /* \"#utility.yul\":11579:11596   */\n      swap1\n      pop\n        /* \"#utility.yul\":11411:11602   */\n      swap3\n      swap2\n      pop\n      pop\n      jump\t// out\n        /* \"#utility.yul\":11608:11704   */\n    tag_463:\n        /* \"#utility.yul\":11645:11652   */\n      0x00\n        /* \"#utility.yul\":11674:11698   */\n      tag_563\n        /* \"#utility.yul\":11692:11697   */\n      dup3\n        /* \"#utility.yul\":11674:11698   */\n      tag_564\n      jump\t// in\n    tag_563:\n        /* \"#utility.yul\":11663:11698   */\n      swap1\n      pop\n        /* \"#utility.yul\":11608:11704   */\n      swap2\n      swap1\n      pop\n      jump\t// out\n        /* \"#utility.yul\":11710:11800   */\n    tag_565:\n        /* \"#utility.yul\":11744:11751   */\n      0x00\n        /* \"#utility.yul\":11787:11792   */\n      dup2\n        /* \"#utility.yul\":11780:11793   */\n      iszero\n        /* \"#utility.yul\":11773:11794   */\n      iszero\n        /* \"#utility.yul\":11762:11794   */\n      swap1\n      pop\n        /* \"#utility.yul\":11710:11800   */\n      swap2\n      swap1\n      pop\n      jump\t// out\n        /* \"#utility.yul\":11806:11898   */\n    tag_471:\n        /* \"#utility.yul\":11842:11849   */\n      0x00\n        /* \"#utility.yul\":11886:11891   */\n      dup2\n        /* \"#utility.yul\":11882:11884   */\n      0x0f\n        /* \"#utility.yul\":11871:11892   */\n      signextend\n        /* \"#utility.yul\":11860:11892   */\n      swap1\n      pop\n        /* \"#utility.yul\":11806:11898   */\n      swap2\n      swap1\n      pop\n      jump\t// out\n        /* \"#utility.yul\":11904:12030   */\n    tag_564:\n        /* \"#utility.yul\":11941:11948   */\n      0x00\n        /* \"#utility.yul\":11981:12023   */\n      0xffffffffffffffffffffffffffffffffffffffff\n        /* \"#utility.yul\":11974:11979   */\n      dup3\n        /* \"#utility.yul\":11970:12024   */\n      and\n        /* \"#utility.yul\":11959:12024   */\n      swap1\n      pop\n        /* \"#utility.yul\":11904:12030   */\n      swap2\n      swap1\n      pop\n      jump\t// out\n        /* \"#utility.yul\":12036:12113   */\n    tag_506:\n        /* \"#utility.yul\":12073:12080   */\n      0x00\n        /* \"#utility.yul\":12102:12107   */\n      dup2\n        /* \"#utility.yul\":12091:12107   */\n      swap1\n      pop\n        /* \"#utility.yul\":12036:12113   */\n      swap2\n      swap1\n      pop\n      jump\t// out\n        /* \"#utility.yul\":12119:12258   */\n    tag_467:\n        /* \"#utility.yul\":12182:12191   */\n      0x00\n        /* \"#utility.yul\":12215:12252   */\n      tag_571\n        /* \"#utility.yul\":12246:12251   */\n      dup3\n        /* \"#utility.yul\":12215:12252   */\n      tag_572\n      jump\t// in\n    tag_571:\n        /* \"#utility.yul\":12202:12252   */\n      swap1\n      pop\n        /* \"#utility.yul\":12119:12258   */\n      swap2\n      swap1\n      pop\n      jump\t// out\n        /* \"#utility.yul\":12264:12390   */\n    tag_572:\n        /* \"#utility.yul\":12314:12323   */\n      0x00\n        /* \"#utility.yul\":12347:12384   */\n      tag_574\n        /* \"#utility.yul\":12378:12383   */\n      dup3\n        /* \"#utility.yul\":12347:12384   */\n      tag_575\n      jump\t// in\n    tag_574:\n        /* \"#utility.yul\":12334:12384   */\n      swap1\n      pop\n        /* \"#utility.yul\":12264:12390   */\n      swap2\n      swap1\n      pop\n      jump\t// out\n        /* \"#utility.yul\":12396:12509   */\n    tag_575:\n        /* \"#utility.yul\":12446:12455   */\n      0x00\n        /* \"#utility.yul\":12479:12503   */\n      tag_577\n        /* \"#utility.yul\":12497:12502   */\n      dup3\n        /* \"#utility.yul\":12479:12503   */\n      tag_564\n      jump\t// in\n    tag_577:\n        /* \"#utility.yul\":12466:12503   */\n      swap1\n      pop\n        /* \"#utility.yul\":12396:12509   */\n      swap2\n      swap1\n      pop\n      jump\t// out\n        /* \"#utility.yul\":12515:12748   */\n    tag_218:\n        /* \"#utility.yul\":12554:12557   */\n      0x00\n        /* \"#utility.yul\":12577:12601   */\n      tag_579\n        /* \"#utility.yul\":12595:12600   */\n      dup3\n        /* \"#utility.yul\":12577:12601   */\n      tag_506\n      jump\t// in\n    tag_579:\n        /* \"#utility.yul\":12568:12601   */\n      swap2\n      pop\n        /* \"#utility.yul\":12623:12689   */\n      0xffffffffffffffffffffffffffffffffffffffffffffffffffffffffffffffff\n        /* \"#utility.yul\":12616:12621   */\n      dup3\n        /* \"#utility.yul\":12613:12690   */\n      eq\n        /* \"#utility.yul\":12610:12713   */\n      iszero\n      tag_580\n      jumpi\n        /* \"#utility.yul\":12693:12711   */\n      tag_581\n      tag_545\n      jump\t// in\n    tag_581:\n        /* \"#utility.yul\":12610:12713   */\n    tag_580:\n        /* \"#utility.yul\":12740:12741   */\n      0x01\n        /* \"#utility.yul\":12733:12738   */\n      dup3\n        /* \"#utility.yul\":12729:12742   */\n      add\n        /* \"#utility.yul\":12722:12742   */\n      swap1\n      pop\n        /* \"#utility.yul\":12515:12748   */\n      swap2\n      swap1\n      pop\n      jump\t// out\n        /* \"#utility.yul\":12754:12934   */\n    tag_545:\n        /* \"#utility.yul\":12802:12879   */\n      0x4e487b7100000000000000000000000000000000000000000000000000000000\n        /* \"#utility.yul\":12799:12800   */\n      0x00\n        /* \"#utility.yul\":12792:12880   */\n      mstore\n        /* \"#utility.yul\":12899:12903   */\n      0x11\n        /* \"#utility.yul\":12896:12897   */\n      0x04\n        /* \"#utility.yul\":12889:12904   */\n      mstore\n        /* \"#utility.yul\":12923:12927   */\n      0x24\n        /* \"#utility.yul\":12920:12921   */\n      0x00\n        /* \"#utility.yul\":12913:12928   */\n      revert\n        /* \"#utility.yul\":12940:13120   */\n    tag_551:\n        /* \"#utility.yul\":12988:13065   */\n      0x4e487b7100000000000000000000000000000000000000000000000000000000\n        /* \"#utility.yul\":12985:12986   */\n      0x00\n        /* \"#utility.yul\":12978:13066   */\n      mstore\n        /* \"#utility.yul\":13085:13089   */\n      0x12\n        /* \"#utility.yul\":13082:13083   */\n      0x04\n        /* \"#utility.yul\":13075:13090   */\n      mstore\n        /* \"#utility.yul\":13109:13113   */\n      0x24\n        /* \"#utility.yul\":13106:13107   */\n      0x00\n        /* \"#utility.yul\":13099:13114   */\n      revert\n        /* \"#utility.yul\":13249:13366   */\n    tag_436:\n        /* \"#utility.yul\":13358:13359   */\n      0x00\n        /* \"#utility.yul\":13355:13356   */\n      dup1\n        /* \"#utility.yul\":13348:13360   */\n      revert\n        /* \"#utility.yul\":13372:13595   */\n    tag_477:\n        /* \"#utility.yul\":13512:13546   */\n      0x596f7520646f6e7420686176652074686174206d75636820746f207769746864\n        /* \"#utility.yul\":13508:13509   */\n      0x00\n        /* \"#utility.yul\":13500:13506   */\n      dup3\n        /* \"#utility.yul\":13496:13510   */\n      add\n        /* \"#utility.yul\":13489:13547   */\n      mstore\n        /* \"#utility.yul\":13581:13587   */\n      0x7261772100000000000000000000000000000000000000000000000000000000\n        /* \"#utility.yul\":13576:13578   */\n      0x20\n        /* \"#utility.yul\":13568:13574   */\n      dup3\n        /* \"#utility.yul\":13564:13579   */\n      add\n        /* \"#utility.yul\":13557:13588   */\n      mstore\n        /* \"#utility.yul\":13372:13595   */\n      pop\n      jump\t// out\n        /* \"#utility.yul\":13601:13772   */\n    tag_482:\n        /* \"#utility.yul\":13741:13764   */\n      0x546f6b656e207472616e73666572206661696c65640000000000000000000000\n        /* \"#utility.yul\":13737:13738   */\n      0x00\n        /* \"#utility.yul\":13729:13735   */\n      dup3\n        /* \"#utility.yul\":13725:13739   */\n      add\n        /* \"#utility.yul\":13718:13765   */\n      mstore\n        /* \"#utility.yul\":13601:13772   */\n      pop\n      jump\t// out\n        /* \"#utility.yul\":13778:13954   */\n    tag_487:\n        /* \"#utility.yul\":13918:13946   */\n      0x596f7520646f6e742068617665207468617420616d6f756e7421000000000000\n        /* \"#utility.yul\":13914:13915   */\n      0x00\n        /* \"#utility.yul\":13906:13912   */\n      dup3\n        /* \"#utility.yul\":13902:13916   */\n      add\n        /* \"#utility.yul\":13895:13947   */\n      mstore\n        /* \"#utility.yul\":13778:13954   */\n      pop\n      jump\t// out\n        /* \"#utility.yul\":13960:14131   */\n    tag_492:\n        /* \"#utility.yul\":14100:14123   */\n      0x506572207472616e73616374696f6e206c696d69740000000000000000000000\n        /* \"#utility.yul\":14096:14097   */\n      0x00\n        /* \"#utility.yul\":14088:14094   */\n      dup3\n        /* \"#utility.yul\":14084:14098   */\n      add\n        /* \"#utility.yul\":14077:14124   */\n      mstore\n        /* \"#utility.yul\":13960:14131   */\n      pop\n      jump\t// out\n        /* \"#utility.yul\":14137:14299   */\n    tag_497:\n        /* \"#utility.yul\":14277:14291   */\n      0x4e6f7420756e6c6f636b65640000000000000000000000000000000000000000\n        /* \"#utility.yul\":14273:14274   */\n      0x00\n        /* \"#utility.yul\":14265:14271   */\n      dup3\n        /* \"#utility.yul\":14261:14275   */\n      add\n        /* \"#utility.yul\":14254:14292   */\n      mstore\n        /* \"#utility.yul\":14137:14299   */\n      pop\n      jump\t// out\n        /* \"#utility.yul\":14305:14525   */\n    tag_502:\n        /* \"#utility.yul\":14445:14479   */\n      0x75696e74206f766572666c6f772066726f6d206d756c7469706c69636174696f\n        /* \"#utility.yul\":14441:14442   */\n      0x00\n        /* \"#utility.yul\":14433:14439   */\n      dup3\n        /* \"#utility.yul\":14429:14443   */\n      add\n        /* \"#utility.yul\":14422:14480   */\n      mstore\n        /* \"#utility.yul\":14514:14517   */\n      0x6e00000000000000000000000000000000000000000000000000000000000000\n        /* \"#utility.yul\":14509:14511   */\n      0x20\n        /* \"#utility.yul\":14501:14507   */\n      dup3\n        /* \"#utility.yul\":14497:14512   */\n      add\n        /* \"#utility.yul\":14490:14518   */\n      mstore\n        /* \"#utility.yul\":14305:14525   */\n      pop\n      jump\t// out\n        /* \"#utility.yul\":14531:14653   */\n    tag_421:\n        /* \"#utility.yul\":14604:14628   */\n      tag_594\n        /* \"#utility.yul\":14622:14627   */\n      dup2\n        /* \"#utility.yul\":14604:14628   */\n      tag_463\n      jump\t// in\n    tag_594:\n        /* \"#utility.yul\":14597:14602   */\n      dup2\n        /* \"#utility.yul\":14594:14629   */\n      eq\n        /* \"#utility.yul\":14584:14647   */\n      tag_595\n      jumpi\n        /* \"#utility.yul\":14643:14644   */\n      0x00\n        /* \"#utility.yul\":14640:14641   */\n      dup1\n        /* \"#utility.yul\":14633:14645   */\n      revert\n        /* \"#utility.yul\":14584:14647   */\n    tag_595:\n        /* \"#utility.yul\":14531:14653   */\n      pop\n      jump\t// out\n        /* \"#utility.yul\":14659:14775   */\n    tag_425:\n        /* \"#utility.yul\":14729:14750   */\n      tag_597\n        /* \"#utility.yul\":14744:14749   */\n      dup2\n        /* \"#utility.yul\":14729:14750   */\n      tag_565\n      jump\t// in\n    tag_597:\n        /* \"#utility.yul\":14722:14727   */\n      dup2\n        /* \"#utility.yul\":14719:14751   */\n      eq\n        /* \"#utility.yul\":14709:14769   */\n      tag_598\n      jumpi\n        /* \"#utility.yul\":14765:14766   */\n      0x00\n        /* \"#utility.yul\":14762:14763   */\n      dup1\n        /* \"#utility.yul\":14755:14767   */\n      revert\n        /* \"#utility.yul\":14709:14769   */\n    tag_598:\n        /* \"#utility.yul\":14659:14775   */\n      pop\n      jump\t// out\n        /* \"#utility.yul\":14781:14903   */\n    tag_429:\n        /* \"#utility.yul\":14854:14878   */\n      tag_600\n        /* \"#utility.yul\":14872:14877   */\n      dup2\n        /* \"#utility.yul\":14854:14878   */\n      tag_506\n      jump\t// in\n    tag_600:\n        /* \"#utility.yul\":14847:14852   */\n      dup2\n        /* \"#utility.yul\":14844:14879   */\n      eq\n        /* \"#utility.yul\":14834:14897   */\n      tag_601\n      jumpi\n        /* \"#utility.yul\":14893:14894   */\n      0x00\n        /* \"#utility.yul\":14890:14891   */\n      dup1\n        /* \"#utility.yul\":14883:14895   */\n      revert\n        /* \"#utility.yul\":14834:14897   */\n    tag_601:\n        /* \"#utility.yul\":14781:14903   */\n      pop\n      jump\t// out\n\n    auxdata: 0xa2646970667358221220b73aa8784ab10d392a3e6f61395e8f1471c722fef91f63c9a3e298074e8d028f64736f6c63430008070033\n}\n",
				"bytecode": {
					"linkReferences": {},
					"object": "6080604052670de0b6b3a764000061c3506200001c9190620002a0565b600a55620186a0600d5562015f90600e55620927c0600f5573617f2e2fd72fd9d5503197092ac168c91465e7f2601160006101000a81548173ffffffffffffffffffffffffffffffffffffffff021916908373ffffffffffffffffffffffffffffffffffffffff1602179055503480156200009657600080fd5b5060405162002a9338038062002a938339818101604052810190620000bc919062000259565b81601860006101000a81548173ffffffffffffffffffffffffffffffffffffffff021916908373ffffffffffffffffffffffffffffffffffffffff16021790555080601960006101000a81548173ffffffffffffffffffffffffffffffffffffffff021916908373ffffffffffffffffffffffffffffffffffffffff16021790555081601260006101000a81548173ffffffffffffffffffffffffffffffffffffffff021916908373ffffffffffffffffffffffffffffffffffffffff160217905550732f8895b08d8f226b19895d46154fab7096fb2593601360006101000a81548173ffffffffffffffffffffffffffffffffffffffff021916908373ffffffffffffffffffffffffffffffffffffffff16021790555073617f2e2fd72fd9d5503197092ac168c91465e7f2600660006101000a81548173ffffffffffffffffffffffffffffffffffffffff021916908373ffffffffffffffffffffffffffffffffffffffff16021790555042600b8190555062069780600c8190555050506200038d565b600081519050620002538162000373565b92915050565b600080604083850312156200027357620002726200036e565b5b6000620002838582860162000242565b9250506020620002968582860162000242565b9150509250929050565b6000620002ad8262000335565b9150620002ba8362000335565b9250817fffffffffffffffffffffffffffffffffffffffffffffffffffffffffffffffff0483118215151615620002f657620002f56200033f565b5b828202905092915050565b60006200030e8262000315565b9050919050565b600073ffffffffffffffffffffffffffffffffffffffff82169050919050565b6000819050919050565b7f4e487b7100000000000000000000000000000000000000000000000000000000600052601160045260246000fd5b600080fd5b6200037e8162000301565b81146200038a57600080fd5b50565b6126f6806200039d6000396000f3fe60806040526004361061020f5760003560e01c806367b48c9111610118578063cbff4617116100a0578063ee6208681161006f578063ee6208681461078e578063eee05f5e146107b9578063f7523c52146107e4578063fbbb458914610821578063fc3614431461084c5761020f565b8063cbff4617146106d0578063d82eddf2146106fb578063ee46767814610726578063ee546a51146107515761020f565b806371cd58f9116100e757806371cd58f9146105fd57806393f7b711146106285780639b19251a14610653578063bcd323cb1461067c578063c079d7f6146106a55761020f565b806367b48c911461055357806367e927a81461057e5780636e05c1b9146105a75780636f10e285146105d25761020f565b806329982a321161019b5780633c6eb17a1161016a5780633c6eb17a1461047b57806343d32e9c146104a657806363d03361146104d157806364ce07d8146104ed57806365819f7e1461052a5761020f565b806329982a32146103bd5780632a9f0fb1146103e8578063308cdb881461042557806335453307146104505761020f565b80631514c976116101e25780631514c976146102d3578063164c8501146103105780631a30e872146103395780631bc9cc45146103765780631f564a06146103925761020f565b8063047729b0146102145780630ccaf04f1461023f5780630f65de3e1461026a57806312b2ed9414610295575b600080fd5b34801561022057600080fd5b50610229610875565b6040516102369190612127565b60405180910390f35b34801561024b57600080fd5b5061025461089b565b6040516102619190612298565b60405180910390f35b34801561027657600080fd5b5061027f6109f5565b60405161028c9190612298565b60405180910390f35b3480156102a157600080fd5b506102bc60048036038101906102b79190611ee5565b6109fa565b6040516102ca9291906122b3565b60405180910390f35b3480156102df57600080fd5b506102fa60048036038101906102f59190611f7f565b610a1e565b6040516103079190612298565b60405180910390f35b34801561031c57600080fd5b5061033760048036038101906103329190611f7f565b610a36565b005b34801561034557600080fd5b50610360600480360381019061035b9190611f7f565b610bb4565b60405161036d9190612298565b60405180910390f35b610390600480360381019061038b9190611f7f565b610bcc565b005b34801561039e57600080fd5b506103a7610d64565b6040516103b49190612298565b60405180910390f35b3480156103c957600080fd5b506103d2610e16565b6040516103df9190612127565b60405180910390f35b3480156103f457600080fd5b5061040f600480360381019061040a9190611f7f565b610e3c565b60405161041c9190612298565b60405180910390f35b34801561043157600080fd5b5061043a610e54565b6040516104479190612298565b60405180910390f35b34801561045c57600080fd5b50610465610f72565b6040516104729190612298565b60405180910390f35b34801561048757600080fd5b50610490610f78565b60405161049d9190612298565b60405180910390f35b3480156104b257600080fd5b506104bb610f7e565b6040516104c89190612298565b60405180910390f35b6104eb60048036038101906104e69190611fd9565b61109c565b005b3480156104f957600080fd5b50610514600480360381019061050f9190611fd9565b611392565b6040516105219190612298565b60405180910390f35b34801561053657600080fd5b50610551600480360381019061054c9190611f7f565b6113d3565b005b34801561055f57600080fd5b506105686116e1565b6040516105759190612298565b60405180910390f35b34801561058a57600080fd5b506105a560048036038101906105a09190611f7f565b6116e7565b005b3480156105b357600080fd5b506105bc611798565b6040516105c991906121a2565b60405180910390f35b3480156105de57600080fd5b506105e76117be565b6040516105f491906121bd565b60405180910390f35b34801561060957600080fd5b506106126117d1565b60405161061f9190612298565b60405180910390f35b34801561063457600080fd5b5061063d611888565b60405161064a9190612298565b60405180910390f35b34801561065f57600080fd5b5061067a60048036038101906106759190611ee5565b6119e2565b005b34801561068857600080fd5b506106a3600480360381019061069e9190611ee5565b6119e5565b005b3480156106b157600080fd5b506106ba611ae3565b6040516106c79190612127565b60405180910390f35b3480156106dc57600080fd5b506106e5611b09565b6040516106f29190612298565b60405180910390f35b34801561070757600080fd5b50610710611b0f565b60405161071d9190612298565b60405180910390f35b34801561073257600080fd5b5061073b611b72565b60405161074891906121a2565b60405180910390f35b34801561075d57600080fd5b5061077860048036038101906107739190611f12565b611b98565b6040516107859190612298565b60405180910390f35b34801561079a57600080fd5b506107a3611c2b565b6040516107b09190612298565b60405180910390f35b3480156107c557600080fd5b506107ce611c31565b6040516107db9190612127565b60405180910390f35b3480156107f057600080fd5b5061080b60048036038101906108069190611fd9565b611c57565b6040516108189190612298565b60405180910390f35b34801561082d57600080fd5b50610836611ca0565b6040516108439190612127565b60405180910390f35b34801561085857600080fd5b50610873600480360381019061086e9190611f7f565b611cc6565b005b600860009054906101000a900473ffffffffffffffffffffffffffffffffffffffff1681565b60008060008062015180600c546108b29190612343565b9050600062015180600b54426108c891906123ce565b6108d29190612343565b90506000808214156108f95760166000808152602001908152602001600020549350610945565b828261090591906123ce565b90505b818110156109445760166000828152602001908152602001600020548461092f91906122ed565b9350808061093c9061248d565b915050610908565b5b6109cc3073ffffffffffffffffffffffffffffffffffffffff1663d82eddf26040518163ffffffff1660e01b815260040160206040518083038186803b15801561098e57600080fd5b505afa1580156109a2573d6000803e3d6000fd5b505050506040513d601f19601f820116820180604052508101906109c69190611fac565b85611392565b9450670429d069189e00008511156109ea57670429d069189e000094505b849550505050505090565b600090565b60176020528060005260406000206000915090508060000154908060010154905082565b60156020528060005260406000206000915090505481565b601760003373ffffffffffffffffffffffffffffffffffffffff1673ffffffffffffffffffffffffffffffffffffffff168152602001908152602001600020600101548110610aba576040517f08c379a0000000000000000000000000000000000000000000000000000000008152600401610ab1906121d8565b60405180910390fd5b80601760003373ffffffffffffffffffffffffffffffffffffffff1673ffffffffffffffffffffffffffffffffffffffff1681526020019081526020016000206001016000828254610b0c91906123ce565b925050819055506000601760003373ffffffffffffffffffffffffffffffffffffffff1673ffffffffffffffffffffffffffffffffffffffff168152602001908152602001600020600101541415610bb157601760003373ffffffffffffffffffffffffffffffffffffffff1673ffffffffffffffffffffffffffffffffffffffff168152602001908152602001600020600080820160009055600182016000905550505b50565b60166020528060005260406000206000915090505481565b6000601260009054906101000a900473ffffffffffffffffffffffffffffffffffffffff1673ffffffffffffffffffffffffffffffffffffffff166370a08231336040518263ffffffff1660e01b8152600401610c299190612127565b60206040518083038186803b158015610c4157600080fd5b505afa158015610c55573d6000803e3d6000fd5b505050506040513d601f19601f82011682018060405250810190610c799190611fac565b9050818111610cbd576040517f08c379a0000000000000000000000000000000000000000000000000000000008152600401610cb490612218565b60405180910390fd5b610ceb601260009054906101000a900473ffffffffffffffffffffffffffffffffffffffff16333085611cde565b600062015180600b5442610cff91906123ce565b610d099190612343565b905082601560008381526020019081526020016000206000828254610d2e91906122ed565b9250508190555082601660008381526020019081526020016000206000828254610d5891906123ce565b92505081905550505050565b6000610e11600a54601260009054906101000a900473ffffffffffffffffffffffffffffffffffffffff1673ffffffffffffffffffffffffffffffffffffffff166318160ddd6040518163ffffffff1660e01b815260040160206040518083038186803b158015610dd457600080fd5b505afa158015610de8573d6000803e3d6000fd5b505050506040513d601f19601f82011682018060405250810190610e0c9190611fac565b611392565b905090565b600960009054906101000a900473ffffffffffffffffffffffffffffffffffffffff1681565b60146020528060005260406000206000915090505481565b6000610f6d3073ffffffffffffffffffffffffffffffffffffffff16631f564a066040518163ffffffff1660e01b815260040160206040518083038186803b158015610e9f57600080fd5b505afa158015610eb3573d6000803e3d6000fd5b505050506040513d601f19601f82011682018060405250810190610ed79190611fac565b3073ffffffffffffffffffffffffffffffffffffffff16630ccaf04f6040518163ffffffff1660e01b815260040160206040518083038186803b158015610f1d57600080fd5b505afa158015610f31573d6000803e3d6000fd5b505050506040513d601f19601f82011682018060405250810190610f559190611fac565b670c7d713b49da0000610f6891906123ce565b611c57565b905090565b600a5481565b600b5481565b60006110973073ffffffffffffffffffffffffffffffffffffffff16631f564a066040518163ffffffff1660e01b815260040160206040518083038186803b158015610fc957600080fd5b505afa158015610fdd573d6000803e3d6000fd5b505050506040513d601f19601f820116820180604052508101906110019190611fac565b3073ffffffffffffffffffffffffffffffffffffffff166393f7b7116040518163ffffffff1660e01b815260040160206040518083038186803b15801561104757600080fd5b505afa15801561105b573d6000803e3d6000fd5b505050506040513d601f19601f8201168201806040525081019061107f9190611fac565b6710a741a46278000061109291906122ed565b611c57565b905090565b6000601260009054906101000a900473ffffffffffffffffffffffffffffffffffffffff1673ffffffffffffffffffffffffffffffffffffffff166370a08231336040518263ffffffff1660e01b81526004016110f99190612127565b60206040518083038186803b15801561111157600080fd5b505afa158015611125573d6000803e3d6000fd5b505050506040513d601f19601f820116820180604052508101906111499190611fac565b905082811161118d576040517f08c379a000000000000000000000000000000000000000000000000000000000815260040161118490612218565b60405180910390fd5b601360009054906101000a900473ffffffffffffffffffffffffffffffffffffffff1673ffffffffffffffffffffffffffffffffffffffff1663a9059cbb33670de0b6b3a764000060016111e19190612374565b866111ec91906122ed565b6040518363ffffffff1660e01b8152600401611209929190612179565b602060405180830381600087803b15801561122357600080fd5b505af1158015611237573d6000803e3d6000fd5b505050506040513d601f19601f8201168201806040525081019061125b9190611f52565b5061128a601260009054906101000a900473ffffffffffffffffffffffffffffffffffffffff16333086611cde565b6000833073ffffffffffffffffffffffffffffffffffffffff1663308cdb886040518163ffffffff1660e01b815260040160206040518083038186803b1580156112d357600080fd5b505afa1580156112e7573d6000803e3d6000fd5b505050506040513d601f19601f8201168201806040525081019061130b9190611fac565b6113159190612374565b9050600062015180600b544261132b91906123ce565b6113359190612343565b90508460156000838152602001908152602001600020600082825461135a91906122ed565b925050819055508460166000838152602001908152602001600020600082825461138491906123ce565b925050819055505050505050565b6000806113a784670de0b6b3a7640000611db8565b9050826113c0826002866113bb9190612343565b611e33565b6113ca9190612343565b91505092915050565b6203d090811115611419576040517f08c379a000000000000000000000000000000000000000000000000000000000815260040161141090612238565b60405180910390fd5b6000601360009054906101000a900473ffffffffffffffffffffffffffffffffffffffff1673ffffffffffffffffffffffffffffffffffffffff166370a08231336040518263ffffffff1660e01b81526004016114769190612127565b60206040518083038186803b15801561148e57600080fd5b505afa1580156114a2573d6000803e3d6000fd5b505050506040513d601f19601f820116820180604052508101906114c69190611fac565b905081811161150a576040517f08c379a000000000000000000000000000000000000000000000000000000000815260040161150190612218565b60405180910390fd5b60003073ffffffffffffffffffffffffffffffffffffffff166343d32e9c6040518163ffffffff1660e01b815260040160206040518083038186803b15801561155257600080fd5b505afa158015611566573d6000803e3d6000fd5b505050506040513d601f19601f8201168201806040525081019061158a9190611fac565b836115959190612374565b90506115c5601360009054906101000a900473ffffffffffffffffffffffffffffffffffffffff16333084611cde565b601860009054906101000a900473ffffffffffffffffffffffffffffffffffffffff1673ffffffffffffffffffffffffffffffffffffffff166340c10f1933670de0b6b3a7640000866116189190612374565b6040518363ffffffff1660e01b8152600401611635929190612179565b600060405180830381600087803b15801561164f57600080fd5b505af1158015611663573d6000803e3d6000fd5b50505050600062015180600b544261167b91906123ce565b6116859190612343565b9050836014600083815260200190815260200160002060008282546116aa91906122ed565b92505081905550836016600083815260200190815260200160002060008282546116d491906122ed565b9250508190555050505050565b600c5481565b620d2f00426116f691906122ed565b601760003373ffffffffffffffffffffffffffffffffffffffff1673ffffffffffffffffffffffffffffffffffffffff1681526020019081526020016000206000018190555080601760003373ffffffffffffffffffffffffffffffffffffffff1673ffffffffffffffffffffffffffffffffffffffff168152602001908152602001600020600101600082825461178e91906122ed565b9250508190555050565b601260009054906101000a900473ffffffffffffffffffffffffffffffffffffffff1681565b601060009054906101000a9004600f0b81565b60008060008062015180600c546117e89190612343565b9050600062015180600b54426117fe91906123ce565b6118089190612343565b90506000811415611832576014600080815260200190815260200160002054945050505050611885565b818161183e91906123ce565b92505b8083101561187d5760146000848152602001908152602001600020548461186891906122ed565b935082806118759061248d565b935050611841565b839450505050505b90565b60008060008062015180600c5461189f9190612343565b9050600062015180600b54426118b591906123ce565b6118bf9190612343565b90506000808214156118e65760166000808152602001908152602001600020549350611932565b82826118f291906123ce565b90505b818110156119315760166000828152602001908152602001600020548461191c91906122ed565b935080806119299061248d565b9150506118f5565b5b6119b93073ffffffffffffffffffffffffffffffffffffffff166371cd58f96040518163ffffffff1660e01b815260040160206040518083038186803b15801561197b57600080fd5b505afa15801561198f573d6000803e3d6000fd5b505050506040513d601f19601f820116820180604052508101906119b39190611fac565b85611392565b94506710a741a4627800008511156119d7576710a741a46278000094505b849550505050505090565b50565b601760008273ffffffffffffffffffffffffffffffffffffffff1673ffffffffffffffffffffffffffffffffffffffff16815260200190815260200160002060000154421015611a6a576040517f08c379a0000000000000000000000000000000000000000000000000000000008152600401611a6190612258565b60405180910390fd5b6000601760008373ffffffffffffffffffffffffffffffffffffffff1673ffffffffffffffffffffffffffffffffffffffff168152602001908152602001600020600101549050611adf601360009054906101000a900473ffffffffffffffffffffffffffffffffffffffff16303384611cde565b5050565b600760009054906101000a900473ffffffffffffffffffffffffffffffffffffffff1681565b60015481565b60008060008062015180600c54611b269190612343565b9050600091505b80821015611b6957601560008381526020019081526020016000205483611b5491906122ed565b92508180611b619061248d565b925050611b2d565b82935050505090565b601360009054906101000a900473ffffffffffffffffffffffffffffffffffffffff1681565b60008273ffffffffffffffffffffffffffffffffffffffff166370a08231836040518263ffffffff1660e01b8152600401611bd39190612127565b60206040518083038186803b158015611beb57600080fd5b505afa158015611bff573d6000803e3d6000fd5b505050506040513d601f19601f82011682018060405250810190611c239190611fac565b905092915050565b60005481565b601160009054906101000a900473ffffffffffffffffffffffffffffffffffffffff1681565b600080611c648484611db8565b9050670de0b6b3a7640000611c8d826002670de0b6b3a7640000611c889190612343565b611e33565b611c979190612343565b91505092915050565b600660009054906101000a900473ffffffffffffffffffffffffffffffffffffffff1681565b6201518081611cd59190612374565b600c8190555050565b60008473ffffffffffffffffffffffffffffffffffffffff166323b872dd8585856040518463ffffffff1660e01b8152600401611d1d93929190612142565b602060405180830381600087803b158015611d3757600080fd5b505af1158015611d4b573d6000803e3d6000fd5b505050506040513d601f19601f82011682018060405250810190611d6f9190611f52565b905080611db1576040517f08c379a0000000000000000000000000000000000000000000000000000000008152600401611da8906121f8565b60405180910390fd5b5050505050565b600080831415611dcb5760009050611e2d565b60008284611dd99190612374565b9050828482611de89190612343565b14611e28576040517f08c379a0000000000000000000000000000000000000000000000000000000008152600401611e1f90612278565b60405180910390fd5b809150505b92915050565b6000808284611e4291906122ed565b905083811015611e87576040517f08c379a0000000000000000000000000000000000000000000000000000000008152600401611e7e90612278565b60405180910390fd5b8091505092915050565b600081359050611ea08161267b565b92915050565b600081519050611eb581612692565b92915050565b600081359050611eca816126a9565b92915050565b600081519050611edf816126a9565b92915050565b600060208284031215611efb57611efa612534565b5b6000611f0984828501611e91565b91505092915050565b60008060408385031215611f2957611f28612534565b5b6000611f3785828601611e91565b9250506020611f4885828601611e91565b9150509250929050565b600060208284031215611f6857611f67612534565b5b6000611f7684828501611ea6565b91505092915050565b600060208284031215611f9557611f94612534565b5b6000611fa384828501611ebb565b91505092915050565b600060208284031215611fc257611fc1612534565b5b6000611fd084828501611ed0565b91505092915050565b60008060408385031215611ff057611fef612534565b5b6000611ffe85828601611ebb565b925050602061200f85828601611ebb565b9150509250929050565b61202281612402565b82525050565b61203181612457565b82525050565b61204081612420565b82525050565b60006120536024836122dc565b915061205e82612539565b604082019050919050565b60006120766015836122dc565b915061208182612588565b602082019050919050565b6000612099601a836122dc565b91506120a4826125b1565b602082019050919050565b60006120bc6015836122dc565b91506120c7826125da565b602082019050919050565b60006120df600c836122dc565b91506120ea82612603565b602082019050919050565b60006121026021836122dc565b915061210d8261262c565b604082019050919050565b6121218161244d565b82525050565b600060208201905061213c6000830184612019565b92915050565b60006060820190506121576000830186612019565b6121646020830185612019565b6121716040830184612118565b949350505050565b600060408201905061218e6000830185612019565b61219b6020830184612118565b9392505050565b60006020820190506121b76000830184612028565b92915050565b60006020820190506121d26000830184612037565b92915050565b600060208201905081810360008301526121f181612046565b9050919050565b6000602082019050818103600083015261221181612069565b9050919050565b600060208201905081810360008301526122318161208c565b9050919050565b60006020820190508181036000830152612251816120af565b9050919050565b60006020820190508181036000830152612271816120d2565b9050919050565b60006020820190508181036000830152612291816120f5565b9050919050565b60006020820190506122ad6000830184612118565b92915050565b60006040820190506122c86000830185612118565b6122d56020830184612118565b9392505050565b600082825260208201905092915050565b60006122f88261244d565b91506123038361244d565b9250827fffffffffffffffffffffffffffffffffffffffffffffffffffffffffffffffff03821115612338576123376124d6565b5b828201905092915050565b600061234e8261244d565b91506123598361244d565b92508261236957612368612505565b5b828204905092915050565b600061237f8261244d565b915061238a8361244d565b9250817fffffffffffffffffffffffffffffffffffffffffffffffffffffffffffffffff04831182151516156123c3576123c26124d6565b5b828202905092915050565b60006123d98261244d565b91506123e48361244d565b9250828210156123f7576123f66124d6565b5b828203905092915050565b600061240d8261242d565b9050919050565b60008115159050919050565b600081600f0b9050919050565b600073ffffffffffffffffffffffffffffffffffffffff82169050919050565b6000819050919050565b600061246282612469565b9050919050565b60006124748261247b565b9050919050565b60006124868261242d565b9050919050565b60006124988261244d565b91507fffffffffffffffffffffffffffffffffffffffffffffffffffffffffffffffff8214156124cb576124ca6124d6565b5b600182019050919050565b7f4e487b7100000000000000000000000000000000000000000000000000000000600052601160045260246000fd5b7f4e487b7100000000000000000000000000000000000000000000000000000000600052601260045260246000fd5b600080fd5b7f596f7520646f6e7420686176652074686174206d75636820746f20776974686460008201527f7261772100000000000000000000000000000000000000000000000000000000602082015250565b7f546f6b656e207472616e73666572206661696c65640000000000000000000000600082015250565b7f596f7520646f6e742068617665207468617420616d6f756e7421000000000000600082015250565b7f506572207472616e73616374696f6e206c696d69740000000000000000000000600082015250565b7f4e6f7420756e6c6f636b65640000000000000000000000000000000000000000600082015250565b7f75696e74206f766572666c6f772066726f6d206d756c7469706c69636174696f60008201527f6e00000000000000000000000000000000000000000000000000000000000000602082015250565b61268481612402565b811461268f57600080fd5b50565b61269b81612414565b81146126a657600080fd5b50565b6126b28161244d565b81146126bd57600080fd5b5056fea2646970667358221220b73aa8784ab10d392a3e6f61395e8f1471c722fef91f63c9a3e298074e8d028f64736f6c63430008070033",
					"opcodes": "PUSH1 0x80 PUSH1 0x40 MSTORE PUSH8 0xDE0B6B3A7640000 PUSH2 0xC350 PUSH3 0x1C SWAP2 SWAP1 PUSH3 0x2A0 JUMP JUMPDEST PUSH1 0xA SSTORE PUSH3 0x186A0 PUSH1 0xD SSTORE PUSH3 0x15F90 PUSH1 0xE SSTORE PUSH3 0x927C0 PUSH1 0xF SSTORE PUSH20 0x617F2E2FD72FD9D5503197092AC168C91465E7F2 PUSH1 0x11 PUSH1 0x0 PUSH2 0x100 EXP DUP2 SLOAD DUP2 PUSH20 0xFFFFFFFFFFFFFFFFFFFFFFFFFFFFFFFFFFFFFFFF MUL NOT AND SWAP1 DUP4 PUSH20 0xFFFFFFFFFFFFFFFFFFFFFFFFFFFFFFFFFFFFFFFF AND MUL OR SWAP1 SSTORE POP CALLVALUE DUP1 ISZERO PUSH3 0x96 JUMPI PUSH1 0x0 DUP1 REVERT JUMPDEST POP PUSH1 0x40 MLOAD PUSH3 0x2A93 CODESIZE SUB DUP1 PUSH3 0x2A93 DUP4 CODECOPY DUP2 DUP2 ADD PUSH1 0x40 MSTORE DUP2 ADD SWAP1 PUSH3 0xBC SWAP2 SWAP1 PUSH3 0x259 JUMP JUMPDEST DUP2 PUSH1 0x18 PUSH1 0x0 PUSH2 0x100 EXP DUP2 SLOAD DUP2 PUSH20 0xFFFFFFFFFFFFFFFFFFFFFFFFFFFFFFFFFFFFFFFF MUL NOT AND SWAP1 DUP4 PUSH20 0xFFFFFFFFFFFFFFFFFFFFFFFFFFFFFFFFFFFFFFFF AND MUL OR SWAP1 SSTORE POP DUP1 PUSH1 0x19 PUSH1 0x0 PUSH2 0x100 EXP DUP2 SLOAD DUP2 PUSH20 0xFFFFFFFFFFFFFFFFFFFFFFFFFFFFFFFFFFFFFFFF MUL NOT AND SWAP1 DUP4 PUSH20 0xFFFFFFFFFFFFFFFFFFFFFFFFFFFFFFFFFFFFFFFF AND MUL OR SWAP1 SSTORE POP DUP2 PUSH1 0x12 PUSH1 0x0 PUSH2 0x100 EXP DUP2 SLOAD DUP2 PUSH20 0xFFFFFFFFFFFFFFFFFFFFFFFFFFFFFFFFFFFFFFFF MUL NOT AND SWAP1 DUP4 PUSH20 0xFFFFFFFFFFFFFFFFFFFFFFFFFFFFFFFFFFFFFFFF AND MUL OR SWAP1 SSTORE POP PUSH20 0x2F8895B08D8F226B19895D46154FAB7096FB2593 PUSH1 0x13 PUSH1 0x0 PUSH2 0x100 EXP DUP2 SLOAD DUP2 PUSH20 0xFFFFFFFFFFFFFFFFFFFFFFFFFFFFFFFFFFFFFFFF MUL NOT AND SWAP1 DUP4 PUSH20 0xFFFFFFFFFFFFFFFFFFFFFFFFFFFFFFFFFFFFFFFF AND MUL OR SWAP1 SSTORE POP PUSH20 0x617F2E2FD72FD9D5503197092AC168C91465E7F2 PUSH1 0x6 PUSH1 0x0 PUSH2 0x100 EXP DUP2 SLOAD DUP2 PUSH20 0xFFFFFFFFFFFFFFFFFFFFFFFFFFFFFFFFFFFFFFFF MUL NOT AND SWAP1 DUP4 PUSH20 0xFFFFFFFFFFFFFFFFFFFFFFFFFFFFFFFFFFFFFFFF AND MUL OR SWAP1 SSTORE POP TIMESTAMP PUSH1 0xB DUP2 SWAP1 SSTORE POP PUSH3 0x69780 PUSH1 0xC DUP2 SWAP1 SSTORE POP POP POP PUSH3 0x38D JUMP JUMPDEST PUSH1 0x0 DUP2 MLOAD SWAP1 POP PUSH3 0x253 DUP2 PUSH3 0x373 JUMP JUMPDEST SWAP3 SWAP2 POP POP JUMP JUMPDEST PUSH1 0x0 DUP1 PUSH1 0x40 DUP4 DUP6 SUB SLT ISZERO PUSH3 0x273 JUMPI PUSH3 0x272 PUSH3 0x36E JUMP JUMPDEST JUMPDEST PUSH1 0x0 PUSH3 0x283 DUP6 DUP3 DUP7 ADD PUSH3 0x242 JUMP JUMPDEST SWAP3 POP POP PUSH1 0x20 PUSH3 0x296 DUP6 DUP3 DUP7 ADD PUSH3 0x242 JUMP JUMPDEST SWAP2 POP POP SWAP3 POP SWAP3 SWAP1 POP JUMP JUMPDEST PUSH1 0x0 PUSH3 0x2AD DUP3 PUSH3 0x335 JUMP JUMPDEST SWAP2 POP PUSH3 0x2BA DUP4 PUSH3 0x335 JUMP JUMPDEST SWAP3 POP DUP2 PUSH32 0xFFFFFFFFFFFFFFFFFFFFFFFFFFFFFFFFFFFFFFFFFFFFFFFFFFFFFFFFFFFFFFFF DIV DUP4 GT DUP3 ISZERO ISZERO AND ISZERO PUSH3 0x2F6 JUMPI PUSH3 0x2F5 PUSH3 0x33F JUMP JUMPDEST JUMPDEST DUP3 DUP3 MUL SWAP1 POP SWAP3 SWAP2 POP POP JUMP JUMPDEST PUSH1 0x0 PUSH3 0x30E DUP3 PUSH3 0x315 JUMP JUMPDEST SWAP1 POP SWAP2 SWAP1 POP JUMP JUMPDEST PUSH1 0x0 PUSH20 0xFFFFFFFFFFFFFFFFFFFFFFFFFFFFFFFFFFFFFFFF DUP3 AND SWAP1 POP SWAP2 SWAP1 POP JUMP JUMPDEST PUSH1 0x0 DUP2 SWAP1 POP SWAP2 SWAP1 POP JUMP JUMPDEST PUSH32 0x4E487B7100000000000000000000000000000000000000000000000000000000 PUSH1 0x0 MSTORE PUSH1 0x11 PUSH1 0x4 MSTORE PUSH1 0x24 PUSH1 0x0 REVERT JUMPDEST PUSH1 0x0 DUP1 REVERT JUMPDEST PUSH3 0x37E DUP2 PUSH3 0x301 JUMP JUMPDEST DUP2 EQ PUSH3 0x38A JUMPI PUSH1 0x0 DUP1 REVERT JUMPDEST POP JUMP JUMPDEST PUSH2 0x26F6 DUP1 PUSH3 0x39D PUSH1 0x0 CODECOPY PUSH1 0x0 RETURN INVALID PUSH1 0x80 PUSH1 0x40 MSTORE PUSH1 0x4 CALLDATASIZE LT PUSH2 0x20F JUMPI PUSH1 0x0 CALLDATALOAD PUSH1 0xE0 SHR DUP1 PUSH4 0x67B48C91 GT PUSH2 0x118 JUMPI DUP1 PUSH4 0xCBFF4617 GT PUSH2 0xA0 JUMPI DUP1 PUSH4 0xEE620868 GT PUSH2 0x6F JUMPI DUP1 PUSH4 0xEE620868 EQ PUSH2 0x78E JUMPI DUP1 PUSH4 0xEEE05F5E EQ PUSH2 0x7B9 JUMPI DUP1 PUSH4 0xF7523C52 EQ PUSH2 0x7E4 JUMPI DUP1 PUSH4 0xFBBB4589 EQ PUSH2 0x821 JUMPI DUP1 PUSH4 0xFC361443 EQ PUSH2 0x84C JUMPI PUSH2 0x20F JUMP JUMPDEST DUP1 PUSH4 0xCBFF4617 EQ PUSH2 0x6D0 JUMPI DUP1 PUSH4 0xD82EDDF2 EQ PUSH2 0x6FB JUMPI DUP1 PUSH4 0xEE467678 EQ PUSH2 0x726 JUMPI DUP1 PUSH4 0xEE546A51 EQ PUSH2 0x751 JUMPI PUSH2 0x20F JUMP JUMPDEST DUP1 PUSH4 0x71CD58F9 GT PUSH2 0xE7 JUMPI DUP1 PUSH4 0x71CD58F9 EQ PUSH2 0x5FD JUMPI DUP1 PUSH4 0x93F7B711 EQ PUSH2 0x628 JUMPI DUP1 PUSH4 0x9B19251A EQ PUSH2 0x653 JUMPI DUP1 PUSH4 0xBCD323CB EQ PUSH2 0x67C JUMPI DUP1 PUSH4 0xC079D7F6 EQ PUSH2 0x6A5 JUMPI PUSH2 0x20F JUMP JUMPDEST DUP1 PUSH4 0x67B48C91 EQ PUSH2 0x553 JUMPI DUP1 PUSH4 0x67E927A8 EQ PUSH2 0x57E JUMPI DUP1 PUSH4 0x6E05C1B9 EQ PUSH2 0x5A7 JUMPI DUP1 PUSH4 0x6F10E285 EQ PUSH2 0x5D2 JUMPI PUSH2 0x20F JUMP JUMPDEST DUP1 PUSH4 0x29982A32 GT PUSH2 0x19B JUMPI DUP1 PUSH4 0x3C6EB17A GT PUSH2 0x16A JUMPI DUP1 PUSH4 0x3C6EB17A EQ PUSH2 0x47B JUMPI DUP1 PUSH4 0x43D32E9C EQ PUSH2 0x4A6 JUMPI DUP1 PUSH4 0x63D03361 EQ PUSH2 0x4D1 JUMPI DUP1 PUSH4 0x64CE07D8 EQ PUSH2 0x4ED JUMPI DUP1 PUSH4 0x65819F7E EQ PUSH2 0x52A JUMPI PUSH2 0x20F JUMP JUMPDEST DUP1 PUSH4 0x29982A32 EQ PUSH2 0x3BD JUMPI DUP1 PUSH4 0x2A9F0FB1 EQ PUSH2 0x3E8 JUMPI DUP1 PUSH4 0x308CDB88 EQ PUSH2 0x425 JUMPI DUP1 PUSH4 0x35453307 EQ PUSH2 0x450 JUMPI PUSH2 0x20F JUMP JUMPDEST DUP1 PUSH4 0x1514C976 GT PUSH2 0x1E2 JUMPI DUP1 PUSH4 0x1514C976 EQ PUSH2 0x2D3 JUMPI DUP1 PUSH4 0x164C8501 EQ PUSH2 0x310 JUMPI DUP1 PUSH4 0x1A30E872 EQ PUSH2 0x339 JUMPI DUP1 PUSH4 0x1BC9CC45 EQ PUSH2 0x376 JUMPI DUP1 PUSH4 0x1F564A06 EQ PUSH2 0x392 JUMPI PUSH2 0x20F JUMP JUMPDEST DUP1 PUSH4 0x47729B0 EQ PUSH2 0x214 JUMPI DUP1 PUSH4 0xCCAF04F EQ PUSH2 0x23F JUMPI DUP1 PUSH4 0xF65DE3E EQ PUSH2 0x26A JUMPI DUP1 PUSH4 0x12B2ED94 EQ PUSH2 0x295 JUMPI JUMPDEST PUSH1 0x0 DUP1 REVERT JUMPDEST CALLVALUE DUP1 ISZERO PUSH2 0x220 JUMPI PUSH1 0x0 DUP1 REVERT JUMPDEST POP PUSH2 0x229 PUSH2 0x875 JUMP JUMPDEST PUSH1 0x40 MLOAD PUSH2 0x236 SWAP2 SWAP1 PUSH2 0x2127 JUMP JUMPDEST PUSH1 0x40 MLOAD DUP1 SWAP2 SUB SWAP1 RETURN JUMPDEST CALLVALUE DUP1 ISZERO PUSH2 0x24B JUMPI PUSH1 0x0 DUP1 REVERT JUMPDEST POP PUSH2 0x254 PUSH2 0x89B JUMP JUMPDEST PUSH1 0x40 MLOAD PUSH2 0x261 SWAP2 SWAP1 PUSH2 0x2298 JUMP JUMPDEST PUSH1 0x40 MLOAD DUP1 SWAP2 SUB SWAP1 RETURN JUMPDEST CALLVALUE DUP1 ISZERO PUSH2 0x276 JUMPI PUSH1 0x0 DUP1 REVERT JUMPDEST POP PUSH2 0x27F PUSH2 0x9F5 JUMP JUMPDEST PUSH1 0x40 MLOAD PUSH2 0x28C SWAP2 SWAP1 PUSH2 0x2298 JUMP JUMPDEST PUSH1 0x40 MLOAD DUP1 SWAP2 SUB SWAP1 RETURN JUMPDEST CALLVALUE DUP1 ISZERO PUSH2 0x2A1 JUMPI PUSH1 0x0 DUP1 REVERT JUMPDEST POP PUSH2 0x2BC PUSH1 0x4 DUP1 CALLDATASIZE SUB DUP2 ADD SWAP1 PUSH2 0x2B7 SWAP2 SWAP1 PUSH2 0x1EE5 JUMP JUMPDEST PUSH2 0x9FA JUMP JUMPDEST PUSH1 0x40 MLOAD PUSH2 0x2CA SWAP3 SWAP2 SWAP1 PUSH2 0x22B3 JUMP JUMPDEST PUSH1 0x40 MLOAD DUP1 SWAP2 SUB SWAP1 RETURN JUMPDEST CALLVALUE DUP1 ISZERO PUSH2 0x2DF JUMPI PUSH1 0x0 DUP1 REVERT JUMPDEST POP PUSH2 0x2FA PUSH1 0x4 DUP1 CALLDATASIZE SUB DUP2 ADD SWAP1 PUSH2 0x2F5 SWAP2 SWAP1 PUSH2 0x1F7F JUMP JUMPDEST PUSH2 0xA1E JUMP JUMPDEST PUSH1 0x40 MLOAD PUSH2 0x307 SWAP2 SWAP1 PUSH2 0x2298 JUMP JUMPDEST PUSH1 0x40 MLOAD DUP1 SWAP2 SUB SWAP1 RETURN JUMPDEST CALLVALUE DUP1 ISZERO PUSH2 0x31C JUMPI PUSH1 0x0 DUP1 REVERT JUMPDEST POP PUSH2 0x337 PUSH1 0x4 DUP1 CALLDATASIZE SUB DUP2 ADD SWAP1 PUSH2 0x332 SWAP2 SWAP1 PUSH2 0x1F7F JUMP JUMPDEST PUSH2 0xA36 JUMP JUMPDEST STOP JUMPDEST CALLVALUE DUP1 ISZERO PUSH2 0x345 JUMPI PUSH1 0x0 DUP1 REVERT JUMPDEST POP PUSH2 0x360 PUSH1 0x4 DUP1 CALLDATASIZE SUB DUP2 ADD SWAP1 PUSH2 0x35B SWAP2 SWAP1 PUSH2 0x1F7F JUMP JUMPDEST PUSH2 0xBB4 JUMP JUMPDEST PUSH1 0x40 MLOAD PUSH2 0x36D SWAP2 SWAP1 PUSH2 0x2298 JUMP JUMPDEST PUSH1 0x40 MLOAD DUP1 SWAP2 SUB SWAP1 RETURN JUMPDEST PUSH2 0x390 PUSH1 0x4 DUP1 CALLDATASIZE SUB DUP2 ADD SWAP1 PUSH2 0x38B SWAP2 SWAP1 PUSH2 0x1F7F JUMP JUMPDEST PUSH2 0xBCC JUMP JUMPDEST STOP JUMPDEST CALLVALUE DUP1 ISZERO PUSH2 0x39E JUMPI PUSH1 0x0 DUP1 REVERT JUMPDEST POP PUSH2 0x3A7 PUSH2 0xD64 JUMP JUMPDEST PUSH1 0x40 MLOAD PUSH2 0x3B4 SWAP2 SWAP1 PUSH2 0x2298 JUMP JUMPDEST PUSH1 0x40 MLOAD DUP1 SWAP2 SUB SWAP1 RETURN JUMPDEST CALLVALUE DUP1 ISZERO PUSH2 0x3C9 JUMPI PUSH1 0x0 DUP1 REVERT JUMPDEST POP PUSH2 0x3D2 PUSH2 0xE16 JUMP JUMPDEST PUSH1 0x40 MLOAD PUSH2 0x3DF SWAP2 SWAP1 PUSH2 0x2127 JUMP JUMPDEST PUSH1 0x40 MLOAD DUP1 SWAP2 SUB SWAP1 RETURN JUMPDEST CALLVALUE DUP1 ISZERO PUSH2 0x3F4 JUMPI PUSH1 0x0 DUP1 REVERT JUMPDEST POP PUSH2 0x40F PUSH1 0x4 DUP1 CALLDATASIZE SUB DUP2 ADD SWAP1 PUSH2 0x40A SWAP2 SWAP1 PUSH2 0x1F7F JUMP JUMPDEST PUSH2 0xE3C JUMP JUMPDEST PUSH1 0x40 MLOAD PUSH2 0x41C SWAP2 SWAP1 PUSH2 0x2298 JUMP JUMPDEST PUSH1 0x40 MLOAD DUP1 SWAP2 SUB SWAP1 RETURN JUMPDEST CALLVALUE DUP1 ISZERO PUSH2 0x431 JUMPI PUSH1 0x0 DUP1 REVERT JUMPDEST POP PUSH2 0x43A PUSH2 0xE54 JUMP JUMPDEST PUSH1 0x40 MLOAD PUSH2 0x447 SWAP2 SWAP1 PUSH2 0x2298 JUMP JUMPDEST PUSH1 0x40 MLOAD DUP1 SWAP2 SUB SWAP1 RETURN JUMPDEST CALLVALUE DUP1 ISZERO PUSH2 0x45C JUMPI PUSH1 0x0 DUP1 REVERT JUMPDEST POP PUSH2 0x465 PUSH2 0xF72 JUMP JUMPDEST PUSH1 0x40 MLOAD PUSH2 0x472 SWAP2 SWAP1 PUSH2 0x2298 JUMP JUMPDEST PUSH1 0x40 MLOAD DUP1 SWAP2 SUB SWAP1 RETURN JUMPDEST CALLVALUE DUP1 ISZERO PUSH2 0x487 JUMPI PUSH1 0x0 DUP1 REVERT JUMPDEST POP PUSH2 0x490 PUSH2 0xF78 JUMP JUMPDEST PUSH1 0x40 MLOAD PUSH2 0x49D SWAP2 SWAP1 PUSH2 0x2298 JUMP JUMPDEST PUSH1 0x40 MLOAD DUP1 SWAP2 SUB SWAP1 RETURN JUMPDEST CALLVALUE DUP1 ISZERO PUSH2 0x4B2 JUMPI PUSH1 0x0 DUP1 REVERT JUMPDEST POP PUSH2 0x4BB PUSH2 0xF7E JUMP JUMPDEST PUSH1 0x40 MLOAD PUSH2 0x4C8 SWAP2 SWAP1 PUSH2 0x2298 JUMP JUMPDEST PUSH1 0x40 MLOAD DUP1 SWAP2 SUB SWAP1 RETURN JUMPDEST PUSH2 0x4EB PUSH1 0x4 DUP1 CALLDATASIZE SUB DUP2 ADD SWAP1 PUSH2 0x4E6 SWAP2 SWAP1 PUSH2 0x1FD9 JUMP JUMPDEST PUSH2 0x109C JUMP JUMPDEST STOP JUMPDEST CALLVALUE DUP1 ISZERO PUSH2 0x4F9 JUMPI PUSH1 0x0 DUP1 REVERT JUMPDEST POP PUSH2 0x514 PUSH1 0x4 DUP1 CALLDATASIZE SUB DUP2 ADD SWAP1 PUSH2 0x50F SWAP2 SWAP1 PUSH2 0x1FD9 JUMP JUMPDEST PUSH2 0x1392 JUMP JUMPDEST PUSH1 0x40 MLOAD PUSH2 0x521 SWAP2 SWAP1 PUSH2 0x2298 JUMP JUMPDEST PUSH1 0x40 MLOAD DUP1 SWAP2 SUB SWAP1 RETURN JUMPDEST CALLVALUE DUP1 ISZERO PUSH2 0x536 JUMPI PUSH1 0x0 DUP1 REVERT JUMPDEST POP PUSH2 0x551 PUSH1 0x4 DUP1 CALLDATASIZE SUB DUP2 ADD SWAP1 PUSH2 0x54C SWAP2 SWAP1 PUSH2 0x1F7F JUMP JUMPDEST PUSH2 0x13D3 JUMP JUMPDEST STOP JUMPDEST CALLVALUE DUP1 ISZERO PUSH2 0x55F JUMPI PUSH1 0x0 DUP1 REVERT JUMPDEST POP PUSH2 0x568 PUSH2 0x16E1 JUMP JUMPDEST PUSH1 0x40 MLOAD PUSH2 0x575 SWAP2 SWAP1 PUSH2 0x2298 JUMP JUMPDEST PUSH1 0x40 MLOAD DUP1 SWAP2 SUB SWAP1 RETURN JUMPDEST CALLVALUE DUP1 ISZERO PUSH2 0x58A JUMPI PUSH1 0x0 DUP1 REVERT JUMPDEST POP PUSH2 0x5A5 PUSH1 0x4 DUP1 CALLDATASIZE SUB DUP2 ADD SWAP1 PUSH2 0x5A0 SWAP2 SWAP1 PUSH2 0x1F7F JUMP JUMPDEST PUSH2 0x16E7 JUMP JUMPDEST STOP JUMPDEST CALLVALUE DUP1 ISZERO PUSH2 0x5B3 JUMPI PUSH1 0x0 DUP1 REVERT JUMPDEST POP PUSH2 0x5BC PUSH2 0x1798 JUMP JUMPDEST PUSH1 0x40 MLOAD PUSH2 0x5C9 SWAP2 SWAP1 PUSH2 0x21A2 JUMP JUMPDEST PUSH1 0x40 MLOAD DUP1 SWAP2 SUB SWAP1 RETURN JUMPDEST CALLVALUE DUP1 ISZERO PUSH2 0x5DE JUMPI PUSH1 0x0 DUP1 REVERT JUMPDEST POP PUSH2 0x5E7 PUSH2 0x17BE JUMP JUMPDEST PUSH1 0x40 MLOAD PUSH2 0x5F4 SWAP2 SWAP1 PUSH2 0x21BD JUMP JUMPDEST PUSH1 0x40 MLOAD DUP1 SWAP2 SUB SWAP1 RETURN JUMPDEST CALLVALUE DUP1 ISZERO PUSH2 0x609 JUMPI PUSH1 0x0 DUP1 REVERT JUMPDEST POP PUSH2 0x612 PUSH2 0x17D1 JUMP JUMPDEST PUSH1 0x40 MLOAD PUSH2 0x61F SWAP2 SWAP1 PUSH2 0x2298 JUMP JUMPDEST PUSH1 0x40 MLOAD DUP1 SWAP2 SUB SWAP1 RETURN JUMPDEST CALLVALUE DUP1 ISZERO PUSH2 0x634 JUMPI PUSH1 0x0 DUP1 REVERT JUMPDEST POP PUSH2 0x63D PUSH2 0x1888 JUMP JUMPDEST PUSH1 0x40 MLOAD PUSH2 0x64A SWAP2 SWAP1 PUSH2 0x2298 JUMP JUMPDEST PUSH1 0x40 MLOAD DUP1 SWAP2 SUB SWAP1 RETURN JUMPDEST CALLVALUE DUP1 ISZERO PUSH2 0x65F JUMPI PUSH1 0x0 DUP1 REVERT JUMPDEST POP PUSH2 0x67A PUSH1 0x4 DUP1 CALLDATASIZE SUB DUP2 ADD SWAP1 PUSH2 0x675 SWAP2 SWAP1 PUSH2 0x1EE5 JUMP JUMPDEST PUSH2 0x19E2 JUMP JUMPDEST STOP JUMPDEST CALLVALUE DUP1 ISZERO PUSH2 0x688 JUMPI PUSH1 0x0 DUP1 REVERT JUMPDEST POP PUSH2 0x6A3 PUSH1 0x4 DUP1 CALLDATASIZE SUB DUP2 ADD SWAP1 PUSH2 0x69E SWAP2 SWAP1 PUSH2 0x1EE5 JUMP JUMPDEST PUSH2 0x19E5 JUMP JUMPDEST STOP JUMPDEST CALLVALUE DUP1 ISZERO PUSH2 0x6B1 JUMPI PUSH1 0x0 DUP1 REVERT JUMPDEST POP PUSH2 0x6BA PUSH2 0x1AE3 JUMP JUMPDEST PUSH1 0x40 MLOAD PUSH2 0x6C7 SWAP2 SWAP1 PUSH2 0x2127 JUMP JUMPDEST PUSH1 0x40 MLOAD DUP1 SWAP2 SUB SWAP1 RETURN JUMPDEST CALLVALUE DUP1 ISZERO PUSH2 0x6DC JUMPI PUSH1 0x0 DUP1 REVERT JUMPDEST POP PUSH2 0x6E5 PUSH2 0x1B09 JUMP JUMPDEST PUSH1 0x40 MLOAD PUSH2 0x6F2 SWAP2 SWAP1 PUSH2 0x2298 JUMP JUMPDEST PUSH1 0x40 MLOAD DUP1 SWAP2 SUB SWAP1 RETURN JUMPDEST CALLVALUE DUP1 ISZERO PUSH2 0x707 JUMPI PUSH1 0x0 DUP1 REVERT JUMPDEST POP PUSH2 0x710 PUSH2 0x1B0F JUMP JUMPDEST PUSH1 0x40 MLOAD PUSH2 0x71D SWAP2 SWAP1 PUSH2 0x2298 JUMP JUMPDEST PUSH1 0x40 MLOAD DUP1 SWAP2 SUB SWAP1 RETURN JUMPDEST CALLVALUE DUP1 ISZERO PUSH2 0x732 JUMPI PUSH1 0x0 DUP1 REVERT JUMPDEST POP PUSH2 0x73B PUSH2 0x1B72 JUMP JUMPDEST PUSH1 0x40 MLOAD PUSH2 0x748 SWAP2 SWAP1 PUSH2 0x21A2 JUMP JUMPDEST PUSH1 0x40 MLOAD DUP1 SWAP2 SUB SWAP1 RETURN JUMPDEST CALLVALUE DUP1 ISZERO PUSH2 0x75D JUMPI PUSH1 0x0 DUP1 REVERT JUMPDEST POP PUSH2 0x778 PUSH1 0x4 DUP1 CALLDATASIZE SUB DUP2 ADD SWAP1 PUSH2 0x773 SWAP2 SWAP1 PUSH2 0x1F12 JUMP JUMPDEST PUSH2 0x1B98 JUMP JUMPDEST PUSH1 0x40 MLOAD PUSH2 0x785 SWAP2 SWAP1 PUSH2 0x2298 JUMP JUMPDEST PUSH1 0x40 MLOAD DUP1 SWAP2 SUB SWAP1 RETURN JUMPDEST CALLVALUE DUP1 ISZERO PUSH2 0x79A JUMPI PUSH1 0x0 DUP1 REVERT JUMPDEST POP PUSH2 0x7A3 PUSH2 0x1C2B JUMP JUMPDEST PUSH1 0x40 MLOAD PUSH2 0x7B0 SWAP2 SWAP1 PUSH2 0x2298 JUMP JUMPDEST PUSH1 0x40 MLOAD DUP1 SWAP2 SUB SWAP1 RETURN JUMPDEST CALLVALUE DUP1 ISZERO PUSH2 0x7C5 JUMPI PUSH1 0x0 DUP1 REVERT JUMPDEST POP PUSH2 0x7CE PUSH2 0x1C31 JUMP JUMPDEST PUSH1 0x40 MLOAD PUSH2 0x7DB SWAP2 SWAP1 PUSH2 0x2127 JUMP JUMPDEST PUSH1 0x40 MLOAD DUP1 SWAP2 SUB SWAP1 RETURN JUMPDEST CALLVALUE DUP1 ISZERO PUSH2 0x7F0 JUMPI PUSH1 0x0 DUP1 REVERT JUMPDEST POP PUSH2 0x80B PUSH1 0x4 DUP1 CALLDATASIZE SUB DUP2 ADD SWAP1 PUSH2 0x806 SWAP2 SWAP1 PUSH2 0x1FD9 JUMP JUMPDEST PUSH2 0x1C57 JUMP JUMPDEST PUSH1 0x40 MLOAD PUSH2 0x818 SWAP2 SWAP1 PUSH2 0x2298 JUMP JUMPDEST PUSH1 0x40 MLOAD DUP1 SWAP2 SUB SWAP1 RETURN JUMPDEST CALLVALUE DUP1 ISZERO PUSH2 0x82D JUMPI PUSH1 0x0 DUP1 REVERT JUMPDEST POP PUSH2 0x836 PUSH2 0x1CA0 JUMP JUMPDEST PUSH1 0x40 MLOAD PUSH2 0x843 SWAP2 SWAP1 PUSH2 0x2127 JUMP JUMPDEST PUSH1 0x40 MLOAD DUP1 SWAP2 SUB SWAP1 RETURN JUMPDEST CALLVALUE DUP1 ISZERO PUSH2 0x858 JUMPI PUSH1 0x0 DUP1 REVERT JUMPDEST POP PUSH2 0x873 PUSH1 0x4 DUP1 CALLDATASIZE SUB DUP2 ADD SWAP1 PUSH2 0x86E SWAP2 SWAP1 PUSH2 0x1F7F JUMP JUMPDEST PUSH2 0x1CC6 JUMP JUMPDEST STOP JUMPDEST PUSH1 0x8 PUSH1 0x0 SWAP1 SLOAD SWAP1 PUSH2 0x100 EXP SWAP1 DIV PUSH20 0xFFFFFFFFFFFFFFFFFFFFFFFFFFFFFFFFFFFFFFFF AND DUP2 JUMP JUMPDEST PUSH1 0x0 DUP1 PUSH1 0x0 DUP1 PUSH3 0x15180 PUSH1 0xC SLOAD PUSH2 0x8B2 SWAP2 SWAP1 PUSH2 0x2343 JUMP JUMPDEST SWAP1 POP PUSH1 0x0 PUSH3 0x15180 PUSH1 0xB SLOAD TIMESTAMP PUSH2 0x8C8 SWAP2 SWAP1 PUSH2 0x23CE JUMP JUMPDEST PUSH2 0x8D2 SWAP2 SWAP1 PUSH2 0x2343 JUMP JUMPDEST SWAP1 POP PUSH1 0x0 DUP1 DUP3 EQ ISZERO PUSH2 0x8F9 JUMPI PUSH1 0x16 PUSH1 0x0 DUP1 DUP2 MSTORE PUSH1 0x20 ADD SWAP1 DUP2 MSTORE PUSH1 0x20 ADD PUSH1 0x0 KECCAK256 SLOAD SWAP4 POP PUSH2 0x945 JUMP JUMPDEST DUP3 DUP3 PUSH2 0x905 SWAP2 SWAP1 PUSH2 0x23CE JUMP JUMPDEST SWAP1 POP JUMPDEST DUP2 DUP2 LT ISZERO PUSH2 0x944 JUMPI PUSH1 0x16 PUSH1 0x0 DUP3 DUP2 MSTORE PUSH1 0x20 ADD SWAP1 DUP2 MSTORE PUSH1 0x20 ADD PUSH1 0x0 KECCAK256 SLOAD DUP5 PUSH2 0x92F SWAP2 SWAP1 PUSH2 0x22ED JUMP JUMPDEST SWAP4 POP DUP1 DUP1 PUSH2 0x93C SWAP1 PUSH2 0x248D JUMP JUMPDEST SWAP2 POP POP PUSH2 0x908 JUMP JUMPDEST JUMPDEST PUSH2 0x9CC ADDRESS PUSH20 0xFFFFFFFFFFFFFFFFFFFFFFFFFFFFFFFFFFFFFFFF AND PUSH4 0xD82EDDF2 PUSH1 0x40 MLOAD DUP2 PUSH4 0xFFFFFFFF AND PUSH1 0xE0 SHL DUP2 MSTORE PUSH1 0x4 ADD PUSH1 0x20 PUSH1 0x40 MLOAD DUP1 DUP4 SUB DUP2 DUP7 DUP1 EXTCODESIZE ISZERO DUP1 ISZERO PUSH2 0x98E JUMPI PUSH1 0x0 DUP1 REVERT JUMPDEST POP GAS STATICCALL ISZERO DUP1 ISZERO PUSH2 0x9A2 JUMPI RETURNDATASIZE PUSH1 0x0 DUP1 RETURNDATACOPY RETURNDATASIZE PUSH1 0x0 REVERT JUMPDEST POP POP POP POP PUSH1 0x40 MLOAD RETURNDATASIZE PUSH1 0x1F NOT PUSH1 0x1F DUP3 ADD AND DUP3 ADD DUP1 PUSH1 0x40 MSTORE POP DUP2 ADD SWAP1 PUSH2 0x9C6 SWAP2 SWAP1 PUSH2 0x1FAC JUMP JUMPDEST DUP6 PUSH2 0x1392 JUMP JUMPDEST SWAP5 POP PUSH8 0x429D069189E0000 DUP6 GT ISZERO PUSH2 0x9EA JUMPI PUSH8 0x429D069189E0000 SWAP5 POP JUMPDEST DUP5 SWAP6 POP POP POP POP POP POP SWAP1 JUMP JUMPDEST PUSH1 0x0 SWAP1 JUMP JUMPDEST PUSH1 0x17 PUSH1 0x20 MSTORE DUP1 PUSH1 0x0 MSTORE PUSH1 0x40 PUSH1 0x0 KECCAK256 PUSH1 0x0 SWAP2 POP SWAP1 POP DUP1 PUSH1 0x0 ADD SLOAD SWAP1 DUP1 PUSH1 0x1 ADD SLOAD SWAP1 POP DUP3 JUMP JUMPDEST PUSH1 0x15 PUSH1 0x20 MSTORE DUP1 PUSH1 0x0 MSTORE PUSH1 0x40 PUSH1 0x0 KECCAK256 PUSH1 0x0 SWAP2 POP SWAP1 POP SLOAD DUP2 JUMP JUMPDEST PUSH1 0x17 PUSH1 0x0 CALLER PUSH20 0xFFFFFFFFFFFFFFFFFFFFFFFFFFFFFFFFFFFFFFFF AND PUSH20 0xFFFFFFFFFFFFFFFFFFFFFFFFFFFFFFFFFFFFFFFF AND DUP2 MSTORE PUSH1 0x20 ADD SWAP1 DUP2 MSTORE PUSH1 0x20 ADD PUSH1 0x0 KECCAK256 PUSH1 0x1 ADD SLOAD DUP2 LT PUSH2 0xABA JUMPI PUSH1 0x40 MLOAD PUSH32 0x8C379A000000000000000000000000000000000000000000000000000000000 DUP2 MSTORE PUSH1 0x4 ADD PUSH2 0xAB1 SWAP1 PUSH2 0x21D8 JUMP JUMPDEST PUSH1 0x40 MLOAD DUP1 SWAP2 SUB SWAP1 REVERT JUMPDEST DUP1 PUSH1 0x17 PUSH1 0x0 CALLER PUSH20 0xFFFFFFFFFFFFFFFFFFFFFFFFFFFFFFFFFFFFFFFF AND PUSH20 0xFFFFFFFFFFFFFFFFFFFFFFFFFFFFFFFFFFFFFFFF AND DUP2 MSTORE PUSH1 0x20 ADD SWAP1 DUP2 MSTORE PUSH1 0x20 ADD PUSH1 0x0 KECCAK256 PUSH1 0x1 ADD PUSH1 0x0 DUP3 DUP3 SLOAD PUSH2 0xB0C SWAP2 SWAP1 PUSH2 0x23CE JUMP JUMPDEST SWAP3 POP POP DUP2 SWAP1 SSTORE POP PUSH1 0x0 PUSH1 0x17 PUSH1 0x0 CALLER PUSH20 0xFFFFFFFFFFFFFFFFFFFFFFFFFFFFFFFFFFFFFFFF AND PUSH20 0xFFFFFFFFFFFFFFFFFFFFFFFFFFFFFFFFFFFFFFFF AND DUP2 MSTORE PUSH1 0x20 ADD SWAP1 DUP2 MSTORE PUSH1 0x20 ADD PUSH1 0x0 KECCAK256 PUSH1 0x1 ADD SLOAD EQ ISZERO PUSH2 0xBB1 JUMPI PUSH1 0x17 PUSH1 0x0 CALLER PUSH20 0xFFFFFFFFFFFFFFFFFFFFFFFFFFFFFFFFFFFFFFFF AND PUSH20 0xFFFFFFFFFFFFFFFFFFFFFFFFFFFFFFFFFFFFFFFF AND DUP2 MSTORE PUSH1 0x20 ADD SWAP1 DUP2 MSTORE PUSH1 0x20 ADD PUSH1 0x0 KECCAK256 PUSH1 0x0 DUP1 DUP3 ADD PUSH1 0x0 SWAP1 SSTORE PUSH1 0x1 DUP3 ADD PUSH1 0x0 SWAP1 SSTORE POP POP JUMPDEST POP JUMP JUMPDEST PUSH1 0x16 PUSH1 0x20 MSTORE DUP1 PUSH1 0x0 MSTORE PUSH1 0x40 PUSH1 0x0 KECCAK256 PUSH1 0x0 SWAP2 POP SWAP1 POP SLOAD DUP2 JUMP JUMPDEST PUSH1 0x0 PUSH1 0x12 PUSH1 0x0 SWAP1 SLOAD SWAP1 PUSH2 0x100 EXP SWAP1 DIV PUSH20 0xFFFFFFFFFFFFFFFFFFFFFFFFFFFFFFFFFFFFFFFF AND PUSH20 0xFFFFFFFFFFFFFFFFFFFFFFFFFFFFFFFFFFFFFFFF AND PUSH4 0x70A08231 CALLER PUSH1 0x40 MLOAD DUP3 PUSH4 0xFFFFFFFF AND PUSH1 0xE0 SHL DUP2 MSTORE PUSH1 0x4 ADD PUSH2 0xC29 SWAP2 SWAP1 PUSH2 0x2127 JUMP JUMPDEST PUSH1 0x20 PUSH1 0x40 MLOAD DUP1 DUP4 SUB DUP2 DUP7 DUP1 EXTCODESIZE ISZERO DUP1 ISZERO PUSH2 0xC41 JUMPI PUSH1 0x0 DUP1 REVERT JUMPDEST POP GAS STATICCALL ISZERO DUP1 ISZERO PUSH2 0xC55 JUMPI RETURNDATASIZE PUSH1 0x0 DUP1 RETURNDATACOPY RETURNDATASIZE PUSH1 0x0 REVERT JUMPDEST POP POP POP POP PUSH1 0x40 MLOAD RETURNDATASIZE PUSH1 0x1F NOT PUSH1 0x1F DUP3 ADD AND DUP3 ADD DUP1 PUSH1 0x40 MSTORE POP DUP2 ADD SWAP1 PUSH2 0xC79 SWAP2 SWAP1 PUSH2 0x1FAC JUMP JUMPDEST SWAP1 POP DUP2 DUP2 GT PUSH2 0xCBD JUMPI PUSH1 0x40 MLOAD PUSH32 0x8C379A000000000000000000000000000000000000000000000000000000000 DUP2 MSTORE PUSH1 0x4 ADD PUSH2 0xCB4 SWAP1 PUSH2 0x2218 JUMP JUMPDEST PUSH1 0x40 MLOAD DUP1 SWAP2 SUB SWAP1 REVERT JUMPDEST PUSH2 0xCEB PUSH1 0x12 PUSH1 0x0 SWAP1 SLOAD SWAP1 PUSH2 0x100 EXP SWAP1 DIV PUSH20 0xFFFFFFFFFFFFFFFFFFFFFFFFFFFFFFFFFFFFFFFF AND CALLER ADDRESS DUP6 PUSH2 0x1CDE JUMP JUMPDEST PUSH1 0x0 PUSH3 0x15180 PUSH1 0xB SLOAD TIMESTAMP PUSH2 0xCFF SWAP2 SWAP1 PUSH2 0x23CE JUMP JUMPDEST PUSH2 0xD09 SWAP2 SWAP1 PUSH2 0x2343 JUMP JUMPDEST SWAP1 POP DUP3 PUSH1 0x15 PUSH1 0x0 DUP4 DUP2 MSTORE PUSH1 0x20 ADD SWAP1 DUP2 MSTORE PUSH1 0x20 ADD PUSH1 0x0 KECCAK256 PUSH1 0x0 DUP3 DUP3 SLOAD PUSH2 0xD2E SWAP2 SWAP1 PUSH2 0x22ED JUMP JUMPDEST SWAP3 POP POP DUP2 SWAP1 SSTORE POP DUP3 PUSH1 0x16 PUSH1 0x0 DUP4 DUP2 MSTORE PUSH1 0x20 ADD SWAP1 DUP2 MSTORE PUSH1 0x20 ADD PUSH1 0x0 KECCAK256 PUSH1 0x0 DUP3 DUP3 SLOAD PUSH2 0xD58 SWAP2 SWAP1 PUSH2 0x23CE JUMP JUMPDEST SWAP3 POP POP DUP2 SWAP1 SSTORE POP POP POP POP JUMP JUMPDEST PUSH1 0x0 PUSH2 0xE11 PUSH1 0xA SLOAD PUSH1 0x12 PUSH1 0x0 SWAP1 SLOAD SWAP1 PUSH2 0x100 EXP SWAP1 DIV PUSH20 0xFFFFFFFFFFFFFFFFFFFFFFFFFFFFFFFFFFFFFFFF AND PUSH20 0xFFFFFFFFFFFFFFFFFFFFFFFFFFFFFFFFFFFFFFFF AND PUSH4 0x18160DDD PUSH1 0x40 MLOAD DUP2 PUSH4 0xFFFFFFFF AND PUSH1 0xE0 SHL DUP2 MSTORE PUSH1 0x4 ADD PUSH1 0x20 PUSH1 0x40 MLOAD DUP1 DUP4 SUB DUP2 DUP7 DUP1 EXTCODESIZE ISZERO DUP1 ISZERO PUSH2 0xDD4 JUMPI PUSH1 0x0 DUP1 REVERT JUMPDEST POP GAS STATICCALL ISZERO DUP1 ISZERO PUSH2 0xDE8 JUMPI RETURNDATASIZE PUSH1 0x0 DUP1 RETURNDATACOPY RETURNDATASIZE PUSH1 0x0 REVERT JUMPDEST POP POP POP POP PUSH1 0x40 MLOAD RETURNDATASIZE PUSH1 0x1F NOT PUSH1 0x1F DUP3 ADD AND DUP3 ADD DUP1 PUSH1 0x40 MSTORE POP DUP2 ADD SWAP1 PUSH2 0xE0C SWAP2 SWAP1 PUSH2 0x1FAC JUMP JUMPDEST PUSH2 0x1392 JUMP JUMPDEST SWAP1 POP SWAP1 JUMP JUMPDEST PUSH1 0x9 PUSH1 0x0 SWAP1 SLOAD SWAP1 PUSH2 0x100 EXP SWAP1 DIV PUSH20 0xFFFFFFFFFFFFFFFFFFFFFFFFFFFFFFFFFFFFFFFF AND DUP2 JUMP JUMPDEST PUSH1 0x14 PUSH1 0x20 MSTORE DUP1 PUSH1 0x0 MSTORE PUSH1 0x40 PUSH1 0x0 KECCAK256 PUSH1 0x0 SWAP2 POP SWAP1 POP SLOAD DUP2 JUMP JUMPDEST PUSH1 0x0 PUSH2 0xF6D ADDRESS PUSH20 0xFFFFFFFFFFFFFFFFFFFFFFFFFFFFFFFFFFFFFFFF AND PUSH4 0x1F564A06 PUSH1 0x40 MLOAD DUP2 PUSH4 0xFFFFFFFF AND PUSH1 0xE0 SHL DUP2 MSTORE PUSH1 0x4 ADD PUSH1 0x20 PUSH1 0x40 MLOAD DUP1 DUP4 SUB DUP2 DUP7 DUP1 EXTCODESIZE ISZERO DUP1 ISZERO PUSH2 0xE9F JUMPI PUSH1 0x0 DUP1 REVERT JUMPDEST POP GAS STATICCALL ISZERO DUP1 ISZERO PUSH2 0xEB3 JUMPI RETURNDATASIZE PUSH1 0x0 DUP1 RETURNDATACOPY RETURNDATASIZE PUSH1 0x0 REVERT JUMPDEST POP POP POP POP PUSH1 0x40 MLOAD RETURNDATASIZE PUSH1 0x1F NOT PUSH1 0x1F DUP3 ADD AND DUP3 ADD DUP1 PUSH1 0x40 MSTORE POP DUP2 ADD SWAP1 PUSH2 0xED7 SWAP2 SWAP1 PUSH2 0x1FAC JUMP JUMPDEST ADDRESS PUSH20 0xFFFFFFFFFFFFFFFFFFFFFFFFFFFFFFFFFFFFFFFF AND PUSH4 0xCCAF04F PUSH1 0x40 MLOAD DUP2 PUSH4 0xFFFFFFFF AND PUSH1 0xE0 SHL DUP2 MSTORE PUSH1 0x4 ADD PUSH1 0x20 PUSH1 0x40 MLOAD DUP1 DUP4 SUB DUP2 DUP7 DUP1 EXTCODESIZE ISZERO DUP1 ISZERO PUSH2 0xF1D JUMPI PUSH1 0x0 DUP1 REVERT JUMPDEST POP GAS STATICCALL ISZERO DUP1 ISZERO PUSH2 0xF31 JUMPI RETURNDATASIZE PUSH1 0x0 DUP1 RETURNDATACOPY RETURNDATASIZE PUSH1 0x0 REVERT JUMPDEST POP POP POP POP PUSH1 0x40 MLOAD RETURNDATASIZE PUSH1 0x1F NOT PUSH1 0x1F DUP3 ADD AND DUP3 ADD DUP1 PUSH1 0x40 MSTORE POP DUP2 ADD SWAP1 PUSH2 0xF55 SWAP2 SWAP1 PUSH2 0x1FAC JUMP JUMPDEST PUSH8 0xC7D713B49DA0000 PUSH2 0xF68 SWAP2 SWAP1 PUSH2 0x23CE JUMP JUMPDEST PUSH2 0x1C57 JUMP JUMPDEST SWAP1 POP SWAP1 JUMP JUMPDEST PUSH1 0xA SLOAD DUP2 JUMP JUMPDEST PUSH1 0xB SLOAD DUP2 JUMP JUMPDEST PUSH1 0x0 PUSH2 0x1097 ADDRESS PUSH20 0xFFFFFFFFFFFFFFFFFFFFFFFFFFFFFFFFFFFFFFFF AND PUSH4 0x1F564A06 PUSH1 0x40 MLOAD DUP2 PUSH4 0xFFFFFFFF AND PUSH1 0xE0 SHL DUP2 MSTORE PUSH1 0x4 ADD PUSH1 0x20 PUSH1 0x40 MLOAD DUP1 DUP4 SUB DUP2 DUP7 DUP1 EXTCODESIZE ISZERO DUP1 ISZERO PUSH2 0xFC9 JUMPI PUSH1 0x0 DUP1 REVERT JUMPDEST POP GAS STATICCALL ISZERO DUP1 ISZERO PUSH2 0xFDD JUMPI RETURNDATASIZE PUSH1 0x0 DUP1 RETURNDATACOPY RETURNDATASIZE PUSH1 0x0 REVERT JUMPDEST POP POP POP POP PUSH1 0x40 MLOAD RETURNDATASIZE PUSH1 0x1F NOT PUSH1 0x1F DUP3 ADD AND DUP3 ADD DUP1 PUSH1 0x40 MSTORE POP DUP2 ADD SWAP1 PUSH2 0x1001 SWAP2 SWAP1 PUSH2 0x1FAC JUMP JUMPDEST ADDRESS PUSH20 0xFFFFFFFFFFFFFFFFFFFFFFFFFFFFFFFFFFFFFFFF AND PUSH4 0x93F7B711 PUSH1 0x40 MLOAD DUP2 PUSH4 0xFFFFFFFF AND PUSH1 0xE0 SHL DUP2 MSTORE PUSH1 0x4 ADD PUSH1 0x20 PUSH1 0x40 MLOAD DUP1 DUP4 SUB DUP2 DUP7 DUP1 EXTCODESIZE ISZERO DUP1 ISZERO PUSH2 0x1047 JUMPI PUSH1 0x0 DUP1 REVERT JUMPDEST POP GAS STATICCALL ISZERO DUP1 ISZERO PUSH2 0x105B JUMPI RETURNDATASIZE PUSH1 0x0 DUP1 RETURNDATACOPY RETURNDATASIZE PUSH1 0x0 REVERT JUMPDEST POP POP POP POP PUSH1 0x40 MLOAD RETURNDATASIZE PUSH1 0x1F NOT PUSH1 0x1F DUP3 ADD AND DUP3 ADD DUP1 PUSH1 0x40 MSTORE POP DUP2 ADD SWAP1 PUSH2 0x107F SWAP2 SWAP1 PUSH2 0x1FAC JUMP JUMPDEST PUSH8 0x10A741A462780000 PUSH2 0x1092 SWAP2 SWAP1 PUSH2 0x22ED JUMP JUMPDEST PUSH2 0x1C57 JUMP JUMPDEST SWAP1 POP SWAP1 JUMP JUMPDEST PUSH1 0x0 PUSH1 0x12 PUSH1 0x0 SWAP1 SLOAD SWAP1 PUSH2 0x100 EXP SWAP1 DIV PUSH20 0xFFFFFFFFFFFFFFFFFFFFFFFFFFFFFFFFFFFFFFFF AND PUSH20 0xFFFFFFFFFFFFFFFFFFFFFFFFFFFFFFFFFFFFFFFF AND PUSH4 0x70A08231 CALLER PUSH1 0x40 MLOAD DUP3 PUSH4 0xFFFFFFFF AND PUSH1 0xE0 SHL DUP2 MSTORE PUSH1 0x4 ADD PUSH2 0x10F9 SWAP2 SWAP1 PUSH2 0x2127 JUMP JUMPDEST PUSH1 0x20 PUSH1 0x40 MLOAD DUP1 DUP4 SUB DUP2 DUP7 DUP1 EXTCODESIZE ISZERO DUP1 ISZERO PUSH2 0x1111 JUMPI PUSH1 0x0 DUP1 REVERT JUMPDEST POP GAS STATICCALL ISZERO DUP1 ISZERO PUSH2 0x1125 JUMPI RETURNDATASIZE PUSH1 0x0 DUP1 RETURNDATACOPY RETURNDATASIZE PUSH1 0x0 REVERT JUMPDEST POP POP POP POP PUSH1 0x40 MLOAD RETURNDATASIZE PUSH1 0x1F NOT PUSH1 0x1F DUP3 ADD AND DUP3 ADD DUP1 PUSH1 0x40 MSTORE POP DUP2 ADD SWAP1 PUSH2 0x1149 SWAP2 SWAP1 PUSH2 0x1FAC JUMP JUMPDEST SWAP1 POP DUP3 DUP2 GT PUSH2 0x118D JUMPI PUSH1 0x40 MLOAD PUSH32 0x8C379A000000000000000000000000000000000000000000000000000000000 DUP2 MSTORE PUSH1 0x4 ADD PUSH2 0x1184 SWAP1 PUSH2 0x2218 JUMP JUMPDEST PUSH1 0x40 MLOAD DUP1 SWAP2 SUB SWAP1 REVERT JUMPDEST PUSH1 0x13 PUSH1 0x0 SWAP1 SLOAD SWAP1 PUSH2 0x100 EXP SWAP1 DIV PUSH20 0xFFFFFFFFFFFFFFFFFFFFFFFFFFFFFFFFFFFFFFFF AND PUSH20 0xFFFFFFFFFFFFFFFFFFFFFFFFFFFFFFFFFFFFFFFF AND PUSH4 0xA9059CBB CALLER PUSH8 0xDE0B6B3A7640000 PUSH1 0x1 PUSH2 0x11E1 SWAP2 SWAP1 PUSH2 0x2374 JUMP JUMPDEST DUP7 PUSH2 0x11EC SWAP2 SWAP1 PUSH2 0x22ED JUMP JUMPDEST PUSH1 0x40 MLOAD DUP4 PUSH4 0xFFFFFFFF AND PUSH1 0xE0 SHL DUP2 MSTORE PUSH1 0x4 ADD PUSH2 0x1209 SWAP3 SWAP2 SWAP1 PUSH2 0x2179 JUMP JUMPDEST PUSH1 0x20 PUSH1 0x40 MLOAD DUP1 DUP4 SUB DUP2 PUSH1 0x0 DUP8 DUP1 EXTCODESIZE ISZERO DUP1 ISZERO PUSH2 0x1223 JUMPI PUSH1 0x0 DUP1 REVERT JUMPDEST POP GAS CALL ISZERO DUP1 ISZERO PUSH2 0x1237 JUMPI RETURNDATASIZE PUSH1 0x0 DUP1 RETURNDATACOPY RETURNDATASIZE PUSH1 0x0 REVERT JUMPDEST POP POP POP POP PUSH1 0x40 MLOAD RETURNDATASIZE PUSH1 0x1F NOT PUSH1 0x1F DUP3 ADD AND DUP3 ADD DUP1 PUSH1 0x40 MSTORE POP DUP2 ADD SWAP1 PUSH2 0x125B SWAP2 SWAP1 PUSH2 0x1F52 JUMP JUMPDEST POP PUSH2 0x128A PUSH1 0x12 PUSH1 0x0 SWAP1 SLOAD SWAP1 PUSH2 0x100 EXP SWAP1 DIV PUSH20 0xFFFFFFFFFFFFFFFFFFFFFFFFFFFFFFFFFFFFFFFF AND CALLER ADDRESS DUP7 PUSH2 0x1CDE JUMP JUMPDEST PUSH1 0x0 DUP4 ADDRESS PUSH20 0xFFFFFFFFFFFFFFFFFFFFFFFFFFFFFFFFFFFFFFFF AND PUSH4 0x308CDB88 PUSH1 0x40 MLOAD DUP2 PUSH4 0xFFFFFFFF AND PUSH1 0xE0 SHL DUP2 MSTORE PUSH1 0x4 ADD PUSH1 0x20 PUSH1 0x40 MLOAD DUP1 DUP4 SUB DUP2 DUP7 DUP1 EXTCODESIZE ISZERO DUP1 ISZERO PUSH2 0x12D3 JUMPI PUSH1 0x0 DUP1 REVERT JUMPDEST POP GAS STATICCALL ISZERO DUP1 ISZERO PUSH2 0x12E7 JUMPI RETURNDATASIZE PUSH1 0x0 DUP1 RETURNDATACOPY RETURNDATASIZE PUSH1 0x0 REVERT JUMPDEST POP POP POP POP PUSH1 0x40 MLOAD RETURNDATASIZE PUSH1 0x1F NOT PUSH1 0x1F DUP3 ADD AND DUP3 ADD DUP1 PUSH1 0x40 MSTORE POP DUP2 ADD SWAP1 PUSH2 0x130B SWAP2 SWAP1 PUSH2 0x1FAC JUMP JUMPDEST PUSH2 0x1315 SWAP2 SWAP1 PUSH2 0x2374 JUMP JUMPDEST SWAP1 POP PUSH1 0x0 PUSH3 0x15180 PUSH1 0xB SLOAD TIMESTAMP PUSH2 0x132B SWAP2 SWAP1 PUSH2 0x23CE JUMP JUMPDEST PUSH2 0x1335 SWAP2 SWAP1 PUSH2 0x2343 JUMP JUMPDEST SWAP1 POP DUP5 PUSH1 0x15 PUSH1 0x0 DUP4 DUP2 MSTORE PUSH1 0x20 ADD SWAP1 DUP2 MSTORE PUSH1 0x20 ADD PUSH1 0x0 KECCAK256 PUSH1 0x0 DUP3 DUP3 SLOAD PUSH2 0x135A SWAP2 SWAP1 PUSH2 0x22ED JUMP JUMPDEST SWAP3 POP POP DUP2 SWAP1 SSTORE POP DUP5 PUSH1 0x16 PUSH1 0x0 DUP4 DUP2 MSTORE PUSH1 0x20 ADD SWAP1 DUP2 MSTORE PUSH1 0x20 ADD PUSH1 0x0 KECCAK256 PUSH1 0x0 DUP3 DUP3 SLOAD PUSH2 0x1384 SWAP2 SWAP1 PUSH2 0x23CE JUMP JUMPDEST SWAP3 POP POP DUP2 SWAP1 SSTORE POP POP POP POP POP POP JUMP JUMPDEST PUSH1 0x0 DUP1 PUSH2 0x13A7 DUP5 PUSH8 0xDE0B6B3A7640000 PUSH2 0x1DB8 JUMP JUMPDEST SWAP1 POP DUP3 PUSH2 0x13C0 DUP3 PUSH1 0x2 DUP7 PUSH2 0x13BB SWAP2 SWAP1 PUSH2 0x2343 JUMP JUMPDEST PUSH2 0x1E33 JUMP JUMPDEST PUSH2 0x13CA SWAP2 SWAP1 PUSH2 0x2343 JUMP JUMPDEST SWAP2 POP POP SWAP3 SWAP2 POP POP JUMP JUMPDEST PUSH3 0x3D090 DUP2 GT ISZERO PUSH2 0x1419 JUMPI PUSH1 0x40 MLOAD PUSH32 0x8C379A000000000000000000000000000000000000000000000000000000000 DUP2 MSTORE PUSH1 0x4 ADD PUSH2 0x1410 SWAP1 PUSH2 0x2238 JUMP JUMPDEST PUSH1 0x40 MLOAD DUP1 SWAP2 SUB SWAP1 REVERT JUMPDEST PUSH1 0x0 PUSH1 0x13 PUSH1 0x0 SWAP1 SLOAD SWAP1 PUSH2 0x100 EXP SWAP1 DIV PUSH20 0xFFFFFFFFFFFFFFFFFFFFFFFFFFFFFFFFFFFFFFFF AND PUSH20 0xFFFFFFFFFFFFFFFFFFFFFFFFFFFFFFFFFFFFFFFF AND PUSH4 0x70A08231 CALLER PUSH1 0x40 MLOAD DUP3 PUSH4 0xFFFFFFFF AND PUSH1 0xE0 SHL DUP2 MSTORE PUSH1 0x4 ADD PUSH2 0x1476 SWAP2 SWAP1 PUSH2 0x2127 JUMP JUMPDEST PUSH1 0x20 PUSH1 0x40 MLOAD DUP1 DUP4 SUB DUP2 DUP7 DUP1 EXTCODESIZE ISZERO DUP1 ISZERO PUSH2 0x148E JUMPI PUSH1 0x0 DUP1 REVERT JUMPDEST POP GAS STATICCALL ISZERO DUP1 ISZERO PUSH2 0x14A2 JUMPI RETURNDATASIZE PUSH1 0x0 DUP1 RETURNDATACOPY RETURNDATASIZE PUSH1 0x0 REVERT JUMPDEST POP POP POP POP PUSH1 0x40 MLOAD RETURNDATASIZE PUSH1 0x1F NOT PUSH1 0x1F DUP3 ADD AND DUP3 ADD DUP1 PUSH1 0x40 MSTORE POP DUP2 ADD SWAP1 PUSH2 0x14C6 SWAP2 SWAP1 PUSH2 0x1FAC JUMP JUMPDEST SWAP1 POP DUP2 DUP2 GT PUSH2 0x150A JUMPI PUSH1 0x40 MLOAD PUSH32 0x8C379A000000000000000000000000000000000000000000000000000000000 DUP2 MSTORE PUSH1 0x4 ADD PUSH2 0x1501 SWAP1 PUSH2 0x2218 JUMP JUMPDEST PUSH1 0x40 MLOAD DUP1 SWAP2 SUB SWAP1 REVERT JUMPDEST PUSH1 0x0 ADDRESS PUSH20 0xFFFFFFFFFFFFFFFFFFFFFFFFFFFFFFFFFFFFFFFF AND PUSH4 0x43D32E9C PUSH1 0x40 MLOAD DUP2 PUSH4 0xFFFFFFFF AND PUSH1 0xE0 SHL DUP2 MSTORE PUSH1 0x4 ADD PUSH1 0x20 PUSH1 0x40 MLOAD DUP1 DUP4 SUB DUP2 DUP7 DUP1 EXTCODESIZE ISZERO DUP1 ISZERO PUSH2 0x1552 JUMPI PUSH1 0x0 DUP1 REVERT JUMPDEST POP GAS STATICCALL ISZERO DUP1 ISZERO PUSH2 0x1566 JUMPI RETURNDATASIZE PUSH1 0x0 DUP1 RETURNDATACOPY RETURNDATASIZE PUSH1 0x0 REVERT JUMPDEST POP POP POP POP PUSH1 0x40 MLOAD RETURNDATASIZE PUSH1 0x1F NOT PUSH1 0x1F DUP3 ADD AND DUP3 ADD DUP1 PUSH1 0x40 MSTORE POP DUP2 ADD SWAP1 PUSH2 0x158A SWAP2 SWAP1 PUSH2 0x1FAC JUMP JUMPDEST DUP4 PUSH2 0x1595 SWAP2 SWAP1 PUSH2 0x2374 JUMP JUMPDEST SWAP1 POP PUSH2 0x15C5 PUSH1 0x13 PUSH1 0x0 SWAP1 SLOAD SWAP1 PUSH2 0x100 EXP SWAP1 DIV PUSH20 0xFFFFFFFFFFFFFFFFFFFFFFFFFFFFFFFFFFFFFFFF AND CALLER ADDRESS DUP5 PUSH2 0x1CDE JUMP JUMPDEST PUSH1 0x18 PUSH1 0x0 SWAP1 SLOAD SWAP1 PUSH2 0x100 EXP SWAP1 DIV PUSH20 0xFFFFFFFFFFFFFFFFFFFFFFFFFFFFFFFFFFFFFFFF AND PUSH20 0xFFFFFFFFFFFFFFFFFFFFFFFFFFFFFFFFFFFFFFFF AND PUSH4 0x40C10F19 CALLER PUSH8 0xDE0B6B3A7640000 DUP7 PUSH2 0x1618 SWAP2 SWAP1 PUSH2 0x2374 JUMP JUMPDEST PUSH1 0x40 MLOAD DUP4 PUSH4 0xFFFFFFFF AND PUSH1 0xE0 SHL DUP2 MSTORE PUSH1 0x4 ADD PUSH2 0x1635 SWAP3 SWAP2 SWAP1 PUSH2 0x2179 JUMP JUMPDEST PUSH1 0x0 PUSH1 0x40 MLOAD DUP1 DUP4 SUB DUP2 PUSH1 0x0 DUP8 DUP1 EXTCODESIZE ISZERO DUP1 ISZERO PUSH2 0x164F JUMPI PUSH1 0x0 DUP1 REVERT JUMPDEST POP GAS CALL ISZERO DUP1 ISZERO PUSH2 0x1663 JUMPI RETURNDATASIZE PUSH1 0x0 DUP1 RETURNDATACOPY RETURNDATASIZE PUSH1 0x0 REVERT JUMPDEST POP POP POP POP PUSH1 0x0 PUSH3 0x15180 PUSH1 0xB SLOAD TIMESTAMP PUSH2 0x167B SWAP2 SWAP1 PUSH2 0x23CE JUMP JUMPDEST PUSH2 0x1685 SWAP2 SWAP1 PUSH2 0x2343 JUMP JUMPDEST SWAP1 POP DUP4 PUSH1 0x14 PUSH1 0x0 DUP4 DUP2 MSTORE PUSH1 0x20 ADD SWAP1 DUP2 MSTORE PUSH1 0x20 ADD PUSH1 0x0 KECCAK256 PUSH1 0x0 DUP3 DUP3 SLOAD PUSH2 0x16AA SWAP2 SWAP1 PUSH2 0x22ED JUMP JUMPDEST SWAP3 POP POP DUP2 SWAP1 SSTORE POP DUP4 PUSH1 0x16 PUSH1 0x0 DUP4 DUP2 MSTORE PUSH1 0x20 ADD SWAP1 DUP2 MSTORE PUSH1 0x20 ADD PUSH1 0x0 KECCAK256 PUSH1 0x0 DUP3 DUP3 SLOAD PUSH2 0x16D4 SWAP2 SWAP1 PUSH2 0x22ED JUMP JUMPDEST SWAP3 POP POP DUP2 SWAP1 SSTORE POP POP POP POP POP JUMP JUMPDEST PUSH1 0xC SLOAD DUP2 JUMP JUMPDEST PUSH3 0xD2F00 TIMESTAMP PUSH2 0x16F6 SWAP2 SWAP1 PUSH2 0x22ED JUMP JUMPDEST PUSH1 0x17 PUSH1 0x0 CALLER PUSH20 0xFFFFFFFFFFFFFFFFFFFFFFFFFFFFFFFFFFFFFFFF AND PUSH20 0xFFFFFFFFFFFFFFFFFFFFFFFFFFFFFFFFFFFFFFFF AND DUP2 MSTORE PUSH1 0x20 ADD SWAP1 DUP2 MSTORE PUSH1 0x20 ADD PUSH1 0x0 KECCAK256 PUSH1 0x0 ADD DUP2 SWAP1 SSTORE POP DUP1 PUSH1 0x17 PUSH1 0x0 CALLER PUSH20 0xFFFFFFFFFFFFFFFFFFFFFFFFFFFFFFFFFFFFFFFF AND PUSH20 0xFFFFFFFFFFFFFFFFFFFFFFFFFFFFFFFFFFFFFFFF AND DUP2 MSTORE PUSH1 0x20 ADD SWAP1 DUP2 MSTORE PUSH1 0x20 ADD PUSH1 0x0 KECCAK256 PUSH1 0x1 ADD PUSH1 0x0 DUP3 DUP3 SLOAD PUSH2 0x178E SWAP2 SWAP1 PUSH2 0x22ED JUMP JUMPDEST SWAP3 POP POP DUP2 SWAP1 SSTORE POP POP JUMP JUMPDEST PUSH1 0x12 PUSH1 0x0 SWAP1 SLOAD SWAP1 PUSH2 0x100 EXP SWAP1 DIV PUSH20 0xFFFFFFFFFFFFFFFFFFFFFFFFFFFFFFFFFFFFFFFF AND DUP2 JUMP JUMPDEST PUSH1 0x10 PUSH1 0x0 SWAP1 SLOAD SWAP1 PUSH2 0x100 EXP SWAP1 DIV PUSH1 0xF SIGNEXTEND DUP2 JUMP JUMPDEST PUSH1 0x0 DUP1 PUSH1 0x0 DUP1 PUSH3 0x15180 PUSH1 0xC SLOAD PUSH2 0x17E8 SWAP2 SWAP1 PUSH2 0x2343 JUMP JUMPDEST SWAP1 POP PUSH1 0x0 PUSH3 0x15180 PUSH1 0xB SLOAD TIMESTAMP PUSH2 0x17FE SWAP2 SWAP1 PUSH2 0x23CE JUMP JUMPDEST PUSH2 0x1808 SWAP2 SWAP1 PUSH2 0x2343 JUMP JUMPDEST SWAP1 POP PUSH1 0x0 DUP2 EQ ISZERO PUSH2 0x1832 JUMPI PUSH1 0x14 PUSH1 0x0 DUP1 DUP2 MSTORE PUSH1 0x20 ADD SWAP1 DUP2 MSTORE PUSH1 0x20 ADD PUSH1 0x0 KECCAK256 SLOAD SWAP5 POP POP POP POP POP PUSH2 0x1885 JUMP JUMPDEST DUP2 DUP2 PUSH2 0x183E SWAP2 SWAP1 PUSH2 0x23CE JUMP JUMPDEST SWAP3 POP JUMPDEST DUP1 DUP4 LT ISZERO PUSH2 0x187D JUMPI PUSH1 0x14 PUSH1 0x0 DUP5 DUP2 MSTORE PUSH1 0x20 ADD SWAP1 DUP2 MSTORE PUSH1 0x20 ADD PUSH1 0x0 KECCAK256 SLOAD DUP5 PUSH2 0x1868 SWAP2 SWAP1 PUSH2 0x22ED JUMP JUMPDEST SWAP4 POP DUP3 DUP1 PUSH2 0x1875 SWAP1 PUSH2 0x248D JUMP JUMPDEST SWAP4 POP POP PUSH2 0x1841 JUMP JUMPDEST DUP4 SWAP5 POP POP POP POP POP JUMPDEST SWAP1 JUMP JUMPDEST PUSH1 0x0 DUP1 PUSH1 0x0 DUP1 PUSH3 0x15180 PUSH1 0xC SLOAD PUSH2 0x189F SWAP2 SWAP1 PUSH2 0x2343 JUMP JUMPDEST SWAP1 POP PUSH1 0x0 PUSH3 0x15180 PUSH1 0xB SLOAD TIMESTAMP PUSH2 0x18B5 SWAP2 SWAP1 PUSH2 0x23CE JUMP JUMPDEST PUSH2 0x18BF SWAP2 SWAP1 PUSH2 0x2343 JUMP JUMPDEST SWAP1 POP PUSH1 0x0 DUP1 DUP3 EQ ISZERO PUSH2 0x18E6 JUMPI PUSH1 0x16 PUSH1 0x0 DUP1 DUP2 MSTORE PUSH1 0x20 ADD SWAP1 DUP2 MSTORE PUSH1 0x20 ADD PUSH1 0x0 KECCAK256 SLOAD SWAP4 POP PUSH2 0x1932 JUMP JUMPDEST DUP3 DUP3 PUSH2 0x18F2 SWAP2 SWAP1 PUSH2 0x23CE JUMP JUMPDEST SWAP1 POP JUMPDEST DUP2 DUP2 LT ISZERO PUSH2 0x1931 JUMPI PUSH1 0x16 PUSH1 0x0 DUP3 DUP2 MSTORE PUSH1 0x20 ADD SWAP1 DUP2 MSTORE PUSH1 0x20 ADD PUSH1 0x0 KECCAK256 SLOAD DUP5 PUSH2 0x191C SWAP2 SWAP1 PUSH2 0x22ED JUMP JUMPDEST SWAP4 POP DUP1 DUP1 PUSH2 0x1929 SWAP1 PUSH2 0x248D JUMP JUMPDEST SWAP2 POP POP PUSH2 0x18F5 JUMP JUMPDEST JUMPDEST PUSH2 0x19B9 ADDRESS PUSH20 0xFFFFFFFFFFFFFFFFFFFFFFFFFFFFFFFFFFFFFFFF AND PUSH4 0x71CD58F9 PUSH1 0x40 MLOAD DUP2 PUSH4 0xFFFFFFFF AND PUSH1 0xE0 SHL DUP2 MSTORE PUSH1 0x4 ADD PUSH1 0x20 PUSH1 0x40 MLOAD DUP1 DUP4 SUB DUP2 DUP7 DUP1 EXTCODESIZE ISZERO DUP1 ISZERO PUSH2 0x197B JUMPI PUSH1 0x0 DUP1 REVERT JUMPDEST POP GAS STATICCALL ISZERO DUP1 ISZERO PUSH2 0x198F JUMPI RETURNDATASIZE PUSH1 0x0 DUP1 RETURNDATACOPY RETURNDATASIZE PUSH1 0x0 REVERT JUMPDEST POP POP POP POP PUSH1 0x40 MLOAD RETURNDATASIZE PUSH1 0x1F NOT PUSH1 0x1F DUP3 ADD AND DUP3 ADD DUP1 PUSH1 0x40 MSTORE POP DUP2 ADD SWAP1 PUSH2 0x19B3 SWAP2 SWAP1 PUSH2 0x1FAC JUMP JUMPDEST DUP6 PUSH2 0x1392 JUMP JUMPDEST SWAP5 POP PUSH8 0x10A741A462780000 DUP6 GT ISZERO PUSH2 0x19D7 JUMPI PUSH8 0x10A741A462780000 SWAP5 POP JUMPDEST DUP5 SWAP6 POP POP POP POP POP POP SWAP1 JUMP JUMPDEST POP JUMP JUMPDEST PUSH1 0x17 PUSH1 0x0 DUP3 PUSH20 0xFFFFFFFFFFFFFFFFFFFFFFFFFFFFFFFFFFFFFFFF AND PUSH20 0xFFFFFFFFFFFFFFFFFFFFFFFFFFFFFFFFFFFFFFFF AND DUP2 MSTORE PUSH1 0x20 ADD SWAP1 DUP2 MSTORE PUSH1 0x20 ADD PUSH1 0x0 KECCAK256 PUSH1 0x0 ADD SLOAD TIMESTAMP LT ISZERO PUSH2 0x1A6A JUMPI PUSH1 0x40 MLOAD PUSH32 0x8C379A000000000000000000000000000000000000000000000000000000000 DUP2 MSTORE PUSH1 0x4 ADD PUSH2 0x1A61 SWAP1 PUSH2 0x2258 JUMP JUMPDEST PUSH1 0x40 MLOAD DUP1 SWAP2 SUB SWAP1 REVERT JUMPDEST PUSH1 0x0 PUSH1 0x17 PUSH1 0x0 DUP4 PUSH20 0xFFFFFFFFFFFFFFFFFFFFFFFFFFFFFFFFFFFFFFFF AND PUSH20 0xFFFFFFFFFFFFFFFFFFFFFFFFFFFFFFFFFFFFFFFF AND DUP2 MSTORE PUSH1 0x20 ADD SWAP1 DUP2 MSTORE PUSH1 0x20 ADD PUSH1 0x0 KECCAK256 PUSH1 0x1 ADD SLOAD SWAP1 POP PUSH2 0x1ADF PUSH1 0x13 PUSH1 0x0 SWAP1 SLOAD SWAP1 PUSH2 0x100 EXP SWAP1 DIV PUSH20 0xFFFFFFFFFFFFFFFFFFFFFFFFFFFFFFFFFFFFFFFF AND ADDRESS CALLER DUP5 PUSH2 0x1CDE JUMP JUMPDEST POP POP JUMP JUMPDEST PUSH1 0x7 PUSH1 0x0 SWAP1 SLOAD SWAP1 PUSH2 0x100 EXP SWAP1 DIV PUSH20 0xFFFFFFFFFFFFFFFFFFFFFFFFFFFFFFFFFFFFFFFF AND DUP2 JUMP JUMPDEST PUSH1 0x1 SLOAD DUP2 JUMP JUMPDEST PUSH1 0x0 DUP1 PUSH1 0x0 DUP1 PUSH3 0x15180 PUSH1 0xC SLOAD PUSH2 0x1B26 SWAP2 SWAP1 PUSH2 0x2343 JUMP JUMPDEST SWAP1 POP PUSH1 0x0 SWAP2 POP JUMPDEST DUP1 DUP3 LT ISZERO PUSH2 0x1B69 JUMPI PUSH1 0x15 PUSH1 0x0 DUP4 DUP2 MSTORE PUSH1 0x20 ADD SWAP1 DUP2 MSTORE PUSH1 0x20 ADD PUSH1 0x0 KECCAK256 SLOAD DUP4 PUSH2 0x1B54 SWAP2 SWAP1 PUSH2 0x22ED JUMP JUMPDEST SWAP3 POP DUP2 DUP1 PUSH2 0x1B61 SWAP1 PUSH2 0x248D JUMP JUMPDEST SWAP3 POP POP PUSH2 0x1B2D JUMP JUMPDEST DUP3 SWAP4 POP POP POP POP SWAP1 JUMP JUMPDEST PUSH1 0x13 PUSH1 0x0 SWAP1 SLOAD SWAP1 PUSH2 0x100 EXP SWAP1 DIV PUSH20 0xFFFFFFFFFFFFFFFFFFFFFFFFFFFFFFFFFFFFFFFF AND DUP2 JUMP JUMPDEST PUSH1 0x0 DUP3 PUSH20 0xFFFFFFFFFFFFFFFFFFFFFFFFFFFFFFFFFFFFFFFF AND PUSH4 0x70A08231 DUP4 PUSH1 0x40 MLOAD DUP3 PUSH4 0xFFFFFFFF AND PUSH1 0xE0 SHL DUP2 MSTORE PUSH1 0x4 ADD PUSH2 0x1BD3 SWAP2 SWAP1 PUSH2 0x2127 JUMP JUMPDEST PUSH1 0x20 PUSH1 0x40 MLOAD DUP1 DUP4 SUB DUP2 DUP7 DUP1 EXTCODESIZE ISZERO DUP1 ISZERO PUSH2 0x1BEB JUMPI PUSH1 0x0 DUP1 REVERT JUMPDEST POP GAS STATICCALL ISZERO DUP1 ISZERO PUSH2 0x1BFF JUMPI RETURNDATASIZE PUSH1 0x0 DUP1 RETURNDATACOPY RETURNDATASIZE PUSH1 0x0 REVERT JUMPDEST POP POP POP POP PUSH1 0x40 MLOAD RETURNDATASIZE PUSH1 0x1F NOT PUSH1 0x1F DUP3 ADD AND DUP3 ADD DUP1 PUSH1 0x40 MSTORE POP DUP2 ADD SWAP1 PUSH2 0x1C23 SWAP2 SWAP1 PUSH2 0x1FAC JUMP JUMPDEST SWAP1 POP SWAP3 SWAP2 POP POP JUMP JUMPDEST PUSH1 0x0 SLOAD DUP2 JUMP JUMPDEST PUSH1 0x11 PUSH1 0x0 SWAP1 SLOAD SWAP1 PUSH2 0x100 EXP SWAP1 DIV PUSH20 0xFFFFFFFFFFFFFFFFFFFFFFFFFFFFFFFFFFFFFFFF AND DUP2 JUMP JUMPDEST PUSH1 0x0 DUP1 PUSH2 0x1C64 DUP5 DUP5 PUSH2 0x1DB8 JUMP JUMPDEST SWAP1 POP PUSH8 0xDE0B6B3A7640000 PUSH2 0x1C8D DUP3 PUSH1 0x2 PUSH8 0xDE0B6B3A7640000 PUSH2 0x1C88 SWAP2 SWAP1 PUSH2 0x2343 JUMP JUMPDEST PUSH2 0x1E33 JUMP JUMPDEST PUSH2 0x1C97 SWAP2 SWAP1 PUSH2 0x2343 JUMP JUMPDEST SWAP2 POP POP SWAP3 SWAP2 POP POP JUMP JUMPDEST PUSH1 0x6 PUSH1 0x0 SWAP1 SLOAD SWAP1 PUSH2 0x100 EXP SWAP1 DIV PUSH20 0xFFFFFFFFFFFFFFFFFFFFFFFFFFFFFFFFFFFFFFFF AND DUP2 JUMP JUMPDEST PUSH3 0x15180 DUP2 PUSH2 0x1CD5 SWAP2 SWAP1 PUSH2 0x2374 JUMP JUMPDEST PUSH1 0xC DUP2 SWAP1 SSTORE POP POP JUMP JUMPDEST PUSH1 0x0 DUP5 PUSH20 0xFFFFFFFFFFFFFFFFFFFFFFFFFFFFFFFFFFFFFFFF AND PUSH4 0x23B872DD DUP6 DUP6 DUP6 PUSH1 0x40 MLOAD DUP5 PUSH4 0xFFFFFFFF AND PUSH1 0xE0 SHL DUP2 MSTORE PUSH1 0x4 ADD PUSH2 0x1D1D SWAP4 SWAP3 SWAP2 SWAP1 PUSH2 0x2142 JUMP JUMPDEST PUSH1 0x20 PUSH1 0x40 MLOAD DUP1 DUP4 SUB DUP2 PUSH1 0x0 DUP8 DUP1 EXTCODESIZE ISZERO DUP1 ISZERO PUSH2 0x1D37 JUMPI PUSH1 0x0 DUP1 REVERT JUMPDEST POP GAS CALL ISZERO DUP1 ISZERO PUSH2 0x1D4B JUMPI RETURNDATASIZE PUSH1 0x0 DUP1 RETURNDATACOPY RETURNDATASIZE PUSH1 0x0 REVERT JUMPDEST POP POP POP POP PUSH1 0x40 MLOAD RETURNDATASIZE PUSH1 0x1F NOT PUSH1 0x1F DUP3 ADD AND DUP3 ADD DUP1 PUSH1 0x40 MSTORE POP DUP2 ADD SWAP1 PUSH2 0x1D6F SWAP2 SWAP1 PUSH2 0x1F52 JUMP JUMPDEST SWAP1 POP DUP1 PUSH2 0x1DB1 JUMPI PUSH1 0x40 MLOAD PUSH32 0x8C379A000000000000000000000000000000000000000000000000000000000 DUP2 MSTORE PUSH1 0x4 ADD PUSH2 0x1DA8 SWAP1 PUSH2 0x21F8 JUMP JUMPDEST PUSH1 0x40 MLOAD DUP1 SWAP2 SUB SWAP1 REVERT JUMPDEST POP POP POP POP POP JUMP JUMPDEST PUSH1 0x0 DUP1 DUP4 EQ ISZERO PUSH2 0x1DCB JUMPI PUSH1 0x0 SWAP1 POP PUSH2 0x1E2D JUMP JUMPDEST PUSH1 0x0 DUP3 DUP5 PUSH2 0x1DD9 SWAP2 SWAP1 PUSH2 0x2374 JUMP JUMPDEST SWAP1 POP DUP3 DUP5 DUP3 PUSH2 0x1DE8 SWAP2 SWAP1 PUSH2 0x2343 JUMP JUMPDEST EQ PUSH2 0x1E28 JUMPI PUSH1 0x40 MLOAD PUSH32 0x8C379A000000000000000000000000000000000000000000000000000000000 DUP2 MSTORE PUSH1 0x4 ADD PUSH2 0x1E1F SWAP1 PUSH2 0x2278 JUMP JUMPDEST PUSH1 0x40 MLOAD DUP1 SWAP2 SUB SWAP1 REVERT JUMPDEST DUP1 SWAP2 POP POP JUMPDEST SWAP3 SWAP2 POP POP JUMP JUMPDEST PUSH1 0x0 DUP1 DUP3 DUP5 PUSH2 0x1E42 SWAP2 SWAP1 PUSH2 0x22ED JUMP JUMPDEST SWAP1 POP DUP4 DUP2 LT ISZERO PUSH2 0x1E87 JUMPI PUSH1 0x40 MLOAD PUSH32 0x8C379A000000000000000000000000000000000000000000000000000000000 DUP2 MSTORE PUSH1 0x4 ADD PUSH2 0x1E7E SWAP1 PUSH2 0x2278 JUMP JUMPDEST PUSH1 0x40 MLOAD DUP1 SWAP2 SUB SWAP1 REVERT JUMPDEST DUP1 SWAP2 POP POP SWAP3 SWAP2 POP POP JUMP JUMPDEST PUSH1 0x0 DUP2 CALLDATALOAD SWAP1 POP PUSH2 0x1EA0 DUP2 PUSH2 0x267B JUMP JUMPDEST SWAP3 SWAP2 POP POP JUMP JUMPDEST PUSH1 0x0 DUP2 MLOAD SWAP1 POP PUSH2 0x1EB5 DUP2 PUSH2 0x2692 JUMP JUMPDEST SWAP3 SWAP2 POP POP JUMP JUMPDEST PUSH1 0x0 DUP2 CALLDATALOAD SWAP1 POP PUSH2 0x1ECA DUP2 PUSH2 0x26A9 JUMP JUMPDEST SWAP3 SWAP2 POP POP JUMP JUMPDEST PUSH1 0x0 DUP2 MLOAD SWAP1 POP PUSH2 0x1EDF DUP2 PUSH2 0x26A9 JUMP JUMPDEST SWAP3 SWAP2 POP POP JUMP JUMPDEST PUSH1 0x0 PUSH1 0x20 DUP3 DUP5 SUB SLT ISZERO PUSH2 0x1EFB JUMPI PUSH2 0x1EFA PUSH2 0x2534 JUMP JUMPDEST JUMPDEST PUSH1 0x0 PUSH2 0x1F09 DUP5 DUP3 DUP6 ADD PUSH2 0x1E91 JUMP JUMPDEST SWAP2 POP POP SWAP3 SWAP2 POP POP JUMP JUMPDEST PUSH1 0x0 DUP1 PUSH1 0x40 DUP4 DUP6 SUB SLT ISZERO PUSH2 0x1F29 JUMPI PUSH2 0x1F28 PUSH2 0x2534 JUMP JUMPDEST JUMPDEST PUSH1 0x0 PUSH2 0x1F37 DUP6 DUP3 DUP7 ADD PUSH2 0x1E91 JUMP JUMPDEST SWAP3 POP POP PUSH1 0x20 PUSH2 0x1F48 DUP6 DUP3 DUP7 ADD PUSH2 0x1E91 JUMP JUMPDEST SWAP2 POP POP SWAP3 POP SWAP3 SWAP1 POP JUMP JUMPDEST PUSH1 0x0 PUSH1 0x20 DUP3 DUP5 SUB SLT ISZERO PUSH2 0x1F68 JUMPI PUSH2 0x1F67 PUSH2 0x2534 JUMP JUMPDEST JUMPDEST PUSH1 0x0 PUSH2 0x1F76 DUP5 DUP3 DUP6 ADD PUSH2 0x1EA6 JUMP JUMPDEST SWAP2 POP POP SWAP3 SWAP2 POP POP JUMP JUMPDEST PUSH1 0x0 PUSH1 0x20 DUP3 DUP5 SUB SLT ISZERO PUSH2 0x1F95 JUMPI PUSH2 0x1F94 PUSH2 0x2534 JUMP JUMPDEST JUMPDEST PUSH1 0x0 PUSH2 0x1FA3 DUP5 DUP3 DUP6 ADD PUSH2 0x1EBB JUMP JUMPDEST SWAP2 POP POP SWAP3 SWAP2 POP POP JUMP JUMPDEST PUSH1 0x0 PUSH1 0x20 DUP3 DUP5 SUB SLT ISZERO PUSH2 0x1FC2 JUMPI PUSH2 0x1FC1 PUSH2 0x2534 JUMP JUMPDEST JUMPDEST PUSH1 0x0 PUSH2 0x1FD0 DUP5 DUP3 DUP6 ADD PUSH2 0x1ED0 JUMP JUMPDEST SWAP2 POP POP SWAP3 SWAP2 POP POP JUMP JUMPDEST PUSH1 0x0 DUP1 PUSH1 0x40 DUP4 DUP6 SUB SLT ISZERO PUSH2 0x1FF0 JUMPI PUSH2 0x1FEF PUSH2 0x2534 JUMP JUMPDEST JUMPDEST PUSH1 0x0 PUSH2 0x1FFE DUP6 DUP3 DUP7 ADD PUSH2 0x1EBB JUMP JUMPDEST SWAP3 POP POP PUSH1 0x20 PUSH2 0x200F DUP6 DUP3 DUP7 ADD PUSH2 0x1EBB JUMP JUMPDEST SWAP2 POP POP SWAP3 POP SWAP3 SWAP1 POP JUMP JUMPDEST PUSH2 0x2022 DUP2 PUSH2 0x2402 JUMP JUMPDEST DUP3 MSTORE POP POP JUMP JUMPDEST PUSH2 0x2031 DUP2 PUSH2 0x2457 JUMP JUMPDEST DUP3 MSTORE POP POP JUMP JUMPDEST PUSH2 0x2040 DUP2 PUSH2 0x2420 JUMP JUMPDEST DUP3 MSTORE POP POP JUMP JUMPDEST PUSH1 0x0 PUSH2 0x2053 PUSH1 0x24 DUP4 PUSH2 0x22DC JUMP JUMPDEST SWAP2 POP PUSH2 0x205E DUP3 PUSH2 0x2539 JUMP JUMPDEST PUSH1 0x40 DUP3 ADD SWAP1 POP SWAP2 SWAP1 POP JUMP JUMPDEST PUSH1 0x0 PUSH2 0x2076 PUSH1 0x15 DUP4 PUSH2 0x22DC JUMP JUMPDEST SWAP2 POP PUSH2 0x2081 DUP3 PUSH2 0x2588 JUMP JUMPDEST PUSH1 0x20 DUP3 ADD SWAP1 POP SWAP2 SWAP1 POP JUMP JUMPDEST PUSH1 0x0 PUSH2 0x2099 PUSH1 0x1A DUP4 PUSH2 0x22DC JUMP JUMPDEST SWAP2 POP PUSH2 0x20A4 DUP3 PUSH2 0x25B1 JUMP JUMPDEST PUSH1 0x20 DUP3 ADD SWAP1 POP SWAP2 SWAP1 POP JUMP JUMPDEST PUSH1 0x0 PUSH2 0x20BC PUSH1 0x15 DUP4 PUSH2 0x22DC JUMP JUMPDEST SWAP2 POP PUSH2 0x20C7 DUP3 PUSH2 0x25DA JUMP JUMPDEST PUSH1 0x20 DUP3 ADD SWAP1 POP SWAP2 SWAP1 POP JUMP JUMPDEST PUSH1 0x0 PUSH2 0x20DF PUSH1 0xC DUP4 PUSH2 0x22DC JUMP JUMPDEST SWAP2 POP PUSH2 0x20EA DUP3 PUSH2 0x2603 JUMP JUMPDEST PUSH1 0x20 DUP3 ADD SWAP1 POP SWAP2 SWAP1 POP JUMP JUMPDEST PUSH1 0x0 PUSH2 0x2102 PUSH1 0x21 DUP4 PUSH2 0x22DC JUMP JUMPDEST SWAP2 POP PUSH2 0x210D DUP3 PUSH2 0x262C JUMP JUMPDEST PUSH1 0x40 DUP3 ADD SWAP1 POP SWAP2 SWAP1 POP JUMP JUMPDEST PUSH2 0x2121 DUP2 PUSH2 0x244D JUMP JUMPDEST DUP3 MSTORE POP POP JUMP JUMPDEST PUSH1 0x0 PUSH1 0x20 DUP3 ADD SWAP1 POP PUSH2 0x213C PUSH1 0x0 DUP4 ADD DUP5 PUSH2 0x2019 JUMP JUMPDEST SWAP3 SWAP2 POP POP JUMP JUMPDEST PUSH1 0x0 PUSH1 0x60 DUP3 ADD SWAP1 POP PUSH2 0x2157 PUSH1 0x0 DUP4 ADD DUP7 PUSH2 0x2019 JUMP JUMPDEST PUSH2 0x2164 PUSH1 0x20 DUP4 ADD DUP6 PUSH2 0x2019 JUMP JUMPDEST PUSH2 0x2171 PUSH1 0x40 DUP4 ADD DUP5 PUSH2 0x2118 JUMP JUMPDEST SWAP5 SWAP4 POP POP POP POP JUMP JUMPDEST PUSH1 0x0 PUSH1 0x40 DUP3 ADD SWAP1 POP PUSH2 0x218E PUSH1 0x0 DUP4 ADD DUP6 PUSH2 0x2019 JUMP JUMPDEST PUSH2 0x219B PUSH1 0x20 DUP4 ADD DUP5 PUSH2 0x2118 JUMP JUMPDEST SWAP4 SWAP3 POP POP POP JUMP JUMPDEST PUSH1 0x0 PUSH1 0x20 DUP3 ADD SWAP1 POP PUSH2 0x21B7 PUSH1 0x0 DUP4 ADD DUP5 PUSH2 0x2028 JUMP JUMPDEST SWAP3 SWAP2 POP POP JUMP JUMPDEST PUSH1 0x0 PUSH1 0x20 DUP3 ADD SWAP1 POP PUSH2 0x21D2 PUSH1 0x0 DUP4 ADD DUP5 PUSH2 0x2037 JUMP JUMPDEST SWAP3 SWAP2 POP POP JUMP JUMPDEST PUSH1 0x0 PUSH1 0x20 DUP3 ADD SWAP1 POP DUP2 DUP2 SUB PUSH1 0x0 DUP4 ADD MSTORE PUSH2 0x21F1 DUP2 PUSH2 0x2046 JUMP JUMPDEST SWAP1 POP SWAP2 SWAP1 POP JUMP JUMPDEST PUSH1 0x0 PUSH1 0x20 DUP3 ADD SWAP1 POP DUP2 DUP2 SUB PUSH1 0x0 DUP4 ADD MSTORE PUSH2 0x2211 DUP2 PUSH2 0x2069 JUMP JUMPDEST SWAP1 POP SWAP2 SWAP1 POP JUMP JUMPDEST PUSH1 0x0 PUSH1 0x20 DUP3 ADD SWAP1 POP DUP2 DUP2 SUB PUSH1 0x0 DUP4 ADD MSTORE PUSH2 0x2231 DUP2 PUSH2 0x208C JUMP JUMPDEST SWAP1 POP SWAP2 SWAP1 POP JUMP JUMPDEST PUSH1 0x0 PUSH1 0x20 DUP3 ADD SWAP1 POP DUP2 DUP2 SUB PUSH1 0x0 DUP4 ADD MSTORE PUSH2 0x2251 DUP2 PUSH2 0x20AF JUMP JUMPDEST SWAP1 POP SWAP2 SWAP1 POP JUMP JUMPDEST PUSH1 0x0 PUSH1 0x20 DUP3 ADD SWAP1 POP DUP2 DUP2 SUB PUSH1 0x0 DUP4 ADD MSTORE PUSH2 0x2271 DUP2 PUSH2 0x20D2 JUMP JUMPDEST SWAP1 POP SWAP2 SWAP1 POP JUMP JUMPDEST PUSH1 0x0 PUSH1 0x20 DUP3 ADD SWAP1 POP DUP2 DUP2 SUB PUSH1 0x0 DUP4 ADD MSTORE PUSH2 0x2291 DUP2 PUSH2 0x20F5 JUMP JUMPDEST SWAP1 POP SWAP2 SWAP1 POP JUMP JUMPDEST PUSH1 0x0 PUSH1 0x20 DUP3 ADD SWAP1 POP PUSH2 0x22AD PUSH1 0x0 DUP4 ADD DUP5 PUSH2 0x2118 JUMP JUMPDEST SWAP3 SWAP2 POP POP JUMP JUMPDEST PUSH1 0x0 PUSH1 0x40 DUP3 ADD SWAP1 POP PUSH2 0x22C8 PUSH1 0x0 DUP4 ADD DUP6 PUSH2 0x2118 JUMP JUMPDEST PUSH2 0x22D5 PUSH1 0x20 DUP4 ADD DUP5 PUSH2 0x2118 JUMP JUMPDEST SWAP4 SWAP3 POP POP POP JUMP JUMPDEST PUSH1 0x0 DUP3 DUP3 MSTORE PUSH1 0x20 DUP3 ADD SWAP1 POP SWAP3 SWAP2 POP POP JUMP JUMPDEST PUSH1 0x0 PUSH2 0x22F8 DUP3 PUSH2 0x244D JUMP JUMPDEST SWAP2 POP PUSH2 0x2303 DUP4 PUSH2 0x244D JUMP JUMPDEST SWAP3 POP DUP3 PUSH32 0xFFFFFFFFFFFFFFFFFFFFFFFFFFFFFFFFFFFFFFFFFFFFFFFFFFFFFFFFFFFFFFFF SUB DUP3 GT ISZERO PUSH2 0x2338 JUMPI PUSH2 0x2337 PUSH2 0x24D6 JUMP JUMPDEST JUMPDEST DUP3 DUP3 ADD SWAP1 POP SWAP3 SWAP2 POP POP JUMP JUMPDEST PUSH1 0x0 PUSH2 0x234E DUP3 PUSH2 0x244D JUMP JUMPDEST SWAP2 POP PUSH2 0x2359 DUP4 PUSH2 0x244D JUMP JUMPDEST SWAP3 POP DUP3 PUSH2 0x2369 JUMPI PUSH2 0x2368 PUSH2 0x2505 JUMP JUMPDEST JUMPDEST DUP3 DUP3 DIV SWAP1 POP SWAP3 SWAP2 POP POP JUMP JUMPDEST PUSH1 0x0 PUSH2 0x237F DUP3 PUSH2 0x244D JUMP JUMPDEST SWAP2 POP PUSH2 0x238A DUP4 PUSH2 0x244D JUMP JUMPDEST SWAP3 POP DUP2 PUSH32 0xFFFFFFFFFFFFFFFFFFFFFFFFFFFFFFFFFFFFFFFFFFFFFFFFFFFFFFFFFFFFFFFF DIV DUP4 GT DUP3 ISZERO ISZERO AND ISZERO PUSH2 0x23C3 JUMPI PUSH2 0x23C2 PUSH2 0x24D6 JUMP JUMPDEST JUMPDEST DUP3 DUP3 MUL SWAP1 POP SWAP3 SWAP2 POP POP JUMP JUMPDEST PUSH1 0x0 PUSH2 0x23D9 DUP3 PUSH2 0x244D JUMP JUMPDEST SWAP2 POP PUSH2 0x23E4 DUP4 PUSH2 0x244D JUMP JUMPDEST SWAP3 POP DUP3 DUP3 LT ISZERO PUSH2 0x23F7 JUMPI PUSH2 0x23F6 PUSH2 0x24D6 JUMP JUMPDEST JUMPDEST DUP3 DUP3 SUB SWAP1 POP SWAP3 SWAP2 POP POP JUMP JUMPDEST PUSH1 0x0 PUSH2 0x240D DUP3 PUSH2 0x242D JUMP JUMPDEST SWAP1 POP SWAP2 SWAP1 POP JUMP JUMPDEST PUSH1 0x0 DUP2 ISZERO ISZERO SWAP1 POP SWAP2 SWAP1 POP JUMP JUMPDEST PUSH1 0x0 DUP2 PUSH1 0xF SIGNEXTEND SWAP1 POP SWAP2 SWAP1 POP JUMP JUMPDEST PUSH1 0x0 PUSH20 0xFFFFFFFFFFFFFFFFFFFFFFFFFFFFFFFFFFFFFFFF DUP3 AND SWAP1 POP SWAP2 SWAP1 POP JUMP JUMPDEST PUSH1 0x0 DUP2 SWAP1 POP SWAP2 SWAP1 POP JUMP JUMPDEST PUSH1 0x0 PUSH2 0x2462 DUP3 PUSH2 0x2469 JUMP JUMPDEST SWAP1 POP SWAP2 SWAP1 POP JUMP JUMPDEST PUSH1 0x0 PUSH2 0x2474 DUP3 PUSH2 0x247B JUMP JUMPDEST SWAP1 POP SWAP2 SWAP1 POP JUMP JUMPDEST PUSH1 0x0 PUSH2 0x2486 DUP3 PUSH2 0x242D JUMP JUMPDEST SWAP1 POP SWAP2 SWAP1 POP JUMP JUMPDEST PUSH1 0x0 PUSH2 0x2498 DUP3 PUSH2 0x244D JUMP JUMPDEST SWAP2 POP PUSH32 0xFFFFFFFFFFFFFFFFFFFFFFFFFFFFFFFFFFFFFFFFFFFFFFFFFFFFFFFFFFFFFFFF DUP3 EQ ISZERO PUSH2 0x24CB JUMPI PUSH2 0x24CA PUSH2 0x24D6 JUMP JUMPDEST JUMPDEST PUSH1 0x1 DUP3 ADD SWAP1 POP SWAP2 SWAP1 POP JUMP JUMPDEST PUSH32 0x4E487B7100000000000000000000000000000000000000000000000000000000 PUSH1 0x0 MSTORE PUSH1 0x11 PUSH1 0x4 MSTORE PUSH1 0x24 PUSH1 0x0 REVERT JUMPDEST PUSH32 0x4E487B7100000000000000000000000000000000000000000000000000000000 PUSH1 0x0 MSTORE PUSH1 0x12 PUSH1 0x4 MSTORE PUSH1 0x24 PUSH1 0x0 REVERT JUMPDEST PUSH1 0x0 DUP1 REVERT JUMPDEST PUSH32 0x596F7520646F6E7420686176652074686174206D75636820746F207769746864 PUSH1 0x0 DUP3 ADD MSTORE PUSH32 0x7261772100000000000000000000000000000000000000000000000000000000 PUSH1 0x20 DUP3 ADD MSTORE POP JUMP JUMPDEST PUSH32 0x546F6B656E207472616E73666572206661696C65640000000000000000000000 PUSH1 0x0 DUP3 ADD MSTORE POP JUMP JUMPDEST PUSH32 0x596F7520646F6E742068617665207468617420616D6F756E7421000000000000 PUSH1 0x0 DUP3 ADD MSTORE POP JUMP JUMPDEST PUSH32 0x506572207472616E73616374696F6E206C696D69740000000000000000000000 PUSH1 0x0 DUP3 ADD MSTORE POP JUMP JUMPDEST PUSH32 0x4E6F7420756E6C6F636B65640000000000000000000000000000000000000000 PUSH1 0x0 DUP3 ADD MSTORE POP JUMP JUMPDEST PUSH32 0x75696E74206F766572666C6F772066726F6D206D756C7469706C69636174696F PUSH1 0x0 DUP3 ADD MSTORE PUSH32 0x6E00000000000000000000000000000000000000000000000000000000000000 PUSH1 0x20 DUP3 ADD MSTORE POP JUMP JUMPDEST PUSH2 0x2684 DUP2 PUSH2 0x2402 JUMP JUMPDEST DUP2 EQ PUSH2 0x268F JUMPI PUSH1 0x0 DUP1 REVERT JUMPDEST POP JUMP JUMPDEST PUSH2 0x269B DUP2 PUSH2 0x2414 JUMP JUMPDEST DUP2 EQ PUSH2 0x26A6 JUMPI PUSH1 0x0 DUP1 REVERT JUMPDEST POP JUMP JUMPDEST PUSH2 0x26B2 DUP2 PUSH2 0x244D JUMP JUMPDEST DUP2 EQ PUSH2 0x26BD JUMPI PUSH1 0x0 DUP1 REVERT JUMPDEST POP JUMP INVALID LOG2 PUSH5 0x6970667358 0x22 SLT KECCAK256 0xB7 GASPRICE 0xA8 PUSH25 0x4AB10D392A3E6F61395E8F1471C722FEF91F63C9A3E298074E DUP14 MUL DUP16 PUSH5 0x736F6C6343 STOP ADDMOD SMOD STOP CALLER "
				},
				"gasEstimates": {
					"creation": {
						"codeDepositCost": "1994800",
						"executionCost": "infinite",
						"totalCost": "infinite"
					},
					"external": {
						"buyScepter(uint256)": "infinite",
						"cashOutScepter(uint256,uint256)": "infinite",
						"circulatingSupplyXDays(uint256)": "infinite",
						"claimLockedUSDC(address)": "infinite",
						"daysInCalculation()": "2475",
						"decDiv18(uint256,uint256)": "infinite",
						"decMul18(uint256,uint256)": "infinite",
						"devWalletAddr()": "2560",
						"getBackingPrice()": "infinite",
						"getBuyBackPrice()": "infinite",
						"getCircSupplyXDays()": "420",
						"getGrowthFactor()": "infinite",
						"getSellFactor()": "infinite",
						"getSellPrice()": "infinite",
						"getTokensBoughtXDays()": "infinite",
						"getTokensSoldXDays()": "infinite",
						"growthFactor()": "2473",
						"mockUSDC()": "2689",
						"queryERC20Balance(address,address)": "infinite",
						"res()": "2587",
						"riskTreasuryAddr()": "2561",
						"scepterTreasuryAddr()": "2647",
						"sellFactor()": "2474",
						"setDaysUsedInFactors(uint256)": "infinite",
						"tSC()": "2690",
						"testUpdatetimeLockedminus(uint256)": "infinite",
						"testUpdatetimeLockedplus(uint256)": "infinite",
						"testwallet()": "2580",
						"timeLaunched()": "2474",
						"tokensBoughtXDays(uint256)": "infinite",
						"tokensSoldXDays(uint256)": "infinite",
						"transformScepterToBaton(uint256)": "infinite",
						"treasury1Addr()": "2624",
						"treasury1bal()": "2541",
						"whitelist(address)": "544",
						"withheldWithdrawals(address)": "infinite"
					},
					"internal": {
						"_safeTransferFrom(contract IERC20,address,address,uint256)": "infinite",
						"add(uint256,uint256)": "infinite",
						"div(uint256,uint256)": "infinite",
						"mintBaton(uint256)": "infinite",
						"mul(uint256,uint256)": "infinite",
						"sub(uint256,uint256)": "infinite"
					}
				},
				"methodIdentifiers": {
					"buyScepter(uint256)": "65819f7e",
					"cashOutScepter(uint256,uint256)": "63d03361",
					"circulatingSupplyXDays(uint256)": "1a30e872",
					"claimLockedUSDC(address)": "bcd323cb",
					"daysInCalculation()": "67b48c91",
					"decDiv18(uint256,uint256)": "64ce07d8",
					"decMul18(uint256,uint256)": "f7523c52",
					"devWalletAddr()": "29982a32",
					"getBackingPrice()": "1f564a06",
					"getBuyBackPrice()": "308cdb88",
					"getCircSupplyXDays()": "0f65de3e",
					"getGrowthFactor()": "93f7b711",
					"getSellFactor()": "0ccaf04f",
					"getSellPrice()": "43d32e9c",
					"getTokensBoughtXDays()": "71cd58f9",
					"getTokensSoldXDays()": "d82eddf2",
					"growthFactor()": "ee620868",
					"mockUSDC()": "ee467678",
					"queryERC20Balance(address,address)": "ee546a51",
					"res()": "6f10e285",
					"riskTreasuryAddr()": "047729b0",
					"scepterTreasuryAddr()": "c079d7f6",
					"sellFactor()": "cbff4617",
					"setDaysUsedInFactors(uint256)": "fc361443",
					"tSC()": "6e05c1b9",
					"testUpdatetimeLockedminus(uint256)": "164c8501",
					"testUpdatetimeLockedplus(uint256)": "67e927a8",
					"testwallet()": "eee05f5e",
					"timeLaunched()": "3c6eb17a",
					"tokensBoughtXDays(uint256)": "2a9f0fb1",
					"tokensSoldXDays(uint256)": "1514c976",
					"transformScepterToBaton(uint256)": "1bc9cc45",
					"treasury1Addr()": "fbbb4589",
					"treasury1bal()": "35453307",
					"whitelist(address)": "9b19251a",
					"withheldWithdrawals(address)": "12b2ed94"
				}
			},
			"userdoc": {
				"kind": "user",
				"methods": {},
				"version": 1
			}
		}
	}
}