{
	"test/sis.sol": {
		"personalSafuuTrader": {
			"abi": [
				{
					"inputs": [],
					"stateMutability": "nonpayable",
					"type": "constructor"
				},
				{
					"anonymous": false,
					"inputs": [
						{
							"indexed": true,
							"internalType": "address",
							"name": "previousOwner",
							"type": "address"
						},
						{
							"indexed": true,
							"internalType": "address",
							"name": "newOwner",
							"type": "address"
						}
					],
					"name": "OwnershipTransferred",
					"type": "event"
				},
				{
					"inputs": [],
					"name": "BnbToSafuu",
					"outputs": [
						{
							"internalType": "uint256",
							"name": "",
							"type": "uint256"
						}
					],
					"stateMutability": "view",
					"type": "function"
				},
				{
					"inputs": [],
					"name": "Safuu",
					"outputs": [
						{
							"internalType": "contract IERC20",
							"name": "",
							"type": "address"
						}
					],
					"stateMutability": "view",
					"type": "function"
				},
				{
					"inputs": [],
					"name": "USDC",
					"outputs": [
						{
							"internalType": "contract IERC20",
							"name": "",
							"type": "address"
						}
					],
					"stateMutability": "view",
					"type": "function"
				},
				{
					"inputs": [
						{
							"internalType": "uint256",
							"name": "amttobuy",
							"type": "uint256"
						}
					],
					"name": "buySafuu",
					"outputs": [],
					"stateMutability": "payable",
					"type": "function"
				},
				{
					"inputs": [],
					"name": "getLatestPrice",
					"outputs": [
						{
							"internalType": "int256",
							"name": "",
							"type": "int256"
						}
					],
					"stateMutability": "view",
					"type": "function"
				},
				{
					"inputs": [],
					"name": "owner",
					"outputs": [
						{
							"internalType": "address",
							"name": "",
							"type": "address"
						}
					],
					"stateMutability": "view",
					"type": "function"
				},
				{
					"inputs": [],
					"name": "renounceOwnership",
					"outputs": [],
					"stateMutability": "nonpayable",
					"type": "function"
				},
				{
					"inputs": [
						{
							"internalType": "uint256",
							"name": "amttosell",
							"type": "uint256"
						}
					],
					"name": "sellSafuu",
					"outputs": [],
					"stateMutability": "nonpayable",
					"type": "function"
				},
				{
					"inputs": [
						{
							"internalType": "uint256",
							"name": "_newfactor",
							"type": "uint256"
						}
					],
					"name": "setFactor",
					"outputs": [],
					"stateMutability": "nonpayable",
					"type": "function"
				},
				{
					"inputs": [
						{
							"internalType": "uint256",
							"name": "amttobuy",
							"type": "uint256"
						},
						{
							"internalType": "uint256",
							"name": "_factor",
							"type": "uint256"
						}
					],
					"name": "testDiv",
					"outputs": [
						{
							"internalType": "uint256",
							"name": "",
							"type": "uint256"
						}
					],
					"stateMutability": "nonpayable",
					"type": "function"
				},
				{
					"inputs": [
						{
							"internalType": "address",
							"name": "newOwner",
							"type": "address"
						}
					],
					"name": "transferOwnership",
					"outputs": [],
					"stateMutability": "nonpayable",
					"type": "function"
				},
				{
					"inputs": [],
					"name": "withdrawToOwner",
					"outputs": [],
					"stateMutability": "nonpayable",
					"type": "function"
				}
			],
			"devdoc": {
				"kind": "dev",
				"methods": {
					"owner()": {
						"details": "Returns the address of the current owner."
					},
					"renounceOwnership()": {
						"details": "Leaves the contract without owner. It will not be possible to call `onlyOwner` functions anymore. Can only be called by the current owner. NOTE: Renouncing ownership will leave the contract without an owner, thereby removing any functionality that is only available to the owner."
					},
					"transferOwnership(address)": {
						"details": "Transfers ownership of the contract to a new account (`newOwner`). Can only be called by the current owner."
					}
				},
				"version": 1
			},
			"evm": {
				"assembly": "    /* \"test/sis.sol\":2576:5529  contract personalSafuuTrader is Ownable\r... */\n  mstore(0x40, 0x80)\n    /* \"test/sis.sol\":2885:3214  constructor () {\r... */\n  callvalue\n  dup1\n  iszero\n  tag_1\n  jumpi\n  0x00\n  dup1\n  revert\ntag_1:\n  pop\n    /* \"test/Ownable.sol\":914:946  _transferOwnership(_msgSender()) */\n  tag_5\n    /* \"test/Ownable.sol\":933:945  _msgSender() */\n  tag_6\n    /* \"test/Ownable.sol\":933:943  _msgSender */\n  shl(0x20, tag_7)\n    /* \"test/Ownable.sol\":933:945  _msgSender() */\n  0x20\n  shr\n  jump\t// in\ntag_6:\n    /* \"test/Ownable.sol\":914:932  _transferOwnership */\n  shl(0x20, tag_8)\n    /* \"test/Ownable.sol\":914:946  _transferOwnership(_msgSender()) */\n  0x20\n  shr\n  jump\t// in\ntag_5:\n    /* \"test/sis.sol\":2918:2924  100000 */\n  0x0186a0\n    /* \"test/sis.sol\":2905:2915  BnbToSafuu */\n  0x02\n    /* \"test/sis.sol\":2905:2924  BnbToSafuu = 100000 */\n  dup2\n  swap1\n  sstore\n  pop\n    /* \"test/sis.sol\":2944:2986  0xE5bA47fD94CB645ba4119222e34fB33F59C7CD90 */\n  0xe5ba47fd94cb645ba4119222e34fb33f59c7cd90\n    /* \"test/sis.sol\":2929:2934  Safuu */\n  0x03\n  0x00\n    /* \"test/sis.sol\":2929:2987  Safuu = IERC20(0xE5bA47fD94CB645ba4119222e34fB33F59C7CD90) */\n  0x0100\n  exp\n  dup2\n  sload\n  dup2\n  0xffffffffffffffffffffffffffffffffffffffff\n  mul\n  not\n  and\n  swap1\n  dup4\n  0xffffffffffffffffffffffffffffffffffffffff\n  and\n  mul\n  or\n  swap1\n  sstore\n  pop\n    /* \"test/sis.sol\":3006:3048  0x8AC76a51cc950d9822D68b83fE1Ad97B32Cd580d */\n  0x8ac76a51cc950d9822d68b83fe1ad97b32cd580d\n    /* \"test/sis.sol\":2992:2996  USDC */\n  0x04\n  0x00\n    /* \"test/sis.sol\":2992:3049  USDC = IERC20(0x8AC76a51cc950d9822D68b83fE1Ad97B32Cd580d) */\n  0x0100\n  exp\n  dup2\n  sload\n  dup2\n  0xffffffffffffffffffffffffffffffffffffffff\n  mul\n  not\n  and\n  swap1\n  dup4\n  0xffffffffffffffffffffffffffffffffffffffff\n  and\n  mul\n  or\n  swap1\n  sstore\n  pop\n    /* \"test/sis.sol\":3165:3207  0x0567F2323251f0Aab15c8dFb1967E4e8A7D42aeE */\n  0x0567f2323251f0aab15c8dfb1967e4e8a7d42aee\n    /* \"test/sis.sol\":3131:3140  priceFeed */\n  0x01\n  0x00\n    /* \"test/sis.sol\":3131:3208  priceFeed = AggregatorV3Interface(0x0567F2323251f0Aab15c8dFb1967E4e8A7D42aeE) */\n  0x0100\n  exp\n  dup2\n  sload\n  dup2\n  0xffffffffffffffffffffffffffffffffffffffff\n  mul\n  not\n  and\n  swap1\n  dup4\n  0xffffffffffffffffffffffffffffffffffffffff\n  and\n  mul\n  or\n  swap1\n  sstore\n  pop\n    /* \"test/sis.sol\":2576:5529  contract personalSafuuTrader is Ownable\r... */\n  jump(tag_10)\n    /* \"test/Context.sol\":640:736  function _msgSender() internal view virtual returns (address) {... */\ntag_7:\n    /* \"test/Context.sol\":693:700  address */\n  0x00\n    /* \"test/Context.sol\":719:729  msg.sender */\n  caller\n    /* \"test/Context.sol\":712:729  return msg.sender */\n  swap1\n  pop\n    /* \"test/Context.sol\":640:736  function _msgSender() internal view virtual returns (address) {... */\n  swap1\n  jump\t// out\n    /* \"test/Ownable.sol\":2263:2450  function _transferOwnership(address newOwner) internal virtual {... */\ntag_8:\n    /* \"test/Ownable.sol\":2336:2352  address oldOwner */\n  0x00\n    /* \"test/Ownable.sol\":2355:2361  _owner */\n  dup1\n  0x00\n  swap1\n  sload\n  swap1\n  0x0100\n  exp\n  swap1\n  div\n  0xffffffffffffffffffffffffffffffffffffffff\n  and\n    /* \"test/Ownable.sol\":2336:2361  address oldOwner = _owner */\n  swap1\n  pop\n    /* \"test/Ownable.sol\":2380:2388  newOwner */\n  dup2\n    /* \"test/Ownable.sol\":2371:2377  _owner */\n  0x00\n  dup1\n    /* \"test/Ownable.sol\":2371:2388  _owner = newOwner */\n  0x0100\n  exp\n  dup2\n  sload\n  dup2\n  0xffffffffffffffffffffffffffffffffffffffff\n  mul\n  not\n  and\n  swap1\n  dup4\n  0xffffffffffffffffffffffffffffffffffffffff\n  and\n  mul\n  or\n  swap1\n  sstore\n  pop\n    /* \"test/Ownable.sol\":2434:2442  newOwner */\n  dup2\n    /* \"test/Ownable.sol\":2403:2443  OwnershipTransferred(oldOwner, newOwner) */\n  0xffffffffffffffffffffffffffffffffffffffff\n  and\n    /* \"test/Ownable.sol\":2424:2432  oldOwner */\n  dup2\n    /* \"test/Ownable.sol\":2403:2443  OwnershipTransferred(oldOwner, newOwner) */\n  0xffffffffffffffffffffffffffffffffffffffff\n  and\n  0x8be0079c531659141344cd1fd0a4f28419497f9722a3daafe3b4186f6b6457e0\n  mload(0x40)\n  mload(0x40)\n  dup1\n  swap2\n  sub\n  swap1\n  log3\n    /* \"test/Ownable.sol\":2326:2450  {... */\n  pop\n    /* \"test/Ownable.sol\":2263:2450  function _transferOwnership(address newOwner) internal virtual {... */\n  pop\n  jump\t// out\n    /* \"test/sis.sol\":2576:5529  contract personalSafuuTrader is Ownable\r... */\ntag_10:\n  dataSize(sub_0)\n  dup1\n  dataOffset(sub_0)\n  0x00\n  codecopy\n  0x00\n  return\nstop\n\nsub_0: assembly {\n        /* \"test/sis.sol\":2576:5529  contract personalSafuuTrader is Ownable\r... */\n      mstore(0x40, 0x80)\n      jumpi(tag_1, lt(calldatasize, 0x04))\n      shr(0xe0, calldataload(0x00))\n      dup1\n      0x8a71c2f4\n      gt\n      tag_14\n      jumpi\n      dup1\n      0x8a71c2f4\n      eq\n      tag_8\n      jumpi\n      dup1\n      0x8da5cb5b\n      eq\n      tag_9\n      jumpi\n      dup1\n      0x8e15f473\n      eq\n      tag_10\n      jumpi\n      dup1\n      0xade87ecc\n      eq\n      tag_11\n      jumpi\n      dup1\n      0xebc4197c\n      eq\n      tag_12\n      jumpi\n      dup1\n      0xf2fde38b\n      eq\n      tag_13\n      jumpi\n      jump(tag_1)\n    tag_14:\n      dup1\n      0x3b3a7e31\n      eq\n      tag_2\n      jumpi\n      dup1\n      0x3cb40e16\n      eq\n      tag_3\n      jumpi\n      dup1\n      0x715018a6\n      eq\n      tag_4\n      jumpi\n      dup1\n      0x80c31426\n      eq\n      tag_5\n      jumpi\n      dup1\n      0x817e9d31\n      eq\n      tag_6\n      jumpi\n      dup1\n      0x89a30271\n      eq\n      tag_7\n      jumpi\n    tag_1:\n      0x00\n      dup1\n      revert\n        /* \"test/sis.sol\":3220:3453  function testDiv(uint256 amttobuy, uint256 _factor) public returns (uint256)\r... */\n    tag_2:\n      callvalue\n      dup1\n      iszero\n      tag_15\n      jumpi\n      0x00\n      dup1\n      revert\n    tag_15:\n      pop\n      tag_16\n      0x04\n      dup1\n      calldatasize\n      sub\n      dup2\n      add\n      swap1\n      tag_17\n      swap2\n      swap1\n      tag_18\n      jump\t// in\n    tag_17:\n      tag_19\n      jump\t// in\n    tag_16:\n      mload(0x40)\n      tag_20\n      swap2\n      swap1\n      tag_21\n      jump\t// in\n    tag_20:\n      mload(0x40)\n      dup1\n      swap2\n      sub\n      swap1\n      return\n        /* \"test/sis.sol\":4831:5252  function withdrawToOwner()\r... */\n    tag_3:\n      callvalue\n      dup1\n      iszero\n      tag_22\n      jumpi\n      0x00\n      dup1\n      revert\n    tag_22:\n      pop\n      tag_23\n      tag_24\n      jump\t// in\n    tag_23:\n      stop\n        /* \"test/Ownable.sol\":1661:1762  function renounceOwnership() public virtual onlyOwner {... */\n    tag_4:\n      callvalue\n      dup1\n      iszero\n      tag_25\n      jumpi\n      0x00\n      dup1\n      revert\n    tag_25:\n      pop\n      tag_26\n      tag_27\n      jump\t// in\n    tag_26:\n      stop\n        /* \"test/sis.sol\":3459:3900  function buySafuu(uint256 amttobuy) public payable\r... */\n    tag_5:\n      tag_28\n      0x04\n      dup1\n      calldatasize\n      sub\n      dup2\n      add\n      swap1\n      tag_29\n      swap2\n      swap1\n      tag_30\n      jump\t// in\n    tag_29:\n      tag_31\n      jump\t// in\n    tag_28:\n      stop\n        /* \"test/sis.sol\":4717:4825  function setFactor(uint256 _newfactor) public onlyOwner {\r... */\n    tag_6:\n      callvalue\n      dup1\n      iszero\n      tag_32\n      jumpi\n      0x00\n      dup1\n      revert\n    tag_32:\n      pop\n      tag_33\n      0x04\n      dup1\n      calldatasize\n      sub\n      dup2\n      add\n      swap1\n      tag_34\n      swap2\n      swap1\n      tag_30\n      jump\t// in\n    tag_34:\n      tag_35\n      jump\t// in\n    tag_33:\n      stop\n        /* \"test/sis.sol\":2798:2816  IERC20 public USDC */\n    tag_7:\n      callvalue\n      dup1\n      iszero\n      tag_36\n      jumpi\n      0x00\n      dup1\n      revert\n    tag_36:\n      pop\n      tag_37\n      tag_38\n      jump\t// in\n    tag_37:\n      mload(0x40)\n      tag_39\n      swap2\n      swap1\n      tag_40\n      jump\t// in\n    tag_39:\n      mload(0x40)\n      dup1\n      swap2\n      sub\n      swap1\n      return\n        /* \"test/sis.sol\":2772:2791  IERC20 public Safuu */\n    tag_8:\n      callvalue\n      dup1\n      iszero\n      tag_41\n      jumpi\n      0x00\n      dup1\n      revert\n    tag_41:\n      pop\n      tag_42\n      tag_43\n      jump\t// in\n    tag_42:\n      mload(0x40)\n      tag_44\n      swap2\n      swap1\n      tag_40\n      jump\t// in\n    tag_44:\n      mload(0x40)\n      dup1\n      swap2\n      sub\n      swap1\n      return\n        /* \"test/Ownable.sol\":1029:1114  function owner() public view virtual returns (address) {... */\n    tag_9:\n      callvalue\n      dup1\n      iszero\n      tag_45\n      jumpi\n      0x00\n      dup1\n      revert\n    tag_45:\n      pop\n      tag_46\n      tag_47\n      jump\t// in\n    tag_46:\n      mload(0x40)\n      tag_48\n      swap2\n      swap1\n      tag_49\n      jump\t// in\n    tag_48:\n      mload(0x40)\n      dup1\n      swap2\n      sub\n      swap1\n      return\n        /* \"test/sis.sol\":3906:4190  function getLatestPrice() public view returns (int) {\r... */\n    tag_10:\n      callvalue\n      dup1\n      iszero\n      tag_50\n      jumpi\n      0x00\n      dup1\n      revert\n    tag_50:\n      pop\n      tag_51\n      tag_52\n      jump\t// in\n    tag_51:\n      mload(0x40)\n      tag_53\n      swap2\n      swap1\n      tag_54\n      jump\t// in\n    tag_53:\n      mload(0x40)\n      dup1\n      swap2\n      sub\n      swap1\n      return\n        /* \"test/sis.sol\":4196:4707  function sellSafuu(uint256 amttosell) public \r... */\n    tag_11:\n      callvalue\n      dup1\n      iszero\n      tag_55\n      jumpi\n      0x00\n      dup1\n      revert\n    tag_55:\n      pop\n      tag_56\n      0x04\n      dup1\n      calldatasize\n      sub\n      dup2\n      add\n      swap1\n      tag_57\n      swap2\n      swap1\n      tag_30\n      jump\t// in\n    tag_57:\n      tag_58\n      jump\t// in\n    tag_56:\n      stop\n        /* \"test/sis.sol\":2738:2764  uint256  public BnbToSafuu */\n    tag_12:\n      callvalue\n      dup1\n      iszero\n      tag_59\n      jumpi\n      0x00\n      dup1\n      revert\n    tag_59:\n      pop\n      tag_60\n      tag_61\n      jump\t// in\n    tag_60:\n      mload(0x40)\n      tag_62\n      swap2\n      swap1\n      tag_21\n      jump\t// in\n    tag_62:\n      mload(0x40)\n      dup1\n      swap2\n      sub\n      swap1\n      return\n        /* \"test/Ownable.sol\":1911:2109  function transferOwnership(address newOwner) public virtual onlyOwner {... */\n    tag_13:\n      callvalue\n      dup1\n      iszero\n      tag_63\n      jumpi\n      0x00\n      dup1\n      revert\n    tag_63:\n      pop\n      tag_64\n      0x04\n      dup1\n      calldatasize\n      sub\n      dup2\n      add\n      swap1\n      tag_65\n      swap2\n      swap1\n      tag_66\n      jump\t// in\n    tag_65:\n      tag_67\n      jump\t// in\n    tag_64:\n      stop\n        /* \"test/sis.sol\":3220:3453  function testDiv(uint256 amttobuy, uint256 _factor) public returns (uint256)\r... */\n    tag_19:\n        /* \"test/sis.sol\":3288:3295  uint256 */\n      0x00\n        /* \"test/sis.sol\":3323:3341  uint256 payableAmt */\n      dup1\n        /* \"test/sis.sol\":3402:3408  10**18 */\n      0x0de0b6b3a7640000\n        /* \"test/sis.sol\":3378:3399  amttobuy.div(_factor) */\n      tag_69\n        /* \"test/sis.sol\":3391:3398  _factor */\n      dup5\n        /* \"test/sis.sol\":3378:3386  amttobuy */\n      dup7\n        /* \"test/sis.sol\":3378:3390  amttobuy.div */\n      tag_70\n      swap1\n        /* \"test/sis.sol\":3378:3399  amttobuy.div(_factor) */\n      swap2\n      swap1\n      0xffffffff\n      and\n      jump\t// in\n    tag_69:\n        /* \"test/sis.sol\":3378:3409  amttobuy.div(_factor) *(10**18) */\n      tag_71\n      swap2\n      swap1\n      tag_72\n      jump\t// in\n    tag_71:\n        /* \"test/sis.sol\":3365:3409  payableAmt = amttobuy.div(_factor) *(10**18) */\n      swap1\n      pop\n        /* \"test/sis.sol\":3426:3436  payableAmt */\n      dup1\n        /* \"test/sis.sol\":3419:3436  return payableAmt */\n      swap2\n      pop\n      pop\n        /* \"test/sis.sol\":3220:3453  function testDiv(uint256 amttobuy, uint256 _factor) public returns (uint256)\r... */\n      swap3\n      swap2\n      pop\n      pop\n      jump\t// out\n        /* \"test/sis.sol\":4831:5252  function withdrawToOwner()\r... */\n    tag_24:\n        /* \"test/sis.sol\":4999:5011  bool success */\n      0x00\n        /* \"test/sis.sol\":5017:5024  owner() */\n      tag_74\n        /* \"test/sis.sol\":5017:5022  owner */\n      tag_47\n        /* \"test/sis.sol\":5017:5024  owner() */\n      jump\t// in\n    tag_74:\n        /* \"test/sis.sol\":5017:5029  owner().call */\n      0xffffffffffffffffffffffffffffffffffffffff\n      and\n        /* \"test/sis.sol\":5037:5058  address(this).balance */\n      selfbalance\n        /* \"test/sis.sol\":5017:5063  owner().call{value: address(this).balance}(\"\") */\n      mload(0x40)\n      tag_75\n      swap1\n      tag_76\n      jump\t// in\n    tag_75:\n      0x00\n      mload(0x40)\n      dup1\n      dup4\n      sub\n      dup2\n      dup6\n      dup8\n      gas\n      call\n      swap3\n      pop\n      pop\n      pop\n      returndatasize\n      dup1\n      0x00\n      dup2\n      eq\n      tag_79\n      jumpi\n      mload(0x40)\n      swap2\n      pop\n      and(add(returndatasize, 0x3f), not(0x1f))\n      dup3\n      add\n      0x40\n      mstore\n      returndatasize\n      dup3\n      mstore\n      returndatasize\n      0x00\n      0x20\n      dup5\n      add\n      returndatacopy\n      jump(tag_78)\n    tag_79:\n      0x60\n      swap2\n      pop\n    tag_78:\n      pop\n        /* \"test/sis.sol\":4998:5063  (bool success, ) = owner().call{value: address(this).balance}(\"\") */\n      pop\n      swap1\n      pop\n        /* \"test/sis.sol\":5082:5089  success */\n      dup1\n        /* \"test/sis.sol\":5074:5114  require(success, \"Failed to send Ether\") */\n      tag_80\n      jumpi\n      mload(0x40)\n      0x08c379a000000000000000000000000000000000000000000000000000000000\n      dup2\n      mstore\n      0x04\n      add\n      tag_81\n      swap1\n      tag_82\n      jump\t// in\n    tag_81:\n      mload(0x40)\n      dup1\n      swap2\n      sub\n      swap1\n      revert\n    tag_80:\n        /* \"test/sis.sol\":5125:5130  Safuu */\n      0x03\n      0x00\n      swap1\n      sload\n      swap1\n      0x0100\n      exp\n      swap1\n      div\n      0xffffffffffffffffffffffffffffffffffffffff\n      and\n        /* \"test/sis.sol\":5125:5139  Safuu.transfer */\n      0xffffffffffffffffffffffffffffffffffffffff\n      and\n      0xa9059cbb\n        /* \"test/sis.sol\":5140:5147  owner() */\n      tag_83\n        /* \"test/sis.sol\":5140:5145  owner */\n      tag_47\n        /* \"test/sis.sol\":5140:5147  owner() */\n      jump\t// in\n    tag_83:\n        /* \"test/sis.sol\":5149:5154  Safuu */\n      0x03\n      0x00\n      swap1\n      sload\n      swap1\n      0x0100\n      exp\n      swap1\n      div\n      0xffffffffffffffffffffffffffffffffffffffff\n      and\n        /* \"test/sis.sol\":5149:5164  Safuu.balanceOf */\n      0xffffffffffffffffffffffffffffffffffffffff\n      and\n      0x70a08231\n        /* \"test/sis.sol\":5173:5177  this */\n      address\n        /* \"test/sis.sol\":5149:5179  Safuu.balanceOf(address(this)) */\n      mload(0x40)\n      dup3\n      0xffffffff\n      and\n      0xe0\n      shl\n      dup2\n      mstore\n      0x04\n      add\n      tag_84\n      swap2\n      swap1\n      tag_49\n      jump\t// in\n    tag_84:\n      0x20\n      mload(0x40)\n      dup1\n      dup4\n      sub\n      dup2\n      dup7\n      dup1\n      extcodesize\n      iszero\n      dup1\n      iszero\n      tag_85\n      jumpi\n      0x00\n      dup1\n      revert\n    tag_85:\n      pop\n      gas\n      staticcall\n      iszero\n      dup1\n      iszero\n      tag_87\n      jumpi\n      returndatasize\n      0x00\n      dup1\n      returndatacopy\n      revert(0x00, returndatasize)\n    tag_87:\n      pop\n      pop\n      pop\n      pop\n      mload(0x40)\n      returndatasize\n      not(0x1f)\n      0x1f\n      dup3\n      add\n      and\n      dup3\n      add\n      dup1\n      0x40\n      mstore\n      pop\n      dup2\n      add\n      swap1\n      tag_88\n      swap2\n      swap1\n      tag_89\n      jump\t// in\n    tag_88:\n        /* \"test/sis.sol\":5125:5180  Safuu.transfer(owner(), Safuu.balanceOf(address(this))) */\n      mload(0x40)\n      dup4\n      0xffffffff\n      and\n      0xe0\n      shl\n      dup2\n      mstore\n      0x04\n      add\n      tag_90\n      swap3\n      swap2\n      swap1\n      tag_91\n      jump\t// in\n    tag_90:\n      0x20\n      mload(0x40)\n      dup1\n      dup4\n      sub\n      dup2\n      0x00\n      dup8\n      dup1\n      extcodesize\n      iszero\n      dup1\n      iszero\n      tag_92\n      jumpi\n      0x00\n      dup1\n      revert\n    tag_92:\n      pop\n      gas\n      call\n      iszero\n      dup1\n      iszero\n      tag_94\n      jumpi\n      returndatasize\n      0x00\n      dup1\n      returndatacopy\n      revert(0x00, returndatasize)\n    tag_94:\n      pop\n      pop\n      pop\n      pop\n      mload(0x40)\n      returndatasize\n      not(0x1f)\n      0x1f\n      dup3\n      add\n      and\n      dup3\n      add\n      dup1\n      0x40\n      mstore\n      pop\n      dup2\n      add\n      swap1\n      tag_95\n      swap2\n      swap1\n      tag_96\n      jump\t// in\n    tag_95:\n      pop\n        /* \"test/sis.sol\":5191:5195  USDC */\n      0x04\n      0x00\n      swap1\n      sload\n      swap1\n      0x0100\n      exp\n      swap1\n      div\n      0xffffffffffffffffffffffffffffffffffffffff\n      and\n        /* \"test/sis.sol\":5191:5204  USDC.transfer */\n      0xffffffffffffffffffffffffffffffffffffffff\n      and\n      0xa9059cbb\n        /* \"test/sis.sol\":5205:5212  owner() */\n      tag_97\n        /* \"test/sis.sol\":5205:5210  owner */\n      tag_47\n        /* \"test/sis.sol\":5205:5212  owner() */\n      jump\t// in\n    tag_97:\n        /* \"test/sis.sol\":5214:5218  USDC */\n      0x04\n      0x00\n      swap1\n      sload\n      swap1\n      0x0100\n      exp\n      swap1\n      div\n      0xffffffffffffffffffffffffffffffffffffffff\n      and\n        /* \"test/sis.sol\":5214:5228  USDC.balanceOf */\n      0xffffffffffffffffffffffffffffffffffffffff\n      and\n      0x70a08231\n        /* \"test/sis.sol\":5237:5241  this */\n      address\n        /* \"test/sis.sol\":5214:5243  USDC.balanceOf(address(this)) */\n      mload(0x40)\n      dup3\n      0xffffffff\n      and\n      0xe0\n      shl\n      dup2\n      mstore\n      0x04\n      add\n      tag_98\n      swap2\n      swap1\n      tag_49\n      jump\t// in\n    tag_98:\n      0x20\n      mload(0x40)\n      dup1\n      dup4\n      sub\n      dup2\n      dup7\n      dup1\n      extcodesize\n      iszero\n      dup1\n      iszero\n      tag_99\n      jumpi\n      0x00\n      dup1\n      revert\n    tag_99:\n      pop\n      gas\n      staticcall\n      iszero\n      dup1\n      iszero\n      tag_101\n      jumpi\n      returndatasize\n      0x00\n      dup1\n      returndatacopy\n      revert(0x00, returndatasize)\n    tag_101:\n      pop\n      pop\n      pop\n      pop\n      mload(0x40)\n      returndatasize\n      not(0x1f)\n      0x1f\n      dup3\n      add\n      and\n      dup3\n      add\n      dup1\n      0x40\n      mstore\n      pop\n      dup2\n      add\n      swap1\n      tag_102\n      swap2\n      swap1\n      tag_89\n      jump\t// in\n    tag_102:\n        /* \"test/sis.sol\":5191:5244  USDC.transfer(owner(), USDC.balanceOf(address(this))) */\n      mload(0x40)\n      dup4\n      0xffffffff\n      and\n      0xe0\n      shl\n      dup2\n      mstore\n      0x04\n      add\n      tag_103\n      swap3\n      swap2\n      swap1\n      tag_91\n      jump\t// in\n    tag_103:\n      0x20\n      mload(0x40)\n      dup1\n      dup4\n      sub\n      dup2\n      0x00\n      dup8\n      dup1\n      extcodesize\n      iszero\n      dup1\n      iszero\n      tag_104\n      jumpi\n      0x00\n      dup1\n      revert\n    tag_104:\n      pop\n      gas\n      call\n      iszero\n      dup1\n      iszero\n      tag_106\n      jumpi\n      returndatasize\n      0x00\n      dup1\n      returndatacopy\n      revert(0x00, returndatasize)\n    tag_106:\n      pop\n      pop\n      pop\n      pop\n      mload(0x40)\n      returndatasize\n      not(0x1f)\n      0x1f\n      dup3\n      add\n      and\n      dup3\n      add\n      dup1\n      0x40\n      mstore\n      pop\n      dup2\n      add\n      swap1\n      tag_107\n      swap2\n      swap1\n      tag_96\n      jump\t// in\n    tag_107:\n      pop\n        /* \"test/sis.sol\":4876:5252  { \r... */\n      pop\n        /* \"test/sis.sol\":4831:5252  function withdrawToOwner()\r... */\n      jump\t// out\n        /* \"test/Ownable.sol\":1661:1762  function renounceOwnership() public virtual onlyOwner {... */\n    tag_27:\n        /* \"test/Ownable.sol\":1252:1264  _msgSender() */\n      tag_109\n        /* \"test/Ownable.sol\":1252:1262  _msgSender */\n      tag_110\n        /* \"test/Ownable.sol\":1252:1264  _msgSender() */\n      jump\t// in\n    tag_109:\n        /* \"test/Ownable.sol\":1241:1264  owner() == _msgSender() */\n      0xffffffffffffffffffffffffffffffffffffffff\n      and\n        /* \"test/Ownable.sol\":1241:1248  owner() */\n      tag_111\n        /* \"test/Ownable.sol\":1241:1246  owner */\n      tag_47\n        /* \"test/Ownable.sol\":1241:1248  owner() */\n      jump\t// in\n    tag_111:\n        /* \"test/Ownable.sol\":1241:1264  owner() == _msgSender() */\n      0xffffffffffffffffffffffffffffffffffffffff\n      and\n      eq\n        /* \"test/Ownable.sol\":1233:1301  require(owner() == _msgSender(), \"Ownable: caller is not the owner\") */\n      tag_112\n      jumpi\n      mload(0x40)\n      0x08c379a000000000000000000000000000000000000000000000000000000000\n      dup2\n      mstore\n      0x04\n      add\n      tag_113\n      swap1\n      tag_114\n      jump\t// in\n    tag_113:\n      mload(0x40)\n      dup1\n      swap2\n      sub\n      swap1\n      revert\n    tag_112:\n        /* \"test/Ownable.sol\":1725:1755  _transferOwnership(address(0)) */\n      tag_116\n        /* \"test/Ownable.sol\":1752:1753  0 */\n      0x00\n        /* \"test/Ownable.sol\":1725:1743  _transferOwnership */\n      tag_117\n        /* \"test/Ownable.sol\":1725:1755  _transferOwnership(address(0)) */\n      jump\t// in\n    tag_116:\n        /* \"test/Ownable.sol\":1661:1762  function renounceOwnership() public virtual onlyOwner {... */\n      jump\t// out\n        /* \"test/sis.sol\":3459:3900  function buySafuu(uint256 amttobuy) public payable\r... */\n    tag_31:\n        /* \"test/sis.sol\":3546:3556  BnbToSafuu */\n      sload(0x02)\n        /* \"test/sis.sol\":3534:3542  amttobuy */\n      dup2\n        /* \"test/sis.sol\":3534:3556  amttobuy >= BnbToSafuu */\n      lt\n      iszero\n        /* \"test/sis.sol\":3526:3587  require(amttobuy >= BnbToSafuu, \"Minimum trade amount 1 bnb\") */\n      tag_119\n      jumpi\n      mload(0x40)\n      0x08c379a000000000000000000000000000000000000000000000000000000000\n      dup2\n      mstore\n      0x04\n      add\n      tag_120\n      swap1\n      tag_121\n      jump\t// in\n    tag_120:\n      mload(0x40)\n      dup1\n      swap2\n      sub\n      swap1\n      revert\n    tag_119:\n        /* \"test/sis.sol\":3598:3616  uint256 payableAmt */\n      0x00\n        /* \"test/sis.sol\":3677:3683  10**18 */\n      0x0de0b6b3a7640000\n        /* \"test/sis.sol\":3663:3673  BnbToSafuu */\n      sload(0x02)\n        /* \"test/sis.sol\":3654:3662  amttobuy */\n      dup4\n        /* \"test/sis.sol\":3654:3673  amttobuy/BnbToSafuu */\n      tag_122\n      swap2\n      swap1\n      tag_123\n      jump\t// in\n    tag_122:\n        /* \"test/sis.sol\":3653:3684  (amttobuy/BnbToSafuu) *(10**18) */\n      tag_124\n      swap2\n      swap1\n      tag_72\n      jump\t// in\n    tag_124:\n        /* \"test/sis.sol\":3640:3684  payableAmt = (amttobuy/BnbToSafuu) *(10**18) */\n      swap1\n      pop\n        /* \"test/sis.sol\":3696:3708  bool success */\n      0x00\n        /* \"test/sis.sol\":3714:3721  owner() */\n      tag_125\n        /* \"test/sis.sol\":3714:3719  owner */\n      tag_47\n        /* \"test/sis.sol\":3714:3721  owner() */\n      jump\t// in\n    tag_125:\n        /* \"test/sis.sol\":3714:3726  owner().call */\n      0xffffffffffffffffffffffffffffffffffffffff\n      and\n        /* \"test/sis.sol\":3734:3744  payableAmt */\n      dup3\n        /* \"test/sis.sol\":3714:3749  owner().call{value: payableAmt}(\"\") */\n      mload(0x40)\n      tag_126\n      swap1\n      tag_76\n      jump\t// in\n    tag_126:\n      0x00\n      mload(0x40)\n      dup1\n      dup4\n      sub\n      dup2\n      dup6\n      dup8\n      gas\n      call\n      swap3\n      pop\n      pop\n      pop\n      returndatasize\n      dup1\n      0x00\n      dup2\n      eq\n      tag_129\n      jumpi\n      mload(0x40)\n      swap2\n      pop\n      and(add(returndatasize, 0x3f), not(0x1f))\n      dup3\n      add\n      0x40\n      mstore\n      returndatasize\n      dup3\n      mstore\n      returndatasize\n      0x00\n      0x20\n      dup5\n      add\n      returndatacopy\n      jump(tag_128)\n    tag_129:\n      0x60\n      swap2\n      pop\n    tag_128:\n      pop\n        /* \"test/sis.sol\":3695:3749  (bool success, ) = owner().call{value: payableAmt}(\"\") */\n      pop\n      swap1\n      pop\n        /* \"test/sis.sol\":3768:3775  success */\n      dup1\n        /* \"test/sis.sol\":3760:3796  require(success, \"Transfer failed!\") */\n      tag_130\n      jumpi\n      mload(0x40)\n      0x08c379a000000000000000000000000000000000000000000000000000000000\n      dup2\n      mstore\n      0x04\n      add\n      tag_131\n      swap1\n      tag_132\n      jump\t// in\n    tag_131:\n      mload(0x40)\n      dup1\n      swap2\n      sub\n      swap1\n      revert\n    tag_130:\n        /* \"test/sis.sol\":3847:3852  Safuu */\n      0x03\n      0x00\n      swap1\n      sload\n      swap1\n      0x0100\n      exp\n      swap1\n      div\n      0xffffffffffffffffffffffffffffffffffffffff\n      and\n        /* \"test/sis.sol\":3847:3861  Safuu.transfer */\n      0xffffffffffffffffffffffffffffffffffffffff\n      and\n      0xa9059cbb\n        /* \"test/sis.sol\":3862:3872  msg.sender */\n      caller\n        /* \"test/sis.sol\":3874:3882  amttobuy */\n      dup6\n        /* \"test/sis.sol\":3847:3883  Safuu.transfer(msg.sender, amttobuy) */\n      mload(0x40)\n      dup4\n      0xffffffff\n      and\n      0xe0\n      shl\n      dup2\n      mstore\n      0x04\n      add\n      tag_133\n      swap3\n      swap2\n      swap1\n      tag_91\n      jump\t// in\n    tag_133:\n      0x20\n      mload(0x40)\n      dup1\n      dup4\n      sub\n      dup2\n      0x00\n      dup8\n      dup1\n      extcodesize\n      iszero\n      dup1\n      iszero\n      tag_134\n      jumpi\n      0x00\n      dup1\n      revert\n    tag_134:\n      pop\n      gas\n      call\n      iszero\n      dup1\n      iszero\n      tag_136\n      jumpi\n      returndatasize\n      0x00\n      dup1\n      returndatacopy\n      revert(0x00, returndatasize)\n    tag_136:\n      pop\n      pop\n      pop\n      pop\n      mload(0x40)\n      returndatasize\n      not(0x1f)\n      0x1f\n      dup3\n      add\n      and\n      dup3\n      add\n      dup1\n      0x40\n      mstore\n      pop\n      dup2\n      add\n      swap1\n      tag_137\n      swap2\n      swap1\n      tag_96\n      jump\t// in\n    tag_137:\n      pop\n        /* \"test/sis.sol\":3515:3900  {\r... */\n      pop\n      pop\n        /* \"test/sis.sol\":3459:3900  function buySafuu(uint256 amttobuy) public payable\r... */\n      pop\n      jump\t// out\n        /* \"test/sis.sol\":4717:4825  function setFactor(uint256 _newfactor) public onlyOwner {\r... */\n    tag_35:\n        /* \"test/Ownable.sol\":1252:1264  _msgSender() */\n      tag_139\n        /* \"test/Ownable.sol\":1252:1262  _msgSender */\n      tag_110\n        /* \"test/Ownable.sol\":1252:1264  _msgSender() */\n      jump\t// in\n    tag_139:\n        /* \"test/Ownable.sol\":1241:1264  owner() == _msgSender() */\n      0xffffffffffffffffffffffffffffffffffffffff\n      and\n        /* \"test/Ownable.sol\":1241:1248  owner() */\n      tag_140\n        /* \"test/Ownable.sol\":1241:1246  owner */\n      tag_47\n        /* \"test/Ownable.sol\":1241:1248  owner() */\n      jump\t// in\n    tag_140:\n        /* \"test/Ownable.sol\":1241:1264  owner() == _msgSender() */\n      0xffffffffffffffffffffffffffffffffffffffff\n      and\n      eq\n        /* \"test/Ownable.sol\":1233:1301  require(owner() == _msgSender(), \"Ownable: caller is not the owner\") */\n      tag_141\n      jumpi\n      mload(0x40)\n      0x08c379a000000000000000000000000000000000000000000000000000000000\n      dup2\n      mstore\n      0x04\n      add\n      tag_142\n      swap1\n      tag_114\n      jump\t// in\n    tag_142:\n      mload(0x40)\n      dup1\n      swap2\n      sub\n      swap1\n      revert\n    tag_141:\n        /* \"test/sis.sol\":4807:4817  _newfactor */\n      dup1\n        /* \"test/sis.sol\":4794:4804  BnbToSafuu */\n      0x02\n        /* \"test/sis.sol\":4794:4817  BnbToSafuu = _newfactor */\n      dup2\n      swap1\n      sstore\n      pop\n        /* \"test/sis.sol\":4717:4825  function setFactor(uint256 _newfactor) public onlyOwner {\r... */\n      pop\n      jump\t// out\n        /* \"test/sis.sol\":2798:2816  IERC20 public USDC */\n    tag_38:\n      0x04\n      0x00\n      swap1\n      sload\n      swap1\n      0x0100\n      exp\n      swap1\n      div\n      0xffffffffffffffffffffffffffffffffffffffff\n      and\n      dup2\n      jump\t// out\n        /* \"test/sis.sol\":2772:2791  IERC20 public Safuu */\n    tag_43:\n      0x03\n      0x00\n      swap1\n      sload\n      swap1\n      0x0100\n      exp\n      swap1\n      div\n      0xffffffffffffffffffffffffffffffffffffffff\n      and\n      dup2\n      jump\t// out\n        /* \"test/Ownable.sol\":1029:1114  function owner() public view virtual returns (address) {... */\n    tag_47:\n        /* \"test/Ownable.sol\":1075:1082  address */\n      0x00\n        /* \"test/Ownable.sol\":1101:1107  _owner */\n      dup1\n      0x00\n      swap1\n      sload\n      swap1\n      0x0100\n      exp\n      swap1\n      div\n      0xffffffffffffffffffffffffffffffffffffffff\n      and\n        /* \"test/Ownable.sol\":1094:1107  return _owner */\n      swap1\n      pop\n        /* \"test/Ownable.sol\":1029:1114  function owner() public view virtual returns (address) {... */\n      swap1\n      jump\t// out\n        /* \"test/sis.sol\":3906:4190  function getLatestPrice() public view returns (int) {\r... */\n    tag_52:\n        /* \"test/sis.sol\":3953:3956  int */\n      0x00\n        /* \"test/sis.sol\":3984:3998  uint80 roundID */\n      dup1\n        /* \"test/sis.sol\":4014:4023  int price */\n      0x00\n        /* \"test/sis.sol\":4038:4052  uint startedAt */\n      dup1\n        /* \"test/sis.sol\":4067:4081  uint timeStamp */\n      0x00\n        /* \"test/sis.sol\":4096:4118  uint80 answeredInRound */\n      dup1\n        /* \"test/sis.sol\":4132:4141  priceFeed */\n      0x01\n      0x00\n      swap1\n      sload\n      swap1\n      0x0100\n      exp\n      swap1\n      div\n      0xffffffffffffffffffffffffffffffffffffffff\n      and\n        /* \"test/sis.sol\":4132:4157  priceFeed.latestRoundData */\n      0xffffffffffffffffffffffffffffffffffffffff\n      and\n      0xfeaf968c\n        /* \"test/sis.sol\":4132:4159  priceFeed.latestRoundData() */\n      mload(0x40)\n      dup2\n      0xffffffff\n      and\n      0xe0\n      shl\n      dup2\n      mstore\n      0x04\n      add\n      0xa0\n      mload(0x40)\n      dup1\n      dup4\n      sub\n      dup2\n      dup7\n      dup1\n      extcodesize\n      iszero\n      dup1\n      iszero\n      tag_146\n      jumpi\n      0x00\n      dup1\n      revert\n    tag_146:\n      pop\n      gas\n      staticcall\n      iszero\n      dup1\n      iszero\n      tag_148\n      jumpi\n      returndatasize\n      0x00\n      dup1\n      returndatacopy\n      revert(0x00, returndatasize)\n    tag_148:\n      pop\n      pop\n      pop\n      pop\n      mload(0x40)\n      returndatasize\n      not(0x1f)\n      0x1f\n      dup3\n      add\n      and\n      dup3\n      add\n      dup1\n      0x40\n      mstore\n      pop\n      dup2\n      add\n      swap1\n      tag_149\n      swap2\n      swap1\n      tag_150\n      jump\t// in\n    tag_149:\n        /* \"test/sis.sol\":3969:4159  (\r... */\n      swap5\n      pop\n      swap5\n      pop\n      swap5\n      pop\n      swap5\n      pop\n      swap5\n      pop\n        /* \"test/sis.sol\":4177:4182  price */\n      dup4\n        /* \"test/sis.sol\":4170:4182  return price */\n      swap6\n      pop\n      pop\n      pop\n      pop\n      pop\n      pop\n        /* \"test/sis.sol\":3906:4190  function getLatestPrice() public view returns (int) {\r... */\n      swap1\n      jump\t// out\n        /* \"test/sis.sol\":4196:4707  function sellSafuu(uint256 amttosell) public \r... */\n    tag_58:\n        /* \"test/sis.sol\":4279:4289  BnbToSafuu */\n      sload(0x02)\n        /* \"test/sis.sol\":4266:4275  amttosell */\n      dup2\n        /* \"test/sis.sol\":4266:4289  amttosell == BnbToSafuu */\n      eq\n        /* \"test/sis.sol\":4258:4313  require(amttosell == BnbToSafuu, \"Must be 1 bnb worth\") */\n      tag_152\n      jumpi\n      mload(0x40)\n      0x08c379a000000000000000000000000000000000000000000000000000000000\n      dup2\n      mstore\n      0x04\n      add\n      tag_153\n      swap1\n      tag_154\n      jump\t// in\n    tag_153:\n      mload(0x40)\n      dup1\n      swap2\n      sub\n      swap1\n      revert\n    tag_152:\n        /* \"test/sis.sol\":4320:4382  _safeTransferFrom(Safuu, msg.sender, address(this), amttosell) */\n      tag_155\n        /* \"test/sis.sol\":4338:4343  Safuu */\n      0x03\n      0x00\n      swap1\n      sload\n      swap1\n      0x0100\n      exp\n      swap1\n      div\n      0xffffffffffffffffffffffffffffffffffffffff\n      and\n        /* \"test/sis.sol\":4345:4355  msg.sender */\n      caller\n        /* \"test/sis.sol\":4365:4369  this */\n      address\n        /* \"test/sis.sol\":4372:4381  amttosell */\n      dup5\n        /* \"test/sis.sol\":4320:4337  _safeTransferFrom */\n      tag_156\n        /* \"test/sis.sol\":4320:4382  _safeTransferFrom(Safuu, msg.sender, address(this), amttosell) */\n      jump\t// in\n    tag_155:\n        /* \"test/sis.sol\":4417:4429  uint256 usdc */\n      0x00\n        /* \"test/sis.sol\":4654:4660  10**10 */\n      0x02540be400\n        /* \"test/sis.sol\":4634:4650  getLatestPrice() */\n      tag_157\n        /* \"test/sis.sol\":4634:4648  getLatestPrice */\n      tag_52\n        /* \"test/sis.sol\":4634:4650  getLatestPrice() */\n      jump\t// in\n    tag_157:\n        /* \"test/sis.sol\":4626:4661  uint256(getLatestPrice()) *(10**10) */\n      tag_158\n      swap2\n      swap1\n      tag_72\n      jump\t// in\n    tag_158:\n        /* \"test/sis.sol\":4619:4661  usdc = uint256(getLatestPrice()) *(10**10) */\n      swap1\n      pop\n        /* \"test/sis.sol\":4668:4672  USDC */\n      0x04\n      0x00\n      swap1\n      sload\n      swap1\n      0x0100\n      exp\n      swap1\n      div\n      0xffffffffffffffffffffffffffffffffffffffff\n      and\n        /* \"test/sis.sol\":4668:4681  USDC.transfer */\n      0xffffffffffffffffffffffffffffffffffffffff\n      and\n      0xa9059cbb\n        /* \"test/sis.sol\":4682:4692  msg.sender */\n      caller\n        /* \"test/sis.sol\":4694:4698  usdc */\n      dup4\n        /* \"test/sis.sol\":4668:4699  USDC.transfer(msg.sender, usdc) */\n      mload(0x40)\n      dup4\n      0xffffffff\n      and\n      0xe0\n      shl\n      dup2\n      mstore\n      0x04\n      add\n      tag_159\n      swap3\n      swap2\n      swap1\n      tag_91\n      jump\t// in\n    tag_159:\n      0x20\n      mload(0x40)\n      dup1\n      dup4\n      sub\n      dup2\n      0x00\n      dup8\n      dup1\n      extcodesize\n      iszero\n      dup1\n      iszero\n      tag_160\n      jumpi\n      0x00\n      dup1\n      revert\n    tag_160:\n      pop\n      gas\n      call\n      iszero\n      dup1\n      iszero\n      tag_162\n      jumpi\n      returndatasize\n      0x00\n      dup1\n      returndatacopy\n      revert(0x00, returndatasize)\n    tag_162:\n      pop\n      pop\n      pop\n      pop\n      mload(0x40)\n      returndatasize\n      not(0x1f)\n      0x1f\n      dup3\n      add\n      and\n      dup3\n      add\n      dup1\n      0x40\n      mstore\n      pop\n      dup2\n      add\n      swap1\n      tag_163\n      swap2\n      swap1\n      tag_96\n      jump\t// in\n    tag_163:\n      pop\n        /* \"test/sis.sol\":4247:4707  {\r... */\n      pop\n        /* \"test/sis.sol\":4196:4707  function sellSafuu(uint256 amttosell) public \r... */\n      pop\n      jump\t// out\n        /* \"test/sis.sol\":2738:2764  uint256  public BnbToSafuu */\n    tag_61:\n      sload(0x02)\n      dup2\n      jump\t// out\n        /* \"test/Ownable.sol\":1911:2109  function transferOwnership(address newOwner) public virtual onlyOwner {... */\n    tag_67:\n        /* \"test/Ownable.sol\":1252:1264  _msgSender() */\n      tag_165\n        /* \"test/Ownable.sol\":1252:1262  _msgSender */\n      tag_110\n        /* \"test/Ownable.sol\":1252:1264  _msgSender() */\n      jump\t// in\n    tag_165:\n        /* \"test/Ownable.sol\":1241:1264  owner() == _msgSender() */\n      0xffffffffffffffffffffffffffffffffffffffff\n      and\n        /* \"test/Ownable.sol\":1241:1248  owner() */\n      tag_166\n        /* \"test/Ownable.sol\":1241:1246  owner */\n      tag_47\n        /* \"test/Ownable.sol\":1241:1248  owner() */\n      jump\t// in\n    tag_166:\n        /* \"test/Ownable.sol\":1241:1264  owner() == _msgSender() */\n      0xffffffffffffffffffffffffffffffffffffffff\n      and\n      eq\n        /* \"test/Ownable.sol\":1233:1301  require(owner() == _msgSender(), \"Ownable: caller is not the owner\") */\n      tag_167\n      jumpi\n      mload(0x40)\n      0x08c379a000000000000000000000000000000000000000000000000000000000\n      dup2\n      mstore\n      0x04\n      add\n      tag_168\n      swap1\n      tag_114\n      jump\t// in\n    tag_168:\n      mload(0x40)\n      dup1\n      swap2\n      sub\n      swap1\n      revert\n    tag_167:\n        /* \"test/Ownable.sol\":2019:2020  0 */\n      0x00\n        /* \"test/Ownable.sol\":1999:2021  newOwner != address(0) */\n      0xffffffffffffffffffffffffffffffffffffffff\n      and\n        /* \"test/Ownable.sol\":1999:2007  newOwner */\n      dup2\n        /* \"test/Ownable.sol\":1999:2021  newOwner != address(0) */\n      0xffffffffffffffffffffffffffffffffffffffff\n      and\n      eq\n      iszero\n        /* \"test/Ownable.sol\":1991:2064  require(newOwner != address(0), \"Ownable: new owner is the zero address\") */\n      tag_170\n      jumpi\n      mload(0x40)\n      0x08c379a000000000000000000000000000000000000000000000000000000000\n      dup2\n      mstore\n      0x04\n      add\n      tag_171\n      swap1\n      tag_172\n      jump\t// in\n    tag_171:\n      mload(0x40)\n      dup1\n      swap2\n      sub\n      swap1\n      revert\n    tag_170:\n        /* \"test/Ownable.sol\":2074:2102  _transferOwnership(newOwner) */\n      tag_173\n        /* \"test/Ownable.sol\":2093:2101  newOwner */\n      dup2\n        /* \"test/Ownable.sol\":2074:2092  _transferOwnership */\n      tag_117\n        /* \"test/Ownable.sol\":2074:2102  _transferOwnership(newOwner) */\n      jump\t// in\n    tag_173:\n        /* \"test/Ownable.sol\":1911:2109  function transferOwnership(address newOwner) public virtual onlyOwner {... */\n      pop\n      jump\t// out\n        /* \"test/sis.sol\":2051:2183  function div(uint256 a, uint256 b) internal pure returns (uint256) {\r... */\n    tag_70:\n        /* \"test/sis.sol\":2109:2116  uint256 */\n      0x00\n        /* \"test/sis.sol\":2136:2175  div(a, b, \"SafeMath: division by zero\") */\n      tag_175\n        /* \"test/sis.sol\":2140:2141  a */\n      dup4\n        /* \"test/sis.sol\":2143:2144  b */\n      dup4\n        /* \"test/sis.sol\":2136:2175  div(a, b, \"SafeMath: division by zero\") */\n      mload(0x40)\n      dup1\n      0x40\n      add\n      0x40\n      mstore\n      dup1\n      0x1a\n      dup2\n      mstore\n      0x20\n      add\n      0x536166654d6174683a206469766973696f6e206279207a65726f000000000000\n      dup2\n      mstore\n      pop\n        /* \"test/sis.sol\":2136:2139  div */\n      tag_176\n        /* \"test/sis.sol\":2136:2175  div(a, b, \"SafeMath: division by zero\") */\n      jump\t// in\n    tag_175:\n        /* \"test/sis.sol\":2129:2175  return div(a, b, \"SafeMath: division by zero\") */\n      swap1\n      pop\n        /* \"test/sis.sol\":2051:2183  function div(uint256 a, uint256 b) internal pure returns (uint256) {\r... */\n      swap3\n      swap2\n      pop\n      pop\n      jump\t// out\n        /* \"test/Context.sol\":640:736  function _msgSender() internal view virtual returns (address) {... */\n    tag_110:\n        /* \"test/Context.sol\":693:700  address */\n      0x00\n        /* \"test/Context.sol\":719:729  msg.sender */\n      caller\n        /* \"test/Context.sol\":712:729  return msg.sender */\n      swap1\n      pop\n        /* \"test/Context.sol\":640:736  function _msgSender() internal view virtual returns (address) {... */\n      swap1\n      jump\t// out\n        /* \"test/Ownable.sol\":2263:2450  function _transferOwnership(address newOwner) internal virtual {... */\n    tag_117:\n        /* \"test/Ownable.sol\":2336:2352  address oldOwner */\n      0x00\n        /* \"test/Ownable.sol\":2355:2361  _owner */\n      dup1\n      0x00\n      swap1\n      sload\n      swap1\n      0x0100\n      exp\n      swap1\n      div\n      0xffffffffffffffffffffffffffffffffffffffff\n      and\n        /* \"test/Ownable.sol\":2336:2361  address oldOwner = _owner */\n      swap1\n      pop\n        /* \"test/Ownable.sol\":2380:2388  newOwner */\n      dup2\n        /* \"test/Ownable.sol\":2371:2377  _owner */\n      0x00\n      dup1\n        /* \"test/Ownable.sol\":2371:2388  _owner = newOwner */\n      0x0100\n      exp\n      dup2\n      sload\n      dup2\n      0xffffffffffffffffffffffffffffffffffffffff\n      mul\n      not\n      and\n      swap1\n      dup4\n      0xffffffffffffffffffffffffffffffffffffffff\n      and\n      mul\n      or\n      swap1\n      sstore\n      pop\n        /* \"test/Ownable.sol\":2434:2442  newOwner */\n      dup2\n        /* \"test/Ownable.sol\":2403:2443  OwnershipTransferred(oldOwner, newOwner) */\n      0xffffffffffffffffffffffffffffffffffffffff\n      and\n        /* \"test/Ownable.sol\":2424:2432  oldOwner */\n      dup2\n        /* \"test/Ownable.sol\":2403:2443  OwnershipTransferred(oldOwner, newOwner) */\n      0xffffffffffffffffffffffffffffffffffffffff\n      and\n      0x8be0079c531659141344cd1fd0a4f28419497f9722a3daafe3b4186f6b6457e0\n      mload(0x40)\n      mload(0x40)\n      dup1\n      swap2\n      sub\n      swap1\n      log3\n        /* \"test/Ownable.sol\":2326:2450  {... */\n      pop\n        /* \"test/Ownable.sol\":2263:2450  function _transferOwnership(address newOwner) internal virtual {... */\n      pop\n      jump\t// out\n        /* \"test/sis.sol\":5258:5526  function _safeTransferFrom(\r... */\n    tag_156:\n        /* \"test/sis.sol\":5412:5421  bool sent */\n      0x00\n        /* \"test/sis.sol\":5424:5429  token */\n      dup5\n        /* \"test/sis.sol\":5424:5442  token.transferFrom */\n      0xffffffffffffffffffffffffffffffffffffffff\n      and\n      0x23b872dd\n        /* \"test/sis.sol\":5443:5449  sender */\n      dup6\n        /* \"test/sis.sol\":5451:5460  recipient */\n      dup6\n        /* \"test/sis.sol\":5462:5468  amount */\n      dup6\n        /* \"test/sis.sol\":5424:5469  token.transferFrom(sender, recipient, amount) */\n      mload(0x40)\n      dup5\n      0xffffffff\n      and\n      0xe0\n      shl\n      dup2\n      mstore\n      0x04\n      add\n      tag_180\n      swap4\n      swap3\n      swap2\n      swap1\n      tag_181\n      jump\t// in\n    tag_180:\n      0x20\n      mload(0x40)\n      dup1\n      dup4\n      sub\n      dup2\n      0x00\n      dup8\n      dup1\n      extcodesize\n      iszero\n      dup1\n      iszero\n      tag_182\n      jumpi\n      0x00\n      dup1\n      revert\n    tag_182:\n      pop\n      gas\n      call\n      iszero\n      dup1\n      iszero\n      tag_184\n      jumpi\n      returndatasize\n      0x00\n      dup1\n      returndatacopy\n      revert(0x00, returndatasize)\n    tag_184:\n      pop\n      pop\n      pop\n      pop\n      mload(0x40)\n      returndatasize\n      not(0x1f)\n      0x1f\n      dup3\n      add\n      and\n      dup3\n      add\n      dup1\n      0x40\n      mstore\n      pop\n      dup2\n      add\n      swap1\n      tag_185\n      swap2\n      swap1\n      tag_96\n      jump\t// in\n    tag_185:\n        /* \"test/sis.sol\":5412:5469  bool sent = token.transferFrom(sender, recipient, amount) */\n      swap1\n      pop\n        /* \"test/sis.sol\":5488:5492  sent */\n      dup1\n        /* \"test/sis.sol\":5480:5518  require(sent, \"Token transfer failed\") */\n      tag_186\n      jumpi\n      mload(0x40)\n      0x08c379a000000000000000000000000000000000000000000000000000000000\n      dup2\n      mstore\n      0x04\n      add\n      tag_187\n      swap1\n      tag_188\n      jump\t// in\n    tag_187:\n      mload(0x40)\n      dup1\n      swap2\n      sub\n      swap1\n      revert\n    tag_186:\n        /* \"test/sis.sol\":5401:5526  {\r... */\n      pop\n        /* \"test/sis.sol\":5258:5526  function _safeTransferFrom(\r... */\n      pop\n      pop\n      pop\n      pop\n      jump\t// out\n        /* \"test/sis.sol\":2191:2416  function div(\r... */\n    tag_176:\n        /* \"test/sis.sol\":2311:2318  uint256 */\n      0x00\n        /* \"test/sis.sol\":2343:2344  0 */\n      dup1\n        /* \"test/sis.sol\":2339:2340  b */\n      dup4\n        /* \"test/sis.sol\":2339:2344  b > 0 */\n      gt\n        /* \"test/sis.sol\":2346:2358  errorMessage */\n      dup3\n        /* \"test/sis.sol\":2331:2359  require(b > 0, errorMessage) */\n      swap1\n      tag_190\n      jumpi\n      mload(0x40)\n      0x08c379a000000000000000000000000000000000000000000000000000000000\n      dup2\n      mstore\n      0x04\n      add\n      tag_191\n      swap2\n      swap1\n      tag_192\n      jump\t// in\n    tag_191:\n      mload(0x40)\n      dup1\n      swap2\n      sub\n      swap1\n      revert\n    tag_190:\n      pop\n        /* \"test/sis.sol\":2370:2379  uint256 c */\n      0x00\n        /* \"test/sis.sol\":2386:2387  b */\n      dup4\n        /* \"test/sis.sol\":2382:2383  a */\n      dup6\n        /* \"test/sis.sol\":2382:2387  a / b */\n      tag_193\n      swap2\n      swap1\n      tag_123\n      jump\t// in\n    tag_193:\n        /* \"test/sis.sol\":2370:2387  uint256 c = a / b */\n      swap1\n      pop\n        /* \"test/sis.sol\":2407:2408  c */\n      dup1\n        /* \"test/sis.sol\":2400:2408  return c */\n      swap2\n      pop\n      pop\n        /* \"test/sis.sol\":2191:2416  function div(\r... */\n      swap4\n      swap3\n      pop\n      pop\n      pop\n      jump\t// out\n        /* \"#utility.yul\":7:146   */\n    tag_195:\n        /* \"#utility.yul\":53:58   */\n      0x00\n        /* \"#utility.yul\":91:97   */\n      dup2\n        /* \"#utility.yul\":78:98   */\n      calldataload\n        /* \"#utility.yul\":69:98   */\n      swap1\n      pop\n        /* \"#utility.yul\":107:140   */\n      tag_197\n        /* \"#utility.yul\":134:139   */\n      dup2\n        /* \"#utility.yul\":107:140   */\n      tag_198\n      jump\t// in\n    tag_197:\n        /* \"#utility.yul\":7:146   */\n      swap3\n      swap2\n      pop\n      pop\n      jump\t// out\n        /* \"#utility.yul\":152:289   */\n    tag_199:\n        /* \"#utility.yul\":206:211   */\n      0x00\n        /* \"#utility.yul\":237:243   */\n      dup2\n        /* \"#utility.yul\":231:244   */\n      mload\n        /* \"#utility.yul\":222:244   */\n      swap1\n      pop\n        /* \"#utility.yul\":253:283   */\n      tag_201\n        /* \"#utility.yul\":277:282   */\n      dup2\n        /* \"#utility.yul\":253:283   */\n      tag_202\n      jump\t// in\n    tag_201:\n        /* \"#utility.yul\":152:289   */\n      swap3\n      swap2\n      pop\n      pop\n      jump\t// out\n        /* \"#utility.yul\":295:436   */\n    tag_203:\n        /* \"#utility.yul\":351:356   */\n      0x00\n        /* \"#utility.yul\":382:388   */\n      dup2\n        /* \"#utility.yul\":376:389   */\n      mload\n        /* \"#utility.yul\":367:389   */\n      swap1\n      pop\n        /* \"#utility.yul\":398:430   */\n      tag_205\n        /* \"#utility.yul\":424:429   */\n      dup2\n        /* \"#utility.yul\":398:430   */\n      tag_206\n      jump\t// in\n    tag_205:\n        /* \"#utility.yul\":295:436   */\n      swap3\n      swap2\n      pop\n      pop\n      jump\t// out\n        /* \"#utility.yul\":442:581   */\n    tag_207:\n        /* \"#utility.yul\":488:493   */\n      0x00\n        /* \"#utility.yul\":526:532   */\n      dup2\n        /* \"#utility.yul\":513:533   */\n      calldataload\n        /* \"#utility.yul\":504:533   */\n      swap1\n      pop\n        /* \"#utility.yul\":542:575   */\n      tag_209\n        /* \"#utility.yul\":569:574   */\n      dup2\n        /* \"#utility.yul\":542:575   */\n      tag_210\n      jump\t// in\n    tag_209:\n        /* \"#utility.yul\":442:581   */\n      swap3\n      swap2\n      pop\n      pop\n      jump\t// out\n        /* \"#utility.yul\":587:730   */\n    tag_211:\n        /* \"#utility.yul\":644:649   */\n      0x00\n        /* \"#utility.yul\":675:681   */\n      dup2\n        /* \"#utility.yul\":669:682   */\n      mload\n        /* \"#utility.yul\":660:682   */\n      swap1\n      pop\n        /* \"#utility.yul\":691:724   */\n      tag_213\n        /* \"#utility.yul\":718:723   */\n      dup2\n        /* \"#utility.yul\":691:724   */\n      tag_210\n      jump\t// in\n    tag_213:\n        /* \"#utility.yul\":587:730   */\n      swap3\n      swap2\n      pop\n      pop\n      jump\t// out\n        /* \"#utility.yul\":736:877   */\n    tag_214:\n        /* \"#utility.yul\":792:797   */\n      0x00\n        /* \"#utility.yul\":823:829   */\n      dup2\n        /* \"#utility.yul\":817:830   */\n      mload\n        /* \"#utility.yul\":808:830   */\n      swap1\n      pop\n        /* \"#utility.yul\":839:871   */\n      tag_216\n        /* \"#utility.yul\":865:870   */\n      dup2\n        /* \"#utility.yul\":839:871   */\n      tag_217\n      jump\t// in\n    tag_216:\n        /* \"#utility.yul\":736:877   */\n      swap3\n      swap2\n      pop\n      pop\n      jump\t// out\n        /* \"#utility.yul\":883:1212   */\n    tag_66:\n        /* \"#utility.yul\":942:948   */\n      0x00\n        /* \"#utility.yul\":991:993   */\n      0x20\n        /* \"#utility.yul\":979:988   */\n      dup3\n        /* \"#utility.yul\":970:977   */\n      dup5\n        /* \"#utility.yul\":966:989   */\n      sub\n        /* \"#utility.yul\":962:994   */\n      slt\n        /* \"#utility.yul\":959:1078   */\n      iszero\n      tag_219\n      jumpi\n        /* \"#utility.yul\":997:1076   */\n      tag_220\n      tag_221\n      jump\t// in\n    tag_220:\n        /* \"#utility.yul\":959:1078   */\n    tag_219:\n        /* \"#utility.yul\":1117:1118   */\n      0x00\n        /* \"#utility.yul\":1142:1195   */\n      tag_222\n        /* \"#utility.yul\":1187:1194   */\n      dup5\n        /* \"#utility.yul\":1178:1184   */\n      dup3\n        /* \"#utility.yul\":1167:1176   */\n      dup6\n        /* \"#utility.yul\":1163:1185   */\n      add\n        /* \"#utility.yul\":1142:1195   */\n      tag_195\n      jump\t// in\n    tag_222:\n        /* \"#utility.yul\":1132:1195   */\n      swap2\n      pop\n        /* \"#utility.yul\":1088:1205   */\n      pop\n        /* \"#utility.yul\":883:1212   */\n      swap3\n      swap2\n      pop\n      pop\n      jump\t// out\n        /* \"#utility.yul\":1218:1563   */\n    tag_96:\n        /* \"#utility.yul\":1285:1291   */\n      0x00\n        /* \"#utility.yul\":1334:1336   */\n      0x20\n        /* \"#utility.yul\":1322:1331   */\n      dup3\n        /* \"#utility.yul\":1313:1320   */\n      dup5\n        /* \"#utility.yul\":1309:1332   */\n      sub\n        /* \"#utility.yul\":1305:1337   */\n      slt\n        /* \"#utility.yul\":1302:1421   */\n      iszero\n      tag_224\n      jumpi\n        /* \"#utility.yul\":1340:1419   */\n      tag_225\n      tag_221\n      jump\t// in\n    tag_225:\n        /* \"#utility.yul\":1302:1421   */\n    tag_224:\n        /* \"#utility.yul\":1460:1461   */\n      0x00\n        /* \"#utility.yul\":1485:1546   */\n      tag_226\n        /* \"#utility.yul\":1538:1545   */\n      dup5\n        /* \"#utility.yul\":1529:1535   */\n      dup3\n        /* \"#utility.yul\":1518:1527   */\n      dup6\n        /* \"#utility.yul\":1514:1536   */\n      add\n        /* \"#utility.yul\":1485:1546   */\n      tag_199\n      jump\t// in\n    tag_226:\n        /* \"#utility.yul\":1475:1546   */\n      swap2\n      pop\n        /* \"#utility.yul\":1431:1556   */\n      pop\n        /* \"#utility.yul\":1218:1563   */\n      swap3\n      swap2\n      pop\n      pop\n      jump\t// out\n        /* \"#utility.yul\":1569:1898   */\n    tag_30:\n        /* \"#utility.yul\":1628:1634   */\n      0x00\n        /* \"#utility.yul\":1677:1679   */\n      0x20\n        /* \"#utility.yul\":1665:1674   */\n      dup3\n        /* \"#utility.yul\":1656:1663   */\n      dup5\n        /* \"#utility.yul\":1652:1675   */\n      sub\n        /* \"#utility.yul\":1648:1680   */\n      slt\n        /* \"#utility.yul\":1645:1764   */\n      iszero\n      tag_228\n      jumpi\n        /* \"#utility.yul\":1683:1762   */\n      tag_229\n      tag_221\n      jump\t// in\n    tag_229:\n        /* \"#utility.yul\":1645:1764   */\n    tag_228:\n        /* \"#utility.yul\":1803:1804   */\n      0x00\n        /* \"#utility.yul\":1828:1881   */\n      tag_230\n        /* \"#utility.yul\":1873:1880   */\n      dup5\n        /* \"#utility.yul\":1864:1870   */\n      dup3\n        /* \"#utility.yul\":1853:1862   */\n      dup6\n        /* \"#utility.yul\":1849:1871   */\n      add\n        /* \"#utility.yul\":1828:1881   */\n      tag_207\n      jump\t// in\n    tag_230:\n        /* \"#utility.yul\":1818:1881   */\n      swap2\n      pop\n        /* \"#utility.yul\":1774:1891   */\n      pop\n        /* \"#utility.yul\":1569:1898   */\n      swap3\n      swap2\n      pop\n      pop\n      jump\t// out\n        /* \"#utility.yul\":1904:2255   */\n    tag_89:\n        /* \"#utility.yul\":1974:1980   */\n      0x00\n        /* \"#utility.yul\":2023:2025   */\n      0x20\n        /* \"#utility.yul\":2011:2020   */\n      dup3\n        /* \"#utility.yul\":2002:2009   */\n      dup5\n        /* \"#utility.yul\":1998:2021   */\n      sub\n        /* \"#utility.yul\":1994:2026   */\n      slt\n        /* \"#utility.yul\":1991:2110   */\n      iszero\n      tag_232\n      jumpi\n        /* \"#utility.yul\":2029:2108   */\n      tag_233\n      tag_221\n      jump\t// in\n    tag_233:\n        /* \"#utility.yul\":1991:2110   */\n    tag_232:\n        /* \"#utility.yul\":2149:2150   */\n      0x00\n        /* \"#utility.yul\":2174:2238   */\n      tag_234\n        /* \"#utility.yul\":2230:2237   */\n      dup5\n        /* \"#utility.yul\":2221:2227   */\n      dup3\n        /* \"#utility.yul\":2210:2219   */\n      dup6\n        /* \"#utility.yul\":2206:2228   */\n      add\n        /* \"#utility.yul\":2174:2238   */\n      tag_211\n      jump\t// in\n    tag_234:\n        /* \"#utility.yul\":2164:2238   */\n      swap2\n      pop\n        /* \"#utility.yul\":2120:2248   */\n      pop\n        /* \"#utility.yul\":1904:2255   */\n      swap3\n      swap2\n      pop\n      pop\n      jump\t// out\n        /* \"#utility.yul\":2261:2735   */\n    tag_18:\n        /* \"#utility.yul\":2329:2335   */\n      0x00\n        /* \"#utility.yul\":2337:2343   */\n      dup1\n        /* \"#utility.yul\":2386:2388   */\n      0x40\n        /* \"#utility.yul\":2374:2383   */\n      dup4\n        /* \"#utility.yul\":2365:2372   */\n      dup6\n        /* \"#utility.yul\":2361:2384   */\n      sub\n        /* \"#utility.yul\":2357:2389   */\n      slt\n        /* \"#utility.yul\":2354:2473   */\n      iszero\n      tag_236\n      jumpi\n        /* \"#utility.yul\":2392:2471   */\n      tag_237\n      tag_221\n      jump\t// in\n    tag_237:\n        /* \"#utility.yul\":2354:2473   */\n    tag_236:\n        /* \"#utility.yul\":2512:2513   */\n      0x00\n        /* \"#utility.yul\":2537:2590   */\n      tag_238\n        /* \"#utility.yul\":2582:2589   */\n      dup6\n        /* \"#utility.yul\":2573:2579   */\n      dup3\n        /* \"#utility.yul\":2562:2571   */\n      dup7\n        /* \"#utility.yul\":2558:2580   */\n      add\n        /* \"#utility.yul\":2537:2590   */\n      tag_207\n      jump\t// in\n    tag_238:\n        /* \"#utility.yul\":2527:2590   */\n      swap3\n      pop\n        /* \"#utility.yul\":2483:2600   */\n      pop\n        /* \"#utility.yul\":2639:2641   */\n      0x20\n        /* \"#utility.yul\":2665:2718   */\n      tag_239\n        /* \"#utility.yul\":2710:2717   */\n      dup6\n        /* \"#utility.yul\":2701:2707   */\n      dup3\n        /* \"#utility.yul\":2690:2699   */\n      dup7\n        /* \"#utility.yul\":2686:2708   */\n      add\n        /* \"#utility.yul\":2665:2718   */\n      tag_207\n      jump\t// in\n    tag_239:\n        /* \"#utility.yul\":2655:2718   */\n      swap2\n      pop\n        /* \"#utility.yul\":2610:2728   */\n      pop\n        /* \"#utility.yul\":2261:2735   */\n      swap3\n      pop\n      swap3\n      swap1\n      pop\n      jump\t// out\n        /* \"#utility.yul\":2741:3712   */\n    tag_150:\n        /* \"#utility.yul\":2844:2850   */\n      0x00\n        /* \"#utility.yul\":2852:2858   */\n      dup1\n        /* \"#utility.yul\":2860:2866   */\n      0x00\n        /* \"#utility.yul\":2868:2874   */\n      dup1\n        /* \"#utility.yul\":2876:2882   */\n      0x00\n        /* \"#utility.yul\":2925:2928   */\n      0xa0\n        /* \"#utility.yul\":2913:2922   */\n      dup7\n        /* \"#utility.yul\":2904:2911   */\n      dup9\n        /* \"#utility.yul\":2900:2923   */\n      sub\n        /* \"#utility.yul\":2896:2929   */\n      slt\n        /* \"#utility.yul\":2893:3013   */\n      iszero\n      tag_241\n      jumpi\n        /* \"#utility.yul\":2932:3011   */\n      tag_242\n      tag_221\n      jump\t// in\n    tag_242:\n        /* \"#utility.yul\":2893:3013   */\n    tag_241:\n        /* \"#utility.yul\":3052:3053   */\n      0x00\n        /* \"#utility.yul\":3077:3140   */\n      tag_243\n        /* \"#utility.yul\":3132:3139   */\n      dup9\n        /* \"#utility.yul\":3123:3129   */\n      dup3\n        /* \"#utility.yul\":3112:3121   */\n      dup10\n        /* \"#utility.yul\":3108:3130   */\n      add\n        /* \"#utility.yul\":3077:3140   */\n      tag_214\n      jump\t// in\n    tag_243:\n        /* \"#utility.yul\":3067:3140   */\n      swap6\n      pop\n        /* \"#utility.yul\":3023:3150   */\n      pop\n        /* \"#utility.yul\":3189:3191   */\n      0x20\n        /* \"#utility.yul\":3215:3278   */\n      tag_244\n        /* \"#utility.yul\":3270:3277   */\n      dup9\n        /* \"#utility.yul\":3261:3267   */\n      dup3\n        /* \"#utility.yul\":3250:3259   */\n      dup10\n        /* \"#utility.yul\":3246:3268   */\n      add\n        /* \"#utility.yul\":3215:3278   */\n      tag_203\n      jump\t// in\n    tag_244:\n        /* \"#utility.yul\":3205:3278   */\n      swap5\n      pop\n        /* \"#utility.yul\":3160:3288   */\n      pop\n        /* \"#utility.yul\":3327:3329   */\n      0x40\n        /* \"#utility.yul\":3353:3417   */\n      tag_245\n        /* \"#utility.yul\":3409:3416   */\n      dup9\n        /* \"#utility.yul\":3400:3406   */\n      dup3\n        /* \"#utility.yul\":3389:3398   */\n      dup10\n        /* \"#utility.yul\":3385:3407   */\n      add\n        /* \"#utility.yul\":3353:3417   */\n      tag_211\n      jump\t// in\n    tag_245:\n        /* \"#utility.yul\":3343:3417   */\n      swap4\n      pop\n        /* \"#utility.yul\":3298:3427   */\n      pop\n        /* \"#utility.yul\":3466:3468   */\n      0x60\n        /* \"#utility.yul\":3492:3556   */\n      tag_246\n        /* \"#utility.yul\":3548:3555   */\n      dup9\n        /* \"#utility.yul\":3539:3545   */\n      dup3\n        /* \"#utility.yul\":3528:3537   */\n      dup10\n        /* \"#utility.yul\":3524:3546   */\n      add\n        /* \"#utility.yul\":3492:3556   */\n      tag_211\n      jump\t// in\n    tag_246:\n        /* \"#utility.yul\":3482:3556   */\n      swap3\n      pop\n        /* \"#utility.yul\":3437:3566   */\n      pop\n        /* \"#utility.yul\":3605:3608   */\n      0x80\n        /* \"#utility.yul\":3632:3695   */\n      tag_247\n        /* \"#utility.yul\":3687:3694   */\n      dup9\n        /* \"#utility.yul\":3678:3684   */\n      dup3\n        /* \"#utility.yul\":3667:3676   */\n      dup10\n        /* \"#utility.yul\":3663:3685   */\n      add\n        /* \"#utility.yul\":3632:3695   */\n      tag_214\n      jump\t// in\n    tag_247:\n        /* \"#utility.yul\":3622:3695   */\n      swap2\n      pop\n        /* \"#utility.yul\":3576:3705   */\n      pop\n        /* \"#utility.yul\":2741:3712   */\n      swap3\n      swap6\n      pop\n      swap3\n      swap6\n      swap1\n      swap4\n      pop\n      jump\t// out\n        /* \"#utility.yul\":3718:3836   */\n    tag_248:\n        /* \"#utility.yul\":3805:3829   */\n      tag_250\n        /* \"#utility.yul\":3823:3828   */\n      dup2\n        /* \"#utility.yul\":3805:3829   */\n      tag_251\n      jump\t// in\n    tag_250:\n        /* \"#utility.yul\":3800:3803   */\n      dup3\n        /* \"#utility.yul\":3793:3830   */\n      mstore\n        /* \"#utility.yul\":3718:3836   */\n      pop\n      pop\n      jump\t// out\n        /* \"#utility.yul\":3842:4001   */\n    tag_252:\n        /* \"#utility.yul\":3943:3994   */\n      tag_254\n        /* \"#utility.yul\":3988:3993   */\n      dup2\n        /* \"#utility.yul\":3943:3994   */\n      tag_255\n      jump\t// in\n    tag_254:\n        /* \"#utility.yul\":3938:3941   */\n      dup3\n        /* \"#utility.yul\":3931:3995   */\n      mstore\n        /* \"#utility.yul\":3842:4001   */\n      pop\n      pop\n      jump\t// out\n        /* \"#utility.yul\":4007:4122   */\n    tag_256:\n        /* \"#utility.yul\":4092:4115   */\n      tag_258\n        /* \"#utility.yul\":4109:4114   */\n      dup2\n        /* \"#utility.yul\":4092:4115   */\n      tag_259\n      jump\t// in\n    tag_258:\n        /* \"#utility.yul\":4087:4090   */\n      dup3\n        /* \"#utility.yul\":4080:4116   */\n      mstore\n        /* \"#utility.yul\":4007:4122   */\n      pop\n      pop\n      jump\t// out\n        /* \"#utility.yul\":4128:4492   */\n    tag_260:\n        /* \"#utility.yul\":4216:4219   */\n      0x00\n        /* \"#utility.yul\":4244:4283   */\n      tag_262\n        /* \"#utility.yul\":4277:4282   */\n      dup3\n        /* \"#utility.yul\":4244:4283   */\n      tag_263\n      jump\t// in\n    tag_262:\n        /* \"#utility.yul\":4299:4370   */\n      tag_264\n        /* \"#utility.yul\":4363:4369   */\n      dup2\n        /* \"#utility.yul\":4358:4361   */\n      dup6\n        /* \"#utility.yul\":4299:4370   */\n      tag_265\n      jump\t// in\n    tag_264:\n        /* \"#utility.yul\":4292:4370   */\n      swap4\n      pop\n        /* \"#utility.yul\":4379:4431   */\n      tag_266\n        /* \"#utility.yul\":4424:4430   */\n      dup2\n        /* \"#utility.yul\":4419:4422   */\n      dup6\n        /* \"#utility.yul\":4412:4416   */\n      0x20\n        /* \"#utility.yul\":4405:4410   */\n      dup7\n        /* \"#utility.yul\":4401:4417   */\n      add\n        /* \"#utility.yul\":4379:4431   */\n      tag_267\n      jump\t// in\n    tag_266:\n        /* \"#utility.yul\":4456:4485   */\n      tag_268\n        /* \"#utility.yul\":4478:4484   */\n      dup2\n        /* \"#utility.yul\":4456:4485   */\n      tag_269\n      jump\t// in\n    tag_268:\n        /* \"#utility.yul\":4451:4454   */\n      dup5\n        /* \"#utility.yul\":4447:4486   */\n      add\n        /* \"#utility.yul\":4440:4486   */\n      swap2\n      pop\n        /* \"#utility.yul\":4220:4492   */\n      pop\n        /* \"#utility.yul\":4128:4492   */\n      swap3\n      swap2\n      pop\n      pop\n      jump\t// out\n        /* \"#utility.yul\":4498:4864   */\n    tag_270:\n        /* \"#utility.yul\":4640:4643   */\n      0x00\n        /* \"#utility.yul\":4661:4728   */\n      tag_272\n        /* \"#utility.yul\":4725:4727   */\n      0x26\n        /* \"#utility.yul\":4720:4723   */\n      dup4\n        /* \"#utility.yul\":4661:4728   */\n      tag_265\n      jump\t// in\n    tag_272:\n        /* \"#utility.yul\":4654:4728   */\n      swap2\n      pop\n        /* \"#utility.yul\":4737:4830   */\n      tag_273\n        /* \"#utility.yul\":4826:4829   */\n      dup3\n        /* \"#utility.yul\":4737:4830   */\n      tag_274\n      jump\t// in\n    tag_273:\n        /* \"#utility.yul\":4855:4857   */\n      0x40\n        /* \"#utility.yul\":4850:4853   */\n      dup3\n        /* \"#utility.yul\":4846:4858   */\n      add\n        /* \"#utility.yul\":4839:4858   */\n      swap1\n      pop\n        /* \"#utility.yul\":4498:4864   */\n      swap2\n      swap1\n      pop\n      jump\t// out\n        /* \"#utility.yul\":4870:5236   */\n    tag_275:\n        /* \"#utility.yul\":5012:5015   */\n      0x00\n        /* \"#utility.yul\":5033:5100   */\n      tag_277\n        /* \"#utility.yul\":5097:5099   */\n      0x14\n        /* \"#utility.yul\":5092:5095   */\n      dup4\n        /* \"#utility.yul\":5033:5100   */\n      tag_265\n      jump\t// in\n    tag_277:\n        /* \"#utility.yul\":5026:5100   */\n      swap2\n      pop\n        /* \"#utility.yul\":5109:5202   */\n      tag_278\n        /* \"#utility.yul\":5198:5201   */\n      dup3\n        /* \"#utility.yul\":5109:5202   */\n      tag_279\n      jump\t// in\n    tag_278:\n        /* \"#utility.yul\":5227:5229   */\n      0x20\n        /* \"#utility.yul\":5222:5225   */\n      dup3\n        /* \"#utility.yul\":5218:5230   */\n      add\n        /* \"#utility.yul\":5211:5230   */\n      swap1\n      pop\n        /* \"#utility.yul\":4870:5236   */\n      swap2\n      swap1\n      pop\n      jump\t// out\n        /* \"#utility.yul\":5242:5608   */\n    tag_280:\n        /* \"#utility.yul\":5384:5387   */\n      0x00\n        /* \"#utility.yul\":5405:5472   */\n      tag_282\n        /* \"#utility.yul\":5469:5471   */\n      0x15\n        /* \"#utility.yul\":5464:5467   */\n      dup4\n        /* \"#utility.yul\":5405:5472   */\n      tag_265\n      jump\t// in\n    tag_282:\n        /* \"#utility.yul\":5398:5472   */\n      swap2\n      pop\n        /* \"#utility.yul\":5481:5574   */\n      tag_283\n        /* \"#utility.yul\":5570:5573   */\n      dup3\n        /* \"#utility.yul\":5481:5574   */\n      tag_284\n      jump\t// in\n    tag_283:\n        /* \"#utility.yul\":5599:5601   */\n      0x20\n        /* \"#utility.yul\":5594:5597   */\n      dup3\n        /* \"#utility.yul\":5590:5602   */\n      add\n        /* \"#utility.yul\":5583:5602   */\n      swap1\n      pop\n        /* \"#utility.yul\":5242:5608   */\n      swap2\n      swap1\n      pop\n      jump\t// out\n        /* \"#utility.yul\":5614:5980   */\n    tag_285:\n        /* \"#utility.yul\":5756:5759   */\n      0x00\n        /* \"#utility.yul\":5777:5844   */\n      tag_287\n        /* \"#utility.yul\":5841:5843   */\n      0x1a\n        /* \"#utility.yul\":5836:5839   */\n      dup4\n        /* \"#utility.yul\":5777:5844   */\n      tag_265\n      jump\t// in\n    tag_287:\n        /* \"#utility.yul\":5770:5844   */\n      swap2\n      pop\n        /* \"#utility.yul\":5853:5946   */\n      tag_288\n        /* \"#utility.yul\":5942:5945   */\n      dup3\n        /* \"#utility.yul\":5853:5946   */\n      tag_289\n      jump\t// in\n    tag_288:\n        /* \"#utility.yul\":5971:5973   */\n      0x20\n        /* \"#utility.yul\":5966:5969   */\n      dup3\n        /* \"#utility.yul\":5962:5974   */\n      add\n        /* \"#utility.yul\":5955:5974   */\n      swap1\n      pop\n        /* \"#utility.yul\":5614:5980   */\n      swap2\n      swap1\n      pop\n      jump\t// out\n        /* \"#utility.yul\":5986:6352   */\n    tag_290:\n        /* \"#utility.yul\":6128:6131   */\n      0x00\n        /* \"#utility.yul\":6149:6216   */\n      tag_292\n        /* \"#utility.yul\":6213:6215   */\n      0x13\n        /* \"#utility.yul\":6208:6211   */\n      dup4\n        /* \"#utility.yul\":6149:6216   */\n      tag_265\n      jump\t// in\n    tag_292:\n        /* \"#utility.yul\":6142:6216   */\n      swap2\n      pop\n        /* \"#utility.yul\":6225:6318   */\n      tag_293\n        /* \"#utility.yul\":6314:6317   */\n      dup3\n        /* \"#utility.yul\":6225:6318   */\n      tag_294\n      jump\t// in\n    tag_293:\n        /* \"#utility.yul\":6343:6345   */\n      0x20\n        /* \"#utility.yul\":6338:6341   */\n      dup3\n        /* \"#utility.yul\":6334:6346   */\n      add\n        /* \"#utility.yul\":6327:6346   */\n      swap1\n      pop\n        /* \"#utility.yul\":5986:6352   */\n      swap2\n      swap1\n      pop\n      jump\t// out\n        /* \"#utility.yul\":6358:6724   */\n    tag_295:\n        /* \"#utility.yul\":6500:6503   */\n      0x00\n        /* \"#utility.yul\":6521:6588   */\n      tag_297\n        /* \"#utility.yul\":6585:6587   */\n      0x10\n        /* \"#utility.yul\":6580:6583   */\n      dup4\n        /* \"#utility.yul\":6521:6588   */\n      tag_265\n      jump\t// in\n    tag_297:\n        /* \"#utility.yul\":6514:6588   */\n      swap2\n      pop\n        /* \"#utility.yul\":6597:6690   */\n      tag_298\n        /* \"#utility.yul\":6686:6689   */\n      dup3\n        /* \"#utility.yul\":6597:6690   */\n      tag_299\n      jump\t// in\n    tag_298:\n        /* \"#utility.yul\":6715:6717   */\n      0x20\n        /* \"#utility.yul\":6710:6713   */\n      dup3\n        /* \"#utility.yul\":6706:6718   */\n      add\n        /* \"#utility.yul\":6699:6718   */\n      swap1\n      pop\n        /* \"#utility.yul\":6358:6724   */\n      swap2\n      swap1\n      pop\n      jump\t// out\n        /* \"#utility.yul\":6730:7096   */\n    tag_300:\n        /* \"#utility.yul\":6872:6875   */\n      0x00\n        /* \"#utility.yul\":6893:6960   */\n      tag_302\n        /* \"#utility.yul\":6957:6959   */\n      0x20\n        /* \"#utility.yul\":6952:6955   */\n      dup4\n        /* \"#utility.yul\":6893:6960   */\n      tag_265\n      jump\t// in\n    tag_302:\n        /* \"#utility.yul\":6886:6960   */\n      swap2\n      pop\n        /* \"#utility.yul\":6969:7062   */\n      tag_303\n        /* \"#utility.yul\":7058:7061   */\n      dup3\n        /* \"#utility.yul\":6969:7062   */\n      tag_304\n      jump\t// in\n    tag_303:\n        /* \"#utility.yul\":7087:7089   */\n      0x20\n        /* \"#utility.yul\":7082:7085   */\n      dup3\n        /* \"#utility.yul\":7078:7090   */\n      add\n        /* \"#utility.yul\":7071:7090   */\n      swap1\n      pop\n        /* \"#utility.yul\":6730:7096   */\n      swap2\n      swap1\n      pop\n      jump\t// out\n        /* \"#utility.yul\":7102:7500   */\n    tag_305:\n        /* \"#utility.yul\":7261:7264   */\n      0x00\n        /* \"#utility.yul\":7282:7365   */\n      tag_307\n        /* \"#utility.yul\":7363:7364   */\n      0x00\n        /* \"#utility.yul\":7358:7361   */\n      dup4\n        /* \"#utility.yul\":7282:7365   */\n      tag_308\n      jump\t// in\n    tag_307:\n        /* \"#utility.yul\":7275:7365   */\n      swap2\n      pop\n        /* \"#utility.yul\":7374:7467   */\n      tag_309\n        /* \"#utility.yul\":7463:7466   */\n      dup3\n        /* \"#utility.yul\":7374:7467   */\n      tag_310\n      jump\t// in\n    tag_309:\n        /* \"#utility.yul\":7492:7493   */\n      0x00\n        /* \"#utility.yul\":7487:7490   */\n      dup3\n        /* \"#utility.yul\":7483:7494   */\n      add\n        /* \"#utility.yul\":7476:7494   */\n      swap1\n      pop\n        /* \"#utility.yul\":7102:7500   */\n      swap2\n      swap1\n      pop\n      jump\t// out\n        /* \"#utility.yul\":7506:7624   */\n    tag_311:\n        /* \"#utility.yul\":7593:7617   */\n      tag_313\n        /* \"#utility.yul\":7611:7616   */\n      dup2\n        /* \"#utility.yul\":7593:7617   */\n      tag_314\n      jump\t// in\n    tag_313:\n        /* \"#utility.yul\":7588:7591   */\n      dup3\n        /* \"#utility.yul\":7581:7618   */\n      mstore\n        /* \"#utility.yul\":7506:7624   */\n      pop\n      pop\n      jump\t// out\n        /* \"#utility.yul\":7630:8009   */\n    tag_76:\n        /* \"#utility.yul\":7814:7817   */\n      0x00\n        /* \"#utility.yul\":7836:7983   */\n      tag_316\n        /* \"#utility.yul\":7979:7982   */\n      dup3\n        /* \"#utility.yul\":7836:7983   */\n      tag_305\n      jump\t// in\n    tag_316:\n        /* \"#utility.yul\":7829:7983   */\n      swap2\n      pop\n        /* \"#utility.yul\":8000:8003   */\n      dup2\n        /* \"#utility.yul\":7993:8003   */\n      swap1\n      pop\n        /* \"#utility.yul\":7630:8009   */\n      swap2\n      swap1\n      pop\n      jump\t// out\n        /* \"#utility.yul\":8015:8237   */\n    tag_49:\n        /* \"#utility.yul\":8108:8112   */\n      0x00\n        /* \"#utility.yul\":8146:8148   */\n      0x20\n        /* \"#utility.yul\":8135:8144   */\n      dup3\n        /* \"#utility.yul\":8131:8149   */\n      add\n        /* \"#utility.yul\":8123:8149   */\n      swap1\n      pop\n        /* \"#utility.yul\":8159:8230   */\n      tag_318\n        /* \"#utility.yul\":8227:8228   */\n      0x00\n        /* \"#utility.yul\":8216:8225   */\n      dup4\n        /* \"#utility.yul\":8212:8229   */\n      add\n        /* \"#utility.yul\":8203:8209   */\n      dup5\n        /* \"#utility.yul\":8159:8230   */\n      tag_248\n      jump\t// in\n    tag_318:\n        /* \"#utility.yul\":8015:8237   */\n      swap3\n      swap2\n      pop\n      pop\n      jump\t// out\n        /* \"#utility.yul\":8243:8685   */\n    tag_181:\n        /* \"#utility.yul\":8392:8396   */\n      0x00\n        /* \"#utility.yul\":8430:8432   */\n      0x60\n        /* \"#utility.yul\":8419:8428   */\n      dup3\n        /* \"#utility.yul\":8415:8433   */\n      add\n        /* \"#utility.yul\":8407:8433   */\n      swap1\n      pop\n        /* \"#utility.yul\":8443:8514   */\n      tag_320\n        /* \"#utility.yul\":8511:8512   */\n      0x00\n        /* \"#utility.yul\":8500:8509   */\n      dup4\n        /* \"#utility.yul\":8496:8513   */\n      add\n        /* \"#utility.yul\":8487:8493   */\n      dup7\n        /* \"#utility.yul\":8443:8514   */\n      tag_248\n      jump\t// in\n    tag_320:\n        /* \"#utility.yul\":8524:8596   */\n      tag_321\n        /* \"#utility.yul\":8592:8594   */\n      0x20\n        /* \"#utility.yul\":8581:8590   */\n      dup4\n        /* \"#utility.yul\":8577:8595   */\n      add\n        /* \"#utility.yul\":8568:8574   */\n      dup6\n        /* \"#utility.yul\":8524:8596   */\n      tag_248\n      jump\t// in\n    tag_321:\n        /* \"#utility.yul\":8606:8678   */\n      tag_322\n        /* \"#utility.yul\":8674:8676   */\n      0x40\n        /* \"#utility.yul\":8663:8672   */\n      dup4\n        /* \"#utility.yul\":8659:8677   */\n      add\n        /* \"#utility.yul\":8650:8656   */\n      dup5\n        /* \"#utility.yul\":8606:8678   */\n      tag_311\n      jump\t// in\n    tag_322:\n        /* \"#utility.yul\":8243:8685   */\n      swap5\n      swap4\n      pop\n      pop\n      pop\n      pop\n      jump\t// out\n        /* \"#utility.yul\":8691:9023   */\n    tag_91:\n        /* \"#utility.yul\":8812:8816   */\n      0x00\n        /* \"#utility.yul\":8850:8852   */\n      0x40\n        /* \"#utility.yul\":8839:8848   */\n      dup3\n        /* \"#utility.yul\":8835:8853   */\n      add\n        /* \"#utility.yul\":8827:8853   */\n      swap1\n      pop\n        /* \"#utility.yul\":8863:8934   */\n      tag_324\n        /* \"#utility.yul\":8931:8932   */\n      0x00\n        /* \"#utility.yul\":8920:8929   */\n      dup4\n        /* \"#utility.yul\":8916:8933   */\n      add\n        /* \"#utility.yul\":8907:8913   */\n      dup6\n        /* \"#utility.yul\":8863:8934   */\n      tag_248\n      jump\t// in\n    tag_324:\n        /* \"#utility.yul\":8944:9016   */\n      tag_325\n        /* \"#utility.yul\":9012:9014   */\n      0x20\n        /* \"#utility.yul\":9001:9010   */\n      dup4\n        /* \"#utility.yul\":8997:9015   */\n      add\n        /* \"#utility.yul\":8988:8994   */\n      dup5\n        /* \"#utility.yul\":8944:9016   */\n      tag_311\n      jump\t// in\n    tag_325:\n        /* \"#utility.yul\":8691:9023   */\n      swap4\n      swap3\n      pop\n      pop\n      pop\n      jump\t// out\n        /* \"#utility.yul\":9029:9279   */\n    tag_40:\n        /* \"#utility.yul\":9136:9140   */\n      0x00\n        /* \"#utility.yul\":9174:9176   */\n      0x20\n        /* \"#utility.yul\":9163:9172   */\n      dup3\n        /* \"#utility.yul\":9159:9177   */\n      add\n        /* \"#utility.yul\":9151:9177   */\n      swap1\n      pop\n        /* \"#utility.yul\":9187:9272   */\n      tag_327\n        /* \"#utility.yul\":9269:9270   */\n      0x00\n        /* \"#utility.yul\":9258:9267   */\n      dup4\n        /* \"#utility.yul\":9254:9271   */\n      add\n        /* \"#utility.yul\":9245:9251   */\n      dup5\n        /* \"#utility.yul\":9187:9272   */\n      tag_252\n      jump\t// in\n    tag_327:\n        /* \"#utility.yul\":9029:9279   */\n      swap3\n      swap2\n      pop\n      pop\n      jump\t// out\n        /* \"#utility.yul\":9285:9503   */\n    tag_54:\n        /* \"#utility.yul\":9376:9380   */\n      0x00\n        /* \"#utility.yul\":9414:9416   */\n      0x20\n        /* \"#utility.yul\":9403:9412   */\n      dup3\n        /* \"#utility.yul\":9399:9417   */\n      add\n        /* \"#utility.yul\":9391:9417   */\n      swap1\n      pop\n        /* \"#utility.yul\":9427:9496   */\n      tag_329\n        /* \"#utility.yul\":9493:9494   */\n      0x00\n        /* \"#utility.yul\":9482:9491   */\n      dup4\n        /* \"#utility.yul\":9478:9495   */\n      add\n        /* \"#utility.yul\":9469:9475   */\n      dup5\n        /* \"#utility.yul\":9427:9496   */\n      tag_256\n      jump\t// in\n    tag_329:\n        /* \"#utility.yul\":9285:9503   */\n      swap3\n      swap2\n      pop\n      pop\n      jump\t// out\n        /* \"#utility.yul\":9509:9822   */\n    tag_192:\n        /* \"#utility.yul\":9622:9626   */\n      0x00\n        /* \"#utility.yul\":9660:9662   */\n      0x20\n        /* \"#utility.yul\":9649:9658   */\n      dup3\n        /* \"#utility.yul\":9645:9663   */\n      add\n        /* \"#utility.yul\":9637:9663   */\n      swap1\n      pop\n        /* \"#utility.yul\":9709:9718   */\n      dup2\n        /* \"#utility.yul\":9703:9707   */\n      dup2\n        /* \"#utility.yul\":9699:9719   */\n      sub\n        /* \"#utility.yul\":9695:9696   */\n      0x00\n        /* \"#utility.yul\":9684:9693   */\n      dup4\n        /* \"#utility.yul\":9680:9697   */\n      add\n        /* \"#utility.yul\":9673:9720   */\n      mstore\n        /* \"#utility.yul\":9737:9815   */\n      tag_331\n        /* \"#utility.yul\":9810:9814   */\n      dup2\n        /* \"#utility.yul\":9801:9807   */\n      dup5\n        /* \"#utility.yul\":9737:9815   */\n      tag_260\n      jump\t// in\n    tag_331:\n        /* \"#utility.yul\":9729:9815   */\n      swap1\n      pop\n        /* \"#utility.yul\":9509:9822   */\n      swap3\n      swap2\n      pop\n      pop\n      jump\t// out\n        /* \"#utility.yul\":9828:10247   */\n    tag_172:\n        /* \"#utility.yul\":9994:9998   */\n      0x00\n        /* \"#utility.yul\":10032:10034   */\n      0x20\n        /* \"#utility.yul\":10021:10030   */\n      dup3\n        /* \"#utility.yul\":10017:10035   */\n      add\n        /* \"#utility.yul\":10009:10035   */\n      swap1\n      pop\n        /* \"#utility.yul\":10081:10090   */\n      dup2\n        /* \"#utility.yul\":10075:10079   */\n      dup2\n        /* \"#utility.yul\":10071:10091   */\n      sub\n        /* \"#utility.yul\":10067:10068   */\n      0x00\n        /* \"#utility.yul\":10056:10065   */\n      dup4\n        /* \"#utility.yul\":10052:10069   */\n      add\n        /* \"#utility.yul\":10045:10092   */\n      mstore\n        /* \"#utility.yul\":10109:10240   */\n      tag_333\n        /* \"#utility.yul\":10235:10239   */\n      dup2\n        /* \"#utility.yul\":10109:10240   */\n      tag_270\n      jump\t// in\n    tag_333:\n        /* \"#utility.yul\":10101:10240   */\n      swap1\n      pop\n        /* \"#utility.yul\":9828:10247   */\n      swap2\n      swap1\n      pop\n      jump\t// out\n        /* \"#utility.yul\":10253:10672   */\n    tag_82:\n        /* \"#utility.yul\":10419:10423   */\n      0x00\n        /* \"#utility.yul\":10457:10459   */\n      0x20\n        /* \"#utility.yul\":10446:10455   */\n      dup3\n        /* \"#utility.yul\":10442:10460   */\n      add\n        /* \"#utility.yul\":10434:10460   */\n      swap1\n      pop\n        /* \"#utility.yul\":10506:10515   */\n      dup2\n        /* \"#utility.yul\":10500:10504   */\n      dup2\n        /* \"#utility.yul\":10496:10516   */\n      sub\n        /* \"#utility.yul\":10492:10493   */\n      0x00\n        /* \"#utility.yul\":10481:10490   */\n      dup4\n        /* \"#utility.yul\":10477:10494   */\n      add\n        /* \"#utility.yul\":10470:10517   */\n      mstore\n        /* \"#utility.yul\":10534:10665   */\n      tag_335\n        /* \"#utility.yul\":10660:10664   */\n      dup2\n        /* \"#utility.yul\":10534:10665   */\n      tag_275\n      jump\t// in\n    tag_335:\n        /* \"#utility.yul\":10526:10665   */\n      swap1\n      pop\n        /* \"#utility.yul\":10253:10672   */\n      swap2\n      swap1\n      pop\n      jump\t// out\n        /* \"#utility.yul\":10678:11097   */\n    tag_188:\n        /* \"#utility.yul\":10844:10848   */\n      0x00\n        /* \"#utility.yul\":10882:10884   */\n      0x20\n        /* \"#utility.yul\":10871:10880   */\n      dup3\n        /* \"#utility.yul\":10867:10885   */\n      add\n        /* \"#utility.yul\":10859:10885   */\n      swap1\n      pop\n        /* \"#utility.yul\":10931:10940   */\n      dup2\n        /* \"#utility.yul\":10925:10929   */\n      dup2\n        /* \"#utility.yul\":10921:10941   */\n      sub\n        /* \"#utility.yul\":10917:10918   */\n      0x00\n        /* \"#utility.yul\":10906:10915   */\n      dup4\n        /* \"#utility.yul\":10902:10919   */\n      add\n        /* \"#utility.yul\":10895:10942   */\n      mstore\n        /* \"#utility.yul\":10959:11090   */\n      tag_337\n        /* \"#utility.yul\":11085:11089   */\n      dup2\n        /* \"#utility.yul\":10959:11090   */\n      tag_280\n      jump\t// in\n    tag_337:\n        /* \"#utility.yul\":10951:11090   */\n      swap1\n      pop\n        /* \"#utility.yul\":10678:11097   */\n      swap2\n      swap1\n      pop\n      jump\t// out\n        /* \"#utility.yul\":11103:11522   */\n    tag_121:\n        /* \"#utility.yul\":11269:11273   */\n      0x00\n        /* \"#utility.yul\":11307:11309   */\n      0x20\n        /* \"#utility.yul\":11296:11305   */\n      dup3\n        /* \"#utility.yul\":11292:11310   */\n      add\n        /* \"#utility.yul\":11284:11310   */\n      swap1\n      pop\n        /* \"#utility.yul\":11356:11365   */\n      dup2\n        /* \"#utility.yul\":11350:11354   */\n      dup2\n        /* \"#utility.yul\":11346:11366   */\n      sub\n        /* \"#utility.yul\":11342:11343   */\n      0x00\n        /* \"#utility.yul\":11331:11340   */\n      dup4\n        /* \"#utility.yul\":11327:11344   */\n      add\n        /* \"#utility.yul\":11320:11367   */\n      mstore\n        /* \"#utility.yul\":11384:11515   */\n      tag_339\n        /* \"#utility.yul\":11510:11514   */\n      dup2\n        /* \"#utility.yul\":11384:11515   */\n      tag_285\n      jump\t// in\n    tag_339:\n        /* \"#utility.yul\":11376:11515   */\n      swap1\n      pop\n        /* \"#utility.yul\":11103:11522   */\n      swap2\n      swap1\n      pop\n      jump\t// out\n        /* \"#utility.yul\":11528:11947   */\n    tag_154:\n        /* \"#utility.yul\":11694:11698   */\n      0x00\n        /* \"#utility.yul\":11732:11734   */\n      0x20\n        /* \"#utility.yul\":11721:11730   */\n      dup3\n        /* \"#utility.yul\":11717:11735   */\n      add\n        /* \"#utility.yul\":11709:11735   */\n      swap1\n      pop\n        /* \"#utility.yul\":11781:11790   */\n      dup2\n        /* \"#utility.yul\":11775:11779   */\n      dup2\n        /* \"#utility.yul\":11771:11791   */\n      sub\n        /* \"#utility.yul\":11767:11768   */\n      0x00\n        /* \"#utility.yul\":11756:11765   */\n      dup4\n        /* \"#utility.yul\":11752:11769   */\n      add\n        /* \"#utility.yul\":11745:11792   */\n      mstore\n        /* \"#utility.yul\":11809:11940   */\n      tag_341\n        /* \"#utility.yul\":11935:11939   */\n      dup2\n        /* \"#utility.yul\":11809:11940   */\n      tag_290\n      jump\t// in\n    tag_341:\n        /* \"#utility.yul\":11801:11940   */\n      swap1\n      pop\n        /* \"#utility.yul\":11528:11947   */\n      swap2\n      swap1\n      pop\n      jump\t// out\n        /* \"#utility.yul\":11953:12372   */\n    tag_132:\n        /* \"#utility.yul\":12119:12123   */\n      0x00\n        /* \"#utility.yul\":12157:12159   */\n      0x20\n        /* \"#utility.yul\":12146:12155   */\n      dup3\n        /* \"#utility.yul\":12142:12160   */\n      add\n        /* \"#utility.yul\":12134:12160   */\n      swap1\n      pop\n        /* \"#utility.yul\":12206:12215   */\n      dup2\n        /* \"#utility.yul\":12200:12204   */\n      dup2\n        /* \"#utility.yul\":12196:12216   */\n      sub\n        /* \"#utility.yul\":12192:12193   */\n      0x00\n        /* \"#utility.yul\":12181:12190   */\n      dup4\n        /* \"#utility.yul\":12177:12194   */\n      add\n        /* \"#utility.yul\":12170:12217   */\n      mstore\n        /* \"#utility.yul\":12234:12365   */\n      tag_343\n        /* \"#utility.yul\":12360:12364   */\n      dup2\n        /* \"#utility.yul\":12234:12365   */\n      tag_295\n      jump\t// in\n    tag_343:\n        /* \"#utility.yul\":12226:12365   */\n      swap1\n      pop\n        /* \"#utility.yul\":11953:12372   */\n      swap2\n      swap1\n      pop\n      jump\t// out\n        /* \"#utility.yul\":12378:12797   */\n    tag_114:\n        /* \"#utility.yul\":12544:12548   */\n      0x00\n        /* \"#utility.yul\":12582:12584   */\n      0x20\n        /* \"#utility.yul\":12571:12580   */\n      dup3\n        /* \"#utility.yul\":12567:12585   */\n      add\n        /* \"#utility.yul\":12559:12585   */\n      swap1\n      pop\n        /* \"#utility.yul\":12631:12640   */\n      dup2\n        /* \"#utility.yul\":12625:12629   */\n      dup2\n        /* \"#utility.yul\":12621:12641   */\n      sub\n        /* \"#utility.yul\":12617:12618   */\n      0x00\n        /* \"#utility.yul\":12606:12615   */\n      dup4\n        /* \"#utility.yul\":12602:12619   */\n      add\n        /* \"#utility.yul\":12595:12642   */\n      mstore\n        /* \"#utility.yul\":12659:12790   */\n      tag_345\n        /* \"#utility.yul\":12785:12789   */\n      dup2\n        /* \"#utility.yul\":12659:12790   */\n      tag_300\n      jump\t// in\n    tag_345:\n        /* \"#utility.yul\":12651:12790   */\n      swap1\n      pop\n        /* \"#utility.yul\":12378:12797   */\n      swap2\n      swap1\n      pop\n      jump\t// out\n        /* \"#utility.yul\":12803:13025   */\n    tag_21:\n        /* \"#utility.yul\":12896:12900   */\n      0x00\n        /* \"#utility.yul\":12934:12936   */\n      0x20\n        /* \"#utility.yul\":12923:12932   */\n      dup3\n        /* \"#utility.yul\":12919:12937   */\n      add\n        /* \"#utility.yul\":12911:12937   */\n      swap1\n      pop\n        /* \"#utility.yul\":12947:13018   */\n      tag_347\n        /* \"#utility.yul\":13015:13016   */\n      0x00\n        /* \"#utility.yul\":13004:13013   */\n      dup4\n        /* \"#utility.yul\":13000:13017   */\n      add\n        /* \"#utility.yul\":12991:12997   */\n      dup5\n        /* \"#utility.yul\":12947:13018   */\n      tag_311\n      jump\t// in\n    tag_347:\n        /* \"#utility.yul\":12803:13025   */\n      swap3\n      swap2\n      pop\n      pop\n      jump\t// out\n        /* \"#utility.yul\":13112:13211   */\n    tag_263:\n        /* \"#utility.yul\":13164:13170   */\n      0x00\n        /* \"#utility.yul\":13198:13203   */\n      dup2\n        /* \"#utility.yul\":13192:13204   */\n      mload\n        /* \"#utility.yul\":13182:13204   */\n      swap1\n      pop\n        /* \"#utility.yul\":13112:13211   */\n      swap2\n      swap1\n      pop\n      jump\t// out\n        /* \"#utility.yul\":13217:13364   */\n    tag_308:\n        /* \"#utility.yul\":13318:13329   */\n      0x00\n        /* \"#utility.yul\":13355:13358   */\n      dup2\n        /* \"#utility.yul\":13340:13358   */\n      swap1\n      pop\n        /* \"#utility.yul\":13217:13364   */\n      swap3\n      swap2\n      pop\n      pop\n      jump\t// out\n        /* \"#utility.yul\":13370:13539   */\n    tag_265:\n        /* \"#utility.yul\":13454:13465   */\n      0x00\n        /* \"#utility.yul\":13488:13494   */\n      dup3\n        /* \"#utility.yul\":13483:13486   */\n      dup3\n        /* \"#utility.yul\":13476:13495   */\n      mstore\n        /* \"#utility.yul\":13528:13532   */\n      0x20\n        /* \"#utility.yul\":13523:13526   */\n      dup3\n        /* \"#utility.yul\":13519:13533   */\n      add\n        /* \"#utility.yul\":13504:13533   */\n      swap1\n      pop\n        /* \"#utility.yul\":13370:13539   */\n      swap3\n      swap2\n      pop\n      pop\n      jump\t// out\n        /* \"#utility.yul\":13545:13730   */\n    tag_123:\n        /* \"#utility.yul\":13585:13586   */\n      0x00\n        /* \"#utility.yul\":13602:13622   */\n      tag_354\n        /* \"#utility.yul\":13620:13621   */\n      dup3\n        /* \"#utility.yul\":13602:13622   */\n      tag_314\n      jump\t// in\n    tag_354:\n        /* \"#utility.yul\":13597:13622   */\n      swap2\n      pop\n        /* \"#utility.yul\":13636:13656   */\n      tag_355\n        /* \"#utility.yul\":13654:13655   */\n      dup4\n        /* \"#utility.yul\":13636:13656   */\n      tag_314\n      jump\t// in\n    tag_355:\n        /* \"#utility.yul\":13631:13656   */\n      swap3\n      pop\n        /* \"#utility.yul\":13675:13676   */\n      dup3\n        /* \"#utility.yul\":13665:13700   */\n      tag_356\n      jumpi\n        /* \"#utility.yul\":13680:13698   */\n      tag_357\n      tag_358\n      jump\t// in\n    tag_357:\n        /* \"#utility.yul\":13665:13700   */\n    tag_356:\n        /* \"#utility.yul\":13722:13723   */\n      dup3\n        /* \"#utility.yul\":13719:13720   */\n      dup3\n        /* \"#utility.yul\":13715:13724   */\n      div\n        /* \"#utility.yul\":13710:13724   */\n      swap1\n      pop\n        /* \"#utility.yul\":13545:13730   */\n      swap3\n      swap2\n      pop\n      pop\n      jump\t// out\n        /* \"#utility.yul\":13736:14084   */\n    tag_72:\n        /* \"#utility.yul\":13776:13783   */\n      0x00\n        /* \"#utility.yul\":13799:13819   */\n      tag_360\n        /* \"#utility.yul\":13817:13818   */\n      dup3\n        /* \"#utility.yul\":13799:13819   */\n      tag_314\n      jump\t// in\n    tag_360:\n        /* \"#utility.yul\":13794:13819   */\n      swap2\n      pop\n        /* \"#utility.yul\":13833:13853   */\n      tag_361\n        /* \"#utility.yul\":13851:13852   */\n      dup4\n        /* \"#utility.yul\":13833:13853   */\n      tag_314\n      jump\t// in\n    tag_361:\n        /* \"#utility.yul\":13828:13853   */\n      swap3\n      pop\n        /* \"#utility.yul\":14021:14022   */\n      dup2\n        /* \"#utility.yul\":13953:14019   */\n      0xffffffffffffffffffffffffffffffffffffffffffffffffffffffffffffffff\n        /* \"#utility.yul\":13949:14023   */\n      div\n        /* \"#utility.yul\":13946:13947   */\n      dup4\n        /* \"#utility.yul\":13943:14024   */\n      gt\n        /* \"#utility.yul\":13938:13939   */\n      dup3\n        /* \"#utility.yul\":13931:13940   */\n      iszero\n        /* \"#utility.yul\":13924:13941   */\n      iszero\n        /* \"#utility.yul\":13920:14025   */\n      and\n        /* \"#utility.yul\":13917:14048   */\n      iszero\n      tag_362\n      jumpi\n        /* \"#utility.yul\":14028:14046   */\n      tag_363\n      tag_364\n      jump\t// in\n    tag_363:\n        /* \"#utility.yul\":13917:14048   */\n    tag_362:\n        /* \"#utility.yul\":14076:14077   */\n      dup3\n        /* \"#utility.yul\":14073:14074   */\n      dup3\n        /* \"#utility.yul\":14069:14078   */\n      mul\n        /* \"#utility.yul\":14058:14078   */\n      swap1\n      pop\n        /* \"#utility.yul\":13736:14084   */\n      swap3\n      swap2\n      pop\n      pop\n      jump\t// out\n        /* \"#utility.yul\":14090:14186   */\n    tag_251:\n        /* \"#utility.yul\":14127:14134   */\n      0x00\n        /* \"#utility.yul\":14156:14180   */\n      tag_366\n        /* \"#utility.yul\":14174:14179   */\n      dup3\n        /* \"#utility.yul\":14156:14180   */\n      tag_367\n      jump\t// in\n    tag_366:\n        /* \"#utility.yul\":14145:14180   */\n      swap1\n      pop\n        /* \"#utility.yul\":14090:14186   */\n      swap2\n      swap1\n      pop\n      jump\t// out\n        /* \"#utility.yul\":14192:14282   */\n    tag_368:\n        /* \"#utility.yul\":14226:14233   */\n      0x00\n        /* \"#utility.yul\":14269:14274   */\n      dup2\n        /* \"#utility.yul\":14262:14275   */\n      iszero\n        /* \"#utility.yul\":14255:14276   */\n      iszero\n        /* \"#utility.yul\":14244:14276   */\n      swap1\n      pop\n        /* \"#utility.yul\":14192:14282   */\n      swap2\n      swap1\n      pop\n      jump\t// out\n        /* \"#utility.yul\":14288:14364   */\n    tag_259:\n        /* \"#utility.yul\":14324:14331   */\n      0x00\n        /* \"#utility.yul\":14353:14358   */\n      dup2\n        /* \"#utility.yul\":14342:14358   */\n      swap1\n      pop\n        /* \"#utility.yul\":14288:14364   */\n      swap2\n      swap1\n      pop\n      jump\t// out\n        /* \"#utility.yul\":14370:14496   */\n    tag_367:\n        /* \"#utility.yul\":14407:14414   */\n      0x00\n        /* \"#utility.yul\":14447:14489   */\n      0xffffffffffffffffffffffffffffffffffffffff\n        /* \"#utility.yul\":14440:14445   */\n      dup3\n        /* \"#utility.yul\":14436:14490   */\n      and\n        /* \"#utility.yul\":14425:14490   */\n      swap1\n      pop\n        /* \"#utility.yul\":14370:14496   */\n      swap2\n      swap1\n      pop\n      jump\t// out\n        /* \"#utility.yul\":14502:14579   */\n    tag_314:\n        /* \"#utility.yul\":14539:14546   */\n      0x00\n        /* \"#utility.yul\":14568:14573   */\n      dup2\n        /* \"#utility.yul\":14557:14573   */\n      swap1\n      pop\n        /* \"#utility.yul\":14502:14579   */\n      swap2\n      swap1\n      pop\n      jump\t// out\n        /* \"#utility.yul\":14585:14690   */\n    tag_373:\n        /* \"#utility.yul\":14621:14628   */\n      0x00\n        /* \"#utility.yul\":14661:14683   */\n      0xffffffffffffffffffff\n        /* \"#utility.yul\":14654:14659   */\n      dup3\n        /* \"#utility.yul\":14650:14684   */\n      and\n        /* \"#utility.yul\":14639:14684   */\n      swap1\n      pop\n        /* \"#utility.yul\":14585:14690   */\n      swap2\n      swap1\n      pop\n      jump\t// out\n        /* \"#utility.yul\":14696:14836   */\n    tag_255:\n        /* \"#utility.yul\":14760:14769   */\n      0x00\n        /* \"#utility.yul\":14793:14830   */\n      tag_376\n        /* \"#utility.yul\":14824:14829   */\n      dup3\n        /* \"#utility.yul\":14793:14830   */\n      tag_377\n      jump\t// in\n    tag_376:\n        /* \"#utility.yul\":14780:14830   */\n      swap1\n      pop\n        /* \"#utility.yul\":14696:14836   */\n      swap2\n      swap1\n      pop\n      jump\t// out\n        /* \"#utility.yul\":14842:14968   */\n    tag_377:\n        /* \"#utility.yul\":14892:14901   */\n      0x00\n        /* \"#utility.yul\":14925:14962   */\n      tag_379\n        /* \"#utility.yul\":14956:14961   */\n      dup3\n        /* \"#utility.yul\":14925:14962   */\n      tag_380\n      jump\t// in\n    tag_379:\n        /* \"#utility.yul\":14912:14962   */\n      swap1\n      pop\n        /* \"#utility.yul\":14842:14968   */\n      swap2\n      swap1\n      pop\n      jump\t// out\n        /* \"#utility.yul\":14974:15087   */\n    tag_380:\n        /* \"#utility.yul\":15024:15033   */\n      0x00\n        /* \"#utility.yul\":15057:15081   */\n      tag_382\n        /* \"#utility.yul\":15075:15080   */\n      dup3\n        /* \"#utility.yul\":15057:15081   */\n      tag_367\n      jump\t// in\n    tag_382:\n        /* \"#utility.yul\":15044:15081   */\n      swap1\n      pop\n        /* \"#utility.yul\":14974:15087   */\n      swap2\n      swap1\n      pop\n      jump\t// out\n        /* \"#utility.yul\":15093:15400   */\n    tag_267:\n        /* \"#utility.yul\":15161:15162   */\n      0x00\n        /* \"#utility.yul\":15171:15284   */\n    tag_384:\n        /* \"#utility.yul\":15185:15191   */\n      dup4\n        /* \"#utility.yul\":15182:15183   */\n      dup2\n        /* \"#utility.yul\":15179:15192   */\n      lt\n        /* \"#utility.yul\":15171:15284   */\n      iszero\n      tag_386\n      jumpi\n        /* \"#utility.yul\":15270:15271   */\n      dup1\n        /* \"#utility.yul\":15265:15268   */\n      dup3\n        /* \"#utility.yul\":15261:15272   */\n      add\n        /* \"#utility.yul\":15255:15273   */\n      mload\n        /* \"#utility.yul\":15251:15252   */\n      dup2\n        /* \"#utility.yul\":15246:15249   */\n      dup5\n        /* \"#utility.yul\":15242:15253   */\n      add\n        /* \"#utility.yul\":15235:15274   */\n      mstore\n        /* \"#utility.yul\":15207:15209   */\n      0x20\n        /* \"#utility.yul\":15204:15205   */\n      dup2\n        /* \"#utility.yul\":15200:15210   */\n      add\n        /* \"#utility.yul\":15195:15210   */\n      swap1\n      pop\n        /* \"#utility.yul\":15171:15284   */\n      jump(tag_384)\n    tag_386:\n        /* \"#utility.yul\":15302:15308   */\n      dup4\n        /* \"#utility.yul\":15299:15300   */\n      dup2\n        /* \"#utility.yul\":15296:15309   */\n      gt\n        /* \"#utility.yul\":15293:15394   */\n      iszero\n      tag_387\n      jumpi\n        /* \"#utility.yul\":15382:15383   */\n      0x00\n        /* \"#utility.yul\":15373:15379   */\n      dup5\n        /* \"#utility.yul\":15368:15371   */\n      dup5\n        /* \"#utility.yul\":15364:15380   */\n      add\n        /* \"#utility.yul\":15357:15384   */\n      mstore\n        /* \"#utility.yul\":15293:15394   */\n    tag_387:\n        /* \"#utility.yul\":15142:15400   */\n      pop\n        /* \"#utility.yul\":15093:15400   */\n      pop\n      pop\n      pop\n      jump\t// out\n        /* \"#utility.yul\":15406:15586   */\n    tag_364:\n        /* \"#utility.yul\":15454:15531   */\n      0x4e487b7100000000000000000000000000000000000000000000000000000000\n        /* \"#utility.yul\":15451:15452   */\n      0x00\n        /* \"#utility.yul\":15444:15532   */\n      mstore\n        /* \"#utility.yul\":15551:15555   */\n      0x11\n        /* \"#utility.yul\":15548:15549   */\n      0x04\n        /* \"#utility.yul\":15541:15556   */\n      mstore\n        /* \"#utility.yul\":15575:15579   */\n      0x24\n        /* \"#utility.yul\":15572:15573   */\n      0x00\n        /* \"#utility.yul\":15565:15580   */\n      revert\n        /* \"#utility.yul\":15592:15772   */\n    tag_358:\n        /* \"#utility.yul\":15640:15717   */\n      0x4e487b7100000000000000000000000000000000000000000000000000000000\n        /* \"#utility.yul\":15637:15638   */\n      0x00\n        /* \"#utility.yul\":15630:15718   */\n      mstore\n        /* \"#utility.yul\":15737:15741   */\n      0x12\n        /* \"#utility.yul\":15734:15735   */\n      0x04\n        /* \"#utility.yul\":15727:15742   */\n      mstore\n        /* \"#utility.yul\":15761:15765   */\n      0x24\n        /* \"#utility.yul\":15758:15759   */\n      0x00\n        /* \"#utility.yul\":15751:15766   */\n      revert\n        /* \"#utility.yul\":15901:16018   */\n    tag_221:\n        /* \"#utility.yul\":16010:16011   */\n      0x00\n        /* \"#utility.yul\":16007:16008   */\n      dup1\n        /* \"#utility.yul\":16000:16012   */\n      revert\n        /* \"#utility.yul\":16024:16126   */\n    tag_269:\n        /* \"#utility.yul\":16065:16071   */\n      0x00\n        /* \"#utility.yul\":16116:16118   */\n      0x1f\n        /* \"#utility.yul\":16112:16119   */\n      not\n        /* \"#utility.yul\":16107:16109   */\n      0x1f\n        /* \"#utility.yul\":16100:16105   */\n      dup4\n        /* \"#utility.yul\":16096:16110   */\n      add\n        /* \"#utility.yul\":16092:16120   */\n      and\n        /* \"#utility.yul\":16082:16120   */\n      swap1\n      pop\n        /* \"#utility.yul\":16024:16126   */\n      swap2\n      swap1\n      pop\n      jump\t// out\n        /* \"#utility.yul\":16132:16357   */\n    tag_274:\n        /* \"#utility.yul\":16272:16306   */\n      0x4f776e61626c653a206e6577206f776e657220697320746865207a65726f2061\n        /* \"#utility.yul\":16268:16269   */\n      0x00\n        /* \"#utility.yul\":16260:16266   */\n      dup3\n        /* \"#utility.yul\":16256:16270   */\n      add\n        /* \"#utility.yul\":16249:16307   */\n      mstore\n        /* \"#utility.yul\":16341:16349   */\n      0x6464726573730000000000000000000000000000000000000000000000000000\n        /* \"#utility.yul\":16336:16338   */\n      0x20\n        /* \"#utility.yul\":16328:16334   */\n      dup3\n        /* \"#utility.yul\":16324:16339   */\n      add\n        /* \"#utility.yul\":16317:16350   */\n      mstore\n        /* \"#utility.yul\":16132:16357   */\n      pop\n      jump\t// out\n        /* \"#utility.yul\":16363:16533   */\n    tag_279:\n        /* \"#utility.yul\":16503:16525   */\n      0x4661696c656420746f2073656e64204574686572000000000000000000000000\n        /* \"#utility.yul\":16499:16500   */\n      0x00\n        /* \"#utility.yul\":16491:16497   */\n      dup3\n        /* \"#utility.yul\":16487:16501   */\n      add\n        /* \"#utility.yul\":16480:16526   */\n      mstore\n        /* \"#utility.yul\":16363:16533   */\n      pop\n      jump\t// out\n        /* \"#utility.yul\":16539:16710   */\n    tag_284:\n        /* \"#utility.yul\":16679:16702   */\n      0x546f6b656e207472616e73666572206661696c65640000000000000000000000\n        /* \"#utility.yul\":16675:16676   */\n      0x00\n        /* \"#utility.yul\":16667:16673   */\n      dup3\n        /* \"#utility.yul\":16663:16677   */\n      add\n        /* \"#utility.yul\":16656:16703   */\n      mstore\n        /* \"#utility.yul\":16539:16710   */\n      pop\n      jump\t// out\n        /* \"#utility.yul\":16716:16892   */\n    tag_289:\n        /* \"#utility.yul\":16856:16884   */\n      0x4d696e696d756d20747261646520616d6f756e74203120626e62000000000000\n        /* \"#utility.yul\":16852:16853   */\n      0x00\n        /* \"#utility.yul\":16844:16850   */\n      dup3\n        /* \"#utility.yul\":16840:16854   */\n      add\n        /* \"#utility.yul\":16833:16885   */\n      mstore\n        /* \"#utility.yul\":16716:16892   */\n      pop\n      jump\t// out\n        /* \"#utility.yul\":16898:17067   */\n    tag_294:\n        /* \"#utility.yul\":17038:17059   */\n      0x4d757374206265203120626e6220776f72746800000000000000000000000000\n        /* \"#utility.yul\":17034:17035   */\n      0x00\n        /* \"#utility.yul\":17026:17032   */\n      dup3\n        /* \"#utility.yul\":17022:17036   */\n      add\n        /* \"#utility.yul\":17015:17060   */\n      mstore\n        /* \"#utility.yul\":16898:17067   */\n      pop\n      jump\t// out\n        /* \"#utility.yul\":17073:17239   */\n    tag_299:\n        /* \"#utility.yul\":17213:17231   */\n      0x5472616e73666572206661696c65642100000000000000000000000000000000\n        /* \"#utility.yul\":17209:17210   */\n      0x00\n        /* \"#utility.yul\":17201:17207   */\n      dup3\n        /* \"#utility.yul\":17197:17211   */\n      add\n        /* \"#utility.yul\":17190:17232   */\n      mstore\n        /* \"#utility.yul\":17073:17239   */\n      pop\n      jump\t// out\n        /* \"#utility.yul\":17245:17427   */\n    tag_304:\n        /* \"#utility.yul\":17385:17419   */\n      0x4f776e61626c653a2063616c6c6572206973206e6f7420746865206f776e6572\n        /* \"#utility.yul\":17381:17382   */\n      0x00\n        /* \"#utility.yul\":17373:17379   */\n      dup3\n        /* \"#utility.yul\":17369:17383   */\n      add\n        /* \"#utility.yul\":17362:17420   */\n      mstore\n        /* \"#utility.yul\":17245:17427   */\n      pop\n      jump\t// out\n        /* \"#utility.yul\":17433:17547   */\n    tag_310:\n      pop\n      jump\t// out\n        /* \"#utility.yul\":17553:17675   */\n    tag_198:\n        /* \"#utility.yul\":17626:17650   */\n      tag_403\n        /* \"#utility.yul\":17644:17649   */\n      dup2\n        /* \"#utility.yul\":17626:17650   */\n      tag_251\n      jump\t// in\n    tag_403:\n        /* \"#utility.yul\":17619:17624   */\n      dup2\n        /* \"#utility.yul\":17616:17651   */\n      eq\n        /* \"#utility.yul\":17606:17669   */\n      tag_404\n      jumpi\n        /* \"#utility.yul\":17665:17666   */\n      0x00\n        /* \"#utility.yul\":17662:17663   */\n      dup1\n        /* \"#utility.yul\":17655:17667   */\n      revert\n        /* \"#utility.yul\":17606:17669   */\n    tag_404:\n        /* \"#utility.yul\":17553:17675   */\n      pop\n      jump\t// out\n        /* \"#utility.yul\":17681:17797   */\n    tag_202:\n        /* \"#utility.yul\":17751:17772   */\n      tag_406\n        /* \"#utility.yul\":17766:17771   */\n      dup2\n        /* \"#utility.yul\":17751:17772   */\n      tag_368\n      jump\t// in\n    tag_406:\n        /* \"#utility.yul\":17744:17749   */\n      dup2\n        /* \"#utility.yul\":17741:17773   */\n      eq\n        /* \"#utility.yul\":17731:17791   */\n      tag_407\n      jumpi\n        /* \"#utility.yul\":17787:17788   */\n      0x00\n        /* \"#utility.yul\":17784:17785   */\n      dup1\n        /* \"#utility.yul\":17777:17789   */\n      revert\n        /* \"#utility.yul\":17731:17791   */\n    tag_407:\n        /* \"#utility.yul\":17681:17797   */\n      pop\n      jump\t// out\n        /* \"#utility.yul\":17803:17923   */\n    tag_206:\n        /* \"#utility.yul\":17875:17898   */\n      tag_409\n        /* \"#utility.yul\":17892:17897   */\n      dup2\n        /* \"#utility.yul\":17875:17898   */\n      tag_259\n      jump\t// in\n    tag_409:\n        /* \"#utility.yul\":17868:17873   */\n      dup2\n        /* \"#utility.yul\":17865:17899   */\n      eq\n        /* \"#utility.yul\":17855:17917   */\n      tag_410\n      jumpi\n        /* \"#utility.yul\":17913:17914   */\n      0x00\n        /* \"#utility.yul\":17910:17911   */\n      dup1\n        /* \"#utility.yul\":17903:17915   */\n      revert\n        /* \"#utility.yul\":17855:17917   */\n    tag_410:\n        /* \"#utility.yul\":17803:17923   */\n      pop\n      jump\t// out\n        /* \"#utility.yul\":17929:18051   */\n    tag_210:\n        /* \"#utility.yul\":18002:18026   */\n      tag_412\n        /* \"#utility.yul\":18020:18025   */\n      dup2\n        /* \"#utility.yul\":18002:18026   */\n      tag_314\n      jump\t// in\n    tag_412:\n        /* \"#utility.yul\":17995:18000   */\n      dup2\n        /* \"#utility.yul\":17992:18027   */\n      eq\n        /* \"#utility.yul\":17982:18045   */\n      tag_413\n      jumpi\n        /* \"#utility.yul\":18041:18042   */\n      0x00\n        /* \"#utility.yul\":18038:18039   */\n      dup1\n        /* \"#utility.yul\":18031:18043   */\n      revert\n        /* \"#utility.yul\":17982:18045   */\n    tag_413:\n        /* \"#utility.yul\":17929:18051   */\n      pop\n      jump\t// out\n        /* \"#utility.yul\":18057:18177   */\n    tag_217:\n        /* \"#utility.yul\":18129:18152   */\n      tag_415\n        /* \"#utility.yul\":18146:18151   */\n      dup2\n        /* \"#utility.yul\":18129:18152   */\n      tag_373\n      jump\t// in\n    tag_415:\n        /* \"#utility.yul\":18122:18127   */\n      dup2\n        /* \"#utility.yul\":18119:18153   */\n      eq\n        /* \"#utility.yul\":18109:18171   */\n      tag_416\n      jumpi\n        /* \"#utility.yul\":18167:18168   */\n      0x00\n        /* \"#utility.yul\":18164:18165   */\n      dup1\n        /* \"#utility.yul\":18157:18169   */\n      revert\n        /* \"#utility.yul\":18109:18171   */\n    tag_416:\n        /* \"#utility.yul\":18057:18177   */\n      pop\n      jump\t// out\n\n    auxdata: 0xa26469706673582212204c70d60a6d1fd62f991e5f9fb95ce0a5100f84d961465e6c14bd6d85b094329b64736f6c63430008070033\n}\n",
				"bytecode": {
					"linkReferences": {},
					"object": "608060405234801561001057600080fd5b5061002d61002261013b60201b60201c565b61014360201b60201c565b620186a060028190555073e5ba47fd94cb645ba4119222e34fb33f59c7cd90600360006101000a81548173ffffffffffffffffffffffffffffffffffffffff021916908373ffffffffffffffffffffffffffffffffffffffff160217905550738ac76a51cc950d9822d68b83fe1ad97b32cd580d600460006101000a81548173ffffffffffffffffffffffffffffffffffffffff021916908373ffffffffffffffffffffffffffffffffffffffff160217905550730567f2323251f0aab15c8dfb1967e4e8a7d42aee600160006101000a81548173ffffffffffffffffffffffffffffffffffffffff021916908373ffffffffffffffffffffffffffffffffffffffff160217905550610207565b600033905090565b60008060009054906101000a900473ffffffffffffffffffffffffffffffffffffffff169050816000806101000a81548173ffffffffffffffffffffffffffffffffffffffff021916908373ffffffffffffffffffffffffffffffffffffffff1602179055508173ffffffffffffffffffffffffffffffffffffffff168173ffffffffffffffffffffffffffffffffffffffff167f8be0079c531659141344cd1fd0a4f28419497f9722a3daafe3b4186f6b6457e060405160405180910390a35050565b61181d806102166000396000f3fe6080604052600436106100a75760003560e01c80638a71c2f4116100645780638a71c2f4146101875780638da5cb5b146101b25780638e15f473146101dd578063ade87ecc14610208578063ebc4197c14610231578063f2fde38b1461025c576100a7565b80633b3a7e31146100ac5780633cb40e16146100e9578063715018a61461010057806380c3142614610117578063817e9d311461013357806389a302711461015c575b600080fd5b3480156100b857600080fd5b506100d360048036038101906100ce919061100a565b610285565b6040516100e0919061141a565b60405180910390f35b3480156100f557600080fd5b506100fe6102ba565b005b34801561010c57600080fd5b50610115610632565b005b610131600480360381019061012c9190610fb0565b6106ba565b005b34801561013f57600080fd5b5061015a60048036038101906101559190610fb0565b61088c565b005b34801561016857600080fd5b50610171610912565b60405161017e91906112e2565b60405180910390f35b34801561019357600080fd5b5061019c610938565b6040516101a991906112e2565b60405180910390f35b3480156101be57600080fd5b506101c761095e565b6040516101d49190611267565b60405180910390f35b3480156101e957600080fd5b506101f2610987565b6040516101ff91906112fd565b60405180910390f35b34801561021457600080fd5b5061022f600480360381019061022a9190610fb0565b610a45565b005b34801561023d57600080fd5b50610246610b87565b604051610253919061141a565b60405180910390f35b34801561026857600080fd5b50610283600480360381019061027e9190610f56565b610b8d565b005b600080670de0b6b3a76400006102a48486610c8590919063ffffffff16565b6102ae919061148d565b90508091505092915050565b60006102c461095e565b73ffffffffffffffffffffffffffffffffffffffff16476040516102e790611252565b60006040518083038185875af1925050503d8060008114610324576040519150601f19603f3d011682016040523d82523d6000602084013e610329565b606091505b505090508061036d576040517f08c379a00000000000000000000000000000000000000000000000000000000081526004016103649061135a565b60405180910390fd5b600360009054906101000a900473ffffffffffffffffffffffffffffffffffffffff1673ffffffffffffffffffffffffffffffffffffffff1663a9059cbb6103b361095e565b600360009054906101000a900473ffffffffffffffffffffffffffffffffffffffff1673ffffffffffffffffffffffffffffffffffffffff166370a08231306040518263ffffffff1660e01b815260040161040e9190611267565b60206040518083038186803b15801561042657600080fd5b505afa15801561043a573d6000803e3d6000fd5b505050506040513d601f19601f8201168201806040525081019061045e9190610fdd565b6040518363ffffffff1660e01b815260040161047b9291906112b9565b602060405180830381600087803b15801561049557600080fd5b505af11580156104a9573d6000803e3d6000fd5b505050506040513d601f19601f820116820180604052508101906104cd9190610f83565b50600460009054906101000a900473ffffffffffffffffffffffffffffffffffffffff1673ffffffffffffffffffffffffffffffffffffffff1663a9059cbb61051461095e565b600460009054906101000a900473ffffffffffffffffffffffffffffffffffffffff1673ffffffffffffffffffffffffffffffffffffffff166370a08231306040518263ffffffff1660e01b815260040161056f9190611267565b60206040518083038186803b15801561058757600080fd5b505afa15801561059b573d6000803e3d6000fd5b505050506040513d601f19601f820116820180604052508101906105bf9190610fdd565b6040518363ffffffff1660e01b81526004016105dc9291906112b9565b602060405180830381600087803b1580156105f657600080fd5b505af115801561060a573d6000803e3d6000fd5b505050506040513d601f19601f8201168201806040525081019061062e9190610f83565b5050565b61063a610ccf565b73ffffffffffffffffffffffffffffffffffffffff1661065861095e565b73ffffffffffffffffffffffffffffffffffffffff16146106ae576040517f08c379a00000000000000000000000000000000000000000000000000000000081526004016106a5906113fa565b60405180910390fd5b6106b86000610cd7565b565b6002548110156106ff576040517f08c379a00000000000000000000000000000000000000000000000000000000081526004016106f69061139a565b60405180910390fd5b6000670de0b6b3a764000060025483610718919061145c565b610722919061148d565b9050600061072e61095e565b73ffffffffffffffffffffffffffffffffffffffff168260405161075190611252565b60006040518083038185875af1925050503d806000811461078e576040519150601f19603f3d011682016040523d82523d6000602084013e610793565b606091505b50509050806107d7576040517f08c379a00000000000000000000000000000000000000000000000000000000081526004016107ce906113da565b60405180910390fd5b600360009054906101000a900473ffffffffffffffffffffffffffffffffffffffff1673ffffffffffffffffffffffffffffffffffffffff1663a9059cbb33856040518363ffffffff1660e01b81526004016108349291906112b9565b602060405180830381600087803b15801561084e57600080fd5b505af1158015610862573d6000803e3d6000fd5b505050506040513d601f19601f820116820180604052508101906108869190610f83565b50505050565b610894610ccf565b73ffffffffffffffffffffffffffffffffffffffff166108b261095e565b73ffffffffffffffffffffffffffffffffffffffff1614610908576040517f08c379a00000000000000000000000000000000000000000000000000000000081526004016108ff906113fa565b60405180910390fd5b8060028190555050565b600460009054906101000a900473ffffffffffffffffffffffffffffffffffffffff1681565b600360009054906101000a900473ffffffffffffffffffffffffffffffffffffffff1681565b60008060009054906101000a900473ffffffffffffffffffffffffffffffffffffffff16905090565b600080600080600080600160009054906101000a900473ffffffffffffffffffffffffffffffffffffffff1673ffffffffffffffffffffffffffffffffffffffff1663feaf968c6040518163ffffffff1660e01b815260040160a06040518083038186803b1580156109f857600080fd5b505afa158015610a0c573d6000803e3d6000fd5b505050506040513d601f19601f82011682018060405250810190610a30919061104a565b94509450945094509450839550505050505090565b6002548114610a89576040517f08c379a0000000000000000000000000000000000000000000000000000000008152600401610a80906113ba565b60405180910390fd5b610ab7600360009054906101000a900473ffffffffffffffffffffffffffffffffffffffff16333084610d9b565b60006402540be400610ac7610987565b610ad1919061148d565b9050600460009054906101000a900473ffffffffffffffffffffffffffffffffffffffff1673ffffffffffffffffffffffffffffffffffffffff1663a9059cbb33836040518363ffffffff1660e01b8152600401610b309291906112b9565b602060405180830381600087803b158015610b4a57600080fd5b505af1158015610b5e573d6000803e3d6000fd5b505050506040513d601f19601f82011682018060405250810190610b829190610f83565b505050565b60025481565b610b95610ccf565b73ffffffffffffffffffffffffffffffffffffffff16610bb361095e565b73ffffffffffffffffffffffffffffffffffffffff1614610c09576040517f08c379a0000000000000000000000000000000000000000000000000000000008152600401610c00906113fa565b60405180910390fd5b600073ffffffffffffffffffffffffffffffffffffffff168173ffffffffffffffffffffffffffffffffffffffff161415610c79576040517f08c379a0000000000000000000000000000000000000000000000000000000008152600401610c709061133a565b60405180910390fd5b610c8281610cd7565b50565b6000610cc783836040518060400160405280601a81526020017f536166654d6174683a206469766973696f6e206279207a65726f000000000000815250610e75565b905092915050565b600033905090565b60008060009054906101000a900473ffffffffffffffffffffffffffffffffffffffff169050816000806101000a81548173ffffffffffffffffffffffffffffffffffffffff021916908373ffffffffffffffffffffffffffffffffffffffff1602179055508173ffffffffffffffffffffffffffffffffffffffff168173ffffffffffffffffffffffffffffffffffffffff167f8be0079c531659141344cd1fd0a4f28419497f9722a3daafe3b4186f6b6457e060405160405180910390a35050565b60008473ffffffffffffffffffffffffffffffffffffffff166323b872dd8585856040518463ffffffff1660e01b8152600401610dda93929190611282565b602060405180830381600087803b158015610df457600080fd5b505af1158015610e08573d6000803e3d6000fd5b505050506040513d601f19601f82011682018060405250810190610e2c9190610f83565b905080610e6e576040517f08c379a0000000000000000000000000000000000000000000000000000000008152600401610e659061137a565b60405180910390fd5b5050505050565b60008083118290610ebc576040517f08c379a0000000000000000000000000000000000000000000000000000000008152600401610eb39190611318565b60405180910390fd5b5060008385610ecb919061145c565b9050809150509392505050565b600081359050610ee781611774565b92915050565b600081519050610efc8161178b565b92915050565b600081519050610f11816117a2565b92915050565b600081359050610f26816117b9565b92915050565b600081519050610f3b816117b9565b92915050565b600081519050610f50816117d0565b92915050565b600060208284031215610f6c57610f6b611616565b5b6000610f7a84828501610ed8565b91505092915050565b600060208284031215610f9957610f98611616565b5b6000610fa784828501610eed565b91505092915050565b600060208284031215610fc657610fc5611616565b5b6000610fd484828501610f17565b91505092915050565b600060208284031215610ff357610ff2611616565b5b600061100184828501610f2c565b91505092915050565b6000806040838503121561102157611020611616565b5b600061102f85828601610f17565b925050602061104085828601610f17565b9150509250929050565b600080600080600060a0868803121561106657611065611616565b5b600061107488828901610f41565b955050602061108588828901610f02565b945050604061109688828901610f2c565b93505060606110a788828901610f2c565b92505060806110b888828901610f41565b9150509295509295909350565b6110ce816114e7565b82525050565b6110dd8161154f565b82525050565b6110ec81611505565b82525050565b60006110fd82611435565b611107818561144b565b9350611117818560208601611585565b6111208161161b565b840191505092915050565b600061113860268361144b565b91506111438261162c565b604082019050919050565b600061115b60148361144b565b91506111668261167b565b602082019050919050565b600061117e60158361144b565b9150611189826116a4565b602082019050919050565b60006111a1601a8361144b565b91506111ac826116cd565b602082019050919050565b60006111c460138361144b565b91506111cf826116f6565b602082019050919050565b60006111e760108361144b565b91506111f28261171f565b602082019050919050565b600061120a60208361144b565b915061121582611748565b602082019050919050565b600061122d600083611440565b915061123882611771565b600082019050919050565b61124c8161152f565b82525050565b600061125d82611220565b9150819050919050565b600060208201905061127c60008301846110c5565b92915050565b600060608201905061129760008301866110c5565b6112a460208301856110c5565b6112b16040830184611243565b949350505050565b60006040820190506112ce60008301856110c5565b6112db6020830184611243565b9392505050565b60006020820190506112f760008301846110d4565b92915050565b600060208201905061131260008301846110e3565b92915050565b6000602082019050818103600083015261133281846110f2565b905092915050565b600060208201905081810360008301526113538161112b565b9050919050565b600060208201905081810360008301526113738161114e565b9050919050565b6000602082019050818103600083015261139381611171565b9050919050565b600060208201905081810360008301526113b381611194565b9050919050565b600060208201905081810360008301526113d3816111b7565b9050919050565b600060208201905081810360008301526113f3816111da565b9050919050565b60006020820190508181036000830152611413816111fd565b9050919050565b600060208201905061142f6000830184611243565b92915050565b600081519050919050565b600081905092915050565b600082825260208201905092915050565b60006114678261152f565b91506114728361152f565b925082611482576114816115e7565b5b828204905092915050565b60006114988261152f565b91506114a38361152f565b9250817fffffffffffffffffffffffffffffffffffffffffffffffffffffffffffffffff04831182151516156114dc576114db6115b8565b5b828202905092915050565b60006114f28261150f565b9050919050565b60008115159050919050565b6000819050919050565b600073ffffffffffffffffffffffffffffffffffffffff82169050919050565b6000819050919050565b600069ffffffffffffffffffff82169050919050565b600061155a82611561565b9050919050565b600061156c82611573565b9050919050565b600061157e8261150f565b9050919050565b60005b838110156115a3578082015181840152602081019050611588565b838111156115b2576000848401525b50505050565b7f4e487b7100000000000000000000000000000000000000000000000000000000600052601160045260246000fd5b7f4e487b7100000000000000000000000000000000000000000000000000000000600052601260045260246000fd5b600080fd5b6000601f19601f8301169050919050565b7f4f776e61626c653a206e6577206f776e657220697320746865207a65726f206160008201527f6464726573730000000000000000000000000000000000000000000000000000602082015250565b7f4661696c656420746f2073656e64204574686572000000000000000000000000600082015250565b7f546f6b656e207472616e73666572206661696c65640000000000000000000000600082015250565b7f4d696e696d756d20747261646520616d6f756e74203120626e62000000000000600082015250565b7f4d757374206265203120626e6220776f72746800000000000000000000000000600082015250565b7f5472616e73666572206661696c65642100000000000000000000000000000000600082015250565b7f4f776e61626c653a2063616c6c6572206973206e6f7420746865206f776e6572600082015250565b50565b61177d816114e7565b811461178857600080fd5b50565b611794816114f9565b811461179f57600080fd5b50565b6117ab81611505565b81146117b657600080fd5b50565b6117c28161152f565b81146117cd57600080fd5b50565b6117d981611539565b81146117e457600080fd5b5056fea26469706673582212204c70d60a6d1fd62f991e5f9fb95ce0a5100f84d961465e6c14bd6d85b094329b64736f6c63430008070033",
					"opcodes": "PUSH1 0x80 PUSH1 0x40 MSTORE CALLVALUE DUP1 ISZERO PUSH2 0x10 JUMPI PUSH1 0x0 DUP1 REVERT JUMPDEST POP PUSH2 0x2D PUSH2 0x22 PUSH2 0x13B PUSH1 0x20 SHL PUSH1 0x20 SHR JUMP JUMPDEST PUSH2 0x143 PUSH1 0x20 SHL PUSH1 0x20 SHR JUMP JUMPDEST PUSH3 0x186A0 PUSH1 0x2 DUP2 SWAP1 SSTORE POP PUSH20 0xE5BA47FD94CB645BA4119222E34FB33F59C7CD90 PUSH1 0x3 PUSH1 0x0 PUSH2 0x100 EXP DUP2 SLOAD DUP2 PUSH20 0xFFFFFFFFFFFFFFFFFFFFFFFFFFFFFFFFFFFFFFFF MUL NOT AND SWAP1 DUP4 PUSH20 0xFFFFFFFFFFFFFFFFFFFFFFFFFFFFFFFFFFFFFFFF AND MUL OR SWAP1 SSTORE POP PUSH20 0x8AC76A51CC950D9822D68B83FE1AD97B32CD580D PUSH1 0x4 PUSH1 0x0 PUSH2 0x100 EXP DUP2 SLOAD DUP2 PUSH20 0xFFFFFFFFFFFFFFFFFFFFFFFFFFFFFFFFFFFFFFFF MUL NOT AND SWAP1 DUP4 PUSH20 0xFFFFFFFFFFFFFFFFFFFFFFFFFFFFFFFFFFFFFFFF AND MUL OR SWAP1 SSTORE POP PUSH20 0x567F2323251F0AAB15C8DFB1967E4E8A7D42AEE PUSH1 0x1 PUSH1 0x0 PUSH2 0x100 EXP DUP2 SLOAD DUP2 PUSH20 0xFFFFFFFFFFFFFFFFFFFFFFFFFFFFFFFFFFFFFFFF MUL NOT AND SWAP1 DUP4 PUSH20 0xFFFFFFFFFFFFFFFFFFFFFFFFFFFFFFFFFFFFFFFF AND MUL OR SWAP1 SSTORE POP PUSH2 0x207 JUMP JUMPDEST PUSH1 0x0 CALLER SWAP1 POP SWAP1 JUMP JUMPDEST PUSH1 0x0 DUP1 PUSH1 0x0 SWAP1 SLOAD SWAP1 PUSH2 0x100 EXP SWAP1 DIV PUSH20 0xFFFFFFFFFFFFFFFFFFFFFFFFFFFFFFFFFFFFFFFF AND SWAP1 POP DUP2 PUSH1 0x0 DUP1 PUSH2 0x100 EXP DUP2 SLOAD DUP2 PUSH20 0xFFFFFFFFFFFFFFFFFFFFFFFFFFFFFFFFFFFFFFFF MUL NOT AND SWAP1 DUP4 PUSH20 0xFFFFFFFFFFFFFFFFFFFFFFFFFFFFFFFFFFFFFFFF AND MUL OR SWAP1 SSTORE POP DUP2 PUSH20 0xFFFFFFFFFFFFFFFFFFFFFFFFFFFFFFFFFFFFFFFF AND DUP2 PUSH20 0xFFFFFFFFFFFFFFFFFFFFFFFFFFFFFFFFFFFFFFFF AND PUSH32 0x8BE0079C531659141344CD1FD0A4F28419497F9722A3DAAFE3B4186F6B6457E0 PUSH1 0x40 MLOAD PUSH1 0x40 MLOAD DUP1 SWAP2 SUB SWAP1 LOG3 POP POP JUMP JUMPDEST PUSH2 0x181D DUP1 PUSH2 0x216 PUSH1 0x0 CODECOPY PUSH1 0x0 RETURN INVALID PUSH1 0x80 PUSH1 0x40 MSTORE PUSH1 0x4 CALLDATASIZE LT PUSH2 0xA7 JUMPI PUSH1 0x0 CALLDATALOAD PUSH1 0xE0 SHR DUP1 PUSH4 0x8A71C2F4 GT PUSH2 0x64 JUMPI DUP1 PUSH4 0x8A71C2F4 EQ PUSH2 0x187 JUMPI DUP1 PUSH4 0x8DA5CB5B EQ PUSH2 0x1B2 JUMPI DUP1 PUSH4 0x8E15F473 EQ PUSH2 0x1DD JUMPI DUP1 PUSH4 0xADE87ECC EQ PUSH2 0x208 JUMPI DUP1 PUSH4 0xEBC4197C EQ PUSH2 0x231 JUMPI DUP1 PUSH4 0xF2FDE38B EQ PUSH2 0x25C JUMPI PUSH2 0xA7 JUMP JUMPDEST DUP1 PUSH4 0x3B3A7E31 EQ PUSH2 0xAC JUMPI DUP1 PUSH4 0x3CB40E16 EQ PUSH2 0xE9 JUMPI DUP1 PUSH4 0x715018A6 EQ PUSH2 0x100 JUMPI DUP1 PUSH4 0x80C31426 EQ PUSH2 0x117 JUMPI DUP1 PUSH4 0x817E9D31 EQ PUSH2 0x133 JUMPI DUP1 PUSH4 0x89A30271 EQ PUSH2 0x15C JUMPI JUMPDEST PUSH1 0x0 DUP1 REVERT JUMPDEST CALLVALUE DUP1 ISZERO PUSH2 0xB8 JUMPI PUSH1 0x0 DUP1 REVERT JUMPDEST POP PUSH2 0xD3 PUSH1 0x4 DUP1 CALLDATASIZE SUB DUP2 ADD SWAP1 PUSH2 0xCE SWAP2 SWAP1 PUSH2 0x100A JUMP JUMPDEST PUSH2 0x285 JUMP JUMPDEST PUSH1 0x40 MLOAD PUSH2 0xE0 SWAP2 SWAP1 PUSH2 0x141A JUMP JUMPDEST PUSH1 0x40 MLOAD DUP1 SWAP2 SUB SWAP1 RETURN JUMPDEST CALLVALUE DUP1 ISZERO PUSH2 0xF5 JUMPI PUSH1 0x0 DUP1 REVERT JUMPDEST POP PUSH2 0xFE PUSH2 0x2BA JUMP JUMPDEST STOP JUMPDEST CALLVALUE DUP1 ISZERO PUSH2 0x10C JUMPI PUSH1 0x0 DUP1 REVERT JUMPDEST POP PUSH2 0x115 PUSH2 0x632 JUMP JUMPDEST STOP JUMPDEST PUSH2 0x131 PUSH1 0x4 DUP1 CALLDATASIZE SUB DUP2 ADD SWAP1 PUSH2 0x12C SWAP2 SWAP1 PUSH2 0xFB0 JUMP JUMPDEST PUSH2 0x6BA JUMP JUMPDEST STOP JUMPDEST CALLVALUE DUP1 ISZERO PUSH2 0x13F JUMPI PUSH1 0x0 DUP1 REVERT JUMPDEST POP PUSH2 0x15A PUSH1 0x4 DUP1 CALLDATASIZE SUB DUP2 ADD SWAP1 PUSH2 0x155 SWAP2 SWAP1 PUSH2 0xFB0 JUMP JUMPDEST PUSH2 0x88C JUMP JUMPDEST STOP JUMPDEST CALLVALUE DUP1 ISZERO PUSH2 0x168 JUMPI PUSH1 0x0 DUP1 REVERT JUMPDEST POP PUSH2 0x171 PUSH2 0x912 JUMP JUMPDEST PUSH1 0x40 MLOAD PUSH2 0x17E SWAP2 SWAP1 PUSH2 0x12E2 JUMP JUMPDEST PUSH1 0x40 MLOAD DUP1 SWAP2 SUB SWAP1 RETURN JUMPDEST CALLVALUE DUP1 ISZERO PUSH2 0x193 JUMPI PUSH1 0x0 DUP1 REVERT JUMPDEST POP PUSH2 0x19C PUSH2 0x938 JUMP JUMPDEST PUSH1 0x40 MLOAD PUSH2 0x1A9 SWAP2 SWAP1 PUSH2 0x12E2 JUMP JUMPDEST PUSH1 0x40 MLOAD DUP1 SWAP2 SUB SWAP1 RETURN JUMPDEST CALLVALUE DUP1 ISZERO PUSH2 0x1BE JUMPI PUSH1 0x0 DUP1 REVERT JUMPDEST POP PUSH2 0x1C7 PUSH2 0x95E JUMP JUMPDEST PUSH1 0x40 MLOAD PUSH2 0x1D4 SWAP2 SWAP1 PUSH2 0x1267 JUMP JUMPDEST PUSH1 0x40 MLOAD DUP1 SWAP2 SUB SWAP1 RETURN JUMPDEST CALLVALUE DUP1 ISZERO PUSH2 0x1E9 JUMPI PUSH1 0x0 DUP1 REVERT JUMPDEST POP PUSH2 0x1F2 PUSH2 0x987 JUMP JUMPDEST PUSH1 0x40 MLOAD PUSH2 0x1FF SWAP2 SWAP1 PUSH2 0x12FD JUMP JUMPDEST PUSH1 0x40 MLOAD DUP1 SWAP2 SUB SWAP1 RETURN JUMPDEST CALLVALUE DUP1 ISZERO PUSH2 0x214 JUMPI PUSH1 0x0 DUP1 REVERT JUMPDEST POP PUSH2 0x22F PUSH1 0x4 DUP1 CALLDATASIZE SUB DUP2 ADD SWAP1 PUSH2 0x22A SWAP2 SWAP1 PUSH2 0xFB0 JUMP JUMPDEST PUSH2 0xA45 JUMP JUMPDEST STOP JUMPDEST CALLVALUE DUP1 ISZERO PUSH2 0x23D JUMPI PUSH1 0x0 DUP1 REVERT JUMPDEST POP PUSH2 0x246 PUSH2 0xB87 JUMP JUMPDEST PUSH1 0x40 MLOAD PUSH2 0x253 SWAP2 SWAP1 PUSH2 0x141A JUMP JUMPDEST PUSH1 0x40 MLOAD DUP1 SWAP2 SUB SWAP1 RETURN JUMPDEST CALLVALUE DUP1 ISZERO PUSH2 0x268 JUMPI PUSH1 0x0 DUP1 REVERT JUMPDEST POP PUSH2 0x283 PUSH1 0x4 DUP1 CALLDATASIZE SUB DUP2 ADD SWAP1 PUSH2 0x27E SWAP2 SWAP1 PUSH2 0xF56 JUMP JUMPDEST PUSH2 0xB8D JUMP JUMPDEST STOP JUMPDEST PUSH1 0x0 DUP1 PUSH8 0xDE0B6B3A7640000 PUSH2 0x2A4 DUP5 DUP7 PUSH2 0xC85 SWAP1 SWAP2 SWAP1 PUSH4 0xFFFFFFFF AND JUMP JUMPDEST PUSH2 0x2AE SWAP2 SWAP1 PUSH2 0x148D JUMP JUMPDEST SWAP1 POP DUP1 SWAP2 POP POP SWAP3 SWAP2 POP POP JUMP JUMPDEST PUSH1 0x0 PUSH2 0x2C4 PUSH2 0x95E JUMP JUMPDEST PUSH20 0xFFFFFFFFFFFFFFFFFFFFFFFFFFFFFFFFFFFFFFFF AND SELFBALANCE PUSH1 0x40 MLOAD PUSH2 0x2E7 SWAP1 PUSH2 0x1252 JUMP JUMPDEST PUSH1 0x0 PUSH1 0x40 MLOAD DUP1 DUP4 SUB DUP2 DUP6 DUP8 GAS CALL SWAP3 POP POP POP RETURNDATASIZE DUP1 PUSH1 0x0 DUP2 EQ PUSH2 0x324 JUMPI PUSH1 0x40 MLOAD SWAP2 POP PUSH1 0x1F NOT PUSH1 0x3F RETURNDATASIZE ADD AND DUP3 ADD PUSH1 0x40 MSTORE RETURNDATASIZE DUP3 MSTORE RETURNDATASIZE PUSH1 0x0 PUSH1 0x20 DUP5 ADD RETURNDATACOPY PUSH2 0x329 JUMP JUMPDEST PUSH1 0x60 SWAP2 POP JUMPDEST POP POP SWAP1 POP DUP1 PUSH2 0x36D JUMPI PUSH1 0x40 MLOAD PUSH32 0x8C379A000000000000000000000000000000000000000000000000000000000 DUP2 MSTORE PUSH1 0x4 ADD PUSH2 0x364 SWAP1 PUSH2 0x135A JUMP JUMPDEST PUSH1 0x40 MLOAD DUP1 SWAP2 SUB SWAP1 REVERT JUMPDEST PUSH1 0x3 PUSH1 0x0 SWAP1 SLOAD SWAP1 PUSH2 0x100 EXP SWAP1 DIV PUSH20 0xFFFFFFFFFFFFFFFFFFFFFFFFFFFFFFFFFFFFFFFF AND PUSH20 0xFFFFFFFFFFFFFFFFFFFFFFFFFFFFFFFFFFFFFFFF AND PUSH4 0xA9059CBB PUSH2 0x3B3 PUSH2 0x95E JUMP JUMPDEST PUSH1 0x3 PUSH1 0x0 SWAP1 SLOAD SWAP1 PUSH2 0x100 EXP SWAP1 DIV PUSH20 0xFFFFFFFFFFFFFFFFFFFFFFFFFFFFFFFFFFFFFFFF AND PUSH20 0xFFFFFFFFFFFFFFFFFFFFFFFFFFFFFFFFFFFFFFFF AND PUSH4 0x70A08231 ADDRESS PUSH1 0x40 MLOAD DUP3 PUSH4 0xFFFFFFFF AND PUSH1 0xE0 SHL DUP2 MSTORE PUSH1 0x4 ADD PUSH2 0x40E SWAP2 SWAP1 PUSH2 0x1267 JUMP JUMPDEST PUSH1 0x20 PUSH1 0x40 MLOAD DUP1 DUP4 SUB DUP2 DUP7 DUP1 EXTCODESIZE ISZERO DUP1 ISZERO PUSH2 0x426 JUMPI PUSH1 0x0 DUP1 REVERT JUMPDEST POP GAS STATICCALL ISZERO DUP1 ISZERO PUSH2 0x43A JUMPI RETURNDATASIZE PUSH1 0x0 DUP1 RETURNDATACOPY RETURNDATASIZE PUSH1 0x0 REVERT JUMPDEST POP POP POP POP PUSH1 0x40 MLOAD RETURNDATASIZE PUSH1 0x1F NOT PUSH1 0x1F DUP3 ADD AND DUP3 ADD DUP1 PUSH1 0x40 MSTORE POP DUP2 ADD SWAP1 PUSH2 0x45E SWAP2 SWAP1 PUSH2 0xFDD JUMP JUMPDEST PUSH1 0x40 MLOAD DUP4 PUSH4 0xFFFFFFFF AND PUSH1 0xE0 SHL DUP2 MSTORE PUSH1 0x4 ADD PUSH2 0x47B SWAP3 SWAP2 SWAP1 PUSH2 0x12B9 JUMP JUMPDEST PUSH1 0x20 PUSH1 0x40 MLOAD DUP1 DUP4 SUB DUP2 PUSH1 0x0 DUP8 DUP1 EXTCODESIZE ISZERO DUP1 ISZERO PUSH2 0x495 JUMPI PUSH1 0x0 DUP1 REVERT JUMPDEST POP GAS CALL ISZERO DUP1 ISZERO PUSH2 0x4A9 JUMPI RETURNDATASIZE PUSH1 0x0 DUP1 RETURNDATACOPY RETURNDATASIZE PUSH1 0x0 REVERT JUMPDEST POP POP POP POP PUSH1 0x40 MLOAD RETURNDATASIZE PUSH1 0x1F NOT PUSH1 0x1F DUP3 ADD AND DUP3 ADD DUP1 PUSH1 0x40 MSTORE POP DUP2 ADD SWAP1 PUSH2 0x4CD SWAP2 SWAP1 PUSH2 0xF83 JUMP JUMPDEST POP PUSH1 0x4 PUSH1 0x0 SWAP1 SLOAD SWAP1 PUSH2 0x100 EXP SWAP1 DIV PUSH20 0xFFFFFFFFFFFFFFFFFFFFFFFFFFFFFFFFFFFFFFFF AND PUSH20 0xFFFFFFFFFFFFFFFFFFFFFFFFFFFFFFFFFFFFFFFF AND PUSH4 0xA9059CBB PUSH2 0x514 PUSH2 0x95E JUMP JUMPDEST PUSH1 0x4 PUSH1 0x0 SWAP1 SLOAD SWAP1 PUSH2 0x100 EXP SWAP1 DIV PUSH20 0xFFFFFFFFFFFFFFFFFFFFFFFFFFFFFFFFFFFFFFFF AND PUSH20 0xFFFFFFFFFFFFFFFFFFFFFFFFFFFFFFFFFFFFFFFF AND PUSH4 0x70A08231 ADDRESS PUSH1 0x40 MLOAD DUP3 PUSH4 0xFFFFFFFF AND PUSH1 0xE0 SHL DUP2 MSTORE PUSH1 0x4 ADD PUSH2 0x56F SWAP2 SWAP1 PUSH2 0x1267 JUMP JUMPDEST PUSH1 0x20 PUSH1 0x40 MLOAD DUP1 DUP4 SUB DUP2 DUP7 DUP1 EXTCODESIZE ISZERO DUP1 ISZERO PUSH2 0x587 JUMPI PUSH1 0x0 DUP1 REVERT JUMPDEST POP GAS STATICCALL ISZERO DUP1 ISZERO PUSH2 0x59B JUMPI RETURNDATASIZE PUSH1 0x0 DUP1 RETURNDATACOPY RETURNDATASIZE PUSH1 0x0 REVERT JUMPDEST POP POP POP POP PUSH1 0x40 MLOAD RETURNDATASIZE PUSH1 0x1F NOT PUSH1 0x1F DUP3 ADD AND DUP3 ADD DUP1 PUSH1 0x40 MSTORE POP DUP2 ADD SWAP1 PUSH2 0x5BF SWAP2 SWAP1 PUSH2 0xFDD JUMP JUMPDEST PUSH1 0x40 MLOAD DUP4 PUSH4 0xFFFFFFFF AND PUSH1 0xE0 SHL DUP2 MSTORE PUSH1 0x4 ADD PUSH2 0x5DC SWAP3 SWAP2 SWAP1 PUSH2 0x12B9 JUMP JUMPDEST PUSH1 0x20 PUSH1 0x40 MLOAD DUP1 DUP4 SUB DUP2 PUSH1 0x0 DUP8 DUP1 EXTCODESIZE ISZERO DUP1 ISZERO PUSH2 0x5F6 JUMPI PUSH1 0x0 DUP1 REVERT JUMPDEST POP GAS CALL ISZERO DUP1 ISZERO PUSH2 0x60A JUMPI RETURNDATASIZE PUSH1 0x0 DUP1 RETURNDATACOPY RETURNDATASIZE PUSH1 0x0 REVERT JUMPDEST POP POP POP POP PUSH1 0x40 MLOAD RETURNDATASIZE PUSH1 0x1F NOT PUSH1 0x1F DUP3 ADD AND DUP3 ADD DUP1 PUSH1 0x40 MSTORE POP DUP2 ADD SWAP1 PUSH2 0x62E SWAP2 SWAP1 PUSH2 0xF83 JUMP JUMPDEST POP POP JUMP JUMPDEST PUSH2 0x63A PUSH2 0xCCF JUMP JUMPDEST PUSH20 0xFFFFFFFFFFFFFFFFFFFFFFFFFFFFFFFFFFFFFFFF AND PUSH2 0x658 PUSH2 0x95E JUMP JUMPDEST PUSH20 0xFFFFFFFFFFFFFFFFFFFFFFFFFFFFFFFFFFFFFFFF AND EQ PUSH2 0x6AE JUMPI PUSH1 0x40 MLOAD PUSH32 0x8C379A000000000000000000000000000000000000000000000000000000000 DUP2 MSTORE PUSH1 0x4 ADD PUSH2 0x6A5 SWAP1 PUSH2 0x13FA JUMP JUMPDEST PUSH1 0x40 MLOAD DUP1 SWAP2 SUB SWAP1 REVERT JUMPDEST PUSH2 0x6B8 PUSH1 0x0 PUSH2 0xCD7 JUMP JUMPDEST JUMP JUMPDEST PUSH1 0x2 SLOAD DUP2 LT ISZERO PUSH2 0x6FF JUMPI PUSH1 0x40 MLOAD PUSH32 0x8C379A000000000000000000000000000000000000000000000000000000000 DUP2 MSTORE PUSH1 0x4 ADD PUSH2 0x6F6 SWAP1 PUSH2 0x139A JUMP JUMPDEST PUSH1 0x40 MLOAD DUP1 SWAP2 SUB SWAP1 REVERT JUMPDEST PUSH1 0x0 PUSH8 0xDE0B6B3A7640000 PUSH1 0x2 SLOAD DUP4 PUSH2 0x718 SWAP2 SWAP1 PUSH2 0x145C JUMP JUMPDEST PUSH2 0x722 SWAP2 SWAP1 PUSH2 0x148D JUMP JUMPDEST SWAP1 POP PUSH1 0x0 PUSH2 0x72E PUSH2 0x95E JUMP JUMPDEST PUSH20 0xFFFFFFFFFFFFFFFFFFFFFFFFFFFFFFFFFFFFFFFF AND DUP3 PUSH1 0x40 MLOAD PUSH2 0x751 SWAP1 PUSH2 0x1252 JUMP JUMPDEST PUSH1 0x0 PUSH1 0x40 MLOAD DUP1 DUP4 SUB DUP2 DUP6 DUP8 GAS CALL SWAP3 POP POP POP RETURNDATASIZE DUP1 PUSH1 0x0 DUP2 EQ PUSH2 0x78E JUMPI PUSH1 0x40 MLOAD SWAP2 POP PUSH1 0x1F NOT PUSH1 0x3F RETURNDATASIZE ADD AND DUP3 ADD PUSH1 0x40 MSTORE RETURNDATASIZE DUP3 MSTORE RETURNDATASIZE PUSH1 0x0 PUSH1 0x20 DUP5 ADD RETURNDATACOPY PUSH2 0x793 JUMP JUMPDEST PUSH1 0x60 SWAP2 POP JUMPDEST POP POP SWAP1 POP DUP1 PUSH2 0x7D7 JUMPI PUSH1 0x40 MLOAD PUSH32 0x8C379A000000000000000000000000000000000000000000000000000000000 DUP2 MSTORE PUSH1 0x4 ADD PUSH2 0x7CE SWAP1 PUSH2 0x13DA JUMP JUMPDEST PUSH1 0x40 MLOAD DUP1 SWAP2 SUB SWAP1 REVERT JUMPDEST PUSH1 0x3 PUSH1 0x0 SWAP1 SLOAD SWAP1 PUSH2 0x100 EXP SWAP1 DIV PUSH20 0xFFFFFFFFFFFFFFFFFFFFFFFFFFFFFFFFFFFFFFFF AND PUSH20 0xFFFFFFFFFFFFFFFFFFFFFFFFFFFFFFFFFFFFFFFF AND PUSH4 0xA9059CBB CALLER DUP6 PUSH1 0x40 MLOAD DUP4 PUSH4 0xFFFFFFFF AND PUSH1 0xE0 SHL DUP2 MSTORE PUSH1 0x4 ADD PUSH2 0x834 SWAP3 SWAP2 SWAP1 PUSH2 0x12B9 JUMP JUMPDEST PUSH1 0x20 PUSH1 0x40 MLOAD DUP1 DUP4 SUB DUP2 PUSH1 0x0 DUP8 DUP1 EXTCODESIZE ISZERO DUP1 ISZERO PUSH2 0x84E JUMPI PUSH1 0x0 DUP1 REVERT JUMPDEST POP GAS CALL ISZERO DUP1 ISZERO PUSH2 0x862 JUMPI RETURNDATASIZE PUSH1 0x0 DUP1 RETURNDATACOPY RETURNDATASIZE PUSH1 0x0 REVERT JUMPDEST POP POP POP POP PUSH1 0x40 MLOAD RETURNDATASIZE PUSH1 0x1F NOT PUSH1 0x1F DUP3 ADD AND DUP3 ADD DUP1 PUSH1 0x40 MSTORE POP DUP2 ADD SWAP1 PUSH2 0x886 SWAP2 SWAP1 PUSH2 0xF83 JUMP JUMPDEST POP POP POP POP JUMP JUMPDEST PUSH2 0x894 PUSH2 0xCCF JUMP JUMPDEST PUSH20 0xFFFFFFFFFFFFFFFFFFFFFFFFFFFFFFFFFFFFFFFF AND PUSH2 0x8B2 PUSH2 0x95E JUMP JUMPDEST PUSH20 0xFFFFFFFFFFFFFFFFFFFFFFFFFFFFFFFFFFFFFFFF AND EQ PUSH2 0x908 JUMPI PUSH1 0x40 MLOAD PUSH32 0x8C379A000000000000000000000000000000000000000000000000000000000 DUP2 MSTORE PUSH1 0x4 ADD PUSH2 0x8FF SWAP1 PUSH2 0x13FA JUMP JUMPDEST PUSH1 0x40 MLOAD DUP1 SWAP2 SUB SWAP1 REVERT JUMPDEST DUP1 PUSH1 0x2 DUP2 SWAP1 SSTORE POP POP JUMP JUMPDEST PUSH1 0x4 PUSH1 0x0 SWAP1 SLOAD SWAP1 PUSH2 0x100 EXP SWAP1 DIV PUSH20 0xFFFFFFFFFFFFFFFFFFFFFFFFFFFFFFFFFFFFFFFF AND DUP2 JUMP JUMPDEST PUSH1 0x3 PUSH1 0x0 SWAP1 SLOAD SWAP1 PUSH2 0x100 EXP SWAP1 DIV PUSH20 0xFFFFFFFFFFFFFFFFFFFFFFFFFFFFFFFFFFFFFFFF AND DUP2 JUMP JUMPDEST PUSH1 0x0 DUP1 PUSH1 0x0 SWAP1 SLOAD SWAP1 PUSH2 0x100 EXP SWAP1 DIV PUSH20 0xFFFFFFFFFFFFFFFFFFFFFFFFFFFFFFFFFFFFFFFF AND SWAP1 POP SWAP1 JUMP JUMPDEST PUSH1 0x0 DUP1 PUSH1 0x0 DUP1 PUSH1 0x0 DUP1 PUSH1 0x1 PUSH1 0x0 SWAP1 SLOAD SWAP1 PUSH2 0x100 EXP SWAP1 DIV PUSH20 0xFFFFFFFFFFFFFFFFFFFFFFFFFFFFFFFFFFFFFFFF AND PUSH20 0xFFFFFFFFFFFFFFFFFFFFFFFFFFFFFFFFFFFFFFFF AND PUSH4 0xFEAF968C PUSH1 0x40 MLOAD DUP2 PUSH4 0xFFFFFFFF AND PUSH1 0xE0 SHL DUP2 MSTORE PUSH1 0x4 ADD PUSH1 0xA0 PUSH1 0x40 MLOAD DUP1 DUP4 SUB DUP2 DUP7 DUP1 EXTCODESIZE ISZERO DUP1 ISZERO PUSH2 0x9F8 JUMPI PUSH1 0x0 DUP1 REVERT JUMPDEST POP GAS STATICCALL ISZERO DUP1 ISZERO PUSH2 0xA0C JUMPI RETURNDATASIZE PUSH1 0x0 DUP1 RETURNDATACOPY RETURNDATASIZE PUSH1 0x0 REVERT JUMPDEST POP POP POP POP PUSH1 0x40 MLOAD RETURNDATASIZE PUSH1 0x1F NOT PUSH1 0x1F DUP3 ADD AND DUP3 ADD DUP1 PUSH1 0x40 MSTORE POP DUP2 ADD SWAP1 PUSH2 0xA30 SWAP2 SWAP1 PUSH2 0x104A JUMP JUMPDEST SWAP5 POP SWAP5 POP SWAP5 POP SWAP5 POP SWAP5 POP DUP4 SWAP6 POP POP POP POP POP POP SWAP1 JUMP JUMPDEST PUSH1 0x2 SLOAD DUP2 EQ PUSH2 0xA89 JUMPI PUSH1 0x40 MLOAD PUSH32 0x8C379A000000000000000000000000000000000000000000000000000000000 DUP2 MSTORE PUSH1 0x4 ADD PUSH2 0xA80 SWAP1 PUSH2 0x13BA JUMP JUMPDEST PUSH1 0x40 MLOAD DUP1 SWAP2 SUB SWAP1 REVERT JUMPDEST PUSH2 0xAB7 PUSH1 0x3 PUSH1 0x0 SWAP1 SLOAD SWAP1 PUSH2 0x100 EXP SWAP1 DIV PUSH20 0xFFFFFFFFFFFFFFFFFFFFFFFFFFFFFFFFFFFFFFFF AND CALLER ADDRESS DUP5 PUSH2 0xD9B JUMP JUMPDEST PUSH1 0x0 PUSH5 0x2540BE400 PUSH2 0xAC7 PUSH2 0x987 JUMP JUMPDEST PUSH2 0xAD1 SWAP2 SWAP1 PUSH2 0x148D JUMP JUMPDEST SWAP1 POP PUSH1 0x4 PUSH1 0x0 SWAP1 SLOAD SWAP1 PUSH2 0x100 EXP SWAP1 DIV PUSH20 0xFFFFFFFFFFFFFFFFFFFFFFFFFFFFFFFFFFFFFFFF AND PUSH20 0xFFFFFFFFFFFFFFFFFFFFFFFFFFFFFFFFFFFFFFFF AND PUSH4 0xA9059CBB CALLER DUP4 PUSH1 0x40 MLOAD DUP4 PUSH4 0xFFFFFFFF AND PUSH1 0xE0 SHL DUP2 MSTORE PUSH1 0x4 ADD PUSH2 0xB30 SWAP3 SWAP2 SWAP1 PUSH2 0x12B9 JUMP JUMPDEST PUSH1 0x20 PUSH1 0x40 MLOAD DUP1 DUP4 SUB DUP2 PUSH1 0x0 DUP8 DUP1 EXTCODESIZE ISZERO DUP1 ISZERO PUSH2 0xB4A JUMPI PUSH1 0x0 DUP1 REVERT JUMPDEST POP GAS CALL ISZERO DUP1 ISZERO PUSH2 0xB5E JUMPI RETURNDATASIZE PUSH1 0x0 DUP1 RETURNDATACOPY RETURNDATASIZE PUSH1 0x0 REVERT JUMPDEST POP POP POP POP PUSH1 0x40 MLOAD RETURNDATASIZE PUSH1 0x1F NOT PUSH1 0x1F DUP3 ADD AND DUP3 ADD DUP1 PUSH1 0x40 MSTORE POP DUP2 ADD SWAP1 PUSH2 0xB82 SWAP2 SWAP1 PUSH2 0xF83 JUMP JUMPDEST POP POP POP JUMP JUMPDEST PUSH1 0x2 SLOAD DUP2 JUMP JUMPDEST PUSH2 0xB95 PUSH2 0xCCF JUMP JUMPDEST PUSH20 0xFFFFFFFFFFFFFFFFFFFFFFFFFFFFFFFFFFFFFFFF AND PUSH2 0xBB3 PUSH2 0x95E JUMP JUMPDEST PUSH20 0xFFFFFFFFFFFFFFFFFFFFFFFFFFFFFFFFFFFFFFFF AND EQ PUSH2 0xC09 JUMPI PUSH1 0x40 MLOAD PUSH32 0x8C379A000000000000000000000000000000000000000000000000000000000 DUP2 MSTORE PUSH1 0x4 ADD PUSH2 0xC00 SWAP1 PUSH2 0x13FA JUMP JUMPDEST PUSH1 0x40 MLOAD DUP1 SWAP2 SUB SWAP1 REVERT JUMPDEST PUSH1 0x0 PUSH20 0xFFFFFFFFFFFFFFFFFFFFFFFFFFFFFFFFFFFFFFFF AND DUP2 PUSH20 0xFFFFFFFFFFFFFFFFFFFFFFFFFFFFFFFFFFFFFFFF AND EQ ISZERO PUSH2 0xC79 JUMPI PUSH1 0x40 MLOAD PUSH32 0x8C379A000000000000000000000000000000000000000000000000000000000 DUP2 MSTORE PUSH1 0x4 ADD PUSH2 0xC70 SWAP1 PUSH2 0x133A JUMP JUMPDEST PUSH1 0x40 MLOAD DUP1 SWAP2 SUB SWAP1 REVERT JUMPDEST PUSH2 0xC82 DUP2 PUSH2 0xCD7 JUMP JUMPDEST POP JUMP JUMPDEST PUSH1 0x0 PUSH2 0xCC7 DUP4 DUP4 PUSH1 0x40 MLOAD DUP1 PUSH1 0x40 ADD PUSH1 0x40 MSTORE DUP1 PUSH1 0x1A DUP2 MSTORE PUSH1 0x20 ADD PUSH32 0x536166654D6174683A206469766973696F6E206279207A65726F000000000000 DUP2 MSTORE POP PUSH2 0xE75 JUMP JUMPDEST SWAP1 POP SWAP3 SWAP2 POP POP JUMP JUMPDEST PUSH1 0x0 CALLER SWAP1 POP SWAP1 JUMP JUMPDEST PUSH1 0x0 DUP1 PUSH1 0x0 SWAP1 SLOAD SWAP1 PUSH2 0x100 EXP SWAP1 DIV PUSH20 0xFFFFFFFFFFFFFFFFFFFFFFFFFFFFFFFFFFFFFFFF AND SWAP1 POP DUP2 PUSH1 0x0 DUP1 PUSH2 0x100 EXP DUP2 SLOAD DUP2 PUSH20 0xFFFFFFFFFFFFFFFFFFFFFFFFFFFFFFFFFFFFFFFF MUL NOT AND SWAP1 DUP4 PUSH20 0xFFFFFFFFFFFFFFFFFFFFFFFFFFFFFFFFFFFFFFFF AND MUL OR SWAP1 SSTORE POP DUP2 PUSH20 0xFFFFFFFFFFFFFFFFFFFFFFFFFFFFFFFFFFFFFFFF AND DUP2 PUSH20 0xFFFFFFFFFFFFFFFFFFFFFFFFFFFFFFFFFFFFFFFF AND PUSH32 0x8BE0079C531659141344CD1FD0A4F28419497F9722A3DAAFE3B4186F6B6457E0 PUSH1 0x40 MLOAD PUSH1 0x40 MLOAD DUP1 SWAP2 SUB SWAP1 LOG3 POP POP JUMP JUMPDEST PUSH1 0x0 DUP5 PUSH20 0xFFFFFFFFFFFFFFFFFFFFFFFFFFFFFFFFFFFFFFFF AND PUSH4 0x23B872DD DUP6 DUP6 DUP6 PUSH1 0x40 MLOAD DUP5 PUSH4 0xFFFFFFFF AND PUSH1 0xE0 SHL DUP2 MSTORE PUSH1 0x4 ADD PUSH2 0xDDA SWAP4 SWAP3 SWAP2 SWAP1 PUSH2 0x1282 JUMP JUMPDEST PUSH1 0x20 PUSH1 0x40 MLOAD DUP1 DUP4 SUB DUP2 PUSH1 0x0 DUP8 DUP1 EXTCODESIZE ISZERO DUP1 ISZERO PUSH2 0xDF4 JUMPI PUSH1 0x0 DUP1 REVERT JUMPDEST POP GAS CALL ISZERO DUP1 ISZERO PUSH2 0xE08 JUMPI RETURNDATASIZE PUSH1 0x0 DUP1 RETURNDATACOPY RETURNDATASIZE PUSH1 0x0 REVERT JUMPDEST POP POP POP POP PUSH1 0x40 MLOAD RETURNDATASIZE PUSH1 0x1F NOT PUSH1 0x1F DUP3 ADD AND DUP3 ADD DUP1 PUSH1 0x40 MSTORE POP DUP2 ADD SWAP1 PUSH2 0xE2C SWAP2 SWAP1 PUSH2 0xF83 JUMP JUMPDEST SWAP1 POP DUP1 PUSH2 0xE6E JUMPI PUSH1 0x40 MLOAD PUSH32 0x8C379A000000000000000000000000000000000000000000000000000000000 DUP2 MSTORE PUSH1 0x4 ADD PUSH2 0xE65 SWAP1 PUSH2 0x137A JUMP JUMPDEST PUSH1 0x40 MLOAD DUP1 SWAP2 SUB SWAP1 REVERT JUMPDEST POP POP POP POP POP JUMP JUMPDEST PUSH1 0x0 DUP1 DUP4 GT DUP3 SWAP1 PUSH2 0xEBC JUMPI PUSH1 0x40 MLOAD PUSH32 0x8C379A000000000000000000000000000000000000000000000000000000000 DUP2 MSTORE PUSH1 0x4 ADD PUSH2 0xEB3 SWAP2 SWAP1 PUSH2 0x1318 JUMP JUMPDEST PUSH1 0x40 MLOAD DUP1 SWAP2 SUB SWAP1 REVERT JUMPDEST POP PUSH1 0x0 DUP4 DUP6 PUSH2 0xECB SWAP2 SWAP1 PUSH2 0x145C JUMP JUMPDEST SWAP1 POP DUP1 SWAP2 POP POP SWAP4 SWAP3 POP POP POP JUMP JUMPDEST PUSH1 0x0 DUP2 CALLDATALOAD SWAP1 POP PUSH2 0xEE7 DUP2 PUSH2 0x1774 JUMP JUMPDEST SWAP3 SWAP2 POP POP JUMP JUMPDEST PUSH1 0x0 DUP2 MLOAD SWAP1 POP PUSH2 0xEFC DUP2 PUSH2 0x178B JUMP JUMPDEST SWAP3 SWAP2 POP POP JUMP JUMPDEST PUSH1 0x0 DUP2 MLOAD SWAP1 POP PUSH2 0xF11 DUP2 PUSH2 0x17A2 JUMP JUMPDEST SWAP3 SWAP2 POP POP JUMP JUMPDEST PUSH1 0x0 DUP2 CALLDATALOAD SWAP1 POP PUSH2 0xF26 DUP2 PUSH2 0x17B9 JUMP JUMPDEST SWAP3 SWAP2 POP POP JUMP JUMPDEST PUSH1 0x0 DUP2 MLOAD SWAP1 POP PUSH2 0xF3B DUP2 PUSH2 0x17B9 JUMP JUMPDEST SWAP3 SWAP2 POP POP JUMP JUMPDEST PUSH1 0x0 DUP2 MLOAD SWAP1 POP PUSH2 0xF50 DUP2 PUSH2 0x17D0 JUMP JUMPDEST SWAP3 SWAP2 POP POP JUMP JUMPDEST PUSH1 0x0 PUSH1 0x20 DUP3 DUP5 SUB SLT ISZERO PUSH2 0xF6C JUMPI PUSH2 0xF6B PUSH2 0x1616 JUMP JUMPDEST JUMPDEST PUSH1 0x0 PUSH2 0xF7A DUP5 DUP3 DUP6 ADD PUSH2 0xED8 JUMP JUMPDEST SWAP2 POP POP SWAP3 SWAP2 POP POP JUMP JUMPDEST PUSH1 0x0 PUSH1 0x20 DUP3 DUP5 SUB SLT ISZERO PUSH2 0xF99 JUMPI PUSH2 0xF98 PUSH2 0x1616 JUMP JUMPDEST JUMPDEST PUSH1 0x0 PUSH2 0xFA7 DUP5 DUP3 DUP6 ADD PUSH2 0xEED JUMP JUMPDEST SWAP2 POP POP SWAP3 SWAP2 POP POP JUMP JUMPDEST PUSH1 0x0 PUSH1 0x20 DUP3 DUP5 SUB SLT ISZERO PUSH2 0xFC6 JUMPI PUSH2 0xFC5 PUSH2 0x1616 JUMP JUMPDEST JUMPDEST PUSH1 0x0 PUSH2 0xFD4 DUP5 DUP3 DUP6 ADD PUSH2 0xF17 JUMP JUMPDEST SWAP2 POP POP SWAP3 SWAP2 POP POP JUMP JUMPDEST PUSH1 0x0 PUSH1 0x20 DUP3 DUP5 SUB SLT ISZERO PUSH2 0xFF3 JUMPI PUSH2 0xFF2 PUSH2 0x1616 JUMP JUMPDEST JUMPDEST PUSH1 0x0 PUSH2 0x1001 DUP5 DUP3 DUP6 ADD PUSH2 0xF2C JUMP JUMPDEST SWAP2 POP POP SWAP3 SWAP2 POP POP JUMP JUMPDEST PUSH1 0x0 DUP1 PUSH1 0x40 DUP4 DUP6 SUB SLT ISZERO PUSH2 0x1021 JUMPI PUSH2 0x1020 PUSH2 0x1616 JUMP JUMPDEST JUMPDEST PUSH1 0x0 PUSH2 0x102F DUP6 DUP3 DUP7 ADD PUSH2 0xF17 JUMP JUMPDEST SWAP3 POP POP PUSH1 0x20 PUSH2 0x1040 DUP6 DUP3 DUP7 ADD PUSH2 0xF17 JUMP JUMPDEST SWAP2 POP POP SWAP3 POP SWAP3 SWAP1 POP JUMP JUMPDEST PUSH1 0x0 DUP1 PUSH1 0x0 DUP1 PUSH1 0x0 PUSH1 0xA0 DUP7 DUP9 SUB SLT ISZERO PUSH2 0x1066 JUMPI PUSH2 0x1065 PUSH2 0x1616 JUMP JUMPDEST JUMPDEST PUSH1 0x0 PUSH2 0x1074 DUP9 DUP3 DUP10 ADD PUSH2 0xF41 JUMP JUMPDEST SWAP6 POP POP PUSH1 0x20 PUSH2 0x1085 DUP9 DUP3 DUP10 ADD PUSH2 0xF02 JUMP JUMPDEST SWAP5 POP POP PUSH1 0x40 PUSH2 0x1096 DUP9 DUP3 DUP10 ADD PUSH2 0xF2C JUMP JUMPDEST SWAP4 POP POP PUSH1 0x60 PUSH2 0x10A7 DUP9 DUP3 DUP10 ADD PUSH2 0xF2C JUMP JUMPDEST SWAP3 POP POP PUSH1 0x80 PUSH2 0x10B8 DUP9 DUP3 DUP10 ADD PUSH2 0xF41 JUMP JUMPDEST SWAP2 POP POP SWAP3 SWAP6 POP SWAP3 SWAP6 SWAP1 SWAP4 POP JUMP JUMPDEST PUSH2 0x10CE DUP2 PUSH2 0x14E7 JUMP JUMPDEST DUP3 MSTORE POP POP JUMP JUMPDEST PUSH2 0x10DD DUP2 PUSH2 0x154F JUMP JUMPDEST DUP3 MSTORE POP POP JUMP JUMPDEST PUSH2 0x10EC DUP2 PUSH2 0x1505 JUMP JUMPDEST DUP3 MSTORE POP POP JUMP JUMPDEST PUSH1 0x0 PUSH2 0x10FD DUP3 PUSH2 0x1435 JUMP JUMPDEST PUSH2 0x1107 DUP2 DUP6 PUSH2 0x144B JUMP JUMPDEST SWAP4 POP PUSH2 0x1117 DUP2 DUP6 PUSH1 0x20 DUP7 ADD PUSH2 0x1585 JUMP JUMPDEST PUSH2 0x1120 DUP2 PUSH2 0x161B JUMP JUMPDEST DUP5 ADD SWAP2 POP POP SWAP3 SWAP2 POP POP JUMP JUMPDEST PUSH1 0x0 PUSH2 0x1138 PUSH1 0x26 DUP4 PUSH2 0x144B JUMP JUMPDEST SWAP2 POP PUSH2 0x1143 DUP3 PUSH2 0x162C JUMP JUMPDEST PUSH1 0x40 DUP3 ADD SWAP1 POP SWAP2 SWAP1 POP JUMP JUMPDEST PUSH1 0x0 PUSH2 0x115B PUSH1 0x14 DUP4 PUSH2 0x144B JUMP JUMPDEST SWAP2 POP PUSH2 0x1166 DUP3 PUSH2 0x167B JUMP JUMPDEST PUSH1 0x20 DUP3 ADD SWAP1 POP SWAP2 SWAP1 POP JUMP JUMPDEST PUSH1 0x0 PUSH2 0x117E PUSH1 0x15 DUP4 PUSH2 0x144B JUMP JUMPDEST SWAP2 POP PUSH2 0x1189 DUP3 PUSH2 0x16A4 JUMP JUMPDEST PUSH1 0x20 DUP3 ADD SWAP1 POP SWAP2 SWAP1 POP JUMP JUMPDEST PUSH1 0x0 PUSH2 0x11A1 PUSH1 0x1A DUP4 PUSH2 0x144B JUMP JUMPDEST SWAP2 POP PUSH2 0x11AC DUP3 PUSH2 0x16CD JUMP JUMPDEST PUSH1 0x20 DUP3 ADD SWAP1 POP SWAP2 SWAP1 POP JUMP JUMPDEST PUSH1 0x0 PUSH2 0x11C4 PUSH1 0x13 DUP4 PUSH2 0x144B JUMP JUMPDEST SWAP2 POP PUSH2 0x11CF DUP3 PUSH2 0x16F6 JUMP JUMPDEST PUSH1 0x20 DUP3 ADD SWAP1 POP SWAP2 SWAP1 POP JUMP JUMPDEST PUSH1 0x0 PUSH2 0x11E7 PUSH1 0x10 DUP4 PUSH2 0x144B JUMP JUMPDEST SWAP2 POP PUSH2 0x11F2 DUP3 PUSH2 0x171F JUMP JUMPDEST PUSH1 0x20 DUP3 ADD SWAP1 POP SWAP2 SWAP1 POP JUMP JUMPDEST PUSH1 0x0 PUSH2 0x120A PUSH1 0x20 DUP4 PUSH2 0x144B JUMP JUMPDEST SWAP2 POP PUSH2 0x1215 DUP3 PUSH2 0x1748 JUMP JUMPDEST PUSH1 0x20 DUP3 ADD SWAP1 POP SWAP2 SWAP1 POP JUMP JUMPDEST PUSH1 0x0 PUSH2 0x122D PUSH1 0x0 DUP4 PUSH2 0x1440 JUMP JUMPDEST SWAP2 POP PUSH2 0x1238 DUP3 PUSH2 0x1771 JUMP JUMPDEST PUSH1 0x0 DUP3 ADD SWAP1 POP SWAP2 SWAP1 POP JUMP JUMPDEST PUSH2 0x124C DUP2 PUSH2 0x152F JUMP JUMPDEST DUP3 MSTORE POP POP JUMP JUMPDEST PUSH1 0x0 PUSH2 0x125D DUP3 PUSH2 0x1220 JUMP JUMPDEST SWAP2 POP DUP2 SWAP1 POP SWAP2 SWAP1 POP JUMP JUMPDEST PUSH1 0x0 PUSH1 0x20 DUP3 ADD SWAP1 POP PUSH2 0x127C PUSH1 0x0 DUP4 ADD DUP5 PUSH2 0x10C5 JUMP JUMPDEST SWAP3 SWAP2 POP POP JUMP JUMPDEST PUSH1 0x0 PUSH1 0x60 DUP3 ADD SWAP1 POP PUSH2 0x1297 PUSH1 0x0 DUP4 ADD DUP7 PUSH2 0x10C5 JUMP JUMPDEST PUSH2 0x12A4 PUSH1 0x20 DUP4 ADD DUP6 PUSH2 0x10C5 JUMP JUMPDEST PUSH2 0x12B1 PUSH1 0x40 DUP4 ADD DUP5 PUSH2 0x1243 JUMP JUMPDEST SWAP5 SWAP4 POP POP POP POP JUMP JUMPDEST PUSH1 0x0 PUSH1 0x40 DUP3 ADD SWAP1 POP PUSH2 0x12CE PUSH1 0x0 DUP4 ADD DUP6 PUSH2 0x10C5 JUMP JUMPDEST PUSH2 0x12DB PUSH1 0x20 DUP4 ADD DUP5 PUSH2 0x1243 JUMP JUMPDEST SWAP4 SWAP3 POP POP POP JUMP JUMPDEST PUSH1 0x0 PUSH1 0x20 DUP3 ADD SWAP1 POP PUSH2 0x12F7 PUSH1 0x0 DUP4 ADD DUP5 PUSH2 0x10D4 JUMP JUMPDEST SWAP3 SWAP2 POP POP JUMP JUMPDEST PUSH1 0x0 PUSH1 0x20 DUP3 ADD SWAP1 POP PUSH2 0x1312 PUSH1 0x0 DUP4 ADD DUP5 PUSH2 0x10E3 JUMP JUMPDEST SWAP3 SWAP2 POP POP JUMP JUMPDEST PUSH1 0x0 PUSH1 0x20 DUP3 ADD SWAP1 POP DUP2 DUP2 SUB PUSH1 0x0 DUP4 ADD MSTORE PUSH2 0x1332 DUP2 DUP5 PUSH2 0x10F2 JUMP JUMPDEST SWAP1 POP SWAP3 SWAP2 POP POP JUMP JUMPDEST PUSH1 0x0 PUSH1 0x20 DUP3 ADD SWAP1 POP DUP2 DUP2 SUB PUSH1 0x0 DUP4 ADD MSTORE PUSH2 0x1353 DUP2 PUSH2 0x112B JUMP JUMPDEST SWAP1 POP SWAP2 SWAP1 POP JUMP JUMPDEST PUSH1 0x0 PUSH1 0x20 DUP3 ADD SWAP1 POP DUP2 DUP2 SUB PUSH1 0x0 DUP4 ADD MSTORE PUSH2 0x1373 DUP2 PUSH2 0x114E JUMP JUMPDEST SWAP1 POP SWAP2 SWAP1 POP JUMP JUMPDEST PUSH1 0x0 PUSH1 0x20 DUP3 ADD SWAP1 POP DUP2 DUP2 SUB PUSH1 0x0 DUP4 ADD MSTORE PUSH2 0x1393 DUP2 PUSH2 0x1171 JUMP JUMPDEST SWAP1 POP SWAP2 SWAP1 POP JUMP JUMPDEST PUSH1 0x0 PUSH1 0x20 DUP3 ADD SWAP1 POP DUP2 DUP2 SUB PUSH1 0x0 DUP4 ADD MSTORE PUSH2 0x13B3 DUP2 PUSH2 0x1194 JUMP JUMPDEST SWAP1 POP SWAP2 SWAP1 POP JUMP JUMPDEST PUSH1 0x0 PUSH1 0x20 DUP3 ADD SWAP1 POP DUP2 DUP2 SUB PUSH1 0x0 DUP4 ADD MSTORE PUSH2 0x13D3 DUP2 PUSH2 0x11B7 JUMP JUMPDEST SWAP1 POP SWAP2 SWAP1 POP JUMP JUMPDEST PUSH1 0x0 PUSH1 0x20 DUP3 ADD SWAP1 POP DUP2 DUP2 SUB PUSH1 0x0 DUP4 ADD MSTORE PUSH2 0x13F3 DUP2 PUSH2 0x11DA JUMP JUMPDEST SWAP1 POP SWAP2 SWAP1 POP JUMP JUMPDEST PUSH1 0x0 PUSH1 0x20 DUP3 ADD SWAP1 POP DUP2 DUP2 SUB PUSH1 0x0 DUP4 ADD MSTORE PUSH2 0x1413 DUP2 PUSH2 0x11FD JUMP JUMPDEST SWAP1 POP SWAP2 SWAP1 POP JUMP JUMPDEST PUSH1 0x0 PUSH1 0x20 DUP3 ADD SWAP1 POP PUSH2 0x142F PUSH1 0x0 DUP4 ADD DUP5 PUSH2 0x1243 JUMP JUMPDEST SWAP3 SWAP2 POP POP JUMP JUMPDEST PUSH1 0x0 DUP2 MLOAD SWAP1 POP SWAP2 SWAP1 POP JUMP JUMPDEST PUSH1 0x0 DUP2 SWAP1 POP SWAP3 SWAP2 POP POP JUMP JUMPDEST PUSH1 0x0 DUP3 DUP3 MSTORE PUSH1 0x20 DUP3 ADD SWAP1 POP SWAP3 SWAP2 POP POP JUMP JUMPDEST PUSH1 0x0 PUSH2 0x1467 DUP3 PUSH2 0x152F JUMP JUMPDEST SWAP2 POP PUSH2 0x1472 DUP4 PUSH2 0x152F JUMP JUMPDEST SWAP3 POP DUP3 PUSH2 0x1482 JUMPI PUSH2 0x1481 PUSH2 0x15E7 JUMP JUMPDEST JUMPDEST DUP3 DUP3 DIV SWAP1 POP SWAP3 SWAP2 POP POP JUMP JUMPDEST PUSH1 0x0 PUSH2 0x1498 DUP3 PUSH2 0x152F JUMP JUMPDEST SWAP2 POP PUSH2 0x14A3 DUP4 PUSH2 0x152F JUMP JUMPDEST SWAP3 POP DUP2 PUSH32 0xFFFFFFFFFFFFFFFFFFFFFFFFFFFFFFFFFFFFFFFFFFFFFFFFFFFFFFFFFFFFFFFF DIV DUP4 GT DUP3 ISZERO ISZERO AND ISZERO PUSH2 0x14DC JUMPI PUSH2 0x14DB PUSH2 0x15B8 JUMP JUMPDEST JUMPDEST DUP3 DUP3 MUL SWAP1 POP SWAP3 SWAP2 POP POP JUMP JUMPDEST PUSH1 0x0 PUSH2 0x14F2 DUP3 PUSH2 0x150F JUMP JUMPDEST SWAP1 POP SWAP2 SWAP1 POP JUMP JUMPDEST PUSH1 0x0 DUP2 ISZERO ISZERO SWAP1 POP SWAP2 SWAP1 POP JUMP JUMPDEST PUSH1 0x0 DUP2 SWAP1 POP SWAP2 SWAP1 POP JUMP JUMPDEST PUSH1 0x0 PUSH20 0xFFFFFFFFFFFFFFFFFFFFFFFFFFFFFFFFFFFFFFFF DUP3 AND SWAP1 POP SWAP2 SWAP1 POP JUMP JUMPDEST PUSH1 0x0 DUP2 SWAP1 POP SWAP2 SWAP1 POP JUMP JUMPDEST PUSH1 0x0 PUSH10 0xFFFFFFFFFFFFFFFFFFFF DUP3 AND SWAP1 POP SWAP2 SWAP1 POP JUMP JUMPDEST PUSH1 0x0 PUSH2 0x155A DUP3 PUSH2 0x1561 JUMP JUMPDEST SWAP1 POP SWAP2 SWAP1 POP JUMP JUMPDEST PUSH1 0x0 PUSH2 0x156C DUP3 PUSH2 0x1573 JUMP JUMPDEST SWAP1 POP SWAP2 SWAP1 POP JUMP JUMPDEST PUSH1 0x0 PUSH2 0x157E DUP3 PUSH2 0x150F JUMP JUMPDEST SWAP1 POP SWAP2 SWAP1 POP JUMP JUMPDEST PUSH1 0x0 JUMPDEST DUP4 DUP2 LT ISZERO PUSH2 0x15A3 JUMPI DUP1 DUP3 ADD MLOAD DUP2 DUP5 ADD MSTORE PUSH1 0x20 DUP2 ADD SWAP1 POP PUSH2 0x1588 JUMP JUMPDEST DUP4 DUP2 GT ISZERO PUSH2 0x15B2 JUMPI PUSH1 0x0 DUP5 DUP5 ADD MSTORE JUMPDEST POP POP POP POP JUMP JUMPDEST PUSH32 0x4E487B7100000000000000000000000000000000000000000000000000000000 PUSH1 0x0 MSTORE PUSH1 0x11 PUSH1 0x4 MSTORE PUSH1 0x24 PUSH1 0x0 REVERT JUMPDEST PUSH32 0x4E487B7100000000000000000000000000000000000000000000000000000000 PUSH1 0x0 MSTORE PUSH1 0x12 PUSH1 0x4 MSTORE PUSH1 0x24 PUSH1 0x0 REVERT JUMPDEST PUSH1 0x0 DUP1 REVERT JUMPDEST PUSH1 0x0 PUSH1 0x1F NOT PUSH1 0x1F DUP4 ADD AND SWAP1 POP SWAP2 SWAP1 POP JUMP JUMPDEST PUSH32 0x4F776E61626C653A206E6577206F776E657220697320746865207A65726F2061 PUSH1 0x0 DUP3 ADD MSTORE PUSH32 0x6464726573730000000000000000000000000000000000000000000000000000 PUSH1 0x20 DUP3 ADD MSTORE POP JUMP JUMPDEST PUSH32 0x4661696C656420746F2073656E64204574686572000000000000000000000000 PUSH1 0x0 DUP3 ADD MSTORE POP JUMP JUMPDEST PUSH32 0x546F6B656E207472616E73666572206661696C65640000000000000000000000 PUSH1 0x0 DUP3 ADD MSTORE POP JUMP JUMPDEST PUSH32 0x4D696E696D756D20747261646520616D6F756E74203120626E62000000000000 PUSH1 0x0 DUP3 ADD MSTORE POP JUMP JUMPDEST PUSH32 0x4D757374206265203120626E6220776F72746800000000000000000000000000 PUSH1 0x0 DUP3 ADD MSTORE POP JUMP JUMPDEST PUSH32 0x5472616E73666572206661696C65642100000000000000000000000000000000 PUSH1 0x0 DUP3 ADD MSTORE POP JUMP JUMPDEST PUSH32 0x4F776E61626C653A2063616C6C6572206973206E6F7420746865206F776E6572 PUSH1 0x0 DUP3 ADD MSTORE POP JUMP JUMPDEST POP JUMP JUMPDEST PUSH2 0x177D DUP2 PUSH2 0x14E7 JUMP JUMPDEST DUP2 EQ PUSH2 0x1788 JUMPI PUSH1 0x0 DUP1 REVERT JUMPDEST POP JUMP JUMPDEST PUSH2 0x1794 DUP2 PUSH2 0x14F9 JUMP JUMPDEST DUP2 EQ PUSH2 0x179F JUMPI PUSH1 0x0 DUP1 REVERT JUMPDEST POP JUMP JUMPDEST PUSH2 0x17AB DUP2 PUSH2 0x1505 JUMP JUMPDEST DUP2 EQ PUSH2 0x17B6 JUMPI PUSH1 0x0 DUP1 REVERT JUMPDEST POP JUMP JUMPDEST PUSH2 0x17C2 DUP2 PUSH2 0x152F JUMP JUMPDEST DUP2 EQ PUSH2 0x17CD JUMPI PUSH1 0x0 DUP1 REVERT JUMPDEST POP JUMP JUMPDEST PUSH2 0x17D9 DUP2 PUSH2 0x1539 JUMP JUMPDEST DUP2 EQ PUSH2 0x17E4 JUMPI PUSH1 0x0 DUP1 REVERT JUMPDEST POP JUMP INVALID LOG2 PUSH5 0x6970667358 0x22 SLT KECCAK256 0x4C PUSH17 0xD60A6D1FD62F991E5F9FB95CE0A5100F84 0xD9 PUSH2 0x465E PUSH13 0x14BD6D85B094329B64736F6C63 NUMBER STOP ADDMOD SMOD STOP CALLER "
				},
				"gasEstimates": {
					"creation": {
						"codeDepositCost": "1234600",
						"executionCost": "infinite",
						"totalCost": "infinite"
					},
					"external": {
						"BnbToSafuu()": "2517",
						"Safuu()": "2600",
						"USDC()": "2711",
						"buySafuu(uint256)": "infinite",
						"getLatestPrice()": "infinite",
						"owner()": "2544",
						"renounceOwnership()": "30419",
						"sellSafuu(uint256)": "infinite",
						"setFactor(uint256)": "24849",
						"testDiv(uint256,uint256)": "infinite",
						"transferOwnership(address)": "30833",
						"withdrawToOwner()": "infinite"
					},
					"internal": {
						"_safeTransferFrom(contract IERC20,address,address,uint256)": "infinite"
					}
				},
				"methodIdentifiers": {
					"BnbToSafuu()": "ebc4197c",
					"Safuu()": "8a71c2f4",
					"USDC()": "89a30271",
					"buySafuu(uint256)": "80c31426",
					"getLatestPrice()": "8e15f473",
					"owner()": "8da5cb5b",
					"renounceOwnership()": "715018a6",
					"sellSafuu(uint256)": "ade87ecc",
					"setFactor(uint256)": "817e9d31",
					"testDiv(uint256,uint256)": "3b3a7e31",
					"transferOwnership(address)": "f2fde38b",
					"withdrawToOwner()": "3cb40e16"
				}
			},
			"userdoc": {
				"kind": "user",
				"methods": {},
				"version": 1
			}
		}
	}
}