{
	"sis.sol": {
		"personalSafuuTrader": {
			"abi": [
				{
					"inputs": [],
					"stateMutability": "nonpayable",
					"type": "constructor"
				},
				{
					"inputs": [],
					"name": "BnbToSafuu",
					"outputs": [
						{
							"internalType": "uint256",
							"name": "",
							"type": "uint256"
						}
					],
					"stateMutability": "view",
					"type": "function"
				},
				{
					"inputs": [
						{
							"internalType": "uint256",
							"name": "amttobuy",
							"type": "uint256"
						}
					],
					"name": "buySafuu",
					"outputs": [],
					"stateMutability": "payable",
					"type": "function"
				},
				{
					"inputs": [],
					"name": "safuu",
					"outputs": [
						{
							"internalType": "contract IERC20",
							"name": "",
							"type": "address"
						}
					],
					"stateMutability": "view",
					"type": "function"
				},
				{
					"inputs": [
						{
							"internalType": "uint256",
							"name": "amttosell",
							"type": "uint256"
						}
					],
					"name": "sellSafuu",
					"outputs": [],
					"stateMutability": "nonpayable",
					"type": "function"
				},
				{
					"inputs": [
						{
							"internalType": "uint256",
							"name": "_newfactor",
							"type": "uint256"
						}
					],
					"name": "setFactor",
					"outputs": [],
					"stateMutability": "nonpayable",
					"type": "function"
				},
				{
					"inputs": [],
					"name": "withdrawToOwner",
					"outputs": [],
					"stateMutability": "nonpayable",
					"type": "function"
				}
			],
			"devdoc": {
				"kind": "dev",
				"methods": {},
				"version": 1
			},
			"evm": {
				"assembly": "    /* \"sis.sol\":84:2111  contract personalSafuuTrader\r... */\n  mstore(0x40, 0x80)\n    /* \"sis.sol\":276:488  constructor () {\r... */\n  callvalue\n  dup1\n  iszero\n  tag_1\n  jumpi\n  0x00\n  dup1\n  revert\ntag_1:\n  pop\n    /* \"sis.sol\":304:314  msg.sender */\n  caller\n    /* \"sis.sol\":296:301  owner */\n  0x00\n  dup1\n    /* \"sis.sol\":296:314  owner = msg.sender */\n  0x0100\n  exp\n  dup2\n  sload\n  dup2\n  0xffffffffffffffffffffffffffffffffffffffff\n  mul\n  not\n  and\n  swap1\n  dup4\n  0xffffffffffffffffffffffffffffffffffffffff\n  and\n  mul\n  or\n  swap1\n  sstore\n  pop\n    /* \"sis.sol\":332:338  190825 */\n  0x02e969\n    /* \"sis.sol\":319:329  BnbToSafuu */\n  0x01\n    /* \"sis.sol\":319:338  BnbToSafuu = 190825 */\n  dup2\n  swap1\n  sstore\n  pop\n    /* \"sis.sol\":358:400  0xE5bA47fD94CB645ba4119222e34fB33F59C7CD90 */\n  0xe5ba47fd94cb645ba4119222e34fb33f59c7cd90\n    /* \"sis.sol\":343:348  safuu */\n  0x02\n  0x00\n    /* \"sis.sol\":343:401  safuu = IERC20(0xE5bA47fD94CB645ba4119222e34fB33F59C7CD90) */\n  0x0100\n  exp\n  dup2\n  sload\n  dup2\n  0xffffffffffffffffffffffffffffffffffffffff\n  mul\n  not\n  and\n  swap1\n  dup4\n  0xffffffffffffffffffffffffffffffffffffffff\n  and\n  mul\n  or\n  swap1\n  sstore\n  pop\n    /* \"sis.sol\":84:2111  contract personalSafuuTrader\r... */\n  dataSize(sub_0)\n  dup1\n  dataOffset(sub_0)\n  0x00\n  codecopy\n  0x00\n  return\nstop\n\nsub_0: assembly {\n        /* \"sis.sol\":84:2111  contract personalSafuuTrader\r... */\n      mstore(0x40, 0x80)\n      jumpi(tag_1, lt(calldatasize, 0x04))\n      shr(0xe0, calldataload(0x00))\n      dup1\n      0x23b160ac\n      eq\n      tag_2\n      jumpi\n      dup1\n      0x3cb40e16\n      eq\n      tag_3\n      jumpi\n      dup1\n      0x80c31426\n      eq\n      tag_4\n      jumpi\n      dup1\n      0x817e9d31\n      eq\n      tag_5\n      jumpi\n      dup1\n      0xade87ecc\n      eq\n      tag_6\n      jumpi\n      dup1\n      0xebc4197c\n      eq\n      tag_7\n      jumpi\n    tag_1:\n      0x00\n      dup1\n      revert\n        /* \"sis.sol\":183:202  IERC20 public safuu */\n    tag_2:\n      callvalue\n      dup1\n      iszero\n      tag_8\n      jumpi\n      0x00\n      dup1\n      revert\n    tag_8:\n      pop\n      tag_9\n      tag_10\n      jump\t// in\n    tag_9:\n      mload(0x40)\n      tag_11\n      swap2\n      swap1\n      tag_12\n      jump\t// in\n    tag_11:\n      mload(0x40)\n      dup1\n      swap2\n      sub\n      swap1\n      return\n        /* \"sis.sol\":1481:1834  function withdrawToOwner()\r... */\n    tag_3:\n      callvalue\n      dup1\n      iszero\n      tag_13\n      jumpi\n      0x00\n      dup1\n      revert\n    tag_13:\n      pop\n      tag_14\n      tag_15\n      jump\t// in\n    tag_14:\n      stop\n        /* \"sis.sol\":494:881  function buySafuu(uint256 amttobuy) public payable \r... */\n    tag_4:\n      tag_16\n      0x04\n      dup1\n      calldatasize\n      sub\n      dup2\n      add\n      swap1\n      tag_17\n      swap2\n      swap1\n      tag_18\n      jump\t// in\n    tag_17:\n      tag_19\n      jump\t// in\n    tag_16:\n      stop\n        /* \"sis.sol\":1335:1475  function setFactor(uint256 _newfactor) public {\r... */\n    tag_5:\n      callvalue\n      dup1\n      iszero\n      tag_20\n      jumpi\n      0x00\n      dup1\n      revert\n    tag_20:\n      pop\n      tag_21\n      0x04\n      dup1\n      calldatasize\n      sub\n      dup2\n      add\n      swap1\n      tag_22\n      swap2\n      swap1\n      tag_18\n      jump\t// in\n    tag_22:\n      tag_23\n      jump\t// in\n    tag_21:\n      stop\n        /* \"sis.sol\":889:1325  function sellSafuu(uint256 amttosell) public \r... */\n    tag_6:\n      callvalue\n      dup1\n      iszero\n      tag_24\n      jumpi\n      0x00\n      dup1\n      revert\n    tag_24:\n      pop\n      tag_25\n      0x04\n      dup1\n      calldatasize\n      sub\n      dup2\n      add\n      swap1\n      tag_26\n      swap2\n      swap1\n      tag_18\n      jump\t// in\n    tag_26:\n      tag_27\n      jump\t// in\n    tag_25:\n      stop\n        /* \"sis.sol\":149:175  uint256  public BnbToSafuu */\n    tag_7:\n      callvalue\n      dup1\n      iszero\n      tag_28\n      jumpi\n      0x00\n      dup1\n      revert\n    tag_28:\n      pop\n      tag_29\n      tag_30\n      jump\t// in\n    tag_29:\n      mload(0x40)\n      tag_31\n      swap2\n      swap1\n      tag_32\n      jump\t// in\n    tag_31:\n      mload(0x40)\n      dup1\n      swap2\n      sub\n      swap1\n      return\n        /* \"sis.sol\":183:202  IERC20 public safuu */\n    tag_10:\n      0x02\n      0x00\n      swap1\n      sload\n      swap1\n      0x0100\n      exp\n      swap1\n      div\n      0xffffffffffffffffffffffffffffffffffffffff\n      and\n      dup2\n      jump\t// out\n        /* \"sis.sol\":1481:1834  function withdrawToOwner()\r... */\n    tag_15:\n        /* \"sis.sol\":1649:1661  bool success */\n      0x00\n        /* \"sis.sol\":1667:1672  owner */\n      dup1\n      0x00\n      swap1\n      sload\n      swap1\n      0x0100\n      exp\n      swap1\n      div\n      0xffffffffffffffffffffffffffffffffffffffff\n      and\n        /* \"sis.sol\":1667:1677  owner.call */\n      0xffffffffffffffffffffffffffffffffffffffff\n      and\n        /* \"sis.sol\":1685:1706  address(this).balance */\n      selfbalance\n        /* \"sis.sol\":1667:1711  owner.call{value: address(this).balance}(\"\") */\n      mload(0x40)\n      tag_34\n      swap1\n      tag_35\n      jump\t// in\n    tag_34:\n      0x00\n      mload(0x40)\n      dup1\n      dup4\n      sub\n      dup2\n      dup6\n      dup8\n      gas\n      call\n      swap3\n      pop\n      pop\n      pop\n      returndatasize\n      dup1\n      0x00\n      dup2\n      eq\n      tag_38\n      jumpi\n      mload(0x40)\n      swap2\n      pop\n      and(add(returndatasize, 0x3f), not(0x1f))\n      dup3\n      add\n      0x40\n      mstore\n      returndatasize\n      dup3\n      mstore\n      returndatasize\n      0x00\n      0x20\n      dup5\n      add\n      returndatacopy\n      jump(tag_37)\n    tag_38:\n      0x60\n      swap2\n      pop\n    tag_37:\n      pop\n        /* \"sis.sol\":1648:1711  (bool success, ) = owner.call{value: address(this).balance}(\"\") */\n      pop\n      swap1\n      pop\n        /* \"sis.sol\":1730:1737  success */\n      dup1\n        /* \"sis.sol\":1722:1762  require(success, \"Failed to send Ether\") */\n      tag_39\n      jumpi\n      mload(0x40)\n      0x08c379a000000000000000000000000000000000000000000000000000000000\n      dup2\n      mstore\n      0x04\n      add\n      tag_40\n      swap1\n      tag_41\n      jump\t// in\n    tag_40:\n      mload(0x40)\n      dup1\n      swap2\n      sub\n      swap1\n      revert\n    tag_39:\n        /* \"sis.sol\":1773:1778  safuu */\n      0x02\n      0x00\n      swap1\n      sload\n      swap1\n      0x0100\n      exp\n      swap1\n      div\n      0xffffffffffffffffffffffffffffffffffffffff\n      and\n        /* \"sis.sol\":1773:1787  safuu.transfer */\n      0xffffffffffffffffffffffffffffffffffffffff\n      and\n      0xa9059cbb\n        /* \"sis.sol\":1788:1793  owner */\n      0x00\n      dup1\n      sload\n      swap1\n      0x0100\n      exp\n      swap1\n      div\n      0xffffffffffffffffffffffffffffffffffffffff\n      and\n        /* \"sis.sol\":1795:1800  safuu */\n      0x02\n      0x00\n      swap1\n      sload\n      swap1\n      0x0100\n      exp\n      swap1\n      div\n      0xffffffffffffffffffffffffffffffffffffffff\n      and\n        /* \"sis.sol\":1795:1810  safuu.balanceOf */\n      0xffffffffffffffffffffffffffffffffffffffff\n      and\n      0x70a08231\n        /* \"sis.sol\":1819:1823  this */\n      address\n        /* \"sis.sol\":1795:1825  safuu.balanceOf(address(this)) */\n      mload(0x40)\n      dup3\n      0xffffffff\n      and\n      0xe0\n      shl\n      dup2\n      mstore\n      0x04\n      add\n      tag_42\n      swap2\n      swap1\n      tag_43\n      jump\t// in\n    tag_42:\n      0x20\n      mload(0x40)\n      dup1\n      dup4\n      sub\n      dup2\n      dup7\n      dup1\n      extcodesize\n      iszero\n      dup1\n      iszero\n      tag_44\n      jumpi\n      0x00\n      dup1\n      revert\n    tag_44:\n      pop\n      gas\n      staticcall\n      iszero\n      dup1\n      iszero\n      tag_46\n      jumpi\n      returndatasize\n      0x00\n      dup1\n      returndatacopy\n      revert(0x00, returndatasize)\n    tag_46:\n      pop\n      pop\n      pop\n      pop\n      mload(0x40)\n      returndatasize\n      not(0x1f)\n      0x1f\n      dup3\n      add\n      and\n      dup3\n      add\n      dup1\n      0x40\n      mstore\n      pop\n      dup2\n      add\n      swap1\n      tag_47\n      swap2\n      swap1\n      tag_48\n      jump\t// in\n    tag_47:\n        /* \"sis.sol\":1773:1826  safuu.transfer(owner, safuu.balanceOf(address(this))) */\n      mload(0x40)\n      dup4\n      0xffffffff\n      and\n      0xe0\n      shl\n      dup2\n      mstore\n      0x04\n      add\n      tag_49\n      swap3\n      swap2\n      swap1\n      tag_50\n      jump\t// in\n    tag_49:\n      0x20\n      mload(0x40)\n      dup1\n      dup4\n      sub\n      dup2\n      0x00\n      dup8\n      dup1\n      extcodesize\n      iszero\n      dup1\n      iszero\n      tag_51\n      jumpi\n      0x00\n      dup1\n      revert\n    tag_51:\n      pop\n      gas\n      call\n      iszero\n      dup1\n      iszero\n      tag_53\n      jumpi\n      returndatasize\n      0x00\n      dup1\n      returndatacopy\n      revert(0x00, returndatasize)\n    tag_53:\n      pop\n      pop\n      pop\n      pop\n      mload(0x40)\n      returndatasize\n      not(0x1f)\n      0x1f\n      dup3\n      add\n      and\n      dup3\n      add\n      dup1\n      0x40\n      mstore\n      pop\n      dup2\n      add\n      swap1\n      tag_54\n      swap2\n      swap1\n      tag_55\n      jump\t// in\n    tag_54:\n      pop\n        /* \"sis.sol\":1526:1834  { \r... */\n      pop\n        /* \"sis.sol\":1481:1834  function withdrawToOwner()\r... */\n      jump\t// out\n        /* \"sis.sol\":494:881  function buySafuu(uint256 amttobuy) public payable \r... */\n    tag_19:\n        /* \"sis.sol\":582:592  BnbToSafuu */\n      sload(0x01)\n        /* \"sis.sol\":570:578  amttobuy */\n      dup2\n        /* \"sis.sol\":570:592  amttobuy >= BnbToSafuu */\n      lt\n      iszero\n        /* \"sis.sol\":562:623  require(amttobuy >= BnbToSafuu, \"Minimum trade amount 1 bnb\") */\n      tag_57\n      jumpi\n      mload(0x40)\n      0x08c379a000000000000000000000000000000000000000000000000000000000\n      dup2\n      mstore\n      0x04\n      add\n      tag_58\n      swap1\n      tag_59\n      jump\t// in\n    tag_58:\n      mload(0x40)\n      dup1\n      swap2\n      sub\n      swap1\n      revert\n    tag_57:\n        /* \"sis.sol\":634:652  uint256 payableAmt */\n      0x00\n        /* \"sis.sol\":713:719  10**18 */\n      0x0de0b6b3a7640000\n        /* \"sis.sol\":699:709  BnbToSafuu */\n      sload(0x01)\n        /* \"sis.sol\":690:698  amttobuy */\n      dup4\n        /* \"sis.sol\":690:709  amttobuy/BnbToSafuu */\n      tag_60\n      swap2\n      swap1\n      tag_61\n      jump\t// in\n    tag_60:\n        /* \"sis.sol\":689:720  (amttobuy/BnbToSafuu) *(10**18) */\n      tag_62\n      swap2\n      swap1\n      tag_63\n      jump\t// in\n    tag_62:\n        /* \"sis.sol\":676:720  payableAmt = (amttobuy/BnbToSafuu) *(10**18) */\n      swap1\n      pop\n        /* \"sis.sol\":752:762  payableAmt */\n      dup1\n        /* \"sis.sol\":739:748  msg.value */\n      callvalue\n        /* \"sis.sol\":739:762  msg.value >= payableAmt */\n      lt\n      iszero\n        /* \"sis.sol\":731:777  require(msg.value >= payableAmt,\"Not enough\" ) */\n      tag_64\n      jumpi\n      mload(0x40)\n      0x08c379a000000000000000000000000000000000000000000000000000000000\n      dup2\n      mstore\n      0x04\n      add\n      tag_65\n      swap1\n      tag_66\n      jump\t// in\n    tag_65:\n      mload(0x40)\n      dup1\n      swap2\n      sub\n      swap1\n      revert\n    tag_64:\n        /* \"sis.sol\":828:833  safuu */\n      0x02\n      0x00\n      swap1\n      sload\n      swap1\n      0x0100\n      exp\n      swap1\n      div\n      0xffffffffffffffffffffffffffffffffffffffff\n      and\n        /* \"sis.sol\":828:842  safuu.transfer */\n      0xffffffffffffffffffffffffffffffffffffffff\n      and\n      0xa9059cbb\n        /* \"sis.sol\":843:853  msg.sender */\n      caller\n        /* \"sis.sol\":855:863  amttobuy */\n      dup5\n        /* \"sis.sol\":828:864  safuu.transfer(msg.sender, amttobuy) */\n      mload(0x40)\n      dup4\n      0xffffffff\n      and\n      0xe0\n      shl\n      dup2\n      mstore\n      0x04\n      add\n      tag_67\n      swap3\n      swap2\n      swap1\n      tag_50\n      jump\t// in\n    tag_67:\n      0x20\n      mload(0x40)\n      dup1\n      dup4\n      sub\n      dup2\n      0x00\n      dup8\n      dup1\n      extcodesize\n      iszero\n      dup1\n      iszero\n      tag_68\n      jumpi\n      0x00\n      dup1\n      revert\n    tag_68:\n      pop\n      gas\n      call\n      iszero\n      dup1\n      iszero\n      tag_70\n      jumpi\n      returndatasize\n      0x00\n      dup1\n      returndatacopy\n      revert(0x00, returndatasize)\n    tag_70:\n      pop\n      pop\n      pop\n      pop\n      mload(0x40)\n      returndatasize\n      not(0x1f)\n      0x1f\n      dup3\n      add\n      and\n      dup3\n      add\n      dup1\n      0x40\n      mstore\n      pop\n      dup2\n      add\n      swap1\n      tag_71\n      swap2\n      swap1\n      tag_55\n      jump\t// in\n    tag_71:\n      pop\n        /* \"sis.sol\":551:881  {\r... */\n      pop\n        /* \"sis.sol\":494:881  function buySafuu(uint256 amttobuy) public payable \r... */\n      pop\n      jump\t// out\n        /* \"sis.sol\":1335:1475  function setFactor(uint256 _newfactor) public {\r... */\n    tag_23:\n        /* \"sis.sol\":1414:1419  owner */\n      0x00\n      dup1\n      sload\n      swap1\n      0x0100\n      exp\n      swap1\n      div\n      0xffffffffffffffffffffffffffffffffffffffff\n      and\n        /* \"sis.sol\":1400:1419  msg.sender == owner */\n      0xffffffffffffffffffffffffffffffffffffffff\n      and\n        /* \"sis.sol\":1400:1410  msg.sender */\n      caller\n        /* \"sis.sol\":1400:1419  msg.sender == owner */\n      0xffffffffffffffffffffffffffffffffffffffff\n      and\n      eq\n        /* \"sis.sol\":1392:1433  require(msg.sender == owner , \"notowner\") */\n      tag_73\n      jumpi\n      mload(0x40)\n      0x08c379a000000000000000000000000000000000000000000000000000000000\n      dup2\n      mstore\n      0x04\n      add\n      tag_74\n      swap1\n      tag_75\n      jump\t// in\n    tag_74:\n      mload(0x40)\n      dup1\n      swap2\n      sub\n      swap1\n      revert\n    tag_73:\n        /* \"sis.sol\":1457:1467  _newfactor */\n      dup1\n        /* \"sis.sol\":1444:1454  BnbToSafuu */\n      0x01\n        /* \"sis.sol\":1444:1467  BnbToSafuu = _newfactor */\n      dup2\n      swap1\n      sstore\n      pop\n        /* \"sis.sol\":1335:1475  function setFactor(uint256 _newfactor) public {\r... */\n      pop\n      jump\t// out\n        /* \"sis.sol\":889:1325  function sellSafuu(uint256 amttosell) public \r... */\n    tag_27:\n        /* \"sis.sol\":972:982  BnbToSafuu */\n      sload(0x01)\n        /* \"sis.sol\":959:968  amttosell */\n      dup2\n        /* \"sis.sol\":959:982  amttosell >= BnbToSafuu */\n      lt\n      iszero\n        /* \"sis.sol\":951:1013  require(amttosell >= BnbToSafuu, \"Minimum trade amount 1 bnb\") */\n      tag_77\n      jumpi\n      mload(0x40)\n      0x08c379a000000000000000000000000000000000000000000000000000000000\n      dup2\n      mstore\n      0x04\n      add\n      tag_78\n      swap1\n      tag_59\n      jump\t// in\n    tag_78:\n      mload(0x40)\n      dup1\n      swap2\n      sub\n      swap1\n      revert\n    tag_77:\n        /* \"sis.sol\":1020:1082  _safeTransferFrom(safuu, msg.sender, address(this), amttosell) */\n      tag_79\n        /* \"sis.sol\":1038:1043  safuu */\n      0x02\n      0x00\n      swap1\n      sload\n      swap1\n      0x0100\n      exp\n      swap1\n      div\n      0xffffffffffffffffffffffffffffffffffffffff\n      and\n        /* \"sis.sol\":1045:1055  msg.sender */\n      caller\n        /* \"sis.sol\":1065:1069  this */\n      address\n        /* \"sis.sol\":1072:1081  amttosell */\n      dup5\n        /* \"sis.sol\":1020:1037  _safeTransferFrom */\n      tag_80\n        /* \"sis.sol\":1020:1082  _safeTransferFrom(safuu, msg.sender, address(this), amttosell) */\n      jump\t// in\n    tag_79:\n        /* \"sis.sol\":1117:1135  uint256 payableBNB */\n      0x00\n        /* \"sis.sol\":1193:1199  10**18 */\n      0x0de0b6b3a7640000\n        /* \"sis.sol\":1179:1189  BnbToSafuu */\n      sload(0x01)\n        /* \"sis.sol\":1169:1178  amttosell */\n      dup4\n        /* \"sis.sol\":1169:1189  amttosell/BnbToSafuu */\n      tag_81\n      swap2\n      swap1\n      tag_61\n      jump\t// in\n    tag_81:\n        /* \"sis.sol\":1168:1200  (amttosell/BnbToSafuu) *(10**18) */\n      tag_82\n      swap2\n      swap1\n      tag_63\n      jump\t// in\n    tag_82:\n        /* \"sis.sol\":1155:1200  payableBNB = (amttosell/BnbToSafuu) *(10**18) */\n      swap1\n      pop\n        /* \"sis.sol\":1208:1220  bool success */\n      0x00\n        /* \"sis.sol\":1226:1236  msg.sender */\n      caller\n        /* \"sis.sol\":1226:1241  msg.sender.call */\n      0xffffffffffffffffffffffffffffffffffffffff\n      and\n        /* \"sis.sol\":1249:1259  payableBNB */\n      dup3\n        /* \"sis.sol\":1226:1264  msg.sender.call{value: payableBNB}(\"\") */\n      mload(0x40)\n      tag_83\n      swap1\n      tag_35\n      jump\t// in\n    tag_83:\n      0x00\n      mload(0x40)\n      dup1\n      dup4\n      sub\n      dup2\n      dup6\n      dup8\n      gas\n      call\n      swap3\n      pop\n      pop\n      pop\n      returndatasize\n      dup1\n      0x00\n      dup2\n      eq\n      tag_86\n      jumpi\n      mload(0x40)\n      swap2\n      pop\n      and(add(returndatasize, 0x3f), not(0x1f))\n      dup3\n      add\n      0x40\n      mstore\n      returndatasize\n      dup3\n      mstore\n      returndatasize\n      0x00\n      0x20\n      dup5\n      add\n      returndatacopy\n      jump(tag_85)\n    tag_86:\n      0x60\n      swap2\n      pop\n    tag_85:\n      pop\n        /* \"sis.sol\":1207:1264  (bool success, ) = msg.sender.call{value: payableBNB}(\"\") */\n      pop\n      swap1\n      pop\n        /* \"sis.sol\":1283:1290  success */\n      dup1\n        /* \"sis.sol\":1275:1311  require(success, \"Transfer failed!\") */\n      tag_87\n      jumpi\n      mload(0x40)\n      0x08c379a000000000000000000000000000000000000000000000000000000000\n      dup2\n      mstore\n      0x04\n      add\n      tag_88\n      swap1\n      tag_89\n      jump\t// in\n    tag_88:\n      mload(0x40)\n      dup1\n      swap2\n      sub\n      swap1\n      revert\n    tag_87:\n        /* \"sis.sol\":940:1325  {\r... */\n      pop\n      pop\n        /* \"sis.sol\":889:1325  function sellSafuu(uint256 amttosell) public \r... */\n      pop\n      jump\t// out\n        /* \"sis.sol\":149:175  uint256  public BnbToSafuu */\n    tag_30:\n      sload(0x01)\n      dup2\n      jump\t// out\n        /* \"sis.sol\":1840:2108  function _safeTransferFrom(\r... */\n    tag_80:\n        /* \"sis.sol\":1994:2003  bool sent */\n      0x00\n        /* \"sis.sol\":2006:2011  token */\n      dup5\n        /* \"sis.sol\":2006:2024  token.transferFrom */\n      0xffffffffffffffffffffffffffffffffffffffff\n      and\n      0x23b872dd\n        /* \"sis.sol\":2025:2031  sender */\n      dup6\n        /* \"sis.sol\":2033:2042  recipient */\n      dup6\n        /* \"sis.sol\":2044:2050  amount */\n      dup6\n        /* \"sis.sol\":2006:2051  token.transferFrom(sender, recipient, amount) */\n      mload(0x40)\n      dup5\n      0xffffffff\n      and\n      0xe0\n      shl\n      dup2\n      mstore\n      0x04\n      add\n      tag_91\n      swap4\n      swap3\n      swap2\n      swap1\n      tag_92\n      jump\t// in\n    tag_91:\n      0x20\n      mload(0x40)\n      dup1\n      dup4\n      sub\n      dup2\n      0x00\n      dup8\n      dup1\n      extcodesize\n      iszero\n      dup1\n      iszero\n      tag_93\n      jumpi\n      0x00\n      dup1\n      revert\n    tag_93:\n      pop\n      gas\n      call\n      iszero\n      dup1\n      iszero\n      tag_95\n      jumpi\n      returndatasize\n      0x00\n      dup1\n      returndatacopy\n      revert(0x00, returndatasize)\n    tag_95:\n      pop\n      pop\n      pop\n      pop\n      mload(0x40)\n      returndatasize\n      not(0x1f)\n      0x1f\n      dup3\n      add\n      and\n      dup3\n      add\n      dup1\n      0x40\n      mstore\n      pop\n      dup2\n      add\n      swap1\n      tag_96\n      swap2\n      swap1\n      tag_55\n      jump\t// in\n    tag_96:\n        /* \"sis.sol\":1994:2051  bool sent = token.transferFrom(sender, recipient, amount) */\n      swap1\n      pop\n        /* \"sis.sol\":2070:2074  sent */\n      dup1\n        /* \"sis.sol\":2062:2100  require(sent, \"Token transfer failed\") */\n      tag_97\n      jumpi\n      mload(0x40)\n      0x08c379a000000000000000000000000000000000000000000000000000000000\n      dup2\n      mstore\n      0x04\n      add\n      tag_98\n      swap1\n      tag_99\n      jump\t// in\n    tag_98:\n      mload(0x40)\n      dup1\n      swap2\n      sub\n      swap1\n      revert\n    tag_97:\n        /* \"sis.sol\":1983:2108  {\r... */\n      pop\n        /* \"sis.sol\":1840:2108  function _safeTransferFrom(\r... */\n      pop\n      pop\n      pop\n      pop\n      jump\t// out\n        /* \"#utility.yul\":7:144   */\n    tag_101:\n        /* \"#utility.yul\":61:66   */\n      0x00\n        /* \"#utility.yul\":92:98   */\n      dup2\n        /* \"#utility.yul\":86:99   */\n      mload\n        /* \"#utility.yul\":77:99   */\n      swap1\n      pop\n        /* \"#utility.yul\":108:138   */\n      tag_103\n        /* \"#utility.yul\":132:137   */\n      dup2\n        /* \"#utility.yul\":108:138   */\n      tag_104\n      jump\t// in\n    tag_103:\n        /* \"#utility.yul\":7:144   */\n      swap3\n      swap2\n      pop\n      pop\n      jump\t// out\n        /* \"#utility.yul\":150:289   */\n    tag_105:\n        /* \"#utility.yul\":196:201   */\n      0x00\n        /* \"#utility.yul\":234:240   */\n      dup2\n        /* \"#utility.yul\":221:241   */\n      calldataload\n        /* \"#utility.yul\":212:241   */\n      swap1\n      pop\n        /* \"#utility.yul\":250:283   */\n      tag_107\n        /* \"#utility.yul\":277:282   */\n      dup2\n        /* \"#utility.yul\":250:283   */\n      tag_108\n      jump\t// in\n    tag_107:\n        /* \"#utility.yul\":150:289   */\n      swap3\n      swap2\n      pop\n      pop\n      jump\t// out\n        /* \"#utility.yul\":295:438   */\n    tag_109:\n        /* \"#utility.yul\":352:357   */\n      0x00\n        /* \"#utility.yul\":383:389   */\n      dup2\n        /* \"#utility.yul\":377:390   */\n      mload\n        /* \"#utility.yul\":368:390   */\n      swap1\n      pop\n        /* \"#utility.yul\":399:432   */\n      tag_111\n        /* \"#utility.yul\":426:431   */\n      dup2\n        /* \"#utility.yul\":399:432   */\n      tag_108\n      jump\t// in\n    tag_111:\n        /* \"#utility.yul\":295:438   */\n      swap3\n      swap2\n      pop\n      pop\n      jump\t// out\n        /* \"#utility.yul\":444:789   */\n    tag_55:\n        /* \"#utility.yul\":511:517   */\n      0x00\n        /* \"#utility.yul\":560:562   */\n      0x20\n        /* \"#utility.yul\":548:557   */\n      dup3\n        /* \"#utility.yul\":539:546   */\n      dup5\n        /* \"#utility.yul\":535:558   */\n      sub\n        /* \"#utility.yul\":531:563   */\n      slt\n        /* \"#utility.yul\":528:647   */\n      iszero\n      tag_113\n      jumpi\n        /* \"#utility.yul\":566:645   */\n      tag_114\n      tag_115\n      jump\t// in\n    tag_114:\n        /* \"#utility.yul\":528:647   */\n    tag_113:\n        /* \"#utility.yul\":686:687   */\n      0x00\n        /* \"#utility.yul\":711:772   */\n      tag_116\n        /* \"#utility.yul\":764:771   */\n      dup5\n        /* \"#utility.yul\":755:761   */\n      dup3\n        /* \"#utility.yul\":744:753   */\n      dup6\n        /* \"#utility.yul\":740:762   */\n      add\n        /* \"#utility.yul\":711:772   */\n      tag_101\n      jump\t// in\n    tag_116:\n        /* \"#utility.yul\":701:772   */\n      swap2\n      pop\n        /* \"#utility.yul\":657:782   */\n      pop\n        /* \"#utility.yul\":444:789   */\n      swap3\n      swap2\n      pop\n      pop\n      jump\t// out\n        /* \"#utility.yul\":795:1124   */\n    tag_18:\n        /* \"#utility.yul\":854:860   */\n      0x00\n        /* \"#utility.yul\":903:905   */\n      0x20\n        /* \"#utility.yul\":891:900   */\n      dup3\n        /* \"#utility.yul\":882:889   */\n      dup5\n        /* \"#utility.yul\":878:901   */\n      sub\n        /* \"#utility.yul\":874:906   */\n      slt\n        /* \"#utility.yul\":871:990   */\n      iszero\n      tag_118\n      jumpi\n        /* \"#utility.yul\":909:988   */\n      tag_119\n      tag_115\n      jump\t// in\n    tag_119:\n        /* \"#utility.yul\":871:990   */\n    tag_118:\n        /* \"#utility.yul\":1029:1030   */\n      0x00\n        /* \"#utility.yul\":1054:1107   */\n      tag_120\n        /* \"#utility.yul\":1099:1106   */\n      dup5\n        /* \"#utility.yul\":1090:1096   */\n      dup3\n        /* \"#utility.yul\":1079:1088   */\n      dup6\n        /* \"#utility.yul\":1075:1097   */\n      add\n        /* \"#utility.yul\":1054:1107   */\n      tag_105\n      jump\t// in\n    tag_120:\n        /* \"#utility.yul\":1044:1107   */\n      swap2\n      pop\n        /* \"#utility.yul\":1000:1117   */\n      pop\n        /* \"#utility.yul\":795:1124   */\n      swap3\n      swap2\n      pop\n      pop\n      jump\t// out\n        /* \"#utility.yul\":1130:1481   */\n    tag_48:\n        /* \"#utility.yul\":1200:1206   */\n      0x00\n        /* \"#utility.yul\":1249:1251   */\n      0x20\n        /* \"#utility.yul\":1237:1246   */\n      dup3\n        /* \"#utility.yul\":1228:1235   */\n      dup5\n        /* \"#utility.yul\":1224:1247   */\n      sub\n        /* \"#utility.yul\":1220:1252   */\n      slt\n        /* \"#utility.yul\":1217:1336   */\n      iszero\n      tag_122\n      jumpi\n        /* \"#utility.yul\":1255:1334   */\n      tag_123\n      tag_115\n      jump\t// in\n    tag_123:\n        /* \"#utility.yul\":1217:1336   */\n    tag_122:\n        /* \"#utility.yul\":1375:1376   */\n      0x00\n        /* \"#utility.yul\":1400:1464   */\n      tag_124\n        /* \"#utility.yul\":1456:1463   */\n      dup5\n        /* \"#utility.yul\":1447:1453   */\n      dup3\n        /* \"#utility.yul\":1436:1445   */\n      dup6\n        /* \"#utility.yul\":1432:1454   */\n      add\n        /* \"#utility.yul\":1400:1464   */\n      tag_109\n      jump\t// in\n    tag_124:\n        /* \"#utility.yul\":1390:1464   */\n      swap2\n      pop\n        /* \"#utility.yul\":1346:1474   */\n      pop\n        /* \"#utility.yul\":1130:1481   */\n      swap3\n      swap2\n      pop\n      pop\n      jump\t// out\n        /* \"#utility.yul\":1487:1605   */\n    tag_125:\n        /* \"#utility.yul\":1574:1598   */\n      tag_127\n        /* \"#utility.yul\":1592:1597   */\n      dup2\n        /* \"#utility.yul\":1574:1598   */\n      tag_128\n      jump\t// in\n    tag_127:\n        /* \"#utility.yul\":1569:1572   */\n      dup3\n        /* \"#utility.yul\":1562:1599   */\n      mstore\n        /* \"#utility.yul\":1487:1605   */\n      pop\n      pop\n      jump\t// out\n        /* \"#utility.yul\":1611:1768   */\n    tag_129:\n        /* \"#utility.yul\":1711:1761   */\n      tag_131\n        /* \"#utility.yul\":1755:1760   */\n      dup2\n        /* \"#utility.yul\":1711:1761   */\n      tag_132\n      jump\t// in\n    tag_131:\n        /* \"#utility.yul\":1706:1709   */\n      dup3\n        /* \"#utility.yul\":1699:1762   */\n      mstore\n        /* \"#utility.yul\":1611:1768   */\n      pop\n      pop\n      jump\t// out\n        /* \"#utility.yul\":1774:2140   */\n    tag_133:\n        /* \"#utility.yul\":1916:1919   */\n      0x00\n        /* \"#utility.yul\":1937:2004   */\n      tag_135\n        /* \"#utility.yul\":2001:2003   */\n      0x14\n        /* \"#utility.yul\":1996:1999   */\n      dup4\n        /* \"#utility.yul\":1937:2004   */\n      tag_136\n      jump\t// in\n    tag_135:\n        /* \"#utility.yul\":1930:2004   */\n      swap2\n      pop\n        /* \"#utility.yul\":2013:2106   */\n      tag_137\n        /* \"#utility.yul\":2102:2105   */\n      dup3\n        /* \"#utility.yul\":2013:2106   */\n      tag_138\n      jump\t// in\n    tag_137:\n        /* \"#utility.yul\":2131:2133   */\n      0x20\n        /* \"#utility.yul\":2126:2129   */\n      dup3\n        /* \"#utility.yul\":2122:2134   */\n      add\n        /* \"#utility.yul\":2115:2134   */\n      swap1\n      pop\n        /* \"#utility.yul\":1774:2140   */\n      swap2\n      swap1\n      pop\n      jump\t// out\n        /* \"#utility.yul\":2146:2512   */\n    tag_139:\n        /* \"#utility.yul\":2288:2291   */\n      0x00\n        /* \"#utility.yul\":2309:2376   */\n      tag_141\n        /* \"#utility.yul\":2373:2375   */\n      0x0a\n        /* \"#utility.yul\":2368:2371   */\n      dup4\n        /* \"#utility.yul\":2309:2376   */\n      tag_136\n      jump\t// in\n    tag_141:\n        /* \"#utility.yul\":2302:2376   */\n      swap2\n      pop\n        /* \"#utility.yul\":2385:2478   */\n      tag_142\n        /* \"#utility.yul\":2474:2477   */\n      dup3\n        /* \"#utility.yul\":2385:2478   */\n      tag_143\n      jump\t// in\n    tag_142:\n        /* \"#utility.yul\":2503:2505   */\n      0x20\n        /* \"#utility.yul\":2498:2501   */\n      dup3\n        /* \"#utility.yul\":2494:2506   */\n      add\n        /* \"#utility.yul\":2487:2506   */\n      swap1\n      pop\n        /* \"#utility.yul\":2146:2512   */\n      swap2\n      swap1\n      pop\n      jump\t// out\n        /* \"#utility.yul\":2518:2883   */\n    tag_144:\n        /* \"#utility.yul\":2660:2663   */\n      0x00\n        /* \"#utility.yul\":2681:2747   */\n      tag_146\n        /* \"#utility.yul\":2745:2746   */\n      0x08\n        /* \"#utility.yul\":2740:2743   */\n      dup4\n        /* \"#utility.yul\":2681:2747   */\n      tag_136\n      jump\t// in\n    tag_146:\n        /* \"#utility.yul\":2674:2747   */\n      swap2\n      pop\n        /* \"#utility.yul\":2756:2849   */\n      tag_147\n        /* \"#utility.yul\":2845:2848   */\n      dup3\n        /* \"#utility.yul\":2756:2849   */\n      tag_148\n      jump\t// in\n    tag_147:\n        /* \"#utility.yul\":2874:2876   */\n      0x20\n        /* \"#utility.yul\":2869:2872   */\n      dup3\n        /* \"#utility.yul\":2865:2877   */\n      add\n        /* \"#utility.yul\":2858:2877   */\n      swap1\n      pop\n        /* \"#utility.yul\":2518:2883   */\n      swap2\n      swap1\n      pop\n      jump\t// out\n        /* \"#utility.yul\":2889:3255   */\n    tag_149:\n        /* \"#utility.yul\":3031:3034   */\n      0x00\n        /* \"#utility.yul\":3052:3119   */\n      tag_151\n        /* \"#utility.yul\":3116:3118   */\n      0x15\n        /* \"#utility.yul\":3111:3114   */\n      dup4\n        /* \"#utility.yul\":3052:3119   */\n      tag_136\n      jump\t// in\n    tag_151:\n        /* \"#utility.yul\":3045:3119   */\n      swap2\n      pop\n        /* \"#utility.yul\":3128:3221   */\n      tag_152\n        /* \"#utility.yul\":3217:3220   */\n      dup3\n        /* \"#utility.yul\":3128:3221   */\n      tag_153\n      jump\t// in\n    tag_152:\n        /* \"#utility.yul\":3246:3248   */\n      0x20\n        /* \"#utility.yul\":3241:3244   */\n      dup3\n        /* \"#utility.yul\":3237:3249   */\n      add\n        /* \"#utility.yul\":3230:3249   */\n      swap1\n      pop\n        /* \"#utility.yul\":2889:3255   */\n      swap2\n      swap1\n      pop\n      jump\t// out\n        /* \"#utility.yul\":3261:3627   */\n    tag_154:\n        /* \"#utility.yul\":3403:3406   */\n      0x00\n        /* \"#utility.yul\":3424:3491   */\n      tag_156\n        /* \"#utility.yul\":3488:3490   */\n      0x1a\n        /* \"#utility.yul\":3483:3486   */\n      dup4\n        /* \"#utility.yul\":3424:3491   */\n      tag_136\n      jump\t// in\n    tag_156:\n        /* \"#utility.yul\":3417:3491   */\n      swap2\n      pop\n        /* \"#utility.yul\":3500:3593   */\n      tag_157\n        /* \"#utility.yul\":3589:3592   */\n      dup3\n        /* \"#utility.yul\":3500:3593   */\n      tag_158\n      jump\t// in\n    tag_157:\n        /* \"#utility.yul\":3618:3620   */\n      0x20\n        /* \"#utility.yul\":3613:3616   */\n      dup3\n        /* \"#utility.yul\":3609:3621   */\n      add\n        /* \"#utility.yul\":3602:3621   */\n      swap1\n      pop\n        /* \"#utility.yul\":3261:3627   */\n      swap2\n      swap1\n      pop\n      jump\t// out\n        /* \"#utility.yul\":3633:3999   */\n    tag_159:\n        /* \"#utility.yul\":3775:3778   */\n      0x00\n        /* \"#utility.yul\":3796:3863   */\n      tag_161\n        /* \"#utility.yul\":3860:3862   */\n      0x10\n        /* \"#utility.yul\":3855:3858   */\n      dup4\n        /* \"#utility.yul\":3796:3863   */\n      tag_136\n      jump\t// in\n    tag_161:\n        /* \"#utility.yul\":3789:3863   */\n      swap2\n      pop\n        /* \"#utility.yul\":3872:3965   */\n      tag_162\n        /* \"#utility.yul\":3961:3964   */\n      dup3\n        /* \"#utility.yul\":3872:3965   */\n      tag_163\n      jump\t// in\n    tag_162:\n        /* \"#utility.yul\":3990:3992   */\n      0x20\n        /* \"#utility.yul\":3985:3988   */\n      dup3\n        /* \"#utility.yul\":3981:3993   */\n      add\n        /* \"#utility.yul\":3974:3993   */\n      swap1\n      pop\n        /* \"#utility.yul\":3633:3999   */\n      swap2\n      swap1\n      pop\n      jump\t// out\n        /* \"#utility.yul\":4005:4403   */\n    tag_164:\n        /* \"#utility.yul\":4164:4167   */\n      0x00\n        /* \"#utility.yul\":4185:4268   */\n      tag_166\n        /* \"#utility.yul\":4266:4267   */\n      0x00\n        /* \"#utility.yul\":4261:4264   */\n      dup4\n        /* \"#utility.yul\":4185:4268   */\n      tag_167\n      jump\t// in\n    tag_166:\n        /* \"#utility.yul\":4178:4268   */\n      swap2\n      pop\n        /* \"#utility.yul\":4277:4370   */\n      tag_168\n        /* \"#utility.yul\":4366:4369   */\n      dup3\n        /* \"#utility.yul\":4277:4370   */\n      tag_169\n      jump\t// in\n    tag_168:\n        /* \"#utility.yul\":4395:4396   */\n      0x00\n        /* \"#utility.yul\":4390:4393   */\n      dup3\n        /* \"#utility.yul\":4386:4397   */\n      add\n        /* \"#utility.yul\":4379:4397   */\n      swap1\n      pop\n        /* \"#utility.yul\":4005:4403   */\n      swap2\n      swap1\n      pop\n      jump\t// out\n        /* \"#utility.yul\":4409:4527   */\n    tag_170:\n        /* \"#utility.yul\":4496:4520   */\n      tag_172\n        /* \"#utility.yul\":4514:4519   */\n      dup2\n        /* \"#utility.yul\":4496:4520   */\n      tag_173\n      jump\t// in\n    tag_172:\n        /* \"#utility.yul\":4491:4494   */\n      dup3\n        /* \"#utility.yul\":4484:4521   */\n      mstore\n        /* \"#utility.yul\":4409:4527   */\n      pop\n      pop\n      jump\t// out\n        /* \"#utility.yul\":4533:4912   */\n    tag_35:\n        /* \"#utility.yul\":4717:4720   */\n      0x00\n        /* \"#utility.yul\":4739:4886   */\n      tag_175\n        /* \"#utility.yul\":4882:4885   */\n      dup3\n        /* \"#utility.yul\":4739:4886   */\n      tag_164\n      jump\t// in\n    tag_175:\n        /* \"#utility.yul\":4732:4886   */\n      swap2\n      pop\n        /* \"#utility.yul\":4903:4906   */\n      dup2\n        /* \"#utility.yul\":4896:4906   */\n      swap1\n      pop\n        /* \"#utility.yul\":4533:4912   */\n      swap2\n      swap1\n      pop\n      jump\t// out\n        /* \"#utility.yul\":4918:5140   */\n    tag_43:\n        /* \"#utility.yul\":5011:5015   */\n      0x00\n        /* \"#utility.yul\":5049:5051   */\n      0x20\n        /* \"#utility.yul\":5038:5047   */\n      dup3\n        /* \"#utility.yul\":5034:5052   */\n      add\n        /* \"#utility.yul\":5026:5052   */\n      swap1\n      pop\n        /* \"#utility.yul\":5062:5133   */\n      tag_177\n        /* \"#utility.yul\":5130:5131   */\n      0x00\n        /* \"#utility.yul\":5119:5128   */\n      dup4\n        /* \"#utility.yul\":5115:5132   */\n      add\n        /* \"#utility.yul\":5106:5112   */\n      dup5\n        /* \"#utility.yul\":5062:5133   */\n      tag_125\n      jump\t// in\n    tag_177:\n        /* \"#utility.yul\":4918:5140   */\n      swap3\n      swap2\n      pop\n      pop\n      jump\t// out\n        /* \"#utility.yul\":5146:5588   */\n    tag_92:\n        /* \"#utility.yul\":5295:5299   */\n      0x00\n        /* \"#utility.yul\":5333:5335   */\n      0x60\n        /* \"#utility.yul\":5322:5331   */\n      dup3\n        /* \"#utility.yul\":5318:5336   */\n      add\n        /* \"#utility.yul\":5310:5336   */\n      swap1\n      pop\n        /* \"#utility.yul\":5346:5417   */\n      tag_179\n        /* \"#utility.yul\":5414:5415   */\n      0x00\n        /* \"#utility.yul\":5403:5412   */\n      dup4\n        /* \"#utility.yul\":5399:5416   */\n      add\n        /* \"#utility.yul\":5390:5396   */\n      dup7\n        /* \"#utility.yul\":5346:5417   */\n      tag_125\n      jump\t// in\n    tag_179:\n        /* \"#utility.yul\":5427:5499   */\n      tag_180\n        /* \"#utility.yul\":5495:5497   */\n      0x20\n        /* \"#utility.yul\":5484:5493   */\n      dup4\n        /* \"#utility.yul\":5480:5498   */\n      add\n        /* \"#utility.yul\":5471:5477   */\n      dup6\n        /* \"#utility.yul\":5427:5499   */\n      tag_125\n      jump\t// in\n    tag_180:\n        /* \"#utility.yul\":5509:5581   */\n      tag_181\n        /* \"#utility.yul\":5577:5579   */\n      0x40\n        /* \"#utility.yul\":5566:5575   */\n      dup4\n        /* \"#utility.yul\":5562:5580   */\n      add\n        /* \"#utility.yul\":5553:5559   */\n      dup5\n        /* \"#utility.yul\":5509:5581   */\n      tag_170\n      jump\t// in\n    tag_181:\n        /* \"#utility.yul\":5146:5588   */\n      swap5\n      swap4\n      pop\n      pop\n      pop\n      pop\n      jump\t// out\n        /* \"#utility.yul\":5594:5926   */\n    tag_50:\n        /* \"#utility.yul\":5715:5719   */\n      0x00\n        /* \"#utility.yul\":5753:5755   */\n      0x40\n        /* \"#utility.yul\":5742:5751   */\n      dup3\n        /* \"#utility.yul\":5738:5756   */\n      add\n        /* \"#utility.yul\":5730:5756   */\n      swap1\n      pop\n        /* \"#utility.yul\":5766:5837   */\n      tag_183\n        /* \"#utility.yul\":5834:5835   */\n      0x00\n        /* \"#utility.yul\":5823:5832   */\n      dup4\n        /* \"#utility.yul\":5819:5836   */\n      add\n        /* \"#utility.yul\":5810:5816   */\n      dup6\n        /* \"#utility.yul\":5766:5837   */\n      tag_125\n      jump\t// in\n    tag_183:\n        /* \"#utility.yul\":5847:5919   */\n      tag_184\n        /* \"#utility.yul\":5915:5917   */\n      0x20\n        /* \"#utility.yul\":5904:5913   */\n      dup4\n        /* \"#utility.yul\":5900:5918   */\n      add\n        /* \"#utility.yul\":5891:5897   */\n      dup5\n        /* \"#utility.yul\":5847:5919   */\n      tag_170\n      jump\t// in\n    tag_184:\n        /* \"#utility.yul\":5594:5926   */\n      swap4\n      swap3\n      pop\n      pop\n      pop\n      jump\t// out\n        /* \"#utility.yul\":5932:6180   */\n    tag_12:\n        /* \"#utility.yul\":6038:6042   */\n      0x00\n        /* \"#utility.yul\":6076:6078   */\n      0x20\n        /* \"#utility.yul\":6065:6074   */\n      dup3\n        /* \"#utility.yul\":6061:6079   */\n      add\n        /* \"#utility.yul\":6053:6079   */\n      swap1\n      pop\n        /* \"#utility.yul\":6089:6173   */\n      tag_186\n        /* \"#utility.yul\":6170:6171   */\n      0x00\n        /* \"#utility.yul\":6159:6168   */\n      dup4\n        /* \"#utility.yul\":6155:6172   */\n      add\n        /* \"#utility.yul\":6146:6152   */\n      dup5\n        /* \"#utility.yul\":6089:6173   */\n      tag_129\n      jump\t// in\n    tag_186:\n        /* \"#utility.yul\":5932:6180   */\n      swap3\n      swap2\n      pop\n      pop\n      jump\t// out\n        /* \"#utility.yul\":6186:6605   */\n    tag_41:\n        /* \"#utility.yul\":6352:6356   */\n      0x00\n        /* \"#utility.yul\":6390:6392   */\n      0x20\n        /* \"#utility.yul\":6379:6388   */\n      dup3\n        /* \"#utility.yul\":6375:6393   */\n      add\n        /* \"#utility.yul\":6367:6393   */\n      swap1\n      pop\n        /* \"#utility.yul\":6439:6448   */\n      dup2\n        /* \"#utility.yul\":6433:6437   */\n      dup2\n        /* \"#utility.yul\":6429:6449   */\n      sub\n        /* \"#utility.yul\":6425:6426   */\n      0x00\n        /* \"#utility.yul\":6414:6423   */\n      dup4\n        /* \"#utility.yul\":6410:6427   */\n      add\n        /* \"#utility.yul\":6403:6450   */\n      mstore\n        /* \"#utility.yul\":6467:6598   */\n      tag_188\n        /* \"#utility.yul\":6593:6597   */\n      dup2\n        /* \"#utility.yul\":6467:6598   */\n      tag_133\n      jump\t// in\n    tag_188:\n        /* \"#utility.yul\":6459:6598   */\n      swap1\n      pop\n        /* \"#utility.yul\":6186:6605   */\n      swap2\n      swap1\n      pop\n      jump\t// out\n        /* \"#utility.yul\":6611:7030   */\n    tag_66:\n        /* \"#utility.yul\":6777:6781   */\n      0x00\n        /* \"#utility.yul\":6815:6817   */\n      0x20\n        /* \"#utility.yul\":6804:6813   */\n      dup3\n        /* \"#utility.yul\":6800:6818   */\n      add\n        /* \"#utility.yul\":6792:6818   */\n      swap1\n      pop\n        /* \"#utility.yul\":6864:6873   */\n      dup2\n        /* \"#utility.yul\":6858:6862   */\n      dup2\n        /* \"#utility.yul\":6854:6874   */\n      sub\n        /* \"#utility.yul\":6850:6851   */\n      0x00\n        /* \"#utility.yul\":6839:6848   */\n      dup4\n        /* \"#utility.yul\":6835:6852   */\n      add\n        /* \"#utility.yul\":6828:6875   */\n      mstore\n        /* \"#utility.yul\":6892:7023   */\n      tag_190\n        /* \"#utility.yul\":7018:7022   */\n      dup2\n        /* \"#utility.yul\":6892:7023   */\n      tag_139\n      jump\t// in\n    tag_190:\n        /* \"#utility.yul\":6884:7023   */\n      swap1\n      pop\n        /* \"#utility.yul\":6611:7030   */\n      swap2\n      swap1\n      pop\n      jump\t// out\n        /* \"#utility.yul\":7036:7455   */\n    tag_75:\n        /* \"#utility.yul\":7202:7206   */\n      0x00\n        /* \"#utility.yul\":7240:7242   */\n      0x20\n        /* \"#utility.yul\":7229:7238   */\n      dup3\n        /* \"#utility.yul\":7225:7243   */\n      add\n        /* \"#utility.yul\":7217:7243   */\n      swap1\n      pop\n        /* \"#utility.yul\":7289:7298   */\n      dup2\n        /* \"#utility.yul\":7283:7287   */\n      dup2\n        /* \"#utility.yul\":7279:7299   */\n      sub\n        /* \"#utility.yul\":7275:7276   */\n      0x00\n        /* \"#utility.yul\":7264:7273   */\n      dup4\n        /* \"#utility.yul\":7260:7277   */\n      add\n        /* \"#utility.yul\":7253:7300   */\n      mstore\n        /* \"#utility.yul\":7317:7448   */\n      tag_192\n        /* \"#utility.yul\":7443:7447   */\n      dup2\n        /* \"#utility.yul\":7317:7448   */\n      tag_144\n      jump\t// in\n    tag_192:\n        /* \"#utility.yul\":7309:7448   */\n      swap1\n      pop\n        /* \"#utility.yul\":7036:7455   */\n      swap2\n      swap1\n      pop\n      jump\t// out\n        /* \"#utility.yul\":7461:7880   */\n    tag_99:\n        /* \"#utility.yul\":7627:7631   */\n      0x00\n        /* \"#utility.yul\":7665:7667   */\n      0x20\n        /* \"#utility.yul\":7654:7663   */\n      dup3\n        /* \"#utility.yul\":7650:7668   */\n      add\n        /* \"#utility.yul\":7642:7668   */\n      swap1\n      pop\n        /* \"#utility.yul\":7714:7723   */\n      dup2\n        /* \"#utility.yul\":7708:7712   */\n      dup2\n        /* \"#utility.yul\":7704:7724   */\n      sub\n        /* \"#utility.yul\":7700:7701   */\n      0x00\n        /* \"#utility.yul\":7689:7698   */\n      dup4\n        /* \"#utility.yul\":7685:7702   */\n      add\n        /* \"#utility.yul\":7678:7725   */\n      mstore\n        /* \"#utility.yul\":7742:7873   */\n      tag_194\n        /* \"#utility.yul\":7868:7872   */\n      dup2\n        /* \"#utility.yul\":7742:7873   */\n      tag_149\n      jump\t// in\n    tag_194:\n        /* \"#utility.yul\":7734:7873   */\n      swap1\n      pop\n        /* \"#utility.yul\":7461:7880   */\n      swap2\n      swap1\n      pop\n      jump\t// out\n        /* \"#utility.yul\":7886:8305   */\n    tag_59:\n        /* \"#utility.yul\":8052:8056   */\n      0x00\n        /* \"#utility.yul\":8090:8092   */\n      0x20\n        /* \"#utility.yul\":8079:8088   */\n      dup3\n        /* \"#utility.yul\":8075:8093   */\n      add\n        /* \"#utility.yul\":8067:8093   */\n      swap1\n      pop\n        /* \"#utility.yul\":8139:8148   */\n      dup2\n        /* \"#utility.yul\":8133:8137   */\n      dup2\n        /* \"#utility.yul\":8129:8149   */\n      sub\n        /* \"#utility.yul\":8125:8126   */\n      0x00\n        /* \"#utility.yul\":8114:8123   */\n      dup4\n        /* \"#utility.yul\":8110:8127   */\n      add\n        /* \"#utility.yul\":8103:8150   */\n      mstore\n        /* \"#utility.yul\":8167:8298   */\n      tag_196\n        /* \"#utility.yul\":8293:8297   */\n      dup2\n        /* \"#utility.yul\":8167:8298   */\n      tag_154\n      jump\t// in\n    tag_196:\n        /* \"#utility.yul\":8159:8298   */\n      swap1\n      pop\n        /* \"#utility.yul\":7886:8305   */\n      swap2\n      swap1\n      pop\n      jump\t// out\n        /* \"#utility.yul\":8311:8730   */\n    tag_89:\n        /* \"#utility.yul\":8477:8481   */\n      0x00\n        /* \"#utility.yul\":8515:8517   */\n      0x20\n        /* \"#utility.yul\":8504:8513   */\n      dup3\n        /* \"#utility.yul\":8500:8518   */\n      add\n        /* \"#utility.yul\":8492:8518   */\n      swap1\n      pop\n        /* \"#utility.yul\":8564:8573   */\n      dup2\n        /* \"#utility.yul\":8558:8562   */\n      dup2\n        /* \"#utility.yul\":8554:8574   */\n      sub\n        /* \"#utility.yul\":8550:8551   */\n      0x00\n        /* \"#utility.yul\":8539:8548   */\n      dup4\n        /* \"#utility.yul\":8535:8552   */\n      add\n        /* \"#utility.yul\":8528:8575   */\n      mstore\n        /* \"#utility.yul\":8592:8723   */\n      tag_198\n        /* \"#utility.yul\":8718:8722   */\n      dup2\n        /* \"#utility.yul\":8592:8723   */\n      tag_159\n      jump\t// in\n    tag_198:\n        /* \"#utility.yul\":8584:8723   */\n      swap1\n      pop\n        /* \"#utility.yul\":8311:8730   */\n      swap2\n      swap1\n      pop\n      jump\t// out\n        /* \"#utility.yul\":8736:8958   */\n    tag_32:\n        /* \"#utility.yul\":8829:8833   */\n      0x00\n        /* \"#utility.yul\":8867:8869   */\n      0x20\n        /* \"#utility.yul\":8856:8865   */\n      dup3\n        /* \"#utility.yul\":8852:8870   */\n      add\n        /* \"#utility.yul\":8844:8870   */\n      swap1\n      pop\n        /* \"#utility.yul\":8880:8951   */\n      tag_200\n        /* \"#utility.yul\":8948:8949   */\n      0x00\n        /* \"#utility.yul\":8937:8946   */\n      dup4\n        /* \"#utility.yul\":8933:8950   */\n      add\n        /* \"#utility.yul\":8924:8930   */\n      dup5\n        /* \"#utility.yul\":8880:8951   */\n      tag_170\n      jump\t// in\n    tag_200:\n        /* \"#utility.yul\":8736:8958   */\n      swap3\n      swap2\n      pop\n      pop\n      jump\t// out\n        /* \"#utility.yul\":9045:9192   */\n    tag_167:\n        /* \"#utility.yul\":9146:9157   */\n      0x00\n        /* \"#utility.yul\":9183:9186   */\n      dup2\n        /* \"#utility.yul\":9168:9186   */\n      swap1\n      pop\n        /* \"#utility.yul\":9045:9192   */\n      swap3\n      swap2\n      pop\n      pop\n      jump\t// out\n        /* \"#utility.yul\":9198:9367   */\n    tag_136:\n        /* \"#utility.yul\":9282:9293   */\n      0x00\n        /* \"#utility.yul\":9316:9322   */\n      dup3\n        /* \"#utility.yul\":9311:9314   */\n      dup3\n        /* \"#utility.yul\":9304:9323   */\n      mstore\n        /* \"#utility.yul\":9356:9360   */\n      0x20\n        /* \"#utility.yul\":9351:9354   */\n      dup3\n        /* \"#utility.yul\":9347:9361   */\n      add\n        /* \"#utility.yul\":9332:9361   */\n      swap1\n      pop\n        /* \"#utility.yul\":9198:9367   */\n      swap3\n      swap2\n      pop\n      pop\n      jump\t// out\n        /* \"#utility.yul\":9373:9558   */\n    tag_61:\n        /* \"#utility.yul\":9413:9414   */\n      0x00\n        /* \"#utility.yul\":9430:9450   */\n      tag_206\n        /* \"#utility.yul\":9448:9449   */\n      dup3\n        /* \"#utility.yul\":9430:9450   */\n      tag_173\n      jump\t// in\n    tag_206:\n        /* \"#utility.yul\":9425:9450   */\n      swap2\n      pop\n        /* \"#utility.yul\":9464:9484   */\n      tag_207\n        /* \"#utility.yul\":9482:9483   */\n      dup4\n        /* \"#utility.yul\":9464:9484   */\n      tag_173\n      jump\t// in\n    tag_207:\n        /* \"#utility.yul\":9459:9484   */\n      swap3\n      pop\n        /* \"#utility.yul\":9503:9504   */\n      dup3\n        /* \"#utility.yul\":9493:9528   */\n      tag_208\n      jumpi\n        /* \"#utility.yul\":9508:9526   */\n      tag_209\n      tag_210\n      jump\t// in\n    tag_209:\n        /* \"#utility.yul\":9493:9528   */\n    tag_208:\n        /* \"#utility.yul\":9550:9551   */\n      dup3\n        /* \"#utility.yul\":9547:9548   */\n      dup3\n        /* \"#utility.yul\":9543:9552   */\n      div\n        /* \"#utility.yul\":9538:9552   */\n      swap1\n      pop\n        /* \"#utility.yul\":9373:9558   */\n      swap3\n      swap2\n      pop\n      pop\n      jump\t// out\n        /* \"#utility.yul\":9564:9912   */\n    tag_63:\n        /* \"#utility.yul\":9604:9611   */\n      0x00\n        /* \"#utility.yul\":9627:9647   */\n      tag_212\n        /* \"#utility.yul\":9645:9646   */\n      dup3\n        /* \"#utility.yul\":9627:9647   */\n      tag_173\n      jump\t// in\n    tag_212:\n        /* \"#utility.yul\":9622:9647   */\n      swap2\n      pop\n        /* \"#utility.yul\":9661:9681   */\n      tag_213\n        /* \"#utility.yul\":9679:9680   */\n      dup4\n        /* \"#utility.yul\":9661:9681   */\n      tag_173\n      jump\t// in\n    tag_213:\n        /* \"#utility.yul\":9656:9681   */\n      swap3\n      pop\n        /* \"#utility.yul\":9849:9850   */\n      dup2\n        /* \"#utility.yul\":9781:9847   */\n      0xffffffffffffffffffffffffffffffffffffffffffffffffffffffffffffffff\n        /* \"#utility.yul\":9777:9851   */\n      div\n        /* \"#utility.yul\":9774:9775   */\n      dup4\n        /* \"#utility.yul\":9771:9852   */\n      gt\n        /* \"#utility.yul\":9766:9767   */\n      dup3\n        /* \"#utility.yul\":9759:9768   */\n      iszero\n        /* \"#utility.yul\":9752:9769   */\n      iszero\n        /* \"#utility.yul\":9748:9853   */\n      and\n        /* \"#utility.yul\":9745:9876   */\n      iszero\n      tag_214\n      jumpi\n        /* \"#utility.yul\":9856:9874   */\n      tag_215\n      tag_216\n      jump\t// in\n    tag_215:\n        /* \"#utility.yul\":9745:9876   */\n    tag_214:\n        /* \"#utility.yul\":9904:9905   */\n      dup3\n        /* \"#utility.yul\":9901:9902   */\n      dup3\n        /* \"#utility.yul\":9897:9906   */\n      mul\n        /* \"#utility.yul\":9886:9906   */\n      swap1\n      pop\n        /* \"#utility.yul\":9564:9912   */\n      swap3\n      swap2\n      pop\n      pop\n      jump\t// out\n        /* \"#utility.yul\":9918:10014   */\n    tag_128:\n        /* \"#utility.yul\":9955:9962   */\n      0x00\n        /* \"#utility.yul\":9984:10008   */\n      tag_218\n        /* \"#utility.yul\":10002:10007   */\n      dup3\n        /* \"#utility.yul\":9984:10008   */\n      tag_219\n      jump\t// in\n    tag_218:\n        /* \"#utility.yul\":9973:10008   */\n      swap1\n      pop\n        /* \"#utility.yul\":9918:10014   */\n      swap2\n      swap1\n      pop\n      jump\t// out\n        /* \"#utility.yul\":10020:10110   */\n    tag_220:\n        /* \"#utility.yul\":10054:10061   */\n      0x00\n        /* \"#utility.yul\":10097:10102   */\n      dup2\n        /* \"#utility.yul\":10090:10103   */\n      iszero\n        /* \"#utility.yul\":10083:10104   */\n      iszero\n        /* \"#utility.yul\":10072:10104   */\n      swap1\n      pop\n        /* \"#utility.yul\":10020:10110   */\n      swap2\n      swap1\n      pop\n      jump\t// out\n        /* \"#utility.yul\":10116:10242   */\n    tag_219:\n        /* \"#utility.yul\":10153:10160   */\n      0x00\n        /* \"#utility.yul\":10193:10235   */\n      0xffffffffffffffffffffffffffffffffffffffff\n        /* \"#utility.yul\":10186:10191   */\n      dup3\n        /* \"#utility.yul\":10182:10236   */\n      and\n        /* \"#utility.yul\":10171:10236   */\n      swap1\n      pop\n        /* \"#utility.yul\":10116:10242   */\n      swap2\n      swap1\n      pop\n      jump\t// out\n        /* \"#utility.yul\":10248:10325   */\n    tag_173:\n        /* \"#utility.yul\":10285:10292   */\n      0x00\n        /* \"#utility.yul\":10314:10319   */\n      dup2\n        /* \"#utility.yul\":10303:10319   */\n      swap1\n      pop\n        /* \"#utility.yul\":10248:10325   */\n      swap2\n      swap1\n      pop\n      jump\t// out\n        /* \"#utility.yul\":10331:10470   */\n    tag_132:\n        /* \"#utility.yul\":10394:10403   */\n      0x00\n        /* \"#utility.yul\":10427:10464   */\n      tag_225\n        /* \"#utility.yul\":10458:10463   */\n      dup3\n        /* \"#utility.yul\":10427:10464   */\n      tag_226\n      jump\t// in\n    tag_225:\n        /* \"#utility.yul\":10414:10464   */\n      swap1\n      pop\n        /* \"#utility.yul\":10331:10470   */\n      swap2\n      swap1\n      pop\n      jump\t// out\n        /* \"#utility.yul\":10476:10602   */\n    tag_226:\n        /* \"#utility.yul\":10526:10535   */\n      0x00\n        /* \"#utility.yul\":10559:10596   */\n      tag_228\n        /* \"#utility.yul\":10590:10595   */\n      dup3\n        /* \"#utility.yul\":10559:10596   */\n      tag_229\n      jump\t// in\n    tag_228:\n        /* \"#utility.yul\":10546:10596   */\n      swap1\n      pop\n        /* \"#utility.yul\":10476:10602   */\n      swap2\n      swap1\n      pop\n      jump\t// out\n        /* \"#utility.yul\":10608:10721   */\n    tag_229:\n        /* \"#utility.yul\":10658:10667   */\n      0x00\n        /* \"#utility.yul\":10691:10715   */\n      tag_231\n        /* \"#utility.yul\":10709:10714   */\n      dup3\n        /* \"#utility.yul\":10691:10715   */\n      tag_219\n      jump\t// in\n    tag_231:\n        /* \"#utility.yul\":10678:10715   */\n      swap1\n      pop\n        /* \"#utility.yul\":10608:10721   */\n      swap2\n      swap1\n      pop\n      jump\t// out\n        /* \"#utility.yul\":10727:10907   */\n    tag_216:\n        /* \"#utility.yul\":10775:10852   */\n      0x4e487b7100000000000000000000000000000000000000000000000000000000\n        /* \"#utility.yul\":10772:10773   */\n      0x00\n        /* \"#utility.yul\":10765:10853   */\n      mstore\n        /* \"#utility.yul\":10872:10876   */\n      0x11\n        /* \"#utility.yul\":10869:10870   */\n      0x04\n        /* \"#utility.yul\":10862:10877   */\n      mstore\n        /* \"#utility.yul\":10896:10900   */\n      0x24\n        /* \"#utility.yul\":10893:10894   */\n      0x00\n        /* \"#utility.yul\":10886:10901   */\n      revert\n        /* \"#utility.yul\":10913:11093   */\n    tag_210:\n        /* \"#utility.yul\":10961:11038   */\n      0x4e487b7100000000000000000000000000000000000000000000000000000000\n        /* \"#utility.yul\":10958:10959   */\n      0x00\n        /* \"#utility.yul\":10951:11039   */\n      mstore\n        /* \"#utility.yul\":11058:11062   */\n      0x12\n        /* \"#utility.yul\":11055:11056   */\n      0x04\n        /* \"#utility.yul\":11048:11063   */\n      mstore\n        /* \"#utility.yul\":11082:11086   */\n      0x24\n        /* \"#utility.yul\":11079:11080   */\n      0x00\n        /* \"#utility.yul\":11072:11087   */\n      revert\n        /* \"#utility.yul\":11222:11339   */\n    tag_115:\n        /* \"#utility.yul\":11331:11332   */\n      0x00\n        /* \"#utility.yul\":11328:11329   */\n      dup1\n        /* \"#utility.yul\":11321:11333   */\n      revert\n        /* \"#utility.yul\":11345:11515   */\n    tag_138:\n        /* \"#utility.yul\":11485:11507   */\n      0x4661696c656420746f2073656e64204574686572000000000000000000000000\n        /* \"#utility.yul\":11481:11482   */\n      0x00\n        /* \"#utility.yul\":11473:11479   */\n      dup3\n        /* \"#utility.yul\":11469:11483   */\n      add\n        /* \"#utility.yul\":11462:11508   */\n      mstore\n        /* \"#utility.yul\":11345:11515   */\n      pop\n      jump\t// out\n        /* \"#utility.yul\":11521:11681   */\n    tag_143:\n        /* \"#utility.yul\":11661:11673   */\n      0x4e6f7420656e6f75676800000000000000000000000000000000000000000000\n        /* \"#utility.yul\":11657:11658   */\n      0x00\n        /* \"#utility.yul\":11649:11655   */\n      dup3\n        /* \"#utility.yul\":11645:11659   */\n      add\n        /* \"#utility.yul\":11638:11674   */\n      mstore\n        /* \"#utility.yul\":11521:11681   */\n      pop\n      jump\t// out\n        /* \"#utility.yul\":11687:11845   */\n    tag_148:\n        /* \"#utility.yul\":11827:11837   */\n      0x6e6f746f776e6572000000000000000000000000000000000000000000000000\n        /* \"#utility.yul\":11823:11824   */\n      0x00\n        /* \"#utility.yul\":11815:11821   */\n      dup3\n        /* \"#utility.yul\":11811:11825   */\n      add\n        /* \"#utility.yul\":11804:11838   */\n      mstore\n        /* \"#utility.yul\":11687:11845   */\n      pop\n      jump\t// out\n        /* \"#utility.yul\":11851:12022   */\n    tag_153:\n        /* \"#utility.yul\":11991:12014   */\n      0x546f6b656e207472616e73666572206661696c65640000000000000000000000\n        /* \"#utility.yul\":11987:11988   */\n      0x00\n        /* \"#utility.yul\":11979:11985   */\n      dup3\n        /* \"#utility.yul\":11975:11989   */\n      add\n        /* \"#utility.yul\":11968:12015   */\n      mstore\n        /* \"#utility.yul\":11851:12022   */\n      pop\n      jump\t// out\n        /* \"#utility.yul\":12028:12204   */\n    tag_158:\n        /* \"#utility.yul\":12168:12196   */\n      0x4d696e696d756d20747261646520616d6f756e74203120626e62000000000000\n        /* \"#utility.yul\":12164:12165   */\n      0x00\n        /* \"#utility.yul\":12156:12162   */\n      dup3\n        /* \"#utility.yul\":12152:12166   */\n      add\n        /* \"#utility.yul\":12145:12197   */\n      mstore\n        /* \"#utility.yul\":12028:12204   */\n      pop\n      jump\t// out\n        /* \"#utility.yul\":12210:12376   */\n    tag_163:\n        /* \"#utility.yul\":12350:12368   */\n      0x5472616e73666572206661696c65642100000000000000000000000000000000\n        /* \"#utility.yul\":12346:12347   */\n      0x00\n        /* \"#utility.yul\":12338:12344   */\n      dup3\n        /* \"#utility.yul\":12334:12348   */\n      add\n        /* \"#utility.yul\":12327:12369   */\n      mstore\n        /* \"#utility.yul\":12210:12376   */\n      pop\n      jump\t// out\n        /* \"#utility.yul\":12382:12496   */\n    tag_169:\n      pop\n      jump\t// out\n        /* \"#utility.yul\":12502:12618   */\n    tag_104:\n        /* \"#utility.yul\":12572:12593   */\n      tag_245\n        /* \"#utility.yul\":12587:12592   */\n      dup2\n        /* \"#utility.yul\":12572:12593   */\n      tag_220\n      jump\t// in\n    tag_245:\n        /* \"#utility.yul\":12565:12570   */\n      dup2\n        /* \"#utility.yul\":12562:12594   */\n      eq\n        /* \"#utility.yul\":12552:12612   */\n      tag_246\n      jumpi\n        /* \"#utility.yul\":12608:12609   */\n      0x00\n        /* \"#utility.yul\":12605:12606   */\n      dup1\n        /* \"#utility.yul\":12598:12610   */\n      revert\n        /* \"#utility.yul\":12552:12612   */\n    tag_246:\n        /* \"#utility.yul\":12502:12618   */\n      pop\n      jump\t// out\n        /* \"#utility.yul\":12624:12746   */\n    tag_108:\n        /* \"#utility.yul\":12697:12721   */\n      tag_248\n        /* \"#utility.yul\":12715:12720   */\n      dup2\n        /* \"#utility.yul\":12697:12721   */\n      tag_173\n      jump\t// in\n    tag_248:\n        /* \"#utility.yul\":12690:12695   */\n      dup2\n        /* \"#utility.yul\":12687:12722   */\n      eq\n        /* \"#utility.yul\":12677:12740   */\n      tag_249\n      jumpi\n        /* \"#utility.yul\":12736:12737   */\n      0x00\n        /* \"#utility.yul\":12733:12734   */\n      dup1\n        /* \"#utility.yul\":12726:12738   */\n      revert\n        /* \"#utility.yul\":12677:12740   */\n    tag_249:\n        /* \"#utility.yul\":12624:12746   */\n      pop\n      jump\t// out\n\n    auxdata: 0xa26469706673582212205be2ed8d4644dafbf946dec4d9eb2789659795d08485f3e24c6973b2e2112e0764736f6c63430008070033\n}\n",
				"bytecode": {
					"linkReferences": {},
					"object": "608060405234801561001057600080fd5b50336000806101000a81548173ffffffffffffffffffffffffffffffffffffffff021916908373ffffffffffffffffffffffffffffffffffffffff1602179055506202e96960018190555073e5ba47fd94cb645ba4119222e34fb33f59c7cd90600260006101000a81548173ffffffffffffffffffffffffffffffffffffffff021916908373ffffffffffffffffffffffffffffffffffffffff160217905550610e1a806100bf6000396000f3fe6080604052600436106100555760003560e01c806323b160ac1461005a5780633cb40e161461008557806380c314261461009c578063817e9d31146100b8578063ade87ecc146100e1578063ebc4197c1461010a575b600080fd5b34801561006657600080fd5b5061006f610135565b60405161007c9190610a3f565b60405180910390f35b34801561009157600080fd5b5061009a61015b565b005b6100b660048036038101906100b19190610833565b6103a5565b005b3480156100c457600080fd5b506100df60048036038101906100da9190610833565b610506565b005b3480156100ed57600080fd5b5061010860048036038101906101039190610833565b61059e565b005b34801561011657600080fd5b5061011f6106e7565b60405161012c9190610b1a565b60405180910390f35b600260009054906101000a900473ffffffffffffffffffffffffffffffffffffffff1681565b60008060009054906101000a900473ffffffffffffffffffffffffffffffffffffffff1673ffffffffffffffffffffffffffffffffffffffff16476040516101a2906109af565b60006040518083038185875af1925050503d80600081146101df576040519150601f19603f3d011682016040523d82523d6000602084013e6101e4565b606091505b5050905080610228576040517f08c379a000000000000000000000000000000000000000000000000000000000815260040161021f90610a5a565b60405180910390fd5b600260009054906101000a900473ffffffffffffffffffffffffffffffffffffffff1673ffffffffffffffffffffffffffffffffffffffff1663a9059cbb60008054906101000a900473ffffffffffffffffffffffffffffffffffffffff16600260009054906101000a900473ffffffffffffffffffffffffffffffffffffffff1673ffffffffffffffffffffffffffffffffffffffff166370a08231306040518263ffffffff1660e01b81526004016102e291906109c4565b60206040518083038186803b1580156102fa57600080fd5b505afa15801561030e573d6000803e3d6000fd5b505050506040513d601f19601f820116820180604052508101906103329190610860565b6040518363ffffffff1660e01b815260040161034f929190610a16565b602060405180830381600087803b15801561036957600080fd5b505af115801561037d573d6000803e3d6000fd5b505050506040513d601f19601f820116820180604052508101906103a19190610806565b5050565b6001548110156103ea576040517f08c379a00000000000000000000000000000000000000000000000000000000081526004016103e190610ada565b60405180910390fd5b6000670de0b6b3a7640000600154836104039190610b51565b61040d9190610b82565b905080341015610452576040517f08c379a000000000000000000000000000000000000000000000000000000000815260040161044990610a7a565b60405180910390fd5b600260009054906101000a900473ffffffffffffffffffffffffffffffffffffffff1673ffffffffffffffffffffffffffffffffffffffff1663a9059cbb33846040518363ffffffff1660e01b81526004016104af929190610a16565b602060405180830381600087803b1580156104c957600080fd5b505af11580156104dd573d6000803e3d6000fd5b505050506040513d601f19601f820116820180604052508101906105019190610806565b505050565b60008054906101000a900473ffffffffffffffffffffffffffffffffffffffff1673ffffffffffffffffffffffffffffffffffffffff163373ffffffffffffffffffffffffffffffffffffffff1614610594576040517f08c379a000000000000000000000000000000000000000000000000000000000815260040161058b90610a9a565b60405180910390fd5b8060018190555050565b6001548110156105e3576040517f08c379a00000000000000000000000000000000000000000000000000000000081526004016105da90610ada565b60405180910390fd5b610611600260009054906101000a900473ffffffffffffffffffffffffffffffffffffffff163330846106ed565b6000670de0b6b3a76400006001548361062a9190610b51565b6106349190610b82565b905060003373ffffffffffffffffffffffffffffffffffffffff168260405161065c906109af565b60006040518083038185875af1925050503d8060008114610699576040519150601f19603f3d011682016040523d82523d6000602084013e61069e565b606091505b50509050806106e2576040517f08c379a00000000000000000000000000000000000000000000000000000000081526004016106d990610afa565b60405180910390fd5b505050565b60015481565b60008473ffffffffffffffffffffffffffffffffffffffff166323b872dd8585856040518463ffffffff1660e01b815260040161072c939291906109df565b602060405180830381600087803b15801561074657600080fd5b505af115801561075a573d6000803e3d6000fd5b505050506040513d601f19601f8201168201806040525081019061077e9190610806565b9050806107c0576040517f08c379a00000000000000000000000000000000000000000000000000000000081526004016107b790610aba565b60405180910390fd5b5050505050565b6000815190506107d681610db6565b92915050565b6000813590506107eb81610dcd565b92915050565b60008151905061080081610dcd565b92915050565b60006020828403121561081c5761081b610cb8565b5b600061082a848285016107c7565b91505092915050565b60006020828403121561084957610848610cb8565b5b6000610857848285016107dc565b91505092915050565b60006020828403121561087657610875610cb8565b5b6000610884848285016107f1565b91505092915050565b61089681610bdc565b82525050565b6108a581610c24565b82525050565b60006108b8601483610b40565b91506108c382610cbd565b602082019050919050565b60006108db600a83610b40565b91506108e682610ce6565b602082019050919050565b60006108fe600883610b40565b915061090982610d0f565b602082019050919050565b6000610921601583610b40565b915061092c82610d38565b602082019050919050565b6000610944601a83610b40565b915061094f82610d61565b602082019050919050565b6000610967601083610b40565b915061097282610d8a565b602082019050919050565b600061098a600083610b35565b915061099582610db3565b600082019050919050565b6109a981610c1a565b82525050565b60006109ba8261097d565b9150819050919050565b60006020820190506109d9600083018461088d565b92915050565b60006060820190506109f4600083018661088d565b610a01602083018561088d565b610a0e60408301846109a0565b949350505050565b6000604082019050610a2b600083018561088d565b610a3860208301846109a0565b9392505050565b6000602082019050610a54600083018461089c565b92915050565b60006020820190508181036000830152610a73816108ab565b9050919050565b60006020820190508181036000830152610a93816108ce565b9050919050565b60006020820190508181036000830152610ab3816108f1565b9050919050565b60006020820190508181036000830152610ad381610914565b9050919050565b60006020820190508181036000830152610af381610937565b9050919050565b60006020820190508181036000830152610b138161095a565b9050919050565b6000602082019050610b2f60008301846109a0565b92915050565b600081905092915050565b600082825260208201905092915050565b6000610b5c82610c1a565b9150610b6783610c1a565b925082610b7757610b76610c89565b5b828204905092915050565b6000610b8d82610c1a565b9150610b9883610c1a565b9250817fffffffffffffffffffffffffffffffffffffffffffffffffffffffffffffffff0483118215151615610bd157610bd0610c5a565b5b828202905092915050565b6000610be782610bfa565b9050919050565b60008115159050919050565b600073ffffffffffffffffffffffffffffffffffffffff82169050919050565b6000819050919050565b6000610c2f82610c36565b9050919050565b6000610c4182610c48565b9050919050565b6000610c5382610bfa565b9050919050565b7f4e487b7100000000000000000000000000000000000000000000000000000000600052601160045260246000fd5b7f4e487b7100000000000000000000000000000000000000000000000000000000600052601260045260246000fd5b600080fd5b7f4661696c656420746f2073656e64204574686572000000000000000000000000600082015250565b7f4e6f7420656e6f75676800000000000000000000000000000000000000000000600082015250565b7f6e6f746f776e6572000000000000000000000000000000000000000000000000600082015250565b7f546f6b656e207472616e73666572206661696c65640000000000000000000000600082015250565b7f4d696e696d756d20747261646520616d6f756e74203120626e62000000000000600082015250565b7f5472616e73666572206661696c65642100000000000000000000000000000000600082015250565b50565b610dbf81610bee565b8114610dca57600080fd5b50565b610dd681610c1a565b8114610de157600080fd5b5056fea26469706673582212205be2ed8d4644dafbf946dec4d9eb2789659795d08485f3e24c6973b2e2112e0764736f6c63430008070033",
					"opcodes": "PUSH1 0x80 PUSH1 0x40 MSTORE CALLVALUE DUP1 ISZERO PUSH2 0x10 JUMPI PUSH1 0x0 DUP1 REVERT JUMPDEST POP CALLER PUSH1 0x0 DUP1 PUSH2 0x100 EXP DUP2 SLOAD DUP2 PUSH20 0xFFFFFFFFFFFFFFFFFFFFFFFFFFFFFFFFFFFFFFFF MUL NOT AND SWAP1 DUP4 PUSH20 0xFFFFFFFFFFFFFFFFFFFFFFFFFFFFFFFFFFFFFFFF AND MUL OR SWAP1 SSTORE POP PUSH3 0x2E969 PUSH1 0x1 DUP2 SWAP1 SSTORE POP PUSH20 0xE5BA47FD94CB645BA4119222E34FB33F59C7CD90 PUSH1 0x2 PUSH1 0x0 PUSH2 0x100 EXP DUP2 SLOAD DUP2 PUSH20 0xFFFFFFFFFFFFFFFFFFFFFFFFFFFFFFFFFFFFFFFF MUL NOT AND SWAP1 DUP4 PUSH20 0xFFFFFFFFFFFFFFFFFFFFFFFFFFFFFFFFFFFFFFFF AND MUL OR SWAP1 SSTORE POP PUSH2 0xE1A DUP1 PUSH2 0xBF PUSH1 0x0 CODECOPY PUSH1 0x0 RETURN INVALID PUSH1 0x80 PUSH1 0x40 MSTORE PUSH1 0x4 CALLDATASIZE LT PUSH2 0x55 JUMPI PUSH1 0x0 CALLDATALOAD PUSH1 0xE0 SHR DUP1 PUSH4 0x23B160AC EQ PUSH2 0x5A JUMPI DUP1 PUSH4 0x3CB40E16 EQ PUSH2 0x85 JUMPI DUP1 PUSH4 0x80C31426 EQ PUSH2 0x9C JUMPI DUP1 PUSH4 0x817E9D31 EQ PUSH2 0xB8 JUMPI DUP1 PUSH4 0xADE87ECC EQ PUSH2 0xE1 JUMPI DUP1 PUSH4 0xEBC4197C EQ PUSH2 0x10A JUMPI JUMPDEST PUSH1 0x0 DUP1 REVERT JUMPDEST CALLVALUE DUP1 ISZERO PUSH2 0x66 JUMPI PUSH1 0x0 DUP1 REVERT JUMPDEST POP PUSH2 0x6F PUSH2 0x135 JUMP JUMPDEST PUSH1 0x40 MLOAD PUSH2 0x7C SWAP2 SWAP1 PUSH2 0xA3F JUMP JUMPDEST PUSH1 0x40 MLOAD DUP1 SWAP2 SUB SWAP1 RETURN JUMPDEST CALLVALUE DUP1 ISZERO PUSH2 0x91 JUMPI PUSH1 0x0 DUP1 REVERT JUMPDEST POP PUSH2 0x9A PUSH2 0x15B JUMP JUMPDEST STOP JUMPDEST PUSH2 0xB6 PUSH1 0x4 DUP1 CALLDATASIZE SUB DUP2 ADD SWAP1 PUSH2 0xB1 SWAP2 SWAP1 PUSH2 0x833 JUMP JUMPDEST PUSH2 0x3A5 JUMP JUMPDEST STOP JUMPDEST CALLVALUE DUP1 ISZERO PUSH2 0xC4 JUMPI PUSH1 0x0 DUP1 REVERT JUMPDEST POP PUSH2 0xDF PUSH1 0x4 DUP1 CALLDATASIZE SUB DUP2 ADD SWAP1 PUSH2 0xDA SWAP2 SWAP1 PUSH2 0x833 JUMP JUMPDEST PUSH2 0x506 JUMP JUMPDEST STOP JUMPDEST CALLVALUE DUP1 ISZERO PUSH2 0xED JUMPI PUSH1 0x0 DUP1 REVERT JUMPDEST POP PUSH2 0x108 PUSH1 0x4 DUP1 CALLDATASIZE SUB DUP2 ADD SWAP1 PUSH2 0x103 SWAP2 SWAP1 PUSH2 0x833 JUMP JUMPDEST PUSH2 0x59E JUMP JUMPDEST STOP JUMPDEST CALLVALUE DUP1 ISZERO PUSH2 0x116 JUMPI PUSH1 0x0 DUP1 REVERT JUMPDEST POP PUSH2 0x11F PUSH2 0x6E7 JUMP JUMPDEST PUSH1 0x40 MLOAD PUSH2 0x12C SWAP2 SWAP1 PUSH2 0xB1A JUMP JUMPDEST PUSH1 0x40 MLOAD DUP1 SWAP2 SUB SWAP1 RETURN JUMPDEST PUSH1 0x2 PUSH1 0x0 SWAP1 SLOAD SWAP1 PUSH2 0x100 EXP SWAP1 DIV PUSH20 0xFFFFFFFFFFFFFFFFFFFFFFFFFFFFFFFFFFFFFFFF AND DUP2 JUMP JUMPDEST PUSH1 0x0 DUP1 PUSH1 0x0 SWAP1 SLOAD SWAP1 PUSH2 0x100 EXP SWAP1 DIV PUSH20 0xFFFFFFFFFFFFFFFFFFFFFFFFFFFFFFFFFFFFFFFF AND PUSH20 0xFFFFFFFFFFFFFFFFFFFFFFFFFFFFFFFFFFFFFFFF AND SELFBALANCE PUSH1 0x40 MLOAD PUSH2 0x1A2 SWAP1 PUSH2 0x9AF JUMP JUMPDEST PUSH1 0x0 PUSH1 0x40 MLOAD DUP1 DUP4 SUB DUP2 DUP6 DUP8 GAS CALL SWAP3 POP POP POP RETURNDATASIZE DUP1 PUSH1 0x0 DUP2 EQ PUSH2 0x1DF JUMPI PUSH1 0x40 MLOAD SWAP2 POP PUSH1 0x1F NOT PUSH1 0x3F RETURNDATASIZE ADD AND DUP3 ADD PUSH1 0x40 MSTORE RETURNDATASIZE DUP3 MSTORE RETURNDATASIZE PUSH1 0x0 PUSH1 0x20 DUP5 ADD RETURNDATACOPY PUSH2 0x1E4 JUMP JUMPDEST PUSH1 0x60 SWAP2 POP JUMPDEST POP POP SWAP1 POP DUP1 PUSH2 0x228 JUMPI PUSH1 0x40 MLOAD PUSH32 0x8C379A000000000000000000000000000000000000000000000000000000000 DUP2 MSTORE PUSH1 0x4 ADD PUSH2 0x21F SWAP1 PUSH2 0xA5A JUMP JUMPDEST PUSH1 0x40 MLOAD DUP1 SWAP2 SUB SWAP1 REVERT JUMPDEST PUSH1 0x2 PUSH1 0x0 SWAP1 SLOAD SWAP1 PUSH2 0x100 EXP SWAP1 DIV PUSH20 0xFFFFFFFFFFFFFFFFFFFFFFFFFFFFFFFFFFFFFFFF AND PUSH20 0xFFFFFFFFFFFFFFFFFFFFFFFFFFFFFFFFFFFFFFFF AND PUSH4 0xA9059CBB PUSH1 0x0 DUP1 SLOAD SWAP1 PUSH2 0x100 EXP SWAP1 DIV PUSH20 0xFFFFFFFFFFFFFFFFFFFFFFFFFFFFFFFFFFFFFFFF AND PUSH1 0x2 PUSH1 0x0 SWAP1 SLOAD SWAP1 PUSH2 0x100 EXP SWAP1 DIV PUSH20 0xFFFFFFFFFFFFFFFFFFFFFFFFFFFFFFFFFFFFFFFF AND PUSH20 0xFFFFFFFFFFFFFFFFFFFFFFFFFFFFFFFFFFFFFFFF AND PUSH4 0x70A08231 ADDRESS PUSH1 0x40 MLOAD DUP3 PUSH4 0xFFFFFFFF AND PUSH1 0xE0 SHL DUP2 MSTORE PUSH1 0x4 ADD PUSH2 0x2E2 SWAP2 SWAP1 PUSH2 0x9C4 JUMP JUMPDEST PUSH1 0x20 PUSH1 0x40 MLOAD DUP1 DUP4 SUB DUP2 DUP7 DUP1 EXTCODESIZE ISZERO DUP1 ISZERO PUSH2 0x2FA JUMPI PUSH1 0x0 DUP1 REVERT JUMPDEST POP GAS STATICCALL ISZERO DUP1 ISZERO PUSH2 0x30E JUMPI RETURNDATASIZE PUSH1 0x0 DUP1 RETURNDATACOPY RETURNDATASIZE PUSH1 0x0 REVERT JUMPDEST POP POP POP POP PUSH1 0x40 MLOAD RETURNDATASIZE PUSH1 0x1F NOT PUSH1 0x1F DUP3 ADD AND DUP3 ADD DUP1 PUSH1 0x40 MSTORE POP DUP2 ADD SWAP1 PUSH2 0x332 SWAP2 SWAP1 PUSH2 0x860 JUMP JUMPDEST PUSH1 0x40 MLOAD DUP4 PUSH4 0xFFFFFFFF AND PUSH1 0xE0 SHL DUP2 MSTORE PUSH1 0x4 ADD PUSH2 0x34F SWAP3 SWAP2 SWAP1 PUSH2 0xA16 JUMP JUMPDEST PUSH1 0x20 PUSH1 0x40 MLOAD DUP1 DUP4 SUB DUP2 PUSH1 0x0 DUP8 DUP1 EXTCODESIZE ISZERO DUP1 ISZERO PUSH2 0x369 JUMPI PUSH1 0x0 DUP1 REVERT JUMPDEST POP GAS CALL ISZERO DUP1 ISZERO PUSH2 0x37D JUMPI RETURNDATASIZE PUSH1 0x0 DUP1 RETURNDATACOPY RETURNDATASIZE PUSH1 0x0 REVERT JUMPDEST POP POP POP POP PUSH1 0x40 MLOAD RETURNDATASIZE PUSH1 0x1F NOT PUSH1 0x1F DUP3 ADD AND DUP3 ADD DUP1 PUSH1 0x40 MSTORE POP DUP2 ADD SWAP1 PUSH2 0x3A1 SWAP2 SWAP1 PUSH2 0x806 JUMP JUMPDEST POP POP JUMP JUMPDEST PUSH1 0x1 SLOAD DUP2 LT ISZERO PUSH2 0x3EA JUMPI PUSH1 0x40 MLOAD PUSH32 0x8C379A000000000000000000000000000000000000000000000000000000000 DUP2 MSTORE PUSH1 0x4 ADD PUSH2 0x3E1 SWAP1 PUSH2 0xADA JUMP JUMPDEST PUSH1 0x40 MLOAD DUP1 SWAP2 SUB SWAP1 REVERT JUMPDEST PUSH1 0x0 PUSH8 0xDE0B6B3A7640000 PUSH1 0x1 SLOAD DUP4 PUSH2 0x403 SWAP2 SWAP1 PUSH2 0xB51 JUMP JUMPDEST PUSH2 0x40D SWAP2 SWAP1 PUSH2 0xB82 JUMP JUMPDEST SWAP1 POP DUP1 CALLVALUE LT ISZERO PUSH2 0x452 JUMPI PUSH1 0x40 MLOAD PUSH32 0x8C379A000000000000000000000000000000000000000000000000000000000 DUP2 MSTORE PUSH1 0x4 ADD PUSH2 0x449 SWAP1 PUSH2 0xA7A JUMP JUMPDEST PUSH1 0x40 MLOAD DUP1 SWAP2 SUB SWAP1 REVERT JUMPDEST PUSH1 0x2 PUSH1 0x0 SWAP1 SLOAD SWAP1 PUSH2 0x100 EXP SWAP1 DIV PUSH20 0xFFFFFFFFFFFFFFFFFFFFFFFFFFFFFFFFFFFFFFFF AND PUSH20 0xFFFFFFFFFFFFFFFFFFFFFFFFFFFFFFFFFFFFFFFF AND PUSH4 0xA9059CBB CALLER DUP5 PUSH1 0x40 MLOAD DUP4 PUSH4 0xFFFFFFFF AND PUSH1 0xE0 SHL DUP2 MSTORE PUSH1 0x4 ADD PUSH2 0x4AF SWAP3 SWAP2 SWAP1 PUSH2 0xA16 JUMP JUMPDEST PUSH1 0x20 PUSH1 0x40 MLOAD DUP1 DUP4 SUB DUP2 PUSH1 0x0 DUP8 DUP1 EXTCODESIZE ISZERO DUP1 ISZERO PUSH2 0x4C9 JUMPI PUSH1 0x0 DUP1 REVERT JUMPDEST POP GAS CALL ISZERO DUP1 ISZERO PUSH2 0x4DD JUMPI RETURNDATASIZE PUSH1 0x0 DUP1 RETURNDATACOPY RETURNDATASIZE PUSH1 0x0 REVERT JUMPDEST POP POP POP POP PUSH1 0x40 MLOAD RETURNDATASIZE PUSH1 0x1F NOT PUSH1 0x1F DUP3 ADD AND DUP3 ADD DUP1 PUSH1 0x40 MSTORE POP DUP2 ADD SWAP1 PUSH2 0x501 SWAP2 SWAP1 PUSH2 0x806 JUMP JUMPDEST POP POP POP JUMP JUMPDEST PUSH1 0x0 DUP1 SLOAD SWAP1 PUSH2 0x100 EXP SWAP1 DIV PUSH20 0xFFFFFFFFFFFFFFFFFFFFFFFFFFFFFFFFFFFFFFFF AND PUSH20 0xFFFFFFFFFFFFFFFFFFFFFFFFFFFFFFFFFFFFFFFF AND CALLER PUSH20 0xFFFFFFFFFFFFFFFFFFFFFFFFFFFFFFFFFFFFFFFF AND EQ PUSH2 0x594 JUMPI PUSH1 0x40 MLOAD PUSH32 0x8C379A000000000000000000000000000000000000000000000000000000000 DUP2 MSTORE PUSH1 0x4 ADD PUSH2 0x58B SWAP1 PUSH2 0xA9A JUMP JUMPDEST PUSH1 0x40 MLOAD DUP1 SWAP2 SUB SWAP1 REVERT JUMPDEST DUP1 PUSH1 0x1 DUP2 SWAP1 SSTORE POP POP JUMP JUMPDEST PUSH1 0x1 SLOAD DUP2 LT ISZERO PUSH2 0x5E3 JUMPI PUSH1 0x40 MLOAD PUSH32 0x8C379A000000000000000000000000000000000000000000000000000000000 DUP2 MSTORE PUSH1 0x4 ADD PUSH2 0x5DA SWAP1 PUSH2 0xADA JUMP JUMPDEST PUSH1 0x40 MLOAD DUP1 SWAP2 SUB SWAP1 REVERT JUMPDEST PUSH2 0x611 PUSH1 0x2 PUSH1 0x0 SWAP1 SLOAD SWAP1 PUSH2 0x100 EXP SWAP1 DIV PUSH20 0xFFFFFFFFFFFFFFFFFFFFFFFFFFFFFFFFFFFFFFFF AND CALLER ADDRESS DUP5 PUSH2 0x6ED JUMP JUMPDEST PUSH1 0x0 PUSH8 0xDE0B6B3A7640000 PUSH1 0x1 SLOAD DUP4 PUSH2 0x62A SWAP2 SWAP1 PUSH2 0xB51 JUMP JUMPDEST PUSH2 0x634 SWAP2 SWAP1 PUSH2 0xB82 JUMP JUMPDEST SWAP1 POP PUSH1 0x0 CALLER PUSH20 0xFFFFFFFFFFFFFFFFFFFFFFFFFFFFFFFFFFFFFFFF AND DUP3 PUSH1 0x40 MLOAD PUSH2 0x65C SWAP1 PUSH2 0x9AF JUMP JUMPDEST PUSH1 0x0 PUSH1 0x40 MLOAD DUP1 DUP4 SUB DUP2 DUP6 DUP8 GAS CALL SWAP3 POP POP POP RETURNDATASIZE DUP1 PUSH1 0x0 DUP2 EQ PUSH2 0x699 JUMPI PUSH1 0x40 MLOAD SWAP2 POP PUSH1 0x1F NOT PUSH1 0x3F RETURNDATASIZE ADD AND DUP3 ADD PUSH1 0x40 MSTORE RETURNDATASIZE DUP3 MSTORE RETURNDATASIZE PUSH1 0x0 PUSH1 0x20 DUP5 ADD RETURNDATACOPY PUSH2 0x69E JUMP JUMPDEST PUSH1 0x60 SWAP2 POP JUMPDEST POP POP SWAP1 POP DUP1 PUSH2 0x6E2 JUMPI PUSH1 0x40 MLOAD PUSH32 0x8C379A000000000000000000000000000000000000000000000000000000000 DUP2 MSTORE PUSH1 0x4 ADD PUSH2 0x6D9 SWAP1 PUSH2 0xAFA JUMP JUMPDEST PUSH1 0x40 MLOAD DUP1 SWAP2 SUB SWAP1 REVERT JUMPDEST POP POP POP JUMP JUMPDEST PUSH1 0x1 SLOAD DUP2 JUMP JUMPDEST PUSH1 0x0 DUP5 PUSH20 0xFFFFFFFFFFFFFFFFFFFFFFFFFFFFFFFFFFFFFFFF AND PUSH4 0x23B872DD DUP6 DUP6 DUP6 PUSH1 0x40 MLOAD DUP5 PUSH4 0xFFFFFFFF AND PUSH1 0xE0 SHL DUP2 MSTORE PUSH1 0x4 ADD PUSH2 0x72C SWAP4 SWAP3 SWAP2 SWAP1 PUSH2 0x9DF JUMP JUMPDEST PUSH1 0x20 PUSH1 0x40 MLOAD DUP1 DUP4 SUB DUP2 PUSH1 0x0 DUP8 DUP1 EXTCODESIZE ISZERO DUP1 ISZERO PUSH2 0x746 JUMPI PUSH1 0x0 DUP1 REVERT JUMPDEST POP GAS CALL ISZERO DUP1 ISZERO PUSH2 0x75A JUMPI RETURNDATASIZE PUSH1 0x0 DUP1 RETURNDATACOPY RETURNDATASIZE PUSH1 0x0 REVERT JUMPDEST POP POP POP POP PUSH1 0x40 MLOAD RETURNDATASIZE PUSH1 0x1F NOT PUSH1 0x1F DUP3 ADD AND DUP3 ADD DUP1 PUSH1 0x40 MSTORE POP DUP2 ADD SWAP1 PUSH2 0x77E SWAP2 SWAP1 PUSH2 0x806 JUMP JUMPDEST SWAP1 POP DUP1 PUSH2 0x7C0 JUMPI PUSH1 0x40 MLOAD PUSH32 0x8C379A000000000000000000000000000000000000000000000000000000000 DUP2 MSTORE PUSH1 0x4 ADD PUSH2 0x7B7 SWAP1 PUSH2 0xABA JUMP JUMPDEST PUSH1 0x40 MLOAD DUP1 SWAP2 SUB SWAP1 REVERT JUMPDEST POP POP POP POP POP JUMP JUMPDEST PUSH1 0x0 DUP2 MLOAD SWAP1 POP PUSH2 0x7D6 DUP2 PUSH2 0xDB6 JUMP JUMPDEST SWAP3 SWAP2 POP POP JUMP JUMPDEST PUSH1 0x0 DUP2 CALLDATALOAD SWAP1 POP PUSH2 0x7EB DUP2 PUSH2 0xDCD JUMP JUMPDEST SWAP3 SWAP2 POP POP JUMP JUMPDEST PUSH1 0x0 DUP2 MLOAD SWAP1 POP PUSH2 0x800 DUP2 PUSH2 0xDCD JUMP JUMPDEST SWAP3 SWAP2 POP POP JUMP JUMPDEST PUSH1 0x0 PUSH1 0x20 DUP3 DUP5 SUB SLT ISZERO PUSH2 0x81C JUMPI PUSH2 0x81B PUSH2 0xCB8 JUMP JUMPDEST JUMPDEST PUSH1 0x0 PUSH2 0x82A DUP5 DUP3 DUP6 ADD PUSH2 0x7C7 JUMP JUMPDEST SWAP2 POP POP SWAP3 SWAP2 POP POP JUMP JUMPDEST PUSH1 0x0 PUSH1 0x20 DUP3 DUP5 SUB SLT ISZERO PUSH2 0x849 JUMPI PUSH2 0x848 PUSH2 0xCB8 JUMP JUMPDEST JUMPDEST PUSH1 0x0 PUSH2 0x857 DUP5 DUP3 DUP6 ADD PUSH2 0x7DC JUMP JUMPDEST SWAP2 POP POP SWAP3 SWAP2 POP POP JUMP JUMPDEST PUSH1 0x0 PUSH1 0x20 DUP3 DUP5 SUB SLT ISZERO PUSH2 0x876 JUMPI PUSH2 0x875 PUSH2 0xCB8 JUMP JUMPDEST JUMPDEST PUSH1 0x0 PUSH2 0x884 DUP5 DUP3 DUP6 ADD PUSH2 0x7F1 JUMP JUMPDEST SWAP2 POP POP SWAP3 SWAP2 POP POP JUMP JUMPDEST PUSH2 0x896 DUP2 PUSH2 0xBDC JUMP JUMPDEST DUP3 MSTORE POP POP JUMP JUMPDEST PUSH2 0x8A5 DUP2 PUSH2 0xC24 JUMP JUMPDEST DUP3 MSTORE POP POP JUMP JUMPDEST PUSH1 0x0 PUSH2 0x8B8 PUSH1 0x14 DUP4 PUSH2 0xB40 JUMP JUMPDEST SWAP2 POP PUSH2 0x8C3 DUP3 PUSH2 0xCBD JUMP JUMPDEST PUSH1 0x20 DUP3 ADD SWAP1 POP SWAP2 SWAP1 POP JUMP JUMPDEST PUSH1 0x0 PUSH2 0x8DB PUSH1 0xA DUP4 PUSH2 0xB40 JUMP JUMPDEST SWAP2 POP PUSH2 0x8E6 DUP3 PUSH2 0xCE6 JUMP JUMPDEST PUSH1 0x20 DUP3 ADD SWAP1 POP SWAP2 SWAP1 POP JUMP JUMPDEST PUSH1 0x0 PUSH2 0x8FE PUSH1 0x8 DUP4 PUSH2 0xB40 JUMP JUMPDEST SWAP2 POP PUSH2 0x909 DUP3 PUSH2 0xD0F JUMP JUMPDEST PUSH1 0x20 DUP3 ADD SWAP1 POP SWAP2 SWAP1 POP JUMP JUMPDEST PUSH1 0x0 PUSH2 0x921 PUSH1 0x15 DUP4 PUSH2 0xB40 JUMP JUMPDEST SWAP2 POP PUSH2 0x92C DUP3 PUSH2 0xD38 JUMP JUMPDEST PUSH1 0x20 DUP3 ADD SWAP1 POP SWAP2 SWAP1 POP JUMP JUMPDEST PUSH1 0x0 PUSH2 0x944 PUSH1 0x1A DUP4 PUSH2 0xB40 JUMP JUMPDEST SWAP2 POP PUSH2 0x94F DUP3 PUSH2 0xD61 JUMP JUMPDEST PUSH1 0x20 DUP3 ADD SWAP1 POP SWAP2 SWAP1 POP JUMP JUMPDEST PUSH1 0x0 PUSH2 0x967 PUSH1 0x10 DUP4 PUSH2 0xB40 JUMP JUMPDEST SWAP2 POP PUSH2 0x972 DUP3 PUSH2 0xD8A JUMP JUMPDEST PUSH1 0x20 DUP3 ADD SWAP1 POP SWAP2 SWAP1 POP JUMP JUMPDEST PUSH1 0x0 PUSH2 0x98A PUSH1 0x0 DUP4 PUSH2 0xB35 JUMP JUMPDEST SWAP2 POP PUSH2 0x995 DUP3 PUSH2 0xDB3 JUMP JUMPDEST PUSH1 0x0 DUP3 ADD SWAP1 POP SWAP2 SWAP1 POP JUMP JUMPDEST PUSH2 0x9A9 DUP2 PUSH2 0xC1A JUMP JUMPDEST DUP3 MSTORE POP POP JUMP JUMPDEST PUSH1 0x0 PUSH2 0x9BA DUP3 PUSH2 0x97D JUMP JUMPDEST SWAP2 POP DUP2 SWAP1 POP SWAP2 SWAP1 POP JUMP JUMPDEST PUSH1 0x0 PUSH1 0x20 DUP3 ADD SWAP1 POP PUSH2 0x9D9 PUSH1 0x0 DUP4 ADD DUP5 PUSH2 0x88D JUMP JUMPDEST SWAP3 SWAP2 POP POP JUMP JUMPDEST PUSH1 0x0 PUSH1 0x60 DUP3 ADD SWAP1 POP PUSH2 0x9F4 PUSH1 0x0 DUP4 ADD DUP7 PUSH2 0x88D JUMP JUMPDEST PUSH2 0xA01 PUSH1 0x20 DUP4 ADD DUP6 PUSH2 0x88D JUMP JUMPDEST PUSH2 0xA0E PUSH1 0x40 DUP4 ADD DUP5 PUSH2 0x9A0 JUMP JUMPDEST SWAP5 SWAP4 POP POP POP POP JUMP JUMPDEST PUSH1 0x0 PUSH1 0x40 DUP3 ADD SWAP1 POP PUSH2 0xA2B PUSH1 0x0 DUP4 ADD DUP6 PUSH2 0x88D JUMP JUMPDEST PUSH2 0xA38 PUSH1 0x20 DUP4 ADD DUP5 PUSH2 0x9A0 JUMP JUMPDEST SWAP4 SWAP3 POP POP POP JUMP JUMPDEST PUSH1 0x0 PUSH1 0x20 DUP3 ADD SWAP1 POP PUSH2 0xA54 PUSH1 0x0 DUP4 ADD DUP5 PUSH2 0x89C JUMP JUMPDEST SWAP3 SWAP2 POP POP JUMP JUMPDEST PUSH1 0x0 PUSH1 0x20 DUP3 ADD SWAP1 POP DUP2 DUP2 SUB PUSH1 0x0 DUP4 ADD MSTORE PUSH2 0xA73 DUP2 PUSH2 0x8AB JUMP JUMPDEST SWAP1 POP SWAP2 SWAP1 POP JUMP JUMPDEST PUSH1 0x0 PUSH1 0x20 DUP3 ADD SWAP1 POP DUP2 DUP2 SUB PUSH1 0x0 DUP4 ADD MSTORE PUSH2 0xA93 DUP2 PUSH2 0x8CE JUMP JUMPDEST SWAP1 POP SWAP2 SWAP1 POP JUMP JUMPDEST PUSH1 0x0 PUSH1 0x20 DUP3 ADD SWAP1 POP DUP2 DUP2 SUB PUSH1 0x0 DUP4 ADD MSTORE PUSH2 0xAB3 DUP2 PUSH2 0x8F1 JUMP JUMPDEST SWAP1 POP SWAP2 SWAP1 POP JUMP JUMPDEST PUSH1 0x0 PUSH1 0x20 DUP3 ADD SWAP1 POP DUP2 DUP2 SUB PUSH1 0x0 DUP4 ADD MSTORE PUSH2 0xAD3 DUP2 PUSH2 0x914 JUMP JUMPDEST SWAP1 POP SWAP2 SWAP1 POP JUMP JUMPDEST PUSH1 0x0 PUSH1 0x20 DUP3 ADD SWAP1 POP DUP2 DUP2 SUB PUSH1 0x0 DUP4 ADD MSTORE PUSH2 0xAF3 DUP2 PUSH2 0x937 JUMP JUMPDEST SWAP1 POP SWAP2 SWAP1 POP JUMP JUMPDEST PUSH1 0x0 PUSH1 0x20 DUP3 ADD SWAP1 POP DUP2 DUP2 SUB PUSH1 0x0 DUP4 ADD MSTORE PUSH2 0xB13 DUP2 PUSH2 0x95A JUMP JUMPDEST SWAP1 POP SWAP2 SWAP1 POP JUMP JUMPDEST PUSH1 0x0 PUSH1 0x20 DUP3 ADD SWAP1 POP PUSH2 0xB2F PUSH1 0x0 DUP4 ADD DUP5 PUSH2 0x9A0 JUMP JUMPDEST SWAP3 SWAP2 POP POP JUMP JUMPDEST PUSH1 0x0 DUP2 SWAP1 POP SWAP3 SWAP2 POP POP JUMP JUMPDEST PUSH1 0x0 DUP3 DUP3 MSTORE PUSH1 0x20 DUP3 ADD SWAP1 POP SWAP3 SWAP2 POP POP JUMP JUMPDEST PUSH1 0x0 PUSH2 0xB5C DUP3 PUSH2 0xC1A JUMP JUMPDEST SWAP2 POP PUSH2 0xB67 DUP4 PUSH2 0xC1A JUMP JUMPDEST SWAP3 POP DUP3 PUSH2 0xB77 JUMPI PUSH2 0xB76 PUSH2 0xC89 JUMP JUMPDEST JUMPDEST DUP3 DUP3 DIV SWAP1 POP SWAP3 SWAP2 POP POP JUMP JUMPDEST PUSH1 0x0 PUSH2 0xB8D DUP3 PUSH2 0xC1A JUMP JUMPDEST SWAP2 POP PUSH2 0xB98 DUP4 PUSH2 0xC1A JUMP JUMPDEST SWAP3 POP DUP2 PUSH32 0xFFFFFFFFFFFFFFFFFFFFFFFFFFFFFFFFFFFFFFFFFFFFFFFFFFFFFFFFFFFFFFFF DIV DUP4 GT DUP3 ISZERO ISZERO AND ISZERO PUSH2 0xBD1 JUMPI PUSH2 0xBD0 PUSH2 0xC5A JUMP JUMPDEST JUMPDEST DUP3 DUP3 MUL SWAP1 POP SWAP3 SWAP2 POP POP JUMP JUMPDEST PUSH1 0x0 PUSH2 0xBE7 DUP3 PUSH2 0xBFA JUMP JUMPDEST SWAP1 POP SWAP2 SWAP1 POP JUMP JUMPDEST PUSH1 0x0 DUP2 ISZERO ISZERO SWAP1 POP SWAP2 SWAP1 POP JUMP JUMPDEST PUSH1 0x0 PUSH20 0xFFFFFFFFFFFFFFFFFFFFFFFFFFFFFFFFFFFFFFFF DUP3 AND SWAP1 POP SWAP2 SWAP1 POP JUMP JUMPDEST PUSH1 0x0 DUP2 SWAP1 POP SWAP2 SWAP1 POP JUMP JUMPDEST PUSH1 0x0 PUSH2 0xC2F DUP3 PUSH2 0xC36 JUMP JUMPDEST SWAP1 POP SWAP2 SWAP1 POP JUMP JUMPDEST PUSH1 0x0 PUSH2 0xC41 DUP3 PUSH2 0xC48 JUMP JUMPDEST SWAP1 POP SWAP2 SWAP1 POP JUMP JUMPDEST PUSH1 0x0 PUSH2 0xC53 DUP3 PUSH2 0xBFA JUMP JUMPDEST SWAP1 POP SWAP2 SWAP1 POP JUMP JUMPDEST PUSH32 0x4E487B7100000000000000000000000000000000000000000000000000000000 PUSH1 0x0 MSTORE PUSH1 0x11 PUSH1 0x4 MSTORE PUSH1 0x24 PUSH1 0x0 REVERT JUMPDEST PUSH32 0x4E487B7100000000000000000000000000000000000000000000000000000000 PUSH1 0x0 MSTORE PUSH1 0x12 PUSH1 0x4 MSTORE PUSH1 0x24 PUSH1 0x0 REVERT JUMPDEST PUSH1 0x0 DUP1 REVERT JUMPDEST PUSH32 0x4661696C656420746F2073656E64204574686572000000000000000000000000 PUSH1 0x0 DUP3 ADD MSTORE POP JUMP JUMPDEST PUSH32 0x4E6F7420656E6F75676800000000000000000000000000000000000000000000 PUSH1 0x0 DUP3 ADD MSTORE POP JUMP JUMPDEST PUSH32 0x6E6F746F776E6572000000000000000000000000000000000000000000000000 PUSH1 0x0 DUP3 ADD MSTORE POP JUMP JUMPDEST PUSH32 0x546F6B656E207472616E73666572206661696C65640000000000000000000000 PUSH1 0x0 DUP3 ADD MSTORE POP JUMP JUMPDEST PUSH32 0x4D696E696D756D20747261646520616D6F756E74203120626E62000000000000 PUSH1 0x0 DUP3 ADD MSTORE POP JUMP JUMPDEST PUSH32 0x5472616E73666572206661696C65642100000000000000000000000000000000 PUSH1 0x0 DUP3 ADD MSTORE POP JUMP JUMPDEST POP JUMP JUMPDEST PUSH2 0xDBF DUP2 PUSH2 0xBEE JUMP JUMPDEST DUP2 EQ PUSH2 0xDCA JUMPI PUSH1 0x0 DUP1 REVERT JUMPDEST POP JUMP JUMPDEST PUSH2 0xDD6 DUP2 PUSH2 0xC1A JUMP JUMPDEST DUP2 EQ PUSH2 0xDE1 JUMPI PUSH1 0x0 DUP1 REVERT JUMPDEST POP JUMP INVALID LOG2 PUSH5 0x6970667358 0x22 SLT KECCAK256 JUMPDEST 0xE2 0xED DUP14 CHAINID DIFFICULTY 0xDA 0xFB 0xF9 CHAINID 0xDE 0xC4 0xD9 0xEB 0x27 DUP10 PUSH6 0x9795D08485F3 0xE2 0x4C PUSH10 0x73B2E2112E0764736F6C PUSH4 0x43000807 STOP CALLER "
				},
				"gasEstimates": {
					"creation": {
						"codeDepositCost": "722000",
						"executionCost": "71400",
						"totalCost": "793400"
					},
					"external": {
						"BnbToSafuu()": "2517",
						"buySafuu(uint256)": "infinite",
						"safuu()": "2578",
						"sellSafuu(uint256)": "infinite",
						"setFactor(uint256)": "24731",
						"withdrawToOwner()": "infinite"
					},
					"internal": {
						"_safeTransferFrom(contract IERC20,address,address,uint256)": "infinite"
					}
				},
				"methodIdentifiers": {
					"BnbToSafuu()": "ebc4197c",
					"buySafuu(uint256)": "80c31426",
					"safuu()": "23b160ac",
					"sellSafuu(uint256)": "ade87ecc",
					"setFactor(uint256)": "817e9d31",
					"withdrawToOwner()": "3cb40e16"
				}
			},
			"userdoc": {
				"kind": "user",
				"methods": {},
				"version": 1
			}
		}
	}
}