{
	"sis.sol": {
		"personalSafuuTrader": {
			"abi": [
				{
					"inputs": [],
					"stateMutability": "nonpayable",
					"type": "constructor"
				},
				{
					"anonymous": false,
					"inputs": [
						{
							"indexed": true,
							"internalType": "address",
							"name": "previousOwner",
							"type": "address"
						},
						{
							"indexed": true,
							"internalType": "address",
							"name": "newOwner",
							"type": "address"
						}
					],
					"name": "OwnershipTransferred",
					"type": "event"
				},
				{
					"inputs": [],
					"name": "BnbToSafuu",
					"outputs": [
						{
							"internalType": "uint256",
							"name": "",
							"type": "uint256"
						}
					],
					"stateMutability": "view",
					"type": "function"
				},
				{
					"inputs": [],
					"name": "USDC",
					"outputs": [
						{
							"internalType": "contract IERC20",
							"name": "",
							"type": "address"
						}
					],
					"stateMutability": "view",
					"type": "function"
				},
				{
					"inputs": [
						{
							"internalType": "uint256",
							"name": "amttobuy",
							"type": "uint256"
						}
					],
					"name": "buySafuu",
					"outputs": [],
					"stateMutability": "payable",
					"type": "function"
				},
				{
					"inputs": [],
					"name": "getLatestPrice",
					"outputs": [
						{
							"internalType": "int256",
							"name": "",
							"type": "int256"
						}
					],
					"stateMutability": "view",
					"type": "function"
				},
				{
					"inputs": [],
					"name": "owner",
					"outputs": [
						{
							"internalType": "address",
							"name": "",
							"type": "address"
						}
					],
					"stateMutability": "view",
					"type": "function"
				},
				{
					"inputs": [],
					"name": "renounceOwnership",
					"outputs": [],
					"stateMutability": "nonpayable",
					"type": "function"
				},
				{
					"inputs": [],
					"name": "safuu",
					"outputs": [
						{
							"internalType": "contract IERC20",
							"name": "",
							"type": "address"
						}
					],
					"stateMutability": "view",
					"type": "function"
				},
				{
					"inputs": [
						{
							"internalType": "uint256",
							"name": "amttosell",
							"type": "uint256"
						}
					],
					"name": "sellSafuu",
					"outputs": [],
					"stateMutability": "nonpayable",
					"type": "function"
				},
				{
					"inputs": [
						{
							"internalType": "uint256",
							"name": "_newfactor",
							"type": "uint256"
						}
					],
					"name": "setFactor",
					"outputs": [],
					"stateMutability": "nonpayable",
					"type": "function"
				},
				{
					"inputs": [
						{
							"internalType": "address",
							"name": "newOwner",
							"type": "address"
						}
					],
					"name": "transferOwnership",
					"outputs": [],
					"stateMutability": "nonpayable",
					"type": "function"
				},
				{
					"inputs": [],
					"name": "withdrawToOwner",
					"outputs": [],
					"stateMutability": "nonpayable",
					"type": "function"
				}
			],
			"devdoc": {
				"kind": "dev",
				"methods": {
					"owner()": {
						"details": "Returns the address of the current owner."
					},
					"renounceOwnership()": {
						"details": "Leaves the contract without owner. It will not be possible to call `onlyOwner` functions anymore. Can only be called by the current owner. NOTE: Renouncing ownership will leave the contract without an owner, thereby removing any functionality that is only available to the owner."
					},
					"transferOwnership(address)": {
						"details": "Transfers ownership of the contract to a new account (`newOwner`). Can only be called by the current owner."
					}
				},
				"version": 1
			},
			"evm": {
				"assembly": "    /* \"sis.sol\":146:2677  contract personalSafuuTrader is Ownable\r... */\n  mstore(0x40, 0x80)\n    /* \"sis.sol\":418:747  constructor () {\r... */\n  callvalue\n  dup1\n  iszero\n  tag_1\n  jumpi\n  0x00\n  dup1\n  revert\ntag_1:\n  pop\n    /* \"Ownable.sol\":914:946  _transferOwnership(_msgSender()) */\n  tag_5\n    /* \"Ownable.sol\":933:945  _msgSender() */\n  tag_6\n    /* \"Ownable.sol\":933:943  _msgSender */\n  shl(0x20, tag_7)\n    /* \"Ownable.sol\":933:945  _msgSender() */\n  0x20\n  shr\n  jump\t// in\ntag_6:\n    /* \"Ownable.sol\":914:932  _transferOwnership */\n  shl(0x20, tag_8)\n    /* \"Ownable.sol\":914:946  _transferOwnership(_msgSender()) */\n  0x20\n  shr\n  jump\t// in\ntag_5:\n    /* \"sis.sol\":451:457  100000 */\n  0x0186a0\n    /* \"sis.sol\":438:448  BnbToSafuu */\n  0x02\n    /* \"sis.sol\":438:457  BnbToSafuu = 100000 */\n  dup2\n  swap1\n  sstore\n  pop\n    /* \"sis.sol\":477:519  0xE5bA47fD94CB645ba4119222e34fB33F59C7CD90 */\n  0xe5ba47fd94cb645ba4119222e34fb33f59c7cd90\n    /* \"sis.sol\":462:467  safuu */\n  0x03\n  0x00\n    /* \"sis.sol\":462:520  safuu = IERC20(0xE5bA47fD94CB645ba4119222e34fB33F59C7CD90) */\n  0x0100\n  exp\n  dup2\n  sload\n  dup2\n  0xffffffffffffffffffffffffffffffffffffffff\n  mul\n  not\n  and\n  swap1\n  dup4\n  0xffffffffffffffffffffffffffffffffffffffff\n  and\n  mul\n  or\n  swap1\n  sstore\n  pop\n    /* \"sis.sol\":539:581  0x8AC76a51cc950d9822D68b83fE1Ad97B32Cd580d */\n  0x8ac76a51cc950d9822d68b83fe1ad97b32cd580d\n    /* \"sis.sol\":525:529  USDC */\n  0x04\n  0x00\n    /* \"sis.sol\":525:582  USDC = IERC20(0x8AC76a51cc950d9822D68b83fE1Ad97B32Cd580d) */\n  0x0100\n  exp\n  dup2\n  sload\n  dup2\n  0xffffffffffffffffffffffffffffffffffffffff\n  mul\n  not\n  and\n  swap1\n  dup4\n  0xffffffffffffffffffffffffffffffffffffffff\n  and\n  mul\n  or\n  swap1\n  sstore\n  pop\n    /* \"sis.sol\":698:740  0x9326BFA02ADD2366b30bacB125260Af641031331 */\n  0x9326bfa02add2366b30bacb125260af641031331\n    /* \"sis.sol\":664:673  priceFeed */\n  0x01\n  0x00\n    /* \"sis.sol\":664:741  priceFeed = AggregatorV3Interface(0x9326BFA02ADD2366b30bacB125260Af641031331) */\n  0x0100\n  exp\n  dup2\n  sload\n  dup2\n  0xffffffffffffffffffffffffffffffffffffffff\n  mul\n  not\n  and\n  swap1\n  dup4\n  0xffffffffffffffffffffffffffffffffffffffff\n  and\n  mul\n  or\n  swap1\n  sstore\n  pop\n    /* \"sis.sol\":146:2677  contract personalSafuuTrader is Ownable\r... */\n  jump(tag_10)\n    /* \"Context.sol\":640:736  function _msgSender() internal view virtual returns (address) {... */\ntag_7:\n    /* \"Context.sol\":693:700  address */\n  0x00\n    /* \"Context.sol\":719:729  msg.sender */\n  caller\n    /* \"Context.sol\":712:729  return msg.sender */\n  swap1\n  pop\n    /* \"Context.sol\":640:736  function _msgSender() internal view virtual returns (address) {... */\n  swap1\n  jump\t// out\n    /* \"Ownable.sol\":2263:2450  function _transferOwnership(address newOwner) internal virtual {... */\ntag_8:\n    /* \"Ownable.sol\":2336:2352  address oldOwner */\n  0x00\n    /* \"Ownable.sol\":2355:2361  _owner */\n  dup1\n  0x00\n  swap1\n  sload\n  swap1\n  0x0100\n  exp\n  swap1\n  div\n  0xffffffffffffffffffffffffffffffffffffffff\n  and\n    /* \"Ownable.sol\":2336:2361  address oldOwner = _owner */\n  swap1\n  pop\n    /* \"Ownable.sol\":2380:2388  newOwner */\n  dup2\n    /* \"Ownable.sol\":2371:2377  _owner */\n  0x00\n  dup1\n    /* \"Ownable.sol\":2371:2388  _owner = newOwner */\n  0x0100\n  exp\n  dup2\n  sload\n  dup2\n  0xffffffffffffffffffffffffffffffffffffffff\n  mul\n  not\n  and\n  swap1\n  dup4\n  0xffffffffffffffffffffffffffffffffffffffff\n  and\n  mul\n  or\n  swap1\n  sstore\n  pop\n    /* \"Ownable.sol\":2434:2442  newOwner */\n  dup2\n    /* \"Ownable.sol\":2403:2443  OwnershipTransferred(oldOwner, newOwner) */\n  0xffffffffffffffffffffffffffffffffffffffff\n  and\n    /* \"Ownable.sol\":2424:2432  oldOwner */\n  dup2\n    /* \"Ownable.sol\":2403:2443  OwnershipTransferred(oldOwner, newOwner) */\n  0xffffffffffffffffffffffffffffffffffffffff\n  and\n  0x8be0079c531659141344cd1fd0a4f28419497f9722a3daafe3b4186f6b6457e0\n  mload(0x40)\n  mload(0x40)\n  dup1\n  swap2\n  sub\n  swap1\n  log3\n    /* \"Ownable.sol\":2326:2450  {... */\n  pop\n    /* \"Ownable.sol\":2263:2450  function _transferOwnership(address newOwner) internal virtual {... */\n  pop\n  jump\t// out\n    /* \"sis.sol\":146:2677  contract personalSafuuTrader is Ownable\r... */\ntag_10:\n  dataSize(sub_0)\n  dup1\n  dataOffset(sub_0)\n  0x00\n  codecopy\n  0x00\n  return\nstop\n\nsub_0: assembly {\n        /* \"sis.sol\":146:2677  contract personalSafuuTrader is Ownable\r... */\n      mstore(0x40, 0x80)\n      jumpi(tag_1, lt(calldatasize, 0x04))\n      shr(0xe0, calldataload(0x00))\n      dup1\n      0x89a30271\n      gt\n      tag_13\n      jumpi\n      dup1\n      0x89a30271\n      eq\n      tag_7\n      jumpi\n      dup1\n      0x8da5cb5b\n      eq\n      tag_8\n      jumpi\n      dup1\n      0x8e15f473\n      eq\n      tag_9\n      jumpi\n      dup1\n      0xade87ecc\n      eq\n      tag_10\n      jumpi\n      dup1\n      0xebc4197c\n      eq\n      tag_11\n      jumpi\n      dup1\n      0xf2fde38b\n      eq\n      tag_12\n      jumpi\n      jump(tag_1)\n    tag_13:\n      dup1\n      0x23b160ac\n      eq\n      tag_2\n      jumpi\n      dup1\n      0x3cb40e16\n      eq\n      tag_3\n      jumpi\n      dup1\n      0x715018a6\n      eq\n      tag_4\n      jumpi\n      dup1\n      0x80c31426\n      eq\n      tag_5\n      jumpi\n      dup1\n      0x817e9d31\n      eq\n      tag_6\n      jumpi\n    tag_1:\n      0x00\n      dup1\n      revert\n        /* \"sis.sol\":305:324  IERC20 public safuu */\n    tag_2:\n      callvalue\n      dup1\n      iszero\n      tag_14\n      jumpi\n      0x00\n      dup1\n      revert\n    tag_14:\n      pop\n      tag_15\n      tag_16\n      jump\t// in\n    tag_15:\n      mload(0x40)\n      tag_17\n      swap2\n      swap1\n      tag_18\n      jump\t// in\n    tag_17:\n      mload(0x40)\n      dup1\n      swap2\n      sub\n      swap1\n      return\n        /* \"sis.sol\":2043:2400  function withdrawToOwner()\r... */\n    tag_3:\n      callvalue\n      dup1\n      iszero\n      tag_19\n      jumpi\n      0x00\n      dup1\n      revert\n    tag_19:\n      pop\n      tag_20\n      tag_21\n      jump\t// in\n    tag_20:\n      stop\n        /* \"Ownable.sol\":1661:1762  function renounceOwnership() public virtual onlyOwner {... */\n    tag_4:\n      callvalue\n      dup1\n      iszero\n      tag_22\n      jumpi\n      0x00\n      dup1\n      revert\n    tag_22:\n      pop\n      tag_23\n      tag_24\n      jump\t// in\n    tag_23:\n      stop\n        /* \"sis.sol\":753:1194  function buySafuu(uint256 amttobuy) public payable\r... */\n    tag_5:\n      tag_25\n      0x04\n      dup1\n      calldatasize\n      sub\n      dup2\n      add\n      swap1\n      tag_26\n      swap2\n      swap1\n      tag_27\n      jump\t// in\n    tag_26:\n      tag_28\n      jump\t// in\n    tag_25:\n      stop\n        /* \"sis.sol\":1929:2037  function setFactor(uint256 _newfactor) public onlyOwner {\r... */\n    tag_6:\n      callvalue\n      dup1\n      iszero\n      tag_29\n      jumpi\n      0x00\n      dup1\n      revert\n    tag_29:\n      pop\n      tag_30\n      0x04\n      dup1\n      calldatasize\n      sub\n      dup2\n      add\n      swap1\n      tag_31\n      swap2\n      swap1\n      tag_27\n      jump\t// in\n    tag_31:\n      tag_32\n      jump\t// in\n    tag_30:\n      stop\n        /* \"sis.sol\":331:349  IERC20 public USDC */\n    tag_7:\n      callvalue\n      dup1\n      iszero\n      tag_33\n      jumpi\n      0x00\n      dup1\n      revert\n    tag_33:\n      pop\n      tag_34\n      tag_35\n      jump\t// in\n    tag_34:\n      mload(0x40)\n      tag_36\n      swap2\n      swap1\n      tag_18\n      jump\t// in\n    tag_36:\n      mload(0x40)\n      dup1\n      swap2\n      sub\n      swap1\n      return\n        /* \"Ownable.sol\":1029:1114  function owner() public view virtual returns (address) {... */\n    tag_8:\n      callvalue\n      dup1\n      iszero\n      tag_37\n      jumpi\n      0x00\n      dup1\n      revert\n    tag_37:\n      pop\n      tag_38\n      tag_39\n      jump\t// in\n    tag_38:\n      mload(0x40)\n      tag_40\n      swap2\n      swap1\n      tag_41\n      jump\t// in\n    tag_40:\n      mload(0x40)\n      dup1\n      swap2\n      sub\n      swap1\n      return\n        /* \"sis.sol\":1200:1484  function getLatestPrice() public view returns (int) {\r... */\n    tag_9:\n      callvalue\n      dup1\n      iszero\n      tag_42\n      jumpi\n      0x00\n      dup1\n      revert\n    tag_42:\n      pop\n      tag_43\n      tag_44\n      jump\t// in\n    tag_43:\n      mload(0x40)\n      tag_45\n      swap2\n      swap1\n      tag_46\n      jump\t// in\n    tag_45:\n      mload(0x40)\n      dup1\n      swap2\n      sub\n      swap1\n      return\n        /* \"sis.sol\":1490:1919  function sellSafuu(uint256 amttosell) public \r... */\n    tag_10:\n      callvalue\n      dup1\n      iszero\n      tag_47\n      jumpi\n      0x00\n      dup1\n      revert\n    tag_47:\n      pop\n      tag_48\n      0x04\n      dup1\n      calldatasize\n      sub\n      dup2\n      add\n      swap1\n      tag_49\n      swap2\n      swap1\n      tag_27\n      jump\t// in\n    tag_49:\n      tag_50\n      jump\t// in\n    tag_48:\n      stop\n        /* \"sis.sol\":271:297  uint256  public BnbToSafuu */\n    tag_11:\n      callvalue\n      dup1\n      iszero\n      tag_51\n      jumpi\n      0x00\n      dup1\n      revert\n    tag_51:\n      pop\n      tag_52\n      tag_53\n      jump\t// in\n    tag_52:\n      mload(0x40)\n      tag_54\n      swap2\n      swap1\n      tag_55\n      jump\t// in\n    tag_54:\n      mload(0x40)\n      dup1\n      swap2\n      sub\n      swap1\n      return\n        /* \"Ownable.sol\":1911:2109  function transferOwnership(address newOwner) public virtual onlyOwner {... */\n    tag_12:\n      callvalue\n      dup1\n      iszero\n      tag_56\n      jumpi\n      0x00\n      dup1\n      revert\n    tag_56:\n      pop\n      tag_57\n      0x04\n      dup1\n      calldatasize\n      sub\n      dup2\n      add\n      swap1\n      tag_58\n      swap2\n      swap1\n      tag_59\n      jump\t// in\n    tag_58:\n      tag_60\n      jump\t// in\n    tag_57:\n      stop\n        /* \"sis.sol\":305:324  IERC20 public safuu */\n    tag_16:\n      0x03\n      0x00\n      swap1\n      sload\n      swap1\n      0x0100\n      exp\n      swap1\n      div\n      0xffffffffffffffffffffffffffffffffffffffff\n      and\n      dup2\n      jump\t// out\n        /* \"sis.sol\":2043:2400  function withdrawToOwner()\r... */\n    tag_21:\n        /* \"sis.sol\":2211:2223  bool success */\n      0x00\n        /* \"sis.sol\":2229:2236  owner() */\n      tag_62\n        /* \"sis.sol\":2229:2234  owner */\n      tag_39\n        /* \"sis.sol\":2229:2236  owner() */\n      jump\t// in\n    tag_62:\n        /* \"sis.sol\":2229:2241  owner().call */\n      0xffffffffffffffffffffffffffffffffffffffff\n      and\n        /* \"sis.sol\":2249:2270  address(this).balance */\n      selfbalance\n        /* \"sis.sol\":2229:2275  owner().call{value: address(this).balance}(\"\") */\n      mload(0x40)\n      tag_63\n      swap1\n      tag_64\n      jump\t// in\n    tag_63:\n      0x00\n      mload(0x40)\n      dup1\n      dup4\n      sub\n      dup2\n      dup6\n      dup8\n      gas\n      call\n      swap3\n      pop\n      pop\n      pop\n      returndatasize\n      dup1\n      0x00\n      dup2\n      eq\n      tag_67\n      jumpi\n      mload(0x40)\n      swap2\n      pop\n      and(add(returndatasize, 0x3f), not(0x1f))\n      dup3\n      add\n      0x40\n      mstore\n      returndatasize\n      dup3\n      mstore\n      returndatasize\n      0x00\n      0x20\n      dup5\n      add\n      returndatacopy\n      jump(tag_66)\n    tag_67:\n      0x60\n      swap2\n      pop\n    tag_66:\n      pop\n        /* \"sis.sol\":2210:2275  (bool success, ) = owner().call{value: address(this).balance}(\"\") */\n      pop\n      swap1\n      pop\n        /* \"sis.sol\":2294:2301  success */\n      dup1\n        /* \"sis.sol\":2286:2326  require(success, \"Failed to send Ether\") */\n      tag_68\n      jumpi\n      mload(0x40)\n      0x08c379a000000000000000000000000000000000000000000000000000000000\n      dup2\n      mstore\n      0x04\n      add\n      tag_69\n      swap1\n      tag_70\n      jump\t// in\n    tag_69:\n      mload(0x40)\n      dup1\n      swap2\n      sub\n      swap1\n      revert\n    tag_68:\n        /* \"sis.sol\":2337:2342  safuu */\n      0x03\n      0x00\n      swap1\n      sload\n      swap1\n      0x0100\n      exp\n      swap1\n      div\n      0xffffffffffffffffffffffffffffffffffffffff\n      and\n        /* \"sis.sol\":2337:2351  safuu.transfer */\n      0xffffffffffffffffffffffffffffffffffffffff\n      and\n      0xa9059cbb\n        /* \"sis.sol\":2352:2359  owner() */\n      tag_71\n        /* \"sis.sol\":2352:2357  owner */\n      tag_39\n        /* \"sis.sol\":2352:2359  owner() */\n      jump\t// in\n    tag_71:\n        /* \"sis.sol\":2361:2366  safuu */\n      0x03\n      0x00\n      swap1\n      sload\n      swap1\n      0x0100\n      exp\n      swap1\n      div\n      0xffffffffffffffffffffffffffffffffffffffff\n      and\n        /* \"sis.sol\":2361:2376  safuu.balanceOf */\n      0xffffffffffffffffffffffffffffffffffffffff\n      and\n      0x70a08231\n        /* \"sis.sol\":2385:2389  this */\n      address\n        /* \"sis.sol\":2361:2391  safuu.balanceOf(address(this)) */\n      mload(0x40)\n      dup3\n      0xffffffff\n      and\n      0xe0\n      shl\n      dup2\n      mstore\n      0x04\n      add\n      tag_72\n      swap2\n      swap1\n      tag_41\n      jump\t// in\n    tag_72:\n      0x20\n      mload(0x40)\n      dup1\n      dup4\n      sub\n      dup2\n      dup7\n      dup1\n      extcodesize\n      iszero\n      dup1\n      iszero\n      tag_73\n      jumpi\n      0x00\n      dup1\n      revert\n    tag_73:\n      pop\n      gas\n      staticcall\n      iszero\n      dup1\n      iszero\n      tag_75\n      jumpi\n      returndatasize\n      0x00\n      dup1\n      returndatacopy\n      revert(0x00, returndatasize)\n    tag_75:\n      pop\n      pop\n      pop\n      pop\n      mload(0x40)\n      returndatasize\n      not(0x1f)\n      0x1f\n      dup3\n      add\n      and\n      dup3\n      add\n      dup1\n      0x40\n      mstore\n      pop\n      dup2\n      add\n      swap1\n      tag_76\n      swap2\n      swap1\n      tag_77\n      jump\t// in\n    tag_76:\n        /* \"sis.sol\":2337:2392  safuu.transfer(owner(), safuu.balanceOf(address(this))) */\n      mload(0x40)\n      dup4\n      0xffffffff\n      and\n      0xe0\n      shl\n      dup2\n      mstore\n      0x04\n      add\n      tag_78\n      swap3\n      swap2\n      swap1\n      tag_79\n      jump\t// in\n    tag_78:\n      0x20\n      mload(0x40)\n      dup1\n      dup4\n      sub\n      dup2\n      0x00\n      dup8\n      dup1\n      extcodesize\n      iszero\n      dup1\n      iszero\n      tag_80\n      jumpi\n      0x00\n      dup1\n      revert\n    tag_80:\n      pop\n      gas\n      call\n      iszero\n      dup1\n      iszero\n      tag_82\n      jumpi\n      returndatasize\n      0x00\n      dup1\n      returndatacopy\n      revert(0x00, returndatasize)\n    tag_82:\n      pop\n      pop\n      pop\n      pop\n      mload(0x40)\n      returndatasize\n      not(0x1f)\n      0x1f\n      dup3\n      add\n      and\n      dup3\n      add\n      dup1\n      0x40\n      mstore\n      pop\n      dup2\n      add\n      swap1\n      tag_83\n      swap2\n      swap1\n      tag_84\n      jump\t// in\n    tag_83:\n      pop\n        /* \"sis.sol\":2088:2400  { \r... */\n      pop\n        /* \"sis.sol\":2043:2400  function withdrawToOwner()\r... */\n      jump\t// out\n        /* \"Ownable.sol\":1661:1762  function renounceOwnership() public virtual onlyOwner {... */\n    tag_24:\n        /* \"Ownable.sol\":1252:1264  _msgSender() */\n      tag_86\n        /* \"Ownable.sol\":1252:1262  _msgSender */\n      tag_87\n        /* \"Ownable.sol\":1252:1264  _msgSender() */\n      jump\t// in\n    tag_86:\n        /* \"Ownable.sol\":1241:1264  owner() == _msgSender() */\n      0xffffffffffffffffffffffffffffffffffffffff\n      and\n        /* \"Ownable.sol\":1241:1248  owner() */\n      tag_88\n        /* \"Ownable.sol\":1241:1246  owner */\n      tag_39\n        /* \"Ownable.sol\":1241:1248  owner() */\n      jump\t// in\n    tag_88:\n        /* \"Ownable.sol\":1241:1264  owner() == _msgSender() */\n      0xffffffffffffffffffffffffffffffffffffffff\n      and\n      eq\n        /* \"Ownable.sol\":1233:1301  require(owner() == _msgSender(), \"Ownable: caller is not the owner\") */\n      tag_89\n      jumpi\n      mload(0x40)\n      0x08c379a000000000000000000000000000000000000000000000000000000000\n      dup2\n      mstore\n      0x04\n      add\n      tag_90\n      swap1\n      tag_91\n      jump\t// in\n    tag_90:\n      mload(0x40)\n      dup1\n      swap2\n      sub\n      swap1\n      revert\n    tag_89:\n        /* \"Ownable.sol\":1725:1755  _transferOwnership(address(0)) */\n      tag_93\n        /* \"Ownable.sol\":1752:1753  0 */\n      0x00\n        /* \"Ownable.sol\":1725:1743  _transferOwnership */\n      tag_94\n        /* \"Ownable.sol\":1725:1755  _transferOwnership(address(0)) */\n      jump\t// in\n    tag_93:\n        /* \"Ownable.sol\":1661:1762  function renounceOwnership() public virtual onlyOwner {... */\n      jump\t// out\n        /* \"sis.sol\":753:1194  function buySafuu(uint256 amttobuy) public payable\r... */\n    tag_28:\n        /* \"sis.sol\":840:850  BnbToSafuu */\n      sload(0x02)\n        /* \"sis.sol\":828:836  amttobuy */\n      dup2\n        /* \"sis.sol\":828:850  amttobuy >= BnbToSafuu */\n      lt\n      iszero\n        /* \"sis.sol\":820:881  require(amttobuy >= BnbToSafuu, \"Minimum trade amount 1 bnb\") */\n      tag_96\n      jumpi\n      mload(0x40)\n      0x08c379a000000000000000000000000000000000000000000000000000000000\n      dup2\n      mstore\n      0x04\n      add\n      tag_97\n      swap1\n      tag_98\n      jump\t// in\n    tag_97:\n      mload(0x40)\n      dup1\n      swap2\n      sub\n      swap1\n      revert\n    tag_96:\n        /* \"sis.sol\":892:910  uint256 payableAmt */\n      0x00\n        /* \"sis.sol\":971:977  10**18 */\n      0x0de0b6b3a7640000\n        /* \"sis.sol\":957:967  BnbToSafuu */\n      sload(0x02)\n        /* \"sis.sol\":948:956  amttobuy */\n      dup4\n        /* \"sis.sol\":948:967  amttobuy/BnbToSafuu */\n      tag_99\n      swap2\n      swap1\n      tag_100\n      jump\t// in\n    tag_99:\n        /* \"sis.sol\":947:978  (amttobuy/BnbToSafuu) *(10**18) */\n      tag_101\n      swap2\n      swap1\n      tag_102\n      jump\t// in\n    tag_101:\n        /* \"sis.sol\":934:978  payableAmt = (amttobuy/BnbToSafuu) *(10**18) */\n      swap1\n      pop\n        /* \"sis.sol\":990:1002  bool success */\n      0x00\n        /* \"sis.sol\":1008:1015  owner() */\n      tag_103\n        /* \"sis.sol\":1008:1013  owner */\n      tag_39\n        /* \"sis.sol\":1008:1015  owner() */\n      jump\t// in\n    tag_103:\n        /* \"sis.sol\":1008:1020  owner().call */\n      0xffffffffffffffffffffffffffffffffffffffff\n      and\n        /* \"sis.sol\":1028:1038  payableAmt */\n      dup3\n        /* \"sis.sol\":1008:1043  owner().call{value: payableAmt}(\"\") */\n      mload(0x40)\n      tag_104\n      swap1\n      tag_64\n      jump\t// in\n    tag_104:\n      0x00\n      mload(0x40)\n      dup1\n      dup4\n      sub\n      dup2\n      dup6\n      dup8\n      gas\n      call\n      swap3\n      pop\n      pop\n      pop\n      returndatasize\n      dup1\n      0x00\n      dup2\n      eq\n      tag_107\n      jumpi\n      mload(0x40)\n      swap2\n      pop\n      and(add(returndatasize, 0x3f), not(0x1f))\n      dup3\n      add\n      0x40\n      mstore\n      returndatasize\n      dup3\n      mstore\n      returndatasize\n      0x00\n      0x20\n      dup5\n      add\n      returndatacopy\n      jump(tag_106)\n    tag_107:\n      0x60\n      swap2\n      pop\n    tag_106:\n      pop\n        /* \"sis.sol\":989:1043  (bool success, ) = owner().call{value: payableAmt}(\"\") */\n      pop\n      swap1\n      pop\n        /* \"sis.sol\":1062:1069  success */\n      dup1\n        /* \"sis.sol\":1054:1090  require(success, \"Transfer failed!\") */\n      tag_108\n      jumpi\n      mload(0x40)\n      0x08c379a000000000000000000000000000000000000000000000000000000000\n      dup2\n      mstore\n      0x04\n      add\n      tag_109\n      swap1\n      tag_110\n      jump\t// in\n    tag_109:\n      mload(0x40)\n      dup1\n      swap2\n      sub\n      swap1\n      revert\n    tag_108:\n        /* \"sis.sol\":1141:1146  safuu */\n      0x03\n      0x00\n      swap1\n      sload\n      swap1\n      0x0100\n      exp\n      swap1\n      div\n      0xffffffffffffffffffffffffffffffffffffffff\n      and\n        /* \"sis.sol\":1141:1155  safuu.transfer */\n      0xffffffffffffffffffffffffffffffffffffffff\n      and\n      0xa9059cbb\n        /* \"sis.sol\":1156:1166  msg.sender */\n      caller\n        /* \"sis.sol\":1168:1176  amttobuy */\n      dup6\n        /* \"sis.sol\":1141:1177  safuu.transfer(msg.sender, amttobuy) */\n      mload(0x40)\n      dup4\n      0xffffffff\n      and\n      0xe0\n      shl\n      dup2\n      mstore\n      0x04\n      add\n      tag_111\n      swap3\n      swap2\n      swap1\n      tag_79\n      jump\t// in\n    tag_111:\n      0x20\n      mload(0x40)\n      dup1\n      dup4\n      sub\n      dup2\n      0x00\n      dup8\n      dup1\n      extcodesize\n      iszero\n      dup1\n      iszero\n      tag_112\n      jumpi\n      0x00\n      dup1\n      revert\n    tag_112:\n      pop\n      gas\n      call\n      iszero\n      dup1\n      iszero\n      tag_114\n      jumpi\n      returndatasize\n      0x00\n      dup1\n      returndatacopy\n      revert(0x00, returndatasize)\n    tag_114:\n      pop\n      pop\n      pop\n      pop\n      mload(0x40)\n      returndatasize\n      not(0x1f)\n      0x1f\n      dup3\n      add\n      and\n      dup3\n      add\n      dup1\n      0x40\n      mstore\n      pop\n      dup2\n      add\n      swap1\n      tag_115\n      swap2\n      swap1\n      tag_84\n      jump\t// in\n    tag_115:\n      pop\n        /* \"sis.sol\":809:1194  {\r... */\n      pop\n      pop\n        /* \"sis.sol\":753:1194  function buySafuu(uint256 amttobuy) public payable\r... */\n      pop\n      jump\t// out\n        /* \"sis.sol\":1929:2037  function setFactor(uint256 _newfactor) public onlyOwner {\r... */\n    tag_32:\n        /* \"Ownable.sol\":1252:1264  _msgSender() */\n      tag_117\n        /* \"Ownable.sol\":1252:1262  _msgSender */\n      tag_87\n        /* \"Ownable.sol\":1252:1264  _msgSender() */\n      jump\t// in\n    tag_117:\n        /* \"Ownable.sol\":1241:1264  owner() == _msgSender() */\n      0xffffffffffffffffffffffffffffffffffffffff\n      and\n        /* \"Ownable.sol\":1241:1248  owner() */\n      tag_118\n        /* \"Ownable.sol\":1241:1246  owner */\n      tag_39\n        /* \"Ownable.sol\":1241:1248  owner() */\n      jump\t// in\n    tag_118:\n        /* \"Ownable.sol\":1241:1264  owner() == _msgSender() */\n      0xffffffffffffffffffffffffffffffffffffffff\n      and\n      eq\n        /* \"Ownable.sol\":1233:1301  require(owner() == _msgSender(), \"Ownable: caller is not the owner\") */\n      tag_119\n      jumpi\n      mload(0x40)\n      0x08c379a000000000000000000000000000000000000000000000000000000000\n      dup2\n      mstore\n      0x04\n      add\n      tag_120\n      swap1\n      tag_91\n      jump\t// in\n    tag_120:\n      mload(0x40)\n      dup1\n      swap2\n      sub\n      swap1\n      revert\n    tag_119:\n        /* \"sis.sol\":2019:2029  _newfactor */\n      dup1\n        /* \"sis.sol\":2006:2016  BnbToSafuu */\n      0x02\n        /* \"sis.sol\":2006:2029  BnbToSafuu = _newfactor */\n      dup2\n      swap1\n      sstore\n      pop\n        /* \"sis.sol\":1929:2037  function setFactor(uint256 _newfactor) public onlyOwner {\r... */\n      pop\n      jump\t// out\n        /* \"sis.sol\":331:349  IERC20 public USDC */\n    tag_35:\n      0x04\n      0x00\n      swap1\n      sload\n      swap1\n      0x0100\n      exp\n      swap1\n      div\n      0xffffffffffffffffffffffffffffffffffffffff\n      and\n      dup2\n      jump\t// out\n        /* \"Ownable.sol\":1029:1114  function owner() public view virtual returns (address) {... */\n    tag_39:\n        /* \"Ownable.sol\":1075:1082  address */\n      0x00\n        /* \"Ownable.sol\":1101:1107  _owner */\n      dup1\n      0x00\n      swap1\n      sload\n      swap1\n      0x0100\n      exp\n      swap1\n      div\n      0xffffffffffffffffffffffffffffffffffffffff\n      and\n        /* \"Ownable.sol\":1094:1107  return _owner */\n      swap1\n      pop\n        /* \"Ownable.sol\":1029:1114  function owner() public view virtual returns (address) {... */\n      swap1\n      jump\t// out\n        /* \"sis.sol\":1200:1484  function getLatestPrice() public view returns (int) {\r... */\n    tag_44:\n        /* \"sis.sol\":1247:1250  int */\n      0x00\n        /* \"sis.sol\":1278:1292  uint80 roundID */\n      dup1\n        /* \"sis.sol\":1308:1317  int price */\n      0x00\n        /* \"sis.sol\":1332:1346  uint startedAt */\n      dup1\n        /* \"sis.sol\":1361:1375  uint timeStamp */\n      0x00\n        /* \"sis.sol\":1390:1412  uint80 answeredInRound */\n      dup1\n        /* \"sis.sol\":1426:1435  priceFeed */\n      0x01\n      0x00\n      swap1\n      sload\n      swap1\n      0x0100\n      exp\n      swap1\n      div\n      0xffffffffffffffffffffffffffffffffffffffff\n      and\n        /* \"sis.sol\":1426:1451  priceFeed.latestRoundData */\n      0xffffffffffffffffffffffffffffffffffffffff\n      and\n      0xfeaf968c\n        /* \"sis.sol\":1426:1453  priceFeed.latestRoundData() */\n      mload(0x40)\n      dup2\n      0xffffffff\n      and\n      0xe0\n      shl\n      dup2\n      mstore\n      0x04\n      add\n      0xa0\n      mload(0x40)\n      dup1\n      dup4\n      sub\n      dup2\n      dup7\n      dup1\n      extcodesize\n      iszero\n      dup1\n      iszero\n      tag_124\n      jumpi\n      0x00\n      dup1\n      revert\n    tag_124:\n      pop\n      gas\n      staticcall\n      iszero\n      dup1\n      iszero\n      tag_126\n      jumpi\n      returndatasize\n      0x00\n      dup1\n      returndatacopy\n      revert(0x00, returndatasize)\n    tag_126:\n      pop\n      pop\n      pop\n      pop\n      mload(0x40)\n      returndatasize\n      not(0x1f)\n      0x1f\n      dup3\n      add\n      and\n      dup3\n      add\n      dup1\n      0x40\n      mstore\n      pop\n      dup2\n      add\n      swap1\n      tag_127\n      swap2\n      swap1\n      tag_128\n      jump\t// in\n    tag_127:\n        /* \"sis.sol\":1263:1453  (\r... */\n      swap5\n      pop\n      swap5\n      pop\n      swap5\n      pop\n      swap5\n      pop\n      swap5\n      pop\n        /* \"sis.sol\":1471:1476  price */\n      dup4\n        /* \"sis.sol\":1464:1476  return price */\n      swap6\n      pop\n      pop\n      pop\n      pop\n      pop\n      pop\n        /* \"sis.sol\":1200:1484  function getLatestPrice() public view returns (int) {\r... */\n      swap1\n      jump\t// out\n        /* \"sis.sol\":1490:1919  function sellSafuu(uint256 amttosell) public \r... */\n    tag_50:\n        /* \"sis.sol\":1573:1583  BnbToSafuu */\n      sload(0x02)\n        /* \"sis.sol\":1560:1569  amttosell */\n      dup2\n        /* \"sis.sol\":1560:1583  amttosell == BnbToSafuu */\n      eq\n        /* \"sis.sol\":1552:1607  require(amttosell == BnbToSafuu, \"Must be 1 bnb worth\") */\n      tag_130\n      jumpi\n      mload(0x40)\n      0x08c379a000000000000000000000000000000000000000000000000000000000\n      dup2\n      mstore\n      0x04\n      add\n      tag_131\n      swap1\n      tag_132\n      jump\t// in\n    tag_131:\n      mload(0x40)\n      dup1\n      swap2\n      sub\n      swap1\n      revert\n    tag_130:\n        /* \"sis.sol\":1614:1676  _safeTransferFrom(safuu, msg.sender, address(this), amttosell) */\n      tag_133\n        /* \"sis.sol\":1632:1637  safuu */\n      0x03\n      0x00\n      swap1\n      sload\n      swap1\n      0x0100\n      exp\n      swap1\n      div\n      0xffffffffffffffffffffffffffffffffffffffff\n      and\n        /* \"sis.sol\":1639:1649  msg.sender */\n      caller\n        /* \"sis.sol\":1659:1663  this */\n      address\n        /* \"sis.sol\":1666:1675  amttosell */\n      dup5\n        /* \"sis.sol\":1614:1631  _safeTransferFrom */\n      tag_134\n        /* \"sis.sol\":1614:1676  _safeTransferFrom(safuu, msg.sender, address(this), amttosell) */\n      jump\t// in\n    tag_133:\n        /* \"sis.sol\":1711:1729  uint256 payableBNB */\n      0x00\n        /* \"sis.sol\":1787:1793  10**18 */\n      0x0de0b6b3a7640000\n        /* \"sis.sol\":1773:1783  BnbToSafuu */\n      sload(0x02)\n        /* \"sis.sol\":1763:1772  amttosell */\n      dup4\n        /* \"sis.sol\":1763:1783  amttosell/BnbToSafuu */\n      tag_135\n      swap2\n      swap1\n      tag_100\n      jump\t// in\n    tag_135:\n        /* \"sis.sol\":1762:1794  (amttosell/BnbToSafuu) *(10**18) */\n      tag_136\n      swap2\n      swap1\n      tag_102\n      jump\t// in\n    tag_136:\n        /* \"sis.sol\":1749:1794  payableBNB = (amttosell/BnbToSafuu) *(10**18) */\n      swap1\n      pop\n        /* \"sis.sol\":1802:1814  bool success */\n      0x00\n        /* \"sis.sol\":1820:1830  msg.sender */\n      caller\n        /* \"sis.sol\":1820:1835  msg.sender.call */\n      0xffffffffffffffffffffffffffffffffffffffff\n      and\n        /* \"sis.sol\":1843:1853  payableBNB */\n      dup3\n        /* \"sis.sol\":1820:1858  msg.sender.call{value: payableBNB}(\"\") */\n      mload(0x40)\n      tag_137\n      swap1\n      tag_64\n      jump\t// in\n    tag_137:\n      0x00\n      mload(0x40)\n      dup1\n      dup4\n      sub\n      dup2\n      dup6\n      dup8\n      gas\n      call\n      swap3\n      pop\n      pop\n      pop\n      returndatasize\n      dup1\n      0x00\n      dup2\n      eq\n      tag_140\n      jumpi\n      mload(0x40)\n      swap2\n      pop\n      and(add(returndatasize, 0x3f), not(0x1f))\n      dup3\n      add\n      0x40\n      mstore\n      returndatasize\n      dup3\n      mstore\n      returndatasize\n      0x00\n      0x20\n      dup5\n      add\n      returndatacopy\n      jump(tag_139)\n    tag_140:\n      0x60\n      swap2\n      pop\n    tag_139:\n      pop\n        /* \"sis.sol\":1801:1858  (bool success, ) = msg.sender.call{value: payableBNB}(\"\") */\n      pop\n      swap1\n      pop\n        /* \"sis.sol\":1877:1884  success */\n      dup1\n        /* \"sis.sol\":1869:1905  require(success, \"Transfer failed!\") */\n      tag_141\n      jumpi\n      mload(0x40)\n      0x08c379a000000000000000000000000000000000000000000000000000000000\n      dup2\n      mstore\n      0x04\n      add\n      tag_142\n      swap1\n      tag_110\n      jump\t// in\n    tag_142:\n      mload(0x40)\n      dup1\n      swap2\n      sub\n      swap1\n      revert\n    tag_141:\n        /* \"sis.sol\":1541:1919  {\r... */\n      pop\n      pop\n        /* \"sis.sol\":1490:1919  function sellSafuu(uint256 amttosell) public \r... */\n      pop\n      jump\t// out\n        /* \"sis.sol\":271:297  uint256  public BnbToSafuu */\n    tag_53:\n      sload(0x02)\n      dup2\n      jump\t// out\n        /* \"Ownable.sol\":1911:2109  function transferOwnership(address newOwner) public virtual onlyOwner {... */\n    tag_60:\n        /* \"Ownable.sol\":1252:1264  _msgSender() */\n      tag_144\n        /* \"Ownable.sol\":1252:1262  _msgSender */\n      tag_87\n        /* \"Ownable.sol\":1252:1264  _msgSender() */\n      jump\t// in\n    tag_144:\n        /* \"Ownable.sol\":1241:1264  owner() == _msgSender() */\n      0xffffffffffffffffffffffffffffffffffffffff\n      and\n        /* \"Ownable.sol\":1241:1248  owner() */\n      tag_145\n        /* \"Ownable.sol\":1241:1246  owner */\n      tag_39\n        /* \"Ownable.sol\":1241:1248  owner() */\n      jump\t// in\n    tag_145:\n        /* \"Ownable.sol\":1241:1264  owner() == _msgSender() */\n      0xffffffffffffffffffffffffffffffffffffffff\n      and\n      eq\n        /* \"Ownable.sol\":1233:1301  require(owner() == _msgSender(), \"Ownable: caller is not the owner\") */\n      tag_146\n      jumpi\n      mload(0x40)\n      0x08c379a000000000000000000000000000000000000000000000000000000000\n      dup2\n      mstore\n      0x04\n      add\n      tag_147\n      swap1\n      tag_91\n      jump\t// in\n    tag_147:\n      mload(0x40)\n      dup1\n      swap2\n      sub\n      swap1\n      revert\n    tag_146:\n        /* \"Ownable.sol\":2019:2020  0 */\n      0x00\n        /* \"Ownable.sol\":1999:2021  newOwner != address(0) */\n      0xffffffffffffffffffffffffffffffffffffffff\n      and\n        /* \"Ownable.sol\":1999:2007  newOwner */\n      dup2\n        /* \"Ownable.sol\":1999:2021  newOwner != address(0) */\n      0xffffffffffffffffffffffffffffffffffffffff\n      and\n      eq\n      iszero\n        /* \"Ownable.sol\":1991:2064  require(newOwner != address(0), \"Ownable: new owner is the zero address\") */\n      tag_149\n      jumpi\n      mload(0x40)\n      0x08c379a000000000000000000000000000000000000000000000000000000000\n      dup2\n      mstore\n      0x04\n      add\n      tag_150\n      swap1\n      tag_151\n      jump\t// in\n    tag_150:\n      mload(0x40)\n      dup1\n      swap2\n      sub\n      swap1\n      revert\n    tag_149:\n        /* \"Ownable.sol\":2074:2102  _transferOwnership(newOwner) */\n      tag_152\n        /* \"Ownable.sol\":2093:2101  newOwner */\n      dup2\n        /* \"Ownable.sol\":2074:2092  _transferOwnership */\n      tag_94\n        /* \"Ownable.sol\":2074:2102  _transferOwnership(newOwner) */\n      jump\t// in\n    tag_152:\n        /* \"Ownable.sol\":1911:2109  function transferOwnership(address newOwner) public virtual onlyOwner {... */\n      pop\n      jump\t// out\n        /* \"Context.sol\":640:736  function _msgSender() internal view virtual returns (address) {... */\n    tag_87:\n        /* \"Context.sol\":693:700  address */\n      0x00\n        /* \"Context.sol\":719:729  msg.sender */\n      caller\n        /* \"Context.sol\":712:729  return msg.sender */\n      swap1\n      pop\n        /* \"Context.sol\":640:736  function _msgSender() internal view virtual returns (address) {... */\n      swap1\n      jump\t// out\n        /* \"Ownable.sol\":2263:2450  function _transferOwnership(address newOwner) internal virtual {... */\n    tag_94:\n        /* \"Ownable.sol\":2336:2352  address oldOwner */\n      0x00\n        /* \"Ownable.sol\":2355:2361  _owner */\n      dup1\n      0x00\n      swap1\n      sload\n      swap1\n      0x0100\n      exp\n      swap1\n      div\n      0xffffffffffffffffffffffffffffffffffffffff\n      and\n        /* \"Ownable.sol\":2336:2361  address oldOwner = _owner */\n      swap1\n      pop\n        /* \"Ownable.sol\":2380:2388  newOwner */\n      dup2\n        /* \"Ownable.sol\":2371:2377  _owner */\n      0x00\n      dup1\n        /* \"Ownable.sol\":2371:2388  _owner = newOwner */\n      0x0100\n      exp\n      dup2\n      sload\n      dup2\n      0xffffffffffffffffffffffffffffffffffffffff\n      mul\n      not\n      and\n      swap1\n      dup4\n      0xffffffffffffffffffffffffffffffffffffffff\n      and\n      mul\n      or\n      swap1\n      sstore\n      pop\n        /* \"Ownable.sol\":2434:2442  newOwner */\n      dup2\n        /* \"Ownable.sol\":2403:2443  OwnershipTransferred(oldOwner, newOwner) */\n      0xffffffffffffffffffffffffffffffffffffffff\n      and\n        /* \"Ownable.sol\":2424:2432  oldOwner */\n      dup2\n        /* \"Ownable.sol\":2403:2443  OwnershipTransferred(oldOwner, newOwner) */\n      0xffffffffffffffffffffffffffffffffffffffff\n      and\n      0x8be0079c531659141344cd1fd0a4f28419497f9722a3daafe3b4186f6b6457e0\n      mload(0x40)\n      mload(0x40)\n      dup1\n      swap2\n      sub\n      swap1\n      log3\n        /* \"Ownable.sol\":2326:2450  {... */\n      pop\n        /* \"Ownable.sol\":2263:2450  function _transferOwnership(address newOwner) internal virtual {... */\n      pop\n      jump\t// out\n        /* \"sis.sol\":2406:2674  function _safeTransferFrom(\r... */\n    tag_134:\n        /* \"sis.sol\":2560:2569  bool sent */\n      0x00\n        /* \"sis.sol\":2572:2577  token */\n      dup5\n        /* \"sis.sol\":2572:2590  token.transferFrom */\n      0xffffffffffffffffffffffffffffffffffffffff\n      and\n      0x23b872dd\n        /* \"sis.sol\":2591:2597  sender */\n      dup6\n        /* \"sis.sol\":2599:2608  recipient */\n      dup6\n        /* \"sis.sol\":2610:2616  amount */\n      dup6\n        /* \"sis.sol\":2572:2617  token.transferFrom(sender, recipient, amount) */\n      mload(0x40)\n      dup5\n      0xffffffff\n      and\n      0xe0\n      shl\n      dup2\n      mstore\n      0x04\n      add\n      tag_156\n      swap4\n      swap3\n      swap2\n      swap1\n      tag_157\n      jump\t// in\n    tag_156:\n      0x20\n      mload(0x40)\n      dup1\n      dup4\n      sub\n      dup2\n      0x00\n      dup8\n      dup1\n      extcodesize\n      iszero\n      dup1\n      iszero\n      tag_158\n      jumpi\n      0x00\n      dup1\n      revert\n    tag_158:\n      pop\n      gas\n      call\n      iszero\n      dup1\n      iszero\n      tag_160\n      jumpi\n      returndatasize\n      0x00\n      dup1\n      returndatacopy\n      revert(0x00, returndatasize)\n    tag_160:\n      pop\n      pop\n      pop\n      pop\n      mload(0x40)\n      returndatasize\n      not(0x1f)\n      0x1f\n      dup3\n      add\n      and\n      dup3\n      add\n      dup1\n      0x40\n      mstore\n      pop\n      dup2\n      add\n      swap1\n      tag_161\n      swap2\n      swap1\n      tag_84\n      jump\t// in\n    tag_161:\n        /* \"sis.sol\":2560:2617  bool sent = token.transferFrom(sender, recipient, amount) */\n      swap1\n      pop\n        /* \"sis.sol\":2636:2640  sent */\n      dup1\n        /* \"sis.sol\":2628:2666  require(sent, \"Token transfer failed\") */\n      tag_162\n      jumpi\n      mload(0x40)\n      0x08c379a000000000000000000000000000000000000000000000000000000000\n      dup2\n      mstore\n      0x04\n      add\n      tag_163\n      swap1\n      tag_164\n      jump\t// in\n    tag_163:\n      mload(0x40)\n      dup1\n      swap2\n      sub\n      swap1\n      revert\n    tag_162:\n        /* \"sis.sol\":2549:2674  {\r... */\n      pop\n        /* \"sis.sol\":2406:2674  function _safeTransferFrom(\r... */\n      pop\n      pop\n      pop\n      pop\n      jump\t// out\n        /* \"#utility.yul\":7:146   */\n    tag_166:\n        /* \"#utility.yul\":53:58   */\n      0x00\n        /* \"#utility.yul\":91:97   */\n      dup2\n        /* \"#utility.yul\":78:98   */\n      calldataload\n        /* \"#utility.yul\":69:98   */\n      swap1\n      pop\n        /* \"#utility.yul\":107:140   */\n      tag_168\n        /* \"#utility.yul\":134:139   */\n      dup2\n        /* \"#utility.yul\":107:140   */\n      tag_169\n      jump\t// in\n    tag_168:\n        /* \"#utility.yul\":7:146   */\n      swap3\n      swap2\n      pop\n      pop\n      jump\t// out\n        /* \"#utility.yul\":152:289   */\n    tag_170:\n        /* \"#utility.yul\":206:211   */\n      0x00\n        /* \"#utility.yul\":237:243   */\n      dup2\n        /* \"#utility.yul\":231:244   */\n      mload\n        /* \"#utility.yul\":222:244   */\n      swap1\n      pop\n        /* \"#utility.yul\":253:283   */\n      tag_172\n        /* \"#utility.yul\":277:282   */\n      dup2\n        /* \"#utility.yul\":253:283   */\n      tag_173\n      jump\t// in\n    tag_172:\n        /* \"#utility.yul\":152:289   */\n      swap3\n      swap2\n      pop\n      pop\n      jump\t// out\n        /* \"#utility.yul\":295:436   */\n    tag_174:\n        /* \"#utility.yul\":351:356   */\n      0x00\n        /* \"#utility.yul\":382:388   */\n      dup2\n        /* \"#utility.yul\":376:389   */\n      mload\n        /* \"#utility.yul\":367:389   */\n      swap1\n      pop\n        /* \"#utility.yul\":398:430   */\n      tag_176\n        /* \"#utility.yul\":424:429   */\n      dup2\n        /* \"#utility.yul\":398:430   */\n      tag_177\n      jump\t// in\n    tag_176:\n        /* \"#utility.yul\":295:436   */\n      swap3\n      swap2\n      pop\n      pop\n      jump\t// out\n        /* \"#utility.yul\":442:581   */\n    tag_178:\n        /* \"#utility.yul\":488:493   */\n      0x00\n        /* \"#utility.yul\":526:532   */\n      dup2\n        /* \"#utility.yul\":513:533   */\n      calldataload\n        /* \"#utility.yul\":504:533   */\n      swap1\n      pop\n        /* \"#utility.yul\":542:575   */\n      tag_180\n        /* \"#utility.yul\":569:574   */\n      dup2\n        /* \"#utility.yul\":542:575   */\n      tag_181\n      jump\t// in\n    tag_180:\n        /* \"#utility.yul\":442:581   */\n      swap3\n      swap2\n      pop\n      pop\n      jump\t// out\n        /* \"#utility.yul\":587:730   */\n    tag_182:\n        /* \"#utility.yul\":644:649   */\n      0x00\n        /* \"#utility.yul\":675:681   */\n      dup2\n        /* \"#utility.yul\":669:682   */\n      mload\n        /* \"#utility.yul\":660:682   */\n      swap1\n      pop\n        /* \"#utility.yul\":691:724   */\n      tag_184\n        /* \"#utility.yul\":718:723   */\n      dup2\n        /* \"#utility.yul\":691:724   */\n      tag_181\n      jump\t// in\n    tag_184:\n        /* \"#utility.yul\":587:730   */\n      swap3\n      swap2\n      pop\n      pop\n      jump\t// out\n        /* \"#utility.yul\":736:877   */\n    tag_185:\n        /* \"#utility.yul\":792:797   */\n      0x00\n        /* \"#utility.yul\":823:829   */\n      dup2\n        /* \"#utility.yul\":817:830   */\n      mload\n        /* \"#utility.yul\":808:830   */\n      swap1\n      pop\n        /* \"#utility.yul\":839:871   */\n      tag_187\n        /* \"#utility.yul\":865:870   */\n      dup2\n        /* \"#utility.yul\":839:871   */\n      tag_188\n      jump\t// in\n    tag_187:\n        /* \"#utility.yul\":736:877   */\n      swap3\n      swap2\n      pop\n      pop\n      jump\t// out\n        /* \"#utility.yul\":883:1212   */\n    tag_59:\n        /* \"#utility.yul\":942:948   */\n      0x00\n        /* \"#utility.yul\":991:993   */\n      0x20\n        /* \"#utility.yul\":979:988   */\n      dup3\n        /* \"#utility.yul\":970:977   */\n      dup5\n        /* \"#utility.yul\":966:989   */\n      sub\n        /* \"#utility.yul\":962:994   */\n      slt\n        /* \"#utility.yul\":959:1078   */\n      iszero\n      tag_190\n      jumpi\n        /* \"#utility.yul\":997:1076   */\n      tag_191\n      tag_192\n      jump\t// in\n    tag_191:\n        /* \"#utility.yul\":959:1078   */\n    tag_190:\n        /* \"#utility.yul\":1117:1118   */\n      0x00\n        /* \"#utility.yul\":1142:1195   */\n      tag_193\n        /* \"#utility.yul\":1187:1194   */\n      dup5\n        /* \"#utility.yul\":1178:1184   */\n      dup3\n        /* \"#utility.yul\":1167:1176   */\n      dup6\n        /* \"#utility.yul\":1163:1185   */\n      add\n        /* \"#utility.yul\":1142:1195   */\n      tag_166\n      jump\t// in\n    tag_193:\n        /* \"#utility.yul\":1132:1195   */\n      swap2\n      pop\n        /* \"#utility.yul\":1088:1205   */\n      pop\n        /* \"#utility.yul\":883:1212   */\n      swap3\n      swap2\n      pop\n      pop\n      jump\t// out\n        /* \"#utility.yul\":1218:1563   */\n    tag_84:\n        /* \"#utility.yul\":1285:1291   */\n      0x00\n        /* \"#utility.yul\":1334:1336   */\n      0x20\n        /* \"#utility.yul\":1322:1331   */\n      dup3\n        /* \"#utility.yul\":1313:1320   */\n      dup5\n        /* \"#utility.yul\":1309:1332   */\n      sub\n        /* \"#utility.yul\":1305:1337   */\n      slt\n        /* \"#utility.yul\":1302:1421   */\n      iszero\n      tag_195\n      jumpi\n        /* \"#utility.yul\":1340:1419   */\n      tag_196\n      tag_192\n      jump\t// in\n    tag_196:\n        /* \"#utility.yul\":1302:1421   */\n    tag_195:\n        /* \"#utility.yul\":1460:1461   */\n      0x00\n        /* \"#utility.yul\":1485:1546   */\n      tag_197\n        /* \"#utility.yul\":1538:1545   */\n      dup5\n        /* \"#utility.yul\":1529:1535   */\n      dup3\n        /* \"#utility.yul\":1518:1527   */\n      dup6\n        /* \"#utility.yul\":1514:1536   */\n      add\n        /* \"#utility.yul\":1485:1546   */\n      tag_170\n      jump\t// in\n    tag_197:\n        /* \"#utility.yul\":1475:1546   */\n      swap2\n      pop\n        /* \"#utility.yul\":1431:1556   */\n      pop\n        /* \"#utility.yul\":1218:1563   */\n      swap3\n      swap2\n      pop\n      pop\n      jump\t// out\n        /* \"#utility.yul\":1569:1898   */\n    tag_27:\n        /* \"#utility.yul\":1628:1634   */\n      0x00\n        /* \"#utility.yul\":1677:1679   */\n      0x20\n        /* \"#utility.yul\":1665:1674   */\n      dup3\n        /* \"#utility.yul\":1656:1663   */\n      dup5\n        /* \"#utility.yul\":1652:1675   */\n      sub\n        /* \"#utility.yul\":1648:1680   */\n      slt\n        /* \"#utility.yul\":1645:1764   */\n      iszero\n      tag_199\n      jumpi\n        /* \"#utility.yul\":1683:1762   */\n      tag_200\n      tag_192\n      jump\t// in\n    tag_200:\n        /* \"#utility.yul\":1645:1764   */\n    tag_199:\n        /* \"#utility.yul\":1803:1804   */\n      0x00\n        /* \"#utility.yul\":1828:1881   */\n      tag_201\n        /* \"#utility.yul\":1873:1880   */\n      dup5\n        /* \"#utility.yul\":1864:1870   */\n      dup3\n        /* \"#utility.yul\":1853:1862   */\n      dup6\n        /* \"#utility.yul\":1849:1871   */\n      add\n        /* \"#utility.yul\":1828:1881   */\n      tag_178\n      jump\t// in\n    tag_201:\n        /* \"#utility.yul\":1818:1881   */\n      swap2\n      pop\n        /* \"#utility.yul\":1774:1891   */\n      pop\n        /* \"#utility.yul\":1569:1898   */\n      swap3\n      swap2\n      pop\n      pop\n      jump\t// out\n        /* \"#utility.yul\":1904:2255   */\n    tag_77:\n        /* \"#utility.yul\":1974:1980   */\n      0x00\n        /* \"#utility.yul\":2023:2025   */\n      0x20\n        /* \"#utility.yul\":2011:2020   */\n      dup3\n        /* \"#utility.yul\":2002:2009   */\n      dup5\n        /* \"#utility.yul\":1998:2021   */\n      sub\n        /* \"#utility.yul\":1994:2026   */\n      slt\n        /* \"#utility.yul\":1991:2110   */\n      iszero\n      tag_203\n      jumpi\n        /* \"#utility.yul\":2029:2108   */\n      tag_204\n      tag_192\n      jump\t// in\n    tag_204:\n        /* \"#utility.yul\":1991:2110   */\n    tag_203:\n        /* \"#utility.yul\":2149:2150   */\n      0x00\n        /* \"#utility.yul\":2174:2238   */\n      tag_205\n        /* \"#utility.yul\":2230:2237   */\n      dup5\n        /* \"#utility.yul\":2221:2227   */\n      dup3\n        /* \"#utility.yul\":2210:2219   */\n      dup6\n        /* \"#utility.yul\":2206:2228   */\n      add\n        /* \"#utility.yul\":2174:2238   */\n      tag_182\n      jump\t// in\n    tag_205:\n        /* \"#utility.yul\":2164:2238   */\n      swap2\n      pop\n        /* \"#utility.yul\":2120:2248   */\n      pop\n        /* \"#utility.yul\":1904:2255   */\n      swap3\n      swap2\n      pop\n      pop\n      jump\t// out\n        /* \"#utility.yul\":2261:3232   */\n    tag_128:\n        /* \"#utility.yul\":2364:2370   */\n      0x00\n        /* \"#utility.yul\":2372:2378   */\n      dup1\n        /* \"#utility.yul\":2380:2386   */\n      0x00\n        /* \"#utility.yul\":2388:2394   */\n      dup1\n        /* \"#utility.yul\":2396:2402   */\n      0x00\n        /* \"#utility.yul\":2445:2448   */\n      0xa0\n        /* \"#utility.yul\":2433:2442   */\n      dup7\n        /* \"#utility.yul\":2424:2431   */\n      dup9\n        /* \"#utility.yul\":2420:2443   */\n      sub\n        /* \"#utility.yul\":2416:2449   */\n      slt\n        /* \"#utility.yul\":2413:2533   */\n      iszero\n      tag_207\n      jumpi\n        /* \"#utility.yul\":2452:2531   */\n      tag_208\n      tag_192\n      jump\t// in\n    tag_208:\n        /* \"#utility.yul\":2413:2533   */\n    tag_207:\n        /* \"#utility.yul\":2572:2573   */\n      0x00\n        /* \"#utility.yul\":2597:2660   */\n      tag_209\n        /* \"#utility.yul\":2652:2659   */\n      dup9\n        /* \"#utility.yul\":2643:2649   */\n      dup3\n        /* \"#utility.yul\":2632:2641   */\n      dup10\n        /* \"#utility.yul\":2628:2650   */\n      add\n        /* \"#utility.yul\":2597:2660   */\n      tag_185\n      jump\t// in\n    tag_209:\n        /* \"#utility.yul\":2587:2660   */\n      swap6\n      pop\n        /* \"#utility.yul\":2543:2670   */\n      pop\n        /* \"#utility.yul\":2709:2711   */\n      0x20\n        /* \"#utility.yul\":2735:2798   */\n      tag_210\n        /* \"#utility.yul\":2790:2797   */\n      dup9\n        /* \"#utility.yul\":2781:2787   */\n      dup3\n        /* \"#utility.yul\":2770:2779   */\n      dup10\n        /* \"#utility.yul\":2766:2788   */\n      add\n        /* \"#utility.yul\":2735:2798   */\n      tag_174\n      jump\t// in\n    tag_210:\n        /* \"#utility.yul\":2725:2798   */\n      swap5\n      pop\n        /* \"#utility.yul\":2680:2808   */\n      pop\n        /* \"#utility.yul\":2847:2849   */\n      0x40\n        /* \"#utility.yul\":2873:2937   */\n      tag_211\n        /* \"#utility.yul\":2929:2936   */\n      dup9\n        /* \"#utility.yul\":2920:2926   */\n      dup3\n        /* \"#utility.yul\":2909:2918   */\n      dup10\n        /* \"#utility.yul\":2905:2927   */\n      add\n        /* \"#utility.yul\":2873:2937   */\n      tag_182\n      jump\t// in\n    tag_211:\n        /* \"#utility.yul\":2863:2937   */\n      swap4\n      pop\n        /* \"#utility.yul\":2818:2947   */\n      pop\n        /* \"#utility.yul\":2986:2988   */\n      0x60\n        /* \"#utility.yul\":3012:3076   */\n      tag_212\n        /* \"#utility.yul\":3068:3075   */\n      dup9\n        /* \"#utility.yul\":3059:3065   */\n      dup3\n        /* \"#utility.yul\":3048:3057   */\n      dup10\n        /* \"#utility.yul\":3044:3066   */\n      add\n        /* \"#utility.yul\":3012:3076   */\n      tag_182\n      jump\t// in\n    tag_212:\n        /* \"#utility.yul\":3002:3076   */\n      swap3\n      pop\n        /* \"#utility.yul\":2957:3086   */\n      pop\n        /* \"#utility.yul\":3125:3128   */\n      0x80\n        /* \"#utility.yul\":3152:3215   */\n      tag_213\n        /* \"#utility.yul\":3207:3214   */\n      dup9\n        /* \"#utility.yul\":3198:3204   */\n      dup3\n        /* \"#utility.yul\":3187:3196   */\n      dup10\n        /* \"#utility.yul\":3183:3205   */\n      add\n        /* \"#utility.yul\":3152:3215   */\n      tag_185\n      jump\t// in\n    tag_213:\n        /* \"#utility.yul\":3142:3215   */\n      swap2\n      pop\n        /* \"#utility.yul\":3096:3225   */\n      pop\n        /* \"#utility.yul\":2261:3232   */\n      swap3\n      swap6\n      pop\n      swap3\n      swap6\n      swap1\n      swap4\n      pop\n      jump\t// out\n        /* \"#utility.yul\":3238:3356   */\n    tag_214:\n        /* \"#utility.yul\":3325:3349   */\n      tag_216\n        /* \"#utility.yul\":3343:3348   */\n      dup2\n        /* \"#utility.yul\":3325:3349   */\n      tag_217\n      jump\t// in\n    tag_216:\n        /* \"#utility.yul\":3320:3323   */\n      dup3\n        /* \"#utility.yul\":3313:3350   */\n      mstore\n        /* \"#utility.yul\":3238:3356   */\n      pop\n      pop\n      jump\t// out\n        /* \"#utility.yul\":3362:3521   */\n    tag_218:\n        /* \"#utility.yul\":3463:3514   */\n      tag_220\n        /* \"#utility.yul\":3508:3513   */\n      dup2\n        /* \"#utility.yul\":3463:3514   */\n      tag_221\n      jump\t// in\n    tag_220:\n        /* \"#utility.yul\":3458:3461   */\n      dup3\n        /* \"#utility.yul\":3451:3515   */\n      mstore\n        /* \"#utility.yul\":3362:3521   */\n      pop\n      pop\n      jump\t// out\n        /* \"#utility.yul\":3527:3642   */\n    tag_222:\n        /* \"#utility.yul\":3612:3635   */\n      tag_224\n        /* \"#utility.yul\":3629:3634   */\n      dup2\n        /* \"#utility.yul\":3612:3635   */\n      tag_225\n      jump\t// in\n    tag_224:\n        /* \"#utility.yul\":3607:3610   */\n      dup3\n        /* \"#utility.yul\":3600:3636   */\n      mstore\n        /* \"#utility.yul\":3527:3642   */\n      pop\n      pop\n      jump\t// out\n        /* \"#utility.yul\":3648:4014   */\n    tag_226:\n        /* \"#utility.yul\":3790:3793   */\n      0x00\n        /* \"#utility.yul\":3811:3878   */\n      tag_228\n        /* \"#utility.yul\":3875:3877   */\n      0x26\n        /* \"#utility.yul\":3870:3873   */\n      dup4\n        /* \"#utility.yul\":3811:3878   */\n      tag_229\n      jump\t// in\n    tag_228:\n        /* \"#utility.yul\":3804:3878   */\n      swap2\n      pop\n        /* \"#utility.yul\":3887:3980   */\n      tag_230\n        /* \"#utility.yul\":3976:3979   */\n      dup3\n        /* \"#utility.yul\":3887:3980   */\n      tag_231\n      jump\t// in\n    tag_230:\n        /* \"#utility.yul\":4005:4007   */\n      0x40\n        /* \"#utility.yul\":4000:4003   */\n      dup3\n        /* \"#utility.yul\":3996:4008   */\n      add\n        /* \"#utility.yul\":3989:4008   */\n      swap1\n      pop\n        /* \"#utility.yul\":3648:4014   */\n      swap2\n      swap1\n      pop\n      jump\t// out\n        /* \"#utility.yul\":4020:4386   */\n    tag_232:\n        /* \"#utility.yul\":4162:4165   */\n      0x00\n        /* \"#utility.yul\":4183:4250   */\n      tag_234\n        /* \"#utility.yul\":4247:4249   */\n      0x14\n        /* \"#utility.yul\":4242:4245   */\n      dup4\n        /* \"#utility.yul\":4183:4250   */\n      tag_229\n      jump\t// in\n    tag_234:\n        /* \"#utility.yul\":4176:4250   */\n      swap2\n      pop\n        /* \"#utility.yul\":4259:4352   */\n      tag_235\n        /* \"#utility.yul\":4348:4351   */\n      dup3\n        /* \"#utility.yul\":4259:4352   */\n      tag_236\n      jump\t// in\n    tag_235:\n        /* \"#utility.yul\":4377:4379   */\n      0x20\n        /* \"#utility.yul\":4372:4375   */\n      dup3\n        /* \"#utility.yul\":4368:4380   */\n      add\n        /* \"#utility.yul\":4361:4380   */\n      swap1\n      pop\n        /* \"#utility.yul\":4020:4386   */\n      swap2\n      swap1\n      pop\n      jump\t// out\n        /* \"#utility.yul\":4392:4758   */\n    tag_237:\n        /* \"#utility.yul\":4534:4537   */\n      0x00\n        /* \"#utility.yul\":4555:4622   */\n      tag_239\n        /* \"#utility.yul\":4619:4621   */\n      0x15\n        /* \"#utility.yul\":4614:4617   */\n      dup4\n        /* \"#utility.yul\":4555:4622   */\n      tag_229\n      jump\t// in\n    tag_239:\n        /* \"#utility.yul\":4548:4622   */\n      swap2\n      pop\n        /* \"#utility.yul\":4631:4724   */\n      tag_240\n        /* \"#utility.yul\":4720:4723   */\n      dup3\n        /* \"#utility.yul\":4631:4724   */\n      tag_241\n      jump\t// in\n    tag_240:\n        /* \"#utility.yul\":4749:4751   */\n      0x20\n        /* \"#utility.yul\":4744:4747   */\n      dup3\n        /* \"#utility.yul\":4740:4752   */\n      add\n        /* \"#utility.yul\":4733:4752   */\n      swap1\n      pop\n        /* \"#utility.yul\":4392:4758   */\n      swap2\n      swap1\n      pop\n      jump\t// out\n        /* \"#utility.yul\":4764:5130   */\n    tag_242:\n        /* \"#utility.yul\":4906:4909   */\n      0x00\n        /* \"#utility.yul\":4927:4994   */\n      tag_244\n        /* \"#utility.yul\":4991:4993   */\n      0x1a\n        /* \"#utility.yul\":4986:4989   */\n      dup4\n        /* \"#utility.yul\":4927:4994   */\n      tag_229\n      jump\t// in\n    tag_244:\n        /* \"#utility.yul\":4920:4994   */\n      swap2\n      pop\n        /* \"#utility.yul\":5003:5096   */\n      tag_245\n        /* \"#utility.yul\":5092:5095   */\n      dup3\n        /* \"#utility.yul\":5003:5096   */\n      tag_246\n      jump\t// in\n    tag_245:\n        /* \"#utility.yul\":5121:5123   */\n      0x20\n        /* \"#utility.yul\":5116:5119   */\n      dup3\n        /* \"#utility.yul\":5112:5124   */\n      add\n        /* \"#utility.yul\":5105:5124   */\n      swap1\n      pop\n        /* \"#utility.yul\":4764:5130   */\n      swap2\n      swap1\n      pop\n      jump\t// out\n        /* \"#utility.yul\":5136:5502   */\n    tag_247:\n        /* \"#utility.yul\":5278:5281   */\n      0x00\n        /* \"#utility.yul\":5299:5366   */\n      tag_249\n        /* \"#utility.yul\":5363:5365   */\n      0x13\n        /* \"#utility.yul\":5358:5361   */\n      dup4\n        /* \"#utility.yul\":5299:5366   */\n      tag_229\n      jump\t// in\n    tag_249:\n        /* \"#utility.yul\":5292:5366   */\n      swap2\n      pop\n        /* \"#utility.yul\":5375:5468   */\n      tag_250\n        /* \"#utility.yul\":5464:5467   */\n      dup3\n        /* \"#utility.yul\":5375:5468   */\n      tag_251\n      jump\t// in\n    tag_250:\n        /* \"#utility.yul\":5493:5495   */\n      0x20\n        /* \"#utility.yul\":5488:5491   */\n      dup3\n        /* \"#utility.yul\":5484:5496   */\n      add\n        /* \"#utility.yul\":5477:5496   */\n      swap1\n      pop\n        /* \"#utility.yul\":5136:5502   */\n      swap2\n      swap1\n      pop\n      jump\t// out\n        /* \"#utility.yul\":5508:5874   */\n    tag_252:\n        /* \"#utility.yul\":5650:5653   */\n      0x00\n        /* \"#utility.yul\":5671:5738   */\n      tag_254\n        /* \"#utility.yul\":5735:5737   */\n      0x10\n        /* \"#utility.yul\":5730:5733   */\n      dup4\n        /* \"#utility.yul\":5671:5738   */\n      tag_229\n      jump\t// in\n    tag_254:\n        /* \"#utility.yul\":5664:5738   */\n      swap2\n      pop\n        /* \"#utility.yul\":5747:5840   */\n      tag_255\n        /* \"#utility.yul\":5836:5839   */\n      dup3\n        /* \"#utility.yul\":5747:5840   */\n      tag_256\n      jump\t// in\n    tag_255:\n        /* \"#utility.yul\":5865:5867   */\n      0x20\n        /* \"#utility.yul\":5860:5863   */\n      dup3\n        /* \"#utility.yul\":5856:5868   */\n      add\n        /* \"#utility.yul\":5849:5868   */\n      swap1\n      pop\n        /* \"#utility.yul\":5508:5874   */\n      swap2\n      swap1\n      pop\n      jump\t// out\n        /* \"#utility.yul\":5880:6246   */\n    tag_257:\n        /* \"#utility.yul\":6022:6025   */\n      0x00\n        /* \"#utility.yul\":6043:6110   */\n      tag_259\n        /* \"#utility.yul\":6107:6109   */\n      0x20\n        /* \"#utility.yul\":6102:6105   */\n      dup4\n        /* \"#utility.yul\":6043:6110   */\n      tag_229\n      jump\t// in\n    tag_259:\n        /* \"#utility.yul\":6036:6110   */\n      swap2\n      pop\n        /* \"#utility.yul\":6119:6212   */\n      tag_260\n        /* \"#utility.yul\":6208:6211   */\n      dup3\n        /* \"#utility.yul\":6119:6212   */\n      tag_261\n      jump\t// in\n    tag_260:\n        /* \"#utility.yul\":6237:6239   */\n      0x20\n        /* \"#utility.yul\":6232:6235   */\n      dup3\n        /* \"#utility.yul\":6228:6240   */\n      add\n        /* \"#utility.yul\":6221:6240   */\n      swap1\n      pop\n        /* \"#utility.yul\":5880:6246   */\n      swap2\n      swap1\n      pop\n      jump\t// out\n        /* \"#utility.yul\":6252:6650   */\n    tag_262:\n        /* \"#utility.yul\":6411:6414   */\n      0x00\n        /* \"#utility.yul\":6432:6515   */\n      tag_264\n        /* \"#utility.yul\":6513:6514   */\n      0x00\n        /* \"#utility.yul\":6508:6511   */\n      dup4\n        /* \"#utility.yul\":6432:6515   */\n      tag_265\n      jump\t// in\n    tag_264:\n        /* \"#utility.yul\":6425:6515   */\n      swap2\n      pop\n        /* \"#utility.yul\":6524:6617   */\n      tag_266\n        /* \"#utility.yul\":6613:6616   */\n      dup3\n        /* \"#utility.yul\":6524:6617   */\n      tag_267\n      jump\t// in\n    tag_266:\n        /* \"#utility.yul\":6642:6643   */\n      0x00\n        /* \"#utility.yul\":6637:6640   */\n      dup3\n        /* \"#utility.yul\":6633:6644   */\n      add\n        /* \"#utility.yul\":6626:6644   */\n      swap1\n      pop\n        /* \"#utility.yul\":6252:6650   */\n      swap2\n      swap1\n      pop\n      jump\t// out\n        /* \"#utility.yul\":6656:6774   */\n    tag_268:\n        /* \"#utility.yul\":6743:6767   */\n      tag_270\n        /* \"#utility.yul\":6761:6766   */\n      dup2\n        /* \"#utility.yul\":6743:6767   */\n      tag_271\n      jump\t// in\n    tag_270:\n        /* \"#utility.yul\":6738:6741   */\n      dup3\n        /* \"#utility.yul\":6731:6768   */\n      mstore\n        /* \"#utility.yul\":6656:6774   */\n      pop\n      pop\n      jump\t// out\n        /* \"#utility.yul\":6780:7159   */\n    tag_64:\n        /* \"#utility.yul\":6964:6967   */\n      0x00\n        /* \"#utility.yul\":6986:7133   */\n      tag_273\n        /* \"#utility.yul\":7129:7132   */\n      dup3\n        /* \"#utility.yul\":6986:7133   */\n      tag_262\n      jump\t// in\n    tag_273:\n        /* \"#utility.yul\":6979:7133   */\n      swap2\n      pop\n        /* \"#utility.yul\":7150:7153   */\n      dup2\n        /* \"#utility.yul\":7143:7153   */\n      swap1\n      pop\n        /* \"#utility.yul\":6780:7159   */\n      swap2\n      swap1\n      pop\n      jump\t// out\n        /* \"#utility.yul\":7165:7387   */\n    tag_41:\n        /* \"#utility.yul\":7258:7262   */\n      0x00\n        /* \"#utility.yul\":7296:7298   */\n      0x20\n        /* \"#utility.yul\":7285:7294   */\n      dup3\n        /* \"#utility.yul\":7281:7299   */\n      add\n        /* \"#utility.yul\":7273:7299   */\n      swap1\n      pop\n        /* \"#utility.yul\":7309:7380   */\n      tag_275\n        /* \"#utility.yul\":7377:7378   */\n      0x00\n        /* \"#utility.yul\":7366:7375   */\n      dup4\n        /* \"#utility.yul\":7362:7379   */\n      add\n        /* \"#utility.yul\":7353:7359   */\n      dup5\n        /* \"#utility.yul\":7309:7380   */\n      tag_214\n      jump\t// in\n    tag_275:\n        /* \"#utility.yul\":7165:7387   */\n      swap3\n      swap2\n      pop\n      pop\n      jump\t// out\n        /* \"#utility.yul\":7393:7835   */\n    tag_157:\n        /* \"#utility.yul\":7542:7546   */\n      0x00\n        /* \"#utility.yul\":7580:7582   */\n      0x60\n        /* \"#utility.yul\":7569:7578   */\n      dup3\n        /* \"#utility.yul\":7565:7583   */\n      add\n        /* \"#utility.yul\":7557:7583   */\n      swap1\n      pop\n        /* \"#utility.yul\":7593:7664   */\n      tag_277\n        /* \"#utility.yul\":7661:7662   */\n      0x00\n        /* \"#utility.yul\":7650:7659   */\n      dup4\n        /* \"#utility.yul\":7646:7663   */\n      add\n        /* \"#utility.yul\":7637:7643   */\n      dup7\n        /* \"#utility.yul\":7593:7664   */\n      tag_214\n      jump\t// in\n    tag_277:\n        /* \"#utility.yul\":7674:7746   */\n      tag_278\n        /* \"#utility.yul\":7742:7744   */\n      0x20\n        /* \"#utility.yul\":7731:7740   */\n      dup4\n        /* \"#utility.yul\":7727:7745   */\n      add\n        /* \"#utility.yul\":7718:7724   */\n      dup6\n        /* \"#utility.yul\":7674:7746   */\n      tag_214\n      jump\t// in\n    tag_278:\n        /* \"#utility.yul\":7756:7828   */\n      tag_279\n        /* \"#utility.yul\":7824:7826   */\n      0x40\n        /* \"#utility.yul\":7813:7822   */\n      dup4\n        /* \"#utility.yul\":7809:7827   */\n      add\n        /* \"#utility.yul\":7800:7806   */\n      dup5\n        /* \"#utility.yul\":7756:7828   */\n      tag_268\n      jump\t// in\n    tag_279:\n        /* \"#utility.yul\":7393:7835   */\n      swap5\n      swap4\n      pop\n      pop\n      pop\n      pop\n      jump\t// out\n        /* \"#utility.yul\":7841:8173   */\n    tag_79:\n        /* \"#utility.yul\":7962:7966   */\n      0x00\n        /* \"#utility.yul\":8000:8002   */\n      0x40\n        /* \"#utility.yul\":7989:7998   */\n      dup3\n        /* \"#utility.yul\":7985:8003   */\n      add\n        /* \"#utility.yul\":7977:8003   */\n      swap1\n      pop\n        /* \"#utility.yul\":8013:8084   */\n      tag_281\n        /* \"#utility.yul\":8081:8082   */\n      0x00\n        /* \"#utility.yul\":8070:8079   */\n      dup4\n        /* \"#utility.yul\":8066:8083   */\n      add\n        /* \"#utility.yul\":8057:8063   */\n      dup6\n        /* \"#utility.yul\":8013:8084   */\n      tag_214\n      jump\t// in\n    tag_281:\n        /* \"#utility.yul\":8094:8166   */\n      tag_282\n        /* \"#utility.yul\":8162:8164   */\n      0x20\n        /* \"#utility.yul\":8151:8160   */\n      dup4\n        /* \"#utility.yul\":8147:8165   */\n      add\n        /* \"#utility.yul\":8138:8144   */\n      dup5\n        /* \"#utility.yul\":8094:8166   */\n      tag_268\n      jump\t// in\n    tag_282:\n        /* \"#utility.yul\":7841:8173   */\n      swap4\n      swap3\n      pop\n      pop\n      pop\n      jump\t// out\n        /* \"#utility.yul\":8179:8429   */\n    tag_18:\n        /* \"#utility.yul\":8286:8290   */\n      0x00\n        /* \"#utility.yul\":8324:8326   */\n      0x20\n        /* \"#utility.yul\":8313:8322   */\n      dup3\n        /* \"#utility.yul\":8309:8327   */\n      add\n        /* \"#utility.yul\":8301:8327   */\n      swap1\n      pop\n        /* \"#utility.yul\":8337:8422   */\n      tag_284\n        /* \"#utility.yul\":8419:8420   */\n      0x00\n        /* \"#utility.yul\":8408:8417   */\n      dup4\n        /* \"#utility.yul\":8404:8421   */\n      add\n        /* \"#utility.yul\":8395:8401   */\n      dup5\n        /* \"#utility.yul\":8337:8422   */\n      tag_218\n      jump\t// in\n    tag_284:\n        /* \"#utility.yul\":8179:8429   */\n      swap3\n      swap2\n      pop\n      pop\n      jump\t// out\n        /* \"#utility.yul\":8435:8653   */\n    tag_46:\n        /* \"#utility.yul\":8526:8530   */\n      0x00\n        /* \"#utility.yul\":8564:8566   */\n      0x20\n        /* \"#utility.yul\":8553:8562   */\n      dup3\n        /* \"#utility.yul\":8549:8567   */\n      add\n        /* \"#utility.yul\":8541:8567   */\n      swap1\n      pop\n        /* \"#utility.yul\":8577:8646   */\n      tag_286\n        /* \"#utility.yul\":8643:8644   */\n      0x00\n        /* \"#utility.yul\":8632:8641   */\n      dup4\n        /* \"#utility.yul\":8628:8645   */\n      add\n        /* \"#utility.yul\":8619:8625   */\n      dup5\n        /* \"#utility.yul\":8577:8646   */\n      tag_222\n      jump\t// in\n    tag_286:\n        /* \"#utility.yul\":8435:8653   */\n      swap3\n      swap2\n      pop\n      pop\n      jump\t// out\n        /* \"#utility.yul\":8659:9078   */\n    tag_151:\n        /* \"#utility.yul\":8825:8829   */\n      0x00\n        /* \"#utility.yul\":8863:8865   */\n      0x20\n        /* \"#utility.yul\":8852:8861   */\n      dup3\n        /* \"#utility.yul\":8848:8866   */\n      add\n        /* \"#utility.yul\":8840:8866   */\n      swap1\n      pop\n        /* \"#utility.yul\":8912:8921   */\n      dup2\n        /* \"#utility.yul\":8906:8910   */\n      dup2\n        /* \"#utility.yul\":8902:8922   */\n      sub\n        /* \"#utility.yul\":8898:8899   */\n      0x00\n        /* \"#utility.yul\":8887:8896   */\n      dup4\n        /* \"#utility.yul\":8883:8900   */\n      add\n        /* \"#utility.yul\":8876:8923   */\n      mstore\n        /* \"#utility.yul\":8940:9071   */\n      tag_288\n        /* \"#utility.yul\":9066:9070   */\n      dup2\n        /* \"#utility.yul\":8940:9071   */\n      tag_226\n      jump\t// in\n    tag_288:\n        /* \"#utility.yul\":8932:9071   */\n      swap1\n      pop\n        /* \"#utility.yul\":8659:9078   */\n      swap2\n      swap1\n      pop\n      jump\t// out\n        /* \"#utility.yul\":9084:9503   */\n    tag_70:\n        /* \"#utility.yul\":9250:9254   */\n      0x00\n        /* \"#utility.yul\":9288:9290   */\n      0x20\n        /* \"#utility.yul\":9277:9286   */\n      dup3\n        /* \"#utility.yul\":9273:9291   */\n      add\n        /* \"#utility.yul\":9265:9291   */\n      swap1\n      pop\n        /* \"#utility.yul\":9337:9346   */\n      dup2\n        /* \"#utility.yul\":9331:9335   */\n      dup2\n        /* \"#utility.yul\":9327:9347   */\n      sub\n        /* \"#utility.yul\":9323:9324   */\n      0x00\n        /* \"#utility.yul\":9312:9321   */\n      dup4\n        /* \"#utility.yul\":9308:9325   */\n      add\n        /* \"#utility.yul\":9301:9348   */\n      mstore\n        /* \"#utility.yul\":9365:9496   */\n      tag_290\n        /* \"#utility.yul\":9491:9495   */\n      dup2\n        /* \"#utility.yul\":9365:9496   */\n      tag_232\n      jump\t// in\n    tag_290:\n        /* \"#utility.yul\":9357:9496   */\n      swap1\n      pop\n        /* \"#utility.yul\":9084:9503   */\n      swap2\n      swap1\n      pop\n      jump\t// out\n        /* \"#utility.yul\":9509:9928   */\n    tag_164:\n        /* \"#utility.yul\":9675:9679   */\n      0x00\n        /* \"#utility.yul\":9713:9715   */\n      0x20\n        /* \"#utility.yul\":9702:9711   */\n      dup3\n        /* \"#utility.yul\":9698:9716   */\n      add\n        /* \"#utility.yul\":9690:9716   */\n      swap1\n      pop\n        /* \"#utility.yul\":9762:9771   */\n      dup2\n        /* \"#utility.yul\":9756:9760   */\n      dup2\n        /* \"#utility.yul\":9752:9772   */\n      sub\n        /* \"#utility.yul\":9748:9749   */\n      0x00\n        /* \"#utility.yul\":9737:9746   */\n      dup4\n        /* \"#utility.yul\":9733:9750   */\n      add\n        /* \"#utility.yul\":9726:9773   */\n      mstore\n        /* \"#utility.yul\":9790:9921   */\n      tag_292\n        /* \"#utility.yul\":9916:9920   */\n      dup2\n        /* \"#utility.yul\":9790:9921   */\n      tag_237\n      jump\t// in\n    tag_292:\n        /* \"#utility.yul\":9782:9921   */\n      swap1\n      pop\n        /* \"#utility.yul\":9509:9928   */\n      swap2\n      swap1\n      pop\n      jump\t// out\n        /* \"#utility.yul\":9934:10353   */\n    tag_98:\n        /* \"#utility.yul\":10100:10104   */\n      0x00\n        /* \"#utility.yul\":10138:10140   */\n      0x20\n        /* \"#utility.yul\":10127:10136   */\n      dup3\n        /* \"#utility.yul\":10123:10141   */\n      add\n        /* \"#utility.yul\":10115:10141   */\n      swap1\n      pop\n        /* \"#utility.yul\":10187:10196   */\n      dup2\n        /* \"#utility.yul\":10181:10185   */\n      dup2\n        /* \"#utility.yul\":10177:10197   */\n      sub\n        /* \"#utility.yul\":10173:10174   */\n      0x00\n        /* \"#utility.yul\":10162:10171   */\n      dup4\n        /* \"#utility.yul\":10158:10175   */\n      add\n        /* \"#utility.yul\":10151:10198   */\n      mstore\n        /* \"#utility.yul\":10215:10346   */\n      tag_294\n        /* \"#utility.yul\":10341:10345   */\n      dup2\n        /* \"#utility.yul\":10215:10346   */\n      tag_242\n      jump\t// in\n    tag_294:\n        /* \"#utility.yul\":10207:10346   */\n      swap1\n      pop\n        /* \"#utility.yul\":9934:10353   */\n      swap2\n      swap1\n      pop\n      jump\t// out\n        /* \"#utility.yul\":10359:10778   */\n    tag_132:\n        /* \"#utility.yul\":10525:10529   */\n      0x00\n        /* \"#utility.yul\":10563:10565   */\n      0x20\n        /* \"#utility.yul\":10552:10561   */\n      dup3\n        /* \"#utility.yul\":10548:10566   */\n      add\n        /* \"#utility.yul\":10540:10566   */\n      swap1\n      pop\n        /* \"#utility.yul\":10612:10621   */\n      dup2\n        /* \"#utility.yul\":10606:10610   */\n      dup2\n        /* \"#utility.yul\":10602:10622   */\n      sub\n        /* \"#utility.yul\":10598:10599   */\n      0x00\n        /* \"#utility.yul\":10587:10596   */\n      dup4\n        /* \"#utility.yul\":10583:10600   */\n      add\n        /* \"#utility.yul\":10576:10623   */\n      mstore\n        /* \"#utility.yul\":10640:10771   */\n      tag_296\n        /* \"#utility.yul\":10766:10770   */\n      dup2\n        /* \"#utility.yul\":10640:10771   */\n      tag_247\n      jump\t// in\n    tag_296:\n        /* \"#utility.yul\":10632:10771   */\n      swap1\n      pop\n        /* \"#utility.yul\":10359:10778   */\n      swap2\n      swap1\n      pop\n      jump\t// out\n        /* \"#utility.yul\":10784:11203   */\n    tag_110:\n        /* \"#utility.yul\":10950:10954   */\n      0x00\n        /* \"#utility.yul\":10988:10990   */\n      0x20\n        /* \"#utility.yul\":10977:10986   */\n      dup3\n        /* \"#utility.yul\":10973:10991   */\n      add\n        /* \"#utility.yul\":10965:10991   */\n      swap1\n      pop\n        /* \"#utility.yul\":11037:11046   */\n      dup2\n        /* \"#utility.yul\":11031:11035   */\n      dup2\n        /* \"#utility.yul\":11027:11047   */\n      sub\n        /* \"#utility.yul\":11023:11024   */\n      0x00\n        /* \"#utility.yul\":11012:11021   */\n      dup4\n        /* \"#utility.yul\":11008:11025   */\n      add\n        /* \"#utility.yul\":11001:11048   */\n      mstore\n        /* \"#utility.yul\":11065:11196   */\n      tag_298\n        /* \"#utility.yul\":11191:11195   */\n      dup2\n        /* \"#utility.yul\":11065:11196   */\n      tag_252\n      jump\t// in\n    tag_298:\n        /* \"#utility.yul\":11057:11196   */\n      swap1\n      pop\n        /* \"#utility.yul\":10784:11203   */\n      swap2\n      swap1\n      pop\n      jump\t// out\n        /* \"#utility.yul\":11209:11628   */\n    tag_91:\n        /* \"#utility.yul\":11375:11379   */\n      0x00\n        /* \"#utility.yul\":11413:11415   */\n      0x20\n        /* \"#utility.yul\":11402:11411   */\n      dup3\n        /* \"#utility.yul\":11398:11416   */\n      add\n        /* \"#utility.yul\":11390:11416   */\n      swap1\n      pop\n        /* \"#utility.yul\":11462:11471   */\n      dup2\n        /* \"#utility.yul\":11456:11460   */\n      dup2\n        /* \"#utility.yul\":11452:11472   */\n      sub\n        /* \"#utility.yul\":11448:11449   */\n      0x00\n        /* \"#utility.yul\":11437:11446   */\n      dup4\n        /* \"#utility.yul\":11433:11450   */\n      add\n        /* \"#utility.yul\":11426:11473   */\n      mstore\n        /* \"#utility.yul\":11490:11621   */\n      tag_300\n        /* \"#utility.yul\":11616:11620   */\n      dup2\n        /* \"#utility.yul\":11490:11621   */\n      tag_257\n      jump\t// in\n    tag_300:\n        /* \"#utility.yul\":11482:11621   */\n      swap1\n      pop\n        /* \"#utility.yul\":11209:11628   */\n      swap2\n      swap1\n      pop\n      jump\t// out\n        /* \"#utility.yul\":11634:11856   */\n    tag_55:\n        /* \"#utility.yul\":11727:11731   */\n      0x00\n        /* \"#utility.yul\":11765:11767   */\n      0x20\n        /* \"#utility.yul\":11754:11763   */\n      dup3\n        /* \"#utility.yul\":11750:11768   */\n      add\n        /* \"#utility.yul\":11742:11768   */\n      swap1\n      pop\n        /* \"#utility.yul\":11778:11849   */\n      tag_302\n        /* \"#utility.yul\":11846:11847   */\n      0x00\n        /* \"#utility.yul\":11835:11844   */\n      dup4\n        /* \"#utility.yul\":11831:11848   */\n      add\n        /* \"#utility.yul\":11822:11828   */\n      dup5\n        /* \"#utility.yul\":11778:11849   */\n      tag_268\n      jump\t// in\n    tag_302:\n        /* \"#utility.yul\":11634:11856   */\n      swap3\n      swap2\n      pop\n      pop\n      jump\t// out\n        /* \"#utility.yul\":11943:12090   */\n    tag_265:\n        /* \"#utility.yul\":12044:12055   */\n      0x00\n        /* \"#utility.yul\":12081:12084   */\n      dup2\n        /* \"#utility.yul\":12066:12084   */\n      swap1\n      pop\n        /* \"#utility.yul\":11943:12090   */\n      swap3\n      swap2\n      pop\n      pop\n      jump\t// out\n        /* \"#utility.yul\":12096:12265   */\n    tag_229:\n        /* \"#utility.yul\":12180:12191   */\n      0x00\n        /* \"#utility.yul\":12214:12220   */\n      dup3\n        /* \"#utility.yul\":12209:12212   */\n      dup3\n        /* \"#utility.yul\":12202:12221   */\n      mstore\n        /* \"#utility.yul\":12254:12258   */\n      0x20\n        /* \"#utility.yul\":12249:12252   */\n      dup3\n        /* \"#utility.yul\":12245:12259   */\n      add\n        /* \"#utility.yul\":12230:12259   */\n      swap1\n      pop\n        /* \"#utility.yul\":12096:12265   */\n      swap3\n      swap2\n      pop\n      pop\n      jump\t// out\n        /* \"#utility.yul\":12271:12456   */\n    tag_100:\n        /* \"#utility.yul\":12311:12312   */\n      0x00\n        /* \"#utility.yul\":12328:12348   */\n      tag_308\n        /* \"#utility.yul\":12346:12347   */\n      dup3\n        /* \"#utility.yul\":12328:12348   */\n      tag_271\n      jump\t// in\n    tag_308:\n        /* \"#utility.yul\":12323:12348   */\n      swap2\n      pop\n        /* \"#utility.yul\":12362:12382   */\n      tag_309\n        /* \"#utility.yul\":12380:12381   */\n      dup4\n        /* \"#utility.yul\":12362:12382   */\n      tag_271\n      jump\t// in\n    tag_309:\n        /* \"#utility.yul\":12357:12382   */\n      swap3\n      pop\n        /* \"#utility.yul\":12401:12402   */\n      dup3\n        /* \"#utility.yul\":12391:12426   */\n      tag_310\n      jumpi\n        /* \"#utility.yul\":12406:12424   */\n      tag_311\n      tag_312\n      jump\t// in\n    tag_311:\n        /* \"#utility.yul\":12391:12426   */\n    tag_310:\n        /* \"#utility.yul\":12448:12449   */\n      dup3\n        /* \"#utility.yul\":12445:12446   */\n      dup3\n        /* \"#utility.yul\":12441:12450   */\n      div\n        /* \"#utility.yul\":12436:12450   */\n      swap1\n      pop\n        /* \"#utility.yul\":12271:12456   */\n      swap3\n      swap2\n      pop\n      pop\n      jump\t// out\n        /* \"#utility.yul\":12462:12810   */\n    tag_102:\n        /* \"#utility.yul\":12502:12509   */\n      0x00\n        /* \"#utility.yul\":12525:12545   */\n      tag_314\n        /* \"#utility.yul\":12543:12544   */\n      dup3\n        /* \"#utility.yul\":12525:12545   */\n      tag_271\n      jump\t// in\n    tag_314:\n        /* \"#utility.yul\":12520:12545   */\n      swap2\n      pop\n        /* \"#utility.yul\":12559:12579   */\n      tag_315\n        /* \"#utility.yul\":12577:12578   */\n      dup4\n        /* \"#utility.yul\":12559:12579   */\n      tag_271\n      jump\t// in\n    tag_315:\n        /* \"#utility.yul\":12554:12579   */\n      swap3\n      pop\n        /* \"#utility.yul\":12747:12748   */\n      dup2\n        /* \"#utility.yul\":12679:12745   */\n      0xffffffffffffffffffffffffffffffffffffffffffffffffffffffffffffffff\n        /* \"#utility.yul\":12675:12749   */\n      div\n        /* \"#utility.yul\":12672:12673   */\n      dup4\n        /* \"#utility.yul\":12669:12750   */\n      gt\n        /* \"#utility.yul\":12664:12665   */\n      dup3\n        /* \"#utility.yul\":12657:12666   */\n      iszero\n        /* \"#utility.yul\":12650:12667   */\n      iszero\n        /* \"#utility.yul\":12646:12751   */\n      and\n        /* \"#utility.yul\":12643:12774   */\n      iszero\n      tag_316\n      jumpi\n        /* \"#utility.yul\":12754:12772   */\n      tag_317\n      tag_318\n      jump\t// in\n    tag_317:\n        /* \"#utility.yul\":12643:12774   */\n    tag_316:\n        /* \"#utility.yul\":12802:12803   */\n      dup3\n        /* \"#utility.yul\":12799:12800   */\n      dup3\n        /* \"#utility.yul\":12795:12804   */\n      mul\n        /* \"#utility.yul\":12784:12804   */\n      swap1\n      pop\n        /* \"#utility.yul\":12462:12810   */\n      swap3\n      swap2\n      pop\n      pop\n      jump\t// out\n        /* \"#utility.yul\":12816:12912   */\n    tag_217:\n        /* \"#utility.yul\":12853:12860   */\n      0x00\n        /* \"#utility.yul\":12882:12906   */\n      tag_320\n        /* \"#utility.yul\":12900:12905   */\n      dup3\n        /* \"#utility.yul\":12882:12906   */\n      tag_321\n      jump\t// in\n    tag_320:\n        /* \"#utility.yul\":12871:12906   */\n      swap1\n      pop\n        /* \"#utility.yul\":12816:12912   */\n      swap2\n      swap1\n      pop\n      jump\t// out\n        /* \"#utility.yul\":12918:13008   */\n    tag_322:\n        /* \"#utility.yul\":12952:12959   */\n      0x00\n        /* \"#utility.yul\":12995:13000   */\n      dup2\n        /* \"#utility.yul\":12988:13001   */\n      iszero\n        /* \"#utility.yul\":12981:13002   */\n      iszero\n        /* \"#utility.yul\":12970:13002   */\n      swap1\n      pop\n        /* \"#utility.yul\":12918:13008   */\n      swap2\n      swap1\n      pop\n      jump\t// out\n        /* \"#utility.yul\":13014:13090   */\n    tag_225:\n        /* \"#utility.yul\":13050:13057   */\n      0x00\n        /* \"#utility.yul\":13079:13084   */\n      dup2\n        /* \"#utility.yul\":13068:13084   */\n      swap1\n      pop\n        /* \"#utility.yul\":13014:13090   */\n      swap2\n      swap1\n      pop\n      jump\t// out\n        /* \"#utility.yul\":13096:13222   */\n    tag_321:\n        /* \"#utility.yul\":13133:13140   */\n      0x00\n        /* \"#utility.yul\":13173:13215   */\n      0xffffffffffffffffffffffffffffffffffffffff\n        /* \"#utility.yul\":13166:13171   */\n      dup3\n        /* \"#utility.yul\":13162:13216   */\n      and\n        /* \"#utility.yul\":13151:13216   */\n      swap1\n      pop\n        /* \"#utility.yul\":13096:13222   */\n      swap2\n      swap1\n      pop\n      jump\t// out\n        /* \"#utility.yul\":13228:13305   */\n    tag_271:\n        /* \"#utility.yul\":13265:13272   */\n      0x00\n        /* \"#utility.yul\":13294:13299   */\n      dup2\n        /* \"#utility.yul\":13283:13299   */\n      swap1\n      pop\n        /* \"#utility.yul\":13228:13305   */\n      swap2\n      swap1\n      pop\n      jump\t// out\n        /* \"#utility.yul\":13311:13416   */\n    tag_327:\n        /* \"#utility.yul\":13347:13354   */\n      0x00\n        /* \"#utility.yul\":13387:13409   */\n      0xffffffffffffffffffff\n        /* \"#utility.yul\":13380:13385   */\n      dup3\n        /* \"#utility.yul\":13376:13410   */\n      and\n        /* \"#utility.yul\":13365:13410   */\n      swap1\n      pop\n        /* \"#utility.yul\":13311:13416   */\n      swap2\n      swap1\n      pop\n      jump\t// out\n        /* \"#utility.yul\":13422:13562   */\n    tag_221:\n        /* \"#utility.yul\":13486:13495   */\n      0x00\n        /* \"#utility.yul\":13519:13556   */\n      tag_330\n        /* \"#utility.yul\":13550:13555   */\n      dup3\n        /* \"#utility.yul\":13519:13556   */\n      tag_331\n      jump\t// in\n    tag_330:\n        /* \"#utility.yul\":13506:13556   */\n      swap1\n      pop\n        /* \"#utility.yul\":13422:13562   */\n      swap2\n      swap1\n      pop\n      jump\t// out\n        /* \"#utility.yul\":13568:13694   */\n    tag_331:\n        /* \"#utility.yul\":13618:13627   */\n      0x00\n        /* \"#utility.yul\":13651:13688   */\n      tag_333\n        /* \"#utility.yul\":13682:13687   */\n      dup3\n        /* \"#utility.yul\":13651:13688   */\n      tag_334\n      jump\t// in\n    tag_333:\n        /* \"#utility.yul\":13638:13688   */\n      swap1\n      pop\n        /* \"#utility.yul\":13568:13694   */\n      swap2\n      swap1\n      pop\n      jump\t// out\n        /* \"#utility.yul\":13700:13813   */\n    tag_334:\n        /* \"#utility.yul\":13750:13759   */\n      0x00\n        /* \"#utility.yul\":13783:13807   */\n      tag_336\n        /* \"#utility.yul\":13801:13806   */\n      dup3\n        /* \"#utility.yul\":13783:13807   */\n      tag_321\n      jump\t// in\n    tag_336:\n        /* \"#utility.yul\":13770:13807   */\n      swap1\n      pop\n        /* \"#utility.yul\":13700:13813   */\n      swap2\n      swap1\n      pop\n      jump\t// out\n        /* \"#utility.yul\":13819:13999   */\n    tag_318:\n        /* \"#utility.yul\":13867:13944   */\n      0x4e487b7100000000000000000000000000000000000000000000000000000000\n        /* \"#utility.yul\":13864:13865   */\n      0x00\n        /* \"#utility.yul\":13857:13945   */\n      mstore\n        /* \"#utility.yul\":13964:13968   */\n      0x11\n        /* \"#utility.yul\":13961:13962   */\n      0x04\n        /* \"#utility.yul\":13954:13969   */\n      mstore\n        /* \"#utility.yul\":13988:13992   */\n      0x24\n        /* \"#utility.yul\":13985:13986   */\n      0x00\n        /* \"#utility.yul\":13978:13993   */\n      revert\n        /* \"#utility.yul\":14005:14185   */\n    tag_312:\n        /* \"#utility.yul\":14053:14130   */\n      0x4e487b7100000000000000000000000000000000000000000000000000000000\n        /* \"#utility.yul\":14050:14051   */\n      0x00\n        /* \"#utility.yul\":14043:14131   */\n      mstore\n        /* \"#utility.yul\":14150:14154   */\n      0x12\n        /* \"#utility.yul\":14147:14148   */\n      0x04\n        /* \"#utility.yul\":14140:14155   */\n      mstore\n        /* \"#utility.yul\":14174:14178   */\n      0x24\n        /* \"#utility.yul\":14171:14172   */\n      0x00\n        /* \"#utility.yul\":14164:14179   */\n      revert\n        /* \"#utility.yul\":14314:14431   */\n    tag_192:\n        /* \"#utility.yul\":14423:14424   */\n      0x00\n        /* \"#utility.yul\":14420:14421   */\n      dup1\n        /* \"#utility.yul\":14413:14425   */\n      revert\n        /* \"#utility.yul\":14437:14662   */\n    tag_231:\n        /* \"#utility.yul\":14577:14611   */\n      0x4f776e61626c653a206e6577206f776e657220697320746865207a65726f2061\n        /* \"#utility.yul\":14573:14574   */\n      0x00\n        /* \"#utility.yul\":14565:14571   */\n      dup3\n        /* \"#utility.yul\":14561:14575   */\n      add\n        /* \"#utility.yul\":14554:14612   */\n      mstore\n        /* \"#utility.yul\":14646:14654   */\n      0x6464726573730000000000000000000000000000000000000000000000000000\n        /* \"#utility.yul\":14641:14643   */\n      0x20\n        /* \"#utility.yul\":14633:14639   */\n      dup3\n        /* \"#utility.yul\":14629:14644   */\n      add\n        /* \"#utility.yul\":14622:14655   */\n      mstore\n        /* \"#utility.yul\":14437:14662   */\n      pop\n      jump\t// out\n        /* \"#utility.yul\":14668:14838   */\n    tag_236:\n        /* \"#utility.yul\":14808:14830   */\n      0x4661696c656420746f2073656e64204574686572000000000000000000000000\n        /* \"#utility.yul\":14804:14805   */\n      0x00\n        /* \"#utility.yul\":14796:14802   */\n      dup3\n        /* \"#utility.yul\":14792:14806   */\n      add\n        /* \"#utility.yul\":14785:14831   */\n      mstore\n        /* \"#utility.yul\":14668:14838   */\n      pop\n      jump\t// out\n        /* \"#utility.yul\":14844:15015   */\n    tag_241:\n        /* \"#utility.yul\":14984:15007   */\n      0x546f6b656e207472616e73666572206661696c65640000000000000000000000\n        /* \"#utility.yul\":14980:14981   */\n      0x00\n        /* \"#utility.yul\":14972:14978   */\n      dup3\n        /* \"#utility.yul\":14968:14982   */\n      add\n        /* \"#utility.yul\":14961:15008   */\n      mstore\n        /* \"#utility.yul\":14844:15015   */\n      pop\n      jump\t// out\n        /* \"#utility.yul\":15021:15197   */\n    tag_246:\n        /* \"#utility.yul\":15161:15189   */\n      0x4d696e696d756d20747261646520616d6f756e74203120626e62000000000000\n        /* \"#utility.yul\":15157:15158   */\n      0x00\n        /* \"#utility.yul\":15149:15155   */\n      dup3\n        /* \"#utility.yul\":15145:15159   */\n      add\n        /* \"#utility.yul\":15138:15190   */\n      mstore\n        /* \"#utility.yul\":15021:15197   */\n      pop\n      jump\t// out\n        /* \"#utility.yul\":15203:15372   */\n    tag_251:\n        /* \"#utility.yul\":15343:15364   */\n      0x4d757374206265203120626e6220776f72746800000000000000000000000000\n        /* \"#utility.yul\":15339:15340   */\n      0x00\n        /* \"#utility.yul\":15331:15337   */\n      dup3\n        /* \"#utility.yul\":15327:15341   */\n      add\n        /* \"#utility.yul\":15320:15365   */\n      mstore\n        /* \"#utility.yul\":15203:15372   */\n      pop\n      jump\t// out\n        /* \"#utility.yul\":15378:15544   */\n    tag_256:\n        /* \"#utility.yul\":15518:15536   */\n      0x5472616e73666572206661696c65642100000000000000000000000000000000\n        /* \"#utility.yul\":15514:15515   */\n      0x00\n        /* \"#utility.yul\":15506:15512   */\n      dup3\n        /* \"#utility.yul\":15502:15516   */\n      add\n        /* \"#utility.yul\":15495:15537   */\n      mstore\n        /* \"#utility.yul\":15378:15544   */\n      pop\n      jump\t// out\n        /* \"#utility.yul\":15550:15732   */\n    tag_261:\n        /* \"#utility.yul\":15690:15724   */\n      0x4f776e61626c653a2063616c6c6572206973206e6f7420746865206f776e6572\n        /* \"#utility.yul\":15686:15687   */\n      0x00\n        /* \"#utility.yul\":15678:15684   */\n      dup3\n        /* \"#utility.yul\":15674:15688   */\n      add\n        /* \"#utility.yul\":15667:15725   */\n      mstore\n        /* \"#utility.yul\":15550:15732   */\n      pop\n      jump\t// out\n        /* \"#utility.yul\":15738:15852   */\n    tag_267:\n      pop\n      jump\t// out\n        /* \"#utility.yul\":15858:15980   */\n    tag_169:\n        /* \"#utility.yul\":15931:15955   */\n      tag_351\n        /* \"#utility.yul\":15949:15954   */\n      dup2\n        /* \"#utility.yul\":15931:15955   */\n      tag_217\n      jump\t// in\n    tag_351:\n        /* \"#utility.yul\":15924:15929   */\n      dup2\n        /* \"#utility.yul\":15921:15956   */\n      eq\n        /* \"#utility.yul\":15911:15974   */\n      tag_352\n      jumpi\n        /* \"#utility.yul\":15970:15971   */\n      0x00\n        /* \"#utility.yul\":15967:15968   */\n      dup1\n        /* \"#utility.yul\":15960:15972   */\n      revert\n        /* \"#utility.yul\":15911:15974   */\n    tag_352:\n        /* \"#utility.yul\":15858:15980   */\n      pop\n      jump\t// out\n        /* \"#utility.yul\":15986:16102   */\n    tag_173:\n        /* \"#utility.yul\":16056:16077   */\n      tag_354\n        /* \"#utility.yul\":16071:16076   */\n      dup2\n        /* \"#utility.yul\":16056:16077   */\n      tag_322\n      jump\t// in\n    tag_354:\n        /* \"#utility.yul\":16049:16054   */\n      dup2\n        /* \"#utility.yul\":16046:16078   */\n      eq\n        /* \"#utility.yul\":16036:16096   */\n      tag_355\n      jumpi\n        /* \"#utility.yul\":16092:16093   */\n      0x00\n        /* \"#utility.yul\":16089:16090   */\n      dup1\n        /* \"#utility.yul\":16082:16094   */\n      revert\n        /* \"#utility.yul\":16036:16096   */\n    tag_355:\n        /* \"#utility.yul\":15986:16102   */\n      pop\n      jump\t// out\n        /* \"#utility.yul\":16108:16228   */\n    tag_177:\n        /* \"#utility.yul\":16180:16203   */\n      tag_357\n        /* \"#utility.yul\":16197:16202   */\n      dup2\n        /* \"#utility.yul\":16180:16203   */\n      tag_225\n      jump\t// in\n    tag_357:\n        /* \"#utility.yul\":16173:16178   */\n      dup2\n        /* \"#utility.yul\":16170:16204   */\n      eq\n        /* \"#utility.yul\":16160:16222   */\n      tag_358\n      jumpi\n        /* \"#utility.yul\":16218:16219   */\n      0x00\n        /* \"#utility.yul\":16215:16216   */\n      dup1\n        /* \"#utility.yul\":16208:16220   */\n      revert\n        /* \"#utility.yul\":16160:16222   */\n    tag_358:\n        /* \"#utility.yul\":16108:16228   */\n      pop\n      jump\t// out\n        /* \"#utility.yul\":16234:16356   */\n    tag_181:\n        /* \"#utility.yul\":16307:16331   */\n      tag_360\n        /* \"#utility.yul\":16325:16330   */\n      dup2\n        /* \"#utility.yul\":16307:16331   */\n      tag_271\n      jump\t// in\n    tag_360:\n        /* \"#utility.yul\":16300:16305   */\n      dup2\n        /* \"#utility.yul\":16297:16332   */\n      eq\n        /* \"#utility.yul\":16287:16350   */\n      tag_361\n      jumpi\n        /* \"#utility.yul\":16346:16347   */\n      0x00\n        /* \"#utility.yul\":16343:16344   */\n      dup1\n        /* \"#utility.yul\":16336:16348   */\n      revert\n        /* \"#utility.yul\":16287:16350   */\n    tag_361:\n        /* \"#utility.yul\":16234:16356   */\n      pop\n      jump\t// out\n        /* \"#utility.yul\":16362:16482   */\n    tag_188:\n        /* \"#utility.yul\":16434:16457   */\n      tag_363\n        /* \"#utility.yul\":16451:16456   */\n      dup2\n        /* \"#utility.yul\":16434:16457   */\n      tag_327\n      jump\t// in\n    tag_363:\n        /* \"#utility.yul\":16427:16432   */\n      dup2\n        /* \"#utility.yul\":16424:16458   */\n      eq\n        /* \"#utility.yul\":16414:16476   */\n      tag_364\n      jumpi\n        /* \"#utility.yul\":16472:16473   */\n      0x00\n        /* \"#utility.yul\":16469:16470   */\n      dup1\n        /* \"#utility.yul\":16462:16474   */\n      revert\n        /* \"#utility.yul\":16414:16476   */\n    tag_364:\n        /* \"#utility.yul\":16362:16482   */\n      pop\n      jump\t// out\n\n    auxdata: 0xa2646970667358221220b2333d54799e839cd7451ca9389d499c74cc7e2bc9e43036aca7b3460daf538264736f6c63430008070033\n}\n",
				"bytecode": {
					"linkReferences": {},
					"object": "608060405234801561001057600080fd5b5061002d61002261013b60201b60201c565b61014360201b60201c565b620186a060028190555073e5ba47fd94cb645ba4119222e34fb33f59c7cd90600360006101000a81548173ffffffffffffffffffffffffffffffffffffffff021916908373ffffffffffffffffffffffffffffffffffffffff160217905550738ac76a51cc950d9822d68b83fe1ad97b32cd580d600460006101000a81548173ffffffffffffffffffffffffffffffffffffffff021916908373ffffffffffffffffffffffffffffffffffffffff160217905550739326bfa02add2366b30bacb125260af641031331600160006101000a81548173ffffffffffffffffffffffffffffffffffffffff021916908373ffffffffffffffffffffffffffffffffffffffff160217905550610207565b600033905090565b60008060009054906101000a900473ffffffffffffffffffffffffffffffffffffffff169050816000806101000a81548173ffffffffffffffffffffffffffffffffffffffff021916908373ffffffffffffffffffffffffffffffffffffffff1602179055508173ffffffffffffffffffffffffffffffffffffffff168173ffffffffffffffffffffffffffffffffffffffff167f8be0079c531659141344cd1fd0a4f28419497f9722a3daafe3b4186f6b6457e060405160405180910390a35050565b6114ae806102166000396000f3fe60806040526004361061009c5760003560e01c806389a302711161006457806389a302711461013f5780638da5cb5b1461016a5780638e15f47314610195578063ade87ecc146101c0578063ebc4197c146101e9578063f2fde38b146102145761009c565b806323b160ac146100a15780633cb40e16146100cc578063715018a6146100e357806380c31426146100fa578063817e9d3114610116575b600080fd5b3480156100ad57600080fd5b506100b661023d565b6040516100c39190610fe4565b60405180910390f35b3480156100d857600080fd5b506100e1610263565b005b3480156100ef57600080fd5b506100f861047a565b005b610114600480360381019061010f9190610d2b565b610502565b005b34801561012257600080fd5b5061013d60048036038101906101389190610d2b565b6106d4565b005b34801561014b57600080fd5b5061015461075a565b6040516101619190610fe4565b60405180910390f35b34801561017657600080fd5b5061017f610780565b60405161018c9190610f69565b60405180910390f35b3480156101a157600080fd5b506101aa6107a9565b6040516101b79190610fff565b60405180910390f35b3480156101cc57600080fd5b506101e760048036038101906101e29190610d2b565b610867565b005b3480156101f557600080fd5b506101fe6109af565b60405161020b91906110fa565b60405180910390f35b34801561022057600080fd5b5061023b60048036038101906102369190610cd1565b6109b5565b005b600360009054906101000a900473ffffffffffffffffffffffffffffffffffffffff1681565b600061026d610780565b73ffffffffffffffffffffffffffffffffffffffff164760405161029090610f54565b60006040518083038185875af1925050503d80600081146102cd576040519150601f19603f3d011682016040523d82523d6000602084013e6102d2565b606091505b5050905080610316576040517f08c379a000000000000000000000000000000000000000000000000000000000815260040161030d9061103a565b60405180910390fd5b600360009054906101000a900473ffffffffffffffffffffffffffffffffffffffff1673ffffffffffffffffffffffffffffffffffffffff1663a9059cbb61035c610780565b600360009054906101000a900473ffffffffffffffffffffffffffffffffffffffff1673ffffffffffffffffffffffffffffffffffffffff166370a08231306040518263ffffffff1660e01b81526004016103b79190610f69565b60206040518083038186803b1580156103cf57600080fd5b505afa1580156103e3573d6000803e3d6000fd5b505050506040513d601f19601f820116820180604052508101906104079190610d58565b6040518363ffffffff1660e01b8152600401610424929190610fbb565b602060405180830381600087803b15801561043e57600080fd5b505af1158015610452573d6000803e3d6000fd5b505050506040513d601f19601f820116820180604052508101906104769190610cfe565b5050565b610482610aad565b73ffffffffffffffffffffffffffffffffffffffff166104a0610780565b73ffffffffffffffffffffffffffffffffffffffff16146104f6576040517f08c379a00000000000000000000000000000000000000000000000000000000081526004016104ed906110da565b60405180910390fd5b6105006000610ab5565b565b600254811015610547576040517f08c379a000000000000000000000000000000000000000000000000000000000815260040161053e9061107a565b60405180910390fd5b6000670de0b6b3a7640000600254836105609190611131565b61056a9190611162565b90506000610576610780565b73ffffffffffffffffffffffffffffffffffffffff168260405161059990610f54565b60006040518083038185875af1925050503d80600081146105d6576040519150601f19603f3d011682016040523d82523d6000602084013e6105db565b606091505b505090508061061f576040517f08c379a0000000000000000000000000000000000000000000000000000000008152600401610616906110ba565b60405180910390fd5b600360009054906101000a900473ffffffffffffffffffffffffffffffffffffffff1673ffffffffffffffffffffffffffffffffffffffff1663a9059cbb33856040518363ffffffff1660e01b815260040161067c929190610fbb565b602060405180830381600087803b15801561069657600080fd5b505af11580156106aa573d6000803e3d6000fd5b505050506040513d601f19601f820116820180604052508101906106ce9190610cfe565b50505050565b6106dc610aad565b73ffffffffffffffffffffffffffffffffffffffff166106fa610780565b73ffffffffffffffffffffffffffffffffffffffff1614610750576040517f08c379a0000000000000000000000000000000000000000000000000000000008152600401610747906110da565b60405180910390fd5b8060028190555050565b600460009054906101000a900473ffffffffffffffffffffffffffffffffffffffff1681565b60008060009054906101000a900473ffffffffffffffffffffffffffffffffffffffff16905090565b600080600080600080600160009054906101000a900473ffffffffffffffffffffffffffffffffffffffff1673ffffffffffffffffffffffffffffffffffffffff1663feaf968c6040518163ffffffff1660e01b815260040160a06040518083038186803b15801561081a57600080fd5b505afa15801561082e573d6000803e3d6000fd5b505050506040513d601f19601f820116820180604052508101906108529190610d85565b94509450945094509450839550505050505090565b60025481146108ab576040517f08c379a00000000000000000000000000000000000000000000000000000000081526004016108a29061109a565b60405180910390fd5b6108d9600360009054906101000a900473ffffffffffffffffffffffffffffffffffffffff16333084610b79565b6000670de0b6b3a7640000600254836108f29190611131565b6108fc9190611162565b905060003373ffffffffffffffffffffffffffffffffffffffff168260405161092490610f54565b60006040518083038185875af1925050503d8060008114610961576040519150601f19603f3d011682016040523d82523d6000602084013e610966565b606091505b50509050806109aa576040517f08c379a00000000000000000000000000000000000000000000000000000000081526004016109a1906110ba565b60405180910390fd5b505050565b60025481565b6109bd610aad565b73ffffffffffffffffffffffffffffffffffffffff166109db610780565b73ffffffffffffffffffffffffffffffffffffffff1614610a31576040517f08c379a0000000000000000000000000000000000000000000000000000000008152600401610a28906110da565b60405180910390fd5b600073ffffffffffffffffffffffffffffffffffffffff168173ffffffffffffffffffffffffffffffffffffffff161415610aa1576040517f08c379a0000000000000000000000000000000000000000000000000000000008152600401610a989061101a565b60405180910390fd5b610aaa81610ab5565b50565b600033905090565b60008060009054906101000a900473ffffffffffffffffffffffffffffffffffffffff169050816000806101000a81548173ffffffffffffffffffffffffffffffffffffffff021916908373ffffffffffffffffffffffffffffffffffffffff1602179055508173ffffffffffffffffffffffffffffffffffffffff168173ffffffffffffffffffffffffffffffffffffffff167f8be0079c531659141344cd1fd0a4f28419497f9722a3daafe3b4186f6b6457e060405160405180910390a35050565b60008473ffffffffffffffffffffffffffffffffffffffff166323b872dd8585856040518463ffffffff1660e01b8152600401610bb893929190610f84565b602060405180830381600087803b158015610bd257600080fd5b505af1158015610be6573d6000803e3d6000fd5b505050506040513d601f19601f82011682018060405250810190610c0a9190610cfe565b905080610c4c576040517f08c379a0000000000000000000000000000000000000000000000000000000008152600401610c439061105a565b60405180910390fd5b5050505050565b600081359050610c6281611405565b92915050565b600081519050610c778161141c565b92915050565b600081519050610c8c81611433565b92915050565b600081359050610ca18161144a565b92915050565b600081519050610cb68161144a565b92915050565b600081519050610ccb81611461565b92915050565b600060208284031215610ce757610ce66112b8565b5b6000610cf584828501610c53565b91505092915050565b600060208284031215610d1457610d136112b8565b5b6000610d2284828501610c68565b91505092915050565b600060208284031215610d4157610d406112b8565b5b6000610d4f84828501610c92565b91505092915050565b600060208284031215610d6e57610d6d6112b8565b5b6000610d7c84828501610ca7565b91505092915050565b600080600080600060a08688031215610da157610da06112b8565b5b6000610daf88828901610cbc565b9550506020610dc088828901610c7d565b9450506040610dd188828901610ca7565b9350506060610de288828901610ca7565b9250506080610df388828901610cbc565b9150509295509295909350565b610e09816111bc565b82525050565b610e1881611224565b82525050565b610e27816111da565b82525050565b6000610e3a602683611120565b9150610e45826112bd565b604082019050919050565b6000610e5d601483611120565b9150610e688261130c565b602082019050919050565b6000610e80601583611120565b9150610e8b82611335565b602082019050919050565b6000610ea3601a83611120565b9150610eae8261135e565b602082019050919050565b6000610ec6601383611120565b9150610ed182611387565b602082019050919050565b6000610ee9601083611120565b9150610ef4826113b0565b602082019050919050565b6000610f0c602083611120565b9150610f17826113d9565b602082019050919050565b6000610f2f600083611115565b9150610f3a82611402565b600082019050919050565b610f4e81611204565b82525050565b6000610f5f82610f22565b9150819050919050565b6000602082019050610f7e6000830184610e00565b92915050565b6000606082019050610f996000830186610e00565b610fa66020830185610e00565b610fb36040830184610f45565b949350505050565b6000604082019050610fd06000830185610e00565b610fdd6020830184610f45565b9392505050565b6000602082019050610ff96000830184610e0f565b92915050565b60006020820190506110146000830184610e1e565b92915050565b6000602082019050818103600083015261103381610e2d565b9050919050565b6000602082019050818103600083015261105381610e50565b9050919050565b6000602082019050818103600083015261107381610e73565b9050919050565b6000602082019050818103600083015261109381610e96565b9050919050565b600060208201905081810360008301526110b381610eb9565b9050919050565b600060208201905081810360008301526110d381610edc565b9050919050565b600060208201905081810360008301526110f381610eff565b9050919050565b600060208201905061110f6000830184610f45565b92915050565b600081905092915050565b600082825260208201905092915050565b600061113c82611204565b915061114783611204565b92508261115757611156611289565b5b828204905092915050565b600061116d82611204565b915061117883611204565b9250817fffffffffffffffffffffffffffffffffffffffffffffffffffffffffffffffff04831182151516156111b1576111b061125a565b5b828202905092915050565b60006111c7826111e4565b9050919050565b60008115159050919050565b6000819050919050565b600073ffffffffffffffffffffffffffffffffffffffff82169050919050565b6000819050919050565b600069ffffffffffffffffffff82169050919050565b600061122f82611236565b9050919050565b600061124182611248565b9050919050565b6000611253826111e4565b9050919050565b7f4e487b7100000000000000000000000000000000000000000000000000000000600052601160045260246000fd5b7f4e487b7100000000000000000000000000000000000000000000000000000000600052601260045260246000fd5b600080fd5b7f4f776e61626c653a206e6577206f776e657220697320746865207a65726f206160008201527f6464726573730000000000000000000000000000000000000000000000000000602082015250565b7f4661696c656420746f2073656e64204574686572000000000000000000000000600082015250565b7f546f6b656e207472616e73666572206661696c65640000000000000000000000600082015250565b7f4d696e696d756d20747261646520616d6f756e74203120626e62000000000000600082015250565b7f4d757374206265203120626e6220776f72746800000000000000000000000000600082015250565b7f5472616e73666572206661696c65642100000000000000000000000000000000600082015250565b7f4f776e61626c653a2063616c6c6572206973206e6f7420746865206f776e6572600082015250565b50565b61140e816111bc565b811461141957600080fd5b50565b611425816111ce565b811461143057600080fd5b50565b61143c816111da565b811461144757600080fd5b50565b61145381611204565b811461145e57600080fd5b50565b61146a8161120e565b811461147557600080fd5b5056fea2646970667358221220b2333d54799e839cd7451ca9389d499c74cc7e2bc9e43036aca7b3460daf538264736f6c63430008070033",
					"opcodes": "PUSH1 0x80 PUSH1 0x40 MSTORE CALLVALUE DUP1 ISZERO PUSH2 0x10 JUMPI PUSH1 0x0 DUP1 REVERT JUMPDEST POP PUSH2 0x2D PUSH2 0x22 PUSH2 0x13B PUSH1 0x20 SHL PUSH1 0x20 SHR JUMP JUMPDEST PUSH2 0x143 PUSH1 0x20 SHL PUSH1 0x20 SHR JUMP JUMPDEST PUSH3 0x186A0 PUSH1 0x2 DUP2 SWAP1 SSTORE POP PUSH20 0xE5BA47FD94CB645BA4119222E34FB33F59C7CD90 PUSH1 0x3 PUSH1 0x0 PUSH2 0x100 EXP DUP2 SLOAD DUP2 PUSH20 0xFFFFFFFFFFFFFFFFFFFFFFFFFFFFFFFFFFFFFFFF MUL NOT AND SWAP1 DUP4 PUSH20 0xFFFFFFFFFFFFFFFFFFFFFFFFFFFFFFFFFFFFFFFF AND MUL OR SWAP1 SSTORE POP PUSH20 0x8AC76A51CC950D9822D68B83FE1AD97B32CD580D PUSH1 0x4 PUSH1 0x0 PUSH2 0x100 EXP DUP2 SLOAD DUP2 PUSH20 0xFFFFFFFFFFFFFFFFFFFFFFFFFFFFFFFFFFFFFFFF MUL NOT AND SWAP1 DUP4 PUSH20 0xFFFFFFFFFFFFFFFFFFFFFFFFFFFFFFFFFFFFFFFF AND MUL OR SWAP1 SSTORE POP PUSH20 0x9326BFA02ADD2366B30BACB125260AF641031331 PUSH1 0x1 PUSH1 0x0 PUSH2 0x100 EXP DUP2 SLOAD DUP2 PUSH20 0xFFFFFFFFFFFFFFFFFFFFFFFFFFFFFFFFFFFFFFFF MUL NOT AND SWAP1 DUP4 PUSH20 0xFFFFFFFFFFFFFFFFFFFFFFFFFFFFFFFFFFFFFFFF AND MUL OR SWAP1 SSTORE POP PUSH2 0x207 JUMP JUMPDEST PUSH1 0x0 CALLER SWAP1 POP SWAP1 JUMP JUMPDEST PUSH1 0x0 DUP1 PUSH1 0x0 SWAP1 SLOAD SWAP1 PUSH2 0x100 EXP SWAP1 DIV PUSH20 0xFFFFFFFFFFFFFFFFFFFFFFFFFFFFFFFFFFFFFFFF AND SWAP1 POP DUP2 PUSH1 0x0 DUP1 PUSH2 0x100 EXP DUP2 SLOAD DUP2 PUSH20 0xFFFFFFFFFFFFFFFFFFFFFFFFFFFFFFFFFFFFFFFF MUL NOT AND SWAP1 DUP4 PUSH20 0xFFFFFFFFFFFFFFFFFFFFFFFFFFFFFFFFFFFFFFFF AND MUL OR SWAP1 SSTORE POP DUP2 PUSH20 0xFFFFFFFFFFFFFFFFFFFFFFFFFFFFFFFFFFFFFFFF AND DUP2 PUSH20 0xFFFFFFFFFFFFFFFFFFFFFFFFFFFFFFFFFFFFFFFF AND PUSH32 0x8BE0079C531659141344CD1FD0A4F28419497F9722A3DAAFE3B4186F6B6457E0 PUSH1 0x40 MLOAD PUSH1 0x40 MLOAD DUP1 SWAP2 SUB SWAP1 LOG3 POP POP JUMP JUMPDEST PUSH2 0x14AE DUP1 PUSH2 0x216 PUSH1 0x0 CODECOPY PUSH1 0x0 RETURN INVALID PUSH1 0x80 PUSH1 0x40 MSTORE PUSH1 0x4 CALLDATASIZE LT PUSH2 0x9C JUMPI PUSH1 0x0 CALLDATALOAD PUSH1 0xE0 SHR DUP1 PUSH4 0x89A30271 GT PUSH2 0x64 JUMPI DUP1 PUSH4 0x89A30271 EQ PUSH2 0x13F JUMPI DUP1 PUSH4 0x8DA5CB5B EQ PUSH2 0x16A JUMPI DUP1 PUSH4 0x8E15F473 EQ PUSH2 0x195 JUMPI DUP1 PUSH4 0xADE87ECC EQ PUSH2 0x1C0 JUMPI DUP1 PUSH4 0xEBC4197C EQ PUSH2 0x1E9 JUMPI DUP1 PUSH4 0xF2FDE38B EQ PUSH2 0x214 JUMPI PUSH2 0x9C JUMP JUMPDEST DUP1 PUSH4 0x23B160AC EQ PUSH2 0xA1 JUMPI DUP1 PUSH4 0x3CB40E16 EQ PUSH2 0xCC JUMPI DUP1 PUSH4 0x715018A6 EQ PUSH2 0xE3 JUMPI DUP1 PUSH4 0x80C31426 EQ PUSH2 0xFA JUMPI DUP1 PUSH4 0x817E9D31 EQ PUSH2 0x116 JUMPI JUMPDEST PUSH1 0x0 DUP1 REVERT JUMPDEST CALLVALUE DUP1 ISZERO PUSH2 0xAD JUMPI PUSH1 0x0 DUP1 REVERT JUMPDEST POP PUSH2 0xB6 PUSH2 0x23D JUMP JUMPDEST PUSH1 0x40 MLOAD PUSH2 0xC3 SWAP2 SWAP1 PUSH2 0xFE4 JUMP JUMPDEST PUSH1 0x40 MLOAD DUP1 SWAP2 SUB SWAP1 RETURN JUMPDEST CALLVALUE DUP1 ISZERO PUSH2 0xD8 JUMPI PUSH1 0x0 DUP1 REVERT JUMPDEST POP PUSH2 0xE1 PUSH2 0x263 JUMP JUMPDEST STOP JUMPDEST CALLVALUE DUP1 ISZERO PUSH2 0xEF JUMPI PUSH1 0x0 DUP1 REVERT JUMPDEST POP PUSH2 0xF8 PUSH2 0x47A JUMP JUMPDEST STOP JUMPDEST PUSH2 0x114 PUSH1 0x4 DUP1 CALLDATASIZE SUB DUP2 ADD SWAP1 PUSH2 0x10F SWAP2 SWAP1 PUSH2 0xD2B JUMP JUMPDEST PUSH2 0x502 JUMP JUMPDEST STOP JUMPDEST CALLVALUE DUP1 ISZERO PUSH2 0x122 JUMPI PUSH1 0x0 DUP1 REVERT JUMPDEST POP PUSH2 0x13D PUSH1 0x4 DUP1 CALLDATASIZE SUB DUP2 ADD SWAP1 PUSH2 0x138 SWAP2 SWAP1 PUSH2 0xD2B JUMP JUMPDEST PUSH2 0x6D4 JUMP JUMPDEST STOP JUMPDEST CALLVALUE DUP1 ISZERO PUSH2 0x14B JUMPI PUSH1 0x0 DUP1 REVERT JUMPDEST POP PUSH2 0x154 PUSH2 0x75A JUMP JUMPDEST PUSH1 0x40 MLOAD PUSH2 0x161 SWAP2 SWAP1 PUSH2 0xFE4 JUMP JUMPDEST PUSH1 0x40 MLOAD DUP1 SWAP2 SUB SWAP1 RETURN JUMPDEST CALLVALUE DUP1 ISZERO PUSH2 0x176 JUMPI PUSH1 0x0 DUP1 REVERT JUMPDEST POP PUSH2 0x17F PUSH2 0x780 JUMP JUMPDEST PUSH1 0x40 MLOAD PUSH2 0x18C SWAP2 SWAP1 PUSH2 0xF69 JUMP JUMPDEST PUSH1 0x40 MLOAD DUP1 SWAP2 SUB SWAP1 RETURN JUMPDEST CALLVALUE DUP1 ISZERO PUSH2 0x1A1 JUMPI PUSH1 0x0 DUP1 REVERT JUMPDEST POP PUSH2 0x1AA PUSH2 0x7A9 JUMP JUMPDEST PUSH1 0x40 MLOAD PUSH2 0x1B7 SWAP2 SWAP1 PUSH2 0xFFF JUMP JUMPDEST PUSH1 0x40 MLOAD DUP1 SWAP2 SUB SWAP1 RETURN JUMPDEST CALLVALUE DUP1 ISZERO PUSH2 0x1CC JUMPI PUSH1 0x0 DUP1 REVERT JUMPDEST POP PUSH2 0x1E7 PUSH1 0x4 DUP1 CALLDATASIZE SUB DUP2 ADD SWAP1 PUSH2 0x1E2 SWAP2 SWAP1 PUSH2 0xD2B JUMP JUMPDEST PUSH2 0x867 JUMP JUMPDEST STOP JUMPDEST CALLVALUE DUP1 ISZERO PUSH2 0x1F5 JUMPI PUSH1 0x0 DUP1 REVERT JUMPDEST POP PUSH2 0x1FE PUSH2 0x9AF JUMP JUMPDEST PUSH1 0x40 MLOAD PUSH2 0x20B SWAP2 SWAP1 PUSH2 0x10FA JUMP JUMPDEST PUSH1 0x40 MLOAD DUP1 SWAP2 SUB SWAP1 RETURN JUMPDEST CALLVALUE DUP1 ISZERO PUSH2 0x220 JUMPI PUSH1 0x0 DUP1 REVERT JUMPDEST POP PUSH2 0x23B PUSH1 0x4 DUP1 CALLDATASIZE SUB DUP2 ADD SWAP1 PUSH2 0x236 SWAP2 SWAP1 PUSH2 0xCD1 JUMP JUMPDEST PUSH2 0x9B5 JUMP JUMPDEST STOP JUMPDEST PUSH1 0x3 PUSH1 0x0 SWAP1 SLOAD SWAP1 PUSH2 0x100 EXP SWAP1 DIV PUSH20 0xFFFFFFFFFFFFFFFFFFFFFFFFFFFFFFFFFFFFFFFF AND DUP2 JUMP JUMPDEST PUSH1 0x0 PUSH2 0x26D PUSH2 0x780 JUMP JUMPDEST PUSH20 0xFFFFFFFFFFFFFFFFFFFFFFFFFFFFFFFFFFFFFFFF AND SELFBALANCE PUSH1 0x40 MLOAD PUSH2 0x290 SWAP1 PUSH2 0xF54 JUMP JUMPDEST PUSH1 0x0 PUSH1 0x40 MLOAD DUP1 DUP4 SUB DUP2 DUP6 DUP8 GAS CALL SWAP3 POP POP POP RETURNDATASIZE DUP1 PUSH1 0x0 DUP2 EQ PUSH2 0x2CD JUMPI PUSH1 0x40 MLOAD SWAP2 POP PUSH1 0x1F NOT PUSH1 0x3F RETURNDATASIZE ADD AND DUP3 ADD PUSH1 0x40 MSTORE RETURNDATASIZE DUP3 MSTORE RETURNDATASIZE PUSH1 0x0 PUSH1 0x20 DUP5 ADD RETURNDATACOPY PUSH2 0x2D2 JUMP JUMPDEST PUSH1 0x60 SWAP2 POP JUMPDEST POP POP SWAP1 POP DUP1 PUSH2 0x316 JUMPI PUSH1 0x40 MLOAD PUSH32 0x8C379A000000000000000000000000000000000000000000000000000000000 DUP2 MSTORE PUSH1 0x4 ADD PUSH2 0x30D SWAP1 PUSH2 0x103A JUMP JUMPDEST PUSH1 0x40 MLOAD DUP1 SWAP2 SUB SWAP1 REVERT JUMPDEST PUSH1 0x3 PUSH1 0x0 SWAP1 SLOAD SWAP1 PUSH2 0x100 EXP SWAP1 DIV PUSH20 0xFFFFFFFFFFFFFFFFFFFFFFFFFFFFFFFFFFFFFFFF AND PUSH20 0xFFFFFFFFFFFFFFFFFFFFFFFFFFFFFFFFFFFFFFFF AND PUSH4 0xA9059CBB PUSH2 0x35C PUSH2 0x780 JUMP JUMPDEST PUSH1 0x3 PUSH1 0x0 SWAP1 SLOAD SWAP1 PUSH2 0x100 EXP SWAP1 DIV PUSH20 0xFFFFFFFFFFFFFFFFFFFFFFFFFFFFFFFFFFFFFFFF AND PUSH20 0xFFFFFFFFFFFFFFFFFFFFFFFFFFFFFFFFFFFFFFFF AND PUSH4 0x70A08231 ADDRESS PUSH1 0x40 MLOAD DUP3 PUSH4 0xFFFFFFFF AND PUSH1 0xE0 SHL DUP2 MSTORE PUSH1 0x4 ADD PUSH2 0x3B7 SWAP2 SWAP1 PUSH2 0xF69 JUMP JUMPDEST PUSH1 0x20 PUSH1 0x40 MLOAD DUP1 DUP4 SUB DUP2 DUP7 DUP1 EXTCODESIZE ISZERO DUP1 ISZERO PUSH2 0x3CF JUMPI PUSH1 0x0 DUP1 REVERT JUMPDEST POP GAS STATICCALL ISZERO DUP1 ISZERO PUSH2 0x3E3 JUMPI RETURNDATASIZE PUSH1 0x0 DUP1 RETURNDATACOPY RETURNDATASIZE PUSH1 0x0 REVERT JUMPDEST POP POP POP POP PUSH1 0x40 MLOAD RETURNDATASIZE PUSH1 0x1F NOT PUSH1 0x1F DUP3 ADD AND DUP3 ADD DUP1 PUSH1 0x40 MSTORE POP DUP2 ADD SWAP1 PUSH2 0x407 SWAP2 SWAP1 PUSH2 0xD58 JUMP JUMPDEST PUSH1 0x40 MLOAD DUP4 PUSH4 0xFFFFFFFF AND PUSH1 0xE0 SHL DUP2 MSTORE PUSH1 0x4 ADD PUSH2 0x424 SWAP3 SWAP2 SWAP1 PUSH2 0xFBB JUMP JUMPDEST PUSH1 0x20 PUSH1 0x40 MLOAD DUP1 DUP4 SUB DUP2 PUSH1 0x0 DUP8 DUP1 EXTCODESIZE ISZERO DUP1 ISZERO PUSH2 0x43E JUMPI PUSH1 0x0 DUP1 REVERT JUMPDEST POP GAS CALL ISZERO DUP1 ISZERO PUSH2 0x452 JUMPI RETURNDATASIZE PUSH1 0x0 DUP1 RETURNDATACOPY RETURNDATASIZE PUSH1 0x0 REVERT JUMPDEST POP POP POP POP PUSH1 0x40 MLOAD RETURNDATASIZE PUSH1 0x1F NOT PUSH1 0x1F DUP3 ADD AND DUP3 ADD DUP1 PUSH1 0x40 MSTORE POP DUP2 ADD SWAP1 PUSH2 0x476 SWAP2 SWAP1 PUSH2 0xCFE JUMP JUMPDEST POP POP JUMP JUMPDEST PUSH2 0x482 PUSH2 0xAAD JUMP JUMPDEST PUSH20 0xFFFFFFFFFFFFFFFFFFFFFFFFFFFFFFFFFFFFFFFF AND PUSH2 0x4A0 PUSH2 0x780 JUMP JUMPDEST PUSH20 0xFFFFFFFFFFFFFFFFFFFFFFFFFFFFFFFFFFFFFFFF AND EQ PUSH2 0x4F6 JUMPI PUSH1 0x40 MLOAD PUSH32 0x8C379A000000000000000000000000000000000000000000000000000000000 DUP2 MSTORE PUSH1 0x4 ADD PUSH2 0x4ED SWAP1 PUSH2 0x10DA JUMP JUMPDEST PUSH1 0x40 MLOAD DUP1 SWAP2 SUB SWAP1 REVERT JUMPDEST PUSH2 0x500 PUSH1 0x0 PUSH2 0xAB5 JUMP JUMPDEST JUMP JUMPDEST PUSH1 0x2 SLOAD DUP2 LT ISZERO PUSH2 0x547 JUMPI PUSH1 0x40 MLOAD PUSH32 0x8C379A000000000000000000000000000000000000000000000000000000000 DUP2 MSTORE PUSH1 0x4 ADD PUSH2 0x53E SWAP1 PUSH2 0x107A JUMP JUMPDEST PUSH1 0x40 MLOAD DUP1 SWAP2 SUB SWAP1 REVERT JUMPDEST PUSH1 0x0 PUSH8 0xDE0B6B3A7640000 PUSH1 0x2 SLOAD DUP4 PUSH2 0x560 SWAP2 SWAP1 PUSH2 0x1131 JUMP JUMPDEST PUSH2 0x56A SWAP2 SWAP1 PUSH2 0x1162 JUMP JUMPDEST SWAP1 POP PUSH1 0x0 PUSH2 0x576 PUSH2 0x780 JUMP JUMPDEST PUSH20 0xFFFFFFFFFFFFFFFFFFFFFFFFFFFFFFFFFFFFFFFF AND DUP3 PUSH1 0x40 MLOAD PUSH2 0x599 SWAP1 PUSH2 0xF54 JUMP JUMPDEST PUSH1 0x0 PUSH1 0x40 MLOAD DUP1 DUP4 SUB DUP2 DUP6 DUP8 GAS CALL SWAP3 POP POP POP RETURNDATASIZE DUP1 PUSH1 0x0 DUP2 EQ PUSH2 0x5D6 JUMPI PUSH1 0x40 MLOAD SWAP2 POP PUSH1 0x1F NOT PUSH1 0x3F RETURNDATASIZE ADD AND DUP3 ADD PUSH1 0x40 MSTORE RETURNDATASIZE DUP3 MSTORE RETURNDATASIZE PUSH1 0x0 PUSH1 0x20 DUP5 ADD RETURNDATACOPY PUSH2 0x5DB JUMP JUMPDEST PUSH1 0x60 SWAP2 POP JUMPDEST POP POP SWAP1 POP DUP1 PUSH2 0x61F JUMPI PUSH1 0x40 MLOAD PUSH32 0x8C379A000000000000000000000000000000000000000000000000000000000 DUP2 MSTORE PUSH1 0x4 ADD PUSH2 0x616 SWAP1 PUSH2 0x10BA JUMP JUMPDEST PUSH1 0x40 MLOAD DUP1 SWAP2 SUB SWAP1 REVERT JUMPDEST PUSH1 0x3 PUSH1 0x0 SWAP1 SLOAD SWAP1 PUSH2 0x100 EXP SWAP1 DIV PUSH20 0xFFFFFFFFFFFFFFFFFFFFFFFFFFFFFFFFFFFFFFFF AND PUSH20 0xFFFFFFFFFFFFFFFFFFFFFFFFFFFFFFFFFFFFFFFF AND PUSH4 0xA9059CBB CALLER DUP6 PUSH1 0x40 MLOAD DUP4 PUSH4 0xFFFFFFFF AND PUSH1 0xE0 SHL DUP2 MSTORE PUSH1 0x4 ADD PUSH2 0x67C SWAP3 SWAP2 SWAP1 PUSH2 0xFBB JUMP JUMPDEST PUSH1 0x20 PUSH1 0x40 MLOAD DUP1 DUP4 SUB DUP2 PUSH1 0x0 DUP8 DUP1 EXTCODESIZE ISZERO DUP1 ISZERO PUSH2 0x696 JUMPI PUSH1 0x0 DUP1 REVERT JUMPDEST POP GAS CALL ISZERO DUP1 ISZERO PUSH2 0x6AA JUMPI RETURNDATASIZE PUSH1 0x0 DUP1 RETURNDATACOPY RETURNDATASIZE PUSH1 0x0 REVERT JUMPDEST POP POP POP POP PUSH1 0x40 MLOAD RETURNDATASIZE PUSH1 0x1F NOT PUSH1 0x1F DUP3 ADD AND DUP3 ADD DUP1 PUSH1 0x40 MSTORE POP DUP2 ADD SWAP1 PUSH2 0x6CE SWAP2 SWAP1 PUSH2 0xCFE JUMP JUMPDEST POP POP POP POP JUMP JUMPDEST PUSH2 0x6DC PUSH2 0xAAD JUMP JUMPDEST PUSH20 0xFFFFFFFFFFFFFFFFFFFFFFFFFFFFFFFFFFFFFFFF AND PUSH2 0x6FA PUSH2 0x780 JUMP JUMPDEST PUSH20 0xFFFFFFFFFFFFFFFFFFFFFFFFFFFFFFFFFFFFFFFF AND EQ PUSH2 0x750 JUMPI PUSH1 0x40 MLOAD PUSH32 0x8C379A000000000000000000000000000000000000000000000000000000000 DUP2 MSTORE PUSH1 0x4 ADD PUSH2 0x747 SWAP1 PUSH2 0x10DA JUMP JUMPDEST PUSH1 0x40 MLOAD DUP1 SWAP2 SUB SWAP1 REVERT JUMPDEST DUP1 PUSH1 0x2 DUP2 SWAP1 SSTORE POP POP JUMP JUMPDEST PUSH1 0x4 PUSH1 0x0 SWAP1 SLOAD SWAP1 PUSH2 0x100 EXP SWAP1 DIV PUSH20 0xFFFFFFFFFFFFFFFFFFFFFFFFFFFFFFFFFFFFFFFF AND DUP2 JUMP JUMPDEST PUSH1 0x0 DUP1 PUSH1 0x0 SWAP1 SLOAD SWAP1 PUSH2 0x100 EXP SWAP1 DIV PUSH20 0xFFFFFFFFFFFFFFFFFFFFFFFFFFFFFFFFFFFFFFFF AND SWAP1 POP SWAP1 JUMP JUMPDEST PUSH1 0x0 DUP1 PUSH1 0x0 DUP1 PUSH1 0x0 DUP1 PUSH1 0x1 PUSH1 0x0 SWAP1 SLOAD SWAP1 PUSH2 0x100 EXP SWAP1 DIV PUSH20 0xFFFFFFFFFFFFFFFFFFFFFFFFFFFFFFFFFFFFFFFF AND PUSH20 0xFFFFFFFFFFFFFFFFFFFFFFFFFFFFFFFFFFFFFFFF AND PUSH4 0xFEAF968C PUSH1 0x40 MLOAD DUP2 PUSH4 0xFFFFFFFF AND PUSH1 0xE0 SHL DUP2 MSTORE PUSH1 0x4 ADD PUSH1 0xA0 PUSH1 0x40 MLOAD DUP1 DUP4 SUB DUP2 DUP7 DUP1 EXTCODESIZE ISZERO DUP1 ISZERO PUSH2 0x81A JUMPI PUSH1 0x0 DUP1 REVERT JUMPDEST POP GAS STATICCALL ISZERO DUP1 ISZERO PUSH2 0x82E JUMPI RETURNDATASIZE PUSH1 0x0 DUP1 RETURNDATACOPY RETURNDATASIZE PUSH1 0x0 REVERT JUMPDEST POP POP POP POP PUSH1 0x40 MLOAD RETURNDATASIZE PUSH1 0x1F NOT PUSH1 0x1F DUP3 ADD AND DUP3 ADD DUP1 PUSH1 0x40 MSTORE POP DUP2 ADD SWAP1 PUSH2 0x852 SWAP2 SWAP1 PUSH2 0xD85 JUMP JUMPDEST SWAP5 POP SWAP5 POP SWAP5 POP SWAP5 POP SWAP5 POP DUP4 SWAP6 POP POP POP POP POP POP SWAP1 JUMP JUMPDEST PUSH1 0x2 SLOAD DUP2 EQ PUSH2 0x8AB JUMPI PUSH1 0x40 MLOAD PUSH32 0x8C379A000000000000000000000000000000000000000000000000000000000 DUP2 MSTORE PUSH1 0x4 ADD PUSH2 0x8A2 SWAP1 PUSH2 0x109A JUMP JUMPDEST PUSH1 0x40 MLOAD DUP1 SWAP2 SUB SWAP1 REVERT JUMPDEST PUSH2 0x8D9 PUSH1 0x3 PUSH1 0x0 SWAP1 SLOAD SWAP1 PUSH2 0x100 EXP SWAP1 DIV PUSH20 0xFFFFFFFFFFFFFFFFFFFFFFFFFFFFFFFFFFFFFFFF AND CALLER ADDRESS DUP5 PUSH2 0xB79 JUMP JUMPDEST PUSH1 0x0 PUSH8 0xDE0B6B3A7640000 PUSH1 0x2 SLOAD DUP4 PUSH2 0x8F2 SWAP2 SWAP1 PUSH2 0x1131 JUMP JUMPDEST PUSH2 0x8FC SWAP2 SWAP1 PUSH2 0x1162 JUMP JUMPDEST SWAP1 POP PUSH1 0x0 CALLER PUSH20 0xFFFFFFFFFFFFFFFFFFFFFFFFFFFFFFFFFFFFFFFF AND DUP3 PUSH1 0x40 MLOAD PUSH2 0x924 SWAP1 PUSH2 0xF54 JUMP JUMPDEST PUSH1 0x0 PUSH1 0x40 MLOAD DUP1 DUP4 SUB DUP2 DUP6 DUP8 GAS CALL SWAP3 POP POP POP RETURNDATASIZE DUP1 PUSH1 0x0 DUP2 EQ PUSH2 0x961 JUMPI PUSH1 0x40 MLOAD SWAP2 POP PUSH1 0x1F NOT PUSH1 0x3F RETURNDATASIZE ADD AND DUP3 ADD PUSH1 0x40 MSTORE RETURNDATASIZE DUP3 MSTORE RETURNDATASIZE PUSH1 0x0 PUSH1 0x20 DUP5 ADD RETURNDATACOPY PUSH2 0x966 JUMP JUMPDEST PUSH1 0x60 SWAP2 POP JUMPDEST POP POP SWAP1 POP DUP1 PUSH2 0x9AA JUMPI PUSH1 0x40 MLOAD PUSH32 0x8C379A000000000000000000000000000000000000000000000000000000000 DUP2 MSTORE PUSH1 0x4 ADD PUSH2 0x9A1 SWAP1 PUSH2 0x10BA JUMP JUMPDEST PUSH1 0x40 MLOAD DUP1 SWAP2 SUB SWAP1 REVERT JUMPDEST POP POP POP JUMP JUMPDEST PUSH1 0x2 SLOAD DUP2 JUMP JUMPDEST PUSH2 0x9BD PUSH2 0xAAD JUMP JUMPDEST PUSH20 0xFFFFFFFFFFFFFFFFFFFFFFFFFFFFFFFFFFFFFFFF AND PUSH2 0x9DB PUSH2 0x780 JUMP JUMPDEST PUSH20 0xFFFFFFFFFFFFFFFFFFFFFFFFFFFFFFFFFFFFFFFF AND EQ PUSH2 0xA31 JUMPI PUSH1 0x40 MLOAD PUSH32 0x8C379A000000000000000000000000000000000000000000000000000000000 DUP2 MSTORE PUSH1 0x4 ADD PUSH2 0xA28 SWAP1 PUSH2 0x10DA JUMP JUMPDEST PUSH1 0x40 MLOAD DUP1 SWAP2 SUB SWAP1 REVERT JUMPDEST PUSH1 0x0 PUSH20 0xFFFFFFFFFFFFFFFFFFFFFFFFFFFFFFFFFFFFFFFF AND DUP2 PUSH20 0xFFFFFFFFFFFFFFFFFFFFFFFFFFFFFFFFFFFFFFFF AND EQ ISZERO PUSH2 0xAA1 JUMPI PUSH1 0x40 MLOAD PUSH32 0x8C379A000000000000000000000000000000000000000000000000000000000 DUP2 MSTORE PUSH1 0x4 ADD PUSH2 0xA98 SWAP1 PUSH2 0x101A JUMP JUMPDEST PUSH1 0x40 MLOAD DUP1 SWAP2 SUB SWAP1 REVERT JUMPDEST PUSH2 0xAAA DUP2 PUSH2 0xAB5 JUMP JUMPDEST POP JUMP JUMPDEST PUSH1 0x0 CALLER SWAP1 POP SWAP1 JUMP JUMPDEST PUSH1 0x0 DUP1 PUSH1 0x0 SWAP1 SLOAD SWAP1 PUSH2 0x100 EXP SWAP1 DIV PUSH20 0xFFFFFFFFFFFFFFFFFFFFFFFFFFFFFFFFFFFFFFFF AND SWAP1 POP DUP2 PUSH1 0x0 DUP1 PUSH2 0x100 EXP DUP2 SLOAD DUP2 PUSH20 0xFFFFFFFFFFFFFFFFFFFFFFFFFFFFFFFFFFFFFFFF MUL NOT AND SWAP1 DUP4 PUSH20 0xFFFFFFFFFFFFFFFFFFFFFFFFFFFFFFFFFFFFFFFF AND MUL OR SWAP1 SSTORE POP DUP2 PUSH20 0xFFFFFFFFFFFFFFFFFFFFFFFFFFFFFFFFFFFFFFFF AND DUP2 PUSH20 0xFFFFFFFFFFFFFFFFFFFFFFFFFFFFFFFFFFFFFFFF AND PUSH32 0x8BE0079C531659141344CD1FD0A4F28419497F9722A3DAAFE3B4186F6B6457E0 PUSH1 0x40 MLOAD PUSH1 0x40 MLOAD DUP1 SWAP2 SUB SWAP1 LOG3 POP POP JUMP JUMPDEST PUSH1 0x0 DUP5 PUSH20 0xFFFFFFFFFFFFFFFFFFFFFFFFFFFFFFFFFFFFFFFF AND PUSH4 0x23B872DD DUP6 DUP6 DUP6 PUSH1 0x40 MLOAD DUP5 PUSH4 0xFFFFFFFF AND PUSH1 0xE0 SHL DUP2 MSTORE PUSH1 0x4 ADD PUSH2 0xBB8 SWAP4 SWAP3 SWAP2 SWAP1 PUSH2 0xF84 JUMP JUMPDEST PUSH1 0x20 PUSH1 0x40 MLOAD DUP1 DUP4 SUB DUP2 PUSH1 0x0 DUP8 DUP1 EXTCODESIZE ISZERO DUP1 ISZERO PUSH2 0xBD2 JUMPI PUSH1 0x0 DUP1 REVERT JUMPDEST POP GAS CALL ISZERO DUP1 ISZERO PUSH2 0xBE6 JUMPI RETURNDATASIZE PUSH1 0x0 DUP1 RETURNDATACOPY RETURNDATASIZE PUSH1 0x0 REVERT JUMPDEST POP POP POP POP PUSH1 0x40 MLOAD RETURNDATASIZE PUSH1 0x1F NOT PUSH1 0x1F DUP3 ADD AND DUP3 ADD DUP1 PUSH1 0x40 MSTORE POP DUP2 ADD SWAP1 PUSH2 0xC0A SWAP2 SWAP1 PUSH2 0xCFE JUMP JUMPDEST SWAP1 POP DUP1 PUSH2 0xC4C JUMPI PUSH1 0x40 MLOAD PUSH32 0x8C379A000000000000000000000000000000000000000000000000000000000 DUP2 MSTORE PUSH1 0x4 ADD PUSH2 0xC43 SWAP1 PUSH2 0x105A JUMP JUMPDEST PUSH1 0x40 MLOAD DUP1 SWAP2 SUB SWAP1 REVERT JUMPDEST POP POP POP POP POP JUMP JUMPDEST PUSH1 0x0 DUP2 CALLDATALOAD SWAP1 POP PUSH2 0xC62 DUP2 PUSH2 0x1405 JUMP JUMPDEST SWAP3 SWAP2 POP POP JUMP JUMPDEST PUSH1 0x0 DUP2 MLOAD SWAP1 POP PUSH2 0xC77 DUP2 PUSH2 0x141C JUMP JUMPDEST SWAP3 SWAP2 POP POP JUMP JUMPDEST PUSH1 0x0 DUP2 MLOAD SWAP1 POP PUSH2 0xC8C DUP2 PUSH2 0x1433 JUMP JUMPDEST SWAP3 SWAP2 POP POP JUMP JUMPDEST PUSH1 0x0 DUP2 CALLDATALOAD SWAP1 POP PUSH2 0xCA1 DUP2 PUSH2 0x144A JUMP JUMPDEST SWAP3 SWAP2 POP POP JUMP JUMPDEST PUSH1 0x0 DUP2 MLOAD SWAP1 POP PUSH2 0xCB6 DUP2 PUSH2 0x144A JUMP JUMPDEST SWAP3 SWAP2 POP POP JUMP JUMPDEST PUSH1 0x0 DUP2 MLOAD SWAP1 POP PUSH2 0xCCB DUP2 PUSH2 0x1461 JUMP JUMPDEST SWAP3 SWAP2 POP POP JUMP JUMPDEST PUSH1 0x0 PUSH1 0x20 DUP3 DUP5 SUB SLT ISZERO PUSH2 0xCE7 JUMPI PUSH2 0xCE6 PUSH2 0x12B8 JUMP JUMPDEST JUMPDEST PUSH1 0x0 PUSH2 0xCF5 DUP5 DUP3 DUP6 ADD PUSH2 0xC53 JUMP JUMPDEST SWAP2 POP POP SWAP3 SWAP2 POP POP JUMP JUMPDEST PUSH1 0x0 PUSH1 0x20 DUP3 DUP5 SUB SLT ISZERO PUSH2 0xD14 JUMPI PUSH2 0xD13 PUSH2 0x12B8 JUMP JUMPDEST JUMPDEST PUSH1 0x0 PUSH2 0xD22 DUP5 DUP3 DUP6 ADD PUSH2 0xC68 JUMP JUMPDEST SWAP2 POP POP SWAP3 SWAP2 POP POP JUMP JUMPDEST PUSH1 0x0 PUSH1 0x20 DUP3 DUP5 SUB SLT ISZERO PUSH2 0xD41 JUMPI PUSH2 0xD40 PUSH2 0x12B8 JUMP JUMPDEST JUMPDEST PUSH1 0x0 PUSH2 0xD4F DUP5 DUP3 DUP6 ADD PUSH2 0xC92 JUMP JUMPDEST SWAP2 POP POP SWAP3 SWAP2 POP POP JUMP JUMPDEST PUSH1 0x0 PUSH1 0x20 DUP3 DUP5 SUB SLT ISZERO PUSH2 0xD6E JUMPI PUSH2 0xD6D PUSH2 0x12B8 JUMP JUMPDEST JUMPDEST PUSH1 0x0 PUSH2 0xD7C DUP5 DUP3 DUP6 ADD PUSH2 0xCA7 JUMP JUMPDEST SWAP2 POP POP SWAP3 SWAP2 POP POP JUMP JUMPDEST PUSH1 0x0 DUP1 PUSH1 0x0 DUP1 PUSH1 0x0 PUSH1 0xA0 DUP7 DUP9 SUB SLT ISZERO PUSH2 0xDA1 JUMPI PUSH2 0xDA0 PUSH2 0x12B8 JUMP JUMPDEST JUMPDEST PUSH1 0x0 PUSH2 0xDAF DUP9 DUP3 DUP10 ADD PUSH2 0xCBC JUMP JUMPDEST SWAP6 POP POP PUSH1 0x20 PUSH2 0xDC0 DUP9 DUP3 DUP10 ADD PUSH2 0xC7D JUMP JUMPDEST SWAP5 POP POP PUSH1 0x40 PUSH2 0xDD1 DUP9 DUP3 DUP10 ADD PUSH2 0xCA7 JUMP JUMPDEST SWAP4 POP POP PUSH1 0x60 PUSH2 0xDE2 DUP9 DUP3 DUP10 ADD PUSH2 0xCA7 JUMP JUMPDEST SWAP3 POP POP PUSH1 0x80 PUSH2 0xDF3 DUP9 DUP3 DUP10 ADD PUSH2 0xCBC JUMP JUMPDEST SWAP2 POP POP SWAP3 SWAP6 POP SWAP3 SWAP6 SWAP1 SWAP4 POP JUMP JUMPDEST PUSH2 0xE09 DUP2 PUSH2 0x11BC JUMP JUMPDEST DUP3 MSTORE POP POP JUMP JUMPDEST PUSH2 0xE18 DUP2 PUSH2 0x1224 JUMP JUMPDEST DUP3 MSTORE POP POP JUMP JUMPDEST PUSH2 0xE27 DUP2 PUSH2 0x11DA JUMP JUMPDEST DUP3 MSTORE POP POP JUMP JUMPDEST PUSH1 0x0 PUSH2 0xE3A PUSH1 0x26 DUP4 PUSH2 0x1120 JUMP JUMPDEST SWAP2 POP PUSH2 0xE45 DUP3 PUSH2 0x12BD JUMP JUMPDEST PUSH1 0x40 DUP3 ADD SWAP1 POP SWAP2 SWAP1 POP JUMP JUMPDEST PUSH1 0x0 PUSH2 0xE5D PUSH1 0x14 DUP4 PUSH2 0x1120 JUMP JUMPDEST SWAP2 POP PUSH2 0xE68 DUP3 PUSH2 0x130C JUMP JUMPDEST PUSH1 0x20 DUP3 ADD SWAP1 POP SWAP2 SWAP1 POP JUMP JUMPDEST PUSH1 0x0 PUSH2 0xE80 PUSH1 0x15 DUP4 PUSH2 0x1120 JUMP JUMPDEST SWAP2 POP PUSH2 0xE8B DUP3 PUSH2 0x1335 JUMP JUMPDEST PUSH1 0x20 DUP3 ADD SWAP1 POP SWAP2 SWAP1 POP JUMP JUMPDEST PUSH1 0x0 PUSH2 0xEA3 PUSH1 0x1A DUP4 PUSH2 0x1120 JUMP JUMPDEST SWAP2 POP PUSH2 0xEAE DUP3 PUSH2 0x135E JUMP JUMPDEST PUSH1 0x20 DUP3 ADD SWAP1 POP SWAP2 SWAP1 POP JUMP JUMPDEST PUSH1 0x0 PUSH2 0xEC6 PUSH1 0x13 DUP4 PUSH2 0x1120 JUMP JUMPDEST SWAP2 POP PUSH2 0xED1 DUP3 PUSH2 0x1387 JUMP JUMPDEST PUSH1 0x20 DUP3 ADD SWAP1 POP SWAP2 SWAP1 POP JUMP JUMPDEST PUSH1 0x0 PUSH2 0xEE9 PUSH1 0x10 DUP4 PUSH2 0x1120 JUMP JUMPDEST SWAP2 POP PUSH2 0xEF4 DUP3 PUSH2 0x13B0 JUMP JUMPDEST PUSH1 0x20 DUP3 ADD SWAP1 POP SWAP2 SWAP1 POP JUMP JUMPDEST PUSH1 0x0 PUSH2 0xF0C PUSH1 0x20 DUP4 PUSH2 0x1120 JUMP JUMPDEST SWAP2 POP PUSH2 0xF17 DUP3 PUSH2 0x13D9 JUMP JUMPDEST PUSH1 0x20 DUP3 ADD SWAP1 POP SWAP2 SWAP1 POP JUMP JUMPDEST PUSH1 0x0 PUSH2 0xF2F PUSH1 0x0 DUP4 PUSH2 0x1115 JUMP JUMPDEST SWAP2 POP PUSH2 0xF3A DUP3 PUSH2 0x1402 JUMP JUMPDEST PUSH1 0x0 DUP3 ADD SWAP1 POP SWAP2 SWAP1 POP JUMP JUMPDEST PUSH2 0xF4E DUP2 PUSH2 0x1204 JUMP JUMPDEST DUP3 MSTORE POP POP JUMP JUMPDEST PUSH1 0x0 PUSH2 0xF5F DUP3 PUSH2 0xF22 JUMP JUMPDEST SWAP2 POP DUP2 SWAP1 POP SWAP2 SWAP1 POP JUMP JUMPDEST PUSH1 0x0 PUSH1 0x20 DUP3 ADD SWAP1 POP PUSH2 0xF7E PUSH1 0x0 DUP4 ADD DUP5 PUSH2 0xE00 JUMP JUMPDEST SWAP3 SWAP2 POP POP JUMP JUMPDEST PUSH1 0x0 PUSH1 0x60 DUP3 ADD SWAP1 POP PUSH2 0xF99 PUSH1 0x0 DUP4 ADD DUP7 PUSH2 0xE00 JUMP JUMPDEST PUSH2 0xFA6 PUSH1 0x20 DUP4 ADD DUP6 PUSH2 0xE00 JUMP JUMPDEST PUSH2 0xFB3 PUSH1 0x40 DUP4 ADD DUP5 PUSH2 0xF45 JUMP JUMPDEST SWAP5 SWAP4 POP POP POP POP JUMP JUMPDEST PUSH1 0x0 PUSH1 0x40 DUP3 ADD SWAP1 POP PUSH2 0xFD0 PUSH1 0x0 DUP4 ADD DUP6 PUSH2 0xE00 JUMP JUMPDEST PUSH2 0xFDD PUSH1 0x20 DUP4 ADD DUP5 PUSH2 0xF45 JUMP JUMPDEST SWAP4 SWAP3 POP POP POP JUMP JUMPDEST PUSH1 0x0 PUSH1 0x20 DUP3 ADD SWAP1 POP PUSH2 0xFF9 PUSH1 0x0 DUP4 ADD DUP5 PUSH2 0xE0F JUMP JUMPDEST SWAP3 SWAP2 POP POP JUMP JUMPDEST PUSH1 0x0 PUSH1 0x20 DUP3 ADD SWAP1 POP PUSH2 0x1014 PUSH1 0x0 DUP4 ADD DUP5 PUSH2 0xE1E JUMP JUMPDEST SWAP3 SWAP2 POP POP JUMP JUMPDEST PUSH1 0x0 PUSH1 0x20 DUP3 ADD SWAP1 POP DUP2 DUP2 SUB PUSH1 0x0 DUP4 ADD MSTORE PUSH2 0x1033 DUP2 PUSH2 0xE2D JUMP JUMPDEST SWAP1 POP SWAP2 SWAP1 POP JUMP JUMPDEST PUSH1 0x0 PUSH1 0x20 DUP3 ADD SWAP1 POP DUP2 DUP2 SUB PUSH1 0x0 DUP4 ADD MSTORE PUSH2 0x1053 DUP2 PUSH2 0xE50 JUMP JUMPDEST SWAP1 POP SWAP2 SWAP1 POP JUMP JUMPDEST PUSH1 0x0 PUSH1 0x20 DUP3 ADD SWAP1 POP DUP2 DUP2 SUB PUSH1 0x0 DUP4 ADD MSTORE PUSH2 0x1073 DUP2 PUSH2 0xE73 JUMP JUMPDEST SWAP1 POP SWAP2 SWAP1 POP JUMP JUMPDEST PUSH1 0x0 PUSH1 0x20 DUP3 ADD SWAP1 POP DUP2 DUP2 SUB PUSH1 0x0 DUP4 ADD MSTORE PUSH2 0x1093 DUP2 PUSH2 0xE96 JUMP JUMPDEST SWAP1 POP SWAP2 SWAP1 POP JUMP JUMPDEST PUSH1 0x0 PUSH1 0x20 DUP3 ADD SWAP1 POP DUP2 DUP2 SUB PUSH1 0x0 DUP4 ADD MSTORE PUSH2 0x10B3 DUP2 PUSH2 0xEB9 JUMP JUMPDEST SWAP1 POP SWAP2 SWAP1 POP JUMP JUMPDEST PUSH1 0x0 PUSH1 0x20 DUP3 ADD SWAP1 POP DUP2 DUP2 SUB PUSH1 0x0 DUP4 ADD MSTORE PUSH2 0x10D3 DUP2 PUSH2 0xEDC JUMP JUMPDEST SWAP1 POP SWAP2 SWAP1 POP JUMP JUMPDEST PUSH1 0x0 PUSH1 0x20 DUP3 ADD SWAP1 POP DUP2 DUP2 SUB PUSH1 0x0 DUP4 ADD MSTORE PUSH2 0x10F3 DUP2 PUSH2 0xEFF JUMP JUMPDEST SWAP1 POP SWAP2 SWAP1 POP JUMP JUMPDEST PUSH1 0x0 PUSH1 0x20 DUP3 ADD SWAP1 POP PUSH2 0x110F PUSH1 0x0 DUP4 ADD DUP5 PUSH2 0xF45 JUMP JUMPDEST SWAP3 SWAP2 POP POP JUMP JUMPDEST PUSH1 0x0 DUP2 SWAP1 POP SWAP3 SWAP2 POP POP JUMP JUMPDEST PUSH1 0x0 DUP3 DUP3 MSTORE PUSH1 0x20 DUP3 ADD SWAP1 POP SWAP3 SWAP2 POP POP JUMP JUMPDEST PUSH1 0x0 PUSH2 0x113C DUP3 PUSH2 0x1204 JUMP JUMPDEST SWAP2 POP PUSH2 0x1147 DUP4 PUSH2 0x1204 JUMP JUMPDEST SWAP3 POP DUP3 PUSH2 0x1157 JUMPI PUSH2 0x1156 PUSH2 0x1289 JUMP JUMPDEST JUMPDEST DUP3 DUP3 DIV SWAP1 POP SWAP3 SWAP2 POP POP JUMP JUMPDEST PUSH1 0x0 PUSH2 0x116D DUP3 PUSH2 0x1204 JUMP JUMPDEST SWAP2 POP PUSH2 0x1178 DUP4 PUSH2 0x1204 JUMP JUMPDEST SWAP3 POP DUP2 PUSH32 0xFFFFFFFFFFFFFFFFFFFFFFFFFFFFFFFFFFFFFFFFFFFFFFFFFFFFFFFFFFFFFFFF DIV DUP4 GT DUP3 ISZERO ISZERO AND ISZERO PUSH2 0x11B1 JUMPI PUSH2 0x11B0 PUSH2 0x125A JUMP JUMPDEST JUMPDEST DUP3 DUP3 MUL SWAP1 POP SWAP3 SWAP2 POP POP JUMP JUMPDEST PUSH1 0x0 PUSH2 0x11C7 DUP3 PUSH2 0x11E4 JUMP JUMPDEST SWAP1 POP SWAP2 SWAP1 POP JUMP JUMPDEST PUSH1 0x0 DUP2 ISZERO ISZERO SWAP1 POP SWAP2 SWAP1 POP JUMP JUMPDEST PUSH1 0x0 DUP2 SWAP1 POP SWAP2 SWAP1 POP JUMP JUMPDEST PUSH1 0x0 PUSH20 0xFFFFFFFFFFFFFFFFFFFFFFFFFFFFFFFFFFFFFFFF DUP3 AND SWAP1 POP SWAP2 SWAP1 POP JUMP JUMPDEST PUSH1 0x0 DUP2 SWAP1 POP SWAP2 SWAP1 POP JUMP JUMPDEST PUSH1 0x0 PUSH10 0xFFFFFFFFFFFFFFFFFFFF DUP3 AND SWAP1 POP SWAP2 SWAP1 POP JUMP JUMPDEST PUSH1 0x0 PUSH2 0x122F DUP3 PUSH2 0x1236 JUMP JUMPDEST SWAP1 POP SWAP2 SWAP1 POP JUMP JUMPDEST PUSH1 0x0 PUSH2 0x1241 DUP3 PUSH2 0x1248 JUMP JUMPDEST SWAP1 POP SWAP2 SWAP1 POP JUMP JUMPDEST PUSH1 0x0 PUSH2 0x1253 DUP3 PUSH2 0x11E4 JUMP JUMPDEST SWAP1 POP SWAP2 SWAP1 POP JUMP JUMPDEST PUSH32 0x4E487B7100000000000000000000000000000000000000000000000000000000 PUSH1 0x0 MSTORE PUSH1 0x11 PUSH1 0x4 MSTORE PUSH1 0x24 PUSH1 0x0 REVERT JUMPDEST PUSH32 0x4E487B7100000000000000000000000000000000000000000000000000000000 PUSH1 0x0 MSTORE PUSH1 0x12 PUSH1 0x4 MSTORE PUSH1 0x24 PUSH1 0x0 REVERT JUMPDEST PUSH1 0x0 DUP1 REVERT JUMPDEST PUSH32 0x4F776E61626C653A206E6577206F776E657220697320746865207A65726F2061 PUSH1 0x0 DUP3 ADD MSTORE PUSH32 0x6464726573730000000000000000000000000000000000000000000000000000 PUSH1 0x20 DUP3 ADD MSTORE POP JUMP JUMPDEST PUSH32 0x4661696C656420746F2073656E64204574686572000000000000000000000000 PUSH1 0x0 DUP3 ADD MSTORE POP JUMP JUMPDEST PUSH32 0x546F6B656E207472616E73666572206661696C65640000000000000000000000 PUSH1 0x0 DUP3 ADD MSTORE POP JUMP JUMPDEST PUSH32 0x4D696E696D756D20747261646520616D6F756E74203120626E62000000000000 PUSH1 0x0 DUP3 ADD MSTORE POP JUMP JUMPDEST PUSH32 0x4D757374206265203120626E6220776F72746800000000000000000000000000 PUSH1 0x0 DUP3 ADD MSTORE POP JUMP JUMPDEST PUSH32 0x5472616E73666572206661696C65642100000000000000000000000000000000 PUSH1 0x0 DUP3 ADD MSTORE POP JUMP JUMPDEST PUSH32 0x4F776E61626C653A2063616C6C6572206973206E6F7420746865206F776E6572 PUSH1 0x0 DUP3 ADD MSTORE POP JUMP JUMPDEST POP JUMP JUMPDEST PUSH2 0x140E DUP2 PUSH2 0x11BC JUMP JUMPDEST DUP2 EQ PUSH2 0x1419 JUMPI PUSH1 0x0 DUP1 REVERT JUMPDEST POP JUMP JUMPDEST PUSH2 0x1425 DUP2 PUSH2 0x11CE JUMP JUMPDEST DUP2 EQ PUSH2 0x1430 JUMPI PUSH1 0x0 DUP1 REVERT JUMPDEST POP JUMP JUMPDEST PUSH2 0x143C DUP2 PUSH2 0x11DA JUMP JUMPDEST DUP2 EQ PUSH2 0x1447 JUMPI PUSH1 0x0 DUP1 REVERT JUMPDEST POP JUMP JUMPDEST PUSH2 0x1453 DUP2 PUSH2 0x1204 JUMP JUMPDEST DUP2 EQ PUSH2 0x145E JUMPI PUSH1 0x0 DUP1 REVERT JUMPDEST POP JUMP JUMPDEST PUSH2 0x146A DUP2 PUSH2 0x120E JUMP JUMPDEST DUP2 EQ PUSH2 0x1475 JUMPI PUSH1 0x0 DUP1 REVERT JUMPDEST POP JUMP INVALID LOG2 PUSH5 0x6970667358 0x22 SLT KECCAK256 0xB2 CALLER RETURNDATASIZE SLOAD PUSH26 0x9E839CD7451CA9389D499C74CC7E2BC9E43036ACA7B3460DAF53 DUP3 PUSH5 0x736F6C6343 STOP ADDMOD SMOD STOP CALLER "
				},
				"gasEstimates": {
					"creation": {
						"codeDepositCost": "1058800",
						"executionCost": "infinite",
						"totalCost": "infinite"
					},
					"external": {
						"BnbToSafuu()": "2517",
						"USDC()": "2600",
						"buySafuu(uint256)": "infinite",
						"getLatestPrice()": "infinite",
						"owner()": "2544",
						"renounceOwnership()": "30419",
						"safuu()": "2601",
						"sellSafuu(uint256)": "infinite",
						"setFactor(uint256)": "24849",
						"transferOwnership(address)": "30833",
						"withdrawToOwner()": "infinite"
					},
					"internal": {
						"_safeTransferFrom(contract IERC20,address,address,uint256)": "infinite"
					}
				},
				"methodIdentifiers": {
					"BnbToSafuu()": "ebc4197c",
					"USDC()": "89a30271",
					"buySafuu(uint256)": "80c31426",
					"getLatestPrice()": "8e15f473",
					"owner()": "8da5cb5b",
					"renounceOwnership()": "715018a6",
					"safuu()": "23b160ac",
					"sellSafuu(uint256)": "ade87ecc",
					"setFactor(uint256)": "817e9d31",
					"transferOwnership(address)": "f2fde38b",
					"withdrawToOwner()": "3cb40e16"
				}
			},
			"userdoc": {
				"kind": "user",
				"methods": {},
				"version": 1
			}
		}
	}
}