{
	"test/sis.sol": {
		"personalSafuuTrader": {
			"abi": [
				{
					"inputs": [],
					"stateMutability": "nonpayable",
					"type": "constructor"
				},
				{
					"anonymous": false,
					"inputs": [
						{
							"indexed": true,
							"internalType": "address",
							"name": "previousOwner",
							"type": "address"
						},
						{
							"indexed": true,
							"internalType": "address",
							"name": "newOwner",
							"type": "address"
						}
					],
					"name": "OwnershipTransferred",
					"type": "event"
				},
				{
					"inputs": [],
					"name": "BnbToSafuu",
					"outputs": [
						{
							"internalType": "uint256",
							"name": "",
							"type": "uint256"
						}
					],
					"stateMutability": "view",
					"type": "function"
				},
				{
					"inputs": [],
					"name": "Safuu",
					"outputs": [
						{
							"internalType": "contract IERC20",
							"name": "",
							"type": "address"
						}
					],
					"stateMutability": "view",
					"type": "function"
				},
				{
					"inputs": [],
					"name": "USDC",
					"outputs": [
						{
							"internalType": "contract IERC20",
							"name": "",
							"type": "address"
						}
					],
					"stateMutability": "view",
					"type": "function"
				},
				{
					"inputs": [
						{
							"internalType": "uint256",
							"name": "amttobuy",
							"type": "uint256"
						}
					],
					"name": "buySafuu",
					"outputs": [],
					"stateMutability": "payable",
					"type": "function"
				},
				{
					"inputs": [],
					"name": "getLatestPrice",
					"outputs": [
						{
							"internalType": "int256",
							"name": "",
							"type": "int256"
						}
					],
					"stateMutability": "view",
					"type": "function"
				},
				{
					"inputs": [],
					"name": "owner",
					"outputs": [
						{
							"internalType": "address",
							"name": "",
							"type": "address"
						}
					],
					"stateMutability": "view",
					"type": "function"
				},
				{
					"inputs": [],
					"name": "renounceOwnership",
					"outputs": [],
					"stateMutability": "nonpayable",
					"type": "function"
				},
				{
					"inputs": [
						{
							"internalType": "uint256",
							"name": "amttosell",
							"type": "uint256"
						}
					],
					"name": "sellSafuu",
					"outputs": [],
					"stateMutability": "nonpayable",
					"type": "function"
				},
				{
					"inputs": [
						{
							"internalType": "uint256",
							"name": "_newfactor",
							"type": "uint256"
						}
					],
					"name": "setFactor",
					"outputs": [],
					"stateMutability": "nonpayable",
					"type": "function"
				},
				{
					"inputs": [
						{
							"internalType": "int256",
							"name": "amttobuy",
							"type": "int256"
						},
						{
							"internalType": "int256",
							"name": "_factor",
							"type": "int256"
						}
					],
					"name": "testDiv",
					"outputs": [
						{
							"internalType": "int256",
							"name": "",
							"type": "int256"
						}
					],
					"stateMutability": "nonpayable",
					"type": "function"
				},
				{
					"inputs": [
						{
							"internalType": "address",
							"name": "newOwner",
							"type": "address"
						}
					],
					"name": "transferOwnership",
					"outputs": [],
					"stateMutability": "nonpayable",
					"type": "function"
				},
				{
					"inputs": [],
					"name": "withdrawToOwner",
					"outputs": [],
					"stateMutability": "nonpayable",
					"type": "function"
				}
			],
			"devdoc": {
				"kind": "dev",
				"methods": {
					"owner()": {
						"details": "Returns the address of the current owner."
					},
					"renounceOwnership()": {
						"details": "Leaves the contract without owner. It will not be possible to call `onlyOwner` functions anymore. Can only be called by the current owner. NOTE: Renouncing ownership will leave the contract without an owner, thereby removing any functionality that is only available to the owner."
					},
					"transferOwnership(address)": {
						"details": "Transfers ownership of the contract to a new account (`newOwner`). Can only be called by the current owner."
					}
				},
				"version": 1
			},
			"evm": {
				"assembly": "    /* \"test/sis.sol\":2576:5567  contract personalSafuuTrader is Ownable\r... */\n  mstore(0x40, 0x80)\n    /* \"test/sis.sol\":2927:3256  constructor () {\r... */\n  callvalue\n  dup1\n  iszero\n  tag_1\n  jumpi\n  0x00\n  dup1\n  revert\ntag_1:\n  pop\n    /* \"test/Ownable.sol\":914:946  _transferOwnership(_msgSender()) */\n  tag_5\n    /* \"test/Ownable.sol\":933:945  _msgSender() */\n  tag_6\n    /* \"test/Ownable.sol\":933:943  _msgSender */\n  shl(0x20, tag_7)\n    /* \"test/Ownable.sol\":933:945  _msgSender() */\n  0x20\n  shr\n  jump\t// in\ntag_6:\n    /* \"test/Ownable.sol\":914:932  _transferOwnership */\n  shl(0x20, tag_8)\n    /* \"test/Ownable.sol\":914:946  _transferOwnership(_msgSender()) */\n  0x20\n  shr\n  jump\t// in\ntag_5:\n    /* \"test/sis.sol\":2960:2966  100000 */\n  0x0186a0\n    /* \"test/sis.sol\":2947:2957  BnbToSafuu */\n  0x02\n    /* \"test/sis.sol\":2947:2966  BnbToSafuu = 100000 */\n  dup2\n  swap1\n  sstore\n  pop\n    /* \"test/sis.sol\":2986:3028  0xE5bA47fD94CB645ba4119222e34fB33F59C7CD90 */\n  0xe5ba47fd94cb645ba4119222e34fb33f59c7cd90\n    /* \"test/sis.sol\":2971:2976  Safuu */\n  0x03\n  0x00\n    /* \"test/sis.sol\":2971:3029  Safuu = IERC20(0xE5bA47fD94CB645ba4119222e34fB33F59C7CD90) */\n  0x0100\n  exp\n  dup2\n  sload\n  dup2\n  0xffffffffffffffffffffffffffffffffffffffff\n  mul\n  not\n  and\n  swap1\n  dup4\n  0xffffffffffffffffffffffffffffffffffffffff\n  and\n  mul\n  or\n  swap1\n  sstore\n  pop\n    /* \"test/sis.sol\":3048:3090  0x8AC76a51cc950d9822D68b83fE1Ad97B32Cd580d */\n  0x8ac76a51cc950d9822d68b83fe1ad97b32cd580d\n    /* \"test/sis.sol\":3034:3038  USDC */\n  0x04\n  0x00\n    /* \"test/sis.sol\":3034:3091  USDC = IERC20(0x8AC76a51cc950d9822D68b83fE1Ad97B32Cd580d) */\n  0x0100\n  exp\n  dup2\n  sload\n  dup2\n  0xffffffffffffffffffffffffffffffffffffffff\n  mul\n  not\n  and\n  swap1\n  dup4\n  0xffffffffffffffffffffffffffffffffffffffff\n  and\n  mul\n  or\n  swap1\n  sstore\n  pop\n    /* \"test/sis.sol\":3207:3249  0x0567F2323251f0Aab15c8dFb1967E4e8A7D42aeE */\n  0x0567f2323251f0aab15c8dfb1967e4e8a7d42aee\n    /* \"test/sis.sol\":3173:3182  priceFeed */\n  0x01\n  0x00\n    /* \"test/sis.sol\":3173:3250  priceFeed = AggregatorV3Interface(0x0567F2323251f0Aab15c8dFb1967E4e8A7D42aeE) */\n  0x0100\n  exp\n  dup2\n  sload\n  dup2\n  0xffffffffffffffffffffffffffffffffffffffff\n  mul\n  not\n  and\n  swap1\n  dup4\n  0xffffffffffffffffffffffffffffffffffffffff\n  and\n  mul\n  or\n  swap1\n  sstore\n  pop\n    /* \"test/sis.sol\":2576:5567  contract personalSafuuTrader is Ownable\r... */\n  jump(tag_10)\n    /* \"test/Context.sol\":640:736  function _msgSender() internal view virtual returns (address) {... */\ntag_7:\n    /* \"test/Context.sol\":693:700  address */\n  0x00\n    /* \"test/Context.sol\":719:729  msg.sender */\n  caller\n    /* \"test/Context.sol\":712:729  return msg.sender */\n  swap1\n  pop\n    /* \"test/Context.sol\":640:736  function _msgSender() internal view virtual returns (address) {... */\n  swap1\n  jump\t// out\n    /* \"test/Ownable.sol\":2263:2450  function _transferOwnership(address newOwner) internal virtual {... */\ntag_8:\n    /* \"test/Ownable.sol\":2336:2352  address oldOwner */\n  0x00\n    /* \"test/Ownable.sol\":2355:2361  _owner */\n  dup1\n  0x00\n  swap1\n  sload\n  swap1\n  0x0100\n  exp\n  swap1\n  div\n  0xffffffffffffffffffffffffffffffffffffffff\n  and\n    /* \"test/Ownable.sol\":2336:2361  address oldOwner = _owner */\n  swap1\n  pop\n    /* \"test/Ownable.sol\":2380:2388  newOwner */\n  dup2\n    /* \"test/Ownable.sol\":2371:2377  _owner */\n  0x00\n  dup1\n    /* \"test/Ownable.sol\":2371:2388  _owner = newOwner */\n  0x0100\n  exp\n  dup2\n  sload\n  dup2\n  0xffffffffffffffffffffffffffffffffffffffff\n  mul\n  not\n  and\n  swap1\n  dup4\n  0xffffffffffffffffffffffffffffffffffffffff\n  and\n  mul\n  or\n  swap1\n  sstore\n  pop\n    /* \"test/Ownable.sol\":2434:2442  newOwner */\n  dup2\n    /* \"test/Ownable.sol\":2403:2443  OwnershipTransferred(oldOwner, newOwner) */\n  0xffffffffffffffffffffffffffffffffffffffff\n  and\n    /* \"test/Ownable.sol\":2424:2432  oldOwner */\n  dup2\n    /* \"test/Ownable.sol\":2403:2443  OwnershipTransferred(oldOwner, newOwner) */\n  0xffffffffffffffffffffffffffffffffffffffff\n  and\n  0x8be0079c531659141344cd1fd0a4f28419497f9722a3daafe3b4186f6b6457e0\n  mload(0x40)\n  mload(0x40)\n  dup1\n  swap2\n  sub\n  swap1\n  log3\n    /* \"test/Ownable.sol\":2326:2450  {... */\n  pop\n    /* \"test/Ownable.sol\":2263:2450  function _transferOwnership(address newOwner) internal virtual {... */\n  pop\n  jump\t// out\n    /* \"test/sis.sol\":2576:5567  contract personalSafuuTrader is Ownable\r... */\ntag_10:\n  dataSize(sub_0)\n  dup1\n  dataOffset(sub_0)\n  0x00\n  codecopy\n  0x00\n  return\nstop\n\nsub_0: assembly {\n        /* \"test/sis.sol\":2576:5567  contract personalSafuuTrader is Ownable\r... */\n      mstore(0x40, 0x80)\n      jumpi(tag_1, lt(calldatasize, 0x04))\n      shr(0xe0, calldataload(0x00))\n      dup1\n      0x8a71c2f4\n      gt\n      tag_14\n      jumpi\n      dup1\n      0x8a71c2f4\n      eq\n      tag_8\n      jumpi\n      dup1\n      0x8da5cb5b\n      eq\n      tag_9\n      jumpi\n      dup1\n      0x8e15f473\n      eq\n      tag_10\n      jumpi\n      dup1\n      0xade87ecc\n      eq\n      tag_11\n      jumpi\n      dup1\n      0xebc4197c\n      eq\n      tag_12\n      jumpi\n      dup1\n      0xf2fde38b\n      eq\n      tag_13\n      jumpi\n      jump(tag_1)\n    tag_14:\n      dup1\n      0x0e42e9a0\n      eq\n      tag_2\n      jumpi\n      dup1\n      0x3cb40e16\n      eq\n      tag_3\n      jumpi\n      dup1\n      0x715018a6\n      eq\n      tag_4\n      jumpi\n      dup1\n      0x80c31426\n      eq\n      tag_5\n      jumpi\n      dup1\n      0x817e9d31\n      eq\n      tag_6\n      jumpi\n      dup1\n      0x89a30271\n      eq\n      tag_7\n      jumpi\n    tag_1:\n      0x00\n      dup1\n      revert\n        /* \"test/sis.sol\":3262:3491  function testDiv(int256 amttobuy, int256 _factor) public returns (int256)\r... */\n    tag_2:\n      callvalue\n      dup1\n      iszero\n      tag_15\n      jumpi\n      0x00\n      dup1\n      revert\n    tag_15:\n      pop\n      tag_16\n      0x04\n      dup1\n      calldatasize\n      sub\n      dup2\n      add\n      swap1\n      tag_17\n      swap2\n      swap1\n      tag_18\n      jump\t// in\n    tag_17:\n      tag_19\n      jump\t// in\n    tag_16:\n      mload(0x40)\n      tag_20\n      swap2\n      swap1\n      tag_21\n      jump\t// in\n    tag_20:\n      mload(0x40)\n      dup1\n      swap2\n      sub\n      swap1\n      return\n        /* \"test/sis.sol\":4869:5290  function withdrawToOwner()\r... */\n    tag_3:\n      callvalue\n      dup1\n      iszero\n      tag_22\n      jumpi\n      0x00\n      dup1\n      revert\n    tag_22:\n      pop\n      tag_23\n      tag_24\n      jump\t// in\n    tag_23:\n      stop\n        /* \"test/Ownable.sol\":1661:1762  function renounceOwnership() public virtual onlyOwner {... */\n    tag_4:\n      callvalue\n      dup1\n      iszero\n      tag_25\n      jumpi\n      0x00\n      dup1\n      revert\n    tag_25:\n      pop\n      tag_26\n      tag_27\n      jump\t// in\n    tag_26:\n      stop\n        /* \"test/sis.sol\":3497:3938  function buySafuu(uint256 amttobuy) public payable\r... */\n    tag_5:\n      tag_28\n      0x04\n      dup1\n      calldatasize\n      sub\n      dup2\n      add\n      swap1\n      tag_29\n      swap2\n      swap1\n      tag_30\n      jump\t// in\n    tag_29:\n      tag_31\n      jump\t// in\n    tag_28:\n      stop\n        /* \"test/sis.sol\":4755:4863  function setFactor(uint256 _newfactor) public onlyOwner {\r... */\n    tag_6:\n      callvalue\n      dup1\n      iszero\n      tag_32\n      jumpi\n      0x00\n      dup1\n      revert\n    tag_32:\n      pop\n      tag_33\n      0x04\n      dup1\n      calldatasize\n      sub\n      dup2\n      add\n      swap1\n      tag_34\n      swap2\n      swap1\n      tag_30\n      jump\t// in\n    tag_34:\n      tag_35\n      jump\t// in\n    tag_33:\n      stop\n        /* \"test/sis.sol\":2840:2858  IERC20 public USDC */\n    tag_7:\n      callvalue\n      dup1\n      iszero\n      tag_36\n      jumpi\n      0x00\n      dup1\n      revert\n    tag_36:\n      pop\n      tag_37\n      tag_38\n      jump\t// in\n    tag_37:\n      mload(0x40)\n      tag_39\n      swap2\n      swap1\n      tag_40\n      jump\t// in\n    tag_39:\n      mload(0x40)\n      dup1\n      swap2\n      sub\n      swap1\n      return\n        /* \"test/sis.sol\":2814:2833  IERC20 public Safuu */\n    tag_8:\n      callvalue\n      dup1\n      iszero\n      tag_41\n      jumpi\n      0x00\n      dup1\n      revert\n    tag_41:\n      pop\n      tag_42\n      tag_43\n      jump\t// in\n    tag_42:\n      mload(0x40)\n      tag_44\n      swap2\n      swap1\n      tag_40\n      jump\t// in\n    tag_44:\n      mload(0x40)\n      dup1\n      swap2\n      sub\n      swap1\n      return\n        /* \"test/Ownable.sol\":1029:1114  function owner() public view virtual returns (address) {... */\n    tag_9:\n      callvalue\n      dup1\n      iszero\n      tag_45\n      jumpi\n      0x00\n      dup1\n      revert\n    tag_45:\n      pop\n      tag_46\n      tag_47\n      jump\t// in\n    tag_46:\n      mload(0x40)\n      tag_48\n      swap2\n      swap1\n      tag_49\n      jump\t// in\n    tag_48:\n      mload(0x40)\n      dup1\n      swap2\n      sub\n      swap1\n      return\n        /* \"test/sis.sol\":3944:4228  function getLatestPrice() public view returns (int) {\r... */\n    tag_10:\n      callvalue\n      dup1\n      iszero\n      tag_50\n      jumpi\n      0x00\n      dup1\n      revert\n    tag_50:\n      pop\n      tag_51\n      tag_52\n      jump\t// in\n    tag_51:\n      mload(0x40)\n      tag_53\n      swap2\n      swap1\n      tag_21\n      jump\t// in\n    tag_53:\n      mload(0x40)\n      dup1\n      swap2\n      sub\n      swap1\n      return\n        /* \"test/sis.sol\":4234:4745  function sellSafuu(uint256 amttosell) public \r... */\n    tag_11:\n      callvalue\n      dup1\n      iszero\n      tag_54\n      jumpi\n      0x00\n      dup1\n      revert\n    tag_54:\n      pop\n      tag_55\n      0x04\n      dup1\n      calldatasize\n      sub\n      dup2\n      add\n      swap1\n      tag_56\n      swap2\n      swap1\n      tag_30\n      jump\t// in\n    tag_56:\n      tag_57\n      jump\t// in\n    tag_55:\n      stop\n        /* \"test/sis.sol\":2780:2806  uint256  public BnbToSafuu */\n    tag_12:\n      callvalue\n      dup1\n      iszero\n      tag_58\n      jumpi\n      0x00\n      dup1\n      revert\n    tag_58:\n      pop\n      tag_59\n      tag_60\n      jump\t// in\n    tag_59:\n      mload(0x40)\n      tag_61\n      swap2\n      swap1\n      tag_62\n      jump\t// in\n    tag_61:\n      mload(0x40)\n      dup1\n      swap2\n      sub\n      swap1\n      return\n        /* \"test/Ownable.sol\":1911:2109  function transferOwnership(address newOwner) public virtual onlyOwner {... */\n    tag_13:\n      callvalue\n      dup1\n      iszero\n      tag_63\n      jumpi\n      0x00\n      dup1\n      revert\n    tag_63:\n      pop\n      tag_64\n      0x04\n      dup1\n      calldatasize\n      sub\n      dup2\n      add\n      swap1\n      tag_65\n      swap2\n      swap1\n      tag_66\n      jump\t// in\n    tag_65:\n      tag_67\n      jump\t// in\n    tag_64:\n      stop\n        /* \"test/sis.sol\":3262:3491  function testDiv(int256 amttobuy, int256 _factor) public returns (int256)\r... */\n    tag_19:\n        /* \"test/sis.sol\":3328:3334  int256 */\n      0x00\n        /* \"test/sis.sol\":3362:3379  int256 payableAmt */\n      dup1\n        /* \"test/sis.sol\":3440:3446  10**18 */\n      0x0de0b6b3a7640000\n        /* \"test/sis.sol\":3416:3437  amttobuy.div(_factor) */\n      tag_69\n        /* \"test/sis.sol\":3429:3436  _factor */\n      dup5\n        /* \"test/sis.sol\":3416:3424  amttobuy */\n      dup7\n        /* \"test/sis.sol\":3416:3428  amttobuy.div */\n      tag_70\n      swap1\n        /* \"test/sis.sol\":3416:3437  amttobuy.div(_factor) */\n      swap2\n      swap1\n      0xffffffff\n      and\n      jump\t// in\n    tag_69:\n        /* \"test/sis.sol\":3416:3447  amttobuy.div(_factor) *(10**18) */\n      tag_71\n      swap2\n      swap1\n      tag_72\n      jump\t// in\n    tag_71:\n        /* \"test/sis.sol\":3403:3447  payableAmt = amttobuy.div(_factor) *(10**18) */\n      swap1\n      pop\n        /* \"test/sis.sol\":3464:3474  payableAmt */\n      dup1\n        /* \"test/sis.sol\":3457:3474  return payableAmt */\n      swap2\n      pop\n      pop\n        /* \"test/sis.sol\":3262:3491  function testDiv(int256 amttobuy, int256 _factor) public returns (int256)\r... */\n      swap3\n      swap2\n      pop\n      pop\n      jump\t// out\n        /* \"test/sis.sol\":4869:5290  function withdrawToOwner()\r... */\n    tag_24:\n        /* \"test/sis.sol\":5037:5049  bool success */\n      0x00\n        /* \"test/sis.sol\":5055:5062  owner() */\n      tag_74\n        /* \"test/sis.sol\":5055:5060  owner */\n      tag_47\n        /* \"test/sis.sol\":5055:5062  owner() */\n      jump\t// in\n    tag_74:\n        /* \"test/sis.sol\":5055:5067  owner().call */\n      0xffffffffffffffffffffffffffffffffffffffff\n      and\n        /* \"test/sis.sol\":5075:5096  address(this).balance */\n      selfbalance\n        /* \"test/sis.sol\":5055:5101  owner().call{value: address(this).balance}(\"\") */\n      mload(0x40)\n      tag_75\n      swap1\n      tag_76\n      jump\t// in\n    tag_75:\n      0x00\n      mload(0x40)\n      dup1\n      dup4\n      sub\n      dup2\n      dup6\n      dup8\n      gas\n      call\n      swap3\n      pop\n      pop\n      pop\n      returndatasize\n      dup1\n      0x00\n      dup2\n      eq\n      tag_79\n      jumpi\n      mload(0x40)\n      swap2\n      pop\n      and(add(returndatasize, 0x3f), not(0x1f))\n      dup3\n      add\n      0x40\n      mstore\n      returndatasize\n      dup3\n      mstore\n      returndatasize\n      0x00\n      0x20\n      dup5\n      add\n      returndatacopy\n      jump(tag_78)\n    tag_79:\n      0x60\n      swap2\n      pop\n    tag_78:\n      pop\n        /* \"test/sis.sol\":5036:5101  (bool success, ) = owner().call{value: address(this).balance}(\"\") */\n      pop\n      swap1\n      pop\n        /* \"test/sis.sol\":5120:5127  success */\n      dup1\n        /* \"test/sis.sol\":5112:5152  require(success, \"Failed to send Ether\") */\n      tag_80\n      jumpi\n      mload(0x40)\n      0x08c379a000000000000000000000000000000000000000000000000000000000\n      dup2\n      mstore\n      0x04\n      add\n      tag_81\n      swap1\n      tag_82\n      jump\t// in\n    tag_81:\n      mload(0x40)\n      dup1\n      swap2\n      sub\n      swap1\n      revert\n    tag_80:\n        /* \"test/sis.sol\":5163:5168  Safuu */\n      0x03\n      0x00\n      swap1\n      sload\n      swap1\n      0x0100\n      exp\n      swap1\n      div\n      0xffffffffffffffffffffffffffffffffffffffff\n      and\n        /* \"test/sis.sol\":5163:5177  Safuu.transfer */\n      0xffffffffffffffffffffffffffffffffffffffff\n      and\n      0xa9059cbb\n        /* \"test/sis.sol\":5178:5185  owner() */\n      tag_83\n        /* \"test/sis.sol\":5178:5183  owner */\n      tag_47\n        /* \"test/sis.sol\":5178:5185  owner() */\n      jump\t// in\n    tag_83:\n        /* \"test/sis.sol\":5187:5192  Safuu */\n      0x03\n      0x00\n      swap1\n      sload\n      swap1\n      0x0100\n      exp\n      swap1\n      div\n      0xffffffffffffffffffffffffffffffffffffffff\n      and\n        /* \"test/sis.sol\":5187:5202  Safuu.balanceOf */\n      0xffffffffffffffffffffffffffffffffffffffff\n      and\n      0x70a08231\n        /* \"test/sis.sol\":5211:5215  this */\n      address\n        /* \"test/sis.sol\":5187:5217  Safuu.balanceOf(address(this)) */\n      mload(0x40)\n      dup3\n      0xffffffff\n      and\n      0xe0\n      shl\n      dup2\n      mstore\n      0x04\n      add\n      tag_84\n      swap2\n      swap1\n      tag_49\n      jump\t// in\n    tag_84:\n      0x20\n      mload(0x40)\n      dup1\n      dup4\n      sub\n      dup2\n      dup7\n      dup1\n      extcodesize\n      iszero\n      dup1\n      iszero\n      tag_85\n      jumpi\n      0x00\n      dup1\n      revert\n    tag_85:\n      pop\n      gas\n      staticcall\n      iszero\n      dup1\n      iszero\n      tag_87\n      jumpi\n      returndatasize\n      0x00\n      dup1\n      returndatacopy\n      revert(0x00, returndatasize)\n    tag_87:\n      pop\n      pop\n      pop\n      pop\n      mload(0x40)\n      returndatasize\n      not(0x1f)\n      0x1f\n      dup3\n      add\n      and\n      dup3\n      add\n      dup1\n      0x40\n      mstore\n      pop\n      dup2\n      add\n      swap1\n      tag_88\n      swap2\n      swap1\n      tag_89\n      jump\t// in\n    tag_88:\n        /* \"test/sis.sol\":5163:5218  Safuu.transfer(owner(), Safuu.balanceOf(address(this))) */\n      mload(0x40)\n      dup4\n      0xffffffff\n      and\n      0xe0\n      shl\n      dup2\n      mstore\n      0x04\n      add\n      tag_90\n      swap3\n      swap2\n      swap1\n      tag_91\n      jump\t// in\n    tag_90:\n      0x20\n      mload(0x40)\n      dup1\n      dup4\n      sub\n      dup2\n      0x00\n      dup8\n      dup1\n      extcodesize\n      iszero\n      dup1\n      iszero\n      tag_92\n      jumpi\n      0x00\n      dup1\n      revert\n    tag_92:\n      pop\n      gas\n      call\n      iszero\n      dup1\n      iszero\n      tag_94\n      jumpi\n      returndatasize\n      0x00\n      dup1\n      returndatacopy\n      revert(0x00, returndatasize)\n    tag_94:\n      pop\n      pop\n      pop\n      pop\n      mload(0x40)\n      returndatasize\n      not(0x1f)\n      0x1f\n      dup3\n      add\n      and\n      dup3\n      add\n      dup1\n      0x40\n      mstore\n      pop\n      dup2\n      add\n      swap1\n      tag_95\n      swap2\n      swap1\n      tag_96\n      jump\t// in\n    tag_95:\n      pop\n        /* \"test/sis.sol\":5229:5233  USDC */\n      0x04\n      0x00\n      swap1\n      sload\n      swap1\n      0x0100\n      exp\n      swap1\n      div\n      0xffffffffffffffffffffffffffffffffffffffff\n      and\n        /* \"test/sis.sol\":5229:5242  USDC.transfer */\n      0xffffffffffffffffffffffffffffffffffffffff\n      and\n      0xa9059cbb\n        /* \"test/sis.sol\":5243:5250  owner() */\n      tag_97\n        /* \"test/sis.sol\":5243:5248  owner */\n      tag_47\n        /* \"test/sis.sol\":5243:5250  owner() */\n      jump\t// in\n    tag_97:\n        /* \"test/sis.sol\":5252:5256  USDC */\n      0x04\n      0x00\n      swap1\n      sload\n      swap1\n      0x0100\n      exp\n      swap1\n      div\n      0xffffffffffffffffffffffffffffffffffffffff\n      and\n        /* \"test/sis.sol\":5252:5266  USDC.balanceOf */\n      0xffffffffffffffffffffffffffffffffffffffff\n      and\n      0x70a08231\n        /* \"test/sis.sol\":5275:5279  this */\n      address\n        /* \"test/sis.sol\":5252:5281  USDC.balanceOf(address(this)) */\n      mload(0x40)\n      dup3\n      0xffffffff\n      and\n      0xe0\n      shl\n      dup2\n      mstore\n      0x04\n      add\n      tag_98\n      swap2\n      swap1\n      tag_49\n      jump\t// in\n    tag_98:\n      0x20\n      mload(0x40)\n      dup1\n      dup4\n      sub\n      dup2\n      dup7\n      dup1\n      extcodesize\n      iszero\n      dup1\n      iszero\n      tag_99\n      jumpi\n      0x00\n      dup1\n      revert\n    tag_99:\n      pop\n      gas\n      staticcall\n      iszero\n      dup1\n      iszero\n      tag_101\n      jumpi\n      returndatasize\n      0x00\n      dup1\n      returndatacopy\n      revert(0x00, returndatasize)\n    tag_101:\n      pop\n      pop\n      pop\n      pop\n      mload(0x40)\n      returndatasize\n      not(0x1f)\n      0x1f\n      dup3\n      add\n      and\n      dup3\n      add\n      dup1\n      0x40\n      mstore\n      pop\n      dup2\n      add\n      swap1\n      tag_102\n      swap2\n      swap1\n      tag_89\n      jump\t// in\n    tag_102:\n        /* \"test/sis.sol\":5229:5282  USDC.transfer(owner(), USDC.balanceOf(address(this))) */\n      mload(0x40)\n      dup4\n      0xffffffff\n      and\n      0xe0\n      shl\n      dup2\n      mstore\n      0x04\n      add\n      tag_103\n      swap3\n      swap2\n      swap1\n      tag_91\n      jump\t// in\n    tag_103:\n      0x20\n      mload(0x40)\n      dup1\n      dup4\n      sub\n      dup2\n      0x00\n      dup8\n      dup1\n      extcodesize\n      iszero\n      dup1\n      iszero\n      tag_104\n      jumpi\n      0x00\n      dup1\n      revert\n    tag_104:\n      pop\n      gas\n      call\n      iszero\n      dup1\n      iszero\n      tag_106\n      jumpi\n      returndatasize\n      0x00\n      dup1\n      returndatacopy\n      revert(0x00, returndatasize)\n    tag_106:\n      pop\n      pop\n      pop\n      pop\n      mload(0x40)\n      returndatasize\n      not(0x1f)\n      0x1f\n      dup3\n      add\n      and\n      dup3\n      add\n      dup1\n      0x40\n      mstore\n      pop\n      dup2\n      add\n      swap1\n      tag_107\n      swap2\n      swap1\n      tag_96\n      jump\t// in\n    tag_107:\n      pop\n        /* \"test/sis.sol\":4914:5290  { \r... */\n      pop\n        /* \"test/sis.sol\":4869:5290  function withdrawToOwner()\r... */\n      jump\t// out\n        /* \"test/Ownable.sol\":1661:1762  function renounceOwnership() public virtual onlyOwner {... */\n    tag_27:\n        /* \"test/Ownable.sol\":1252:1264  _msgSender() */\n      tag_109\n        /* \"test/Ownable.sol\":1252:1262  _msgSender */\n      tag_110\n        /* \"test/Ownable.sol\":1252:1264  _msgSender() */\n      jump\t// in\n    tag_109:\n        /* \"test/Ownable.sol\":1241:1264  owner() == _msgSender() */\n      0xffffffffffffffffffffffffffffffffffffffff\n      and\n        /* \"test/Ownable.sol\":1241:1248  owner() */\n      tag_111\n        /* \"test/Ownable.sol\":1241:1246  owner */\n      tag_47\n        /* \"test/Ownable.sol\":1241:1248  owner() */\n      jump\t// in\n    tag_111:\n        /* \"test/Ownable.sol\":1241:1264  owner() == _msgSender() */\n      0xffffffffffffffffffffffffffffffffffffffff\n      and\n      eq\n        /* \"test/Ownable.sol\":1233:1301  require(owner() == _msgSender(), \"Ownable: caller is not the owner\") */\n      tag_112\n      jumpi\n      mload(0x40)\n      0x08c379a000000000000000000000000000000000000000000000000000000000\n      dup2\n      mstore\n      0x04\n      add\n      tag_113\n      swap1\n      tag_114\n      jump\t// in\n    tag_113:\n      mload(0x40)\n      dup1\n      swap2\n      sub\n      swap1\n      revert\n    tag_112:\n        /* \"test/Ownable.sol\":1725:1755  _transferOwnership(address(0)) */\n      tag_116\n        /* \"test/Ownable.sol\":1752:1753  0 */\n      0x00\n        /* \"test/Ownable.sol\":1725:1743  _transferOwnership */\n      tag_117\n        /* \"test/Ownable.sol\":1725:1755  _transferOwnership(address(0)) */\n      jump\t// in\n    tag_116:\n        /* \"test/Ownable.sol\":1661:1762  function renounceOwnership() public virtual onlyOwner {... */\n      jump\t// out\n        /* \"test/sis.sol\":3497:3938  function buySafuu(uint256 amttobuy) public payable\r... */\n    tag_31:\n        /* \"test/sis.sol\":3584:3594  BnbToSafuu */\n      sload(0x02)\n        /* \"test/sis.sol\":3572:3580  amttobuy */\n      dup2\n        /* \"test/sis.sol\":3572:3594  amttobuy >= BnbToSafuu */\n      lt\n      iszero\n        /* \"test/sis.sol\":3564:3625  require(amttobuy >= BnbToSafuu, \"Minimum trade amount 1 bnb\") */\n      tag_119\n      jumpi\n      mload(0x40)\n      0x08c379a000000000000000000000000000000000000000000000000000000000\n      dup2\n      mstore\n      0x04\n      add\n      tag_120\n      swap1\n      tag_121\n      jump\t// in\n    tag_120:\n      mload(0x40)\n      dup1\n      swap2\n      sub\n      swap1\n      revert\n    tag_119:\n        /* \"test/sis.sol\":3636:3654  uint256 payableAmt */\n      0x00\n        /* \"test/sis.sol\":3715:3721  10**18 */\n      0x0de0b6b3a7640000\n        /* \"test/sis.sol\":3701:3711  BnbToSafuu */\n      sload(0x02)\n        /* \"test/sis.sol\":3692:3700  amttobuy */\n      dup4\n        /* \"test/sis.sol\":3692:3711  amttobuy/BnbToSafuu */\n      tag_122\n      swap2\n      swap1\n      tag_123\n      jump\t// in\n    tag_122:\n        /* \"test/sis.sol\":3691:3722  (amttobuy/BnbToSafuu) *(10**18) */\n      tag_124\n      swap2\n      swap1\n      tag_125\n      jump\t// in\n    tag_124:\n        /* \"test/sis.sol\":3678:3722  payableAmt = (amttobuy/BnbToSafuu) *(10**18) */\n      swap1\n      pop\n        /* \"test/sis.sol\":3734:3746  bool success */\n      0x00\n        /* \"test/sis.sol\":3752:3759  owner() */\n      tag_126\n        /* \"test/sis.sol\":3752:3757  owner */\n      tag_47\n        /* \"test/sis.sol\":3752:3759  owner() */\n      jump\t// in\n    tag_126:\n        /* \"test/sis.sol\":3752:3764  owner().call */\n      0xffffffffffffffffffffffffffffffffffffffff\n      and\n        /* \"test/sis.sol\":3772:3782  payableAmt */\n      dup3\n        /* \"test/sis.sol\":3752:3787  owner().call{value: payableAmt}(\"\") */\n      mload(0x40)\n      tag_127\n      swap1\n      tag_76\n      jump\t// in\n    tag_127:\n      0x00\n      mload(0x40)\n      dup1\n      dup4\n      sub\n      dup2\n      dup6\n      dup8\n      gas\n      call\n      swap3\n      pop\n      pop\n      pop\n      returndatasize\n      dup1\n      0x00\n      dup2\n      eq\n      tag_130\n      jumpi\n      mload(0x40)\n      swap2\n      pop\n      and(add(returndatasize, 0x3f), not(0x1f))\n      dup3\n      add\n      0x40\n      mstore\n      returndatasize\n      dup3\n      mstore\n      returndatasize\n      0x00\n      0x20\n      dup5\n      add\n      returndatacopy\n      jump(tag_129)\n    tag_130:\n      0x60\n      swap2\n      pop\n    tag_129:\n      pop\n        /* \"test/sis.sol\":3733:3787  (bool success, ) = owner().call{value: payableAmt}(\"\") */\n      pop\n      swap1\n      pop\n        /* \"test/sis.sol\":3806:3813  success */\n      dup1\n        /* \"test/sis.sol\":3798:3834  require(success, \"Transfer failed!\") */\n      tag_131\n      jumpi\n      mload(0x40)\n      0x08c379a000000000000000000000000000000000000000000000000000000000\n      dup2\n      mstore\n      0x04\n      add\n      tag_132\n      swap1\n      tag_133\n      jump\t// in\n    tag_132:\n      mload(0x40)\n      dup1\n      swap2\n      sub\n      swap1\n      revert\n    tag_131:\n        /* \"test/sis.sol\":3885:3890  Safuu */\n      0x03\n      0x00\n      swap1\n      sload\n      swap1\n      0x0100\n      exp\n      swap1\n      div\n      0xffffffffffffffffffffffffffffffffffffffff\n      and\n        /* \"test/sis.sol\":3885:3899  Safuu.transfer */\n      0xffffffffffffffffffffffffffffffffffffffff\n      and\n      0xa9059cbb\n        /* \"test/sis.sol\":3900:3910  msg.sender */\n      caller\n        /* \"test/sis.sol\":3912:3920  amttobuy */\n      dup6\n        /* \"test/sis.sol\":3885:3921  Safuu.transfer(msg.sender, amttobuy) */\n      mload(0x40)\n      dup4\n      0xffffffff\n      and\n      0xe0\n      shl\n      dup2\n      mstore\n      0x04\n      add\n      tag_134\n      swap3\n      swap2\n      swap1\n      tag_91\n      jump\t// in\n    tag_134:\n      0x20\n      mload(0x40)\n      dup1\n      dup4\n      sub\n      dup2\n      0x00\n      dup8\n      dup1\n      extcodesize\n      iszero\n      dup1\n      iszero\n      tag_135\n      jumpi\n      0x00\n      dup1\n      revert\n    tag_135:\n      pop\n      gas\n      call\n      iszero\n      dup1\n      iszero\n      tag_137\n      jumpi\n      returndatasize\n      0x00\n      dup1\n      returndatacopy\n      revert(0x00, returndatasize)\n    tag_137:\n      pop\n      pop\n      pop\n      pop\n      mload(0x40)\n      returndatasize\n      not(0x1f)\n      0x1f\n      dup3\n      add\n      and\n      dup3\n      add\n      dup1\n      0x40\n      mstore\n      pop\n      dup2\n      add\n      swap1\n      tag_138\n      swap2\n      swap1\n      tag_96\n      jump\t// in\n    tag_138:\n      pop\n        /* \"test/sis.sol\":3553:3938  {\r... */\n      pop\n      pop\n        /* \"test/sis.sol\":3497:3938  function buySafuu(uint256 amttobuy) public payable\r... */\n      pop\n      jump\t// out\n        /* \"test/sis.sol\":4755:4863  function setFactor(uint256 _newfactor) public onlyOwner {\r... */\n    tag_35:\n        /* \"test/Ownable.sol\":1252:1264  _msgSender() */\n      tag_140\n        /* \"test/Ownable.sol\":1252:1262  _msgSender */\n      tag_110\n        /* \"test/Ownable.sol\":1252:1264  _msgSender() */\n      jump\t// in\n    tag_140:\n        /* \"test/Ownable.sol\":1241:1264  owner() == _msgSender() */\n      0xffffffffffffffffffffffffffffffffffffffff\n      and\n        /* \"test/Ownable.sol\":1241:1248  owner() */\n      tag_141\n        /* \"test/Ownable.sol\":1241:1246  owner */\n      tag_47\n        /* \"test/Ownable.sol\":1241:1248  owner() */\n      jump\t// in\n    tag_141:\n        /* \"test/Ownable.sol\":1241:1264  owner() == _msgSender() */\n      0xffffffffffffffffffffffffffffffffffffffff\n      and\n      eq\n        /* \"test/Ownable.sol\":1233:1301  require(owner() == _msgSender(), \"Ownable: caller is not the owner\") */\n      tag_142\n      jumpi\n      mload(0x40)\n      0x08c379a000000000000000000000000000000000000000000000000000000000\n      dup2\n      mstore\n      0x04\n      add\n      tag_143\n      swap1\n      tag_114\n      jump\t// in\n    tag_143:\n      mload(0x40)\n      dup1\n      swap2\n      sub\n      swap1\n      revert\n    tag_142:\n        /* \"test/sis.sol\":4845:4855  _newfactor */\n      dup1\n        /* \"test/sis.sol\":4832:4842  BnbToSafuu */\n      0x02\n        /* \"test/sis.sol\":4832:4855  BnbToSafuu = _newfactor */\n      dup2\n      swap1\n      sstore\n      pop\n        /* \"test/sis.sol\":4755:4863  function setFactor(uint256 _newfactor) public onlyOwner {\r... */\n      pop\n      jump\t// out\n        /* \"test/sis.sol\":2840:2858  IERC20 public USDC */\n    tag_38:\n      0x04\n      0x00\n      swap1\n      sload\n      swap1\n      0x0100\n      exp\n      swap1\n      div\n      0xffffffffffffffffffffffffffffffffffffffff\n      and\n      dup2\n      jump\t// out\n        /* \"test/sis.sol\":2814:2833  IERC20 public Safuu */\n    tag_43:\n      0x03\n      0x00\n      swap1\n      sload\n      swap1\n      0x0100\n      exp\n      swap1\n      div\n      0xffffffffffffffffffffffffffffffffffffffff\n      and\n      dup2\n      jump\t// out\n        /* \"test/Ownable.sol\":1029:1114  function owner() public view virtual returns (address) {... */\n    tag_47:\n        /* \"test/Ownable.sol\":1075:1082  address */\n      0x00\n        /* \"test/Ownable.sol\":1101:1107  _owner */\n      dup1\n      0x00\n      swap1\n      sload\n      swap1\n      0x0100\n      exp\n      swap1\n      div\n      0xffffffffffffffffffffffffffffffffffffffff\n      and\n        /* \"test/Ownable.sol\":1094:1107  return _owner */\n      swap1\n      pop\n        /* \"test/Ownable.sol\":1029:1114  function owner() public view virtual returns (address) {... */\n      swap1\n      jump\t// out\n        /* \"test/sis.sol\":3944:4228  function getLatestPrice() public view returns (int) {\r... */\n    tag_52:\n        /* \"test/sis.sol\":3991:3994  int */\n      0x00\n        /* \"test/sis.sol\":4022:4036  uint80 roundID */\n      dup1\n        /* \"test/sis.sol\":4052:4061  int price */\n      0x00\n        /* \"test/sis.sol\":4076:4090  uint startedAt */\n      dup1\n        /* \"test/sis.sol\":4105:4119  uint timeStamp */\n      0x00\n        /* \"test/sis.sol\":4134:4156  uint80 answeredInRound */\n      dup1\n        /* \"test/sis.sol\":4170:4179  priceFeed */\n      0x01\n      0x00\n      swap1\n      sload\n      swap1\n      0x0100\n      exp\n      swap1\n      div\n      0xffffffffffffffffffffffffffffffffffffffff\n      and\n        /* \"test/sis.sol\":4170:4195  priceFeed.latestRoundData */\n      0xffffffffffffffffffffffffffffffffffffffff\n      and\n      0xfeaf968c\n        /* \"test/sis.sol\":4170:4197  priceFeed.latestRoundData() */\n      mload(0x40)\n      dup2\n      0xffffffff\n      and\n      0xe0\n      shl\n      dup2\n      mstore\n      0x04\n      add\n      0xa0\n      mload(0x40)\n      dup1\n      dup4\n      sub\n      dup2\n      dup7\n      dup1\n      extcodesize\n      iszero\n      dup1\n      iszero\n      tag_147\n      jumpi\n      0x00\n      dup1\n      revert\n    tag_147:\n      pop\n      gas\n      staticcall\n      iszero\n      dup1\n      iszero\n      tag_149\n      jumpi\n      returndatasize\n      0x00\n      dup1\n      returndatacopy\n      revert(0x00, returndatasize)\n    tag_149:\n      pop\n      pop\n      pop\n      pop\n      mload(0x40)\n      returndatasize\n      not(0x1f)\n      0x1f\n      dup3\n      add\n      and\n      dup3\n      add\n      dup1\n      0x40\n      mstore\n      pop\n      dup2\n      add\n      swap1\n      tag_150\n      swap2\n      swap1\n      tag_151\n      jump\t// in\n    tag_150:\n        /* \"test/sis.sol\":4007:4197  (\r... */\n      swap5\n      pop\n      swap5\n      pop\n      swap5\n      pop\n      swap5\n      pop\n      swap5\n      pop\n        /* \"test/sis.sol\":4215:4220  price */\n      dup4\n        /* \"test/sis.sol\":4208:4220  return price */\n      swap6\n      pop\n      pop\n      pop\n      pop\n      pop\n      pop\n        /* \"test/sis.sol\":3944:4228  function getLatestPrice() public view returns (int) {\r... */\n      swap1\n      jump\t// out\n        /* \"test/sis.sol\":4234:4745  function sellSafuu(uint256 amttosell) public \r... */\n    tag_57:\n        /* \"test/sis.sol\":4317:4327  BnbToSafuu */\n      sload(0x02)\n        /* \"test/sis.sol\":4304:4313  amttosell */\n      dup2\n        /* \"test/sis.sol\":4304:4327  amttosell == BnbToSafuu */\n      eq\n        /* \"test/sis.sol\":4296:4351  require(amttosell == BnbToSafuu, \"Must be 1 bnb worth\") */\n      tag_153\n      jumpi\n      mload(0x40)\n      0x08c379a000000000000000000000000000000000000000000000000000000000\n      dup2\n      mstore\n      0x04\n      add\n      tag_154\n      swap1\n      tag_155\n      jump\t// in\n    tag_154:\n      mload(0x40)\n      dup1\n      swap2\n      sub\n      swap1\n      revert\n    tag_153:\n        /* \"test/sis.sol\":4358:4420  _safeTransferFrom(Safuu, msg.sender, address(this), amttosell) */\n      tag_156\n        /* \"test/sis.sol\":4376:4381  Safuu */\n      0x03\n      0x00\n      swap1\n      sload\n      swap1\n      0x0100\n      exp\n      swap1\n      div\n      0xffffffffffffffffffffffffffffffffffffffff\n      and\n        /* \"test/sis.sol\":4383:4393  msg.sender */\n      caller\n        /* \"test/sis.sol\":4403:4407  this */\n      address\n        /* \"test/sis.sol\":4410:4419  amttosell */\n      dup5\n        /* \"test/sis.sol\":4358:4375  _safeTransferFrom */\n      tag_157\n        /* \"test/sis.sol\":4358:4420  _safeTransferFrom(Safuu, msg.sender, address(this), amttosell) */\n      jump\t// in\n    tag_156:\n        /* \"test/sis.sol\":4455:4467  uint256 usdc */\n      0x00\n        /* \"test/sis.sol\":4692:4698  10**10 */\n      0x02540be400\n        /* \"test/sis.sol\":4672:4688  getLatestPrice() */\n      tag_158\n        /* \"test/sis.sol\":4672:4686  getLatestPrice */\n      tag_52\n        /* \"test/sis.sol\":4672:4688  getLatestPrice() */\n      jump\t// in\n    tag_158:\n        /* \"test/sis.sol\":4664:4699  uint256(getLatestPrice()) *(10**10) */\n      tag_159\n      swap2\n      swap1\n      tag_125\n      jump\t// in\n    tag_159:\n        /* \"test/sis.sol\":4657:4699  usdc = uint256(getLatestPrice()) *(10**10) */\n      swap1\n      pop\n        /* \"test/sis.sol\":4706:4710  USDC */\n      0x04\n      0x00\n      swap1\n      sload\n      swap1\n      0x0100\n      exp\n      swap1\n      div\n      0xffffffffffffffffffffffffffffffffffffffff\n      and\n        /* \"test/sis.sol\":4706:4719  USDC.transfer */\n      0xffffffffffffffffffffffffffffffffffffffff\n      and\n      0xa9059cbb\n        /* \"test/sis.sol\":4720:4730  msg.sender */\n      caller\n        /* \"test/sis.sol\":4732:4736  usdc */\n      dup4\n        /* \"test/sis.sol\":4706:4737  USDC.transfer(msg.sender, usdc) */\n      mload(0x40)\n      dup4\n      0xffffffff\n      and\n      0xe0\n      shl\n      dup2\n      mstore\n      0x04\n      add\n      tag_160\n      swap3\n      swap2\n      swap1\n      tag_91\n      jump\t// in\n    tag_160:\n      0x20\n      mload(0x40)\n      dup1\n      dup4\n      sub\n      dup2\n      0x00\n      dup8\n      dup1\n      extcodesize\n      iszero\n      dup1\n      iszero\n      tag_161\n      jumpi\n      0x00\n      dup1\n      revert\n    tag_161:\n      pop\n      gas\n      call\n      iszero\n      dup1\n      iszero\n      tag_163\n      jumpi\n      returndatasize\n      0x00\n      dup1\n      returndatacopy\n      revert(0x00, returndatasize)\n    tag_163:\n      pop\n      pop\n      pop\n      pop\n      mload(0x40)\n      returndatasize\n      not(0x1f)\n      0x1f\n      dup3\n      add\n      and\n      dup3\n      add\n      dup1\n      0x40\n      mstore\n      pop\n      dup2\n      add\n      swap1\n      tag_164\n      swap2\n      swap1\n      tag_96\n      jump\t// in\n    tag_164:\n      pop\n        /* \"test/sis.sol\":4285:4745  {\r... */\n      pop\n        /* \"test/sis.sol\":4234:4745  function sellSafuu(uint256 amttosell) public \r... */\n      pop\n      jump\t// out\n        /* \"test/sis.sol\":2780:2806  uint256  public BnbToSafuu */\n    tag_60:\n      sload(0x02)\n      dup2\n      jump\t// out\n        /* \"test/Ownable.sol\":1911:2109  function transferOwnership(address newOwner) public virtual onlyOwner {... */\n    tag_67:\n        /* \"test/Ownable.sol\":1252:1264  _msgSender() */\n      tag_166\n        /* \"test/Ownable.sol\":1252:1262  _msgSender */\n      tag_110\n        /* \"test/Ownable.sol\":1252:1264  _msgSender() */\n      jump\t// in\n    tag_166:\n        /* \"test/Ownable.sol\":1241:1264  owner() == _msgSender() */\n      0xffffffffffffffffffffffffffffffffffffffff\n      and\n        /* \"test/Ownable.sol\":1241:1248  owner() */\n      tag_167\n        /* \"test/Ownable.sol\":1241:1246  owner */\n      tag_47\n        /* \"test/Ownable.sol\":1241:1248  owner() */\n      jump\t// in\n    tag_167:\n        /* \"test/Ownable.sol\":1241:1264  owner() == _msgSender() */\n      0xffffffffffffffffffffffffffffffffffffffff\n      and\n      eq\n        /* \"test/Ownable.sol\":1233:1301  require(owner() == _msgSender(), \"Ownable: caller is not the owner\") */\n      tag_168\n      jumpi\n      mload(0x40)\n      0x08c379a000000000000000000000000000000000000000000000000000000000\n      dup2\n      mstore\n      0x04\n      add\n      tag_169\n      swap1\n      tag_114\n      jump\t// in\n    tag_169:\n      mload(0x40)\n      dup1\n      swap2\n      sub\n      swap1\n      revert\n    tag_168:\n        /* \"test/Ownable.sol\":2019:2020  0 */\n      0x00\n        /* \"test/Ownable.sol\":1999:2021  newOwner != address(0) */\n      0xffffffffffffffffffffffffffffffffffffffff\n      and\n        /* \"test/Ownable.sol\":1999:2007  newOwner */\n      dup2\n        /* \"test/Ownable.sol\":1999:2021  newOwner != address(0) */\n      0xffffffffffffffffffffffffffffffffffffffff\n      and\n      eq\n      iszero\n        /* \"test/Ownable.sol\":1991:2064  require(newOwner != address(0), \"Ownable: new owner is the zero address\") */\n      tag_171\n      jumpi\n      mload(0x40)\n      0x08c379a000000000000000000000000000000000000000000000000000000000\n      dup2\n      mstore\n      0x04\n      add\n      tag_172\n      swap1\n      tag_173\n      jump\t// in\n    tag_172:\n      mload(0x40)\n      dup1\n      swap2\n      sub\n      swap1\n      revert\n    tag_171:\n        /* \"test/Ownable.sol\":2074:2102  _transferOwnership(newOwner) */\n      tag_174\n        /* \"test/Ownable.sol\":2093:2101  newOwner */\n      dup2\n        /* \"test/Ownable.sol\":2074:2092  _transferOwnership */\n      tag_117\n        /* \"test/Ownable.sol\":2074:2102  _transferOwnership(newOwner) */\n      jump\t// in\n    tag_174:\n        /* \"test/Ownable.sol\":1911:2109  function transferOwnership(address newOwner) public virtual onlyOwner {... */\n      pop\n      jump\t// out\n        /* \"test/sis.sol\":547:690  function div(int256 a, int256 b) internal pure returns (int256) {\r... */\n    tag_70:\n        /* \"test/sis.sol\":603:609  int256 */\n      0x00\n        /* \"test/sis.sol\":635:637  -1 */\n      0xffffffffffffffffffffffffffffffffffffffffffffffffffffffffffffffff\n        /* \"test/sis.sol\":630:631  b */\n      dup3\n        /* \"test/sis.sol\":630:637  b != -1 */\n      eq\n      iszero\n        /* \"test/sis.sol\":630:656  b != -1 || a != MIN_INT256 */\n      dup1\n      tag_176\n      jumpi\n      pop\n        /* \"test/sis.sol\":225:228  255 */\n      0xff\n        /* \"test/sis.sol\":219:220  1 */\n      0x01\n        /* \"test/sis.sol\":212:228  int256(1) << 255 */\n      swap1\n      shl\n        /* \"test/sis.sol\":641:642  a */\n      dup4\n        /* \"test/sis.sol\":641:656  a != MIN_INT256 */\n      eq\n      iszero\n        /* \"test/sis.sol\":630:656  b != -1 || a != MIN_INT256 */\n    tag_176:\n        /* \"test/sis.sol\":622:657  require(b != -1 || a != MIN_INT256) */\n      tag_177\n      jumpi\n      0x00\n      dup1\n      revert\n    tag_177:\n        /* \"test/sis.sol\":681:682  b */\n      dup2\n        /* \"test/sis.sol\":677:678  a */\n      dup4\n        /* \"test/sis.sol\":677:682  a / b */\n      tag_178\n      swap2\n      swap1\n      tag_179\n      jump\t// in\n    tag_178:\n        /* \"test/sis.sol\":670:682  return a / b */\n      swap1\n      pop\n        /* \"test/sis.sol\":547:690  function div(int256 a, int256 b) internal pure returns (int256) {\r... */\n      swap3\n      swap2\n      pop\n      pop\n      jump\t// out\n        /* \"test/Context.sol\":640:736  function _msgSender() internal view virtual returns (address) {... */\n    tag_110:\n        /* \"test/Context.sol\":693:700  address */\n      0x00\n        /* \"test/Context.sol\":719:729  msg.sender */\n      caller\n        /* \"test/Context.sol\":712:729  return msg.sender */\n      swap1\n      pop\n        /* \"test/Context.sol\":640:736  function _msgSender() internal view virtual returns (address) {... */\n      swap1\n      jump\t// out\n        /* \"test/Ownable.sol\":2263:2450  function _transferOwnership(address newOwner) internal virtual {... */\n    tag_117:\n        /* \"test/Ownable.sol\":2336:2352  address oldOwner */\n      0x00\n        /* \"test/Ownable.sol\":2355:2361  _owner */\n      dup1\n      0x00\n      swap1\n      sload\n      swap1\n      0x0100\n      exp\n      swap1\n      div\n      0xffffffffffffffffffffffffffffffffffffffff\n      and\n        /* \"test/Ownable.sol\":2336:2361  address oldOwner = _owner */\n      swap1\n      pop\n        /* \"test/Ownable.sol\":2380:2388  newOwner */\n      dup2\n        /* \"test/Ownable.sol\":2371:2377  _owner */\n      0x00\n      dup1\n        /* \"test/Ownable.sol\":2371:2388  _owner = newOwner */\n      0x0100\n      exp\n      dup2\n      sload\n      dup2\n      0xffffffffffffffffffffffffffffffffffffffff\n      mul\n      not\n      and\n      swap1\n      dup4\n      0xffffffffffffffffffffffffffffffffffffffff\n      and\n      mul\n      or\n      swap1\n      sstore\n      pop\n        /* \"test/Ownable.sol\":2434:2442  newOwner */\n      dup2\n        /* \"test/Ownable.sol\":2403:2443  OwnershipTransferred(oldOwner, newOwner) */\n      0xffffffffffffffffffffffffffffffffffffffff\n      and\n        /* \"test/Ownable.sol\":2424:2432  oldOwner */\n      dup2\n        /* \"test/Ownable.sol\":2403:2443  OwnershipTransferred(oldOwner, newOwner) */\n      0xffffffffffffffffffffffffffffffffffffffff\n      and\n      0x8be0079c531659141344cd1fd0a4f28419497f9722a3daafe3b4186f6b6457e0\n      mload(0x40)\n      mload(0x40)\n      dup1\n      swap2\n      sub\n      swap1\n      log3\n        /* \"test/Ownable.sol\":2326:2450  {... */\n      pop\n        /* \"test/Ownable.sol\":2263:2450  function _transferOwnership(address newOwner) internal virtual {... */\n      pop\n      jump\t// out\n        /* \"test/sis.sol\":5296:5564  function _safeTransferFrom(\r... */\n    tag_157:\n        /* \"test/sis.sol\":5450:5459  bool sent */\n      0x00\n        /* \"test/sis.sol\":5462:5467  token */\n      dup5\n        /* \"test/sis.sol\":5462:5480  token.transferFrom */\n      0xffffffffffffffffffffffffffffffffffffffff\n      and\n      0x23b872dd\n        /* \"test/sis.sol\":5481:5487  sender */\n      dup6\n        /* \"test/sis.sol\":5489:5498  recipient */\n      dup6\n        /* \"test/sis.sol\":5500:5506  amount */\n      dup6\n        /* \"test/sis.sol\":5462:5507  token.transferFrom(sender, recipient, amount) */\n      mload(0x40)\n      dup5\n      0xffffffff\n      and\n      0xe0\n      shl\n      dup2\n      mstore\n      0x04\n      add\n      tag_183\n      swap4\n      swap3\n      swap2\n      swap1\n      tag_184\n      jump\t// in\n    tag_183:\n      0x20\n      mload(0x40)\n      dup1\n      dup4\n      sub\n      dup2\n      0x00\n      dup8\n      dup1\n      extcodesize\n      iszero\n      dup1\n      iszero\n      tag_185\n      jumpi\n      0x00\n      dup1\n      revert\n    tag_185:\n      pop\n      gas\n      call\n      iszero\n      dup1\n      iszero\n      tag_187\n      jumpi\n      returndatasize\n      0x00\n      dup1\n      returndatacopy\n      revert(0x00, returndatasize)\n    tag_187:\n      pop\n      pop\n      pop\n      pop\n      mload(0x40)\n      returndatasize\n      not(0x1f)\n      0x1f\n      dup3\n      add\n      and\n      dup3\n      add\n      dup1\n      0x40\n      mstore\n      pop\n      dup2\n      add\n      swap1\n      tag_188\n      swap2\n      swap1\n      tag_96\n      jump\t// in\n    tag_188:\n        /* \"test/sis.sol\":5450:5507  bool sent = token.transferFrom(sender, recipient, amount) */\n      swap1\n      pop\n        /* \"test/sis.sol\":5526:5530  sent */\n      dup1\n        /* \"test/sis.sol\":5518:5556  require(sent, \"Token transfer failed\") */\n      tag_189\n      jumpi\n      mload(0x40)\n      0x08c379a000000000000000000000000000000000000000000000000000000000\n      dup2\n      mstore\n      0x04\n      add\n      tag_190\n      swap1\n      tag_191\n      jump\t// in\n    tag_190:\n      mload(0x40)\n      dup1\n      swap2\n      sub\n      swap1\n      revert\n    tag_189:\n        /* \"test/sis.sol\":5439:5564  {\r... */\n      pop\n        /* \"test/sis.sol\":5296:5564  function _safeTransferFrom(\r... */\n      pop\n      pop\n      pop\n      pop\n      jump\t// out\n        /* \"#utility.yul\":7:146   */\n    tag_193:\n        /* \"#utility.yul\":53:58   */\n      0x00\n        /* \"#utility.yul\":91:97   */\n      dup2\n        /* \"#utility.yul\":78:98   */\n      calldataload\n        /* \"#utility.yul\":69:98   */\n      swap1\n      pop\n        /* \"#utility.yul\":107:140   */\n      tag_195\n        /* \"#utility.yul\":134:139   */\n      dup2\n        /* \"#utility.yul\":107:140   */\n      tag_196\n      jump\t// in\n    tag_195:\n        /* \"#utility.yul\":7:146   */\n      swap3\n      swap2\n      pop\n      pop\n      jump\t// out\n        /* \"#utility.yul\":152:289   */\n    tag_197:\n        /* \"#utility.yul\":206:211   */\n      0x00\n        /* \"#utility.yul\":237:243   */\n      dup2\n        /* \"#utility.yul\":231:244   */\n      mload\n        /* \"#utility.yul\":222:244   */\n      swap1\n      pop\n        /* \"#utility.yul\":253:283   */\n      tag_199\n        /* \"#utility.yul\":277:282   */\n      dup2\n        /* \"#utility.yul\":253:283   */\n      tag_200\n      jump\t// in\n    tag_199:\n        /* \"#utility.yul\":152:289   */\n      swap3\n      swap2\n      pop\n      pop\n      jump\t// out\n        /* \"#utility.yul\":295:432   */\n    tag_201:\n        /* \"#utility.yul\":340:345   */\n      0x00\n        /* \"#utility.yul\":378:384   */\n      dup2\n        /* \"#utility.yul\":365:385   */\n      calldataload\n        /* \"#utility.yul\":356:385   */\n      swap1\n      pop\n        /* \"#utility.yul\":394:426   */\n      tag_203\n        /* \"#utility.yul\":420:425   */\n      dup2\n        /* \"#utility.yul\":394:426   */\n      tag_204\n      jump\t// in\n    tag_203:\n        /* \"#utility.yul\":295:432   */\n      swap3\n      swap2\n      pop\n      pop\n      jump\t// out\n        /* \"#utility.yul\":438:579   */\n    tag_205:\n        /* \"#utility.yul\":494:499   */\n      0x00\n        /* \"#utility.yul\":525:531   */\n      dup2\n        /* \"#utility.yul\":519:532   */\n      mload\n        /* \"#utility.yul\":510:532   */\n      swap1\n      pop\n        /* \"#utility.yul\":541:573   */\n      tag_207\n        /* \"#utility.yul\":567:572   */\n      dup2\n        /* \"#utility.yul\":541:573   */\n      tag_204\n      jump\t// in\n    tag_207:\n        /* \"#utility.yul\":438:579   */\n      swap3\n      swap2\n      pop\n      pop\n      jump\t// out\n        /* \"#utility.yul\":585:724   */\n    tag_208:\n        /* \"#utility.yul\":631:636   */\n      0x00\n        /* \"#utility.yul\":669:675   */\n      dup2\n        /* \"#utility.yul\":656:676   */\n      calldataload\n        /* \"#utility.yul\":647:676   */\n      swap1\n      pop\n        /* \"#utility.yul\":685:718   */\n      tag_210\n        /* \"#utility.yul\":712:717   */\n      dup2\n        /* \"#utility.yul\":685:718   */\n      tag_211\n      jump\t// in\n    tag_210:\n        /* \"#utility.yul\":585:724   */\n      swap3\n      swap2\n      pop\n      pop\n      jump\t// out\n        /* \"#utility.yul\":730:873   */\n    tag_212:\n        /* \"#utility.yul\":787:792   */\n      0x00\n        /* \"#utility.yul\":818:824   */\n      dup2\n        /* \"#utility.yul\":812:825   */\n      mload\n        /* \"#utility.yul\":803:825   */\n      swap1\n      pop\n        /* \"#utility.yul\":834:867   */\n      tag_214\n        /* \"#utility.yul\":861:866   */\n      dup2\n        /* \"#utility.yul\":834:867   */\n      tag_211\n      jump\t// in\n    tag_214:\n        /* \"#utility.yul\":730:873   */\n      swap3\n      swap2\n      pop\n      pop\n      jump\t// out\n        /* \"#utility.yul\":879:1020   */\n    tag_215:\n        /* \"#utility.yul\":935:940   */\n      0x00\n        /* \"#utility.yul\":966:972   */\n      dup2\n        /* \"#utility.yul\":960:973   */\n      mload\n        /* \"#utility.yul\":951:973   */\n      swap1\n      pop\n        /* \"#utility.yul\":982:1014   */\n      tag_217\n        /* \"#utility.yul\":1008:1013   */\n      dup2\n        /* \"#utility.yul\":982:1014   */\n      tag_218\n      jump\t// in\n    tag_217:\n        /* \"#utility.yul\":879:1020   */\n      swap3\n      swap2\n      pop\n      pop\n      jump\t// out\n        /* \"#utility.yul\":1026:1355   */\n    tag_66:\n        /* \"#utility.yul\":1085:1091   */\n      0x00\n        /* \"#utility.yul\":1134:1136   */\n      0x20\n        /* \"#utility.yul\":1122:1131   */\n      dup3\n        /* \"#utility.yul\":1113:1120   */\n      dup5\n        /* \"#utility.yul\":1109:1132   */\n      sub\n        /* \"#utility.yul\":1105:1137   */\n      slt\n        /* \"#utility.yul\":1102:1221   */\n      iszero\n      tag_220\n      jumpi\n        /* \"#utility.yul\":1140:1219   */\n      tag_221\n      tag_222\n      jump\t// in\n    tag_221:\n        /* \"#utility.yul\":1102:1221   */\n    tag_220:\n        /* \"#utility.yul\":1260:1261   */\n      0x00\n        /* \"#utility.yul\":1285:1338   */\n      tag_223\n        /* \"#utility.yul\":1330:1337   */\n      dup5\n        /* \"#utility.yul\":1321:1327   */\n      dup3\n        /* \"#utility.yul\":1310:1319   */\n      dup6\n        /* \"#utility.yul\":1306:1328   */\n      add\n        /* \"#utility.yul\":1285:1338   */\n      tag_193\n      jump\t// in\n    tag_223:\n        /* \"#utility.yul\":1275:1338   */\n      swap2\n      pop\n        /* \"#utility.yul\":1231:1348   */\n      pop\n        /* \"#utility.yul\":1026:1355   */\n      swap3\n      swap2\n      pop\n      pop\n      jump\t// out\n        /* \"#utility.yul\":1361:1706   */\n    tag_96:\n        /* \"#utility.yul\":1428:1434   */\n      0x00\n        /* \"#utility.yul\":1477:1479   */\n      0x20\n        /* \"#utility.yul\":1465:1474   */\n      dup3\n        /* \"#utility.yul\":1456:1463   */\n      dup5\n        /* \"#utility.yul\":1452:1475   */\n      sub\n        /* \"#utility.yul\":1448:1480   */\n      slt\n        /* \"#utility.yul\":1445:1564   */\n      iszero\n      tag_225\n      jumpi\n        /* \"#utility.yul\":1483:1562   */\n      tag_226\n      tag_222\n      jump\t// in\n    tag_226:\n        /* \"#utility.yul\":1445:1564   */\n    tag_225:\n        /* \"#utility.yul\":1603:1604   */\n      0x00\n        /* \"#utility.yul\":1628:1689   */\n      tag_227\n        /* \"#utility.yul\":1681:1688   */\n      dup5\n        /* \"#utility.yul\":1672:1678   */\n      dup3\n        /* \"#utility.yul\":1661:1670   */\n      dup6\n        /* \"#utility.yul\":1657:1679   */\n      add\n        /* \"#utility.yul\":1628:1689   */\n      tag_197\n      jump\t// in\n    tag_227:\n        /* \"#utility.yul\":1618:1689   */\n      swap2\n      pop\n        /* \"#utility.yul\":1574:1699   */\n      pop\n        /* \"#utility.yul\":1361:1706   */\n      swap3\n      swap2\n      pop\n      pop\n      jump\t// out\n        /* \"#utility.yul\":1712:2182   */\n    tag_18:\n        /* \"#utility.yul\":1778:1784   */\n      0x00\n        /* \"#utility.yul\":1786:1792   */\n      dup1\n        /* \"#utility.yul\":1835:1837   */\n      0x40\n        /* \"#utility.yul\":1823:1832   */\n      dup4\n        /* \"#utility.yul\":1814:1821   */\n      dup6\n        /* \"#utility.yul\":1810:1833   */\n      sub\n        /* \"#utility.yul\":1806:1838   */\n      slt\n        /* \"#utility.yul\":1803:1922   */\n      iszero\n      tag_229\n      jumpi\n        /* \"#utility.yul\":1841:1920   */\n      tag_230\n      tag_222\n      jump\t// in\n    tag_230:\n        /* \"#utility.yul\":1803:1922   */\n    tag_229:\n        /* \"#utility.yul\":1961:1962   */\n      0x00\n        /* \"#utility.yul\":1986:2038   */\n      tag_231\n        /* \"#utility.yul\":2030:2037   */\n      dup6\n        /* \"#utility.yul\":2021:2027   */\n      dup3\n        /* \"#utility.yul\":2010:2019   */\n      dup7\n        /* \"#utility.yul\":2006:2028   */\n      add\n        /* \"#utility.yul\":1986:2038   */\n      tag_201\n      jump\t// in\n    tag_231:\n        /* \"#utility.yul\":1976:2038   */\n      swap3\n      pop\n        /* \"#utility.yul\":1932:2048   */\n      pop\n        /* \"#utility.yul\":2087:2089   */\n      0x20\n        /* \"#utility.yul\":2113:2165   */\n      tag_232\n        /* \"#utility.yul\":2157:2164   */\n      dup6\n        /* \"#utility.yul\":2148:2154   */\n      dup3\n        /* \"#utility.yul\":2137:2146   */\n      dup7\n        /* \"#utility.yul\":2133:2155   */\n      add\n        /* \"#utility.yul\":2113:2165   */\n      tag_201\n      jump\t// in\n    tag_232:\n        /* \"#utility.yul\":2103:2165   */\n      swap2\n      pop\n        /* \"#utility.yul\":2058:2175   */\n      pop\n        /* \"#utility.yul\":1712:2182   */\n      swap3\n      pop\n      swap3\n      swap1\n      pop\n      jump\t// out\n        /* \"#utility.yul\":2188:2517   */\n    tag_30:\n        /* \"#utility.yul\":2247:2253   */\n      0x00\n        /* \"#utility.yul\":2296:2298   */\n      0x20\n        /* \"#utility.yul\":2284:2293   */\n      dup3\n        /* \"#utility.yul\":2275:2282   */\n      dup5\n        /* \"#utility.yul\":2271:2294   */\n      sub\n        /* \"#utility.yul\":2267:2299   */\n      slt\n        /* \"#utility.yul\":2264:2383   */\n      iszero\n      tag_234\n      jumpi\n        /* \"#utility.yul\":2302:2381   */\n      tag_235\n      tag_222\n      jump\t// in\n    tag_235:\n        /* \"#utility.yul\":2264:2383   */\n    tag_234:\n        /* \"#utility.yul\":2422:2423   */\n      0x00\n        /* \"#utility.yul\":2447:2500   */\n      tag_236\n        /* \"#utility.yul\":2492:2499   */\n      dup5\n        /* \"#utility.yul\":2483:2489   */\n      dup3\n        /* \"#utility.yul\":2472:2481   */\n      dup6\n        /* \"#utility.yul\":2468:2490   */\n      add\n        /* \"#utility.yul\":2447:2500   */\n      tag_208\n      jump\t// in\n    tag_236:\n        /* \"#utility.yul\":2437:2500   */\n      swap2\n      pop\n        /* \"#utility.yul\":2393:2510   */\n      pop\n        /* \"#utility.yul\":2188:2517   */\n      swap3\n      swap2\n      pop\n      pop\n      jump\t// out\n        /* \"#utility.yul\":2523:2874   */\n    tag_89:\n        /* \"#utility.yul\":2593:2599   */\n      0x00\n        /* \"#utility.yul\":2642:2644   */\n      0x20\n        /* \"#utility.yul\":2630:2639   */\n      dup3\n        /* \"#utility.yul\":2621:2628   */\n      dup5\n        /* \"#utility.yul\":2617:2640   */\n      sub\n        /* \"#utility.yul\":2613:2645   */\n      slt\n        /* \"#utility.yul\":2610:2729   */\n      iszero\n      tag_238\n      jumpi\n        /* \"#utility.yul\":2648:2727   */\n      tag_239\n      tag_222\n      jump\t// in\n    tag_239:\n        /* \"#utility.yul\":2610:2729   */\n    tag_238:\n        /* \"#utility.yul\":2768:2769   */\n      0x00\n        /* \"#utility.yul\":2793:2857   */\n      tag_240\n        /* \"#utility.yul\":2849:2856   */\n      dup5\n        /* \"#utility.yul\":2840:2846   */\n      dup3\n        /* \"#utility.yul\":2829:2838   */\n      dup6\n        /* \"#utility.yul\":2825:2847   */\n      add\n        /* \"#utility.yul\":2793:2857   */\n      tag_212\n      jump\t// in\n    tag_240:\n        /* \"#utility.yul\":2783:2857   */\n      swap2\n      pop\n        /* \"#utility.yul\":2739:2867   */\n      pop\n        /* \"#utility.yul\":2523:2874   */\n      swap3\n      swap2\n      pop\n      pop\n      jump\t// out\n        /* \"#utility.yul\":2880:3851   */\n    tag_151:\n        /* \"#utility.yul\":2983:2989   */\n      0x00\n        /* \"#utility.yul\":2991:2997   */\n      dup1\n        /* \"#utility.yul\":2999:3005   */\n      0x00\n        /* \"#utility.yul\":3007:3013   */\n      dup1\n        /* \"#utility.yul\":3015:3021   */\n      0x00\n        /* \"#utility.yul\":3064:3067   */\n      0xa0\n        /* \"#utility.yul\":3052:3061   */\n      dup7\n        /* \"#utility.yul\":3043:3050   */\n      dup9\n        /* \"#utility.yul\":3039:3062   */\n      sub\n        /* \"#utility.yul\":3035:3068   */\n      slt\n        /* \"#utility.yul\":3032:3152   */\n      iszero\n      tag_242\n      jumpi\n        /* \"#utility.yul\":3071:3150   */\n      tag_243\n      tag_222\n      jump\t// in\n    tag_243:\n        /* \"#utility.yul\":3032:3152   */\n    tag_242:\n        /* \"#utility.yul\":3191:3192   */\n      0x00\n        /* \"#utility.yul\":3216:3279   */\n      tag_244\n        /* \"#utility.yul\":3271:3278   */\n      dup9\n        /* \"#utility.yul\":3262:3268   */\n      dup3\n        /* \"#utility.yul\":3251:3260   */\n      dup10\n        /* \"#utility.yul\":3247:3269   */\n      add\n        /* \"#utility.yul\":3216:3279   */\n      tag_215\n      jump\t// in\n    tag_244:\n        /* \"#utility.yul\":3206:3279   */\n      swap6\n      pop\n        /* \"#utility.yul\":3162:3289   */\n      pop\n        /* \"#utility.yul\":3328:3330   */\n      0x20\n        /* \"#utility.yul\":3354:3417   */\n      tag_245\n        /* \"#utility.yul\":3409:3416   */\n      dup9\n        /* \"#utility.yul\":3400:3406   */\n      dup3\n        /* \"#utility.yul\":3389:3398   */\n      dup10\n        /* \"#utility.yul\":3385:3407   */\n      add\n        /* \"#utility.yul\":3354:3417   */\n      tag_205\n      jump\t// in\n    tag_245:\n        /* \"#utility.yul\":3344:3417   */\n      swap5\n      pop\n        /* \"#utility.yul\":3299:3427   */\n      pop\n        /* \"#utility.yul\":3466:3468   */\n      0x40\n        /* \"#utility.yul\":3492:3556   */\n      tag_246\n        /* \"#utility.yul\":3548:3555   */\n      dup9\n        /* \"#utility.yul\":3539:3545   */\n      dup3\n        /* \"#utility.yul\":3528:3537   */\n      dup10\n        /* \"#utility.yul\":3524:3546   */\n      add\n        /* \"#utility.yul\":3492:3556   */\n      tag_212\n      jump\t// in\n    tag_246:\n        /* \"#utility.yul\":3482:3556   */\n      swap4\n      pop\n        /* \"#utility.yul\":3437:3566   */\n      pop\n        /* \"#utility.yul\":3605:3607   */\n      0x60\n        /* \"#utility.yul\":3631:3695   */\n      tag_247\n        /* \"#utility.yul\":3687:3694   */\n      dup9\n        /* \"#utility.yul\":3678:3684   */\n      dup3\n        /* \"#utility.yul\":3667:3676   */\n      dup10\n        /* \"#utility.yul\":3663:3685   */\n      add\n        /* \"#utility.yul\":3631:3695   */\n      tag_212\n      jump\t// in\n    tag_247:\n        /* \"#utility.yul\":3621:3695   */\n      swap3\n      pop\n        /* \"#utility.yul\":3576:3705   */\n      pop\n        /* \"#utility.yul\":3744:3747   */\n      0x80\n        /* \"#utility.yul\":3771:3834   */\n      tag_248\n        /* \"#utility.yul\":3826:3833   */\n      dup9\n        /* \"#utility.yul\":3817:3823   */\n      dup3\n        /* \"#utility.yul\":3806:3815   */\n      dup10\n        /* \"#utility.yul\":3802:3824   */\n      add\n        /* \"#utility.yul\":3771:3834   */\n      tag_215\n      jump\t// in\n    tag_248:\n        /* \"#utility.yul\":3761:3834   */\n      swap2\n      pop\n        /* \"#utility.yul\":3715:3844   */\n      pop\n        /* \"#utility.yul\":2880:3851   */\n      swap3\n      swap6\n      pop\n      swap3\n      swap6\n      swap1\n      swap4\n      pop\n      jump\t// out\n        /* \"#utility.yul\":3857:3975   */\n    tag_249:\n        /* \"#utility.yul\":3944:3968   */\n      tag_251\n        /* \"#utility.yul\":3962:3967   */\n      dup2\n        /* \"#utility.yul\":3944:3968   */\n      tag_252\n      jump\t// in\n    tag_251:\n        /* \"#utility.yul\":3939:3942   */\n      dup3\n        /* \"#utility.yul\":3932:3969   */\n      mstore\n        /* \"#utility.yul\":3857:3975   */\n      pop\n      pop\n      jump\t// out\n        /* \"#utility.yul\":3981:4140   */\n    tag_253:\n        /* \"#utility.yul\":4082:4133   */\n      tag_255\n        /* \"#utility.yul\":4127:4132   */\n      dup2\n        /* \"#utility.yul\":4082:4133   */\n      tag_256\n      jump\t// in\n    tag_255:\n        /* \"#utility.yul\":4077:4080   */\n      dup3\n        /* \"#utility.yul\":4070:4134   */\n      mstore\n        /* \"#utility.yul\":3981:4140   */\n      pop\n      pop\n      jump\t// out\n        /* \"#utility.yul\":4146:4261   */\n    tag_257:\n        /* \"#utility.yul\":4231:4254   */\n      tag_259\n        /* \"#utility.yul\":4248:4253   */\n      dup2\n        /* \"#utility.yul\":4231:4254   */\n      tag_260\n      jump\t// in\n    tag_259:\n        /* \"#utility.yul\":4226:4229   */\n      dup3\n        /* \"#utility.yul\":4219:4255   */\n      mstore\n        /* \"#utility.yul\":4146:4261   */\n      pop\n      pop\n      jump\t// out\n        /* \"#utility.yul\":4267:4633   */\n    tag_261:\n        /* \"#utility.yul\":4409:4412   */\n      0x00\n        /* \"#utility.yul\":4430:4497   */\n      tag_263\n        /* \"#utility.yul\":4494:4496   */\n      0x26\n        /* \"#utility.yul\":4489:4492   */\n      dup4\n        /* \"#utility.yul\":4430:4497   */\n      tag_264\n      jump\t// in\n    tag_263:\n        /* \"#utility.yul\":4423:4497   */\n      swap2\n      pop\n        /* \"#utility.yul\":4506:4599   */\n      tag_265\n        /* \"#utility.yul\":4595:4598   */\n      dup3\n        /* \"#utility.yul\":4506:4599   */\n      tag_266\n      jump\t// in\n    tag_265:\n        /* \"#utility.yul\":4624:4626   */\n      0x40\n        /* \"#utility.yul\":4619:4622   */\n      dup3\n        /* \"#utility.yul\":4615:4627   */\n      add\n        /* \"#utility.yul\":4608:4627   */\n      swap1\n      pop\n        /* \"#utility.yul\":4267:4633   */\n      swap2\n      swap1\n      pop\n      jump\t// out\n        /* \"#utility.yul\":4639:5005   */\n    tag_267:\n        /* \"#utility.yul\":4781:4784   */\n      0x00\n        /* \"#utility.yul\":4802:4869   */\n      tag_269\n        /* \"#utility.yul\":4866:4868   */\n      0x14\n        /* \"#utility.yul\":4861:4864   */\n      dup4\n        /* \"#utility.yul\":4802:4869   */\n      tag_264\n      jump\t// in\n    tag_269:\n        /* \"#utility.yul\":4795:4869   */\n      swap2\n      pop\n        /* \"#utility.yul\":4878:4971   */\n      tag_270\n        /* \"#utility.yul\":4967:4970   */\n      dup3\n        /* \"#utility.yul\":4878:4971   */\n      tag_271\n      jump\t// in\n    tag_270:\n        /* \"#utility.yul\":4996:4998   */\n      0x20\n        /* \"#utility.yul\":4991:4994   */\n      dup3\n        /* \"#utility.yul\":4987:4999   */\n      add\n        /* \"#utility.yul\":4980:4999   */\n      swap1\n      pop\n        /* \"#utility.yul\":4639:5005   */\n      swap2\n      swap1\n      pop\n      jump\t// out\n        /* \"#utility.yul\":5011:5377   */\n    tag_272:\n        /* \"#utility.yul\":5153:5156   */\n      0x00\n        /* \"#utility.yul\":5174:5241   */\n      tag_274\n        /* \"#utility.yul\":5238:5240   */\n      0x15\n        /* \"#utility.yul\":5233:5236   */\n      dup4\n        /* \"#utility.yul\":5174:5241   */\n      tag_264\n      jump\t// in\n    tag_274:\n        /* \"#utility.yul\":5167:5241   */\n      swap2\n      pop\n        /* \"#utility.yul\":5250:5343   */\n      tag_275\n        /* \"#utility.yul\":5339:5342   */\n      dup3\n        /* \"#utility.yul\":5250:5343   */\n      tag_276\n      jump\t// in\n    tag_275:\n        /* \"#utility.yul\":5368:5370   */\n      0x20\n        /* \"#utility.yul\":5363:5366   */\n      dup3\n        /* \"#utility.yul\":5359:5371   */\n      add\n        /* \"#utility.yul\":5352:5371   */\n      swap1\n      pop\n        /* \"#utility.yul\":5011:5377   */\n      swap2\n      swap1\n      pop\n      jump\t// out\n        /* \"#utility.yul\":5383:5749   */\n    tag_277:\n        /* \"#utility.yul\":5525:5528   */\n      0x00\n        /* \"#utility.yul\":5546:5613   */\n      tag_279\n        /* \"#utility.yul\":5610:5612   */\n      0x1a\n        /* \"#utility.yul\":5605:5608   */\n      dup4\n        /* \"#utility.yul\":5546:5613   */\n      tag_264\n      jump\t// in\n    tag_279:\n        /* \"#utility.yul\":5539:5613   */\n      swap2\n      pop\n        /* \"#utility.yul\":5622:5715   */\n      tag_280\n        /* \"#utility.yul\":5711:5714   */\n      dup3\n        /* \"#utility.yul\":5622:5715   */\n      tag_281\n      jump\t// in\n    tag_280:\n        /* \"#utility.yul\":5740:5742   */\n      0x20\n        /* \"#utility.yul\":5735:5738   */\n      dup3\n        /* \"#utility.yul\":5731:5743   */\n      add\n        /* \"#utility.yul\":5724:5743   */\n      swap1\n      pop\n        /* \"#utility.yul\":5383:5749   */\n      swap2\n      swap1\n      pop\n      jump\t// out\n        /* \"#utility.yul\":5755:6121   */\n    tag_282:\n        /* \"#utility.yul\":5897:5900   */\n      0x00\n        /* \"#utility.yul\":5918:5985   */\n      tag_284\n        /* \"#utility.yul\":5982:5984   */\n      0x13\n        /* \"#utility.yul\":5977:5980   */\n      dup4\n        /* \"#utility.yul\":5918:5985   */\n      tag_264\n      jump\t// in\n    tag_284:\n        /* \"#utility.yul\":5911:5985   */\n      swap2\n      pop\n        /* \"#utility.yul\":5994:6087   */\n      tag_285\n        /* \"#utility.yul\":6083:6086   */\n      dup3\n        /* \"#utility.yul\":5994:6087   */\n      tag_286\n      jump\t// in\n    tag_285:\n        /* \"#utility.yul\":6112:6114   */\n      0x20\n        /* \"#utility.yul\":6107:6110   */\n      dup3\n        /* \"#utility.yul\":6103:6115   */\n      add\n        /* \"#utility.yul\":6096:6115   */\n      swap1\n      pop\n        /* \"#utility.yul\":5755:6121   */\n      swap2\n      swap1\n      pop\n      jump\t// out\n        /* \"#utility.yul\":6127:6493   */\n    tag_287:\n        /* \"#utility.yul\":6269:6272   */\n      0x00\n        /* \"#utility.yul\":6290:6357   */\n      tag_289\n        /* \"#utility.yul\":6354:6356   */\n      0x10\n        /* \"#utility.yul\":6349:6352   */\n      dup4\n        /* \"#utility.yul\":6290:6357   */\n      tag_264\n      jump\t// in\n    tag_289:\n        /* \"#utility.yul\":6283:6357   */\n      swap2\n      pop\n        /* \"#utility.yul\":6366:6459   */\n      tag_290\n        /* \"#utility.yul\":6455:6458   */\n      dup3\n        /* \"#utility.yul\":6366:6459   */\n      tag_291\n      jump\t// in\n    tag_290:\n        /* \"#utility.yul\":6484:6486   */\n      0x20\n        /* \"#utility.yul\":6479:6482   */\n      dup3\n        /* \"#utility.yul\":6475:6487   */\n      add\n        /* \"#utility.yul\":6468:6487   */\n      swap1\n      pop\n        /* \"#utility.yul\":6127:6493   */\n      swap2\n      swap1\n      pop\n      jump\t// out\n        /* \"#utility.yul\":6499:6865   */\n    tag_292:\n        /* \"#utility.yul\":6641:6644   */\n      0x00\n        /* \"#utility.yul\":6662:6729   */\n      tag_294\n        /* \"#utility.yul\":6726:6728   */\n      0x20\n        /* \"#utility.yul\":6721:6724   */\n      dup4\n        /* \"#utility.yul\":6662:6729   */\n      tag_264\n      jump\t// in\n    tag_294:\n        /* \"#utility.yul\":6655:6729   */\n      swap2\n      pop\n        /* \"#utility.yul\":6738:6831   */\n      tag_295\n        /* \"#utility.yul\":6827:6830   */\n      dup3\n        /* \"#utility.yul\":6738:6831   */\n      tag_296\n      jump\t// in\n    tag_295:\n        /* \"#utility.yul\":6856:6858   */\n      0x20\n        /* \"#utility.yul\":6851:6854   */\n      dup3\n        /* \"#utility.yul\":6847:6859   */\n      add\n        /* \"#utility.yul\":6840:6859   */\n      swap1\n      pop\n        /* \"#utility.yul\":6499:6865   */\n      swap2\n      swap1\n      pop\n      jump\t// out\n        /* \"#utility.yul\":6871:7269   */\n    tag_297:\n        /* \"#utility.yul\":7030:7033   */\n      0x00\n        /* \"#utility.yul\":7051:7134   */\n      tag_299\n        /* \"#utility.yul\":7132:7133   */\n      0x00\n        /* \"#utility.yul\":7127:7130   */\n      dup4\n        /* \"#utility.yul\":7051:7134   */\n      tag_300\n      jump\t// in\n    tag_299:\n        /* \"#utility.yul\":7044:7134   */\n      swap2\n      pop\n        /* \"#utility.yul\":7143:7236   */\n      tag_301\n        /* \"#utility.yul\":7232:7235   */\n      dup3\n        /* \"#utility.yul\":7143:7236   */\n      tag_302\n      jump\t// in\n    tag_301:\n        /* \"#utility.yul\":7261:7262   */\n      0x00\n        /* \"#utility.yul\":7256:7259   */\n      dup3\n        /* \"#utility.yul\":7252:7263   */\n      add\n        /* \"#utility.yul\":7245:7263   */\n      swap1\n      pop\n        /* \"#utility.yul\":6871:7269   */\n      swap2\n      swap1\n      pop\n      jump\t// out\n        /* \"#utility.yul\":7275:7393   */\n    tag_303:\n        /* \"#utility.yul\":7362:7386   */\n      tag_305\n        /* \"#utility.yul\":7380:7385   */\n      dup2\n        /* \"#utility.yul\":7362:7386   */\n      tag_306\n      jump\t// in\n    tag_305:\n        /* \"#utility.yul\":7357:7360   */\n      dup3\n        /* \"#utility.yul\":7350:7387   */\n      mstore\n        /* \"#utility.yul\":7275:7393   */\n      pop\n      pop\n      jump\t// out\n        /* \"#utility.yul\":7399:7778   */\n    tag_76:\n        /* \"#utility.yul\":7583:7586   */\n      0x00\n        /* \"#utility.yul\":7605:7752   */\n      tag_308\n        /* \"#utility.yul\":7748:7751   */\n      dup3\n        /* \"#utility.yul\":7605:7752   */\n      tag_297\n      jump\t// in\n    tag_308:\n        /* \"#utility.yul\":7598:7752   */\n      swap2\n      pop\n        /* \"#utility.yul\":7769:7772   */\n      dup2\n        /* \"#utility.yul\":7762:7772   */\n      swap1\n      pop\n        /* \"#utility.yul\":7399:7778   */\n      swap2\n      swap1\n      pop\n      jump\t// out\n        /* \"#utility.yul\":7784:8006   */\n    tag_49:\n        /* \"#utility.yul\":7877:7881   */\n      0x00\n        /* \"#utility.yul\":7915:7917   */\n      0x20\n        /* \"#utility.yul\":7904:7913   */\n      dup3\n        /* \"#utility.yul\":7900:7918   */\n      add\n        /* \"#utility.yul\":7892:7918   */\n      swap1\n      pop\n        /* \"#utility.yul\":7928:7999   */\n      tag_310\n        /* \"#utility.yul\":7996:7997   */\n      0x00\n        /* \"#utility.yul\":7985:7994   */\n      dup4\n        /* \"#utility.yul\":7981:7998   */\n      add\n        /* \"#utility.yul\":7972:7978   */\n      dup5\n        /* \"#utility.yul\":7928:7999   */\n      tag_249\n      jump\t// in\n    tag_310:\n        /* \"#utility.yul\":7784:8006   */\n      swap3\n      swap2\n      pop\n      pop\n      jump\t// out\n        /* \"#utility.yul\":8012:8454   */\n    tag_184:\n        /* \"#utility.yul\":8161:8165   */\n      0x00\n        /* \"#utility.yul\":8199:8201   */\n      0x60\n        /* \"#utility.yul\":8188:8197   */\n      dup3\n        /* \"#utility.yul\":8184:8202   */\n      add\n        /* \"#utility.yul\":8176:8202   */\n      swap1\n      pop\n        /* \"#utility.yul\":8212:8283   */\n      tag_312\n        /* \"#utility.yul\":8280:8281   */\n      0x00\n        /* \"#utility.yul\":8269:8278   */\n      dup4\n        /* \"#utility.yul\":8265:8282   */\n      add\n        /* \"#utility.yul\":8256:8262   */\n      dup7\n        /* \"#utility.yul\":8212:8283   */\n      tag_249\n      jump\t// in\n    tag_312:\n        /* \"#utility.yul\":8293:8365   */\n      tag_313\n        /* \"#utility.yul\":8361:8363   */\n      0x20\n        /* \"#utility.yul\":8350:8359   */\n      dup4\n        /* \"#utility.yul\":8346:8364   */\n      add\n        /* \"#utility.yul\":8337:8343   */\n      dup6\n        /* \"#utility.yul\":8293:8365   */\n      tag_249\n      jump\t// in\n    tag_313:\n        /* \"#utility.yul\":8375:8447   */\n      tag_314\n        /* \"#utility.yul\":8443:8445   */\n      0x40\n        /* \"#utility.yul\":8432:8441   */\n      dup4\n        /* \"#utility.yul\":8428:8446   */\n      add\n        /* \"#utility.yul\":8419:8425   */\n      dup5\n        /* \"#utility.yul\":8375:8447   */\n      tag_303\n      jump\t// in\n    tag_314:\n        /* \"#utility.yul\":8012:8454   */\n      swap5\n      swap4\n      pop\n      pop\n      pop\n      pop\n      jump\t// out\n        /* \"#utility.yul\":8460:8792   */\n    tag_91:\n        /* \"#utility.yul\":8581:8585   */\n      0x00\n        /* \"#utility.yul\":8619:8621   */\n      0x40\n        /* \"#utility.yul\":8608:8617   */\n      dup3\n        /* \"#utility.yul\":8604:8622   */\n      add\n        /* \"#utility.yul\":8596:8622   */\n      swap1\n      pop\n        /* \"#utility.yul\":8632:8703   */\n      tag_316\n        /* \"#utility.yul\":8700:8701   */\n      0x00\n        /* \"#utility.yul\":8689:8698   */\n      dup4\n        /* \"#utility.yul\":8685:8702   */\n      add\n        /* \"#utility.yul\":8676:8682   */\n      dup6\n        /* \"#utility.yul\":8632:8703   */\n      tag_249\n      jump\t// in\n    tag_316:\n        /* \"#utility.yul\":8713:8785   */\n      tag_317\n        /* \"#utility.yul\":8781:8783   */\n      0x20\n        /* \"#utility.yul\":8770:8779   */\n      dup4\n        /* \"#utility.yul\":8766:8784   */\n      add\n        /* \"#utility.yul\":8757:8763   */\n      dup5\n        /* \"#utility.yul\":8713:8785   */\n      tag_303\n      jump\t// in\n    tag_317:\n        /* \"#utility.yul\":8460:8792   */\n      swap4\n      swap3\n      pop\n      pop\n      pop\n      jump\t// out\n        /* \"#utility.yul\":8798:9048   */\n    tag_40:\n        /* \"#utility.yul\":8905:8909   */\n      0x00\n        /* \"#utility.yul\":8943:8945   */\n      0x20\n        /* \"#utility.yul\":8932:8941   */\n      dup3\n        /* \"#utility.yul\":8928:8946   */\n      add\n        /* \"#utility.yul\":8920:8946   */\n      swap1\n      pop\n        /* \"#utility.yul\":8956:9041   */\n      tag_319\n        /* \"#utility.yul\":9038:9039   */\n      0x00\n        /* \"#utility.yul\":9027:9036   */\n      dup4\n        /* \"#utility.yul\":9023:9040   */\n      add\n        /* \"#utility.yul\":9014:9020   */\n      dup5\n        /* \"#utility.yul\":8956:9041   */\n      tag_253\n      jump\t// in\n    tag_319:\n        /* \"#utility.yul\":8798:9048   */\n      swap3\n      swap2\n      pop\n      pop\n      jump\t// out\n        /* \"#utility.yul\":9054:9272   */\n    tag_21:\n        /* \"#utility.yul\":9145:9149   */\n      0x00\n        /* \"#utility.yul\":9183:9185   */\n      0x20\n        /* \"#utility.yul\":9172:9181   */\n      dup3\n        /* \"#utility.yul\":9168:9186   */\n      add\n        /* \"#utility.yul\":9160:9186   */\n      swap1\n      pop\n        /* \"#utility.yul\":9196:9265   */\n      tag_321\n        /* \"#utility.yul\":9262:9263   */\n      0x00\n        /* \"#utility.yul\":9251:9260   */\n      dup4\n        /* \"#utility.yul\":9247:9264   */\n      add\n        /* \"#utility.yul\":9238:9244   */\n      dup5\n        /* \"#utility.yul\":9196:9265   */\n      tag_257\n      jump\t// in\n    tag_321:\n        /* \"#utility.yul\":9054:9272   */\n      swap3\n      swap2\n      pop\n      pop\n      jump\t// out\n        /* \"#utility.yul\":9278:9697   */\n    tag_173:\n        /* \"#utility.yul\":9444:9448   */\n      0x00\n        /* \"#utility.yul\":9482:9484   */\n      0x20\n        /* \"#utility.yul\":9471:9480   */\n      dup3\n        /* \"#utility.yul\":9467:9485   */\n      add\n        /* \"#utility.yul\":9459:9485   */\n      swap1\n      pop\n        /* \"#utility.yul\":9531:9540   */\n      dup2\n        /* \"#utility.yul\":9525:9529   */\n      dup2\n        /* \"#utility.yul\":9521:9541   */\n      sub\n        /* \"#utility.yul\":9517:9518   */\n      0x00\n        /* \"#utility.yul\":9506:9515   */\n      dup4\n        /* \"#utility.yul\":9502:9519   */\n      add\n        /* \"#utility.yul\":9495:9542   */\n      mstore\n        /* \"#utility.yul\":9559:9690   */\n      tag_323\n        /* \"#utility.yul\":9685:9689   */\n      dup2\n        /* \"#utility.yul\":9559:9690   */\n      tag_261\n      jump\t// in\n    tag_323:\n        /* \"#utility.yul\":9551:9690   */\n      swap1\n      pop\n        /* \"#utility.yul\":9278:9697   */\n      swap2\n      swap1\n      pop\n      jump\t// out\n        /* \"#utility.yul\":9703:10122   */\n    tag_82:\n        /* \"#utility.yul\":9869:9873   */\n      0x00\n        /* \"#utility.yul\":9907:9909   */\n      0x20\n        /* \"#utility.yul\":9896:9905   */\n      dup3\n        /* \"#utility.yul\":9892:9910   */\n      add\n        /* \"#utility.yul\":9884:9910   */\n      swap1\n      pop\n        /* \"#utility.yul\":9956:9965   */\n      dup2\n        /* \"#utility.yul\":9950:9954   */\n      dup2\n        /* \"#utility.yul\":9946:9966   */\n      sub\n        /* \"#utility.yul\":9942:9943   */\n      0x00\n        /* \"#utility.yul\":9931:9940   */\n      dup4\n        /* \"#utility.yul\":9927:9944   */\n      add\n        /* \"#utility.yul\":9920:9967   */\n      mstore\n        /* \"#utility.yul\":9984:10115   */\n      tag_325\n        /* \"#utility.yul\":10110:10114   */\n      dup2\n        /* \"#utility.yul\":9984:10115   */\n      tag_267\n      jump\t// in\n    tag_325:\n        /* \"#utility.yul\":9976:10115   */\n      swap1\n      pop\n        /* \"#utility.yul\":9703:10122   */\n      swap2\n      swap1\n      pop\n      jump\t// out\n        /* \"#utility.yul\":10128:10547   */\n    tag_191:\n        /* \"#utility.yul\":10294:10298   */\n      0x00\n        /* \"#utility.yul\":10332:10334   */\n      0x20\n        /* \"#utility.yul\":10321:10330   */\n      dup3\n        /* \"#utility.yul\":10317:10335   */\n      add\n        /* \"#utility.yul\":10309:10335   */\n      swap1\n      pop\n        /* \"#utility.yul\":10381:10390   */\n      dup2\n        /* \"#utility.yul\":10375:10379   */\n      dup2\n        /* \"#utility.yul\":10371:10391   */\n      sub\n        /* \"#utility.yul\":10367:10368   */\n      0x00\n        /* \"#utility.yul\":10356:10365   */\n      dup4\n        /* \"#utility.yul\":10352:10369   */\n      add\n        /* \"#utility.yul\":10345:10392   */\n      mstore\n        /* \"#utility.yul\":10409:10540   */\n      tag_327\n        /* \"#utility.yul\":10535:10539   */\n      dup2\n        /* \"#utility.yul\":10409:10540   */\n      tag_272\n      jump\t// in\n    tag_327:\n        /* \"#utility.yul\":10401:10540   */\n      swap1\n      pop\n        /* \"#utility.yul\":10128:10547   */\n      swap2\n      swap1\n      pop\n      jump\t// out\n        /* \"#utility.yul\":10553:10972   */\n    tag_121:\n        /* \"#utility.yul\":10719:10723   */\n      0x00\n        /* \"#utility.yul\":10757:10759   */\n      0x20\n        /* \"#utility.yul\":10746:10755   */\n      dup3\n        /* \"#utility.yul\":10742:10760   */\n      add\n        /* \"#utility.yul\":10734:10760   */\n      swap1\n      pop\n        /* \"#utility.yul\":10806:10815   */\n      dup2\n        /* \"#utility.yul\":10800:10804   */\n      dup2\n        /* \"#utility.yul\":10796:10816   */\n      sub\n        /* \"#utility.yul\":10792:10793   */\n      0x00\n        /* \"#utility.yul\":10781:10790   */\n      dup4\n        /* \"#utility.yul\":10777:10794   */\n      add\n        /* \"#utility.yul\":10770:10817   */\n      mstore\n        /* \"#utility.yul\":10834:10965   */\n      tag_329\n        /* \"#utility.yul\":10960:10964   */\n      dup2\n        /* \"#utility.yul\":10834:10965   */\n      tag_277\n      jump\t// in\n    tag_329:\n        /* \"#utility.yul\":10826:10965   */\n      swap1\n      pop\n        /* \"#utility.yul\":10553:10972   */\n      swap2\n      swap1\n      pop\n      jump\t// out\n        /* \"#utility.yul\":10978:11397   */\n    tag_155:\n        /* \"#utility.yul\":11144:11148   */\n      0x00\n        /* \"#utility.yul\":11182:11184   */\n      0x20\n        /* \"#utility.yul\":11171:11180   */\n      dup3\n        /* \"#utility.yul\":11167:11185   */\n      add\n        /* \"#utility.yul\":11159:11185   */\n      swap1\n      pop\n        /* \"#utility.yul\":11231:11240   */\n      dup2\n        /* \"#utility.yul\":11225:11229   */\n      dup2\n        /* \"#utility.yul\":11221:11241   */\n      sub\n        /* \"#utility.yul\":11217:11218   */\n      0x00\n        /* \"#utility.yul\":11206:11215   */\n      dup4\n        /* \"#utility.yul\":11202:11219   */\n      add\n        /* \"#utility.yul\":11195:11242   */\n      mstore\n        /* \"#utility.yul\":11259:11390   */\n      tag_331\n        /* \"#utility.yul\":11385:11389   */\n      dup2\n        /* \"#utility.yul\":11259:11390   */\n      tag_282\n      jump\t// in\n    tag_331:\n        /* \"#utility.yul\":11251:11390   */\n      swap1\n      pop\n        /* \"#utility.yul\":10978:11397   */\n      swap2\n      swap1\n      pop\n      jump\t// out\n        /* \"#utility.yul\":11403:11822   */\n    tag_133:\n        /* \"#utility.yul\":11569:11573   */\n      0x00\n        /* \"#utility.yul\":11607:11609   */\n      0x20\n        /* \"#utility.yul\":11596:11605   */\n      dup3\n        /* \"#utility.yul\":11592:11610   */\n      add\n        /* \"#utility.yul\":11584:11610   */\n      swap1\n      pop\n        /* \"#utility.yul\":11656:11665   */\n      dup2\n        /* \"#utility.yul\":11650:11654   */\n      dup2\n        /* \"#utility.yul\":11646:11666   */\n      sub\n        /* \"#utility.yul\":11642:11643   */\n      0x00\n        /* \"#utility.yul\":11631:11640   */\n      dup4\n        /* \"#utility.yul\":11627:11644   */\n      add\n        /* \"#utility.yul\":11620:11667   */\n      mstore\n        /* \"#utility.yul\":11684:11815   */\n      tag_333\n        /* \"#utility.yul\":11810:11814   */\n      dup2\n        /* \"#utility.yul\":11684:11815   */\n      tag_287\n      jump\t// in\n    tag_333:\n        /* \"#utility.yul\":11676:11815   */\n      swap1\n      pop\n        /* \"#utility.yul\":11403:11822   */\n      swap2\n      swap1\n      pop\n      jump\t// out\n        /* \"#utility.yul\":11828:12247   */\n    tag_114:\n        /* \"#utility.yul\":11994:11998   */\n      0x00\n        /* \"#utility.yul\":12032:12034   */\n      0x20\n        /* \"#utility.yul\":12021:12030   */\n      dup3\n        /* \"#utility.yul\":12017:12035   */\n      add\n        /* \"#utility.yul\":12009:12035   */\n      swap1\n      pop\n        /* \"#utility.yul\":12081:12090   */\n      dup2\n        /* \"#utility.yul\":12075:12079   */\n      dup2\n        /* \"#utility.yul\":12071:12091   */\n      sub\n        /* \"#utility.yul\":12067:12068   */\n      0x00\n        /* \"#utility.yul\":12056:12065   */\n      dup4\n        /* \"#utility.yul\":12052:12069   */\n      add\n        /* \"#utility.yul\":12045:12092   */\n      mstore\n        /* \"#utility.yul\":12109:12240   */\n      tag_335\n        /* \"#utility.yul\":12235:12239   */\n      dup2\n        /* \"#utility.yul\":12109:12240   */\n      tag_292\n      jump\t// in\n    tag_335:\n        /* \"#utility.yul\":12101:12240   */\n      swap1\n      pop\n        /* \"#utility.yul\":11828:12247   */\n      swap2\n      swap1\n      pop\n      jump\t// out\n        /* \"#utility.yul\":12253:12475   */\n    tag_62:\n        /* \"#utility.yul\":12346:12350   */\n      0x00\n        /* \"#utility.yul\":12384:12386   */\n      0x20\n        /* \"#utility.yul\":12373:12382   */\n      dup3\n        /* \"#utility.yul\":12369:12387   */\n      add\n        /* \"#utility.yul\":12361:12387   */\n      swap1\n      pop\n        /* \"#utility.yul\":12397:12468   */\n      tag_337\n        /* \"#utility.yul\":12465:12466   */\n      0x00\n        /* \"#utility.yul\":12454:12463   */\n      dup4\n        /* \"#utility.yul\":12450:12467   */\n      add\n        /* \"#utility.yul\":12441:12447   */\n      dup5\n        /* \"#utility.yul\":12397:12468   */\n      tag_303\n      jump\t// in\n    tag_337:\n        /* \"#utility.yul\":12253:12475   */\n      swap3\n      swap2\n      pop\n      pop\n      jump\t// out\n        /* \"#utility.yul\":12562:12709   */\n    tag_300:\n        /* \"#utility.yul\":12663:12674   */\n      0x00\n        /* \"#utility.yul\":12700:12703   */\n      dup2\n        /* \"#utility.yul\":12685:12703   */\n      swap1\n      pop\n        /* \"#utility.yul\":12562:12709   */\n      swap3\n      swap2\n      pop\n      pop\n      jump\t// out\n        /* \"#utility.yul\":12715:12884   */\n    tag_264:\n        /* \"#utility.yul\":12799:12810   */\n      0x00\n        /* \"#utility.yul\":12833:12839   */\n      dup3\n        /* \"#utility.yul\":12828:12831   */\n      dup3\n        /* \"#utility.yul\":12821:12840   */\n      mstore\n        /* \"#utility.yul\":12873:12877   */\n      0x20\n        /* \"#utility.yul\":12868:12871   */\n      dup3\n        /* \"#utility.yul\":12864:12878   */\n      add\n        /* \"#utility.yul\":12849:12878   */\n      swap1\n      pop\n        /* \"#utility.yul\":12715:12884   */\n      swap3\n      swap2\n      pop\n      pop\n      jump\t// out\n        /* \"#utility.yul\":12890:13275   */\n    tag_179:\n        /* \"#utility.yul\":12929:12930   */\n      0x00\n        /* \"#utility.yul\":12946:12965   */\n      tag_343\n        /* \"#utility.yul\":12963:12964   */\n      dup3\n        /* \"#utility.yul\":12946:12965   */\n      tag_260\n      jump\t// in\n    tag_343:\n        /* \"#utility.yul\":12941:12965   */\n      swap2\n      pop\n        /* \"#utility.yul\":12979:12998   */\n      tag_344\n        /* \"#utility.yul\":12996:12997   */\n      dup4\n        /* \"#utility.yul\":12979:12998   */\n      tag_260\n      jump\t// in\n    tag_344:\n        /* \"#utility.yul\":12974:12998   */\n      swap3\n      pop\n        /* \"#utility.yul\":13017:13018   */\n      dup3\n        /* \"#utility.yul\":13007:13042   */\n      tag_345\n      jumpi\n        /* \"#utility.yul\":13022:13040   */\n      tag_346\n      tag_347\n      jump\t// in\n    tag_346:\n        /* \"#utility.yul\":13007:13042   */\n    tag_345:\n        /* \"#utility.yul\":13208:13209   */\n      0x01\n        /* \"#utility.yul\":13205:13206   */\n      0x00\n        /* \"#utility.yul\":13201:13210   */\n      sub\n        /* \"#utility.yul\":13198:13199   */\n      dup4\n        /* \"#utility.yul\":13195:13211   */\n      eq\n        /* \"#utility.yul\":13114:13180   */\n      0x8000000000000000000000000000000000000000000000000000000000000000\n        /* \"#utility.yul\":13111:13112   */\n      dup4\n        /* \"#utility.yul\":13108:13181   */\n      eq\n        /* \"#utility.yul\":13091:13221   */\n      and\n        /* \"#utility.yul\":13088:13244   */\n      iszero\n      tag_348\n      jumpi\n        /* \"#utility.yul\":13224:13242   */\n      tag_349\n      tag_350\n      jump\t// in\n    tag_349:\n        /* \"#utility.yul\":13088:13244   */\n    tag_348:\n        /* \"#utility.yul\":13267:13268   */\n      dup3\n        /* \"#utility.yul\":13264:13265   */\n      dup3\n        /* \"#utility.yul\":13259:13269   */\n      sdiv\n        /* \"#utility.yul\":13254:13269   */\n      swap1\n      pop\n        /* \"#utility.yul\":12890:13275   */\n      swap3\n      swap2\n      pop\n      pop\n      jump\t// out\n        /* \"#utility.yul\":13281:13466   */\n    tag_123:\n        /* \"#utility.yul\":13321:13322   */\n      0x00\n        /* \"#utility.yul\":13338:13358   */\n      tag_352\n        /* \"#utility.yul\":13356:13357   */\n      dup3\n        /* \"#utility.yul\":13338:13358   */\n      tag_306\n      jump\t// in\n    tag_352:\n        /* \"#utility.yul\":13333:13358   */\n      swap2\n      pop\n        /* \"#utility.yul\":13372:13392   */\n      tag_353\n        /* \"#utility.yul\":13390:13391   */\n      dup4\n        /* \"#utility.yul\":13372:13392   */\n      tag_306\n      jump\t// in\n    tag_353:\n        /* \"#utility.yul\":13367:13392   */\n      swap3\n      pop\n        /* \"#utility.yul\":13411:13412   */\n      dup3\n        /* \"#utility.yul\":13401:13436   */\n      tag_354\n      jumpi\n        /* \"#utility.yul\":13416:13434   */\n      tag_355\n      tag_347\n      jump\t// in\n    tag_355:\n        /* \"#utility.yul\":13401:13436   */\n    tag_354:\n        /* \"#utility.yul\":13458:13459   */\n      dup3\n        /* \"#utility.yul\":13455:13456   */\n      dup3\n        /* \"#utility.yul\":13451:13460   */\n      div\n        /* \"#utility.yul\":13446:13460   */\n      swap1\n      pop\n        /* \"#utility.yul\":13281:13466   */\n      swap3\n      swap2\n      pop\n      pop\n      jump\t// out\n        /* \"#utility.yul\":13472:14463   */\n    tag_72:\n        /* \"#utility.yul\":13511:13518   */\n      0x00\n        /* \"#utility.yul\":13534:13553   */\n      tag_357\n        /* \"#utility.yul\":13551:13552   */\n      dup3\n        /* \"#utility.yul\":13534:13553   */\n      tag_260\n      jump\t// in\n    tag_357:\n        /* \"#utility.yul\":13529:13553   */\n      swap2\n      pop\n        /* \"#utility.yul\":13567:13586   */\n      tag_358\n        /* \"#utility.yul\":13584:13585   */\n      dup4\n        /* \"#utility.yul\":13567:13586   */\n      tag_260\n      jump\t// in\n    tag_358:\n        /* \"#utility.yul\":13562:13586   */\n      swap3\n      pop\n        /* \"#utility.yul\":13768:13769   */\n      dup3\n        /* \"#utility.yul\":13700:13766   */\n      0x7fffffffffffffffffffffffffffffffffffffffffffffffffffffffffffffff\n        /* \"#utility.yul\":13696:13770   */\n      div\n        /* \"#utility.yul\":13693:13694   */\n      dup3\n        /* \"#utility.yul\":13690:13771   */\n      gt\n        /* \"#utility.yul\":13685:13686   */\n      0x00\n        /* \"#utility.yul\":13682:13683   */\n      dup5\n        /* \"#utility.yul\":13678:13687   */\n      sgt\n        /* \"#utility.yul\":13674:13675   */\n      0x00\n        /* \"#utility.yul\":13671:13672   */\n      dup5\n        /* \"#utility.yul\":13667:13676   */\n      sgt\n        /* \"#utility.yul\":13663:13688   */\n      and\n        /* \"#utility.yul\":13659:13772   */\n      and\n        /* \"#utility.yul\":13656:13795   */\n      iszero\n      tag_359\n      jumpi\n        /* \"#utility.yul\":13775:13793   */\n      tag_360\n      tag_350\n      jump\t// in\n    tag_360:\n        /* \"#utility.yul\":13656:13795   */\n    tag_359:\n        /* \"#utility.yul\":13979:13980   */\n      dup2\n        /* \"#utility.yul\":13911:13977   */\n      0x8000000000000000000000000000000000000000000000000000000000000000\n        /* \"#utility.yul\":13906:13981   */\n      sdiv\n        /* \"#utility.yul\":13903:13904   */\n      dup4\n        /* \"#utility.yul\":13899:13982   */\n      slt\n        /* \"#utility.yul\":13894:13895   */\n      0x00\n        /* \"#utility.yul\":13891:13892   */\n      dup5\n        /* \"#utility.yul\":13887:13896   */\n      slt\n        /* \"#utility.yul\":13883:13884   */\n      0x00\n        /* \"#utility.yul\":13880:13881   */\n      dup5\n        /* \"#utility.yul\":13876:13885   */\n      sgt\n        /* \"#utility.yul\":13872:13897   */\n      and\n        /* \"#utility.yul\":13868:13983   */\n      and\n        /* \"#utility.yul\":13865:14006   */\n      iszero\n      tag_361\n      jumpi\n        /* \"#utility.yul\":13986:14004   */\n      tag_362\n      tag_350\n      jump\t// in\n    tag_362:\n        /* \"#utility.yul\":13865:14006   */\n    tag_361:\n        /* \"#utility.yul\":14190:14191   */\n      dup3\n        /* \"#utility.yul\":14122:14188   */\n      0x8000000000000000000000000000000000000000000000000000000000000000\n        /* \"#utility.yul\":14117:14192   */\n      sdiv\n        /* \"#utility.yul\":14114:14115   */\n      dup3\n        /* \"#utility.yul\":14110:14193   */\n      slt\n        /* \"#utility.yul\":14105:14106   */\n      0x00\n        /* \"#utility.yul\":14102:14103   */\n      dup5\n        /* \"#utility.yul\":14098:14107   */\n      sgt\n        /* \"#utility.yul\":14094:14095   */\n      0x00\n        /* \"#utility.yul\":14091:14092   */\n      dup5\n        /* \"#utility.yul\":14087:14096   */\n      slt\n        /* \"#utility.yul\":14083:14108   */\n      and\n        /* \"#utility.yul\":14079:14194   */\n      and\n        /* \"#utility.yul\":14076:14217   */\n      iszero\n      tag_363\n      jumpi\n        /* \"#utility.yul\":14197:14215   */\n      tag_364\n      tag_350\n      jump\t// in\n    tag_364:\n        /* \"#utility.yul\":14076:14217   */\n    tag_363:\n        /* \"#utility.yul\":14400:14401   */\n      dup3\n        /* \"#utility.yul\":14332:14398   */\n      0x7fffffffffffffffffffffffffffffffffffffffffffffffffffffffffffffff\n        /* \"#utility.yul\":14327:14402   */\n      sdiv\n        /* \"#utility.yul\":14324:14325   */\n      dup3\n        /* \"#utility.yul\":14320:14403   */\n      slt\n        /* \"#utility.yul\":14315:14316   */\n      0x00\n        /* \"#utility.yul\":14312:14313   */\n      dup5\n        /* \"#utility.yul\":14308:14317   */\n      slt\n        /* \"#utility.yul\":14304:14305   */\n      0x00\n        /* \"#utility.yul\":14301:14302   */\n      dup5\n        /* \"#utility.yul\":14297:14306   */\n      slt\n        /* \"#utility.yul\":14293:14318   */\n      and\n        /* \"#utility.yul\":14289:14404   */\n      and\n        /* \"#utility.yul\":14286:14427   */\n      iszero\n      tag_365\n      jumpi\n        /* \"#utility.yul\":14407:14425   */\n      tag_366\n      tag_350\n      jump\t// in\n    tag_366:\n        /* \"#utility.yul\":14286:14427   */\n    tag_365:\n        /* \"#utility.yul\":14455:14456   */\n      dup3\n        /* \"#utility.yul\":14452:14453   */\n      dup3\n        /* \"#utility.yul\":14448:14457   */\n      mul\n        /* \"#utility.yul\":14437:14457   */\n      swap1\n      pop\n        /* \"#utility.yul\":13472:14463   */\n      swap3\n      swap2\n      pop\n      pop\n      jump\t// out\n        /* \"#utility.yul\":14469:14817   */\n    tag_125:\n        /* \"#utility.yul\":14509:14516   */\n      0x00\n        /* \"#utility.yul\":14532:14552   */\n      tag_368\n        /* \"#utility.yul\":14550:14551   */\n      dup3\n        /* \"#utility.yul\":14532:14552   */\n      tag_306\n      jump\t// in\n    tag_368:\n        /* \"#utility.yul\":14527:14552   */\n      swap2\n      pop\n        /* \"#utility.yul\":14566:14586   */\n      tag_369\n        /* \"#utility.yul\":14584:14585   */\n      dup4\n        /* \"#utility.yul\":14566:14586   */\n      tag_306\n      jump\t// in\n    tag_369:\n        /* \"#utility.yul\":14561:14586   */\n      swap3\n      pop\n        /* \"#utility.yul\":14754:14755   */\n      dup2\n        /* \"#utility.yul\":14686:14752   */\n      0xffffffffffffffffffffffffffffffffffffffffffffffffffffffffffffffff\n        /* \"#utility.yul\":14682:14756   */\n      div\n        /* \"#utility.yul\":14679:14680   */\n      dup4\n        /* \"#utility.yul\":14676:14757   */\n      gt\n        /* \"#utility.yul\":14671:14672   */\n      dup3\n        /* \"#utility.yul\":14664:14673   */\n      iszero\n        /* \"#utility.yul\":14657:14674   */\n      iszero\n        /* \"#utility.yul\":14653:14758   */\n      and\n        /* \"#utility.yul\":14650:14781   */\n      iszero\n      tag_370\n      jumpi\n        /* \"#utility.yul\":14761:14779   */\n      tag_371\n      tag_350\n      jump\t// in\n    tag_371:\n        /* \"#utility.yul\":14650:14781   */\n    tag_370:\n        /* \"#utility.yul\":14809:14810   */\n      dup3\n        /* \"#utility.yul\":14806:14807   */\n      dup3\n        /* \"#utility.yul\":14802:14811   */\n      mul\n        /* \"#utility.yul\":14791:14811   */\n      swap1\n      pop\n        /* \"#utility.yul\":14469:14817   */\n      swap3\n      swap2\n      pop\n      pop\n      jump\t// out\n        /* \"#utility.yul\":14823:14919   */\n    tag_252:\n        /* \"#utility.yul\":14860:14867   */\n      0x00\n        /* \"#utility.yul\":14889:14913   */\n      tag_373\n        /* \"#utility.yul\":14907:14912   */\n      dup3\n        /* \"#utility.yul\":14889:14913   */\n      tag_374\n      jump\t// in\n    tag_373:\n        /* \"#utility.yul\":14878:14913   */\n      swap1\n      pop\n        /* \"#utility.yul\":14823:14919   */\n      swap2\n      swap1\n      pop\n      jump\t// out\n        /* \"#utility.yul\":14925:15015   */\n    tag_375:\n        /* \"#utility.yul\":14959:14966   */\n      0x00\n        /* \"#utility.yul\":15002:15007   */\n      dup2\n        /* \"#utility.yul\":14995:15008   */\n      iszero\n        /* \"#utility.yul\":14988:15009   */\n      iszero\n        /* \"#utility.yul\":14977:15009   */\n      swap1\n      pop\n        /* \"#utility.yul\":14925:15015   */\n      swap2\n      swap1\n      pop\n      jump\t// out\n        /* \"#utility.yul\":15021:15097   */\n    tag_260:\n        /* \"#utility.yul\":15057:15064   */\n      0x00\n        /* \"#utility.yul\":15086:15091   */\n      dup2\n        /* \"#utility.yul\":15075:15091   */\n      swap1\n      pop\n        /* \"#utility.yul\":15021:15097   */\n      swap2\n      swap1\n      pop\n      jump\t// out\n        /* \"#utility.yul\":15103:15229   */\n    tag_374:\n        /* \"#utility.yul\":15140:15147   */\n      0x00\n        /* \"#utility.yul\":15180:15222   */\n      0xffffffffffffffffffffffffffffffffffffffff\n        /* \"#utility.yul\":15173:15178   */\n      dup3\n        /* \"#utility.yul\":15169:15223   */\n      and\n        /* \"#utility.yul\":15158:15223   */\n      swap1\n      pop\n        /* \"#utility.yul\":15103:15229   */\n      swap2\n      swap1\n      pop\n      jump\t// out\n        /* \"#utility.yul\":15235:15312   */\n    tag_306:\n        /* \"#utility.yul\":15272:15279   */\n      0x00\n        /* \"#utility.yul\":15301:15306   */\n      dup2\n        /* \"#utility.yul\":15290:15306   */\n      swap1\n      pop\n        /* \"#utility.yul\":15235:15312   */\n      swap2\n      swap1\n      pop\n      jump\t// out\n        /* \"#utility.yul\":15318:15423   */\n    tag_380:\n        /* \"#utility.yul\":15354:15361   */\n      0x00\n        /* \"#utility.yul\":15394:15416   */\n      0xffffffffffffffffffff\n        /* \"#utility.yul\":15387:15392   */\n      dup3\n        /* \"#utility.yul\":15383:15417   */\n      and\n        /* \"#utility.yul\":15372:15417   */\n      swap1\n      pop\n        /* \"#utility.yul\":15318:15423   */\n      swap2\n      swap1\n      pop\n      jump\t// out\n        /* \"#utility.yul\":15429:15569   */\n    tag_256:\n        /* \"#utility.yul\":15493:15502   */\n      0x00\n        /* \"#utility.yul\":15526:15563   */\n      tag_383\n        /* \"#utility.yul\":15557:15562   */\n      dup3\n        /* \"#utility.yul\":15526:15563   */\n      tag_384\n      jump\t// in\n    tag_383:\n        /* \"#utility.yul\":15513:15563   */\n      swap1\n      pop\n        /* \"#utility.yul\":15429:15569   */\n      swap2\n      swap1\n      pop\n      jump\t// out\n        /* \"#utility.yul\":15575:15701   */\n    tag_384:\n        /* \"#utility.yul\":15625:15634   */\n      0x00\n        /* \"#utility.yul\":15658:15695   */\n      tag_386\n        /* \"#utility.yul\":15689:15694   */\n      dup3\n        /* \"#utility.yul\":15658:15695   */\n      tag_387\n      jump\t// in\n    tag_386:\n        /* \"#utility.yul\":15645:15695   */\n      swap1\n      pop\n        /* \"#utility.yul\":15575:15701   */\n      swap2\n      swap1\n      pop\n      jump\t// out\n        /* \"#utility.yul\":15707:15820   */\n    tag_387:\n        /* \"#utility.yul\":15757:15766   */\n      0x00\n        /* \"#utility.yul\":15790:15814   */\n      tag_389\n        /* \"#utility.yul\":15808:15813   */\n      dup3\n        /* \"#utility.yul\":15790:15814   */\n      tag_374\n      jump\t// in\n    tag_389:\n        /* \"#utility.yul\":15777:15814   */\n      swap1\n      pop\n        /* \"#utility.yul\":15707:15820   */\n      swap2\n      swap1\n      pop\n      jump\t// out\n        /* \"#utility.yul\":15826:16006   */\n    tag_350:\n        /* \"#utility.yul\":15874:15951   */\n      0x4e487b7100000000000000000000000000000000000000000000000000000000\n        /* \"#utility.yul\":15871:15872   */\n      0x00\n        /* \"#utility.yul\":15864:15952   */\n      mstore\n        /* \"#utility.yul\":15971:15975   */\n      0x11\n        /* \"#utility.yul\":15968:15969   */\n      0x04\n        /* \"#utility.yul\":15961:15976   */\n      mstore\n        /* \"#utility.yul\":15995:15999   */\n      0x24\n        /* \"#utility.yul\":15992:15993   */\n      0x00\n        /* \"#utility.yul\":15985:16000   */\n      revert\n        /* \"#utility.yul\":16012:16192   */\n    tag_347:\n        /* \"#utility.yul\":16060:16137   */\n      0x4e487b7100000000000000000000000000000000000000000000000000000000\n        /* \"#utility.yul\":16057:16058   */\n      0x00\n        /* \"#utility.yul\":16050:16138   */\n      mstore\n        /* \"#utility.yul\":16157:16161   */\n      0x12\n        /* \"#utility.yul\":16154:16155   */\n      0x04\n        /* \"#utility.yul\":16147:16162   */\n      mstore\n        /* \"#utility.yul\":16181:16185   */\n      0x24\n        /* \"#utility.yul\":16178:16179   */\n      0x00\n        /* \"#utility.yul\":16171:16186   */\n      revert\n        /* \"#utility.yul\":16321:16438   */\n    tag_222:\n        /* \"#utility.yul\":16430:16431   */\n      0x00\n        /* \"#utility.yul\":16427:16428   */\n      dup1\n        /* \"#utility.yul\":16420:16432   */\n      revert\n        /* \"#utility.yul\":16444:16669   */\n    tag_266:\n        /* \"#utility.yul\":16584:16618   */\n      0x4f776e61626c653a206e6577206f776e657220697320746865207a65726f2061\n        /* \"#utility.yul\":16580:16581   */\n      0x00\n        /* \"#utility.yul\":16572:16578   */\n      dup3\n        /* \"#utility.yul\":16568:16582   */\n      add\n        /* \"#utility.yul\":16561:16619   */\n      mstore\n        /* \"#utility.yul\":16653:16661   */\n      0x6464726573730000000000000000000000000000000000000000000000000000\n        /* \"#utility.yul\":16648:16650   */\n      0x20\n        /* \"#utility.yul\":16640:16646   */\n      dup3\n        /* \"#utility.yul\":16636:16651   */\n      add\n        /* \"#utility.yul\":16629:16662   */\n      mstore\n        /* \"#utility.yul\":16444:16669   */\n      pop\n      jump\t// out\n        /* \"#utility.yul\":16675:16845   */\n    tag_271:\n        /* \"#utility.yul\":16815:16837   */\n      0x4661696c656420746f2073656e64204574686572000000000000000000000000\n        /* \"#utility.yul\":16811:16812   */\n      0x00\n        /* \"#utility.yul\":16803:16809   */\n      dup3\n        /* \"#utility.yul\":16799:16813   */\n      add\n        /* \"#utility.yul\":16792:16838   */\n      mstore\n        /* \"#utility.yul\":16675:16845   */\n      pop\n      jump\t// out\n        /* \"#utility.yul\":16851:17022   */\n    tag_276:\n        /* \"#utility.yul\":16991:17014   */\n      0x546f6b656e207472616e73666572206661696c65640000000000000000000000\n        /* \"#utility.yul\":16987:16988   */\n      0x00\n        /* \"#utility.yul\":16979:16985   */\n      dup3\n        /* \"#utility.yul\":16975:16989   */\n      add\n        /* \"#utility.yul\":16968:17015   */\n      mstore\n        /* \"#utility.yul\":16851:17022   */\n      pop\n      jump\t// out\n        /* \"#utility.yul\":17028:17204   */\n    tag_281:\n        /* \"#utility.yul\":17168:17196   */\n      0x4d696e696d756d20747261646520616d6f756e74203120626e62000000000000\n        /* \"#utility.yul\":17164:17165   */\n      0x00\n        /* \"#utility.yul\":17156:17162   */\n      dup3\n        /* \"#utility.yul\":17152:17166   */\n      add\n        /* \"#utility.yul\":17145:17197   */\n      mstore\n        /* \"#utility.yul\":17028:17204   */\n      pop\n      jump\t// out\n        /* \"#utility.yul\":17210:17379   */\n    tag_286:\n        /* \"#utility.yul\":17350:17371   */\n      0x4d757374206265203120626e6220776f72746800000000000000000000000000\n        /* \"#utility.yul\":17346:17347   */\n      0x00\n        /* \"#utility.yul\":17338:17344   */\n      dup3\n        /* \"#utility.yul\":17334:17348   */\n      add\n        /* \"#utility.yul\":17327:17372   */\n      mstore\n        /* \"#utility.yul\":17210:17379   */\n      pop\n      jump\t// out\n        /* \"#utility.yul\":17385:17551   */\n    tag_291:\n        /* \"#utility.yul\":17525:17543   */\n      0x5472616e73666572206661696c65642100000000000000000000000000000000\n        /* \"#utility.yul\":17521:17522   */\n      0x00\n        /* \"#utility.yul\":17513:17519   */\n      dup3\n        /* \"#utility.yul\":17509:17523   */\n      add\n        /* \"#utility.yul\":17502:17544   */\n      mstore\n        /* \"#utility.yul\":17385:17551   */\n      pop\n      jump\t// out\n        /* \"#utility.yul\":17557:17739   */\n    tag_296:\n        /* \"#utility.yul\":17697:17731   */\n      0x4f776e61626c653a2063616c6c6572206973206e6f7420746865206f776e6572\n        /* \"#utility.yul\":17693:17694   */\n      0x00\n        /* \"#utility.yul\":17685:17691   */\n      dup3\n        /* \"#utility.yul\":17681:17695   */\n      add\n        /* \"#utility.yul\":17674:17732   */\n      mstore\n        /* \"#utility.yul\":17557:17739   */\n      pop\n      jump\t// out\n        /* \"#utility.yul\":17745:17859   */\n    tag_302:\n      pop\n      jump\t// out\n        /* \"#utility.yul\":17865:17987   */\n    tag_196:\n        /* \"#utility.yul\":17938:17962   */\n      tag_404\n        /* \"#utility.yul\":17956:17961   */\n      dup2\n        /* \"#utility.yul\":17938:17962   */\n      tag_252\n      jump\t// in\n    tag_404:\n        /* \"#utility.yul\":17931:17936   */\n      dup2\n        /* \"#utility.yul\":17928:17963   */\n      eq\n        /* \"#utility.yul\":17918:17981   */\n      tag_405\n      jumpi\n        /* \"#utility.yul\":17977:17978   */\n      0x00\n        /* \"#utility.yul\":17974:17975   */\n      dup1\n        /* \"#utility.yul\":17967:17979   */\n      revert\n        /* \"#utility.yul\":17918:17981   */\n    tag_405:\n        /* \"#utility.yul\":17865:17987   */\n      pop\n      jump\t// out\n        /* \"#utility.yul\":17993:18109   */\n    tag_200:\n        /* \"#utility.yul\":18063:18084   */\n      tag_407\n        /* \"#utility.yul\":18078:18083   */\n      dup2\n        /* \"#utility.yul\":18063:18084   */\n      tag_375\n      jump\t// in\n    tag_407:\n        /* \"#utility.yul\":18056:18061   */\n      dup2\n        /* \"#utility.yul\":18053:18085   */\n      eq\n        /* \"#utility.yul\":18043:18103   */\n      tag_408\n      jumpi\n        /* \"#utility.yul\":18099:18100   */\n      0x00\n        /* \"#utility.yul\":18096:18097   */\n      dup1\n        /* \"#utility.yul\":18089:18101   */\n      revert\n        /* \"#utility.yul\":18043:18103   */\n    tag_408:\n        /* \"#utility.yul\":17993:18109   */\n      pop\n      jump\t// out\n        /* \"#utility.yul\":18115:18235   */\n    tag_204:\n        /* \"#utility.yul\":18187:18210   */\n      tag_410\n        /* \"#utility.yul\":18204:18209   */\n      dup2\n        /* \"#utility.yul\":18187:18210   */\n      tag_260\n      jump\t// in\n    tag_410:\n        /* \"#utility.yul\":18180:18185   */\n      dup2\n        /* \"#utility.yul\":18177:18211   */\n      eq\n        /* \"#utility.yul\":18167:18229   */\n      tag_411\n      jumpi\n        /* \"#utility.yul\":18225:18226   */\n      0x00\n        /* \"#utility.yul\":18222:18223   */\n      dup1\n        /* \"#utility.yul\":18215:18227   */\n      revert\n        /* \"#utility.yul\":18167:18229   */\n    tag_411:\n        /* \"#utility.yul\":18115:18235   */\n      pop\n      jump\t// out\n        /* \"#utility.yul\":18241:18363   */\n    tag_211:\n        /* \"#utility.yul\":18314:18338   */\n      tag_413\n        /* \"#utility.yul\":18332:18337   */\n      dup2\n        /* \"#utility.yul\":18314:18338   */\n      tag_306\n      jump\t// in\n    tag_413:\n        /* \"#utility.yul\":18307:18312   */\n      dup2\n        /* \"#utility.yul\":18304:18339   */\n      eq\n        /* \"#utility.yul\":18294:18357   */\n      tag_414\n      jumpi\n        /* \"#utility.yul\":18353:18354   */\n      0x00\n        /* \"#utility.yul\":18350:18351   */\n      dup1\n        /* \"#utility.yul\":18343:18355   */\n      revert\n        /* \"#utility.yul\":18294:18357   */\n    tag_414:\n        /* \"#utility.yul\":18241:18363   */\n      pop\n      jump\t// out\n        /* \"#utility.yul\":18369:18489   */\n    tag_218:\n        /* \"#utility.yul\":18441:18464   */\n      tag_416\n        /* \"#utility.yul\":18458:18463   */\n      dup2\n        /* \"#utility.yul\":18441:18464   */\n      tag_380\n      jump\t// in\n    tag_416:\n        /* \"#utility.yul\":18434:18439   */\n      dup2\n        /* \"#utility.yul\":18431:18465   */\n      eq\n        /* \"#utility.yul\":18421:18483   */\n      tag_417\n      jumpi\n        /* \"#utility.yul\":18479:18480   */\n      0x00\n        /* \"#utility.yul\":18476:18477   */\n      dup1\n        /* \"#utility.yul\":18469:18481   */\n      revert\n        /* \"#utility.yul\":18421:18483   */\n    tag_417:\n        /* \"#utility.yul\":18369:18489   */\n      pop\n      jump\t// out\n\n    auxdata: 0xa26469706673582212201b3211c29aa0cf4a45287f701ad72d203011bee7b1adc161015dbd394799e5a764736f6c63430008070033\n}\n",
				"bytecode": {
					"linkReferences": {},
					"object": "608060405234801561001057600080fd5b5061002d61002261013b60201b60201c565b61014360201b60201c565b620186a060028190555073e5ba47fd94cb645ba4119222e34fb33f59c7cd90600360006101000a81548173ffffffffffffffffffffffffffffffffffffffff021916908373ffffffffffffffffffffffffffffffffffffffff160217905550738ac76a51cc950d9822d68b83fe1ad97b32cd580d600460006101000a81548173ffffffffffffffffffffffffffffffffffffffff021916908373ffffffffffffffffffffffffffffffffffffffff160217905550730567f2323251f0aab15c8dfb1967e4e8a7d42aee600160006101000a81548173ffffffffffffffffffffffffffffffffffffffff021916908373ffffffffffffffffffffffffffffffffffffffff160217905550610207565b600033905090565b60008060009054906101000a900473ffffffffffffffffffffffffffffffffffffffff169050816000806101000a81548173ffffffffffffffffffffffffffffffffffffffff021916908373ffffffffffffffffffffffffffffffffffffffff1602179055508173ffffffffffffffffffffffffffffffffffffffff168173ffffffffffffffffffffffffffffffffffffffff167f8be0079c531659141344cd1fd0a4f28419497f9722a3daafe3b4186f6b6457e060405160405180910390a35050565b6118af806102166000396000f3fe6080604052600436106100a75760003560e01c80638a71c2f4116100645780638a71c2f4146101875780638da5cb5b146101b25780638e15f473146101dd578063ade87ecc14610208578063ebc4197c14610231578063f2fde38b1461025c576100a7565b80630e42e9a0146100ac5780633cb40e16146100e9578063715018a61461010057806380c3142614610117578063817e9d311461013357806389a302711461015c575b600080fd5b3480156100b857600080fd5b506100d360048036038101906100ce9190610f6b565b610285565b6040516100e0919061127f565b60405180910390f35b3480156100f557600080fd5b506100fe6102ba565b005b34801561010c57600080fd5b50610115610632565b005b610131600480360381019061012c9190610fab565b6106ba565b005b34801561013f57600080fd5b5061015a60048036038101906101559190610fab565b61088c565b005b34801561016857600080fd5b50610171610912565b60405161017e9190611264565b60405180910390f35b34801561019357600080fd5b5061019c610938565b6040516101a99190611264565b60405180910390f35b3480156101be57600080fd5b506101c761095e565b6040516101d491906111e9565b60405180910390f35b3480156101e957600080fd5b506101f2610987565b6040516101ff919061127f565b60405180910390f35b34801561021457600080fd5b5061022f600480360381019061022a9190610fab565b610a45565b005b34801561023d57600080fd5b50610246610b87565b604051610253919061137a565b60405180910390f35b34801561026857600080fd5b50610283600480360381019061027e9190610f11565b610b8d565b005b600080670de0b6b3a76400006102a48486610c8590919063ffffffff16565b6102ae919061144c565b90508091505092915050565b60006102c461095e565b73ffffffffffffffffffffffffffffffffffffffff16476040516102e7906111d4565b60006040518083038185875af1925050503d8060008114610324576040519150601f19603f3d011682016040523d82523d6000602084013e610329565b606091505b505090508061036d576040517f08c379a0000000000000000000000000000000000000000000000000000000008152600401610364906112ba565b60405180910390fd5b600360009054906101000a900473ffffffffffffffffffffffffffffffffffffffff1673ffffffffffffffffffffffffffffffffffffffff1663a9059cbb6103b361095e565b600360009054906101000a900473ffffffffffffffffffffffffffffffffffffffff1673ffffffffffffffffffffffffffffffffffffffff166370a08231306040518263ffffffff1660e01b815260040161040e91906111e9565b60206040518083038186803b15801561042657600080fd5b505afa15801561043a573d6000803e3d6000fd5b505050506040513d601f19601f8201168201806040525081019061045e9190610fd8565b6040518363ffffffff1660e01b815260040161047b92919061123b565b602060405180830381600087803b15801561049557600080fd5b505af11580156104a9573d6000803e3d6000fd5b505050506040513d601f19601f820116820180604052508101906104cd9190610f3e565b50600460009054906101000a900473ffffffffffffffffffffffffffffffffffffffff1673ffffffffffffffffffffffffffffffffffffffff1663a9059cbb61051461095e565b600460009054906101000a900473ffffffffffffffffffffffffffffffffffffffff1673ffffffffffffffffffffffffffffffffffffffff166370a08231306040518263ffffffff1660e01b815260040161056f91906111e9565b60206040518083038186803b15801561058757600080fd5b505afa15801561059b573d6000803e3d6000fd5b505050506040513d601f19601f820116820180604052508101906105bf9190610fd8565b6040518363ffffffff1660e01b81526004016105dc92919061123b565b602060405180830381600087803b1580156105f657600080fd5b505af115801561060a573d6000803e3d6000fd5b505050506040513d601f19601f8201168201806040525081019061062e9190610f3e565b5050565b61063a610cd8565b73ffffffffffffffffffffffffffffffffffffffff1661065861095e565b73ffffffffffffffffffffffffffffffffffffffff16146106ae576040517f08c379a00000000000000000000000000000000000000000000000000000000081526004016106a59061135a565b60405180910390fd5b6106b86000610ce0565b565b6002548110156106ff576040517f08c379a00000000000000000000000000000000000000000000000000000000081526004016106f6906112fa565b60405180910390fd5b6000670de0b6b3a764000060025483610718919061141b565b6107229190611563565b9050600061072e61095e565b73ffffffffffffffffffffffffffffffffffffffff1682604051610751906111d4565b60006040518083038185875af1925050503d806000811461078e576040519150601f19603f3d011682016040523d82523d6000602084013e610793565b606091505b50509050806107d7576040517f08c379a00000000000000000000000000000000000000000000000000000000081526004016107ce9061133a565b60405180910390fd5b600360009054906101000a900473ffffffffffffffffffffffffffffffffffffffff1673ffffffffffffffffffffffffffffffffffffffff1663a9059cbb33856040518363ffffffff1660e01b815260040161083492919061123b565b602060405180830381600087803b15801561084e57600080fd5b505af1158015610862573d6000803e3d6000fd5b505050506040513d601f19601f820116820180604052508101906108869190610f3e565b50505050565b610894610cd8565b73ffffffffffffffffffffffffffffffffffffffff166108b261095e565b73ffffffffffffffffffffffffffffffffffffffff1614610908576040517f08c379a00000000000000000000000000000000000000000000000000000000081526004016108ff9061135a565b60405180910390fd5b8060028190555050565b600460009054906101000a900473ffffffffffffffffffffffffffffffffffffffff1681565b600360009054906101000a900473ffffffffffffffffffffffffffffffffffffffff1681565b60008060009054906101000a900473ffffffffffffffffffffffffffffffffffffffff16905090565b600080600080600080600160009054906101000a900473ffffffffffffffffffffffffffffffffffffffff1673ffffffffffffffffffffffffffffffffffffffff1663feaf968c6040518163ffffffff1660e01b815260040160a06040518083038186803b1580156109f857600080fd5b505afa158015610a0c573d6000803e3d6000fd5b505050506040513d601f19601f82011682018060405250810190610a309190611005565b94509450945094509450839550505050505090565b6002548114610a89576040517f08c379a0000000000000000000000000000000000000000000000000000000008152600401610a809061131a565b60405180910390fd5b610ab7600360009054906101000a900473ffffffffffffffffffffffffffffffffffffffff16333084610da4565b60006402540be400610ac7610987565b610ad19190611563565b9050600460009054906101000a900473ffffffffffffffffffffffffffffffffffffffff1673ffffffffffffffffffffffffffffffffffffffff1663a9059cbb33836040518363ffffffff1660e01b8152600401610b3092919061123b565b602060405180830381600087803b158015610b4a57600080fd5b505af1158015610b5e573d6000803e3d6000fd5b505050506040513d601f19601f82011682018060405250810190610b829190610f3e565b505050565b60025481565b610b95610cd8565b73ffffffffffffffffffffffffffffffffffffffff16610bb361095e565b73ffffffffffffffffffffffffffffffffffffffff1614610c09576040517f08c379a0000000000000000000000000000000000000000000000000000000008152600401610c009061135a565b60405180910390fd5b600073ffffffffffffffffffffffffffffffffffffffff168173ffffffffffffffffffffffffffffffffffffffff161415610c79576040517f08c379a0000000000000000000000000000000000000000000000000000000008152600401610c709061129a565b60405180910390fd5b610c8281610ce0565b50565b60007fffffffffffffffffffffffffffffffffffffffffffffffffffffffffffffffff82141580610cbb575060ff6001901b8314155b610cc457600080fd5b8183610cd091906113b1565b905092915050565b600033905090565b60008060009054906101000a900473ffffffffffffffffffffffffffffffffffffffff169050816000806101000a81548173ffffffffffffffffffffffffffffffffffffffff021916908373ffffffffffffffffffffffffffffffffffffffff1602179055508173ffffffffffffffffffffffffffffffffffffffff168173ffffffffffffffffffffffffffffffffffffffff167f8be0079c531659141344cd1fd0a4f28419497f9722a3daafe3b4186f6b6457e060405160405180910390a35050565b60008473ffffffffffffffffffffffffffffffffffffffff166323b872dd8585856040518463ffffffff1660e01b8152600401610de393929190611204565b602060405180830381600087803b158015610dfd57600080fd5b505af1158015610e11573d6000803e3d6000fd5b505050506040513d601f19601f82011682018060405250810190610e359190610f3e565b905080610e77576040517f08c379a0000000000000000000000000000000000000000000000000000000008152600401610e6e906112da565b60405180910390fd5b5050505050565b600081359050610e8d81611806565b92915050565b600081519050610ea28161181d565b92915050565b600081359050610eb781611834565b92915050565b600081519050610ecc81611834565b92915050565b600081359050610ee18161184b565b92915050565b600081519050610ef68161184b565b92915050565b600081519050610f0b81611862565b92915050565b600060208284031215610f2757610f266116b9565b5b6000610f3584828501610e7e565b91505092915050565b600060208284031215610f5457610f536116b9565b5b6000610f6284828501610e93565b91505092915050565b60008060408385031215610f8257610f816116b9565b5b6000610f9085828601610ea8565b9250506020610fa185828601610ea8565b9150509250929050565b600060208284031215610fc157610fc06116b9565b5b6000610fcf84828501610ed2565b91505092915050565b600060208284031215610fee57610fed6116b9565b5b6000610ffc84828501610ee7565b91505092915050565b600080600080600060a08688031215611021576110206116b9565b5b600061102f88828901610efc565b955050602061104088828901610ebd565b945050604061105188828901610ee7565b935050606061106288828901610ee7565b925050608061107388828901610efc565b9150509295509295909350565b611089816115bd565b82525050565b61109881611625565b82525050565b6110a7816115db565b82525050565b60006110ba6026836113a0565b91506110c5826116be565b604082019050919050565b60006110dd6014836113a0565b91506110e88261170d565b602082019050919050565b60006111006015836113a0565b915061110b82611736565b602082019050919050565b6000611123601a836113a0565b915061112e8261175f565b602082019050919050565b60006111466013836113a0565b915061115182611788565b602082019050919050565b60006111696010836113a0565b9150611174826117b1565b602082019050919050565b600061118c6020836113a0565b9150611197826117da565b602082019050919050565b60006111af600083611395565b91506111ba82611803565b600082019050919050565b6111ce81611605565b82525050565b60006111df826111a2565b9150819050919050565b60006020820190506111fe6000830184611080565b92915050565b60006060820190506112196000830186611080565b6112266020830185611080565b61123360408301846111c5565b949350505050565b60006040820190506112506000830185611080565b61125d60208301846111c5565b9392505050565b6000602082019050611279600083018461108f565b92915050565b6000602082019050611294600083018461109e565b92915050565b600060208201905081810360008301526112b3816110ad565b9050919050565b600060208201905081810360008301526112d3816110d0565b9050919050565b600060208201905081810360008301526112f3816110f3565b9050919050565b6000602082019050818103600083015261131381611116565b9050919050565b6000602082019050818103600083015261133381611139565b9050919050565b600060208201905081810360008301526113538161115c565b9050919050565b600060208201905081810360008301526113738161117f565b9050919050565b600060208201905061138f60008301846111c5565b92915050565b600081905092915050565b600082825260208201905092915050565b60006113bc826115db565b91506113c7836115db565b9250826113d7576113d661168a565b5b600160000383147f8000000000000000000000000000000000000000000000000000000000000000831416156114105761140f61165b565b5b828205905092915050565b600061142682611605565b915061143183611605565b9250826114415761144061168a565b5b828204905092915050565b6000611457826115db565b9150611462836115db565b9250827f7fffffffffffffffffffffffffffffffffffffffffffffffffffffffffffffff04821160008413600084131616156114a1576114a061165b565b5b817f800000000000000000000000000000000000000000000000000000000000000005831260008412600084131616156114de576114dd61165b565b5b827f8000000000000000000000000000000000000000000000000000000000000000058212600084136000841216161561151b5761151a61165b565b5b827f7fffffffffffffffffffffffffffffffffffffffffffffffffffffffffffffff05821260008412600084121616156115585761155761165b565b5b828202905092915050565b600061156e82611605565b915061157983611605565b9250817fffffffffffffffffffffffffffffffffffffffffffffffffffffffffffffffff04831182151516156115b2576115b161165b565b5b828202905092915050565b60006115c8826115e5565b9050919050565b60008115159050919050565b6000819050919050565b600073ffffffffffffffffffffffffffffffffffffffff82169050919050565b6000819050919050565b600069ffffffffffffffffffff82169050919050565b600061163082611637565b9050919050565b600061164282611649565b9050919050565b6000611654826115e5565b9050919050565b7f4e487b7100000000000000000000000000000000000000000000000000000000600052601160045260246000fd5b7f4e487b7100000000000000000000000000000000000000000000000000000000600052601260045260246000fd5b600080fd5b7f4f776e61626c653a206e6577206f776e657220697320746865207a65726f206160008201527f6464726573730000000000000000000000000000000000000000000000000000602082015250565b7f4661696c656420746f2073656e64204574686572000000000000000000000000600082015250565b7f546f6b656e207472616e73666572206661696c65640000000000000000000000600082015250565b7f4d696e696d756d20747261646520616d6f756e74203120626e62000000000000600082015250565b7f4d757374206265203120626e6220776f72746800000000000000000000000000600082015250565b7f5472616e73666572206661696c65642100000000000000000000000000000000600082015250565b7f4f776e61626c653a2063616c6c6572206973206e6f7420746865206f776e6572600082015250565b50565b61180f816115bd565b811461181a57600080fd5b50565b611826816115cf565b811461183157600080fd5b50565b61183d816115db565b811461184857600080fd5b50565b61185481611605565b811461185f57600080fd5b50565b61186b8161160f565b811461187657600080fd5b5056fea26469706673582212201b3211c29aa0cf4a45287f701ad72d203011bee7b1adc161015dbd394799e5a764736f6c63430008070033",
					"opcodes": "PUSH1 0x80 PUSH1 0x40 MSTORE CALLVALUE DUP1 ISZERO PUSH2 0x10 JUMPI PUSH1 0x0 DUP1 REVERT JUMPDEST POP PUSH2 0x2D PUSH2 0x22 PUSH2 0x13B PUSH1 0x20 SHL PUSH1 0x20 SHR JUMP JUMPDEST PUSH2 0x143 PUSH1 0x20 SHL PUSH1 0x20 SHR JUMP JUMPDEST PUSH3 0x186A0 PUSH1 0x2 DUP2 SWAP1 SSTORE POP PUSH20 0xE5BA47FD94CB645BA4119222E34FB33F59C7CD90 PUSH1 0x3 PUSH1 0x0 PUSH2 0x100 EXP DUP2 SLOAD DUP2 PUSH20 0xFFFFFFFFFFFFFFFFFFFFFFFFFFFFFFFFFFFFFFFF MUL NOT AND SWAP1 DUP4 PUSH20 0xFFFFFFFFFFFFFFFFFFFFFFFFFFFFFFFFFFFFFFFF AND MUL OR SWAP1 SSTORE POP PUSH20 0x8AC76A51CC950D9822D68B83FE1AD97B32CD580D PUSH1 0x4 PUSH1 0x0 PUSH2 0x100 EXP DUP2 SLOAD DUP2 PUSH20 0xFFFFFFFFFFFFFFFFFFFFFFFFFFFFFFFFFFFFFFFF MUL NOT AND SWAP1 DUP4 PUSH20 0xFFFFFFFFFFFFFFFFFFFFFFFFFFFFFFFFFFFFFFFF AND MUL OR SWAP1 SSTORE POP PUSH20 0x567F2323251F0AAB15C8DFB1967E4E8A7D42AEE PUSH1 0x1 PUSH1 0x0 PUSH2 0x100 EXP DUP2 SLOAD DUP2 PUSH20 0xFFFFFFFFFFFFFFFFFFFFFFFFFFFFFFFFFFFFFFFF MUL NOT AND SWAP1 DUP4 PUSH20 0xFFFFFFFFFFFFFFFFFFFFFFFFFFFFFFFFFFFFFFFF AND MUL OR SWAP1 SSTORE POP PUSH2 0x207 JUMP JUMPDEST PUSH1 0x0 CALLER SWAP1 POP SWAP1 JUMP JUMPDEST PUSH1 0x0 DUP1 PUSH1 0x0 SWAP1 SLOAD SWAP1 PUSH2 0x100 EXP SWAP1 DIV PUSH20 0xFFFFFFFFFFFFFFFFFFFFFFFFFFFFFFFFFFFFFFFF AND SWAP1 POP DUP2 PUSH1 0x0 DUP1 PUSH2 0x100 EXP DUP2 SLOAD DUP2 PUSH20 0xFFFFFFFFFFFFFFFFFFFFFFFFFFFFFFFFFFFFFFFF MUL NOT AND SWAP1 DUP4 PUSH20 0xFFFFFFFFFFFFFFFFFFFFFFFFFFFFFFFFFFFFFFFF AND MUL OR SWAP1 SSTORE POP DUP2 PUSH20 0xFFFFFFFFFFFFFFFFFFFFFFFFFFFFFFFFFFFFFFFF AND DUP2 PUSH20 0xFFFFFFFFFFFFFFFFFFFFFFFFFFFFFFFFFFFFFFFF AND PUSH32 0x8BE0079C531659141344CD1FD0A4F28419497F9722A3DAAFE3B4186F6B6457E0 PUSH1 0x40 MLOAD PUSH1 0x40 MLOAD DUP1 SWAP2 SUB SWAP1 LOG3 POP POP JUMP JUMPDEST PUSH2 0x18AF DUP1 PUSH2 0x216 PUSH1 0x0 CODECOPY PUSH1 0x0 RETURN INVALID PUSH1 0x80 PUSH1 0x40 MSTORE PUSH1 0x4 CALLDATASIZE LT PUSH2 0xA7 JUMPI PUSH1 0x0 CALLDATALOAD PUSH1 0xE0 SHR DUP1 PUSH4 0x8A71C2F4 GT PUSH2 0x64 JUMPI DUP1 PUSH4 0x8A71C2F4 EQ PUSH2 0x187 JUMPI DUP1 PUSH4 0x8DA5CB5B EQ PUSH2 0x1B2 JUMPI DUP1 PUSH4 0x8E15F473 EQ PUSH2 0x1DD JUMPI DUP1 PUSH4 0xADE87ECC EQ PUSH2 0x208 JUMPI DUP1 PUSH4 0xEBC4197C EQ PUSH2 0x231 JUMPI DUP1 PUSH4 0xF2FDE38B EQ PUSH2 0x25C JUMPI PUSH2 0xA7 JUMP JUMPDEST DUP1 PUSH4 0xE42E9A0 EQ PUSH2 0xAC JUMPI DUP1 PUSH4 0x3CB40E16 EQ PUSH2 0xE9 JUMPI DUP1 PUSH4 0x715018A6 EQ PUSH2 0x100 JUMPI DUP1 PUSH4 0x80C31426 EQ PUSH2 0x117 JUMPI DUP1 PUSH4 0x817E9D31 EQ PUSH2 0x133 JUMPI DUP1 PUSH4 0x89A30271 EQ PUSH2 0x15C JUMPI JUMPDEST PUSH1 0x0 DUP1 REVERT JUMPDEST CALLVALUE DUP1 ISZERO PUSH2 0xB8 JUMPI PUSH1 0x0 DUP1 REVERT JUMPDEST POP PUSH2 0xD3 PUSH1 0x4 DUP1 CALLDATASIZE SUB DUP2 ADD SWAP1 PUSH2 0xCE SWAP2 SWAP1 PUSH2 0xF6B JUMP JUMPDEST PUSH2 0x285 JUMP JUMPDEST PUSH1 0x40 MLOAD PUSH2 0xE0 SWAP2 SWAP1 PUSH2 0x127F JUMP JUMPDEST PUSH1 0x40 MLOAD DUP1 SWAP2 SUB SWAP1 RETURN JUMPDEST CALLVALUE DUP1 ISZERO PUSH2 0xF5 JUMPI PUSH1 0x0 DUP1 REVERT JUMPDEST POP PUSH2 0xFE PUSH2 0x2BA JUMP JUMPDEST STOP JUMPDEST CALLVALUE DUP1 ISZERO PUSH2 0x10C JUMPI PUSH1 0x0 DUP1 REVERT JUMPDEST POP PUSH2 0x115 PUSH2 0x632 JUMP JUMPDEST STOP JUMPDEST PUSH2 0x131 PUSH1 0x4 DUP1 CALLDATASIZE SUB DUP2 ADD SWAP1 PUSH2 0x12C SWAP2 SWAP1 PUSH2 0xFAB JUMP JUMPDEST PUSH2 0x6BA JUMP JUMPDEST STOP JUMPDEST CALLVALUE DUP1 ISZERO PUSH2 0x13F JUMPI PUSH1 0x0 DUP1 REVERT JUMPDEST POP PUSH2 0x15A PUSH1 0x4 DUP1 CALLDATASIZE SUB DUP2 ADD SWAP1 PUSH2 0x155 SWAP2 SWAP1 PUSH2 0xFAB JUMP JUMPDEST PUSH2 0x88C JUMP JUMPDEST STOP JUMPDEST CALLVALUE DUP1 ISZERO PUSH2 0x168 JUMPI PUSH1 0x0 DUP1 REVERT JUMPDEST POP PUSH2 0x171 PUSH2 0x912 JUMP JUMPDEST PUSH1 0x40 MLOAD PUSH2 0x17E SWAP2 SWAP1 PUSH2 0x1264 JUMP JUMPDEST PUSH1 0x40 MLOAD DUP1 SWAP2 SUB SWAP1 RETURN JUMPDEST CALLVALUE DUP1 ISZERO PUSH2 0x193 JUMPI PUSH1 0x0 DUP1 REVERT JUMPDEST POP PUSH2 0x19C PUSH2 0x938 JUMP JUMPDEST PUSH1 0x40 MLOAD PUSH2 0x1A9 SWAP2 SWAP1 PUSH2 0x1264 JUMP JUMPDEST PUSH1 0x40 MLOAD DUP1 SWAP2 SUB SWAP1 RETURN JUMPDEST CALLVALUE DUP1 ISZERO PUSH2 0x1BE JUMPI PUSH1 0x0 DUP1 REVERT JUMPDEST POP PUSH2 0x1C7 PUSH2 0x95E JUMP JUMPDEST PUSH1 0x40 MLOAD PUSH2 0x1D4 SWAP2 SWAP1 PUSH2 0x11E9 JUMP JUMPDEST PUSH1 0x40 MLOAD DUP1 SWAP2 SUB SWAP1 RETURN JUMPDEST CALLVALUE DUP1 ISZERO PUSH2 0x1E9 JUMPI PUSH1 0x0 DUP1 REVERT JUMPDEST POP PUSH2 0x1F2 PUSH2 0x987 JUMP JUMPDEST PUSH1 0x40 MLOAD PUSH2 0x1FF SWAP2 SWAP1 PUSH2 0x127F JUMP JUMPDEST PUSH1 0x40 MLOAD DUP1 SWAP2 SUB SWAP1 RETURN JUMPDEST CALLVALUE DUP1 ISZERO PUSH2 0x214 JUMPI PUSH1 0x0 DUP1 REVERT JUMPDEST POP PUSH2 0x22F PUSH1 0x4 DUP1 CALLDATASIZE SUB DUP2 ADD SWAP1 PUSH2 0x22A SWAP2 SWAP1 PUSH2 0xFAB JUMP JUMPDEST PUSH2 0xA45 JUMP JUMPDEST STOP JUMPDEST CALLVALUE DUP1 ISZERO PUSH2 0x23D JUMPI PUSH1 0x0 DUP1 REVERT JUMPDEST POP PUSH2 0x246 PUSH2 0xB87 JUMP JUMPDEST PUSH1 0x40 MLOAD PUSH2 0x253 SWAP2 SWAP1 PUSH2 0x137A JUMP JUMPDEST PUSH1 0x40 MLOAD DUP1 SWAP2 SUB SWAP1 RETURN JUMPDEST CALLVALUE DUP1 ISZERO PUSH2 0x268 JUMPI PUSH1 0x0 DUP1 REVERT JUMPDEST POP PUSH2 0x283 PUSH1 0x4 DUP1 CALLDATASIZE SUB DUP2 ADD SWAP1 PUSH2 0x27E SWAP2 SWAP1 PUSH2 0xF11 JUMP JUMPDEST PUSH2 0xB8D JUMP JUMPDEST STOP JUMPDEST PUSH1 0x0 DUP1 PUSH8 0xDE0B6B3A7640000 PUSH2 0x2A4 DUP5 DUP7 PUSH2 0xC85 SWAP1 SWAP2 SWAP1 PUSH4 0xFFFFFFFF AND JUMP JUMPDEST PUSH2 0x2AE SWAP2 SWAP1 PUSH2 0x144C JUMP JUMPDEST SWAP1 POP DUP1 SWAP2 POP POP SWAP3 SWAP2 POP POP JUMP JUMPDEST PUSH1 0x0 PUSH2 0x2C4 PUSH2 0x95E JUMP JUMPDEST PUSH20 0xFFFFFFFFFFFFFFFFFFFFFFFFFFFFFFFFFFFFFFFF AND SELFBALANCE PUSH1 0x40 MLOAD PUSH2 0x2E7 SWAP1 PUSH2 0x11D4 JUMP JUMPDEST PUSH1 0x0 PUSH1 0x40 MLOAD DUP1 DUP4 SUB DUP2 DUP6 DUP8 GAS CALL SWAP3 POP POP POP RETURNDATASIZE DUP1 PUSH1 0x0 DUP2 EQ PUSH2 0x324 JUMPI PUSH1 0x40 MLOAD SWAP2 POP PUSH1 0x1F NOT PUSH1 0x3F RETURNDATASIZE ADD AND DUP3 ADD PUSH1 0x40 MSTORE RETURNDATASIZE DUP3 MSTORE RETURNDATASIZE PUSH1 0x0 PUSH1 0x20 DUP5 ADD RETURNDATACOPY PUSH2 0x329 JUMP JUMPDEST PUSH1 0x60 SWAP2 POP JUMPDEST POP POP SWAP1 POP DUP1 PUSH2 0x36D JUMPI PUSH1 0x40 MLOAD PUSH32 0x8C379A000000000000000000000000000000000000000000000000000000000 DUP2 MSTORE PUSH1 0x4 ADD PUSH2 0x364 SWAP1 PUSH2 0x12BA JUMP JUMPDEST PUSH1 0x40 MLOAD DUP1 SWAP2 SUB SWAP1 REVERT JUMPDEST PUSH1 0x3 PUSH1 0x0 SWAP1 SLOAD SWAP1 PUSH2 0x100 EXP SWAP1 DIV PUSH20 0xFFFFFFFFFFFFFFFFFFFFFFFFFFFFFFFFFFFFFFFF AND PUSH20 0xFFFFFFFFFFFFFFFFFFFFFFFFFFFFFFFFFFFFFFFF AND PUSH4 0xA9059CBB PUSH2 0x3B3 PUSH2 0x95E JUMP JUMPDEST PUSH1 0x3 PUSH1 0x0 SWAP1 SLOAD SWAP1 PUSH2 0x100 EXP SWAP1 DIV PUSH20 0xFFFFFFFFFFFFFFFFFFFFFFFFFFFFFFFFFFFFFFFF AND PUSH20 0xFFFFFFFFFFFFFFFFFFFFFFFFFFFFFFFFFFFFFFFF AND PUSH4 0x70A08231 ADDRESS PUSH1 0x40 MLOAD DUP3 PUSH4 0xFFFFFFFF AND PUSH1 0xE0 SHL DUP2 MSTORE PUSH1 0x4 ADD PUSH2 0x40E SWAP2 SWAP1 PUSH2 0x11E9 JUMP JUMPDEST PUSH1 0x20 PUSH1 0x40 MLOAD DUP1 DUP4 SUB DUP2 DUP7 DUP1 EXTCODESIZE ISZERO DUP1 ISZERO PUSH2 0x426 JUMPI PUSH1 0x0 DUP1 REVERT JUMPDEST POP GAS STATICCALL ISZERO DUP1 ISZERO PUSH2 0x43A JUMPI RETURNDATASIZE PUSH1 0x0 DUP1 RETURNDATACOPY RETURNDATASIZE PUSH1 0x0 REVERT JUMPDEST POP POP POP POP PUSH1 0x40 MLOAD RETURNDATASIZE PUSH1 0x1F NOT PUSH1 0x1F DUP3 ADD AND DUP3 ADD DUP1 PUSH1 0x40 MSTORE POP DUP2 ADD SWAP1 PUSH2 0x45E SWAP2 SWAP1 PUSH2 0xFD8 JUMP JUMPDEST PUSH1 0x40 MLOAD DUP4 PUSH4 0xFFFFFFFF AND PUSH1 0xE0 SHL DUP2 MSTORE PUSH1 0x4 ADD PUSH2 0x47B SWAP3 SWAP2 SWAP1 PUSH2 0x123B JUMP JUMPDEST PUSH1 0x20 PUSH1 0x40 MLOAD DUP1 DUP4 SUB DUP2 PUSH1 0x0 DUP8 DUP1 EXTCODESIZE ISZERO DUP1 ISZERO PUSH2 0x495 JUMPI PUSH1 0x0 DUP1 REVERT JUMPDEST POP GAS CALL ISZERO DUP1 ISZERO PUSH2 0x4A9 JUMPI RETURNDATASIZE PUSH1 0x0 DUP1 RETURNDATACOPY RETURNDATASIZE PUSH1 0x0 REVERT JUMPDEST POP POP POP POP PUSH1 0x40 MLOAD RETURNDATASIZE PUSH1 0x1F NOT PUSH1 0x1F DUP3 ADD AND DUP3 ADD DUP1 PUSH1 0x40 MSTORE POP DUP2 ADD SWAP1 PUSH2 0x4CD SWAP2 SWAP1 PUSH2 0xF3E JUMP JUMPDEST POP PUSH1 0x4 PUSH1 0x0 SWAP1 SLOAD SWAP1 PUSH2 0x100 EXP SWAP1 DIV PUSH20 0xFFFFFFFFFFFFFFFFFFFFFFFFFFFFFFFFFFFFFFFF AND PUSH20 0xFFFFFFFFFFFFFFFFFFFFFFFFFFFFFFFFFFFFFFFF AND PUSH4 0xA9059CBB PUSH2 0x514 PUSH2 0x95E JUMP JUMPDEST PUSH1 0x4 PUSH1 0x0 SWAP1 SLOAD SWAP1 PUSH2 0x100 EXP SWAP1 DIV PUSH20 0xFFFFFFFFFFFFFFFFFFFFFFFFFFFFFFFFFFFFFFFF AND PUSH20 0xFFFFFFFFFFFFFFFFFFFFFFFFFFFFFFFFFFFFFFFF AND PUSH4 0x70A08231 ADDRESS PUSH1 0x40 MLOAD DUP3 PUSH4 0xFFFFFFFF AND PUSH1 0xE0 SHL DUP2 MSTORE PUSH1 0x4 ADD PUSH2 0x56F SWAP2 SWAP1 PUSH2 0x11E9 JUMP JUMPDEST PUSH1 0x20 PUSH1 0x40 MLOAD DUP1 DUP4 SUB DUP2 DUP7 DUP1 EXTCODESIZE ISZERO DUP1 ISZERO PUSH2 0x587 JUMPI PUSH1 0x0 DUP1 REVERT JUMPDEST POP GAS STATICCALL ISZERO DUP1 ISZERO PUSH2 0x59B JUMPI RETURNDATASIZE PUSH1 0x0 DUP1 RETURNDATACOPY RETURNDATASIZE PUSH1 0x0 REVERT JUMPDEST POP POP POP POP PUSH1 0x40 MLOAD RETURNDATASIZE PUSH1 0x1F NOT PUSH1 0x1F DUP3 ADD AND DUP3 ADD DUP1 PUSH1 0x40 MSTORE POP DUP2 ADD SWAP1 PUSH2 0x5BF SWAP2 SWAP1 PUSH2 0xFD8 JUMP JUMPDEST PUSH1 0x40 MLOAD DUP4 PUSH4 0xFFFFFFFF AND PUSH1 0xE0 SHL DUP2 MSTORE PUSH1 0x4 ADD PUSH2 0x5DC SWAP3 SWAP2 SWAP1 PUSH2 0x123B JUMP JUMPDEST PUSH1 0x20 PUSH1 0x40 MLOAD DUP1 DUP4 SUB DUP2 PUSH1 0x0 DUP8 DUP1 EXTCODESIZE ISZERO DUP1 ISZERO PUSH2 0x5F6 JUMPI PUSH1 0x0 DUP1 REVERT JUMPDEST POP GAS CALL ISZERO DUP1 ISZERO PUSH2 0x60A JUMPI RETURNDATASIZE PUSH1 0x0 DUP1 RETURNDATACOPY RETURNDATASIZE PUSH1 0x0 REVERT JUMPDEST POP POP POP POP PUSH1 0x40 MLOAD RETURNDATASIZE PUSH1 0x1F NOT PUSH1 0x1F DUP3 ADD AND DUP3 ADD DUP1 PUSH1 0x40 MSTORE POP DUP2 ADD SWAP1 PUSH2 0x62E SWAP2 SWAP1 PUSH2 0xF3E JUMP JUMPDEST POP POP JUMP JUMPDEST PUSH2 0x63A PUSH2 0xCD8 JUMP JUMPDEST PUSH20 0xFFFFFFFFFFFFFFFFFFFFFFFFFFFFFFFFFFFFFFFF AND PUSH2 0x658 PUSH2 0x95E JUMP JUMPDEST PUSH20 0xFFFFFFFFFFFFFFFFFFFFFFFFFFFFFFFFFFFFFFFF AND EQ PUSH2 0x6AE JUMPI PUSH1 0x40 MLOAD PUSH32 0x8C379A000000000000000000000000000000000000000000000000000000000 DUP2 MSTORE PUSH1 0x4 ADD PUSH2 0x6A5 SWAP1 PUSH2 0x135A JUMP JUMPDEST PUSH1 0x40 MLOAD DUP1 SWAP2 SUB SWAP1 REVERT JUMPDEST PUSH2 0x6B8 PUSH1 0x0 PUSH2 0xCE0 JUMP JUMPDEST JUMP JUMPDEST PUSH1 0x2 SLOAD DUP2 LT ISZERO PUSH2 0x6FF JUMPI PUSH1 0x40 MLOAD PUSH32 0x8C379A000000000000000000000000000000000000000000000000000000000 DUP2 MSTORE PUSH1 0x4 ADD PUSH2 0x6F6 SWAP1 PUSH2 0x12FA JUMP JUMPDEST PUSH1 0x40 MLOAD DUP1 SWAP2 SUB SWAP1 REVERT JUMPDEST PUSH1 0x0 PUSH8 0xDE0B6B3A7640000 PUSH1 0x2 SLOAD DUP4 PUSH2 0x718 SWAP2 SWAP1 PUSH2 0x141B JUMP JUMPDEST PUSH2 0x722 SWAP2 SWAP1 PUSH2 0x1563 JUMP JUMPDEST SWAP1 POP PUSH1 0x0 PUSH2 0x72E PUSH2 0x95E JUMP JUMPDEST PUSH20 0xFFFFFFFFFFFFFFFFFFFFFFFFFFFFFFFFFFFFFFFF AND DUP3 PUSH1 0x40 MLOAD PUSH2 0x751 SWAP1 PUSH2 0x11D4 JUMP JUMPDEST PUSH1 0x0 PUSH1 0x40 MLOAD DUP1 DUP4 SUB DUP2 DUP6 DUP8 GAS CALL SWAP3 POP POP POP RETURNDATASIZE DUP1 PUSH1 0x0 DUP2 EQ PUSH2 0x78E JUMPI PUSH1 0x40 MLOAD SWAP2 POP PUSH1 0x1F NOT PUSH1 0x3F RETURNDATASIZE ADD AND DUP3 ADD PUSH1 0x40 MSTORE RETURNDATASIZE DUP3 MSTORE RETURNDATASIZE PUSH1 0x0 PUSH1 0x20 DUP5 ADD RETURNDATACOPY PUSH2 0x793 JUMP JUMPDEST PUSH1 0x60 SWAP2 POP JUMPDEST POP POP SWAP1 POP DUP1 PUSH2 0x7D7 JUMPI PUSH1 0x40 MLOAD PUSH32 0x8C379A000000000000000000000000000000000000000000000000000000000 DUP2 MSTORE PUSH1 0x4 ADD PUSH2 0x7CE SWAP1 PUSH2 0x133A JUMP JUMPDEST PUSH1 0x40 MLOAD DUP1 SWAP2 SUB SWAP1 REVERT JUMPDEST PUSH1 0x3 PUSH1 0x0 SWAP1 SLOAD SWAP1 PUSH2 0x100 EXP SWAP1 DIV PUSH20 0xFFFFFFFFFFFFFFFFFFFFFFFFFFFFFFFFFFFFFFFF AND PUSH20 0xFFFFFFFFFFFFFFFFFFFFFFFFFFFFFFFFFFFFFFFF AND PUSH4 0xA9059CBB CALLER DUP6 PUSH1 0x40 MLOAD DUP4 PUSH4 0xFFFFFFFF AND PUSH1 0xE0 SHL DUP2 MSTORE PUSH1 0x4 ADD PUSH2 0x834 SWAP3 SWAP2 SWAP1 PUSH2 0x123B JUMP JUMPDEST PUSH1 0x20 PUSH1 0x40 MLOAD DUP1 DUP4 SUB DUP2 PUSH1 0x0 DUP8 DUP1 EXTCODESIZE ISZERO DUP1 ISZERO PUSH2 0x84E JUMPI PUSH1 0x0 DUP1 REVERT JUMPDEST POP GAS CALL ISZERO DUP1 ISZERO PUSH2 0x862 JUMPI RETURNDATASIZE PUSH1 0x0 DUP1 RETURNDATACOPY RETURNDATASIZE PUSH1 0x0 REVERT JUMPDEST POP POP POP POP PUSH1 0x40 MLOAD RETURNDATASIZE PUSH1 0x1F NOT PUSH1 0x1F DUP3 ADD AND DUP3 ADD DUP1 PUSH1 0x40 MSTORE POP DUP2 ADD SWAP1 PUSH2 0x886 SWAP2 SWAP1 PUSH2 0xF3E JUMP JUMPDEST POP POP POP POP JUMP JUMPDEST PUSH2 0x894 PUSH2 0xCD8 JUMP JUMPDEST PUSH20 0xFFFFFFFFFFFFFFFFFFFFFFFFFFFFFFFFFFFFFFFF AND PUSH2 0x8B2 PUSH2 0x95E JUMP JUMPDEST PUSH20 0xFFFFFFFFFFFFFFFFFFFFFFFFFFFFFFFFFFFFFFFF AND EQ PUSH2 0x908 JUMPI PUSH1 0x40 MLOAD PUSH32 0x8C379A000000000000000000000000000000000000000000000000000000000 DUP2 MSTORE PUSH1 0x4 ADD PUSH2 0x8FF SWAP1 PUSH2 0x135A JUMP JUMPDEST PUSH1 0x40 MLOAD DUP1 SWAP2 SUB SWAP1 REVERT JUMPDEST DUP1 PUSH1 0x2 DUP2 SWAP1 SSTORE POP POP JUMP JUMPDEST PUSH1 0x4 PUSH1 0x0 SWAP1 SLOAD SWAP1 PUSH2 0x100 EXP SWAP1 DIV PUSH20 0xFFFFFFFFFFFFFFFFFFFFFFFFFFFFFFFFFFFFFFFF AND DUP2 JUMP JUMPDEST PUSH1 0x3 PUSH1 0x0 SWAP1 SLOAD SWAP1 PUSH2 0x100 EXP SWAP1 DIV PUSH20 0xFFFFFFFFFFFFFFFFFFFFFFFFFFFFFFFFFFFFFFFF AND DUP2 JUMP JUMPDEST PUSH1 0x0 DUP1 PUSH1 0x0 SWAP1 SLOAD SWAP1 PUSH2 0x100 EXP SWAP1 DIV PUSH20 0xFFFFFFFFFFFFFFFFFFFFFFFFFFFFFFFFFFFFFFFF AND SWAP1 POP SWAP1 JUMP JUMPDEST PUSH1 0x0 DUP1 PUSH1 0x0 DUP1 PUSH1 0x0 DUP1 PUSH1 0x1 PUSH1 0x0 SWAP1 SLOAD SWAP1 PUSH2 0x100 EXP SWAP1 DIV PUSH20 0xFFFFFFFFFFFFFFFFFFFFFFFFFFFFFFFFFFFFFFFF AND PUSH20 0xFFFFFFFFFFFFFFFFFFFFFFFFFFFFFFFFFFFFFFFF AND PUSH4 0xFEAF968C PUSH1 0x40 MLOAD DUP2 PUSH4 0xFFFFFFFF AND PUSH1 0xE0 SHL DUP2 MSTORE PUSH1 0x4 ADD PUSH1 0xA0 PUSH1 0x40 MLOAD DUP1 DUP4 SUB DUP2 DUP7 DUP1 EXTCODESIZE ISZERO DUP1 ISZERO PUSH2 0x9F8 JUMPI PUSH1 0x0 DUP1 REVERT JUMPDEST POP GAS STATICCALL ISZERO DUP1 ISZERO PUSH2 0xA0C JUMPI RETURNDATASIZE PUSH1 0x0 DUP1 RETURNDATACOPY RETURNDATASIZE PUSH1 0x0 REVERT JUMPDEST POP POP POP POP PUSH1 0x40 MLOAD RETURNDATASIZE PUSH1 0x1F NOT PUSH1 0x1F DUP3 ADD AND DUP3 ADD DUP1 PUSH1 0x40 MSTORE POP DUP2 ADD SWAP1 PUSH2 0xA30 SWAP2 SWAP1 PUSH2 0x1005 JUMP JUMPDEST SWAP5 POP SWAP5 POP SWAP5 POP SWAP5 POP SWAP5 POP DUP4 SWAP6 POP POP POP POP POP POP SWAP1 JUMP JUMPDEST PUSH1 0x2 SLOAD DUP2 EQ PUSH2 0xA89 JUMPI PUSH1 0x40 MLOAD PUSH32 0x8C379A000000000000000000000000000000000000000000000000000000000 DUP2 MSTORE PUSH1 0x4 ADD PUSH2 0xA80 SWAP1 PUSH2 0x131A JUMP JUMPDEST PUSH1 0x40 MLOAD DUP1 SWAP2 SUB SWAP1 REVERT JUMPDEST PUSH2 0xAB7 PUSH1 0x3 PUSH1 0x0 SWAP1 SLOAD SWAP1 PUSH2 0x100 EXP SWAP1 DIV PUSH20 0xFFFFFFFFFFFFFFFFFFFFFFFFFFFFFFFFFFFFFFFF AND CALLER ADDRESS DUP5 PUSH2 0xDA4 JUMP JUMPDEST PUSH1 0x0 PUSH5 0x2540BE400 PUSH2 0xAC7 PUSH2 0x987 JUMP JUMPDEST PUSH2 0xAD1 SWAP2 SWAP1 PUSH2 0x1563 JUMP JUMPDEST SWAP1 POP PUSH1 0x4 PUSH1 0x0 SWAP1 SLOAD SWAP1 PUSH2 0x100 EXP SWAP1 DIV PUSH20 0xFFFFFFFFFFFFFFFFFFFFFFFFFFFFFFFFFFFFFFFF AND PUSH20 0xFFFFFFFFFFFFFFFFFFFFFFFFFFFFFFFFFFFFFFFF AND PUSH4 0xA9059CBB CALLER DUP4 PUSH1 0x40 MLOAD DUP4 PUSH4 0xFFFFFFFF AND PUSH1 0xE0 SHL DUP2 MSTORE PUSH1 0x4 ADD PUSH2 0xB30 SWAP3 SWAP2 SWAP1 PUSH2 0x123B JUMP JUMPDEST PUSH1 0x20 PUSH1 0x40 MLOAD DUP1 DUP4 SUB DUP2 PUSH1 0x0 DUP8 DUP1 EXTCODESIZE ISZERO DUP1 ISZERO PUSH2 0xB4A JUMPI PUSH1 0x0 DUP1 REVERT JUMPDEST POP GAS CALL ISZERO DUP1 ISZERO PUSH2 0xB5E JUMPI RETURNDATASIZE PUSH1 0x0 DUP1 RETURNDATACOPY RETURNDATASIZE PUSH1 0x0 REVERT JUMPDEST POP POP POP POP PUSH1 0x40 MLOAD RETURNDATASIZE PUSH1 0x1F NOT PUSH1 0x1F DUP3 ADD AND DUP3 ADD DUP1 PUSH1 0x40 MSTORE POP DUP2 ADD SWAP1 PUSH2 0xB82 SWAP2 SWAP1 PUSH2 0xF3E JUMP JUMPDEST POP POP POP JUMP JUMPDEST PUSH1 0x2 SLOAD DUP2 JUMP JUMPDEST PUSH2 0xB95 PUSH2 0xCD8 JUMP JUMPDEST PUSH20 0xFFFFFFFFFFFFFFFFFFFFFFFFFFFFFFFFFFFFFFFF AND PUSH2 0xBB3 PUSH2 0x95E JUMP JUMPDEST PUSH20 0xFFFFFFFFFFFFFFFFFFFFFFFFFFFFFFFFFFFFFFFF AND EQ PUSH2 0xC09 JUMPI PUSH1 0x40 MLOAD PUSH32 0x8C379A000000000000000000000000000000000000000000000000000000000 DUP2 MSTORE PUSH1 0x4 ADD PUSH2 0xC00 SWAP1 PUSH2 0x135A JUMP JUMPDEST PUSH1 0x40 MLOAD DUP1 SWAP2 SUB SWAP1 REVERT JUMPDEST PUSH1 0x0 PUSH20 0xFFFFFFFFFFFFFFFFFFFFFFFFFFFFFFFFFFFFFFFF AND DUP2 PUSH20 0xFFFFFFFFFFFFFFFFFFFFFFFFFFFFFFFFFFFFFFFF AND EQ ISZERO PUSH2 0xC79 JUMPI PUSH1 0x40 MLOAD PUSH32 0x8C379A000000000000000000000000000000000000000000000000000000000 DUP2 MSTORE PUSH1 0x4 ADD PUSH2 0xC70 SWAP1 PUSH2 0x129A JUMP JUMPDEST PUSH1 0x40 MLOAD DUP1 SWAP2 SUB SWAP1 REVERT JUMPDEST PUSH2 0xC82 DUP2 PUSH2 0xCE0 JUMP JUMPDEST POP JUMP JUMPDEST PUSH1 0x0 PUSH32 0xFFFFFFFFFFFFFFFFFFFFFFFFFFFFFFFFFFFFFFFFFFFFFFFFFFFFFFFFFFFFFFFF DUP3 EQ ISZERO DUP1 PUSH2 0xCBB JUMPI POP PUSH1 0xFF PUSH1 0x1 SWAP1 SHL DUP4 EQ ISZERO JUMPDEST PUSH2 0xCC4 JUMPI PUSH1 0x0 DUP1 REVERT JUMPDEST DUP2 DUP4 PUSH2 0xCD0 SWAP2 SWAP1 PUSH2 0x13B1 JUMP JUMPDEST SWAP1 POP SWAP3 SWAP2 POP POP JUMP JUMPDEST PUSH1 0x0 CALLER SWAP1 POP SWAP1 JUMP JUMPDEST PUSH1 0x0 DUP1 PUSH1 0x0 SWAP1 SLOAD SWAP1 PUSH2 0x100 EXP SWAP1 DIV PUSH20 0xFFFFFFFFFFFFFFFFFFFFFFFFFFFFFFFFFFFFFFFF AND SWAP1 POP DUP2 PUSH1 0x0 DUP1 PUSH2 0x100 EXP DUP2 SLOAD DUP2 PUSH20 0xFFFFFFFFFFFFFFFFFFFFFFFFFFFFFFFFFFFFFFFF MUL NOT AND SWAP1 DUP4 PUSH20 0xFFFFFFFFFFFFFFFFFFFFFFFFFFFFFFFFFFFFFFFF AND MUL OR SWAP1 SSTORE POP DUP2 PUSH20 0xFFFFFFFFFFFFFFFFFFFFFFFFFFFFFFFFFFFFFFFF AND DUP2 PUSH20 0xFFFFFFFFFFFFFFFFFFFFFFFFFFFFFFFFFFFFFFFF AND PUSH32 0x8BE0079C531659141344CD1FD0A4F28419497F9722A3DAAFE3B4186F6B6457E0 PUSH1 0x40 MLOAD PUSH1 0x40 MLOAD DUP1 SWAP2 SUB SWAP1 LOG3 POP POP JUMP JUMPDEST PUSH1 0x0 DUP5 PUSH20 0xFFFFFFFFFFFFFFFFFFFFFFFFFFFFFFFFFFFFFFFF AND PUSH4 0x23B872DD DUP6 DUP6 DUP6 PUSH1 0x40 MLOAD DUP5 PUSH4 0xFFFFFFFF AND PUSH1 0xE0 SHL DUP2 MSTORE PUSH1 0x4 ADD PUSH2 0xDE3 SWAP4 SWAP3 SWAP2 SWAP1 PUSH2 0x1204 JUMP JUMPDEST PUSH1 0x20 PUSH1 0x40 MLOAD DUP1 DUP4 SUB DUP2 PUSH1 0x0 DUP8 DUP1 EXTCODESIZE ISZERO DUP1 ISZERO PUSH2 0xDFD JUMPI PUSH1 0x0 DUP1 REVERT JUMPDEST POP GAS CALL ISZERO DUP1 ISZERO PUSH2 0xE11 JUMPI RETURNDATASIZE PUSH1 0x0 DUP1 RETURNDATACOPY RETURNDATASIZE PUSH1 0x0 REVERT JUMPDEST POP POP POP POP PUSH1 0x40 MLOAD RETURNDATASIZE PUSH1 0x1F NOT PUSH1 0x1F DUP3 ADD AND DUP3 ADD DUP1 PUSH1 0x40 MSTORE POP DUP2 ADD SWAP1 PUSH2 0xE35 SWAP2 SWAP1 PUSH2 0xF3E JUMP JUMPDEST SWAP1 POP DUP1 PUSH2 0xE77 JUMPI PUSH1 0x40 MLOAD PUSH32 0x8C379A000000000000000000000000000000000000000000000000000000000 DUP2 MSTORE PUSH1 0x4 ADD PUSH2 0xE6E SWAP1 PUSH2 0x12DA JUMP JUMPDEST PUSH1 0x40 MLOAD DUP1 SWAP2 SUB SWAP1 REVERT JUMPDEST POP POP POP POP POP JUMP JUMPDEST PUSH1 0x0 DUP2 CALLDATALOAD SWAP1 POP PUSH2 0xE8D DUP2 PUSH2 0x1806 JUMP JUMPDEST SWAP3 SWAP2 POP POP JUMP JUMPDEST PUSH1 0x0 DUP2 MLOAD SWAP1 POP PUSH2 0xEA2 DUP2 PUSH2 0x181D JUMP JUMPDEST SWAP3 SWAP2 POP POP JUMP JUMPDEST PUSH1 0x0 DUP2 CALLDATALOAD SWAP1 POP PUSH2 0xEB7 DUP2 PUSH2 0x1834 JUMP JUMPDEST SWAP3 SWAP2 POP POP JUMP JUMPDEST PUSH1 0x0 DUP2 MLOAD SWAP1 POP PUSH2 0xECC DUP2 PUSH2 0x1834 JUMP JUMPDEST SWAP3 SWAP2 POP POP JUMP JUMPDEST PUSH1 0x0 DUP2 CALLDATALOAD SWAP1 POP PUSH2 0xEE1 DUP2 PUSH2 0x184B JUMP JUMPDEST SWAP3 SWAP2 POP POP JUMP JUMPDEST PUSH1 0x0 DUP2 MLOAD SWAP1 POP PUSH2 0xEF6 DUP2 PUSH2 0x184B JUMP JUMPDEST SWAP3 SWAP2 POP POP JUMP JUMPDEST PUSH1 0x0 DUP2 MLOAD SWAP1 POP PUSH2 0xF0B DUP2 PUSH2 0x1862 JUMP JUMPDEST SWAP3 SWAP2 POP POP JUMP JUMPDEST PUSH1 0x0 PUSH1 0x20 DUP3 DUP5 SUB SLT ISZERO PUSH2 0xF27 JUMPI PUSH2 0xF26 PUSH2 0x16B9 JUMP JUMPDEST JUMPDEST PUSH1 0x0 PUSH2 0xF35 DUP5 DUP3 DUP6 ADD PUSH2 0xE7E JUMP JUMPDEST SWAP2 POP POP SWAP3 SWAP2 POP POP JUMP JUMPDEST PUSH1 0x0 PUSH1 0x20 DUP3 DUP5 SUB SLT ISZERO PUSH2 0xF54 JUMPI PUSH2 0xF53 PUSH2 0x16B9 JUMP JUMPDEST JUMPDEST PUSH1 0x0 PUSH2 0xF62 DUP5 DUP3 DUP6 ADD PUSH2 0xE93 JUMP JUMPDEST SWAP2 POP POP SWAP3 SWAP2 POP POP JUMP JUMPDEST PUSH1 0x0 DUP1 PUSH1 0x40 DUP4 DUP6 SUB SLT ISZERO PUSH2 0xF82 JUMPI PUSH2 0xF81 PUSH2 0x16B9 JUMP JUMPDEST JUMPDEST PUSH1 0x0 PUSH2 0xF90 DUP6 DUP3 DUP7 ADD PUSH2 0xEA8 JUMP JUMPDEST SWAP3 POP POP PUSH1 0x20 PUSH2 0xFA1 DUP6 DUP3 DUP7 ADD PUSH2 0xEA8 JUMP JUMPDEST SWAP2 POP POP SWAP3 POP SWAP3 SWAP1 POP JUMP JUMPDEST PUSH1 0x0 PUSH1 0x20 DUP3 DUP5 SUB SLT ISZERO PUSH2 0xFC1 JUMPI PUSH2 0xFC0 PUSH2 0x16B9 JUMP JUMPDEST JUMPDEST PUSH1 0x0 PUSH2 0xFCF DUP5 DUP3 DUP6 ADD PUSH2 0xED2 JUMP JUMPDEST SWAP2 POP POP SWAP3 SWAP2 POP POP JUMP JUMPDEST PUSH1 0x0 PUSH1 0x20 DUP3 DUP5 SUB SLT ISZERO PUSH2 0xFEE JUMPI PUSH2 0xFED PUSH2 0x16B9 JUMP JUMPDEST JUMPDEST PUSH1 0x0 PUSH2 0xFFC DUP5 DUP3 DUP6 ADD PUSH2 0xEE7 JUMP JUMPDEST SWAP2 POP POP SWAP3 SWAP2 POP POP JUMP JUMPDEST PUSH1 0x0 DUP1 PUSH1 0x0 DUP1 PUSH1 0x0 PUSH1 0xA0 DUP7 DUP9 SUB SLT ISZERO PUSH2 0x1021 JUMPI PUSH2 0x1020 PUSH2 0x16B9 JUMP JUMPDEST JUMPDEST PUSH1 0x0 PUSH2 0x102F DUP9 DUP3 DUP10 ADD PUSH2 0xEFC JUMP JUMPDEST SWAP6 POP POP PUSH1 0x20 PUSH2 0x1040 DUP9 DUP3 DUP10 ADD PUSH2 0xEBD JUMP JUMPDEST SWAP5 POP POP PUSH1 0x40 PUSH2 0x1051 DUP9 DUP3 DUP10 ADD PUSH2 0xEE7 JUMP JUMPDEST SWAP4 POP POP PUSH1 0x60 PUSH2 0x1062 DUP9 DUP3 DUP10 ADD PUSH2 0xEE7 JUMP JUMPDEST SWAP3 POP POP PUSH1 0x80 PUSH2 0x1073 DUP9 DUP3 DUP10 ADD PUSH2 0xEFC JUMP JUMPDEST SWAP2 POP POP SWAP3 SWAP6 POP SWAP3 SWAP6 SWAP1 SWAP4 POP JUMP JUMPDEST PUSH2 0x1089 DUP2 PUSH2 0x15BD JUMP JUMPDEST DUP3 MSTORE POP POP JUMP JUMPDEST PUSH2 0x1098 DUP2 PUSH2 0x1625 JUMP JUMPDEST DUP3 MSTORE POP POP JUMP JUMPDEST PUSH2 0x10A7 DUP2 PUSH2 0x15DB JUMP JUMPDEST DUP3 MSTORE POP POP JUMP JUMPDEST PUSH1 0x0 PUSH2 0x10BA PUSH1 0x26 DUP4 PUSH2 0x13A0 JUMP JUMPDEST SWAP2 POP PUSH2 0x10C5 DUP3 PUSH2 0x16BE JUMP JUMPDEST PUSH1 0x40 DUP3 ADD SWAP1 POP SWAP2 SWAP1 POP JUMP JUMPDEST PUSH1 0x0 PUSH2 0x10DD PUSH1 0x14 DUP4 PUSH2 0x13A0 JUMP JUMPDEST SWAP2 POP PUSH2 0x10E8 DUP3 PUSH2 0x170D JUMP JUMPDEST PUSH1 0x20 DUP3 ADD SWAP1 POP SWAP2 SWAP1 POP JUMP JUMPDEST PUSH1 0x0 PUSH2 0x1100 PUSH1 0x15 DUP4 PUSH2 0x13A0 JUMP JUMPDEST SWAP2 POP PUSH2 0x110B DUP3 PUSH2 0x1736 JUMP JUMPDEST PUSH1 0x20 DUP3 ADD SWAP1 POP SWAP2 SWAP1 POP JUMP JUMPDEST PUSH1 0x0 PUSH2 0x1123 PUSH1 0x1A DUP4 PUSH2 0x13A0 JUMP JUMPDEST SWAP2 POP PUSH2 0x112E DUP3 PUSH2 0x175F JUMP JUMPDEST PUSH1 0x20 DUP3 ADD SWAP1 POP SWAP2 SWAP1 POP JUMP JUMPDEST PUSH1 0x0 PUSH2 0x1146 PUSH1 0x13 DUP4 PUSH2 0x13A0 JUMP JUMPDEST SWAP2 POP PUSH2 0x1151 DUP3 PUSH2 0x1788 JUMP JUMPDEST PUSH1 0x20 DUP3 ADD SWAP1 POP SWAP2 SWAP1 POP JUMP JUMPDEST PUSH1 0x0 PUSH2 0x1169 PUSH1 0x10 DUP4 PUSH2 0x13A0 JUMP JUMPDEST SWAP2 POP PUSH2 0x1174 DUP3 PUSH2 0x17B1 JUMP JUMPDEST PUSH1 0x20 DUP3 ADD SWAP1 POP SWAP2 SWAP1 POP JUMP JUMPDEST PUSH1 0x0 PUSH2 0x118C PUSH1 0x20 DUP4 PUSH2 0x13A0 JUMP JUMPDEST SWAP2 POP PUSH2 0x1197 DUP3 PUSH2 0x17DA JUMP JUMPDEST PUSH1 0x20 DUP3 ADD SWAP1 POP SWAP2 SWAP1 POP JUMP JUMPDEST PUSH1 0x0 PUSH2 0x11AF PUSH1 0x0 DUP4 PUSH2 0x1395 JUMP JUMPDEST SWAP2 POP PUSH2 0x11BA DUP3 PUSH2 0x1803 JUMP JUMPDEST PUSH1 0x0 DUP3 ADD SWAP1 POP SWAP2 SWAP1 POP JUMP JUMPDEST PUSH2 0x11CE DUP2 PUSH2 0x1605 JUMP JUMPDEST DUP3 MSTORE POP POP JUMP JUMPDEST PUSH1 0x0 PUSH2 0x11DF DUP3 PUSH2 0x11A2 JUMP JUMPDEST SWAP2 POP DUP2 SWAP1 POP SWAP2 SWAP1 POP JUMP JUMPDEST PUSH1 0x0 PUSH1 0x20 DUP3 ADD SWAP1 POP PUSH2 0x11FE PUSH1 0x0 DUP4 ADD DUP5 PUSH2 0x1080 JUMP JUMPDEST SWAP3 SWAP2 POP POP JUMP JUMPDEST PUSH1 0x0 PUSH1 0x60 DUP3 ADD SWAP1 POP PUSH2 0x1219 PUSH1 0x0 DUP4 ADD DUP7 PUSH2 0x1080 JUMP JUMPDEST PUSH2 0x1226 PUSH1 0x20 DUP4 ADD DUP6 PUSH2 0x1080 JUMP JUMPDEST PUSH2 0x1233 PUSH1 0x40 DUP4 ADD DUP5 PUSH2 0x11C5 JUMP JUMPDEST SWAP5 SWAP4 POP POP POP POP JUMP JUMPDEST PUSH1 0x0 PUSH1 0x40 DUP3 ADD SWAP1 POP PUSH2 0x1250 PUSH1 0x0 DUP4 ADD DUP6 PUSH2 0x1080 JUMP JUMPDEST PUSH2 0x125D PUSH1 0x20 DUP4 ADD DUP5 PUSH2 0x11C5 JUMP JUMPDEST SWAP4 SWAP3 POP POP POP JUMP JUMPDEST PUSH1 0x0 PUSH1 0x20 DUP3 ADD SWAP1 POP PUSH2 0x1279 PUSH1 0x0 DUP4 ADD DUP5 PUSH2 0x108F JUMP JUMPDEST SWAP3 SWAP2 POP POP JUMP JUMPDEST PUSH1 0x0 PUSH1 0x20 DUP3 ADD SWAP1 POP PUSH2 0x1294 PUSH1 0x0 DUP4 ADD DUP5 PUSH2 0x109E JUMP JUMPDEST SWAP3 SWAP2 POP POP JUMP JUMPDEST PUSH1 0x0 PUSH1 0x20 DUP3 ADD SWAP1 POP DUP2 DUP2 SUB PUSH1 0x0 DUP4 ADD MSTORE PUSH2 0x12B3 DUP2 PUSH2 0x10AD JUMP JUMPDEST SWAP1 POP SWAP2 SWAP1 POP JUMP JUMPDEST PUSH1 0x0 PUSH1 0x20 DUP3 ADD SWAP1 POP DUP2 DUP2 SUB PUSH1 0x0 DUP4 ADD MSTORE PUSH2 0x12D3 DUP2 PUSH2 0x10D0 JUMP JUMPDEST SWAP1 POP SWAP2 SWAP1 POP JUMP JUMPDEST PUSH1 0x0 PUSH1 0x20 DUP3 ADD SWAP1 POP DUP2 DUP2 SUB PUSH1 0x0 DUP4 ADD MSTORE PUSH2 0x12F3 DUP2 PUSH2 0x10F3 JUMP JUMPDEST SWAP1 POP SWAP2 SWAP1 POP JUMP JUMPDEST PUSH1 0x0 PUSH1 0x20 DUP3 ADD SWAP1 POP DUP2 DUP2 SUB PUSH1 0x0 DUP4 ADD MSTORE PUSH2 0x1313 DUP2 PUSH2 0x1116 JUMP JUMPDEST SWAP1 POP SWAP2 SWAP1 POP JUMP JUMPDEST PUSH1 0x0 PUSH1 0x20 DUP3 ADD SWAP1 POP DUP2 DUP2 SUB PUSH1 0x0 DUP4 ADD MSTORE PUSH2 0x1333 DUP2 PUSH2 0x1139 JUMP JUMPDEST SWAP1 POP SWAP2 SWAP1 POP JUMP JUMPDEST PUSH1 0x0 PUSH1 0x20 DUP3 ADD SWAP1 POP DUP2 DUP2 SUB PUSH1 0x0 DUP4 ADD MSTORE PUSH2 0x1353 DUP2 PUSH2 0x115C JUMP JUMPDEST SWAP1 POP SWAP2 SWAP1 POP JUMP JUMPDEST PUSH1 0x0 PUSH1 0x20 DUP3 ADD SWAP1 POP DUP2 DUP2 SUB PUSH1 0x0 DUP4 ADD MSTORE PUSH2 0x1373 DUP2 PUSH2 0x117F JUMP JUMPDEST SWAP1 POP SWAP2 SWAP1 POP JUMP JUMPDEST PUSH1 0x0 PUSH1 0x20 DUP3 ADD SWAP1 POP PUSH2 0x138F PUSH1 0x0 DUP4 ADD DUP5 PUSH2 0x11C5 JUMP JUMPDEST SWAP3 SWAP2 POP POP JUMP JUMPDEST PUSH1 0x0 DUP2 SWAP1 POP SWAP3 SWAP2 POP POP JUMP JUMPDEST PUSH1 0x0 DUP3 DUP3 MSTORE PUSH1 0x20 DUP3 ADD SWAP1 POP SWAP3 SWAP2 POP POP JUMP JUMPDEST PUSH1 0x0 PUSH2 0x13BC DUP3 PUSH2 0x15DB JUMP JUMPDEST SWAP2 POP PUSH2 0x13C7 DUP4 PUSH2 0x15DB JUMP JUMPDEST SWAP3 POP DUP3 PUSH2 0x13D7 JUMPI PUSH2 0x13D6 PUSH2 0x168A JUMP JUMPDEST JUMPDEST PUSH1 0x1 PUSH1 0x0 SUB DUP4 EQ PUSH32 0x8000000000000000000000000000000000000000000000000000000000000000 DUP4 EQ AND ISZERO PUSH2 0x1410 JUMPI PUSH2 0x140F PUSH2 0x165B JUMP JUMPDEST JUMPDEST DUP3 DUP3 SDIV SWAP1 POP SWAP3 SWAP2 POP POP JUMP JUMPDEST PUSH1 0x0 PUSH2 0x1426 DUP3 PUSH2 0x1605 JUMP JUMPDEST SWAP2 POP PUSH2 0x1431 DUP4 PUSH2 0x1605 JUMP JUMPDEST SWAP3 POP DUP3 PUSH2 0x1441 JUMPI PUSH2 0x1440 PUSH2 0x168A JUMP JUMPDEST JUMPDEST DUP3 DUP3 DIV SWAP1 POP SWAP3 SWAP2 POP POP JUMP JUMPDEST PUSH1 0x0 PUSH2 0x1457 DUP3 PUSH2 0x15DB JUMP JUMPDEST SWAP2 POP PUSH2 0x1462 DUP4 PUSH2 0x15DB JUMP JUMPDEST SWAP3 POP DUP3 PUSH32 0x7FFFFFFFFFFFFFFFFFFFFFFFFFFFFFFFFFFFFFFFFFFFFFFFFFFFFFFFFFFFFFFF DIV DUP3 GT PUSH1 0x0 DUP5 SGT PUSH1 0x0 DUP5 SGT AND AND ISZERO PUSH2 0x14A1 JUMPI PUSH2 0x14A0 PUSH2 0x165B JUMP JUMPDEST JUMPDEST DUP2 PUSH32 0x8000000000000000000000000000000000000000000000000000000000000000 SDIV DUP4 SLT PUSH1 0x0 DUP5 SLT PUSH1 0x0 DUP5 SGT AND AND ISZERO PUSH2 0x14DE JUMPI PUSH2 0x14DD PUSH2 0x165B JUMP JUMPDEST JUMPDEST DUP3 PUSH32 0x8000000000000000000000000000000000000000000000000000000000000000 SDIV DUP3 SLT PUSH1 0x0 DUP5 SGT PUSH1 0x0 DUP5 SLT AND AND ISZERO PUSH2 0x151B JUMPI PUSH2 0x151A PUSH2 0x165B JUMP JUMPDEST JUMPDEST DUP3 PUSH32 0x7FFFFFFFFFFFFFFFFFFFFFFFFFFFFFFFFFFFFFFFFFFFFFFFFFFFFFFFFFFFFFFF SDIV DUP3 SLT PUSH1 0x0 DUP5 SLT PUSH1 0x0 DUP5 SLT AND AND ISZERO PUSH2 0x1558 JUMPI PUSH2 0x1557 PUSH2 0x165B JUMP JUMPDEST JUMPDEST DUP3 DUP3 MUL SWAP1 POP SWAP3 SWAP2 POP POP JUMP JUMPDEST PUSH1 0x0 PUSH2 0x156E DUP3 PUSH2 0x1605 JUMP JUMPDEST SWAP2 POP PUSH2 0x1579 DUP4 PUSH2 0x1605 JUMP JUMPDEST SWAP3 POP DUP2 PUSH32 0xFFFFFFFFFFFFFFFFFFFFFFFFFFFFFFFFFFFFFFFFFFFFFFFFFFFFFFFFFFFFFFFF DIV DUP4 GT DUP3 ISZERO ISZERO AND ISZERO PUSH2 0x15B2 JUMPI PUSH2 0x15B1 PUSH2 0x165B JUMP JUMPDEST JUMPDEST DUP3 DUP3 MUL SWAP1 POP SWAP3 SWAP2 POP POP JUMP JUMPDEST PUSH1 0x0 PUSH2 0x15C8 DUP3 PUSH2 0x15E5 JUMP JUMPDEST SWAP1 POP SWAP2 SWAP1 POP JUMP JUMPDEST PUSH1 0x0 DUP2 ISZERO ISZERO SWAP1 POP SWAP2 SWAP1 POP JUMP JUMPDEST PUSH1 0x0 DUP2 SWAP1 POP SWAP2 SWAP1 POP JUMP JUMPDEST PUSH1 0x0 PUSH20 0xFFFFFFFFFFFFFFFFFFFFFFFFFFFFFFFFFFFFFFFF DUP3 AND SWAP1 POP SWAP2 SWAP1 POP JUMP JUMPDEST PUSH1 0x0 DUP2 SWAP1 POP SWAP2 SWAP1 POP JUMP JUMPDEST PUSH1 0x0 PUSH10 0xFFFFFFFFFFFFFFFFFFFF DUP3 AND SWAP1 POP SWAP2 SWAP1 POP JUMP JUMPDEST PUSH1 0x0 PUSH2 0x1630 DUP3 PUSH2 0x1637 JUMP JUMPDEST SWAP1 POP SWAP2 SWAP1 POP JUMP JUMPDEST PUSH1 0x0 PUSH2 0x1642 DUP3 PUSH2 0x1649 JUMP JUMPDEST SWAP1 POP SWAP2 SWAP1 POP JUMP JUMPDEST PUSH1 0x0 PUSH2 0x1654 DUP3 PUSH2 0x15E5 JUMP JUMPDEST SWAP1 POP SWAP2 SWAP1 POP JUMP JUMPDEST PUSH32 0x4E487B7100000000000000000000000000000000000000000000000000000000 PUSH1 0x0 MSTORE PUSH1 0x11 PUSH1 0x4 MSTORE PUSH1 0x24 PUSH1 0x0 REVERT JUMPDEST PUSH32 0x4E487B7100000000000000000000000000000000000000000000000000000000 PUSH1 0x0 MSTORE PUSH1 0x12 PUSH1 0x4 MSTORE PUSH1 0x24 PUSH1 0x0 REVERT JUMPDEST PUSH1 0x0 DUP1 REVERT JUMPDEST PUSH32 0x4F776E61626C653A206E6577206F776E657220697320746865207A65726F2061 PUSH1 0x0 DUP3 ADD MSTORE PUSH32 0x6464726573730000000000000000000000000000000000000000000000000000 PUSH1 0x20 DUP3 ADD MSTORE POP JUMP JUMPDEST PUSH32 0x4661696C656420746F2073656E64204574686572000000000000000000000000 PUSH1 0x0 DUP3 ADD MSTORE POP JUMP JUMPDEST PUSH32 0x546F6B656E207472616E73666572206661696C65640000000000000000000000 PUSH1 0x0 DUP3 ADD MSTORE POP JUMP JUMPDEST PUSH32 0x4D696E696D756D20747261646520616D6F756E74203120626E62000000000000 PUSH1 0x0 DUP3 ADD MSTORE POP JUMP JUMPDEST PUSH32 0x4D757374206265203120626E6220776F72746800000000000000000000000000 PUSH1 0x0 DUP3 ADD MSTORE POP JUMP JUMPDEST PUSH32 0x5472616E73666572206661696C65642100000000000000000000000000000000 PUSH1 0x0 DUP3 ADD MSTORE POP JUMP JUMPDEST PUSH32 0x4F776E61626C653A2063616C6C6572206973206E6F7420746865206F776E6572 PUSH1 0x0 DUP3 ADD MSTORE POP JUMP JUMPDEST POP JUMP JUMPDEST PUSH2 0x180F DUP2 PUSH2 0x15BD JUMP JUMPDEST DUP2 EQ PUSH2 0x181A JUMPI PUSH1 0x0 DUP1 REVERT JUMPDEST POP JUMP JUMPDEST PUSH2 0x1826 DUP2 PUSH2 0x15CF JUMP JUMPDEST DUP2 EQ PUSH2 0x1831 JUMPI PUSH1 0x0 DUP1 REVERT JUMPDEST POP JUMP JUMPDEST PUSH2 0x183D DUP2 PUSH2 0x15DB JUMP JUMPDEST DUP2 EQ PUSH2 0x1848 JUMPI PUSH1 0x0 DUP1 REVERT JUMPDEST POP JUMP JUMPDEST PUSH2 0x1854 DUP2 PUSH2 0x1605 JUMP JUMPDEST DUP2 EQ PUSH2 0x185F JUMPI PUSH1 0x0 DUP1 REVERT JUMPDEST POP JUMP JUMPDEST PUSH2 0x186B DUP2 PUSH2 0x160F JUMP JUMPDEST DUP2 EQ PUSH2 0x1876 JUMPI PUSH1 0x0 DUP1 REVERT JUMPDEST POP JUMP INVALID LOG2 PUSH5 0x6970667358 0x22 SLT KECCAK256 SHL ORIGIN GT 0xC2 SWAP11 LOG0 0xCF 0x4A GASLIMIT 0x28 PUSH32 0x701AD72D203011BEE7B1ADC161015DBD394799E5A764736F6C63430008070033 "
				},
				"gasEstimates": {
					"creation": {
						"codeDepositCost": "1263800",
						"executionCost": "infinite",
						"totalCost": "infinite"
					},
					"external": {
						"BnbToSafuu()": "2517",
						"Safuu()": "2600",
						"USDC()": "2711",
						"buySafuu(uint256)": "infinite",
						"getLatestPrice()": "infinite",
						"owner()": "2544",
						"renounceOwnership()": "30419",
						"sellSafuu(uint256)": "infinite",
						"setFactor(uint256)": "24849",
						"testDiv(int256,int256)": "infinite",
						"transferOwnership(address)": "30833",
						"withdrawToOwner()": "infinite"
					},
					"internal": {
						"_safeTransferFrom(contract IERC20,address,address,uint256)": "infinite"
					}
				},
				"methodIdentifiers": {
					"BnbToSafuu()": "ebc4197c",
					"Safuu()": "8a71c2f4",
					"USDC()": "89a30271",
					"buySafuu(uint256)": "80c31426",
					"getLatestPrice()": "8e15f473",
					"owner()": "8da5cb5b",
					"renounceOwnership()": "715018a6",
					"sellSafuu(uint256)": "ade87ecc",
					"setFactor(uint256)": "817e9d31",
					"testDiv(int256,int256)": "0e42e9a0",
					"transferOwnership(address)": "f2fde38b",
					"withdrawToOwner()": "3cb40e16"
				}
			},
			"userdoc": {
				"kind": "user",
				"methods": {},
				"version": 1
			}
		}
	}
}