{
	"sis.sol": {
		"personalSafuuTrader": {
			"abi": [
				{
					"inputs": [],
					"stateMutability": "nonpayable",
					"type": "constructor"
				},
				{
					"anonymous": false,
					"inputs": [
						{
							"indexed": true,
							"internalType": "address",
							"name": "previousOwner",
							"type": "address"
						},
						{
							"indexed": true,
							"internalType": "address",
							"name": "newOwner",
							"type": "address"
						}
					],
					"name": "OwnershipTransferred",
					"type": "event"
				},
				{
					"inputs": [],
					"name": "BnbToSafuu",
					"outputs": [
						{
							"internalType": "uint256",
							"name": "",
							"type": "uint256"
						}
					],
					"stateMutability": "view",
					"type": "function"
				},
				{
					"inputs": [
						{
							"internalType": "uint256",
							"name": "amttobuy",
							"type": "uint256"
						}
					],
					"name": "buySafuu",
					"outputs": [],
					"stateMutability": "payable",
					"type": "function"
				},
				{
					"inputs": [],
					"name": "owner",
					"outputs": [
						{
							"internalType": "address",
							"name": "",
							"type": "address"
						}
					],
					"stateMutability": "view",
					"type": "function"
				},
				{
					"inputs": [],
					"name": "renounceOwnership",
					"outputs": [],
					"stateMutability": "nonpayable",
					"type": "function"
				},
				{
					"inputs": [],
					"name": "safuu",
					"outputs": [
						{
							"internalType": "contract IERC20",
							"name": "",
							"type": "address"
						}
					],
					"stateMutability": "view",
					"type": "function"
				},
				{
					"inputs": [
						{
							"internalType": "uint256",
							"name": "amttosell",
							"type": "uint256"
						}
					],
					"name": "sellSafuu",
					"outputs": [],
					"stateMutability": "nonpayable",
					"type": "function"
				},
				{
					"inputs": [
						{
							"internalType": "uint256",
							"name": "_newfactor",
							"type": "uint256"
						}
					],
					"name": "setFactor",
					"outputs": [],
					"stateMutability": "nonpayable",
					"type": "function"
				},
				{
					"inputs": [
						{
							"internalType": "address",
							"name": "newOwner",
							"type": "address"
						}
					],
					"name": "transferOwnership",
					"outputs": [],
					"stateMutability": "nonpayable",
					"type": "function"
				},
				{
					"inputs": [],
					"name": "withdrawToOwner",
					"outputs": [],
					"stateMutability": "nonpayable",
					"type": "function"
				}
			],
			"devdoc": {
				"kind": "dev",
				"methods": {
					"owner()": {
						"details": "Returns the address of the current owner."
					},
					"renounceOwnership()": {
						"details": "Leaves the contract without owner. It will not be possible to call `onlyOwner` functions anymore. Can only be called by the current owner. NOTE: Renouncing ownership will leave the contract without an owner, thereby removing any functionality that is only available to the owner."
					},
					"transferOwnership(address)": {
						"details": "Transfers ownership of the contract to a new account (`newOwner`). Can only be called by the current owner."
					}
				},
				"version": 1
			},
			"evm": {
				"assembly": "    /* \"sis.sol\":146:2314  contract personalSafuuTrader is Ownable\r... */\n  mstore(0x40, 0x80)\n    /* \"sis.sol\":398:665  constructor () {\r... */\n  callvalue\n  dup1\n  iszero\n  tag_1\n  jumpi\n  0x00\n  dup1\n  revert\ntag_1:\n  pop\n    /* \"Ownable.sol\":914:946  _transferOwnership(_msgSender()) */\n  tag_5\n    /* \"Ownable.sol\":933:945  _msgSender() */\n  tag_6\n    /* \"Ownable.sol\":933:943  _msgSender */\n  shl(0x20, tag_7)\n    /* \"Ownable.sol\":933:945  _msgSender() */\n  0x20\n  shr\n  jump\t// in\ntag_6:\n    /* \"Ownable.sol\":914:932  _transferOwnership */\n  shl(0x20, tag_8)\n    /* \"Ownable.sol\":914:946  _transferOwnership(_msgSender()) */\n  0x20\n  shr\n  jump\t// in\ntag_5:\n    /* \"sis.sol\":431:437  100000 */\n  0x0186a0\n    /* \"sis.sol\":418:428  BnbToSafuu */\n  0x02\n    /* \"sis.sol\":418:437  BnbToSafuu = 100000 */\n  dup2\n  swap1\n  sstore\n  pop\n    /* \"sis.sol\":457:499  0xE5bA47fD94CB645ba4119222e34fB33F59C7CD90 */\n  0xe5ba47fd94cb645ba4119222e34fb33f59c7cd90\n    /* \"sis.sol\":442:447  safuu */\n  0x03\n  0x00\n    /* \"sis.sol\":442:500  safuu = IERC20(0xE5bA47fD94CB645ba4119222e34fB33F59C7CD90) */\n  0x0100\n  exp\n  dup2\n  sload\n  dup2\n  0xffffffffffffffffffffffffffffffffffffffff\n  mul\n  not\n  and\n  swap1\n  dup4\n  0xffffffffffffffffffffffffffffffffffffffff\n  and\n  mul\n  or\n  swap1\n  sstore\n  pop\n    /* \"sis.sol\":616:658  0x9326BFA02ADD2366b30bacB125260Af641031331 */\n  0x9326bfa02add2366b30bacb125260af641031331\n    /* \"sis.sol\":582:591  priceFeed */\n  0x01\n  0x00\n    /* \"sis.sol\":582:659  priceFeed = AggregatorV3Interface(0x9326BFA02ADD2366b30bacB125260Af641031331) */\n  0x0100\n  exp\n  dup2\n  sload\n  dup2\n  0xffffffffffffffffffffffffffffffffffffffff\n  mul\n  not\n  and\n  swap1\n  dup4\n  0xffffffffffffffffffffffffffffffffffffffff\n  and\n  mul\n  or\n  swap1\n  sstore\n  pop\n    /* \"sis.sol\":146:2314  contract personalSafuuTrader is Ownable\r... */\n  jump(tag_10)\n    /* \"Context.sol\":640:736  function _msgSender() internal view virtual returns (address) {... */\ntag_7:\n    /* \"Context.sol\":693:700  address */\n  0x00\n    /* \"Context.sol\":719:729  msg.sender */\n  caller\n    /* \"Context.sol\":712:729  return msg.sender */\n  swap1\n  pop\n    /* \"Context.sol\":640:736  function _msgSender() internal view virtual returns (address) {... */\n  swap1\n  jump\t// out\n    /* \"Ownable.sol\":2263:2450  function _transferOwnership(address newOwner) internal virtual {... */\ntag_8:\n    /* \"Ownable.sol\":2336:2352  address oldOwner */\n  0x00\n    /* \"Ownable.sol\":2355:2361  _owner */\n  dup1\n  0x00\n  swap1\n  sload\n  swap1\n  0x0100\n  exp\n  swap1\n  div\n  0xffffffffffffffffffffffffffffffffffffffff\n  and\n    /* \"Ownable.sol\":2336:2361  address oldOwner = _owner */\n  swap1\n  pop\n    /* \"Ownable.sol\":2380:2388  newOwner */\n  dup2\n    /* \"Ownable.sol\":2371:2377  _owner */\n  0x00\n  dup1\n    /* \"Ownable.sol\":2371:2388  _owner = newOwner */\n  0x0100\n  exp\n  dup2\n  sload\n  dup2\n  0xffffffffffffffffffffffffffffffffffffffff\n  mul\n  not\n  and\n  swap1\n  dup4\n  0xffffffffffffffffffffffffffffffffffffffff\n  and\n  mul\n  or\n  swap1\n  sstore\n  pop\n    /* \"Ownable.sol\":2434:2442  newOwner */\n  dup2\n    /* \"Ownable.sol\":2403:2443  OwnershipTransferred(oldOwner, newOwner) */\n  0xffffffffffffffffffffffffffffffffffffffff\n  and\n    /* \"Ownable.sol\":2424:2432  oldOwner */\n  dup2\n    /* \"Ownable.sol\":2403:2443  OwnershipTransferred(oldOwner, newOwner) */\n  0xffffffffffffffffffffffffffffffffffffffff\n  and\n  0x8be0079c531659141344cd1fd0a4f28419497f9722a3daafe3b4186f6b6457e0\n  mload(0x40)\n  mload(0x40)\n  dup1\n  swap2\n  sub\n  swap1\n  log3\n    /* \"Ownable.sol\":2326:2450  {... */\n  pop\n    /* \"Ownable.sol\":2263:2450  function _transferOwnership(address newOwner) internal virtual {... */\n  pop\n  jump\t// out\n    /* \"sis.sol\":146:2314  contract personalSafuuTrader is Ownable\r... */\ntag_10:\n  dataSize(sub_0)\n  dup1\n  dataOffset(sub_0)\n  0x00\n  codecopy\n  0x00\n  return\nstop\n\nsub_0: assembly {\n        /* \"sis.sol\":146:2314  contract personalSafuuTrader is Ownable\r... */\n      mstore(0x40, 0x80)\n      jumpi(tag_1, lt(calldatasize, 0x04))\n      shr(0xe0, calldataload(0x00))\n      dup1\n      0x817e9d31\n      gt\n      tag_11\n      jumpi\n      dup1\n      0x817e9d31\n      eq\n      tag_6\n      jumpi\n      dup1\n      0x8da5cb5b\n      eq\n      tag_7\n      jumpi\n      dup1\n      0xade87ecc\n      eq\n      tag_8\n      jumpi\n      dup1\n      0xebc4197c\n      eq\n      tag_9\n      jumpi\n      dup1\n      0xf2fde38b\n      eq\n      tag_10\n      jumpi\n      jump(tag_1)\n    tag_11:\n      dup1\n      0x23b160ac\n      eq\n      tag_2\n      jumpi\n      dup1\n      0x3cb40e16\n      eq\n      tag_3\n      jumpi\n      dup1\n      0x715018a6\n      eq\n      tag_4\n      jumpi\n      dup1\n      0x80c31426\n      eq\n      tag_5\n      jumpi\n    tag_1:\n      0x00\n      dup1\n      revert\n        /* \"sis.sol\":305:324  IERC20 public safuu */\n    tag_2:\n      callvalue\n      dup1\n      iszero\n      tag_12\n      jumpi\n      0x00\n      dup1\n      revert\n    tag_12:\n      pop\n      tag_13\n      tag_14\n      jump\t// in\n    tag_13:\n      mload(0x40)\n      tag_15\n      swap2\n      swap1\n      tag_16\n      jump\t// in\n    tag_15:\n      mload(0x40)\n      dup1\n      swap2\n      sub\n      swap1\n      return\n        /* \"sis.sol\":1680:2037  function withdrawToOwner()\r... */\n    tag_3:\n      callvalue\n      dup1\n      iszero\n      tag_17\n      jumpi\n      0x00\n      dup1\n      revert\n    tag_17:\n      pop\n      tag_18\n      tag_19\n      jump\t// in\n    tag_18:\n      stop\n        /* \"Ownable.sol\":1661:1762  function renounceOwnership() public virtual onlyOwner {... */\n    tag_4:\n      callvalue\n      dup1\n      iszero\n      tag_20\n      jumpi\n      0x00\n      dup1\n      revert\n    tag_20:\n      pop\n      tag_21\n      tag_22\n      jump\t// in\n    tag_21:\n      stop\n        /* \"sis.sol\":671:1112  function buySafuu(uint256 amttobuy) public payable\r... */\n    tag_5:\n      tag_23\n      0x04\n      dup1\n      calldatasize\n      sub\n      dup2\n      add\n      swap1\n      tag_24\n      swap2\n      swap1\n      tag_25\n      jump\t// in\n    tag_24:\n      tag_26\n      jump\t// in\n    tag_23:\n      stop\n        /* \"sis.sol\":1566:1674  function setFactor(uint256 _newfactor) public onlyOwner {\r... */\n    tag_6:\n      callvalue\n      dup1\n      iszero\n      tag_27\n      jumpi\n      0x00\n      dup1\n      revert\n    tag_27:\n      pop\n      tag_28\n      0x04\n      dup1\n      calldatasize\n      sub\n      dup2\n      add\n      swap1\n      tag_29\n      swap2\n      swap1\n      tag_25\n      jump\t// in\n    tag_29:\n      tag_30\n      jump\t// in\n    tag_28:\n      stop\n        /* \"Ownable.sol\":1029:1114  function owner() public view virtual returns (address) {... */\n    tag_7:\n      callvalue\n      dup1\n      iszero\n      tag_31\n      jumpi\n      0x00\n      dup1\n      revert\n    tag_31:\n      pop\n      tag_32\n      tag_33\n      jump\t// in\n    tag_32:\n      mload(0x40)\n      tag_34\n      swap2\n      swap1\n      tag_35\n      jump\t// in\n    tag_34:\n      mload(0x40)\n      dup1\n      swap2\n      sub\n      swap1\n      return\n        /* \"sis.sol\":1120:1556  function sellSafuu(uint256 amttosell) public \r... */\n    tag_8:\n      callvalue\n      dup1\n      iszero\n      tag_36\n      jumpi\n      0x00\n      dup1\n      revert\n    tag_36:\n      pop\n      tag_37\n      0x04\n      dup1\n      calldatasize\n      sub\n      dup2\n      add\n      swap1\n      tag_38\n      swap2\n      swap1\n      tag_25\n      jump\t// in\n    tag_38:\n      tag_39\n      jump\t// in\n    tag_37:\n      stop\n        /* \"sis.sol\":271:297  uint256  public BnbToSafuu */\n    tag_9:\n      callvalue\n      dup1\n      iszero\n      tag_40\n      jumpi\n      0x00\n      dup1\n      revert\n    tag_40:\n      pop\n      tag_41\n      tag_42\n      jump\t// in\n    tag_41:\n      mload(0x40)\n      tag_43\n      swap2\n      swap1\n      tag_44\n      jump\t// in\n    tag_43:\n      mload(0x40)\n      dup1\n      swap2\n      sub\n      swap1\n      return\n        /* \"Ownable.sol\":1911:2109  function transferOwnership(address newOwner) public virtual onlyOwner {... */\n    tag_10:\n      callvalue\n      dup1\n      iszero\n      tag_45\n      jumpi\n      0x00\n      dup1\n      revert\n    tag_45:\n      pop\n      tag_46\n      0x04\n      dup1\n      calldatasize\n      sub\n      dup2\n      add\n      swap1\n      tag_47\n      swap2\n      swap1\n      tag_48\n      jump\t// in\n    tag_47:\n      tag_49\n      jump\t// in\n    tag_46:\n      stop\n        /* \"sis.sol\":305:324  IERC20 public safuu */\n    tag_14:\n      0x03\n      0x00\n      swap1\n      sload\n      swap1\n      0x0100\n      exp\n      swap1\n      div\n      0xffffffffffffffffffffffffffffffffffffffff\n      and\n      dup2\n      jump\t// out\n        /* \"sis.sol\":1680:2037  function withdrawToOwner()\r... */\n    tag_19:\n        /* \"sis.sol\":1848:1860  bool success */\n      0x00\n        /* \"sis.sol\":1866:1873  owner() */\n      tag_51\n        /* \"sis.sol\":1866:1871  owner */\n      tag_33\n        /* \"sis.sol\":1866:1873  owner() */\n      jump\t// in\n    tag_51:\n        /* \"sis.sol\":1866:1878  owner().call */\n      0xffffffffffffffffffffffffffffffffffffffff\n      and\n        /* \"sis.sol\":1886:1907  address(this).balance */\n      selfbalance\n        /* \"sis.sol\":1866:1912  owner().call{value: address(this).balance}(\"\") */\n      mload(0x40)\n      tag_52\n      swap1\n      tag_53\n      jump\t// in\n    tag_52:\n      0x00\n      mload(0x40)\n      dup1\n      dup4\n      sub\n      dup2\n      dup6\n      dup8\n      gas\n      call\n      swap3\n      pop\n      pop\n      pop\n      returndatasize\n      dup1\n      0x00\n      dup2\n      eq\n      tag_56\n      jumpi\n      mload(0x40)\n      swap2\n      pop\n      and(add(returndatasize, 0x3f), not(0x1f))\n      dup3\n      add\n      0x40\n      mstore\n      returndatasize\n      dup3\n      mstore\n      returndatasize\n      0x00\n      0x20\n      dup5\n      add\n      returndatacopy\n      jump(tag_55)\n    tag_56:\n      0x60\n      swap2\n      pop\n    tag_55:\n      pop\n        /* \"sis.sol\":1847:1912  (bool success, ) = owner().call{value: address(this).balance}(\"\") */\n      pop\n      swap1\n      pop\n        /* \"sis.sol\":1931:1938  success */\n      dup1\n        /* \"sis.sol\":1923:1963  require(success, \"Failed to send Ether\") */\n      tag_57\n      jumpi\n      mload(0x40)\n      0x08c379a000000000000000000000000000000000000000000000000000000000\n      dup2\n      mstore\n      0x04\n      add\n      tag_58\n      swap1\n      tag_59\n      jump\t// in\n    tag_58:\n      mload(0x40)\n      dup1\n      swap2\n      sub\n      swap1\n      revert\n    tag_57:\n        /* \"sis.sol\":1974:1979  safuu */\n      0x03\n      0x00\n      swap1\n      sload\n      swap1\n      0x0100\n      exp\n      swap1\n      div\n      0xffffffffffffffffffffffffffffffffffffffff\n      and\n        /* \"sis.sol\":1974:1988  safuu.transfer */\n      0xffffffffffffffffffffffffffffffffffffffff\n      and\n      0xa9059cbb\n        /* \"sis.sol\":1989:1996  owner() */\n      tag_60\n        /* \"sis.sol\":1989:1994  owner */\n      tag_33\n        /* \"sis.sol\":1989:1996  owner() */\n      jump\t// in\n    tag_60:\n        /* \"sis.sol\":1998:2003  safuu */\n      0x03\n      0x00\n      swap1\n      sload\n      swap1\n      0x0100\n      exp\n      swap1\n      div\n      0xffffffffffffffffffffffffffffffffffffffff\n      and\n        /* \"sis.sol\":1998:2013  safuu.balanceOf */\n      0xffffffffffffffffffffffffffffffffffffffff\n      and\n      0x70a08231\n        /* \"sis.sol\":2022:2026  this */\n      address\n        /* \"sis.sol\":1998:2028  safuu.balanceOf(address(this)) */\n      mload(0x40)\n      dup3\n      0xffffffff\n      and\n      0xe0\n      shl\n      dup2\n      mstore\n      0x04\n      add\n      tag_61\n      swap2\n      swap1\n      tag_35\n      jump\t// in\n    tag_61:\n      0x20\n      mload(0x40)\n      dup1\n      dup4\n      sub\n      dup2\n      dup7\n      dup1\n      extcodesize\n      iszero\n      dup1\n      iszero\n      tag_62\n      jumpi\n      0x00\n      dup1\n      revert\n    tag_62:\n      pop\n      gas\n      staticcall\n      iszero\n      dup1\n      iszero\n      tag_64\n      jumpi\n      returndatasize\n      0x00\n      dup1\n      returndatacopy\n      revert(0x00, returndatasize)\n    tag_64:\n      pop\n      pop\n      pop\n      pop\n      mload(0x40)\n      returndatasize\n      not(0x1f)\n      0x1f\n      dup3\n      add\n      and\n      dup3\n      add\n      dup1\n      0x40\n      mstore\n      pop\n      dup2\n      add\n      swap1\n      tag_65\n      swap2\n      swap1\n      tag_66\n      jump\t// in\n    tag_65:\n        /* \"sis.sol\":1974:2029  safuu.transfer(owner(), safuu.balanceOf(address(this))) */\n      mload(0x40)\n      dup4\n      0xffffffff\n      and\n      0xe0\n      shl\n      dup2\n      mstore\n      0x04\n      add\n      tag_67\n      swap3\n      swap2\n      swap1\n      tag_68\n      jump\t// in\n    tag_67:\n      0x20\n      mload(0x40)\n      dup1\n      dup4\n      sub\n      dup2\n      0x00\n      dup8\n      dup1\n      extcodesize\n      iszero\n      dup1\n      iszero\n      tag_69\n      jumpi\n      0x00\n      dup1\n      revert\n    tag_69:\n      pop\n      gas\n      call\n      iszero\n      dup1\n      iszero\n      tag_71\n      jumpi\n      returndatasize\n      0x00\n      dup1\n      returndatacopy\n      revert(0x00, returndatasize)\n    tag_71:\n      pop\n      pop\n      pop\n      pop\n      mload(0x40)\n      returndatasize\n      not(0x1f)\n      0x1f\n      dup3\n      add\n      and\n      dup3\n      add\n      dup1\n      0x40\n      mstore\n      pop\n      dup2\n      add\n      swap1\n      tag_72\n      swap2\n      swap1\n      tag_73\n      jump\t// in\n    tag_72:\n      pop\n        /* \"sis.sol\":1725:2037  { \r... */\n      pop\n        /* \"sis.sol\":1680:2037  function withdrawToOwner()\r... */\n      jump\t// out\n        /* \"Ownable.sol\":1661:1762  function renounceOwnership() public virtual onlyOwner {... */\n    tag_22:\n        /* \"Ownable.sol\":1252:1264  _msgSender() */\n      tag_75\n        /* \"Ownable.sol\":1252:1262  _msgSender */\n      tag_76\n        /* \"Ownable.sol\":1252:1264  _msgSender() */\n      jump\t// in\n    tag_75:\n        /* \"Ownable.sol\":1241:1264  owner() == _msgSender() */\n      0xffffffffffffffffffffffffffffffffffffffff\n      and\n        /* \"Ownable.sol\":1241:1248  owner() */\n      tag_77\n        /* \"Ownable.sol\":1241:1246  owner */\n      tag_33\n        /* \"Ownable.sol\":1241:1248  owner() */\n      jump\t// in\n    tag_77:\n        /* \"Ownable.sol\":1241:1264  owner() == _msgSender() */\n      0xffffffffffffffffffffffffffffffffffffffff\n      and\n      eq\n        /* \"Ownable.sol\":1233:1301  require(owner() == _msgSender(), \"Ownable: caller is not the owner\") */\n      tag_78\n      jumpi\n      mload(0x40)\n      0x08c379a000000000000000000000000000000000000000000000000000000000\n      dup2\n      mstore\n      0x04\n      add\n      tag_79\n      swap1\n      tag_80\n      jump\t// in\n    tag_79:\n      mload(0x40)\n      dup1\n      swap2\n      sub\n      swap1\n      revert\n    tag_78:\n        /* \"Ownable.sol\":1725:1755  _transferOwnership(address(0)) */\n      tag_82\n        /* \"Ownable.sol\":1752:1753  0 */\n      0x00\n        /* \"Ownable.sol\":1725:1743  _transferOwnership */\n      tag_83\n        /* \"Ownable.sol\":1725:1755  _transferOwnership(address(0)) */\n      jump\t// in\n    tag_82:\n        /* \"Ownable.sol\":1661:1762  function renounceOwnership() public virtual onlyOwner {... */\n      jump\t// out\n        /* \"sis.sol\":671:1112  function buySafuu(uint256 amttobuy) public payable\r... */\n    tag_26:\n        /* \"sis.sol\":758:768  BnbToSafuu */\n      sload(0x02)\n        /* \"sis.sol\":746:754  amttobuy */\n      dup2\n        /* \"sis.sol\":746:768  amttobuy >= BnbToSafuu */\n      lt\n      iszero\n        /* \"sis.sol\":738:799  require(amttobuy >= BnbToSafuu, \"Minimum trade amount 1 bnb\") */\n      tag_85\n      jumpi\n      mload(0x40)\n      0x08c379a000000000000000000000000000000000000000000000000000000000\n      dup2\n      mstore\n      0x04\n      add\n      tag_86\n      swap1\n      tag_87\n      jump\t// in\n    tag_86:\n      mload(0x40)\n      dup1\n      swap2\n      sub\n      swap1\n      revert\n    tag_85:\n        /* \"sis.sol\":810:828  uint256 payableAmt */\n      0x00\n        /* \"sis.sol\":889:895  10**18 */\n      0x0de0b6b3a7640000\n        /* \"sis.sol\":875:885  BnbToSafuu */\n      sload(0x02)\n        /* \"sis.sol\":866:874  amttobuy */\n      dup4\n        /* \"sis.sol\":866:885  amttobuy/BnbToSafuu */\n      tag_88\n      swap2\n      swap1\n      tag_89\n      jump\t// in\n    tag_88:\n        /* \"sis.sol\":865:896  (amttobuy/BnbToSafuu) *(10**18) */\n      tag_90\n      swap2\n      swap1\n      tag_91\n      jump\t// in\n    tag_90:\n        /* \"sis.sol\":852:896  payableAmt = (amttobuy/BnbToSafuu) *(10**18) */\n      swap1\n      pop\n        /* \"sis.sol\":908:920  bool success */\n      0x00\n        /* \"sis.sol\":926:933  owner() */\n      tag_92\n        /* \"sis.sol\":926:931  owner */\n      tag_33\n        /* \"sis.sol\":926:933  owner() */\n      jump\t// in\n    tag_92:\n        /* \"sis.sol\":926:938  owner().call */\n      0xffffffffffffffffffffffffffffffffffffffff\n      and\n        /* \"sis.sol\":946:956  payableAmt */\n      dup3\n        /* \"sis.sol\":926:961  owner().call{value: payableAmt}(\"\") */\n      mload(0x40)\n      tag_93\n      swap1\n      tag_53\n      jump\t// in\n    tag_93:\n      0x00\n      mload(0x40)\n      dup1\n      dup4\n      sub\n      dup2\n      dup6\n      dup8\n      gas\n      call\n      swap3\n      pop\n      pop\n      pop\n      returndatasize\n      dup1\n      0x00\n      dup2\n      eq\n      tag_96\n      jumpi\n      mload(0x40)\n      swap2\n      pop\n      and(add(returndatasize, 0x3f), not(0x1f))\n      dup3\n      add\n      0x40\n      mstore\n      returndatasize\n      dup3\n      mstore\n      returndatasize\n      0x00\n      0x20\n      dup5\n      add\n      returndatacopy\n      jump(tag_95)\n    tag_96:\n      0x60\n      swap2\n      pop\n    tag_95:\n      pop\n        /* \"sis.sol\":907:961  (bool success, ) = owner().call{value: payableAmt}(\"\") */\n      pop\n      swap1\n      pop\n        /* \"sis.sol\":980:987  success */\n      dup1\n        /* \"sis.sol\":972:1008  require(success, \"Transfer failed!\") */\n      tag_97\n      jumpi\n      mload(0x40)\n      0x08c379a000000000000000000000000000000000000000000000000000000000\n      dup2\n      mstore\n      0x04\n      add\n      tag_98\n      swap1\n      tag_99\n      jump\t// in\n    tag_98:\n      mload(0x40)\n      dup1\n      swap2\n      sub\n      swap1\n      revert\n    tag_97:\n        /* \"sis.sol\":1059:1064  safuu */\n      0x03\n      0x00\n      swap1\n      sload\n      swap1\n      0x0100\n      exp\n      swap1\n      div\n      0xffffffffffffffffffffffffffffffffffffffff\n      and\n        /* \"sis.sol\":1059:1073  safuu.transfer */\n      0xffffffffffffffffffffffffffffffffffffffff\n      and\n      0xa9059cbb\n        /* \"sis.sol\":1074:1084  msg.sender */\n      caller\n        /* \"sis.sol\":1086:1094  amttobuy */\n      dup6\n        /* \"sis.sol\":1059:1095  safuu.transfer(msg.sender, amttobuy) */\n      mload(0x40)\n      dup4\n      0xffffffff\n      and\n      0xe0\n      shl\n      dup2\n      mstore\n      0x04\n      add\n      tag_100\n      swap3\n      swap2\n      swap1\n      tag_68\n      jump\t// in\n    tag_100:\n      0x20\n      mload(0x40)\n      dup1\n      dup4\n      sub\n      dup2\n      0x00\n      dup8\n      dup1\n      extcodesize\n      iszero\n      dup1\n      iszero\n      tag_101\n      jumpi\n      0x00\n      dup1\n      revert\n    tag_101:\n      pop\n      gas\n      call\n      iszero\n      dup1\n      iszero\n      tag_103\n      jumpi\n      returndatasize\n      0x00\n      dup1\n      returndatacopy\n      revert(0x00, returndatasize)\n    tag_103:\n      pop\n      pop\n      pop\n      pop\n      mload(0x40)\n      returndatasize\n      not(0x1f)\n      0x1f\n      dup3\n      add\n      and\n      dup3\n      add\n      dup1\n      0x40\n      mstore\n      pop\n      dup2\n      add\n      swap1\n      tag_104\n      swap2\n      swap1\n      tag_73\n      jump\t// in\n    tag_104:\n      pop\n        /* \"sis.sol\":727:1112  {\r... */\n      pop\n      pop\n        /* \"sis.sol\":671:1112  function buySafuu(uint256 amttobuy) public payable\r... */\n      pop\n      jump\t// out\n        /* \"sis.sol\":1566:1674  function setFactor(uint256 _newfactor) public onlyOwner {\r... */\n    tag_30:\n        /* \"Ownable.sol\":1252:1264  _msgSender() */\n      tag_106\n        /* \"Ownable.sol\":1252:1262  _msgSender */\n      tag_76\n        /* \"Ownable.sol\":1252:1264  _msgSender() */\n      jump\t// in\n    tag_106:\n        /* \"Ownable.sol\":1241:1264  owner() == _msgSender() */\n      0xffffffffffffffffffffffffffffffffffffffff\n      and\n        /* \"Ownable.sol\":1241:1248  owner() */\n      tag_107\n        /* \"Ownable.sol\":1241:1246  owner */\n      tag_33\n        /* \"Ownable.sol\":1241:1248  owner() */\n      jump\t// in\n    tag_107:\n        /* \"Ownable.sol\":1241:1264  owner() == _msgSender() */\n      0xffffffffffffffffffffffffffffffffffffffff\n      and\n      eq\n        /* \"Ownable.sol\":1233:1301  require(owner() == _msgSender(), \"Ownable: caller is not the owner\") */\n      tag_108\n      jumpi\n      mload(0x40)\n      0x08c379a000000000000000000000000000000000000000000000000000000000\n      dup2\n      mstore\n      0x04\n      add\n      tag_109\n      swap1\n      tag_80\n      jump\t// in\n    tag_109:\n      mload(0x40)\n      dup1\n      swap2\n      sub\n      swap1\n      revert\n    tag_108:\n        /* \"sis.sol\":1656:1666  _newfactor */\n      dup1\n        /* \"sis.sol\":1643:1653  BnbToSafuu */\n      0x02\n        /* \"sis.sol\":1643:1666  BnbToSafuu = _newfactor */\n      dup2\n      swap1\n      sstore\n      pop\n        /* \"sis.sol\":1566:1674  function setFactor(uint256 _newfactor) public onlyOwner {\r... */\n      pop\n      jump\t// out\n        /* \"Ownable.sol\":1029:1114  function owner() public view virtual returns (address) {... */\n    tag_33:\n        /* \"Ownable.sol\":1075:1082  address */\n      0x00\n        /* \"Ownable.sol\":1101:1107  _owner */\n      dup1\n      0x00\n      swap1\n      sload\n      swap1\n      0x0100\n      exp\n      swap1\n      div\n      0xffffffffffffffffffffffffffffffffffffffff\n      and\n        /* \"Ownable.sol\":1094:1107  return _owner */\n      swap1\n      pop\n        /* \"Ownable.sol\":1029:1114  function owner() public view virtual returns (address) {... */\n      swap1\n      jump\t// out\n        /* \"sis.sol\":1120:1556  function sellSafuu(uint256 amttosell) public \r... */\n    tag_39:\n        /* \"sis.sol\":1203:1213  BnbToSafuu */\n      sload(0x02)\n        /* \"sis.sol\":1190:1199  amttosell */\n      dup2\n        /* \"sis.sol\":1190:1213  amttosell >= BnbToSafuu */\n      lt\n      iszero\n        /* \"sis.sol\":1182:1244  require(amttosell >= BnbToSafuu, \"Minimum trade amount 1 bnb\") */\n      tag_113\n      jumpi\n      mload(0x40)\n      0x08c379a000000000000000000000000000000000000000000000000000000000\n      dup2\n      mstore\n      0x04\n      add\n      tag_114\n      swap1\n      tag_87\n      jump\t// in\n    tag_114:\n      mload(0x40)\n      dup1\n      swap2\n      sub\n      swap1\n      revert\n    tag_113:\n        /* \"sis.sol\":1251:1313  _safeTransferFrom(safuu, msg.sender, address(this), amttosell) */\n      tag_115\n        /* \"sis.sol\":1269:1274  safuu */\n      0x03\n      0x00\n      swap1\n      sload\n      swap1\n      0x0100\n      exp\n      swap1\n      div\n      0xffffffffffffffffffffffffffffffffffffffff\n      and\n        /* \"sis.sol\":1276:1286  msg.sender */\n      caller\n        /* \"sis.sol\":1296:1300  this */\n      address\n        /* \"sis.sol\":1303:1312  amttosell */\n      dup5\n        /* \"sis.sol\":1251:1268  _safeTransferFrom */\n      tag_116\n        /* \"sis.sol\":1251:1313  _safeTransferFrom(safuu, msg.sender, address(this), amttosell) */\n      jump\t// in\n    tag_115:\n        /* \"sis.sol\":1348:1366  uint256 payableBNB */\n      0x00\n        /* \"sis.sol\":1424:1430  10**18 */\n      0x0de0b6b3a7640000\n        /* \"sis.sol\":1410:1420  BnbToSafuu */\n      sload(0x02)\n        /* \"sis.sol\":1400:1409  amttosell */\n      dup4\n        /* \"sis.sol\":1400:1420  amttosell/BnbToSafuu */\n      tag_117\n      swap2\n      swap1\n      tag_89\n      jump\t// in\n    tag_117:\n        /* \"sis.sol\":1399:1431  (amttosell/BnbToSafuu) *(10**18) */\n      tag_118\n      swap2\n      swap1\n      tag_91\n      jump\t// in\n    tag_118:\n        /* \"sis.sol\":1386:1431  payableBNB = (amttosell/BnbToSafuu) *(10**18) */\n      swap1\n      pop\n        /* \"sis.sol\":1439:1451  bool success */\n      0x00\n        /* \"sis.sol\":1457:1467  msg.sender */\n      caller\n        /* \"sis.sol\":1457:1472  msg.sender.call */\n      0xffffffffffffffffffffffffffffffffffffffff\n      and\n        /* \"sis.sol\":1480:1490  payableBNB */\n      dup3\n        /* \"sis.sol\":1457:1495  msg.sender.call{value: payableBNB}(\"\") */\n      mload(0x40)\n      tag_119\n      swap1\n      tag_53\n      jump\t// in\n    tag_119:\n      0x00\n      mload(0x40)\n      dup1\n      dup4\n      sub\n      dup2\n      dup6\n      dup8\n      gas\n      call\n      swap3\n      pop\n      pop\n      pop\n      returndatasize\n      dup1\n      0x00\n      dup2\n      eq\n      tag_122\n      jumpi\n      mload(0x40)\n      swap2\n      pop\n      and(add(returndatasize, 0x3f), not(0x1f))\n      dup3\n      add\n      0x40\n      mstore\n      returndatasize\n      dup3\n      mstore\n      returndatasize\n      0x00\n      0x20\n      dup5\n      add\n      returndatacopy\n      jump(tag_121)\n    tag_122:\n      0x60\n      swap2\n      pop\n    tag_121:\n      pop\n        /* \"sis.sol\":1438:1495  (bool success, ) = msg.sender.call{value: payableBNB}(\"\") */\n      pop\n      swap1\n      pop\n        /* \"sis.sol\":1514:1521  success */\n      dup1\n        /* \"sis.sol\":1506:1542  require(success, \"Transfer failed!\") */\n      tag_123\n      jumpi\n      mload(0x40)\n      0x08c379a000000000000000000000000000000000000000000000000000000000\n      dup2\n      mstore\n      0x04\n      add\n      tag_124\n      swap1\n      tag_99\n      jump\t// in\n    tag_124:\n      mload(0x40)\n      dup1\n      swap2\n      sub\n      swap1\n      revert\n    tag_123:\n        /* \"sis.sol\":1171:1556  {\r... */\n      pop\n      pop\n        /* \"sis.sol\":1120:1556  function sellSafuu(uint256 amttosell) public \r... */\n      pop\n      jump\t// out\n        /* \"sis.sol\":271:297  uint256  public BnbToSafuu */\n    tag_42:\n      sload(0x02)\n      dup2\n      jump\t// out\n        /* \"Ownable.sol\":1911:2109  function transferOwnership(address newOwner) public virtual onlyOwner {... */\n    tag_49:\n        /* \"Ownable.sol\":1252:1264  _msgSender() */\n      tag_126\n        /* \"Ownable.sol\":1252:1262  _msgSender */\n      tag_76\n        /* \"Ownable.sol\":1252:1264  _msgSender() */\n      jump\t// in\n    tag_126:\n        /* \"Ownable.sol\":1241:1264  owner() == _msgSender() */\n      0xffffffffffffffffffffffffffffffffffffffff\n      and\n        /* \"Ownable.sol\":1241:1248  owner() */\n      tag_127\n        /* \"Ownable.sol\":1241:1246  owner */\n      tag_33\n        /* \"Ownable.sol\":1241:1248  owner() */\n      jump\t// in\n    tag_127:\n        /* \"Ownable.sol\":1241:1264  owner() == _msgSender() */\n      0xffffffffffffffffffffffffffffffffffffffff\n      and\n      eq\n        /* \"Ownable.sol\":1233:1301  require(owner() == _msgSender(), \"Ownable: caller is not the owner\") */\n      tag_128\n      jumpi\n      mload(0x40)\n      0x08c379a000000000000000000000000000000000000000000000000000000000\n      dup2\n      mstore\n      0x04\n      add\n      tag_129\n      swap1\n      tag_80\n      jump\t// in\n    tag_129:\n      mload(0x40)\n      dup1\n      swap2\n      sub\n      swap1\n      revert\n    tag_128:\n        /* \"Ownable.sol\":2019:2020  0 */\n      0x00\n        /* \"Ownable.sol\":1999:2021  newOwner != address(0) */\n      0xffffffffffffffffffffffffffffffffffffffff\n      and\n        /* \"Ownable.sol\":1999:2007  newOwner */\n      dup2\n        /* \"Ownable.sol\":1999:2021  newOwner != address(0) */\n      0xffffffffffffffffffffffffffffffffffffffff\n      and\n      eq\n      iszero\n        /* \"Ownable.sol\":1991:2064  require(newOwner != address(0), \"Ownable: new owner is the zero address\") */\n      tag_131\n      jumpi\n      mload(0x40)\n      0x08c379a000000000000000000000000000000000000000000000000000000000\n      dup2\n      mstore\n      0x04\n      add\n      tag_132\n      swap1\n      tag_133\n      jump\t// in\n    tag_132:\n      mload(0x40)\n      dup1\n      swap2\n      sub\n      swap1\n      revert\n    tag_131:\n        /* \"Ownable.sol\":2074:2102  _transferOwnership(newOwner) */\n      tag_134\n        /* \"Ownable.sol\":2093:2101  newOwner */\n      dup2\n        /* \"Ownable.sol\":2074:2092  _transferOwnership */\n      tag_83\n        /* \"Ownable.sol\":2074:2102  _transferOwnership(newOwner) */\n      jump\t// in\n    tag_134:\n        /* \"Ownable.sol\":1911:2109  function transferOwnership(address newOwner) public virtual onlyOwner {... */\n      pop\n      jump\t// out\n        /* \"Context.sol\":640:736  function _msgSender() internal view virtual returns (address) {... */\n    tag_76:\n        /* \"Context.sol\":693:700  address */\n      0x00\n        /* \"Context.sol\":719:729  msg.sender */\n      caller\n        /* \"Context.sol\":712:729  return msg.sender */\n      swap1\n      pop\n        /* \"Context.sol\":640:736  function _msgSender() internal view virtual returns (address) {... */\n      swap1\n      jump\t// out\n        /* \"Ownable.sol\":2263:2450  function _transferOwnership(address newOwner) internal virtual {... */\n    tag_83:\n        /* \"Ownable.sol\":2336:2352  address oldOwner */\n      0x00\n        /* \"Ownable.sol\":2355:2361  _owner */\n      dup1\n      0x00\n      swap1\n      sload\n      swap1\n      0x0100\n      exp\n      swap1\n      div\n      0xffffffffffffffffffffffffffffffffffffffff\n      and\n        /* \"Ownable.sol\":2336:2361  address oldOwner = _owner */\n      swap1\n      pop\n        /* \"Ownable.sol\":2380:2388  newOwner */\n      dup2\n        /* \"Ownable.sol\":2371:2377  _owner */\n      0x00\n      dup1\n        /* \"Ownable.sol\":2371:2388  _owner = newOwner */\n      0x0100\n      exp\n      dup2\n      sload\n      dup2\n      0xffffffffffffffffffffffffffffffffffffffff\n      mul\n      not\n      and\n      swap1\n      dup4\n      0xffffffffffffffffffffffffffffffffffffffff\n      and\n      mul\n      or\n      swap1\n      sstore\n      pop\n        /* \"Ownable.sol\":2434:2442  newOwner */\n      dup2\n        /* \"Ownable.sol\":2403:2443  OwnershipTransferred(oldOwner, newOwner) */\n      0xffffffffffffffffffffffffffffffffffffffff\n      and\n        /* \"Ownable.sol\":2424:2432  oldOwner */\n      dup2\n        /* \"Ownable.sol\":2403:2443  OwnershipTransferred(oldOwner, newOwner) */\n      0xffffffffffffffffffffffffffffffffffffffff\n      and\n      0x8be0079c531659141344cd1fd0a4f28419497f9722a3daafe3b4186f6b6457e0\n      mload(0x40)\n      mload(0x40)\n      dup1\n      swap2\n      sub\n      swap1\n      log3\n        /* \"Ownable.sol\":2326:2450  {... */\n      pop\n        /* \"Ownable.sol\":2263:2450  function _transferOwnership(address newOwner) internal virtual {... */\n      pop\n      jump\t// out\n        /* \"sis.sol\":2043:2311  function _safeTransferFrom(\r... */\n    tag_116:\n        /* \"sis.sol\":2197:2206  bool sent */\n      0x00\n        /* \"sis.sol\":2209:2214  token */\n      dup5\n        /* \"sis.sol\":2209:2227  token.transferFrom */\n      0xffffffffffffffffffffffffffffffffffffffff\n      and\n      0x23b872dd\n        /* \"sis.sol\":2228:2234  sender */\n      dup6\n        /* \"sis.sol\":2236:2245  recipient */\n      dup6\n        /* \"sis.sol\":2247:2253  amount */\n      dup6\n        /* \"sis.sol\":2209:2254  token.transferFrom(sender, recipient, amount) */\n      mload(0x40)\n      dup5\n      0xffffffff\n      and\n      0xe0\n      shl\n      dup2\n      mstore\n      0x04\n      add\n      tag_138\n      swap4\n      swap3\n      swap2\n      swap1\n      tag_139\n      jump\t// in\n    tag_138:\n      0x20\n      mload(0x40)\n      dup1\n      dup4\n      sub\n      dup2\n      0x00\n      dup8\n      dup1\n      extcodesize\n      iszero\n      dup1\n      iszero\n      tag_140\n      jumpi\n      0x00\n      dup1\n      revert\n    tag_140:\n      pop\n      gas\n      call\n      iszero\n      dup1\n      iszero\n      tag_142\n      jumpi\n      returndatasize\n      0x00\n      dup1\n      returndatacopy\n      revert(0x00, returndatasize)\n    tag_142:\n      pop\n      pop\n      pop\n      pop\n      mload(0x40)\n      returndatasize\n      not(0x1f)\n      0x1f\n      dup3\n      add\n      and\n      dup3\n      add\n      dup1\n      0x40\n      mstore\n      pop\n      dup2\n      add\n      swap1\n      tag_143\n      swap2\n      swap1\n      tag_73\n      jump\t// in\n    tag_143:\n        /* \"sis.sol\":2197:2254  bool sent = token.transferFrom(sender, recipient, amount) */\n      swap1\n      pop\n        /* \"sis.sol\":2273:2277  sent */\n      dup1\n        /* \"sis.sol\":2265:2303  require(sent, \"Token transfer failed\") */\n      tag_144\n      jumpi\n      mload(0x40)\n      0x08c379a000000000000000000000000000000000000000000000000000000000\n      dup2\n      mstore\n      0x04\n      add\n      tag_145\n      swap1\n      tag_146\n      jump\t// in\n    tag_145:\n      mload(0x40)\n      dup1\n      swap2\n      sub\n      swap1\n      revert\n    tag_144:\n        /* \"sis.sol\":2186:2311  {\r... */\n      pop\n        /* \"sis.sol\":2043:2311  function _safeTransferFrom(\r... */\n      pop\n      pop\n      pop\n      pop\n      jump\t// out\n        /* \"#utility.yul\":7:146   */\n    tag_148:\n        /* \"#utility.yul\":53:58   */\n      0x00\n        /* \"#utility.yul\":91:97   */\n      dup2\n        /* \"#utility.yul\":78:98   */\n      calldataload\n        /* \"#utility.yul\":69:98   */\n      swap1\n      pop\n        /* \"#utility.yul\":107:140   */\n      tag_150\n        /* \"#utility.yul\":134:139   */\n      dup2\n        /* \"#utility.yul\":107:140   */\n      tag_151\n      jump\t// in\n    tag_150:\n        /* \"#utility.yul\":7:146   */\n      swap3\n      swap2\n      pop\n      pop\n      jump\t// out\n        /* \"#utility.yul\":152:289   */\n    tag_152:\n        /* \"#utility.yul\":206:211   */\n      0x00\n        /* \"#utility.yul\":237:243   */\n      dup2\n        /* \"#utility.yul\":231:244   */\n      mload\n        /* \"#utility.yul\":222:244   */\n      swap1\n      pop\n        /* \"#utility.yul\":253:283   */\n      tag_154\n        /* \"#utility.yul\":277:282   */\n      dup2\n        /* \"#utility.yul\":253:283   */\n      tag_155\n      jump\t// in\n    tag_154:\n        /* \"#utility.yul\":152:289   */\n      swap3\n      swap2\n      pop\n      pop\n      jump\t// out\n        /* \"#utility.yul\":295:434   */\n    tag_156:\n        /* \"#utility.yul\":341:346   */\n      0x00\n        /* \"#utility.yul\":379:385   */\n      dup2\n        /* \"#utility.yul\":366:386   */\n      calldataload\n        /* \"#utility.yul\":357:386   */\n      swap1\n      pop\n        /* \"#utility.yul\":395:428   */\n      tag_158\n        /* \"#utility.yul\":422:427   */\n      dup2\n        /* \"#utility.yul\":395:428   */\n      tag_159\n      jump\t// in\n    tag_158:\n        /* \"#utility.yul\":295:434   */\n      swap3\n      swap2\n      pop\n      pop\n      jump\t// out\n        /* \"#utility.yul\":440:583   */\n    tag_160:\n        /* \"#utility.yul\":497:502   */\n      0x00\n        /* \"#utility.yul\":528:534   */\n      dup2\n        /* \"#utility.yul\":522:535   */\n      mload\n        /* \"#utility.yul\":513:535   */\n      swap1\n      pop\n        /* \"#utility.yul\":544:577   */\n      tag_162\n        /* \"#utility.yul\":571:576   */\n      dup2\n        /* \"#utility.yul\":544:577   */\n      tag_159\n      jump\t// in\n    tag_162:\n        /* \"#utility.yul\":440:583   */\n      swap3\n      swap2\n      pop\n      pop\n      jump\t// out\n        /* \"#utility.yul\":589:918   */\n    tag_48:\n        /* \"#utility.yul\":648:654   */\n      0x00\n        /* \"#utility.yul\":697:699   */\n      0x20\n        /* \"#utility.yul\":685:694   */\n      dup3\n        /* \"#utility.yul\":676:683   */\n      dup5\n        /* \"#utility.yul\":672:695   */\n      sub\n        /* \"#utility.yul\":668:700   */\n      slt\n        /* \"#utility.yul\":665:784   */\n      iszero\n      tag_164\n      jumpi\n        /* \"#utility.yul\":703:782   */\n      tag_165\n      tag_166\n      jump\t// in\n    tag_165:\n        /* \"#utility.yul\":665:784   */\n    tag_164:\n        /* \"#utility.yul\":823:824   */\n      0x00\n        /* \"#utility.yul\":848:901   */\n      tag_167\n        /* \"#utility.yul\":893:900   */\n      dup5\n        /* \"#utility.yul\":884:890   */\n      dup3\n        /* \"#utility.yul\":873:882   */\n      dup6\n        /* \"#utility.yul\":869:891   */\n      add\n        /* \"#utility.yul\":848:901   */\n      tag_148\n      jump\t// in\n    tag_167:\n        /* \"#utility.yul\":838:901   */\n      swap2\n      pop\n        /* \"#utility.yul\":794:911   */\n      pop\n        /* \"#utility.yul\":589:918   */\n      swap3\n      swap2\n      pop\n      pop\n      jump\t// out\n        /* \"#utility.yul\":924:1269   */\n    tag_73:\n        /* \"#utility.yul\":991:997   */\n      0x00\n        /* \"#utility.yul\":1040:1042   */\n      0x20\n        /* \"#utility.yul\":1028:1037   */\n      dup3\n        /* \"#utility.yul\":1019:1026   */\n      dup5\n        /* \"#utility.yul\":1015:1038   */\n      sub\n        /* \"#utility.yul\":1011:1043   */\n      slt\n        /* \"#utility.yul\":1008:1127   */\n      iszero\n      tag_169\n      jumpi\n        /* \"#utility.yul\":1046:1125   */\n      tag_170\n      tag_166\n      jump\t// in\n    tag_170:\n        /* \"#utility.yul\":1008:1127   */\n    tag_169:\n        /* \"#utility.yul\":1166:1167   */\n      0x00\n        /* \"#utility.yul\":1191:1252   */\n      tag_171\n        /* \"#utility.yul\":1244:1251   */\n      dup5\n        /* \"#utility.yul\":1235:1241   */\n      dup3\n        /* \"#utility.yul\":1224:1233   */\n      dup6\n        /* \"#utility.yul\":1220:1242   */\n      add\n        /* \"#utility.yul\":1191:1252   */\n      tag_152\n      jump\t// in\n    tag_171:\n        /* \"#utility.yul\":1181:1252   */\n      swap2\n      pop\n        /* \"#utility.yul\":1137:1262   */\n      pop\n        /* \"#utility.yul\":924:1269   */\n      swap3\n      swap2\n      pop\n      pop\n      jump\t// out\n        /* \"#utility.yul\":1275:1604   */\n    tag_25:\n        /* \"#utility.yul\":1334:1340   */\n      0x00\n        /* \"#utility.yul\":1383:1385   */\n      0x20\n        /* \"#utility.yul\":1371:1380   */\n      dup3\n        /* \"#utility.yul\":1362:1369   */\n      dup5\n        /* \"#utility.yul\":1358:1381   */\n      sub\n        /* \"#utility.yul\":1354:1386   */\n      slt\n        /* \"#utility.yul\":1351:1470   */\n      iszero\n      tag_173\n      jumpi\n        /* \"#utility.yul\":1389:1468   */\n      tag_174\n      tag_166\n      jump\t// in\n    tag_174:\n        /* \"#utility.yul\":1351:1470   */\n    tag_173:\n        /* \"#utility.yul\":1509:1510   */\n      0x00\n        /* \"#utility.yul\":1534:1587   */\n      tag_175\n        /* \"#utility.yul\":1579:1586   */\n      dup5\n        /* \"#utility.yul\":1570:1576   */\n      dup3\n        /* \"#utility.yul\":1559:1568   */\n      dup6\n        /* \"#utility.yul\":1555:1577   */\n      add\n        /* \"#utility.yul\":1534:1587   */\n      tag_156\n      jump\t// in\n    tag_175:\n        /* \"#utility.yul\":1524:1587   */\n      swap2\n      pop\n        /* \"#utility.yul\":1480:1597   */\n      pop\n        /* \"#utility.yul\":1275:1604   */\n      swap3\n      swap2\n      pop\n      pop\n      jump\t// out\n        /* \"#utility.yul\":1610:1961   */\n    tag_66:\n        /* \"#utility.yul\":1680:1686   */\n      0x00\n        /* \"#utility.yul\":1729:1731   */\n      0x20\n        /* \"#utility.yul\":1717:1726   */\n      dup3\n        /* \"#utility.yul\":1708:1715   */\n      dup5\n        /* \"#utility.yul\":1704:1727   */\n      sub\n        /* \"#utility.yul\":1700:1732   */\n      slt\n        /* \"#utility.yul\":1697:1816   */\n      iszero\n      tag_177\n      jumpi\n        /* \"#utility.yul\":1735:1814   */\n      tag_178\n      tag_166\n      jump\t// in\n    tag_178:\n        /* \"#utility.yul\":1697:1816   */\n    tag_177:\n        /* \"#utility.yul\":1855:1856   */\n      0x00\n        /* \"#utility.yul\":1880:1944   */\n      tag_179\n        /* \"#utility.yul\":1936:1943   */\n      dup5\n        /* \"#utility.yul\":1927:1933   */\n      dup3\n        /* \"#utility.yul\":1916:1925   */\n      dup6\n        /* \"#utility.yul\":1912:1934   */\n      add\n        /* \"#utility.yul\":1880:1944   */\n      tag_160\n      jump\t// in\n    tag_179:\n        /* \"#utility.yul\":1870:1944   */\n      swap2\n      pop\n        /* \"#utility.yul\":1826:1954   */\n      pop\n        /* \"#utility.yul\":1610:1961   */\n      swap3\n      swap2\n      pop\n      pop\n      jump\t// out\n        /* \"#utility.yul\":1967:2085   */\n    tag_180:\n        /* \"#utility.yul\":2054:2078   */\n      tag_182\n        /* \"#utility.yul\":2072:2077   */\n      dup2\n        /* \"#utility.yul\":2054:2078   */\n      tag_183\n      jump\t// in\n    tag_182:\n        /* \"#utility.yul\":2049:2052   */\n      dup3\n        /* \"#utility.yul\":2042:2079   */\n      mstore\n        /* \"#utility.yul\":1967:2085   */\n      pop\n      pop\n      jump\t// out\n        /* \"#utility.yul\":2091:2250   */\n    tag_184:\n        /* \"#utility.yul\":2192:2243   */\n      tag_186\n        /* \"#utility.yul\":2237:2242   */\n      dup2\n        /* \"#utility.yul\":2192:2243   */\n      tag_187\n      jump\t// in\n    tag_186:\n        /* \"#utility.yul\":2187:2190   */\n      dup3\n        /* \"#utility.yul\":2180:2244   */\n      mstore\n        /* \"#utility.yul\":2091:2250   */\n      pop\n      pop\n      jump\t// out\n        /* \"#utility.yul\":2256:2622   */\n    tag_188:\n        /* \"#utility.yul\":2398:2401   */\n      0x00\n        /* \"#utility.yul\":2419:2486   */\n      tag_190\n        /* \"#utility.yul\":2483:2485   */\n      0x26\n        /* \"#utility.yul\":2478:2481   */\n      dup4\n        /* \"#utility.yul\":2419:2486   */\n      tag_191\n      jump\t// in\n    tag_190:\n        /* \"#utility.yul\":2412:2486   */\n      swap2\n      pop\n        /* \"#utility.yul\":2495:2588   */\n      tag_192\n        /* \"#utility.yul\":2584:2587   */\n      dup3\n        /* \"#utility.yul\":2495:2588   */\n      tag_193\n      jump\t// in\n    tag_192:\n        /* \"#utility.yul\":2613:2615   */\n      0x40\n        /* \"#utility.yul\":2608:2611   */\n      dup3\n        /* \"#utility.yul\":2604:2616   */\n      add\n        /* \"#utility.yul\":2597:2616   */\n      swap1\n      pop\n        /* \"#utility.yul\":2256:2622   */\n      swap2\n      swap1\n      pop\n      jump\t// out\n        /* \"#utility.yul\":2628:2994   */\n    tag_194:\n        /* \"#utility.yul\":2770:2773   */\n      0x00\n        /* \"#utility.yul\":2791:2858   */\n      tag_196\n        /* \"#utility.yul\":2855:2857   */\n      0x14\n        /* \"#utility.yul\":2850:2853   */\n      dup4\n        /* \"#utility.yul\":2791:2858   */\n      tag_191\n      jump\t// in\n    tag_196:\n        /* \"#utility.yul\":2784:2858   */\n      swap2\n      pop\n        /* \"#utility.yul\":2867:2960   */\n      tag_197\n        /* \"#utility.yul\":2956:2959   */\n      dup3\n        /* \"#utility.yul\":2867:2960   */\n      tag_198\n      jump\t// in\n    tag_197:\n        /* \"#utility.yul\":2985:2987   */\n      0x20\n        /* \"#utility.yul\":2980:2983   */\n      dup3\n        /* \"#utility.yul\":2976:2988   */\n      add\n        /* \"#utility.yul\":2969:2988   */\n      swap1\n      pop\n        /* \"#utility.yul\":2628:2994   */\n      swap2\n      swap1\n      pop\n      jump\t// out\n        /* \"#utility.yul\":3000:3366   */\n    tag_199:\n        /* \"#utility.yul\":3142:3145   */\n      0x00\n        /* \"#utility.yul\":3163:3230   */\n      tag_201\n        /* \"#utility.yul\":3227:3229   */\n      0x15\n        /* \"#utility.yul\":3222:3225   */\n      dup4\n        /* \"#utility.yul\":3163:3230   */\n      tag_191\n      jump\t// in\n    tag_201:\n        /* \"#utility.yul\":3156:3230   */\n      swap2\n      pop\n        /* \"#utility.yul\":3239:3332   */\n      tag_202\n        /* \"#utility.yul\":3328:3331   */\n      dup3\n        /* \"#utility.yul\":3239:3332   */\n      tag_203\n      jump\t// in\n    tag_202:\n        /* \"#utility.yul\":3357:3359   */\n      0x20\n        /* \"#utility.yul\":3352:3355   */\n      dup3\n        /* \"#utility.yul\":3348:3360   */\n      add\n        /* \"#utility.yul\":3341:3360   */\n      swap1\n      pop\n        /* \"#utility.yul\":3000:3366   */\n      swap2\n      swap1\n      pop\n      jump\t// out\n        /* \"#utility.yul\":3372:3738   */\n    tag_204:\n        /* \"#utility.yul\":3514:3517   */\n      0x00\n        /* \"#utility.yul\":3535:3602   */\n      tag_206\n        /* \"#utility.yul\":3599:3601   */\n      0x1a\n        /* \"#utility.yul\":3594:3597   */\n      dup4\n        /* \"#utility.yul\":3535:3602   */\n      tag_191\n      jump\t// in\n    tag_206:\n        /* \"#utility.yul\":3528:3602   */\n      swap2\n      pop\n        /* \"#utility.yul\":3611:3704   */\n      tag_207\n        /* \"#utility.yul\":3700:3703   */\n      dup3\n        /* \"#utility.yul\":3611:3704   */\n      tag_208\n      jump\t// in\n    tag_207:\n        /* \"#utility.yul\":3729:3731   */\n      0x20\n        /* \"#utility.yul\":3724:3727   */\n      dup3\n        /* \"#utility.yul\":3720:3732   */\n      add\n        /* \"#utility.yul\":3713:3732   */\n      swap1\n      pop\n        /* \"#utility.yul\":3372:3738   */\n      swap2\n      swap1\n      pop\n      jump\t// out\n        /* \"#utility.yul\":3744:4110   */\n    tag_209:\n        /* \"#utility.yul\":3886:3889   */\n      0x00\n        /* \"#utility.yul\":3907:3974   */\n      tag_211\n        /* \"#utility.yul\":3971:3973   */\n      0x10\n        /* \"#utility.yul\":3966:3969   */\n      dup4\n        /* \"#utility.yul\":3907:3974   */\n      tag_191\n      jump\t// in\n    tag_211:\n        /* \"#utility.yul\":3900:3974   */\n      swap2\n      pop\n        /* \"#utility.yul\":3983:4076   */\n      tag_212\n        /* \"#utility.yul\":4072:4075   */\n      dup3\n        /* \"#utility.yul\":3983:4076   */\n      tag_213\n      jump\t// in\n    tag_212:\n        /* \"#utility.yul\":4101:4103   */\n      0x20\n        /* \"#utility.yul\":4096:4099   */\n      dup3\n        /* \"#utility.yul\":4092:4104   */\n      add\n        /* \"#utility.yul\":4085:4104   */\n      swap1\n      pop\n        /* \"#utility.yul\":3744:4110   */\n      swap2\n      swap1\n      pop\n      jump\t// out\n        /* \"#utility.yul\":4116:4482   */\n    tag_214:\n        /* \"#utility.yul\":4258:4261   */\n      0x00\n        /* \"#utility.yul\":4279:4346   */\n      tag_216\n        /* \"#utility.yul\":4343:4345   */\n      0x20\n        /* \"#utility.yul\":4338:4341   */\n      dup4\n        /* \"#utility.yul\":4279:4346   */\n      tag_191\n      jump\t// in\n    tag_216:\n        /* \"#utility.yul\":4272:4346   */\n      swap2\n      pop\n        /* \"#utility.yul\":4355:4448   */\n      tag_217\n        /* \"#utility.yul\":4444:4447   */\n      dup3\n        /* \"#utility.yul\":4355:4448   */\n      tag_218\n      jump\t// in\n    tag_217:\n        /* \"#utility.yul\":4473:4475   */\n      0x20\n        /* \"#utility.yul\":4468:4471   */\n      dup3\n        /* \"#utility.yul\":4464:4476   */\n      add\n        /* \"#utility.yul\":4457:4476   */\n      swap1\n      pop\n        /* \"#utility.yul\":4116:4482   */\n      swap2\n      swap1\n      pop\n      jump\t// out\n        /* \"#utility.yul\":4488:4886   */\n    tag_219:\n        /* \"#utility.yul\":4647:4650   */\n      0x00\n        /* \"#utility.yul\":4668:4751   */\n      tag_221\n        /* \"#utility.yul\":4749:4750   */\n      0x00\n        /* \"#utility.yul\":4744:4747   */\n      dup4\n        /* \"#utility.yul\":4668:4751   */\n      tag_222\n      jump\t// in\n    tag_221:\n        /* \"#utility.yul\":4661:4751   */\n      swap2\n      pop\n        /* \"#utility.yul\":4760:4853   */\n      tag_223\n        /* \"#utility.yul\":4849:4852   */\n      dup3\n        /* \"#utility.yul\":4760:4853   */\n      tag_224\n      jump\t// in\n    tag_223:\n        /* \"#utility.yul\":4878:4879   */\n      0x00\n        /* \"#utility.yul\":4873:4876   */\n      dup3\n        /* \"#utility.yul\":4869:4880   */\n      add\n        /* \"#utility.yul\":4862:4880   */\n      swap1\n      pop\n        /* \"#utility.yul\":4488:4886   */\n      swap2\n      swap1\n      pop\n      jump\t// out\n        /* \"#utility.yul\":4892:5010   */\n    tag_225:\n        /* \"#utility.yul\":4979:5003   */\n      tag_227\n        /* \"#utility.yul\":4997:5002   */\n      dup2\n        /* \"#utility.yul\":4979:5003   */\n      tag_228\n      jump\t// in\n    tag_227:\n        /* \"#utility.yul\":4974:4977   */\n      dup3\n        /* \"#utility.yul\":4967:5004   */\n      mstore\n        /* \"#utility.yul\":4892:5010   */\n      pop\n      pop\n      jump\t// out\n        /* \"#utility.yul\":5016:5395   */\n    tag_53:\n        /* \"#utility.yul\":5200:5203   */\n      0x00\n        /* \"#utility.yul\":5222:5369   */\n      tag_230\n        /* \"#utility.yul\":5365:5368   */\n      dup3\n        /* \"#utility.yul\":5222:5369   */\n      tag_219\n      jump\t// in\n    tag_230:\n        /* \"#utility.yul\":5215:5369   */\n      swap2\n      pop\n        /* \"#utility.yul\":5386:5389   */\n      dup2\n        /* \"#utility.yul\":5379:5389   */\n      swap1\n      pop\n        /* \"#utility.yul\":5016:5395   */\n      swap2\n      swap1\n      pop\n      jump\t// out\n        /* \"#utility.yul\":5401:5623   */\n    tag_35:\n        /* \"#utility.yul\":5494:5498   */\n      0x00\n        /* \"#utility.yul\":5532:5534   */\n      0x20\n        /* \"#utility.yul\":5521:5530   */\n      dup3\n        /* \"#utility.yul\":5517:5535   */\n      add\n        /* \"#utility.yul\":5509:5535   */\n      swap1\n      pop\n        /* \"#utility.yul\":5545:5616   */\n      tag_232\n        /* \"#utility.yul\":5613:5614   */\n      0x00\n        /* \"#utility.yul\":5602:5611   */\n      dup4\n        /* \"#utility.yul\":5598:5615   */\n      add\n        /* \"#utility.yul\":5589:5595   */\n      dup5\n        /* \"#utility.yul\":5545:5616   */\n      tag_180\n      jump\t// in\n    tag_232:\n        /* \"#utility.yul\":5401:5623   */\n      swap3\n      swap2\n      pop\n      pop\n      jump\t// out\n        /* \"#utility.yul\":5629:6071   */\n    tag_139:\n        /* \"#utility.yul\":5778:5782   */\n      0x00\n        /* \"#utility.yul\":5816:5818   */\n      0x60\n        /* \"#utility.yul\":5805:5814   */\n      dup3\n        /* \"#utility.yul\":5801:5819   */\n      add\n        /* \"#utility.yul\":5793:5819   */\n      swap1\n      pop\n        /* \"#utility.yul\":5829:5900   */\n      tag_234\n        /* \"#utility.yul\":5897:5898   */\n      0x00\n        /* \"#utility.yul\":5886:5895   */\n      dup4\n        /* \"#utility.yul\":5882:5899   */\n      add\n        /* \"#utility.yul\":5873:5879   */\n      dup7\n        /* \"#utility.yul\":5829:5900   */\n      tag_180\n      jump\t// in\n    tag_234:\n        /* \"#utility.yul\":5910:5982   */\n      tag_235\n        /* \"#utility.yul\":5978:5980   */\n      0x20\n        /* \"#utility.yul\":5967:5976   */\n      dup4\n        /* \"#utility.yul\":5963:5981   */\n      add\n        /* \"#utility.yul\":5954:5960   */\n      dup6\n        /* \"#utility.yul\":5910:5982   */\n      tag_180\n      jump\t// in\n    tag_235:\n        /* \"#utility.yul\":5992:6064   */\n      tag_236\n        /* \"#utility.yul\":6060:6062   */\n      0x40\n        /* \"#utility.yul\":6049:6058   */\n      dup4\n        /* \"#utility.yul\":6045:6063   */\n      add\n        /* \"#utility.yul\":6036:6042   */\n      dup5\n        /* \"#utility.yul\":5992:6064   */\n      tag_225\n      jump\t// in\n    tag_236:\n        /* \"#utility.yul\":5629:6071   */\n      swap5\n      swap4\n      pop\n      pop\n      pop\n      pop\n      jump\t// out\n        /* \"#utility.yul\":6077:6409   */\n    tag_68:\n        /* \"#utility.yul\":6198:6202   */\n      0x00\n        /* \"#utility.yul\":6236:6238   */\n      0x40\n        /* \"#utility.yul\":6225:6234   */\n      dup3\n        /* \"#utility.yul\":6221:6239   */\n      add\n        /* \"#utility.yul\":6213:6239   */\n      swap1\n      pop\n        /* \"#utility.yul\":6249:6320   */\n      tag_238\n        /* \"#utility.yul\":6317:6318   */\n      0x00\n        /* \"#utility.yul\":6306:6315   */\n      dup4\n        /* \"#utility.yul\":6302:6319   */\n      add\n        /* \"#utility.yul\":6293:6299   */\n      dup6\n        /* \"#utility.yul\":6249:6320   */\n      tag_180\n      jump\t// in\n    tag_238:\n        /* \"#utility.yul\":6330:6402   */\n      tag_239\n        /* \"#utility.yul\":6398:6400   */\n      0x20\n        /* \"#utility.yul\":6387:6396   */\n      dup4\n        /* \"#utility.yul\":6383:6401   */\n      add\n        /* \"#utility.yul\":6374:6380   */\n      dup5\n        /* \"#utility.yul\":6330:6402   */\n      tag_225\n      jump\t// in\n    tag_239:\n        /* \"#utility.yul\":6077:6409   */\n      swap4\n      swap3\n      pop\n      pop\n      pop\n      jump\t// out\n        /* \"#utility.yul\":6415:6665   */\n    tag_16:\n        /* \"#utility.yul\":6522:6526   */\n      0x00\n        /* \"#utility.yul\":6560:6562   */\n      0x20\n        /* \"#utility.yul\":6549:6558   */\n      dup3\n        /* \"#utility.yul\":6545:6563   */\n      add\n        /* \"#utility.yul\":6537:6563   */\n      swap1\n      pop\n        /* \"#utility.yul\":6573:6658   */\n      tag_241\n        /* \"#utility.yul\":6655:6656   */\n      0x00\n        /* \"#utility.yul\":6644:6653   */\n      dup4\n        /* \"#utility.yul\":6640:6657   */\n      add\n        /* \"#utility.yul\":6631:6637   */\n      dup5\n        /* \"#utility.yul\":6573:6658   */\n      tag_184\n      jump\t// in\n    tag_241:\n        /* \"#utility.yul\":6415:6665   */\n      swap3\n      swap2\n      pop\n      pop\n      jump\t// out\n        /* \"#utility.yul\":6671:7090   */\n    tag_133:\n        /* \"#utility.yul\":6837:6841   */\n      0x00\n        /* \"#utility.yul\":6875:6877   */\n      0x20\n        /* \"#utility.yul\":6864:6873   */\n      dup3\n        /* \"#utility.yul\":6860:6878   */\n      add\n        /* \"#utility.yul\":6852:6878   */\n      swap1\n      pop\n        /* \"#utility.yul\":6924:6933   */\n      dup2\n        /* \"#utility.yul\":6918:6922   */\n      dup2\n        /* \"#utility.yul\":6914:6934   */\n      sub\n        /* \"#utility.yul\":6910:6911   */\n      0x00\n        /* \"#utility.yul\":6899:6908   */\n      dup4\n        /* \"#utility.yul\":6895:6912   */\n      add\n        /* \"#utility.yul\":6888:6935   */\n      mstore\n        /* \"#utility.yul\":6952:7083   */\n      tag_243\n        /* \"#utility.yul\":7078:7082   */\n      dup2\n        /* \"#utility.yul\":6952:7083   */\n      tag_188\n      jump\t// in\n    tag_243:\n        /* \"#utility.yul\":6944:7083   */\n      swap1\n      pop\n        /* \"#utility.yul\":6671:7090   */\n      swap2\n      swap1\n      pop\n      jump\t// out\n        /* \"#utility.yul\":7096:7515   */\n    tag_59:\n        /* \"#utility.yul\":7262:7266   */\n      0x00\n        /* \"#utility.yul\":7300:7302   */\n      0x20\n        /* \"#utility.yul\":7289:7298   */\n      dup3\n        /* \"#utility.yul\":7285:7303   */\n      add\n        /* \"#utility.yul\":7277:7303   */\n      swap1\n      pop\n        /* \"#utility.yul\":7349:7358   */\n      dup2\n        /* \"#utility.yul\":7343:7347   */\n      dup2\n        /* \"#utility.yul\":7339:7359   */\n      sub\n        /* \"#utility.yul\":7335:7336   */\n      0x00\n        /* \"#utility.yul\":7324:7333   */\n      dup4\n        /* \"#utility.yul\":7320:7337   */\n      add\n        /* \"#utility.yul\":7313:7360   */\n      mstore\n        /* \"#utility.yul\":7377:7508   */\n      tag_245\n        /* \"#utility.yul\":7503:7507   */\n      dup2\n        /* \"#utility.yul\":7377:7508   */\n      tag_194\n      jump\t// in\n    tag_245:\n        /* \"#utility.yul\":7369:7508   */\n      swap1\n      pop\n        /* \"#utility.yul\":7096:7515   */\n      swap2\n      swap1\n      pop\n      jump\t// out\n        /* \"#utility.yul\":7521:7940   */\n    tag_146:\n        /* \"#utility.yul\":7687:7691   */\n      0x00\n        /* \"#utility.yul\":7725:7727   */\n      0x20\n        /* \"#utility.yul\":7714:7723   */\n      dup3\n        /* \"#utility.yul\":7710:7728   */\n      add\n        /* \"#utility.yul\":7702:7728   */\n      swap1\n      pop\n        /* \"#utility.yul\":7774:7783   */\n      dup2\n        /* \"#utility.yul\":7768:7772   */\n      dup2\n        /* \"#utility.yul\":7764:7784   */\n      sub\n        /* \"#utility.yul\":7760:7761   */\n      0x00\n        /* \"#utility.yul\":7749:7758   */\n      dup4\n        /* \"#utility.yul\":7745:7762   */\n      add\n        /* \"#utility.yul\":7738:7785   */\n      mstore\n        /* \"#utility.yul\":7802:7933   */\n      tag_247\n        /* \"#utility.yul\":7928:7932   */\n      dup2\n        /* \"#utility.yul\":7802:7933   */\n      tag_199\n      jump\t// in\n    tag_247:\n        /* \"#utility.yul\":7794:7933   */\n      swap1\n      pop\n        /* \"#utility.yul\":7521:7940   */\n      swap2\n      swap1\n      pop\n      jump\t// out\n        /* \"#utility.yul\":7946:8365   */\n    tag_87:\n        /* \"#utility.yul\":8112:8116   */\n      0x00\n        /* \"#utility.yul\":8150:8152   */\n      0x20\n        /* \"#utility.yul\":8139:8148   */\n      dup3\n        /* \"#utility.yul\":8135:8153   */\n      add\n        /* \"#utility.yul\":8127:8153   */\n      swap1\n      pop\n        /* \"#utility.yul\":8199:8208   */\n      dup2\n        /* \"#utility.yul\":8193:8197   */\n      dup2\n        /* \"#utility.yul\":8189:8209   */\n      sub\n        /* \"#utility.yul\":8185:8186   */\n      0x00\n        /* \"#utility.yul\":8174:8183   */\n      dup4\n        /* \"#utility.yul\":8170:8187   */\n      add\n        /* \"#utility.yul\":8163:8210   */\n      mstore\n        /* \"#utility.yul\":8227:8358   */\n      tag_249\n        /* \"#utility.yul\":8353:8357   */\n      dup2\n        /* \"#utility.yul\":8227:8358   */\n      tag_204\n      jump\t// in\n    tag_249:\n        /* \"#utility.yul\":8219:8358   */\n      swap1\n      pop\n        /* \"#utility.yul\":7946:8365   */\n      swap2\n      swap1\n      pop\n      jump\t// out\n        /* \"#utility.yul\":8371:8790   */\n    tag_99:\n        /* \"#utility.yul\":8537:8541   */\n      0x00\n        /* \"#utility.yul\":8575:8577   */\n      0x20\n        /* \"#utility.yul\":8564:8573   */\n      dup3\n        /* \"#utility.yul\":8560:8578   */\n      add\n        /* \"#utility.yul\":8552:8578   */\n      swap1\n      pop\n        /* \"#utility.yul\":8624:8633   */\n      dup2\n        /* \"#utility.yul\":8618:8622   */\n      dup2\n        /* \"#utility.yul\":8614:8634   */\n      sub\n        /* \"#utility.yul\":8610:8611   */\n      0x00\n        /* \"#utility.yul\":8599:8608   */\n      dup4\n        /* \"#utility.yul\":8595:8612   */\n      add\n        /* \"#utility.yul\":8588:8635   */\n      mstore\n        /* \"#utility.yul\":8652:8783   */\n      tag_251\n        /* \"#utility.yul\":8778:8782   */\n      dup2\n        /* \"#utility.yul\":8652:8783   */\n      tag_209\n      jump\t// in\n    tag_251:\n        /* \"#utility.yul\":8644:8783   */\n      swap1\n      pop\n        /* \"#utility.yul\":8371:8790   */\n      swap2\n      swap1\n      pop\n      jump\t// out\n        /* \"#utility.yul\":8796:9215   */\n    tag_80:\n        /* \"#utility.yul\":8962:8966   */\n      0x00\n        /* \"#utility.yul\":9000:9002   */\n      0x20\n        /* \"#utility.yul\":8989:8998   */\n      dup3\n        /* \"#utility.yul\":8985:9003   */\n      add\n        /* \"#utility.yul\":8977:9003   */\n      swap1\n      pop\n        /* \"#utility.yul\":9049:9058   */\n      dup2\n        /* \"#utility.yul\":9043:9047   */\n      dup2\n        /* \"#utility.yul\":9039:9059   */\n      sub\n        /* \"#utility.yul\":9035:9036   */\n      0x00\n        /* \"#utility.yul\":9024:9033   */\n      dup4\n        /* \"#utility.yul\":9020:9037   */\n      add\n        /* \"#utility.yul\":9013:9060   */\n      mstore\n        /* \"#utility.yul\":9077:9208   */\n      tag_253\n        /* \"#utility.yul\":9203:9207   */\n      dup2\n        /* \"#utility.yul\":9077:9208   */\n      tag_214\n      jump\t// in\n    tag_253:\n        /* \"#utility.yul\":9069:9208   */\n      swap1\n      pop\n        /* \"#utility.yul\":8796:9215   */\n      swap2\n      swap1\n      pop\n      jump\t// out\n        /* \"#utility.yul\":9221:9443   */\n    tag_44:\n        /* \"#utility.yul\":9314:9318   */\n      0x00\n        /* \"#utility.yul\":9352:9354   */\n      0x20\n        /* \"#utility.yul\":9341:9350   */\n      dup3\n        /* \"#utility.yul\":9337:9355   */\n      add\n        /* \"#utility.yul\":9329:9355   */\n      swap1\n      pop\n        /* \"#utility.yul\":9365:9436   */\n      tag_255\n        /* \"#utility.yul\":9433:9434   */\n      0x00\n        /* \"#utility.yul\":9422:9431   */\n      dup4\n        /* \"#utility.yul\":9418:9435   */\n      add\n        /* \"#utility.yul\":9409:9415   */\n      dup5\n        /* \"#utility.yul\":9365:9436   */\n      tag_225\n      jump\t// in\n    tag_255:\n        /* \"#utility.yul\":9221:9443   */\n      swap3\n      swap2\n      pop\n      pop\n      jump\t// out\n        /* \"#utility.yul\":9530:9677   */\n    tag_222:\n        /* \"#utility.yul\":9631:9642   */\n      0x00\n        /* \"#utility.yul\":9668:9671   */\n      dup2\n        /* \"#utility.yul\":9653:9671   */\n      swap1\n      pop\n        /* \"#utility.yul\":9530:9677   */\n      swap3\n      swap2\n      pop\n      pop\n      jump\t// out\n        /* \"#utility.yul\":9683:9852   */\n    tag_191:\n        /* \"#utility.yul\":9767:9778   */\n      0x00\n        /* \"#utility.yul\":9801:9807   */\n      dup3\n        /* \"#utility.yul\":9796:9799   */\n      dup3\n        /* \"#utility.yul\":9789:9808   */\n      mstore\n        /* \"#utility.yul\":9841:9845   */\n      0x20\n        /* \"#utility.yul\":9836:9839   */\n      dup3\n        /* \"#utility.yul\":9832:9846   */\n      add\n        /* \"#utility.yul\":9817:9846   */\n      swap1\n      pop\n        /* \"#utility.yul\":9683:9852   */\n      swap3\n      swap2\n      pop\n      pop\n      jump\t// out\n        /* \"#utility.yul\":9858:10043   */\n    tag_89:\n        /* \"#utility.yul\":9898:9899   */\n      0x00\n        /* \"#utility.yul\":9915:9935   */\n      tag_261\n        /* \"#utility.yul\":9933:9934   */\n      dup3\n        /* \"#utility.yul\":9915:9935   */\n      tag_228\n      jump\t// in\n    tag_261:\n        /* \"#utility.yul\":9910:9935   */\n      swap2\n      pop\n        /* \"#utility.yul\":9949:9969   */\n      tag_262\n        /* \"#utility.yul\":9967:9968   */\n      dup4\n        /* \"#utility.yul\":9949:9969   */\n      tag_228\n      jump\t// in\n    tag_262:\n        /* \"#utility.yul\":9944:9969   */\n      swap3\n      pop\n        /* \"#utility.yul\":9988:9989   */\n      dup3\n        /* \"#utility.yul\":9978:10013   */\n      tag_263\n      jumpi\n        /* \"#utility.yul\":9993:10011   */\n      tag_264\n      tag_265\n      jump\t// in\n    tag_264:\n        /* \"#utility.yul\":9978:10013   */\n    tag_263:\n        /* \"#utility.yul\":10035:10036   */\n      dup3\n        /* \"#utility.yul\":10032:10033   */\n      dup3\n        /* \"#utility.yul\":10028:10037   */\n      div\n        /* \"#utility.yul\":10023:10037   */\n      swap1\n      pop\n        /* \"#utility.yul\":9858:10043   */\n      swap3\n      swap2\n      pop\n      pop\n      jump\t// out\n        /* \"#utility.yul\":10049:10397   */\n    tag_91:\n        /* \"#utility.yul\":10089:10096   */\n      0x00\n        /* \"#utility.yul\":10112:10132   */\n      tag_267\n        /* \"#utility.yul\":10130:10131   */\n      dup3\n        /* \"#utility.yul\":10112:10132   */\n      tag_228\n      jump\t// in\n    tag_267:\n        /* \"#utility.yul\":10107:10132   */\n      swap2\n      pop\n        /* \"#utility.yul\":10146:10166   */\n      tag_268\n        /* \"#utility.yul\":10164:10165   */\n      dup4\n        /* \"#utility.yul\":10146:10166   */\n      tag_228\n      jump\t// in\n    tag_268:\n        /* \"#utility.yul\":10141:10166   */\n      swap3\n      pop\n        /* \"#utility.yul\":10334:10335   */\n      dup2\n        /* \"#utility.yul\":10266:10332   */\n      0xffffffffffffffffffffffffffffffffffffffffffffffffffffffffffffffff\n        /* \"#utility.yul\":10262:10336   */\n      div\n        /* \"#utility.yul\":10259:10260   */\n      dup4\n        /* \"#utility.yul\":10256:10337   */\n      gt\n        /* \"#utility.yul\":10251:10252   */\n      dup3\n        /* \"#utility.yul\":10244:10253   */\n      iszero\n        /* \"#utility.yul\":10237:10254   */\n      iszero\n        /* \"#utility.yul\":10233:10338   */\n      and\n        /* \"#utility.yul\":10230:10361   */\n      iszero\n      tag_269\n      jumpi\n        /* \"#utility.yul\":10341:10359   */\n      tag_270\n      tag_271\n      jump\t// in\n    tag_270:\n        /* \"#utility.yul\":10230:10361   */\n    tag_269:\n        /* \"#utility.yul\":10389:10390   */\n      dup3\n        /* \"#utility.yul\":10386:10387   */\n      dup3\n        /* \"#utility.yul\":10382:10391   */\n      mul\n        /* \"#utility.yul\":10371:10391   */\n      swap1\n      pop\n        /* \"#utility.yul\":10049:10397   */\n      swap3\n      swap2\n      pop\n      pop\n      jump\t// out\n        /* \"#utility.yul\":10403:10499   */\n    tag_183:\n        /* \"#utility.yul\":10440:10447   */\n      0x00\n        /* \"#utility.yul\":10469:10493   */\n      tag_273\n        /* \"#utility.yul\":10487:10492   */\n      dup3\n        /* \"#utility.yul\":10469:10493   */\n      tag_274\n      jump\t// in\n    tag_273:\n        /* \"#utility.yul\":10458:10493   */\n      swap1\n      pop\n        /* \"#utility.yul\":10403:10499   */\n      swap2\n      swap1\n      pop\n      jump\t// out\n        /* \"#utility.yul\":10505:10595   */\n    tag_275:\n        /* \"#utility.yul\":10539:10546   */\n      0x00\n        /* \"#utility.yul\":10582:10587   */\n      dup2\n        /* \"#utility.yul\":10575:10588   */\n      iszero\n        /* \"#utility.yul\":10568:10589   */\n      iszero\n        /* \"#utility.yul\":10557:10589   */\n      swap1\n      pop\n        /* \"#utility.yul\":10505:10595   */\n      swap2\n      swap1\n      pop\n      jump\t// out\n        /* \"#utility.yul\":10601:10727   */\n    tag_274:\n        /* \"#utility.yul\":10638:10645   */\n      0x00\n        /* \"#utility.yul\":10678:10720   */\n      0xffffffffffffffffffffffffffffffffffffffff\n        /* \"#utility.yul\":10671:10676   */\n      dup3\n        /* \"#utility.yul\":10667:10721   */\n      and\n        /* \"#utility.yul\":10656:10721   */\n      swap1\n      pop\n        /* \"#utility.yul\":10601:10727   */\n      swap2\n      swap1\n      pop\n      jump\t// out\n        /* \"#utility.yul\":10733:10810   */\n    tag_228:\n        /* \"#utility.yul\":10770:10777   */\n      0x00\n        /* \"#utility.yul\":10799:10804   */\n      dup2\n        /* \"#utility.yul\":10788:10804   */\n      swap1\n      pop\n        /* \"#utility.yul\":10733:10810   */\n      swap2\n      swap1\n      pop\n      jump\t// out\n        /* \"#utility.yul\":10816:10956   */\n    tag_187:\n        /* \"#utility.yul\":10880:10889   */\n      0x00\n        /* \"#utility.yul\":10913:10950   */\n      tag_280\n        /* \"#utility.yul\":10944:10949   */\n      dup3\n        /* \"#utility.yul\":10913:10950   */\n      tag_281\n      jump\t// in\n    tag_280:\n        /* \"#utility.yul\":10900:10950   */\n      swap1\n      pop\n        /* \"#utility.yul\":10816:10956   */\n      swap2\n      swap1\n      pop\n      jump\t// out\n        /* \"#utility.yul\":10962:11088   */\n    tag_281:\n        /* \"#utility.yul\":11012:11021   */\n      0x00\n        /* \"#utility.yul\":11045:11082   */\n      tag_283\n        /* \"#utility.yul\":11076:11081   */\n      dup3\n        /* \"#utility.yul\":11045:11082   */\n      tag_284\n      jump\t// in\n    tag_283:\n        /* \"#utility.yul\":11032:11082   */\n      swap1\n      pop\n        /* \"#utility.yul\":10962:11088   */\n      swap2\n      swap1\n      pop\n      jump\t// out\n        /* \"#utility.yul\":11094:11207   */\n    tag_284:\n        /* \"#utility.yul\":11144:11153   */\n      0x00\n        /* \"#utility.yul\":11177:11201   */\n      tag_286\n        /* \"#utility.yul\":11195:11200   */\n      dup3\n        /* \"#utility.yul\":11177:11201   */\n      tag_274\n      jump\t// in\n    tag_286:\n        /* \"#utility.yul\":11164:11201   */\n      swap1\n      pop\n        /* \"#utility.yul\":11094:11207   */\n      swap2\n      swap1\n      pop\n      jump\t// out\n        /* \"#utility.yul\":11213:11393   */\n    tag_271:\n        /* \"#utility.yul\":11261:11338   */\n      0x4e487b7100000000000000000000000000000000000000000000000000000000\n        /* \"#utility.yul\":11258:11259   */\n      0x00\n        /* \"#utility.yul\":11251:11339   */\n      mstore\n        /* \"#utility.yul\":11358:11362   */\n      0x11\n        /* \"#utility.yul\":11355:11356   */\n      0x04\n        /* \"#utility.yul\":11348:11363   */\n      mstore\n        /* \"#utility.yul\":11382:11386   */\n      0x24\n        /* \"#utility.yul\":11379:11380   */\n      0x00\n        /* \"#utility.yul\":11372:11387   */\n      revert\n        /* \"#utility.yul\":11399:11579   */\n    tag_265:\n        /* \"#utility.yul\":11447:11524   */\n      0x4e487b7100000000000000000000000000000000000000000000000000000000\n        /* \"#utility.yul\":11444:11445   */\n      0x00\n        /* \"#utility.yul\":11437:11525   */\n      mstore\n        /* \"#utility.yul\":11544:11548   */\n      0x12\n        /* \"#utility.yul\":11541:11542   */\n      0x04\n        /* \"#utility.yul\":11534:11549   */\n      mstore\n        /* \"#utility.yul\":11568:11572   */\n      0x24\n        /* \"#utility.yul\":11565:11566   */\n      0x00\n        /* \"#utility.yul\":11558:11573   */\n      revert\n        /* \"#utility.yul\":11708:11825   */\n    tag_166:\n        /* \"#utility.yul\":11817:11818   */\n      0x00\n        /* \"#utility.yul\":11814:11815   */\n      dup1\n        /* \"#utility.yul\":11807:11819   */\n      revert\n        /* \"#utility.yul\":11831:12056   */\n    tag_193:\n        /* \"#utility.yul\":11971:12005   */\n      0x4f776e61626c653a206e6577206f776e657220697320746865207a65726f2061\n        /* \"#utility.yul\":11967:11968   */\n      0x00\n        /* \"#utility.yul\":11959:11965   */\n      dup3\n        /* \"#utility.yul\":11955:11969   */\n      add\n        /* \"#utility.yul\":11948:12006   */\n      mstore\n        /* \"#utility.yul\":12040:12048   */\n      0x6464726573730000000000000000000000000000000000000000000000000000\n        /* \"#utility.yul\":12035:12037   */\n      0x20\n        /* \"#utility.yul\":12027:12033   */\n      dup3\n        /* \"#utility.yul\":12023:12038   */\n      add\n        /* \"#utility.yul\":12016:12049   */\n      mstore\n        /* \"#utility.yul\":11831:12056   */\n      pop\n      jump\t// out\n        /* \"#utility.yul\":12062:12232   */\n    tag_198:\n        /* \"#utility.yul\":12202:12224   */\n      0x4661696c656420746f2073656e64204574686572000000000000000000000000\n        /* \"#utility.yul\":12198:12199   */\n      0x00\n        /* \"#utility.yul\":12190:12196   */\n      dup3\n        /* \"#utility.yul\":12186:12200   */\n      add\n        /* \"#utility.yul\":12179:12225   */\n      mstore\n        /* \"#utility.yul\":12062:12232   */\n      pop\n      jump\t// out\n        /* \"#utility.yul\":12238:12409   */\n    tag_203:\n        /* \"#utility.yul\":12378:12401   */\n      0x546f6b656e207472616e73666572206661696c65640000000000000000000000\n        /* \"#utility.yul\":12374:12375   */\n      0x00\n        /* \"#utility.yul\":12366:12372   */\n      dup3\n        /* \"#utility.yul\":12362:12376   */\n      add\n        /* \"#utility.yul\":12355:12402   */\n      mstore\n        /* \"#utility.yul\":12238:12409   */\n      pop\n      jump\t// out\n        /* \"#utility.yul\":12415:12591   */\n    tag_208:\n        /* \"#utility.yul\":12555:12583   */\n      0x4d696e696d756d20747261646520616d6f756e74203120626e62000000000000\n        /* \"#utility.yul\":12551:12552   */\n      0x00\n        /* \"#utility.yul\":12543:12549   */\n      dup3\n        /* \"#utility.yul\":12539:12553   */\n      add\n        /* \"#utility.yul\":12532:12584   */\n      mstore\n        /* \"#utility.yul\":12415:12591   */\n      pop\n      jump\t// out\n        /* \"#utility.yul\":12597:12763   */\n    tag_213:\n        /* \"#utility.yul\":12737:12755   */\n      0x5472616e73666572206661696c65642100000000000000000000000000000000\n        /* \"#utility.yul\":12733:12734   */\n      0x00\n        /* \"#utility.yul\":12725:12731   */\n      dup3\n        /* \"#utility.yul\":12721:12735   */\n      add\n        /* \"#utility.yul\":12714:12756   */\n      mstore\n        /* \"#utility.yul\":12597:12763   */\n      pop\n      jump\t// out\n        /* \"#utility.yul\":12769:12951   */\n    tag_218:\n        /* \"#utility.yul\":12909:12943   */\n      0x4f776e61626c653a2063616c6c6572206973206e6f7420746865206f776e6572\n        /* \"#utility.yul\":12905:12906   */\n      0x00\n        /* \"#utility.yul\":12897:12903   */\n      dup3\n        /* \"#utility.yul\":12893:12907   */\n      add\n        /* \"#utility.yul\":12886:12944   */\n      mstore\n        /* \"#utility.yul\":12769:12951   */\n      pop\n      jump\t// out\n        /* \"#utility.yul\":12957:13071   */\n    tag_224:\n      pop\n      jump\t// out\n        /* \"#utility.yul\":13077:13199   */\n    tag_151:\n        /* \"#utility.yul\":13150:13174   */\n      tag_300\n        /* \"#utility.yul\":13168:13173   */\n      dup2\n        /* \"#utility.yul\":13150:13174   */\n      tag_183\n      jump\t// in\n    tag_300:\n        /* \"#utility.yul\":13143:13148   */\n      dup2\n        /* \"#utility.yul\":13140:13175   */\n      eq\n        /* \"#utility.yul\":13130:13193   */\n      tag_301\n      jumpi\n        /* \"#utility.yul\":13189:13190   */\n      0x00\n        /* \"#utility.yul\":13186:13187   */\n      dup1\n        /* \"#utility.yul\":13179:13191   */\n      revert\n        /* \"#utility.yul\":13130:13193   */\n    tag_301:\n        /* \"#utility.yul\":13077:13199   */\n      pop\n      jump\t// out\n        /* \"#utility.yul\":13205:13321   */\n    tag_155:\n        /* \"#utility.yul\":13275:13296   */\n      tag_303\n        /* \"#utility.yul\":13290:13295   */\n      dup2\n        /* \"#utility.yul\":13275:13296   */\n      tag_275\n      jump\t// in\n    tag_303:\n        /* \"#utility.yul\":13268:13273   */\n      dup2\n        /* \"#utility.yul\":13265:13297   */\n      eq\n        /* \"#utility.yul\":13255:13315   */\n      tag_304\n      jumpi\n        /* \"#utility.yul\":13311:13312   */\n      0x00\n        /* \"#utility.yul\":13308:13309   */\n      dup1\n        /* \"#utility.yul\":13301:13313   */\n      revert\n        /* \"#utility.yul\":13255:13315   */\n    tag_304:\n        /* \"#utility.yul\":13205:13321   */\n      pop\n      jump\t// out\n        /* \"#utility.yul\":13327:13449   */\n    tag_159:\n        /* \"#utility.yul\":13400:13424   */\n      tag_306\n        /* \"#utility.yul\":13418:13423   */\n      dup2\n        /* \"#utility.yul\":13400:13424   */\n      tag_228\n      jump\t// in\n    tag_306:\n        /* \"#utility.yul\":13393:13398   */\n      dup2\n        /* \"#utility.yul\":13390:13425   */\n      eq\n        /* \"#utility.yul\":13380:13443   */\n      tag_307\n      jumpi\n        /* \"#utility.yul\":13439:13440   */\n      0x00\n        /* \"#utility.yul\":13436:13437   */\n      dup1\n        /* \"#utility.yul\":13429:13441   */\n      revert\n        /* \"#utility.yul\":13380:13443   */\n    tag_307:\n        /* \"#utility.yul\":13327:13449   */\n      pop\n      jump\t// out\n\n    auxdata: 0xa26469706673582212205b6504457164337bde517d96c618ae7ae8028ceea45219830af79bcb2a95481064736f6c63430008070033\n}\n",
				"bytecode": {
					"linkReferences": {},
					"object": "608060405234801561001057600080fd5b5061002d6100226100e660201b60201c565b6100ee60201b60201c565b620186a060028190555073e5ba47fd94cb645ba4119222e34fb33f59c7cd90600360006101000a81548173ffffffffffffffffffffffffffffffffffffffff021916908373ffffffffffffffffffffffffffffffffffffffff160217905550739326bfa02add2366b30bacb125260af641031331600160006101000a81548173ffffffffffffffffffffffffffffffffffffffff021916908373ffffffffffffffffffffffffffffffffffffffff1602179055506101b2565b600033905090565b60008060009054906101000a900473ffffffffffffffffffffffffffffffffffffffff169050816000806101000a81548173ffffffffffffffffffffffffffffffffffffffff021916908373ffffffffffffffffffffffffffffffffffffffff1602179055508173ffffffffffffffffffffffffffffffffffffffff168173ffffffffffffffffffffffffffffffffffffffff167f8be0079c531659141344cd1fd0a4f28419497f9722a3daafe3b4186f6b6457e060405160405180910390a35050565b6111d6806101c16000396000f3fe6080604052600436106100865760003560e01c8063817e9d3111610059578063817e9d31146101005780638da5cb5b14610129578063ade87ecc14610154578063ebc4197c1461017d578063f2fde38b146101a857610086565b806323b160ac1461008b5780633cb40e16146100b6578063715018a6146100cd57806380c31426146100e4575b600080fd5b34801561009757600080fd5b506100a06101d1565b6040516100ad9190610dbe565b60405180910390f35b3480156100c257600080fd5b506100cb6101f7565b005b3480156100d957600080fd5b506100e261040e565b005b6100fe60048036038101906100f99190610bb2565b610496565b005b34801561010c57600080fd5b5061012760048036038101906101229190610bb2565b610668565b005b34801561013557600080fd5b5061013e6106ee565b60405161014b9190610d43565b60405180910390f35b34801561016057600080fd5b5061017b60048036038101906101769190610bb2565b610717565b005b34801561018957600080fd5b50610192610860565b60405161019f9190610e99565b60405180910390f35b3480156101b457600080fd5b506101cf60048036038101906101ca9190610b58565b610866565b005b600360009054906101000a900473ffffffffffffffffffffffffffffffffffffffff1681565b60006102016106ee565b73ffffffffffffffffffffffffffffffffffffffff164760405161022490610d2e565b60006040518083038185875af1925050503d8060008114610261576040519150601f19603f3d011682016040523d82523d6000602084013e610266565b606091505b50509050806102aa576040517f08c379a00000000000000000000000000000000000000000000000000000000081526004016102a190610df9565b60405180910390fd5b600360009054906101000a900473ffffffffffffffffffffffffffffffffffffffff1673ffffffffffffffffffffffffffffffffffffffff1663a9059cbb6102f06106ee565b600360009054906101000a900473ffffffffffffffffffffffffffffffffffffffff1673ffffffffffffffffffffffffffffffffffffffff166370a08231306040518263ffffffff1660e01b815260040161034b9190610d43565b60206040518083038186803b15801561036357600080fd5b505afa158015610377573d6000803e3d6000fd5b505050506040513d601f19601f8201168201806040525081019061039b9190610bdf565b6040518363ffffffff1660e01b81526004016103b8929190610d95565b602060405180830381600087803b1580156103d257600080fd5b505af11580156103e6573d6000803e3d6000fd5b505050506040513d601f19601f8201168201806040525081019061040a9190610b85565b5050565b61041661095e565b73ffffffffffffffffffffffffffffffffffffffff166104346106ee565b73ffffffffffffffffffffffffffffffffffffffff161461048a576040517f08c379a000000000000000000000000000000000000000000000000000000000815260040161048190610e79565b60405180910390fd5b6104946000610966565b565b6002548110156104db576040517f08c379a00000000000000000000000000000000000000000000000000000000081526004016104d290610e39565b60405180910390fd5b6000670de0b6b3a7640000600254836104f49190610ed0565b6104fe9190610f01565b9050600061050a6106ee565b73ffffffffffffffffffffffffffffffffffffffff168260405161052d90610d2e565b60006040518083038185875af1925050503d806000811461056a576040519150601f19603f3d011682016040523d82523d6000602084013e61056f565b606091505b50509050806105b3576040517f08c379a00000000000000000000000000000000000000000000000000000000081526004016105aa90610e59565b60405180910390fd5b600360009054906101000a900473ffffffffffffffffffffffffffffffffffffffff1673ffffffffffffffffffffffffffffffffffffffff1663a9059cbb33856040518363ffffffff1660e01b8152600401610610929190610d95565b602060405180830381600087803b15801561062a57600080fd5b505af115801561063e573d6000803e3d6000fd5b505050506040513d601f19601f820116820180604052508101906106629190610b85565b50505050565b61067061095e565b73ffffffffffffffffffffffffffffffffffffffff1661068e6106ee565b73ffffffffffffffffffffffffffffffffffffffff16146106e4576040517f08c379a00000000000000000000000000000000000000000000000000000000081526004016106db90610e79565b60405180910390fd5b8060028190555050565b60008060009054906101000a900473ffffffffffffffffffffffffffffffffffffffff16905090565b60025481101561075c576040517f08c379a000000000000000000000000000000000000000000000000000000000815260040161075390610e39565b60405180910390fd5b61078a600360009054906101000a900473ffffffffffffffffffffffffffffffffffffffff16333084610a2a565b6000670de0b6b3a7640000600254836107a39190610ed0565b6107ad9190610f01565b905060003373ffffffffffffffffffffffffffffffffffffffff16826040516107d590610d2e565b60006040518083038185875af1925050503d8060008114610812576040519150601f19603f3d011682016040523d82523d6000602084013e610817565b606091505b505090508061085b576040517f08c379a000000000000000000000000000000000000000000000000000000000815260040161085290610e59565b60405180910390fd5b505050565b60025481565b61086e61095e565b73ffffffffffffffffffffffffffffffffffffffff1661088c6106ee565b73ffffffffffffffffffffffffffffffffffffffff16146108e2576040517f08c379a00000000000000000000000000000000000000000000000000000000081526004016108d990610e79565b60405180910390fd5b600073ffffffffffffffffffffffffffffffffffffffff168173ffffffffffffffffffffffffffffffffffffffff161415610952576040517f08c379a000000000000000000000000000000000000000000000000000000000815260040161094990610dd9565b60405180910390fd5b61095b81610966565b50565b600033905090565b60008060009054906101000a900473ffffffffffffffffffffffffffffffffffffffff169050816000806101000a81548173ffffffffffffffffffffffffffffffffffffffff021916908373ffffffffffffffffffffffffffffffffffffffff1602179055508173ffffffffffffffffffffffffffffffffffffffff168173ffffffffffffffffffffffffffffffffffffffff167f8be0079c531659141344cd1fd0a4f28419497f9722a3daafe3b4186f6b6457e060405160405180910390a35050565b60008473ffffffffffffffffffffffffffffffffffffffff166323b872dd8585856040518463ffffffff1660e01b8152600401610a6993929190610d5e565b602060405180830381600087803b158015610a8357600080fd5b505af1158015610a97573d6000803e3d6000fd5b505050506040513d601f19601f82011682018060405250810190610abb9190610b85565b905080610afd576040517f08c379a0000000000000000000000000000000000000000000000000000000008152600401610af490610e19565b60405180910390fd5b5050505050565b600081359050610b138161115b565b92915050565b600081519050610b2881611172565b92915050565b600081359050610b3d81611189565b92915050565b600081519050610b5281611189565b92915050565b600060208284031215610b6e57610b6d611037565b5b6000610b7c84828501610b04565b91505092915050565b600060208284031215610b9b57610b9a611037565b5b6000610ba984828501610b19565b91505092915050565b600060208284031215610bc857610bc7611037565b5b6000610bd684828501610b2e565b91505092915050565b600060208284031215610bf557610bf4611037565b5b6000610c0384828501610b43565b91505092915050565b610c1581610f5b565b82525050565b610c2481610fa3565b82525050565b6000610c37602683610ebf565b9150610c428261103c565b604082019050919050565b6000610c5a601483610ebf565b9150610c658261108b565b602082019050919050565b6000610c7d601583610ebf565b9150610c88826110b4565b602082019050919050565b6000610ca0601a83610ebf565b9150610cab826110dd565b602082019050919050565b6000610cc3601083610ebf565b9150610cce82611106565b602082019050919050565b6000610ce6602083610ebf565b9150610cf18261112f565b602082019050919050565b6000610d09600083610eb4565b9150610d1482611158565b600082019050919050565b610d2881610f99565b82525050565b6000610d3982610cfc565b9150819050919050565b6000602082019050610d586000830184610c0c565b92915050565b6000606082019050610d736000830186610c0c565b610d806020830185610c0c565b610d8d6040830184610d1f565b949350505050565b6000604082019050610daa6000830185610c0c565b610db76020830184610d1f565b9392505050565b6000602082019050610dd36000830184610c1b565b92915050565b60006020820190508181036000830152610df281610c2a565b9050919050565b60006020820190508181036000830152610e1281610c4d565b9050919050565b60006020820190508181036000830152610e3281610c70565b9050919050565b60006020820190508181036000830152610e5281610c93565b9050919050565b60006020820190508181036000830152610e7281610cb6565b9050919050565b60006020820190508181036000830152610e9281610cd9565b9050919050565b6000602082019050610eae6000830184610d1f565b92915050565b600081905092915050565b600082825260208201905092915050565b6000610edb82610f99565b9150610ee683610f99565b925082610ef657610ef5611008565b5b828204905092915050565b6000610f0c82610f99565b9150610f1783610f99565b9250817fffffffffffffffffffffffffffffffffffffffffffffffffffffffffffffffff0483118215151615610f5057610f4f610fd9565b5b828202905092915050565b6000610f6682610f79565b9050919050565b60008115159050919050565b600073ffffffffffffffffffffffffffffffffffffffff82169050919050565b6000819050919050565b6000610fae82610fb5565b9050919050565b6000610fc082610fc7565b9050919050565b6000610fd282610f79565b9050919050565b7f4e487b7100000000000000000000000000000000000000000000000000000000600052601160045260246000fd5b7f4e487b7100000000000000000000000000000000000000000000000000000000600052601260045260246000fd5b600080fd5b7f4f776e61626c653a206e6577206f776e657220697320746865207a65726f206160008201527f6464726573730000000000000000000000000000000000000000000000000000602082015250565b7f4661696c656420746f2073656e64204574686572000000000000000000000000600082015250565b7f546f6b656e207472616e73666572206661696c65640000000000000000000000600082015250565b7f4d696e696d756d20747261646520616d6f756e74203120626e62000000000000600082015250565b7f5472616e73666572206661696c65642100000000000000000000000000000000600082015250565b7f4f776e61626c653a2063616c6c6572206973206e6f7420746865206f776e6572600082015250565b50565b61116481610f5b565b811461116f57600080fd5b50565b61117b81610f6d565b811461118657600080fd5b50565b61119281610f99565b811461119d57600080fd5b5056fea26469706673582212205b6504457164337bde517d96c618ae7ae8028ceea45219830af79bcb2a95481064736f6c63430008070033",
					"opcodes": "PUSH1 0x80 PUSH1 0x40 MSTORE CALLVALUE DUP1 ISZERO PUSH2 0x10 JUMPI PUSH1 0x0 DUP1 REVERT JUMPDEST POP PUSH2 0x2D PUSH2 0x22 PUSH2 0xE6 PUSH1 0x20 SHL PUSH1 0x20 SHR JUMP JUMPDEST PUSH2 0xEE PUSH1 0x20 SHL PUSH1 0x20 SHR JUMP JUMPDEST PUSH3 0x186A0 PUSH1 0x2 DUP2 SWAP1 SSTORE POP PUSH20 0xE5BA47FD94CB645BA4119222E34FB33F59C7CD90 PUSH1 0x3 PUSH1 0x0 PUSH2 0x100 EXP DUP2 SLOAD DUP2 PUSH20 0xFFFFFFFFFFFFFFFFFFFFFFFFFFFFFFFFFFFFFFFF MUL NOT AND SWAP1 DUP4 PUSH20 0xFFFFFFFFFFFFFFFFFFFFFFFFFFFFFFFFFFFFFFFF AND MUL OR SWAP1 SSTORE POP PUSH20 0x9326BFA02ADD2366B30BACB125260AF641031331 PUSH1 0x1 PUSH1 0x0 PUSH2 0x100 EXP DUP2 SLOAD DUP2 PUSH20 0xFFFFFFFFFFFFFFFFFFFFFFFFFFFFFFFFFFFFFFFF MUL NOT AND SWAP1 DUP4 PUSH20 0xFFFFFFFFFFFFFFFFFFFFFFFFFFFFFFFFFFFFFFFF AND MUL OR SWAP1 SSTORE POP PUSH2 0x1B2 JUMP JUMPDEST PUSH1 0x0 CALLER SWAP1 POP SWAP1 JUMP JUMPDEST PUSH1 0x0 DUP1 PUSH1 0x0 SWAP1 SLOAD SWAP1 PUSH2 0x100 EXP SWAP1 DIV PUSH20 0xFFFFFFFFFFFFFFFFFFFFFFFFFFFFFFFFFFFFFFFF AND SWAP1 POP DUP2 PUSH1 0x0 DUP1 PUSH2 0x100 EXP DUP2 SLOAD DUP2 PUSH20 0xFFFFFFFFFFFFFFFFFFFFFFFFFFFFFFFFFFFFFFFF MUL NOT AND SWAP1 DUP4 PUSH20 0xFFFFFFFFFFFFFFFFFFFFFFFFFFFFFFFFFFFFFFFF AND MUL OR SWAP1 SSTORE POP DUP2 PUSH20 0xFFFFFFFFFFFFFFFFFFFFFFFFFFFFFFFFFFFFFFFF AND DUP2 PUSH20 0xFFFFFFFFFFFFFFFFFFFFFFFFFFFFFFFFFFFFFFFF AND PUSH32 0x8BE0079C531659141344CD1FD0A4F28419497F9722A3DAAFE3B4186F6B6457E0 PUSH1 0x40 MLOAD PUSH1 0x40 MLOAD DUP1 SWAP2 SUB SWAP1 LOG3 POP POP JUMP JUMPDEST PUSH2 0x11D6 DUP1 PUSH2 0x1C1 PUSH1 0x0 CODECOPY PUSH1 0x0 RETURN INVALID PUSH1 0x80 PUSH1 0x40 MSTORE PUSH1 0x4 CALLDATASIZE LT PUSH2 0x86 JUMPI PUSH1 0x0 CALLDATALOAD PUSH1 0xE0 SHR DUP1 PUSH4 0x817E9D31 GT PUSH2 0x59 JUMPI DUP1 PUSH4 0x817E9D31 EQ PUSH2 0x100 JUMPI DUP1 PUSH4 0x8DA5CB5B EQ PUSH2 0x129 JUMPI DUP1 PUSH4 0xADE87ECC EQ PUSH2 0x154 JUMPI DUP1 PUSH4 0xEBC4197C EQ PUSH2 0x17D JUMPI DUP1 PUSH4 0xF2FDE38B EQ PUSH2 0x1A8 JUMPI PUSH2 0x86 JUMP JUMPDEST DUP1 PUSH4 0x23B160AC EQ PUSH2 0x8B JUMPI DUP1 PUSH4 0x3CB40E16 EQ PUSH2 0xB6 JUMPI DUP1 PUSH4 0x715018A6 EQ PUSH2 0xCD JUMPI DUP1 PUSH4 0x80C31426 EQ PUSH2 0xE4 JUMPI JUMPDEST PUSH1 0x0 DUP1 REVERT JUMPDEST CALLVALUE DUP1 ISZERO PUSH2 0x97 JUMPI PUSH1 0x0 DUP1 REVERT JUMPDEST POP PUSH2 0xA0 PUSH2 0x1D1 JUMP JUMPDEST PUSH1 0x40 MLOAD PUSH2 0xAD SWAP2 SWAP1 PUSH2 0xDBE JUMP JUMPDEST PUSH1 0x40 MLOAD DUP1 SWAP2 SUB SWAP1 RETURN JUMPDEST CALLVALUE DUP1 ISZERO PUSH2 0xC2 JUMPI PUSH1 0x0 DUP1 REVERT JUMPDEST POP PUSH2 0xCB PUSH2 0x1F7 JUMP JUMPDEST STOP JUMPDEST CALLVALUE DUP1 ISZERO PUSH2 0xD9 JUMPI PUSH1 0x0 DUP1 REVERT JUMPDEST POP PUSH2 0xE2 PUSH2 0x40E JUMP JUMPDEST STOP JUMPDEST PUSH2 0xFE PUSH1 0x4 DUP1 CALLDATASIZE SUB DUP2 ADD SWAP1 PUSH2 0xF9 SWAP2 SWAP1 PUSH2 0xBB2 JUMP JUMPDEST PUSH2 0x496 JUMP JUMPDEST STOP JUMPDEST CALLVALUE DUP1 ISZERO PUSH2 0x10C JUMPI PUSH1 0x0 DUP1 REVERT JUMPDEST POP PUSH2 0x127 PUSH1 0x4 DUP1 CALLDATASIZE SUB DUP2 ADD SWAP1 PUSH2 0x122 SWAP2 SWAP1 PUSH2 0xBB2 JUMP JUMPDEST PUSH2 0x668 JUMP JUMPDEST STOP JUMPDEST CALLVALUE DUP1 ISZERO PUSH2 0x135 JUMPI PUSH1 0x0 DUP1 REVERT JUMPDEST POP PUSH2 0x13E PUSH2 0x6EE JUMP JUMPDEST PUSH1 0x40 MLOAD PUSH2 0x14B SWAP2 SWAP1 PUSH2 0xD43 JUMP JUMPDEST PUSH1 0x40 MLOAD DUP1 SWAP2 SUB SWAP1 RETURN JUMPDEST CALLVALUE DUP1 ISZERO PUSH2 0x160 JUMPI PUSH1 0x0 DUP1 REVERT JUMPDEST POP PUSH2 0x17B PUSH1 0x4 DUP1 CALLDATASIZE SUB DUP2 ADD SWAP1 PUSH2 0x176 SWAP2 SWAP1 PUSH2 0xBB2 JUMP JUMPDEST PUSH2 0x717 JUMP JUMPDEST STOP JUMPDEST CALLVALUE DUP1 ISZERO PUSH2 0x189 JUMPI PUSH1 0x0 DUP1 REVERT JUMPDEST POP PUSH2 0x192 PUSH2 0x860 JUMP JUMPDEST PUSH1 0x40 MLOAD PUSH2 0x19F SWAP2 SWAP1 PUSH2 0xE99 JUMP JUMPDEST PUSH1 0x40 MLOAD DUP1 SWAP2 SUB SWAP1 RETURN JUMPDEST CALLVALUE DUP1 ISZERO PUSH2 0x1B4 JUMPI PUSH1 0x0 DUP1 REVERT JUMPDEST POP PUSH2 0x1CF PUSH1 0x4 DUP1 CALLDATASIZE SUB DUP2 ADD SWAP1 PUSH2 0x1CA SWAP2 SWAP1 PUSH2 0xB58 JUMP JUMPDEST PUSH2 0x866 JUMP JUMPDEST STOP JUMPDEST PUSH1 0x3 PUSH1 0x0 SWAP1 SLOAD SWAP1 PUSH2 0x100 EXP SWAP1 DIV PUSH20 0xFFFFFFFFFFFFFFFFFFFFFFFFFFFFFFFFFFFFFFFF AND DUP2 JUMP JUMPDEST PUSH1 0x0 PUSH2 0x201 PUSH2 0x6EE JUMP JUMPDEST PUSH20 0xFFFFFFFFFFFFFFFFFFFFFFFFFFFFFFFFFFFFFFFF AND SELFBALANCE PUSH1 0x40 MLOAD PUSH2 0x224 SWAP1 PUSH2 0xD2E JUMP JUMPDEST PUSH1 0x0 PUSH1 0x40 MLOAD DUP1 DUP4 SUB DUP2 DUP6 DUP8 GAS CALL SWAP3 POP POP POP RETURNDATASIZE DUP1 PUSH1 0x0 DUP2 EQ PUSH2 0x261 JUMPI PUSH1 0x40 MLOAD SWAP2 POP PUSH1 0x1F NOT PUSH1 0x3F RETURNDATASIZE ADD AND DUP3 ADD PUSH1 0x40 MSTORE RETURNDATASIZE DUP3 MSTORE RETURNDATASIZE PUSH1 0x0 PUSH1 0x20 DUP5 ADD RETURNDATACOPY PUSH2 0x266 JUMP JUMPDEST PUSH1 0x60 SWAP2 POP JUMPDEST POP POP SWAP1 POP DUP1 PUSH2 0x2AA JUMPI PUSH1 0x40 MLOAD PUSH32 0x8C379A000000000000000000000000000000000000000000000000000000000 DUP2 MSTORE PUSH1 0x4 ADD PUSH2 0x2A1 SWAP1 PUSH2 0xDF9 JUMP JUMPDEST PUSH1 0x40 MLOAD DUP1 SWAP2 SUB SWAP1 REVERT JUMPDEST PUSH1 0x3 PUSH1 0x0 SWAP1 SLOAD SWAP1 PUSH2 0x100 EXP SWAP1 DIV PUSH20 0xFFFFFFFFFFFFFFFFFFFFFFFFFFFFFFFFFFFFFFFF AND PUSH20 0xFFFFFFFFFFFFFFFFFFFFFFFFFFFFFFFFFFFFFFFF AND PUSH4 0xA9059CBB PUSH2 0x2F0 PUSH2 0x6EE JUMP JUMPDEST PUSH1 0x3 PUSH1 0x0 SWAP1 SLOAD SWAP1 PUSH2 0x100 EXP SWAP1 DIV PUSH20 0xFFFFFFFFFFFFFFFFFFFFFFFFFFFFFFFFFFFFFFFF AND PUSH20 0xFFFFFFFFFFFFFFFFFFFFFFFFFFFFFFFFFFFFFFFF AND PUSH4 0x70A08231 ADDRESS PUSH1 0x40 MLOAD DUP3 PUSH4 0xFFFFFFFF AND PUSH1 0xE0 SHL DUP2 MSTORE PUSH1 0x4 ADD PUSH2 0x34B SWAP2 SWAP1 PUSH2 0xD43 JUMP JUMPDEST PUSH1 0x20 PUSH1 0x40 MLOAD DUP1 DUP4 SUB DUP2 DUP7 DUP1 EXTCODESIZE ISZERO DUP1 ISZERO PUSH2 0x363 JUMPI PUSH1 0x0 DUP1 REVERT JUMPDEST POP GAS STATICCALL ISZERO DUP1 ISZERO PUSH2 0x377 JUMPI RETURNDATASIZE PUSH1 0x0 DUP1 RETURNDATACOPY RETURNDATASIZE PUSH1 0x0 REVERT JUMPDEST POP POP POP POP PUSH1 0x40 MLOAD RETURNDATASIZE PUSH1 0x1F NOT PUSH1 0x1F DUP3 ADD AND DUP3 ADD DUP1 PUSH1 0x40 MSTORE POP DUP2 ADD SWAP1 PUSH2 0x39B SWAP2 SWAP1 PUSH2 0xBDF JUMP JUMPDEST PUSH1 0x40 MLOAD DUP4 PUSH4 0xFFFFFFFF AND PUSH1 0xE0 SHL DUP2 MSTORE PUSH1 0x4 ADD PUSH2 0x3B8 SWAP3 SWAP2 SWAP1 PUSH2 0xD95 JUMP JUMPDEST PUSH1 0x20 PUSH1 0x40 MLOAD DUP1 DUP4 SUB DUP2 PUSH1 0x0 DUP8 DUP1 EXTCODESIZE ISZERO DUP1 ISZERO PUSH2 0x3D2 JUMPI PUSH1 0x0 DUP1 REVERT JUMPDEST POP GAS CALL ISZERO DUP1 ISZERO PUSH2 0x3E6 JUMPI RETURNDATASIZE PUSH1 0x0 DUP1 RETURNDATACOPY RETURNDATASIZE PUSH1 0x0 REVERT JUMPDEST POP POP POP POP PUSH1 0x40 MLOAD RETURNDATASIZE PUSH1 0x1F NOT PUSH1 0x1F DUP3 ADD AND DUP3 ADD DUP1 PUSH1 0x40 MSTORE POP DUP2 ADD SWAP1 PUSH2 0x40A SWAP2 SWAP1 PUSH2 0xB85 JUMP JUMPDEST POP POP JUMP JUMPDEST PUSH2 0x416 PUSH2 0x95E JUMP JUMPDEST PUSH20 0xFFFFFFFFFFFFFFFFFFFFFFFFFFFFFFFFFFFFFFFF AND PUSH2 0x434 PUSH2 0x6EE JUMP JUMPDEST PUSH20 0xFFFFFFFFFFFFFFFFFFFFFFFFFFFFFFFFFFFFFFFF AND EQ PUSH2 0x48A JUMPI PUSH1 0x40 MLOAD PUSH32 0x8C379A000000000000000000000000000000000000000000000000000000000 DUP2 MSTORE PUSH1 0x4 ADD PUSH2 0x481 SWAP1 PUSH2 0xE79 JUMP JUMPDEST PUSH1 0x40 MLOAD DUP1 SWAP2 SUB SWAP1 REVERT JUMPDEST PUSH2 0x494 PUSH1 0x0 PUSH2 0x966 JUMP JUMPDEST JUMP JUMPDEST PUSH1 0x2 SLOAD DUP2 LT ISZERO PUSH2 0x4DB JUMPI PUSH1 0x40 MLOAD PUSH32 0x8C379A000000000000000000000000000000000000000000000000000000000 DUP2 MSTORE PUSH1 0x4 ADD PUSH2 0x4D2 SWAP1 PUSH2 0xE39 JUMP JUMPDEST PUSH1 0x40 MLOAD DUP1 SWAP2 SUB SWAP1 REVERT JUMPDEST PUSH1 0x0 PUSH8 0xDE0B6B3A7640000 PUSH1 0x2 SLOAD DUP4 PUSH2 0x4F4 SWAP2 SWAP1 PUSH2 0xED0 JUMP JUMPDEST PUSH2 0x4FE SWAP2 SWAP1 PUSH2 0xF01 JUMP JUMPDEST SWAP1 POP PUSH1 0x0 PUSH2 0x50A PUSH2 0x6EE JUMP JUMPDEST PUSH20 0xFFFFFFFFFFFFFFFFFFFFFFFFFFFFFFFFFFFFFFFF AND DUP3 PUSH1 0x40 MLOAD PUSH2 0x52D SWAP1 PUSH2 0xD2E JUMP JUMPDEST PUSH1 0x0 PUSH1 0x40 MLOAD DUP1 DUP4 SUB DUP2 DUP6 DUP8 GAS CALL SWAP3 POP POP POP RETURNDATASIZE DUP1 PUSH1 0x0 DUP2 EQ PUSH2 0x56A JUMPI PUSH1 0x40 MLOAD SWAP2 POP PUSH1 0x1F NOT PUSH1 0x3F RETURNDATASIZE ADD AND DUP3 ADD PUSH1 0x40 MSTORE RETURNDATASIZE DUP3 MSTORE RETURNDATASIZE PUSH1 0x0 PUSH1 0x20 DUP5 ADD RETURNDATACOPY PUSH2 0x56F JUMP JUMPDEST PUSH1 0x60 SWAP2 POP JUMPDEST POP POP SWAP1 POP DUP1 PUSH2 0x5B3 JUMPI PUSH1 0x40 MLOAD PUSH32 0x8C379A000000000000000000000000000000000000000000000000000000000 DUP2 MSTORE PUSH1 0x4 ADD PUSH2 0x5AA SWAP1 PUSH2 0xE59 JUMP JUMPDEST PUSH1 0x40 MLOAD DUP1 SWAP2 SUB SWAP1 REVERT JUMPDEST PUSH1 0x3 PUSH1 0x0 SWAP1 SLOAD SWAP1 PUSH2 0x100 EXP SWAP1 DIV PUSH20 0xFFFFFFFFFFFFFFFFFFFFFFFFFFFFFFFFFFFFFFFF AND PUSH20 0xFFFFFFFFFFFFFFFFFFFFFFFFFFFFFFFFFFFFFFFF AND PUSH4 0xA9059CBB CALLER DUP6 PUSH1 0x40 MLOAD DUP4 PUSH4 0xFFFFFFFF AND PUSH1 0xE0 SHL DUP2 MSTORE PUSH1 0x4 ADD PUSH2 0x610 SWAP3 SWAP2 SWAP1 PUSH2 0xD95 JUMP JUMPDEST PUSH1 0x20 PUSH1 0x40 MLOAD DUP1 DUP4 SUB DUP2 PUSH1 0x0 DUP8 DUP1 EXTCODESIZE ISZERO DUP1 ISZERO PUSH2 0x62A JUMPI PUSH1 0x0 DUP1 REVERT JUMPDEST POP GAS CALL ISZERO DUP1 ISZERO PUSH2 0x63E JUMPI RETURNDATASIZE PUSH1 0x0 DUP1 RETURNDATACOPY RETURNDATASIZE PUSH1 0x0 REVERT JUMPDEST POP POP POP POP PUSH1 0x40 MLOAD RETURNDATASIZE PUSH1 0x1F NOT PUSH1 0x1F DUP3 ADD AND DUP3 ADD DUP1 PUSH1 0x40 MSTORE POP DUP2 ADD SWAP1 PUSH2 0x662 SWAP2 SWAP1 PUSH2 0xB85 JUMP JUMPDEST POP POP POP POP JUMP JUMPDEST PUSH2 0x670 PUSH2 0x95E JUMP JUMPDEST PUSH20 0xFFFFFFFFFFFFFFFFFFFFFFFFFFFFFFFFFFFFFFFF AND PUSH2 0x68E PUSH2 0x6EE JUMP JUMPDEST PUSH20 0xFFFFFFFFFFFFFFFFFFFFFFFFFFFFFFFFFFFFFFFF AND EQ PUSH2 0x6E4 JUMPI PUSH1 0x40 MLOAD PUSH32 0x8C379A000000000000000000000000000000000000000000000000000000000 DUP2 MSTORE PUSH1 0x4 ADD PUSH2 0x6DB SWAP1 PUSH2 0xE79 JUMP JUMPDEST PUSH1 0x40 MLOAD DUP1 SWAP2 SUB SWAP1 REVERT JUMPDEST DUP1 PUSH1 0x2 DUP2 SWAP1 SSTORE POP POP JUMP JUMPDEST PUSH1 0x0 DUP1 PUSH1 0x0 SWAP1 SLOAD SWAP1 PUSH2 0x100 EXP SWAP1 DIV PUSH20 0xFFFFFFFFFFFFFFFFFFFFFFFFFFFFFFFFFFFFFFFF AND SWAP1 POP SWAP1 JUMP JUMPDEST PUSH1 0x2 SLOAD DUP2 LT ISZERO PUSH2 0x75C JUMPI PUSH1 0x40 MLOAD PUSH32 0x8C379A000000000000000000000000000000000000000000000000000000000 DUP2 MSTORE PUSH1 0x4 ADD PUSH2 0x753 SWAP1 PUSH2 0xE39 JUMP JUMPDEST PUSH1 0x40 MLOAD DUP1 SWAP2 SUB SWAP1 REVERT JUMPDEST PUSH2 0x78A PUSH1 0x3 PUSH1 0x0 SWAP1 SLOAD SWAP1 PUSH2 0x100 EXP SWAP1 DIV PUSH20 0xFFFFFFFFFFFFFFFFFFFFFFFFFFFFFFFFFFFFFFFF AND CALLER ADDRESS DUP5 PUSH2 0xA2A JUMP JUMPDEST PUSH1 0x0 PUSH8 0xDE0B6B3A7640000 PUSH1 0x2 SLOAD DUP4 PUSH2 0x7A3 SWAP2 SWAP1 PUSH2 0xED0 JUMP JUMPDEST PUSH2 0x7AD SWAP2 SWAP1 PUSH2 0xF01 JUMP JUMPDEST SWAP1 POP PUSH1 0x0 CALLER PUSH20 0xFFFFFFFFFFFFFFFFFFFFFFFFFFFFFFFFFFFFFFFF AND DUP3 PUSH1 0x40 MLOAD PUSH2 0x7D5 SWAP1 PUSH2 0xD2E JUMP JUMPDEST PUSH1 0x0 PUSH1 0x40 MLOAD DUP1 DUP4 SUB DUP2 DUP6 DUP8 GAS CALL SWAP3 POP POP POP RETURNDATASIZE DUP1 PUSH1 0x0 DUP2 EQ PUSH2 0x812 JUMPI PUSH1 0x40 MLOAD SWAP2 POP PUSH1 0x1F NOT PUSH1 0x3F RETURNDATASIZE ADD AND DUP3 ADD PUSH1 0x40 MSTORE RETURNDATASIZE DUP3 MSTORE RETURNDATASIZE PUSH1 0x0 PUSH1 0x20 DUP5 ADD RETURNDATACOPY PUSH2 0x817 JUMP JUMPDEST PUSH1 0x60 SWAP2 POP JUMPDEST POP POP SWAP1 POP DUP1 PUSH2 0x85B JUMPI PUSH1 0x40 MLOAD PUSH32 0x8C379A000000000000000000000000000000000000000000000000000000000 DUP2 MSTORE PUSH1 0x4 ADD PUSH2 0x852 SWAP1 PUSH2 0xE59 JUMP JUMPDEST PUSH1 0x40 MLOAD DUP1 SWAP2 SUB SWAP1 REVERT JUMPDEST POP POP POP JUMP JUMPDEST PUSH1 0x2 SLOAD DUP2 JUMP JUMPDEST PUSH2 0x86E PUSH2 0x95E JUMP JUMPDEST PUSH20 0xFFFFFFFFFFFFFFFFFFFFFFFFFFFFFFFFFFFFFFFF AND PUSH2 0x88C PUSH2 0x6EE JUMP JUMPDEST PUSH20 0xFFFFFFFFFFFFFFFFFFFFFFFFFFFFFFFFFFFFFFFF AND EQ PUSH2 0x8E2 JUMPI PUSH1 0x40 MLOAD PUSH32 0x8C379A000000000000000000000000000000000000000000000000000000000 DUP2 MSTORE PUSH1 0x4 ADD PUSH2 0x8D9 SWAP1 PUSH2 0xE79 JUMP JUMPDEST PUSH1 0x40 MLOAD DUP1 SWAP2 SUB SWAP1 REVERT JUMPDEST PUSH1 0x0 PUSH20 0xFFFFFFFFFFFFFFFFFFFFFFFFFFFFFFFFFFFFFFFF AND DUP2 PUSH20 0xFFFFFFFFFFFFFFFFFFFFFFFFFFFFFFFFFFFFFFFF AND EQ ISZERO PUSH2 0x952 JUMPI PUSH1 0x40 MLOAD PUSH32 0x8C379A000000000000000000000000000000000000000000000000000000000 DUP2 MSTORE PUSH1 0x4 ADD PUSH2 0x949 SWAP1 PUSH2 0xDD9 JUMP JUMPDEST PUSH1 0x40 MLOAD DUP1 SWAP2 SUB SWAP1 REVERT JUMPDEST PUSH2 0x95B DUP2 PUSH2 0x966 JUMP JUMPDEST POP JUMP JUMPDEST PUSH1 0x0 CALLER SWAP1 POP SWAP1 JUMP JUMPDEST PUSH1 0x0 DUP1 PUSH1 0x0 SWAP1 SLOAD SWAP1 PUSH2 0x100 EXP SWAP1 DIV PUSH20 0xFFFFFFFFFFFFFFFFFFFFFFFFFFFFFFFFFFFFFFFF AND SWAP1 POP DUP2 PUSH1 0x0 DUP1 PUSH2 0x100 EXP DUP2 SLOAD DUP2 PUSH20 0xFFFFFFFFFFFFFFFFFFFFFFFFFFFFFFFFFFFFFFFF MUL NOT AND SWAP1 DUP4 PUSH20 0xFFFFFFFFFFFFFFFFFFFFFFFFFFFFFFFFFFFFFFFF AND MUL OR SWAP1 SSTORE POP DUP2 PUSH20 0xFFFFFFFFFFFFFFFFFFFFFFFFFFFFFFFFFFFFFFFF AND DUP2 PUSH20 0xFFFFFFFFFFFFFFFFFFFFFFFFFFFFFFFFFFFFFFFF AND PUSH32 0x8BE0079C531659141344CD1FD0A4F28419497F9722A3DAAFE3B4186F6B6457E0 PUSH1 0x40 MLOAD PUSH1 0x40 MLOAD DUP1 SWAP2 SUB SWAP1 LOG3 POP POP JUMP JUMPDEST PUSH1 0x0 DUP5 PUSH20 0xFFFFFFFFFFFFFFFFFFFFFFFFFFFFFFFFFFFFFFFF AND PUSH4 0x23B872DD DUP6 DUP6 DUP6 PUSH1 0x40 MLOAD DUP5 PUSH4 0xFFFFFFFF AND PUSH1 0xE0 SHL DUP2 MSTORE PUSH1 0x4 ADD PUSH2 0xA69 SWAP4 SWAP3 SWAP2 SWAP1 PUSH2 0xD5E JUMP JUMPDEST PUSH1 0x20 PUSH1 0x40 MLOAD DUP1 DUP4 SUB DUP2 PUSH1 0x0 DUP8 DUP1 EXTCODESIZE ISZERO DUP1 ISZERO PUSH2 0xA83 JUMPI PUSH1 0x0 DUP1 REVERT JUMPDEST POP GAS CALL ISZERO DUP1 ISZERO PUSH2 0xA97 JUMPI RETURNDATASIZE PUSH1 0x0 DUP1 RETURNDATACOPY RETURNDATASIZE PUSH1 0x0 REVERT JUMPDEST POP POP POP POP PUSH1 0x40 MLOAD RETURNDATASIZE PUSH1 0x1F NOT PUSH1 0x1F DUP3 ADD AND DUP3 ADD DUP1 PUSH1 0x40 MSTORE POP DUP2 ADD SWAP1 PUSH2 0xABB SWAP2 SWAP1 PUSH2 0xB85 JUMP JUMPDEST SWAP1 POP DUP1 PUSH2 0xAFD JUMPI PUSH1 0x40 MLOAD PUSH32 0x8C379A000000000000000000000000000000000000000000000000000000000 DUP2 MSTORE PUSH1 0x4 ADD PUSH2 0xAF4 SWAP1 PUSH2 0xE19 JUMP JUMPDEST PUSH1 0x40 MLOAD DUP1 SWAP2 SUB SWAP1 REVERT JUMPDEST POP POP POP POP POP JUMP JUMPDEST PUSH1 0x0 DUP2 CALLDATALOAD SWAP1 POP PUSH2 0xB13 DUP2 PUSH2 0x115B JUMP JUMPDEST SWAP3 SWAP2 POP POP JUMP JUMPDEST PUSH1 0x0 DUP2 MLOAD SWAP1 POP PUSH2 0xB28 DUP2 PUSH2 0x1172 JUMP JUMPDEST SWAP3 SWAP2 POP POP JUMP JUMPDEST PUSH1 0x0 DUP2 CALLDATALOAD SWAP1 POP PUSH2 0xB3D DUP2 PUSH2 0x1189 JUMP JUMPDEST SWAP3 SWAP2 POP POP JUMP JUMPDEST PUSH1 0x0 DUP2 MLOAD SWAP1 POP PUSH2 0xB52 DUP2 PUSH2 0x1189 JUMP JUMPDEST SWAP3 SWAP2 POP POP JUMP JUMPDEST PUSH1 0x0 PUSH1 0x20 DUP3 DUP5 SUB SLT ISZERO PUSH2 0xB6E JUMPI PUSH2 0xB6D PUSH2 0x1037 JUMP JUMPDEST JUMPDEST PUSH1 0x0 PUSH2 0xB7C DUP5 DUP3 DUP6 ADD PUSH2 0xB04 JUMP JUMPDEST SWAP2 POP POP SWAP3 SWAP2 POP POP JUMP JUMPDEST PUSH1 0x0 PUSH1 0x20 DUP3 DUP5 SUB SLT ISZERO PUSH2 0xB9B JUMPI PUSH2 0xB9A PUSH2 0x1037 JUMP JUMPDEST JUMPDEST PUSH1 0x0 PUSH2 0xBA9 DUP5 DUP3 DUP6 ADD PUSH2 0xB19 JUMP JUMPDEST SWAP2 POP POP SWAP3 SWAP2 POP POP JUMP JUMPDEST PUSH1 0x0 PUSH1 0x20 DUP3 DUP5 SUB SLT ISZERO PUSH2 0xBC8 JUMPI PUSH2 0xBC7 PUSH2 0x1037 JUMP JUMPDEST JUMPDEST PUSH1 0x0 PUSH2 0xBD6 DUP5 DUP3 DUP6 ADD PUSH2 0xB2E JUMP JUMPDEST SWAP2 POP POP SWAP3 SWAP2 POP POP JUMP JUMPDEST PUSH1 0x0 PUSH1 0x20 DUP3 DUP5 SUB SLT ISZERO PUSH2 0xBF5 JUMPI PUSH2 0xBF4 PUSH2 0x1037 JUMP JUMPDEST JUMPDEST PUSH1 0x0 PUSH2 0xC03 DUP5 DUP3 DUP6 ADD PUSH2 0xB43 JUMP JUMPDEST SWAP2 POP POP SWAP3 SWAP2 POP POP JUMP JUMPDEST PUSH2 0xC15 DUP2 PUSH2 0xF5B JUMP JUMPDEST DUP3 MSTORE POP POP JUMP JUMPDEST PUSH2 0xC24 DUP2 PUSH2 0xFA3 JUMP JUMPDEST DUP3 MSTORE POP POP JUMP JUMPDEST PUSH1 0x0 PUSH2 0xC37 PUSH1 0x26 DUP4 PUSH2 0xEBF JUMP JUMPDEST SWAP2 POP PUSH2 0xC42 DUP3 PUSH2 0x103C JUMP JUMPDEST PUSH1 0x40 DUP3 ADD SWAP1 POP SWAP2 SWAP1 POP JUMP JUMPDEST PUSH1 0x0 PUSH2 0xC5A PUSH1 0x14 DUP4 PUSH2 0xEBF JUMP JUMPDEST SWAP2 POP PUSH2 0xC65 DUP3 PUSH2 0x108B JUMP JUMPDEST PUSH1 0x20 DUP3 ADD SWAP1 POP SWAP2 SWAP1 POP JUMP JUMPDEST PUSH1 0x0 PUSH2 0xC7D PUSH1 0x15 DUP4 PUSH2 0xEBF JUMP JUMPDEST SWAP2 POP PUSH2 0xC88 DUP3 PUSH2 0x10B4 JUMP JUMPDEST PUSH1 0x20 DUP3 ADD SWAP1 POP SWAP2 SWAP1 POP JUMP JUMPDEST PUSH1 0x0 PUSH2 0xCA0 PUSH1 0x1A DUP4 PUSH2 0xEBF JUMP JUMPDEST SWAP2 POP PUSH2 0xCAB DUP3 PUSH2 0x10DD JUMP JUMPDEST PUSH1 0x20 DUP3 ADD SWAP1 POP SWAP2 SWAP1 POP JUMP JUMPDEST PUSH1 0x0 PUSH2 0xCC3 PUSH1 0x10 DUP4 PUSH2 0xEBF JUMP JUMPDEST SWAP2 POP PUSH2 0xCCE DUP3 PUSH2 0x1106 JUMP JUMPDEST PUSH1 0x20 DUP3 ADD SWAP1 POP SWAP2 SWAP1 POP JUMP JUMPDEST PUSH1 0x0 PUSH2 0xCE6 PUSH1 0x20 DUP4 PUSH2 0xEBF JUMP JUMPDEST SWAP2 POP PUSH2 0xCF1 DUP3 PUSH2 0x112F JUMP JUMPDEST PUSH1 0x20 DUP3 ADD SWAP1 POP SWAP2 SWAP1 POP JUMP JUMPDEST PUSH1 0x0 PUSH2 0xD09 PUSH1 0x0 DUP4 PUSH2 0xEB4 JUMP JUMPDEST SWAP2 POP PUSH2 0xD14 DUP3 PUSH2 0x1158 JUMP JUMPDEST PUSH1 0x0 DUP3 ADD SWAP1 POP SWAP2 SWAP1 POP JUMP JUMPDEST PUSH2 0xD28 DUP2 PUSH2 0xF99 JUMP JUMPDEST DUP3 MSTORE POP POP JUMP JUMPDEST PUSH1 0x0 PUSH2 0xD39 DUP3 PUSH2 0xCFC JUMP JUMPDEST SWAP2 POP DUP2 SWAP1 POP SWAP2 SWAP1 POP JUMP JUMPDEST PUSH1 0x0 PUSH1 0x20 DUP3 ADD SWAP1 POP PUSH2 0xD58 PUSH1 0x0 DUP4 ADD DUP5 PUSH2 0xC0C JUMP JUMPDEST SWAP3 SWAP2 POP POP JUMP JUMPDEST PUSH1 0x0 PUSH1 0x60 DUP3 ADD SWAP1 POP PUSH2 0xD73 PUSH1 0x0 DUP4 ADD DUP7 PUSH2 0xC0C JUMP JUMPDEST PUSH2 0xD80 PUSH1 0x20 DUP4 ADD DUP6 PUSH2 0xC0C JUMP JUMPDEST PUSH2 0xD8D PUSH1 0x40 DUP4 ADD DUP5 PUSH2 0xD1F JUMP JUMPDEST SWAP5 SWAP4 POP POP POP POP JUMP JUMPDEST PUSH1 0x0 PUSH1 0x40 DUP3 ADD SWAP1 POP PUSH2 0xDAA PUSH1 0x0 DUP4 ADD DUP6 PUSH2 0xC0C JUMP JUMPDEST PUSH2 0xDB7 PUSH1 0x20 DUP4 ADD DUP5 PUSH2 0xD1F JUMP JUMPDEST SWAP4 SWAP3 POP POP POP JUMP JUMPDEST PUSH1 0x0 PUSH1 0x20 DUP3 ADD SWAP1 POP PUSH2 0xDD3 PUSH1 0x0 DUP4 ADD DUP5 PUSH2 0xC1B JUMP JUMPDEST SWAP3 SWAP2 POP POP JUMP JUMPDEST PUSH1 0x0 PUSH1 0x20 DUP3 ADD SWAP1 POP DUP2 DUP2 SUB PUSH1 0x0 DUP4 ADD MSTORE PUSH2 0xDF2 DUP2 PUSH2 0xC2A JUMP JUMPDEST SWAP1 POP SWAP2 SWAP1 POP JUMP JUMPDEST PUSH1 0x0 PUSH1 0x20 DUP3 ADD SWAP1 POP DUP2 DUP2 SUB PUSH1 0x0 DUP4 ADD MSTORE PUSH2 0xE12 DUP2 PUSH2 0xC4D JUMP JUMPDEST SWAP1 POP SWAP2 SWAP1 POP JUMP JUMPDEST PUSH1 0x0 PUSH1 0x20 DUP3 ADD SWAP1 POP DUP2 DUP2 SUB PUSH1 0x0 DUP4 ADD MSTORE PUSH2 0xE32 DUP2 PUSH2 0xC70 JUMP JUMPDEST SWAP1 POP SWAP2 SWAP1 POP JUMP JUMPDEST PUSH1 0x0 PUSH1 0x20 DUP3 ADD SWAP1 POP DUP2 DUP2 SUB PUSH1 0x0 DUP4 ADD MSTORE PUSH2 0xE52 DUP2 PUSH2 0xC93 JUMP JUMPDEST SWAP1 POP SWAP2 SWAP1 POP JUMP JUMPDEST PUSH1 0x0 PUSH1 0x20 DUP3 ADD SWAP1 POP DUP2 DUP2 SUB PUSH1 0x0 DUP4 ADD MSTORE PUSH2 0xE72 DUP2 PUSH2 0xCB6 JUMP JUMPDEST SWAP1 POP SWAP2 SWAP1 POP JUMP JUMPDEST PUSH1 0x0 PUSH1 0x20 DUP3 ADD SWAP1 POP DUP2 DUP2 SUB PUSH1 0x0 DUP4 ADD MSTORE PUSH2 0xE92 DUP2 PUSH2 0xCD9 JUMP JUMPDEST SWAP1 POP SWAP2 SWAP1 POP JUMP JUMPDEST PUSH1 0x0 PUSH1 0x20 DUP3 ADD SWAP1 POP PUSH2 0xEAE PUSH1 0x0 DUP4 ADD DUP5 PUSH2 0xD1F JUMP JUMPDEST SWAP3 SWAP2 POP POP JUMP JUMPDEST PUSH1 0x0 DUP2 SWAP1 POP SWAP3 SWAP2 POP POP JUMP JUMPDEST PUSH1 0x0 DUP3 DUP3 MSTORE PUSH1 0x20 DUP3 ADD SWAP1 POP SWAP3 SWAP2 POP POP JUMP JUMPDEST PUSH1 0x0 PUSH2 0xEDB DUP3 PUSH2 0xF99 JUMP JUMPDEST SWAP2 POP PUSH2 0xEE6 DUP4 PUSH2 0xF99 JUMP JUMPDEST SWAP3 POP DUP3 PUSH2 0xEF6 JUMPI PUSH2 0xEF5 PUSH2 0x1008 JUMP JUMPDEST JUMPDEST DUP3 DUP3 DIV SWAP1 POP SWAP3 SWAP2 POP POP JUMP JUMPDEST PUSH1 0x0 PUSH2 0xF0C DUP3 PUSH2 0xF99 JUMP JUMPDEST SWAP2 POP PUSH2 0xF17 DUP4 PUSH2 0xF99 JUMP JUMPDEST SWAP3 POP DUP2 PUSH32 0xFFFFFFFFFFFFFFFFFFFFFFFFFFFFFFFFFFFFFFFFFFFFFFFFFFFFFFFFFFFFFFFF DIV DUP4 GT DUP3 ISZERO ISZERO AND ISZERO PUSH2 0xF50 JUMPI PUSH2 0xF4F PUSH2 0xFD9 JUMP JUMPDEST JUMPDEST DUP3 DUP3 MUL SWAP1 POP SWAP3 SWAP2 POP POP JUMP JUMPDEST PUSH1 0x0 PUSH2 0xF66 DUP3 PUSH2 0xF79 JUMP JUMPDEST SWAP1 POP SWAP2 SWAP1 POP JUMP JUMPDEST PUSH1 0x0 DUP2 ISZERO ISZERO SWAP1 POP SWAP2 SWAP1 POP JUMP JUMPDEST PUSH1 0x0 PUSH20 0xFFFFFFFFFFFFFFFFFFFFFFFFFFFFFFFFFFFFFFFF DUP3 AND SWAP1 POP SWAP2 SWAP1 POP JUMP JUMPDEST PUSH1 0x0 DUP2 SWAP1 POP SWAP2 SWAP1 POP JUMP JUMPDEST PUSH1 0x0 PUSH2 0xFAE DUP3 PUSH2 0xFB5 JUMP JUMPDEST SWAP1 POP SWAP2 SWAP1 POP JUMP JUMPDEST PUSH1 0x0 PUSH2 0xFC0 DUP3 PUSH2 0xFC7 JUMP JUMPDEST SWAP1 POP SWAP2 SWAP1 POP JUMP JUMPDEST PUSH1 0x0 PUSH2 0xFD2 DUP3 PUSH2 0xF79 JUMP JUMPDEST SWAP1 POP SWAP2 SWAP1 POP JUMP JUMPDEST PUSH32 0x4E487B7100000000000000000000000000000000000000000000000000000000 PUSH1 0x0 MSTORE PUSH1 0x11 PUSH1 0x4 MSTORE PUSH1 0x24 PUSH1 0x0 REVERT JUMPDEST PUSH32 0x4E487B7100000000000000000000000000000000000000000000000000000000 PUSH1 0x0 MSTORE PUSH1 0x12 PUSH1 0x4 MSTORE PUSH1 0x24 PUSH1 0x0 REVERT JUMPDEST PUSH1 0x0 DUP1 REVERT JUMPDEST PUSH32 0x4F776E61626C653A206E6577206F776E657220697320746865207A65726F2061 PUSH1 0x0 DUP3 ADD MSTORE PUSH32 0x6464726573730000000000000000000000000000000000000000000000000000 PUSH1 0x20 DUP3 ADD MSTORE POP JUMP JUMPDEST PUSH32 0x4661696C656420746F2073656E64204574686572000000000000000000000000 PUSH1 0x0 DUP3 ADD MSTORE POP JUMP JUMPDEST PUSH32 0x546F6B656E207472616E73666572206661696C65640000000000000000000000 PUSH1 0x0 DUP3 ADD MSTORE POP JUMP JUMPDEST PUSH32 0x4D696E696D756D20747261646520616D6F756E74203120626E62000000000000 PUSH1 0x0 DUP3 ADD MSTORE POP JUMP JUMPDEST PUSH32 0x5472616E73666572206661696C65642100000000000000000000000000000000 PUSH1 0x0 DUP3 ADD MSTORE POP JUMP JUMPDEST PUSH32 0x4F776E61626C653A2063616C6C6572206973206E6F7420746865206F776E6572 PUSH1 0x0 DUP3 ADD MSTORE POP JUMP JUMPDEST POP JUMP JUMPDEST PUSH2 0x1164 DUP2 PUSH2 0xF5B JUMP JUMPDEST DUP2 EQ PUSH2 0x116F JUMPI PUSH1 0x0 DUP1 REVERT JUMPDEST POP JUMP JUMPDEST PUSH2 0x117B DUP2 PUSH2 0xF6D JUMP JUMPDEST DUP2 EQ PUSH2 0x1186 JUMPI PUSH1 0x0 DUP1 REVERT JUMPDEST POP JUMP JUMPDEST PUSH2 0x1192 DUP2 PUSH2 0xF99 JUMP JUMPDEST DUP2 EQ PUSH2 0x119D JUMPI PUSH1 0x0 DUP1 REVERT JUMPDEST POP JUMP INVALID LOG2 PUSH5 0x6970667358 0x22 SLT KECCAK256 JUMPDEST PUSH6 0x4457164337B 0xDE MLOAD PUSH30 0x96C618AE7AE8028CEEA45219830AF79BCB2A95481064736F6C6343000807 STOP CALLER "
				},
				"gasEstimates": {
					"creation": {
						"codeDepositCost": "913200",
						"executionCost": "infinite",
						"totalCost": "infinite"
					},
					"external": {
						"BnbToSafuu()": "2495",
						"buySafuu(uint256)": "infinite",
						"owner()": "2544",
						"renounceOwnership()": "30419",
						"safuu()": "2601",
						"sellSafuu(uint256)": "infinite",
						"setFactor(uint256)": "24760",
						"transferOwnership(address)": "30811",
						"withdrawToOwner()": "infinite"
					},
					"internal": {
						"_safeTransferFrom(contract IERC20,address,address,uint256)": "infinite"
					}
				},
				"methodIdentifiers": {
					"BnbToSafuu()": "ebc4197c",
					"buySafuu(uint256)": "80c31426",
					"owner()": "8da5cb5b",
					"renounceOwnership()": "715018a6",
					"safuu()": "23b160ac",
					"sellSafuu(uint256)": "ade87ecc",
					"setFactor(uint256)": "817e9d31",
					"transferOwnership(address)": "f2fde38b",
					"withdrawToOwner()": "3cb40e16"
				}
			},
			"userdoc": {
				"kind": "user",
				"methods": {},
				"version": 1
			}
		}
	}
}