{
	"data": {
		"bytecode": {
			"linkReferences": {},
			"object": "6080604052600061024e60006101000a81548160ff021916908315150217905550600061024e60016101000a81548160ff021916908315150217905550600061024e60026101000a81548160ff021916908315150217905550600061024e60036101000a81548160ff021916908315150217905550600061024e60046101000a81548160ff021916908315150217905550600061024e60056101000a81548160ff021916908315150217905550348015620000b957600080fd5b5061a4cf80620000ca6000396000f3fe608060405234801561001057600080fd5b50600436106101cf5760003560e01c806364ce07d811610104578063b2f21109116100a2578063e5ac571711610071578063e5ac5717146105ec578063e92fab3b146105f6578063f7523c5214610626578063fed6bde014610656576101cf565b8063b2f211091461052c578063b581fbe31461055c578063d3f87aae1461058c578063dc1a1e09146105bc576101cf565b80638e962c70116100de5780638e962c70146104925780639636c762146104c2578063a2693515146104f2578063a463a08714610522576101cf565b806364ce07d81461040257806378b09c47146104325780638d5dab3514610462576101cf565b8063422b0d8d11610171578063504f5e561161014b578063504f5e561461034257806358be7a8914610372578063595a8d07146103a25780636172f467146103d2576101cf565b8063422b0d8d146102b2578063442b7ffb146102e257806344f7787f14610312576101cf565b806326a4c99f116101ad57806326a4c99f1461023e5780632e4c697f14610248578063344d00951461027857806334eceac014610282576101cf565b80631ea97975146101d457806322aa59fc14610204578063244334261461020e575b600080fd5b6101ee60048036038101906101e99190619ce4565b610660565b6040516101fb9190619f45565b60405180910390f35b61020c6106d6565b005b61022860048036038101906102239190619ce4565b612350565b6040516102359190619f45565b60405180910390f35b610246612391565b005b610262600480360381019061025d9190619d11565b61384f565b60405161026f9190619f45565b60405180910390f35b6102806138e5565b005b61029c60048036038101906102979190619d11565b6152cb565b6040516102a99190619f45565b60405180910390f35b6102cc60048036038101906102c79190619d11565b615393565b6040516102d99190619f45565b60405180910390f35b6102fc60048036038101906102f79190619ce4565b61544d565b6040516103099190619f45565b60405180910390f35b61032c60048036038101906103279190619d11565b61569c565b6040516103399190619f45565b60405180910390f35b61035c60048036038101906103579190619ce4565b615b9e565b6040516103699190619f45565b60405180910390f35b61038c60048036038101906103879190619d11565b615bc7565b6040516103999190619f45565b60405180910390f35b6103bc60048036038101906103b79190619ce4565b615c1a565b6040516103c99190619f45565b60405180910390f35b6103ec60048036038101906103e79190619d11565b615c35565b6040516103f99190619f45565b60405180910390f35b61041c60048036038101906104179190619d11565b615c8e565b6040516104299190619f45565b60405180910390f35b61044c60048036038101906104479190619ce4565b615ccf565b6040516104599190619f45565b60405180910390f35b61047c60048036038101906104779190619ce4565b615d06565b6040516104899190619f45565b60405180910390f35b6104ac60048036038101906104a79190619ce4565b615d3f565b6040516104b99190619f45565b60405180910390f35b6104dc60048036038101906104d79190619ce4565b615d79565b6040516104e99190619f45565b60405180910390f35b61050c60048036038101906105079190619d11565b615db4565b6040516105199190619f45565b60405180910390f35b61052a615e8c565b005b61054660048036038101906105419190619d11565b616d2a565b6040516105539190619f45565b60405180910390f35b61057660048036038101906105719190619ce4565b616d58565b6040516105839190619f45565b60405180910390f35b6105a660048036038101906105a19190619d51565b616e72565b6040516105b39190619f45565b60405180910390f35b6105d660048036038101906105d19190619ce4565b616ecf565b6040516105e39190619f45565b60405180910390f35b6105f4616eea565b005b610610600480360381019061060b9190619d11565b617fc4565b60405161061d9190619f45565b60405180910390f35b610640600480360381019061063b9190619d11565b618169565b60405161064d9190619f45565b60405180910390f35b61065e6181b2565b005b600080600190506000670de0b6b3a764000090506000670de0b6b3a7640000905060005b838311156106ca57670de0b6b3a7640000816106a09190619f71565b90506106b56106af8488618169565b82615c8e565b925082826106c39190619f71565b9150610684565b81945050505050919050565b6f4b3b4ca85a86c47a098a22400000000060c86000602781106106fc576106fb61a2d9565b5b600a02016000600a81106107135761071261a2d9565b5b01819055506f50a19b26283d0b34e82c419e778521b360c860006027811061073e5761073d61a2d9565b5b600a02016001600a81106107555761075461a2d9565b5b01819055506f566b2026a35e43fb189e7d9afd311ca060c86000602781106107805761077f61a2d9565b5b600a02016002600a81106107975761079661a2d9565b5b01819055506f5c9efa9a30c4933df96ffc0f774a744c60c86000602781106107c2576107c161a2d9565b5b600a02016003600a81106107d9576107d861a2d9565b5b01819055506f6344cc47e6d8d888a38d43e4480b40f760c86000602781106108045761080361a2d9565b5b600a02016004600a811061081b5761081a61a2d9565b5b01819055506f6a64c33195499e0731ba5be94803fff160c86000602781106108465761084561a2d9565b5b600a02016005600a811061085d5761085c61a2d9565b5b01819055506f7207a3a4586c4cc4064088ea4276fb5c60c86000602781106108885761088761a2d9565b5b600a02016006600a811061089f5761089e61a2d9565b5b01819055506f7a36d3021aa31ad13619f68058eab61160c86000602781106108ca576108c961a2d9565b5b600a02016007600a81106108e1576108e061a2d9565b5b01819055506f82fc635149ae40556949b9c77aaeb7d460c860006027811061090c5761090b61a2d9565b5b600a02016008600a81106109235761092261a2d9565b5b01819055506f8c631fa0f9b00c8830bcc92f66a8cdfd60c860006027811061094e5761094d61a2d9565b5b600a02016009600a81106109655761096461a2d9565b5b01819055506f4b3b4ca85a86c47a098a22400000000060c86001602781106109905761098f61a2d9565b5b600a02016000600a81106109a7576109a661a2d9565b5b01819055506f4bc1422ac6aec230a72fd844c9aea33160c86001602781106109d2576109d161a2d9565b5b600a02016001600a81106109e9576109e861a2d9565b5b01819055506f4c482634ef728f0d43fd3e29706e261860c8600160278110610a1457610a1361a2d9565b5b600a02016002600a8110610a2b57610a2a61a2d9565b5b01819055506f4ccffa6f902e802e1ef5c9a8be84d8ea60c8600160278110610a5657610a5561a2d9565b5b600a02016003600a8110610a6d57610a6c61a2d9565b5b01819055506f4d58c08658883da39409ffd3360b2db760c8600160278110610a9857610a9761a2d9565b5b600a02016004600a8110610aaf57610aae61a2d9565b5b01819055506f4de27a27f1b16b3aea7b151d4596edfd60c8600160278110610ada57610ad961a2d9565b5b600a02016005600a8110610af157610af061a2d9565b5b01819055506f4e6d290603b3af2ce3f021430787e70760c8600160278110610b1c57610b1b61a2d9565b5b600a02016006600a8110610b3357610b3261a2d9565b5b01819055506f4ef8ced53ac6275dc7b0d659adfe49d160c8600160278110610b5e57610b5d61a2d9565b5b600a02016007600a8110610b7557610b7461a2d9565b5b01819055506f4f856d4d4cac5dfa583fd57df7f3724d60c8600160278110610ba057610b9f61a2d9565b5b600a02016008600a8110610bb757610bb661a2d9565b5b01819055506f50130628fe1ece5b09368f0bf71dde1e60c8600160278110610be257610be161a2d9565b5b600a02016009600a8110610bf957610bf861a2d9565b5b01819055506f4b3b4ca85a86c47a098a22400000000060c8600260278110610c2457610c2361a2d9565b5b600a02016000600a8110610c3b57610c3a61a2d9565b5b01819055506f4b48a7525f322bd41641432d1b296e5360c8600260278110610c6657610c6561a2d9565b5b600a02016001600a8110610c7d57610c7c61a2d9565b5b01819055506f4b56045b3a41b4a74901ff728163244460c8600260278110610ca857610ca761a2d9565b5b600a02016002600a8110610cbf57610cbe61a2d9565b5b01819055506f4b6363c3576d2eaf8e9404badf6fc66760c8600260278110610cea57610ce961a2d9565b5b600a02016003600a8110610d0157610d0061a2d9565b5b01819055506f4b70c58b227f889075c56e7d93fd891760c8600260278110610d2c57610d2b61a2d9565b5b600a02016004600a8110610d4357610d4261a2d9565b5b01819055506f4b7e29b30756d33a10e6f73c041cb39460c8600260278110610d6e57610d6d61a2d9565b5b600a02016005600a8110610d8557610d8461a2d9565b5b01819055506f4b8b903b71e4454e7183b4c100273dc560c8600260278110610db057610daf61a2d9565b5b600a02016006600a8110610dc757610dc661a2d9565b5b01819055506f4b98f924ce2c3e87be6fbfff18a1b52460c8600260278110610df257610df161a2d9565b5b600a02016007600a8110610e0957610e0861a2d9565b5b01819055506f4ba6646f88464b1ee4492e06d6e1b2d460c8600260278110610e3457610e3361a2d9565b5b600a02016008600a8110610e4b57610e4a61a2d9565b5b01819055506f4bb3d21c0c5d2732e086c46abe5f89d160c8600260278110610e7657610e7561a2d9565b5b600a02016009600a8110610e8d57610e8c61a2d9565b5b01819055506f4b3b4ca85a86c47a098a22400000000060c8600360278110610eb857610eb761a2d9565b5b600a02016000600a8110610ecf57610ece61a2d9565b5b01819055506f4b3ca26adc181e23c3f7c5dad355d41e60c8600360278110610efa57610ef961a2d9565b5b600a02016001600a8110610f1157610f1061a2d9565b5b01819055506f4b3df8336e326f421d274ed62dafe5a960c8600360278110610f3c57610f3b61a2d9565b5b600a02016002600a8110610f5357610f5261a2d9565b5b01819055506f4b3f4e0210f144a30d966466400a0ca060c8600360278110610f7e57610f7d61a2d9565b5b600a02016003600a8110610f9557610f9461a2d9565b5b01819055506f4b40a3d6c4702b91b501c642957c6b9e60c8600360278110610fc057610fbf61a2d9565b5b600a02016004600a8110610fd757610fd661a2d9565b5b01819055506f4b41f9b188cab1d65c9dd779526b20ae60c86003602781106110025761100161a2d9565b5b600a02016005600a81106110195761101861a2d9565b5b01819055506f4b434f925e1c65b6794f335934ff081960c86003602781106110445761104361a2d9565b5b600a02016006600a811061105b5761105a61a2d9565b5b01819055506f4b44a5794480d5f4ade34c7284bc6be260c86003602781106110865761108561a2d9565b5b600a02016007600a811061109d5761109c61a2d9565b5b01819055506f4b45fb663c1391d0cd4915af1f0d4a9560c86003602781106110c8576110c761a2d9565b5b600a02016008600a81106110df576110de61a2d9565b5b01819055506f4b47515944f02907dcc9b581ce95b07960c860036027811061110a5761110961a2d9565b5b600a02016009600a81106111215761112061a2d9565b5b01819055506f4b3b4ca85a86c47a098a22400000000060c860046027811061114c5761114b61a2d9565b5b600a02016000600a81106111635761116261a2d9565b5b01819055506f4b3b6ed5219f48be09db701ae9ef16d660c860046027811061118e5761118d61a2d9565b5b600a02016001600a81106111a5576111a461a2d9565b5b01819055506f4b3b9101f83e0ae41c67ff10bc60a57660c86004602781106111d0576111cf61a2d9565b5b600a02016002600a81106111e7576111e661a2d9565b5b01819055506f4b3bb32ede6311f99a899a44d8e4e40260c86004602781106112125761121161a2d9565b5b600a02016003600a81106112295761122861a2d9565b5b01819055506f4b3bd55bd40e650be0ce2710494ba86160c86004602781106112545761125361a2d9565b5b600a02016004600a811061126b5761126a61a2d9565b5b01819055506f4b3bf788d9400b284ef7a6764a559e7960c86004602781106112965761129561a2d9565b5b600a02016005600a81106112ad576112ac61a2d9565b5b01819055506f4b3c19b5edf80b5c47fc3698d70ebbb460c86004602781106112d8576112d761a2d9565b5b600a02016006600a81106112ef576112ee61a2d9565b5b01819055506f4b3c3be312366cb53206142d34d1ee3360c860046027811061131a5761131961a2d9565b5b600a02016007600a81106113315761133061a2d9565b5b01819055506f4b3c5e1045fb364076739bf07ff607e360c860046027811061135c5761135b61a2d9565b5b600a02016008600a81106113735761137261a2d9565b5b01819055506f4b3c803d89466f0b81d74c1c3923e5d560c860046027811061139e5761139d61a2d9565b5b600a02016009600a81106113b5576113b461a2d9565b5b01819055506f4b3b4ca85a86c47a098a22400000000060c86005602781106113e0576113df61a2d9565b5b600a02016000600a81106113f7576113f661a2d9565b5b01819055506f4b3b50133a89943d50fdc16ee0f2f73e60c86005602781106114225761142161a2d9565b5b600a02016001600a81106114395761143861a2d9565b5b01819055506f4b3b537e1ab421ff687c5c6e8878520860c86005602781106114645761146361a2d9565b5b600a02016002600a811061147b5761147a61a2d9565b5b01819055506f4b3b56e8fb066dc21e3032644f2f78c360c86005602781106114a6576114a561a2d9565b5b600a02016003600a81106114bd576114bc61a2d9565b5b01819055506f4b3b5a53db807787404397741c07de0b60c86005602781106114e8576114e761a2d9565b5b600a02016004600a81106114ff576114fe61a2d9565b5b01819055506f4b3b5dbebc223f509ce0f4c0653523dd60c860056027811061152a5761152961a2d9565b5b600a02016005600a81106115415761154061a2d9565b5b01819055506f4b3b61299cebc5200232c86a312340cc60c860056027811061156c5761156b61a2d9565b5b600a02016006600a81106115835761158261a2d9565b5b01819055506f4b3b64947ddd08f73e63a591176aa54160c86005602781106115ae576115ad61a2d9565b5b600a02016007600a81106115c5576115c461a2d9565b5b01819055506f4b3b67ff5ef60ad81f9e345341c460c660c86005602781106115f0576115ef61a2d9565b5b600a02016008600a81106116075761160661a2d9565b5b01819055506f4b3b6b6a4036cac4740d31cd6cfe475a60c86005602781106116325761163161a2d9565b5b600a02016009600a81106116495761164861a2d9565b5b01819055506f4b3b4ca85a86c47a098a22400000000060c86006602781106116745761167361a2d9565b5b600a02016000600a811061168b5761168a61a2d9565b5b01819055506f4b3b4cffd7520f6c63dac18be5cb197f60c86006602781106116b6576116b561a2d9565b5b600a02016001600a81106116cd576116cc61a2d9565b5b01819055506f4b3b4d57541dc01c279c42b2eff446f460c86006602781106116f8576116f761a2d9565b5b600a02016002600a811061170f5761170e61a2d9565b5b01819055506f4b3b4daed0e9d6895544f6205530a6ca60c860066027811061173a5761173961a2d9565b5b600a02016003600a81106117515761175061a2d9565b5b01819055506f4b3b4e064db652b3ed4b2c3fd5cbfcb460c860066027811061177c5761177b61a2d9565b5b600a02016004600a81106117935761179261a2d9565b5b01819055506f4b3b4e5dca83349bf025357dbba8b25160c86006602781106117be576117bd61a2d9565b5b600a02016005600a81106117d5576117d461a2d9565b5b01819055506f4b3b4eb547507c415e496246da3fd7ca60c8600660278110611800576117ff61a2d9565b5b600a02016006600a81106118175761181661a2d9565b5b01819055506f4b3b4f0cc41e29a4382e03088ea1247160c86006602781106118425761184161a2d9565b5b600a02016007600a81106118595761185861a2d9565b5b01819055506f4b3b4f6440ec3cc47e496830bf72f76060c86006602781106118845761188361a2d9565b5b600a02016008600a811061189b5761189a61a2d9565b5b01819055506f4b3b4fbbbdbab5a23111e22ddcf2582060c86006602781106118c6576118c561a2d9565b5b600a02016009600a81106118dd576118dc61a2d9565b5b01819055506f4b3b4ca85a86c47a098a22400000000060c86007602781106119085761190761a2d9565b5b600a02016000600a811061191f5761191e61a2d9565b5b01819055506f4b3b4cb11a34adcb07707cfefb195abe60c860076027811061194a5761194961a2d9565b5b600a02016001600a81106119615761196061a2d9565b5b01819055506f4b3b4cb9d9e298207996e81ff5da2db660c860076027811061198c5761198b61a2d9565b5b600a02016002600a81106119a3576119a261a2d9565b5b01819055506f4b3b4cc29990837a5ffd81ecc5e37ca160c86007602781106119ce576119cd61a2d9565b5b600a02016003600a81106119e5576119e461a2d9565b5b01819055506f4b3b4ccb593e6fd8baa468af40d9d0ec60c8600760278110611a1057611a0f61a2d9565b5b600a02016004600a8110611a2757611a2661a2d9565b5b01819055506f4b3b4cd418ec5d3b898bbab13c6539b760c8600760278110611a5257611a5161a2d9565b5b600a02016005600a8110611a6957611a6861a2d9565b5b01819055506f4b3b4cdcd89a4ba2ccb3963c8e314bd560c8600760278110611a9457611a9361a2d9565b5b600a02016006600a8110611aab57611aaa61a2d9565b5b01819055506f4b3b4ce598483b0e841c199b0bed21cc60c8600760278110611ad657611ad561a2d9565b5b600a02016007600a8110611aed57611aec61a2d9565b5b01819055506f4b3b4cee57f62b7eafc563168b4b5bd460c8600760278110611b1857611b1761a2d9565b5b600a02016008600a8110611b2f57611b2e61a2d9565b5b01819055506f4b3b4cf717a41cf34faf90f8e2021fdb60c8600760278110611b5a57611b5961a2d9565b5b600a02016009600a8110611b7157611b7061a2d9565b5b01819055506f4b3b4ca85a86c47a098a22400000000060c8600860278110611b9c57611b9b61a2d9565b5b600a02016000600a8110611bb357611bb261a2d9565b5b01819055506f4b3b4ca93a7e8ef66a7f91d9c09f21a760c8600860278110611bde57611bdd61a2d9565b5b600a02016001600a8110611bf557611bf461a2d9565b5b01819055506f4b3b4caa1a7659756638348adc3ec58c60c8600860278110611c2057611c1f61a2d9565b5b600a02016002600a8110611c3757611c3661a2d9565b5b01819055506f4b3b4caafa6e23f6fcb40a5b13da368360c8600860278110611c6257611c6161a2d9565b5b600a02016003600a8110611c7957611c7861a2d9565b5b01819055506f4b3b4cabda65ee7b2df31352286cbf7260c8600860278110611ca457611ca361a2d9565b5b600a02016004600a8110611cbb57611cba61a2d9565b5b01819055506f4b3b4cacba5db901f9f54f77daf1ab5a60c8600860278110611ce657611ce561a2d9565b5b600a02016005600a8110611cfd57611cfc61a2d9565b5b01819055506f4b3b4cad9a55838b60babed3ec64455260c8600860278110611d2857611d2761a2d9565b5b600a02016006600a8110611d3f57611d3e61a2d9565b5b01819055506f4b3b4cae7a4d4e176243616e1dbfd88860c8600860278110611d6a57611d6961a2d9565b5b600a02016007600a8110611d8157611d8061a2d9565b5b01819055506f4b3b4caf5a4518a5fe8f374e2fffb04060c8600860278110611dac57611dab61a2d9565b5b600a02016008600a8110611dc357611dc261a2d9565b5b01819055506f4b3b4cb03a3ce337359e407be41f17d660c8600860278110611dee57611ded61a2d9565b5b600a02016009600a8110611e0557611e0461a2d9565b5b01819055506f4b3b4ca85a86c47a098a22400000000060c8600960278110611e3057611e2f61a2d9565b5b600a02016000600a8110611e4757611e4661a2d9565b5b01819055506f4b3b4ca870ec58b98ed4c5fde7bd323260c8600960278110611e7257611e7161a2d9565b5b600a02016001600a8110611e8957611e8861a2d9565b5b01819055506f4b3b4ca88751ecf91aca53344b52c27560c8600960278110611eb457611eb361a2d9565b5b600a02016002600a8110611ecb57611eca61a2d9565b5b01819055506f4b3b4ca89db78138ad6ac9e32cbcd88c60c8600960278110611ef657611ef561a2d9565b5b600a02016003600a8110611f0d57611f0c61a2d9565b5b01819055506f4b3b4ca8b41d157846b62a0a8df79c3760c8600960278110611f3857611f3761a2d9565b5b600a02016004600a8110611f4f57611f4e61a2d9565b5b01819055506f4b3b4ca8ca82a9b7e6ac73aa70ff353860c8600960278110611f7a57611f7961a2d9565b5b600a02016005600a8110611f9157611f9061a2d9565b5b01819055506f4b3b4ca8e0e83df78d4da6c2d7cfcb4f60c8600960278110611fbc57611fbb61a2d9565b5b600a02016006600a8110611fd357611fd261a2d9565b5b01819055506f4b3b4ca8f74dd2373a99c353c465863e60c8600960278110611ffe57611ffd61a2d9565b5b600a02016007600a81106120155761201461a2d9565b5b01819055506f4b3b4ca90db36676ee90c95d38bc8dc660c86009602781106120405761203f61a2d9565b5b600a02016008600a81106120575761205661a2d9565b5b01819055506f4b3b4ca92418fab6a932b8df36d109a960c86009602781106120825761208161a2d9565b5b600a02016009600a81106120995761209861a2d9565b5b01819055506f4b3b4ca85a86c47a098a22400000000060c8600a602781106120c4576120c361a2d9565b5b600a02016000600a81106120db576120da61a2d9565b5b01819055506f4b3b4ca85cc42019fcf7fc9916c7068760c8600a602781106121065761210561a2d9565b5b600a02016001600a811061211d5761211c61a2d9565b5b01819055506f4b3b4ca85f017bb9f076e8a405d0c2e360c8600a602781106121485761214761a2d9565b5b600a02016002600a811061215f5761215e61a2d9565b5b01819055506f4b3b4ca8613ed759e406e660cd1db72a60c8600a6027811061218a5761218961a2d9565b5b600a02016003600a81106121a1576121a061a2d9565b5b01819055506f4b3b4ca8637c32f9d7a7f5cf6cae657260c8600a602781106121cc576121cb61a2d9565b5b600a02016004600a81106121e3576121e261a2d9565b5b01819055506f4b3b4ca865b98e99cb5a16efe4834fd360c8600a6027811061220e5761220d61a2d9565b5b600a02016005600a81106122255761222461a2d9565b5b01819055506f4b3b4ca867f6ea39bf1d49c2349cf86260c8600a602781106122505761224f61a2d9565b5b600a02016006600a81106122675761226661a2d9565b5b01819055506f4b3b4ca86a3445d9b2f18e465cfbe13660c8600a602781106122925761229161a2d9565b5b600a02016007600a81106122a9576122a861a2d9565b5b01819055506f4b3b4ca86c71a179a6d6e47c5da08c6660c8600a602781106122d4576122d361a2d9565b5b600a02016008600a81106122eb576122ea61a2d9565b5b01819055506f4b3b4ca86eaefd199acd4c64368b7c0860c8600a602781106123165761231561a2d9565b5b600a02016009600a811061232d5761232c61a2d9565b5b0181905550600161024e60026101000a81548160ff021916908315150217905550565b600080678ac7230489e8000068056bc75e2d6310000084612371919061a24a565b61237b9190619fc7565b905061238983826014616e72565b915050919050565b6f4b3b4ca85a86c47a098a22400000000060c8601f602781106123b7576123b661a2d9565b5b600a02016000600a81106123ce576123cd61a2d9565b5b01819055506f4b3b4ca85a86c47a098a2240000a939b60c8601f602781106123f9576123f861a2d9565b5b600a02016001600a81106124105761240f61a2d9565b5b01819055506f4b3b4ca85a86c47a098a22400015273660c8601f6027811061243b5761243a61a2d9565b5b600a02016002600a81106124525761245161a2d9565b5b01819055506f4b3b4ca85a86c47a098a2240001fbad260c8601f6027811061247d5761247c61a2d9565b5b600a02016003600a81106124945761249361a2d9565b5b01819055506f4b3b4ca85a86c47a098a2240002a4e6d60c8601f602781106124bf576124be61a2d9565b5b600a02016004600a81106124d6576124d561a2d9565b5b01819055506f4b3b4ca85a86c47a098a22400034e20860c8601f602781106125015761250061a2d9565b5b600a02016005600a81106125185761251761a2d9565b5b01819055506f4b3b4ca85a86c47a098a2240003f75a360c8601f602781106125435761254261a2d9565b5b600a02016006600a811061255a5761255961a2d9565b5b01819055506f4b3b4ca85a86c47a098a2240004a093e60c8601f602781106125855761258461a2d9565b5b600a02016007600a811061259c5761259b61a2d9565b5b01819055506f4b3b4ca85a86c47a098a224000549cd960c8601f602781106125c7576125c661a2d9565b5b600a02016008600a81106125de576125dd61a2d9565b5b01819055506f4b3b4ca85a86c47a098a2240005f307560c8601f602781106126095761260861a2d9565b5b600a02016009600a81106126205761261f61a2d9565b5b01819055506f4b3b4ca85a86c47a098a22400000000060c860206027811061264b5761264a61a2d9565b5b600a02016000600a81106126625761266161a2d9565b5b01819055506f4b3b4ca85a86c47a098a224000010ec360c860206027811061268d5761268c61a2d9565b5b600a02016001600a81106126a4576126a361a2d9565b5b01819055506f4b3b4ca85a86c47a098a224000021d8560c86020602781106126cf576126ce61a2d9565b5b600a02016002600a81106126e6576126e561a2d9565b5b01819055506f4b3b4ca85a86c47a098a224000032c4860c86020602781106127115761271061a2d9565b5b600a02016003600a81106127285761272761a2d9565b5b01819055506f4b3b4ca85a86c47a098a224000043b0b60c86020602781106127535761275261a2d9565b5b600a02016004600a811061276a5761276961a2d9565b5b01819055506f4b3b4ca85a86c47a098a2240000549ce60c86020602781106127955761279461a2d9565b5b600a02016005600a81106127ac576127ab61a2d9565b5b01819055506f4b3b4ca85a86c47a098a22400006589060c86020602781106127d7576127d661a2d9565b5b600a02016006600a81106127ee576127ed61a2d9565b5b01819055506f4b3b4ca85a86c47a098a22400007675360c86020602781106128195761281861a2d9565b5b600a02016007600a81106128305761282f61a2d9565b5b01819055506f4b3b4ca85a86c47a098a22400008761660c860206027811061285b5761285a61a2d9565b5b600a02016008600a81106128725761287161a2d9565b5b01819055506f4b3b4ca85a86c47a098a2240000984d860c860206027811061289d5761289c61a2d9565b5b600a02016009600a81106128b4576128b361a2d9565b5b01819055506f4b3b4ca85a86c47a098a22400000000060c86021602781106128df576128de61a2d9565b5b600a02016000600a81106128f6576128f561a2d9565b5b01819055506f4b3b4ca85a86c47a098a224000001b1360c86021602781106129215761292061a2d9565b5b600a02016001600a81106129385761293761a2d9565b5b01819055506f4b3b4ca85a86c47a098a22400000362760c86021602781106129635761296261a2d9565b5b600a02016002600a811061297a5761297961a2d9565b5b01819055506f4b3b4ca85a86c47a098a22400000513a60c86021602781106129a5576129a461a2d9565b5b600a02016003600a81106129bc576129bb61a2d9565b5b01819055506f4b3b4ca85a86c47a098a224000006c4e60c86021602781106129e7576129e661a2d9565b5b600a02016004600a81106129fe576129fd61a2d9565b5b01819055506f4b3b4ca85a86c47a098a22400000876160c8602160278110612a2957612a2861a2d9565b5b600a02016005600a8110612a4057612a3f61a2d9565b5b01819055506f4b3b4ca85a86c47a098a22400000a27560c8602160278110612a6b57612a6a61a2d9565b5b600a02016006600a8110612a8257612a8161a2d9565b5b01819055506f4b3b4ca85a86c47a098a22400000bd8860c8602160278110612aad57612aac61a2d9565b5b600a02016007600a8110612ac457612ac361a2d9565b5b01819055506f4b3b4ca85a86c47a098a22400000d89c60c8602160278110612aef57612aee61a2d9565b5b600a02016008600a8110612b0657612b0561a2d9565b5b01819055506f4b3b4ca85a86c47a098a22400000f3af60c8602160278110612b3157612b3061a2d9565b5b600a02016009600a8110612b4857612b4761a2d9565b5b01819055506f4b3b4ca85a86c47a098a22400000000060c8602260278110612b7357612b7261a2d9565b5b600a02016000600a8110612b8a57612b8961a2d9565b5b01819055506f4b3b4ca85a86c47a098a2240000002b560c8602260278110612bb557612bb461a2d9565b5b600a02016001600a8110612bcc57612bcb61a2d9565b5b01819055506f4b3b4ca85a86c47a098a22400000056a60c8602260278110612bf757612bf661a2d9565b5b600a02016002600a8110612c0e57612c0d61a2d9565b5b01819055506f4b3b4ca85a86c47a098a22400000081f60c8602260278110612c3957612c3861a2d9565b5b600a02016003600a8110612c5057612c4f61a2d9565b5b01819055506f4b3b4ca85a86c47a098a224000000ad560c8602260278110612c7b57612c7a61a2d9565b5b600a02016004600a8110612c9257612c9161a2d9565b5b01819055506f4b3b4ca85a86c47a098a224000000d8a60c8602260278110612cbd57612cbc61a2d9565b5b600a02016005600a8110612cd457612cd361a2d9565b5b01819055506f4b3b4ca85a86c47a098a22400000103f60c8602260278110612cff57612cfe61a2d9565b5b600a02016006600a8110612d1657612d1561a2d9565b5b01819055506f4b3b4ca85a86c47a098a2240000012f460c8602260278110612d4157612d4061a2d9565b5b600a02016007600a8110612d5857612d5761a2d9565b5b01819055506f4b3b4ca85a86c47a098a2240000015a960c8602260278110612d8357612d8261a2d9565b5b600a02016008600a8110612d9a57612d9961a2d9565b5b01819055506f4b3b4ca85a86c47a098a22400000185e60c8602260278110612dc557612dc461a2d9565b5b600a02016009600a8110612ddc57612ddb61a2d9565b5b01819055506f4b3b4ca85a86c47a098a22400000000060c8602360278110612e0757612e0661a2d9565b5b600a02016000600a8110612e1e57612e1d61a2d9565b5b01819055506f4b3b4ca85a86c47a098a22400000004560c8602360278110612e4957612e4861a2d9565b5b600a02016001600a8110612e6057612e5f61a2d9565b5b01819055506f4b3b4ca85a86c47a098a22400000008b60c8602360278110612e8b57612e8a61a2d9565b5b600a02016002600a8110612ea257612ea161a2d9565b5b01819055506f4b3b4ca85a86c47a098a2240000000d060c8602360278110612ecd57612ecc61a2d9565b5b600a02016003600a8110612ee457612ee361a2d9565b5b01819055506f4b3b4ca85a86c47a098a22400000011560c8602360278110612f0f57612f0e61a2d9565b5b600a02016004600a8110612f2657612f2561a2d9565b5b01819055506f4b3b4ca85a86c47a098a22400000015b60c8602360278110612f5157612f5061a2d9565b5b600a02016005600a8110612f6857612f6761a2d9565b5b01819055506f4b3b4ca85a86c47a098a2240000001a060c8602360278110612f9357612f9261a2d9565b5b600a02016006600a8110612faa57612fa961a2d9565b5b01819055506f4b3b4ca85a86c47a098a2240000001e560c8602360278110612fd557612fd461a2d9565b5b600a02016007600a8110612fec57612feb61a2d9565b5b01819055506f4b3b4ca85a86c47a098a22400000022b60c86023602781106130175761301661a2d9565b5b600a02016008600a811061302e5761302d61a2d9565b5b01819055506f4b3b4ca85a86c47a098a22400000027060c86023602781106130595761305861a2d9565b5b600a02016009600a81106130705761306f61a2d9565b5b01819055506f4b3b4ca85a86c47a098a22400000000060c860246027811061309b5761309a61a2d9565b5b600a02016000600a81106130b2576130b161a2d9565b5b01819055506f4b3b4ca85a86c47a098a22400000000760c86024602781106130dd576130dc61a2d9565b5b600a02016001600a81106130f4576130f361a2d9565b5b01819055506f4b3b4ca85a86c47a098a22400000000e60c860246027811061311f5761311e61a2d9565b5b600a02016002600a81106131365761313561a2d9565b5b01819055506f4b3b4ca85a86c47a098a22400000001560c86024602781106131615761316061a2d9565b5b600a02016003600a81106131785761317761a2d9565b5b01819055506f4b3b4ca85a86c47a098a22400000001c60c86024602781106131a3576131a261a2d9565b5b600a02016004600a81106131ba576131b961a2d9565b5b01819055506f4b3b4ca85a86c47a098a22400000002360c86024602781106131e5576131e461a2d9565b5b600a02016005600a81106131fc576131fb61a2d9565b5b01819055506f4b3b4ca85a86c47a098a22400000002a60c86024602781106132275761322661a2d9565b5b600a02016006600a811061323e5761323d61a2d9565b5b01819055506f4b3b4ca85a86c47a098a22400000003160c86024602781106132695761326861a2d9565b5b600a02016007600a81106132805761327f61a2d9565b5b01819055506f4b3b4ca85a86c47a098a22400000003760c86024602781106132ab576132aa61a2d9565b5b600a02016008600a81106132c2576132c161a2d9565b5b01819055506f4b3b4ca85a86c47a098a22400000003e60c86024602781106132ed576132ec61a2d9565b5b600a02016009600a81106133045761330361a2d9565b5b01819055506f4b3b4ca85a86c47a098a22400000000060c860256027811061332f5761332e61a2d9565b5b600a02016000600a81106133465761334561a2d9565b5b01819055506f4b3b4ca85a86c47a098a22400000000160c86025602781106133715761337061a2d9565b5b600a02016001600a81106133885761338761a2d9565b5b01819055506f4b3b4ca85a86c47a098a22400000000160c86025602781106133b3576133b261a2d9565b5b600a02016002600a81106133ca576133c961a2d9565b5b01819055506f4b3b4ca85a86c47a098a22400000000260c86025602781106133f5576133f461a2d9565b5b600a02016003600a811061340c5761340b61a2d9565b5b01819055506f4b3b4ca85a86c47a098a22400000000360c86025602781106134375761343661a2d9565b5b600a02016004600a811061344e5761344d61a2d9565b5b01819055506f4b3b4ca85a86c47a098a22400000000360c86025602781106134795761347861a2d9565b5b600a02016005600a81106134905761348f61a2d9565b5b01819055506f4b3b4ca85a86c47a098a22400000000460c86025602781106134bb576134ba61a2d9565b5b600a02016006600a81106134d2576134d161a2d9565b5b01819055506f4b3b4ca85a86c47a098a22400000000560c86025602781106134fd576134fc61a2d9565b5b600a02016007600a81106135145761351361a2d9565b5b01819055506f4b3b4ca85a86c47a098a22400000000660c860256027811061353f5761353e61a2d9565b5b600a02016008600a81106135565761355561a2d9565b5b01819055506f4b3b4ca85a86c47a098a22400000000660c86025602781106135815761358061a2d9565b5b600a02016009600a81106135985761359761a2d9565b5b01819055506f4b3b4ca85a86c47a098a22400000000060c86026602781106135c3576135c261a2d9565b5b600a02016000600a81106135da576135d961a2d9565b5b01819055506f4b3b4ca85a86c47a098a22400000000060c86026602781106136055761360461a2d9565b5b600a02016001600a811061361c5761361b61a2d9565b5b01819055506f4b3b4ca85a86c47a098a22400000000060c86026602781106136475761364661a2d9565b5b600a02016002600a811061365e5761365d61a2d9565b5b01819055506f4b3b4ca85a86c47a098a22400000000060c86026602781106136895761368861a2d9565b5b600a02016003600a81106136a05761369f61a2d9565b5b01819055506f4b3b4ca85a86c47a098a22400000000060c86026602781106136cb576136ca61a2d9565b5b600a02016004600a81106136e2576136e161a2d9565b5b01819055506f4b3b4ca85a86c47a098a22400000000060c860266027811061370d5761370c61a2d9565b5b600a02016005600a81106137245761372361a2d9565b5b01819055506f4b3b4ca85a86c47a098a22400000000060c860266027811061374f5761374e61a2d9565b5b600a02016006600a81106137665761376561a2d9565b5b01819055506f4b3b4ca85a86c47a098a22400000000060c86026602781106137915761379061a2d9565b5b600a02016007600a81106137a8576137a761a2d9565b5b01819055506f4b3b4ca85a86c47a098a22400000000160c86026602781106137d3576137d261a2d9565b5b600a02016008600a81106137ea576137e961a2d9565b5b01819055506f4b3b4ca85a86c47a098a22400000000160c86026602781106138155761381461a2d9565b5b600a02016009600a811061382c5761382b61a2d9565b5b0181905550600161024e60056101000a81548160ff021916908315150217905550565b6000670de0b6b3a764000083106138835761387c6138778361387286604661569c565b618169565b616d58565b90506138df565b670de0b6b3a76400008310156138de5760006138ba836138b56138ae670de0b6b3a764000088615c8e565b604661569c565b618169565b90506138d6670de0b6b3a76400006138d183616d58565b615c8e565b9150506138df565b5b92915050565b6f4b3b4ca85a86c47a098a22400000000060c860156027811061390b5761390a61a2d9565b5b600a02016000600a81106139225761392161a2d9565b5b01819055506f4b3b4ca85a86c47a09a2c2630abe4edd60c860156027811061394d5761394c61a2d9565b5b600a02016001600a81106139645761396361a2d9565b5b01819055506f4b3b4ca85a86c47a09bb6286157c9dba60c860156027811061398f5761398e61a2d9565b5b600a02016002600a81106139a6576139a561a2d9565b5b01819055506f4b3b4ca85a86c47a09d402a9203aec9760c86015602781106139d1576139d061a2d9565b5b600a02016003600a81106139e8576139e761a2d9565b5b01819055506f4b3b4ca85a86c47a09eca2cc2af93b7460c8601560278110613a1357613a1261a2d9565b5b600a02016004600a8110613a2a57613a2961a2d9565b5b01819055506f4b3b4ca85a86c47a0a0542ef35b78a5160c8601560278110613a5557613a5461a2d9565b5b600a02016005600a8110613a6c57613a6b61a2d9565b5b01819055506f4b3b4ca85a86c47a0a1de3124075d92f60c8601560278110613a9757613a9661a2d9565b5b600a02016006600a8110613aae57613aad61a2d9565b5b01819055506f4b3b4ca85a86c47a0a3683354b34280c60c8601560278110613ad957613ad861a2d9565b5b600a02016007600a8110613af057613aef61a2d9565b5b01819055506f4b3b4ca85a86c47a0a4f235855f276e960c8601560278110613b1b57613b1a61a2d9565b5b600a02016008600a8110613b3257613b3161a2d9565b5b01819055506f4b3b4ca85a86c47a0a67c37b60b0c5c660c8601560278110613b5d57613b5c61a2d9565b5b600a02016009600a8110613b7457613b7361a2d9565b5b01819055506f4b3b4ca85a86c47a098a22400000000060c8601660278110613b9f57613b9e61a2d9565b5b600a02016000600a8110613bb657613bb561a2d9565b5b01819055506f4b3b4ca85a86c47a098c98a9e7796e4960c8601660278110613be157613be061a2d9565b5b600a02016001600a8110613bf857613bf761a2d9565b5b01819055506f4b3b4ca85a86c47a098f0f13cef2dc9360c8601660278110613c2357613c2261a2d9565b5b600a02016002600a8110613c3a57613c3961a2d9565b5b01819055506f4b3b4ca85a86c47a0991857db66c4adc60c8601660278110613c6557613c6461a2d9565b5b600a02016003600a8110613c7c57613c7b61a2d9565b5b01819055506f4b3b4ca85a86c47a0993fbe79de5b92560c8601660278110613ca757613ca661a2d9565b5b600a02016004600a8110613cbe57613cbd61a2d9565b5b01819055506f4b3b4ca85a86c47a09967251855f276f60c8601660278110613ce957613ce861a2d9565b5b600a02016005600a8110613d0057613cff61a2d9565b5b01819055506f4b3b4ca85a86c47a0998e8bb6cd895b860c8601660278110613d2b57613d2a61a2d9565b5b600a02016006600a8110613d4257613d4161a2d9565b5b01819055506f4b3b4ca85a86c47a099b5f255452040160c8601660278110613d6d57613d6c61a2d9565b5b600a02016007600a8110613d8457613d8361a2d9565b5b01819055506f4b3b4ca85a86c47a099dd58f3bcb724a60c8601660278110613daf57613dae61a2d9565b5b600a02016008600a8110613dc657613dc561a2d9565b5b01819055506f4b3b4ca85a86c47a09a04bf92344e09460c8601660278110613df157613df061a2d9565b5b600a02016009600a8110613e0857613e0761a2d9565b5b01819055506f4b3b4ca85a86c47a098a22400000000060c8601760278110613e3357613e3261a2d9565b5b600a02016000600a8110613e4a57613e4961a2d9565b5b01819055506f4b3b4ca85a86c47a098a614a9725be3b60c8601760278110613e7557613e7461a2d9565b5b600a02016001600a8110613e8c57613e8b61a2d9565b5b01819055506f4b3b4ca85a86c47a098aa0552e4b7c7560c8601760278110613eb757613eb661a2d9565b5b600a02016002600a8110613ece57613ecd61a2d9565b5b01819055506f4b3b4ca85a86c47a098adf5fc5713ab060c8601760278110613ef957613ef861a2d9565b5b600a02016003600a8110613f1057613f0f61a2d9565b5b01819055506f4b3b4ca85a86c47a098b1e6a5c96f8ea60c8601760278110613f3b57613f3a61a2d9565b5b600a02016004600a8110613f5257613f5161a2d9565b5b01819055506f4b3b4ca85a86c47a098b5d74f3bcb72560c8601760278110613f7d57613f7c61a2d9565b5b600a02016005600a8110613f9457613f9361a2d9565b5b01819055506f4b3b4ca85a86c47a098b9c7f8ae2755f60c8601760278110613fbf57613fbe61a2d9565b5b600a02016006600a8110613fd657613fd561a2d9565b5b01819055506f4b3b4ca85a86c47a098bdb8a2208339a60c86017602781106140015761400061a2d9565b5b600a02016007600a81106140185761401761a2d9565b5b01819055506f4b3b4ca85a86c47a098c1a94b92df1d460c86017602781106140435761404261a2d9565b5b600a02016008600a811061405a5761405961a2d9565b5b01819055506f4b3b4ca85a86c47a098c599f5053b00f60c86017602781106140855761408461a2d9565b5b600a02016009600a811061409c5761409b61a2d9565b5b01819055506f4b3b4ca85a86c47a098a22400000000060c86018602781106140c7576140c661a2d9565b5b600a02016000600a81106140de576140dd61a2d9565b5b01819055506f4b3b4ca85a86c47a098a288ddbea2c9f60c86018602781106141095761410861a2d9565b5b600a02016001600a81106141205761411f61a2d9565b5b01819055506f4b3b4ca85a86c47a098a2edbb7d4593f60c860186027811061414b5761414a61a2d9565b5b600a02016002600a81106141625761416161a2d9565b5b01819055506f4b3b4ca85a86c47a098a352993be85de60c860186027811061418d5761418c61a2d9565b5b600a02016003600a81106141a4576141a361a2d9565b5b01819055506f4b3b4ca85a86c47a098a3b776fa8b27e60c86018602781106141cf576141ce61a2d9565b5b600a02016004600a81106141e6576141e561a2d9565b5b01819055506f4b3b4ca85a86c47a098a41c54b92df1d60c86018602781106142115761421061a2d9565b5b600a02016005600a81106142285761422761a2d9565b5b01819055506f4b3b4ca85a86c47a098a4813277d0bbd60c86018602781106142535761425261a2d9565b5b600a02016006600a811061426a5761426961a2d9565b5b01819055506f4b3b4ca85a86c47a098a4e610367385c60c86018602781106142955761429461a2d9565b5b600a02016007600a81106142ac576142ab61a2d9565b5b01819055506f4b3b4ca85a86c47a098a54aedf5164fc60c86018602781106142d7576142d661a2d9565b5b600a02016008600a81106142ee576142ed61a2d9565b5b01819055506f4b3b4ca85a86c47a098a5afcbb3b919b60c86018602781106143195761431861a2d9565b5b600a02016009600a81106143305761432f61a2d9565b5b01819055506f4b3b4ca85a86c47a098a22400000000060c860196027811061435b5761435a61a2d9565b5b600a02016000600a81106143725761437161a2d9565b5b01819055506f4b3b4ca85a86c47a098a22e162ca9e1060c860196027811061439d5761439c61a2d9565b5b600a02016001600a81106143b4576143b361a2d9565b5b01819055506f4b3b4ca85a86c47a098a2382c5953c2060c86019602781106143df576143de61a2d9565b5b600a02016002600a81106143f6576143f561a2d9565b5b01819055506f4b3b4ca85a86c47a098a2424285fda3060c86019602781106144215761442061a2d9565b5b600a02016003600a81106144385761443761a2d9565b5b01819055506f4b3b4ca85a86c47a098a24c58b2a784060c86019602781106144635761446261a2d9565b5b600a02016004600a811061447a5761447961a2d9565b5b01819055506f4b3b4ca85a86c47a098a2566edf5165060c86019602781106144a5576144a461a2d9565b5b600a02016005600a81106144bc576144bb61a2d9565b5b01819055506f4b3b4ca85a86c47a098a260850bfb46060c86019602781106144e7576144e661a2d9565b5b600a02016006600a81106144fe576144fd61a2d9565b5b01819055506f4b3b4ca85a86c47a098a26a9b38a527060c86019602781106145295761452861a2d9565b5b600a02016007600a81106145405761453f61a2d9565b5b01819055506f4b3b4ca85a86c47a098a274b1654f08060c860196027811061456b5761456a61a2d9565b5b600a02016008600a81106145825761458161a2d9565b5b01819055506f4b3b4ca85a86c47a098a27ec791f8e9060c86019602781106145ad576145ac61a2d9565b5b600a02016009600a81106145c4576145c361a2d9565b5b01819055506f4b3b4ca85a86c47a098a22400000000060c8601a602781106145ef576145ee61a2d9565b5b600a02016000600a81106146065761460561a2d9565b5b01819055506f4b3b4ca85a86c47a098a2250237aa96860c8601a602781106146315761463061a2d9565b5b600a02016001600a81106146485761464761a2d9565b5b01819055506f4b3b4ca85a86c47a098a226046f552d060c8601a602781106146735761467261a2d9565b5b600a02016002600a811061468a5761468961a2d9565b5b01819055506f4b3b4ca85a86c47a098a22706a6ffc3860c8601a602781106146b5576146b461a2d9565b5b600a02016003600a81106146cc576146cb61a2d9565b5b01819055506f4b3b4ca85a86c47a098a22808deaa5a060c8601a602781106146f7576146f661a2d9565b5b600a02016004600a811061470e5761470d61a2d9565b5b01819055506f4b3b4ca85a86c47a098a2290b1654f0860c8601a602781106147395761473861a2d9565b5b600a02016005600a81106147505761474f61a2d9565b5b01819055506f4b3b4ca85a86c47a098a22a0d4dff87060c8601a6027811061477b5761477a61a2d9565b5b600a02016006600a81106147925761479161a2d9565b5b01819055506f4b3b4ca85a86c47a098a22b0f85aa1d860c8601a602781106147bd576147bc61a2d9565b5b600a02016007600a81106147d4576147d361a2d9565b5b01819055506f4b3b4ca85a86c47a098a22c11bd54b4060c8601a602781106147ff576147fe61a2d9565b5b600a02016008600a81106148165761481561a2d9565b5b01819055506f4b3b4ca85a86c47a098a22d13f4ff4a860c8601a602781106148415761484061a2d9565b5b600a02016009600a81106148585761485761a2d9565b5b01819055506f4b3b4ca85a86c47a098a22400000000060c8601b602781106148835761488261a2d9565b5b600a02016000600a811061489a5761489961a2d9565b5b01819055506f4b3b4ca85a86c47a098a22419d25ddbe60c8601b602781106148c5576148c461a2d9565b5b600a02016001600a81106148dc576148db61a2d9565b5b01819055506f4b3b4ca85a86c47a098a22433a4bbb7b60c8601b602781106149075761490661a2d9565b5b600a02016002600a811061491e5761491d61a2d9565b5b01819055506f4b3b4ca85a86c47a098a2244d771993960c8601b602781106149495761494861a2d9565b5b600a02016003600a81106149605761495f61a2d9565b5b01819055506f4b3b4ca85a86c47a098a2246749776f660c8601b6027811061498b5761498a61a2d9565b5b600a02016004600a81106149a2576149a161a2d9565b5b01819055506f4b3b4ca85a86c47a098a224811bd54b460c8601b602781106149cd576149cc61a2d9565b5b600a02016005600a81106149e4576149e361a2d9565b5b01819055506f4b3b4ca85a86c47a098a2249aee3327260c8601b60278110614a0f57614a0e61a2d9565b5b600a02016006600a8110614a2657614a2561a2d9565b5b01819055506f4b3b4ca85a86c47a098a224b4c09102f60c8601b60278110614a5157614a5061a2d9565b5b600a02016007600a8110614a6857614a6761a2d9565b5b01819055506f4b3b4ca85a86c47a098a224ce92eeded60c8601b60278110614a9357614a9261a2d9565b5b600a02016008600a8110614aaa57614aa961a2d9565b5b01819055506f4b3b4ca85a86c47a098a224e8654cbaa60c8601b60278110614ad557614ad461a2d9565b5b600a02016009600a8110614aec57614aeb61a2d9565b5b01819055506f4b3b4ca85a86c47a098a22400000000060c8601c60278110614b1757614b1661a2d9565b5b600a02016000600a8110614b2e57614b2d61a2d9565b5b01819055506f4b3b4ca85a86c47a098a22402950962d60c8601c60278110614b5957614b5861a2d9565b5b600a02016001600a8110614b7057614b6f61a2d9565b5b01819055506f4b3b4ca85a86c47a098a224052a12c5960c8601c60278110614b9b57614b9a61a2d9565b5b600a02016002600a8110614bb257614bb161a2d9565b5b01819055506f4b3b4ca85a86c47a098a22407bf1c28660c8601c60278110614bdd57614bdc61a2d9565b5b600a02016003600a8110614bf457614bf361a2d9565b5b01819055506f4b3b4ca85a86c47a098a2240a54258b260c8601c60278110614c1f57614c1e61a2d9565b5b600a02016004600a8110614c3657614c3561a2d9565b5b01819055506f4b3b4ca85a86c47a098a2240ce92eedf60c8601c60278110614c6157614c6061a2d9565b5b600a02016005600a8110614c7857614c7761a2d9565b5b01819055506f4b3b4ca85a86c47a098a2240f7e3850b60c8601c60278110614ca357614ca261a2d9565b5b600a02016006600a8110614cba57614cb961a2d9565b5b01819055506f4b3b4ca85a86c47a098a224121341b3860c8601c60278110614ce557614ce461a2d9565b5b600a02016007600a8110614cfc57614cfb61a2d9565b5b01819055506f4b3b4ca85a86c47a098a22414a84b16460c8601c60278110614d2757614d2661a2d9565b5b600a02016008600a8110614d3e57614d3d61a2d9565b5b01819055506f4b3b4ca85a86c47a098a224173d5479160c8601c60278110614d6957614d6861a2d9565b5b600a02016009600a8110614d8057614d7f61a2d9565b5b01819055506f4b3b4ca85a86c47a098a22400000000060c8601d60278110614dab57614daa61a2d9565b5b600a02016000600a8110614dc257614dc161a2d9565b5b01819055506f4b3b4ca85a86c47a098a22400421a89e60c8601d60278110614ded57614dec61a2d9565b5b600a02016001600a8110614e0457614e0361a2d9565b5b01819055506f4b3b4ca85a86c47a098a22400843513c60c8601d60278110614e2f57614e2e61a2d9565b5b600a02016002600a8110614e4657614e4561a2d9565b5b01819055506f4b3b4ca85a86c47a098a22400c64f9da60c8601d60278110614e7157614e7061a2d9565b5b600a02016003600a8110614e8857614e8761a2d9565b5b01819055506f4b3b4ca85a86c47a098a22401086a27860c8601d60278110614eb357614eb261a2d9565b5b600a02016004600a8110614eca57614ec961a2d9565b5b01819055506f4b3b4ca85a86c47a098a224014a84b1660c8601d60278110614ef557614ef461a2d9565b5b600a02016005600a8110614f0c57614f0b61a2d9565b5b01819055506f4b3b4ca85a86c47a098a224018c9f3b460c8601d60278110614f3757614f3661a2d9565b5b600a02016006600a8110614f4e57614f4d61a2d9565b5b01819055506f4b3b4ca85a86c47a098a22401ceb9c5260c8601d60278110614f7957614f7861a2d9565b5b600a02016007600a8110614f9057614f8f61a2d9565b5b01819055506f4b3b4ca85a86c47a098a2240210d44f060c8601d60278110614fbb57614fba61a2d9565b5b600a02016008600a8110614fd257614fd161a2d9565b5b01819055506f4b3b4ca85a86c47a098a2240252eed8f60c8601d60278110614ffd57614ffc61a2d9565b5b600a02016009600a81106150145761501361a2d9565b5b01819055506f4b3b4ca85a86c47a098a22400000000060c8601e6027811061503f5761503e61a2d9565b5b600a02016000600a81106150565761505561a2d9565b5b01819055506f4b3b4ca85a86c47a098a22400069c41060c8601e602781106150815761508061a2d9565b5b600a02016001600a81106150985761509761a2d9565b5b01819055506f4b3b4ca85a86c47a098a224000d3882060c8601e602781106150c3576150c261a2d9565b5b600a02016002600a81106150da576150d961a2d9565b5b01819055506f4b3b4ca85a86c47a098a2240013d4c2f60c8601e602781106151055761510461a2d9565b5b600a02016003600a811061511c5761511b61a2d9565b5b01819055506f4b3b4ca85a86c47a098a224001a7103f60c8601e602781106151475761514661a2d9565b5b600a02016004600a811061515e5761515d61a2d9565b5b01819055506f4b3b4ca85a86c47a098a22400210d44f60c8601e602781106151895761518861a2d9565b5b600a02016005600a81106151a05761519f61a2d9565b5b01819055506f4b3b4ca85a86c47a098a2240027a985f60c8601e602781106151cb576151ca61a2d9565b5b600a02016006600a81106151e2576151e161a2d9565b5b01819055506f4b3b4ca85a86c47a098a224002e45c6f60c8601e6027811061520d5761520c61a2d9565b5b600a02016007600a81106152245761522361a2d9565b5b01819055506f4b3b4ca85a86c47a098a2240034e207e60c8601e6027811061524f5761524e61a2d9565b5b600a02016008600a81106152665761526561a2d9565b5b01819055506f4b3b4ca85a86c47a098a224003b7e48e60c8601e602781106152915761529061a2d9565b5b600a02016009600a81106152a8576152a761a2d9565b5b0181905550600161024e60046101000a81548160ff021916908315150217905550565b6000808214156152e557670de0b6b3a7640000905061538d565b6000670de0b6b3a764000090505b600183111561537f57600060028461530b919061a24a565b14156153315761531b8485618169565b935060028361532a9190619fc7565b925061537a565b6000600284615340919061a24a565b146153795761534f8482618169565b905061535b8485618169565b9350600260018461536c919061a1c3565b6153769190619fc7565b92505b5b6152f3565b6153898482618169565b9150505b92915050565b6000808214156153a65760019050615447565b6000600190505b60018311156154395760006002846153c5919061a24a565b14156153eb576153d58485619b98565b93506002836153e49190619fc7565b9250615434565b60006002846153fa919061a24a565b14615433576154098482619b98565b90506154158485619b98565b93506002600184615426919061a1c3565b6154309190619fc7565b92505b5b6153ad565b6154438482619b98565b9150505b92915050565b60006001151561024e60029054906101000a900460ff16151514801561548757506001151561024e60039054906101000a900460ff161515145b80156154a757506001151561024e60049054906101000a900460ff161515145b80156154c757506001151561024e60059054906101000a900460ff161515145b615506576040517f08c379a00000000000000000000000000000000000000000000000000000000081526004016154fd90619ea5565b60405180910390fd5b68056bc75e2d631000008210158015615533575068056bc75e2d631000006002615530919061a169565b82105b615572576040517f08c379a000000000000000000000000000000000000000000000000000000000815260040161556990619f05565b60405180910390fd5b6000670de0b6b3a764000083615588919061a169565b905060006f4b3b4ca85a86c47a098a22400000000060026155a9919061a169565b905060006f4b3b4ca85a86c47a098a224000000000836155c9919061a24a565b905060006155d682615d79565b905060005b8181101561568f57600081600a6155f2919061a04b565b6001836155ff9190619f71565b600a61560b919061a04b565b85615616919061a24a565b6156209190619fc7565b90506000811415615631575061567c565b600060c8836025615642919061a1c3565b602781106156535761565261a2d9565b5b600a020182600a81106156695761566861a2d9565b5b015490506156778682615c35565b955050505b80806156879061a201565b9150506155db565b5082945050505050919050565b6000670de0b6b3a76400008310156156e9576040517f08c379a00000000000000000000000000000000000000000000000000000000081526004016156e090619e85565b60405180910390fd5b6000806156ff670de0b6b3a76400006002619b98565b90505b670de0b6b3a76400006002615717919061a169565b8510615b3f57670de0b6b3a76400006340000000615735919061a169565b85106157725761575c85670de0b6b3a76400006340000000615757919061a169565b615c8e565b9450601e8261576b9190619f71565b9150615b3a565b670de0b6b3a764000062100000615789919061a169565b85106157c5576157af85670de0b6b3a7640000621000006157aa919061a169565b615c8e565b94506014826157be9190619f71565b9150615b39565b670de0b6b3a76400006180006157db919061a169565b85106158165761580085670de0b6b3a76400006180006157fb919061a169565b615c8e565b9450600f8261580f9190619f71565b9150615b38565b670de0b6b3a764000061040061582c919061a169565b85106158675761585185670de0b6b3a764000061040061584c919061a169565b615c8e565b9450600a826158609190619f71565b9150615b37565b670de0b6b3a764000061020061587d919061a169565b85106158b8576158a285670de0b6b3a764000061020061589d919061a169565b615c8e565b94506009826158b19190619f71565b9150615b36565b670de0b6b3a76400006101006158ce919061a169565b8510615909576158f385670de0b6b3a76400006101006158ee919061a169565b615c8e565b94506008826159029190619f71565b9150615b35565b670de0b6b3a7640000608061591e919061a169565b85106159585761594285670de0b6b3a7640000608061593d919061a169565b615c8e565b94506007826159519190619f71565b9150615b34565b670de0b6b3a7640000604061596d919061a169565b85106159a75761599185670de0b6b3a7640000604061598c919061a169565b615c8e565b94506006826159a09190619f71565b9150615b33565b670de0b6b3a764000060206159bc919061a169565b85106159f6576159e085670de0b6b3a764000060206159db919061a169565b615c8e565b94506005826159ef9190619f71565b9150615b32565b670de0b6b3a76400006010615a0b919061a169565b8510615a4557615a2f85670de0b6b3a76400006010615a2a919061a169565b615c8e565b9450600482615a3e9190619f71565b9150615b31565b670de0b6b3a76400006008615a5a919061a169565b8510615a9457615a7e85670de0b6b3a76400006008615a79919061a169565b615c8e565b9450600382615a8d9190619f71565b9150615b30565b670de0b6b3a76400006004615aa9919061a169565b8510615ae357615acd85670de0b6b3a76400006004615ac8919061a169565b615c8e565b9450600282615adc9190619f71565b9150615b2f565b670de0b6b3a76400006002615af8919061a169565b8510615b2e57615b1c85670de0b6b3a76400006002615b17919061a169565b615c8e565b9450600182615b2b9190619f71565b91505b5b5b5b5b5b5b5b5b5b5b5b5b615702565b60006c0c9f2c9cd04674edea4000000083615b5a919061a169565b90506000615b876c08bfade8cec3c65ca697cfbe72615b8284615b7d8b8b617fc4565b619c13565b615bc7565b9050615b9281615d3f565b94505050505092915050565b600068056bc75e2d6310000082615bb5919061a24a565b82615bc0919061a1c3565b9050919050565b600080615bd48484619b98565b90506c0c9f2c9cd04674edea40000000615c078260026c0c9f2c9cd04674edea40000000615c029190619fc7565b619c13565b615c119190619fc7565b91505092915050565b60648160648110615c2a57600080fd5b016000915090505481565b600080615c428484619b98565b90506f4b3b4ca85a86c47a098a224000000000615c7b8260026f4b3b4ca85a86c47a098a224000000000615c769190619fc7565b619c13565b615c859190619fc7565b91505092915050565b600080615ca384670de0b6b3a7640000619b98565b905082615cbc82600286615cb79190619fc7565b619c13565b615cc69190619fc7565b91505092915050565b600080629896806305f5e10084615ce6919061a24a565b615cf09190619fc7565b9050615cfe83826008616e72565b915050919050565b600080633b9aca006402540be40084615d1f919061a24a565b615d299190619fc7565b9050615d378382600a616e72565b915050919050565b60008064174876e80064e8d4a5100084615d59919061a24a565b615d639190619fc7565b9050615d718382600c616e72565b915050919050565b600080600090505b60008314615dab57600a83615d969190619fc7565b92508080615da39061a201565b915050615d81565b80915050919050565b600080821415615dd6576f4b3b4ca85a86c47a098a2240000000009050615e86565b60006f4b3b4ca85a86c47a098a22400000000090505b6001831115615e78576000600284615e04919061a24a565b1415615e2a57615e148485615c35565b9350600283615e239190619fc7565b9250615e73565b6000600284615e39919061a24a565b14615e7257615e488482615c35565b9050615e548485615c35565b93506002600184615e65919061a1c3565b615e6f9190619fc7565b92505b5b615dec565b615e828482615c35565b9150505b92915050565b6f96769950b50d88f413144480000000006064600060648110615eb257615eb161a2d9565b5b01819055506f259da6542d43623d04c51120000000006064600160648110615edd57615edc61a2d9565b5b01819055506f12ced32a16a1b11e82628890000000006064600260648110615f0857615f0761a2d9565b5b01819055506f096769950b50d88f41314448000000006064600360648110615f3357615f3261a2d9565b5b01819055506f04b3b4ca85a86c47a098a224000000006064600460648110615f5e57615f5d61a2d9565b5b01819055506f0259da6542d43623d04c5112000000006064600560648110615f8957615f8861a2d9565b5b01819055506f012ced32a16a1b11e8262889000000006064600660648110615fb457615fb361a2d9565b5b01819055506e96769950b50d88f4131444800000006064600760648110615fde57615fdd61a2d9565b5b01819055506e4b3b4ca85a86c47a098a224000000060646008606481106160085761600761a2d9565b5b01819055506e259da6542d43623d04c5112000000060646009606481106160325761603161a2d9565b5b01819055506e12ced32a16a1b11e826288900000006064600a6064811061605c5761605b61a2d9565b5b01819055506e096769950b50d88f413144480000006064600b606481106160865761608561a2d9565b5b01819055506e04b3b4ca85a86c47a098a2240000006064600c606481106160b0576160af61a2d9565b5b01819055506e0259da6542d43623d04c51120000006064600d606481106160da576160d961a2d9565b5b01819055506e012ced32a16a1b11e82628890000006064600e606481106161045761610361a2d9565b5b01819055506d96769950b50d88f41314448000006064600f6064811061612d5761612c61a2d9565b5b01819055506d4b3b4ca85a86c47a098a2240000060646010606481106161565761615561a2d9565b5b01819055506d259da6542d43623d04c511200000606460116064811061617f5761617e61a2d9565b5b01819055506d12ced32a16a1b11e82628890000060646012606481106161a8576161a761a2d9565b5b01819055506d096769950b50d88f41314448000060646013606481106161d1576161d061a2d9565b5b01819055506d04b3b4ca85a86c47a098a224000060646014606481106161fa576161f961a2d9565b5b01819055506d0259da6542d43623d04c5112000060646015606481106162235761622261a2d9565b5b01819055506d012ced32a16a1b11e82628890000606460166064811061624c5761624b61a2d9565b5b01819055506c96769950b50d88f4131444800060646017606481106162745761627361a2d9565b5b01819055506c4b3b4ca85a86c47a098a224000606460186064811061629c5761629b61a2d9565b5b01819055506c259da6542d43623d04c511200060646019606481106162c4576162c361a2d9565b5b01819055506c12ced32a16a1b11e82628890006064601a606481106162ec576162eb61a2d9565b5b01819055506c096769950b50d88f41314448006064601b606481106163145761631361a2d9565b5b01819055506c04b3b4ca85a86c47a098a224006064601c6064811061633c5761633b61a2d9565b5b01819055506c0259da6542d43623d04c5112006064601d606481106163645761636361a2d9565b5b01819055506c012ced32a16a1b11e8262889006064601e6064811061638c5761638b61a2d9565b5b01819055506b96769950b50d88f4131444806064601f606481106163b3576163b261a2d9565b5b01819055506b4b3b4ca85a86c47a098a224060646020606481106163da576163d961a2d9565b5b01819055506b259da6542d43623d04c5112060646021606481106164015761640061a2d9565b5b01819055506b12ced32a16a1b11e8262889060646022606481106164285761642761a2d9565b5b01819055506b096769950b50d88f41314448606460236064811061644f5761644e61a2d9565b5b01819055506b04b3b4ca85a86c47a098a22460646024606481106164765761647561a2d9565b5b01819055506b0259da6542d43623d04c5112606460256064811061649d5761649c61a2d9565b5b01819055506b012ced32a16a1b11e826288960646026606481106164c4576164c361a2d9565b5b01819055506a96769950b50d88f413144460646027606481106164ea576164e961a2d9565b5b01819055506a4b3b4ca85a86c47a098a2260646028606481106165105761650f61a2d9565b5b01819055506a259da6542d43623d04c51160646029606481106165365761653561a2d9565b5b01819055506a12ced32a16a1b11e8262886064602a6064811061655c5761655b61a2d9565b5b01819055506a096769950b50d88f4131446064602b606481106165825761658161a2d9565b5b01819055506a04b3b4ca85a86c47a098a26064602c606481106165a8576165a761a2d9565b5b01819055506a0259da6542d43623d04c516064602d606481106165ce576165cd61a2d9565b5b01819055506a012ced32a16a1b11e826286064602e606481106165f4576165f361a2d9565b5b01819055506996769950b50d88f413146064602f606481106166195761661861a2d9565b5b0181905550694b3b4ca85a86c47a098a606460306064811061663e5761663d61a2d9565b5b018190555069259da6542d43623d04c560646031606481106166635761666261a2d9565b5b01819055506912ced32a16a1b11e826260646032606481106166885761668761a2d9565b5b018190555069096769950b50d88f413160646033606481106166ad576166ac61a2d9565b5b01819055506904b3b4ca85a86c47a09860646034606481106166d2576166d161a2d9565b5b0181905550690259da6542d43623d04c60646035606481106166f7576166f661a2d9565b5b018190555069012ced32a16a1b11e826606460366064811061671c5761671b61a2d9565b5b01819055506896769950b50d88f41360646037606481106167405761673f61a2d9565b5b0181905550684b3b4ca85a86c47a0960646038606481106167645761676361a2d9565b5b018190555068259da6542d43623d0460646039606481106167885761678761a2d9565b5b01819055506812ced32a16a1b11e826064603a606481106167ac576167ab61a2d9565b5b018190555068096769950b50d88f416064603b606481106167d0576167cf61a2d9565b5b01819055506804b3b4ca85a86c47a06064603c606481106167f4576167f361a2d9565b5b0181905550680259da6542d43623d06064603d606481106168185761681761a2d9565b5b018190555068012ced32a16a1b11e86064603e6064811061683c5761683b61a2d9565b5b01819055506796769950b50d88f46064603f6064811061685f5761685e61a2d9565b5b0181905550674b3b4ca85a86c47a60646040606481106168825761688161a2d9565b5b018190555067259da6542d43623d60646041606481106168a5576168a461a2d9565b5b01819055506712ced32a16a1b11e60646042606481106168c8576168c761a2d9565b5b018190555067096769950b50d88f60646043606481106168eb576168ea61a2d9565b5b01819055506704b3b4ca85a86c47606460446064811061690e5761690d61a2d9565b5b0181905550670259da6542d4362360646045606481106169315761693061a2d9565b5b018190555067012ced32a16a1b1160646046606481106169545761695361a2d9565b5b01819055506696769950b50d8860646047606481106169765761697561a2d9565b5b0181905550664b3b4ca85a86c460646048606481106169985761699761a2d9565b5b018190555066259da6542d436260646049606481106169ba576169b961a2d9565b5b01819055506612ced32a16a1b16064604a606481106169dc576169db61a2d9565b5b018190555066096769950b50d86064604b606481106169fe576169fd61a2d9565b5b01819055506604b3b4ca85a86c6064604c60648110616a2057616a1f61a2d9565b5b0181905550660259da6542d4366064604d60648110616a4257616a4161a2d9565b5b018190555066012ced32a16a1b6064604e60648110616a6457616a6361a2d9565b5b01819055506596769950b50d6064604f60648110616a8557616a8461a2d9565b5b0181905550654b3b4ca85a866064605060648110616aa657616aa561a2d9565b5b018190555065259da6542d436064605160648110616ac757616ac661a2d9565b5b01819055506512ced32a16a16064605260648110616ae857616ae761a2d9565b5b018190555065096769950b506064605360648110616b0957616b0861a2d9565b5b01819055506504b3b4ca85a86064605460648110616b2a57616b2961a2d9565b5b0181905550650259da6542d46064605560648110616b4b57616b4a61a2d9565b5b018190555065012ced32a16a6064605660648110616b6c57616b6b61a2d9565b5b01819055506496769950b56064605760648110616b8c57616b8b61a2d9565b5b0181905550644b3b4ca85a6064605860648110616bac57616bab61a2d9565b5b018190555064259da6542d6064605960648110616bcc57616bcb61a2d9565b5b01819055506412ced32a166064605a60648110616bec57616beb61a2d9565b5b018190555064096769950b6064605b60648110616c0c57616c0b61a2d9565b5b01819055506404b3b4ca856064605c60648110616c2c57616c2b61a2d9565b5b0181905550640259da65426064605d60648110616c4c57616c4b61a2d9565b5b018190555064012ced32a16064605e60648110616c6c57616c6b61a2d9565b5b018190555063967699506064605f60648110616c8b57616c8a61a2d9565b5b0181905550634b3b4ca86064606060648110616caa57616ca961a2d9565b5b018190555063259da6546064606160648110616cc957616cc861a2d9565b5b01819055506312ced32a6064606260648110616ce857616ce761a2d9565b5b018190555063096769956064606360648110616d0757616d0661a2d9565b5b0181905550600161024e60016101000a81548160ff021916908315150217905550565b60c88260278110616d3a57600080fd5b600a020181600a8110616d4c57600080fd5b01600091509150505481565b600080600080616d6d8564e8d4a51000619b98565b9450616d866c1235995e1e4b3c4c2e092eb92a86615bc7565b9450616d9185615d06565b945068056bc75e2d6310000085108015616dac575060008510155b15616dfe57616dc468056bc75e2d6310000086619c13565b915060026f4b3b4ca85a86c47a098a224000000000616de39190619fc7565b9050616df781616df28461544d565b615c35565b9350616e5f565b68056bc75e2d63100000616e1186615b9e565b616e1b919061a1c3565b92508285616e29919061a1c3565b9150616e486002616e438568056bc75e2d63100000619c71565b615393565b9050616e5c81616e578461544d565b619b98565b93505b616e6884612350565b9350505050919050565b60006005831015616e9a57616e938483600a616e8e919061a04b565b619c71565b9050616ec8565b60058310616ec7576001616eba8584600a616eb5919061a04b565b619c71565b616ec49190619f71565b90505b5b9392505050565b60008160648110616edf57600080fd5b016000915090505481565b600080600060648110616f0057616eff61a2d9565b5b01819055506f35326198caa4cf0398dd2df4a401fff86000600160648110616f2b57616f2a61a2d9565b5b01819055506f3f43136bbc1145a3d84ccd8fde8050606000600260648110616f5657616f5561a2d9565b5b01819055506f44fcdaff61cc4ceae78af7acfc2dcb346000600360648110616f8157616f8061a2d9565b5b01819055506f480ac4b15dff81588c37988631acc6496000600460648110616fac57616fab61a2d9565b5b01819055506f499e9cc45b22529d4b6abaa6c727fa206000600560648110616fd757616fd661a2d9565b5b01819055506f4a6bd6a98878b7e749bca36139d8d43960006006606481106170025761700161a2d9565b5b01819055506f4ad349c2776ffca447fac2991089d496600060076064811061702d5761702c61a2d9565b5b01819055506f4b07392f52b5c840e2f500a685315e1060006008606481106170585761705761a2d9565b5b01819055506f4b213e68c12287618b3844474164936660006009606481106170835761708261a2d9565b5b01819055506f4b2e4467966940f3e15f711b485e0c546000600a606481106170ae576170ad61a2d9565b5b01819055506f4b34c83fb45aa7f02968d3f10c7bf1796000600b606481106170d9576170d861a2d9565b5b01819055506f4b380a61f5a1002253dd42289d3f4eac6000600c606481106171045761710361a2d9565b5b01819055506f4b39ab80a386e7ea4aa8befbc274a5936000600d6064811061712f5761712e61a2d9565b5b01819055506f4b3a7c135de075ee193ece3e8ec0de146000600e6064811061715a5761715961a2d9565b5b01819055506f4b3ae45d93e9a0ecb716a961237770f66000600f606481106171855761718461a2d9565b5b01819055506f4b3b1882e525a71aafc82b1e629fd4f660006010606481106171b0576171af61a2d9565b5b01819055506f4b3b32959b519153545560036c6f85a760006011606481106171db576171da61a2d9565b5b01819055506f4b3b3f9ef9cb0196d145667cf95b889160006012606481106172065761720561a2d9565b5b01819055506f4b3b4623a9e098ae32898d763688291260006013606481106172315761723061a2d9565b5b01819055506f4b3b496602219bfcc6e3c6e7270bab63600060146064811061725c5761725b61a2d9565b5b01819055506f4b3b4b072e4fab95795f9efc3a14fb8d60006015606481106172875761728661a2d9565b5b01819055506f4b3b4bd7c46a16de429d50fdc920a2e560006016606481106172b2576172b161a2d9565b5b01819055506f4b3b4c400f782561c5f99e6e8cc40d7660006017606481106172dd576172dc61a2d9565b5b01819055506f4b3b4c7434ff62db4faed2a218e2ba6860006018606481106173085761730761a2d9565b5b01819055506f4b3b4c8e47c30f26069626269d2ce29960006019606481106173335761733261a2d9565b5b01819055506f4b3b4c9b5124e8aede8e5d050e398bb36000601a6064811061735e5761735d61a2d9565b5b01819055506f4b3b4ca1d5d5d64c29abc793827320756000601b606481106173895761738861a2d9565b5b01819055506f4b3b4ca5182e4d510702d61d917cca2f6000601c606481106173b4576173b361a2d9565b5b01819055506f4b3b4ca6b95a88e103a07462aefce70c6000601d606481106173df576173de61a2d9565b5b01819055506f4b3b4ca789f0a6ac656bc95b2f53ca626000601e6064811061740a5761740961a2d9565b5b01819055506f4b3b4ca7f23bb592ef30954fa967f1b36000601f606481106174355761743461a2d9565b5b01819055506f4b3b4ca826613d066a4ac3a84c9c92d460006020606481106174605761745f61a2d9565b5b01819055506f4b3b4ca8407400c03565ccec42b792c3600060216064811061748b5761748a61a2d9565b5b01819055506f4b3b4ca84d7d629d1e56ce142844001360006022606481106174b6576174b561a2d9565b5b01819055506f4b3b4ca85402138b93a82dc995d5ca4260006023606481106174e1576174e061a2d9565b5b01819055506f4b3b4ca857446c02ce87156cab570f40600060246064811061750c5761750b61a2d9565b5b01819055506f4b3b4ca858e5983e6c0417304dc6791a60006025606481106175375761753661a2d9565b5b01819055506f4b3b4ca859b62e5c3ac5fb8ea4e9f5ca60006026606481106175625761756161a2d9565b5b01819055506f4b3b4ca85a1e796b2227c69cf1f6a8d0600060276064811061758d5761758c61a2d9565b5b01819055506f4b3b4ca85a529ef295d8e25be0dbbfd660006028606481106175b8576175b761a2d9565b5b01819055506f4b3b4ca85a6cb1b64fb17dc94a65fac560006029606481106175e3576175e261a2d9565b5b01819055506f4b3b4ca85a79bb182c9dcee37bb104196000602a6064811061760e5761760d61a2d9565b5b01819055506f4b3b4ca85a803fc91b13f849737803ba6000602b606481106176395761763861a2d9565b5b01819055506f4b3b4ca85a838221924f0d32a723e2486000602c606481106176645761766361a2d9565b5b01819055506f4b3b4ca85a85234dcdec97b4ceebe93f6000602d6064811061768f5761768e61a2d9565b5b01819055506f4b3b4ca85a85f3e3ebbb5cf9464c72a66000602e606481106176ba576176b961a2d9565b5b01819055506f4b3b4ca85a865c2efaa2bf9c5adbd8d56000602f606481106176e5576176e461a2d9565b5b01819055506f4b3b4ca85a869054821670ee1b5b544b60006030606481106177105761770f61a2d9565b5b01819055506f4b3b4ca85a86aa6745d049970929041e600060316064811061773b5761773a61a2d9565b5b01819055506f4b3b4ca85a86b770a7ad35eb8373588d60006032606481106177665761776561a2d9565b5b01819055506f4b3b4ca85a86bdf5589bac15c17161e660006033606481106177915761779061a2d9565b5b01819055506f4b3b4ca85a86c137b112e72ae0a69e5b60006034606481106177bc576177bb61a2d9565b5b01819055506f4b3b4ca85a86c2d8dd4e84b5704eca8760006035606481106177e7576177e661a2d9565b5b01819055506f4b3b4ca85a86c3a9736c537ab826441a60006036606481106178125761781161a2d9565b5b01819055506f4b3b4ca85a86c411be7b3add5c12d9c3600060376064811061783d5761783c61a2d9565b5b01819055506f4b3b4ca85a86c445e402ae8eae095acf60006038606481106178685761786761a2d9565b5b01819055506f4b3b4ca85a86c45ff6c668675704a8e360006039606481106178935761789261a2d9565b5b01819055506f4b3b4ca85a86c46d00284553ab8253506000603a606481106178be576178bd61a2d9565b5b01819055506f4b3b4ca85a86c47384d933c9d5c129606000603b606481106178e9576178e861a2d9565b5b01819055506f4b3b4ca85a86c476c731ab04eae0949e6000603c606481106179145761791361a2d9565b5b01819055506f4b3b4ca85a86c478685de6a275704a4a6000603d6064811061793f5761793e61a2d9565b5b01819055506f4b3b4ca85a86c47938f404713ab825246000603e6064811061796a5761796961a2d9565b5b01819055506f4b3b4ca85a86c479a13f13589d5c12926000603f606481106179955761799461a2d9565b5b01819055506f4b3b4ca85a86c479d5649acc4eae094960006040606481106179c0576179bf61a2d9565b5b01819055506f4b3b4ca85a86c479ef775e86275704a460006041606481106179eb576179ea61a2d9565b5b01819055506f4b3b4ca85a86c479fc80c06313ab82526000604260648110617a1657617a1561a2d9565b5b01819055506f4b3b4ca85a86c47a0305715189d5c1296000604360648110617a4157617a4061a2d9565b5b01819055506f4b3b4ca85a86c47a0647c9c8c4eae0956000604460648110617a6c57617a6b61a2d9565b5b01819055506f4b3b4ca85a86c47a07e8f6046275704a6000604560648110617a9757617a9661a2d9565b5b01819055506f4b3b4ca85a86c47a08b98c22313ab8256000604660648110617ac257617ac161a2d9565b5b01819055506f4b3b4ca85a86c47a0921d731189d5c136000604760648110617aed57617aec61a2d9565b5b01819055506f4b3b4ca85a86c47a0955fcb88c4eae096000604860648110617b1857617b1761a2d9565b5b01819055506f4b3b4ca85a86c47a09700f7c462757056000604960648110617b4357617b4261a2d9565b5b01819055506f4b3b4ca85a86c47a097d18de2313ab826000604a60648110617b6e57617b6d61a2d9565b5b01819055506f4b3b4ca85a86c47a09839d8f1189d5c16000604b60648110617b9957617b9861a2d9565b5b01819055506f4b3b4ca85a86c47a0986dfe788c4eae16000604c60648110617bc457617bc361a2d9565b5b01819055506f4b3b4ca85a86c47a09888113c46275706000604d60648110617bef57617bee61a2d9565b5b01819055506f4b3b4ca85a86c47a098951a9e2313ab86000604e60648110617c1a57617c1961a2d9565b5b01819055506f4b3b4ca85a86c47a0989b9f4f1189d5c6000604f60648110617c4557617c4461a2d9565b5b01819055506f4b3b4ca85a86c47a0989ee1a788c4eae6000605060648110617c7057617c6f61a2d9565b5b01819055506f4b3b4ca85a86c47a098a082d3c4627576000605160648110617c9b57617c9a61a2d9565b5b01819055506f4b3b4ca85a86c47a098a15369e2313ac6000605260648110617cc657617cc561a2d9565b5b01819055506f4b3b4ca85a86c47a098a1bbb4f1189d66000605360648110617cf157617cf061a2d9565b5b01819055506f4b3b4ca85a86c47a098a1efda788c4eb6000605460648110617d1c57617d1b61a2d9565b5b01819055506f4b3b4ca85a86c47a098a209ed3c462756000605560648110617d4757617d4661a2d9565b5b01819055506f4b3b4ca85a86c47a098a216f69e2313b6000605660648110617d7257617d7161a2d9565b5b01819055506f4b3b4ca85a86c47a098a21d7b4f1189d6000605760648110617d9d57617d9c61a2d9565b5b01819055506f4b3b4ca85a86c47a098a220bda788c4f6000605860648110617dc857617dc761a2d9565b5b01819055506f4b3b4ca85a86c47a098a2225ed3c46276000605960648110617df357617df261a2d9565b5b01819055506f4b3b4ca85a86c47a098a2232f69e23146000605a60648110617e1e57617e1d61a2d9565b5b01819055506f4b3b4ca85a86c47a098a22397b4f118a6000605b60648110617e4957617e4861a2d9565b5b01819055506f4b3b4ca85a86c47a098a223cbda788c56000605c60648110617e7457617e7361a2d9565b5b01819055506f4b3b4ca85a86c47a098a223e5ed3c4626000605d60648110617e9f57617e9e61a2d9565b5b01819055506f4b3b4ca85a86c47a098a223f2f69e2316000605e60648110617eca57617ec961a2d9565b5b01819055506f4b3b4ca85a86c47a098a223f97b4f1196000605f60648110617ef557617ef461a2d9565b5b01819055506f4b3b4ca85a86c47a098a223fcbda788c6000606060648110617f2057617f1f61a2d9565b5b01819055506f4b3b4ca85a86c47a098a223fe5ed3c466000606160648110617f4b57617f4a61a2d9565b5b01819055506f4b3b4ca85a86c47a098a223ff2f69e236000606260648110617f7657617f7561a2d9565b5b01819055506f4b3b4ca85a86c47a098a223ff97b4f126000606360648110617fa157617fa061a2d9565b5b0181905550600161024e60006101000a81548160ff021916908315150217905550565b60006001151561024e60009054906101000a900460ff161515148015617ffe57506001151561024e60019054906101000a900460ff161515145b61803d576040517f08c379a000000000000000000000000000000000000000000000000000000000815260040161803490619ec5565b60405180910390fd5b670de0b6b3a764000083101580156180685750670de0b6b3a76400006002618065919061a169565b83105b6180a7576040517f08c379a000000000000000000000000000000000000000000000000000000000815260040161809e90619f05565b60405180910390fd5b60006180bc8468056bc75e2d63100000619b98565b905060006f4b3b4ca85a86c47a098a2240000000009050600080600190505b85811161815457618101600082606481106180f9576180f861a2d9565b5b015485615c35565b92506f4b3b4ca85a86c47a098a224000000000831061814157829350606481606481106181315761813061a2d9565b5b01548261813e9190619f71565b91505b808061814c9061a201565b9150506180db565b5061815e81615ccf565b935050505092915050565b6000806181768484619b98565b9050670de0b6b3a764000061819f826002670de0b6b3a764000061819a9190619fc7565b619c13565b6181a99190619fc7565b91505092915050565b6f4b3b4ca85a86c47a098a22400000000060c8600b602781106181d8576181d761a2d9565b5b600a02016000600a81106181ef576181ee61a2d9565b5b01819055506f4b3b4ca85ac01a706eadf372d36d133860c8600b6027811061821a5761821961a2d9565b5b600a02016001600a81106182315761823061a2d9565b5b01819055506f4b3b4ca85af97066d3d1f05811f9885d60c8600b6027811061825c5761825b61a2d9565b5b600a02016002600a81106182735761827261a2d9565b5b01819055506f4b3b4ca85b32c65d38f618efbba55f9160c8600b6027811061829e5761829d61a2d9565b5b600a02016003600a81106182b5576182b461a2d9565b5b01819055506f4b3b4ca85b6c1c539e1a6d39d07098f560c8600b602781106182e0576182df61a2d9565b5b600a02016004600a81106182f7576182f661a2d9565b5b01819055506f4b3b4ca85ba5724a033eed36505b34aa60c8600b602781106183225761832161a2d9565b5b600a02016005600a81106183395761833861a2d9565b5b01819055506f4b3b4ca85bdec840686398e53b6532d260c8600b602781106183645761836361a2d9565b5b600a02016006600a811061837b5761837a61a2d9565b5b01819055506f4b3b4ca85c181e36cd887046918e938e60c8600b602781106183a6576183a561a2d9565b5b600a02016007600a81106183bd576183bc61a2d9565b5b01819055506f4b3b4ca85c51742d32ad735a52d7570060c8600b602781106183e8576183e761a2d9565b5b600a02016008600a81106183ff576183fe61a2d9565b5b01819055506f4b3b4ca85c8aca2397d2a2207f3f7d4760c8600b6027811061842a5761842961a2d9565b5b600a02016009600a81106184415761844061a2d9565b5b01819055506f4b3b4ca85a86c47a098a22400000000060c8600c6027811061846c5761846b61a2d9565b5b600a02016000600a81106184835761848261a2d9565b5b01819055506f4b3b4ca85a8c8045e0741b9a7e66ef7060c8600c602781106184ae576184ad61a2d9565b5b600a02016001600a81106184c5576184c461a2d9565b5b01819055506f4b3b4ca85a923c11b75e1564da09107f60c8600c602781106184f0576184ef61a2d9565b5b600a02016002600a81106185075761850661a2d9565b5b01819055506f4b3b4ca85a97f7dd8e480f9f12e6632c60c8600c602781106185325761853161a2d9565b5b600a02016003600a81106185495761854861a2d9565b5b01819055506f4b3b4ca85a9db3a965320a4928fee77760c8600c602781106185745761857361a2d9565b5b600a02016004600a811061858b5761858a61a2d9565b5b01819055506f4b3b4ca85aa36f753c1c05631c529d6060c8600c602781106185b6576185b561a2d9565b5b600a02016005600a81106185cd576185cc61a2d9565b5b01819055506f4b3b4ca85aa92b41130600ecece184e860c8600c602781106185f8576185f761a2d9565b5b600a02016006600a811061860f5761860e61a2d9565b5b01819055506f4b3b4ca85aaee70ce9effce69aab9e0e60c8600c6027811061863a5761863961a2d9565b5b600a02016007600a81106186515761865061a2d9565b5b01819055506f4b3b4ca85ab4a2d8c0d9f95025b0e8d360c8600c6027811061867c5761867b61a2d9565b5b600a02016008600a81106186935761869261a2d9565b5b01819055506f4b3b4ca85aba5ea497c3f6298df1653660c8600c602781106186be576186bd61a2d9565b5b600a02016009600a81106186d5576186d461a2d9565b5b01819055506f4b3b4ca85a86c47a098a22400000000060c8600d60278110618700576186ff61a2d9565b5b600a02016000600a81106187175761871661a2d9565b5b01819055506f4b3b4ca85a8757419f07ee5d9d9096fe60c8600d602781106187425761874161a2d9565b5b600a02016001600a81106187595761875861a2d9565b5b01819055506f4b3b4ca85a87ea093485ba7c59807dd760c8600d602781106187845761878361a2d9565b5b600a02016002600a811061879b5761879a61a2d9565b5b01819055506f4b3b4ca85a887cd0ca03869c33cfb48b60c8600d602781106187c6576187c561a2d9565b5b600a02016003600a81106187dd576187dc61a2d9565b5b01819055506f4b3b4ca85a890f985f8152bd2c7e3b1a60c8600d602781106188085761880761a2d9565b5b600a02016004600a811061881f5761881e61a2d9565b5b01819055506f4b3b4ca85a89a25ff4ff1edf438c118460c8600d6027811061884a5761884961a2d9565b5b600a02016005600a81106188615761886061a2d9565b5b01819055506f4b3b4ca85a8a35278a7ceb0278f937ca60c8600d6027811061888c5761888b61a2d9565b5b600a02016006600a81106188a3576188a261a2d9565b5b01819055506f4b3b4ca85a8ac7ef1ffab726ccc5adeb60c8600d602781106188ce576188cd61a2d9565b5b600a02016007600a81106188e5576188e461a2d9565b5b01819055506f4b3b4ca85a8b5ab6b578834c3ef173e760c8600d602781106189105761890f61a2d9565b5b600a02016008600a81106189275761892661a2d9565b5b01819055506f4b3b4ca85a8bed7e4af64f72cf7c89be60c8600d602781106189525761895161a2d9565b5b600a02016009600a81106189695761896861a2d9565b5b01819055506f4b3b4ca85a86c47a098a22400000000060c8600e602781106189945761899361a2d9565b5b600a02016000600a81106189ab576189aa61a2d9565b5b01819055506f4b3b4ca85a86d327987d1d0fb611d99660c8600e602781106189d6576189d561a2d9565b5b600a02016001600a81106189ed576189ec61a2d9565b5b01819055506f4b3b4ca85a86e1d5277017df6f00d02160c8600e60278110618a1857618a1761a2d9565b5b600a02016002600a8110618a2f57618a2e61a2d9565b5b01819055506f4b3b4ca85a86f082b66312af2acce3a260c8600e60278110618a5a57618a5961a2d9565b5b600a02016003600a8110618a7157618a7061a2d9565b5b01819055506f4b3b4ca85a86ff3045560d7ee976141860c8600e60278110618a9c57618a9b61a2d9565b5b600a02016004600a8110618ab357618ab261a2d9565b5b01819055506f4b3b4ca85a870dddd449084eaafc618360c8600e60278110618ade57618add61a2d9565b5b600a02016005600a8110618af557618af461a2d9565b5b01819055506f4b3b4ca85a871c8b633c031e6f5fcbe460c8600e60278110618b2057618b1f61a2d9565b5b600a02016006600a8110618b3757618b3661a2d9565b5b01819055506f4b3b4ca85a872b38f22efdee36a0533b60c8600e60278110618b6257618b6161a2d9565b5b600a02016007600a8110618b7957618b7861a2d9565b5b01819055506f4b3b4ca85a8739e68121f8be00bdf78660c8600e60278110618ba457618ba361a2d9565b5b600a02016008600a8110618bbb57618bba61a2d9565b5b01819055506f4b3b4ca85a8748941014f38dcdb8b8c760c8600e60278110618be657618be561a2d9565b5b600a02016009600a8110618bfd57618bfc61a2d9565b5b01819055506f4b3b4ca85a86c47a098a22400000000060c8600f60278110618c2857618c2761a2d9565b5b600a02016000600a8110618c3f57618c3e61a2d9565b5b01819055506f4b3b4ca85a86c5f1cb08d4ee5ee0cb7f60c8600f60278110618c6a57618c6961a2d9565b5b600a02016001600a8110618c8157618c8061a2d9565b5b01819055506f4b3b4ca85a86c7698c87879cbdc8ebc360c8600f60278110618cac57618cab61a2d9565b5b600a02016002600a8110618cc357618cc261a2d9565b5b01819055506f4b3b4ca85a86c8e14e063a4b1cb860cc60c8600f60278110618cee57618ced61a2d9565b5b600a02016003600a8110618d0557618d0461a2d9565b5b01819055506f4b3b4ca85a86ca590f84ecf97baf2a9960c8600f60278110618d3057618d2f61a2d9565b5b600a02016004600a8110618d4757618d4661a2d9565b5b01819055506f4b3b4ca85a86cbd0d1039fa7daad492c60c8600f60278110618d7257618d7161a2d9565b5b600a02016005600a8110618d8957618d8861a2d9565b5b01819055506f4b3b4ca85a86cd489282525639b2bc8460c8600f60278110618db457618db361a2d9565b5b600a02016006600a8110618dcb57618dca61a2d9565b5b01819055506f4b3b4ca85a86cec05401050498bf84a160c8600f60278110618df657618df561a2d9565b5b600a02016007600a8110618e0d57618e0c61a2d9565b5b01819055506f4b3b4ca85a86d038157fb7b2f7d3a18360c8600f60278110618e3857618e3761a2d9565b5b600a02016008600a8110618e4f57618e4e61a2d9565b5b01819055506f4b3b4ca85a86d1afd6fe6a6156ef132a60c8600f60278110618e7a57618e7961a2d9565b5b600a02016009600a8110618e9157618e9061a2d9565b5b01819055506f4b3b4ca85a86c47a098a22400000000060c8601060278110618ebc57618ebb61a2d9565b5b600a02016000600a8110618ed357618ed261a2d9565b5b01819055506f4b3b4ca85a86c49f9ce39a84a316264b60c8601060278110618efe57618efd61a2d9565b5b600a02016001600a8110618f1557618f1461a2d9565b5b01819055506f4b3b4ca85a86c4c5303d12c9462c5f5c60c8601060278110618f4057618f3f61a2d9565b5b600a02016002600a8110618f5757618f5661a2d9565b5b01819055506f4b3b4ca85a86c4eac3968b0de942ab3060c8601060278110618f8257618f8161a2d9565b5b600a02016003600a8110618f9957618f9861a2d9565b5b01819055506f4b3b4ca85a86c51056f003528c5909c960c8601060278110618fc457618fc361a2d9565b5b600a02016004600a8110618fdb57618fda61a2d9565b5b01819055506f4b3b4ca85a86c535ea497b972f6f7b2760c86010602781106190065761900561a2d9565b5b600a02016005600a811061901d5761901c61a2d9565b5b01819055506f4b3b4ca85a86c55b7da2f3dbd285ff4960c86010602781106190485761904761a2d9565b5b600a02016006600a811061905f5761905e61a2d9565b5b01819055506f4b3b4ca85a86c58110fc6c20759c963060c860106027811061908a5761908961a2d9565b5b600a02016007600a81106190a1576190a061a2d9565b5b01819055506f4b3b4ca85a86c5a6a455e46518b33fdb60c86010602781106190cc576190cb61a2d9565b5b600a02016008600a81106190e3576190e261a2d9565b5b01819055506f4b3b4ca85a86c5cc37af5ca9bbc9fc4b60c860106027811061910e5761910d61a2d9565b5b600a02016009600a81106191255761912461a2d9565b5b01819055506f4b3b4ca85a86c47a098a22400000000060c86011602781106191505761914f61a2d9565b5b600a02016000600a81106191675761916661a2d9565b5b01819055506f4b3b4ca85a86c47dcb797b13a9e89c9660c86011602781106191925761919161a2d9565b5b600a02016001600a81106191a9576191a861a2d9565b5b01819055506f4b3b4ca85a86c4818d68d3e753d1395c60c86011602781106191d4576191d361a2d9565b5b600a02016002600a81106191eb576191ea61a2d9565b5b01819055506f4b3b4ca85a86c4854f582cbafdb9d65160c86011602781106192165761921561a2d9565b5b600a02016003600a811061922d5761922c61a2d9565b5b01819055506f4b3b4ca85a86c4891147858ea7a2737760c86011602781106192585761925761a2d9565b5b600a02016004600a811061926f5761926e61a2d9565b5b01819055506f4b3b4ca85a86c48cd336de62518b10cd60c860116027811061929a5761929961a2d9565b5b600a02016005600a81106192b1576192b061a2d9565b5b01819055506f4b3b4ca85a86c49095263735fb73ae5360c86011602781106192dc576192db61a2d9565b5b600a02016006600a81106192f3576192f261a2d9565b5b01819055506f4b3b4ca85a86c49457159009a55c4c0960c860116027811061931e5761931d61a2d9565b5b600a02016007600a81106193355761933461a2d9565b5b01819055506f4b3b4ca85a86c4981904e8dd4f44e9ef60c86011602781106193605761935f61a2d9565b5b600a02016008600a81106193775761937661a2d9565b5b01819055506f4b3b4ca85a86c49bdaf441b0f92d880560c86011602781106193a2576193a161a2d9565b5b600a02016009600a81106193b9576193b861a2d9565b5b01819055506f4b3b4ca85a86c47a098a22400000000060c86012602781106193e4576193e361a2d9565b5b600a02016000600a81106193fb576193fa61a2d9565b5b01819055506f4b3b4ca85a86c47a69bbab21f7640fa660c86012602781106194265761942561a2d9565b5b600a02016001600a811061943d5761943c61a2d9565b5b01819055506f4b3b4ca85a86c47ac9ed3403eec81f4d60c86012602781106194685761946761a2d9565b5b600a02016002600a811061947f5761947e61a2d9565b5b01819055506f4b3b4ca85a86c47b2a1ebce5e62c2ef560c86012602781106194aa576194a961a2d9565b5b600a02016003600a81106194c1576194c061a2d9565b5b01819055506f4b3b4ca85a86c47b8a5045c7dd903e9d60c86012602781106194ec576194eb61a2d9565b5b600a02016004600a81106195035761950261a2d9565b5b01819055506f4b3b4ca85a86c47bea81cea9d4f44e4560c860126027811061952e5761952d61a2d9565b5b600a02016005600a81106195455761954461a2d9565b5b01819055506f4b3b4ca85a86c47c4ab3578bcc585dee60c86012602781106195705761956f61a2d9565b5b600a02016006600a81106195875761958661a2d9565b5b01819055506f4b3b4ca85a86c47caae4e06dc3bc6d9760c86012602781106195b2576195b161a2d9565b5b600a02016007600a81106195c9576195c861a2d9565b5b01819055506f4b3b4ca85a86c47d0b16694fbb207d4160c86012602781106195f4576195f361a2d9565b5b600a02016008600a811061960b5761960a61a2d9565b5b01819055506f4b3b4ca85a86c47d6b47f231b2848ceb60c86012602781106196365761963561a2d9565b5b600a02016009600a811061964d5761964c61a2d9565b5b01819055506f4b3b4ca85a86c47a098a22400000000060c86013602781106196785761967761a2d9565b5b600a02016000600a811061968f5761968e61a2d9565b5b01819055506f4b3b4ca85a86c47a1328aff03256ce5d60c86013602781106196ba576196b961a2d9565b5b600a02016001600a81106196d1576196d061a2d9565b5b01819055506f4b3b4ca85a86c47a1cc73da064ad9cbb60c86013602781106196fc576196fb61a2d9565b5b600a02016002600a81106197135761971261a2d9565b5b01819055506f4b3b4ca85a86c47a2665cb5097046b1860c860136027811061973e5761973d61a2d9565b5b600a02016003600a81106197555761975461a2d9565b5b01819055506f4b3b4ca85a86c47a30045900c95b397660c86013602781106197805761977f61a2d9565b5b600a02016004600a81106197975761979661a2d9565b5b01819055506f4b3b4ca85a86c47a39a2e6b0fbb207d360c86013602781106197c2576197c161a2d9565b5b600a02016005600a81106197d9576197d861a2d9565b5b01819055506f4b3b4ca85a86c47a434174612e08d63160c86013602781106198045761980361a2d9565b5b600a02016006600a811061981b5761981a61a2d9565b5b01819055506f4b3b4ca85a86c47a4ce00211605fa48e60c86013602781106198465761984561a2d9565b5b600a02016007600a811061985d5761985c61a2d9565b5b01819055506f4b3b4ca85a86c47a567e8fc192b672eb60c86013602781106198885761988761a2d9565b5b600a02016008600a811061989f5761989e61a2d9565b5b01819055506f4b3b4ca85a86c47a601d1d71c50d414960c86013602781106198ca576198c961a2d9565b5b600a02016009600a81106198e1576198e061a2d9565b5b01819055506f4b3b4ca85a86c47a098a22400000000060c860146027811061990c5761990b61a2d9565b5b600a02016000600a81106199235761992261a2d9565b5b01819055506f4b3b4ca85a86c47a0a80639e6b6f14a360c860146027811061994e5761994d61a2d9565b5b600a02016001600a81106199655761996461a2d9565b5b01819055506f4b3b4ca85a86c47a0b76a4fcd6de294660c86014602781106199905761998f61a2d9565b5b600a02016002600a81106199a7576199a661a2d9565b5b01819055506f4b3b4ca85a86c47a0c6ce65b424d3de960c86014602781106199d2576199d161a2d9565b5b600a02016003600a81106199e9576199e861a2d9565b5b01819055506f4b3b4ca85a86c47a0d6327b9adbc528c60c8601460278110619a1457619a1361a2d9565b5b600a02016004600a8110619a2b57619a2a61a2d9565b5b01819055506f4b3b4ca85a86c47a0e596918192b672f60c8601460278110619a5657619a5561a2d9565b5b600a02016005600a8110619a6d57619a6c61a2d9565b5b01819055506f4b3b4ca85a86c47a0f4faa76849a7bd260c8601460278110619a9857619a9761a2d9565b5b600a02016006600a8110619aaf57619aae61a2d9565b5b01819055506f4b3b4ca85a86c47a1045ebd4f009907560c8601460278110619ada57619ad961a2d9565b5b600a02016007600a8110619af157619af061a2d9565b5b01819055506f4b3b4ca85a86c47a113c2d335b78a51860c8601460278110619b1c57619b1b61a2d9565b5b600a02016008600a8110619b3357619b3261a2d9565b5b01819055506f4b3b4ca85a86c47a12326e91c6e7b9ba60c8601460278110619b5e57619b5d61a2d9565b5b600a02016009600a8110619b7557619b7461a2d9565b5b0181905550600161024e60036101000a81548160ff021916908315150217905550565b600080831415619bab5760009050619c0d565b60008284619bb9919061a169565b9050828482619bc89190619fc7565b14619c08576040517f08c379a0000000000000000000000000000000000000000000000000000000008152600401619bff90619f25565b60405180910390fd5b809150505b92915050565b6000808284619c229190619f71565b905083811015619c67576040517f08c379a0000000000000000000000000000000000000000000000000000000008152600401619c5e90619f25565b60405180910390fd5b8091505092915050565b6000808211619cb5576040517f08c379a0000000000000000000000000000000000000000000000000000000008152600401619cac90619ee5565b60405180910390fd5b60008284619cc39190619fc7565b90508091505092915050565b600081359050619cde8161a482565b92915050565b600060208284031215619cfa57619cf961a308565b5b6000619d0884828501619ccf565b91505092915050565b60008060408385031215619d2857619d2761a308565b5b6000619d3685828601619ccf565b9250506020619d4785828601619ccf565b9150509250929050565b600080600060608486031215619d6a57619d6961a308565b5b6000619d7886828701619ccf565b9350506020619d8986828701619ccf565b9250506040619d9a86828701619ccf565b9150509250925092565b6000619db1601283619f60565b9150619dbc8261a31a565b602082019050919050565b6000619dd4602083619f60565b9150619ddf8261a343565b602082019050919050565b6000619df7602583619f60565b9150619e028261a36c565b604082019050919050565b6000619e1a601083619f60565b9150619e258261a3bb565b602082019050919050565b6000619e3d602283619f60565b9150619e488261a3e4565b604082019050919050565b6000619e60602183619f60565b9150619e6b8261a433565b604082019050919050565b619e7f8161a1f7565b82525050565b60006020820190508181036000830152619e9e81619da4565b9050919050565b60006020820190508181036000830152619ebe81619dc7565b9050919050565b60006020820190508181036000830152619ede81619dea565b9050919050565b60006020820190508181036000830152619efe81619e0d565b9050919050565b60006020820190508181036000830152619f1e81619e30565b9050919050565b60006020820190508181036000830152619f3e81619e53565b9050919050565b6000602082019050619f5a6000830184619e76565b92915050565b600082825260208201905092915050565b6000619f7c8261a1f7565b9150619f878361a1f7565b9250827fffffffffffffffffffffffffffffffffffffffffffffffffffffffffffffffff03821115619fbc57619fbb61a27b565b5b828201905092915050565b6000619fd28261a1f7565b9150619fdd8361a1f7565b925082619fed57619fec61a2aa565b5b828204905092915050565b6000808291508390505b600185111561a0425780860481111561a01e5761a01d61a27b565b5b600185161561a02d5780820291505b808102905061a03b8561a30d565b945061a002565b94509492505050565b600061a0568261a1f7565b915061a0618361a1f7565b925061a08e7fffffffffffffffffffffffffffffffffffffffffffffffffffffffffffffffff848461a096565b905092915050565b60008261a0a6576001905061a162565b8161a0b4576000905061a162565b816001811461a0ca576002811461a0d45761a103565b600191505061a162565b60ff84111561a0e65761a0e561a27b565b5b8360020a91508482111561a0fd5761a0fc61a27b565b5b5061a162565b5060208310610133831016604e8410600b841016171561a1385782820a90508381111561a1335761a13261a27b565b5b61a162565b61a1458484846001619ff8565b9250905081840481111561a15c5761a15b61a27b565b5b81810290505b9392505050565b600061a1748261a1f7565b915061a17f8361a1f7565b9250817fffffffffffffffffffffffffffffffffffffffffffffffffffffffffffffffff048311821515161561a1b85761a1b761a27b565b5b828202905092915050565b600061a1ce8261a1f7565b915061a1d98361a1f7565b92508282101561a1ec5761a1eb61a27b565b5b828203905092915050565b6000819050919050565b600061a20c8261a1f7565b91507fffffffffffffffffffffffffffffffffffffffffffffffffffffffffffffffff82141561a23f5761a23e61a27b565b5b600182019050919050565b600061a2558261a1f7565b915061a2608361a1f7565b92508261a2705761a26f61a2aa565b5b828206905092915050565b7f4e487b7100000000000000000000000000000000000000000000000000000000600052601160045260246000fd5b7f4e487b7100000000000000000000000000000000000000000000000000000000600052601260045260246000fd5b7f4e487b7100000000000000000000000000000000000000000000000000000000600052603260045260246000fd5b600080fd5b60008160011c9050919050565b7f696e707574206d757374206265203e3d20310000000000000000000000000000600082015250565b7f4c6f6f6b7570207461626c652033206d75737420666972737420626520736574600082015250565b7f4c6f6f6b7570207461626c6573203120262032206d757374206669727374206260008201527f6520736574000000000000000000000000000000000000000000000000000000602082015250565b7f6469766973696f6e206279207a65726f00000000000000000000000000000000600082015250565b7f696e7075742078206d7573742062652077697468696e2072616e6765205b312c60008201527f325b000000000000000000000000000000000000000000000000000000000000602082015250565b7f75696e74206f766572666c6f772066726f6d206d756c7469706c69636174696f60008201527f6e00000000000000000000000000000000000000000000000000000000000000602082015250565b61a48b8161a1f7565b811461a49657600080fd5b5056fea2646970667358221220bd55947d63226f749914f8bfb10d48a6cf9172e6bcf5c07b1df69228dafeb60764736f6c63430008070033",
			"opcodes": "PUSH1 0x80 PUSH1 0x40 MSTORE PUSH1 0x0 PUSH2 0x24E PUSH1 0x0 PUSH2 0x100 EXP DUP2 SLOAD DUP2 PUSH1 0xFF MUL NOT AND SWAP1 DUP4 ISZERO ISZERO MUL OR SWAP1 SSTORE POP PUSH1 0x0 PUSH2 0x24E PUSH1 0x1 PUSH2 0x100 EXP DUP2 SLOAD DUP2 PUSH1 0xFF MUL NOT AND SWAP1 DUP4 ISZERO ISZERO MUL OR SWAP1 SSTORE POP PUSH1 0x0 PUSH2 0x24E PUSH1 0x2 PUSH2 0x100 EXP DUP2 SLOAD DUP2 PUSH1 0xFF MUL NOT AND SWAP1 DUP4 ISZERO ISZERO MUL OR SWAP1 SSTORE POP PUSH1 0x0 PUSH2 0x24E PUSH1 0x3 PUSH2 0x100 EXP DUP2 SLOAD DUP2 PUSH1 0xFF MUL NOT AND SWAP1 DUP4 ISZERO ISZERO MUL OR SWAP1 SSTORE POP PUSH1 0x0 PUSH2 0x24E PUSH1 0x4 PUSH2 0x100 EXP DUP2 SLOAD DUP2 PUSH1 0xFF MUL NOT AND SWAP1 DUP4 ISZERO ISZERO MUL OR SWAP1 SSTORE POP PUSH1 0x0 PUSH2 0x24E PUSH1 0x5 PUSH2 0x100 EXP DUP2 SLOAD DUP2 PUSH1 0xFF MUL NOT AND SWAP1 DUP4 ISZERO ISZERO MUL OR SWAP1 SSTORE POP CALLVALUE DUP1 ISZERO PUSH3 0xB9 JUMPI PUSH1 0x0 DUP1 REVERT JUMPDEST POP PUSH2 0xA4CF DUP1 PUSH3 0xCA PUSH1 0x0 CODECOPY PUSH1 0x0 RETURN INVALID PUSH1 0x80 PUSH1 0x40 MSTORE CALLVALUE DUP1 ISZERO PUSH2 0x10 JUMPI PUSH1 0x0 DUP1 REVERT JUMPDEST POP PUSH1 0x4 CALLDATASIZE LT PUSH2 0x1CF JUMPI PUSH1 0x0 CALLDATALOAD PUSH1 0xE0 SHR DUP1 PUSH4 0x64CE07D8 GT PUSH2 0x104 JUMPI DUP1 PUSH4 0xB2F21109 GT PUSH2 0xA2 JUMPI DUP1 PUSH4 0xE5AC5717 GT PUSH2 0x71 JUMPI DUP1 PUSH4 0xE5AC5717 EQ PUSH2 0x5EC JUMPI DUP1 PUSH4 0xE92FAB3B EQ PUSH2 0x5F6 JUMPI DUP1 PUSH4 0xF7523C52 EQ PUSH2 0x626 JUMPI DUP1 PUSH4 0xFED6BDE0 EQ PUSH2 0x656 JUMPI PUSH2 0x1CF JUMP JUMPDEST DUP1 PUSH4 0xB2F21109 EQ PUSH2 0x52C JUMPI DUP1 PUSH4 0xB581FBE3 EQ PUSH2 0x55C JUMPI DUP1 PUSH4 0xD3F87AAE EQ PUSH2 0x58C JUMPI DUP1 PUSH4 0xDC1A1E09 EQ PUSH2 0x5BC JUMPI PUSH2 0x1CF JUMP JUMPDEST DUP1 PUSH4 0x8E962C70 GT PUSH2 0xDE JUMPI DUP1 PUSH4 0x8E962C70 EQ PUSH2 0x492 JUMPI DUP1 PUSH4 0x9636C762 EQ PUSH2 0x4C2 JUMPI DUP1 PUSH4 0xA2693515 EQ PUSH2 0x4F2 JUMPI DUP1 PUSH4 0xA463A087 EQ PUSH2 0x522 JUMPI PUSH2 0x1CF JUMP JUMPDEST DUP1 PUSH4 0x64CE07D8 EQ PUSH2 0x402 JUMPI DUP1 PUSH4 0x78B09C47 EQ PUSH2 0x432 JUMPI DUP1 PUSH4 0x8D5DAB35 EQ PUSH2 0x462 JUMPI PUSH2 0x1CF JUMP JUMPDEST DUP1 PUSH4 0x422B0D8D GT PUSH2 0x171 JUMPI DUP1 PUSH4 0x504F5E56 GT PUSH2 0x14B JUMPI DUP1 PUSH4 0x504F5E56 EQ PUSH2 0x342 JUMPI DUP1 PUSH4 0x58BE7A89 EQ PUSH2 0x372 JUMPI DUP1 PUSH4 0x595A8D07 EQ PUSH2 0x3A2 JUMPI DUP1 PUSH4 0x6172F467 EQ PUSH2 0x3D2 JUMPI PUSH2 0x1CF JUMP JUMPDEST DUP1 PUSH4 0x422B0D8D EQ PUSH2 0x2B2 JUMPI DUP1 PUSH4 0x442B7FFB EQ PUSH2 0x2E2 JUMPI DUP1 PUSH4 0x44F7787F EQ PUSH2 0x312 JUMPI PUSH2 0x1CF JUMP JUMPDEST DUP1 PUSH4 0x26A4C99F GT PUSH2 0x1AD JUMPI DUP1 PUSH4 0x26A4C99F EQ PUSH2 0x23E JUMPI DUP1 PUSH4 0x2E4C697F EQ PUSH2 0x248 JUMPI DUP1 PUSH4 0x344D0095 EQ PUSH2 0x278 JUMPI DUP1 PUSH4 0x34ECEAC0 EQ PUSH2 0x282 JUMPI PUSH2 0x1CF JUMP JUMPDEST DUP1 PUSH4 0x1EA97975 EQ PUSH2 0x1D4 JUMPI DUP1 PUSH4 0x22AA59FC EQ PUSH2 0x204 JUMPI DUP1 PUSH4 0x24433426 EQ PUSH2 0x20E JUMPI JUMPDEST PUSH1 0x0 DUP1 REVERT JUMPDEST PUSH2 0x1EE PUSH1 0x4 DUP1 CALLDATASIZE SUB DUP2 ADD SWAP1 PUSH2 0x1E9 SWAP2 SWAP1 PUSH2 0x9CE4 JUMP JUMPDEST PUSH2 0x660 JUMP JUMPDEST PUSH1 0x40 MLOAD PUSH2 0x1FB SWAP2 SWAP1 PUSH2 0x9F45 JUMP JUMPDEST PUSH1 0x40 MLOAD DUP1 SWAP2 SUB SWAP1 RETURN JUMPDEST PUSH2 0x20C PUSH2 0x6D6 JUMP JUMPDEST STOP JUMPDEST PUSH2 0x228 PUSH1 0x4 DUP1 CALLDATASIZE SUB DUP2 ADD SWAP1 PUSH2 0x223 SWAP2 SWAP1 PUSH2 0x9CE4 JUMP JUMPDEST PUSH2 0x2350 JUMP JUMPDEST PUSH1 0x40 MLOAD PUSH2 0x235 SWAP2 SWAP1 PUSH2 0x9F45 JUMP JUMPDEST PUSH1 0x40 MLOAD DUP1 SWAP2 SUB SWAP1 RETURN JUMPDEST PUSH2 0x246 PUSH2 0x2391 JUMP JUMPDEST STOP JUMPDEST PUSH2 0x262 PUSH1 0x4 DUP1 CALLDATASIZE SUB DUP2 ADD SWAP1 PUSH2 0x25D SWAP2 SWAP1 PUSH2 0x9D11 JUMP JUMPDEST PUSH2 0x384F JUMP JUMPDEST PUSH1 0x40 MLOAD PUSH2 0x26F SWAP2 SWAP1 PUSH2 0x9F45 JUMP JUMPDEST PUSH1 0x40 MLOAD DUP1 SWAP2 SUB SWAP1 RETURN JUMPDEST PUSH2 0x280 PUSH2 0x38E5 JUMP JUMPDEST STOP JUMPDEST PUSH2 0x29C PUSH1 0x4 DUP1 CALLDATASIZE SUB DUP2 ADD SWAP1 PUSH2 0x297 SWAP2 SWAP1 PUSH2 0x9D11 JUMP JUMPDEST PUSH2 0x52CB JUMP JUMPDEST PUSH1 0x40 MLOAD PUSH2 0x2A9 SWAP2 SWAP1 PUSH2 0x9F45 JUMP JUMPDEST PUSH1 0x40 MLOAD DUP1 SWAP2 SUB SWAP1 RETURN JUMPDEST PUSH2 0x2CC PUSH1 0x4 DUP1 CALLDATASIZE SUB DUP2 ADD SWAP1 PUSH2 0x2C7 SWAP2 SWAP1 PUSH2 0x9D11 JUMP JUMPDEST PUSH2 0x5393 JUMP JUMPDEST PUSH1 0x40 MLOAD PUSH2 0x2D9 SWAP2 SWAP1 PUSH2 0x9F45 JUMP JUMPDEST PUSH1 0x40 MLOAD DUP1 SWAP2 SUB SWAP1 RETURN JUMPDEST PUSH2 0x2FC PUSH1 0x4 DUP1 CALLDATASIZE SUB DUP2 ADD SWAP1 PUSH2 0x2F7 SWAP2 SWAP1 PUSH2 0x9CE4 JUMP JUMPDEST PUSH2 0x544D JUMP JUMPDEST PUSH1 0x40 MLOAD PUSH2 0x309 SWAP2 SWAP1 PUSH2 0x9F45 JUMP JUMPDEST PUSH1 0x40 MLOAD DUP1 SWAP2 SUB SWAP1 RETURN JUMPDEST PUSH2 0x32C PUSH1 0x4 DUP1 CALLDATASIZE SUB DUP2 ADD SWAP1 PUSH2 0x327 SWAP2 SWAP1 PUSH2 0x9D11 JUMP JUMPDEST PUSH2 0x569C JUMP JUMPDEST PUSH1 0x40 MLOAD PUSH2 0x339 SWAP2 SWAP1 PUSH2 0x9F45 JUMP JUMPDEST PUSH1 0x40 MLOAD DUP1 SWAP2 SUB SWAP1 RETURN JUMPDEST PUSH2 0x35C PUSH1 0x4 DUP1 CALLDATASIZE SUB DUP2 ADD SWAP1 PUSH2 0x357 SWAP2 SWAP1 PUSH2 0x9CE4 JUMP JUMPDEST PUSH2 0x5B9E JUMP JUMPDEST PUSH1 0x40 MLOAD PUSH2 0x369 SWAP2 SWAP1 PUSH2 0x9F45 JUMP JUMPDEST PUSH1 0x40 MLOAD DUP1 SWAP2 SUB SWAP1 RETURN JUMPDEST PUSH2 0x38C PUSH1 0x4 DUP1 CALLDATASIZE SUB DUP2 ADD SWAP1 PUSH2 0x387 SWAP2 SWAP1 PUSH2 0x9D11 JUMP JUMPDEST PUSH2 0x5BC7 JUMP JUMPDEST PUSH1 0x40 MLOAD PUSH2 0x399 SWAP2 SWAP1 PUSH2 0x9F45 JUMP JUMPDEST PUSH1 0x40 MLOAD DUP1 SWAP2 SUB SWAP1 RETURN JUMPDEST PUSH2 0x3BC PUSH1 0x4 DUP1 CALLDATASIZE SUB DUP2 ADD SWAP1 PUSH2 0x3B7 SWAP2 SWAP1 PUSH2 0x9CE4 JUMP JUMPDEST PUSH2 0x5C1A JUMP JUMPDEST PUSH1 0x40 MLOAD PUSH2 0x3C9 SWAP2 SWAP1 PUSH2 0x9F45 JUMP JUMPDEST PUSH1 0x40 MLOAD DUP1 SWAP2 SUB SWAP1 RETURN JUMPDEST PUSH2 0x3EC PUSH1 0x4 DUP1 CALLDATASIZE SUB DUP2 ADD SWAP1 PUSH2 0x3E7 SWAP2 SWAP1 PUSH2 0x9D11 JUMP JUMPDEST PUSH2 0x5C35 JUMP JUMPDEST PUSH1 0x40 MLOAD PUSH2 0x3F9 SWAP2 SWAP1 PUSH2 0x9F45 JUMP JUMPDEST PUSH1 0x40 MLOAD DUP1 SWAP2 SUB SWAP1 RETURN JUMPDEST PUSH2 0x41C PUSH1 0x4 DUP1 CALLDATASIZE SUB DUP2 ADD SWAP1 PUSH2 0x417 SWAP2 SWAP1 PUSH2 0x9D11 JUMP JUMPDEST PUSH2 0x5C8E JUMP JUMPDEST PUSH1 0x40 MLOAD PUSH2 0x429 SWAP2 SWAP1 PUSH2 0x9F45 JUMP JUMPDEST PUSH1 0x40 MLOAD DUP1 SWAP2 SUB SWAP1 RETURN JUMPDEST PUSH2 0x44C PUSH1 0x4 DUP1 CALLDATASIZE SUB DUP2 ADD SWAP1 PUSH2 0x447 SWAP2 SWAP1 PUSH2 0x9CE4 JUMP JUMPDEST PUSH2 0x5CCF JUMP JUMPDEST PUSH1 0x40 MLOAD PUSH2 0x459 SWAP2 SWAP1 PUSH2 0x9F45 JUMP JUMPDEST PUSH1 0x40 MLOAD DUP1 SWAP2 SUB SWAP1 RETURN JUMPDEST PUSH2 0x47C PUSH1 0x4 DUP1 CALLDATASIZE SUB DUP2 ADD SWAP1 PUSH2 0x477 SWAP2 SWAP1 PUSH2 0x9CE4 JUMP JUMPDEST PUSH2 0x5D06 JUMP JUMPDEST PUSH1 0x40 MLOAD PUSH2 0x489 SWAP2 SWAP1 PUSH2 0x9F45 JUMP JUMPDEST PUSH1 0x40 MLOAD DUP1 SWAP2 SUB SWAP1 RETURN JUMPDEST PUSH2 0x4AC PUSH1 0x4 DUP1 CALLDATASIZE SUB DUP2 ADD SWAP1 PUSH2 0x4A7 SWAP2 SWAP1 PUSH2 0x9CE4 JUMP JUMPDEST PUSH2 0x5D3F JUMP JUMPDEST PUSH1 0x40 MLOAD PUSH2 0x4B9 SWAP2 SWAP1 PUSH2 0x9F45 JUMP JUMPDEST PUSH1 0x40 MLOAD DUP1 SWAP2 SUB SWAP1 RETURN JUMPDEST PUSH2 0x4DC PUSH1 0x4 DUP1 CALLDATASIZE SUB DUP2 ADD SWAP1 PUSH2 0x4D7 SWAP2 SWAP1 PUSH2 0x9CE4 JUMP JUMPDEST PUSH2 0x5D79 JUMP JUMPDEST PUSH1 0x40 MLOAD PUSH2 0x4E9 SWAP2 SWAP1 PUSH2 0x9F45 JUMP JUMPDEST PUSH1 0x40 MLOAD DUP1 SWAP2 SUB SWAP1 RETURN JUMPDEST PUSH2 0x50C PUSH1 0x4 DUP1 CALLDATASIZE SUB DUP2 ADD SWAP1 PUSH2 0x507 SWAP2 SWAP1 PUSH2 0x9D11 JUMP JUMPDEST PUSH2 0x5DB4 JUMP JUMPDEST PUSH1 0x40 MLOAD PUSH2 0x519 SWAP2 SWAP1 PUSH2 0x9F45 JUMP JUMPDEST PUSH1 0x40 MLOAD DUP1 SWAP2 SUB SWAP1 RETURN JUMPDEST PUSH2 0x52A PUSH2 0x5E8C JUMP JUMPDEST STOP JUMPDEST PUSH2 0x546 PUSH1 0x4 DUP1 CALLDATASIZE SUB DUP2 ADD SWAP1 PUSH2 0x541 SWAP2 SWAP1 PUSH2 0x9D11 JUMP JUMPDEST PUSH2 0x6D2A JUMP JUMPDEST PUSH1 0x40 MLOAD PUSH2 0x553 SWAP2 SWAP1 PUSH2 0x9F45 JUMP JUMPDEST PUSH1 0x40 MLOAD DUP1 SWAP2 SUB SWAP1 RETURN JUMPDEST PUSH2 0x576 PUSH1 0x4 DUP1 CALLDATASIZE SUB DUP2 ADD SWAP1 PUSH2 0x571 SWAP2 SWAP1 PUSH2 0x9CE4 JUMP JUMPDEST PUSH2 0x6D58 JUMP JUMPDEST PUSH1 0x40 MLOAD PUSH2 0x583 SWAP2 SWAP1 PUSH2 0x9F45 JUMP JUMPDEST PUSH1 0x40 MLOAD DUP1 SWAP2 SUB SWAP1 RETURN JUMPDEST PUSH2 0x5A6 PUSH1 0x4 DUP1 CALLDATASIZE SUB DUP2 ADD SWAP1 PUSH2 0x5A1 SWAP2 SWAP1 PUSH2 0x9D51 JUMP JUMPDEST PUSH2 0x6E72 JUMP JUMPDEST PUSH1 0x40 MLOAD PUSH2 0x5B3 SWAP2 SWAP1 PUSH2 0x9F45 JUMP JUMPDEST PUSH1 0x40 MLOAD DUP1 SWAP2 SUB SWAP1 RETURN JUMPDEST PUSH2 0x5D6 PUSH1 0x4 DUP1 CALLDATASIZE SUB DUP2 ADD SWAP1 PUSH2 0x5D1 SWAP2 SWAP1 PUSH2 0x9CE4 JUMP JUMPDEST PUSH2 0x6ECF JUMP JUMPDEST PUSH1 0x40 MLOAD PUSH2 0x5E3 SWAP2 SWAP1 PUSH2 0x9F45 JUMP JUMPDEST PUSH1 0x40 MLOAD DUP1 SWAP2 SUB SWAP1 RETURN JUMPDEST PUSH2 0x5F4 PUSH2 0x6EEA JUMP JUMPDEST STOP JUMPDEST PUSH2 0x610 PUSH1 0x4 DUP1 CALLDATASIZE SUB DUP2 ADD SWAP1 PUSH2 0x60B SWAP2 SWAP1 PUSH2 0x9D11 JUMP JUMPDEST PUSH2 0x7FC4 JUMP JUMPDEST PUSH1 0x40 MLOAD PUSH2 0x61D SWAP2 SWAP1 PUSH2 0x9F45 JUMP JUMPDEST PUSH1 0x40 MLOAD DUP1 SWAP2 SUB SWAP1 RETURN JUMPDEST PUSH2 0x640 PUSH1 0x4 DUP1 CALLDATASIZE SUB DUP2 ADD SWAP1 PUSH2 0x63B SWAP2 SWAP1 PUSH2 0x9D11 JUMP JUMPDEST PUSH2 0x8169 JUMP JUMPDEST PUSH1 0x40 MLOAD PUSH2 0x64D SWAP2 SWAP1 PUSH2 0x9F45 JUMP JUMPDEST PUSH1 0x40 MLOAD DUP1 SWAP2 SUB SWAP1 RETURN JUMPDEST PUSH2 0x65E PUSH2 0x81B2 JUMP JUMPDEST STOP JUMPDEST PUSH1 0x0 DUP1 PUSH1 0x1 SWAP1 POP PUSH1 0x0 PUSH8 0xDE0B6B3A7640000 SWAP1 POP PUSH1 0x0 PUSH8 0xDE0B6B3A7640000 SWAP1 POP PUSH1 0x0 JUMPDEST DUP4 DUP4 GT ISZERO PUSH2 0x6CA JUMPI PUSH8 0xDE0B6B3A7640000 DUP2 PUSH2 0x6A0 SWAP2 SWAP1 PUSH2 0x9F71 JUMP JUMPDEST SWAP1 POP PUSH2 0x6B5 PUSH2 0x6AF DUP5 DUP9 PUSH2 0x8169 JUMP JUMPDEST DUP3 PUSH2 0x5C8E JUMP JUMPDEST SWAP3 POP DUP3 DUP3 PUSH2 0x6C3 SWAP2 SWAP1 PUSH2 0x9F71 JUMP JUMPDEST SWAP2 POP PUSH2 0x684 JUMP JUMPDEST DUP2 SWAP5 POP POP POP POP POP SWAP2 SWAP1 POP JUMP JUMPDEST PUSH16 0x4B3B4CA85A86C47A098A224000000000 PUSH1 0xC8 PUSH1 0x0 PUSH1 0x27 DUP2 LT PUSH2 0x6FC JUMPI PUSH2 0x6FB PUSH2 0xA2D9 JUMP JUMPDEST JUMPDEST PUSH1 0xA MUL ADD PUSH1 0x0 PUSH1 0xA DUP2 LT PUSH2 0x713 JUMPI PUSH2 0x712 PUSH2 0xA2D9 JUMP JUMPDEST JUMPDEST ADD DUP2 SWAP1 SSTORE POP PUSH16 0x50A19B26283D0B34E82C419E778521B3 PUSH1 0xC8 PUSH1 0x0 PUSH1 0x27 DUP2 LT PUSH2 0x73E JUMPI PUSH2 0x73D PUSH2 0xA2D9 JUMP JUMPDEST JUMPDEST PUSH1 0xA MUL ADD PUSH1 0x1 PUSH1 0xA DUP2 LT PUSH2 0x755 JUMPI PUSH2 0x754 PUSH2 0xA2D9 JUMP JUMPDEST JUMPDEST ADD DUP2 SWAP1 SSTORE POP PUSH16 0x566B2026A35E43FB189E7D9AFD311CA0 PUSH1 0xC8 PUSH1 0x0 PUSH1 0x27 DUP2 LT PUSH2 0x780 JUMPI PUSH2 0x77F PUSH2 0xA2D9 JUMP JUMPDEST JUMPDEST PUSH1 0xA MUL ADD PUSH1 0x2 PUSH1 0xA DUP2 LT PUSH2 0x797 JUMPI PUSH2 0x796 PUSH2 0xA2D9 JUMP JUMPDEST JUMPDEST ADD DUP2 SWAP1 SSTORE POP PUSH16 0x5C9EFA9A30C4933DF96FFC0F774A744C PUSH1 0xC8 PUSH1 0x0 PUSH1 0x27 DUP2 LT PUSH2 0x7C2 JUMPI PUSH2 0x7C1 PUSH2 0xA2D9 JUMP JUMPDEST JUMPDEST PUSH1 0xA MUL ADD PUSH1 0x3 PUSH1 0xA DUP2 LT PUSH2 0x7D9 JUMPI PUSH2 0x7D8 PUSH2 0xA2D9 JUMP JUMPDEST JUMPDEST ADD DUP2 SWAP1 SSTORE POP PUSH16 0x6344CC47E6D8D888A38D43E4480B40F7 PUSH1 0xC8 PUSH1 0x0 PUSH1 0x27 DUP2 LT PUSH2 0x804 JUMPI PUSH2 0x803 PUSH2 0xA2D9 JUMP JUMPDEST JUMPDEST PUSH1 0xA MUL ADD PUSH1 0x4 PUSH1 0xA DUP2 LT PUSH2 0x81B JUMPI PUSH2 0x81A PUSH2 0xA2D9 JUMP JUMPDEST JUMPDEST ADD DUP2 SWAP1 SSTORE POP PUSH16 0x6A64C33195499E0731BA5BE94803FFF1 PUSH1 0xC8 PUSH1 0x0 PUSH1 0x27 DUP2 LT PUSH2 0x846 JUMPI PUSH2 0x845 PUSH2 0xA2D9 JUMP JUMPDEST JUMPDEST PUSH1 0xA MUL ADD PUSH1 0x5 PUSH1 0xA DUP2 LT PUSH2 0x85D JUMPI PUSH2 0x85C PUSH2 0xA2D9 JUMP JUMPDEST JUMPDEST ADD DUP2 SWAP1 SSTORE POP PUSH16 0x7207A3A4586C4CC4064088EA4276FB5C PUSH1 0xC8 PUSH1 0x0 PUSH1 0x27 DUP2 LT PUSH2 0x888 JUMPI PUSH2 0x887 PUSH2 0xA2D9 JUMP JUMPDEST JUMPDEST PUSH1 0xA MUL ADD PUSH1 0x6 PUSH1 0xA DUP2 LT PUSH2 0x89F JUMPI PUSH2 0x89E PUSH2 0xA2D9 JUMP JUMPDEST JUMPDEST ADD DUP2 SWAP1 SSTORE POP PUSH16 0x7A36D3021AA31AD13619F68058EAB611 PUSH1 0xC8 PUSH1 0x0 PUSH1 0x27 DUP2 LT PUSH2 0x8CA JUMPI PUSH2 0x8C9 PUSH2 0xA2D9 JUMP JUMPDEST JUMPDEST PUSH1 0xA MUL ADD PUSH1 0x7 PUSH1 0xA DUP2 LT PUSH2 0x8E1 JUMPI PUSH2 0x8E0 PUSH2 0xA2D9 JUMP JUMPDEST JUMPDEST ADD DUP2 SWAP1 SSTORE POP PUSH16 0x82FC635149AE40556949B9C77AAEB7D4 PUSH1 0xC8 PUSH1 0x0 PUSH1 0x27 DUP2 LT PUSH2 0x90C JUMPI PUSH2 0x90B PUSH2 0xA2D9 JUMP JUMPDEST JUMPDEST PUSH1 0xA MUL ADD PUSH1 0x8 PUSH1 0xA DUP2 LT PUSH2 0x923 JUMPI PUSH2 0x922 PUSH2 0xA2D9 JUMP JUMPDEST JUMPDEST ADD DUP2 SWAP1 SSTORE POP PUSH16 0x8C631FA0F9B00C8830BCC92F66A8CDFD PUSH1 0xC8 PUSH1 0x0 PUSH1 0x27 DUP2 LT PUSH2 0x94E JUMPI PUSH2 0x94D PUSH2 0xA2D9 JUMP JUMPDEST JUMPDEST PUSH1 0xA MUL ADD PUSH1 0x9 PUSH1 0xA DUP2 LT PUSH2 0x965 JUMPI PUSH2 0x964 PUSH2 0xA2D9 JUMP JUMPDEST JUMPDEST ADD DUP2 SWAP1 SSTORE POP PUSH16 0x4B3B4CA85A86C47A098A224000000000 PUSH1 0xC8 PUSH1 0x1 PUSH1 0x27 DUP2 LT PUSH2 0x990 JUMPI PUSH2 0x98F PUSH2 0xA2D9 JUMP JUMPDEST JUMPDEST PUSH1 0xA MUL ADD PUSH1 0x0 PUSH1 0xA DUP2 LT PUSH2 0x9A7 JUMPI PUSH2 0x9A6 PUSH2 0xA2D9 JUMP JUMPDEST JUMPDEST ADD DUP2 SWAP1 SSTORE POP PUSH16 0x4BC1422AC6AEC230A72FD844C9AEA331 PUSH1 0xC8 PUSH1 0x1 PUSH1 0x27 DUP2 LT PUSH2 0x9D2 JUMPI PUSH2 0x9D1 PUSH2 0xA2D9 JUMP JUMPDEST JUMPDEST PUSH1 0xA MUL ADD PUSH1 0x1 PUSH1 0xA DUP2 LT PUSH2 0x9E9 JUMPI PUSH2 0x9E8 PUSH2 0xA2D9 JUMP JUMPDEST JUMPDEST ADD DUP2 SWAP1 SSTORE POP PUSH16 0x4C482634EF728F0D43FD3E29706E2618 PUSH1 0xC8 PUSH1 0x1 PUSH1 0x27 DUP2 LT PUSH2 0xA14 JUMPI PUSH2 0xA13 PUSH2 0xA2D9 JUMP JUMPDEST JUMPDEST PUSH1 0xA MUL ADD PUSH1 0x2 PUSH1 0xA DUP2 LT PUSH2 0xA2B JUMPI PUSH2 0xA2A PUSH2 0xA2D9 JUMP JUMPDEST JUMPDEST ADD DUP2 SWAP1 SSTORE POP PUSH16 0x4CCFFA6F902E802E1EF5C9A8BE84D8EA PUSH1 0xC8 PUSH1 0x1 PUSH1 0x27 DUP2 LT PUSH2 0xA56 JUMPI PUSH2 0xA55 PUSH2 0xA2D9 JUMP JUMPDEST JUMPDEST PUSH1 0xA MUL ADD PUSH1 0x3 PUSH1 0xA DUP2 LT PUSH2 0xA6D JUMPI PUSH2 0xA6C PUSH2 0xA2D9 JUMP JUMPDEST JUMPDEST ADD DUP2 SWAP1 SSTORE POP PUSH16 0x4D58C08658883DA39409FFD3360B2DB7 PUSH1 0xC8 PUSH1 0x1 PUSH1 0x27 DUP2 LT PUSH2 0xA98 JUMPI PUSH2 0xA97 PUSH2 0xA2D9 JUMP JUMPDEST JUMPDEST PUSH1 0xA MUL ADD PUSH1 0x4 PUSH1 0xA DUP2 LT PUSH2 0xAAF JUMPI PUSH2 0xAAE PUSH2 0xA2D9 JUMP JUMPDEST JUMPDEST ADD DUP2 SWAP1 SSTORE POP PUSH16 0x4DE27A27F1B16B3AEA7B151D4596EDFD PUSH1 0xC8 PUSH1 0x1 PUSH1 0x27 DUP2 LT PUSH2 0xADA JUMPI PUSH2 0xAD9 PUSH2 0xA2D9 JUMP JUMPDEST JUMPDEST PUSH1 0xA MUL ADD PUSH1 0x5 PUSH1 0xA DUP2 LT PUSH2 0xAF1 JUMPI PUSH2 0xAF0 PUSH2 0xA2D9 JUMP JUMPDEST JUMPDEST ADD DUP2 SWAP1 SSTORE POP PUSH16 0x4E6D290603B3AF2CE3F021430787E707 PUSH1 0xC8 PUSH1 0x1 PUSH1 0x27 DUP2 LT PUSH2 0xB1C JUMPI PUSH2 0xB1B PUSH2 0xA2D9 JUMP JUMPDEST JUMPDEST PUSH1 0xA MUL ADD PUSH1 0x6 PUSH1 0xA DUP2 LT PUSH2 0xB33 JUMPI PUSH2 0xB32 PUSH2 0xA2D9 JUMP JUMPDEST JUMPDEST ADD DUP2 SWAP1 SSTORE POP PUSH16 0x4EF8CED53AC6275DC7B0D659ADFE49D1 PUSH1 0xC8 PUSH1 0x1 PUSH1 0x27 DUP2 LT PUSH2 0xB5E JUMPI PUSH2 0xB5D PUSH2 0xA2D9 JUMP JUMPDEST JUMPDEST PUSH1 0xA MUL ADD PUSH1 0x7 PUSH1 0xA DUP2 LT PUSH2 0xB75 JUMPI PUSH2 0xB74 PUSH2 0xA2D9 JUMP JUMPDEST JUMPDEST ADD DUP2 SWAP1 SSTORE POP PUSH16 0x4F856D4D4CAC5DFA583FD57DF7F3724D PUSH1 0xC8 PUSH1 0x1 PUSH1 0x27 DUP2 LT PUSH2 0xBA0 JUMPI PUSH2 0xB9F PUSH2 0xA2D9 JUMP JUMPDEST JUMPDEST PUSH1 0xA MUL ADD PUSH1 0x8 PUSH1 0xA DUP2 LT PUSH2 0xBB7 JUMPI PUSH2 0xBB6 PUSH2 0xA2D9 JUMP JUMPDEST JUMPDEST ADD DUP2 SWAP1 SSTORE POP PUSH16 0x50130628FE1ECE5B09368F0BF71DDE1E PUSH1 0xC8 PUSH1 0x1 PUSH1 0x27 DUP2 LT PUSH2 0xBE2 JUMPI PUSH2 0xBE1 PUSH2 0xA2D9 JUMP JUMPDEST JUMPDEST PUSH1 0xA MUL ADD PUSH1 0x9 PUSH1 0xA DUP2 LT PUSH2 0xBF9 JUMPI PUSH2 0xBF8 PUSH2 0xA2D9 JUMP JUMPDEST JUMPDEST ADD DUP2 SWAP1 SSTORE POP PUSH16 0x4B3B4CA85A86C47A098A224000000000 PUSH1 0xC8 PUSH1 0x2 PUSH1 0x27 DUP2 LT PUSH2 0xC24 JUMPI PUSH2 0xC23 PUSH2 0xA2D9 JUMP JUMPDEST JUMPDEST PUSH1 0xA MUL ADD PUSH1 0x0 PUSH1 0xA DUP2 LT PUSH2 0xC3B JUMPI PUSH2 0xC3A PUSH2 0xA2D9 JUMP JUMPDEST JUMPDEST ADD DUP2 SWAP1 SSTORE POP PUSH16 0x4B48A7525F322BD41641432D1B296E53 PUSH1 0xC8 PUSH1 0x2 PUSH1 0x27 DUP2 LT PUSH2 0xC66 JUMPI PUSH2 0xC65 PUSH2 0xA2D9 JUMP JUMPDEST JUMPDEST PUSH1 0xA MUL ADD PUSH1 0x1 PUSH1 0xA DUP2 LT PUSH2 0xC7D JUMPI PUSH2 0xC7C PUSH2 0xA2D9 JUMP JUMPDEST JUMPDEST ADD DUP2 SWAP1 SSTORE POP PUSH16 0x4B56045B3A41B4A74901FF7281632444 PUSH1 0xC8 PUSH1 0x2 PUSH1 0x27 DUP2 LT PUSH2 0xCA8 JUMPI PUSH2 0xCA7 PUSH2 0xA2D9 JUMP JUMPDEST JUMPDEST PUSH1 0xA MUL ADD PUSH1 0x2 PUSH1 0xA DUP2 LT PUSH2 0xCBF JUMPI PUSH2 0xCBE PUSH2 0xA2D9 JUMP JUMPDEST JUMPDEST ADD DUP2 SWAP1 SSTORE POP PUSH16 0x4B6363C3576D2EAF8E9404BADF6FC667 PUSH1 0xC8 PUSH1 0x2 PUSH1 0x27 DUP2 LT PUSH2 0xCEA JUMPI PUSH2 0xCE9 PUSH2 0xA2D9 JUMP JUMPDEST JUMPDEST PUSH1 0xA MUL ADD PUSH1 0x3 PUSH1 0xA DUP2 LT PUSH2 0xD01 JUMPI PUSH2 0xD00 PUSH2 0xA2D9 JUMP JUMPDEST JUMPDEST ADD DUP2 SWAP1 SSTORE POP PUSH16 0x4B70C58B227F889075C56E7D93FD8917 PUSH1 0xC8 PUSH1 0x2 PUSH1 0x27 DUP2 LT PUSH2 0xD2C JUMPI PUSH2 0xD2B PUSH2 0xA2D9 JUMP JUMPDEST JUMPDEST PUSH1 0xA MUL ADD PUSH1 0x4 PUSH1 0xA DUP2 LT PUSH2 0xD43 JUMPI PUSH2 0xD42 PUSH2 0xA2D9 JUMP JUMPDEST JUMPDEST ADD DUP2 SWAP1 SSTORE POP PUSH16 0x4B7E29B30756D33A10E6F73C041CB394 PUSH1 0xC8 PUSH1 0x2 PUSH1 0x27 DUP2 LT PUSH2 0xD6E JUMPI PUSH2 0xD6D PUSH2 0xA2D9 JUMP JUMPDEST JUMPDEST PUSH1 0xA MUL ADD PUSH1 0x5 PUSH1 0xA DUP2 LT PUSH2 0xD85 JUMPI PUSH2 0xD84 PUSH2 0xA2D9 JUMP JUMPDEST JUMPDEST ADD DUP2 SWAP1 SSTORE POP PUSH16 0x4B8B903B71E4454E7183B4C100273DC5 PUSH1 0xC8 PUSH1 0x2 PUSH1 0x27 DUP2 LT PUSH2 0xDB0 JUMPI PUSH2 0xDAF PUSH2 0xA2D9 JUMP JUMPDEST JUMPDEST PUSH1 0xA MUL ADD PUSH1 0x6 PUSH1 0xA DUP2 LT PUSH2 0xDC7 JUMPI PUSH2 0xDC6 PUSH2 0xA2D9 JUMP JUMPDEST JUMPDEST ADD DUP2 SWAP1 SSTORE POP PUSH16 0x4B98F924CE2C3E87BE6FBFFF18A1B524 PUSH1 0xC8 PUSH1 0x2 PUSH1 0x27 DUP2 LT PUSH2 0xDF2 JUMPI PUSH2 0xDF1 PUSH2 0xA2D9 JUMP JUMPDEST JUMPDEST PUSH1 0xA MUL ADD PUSH1 0x7 PUSH1 0xA DUP2 LT PUSH2 0xE09 JUMPI PUSH2 0xE08 PUSH2 0xA2D9 JUMP JUMPDEST JUMPDEST ADD DUP2 SWAP1 SSTORE POP PUSH16 0x4BA6646F88464B1EE4492E06D6E1B2D4 PUSH1 0xC8 PUSH1 0x2 PUSH1 0x27 DUP2 LT PUSH2 0xE34 JUMPI PUSH2 0xE33 PUSH2 0xA2D9 JUMP JUMPDEST JUMPDEST PUSH1 0xA MUL ADD PUSH1 0x8 PUSH1 0xA DUP2 LT PUSH2 0xE4B JUMPI PUSH2 0xE4A PUSH2 0xA2D9 JUMP JUMPDEST JUMPDEST ADD DUP2 SWAP1 SSTORE POP PUSH16 0x4BB3D21C0C5D2732E086C46ABE5F89D1 PUSH1 0xC8 PUSH1 0x2 PUSH1 0x27 DUP2 LT PUSH2 0xE76 JUMPI PUSH2 0xE75 PUSH2 0xA2D9 JUMP JUMPDEST JUMPDEST PUSH1 0xA MUL ADD PUSH1 0x9 PUSH1 0xA DUP2 LT PUSH2 0xE8D JUMPI PUSH2 0xE8C PUSH2 0xA2D9 JUMP JUMPDEST JUMPDEST ADD DUP2 SWAP1 SSTORE POP PUSH16 0x4B3B4CA85A86C47A098A224000000000 PUSH1 0xC8 PUSH1 0x3 PUSH1 0x27 DUP2 LT PUSH2 0xEB8 JUMPI PUSH2 0xEB7 PUSH2 0xA2D9 JUMP JUMPDEST JUMPDEST PUSH1 0xA MUL ADD PUSH1 0x0 PUSH1 0xA DUP2 LT PUSH2 0xECF JUMPI PUSH2 0xECE PUSH2 0xA2D9 JUMP JUMPDEST JUMPDEST ADD DUP2 SWAP1 SSTORE POP PUSH16 0x4B3CA26ADC181E23C3F7C5DAD355D41E PUSH1 0xC8 PUSH1 0x3 PUSH1 0x27 DUP2 LT PUSH2 0xEFA JUMPI PUSH2 0xEF9 PUSH2 0xA2D9 JUMP JUMPDEST JUMPDEST PUSH1 0xA MUL ADD PUSH1 0x1 PUSH1 0xA DUP2 LT PUSH2 0xF11 JUMPI PUSH2 0xF10 PUSH2 0xA2D9 JUMP JUMPDEST JUMPDEST ADD DUP2 SWAP1 SSTORE POP PUSH16 0x4B3DF8336E326F421D274ED62DAFE5A9 PUSH1 0xC8 PUSH1 0x3 PUSH1 0x27 DUP2 LT PUSH2 0xF3C JUMPI PUSH2 0xF3B PUSH2 0xA2D9 JUMP JUMPDEST JUMPDEST PUSH1 0xA MUL ADD PUSH1 0x2 PUSH1 0xA DUP2 LT PUSH2 0xF53 JUMPI PUSH2 0xF52 PUSH2 0xA2D9 JUMP JUMPDEST JUMPDEST ADD DUP2 SWAP1 SSTORE POP PUSH16 0x4B3F4E0210F144A30D966466400A0CA0 PUSH1 0xC8 PUSH1 0x3 PUSH1 0x27 DUP2 LT PUSH2 0xF7E JUMPI PUSH2 0xF7D PUSH2 0xA2D9 JUMP JUMPDEST JUMPDEST PUSH1 0xA MUL ADD PUSH1 0x3 PUSH1 0xA DUP2 LT PUSH2 0xF95 JUMPI PUSH2 0xF94 PUSH2 0xA2D9 JUMP JUMPDEST JUMPDEST ADD DUP2 SWAP1 SSTORE POP PUSH16 0x4B40A3D6C4702B91B501C642957C6B9E PUSH1 0xC8 PUSH1 0x3 PUSH1 0x27 DUP2 LT PUSH2 0xFC0 JUMPI PUSH2 0xFBF PUSH2 0xA2D9 JUMP JUMPDEST JUMPDEST PUSH1 0xA MUL ADD PUSH1 0x4 PUSH1 0xA DUP2 LT PUSH2 0xFD7 JUMPI PUSH2 0xFD6 PUSH2 0xA2D9 JUMP JUMPDEST JUMPDEST ADD DUP2 SWAP1 SSTORE POP PUSH16 0x4B41F9B188CAB1D65C9DD779526B20AE PUSH1 0xC8 PUSH1 0x3 PUSH1 0x27 DUP2 LT PUSH2 0x1002 JUMPI PUSH2 0x1001 PUSH2 0xA2D9 JUMP JUMPDEST JUMPDEST PUSH1 0xA MUL ADD PUSH1 0x5 PUSH1 0xA DUP2 LT PUSH2 0x1019 JUMPI PUSH2 0x1018 PUSH2 0xA2D9 JUMP JUMPDEST JUMPDEST ADD DUP2 SWAP1 SSTORE POP PUSH16 0x4B434F925E1C65B6794F335934FF0819 PUSH1 0xC8 PUSH1 0x3 PUSH1 0x27 DUP2 LT PUSH2 0x1044 JUMPI PUSH2 0x1043 PUSH2 0xA2D9 JUMP JUMPDEST JUMPDEST PUSH1 0xA MUL ADD PUSH1 0x6 PUSH1 0xA DUP2 LT PUSH2 0x105B JUMPI PUSH2 0x105A PUSH2 0xA2D9 JUMP JUMPDEST JUMPDEST ADD DUP2 SWAP1 SSTORE POP PUSH16 0x4B44A5794480D5F4ADE34C7284BC6BE2 PUSH1 0xC8 PUSH1 0x3 PUSH1 0x27 DUP2 LT PUSH2 0x1086 JUMPI PUSH2 0x1085 PUSH2 0xA2D9 JUMP JUMPDEST JUMPDEST PUSH1 0xA MUL ADD PUSH1 0x7 PUSH1 0xA DUP2 LT PUSH2 0x109D JUMPI PUSH2 0x109C PUSH2 0xA2D9 JUMP JUMPDEST JUMPDEST ADD DUP2 SWAP1 SSTORE POP PUSH16 0x4B45FB663C1391D0CD4915AF1F0D4A95 PUSH1 0xC8 PUSH1 0x3 PUSH1 0x27 DUP2 LT PUSH2 0x10C8 JUMPI PUSH2 0x10C7 PUSH2 0xA2D9 JUMP JUMPDEST JUMPDEST PUSH1 0xA MUL ADD PUSH1 0x8 PUSH1 0xA DUP2 LT PUSH2 0x10DF JUMPI PUSH2 0x10DE PUSH2 0xA2D9 JUMP JUMPDEST JUMPDEST ADD DUP2 SWAP1 SSTORE POP PUSH16 0x4B47515944F02907DCC9B581CE95B079 PUSH1 0xC8 PUSH1 0x3 PUSH1 0x27 DUP2 LT PUSH2 0x110A JUMPI PUSH2 0x1109 PUSH2 0xA2D9 JUMP JUMPDEST JUMPDEST PUSH1 0xA MUL ADD PUSH1 0x9 PUSH1 0xA DUP2 LT PUSH2 0x1121 JUMPI PUSH2 0x1120 PUSH2 0xA2D9 JUMP JUMPDEST JUMPDEST ADD DUP2 SWAP1 SSTORE POP PUSH16 0x4B3B4CA85A86C47A098A224000000000 PUSH1 0xC8 PUSH1 0x4 PUSH1 0x27 DUP2 LT PUSH2 0x114C JUMPI PUSH2 0x114B PUSH2 0xA2D9 JUMP JUMPDEST JUMPDEST PUSH1 0xA MUL ADD PUSH1 0x0 PUSH1 0xA DUP2 LT PUSH2 0x1163 JUMPI PUSH2 0x1162 PUSH2 0xA2D9 JUMP JUMPDEST JUMPDEST ADD DUP2 SWAP1 SSTORE POP PUSH16 0x4B3B6ED5219F48BE09DB701AE9EF16D6 PUSH1 0xC8 PUSH1 0x4 PUSH1 0x27 DUP2 LT PUSH2 0x118E JUMPI PUSH2 0x118D PUSH2 0xA2D9 JUMP JUMPDEST JUMPDEST PUSH1 0xA MUL ADD PUSH1 0x1 PUSH1 0xA DUP2 LT PUSH2 0x11A5 JUMPI PUSH2 0x11A4 PUSH2 0xA2D9 JUMP JUMPDEST JUMPDEST ADD DUP2 SWAP1 SSTORE POP PUSH16 0x4B3B9101F83E0AE41C67FF10BC60A576 PUSH1 0xC8 PUSH1 0x4 PUSH1 0x27 DUP2 LT PUSH2 0x11D0 JUMPI PUSH2 0x11CF PUSH2 0xA2D9 JUMP JUMPDEST JUMPDEST PUSH1 0xA MUL ADD PUSH1 0x2 PUSH1 0xA DUP2 LT PUSH2 0x11E7 JUMPI PUSH2 0x11E6 PUSH2 0xA2D9 JUMP JUMPDEST JUMPDEST ADD DUP2 SWAP1 SSTORE POP PUSH16 0x4B3BB32EDE6311F99A899A44D8E4E402 PUSH1 0xC8 PUSH1 0x4 PUSH1 0x27 DUP2 LT PUSH2 0x1212 JUMPI PUSH2 0x1211 PUSH2 0xA2D9 JUMP JUMPDEST JUMPDEST PUSH1 0xA MUL ADD PUSH1 0x3 PUSH1 0xA DUP2 LT PUSH2 0x1229 JUMPI PUSH2 0x1228 PUSH2 0xA2D9 JUMP JUMPDEST JUMPDEST ADD DUP2 SWAP1 SSTORE POP PUSH16 0x4B3BD55BD40E650BE0CE2710494BA861 PUSH1 0xC8 PUSH1 0x4 PUSH1 0x27 DUP2 LT PUSH2 0x1254 JUMPI PUSH2 0x1253 PUSH2 0xA2D9 JUMP JUMPDEST JUMPDEST PUSH1 0xA MUL ADD PUSH1 0x4 PUSH1 0xA DUP2 LT PUSH2 0x126B JUMPI PUSH2 0x126A PUSH2 0xA2D9 JUMP JUMPDEST JUMPDEST ADD DUP2 SWAP1 SSTORE POP PUSH16 0x4B3BF788D9400B284EF7A6764A559E79 PUSH1 0xC8 PUSH1 0x4 PUSH1 0x27 DUP2 LT PUSH2 0x1296 JUMPI PUSH2 0x1295 PUSH2 0xA2D9 JUMP JUMPDEST JUMPDEST PUSH1 0xA MUL ADD PUSH1 0x5 PUSH1 0xA DUP2 LT PUSH2 0x12AD JUMPI PUSH2 0x12AC PUSH2 0xA2D9 JUMP JUMPDEST JUMPDEST ADD DUP2 SWAP1 SSTORE POP PUSH16 0x4B3C19B5EDF80B5C47FC3698D70EBBB4 PUSH1 0xC8 PUSH1 0x4 PUSH1 0x27 DUP2 LT PUSH2 0x12D8 JUMPI PUSH2 0x12D7 PUSH2 0xA2D9 JUMP JUMPDEST JUMPDEST PUSH1 0xA MUL ADD PUSH1 0x6 PUSH1 0xA DUP2 LT PUSH2 0x12EF JUMPI PUSH2 0x12EE PUSH2 0xA2D9 JUMP JUMPDEST JUMPDEST ADD DUP2 SWAP1 SSTORE POP PUSH16 0x4B3C3BE312366CB53206142D34D1EE33 PUSH1 0xC8 PUSH1 0x4 PUSH1 0x27 DUP2 LT PUSH2 0x131A JUMPI PUSH2 0x1319 PUSH2 0xA2D9 JUMP JUMPDEST JUMPDEST PUSH1 0xA MUL ADD PUSH1 0x7 PUSH1 0xA DUP2 LT PUSH2 0x1331 JUMPI PUSH2 0x1330 PUSH2 0xA2D9 JUMP JUMPDEST JUMPDEST ADD DUP2 SWAP1 SSTORE POP PUSH16 0x4B3C5E1045FB364076739BF07FF607E3 PUSH1 0xC8 PUSH1 0x4 PUSH1 0x27 DUP2 LT PUSH2 0x135C JUMPI PUSH2 0x135B PUSH2 0xA2D9 JUMP JUMPDEST JUMPDEST PUSH1 0xA MUL ADD PUSH1 0x8 PUSH1 0xA DUP2 LT PUSH2 0x1373 JUMPI PUSH2 0x1372 PUSH2 0xA2D9 JUMP JUMPDEST JUMPDEST ADD DUP2 SWAP1 SSTORE POP PUSH16 0x4B3C803D89466F0B81D74C1C3923E5D5 PUSH1 0xC8 PUSH1 0x4 PUSH1 0x27 DUP2 LT PUSH2 0x139E JUMPI PUSH2 0x139D PUSH2 0xA2D9 JUMP JUMPDEST JUMPDEST PUSH1 0xA MUL ADD PUSH1 0x9 PUSH1 0xA DUP2 LT PUSH2 0x13B5 JUMPI PUSH2 0x13B4 PUSH2 0xA2D9 JUMP JUMPDEST JUMPDEST ADD DUP2 SWAP1 SSTORE POP PUSH16 0x4B3B4CA85A86C47A098A224000000000 PUSH1 0xC8 PUSH1 0x5 PUSH1 0x27 DUP2 LT PUSH2 0x13E0 JUMPI PUSH2 0x13DF PUSH2 0xA2D9 JUMP JUMPDEST JUMPDEST PUSH1 0xA MUL ADD PUSH1 0x0 PUSH1 0xA DUP2 LT PUSH2 0x13F7 JUMPI PUSH2 0x13F6 PUSH2 0xA2D9 JUMP JUMPDEST JUMPDEST ADD DUP2 SWAP1 SSTORE POP PUSH16 0x4B3B50133A89943D50FDC16EE0F2F73E PUSH1 0xC8 PUSH1 0x5 PUSH1 0x27 DUP2 LT PUSH2 0x1422 JUMPI PUSH2 0x1421 PUSH2 0xA2D9 JUMP JUMPDEST JUMPDEST PUSH1 0xA MUL ADD PUSH1 0x1 PUSH1 0xA DUP2 LT PUSH2 0x1439 JUMPI PUSH2 0x1438 PUSH2 0xA2D9 JUMP JUMPDEST JUMPDEST ADD DUP2 SWAP1 SSTORE POP PUSH16 0x4B3B537E1AB421FF687C5C6E88785208 PUSH1 0xC8 PUSH1 0x5 PUSH1 0x27 DUP2 LT PUSH2 0x1464 JUMPI PUSH2 0x1463 PUSH2 0xA2D9 JUMP JUMPDEST JUMPDEST PUSH1 0xA MUL ADD PUSH1 0x2 PUSH1 0xA DUP2 LT PUSH2 0x147B JUMPI PUSH2 0x147A PUSH2 0xA2D9 JUMP JUMPDEST JUMPDEST ADD DUP2 SWAP1 SSTORE POP PUSH16 0x4B3B56E8FB066DC21E3032644F2F78C3 PUSH1 0xC8 PUSH1 0x5 PUSH1 0x27 DUP2 LT PUSH2 0x14A6 JUMPI PUSH2 0x14A5 PUSH2 0xA2D9 JUMP JUMPDEST JUMPDEST PUSH1 0xA MUL ADD PUSH1 0x3 PUSH1 0xA DUP2 LT PUSH2 0x14BD JUMPI PUSH2 0x14BC PUSH2 0xA2D9 JUMP JUMPDEST JUMPDEST ADD DUP2 SWAP1 SSTORE POP PUSH16 0x4B3B5A53DB807787404397741C07DE0B PUSH1 0xC8 PUSH1 0x5 PUSH1 0x27 DUP2 LT PUSH2 0x14E8 JUMPI PUSH2 0x14E7 PUSH2 0xA2D9 JUMP JUMPDEST JUMPDEST PUSH1 0xA MUL ADD PUSH1 0x4 PUSH1 0xA DUP2 LT PUSH2 0x14FF JUMPI PUSH2 0x14FE PUSH2 0xA2D9 JUMP JUMPDEST JUMPDEST ADD DUP2 SWAP1 SSTORE POP PUSH16 0x4B3B5DBEBC223F509CE0F4C0653523DD PUSH1 0xC8 PUSH1 0x5 PUSH1 0x27 DUP2 LT PUSH2 0x152A JUMPI PUSH2 0x1529 PUSH2 0xA2D9 JUMP JUMPDEST JUMPDEST PUSH1 0xA MUL ADD PUSH1 0x5 PUSH1 0xA DUP2 LT PUSH2 0x1541 JUMPI PUSH2 0x1540 PUSH2 0xA2D9 JUMP JUMPDEST JUMPDEST ADD DUP2 SWAP1 SSTORE POP PUSH16 0x4B3B61299CEBC5200232C86A312340CC PUSH1 0xC8 PUSH1 0x5 PUSH1 0x27 DUP2 LT PUSH2 0x156C JUMPI PUSH2 0x156B PUSH2 0xA2D9 JUMP JUMPDEST JUMPDEST PUSH1 0xA MUL ADD PUSH1 0x6 PUSH1 0xA DUP2 LT PUSH2 0x1583 JUMPI PUSH2 0x1582 PUSH2 0xA2D9 JUMP JUMPDEST JUMPDEST ADD DUP2 SWAP1 SSTORE POP PUSH16 0x4B3B64947DDD08F73E63A591176AA541 PUSH1 0xC8 PUSH1 0x5 PUSH1 0x27 DUP2 LT PUSH2 0x15AE JUMPI PUSH2 0x15AD PUSH2 0xA2D9 JUMP JUMPDEST JUMPDEST PUSH1 0xA MUL ADD PUSH1 0x7 PUSH1 0xA DUP2 LT PUSH2 0x15C5 JUMPI PUSH2 0x15C4 PUSH2 0xA2D9 JUMP JUMPDEST JUMPDEST ADD DUP2 SWAP1 SSTORE POP PUSH16 0x4B3B67FF5EF60AD81F9E345341C460C6 PUSH1 0xC8 PUSH1 0x5 PUSH1 0x27 DUP2 LT PUSH2 0x15F0 JUMPI PUSH2 0x15EF PUSH2 0xA2D9 JUMP JUMPDEST JUMPDEST PUSH1 0xA MUL ADD PUSH1 0x8 PUSH1 0xA DUP2 LT PUSH2 0x1607 JUMPI PUSH2 0x1606 PUSH2 0xA2D9 JUMP JUMPDEST JUMPDEST ADD DUP2 SWAP1 SSTORE POP PUSH16 0x4B3B6B6A4036CAC4740D31CD6CFE475A PUSH1 0xC8 PUSH1 0x5 PUSH1 0x27 DUP2 LT PUSH2 0x1632 JUMPI PUSH2 0x1631 PUSH2 0xA2D9 JUMP JUMPDEST JUMPDEST PUSH1 0xA MUL ADD PUSH1 0x9 PUSH1 0xA DUP2 LT PUSH2 0x1649 JUMPI PUSH2 0x1648 PUSH2 0xA2D9 JUMP JUMPDEST JUMPDEST ADD DUP2 SWAP1 SSTORE POP PUSH16 0x4B3B4CA85A86C47A098A224000000000 PUSH1 0xC8 PUSH1 0x6 PUSH1 0x27 DUP2 LT PUSH2 0x1674 JUMPI PUSH2 0x1673 PUSH2 0xA2D9 JUMP JUMPDEST JUMPDEST PUSH1 0xA MUL ADD PUSH1 0x0 PUSH1 0xA DUP2 LT PUSH2 0x168B JUMPI PUSH2 0x168A PUSH2 0xA2D9 JUMP JUMPDEST JUMPDEST ADD DUP2 SWAP1 SSTORE POP PUSH16 0x4B3B4CFFD7520F6C63DAC18BE5CB197F PUSH1 0xC8 PUSH1 0x6 PUSH1 0x27 DUP2 LT PUSH2 0x16B6 JUMPI PUSH2 0x16B5 PUSH2 0xA2D9 JUMP JUMPDEST JUMPDEST PUSH1 0xA MUL ADD PUSH1 0x1 PUSH1 0xA DUP2 LT PUSH2 0x16CD JUMPI PUSH2 0x16CC PUSH2 0xA2D9 JUMP JUMPDEST JUMPDEST ADD DUP2 SWAP1 SSTORE POP PUSH16 0x4B3B4D57541DC01C279C42B2EFF446F4 PUSH1 0xC8 PUSH1 0x6 PUSH1 0x27 DUP2 LT PUSH2 0x16F8 JUMPI PUSH2 0x16F7 PUSH2 0xA2D9 JUMP JUMPDEST JUMPDEST PUSH1 0xA MUL ADD PUSH1 0x2 PUSH1 0xA DUP2 LT PUSH2 0x170F JUMPI PUSH2 0x170E PUSH2 0xA2D9 JUMP JUMPDEST JUMPDEST ADD DUP2 SWAP1 SSTORE POP PUSH16 0x4B3B4DAED0E9D6895544F6205530A6CA PUSH1 0xC8 PUSH1 0x6 PUSH1 0x27 DUP2 LT PUSH2 0x173A JUMPI PUSH2 0x1739 PUSH2 0xA2D9 JUMP JUMPDEST JUMPDEST PUSH1 0xA MUL ADD PUSH1 0x3 PUSH1 0xA DUP2 LT PUSH2 0x1751 JUMPI PUSH2 0x1750 PUSH2 0xA2D9 JUMP JUMPDEST JUMPDEST ADD DUP2 SWAP1 SSTORE POP PUSH16 0x4B3B4E064DB652B3ED4B2C3FD5CBFCB4 PUSH1 0xC8 PUSH1 0x6 PUSH1 0x27 DUP2 LT PUSH2 0x177C JUMPI PUSH2 0x177B PUSH2 0xA2D9 JUMP JUMPDEST JUMPDEST PUSH1 0xA MUL ADD PUSH1 0x4 PUSH1 0xA DUP2 LT PUSH2 0x1793 JUMPI PUSH2 0x1792 PUSH2 0xA2D9 JUMP JUMPDEST JUMPDEST ADD DUP2 SWAP1 SSTORE POP PUSH16 0x4B3B4E5DCA83349BF025357DBBA8B251 PUSH1 0xC8 PUSH1 0x6 PUSH1 0x27 DUP2 LT PUSH2 0x17BE JUMPI PUSH2 0x17BD PUSH2 0xA2D9 JUMP JUMPDEST JUMPDEST PUSH1 0xA MUL ADD PUSH1 0x5 PUSH1 0xA DUP2 LT PUSH2 0x17D5 JUMPI PUSH2 0x17D4 PUSH2 0xA2D9 JUMP JUMPDEST JUMPDEST ADD DUP2 SWAP1 SSTORE POP PUSH16 0x4B3B4EB547507C415E496246DA3FD7CA PUSH1 0xC8 PUSH1 0x6 PUSH1 0x27 DUP2 LT PUSH2 0x1800 JUMPI PUSH2 0x17FF PUSH2 0xA2D9 JUMP JUMPDEST JUMPDEST PUSH1 0xA MUL ADD PUSH1 0x6 PUSH1 0xA DUP2 LT PUSH2 0x1817 JUMPI PUSH2 0x1816 PUSH2 0xA2D9 JUMP JUMPDEST JUMPDEST ADD DUP2 SWAP1 SSTORE POP PUSH16 0x4B3B4F0CC41E29A4382E03088EA12471 PUSH1 0xC8 PUSH1 0x6 PUSH1 0x27 DUP2 LT PUSH2 0x1842 JUMPI PUSH2 0x1841 PUSH2 0xA2D9 JUMP JUMPDEST JUMPDEST PUSH1 0xA MUL ADD PUSH1 0x7 PUSH1 0xA DUP2 LT PUSH2 0x1859 JUMPI PUSH2 0x1858 PUSH2 0xA2D9 JUMP JUMPDEST JUMPDEST ADD DUP2 SWAP1 SSTORE POP PUSH16 0x4B3B4F6440EC3CC47E496830BF72F760 PUSH1 0xC8 PUSH1 0x6 PUSH1 0x27 DUP2 LT PUSH2 0x1884 JUMPI PUSH2 0x1883 PUSH2 0xA2D9 JUMP JUMPDEST JUMPDEST PUSH1 0xA MUL ADD PUSH1 0x8 PUSH1 0xA DUP2 LT PUSH2 0x189B JUMPI PUSH2 0x189A PUSH2 0xA2D9 JUMP JUMPDEST JUMPDEST ADD DUP2 SWAP1 SSTORE POP PUSH16 0x4B3B4FBBBDBAB5A23111E22DDCF25820 PUSH1 0xC8 PUSH1 0x6 PUSH1 0x27 DUP2 LT PUSH2 0x18C6 JUMPI PUSH2 0x18C5 PUSH2 0xA2D9 JUMP JUMPDEST JUMPDEST PUSH1 0xA MUL ADD PUSH1 0x9 PUSH1 0xA DUP2 LT PUSH2 0x18DD JUMPI PUSH2 0x18DC PUSH2 0xA2D9 JUMP JUMPDEST JUMPDEST ADD DUP2 SWAP1 SSTORE POP PUSH16 0x4B3B4CA85A86C47A098A224000000000 PUSH1 0xC8 PUSH1 0x7 PUSH1 0x27 DUP2 LT PUSH2 0x1908 JUMPI PUSH2 0x1907 PUSH2 0xA2D9 JUMP JUMPDEST JUMPDEST PUSH1 0xA MUL ADD PUSH1 0x0 PUSH1 0xA DUP2 LT PUSH2 0x191F JUMPI PUSH2 0x191E PUSH2 0xA2D9 JUMP JUMPDEST JUMPDEST ADD DUP2 SWAP1 SSTORE POP PUSH16 0x4B3B4CB11A34ADCB07707CFEFB195ABE PUSH1 0xC8 PUSH1 0x7 PUSH1 0x27 DUP2 LT PUSH2 0x194A JUMPI PUSH2 0x1949 PUSH2 0xA2D9 JUMP JUMPDEST JUMPDEST PUSH1 0xA MUL ADD PUSH1 0x1 PUSH1 0xA DUP2 LT PUSH2 0x1961 JUMPI PUSH2 0x1960 PUSH2 0xA2D9 JUMP JUMPDEST JUMPDEST ADD DUP2 SWAP1 SSTORE POP PUSH16 0x4B3B4CB9D9E298207996E81FF5DA2DB6 PUSH1 0xC8 PUSH1 0x7 PUSH1 0x27 DUP2 LT PUSH2 0x198C JUMPI PUSH2 0x198B PUSH2 0xA2D9 JUMP JUMPDEST JUMPDEST PUSH1 0xA MUL ADD PUSH1 0x2 PUSH1 0xA DUP2 LT PUSH2 0x19A3 JUMPI PUSH2 0x19A2 PUSH2 0xA2D9 JUMP JUMPDEST JUMPDEST ADD DUP2 SWAP1 SSTORE POP PUSH16 0x4B3B4CC29990837A5FFD81ECC5E37CA1 PUSH1 0xC8 PUSH1 0x7 PUSH1 0x27 DUP2 LT PUSH2 0x19CE JUMPI PUSH2 0x19CD PUSH2 0xA2D9 JUMP JUMPDEST JUMPDEST PUSH1 0xA MUL ADD PUSH1 0x3 PUSH1 0xA DUP2 LT PUSH2 0x19E5 JUMPI PUSH2 0x19E4 PUSH2 0xA2D9 JUMP JUMPDEST JUMPDEST ADD DUP2 SWAP1 SSTORE POP PUSH16 0x4B3B4CCB593E6FD8BAA468AF40D9D0EC PUSH1 0xC8 PUSH1 0x7 PUSH1 0x27 DUP2 LT PUSH2 0x1A10 JUMPI PUSH2 0x1A0F PUSH2 0xA2D9 JUMP JUMPDEST JUMPDEST PUSH1 0xA MUL ADD PUSH1 0x4 PUSH1 0xA DUP2 LT PUSH2 0x1A27 JUMPI PUSH2 0x1A26 PUSH2 0xA2D9 JUMP JUMPDEST JUMPDEST ADD DUP2 SWAP1 SSTORE POP PUSH16 0x4B3B4CD418EC5D3B898BBAB13C6539B7 PUSH1 0xC8 PUSH1 0x7 PUSH1 0x27 DUP2 LT PUSH2 0x1A52 JUMPI PUSH2 0x1A51 PUSH2 0xA2D9 JUMP JUMPDEST JUMPDEST PUSH1 0xA MUL ADD PUSH1 0x5 PUSH1 0xA DUP2 LT PUSH2 0x1A69 JUMPI PUSH2 0x1A68 PUSH2 0xA2D9 JUMP JUMPDEST JUMPDEST ADD DUP2 SWAP1 SSTORE POP PUSH16 0x4B3B4CDCD89A4BA2CCB3963C8E314BD5 PUSH1 0xC8 PUSH1 0x7 PUSH1 0x27 DUP2 LT PUSH2 0x1A94 JUMPI PUSH2 0x1A93 PUSH2 0xA2D9 JUMP JUMPDEST JUMPDEST PUSH1 0xA MUL ADD PUSH1 0x6 PUSH1 0xA DUP2 LT PUSH2 0x1AAB JUMPI PUSH2 0x1AAA PUSH2 0xA2D9 JUMP JUMPDEST JUMPDEST ADD DUP2 SWAP1 SSTORE POP PUSH16 0x4B3B4CE598483B0E841C199B0BED21CC PUSH1 0xC8 PUSH1 0x7 PUSH1 0x27 DUP2 LT PUSH2 0x1AD6 JUMPI PUSH2 0x1AD5 PUSH2 0xA2D9 JUMP JUMPDEST JUMPDEST PUSH1 0xA MUL ADD PUSH1 0x7 PUSH1 0xA DUP2 LT PUSH2 0x1AED JUMPI PUSH2 0x1AEC PUSH2 0xA2D9 JUMP JUMPDEST JUMPDEST ADD DUP2 SWAP1 SSTORE POP PUSH16 0x4B3B4CEE57F62B7EAFC563168B4B5BD4 PUSH1 0xC8 PUSH1 0x7 PUSH1 0x27 DUP2 LT PUSH2 0x1B18 JUMPI PUSH2 0x1B17 PUSH2 0xA2D9 JUMP JUMPDEST JUMPDEST PUSH1 0xA MUL ADD PUSH1 0x8 PUSH1 0xA DUP2 LT PUSH2 0x1B2F JUMPI PUSH2 0x1B2E PUSH2 0xA2D9 JUMP JUMPDEST JUMPDEST ADD DUP2 SWAP1 SSTORE POP PUSH16 0x4B3B4CF717A41CF34FAF90F8E2021FDB PUSH1 0xC8 PUSH1 0x7 PUSH1 0x27 DUP2 LT PUSH2 0x1B5A JUMPI PUSH2 0x1B59 PUSH2 0xA2D9 JUMP JUMPDEST JUMPDEST PUSH1 0xA MUL ADD PUSH1 0x9 PUSH1 0xA DUP2 LT PUSH2 0x1B71 JUMPI PUSH2 0x1B70 PUSH2 0xA2D9 JUMP JUMPDEST JUMPDEST ADD DUP2 SWAP1 SSTORE POP PUSH16 0x4B3B4CA85A86C47A098A224000000000 PUSH1 0xC8 PUSH1 0x8 PUSH1 0x27 DUP2 LT PUSH2 0x1B9C JUMPI PUSH2 0x1B9B PUSH2 0xA2D9 JUMP JUMPDEST JUMPDEST PUSH1 0xA MUL ADD PUSH1 0x0 PUSH1 0xA DUP2 LT PUSH2 0x1BB3 JUMPI PUSH2 0x1BB2 PUSH2 0xA2D9 JUMP JUMPDEST JUMPDEST ADD DUP2 SWAP1 SSTORE POP PUSH16 0x4B3B4CA93A7E8EF66A7F91D9C09F21A7 PUSH1 0xC8 PUSH1 0x8 PUSH1 0x27 DUP2 LT PUSH2 0x1BDE JUMPI PUSH2 0x1BDD PUSH2 0xA2D9 JUMP JUMPDEST JUMPDEST PUSH1 0xA MUL ADD PUSH1 0x1 PUSH1 0xA DUP2 LT PUSH2 0x1BF5 JUMPI PUSH2 0x1BF4 PUSH2 0xA2D9 JUMP JUMPDEST JUMPDEST ADD DUP2 SWAP1 SSTORE POP PUSH16 0x4B3B4CAA1A7659756638348ADC3EC58C PUSH1 0xC8 PUSH1 0x8 PUSH1 0x27 DUP2 LT PUSH2 0x1C20 JUMPI PUSH2 0x1C1F PUSH2 0xA2D9 JUMP JUMPDEST JUMPDEST PUSH1 0xA MUL ADD PUSH1 0x2 PUSH1 0xA DUP2 LT PUSH2 0x1C37 JUMPI PUSH2 0x1C36 PUSH2 0xA2D9 JUMP JUMPDEST JUMPDEST ADD DUP2 SWAP1 SSTORE POP PUSH16 0x4B3B4CAAFA6E23F6FCB40A5B13DA3683 PUSH1 0xC8 PUSH1 0x8 PUSH1 0x27 DUP2 LT PUSH2 0x1C62 JUMPI PUSH2 0x1C61 PUSH2 0xA2D9 JUMP JUMPDEST JUMPDEST PUSH1 0xA MUL ADD PUSH1 0x3 PUSH1 0xA DUP2 LT PUSH2 0x1C79 JUMPI PUSH2 0x1C78 PUSH2 0xA2D9 JUMP JUMPDEST JUMPDEST ADD DUP2 SWAP1 SSTORE POP PUSH16 0x4B3B4CABDA65EE7B2DF31352286CBF72 PUSH1 0xC8 PUSH1 0x8 PUSH1 0x27 DUP2 LT PUSH2 0x1CA4 JUMPI PUSH2 0x1CA3 PUSH2 0xA2D9 JUMP JUMPDEST JUMPDEST PUSH1 0xA MUL ADD PUSH1 0x4 PUSH1 0xA DUP2 LT PUSH2 0x1CBB JUMPI PUSH2 0x1CBA PUSH2 0xA2D9 JUMP JUMPDEST JUMPDEST ADD DUP2 SWAP1 SSTORE POP PUSH16 0x4B3B4CACBA5DB901F9F54F77DAF1AB5A PUSH1 0xC8 PUSH1 0x8 PUSH1 0x27 DUP2 LT PUSH2 0x1CE6 JUMPI PUSH2 0x1CE5 PUSH2 0xA2D9 JUMP JUMPDEST JUMPDEST PUSH1 0xA MUL ADD PUSH1 0x5 PUSH1 0xA DUP2 LT PUSH2 0x1CFD JUMPI PUSH2 0x1CFC PUSH2 0xA2D9 JUMP JUMPDEST JUMPDEST ADD DUP2 SWAP1 SSTORE POP PUSH16 0x4B3B4CAD9A55838B60BABED3EC644552 PUSH1 0xC8 PUSH1 0x8 PUSH1 0x27 DUP2 LT PUSH2 0x1D28 JUMPI PUSH2 0x1D27 PUSH2 0xA2D9 JUMP JUMPDEST JUMPDEST PUSH1 0xA MUL ADD PUSH1 0x6 PUSH1 0xA DUP2 LT PUSH2 0x1D3F JUMPI PUSH2 0x1D3E PUSH2 0xA2D9 JUMP JUMPDEST JUMPDEST ADD DUP2 SWAP1 SSTORE POP PUSH16 0x4B3B4CAE7A4D4E176243616E1DBFD888 PUSH1 0xC8 PUSH1 0x8 PUSH1 0x27 DUP2 LT PUSH2 0x1D6A JUMPI PUSH2 0x1D69 PUSH2 0xA2D9 JUMP JUMPDEST JUMPDEST PUSH1 0xA MUL ADD PUSH1 0x7 PUSH1 0xA DUP2 LT PUSH2 0x1D81 JUMPI PUSH2 0x1D80 PUSH2 0xA2D9 JUMP JUMPDEST JUMPDEST ADD DUP2 SWAP1 SSTORE POP PUSH16 0x4B3B4CAF5A4518A5FE8F374E2FFFB040 PUSH1 0xC8 PUSH1 0x8 PUSH1 0x27 DUP2 LT PUSH2 0x1DAC JUMPI PUSH2 0x1DAB PUSH2 0xA2D9 JUMP JUMPDEST JUMPDEST PUSH1 0xA MUL ADD PUSH1 0x8 PUSH1 0xA DUP2 LT PUSH2 0x1DC3 JUMPI PUSH2 0x1DC2 PUSH2 0xA2D9 JUMP JUMPDEST JUMPDEST ADD DUP2 SWAP1 SSTORE POP PUSH16 0x4B3B4CB03A3CE337359E407BE41F17D6 PUSH1 0xC8 PUSH1 0x8 PUSH1 0x27 DUP2 LT PUSH2 0x1DEE JUMPI PUSH2 0x1DED PUSH2 0xA2D9 JUMP JUMPDEST JUMPDEST PUSH1 0xA MUL ADD PUSH1 0x9 PUSH1 0xA DUP2 LT PUSH2 0x1E05 JUMPI PUSH2 0x1E04 PUSH2 0xA2D9 JUMP JUMPDEST JUMPDEST ADD DUP2 SWAP1 SSTORE POP PUSH16 0x4B3B4CA85A86C47A098A224000000000 PUSH1 0xC8 PUSH1 0x9 PUSH1 0x27 DUP2 LT PUSH2 0x1E30 JUMPI PUSH2 0x1E2F PUSH2 0xA2D9 JUMP JUMPDEST JUMPDEST PUSH1 0xA MUL ADD PUSH1 0x0 PUSH1 0xA DUP2 LT PUSH2 0x1E47 JUMPI PUSH2 0x1E46 PUSH2 0xA2D9 JUMP JUMPDEST JUMPDEST ADD DUP2 SWAP1 SSTORE POP PUSH16 0x4B3B4CA870EC58B98ED4C5FDE7BD3232 PUSH1 0xC8 PUSH1 0x9 PUSH1 0x27 DUP2 LT PUSH2 0x1E72 JUMPI PUSH2 0x1E71 PUSH2 0xA2D9 JUMP JUMPDEST JUMPDEST PUSH1 0xA MUL ADD PUSH1 0x1 PUSH1 0xA DUP2 LT PUSH2 0x1E89 JUMPI PUSH2 0x1E88 PUSH2 0xA2D9 JUMP JUMPDEST JUMPDEST ADD DUP2 SWAP1 SSTORE POP PUSH16 0x4B3B4CA88751ECF91ACA53344B52C275 PUSH1 0xC8 PUSH1 0x9 PUSH1 0x27 DUP2 LT PUSH2 0x1EB4 JUMPI PUSH2 0x1EB3 PUSH2 0xA2D9 JUMP JUMPDEST JUMPDEST PUSH1 0xA MUL ADD PUSH1 0x2 PUSH1 0xA DUP2 LT PUSH2 0x1ECB JUMPI PUSH2 0x1ECA PUSH2 0xA2D9 JUMP JUMPDEST JUMPDEST ADD DUP2 SWAP1 SSTORE POP PUSH16 0x4B3B4CA89DB78138AD6AC9E32CBCD88C PUSH1 0xC8 PUSH1 0x9 PUSH1 0x27 DUP2 LT PUSH2 0x1EF6 JUMPI PUSH2 0x1EF5 PUSH2 0xA2D9 JUMP JUMPDEST JUMPDEST PUSH1 0xA MUL ADD PUSH1 0x3 PUSH1 0xA DUP2 LT PUSH2 0x1F0D JUMPI PUSH2 0x1F0C PUSH2 0xA2D9 JUMP JUMPDEST JUMPDEST ADD DUP2 SWAP1 SSTORE POP PUSH16 0x4B3B4CA8B41D157846B62A0A8DF79C37 PUSH1 0xC8 PUSH1 0x9 PUSH1 0x27 DUP2 LT PUSH2 0x1F38 JUMPI PUSH2 0x1F37 PUSH2 0xA2D9 JUMP JUMPDEST JUMPDEST PUSH1 0xA MUL ADD PUSH1 0x4 PUSH1 0xA DUP2 LT PUSH2 0x1F4F JUMPI PUSH2 0x1F4E PUSH2 0xA2D9 JUMP JUMPDEST JUMPDEST ADD DUP2 SWAP1 SSTORE POP PUSH16 0x4B3B4CA8CA82A9B7E6AC73AA70FF3538 PUSH1 0xC8 PUSH1 0x9 PUSH1 0x27 DUP2 LT PUSH2 0x1F7A JUMPI PUSH2 0x1F79 PUSH2 0xA2D9 JUMP JUMPDEST JUMPDEST PUSH1 0xA MUL ADD PUSH1 0x5 PUSH1 0xA DUP2 LT PUSH2 0x1F91 JUMPI PUSH2 0x1F90 PUSH2 0xA2D9 JUMP JUMPDEST JUMPDEST ADD DUP2 SWAP1 SSTORE POP PUSH16 0x4B3B4CA8E0E83DF78D4DA6C2D7CFCB4F PUSH1 0xC8 PUSH1 0x9 PUSH1 0x27 DUP2 LT PUSH2 0x1FBC JUMPI PUSH2 0x1FBB PUSH2 0xA2D9 JUMP JUMPDEST JUMPDEST PUSH1 0xA MUL ADD PUSH1 0x6 PUSH1 0xA DUP2 LT PUSH2 0x1FD3 JUMPI PUSH2 0x1FD2 PUSH2 0xA2D9 JUMP JUMPDEST JUMPDEST ADD DUP2 SWAP1 SSTORE POP PUSH16 0x4B3B4CA8F74DD2373A99C353C465863E PUSH1 0xC8 PUSH1 0x9 PUSH1 0x27 DUP2 LT PUSH2 0x1FFE JUMPI PUSH2 0x1FFD PUSH2 0xA2D9 JUMP JUMPDEST JUMPDEST PUSH1 0xA MUL ADD PUSH1 0x7 PUSH1 0xA DUP2 LT PUSH2 0x2015 JUMPI PUSH2 0x2014 PUSH2 0xA2D9 JUMP JUMPDEST JUMPDEST ADD DUP2 SWAP1 SSTORE POP PUSH16 0x4B3B4CA90DB36676EE90C95D38BC8DC6 PUSH1 0xC8 PUSH1 0x9 PUSH1 0x27 DUP2 LT PUSH2 0x2040 JUMPI PUSH2 0x203F PUSH2 0xA2D9 JUMP JUMPDEST JUMPDEST PUSH1 0xA MUL ADD PUSH1 0x8 PUSH1 0xA DUP2 LT PUSH2 0x2057 JUMPI PUSH2 0x2056 PUSH2 0xA2D9 JUMP JUMPDEST JUMPDEST ADD DUP2 SWAP1 SSTORE POP PUSH16 0x4B3B4CA92418FAB6A932B8DF36D109A9 PUSH1 0xC8 PUSH1 0x9 PUSH1 0x27 DUP2 LT PUSH2 0x2082 JUMPI PUSH2 0x2081 PUSH2 0xA2D9 JUMP JUMPDEST JUMPDEST PUSH1 0xA MUL ADD PUSH1 0x9 PUSH1 0xA DUP2 LT PUSH2 0x2099 JUMPI PUSH2 0x2098 PUSH2 0xA2D9 JUMP JUMPDEST JUMPDEST ADD DUP2 SWAP1 SSTORE POP PUSH16 0x4B3B4CA85A86C47A098A224000000000 PUSH1 0xC8 PUSH1 0xA PUSH1 0x27 DUP2 LT PUSH2 0x20C4 JUMPI PUSH2 0x20C3 PUSH2 0xA2D9 JUMP JUMPDEST JUMPDEST PUSH1 0xA MUL ADD PUSH1 0x0 PUSH1 0xA DUP2 LT PUSH2 0x20DB JUMPI PUSH2 0x20DA PUSH2 0xA2D9 JUMP JUMPDEST JUMPDEST ADD DUP2 SWAP1 SSTORE POP PUSH16 0x4B3B4CA85CC42019FCF7FC9916C70687 PUSH1 0xC8 PUSH1 0xA PUSH1 0x27 DUP2 LT PUSH2 0x2106 JUMPI PUSH2 0x2105 PUSH2 0xA2D9 JUMP JUMPDEST JUMPDEST PUSH1 0xA MUL ADD PUSH1 0x1 PUSH1 0xA DUP2 LT PUSH2 0x211D JUMPI PUSH2 0x211C PUSH2 0xA2D9 JUMP JUMPDEST JUMPDEST ADD DUP2 SWAP1 SSTORE POP PUSH16 0x4B3B4CA85F017BB9F076E8A405D0C2E3 PUSH1 0xC8 PUSH1 0xA PUSH1 0x27 DUP2 LT PUSH2 0x2148 JUMPI PUSH2 0x2147 PUSH2 0xA2D9 JUMP JUMPDEST JUMPDEST PUSH1 0xA MUL ADD PUSH1 0x2 PUSH1 0xA DUP2 LT PUSH2 0x215F JUMPI PUSH2 0x215E PUSH2 0xA2D9 JUMP JUMPDEST JUMPDEST ADD DUP2 SWAP1 SSTORE POP PUSH16 0x4B3B4CA8613ED759E406E660CD1DB72A PUSH1 0xC8 PUSH1 0xA PUSH1 0x27 DUP2 LT PUSH2 0x218A JUMPI PUSH2 0x2189 PUSH2 0xA2D9 JUMP JUMPDEST JUMPDEST PUSH1 0xA MUL ADD PUSH1 0x3 PUSH1 0xA DUP2 LT PUSH2 0x21A1 JUMPI PUSH2 0x21A0 PUSH2 0xA2D9 JUMP JUMPDEST JUMPDEST ADD DUP2 SWAP1 SSTORE POP PUSH16 0x4B3B4CA8637C32F9D7A7F5CF6CAE6572 PUSH1 0xC8 PUSH1 0xA PUSH1 0x27 DUP2 LT PUSH2 0x21CC JUMPI PUSH2 0x21CB PUSH2 0xA2D9 JUMP JUMPDEST JUMPDEST PUSH1 0xA MUL ADD PUSH1 0x4 PUSH1 0xA DUP2 LT PUSH2 0x21E3 JUMPI PUSH2 0x21E2 PUSH2 0xA2D9 JUMP JUMPDEST JUMPDEST ADD DUP2 SWAP1 SSTORE POP PUSH16 0x4B3B4CA865B98E99CB5A16EFE4834FD3 PUSH1 0xC8 PUSH1 0xA PUSH1 0x27 DUP2 LT PUSH2 0x220E JUMPI PUSH2 0x220D PUSH2 0xA2D9 JUMP JUMPDEST JUMPDEST PUSH1 0xA MUL ADD PUSH1 0x5 PUSH1 0xA DUP2 LT PUSH2 0x2225 JUMPI PUSH2 0x2224 PUSH2 0xA2D9 JUMP JUMPDEST JUMPDEST ADD DUP2 SWAP1 SSTORE POP PUSH16 0x4B3B4CA867F6EA39BF1D49C2349CF862 PUSH1 0xC8 PUSH1 0xA PUSH1 0x27 DUP2 LT PUSH2 0x2250 JUMPI PUSH2 0x224F PUSH2 0xA2D9 JUMP JUMPDEST JUMPDEST PUSH1 0xA MUL ADD PUSH1 0x6 PUSH1 0xA DUP2 LT PUSH2 0x2267 JUMPI PUSH2 0x2266 PUSH2 0xA2D9 JUMP JUMPDEST JUMPDEST ADD DUP2 SWAP1 SSTORE POP PUSH16 0x4B3B4CA86A3445D9B2F18E465CFBE136 PUSH1 0xC8 PUSH1 0xA PUSH1 0x27 DUP2 LT PUSH2 0x2292 JUMPI PUSH2 0x2291 PUSH2 0xA2D9 JUMP JUMPDEST JUMPDEST PUSH1 0xA MUL ADD PUSH1 0x7 PUSH1 0xA DUP2 LT PUSH2 0x22A9 JUMPI PUSH2 0x22A8 PUSH2 0xA2D9 JUMP JUMPDEST JUMPDEST ADD DUP2 SWAP1 SSTORE POP PUSH16 0x4B3B4CA86C71A179A6D6E47C5DA08C66 PUSH1 0xC8 PUSH1 0xA PUSH1 0x27 DUP2 LT PUSH2 0x22D4 JUMPI PUSH2 0x22D3 PUSH2 0xA2D9 JUMP JUMPDEST JUMPDEST PUSH1 0xA MUL ADD PUSH1 0x8 PUSH1 0xA DUP2 LT PUSH2 0x22EB JUMPI PUSH2 0x22EA PUSH2 0xA2D9 JUMP JUMPDEST JUMPDEST ADD DUP2 SWAP1 SSTORE POP PUSH16 0x4B3B4CA86EAEFD199ACD4C64368B7C08 PUSH1 0xC8 PUSH1 0xA PUSH1 0x27 DUP2 LT PUSH2 0x2316 JUMPI PUSH2 0x2315 PUSH2 0xA2D9 JUMP JUMPDEST JUMPDEST PUSH1 0xA MUL ADD PUSH1 0x9 PUSH1 0xA DUP2 LT PUSH2 0x232D JUMPI PUSH2 0x232C PUSH2 0xA2D9 JUMP JUMPDEST JUMPDEST ADD DUP2 SWAP1 SSTORE POP PUSH1 0x1 PUSH2 0x24E PUSH1 0x2 PUSH2 0x100 EXP DUP2 SLOAD DUP2 PUSH1 0xFF MUL NOT AND SWAP1 DUP4 ISZERO ISZERO MUL OR SWAP1 SSTORE POP JUMP JUMPDEST PUSH1 0x0 DUP1 PUSH8 0x8AC7230489E80000 PUSH9 0x56BC75E2D63100000 DUP5 PUSH2 0x2371 SWAP2 SWAP1 PUSH2 0xA24A JUMP JUMPDEST PUSH2 0x237B SWAP2 SWAP1 PUSH2 0x9FC7 JUMP JUMPDEST SWAP1 POP PUSH2 0x2389 DUP4 DUP3 PUSH1 0x14 PUSH2 0x6E72 JUMP JUMPDEST SWAP2 POP POP SWAP2 SWAP1 POP JUMP JUMPDEST PUSH16 0x4B3B4CA85A86C47A098A224000000000 PUSH1 0xC8 PUSH1 0x1F PUSH1 0x27 DUP2 LT PUSH2 0x23B7 JUMPI PUSH2 0x23B6 PUSH2 0xA2D9 JUMP JUMPDEST JUMPDEST PUSH1 0xA MUL ADD PUSH1 0x0 PUSH1 0xA DUP2 LT PUSH2 0x23CE JUMPI PUSH2 0x23CD PUSH2 0xA2D9 JUMP JUMPDEST JUMPDEST ADD DUP2 SWAP1 SSTORE POP PUSH16 0x4B3B4CA85A86C47A098A2240000A939B PUSH1 0xC8 PUSH1 0x1F PUSH1 0x27 DUP2 LT PUSH2 0x23F9 JUMPI PUSH2 0x23F8 PUSH2 0xA2D9 JUMP JUMPDEST JUMPDEST PUSH1 0xA MUL ADD PUSH1 0x1 PUSH1 0xA DUP2 LT PUSH2 0x2410 JUMPI PUSH2 0x240F PUSH2 0xA2D9 JUMP JUMPDEST JUMPDEST ADD DUP2 SWAP1 SSTORE POP PUSH16 0x4B3B4CA85A86C47A098A224000152736 PUSH1 0xC8 PUSH1 0x1F PUSH1 0x27 DUP2 LT PUSH2 0x243B JUMPI PUSH2 0x243A PUSH2 0xA2D9 JUMP JUMPDEST JUMPDEST PUSH1 0xA MUL ADD PUSH1 0x2 PUSH1 0xA DUP2 LT PUSH2 0x2452 JUMPI PUSH2 0x2451 PUSH2 0xA2D9 JUMP JUMPDEST JUMPDEST ADD DUP2 SWAP1 SSTORE POP PUSH16 0x4B3B4CA85A86C47A098A2240001FBAD2 PUSH1 0xC8 PUSH1 0x1F PUSH1 0x27 DUP2 LT PUSH2 0x247D JUMPI PUSH2 0x247C PUSH2 0xA2D9 JUMP JUMPDEST JUMPDEST PUSH1 0xA MUL ADD PUSH1 0x3 PUSH1 0xA DUP2 LT PUSH2 0x2494 JUMPI PUSH2 0x2493 PUSH2 0xA2D9 JUMP JUMPDEST JUMPDEST ADD DUP2 SWAP1 SSTORE POP PUSH16 0x4B3B4CA85A86C47A098A2240002A4E6D PUSH1 0xC8 PUSH1 0x1F PUSH1 0x27 DUP2 LT PUSH2 0x24BF JUMPI PUSH2 0x24BE PUSH2 0xA2D9 JUMP JUMPDEST JUMPDEST PUSH1 0xA MUL ADD PUSH1 0x4 PUSH1 0xA DUP2 LT PUSH2 0x24D6 JUMPI PUSH2 0x24D5 PUSH2 0xA2D9 JUMP JUMPDEST JUMPDEST ADD DUP2 SWAP1 SSTORE POP PUSH16 0x4B3B4CA85A86C47A098A22400034E208 PUSH1 0xC8 PUSH1 0x1F PUSH1 0x27 DUP2 LT PUSH2 0x2501 JUMPI PUSH2 0x2500 PUSH2 0xA2D9 JUMP JUMPDEST JUMPDEST PUSH1 0xA MUL ADD PUSH1 0x5 PUSH1 0xA DUP2 LT PUSH2 0x2518 JUMPI PUSH2 0x2517 PUSH2 0xA2D9 JUMP JUMPDEST JUMPDEST ADD DUP2 SWAP1 SSTORE POP PUSH16 0x4B3B4CA85A86C47A098A2240003F75A3 PUSH1 0xC8 PUSH1 0x1F PUSH1 0x27 DUP2 LT PUSH2 0x2543 JUMPI PUSH2 0x2542 PUSH2 0xA2D9 JUMP JUMPDEST JUMPDEST PUSH1 0xA MUL ADD PUSH1 0x6 PUSH1 0xA DUP2 LT PUSH2 0x255A JUMPI PUSH2 0x2559 PUSH2 0xA2D9 JUMP JUMPDEST JUMPDEST ADD DUP2 SWAP1 SSTORE POP PUSH16 0x4B3B4CA85A86C47A098A2240004A093E PUSH1 0xC8 PUSH1 0x1F PUSH1 0x27 DUP2 LT PUSH2 0x2585 JUMPI PUSH2 0x2584 PUSH2 0xA2D9 JUMP JUMPDEST JUMPDEST PUSH1 0xA MUL ADD PUSH1 0x7 PUSH1 0xA DUP2 LT PUSH2 0x259C JUMPI PUSH2 0x259B PUSH2 0xA2D9 JUMP JUMPDEST JUMPDEST ADD DUP2 SWAP1 SSTORE POP PUSH16 0x4B3B4CA85A86C47A098A224000549CD9 PUSH1 0xC8 PUSH1 0x1F PUSH1 0x27 DUP2 LT PUSH2 0x25C7 JUMPI PUSH2 0x25C6 PUSH2 0xA2D9 JUMP JUMPDEST JUMPDEST PUSH1 0xA MUL ADD PUSH1 0x8 PUSH1 0xA DUP2 LT PUSH2 0x25DE JUMPI PUSH2 0x25DD PUSH2 0xA2D9 JUMP JUMPDEST JUMPDEST ADD DUP2 SWAP1 SSTORE POP PUSH16 0x4B3B4CA85A86C47A098A2240005F3075 PUSH1 0xC8 PUSH1 0x1F PUSH1 0x27 DUP2 LT PUSH2 0x2609 JUMPI PUSH2 0x2608 PUSH2 0xA2D9 JUMP JUMPDEST JUMPDEST PUSH1 0xA MUL ADD PUSH1 0x9 PUSH1 0xA DUP2 LT PUSH2 0x2620 JUMPI PUSH2 0x261F PUSH2 0xA2D9 JUMP JUMPDEST JUMPDEST ADD DUP2 SWAP1 SSTORE POP PUSH16 0x4B3B4CA85A86C47A098A224000000000 PUSH1 0xC8 PUSH1 0x20 PUSH1 0x27 DUP2 LT PUSH2 0x264B JUMPI PUSH2 0x264A PUSH2 0xA2D9 JUMP JUMPDEST JUMPDEST PUSH1 0xA MUL ADD PUSH1 0x0 PUSH1 0xA DUP2 LT PUSH2 0x2662 JUMPI PUSH2 0x2661 PUSH2 0xA2D9 JUMP JUMPDEST JUMPDEST ADD DUP2 SWAP1 SSTORE POP PUSH16 0x4B3B4CA85A86C47A098A224000010EC3 PUSH1 0xC8 PUSH1 0x20 PUSH1 0x27 DUP2 LT PUSH2 0x268D JUMPI PUSH2 0x268C PUSH2 0xA2D9 JUMP JUMPDEST JUMPDEST PUSH1 0xA MUL ADD PUSH1 0x1 PUSH1 0xA DUP2 LT PUSH2 0x26A4 JUMPI PUSH2 0x26A3 PUSH2 0xA2D9 JUMP JUMPDEST JUMPDEST ADD DUP2 SWAP1 SSTORE POP PUSH16 0x4B3B4CA85A86C47A098A224000021D85 PUSH1 0xC8 PUSH1 0x20 PUSH1 0x27 DUP2 LT PUSH2 0x26CF JUMPI PUSH2 0x26CE PUSH2 0xA2D9 JUMP JUMPDEST JUMPDEST PUSH1 0xA MUL ADD PUSH1 0x2 PUSH1 0xA DUP2 LT PUSH2 0x26E6 JUMPI PUSH2 0x26E5 PUSH2 0xA2D9 JUMP JUMPDEST JUMPDEST ADD DUP2 SWAP1 SSTORE POP PUSH16 0x4B3B4CA85A86C47A098A224000032C48 PUSH1 0xC8 PUSH1 0x20 PUSH1 0x27 DUP2 LT PUSH2 0x2711 JUMPI PUSH2 0x2710 PUSH2 0xA2D9 JUMP JUMPDEST JUMPDEST PUSH1 0xA MUL ADD PUSH1 0x3 PUSH1 0xA DUP2 LT PUSH2 0x2728 JUMPI PUSH2 0x2727 PUSH2 0xA2D9 JUMP JUMPDEST JUMPDEST ADD DUP2 SWAP1 SSTORE POP PUSH16 0x4B3B4CA85A86C47A098A224000043B0B PUSH1 0xC8 PUSH1 0x20 PUSH1 0x27 DUP2 LT PUSH2 0x2753 JUMPI PUSH2 0x2752 PUSH2 0xA2D9 JUMP JUMPDEST JUMPDEST PUSH1 0xA MUL ADD PUSH1 0x4 PUSH1 0xA DUP2 LT PUSH2 0x276A JUMPI PUSH2 0x2769 PUSH2 0xA2D9 JUMP JUMPDEST JUMPDEST ADD DUP2 SWAP1 SSTORE POP PUSH16 0x4B3B4CA85A86C47A098A2240000549CE PUSH1 0xC8 PUSH1 0x20 PUSH1 0x27 DUP2 LT PUSH2 0x2795 JUMPI PUSH2 0x2794 PUSH2 0xA2D9 JUMP JUMPDEST JUMPDEST PUSH1 0xA MUL ADD PUSH1 0x5 PUSH1 0xA DUP2 LT PUSH2 0x27AC JUMPI PUSH2 0x27AB PUSH2 0xA2D9 JUMP JUMPDEST JUMPDEST ADD DUP2 SWAP1 SSTORE POP PUSH16 0x4B3B4CA85A86C47A098A224000065890 PUSH1 0xC8 PUSH1 0x20 PUSH1 0x27 DUP2 LT PUSH2 0x27D7 JUMPI PUSH2 0x27D6 PUSH2 0xA2D9 JUMP JUMPDEST JUMPDEST PUSH1 0xA MUL ADD PUSH1 0x6 PUSH1 0xA DUP2 LT PUSH2 0x27EE JUMPI PUSH2 0x27ED PUSH2 0xA2D9 JUMP JUMPDEST JUMPDEST ADD DUP2 SWAP1 SSTORE POP PUSH16 0x4B3B4CA85A86C47A098A224000076753 PUSH1 0xC8 PUSH1 0x20 PUSH1 0x27 DUP2 LT PUSH2 0x2819 JUMPI PUSH2 0x2818 PUSH2 0xA2D9 JUMP JUMPDEST JUMPDEST PUSH1 0xA MUL ADD PUSH1 0x7 PUSH1 0xA DUP2 LT PUSH2 0x2830 JUMPI PUSH2 0x282F PUSH2 0xA2D9 JUMP JUMPDEST JUMPDEST ADD DUP2 SWAP1 SSTORE POP PUSH16 0x4B3B4CA85A86C47A098A224000087616 PUSH1 0xC8 PUSH1 0x20 PUSH1 0x27 DUP2 LT PUSH2 0x285B JUMPI PUSH2 0x285A PUSH2 0xA2D9 JUMP JUMPDEST JUMPDEST PUSH1 0xA MUL ADD PUSH1 0x8 PUSH1 0xA DUP2 LT PUSH2 0x2872 JUMPI PUSH2 0x2871 PUSH2 0xA2D9 JUMP JUMPDEST JUMPDEST ADD DUP2 SWAP1 SSTORE POP PUSH16 0x4B3B4CA85A86C47A098A2240000984D8 PUSH1 0xC8 PUSH1 0x20 PUSH1 0x27 DUP2 LT PUSH2 0x289D JUMPI PUSH2 0x289C PUSH2 0xA2D9 JUMP JUMPDEST JUMPDEST PUSH1 0xA MUL ADD PUSH1 0x9 PUSH1 0xA DUP2 LT PUSH2 0x28B4 JUMPI PUSH2 0x28B3 PUSH2 0xA2D9 JUMP JUMPDEST JUMPDEST ADD DUP2 SWAP1 SSTORE POP PUSH16 0x4B3B4CA85A86C47A098A224000000000 PUSH1 0xC8 PUSH1 0x21 PUSH1 0x27 DUP2 LT PUSH2 0x28DF JUMPI PUSH2 0x28DE PUSH2 0xA2D9 JUMP JUMPDEST JUMPDEST PUSH1 0xA MUL ADD PUSH1 0x0 PUSH1 0xA DUP2 LT PUSH2 0x28F6 JUMPI PUSH2 0x28F5 PUSH2 0xA2D9 JUMP JUMPDEST JUMPDEST ADD DUP2 SWAP1 SSTORE POP PUSH16 0x4B3B4CA85A86C47A098A224000001B13 PUSH1 0xC8 PUSH1 0x21 PUSH1 0x27 DUP2 LT PUSH2 0x2921 JUMPI PUSH2 0x2920 PUSH2 0xA2D9 JUMP JUMPDEST JUMPDEST PUSH1 0xA MUL ADD PUSH1 0x1 PUSH1 0xA DUP2 LT PUSH2 0x2938 JUMPI PUSH2 0x2937 PUSH2 0xA2D9 JUMP JUMPDEST JUMPDEST ADD DUP2 SWAP1 SSTORE POP PUSH16 0x4B3B4CA85A86C47A098A224000003627 PUSH1 0xC8 PUSH1 0x21 PUSH1 0x27 DUP2 LT PUSH2 0x2963 JUMPI PUSH2 0x2962 PUSH2 0xA2D9 JUMP JUMPDEST JUMPDEST PUSH1 0xA MUL ADD PUSH1 0x2 PUSH1 0xA DUP2 LT PUSH2 0x297A JUMPI PUSH2 0x2979 PUSH2 0xA2D9 JUMP JUMPDEST JUMPDEST ADD DUP2 SWAP1 SSTORE POP PUSH16 0x4B3B4CA85A86C47A098A22400000513A PUSH1 0xC8 PUSH1 0x21 PUSH1 0x27 DUP2 LT PUSH2 0x29A5 JUMPI PUSH2 0x29A4 PUSH2 0xA2D9 JUMP JUMPDEST JUMPDEST PUSH1 0xA MUL ADD PUSH1 0x3 PUSH1 0xA DUP2 LT PUSH2 0x29BC JUMPI PUSH2 0x29BB PUSH2 0xA2D9 JUMP JUMPDEST JUMPDEST ADD DUP2 SWAP1 SSTORE POP PUSH16 0x4B3B4CA85A86C47A098A224000006C4E PUSH1 0xC8 PUSH1 0x21 PUSH1 0x27 DUP2 LT PUSH2 0x29E7 JUMPI PUSH2 0x29E6 PUSH2 0xA2D9 JUMP JUMPDEST JUMPDEST PUSH1 0xA MUL ADD PUSH1 0x4 PUSH1 0xA DUP2 LT PUSH2 0x29FE JUMPI PUSH2 0x29FD PUSH2 0xA2D9 JUMP JUMPDEST JUMPDEST ADD DUP2 SWAP1 SSTORE POP PUSH16 0x4B3B4CA85A86C47A098A224000008761 PUSH1 0xC8 PUSH1 0x21 PUSH1 0x27 DUP2 LT PUSH2 0x2A29 JUMPI PUSH2 0x2A28 PUSH2 0xA2D9 JUMP JUMPDEST JUMPDEST PUSH1 0xA MUL ADD PUSH1 0x5 PUSH1 0xA DUP2 LT PUSH2 0x2A40 JUMPI PUSH2 0x2A3F PUSH2 0xA2D9 JUMP JUMPDEST JUMPDEST ADD DUP2 SWAP1 SSTORE POP PUSH16 0x4B3B4CA85A86C47A098A22400000A275 PUSH1 0xC8 PUSH1 0x21 PUSH1 0x27 DUP2 LT PUSH2 0x2A6B JUMPI PUSH2 0x2A6A PUSH2 0xA2D9 JUMP JUMPDEST JUMPDEST PUSH1 0xA MUL ADD PUSH1 0x6 PUSH1 0xA DUP2 LT PUSH2 0x2A82 JUMPI PUSH2 0x2A81 PUSH2 0xA2D9 JUMP JUMPDEST JUMPDEST ADD DUP2 SWAP1 SSTORE POP PUSH16 0x4B3B4CA85A86C47A098A22400000BD88 PUSH1 0xC8 PUSH1 0x21 PUSH1 0x27 DUP2 LT PUSH2 0x2AAD JUMPI PUSH2 0x2AAC PUSH2 0xA2D9 JUMP JUMPDEST JUMPDEST PUSH1 0xA MUL ADD PUSH1 0x7 PUSH1 0xA DUP2 LT PUSH2 0x2AC4 JUMPI PUSH2 0x2AC3 PUSH2 0xA2D9 JUMP JUMPDEST JUMPDEST ADD DUP2 SWAP1 SSTORE POP PUSH16 0x4B3B4CA85A86C47A098A22400000D89C PUSH1 0xC8 PUSH1 0x21 PUSH1 0x27 DUP2 LT PUSH2 0x2AEF JUMPI PUSH2 0x2AEE PUSH2 0xA2D9 JUMP JUMPDEST JUMPDEST PUSH1 0xA MUL ADD PUSH1 0x8 PUSH1 0xA DUP2 LT PUSH2 0x2B06 JUMPI PUSH2 0x2B05 PUSH2 0xA2D9 JUMP JUMPDEST JUMPDEST ADD DUP2 SWAP1 SSTORE POP PUSH16 0x4B3B4CA85A86C47A098A22400000F3AF PUSH1 0xC8 PUSH1 0x21 PUSH1 0x27 DUP2 LT PUSH2 0x2B31 JUMPI PUSH2 0x2B30 PUSH2 0xA2D9 JUMP JUMPDEST JUMPDEST PUSH1 0xA MUL ADD PUSH1 0x9 PUSH1 0xA DUP2 LT PUSH2 0x2B48 JUMPI PUSH2 0x2B47 PUSH2 0xA2D9 JUMP JUMPDEST JUMPDEST ADD DUP2 SWAP1 SSTORE POP PUSH16 0x4B3B4CA85A86C47A098A224000000000 PUSH1 0xC8 PUSH1 0x22 PUSH1 0x27 DUP2 LT PUSH2 0x2B73 JUMPI PUSH2 0x2B72 PUSH2 0xA2D9 JUMP JUMPDEST JUMPDEST PUSH1 0xA MUL ADD PUSH1 0x0 PUSH1 0xA DUP2 LT PUSH2 0x2B8A JUMPI PUSH2 0x2B89 PUSH2 0xA2D9 JUMP JUMPDEST JUMPDEST ADD DUP2 SWAP1 SSTORE POP PUSH16 0x4B3B4CA85A86C47A098A2240000002B5 PUSH1 0xC8 PUSH1 0x22 PUSH1 0x27 DUP2 LT PUSH2 0x2BB5 JUMPI PUSH2 0x2BB4 PUSH2 0xA2D9 JUMP JUMPDEST JUMPDEST PUSH1 0xA MUL ADD PUSH1 0x1 PUSH1 0xA DUP2 LT PUSH2 0x2BCC JUMPI PUSH2 0x2BCB PUSH2 0xA2D9 JUMP JUMPDEST JUMPDEST ADD DUP2 SWAP1 SSTORE POP PUSH16 0x4B3B4CA85A86C47A098A22400000056A PUSH1 0xC8 PUSH1 0x22 PUSH1 0x27 DUP2 LT PUSH2 0x2BF7 JUMPI PUSH2 0x2BF6 PUSH2 0xA2D9 JUMP JUMPDEST JUMPDEST PUSH1 0xA MUL ADD PUSH1 0x2 PUSH1 0xA DUP2 LT PUSH2 0x2C0E JUMPI PUSH2 0x2C0D PUSH2 0xA2D9 JUMP JUMPDEST JUMPDEST ADD DUP2 SWAP1 SSTORE POP PUSH16 0x4B3B4CA85A86C47A098A22400000081F PUSH1 0xC8 PUSH1 0x22 PUSH1 0x27 DUP2 LT PUSH2 0x2C39 JUMPI PUSH2 0x2C38 PUSH2 0xA2D9 JUMP JUMPDEST JUMPDEST PUSH1 0xA MUL ADD PUSH1 0x3 PUSH1 0xA DUP2 LT PUSH2 0x2C50 JUMPI PUSH2 0x2C4F PUSH2 0xA2D9 JUMP JUMPDEST JUMPDEST ADD DUP2 SWAP1 SSTORE POP PUSH16 0x4B3B4CA85A86C47A098A224000000AD5 PUSH1 0xC8 PUSH1 0x22 PUSH1 0x27 DUP2 LT PUSH2 0x2C7B JUMPI PUSH2 0x2C7A PUSH2 0xA2D9 JUMP JUMPDEST JUMPDEST PUSH1 0xA MUL ADD PUSH1 0x4 PUSH1 0xA DUP2 LT PUSH2 0x2C92 JUMPI PUSH2 0x2C91 PUSH2 0xA2D9 JUMP JUMPDEST JUMPDEST ADD DUP2 SWAP1 SSTORE POP PUSH16 0x4B3B4CA85A86C47A098A224000000D8A PUSH1 0xC8 PUSH1 0x22 PUSH1 0x27 DUP2 LT PUSH2 0x2CBD JUMPI PUSH2 0x2CBC PUSH2 0xA2D9 JUMP JUMPDEST JUMPDEST PUSH1 0xA MUL ADD PUSH1 0x5 PUSH1 0xA DUP2 LT PUSH2 0x2CD4 JUMPI PUSH2 0x2CD3 PUSH2 0xA2D9 JUMP JUMPDEST JUMPDEST ADD DUP2 SWAP1 SSTORE POP PUSH16 0x4B3B4CA85A86C47A098A22400000103F PUSH1 0xC8 PUSH1 0x22 PUSH1 0x27 DUP2 LT PUSH2 0x2CFF JUMPI PUSH2 0x2CFE PUSH2 0xA2D9 JUMP JUMPDEST JUMPDEST PUSH1 0xA MUL ADD PUSH1 0x6 PUSH1 0xA DUP2 LT PUSH2 0x2D16 JUMPI PUSH2 0x2D15 PUSH2 0xA2D9 JUMP JUMPDEST JUMPDEST ADD DUP2 SWAP1 SSTORE POP PUSH16 0x4B3B4CA85A86C47A098A2240000012F4 PUSH1 0xC8 PUSH1 0x22 PUSH1 0x27 DUP2 LT PUSH2 0x2D41 JUMPI PUSH2 0x2D40 PUSH2 0xA2D9 JUMP JUMPDEST JUMPDEST PUSH1 0xA MUL ADD PUSH1 0x7 PUSH1 0xA DUP2 LT PUSH2 0x2D58 JUMPI PUSH2 0x2D57 PUSH2 0xA2D9 JUMP JUMPDEST JUMPDEST ADD DUP2 SWAP1 SSTORE POP PUSH16 0x4B3B4CA85A86C47A098A2240000015A9 PUSH1 0xC8 PUSH1 0x22 PUSH1 0x27 DUP2 LT PUSH2 0x2D83 JUMPI PUSH2 0x2D82 PUSH2 0xA2D9 JUMP JUMPDEST JUMPDEST PUSH1 0xA MUL ADD PUSH1 0x8 PUSH1 0xA DUP2 LT PUSH2 0x2D9A JUMPI PUSH2 0x2D99 PUSH2 0xA2D9 JUMP JUMPDEST JUMPDEST ADD DUP2 SWAP1 SSTORE POP PUSH16 0x4B3B4CA85A86C47A098A22400000185E PUSH1 0xC8 PUSH1 0x22 PUSH1 0x27 DUP2 LT PUSH2 0x2DC5 JUMPI PUSH2 0x2DC4 PUSH2 0xA2D9 JUMP JUMPDEST JUMPDEST PUSH1 0xA MUL ADD PUSH1 0x9 PUSH1 0xA DUP2 LT PUSH2 0x2DDC JUMPI PUSH2 0x2DDB PUSH2 0xA2D9 JUMP JUMPDEST JUMPDEST ADD DUP2 SWAP1 SSTORE POP PUSH16 0x4B3B4CA85A86C47A098A224000000000 PUSH1 0xC8 PUSH1 0x23 PUSH1 0x27 DUP2 LT PUSH2 0x2E07 JUMPI PUSH2 0x2E06 PUSH2 0xA2D9 JUMP JUMPDEST JUMPDEST PUSH1 0xA MUL ADD PUSH1 0x0 PUSH1 0xA DUP2 LT PUSH2 0x2E1E JUMPI PUSH2 0x2E1D PUSH2 0xA2D9 JUMP JUMPDEST JUMPDEST ADD DUP2 SWAP1 SSTORE POP PUSH16 0x4B3B4CA85A86C47A098A224000000045 PUSH1 0xC8 PUSH1 0x23 PUSH1 0x27 DUP2 LT PUSH2 0x2E49 JUMPI PUSH2 0x2E48 PUSH2 0xA2D9 JUMP JUMPDEST JUMPDEST PUSH1 0xA MUL ADD PUSH1 0x1 PUSH1 0xA DUP2 LT PUSH2 0x2E60 JUMPI PUSH2 0x2E5F PUSH2 0xA2D9 JUMP JUMPDEST JUMPDEST ADD DUP2 SWAP1 SSTORE POP PUSH16 0x4B3B4CA85A86C47A098A22400000008B PUSH1 0xC8 PUSH1 0x23 PUSH1 0x27 DUP2 LT PUSH2 0x2E8B JUMPI PUSH2 0x2E8A PUSH2 0xA2D9 JUMP JUMPDEST JUMPDEST PUSH1 0xA MUL ADD PUSH1 0x2 PUSH1 0xA DUP2 LT PUSH2 0x2EA2 JUMPI PUSH2 0x2EA1 PUSH2 0xA2D9 JUMP JUMPDEST JUMPDEST ADD DUP2 SWAP1 SSTORE POP PUSH16 0x4B3B4CA85A86C47A098A2240000000D0 PUSH1 0xC8 PUSH1 0x23 PUSH1 0x27 DUP2 LT PUSH2 0x2ECD JUMPI PUSH2 0x2ECC PUSH2 0xA2D9 JUMP JUMPDEST JUMPDEST PUSH1 0xA MUL ADD PUSH1 0x3 PUSH1 0xA DUP2 LT PUSH2 0x2EE4 JUMPI PUSH2 0x2EE3 PUSH2 0xA2D9 JUMP JUMPDEST JUMPDEST ADD DUP2 SWAP1 SSTORE POP PUSH16 0x4B3B4CA85A86C47A098A224000000115 PUSH1 0xC8 PUSH1 0x23 PUSH1 0x27 DUP2 LT PUSH2 0x2F0F JUMPI PUSH2 0x2F0E PUSH2 0xA2D9 JUMP JUMPDEST JUMPDEST PUSH1 0xA MUL ADD PUSH1 0x4 PUSH1 0xA DUP2 LT PUSH2 0x2F26 JUMPI PUSH2 0x2F25 PUSH2 0xA2D9 JUMP JUMPDEST JUMPDEST ADD DUP2 SWAP1 SSTORE POP PUSH16 0x4B3B4CA85A86C47A098A22400000015B PUSH1 0xC8 PUSH1 0x23 PUSH1 0x27 DUP2 LT PUSH2 0x2F51 JUMPI PUSH2 0x2F50 PUSH2 0xA2D9 JUMP JUMPDEST JUMPDEST PUSH1 0xA MUL ADD PUSH1 0x5 PUSH1 0xA DUP2 LT PUSH2 0x2F68 JUMPI PUSH2 0x2F67 PUSH2 0xA2D9 JUMP JUMPDEST JUMPDEST ADD DUP2 SWAP1 SSTORE POP PUSH16 0x4B3B4CA85A86C47A098A2240000001A0 PUSH1 0xC8 PUSH1 0x23 PUSH1 0x27 DUP2 LT PUSH2 0x2F93 JUMPI PUSH2 0x2F92 PUSH2 0xA2D9 JUMP JUMPDEST JUMPDEST PUSH1 0xA MUL ADD PUSH1 0x6 PUSH1 0xA DUP2 LT PUSH2 0x2FAA JUMPI PUSH2 0x2FA9 PUSH2 0xA2D9 JUMP JUMPDEST JUMPDEST ADD DUP2 SWAP1 SSTORE POP PUSH16 0x4B3B4CA85A86C47A098A2240000001E5 PUSH1 0xC8 PUSH1 0x23 PUSH1 0x27 DUP2 LT PUSH2 0x2FD5 JUMPI PUSH2 0x2FD4 PUSH2 0xA2D9 JUMP JUMPDEST JUMPDEST PUSH1 0xA MUL ADD PUSH1 0x7 PUSH1 0xA DUP2 LT PUSH2 0x2FEC JUMPI PUSH2 0x2FEB PUSH2 0xA2D9 JUMP JUMPDEST JUMPDEST ADD DUP2 SWAP1 SSTORE POP PUSH16 0x4B3B4CA85A86C47A098A22400000022B PUSH1 0xC8 PUSH1 0x23 PUSH1 0x27 DUP2 LT PUSH2 0x3017 JUMPI PUSH2 0x3016 PUSH2 0xA2D9 JUMP JUMPDEST JUMPDEST PUSH1 0xA MUL ADD PUSH1 0x8 PUSH1 0xA DUP2 LT PUSH2 0x302E JUMPI PUSH2 0x302D PUSH2 0xA2D9 JUMP JUMPDEST JUMPDEST ADD DUP2 SWAP1 SSTORE POP PUSH16 0x4B3B4CA85A86C47A098A224000000270 PUSH1 0xC8 PUSH1 0x23 PUSH1 0x27 DUP2 LT PUSH2 0x3059 JUMPI PUSH2 0x3058 PUSH2 0xA2D9 JUMP JUMPDEST JUMPDEST PUSH1 0xA MUL ADD PUSH1 0x9 PUSH1 0xA DUP2 LT PUSH2 0x3070 JUMPI PUSH2 0x306F PUSH2 0xA2D9 JUMP JUMPDEST JUMPDEST ADD DUP2 SWAP1 SSTORE POP PUSH16 0x4B3B4CA85A86C47A098A224000000000 PUSH1 0xC8 PUSH1 0x24 PUSH1 0x27 DUP2 LT PUSH2 0x309B JUMPI PUSH2 0x309A PUSH2 0xA2D9 JUMP JUMPDEST JUMPDEST PUSH1 0xA MUL ADD PUSH1 0x0 PUSH1 0xA DUP2 LT PUSH2 0x30B2 JUMPI PUSH2 0x30B1 PUSH2 0xA2D9 JUMP JUMPDEST JUMPDEST ADD DUP2 SWAP1 SSTORE POP PUSH16 0x4B3B4CA85A86C47A098A224000000007 PUSH1 0xC8 PUSH1 0x24 PUSH1 0x27 DUP2 LT PUSH2 0x30DD JUMPI PUSH2 0x30DC PUSH2 0xA2D9 JUMP JUMPDEST JUMPDEST PUSH1 0xA MUL ADD PUSH1 0x1 PUSH1 0xA DUP2 LT PUSH2 0x30F4 JUMPI PUSH2 0x30F3 PUSH2 0xA2D9 JUMP JUMPDEST JUMPDEST ADD DUP2 SWAP1 SSTORE POP PUSH16 0x4B3B4CA85A86C47A098A22400000000E PUSH1 0xC8 PUSH1 0x24 PUSH1 0x27 DUP2 LT PUSH2 0x311F JUMPI PUSH2 0x311E PUSH2 0xA2D9 JUMP JUMPDEST JUMPDEST PUSH1 0xA MUL ADD PUSH1 0x2 PUSH1 0xA DUP2 LT PUSH2 0x3136 JUMPI PUSH2 0x3135 PUSH2 0xA2D9 JUMP JUMPDEST JUMPDEST ADD DUP2 SWAP1 SSTORE POP PUSH16 0x4B3B4CA85A86C47A098A224000000015 PUSH1 0xC8 PUSH1 0x24 PUSH1 0x27 DUP2 LT PUSH2 0x3161 JUMPI PUSH2 0x3160 PUSH2 0xA2D9 JUMP JUMPDEST JUMPDEST PUSH1 0xA MUL ADD PUSH1 0x3 PUSH1 0xA DUP2 LT PUSH2 0x3178 JUMPI PUSH2 0x3177 PUSH2 0xA2D9 JUMP JUMPDEST JUMPDEST ADD DUP2 SWAP1 SSTORE POP PUSH16 0x4B3B4CA85A86C47A098A22400000001C PUSH1 0xC8 PUSH1 0x24 PUSH1 0x27 DUP2 LT PUSH2 0x31A3 JUMPI PUSH2 0x31A2 PUSH2 0xA2D9 JUMP JUMPDEST JUMPDEST PUSH1 0xA MUL ADD PUSH1 0x4 PUSH1 0xA DUP2 LT PUSH2 0x31BA JUMPI PUSH2 0x31B9 PUSH2 0xA2D9 JUMP JUMPDEST JUMPDEST ADD DUP2 SWAP1 SSTORE POP PUSH16 0x4B3B4CA85A86C47A098A224000000023 PUSH1 0xC8 PUSH1 0x24 PUSH1 0x27 DUP2 LT PUSH2 0x31E5 JUMPI PUSH2 0x31E4 PUSH2 0xA2D9 JUMP JUMPDEST JUMPDEST PUSH1 0xA MUL ADD PUSH1 0x5 PUSH1 0xA DUP2 LT PUSH2 0x31FC JUMPI PUSH2 0x31FB PUSH2 0xA2D9 JUMP JUMPDEST JUMPDEST ADD DUP2 SWAP1 SSTORE POP PUSH16 0x4B3B4CA85A86C47A098A22400000002A PUSH1 0xC8 PUSH1 0x24 PUSH1 0x27 DUP2 LT PUSH2 0x3227 JUMPI PUSH2 0x3226 PUSH2 0xA2D9 JUMP JUMPDEST JUMPDEST PUSH1 0xA MUL ADD PUSH1 0x6 PUSH1 0xA DUP2 LT PUSH2 0x323E JUMPI PUSH2 0x323D PUSH2 0xA2D9 JUMP JUMPDEST JUMPDEST ADD DUP2 SWAP1 SSTORE POP PUSH16 0x4B3B4CA85A86C47A098A224000000031 PUSH1 0xC8 PUSH1 0x24 PUSH1 0x27 DUP2 LT PUSH2 0x3269 JUMPI PUSH2 0x3268 PUSH2 0xA2D9 JUMP JUMPDEST JUMPDEST PUSH1 0xA MUL ADD PUSH1 0x7 PUSH1 0xA DUP2 LT PUSH2 0x3280 JUMPI PUSH2 0x327F PUSH2 0xA2D9 JUMP JUMPDEST JUMPDEST ADD DUP2 SWAP1 SSTORE POP PUSH16 0x4B3B4CA85A86C47A098A224000000037 PUSH1 0xC8 PUSH1 0x24 PUSH1 0x27 DUP2 LT PUSH2 0x32AB JUMPI PUSH2 0x32AA PUSH2 0xA2D9 JUMP JUMPDEST JUMPDEST PUSH1 0xA MUL ADD PUSH1 0x8 PUSH1 0xA DUP2 LT PUSH2 0x32C2 JUMPI PUSH2 0x32C1 PUSH2 0xA2D9 JUMP JUMPDEST JUMPDEST ADD DUP2 SWAP1 SSTORE POP PUSH16 0x4B3B4CA85A86C47A098A22400000003E PUSH1 0xC8 PUSH1 0x24 PUSH1 0x27 DUP2 LT PUSH2 0x32ED JUMPI PUSH2 0x32EC PUSH2 0xA2D9 JUMP JUMPDEST JUMPDEST PUSH1 0xA MUL ADD PUSH1 0x9 PUSH1 0xA DUP2 LT PUSH2 0x3304 JUMPI PUSH2 0x3303 PUSH2 0xA2D9 JUMP JUMPDEST JUMPDEST ADD DUP2 SWAP1 SSTORE POP PUSH16 0x4B3B4CA85A86C47A098A224000000000 PUSH1 0xC8 PUSH1 0x25 PUSH1 0x27 DUP2 LT PUSH2 0x332F JUMPI PUSH2 0x332E PUSH2 0xA2D9 JUMP JUMPDEST JUMPDEST PUSH1 0xA MUL ADD PUSH1 0x0 PUSH1 0xA DUP2 LT PUSH2 0x3346 JUMPI PUSH2 0x3345 PUSH2 0xA2D9 JUMP JUMPDEST JUMPDEST ADD DUP2 SWAP1 SSTORE POP PUSH16 0x4B3B4CA85A86C47A098A224000000001 PUSH1 0xC8 PUSH1 0x25 PUSH1 0x27 DUP2 LT PUSH2 0x3371 JUMPI PUSH2 0x3370 PUSH2 0xA2D9 JUMP JUMPDEST JUMPDEST PUSH1 0xA MUL ADD PUSH1 0x1 PUSH1 0xA DUP2 LT PUSH2 0x3388 JUMPI PUSH2 0x3387 PUSH2 0xA2D9 JUMP JUMPDEST JUMPDEST ADD DUP2 SWAP1 SSTORE POP PUSH16 0x4B3B4CA85A86C47A098A224000000001 PUSH1 0xC8 PUSH1 0x25 PUSH1 0x27 DUP2 LT PUSH2 0x33B3 JUMPI PUSH2 0x33B2 PUSH2 0xA2D9 JUMP JUMPDEST JUMPDEST PUSH1 0xA MUL ADD PUSH1 0x2 PUSH1 0xA DUP2 LT PUSH2 0x33CA JUMPI PUSH2 0x33C9 PUSH2 0xA2D9 JUMP JUMPDEST JUMPDEST ADD DUP2 SWAP1 SSTORE POP PUSH16 0x4B3B4CA85A86C47A098A224000000002 PUSH1 0xC8 PUSH1 0x25 PUSH1 0x27 DUP2 LT PUSH2 0x33F5 JUMPI PUSH2 0x33F4 PUSH2 0xA2D9 JUMP JUMPDEST JUMPDEST PUSH1 0xA MUL ADD PUSH1 0x3 PUSH1 0xA DUP2 LT PUSH2 0x340C JUMPI PUSH2 0x340B PUSH2 0xA2D9 JUMP JUMPDEST JUMPDEST ADD DUP2 SWAP1 SSTORE POP PUSH16 0x4B3B4CA85A86C47A098A224000000003 PUSH1 0xC8 PUSH1 0x25 PUSH1 0x27 DUP2 LT PUSH2 0x3437 JUMPI PUSH2 0x3436 PUSH2 0xA2D9 JUMP JUMPDEST JUMPDEST PUSH1 0xA MUL ADD PUSH1 0x4 PUSH1 0xA DUP2 LT PUSH2 0x344E JUMPI PUSH2 0x344D PUSH2 0xA2D9 JUMP JUMPDEST JUMPDEST ADD DUP2 SWAP1 SSTORE POP PUSH16 0x4B3B4CA85A86C47A098A224000000003 PUSH1 0xC8 PUSH1 0x25 PUSH1 0x27 DUP2 LT PUSH2 0x3479 JUMPI PUSH2 0x3478 PUSH2 0xA2D9 JUMP JUMPDEST JUMPDEST PUSH1 0xA MUL ADD PUSH1 0x5 PUSH1 0xA DUP2 LT PUSH2 0x3490 JUMPI PUSH2 0x348F PUSH2 0xA2D9 JUMP JUMPDEST JUMPDEST ADD DUP2 SWAP1 SSTORE POP PUSH16 0x4B3B4CA85A86C47A098A224000000004 PUSH1 0xC8 PUSH1 0x25 PUSH1 0x27 DUP2 LT PUSH2 0x34BB JUMPI PUSH2 0x34BA PUSH2 0xA2D9 JUMP JUMPDEST JUMPDEST PUSH1 0xA MUL ADD PUSH1 0x6 PUSH1 0xA DUP2 LT PUSH2 0x34D2 JUMPI PUSH2 0x34D1 PUSH2 0xA2D9 JUMP JUMPDEST JUMPDEST ADD DUP2 SWAP1 SSTORE POP PUSH16 0x4B3B4CA85A86C47A098A224000000005 PUSH1 0xC8 PUSH1 0x25 PUSH1 0x27 DUP2 LT PUSH2 0x34FD JUMPI PUSH2 0x34FC PUSH2 0xA2D9 JUMP JUMPDEST JUMPDEST PUSH1 0xA MUL ADD PUSH1 0x7 PUSH1 0xA DUP2 LT PUSH2 0x3514 JUMPI PUSH2 0x3513 PUSH2 0xA2D9 JUMP JUMPDEST JUMPDEST ADD DUP2 SWAP1 SSTORE POP PUSH16 0x4B3B4CA85A86C47A098A224000000006 PUSH1 0xC8 PUSH1 0x25 PUSH1 0x27 DUP2 LT PUSH2 0x353F JUMPI PUSH2 0x353E PUSH2 0xA2D9 JUMP JUMPDEST JUMPDEST PUSH1 0xA MUL ADD PUSH1 0x8 PUSH1 0xA DUP2 LT PUSH2 0x3556 JUMPI PUSH2 0x3555 PUSH2 0xA2D9 JUMP JUMPDEST JUMPDEST ADD DUP2 SWAP1 SSTORE POP PUSH16 0x4B3B4CA85A86C47A098A224000000006 PUSH1 0xC8 PUSH1 0x25 PUSH1 0x27 DUP2 LT PUSH2 0x3581 JUMPI PUSH2 0x3580 PUSH2 0xA2D9 JUMP JUMPDEST JUMPDEST PUSH1 0xA MUL ADD PUSH1 0x9 PUSH1 0xA DUP2 LT PUSH2 0x3598 JUMPI PUSH2 0x3597 PUSH2 0xA2D9 JUMP JUMPDEST JUMPDEST ADD DUP2 SWAP1 SSTORE POP PUSH16 0x4B3B4CA85A86C47A098A224000000000 PUSH1 0xC8 PUSH1 0x26 PUSH1 0x27 DUP2 LT PUSH2 0x35C3 JUMPI PUSH2 0x35C2 PUSH2 0xA2D9 JUMP JUMPDEST JUMPDEST PUSH1 0xA MUL ADD PUSH1 0x0 PUSH1 0xA DUP2 LT PUSH2 0x35DA JUMPI PUSH2 0x35D9 PUSH2 0xA2D9 JUMP JUMPDEST JUMPDEST ADD DUP2 SWAP1 SSTORE POP PUSH16 0x4B3B4CA85A86C47A098A224000000000 PUSH1 0xC8 PUSH1 0x26 PUSH1 0x27 DUP2 LT PUSH2 0x3605 JUMPI PUSH2 0x3604 PUSH2 0xA2D9 JUMP JUMPDEST JUMPDEST PUSH1 0xA MUL ADD PUSH1 0x1 PUSH1 0xA DUP2 LT PUSH2 0x361C JUMPI PUSH2 0x361B PUSH2 0xA2D9 JUMP JUMPDEST JUMPDEST ADD DUP2 SWAP1 SSTORE POP PUSH16 0x4B3B4CA85A86C47A098A224000000000 PUSH1 0xC8 PUSH1 0x26 PUSH1 0x27 DUP2 LT PUSH2 0x3647 JUMPI PUSH2 0x3646 PUSH2 0xA2D9 JUMP JUMPDEST JUMPDEST PUSH1 0xA MUL ADD PUSH1 0x2 PUSH1 0xA DUP2 LT PUSH2 0x365E JUMPI PUSH2 0x365D PUSH2 0xA2D9 JUMP JUMPDEST JUMPDEST ADD DUP2 SWAP1 SSTORE POP PUSH16 0x4B3B4CA85A86C47A098A224000000000 PUSH1 0xC8 PUSH1 0x26 PUSH1 0x27 DUP2 LT PUSH2 0x3689 JUMPI PUSH2 0x3688 PUSH2 0xA2D9 JUMP JUMPDEST JUMPDEST PUSH1 0xA MUL ADD PUSH1 0x3 PUSH1 0xA DUP2 LT PUSH2 0x36A0 JUMPI PUSH2 0x369F PUSH2 0xA2D9 JUMP JUMPDEST JUMPDEST ADD DUP2 SWAP1 SSTORE POP PUSH16 0x4B3B4CA85A86C47A098A224000000000 PUSH1 0xC8 PUSH1 0x26 PUSH1 0x27 DUP2 LT PUSH2 0x36CB JUMPI PUSH2 0x36CA PUSH2 0xA2D9 JUMP JUMPDEST JUMPDEST PUSH1 0xA MUL ADD PUSH1 0x4 PUSH1 0xA DUP2 LT PUSH2 0x36E2 JUMPI PUSH2 0x36E1 PUSH2 0xA2D9 JUMP JUMPDEST JUMPDEST ADD DUP2 SWAP1 SSTORE POP PUSH16 0x4B3B4CA85A86C47A098A224000000000 PUSH1 0xC8 PUSH1 0x26 PUSH1 0x27 DUP2 LT PUSH2 0x370D JUMPI PUSH2 0x370C PUSH2 0xA2D9 JUMP JUMPDEST JUMPDEST PUSH1 0xA MUL ADD PUSH1 0x5 PUSH1 0xA DUP2 LT PUSH2 0x3724 JUMPI PUSH2 0x3723 PUSH2 0xA2D9 JUMP JUMPDEST JUMPDEST ADD DUP2 SWAP1 SSTORE POP PUSH16 0x4B3B4CA85A86C47A098A224000000000 PUSH1 0xC8 PUSH1 0x26 PUSH1 0x27 DUP2 LT PUSH2 0x374F JUMPI PUSH2 0x374E PUSH2 0xA2D9 JUMP JUMPDEST JUMPDEST PUSH1 0xA MUL ADD PUSH1 0x6 PUSH1 0xA DUP2 LT PUSH2 0x3766 JUMPI PUSH2 0x3765 PUSH2 0xA2D9 JUMP JUMPDEST JUMPDEST ADD DUP2 SWAP1 SSTORE POP PUSH16 0x4B3B4CA85A86C47A098A224000000000 PUSH1 0xC8 PUSH1 0x26 PUSH1 0x27 DUP2 LT PUSH2 0x3791 JUMPI PUSH2 0x3790 PUSH2 0xA2D9 JUMP JUMPDEST JUMPDEST PUSH1 0xA MUL ADD PUSH1 0x7 PUSH1 0xA DUP2 LT PUSH2 0x37A8 JUMPI PUSH2 0x37A7 PUSH2 0xA2D9 JUMP JUMPDEST JUMPDEST ADD DUP2 SWAP1 SSTORE POP PUSH16 0x4B3B4CA85A86C47A098A224000000001 PUSH1 0xC8 PUSH1 0x26 PUSH1 0x27 DUP2 LT PUSH2 0x37D3 JUMPI PUSH2 0x37D2 PUSH2 0xA2D9 JUMP JUMPDEST JUMPDEST PUSH1 0xA MUL ADD PUSH1 0x8 PUSH1 0xA DUP2 LT PUSH2 0x37EA JUMPI PUSH2 0x37E9 PUSH2 0xA2D9 JUMP JUMPDEST JUMPDEST ADD DUP2 SWAP1 SSTORE POP PUSH16 0x4B3B4CA85A86C47A098A224000000001 PUSH1 0xC8 PUSH1 0x26 PUSH1 0x27 DUP2 LT PUSH2 0x3815 JUMPI PUSH2 0x3814 PUSH2 0xA2D9 JUMP JUMPDEST JUMPDEST PUSH1 0xA MUL ADD PUSH1 0x9 PUSH1 0xA DUP2 LT PUSH2 0x382C JUMPI PUSH2 0x382B PUSH2 0xA2D9 JUMP JUMPDEST JUMPDEST ADD DUP2 SWAP1 SSTORE POP PUSH1 0x1 PUSH2 0x24E PUSH1 0x5 PUSH2 0x100 EXP DUP2 SLOAD DUP2 PUSH1 0xFF MUL NOT AND SWAP1 DUP4 ISZERO ISZERO MUL OR SWAP1 SSTORE POP JUMP JUMPDEST PUSH1 0x0 PUSH8 0xDE0B6B3A7640000 DUP4 LT PUSH2 0x3883 JUMPI PUSH2 0x387C PUSH2 0x3877 DUP4 PUSH2 0x3872 DUP7 PUSH1 0x46 PUSH2 0x569C JUMP JUMPDEST PUSH2 0x8169 JUMP JUMPDEST PUSH2 0x6D58 JUMP JUMPDEST SWAP1 POP PUSH2 0x38DF JUMP JUMPDEST PUSH8 0xDE0B6B3A7640000 DUP4 LT ISZERO PUSH2 0x38DE JUMPI PUSH1 0x0 PUSH2 0x38BA DUP4 PUSH2 0x38B5 PUSH2 0x38AE PUSH8 0xDE0B6B3A7640000 DUP9 PUSH2 0x5C8E JUMP JUMPDEST PUSH1 0x46 PUSH2 0x569C JUMP JUMPDEST PUSH2 0x8169 JUMP JUMPDEST SWAP1 POP PUSH2 0x38D6 PUSH8 0xDE0B6B3A7640000 PUSH2 0x38D1 DUP4 PUSH2 0x6D58 JUMP JUMPDEST PUSH2 0x5C8E JUMP JUMPDEST SWAP2 POP POP PUSH2 0x38DF JUMP JUMPDEST JUMPDEST SWAP3 SWAP2 POP POP JUMP JUMPDEST PUSH16 0x4B3B4CA85A86C47A098A224000000000 PUSH1 0xC8 PUSH1 0x15 PUSH1 0x27 DUP2 LT PUSH2 0x390B JUMPI PUSH2 0x390A PUSH2 0xA2D9 JUMP JUMPDEST JUMPDEST PUSH1 0xA MUL ADD PUSH1 0x0 PUSH1 0xA DUP2 LT PUSH2 0x3922 JUMPI PUSH2 0x3921 PUSH2 0xA2D9 JUMP JUMPDEST JUMPDEST ADD DUP2 SWAP1 SSTORE POP PUSH16 0x4B3B4CA85A86C47A09A2C2630ABE4EDD PUSH1 0xC8 PUSH1 0x15 PUSH1 0x27 DUP2 LT PUSH2 0x394D JUMPI PUSH2 0x394C PUSH2 0xA2D9 JUMP JUMPDEST JUMPDEST PUSH1 0xA MUL ADD PUSH1 0x1 PUSH1 0xA DUP2 LT PUSH2 0x3964 JUMPI PUSH2 0x3963 PUSH2 0xA2D9 JUMP JUMPDEST JUMPDEST ADD DUP2 SWAP1 SSTORE POP PUSH16 0x4B3B4CA85A86C47A09BB6286157C9DBA PUSH1 0xC8 PUSH1 0x15 PUSH1 0x27 DUP2 LT PUSH2 0x398F JUMPI PUSH2 0x398E PUSH2 0xA2D9 JUMP JUMPDEST JUMPDEST PUSH1 0xA MUL ADD PUSH1 0x2 PUSH1 0xA DUP2 LT PUSH2 0x39A6 JUMPI PUSH2 0x39A5 PUSH2 0xA2D9 JUMP JUMPDEST JUMPDEST ADD DUP2 SWAP1 SSTORE POP PUSH16 0x4B3B4CA85A86C47A09D402A9203AEC97 PUSH1 0xC8 PUSH1 0x15 PUSH1 0x27 DUP2 LT PUSH2 0x39D1 JUMPI PUSH2 0x39D0 PUSH2 0xA2D9 JUMP JUMPDEST JUMPDEST PUSH1 0xA MUL ADD PUSH1 0x3 PUSH1 0xA DUP2 LT PUSH2 0x39E8 JUMPI PUSH2 0x39E7 PUSH2 0xA2D9 JUMP JUMPDEST JUMPDEST ADD DUP2 SWAP1 SSTORE POP PUSH16 0x4B3B4CA85A86C47A09ECA2CC2AF93B74 PUSH1 0xC8 PUSH1 0x15 PUSH1 0x27 DUP2 LT PUSH2 0x3A13 JUMPI PUSH2 0x3A12 PUSH2 0xA2D9 JUMP JUMPDEST JUMPDEST PUSH1 0xA MUL ADD PUSH1 0x4 PUSH1 0xA DUP2 LT PUSH2 0x3A2A JUMPI PUSH2 0x3A29 PUSH2 0xA2D9 JUMP JUMPDEST JUMPDEST ADD DUP2 SWAP1 SSTORE POP PUSH16 0x4B3B4CA85A86C47A0A0542EF35B78A51 PUSH1 0xC8 PUSH1 0x15 PUSH1 0x27 DUP2 LT PUSH2 0x3A55 JUMPI PUSH2 0x3A54 PUSH2 0xA2D9 JUMP JUMPDEST JUMPDEST PUSH1 0xA MUL ADD PUSH1 0x5 PUSH1 0xA DUP2 LT PUSH2 0x3A6C JUMPI PUSH2 0x3A6B PUSH2 0xA2D9 JUMP JUMPDEST JUMPDEST ADD DUP2 SWAP1 SSTORE POP PUSH16 0x4B3B4CA85A86C47A0A1DE3124075D92F PUSH1 0xC8 PUSH1 0x15 PUSH1 0x27 DUP2 LT PUSH2 0x3A97 JUMPI PUSH2 0x3A96 PUSH2 0xA2D9 JUMP JUMPDEST JUMPDEST PUSH1 0xA MUL ADD PUSH1 0x6 PUSH1 0xA DUP2 LT PUSH2 0x3AAE JUMPI PUSH2 0x3AAD PUSH2 0xA2D9 JUMP JUMPDEST JUMPDEST ADD DUP2 SWAP1 SSTORE POP PUSH16 0x4B3B4CA85A86C47A0A3683354B34280C PUSH1 0xC8 PUSH1 0x15 PUSH1 0x27 DUP2 LT PUSH2 0x3AD9 JUMPI PUSH2 0x3AD8 PUSH2 0xA2D9 JUMP JUMPDEST JUMPDEST PUSH1 0xA MUL ADD PUSH1 0x7 PUSH1 0xA DUP2 LT PUSH2 0x3AF0 JUMPI PUSH2 0x3AEF PUSH2 0xA2D9 JUMP JUMPDEST JUMPDEST ADD DUP2 SWAP1 SSTORE POP PUSH16 0x4B3B4CA85A86C47A0A4F235855F276E9 PUSH1 0xC8 PUSH1 0x15 PUSH1 0x27 DUP2 LT PUSH2 0x3B1B JUMPI PUSH2 0x3B1A PUSH2 0xA2D9 JUMP JUMPDEST JUMPDEST PUSH1 0xA MUL ADD PUSH1 0x8 PUSH1 0xA DUP2 LT PUSH2 0x3B32 JUMPI PUSH2 0x3B31 PUSH2 0xA2D9 JUMP JUMPDEST JUMPDEST ADD DUP2 SWAP1 SSTORE POP PUSH16 0x4B3B4CA85A86C47A0A67C37B60B0C5C6 PUSH1 0xC8 PUSH1 0x15 PUSH1 0x27 DUP2 LT PUSH2 0x3B5D JUMPI PUSH2 0x3B5C PUSH2 0xA2D9 JUMP JUMPDEST JUMPDEST PUSH1 0xA MUL ADD PUSH1 0x9 PUSH1 0xA DUP2 LT PUSH2 0x3B74 JUMPI PUSH2 0x3B73 PUSH2 0xA2D9 JUMP JUMPDEST JUMPDEST ADD DUP2 SWAP1 SSTORE POP PUSH16 0x4B3B4CA85A86C47A098A224000000000 PUSH1 0xC8 PUSH1 0x16 PUSH1 0x27 DUP2 LT PUSH2 0x3B9F JUMPI PUSH2 0x3B9E PUSH2 0xA2D9 JUMP JUMPDEST JUMPDEST PUSH1 0xA MUL ADD PUSH1 0x0 PUSH1 0xA DUP2 LT PUSH2 0x3BB6 JUMPI PUSH2 0x3BB5 PUSH2 0xA2D9 JUMP JUMPDEST JUMPDEST ADD DUP2 SWAP1 SSTORE POP PUSH16 0x4B3B4CA85A86C47A098C98A9E7796E49 PUSH1 0xC8 PUSH1 0x16 PUSH1 0x27 DUP2 LT PUSH2 0x3BE1 JUMPI PUSH2 0x3BE0 PUSH2 0xA2D9 JUMP JUMPDEST JUMPDEST PUSH1 0xA MUL ADD PUSH1 0x1 PUSH1 0xA DUP2 LT PUSH2 0x3BF8 JUMPI PUSH2 0x3BF7 PUSH2 0xA2D9 JUMP JUMPDEST JUMPDEST ADD DUP2 SWAP1 SSTORE POP PUSH16 0x4B3B4CA85A86C47A098F0F13CEF2DC93 PUSH1 0xC8 PUSH1 0x16 PUSH1 0x27 DUP2 LT PUSH2 0x3C23 JUMPI PUSH2 0x3C22 PUSH2 0xA2D9 JUMP JUMPDEST JUMPDEST PUSH1 0xA MUL ADD PUSH1 0x2 PUSH1 0xA DUP2 LT PUSH2 0x3C3A JUMPI PUSH2 0x3C39 PUSH2 0xA2D9 JUMP JUMPDEST JUMPDEST ADD DUP2 SWAP1 SSTORE POP PUSH16 0x4B3B4CA85A86C47A0991857DB66C4ADC PUSH1 0xC8 PUSH1 0x16 PUSH1 0x27 DUP2 LT PUSH2 0x3C65 JUMPI PUSH2 0x3C64 PUSH2 0xA2D9 JUMP JUMPDEST JUMPDEST PUSH1 0xA MUL ADD PUSH1 0x3 PUSH1 0xA DUP2 LT PUSH2 0x3C7C JUMPI PUSH2 0x3C7B PUSH2 0xA2D9 JUMP JUMPDEST JUMPDEST ADD DUP2 SWAP1 SSTORE POP PUSH16 0x4B3B4CA85A86C47A0993FBE79DE5B925 PUSH1 0xC8 PUSH1 0x16 PUSH1 0x27 DUP2 LT PUSH2 0x3CA7 JUMPI PUSH2 0x3CA6 PUSH2 0xA2D9 JUMP JUMPDEST JUMPDEST PUSH1 0xA MUL ADD PUSH1 0x4 PUSH1 0xA DUP2 LT PUSH2 0x3CBE JUMPI PUSH2 0x3CBD PUSH2 0xA2D9 JUMP JUMPDEST JUMPDEST ADD DUP2 SWAP1 SSTORE POP PUSH16 0x4B3B4CA85A86C47A09967251855F276F PUSH1 0xC8 PUSH1 0x16 PUSH1 0x27 DUP2 LT PUSH2 0x3CE9 JUMPI PUSH2 0x3CE8 PUSH2 0xA2D9 JUMP JUMPDEST JUMPDEST PUSH1 0xA MUL ADD PUSH1 0x5 PUSH1 0xA DUP2 LT PUSH2 0x3D00 JUMPI PUSH2 0x3CFF PUSH2 0xA2D9 JUMP JUMPDEST JUMPDEST ADD DUP2 SWAP1 SSTORE POP PUSH16 0x4B3B4CA85A86C47A0998E8BB6CD895B8 PUSH1 0xC8 PUSH1 0x16 PUSH1 0x27 DUP2 LT PUSH2 0x3D2B JUMPI PUSH2 0x3D2A PUSH2 0xA2D9 JUMP JUMPDEST JUMPDEST PUSH1 0xA MUL ADD PUSH1 0x6 PUSH1 0xA DUP2 LT PUSH2 0x3D42 JUMPI PUSH2 0x3D41 PUSH2 0xA2D9 JUMP JUMPDEST JUMPDEST ADD DUP2 SWAP1 SSTORE POP PUSH16 0x4B3B4CA85A86C47A099B5F2554520401 PUSH1 0xC8 PUSH1 0x16 PUSH1 0x27 DUP2 LT PUSH2 0x3D6D JUMPI PUSH2 0x3D6C PUSH2 0xA2D9 JUMP JUMPDEST JUMPDEST PUSH1 0xA MUL ADD PUSH1 0x7 PUSH1 0xA DUP2 LT PUSH2 0x3D84 JUMPI PUSH2 0x3D83 PUSH2 0xA2D9 JUMP JUMPDEST JUMPDEST ADD DUP2 SWAP1 SSTORE POP PUSH16 0x4B3B4CA85A86C47A099DD58F3BCB724A PUSH1 0xC8 PUSH1 0x16 PUSH1 0x27 DUP2 LT PUSH2 0x3DAF JUMPI PUSH2 0x3DAE PUSH2 0xA2D9 JUMP JUMPDEST JUMPDEST PUSH1 0xA MUL ADD PUSH1 0x8 PUSH1 0xA DUP2 LT PUSH2 0x3DC6 JUMPI PUSH2 0x3DC5 PUSH2 0xA2D9 JUMP JUMPDEST JUMPDEST ADD DUP2 SWAP1 SSTORE POP PUSH16 0x4B3B4CA85A86C47A09A04BF92344E094 PUSH1 0xC8 PUSH1 0x16 PUSH1 0x27 DUP2 LT PUSH2 0x3DF1 JUMPI PUSH2 0x3DF0 PUSH2 0xA2D9 JUMP JUMPDEST JUMPDEST PUSH1 0xA MUL ADD PUSH1 0x9 PUSH1 0xA DUP2 LT PUSH2 0x3E08 JUMPI PUSH2 0x3E07 PUSH2 0xA2D9 JUMP JUMPDEST JUMPDEST ADD DUP2 SWAP1 SSTORE POP PUSH16 0x4B3B4CA85A86C47A098A224000000000 PUSH1 0xC8 PUSH1 0x17 PUSH1 0x27 DUP2 LT PUSH2 0x3E33 JUMPI PUSH2 0x3E32 PUSH2 0xA2D9 JUMP JUMPDEST JUMPDEST PUSH1 0xA MUL ADD PUSH1 0x0 PUSH1 0xA DUP2 LT PUSH2 0x3E4A JUMPI PUSH2 0x3E49 PUSH2 0xA2D9 JUMP JUMPDEST JUMPDEST ADD DUP2 SWAP1 SSTORE POP PUSH16 0x4B3B4CA85A86C47A098A614A9725BE3B PUSH1 0xC8 PUSH1 0x17 PUSH1 0x27 DUP2 LT PUSH2 0x3E75 JUMPI PUSH2 0x3E74 PUSH2 0xA2D9 JUMP JUMPDEST JUMPDEST PUSH1 0xA MUL ADD PUSH1 0x1 PUSH1 0xA DUP2 LT PUSH2 0x3E8C JUMPI PUSH2 0x3E8B PUSH2 0xA2D9 JUMP JUMPDEST JUMPDEST ADD DUP2 SWAP1 SSTORE POP PUSH16 0x4B3B4CA85A86C47A098AA0552E4B7C75 PUSH1 0xC8 PUSH1 0x17 PUSH1 0x27 DUP2 LT PUSH2 0x3EB7 JUMPI PUSH2 0x3EB6 PUSH2 0xA2D9 JUMP JUMPDEST JUMPDEST PUSH1 0xA MUL ADD PUSH1 0x2 PUSH1 0xA DUP2 LT PUSH2 0x3ECE JUMPI PUSH2 0x3ECD PUSH2 0xA2D9 JUMP JUMPDEST JUMPDEST ADD DUP2 SWAP1 SSTORE POP PUSH16 0x4B3B4CA85A86C47A098ADF5FC5713AB0 PUSH1 0xC8 PUSH1 0x17 PUSH1 0x27 DUP2 LT PUSH2 0x3EF9 JUMPI PUSH2 0x3EF8 PUSH2 0xA2D9 JUMP JUMPDEST JUMPDEST PUSH1 0xA MUL ADD PUSH1 0x3 PUSH1 0xA DUP2 LT PUSH2 0x3F10 JUMPI PUSH2 0x3F0F PUSH2 0xA2D9 JUMP JUMPDEST JUMPDEST ADD DUP2 SWAP1 SSTORE POP PUSH16 0x4B3B4CA85A86C47A098B1E6A5C96F8EA PUSH1 0xC8 PUSH1 0x17 PUSH1 0x27 DUP2 LT PUSH2 0x3F3B JUMPI PUSH2 0x3F3A PUSH2 0xA2D9 JUMP JUMPDEST JUMPDEST PUSH1 0xA MUL ADD PUSH1 0x4 PUSH1 0xA DUP2 LT PUSH2 0x3F52 JUMPI PUSH2 0x3F51 PUSH2 0xA2D9 JUMP JUMPDEST JUMPDEST ADD DUP2 SWAP1 SSTORE POP PUSH16 0x4B3B4CA85A86C47A098B5D74F3BCB725 PUSH1 0xC8 PUSH1 0x17 PUSH1 0x27 DUP2 LT PUSH2 0x3F7D JUMPI PUSH2 0x3F7C PUSH2 0xA2D9 JUMP JUMPDEST JUMPDEST PUSH1 0xA MUL ADD PUSH1 0x5 PUSH1 0xA DUP2 LT PUSH2 0x3F94 JUMPI PUSH2 0x3F93 PUSH2 0xA2D9 JUMP JUMPDEST JUMPDEST ADD DUP2 SWAP1 SSTORE POP PUSH16 0x4B3B4CA85A86C47A098B9C7F8AE2755F PUSH1 0xC8 PUSH1 0x17 PUSH1 0x27 DUP2 LT PUSH2 0x3FBF JUMPI PUSH2 0x3FBE PUSH2 0xA2D9 JUMP JUMPDEST JUMPDEST PUSH1 0xA MUL ADD PUSH1 0x6 PUSH1 0xA DUP2 LT PUSH2 0x3FD6 JUMPI PUSH2 0x3FD5 PUSH2 0xA2D9 JUMP JUMPDEST JUMPDEST ADD DUP2 SWAP1 SSTORE POP PUSH16 0x4B3B4CA85A86C47A098BDB8A2208339A PUSH1 0xC8 PUSH1 0x17 PUSH1 0x27 DUP2 LT PUSH2 0x4001 JUMPI PUSH2 0x4000 PUSH2 0xA2D9 JUMP JUMPDEST JUMPDEST PUSH1 0xA MUL ADD PUSH1 0x7 PUSH1 0xA DUP2 LT PUSH2 0x4018 JUMPI PUSH2 0x4017 PUSH2 0xA2D9 JUMP JUMPDEST JUMPDEST ADD DUP2 SWAP1 SSTORE POP PUSH16 0x4B3B4CA85A86C47A098C1A94B92DF1D4 PUSH1 0xC8 PUSH1 0x17 PUSH1 0x27 DUP2 LT PUSH2 0x4043 JUMPI PUSH2 0x4042 PUSH2 0xA2D9 JUMP JUMPDEST JUMPDEST PUSH1 0xA MUL ADD PUSH1 0x8 PUSH1 0xA DUP2 LT PUSH2 0x405A JUMPI PUSH2 0x4059 PUSH2 0xA2D9 JUMP JUMPDEST JUMPDEST ADD DUP2 SWAP1 SSTORE POP PUSH16 0x4B3B4CA85A86C47A098C599F5053B00F PUSH1 0xC8 PUSH1 0x17 PUSH1 0x27 DUP2 LT PUSH2 0x4085 JUMPI PUSH2 0x4084 PUSH2 0xA2D9 JUMP JUMPDEST JUMPDEST PUSH1 0xA MUL ADD PUSH1 0x9 PUSH1 0xA DUP2 LT PUSH2 0x409C JUMPI PUSH2 0x409B PUSH2 0xA2D9 JUMP JUMPDEST JUMPDEST ADD DUP2 SWAP1 SSTORE POP PUSH16 0x4B3B4CA85A86C47A098A224000000000 PUSH1 0xC8 PUSH1 0x18 PUSH1 0x27 DUP2 LT PUSH2 0x40C7 JUMPI PUSH2 0x40C6 PUSH2 0xA2D9 JUMP JUMPDEST JUMPDEST PUSH1 0xA MUL ADD PUSH1 0x0 PUSH1 0xA DUP2 LT PUSH2 0x40DE JUMPI PUSH2 0x40DD PUSH2 0xA2D9 JUMP JUMPDEST JUMPDEST ADD DUP2 SWAP1 SSTORE POP PUSH16 0x4B3B4CA85A86C47A098A288DDBEA2C9F PUSH1 0xC8 PUSH1 0x18 PUSH1 0x27 DUP2 LT PUSH2 0x4109 JUMPI PUSH2 0x4108 PUSH2 0xA2D9 JUMP JUMPDEST JUMPDEST PUSH1 0xA MUL ADD PUSH1 0x1 PUSH1 0xA DUP2 LT PUSH2 0x4120 JUMPI PUSH2 0x411F PUSH2 0xA2D9 JUMP JUMPDEST JUMPDEST ADD DUP2 SWAP1 SSTORE POP PUSH16 0x4B3B4CA85A86C47A098A2EDBB7D4593F PUSH1 0xC8 PUSH1 0x18 PUSH1 0x27 DUP2 LT PUSH2 0x414B JUMPI PUSH2 0x414A PUSH2 0xA2D9 JUMP JUMPDEST JUMPDEST PUSH1 0xA MUL ADD PUSH1 0x2 PUSH1 0xA DUP2 LT PUSH2 0x4162 JUMPI PUSH2 0x4161 PUSH2 0xA2D9 JUMP JUMPDEST JUMPDEST ADD DUP2 SWAP1 SSTORE POP PUSH16 0x4B3B4CA85A86C47A098A352993BE85DE PUSH1 0xC8 PUSH1 0x18 PUSH1 0x27 DUP2 LT PUSH2 0x418D JUMPI PUSH2 0x418C PUSH2 0xA2D9 JUMP JUMPDEST JUMPDEST PUSH1 0xA MUL ADD PUSH1 0x3 PUSH1 0xA DUP2 LT PUSH2 0x41A4 JUMPI PUSH2 0x41A3 PUSH2 0xA2D9 JUMP JUMPDEST JUMPDEST ADD DUP2 SWAP1 SSTORE POP PUSH16 0x4B3B4CA85A86C47A098A3B776FA8B27E PUSH1 0xC8 PUSH1 0x18 PUSH1 0x27 DUP2 LT PUSH2 0x41CF JUMPI PUSH2 0x41CE PUSH2 0xA2D9 JUMP JUMPDEST JUMPDEST PUSH1 0xA MUL ADD PUSH1 0x4 PUSH1 0xA DUP2 LT PUSH2 0x41E6 JUMPI PUSH2 0x41E5 PUSH2 0xA2D9 JUMP JUMPDEST JUMPDEST ADD DUP2 SWAP1 SSTORE POP PUSH16 0x4B3B4CA85A86C47A098A41C54B92DF1D PUSH1 0xC8 PUSH1 0x18 PUSH1 0x27 DUP2 LT PUSH2 0x4211 JUMPI PUSH2 0x4210 PUSH2 0xA2D9 JUMP JUMPDEST JUMPDEST PUSH1 0xA MUL ADD PUSH1 0x5 PUSH1 0xA DUP2 LT PUSH2 0x4228 JUMPI PUSH2 0x4227 PUSH2 0xA2D9 JUMP JUMPDEST JUMPDEST ADD DUP2 SWAP1 SSTORE POP PUSH16 0x4B3B4CA85A86C47A098A4813277D0BBD PUSH1 0xC8 PUSH1 0x18 PUSH1 0x27 DUP2 LT PUSH2 0x4253 JUMPI PUSH2 0x4252 PUSH2 0xA2D9 JUMP JUMPDEST JUMPDEST PUSH1 0xA MUL ADD PUSH1 0x6 PUSH1 0xA DUP2 LT PUSH2 0x426A JUMPI PUSH2 0x4269 PUSH2 0xA2D9 JUMP JUMPDEST JUMPDEST ADD DUP2 SWAP1 SSTORE POP PUSH16 0x4B3B4CA85A86C47A098A4E610367385C PUSH1 0xC8 PUSH1 0x18 PUSH1 0x27 DUP2 LT PUSH2 0x4295 JUMPI PUSH2 0x4294 PUSH2 0xA2D9 JUMP JUMPDEST JUMPDEST PUSH1 0xA MUL ADD PUSH1 0x7 PUSH1 0xA DUP2 LT PUSH2 0x42AC JUMPI PUSH2 0x42AB PUSH2 0xA2D9 JUMP JUMPDEST JUMPDEST ADD DUP2 SWAP1 SSTORE POP PUSH16 0x4B3B4CA85A86C47A098A54AEDF5164FC PUSH1 0xC8 PUSH1 0x18 PUSH1 0x27 DUP2 LT PUSH2 0x42D7 JUMPI PUSH2 0x42D6 PUSH2 0xA2D9 JUMP JUMPDEST JUMPDEST PUSH1 0xA MUL ADD PUSH1 0x8 PUSH1 0xA DUP2 LT PUSH2 0x42EE JUMPI PUSH2 0x42ED PUSH2 0xA2D9 JUMP JUMPDEST JUMPDEST ADD DUP2 SWAP1 SSTORE POP PUSH16 0x4B3B4CA85A86C47A098A5AFCBB3B919B PUSH1 0xC8 PUSH1 0x18 PUSH1 0x27 DUP2 LT PUSH2 0x4319 JUMPI PUSH2 0x4318 PUSH2 0xA2D9 JUMP JUMPDEST JUMPDEST PUSH1 0xA MUL ADD PUSH1 0x9 PUSH1 0xA DUP2 LT PUSH2 0x4330 JUMPI PUSH2 0x432F PUSH2 0xA2D9 JUMP JUMPDEST JUMPDEST ADD DUP2 SWAP1 SSTORE POP PUSH16 0x4B3B4CA85A86C47A098A224000000000 PUSH1 0xC8 PUSH1 0x19 PUSH1 0x27 DUP2 LT PUSH2 0x435B JUMPI PUSH2 0x435A PUSH2 0xA2D9 JUMP JUMPDEST JUMPDEST PUSH1 0xA MUL ADD PUSH1 0x0 PUSH1 0xA DUP2 LT PUSH2 0x4372 JUMPI PUSH2 0x4371 PUSH2 0xA2D9 JUMP JUMPDEST JUMPDEST ADD DUP2 SWAP1 SSTORE POP PUSH16 0x4B3B4CA85A86C47A098A22E162CA9E10 PUSH1 0xC8 PUSH1 0x19 PUSH1 0x27 DUP2 LT PUSH2 0x439D JUMPI PUSH2 0x439C PUSH2 0xA2D9 JUMP JUMPDEST JUMPDEST PUSH1 0xA MUL ADD PUSH1 0x1 PUSH1 0xA DUP2 LT PUSH2 0x43B4 JUMPI PUSH2 0x43B3 PUSH2 0xA2D9 JUMP JUMPDEST JUMPDEST ADD DUP2 SWAP1 SSTORE POP PUSH16 0x4B3B4CA85A86C47A098A2382C5953C20 PUSH1 0xC8 PUSH1 0x19 PUSH1 0x27 DUP2 LT PUSH2 0x43DF JUMPI PUSH2 0x43DE PUSH2 0xA2D9 JUMP JUMPDEST JUMPDEST PUSH1 0xA MUL ADD PUSH1 0x2 PUSH1 0xA DUP2 LT PUSH2 0x43F6 JUMPI PUSH2 0x43F5 PUSH2 0xA2D9 JUMP JUMPDEST JUMPDEST ADD DUP2 SWAP1 SSTORE POP PUSH16 0x4B3B4CA85A86C47A098A2424285FDA30 PUSH1 0xC8 PUSH1 0x19 PUSH1 0x27 DUP2 LT PUSH2 0x4421 JUMPI PUSH2 0x4420 PUSH2 0xA2D9 JUMP JUMPDEST JUMPDEST PUSH1 0xA MUL ADD PUSH1 0x3 PUSH1 0xA DUP2 LT PUSH2 0x4438 JUMPI PUSH2 0x4437 PUSH2 0xA2D9 JUMP JUMPDEST JUMPDEST ADD DUP2 SWAP1 SSTORE POP PUSH16 0x4B3B4CA85A86C47A098A24C58B2A7840 PUSH1 0xC8 PUSH1 0x19 PUSH1 0x27 DUP2 LT PUSH2 0x4463 JUMPI PUSH2 0x4462 PUSH2 0xA2D9 JUMP JUMPDEST JUMPDEST PUSH1 0xA MUL ADD PUSH1 0x4 PUSH1 0xA DUP2 LT PUSH2 0x447A JUMPI PUSH2 0x4479 PUSH2 0xA2D9 JUMP JUMPDEST JUMPDEST ADD DUP2 SWAP1 SSTORE POP PUSH16 0x4B3B4CA85A86C47A098A2566EDF51650 PUSH1 0xC8 PUSH1 0x19 PUSH1 0x27 DUP2 LT PUSH2 0x44A5 JUMPI PUSH2 0x44A4 PUSH2 0xA2D9 JUMP JUMPDEST JUMPDEST PUSH1 0xA MUL ADD PUSH1 0x5 PUSH1 0xA DUP2 LT PUSH2 0x44BC JUMPI PUSH2 0x44BB PUSH2 0xA2D9 JUMP JUMPDEST JUMPDEST ADD DUP2 SWAP1 SSTORE POP PUSH16 0x4B3B4CA85A86C47A098A260850BFB460 PUSH1 0xC8 PUSH1 0x19 PUSH1 0x27 DUP2 LT PUSH2 0x44E7 JUMPI PUSH2 0x44E6 PUSH2 0xA2D9 JUMP JUMPDEST JUMPDEST PUSH1 0xA MUL ADD PUSH1 0x6 PUSH1 0xA DUP2 LT PUSH2 0x44FE JUMPI PUSH2 0x44FD PUSH2 0xA2D9 JUMP JUMPDEST JUMPDEST ADD DUP2 SWAP1 SSTORE POP PUSH16 0x4B3B4CA85A86C47A098A26A9B38A5270 PUSH1 0xC8 PUSH1 0x19 PUSH1 0x27 DUP2 LT PUSH2 0x4529 JUMPI PUSH2 0x4528 PUSH2 0xA2D9 JUMP JUMPDEST JUMPDEST PUSH1 0xA MUL ADD PUSH1 0x7 PUSH1 0xA DUP2 LT PUSH2 0x4540 JUMPI PUSH2 0x453F PUSH2 0xA2D9 JUMP JUMPDEST JUMPDEST ADD DUP2 SWAP1 SSTORE POP PUSH16 0x4B3B4CA85A86C47A098A274B1654F080 PUSH1 0xC8 PUSH1 0x19 PUSH1 0x27 DUP2 LT PUSH2 0x456B JUMPI PUSH2 0x456A PUSH2 0xA2D9 JUMP JUMPDEST JUMPDEST PUSH1 0xA MUL ADD PUSH1 0x8 PUSH1 0xA DUP2 LT PUSH2 0x4582 JUMPI PUSH2 0x4581 PUSH2 0xA2D9 JUMP JUMPDEST JUMPDEST ADD DUP2 SWAP1 SSTORE POP PUSH16 0x4B3B4CA85A86C47A098A27EC791F8E90 PUSH1 0xC8 PUSH1 0x19 PUSH1 0x27 DUP2 LT PUSH2 0x45AD JUMPI PUSH2 0x45AC PUSH2 0xA2D9 JUMP JUMPDEST JUMPDEST PUSH1 0xA MUL ADD PUSH1 0x9 PUSH1 0xA DUP2 LT PUSH2 0x45C4 JUMPI PUSH2 0x45C3 PUSH2 0xA2D9 JUMP JUMPDEST JUMPDEST ADD DUP2 SWAP1 SSTORE POP PUSH16 0x4B3B4CA85A86C47A098A224000000000 PUSH1 0xC8 PUSH1 0x1A PUSH1 0x27 DUP2 LT PUSH2 0x45EF JUMPI PUSH2 0x45EE PUSH2 0xA2D9 JUMP JUMPDEST JUMPDEST PUSH1 0xA MUL ADD PUSH1 0x0 PUSH1 0xA DUP2 LT PUSH2 0x4606 JUMPI PUSH2 0x4605 PUSH2 0xA2D9 JUMP JUMPDEST JUMPDEST ADD DUP2 SWAP1 SSTORE POP PUSH16 0x4B3B4CA85A86C47A098A2250237AA968 PUSH1 0xC8 PUSH1 0x1A PUSH1 0x27 DUP2 LT PUSH2 0x4631 JUMPI PUSH2 0x4630 PUSH2 0xA2D9 JUMP JUMPDEST JUMPDEST PUSH1 0xA MUL ADD PUSH1 0x1 PUSH1 0xA DUP2 LT PUSH2 0x4648 JUMPI PUSH2 0x4647 PUSH2 0xA2D9 JUMP JUMPDEST JUMPDEST ADD DUP2 SWAP1 SSTORE POP PUSH16 0x4B3B4CA85A86C47A098A226046F552D0 PUSH1 0xC8 PUSH1 0x1A PUSH1 0x27 DUP2 LT PUSH2 0x4673 JUMPI PUSH2 0x4672 PUSH2 0xA2D9 JUMP JUMPDEST JUMPDEST PUSH1 0xA MUL ADD PUSH1 0x2 PUSH1 0xA DUP2 LT PUSH2 0x468A JUMPI PUSH2 0x4689 PUSH2 0xA2D9 JUMP JUMPDEST JUMPDEST ADD DUP2 SWAP1 SSTORE POP PUSH16 0x4B3B4CA85A86C47A098A22706A6FFC38 PUSH1 0xC8 PUSH1 0x1A PUSH1 0x27 DUP2 LT PUSH2 0x46B5 JUMPI PUSH2 0x46B4 PUSH2 0xA2D9 JUMP JUMPDEST JUMPDEST PUSH1 0xA MUL ADD PUSH1 0x3 PUSH1 0xA DUP2 LT PUSH2 0x46CC JUMPI PUSH2 0x46CB PUSH2 0xA2D9 JUMP JUMPDEST JUMPDEST ADD DUP2 SWAP1 SSTORE POP PUSH16 0x4B3B4CA85A86C47A098A22808DEAA5A0 PUSH1 0xC8 PUSH1 0x1A PUSH1 0x27 DUP2 LT PUSH2 0x46F7 JUMPI PUSH2 0x46F6 PUSH2 0xA2D9 JUMP JUMPDEST JUMPDEST PUSH1 0xA MUL ADD PUSH1 0x4 PUSH1 0xA DUP2 LT PUSH2 0x470E JUMPI PUSH2 0x470D PUSH2 0xA2D9 JUMP JUMPDEST JUMPDEST ADD DUP2 SWAP1 SSTORE POP PUSH16 0x4B3B4CA85A86C47A098A2290B1654F08 PUSH1 0xC8 PUSH1 0x1A PUSH1 0x27 DUP2 LT PUSH2 0x4739 JUMPI PUSH2 0x4738 PUSH2 0xA2D9 JUMP JUMPDEST JUMPDEST PUSH1 0xA MUL ADD PUSH1 0x5 PUSH1 0xA DUP2 LT PUSH2 0x4750 JUMPI PUSH2 0x474F PUSH2 0xA2D9 JUMP JUMPDEST JUMPDEST ADD DUP2 SWAP1 SSTORE POP PUSH16 0x4B3B4CA85A86C47A098A22A0D4DFF870 PUSH1 0xC8 PUSH1 0x1A PUSH1 0x27 DUP2 LT PUSH2 0x477B JUMPI PUSH2 0x477A PUSH2 0xA2D9 JUMP JUMPDEST JUMPDEST PUSH1 0xA MUL ADD PUSH1 0x6 PUSH1 0xA DUP2 LT PUSH2 0x4792 JUMPI PUSH2 0x4791 PUSH2 0xA2D9 JUMP JUMPDEST JUMPDEST ADD DUP2 SWAP1 SSTORE POP PUSH16 0x4B3B4CA85A86C47A098A22B0F85AA1D8 PUSH1 0xC8 PUSH1 0x1A PUSH1 0x27 DUP2 LT PUSH2 0x47BD JUMPI PUSH2 0x47BC PUSH2 0xA2D9 JUMP JUMPDEST JUMPDEST PUSH1 0xA MUL ADD PUSH1 0x7 PUSH1 0xA DUP2 LT PUSH2 0x47D4 JUMPI PUSH2 0x47D3 PUSH2 0xA2D9 JUMP JUMPDEST JUMPDEST ADD DUP2 SWAP1 SSTORE POP PUSH16 0x4B3B4CA85A86C47A098A22C11BD54B40 PUSH1 0xC8 PUSH1 0x1A PUSH1 0x27 DUP2 LT PUSH2 0x47FF JUMPI PUSH2 0x47FE PUSH2 0xA2D9 JUMP JUMPDEST JUMPDEST PUSH1 0xA MUL ADD PUSH1 0x8 PUSH1 0xA DUP2 LT PUSH2 0x4816 JUMPI PUSH2 0x4815 PUSH2 0xA2D9 JUMP JUMPDEST JUMPDEST ADD DUP2 SWAP1 SSTORE POP PUSH16 0x4B3B4CA85A86C47A098A22D13F4FF4A8 PUSH1 0xC8 PUSH1 0x1A PUSH1 0x27 DUP2 LT PUSH2 0x4841 JUMPI PUSH2 0x4840 PUSH2 0xA2D9 JUMP JUMPDEST JUMPDEST PUSH1 0xA MUL ADD PUSH1 0x9 PUSH1 0xA DUP2 LT PUSH2 0x4858 JUMPI PUSH2 0x4857 PUSH2 0xA2D9 JUMP JUMPDEST JUMPDEST ADD DUP2 SWAP1 SSTORE POP PUSH16 0x4B3B4CA85A86C47A098A224000000000 PUSH1 0xC8 PUSH1 0x1B PUSH1 0x27 DUP2 LT PUSH2 0x4883 JUMPI PUSH2 0x4882 PUSH2 0xA2D9 JUMP JUMPDEST JUMPDEST PUSH1 0xA MUL ADD PUSH1 0x0 PUSH1 0xA DUP2 LT PUSH2 0x489A JUMPI PUSH2 0x4899 PUSH2 0xA2D9 JUMP JUMPDEST JUMPDEST ADD DUP2 SWAP1 SSTORE POP PUSH16 0x4B3B4CA85A86C47A098A22419D25DDBE PUSH1 0xC8 PUSH1 0x1B PUSH1 0x27 DUP2 LT PUSH2 0x48C5 JUMPI PUSH2 0x48C4 PUSH2 0xA2D9 JUMP JUMPDEST JUMPDEST PUSH1 0xA MUL ADD PUSH1 0x1 PUSH1 0xA DUP2 LT PUSH2 0x48DC JUMPI PUSH2 0x48DB PUSH2 0xA2D9 JUMP JUMPDEST JUMPDEST ADD DUP2 SWAP1 SSTORE POP PUSH16 0x4B3B4CA85A86C47A098A22433A4BBB7B PUSH1 0xC8 PUSH1 0x1B PUSH1 0x27 DUP2 LT PUSH2 0x4907 JUMPI PUSH2 0x4906 PUSH2 0xA2D9 JUMP JUMPDEST JUMPDEST PUSH1 0xA MUL ADD PUSH1 0x2 PUSH1 0xA DUP2 LT PUSH2 0x491E JUMPI PUSH2 0x491D PUSH2 0xA2D9 JUMP JUMPDEST JUMPDEST ADD DUP2 SWAP1 SSTORE POP PUSH16 0x4B3B4CA85A86C47A098A2244D7719939 PUSH1 0xC8 PUSH1 0x1B PUSH1 0x27 DUP2 LT PUSH2 0x4949 JUMPI PUSH2 0x4948 PUSH2 0xA2D9 JUMP JUMPDEST JUMPDEST PUSH1 0xA MUL ADD PUSH1 0x3 PUSH1 0xA DUP2 LT PUSH2 0x4960 JUMPI PUSH2 0x495F PUSH2 0xA2D9 JUMP JUMPDEST JUMPDEST ADD DUP2 SWAP1 SSTORE POP PUSH16 0x4B3B4CA85A86C47A098A2246749776F6 PUSH1 0xC8 PUSH1 0x1B PUSH1 0x27 DUP2 LT PUSH2 0x498B JUMPI PUSH2 0x498A PUSH2 0xA2D9 JUMP JUMPDEST JUMPDEST PUSH1 0xA MUL ADD PUSH1 0x4 PUSH1 0xA DUP2 LT PUSH2 0x49A2 JUMPI PUSH2 0x49A1 PUSH2 0xA2D9 JUMP JUMPDEST JUMPDEST ADD DUP2 SWAP1 SSTORE POP PUSH16 0x4B3B4CA85A86C47A098A224811BD54B4 PUSH1 0xC8 PUSH1 0x1B PUSH1 0x27 DUP2 LT PUSH2 0x49CD JUMPI PUSH2 0x49CC PUSH2 0xA2D9 JUMP JUMPDEST JUMPDEST PUSH1 0xA MUL ADD PUSH1 0x5 PUSH1 0xA DUP2 LT PUSH2 0x49E4 JUMPI PUSH2 0x49E3 PUSH2 0xA2D9 JUMP JUMPDEST JUMPDEST ADD DUP2 SWAP1 SSTORE POP PUSH16 0x4B3B4CA85A86C47A098A2249AEE33272 PUSH1 0xC8 PUSH1 0x1B PUSH1 0x27 DUP2 LT PUSH2 0x4A0F JUMPI PUSH2 0x4A0E PUSH2 0xA2D9 JUMP JUMPDEST JUMPDEST PUSH1 0xA MUL ADD PUSH1 0x6 PUSH1 0xA DUP2 LT PUSH2 0x4A26 JUMPI PUSH2 0x4A25 PUSH2 0xA2D9 JUMP JUMPDEST JUMPDEST ADD DUP2 SWAP1 SSTORE POP PUSH16 0x4B3B4CA85A86C47A098A224B4C09102F PUSH1 0xC8 PUSH1 0x1B PUSH1 0x27 DUP2 LT PUSH2 0x4A51 JUMPI PUSH2 0x4A50 PUSH2 0xA2D9 JUMP JUMPDEST JUMPDEST PUSH1 0xA MUL ADD PUSH1 0x7 PUSH1 0xA DUP2 LT PUSH2 0x4A68 JUMPI PUSH2 0x4A67 PUSH2 0xA2D9 JUMP JUMPDEST JUMPDEST ADD DUP2 SWAP1 SSTORE POP PUSH16 0x4B3B4CA85A86C47A098A224CE92EEDED PUSH1 0xC8 PUSH1 0x1B PUSH1 0x27 DUP2 LT PUSH2 0x4A93 JUMPI PUSH2 0x4A92 PUSH2 0xA2D9 JUMP JUMPDEST JUMPDEST PUSH1 0xA MUL ADD PUSH1 0x8 PUSH1 0xA DUP2 LT PUSH2 0x4AAA JUMPI PUSH2 0x4AA9 PUSH2 0xA2D9 JUMP JUMPDEST JUMPDEST ADD DUP2 SWAP1 SSTORE POP PUSH16 0x4B3B4CA85A86C47A098A224E8654CBAA PUSH1 0xC8 PUSH1 0x1B PUSH1 0x27 DUP2 LT PUSH2 0x4AD5 JUMPI PUSH2 0x4AD4 PUSH2 0xA2D9 JUMP JUMPDEST JUMPDEST PUSH1 0xA MUL ADD PUSH1 0x9 PUSH1 0xA DUP2 LT PUSH2 0x4AEC JUMPI PUSH2 0x4AEB PUSH2 0xA2D9 JUMP JUMPDEST JUMPDEST ADD DUP2 SWAP1 SSTORE POP PUSH16 0x4B3B4CA85A86C47A098A224000000000 PUSH1 0xC8 PUSH1 0x1C PUSH1 0x27 DUP2 LT PUSH2 0x4B17 JUMPI PUSH2 0x4B16 PUSH2 0xA2D9 JUMP JUMPDEST JUMPDEST PUSH1 0xA MUL ADD PUSH1 0x0 PUSH1 0xA DUP2 LT PUSH2 0x4B2E JUMPI PUSH2 0x4B2D PUSH2 0xA2D9 JUMP JUMPDEST JUMPDEST ADD DUP2 SWAP1 SSTORE POP PUSH16 0x4B3B4CA85A86C47A098A22402950962D PUSH1 0xC8 PUSH1 0x1C PUSH1 0x27 DUP2 LT PUSH2 0x4B59 JUMPI PUSH2 0x4B58 PUSH2 0xA2D9 JUMP JUMPDEST JUMPDEST PUSH1 0xA MUL ADD PUSH1 0x1 PUSH1 0xA DUP2 LT PUSH2 0x4B70 JUMPI PUSH2 0x4B6F PUSH2 0xA2D9 JUMP JUMPDEST JUMPDEST ADD DUP2 SWAP1 SSTORE POP PUSH16 0x4B3B4CA85A86C47A098A224052A12C59 PUSH1 0xC8 PUSH1 0x1C PUSH1 0x27 DUP2 LT PUSH2 0x4B9B JUMPI PUSH2 0x4B9A PUSH2 0xA2D9 JUMP JUMPDEST JUMPDEST PUSH1 0xA MUL ADD PUSH1 0x2 PUSH1 0xA DUP2 LT PUSH2 0x4BB2 JUMPI PUSH2 0x4BB1 PUSH2 0xA2D9 JUMP JUMPDEST JUMPDEST ADD DUP2 SWAP1 SSTORE POP PUSH16 0x4B3B4CA85A86C47A098A22407BF1C286 PUSH1 0xC8 PUSH1 0x1C PUSH1 0x27 DUP2 LT PUSH2 0x4BDD JUMPI PUSH2 0x4BDC PUSH2 0xA2D9 JUMP JUMPDEST JUMPDEST PUSH1 0xA MUL ADD PUSH1 0x3 PUSH1 0xA DUP2 LT PUSH2 0x4BF4 JUMPI PUSH2 0x4BF3 PUSH2 0xA2D9 JUMP JUMPDEST JUMPDEST ADD DUP2 SWAP1 SSTORE POP PUSH16 0x4B3B4CA85A86C47A098A2240A54258B2 PUSH1 0xC8 PUSH1 0x1C PUSH1 0x27 DUP2 LT PUSH2 0x4C1F JUMPI PUSH2 0x4C1E PUSH2 0xA2D9 JUMP JUMPDEST JUMPDEST PUSH1 0xA MUL ADD PUSH1 0x4 PUSH1 0xA DUP2 LT PUSH2 0x4C36 JUMPI PUSH2 0x4C35 PUSH2 0xA2D9 JUMP JUMPDEST JUMPDEST ADD DUP2 SWAP1 SSTORE POP PUSH16 0x4B3B4CA85A86C47A098A2240CE92EEDF PUSH1 0xC8 PUSH1 0x1C PUSH1 0x27 DUP2 LT PUSH2 0x4C61 JUMPI PUSH2 0x4C60 PUSH2 0xA2D9 JUMP JUMPDEST JUMPDEST PUSH1 0xA MUL ADD PUSH1 0x5 PUSH1 0xA DUP2 LT PUSH2 0x4C78 JUMPI PUSH2 0x4C77 PUSH2 0xA2D9 JUMP JUMPDEST JUMPDEST ADD DUP2 SWAP1 SSTORE POP PUSH16 0x4B3B4CA85A86C47A098A2240F7E3850B PUSH1 0xC8 PUSH1 0x1C PUSH1 0x27 DUP2 LT PUSH2 0x4CA3 JUMPI PUSH2 0x4CA2 PUSH2 0xA2D9 JUMP JUMPDEST JUMPDEST PUSH1 0xA MUL ADD PUSH1 0x6 PUSH1 0xA DUP2 LT PUSH2 0x4CBA JUMPI PUSH2 0x4CB9 PUSH2 0xA2D9 JUMP JUMPDEST JUMPDEST ADD DUP2 SWAP1 SSTORE POP PUSH16 0x4B3B4CA85A86C47A098A224121341B38 PUSH1 0xC8 PUSH1 0x1C PUSH1 0x27 DUP2 LT PUSH2 0x4CE5 JUMPI PUSH2 0x4CE4 PUSH2 0xA2D9 JUMP JUMPDEST JUMPDEST PUSH1 0xA MUL ADD PUSH1 0x7 PUSH1 0xA DUP2 LT PUSH2 0x4CFC JUMPI PUSH2 0x4CFB PUSH2 0xA2D9 JUMP JUMPDEST JUMPDEST ADD DUP2 SWAP1 SSTORE POP PUSH16 0x4B3B4CA85A86C47A098A22414A84B164 PUSH1 0xC8 PUSH1 0x1C PUSH1 0x27 DUP2 LT PUSH2 0x4D27 JUMPI PUSH2 0x4D26 PUSH2 0xA2D9 JUMP JUMPDEST JUMPDEST PUSH1 0xA MUL ADD PUSH1 0x8 PUSH1 0xA DUP2 LT PUSH2 0x4D3E JUMPI PUSH2 0x4D3D PUSH2 0xA2D9 JUMP JUMPDEST JUMPDEST ADD DUP2 SWAP1 SSTORE POP PUSH16 0x4B3B4CA85A86C47A098A224173D54791 PUSH1 0xC8 PUSH1 0x1C PUSH1 0x27 DUP2 LT PUSH2 0x4D69 JUMPI PUSH2 0x4D68 PUSH2 0xA2D9 JUMP JUMPDEST JUMPDEST PUSH1 0xA MUL ADD PUSH1 0x9 PUSH1 0xA DUP2 LT PUSH2 0x4D80 JUMPI PUSH2 0x4D7F PUSH2 0xA2D9 JUMP JUMPDEST JUMPDEST ADD DUP2 SWAP1 SSTORE POP PUSH16 0x4B3B4CA85A86C47A098A224000000000 PUSH1 0xC8 PUSH1 0x1D PUSH1 0x27 DUP2 LT PUSH2 0x4DAB JUMPI PUSH2 0x4DAA PUSH2 0xA2D9 JUMP JUMPDEST JUMPDEST PUSH1 0xA MUL ADD PUSH1 0x0 PUSH1 0xA DUP2 LT PUSH2 0x4DC2 JUMPI PUSH2 0x4DC1 PUSH2 0xA2D9 JUMP JUMPDEST JUMPDEST ADD DUP2 SWAP1 SSTORE POP PUSH16 0x4B3B4CA85A86C47A098A22400421A89E PUSH1 0xC8 PUSH1 0x1D PUSH1 0x27 DUP2 LT PUSH2 0x4DED JUMPI PUSH2 0x4DEC PUSH2 0xA2D9 JUMP JUMPDEST JUMPDEST PUSH1 0xA MUL ADD PUSH1 0x1 PUSH1 0xA DUP2 LT PUSH2 0x4E04 JUMPI PUSH2 0x4E03 PUSH2 0xA2D9 JUMP JUMPDEST JUMPDEST ADD DUP2 SWAP1 SSTORE POP PUSH16 0x4B3B4CA85A86C47A098A22400843513C PUSH1 0xC8 PUSH1 0x1D PUSH1 0x27 DUP2 LT PUSH2 0x4E2F JUMPI PUSH2 0x4E2E PUSH2 0xA2D9 JUMP JUMPDEST JUMPDEST PUSH1 0xA MUL ADD PUSH1 0x2 PUSH1 0xA DUP2 LT PUSH2 0x4E46 JUMPI PUSH2 0x4E45 PUSH2 0xA2D9 JUMP JUMPDEST JUMPDEST ADD DUP2 SWAP1 SSTORE POP PUSH16 0x4B3B4CA85A86C47A098A22400C64F9DA PUSH1 0xC8 PUSH1 0x1D PUSH1 0x27 DUP2 LT PUSH2 0x4E71 JUMPI PUSH2 0x4E70 PUSH2 0xA2D9 JUMP JUMPDEST JUMPDEST PUSH1 0xA MUL ADD PUSH1 0x3 PUSH1 0xA DUP2 LT PUSH2 0x4E88 JUMPI PUSH2 0x4E87 PUSH2 0xA2D9 JUMP JUMPDEST JUMPDEST ADD DUP2 SWAP1 SSTORE POP PUSH16 0x4B3B4CA85A86C47A098A22401086A278 PUSH1 0xC8 PUSH1 0x1D PUSH1 0x27 DUP2 LT PUSH2 0x4EB3 JUMPI PUSH2 0x4EB2 PUSH2 0xA2D9 JUMP JUMPDEST JUMPDEST PUSH1 0xA MUL ADD PUSH1 0x4 PUSH1 0xA DUP2 LT PUSH2 0x4ECA JUMPI PUSH2 0x4EC9 PUSH2 0xA2D9 JUMP JUMPDEST JUMPDEST ADD DUP2 SWAP1 SSTORE POP PUSH16 0x4B3B4CA85A86C47A098A224014A84B16 PUSH1 0xC8 PUSH1 0x1D PUSH1 0x27 DUP2 LT PUSH2 0x4EF5 JUMPI PUSH2 0x4EF4 PUSH2 0xA2D9 JUMP JUMPDEST JUMPDEST PUSH1 0xA MUL ADD PUSH1 0x5 PUSH1 0xA DUP2 LT PUSH2 0x4F0C JUMPI PUSH2 0x4F0B PUSH2 0xA2D9 JUMP JUMPDEST JUMPDEST ADD DUP2 SWAP1 SSTORE POP PUSH16 0x4B3B4CA85A86C47A098A224018C9F3B4 PUSH1 0xC8 PUSH1 0x1D PUSH1 0x27 DUP2 LT PUSH2 0x4F37 JUMPI PUSH2 0x4F36 PUSH2 0xA2D9 JUMP JUMPDEST JUMPDEST PUSH1 0xA MUL ADD PUSH1 0x6 PUSH1 0xA DUP2 LT PUSH2 0x4F4E JUMPI PUSH2 0x4F4D PUSH2 0xA2D9 JUMP JUMPDEST JUMPDEST ADD DUP2 SWAP1 SSTORE POP PUSH16 0x4B3B4CA85A86C47A098A22401CEB9C52 PUSH1 0xC8 PUSH1 0x1D PUSH1 0x27 DUP2 LT PUSH2 0x4F79 JUMPI PUSH2 0x4F78 PUSH2 0xA2D9 JUMP JUMPDEST JUMPDEST PUSH1 0xA MUL ADD PUSH1 0x7 PUSH1 0xA DUP2 LT PUSH2 0x4F90 JUMPI PUSH2 0x4F8F PUSH2 0xA2D9 JUMP JUMPDEST JUMPDEST ADD DUP2 SWAP1 SSTORE POP PUSH16 0x4B3B4CA85A86C47A098A2240210D44F0 PUSH1 0xC8 PUSH1 0x1D PUSH1 0x27 DUP2 LT PUSH2 0x4FBB JUMPI PUSH2 0x4FBA PUSH2 0xA2D9 JUMP JUMPDEST JUMPDEST PUSH1 0xA MUL ADD PUSH1 0x8 PUSH1 0xA DUP2 LT PUSH2 0x4FD2 JUMPI PUSH2 0x4FD1 PUSH2 0xA2D9 JUMP JUMPDEST JUMPDEST ADD DUP2 SWAP1 SSTORE POP PUSH16 0x4B3B4CA85A86C47A098A2240252EED8F PUSH1 0xC8 PUSH1 0x1D PUSH1 0x27 DUP2 LT PUSH2 0x4FFD JUMPI PUSH2 0x4FFC PUSH2 0xA2D9 JUMP JUMPDEST JUMPDEST PUSH1 0xA MUL ADD PUSH1 0x9 PUSH1 0xA DUP2 LT PUSH2 0x5014 JUMPI PUSH2 0x5013 PUSH2 0xA2D9 JUMP JUMPDEST JUMPDEST ADD DUP2 SWAP1 SSTORE POP PUSH16 0x4B3B4CA85A86C47A098A224000000000 PUSH1 0xC8 PUSH1 0x1E PUSH1 0x27 DUP2 LT PUSH2 0x503F JUMPI PUSH2 0x503E PUSH2 0xA2D9 JUMP JUMPDEST JUMPDEST PUSH1 0xA MUL ADD PUSH1 0x0 PUSH1 0xA DUP2 LT PUSH2 0x5056 JUMPI PUSH2 0x5055 PUSH2 0xA2D9 JUMP JUMPDEST JUMPDEST ADD DUP2 SWAP1 SSTORE POP PUSH16 0x4B3B4CA85A86C47A098A22400069C410 PUSH1 0xC8 PUSH1 0x1E PUSH1 0x27 DUP2 LT PUSH2 0x5081 JUMPI PUSH2 0x5080 PUSH2 0xA2D9 JUMP JUMPDEST JUMPDEST PUSH1 0xA MUL ADD PUSH1 0x1 PUSH1 0xA DUP2 LT PUSH2 0x5098 JUMPI PUSH2 0x5097 PUSH2 0xA2D9 JUMP JUMPDEST JUMPDEST ADD DUP2 SWAP1 SSTORE POP PUSH16 0x4B3B4CA85A86C47A098A224000D38820 PUSH1 0xC8 PUSH1 0x1E PUSH1 0x27 DUP2 LT PUSH2 0x50C3 JUMPI PUSH2 0x50C2 PUSH2 0xA2D9 JUMP JUMPDEST JUMPDEST PUSH1 0xA MUL ADD PUSH1 0x2 PUSH1 0xA DUP2 LT PUSH2 0x50DA JUMPI PUSH2 0x50D9 PUSH2 0xA2D9 JUMP JUMPDEST JUMPDEST ADD DUP2 SWAP1 SSTORE POP PUSH16 0x4B3B4CA85A86C47A098A2240013D4C2F PUSH1 0xC8 PUSH1 0x1E PUSH1 0x27 DUP2 LT PUSH2 0x5105 JUMPI PUSH2 0x5104 PUSH2 0xA2D9 JUMP JUMPDEST JUMPDEST PUSH1 0xA MUL ADD PUSH1 0x3 PUSH1 0xA DUP2 LT PUSH2 0x511C JUMPI PUSH2 0x511B PUSH2 0xA2D9 JUMP JUMPDEST JUMPDEST ADD DUP2 SWAP1 SSTORE POP PUSH16 0x4B3B4CA85A86C47A098A224001A7103F PUSH1 0xC8 PUSH1 0x1E PUSH1 0x27 DUP2 LT PUSH2 0x5147 JUMPI PUSH2 0x5146 PUSH2 0xA2D9 JUMP JUMPDEST JUMPDEST PUSH1 0xA MUL ADD PUSH1 0x4 PUSH1 0xA DUP2 LT PUSH2 0x515E JUMPI PUSH2 0x515D PUSH2 0xA2D9 JUMP JUMPDEST JUMPDEST ADD DUP2 SWAP1 SSTORE POP PUSH16 0x4B3B4CA85A86C47A098A22400210D44F PUSH1 0xC8 PUSH1 0x1E PUSH1 0x27 DUP2 LT PUSH2 0x5189 JUMPI PUSH2 0x5188 PUSH2 0xA2D9 JUMP JUMPDEST JUMPDEST PUSH1 0xA MUL ADD PUSH1 0x5 PUSH1 0xA DUP2 LT PUSH2 0x51A0 JUMPI PUSH2 0x519F PUSH2 0xA2D9 JUMP JUMPDEST JUMPDEST ADD DUP2 SWAP1 SSTORE POP PUSH16 0x4B3B4CA85A86C47A098A2240027A985F PUSH1 0xC8 PUSH1 0x1E PUSH1 0x27 DUP2 LT PUSH2 0x51CB JUMPI PUSH2 0x51CA PUSH2 0xA2D9 JUMP JUMPDEST JUMPDEST PUSH1 0xA MUL ADD PUSH1 0x6 PUSH1 0xA DUP2 LT PUSH2 0x51E2 JUMPI PUSH2 0x51E1 PUSH2 0xA2D9 JUMP JUMPDEST JUMPDEST ADD DUP2 SWAP1 SSTORE POP PUSH16 0x4B3B4CA85A86C47A098A224002E45C6F PUSH1 0xC8 PUSH1 0x1E PUSH1 0x27 DUP2 LT PUSH2 0x520D JUMPI PUSH2 0x520C PUSH2 0xA2D9 JUMP JUMPDEST JUMPDEST PUSH1 0xA MUL ADD PUSH1 0x7 PUSH1 0xA DUP2 LT PUSH2 0x5224 JUMPI PUSH2 0x5223 PUSH2 0xA2D9 JUMP JUMPDEST JUMPDEST ADD DUP2 SWAP1 SSTORE POP PUSH16 0x4B3B4CA85A86C47A098A2240034E207E PUSH1 0xC8 PUSH1 0x1E PUSH1 0x27 DUP2 LT PUSH2 0x524F JUMPI PUSH2 0x524E PUSH2 0xA2D9 JUMP JUMPDEST JUMPDEST PUSH1 0xA MUL ADD PUSH1 0x8 PUSH1 0xA DUP2 LT PUSH2 0x5266 JUMPI PUSH2 0x5265 PUSH2 0xA2D9 JUMP JUMPDEST JUMPDEST ADD DUP2 SWAP1 SSTORE POP PUSH16 0x4B3B4CA85A86C47A098A224003B7E48E PUSH1 0xC8 PUSH1 0x1E PUSH1 0x27 DUP2 LT PUSH2 0x5291 JUMPI PUSH2 0x5290 PUSH2 0xA2D9 JUMP JUMPDEST JUMPDEST PUSH1 0xA MUL ADD PUSH1 0x9 PUSH1 0xA DUP2 LT PUSH2 0x52A8 JUMPI PUSH2 0x52A7 PUSH2 0xA2D9 JUMP JUMPDEST JUMPDEST ADD DUP2 SWAP1 SSTORE POP PUSH1 0x1 PUSH2 0x24E PUSH1 0x4 PUSH2 0x100 EXP DUP2 SLOAD DUP2 PUSH1 0xFF MUL NOT AND SWAP1 DUP4 ISZERO ISZERO MUL OR SWAP1 SSTORE POP JUMP JUMPDEST PUSH1 0x0 DUP1 DUP3 EQ ISZERO PUSH2 0x52E5 JUMPI PUSH8 0xDE0B6B3A7640000 SWAP1 POP PUSH2 0x538D JUMP JUMPDEST PUSH1 0x0 PUSH8 0xDE0B6B3A7640000 SWAP1 POP JUMPDEST PUSH1 0x1 DUP4 GT ISZERO PUSH2 0x537F JUMPI PUSH1 0x0 PUSH1 0x2 DUP5 PUSH2 0x530B SWAP2 SWAP1 PUSH2 0xA24A JUMP JUMPDEST EQ ISZERO PUSH2 0x5331 JUMPI PUSH2 0x531B DUP5 DUP6 PUSH2 0x8169 JUMP JUMPDEST SWAP4 POP PUSH1 0x2 DUP4 PUSH2 0x532A SWAP2 SWAP1 PUSH2 0x9FC7 JUMP JUMPDEST SWAP3 POP PUSH2 0x537A JUMP JUMPDEST PUSH1 0x0 PUSH1 0x2 DUP5 PUSH2 0x5340 SWAP2 SWAP1 PUSH2 0xA24A JUMP JUMPDEST EQ PUSH2 0x5379 JUMPI PUSH2 0x534F DUP5 DUP3 PUSH2 0x8169 JUMP JUMPDEST SWAP1 POP PUSH2 0x535B DUP5 DUP6 PUSH2 0x8169 JUMP JUMPDEST SWAP4 POP PUSH1 0x2 PUSH1 0x1 DUP5 PUSH2 0x536C SWAP2 SWAP1 PUSH2 0xA1C3 JUMP JUMPDEST PUSH2 0x5376 SWAP2 SWAP1 PUSH2 0x9FC7 JUMP JUMPDEST SWAP3 POP JUMPDEST JUMPDEST PUSH2 0x52F3 JUMP JUMPDEST PUSH2 0x5389 DUP5 DUP3 PUSH2 0x8169 JUMP JUMPDEST SWAP2 POP POP JUMPDEST SWAP3 SWAP2 POP POP JUMP JUMPDEST PUSH1 0x0 DUP1 DUP3 EQ ISZERO PUSH2 0x53A6 JUMPI PUSH1 0x1 SWAP1 POP PUSH2 0x5447 JUMP JUMPDEST PUSH1 0x0 PUSH1 0x1 SWAP1 POP JUMPDEST PUSH1 0x1 DUP4 GT ISZERO PUSH2 0x5439 JUMPI PUSH1 0x0 PUSH1 0x2 DUP5 PUSH2 0x53C5 SWAP2 SWAP1 PUSH2 0xA24A JUMP JUMPDEST EQ ISZERO PUSH2 0x53EB JUMPI PUSH2 0x53D5 DUP5 DUP6 PUSH2 0x9B98 JUMP JUMPDEST SWAP4 POP PUSH1 0x2 DUP4 PUSH2 0x53E4 SWAP2 SWAP1 PUSH2 0x9FC7 JUMP JUMPDEST SWAP3 POP PUSH2 0x5434 JUMP JUMPDEST PUSH1 0x0 PUSH1 0x2 DUP5 PUSH2 0x53FA SWAP2 SWAP1 PUSH2 0xA24A JUMP JUMPDEST EQ PUSH2 0x5433 JUMPI PUSH2 0x5409 DUP5 DUP3 PUSH2 0x9B98 JUMP JUMPDEST SWAP1 POP PUSH2 0x5415 DUP5 DUP6 PUSH2 0x9B98 JUMP JUMPDEST SWAP4 POP PUSH1 0x2 PUSH1 0x1 DUP5 PUSH2 0x5426 SWAP2 SWAP1 PUSH2 0xA1C3 JUMP JUMPDEST PUSH2 0x5430 SWAP2 SWAP1 PUSH2 0x9FC7 JUMP JUMPDEST SWAP3 POP JUMPDEST JUMPDEST PUSH2 0x53AD JUMP JUMPDEST PUSH2 0x5443 DUP5 DUP3 PUSH2 0x9B98 JUMP JUMPDEST SWAP2 POP POP JUMPDEST SWAP3 SWAP2 POP POP JUMP JUMPDEST PUSH1 0x0 PUSH1 0x1 ISZERO ISZERO PUSH2 0x24E PUSH1 0x2 SWAP1 SLOAD SWAP1 PUSH2 0x100 EXP SWAP1 DIV PUSH1 0xFF AND ISZERO ISZERO EQ DUP1 ISZERO PUSH2 0x5487 JUMPI POP PUSH1 0x1 ISZERO ISZERO PUSH2 0x24E PUSH1 0x3 SWAP1 SLOAD SWAP1 PUSH2 0x100 EXP SWAP1 DIV PUSH1 0xFF AND ISZERO ISZERO EQ JUMPDEST DUP1 ISZERO PUSH2 0x54A7 JUMPI POP PUSH1 0x1 ISZERO ISZERO PUSH2 0x24E PUSH1 0x4 SWAP1 SLOAD SWAP1 PUSH2 0x100 EXP SWAP1 DIV PUSH1 0xFF AND ISZERO ISZERO EQ JUMPDEST DUP1 ISZERO PUSH2 0x54C7 JUMPI POP PUSH1 0x1 ISZERO ISZERO PUSH2 0x24E PUSH1 0x5 SWAP1 SLOAD SWAP1 PUSH2 0x100 EXP SWAP1 DIV PUSH1 0xFF AND ISZERO ISZERO EQ JUMPDEST PUSH2 0x5506 JUMPI PUSH1 0x40 MLOAD PUSH32 0x8C379A000000000000000000000000000000000000000000000000000000000 DUP2 MSTORE PUSH1 0x4 ADD PUSH2 0x54FD SWAP1 PUSH2 0x9EA5 JUMP JUMPDEST PUSH1 0x40 MLOAD DUP1 SWAP2 SUB SWAP1 REVERT JUMPDEST PUSH9 0x56BC75E2D63100000 DUP3 LT ISZERO DUP1 ISZERO PUSH2 0x5533 JUMPI POP PUSH9 0x56BC75E2D63100000 PUSH1 0x2 PUSH2 0x5530 SWAP2 SWAP1 PUSH2 0xA169 JUMP JUMPDEST DUP3 LT JUMPDEST PUSH2 0x5572 JUMPI PUSH1 0x40 MLOAD PUSH32 0x8C379A000000000000000000000000000000000000000000000000000000000 DUP2 MSTORE PUSH1 0x4 ADD PUSH2 0x5569 SWAP1 PUSH2 0x9F05 JUMP JUMPDEST PUSH1 0x40 MLOAD DUP1 SWAP2 SUB SWAP1 REVERT JUMPDEST PUSH1 0x0 PUSH8 0xDE0B6B3A7640000 DUP4 PUSH2 0x5588 SWAP2 SWAP1 PUSH2 0xA169 JUMP JUMPDEST SWAP1 POP PUSH1 0x0 PUSH16 0x4B3B4CA85A86C47A098A224000000000 PUSH1 0x2 PUSH2 0x55A9 SWAP2 SWAP1 PUSH2 0xA169 JUMP JUMPDEST SWAP1 POP PUSH1 0x0 PUSH16 0x4B3B4CA85A86C47A098A224000000000 DUP4 PUSH2 0x55C9 SWAP2 SWAP1 PUSH2 0xA24A JUMP JUMPDEST SWAP1 POP PUSH1 0x0 PUSH2 0x55D6 DUP3 PUSH2 0x5D79 JUMP JUMPDEST SWAP1 POP PUSH1 0x0 JUMPDEST DUP2 DUP2 LT ISZERO PUSH2 0x568F JUMPI PUSH1 0x0 DUP2 PUSH1 0xA PUSH2 0x55F2 SWAP2 SWAP1 PUSH2 0xA04B JUMP JUMPDEST PUSH1 0x1 DUP4 PUSH2 0x55FF SWAP2 SWAP1 PUSH2 0x9F71 JUMP JUMPDEST PUSH1 0xA PUSH2 0x560B SWAP2 SWAP1 PUSH2 0xA04B JUMP JUMPDEST DUP6 PUSH2 0x5616 SWAP2 SWAP1 PUSH2 0xA24A JUMP JUMPDEST PUSH2 0x5620 SWAP2 SWAP1 PUSH2 0x9FC7 JUMP JUMPDEST SWAP1 POP PUSH1 0x0 DUP2 EQ ISZERO PUSH2 0x5631 JUMPI POP PUSH2 0x567C JUMP JUMPDEST PUSH1 0x0 PUSH1 0xC8 DUP4 PUSH1 0x25 PUSH2 0x5642 SWAP2 SWAP1 PUSH2 0xA1C3 JUMP JUMPDEST PUSH1 0x27 DUP2 LT PUSH2 0x5653 JUMPI PUSH2 0x5652 PUSH2 0xA2D9 JUMP JUMPDEST JUMPDEST PUSH1 0xA MUL ADD DUP3 PUSH1 0xA DUP2 LT PUSH2 0x5669 JUMPI PUSH2 0x5668 PUSH2 0xA2D9 JUMP JUMPDEST JUMPDEST ADD SLOAD SWAP1 POP PUSH2 0x5677 DUP7 DUP3 PUSH2 0x5C35 JUMP JUMPDEST SWAP6 POP POP POP JUMPDEST DUP1 DUP1 PUSH2 0x5687 SWAP1 PUSH2 0xA201 JUMP JUMPDEST SWAP2 POP POP PUSH2 0x55DB JUMP JUMPDEST POP DUP3 SWAP5 POP POP POP POP POP SWAP2 SWAP1 POP JUMP JUMPDEST PUSH1 0x0 PUSH8 0xDE0B6B3A7640000 DUP4 LT ISZERO PUSH2 0x56E9 JUMPI PUSH1 0x40 MLOAD PUSH32 0x8C379A000000000000000000000000000000000000000000000000000000000 DUP2 MSTORE PUSH1 0x4 ADD PUSH2 0x56E0 SWAP1 PUSH2 0x9E85 JUMP JUMPDEST PUSH1 0x40 MLOAD DUP1 SWAP2 SUB SWAP1 REVERT JUMPDEST PUSH1 0x0 DUP1 PUSH2 0x56FF PUSH8 0xDE0B6B3A7640000 PUSH1 0x2 PUSH2 0x9B98 JUMP JUMPDEST SWAP1 POP JUMPDEST PUSH8 0xDE0B6B3A7640000 PUSH1 0x2 PUSH2 0x5717 SWAP2 SWAP1 PUSH2 0xA169 JUMP JUMPDEST DUP6 LT PUSH2 0x5B3F JUMPI PUSH8 0xDE0B6B3A7640000 PUSH4 0x40000000 PUSH2 0x5735 SWAP2 SWAP1 PUSH2 0xA169 JUMP JUMPDEST DUP6 LT PUSH2 0x5772 JUMPI PUSH2 0x575C DUP6 PUSH8 0xDE0B6B3A7640000 PUSH4 0x40000000 PUSH2 0x5757 SWAP2 SWAP1 PUSH2 0xA169 JUMP JUMPDEST PUSH2 0x5C8E JUMP JUMPDEST SWAP5 POP PUSH1 0x1E DUP3 PUSH2 0x576B SWAP2 SWAP1 PUSH2 0x9F71 JUMP JUMPDEST SWAP2 POP PUSH2 0x5B3A JUMP JUMPDEST PUSH8 0xDE0B6B3A7640000 PUSH3 0x100000 PUSH2 0x5789 SWAP2 SWAP1 PUSH2 0xA169 JUMP JUMPDEST DUP6 LT PUSH2 0x57C5 JUMPI PUSH2 0x57AF DUP6 PUSH8 0xDE0B6B3A7640000 PUSH3 0x100000 PUSH2 0x57AA SWAP2 SWAP1 PUSH2 0xA169 JUMP JUMPDEST PUSH2 0x5C8E JUMP JUMPDEST SWAP5 POP PUSH1 0x14 DUP3 PUSH2 0x57BE SWAP2 SWAP1 PUSH2 0x9F71 JUMP JUMPDEST SWAP2 POP PUSH2 0x5B39 JUMP JUMPDEST PUSH8 0xDE0B6B3A7640000 PUSH2 0x8000 PUSH2 0x57DB SWAP2 SWAP1 PUSH2 0xA169 JUMP JUMPDEST DUP6 LT PUSH2 0x5816 JUMPI PUSH2 0x5800 DUP6 PUSH8 0xDE0B6B3A7640000 PUSH2 0x8000 PUSH2 0x57FB SWAP2 SWAP1 PUSH2 0xA169 JUMP JUMPDEST PUSH2 0x5C8E JUMP JUMPDEST SWAP5 POP PUSH1 0xF DUP3 PUSH2 0x580F SWAP2 SWAP1 PUSH2 0x9F71 JUMP JUMPDEST SWAP2 POP PUSH2 0x5B38 JUMP JUMPDEST PUSH8 0xDE0B6B3A7640000 PUSH2 0x400 PUSH2 0x582C SWAP2 SWAP1 PUSH2 0xA169 JUMP JUMPDEST DUP6 LT PUSH2 0x5867 JUMPI PUSH2 0x5851 DUP6 PUSH8 0xDE0B6B3A7640000 PUSH2 0x400 PUSH2 0x584C SWAP2 SWAP1 PUSH2 0xA169 JUMP JUMPDEST PUSH2 0x5C8E JUMP JUMPDEST SWAP5 POP PUSH1 0xA DUP3 PUSH2 0x5860 SWAP2 SWAP1 PUSH2 0x9F71 JUMP JUMPDEST SWAP2 POP PUSH2 0x5B37 JUMP JUMPDEST PUSH8 0xDE0B6B3A7640000 PUSH2 0x200 PUSH2 0x587D SWAP2 SWAP1 PUSH2 0xA169 JUMP JUMPDEST DUP6 LT PUSH2 0x58B8 JUMPI PUSH2 0x58A2 DUP6 PUSH8 0xDE0B6B3A7640000 PUSH2 0x200 PUSH2 0x589D SWAP2 SWAP1 PUSH2 0xA169 JUMP JUMPDEST PUSH2 0x5C8E JUMP JUMPDEST SWAP5 POP PUSH1 0x9 DUP3 PUSH2 0x58B1 SWAP2 SWAP1 PUSH2 0x9F71 JUMP JUMPDEST SWAP2 POP PUSH2 0x5B36 JUMP JUMPDEST PUSH8 0xDE0B6B3A7640000 PUSH2 0x100 PUSH2 0x58CE SWAP2 SWAP1 PUSH2 0xA169 JUMP JUMPDEST DUP6 LT PUSH2 0x5909 JUMPI PUSH2 0x58F3 DUP6 PUSH8 0xDE0B6B3A7640000 PUSH2 0x100 PUSH2 0x58EE SWAP2 SWAP1 PUSH2 0xA169 JUMP JUMPDEST PUSH2 0x5C8E JUMP JUMPDEST SWAP5 POP PUSH1 0x8 DUP3 PUSH2 0x5902 SWAP2 SWAP1 PUSH2 0x9F71 JUMP JUMPDEST SWAP2 POP PUSH2 0x5B35 JUMP JUMPDEST PUSH8 0xDE0B6B3A7640000 PUSH1 0x80 PUSH2 0x591E SWAP2 SWAP1 PUSH2 0xA169 JUMP JUMPDEST DUP6 LT PUSH2 0x5958 JUMPI PUSH2 0x5942 DUP6 PUSH8 0xDE0B6B3A7640000 PUSH1 0x80 PUSH2 0x593D SWAP2 SWAP1 PUSH2 0xA169 JUMP JUMPDEST PUSH2 0x5C8E JUMP JUMPDEST SWAP5 POP PUSH1 0x7 DUP3 PUSH2 0x5951 SWAP2 SWAP1 PUSH2 0x9F71 JUMP JUMPDEST SWAP2 POP PUSH2 0x5B34 JUMP JUMPDEST PUSH8 0xDE0B6B3A7640000 PUSH1 0x40 PUSH2 0x596D SWAP2 SWAP1 PUSH2 0xA169 JUMP JUMPDEST DUP6 LT PUSH2 0x59A7 JUMPI PUSH2 0x5991 DUP6 PUSH8 0xDE0B6B3A7640000 PUSH1 0x40 PUSH2 0x598C SWAP2 SWAP1 PUSH2 0xA169 JUMP JUMPDEST PUSH2 0x5C8E JUMP JUMPDEST SWAP5 POP PUSH1 0x6 DUP3 PUSH2 0x59A0 SWAP2 SWAP1 PUSH2 0x9F71 JUMP JUMPDEST SWAP2 POP PUSH2 0x5B33 JUMP JUMPDEST PUSH8 0xDE0B6B3A7640000 PUSH1 0x20 PUSH2 0x59BC SWAP2 SWAP1 PUSH2 0xA169 JUMP JUMPDEST DUP6 LT PUSH2 0x59F6 JUMPI PUSH2 0x59E0 DUP6 PUSH8 0xDE0B6B3A7640000 PUSH1 0x20 PUSH2 0x59DB SWAP2 SWAP1 PUSH2 0xA169 JUMP JUMPDEST PUSH2 0x5C8E JUMP JUMPDEST SWAP5 POP PUSH1 0x5 DUP3 PUSH2 0x59EF SWAP2 SWAP1 PUSH2 0x9F71 JUMP JUMPDEST SWAP2 POP PUSH2 0x5B32 JUMP JUMPDEST PUSH8 0xDE0B6B3A7640000 PUSH1 0x10 PUSH2 0x5A0B SWAP2 SWAP1 PUSH2 0xA169 JUMP JUMPDEST DUP6 LT PUSH2 0x5A45 JUMPI PUSH2 0x5A2F DUP6 PUSH8 0xDE0B6B3A7640000 PUSH1 0x10 PUSH2 0x5A2A SWAP2 SWAP1 PUSH2 0xA169 JUMP JUMPDEST PUSH2 0x5C8E JUMP JUMPDEST SWAP5 POP PUSH1 0x4 DUP3 PUSH2 0x5A3E SWAP2 SWAP1 PUSH2 0x9F71 JUMP JUMPDEST SWAP2 POP PUSH2 0x5B31 JUMP JUMPDEST PUSH8 0xDE0B6B3A7640000 PUSH1 0x8 PUSH2 0x5A5A SWAP2 SWAP1 PUSH2 0xA169 JUMP JUMPDEST DUP6 LT PUSH2 0x5A94 JUMPI PUSH2 0x5A7E DUP6 PUSH8 0xDE0B6B3A7640000 PUSH1 0x8 PUSH2 0x5A79 SWAP2 SWAP1 PUSH2 0xA169 JUMP JUMPDEST PUSH2 0x5C8E JUMP JUMPDEST SWAP5 POP PUSH1 0x3 DUP3 PUSH2 0x5A8D SWAP2 SWAP1 PUSH2 0x9F71 JUMP JUMPDEST SWAP2 POP PUSH2 0x5B30 JUMP JUMPDEST PUSH8 0xDE0B6B3A7640000 PUSH1 0x4 PUSH2 0x5AA9 SWAP2 SWAP1 PUSH2 0xA169 JUMP JUMPDEST DUP6 LT PUSH2 0x5AE3 JUMPI PUSH2 0x5ACD DUP6 PUSH8 0xDE0B6B3A7640000 PUSH1 0x4 PUSH2 0x5AC8 SWAP2 SWAP1 PUSH2 0xA169 JUMP JUMPDEST PUSH2 0x5C8E JUMP JUMPDEST SWAP5 POP PUSH1 0x2 DUP3 PUSH2 0x5ADC SWAP2 SWAP1 PUSH2 0x9F71 JUMP JUMPDEST SWAP2 POP PUSH2 0x5B2F JUMP JUMPDEST PUSH8 0xDE0B6B3A7640000 PUSH1 0x2 PUSH2 0x5AF8 SWAP2 SWAP1 PUSH2 0xA169 JUMP JUMPDEST DUP6 LT PUSH2 0x5B2E JUMPI PUSH2 0x5B1C DUP6 PUSH8 0xDE0B6B3A7640000 PUSH1 0x2 PUSH2 0x5B17 SWAP2 SWAP1 PUSH2 0xA169 JUMP JUMPDEST PUSH2 0x5C8E JUMP JUMPDEST SWAP5 POP PUSH1 0x1 DUP3 PUSH2 0x5B2B SWAP2 SWAP1 PUSH2 0x9F71 JUMP JUMPDEST SWAP2 POP JUMPDEST JUMPDEST JUMPDEST JUMPDEST JUMPDEST JUMPDEST JUMPDEST JUMPDEST JUMPDEST JUMPDEST JUMPDEST JUMPDEST JUMPDEST PUSH2 0x5702 JUMP JUMPDEST PUSH1 0x0 PUSH13 0xC9F2C9CD04674EDEA40000000 DUP4 PUSH2 0x5B5A SWAP2 SWAP1 PUSH2 0xA169 JUMP JUMPDEST SWAP1 POP PUSH1 0x0 PUSH2 0x5B87 PUSH13 0x8BFADE8CEC3C65CA697CFBE72 PUSH2 0x5B82 DUP5 PUSH2 0x5B7D DUP12 DUP12 PUSH2 0x7FC4 JUMP JUMPDEST PUSH2 0x9C13 JUMP JUMPDEST PUSH2 0x5BC7 JUMP JUMPDEST SWAP1 POP PUSH2 0x5B92 DUP2 PUSH2 0x5D3F JUMP JUMPDEST SWAP5 POP POP POP POP POP SWAP3 SWAP2 POP POP JUMP JUMPDEST PUSH1 0x0 PUSH9 0x56BC75E2D63100000 DUP3 PUSH2 0x5BB5 SWAP2 SWAP1 PUSH2 0xA24A JUMP JUMPDEST DUP3 PUSH2 0x5BC0 SWAP2 SWAP1 PUSH2 0xA1C3 JUMP JUMPDEST SWAP1 POP SWAP2 SWAP1 POP JUMP JUMPDEST PUSH1 0x0 DUP1 PUSH2 0x5BD4 DUP5 DUP5 PUSH2 0x9B98 JUMP JUMPDEST SWAP1 POP PUSH13 0xC9F2C9CD04674EDEA40000000 PUSH2 0x5C07 DUP3 PUSH1 0x2 PUSH13 0xC9F2C9CD04674EDEA40000000 PUSH2 0x5C02 SWAP2 SWAP1 PUSH2 0x9FC7 JUMP JUMPDEST PUSH2 0x9C13 JUMP JUMPDEST PUSH2 0x5C11 SWAP2 SWAP1 PUSH2 0x9FC7 JUMP JUMPDEST SWAP2 POP POP SWAP3 SWAP2 POP POP JUMP JUMPDEST PUSH1 0x64 DUP2 PUSH1 0x64 DUP2 LT PUSH2 0x5C2A JUMPI PUSH1 0x0 DUP1 REVERT JUMPDEST ADD PUSH1 0x0 SWAP2 POP SWAP1 POP SLOAD DUP2 JUMP JUMPDEST PUSH1 0x0 DUP1 PUSH2 0x5C42 DUP5 DUP5 PUSH2 0x9B98 JUMP JUMPDEST SWAP1 POP PUSH16 0x4B3B4CA85A86C47A098A224000000000 PUSH2 0x5C7B DUP3 PUSH1 0x2 PUSH16 0x4B3B4CA85A86C47A098A224000000000 PUSH2 0x5C76 SWAP2 SWAP1 PUSH2 0x9FC7 JUMP JUMPDEST PUSH2 0x9C13 JUMP JUMPDEST PUSH2 0x5C85 SWAP2 SWAP1 PUSH2 0x9FC7 JUMP JUMPDEST SWAP2 POP POP SWAP3 SWAP2 POP POP JUMP JUMPDEST PUSH1 0x0 DUP1 PUSH2 0x5CA3 DUP5 PUSH8 0xDE0B6B3A7640000 PUSH2 0x9B98 JUMP JUMPDEST SWAP1 POP DUP3 PUSH2 0x5CBC DUP3 PUSH1 0x2 DUP7 PUSH2 0x5CB7 SWAP2 SWAP1 PUSH2 0x9FC7 JUMP JUMPDEST PUSH2 0x9C13 JUMP JUMPDEST PUSH2 0x5CC6 SWAP2 SWAP1 PUSH2 0x9FC7 JUMP JUMPDEST SWAP2 POP POP SWAP3 SWAP2 POP POP JUMP JUMPDEST PUSH1 0x0 DUP1 PUSH3 0x989680 PUSH4 0x5F5E100 DUP5 PUSH2 0x5CE6 SWAP2 SWAP1 PUSH2 0xA24A JUMP JUMPDEST PUSH2 0x5CF0 SWAP2 SWAP1 PUSH2 0x9FC7 JUMP JUMPDEST SWAP1 POP PUSH2 0x5CFE DUP4 DUP3 PUSH1 0x8 PUSH2 0x6E72 JUMP JUMPDEST SWAP2 POP POP SWAP2 SWAP1 POP JUMP JUMPDEST PUSH1 0x0 DUP1 PUSH4 0x3B9ACA00 PUSH5 0x2540BE400 DUP5 PUSH2 0x5D1F SWAP2 SWAP1 PUSH2 0xA24A JUMP JUMPDEST PUSH2 0x5D29 SWAP2 SWAP1 PUSH2 0x9FC7 JUMP JUMPDEST SWAP1 POP PUSH2 0x5D37 DUP4 DUP3 PUSH1 0xA PUSH2 0x6E72 JUMP JUMPDEST SWAP2 POP POP SWAP2 SWAP1 POP JUMP JUMPDEST PUSH1 0x0 DUP1 PUSH5 0x174876E800 PUSH5 0xE8D4A51000 DUP5 PUSH2 0x5D59 SWAP2 SWAP1 PUSH2 0xA24A JUMP JUMPDEST PUSH2 0x5D63 SWAP2 SWAP1 PUSH2 0x9FC7 JUMP JUMPDEST SWAP1 POP PUSH2 0x5D71 DUP4 DUP3 PUSH1 0xC PUSH2 0x6E72 JUMP JUMPDEST SWAP2 POP POP SWAP2 SWAP1 POP JUMP JUMPDEST PUSH1 0x0 DUP1 PUSH1 0x0 SWAP1 POP JUMPDEST PUSH1 0x0 DUP4 EQ PUSH2 0x5DAB JUMPI PUSH1 0xA DUP4 PUSH2 0x5D96 SWAP2 SWAP1 PUSH2 0x9FC7 JUMP JUMPDEST SWAP3 POP DUP1 DUP1 PUSH2 0x5DA3 SWAP1 PUSH2 0xA201 JUMP JUMPDEST SWAP2 POP POP PUSH2 0x5D81 JUMP JUMPDEST DUP1 SWAP2 POP POP SWAP2 SWAP1 POP JUMP JUMPDEST PUSH1 0x0 DUP1 DUP3 EQ ISZERO PUSH2 0x5DD6 JUMPI PUSH16 0x4B3B4CA85A86C47A098A224000000000 SWAP1 POP PUSH2 0x5E86 JUMP JUMPDEST PUSH1 0x0 PUSH16 0x4B3B4CA85A86C47A098A224000000000 SWAP1 POP JUMPDEST PUSH1 0x1 DUP4 GT ISZERO PUSH2 0x5E78 JUMPI PUSH1 0x0 PUSH1 0x2 DUP5 PUSH2 0x5E04 SWAP2 SWAP1 PUSH2 0xA24A JUMP JUMPDEST EQ ISZERO PUSH2 0x5E2A JUMPI PUSH2 0x5E14 DUP5 DUP6 PUSH2 0x5C35 JUMP JUMPDEST SWAP4 POP PUSH1 0x2 DUP4 PUSH2 0x5E23 SWAP2 SWAP1 PUSH2 0x9FC7 JUMP JUMPDEST SWAP3 POP PUSH2 0x5E73 JUMP JUMPDEST PUSH1 0x0 PUSH1 0x2 DUP5 PUSH2 0x5E39 SWAP2 SWAP1 PUSH2 0xA24A JUMP JUMPDEST EQ PUSH2 0x5E72 JUMPI PUSH2 0x5E48 DUP5 DUP3 PUSH2 0x5C35 JUMP JUMPDEST SWAP1 POP PUSH2 0x5E54 DUP5 DUP6 PUSH2 0x5C35 JUMP JUMPDEST SWAP4 POP PUSH1 0x2 PUSH1 0x1 DUP5 PUSH2 0x5E65 SWAP2 SWAP1 PUSH2 0xA1C3 JUMP JUMPDEST PUSH2 0x5E6F SWAP2 SWAP1 PUSH2 0x9FC7 JUMP JUMPDEST SWAP3 POP JUMPDEST JUMPDEST PUSH2 0x5DEC JUMP JUMPDEST PUSH2 0x5E82 DUP5 DUP3 PUSH2 0x5C35 JUMP JUMPDEST SWAP2 POP POP JUMPDEST SWAP3 SWAP2 POP POP JUMP JUMPDEST PUSH16 0x96769950B50D88F41314448000000000 PUSH1 0x64 PUSH1 0x0 PUSH1 0x64 DUP2 LT PUSH2 0x5EB2 JUMPI PUSH2 0x5EB1 PUSH2 0xA2D9 JUMP JUMPDEST JUMPDEST ADD DUP2 SWAP1 SSTORE POP PUSH16 0x259DA6542D43623D04C5112000000000 PUSH1 0x64 PUSH1 0x1 PUSH1 0x64 DUP2 LT PUSH2 0x5EDD JUMPI PUSH2 0x5EDC PUSH2 0xA2D9 JUMP JUMPDEST JUMPDEST ADD DUP2 SWAP1 SSTORE POP PUSH16 0x12CED32A16A1B11E8262889000000000 PUSH1 0x64 PUSH1 0x2 PUSH1 0x64 DUP2 LT PUSH2 0x5F08 JUMPI PUSH2 0x5F07 PUSH2 0xA2D9 JUMP JUMPDEST JUMPDEST ADD DUP2 SWAP1 SSTORE POP PUSH16 0x96769950B50D88F4131444800000000 PUSH1 0x64 PUSH1 0x3 PUSH1 0x64 DUP2 LT PUSH2 0x5F33 JUMPI PUSH2 0x5F32 PUSH2 0xA2D9 JUMP JUMPDEST JUMPDEST ADD DUP2 SWAP1 SSTORE POP PUSH16 0x4B3B4CA85A86C47A098A22400000000 PUSH1 0x64 PUSH1 0x4 PUSH1 0x64 DUP2 LT PUSH2 0x5F5E JUMPI PUSH2 0x5F5D PUSH2 0xA2D9 JUMP JUMPDEST JUMPDEST ADD DUP2 SWAP1 SSTORE POP PUSH16 0x259DA6542D43623D04C511200000000 PUSH1 0x64 PUSH1 0x5 PUSH1 0x64 DUP2 LT PUSH2 0x5F89 JUMPI PUSH2 0x5F88 PUSH2 0xA2D9 JUMP JUMPDEST JUMPDEST ADD DUP2 SWAP1 SSTORE POP PUSH16 0x12CED32A16A1B11E826288900000000 PUSH1 0x64 PUSH1 0x6 PUSH1 0x64 DUP2 LT PUSH2 0x5FB4 JUMPI PUSH2 0x5FB3 PUSH2 0xA2D9 JUMP JUMPDEST JUMPDEST ADD DUP2 SWAP1 SSTORE POP PUSH15 0x96769950B50D88F413144480000000 PUSH1 0x64 PUSH1 0x7 PUSH1 0x64 DUP2 LT PUSH2 0x5FDE JUMPI PUSH2 0x5FDD PUSH2 0xA2D9 JUMP JUMPDEST JUMPDEST ADD DUP2 SWAP1 SSTORE POP PUSH15 0x4B3B4CA85A86C47A098A2240000000 PUSH1 0x64 PUSH1 0x8 PUSH1 0x64 DUP2 LT PUSH2 0x6008 JUMPI PUSH2 0x6007 PUSH2 0xA2D9 JUMP JUMPDEST JUMPDEST ADD DUP2 SWAP1 SSTORE POP PUSH15 0x259DA6542D43623D04C51120000000 PUSH1 0x64 PUSH1 0x9 PUSH1 0x64 DUP2 LT PUSH2 0x6032 JUMPI PUSH2 0x6031 PUSH2 0xA2D9 JUMP JUMPDEST JUMPDEST ADD DUP2 SWAP1 SSTORE POP PUSH15 0x12CED32A16A1B11E82628890000000 PUSH1 0x64 PUSH1 0xA PUSH1 0x64 DUP2 LT PUSH2 0x605C JUMPI PUSH2 0x605B PUSH2 0xA2D9 JUMP JUMPDEST JUMPDEST ADD DUP2 SWAP1 SSTORE POP PUSH15 0x96769950B50D88F41314448000000 PUSH1 0x64 PUSH1 0xB PUSH1 0x64 DUP2 LT PUSH2 0x6086 JUMPI PUSH2 0x6085 PUSH2 0xA2D9 JUMP JUMPDEST JUMPDEST ADD DUP2 SWAP1 SSTORE POP PUSH15 0x4B3B4CA85A86C47A098A224000000 PUSH1 0x64 PUSH1 0xC PUSH1 0x64 DUP2 LT PUSH2 0x60B0 JUMPI PUSH2 0x60AF PUSH2 0xA2D9 JUMP JUMPDEST JUMPDEST ADD DUP2 SWAP1 SSTORE POP PUSH15 0x259DA6542D43623D04C5112000000 PUSH1 0x64 PUSH1 0xD PUSH1 0x64 DUP2 LT PUSH2 0x60DA JUMPI PUSH2 0x60D9 PUSH2 0xA2D9 JUMP JUMPDEST JUMPDEST ADD DUP2 SWAP1 SSTORE POP PUSH15 0x12CED32A16A1B11E8262889000000 PUSH1 0x64 PUSH1 0xE PUSH1 0x64 DUP2 LT PUSH2 0x6104 JUMPI PUSH2 0x6103 PUSH2 0xA2D9 JUMP JUMPDEST JUMPDEST ADD DUP2 SWAP1 SSTORE POP PUSH14 0x96769950B50D88F4131444800000 PUSH1 0x64 PUSH1 0xF PUSH1 0x64 DUP2 LT PUSH2 0x612D JUMPI PUSH2 0x612C PUSH2 0xA2D9 JUMP JUMPDEST JUMPDEST ADD DUP2 SWAP1 SSTORE POP PUSH14 0x4B3B4CA85A86C47A098A22400000 PUSH1 0x64 PUSH1 0x10 PUSH1 0x64 DUP2 LT PUSH2 0x6156 JUMPI PUSH2 0x6155 PUSH2 0xA2D9 JUMP JUMPDEST JUMPDEST ADD DUP2 SWAP1 SSTORE POP PUSH14 0x259DA6542D43623D04C511200000 PUSH1 0x64 PUSH1 0x11 PUSH1 0x64 DUP2 LT PUSH2 0x617F JUMPI PUSH2 0x617E PUSH2 0xA2D9 JUMP JUMPDEST JUMPDEST ADD DUP2 SWAP1 SSTORE POP PUSH14 0x12CED32A16A1B11E826288900000 PUSH1 0x64 PUSH1 0x12 PUSH1 0x64 DUP2 LT PUSH2 0x61A8 JUMPI PUSH2 0x61A7 PUSH2 0xA2D9 JUMP JUMPDEST JUMPDEST ADD DUP2 SWAP1 SSTORE POP PUSH14 0x96769950B50D88F413144480000 PUSH1 0x64 PUSH1 0x13 PUSH1 0x64 DUP2 LT PUSH2 0x61D1 JUMPI PUSH2 0x61D0 PUSH2 0xA2D9 JUMP JUMPDEST JUMPDEST ADD DUP2 SWAP1 SSTORE POP PUSH14 0x4B3B4CA85A86C47A098A2240000 PUSH1 0x64 PUSH1 0x14 PUSH1 0x64 DUP2 LT PUSH2 0x61FA JUMPI PUSH2 0x61F9 PUSH2 0xA2D9 JUMP JUMPDEST JUMPDEST ADD DUP2 SWAP1 SSTORE POP PUSH14 0x259DA6542D43623D04C51120000 PUSH1 0x64 PUSH1 0x15 PUSH1 0x64 DUP2 LT PUSH2 0x6223 JUMPI PUSH2 0x6222 PUSH2 0xA2D9 JUMP JUMPDEST JUMPDEST ADD DUP2 SWAP1 SSTORE POP PUSH14 0x12CED32A16A1B11E82628890000 PUSH1 0x64 PUSH1 0x16 PUSH1 0x64 DUP2 LT PUSH2 0x624C JUMPI PUSH2 0x624B PUSH2 0xA2D9 JUMP JUMPDEST JUMPDEST ADD DUP2 SWAP1 SSTORE POP PUSH13 0x96769950B50D88F41314448000 PUSH1 0x64 PUSH1 0x17 PUSH1 0x64 DUP2 LT PUSH2 0x6274 JUMPI PUSH2 0x6273 PUSH2 0xA2D9 JUMP JUMPDEST JUMPDEST ADD DUP2 SWAP1 SSTORE POP PUSH13 0x4B3B4CA85A86C47A098A224000 PUSH1 0x64 PUSH1 0x18 PUSH1 0x64 DUP2 LT PUSH2 0x629C JUMPI PUSH2 0x629B PUSH2 0xA2D9 JUMP JUMPDEST JUMPDEST ADD DUP2 SWAP1 SSTORE POP PUSH13 0x259DA6542D43623D04C5112000 PUSH1 0x64 PUSH1 0x19 PUSH1 0x64 DUP2 LT PUSH2 0x62C4 JUMPI PUSH2 0x62C3 PUSH2 0xA2D9 JUMP JUMPDEST JUMPDEST ADD DUP2 SWAP1 SSTORE POP PUSH13 0x12CED32A16A1B11E8262889000 PUSH1 0x64 PUSH1 0x1A PUSH1 0x64 DUP2 LT PUSH2 0x62EC JUMPI PUSH2 0x62EB PUSH2 0xA2D9 JUMP JUMPDEST JUMPDEST ADD DUP2 SWAP1 SSTORE POP PUSH13 0x96769950B50D88F4131444800 PUSH1 0x64 PUSH1 0x1B PUSH1 0x64 DUP2 LT PUSH2 0x6314 JUMPI PUSH2 0x6313 PUSH2 0xA2D9 JUMP JUMPDEST JUMPDEST ADD DUP2 SWAP1 SSTORE POP PUSH13 0x4B3B4CA85A86C47A098A22400 PUSH1 0x64 PUSH1 0x1C PUSH1 0x64 DUP2 LT PUSH2 0x633C JUMPI PUSH2 0x633B PUSH2 0xA2D9 JUMP JUMPDEST JUMPDEST ADD DUP2 SWAP1 SSTORE POP PUSH13 0x259DA6542D43623D04C511200 PUSH1 0x64 PUSH1 0x1D PUSH1 0x64 DUP2 LT PUSH2 0x6364 JUMPI PUSH2 0x6363 PUSH2 0xA2D9 JUMP JUMPDEST JUMPDEST ADD DUP2 SWAP1 SSTORE POP PUSH13 0x12CED32A16A1B11E826288900 PUSH1 0x64 PUSH1 0x1E PUSH1 0x64 DUP2 LT PUSH2 0x638C JUMPI PUSH2 0x638B PUSH2 0xA2D9 JUMP JUMPDEST JUMPDEST ADD DUP2 SWAP1 SSTORE POP PUSH12 0x96769950B50D88F413144480 PUSH1 0x64 PUSH1 0x1F PUSH1 0x64 DUP2 LT PUSH2 0x63B3 JUMPI PUSH2 0x63B2 PUSH2 0xA2D9 JUMP JUMPDEST JUMPDEST ADD DUP2 SWAP1 SSTORE POP PUSH12 0x4B3B4CA85A86C47A098A2240 PUSH1 0x64 PUSH1 0x20 PUSH1 0x64 DUP2 LT PUSH2 0x63DA JUMPI PUSH2 0x63D9 PUSH2 0xA2D9 JUMP JUMPDEST JUMPDEST ADD DUP2 SWAP1 SSTORE POP PUSH12 0x259DA6542D43623D04C51120 PUSH1 0x64 PUSH1 0x21 PUSH1 0x64 DUP2 LT PUSH2 0x6401 JUMPI PUSH2 0x6400 PUSH2 0xA2D9 JUMP JUMPDEST JUMPDEST ADD DUP2 SWAP1 SSTORE POP PUSH12 0x12CED32A16A1B11E82628890 PUSH1 0x64 PUSH1 0x22 PUSH1 0x64 DUP2 LT PUSH2 0x6428 JUMPI PUSH2 0x6427 PUSH2 0xA2D9 JUMP JUMPDEST JUMPDEST ADD DUP2 SWAP1 SSTORE POP PUSH12 0x96769950B50D88F41314448 PUSH1 0x64 PUSH1 0x23 PUSH1 0x64 DUP2 LT PUSH2 0x644F JUMPI PUSH2 0x644E PUSH2 0xA2D9 JUMP JUMPDEST JUMPDEST ADD DUP2 SWAP1 SSTORE POP PUSH12 0x4B3B4CA85A86C47A098A224 PUSH1 0x64 PUSH1 0x24 PUSH1 0x64 DUP2 LT PUSH2 0x6476 JUMPI PUSH2 0x6475 PUSH2 0xA2D9 JUMP JUMPDEST JUMPDEST ADD DUP2 SWAP1 SSTORE POP PUSH12 0x259DA6542D43623D04C5112 PUSH1 0x64 PUSH1 0x25 PUSH1 0x64 DUP2 LT PUSH2 0x649D JUMPI PUSH2 0x649C PUSH2 0xA2D9 JUMP JUMPDEST JUMPDEST ADD DUP2 SWAP1 SSTORE POP PUSH12 0x12CED32A16A1B11E8262889 PUSH1 0x64 PUSH1 0x26 PUSH1 0x64 DUP2 LT PUSH2 0x64C4 JUMPI PUSH2 0x64C3 PUSH2 0xA2D9 JUMP JUMPDEST JUMPDEST ADD DUP2 SWAP1 SSTORE POP PUSH11 0x96769950B50D88F4131444 PUSH1 0x64 PUSH1 0x27 PUSH1 0x64 DUP2 LT PUSH2 0x64EA JUMPI PUSH2 0x64E9 PUSH2 0xA2D9 JUMP JUMPDEST JUMPDEST ADD DUP2 SWAP1 SSTORE POP PUSH11 0x4B3B4CA85A86C47A098A22 PUSH1 0x64 PUSH1 0x28 PUSH1 0x64 DUP2 LT PUSH2 0x6510 JUMPI PUSH2 0x650F PUSH2 0xA2D9 JUMP JUMPDEST JUMPDEST ADD DUP2 SWAP1 SSTORE POP PUSH11 0x259DA6542D43623D04C511 PUSH1 0x64 PUSH1 0x29 PUSH1 0x64 DUP2 LT PUSH2 0x6536 JUMPI PUSH2 0x6535 PUSH2 0xA2D9 JUMP JUMPDEST JUMPDEST ADD DUP2 SWAP1 SSTORE POP PUSH11 0x12CED32A16A1B11E826288 PUSH1 0x64 PUSH1 0x2A PUSH1 0x64 DUP2 LT PUSH2 0x655C JUMPI PUSH2 0x655B PUSH2 0xA2D9 JUMP JUMPDEST JUMPDEST ADD DUP2 SWAP1 SSTORE POP PUSH11 0x96769950B50D88F413144 PUSH1 0x64 PUSH1 0x2B PUSH1 0x64 DUP2 LT PUSH2 0x6582 JUMPI PUSH2 0x6581 PUSH2 0xA2D9 JUMP JUMPDEST JUMPDEST ADD DUP2 SWAP1 SSTORE POP PUSH11 0x4B3B4CA85A86C47A098A2 PUSH1 0x64 PUSH1 0x2C PUSH1 0x64 DUP2 LT PUSH2 0x65A8 JUMPI PUSH2 0x65A7 PUSH2 0xA2D9 JUMP JUMPDEST JUMPDEST ADD DUP2 SWAP1 SSTORE POP PUSH11 0x259DA6542D43623D04C51 PUSH1 0x64 PUSH1 0x2D PUSH1 0x64 DUP2 LT PUSH2 0x65CE JUMPI PUSH2 0x65CD PUSH2 0xA2D9 JUMP JUMPDEST JUMPDEST ADD DUP2 SWAP1 SSTORE POP PUSH11 0x12CED32A16A1B11E82628 PUSH1 0x64 PUSH1 0x2E PUSH1 0x64 DUP2 LT PUSH2 0x65F4 JUMPI PUSH2 0x65F3 PUSH2 0xA2D9 JUMP JUMPDEST JUMPDEST ADD DUP2 SWAP1 SSTORE POP PUSH10 0x96769950B50D88F41314 PUSH1 0x64 PUSH1 0x2F PUSH1 0x64 DUP2 LT PUSH2 0x6619 JUMPI PUSH2 0x6618 PUSH2 0xA2D9 JUMP JUMPDEST JUMPDEST ADD DUP2 SWAP1 SSTORE POP PUSH10 0x4B3B4CA85A86C47A098A PUSH1 0x64 PUSH1 0x30 PUSH1 0x64 DUP2 LT PUSH2 0x663E JUMPI PUSH2 0x663D PUSH2 0xA2D9 JUMP JUMPDEST JUMPDEST ADD DUP2 SWAP1 SSTORE POP PUSH10 0x259DA6542D43623D04C5 PUSH1 0x64 PUSH1 0x31 PUSH1 0x64 DUP2 LT PUSH2 0x6663 JUMPI PUSH2 0x6662 PUSH2 0xA2D9 JUMP JUMPDEST JUMPDEST ADD DUP2 SWAP1 SSTORE POP PUSH10 0x12CED32A16A1B11E8262 PUSH1 0x64 PUSH1 0x32 PUSH1 0x64 DUP2 LT PUSH2 0x6688 JUMPI PUSH2 0x6687 PUSH2 0xA2D9 JUMP JUMPDEST JUMPDEST ADD DUP2 SWAP1 SSTORE POP PUSH10 0x96769950B50D88F4131 PUSH1 0x64 PUSH1 0x33 PUSH1 0x64 DUP2 LT PUSH2 0x66AD JUMPI PUSH2 0x66AC PUSH2 0xA2D9 JUMP JUMPDEST JUMPDEST ADD DUP2 SWAP1 SSTORE POP PUSH10 0x4B3B4CA85A86C47A098 PUSH1 0x64 PUSH1 0x34 PUSH1 0x64 DUP2 LT PUSH2 0x66D2 JUMPI PUSH2 0x66D1 PUSH2 0xA2D9 JUMP JUMPDEST JUMPDEST ADD DUP2 SWAP1 SSTORE POP PUSH10 0x259DA6542D43623D04C PUSH1 0x64 PUSH1 0x35 PUSH1 0x64 DUP2 LT PUSH2 0x66F7 JUMPI PUSH2 0x66F6 PUSH2 0xA2D9 JUMP JUMPDEST JUMPDEST ADD DUP2 SWAP1 SSTORE POP PUSH10 0x12CED32A16A1B11E826 PUSH1 0x64 PUSH1 0x36 PUSH1 0x64 DUP2 LT PUSH2 0x671C JUMPI PUSH2 0x671B PUSH2 0xA2D9 JUMP JUMPDEST JUMPDEST ADD DUP2 SWAP1 SSTORE POP PUSH9 0x96769950B50D88F413 PUSH1 0x64 PUSH1 0x37 PUSH1 0x64 DUP2 LT PUSH2 0x6740 JUMPI PUSH2 0x673F PUSH2 0xA2D9 JUMP JUMPDEST JUMPDEST ADD DUP2 SWAP1 SSTORE POP PUSH9 0x4B3B4CA85A86C47A09 PUSH1 0x64 PUSH1 0x38 PUSH1 0x64 DUP2 LT PUSH2 0x6764 JUMPI PUSH2 0x6763 PUSH2 0xA2D9 JUMP JUMPDEST JUMPDEST ADD DUP2 SWAP1 SSTORE POP PUSH9 0x259DA6542D43623D04 PUSH1 0x64 PUSH1 0x39 PUSH1 0x64 DUP2 LT PUSH2 0x6788 JUMPI PUSH2 0x6787 PUSH2 0xA2D9 JUMP JUMPDEST JUMPDEST ADD DUP2 SWAP1 SSTORE POP PUSH9 0x12CED32A16A1B11E82 PUSH1 0x64 PUSH1 0x3A PUSH1 0x64 DUP2 LT PUSH2 0x67AC JUMPI PUSH2 0x67AB PUSH2 0xA2D9 JUMP JUMPDEST JUMPDEST ADD DUP2 SWAP1 SSTORE POP PUSH9 0x96769950B50D88F41 PUSH1 0x64 PUSH1 0x3B PUSH1 0x64 DUP2 LT PUSH2 0x67D0 JUMPI PUSH2 0x67CF PUSH2 0xA2D9 JUMP JUMPDEST JUMPDEST ADD DUP2 SWAP1 SSTORE POP PUSH9 0x4B3B4CA85A86C47A0 PUSH1 0x64 PUSH1 0x3C PUSH1 0x64 DUP2 LT PUSH2 0x67F4 JUMPI PUSH2 0x67F3 PUSH2 0xA2D9 JUMP JUMPDEST JUMPDEST ADD DUP2 SWAP1 SSTORE POP PUSH9 0x259DA6542D43623D0 PUSH1 0x64 PUSH1 0x3D PUSH1 0x64 DUP2 LT PUSH2 0x6818 JUMPI PUSH2 0x6817 PUSH2 0xA2D9 JUMP JUMPDEST JUMPDEST ADD DUP2 SWAP1 SSTORE POP PUSH9 0x12CED32A16A1B11E8 PUSH1 0x64 PUSH1 0x3E PUSH1 0x64 DUP2 LT PUSH2 0x683C JUMPI PUSH2 0x683B PUSH2 0xA2D9 JUMP JUMPDEST JUMPDEST ADD DUP2 SWAP1 SSTORE POP PUSH8 0x96769950B50D88F4 PUSH1 0x64 PUSH1 0x3F PUSH1 0x64 DUP2 LT PUSH2 0x685F JUMPI PUSH2 0x685E PUSH2 0xA2D9 JUMP JUMPDEST JUMPDEST ADD DUP2 SWAP1 SSTORE POP PUSH8 0x4B3B4CA85A86C47A PUSH1 0x64 PUSH1 0x40 PUSH1 0x64 DUP2 LT PUSH2 0x6882 JUMPI PUSH2 0x6881 PUSH2 0xA2D9 JUMP JUMPDEST JUMPDEST ADD DUP2 SWAP1 SSTORE POP PUSH8 0x259DA6542D43623D PUSH1 0x64 PUSH1 0x41 PUSH1 0x64 DUP2 LT PUSH2 0x68A5 JUMPI PUSH2 0x68A4 PUSH2 0xA2D9 JUMP JUMPDEST JUMPDEST ADD DUP2 SWAP1 SSTORE POP PUSH8 0x12CED32A16A1B11E PUSH1 0x64 PUSH1 0x42 PUSH1 0x64 DUP2 LT PUSH2 0x68C8 JUMPI PUSH2 0x68C7 PUSH2 0xA2D9 JUMP JUMPDEST JUMPDEST ADD DUP2 SWAP1 SSTORE POP PUSH8 0x96769950B50D88F PUSH1 0x64 PUSH1 0x43 PUSH1 0x64 DUP2 LT PUSH2 0x68EB JUMPI PUSH2 0x68EA PUSH2 0xA2D9 JUMP JUMPDEST JUMPDEST ADD DUP2 SWAP1 SSTORE POP PUSH8 0x4B3B4CA85A86C47 PUSH1 0x64 PUSH1 0x44 PUSH1 0x64 DUP2 LT PUSH2 0x690E JUMPI PUSH2 0x690D PUSH2 0xA2D9 JUMP JUMPDEST JUMPDEST ADD DUP2 SWAP1 SSTORE POP PUSH8 0x259DA6542D43623 PUSH1 0x64 PUSH1 0x45 PUSH1 0x64 DUP2 LT PUSH2 0x6931 JUMPI PUSH2 0x6930 PUSH2 0xA2D9 JUMP JUMPDEST JUMPDEST ADD DUP2 SWAP1 SSTORE POP PUSH8 0x12CED32A16A1B11 PUSH1 0x64 PUSH1 0x46 PUSH1 0x64 DUP2 LT PUSH2 0x6954 JUMPI PUSH2 0x6953 PUSH2 0xA2D9 JUMP JUMPDEST JUMPDEST ADD DUP2 SWAP1 SSTORE POP PUSH7 0x96769950B50D88 PUSH1 0x64 PUSH1 0x47 PUSH1 0x64 DUP2 LT PUSH2 0x6976 JUMPI PUSH2 0x6975 PUSH2 0xA2D9 JUMP JUMPDEST JUMPDEST ADD DUP2 SWAP1 SSTORE POP PUSH7 0x4B3B4CA85A86C4 PUSH1 0x64 PUSH1 0x48 PUSH1 0x64 DUP2 LT PUSH2 0x6998 JUMPI PUSH2 0x6997 PUSH2 0xA2D9 JUMP JUMPDEST JUMPDEST ADD DUP2 SWAP1 SSTORE POP PUSH7 0x259DA6542D4362 PUSH1 0x64 PUSH1 0x49 PUSH1 0x64 DUP2 LT PUSH2 0x69BA JUMPI PUSH2 0x69B9 PUSH2 0xA2D9 JUMP JUMPDEST JUMPDEST ADD DUP2 SWAP1 SSTORE POP PUSH7 0x12CED32A16A1B1 PUSH1 0x64 PUSH1 0x4A PUSH1 0x64 DUP2 LT PUSH2 0x69DC JUMPI PUSH2 0x69DB PUSH2 0xA2D9 JUMP JUMPDEST JUMPDEST ADD DUP2 SWAP1 SSTORE POP PUSH7 0x96769950B50D8 PUSH1 0x64 PUSH1 0x4B PUSH1 0x64 DUP2 LT PUSH2 0x69FE JUMPI PUSH2 0x69FD PUSH2 0xA2D9 JUMP JUMPDEST JUMPDEST ADD DUP2 SWAP1 SSTORE POP PUSH7 0x4B3B4CA85A86C PUSH1 0x64 PUSH1 0x4C PUSH1 0x64 DUP2 LT PUSH2 0x6A20 JUMPI PUSH2 0x6A1F PUSH2 0xA2D9 JUMP JUMPDEST JUMPDEST ADD DUP2 SWAP1 SSTORE POP PUSH7 0x259DA6542D436 PUSH1 0x64 PUSH1 0x4D PUSH1 0x64 DUP2 LT PUSH2 0x6A42 JUMPI PUSH2 0x6A41 PUSH2 0xA2D9 JUMP JUMPDEST JUMPDEST ADD DUP2 SWAP1 SSTORE POP PUSH7 0x12CED32A16A1B PUSH1 0x64 PUSH1 0x4E PUSH1 0x64 DUP2 LT PUSH2 0x6A64 JUMPI PUSH2 0x6A63 PUSH2 0xA2D9 JUMP JUMPDEST JUMPDEST ADD DUP2 SWAP1 SSTORE POP PUSH6 0x96769950B50D PUSH1 0x64 PUSH1 0x4F PUSH1 0x64 DUP2 LT PUSH2 0x6A85 JUMPI PUSH2 0x6A84 PUSH2 0xA2D9 JUMP JUMPDEST JUMPDEST ADD DUP2 SWAP1 SSTORE POP PUSH6 0x4B3B4CA85A86 PUSH1 0x64 PUSH1 0x50 PUSH1 0x64 DUP2 LT PUSH2 0x6AA6 JUMPI PUSH2 0x6AA5 PUSH2 0xA2D9 JUMP JUMPDEST JUMPDEST ADD DUP2 SWAP1 SSTORE POP PUSH6 0x259DA6542D43 PUSH1 0x64 PUSH1 0x51 PUSH1 0x64 DUP2 LT PUSH2 0x6AC7 JUMPI PUSH2 0x6AC6 PUSH2 0xA2D9 JUMP JUMPDEST JUMPDEST ADD DUP2 SWAP1 SSTORE POP PUSH6 0x12CED32A16A1 PUSH1 0x64 PUSH1 0x52 PUSH1 0x64 DUP2 LT PUSH2 0x6AE8 JUMPI PUSH2 0x6AE7 PUSH2 0xA2D9 JUMP JUMPDEST JUMPDEST ADD DUP2 SWAP1 SSTORE POP PUSH6 0x96769950B50 PUSH1 0x64 PUSH1 0x53 PUSH1 0x64 DUP2 LT PUSH2 0x6B09 JUMPI PUSH2 0x6B08 PUSH2 0xA2D9 JUMP JUMPDEST JUMPDEST ADD DUP2 SWAP1 SSTORE POP PUSH6 0x4B3B4CA85A8 PUSH1 0x64 PUSH1 0x54 PUSH1 0x64 DUP2 LT PUSH2 0x6B2A JUMPI PUSH2 0x6B29 PUSH2 0xA2D9 JUMP JUMPDEST JUMPDEST ADD DUP2 SWAP1 SSTORE POP PUSH6 0x259DA6542D4 PUSH1 0x64 PUSH1 0x55 PUSH1 0x64 DUP2 LT PUSH2 0x6B4B JUMPI PUSH2 0x6B4A PUSH2 0xA2D9 JUMP JUMPDEST JUMPDEST ADD DUP2 SWAP1 SSTORE POP PUSH6 0x12CED32A16A PUSH1 0x64 PUSH1 0x56 PUSH1 0x64 DUP2 LT PUSH2 0x6B6C JUMPI PUSH2 0x6B6B PUSH2 0xA2D9 JUMP JUMPDEST JUMPDEST ADD DUP2 SWAP1 SSTORE POP PUSH5 0x96769950B5 PUSH1 0x64 PUSH1 0x57 PUSH1 0x64 DUP2 LT PUSH2 0x6B8C JUMPI PUSH2 0x6B8B PUSH2 0xA2D9 JUMP JUMPDEST JUMPDEST ADD DUP2 SWAP1 SSTORE POP PUSH5 0x4B3B4CA85A PUSH1 0x64 PUSH1 0x58 PUSH1 0x64 DUP2 LT PUSH2 0x6BAC JUMPI PUSH2 0x6BAB PUSH2 0xA2D9 JUMP JUMPDEST JUMPDEST ADD DUP2 SWAP1 SSTORE POP PUSH5 0x259DA6542D PUSH1 0x64 PUSH1 0x59 PUSH1 0x64 DUP2 LT PUSH2 0x6BCC JUMPI PUSH2 0x6BCB PUSH2 0xA2D9 JUMP JUMPDEST JUMPDEST ADD DUP2 SWAP1 SSTORE POP PUSH5 0x12CED32A16 PUSH1 0x64 PUSH1 0x5A PUSH1 0x64 DUP2 LT PUSH2 0x6BEC JUMPI PUSH2 0x6BEB PUSH2 0xA2D9 JUMP JUMPDEST JUMPDEST ADD DUP2 SWAP1 SSTORE POP PUSH5 0x96769950B PUSH1 0x64 PUSH1 0x5B PUSH1 0x64 DUP2 LT PUSH2 0x6C0C JUMPI PUSH2 0x6C0B PUSH2 0xA2D9 JUMP JUMPDEST JUMPDEST ADD DUP2 SWAP1 SSTORE POP PUSH5 0x4B3B4CA85 PUSH1 0x64 PUSH1 0x5C PUSH1 0x64 DUP2 LT PUSH2 0x6C2C JUMPI PUSH2 0x6C2B PUSH2 0xA2D9 JUMP JUMPDEST JUMPDEST ADD DUP2 SWAP1 SSTORE POP PUSH5 0x259DA6542 PUSH1 0x64 PUSH1 0x5D PUSH1 0x64 DUP2 LT PUSH2 0x6C4C JUMPI PUSH2 0x6C4B PUSH2 0xA2D9 JUMP JUMPDEST JUMPDEST ADD DUP2 SWAP1 SSTORE POP PUSH5 0x12CED32A1 PUSH1 0x64 PUSH1 0x5E PUSH1 0x64 DUP2 LT PUSH2 0x6C6C JUMPI PUSH2 0x6C6B PUSH2 0xA2D9 JUMP JUMPDEST JUMPDEST ADD DUP2 SWAP1 SSTORE POP PUSH4 0x96769950 PUSH1 0x64 PUSH1 0x5F PUSH1 0x64 DUP2 LT PUSH2 0x6C8B JUMPI PUSH2 0x6C8A PUSH2 0xA2D9 JUMP JUMPDEST JUMPDEST ADD DUP2 SWAP1 SSTORE POP PUSH4 0x4B3B4CA8 PUSH1 0x64 PUSH1 0x60 PUSH1 0x64 DUP2 LT PUSH2 0x6CAA JUMPI PUSH2 0x6CA9 PUSH2 0xA2D9 JUMP JUMPDEST JUMPDEST ADD DUP2 SWAP1 SSTORE POP PUSH4 0x259DA654 PUSH1 0x64 PUSH1 0x61 PUSH1 0x64 DUP2 LT PUSH2 0x6CC9 JUMPI PUSH2 0x6CC8 PUSH2 0xA2D9 JUMP JUMPDEST JUMPDEST ADD DUP2 SWAP1 SSTORE POP PUSH4 0x12CED32A PUSH1 0x64 PUSH1 0x62 PUSH1 0x64 DUP2 LT PUSH2 0x6CE8 JUMPI PUSH2 0x6CE7 PUSH2 0xA2D9 JUMP JUMPDEST JUMPDEST ADD DUP2 SWAP1 SSTORE POP PUSH4 0x9676995 PUSH1 0x64 PUSH1 0x63 PUSH1 0x64 DUP2 LT PUSH2 0x6D07 JUMPI PUSH2 0x6D06 PUSH2 0xA2D9 JUMP JUMPDEST JUMPDEST ADD DUP2 SWAP1 SSTORE POP PUSH1 0x1 PUSH2 0x24E PUSH1 0x1 PUSH2 0x100 EXP DUP2 SLOAD DUP2 PUSH1 0xFF MUL NOT AND SWAP1 DUP4 ISZERO ISZERO MUL OR SWAP1 SSTORE POP JUMP JUMPDEST PUSH1 0xC8 DUP3 PUSH1 0x27 DUP2 LT PUSH2 0x6D3A JUMPI PUSH1 0x0 DUP1 REVERT JUMPDEST PUSH1 0xA MUL ADD DUP2 PUSH1 0xA DUP2 LT PUSH2 0x6D4C JUMPI PUSH1 0x0 DUP1 REVERT JUMPDEST ADD PUSH1 0x0 SWAP2 POP SWAP2 POP POP SLOAD DUP2 JUMP JUMPDEST PUSH1 0x0 DUP1 PUSH1 0x0 DUP1 PUSH2 0x6D6D DUP6 PUSH5 0xE8D4A51000 PUSH2 0x9B98 JUMP JUMPDEST SWAP5 POP PUSH2 0x6D86 PUSH13 0x1235995E1E4B3C4C2E092EB92A DUP7 PUSH2 0x5BC7 JUMP JUMPDEST SWAP5 POP PUSH2 0x6D91 DUP6 PUSH2 0x5D06 JUMP JUMPDEST SWAP5 POP PUSH9 0x56BC75E2D63100000 DUP6 LT DUP1 ISZERO PUSH2 0x6DAC JUMPI POP PUSH1 0x0 DUP6 LT ISZERO JUMPDEST ISZERO PUSH2 0x6DFE JUMPI PUSH2 0x6DC4 PUSH9 0x56BC75E2D63100000 DUP7 PUSH2 0x9C13 JUMP JUMPDEST SWAP2 POP PUSH1 0x2 PUSH16 0x4B3B4CA85A86C47A098A224000000000 PUSH2 0x6DE3 SWAP2 SWAP1 PUSH2 0x9FC7 JUMP JUMPDEST SWAP1 POP PUSH2 0x6DF7 DUP2 PUSH2 0x6DF2 DUP5 PUSH2 0x544D JUMP JUMPDEST PUSH2 0x5C35 JUMP JUMPDEST SWAP4 POP PUSH2 0x6E5F JUMP JUMPDEST PUSH9 0x56BC75E2D63100000 PUSH2 0x6E11 DUP7 PUSH2 0x5B9E JUMP JUMPDEST PUSH2 0x6E1B SWAP2 SWAP1 PUSH2 0xA1C3 JUMP JUMPDEST SWAP3 POP DUP3 DUP6 PUSH2 0x6E29 SWAP2 SWAP1 PUSH2 0xA1C3 JUMP JUMPDEST SWAP2 POP PUSH2 0x6E48 PUSH1 0x2 PUSH2 0x6E43 DUP6 PUSH9 0x56BC75E2D63100000 PUSH2 0x9C71 JUMP JUMPDEST PUSH2 0x5393 JUMP JUMPDEST SWAP1 POP PUSH2 0x6E5C DUP2 PUSH2 0x6E57 DUP5 PUSH2 0x544D JUMP JUMPDEST PUSH2 0x9B98 JUMP JUMPDEST SWAP4 POP JUMPDEST PUSH2 0x6E68 DUP5 PUSH2 0x2350 JUMP JUMPDEST SWAP4 POP POP POP POP SWAP2 SWAP1 POP JUMP JUMPDEST PUSH1 0x0 PUSH1 0x5 DUP4 LT ISZERO PUSH2 0x6E9A JUMPI PUSH2 0x6E93 DUP5 DUP4 PUSH1 0xA PUSH2 0x6E8E SWAP2 SWAP1 PUSH2 0xA04B JUMP JUMPDEST PUSH2 0x9C71 JUMP JUMPDEST SWAP1 POP PUSH2 0x6EC8 JUMP JUMPDEST PUSH1 0x5 DUP4 LT PUSH2 0x6EC7 JUMPI PUSH1 0x1 PUSH2 0x6EBA DUP6 DUP5 PUSH1 0xA PUSH2 0x6EB5 SWAP2 SWAP1 PUSH2 0xA04B JUMP JUMPDEST PUSH2 0x9C71 JUMP JUMPDEST PUSH2 0x6EC4 SWAP2 SWAP1 PUSH2 0x9F71 JUMP JUMPDEST SWAP1 POP JUMPDEST JUMPDEST SWAP4 SWAP3 POP POP POP JUMP JUMPDEST PUSH1 0x0 DUP2 PUSH1 0x64 DUP2 LT PUSH2 0x6EDF JUMPI PUSH1 0x0 DUP1 REVERT JUMPDEST ADD PUSH1 0x0 SWAP2 POP SWAP1 POP SLOAD DUP2 JUMP JUMPDEST PUSH1 0x0 DUP1 PUSH1 0x0 PUSH1 0x64 DUP2 LT PUSH2 0x6F00 JUMPI PUSH2 0x6EFF PUSH2 0xA2D9 JUMP JUMPDEST JUMPDEST ADD DUP2 SWAP1 SSTORE POP PUSH16 0x35326198CAA4CF0398DD2DF4A401FFF8 PUSH1 0x0 PUSH1 0x1 PUSH1 0x64 DUP2 LT PUSH2 0x6F2B JUMPI PUSH2 0x6F2A PUSH2 0xA2D9 JUMP JUMPDEST JUMPDEST ADD DUP2 SWAP1 SSTORE POP PUSH16 0x3F43136BBC1145A3D84CCD8FDE805060 PUSH1 0x0 PUSH1 0x2 PUSH1 0x64 DUP2 LT PUSH2 0x6F56 JUMPI PUSH2 0x6F55 PUSH2 0xA2D9 JUMP JUMPDEST JUMPDEST ADD DUP2 SWAP1 SSTORE POP PUSH16 0x44FCDAFF61CC4CEAE78AF7ACFC2DCB34 PUSH1 0x0 PUSH1 0x3 PUSH1 0x64 DUP2 LT PUSH2 0x6F81 JUMPI PUSH2 0x6F80 PUSH2 0xA2D9 JUMP JUMPDEST JUMPDEST ADD DUP2 SWAP1 SSTORE POP PUSH16 0x480AC4B15DFF81588C37988631ACC649 PUSH1 0x0 PUSH1 0x4 PUSH1 0x64 DUP2 LT PUSH2 0x6FAC JUMPI PUSH2 0x6FAB PUSH2 0xA2D9 JUMP JUMPDEST JUMPDEST ADD DUP2 SWAP1 SSTORE POP PUSH16 0x499E9CC45B22529D4B6ABAA6C727FA20 PUSH1 0x0 PUSH1 0x5 PUSH1 0x64 DUP2 LT PUSH2 0x6FD7 JUMPI PUSH2 0x6FD6 PUSH2 0xA2D9 JUMP JUMPDEST JUMPDEST ADD DUP2 SWAP1 SSTORE POP PUSH16 0x4A6BD6A98878B7E749BCA36139D8D439 PUSH1 0x0 PUSH1 0x6 PUSH1 0x64 DUP2 LT PUSH2 0x7002 JUMPI PUSH2 0x7001 PUSH2 0xA2D9 JUMP JUMPDEST JUMPDEST ADD DUP2 SWAP1 SSTORE POP PUSH16 0x4AD349C2776FFCA447FAC2991089D496 PUSH1 0x0 PUSH1 0x7 PUSH1 0x64 DUP2 LT PUSH2 0x702D JUMPI PUSH2 0x702C PUSH2 0xA2D9 JUMP JUMPDEST JUMPDEST ADD DUP2 SWAP1 SSTORE POP PUSH16 0x4B07392F52B5C840E2F500A685315E10 PUSH1 0x0 PUSH1 0x8 PUSH1 0x64 DUP2 LT PUSH2 0x7058 JUMPI PUSH2 0x7057 PUSH2 0xA2D9 JUMP JUMPDEST JUMPDEST ADD DUP2 SWAP1 SSTORE POP PUSH16 0x4B213E68C12287618B38444741649366 PUSH1 0x0 PUSH1 0x9 PUSH1 0x64 DUP2 LT PUSH2 0x7083 JUMPI PUSH2 0x7082 PUSH2 0xA2D9 JUMP JUMPDEST JUMPDEST ADD DUP2 SWAP1 SSTORE POP PUSH16 0x4B2E4467966940F3E15F711B485E0C54 PUSH1 0x0 PUSH1 0xA PUSH1 0x64 DUP2 LT PUSH2 0x70AE JUMPI PUSH2 0x70AD PUSH2 0xA2D9 JUMP JUMPDEST JUMPDEST ADD DUP2 SWAP1 SSTORE POP PUSH16 0x4B34C83FB45AA7F02968D3F10C7BF179 PUSH1 0x0 PUSH1 0xB PUSH1 0x64 DUP2 LT PUSH2 0x70D9 JUMPI PUSH2 0x70D8 PUSH2 0xA2D9 JUMP JUMPDEST JUMPDEST ADD DUP2 SWAP1 SSTORE POP PUSH16 0x4B380A61F5A1002253DD42289D3F4EAC PUSH1 0x0 PUSH1 0xC PUSH1 0x64 DUP2 LT PUSH2 0x7104 JUMPI PUSH2 0x7103 PUSH2 0xA2D9 JUMP JUMPDEST JUMPDEST ADD DUP2 SWAP1 SSTORE POP PUSH16 0x4B39AB80A386E7EA4AA8BEFBC274A593 PUSH1 0x0 PUSH1 0xD PUSH1 0x64 DUP2 LT PUSH2 0x712F JUMPI PUSH2 0x712E PUSH2 0xA2D9 JUMP JUMPDEST JUMPDEST ADD DUP2 SWAP1 SSTORE POP PUSH16 0x4B3A7C135DE075EE193ECE3E8EC0DE14 PUSH1 0x0 PUSH1 0xE PUSH1 0x64 DUP2 LT PUSH2 0x715A JUMPI PUSH2 0x7159 PUSH2 0xA2D9 JUMP JUMPDEST JUMPDEST ADD DUP2 SWAP1 SSTORE POP PUSH16 0x4B3AE45D93E9A0ECB716A961237770F6 PUSH1 0x0 PUSH1 0xF PUSH1 0x64 DUP2 LT PUSH2 0x7185 JUMPI PUSH2 0x7184 PUSH2 0xA2D9 JUMP JUMPDEST JUMPDEST ADD DUP2 SWAP1 SSTORE POP PUSH16 0x4B3B1882E525A71AAFC82B1E629FD4F6 PUSH1 0x0 PUSH1 0x10 PUSH1 0x64 DUP2 LT PUSH2 0x71B0 JUMPI PUSH2 0x71AF PUSH2 0xA2D9 JUMP JUMPDEST JUMPDEST ADD DUP2 SWAP1 SSTORE POP PUSH16 0x4B3B32959B519153545560036C6F85A7 PUSH1 0x0 PUSH1 0x11 PUSH1 0x64 DUP2 LT PUSH2 0x71DB JUMPI PUSH2 0x71DA PUSH2 0xA2D9 JUMP JUMPDEST JUMPDEST ADD DUP2 SWAP1 SSTORE POP PUSH16 0x4B3B3F9EF9CB0196D145667CF95B8891 PUSH1 0x0 PUSH1 0x12 PUSH1 0x64 DUP2 LT PUSH2 0x7206 JUMPI PUSH2 0x7205 PUSH2 0xA2D9 JUMP JUMPDEST JUMPDEST ADD DUP2 SWAP1 SSTORE POP PUSH16 0x4B3B4623A9E098AE32898D7636882912 PUSH1 0x0 PUSH1 0x13 PUSH1 0x64 DUP2 LT PUSH2 0x7231 JUMPI PUSH2 0x7230 PUSH2 0xA2D9 JUMP JUMPDEST JUMPDEST ADD DUP2 SWAP1 SSTORE POP PUSH16 0x4B3B496602219BFCC6E3C6E7270BAB63 PUSH1 0x0 PUSH1 0x14 PUSH1 0x64 DUP2 LT PUSH2 0x725C JUMPI PUSH2 0x725B PUSH2 0xA2D9 JUMP JUMPDEST JUMPDEST ADD DUP2 SWAP1 SSTORE POP PUSH16 0x4B3B4B072E4FAB95795F9EFC3A14FB8D PUSH1 0x0 PUSH1 0x15 PUSH1 0x64 DUP2 LT PUSH2 0x7287 JUMPI PUSH2 0x7286 PUSH2 0xA2D9 JUMP JUMPDEST JUMPDEST ADD DUP2 SWAP1 SSTORE POP PUSH16 0x4B3B4BD7C46A16DE429D50FDC920A2E5 PUSH1 0x0 PUSH1 0x16 PUSH1 0x64 DUP2 LT PUSH2 0x72B2 JUMPI PUSH2 0x72B1 PUSH2 0xA2D9 JUMP JUMPDEST JUMPDEST ADD DUP2 SWAP1 SSTORE POP PUSH16 0x4B3B4C400F782561C5F99E6E8CC40D76 PUSH1 0x0 PUSH1 0x17 PUSH1 0x64 DUP2 LT PUSH2 0x72DD JUMPI PUSH2 0x72DC PUSH2 0xA2D9 JUMP JUMPDEST JUMPDEST ADD DUP2 SWAP1 SSTORE POP PUSH16 0x4B3B4C7434FF62DB4FAED2A218E2BA68 PUSH1 0x0 PUSH1 0x18 PUSH1 0x64 DUP2 LT PUSH2 0x7308 JUMPI PUSH2 0x7307 PUSH2 0xA2D9 JUMP JUMPDEST JUMPDEST ADD DUP2 SWAP1 SSTORE POP PUSH16 0x4B3B4C8E47C30F26069626269D2CE299 PUSH1 0x0 PUSH1 0x19 PUSH1 0x64 DUP2 LT PUSH2 0x7333 JUMPI PUSH2 0x7332 PUSH2 0xA2D9 JUMP JUMPDEST JUMPDEST ADD DUP2 SWAP1 SSTORE POP PUSH16 0x4B3B4C9B5124E8AEDE8E5D050E398BB3 PUSH1 0x0 PUSH1 0x1A PUSH1 0x64 DUP2 LT PUSH2 0x735E JUMPI PUSH2 0x735D PUSH2 0xA2D9 JUMP JUMPDEST JUMPDEST ADD DUP2 SWAP1 SSTORE POP PUSH16 0x4B3B4CA1D5D5D64C29ABC79382732075 PUSH1 0x0 PUSH1 0x1B PUSH1 0x64 DUP2 LT PUSH2 0x7389 JUMPI PUSH2 0x7388 PUSH2 0xA2D9 JUMP JUMPDEST JUMPDEST ADD DUP2 SWAP1 SSTORE POP PUSH16 0x4B3B4CA5182E4D510702D61D917CCA2F PUSH1 0x0 PUSH1 0x1C PUSH1 0x64 DUP2 LT PUSH2 0x73B4 JUMPI PUSH2 0x73B3 PUSH2 0xA2D9 JUMP JUMPDEST JUMPDEST ADD DUP2 SWAP1 SSTORE POP PUSH16 0x4B3B4CA6B95A88E103A07462AEFCE70C PUSH1 0x0 PUSH1 0x1D PUSH1 0x64 DUP2 LT PUSH2 0x73DF JUMPI PUSH2 0x73DE PUSH2 0xA2D9 JUMP JUMPDEST JUMPDEST ADD DUP2 SWAP1 SSTORE POP PUSH16 0x4B3B4CA789F0A6AC656BC95B2F53CA62 PUSH1 0x0 PUSH1 0x1E PUSH1 0x64 DUP2 LT PUSH2 0x740A JUMPI PUSH2 0x7409 PUSH2 0xA2D9 JUMP JUMPDEST JUMPDEST ADD DUP2 SWAP1 SSTORE POP PUSH16 0x4B3B4CA7F23BB592EF30954FA967F1B3 PUSH1 0x0 PUSH1 0x1F PUSH1 0x64 DUP2 LT PUSH2 0x7435 JUMPI PUSH2 0x7434 PUSH2 0xA2D9 JUMP JUMPDEST JUMPDEST ADD DUP2 SWAP1 SSTORE POP PUSH16 0x4B3B4CA826613D066A4AC3A84C9C92D4 PUSH1 0x0 PUSH1 0x20 PUSH1 0x64 DUP2 LT PUSH2 0x7460 JUMPI PUSH2 0x745F PUSH2 0xA2D9 JUMP JUMPDEST JUMPDEST ADD DUP2 SWAP1 SSTORE POP PUSH16 0x4B3B4CA8407400C03565CCEC42B792C3 PUSH1 0x0 PUSH1 0x21 PUSH1 0x64 DUP2 LT PUSH2 0x748B JUMPI PUSH2 0x748A PUSH2 0xA2D9 JUMP JUMPDEST JUMPDEST ADD DUP2 SWAP1 SSTORE POP PUSH16 0x4B3B4CA84D7D629D1E56CE1428440013 PUSH1 0x0 PUSH1 0x22 PUSH1 0x64 DUP2 LT PUSH2 0x74B6 JUMPI PUSH2 0x74B5 PUSH2 0xA2D9 JUMP JUMPDEST JUMPDEST ADD DUP2 SWAP1 SSTORE POP PUSH16 0x4B3B4CA85402138B93A82DC995D5CA42 PUSH1 0x0 PUSH1 0x23 PUSH1 0x64 DUP2 LT PUSH2 0x74E1 JUMPI PUSH2 0x74E0 PUSH2 0xA2D9 JUMP JUMPDEST JUMPDEST ADD DUP2 SWAP1 SSTORE POP PUSH16 0x4B3B4CA857446C02CE87156CAB570F40 PUSH1 0x0 PUSH1 0x24 PUSH1 0x64 DUP2 LT PUSH2 0x750C JUMPI PUSH2 0x750B PUSH2 0xA2D9 JUMP JUMPDEST JUMPDEST ADD DUP2 SWAP1 SSTORE POP PUSH16 0x4B3B4CA858E5983E6C0417304DC6791A PUSH1 0x0 PUSH1 0x25 PUSH1 0x64 DUP2 LT PUSH2 0x7537 JUMPI PUSH2 0x7536 PUSH2 0xA2D9 JUMP JUMPDEST JUMPDEST ADD DUP2 SWAP1 SSTORE POP PUSH16 0x4B3B4CA859B62E5C3AC5FB8EA4E9F5CA PUSH1 0x0 PUSH1 0x26 PUSH1 0x64 DUP2 LT PUSH2 0x7562 JUMPI PUSH2 0x7561 PUSH2 0xA2D9 JUMP JUMPDEST JUMPDEST ADD DUP2 SWAP1 SSTORE POP PUSH16 0x4B3B4CA85A1E796B2227C69CF1F6A8D0 PUSH1 0x0 PUSH1 0x27 PUSH1 0x64 DUP2 LT PUSH2 0x758D JUMPI PUSH2 0x758C PUSH2 0xA2D9 JUMP JUMPDEST JUMPDEST ADD DUP2 SWAP1 SSTORE POP PUSH16 0x4B3B4CA85A529EF295D8E25BE0DBBFD6 PUSH1 0x0 PUSH1 0x28 PUSH1 0x64 DUP2 LT PUSH2 0x75B8 JUMPI PUSH2 0x75B7 PUSH2 0xA2D9 JUMP JUMPDEST JUMPDEST ADD DUP2 SWAP1 SSTORE POP PUSH16 0x4B3B4CA85A6CB1B64FB17DC94A65FAC5 PUSH1 0x0 PUSH1 0x29 PUSH1 0x64 DUP2 LT PUSH2 0x75E3 JUMPI PUSH2 0x75E2 PUSH2 0xA2D9 JUMP JUMPDEST JUMPDEST ADD DUP2 SWAP1 SSTORE POP PUSH16 0x4B3B4CA85A79BB182C9DCEE37BB10419 PUSH1 0x0 PUSH1 0x2A PUSH1 0x64 DUP2 LT PUSH2 0x760E JUMPI PUSH2 0x760D PUSH2 0xA2D9 JUMP JUMPDEST JUMPDEST ADD DUP2 SWAP1 SSTORE POP PUSH16 0x4B3B4CA85A803FC91B13F849737803BA PUSH1 0x0 PUSH1 0x2B PUSH1 0x64 DUP2 LT PUSH2 0x7639 JUMPI PUSH2 0x7638 PUSH2 0xA2D9 JUMP JUMPDEST JUMPDEST ADD DUP2 SWAP1 SSTORE POP PUSH16 0x4B3B4CA85A838221924F0D32A723E248 PUSH1 0x0 PUSH1 0x2C PUSH1 0x64 DUP2 LT PUSH2 0x7664 JUMPI PUSH2 0x7663 PUSH2 0xA2D9 JUMP JUMPDEST JUMPDEST ADD DUP2 SWAP1 SSTORE POP PUSH16 0x4B3B4CA85A85234DCDEC97B4CEEBE93F PUSH1 0x0 PUSH1 0x2D PUSH1 0x64 DUP2 LT PUSH2 0x768F JUMPI PUSH2 0x768E PUSH2 0xA2D9 JUMP JUMPDEST JUMPDEST ADD DUP2 SWAP1 SSTORE POP PUSH16 0x4B3B4CA85A85F3E3EBBB5CF9464C72A6 PUSH1 0x0 PUSH1 0x2E PUSH1 0x64 DUP2 LT PUSH2 0x76BA JUMPI PUSH2 0x76B9 PUSH2 0xA2D9 JUMP JUMPDEST JUMPDEST ADD DUP2 SWAP1 SSTORE POP PUSH16 0x4B3B4CA85A865C2EFAA2BF9C5ADBD8D5 PUSH1 0x0 PUSH1 0x2F PUSH1 0x64 DUP2 LT PUSH2 0x76E5 JUMPI PUSH2 0x76E4 PUSH2 0xA2D9 JUMP JUMPDEST JUMPDEST ADD DUP2 SWAP1 SSTORE POP PUSH16 0x4B3B4CA85A869054821670EE1B5B544B PUSH1 0x0 PUSH1 0x30 PUSH1 0x64 DUP2 LT PUSH2 0x7710 JUMPI PUSH2 0x770F PUSH2 0xA2D9 JUMP JUMPDEST JUMPDEST ADD DUP2 SWAP1 SSTORE POP PUSH16 0x4B3B4CA85A86AA6745D049970929041E PUSH1 0x0 PUSH1 0x31 PUSH1 0x64 DUP2 LT PUSH2 0x773B JUMPI PUSH2 0x773A PUSH2 0xA2D9 JUMP JUMPDEST JUMPDEST ADD DUP2 SWAP1 SSTORE POP PUSH16 0x4B3B4CA85A86B770A7AD35EB8373588D PUSH1 0x0 PUSH1 0x32 PUSH1 0x64 DUP2 LT PUSH2 0x7766 JUMPI PUSH2 0x7765 PUSH2 0xA2D9 JUMP JUMPDEST JUMPDEST ADD DUP2 SWAP1 SSTORE POP PUSH16 0x4B3B4CA85A86BDF5589BAC15C17161E6 PUSH1 0x0 PUSH1 0x33 PUSH1 0x64 DUP2 LT PUSH2 0x7791 JUMPI PUSH2 0x7790 PUSH2 0xA2D9 JUMP JUMPDEST JUMPDEST ADD DUP2 SWAP1 SSTORE POP PUSH16 0x4B3B4CA85A86C137B112E72AE0A69E5B PUSH1 0x0 PUSH1 0x34 PUSH1 0x64 DUP2 LT PUSH2 0x77BC JUMPI PUSH2 0x77BB PUSH2 0xA2D9 JUMP JUMPDEST JUMPDEST ADD DUP2 SWAP1 SSTORE POP PUSH16 0x4B3B4CA85A86C2D8DD4E84B5704ECA87 PUSH1 0x0 PUSH1 0x35 PUSH1 0x64 DUP2 LT PUSH2 0x77E7 JUMPI PUSH2 0x77E6 PUSH2 0xA2D9 JUMP JUMPDEST JUMPDEST ADD DUP2 SWAP1 SSTORE POP PUSH16 0x4B3B4CA85A86C3A9736C537AB826441A PUSH1 0x0 PUSH1 0x36 PUSH1 0x64 DUP2 LT PUSH2 0x7812 JUMPI PUSH2 0x7811 PUSH2 0xA2D9 JUMP JUMPDEST JUMPDEST ADD DUP2 SWAP1 SSTORE POP PUSH16 0x4B3B4CA85A86C411BE7B3ADD5C12D9C3 PUSH1 0x0 PUSH1 0x37 PUSH1 0x64 DUP2 LT PUSH2 0x783D JUMPI PUSH2 0x783C PUSH2 0xA2D9 JUMP JUMPDEST JUMPDEST ADD DUP2 SWAP1 SSTORE POP PUSH16 0x4B3B4CA85A86C445E402AE8EAE095ACF PUSH1 0x0 PUSH1 0x38 PUSH1 0x64 DUP2 LT PUSH2 0x7868 JUMPI PUSH2 0x7867 PUSH2 0xA2D9 JUMP JUMPDEST JUMPDEST ADD DUP2 SWAP1 SSTORE POP PUSH16 0x4B3B4CA85A86C45FF6C668675704A8E3 PUSH1 0x0 PUSH1 0x39 PUSH1 0x64 DUP2 LT PUSH2 0x7893 JUMPI PUSH2 0x7892 PUSH2 0xA2D9 JUMP JUMPDEST JUMPDEST ADD DUP2 SWAP1 SSTORE POP PUSH16 0x4B3B4CA85A86C46D00284553AB825350 PUSH1 0x0 PUSH1 0x3A PUSH1 0x64 DUP2 LT PUSH2 0x78BE JUMPI PUSH2 0x78BD PUSH2 0xA2D9 JUMP JUMPDEST JUMPDEST ADD DUP2 SWAP1 SSTORE POP PUSH16 0x4B3B4CA85A86C47384D933C9D5C12960 PUSH1 0x0 PUSH1 0x3B PUSH1 0x64 DUP2 LT PUSH2 0x78E9 JUMPI PUSH2 0x78E8 PUSH2 0xA2D9 JUMP JUMPDEST JUMPDEST ADD DUP2 SWAP1 SSTORE POP PUSH16 0x4B3B4CA85A86C476C731AB04EAE0949E PUSH1 0x0 PUSH1 0x3C PUSH1 0x64 DUP2 LT PUSH2 0x7914 JUMPI PUSH2 0x7913 PUSH2 0xA2D9 JUMP JUMPDEST JUMPDEST ADD DUP2 SWAP1 SSTORE POP PUSH16 0x4B3B4CA85A86C478685DE6A275704A4A PUSH1 0x0 PUSH1 0x3D PUSH1 0x64 DUP2 LT PUSH2 0x793F JUMPI PUSH2 0x793E PUSH2 0xA2D9 JUMP JUMPDEST JUMPDEST ADD DUP2 SWAP1 SSTORE POP PUSH16 0x4B3B4CA85A86C47938F404713AB82524 PUSH1 0x0 PUSH1 0x3E PUSH1 0x64 DUP2 LT PUSH2 0x796A JUMPI PUSH2 0x7969 PUSH2 0xA2D9 JUMP JUMPDEST JUMPDEST ADD DUP2 SWAP1 SSTORE POP PUSH16 0x4B3B4CA85A86C479A13F13589D5C1292 PUSH1 0x0 PUSH1 0x3F PUSH1 0x64 DUP2 LT PUSH2 0x7995 JUMPI PUSH2 0x7994 PUSH2 0xA2D9 JUMP JUMPDEST JUMPDEST ADD DUP2 SWAP1 SSTORE POP PUSH16 0x4B3B4CA85A86C479D5649ACC4EAE0949 PUSH1 0x0 PUSH1 0x40 PUSH1 0x64 DUP2 LT PUSH2 0x79C0 JUMPI PUSH2 0x79BF PUSH2 0xA2D9 JUMP JUMPDEST JUMPDEST ADD DUP2 SWAP1 SSTORE POP PUSH16 0x4B3B4CA85A86C479EF775E86275704A4 PUSH1 0x0 PUSH1 0x41 PUSH1 0x64 DUP2 LT PUSH2 0x79EB JUMPI PUSH2 0x79EA PUSH2 0xA2D9 JUMP JUMPDEST JUMPDEST ADD DUP2 SWAP1 SSTORE POP PUSH16 0x4B3B4CA85A86C479FC80C06313AB8252 PUSH1 0x0 PUSH1 0x42 PUSH1 0x64 DUP2 LT PUSH2 0x7A16 JUMPI PUSH2 0x7A15 PUSH2 0xA2D9 JUMP JUMPDEST JUMPDEST ADD DUP2 SWAP1 SSTORE POP PUSH16 0x4B3B4CA85A86C47A0305715189D5C129 PUSH1 0x0 PUSH1 0x43 PUSH1 0x64 DUP2 LT PUSH2 0x7A41 JUMPI PUSH2 0x7A40 PUSH2 0xA2D9 JUMP JUMPDEST JUMPDEST ADD DUP2 SWAP1 SSTORE POP PUSH16 0x4B3B4CA85A86C47A0647C9C8C4EAE095 PUSH1 0x0 PUSH1 0x44 PUSH1 0x64 DUP2 LT PUSH2 0x7A6C JUMPI PUSH2 0x7A6B PUSH2 0xA2D9 JUMP JUMPDEST JUMPDEST ADD DUP2 SWAP1 SSTORE POP PUSH16 0x4B3B4CA85A86C47A07E8F6046275704A PUSH1 0x0 PUSH1 0x45 PUSH1 0x64 DUP2 LT PUSH2 0x7A97 JUMPI PUSH2 0x7A96 PUSH2 0xA2D9 JUMP JUMPDEST JUMPDEST ADD DUP2 SWAP1 SSTORE POP PUSH16 0x4B3B4CA85A86C47A08B98C22313AB825 PUSH1 0x0 PUSH1 0x46 PUSH1 0x64 DUP2 LT PUSH2 0x7AC2 JUMPI PUSH2 0x7AC1 PUSH2 0xA2D9 JUMP JUMPDEST JUMPDEST ADD DUP2 SWAP1 SSTORE POP PUSH16 0x4B3B4CA85A86C47A0921D731189D5C13 PUSH1 0x0 PUSH1 0x47 PUSH1 0x64 DUP2 LT PUSH2 0x7AED JUMPI PUSH2 0x7AEC PUSH2 0xA2D9 JUMP JUMPDEST JUMPDEST ADD DUP2 SWAP1 SSTORE POP PUSH16 0x4B3B4CA85A86C47A0955FCB88C4EAE09 PUSH1 0x0 PUSH1 0x48 PUSH1 0x64 DUP2 LT PUSH2 0x7B18 JUMPI PUSH2 0x7B17 PUSH2 0xA2D9 JUMP JUMPDEST JUMPDEST ADD DUP2 SWAP1 SSTORE POP PUSH16 0x4B3B4CA85A86C47A09700F7C46275705 PUSH1 0x0 PUSH1 0x49 PUSH1 0x64 DUP2 LT PUSH2 0x7B43 JUMPI PUSH2 0x7B42 PUSH2 0xA2D9 JUMP JUMPDEST JUMPDEST ADD DUP2 SWAP1 SSTORE POP PUSH16 0x4B3B4CA85A86C47A097D18DE2313AB82 PUSH1 0x0 PUSH1 0x4A PUSH1 0x64 DUP2 LT PUSH2 0x7B6E JUMPI PUSH2 0x7B6D PUSH2 0xA2D9 JUMP JUMPDEST JUMPDEST ADD DUP2 SWAP1 SSTORE POP PUSH16 0x4B3B4CA85A86C47A09839D8F1189D5C1 PUSH1 0x0 PUSH1 0x4B PUSH1 0x64 DUP2 LT PUSH2 0x7B99 JUMPI PUSH2 0x7B98 PUSH2 0xA2D9 JUMP JUMPDEST JUMPDEST ADD DUP2 SWAP1 SSTORE POP PUSH16 0x4B3B4CA85A86C47A0986DFE788C4EAE1 PUSH1 0x0 PUSH1 0x4C PUSH1 0x64 DUP2 LT PUSH2 0x7BC4 JUMPI PUSH2 0x7BC3 PUSH2 0xA2D9 JUMP JUMPDEST JUMPDEST ADD DUP2 SWAP1 SSTORE POP PUSH16 0x4B3B4CA85A86C47A09888113C4627570 PUSH1 0x0 PUSH1 0x4D PUSH1 0x64 DUP2 LT PUSH2 0x7BEF JUMPI PUSH2 0x7BEE PUSH2 0xA2D9 JUMP JUMPDEST JUMPDEST ADD DUP2 SWAP1 SSTORE POP PUSH16 0x4B3B4CA85A86C47A098951A9E2313AB8 PUSH1 0x0 PUSH1 0x4E PUSH1 0x64 DUP2 LT PUSH2 0x7C1A JUMPI PUSH2 0x7C19 PUSH2 0xA2D9 JUMP JUMPDEST JUMPDEST ADD DUP2 SWAP1 SSTORE POP PUSH16 0x4B3B4CA85A86C47A0989B9F4F1189D5C PUSH1 0x0 PUSH1 0x4F PUSH1 0x64 DUP2 LT PUSH2 0x7C45 JUMPI PUSH2 0x7C44 PUSH2 0xA2D9 JUMP JUMPDEST JUMPDEST ADD DUP2 SWAP1 SSTORE POP PUSH16 0x4B3B4CA85A86C47A0989EE1A788C4EAE PUSH1 0x0 PUSH1 0x50 PUSH1 0x64 DUP2 LT PUSH2 0x7C70 JUMPI PUSH2 0x7C6F PUSH2 0xA2D9 JUMP JUMPDEST JUMPDEST ADD DUP2 SWAP1 SSTORE POP PUSH16 0x4B3B4CA85A86C47A098A082D3C462757 PUSH1 0x0 PUSH1 0x51 PUSH1 0x64 DUP2 LT PUSH2 0x7C9B JUMPI PUSH2 0x7C9A PUSH2 0xA2D9 JUMP JUMPDEST JUMPDEST ADD DUP2 SWAP1 SSTORE POP PUSH16 0x4B3B4CA85A86C47A098A15369E2313AC PUSH1 0x0 PUSH1 0x52 PUSH1 0x64 DUP2 LT PUSH2 0x7CC6 JUMPI PUSH2 0x7CC5 PUSH2 0xA2D9 JUMP JUMPDEST JUMPDEST ADD DUP2 SWAP1 SSTORE POP PUSH16 0x4B3B4CA85A86C47A098A1BBB4F1189D6 PUSH1 0x0 PUSH1 0x53 PUSH1 0x64 DUP2 LT PUSH2 0x7CF1 JUMPI PUSH2 0x7CF0 PUSH2 0xA2D9 JUMP JUMPDEST JUMPDEST ADD DUP2 SWAP1 SSTORE POP PUSH16 0x4B3B4CA85A86C47A098A1EFDA788C4EB PUSH1 0x0 PUSH1 0x54 PUSH1 0x64 DUP2 LT PUSH2 0x7D1C JUMPI PUSH2 0x7D1B PUSH2 0xA2D9 JUMP JUMPDEST JUMPDEST ADD DUP2 SWAP1 SSTORE POP PUSH16 0x4B3B4CA85A86C47A098A209ED3C46275 PUSH1 0x0 PUSH1 0x55 PUSH1 0x64 DUP2 LT PUSH2 0x7D47 JUMPI PUSH2 0x7D46 PUSH2 0xA2D9 JUMP JUMPDEST JUMPDEST ADD DUP2 SWAP1 SSTORE POP PUSH16 0x4B3B4CA85A86C47A098A216F69E2313B PUSH1 0x0 PUSH1 0x56 PUSH1 0x64 DUP2 LT PUSH2 0x7D72 JUMPI PUSH2 0x7D71 PUSH2 0xA2D9 JUMP JUMPDEST JUMPDEST ADD DUP2 SWAP1 SSTORE POP PUSH16 0x4B3B4CA85A86C47A098A21D7B4F1189D PUSH1 0x0 PUSH1 0x57 PUSH1 0x64 DUP2 LT PUSH2 0x7D9D JUMPI PUSH2 0x7D9C PUSH2 0xA2D9 JUMP JUMPDEST JUMPDEST ADD DUP2 SWAP1 SSTORE POP PUSH16 0x4B3B4CA85A86C47A098A220BDA788C4F PUSH1 0x0 PUSH1 0x58 PUSH1 0x64 DUP2 LT PUSH2 0x7DC8 JUMPI PUSH2 0x7DC7 PUSH2 0xA2D9 JUMP JUMPDEST JUMPDEST ADD DUP2 SWAP1 SSTORE POP PUSH16 0x4B3B4CA85A86C47A098A2225ED3C4627 PUSH1 0x0 PUSH1 0x59 PUSH1 0x64 DUP2 LT PUSH2 0x7DF3 JUMPI PUSH2 0x7DF2 PUSH2 0xA2D9 JUMP JUMPDEST JUMPDEST ADD DUP2 SWAP1 SSTORE POP PUSH16 0x4B3B4CA85A86C47A098A2232F69E2314 PUSH1 0x0 PUSH1 0x5A PUSH1 0x64 DUP2 LT PUSH2 0x7E1E JUMPI PUSH2 0x7E1D PUSH2 0xA2D9 JUMP JUMPDEST JUMPDEST ADD DUP2 SWAP1 SSTORE POP PUSH16 0x4B3B4CA85A86C47A098A22397B4F118A PUSH1 0x0 PUSH1 0x5B PUSH1 0x64 DUP2 LT PUSH2 0x7E49 JUMPI PUSH2 0x7E48 PUSH2 0xA2D9 JUMP JUMPDEST JUMPDEST ADD DUP2 SWAP1 SSTORE POP PUSH16 0x4B3B4CA85A86C47A098A223CBDA788C5 PUSH1 0x0 PUSH1 0x5C PUSH1 0x64 DUP2 LT PUSH2 0x7E74 JUMPI PUSH2 0x7E73 PUSH2 0xA2D9 JUMP JUMPDEST JUMPDEST ADD DUP2 SWAP1 SSTORE POP PUSH16 0x4B3B4CA85A86C47A098A223E5ED3C462 PUSH1 0x0 PUSH1 0x5D PUSH1 0x64 DUP2 LT PUSH2 0x7E9F JUMPI PUSH2 0x7E9E PUSH2 0xA2D9 JUMP JUMPDEST JUMPDEST ADD DUP2 SWAP1 SSTORE POP PUSH16 0x4B3B4CA85A86C47A098A223F2F69E231 PUSH1 0x0 PUSH1 0x5E PUSH1 0x64 DUP2 LT PUSH2 0x7ECA JUMPI PUSH2 0x7EC9 PUSH2 0xA2D9 JUMP JUMPDEST JUMPDEST ADD DUP2 SWAP1 SSTORE POP PUSH16 0x4B3B4CA85A86C47A098A223F97B4F119 PUSH1 0x0 PUSH1 0x5F PUSH1 0x64 DUP2 LT PUSH2 0x7EF5 JUMPI PUSH2 0x7EF4 PUSH2 0xA2D9 JUMP JUMPDEST JUMPDEST ADD DUP2 SWAP1 SSTORE POP PUSH16 0x4B3B4CA85A86C47A098A223FCBDA788C PUSH1 0x0 PUSH1 0x60 PUSH1 0x64 DUP2 LT PUSH2 0x7F20 JUMPI PUSH2 0x7F1F PUSH2 0xA2D9 JUMP JUMPDEST JUMPDEST ADD DUP2 SWAP1 SSTORE POP PUSH16 0x4B3B4CA85A86C47A098A223FE5ED3C46 PUSH1 0x0 PUSH1 0x61 PUSH1 0x64 DUP2 LT PUSH2 0x7F4B JUMPI PUSH2 0x7F4A PUSH2 0xA2D9 JUMP JUMPDEST JUMPDEST ADD DUP2 SWAP1 SSTORE POP PUSH16 0x4B3B4CA85A86C47A098A223FF2F69E23 PUSH1 0x0 PUSH1 0x62 PUSH1 0x64 DUP2 LT PUSH2 0x7F76 JUMPI PUSH2 0x7F75 PUSH2 0xA2D9 JUMP JUMPDEST JUMPDEST ADD DUP2 SWAP1 SSTORE POP PUSH16 0x4B3B4CA85A86C47A098A223FF97B4F12 PUSH1 0x0 PUSH1 0x63 PUSH1 0x64 DUP2 LT PUSH2 0x7FA1 JUMPI PUSH2 0x7FA0 PUSH2 0xA2D9 JUMP JUMPDEST JUMPDEST ADD DUP2 SWAP1 SSTORE POP PUSH1 0x1 PUSH2 0x24E PUSH1 0x0 PUSH2 0x100 EXP DUP2 SLOAD DUP2 PUSH1 0xFF MUL NOT AND SWAP1 DUP4 ISZERO ISZERO MUL OR SWAP1 SSTORE POP JUMP JUMPDEST PUSH1 0x0 PUSH1 0x1 ISZERO ISZERO PUSH2 0x24E PUSH1 0x0 SWAP1 SLOAD SWAP1 PUSH2 0x100 EXP SWAP1 DIV PUSH1 0xFF AND ISZERO ISZERO EQ DUP1 ISZERO PUSH2 0x7FFE JUMPI POP PUSH1 0x1 ISZERO ISZERO PUSH2 0x24E PUSH1 0x1 SWAP1 SLOAD SWAP1 PUSH2 0x100 EXP SWAP1 DIV PUSH1 0xFF AND ISZERO ISZERO EQ JUMPDEST PUSH2 0x803D JUMPI PUSH1 0x40 MLOAD PUSH32 0x8C379A000000000000000000000000000000000000000000000000000000000 DUP2 MSTORE PUSH1 0x4 ADD PUSH2 0x8034 SWAP1 PUSH2 0x9EC5 JUMP JUMPDEST PUSH1 0x40 MLOAD DUP1 SWAP2 SUB SWAP1 REVERT JUMPDEST PUSH8 0xDE0B6B3A7640000 DUP4 LT ISZERO DUP1 ISZERO PUSH2 0x8068 JUMPI POP PUSH8 0xDE0B6B3A7640000 PUSH1 0x2 PUSH2 0x8065 SWAP2 SWAP1 PUSH2 0xA169 JUMP JUMPDEST DUP4 LT JUMPDEST PUSH2 0x80A7 JUMPI PUSH1 0x40 MLOAD PUSH32 0x8C379A000000000000000000000000000000000000000000000000000000000 DUP2 MSTORE PUSH1 0x4 ADD PUSH2 0x809E SWAP1 PUSH2 0x9F05 JUMP JUMPDEST PUSH1 0x40 MLOAD DUP1 SWAP2 SUB SWAP1 REVERT JUMPDEST PUSH1 0x0 PUSH2 0x80BC DUP5 PUSH9 0x56BC75E2D63100000 PUSH2 0x9B98 JUMP JUMPDEST SWAP1 POP PUSH1 0x0 PUSH16 0x4B3B4CA85A86C47A098A224000000000 SWAP1 POP PUSH1 0x0 DUP1 PUSH1 0x1 SWAP1 POP JUMPDEST DUP6 DUP2 GT PUSH2 0x8154 JUMPI PUSH2 0x8101 PUSH1 0x0 DUP3 PUSH1 0x64 DUP2 LT PUSH2 0x80F9 JUMPI PUSH2 0x80F8 PUSH2 0xA2D9 JUMP JUMPDEST JUMPDEST ADD SLOAD DUP6 PUSH2 0x5C35 JUMP JUMPDEST SWAP3 POP PUSH16 0x4B3B4CA85A86C47A098A224000000000 DUP4 LT PUSH2 0x8141 JUMPI DUP3 SWAP4 POP PUSH1 0x64 DUP2 PUSH1 0x64 DUP2 LT PUSH2 0x8131 JUMPI PUSH2 0x8130 PUSH2 0xA2D9 JUMP JUMPDEST JUMPDEST ADD SLOAD DUP3 PUSH2 0x813E SWAP2 SWAP1 PUSH2 0x9F71 JUMP JUMPDEST SWAP2 POP JUMPDEST DUP1 DUP1 PUSH2 0x814C SWAP1 PUSH2 0xA201 JUMP JUMPDEST SWAP2 POP POP PUSH2 0x80DB JUMP JUMPDEST POP PUSH2 0x815E DUP2 PUSH2 0x5CCF JUMP JUMPDEST SWAP4 POP POP POP POP SWAP3 SWAP2 POP POP JUMP JUMPDEST PUSH1 0x0 DUP1 PUSH2 0x8176 DUP5 DUP5 PUSH2 0x9B98 JUMP JUMPDEST SWAP1 POP PUSH8 0xDE0B6B3A7640000 PUSH2 0x819F DUP3 PUSH1 0x2 PUSH8 0xDE0B6B3A7640000 PUSH2 0x819A SWAP2 SWAP1 PUSH2 0x9FC7 JUMP JUMPDEST PUSH2 0x9C13 JUMP JUMPDEST PUSH2 0x81A9 SWAP2 SWAP1 PUSH2 0x9FC7 JUMP JUMPDEST SWAP2 POP POP SWAP3 SWAP2 POP POP JUMP JUMPDEST PUSH16 0x4B3B4CA85A86C47A098A224000000000 PUSH1 0xC8 PUSH1 0xB PUSH1 0x27 DUP2 LT PUSH2 0x81D8 JUMPI PUSH2 0x81D7 PUSH2 0xA2D9 JUMP JUMPDEST JUMPDEST PUSH1 0xA MUL ADD PUSH1 0x0 PUSH1 0xA DUP2 LT PUSH2 0x81EF JUMPI PUSH2 0x81EE PUSH2 0xA2D9 JUMP JUMPDEST JUMPDEST ADD DUP2 SWAP1 SSTORE POP PUSH16 0x4B3B4CA85AC01A706EADF372D36D1338 PUSH1 0xC8 PUSH1 0xB PUSH1 0x27 DUP2 LT PUSH2 0x821A JUMPI PUSH2 0x8219 PUSH2 0xA2D9 JUMP JUMPDEST JUMPDEST PUSH1 0xA MUL ADD PUSH1 0x1 PUSH1 0xA DUP2 LT PUSH2 0x8231 JUMPI PUSH2 0x8230 PUSH2 0xA2D9 JUMP JUMPDEST JUMPDEST ADD DUP2 SWAP1 SSTORE POP PUSH16 0x4B3B4CA85AF97066D3D1F05811F9885D PUSH1 0xC8 PUSH1 0xB PUSH1 0x27 DUP2 LT PUSH2 0x825C JUMPI PUSH2 0x825B PUSH2 0xA2D9 JUMP JUMPDEST JUMPDEST PUSH1 0xA MUL ADD PUSH1 0x2 PUSH1 0xA DUP2 LT PUSH2 0x8273 JUMPI PUSH2 0x8272 PUSH2 0xA2D9 JUMP JUMPDEST JUMPDEST ADD DUP2 SWAP1 SSTORE POP PUSH16 0x4B3B4CA85B32C65D38F618EFBBA55F91 PUSH1 0xC8 PUSH1 0xB PUSH1 0x27 DUP2 LT PUSH2 0x829E JUMPI PUSH2 0x829D PUSH2 0xA2D9 JUMP JUMPDEST JUMPDEST PUSH1 0xA MUL ADD PUSH1 0x3 PUSH1 0xA DUP2 LT PUSH2 0x82B5 JUMPI PUSH2 0x82B4 PUSH2 0xA2D9 JUMP JUMPDEST JUMPDEST ADD DUP2 SWAP1 SSTORE POP PUSH16 0x4B3B4CA85B6C1C539E1A6D39D07098F5 PUSH1 0xC8 PUSH1 0xB PUSH1 0x27 DUP2 LT PUSH2 0x82E0 JUMPI PUSH2 0x82DF PUSH2 0xA2D9 JUMP JUMPDEST JUMPDEST PUSH1 0xA MUL ADD PUSH1 0x4 PUSH1 0xA DUP2 LT PUSH2 0x82F7 JUMPI PUSH2 0x82F6 PUSH2 0xA2D9 JUMP JUMPDEST JUMPDEST ADD DUP2 SWAP1 SSTORE POP PUSH16 0x4B3B4CA85BA5724A033EED36505B34AA PUSH1 0xC8 PUSH1 0xB PUSH1 0x27 DUP2 LT PUSH2 0x8322 JUMPI PUSH2 0x8321 PUSH2 0xA2D9 JUMP JUMPDEST JUMPDEST PUSH1 0xA MUL ADD PUSH1 0x5 PUSH1 0xA DUP2 LT PUSH2 0x8339 JUMPI PUSH2 0x8338 PUSH2 0xA2D9 JUMP JUMPDEST JUMPDEST ADD DUP2 SWAP1 SSTORE POP PUSH16 0x4B3B4CA85BDEC840686398E53B6532D2 PUSH1 0xC8 PUSH1 0xB PUSH1 0x27 DUP2 LT PUSH2 0x8364 JUMPI PUSH2 0x8363 PUSH2 0xA2D9 JUMP JUMPDEST JUMPDEST PUSH1 0xA MUL ADD PUSH1 0x6 PUSH1 0xA DUP2 LT PUSH2 0x837B JUMPI PUSH2 0x837A PUSH2 0xA2D9 JUMP JUMPDEST JUMPDEST ADD DUP2 SWAP1 SSTORE POP PUSH16 0x4B3B4CA85C181E36CD887046918E938E PUSH1 0xC8 PUSH1 0xB PUSH1 0x27 DUP2 LT PUSH2 0x83A6 JUMPI PUSH2 0x83A5 PUSH2 0xA2D9 JUMP JUMPDEST JUMPDEST PUSH1 0xA MUL ADD PUSH1 0x7 PUSH1 0xA DUP2 LT PUSH2 0x83BD JUMPI PUSH2 0x83BC PUSH2 0xA2D9 JUMP JUMPDEST JUMPDEST ADD DUP2 SWAP1 SSTORE POP PUSH16 0x4B3B4CA85C51742D32AD735A52D75700 PUSH1 0xC8 PUSH1 0xB PUSH1 0x27 DUP2 LT PUSH2 0x83E8 JUMPI PUSH2 0x83E7 PUSH2 0xA2D9 JUMP JUMPDEST JUMPDEST PUSH1 0xA MUL ADD PUSH1 0x8 PUSH1 0xA DUP2 LT PUSH2 0x83FF JUMPI PUSH2 0x83FE PUSH2 0xA2D9 JUMP JUMPDEST JUMPDEST ADD DUP2 SWAP1 SSTORE POP PUSH16 0x4B3B4CA85C8ACA2397D2A2207F3F7D47 PUSH1 0xC8 PUSH1 0xB PUSH1 0x27 DUP2 LT PUSH2 0x842A JUMPI PUSH2 0x8429 PUSH2 0xA2D9 JUMP JUMPDEST JUMPDEST PUSH1 0xA MUL ADD PUSH1 0x9 PUSH1 0xA DUP2 LT PUSH2 0x8441 JUMPI PUSH2 0x8440 PUSH2 0xA2D9 JUMP JUMPDEST JUMPDEST ADD DUP2 SWAP1 SSTORE POP PUSH16 0x4B3B4CA85A86C47A098A224000000000 PUSH1 0xC8 PUSH1 0xC PUSH1 0x27 DUP2 LT PUSH2 0x846C JUMPI PUSH2 0x846B PUSH2 0xA2D9 JUMP JUMPDEST JUMPDEST PUSH1 0xA MUL ADD PUSH1 0x0 PUSH1 0xA DUP2 LT PUSH2 0x8483 JUMPI PUSH2 0x8482 PUSH2 0xA2D9 JUMP JUMPDEST JUMPDEST ADD DUP2 SWAP1 SSTORE POP PUSH16 0x4B3B4CA85A8C8045E0741B9A7E66EF70 PUSH1 0xC8 PUSH1 0xC PUSH1 0x27 DUP2 LT PUSH2 0x84AE JUMPI PUSH2 0x84AD PUSH2 0xA2D9 JUMP JUMPDEST JUMPDEST PUSH1 0xA MUL ADD PUSH1 0x1 PUSH1 0xA DUP2 LT PUSH2 0x84C5 JUMPI PUSH2 0x84C4 PUSH2 0xA2D9 JUMP JUMPDEST JUMPDEST ADD DUP2 SWAP1 SSTORE POP PUSH16 0x4B3B4CA85A923C11B75E1564DA09107F PUSH1 0xC8 PUSH1 0xC PUSH1 0x27 DUP2 LT PUSH2 0x84F0 JUMPI PUSH2 0x84EF PUSH2 0xA2D9 JUMP JUMPDEST JUMPDEST PUSH1 0xA MUL ADD PUSH1 0x2 PUSH1 0xA DUP2 LT PUSH2 0x8507 JUMPI PUSH2 0x8506 PUSH2 0xA2D9 JUMP JUMPDEST JUMPDEST ADD DUP2 SWAP1 SSTORE POP PUSH16 0x4B3B4CA85A97F7DD8E480F9F12E6632C PUSH1 0xC8 PUSH1 0xC PUSH1 0x27 DUP2 LT PUSH2 0x8532 JUMPI PUSH2 0x8531 PUSH2 0xA2D9 JUMP JUMPDEST JUMPDEST PUSH1 0xA MUL ADD PUSH1 0x3 PUSH1 0xA DUP2 LT PUSH2 0x8549 JUMPI PUSH2 0x8548 PUSH2 0xA2D9 JUMP JUMPDEST JUMPDEST ADD DUP2 SWAP1 SSTORE POP PUSH16 0x4B3B4CA85A9DB3A965320A4928FEE777 PUSH1 0xC8 PUSH1 0xC PUSH1 0x27 DUP2 LT PUSH2 0x8574 JUMPI PUSH2 0x8573 PUSH2 0xA2D9 JUMP JUMPDEST JUMPDEST PUSH1 0xA MUL ADD PUSH1 0x4 PUSH1 0xA DUP2 LT PUSH2 0x858B JUMPI PUSH2 0x858A PUSH2 0xA2D9 JUMP JUMPDEST JUMPDEST ADD DUP2 SWAP1 SSTORE POP PUSH16 0x4B3B4CA85AA36F753C1C05631C529D60 PUSH1 0xC8 PUSH1 0xC PUSH1 0x27 DUP2 LT PUSH2 0x85B6 JUMPI PUSH2 0x85B5 PUSH2 0xA2D9 JUMP JUMPDEST JUMPDEST PUSH1 0xA MUL ADD PUSH1 0x5 PUSH1 0xA DUP2 LT PUSH2 0x85CD JUMPI PUSH2 0x85CC PUSH2 0xA2D9 JUMP JUMPDEST JUMPDEST ADD DUP2 SWAP1 SSTORE POP PUSH16 0x4B3B4CA85AA92B41130600ECECE184E8 PUSH1 0xC8 PUSH1 0xC PUSH1 0x27 DUP2 LT PUSH2 0x85F8 JUMPI PUSH2 0x85F7 PUSH2 0xA2D9 JUMP JUMPDEST JUMPDEST PUSH1 0xA MUL ADD PUSH1 0x6 PUSH1 0xA DUP2 LT PUSH2 0x860F JUMPI PUSH2 0x860E PUSH2 0xA2D9 JUMP JUMPDEST JUMPDEST ADD DUP2 SWAP1 SSTORE POP PUSH16 0x4B3B4CA85AAEE70CE9EFFCE69AAB9E0E PUSH1 0xC8 PUSH1 0xC PUSH1 0x27 DUP2 LT PUSH2 0x863A JUMPI PUSH2 0x8639 PUSH2 0xA2D9 JUMP JUMPDEST JUMPDEST PUSH1 0xA MUL ADD PUSH1 0x7 PUSH1 0xA DUP2 LT PUSH2 0x8651 JUMPI PUSH2 0x8650 PUSH2 0xA2D9 JUMP JUMPDEST JUMPDEST ADD DUP2 SWAP1 SSTORE POP PUSH16 0x4B3B4CA85AB4A2D8C0D9F95025B0E8D3 PUSH1 0xC8 PUSH1 0xC PUSH1 0x27 DUP2 LT PUSH2 0x867C JUMPI PUSH2 0x867B PUSH2 0xA2D9 JUMP JUMPDEST JUMPDEST PUSH1 0xA MUL ADD PUSH1 0x8 PUSH1 0xA DUP2 LT PUSH2 0x8693 JUMPI PUSH2 0x8692 PUSH2 0xA2D9 JUMP JUMPDEST JUMPDEST ADD DUP2 SWAP1 SSTORE POP PUSH16 0x4B3B4CA85ABA5EA497C3F6298DF16536 PUSH1 0xC8 PUSH1 0xC PUSH1 0x27 DUP2 LT PUSH2 0x86BE JUMPI PUSH2 0x86BD PUSH2 0xA2D9 JUMP JUMPDEST JUMPDEST PUSH1 0xA MUL ADD PUSH1 0x9 PUSH1 0xA DUP2 LT PUSH2 0x86D5 JUMPI PUSH2 0x86D4 PUSH2 0xA2D9 JUMP JUMPDEST JUMPDEST ADD DUP2 SWAP1 SSTORE POP PUSH16 0x4B3B4CA85A86C47A098A224000000000 PUSH1 0xC8 PUSH1 0xD PUSH1 0x27 DUP2 LT PUSH2 0x8700 JUMPI PUSH2 0x86FF PUSH2 0xA2D9 JUMP JUMPDEST JUMPDEST PUSH1 0xA MUL ADD PUSH1 0x0 PUSH1 0xA DUP2 LT PUSH2 0x8717 JUMPI PUSH2 0x8716 PUSH2 0xA2D9 JUMP JUMPDEST JUMPDEST ADD DUP2 SWAP1 SSTORE POP PUSH16 0x4B3B4CA85A8757419F07EE5D9D9096FE PUSH1 0xC8 PUSH1 0xD PUSH1 0x27 DUP2 LT PUSH2 0x8742 JUMPI PUSH2 0x8741 PUSH2 0xA2D9 JUMP JUMPDEST JUMPDEST PUSH1 0xA MUL ADD PUSH1 0x1 PUSH1 0xA DUP2 LT PUSH2 0x8759 JUMPI PUSH2 0x8758 PUSH2 0xA2D9 JUMP JUMPDEST JUMPDEST ADD DUP2 SWAP1 SSTORE POP PUSH16 0x4B3B4CA85A87EA093485BA7C59807DD7 PUSH1 0xC8 PUSH1 0xD PUSH1 0x27 DUP2 LT PUSH2 0x8784 JUMPI PUSH2 0x8783 PUSH2 0xA2D9 JUMP JUMPDEST JUMPDEST PUSH1 0xA MUL ADD PUSH1 0x2 PUSH1 0xA DUP2 LT PUSH2 0x879B JUMPI PUSH2 0x879A PUSH2 0xA2D9 JUMP JUMPDEST JUMPDEST ADD DUP2 SWAP1 SSTORE POP PUSH16 0x4B3B4CA85A887CD0CA03869C33CFB48B PUSH1 0xC8 PUSH1 0xD PUSH1 0x27 DUP2 LT PUSH2 0x87C6 JUMPI PUSH2 0x87C5 PUSH2 0xA2D9 JUMP JUMPDEST JUMPDEST PUSH1 0xA MUL ADD PUSH1 0x3 PUSH1 0xA DUP2 LT PUSH2 0x87DD JUMPI PUSH2 0x87DC PUSH2 0xA2D9 JUMP JUMPDEST JUMPDEST ADD DUP2 SWAP1 SSTORE POP PUSH16 0x4B3B4CA85A890F985F8152BD2C7E3B1A PUSH1 0xC8 PUSH1 0xD PUSH1 0x27 DUP2 LT PUSH2 0x8808 JUMPI PUSH2 0x8807 PUSH2 0xA2D9 JUMP JUMPDEST JUMPDEST PUSH1 0xA MUL ADD PUSH1 0x4 PUSH1 0xA DUP2 LT PUSH2 0x881F JUMPI PUSH2 0x881E PUSH2 0xA2D9 JUMP JUMPDEST JUMPDEST ADD DUP2 SWAP1 SSTORE POP PUSH16 0x4B3B4CA85A89A25FF4FF1EDF438C1184 PUSH1 0xC8 PUSH1 0xD PUSH1 0x27 DUP2 LT PUSH2 0x884A JUMPI PUSH2 0x8849 PUSH2 0xA2D9 JUMP JUMPDEST JUMPDEST PUSH1 0xA MUL ADD PUSH1 0x5 PUSH1 0xA DUP2 LT PUSH2 0x8861 JUMPI PUSH2 0x8860 PUSH2 0xA2D9 JUMP JUMPDEST JUMPDEST ADD DUP2 SWAP1 SSTORE POP PUSH16 0x4B3B4CA85A8A35278A7CEB0278F937CA PUSH1 0xC8 PUSH1 0xD PUSH1 0x27 DUP2 LT PUSH2 0x888C JUMPI PUSH2 0x888B PUSH2 0xA2D9 JUMP JUMPDEST JUMPDEST PUSH1 0xA MUL ADD PUSH1 0x6 PUSH1 0xA DUP2 LT PUSH2 0x88A3 JUMPI PUSH2 0x88A2 PUSH2 0xA2D9 JUMP JUMPDEST JUMPDEST ADD DUP2 SWAP1 SSTORE POP PUSH16 0x4B3B4CA85A8AC7EF1FFAB726CCC5ADEB PUSH1 0xC8 PUSH1 0xD PUSH1 0x27 DUP2 LT PUSH2 0x88CE JUMPI PUSH2 0x88CD PUSH2 0xA2D9 JUMP JUMPDEST JUMPDEST PUSH1 0xA MUL ADD PUSH1 0x7 PUSH1 0xA DUP2 LT PUSH2 0x88E5 JUMPI PUSH2 0x88E4 PUSH2 0xA2D9 JUMP JUMPDEST JUMPDEST ADD DUP2 SWAP1 SSTORE POP PUSH16 0x4B3B4CA85A8B5AB6B578834C3EF173E7 PUSH1 0xC8 PUSH1 0xD PUSH1 0x27 DUP2 LT PUSH2 0x8910 JUMPI PUSH2 0x890F PUSH2 0xA2D9 JUMP JUMPDEST JUMPDEST PUSH1 0xA MUL ADD PUSH1 0x8 PUSH1 0xA DUP2 LT PUSH2 0x8927 JUMPI PUSH2 0x8926 PUSH2 0xA2D9 JUMP JUMPDEST JUMPDEST ADD DUP2 SWAP1 SSTORE POP PUSH16 0x4B3B4CA85A8BED7E4AF64F72CF7C89BE PUSH1 0xC8 PUSH1 0xD PUSH1 0x27 DUP2 LT PUSH2 0x8952 JUMPI PUSH2 0x8951 PUSH2 0xA2D9 JUMP JUMPDEST JUMPDEST PUSH1 0xA MUL ADD PUSH1 0x9 PUSH1 0xA DUP2 LT PUSH2 0x8969 JUMPI PUSH2 0x8968 PUSH2 0xA2D9 JUMP JUMPDEST JUMPDEST ADD DUP2 SWAP1 SSTORE POP PUSH16 0x4B3B4CA85A86C47A098A224000000000 PUSH1 0xC8 PUSH1 0xE PUSH1 0x27 DUP2 LT PUSH2 0x8994 JUMPI PUSH2 0x8993 PUSH2 0xA2D9 JUMP JUMPDEST JUMPDEST PUSH1 0xA MUL ADD PUSH1 0x0 PUSH1 0xA DUP2 LT PUSH2 0x89AB JUMPI PUSH2 0x89AA PUSH2 0xA2D9 JUMP JUMPDEST JUMPDEST ADD DUP2 SWAP1 SSTORE POP PUSH16 0x4B3B4CA85A86D327987D1D0FB611D996 PUSH1 0xC8 PUSH1 0xE PUSH1 0x27 DUP2 LT PUSH2 0x89D6 JUMPI PUSH2 0x89D5 PUSH2 0xA2D9 JUMP JUMPDEST JUMPDEST PUSH1 0xA MUL ADD PUSH1 0x1 PUSH1 0xA DUP2 LT PUSH2 0x89ED JUMPI PUSH2 0x89EC PUSH2 0xA2D9 JUMP JUMPDEST JUMPDEST ADD DUP2 SWAP1 SSTORE POP PUSH16 0x4B3B4CA85A86E1D5277017DF6F00D021 PUSH1 0xC8 PUSH1 0xE PUSH1 0x27 DUP2 LT PUSH2 0x8A18 JUMPI PUSH2 0x8A17 PUSH2 0xA2D9 JUMP JUMPDEST JUMPDEST PUSH1 0xA MUL ADD PUSH1 0x2 PUSH1 0xA DUP2 LT PUSH2 0x8A2F JUMPI PUSH2 0x8A2E PUSH2 0xA2D9 JUMP JUMPDEST JUMPDEST ADD DUP2 SWAP1 SSTORE POP PUSH16 0x4B3B4CA85A86F082B66312AF2ACCE3A2 PUSH1 0xC8 PUSH1 0xE PUSH1 0x27 DUP2 LT PUSH2 0x8A5A JUMPI PUSH2 0x8A59 PUSH2 0xA2D9 JUMP JUMPDEST JUMPDEST PUSH1 0xA MUL ADD PUSH1 0x3 PUSH1 0xA DUP2 LT PUSH2 0x8A71 JUMPI PUSH2 0x8A70 PUSH2 0xA2D9 JUMP JUMPDEST JUMPDEST ADD DUP2 SWAP1 SSTORE POP PUSH16 0x4B3B4CA85A86FF3045560D7EE9761418 PUSH1 0xC8 PUSH1 0xE PUSH1 0x27 DUP2 LT PUSH2 0x8A9C JUMPI PUSH2 0x8A9B PUSH2 0xA2D9 JUMP JUMPDEST JUMPDEST PUSH1 0xA MUL ADD PUSH1 0x4 PUSH1 0xA DUP2 LT PUSH2 0x8AB3 JUMPI PUSH2 0x8AB2 PUSH2 0xA2D9 JUMP JUMPDEST JUMPDEST ADD DUP2 SWAP1 SSTORE POP PUSH16 0x4B3B4CA85A870DDDD449084EAAFC6183 PUSH1 0xC8 PUSH1 0xE PUSH1 0x27 DUP2 LT PUSH2 0x8ADE JUMPI PUSH2 0x8ADD PUSH2 0xA2D9 JUMP JUMPDEST JUMPDEST PUSH1 0xA MUL ADD PUSH1 0x5 PUSH1 0xA DUP2 LT PUSH2 0x8AF5 JUMPI PUSH2 0x8AF4 PUSH2 0xA2D9 JUMP JUMPDEST JUMPDEST ADD DUP2 SWAP1 SSTORE POP PUSH16 0x4B3B4CA85A871C8B633C031E6F5FCBE4 PUSH1 0xC8 PUSH1 0xE PUSH1 0x27 DUP2 LT PUSH2 0x8B20 JUMPI PUSH2 0x8B1F PUSH2 0xA2D9 JUMP JUMPDEST JUMPDEST PUSH1 0xA MUL ADD PUSH1 0x6 PUSH1 0xA DUP2 LT PUSH2 0x8B37 JUMPI PUSH2 0x8B36 PUSH2 0xA2D9 JUMP JUMPDEST JUMPDEST ADD DUP2 SWAP1 SSTORE POP PUSH16 0x4B3B4CA85A872B38F22EFDEE36A0533B PUSH1 0xC8 PUSH1 0xE PUSH1 0x27 DUP2 LT PUSH2 0x8B62 JUMPI PUSH2 0x8B61 PUSH2 0xA2D9 JUMP JUMPDEST JUMPDEST PUSH1 0xA MUL ADD PUSH1 0x7 PUSH1 0xA DUP2 LT PUSH2 0x8B79 JUMPI PUSH2 0x8B78 PUSH2 0xA2D9 JUMP JUMPDEST JUMPDEST ADD DUP2 SWAP1 SSTORE POP PUSH16 0x4B3B4CA85A8739E68121F8BE00BDF786 PUSH1 0xC8 PUSH1 0xE PUSH1 0x27 DUP2 LT PUSH2 0x8BA4 JUMPI PUSH2 0x8BA3 PUSH2 0xA2D9 JUMP JUMPDEST JUMPDEST PUSH1 0xA MUL ADD PUSH1 0x8 PUSH1 0xA DUP2 LT PUSH2 0x8BBB JUMPI PUSH2 0x8BBA PUSH2 0xA2D9 JUMP JUMPDEST JUMPDEST ADD DUP2 SWAP1 SSTORE POP PUSH16 0x4B3B4CA85A8748941014F38DCDB8B8C7 PUSH1 0xC8 PUSH1 0xE PUSH1 0x27 DUP2 LT PUSH2 0x8BE6 JUMPI PUSH2 0x8BE5 PUSH2 0xA2D9 JUMP JUMPDEST JUMPDEST PUSH1 0xA MUL ADD PUSH1 0x9 PUSH1 0xA DUP2 LT PUSH2 0x8BFD JUMPI PUSH2 0x8BFC PUSH2 0xA2D9 JUMP JUMPDEST JUMPDEST ADD DUP2 SWAP1 SSTORE POP PUSH16 0x4B3B4CA85A86C47A098A224000000000 PUSH1 0xC8 PUSH1 0xF PUSH1 0x27 DUP2 LT PUSH2 0x8C28 JUMPI PUSH2 0x8C27 PUSH2 0xA2D9 JUMP JUMPDEST JUMPDEST PUSH1 0xA MUL ADD PUSH1 0x0 PUSH1 0xA DUP2 LT PUSH2 0x8C3F JUMPI PUSH2 0x8C3E PUSH2 0xA2D9 JUMP JUMPDEST JUMPDEST ADD DUP2 SWAP1 SSTORE POP PUSH16 0x4B3B4CA85A86C5F1CB08D4EE5EE0CB7F PUSH1 0xC8 PUSH1 0xF PUSH1 0x27 DUP2 LT PUSH2 0x8C6A JUMPI PUSH2 0x8C69 PUSH2 0xA2D9 JUMP JUMPDEST JUMPDEST PUSH1 0xA MUL ADD PUSH1 0x1 PUSH1 0xA DUP2 LT PUSH2 0x8C81 JUMPI PUSH2 0x8C80 PUSH2 0xA2D9 JUMP JUMPDEST JUMPDEST ADD DUP2 SWAP1 SSTORE POP PUSH16 0x4B3B4CA85A86C7698C87879CBDC8EBC3 PUSH1 0xC8 PUSH1 0xF PUSH1 0x27 DUP2 LT PUSH2 0x8CAC JUMPI PUSH2 0x8CAB PUSH2 0xA2D9 JUMP JUMPDEST JUMPDEST PUSH1 0xA MUL ADD PUSH1 0x2 PUSH1 0xA DUP2 LT PUSH2 0x8CC3 JUMPI PUSH2 0x8CC2 PUSH2 0xA2D9 JUMP JUMPDEST JUMPDEST ADD DUP2 SWAP1 SSTORE POP PUSH16 0x4B3B4CA85A86C8E14E063A4B1CB860CC PUSH1 0xC8 PUSH1 0xF PUSH1 0x27 DUP2 LT PUSH2 0x8CEE JUMPI PUSH2 0x8CED PUSH2 0xA2D9 JUMP JUMPDEST JUMPDEST PUSH1 0xA MUL ADD PUSH1 0x3 PUSH1 0xA DUP2 LT PUSH2 0x8D05 JUMPI PUSH2 0x8D04 PUSH2 0xA2D9 JUMP JUMPDEST JUMPDEST ADD DUP2 SWAP1 SSTORE POP PUSH16 0x4B3B4CA85A86CA590F84ECF97BAF2A99 PUSH1 0xC8 PUSH1 0xF PUSH1 0x27 DUP2 LT PUSH2 0x8D30 JUMPI PUSH2 0x8D2F PUSH2 0xA2D9 JUMP JUMPDEST JUMPDEST PUSH1 0xA MUL ADD PUSH1 0x4 PUSH1 0xA DUP2 LT PUSH2 0x8D47 JUMPI PUSH2 0x8D46 PUSH2 0xA2D9 JUMP JUMPDEST JUMPDEST ADD DUP2 SWAP1 SSTORE POP PUSH16 0x4B3B4CA85A86CBD0D1039FA7DAAD492C PUSH1 0xC8 PUSH1 0xF PUSH1 0x27 DUP2 LT PUSH2 0x8D72 JUMPI PUSH2 0x8D71 PUSH2 0xA2D9 JUMP JUMPDEST JUMPDEST PUSH1 0xA MUL ADD PUSH1 0x5 PUSH1 0xA DUP2 LT PUSH2 0x8D89 JUMPI PUSH2 0x8D88 PUSH2 0xA2D9 JUMP JUMPDEST JUMPDEST ADD DUP2 SWAP1 SSTORE POP PUSH16 0x4B3B4CA85A86CD489282525639B2BC84 PUSH1 0xC8 PUSH1 0xF PUSH1 0x27 DUP2 LT PUSH2 0x8DB4 JUMPI PUSH2 0x8DB3 PUSH2 0xA2D9 JUMP JUMPDEST JUMPDEST PUSH1 0xA MUL ADD PUSH1 0x6 PUSH1 0xA DUP2 LT PUSH2 0x8DCB JUMPI PUSH2 0x8DCA PUSH2 0xA2D9 JUMP JUMPDEST JUMPDEST ADD DUP2 SWAP1 SSTORE POP PUSH16 0x4B3B4CA85A86CEC05401050498BF84A1 PUSH1 0xC8 PUSH1 0xF PUSH1 0x27 DUP2 LT PUSH2 0x8DF6 JUMPI PUSH2 0x8DF5 PUSH2 0xA2D9 JUMP JUMPDEST JUMPDEST PUSH1 0xA MUL ADD PUSH1 0x7 PUSH1 0xA DUP2 LT PUSH2 0x8E0D JUMPI PUSH2 0x8E0C PUSH2 0xA2D9 JUMP JUMPDEST JUMPDEST ADD DUP2 SWAP1 SSTORE POP PUSH16 0x4B3B4CA85A86D038157FB7B2F7D3A183 PUSH1 0xC8 PUSH1 0xF PUSH1 0x27 DUP2 LT PUSH2 0x8E38 JUMPI PUSH2 0x8E37 PUSH2 0xA2D9 JUMP JUMPDEST JUMPDEST PUSH1 0xA MUL ADD PUSH1 0x8 PUSH1 0xA DUP2 LT PUSH2 0x8E4F JUMPI PUSH2 0x8E4E PUSH2 0xA2D9 JUMP JUMPDEST JUMPDEST ADD DUP2 SWAP1 SSTORE POP PUSH16 0x4B3B4CA85A86D1AFD6FE6A6156EF132A PUSH1 0xC8 PUSH1 0xF PUSH1 0x27 DUP2 LT PUSH2 0x8E7A JUMPI PUSH2 0x8E79 PUSH2 0xA2D9 JUMP JUMPDEST JUMPDEST PUSH1 0xA MUL ADD PUSH1 0x9 PUSH1 0xA DUP2 LT PUSH2 0x8E91 JUMPI PUSH2 0x8E90 PUSH2 0xA2D9 JUMP JUMPDEST JUMPDEST ADD DUP2 SWAP1 SSTORE POP PUSH16 0x4B3B4CA85A86C47A098A224000000000 PUSH1 0xC8 PUSH1 0x10 PUSH1 0x27 DUP2 LT PUSH2 0x8EBC JUMPI PUSH2 0x8EBB PUSH2 0xA2D9 JUMP JUMPDEST JUMPDEST PUSH1 0xA MUL ADD PUSH1 0x0 PUSH1 0xA DUP2 LT PUSH2 0x8ED3 JUMPI PUSH2 0x8ED2 PUSH2 0xA2D9 JUMP JUMPDEST JUMPDEST ADD DUP2 SWAP1 SSTORE POP PUSH16 0x4B3B4CA85A86C49F9CE39A84A316264B PUSH1 0xC8 PUSH1 0x10 PUSH1 0x27 DUP2 LT PUSH2 0x8EFE JUMPI PUSH2 0x8EFD PUSH2 0xA2D9 JUMP JUMPDEST JUMPDEST PUSH1 0xA MUL ADD PUSH1 0x1 PUSH1 0xA DUP2 LT PUSH2 0x8F15 JUMPI PUSH2 0x8F14 PUSH2 0xA2D9 JUMP JUMPDEST JUMPDEST ADD DUP2 SWAP1 SSTORE POP PUSH16 0x4B3B4CA85A86C4C5303D12C9462C5F5C PUSH1 0xC8 PUSH1 0x10 PUSH1 0x27 DUP2 LT PUSH2 0x8F40 JUMPI PUSH2 0x8F3F PUSH2 0xA2D9 JUMP JUMPDEST JUMPDEST PUSH1 0xA MUL ADD PUSH1 0x2 PUSH1 0xA DUP2 LT PUSH2 0x8F57 JUMPI PUSH2 0x8F56 PUSH2 0xA2D9 JUMP JUMPDEST JUMPDEST ADD DUP2 SWAP1 SSTORE POP PUSH16 0x4B3B4CA85A86C4EAC3968B0DE942AB30 PUSH1 0xC8 PUSH1 0x10 PUSH1 0x27 DUP2 LT PUSH2 0x8F82 JUMPI PUSH2 0x8F81 PUSH2 0xA2D9 JUMP JUMPDEST JUMPDEST PUSH1 0xA MUL ADD PUSH1 0x3 PUSH1 0xA DUP2 LT PUSH2 0x8F99 JUMPI PUSH2 0x8F98 PUSH2 0xA2D9 JUMP JUMPDEST JUMPDEST ADD DUP2 SWAP1 SSTORE POP PUSH16 0x4B3B4CA85A86C51056F003528C5909C9 PUSH1 0xC8 PUSH1 0x10 PUSH1 0x27 DUP2 LT PUSH2 0x8FC4 JUMPI PUSH2 0x8FC3 PUSH2 0xA2D9 JUMP JUMPDEST JUMPDEST PUSH1 0xA MUL ADD PUSH1 0x4 PUSH1 0xA DUP2 LT PUSH2 0x8FDB JUMPI PUSH2 0x8FDA PUSH2 0xA2D9 JUMP JUMPDEST JUMPDEST ADD DUP2 SWAP1 SSTORE POP PUSH16 0x4B3B4CA85A86C535EA497B972F6F7B27 PUSH1 0xC8 PUSH1 0x10 PUSH1 0x27 DUP2 LT PUSH2 0x9006 JUMPI PUSH2 0x9005 PUSH2 0xA2D9 JUMP JUMPDEST JUMPDEST PUSH1 0xA MUL ADD PUSH1 0x5 PUSH1 0xA DUP2 LT PUSH2 0x901D JUMPI PUSH2 0x901C PUSH2 0xA2D9 JUMP JUMPDEST JUMPDEST ADD DUP2 SWAP1 SSTORE POP PUSH16 0x4B3B4CA85A86C55B7DA2F3DBD285FF49 PUSH1 0xC8 PUSH1 0x10 PUSH1 0x27 DUP2 LT PUSH2 0x9048 JUMPI PUSH2 0x9047 PUSH2 0xA2D9 JUMP JUMPDEST JUMPDEST PUSH1 0xA MUL ADD PUSH1 0x6 PUSH1 0xA DUP2 LT PUSH2 0x905F JUMPI PUSH2 0x905E PUSH2 0xA2D9 JUMP JUMPDEST JUMPDEST ADD DUP2 SWAP1 SSTORE POP PUSH16 0x4B3B4CA85A86C58110FC6C20759C9630 PUSH1 0xC8 PUSH1 0x10 PUSH1 0x27 DUP2 LT PUSH2 0x908A JUMPI PUSH2 0x9089 PUSH2 0xA2D9 JUMP JUMPDEST JUMPDEST PUSH1 0xA MUL ADD PUSH1 0x7 PUSH1 0xA DUP2 LT PUSH2 0x90A1 JUMPI PUSH2 0x90A0 PUSH2 0xA2D9 JUMP JUMPDEST JUMPDEST ADD DUP2 SWAP1 SSTORE POP PUSH16 0x4B3B4CA85A86C5A6A455E46518B33FDB PUSH1 0xC8 PUSH1 0x10 PUSH1 0x27 DUP2 LT PUSH2 0x90CC JUMPI PUSH2 0x90CB PUSH2 0xA2D9 JUMP JUMPDEST JUMPDEST PUSH1 0xA MUL ADD PUSH1 0x8 PUSH1 0xA DUP2 LT PUSH2 0x90E3 JUMPI PUSH2 0x90E2 PUSH2 0xA2D9 JUMP JUMPDEST JUMPDEST ADD DUP2 SWAP1 SSTORE POP PUSH16 0x4B3B4CA85A86C5CC37AF5CA9BBC9FC4B PUSH1 0xC8 PUSH1 0x10 PUSH1 0x27 DUP2 LT PUSH2 0x910E JUMPI PUSH2 0x910D PUSH2 0xA2D9 JUMP JUMPDEST JUMPDEST PUSH1 0xA MUL ADD PUSH1 0x9 PUSH1 0xA DUP2 LT PUSH2 0x9125 JUMPI PUSH2 0x9124 PUSH2 0xA2D9 JUMP JUMPDEST JUMPDEST ADD DUP2 SWAP1 SSTORE POP PUSH16 0x4B3B4CA85A86C47A098A224000000000 PUSH1 0xC8 PUSH1 0x11 PUSH1 0x27 DUP2 LT PUSH2 0x9150 JUMPI PUSH2 0x914F PUSH2 0xA2D9 JUMP JUMPDEST JUMPDEST PUSH1 0xA MUL ADD PUSH1 0x0 PUSH1 0xA DUP2 LT PUSH2 0x9167 JUMPI PUSH2 0x9166 PUSH2 0xA2D9 JUMP JUMPDEST JUMPDEST ADD DUP2 SWAP1 SSTORE POP PUSH16 0x4B3B4CA85A86C47DCB797B13A9E89C96 PUSH1 0xC8 PUSH1 0x11 PUSH1 0x27 DUP2 LT PUSH2 0x9192 JUMPI PUSH2 0x9191 PUSH2 0xA2D9 JUMP JUMPDEST JUMPDEST PUSH1 0xA MUL ADD PUSH1 0x1 PUSH1 0xA DUP2 LT PUSH2 0x91A9 JUMPI PUSH2 0x91A8 PUSH2 0xA2D9 JUMP JUMPDEST JUMPDEST ADD DUP2 SWAP1 SSTORE POP PUSH16 0x4B3B4CA85A86C4818D68D3E753D1395C PUSH1 0xC8 PUSH1 0x11 PUSH1 0x27 DUP2 LT PUSH2 0x91D4 JUMPI PUSH2 0x91D3 PUSH2 0xA2D9 JUMP JUMPDEST JUMPDEST PUSH1 0xA MUL ADD PUSH1 0x2 PUSH1 0xA DUP2 LT PUSH2 0x91EB JUMPI PUSH2 0x91EA PUSH2 0xA2D9 JUMP JUMPDEST JUMPDEST ADD DUP2 SWAP1 SSTORE POP PUSH16 0x4B3B4CA85A86C4854F582CBAFDB9D651 PUSH1 0xC8 PUSH1 0x11 PUSH1 0x27 DUP2 LT PUSH2 0x9216 JUMPI PUSH2 0x9215 PUSH2 0xA2D9 JUMP JUMPDEST JUMPDEST PUSH1 0xA MUL ADD PUSH1 0x3 PUSH1 0xA DUP2 LT PUSH2 0x922D JUMPI PUSH2 0x922C PUSH2 0xA2D9 JUMP JUMPDEST JUMPDEST ADD DUP2 SWAP1 SSTORE POP PUSH16 0x4B3B4CA85A86C4891147858EA7A27377 PUSH1 0xC8 PUSH1 0x11 PUSH1 0x27 DUP2 LT PUSH2 0x9258 JUMPI PUSH2 0x9257 PUSH2 0xA2D9 JUMP JUMPDEST JUMPDEST PUSH1 0xA MUL ADD PUSH1 0x4 PUSH1 0xA DUP2 LT PUSH2 0x926F JUMPI PUSH2 0x926E PUSH2 0xA2D9 JUMP JUMPDEST JUMPDEST ADD DUP2 SWAP1 SSTORE POP PUSH16 0x4B3B4CA85A86C48CD336DE62518B10CD PUSH1 0xC8 PUSH1 0x11 PUSH1 0x27 DUP2 LT PUSH2 0x929A JUMPI PUSH2 0x9299 PUSH2 0xA2D9 JUMP JUMPDEST JUMPDEST PUSH1 0xA MUL ADD PUSH1 0x5 PUSH1 0xA DUP2 LT PUSH2 0x92B1 JUMPI PUSH2 0x92B0 PUSH2 0xA2D9 JUMP JUMPDEST JUMPDEST ADD DUP2 SWAP1 SSTORE POP PUSH16 0x4B3B4CA85A86C49095263735FB73AE53 PUSH1 0xC8 PUSH1 0x11 PUSH1 0x27 DUP2 LT PUSH2 0x92DC JUMPI PUSH2 0x92DB PUSH2 0xA2D9 JUMP JUMPDEST JUMPDEST PUSH1 0xA MUL ADD PUSH1 0x6 PUSH1 0xA DUP2 LT PUSH2 0x92F3 JUMPI PUSH2 0x92F2 PUSH2 0xA2D9 JUMP JUMPDEST JUMPDEST ADD DUP2 SWAP1 SSTORE POP PUSH16 0x4B3B4CA85A86C49457159009A55C4C09 PUSH1 0xC8 PUSH1 0x11 PUSH1 0x27 DUP2 LT PUSH2 0x931E JUMPI PUSH2 0x931D PUSH2 0xA2D9 JUMP JUMPDEST JUMPDEST PUSH1 0xA MUL ADD PUSH1 0x7 PUSH1 0xA DUP2 LT PUSH2 0x9335 JUMPI PUSH2 0x9334 PUSH2 0xA2D9 JUMP JUMPDEST JUMPDEST ADD DUP2 SWAP1 SSTORE POP PUSH16 0x4B3B4CA85A86C4981904E8DD4F44E9EF PUSH1 0xC8 PUSH1 0x11 PUSH1 0x27 DUP2 LT PUSH2 0x9360 JUMPI PUSH2 0x935F PUSH2 0xA2D9 JUMP JUMPDEST JUMPDEST PUSH1 0xA MUL ADD PUSH1 0x8 PUSH1 0xA DUP2 LT PUSH2 0x9377 JUMPI PUSH2 0x9376 PUSH2 0xA2D9 JUMP JUMPDEST JUMPDEST ADD DUP2 SWAP1 SSTORE POP PUSH16 0x4B3B4CA85A86C49BDAF441B0F92D8805 PUSH1 0xC8 PUSH1 0x11 PUSH1 0x27 DUP2 LT PUSH2 0x93A2 JUMPI PUSH2 0x93A1 PUSH2 0xA2D9 JUMP JUMPDEST JUMPDEST PUSH1 0xA MUL ADD PUSH1 0x9 PUSH1 0xA DUP2 LT PUSH2 0x93B9 JUMPI PUSH2 0x93B8 PUSH2 0xA2D9 JUMP JUMPDEST JUMPDEST ADD DUP2 SWAP1 SSTORE POP PUSH16 0x4B3B4CA85A86C47A098A224000000000 PUSH1 0xC8 PUSH1 0x12 PUSH1 0x27 DUP2 LT PUSH2 0x93E4 JUMPI PUSH2 0x93E3 PUSH2 0xA2D9 JUMP JUMPDEST JUMPDEST PUSH1 0xA MUL ADD PUSH1 0x0 PUSH1 0xA DUP2 LT PUSH2 0x93FB JUMPI PUSH2 0x93FA PUSH2 0xA2D9 JUMP JUMPDEST JUMPDEST ADD DUP2 SWAP1 SSTORE POP PUSH16 0x4B3B4CA85A86C47A69BBAB21F7640FA6 PUSH1 0xC8 PUSH1 0x12 PUSH1 0x27 DUP2 LT PUSH2 0x9426 JUMPI PUSH2 0x9425 PUSH2 0xA2D9 JUMP JUMPDEST JUMPDEST PUSH1 0xA MUL ADD PUSH1 0x1 PUSH1 0xA DUP2 LT PUSH2 0x943D JUMPI PUSH2 0x943C PUSH2 0xA2D9 JUMP JUMPDEST JUMPDEST ADD DUP2 SWAP1 SSTORE POP PUSH16 0x4B3B4CA85A86C47AC9ED3403EEC81F4D PUSH1 0xC8 PUSH1 0x12 PUSH1 0x27 DUP2 LT PUSH2 0x9468 JUMPI PUSH2 0x9467 PUSH2 0xA2D9 JUMP JUMPDEST JUMPDEST PUSH1 0xA MUL ADD PUSH1 0x2 PUSH1 0xA DUP2 LT PUSH2 0x947F JUMPI PUSH2 0x947E PUSH2 0xA2D9 JUMP JUMPDEST JUMPDEST ADD DUP2 SWAP1 SSTORE POP PUSH16 0x4B3B4CA85A86C47B2A1EBCE5E62C2EF5 PUSH1 0xC8 PUSH1 0x12 PUSH1 0x27 DUP2 LT PUSH2 0x94AA JUMPI PUSH2 0x94A9 PUSH2 0xA2D9 JUMP JUMPDEST JUMPDEST PUSH1 0xA MUL ADD PUSH1 0x3 PUSH1 0xA DUP2 LT PUSH2 0x94C1 JUMPI PUSH2 0x94C0 PUSH2 0xA2D9 JUMP JUMPDEST JUMPDEST ADD DUP2 SWAP1 SSTORE POP PUSH16 0x4B3B4CA85A86C47B8A5045C7DD903E9D PUSH1 0xC8 PUSH1 0x12 PUSH1 0x27 DUP2 LT PUSH2 0x94EC JUMPI PUSH2 0x94EB PUSH2 0xA2D9 JUMP JUMPDEST JUMPDEST PUSH1 0xA MUL ADD PUSH1 0x4 PUSH1 0xA DUP2 LT PUSH2 0x9503 JUMPI PUSH2 0x9502 PUSH2 0xA2D9 JUMP JUMPDEST JUMPDEST ADD DUP2 SWAP1 SSTORE POP PUSH16 0x4B3B4CA85A86C47BEA81CEA9D4F44E45 PUSH1 0xC8 PUSH1 0x12 PUSH1 0x27 DUP2 LT PUSH2 0x952E JUMPI PUSH2 0x952D PUSH2 0xA2D9 JUMP JUMPDEST JUMPDEST PUSH1 0xA MUL ADD PUSH1 0x5 PUSH1 0xA DUP2 LT PUSH2 0x9545 JUMPI PUSH2 0x9544 PUSH2 0xA2D9 JUMP JUMPDEST JUMPDEST ADD DUP2 SWAP1 SSTORE POP PUSH16 0x4B3B4CA85A86C47C4AB3578BCC585DEE PUSH1 0xC8 PUSH1 0x12 PUSH1 0x27 DUP2 LT PUSH2 0x9570 JUMPI PUSH2 0x956F PUSH2 0xA2D9 JUMP JUMPDEST JUMPDEST PUSH1 0xA MUL ADD PUSH1 0x6 PUSH1 0xA DUP2 LT PUSH2 0x9587 JUMPI PUSH2 0x9586 PUSH2 0xA2D9 JUMP JUMPDEST JUMPDEST ADD DUP2 SWAP1 SSTORE POP PUSH16 0x4B3B4CA85A86C47CAAE4E06DC3BC6D97 PUSH1 0xC8 PUSH1 0x12 PUSH1 0x27 DUP2 LT PUSH2 0x95B2 JUMPI PUSH2 0x95B1 PUSH2 0xA2D9 JUMP JUMPDEST JUMPDEST PUSH1 0xA MUL ADD PUSH1 0x7 PUSH1 0xA DUP2 LT PUSH2 0x95C9 JUMPI PUSH2 0x95C8 PUSH2 0xA2D9 JUMP JUMPDEST JUMPDEST ADD DUP2 SWAP1 SSTORE POP PUSH16 0x4B3B4CA85A86C47D0B16694FBB207D41 PUSH1 0xC8 PUSH1 0x12 PUSH1 0x27 DUP2 LT PUSH2 0x95F4 JUMPI PUSH2 0x95F3 PUSH2 0xA2D9 JUMP JUMPDEST JUMPDEST PUSH1 0xA MUL ADD PUSH1 0x8 PUSH1 0xA DUP2 LT PUSH2 0x960B JUMPI PUSH2 0x960A PUSH2 0xA2D9 JUMP JUMPDEST JUMPDEST ADD DUP2 SWAP1 SSTORE POP PUSH16 0x4B3B4CA85A86C47D6B47F231B2848CEB PUSH1 0xC8 PUSH1 0x12 PUSH1 0x27 DUP2 LT PUSH2 0x9636 JUMPI PUSH2 0x9635 PUSH2 0xA2D9 JUMP JUMPDEST JUMPDEST PUSH1 0xA MUL ADD PUSH1 0x9 PUSH1 0xA DUP2 LT PUSH2 0x964D JUMPI PUSH2 0x964C PUSH2 0xA2D9 JUMP JUMPDEST JUMPDEST ADD DUP2 SWAP1 SSTORE POP PUSH16 0x4B3B4CA85A86C47A098A224000000000 PUSH1 0xC8 PUSH1 0x13 PUSH1 0x27 DUP2 LT PUSH2 0x9678 JUMPI PUSH2 0x9677 PUSH2 0xA2D9 JUMP JUMPDEST JUMPDEST PUSH1 0xA MUL ADD PUSH1 0x0 PUSH1 0xA DUP2 LT PUSH2 0x968F JUMPI PUSH2 0x968E PUSH2 0xA2D9 JUMP JUMPDEST JUMPDEST ADD DUP2 SWAP1 SSTORE POP PUSH16 0x4B3B4CA85A86C47A1328AFF03256CE5D PUSH1 0xC8 PUSH1 0x13 PUSH1 0x27 DUP2 LT PUSH2 0x96BA JUMPI PUSH2 0x96B9 PUSH2 0xA2D9 JUMP JUMPDEST JUMPDEST PUSH1 0xA MUL ADD PUSH1 0x1 PUSH1 0xA DUP2 LT PUSH2 0x96D1 JUMPI PUSH2 0x96D0 PUSH2 0xA2D9 JUMP JUMPDEST JUMPDEST ADD DUP2 SWAP1 SSTORE POP PUSH16 0x4B3B4CA85A86C47A1CC73DA064AD9CBB PUSH1 0xC8 PUSH1 0x13 PUSH1 0x27 DUP2 LT PUSH2 0x96FC JUMPI PUSH2 0x96FB PUSH2 0xA2D9 JUMP JUMPDEST JUMPDEST PUSH1 0xA MUL ADD PUSH1 0x2 PUSH1 0xA DUP2 LT PUSH2 0x9713 JUMPI PUSH2 0x9712 PUSH2 0xA2D9 JUMP JUMPDEST JUMPDEST ADD DUP2 SWAP1 SSTORE POP PUSH16 0x4B3B4CA85A86C47A2665CB5097046B18 PUSH1 0xC8 PUSH1 0x13 PUSH1 0x27 DUP2 LT PUSH2 0x973E JUMPI PUSH2 0x973D PUSH2 0xA2D9 JUMP JUMPDEST JUMPDEST PUSH1 0xA MUL ADD PUSH1 0x3 PUSH1 0xA DUP2 LT PUSH2 0x9755 JUMPI PUSH2 0x9754 PUSH2 0xA2D9 JUMP JUMPDEST JUMPDEST ADD DUP2 SWAP1 SSTORE POP PUSH16 0x4B3B4CA85A86C47A30045900C95B3976 PUSH1 0xC8 PUSH1 0x13 PUSH1 0x27 DUP2 LT PUSH2 0x9780 JUMPI PUSH2 0x977F PUSH2 0xA2D9 JUMP JUMPDEST JUMPDEST PUSH1 0xA MUL ADD PUSH1 0x4 PUSH1 0xA DUP2 LT PUSH2 0x9797 JUMPI PUSH2 0x9796 PUSH2 0xA2D9 JUMP JUMPDEST JUMPDEST ADD DUP2 SWAP1 SSTORE POP PUSH16 0x4B3B4CA85A86C47A39A2E6B0FBB207D3 PUSH1 0xC8 PUSH1 0x13 PUSH1 0x27 DUP2 LT PUSH2 0x97C2 JUMPI PUSH2 0x97C1 PUSH2 0xA2D9 JUMP JUMPDEST JUMPDEST PUSH1 0xA MUL ADD PUSH1 0x5 PUSH1 0xA DUP2 LT PUSH2 0x97D9 JUMPI PUSH2 0x97D8 PUSH2 0xA2D9 JUMP JUMPDEST JUMPDEST ADD DUP2 SWAP1 SSTORE POP PUSH16 0x4B3B4CA85A86C47A434174612E08D631 PUSH1 0xC8 PUSH1 0x13 PUSH1 0x27 DUP2 LT PUSH2 0x9804 JUMPI PUSH2 0x9803 PUSH2 0xA2D9 JUMP JUMPDEST JUMPDEST PUSH1 0xA MUL ADD PUSH1 0x6 PUSH1 0xA DUP2 LT PUSH2 0x981B JUMPI PUSH2 0x981A PUSH2 0xA2D9 JUMP JUMPDEST JUMPDEST ADD DUP2 SWAP1 SSTORE POP PUSH16 0x4B3B4CA85A86C47A4CE00211605FA48E PUSH1 0xC8 PUSH1 0x13 PUSH1 0x27 DUP2 LT PUSH2 0x9846 JUMPI PUSH2 0x9845 PUSH2 0xA2D9 JUMP JUMPDEST JUMPDEST PUSH1 0xA MUL ADD PUSH1 0x7 PUSH1 0xA DUP2 LT PUSH2 0x985D JUMPI PUSH2 0x985C PUSH2 0xA2D9 JUMP JUMPDEST JUMPDEST ADD DUP2 SWAP1 SSTORE POP PUSH16 0x4B3B4CA85A86C47A567E8FC192B672EB PUSH1 0xC8 PUSH1 0x13 PUSH1 0x27 DUP2 LT PUSH2 0x9888 JUMPI PUSH2 0x9887 PUSH2 0xA2D9 JUMP JUMPDEST JUMPDEST PUSH1 0xA MUL ADD PUSH1 0x8 PUSH1 0xA DUP2 LT PUSH2 0x989F JUMPI PUSH2 0x989E PUSH2 0xA2D9 JUMP JUMPDEST JUMPDEST ADD DUP2 SWAP1 SSTORE POP PUSH16 0x4B3B4CA85A86C47A601D1D71C50D4149 PUSH1 0xC8 PUSH1 0x13 PUSH1 0x27 DUP2 LT PUSH2 0x98CA JUMPI PUSH2 0x98C9 PUSH2 0xA2D9 JUMP JUMPDEST JUMPDEST PUSH1 0xA MUL ADD PUSH1 0x9 PUSH1 0xA DUP2 LT PUSH2 0x98E1 JUMPI PUSH2 0x98E0 PUSH2 0xA2D9 JUMP JUMPDEST JUMPDEST ADD DUP2 SWAP1 SSTORE POP PUSH16 0x4B3B4CA85A86C47A098A224000000000 PUSH1 0xC8 PUSH1 0x14 PUSH1 0x27 DUP2 LT PUSH2 0x990C JUMPI PUSH2 0x990B PUSH2 0xA2D9 JUMP JUMPDEST JUMPDEST PUSH1 0xA MUL ADD PUSH1 0x0 PUSH1 0xA DUP2 LT PUSH2 0x9923 JUMPI PUSH2 0x9922 PUSH2 0xA2D9 JUMP JUMPDEST JUMPDEST ADD DUP2 SWAP1 SSTORE POP PUSH16 0x4B3B4CA85A86C47A0A80639E6B6F14A3 PUSH1 0xC8 PUSH1 0x14 PUSH1 0x27 DUP2 LT PUSH2 0x994E JUMPI PUSH2 0x994D PUSH2 0xA2D9 JUMP JUMPDEST JUMPDEST PUSH1 0xA MUL ADD PUSH1 0x1 PUSH1 0xA DUP2 LT PUSH2 0x9965 JUMPI PUSH2 0x9964 PUSH2 0xA2D9 JUMP JUMPDEST JUMPDEST ADD DUP2 SWAP1 SSTORE POP PUSH16 0x4B3B4CA85A86C47A0B76A4FCD6DE2946 PUSH1 0xC8 PUSH1 0x14 PUSH1 0x27 DUP2 LT PUSH2 0x9990 JUMPI PUSH2 0x998F PUSH2 0xA2D9 JUMP JUMPDEST JUMPDEST PUSH1 0xA MUL ADD PUSH1 0x2 PUSH1 0xA DUP2 LT PUSH2 0x99A7 JUMPI PUSH2 0x99A6 PUSH2 0xA2D9 JUMP JUMPDEST JUMPDEST ADD DUP2 SWAP1 SSTORE POP PUSH16 0x4B3B4CA85A86C47A0C6CE65B424D3DE9 PUSH1 0xC8 PUSH1 0x14 PUSH1 0x27 DUP2 LT PUSH2 0x99D2 JUMPI PUSH2 0x99D1 PUSH2 0xA2D9 JUMP JUMPDEST JUMPDEST PUSH1 0xA MUL ADD PUSH1 0x3 PUSH1 0xA DUP2 LT PUSH2 0x99E9 JUMPI PUSH2 0x99E8 PUSH2 0xA2D9 JUMP JUMPDEST JUMPDEST ADD DUP2 SWAP1 SSTORE POP PUSH16 0x4B3B4CA85A86C47A0D6327B9ADBC528C PUSH1 0xC8 PUSH1 0x14 PUSH1 0x27 DUP2 LT PUSH2 0x9A14 JUMPI PUSH2 0x9A13 PUSH2 0xA2D9 JUMP JUMPDEST JUMPDEST PUSH1 0xA MUL ADD PUSH1 0x4 PUSH1 0xA DUP2 LT PUSH2 0x9A2B JUMPI PUSH2 0x9A2A PUSH2 0xA2D9 JUMP JUMPDEST JUMPDEST ADD DUP2 SWAP1 SSTORE POP PUSH16 0x4B3B4CA85A86C47A0E596918192B672F PUSH1 0xC8 PUSH1 0x14 PUSH1 0x27 DUP2 LT PUSH2 0x9A56 JUMPI PUSH2 0x9A55 PUSH2 0xA2D9 JUMP JUMPDEST JUMPDEST PUSH1 0xA MUL ADD PUSH1 0x5 PUSH1 0xA DUP2 LT PUSH2 0x9A6D JUMPI PUSH2 0x9A6C PUSH2 0xA2D9 JUMP JUMPDEST JUMPDEST ADD DUP2 SWAP1 SSTORE POP PUSH16 0x4B3B4CA85A86C47A0F4FAA76849A7BD2 PUSH1 0xC8 PUSH1 0x14 PUSH1 0x27 DUP2 LT PUSH2 0x9A98 JUMPI PUSH2 0x9A97 PUSH2 0xA2D9 JUMP JUMPDEST JUMPDEST PUSH1 0xA MUL ADD PUSH1 0x6 PUSH1 0xA DUP2 LT PUSH2 0x9AAF JUMPI PUSH2 0x9AAE PUSH2 0xA2D9 JUMP JUMPDEST JUMPDEST ADD DUP2 SWAP1 SSTORE POP PUSH16 0x4B3B4CA85A86C47A1045EBD4F0099075 PUSH1 0xC8 PUSH1 0x14 PUSH1 0x27 DUP2 LT PUSH2 0x9ADA JUMPI PUSH2 0x9AD9 PUSH2 0xA2D9 JUMP JUMPDEST JUMPDEST PUSH1 0xA MUL ADD PUSH1 0x7 PUSH1 0xA DUP2 LT PUSH2 0x9AF1 JUMPI PUSH2 0x9AF0 PUSH2 0xA2D9 JUMP JUMPDEST JUMPDEST ADD DUP2 SWAP1 SSTORE POP PUSH16 0x4B3B4CA85A86C47A113C2D335B78A518 PUSH1 0xC8 PUSH1 0x14 PUSH1 0x27 DUP2 LT PUSH2 0x9B1C JUMPI PUSH2 0x9B1B PUSH2 0xA2D9 JUMP JUMPDEST JUMPDEST PUSH1 0xA MUL ADD PUSH1 0x8 PUSH1 0xA DUP2 LT PUSH2 0x9B33 JUMPI PUSH2 0x9B32 PUSH2 0xA2D9 JUMP JUMPDEST JUMPDEST ADD DUP2 SWAP1 SSTORE POP PUSH16 0x4B3B4CA85A86C47A12326E91C6E7B9BA PUSH1 0xC8 PUSH1 0x14 PUSH1 0x27 DUP2 LT PUSH2 0x9B5E JUMPI PUSH2 0x9B5D PUSH2 0xA2D9 JUMP JUMPDEST JUMPDEST PUSH1 0xA MUL ADD PUSH1 0x9 PUSH1 0xA DUP2 LT PUSH2 0x9B75 JUMPI PUSH2 0x9B74 PUSH2 0xA2D9 JUMP JUMPDEST JUMPDEST ADD DUP2 SWAP1 SSTORE POP PUSH1 0x1 PUSH2 0x24E PUSH1 0x3 PUSH2 0x100 EXP DUP2 SLOAD DUP2 PUSH1 0xFF MUL NOT AND SWAP1 DUP4 ISZERO ISZERO MUL OR SWAP1 SSTORE POP JUMP JUMPDEST PUSH1 0x0 DUP1 DUP4 EQ ISZERO PUSH2 0x9BAB JUMPI PUSH1 0x0 SWAP1 POP PUSH2 0x9C0D JUMP JUMPDEST PUSH1 0x0 DUP3 DUP5 PUSH2 0x9BB9 SWAP2 SWAP1 PUSH2 0xA169 JUMP JUMPDEST SWAP1 POP DUP3 DUP5 DUP3 PUSH2 0x9BC8 SWAP2 SWAP1 PUSH2 0x9FC7 JUMP JUMPDEST EQ PUSH2 0x9C08 JUMPI PUSH1 0x40 MLOAD PUSH32 0x8C379A000000000000000000000000000000000000000000000000000000000 DUP2 MSTORE PUSH1 0x4 ADD PUSH2 0x9BFF SWAP1 PUSH2 0x9F25 JUMP JUMPDEST PUSH1 0x40 MLOAD DUP1 SWAP2 SUB SWAP1 REVERT JUMPDEST DUP1 SWAP2 POP POP JUMPDEST SWAP3 SWAP2 POP POP JUMP JUMPDEST PUSH1 0x0 DUP1 DUP3 DUP5 PUSH2 0x9C22 SWAP2 SWAP1 PUSH2 0x9F71 JUMP JUMPDEST SWAP1 POP DUP4 DUP2 LT ISZERO PUSH2 0x9C67 JUMPI PUSH1 0x40 MLOAD PUSH32 0x8C379A000000000000000000000000000000000000000000000000000000000 DUP2 MSTORE PUSH1 0x4 ADD PUSH2 0x9C5E SWAP1 PUSH2 0x9F25 JUMP JUMPDEST PUSH1 0x40 MLOAD DUP1 SWAP2 SUB SWAP1 REVERT JUMPDEST DUP1 SWAP2 POP POP SWAP3 SWAP2 POP POP JUMP JUMPDEST PUSH1 0x0 DUP1 DUP3 GT PUSH2 0x9CB5 JUMPI PUSH1 0x40 MLOAD PUSH32 0x8C379A000000000000000000000000000000000000000000000000000000000 DUP2 MSTORE PUSH1 0x4 ADD PUSH2 0x9CAC SWAP1 PUSH2 0x9EE5 JUMP JUMPDEST PUSH1 0x40 MLOAD DUP1 SWAP2 SUB SWAP1 REVERT JUMPDEST PUSH1 0x0 DUP3 DUP5 PUSH2 0x9CC3 SWAP2 SWAP1 PUSH2 0x9FC7 JUMP JUMPDEST SWAP1 POP DUP1 SWAP2 POP POP SWAP3 SWAP2 POP POP JUMP JUMPDEST PUSH1 0x0 DUP2 CALLDATALOAD SWAP1 POP PUSH2 0x9CDE DUP2 PUSH2 0xA482 JUMP JUMPDEST SWAP3 SWAP2 POP POP JUMP JUMPDEST PUSH1 0x0 PUSH1 0x20 DUP3 DUP5 SUB SLT ISZERO PUSH2 0x9CFA JUMPI PUSH2 0x9CF9 PUSH2 0xA308 JUMP JUMPDEST JUMPDEST PUSH1 0x0 PUSH2 0x9D08 DUP5 DUP3 DUP6 ADD PUSH2 0x9CCF JUMP JUMPDEST SWAP2 POP POP SWAP3 SWAP2 POP POP JUMP JUMPDEST PUSH1 0x0 DUP1 PUSH1 0x40 DUP4 DUP6 SUB SLT ISZERO PUSH2 0x9D28 JUMPI PUSH2 0x9D27 PUSH2 0xA308 JUMP JUMPDEST JUMPDEST PUSH1 0x0 PUSH2 0x9D36 DUP6 DUP3 DUP7 ADD PUSH2 0x9CCF JUMP JUMPDEST SWAP3 POP POP PUSH1 0x20 PUSH2 0x9D47 DUP6 DUP3 DUP7 ADD PUSH2 0x9CCF JUMP JUMPDEST SWAP2 POP POP SWAP3 POP SWAP3 SWAP1 POP JUMP JUMPDEST PUSH1 0x0 DUP1 PUSH1 0x0 PUSH1 0x60 DUP5 DUP7 SUB SLT ISZERO PUSH2 0x9D6A JUMPI PUSH2 0x9D69 PUSH2 0xA308 JUMP JUMPDEST JUMPDEST PUSH1 0x0 PUSH2 0x9D78 DUP7 DUP3 DUP8 ADD PUSH2 0x9CCF JUMP JUMPDEST SWAP4 POP POP PUSH1 0x20 PUSH2 0x9D89 DUP7 DUP3 DUP8 ADD PUSH2 0x9CCF JUMP JUMPDEST SWAP3 POP POP PUSH1 0x40 PUSH2 0x9D9A DUP7 DUP3 DUP8 ADD PUSH2 0x9CCF JUMP JUMPDEST SWAP2 POP POP SWAP3 POP SWAP3 POP SWAP3 JUMP JUMPDEST PUSH1 0x0 PUSH2 0x9DB1 PUSH1 0x12 DUP4 PUSH2 0x9F60 JUMP JUMPDEST SWAP2 POP PUSH2 0x9DBC DUP3 PUSH2 0xA31A JUMP JUMPDEST PUSH1 0x20 DUP3 ADD SWAP1 POP SWAP2 SWAP1 POP JUMP JUMPDEST PUSH1 0x0 PUSH2 0x9DD4 PUSH1 0x20 DUP4 PUSH2 0x9F60 JUMP JUMPDEST SWAP2 POP PUSH2 0x9DDF DUP3 PUSH2 0xA343 JUMP JUMPDEST PUSH1 0x20 DUP3 ADD SWAP1 POP SWAP2 SWAP1 POP JUMP JUMPDEST PUSH1 0x0 PUSH2 0x9DF7 PUSH1 0x25 DUP4 PUSH2 0x9F60 JUMP JUMPDEST SWAP2 POP PUSH2 0x9E02 DUP3 PUSH2 0xA36C JUMP JUMPDEST PUSH1 0x40 DUP3 ADD SWAP1 POP SWAP2 SWAP1 POP JUMP JUMPDEST PUSH1 0x0 PUSH2 0x9E1A PUSH1 0x10 DUP4 PUSH2 0x9F60 JUMP JUMPDEST SWAP2 POP PUSH2 0x9E25 DUP3 PUSH2 0xA3BB JUMP JUMPDEST PUSH1 0x20 DUP3 ADD SWAP1 POP SWAP2 SWAP1 POP JUMP JUMPDEST PUSH1 0x0 PUSH2 0x9E3D PUSH1 0x22 DUP4 PUSH2 0x9F60 JUMP JUMPDEST SWAP2 POP PUSH2 0x9E48 DUP3 PUSH2 0xA3E4 JUMP JUMPDEST PUSH1 0x40 DUP3 ADD SWAP1 POP SWAP2 SWAP1 POP JUMP JUMPDEST PUSH1 0x0 PUSH2 0x9E60 PUSH1 0x21 DUP4 PUSH2 0x9F60 JUMP JUMPDEST SWAP2 POP PUSH2 0x9E6B DUP3 PUSH2 0xA433 JUMP JUMPDEST PUSH1 0x40 DUP3 ADD SWAP1 POP SWAP2 SWAP1 POP JUMP JUMPDEST PUSH2 0x9E7F DUP2 PUSH2 0xA1F7 JUMP JUMPDEST DUP3 MSTORE POP POP JUMP JUMPDEST PUSH1 0x0 PUSH1 0x20 DUP3 ADD SWAP1 POP DUP2 DUP2 SUB PUSH1 0x0 DUP4 ADD MSTORE PUSH2 0x9E9E DUP2 PUSH2 0x9DA4 JUMP JUMPDEST SWAP1 POP SWAP2 SWAP1 POP JUMP JUMPDEST PUSH1 0x0 PUSH1 0x20 DUP3 ADD SWAP1 POP DUP2 DUP2 SUB PUSH1 0x0 DUP4 ADD MSTORE PUSH2 0x9EBE DUP2 PUSH2 0x9DC7 JUMP JUMPDEST SWAP1 POP SWAP2 SWAP1 POP JUMP JUMPDEST PUSH1 0x0 PUSH1 0x20 DUP3 ADD SWAP1 POP DUP2 DUP2 SUB PUSH1 0x0 DUP4 ADD MSTORE PUSH2 0x9EDE DUP2 PUSH2 0x9DEA JUMP JUMPDEST SWAP1 POP SWAP2 SWAP1 POP JUMP JUMPDEST PUSH1 0x0 PUSH1 0x20 DUP3 ADD SWAP1 POP DUP2 DUP2 SUB PUSH1 0x0 DUP4 ADD MSTORE PUSH2 0x9EFE DUP2 PUSH2 0x9E0D JUMP JUMPDEST SWAP1 POP SWAP2 SWAP1 POP JUMP JUMPDEST PUSH1 0x0 PUSH1 0x20 DUP3 ADD SWAP1 POP DUP2 DUP2 SUB PUSH1 0x0 DUP4 ADD MSTORE PUSH2 0x9F1E DUP2 PUSH2 0x9E30 JUMP JUMPDEST SWAP1 POP SWAP2 SWAP1 POP JUMP JUMPDEST PUSH1 0x0 PUSH1 0x20 DUP3 ADD SWAP1 POP DUP2 DUP2 SUB PUSH1 0x0 DUP4 ADD MSTORE PUSH2 0x9F3E DUP2 PUSH2 0x9E53 JUMP JUMPDEST SWAP1 POP SWAP2 SWAP1 POP JUMP JUMPDEST PUSH1 0x0 PUSH1 0x20 DUP3 ADD SWAP1 POP PUSH2 0x9F5A PUSH1 0x0 DUP4 ADD DUP5 PUSH2 0x9E76 JUMP JUMPDEST SWAP3 SWAP2 POP POP JUMP JUMPDEST PUSH1 0x0 DUP3 DUP3 MSTORE PUSH1 0x20 DUP3 ADD SWAP1 POP SWAP3 SWAP2 POP POP JUMP JUMPDEST PUSH1 0x0 PUSH2 0x9F7C DUP3 PUSH2 0xA1F7 JUMP JUMPDEST SWAP2 POP PUSH2 0x9F87 DUP4 PUSH2 0xA1F7 JUMP JUMPDEST SWAP3 POP DUP3 PUSH32 0xFFFFFFFFFFFFFFFFFFFFFFFFFFFFFFFFFFFFFFFFFFFFFFFFFFFFFFFFFFFFFFFF SUB DUP3 GT ISZERO PUSH2 0x9FBC JUMPI PUSH2 0x9FBB PUSH2 0xA27B JUMP JUMPDEST JUMPDEST DUP3 DUP3 ADD SWAP1 POP SWAP3 SWAP2 POP POP JUMP JUMPDEST PUSH1 0x0 PUSH2 0x9FD2 DUP3 PUSH2 0xA1F7 JUMP JUMPDEST SWAP2 POP PUSH2 0x9FDD DUP4 PUSH2 0xA1F7 JUMP JUMPDEST SWAP3 POP DUP3 PUSH2 0x9FED JUMPI PUSH2 0x9FEC PUSH2 0xA2AA JUMP JUMPDEST JUMPDEST DUP3 DUP3 DIV SWAP1 POP SWAP3 SWAP2 POP POP JUMP JUMPDEST PUSH1 0x0 DUP1 DUP3 SWAP2 POP DUP4 SWAP1 POP JUMPDEST PUSH1 0x1 DUP6 GT ISZERO PUSH2 0xA042 JUMPI DUP1 DUP7 DIV DUP2 GT ISZERO PUSH2 0xA01E JUMPI PUSH2 0xA01D PUSH2 0xA27B JUMP JUMPDEST JUMPDEST PUSH1 0x1 DUP6 AND ISZERO PUSH2 0xA02D JUMPI DUP1 DUP3 MUL SWAP2 POP JUMPDEST DUP1 DUP2 MUL SWAP1 POP PUSH2 0xA03B DUP6 PUSH2 0xA30D JUMP JUMPDEST SWAP5 POP PUSH2 0xA002 JUMP JUMPDEST SWAP5 POP SWAP5 SWAP3 POP POP POP JUMP JUMPDEST PUSH1 0x0 PUSH2 0xA056 DUP3 PUSH2 0xA1F7 JUMP JUMPDEST SWAP2 POP PUSH2 0xA061 DUP4 PUSH2 0xA1F7 JUMP JUMPDEST SWAP3 POP PUSH2 0xA08E PUSH32 0xFFFFFFFFFFFFFFFFFFFFFFFFFFFFFFFFFFFFFFFFFFFFFFFFFFFFFFFFFFFFFFFF DUP5 DUP5 PUSH2 0xA096 JUMP JUMPDEST SWAP1 POP SWAP3 SWAP2 POP POP JUMP JUMPDEST PUSH1 0x0 DUP3 PUSH2 0xA0A6 JUMPI PUSH1 0x1 SWAP1 POP PUSH2 0xA162 JUMP JUMPDEST DUP2 PUSH2 0xA0B4 JUMPI PUSH1 0x0 SWAP1 POP PUSH2 0xA162 JUMP JUMPDEST DUP2 PUSH1 0x1 DUP2 EQ PUSH2 0xA0CA JUMPI PUSH1 0x2 DUP2 EQ PUSH2 0xA0D4 JUMPI PUSH2 0xA103 JUMP JUMPDEST PUSH1 0x1 SWAP2 POP POP PUSH2 0xA162 JUMP JUMPDEST PUSH1 0xFF DUP5 GT ISZERO PUSH2 0xA0E6 JUMPI PUSH2 0xA0E5 PUSH2 0xA27B JUMP JUMPDEST JUMPDEST DUP4 PUSH1 0x2 EXP SWAP2 POP DUP5 DUP3 GT ISZERO PUSH2 0xA0FD JUMPI PUSH2 0xA0FC PUSH2 0xA27B JUMP JUMPDEST JUMPDEST POP PUSH2 0xA162 JUMP JUMPDEST POP PUSH1 0x20 DUP4 LT PUSH2 0x133 DUP4 LT AND PUSH1 0x4E DUP5 LT PUSH1 0xB DUP5 LT AND OR ISZERO PUSH2 0xA138 JUMPI DUP3 DUP3 EXP SWAP1 POP DUP4 DUP2 GT ISZERO PUSH2 0xA133 JUMPI PUSH2 0xA132 PUSH2 0xA27B JUMP JUMPDEST JUMPDEST PUSH2 0xA162 JUMP JUMPDEST PUSH2 0xA145 DUP5 DUP5 DUP5 PUSH1 0x1 PUSH2 0x9FF8 JUMP JUMPDEST SWAP3 POP SWAP1 POP DUP2 DUP5 DIV DUP2 GT ISZERO PUSH2 0xA15C JUMPI PUSH2 0xA15B PUSH2 0xA27B JUMP JUMPDEST JUMPDEST DUP2 DUP2 MUL SWAP1 POP JUMPDEST SWAP4 SWAP3 POP POP POP JUMP JUMPDEST PUSH1 0x0 PUSH2 0xA174 DUP3 PUSH2 0xA1F7 JUMP JUMPDEST SWAP2 POP PUSH2 0xA17F DUP4 PUSH2 0xA1F7 JUMP JUMPDEST SWAP3 POP DUP2 PUSH32 0xFFFFFFFFFFFFFFFFFFFFFFFFFFFFFFFFFFFFFFFFFFFFFFFFFFFFFFFFFFFFFFFF DIV DUP4 GT DUP3 ISZERO ISZERO AND ISZERO PUSH2 0xA1B8 JUMPI PUSH2 0xA1B7 PUSH2 0xA27B JUMP JUMPDEST JUMPDEST DUP3 DUP3 MUL SWAP1 POP SWAP3 SWAP2 POP POP JUMP JUMPDEST PUSH1 0x0 PUSH2 0xA1CE DUP3 PUSH2 0xA1F7 JUMP JUMPDEST SWAP2 POP PUSH2 0xA1D9 DUP4 PUSH2 0xA1F7 JUMP JUMPDEST SWAP3 POP DUP3 DUP3 LT ISZERO PUSH2 0xA1EC JUMPI PUSH2 0xA1EB PUSH2 0xA27B JUMP JUMPDEST JUMPDEST DUP3 DUP3 SUB SWAP1 POP SWAP3 SWAP2 POP POP JUMP JUMPDEST PUSH1 0x0 DUP2 SWAP1 POP SWAP2 SWAP1 POP JUMP JUMPDEST PUSH1 0x0 PUSH2 0xA20C DUP3 PUSH2 0xA1F7 JUMP JUMPDEST SWAP2 POP PUSH32 0xFFFFFFFFFFFFFFFFFFFFFFFFFFFFFFFFFFFFFFFFFFFFFFFFFFFFFFFFFFFFFFFF DUP3 EQ ISZERO PUSH2 0xA23F JUMPI PUSH2 0xA23E PUSH2 0xA27B JUMP JUMPDEST JUMPDEST PUSH1 0x1 DUP3 ADD SWAP1 POP SWAP2 SWAP1 POP JUMP JUMPDEST PUSH1 0x0 PUSH2 0xA255 DUP3 PUSH2 0xA1F7 JUMP JUMPDEST SWAP2 POP PUSH2 0xA260 DUP4 PUSH2 0xA1F7 JUMP JUMPDEST SWAP3 POP DUP3 PUSH2 0xA270 JUMPI PUSH2 0xA26F PUSH2 0xA2AA JUMP JUMPDEST JUMPDEST DUP3 DUP3 MOD SWAP1 POP SWAP3 SWAP2 POP POP JUMP JUMPDEST PUSH32 0x4E487B7100000000000000000000000000000000000000000000000000000000 PUSH1 0x0 MSTORE PUSH1 0x11 PUSH1 0x4 MSTORE PUSH1 0x24 PUSH1 0x0 REVERT JUMPDEST PUSH32 0x4E487B7100000000000000000000000000000000000000000000000000000000 PUSH1 0x0 MSTORE PUSH1 0x12 PUSH1 0x4 MSTORE PUSH1 0x24 PUSH1 0x0 REVERT JUMPDEST PUSH32 0x4E487B7100000000000000000000000000000000000000000000000000000000 PUSH1 0x0 MSTORE PUSH1 0x32 PUSH1 0x4 MSTORE PUSH1 0x24 PUSH1 0x0 REVERT JUMPDEST PUSH1 0x0 DUP1 REVERT JUMPDEST PUSH1 0x0 DUP2 PUSH1 0x1 SHR SWAP1 POP SWAP2 SWAP1 POP JUMP JUMPDEST PUSH32 0x696E707574206D757374206265203E3D20310000000000000000000000000000 PUSH1 0x0 DUP3 ADD MSTORE POP JUMP JUMPDEST PUSH32 0x4C6F6F6B7570207461626C652033206D75737420666972737420626520736574 PUSH1 0x0 DUP3 ADD MSTORE POP JUMP JUMPDEST PUSH32 0x4C6F6F6B7570207461626C6573203120262032206D7573742066697273742062 PUSH1 0x0 DUP3 ADD MSTORE PUSH32 0x6520736574000000000000000000000000000000000000000000000000000000 PUSH1 0x20 DUP3 ADD MSTORE POP JUMP JUMPDEST PUSH32 0x6469766973696F6E206279207A65726F00000000000000000000000000000000 PUSH1 0x0 DUP3 ADD MSTORE POP JUMP JUMPDEST PUSH32 0x696E7075742078206D7573742062652077697468696E2072616E6765205B312C PUSH1 0x0 DUP3 ADD MSTORE PUSH32 0x325B000000000000000000000000000000000000000000000000000000000000 PUSH1 0x20 DUP3 ADD MSTORE POP JUMP JUMPDEST PUSH32 0x75696E74206F766572666C6F772066726F6D206D756C7469706C69636174696F PUSH1 0x0 DUP3 ADD MSTORE PUSH32 0x6E00000000000000000000000000000000000000000000000000000000000000 PUSH1 0x20 DUP3 ADD MSTORE POP JUMP JUMPDEST PUSH2 0xA48B DUP2 PUSH2 0xA1F7 JUMP JUMPDEST DUP2 EQ PUSH2 0xA496 JUMPI PUSH1 0x0 DUP1 REVERT JUMPDEST POP JUMP INVALID LOG2 PUSH5 0x6970667358 0x22 SLT KECCAK256 0xBD SSTORE SWAP5 PUSH30 0x63226F749914F8BFB10D48A6CF9172E6BCF5C07B1DF69228DAFEB6076473 PUSH16 0x6C634300080700330000000000000000 "
		},
		"gasEstimates": {
			"creation": {
				"codeDepositCost": "8438200",
				"executionCost": "157214",
				"totalCost": "8595414"
			},
			"external": {
				"chopAndRound(uint256,uint256,uint256)": "infinite",
				"convert30To18DP(uint256)": "infinite",
				"convert30To20DP(uint256)": "infinite",
				"convert38To18DP(uint256)": "infinite",
				"convert38To30DP(uint256)": "infinite",
				"countDigits(uint256)": "infinite",
				"decDiv18(uint256,uint256)": "infinite",
				"decMul18(uint256,uint256)": "infinite",
				"decMul30(uint256,uint256)": "infinite",
				"decMul38(uint256,uint256)": "infinite",
				"exp(uint256)": "infinite",
				"exp_taylor(uint256)": "infinite",
				"floor(uint256)": "infinite",
				"ln(uint256,uint256)": "infinite",
				"log_2(uint256,uint256)": "infinite",
				"pow(uint256,uint256)": "infinite",
				"pow2(uint256)": "infinite",
				"powBySquare(uint256,uint256)": "infinite",
				"powBySquare18(uint256,uint256)": "infinite",
				"powBySquare38(uint256,uint256)": "infinite",
				"setLUT1()": "2221655",
				"setLUT2()": "2238872",
				"setLUT3_1()": "2464330",
				"setLUT3_2()": "2242571",
				"setLUT3_3()": "2242551",
				"setLUT3_4()": "1798907",
				"table2_log_2(uint256)": "infinite",
				"table_log_2(uint256)": "infinite",
				"table_pow2(uint256,uint256)": "infinite"
			},
			"internal": {
				"add(uint256,uint256)": "infinite",
				"div(uint256,uint256)": "infinite",
				"mul(uint256,uint256)": "infinite",
				"sub(uint256,uint256)": "infinite"
			}
		},
		"methodIdentifiers": {
			"chopAndRound(uint256,uint256,uint256)": "d3f87aae",
			"convert30To18DP(uint256)": "8e962c70",
			"convert30To20DP(uint256)": "8d5dab35",
			"convert38To18DP(uint256)": "24433426",
			"convert38To30DP(uint256)": "78b09c47",
			"countDigits(uint256)": "9636c762",
			"decDiv18(uint256,uint256)": "64ce07d8",
			"decMul18(uint256,uint256)": "f7523c52",
			"decMul30(uint256,uint256)": "58be7a89",
			"decMul38(uint256,uint256)": "6172f467",
			"exp(uint256)": "b581fbe3",
			"exp_taylor(uint256)": "1ea97975",
			"floor(uint256)": "504f5e56",
			"ln(uint256,uint256)": "44f7787f",
			"log_2(uint256,uint256)": "e92fab3b",
			"pow(uint256,uint256)": "2e4c697f",
			"pow2(uint256)": "442b7ffb",
			"powBySquare(uint256,uint256)": "422b0d8d",
			"powBySquare18(uint256,uint256)": "34eceac0",
			"powBySquare38(uint256,uint256)": "a2693515",
			"setLUT1()": "e5ac5717",
			"setLUT2()": "a463a087",
			"setLUT3_1()": "22aa59fc",
			"setLUT3_2()": "fed6bde0",
			"setLUT3_3()": "344d0095",
			"setLUT3_4()": "26a4c99f",
			"table2_log_2(uint256)": "595a8d07",
			"table_log_2(uint256)": "dc1a1e09",
			"table_pow2(uint256,uint256)": "b2f21109"
		}
	},
	"abi": [
		{
			"inputs": [
				{
					"internalType": "uint256",
					"name": "num",
					"type": "uint256"
				},
				{
					"internalType": "uint256",
					"name": "digit",
					"type": "uint256"
				},
				{
					"internalType": "uint256",
					"name": "positionOfChop",
					"type": "uint256"
				}
			],
			"name": "chopAndRound",
			"outputs": [
				{
					"internalType": "uint256",
					"name": "chopped",
					"type": "uint256"
				}
			],
			"stateMutability": "pure",
			"type": "function"
		},
		{
			"inputs": [
				{
					"internalType": "uint256",
					"name": "x",
					"type": "uint256"
				}
			],
			"name": "convert30To18DP",
			"outputs": [
				{
					"internalType": "uint256",
					"name": "y",
					"type": "uint256"
				}
			],
			"stateMutability": "pure",
			"type": "function"
		},
		{
			"inputs": [
				{
					"internalType": "uint256",
					"name": "x",
					"type": "uint256"
				}
			],
			"name": "convert30To20DP",
			"outputs": [
				{
					"internalType": "uint256",
					"name": "y",
					"type": "uint256"
				}
			],
			"stateMutability": "pure",
			"type": "function"
		},
		{
			"inputs": [
				{
					"internalType": "uint256",
					"name": "x",
					"type": "uint256"
				}
			],
			"name": "convert38To18DP",
			"outputs": [
				{
					"internalType": "uint256",
					"name": "y",
					"type": "uint256"
				}
			],
			"stateMutability": "pure",
			"type": "function"
		},
		{
			"inputs": [
				{
					"internalType": "uint256",
					"name": "x",
					"type": "uint256"
				}
			],
			"name": "convert38To30DP",
			"outputs": [
				{
					"internalType": "uint256",
					"name": "y",
					"type": "uint256"
				}
			],
			"stateMutability": "pure",
			"type": "function"
		},
		{
			"inputs": [
				{
					"internalType": "uint256",
					"name": "num",
					"type": "uint256"
				}
			],
			"name": "countDigits",
			"outputs": [
				{
					"internalType": "uint256",
					"name": "",
					"type": "uint256"
				}
			],
			"stateMutability": "view",
			"type": "function"
		},
		{
			"inputs": [
				{
					"internalType": "uint256",
					"name": "x",
					"type": "uint256"
				},
				{
					"internalType": "uint256",
					"name": "y",
					"type": "uint256"
				}
			],
			"name": "decDiv18",
			"outputs": [
				{
					"internalType": "uint256",
					"name": "decQuotient",
					"type": "uint256"
				}
			],
			"stateMutability": "pure",
			"type": "function"
		},
		{
			"inputs": [
				{
					"internalType": "uint256",
					"name": "x",
					"type": "uint256"
				},
				{
					"internalType": "uint256",
					"name": "y",
					"type": "uint256"
				}
			],
			"name": "decMul18",
			"outputs": [
				{
					"internalType": "uint256",
					"name": "decProd",
					"type": "uint256"
				}
			],
			"stateMutability": "pure",
			"type": "function"
		},
		{
			"inputs": [
				{
					"internalType": "uint256",
					"name": "x",
					"type": "uint256"
				},
				{
					"internalType": "uint256",
					"name": "y",
					"type": "uint256"
				}
			],
			"name": "decMul30",
			"outputs": [
				{
					"internalType": "uint256",
					"name": "decProd",
					"type": "uint256"
				}
			],
			"stateMutability": "pure",
			"type": "function"
		},
		{
			"inputs": [
				{
					"internalType": "uint256",
					"name": "x",
					"type": "uint256"
				},
				{
					"internalType": "uint256",
					"name": "y",
					"type": "uint256"
				}
			],
			"name": "decMul38",
			"outputs": [
				{
					"internalType": "uint256",
					"name": "decProd",
					"type": "uint256"
				}
			],
			"stateMutability": "pure",
			"type": "function"
		},
		{
			"inputs": [
				{
					"internalType": "uint256",
					"name": "x",
					"type": "uint256"
				}
			],
			"name": "exp",
			"outputs": [
				{
					"internalType": "uint256",
					"name": "num",
					"type": "uint256"
				}
			],
			"stateMutability": "view",
			"type": "function"
		},
		{
			"inputs": [
				{
					"internalType": "uint256",
					"name": "x",
					"type": "uint256"
				}
			],
			"name": "exp_taylor",
			"outputs": [
				{
					"internalType": "uint256",
					"name": "",
					"type": "uint256"
				}
			],
			"stateMutability": "pure",
			"type": "function"
		},
		{
			"inputs": [
				{
					"internalType": "uint256",
					"name": "x",
					"type": "uint256"
				}
			],
			"name": "floor",
			"outputs": [
				{
					"internalType": "uint256",
					"name": "num",
					"type": "uint256"
				}
			],
			"stateMutability": "pure",
			"type": "function"
		},
		{
			"inputs": [
				{
					"internalType": "uint256",
					"name": "x",
					"type": "uint256"
				},
				{
					"internalType": "uint256",
					"name": "accuracy",
					"type": "uint256"
				}
			],
			"name": "ln",
			"outputs": [
				{
					"internalType": "uint256",
					"name": "",
					"type": "uint256"
				}
			],
			"stateMutability": "view",
			"type": "function"
		},
		{
			"inputs": [
				{
					"internalType": "uint256",
					"name": "x",
					"type": "uint256"
				},
				{
					"internalType": "uint256",
					"name": "accuracy",
					"type": "uint256"
				}
			],
			"name": "log_2",
			"outputs": [
				{
					"internalType": "uint256",
					"name": "",
					"type": "uint256"
				}
			],
			"stateMutability": "view",
			"type": "function"
		},
		{
			"inputs": [
				{
					"internalType": "uint256",
					"name": "base",
					"type": "uint256"
				},
				{
					"internalType": "uint256",
					"name": "x",
					"type": "uint256"
				}
			],
			"name": "pow",
			"outputs": [
				{
					"internalType": "uint256",
					"name": "power",
					"type": "uint256"
				}
			],
			"stateMutability": "view",
			"type": "function"
		},
		{
			"inputs": [
				{
					"internalType": "uint256",
					"name": "x",
					"type": "uint256"
				}
			],
			"name": "pow2",
			"outputs": [
				{
					"internalType": "uint256",
					"name": "",
					"type": "uint256"
				}
			],
			"stateMutability": "view",
			"type": "function"
		},
		{
			"inputs": [
				{
					"internalType": "uint256",
					"name": "x",
					"type": "uint256"
				},
				{
					"internalType": "uint256",
					"name": "n",
					"type": "uint256"
				}
			],
			"name": "powBySquare",
			"outputs": [
				{
					"internalType": "uint256",
					"name": "",
					"type": "uint256"
				}
			],
			"stateMutability": "pure",
			"type": "function"
		},
		{
			"inputs": [
				{
					"internalType": "uint256",
					"name": "base",
					"type": "uint256"
				},
				{
					"internalType": "uint256",
					"name": "n",
					"type": "uint256"
				}
			],
			"name": "powBySquare18",
			"outputs": [
				{
					"internalType": "uint256",
					"name": "",
					"type": "uint256"
				}
			],
			"stateMutability": "pure",
			"type": "function"
		},
		{
			"inputs": [
				{
					"internalType": "uint256",
					"name": "base",
					"type": "uint256"
				},
				{
					"internalType": "uint256",
					"name": "n",
					"type": "uint256"
				}
			],
			"name": "powBySquare38",
			"outputs": [
				{
					"internalType": "uint256",
					"name": "",
					"type": "uint256"
				}
			],
			"stateMutability": "pure",
			"type": "function"
		},
		{
			"inputs": [],
			"name": "setLUT1",
			"outputs": [],
			"stateMutability": "nonpayable",
			"type": "function"
		},
		{
			"inputs": [],
			"name": "setLUT2",
			"outputs": [],
			"stateMutability": "nonpayable",
			"type": "function"
		},
		{
			"inputs": [],
			"name": "setLUT3_1",
			"outputs": [],
			"stateMutability": "nonpayable",
			"type": "function"
		},
		{
			"inputs": [],
			"name": "setLUT3_2",
			"outputs": [],
			"stateMutability": "nonpayable",
			"type": "function"
		},
		{
			"inputs": [],
			"name": "setLUT3_3",
			"outputs": [],
			"stateMutability": "nonpayable",
			"type": "function"
		},
		{
			"inputs": [],
			"name": "setLUT3_4",
			"outputs": [],
			"stateMutability": "nonpayable",
			"type": "function"
		},
		{
			"inputs": [
				{
					"internalType": "uint256",
					"name": "",
					"type": "uint256"
				}
			],
			"name": "table2_log_2",
			"outputs": [
				{
					"internalType": "uint256",
					"name": "",
					"type": "uint256"
				}
			],
			"stateMutability": "view",
			"type": "function"
		},
		{
			"inputs": [
				{
					"internalType": "uint256",
					"name": "",
					"type": "uint256"
				}
			],
			"name": "table_log_2",
			"outputs": [
				{
					"internalType": "uint256",
					"name": "",
					"type": "uint256"
				}
			],
			"stateMutability": "view",
			"type": "function"
		},
		{
			"inputs": [
				{
					"internalType": "uint256",
					"name": "",
					"type": "uint256"
				},
				{
					"internalType": "uint256",
					"name": "",
					"type": "uint256"
				}
			],
			"name": "table_pow2",
			"outputs": [
				{
					"internalType": "uint256",
					"name": "",
					"type": "uint256"
				}
			],
			"stateMutability": "view",
			"type": "function"
		}
	]
}